# 17719394 - Ambrotien

## Common Data

| Field            | Value                         |
|------------------|-------------------------------|
| Zone             | Southern San d'Oria (ID: 230) |
| Block Size       | 14684 bytes                   |
| Total Events     | 97                            |
| References Count | 261                           |

## List of Events

| Event ID                   | Entrypoint   |   Size |   Instructions |
|----------------------------|--------------|--------|----------------|
| [65535](#event-65535)      | 0x0000       |      1 |              1 |
| [0](#event-0)              | 0x0001       |      1 |              1 |
| [2011](#event-2011)        | 0x0002       |     36 |             10 |
| [2000](#event-2000)        | 0x0026       |    591 |             88 |
| [2002](#event-2002)        | 0x0275       |    220 |             32 |
| [2008](#event-2008)        | 0x0351       |    191 |             25 |
| [2010](#event-2010)        | 0x0410       |    210 |             28 |
| [2009](#event-2009)        | 0x04E2       |    657 |            126 |
| [2001](#event-2001)        | 0x0773       |    467 |             73 |
| [2003](#event-2003)        | 0x0946       |    888 |            122 |
| [2004](#event-2004)        | 0x0CBE       |    500 |             66 |
| [2024](#event-2024)        | 0x0EB2       |    607 |             82 |
| [2005](#event-2005)        | 0x1111       |    585 |             85 |
| [2006](#event-2006)        | 0x135A       |    469 |             62 |
| [2007](#event-2007)        | 0x152F       |    699 |             93 |
| [2012](#event-2012)        | 0x17EA       |    566 |             82 |
| [2013](#event-2013)        | 0x1A20       |    810 |            117 |
| [2015](#event-2015)        | 0x1D4A       |    185 |             27 |
| [65535.1](#event-655351)   | 0x1E03       |     16 |              2 |
| [65535.2](#event-655352)   | 0x1E13       |     22 |              4 |
| [65535.3](#event-655353)   | 0x1E29       |     16 |              2 |
| [65535.4](#event-655354)   | 0x1E39       |     14 |              2 |
| [65535.5](#event-655355)   | 0x1E47       |     16 |              2 |
| [65535.6](#event-655356)   | 0x1E57       |     14 |              2 |
| [65535.7](#event-655357)   | 0x1E65       |     16 |              2 |
| [65535.8](#event-655358)   | 0x1E75       |     14 |              2 |
| [65535.9](#event-655359)   | 0x1E83       |     16 |              2 |
| [65535.10](#event-6553510) | 0x1E93       |     14 |              2 |
| [65535.11](#event-6553511) | 0x1EA1       |     16 |              2 |
| [65535.12](#event-6553512) | 0x1EB1       |     14 |              2 |
| [65535.13](#event-6553513) | 0x1EBF       |     16 |              2 |
| [65535.14](#event-6553514) | 0x1ECF       |     14 |              2 |
| [65535.15](#event-6553515) | 0x1EDD       |     16 |              2 |
| [65535.16](#event-6553516) | 0x1EED       |     14 |              2 |
| [65535.17](#event-6553517) | 0x1EFB       |     16 |              2 |
| [65535.18](#event-6553518) | 0x1F0B       |     14 |              2 |
| [65535.19](#event-6553519) | 0x1F19       |     16 |              2 |
| [65535.20](#event-6553520) | 0x1F29       |     14 |              2 |
| [65535.21](#event-6553521) | 0x1F37       |      9 |              3 |
| [2020](#event-2020)        | 0x1F40       |   1249 |            151 |
| [65535.22](#event-6553522) | 0x2421       |      5 |              3 |
| [65535.23](#event-6553523) | 0x2426       |      5 |              3 |
| [65535.24](#event-6553524) | 0x242B       |      5 |              3 |
| [65535.25](#event-6553525) | 0x2430       |      5 |              3 |
| [65535.26](#event-6553526) | 0x2435       |      5 |              3 |
| [65535.27](#event-6553527) | 0x243A       |     23 |              7 |
| [65535.28](#event-6553528) | 0x2451       |      5 |              3 |
| [65535.29](#event-6553529) | 0x2456       |    640 |             75 |
| [65535.30](#event-6553530) | 0x26D6       |      5 |              3 |
| [65535.31](#event-6553531) | 0x26DB       |      5 |              3 |
| [65535.32](#event-6553532) | 0x26E0       |      5 |              3 |
| [65535.33](#event-6553533) | 0x26E5       |      5 |              3 |
| [65535.34](#event-6553534) | 0x26EA       |      5 |              3 |
| [65535.35](#event-6553535) | 0x26EF       |      5 |              3 |
| [65535.36](#event-6553536) | 0x26F4       |      5 |              3 |
| [65535.37](#event-6553537) | 0x26F9       |      5 |              3 |
| [2021](#event-2021)        | 0x26FE       |     33 |             12 |
| [2022](#event-2022)        | 0x271F       |     29 |             10 |
| [2023](#event-2023)        | 0x273C       |    225 |             27 |
| [65535.38](#event-6553538) | 0x281D       |      9 |              5 |
| [65535.39](#event-6553539) | 0x2826       |      5 |              3 |
| [65535.40](#event-6553540) | 0x282B       |    585 |             66 |
| [65535.41](#event-6553541) | 0x2A74       |      5 |              3 |
| [65535.42](#event-6553542) | 0x2A79       |      5 |              3 |
| [65535.43](#event-6553543) | 0x2A7E       |      5 |              3 |
| [65535.44](#event-6553544) | 0x2A83       |      5 |              3 |
| [65535.45](#event-6553545) | 0x2A88       |      5 |              3 |
| [65535.46](#event-6553546) | 0x2A8D       |      5 |              3 |
| [65535.47](#event-6553547) | 0x2A92       |      5 |              3 |
| [2025](#event-2025)        | 0x2A97       |     33 |             12 |
| [2026](#event-2026)        | 0x2AB8       |    326 |             38 |
| [65535.48](#event-6553548) | 0x2BFE       |      5 |              3 |
| [65535.49](#event-6553549) | 0x2C03       |      5 |              3 |
| [65535.50](#event-6553550) | 0x2C08       |      5 |              3 |
| [65535.51](#event-6553551) | 0x2C0D       |      5 |              3 |
| [65535.52](#event-6553552) | 0x2C12       |      5 |              3 |
| [2027](#event-2027)        | 0x2C17       |    278 |             32 |
| [2028](#event-2028)        | 0x2D2D       |     33 |             12 |
| [65535.53](#event-6553553) | 0x2D4E       |    202 |             25 |
| [65535.54](#event-6553554) | 0x2E18       |      5 |              3 |
| [65535.55](#event-6553555) | 0x2E1D       |      5 |              3 |
| [2029](#event-2029)        | 0x2E22       |     15 |              8 |
| [2032](#event-2032)        | 0x2E31       |     15 |              8 |
| [2030](#event-2030)        | 0x2E40       |    192 |             23 |
| [65535.56](#event-6553556) | 0x2F00       |      5 |              3 |
| [65535.57](#event-6553557) | 0x2F05       |      5 |              3 |
| [2031](#event-2031)        | 0x2F0A       |     15 |              8 |
| [62](#event-62)            | 0x2F19       |     36 |             10 |
| [1036](#event-1036)        | 0x2F3D       |      4 |              2 |
| [1038](#event-1038)        | 0x2F41       |      4 |              2 |
| [1040](#event-1040)        | 0x2F45       |      4 |              2 |
| [1034](#event-1034)        | 0x2F49       |      4 |              2 |
| [1042](#event-1042)        | 0x2F4D       |      4 |              2 |
| [1044](#event-1044)        | 0x2F51       |      4 |              2 |
| [1046](#event-1046)        | 0x2F55       |   1109 |            315 |
| [957](#event-957)          | 0x33AA       |      9 |              3 |
| [991](#event-991)          | 0x33B3       |      1 |              1 |

## DAT References (imed_data)

|   Index | Hex Value   |   Dec Value |
|---------|-------------|-------------|
|       0 | 0x0014      |          20 |
|       1 | 0x1C3E      |        7230 |
|       2 | 0x001E      |          30 |
|       3 | 0x00C8      |         200 |
|       4 | 0x0000      |           0 |
|       5 | 0x003C      |          60 |
|       6 | 0x0003      |           3 |
|       7 | 0x005A      |          90 |
|       8 | 0x1C3D      |        7229 |
|       9 | 0x1C44      |        7236 |
|      10 | 0x0082      |         130 |
|      11 | 0x1C45      |        7237 |
|      12 | 0x1C46      |        7238 |
|      13 | 0x1C47      |        7239 |
|      14 | 0x1C48      |        7240 |
|      15 | 0x1C49      |        7241 |
|      16 | 0x4110      |       16656 |
|      17 | 0x1C4A      |        7242 |
|      18 | 0x0005      |           5 |
|      19 | 0x0006      |           6 |
|      20 | 0x1C4B      |        7243 |
|      21 | 0x1C4C      |        7244 |
|      22 | 0x1C4D      |        7245 |
|      23 | 0x0001      |           1 |
|      24 | 0x0002      |           2 |
|      25 | 0x40000000  |  1073741824 |
|      26 | 0x23FD      |        9213 |
|      27 | 0x1C4E      |        7246 |
|      28 | 0x1C4F      |        7247 |
|      29 | 0x00C9      |         201 |
|      30 | 0x1C50      |        7248 |
|      31 | 0x1C51      |        7249 |
|      32 | 0x1C52      |        7250 |
|      33 | 0x1C40      |        7232 |
|      34 | 0x001F      |          31 |
|      35 | 0x0008      |           8 |
|      36 | 0x0004      |           4 |
|      37 | 0x0007      |           7 |
|      38 | 0x0009      |           9 |
|      39 | 0x000A      |          10 |
|      40 | 0x000F      |          15 |
|      41 | 0x000B      |          11 |
|      42 | 0x000C      |          12 |
|      43 | 0x000D      |          13 |
|      44 | 0x000E      |          14 |
|      45 | 0x0010      |          16 |
|      46 | 0x0011      |          17 |
|      47 | 0x0012      |          18 |
|      48 | 0x0013      |          19 |
|      49 | 0x0015      |          21 |
|      50 | 0x0016      |          22 |
|      51 | 0x0017      |          23 |
|      52 | 0x0018      |          24 |
|      53 | 0x0019      |          25 |
|      54 | 0x001A      |          26 |
|      55 | 0x001B      |          27 |
|      56 | 0x001C      |          28 |
|      57 | 0x001D      |          29 |
|      58 | 0x1C41      |        7233 |
|      59 | 0x1C3F      |        7231 |
|      60 | 0x23FC      |        9212 |
|      61 | 0x1C54      |        7252 |
|      62 | 0x1C55      |        7253 |
|      63 | 0x037B      |         891 |
|      64 | 0x1C56      |        7254 |
|      65 | 0x1C57      |        7255 |
|      66 | 0x1C58      |        7256 |
|      67 | 0x1C59      |        7257 |
|      68 | 0x1C5A      |        7258 |
|      69 | 0x1C5B      |        7259 |
|      70 | 0x1C5C      |        7260 |
|      71 | 0x1C5D      |        7261 |
|      72 | 0x1C5E      |        7262 |
|      73 | 0x1C5F      |        7263 |
|      74 | 0x1C60      |        7264 |
|      75 | 0x1C61      |        7265 |
|      76 | 0x1C62      |        7266 |
|      77 | 0x1C63      |        7267 |
|      78 | 0x1C64      |        7268 |
|      79 | 0x1C65      |        7269 |
|      80 | 0x1C66      |        7270 |
|      81 | 0x1C67      |        7271 |
|      82 | 0x1C68      |        7272 |
|      83 | 0x0020      |          32 |
|      84 | 0x1C69      |        7273 |
|      85 | 0x0023      |          35 |
|      86 | 0x1C6A      |        7274 |
|      87 | 0x1C6B      |        7275 |
|      88 | 0x1C6C      |        7276 |
|      89 | 0x20FA      |        8442 |
|      90 | 0x20FB      |        8443 |
|      91 | 0x20FC      |        8444 |
|      92 | 0x20FD      |        8445 |
|      93 | 0x241D      |        9245 |
|      94 | 0x1C6E      |        7278 |
|      95 | 0x1C6F      |        7279 |
|      96 | 0x1C70      |        7280 |
|      97 | 0x1C71      |        7281 |
|      98 | 0x1C72      |        7282 |
|      99 | 0x1C73      |        7283 |
|     100 | 0x1C75      |        7285 |
|     101 | 0x1C76      |        7286 |
|     102 | 0x1C77      |        7287 |
|     103 | 0x1C78      |        7288 |
|     104 | 0x1C79      |        7289 |
|     105 | 0x1C7A      |        7290 |
|     106 | 0x0068      |         104 |
|     107 | 0x1C7B      |        7291 |
|     108 | 0x1C7C      |        7292 |
|     109 | 0x1C7D      |        7293 |
|     110 | 0x1C7E      |        7294 |
|     111 | 0x2105      |        8453 |
|     112 | 0x1C7F      |        7295 |
|     113 | 0x1C81      |        7297 |
|     114 | 0x1C82      |        7298 |
|     115 | 0x1C83      |        7299 |
|     116 | 0x1C86      |        7302 |
|     117 | 0x1C87      |        7303 |
|     118 | 0x1C88      |        7304 |
|     119 | 0x1C89      |        7305 |
|     120 | 0x1C8A      |        7306 |
|     121 | 0x1C8B      |        7307 |
|     122 | 0x1C8D      |        7309 |
|     123 | 0x1C8E      |        7310 |
|     124 | 0x11B0      |        4528 |
|     125 | 0x1C8F      |        7311 |
|     126 | 0x1C90      |        7312 |
|     127 | 0x1C91      |        7313 |
|     128 | 0x006F      |         111 |
|     129 | 0x1C92      |        7314 |
|     130 | 0x1C93      |        7315 |
|     131 | 0x1C94      |        7316 |
|     132 | 0x1C95      |        7317 |
|     133 | 0x1C96      |        7318 |
|     134 | 0x1C97      |        7319 |
|     135 | 0x1CA0      |        7328 |
|     136 | 0x1CA1      |        7329 |
|     137 | 0x1CA2      |        7330 |
|     138 | 0x1CA3      |        7331 |
|     139 | 0x1CA4      |        7332 |
|     140 | 0x1CA5      |        7333 |
|     141 | 0x1CA6      |        7334 |
|     142 | 0x1CA7      |        7335 |
|     143 | 0x1CA8      |        7336 |
|     144 | 0x0024      |          36 |
|     145 | 0x23EA      |        9194 |
|     146 | 0x23EB      |        9195 |
|     147 | 0x007A      |         122 |
|     148 | 0x007F      |         127 |
|     149 | 0x23EC      |        9196 |
|     150 | 0x23F1      |        9201 |
|     151 | 0x05E0      |        1504 |
|     152 | 0x23F2      |        9202 |
|     153 | 0x23F5      |        9205 |
|     154 | 0x006B      |         107 |
|     155 | 0x0078      |         120 |
|     156 | 0x0064      |         100 |
|     157 | 0x23EE      |        9198 |
|     158 | 0x23F0      |        9200 |
|     159 | 0x23F3      |        9203 |
|     160 | 0x23F6      |        9206 |
|     161 | 0x23F8      |        9208 |
|     162 | 0x23F9      |        9209 |
|     163 | 0x23FA      |        9210 |
|     164 | 0x23FB      |        9211 |
|     165 | 0x2404      |        9220 |
|     166 | 0x0065      |         101 |
|     167 | 0x23FE      |        9214 |
|     168 | 0x23FF      |        9215 |
|     169 | 0x2400      |        9216 |
|     170 | 0x2401      |        9217 |
|     171 | 0x2402      |        9218 |
|     172 | 0x2403      |        9219 |
|     173 | 0x2405      |        9221 |
|     174 | 0x2406      |        9222 |
|     175 | 0x2407      |        9223 |
|     176 | 0x2408      |        9224 |
|     177 | 0x2409      |        9225 |
|     178 | 0x240A      |        9226 |
|     179 | 0x240B      |        9227 |
|     180 | 0x240C      |        9228 |
|     181 | 0x0066      |         102 |
|     182 | 0x240D      |        9229 |
|     183 | 0x240F      |        9231 |
|     184 | 0x2410      |        9232 |
|     185 | 0x2411      |        9233 |
|     186 | 0x2412      |        9234 |
|     187 | 0x2413      |        9235 |
|     188 | 0x2414      |        9236 |
|     189 | 0x2415      |        9237 |
|     190 | 0x2416      |        9238 |
|     191 | 0x2417      |        9239 |
|     192 | 0x2418      |        9240 |
|     193 | 0x2419      |        9241 |
|     194 | 0x241A      |        9242 |
|     195 | 0x241B      |        9243 |
|     196 | 0x241E      |        9246 |
|     197 | 0x2421      |        9249 |
|     198 | 0x2422      |        9250 |
|     199 | 0x006E      |         110 |
|     200 | 0x2423      |        9251 |
|     201 | 0x2424      |        9252 |
|     202 | 0x2425      |        9253 |
|     203 | 0x2426      |        9254 |
|     204 | 0x2427      |        9255 |
|     205 | 0x2428      |        9256 |
|     206 | 0x2429      |        9257 |
|     207 | 0x1CA9      |        7337 |
|     208 | 0x1CAA      |        7338 |
|     209 | 0x1CAB      |        7339 |
|     210 | 0x1CAC      |        7340 |
|     211 | 0x1CAD      |        7341 |
|     212 | 0x1CAE      |        7342 |
|     213 | 0x1CAF      |        7343 |
|     214 | 0x1CB0      |        7344 |
|     215 | 0x1CB1      |        7345 |
|     216 | 0x010D      |         269 |
|     217 | 0x1CB2      |        7346 |
|     218 | 0x1CB4      |        7348 |
|     219 | 0x1CB5      |        7349 |
|     220 | 0x1CB6      |        7350 |
|     221 | 0x0025      |          37 |
|     222 | 0x1CB7      |        7351 |
|     223 | 0x1CB8      |        7352 |
|     224 | 0x1CB9      |        7353 |
|     225 | 0x1CBA      |        7354 |
|     226 | 0x1CBB      |        7355 |
|     227 | 0x1CBC      |        7356 |
|     228 | 0x1CBD      |        7357 |
|     229 | 0x1CBE      |        7358 |
|     230 | 0x1CBF      |        7359 |
|     231 | 0x1CC0      |        7360 |
|     232 | 0x1CC1      |        7361 |
|     233 | 0x1CC2      |        7362 |
|     234 | 0x1CC3      |        7363 |
|     235 | 0x011C      |         284 |
|     236 | 0x1CC4      |        7364 |
|     237 | 0x1CC5      |        7365 |
|     238 | 0x1CC6      |        7366 |
|     239 | 0x0026      |          38 |
|     240 | 0x1CC7      |        7367 |
|     241 | 0x1CC8      |        7368 |
|     242 | 0x1CC9      |        7369 |
|     243 | 0x1CCA      |        7370 |
|     244 | 0x1CCC      |        7372 |
|     245 | 0x1CCD      |        7373 |
|     246 | 0x1CCE      |        7374 |
|     247 | 0x1CCF      |        7375 |
|     248 | 0x1CD0      |        7376 |
|     249 | 0x1CD2      |        7378 |
|     250 | 0x1CD3      |        7379 |
|     251 | 0x1CD4      |        7380 |
|     252 | 0x1CD5      |        7381 |
|     253 | 0x1CD6      |        7382 |
|     254 | 0x1CD7      |        7383 |
|     255 | 0x1CD8      |        7384 |
|     256 | 0x1CD9      |        7385 |
|     257 | 0x1CDA      |        7386 |
|     258 | 0x1CDB      |        7387 |
|     259 | 0x1CDC      |        7388 |
|     260 | 0x1CDD      |        7389 |

## String References

- **7229**: A recruit? What do you want with this gatehouse?
- **7230**: Only citizens of San d'Oria may apply for missions here. Go see your country's consulate in Northern San d'Oria.
- **7231**: Finish your current mission first, then come back for another.
- **7232**: Which mission will you undertake? [Smash the Orcish Scouts./Bat Hunt./Save the Children./The Rescue Drill./The Davoi Report./Journey Abroad./Journey to Bastok./Journey to Windurst./Journey to Bastok./Journey to Windurst./Infiltrate Davoi./The Crystal Spring./Appointment to Jeuno./Magicite./The Ruins of Fei'Yin./The Shadow Lord./Leaute's Last Wishes./Ranperre's Final Rest./Prestige of the Papsque./The Secret Weapon./Coming of Age./Lightbringer./Breaking Barriers./The Heir to the Light./10-1./10-2./$3_$3~[26./$3_$3~[27./$3_$3~[28./$3_$3~[29./$3_$3~[30./None.]
- **7233**: Accept this mission? [Yes./No.]
- **7236**: Your business? [A mission, please./Nothing.]
- **7237**: Hmm...not much work for those wet behind the ears, but...
- **7238**: How about slaying Orcish scouts? Only the yellowest of yearlings would run from that, and we've no work for cowards here.
- **7239**: If you're to take the mission, I'll be happy to explain.
- **7240**: Interested? [Tell me more./Never mind.]
- **7241**: Here's your mission. Orcish scouts roam outside; kill one and bring me his axe as proof.
- **7242**: You'll have to bring me $0. No other kind will do. Understand?
- **7243**: That is all. You'll take the mission then?
- **7244**: Do you accept the mission? [I accept./Could you explain again?/No, thank you.]
- **7245**: Bring me one of those axes, and your mission will be a success. No running away now; we've a proud country to defend!
- **7246**: Oh, you're back. Well, if you're so happy you defeated an Orc or two, you've a long way ahead of you!
- **7247**: That's another $0 for the armory, then. Mission complete! Not bad for a new recruit.
- **7248**: What? I don't want this!
- **7249**: Are you really a new recruit!?
- **7250**: Listen, before you bring me something, you must first accept the mission! That is how things work around here!
- **7252**: Bat patrol! How about it? Shouldn't be a problem for an adventurer such as yourself, no?
- **7253**: Here's your mission, then. Clear out bats lurking in King Ranperre's Tomb and bring me a fang as proof.
- **7254**: Bring me $0 and your mission will be a success.
- **7255**: Deep in the tomb you'll find Goblins. Take care; I don't want to lose you yet.
- **7256**: Ah, you've returned! I was afraid that Goblins got you.
- **7257**: That's one $3 for the gatehouse, then. Mission complete. Not bad for a new recruit.
- **7258**: Ah, the recruit's back again? I'm sorry, but I've no time for you today.
- **7259**: Well, perhaps you can be of some help. Many of our children have disappeared mysteriously, and I've no doubt the Ghelsba Orcs are behind it.
- **7260**: The Royal Knights should be on the job by now, but the two princes are at each other's throats.
- **7261**: Prince Trion, the eldest, says we should launch a full attack, with all haste.
- **7262**: While his younger brother, Prince Pieuje says the safety of the children comes first, and he won't authorize an attack.
- **7263**: They've been arguing this back and forth for days. The knights' hands are tied, and frankly, nobody knows what to do.
- **7264**: If you really want to make a name for yourself, go to Ghelsba, and rescue those kidnapped children!
- **7265**: What say you? Will you go?
- **7266**: Here's your mission, then. Rescue the two children kidnapped by the Orcs of Ghelsba Outpost.
- **7267**: Ghelsba Outpost is northwest of West Ronfaure. Take the path before the Westgate, then turn right when the path splits in the forest. You'll find the entrance up in the hills.
- **7268**: If you have trouble finding the way, just follow one of the soldiers on patrol.
- **7269**: Orcs tend to keep their hostages in tents or small huts. Once you're inside the compound, check them first.
- **7270**: Ah, you've returned! You were gone so long, I feared a warmachine had got you!
- **7271**: At any rate, mission complete! And to reward your accomplishment...
- **7272**: I hereby recognize you, <Player>, as a certified adventurer of San d'Oria! You're now mission rank two, as well.
- **7273**: But don't get too excited. Your title is valid only here in San d'Oria, understand?
- **7274**: In order to become a true adventurer, and bear $6, you must be recognized by Bastok and Windurst as well.
- **7275**: 'Tis a treaty between the three lands, and its word is law. I know it's hard, but those are the rules.
- **7276**: For now, cut your adventuring teeth in the areas near here. Sooner or later you'll find your way into other lands.
- **7278**: There's not much work in right now. I suppose you could go participate in the Temple Knights' rescue drills out on the La Theine Plateau.
- **7279**: Enter the forest beyond the Westgate and head southwest. You'll come out onto the La Theine Plateau before long.
- **7280**: Once you're out on the plateau, keep going until you see the knights. The training grounds aren't far from there.
- **7281**: It's all just a drill, so this should be easy compared to your usual fare. Just follow orders and you'll be fine.
- **7282**: You've returned! I hear the drill turned into something far more perilous. But real battle is the best drill for recruits, in my opinion.
- **7283**: Regardless, you've done well. I'll turn to you when there's work to be done, now.
- **7285**: This time it's messenger duty. One of our knights is out scouting in a place called Davoi, on the southern edge of Jugner Forest.
- **7286**: The Orcs' stronghold is in Davoi, so it's vital that we stop them from massing, or they may launch an assault.
- **7287**: Of course, the Orcs are keeping an eye on us, too. Why, just a few days past, a squad of our Royal Knights fell to their axes.
- **7288**: We have sent scouts to find a weakness in their defenses. You must find the scout there now, and bring back the latest scouting report.
- **7289**: The scout's name is Zantaviat. He's somewhere in Davoi, but where I cannot say.
- **7290**: Come back after you've gotten the report. Those lands are no place to wander.
- **7291**: You have returned! And you've brought the scouting report. Good work, <Player>.
- **7292**: Troubling news, this is. It says that Orcs are gathering deep inside the encampment. The time to act is coming!
- **7293**: But that is not your concern. You've done well today. Mission complete!
- **7294**: Oh, it's you, <Player>. And at just the right time, too. Monarlais Halver is looking for an adventurer such as yourself.
- **7295**: Enter Chateau d'Oraguille. Monarlais Halver is there; he'll explain in person.
- **7297**: Ah, welcome back. I see you've been certified in Bastok and Windurst. Good work. You'll make a fine adventurer.
- **7298**: What's that, a report for our kingdom? I see. Take that to the monarlais when you go.
- **7299**: You should receive $6 from Monarlais Halver. Now, go to Chateau d'Oraguille and let them know you're back!
- **7302**: Ah! You've come at just the right time. Zantaviat, one of our scouts in Davoi, needs an adventurer.
- **7303**: He wants someone to infiltrate Davoi and scout behind enemy lines. Know anyone fitting that description?
- **7304**: Now that you've got your $3, this is an opportunity to prove you're worth it!
- **7305**: The situation in Davoi worsens by the day. This won't be easy, but I can't think of a better adventurer for the job!
- **7306**: You've returned! Zantaviat told me everything. Congratulations on a job well done!
- **7307**: But we can't let down our guard yet. Those Orcs will not just sit there. We must keep constant vigil, and move before they do!
- **7309**: Welcome back! I have an important mission for you this time. Recently, land is eroding due to crystal formation...and it's getting worse.
- **7310**: There's a small spring on the eastern edge of Jugner Forest, called Crystwater Spring. We must know what effect crystal formation has on the wildlife there.
- **7311**: I want you to get me a fish from the spring. And not just any fish! You need to get $0.
- **7312**: Ah, that reminds me--have you any fishing gear? You'll need some for this mission.
- **7313**: There are people about that know a thing or two about fishing, should you need help finding and choosing your gear.
- **7314**: Ah, the great angler returns! I was worried, to be honest. All you hear these days is the massing of beasts, the erosion of the Crystal Lines, and now...
- **7315**: ...rumors that the Shadow Lord himself has returned!
- **7316**: We will examine the fish you brought. Depending on the results, we may need to act! I'll let you know if we need your help.
- **7317**: Ah, it's you, <Player>. You've come at a good time. I've news for you.
- **7318**: By order of the Kingdom of San d'Oria, you're to head to Jeuno as an ambassadorial attach<Player>i.
- **7319**: Go to Chateau d'Oraguille. Monarlais Halver will tell you all you need to know.
- **7328**: There you are! I've been looking for you. Monarlais Halver requests your presence at the chateau immediately.
- **7329**: It sounds as if this is a fairly important mission. I need not remind you that you should take care to properly equip yourself before embarking on this journey.
- **7330**: I'm not sure what it's about, but you'd best make haste. The monarlais is not to be kept waiting!
- **7331**: Why, if it isn't <Player>! This is no time for loafing around, friend! Prince Trion is looking for you.
- **7332**: For this next mission, he's requested you personally. You should be honored!
- **7333**: As for the details of the mission, I've no idea what he wants, but he was in a hurry. You'd best be off to Chateau d'Oraguille!
- **7334**: It is a great thing you've done, <Player>! I knew deep in my heart that you were the one for the task.
- **7335**: You'd better get to the chateau quick. They're all waiting to welcome you back, I'd wager.
- **7336**: You've saved our proud Kingdom of San d'Oria. No, you're the savior of all Vana'diel! There's not a soul that doesn't owe you a great debt, <Player>.
- **7337**: Ah, if it isn't <Player>! You had best hurry off to Chateau d'Oraguille. It seems as if something terrible is in the works there.
- **7338**: Well, if it isn't <Player>! Your timing is perfect. The chateau just sent a request for an adventurer.
- **7339**: It looks as if this next mission has something to do with the late queen. You should feel honored. It's not every day that an adventurer gets to work directly with the royal family.
- **7340**: Spoken like a true San d'Orian! Now hurry off to Chateau d'Oraguille and get the details on the mission from Monarlais Halver.
- **7341**: What's wrong? Dealing with royalty is not your cup of tea? Well, think about it and come back when you've come to your senses.
- **7342**: Prince Trion is requesting the aid of an adventurer. How about it?
- **7343**: It looks fairly urgent, so you should hurry to the chateau. The prince is waiting in his chambers.
- **7344**: I expected more from you, <Player>. If you change your mind, return here. I'll be waiting.
- **7345**: I have received the details of your mission from Prince Trion. I will deliver this book to the scholars for deciphering.
- **7346**: The deciphering of the $3 will take a considerable amount of time. Return later for a report.
- **7348**: Ah, <Player>. We've been waiting. Prince Trion is calling for you. I wonder if this means the $3 has been completely deciphered.
- **7349**: Well done, <Player>! I knew you would not let the Kingdom down.
- **7350**: I'm proud to increase your rank to 7!
- **7351**: The papsque has work for you, <Player>. Are you willing to take on the task?
- **7352**: Excellent. Proceed to the papsque's chambers on the third floor of the cathedral.
- **7353**: The papsque often comes across as a difficult man, but he is actually very kindhearted and compassionate. If you change your mind, I'll be waiting here.
- **7354**: The fair Claidie I d'Oraguille has invited you to the chateau. She wishes for you to see the flowers that have bloomed from the seeds you brought back from Altepa.
- **7355**: It is an honor to be invited to the chateau garden. One day you may even have the opportunity to attend one of their royal garden parties.
- **7356**: We cannot keep the princess waiting. Now, off to the chateau!
- **7357**: A party of Royal Knights stationed in Ghelsba Outpost have reported strange activity by Orcs deep within Yughott Grotto.
- **7358**: From your reports, we already know that the beastmen have built a giant portal, but their motives remain unclear.
- **7359**: It makes me shudder to think of what those Orcs are planning with that portal...
- **7360**: <Player>, your next mission is to travel to Ghelsba and continue your investigation into the Orcs' activities.
- **7361**: Be on your guard when traveling deep into Yughott Grotto. Losing an adventurer such as yourself would deal a great blow to all of San d'Oria.
- **7362**: I see you need more time for preparations. When you are ready, I'll be waiting.
- **7363**: It's hard to believe Orcs have their hands on such dangerous equipment. More patrols will have to be sent out to prevent any new developments in their evil plans.
- **7364**: And this $3... We will have to analyze it and begin reproduction for our forces. We cannot let Orcs get the Treasure of the Dragon King before San d'Oria does.
- **7365**: Well, congratulations on the completion of your mission. Hmmm? Do I know of an adventurer named Eideialc? Never heard of him.
- **7366**: But you need not worry about some petty traveler. You are in a different league. You are now rank 8!
- **7367**: Princess Claidie's coming-of-age ceremony is drawing near. This ceremony is an important facet of d'Oraguille tradition.
- **7368**: Monarlais Halver has put out a call to high-ranking adventurers for their assistance in Chateau d'Oraguille.
- **7369**: Ah, the young princess has finally become a lady... Oh, I'm sorry. You can get the details of your next mission from Sir Halver.
- **7370**: What? You do not wish to repay the kindness the princess has shown to you in the past months? As you wish...but if you change your mind, you know where to find me.
- **7372**: Princess Claidie's coming-of-age ceremony is about to begin at the cathedral. I must remain at my post, but why don't you attend?
- **7373**: The king has requested your audience. He has selected you from the mountain of adventurers in San d'Oria. You should feel honored!
- **7374**: You have matured from a fledgling adventurer into a great asset to our kingdom. Do not let us down.
- **7375**: There is no need for modesty at a time like this. The fate of San d'Oria is at stake!
- **7376**: The authorities are saying that a dark cloud of despair is looming over the Kingdom. They are asking for the assistance of only the best adventurers.
- **7378**: Then proceed to the Audience Chamber in the Chateau d'Oraguille. Word has it that His Highness is not feeling that well. He may not be present for your briefing.
- **7379**: [Sir/Lady] <Player>! The Kingdom is counting on you. Who else, I ask you, is worthy for this task?
- **7380**: Ah, a time of great change is upon us. In a matter of days, the Rites of Succession will be held at the cathedral in Northern San d'Oria. It is then that the new heir to the throne will be decided.
- **7381**: Due to the unpredictable circumstances that took place at the princess's coming-of-age ceremony, this time, only authorized personnel will be allowed near the proceedings. However, the royal family has requested your services as a guard.
- **7382**: Even we Royal Knights have not been granted permission to attend... You must be held in high regard by His Highness. I envy you, [Sir/Ma'am].
- **7383**: When you have finished your preparations, proceed directly to the cathedral to report.
- **7384**: Off the record, which of the two princes do you think should be the next heir to the throne?
- **7385**: It is a difficult decision, but... [Trion is better suited./Pieuje is better suited.]
- **7386**: Hm... Being the oldest, he is the true heir, and many people believe he is the most suited to rule the Kingdom. However, Prince Pieuje's prudent ways may be what this country is lacking.
- **7387**: Many think as you do, [Sir/Lady] <Player>. However, what this country may need is someone who will not back down in the face of a threat--someone who will stand up for the pride of the Kingdom.
- **7388**: But our opinion is of no matter. Lightbringer will decide who is the most suited to stand over our fine nation. And do not speak a word of today's exchange, for the monarlais will have our heads if he finds out.
- **7389**: I realize that you must have many preparations before taking on such an important mission. Take your time and return here when you are ready.
- **8442**: You're one of my favorite recruits, and always have given you new missions. But I must look after many more adventurers than just yourself.
- **8443**: Henceforth, I must judge your worthiness for your next mission based on your rank points.
- **8444**: In order to earn rank points, participate in our conquests, and thereby get crystals to give to the Temple Knight.
- **8445**: If you want to know more about conquests, ask the Temple Knight who stands before any gate.
- **8453**: Accept mission? [Accept./No, thanks.]
- **9194**: Oh, you're back. Well, if you're so happy you defeated an Orc or two, you've a long way ahead of you!
- **9195**: For one so new, I'd be... Hmm?
- **9198**: Who are you, and why do you pry with such inquiries?
- **9200**: You've what!?
- **9201**: Very well. Listen closely. Fifteen years ago, Queen Leaute fell to a rare sickness. She left this world before we could save her.
- **9203**: Well, it's none of your concern at any rate. Even if she lived, an adventurer like you could never see her, much less the inside of Chateau d'Oraguille.
- **9206**: We are not told such things. Only the royal family would know.
- **9208**: Hey, wait!
- **9209**: What was the matter with that adventurer? He was awfully stubborn, wasn't he?
- **9210**: He seemed to know the late queen personally, but how could he not be aware of her death?
- **9211**: At any rate, your work is done. Excellent form, my friend!
- **9212**: What, you want the mission from rank one again?
- **9213**: I knew you'd return safely, and with the $3. Mission completed!
- **9214**: Have you ever set foot into King Ranperre's Tomb?
- **9215**: Two hundred years ago, the curtain fell on the golden age of San d'Oria. Civil war erupted over the Kingdom's hegemony.
- **9216**: King Ranperre was there to extinguish the conflict. When he died he was interred in a great tomb south of East Ronfaure.
- **9217**: But unknown hands have defiled his grave of late.
- **9218**: Visitors report missing gravestones and shadows twisting in the caverns. Ravaging a royal tomb is an unforgivable crime!
- **9219**: Your orders are to investigate the tomb and determine if there is any truth to what they say. Do you understand?
- **9220**: Accept the mission? [I accept./I do not accept.]
- **9221**: I implore you to make haste to King Ranperre's Tomb. You may find proof of grave-robbers there.
- **9222**: But wander too deeply within, and Goblins might find you. Tread boldly, my friend, but do not go in over your head!
- **9223**: Visitors report missing gravestones and shadows twisting in the caverns. Scour the tomb and determine if they speak the truth.
- **9224**: Make haste to King Ranperre's Tomb. You may find proof of grave-robbers there.
- **9225**: Have you really searched the tomb?
- **9226**: So, you got this from bats in King Ranperre's Tomb?
- **9227**: You see, this actually belonged to an Orc. What could Orcs want with the tomb?
- **9228**: At any rate, your mission is over. Speak not a word of this to another.
- **9229**: Ah, the recruit's back again? I'm sorry, but I've no time for you today.
- **9231**: Oh, who am I fooling? Of course I could use your help!
- **9232**: Have you not heard? Orcs came and kidnapped some children! We think they're keeping them at their lair in Ghelsba.
- **9233**: Why, not long ago came ill news from the cathedral. A boy training to be a friar went near Ghelsba and did not return. His name was Tedimout.
- **9234**: The Royal Knights would march to his rescue, but Prince Trion is away in the north, and cannot give the order.
- **9235**: Prince Pieuje is in earnest deliberations over whether to send Temple Knights instead. It seems his efforts are focused upon saving the children, but...
- **9236**: But no matter. We need knowledge of the enemy. You must visit the cathedral and ask what this boy looks like.
- **9237**: A boy training to be a friar went near Ghelsba and did not return. His name was Tedimout.
- **9238**: The Temple Knights may be mobilized soon. You must visit the cathedral and ask what this boy looks like.
- **9239**: Prince Trion just informed me of your handiwork. You've done beautifully.
- **9240**: Due to your exemplary contribution, <Player>, San d'Oria hereby recognizes you as an adventurer of rank two.
- **9241**: But do not let it go to your head. This certificate is valid only in San d'Oria.
- **9242**: Work hard and better things will come, my friend. Someday your name will be known to our allies as well.
- **9243**: Oh, and one more thing. The vicasque of the cathedral said he wants to thank you on behalf of the boy.
- **9245**: At any rate, you completed the mission well enough. Time for a reward!
- **9246**: I award you with rank points commensurate with your achievement.
- **9249**: What? You were told to hand the $3 to Prince Pieuje personally?
- **9250**: Well, you should find His Highness in the cathedral.
- **9251**: You've come just at the right time! Prince Trion wants a word with you. It seems he heard of you when you received your $3.
- **9252**: Head to the chambers of Prince Trion inside Chateau d'Oraguille as soon as you're presentable!
- **9253**: Prince Trion has called for you. Head to his chamber inside Chateau d'Oraguille as soon as you're presentable!
- **9254**: I know not what Prince Trion wanted you to do, but see it through to the end! Understand?
- **9255**: Hello there. Now's not the time for missions; Chateau d'Oraguille has been visited by bandits!
- **9256**: You must make haste to Chateau d'Oraguille! Find Lady Curilla, general of the Temple Knights!
- **9257**: Bandits infiltrating Chateau d'Oraguille is unprecedented in history! Make haste and see Lady Curilla, general of the Temple Knights!

## Events

### Event 65535

#### Metadata

| Field        | Value   |
|--------------|---------|
| Entrypoint   | 0x0000  |
| Data Size    | 1 bytes |
| Instructions | 1       |

```
      00 01 02 03 04 05 06 07  08 09 0A 0B 0C 0D 0E 0F
      -- -- -- -- -- -- -- --  -- -- -- -- -- -- -- --
0000: 00                                                .               
```

#### Opcodes

```
  0: 0x0000 [0x00] END_REQSTACK()
```

### Event 0

#### Metadata

| Field        | Value   |
|--------------|---------|
| Entrypoint   | 0x0001  |
| Data Size    | 1 bytes |
| Instructions | 1       |

```
      00 01 02 03 04 05 06 07  08 09 0A 0B 0C 0D 0E 0F
      -- -- -- -- -- -- -- --  -- -- -- -- -- -- -- --
0000:    00                                              .              
```

#### Opcodes

```
  0: 0x0001 [0x00] END_REQSTACK()
```

### Event 2011

#### Metadata

| Field        | Value    |
|--------------|----------|
| Entrypoint   | 0x0002   |
| Data Size    | 36 bytes |
| Instructions | 10       |

```
      00 01 02 03 04 05 06 07  08 09 0A 0B 0C 0D 0E 0F
      -- -- -- -- -- -- -- --  -- -- -- -- -- -- -- --
0000:       1E F0 FF FF 7F 6F  70 66 00 80 F8 FF FF 7F    .....opf......
0010: F8 FF FF 7F 74 6C 6B 30  1D 01 80 23 5E 69 64 6C  ....tlk0...#^idl
0020: 30 1C 02 80 21 00                                 0...!.          
```

#### Opcodes

```
  0: 0x0002 [0x1E] EventEntity looks at LocalPlayer and starts talking
  1: 0x0007 [0x6F] WAIT_FRAME_DELAY: Yield until WaitTime reaches zero
  2: 0x0008 [0x70] WAIT_ENTITY_RENDER_FLAG: Wait while EventEntity->Render.Flags3 bit 2 is set (cancel turn if not)
  3: 0x0009 [0x66] LOAD_EXT_SCHEDULER_MAIN: Load scheduler "tlk0" with entities [EventEntity, EventEntity], work=20*
  4: 0x0018 [0x1D] PRINT_EVENT_MESSAGE(message_id=7230*)
    → "Only citizens of San d'Oria may apply for missions here. Go see your country's consulate in Northern San d'Oria."
  5: 0x001B [0x23] WAIT_FOR_DIALOG_INTERACTION
  6: 0x001C [0x5E] EventEntity goes idle (kills current action) (animation: "idl0")
  7: 0x0021 [0x1C] WAIT(30* ticks)
  8: 0x0024 [0x21] END_EVENT
  9: 0x0025 [0x00] END_REQSTACK()
```

### Event 2000

#### Metadata

| Field        | Value     |
|--------------|-----------|
| Entrypoint   | 0x0026    |
| Data Size    | 591 bytes |
| Instructions | 88        |

```
      00 01 02 03 04 05 06 07  08 09 0A 0B 0C 0D 0E 0F
      -- -- -- -- -- -- -- --  -- -- -- -- -- -- -- --
0020:                   42 46  01 45 03 80 F8 FF FF 7F        BF.E......
0030: F8 FF FF 7F 66 64 6F 31  04 80 1C 05 80 38 06 80  ....fdo1.....8..
0040: 29 64 F0 FF FF 7F 19 29  08 F0 FF FF 7F 39 45 07  )d.....).....9E.
0050: 80 F8 FF FF 7F F8 FF FF  7F 73 30 39 32 04 80 45  .........s092..E
0060: 03 80 F8 FF FF 7F F8 FF  FF 7F 66 64 69 31 04 80  ..........fdi1..
0070: 55 07 80 F8 FF FF 7F F8  FF FF 7F 73 30 39 32 66  U..........s092f
0080: 00 80 F8 FF FF 7F F8 FF  FF 7F 74 6C 6B 30 1D 08  ..........tlk0..
0090: 80 23 1C 02 80 5E 69 64  6C 30 24 09 80 04 80 04  .#...^idl0$.....
00A0: 80 25 02 00 10 04 80 00  3C 02 45 0A 80 F0 FF FF  .%......<.E.....
00B0: 7F F0 FF FF 7F 73 30 32  30 04 80 66 00 80 F8 FF  .....s020..f....
00C0: FF 7F F8 FF FF 7F 74 68  6B 31 1D 0B 80 23 1C 05  ......thk1...#..
00D0: 80 66 00 80 F8 FF FF 7F  F8 FF FF 7F 74 68 6B 32  .f..........thk2
00E0: 53 F8 FF FF 7F F8 FF FF  7F 74 68 6B 32 1C 02 80  S........thk2...
00F0: 66 00 80 F8 FF FF 7F F8  FF FF 7F 74 6C 6B 30 45  f..........tlk0E
0100: 0A 80 F0 FF FF 7F F0 FF  FF 7F 73 30 32 32 04 80  ..........s022..
0110: 1D 0C 80 23 1C 02 80 1D  0D 80 23 5E 69 64 6C 30  ...#......#^idl0
0120: 24 0E 80 04 80 04 80 25  02 00 10 04 80 00 29 02  $......%......).
0130: 66 00 80 F8 FF FF 7F F8  FF FF 7F 74 6C 6B 30 45  f..........tlk0E
0140: 07 80 F8 FF FF 7F F8 FF  FF 7F 73 31 30 37 04 80  ..........s107..
0150: 1D 0F 80 23 1C 02 80 03  02 10 10 80 1D 11 80 23  ...#...........#
0160: 1C 02 80 52 07 80 F8 FF  FF 7F F8 FF FF 7F 73 31  ...R..........s1
0170: 30 37 02 09 10 12 80 00  8E 01 45 07 80 F8 FF FF  07........E.....
0180: 7F F8 FF FF 7F 73 31 30  38 04 80 01 BB 01 02 09  .....s108.......
0190: 10 13 80 00 AA 01 45 07  80 F8 FF FF 7F F8 FF FF  ......E.........
01A0: 7F 73 31 30 38 04 80 01  BB 01 45 0A 80 F0 FF FF  .s108.....E.....
01B0: 7F F0 FF FF 7F 73 30 32  33 04 80 1D 14 80 23 5E  .....s023.....#^
01C0: 69 64 6C 30 24 15 80 04  80 04 80 25 02 00 10 04  idl0$......%....
01D0: 80 00 08 02 66 00 80 F8  FF FF 7F F8 FF FF 7F 74  ....f..........t
01E0: 6C 6B 30 45 0A 80 F0 FF  FF 7F F0 FF FF 7F 73 30  lk0E..........s0
01F0: 32 32 04 80 1D 16 80 23  5E 69 64 6C 30 1C 02 80  22.....#^idl0...
0200: 03 01 10 04 80 01 26 02  02 00 10 17 80 00 16 02  ......&.........
0210: 1A 30 01 01 26 02 02 00  10 18 80 00 26 02 03 01  .0..&.......&...
0220: 10 19 80 01 26 02 01 39  02 02 00 10 17 80 00 39  ....&..9.......9
0230: 02 03 01 10 19 80 01 39  02 01 4C 02 02 00 10 17  .......9..L.....
0240: 80 00 4C 02 03 01 10 19  80 01 4C 02 45 03 80 F8  ..L.......L.E...
0250: FF FF 7F F8 FF FF 7F 66  64 6F 31 04 80 1C 05 80  .......fdo1.....
0260: 46 00 45 03 80 F8 FF FF  7F F8 FF FF 7F 66 64 69  F.E..........fdi
0270: 31 04 80 21 00                                    1..!.           
```

#### Opcodes

```
  0: 0x0026 [0x42] SET_CLI_EVENT_CANCEL_DATA()
  1: 0x0027 [0x46] CAMERA_CONTROL: Disable user control
  2: 0x0029 [0x45] LOAD_SCHEDULED_TASK: Load scheduler "fdo1" with entities [EventEntity, EventEntity], work=[200*, 0*]
  3: 0x003A [0x1C] WAIT(60* ticks)
  4: 0x003D [0x38] SET_CLIENT_EVENT_MODE(mode=3*)
  5: 0x0040 [0x29] REQ_SET_WAIT(priority=0x64, entity_id=LocalPlayer, tag_num=0x19)
  6: 0x0047 [0x29] REQ_SET_WAIT(priority=0x08, entity_id=LocalPlayer, tag_num=0x39)
  7: 0x004E [0x45] LOAD_SCHEDULED_TASK: Load scheduler "s092" with entities [EventEntity, EventEntity], work=[90*, 0*]
  8: 0x005F [0x45] LOAD_SCHEDULED_TASK: Load scheduler "fdi1" with entities [EventEntity, EventEntity], work=[200*, 0*]
  9: 0x0070 [0x55] WAIT_LOAD_SCHEDULER: Wait for scheduler "s092" with entities [EventEntity, EventEntity], work=90*
 10: 0x007F [0x66] LOAD_EXT_SCHEDULER_MAIN: Load scheduler "tlk0" with entities [EventEntity, EventEntity], work=20*
 11: 0x008E [0x1D] PRINT_EVENT_MESSAGE(message_id=7229*)
    → "A recruit? What do you want with this gatehouse?"
 12: 0x0091 [0x23] WAIT_FOR_DIALOG_INTERACTION
 13: 0x0092 [0x1C] WAIT(30* ticks)
 14: 0x0095 [0x5E] EventEntity goes idle (kills current action) (animation: "idl0")
 15: 0x009A [0x24] CREATE_DIALOG(message_id=7236*, default_option=0*, option_flags=0*)
    → "Your business? [A mission, please./Nothing.]"
 16: 0x00A1 [0x25] WAIT_DIALOG_SELECT()
 17: 0x00A2 [0x02] IF !(Work_Zone[0] == 0*) GOTO 0x023C
 18: 0x00AA [0x45] LOAD_SCHEDULED_TASK: Load scheduler "s020" with entities [LocalPlayer, LocalPlayer], work=[130*, 0*]
 19: 0x00BB [0x66] LOAD_EXT_SCHEDULER_MAIN: Load scheduler "thk1" with entities [EventEntity, EventEntity], work=20*
 20: 0x00CA [0x1D] PRINT_EVENT_MESSAGE(message_id=7237*)
    → "Hmm...not much work for those wet behind the ears, but..."
 21: 0x00CD [0x23] WAIT_FOR_DIALOG_INTERACTION
 22: 0x00CE [0x1C] WAIT(60* ticks)
 23: 0x00D1 [0x66] LOAD_EXT_SCHEDULER_MAIN: Load scheduler "thk2" with entities [EventEntity, EventEntity], work=20*
 24: 0x00E0 [0x53] WAIT_SCHEDULER_TASK: Wait for scheduler "thk2" with entities [EventEntity, EventEntity]
 25: 0x00ED [0x1C] WAIT(30* ticks)
 26: 0x00F0 [0x66] LOAD_EXT_SCHEDULER_MAIN: Load scheduler "tlk0" with entities [EventEntity, EventEntity], work=20*
 27: 0x00FF [0x45] LOAD_SCHEDULED_TASK: Load scheduler "s022" with entities [LocalPlayer, LocalPlayer], work=[130*, 0*]
 28: 0x0110 [0x1D] PRINT_EVENT_MESSAGE(message_id=7238*)
    → "How about slaying Orcish scouts? Only the yellowest of yearlings would run from that, and we've no work for cowards here."
 29: 0x0113 [0x23] WAIT_FOR_DIALOG_INTERACTION
 30: 0x0114 [0x1C] WAIT(30* ticks)
 31: 0x0117 [0x1D] PRINT_EVENT_MESSAGE(message_id=7239*)
    → "If you're to take the mission, I'll be happy to explain."
 32: 0x011A [0x23] WAIT_FOR_DIALOG_INTERACTION
 33: 0x011B [0x5E] EventEntity goes idle (kills current action) (animation: "idl0")
 34: 0x0120 [0x24] CREATE_DIALOG(message_id=7240*, default_option=0*, option_flags=0*)
    → "Interested? [Tell me more./Never mind.]"
 35: 0x0127 [0x25] WAIT_DIALOG_SELECT()
 36: 0x0128 [0x02] IF !(Work_Zone[0] == 0*) GOTO 0x0229

SUBROUTINE_0130:
 37: 0x0130 [0x66] LOAD_EXT_SCHEDULER_MAIN: Load scheduler "tlk0" with entities [EventEntity, EventEntity], work=20*
 38: 0x013F [0x45] LOAD_SCHEDULED_TASK: Load scheduler "s107" with entities [EventEntity, EventEntity], work=[90*, 0*]
 39: 0x0150 [0x1D] PRINT_EVENT_MESSAGE(message_id=7241*)
    → "Here's your mission. Orcish scouts roam outside; kill one and bring me his axe as proof."
 40: 0x0153 [0x23] WAIT_FOR_DIALOG_INTERACTION
 41: 0x0154 [0x1C] WAIT(30* ticks)
 42: 0x0157 [0x03] Work_Zone[2] = 16656*
 43: 0x015C [0x1D] PRINT_EVENT_MESSAGE(message_id=7242*)
    → "You'll have to bring me $0. No other kind will do. Understand?"
 44: 0x015F [0x23] WAIT_FOR_DIALOG_INTERACTION
 45: 0x0160 [0x1C] WAIT(30* ticks)
 46: 0x0163 [0x52] END_LOAD_SCHEDULER: End scheduler "s107" with entities [EventEntity, EventEntity], work=90*
 47: 0x0172 [0x02] IF !(Work_Zone[9] == 5*) GOTO 0x018E
 48: 0x017A [0x45] LOAD_SCHEDULED_TASK: Load scheduler "s108" with entities [EventEntity, EventEntity], work=[90*, 0*]
 49: 0x018B [0x01] GOTO 0x01BB
 50: 0x018E [0x02] IF !(Work_Zone[9] == 6*) GOTO 0x01AA
 51: 0x0196 [0x45] LOAD_SCHEDULED_TASK: Load scheduler "s108" with entities [EventEntity, EventEntity], work=[90*, 0*]
 52: 0x01A7 [0x01] GOTO 0x01BB
 53: 0x01AA [0x45] LOAD_SCHEDULED_TASK: Load scheduler "s023" with entities [LocalPlayer, LocalPlayer], work=[130*, 0*]

SUBROUTINE_01BB:
 54: 0x01BB [0x1D] PRINT_EVENT_MESSAGE(message_id=7243*)
    → "That is all. You'll take the mission then?"
 55: 0x01BE [0x23] WAIT_FOR_DIALOG_INTERACTION
 56: 0x01BF [0x5E] EventEntity goes idle (kills current action) (animation: "idl0")
 57: 0x01C4 [0x24] CREATE_DIALOG(message_id=7244*, default_option=0*, option_flags=0*)
    → "Do you accept the mission? [I accept./Could you explain again?/No, thank you.]"
 58: 0x01CB [0x25] WAIT_DIALOG_SELECT()
 59: 0x01CC [0x02] IF !(Work_Zone[0] == 0*) GOTO 0x0208
 60: 0x01D4 [0x66] LOAD_EXT_SCHEDULER_MAIN: Load scheduler "tlk0" with entities [EventEntity, EventEntity], work=20*
 61: 0x01E3 [0x45] LOAD_SCHEDULED_TASK: Load scheduler "s022" with entities [LocalPlayer, LocalPlayer], work=[130*, 0*]
 62: 0x01F4 [0x1D] PRINT_EVENT_MESSAGE(message_id=7245*)
    → "Bring me one of those axes, and your mission will be a success. No running away now; we've a proud country to defend!"
 63: 0x01F7 [0x23] WAIT_FOR_DIALOG_INTERACTION
 64: 0x01F8 [0x5E] EventEntity goes idle (kills current action) (animation: "idl0")
 65: 0x01FD [0x1C] WAIT(30* ticks)
 66: 0x0200 [0x03] Work_Zone[1] = 0*
 67: 0x0205 [0x01] GOTO 0x0226
 68: 0x0208 [0x02] IF !(Work_Zone[0] == 1*) GOTO 0x0216
 69: 0x0210 [0x1A] CALL_SUBROUTINE(address=0x0130)
 70: 0x0213 [0x01] GOTO 0x0226
 71: 0x0216 [0x02] IF !(Work_Zone[0] == 2*) GOTO 0x0226
 72: 0x021E [0x03] Work_Zone[1] = 1073741824*
 73: 0x0223 [0x01] GOTO 0x0226

SUBROUTINE_0226:
 74: 0x0226 [0x01] GOTO 0x0239
 75: 0x0229 [0x02] IF !(Work_Zone[0] == 1*) GOTO 0x0239
 76: 0x0231 [0x03] Work_Zone[1] = 1073741824*
 77: 0x0236 [0x01] GOTO 0x0239

SUBROUTINE_0239:
 78: 0x0239 [0x01] GOTO 0x024C
 79: 0x023C [0x02] IF !(Work_Zone[0] == 1*) GOTO 0x024C
 80: 0x0244 [0x03] Work_Zone[1] = 1073741824*
 81: 0x0249 [0x01] GOTO 0x024C

SUBROUTINE_024C:
 82: 0x024C [0x45] LOAD_SCHEDULED_TASK: Load scheduler "fdo1" with entities [EventEntity, EventEntity], work=[200*, 0*]
 83: 0x025D [0x1C] WAIT(60* ticks)
 84: 0x0260 [0x46] CAMERA_CONTROL: Restore default settings
 85: 0x0262 [0x45] LOAD_SCHEDULED_TASK: Load scheduler "fdi1" with entities [EventEntity, EventEntity], work=[200*, 0*]
 86: 0x0273 [0x21] END_EVENT
 87: 0x0274 [0x00] END_REQSTACK()
```

### Event 2002

#### Metadata

| Field        | Value     |
|--------------|-----------|
| Entrypoint   | 0x0275    |
| Data Size    | 220 bytes |
| Instructions | 32        |

```
      00 01 02 03 04 05 06 07  08 09 0A 0B 0C 0D 0E 0F
      -- -- -- -- -- -- -- --  -- -- -- -- -- -- -- --
0270:                42 46 01  45 03 80 F8 FF FF 7F F8       BF.E.......
0280: FF FF 7F 66 64 6F 31 04  80 1C 05 80 38 06 80 29  ...fdo1.....8..)
0290: 64 F0 FF FF 7F 19 45 0A  80 F0 FF FF 7F F0 FF FF  d.....E.........
02A0: 7F 73 30 32 32 04 80 45  03 80 F8 FF FF 7F F8 FF  .s022..E........
02B0: FF 7F 66 64 69 31 04 80  02 06 10 17 80 00 E0 02  ..fdi1..........
02C0: 66 00 80 F8 FF FF 7F F8  FF FF 7F 74 6C 6B 30 03  f..........tlk0.
02D0: 02 10 10 80 1D 1A 80 23  5E 69 64 6C 30 01 15 03  .......#^idl0...
02E0: 66 00 80 F8 FF FF 7F F8  FF FF 7F 74 6C 6B 30 1D  f..........tlk0.
02F0: 1B 80 23 1C 02 80 45 0A  80 F0 FF FF 7F F0 FF FF  ..#...E.........
0300: 7F 73 30 32 30 04 80 03  02 10 10 80 5E 69 64 6C  .s020.......^idl
0310: 30 1D 1C 80 23 45 03 80  F8 FF FF 7F F8 FF FF 7F  0...#E..........
0320: 66 64 6F 31 04 80 1C 05  80 46 00 45 03 80 F8 FF  fdo1.....F.E....
0330: FF 7F F8 FF FF 7F 66 64  69 31 04 80 45 1D 80 F0  ......fdi1..E...
0340: FF FF 7F F0 FF FF 7F 71  73 74 63 04 80 20 00 21  .......qstc.. .!
0350: 00                                                .               
```

#### Opcodes

```
  0: 0x0275 [0x42] SET_CLI_EVENT_CANCEL_DATA()
  1: 0x0276 [0x46] CAMERA_CONTROL: Disable user control
  2: 0x0278 [0x45] LOAD_SCHEDULED_TASK: Load scheduler "fdo1" with entities [EventEntity, EventEntity], work=[200*, 0*]
  3: 0x0289 [0x1C] WAIT(60* ticks)
  4: 0x028C [0x38] SET_CLIENT_EVENT_MODE(mode=3*)
  5: 0x028F [0x29] REQ_SET_WAIT(priority=0x64, entity_id=LocalPlayer, tag_num=0x19)
  6: 0x0296 [0x45] LOAD_SCHEDULED_TASK: Load scheduler "s022" with entities [LocalPlayer, LocalPlayer], work=[130*, 0*]
  7: 0x02A7 [0x45] LOAD_SCHEDULED_TASK: Load scheduler "fdi1" with entities [EventEntity, EventEntity], work=[200*, 0*]
  8: 0x02B8 [0x02] IF !(Work_Zone[6] == 1*) GOTO 0x02E0
  9: 0x02C0 [0x66] LOAD_EXT_SCHEDULER_MAIN: Load scheduler "tlk0" with entities [EventEntity, EventEntity], work=20*
 10: 0x02CF [0x03] Work_Zone[2] = 16656*
 11: 0x02D4 [0x1D] PRINT_EVENT_MESSAGE(message_id=9213*)
    → "I knew you'd return safely, and with the $3. Mission completed!"
 12: 0x02D7 [0x23] WAIT_FOR_DIALOG_INTERACTION
 13: 0x02D8 [0x5E] EventEntity goes idle (kills current action) (animation: "idl0")
 14: 0x02DD [0x01] GOTO 0x0315
 15: 0x02E0 [0x66] LOAD_EXT_SCHEDULER_MAIN: Load scheduler "tlk0" with entities [EventEntity, EventEntity], work=20*
 16: 0x02EF [0x1D] PRINT_EVENT_MESSAGE(message_id=7246*)
    → "Oh, you're back. Well, if you're so happy you defeated an Orc or two, you've a long way ahead of you!"
 17: 0x02F2 [0x23] WAIT_FOR_DIALOG_INTERACTION
 18: 0x02F3 [0x1C] WAIT(30* ticks)
 19: 0x02F6 [0x45] LOAD_SCHEDULED_TASK: Load scheduler "s020" with entities [LocalPlayer, LocalPlayer], work=[130*, 0*]
 20: 0x0307 [0x03] Work_Zone[2] = 16656*
 21: 0x030C [0x5E] EventEntity goes idle (kills current action) (animation: "idl0")
 22: 0x0311 [0x1D] PRINT_EVENT_MESSAGE(message_id=7247*)
    → "That's another $0 for the armory, then. Mission complete! Not bad for a new recruit."
 23: 0x0314 [0x23] WAIT_FOR_DIALOG_INTERACTION

SUBROUTINE_0315:
 24: 0x0315 [0x45] LOAD_SCHEDULED_TASK: Load scheduler "fdo1" with entities [EventEntity, EventEntity], work=[200*, 0*]
 25: 0x0326 [0x1C] WAIT(60* ticks)
 26: 0x0329 [0x46] CAMERA_CONTROL: Restore default settings
 27: 0x032B [0x45] LOAD_SCHEDULED_TASK: Load scheduler "fdi1" with entities [EventEntity, EventEntity], work=[200*, 0*]
 28: 0x033C [0x45] LOAD_SCHEDULED_TASK: Load scheduler "qstc" with entities [LocalPlayer, LocalPlayer], work=[201*, 0*]
 29: 0x034D [0x20] SET_CLI_EVENT_UC_FLAG: Unlock player control
 30: 0x034F [0x21] END_EVENT
 31: 0x0350 [0x00] END_REQSTACK()
```

### Event 2008

#### Metadata

| Field        | Value     |
|--------------|-----------|
| Entrypoint   | 0x0351    |
| Data Size    | 191 bytes |
| Instructions | 25        |

```
      00 01 02 03 04 05 06 07  08 09 0A 0B 0C 0D 0E 0F
      -- -- -- -- -- -- -- --  -- -- -- -- -- -- -- --
0350:    42 20 01 46 01 45 03  80 F8 FF FF 7F F8 FF FF   B .F.E.........
0360: 7F 66 64 6F 31 04 80 1C  05 80 38 06 80 29 64 F0  .fdo1.....8..)d.
0370: FF FF 7F 19 29 08 F0 FF  FF 7F 39 45 0A 80 F0 FF  ....).....9E....
0380: FF 7F F0 FF FF 7F 73 30  32 33 04 80 45 03 80 F8  ......s023..E...
0390: FF FF 7F F8 FF FF 7F 66  64 69 31 04 80 66 00 80  .......fdi1..f..
03A0: F8 FF FF 7F F8 FF FF 7F  74 6C 6B 30 1D 1E 80 23  ........tlk0...#
03B0: 5E 69 64 6C 30 1C 02 80  45 0A 80 F0 FF FF 7F F0  ^idl0...E.......
03C0: FF FF 7F 73 30 32 30 04  80 66 00 80 F8 FF FF 7F  ...s020..f......
03D0: F8 FF FF 7F 70 61 73 30  53 F8 FF FF 7F F8 FF FF  ....pas0S.......
03E0: 7F 70 61 73 30 45 03 80  F8 FF FF 7F F8 FF FF 7F  .pas0E..........
03F0: 66 64 6F 31 04 80 1C 05  80 46 00 45 03 80 F8 FF  fdo1.....F.E....
0400: FF 7F F8 FF FF 7F 66 64  69 31 04 80 20 00 21 00  ......fdi1.. .!.
```

#### Opcodes

```
  0: 0x0351 [0x42] SET_CLI_EVENT_CANCEL_DATA()
  1: 0x0352 [0x20] SET_CLI_EVENT_UC_FLAG: Lock player control
  2: 0x0354 [0x46] CAMERA_CONTROL: Disable user control
  3: 0x0356 [0x45] LOAD_SCHEDULED_TASK: Load scheduler "fdo1" with entities [EventEntity, EventEntity], work=[200*, 0*]
  4: 0x0367 [0x1C] WAIT(60* ticks)
  5: 0x036A [0x38] SET_CLIENT_EVENT_MODE(mode=3*)
  6: 0x036D [0x29] REQ_SET_WAIT(priority=0x64, entity_id=LocalPlayer, tag_num=0x19)
  7: 0x0374 [0x29] REQ_SET_WAIT(priority=0x08, entity_id=LocalPlayer, tag_num=0x39)
  8: 0x037B [0x45] LOAD_SCHEDULED_TASK: Load scheduler "s023" with entities [LocalPlayer, LocalPlayer], work=[130*, 0*]
  9: 0x038C [0x45] LOAD_SCHEDULED_TASK: Load scheduler "fdi1" with entities [EventEntity, EventEntity], work=[200*, 0*]
 10: 0x039D [0x66] LOAD_EXT_SCHEDULER_MAIN: Load scheduler "tlk0" with entities [EventEntity, EventEntity], work=20*
 11: 0x03AC [0x1D] PRINT_EVENT_MESSAGE(message_id=7248*)
    → "What? I don't want this!"
 12: 0x03AF [0x23] WAIT_FOR_DIALOG_INTERACTION
 13: 0x03B0 [0x5E] EventEntity goes idle (kills current action) (animation: "idl0")
 14: 0x03B5 [0x1C] WAIT(30* ticks)
 15: 0x03B8 [0x45] LOAD_SCHEDULED_TASK: Load scheduler "s020" with entities [LocalPlayer, LocalPlayer], work=[130*, 0*]
 16: 0x03C9 [0x66] LOAD_EXT_SCHEDULER_MAIN: Load scheduler "pas0" with entities [EventEntity, EventEntity], work=20*
 17: 0x03D8 [0x53] WAIT_SCHEDULER_TASK: Wait for scheduler "pas0" with entities [EventEntity, EventEntity]
 18: 0x03E5 [0x45] LOAD_SCHEDULED_TASK: Load scheduler "fdo1" with entities [EventEntity, EventEntity], work=[200*, 0*]
 19: 0x03F6 [0x1C] WAIT(60* ticks)
 20: 0x03F9 [0x46] CAMERA_CONTROL: Restore default settings
 21: 0x03FB [0x45] LOAD_SCHEDULED_TASK: Load scheduler "fdi1" with entities [EventEntity, EventEntity], work=[200*, 0*]
 22: 0x040C [0x20] SET_CLI_EVENT_UC_FLAG: Unlock player control
 23: 0x040E [0x21] END_EVENT
 24: 0x040F [0x00] END_REQSTACK()
```

### Event 2010

#### Metadata

| Field        | Value     |
|--------------|-----------|
| Entrypoint   | 0x0410    |
| Data Size    | 210 bytes |
| Instructions | 28        |

```
      00 01 02 03 04 05 06 07  08 09 0A 0B 0C 0D 0E 0F
      -- -- -- -- -- -- -- --  -- -- -- -- -- -- -- --
0410: 42 20 01 46 01 45 03 80  F8 FF FF 7F F8 FF FF 7F  B .F.E..........
0420: 66 64 6F 31 04 80 1C 05  80 38 06 80 29 64 F0 FF  fdo1.....8..)d..
0430: FF 7F 19 29 08 F0 FF FF  7F 39 45 0A 80 F0 FF FF  ...).....9E.....
0440: 7F F0 FF FF 7F 73 30 32  30 04 80 45 03 80 F8 FF  .....s020..E....
0450: FF 7F F8 FF FF 7F 66 64  69 31 04 80 66 00 80 F8  ......fdi1..f...
0460: FF FF 7F F8 FF FF 7F 74  68 6B 31 1D 1F 80 23 66  .......thk1...#f
0470: 00 80 F8 FF FF 7F F8 FF  FF 7F 74 68 6B 32 53 F8  ..........thk2S.
0480: FF FF 7F F8 FF FF 7F 74  68 6B 32 1C 02 80 45 0A  .......thk2...E.
0490: 80 F0 FF FF 7F F0 FF FF  7F 73 30 32 33 04 80 66  .........s023..f
04A0: 00 80 F8 FF FF 7F F8 FF  FF 7F 74 6C 6B 30 1D 20  ..........tlk0. 
04B0: 80 23 5E 69 64 6C 30 45  03 80 F8 FF FF 7F F8 FF  .#^idl0E........
04C0: FF 7F 66 64 6F 31 04 80  1C 05 80 46 00 45 03 80  ..fdo1.....F.E..
04D0: F8 FF FF 7F F8 FF FF 7F  66 64 69 31 04 80 20 00  ........fdi1.. .
04E0: 21 00                                             !.              
```

#### Opcodes

```
  0: 0x0410 [0x42] SET_CLI_EVENT_CANCEL_DATA()
  1: 0x0411 [0x20] SET_CLI_EVENT_UC_FLAG: Lock player control
  2: 0x0413 [0x46] CAMERA_CONTROL: Disable user control
  3: 0x0415 [0x45] LOAD_SCHEDULED_TASK: Load scheduler "fdo1" with entities [EventEntity, EventEntity], work=[200*, 0*]
  4: 0x0426 [0x1C] WAIT(60* ticks)
  5: 0x0429 [0x38] SET_CLIENT_EVENT_MODE(mode=3*)
  6: 0x042C [0x29] REQ_SET_WAIT(priority=0x64, entity_id=LocalPlayer, tag_num=0x19)
  7: 0x0433 [0x29] REQ_SET_WAIT(priority=0x08, entity_id=LocalPlayer, tag_num=0x39)
  8: 0x043A [0x45] LOAD_SCHEDULED_TASK: Load scheduler "s020" with entities [LocalPlayer, LocalPlayer], work=[130*, 0*]
  9: 0x044B [0x45] LOAD_SCHEDULED_TASK: Load scheduler "fdi1" with entities [EventEntity, EventEntity], work=[200*, 0*]
 10: 0x045C [0x66] LOAD_EXT_SCHEDULER_MAIN: Load scheduler "thk1" with entities [EventEntity, EventEntity], work=20*
 11: 0x046B [0x1D] PRINT_EVENT_MESSAGE(message_id=7249*)
    → "Are you really a new recruit!?"
 12: 0x046E [0x23] WAIT_FOR_DIALOG_INTERACTION
 13: 0x046F [0x66] LOAD_EXT_SCHEDULER_MAIN: Load scheduler "thk2" with entities [EventEntity, EventEntity], work=20*
 14: 0x047E [0x53] WAIT_SCHEDULER_TASK: Wait for scheduler "thk2" with entities [EventEntity, EventEntity]
 15: 0x048B [0x1C] WAIT(30* ticks)
 16: 0x048E [0x45] LOAD_SCHEDULED_TASK: Load scheduler "s023" with entities [LocalPlayer, LocalPlayer], work=[130*, 0*]
 17: 0x049F [0x66] LOAD_EXT_SCHEDULER_MAIN: Load scheduler "tlk0" with entities [EventEntity, EventEntity], work=20*
 18: 0x04AE [0x1D] PRINT_EVENT_MESSAGE(message_id=7250*)
    → "Listen, before you bring me something, you must first accept the mission! That is how things work around here!"
 19: 0x04B1 [0x23] WAIT_FOR_DIALOG_INTERACTION
 20: 0x04B2 [0x5E] EventEntity goes idle (kills current action) (animation: "idl0")
 21: 0x04B7 [0x45] LOAD_SCHEDULED_TASK: Load scheduler "fdo1" with entities [EventEntity, EventEntity], work=[200*, 0*]
 22: 0x04C8 [0x1C] WAIT(60* ticks)
 23: 0x04CB [0x46] CAMERA_CONTROL: Restore default settings
 24: 0x04CD [0x45] LOAD_SCHEDULED_TASK: Load scheduler "fdi1" with entities [EventEntity, EventEntity], work=[200*, 0*]
 25: 0x04DE [0x20] SET_CLI_EVENT_UC_FLAG: Unlock player control
 26: 0x04E0 [0x21] END_EVENT
 27: 0x04E1 [0x00] END_REQSTACK()
```

### Event 2009

#### Metadata

| Field        | Value     |
|--------------|-----------|
| Entrypoint   | 0x04E2    |
| Data Size    | 657 bytes |
| Instructions | 26        |

```
      00 01 02 03 04 05 06 07  08 09 0A 0B 0C 0D 0E 0F
      -- -- -- -- -- -- -- --  -- -- -- -- -- -- -- --
04E0:       42 46 01 45 03 80  F8 FF FF 7F F8 FF FF 7F    BF.E..........
04F0: 66 64 6F 31 04 80 1C 05  80 38 06 80 29 64 F0 FF  fdo1.....8..)d..
0500: FF 7F 19 29 08 F0 FF FF  7F 39 45 0A 80 F0 FF FF  ...).....9E.....
0510: 7F F0 FF FF 7F 73 30 32  34 04 80 45 03 80 F8 FF  .....s024..E....
0520: FF 7F F8 FF FF 7F 66 64  69 31 04 80 24 21 80 22  ......fdi1..$!."
0530: 80 02 10 25 02 00 10 04  80 00 42 05 01 97 07 01  ...%......B.....
0540: 25 07 02 00 10 17 80 00  5D 05 3E 07 10 12 80 57  %.......].>....W
0550: 05 01 C1 07 01 5A 05 01  3E 09 01 25 07 02 00 10  .....Z..>..%....
0560: 18 80 00 78 05 3E 07 10  23 80 72 05 01 24 0A 01  ...x.>..#.r..$..
0570: 75 05 01 B6 0C 01 25 07  02 00 10 06 80 00 86 05  u.....%.........
0580: 01 99 0F 01 25 07 02 00  10 24 80 00 94 05 01 C3  ....%....$......
0590: 11 01 25 07 02 00 10 12  80 00 A2 05 01 2D 14 01  ..%..........-..
05A0: 25 07 02 00 10 13 80 00  B2 05 03 01 10 13 80 01  %...............
05B0: 25 07 02 00 10 25 80 00  C2 05 03 01 10 25 80 01  %....%.......%..
05C0: 25 07 02 00 10 23 80 00  D2 05 03 01 10 23 80 01  %....#.......#..
05D0: 25 07 02 00 10 26 80 00  E2 05 03 01 10 26 80 01  %....&.......&..
05E0: 25 07 02 00 10 27 80 00  FD 05 3E 07 10 28 80 F7  %....'....>..(..
05F0: 05 01 4C 16 01 FA 05 01  E2 17 01 25 07 02 00 10  ..L........%....
0600: 29 80 00 0B 06 01 99 18  01 25 07 02 00 10 2A 80  )........%....*.
0610: 00 19 06 01 31 1B 01 25  07 02 00 10 2B 80 00 29  ....1..%....+..)
0620: 06 03 01 10 2B 80 01 25  07 02 00 10 2C 80 00 37  ....+..%....,..7
0630: 06 01 0E 1C 01 25 07 02  00 10 28 80 00 45 06 01  .....%....(..E..
0640: B0 1C 01 25 07 02 00 10  2D 80 00 53 06 01 8D 2F  ...%....-..S.../
0650: 01 25 07 02 00 10 2E 80  00 61 06 01 09 30 01 25  .%.......a...0.%
0660: 07 02 00 10 2F 80 00 6F  06 01 C0 30 01 25 07 02  ..../..o...0.%..
0670: 00 10 30 80 00 7D 06 01  22 31 01 25 07 02 00 10  ..0..}.."1.%....
0680: 00 80 00 8B 06 01 B0 31  01 25 07 02 00 10 31 80  .......1.%....1.
0690: 00 99 06 01 0F 32 01 25  07 02 00 10 32 80 00 A7  .....2.%....2...
06A0: 06 01 57 32 01 25 07 02  00 10 33 80 00 B5 06 01  ..W2.%....3.....
06B0: 9F 32 01 25 07 02 00 10  34 80 00 C5 06 03 01 10  .2.%....4.......
06C0: 34 80 01 25 07 02 00 10  35 80 00 D5 06 03 01 10  4..%....5.......
06D0: 35 80 01 25 07 02 00 10  36 80 00 E5 06 03 01 10  5..%....6.......
06E0: 36 80 01 25 07 02 00 10  37 80 00 F5 06 03 01 10  6..%....7.......
06F0: 37 80 01 25 07 02 00 10  38 80 00 05 07 03 01 10  7..%....8.......
0700: 38 80 01 25 07 02 00 10  39 80 00 15 07 03 01 10  8..%....9.......
0710: 39 80 01 25 07 02 00 10  02 80 00 25 07 03 01 10  9..%.......%....
0720: 02 80 01 25 07 03 01 10  00 10 02 01 10 22 80 01  ...%........."..
0730: 4A 07 24 3A 80 04 80 04  80 25 02 00 10 17 80 00  J.$:.....%......
0740: 4A 07 03 01 10 22 80 01  4A 07 45 03 80 F8 FF FF  J...."..J.E.....
0750: 7F F8 FF FF 7F 66 64 6F  31 04 80 1C 05 80 46 00  .....fdo1.....F.
0760: 45 03 80 F8 FF FF 7F F8  FF FF 7F 66 64 69 31 04  E..........fdi1.
0770: 80 21 00                                          .!.             
```

#### Opcodes

```
  0: 0x04E2 [0x42] SET_CLI_EVENT_CANCEL_DATA()
  1: 0x04E3 [0x46] CAMERA_CONTROL: Disable user control
  2: 0x04E5 [0x45] LOAD_SCHEDULED_TASK: Load scheduler "fdo1" with entities [EventEntity, EventEntity], work=[200*, 0*]
  3: 0x04F6 [0x1C] WAIT(60* ticks)
  4: 0x04F9 [0x38] SET_CLIENT_EVENT_MODE(mode=3*)
  5: 0x04FC [0x29] REQ_SET_WAIT(priority=0x64, entity_id=LocalPlayer, tag_num=0x19)
  6: 0x0503 [0x29] REQ_SET_WAIT(priority=0x08, entity_id=LocalPlayer, tag_num=0x39)
  7: 0x050A [0x45] LOAD_SCHEDULED_TASK: Load scheduler "s024" with entities [LocalPlayer, LocalPlayer], work=[130*, 0*]
  8: 0x051B [0x45] LOAD_SCHEDULED_TASK: Load scheduler "fdi1" with entities [EventEntity, EventEntity], work=[200*, 0*]
  9: 0x052C [0x24] CREATE_DIALOG(message_id=7232*, default_option=31*, option_flags=Work_Zone[2])
    → "Which mission will you undertake? [Smash the Orcish Scouts./Bat Hunt./Save the Children./The Rescue Drill./The Davoi Report./Journey Abroad./Journey to Bastok./Journey to Windurst./Journey to Bastok./Journey to Windurst./Infiltrate Davoi./The Crystal Spring./Appointment to Jeuno./Magicite./The Ruins of Fei'Yin./The Shadow Lord./Leaute's Last Wishes./Ranperre's Final Rest./Prestige of the Papsque./The Secret Weapon./Coming of Age./Lightbringer./Breaking Barriers./The Heir to the Light./10-1./10-2./$3_$3~[26./$3_$3~[27./$3_$3~[28./$3_$3~[29./$3_$3~[30./None.]"
 10: 0x0533 [0x25] WAIT_DIALOG_SELECT()
 11: 0x0534 [0x02] IF !(Work_Zone[0] == 0*) GOTO 0x0542
 12: 0x053C [0x01] GOTO 0x0797

SUBROUTINE_0725:
 13: 0x0725 [0x03] Work_Zone[1] = Work_Zone[0]
 14: 0x072A [0x02] IF !(Work_Zone[1] == 31*) GOTO 0x074A
 15: 0x0732 [0x24] CREATE_DIALOG(message_id=7233*, default_option=0*, option_flags=0*)
    → "Accept this mission? [Yes./No.]"
 16: 0x0739 [0x25] WAIT_DIALOG_SELECT()
 17: 0x073A [0x02] IF !(Work_Zone[0] == 1*) GOTO 0x074A
 18: 0x0742 [0x03] Work_Zone[1] = 31*
 19: 0x0747 [0x01] GOTO 0x074A

SUBROUTINE_074A:
 20: 0x074A [0x45] LOAD_SCHEDULED_TASK: Load scheduler "fdo1" with entities [EventEntity, EventEntity], work=[200*, 0*]
 21: 0x075B [0x1C] WAIT(60* ticks)
 22: 0x075E [0x46] CAMERA_CONTROL: Restore default settings
 23: 0x0760 [0x45] LOAD_SCHEDULED_TASK: Load scheduler "fdi1" with entities [EventEntity, EventEntity], work=[200*, 0*]
 24: 0x0771 [0x21] END_EVENT
 25: 0x0772 [0x00] END_REQSTACK()
```

#### Data or dead code:

```
# Dead code (unreachable instructions):
     0x053F [0x01] GOTO 0x0725
     0x0554 [0x01] GOTO 0x055A
     0x055A [0x01] GOTO 0x0725
     0x056F [0x01] GOTO 0x0575
     0x0575 [0x01] GOTO 0x0725
     0x0583 [0x01] GOTO 0x0725
     0x0591 [0x01] GOTO 0x0725
     0x059F [0x01] GOTO 0x0725
     0x05F4 [0x01] GOTO 0x05FA
     0x05FA [0x01] GOTO 0x0725
     0x0608 [0x01] GOTO 0x0725
     0x0616 [0x01] GOTO 0x0725
     0x0634 [0x01] GOTO 0x0725
     0x0642 [0x01] GOTO 0x0725
     0x0650 [0x01] GOTO 0x0725
     0x065E [0x01] GOTO 0x0725
     0x066C [0x01] GOTO 0x0725
     0x067A [0x01] GOTO 0x0725
     0x0688 [0x01] GOTO 0x0725
     0x0696 [0x01] GOTO 0x0725
     0x06A4 [0x01] GOTO 0x0725
     0x06B2 [0x01] GOTO 0x0725
```

### Event 2001

#### Metadata

| Field        | Value     |
|--------------|-----------|
| Entrypoint   | 0x0773    |
| Data Size    | 467 bytes |
| Instructions | 10        |

```
      00 01 02 03 04 05 06 07  08 09 0A 0B 0C 0D 0E 0F
      -- -- -- -- -- -- -- --  -- -- -- -- -- -- -- --
0770:          1E F0 FF FF 7F  6F 70 66 00 80 F8 FF FF     .....opf.....
0780: 7F F8 FF FF 7F 74 6C 6B  30 1D 3B 80 23 5E 69 64  .....tlk0.;.#^id
0790: 6C 30 1C 02 80 21 00 45  03 80 F0 FF FF 7F F0 FF  l0...!.E........
07A0: FF 7F 6F 76 6C 31 04 80  45 0A 80 F0 FF FF 7F F0  ..ovl1..E.......
07B0: FF FF 7F 73 30 32 32 04  80 1D 3C 80 23 1A 30 01  ...s022...<.#.0.
07C0: 00 45 03 80 F0 FF FF 7F  F0 FF FF 7F 6F 76 6C 31  .E..........ovl1
07D0: 04 80 45 0A 80 F0 FF FF  7F F0 FF FF 7F 73 30 32  ..E..........s02
07E0: 32 04 80 27 64 F0 FF FF  7F 19 66 00 80 F8 FF FF  2..'d.....f.....
07F0: 7F F8 FF FF 7F 74 6C 6B  30 1D 3D 80 23 5E 69 64  .....tlk0.=.#^id
0800: 6C 30 24 0E 80 04 80 04  80 25 02 00 10 04 80 00  l0$......%......
0810: 05 09 45 07 80 F8 FF FF  7F F8 FF FF 7F 73 31 30  ..E..........s10
0820: 37 04 80 66 00 80 F8 FF  FF 7F F8 FF FF 7F 74 6C  7..f..........tl
0830: 6B 30 1D 3E 80 23 03 02  10 3F 80 1D 40 80 23 52  k0.>.#...?..@.#R
0840: 07 80 F8 FF FF 7F F8 FF  FF 7F 73 31 30 37 02 09  ..........s107..
0850: 10 12 80 00 6A 08 45 07  80 F8 FF FF 7F F8 FF FF  ....j.E.........
0860: 7F 73 31 30 38 04 80 01  97 08 02 09 10 13 80 00  .s108...........
0870: 86 08 45 07 80 F8 FF FF  7F F8 FF FF 7F 73 31 30  ..E..........s10
0880: 38 04 80 01 97 08 45 0A  80 F0 FF FF 7F F0 FF FF  8.....E.........
0890: 7F 73 30 32 33 04 80 1D  14 80 23 5E 69 64 6C 30  .s023.....#^idl0
08A0: 24 15 80 04 80 04 80 25  02 00 10 04 80 00 E4 08  $......%........
08B0: 45 0A 80 F0 FF FF 7F F0  FF FF 7F 73 30 32 34 04  E..........s024.
08C0: 80 66 00 80 F8 FF FF 7F  F8 FF FF 7F 74 6C 6B 30  .f..........tlk0
08D0: 1D 41 80 23 5E 69 64 6C  30 1C 02 80 03 01 10 17  .A.#^idl0.......
08E0: 80 01 02 09 02 00 10 17  80 00 F2 08 1A 12 08 01  ................
08F0: 02 09 02 00 10 18 80 00  02 09 03 01 10 19 80 01  ................
0900: 02 09 01 15 09 02 00 10  17 80 00 15 09 03 01 10  ................
0910: 19 80 01 15 09 45 03 80  F8 FF FF 7F F8 FF FF 7F  .....E..........
0920: 66 64 6F 31 04 80 1C 05  80 46 00 45 03 80 F8 FF  fdo1.....F.E....
0930: FF 7F F8 FF FF 7F 66 64  69 31 04 80 21 00 29 0F  ......fdi1..!.).
0940: 62 60 0E 01 2F 00                                 b`../.          
```

#### Opcodes

```
  0: 0x0773 [0x1E] EventEntity looks at LocalPlayer and starts talking
  1: 0x0778 [0x6F] WAIT_FRAME_DELAY: Yield until WaitTime reaches zero
  2: 0x0779 [0x70] WAIT_ENTITY_RENDER_FLAG: Wait while EventEntity->Render.Flags3 bit 2 is set (cancel turn if not)
  3: 0x077A [0x66] LOAD_EXT_SCHEDULER_MAIN: Load scheduler "tlk0" with entities [EventEntity, EventEntity], work=20*
  4: 0x0789 [0x1D] PRINT_EVENT_MESSAGE(message_id=7231*)
    → "Finish your current mission first, then come back for another."
  5: 0x078C [0x23] WAIT_FOR_DIALOG_INTERACTION
  6: 0x078D [0x5E] EventEntity goes idle (kills current action) (animation: "idl0")
  7: 0x0792 [0x1C] WAIT(30* ticks)
  8: 0x0795 [0x21] END_EVENT
  9: 0x0796 [0x00] END_REQSTACK()
```

#### Data or dead code:

```
# Dead code (unreachable instructions):
     0x0797 [0x45] LOAD_SCHEDULED_TASK: Load scheduler "ovl1" with entities [LocalPlayer, LocalPlayer], work=[200*, 0*]
     0x07A8 [0x45] LOAD_SCHEDULED_TASK: Load scheduler "s022" with entities [LocalPlayer, LocalPlayer], work=[130*, 0*]
     0x07B9 [0x1D] PRINT_EVENT_MESSAGE(message_id=9212*)
    → "What, you want the mission from rank one again?"
     0x07BC [0x23] WAIT_FOR_DIALOG_INTERACTION
     0x07BD [0x1A] CALL_SUBROUTINE(address=0x0130)
     0x07C0 [0x00] END_REQSTACK()
     0x07C1 [0x45] LOAD_SCHEDULED_TASK: Load scheduler "ovl1" with entities [LocalPlayer, LocalPlayer], work=[200*, 0*]
     0x07D2 [0x45] LOAD_SCHEDULED_TASK: Load scheduler "s022" with entities [LocalPlayer, LocalPlayer], work=[130*, 0*]
     0x07E3 [0x27] REQ_SET(priority=0x64, entity_id=LocalPlayer, tag_num=0x19)
     0x07EA [0x66] LOAD_EXT_SCHEDULER_MAIN: Load scheduler "tlk0" with entities [EventEntity, EventEntity], work=20*
     0x07F9 [0x1D] PRINT_EVENT_MESSAGE(message_id=7252*)
    → "Bat patrol! How about it? Shouldn't be a problem for an adventurer such as yourself, no?"
     0x07FC [0x23] WAIT_FOR_DIALOG_INTERACTION
     0x07FD [0x5E] EventEntity goes idle (kills current action) (animation: "idl0")
     0x0802 [0x24] CREATE_DIALOG(message_id=7240*, default_option=0*, option_flags=0*)
    → "Interested? [Tell me more./Never mind.]"
     0x0809 [0x25] WAIT_DIALOG_SELECT()
     0x080A [0x02] IF !(Work_Zone[0] == 0*) GOTO 0x0905
     0x0812 [0x45] LOAD_SCHEDULED_TASK: Load scheduler "s107" with entities [EventEntity, EventEntity], work=[90*, 0*]
     0x0823 [0x66] LOAD_EXT_SCHEDULER_MAIN: Load scheduler "tlk0" with entities [EventEntity, EventEntity], work=20*
     0x0832 [0x1D] PRINT_EVENT_MESSAGE(message_id=7253*)
    → "Here's your mission, then. Clear out bats lurking in King Ranperre's Tomb and bring me a fang as proof."
     0x0835 [0x23] WAIT_FOR_DIALOG_INTERACTION
     0x0836 [0x03] Work_Zone[2] = 891*
     0x083B [0x1D] PRINT_EVENT_MESSAGE(message_id=7254*)
    → "Bring me $0 and your mission will be a success."
     0x083E [0x23] WAIT_FOR_DIALOG_INTERACTION
     0x083F [0x52] END_LOAD_SCHEDULER: End scheduler "s107" with entities [EventEntity, EventEntity], work=90*
     0x084E [0x02] IF !(Work_Zone[9] == 5*) GOTO 0x086A
     0x0856 [0x45] LOAD_SCHEDULED_TASK: Load scheduler "s108" with entities [EventEntity, EventEntity], work=[90*, 0*]
     0x0867 [0x01] GOTO 0x0897
     0x086A [0x02] IF !(Work_Zone[9] == 6*) GOTO 0x0886
     0x0872 [0x45] LOAD_SCHEDULED_TASK: Load scheduler "s108" with entities [EventEntity, EventEntity], work=[90*, 0*]
     0x0883 [0x01] GOTO 0x0897
     0x0886 [0x45] LOAD_SCHEDULED_TASK: Load scheduler "s023" with entities [LocalPlayer, LocalPlayer], work=[130*, 0*]
     0x0897 [0x1D] PRINT_EVENT_MESSAGE(message_id=7243*)
    → "That is all. You'll take the mission then?"
     0x089A [0x23] WAIT_FOR_DIALOG_INTERACTION
     0x089B [0x5E] EventEntity goes idle (kills current action) (animation: "idl0")
     0x08A0 [0x24] CREATE_DIALOG(message_id=7244*, default_option=0*, option_flags=0*)
    → "Do you accept the mission? [I accept./Could you explain again?/No, thank you.]"
     0x08A7 [0x25] WAIT_DIALOG_SELECT()
     0x08A8 [0x02] IF !(Work_Zone[0] == 0*) GOTO 0x08E4
     0x08B0 [0x45] LOAD_SCHEDULED_TASK: Load scheduler "s024" with entities [LocalPlayer, LocalPlayer], work=[130*, 0*]
     0x08C1 [0x66] LOAD_EXT_SCHEDULER_MAIN: Load scheduler "tlk0" with entities [EventEntity, EventEntity], work=20*
     0x08D0 [0x1D] PRINT_EVENT_MESSAGE(message_id=7255*)
    → "Deep in the tomb you'll find Goblins. Take care; I don't want to lose you yet."
     0x08D3 [0x23] WAIT_FOR_DIALOG_INTERACTION
     0x08D4 [0x5E] EventEntity goes idle (kills current action) (animation: "idl0")
     0x08D9 [0x1C] WAIT(30* ticks)
     0x08DC [0x03] Work_Zone[1] = 1*
     0x08E1 [0x01] GOTO 0x0902
     0x08E4 [0x02] IF !(Work_Zone[0] == 1*) GOTO 0x08F2
     0x08EC [0x1A] CALL_SUBROUTINE(address=0x0812)
     0x08EF [0x01] GOTO 0x0902
     0x08F2 [0x02] IF !(Work_Zone[0] == 2*) GOTO 0x0902
     0x08FA [0x03] Work_Zone[1] = 1073741824*
     0x08FF [0x01] GOTO 0x0902
     0x0902 [0x01] GOTO 0x0915
     0x0905 [0x02] IF !(Work_Zone[0] == 1*) GOTO 0x0915
     0x090D [0x03] Work_Zone[1] = 1073741824*
     0x0912 [0x01] GOTO 0x0915
     0x0915 [0x45] LOAD_SCHEDULED_TASK: Load scheduler "fdo1" with entities [EventEntity, EventEntity], work=[200*, 0*]
     0x0926 [0x1C] WAIT(60* ticks)
     0x0929 [0x46] CAMERA_CONTROL: Restore default settings
     0x092B [0x45] LOAD_SCHEDULED_TASK: Load scheduler "fdi1" with entities [EventEntity, EventEntity], work=[200*, 0*]
     0x093C [0x21] END_EVENT
     0x093D [0x00] END_REQSTACK()
     0x093E [0x29] REQ_SET_WAIT(priority=0x0F, entity_id=Ambrotien (ID: 17719394/0x010E6062), tag_num=0x2F)
     0x0945 [0x00] END_REQSTACK()
```

### Event 2003

#### Metadata

| Field        | Value     |
|--------------|-----------|
| Entrypoint   | 0x0946    |
| Data Size    | 888 bytes |
| Instructions | 32        |

```
      00 01 02 03 04 05 06 07  08 09 0A 0B 0C 0D 0E 0F
      -- -- -- -- -- -- -- --  -- -- -- -- -- -- -- --
0940:                   42 46  01 45 03 80 F8 FF FF 7F        BF.E......
0950: F8 FF FF 7F 66 64 6F 31  04 80 1C 05 80 38 06 80  ....fdo1.....8..
0960: 29 64 F0 FF FF 7F 19 29  08 F0 FF FF 7F 39 45 0A  )d.....).....9E.
0970: 80 F0 FF FF 7F F0 FF FF  7F 73 30 32 34 04 80 45  .........s024..E
0980: 03 80 F8 FF FF 7F F8 FF  FF 7F 66 64 69 31 04 80  ..........fdi1..
0990: 02 06 10 17 80 00 B3 09  03 05 10 3F 80 66 00 80  ...........?.f..
09A0: F8 FF FF 7F F8 FF FF 7F  74 6C 6B 30 1D 1A 80 23  ........tlk0...#
09B0: 01 E0 09 66 00 80 F8 FF  FF 7F F8 FF FF 7F 74 6C  ...f..........tl
09C0: 6B 30 1D 42 80 23 45 0A  80 F0 FF FF 7F F0 FF FF  k0.B.#E.........
09D0: 7F 73 30 32 30 04 80 03  05 10 3F 80 1D 43 80 23  .s020.....?..C.#
09E0: 45 03 80 F8 FF FF 7F F8  FF FF 7F 66 64 6F 31 04  E..........fdo1.
09F0: 80 1C 05 80 5E 69 64 6C  30 1C 02 80 46 00 45 03  ....^idl0...F.E.
0A00: 80 F8 FF FF 7F F8 FF FF  7F 66 64 69 31 04 80 45  .........fdi1..E
0A10: 1D 80 F0 FF FF 7F F0 FF  FF 7F 71 73 74 63 04 80  ..........qstc..
0A20: 20 00 21 00 45 03 80 F0  FF FF 7F F0 FF FF 7F 6F   .!.E..........o
0A30: 76 6C 31 04 80 45 07 80  F8 FF FF 7F F8 FF FF 7F  vl1..E..........
0A40: 73 30 39 32 04 80 66 00  80 F8 FF FF 7F F8 FF FF  s092..f.........
0A50: 7F 74 6C 6B 30 1D 44 80  23 5E 69 64 6C 30 1D 45  .tlk0.D.#^idl0.E
0A60: 80 23 52 07 80 F8 FF FF  7F F8 FF FF 7F 73 30 39  .#R..........s09
0A70: 32 45 07 80 F8 FF FF 7F  F8 FF FF 7F 73 31 30 39  2E..........s109
0A80: 04 80 66 00 80 F8 FF FF  7F F8 FF FF 7F 74 68 6B  ..f..........thk
0A90: 31 1D 46 80 23 1D 47 80  23 1D 48 80 23 52 07 80  1.F.#.G.#.H.#R..
0AA0: F8 FF FF 7F F8 FF FF 7F  73 31 30 39 45 07 80 F8  ........s109E...
0AB0: FF FF 7F F8 FF FF 7F 73  30 39 32 04 80 1D 49 80  .......s092...I.
0AC0: 23 66 00 80 F8 FF FF 7F  F8 FF FF 7F 74 68 6B 32  #f..........thk2
0AD0: 53 F8 FF FF 7F F8 FF FF  7F 74 68 6B 32 1C 02 80  S........thk2...
0AE0: 52 07 80 F8 FF FF 7F F8  FF FF 7F 73 30 39 32 45  R..........s092E
0AF0: 03 80 F0 FF FF 7F F0 FF  FF 7F 6F 76 6C 31 04 80  ..........ovl1..
0B00: 45 0A 80 F0 FF FF 7F F0  FF FF 7F 73 30 32 30 04  E..........s020.
0B10: 80 66 00 80 F8 FF FF 7F  F8 FF FF 7F 70 6F 69 31  .f..........poi1
0B20: 1D 4A 80 23 66 00 80 F8  FF FF 7F F8 FF FF 7F 70  .J.#f..........p
0B30: 6F 69 32 53 F8 FF FF 7F  F8 FF FF 7F 70 6F 69 32  oi2S........poi2
0B40: 1C 02 80 66 00 80 F8 FF  FF 7F F8 FF FF 7F 74 6C  ...f..........tl
0B50: 6B 30 1D 4B 80 23 5E 69  64 6C 30 24 0E 80 04 80  k0.K.#^idl0$....
0B60: 04 80 25 02 00 10 04 80  00 6E 0C 45 07 80 F8 FF  ..%......n.E....
0B70: FF 7F F8 FF FF 7F 73 31  30 37 04 80 66 00 80 F8  ......s107..f...
0B80: FF FF 7F F8 FF FF 7F 74  6C 6B 30 1D 4C 80 23 1D  .......tlk0.L.#.
0B90: 4D 80 23 52 07 80 F8 FF  FF 7F F8 FF FF 7F 73 31  M.#R..........s1
0BA0: 30 37 45 03 80 F0 FF FF  7F F0 FF FF 7F 6F 76 6C  07E..........ovl
0BB0: 31 04 80 02 09 10 12 80  00 CF 0B 45 07 80 F8 FF  1..........E....
0BC0: FF 7F F8 FF FF 7F 73 31  30 38 04 80 01 FC 0B 02  ......s108......
0BD0: 09 10 13 80 00 EB 0B 45  07 80 F8 FF FF 7F F8 FF  .......E........
0BE0: FF 7F 73 31 30 38 04 80  01 FC 0B 45 0A 80 F0 FF  ..s108.....E....
0BF0: FF 7F F0 FF FF 7F 73 30  32 33 04 80 1D 4E 80 23  ......s023...N.#
0C00: 1D 14 80 23 5E 69 64 6C  30 24 15 80 04 80 04 80  ...#^idl0$......
0C10: 25 02 00 10 04 80 00 4D  0C 45 07 80 F8 FF FF 7F  %......M.E......
0C20: F8 FF FF 7F 73 31 31 30  04 80 66 00 80 F8 FF FF  ....s110..f.....
0C30: 7F F8 FF FF 7F 74 6C 6B  30 1D 4F 80 23 5E 69 64  .....tlk0.O.#^id
0C40: 6C 30 1C 02 80 03 01 10  18 80 01 6B 0C 02 00 10  l0.........k....
0C50: 17 80 00 5B 0C 1A 6B 0B  01 6B 0C 02 00 10 18 80  ...[..k..k......
0C60: 00 6B 0C 03 01 10 19 80  01 6B 0C 01 7E 0C 02 00  .k.......k..~...
0C70: 10 17 80 00 7E 0C 03 01  10 19 80 01 7E 0C 45 03  ....~.......~.E.
0C80: 80 F8 FF FF 7F F8 FF FF  7F 66 64 6F 31 04 80 1C  .........fdo1...
0C90: 05 80 52 07 80 F8 FF FF  7F F8 FF FF 7F 73 31 31  ..R..........s11
0CA0: 30 46 00 45 03 80 F8 FF  FF 7F F8 FF FF 7F 66 64  0F.E..........fd
0CB0: 69 31 04 80 21 00 29 0F  62 60 0E 01 3D 00        i1..!.).b`..=.  
```

#### Opcodes

```
  0: 0x0946 [0x42] SET_CLI_EVENT_CANCEL_DATA()
  1: 0x0947 [0x46] CAMERA_CONTROL: Disable user control
  2: 0x0949 [0x45] LOAD_SCHEDULED_TASK: Load scheduler "fdo1" with entities [EventEntity, EventEntity], work=[200*, 0*]
  3: 0x095A [0x1C] WAIT(60* ticks)
  4: 0x095D [0x38] SET_CLIENT_EVENT_MODE(mode=3*)
  5: 0x0960 [0x29] REQ_SET_WAIT(priority=0x64, entity_id=LocalPlayer, tag_num=0x19)
  6: 0x0967 [0x29] REQ_SET_WAIT(priority=0x08, entity_id=LocalPlayer, tag_num=0x39)
  7: 0x096E [0x45] LOAD_SCHEDULED_TASK: Load scheduler "s024" with entities [LocalPlayer, LocalPlayer], work=[130*, 0*]
  8: 0x097F [0x45] LOAD_SCHEDULED_TASK: Load scheduler "fdi1" with entities [EventEntity, EventEntity], work=[200*, 0*]
  9: 0x0990 [0x02] IF !(Work_Zone[6] == 1*) GOTO 0x09B3
 10: 0x0998 [0x03] Work_Zone[5] = 891*
 11: 0x099D [0x66] LOAD_EXT_SCHEDULER_MAIN: Load scheduler "tlk0" with entities [EventEntity, EventEntity], work=20*
 12: 0x09AC [0x1D] PRINT_EVENT_MESSAGE(message_id=9213*)
    → "I knew you'd return safely, and with the $3. Mission completed!"
 13: 0x09AF [0x23] WAIT_FOR_DIALOG_INTERACTION
 14: 0x09B0 [0x01] GOTO 0x09E0
 15: 0x09B3 [0x66] LOAD_EXT_SCHEDULER_MAIN: Load scheduler "tlk0" with entities [EventEntity, EventEntity], work=20*
 16: 0x09C2 [0x1D] PRINT_EVENT_MESSAGE(message_id=7256*)
    → "Ah, you've returned! I was afraid that Goblins got you."
 17: 0x09C5 [0x23] WAIT_FOR_DIALOG_INTERACTION
 18: 0x09C6 [0x45] LOAD_SCHEDULED_TASK: Load scheduler "s020" with entities [LocalPlayer, LocalPlayer], work=[130*, 0*]
 19: 0x09D7 [0x03] Work_Zone[5] = 891*
 20: 0x09DC [0x1D] PRINT_EVENT_MESSAGE(message_id=7257*)
    → "That's one $3 for the gatehouse, then. Mission complete. Not bad for a new recruit."
 21: 0x09DF [0x23] WAIT_FOR_DIALOG_INTERACTION

SUBROUTINE_09E0:
 22: 0x09E0 [0x45] LOAD_SCHEDULED_TASK: Load scheduler "fdo1" with entities [EventEntity, EventEntity], work=[200*, 0*]
 23: 0x09F1 [0x1C] WAIT(60* ticks)
 24: 0x09F4 [0x5E] EventEntity goes idle (kills current action) (animation: "idl0")
 25: 0x09F9 [0x1C] WAIT(30* ticks)
 26: 0x09FC [0x46] CAMERA_CONTROL: Restore default settings
 27: 0x09FE [0x45] LOAD_SCHEDULED_TASK: Load scheduler "fdi1" with entities [EventEntity, EventEntity], work=[200*, 0*]
 28: 0x0A0F [0x45] LOAD_SCHEDULED_TASK: Load scheduler "qstc" with entities [LocalPlayer, LocalPlayer], work=[201*, 0*]
 29: 0x0A20 [0x20] SET_CLI_EVENT_UC_FLAG: Unlock player control
 30: 0x0A22 [0x21] END_EVENT
 31: 0x0A23 [0x00] END_REQSTACK()
```

#### Data or dead code:

```
# Dead code (unreachable instructions):
     0x0A24 [0x45] LOAD_SCHEDULED_TASK: Load scheduler "ovl1" with entities [LocalPlayer, LocalPlayer], work=[200*, 0*]
     0x0A35 [0x45] LOAD_SCHEDULED_TASK: Load scheduler "s092" with entities [EventEntity, EventEntity], work=[90*, 0*]
     0x0A46 [0x66] LOAD_EXT_SCHEDULER_MAIN: Load scheduler "tlk0" with entities [EventEntity, EventEntity], work=20*
     0x0A55 [0x1D] PRINT_EVENT_MESSAGE(message_id=7258*)
    → "Ah, the recruit's back again? I'm sorry, but I've no time for you today."
     0x0A58 [0x23] WAIT_FOR_DIALOG_INTERACTION
     0x0A59 [0x5E] EventEntity goes idle (kills current action) (animation: "idl0")
     0x0A5E [0x1D] PRINT_EVENT_MESSAGE(message_id=7259*)
    → "Well, perhaps you can be of some help. Many of our children have disappeared mysteriously, and I've no doubt the Ghelsba Orcs are behind it."
     0x0A61 [0x23] WAIT_FOR_DIALOG_INTERACTION
     0x0A62 [0x52] END_LOAD_SCHEDULER: End scheduler "s092" with entities [EventEntity, EventEntity], work=90*
     0x0A71 [0x45] LOAD_SCHEDULED_TASK: Load scheduler "s109" with entities [EventEntity, EventEntity], work=[90*, 0*]
     0x0A82 [0x66] LOAD_EXT_SCHEDULER_MAIN: Load scheduler "thk1" with entities [EventEntity, EventEntity], work=20*
     0x0A91 [0x1D] PRINT_EVENT_MESSAGE(message_id=7260*)
    → "The Royal Knights should be on the job by now, but the two princes are at each other's throats."
     0x0A94 [0x23] WAIT_FOR_DIALOG_INTERACTION
     0x0A95 [0x1D] PRINT_EVENT_MESSAGE(message_id=7261*)
    → "Prince Trion, the eldest, says we should launch a full attack, with all haste."
     0x0A98 [0x23] WAIT_FOR_DIALOG_INTERACTION
     0x0A99 [0x1D] PRINT_EVENT_MESSAGE(message_id=7262*)
    → "While his younger brother, Prince Pieuje says the safety of the children comes first, and he won't authorize an attack."
     0x0A9C [0x23] WAIT_FOR_DIALOG_INTERACTION
     0x0A9D [0x52] END_LOAD_SCHEDULER: End scheduler "s109" with entities [EventEntity, EventEntity], work=90*
     0x0AAC [0x45] LOAD_SCHEDULED_TASK: Load scheduler "s092" with entities [EventEntity, EventEntity], work=[90*, 0*]
     0x0ABD [0x1D] PRINT_EVENT_MESSAGE(message_id=7263*)
    → "They've been arguing this back and forth for days. The knights' hands are tied, and frankly, nobody knows what to do."
     0x0AC0 [0x23] WAIT_FOR_DIALOG_INTERACTION
     0x0AC1 [0x66] LOAD_EXT_SCHEDULER_MAIN: Load scheduler "thk2" with entities [EventEntity, EventEntity], work=20*
     0x0AD0 [0x53] WAIT_SCHEDULER_TASK: Wait for scheduler "thk2" with entities [EventEntity, EventEntity]
     0x0ADD [0x1C] WAIT(30* ticks)
     0x0AE0 [0x52] END_LOAD_SCHEDULER: End scheduler "s092" with entities [EventEntity, EventEntity], work=90*
     0x0AEF [0x45] LOAD_SCHEDULED_TASK: Load scheduler "ovl1" with entities [LocalPlayer, LocalPlayer], work=[200*, 0*]
     0x0B00 [0x45] LOAD_SCHEDULED_TASK: Load scheduler "s020" with entities [LocalPlayer, LocalPlayer], work=[130*, 0*]
     0x0B11 [0x66] LOAD_EXT_SCHEDULER_MAIN: Load scheduler "poi1" with entities [EventEntity, EventEntity], work=20*
     0x0B20 [0x1D] PRINT_EVENT_MESSAGE(message_id=7264*)
    → "If you really want to make a name for yourself, go to Ghelsba, and rescue those kidnapped children!"
     0x0B23 [0x23] WAIT_FOR_DIALOG_INTERACTION
     0x0B24 [0x66] LOAD_EXT_SCHEDULER_MAIN: Load scheduler "poi2" with entities [EventEntity, EventEntity], work=20*
     0x0B33 [0x53] WAIT_SCHEDULER_TASK: Wait for scheduler "poi2" with entities [EventEntity, EventEntity]
     0x0B40 [0x1C] WAIT(30* ticks)
     0x0B43 [0x66] LOAD_EXT_SCHEDULER_MAIN: Load scheduler "tlk0" with entities [EventEntity, EventEntity], work=20*
     0x0B52 [0x1D] PRINT_EVENT_MESSAGE(message_id=7265*)
    → "What say you? Will you go?"
     0x0B55 [0x23] WAIT_FOR_DIALOG_INTERACTION
     0x0B56 [0x5E] EventEntity goes idle (kills current action) (animation: "idl0")
     0x0B5B [0x24] CREATE_DIALOG(message_id=7240*, default_option=0*, option_flags=0*)
    → "Interested? [Tell me more./Never mind.]"
     0x0B62 [0x25] WAIT_DIALOG_SELECT()
     0x0B63 [0x02] IF !(Work_Zone[0] == 0*) GOTO 0x0C6E
     0x0B6B [0x45] LOAD_SCHEDULED_TASK: Load scheduler "s107" with entities [EventEntity, EventEntity], work=[90*, 0*]
     0x0B7C [0x66] LOAD_EXT_SCHEDULER_MAIN: Load scheduler "tlk0" with entities [EventEntity, EventEntity], work=20*
     0x0B8B [0x1D] PRINT_EVENT_MESSAGE(message_id=7266*)
    → "Here's your mission, then. Rescue the two children kidnapped by the Orcs of Ghelsba Outpost."
     0x0B8E [0x23] WAIT_FOR_DIALOG_INTERACTION
     0x0B8F [0x1D] PRINT_EVENT_MESSAGE(message_id=7267*)
    → "Ghelsba Outpost is northwest of West Ronfaure. Take the path before the Westgate, then turn right when the path splits in the forest. You'll find the entrance up in the hills."
     0x0B92 [0x23] WAIT_FOR_DIALOG_INTERACTION
     0x0B93 [0x52] END_LOAD_SCHEDULER: End scheduler "s107" with entities [EventEntity, EventEntity], work=90*
     0x0BA2 [0x45] LOAD_SCHEDULED_TASK: Load scheduler "ovl1" with entities [LocalPlayer, LocalPlayer], work=[200*, 0*]
     0x0BB3 [0x02] IF !(Work_Zone[9] == 5*) GOTO 0x0BCF
     0x0BBB [0x45] LOAD_SCHEDULED_TASK: Load scheduler "s108" with entities [EventEntity, EventEntity], work=[90*, 0*]
     0x0BCC [0x01] GOTO 0x0BFC
     0x0BCF [0x02] IF !(Work_Zone[9] == 6*) GOTO 0x0BEB
     0x0BD7 [0x45] LOAD_SCHEDULED_TASK: Load scheduler "s108" with entities [EventEntity, EventEntity], work=[90*, 0*]
     0x0BE8 [0x01] GOTO 0x0BFC
     0x0BEB [0x45] LOAD_SCHEDULED_TASK: Load scheduler "s023" with entities [LocalPlayer, LocalPlayer], work=[130*, 0*]
     0x0BFC [0x1D] PRINT_EVENT_MESSAGE(message_id=7268*)
    → "If you have trouble finding the way, just follow one of the soldiers on patrol."
     0x0BFF [0x23] WAIT_FOR_DIALOG_INTERACTION
     0x0C00 [0x1D] PRINT_EVENT_MESSAGE(message_id=7243*)
    → "That is all. You'll take the mission then?"
     0x0C03 [0x23] WAIT_FOR_DIALOG_INTERACTION
     0x0C04 [0x5E] EventEntity goes idle (kills current action) (animation: "idl0")
     0x0C09 [0x24] CREATE_DIALOG(message_id=7244*, default_option=0*, option_flags=0*)
    → "Do you accept the mission? [I accept./Could you explain again?/No, thank you.]"
     0x0C10 [0x25] WAIT_DIALOG_SELECT()
     0x0C11 [0x02] IF !(Work_Zone[0] == 0*) GOTO 0x0C4D
     0x0C19 [0x45] LOAD_SCHEDULED_TASK: Load scheduler "s110" with entities [EventEntity, EventEntity], work=[90*, 0*]
     0x0C2A [0x66] LOAD_EXT_SCHEDULER_MAIN: Load scheduler "tlk0" with entities [EventEntity, EventEntity], work=20*
     0x0C39 [0x1D] PRINT_EVENT_MESSAGE(message_id=7269*)
    → "Orcs tend to keep their hostages in tents or small huts. Once you're inside the compound, check them first."
     0x0C3C [0x23] WAIT_FOR_DIALOG_INTERACTION
     0x0C3D [0x5E] EventEntity goes idle (kills current action) (animation: "idl0")
     0x0C42 [0x1C] WAIT(30* ticks)
     0x0C45 [0x03] Work_Zone[1] = 2*
     0x0C4A [0x01] GOTO 0x0C6B
     0x0C4D [0x02] IF !(Work_Zone[0] == 1*) GOTO 0x0C5B
     0x0C55 [0x1A] CALL_SUBROUTINE(address=0x0B6B)
     0x0C58 [0x01] GOTO 0x0C6B
     0x0C5B [0x02] IF !(Work_Zone[0] == 2*) GOTO 0x0C6B
     0x0C63 [0x03] Work_Zone[1] = 1073741824*
     0x0C68 [0x01] GOTO 0x0C6B
     0x0C6B [0x01] GOTO 0x0C7E
     0x0C6E [0x02] IF !(Work_Zone[0] == 1*) GOTO 0x0C7E
     0x0C76 [0x03] Work_Zone[1] = 1073741824*
     0x0C7B [0x01] GOTO 0x0C7E
     0x0C7E [0x45] LOAD_SCHEDULED_TASK: Load scheduler "fdo1" with entities [EventEntity, EventEntity], work=[200*, 0*]
     0x0C8F [0x1C] WAIT(60* ticks)
     0x0C92 [0x52] END_LOAD_SCHEDULER: End scheduler "s110" with entities [EventEntity, EventEntity], work=90*
     0x0CA1 [0x46] CAMERA_CONTROL: Restore default settings
     0x0CA3 [0x45] LOAD_SCHEDULED_TASK: Load scheduler "fdi1" with entities [EventEntity, EventEntity], work=[200*, 0*]
     0x0CB4 [0x21] END_EVENT
     0x0CB5 [0x00] END_REQSTACK()
     0x0CB6 [0x29] REQ_SET_WAIT(priority=0x0F, entity_id=Ambrotien (ID: 17719394/0x010E6062), tag_num=0x3D)
     0x0CBD [0x00] END_REQSTACK()
```

### Event 2004

#### Metadata

| Field        | Value     |
|--------------|-----------|
| Entrypoint   | 0x0CBE    |
| Data Size    | 500 bytes |
| Instructions | 66        |

```
      00 01 02 03 04 05 06 07  08 09 0A 0B 0C 0D 0E 0F
      -- -- -- -- -- -- -- --  -- -- -- -- -- -- -- --
0CB0:                                            42 46                BF
0CC0: 01 45 03 80 F8 FF FF 7F  F8 FF FF 7F 66 64 6F 31  .E..........fdo1
0CD0: 04 80 1C 05 80 38 06 80  29 64 F0 FF FF 7F 19 29  .....8..)d.....)
0CE0: 08 F0 FF FF 7F 39 45 07  80 F8 FF FF 7F F8 FF FF  .....9E.........
0CF0: 7F 73 31 30 39 04 80 45  03 80 F8 FF FF 7F F8 FF  .s109..E........
0D00: FF 7F 66 64 69 31 04 80  66 00 80 F8 FF FF 7F F8  ..fdi1..f.......
0D10: FF FF 7F 74 6C 6B 30 1D  50 80 23 5E 69 64 6C 30  ...tlk0.P.#^idl0
0D20: 1D 51 80 23 52 07 80 F8  FF FF 7F F8 FF FF 7F 73  .Q.#R..........s
0D30: 31 30 39 45 03 80 F0 FF  FF 7F F0 FF FF 7F 6F 76  109E..........ov
0D40: 6C 31 04 80 02 09 10 12  80 00 60 0D 45 07 80 F8  l1........`.E...
0D50: FF FF 7F F8 FF FF 7F 73  31 30 38 04 80 01 8D 0D  .......s108.....
0D60: 02 09 10 13 80 00 7C 0D  45 07 80 F8 FF FF 7F F8  ......|.E.......
0D70: FF FF 7F 73 31 30 38 04  80 01 8D 0D 45 0A 80 F0  ...s108.....E...
0D80: FF FF 7F F0 FF FF 7F 73  30 32 33 04 80 1D 52 80  .......s023...R.
0D90: 23 7D 53 80 45 1D 80 F0  FF FF 7F F0 FF FF 7F 71  #}S.E..........q
0DA0: 73 74 63 04 80 1C 03 80  45 07 80 F8 FF FF 7F F8  stc.....E.......
0DB0: FF FF 7F 73 31 31 30 04  80 66 00 80 F8 FF FF 7F  ...s110..f......
0DC0: F8 FF FF 7F 74 6C 6B 30  1D 54 80 23 03 02 10 55  ....tlk0.T.#...U
0DD0: 80 1D 56 80 23 52 07 80  F8 FF FF 7F F8 FF FF 7F  ..V.#R..........
0DE0: 73 31 31 30 45 07 80 F8  FF FF 7F F8 FF FF 7F 73  s110E..........s
0DF0: 30 39 32 04 80 1D 57 80  23 1D 58 80 23 52 07 80  092...W.#.X.#R..
0E00: F8 FF FF 7F F8 FF FF 7F  73 30 39 32 5E 69 64 6C  ........s092^idl
0E10: 30 45 07 80 F8 FF FF 7F  F8 FF FF 7F 73 31 31 31  0E..........s111
0E20: 04 80 1C 02 80 66 00 80  F8 FF FF 7F F8 FF FF 7F  .....f..........
0E30: 74 6C 6B 30 1D 59 80 23  1D 5A 80 23 52 07 80 F8  tlk0.Y.#.Z.#R...
0E40: FF FF 7F F8 FF FF 7F 73  31 31 31 45 03 80 F0 FF  .......s111E....
0E50: FF 7F F0 FF FF 7F 6F 76  6C 31 04 80 45 07 80 F8  ......ovl1..E...
0E60: FF FF 7F F8 FF FF 7F 73  30 39 32 04 80 1D 5B 80  .......s092...[.
0E70: 23 1D 5C 80 23 45 03 80  F8 FF FF 7F F8 FF FF 7F  #.\.#E..........
0E80: 66 64 6F 31 04 80 1C 05  80 52 07 80 F8 FF FF 7F  fdo1.....R......
0E90: F8 FF FF 7F 73 30 39 32  5E 69 64 6C 30 46 00 45  ....s092^idl0F.E
0EA0: 03 80 F8 FF FF 7F F8 FF  FF 7F 66 64 69 31 04 80  ..........fdi1..
0EB0: 21 00                                             !.              
```

#### Opcodes

```
  0: 0x0CBE [0x42] SET_CLI_EVENT_CANCEL_DATA()
  1: 0x0CBF [0x46] CAMERA_CONTROL: Disable user control
  2: 0x0CC1 [0x45] LOAD_SCHEDULED_TASK: Load scheduler "fdo1" with entities [EventEntity, EventEntity], work=[200*, 0*]
  3: 0x0CD2 [0x1C] WAIT(60* ticks)
  4: 0x0CD5 [0x38] SET_CLIENT_EVENT_MODE(mode=3*)
  5: 0x0CD8 [0x29] REQ_SET_WAIT(priority=0x64, entity_id=LocalPlayer, tag_num=0x19)
  6: 0x0CDF [0x29] REQ_SET_WAIT(priority=0x08, entity_id=LocalPlayer, tag_num=0x39)
  7: 0x0CE6 [0x45] LOAD_SCHEDULED_TASK: Load scheduler "s109" with entities [EventEntity, EventEntity], work=[90*, 0*]
  8: 0x0CF7 [0x45] LOAD_SCHEDULED_TASK: Load scheduler "fdi1" with entities [EventEntity, EventEntity], work=[200*, 0*]
  9: 0x0D08 [0x66] LOAD_EXT_SCHEDULER_MAIN: Load scheduler "tlk0" with entities [EventEntity, EventEntity], work=20*
 10: 0x0D17 [0x1D] PRINT_EVENT_MESSAGE(message_id=7270*)
    → "Ah, you've returned! You were gone so long, I feared a warmachine had got you!"
 11: 0x0D1A [0x23] WAIT_FOR_DIALOG_INTERACTION
 12: 0x0D1B [0x5E] EventEntity goes idle (kills current action) (animation: "idl0")
 13: 0x0D20 [0x1D] PRINT_EVENT_MESSAGE(message_id=7271*)
    → "At any rate, mission complete! And to reward your accomplishment..."
 14: 0x0D23 [0x23] WAIT_FOR_DIALOG_INTERACTION
 15: 0x0D24 [0x52] END_LOAD_SCHEDULER: End scheduler "s109" with entities [EventEntity, EventEntity], work=90*
 16: 0x0D33 [0x45] LOAD_SCHEDULED_TASK: Load scheduler "ovl1" with entities [LocalPlayer, LocalPlayer], work=[200*, 0*]
 17: 0x0D44 [0x02] IF !(Work_Zone[9] == 5*) GOTO 0x0D60
 18: 0x0D4C [0x45] LOAD_SCHEDULED_TASK: Load scheduler "s108" with entities [EventEntity, EventEntity], work=[90*, 0*]
 19: 0x0D5D [0x01] GOTO 0x0D8D
 20: 0x0D60 [0x02] IF !(Work_Zone[9] == 6*) GOTO 0x0D7C
 21: 0x0D68 [0x45] LOAD_SCHEDULED_TASK: Load scheduler "s108" with entities [EventEntity, EventEntity], work=[90*, 0*]
 22: 0x0D79 [0x01] GOTO 0x0D8D
 23: 0x0D7C [0x45] LOAD_SCHEDULED_TASK: Load scheduler "s023" with entities [LocalPlayer, LocalPlayer], work=[130*, 0*]

SUBROUTINE_0D8D:
 24: 0x0D8D [0x1D] PRINT_EVENT_MESSAGE(message_id=7272*)
    → "I hereby recognize you, <Player>, as a certified adventurer of San d'Oria! You're now mission rank two, as well."
 25: 0x0D90 [0x23] WAIT_FOR_DIALOG_INTERACTION
 26: 0x0D91 [0x7D] LOAD_START_SCHEDULER_PLAYER: Load scheduler with animation_id 32851
 27: 0x0D94 [0x45] LOAD_SCHEDULED_TASK: Load scheduler "qstc" with entities [LocalPlayer, LocalPlayer], work=[201*, 0*]
 28: 0x0DA5 [0x1C] WAIT(200* ticks)
 29: 0x0DA8 [0x45] LOAD_SCHEDULED_TASK: Load scheduler "s110" with entities [EventEntity, EventEntity], work=[90*, 0*]
 30: 0x0DB9 [0x66] LOAD_EXT_SCHEDULER_MAIN: Load scheduler "tlk0" with entities [EventEntity, EventEntity], work=20*
 31: 0x0DC8 [0x1D] PRINT_EVENT_MESSAGE(message_id=7273*)
    → "But don't get too excited. Your title is valid only here in San d'Oria, understand?"
 32: 0x0DCB [0x23] WAIT_FOR_DIALOG_INTERACTION
 33: 0x0DCC [0x03] Work_Zone[2] = 35*
 34: 0x0DD1 [0x1D] PRINT_EVENT_MESSAGE(message_id=7274*)
    → "In order to become a true adventurer, and bear $6, you must be recognized by Bastok and Windurst as well."
 35: 0x0DD4 [0x23] WAIT_FOR_DIALOG_INTERACTION
 36: 0x0DD5 [0x52] END_LOAD_SCHEDULER: End scheduler "s110" with entities [EventEntity, EventEntity], work=90*
 37: 0x0DE4 [0x45] LOAD_SCHEDULED_TASK: Load scheduler "s092" with entities [EventEntity, EventEntity], work=[90*, 0*]
 38: 0x0DF5 [0x1D] PRINT_EVENT_MESSAGE(message_id=7275*)
    → "'Tis a treaty between the three lands, and its word is law. I know it's hard, but those are the rules."
 39: 0x0DF8 [0x23] WAIT_FOR_DIALOG_INTERACTION
 40: 0x0DF9 [0x1D] PRINT_EVENT_MESSAGE(message_id=7276*)
    → "For now, cut your adventuring teeth in the areas near here. Sooner or later you'll find your way into other lands."
 41: 0x0DFC [0x23] WAIT_FOR_DIALOG_INTERACTION
