# 17719496 - Legata

## Common Data

| Field            | Value                         |
|------------------|-------------------------------|
| Zone             | Southern San d'Oria (ID: 230) |
| Block Size       | 224 bytes                     |
| Total Events     | 5                             |
| References Count | 12                            |

## List of Events

| Event ID              | Entrypoint   |   Size |   Instructions |
|-----------------------|--------------|--------|----------------|
| [65535](#event-65535) | 0x0000       |     11 |              3 |
| [37](#event-37)       | 0x000B       |     80 |             25 |
| [35](#event-35)       | 0x005B       |     13 |              7 |
| [36](#event-36)       | 0x0068       |     33 |             10 |
| [888](#event-888)     | 0x0089       |      1 |              1 |

## DAT References (imed_data)

|   Index | Hex Value   |   Dec Value |
|---------|-------------|-------------|
|       0 | 0x0300      |         768 |
|       1 | 0x0004      |           4 |
|       2 | 0x0000      |           0 |
|       3 | 0x22CA      |        8906 |
|       4 | 0x22CC      |        8908 |
|       5 | 0x0001      |           1 |
|       6 | 0x22CD      |        8909 |
|       7 | 0x22CE      |        8910 |
|       8 | 0x22CB      |        8907 |
|       9 | 0x22CF      |        8911 |
|      10 | 0x22D0      |        8912 |
|      11 | 0x00C9      |         201 |

## String References

- **8906**: Say, would you have any time on your hands? I require $1 $0 , and I never seem to have enough of them.
- **8907**: You don't think you could bring me another $1 $0 ? Trade with me once you get some!
- **8908**: What say you? [I shall help./No, I cannot.]
- **8909**: Excellent! Then I'll be waiting. Remember, it's $1 $0 .
- **8910**: Oh, what a pity. Maybe next time, then?
- **8911**: Where are the $1 $0 you promised?
- **8912**: Thank you so much! Here's something in return.

## Events

### Event 65535

#### Metadata

| Field        | Value    |
|--------------|----------|
| Entrypoint   | 0x0000   |
| Data Size    | 11 bytes |
| Instructions | 3        |

```
      00 01 02 03 04 05 06 07  08 09 0A 0B 0C 0D 0E 0F
      -- -- -- -- -- -- -- --  -- -- -- -- -- -- -- --
0000: 03 02 10 00 80 03 03 10  01 80 00                 ...........     
```

#### Opcodes

```
  0: 0x0000 [0x03] Work_Zone[2] = 768*
  1: 0x0005 [0x03] Work_Zone[3] = 4*
  2: 0x000A [0x00] END_REQSTACK()
```

### Event 37

#### Metadata

| Field        | Value    |
|--------------|----------|
| Entrypoint   | 0x000B   |
| Data Size    | 80 bytes |
| Instructions | 25       |

```
      00 01 02 03 04 05 06 07  08 09 0A 0B 0C 0D 0E 0F
      -- -- -- -- -- -- -- --  -- -- -- -- -- -- -- --
0000:                                   03 00 00 09 10             .....
0010: 06 01 10 1E F0 FF FF 7F  6F 70 02 00 00 02 80 00  ........op......
0020: 55 00 1D 03 80 23 24 04  80 05 80 02 80 25 02 00  U....#$......%..
0030: 10 02 80 00 43 00 42 1D  06 80 23 03 01 10 05 80  ....C.B...#.....
0040: 01 52 00 02 00 10 05 80  00 52 00 1D 07 80 23 01  .R.......R....#.
0050: 52 00 01 59 00 1D 08 80  23 21 00                 R..Y....#!.     
```

#### Opcodes

```
  0: 0x000B [0x03] ExtData[1]->WorkLocal[0] = Work_Zone[9]
  1: 0x0010 [0x06] Work_Zone[1] = 0
  2: 0x0013 [0x1E] EventEntity looks at LocalPlayer and starts talking
  3: 0x0018 [0x6F] WAIT_FRAME_DELAY: Yield until WaitTime reaches zero
  4: 0x0019 [0x70] WAIT_ENTITY_RENDER_FLAG: Wait while EventEntity->Render.Flags3 bit 2 is set (cancel turn if not)
  5: 0x001A [0x02] IF !(ExtData[1]->WorkLocal[0] == 0*) GOTO 0x0055
  6: 0x0022 [0x1D] PRINT_EVENT_MESSAGE(message_id=8906*)
    → "Say, would you have any time on your hands? I require $1 $0 , and I never seem to have enough of them."
  7: 0x0025 [0x23] WAIT_FOR_DIALOG_INTERACTION
  8: 0x0026 [0x24] CREATE_DIALOG(message_id=8908*, default_option=1*, option_flags=0*)
    → "What say you? [I shall help./No, I cannot.]"
  9: 0x002D [0x25] WAIT_DIALOG_SELECT()
 10: 0x002E [0x02] IF !(Work_Zone[0] == 0*) GOTO 0x0043
 11: 0x0036 [0x42] SET_CLI_EVENT_CANCEL_DATA()
 12: 0x0037 [0x1D] PRINT_EVENT_MESSAGE(message_id=8909*)
    → "Excellent! Then I'll be waiting. Remember, it's $1 $0 ."
 13: 0x003A [0x23] WAIT_FOR_DIALOG_INTERACTION
 14: 0x003B [0x03] Work_Zone[1] = 1*
 15: 0x0040 [0x01] GOTO 0x0052
 16: 0x0043 [0x02] IF !(Work_Zone[0] == 1*) GOTO 0x0052
 17: 0x004B [0x1D] PRINT_EVENT_MESSAGE(message_id=8910*)
    → "Oh, what a pity. Maybe next time, then?"
 18: 0x004E [0x23] WAIT_FOR_DIALOG_INTERACTION
 19: 0x004F [0x01] GOTO 0x0052

SUBROUTINE_0052:
 20: 0x0052 [0x01] GOTO 0x0059
 21: 0x0055 [0x1D] PRINT_EVENT_MESSAGE(message_id=8907*)
    → "You don't think you could bring me another $1 $0 ? Trade with me once you get some!"
 22: 0x0058 [0x23] WAIT_FOR_DIALOG_INTERACTION

SUBROUTINE_0059:
 23: 0x0059 [0x21] END_EVENT
 24: 0x005A [0x00] END_REQSTACK()
```

### Event 35

#### Metadata

| Field        | Value    |
|--------------|----------|
| Entrypoint   | 0x005B   |
| Data Size    | 13 bytes |
| Instructions | 7        |

```
      00 01 02 03 04 05 06 07  08 09 0A 0B 0C 0D 0E 0F
      -- -- -- -- -- -- -- --  -- -- -- -- -- -- -- --
0050:                                   1E F0 FF FF 7F             .....
0060: 6F 70 1D 09 80 23 21 00                           op...#!.        
```

#### Opcodes

```
  0: 0x005B [0x1E] EventEntity looks at LocalPlayer and starts talking
  1: 0x0060 [0x6F] WAIT_FRAME_DELAY: Yield until WaitTime reaches zero
  2: 0x0061 [0x70] WAIT_ENTITY_RENDER_FLAG: Wait while EventEntity->Render.Flags3 bit 2 is set (cancel turn if not)
  3: 0x0062 [0x1D] PRINT_EVENT_MESSAGE(message_id=8911*)
    → "Where are the $1 $0 you promised?"
  4: 0x0065 [0x23] WAIT_FOR_DIALOG_INTERACTION
  5: 0x0066 [0x21] END_EVENT
  6: 0x0067 [0x00] END_REQSTACK()
```

### Event 36

#### Metadata

| Field        | Value    |
|--------------|----------|
| Entrypoint   | 0x0068   |
| Data Size    | 33 bytes |
| Instructions | 10       |

```
      00 01 02 03 04 05 06 07  08 09 0A 0B 0C 0D 0E 0F
      -- -- -- -- -- -- -- --  -- -- -- -- -- -- -- --
0060:                          20 01 42 1E F0 FF FF 7F           .B.....
0070: 6F 70 1D 0A 80 23 45 0B  80 F0 FF FF 7F F0 FF FF  op...#E.........
0080: 7F 71 73 74 63 02 80 21  00                       .qstc..!.       
```

#### Opcodes

```
  0: 0x0068 [0x20] SET_CLI_EVENT_UC_FLAG: Lock player control
  1: 0x006A [0x42] SET_CLI_EVENT_CANCEL_DATA()
  2: 0x006B [0x1E] EventEntity looks at LocalPlayer and starts talking
  3: 0x0070 [0x6F] WAIT_FRAME_DELAY: Yield until WaitTime reaches zero
  4: 0x0071 [0x70] WAIT_ENTITY_RENDER_FLAG: Wait while EventEntity->Render.Flags3 bit 2 is set (cancel turn if not)
  5: 0x0072 [0x1D] PRINT_EVENT_MESSAGE(message_id=8912*)
    → "Thank you so much! Here's something in return."
  6: 0x0075 [0x23] WAIT_FOR_DIALOG_INTERACTION
  7: 0x0076 [0x45] LOAD_SCHEDULED_TASK: Load scheduler "qstc" with entities [LocalPlayer, LocalPlayer], work=[201*, 0*]
  8: 0x0087 [0x21] END_EVENT
  9: 0x0088 [0x00] END_REQSTACK()
```

### Event 888

#### Metadata

| Field        | Value   |
|--------------|---------|
| Entrypoint   | 0x0089  |
| Data Size    | 1 bytes |
| Instructions | 1       |

```
      00 01 02 03 04 05 06 07  08 09 0A 0B 0C 0D 0E 0F
      -- -- -- -- -- -- -- --  -- -- -- -- -- -- -- --
0080:                             00                             .      
```

#### Opcodes

```
  0: 0x0089 [0x00] END_REQSTACK()
```
