# 17719605 - Rumoie

## Common Data

| Field            | Value                         |
|------------------|-------------------------------|
| Zone             | Southern San d'Oria (ID: 230) |
| Block Size       | 936 bytes                     |
| Total Events     | 3                             |
| References Count | 61                            |

## List of Events

| Event ID              | Entrypoint   |   Size |   Instructions |
|-----------------------|--------------|--------|----------------|
| [65535](#event-65535) | 0x0000       |      1 |              1 |
| [863](#event-863)     | 0x0001       |    638 |            147 |
| [864](#event-864)     | 0x027F       |     22 |              9 |

## DAT References (imed_data)

|   Index | Hex Value   |   Dec Value |
|---------|-------------|-------------|
|       0 | 0x3008      |       12296 |
|       1 | 0x0181      |         385 |
|       2 | 0x3009      |       12297 |
|       3 | 0x300A      |       12298 |
|       4 | 0x0001      |           1 |
|       5 | 0x0000      |           0 |
|       6 | 0x300B      |       12299 |
|       7 | 0x001E      |          30 |
|       8 | 0x00E6      |         230 |
|       9 | 0x0002      |           2 |
|      10 | 0x0003      |           3 |
|      11 | 0x0004      |           4 |
|      12 | 0x0005      |           5 |
|      13 | 0x0006      |           6 |
|      14 | 0x0007      |           7 |
|      15 | 0x0008      |           8 |
|      16 | 0x00E7      |         231 |
|      17 | 0x00E8      |         232 |
|      18 | 0x301B      |       12315 |
|      19 | 0x003C      |          60 |
|      20 | 0xFFFDDDEB  |  4294827499 |
|      21 | 0x5A10      |       23056 |
|      22 | 0x301A      |       12314 |
|      23 | 0xFFFF7BE7  |  4294933479 |
|      24 | 0x84C3      |       33987 |
|      25 | 0x3013      |       12307 |
|      26 | 0x818E      |       33166 |
|      27 | 0x5258      |       21080 |
|      28 | 0x3016      |       12310 |
|      29 | 0x147AB     |       83883 |
|      30 | 0x1D4FC     |      120060 |
|      31 | 0x3014      |       12308 |
|      32 | 0x153CE     |       86990 |
|      33 | 0x1A67B     |      108155 |
|      34 | 0x3018      |       12312 |
|      35 | 0x301C      |       12316 |
|      36 | 0xFFFC3A00  |  4294720000 |
|      37 | 0x7157      |       29015 |
|      38 | 0x3011      |       12305 |
|      39 | 0x1ACF5     |      109813 |
|      40 | 0xFFFFECEF  |  4294962415 |
|      41 | 0x3015      |       12309 |
|      42 | 0xFFFE955D  |  4294874461 |
|      43 | 0xE367      |       58215 |
|      44 | 0x3019      |       12313 |
|      45 | 0x3365      |       13157 |
|      46 | 0xFFFFB285  |  4294947461 |
|      47 | 0xD30F      |       54031 |
|      48 | 0x2F0D      |       12045 |
|      49 | 0x3012      |       12306 |
|      50 | 0x301D      |       12317 |
|      51 | 0x11802     |       71682 |
|      52 | 0xFFFDE8D6  |  4294830294 |
|      53 | 0x3017      |       12311 |
|      54 | 0xFFFFE1A8  |  4294959528 |
|      55 | 0xFFFE5E16  |  4294860310 |
|      56 | 0x300C      |       12300 |
|      57 | 0x300D      |       12301 |
|      58 | 0x300E      |       12302 |
|      59 | 0x300F      |       12303 |
|      60 | 0x3007      |       12295 |

## String References

- **12295**: Well met! I'm a Merry Map Marker, and I'd love to make marks all over your merry $3, but it appears you are missing the markable map I mention.
- **12296**: Good day! I'm a Merry Map Marker, and I'd be emphatically ecstatic if you'd allow me to mark your magical map!
- **12297**: A markless $3 is like a motherless maiden, meandering through a miasmatic mire of misery.
- **12298**: Embark on a map-marking mission? [Mark me up!/Keep your mitts off my map!]
- **12299**: Marvelous! Now allow me a minute to make all my marks.
- **12300**: Methinks I have marked your map with as many marks as I might manage.
- **12301**: Monitoring and managing your marks is as simple as merely opening your map and selecting Markers from the main menu.
- **12302**: If the marks on your map might vanish, mope not like a melancholy milksop. Make another meeting with me and I shall make it my mission to mark the map once more.
- **12303**: Good day, [milord/milady]. May your marches across meadow and mountain be markedly memorable!
- **12306**: And mayhap you are immeasurably motivated to compete in the medieval mayhem of Conflict? Might I suggest you mingle with the modest Pursuivant located here?
- **12307**: Our local minstrel of melodies can be found here. His mirthful musicalities may help you recall misplaced memories.
- **12309**: Here, you may meet with a member of the Specialty Goods Trade Union. And, if you are a citizen of this mighty dominion, he'll teleport you all across Vana'diel (for a menial amount of monetary remuneration).
- **12310**: Need to know the local weather? Our local meteorologist will be making his paramount presumptions here.
- **12312**: Those men and women wondering how their deeds are mirrored in the minds of the locals should meander over to this gossip-meister to muster up important material on their respective reputations.
- **12315**: Let me begin with Southern San d'Oria.
- **12316**: Now I shall move to Northern San d'Oria.
- **12317**: And last, but not least, let me mark your map for Port San d'Oria.

## Events

### Event 65535

#### Metadata

| Field        | Value   |
|--------------|---------|
| Entrypoint   | 0x0000  |
| Data Size    | 1 bytes |
| Instructions | 1       |

```
      00 01 02 03 04 05 06 07  08 09 0A 0B 0C 0D 0E 0F
      -- -- -- -- -- -- -- --  -- -- -- -- -- -- -- --
0000: 00                                                .               
```

#### Opcodes

```
  0: 0x0000 [0x00] END_REQSTACK()
```

### Event 863

#### Metadata

| Field        | Value     |
|--------------|-----------|
| Entrypoint   | 0x0001    |
| Data Size    | 638 bytes |
| Instructions | 72        |

```
      00 01 02 03 04 05 06 07  08 09 0A 0B 0C 0D 0E 0F
      -- -- -- -- -- -- -- --  -- -- -- -- -- -- -- --
0000:    20 01 1E F0 FF FF 7F  1D 00 80 23 03 02 10 01    .........#....
0010: 80 1D 02 80 23 24 03 80  04 80 05 80 25 02 00 10  ....#$......%...
0020: 05 80 00 7D 02 03 02 10  01 80 1D 06 80 23 1C 07  ...}.........#..
0030: 80 A8 00 08 80 04 80 A8  00 08 80 09 80 A8 00 08  ................
0040: 80 0A 80 A8 00 08 80 0B  80 A8 00 08 80 0C 80 A8  ................
0050: 00 08 80 0D 80 A8 00 08  80 0E 80 A8 00 08 80 0F  ................
0060: 80 A8 00 10 80 04 80 A8  00 10 80 09 80 A8 00 10  ................
0070: 80 0A 80 A8 00 10 80 0B  80 A8 00 10 80 0C 80 A8  ................
0080: 00 10 80 0D 80 A8 00 10  80 0E 80 A8 00 10 80 0F  ................
0090: 80 A8 00 11 80 04 80 A8  00 11 80 09 80 A8 00 11  ................
00A0: 80 0A 80 A8 00 11 80 0B  80 A8 00 11 80 0C 80 1C  ................
00B0: 07 80 1D 12 80 23 1C 13  80 89 08 80 1C 07 80 8B  .....#..........
00C0: 08 80 0B 80 14 80 15 80  49 74 65 6D 44 65 70 6F  ........ItemDepo
00D0: 73 69 74 6F 72 79 00 00  1D 16 80 23 1C 07 80 8B  sitory.....#....
00E0: 08 80 0C 80 17 80 18 80  4D 65 6C 6F 64 79 5F 4D  ........Melody_M
00F0: 69 6E 73 74 72 65 6C 00  1D 19 80 23 1C 07 80 8B  instrel....#....
0100: 08 80 0D 80 1A 80 1B 80  57 65 61 74 68 65 72 5F  ........Weather_
0110: 52 65 70 6F 72 74 00 00  1D 1C 80 23 1C 07 80 8B  Report.....#....
0120: 08 80 0E 80 1D 80 1E 80  54 72 61 76 65 6C 69 6E  ........Travelin
0130: 67 5F 42 61 72 64 00 00  1D 1F 80 23 1C 07 80 8B  g_Bard.....#....
0140: 08 80 0F 80 20 80 21 80  52 65 70 75 74 61 74 69  .... .!.Reputati
0150: 6F 6E 00 00 00 00 00 00  1D 22 80 23 1C 07 80 8A  on.......".#....
0160: 1C 07 80 1D 23 80 23 1C  13 80 89 10 80 1C 07 80  ....#.#.........
0170: 8B 10 80 04 80 24 80 25  80 49 6D 6D 69 67 72 61  .....$.%.Immigra
0180: 74 69 6F 6E 00 00 00 00  00 1D 26 80 23 1C 07 80  tion......&.#...
0190: 8B 10 80 09 80 27 80 28  80 54 65 6C 65 70 6F 72  .....'.(.Telepor
01A0: 74 61 74 69 6F 6E 00 00  00 1D 29 80 23 1C 07 80  tation....).#...
01B0: 8B 10 80 0D 80 2A 80 2B  80 41 72 6D 6F 72 44 65  .....*.+.ArmorDe
01C0: 70 6F 73 69 74 6F 72 79  00 1D 2C 80 23 1C 07 80  pository..,.#...
01D0: 8B 10 80 0E 80 2D 80 2E  80 4D 65 6C 6F 64 79 5F  .....-...Melody_
01E0: 4D 69 6E 73 74 72 65 6C  00 1D 19 80 23 1C 07 80  Minstrel....#...
01F0: 8B 10 80 0F 80 2F 80 30  80 50 75 72 73 75 69 76  ...../.0.Pursuiv
0200: 61 6E 74 00 00 00 00 00  00 1D 31 80 23 1C 07 80  ant.......1.#...
0210: 8A 1C 07 80 1D 32 80 23  1C 13 80 89 11 80 1C 07  .....2.#........
0220: 80 8B 11 80 0B 80 33 80  34 80 47 6F 6C 64 5F 57  ......3.4.Gold_W
0230: 6F 72 6C 64 5F 50 61 73  73 00 1D 35 80 23 1C 07  orld_Pass..5.#..
0240: 80 8B 11 80 0C 80 36 80  37 80 4D 65 6C 6F 64 79  ......6.7.Melody
0250: 5F 4D 69 6E 73 74 72 65  6C 00 1D 19 80 23 1C 07  _Minstrel....#..
0260: 80 8A 1C 07 80 03 02 10  01 80 1D 38 80 23 1D 39  ...........8.#.9
0270: 80 23 1D 3A 80 23 1D 3B  80 23 01 7D 02 21 00     .#.:.#.;.#.}.!. 
```

#### Opcodes

```
  0: 0x0001 [0x20] SET_CLI_EVENT_UC_FLAG: Lock player control
  1: 0x0003 [0x1E] EventEntity looks at LocalPlayer and starts talking
  2: 0x0008 [0x1D] PRINT_EVENT_MESSAGE(message_id=12296*)
    → "Good day! I'm a Merry Map Marker, and I'd be emphatically ecstatic if you'd allow me to mark your magical map!"
  3: 0x000B [0x23] WAIT_FOR_DIALOG_INTERACTION
  4: 0x000C [0x03] Work_Zone[2] = 385*
  5: 0x0011 [0x1D] PRINT_EVENT_MESSAGE(message_id=12297*)
    → "A markless $3 is like a motherless maiden, meandering through a miasmatic mire of misery."
  6: 0x0014 [0x23] WAIT_FOR_DIALOG_INTERACTION
  7: 0x0015 [0x24] CREATE_DIALOG(message_id=12298*, default_option=1*, option_flags=0*)
    → "Embark on a map-marking mission? [Mark me up!/Keep your mitts off my map!]"
  8: 0x001C [0x25] WAIT_DIALOG_SELECT()
  9: 0x001D [0x02] IF !(Work_Zone[0] == 0*) GOTO 0x027D
 10: 0x0025 [0x03] Work_Zone[2] = 385*
 11: 0x002A [0x1D] PRINT_EVENT_MESSAGE(message_id=12299*)
    → "Marvelous! Now allow me a minute to make all my marks."
 12: 0x002D [0x23] WAIT_FOR_DIALOG_INTERACTION
 13: 0x002E [0x1C] WAIT(30* ticks)
 14: 0x0031 [0xA8] MAP_MARKER_CONTROL: Reset/unlock markers (no map display), zone=230*, marker=1*
 15: 0x0037 [0xA8] MAP_MARKER_CONTROL: Reset/unlock markers (no map display), zone=230*, marker=2*
 16: 0x003D [0xA8] MAP_MARKER_CONTROL: Reset/unlock markers (no map display), zone=230*, marker=3*
 17: 0x0043 [0xA8] MAP_MARKER_CONTROL: Reset/unlock markers (no map display), zone=230*, marker=4*
 18: 0x0049 [0xA8] MAP_MARKER_CONTROL: Reset/unlock markers (no map display), zone=230*, marker=5*
 19: 0x004F [0xA8] MAP_MARKER_CONTROL: Reset/unlock markers (no map display), zone=230*, marker=6*
 20: 0x0055 [0xA8] MAP_MARKER_CONTROL: Reset/unlock markers (no map display), zone=230*, marker=7*
 21: 0x005B [0xA8] MAP_MARKER_CONTROL: Reset/unlock markers (no map display), zone=230*, marker=8*
 22: 0x0061 [0xA8] MAP_MARKER_CONTROL: Reset/unlock markers (no map display), zone=231*, marker=1*
 23: 0x0067 [0xA8] MAP_MARKER_CONTROL: Reset/unlock markers (no map display), zone=231*, marker=2*
 24: 0x006D [0xA8] MAP_MARKER_CONTROL: Reset/unlock markers (no map display), zone=231*, marker=3*
 25: 0x0073 [0xA8] MAP_MARKER_CONTROL: Reset/unlock markers (no map display), zone=231*, marker=4*
 26: 0x0079 [0xA8] MAP_MARKER_CONTROL: Reset/unlock markers (no map display), zone=231*, marker=5*
 27: 0x007F [0xA8] MAP_MARKER_CONTROL: Reset/unlock markers (no map display), zone=231*, marker=6*
 28: 0x0085 [0xA8] MAP_MARKER_CONTROL: Reset/unlock markers (no map display), zone=231*, marker=7*
 29: 0x008B [0xA8] MAP_MARKER_CONTROL: Reset/unlock markers (no map display), zone=231*, marker=8*
 30: 0x0091 [0xA8] MAP_MARKER_CONTROL: Reset/unlock markers (no map display), zone=232*, marker=1*
 31: 0x0097 [0xA8] MAP_MARKER_CONTROL: Reset/unlock markers (no map display), zone=232*, marker=2*
 32: 0x009D [0xA8] MAP_MARKER_CONTROL: Reset/unlock markers (no map display), zone=232*, marker=3*
 33: 0x00A3 [0xA8] MAP_MARKER_CONTROL: Reset/unlock markers (no map display), zone=232*, marker=4*
 34: 0x00A9 [0xA8] MAP_MARKER_CONTROL: Reset/unlock markers (no map display), zone=232*, marker=5*
 35: 0x00AF [0x1C] WAIT(30* ticks)
 36: 0x00B2 [0x1D] PRINT_EVENT_MESSAGE(message_id=12315*)
    → "Let me begin with Southern San d'Oria."
 37: 0x00B5 [0x23] WAIT_FOR_DIALOG_INTERACTION
 38: 0x00B6 [0x1C] WAIT(60* ticks)
 39: 0x00B9 [0x89] OPEN_MAP(map_id=0x00008008)
 40: 0x00BC [0x1C] WAIT(30* ticks)
 41: 0x00BF [0x8B] SET_EVENT_MARK: Add/update map marker on map 230* at (-139.797*, 23.056*), index=4*, name=(no name)
 42: 0x00C8 [0x49] Unknown NPC (ID: 1148020084/0x446D6574) (No speaker name) [0x7065]:
 43: 0x00CF [0x6F] WAIT_FRAME_DELAY: Yield until WaitTime reaches zero
 44: 0x00D0 [0x73] Unknown NPC (ID: 7959151/0x0079726F) casts magic 0x7469 on Unknown NPC (ID: 2148932864/0x80161D00)
 45: 0x00DB [0x23] WAIT_FOR_DIALOG_INTERACTION
 46: 0x00DC [0x1C] WAIT(30* ticks)
 47: 0x00DF [0x8B] SET_EVENT_MARK: Add/update map marker on map 230* at (-33.817*, 33.987*), index=5*, name=(no name)
 48: 0x00E8 [0x4D] EventEntity->StatusEvent = 9 // Close door
 49: 0x00E9 [0x65] CALCULATE_3D_DISTANCE(result=0x6F6C, entity1=Unknown NPC (ID: 1298102628/0x4D5F7964), entity2=Unknown NPC (ID: 1953721961/0x74736E69))
 50: 0x00F4 [0x72] LOAD_EVENT_WEATHER: Unknown mode 101, weather_id=0x6C
 51: 0x00F8 [0x1D] PRINT_EVENT_MESSAGE(message_id=12307*)
    → "Our local minstrel of melodies can be found here. His mirthful musicalities may help you recall misplaced memories."
 52: 0x00FB [0x23] WAIT_FOR_DIALOG_INTERACTION
 53: 0x00FC [0x1C] WAIT(30* ticks)
 54: 0x00FF [0x8B] SET_EVENT_MARK: Add/update map marker on map 230* at (33.166*, 21.080*), index=6*, name=(no name)
 55: 0x0108 [0x57] CREATE_FRAME_DELAY(delay=0x6165)
 56: 0x010B [0x74] EventEntity->Render.Flags1 |= 0x68
 57: 0x010D [0x65] CALCULATE_3D_DISTANCE(result=0x5F72, entity1=Unknown NPC (ID: 1869636946/0x6F706552), entity2=Unknown NPC (ID: 29810/0x00007472))
 58: 0x0118 [0x1D] PRINT_EVENT_MESSAGE(message_id=12310*)
    → "Need to know the local weather? Our local meteorologist will be making his paramount presumptions here."
 59: 0x011B [0x23] WAIT_FOR_DIALOG_INTERACTION
 60: 0x011C [0x1C] WAIT(30* ticks)
 61: 0x011F [0x8B] SET_EVENT_MARK: Add/update map marker on map 230* at (83.883*, 120.060*), index=7*, name=(no name)
 62: 0x0128 [0x54] WAIT_MAP_SCHEDULER: Wait for scheduler "_Bar" with entities [Unknown NPC (ID: 1702257010/0x65766172), Unknown NPC (ID: 1735289196/0x676E696C)]
 63: 0x0135 [0x64] CALCULATE_DISTANCE: ExtData[1]->WorkLocal[0] = distance between point1(0x1F1D, 0x2380) and point2(0x071C, References[2944])
 64: 0x0140 [0x08] 0x0F80 -= 0x2080
 65: 0x0145 [0x80] LOAD_WAIT(entity=Unknown NPC (ID: 1699905569/0x65528021))
 66: 0x014A [0x70] WAIT_ENTITY_RENDER_FLAG: Wait while EventEntity->Render.Flags3 bit 2 is set (cancel turn if not)
 67: 0x014B [0x75] LOAD_ROOM(Unknown mode 116, room=0x7461)
 68: 0x014F [0x69] SET_SOUND_VOLUME: Mute System/Zone/Master
 69: 0x0153 [0x00] END_REQSTACK()

SUBROUTINE_027D:
 70: 0x027D [0x21] END_EVENT
 71: 0x027E [0x00] END_REQSTACK()
```

#### Data or dead code:

```
# Dead code (unreachable instructions):
     0x0154 [0x00] END_REQSTACK()
     0x0155 [0x00] END_REQSTACK()
     0x0156 [0x00] END_REQSTACK()
     0x0157 [0x00] END_REQSTACK()
     0x0158 [0x1D] PRINT_EVENT_MESSAGE(message_id=12312*)
    → "Those men and women wondering how their deeds are mirrored in the minds of the locals should meander over to this gossip-meister to muster up important material on their respective reputations."
     0x015B [0x23] WAIT_FOR_DIALOG_INTERACTION
     0x015C [0x1C] WAIT(30* ticks)
     0x015F [0x8A] CLOSE_MAP()
     0x0160 [0x1C] WAIT(30* ticks)
     0x0163 [0x1D] PRINT_EVENT_MESSAGE(message_id=12316*)
    → "Now I shall move to Northern San d'Oria."
     0x0166 [0x23] WAIT_FOR_DIALOG_INTERACTION
     0x0167 [0x1C] WAIT(60* ticks)
     0x016A [0x89] OPEN_MAP(map_id=0x00008010)
     0x016D [0x1C] WAIT(30* ticks)
     0x0170 [0x8B] SET_EVENT_MARK: Add/update map marker on map 231* at (-247.296*, 29.015*), index=1*, name=(no name)
     0x0179 [0x49] Unknown NPC (ID: 1734962541/0x67696D6D) (No speaker name) [0x6172]:
     0x0180 [0x74] EventEntity->Render.Flags1 |= 0x69
     0x0182 [0x6F] WAIT_FRAME_DELAY: Yield until WaitTime reaches zero
     0x0183 [0x6E] Unknown NPC (ID: 0/0x00000000) uses emote 0x1D00
     0x018A [0x26] DEPRECATED_YIELD
     0x018B [0x80] LOAD_WAIT(entity=Unknown NPC (ID: 2147949603/0x80071C23))
     0x0190 [0x8B] SET_EVENT_MARK: Add/update map marker on map 231* at (109.813*, -4.881*), index=2*, name=(no name)
     0x0199 [0x54] WAIT_MAP_SCHEDULER: Wait for scheduler "tion" with entities [Unknown NPC (ID: 1885695077/0x70656C65), Unknown NPC (ID: 1635021423/0x6174726F)]
     0x01A6 [0x00] END_REQSTACK()
     0x01A7 [0x00] END_REQSTACK()
     0x01A8 [0x00] END_REQSTACK()
     0x01A9 [0x1D] PRINT_EVENT_MESSAGE(message_id=12309*)
    → "Here, you may meet with a member of the Specialty Goods Trade Union. And, if you are a citizen of this mighty dominion, he'll teleport you all across Vana'diel (for a menial amount of monetary remuneration)."
     0x01AC [0x23] WAIT_FOR_DIALOG_INTERACTION
     0x01AD [0x1C] WAIT(30* ticks)
     0x01B0 [0x8B] SET_EVENT_MARK: Add/update map marker on map 231* at (-92.835*, 58.215*), index=6*, name=(no name)
     0x01B9 [0x41] 0x6F70 = 0x6544 (bits 0x6D72-0x726F)
     0x01C2 [0x73] Unknown NPC (ID: 7959151/0x0079726F) casts magic 0x7469 on Unknown NPC (ID: 595602461/0x23802C1D)
     0x01CD [0x1C] WAIT(30* ticks)
     0x01D0 [0x8B] SET_EVENT_MARK: Add/update map marker on map 231* at (13.157*, -19.835*), index=7*, name=(no name)
     0x01D9 [0x4D] EventEntity->StatusEvent = 9 // Close door
     0x01DA [0x65] CALCULATE_3D_DISTANCE(result=0x6F6C, entity1=Unknown NPC (ID: 1298102628/0x4D5F7964), entity2=Unknown NPC (ID: 1953721961/0x74736E69))
     0x01E5 [0x72] LOAD_EVENT_WEATHER: Unknown mode 101, weather_id=0x6C
     0x01E9 [0x1D] PRINT_EVENT_MESSAGE(message_id=12307*)
    → "Our local minstrel of melodies can be found here. His mirthful musicalities may help you recall misplaced memories."
     0x01EC [0x23] WAIT_FOR_DIALOG_INTERACTION
     0x01ED [0x1C] WAIT(30* ticks)
     0x01F0 [0x8B] SET_EVENT_MARK: Add/update map marker on map 231* at (54.031*, 12.045*), index=8*, name=(no name)
     0x01F9 [0x50] END_SCHEDULER_TASK: End scheduler "t" with entities [0x7275, 0x7669], work=[30067, 28257]
     0x0206 [0x00] END_REQSTACK()
     0x0207 [0x00] END_REQSTACK()
     0x0208 [0x00] END_REQSTACK()
     0x0209 [0x1D] PRINT_EVENT_MESSAGE(message_id=12306*)
    → "And mayhap you are immeasurably motivated to compete in the medieval mayhem of Conflict? Might I suggest you mingle with the modest Pursuivant located here?"
     0x020C [0x23] WAIT_FOR_DIALOG_INTERACTION
     0x020D [0x1C] WAIT(30* ticks)
     0x0210 [0x8A] CLOSE_MAP()
     0x0211 [0x1C] WAIT(30* ticks)
     0x0214 [0x1D] PRINT_EVENT_MESSAGE(message_id=12317*)
    → "And last, but not least, let me mark your map for Port San d'Oria."
     0x0217 [0x23] WAIT_FOR_DIALOG_INTERACTION
     0x0218 [0x1C] WAIT(60* ticks)
     0x021B [0x89] OPEN_MAP(map_id=0x00008011)
     0x021E [0x1C] WAIT(30* ticks)
     0x0221 [0x8B] SET_EVENT_MARK: Add/update map marker on map 232* at (71.682*, -137.002*), index=4*, name=(no name)
     0x022A [0x47] WAIT_PLAYER_POS_UPDATE
     0x022C [0x6C] FADE_ENTITY_COLOR(entity_id=Unknown NPC (ID: 1867997028/0x6F575F64), end_alpha=0x6C72, fade_time=0x5F64)
     0x0235 [0x50] END_SCHEDULER_TASK: End scheduler 0x0000071C with entities [0x7361, 0x351D], work=[115, 9088]
     0x0242 [0x11] 0x0C80 >>= 0x3680
     0x0247 [0x80] LOAD_WAIT(entity=Unknown NPC (ID: 1699577911/0x654D8037))
     0x024C [0x6C] FADE_ENTITY_COLOR(entity_id=Unknown NPC (ID: 1601791087/0x5F79646F), end_alpha=0x694D, fade_time=0x736E)
     0x0255 [0x74] EventEntity->Render.Flags1 |= 0x72
     0x0257 [0x65] CALCULATE_3D_DISTANCE(result=0x6C, entity1=Unknown NPC (ID: 595597597/0x2380191D), entity2=Unknown NPC (ID: 2323646236/0x8A80071C))
     0x0262 [0x1C] WAIT(30* ticks)
     0x0265 [0x03] Work_Zone[2] = 385*
     0x026A [0x1D] PRINT_EVENT_MESSAGE(message_id=12300*)
    → "Methinks I have marked your map with as many marks as I might manage."
     0x026D [0x23] WAIT_FOR_DIALOG_INTERACTION
     0x026E [0x1D] PRINT_EVENT_MESSAGE(message_id=12301*)
    → "Monitoring and managing your marks is as simple as merely opening your map and selecting Markers from the main menu."
     0x0271 [0x23] WAIT_FOR_DIALOG_INTERACTION
     0x0272 [0x1D] PRINT_EVENT_MESSAGE(message_id=12302*)
    → "If the marks on your map might vanish, mope not like a melancholy milksop. Make another meeting with me and I shall make it my mission to mark the map once more."
     0x0275 [0x23] WAIT_FOR_DIALOG_INTERACTION
     0x0276 [0x1D] PRINT_EVENT_MESSAGE(message_id=12303*)
    → "Good day, [milord/milady]. May your marches across meadow and mountain be markedly memorable!"
     0x0279 [0x23] WAIT_FOR_DIALOG_INTERACTION
     0x027A [0x01] GOTO 0x027D
```

### Event 864

#### Metadata

| Field        | Value    |
|--------------|----------|
| Entrypoint   | 0x027F   |
| Data Size    | 22 bytes |
| Instructions | 9        |

```
      00 01 02 03 04 05 06 07  08 09 0A 0B 0C 0D 0E 0F
      -- -- -- -- -- -- -- --  -- -- -- -- -- -- -- --
0270:                                               20                  
0280: 01 1E F0 FF FF 7F 1D 00  80 23 03 02 10 01 80 1D  .........#......
0290: 3C 80 23 21 00                                    <.#!.           
```

#### Opcodes

```
  0: 0x027F [0x20] SET_CLI_EVENT_UC_FLAG: Lock player control
  1: 0x0281 [0x1E] EventEntity looks at LocalPlayer and starts talking
  2: 0x0286 [0x1D] PRINT_EVENT_MESSAGE(message_id=12296*)
    → "Good day! I'm a Merry Map Marker, and I'd be emphatically ecstatic if you'd allow me to mark your magical map!"
  3: 0x0289 [0x23] WAIT_FOR_DIALOG_INTERACTION
  4: 0x028A [0x03] Work_Zone[2] = 385*
  5: 0x028F [0x1D] PRINT_EVENT_MESSAGE(message_id=12295*)
    → "Well met! I'm a Merry Map Marker, and I'd love to make marks all over your merry $3, but it appears you are missing the markable map I mention."
  6: 0x0292 [0x23] WAIT_FOR_DIALOG_INTERACTION
  7: 0x0293 [0x21] END_EVENT
  8: 0x0294 [0x00] END_REQSTACK()
```
