# 17719322 - Sobane

## Common Data

| Field            | Value                         |
|------------------|-------------------------------|
| Zone             | Southern San d'Oria (ID: 230) |
| Block Size       | 1116 bytes                    |
| Total Events     | 47                            |
| References Count | 31                            |

## List of Events

| Event ID                   | Entrypoint   |   Size |   Instructions |
|----------------------------|--------------|--------|----------------|
| [65535](#event-65535)      | 0x0000       |      1 |              1 |
| [52](#event-52)            | 0x0001       |     22 |             10 |
| [65535.1](#event-655351)   | 0x0017       |     16 |              2 |
| [65535.2](#event-655352)   | 0x0027       |     22 |              4 |
| [65535.3](#event-655353)   | 0x003D       |     16 |              2 |
| [65535.4](#event-655354)   | 0x004D       |     14 |              2 |
| [65535.5](#event-655355)   | 0x005B       |     16 |              2 |
| [65535.6](#event-655356)   | 0x006B       |     14 |              2 |
| [65535.7](#event-655357)   | 0x0079       |     16 |              2 |
| [65535.8](#event-655358)   | 0x0089       |     14 |              2 |
| [65535.9](#event-655359)   | 0x0097       |     16 |              2 |
| [65535.10](#event-6553510) | 0x00A7       |     14 |              2 |
| [65535.11](#event-6553511) | 0x00B5       |     16 |              2 |
| [65535.12](#event-6553512) | 0x00C5       |     14 |              2 |
| [65535.13](#event-6553513) | 0x00D3       |     16 |              2 |
| [65535.14](#event-6553514) | 0x00E3       |     14 |              2 |
| [65535.15](#event-6553515) | 0x00F1       |     16 |              2 |
| [65535.16](#event-6553516) | 0x0101       |     14 |              2 |
| [65535.17](#event-6553517) | 0x010F       |     16 |              2 |
| [65535.18](#event-6553518) | 0x011F       |     14 |              2 |
| [65535.19](#event-6553519) | 0x012D       |     16 |              2 |
| [65535.20](#event-6553520) | 0x013D       |     14 |              2 |
| [65535.21](#event-6553521) | 0x014B       |     16 |              2 |
| [65535.22](#event-6553522) | 0x015B       |     14 |              2 |
| [65535.23](#event-6553523) | 0x0169       |     16 |              2 |
| [65535.24](#event-6553524) | 0x0179       |     14 |              2 |
| [65535.25](#event-6553525) | 0x0187       |     16 |              2 |
| [65535.26](#event-6553526) | 0x0197       |     14 |              2 |
| [65535.27](#event-6553527) | 0x01A5       |     16 |              2 |
| [65535.28](#event-6553528) | 0x01B5       |     14 |              2 |
| [65535.29](#event-6553529) | 0x01C3       |     16 |              2 |
| [65535.30](#event-6553530) | 0x01D3       |     14 |              2 |
| [65535.31](#event-6553531) | 0x01E1       |     16 |              2 |
| [65535.32](#event-6553532) | 0x01F1       |     14 |              2 |
| [732](#event-732)          | 0x01FF       |      1 |              1 |
| [733](#event-733)          | 0x0200       |     33 |             12 |
| [734](#event-734)          | 0x0221       |      1 |              1 |
| [65535.33](#event-6553533) | 0x0222       |     10 |              2 |
| [65535.34](#event-6553534) | 0x022C       |     15 |              5 |
| [735](#event-735)          | 0x023B       |     71 |             18 |
| [736](#event-736)          | 0x0282       |      1 |              1 |
| [65535.35](#event-6553535) | 0x0283       |     15 |              5 |
| [737](#event-737)          | 0x0292       |     33 |             12 |
| [738](#event-738)          | 0x02B3       |      1 |              1 |
| [739](#event-739)          | 0x02B4       |     65 |             18 |
| [740](#event-740)          | 0x02F5       |      1 |              1 |
| [741](#event-741)          | 0x02F6       |     29 |             10 |

## DAT References (imed_data)

|   Index | Hex Value   |   Dec Value |
|---------|-------------|-------------|
|       0 | 0x00E9      |         233 |
|       1 | 0x242A      |        9258 |
|       2 | 0x242B      |        9259 |
|       3 | 0x001E      |          30 |
|       4 | 0x003C      |          60 |
|       5 | 0x0021      |          33 |
|       6 | 0x001F      |          31 |
|       7 | 0x0020      |          32 |
|       8 | 0x2631      |        9777 |
|       9 | 0x2637      |        9783 |
|      10 | 0xFFFD1D97  |  4294778263 |
|      11 | 0x18352     |       99154 |
|      12 | 0xFFFFF47B  |  4294964347 |
|      13 | 0x034D      |         845 |
|      14 | 0x000D      |          13 |
|      15 | 0xFFFD1CB9  |  4294778041 |
|      16 | 0x187D7     |      100311 |
|      17 | 0xFFFFF467  |  4294964327 |
|      18 | 0x264D      |        9805 |
|      19 | 0x264E      |        9806 |
|      20 | 0x264F      |        9807 |
|      21 | 0x2650      |        9808 |
|      22 | 0xFFFD1953  |  4294777171 |
|      23 | 0x187AC     |      100268 |
|      24 | 0xFFFFF46F  |  4294964335 |
|      25 | 0x265B      |        9819 |
|      26 | 0x265D      |        9821 |
|      27 | 0x267B      |        9851 |
|      28 | 0x267C      |        9852 |
|      29 | 0x267D      |        9853 |
|      30 | 0x268A      |        9866 |

## String References

- **9258**: What does one use to sharpen a knife? Why, have you never heard of $6?
- **9259**: In Ordelle's Caves there lies a place with a hole above, where blows a cool breeze. There may you find $6, which makes a blade cut meat like butter!
- **9777**: Should you decide to take up my request, would you be willing to swear a blood oath?
- **9783**: As proof of your oath, I ask that you bring me $1.
- **9819**: Things are far worse than I feared. Hearing of the involvement of Atarefaunet's Band fills me with dread.
- **9821**: Stay on your guard, <Player>. And please, do not speak a word of this to anyone.
- **9851**: I wonder if Sir Louverance is the one threatening Count Teulomme, as my husband suggests.
- **9852**: The criminal has said that he can be contacted through one of the Tonberries of Carpenters' Landing.
- **9853**: <Player>. Please help me to uncover the truth.
- **9866**: I must extend my thanks to you as well, <Player>. Hopefully, Sir Louverance will now at least be aware of the threat to his life.

## Events

### Event 65535

#### Metadata

| Field        | Value   |
|--------------|---------|
| Entrypoint   | 0x0000  |
| Data Size    | 1 bytes |
| Instructions | 1       |

```
      00 01 02 03 04 05 06 07  08 09 0A 0B 0C 0D 0E 0F
      -- -- -- -- -- -- -- --  -- -- -- -- -- -- -- --
0000: 00                                                .               
```

#### Opcodes

```
  0: 0x0000 [0x00] END_REQSTACK()
```

### Event 52

#### Metadata

| Field        | Value    |
|--------------|----------|
| Entrypoint   | 0x0001   |
| Data Size    | 22 bytes |
| Instructions | 10       |

```
      00 01 02 03 04 05 06 07  08 09 0A 0B 0C 0D 0E 0F
      -- -- -- -- -- -- -- --  -- -- -- -- -- -- -- --
0000:    1E F0 FF FF 7F 6F 70  03 02 10 00 80 1D 01 80   .....op........
0010: 23 1D 02 80 23 21 00                              #...#!.         
```

#### Opcodes

```
  0: 0x0001 [0x1E] EventEntity looks at LocalPlayer and starts talking
  1: 0x0006 [0x6F] WAIT_FRAME_DELAY: Yield until WaitTime reaches zero
  2: 0x0007 [0x70] WAIT_ENTITY_RENDER_FLAG: Wait while EventEntity->Render.Flags3 bit 2 is set (cancel turn if not)
  3: 0x0008 [0x03] Work_Zone[2] = 233*
  4: 0x000D [0x1D] PRINT_EVENT_MESSAGE(message_id=9258*)
    → "What does one use to sharpen a knife? Why, have you never heard of $6?"
  5: 0x0010 [0x23] WAIT_FOR_DIALOG_INTERACTION
  6: 0x0011 [0x1D] PRINT_EVENT_MESSAGE(message_id=9259*)
    → "In Ordelle's Caves there lies a place with a hole above, where blows a cool breeze. There may you find $6, which makes a blade cut meat like butter!"
  7: 0x0014 [0x23] WAIT_FOR_DIALOG_INTERACTION
  8: 0x0015 [0x21] END_EVENT
  9: 0x0016 [0x00] END_REQSTACK()
```

### Event 65535.1

#### Metadata

| Field        | Value    |
|--------------|----------|
| Entrypoint   | 0x0017   |
| Data Size    | 16 bytes |
| Instructions | 2        |

```
      00 01 02 03 04 05 06 07  08 09 0A 0B 0C 0D 0E 0F
      -- -- -- -- -- -- -- --  -- -- -- -- -- -- -- --
0010:                      66  03 80 F8 FF FF 7F F8 FF         f........
0020: FF 7F 74 6C 6B 30 00                              ..tlk0.         
```

#### Opcodes

```
  0: 0x0017 [0x66] LOAD_EXT_SCHEDULER_MAIN: Load scheduler "tlk0" with entities [EventEntity, EventEntity], work=30*
  1: 0x0026 [0x00] END_REQSTACK()
```

### Event 65535.2

#### Metadata

| Field        | Value    |
|--------------|----------|
| Entrypoint   | 0x0027   |
| Data Size    | 22 bytes |
| Instructions | 4        |

```
      00 01 02 03 04 05 06 07  08 09 0A 0B 0C 0D 0E 0F
      -- -- -- -- -- -- -- --  -- -- -- -- -- -- -- --
0020:                      53  F8 FF FF 7F F8 FF FF 7F         S........
0030: 74 6C 6B 30 5E 69 64 6C  30 1C 04 80 00           tlk0^idl0....   
```

#### Opcodes

```
  0: 0x0027 [0x53] WAIT_SCHEDULER_TASK: Wait for scheduler "tlk0" with entities [EventEntity, EventEntity]
  1: 0x0034 [0x5E] EventEntity goes idle (kills current action) (animation: "idl0")
  2: 0x0039 [0x1C] WAIT(60* ticks)
  3: 0x003C [0x00] END_REQSTACK()
```

### Event 65535.3

#### Metadata

| Field        | Value    |
|--------------|----------|
| Entrypoint   | 0x003D   |
| Data Size    | 16 bytes |
| Instructions | 2        |

```
      00 01 02 03 04 05 06 07  08 09 0A 0B 0C 0D 0E 0F
      -- -- -- -- -- -- -- --  -- -- -- -- -- -- -- --
0030:                                         66 05 80               f..
0040: F8 FF FF 7F F8 FF FF 7F  74 6C 62 30 00           ........tlb0.   
```

#### Opcodes

```
  0: 0x003D [0x66] LOAD_EXT_SCHEDULER_MAIN: Load scheduler "tlb0" with entities [EventEntity, EventEntity], work=33*
  1: 0x004C [0x00] END_REQSTACK()
```

### Event 65535.4

#### Metadata

| Field        | Value    |
|--------------|----------|
| Entrypoint   | 0x004D   |
| Data Size    | 14 bytes |
| Instructions | 2        |

```
      00 01 02 03 04 05 06 07  08 09 0A 0B 0C 0D 0E 0F
      -- -- -- -- -- -- -- --  -- -- -- -- -- -- -- --
0040:                                         53 F8 FF               S..
0050: FF 7F F8 FF FF 7F 74 6C  62 30 00                 ......tlb0.     
```

#### Opcodes

```
  0: 0x004D [0x53] WAIT_SCHEDULER_TASK: Wait for scheduler "tlb0" with entities [EventEntity, EventEntity]
  1: 0x005A [0x00] END_REQSTACK()
```

### Event 65535.5

#### Metadata

| Field        | Value    |
|--------------|----------|
| Entrypoint   | 0x005B   |
| Data Size    | 16 bytes |
| Instructions | 2        |

```
      00 01 02 03 04 05 06 07  08 09 0A 0B 0C 0D 0E 0F
      -- -- -- -- -- -- -- --  -- -- -- -- -- -- -- --
0050:                                   66 05 80 F8 FF             f....
0060: FF 7F F8 FF FF 7F 74 6C  62 31 00                 ......tlb1.     
```

#### Opcodes

```
  0: 0x005B [0x66] LOAD_EXT_SCHEDULER_MAIN: Load scheduler "tlb1" with entities [EventEntity, EventEntity], work=33*
  1: 0x006A [0x00] END_REQSTACK()
```

### Event 65535.6

#### Metadata

| Field        | Value    |
|--------------|----------|
| Entrypoint   | 0x006B   |
| Data Size    | 14 bytes |
| Instructions | 2        |

```
      00 01 02 03 04 05 06 07  08 09 0A 0B 0C 0D 0E 0F
      -- -- -- -- -- -- -- --  -- -- -- -- -- -- -- --
0060:                                   53 F8 FF FF 7F             S....
0070: F8 FF FF 7F 74 6C 62 31  00                       ....tlb1.       
```

#### Opcodes

```
  0: 0x006B [0x53] WAIT_SCHEDULER_TASK: Wait for scheduler "tlb1" with entities [EventEntity, EventEntity]
  1: 0x0078 [0x00] END_REQSTACK()
```

### Event 65535.7

#### Metadata

| Field        | Value    |
|--------------|----------|
| Entrypoint   | 0x0079   |
| Data Size    | 16 bytes |
| Instructions | 2        |

```
      00 01 02 03 04 05 06 07  08 09 0A 0B 0C 0D 0E 0F
      -- -- -- -- -- -- -- --  -- -- -- -- -- -- -- --
0070:                             66 03 80 F8 FF FF 7F           f......
0080: F8 FF FF 7F 74 68 6B 31  00                       ....thk1.       
```

#### Opcodes

```
  0: 0x0079 [0x66] LOAD_EXT_SCHEDULER_MAIN: Load scheduler "thk1" with entities [EventEntity, EventEntity], work=30*
  1: 0x0088 [0x00] END_REQSTACK()
```

### Event 65535.8

#### Metadata

| Field        | Value    |
|--------------|----------|
| Entrypoint   | 0x0089   |
| Data Size    | 14 bytes |
| Instructions | 2        |

```
      00 01 02 03 04 05 06 07  08 09 0A 0B 0C 0D 0E 0F
      -- -- -- -- -- -- -- --  -- -- -- -- -- -- -- --
0080:                             53 F8 FF FF 7F F8 FF           S......
0090: FF 7F 74 68 6B 31 00                              ..thk1.         
```

#### Opcodes

```
  0: 0x0089 [0x53] WAIT_SCHEDULER_TASK: Wait for scheduler "thk1" with entities [EventEntity, EventEntity]
  1: 0x0096 [0x00] END_REQSTACK()
```

### Event 65535.9

#### Metadata

| Field        | Value    |
|--------------|----------|
| Entrypoint   | 0x0097   |
| Data Size    | 16 bytes |
| Instructions | 2        |

```
      00 01 02 03 04 05 06 07  08 09 0A 0B 0C 0D 0E 0F
      -- -- -- -- -- -- -- --  -- -- -- -- -- -- -- --
0090:                      66  03 80 F8 FF FF 7F F8 FF         f........
00A0: FF 7F 74 68 6B 32 00                              ..thk2.         
```

#### Opcodes

```
  0: 0x0097 [0x66] LOAD_EXT_SCHEDULER_MAIN: Load scheduler "thk2" with entities [EventEntity, EventEntity], work=30*
  1: 0x00A6 [0x00] END_REQSTACK()
```

### Event 65535.10

#### Metadata

| Field        | Value    |
|--------------|----------|
| Entrypoint   | 0x00A7   |
| Data Size    | 14 bytes |
| Instructions | 2        |

```
      00 01 02 03 04 05 06 07  08 09 0A 0B 0C 0D 0E 0F
      -- -- -- -- -- -- -- --  -- -- -- -- -- -- -- --
00A0:                      53  F8 FF FF 7F F8 FF FF 7F         S........
00B0: 74 68 6B 32 00                                    thk2.           
```

#### Opcodes

```
  0: 0x00A7 [0x53] WAIT_SCHEDULER_TASK: Wait for scheduler "thk2" with entities [EventEntity, EventEntity]
  1: 0x00B4 [0x00] END_REQSTACK()
```

### Event 65535.11

#### Metadata

| Field        | Value    |
|--------------|----------|
| Entrypoint   | 0x00B5   |
| Data Size    | 16 bytes |
| Instructions | 2        |

```
      00 01 02 03 04 05 06 07  08 09 0A 0B 0C 0D 0E 0F
      -- -- -- -- -- -- -- --  -- -- -- -- -- -- -- --
00B0:                66 03 80  F8 FF FF 7F F8 FF FF 7F       f..........
00C0: 64 69 73 30 00                                    dis0.           
```

#### Opcodes

```
  0: 0x00B5 [0x66] LOAD_EXT_SCHEDULER_MAIN: Load scheduler "dis0" with entities [EventEntity, EventEntity], work=30*
  1: 0x00C4 [0x00] END_REQSTACK()
```

### Event 65535.12

#### Metadata

| Field        | Value    |
|--------------|----------|
| Entrypoint   | 0x00C5   |
| Data Size    | 14 bytes |
| Instructions | 2        |

```
      00 01 02 03 04 05 06 07  08 09 0A 0B 0C 0D 0E 0F
      -- -- -- -- -- -- -- --  -- -- -- -- -- -- -- --
00C0:                53 F8 FF  FF 7F F8 FF FF 7F 64 69       S........di
00D0: 73 30 00                                          s0.             
```

#### Opcodes

```
  0: 0x00C5 [0x53] WAIT_SCHEDULER_TASK: Wait for scheduler "dis0" with entities [EventEntity, EventEntity]
  1: 0x00D2 [0x00] END_REQSTACK()
```

### Event 65535.13

#### Metadata

| Field        | Value    |
|--------------|----------|
| Entrypoint   | 0x00D3   |
| Data Size    | 16 bytes |
| Instructions | 2        |

```
      00 01 02 03 04 05 06 07  08 09 0A 0B 0C 0D 0E 0F
      -- -- -- -- -- -- -- --  -- -- -- -- -- -- -- --
00D0:          66 03 80 F8 FF  FF 7F F8 FF FF 7F 70 6F     f..........po
00E0: 69 30 00                                          i0.             
```

#### Opcodes

```
  0: 0x00D3 [0x66] LOAD_EXT_SCHEDULER_MAIN: Load scheduler "poi0" with entities [EventEntity, EventEntity], work=30*
  1: 0x00E2 [0x00] END_REQSTACK()
```

### Event 65535.14

#### Metadata

| Field        | Value    |
|--------------|----------|
| Entrypoint   | 0x00E3   |
| Data Size    | 14 bytes |
| Instructions | 2        |

```
      00 01 02 03 04 05 06 07  08 09 0A 0B 0C 0D 0E 0F
      -- -- -- -- -- -- -- --  -- -- -- -- -- -- -- --
00E0:          53 F8 FF FF 7F  F8 FF FF 7F 70 6F 69 30     S........poi0
00F0: 00                                                .               
```

#### Opcodes

```
  0: 0x00E3 [0x53] WAIT_SCHEDULER_TASK: Wait for scheduler "poi0" with entities [EventEntity, EventEntity]
  1: 0x00F0 [0x00] END_REQSTACK()
```

### Event 65535.15

#### Metadata

| Field        | Value    |
|--------------|----------|
| Entrypoint   | 0x00F1   |
| Data Size    | 16 bytes |
| Instructions | 2        |

```
      00 01 02 03 04 05 06 07  08 09 0A 0B 0C 0D 0E 0F
      -- -- -- -- -- -- -- --  -- -- -- -- -- -- -- --
00F0:    66 03 80 F8 FF FF 7F  F8 FF FF 7F 70 6F 69 31   f..........poi1
0100: 00                                                .               
```

#### Opcodes

```
  0: 0x00F1 [0x66] LOAD_EXT_SCHEDULER_MAIN: Load scheduler "poi1" with entities [EventEntity, EventEntity], work=30*
  1: 0x0100 [0x00] END_REQSTACK()
```

### Event 65535.16

#### Metadata

| Field        | Value    |
|--------------|----------|
| Entrypoint   | 0x0101   |
| Data Size    | 14 bytes |
| Instructions | 2        |

```
      00 01 02 03 04 05 06 07  08 09 0A 0B 0C 0D 0E 0F
      -- -- -- -- -- -- -- --  -- -- -- -- -- -- -- --
0100:    53 F8 FF FF 7F F8 FF  FF 7F 70 6F 69 31 00      S........poi1. 
```

#### Opcodes

```
  0: 0x0101 [0x53] WAIT_SCHEDULER_TASK: Wait for scheduler "poi1" with entities [EventEntity, EventEntity]
  1: 0x010E [0x00] END_REQSTACK()
```

### Event 65535.17

#### Metadata

| Field        | Value    |
|--------------|----------|
| Entrypoint   | 0x010F   |
| Data Size    | 16 bytes |
| Instructions | 2        |

```
      00 01 02 03 04 05 06 07  08 09 0A 0B 0C 0D 0E 0F
      -- -- -- -- -- -- -- --  -- -- -- -- -- -- -- --
0100:                                               66                 f
0110: 06 80 F8 FF FF 7F F8 FF  FF 7F 77 65 62 30 00     ..........web0. 
```

#### Opcodes

```
  0: 0x010F [0x66] LOAD_EXT_SCHEDULER_MAIN: Load scheduler "web0" with entities [EventEntity, EventEntity], work=31*
  1: 0x011E [0x00] END_REQSTACK()
```

### Event 65535.18

#### Metadata

| Field        | Value    |
|--------------|----------|
| Entrypoint   | 0x011F   |
| Data Size    | 14 bytes |
| Instructions | 2        |

```
      00 01 02 03 04 05 06 07  08 09 0A 0B 0C 0D 0E 0F
      -- -- -- -- -- -- -- --  -- -- -- -- -- -- -- --
0110:                                               53                 S
0120: F8 FF FF 7F F8 FF FF 7F  77 65 62 30 00           ........web0.   
```

#### Opcodes

```
  0: 0x011F [0x53] WAIT_SCHEDULER_TASK: Wait for scheduler "web0" with entities [EventEntity, EventEntity]
  1: 0x012C [0x00] END_REQSTACK()
```

### Event 65535.19

#### Metadata

| Field        | Value    |
|--------------|----------|
| Entrypoint   | 0x012D   |
| Data Size    | 16 bytes |
| Instructions | 2        |

```
      00 01 02 03 04 05 06 07  08 09 0A 0B 0C 0D 0E 0F
      -- -- -- -- -- -- -- --  -- -- -- -- -- -- -- --
0120:                                         66 03 80               f..
0130: F8 FF FF 7F F8 FF FF 7F  70 61 73 30 00           ........pas0.   
```

#### Opcodes

```
  0: 0x012D [0x66] LOAD_EXT_SCHEDULER_MAIN: Load scheduler "pas0" with entities [EventEntity, EventEntity], work=30*
  1: 0x013C [0x00] END_REQSTACK()
```

### Event 65535.20

#### Metadata

| Field        | Value    |
|--------------|----------|
| Entrypoint   | 0x013D   |
| Data Size    | 14 bytes |
| Instructions | 2        |

```
      00 01 02 03 04 05 06 07  08 09 0A 0B 0C 0D 0E 0F
      -- -- -- -- -- -- -- --  -- -- -- -- -- -- -- --
0130:                                         53 F8 FF               S..
0140: FF 7F F8 FF FF 7F 70 61  73 30 00                 ......pas0.     
```

#### Opcodes

```
  0: 0x013D [0x53] WAIT_SCHEDULER_TASK: Wait for scheduler "pas0" with entities [EventEntity, EventEntity]
  1: 0x014A [0x00] END_REQSTACK()
```

### Event 65535.21

#### Metadata

| Field        | Value    |
|--------------|----------|
| Entrypoint   | 0x014B   |
| Data Size    | 16 bytes |
| Instructions | 2        |

```
      00 01 02 03 04 05 06 07  08 09 0A 0B 0C 0D 0E 0F
      -- -- -- -- -- -- -- --  -- -- -- -- -- -- -- --
0140:                                   66 07 80 F8 FF             f....
0150: FF 7F F8 FF FF 7F 73 74  64 30 00                 ......std0.     
```

#### Opcodes

```
  0: 0x014B [0x66] LOAD_EXT_SCHEDULER_MAIN: Load scheduler "std0" with entities [EventEntity, EventEntity], work=32*
  1: 0x015A [0x00] END_REQSTACK()
```

### Event 65535.22

#### Metadata

| Field        | Value    |
|--------------|----------|
| Entrypoint   | 0x015B   |
| Data Size    | 14 bytes |
| Instructions | 2        |

```
      00 01 02 03 04 05 06 07  08 09 0A 0B 0C 0D 0E 0F
      -- -- -- -- -- -- -- --  -- -- -- -- -- -- -- --
0150:                                   53 F8 FF FF 7F             S....
0160: F8 FF FF 7F 73 74 64 30  00                       ....std0.       
```

#### Opcodes

```
  0: 0x015B [0x53] WAIT_SCHEDULER_TASK: Wait for scheduler "std0" with entities [EventEntity, EventEntity]
  1: 0x0168 [0x00] END_REQSTACK()
```

### Event 65535.23

#### Metadata

| Field        | Value    |
|--------------|----------|
| Entrypoint   | 0x0169   |
| Data Size    | 16 bytes |
| Instructions | 2        |

```
      00 01 02 03 04 05 06 07  08 09 0A 0B 0C 0D 0E 0F
      -- -- -- -- -- -- -- --  -- -- -- -- -- -- -- --
0160:                             66 07 80 F8 FF FF 7F           f......
0170: F8 FF FF 7F 73 74 64 31  00                       ....std1.       
```

#### Opcodes

```
  0: 0x0169 [0x66] LOAD_EXT_SCHEDULER_MAIN: Load scheduler "std1" with entities [EventEntity, EventEntity], work=32*
  1: 0x0178 [0x00] END_REQSTACK()
```

### Event 65535.24

#### Metadata

| Field        | Value    |
|--------------|----------|
| Entrypoint   | 0x0179   |
| Data Size    | 14 bytes |
| Instructions | 2        |

```
      00 01 02 03 04 05 06 07  08 09 0A 0B 0C 0D 0E 0F
      -- -- -- -- -- -- -- --  -- -- -- -- -- -- -- --
0170:                             53 F8 FF FF 7F F8 FF           S......
0180: FF 7F 73 74 64 31 00                              ..std1.         
```

#### Opcodes

```
  0: 0x0179 [0x53] WAIT_SCHEDULER_TASK: Wait for scheduler "std1" with entities [EventEntity, EventEntity]
  1: 0x0186 [0x00] END_REQSTACK()
```

### Event 65535.25

#### Metadata

| Field        | Value    |
|--------------|----------|
| Entrypoint   | 0x0187   |
| Data Size    | 16 bytes |
| Instructions | 2        |

```
      00 01 02 03 04 05 06 07  08 09 0A 0B 0C 0D 0E 0F
      -- -- -- -- -- -- -- --  -- -- -- -- -- -- -- --
0180:                      66  07 80 F8 FF FF 7F F8 FF         f........
0190: FF 7F 74 6C 63 30 00                              ..tlc0.         
```

#### Opcodes

```
  0: 0x0187 [0x66] LOAD_EXT_SCHEDULER_MAIN: Load scheduler "tlc0" with entities [EventEntity, EventEntity], work=32*
  1: 0x0196 [0x00] END_REQSTACK()
```

### Event 65535.26

#### Metadata

| Field        | Value    |
|--------------|----------|
| Entrypoint   | 0x0197   |
| Data Size    | 14 bytes |
| Instructions | 2        |

```
      00 01 02 03 04 05 06 07  08 09 0A 0B 0C 0D 0E 0F
      -- -- -- -- -- -- -- --  -- -- -- -- -- -- -- --
0190:                      53  F8 FF FF 7F F8 FF FF 7F         S........
01A0: 74 6C 63 30 00                                    tlc0.           
```

#### Opcodes

```
  0: 0x0197 [0x53] WAIT_SCHEDULER_TASK: Wait for scheduler "tlc0" with entities [EventEntity, EventEntity]
  1: 0x01A4 [0x00] END_REQSTACK()
```

### Event 65535.27

#### Metadata

| Field        | Value    |
|--------------|----------|
| Entrypoint   | 0x01A5   |
| Data Size    | 16 bytes |
| Instructions | 2        |

```
      00 01 02 03 04 05 06 07  08 09 0A 0B 0C 0D 0E 0F
      -- -- -- -- -- -- -- --  -- -- -- -- -- -- -- --
01A0:                66 07 80  F8 FF FF 7F F8 FF FF 7F       f..........
01B0: 74 6C 63 31 00                                    tlc1.           
```

#### Opcodes

```
  0: 0x01A5 [0x66] LOAD_EXT_SCHEDULER_MAIN: Load scheduler "tlc1" with entities [EventEntity, EventEntity], work=32*
  1: 0x01B4 [0x00] END_REQSTACK()
```

### Event 65535.28

#### Metadata

| Field        | Value    |
|--------------|----------|
| Entrypoint   | 0x01B5   |
| Data Size    | 14 bytes |
| Instructions | 2        |

```
      00 01 02 03 04 05 06 07  08 09 0A 0B 0C 0D 0E 0F
      -- -- -- -- -- -- -- --  -- -- -- -- -- -- -- --
01B0:                53 F8 FF  FF 7F F8 FF FF 7F 74 6C       S........tl
01C0: 63 31 00                                          c1.             
```

#### Opcodes

```
  0: 0x01B5 [0x53] WAIT_SCHEDULER_TASK: Wait for scheduler "tlc1" with entities [EventEntity, EventEntity]
  1: 0x01C2 [0x00] END_REQSTACK()
```

### Event 65535.29

#### Metadata

| Field        | Value    |
|--------------|----------|
| Entrypoint   | 0x01C3   |
| Data Size    | 16 bytes |
| Instructions | 2        |

```
      00 01 02 03 04 05 06 07  08 09 0A 0B 0C 0D 0E 0F
      -- -- -- -- -- -- -- --  -- -- -- -- -- -- -- --
01C0:          66 07 80 F8 FF  FF 7F F8 FF FF 7F 74 63     f..........tc
01D0: 73 74 00                                          st.             
```

#### Opcodes

```
  0: 0x01C3 [0x66] LOAD_EXT_SCHEDULER_MAIN: Load scheduler "tcst" with entities [EventEntity, EventEntity], work=32*
  1: 0x01D2 [0x00] END_REQSTACK()
```

### Event 65535.30

#### Metadata

| Field        | Value    |
|--------------|----------|
| Entrypoint   | 0x01D3   |
| Data Size    | 14 bytes |
| Instructions | 2        |

```
      00 01 02 03 04 05 06 07  08 09 0A 0B 0C 0D 0E 0F
      -- -- -- -- -- -- -- --  -- -- -- -- -- -- -- --
01D0:          53 F8 FF FF 7F  F8 FF FF 7F 74 63 73 74     S........tcst
01E0: 00                                                .               
```

#### Opcodes

```
  0: 0x01D3 [0x53] WAIT_SCHEDULER_TASK: Wait for scheduler "tcst" with entities [EventEntity, EventEntity]
  1: 0x01E0 [0x00] END_REQSTACK()
```

### Event 65535.31

#### Metadata

| Field        | Value    |
|--------------|----------|
| Entrypoint   | 0x01E1   |
| Data Size    | 16 bytes |
| Instructions | 2        |

```
      00 01 02 03 04 05 06 07  08 09 0A 0B 0C 0D 0E 0F
      -- -- -- -- -- -- -- --  -- -- -- -- -- -- -- --
01E0:    66 07 80 F8 FF FF 7F  F8 FF FF 7F 73 74 74 63   f..........sttc
01F0: 00                                                .               
```

#### Opcodes

```
  0: 0x01E1 [0x66] LOAD_EXT_SCHEDULER_MAIN: Load scheduler "sttc" with entities [EventEntity, EventEntity], work=32*
  1: 0x01F0 [0x00] END_REQSTACK()
```

### Event 65535.32

#### Metadata

| Field        | Value    |
|--------------|----------|
| Entrypoint   | 0x01F1   |
| Data Size    | 14 bytes |
| Instructions | 2        |

```
      00 01 02 03 04 05 06 07  08 09 0A 0B 0C 0D 0E 0F
      -- -- -- -- -- -- -- --  -- -- -- -- -- -- -- --
01F0:    53 F8 FF FF 7F F8 FF  FF 7F 73 74 74 63 00      S........sttc. 
```

#### Opcodes

```
  0: 0x01F1 [0x53] WAIT_SCHEDULER_TASK: Wait for scheduler "sttc" with entities [EventEntity, EventEntity]
  1: 0x01FE [0x00] END_REQSTACK()
```

### Event 732

#### Metadata

| Field        | Value   |
|--------------|---------|
| Entrypoint   | 0x01FF  |
| Data Size    | 1 bytes |
| Instructions | 1       |

```
      00 01 02 03 04 05 06 07  08 09 0A 0B 0C 0D 0E 0F
      -- -- -- -- -- -- -- --  -- -- -- -- -- -- -- --
01F0:                                               00                 .
```

#### Opcodes

```
  0: 0x01FF [0x00] END_REQSTACK()
```

### Event 733

#### Metadata

| Field        | Value    |
|--------------|----------|
| Entrypoint   | 0x0200   |
| Data Size    | 33 bytes |
| Instructions | 12       |

```
      00 01 02 03 04 05 06 07  08 09 0A 0B 0C 0D 0E 0F
      -- -- -- -- -- -- -- --  -- -- -- -- -- -- -- --
0200: 1E F0 FF FF 7F 6F 70 29  08 1A 60 0E 01 02 1D 08  .....op)..`.....
0210: 80 23 1D 09 80 23 29 08  1A 60 0E 01 03 20 00 21  .#...#)..`... .!
0220: 00                                                .               
```

#### Opcodes

```
  0: 0x0200 [0x1E] EventEntity looks at LocalPlayer and starts talking
  1: 0x0205 [0x6F] WAIT_FRAME_DELAY: Yield until WaitTime reaches zero
  2: 0x0206 [0x70] WAIT_ENTITY_RENDER_FLAG: Wait while EventEntity->Render.Flags3 bit 2 is set (cancel turn if not)
  3: 0x0207 [0x29] REQ_SET_WAIT(priority=0x08, entity_id=Sobane (ID: 17719322/0x010E601A), tag_num=0x02)
  4: 0x020E [0x1D] PRINT_EVENT_MESSAGE(message_id=9777*)
    → "Should you decide to take up my request, would you be willing to swear a blood oath?"
  5: 0x0211 [0x23] WAIT_FOR_DIALOG_INTERACTION
  6: 0x0212 [0x1D] PRINT_EVENT_MESSAGE(message_id=9783*)
    → "As proof of your oath, I ask that you bring me $1."
  7: 0x0215 [0x23] WAIT_FOR_DIALOG_INTERACTION
  8: 0x0216 [0x29] REQ_SET_WAIT(priority=0x08, entity_id=Sobane (ID: 17719322/0x010E601A), tag_num=0x03)
  9: 0x021D [0x20] SET_CLI_EVENT_UC_FLAG: Unlock player control
 10: 0x021F [0x21] END_EVENT
 11: 0x0220 [0x00] END_REQSTACK()
```

### Event 734

#### Metadata

| Field        | Value   |
|--------------|---------|
| Entrypoint   | 0x0221  |
| Data Size    | 1 bytes |
| Instructions | 1       |

```
      00 01 02 03 04 05 06 07  08 09 0A 0B 0C 0D 0E 0F
      -- -- -- -- -- -- -- --  -- -- -- -- -- -- -- --
0220:    00                                              .              
```

#### Opcodes

```
  0: 0x0221 [0x00] END_REQSTACK()
```

### Event 65535.33

#### Metadata

| Field        | Value    |
|--------------|----------|
| Entrypoint   | 0x0222   |
| Data Size    | 10 bytes |
| Instructions | 2        |

```
      00 01 02 03 04 05 06 07  08 09 0A 0B 0C 0D 0E 0F
      -- -- -- -- -- -- -- --  -- -- -- -- -- -- -- --
0220:       37 0A 80 0B 80 0C  80 0D 80 00                7.........    
```

#### Opcodes

```
  0: 0x0222 [0x37] UPDATE_EVENT_POSITION_AND_DIR: x=-189.033*, z=99.154*, y=-2.949*, direction=74.3°*
  1: 0x022B [0x00] END_REQSTACK()
```

### Event 65535.34

#### Metadata

| Field        | Value    |
|--------------|----------|
| Entrypoint   | 0x022C   |
| Data Size    | 15 bytes |
| Instructions | 5        |

```
      00 01 02 03 04 05 06 07  08 09 0A 0B 0C 0D 0E 0F
      -- -- -- -- -- -- -- --  -- -- -- -- -- -- -- --
0220:                                      32 0E 80 1F              2...
0230: 00 0F 80 10 80 11 80 1F  01 6F 00                 .........o.     
```

#### Opcodes

```
  0: 0x022C [0x32] ExtData[1]->MainSpeed = 13* * 0.1
  1: 0x022F [0x1F] MOVE_ENTITY: EventEntity moves to X=-189.255*, Z=100.311*, Y=-2.969*
  2: 0x0237 [0x1F] MOVE_ENTITY: Update entity position (mode=1)
  3: 0x0239 [0x6F] WAIT_FRAME_DELAY: Yield until WaitTime reaches zero
  4: 0x023A [0x00] END_REQSTACK()
```

### Event 735

#### Metadata

| Field        | Value    |
|--------------|----------|
| Entrypoint   | 0x023B   |
| Data Size    | 71 bytes |
| Instructions | 18       |

```
      00 01 02 03 04 05 06 07  08 09 0A 0B 0C 0D 0E 0F
      -- -- -- -- -- -- -- --  -- -- -- -- -- -- -- --
0230:                                   1E F0 FF FF 7F             .....
0240: 6F 70 29 08 1A 60 0E 01  08 2B 1A 60 0E 01 12 80  op)..`...+.`....
0250: 23 2B 1A 60 0E 01 13 80  23 29 08 1A 60 0E 01 09  #+.`....#)..`...
0260: 29 08 1A 60 0E 01 0A 2B  1A 60 0E 01 14 80 23 29  )..`...+.`....#)
0270: 08 1A 60 0E 01 0B 2B 1A  60 0E 01 15 80 23 20 00  ..`...+.`....# .
0280: 21 00                                             !.              
```

#### Opcodes

```
  0: 0x023B [0x1E] EventEntity looks at LocalPlayer and starts talking
  1: 0x0240 [0x6F] WAIT_FRAME_DELAY: Yield until WaitTime reaches zero
  2: 0x0241 [0x70] WAIT_ENTITY_RENDER_FLAG: Wait while EventEntity->Render.Flags3 bit 2 is set (cancel turn if not)
  3: 0x0242 [0x29] REQ_SET_WAIT(priority=0x08, entity_id=Sobane (ID: 17719322/0x010E601A), tag_num=0x08)
  4: 0x0249 [0x2B] Sobane (ID: 17719322/0x010E601A) [9805*]:
    → "Is Count Teulomme truly searching for the knight of Mistalle to cause him harm?"
  5: 0x0250 [0x23] WAIT_FOR_DIALOG_INTERACTION
  6: 0x0251 [0x2B] Sobane (ID: 17719322/0x010E601A) [9806*]:
    → "I ask that you find this knight and warn him of the danger he is in."
  7: 0x0258 [0x23] WAIT_FOR_DIALOG_INTERACTION
  8: 0x0259 [0x29] REQ_SET_WAIT(priority=0x08, entity_id=Sobane (ID: 17719322/0x010E601A), tag_num=0x09)
  9: 0x0260 [0x29] REQ_SET_WAIT(priority=0x08, entity_id=Sobane (ID: 17719322/0x010E601A), tag_num=0x0A)
 10: 0x0267 [0x2B] Sobane (ID: 17719322/0x010E601A) [9807*]:
    → "I know not where he presently resides..."
 11: 0x026E [0x23] WAIT_FOR_DIALOG_INTERACTION
 12: 0x026F [0x29] REQ_SET_WAIT(priority=0x08, entity_id=Sobane (ID: 17719322/0x010E601A), tag_num=0x0B)
 13: 0x0276 [0x2B] Sobane (ID: 17719322/0x010E601A) [9808*]:
    → "But it is possible his mother, the Lady Leffine, yet abides in the town of Selbina."
 14: 0x027D [0x23] WAIT_FOR_DIALOG_INTERACTION
 15: 0x027E [0x20] SET_CLI_EVENT_UC_FLAG: Unlock player control
 16: 0x0280 [0x21] END_EVENT
 17: 0x0281 [0x00] END_REQSTACK()
```

### Event 736

#### Metadata

| Field        | Value   |
|--------------|---------|
| Entrypoint   | 0x0282  |
| Data Size    | 1 bytes |
| Instructions | 1       |

```
      00 01 02 03 04 05 06 07  08 09 0A 0B 0C 0D 0E 0F
      -- -- -- -- -- -- -- --  -- -- -- -- -- -- -- --
0280:       00                                            .             
```

#### Opcodes

```
  0: 0x0282 [0x00] END_REQSTACK()
```

### Event 65535.35

#### Metadata

| Field        | Value    |
|--------------|----------|
| Entrypoint   | 0x0283   |
| Data Size    | 15 bytes |
| Instructions | 5        |

```
      00 01 02 03 04 05 06 07  08 09 0A 0B 0C 0D 0E 0F
      -- -- -- -- -- -- -- --  -- -- -- -- -- -- -- --
0280:          32 0E 80 1F 00  16 80 17 80 18 80 1F 01     2............
0290: 6F 00                                             o.              
```

#### Opcodes

```
  0: 0x0283 [0x32] ExtData[1]->MainSpeed = 13* * 0.1
  1: 0x0286 [0x1F] MOVE_ENTITY: EventEntity moves to X=-190.125*, Z=100.268*, Y=-2.961*
  2: 0x028E [0x1F] MOVE_ENTITY: Update entity position (mode=1)
  3: 0x0290 [0x6F] WAIT_FRAME_DELAY: Yield until WaitTime reaches zero
  4: 0x0291 [0x00] END_REQSTACK()
```

### Event 737

#### Metadata

| Field        | Value    |
|--------------|----------|
| Entrypoint   | 0x0292   |
| Data Size    | 33 bytes |
| Instructions | 12       |

```
      00 01 02 03 04 05 06 07  08 09 0A 0B 0C 0D 0E 0F
      -- -- -- -- -- -- -- --  -- -- -- -- -- -- -- --
0290:       1E F0 FF FF 7F 6F  70 1D 19 80 23 29 08 1A    .....op...#)..
02A0: 60 0E 01 02 1D 1A 80 23  29 08 1A 60 0E 01 03 20  `......#)..`... 
02B0: 00 21 00                                          .!.             
```

#### Opcodes

```
  0: 0x0292 [0x1E] EventEntity looks at LocalPlayer and starts talking
  1: 0x0297 [0x6F] WAIT_FRAME_DELAY: Yield until WaitTime reaches zero
  2: 0x0298 [0x70] WAIT_ENTITY_RENDER_FLAG: Wait while EventEntity->Render.Flags3 bit 2 is set (cancel turn if not)
  3: 0x0299 [0x1D] PRINT_EVENT_MESSAGE(message_id=9819*)
    → "Things are far worse than I feared. Hearing of the involvement of Atarefaunet's Band fills me with dread."
  4: 0x029C [0x23] WAIT_FOR_DIALOG_INTERACTION
  5: 0x029D [0x29] REQ_SET_WAIT(priority=0x08, entity_id=Sobane (ID: 17719322/0x010E601A), tag_num=0x02)
  6: 0x02A4 [0x1D] PRINT_EVENT_MESSAGE(message_id=9821*)
    → "Stay on your guard, <Player>. And please, do not speak a word of this to anyone."
  7: 0x02A7 [0x23] WAIT_FOR_DIALOG_INTERACTION
  8: 0x02A8 [0x29] REQ_SET_WAIT(priority=0x08, entity_id=Sobane (ID: 17719322/0x010E601A), tag_num=0x03)
  9: 0x02AF [0x20] SET_CLI_EVENT_UC_FLAG: Unlock player control
 10: 0x02B1 [0x21] END_EVENT
 11: 0x02B2 [0x00] END_REQSTACK()
```

### Event 738

#### Metadata

| Field        | Value   |
|--------------|---------|
| Entrypoint   | 0x02B3  |
| Data Size    | 1 bytes |
| Instructions | 1       |

```
      00 01 02 03 04 05 06 07  08 09 0A 0B 0C 0D 0E 0F
      -- -- -- -- -- -- -- --  -- -- -- -- -- -- -- --
02B0:          00                                          .            
```

#### Opcodes

```
  0: 0x02B3 [0x00] END_REQSTACK()
```

### Event 739

#### Metadata

| Field        | Value    |
|--------------|----------|
| Entrypoint   | 0x02B4   |
| Data Size    | 65 bytes |
| Instructions | 18       |

```
      00 01 02 03 04 05 06 07  08 09 0A 0B 0C 0D 0E 0F
      -- -- -- -- -- -- -- --  -- -- -- -- -- -- -- --
02B0:             1E F0 FF FF  7F 6F 70 29 08 1A 60 0E      .....op)..`.
02C0: 01 08 1D 1B 80 23 29 08  1A 60 0E 01 09 29 08 1A  .....#)..`...)..
02D0: 60 0E 01 0A 1D 1C 80 23  29 08 1A 60 0E 01 0B 29  `......#)..`...)
02E0: 08 1A 60 0E 01 02 1D 1D  80 23 29 08 1A 60 0E 01  ..`......#)..`..
02F0: 03 20 00 21 00                                    . .!.           
```

#### Opcodes

```
  0: 0x02B4 [0x1E] EventEntity looks at LocalPlayer and starts talking
  1: 0x02B9 [0x6F] WAIT_FRAME_DELAY: Yield until WaitTime reaches zero
  2: 0x02BA [0x70] WAIT_ENTITY_RENDER_FLAG: Wait while EventEntity->Render.Flags3 bit 2 is set (cancel turn if not)
  3: 0x02BB [0x29] REQ_SET_WAIT(priority=0x08, entity_id=Sobane (ID: 17719322/0x010E601A), tag_num=0x08)
  4: 0x02C2 [0x1D] PRINT_EVENT_MESSAGE(message_id=9851*)
    → "I wonder if Sir Louverance is the one threatening Count Teulomme, as my husband suggests."
  5: 0x02C5 [0x23] WAIT_FOR_DIALOG_INTERACTION
  6: 0x02C6 [0x29] REQ_SET_WAIT(priority=0x08, entity_id=Sobane (ID: 17719322/0x010E601A), tag_num=0x09)
  7: 0x02CD [0x29] REQ_SET_WAIT(priority=0x08, entity_id=Sobane (ID: 17719322/0x010E601A), tag_num=0x0A)
  8: 0x02D4 [0x1D] PRINT_EVENT_MESSAGE(message_id=9852*)
    → "The criminal has said that he can be contacted through one of the Tonberries of Carpenters' Landing."
  9: 0x02D7 [0x23] WAIT_FOR_DIALOG_INTERACTION
 10: 0x02D8 [0x29] REQ_SET_WAIT(priority=0x08, entity_id=Sobane (ID: 17719322/0x010E601A), tag_num=0x0B)
 11: 0x02DF [0x29] REQ_SET_WAIT(priority=0x08, entity_id=Sobane (ID: 17719322/0x010E601A), tag_num=0x02)
 12: 0x02E6 [0x1D] PRINT_EVENT_MESSAGE(message_id=9853*)
    → "<Player>. Please help me to uncover the truth."
 13: 0x02E9 [0x23] WAIT_FOR_DIALOG_INTERACTION
 14: 0x02EA [0x29] REQ_SET_WAIT(priority=0x08, entity_id=Sobane (ID: 17719322/0x010E601A), tag_num=0x03)
 15: 0x02F1 [0x20] SET_CLI_EVENT_UC_FLAG: Unlock player control
 16: 0x02F3 [0x21] END_EVENT
 17: 0x02F4 [0x00] END_REQSTACK()
```

### Event 740

#### Metadata

| Field        | Value   |
|--------------|---------|
| Entrypoint   | 0x02F5  |
| Data Size    | 1 bytes |
| Instructions | 1       |

```
      00 01 02 03 04 05 06 07  08 09 0A 0B 0C 0D 0E 0F
      -- -- -- -- -- -- -- --  -- -- -- -- -- -- -- --
02F0:                00                                      .          
```

#### Opcodes

```
  0: 0x02F5 [0x00] END_REQSTACK()
```

### Event 741

#### Metadata

| Field        | Value    |
|--------------|----------|
| Entrypoint   | 0x02F6   |
| Data Size    | 29 bytes |
| Instructions | 10       |

```
      00 01 02 03 04 05 06 07  08 09 0A 0B 0C 0D 0E 0F
      -- -- -- -- -- -- -- --  -- -- -- -- -- -- -- --
02F0:                   1E F0  FF FF 7F 6F 70 29 08 1A        .....op)..
0300: 60 0E 01 02 1D 1E 80 23  29 08 1A 60 0E 01 03 20  `......#)..`... 
0310: 00 21 00                                          .!.             
```

#### Opcodes

```
  0: 0x02F6 [0x1E] EventEntity looks at LocalPlayer and starts talking
  1: 0x02FB [0x6F] WAIT_FRAME_DELAY: Yield until WaitTime reaches zero
  2: 0x02FC [0x70] WAIT_ENTITY_RENDER_FLAG: Wait while EventEntity->Render.Flags3 bit 2 is set (cancel turn if not)
  3: 0x02FD [0x29] REQ_SET_WAIT(priority=0x08, entity_id=Sobane (ID: 17719322/0x010E601A), tag_num=0x02)
  4: 0x0304 [0x1D] PRINT_EVENT_MESSAGE(message_id=9866*)
    → "I must extend my thanks to you as well, <Player>. Hopefully, Sir Louverance will now at least be aware of the threat to his life."
  5: 0x0307 [0x23] WAIT_FOR_DIALOG_INTERACTION
  6: 0x0308 [0x29] REQ_SET_WAIT(priority=0x08, entity_id=Sobane (ID: 17719322/0x010E601A), tag_num=0x03)
  7: 0x030F [0x20] SET_CLI_EVENT_UC_FLAG: Unlock player control
  8: 0x0311 [0x21] END_EVENT
  9: 0x0312 [0x00] END_REQSTACK()
```
