# 17719386 - Rosel

## Common Data

| Field            | Value                         |
|------------------|-------------------------------|
| Zone             | Southern San d'Oria (ID: 230) |
| Block Size       | 996 bytes                     |
| Total Events     | 4                             |
| References Count | 35                            |

## List of Events

| Event ID              | Entrypoint   |   Size |   Instructions |
|-----------------------|--------------|--------|----------------|
| [65535](#event-65535) | 0x0000       |      1 |              1 |
| [523](#event-523)     | 0x0001       |    556 |            106 |
| [524](#event-524)     | 0x022D       |    132 |             28 |
| [527](#event-527)     | 0x02B1       |    132 |             35 |

## DAT References (imed_data)

|   Index | Hex Value   |   Dec Value |
|---------|-------------|-------------|
|       0 | 0x014C      |         332 |
|       1 | 0x0003      |           3 |
|       2 | 0x00C8      |         200 |
|       3 | 0x0000      |           0 |
|       4 | 0x0082      |         130 |
|       5 | 0x001E      |          30 |
|       6 | 0x1E7E      |        7806 |
|       7 | 0x1E7F      |        7807 |
|       8 | 0x026F      |         623 |
|       9 | 0x1E80      |        7808 |
|      10 | 0x001F      |          31 |
|      11 | 0x1E81      |        7809 |
|      12 | 0x1E82      |        7810 |
|      13 | 0x003C      |          60 |
|      14 | 0x1E83      |        7811 |
|      15 | 0x1E84      |        7812 |
|      16 | 0x1E85      |        7813 |
|      17 | 0x1E86      |        7814 |
|      18 | 0x0600      |        1536 |
|      19 | 0x1E87      |        7815 |
|      20 | 0x1E88      |        7816 |
|      21 | 0x1E89      |        7817 |
|      22 | 0x1E8A      |        7818 |
|      23 | 0x1FD0      |        8144 |
|      24 | 0x1E8B      |        7819 |
|      25 | 0x0001      |           1 |
|      26 | 0x1E8E      |        7822 |
|      27 | 0x1E8F      |        7823 |
|      28 | 0x1E99      |        7833 |
|      29 | 0x1E9B      |        7835 |
|      30 | 0x1E9C      |        7836 |
|      31 | 0x1E9D      |        7837 |
|      32 | 0x1E9E      |        7838 |
|      33 | 0x1E9F      |        7839 |
|      34 | 0x00C9      |         201 |

## String References

- **7806**: Begging your pardon, but I'm busy. I must make a cloak for Prince [Trion/Pieuje], and within the day!
- **7808**: What is it? I said I'm busy, and I meant it!
- **7810**: Ahh...ah! Prince [Pieuje/Trion] sent you? I beg your pardon!
- **7812**: Prince [Pieuje/Trion] is too kind. His words do this shop great honor.
- **7814**: Now, where was I? Oh, no! This will not do! I took payment for the cloak but forgot to give him a receipt!
- **7815**: And with this second one to finish, I've no time to carry a receipt over now!
- **7816**: Perhaps you could help me! Would you take this receipt to Prince [Pieuje/Trion], in Chateau d'Oraguille?
- **7817**: Normally I'd do it myself, but if I don't finish this other cloak for Prince [Trion/Pieuje], my reputation is mud!
- **7818**: How about it? Will you help?
- **7819**: I thank you. Remember, it's for Prince [Pieuje/Trion]! The guards at the gate will take it for you, I should think.
- **7822**: I...see.
- **7823**: Oh, it's you again. Changed your mind? Will you run to the chateau for me?
- **7833**: Ah, thanks for your help. It's not much, but please accept this as payment.
- **7835**: Wh-what? You gave it to the wrong prince?
- **7836**: That's what I get for sending a recruit... This is for your time. Take it and leave.
- **7837**: What? They complained about your attire?
- **7838**: Well, you really can't blame them... Listen, I know someone in the Tanners' Guild on the west side. She can help you.
- **7839**: She's a Mithra by the name of Hanaa Punaa. Go talk to her, she'll fix you up.
- **8144**: Accept? [Yes./I'm sorry.]

## Events

### Event 65535

#### Metadata

| Field        | Value   |
|--------------|---------|
| Entrypoint   | 0x0000  |
| Data Size    | 1 bytes |
| Instructions | 1       |

```
      00 01 02 03 04 05 06 07  08 09 0A 0B 0C 0D 0E 0F
      -- -- -- -- -- -- -- --  -- -- -- -- -- -- -- --
0000: 00                                                .               
```

#### Opcodes

```
  0: 0x0000 [0x00] END_REQSTACK()
```

### Event 523

#### Metadata

| Field        | Value     |
|--------------|-----------|
| Entrypoint   | 0x0001    |
| Data Size    | 556 bytes |
| Instructions | 106       |

```
      00 01 02 03 04 05 06 07  08 09 0A 0B 0C 0D 0E 0F
      -- -- -- -- -- -- -- --  -- -- -- -- -- -- -- --
0000:    42 46 01 75 00 00 80  75 01 38 01 80 27 64 F0   BF.u...u.8..'d.
0010: FF FF 7F 21 45 02 80 F0  FF FF 7F F0 FF FF 7F 66  ...!E..........f
0020: 64 69 31 03 80 45 04 80  F0 FF FF 7F F0 FF FF 7F  di1..E..........
0030: 73 30 32 38 03 80 55 04  80 F0 FF FF 7F F0 FF FF  s028..U.........
0040: 7F 73 30 32 38 03 00 00  06 10 1E F0 FF FF 7F 6F  .s028..........o
0050: 70 5B 05 80 F8 FF FF 7F  F8 FF FF 7F 74 6C 6B 30  p[..........tlk0
0060: 27 0A 5E 60 0E 01 02 1D  06 80 23 1C 05 80 2A 0A  '.^`......#...*.
0070: 5E 60 0E 01 2B 5E 60 0E  01 07 80 23 27 0A 5E 60  ^`..+^`....#'.^`
0080: 0E 01 03 45 04 80 F0 FF  FF 7F F0 FF FF 7F 73 30  ...E..........s0
0090: 32 39 03 80 7B F8 FF FF  7F 39 08 80 5B 05 80 F8  29..{....9..[...
00A0: FF FF 7F F8 FF FF 7F 74  6C 6B 30 2A 0A 5E 60 0E  .......tlk0*.^`.
00B0: 01 1D 09 80 23 1C 05 80  1E 5E 60 0E 01 6F 70 66  ....#....^`..opf
00C0: 0A 80 5E 60 0E 01 5E 60  0E 01 74 6C 6B 30 2B 5E  ..^`..^`..tlk0+^
00D0: 60 0E 01 0B 80 23 1C 05  80 5B 05 80 F8 FF FF 7F  `....#...[......
00E0: F8 FF FF 7F 74 6C 6B 30  1D 0C 80 23 27 0A 5E 60  ....tlk0...#'.^`
00F0: 0E 01 04 1C 0D 80 66 0A  80 5E 60 0E 01 5E 60 0E  ......f..^`..^`.
0100: 01 74 6C 6B 30 2B 5E 60  0E 01 0E 80 23 2A 0A 5E  .tlk0+^`....#*.^
0110: 60 0E 01 1C 05 80 5B 05  80 F8 FF FF 7F F8 FF FF  `.....[.........
0120: 7F 74 6C 6B 30 1D 0F 80  23 5E 69 64 6C 30 1C 05  .tlk0...#^idl0..
0130: 80 66 0A 80 5E 60 0E 01  5E 60 0E 01 73 61 6C 32  .f..^`..^`..sal2
0140: 2B 5E 60 0E 01 10 80 23  53 5E 60 0E 01 5E 60 0E  +^`....#S^`..^`.
0150: 01 73 61 6C 32 1C 0D 80  27 0A 5E 60 0E 01 05 2A  .sal2...'.^`...*
0160: 0A 5E 60 0E 01 1C 05 80  1E F0 FF FF 7F 6F 70 5B  .^`..........op[
0170: 05 80 F8 FF FF 7F F8 FF  FF 7F 74 6C 6B 30 1D 11  ..........tlk0..
0180: 80 23 39 12 80 1C 0D 80  5B 05 80 F8 FF FF 7F F8  .#9.....[.......
0190: FF FF 7F 74 6C 6B 30 1D  13 80 23 1C 05 80 1E F0  ...tlk0...#.....
01A0: FF FF 7F 6F 70 5B 05 80  F8 FF FF 7F F8 FF FF 7F  ...op[..........
01B0: 74 6C 6B 30 1D 14 80 23  1C 05 80 1D 15 80 23 1C  tlk0...#......#.
01C0: 05 80 1D 16 80 23 5E 69  64 6C 30 24 17 80 03 80  .....#^idl0$....
01D0: 03 80 25 02 00 10 03 80  00 FE 01 5B 05 80 F8 FF  ..%........[....
01E0: FF 7F F8 FF FF 7F 74 6C  6B 30 1D 18 80 23 5E 69  ......tlk0...#^i
01F0: 64 6C 30 1C 05 80 03 01  10 03 80 01 29 02 02 00  dl0.........)...
0200: 10 19 80 00 29 02 5B 05  80 F8 FF FF 7F F8 FF FF  ....).[.........
0210: 7F 74 6C 6B 30 1D 1A 80  23 5E 69 64 6C 30 1C 05  .tlk0...#^idl0..
0220: 80 03 01 10 19 80 01 29  02 46 00 21 00           .......).F.!.   
```

#### Opcodes

```
  0: 0x0001 [0x42] SET_CLI_EVENT_CANCEL_DATA()
  1: 0x0002 [0x46] CAMERA_CONTROL: Disable user control
  2: 0x0004 [0x75] LOAD_ROOM(Load indoor room, room=332*)
  3: 0x0008 [0x75] LOAD_ROOM(No action)
  4: 0x000A [0x38] SET_CLIENT_EVENT_MODE(mode=3*)
  5: 0x000D [0x27] REQ_SET(priority=0x64, entity_id=LocalPlayer, tag_num=0x21)
  6: 0x0014 [0x45] LOAD_SCHEDULED_TASK: Load scheduler "fdi1" with entities [LocalPlayer, LocalPlayer], work=[200*, 0*]
  7: 0x0025 [0x45] LOAD_SCHEDULED_TASK: Load scheduler "s028" with entities [LocalPlayer, LocalPlayer], work=[130*, 0*]
  8: 0x0036 [0x55] WAIT_LOAD_SCHEDULER: Wait for scheduler "s028" with entities [LocalPlayer, LocalPlayer], work=130*
  9: 0x0045 [0x03] ExtData[1]->WorkLocal[0] = Work_Zone[6]
 10: 0x004A [0x1E] EventEntity looks at LocalPlayer and starts talking
 11: 0x004F [0x6F] WAIT_FRAME_DELAY: Yield until WaitTime reaches zero
 12: 0x0050 [0x70] WAIT_ENTITY_RENDER_FLAG: Wait while EventEntity->Render.Flags3 bit 2 is set (cancel turn if not)
 13: 0x0051 [0x5B] LOAD_EXT_SCHEDULER: Load scheduler "tlk0" with entities [EventEntity, EventEntity], work=30*
 14: 0x0060 [0x27] REQ_SET(priority=0x0A, entity_id=Michilca (ID: 17719390/0x010E605E), tag_num=0x02)
 15: 0x0067 [0x1D] PRINT_EVENT_MESSAGE(message_id=7806*)
    → "Begging your pardon, but I'm busy. I must make a cloak for Prince [Trion/Pieuje], and within the day!"
 16: 0x006A [0x23] WAIT_FOR_DIALOG_INTERACTION
 17: 0x006B [0x1C] WAIT(30* ticks)
 18: 0x006E [0x2A] GET_REQ_LEVEL(level=10, entity_id=Michilca (ID: 17719390/0x010E605E))
 19: 0x0074 [0x2B] Michilca (ID: 17719390/0x010E605E) [7807*]:
    → "Is the master in?"
 20: 0x007B [0x23] WAIT_FOR_DIALOG_INTERACTION
 21: 0x007C [0x27] REQ_SET(priority=0x0A, entity_id=Michilca (ID: 17719390/0x010E605E), tag_num=0x03)
 22: 0x0083 [0x45] LOAD_SCHEDULED_TASK: Load scheduler "s029" with entities [LocalPlayer, LocalPlayer], work=[130*, 0*]
 23: 0x0094 [0x7B] EventEntity stops talking
 24: 0x0099 [0x39] SET_ENTITY_DIRECTION(direction=3.4°*)
 25: 0x009C [0x5B] LOAD_EXT_SCHEDULER: Load scheduler "tlk0" with entities [EventEntity, EventEntity], work=30*
 26: 0x00AB [0x2A] GET_REQ_LEVEL(level=10, entity_id=Michilca (ID: 17719390/0x010E605E))
 27: 0x00B1 [0x1D] PRINT_EVENT_MESSAGE(message_id=7808*)
    → "What is it? I said I'm busy, and I meant it!"
 28: 0x00B4 [0x23] WAIT_FOR_DIALOG_INTERACTION
 29: 0x00B5 [0x1C] WAIT(30* ticks)
 30: 0x00B8 [0x1E] EventEntity looks at Michilca (ID: 17719390/0x010E605E) and starts talking
 31: 0x00BD [0x6F] WAIT_FRAME_DELAY: Yield until WaitTime reaches zero
 32: 0x00BE [0x70] WAIT_ENTITY_RENDER_FLAG: Wait while EventEntity->Render.Flags3 bit 2 is set (cancel turn if not)
 33: 0x00BF [0x66] LOAD_EXT_SCHEDULER_MAIN: Load scheduler "tlk0" with entities [Michilca (ID: 17719390/0x010E605E), Michilca (ID: 17719390/0x010E605E)], work=31*
 34: 0x00CE [0x2B] Michilca (ID: 17719390/0x010E605E) [7809*]:
    → "I've been sent by Prince [Pieuje/Trion] to pay for the cloak he received from this establishment two days past."
 35: 0x00D5 [0x23] WAIT_FOR_DIALOG_INTERACTION
 36: 0x00D6 [0x1C] WAIT(30* ticks)
 37: 0x00D9 [0x5B] LOAD_EXT_SCHEDULER: Load scheduler "tlk0" with entities [EventEntity, EventEntity], work=30*
 38: 0x00E8 [0x1D] PRINT_EVENT_MESSAGE(message_id=7810*)
    → "Ahh...ah! Prince [Pieuje/Trion] sent you? I beg your pardon!"
 39: 0x00EB [0x23] WAIT_FOR_DIALOG_INTERACTION
 40: 0x00EC [0x27] REQ_SET(priority=0x0A, entity_id=Michilca (ID: 17719390/0x010E605E), tag_num=0x04)
 41: 0x00F3 [0x1C] WAIT(60* ticks)
 42: 0x00F6 [0x66] LOAD_EXT_SCHEDULER_MAIN: Load scheduler "tlk0" with entities [Michilca (ID: 17719390/0x010E605E), Michilca (ID: 17719390/0x010E605E)], work=31*
 43: 0x0105 [0x2B] Michilca (ID: 17719390/0x010E605E) [7811*]:
    → "Here's payment in full. Prince [Pieuje/Trion] was quite pleased, you know. Said the quality was second to none."
 44: 0x010C [0x23] WAIT_FOR_DIALOG_INTERACTION
 45: 0x010D [0x2A] GET_REQ_LEVEL(level=10, entity_id=Michilca (ID: 17719390/0x010E605E))
 46: 0x0113 [0x1C] WAIT(30* ticks)
 47: 0x0116 [0x5B] LOAD_EXT_SCHEDULER: Load scheduler "tlk0" with entities [EventEntity, EventEntity], work=30*
 48: 0x0125 [0x1D] PRINT_EVENT_MESSAGE(message_id=7812*)
    → "Prince [Pieuje/Trion] is too kind. His words do this shop great honor."
 49: 0x0128 [0x23] WAIT_FOR_DIALOG_INTERACTION
 50: 0x0129 [0x5E] EventEntity goes idle (kills current action) (animation: "idl0")
 51: 0x012E [0x1C] WAIT(30* ticks)
 52: 0x0131 [0x66] LOAD_EXT_SCHEDULER_MAIN: Load scheduler "sal2" with entities [Michilca (ID: 17719390/0x010E605E), Michilca (ID: 17719390/0x010E605E)], work=31*
 53: 0x0140 [0x2B] Michilca (ID: 17719390/0x010E605E) [7813*]:
    → "I will relay your words to the prince. Now, I beg your leave."
 54: 0x0147 [0x23] WAIT_FOR_DIALOG_INTERACTION
 55: 0x0148 [0x53] WAIT_SCHEDULER_TASK: Wait for scheduler "sal2" with entities [Michilca (ID: 17719390/0x010E605E), Michilca (ID: 17719390/0x010E605E)]
 56: 0x0155 [0x1C] WAIT(60* ticks)
 57: 0x0158 [0x27] REQ_SET(priority=0x0A, entity_id=Michilca (ID: 17719390/0x010E605E), tag_num=0x05)
 58: 0x015F [0x2A] GET_REQ_LEVEL(level=10, entity_id=Michilca (ID: 17719390/0x010E605E))
 59: 0x0165 [0x1C] WAIT(30* ticks)
 60: 0x0168 [0x1E] EventEntity looks at LocalPlayer and starts talking
 61: 0x016D [0x6F] WAIT_FRAME_DELAY: Yield until WaitTime reaches zero
 62: 0x016E [0x70] WAIT_ENTITY_RENDER_FLAG: Wait while EventEntity->Render.Flags3 bit 2 is set (cancel turn if not)
 63: 0x016F [0x5B] LOAD_EXT_SCHEDULER: Load scheduler "tlk0" with entities [EventEntity, EventEntity], work=30*
 64: 0x017E [0x1D] PRINT_EVENT_MESSAGE(message_id=7814*)
    → "Now, where was I? Oh, no! This will not do! I took payment for the cloak but forgot to give him a receipt!"
 65: 0x0181 [0x23] WAIT_FOR_DIALOG_INTERACTION
 66: 0x0182 [0x39] SET_ENTITY_DIRECTION(direction=8.4°*)
 67: 0x0185 [0x1C] WAIT(60* ticks)
 68: 0x0188 [0x5B] LOAD_EXT_SCHEDULER: Load scheduler "tlk0" with entities [EventEntity, EventEntity], work=30*
 69: 0x0197 [0x1D] PRINT_EVENT_MESSAGE(message_id=7815*)
    → "And with this second one to finish, I've no time to carry a receipt over now!"
 70: 0x019A [0x23] WAIT_FOR_DIALOG_INTERACTION
 71: 0x019B [0x1C] WAIT(30* ticks)
 72: 0x019E [0x1E] EventEntity looks at LocalPlayer and starts talking
 73: 0x01A3 [0x6F] WAIT_FRAME_DELAY: Yield until WaitTime reaches zero
 74: 0x01A4 [0x70] WAIT_ENTITY_RENDER_FLAG: Wait while EventEntity->Render.Flags3 bit 2 is set (cancel turn if not)
 75: 0x01A5 [0x5B] LOAD_EXT_SCHEDULER: Load scheduler "tlk0" with entities [EventEntity, EventEntity], work=30*
 76: 0x01B4 [0x1D] PRINT_EVENT_MESSAGE(message_id=7816*)
    → "Perhaps you could help me! Would you take this receipt to Prince [Pieuje/Trion], in Chateau d'Oraguille?"
 77: 0x01B7 [0x23] WAIT_FOR_DIALOG_INTERACTION
 78: 0x01B8 [0x1C] WAIT(30* ticks)
 79: 0x01BB [0x1D] PRINT_EVENT_MESSAGE(message_id=7817*)
    → "Normally I'd do it myself, but if I don't finish this other cloak for Prince [Trion/Pieuje], my reputation is mud!"
 80: 0x01BE [0x23] WAIT_FOR_DIALOG_INTERACTION
 81: 0x01BF [0x1C] WAIT(30* ticks)
 82: 0x01C2 [0x1D] PRINT_EVENT_MESSAGE(message_id=7818*)
    → "How about it? Will you help?"
 83: 0x01C5 [0x23] WAIT_FOR_DIALOG_INTERACTION
 84: 0x01C6 [0x5E] EventEntity goes idle (kills current action) (animation: "idl0")
 85: 0x01CB [0x24] CREATE_DIALOG(message_id=8144*, default_option=0*, option_flags=0*)
    → "Accept? [Yes./I'm sorry.]"
 86: 0x01D2 [0x25] WAIT_DIALOG_SELECT()
 87: 0x01D3 [0x02] IF !(Work_Zone[0] == 0*) GOTO 0x01FE
 88: 0x01DB [0x5B] LOAD_EXT_SCHEDULER: Load scheduler "tlk0" with entities [EventEntity, EventEntity], work=30*
 89: 0x01EA [0x1D] PRINT_EVENT_MESSAGE(message_id=7819*)
    → "I thank you. Remember, it's for Prince [Pieuje/Trion]! The guards at the gate will take it for you, I should think."
 90: 0x01ED [0x23] WAIT_FOR_DIALOG_INTERACTION
 91: 0x01EE [0x5E] EventEntity goes idle (kills current action) (animation: "idl0")
 92: 0x01F3 [0x1C] WAIT(30* ticks)
 93: 0x01F6 [0x03] Work_Zone[1] = 0*
 94: 0x01FB [0x01] GOTO 0x0229
 95: 0x01FE [0x02] IF !(Work_Zone[0] == 1*) GOTO 0x0229
 96: 0x0206 [0x5B] LOAD_EXT_SCHEDULER: Load scheduler "tlk0" with entities [EventEntity, EventEntity], work=30*
 97: 0x0215 [0x1D] PRINT_EVENT_MESSAGE(message_id=7822*)
    → "I...see."
 98: 0x0218 [0x23] WAIT_FOR_DIALOG_INTERACTION
 99: 0x0219 [0x5E] EventEntity goes idle (kills current action) (animation: "idl0")
100: 0x021E [0x1C] WAIT(30* ticks)
101: 0x0221 [0x03] Work_Zone[1] = 1*
102: 0x0226 [0x01] GOTO 0x0229

SUBROUTINE_0229:
103: 0x0229 [0x46] CAMERA_CONTROL: Restore default settings
104: 0x022B [0x21] END_EVENT
105: 0x022C [0x00] END_REQSTACK()
```

### Event 524

#### Metadata

| Field        | Value     |
|--------------|-----------|
| Entrypoint   | 0x022D    |
| Data Size    | 132 bytes |
| Instructions | 28        |

```
      00 01 02 03 04 05 06 07  08 09 0A 0B 0C 0D 0E 0F
      -- -- -- -- -- -- -- --  -- -- -- -- -- -- -- --
0220:                                         1E F0 FF               ...
0230: FF 7F 03 00 00 06 10 6F  70 5B 05 80 F8 FF FF 7F  .......op[......
0240: F8 FF FF 7F 74 6C 6B 30  1D 1B 80 23 5E 69 64 6C  ....tlk0...#^idl
0250: 30 24 17 80 03 80 03 80  25 02 00 10 03 80 00 84  0$......%.......
0260: 02 5B 05 80 F8 FF FF 7F  F8 FF FF 7F 74 6C 6B 30  .[..........tlk0
0270: 1D 18 80 23 5E 69 64 6C  30 1C 05 80 03 01 10 03  ...#^idl0.......
0280: 80 01 AF 02 02 00 10 19  80 00 AF 02 5B 05 80 F8  ............[...
0290: FF FF 7F F8 FF FF 7F 74  6C 6B 30 1D 1A 80 23 5E  .......tlk0...#^
02A0: 69 64 6C 30 1C 05 80 03  01 10 19 80 01 AF 02 21  idl0...........!
02B0: 00                                                .               
```

#### Opcodes

```
  0: 0x022D [0x1E] EventEntity looks at LocalPlayer and starts talking
  1: 0x0232 [0x03] ExtData[1]->WorkLocal[0] = Work_Zone[6]
  2: 0x0237 [0x6F] WAIT_FRAME_DELAY: Yield until WaitTime reaches zero
  3: 0x0238 [0x70] WAIT_ENTITY_RENDER_FLAG: Wait while EventEntity->Render.Flags3 bit 2 is set (cancel turn if not)
  4: 0x0239 [0x5B] LOAD_EXT_SCHEDULER: Load scheduler "tlk0" with entities [EventEntity, EventEntity], work=30*
  5: 0x0248 [0x1D] PRINT_EVENT_MESSAGE(message_id=7823*)
    → "Oh, it's you again. Changed your mind? Will you run to the chateau for me?"
  6: 0x024B [0x23] WAIT_FOR_DIALOG_INTERACTION
  7: 0x024C [0x5E] EventEntity goes idle (kills current action) (animation: "idl0")
  8: 0x0251 [0x24] CREATE_DIALOG(message_id=8144*, default_option=0*, option_flags=0*)
    → "Accept? [Yes./I'm sorry.]"
  9: 0x0258 [0x25] WAIT_DIALOG_SELECT()
 10: 0x0259 [0x02] IF !(Work_Zone[0] == 0*) GOTO 0x0284
 11: 0x0261 [0x5B] LOAD_EXT_SCHEDULER: Load scheduler "tlk0" with entities [EventEntity, EventEntity], work=30*
 12: 0x0270 [0x1D] PRINT_EVENT_MESSAGE(message_id=7819*)
    → "I thank you. Remember, it's for Prince [Pieuje/Trion]! The guards at the gate will take it for you, I should think."
 13: 0x0273 [0x23] WAIT_FOR_DIALOG_INTERACTION
 14: 0x0274 [0x5E] EventEntity goes idle (kills current action) (animation: "idl0")
 15: 0x0279 [0x1C] WAIT(30* ticks)
 16: 0x027C [0x03] Work_Zone[1] = 0*
 17: 0x0281 [0x01] GOTO 0x02AF
 18: 0x0284 [0x02] IF !(Work_Zone[0] == 1*) GOTO 0x02AF
 19: 0x028C [0x5B] LOAD_EXT_SCHEDULER: Load scheduler "tlk0" with entities [EventEntity, EventEntity], work=30*
 20: 0x029B [0x1D] PRINT_EVENT_MESSAGE(message_id=7822*)
    → "I...see."
 21: 0x029E [0x23] WAIT_FOR_DIALOG_INTERACTION
 22: 0x029F [0x5E] EventEntity goes idle (kills current action) (animation: "idl0")
 23: 0x02A4 [0x1C] WAIT(30* ticks)
 24: 0x02A7 [0x03] Work_Zone[1] = 1*
 25: 0x02AC [0x01] GOTO 0x02AF

SUBROUTINE_02AF:
 26: 0x02AF [0x21] END_EVENT
 27: 0x02B0 [0x00] END_REQSTACK()
```

### Event 527

#### Metadata

| Field        | Value     |
|--------------|-----------|
| Entrypoint   | 0x02B1    |
| Data Size    | 132 bytes |
| Instructions | 35        |

```
      00 01 02 03 04 05 06 07  08 09 0A 0B 0C 0D 0E 0F
      -- -- -- -- -- -- -- --  -- -- -- -- -- -- -- --
02B0:    42 02 07 10 03 80 00  DF 02 1E F0 FF FF 7F 6F   B.............o
02C0: 70 5B 05 80 F8 FF FF 7F  F8 FF FF 7F 74 6C 6B 30  p[..........tlk0
02D0: 1D 1C 80 23 1C 05 80 03  01 10 03 80 01 08 03 1E  ...#............
02E0: F0 FF FF 7F 6F 70 5B 05  80 F8 FF FF 7F F8 FF FF  ....op[.........
02F0: 7F 74 6C 6B 30 1D 1D 80  23 1C 05 80 1D 1E 80 23  .tlk0...#......#
0300: 1C 05 80 03 01 10 19 80  1D 1F 80 23 1C 05 80 1D  ...........#....
0310: 20 80 23 1C 05 80 1D 21  80 23 5E 69 64 6C 30 45   .#....!.#^idl0E
0320: 22 80 F0 FF FF 7F F0 FF  FF 7F 71 73 74 63 03 80  ".........qstc..
0330: 1C 05 80 21 00                                    ...!.           
```

#### Opcodes

```
  0: 0x02B1 [0x42] SET_CLI_EVENT_CANCEL_DATA()
  1: 0x02B2 [0x02] IF !(Work_Zone[7] == 0*) GOTO 0x02DF
  2: 0x02BA [0x1E] EventEntity looks at LocalPlayer and starts talking
  3: 0x02BF [0x6F] WAIT_FRAME_DELAY: Yield until WaitTime reaches zero
  4: 0x02C0 [0x70] WAIT_ENTITY_RENDER_FLAG: Wait while EventEntity->Render.Flags3 bit 2 is set (cancel turn if not)
  5: 0x02C1 [0x5B] LOAD_EXT_SCHEDULER: Load scheduler "tlk0" with entities [EventEntity, EventEntity], work=30*
  6: 0x02D0 [0x1D] PRINT_EVENT_MESSAGE(message_id=7833*)
    → "Ah, thanks for your help. It's not much, but please accept this as payment."
  7: 0x02D3 [0x23] WAIT_FOR_DIALOG_INTERACTION
  8: 0x02D4 [0x1C] WAIT(30* ticks)
  9: 0x02D7 [0x03] Work_Zone[1] = 0*
 10: 0x02DC [0x01] GOTO 0x0308
 11: 0x02DF [0x1E] EventEntity looks at LocalPlayer and starts talking
 12: 0x02E4 [0x6F] WAIT_FRAME_DELAY: Yield until WaitTime reaches zero
 13: 0x02E5 [0x70] WAIT_ENTITY_RENDER_FLAG: Wait while EventEntity->Render.Flags3 bit 2 is set (cancel turn if not)
 14: 0x02E6 [0x5B] LOAD_EXT_SCHEDULER: Load scheduler "tlk0" with entities [EventEntity, EventEntity], work=30*
 15: 0x02F5 [0x1D] PRINT_EVENT_MESSAGE(message_id=7835*)
    → "Wh-what? You gave it to the wrong prince?"
 16: 0x02F8 [0x23] WAIT_FOR_DIALOG_INTERACTION
 17: 0x02F9 [0x1C] WAIT(30* ticks)
 18: 0x02FC [0x1D] PRINT_EVENT_MESSAGE(message_id=7836*)
    → "That's what I get for sending a recruit... This is for your time. Take it and leave."
 19: 0x02FF [0x23] WAIT_FOR_DIALOG_INTERACTION
 20: 0x0300 [0x1C] WAIT(30* ticks)
 21: 0x0303 [0x03] Work_Zone[1] = 1*

SUBROUTINE_0308:
 22: 0x0308 [0x1D] PRINT_EVENT_MESSAGE(message_id=7837*)
    → "What? They complained about your attire?"
 23: 0x030B [0x23] WAIT_FOR_DIALOG_INTERACTION
 24: 0x030C [0x1C] WAIT(30* ticks)
 25: 0x030F [0x1D] PRINT_EVENT_MESSAGE(message_id=7838*)
    → "Well, you really can't blame them... Listen, I know someone in the Tanners' Guild on the west side. She can help you."
 26: 0x0312 [0x23] WAIT_FOR_DIALOG_INTERACTION
 27: 0x0313 [0x1C] WAIT(30* ticks)
 28: 0x0316 [0x1D] PRINT_EVENT_MESSAGE(message_id=7839*)
    → "She's a Mithra by the name of Hanaa Punaa. Go talk to her, she'll fix you up."
 29: 0x0319 [0x23] WAIT_FOR_DIALOG_INTERACTION
 30: 0x031A [0x5E] EventEntity goes idle (kills current action) (animation: "idl0")
 31: 0x031F [0x45] LOAD_SCHEDULED_TASK: Load scheduler "qstc" with entities [LocalPlayer, LocalPlayer], work=[201*, 0*]
 32: 0x0330 [0x1C] WAIT(30* ticks)
 33: 0x0333 [0x21] END_EVENT
 34: 0x0334 [0x00] END_REQSTACK()
```
