# 17719574

## Common Data

| Field            | Value                         |
|------------------|-------------------------------|
| Zone             | Southern San d'Oria (ID: 230) |
| Block Size       | 1908 bytes                    |
| Total Events     | 36                            |
| References Count | 150                           |

## List of Events

| Event ID                   | Entrypoint   |   Size |   Instructions |
|----------------------------|--------------|--------|----------------|
| [65535](#event-65535)      | 0x0000       |      1 |              1 |
| [827](#event-827)          | 0x0001       |      1 |              1 |
| [823](#event-823)          | 0x0002       |      1 |              1 |
| [65535.1](#event-655351)   | 0x0003       |      5 |              2 |
| [65535.2](#event-655352)   | 0x0008       |     11 |              3 |
| [65535.3](#event-655353)   | 0x0013       |     10 |              2 |
| [65535.4](#event-655354)   | 0x001D       |    121 |             24 |
| [65535.5](#event-655355)   | 0x0096       |    121 |             24 |
| [65535.6](#event-655356)   | 0x010F       |     15 |              3 |
| [65535.7](#event-655357)   | 0x011E       |     14 |              4 |
| [65535.8](#event-655358)   | 0x012C       |     11 |              3 |
| [65535.9](#event-655359)   | 0x0137       |     11 |              3 |
| [65535.10](#event-6553510) | 0x0142       |     11 |              3 |
| [65535.11](#event-6553511) | 0x014D       |     14 |              4 |
| [65535.12](#event-6553512) | 0x015B       |     22 |              5 |
| [65535.13](#event-6553513) | 0x0171       |      2 |              2 |
| [861](#event-861)          | 0x0173       |      1 |              1 |
| [65535.14](#event-6553514) | 0x0174       |     15 |              3 |
| [65535.15](#event-6553515) | 0x0183       |     45 |             10 |
| [65535.16](#event-6553516) | 0x01B0       |     45 |             10 |
| [65535.17](#event-6553517) | 0x01DD       |      6 |              2 |
| [65535.18](#event-6553518) | 0x01E3       |     15 |              3 |
| [65535.19](#event-6553519) | 0x01F2       |     54 |             12 |
| [65535.20](#event-6553520) | 0x0228       |     66 |             16 |
| [65535.21](#event-6553521) | 0x026A       |     15 |              3 |
| [65535.22](#event-6553522) | 0x0279       |     73 |             17 |
| [65535.23](#event-6553523) | 0x02C2       |     50 |             12 |
| [65535.24](#event-6553524) | 0x02F4       |     50 |             12 |
| [65535.25](#event-6553525) | 0x0326       |     67 |             15 |
| [65535.26](#event-6553526) | 0x0369       |     14 |              4 |
| [65535.27](#event-6553527) | 0x0377       |     51 |             11 |
| [65535.28](#event-6553528) | 0x03AA       |     14 |              4 |
| [65535.29](#event-6553529) | 0x03B8       |     51 |             11 |
| [65535.30](#event-6553530) | 0x03EB       |     59 |             13 |
| [65535.31](#event-6553531) | 0x0426       |     69 |             15 |
| [65535.32](#event-6553532) | 0x046B       |     15 |              3 |

## DAT References (imed_data)

|   Index | Hex Value   |   Dec Value |
|---------|-------------|-------------|
|       0 | 0x0000      |           0 |
|       1 | 0x3EC8      |       16072 |
|       2 | 0xFFFE9096  |  4294873238 |
|       3 | 0x0897      |        2199 |
|       4 | 0x0079      |         121 |
|       5 | 0x0039      |          57 |
|       6 | 0x5688      |       22152 |
|       7 | 0xFFFE8963  |  4294871395 |
|       8 | 0x59FA      |       23034 |
|       9 | 0xFFFE9703  |  4294874883 |
|      10 | 0x20CA      |        8394 |
|      11 | 0xFFFEA6F2  |  4294878962 |
|      12 | 0x1A0A      |        6666 |
|      13 | 0xFFFEA628  |  4294878760 |
|      14 | 0x1971      |        6513 |
|      15 | 0xFFFEA380  |  4294878080 |
|      16 | 0x22EC      |        8940 |
|      17 | 0xFFFE9A5B  |  4294875739 |
|      18 | 0x2C7E      |       11390 |
|      19 | 0xFFFE96C5  |  4294874821 |
|      20 | 0x4D5E      |       19806 |
|      21 | 0xFFFE8BA4  |  4294871972 |
|      22 | 0x6F5C      |       28508 |
|      23 | 0xFFFE76B3  |  4294866611 |
|      24 | 0x07E8      |        2024 |
|      25 | 0x64EB      |       25835 |
|      26 | 0xFFFE78BB  |  4294867131 |
|      27 | 0x54AB      |       21675 |
|      28 | 0xFFFE778A  |  4294866826 |
|      29 | 0x4807      |       18439 |
|      30 | 0xFFFE769E  |  4294866590 |
|      31 | 0x3C77      |       15479 |
|      32 | 0xFFFE755D  |  4294866269 |
|      33 | 0x63D3      |       25555 |
|      34 | 0xFFFE82D1  |  4294869713 |
|      35 | 0x0003      |           3 |
|      36 | 0x00CD      |         205 |
|      37 | 0xFFFFB54C  |  4294948172 |
|      38 | 0xFFFFDAC6  |  4294957766 |
|      39 | 0x07CF      |        1999 |
|      40 | 0x0BEE      |        3054 |
|      41 | 0xFFF6D458  |  4294366296 |
|      42 | 0x94B18     |      609048 |
|      43 | 0x00FA      |         250 |
|      44 | 0x09E7      |        2535 |
|      45 | 0x000A      |          10 |
|      46 | 0xFFF6CD5C  |  4294364508 |
|      47 | 0x95040     |      610368 |
|      48 | 0x013C      |         316 |
|      49 | 0xFFF6C2ED  |  4294361837 |
|      50 | 0x93B8C     |      605068 |
|      51 | 0x007B      |         123 |
|      52 | 0xFFF6CB21  |  4294363937 |
|      53 | 0x94810     |      608272 |
|      54 | 0x00D3      |         211 |
|      55 | 0x0002      |           2 |
|      56 | 0x0013      |          19 |
|      57 | 0xFFF6D7C0  |  4294367168 |
|      58 | 0x8EF6A     |      585578 |
|      59 | 0x0274      |         628 |
|      60 | 0x011C      |         284 |
|      61 | 0xFFF6D0CA  |  4294365386 |
|      62 | 0x8F7DF     |      587743 |
|      63 | 0x0112      |         274 |
|      64 | 0xFFF6D779  |  4294367097 |
|      65 | 0x8FCC2     |      588994 |
|      66 | 0x015B      |         347 |
|      67 | 0xFFF6DB55  |  4294368085 |
|      68 | 0x8F169     |      586089 |
|      69 | 0x024A      |         586 |
|      70 | 0xFFF6DAA1  |  4294367905 |
|      71 | 0x8E6CF     |      583375 |
|      72 | 0x033E      |         830 |
|      73 | 0x001E      |          30 |
|      74 | 0xFFF6D3B3  |  4294366131 |
|      75 | 0x8F340     |      586560 |
|      76 | 0x01D0      |         464 |
|      77 | 0x0101      |         257 |
|      78 | 0x0078      |         120 |
|      79 | 0xFFF6D069  |  4294365289 |
|      80 | 0x8F7F4     |      587764 |
|      81 | 0x010C      |         268 |
|      82 | 0xFFF6D763  |  4294367075 |
|      83 | 0x8FB0E     |      588558 |
|      84 | 0x0171      |         369 |
|      85 | 0x003C      |          60 |
|      86 | 0xFFF6CFE0  |  4294365152 |
|      87 | 0x8F449     |      586825 |
|      88 | 0x0178      |         376 |
|      89 | 0x0862      |        2146 |
|      90 | 0xFFF6D8AC  |  4294367404 |
|      91 | 0x8FABD     |      588477 |
|      92 | 0x0175      |         373 |
|      93 | 0xFFF6DB01  |  4294368001 |
|      94 | 0x90356     |      590678 |
|      95 | 0x0108      |         264 |
|      96 | 0x03BF      |         959 |
|      97 | 0xFFF6C73F  |  4294362943 |
|      98 | 0x8F234     |      586292 |
|      99 | 0x008A      |         138 |
|     100 | 0x0025      |          37 |
|     101 | 0x00F0      |         240 |
|     102 | 0xFFF6D6F8  |  4294366968 |
|     103 | 0x8E30A     |      582410 |
|     104 | 0x0322      |         802 |
|     105 | 0x0BD3      |        3027 |
|     106 | 0xFFF6DB94  |  4294368148 |
|     107 | 0x8FCF3     |      589043 |
|     108 | 0x0159      |         345 |
|     109 | 0xFFF6C79F  |  4294363039 |
|     110 | 0x8F34D     |      586573 |
|     111 | 0xFFF6CB4A  |  4294363978 |
|     112 | 0x8FAEF     |      588527 |
|     113 | 0x00C4      |         196 |
|     114 | 0xFFF6D269  |  4294365801 |
|     115 | 0x8F138     |      586040 |
|     116 | 0x01F0      |         496 |
|     117 | 0xFFF6D2EF  |  4294365935 |
|     118 | 0x8EB3B     |      584507 |
|     119 | 0x021E      |         542 |
|     120 | 0xFFF6D6A2  |  4294366882 |
|     121 | 0x8E8B3     |      583859 |
|     122 | 0x02C0      |         704 |
|     123 | 0xFFF6DAB0  |  4294367920 |
|     124 | 0x8EE3C     |      585276 |
|     125 | 0x029C      |         668 |
|     126 | 0xFFF6DC30  |  4294368304 |
|     127 | 0x8F5FC     |      587260 |
|     128 | 0x01D4      |         468 |
|     129 | 0xFFF6D87A  |  4294367354 |
|     130 | 0x8F6D2     |      587474 |
|     131 | 0x01BF      |         447 |
|     132 | 0xFFF6CEAA  |  4294364842 |
|     133 | 0x8FA2D     |      588333 |
|     134 | 0x00F7      |         247 |
|     135 | 0xFFF6CA0E  |  4294363662 |
|     136 | 0x8EFB9     |      585657 |
|     137 | 0x0090      |         144 |
|     138 | 0xFFF6CECB  |  4294364875 |
|     139 | 0x8E418     |      582680 |
|     140 | 0x018C      |         396 |
|     141 | 0xFFF6DB79  |  4294368121 |
|     142 | 0x8E4F3     |      582899 |
|     143 | 0x0356      |         854 |
|     144 | 0xFFF6DE60  |  4294368864 |
|     145 | 0x8F7D9     |      587737 |
|     146 | 0x019A      |         410 |
|     147 | 0xFFF6D8AE  |  4294367406 |
|     148 | 0x8FE78     |      589432 |
|     149 | 0x0146      |         326 |

## Events

### Event 65535

#### Metadata

| Field        | Value   |
|--------------|---------|
| Entrypoint   | 0x0000  |
| Data Size    | 1 bytes |
| Instructions | 1       |

```
      00 01 02 03 04 05 06 07  08 09 0A 0B 0C 0D 0E 0F
      -- -- -- -- -- -- -- --  -- -- -- -- -- -- -- --
0000: 00                                                .               
```

#### Opcodes

```
  0: 0x0000 [0x00] END_REQSTACK()
```

### Event 827

#### Metadata

| Field        | Value   |
|--------------|---------|
| Entrypoint   | 0x0001  |
| Data Size    | 1 bytes |
| Instructions | 1       |

```
      00 01 02 03 04 05 06 07  08 09 0A 0B 0C 0D 0E 0F
      -- -- -- -- -- -- -- --  -- -- -- -- -- -- -- --
0000:    00                                              .              
```

#### Opcodes

```
  0: 0x0001 [0x00] END_REQSTACK()
```

### Event 823

#### Metadata

| Field        | Value   |
|--------------|---------|
| Entrypoint   | 0x0002  |
| Data Size    | 1 bytes |
| Instructions | 1       |

```
      00 01 02 03 04 05 06 07  08 09 0A 0B 0C 0D 0E 0F
      -- -- -- -- -- -- -- --  -- -- -- -- -- -- -- --
0000:       00                                            .             
```

#### Opcodes

```
  0: 0x0002 [0x00] END_REQSTACK()
```

### Event 65535.1

#### Metadata

| Field        | Value   |
|--------------|---------|
| Entrypoint   | 0x0003  |
| Data Size    | 5 bytes |
| Instructions | 2       |

```
      00 01 02 03 04 05 06 07  08 09 0A 0B 0C 0D 0E 0F
      -- -- -- -- -- -- -- --  -- -- -- -- -- -- -- --
0000:          B6 00 04 10 00                              .....        
```

#### Opcodes

```
  0: 0x0003 [0xB6] ENTITY_APPEARANCE_HANDLER(case=Hair style, value=Work_Zone[4])
  1: 0x0007 [0x00] END_REQSTACK()
```

### Event 65535.2

#### Metadata

| Field        | Value    |
|--------------|----------|
| Entrypoint   | 0x0008   |
| Data Size    | 11 bytes |
| Instructions | 3        |

```
      00 01 02 03 04 05 06 07  08 09 0A 0B 0C 0D 0E 0F
      -- -- -- -- -- -- -- --  -- -- -- -- -- -- -- --
0000:                          B4 01 00 00 00 80 B5 00          ........
0010: 00 00 00                                          ...             
```

#### Opcodes

```
  0: 0x0008 [0xB4] UI_WINDOW_STRING_HANDLER(case=0x01 - Copy string from event strings table, work_offset=ExtData[1]->WorkLocal[0], string_index=0*)
  1: 0x000E [0xB5] SET_EVENT_ENTITY_NAME: Change EventEntity name to ExtData[1]->WorkLocal[0]
  2: 0x0012 [0x00] END_REQSTACK()
```

### Event 65535.3

#### Metadata

| Field        | Value    |
|--------------|----------|
| Entrypoint   | 0x0013   |
| Data Size    | 10 bytes |
| Instructions | 2        |

```
      00 01 02 03 04 05 06 07  08 09 0A 0B 0C 0D 0E 0F
      -- -- -- -- -- -- -- --  -- -- -- -- -- -- -- --
0010:          37 01 80 02 80  03 80 04 80 00              7.........   
```

#### Opcodes

```
  0: 0x0013 [0x37] UPDATE_EVENT_POSITION_AND_DIR: x=16.072*, z=-94.058*, y=2.199*, direction=10.6°*
  1: 0x001C [0x00] END_REQSTACK()
```

### Event 65535.4

#### Metadata

| Field        | Value     |
|--------------|-----------|
| Entrypoint   | 0x001D    |
| Data Size    | 121 bytes |
| Instructions | 24        |

```
      00 01 02 03 04 05 06 07  08 09 0A 0B 0C 0D 0E 0F
      -- -- -- -- -- -- -- --  -- -- -- -- -- -- -- --
0010:                                         32 05 80               2..
0020: 1F 00 06 80 07 80 03 80  1F 01 1F 00 08 80 09 80  ................
0030: 03 80 1F 01 1F 00 0A 80  0B 80 03 80 1F 01 1F 00  ................
0040: 0C 80 0D 80 03 80 1F 01  1F 00 0E 80 0F 80 03 80  ................
0050: 1F 01 1F 00 10 80 11 80  03 80 1F 01 1F 00 12 80  ................
0060: 13 80 03 80 1F 01 1F 00  01 80 02 80 03 80 1F 01  ................
0070: 1F 00 14 80 15 80 03 80  1F 01 02 4D 10 00 80 00  ...........M....
0080: 8C 00 27 05 16 61 0E 01  07 01 95 00 37 00 80 00  ..'..a......7...
0090: 80 00 80 00 80 00                                 ......          
```

#### Opcodes

```
  0: 0x001D [0x32] ExtData[1]->MainSpeed = 57* * 0.1
  1: 0x0020 [0x1F] MOVE_ENTITY: EventEntity moves to X=22.152*, Z=-95.901*, Y=2.199*
  2: 0x0028 [0x1F] MOVE_ENTITY: Update entity position (mode=1)
  3: 0x002A [0x1F] MOVE_ENTITY: EventEntity moves to X=23.034*, Z=-92.413*, Y=2.199*
  4: 0x0032 [0x1F] MOVE_ENTITY: Update entity position (mode=1)
  5: 0x0034 [0x1F] MOVE_ENTITY: EventEntity moves to X=8.394*, Z=-88.334*, Y=2.199*
  6: 0x003C [0x1F] MOVE_ENTITY: Update entity position (mode=1)
  7: 0x003E [0x1F] MOVE_ENTITY: EventEntity moves to X=6.666*, Z=-88.536*, Y=2.199*
  8: 0x0046 [0x1F] MOVE_ENTITY: Update entity position (mode=1)
  9: 0x0048 [0x1F] MOVE_ENTITY: EventEntity moves to X=6.513*, Z=-89.216*, Y=2.199*
 10: 0x0050 [0x1F] MOVE_ENTITY: Update entity position (mode=1)
 11: 0x0052 [0x1F] MOVE_ENTITY: EventEntity moves to X=8.940*, Z=-91.557*, Y=2.199*
 12: 0x005A [0x1F] MOVE_ENTITY: Update entity position (mode=1)
 13: 0x005C [0x1F] MOVE_ENTITY: EventEntity moves to X=11.390*, Z=-92.475*, Y=2.199*
 14: 0x0064 [0x1F] MOVE_ENTITY: Update entity position (mode=1)
 15: 0x0066 [0x1F] MOVE_ENTITY: EventEntity moves to X=16.072*, Z=-94.058*, Y=2.199*
 16: 0x006E [0x1F] MOVE_ENTITY: Update entity position (mode=1)
 17: 0x0070 [0x1F] MOVE_ENTITY: EventEntity moves to X=19.806*, Z=-95.324*, Y=2.199*
 18: 0x0078 [0x1F] MOVE_ENTITY: Update entity position (mode=1)
 19: 0x007A [0x02] IF !(Work_Zone[77] == 0*) GOTO 0x008C
 20: 0x0082 [0x27] REQ_SET(priority=0x05, entity_id=Unnamed NPC (ID: 17719574/0x010E6116), tag_num=0x07)
 21: 0x0089 [0x01] GOTO 0x0095
 22: 0x008C [0x37] UPDATE_EVENT_POSITION_AND_DIR: x=0.000*, z=0.000*, y=0.000*, direction=0.0°*

SUBROUTINE_0095:
 23: 0x0095 [0x00] END_REQSTACK()
```

### Event 65535.5

#### Metadata

| Field        | Value     |
|--------------|-----------|
| Entrypoint   | 0x0096    |
| Data Size    | 121 bytes |
| Instructions | 24        |

```
      00 01 02 03 04 05 06 07  08 09 0A 0B 0C 0D 0E 0F
      -- -- -- -- -- -- -- --  -- -- -- -- -- -- -- --
0090:                   32 05  80 1F 00 06 80 07 80 03        2.........
00A0: 80 1F 01 1F 00 08 80 09  80 03 80 1F 01 1F 00 0A  ................
00B0: 80 0B 80 03 80 1F 01 1F  00 0C 80 0D 80 03 80 1F  ................
00C0: 01 1F 00 0E 80 0F 80 03  80 1F 01 1F 00 10 80 11  ................
00D0: 80 03 80 1F 01 1F 00 12  80 13 80 03 80 1F 01 1F  ................
00E0: 00 01 80 02 80 03 80 1F  01 1F 00 14 80 15 80 03  ................
00F0: 80 1F 01 02 4D 10 00 80  00 05 01 27 05 16 61 0E  ....M......'..a.
0100: 01 06 01 0E 01 37 00 80  00 80 00 80 00 80 00     .....7......... 
```

#### Opcodes

```
  0: 0x0096 [0x32] ExtData[1]->MainSpeed = 57* * 0.1
  1: 0x0099 [0x1F] MOVE_ENTITY: EventEntity moves to X=22.152*, Z=-95.901*, Y=2.199*
  2: 0x00A1 [0x1F] MOVE_ENTITY: Update entity position (mode=1)
  3: 0x00A3 [0x1F] MOVE_ENTITY: EventEntity moves to X=23.034*, Z=-92.413*, Y=2.199*
  4: 0x00AB [0x1F] MOVE_ENTITY: Update entity position (mode=1)
  5: 0x00AD [0x1F] MOVE_ENTITY: EventEntity moves to X=8.394*, Z=-88.334*, Y=2.199*
  6: 0x00B5 [0x1F] MOVE_ENTITY: Update entity position (mode=1)
  7: 0x00B7 [0x1F] MOVE_ENTITY: EventEntity moves to X=6.666*, Z=-88.536*, Y=2.199*
  8: 0x00BF [0x1F] MOVE_ENTITY: Update entity position (mode=1)
  9: 0x00C1 [0x1F] MOVE_ENTITY: EventEntity moves to X=6.513*, Z=-89.216*, Y=2.199*
 10: 0x00C9 [0x1F] MOVE_ENTITY: Update entity position (mode=1)
 11: 0x00CB [0x1F] MOVE_ENTITY: EventEntity moves to X=8.940*, Z=-91.557*, Y=2.199*
 12: 0x00D3 [0x1F] MOVE_ENTITY: Update entity position (mode=1)
 13: 0x00D5 [0x1F] MOVE_ENTITY: EventEntity moves to X=11.390*, Z=-92.475*, Y=2.199*
 14: 0x00DD [0x1F] MOVE_ENTITY: Update entity position (mode=1)
 15: 0x00DF [0x1F] MOVE_ENTITY: EventEntity moves to X=16.072*, Z=-94.058*, Y=2.199*
 16: 0x00E7 [0x1F] MOVE_ENTITY: Update entity position (mode=1)
 17: 0x00E9 [0x1F] MOVE_ENTITY: EventEntity moves to X=19.806*, Z=-95.324*, Y=2.199*
 18: 0x00F1 [0x1F] MOVE_ENTITY: Update entity position (mode=1)
 19: 0x00F3 [0x02] IF !(Work_Zone[77] == 0*) GOTO 0x0105
 20: 0x00FB [0x27] REQ_SET(priority=0x05, entity_id=Unnamed NPC (ID: 17719574/0x010E6116), tag_num=0x06)
 21: 0x0102 [0x01] GOTO 0x010E
 22: 0x0105 [0x37] UPDATE_EVENT_POSITION_AND_DIR: x=0.000*, z=0.000*, y=0.000*, direction=0.0°*

SUBROUTINE_010E:
 23: 0x010E [0x00] END_REQSTACK()
```

### Event 65535.6

#### Metadata

| Field        | Value    |
|--------------|----------|
| Entrypoint   | 0x010F   |
| Data Size    | 15 bytes |
| Instructions | 3        |

```
      00 01 02 03 04 05 06 07  08 09 0A 0B 0C 0D 0E 0F
      -- -- -- -- -- -- -- --  -- -- -- -- -- -- -- --
0100:                                               37                 7
0110: 16 80 17 80 03 80 18 80  80 F8 FF FF 7F 00        ..............  
```

#### Opcodes

```
  0: 0x010F [0x37] UPDATE_EVENT_POSITION_AND_DIR: x=28.508*, z=-100.685*, y=2.199*, direction=177.9°*
  1: 0x0118 [0x80] LOAD_WAIT(entity=EventEntity)
  2: 0x011D [0x00] END_REQSTACK()
```

### Event 65535.7

#### Metadata

| Field        | Value    |
|--------------|----------|
| Entrypoint   | 0x011E   |
| Data Size    | 14 bytes |
| Instructions | 4        |

```
      00 01 02 03 04 05 06 07  08 09 0A 0B 0C 0D 0E 0F
      -- -- -- -- -- -- -- --  -- -- -- -- -- -- -- --
0110:                                            32 05                2.
0120: 80 1F 00 19 80 1A 80 03  80 1F 01 00              ............    
```

#### Opcodes

```
  0: 0x011E [0x32] ExtData[1]->MainSpeed = 57* * 0.1
  1: 0x0121 [0x1F] MOVE_ENTITY: EventEntity moves to X=25.835*, Z=-100.165*, Y=2.199*
  2: 0x0129 [0x1F] MOVE_ENTITY: Update entity position (mode=1)
  3: 0x012B [0x00] END_REQSTACK()
```

### Event 65535.8

#### Metadata

| Field        | Value    |
|--------------|----------|
| Entrypoint   | 0x012C   |
| Data Size    | 11 bytes |
| Instructions | 3        |

```
      00 01 02 03 04 05 06 07  08 09 0A 0B 0C 0D 0E 0F
      -- -- -- -- -- -- -- --  -- -- -- -- -- -- -- --
0120:                                      1F 00 1B 80              ....
0130: 1C 80 03 80 1F 01 00                              .......         
```

#### Opcodes

```
  0: 0x012C [0x1F] MOVE_ENTITY: EventEntity moves to X=21.675*, Z=-100.470*, Y=2.199*
  1: 0x0134 [0x1F] MOVE_ENTITY: Update entity position (mode=1)
  2: 0x0136 [0x00] END_REQSTACK()
```

### Event 65535.9

#### Metadata

| Field        | Value    |
|--------------|----------|
| Entrypoint   | 0x0137   |
| Data Size    | 11 bytes |
| Instructions | 3        |

```
      00 01 02 03 04 05 06 07  08 09 0A 0B 0C 0D 0E 0F
      -- -- -- -- -- -- -- --  -- -- -- -- -- -- -- --
0130:                      1F  00 1D 80 1E 80 03 80 1F         .........
0140: 01 00                                             ..              
```

#### Opcodes

```
  0: 0x0137 [0x1F] MOVE_ENTITY: EventEntity moves to X=18.439*, Z=-100.706*, Y=2.199*
  1: 0x013F [0x1F] MOVE_ENTITY: Update entity position (mode=1)
  2: 0x0141 [0x00] END_REQSTACK()
```

### Event 65535.10

#### Metadata

| Field        | Value    |
|--------------|----------|
| Entrypoint   | 0x0142   |
| Data Size    | 11 bytes |
| Instructions | 3        |

```
      00 01 02 03 04 05 06 07  08 09 0A 0B 0C 0D 0E 0F
      -- -- -- -- -- -- -- --  -- -- -- -- -- -- -- --
0140:       1F 00 1F 80 20 80  03 80 1F 01 00             .... ......   
```

#### Opcodes

```
  0: 0x0142 [0x1F] MOVE_ENTITY: EventEntity moves to X=15.479*, Z=-101.027*, Y=2.199*
  1: 0x014A [0x1F] MOVE_ENTITY: Update entity position (mode=1)
  2: 0x014C [0x00] END_REQSTACK()
```

### Event 65535.11

#### Metadata

| Field        | Value    |
|--------------|----------|
| Entrypoint   | 0x014D   |
| Data Size    | 14 bytes |
| Instructions | 4        |

```
      00 01 02 03 04 05 06 07  08 09 0A 0B 0C 0D 0E 0F
      -- -- -- -- -- -- -- --  -- -- -- -- -- -- -- --
0140:                                         32 05 80               2..
0150: 1F 00 21 80 22 80 03 80  1F 01 00                 ..!."......     
```

#### Opcodes

```
  0: 0x014D [0x32] ExtData[1]->MainSpeed = 57* * 0.1
  1: 0x0150 [0x1F] MOVE_ENTITY: EventEntity moves to X=25.555*, Z=-97.583*, Y=2.199*
  2: 0x0158 [0x1F] MOVE_ENTITY: Update entity position (mode=1)
  3: 0x015A [0x00] END_REQSTACK()
```

### Event 65535.12

#### Metadata

| Field        | Value    |
|--------------|----------|
| Entrypoint   | 0x015B   |
| Data Size    | 22 bytes |
| Instructions | 5        |

```
      00 01 02 03 04 05 06 07  08 09 0A 0B 0C 0D 0E 0F
      -- -- -- -- -- -- -- --  -- -- -- -- -- -- -- --
0150:                                   95 23 80 B6 00             .#...
0160: 24 80 37 25 80 26 80 27  80 28 80 80 F8 FF FF 7F  $.7%.&.'.(......
0170: 00                                                .               
```

#### Opcodes

```
  0: 0x015B [0x95] SETUP_EVENT_NPC: Prepare NPC for event (Render.Flags3 = 3*)
  1: 0x015E [0xB6] ENTITY_APPEARANCE_HANDLER(case=Hair style, value=205*)
  2: 0x0162 [0x37] UPDATE_EVENT_POSITION_AND_DIR: x=-19.124*, z=-9.530*, y=1.999*, direction=268.4°*
  3: 0x016B [0x80] LOAD_WAIT(entity=EventEntity)
  4: 0x0170 [0x00] END_REQSTACK()
```

### Event 65535.13

#### Metadata

| Field        | Value   |
|--------------|---------|
| Entrypoint   | 0x0171  |
| Data Size    | 2 bytes |
| Instructions | 2       |

```
      00 01 02 03 04 05 06 07  08 09 0A 0B 0C 0D 0E 0F
      -- -- -- -- -- -- -- --  -- -- -- -- -- -- -- --
0170:    96 00                                           ..             
```

#### Opcodes

```
  0: 0x0171 [0x96] UNSET_EVENT_NPC: Restore NPC after event (removes event NPC status)
  1: 0x0172 [0x00] END_REQSTACK()
```

### Event 861

#### Metadata

| Field        | Value   |
|--------------|---------|
| Entrypoint   | 0x0173  |
| Data Size    | 1 bytes |
| Instructions | 1       |

```
      00 01 02 03 04 05 06 07  08 09 0A 0B 0C 0D 0E 0F
      -- -- -- -- -- -- -- --  -- -- -- -- -- -- -- --
0170:          00                                          .            
```

#### Opcodes

```
  0: 0x0173 [0x00] END_REQSTACK()
```

### Event 65535.14

#### Metadata

| Field        | Value    |
|--------------|----------|
| Entrypoint   | 0x0174   |
| Data Size    | 15 bytes |
| Instructions | 3        |

```
      00 01 02 03 04 05 06 07  08 09 0A 0B 0C 0D 0E 0F
      -- -- -- -- -- -- -- --  -- -- -- -- -- -- -- --
0170:             37 29 80 2A  80 2B 80 2C 80 03 04 00      7).*.+.,....
0180: 00 80 00                                          ...             
```

#### Opcodes

```
  0: 0x0174 [0x37] UPDATE_EVENT_POSITION_AND_DIR: x=-601.000*, z=609.048*, y=0.250*, direction=222.8°*
  1: 0x017D [0x03] ExtData[1]->WorkLocal[4] = 0*
  2: 0x0182 [0x00] END_REQSTACK()
```

### Event 65535.15

#### Metadata

| Field        | Value    |
|--------------|----------|
| Entrypoint   | 0x0183   |
| Data Size    | 45 bytes |
| Instructions | 10       |

```
      00 01 02 03 04 05 06 07  08 09 0A 0B 0C 0D 0E 0F
      -- -- -- -- -- -- -- --  -- -- -- -- -- -- -- --
0180:          02 04 00 00 80  00 AF 01 32 2D 80 1F 00     ........2-...
0190: 2E 80 2F 80 30 80 1F 01  1F 00 31 80 32 80 33 80  ../.0.....1.2.3.
01A0: 1F 01 1F 00 34 80 35 80  36 80 1F 01 01 83 01 00  ....4.5.6.......
```

#### Opcodes

```
  0: 0x0183 [0x02] IF !(ExtData[1]->WorkLocal[4] == 0*) GOTO 0x01AF
  1: 0x018B [0x32] ExtData[1]->MainSpeed = 10* * 0.1
  2: 0x018E [0x1F] MOVE_ENTITY: EventEntity moves to X=-602.788*, Z=610.368*, Y=0.316*
  3: 0x0196 [0x1F] MOVE_ENTITY: Update entity position (mode=1)
  4: 0x0198 [0x1F] MOVE_ENTITY: EventEntity moves to X=-605.459*, Z=605.068*, Y=0.123*
  5: 0x01A0 [0x1F] MOVE_ENTITY: Update entity position (mode=1)
  6: 0x01A2 [0x1F] MOVE_ENTITY: EventEntity moves to X=-603.359*, Z=608.272*, Y=0.211*
  7: 0x01AA [0x1F] MOVE_ENTITY: Update entity position (mode=1)
  8: 0x01AC [0x01] GOTO 0x0183
  9: 0x01AF [0x00] END_REQSTACK()
```

### Event 65535.16

#### Metadata

| Field        | Value    |
|--------------|----------|
| Entrypoint   | 0x01B0   |
| Data Size    | 45 bytes |
| Instructions | 10       |

```
      00 01 02 03 04 05 06 07  08 09 0A 0B 0C 0D 0E 0F
      -- -- -- -- -- -- -- --  -- -- -- -- -- -- -- --
01B0: 02 04 00 37 80 01 DC 01  32 38 80 1F 00 2E 80 2F  ...7....28...../
01C0: 80 30 80 1F 01 1F 00 31  80 32 80 33 80 1F 01 1F  .0.....1.2.3....
01D0: 00 34 80 35 80 36 80 1F  01 01 B0 01 00           .4.5.6.......   
```

#### Opcodes

```
  0: 0x01B0 [0x02] IF !(ExtData[1]->WorkLocal[4] == 2*) GOTO 0x01DC
  1: 0x01B8 [0x32] ExtData[1]->MainSpeed = 19* * 0.1
  2: 0x01BB [0x1F] MOVE_ENTITY: EventEntity moves to X=-602.788*, Z=610.368*, Y=0.316*
  3: 0x01C3 [0x1F] MOVE_ENTITY: Update entity position (mode=1)
  4: 0x01C5 [0x1F] MOVE_ENTITY: EventEntity moves to X=-605.459*, Z=605.068*, Y=0.123*
  5: 0x01CD [0x1F] MOVE_ENTITY: Update entity position (mode=1)
  6: 0x01CF [0x1F] MOVE_ENTITY: EventEntity moves to X=-603.359*, Z=608.272*, Y=0.211*
  7: 0x01D7 [0x1F] MOVE_ENTITY: Update entity position (mode=1)
  8: 0x01D9 [0x01] GOTO 0x01B0
  9: 0x01DC [0x00] END_REQSTACK()
```

### Event 65535.17

#### Metadata

| Field        | Value   |
|--------------|---------|
| Entrypoint   | 0x01DD  |
| Data Size    | 6 bytes |
| Instructions | 2       |

```
      00 01 02 03 04 05 06 07  08 09 0A 0B 0C 0D 0E 0F
      -- -- -- -- -- -- -- --  -- -- -- -- -- -- -- --
01D0:                                         03 04 00               ...
01E0: 37 80 00                                          7..             
```

#### Opcodes

```
  0: 0x01DD [0x03] ExtData[1]->WorkLocal[4] = 2*
  1: 0x01E2 [0x00] END_REQSTACK()
```

### Event 65535.18

#### Metadata

| Field        | Value    |
|--------------|----------|
| Entrypoint   | 0x01E3   |
| Data Size    | 15 bytes |
| Instructions | 3        |

```
      00 01 02 03 04 05 06 07  08 09 0A 0B 0C 0D 0E 0F
      -- -- -- -- -- -- -- --  -- -- -- -- -- -- -- --
01E0:          37 39 80 3A 80  3B 80 3C 80 80 F8 FF FF     79.:.;.<.....
01F0: 7F 00                                             ..              
```

#### Opcodes

```
  0: 0x01E3 [0x37] UPDATE_EVENT_POSITION_AND_DIR: x=-600.128*, z=585.578*, y=0.628*, direction=25.0°*
  1: 0x01EC [0x80] LOAD_WAIT(entity=EventEntity)
  2: 0x01F1 [0x00] END_REQSTACK()
```

### Event 65535.19

#### Metadata

| Field        | Value    |
|--------------|----------|
| Entrypoint   | 0x01F2   |
| Data Size    | 54 bytes |
| Instructions | 12       |

```
      00 01 02 03 04 05 06 07  08 09 0A 0B 0C 0D 0E 0F
      -- -- -- -- -- -- -- --  -- -- -- -- -- -- -- --
01F0:       32 2D 80 1F 00 3D  80 3E 80 3F 80 1F 01 1F    2-...=.>.?....
0200: 00 40 80 41 80 42 80 1F  01 1F 00 43 80 44 80 45  .@.A.B.....C.D.E
0210: 80 1F 01 1F 00 46 80 47  80 48 80 1F 01 1F 00 39  .....F.G.H.....9
0220: 80 3A 80 3B 80 1F 01 00                           .:.;....        
```

#### Opcodes

```
  0: 0x01F2 [0x32] ExtData[1]->MainSpeed = 10* * 0.1
  1: 0x01F5 [0x1F] MOVE_ENTITY: EventEntity moves to X=-601.910*, Z=587.743*, Y=0.274*
  2: 0x01FD [0x1F] MOVE_ENTITY: Update entity position (mode=1)
  3: 0x01FF [0x1F] MOVE_ENTITY: EventEntity moves to X=-600.199*, Z=588.994*, Y=0.347*
  4: 0x0207 [0x1F] MOVE_ENTITY: Update entity position (mode=1)
  5: 0x0209 [0x1F] MOVE_ENTITY: EventEntity moves to X=-599.211*, Z=586.089*, Y=0.586*
  6: 0x0211 [0x1F] MOVE_ENTITY: Update entity position (mode=1)
  7: 0x0213 [0x1F] MOVE_ENTITY: EventEntity moves to X=-599.391*, Z=583.375*, Y=0.830*
  8: 0x021B [0x1F] MOVE_ENTITY: Update entity position (mode=1)
  9: 0x021D [0x1F] MOVE_ENTITY: EventEntity moves to X=-600.128*, Z=585.578*, Y=0.628*
 10: 0x0225 [0x1F] MOVE_ENTITY: Update entity position (mode=1)
 11: 0x0227 [0x00] END_REQSTACK()
```

### Event 65535.20

#### Metadata

| Field        | Value    |
|--------------|----------|
| Entrypoint   | 0x0228   |
| Data Size    | 66 bytes |
| Instructions | 16       |

```
      00 01 02 03 04 05 06 07  08 09 0A 0B 0C 0D 0E 0F
      -- -- -- -- -- -- -- --  -- -- -- -- -- -- -- --
0220:                          32 38 80 1F 00 3D 80 3E          28...=.>
0230: 80 3F 80 1F 01 1C 49 80  1F 00 40 80 41 80 42 80  .?....I...@.A.B.
0240: 1F 01 1C 49 80 1F 00 43  80 44 80 45 80 1F 01 1C  ...I...C.D.E....
0250: 49 80 1F 00 46 80 47 80  48 80 1F 01 1C 49 80 1F  I...F.G.H....I..
0260: 00 39 80 3A 80 3B 80 1F  01 00                    .9.:.;....      
```

#### Opcodes

```
  0: 0x0228 [0x32] ExtData[1]->MainSpeed = 19* * 0.1
  1: 0x022B [0x1F] MOVE_ENTITY: EventEntity moves to X=-601.910*, Z=587.743*, Y=0.274*
  2: 0x0233 [0x1F] MOVE_ENTITY: Update entity position (mode=1)
  3: 0x0235 [0x1C] WAIT(30* ticks)
  4: 0x0238 [0x1F] MOVE_ENTITY: EventEntity moves to X=-600.199*, Z=588.994*, Y=0.347*
  5: 0x0240 [0x1F] MOVE_ENTITY: Update entity position (mode=1)
  6: 0x0242 [0x1C] WAIT(30* ticks)
  7: 0x0245 [0x1F] MOVE_ENTITY: EventEntity moves to X=-599.211*, Z=586.089*, Y=0.586*
  8: 0x024D [0x1F] MOVE_ENTITY: Update entity position (mode=1)
  9: 0x024F [0x1C] WAIT(30* ticks)
 10: 0x0252 [0x1F] MOVE_ENTITY: EventEntity moves to X=-599.391*, Z=583.375*, Y=0.830*
 11: 0x025A [0x1F] MOVE_ENTITY: Update entity position (mode=1)
 12: 0x025C [0x1C] WAIT(30* ticks)
 13: 0x025F [0x1F] MOVE_ENTITY: EventEntity moves to X=-600.128*, Z=585.578*, Y=0.628*
 14: 0x0267 [0x1F] MOVE_ENTITY: Update entity position (mode=1)
 15: 0x0269 [0x00] END_REQSTACK()
```

### Event 65535.21

#### Metadata

| Field        | Value    |
|--------------|----------|
| Entrypoint   | 0x026A   |
| Data Size    | 15 bytes |
| Instructions | 3        |

```
      00 01 02 03 04 05 06 07  08 09 0A 0B 0C 0D 0E 0F
      -- -- -- -- -- -- -- --  -- -- -- -- -- -- -- --
0260:                                37 4A 80 4B 80 4C            7J.K.L
0270: 80 4D 80 80 F8 FF FF 7F  00                       .M.......       
```

#### Opcodes

```
  0: 0x026A [0x37] UPDATE_EVENT_POSITION_AND_DIR: x=-601.165*, z=586.560*, y=0.464*, direction=22.6°*
  1: 0x0273 [0x80] LOAD_WAIT(entity=EventEntity)
  2: 0x0278 [0x00] END_REQSTACK()
```

### Event 65535.22

#### Metadata

| Field        | Value    |
|--------------|----------|
| Entrypoint   | 0x0279   |
| Data Size    | 73 bytes |
| Instructions | 17       |

```
      00 01 02 03 04 05 06 07  08 09 0A 0B 0C 0D 0E 0F
      -- -- -- -- -- -- -- --  -- -- -- -- -- -- -- --
0270:                             32 38 80 1F 00 3D 80           28...=.
0280: 3E 80 3F 80 1F 01 1F 00  40 80 41 80 42 80 1F 01  >.?.....@.A.B...
0290: 1F 00 43 80 44 80 45 80  1F 01 1F 00 46 80 47 80  ..C.D.E.....F.G.
02A0: 48 80 1F 01 1C 49 80 1E  13 61 0E 01 1C 4E 80 1F  H....I...a...N..
02B0: 00 4F 80 50 80 51 80 1F  01 1C 49 80 1E 13 61 0E  .O.P.Q....I...a.
02C0: 01 00                                             ..              
```

#### Opcodes

```
  0: 0x0279 [0x32] ExtData[1]->MainSpeed = 19* * 0.1
  1: 0x027C [0x1F] MOVE_ENTITY: EventEntity moves to X=-601.910*, Z=587.743*, Y=0.274*
  2: 0x0284 [0x1F] MOVE_ENTITY: Update entity position (mode=1)
  3: 0x0286 [0x1F] MOVE_ENTITY: EventEntity moves to X=-600.199*, Z=588.994*, Y=0.347*
  4: 0x028E [0x1F] MOVE_ENTITY: Update entity position (mode=1)
  5: 0x0290 [0x1F] MOVE_ENTITY: EventEntity moves to X=-599.211*, Z=586.089*, Y=0.586*
  6: 0x0298 [0x1F] MOVE_ENTITY: Update entity position (mode=1)
  7: 0x029A [0x1F] MOVE_ENTITY: EventEntity moves to X=-599.391*, Z=583.375*, Y=0.830*
  8: 0x02A2 [0x1F] MOVE_ENTITY: Update entity position (mode=1)
  9: 0x02A4 [0x1C] WAIT(30* ticks)
 10: 0x02A7 [0x1E] EventEntity looks at Unnamed NPC (ID: 17719571/0x010E6113) and starts talking
 11: 0x02AC [0x1C] WAIT(120* ticks)
 12: 0x02AF [0x1F] MOVE_ENTITY: EventEntity moves to X=-602.007*, Z=587.764*, Y=0.268*
 13: 0x02B7 [0x1F] MOVE_ENTITY: Update entity position (mode=1)
 14: 0x02B9 [0x1C] WAIT(30* ticks)
 15: 0x02BC [0x1E] EventEntity looks at Unnamed NPC (ID: 17719571/0x010E6113) and starts talking
 16: 0x02C1 [0x00] END_REQSTACK()
```

### Event 65535.23

#### Metadata

| Field        | Value    |
|--------------|----------|
| Entrypoint   | 0x02C2   |
| Data Size    | 50 bytes |
| Instructions | 12       |

```
      00 01 02 03 04 05 06 07  08 09 0A 0B 0C 0D 0E 0F
      -- -- -- -- -- -- -- --  -- -- -- -- -- -- -- --
02C0:       32 2D 80 1F 00 52  80 53 80 54 80 1F 01 1C    2-...R.S.T....
02D0: 55 80 1F 00 56 80 57 80  58 80 1F 01 1C 55 80 1F  U...V.W.X....U..
02E0: 00 39 80 3A 80 3B 80 1F  01 4B 16 61 0E 01 59 80  .9.:.;...K.a..Y.
02F0: 1C 55 80 00                                       .U..            
```

#### Opcodes

```
  0: 0x02C2 [0x32] ExtData[1]->MainSpeed = 10* * 0.1
  1: 0x02C5 [0x1F] MOVE_ENTITY: EventEntity moves to X=-600.221*, Z=588.558*, Y=0.369*
  2: 0x02CD [0x1F] MOVE_ENTITY: Update entity position (mode=1)
  3: 0x02CF [0x1C] WAIT(60* ticks)
  4: 0x02D2 [0x1F] MOVE_ENTITY: EventEntity moves to X=-602.144*, Z=586.825*, Y=0.376*
  5: 0x02DA [0x1F] MOVE_ENTITY: Update entity position (mode=1)
  6: 0x02DC [0x1C] WAIT(60* ticks)
  7: 0x02DF [0x1F] MOVE_ENTITY: EventEntity moves to X=-600.128*, Z=585.578*, Y=0.628*
  8: 0x02E7 [0x1F] MOVE_ENTITY: Update entity position (mode=1)
  9: 0x02E9 [0x4B] UPDATE_ENTITY_YAW(entity=Unnamed NPC (ID: 17719574/0x010E6116), yaw=11.8°*)
 10: 0x02F0 [0x1C] WAIT(60* ticks)
 11: 0x02F3 [0x00] END_REQSTACK()
```

### Event 65535.24

#### Metadata

| Field        | Value    |
|--------------|----------|
| Entrypoint   | 0x02F4   |
| Data Size    | 50 bytes |
| Instructions | 12       |

```
      00 01 02 03 04 05 06 07  08 09 0A 0B 0C 0D 0E 0F
      -- -- -- -- -- -- -- --  -- -- -- -- -- -- -- --
02F0:             32 38 80 1F  00 5A 80 5B 80 5C 80 1F      28...Z.[.\..
0300: 01 1C 55 80 1F 00 56 80  57 80 58 80 1F 01 1C 55  ..U...V.W.X....U
0310: 80 1F 00 39 80 3A 80 3B  80 1F 01 4B 16 61 0E 01  ...9.:.;...K.a..
0320: 59 80 1C 55 80 00                                 Y..U..          
```

#### Opcodes

```
  0: 0x02F4 [0x32] ExtData[1]->MainSpeed = 19* * 0.1
  1: 0x02F7 [0x1F] MOVE_ENTITY: EventEntity moves to X=-599.892*, Z=588.477*, Y=0.373*
  2: 0x02FF [0x1F] MOVE_ENTITY: Update entity position (mode=1)
  3: 0x0301 [0x1C] WAIT(60* ticks)
  4: 0x0304 [0x1F] MOVE_ENTITY: EventEntity moves to X=-602.144*, Z=586.825*, Y=0.376*
  5: 0x030C [0x1F] MOVE_ENTITY: Update entity position (mode=1)
  6: 0x030E [0x1C] WAIT(60* ticks)
  7: 0x0311 [0x1F] MOVE_ENTITY: EventEntity moves to X=-600.128*, Z=585.578*, Y=0.628*
  8: 0x0319 [0x1F] MOVE_ENTITY: Update entity position (mode=1)
  9: 0x031B [0x4B] UPDATE_ENTITY_YAW(entity=Unnamed NPC (ID: 17719574/0x010E6116), yaw=11.8°*)
 10: 0x0322 [0x1C] WAIT(60* ticks)
 11: 0x0325 [0x00] END_REQSTACK()
```

### Event 65535.25

#### Metadata

| Field        | Value    |
|--------------|----------|
| Entrypoint   | 0x0326   |
| Data Size    | 67 bytes |
| Instructions | 15       |

```
      00 01 02 03 04 05 06 07  08 09 0A 0B 0C 0D 0E 0F
      -- -- -- -- -- -- -- --  -- -- -- -- -- -- -- --
0320:                   32 05  80 1F 00 5D 80 5E 80 5F        2....].^._
0330: 80 1F 01 4B 16 61 0E 01  60 80 1C 55 80 1F 00 61  ...K.a..`..U...a
0340: 80 62 80 63 80 1F 01 4B  16 61 0E 01 64 80 1C 65  .b.c...K.a..d..e
0350: 80 1F 00 66 80 67 80 68  80 1F 01 1C 49 80 4B 16  ...f.g.h....I.K.
0360: 61 0E 01 69 80 1C 55 80  00                       a..i..U..       
```

#### Opcodes

```
  0: 0x0326 [0x32] ExtData[1]->MainSpeed = 57* * 0.1
  1: 0x0329 [0x1F] MOVE_ENTITY: EventEntity moves to X=-599.295*, Z=590.678*, Y=0.264*
  2: 0x0331 [0x1F] MOVE_ENTITY: Update entity position (mode=1)
  3: 0x0333 [0x4B] UPDATE_ENTITY_YAW(entity=Unnamed NPC (ID: 17719574/0x010E6116), yaw=5.3°*)
  4: 0x033A [0x1C] WAIT(60* ticks)
  5: 0x033D [0x1F] MOVE_ENTITY: EventEntity moves to X=-604.353*, Z=586.292*, Y=0.138*
  6: 0x0345 [0x1F] MOVE_ENTITY: Update entity position (mode=1)
  7: 0x0347 [0x4B] UPDATE_ENTITY_YAW(entity=Unnamed NPC (ID: 17719574/0x010E6116), yaw=0.2°*)
  8: 0x034E [0x1C] WAIT(240* ticks)
  9: 0x0351 [0x1F] MOVE_ENTITY: EventEntity moves to X=-600.328*, Z=582.410*, Y=0.802*
 10: 0x0359 [0x1F] MOVE_ENTITY: Update entity position (mode=1)
 11: 0x035B [0x1C] WAIT(30* ticks)
 12: 0x035E [0x4B] UPDATE_ENTITY_YAW(entity=Unnamed NPC (ID: 17719574/0x010E6116), yaw=16.6°*)
 13: 0x0365 [0x1C] WAIT(60* ticks)
 14: 0x0368 [0x00] END_REQSTACK()
```

### Event 65535.26

#### Metadata

| Field        | Value    |
|--------------|----------|
| Entrypoint   | 0x0369   |
| Data Size    | 14 bytes |
| Instructions | 4        |

```
      00 01 02 03 04 05 06 07  08 09 0A 0B 0C 0D 0E 0F
      -- -- -- -- -- -- -- --  -- -- -- -- -- -- -- --
0360:                             32 2D 80 1F 00 6A 80           2-...j.
0370: 6B 80 6C 80 1F 01 00                              k.l....         
```

#### Opcodes

```
  0: 0x0369 [0x32] ExtData[1]->MainSpeed = 10* * 0.1
  1: 0x036C [0x1F] MOVE_ENTITY: EventEntity moves to X=-599.148*, Z=589.043*, Y=0.345*
  2: 0x0374 [0x1F] MOVE_ENTITY: Update entity position (mode=1)
  3: 0x0376 [0x00] END_REQSTACK()
```

### Event 65535.27

#### Metadata

| Field        | Value    |
|--------------|----------|
| Entrypoint   | 0x0377   |
| Data Size    | 51 bytes |
| Instructions | 11       |

```
      00 01 02 03 04 05 06 07  08 09 0A 0B 0C 0D 0E 0F
      -- -- -- -- -- -- -- --  -- -- -- -- -- -- -- --
0370:                      32  2D 80 1F 00 6D 80 6E 80         2-...m.n.
0380: 05 80 1F 01 1F 00 6F 80  70 80 71 80 1F 01 1F 00  ......o.p.q.....
0390: 72 80 73 80 74 80 1F 01  1E 13 61 0E 01 1C 49 80  r.s.t.....a...I.
03A0: 4A 13 61 0E 01 14 61 0E  01 00                    J.a...a...      
```

#### Opcodes

```
  0: 0x0377 [0x32] ExtData[1]->MainSpeed = 10* * 0.1
  1: 0x037A [0x1F] MOVE_ENTITY: EventEntity moves to X=-604.257*, Z=586.573*, Y=0.057*
  2: 0x0382 [0x1F] MOVE_ENTITY: Update entity position (mode=1)
  3: 0x0384 [0x1F] MOVE_ENTITY: EventEntity moves to X=-603.318*, Z=588.527*, Y=0.196*
  4: 0x038C [0x1F] MOVE_ENTITY: Update entity position (mode=1)
  5: 0x038E [0x1F] MOVE_ENTITY: EventEntity moves to X=-601.495*, Z=586.040*, Y=0.496*
  6: 0x0396 [0x1F] MOVE_ENTITY: Update entity position (mode=1)
  7: 0x0398 [0x1E] EventEntity looks at Unnamed NPC (ID: 17719571/0x010E6113) and starts talking
  8: 0x039D [0x1C] WAIT(30* ticks)
  9: 0x03A0 [0x4A] Unnamed NPC (ID: 17719571/0x010E6113) looks at Unnamed NPC (ID: 17719572/0x010E6114)
 10: 0x03A9 [0x00] END_REQSTACK()
```

### Event 65535.28

#### Metadata

| Field        | Value    |
|--------------|----------|
| Entrypoint   | 0x03AA   |
| Data Size    | 14 bytes |
| Instructions | 4        |

```
      00 01 02 03 04 05 06 07  08 09 0A 0B 0C 0D 0E 0F
      -- -- -- -- -- -- -- --  -- -- -- -- -- -- -- --
03A0:                                32 05 80 1F 00 6A            2....j
03B0: 80 6B 80 6C 80 1F 01 00                           .k.l....        
```

#### Opcodes

```
  0: 0x03AA [0x32] ExtData[1]->MainSpeed = 57* * 0.1
  1: 0x03AD [0x1F] MOVE_ENTITY: EventEntity moves to X=-599.148*, Z=589.043*, Y=0.345*
  2: 0x03B5 [0x1F] MOVE_ENTITY: Update entity position (mode=1)
  3: 0x03B7 [0x00] END_REQSTACK()
```

### Event 65535.29

#### Metadata

| Field        | Value    |
|--------------|----------|
| Entrypoint   | 0x03B8   |
| Data Size    | 51 bytes |
| Instructions | 11       |

```
      00 01 02 03 04 05 06 07  08 09 0A 0B 0C 0D 0E 0F
      -- -- -- -- -- -- -- --  -- -- -- -- -- -- -- --
03B0:                          32 05 80 1F 00 6D 80 6E          2....m.n
03C0: 80 05 80 1F 01 1F 00 6F  80 70 80 71 80 1F 01 1F  .......o.p.q....
03D0: 00 72 80 73 80 74 80 1F  01 1E 13 61 0E 01 1C 49  .r.s.t.....a...I
03E0: 80 4A 13 61 0E 01 16 61  0E 01 00                 .J.a...a...     
```

#### Opcodes

```
  0: 0x03B8 [0x32] ExtData[1]->MainSpeed = 57* * 0.1
  1: 0x03BB [0x1F] MOVE_ENTITY: EventEntity moves to X=-604.257*, Z=586.573*, Y=0.057*
  2: 0x03C3 [0x1F] MOVE_ENTITY: Update entity position (mode=1)
  3: 0x03C5 [0x1F] MOVE_ENTITY: EventEntity moves to X=-603.318*, Z=588.527*, Y=0.196*
  4: 0x03CD [0x1F] MOVE_ENTITY: Update entity position (mode=1)
  5: 0x03CF [0x1F] MOVE_ENTITY: EventEntity moves to X=-601.495*, Z=586.040*, Y=0.496*
  6: 0x03D7 [0x1F] MOVE_ENTITY: Update entity position (mode=1)
  7: 0x03D9 [0x1E] EventEntity looks at Unnamed NPC (ID: 17719571/0x010E6113) and starts talking
  8: 0x03DE [0x1C] WAIT(30* ticks)
  9: 0x03E1 [0x4A] Unnamed NPC (ID: 17719571/0x010E6113) looks at Unnamed NPC (ID: 17719574/0x010E6116)
 10: 0x03EA [0x00] END_REQSTACK()
```

### Event 65535.30

#### Metadata

| Field        | Value    |
|--------------|----------|
| Entrypoint   | 0x03EB   |
| Data Size    | 59 bytes |
| Instructions | 13       |

```
      00 01 02 03 04 05 06 07  08 09 0A 0B 0C 0D 0E 0F
      -- -- -- -- -- -- -- --  -- -- -- -- -- -- -- --
03E0:                                   32 2D 80 1F 00             2-...
03F0: 75 80 76 80 77 80 1F 01  1F 00 78 80 79 80 7A 80  u.v.w.....x.y.z.
0400: 1F 01 1F 00 7B 80 7C 80  7D 80 1F 01 1F 00 7E 80  ....{.|.}.....~.
0410: 7F 80 80 80 1F 01 1F 00  81 80 82 80 83 80 1F 01  ................
0420: 1E 13 61 0E 01 00                                 ..a...          
```

#### Opcodes

```
  0: 0x03EB [0x32] ExtData[1]->MainSpeed = 10* * 0.1
  1: 0x03EE [0x1F] MOVE_ENTITY: EventEntity moves to X=-601.361*, Z=584.507*, Y=0.542*
  2: 0x03F6 [0x1F] MOVE_ENTITY: Update entity position (mode=1)
  3: 0x03F8 [0x1F] MOVE_ENTITY: EventEntity moves to X=-600.414*, Z=583.859*, Y=0.704*
  4: 0x0400 [0x1F] MOVE_ENTITY: Update entity position (mode=1)
  5: 0x0402 [0x1F] MOVE_ENTITY: EventEntity moves to X=-599.376*, Z=585.276*, Y=0.668*
  6: 0x040A [0x1F] MOVE_ENTITY: Update entity position (mode=1)
  7: 0x040C [0x1F] MOVE_ENTITY: EventEntity moves to X=-598.992*, Z=587.260*, Y=0.468*
  8: 0x0414 [0x1F] MOVE_ENTITY: Update entity position (mode=1)
  9: 0x0416 [0x1F] MOVE_ENTITY: EventEntity moves to X=-599.942*, Z=587.474*, Y=0.447*
 10: 0x041E [0x1F] MOVE_ENTITY: Update entity position (mode=1)
 11: 0x0420 [0x1E] EventEntity looks at Unnamed NPC (ID: 17719571/0x010E6113) and starts talking
 12: 0x0425 [0x00] END_REQSTACK()
```

### Event 65535.31

#### Metadata

| Field        | Value    |
|--------------|----------|
| Entrypoint   | 0x0426   |
| Data Size    | 69 bytes |
| Instructions | 15       |

```
      00 01 02 03 04 05 06 07  08 09 0A 0B 0C 0D 0E 0F
      -- -- -- -- -- -- -- --  -- -- -- -- -- -- -- --
0420:                   32 05  80 1F 00 84 80 85 80 86        2.........
0430: 80 1F 01 1F 00 87 80 88  80 89 80 1F 01 1F 00 8A  ................
0440: 80 8B 80 8C 80 1F 01 1F  00 8D 80 8E 80 8F 80 1F  ................
0450: 01 1F 00 90 80 91 80 92  80 1F 01 1F 00 93 80 94  ................
0460: 80 95 80 1F 01 1E 13 61  0E 01 00                 .......a...     
```

#### Opcodes

```
  0: 0x0426 [0x32] ExtData[1]->MainSpeed = 57* * 0.1
  1: 0x0429 [0x1F] MOVE_ENTITY: EventEntity moves to X=-602.454*, Z=588.333*, Y=0.247*
  2: 0x0431 [0x1F] MOVE_ENTITY: Update entity position (mode=1)
  3: 0x0433 [0x1F] MOVE_ENTITY: EventEntity moves to X=-603.634*, Z=585.657*, Y=0.144*
  4: 0x043B [0x1F] MOVE_ENTITY: Update entity position (mode=1)
  5: 0x043D [0x1F] MOVE_ENTITY: EventEntity moves to X=-602.421*, Z=582.680*, Y=0.396*
  6: 0x0445 [0x1F] MOVE_ENTITY: Update entity position (mode=1)
  7: 0x0447 [0x1F] MOVE_ENTITY: EventEntity moves to X=-599.175*, Z=582.899*, Y=0.854*
  8: 0x044F [0x1F] MOVE_ENTITY: Update entity position (mode=1)
  9: 0x0451 [0x1F] MOVE_ENTITY: EventEntity moves to X=-598.432*, Z=587.737*, Y=0.410*
 10: 0x0459 [0x1F] MOVE_ENTITY: Update entity position (mode=1)
 11: 0x045B [0x1F] MOVE_ENTITY: EventEntity moves to X=-599.890*, Z=589.432*, Y=0.326*
 12: 0x0463 [0x1F] MOVE_ENTITY: Update entity position (mode=1)
 13: 0x0465 [0x1E] EventEntity looks at Unnamed NPC (ID: 17719571/0x010E6113) and starts talking
 14: 0x046A [0x00] END_REQSTACK()
```

### Event 65535.32

#### Metadata

| Field        | Value    |
|--------------|----------|
| Entrypoint   | 0x046B   |
| Data Size    | 15 bytes |
| Instructions | 3        |

```
      00 01 02 03 04 05 06 07  08 09 0A 0B 0C 0D 0E 0F
      -- -- -- -- -- -- -- --  -- -- -- -- -- -- -- --
0460:                                   37 4F 80 50 80             7O.P.
0470: 51 80 3C 80 80 F8 FF FF  7F 00                    Q.<.......      
```

#### Opcodes

```
  0: 0x046B [0x37] UPDATE_EVENT_POSITION_AND_DIR: x=-602.007*, z=587.764*, y=0.268*, direction=25.0°*
  1: 0x0474 [0x80] LOAD_WAIT(entity=EventEntity)
  2: 0x0479 [0x00] END_REQSTACK()
```
