# 17719824

## Common Data

| Field            | Value                         |
|------------------|-------------------------------|
| Zone             | Southern San d'Oria (ID: 230) |
| Block Size       | 220 bytes                     |
| Total Events     | 4                             |
| References Count | 10                            |

## List of Events

| Event ID                 | Entrypoint   |   Size |   Instructions |
|--------------------------|--------------|--------|----------------|
| [65535](#event-65535)    | 0x0000       |      1 |              1 |
| [897](#event-897)        | 0x0001       |      1 |              1 |
| [65535.1](#event-655351) | 0x0002       |     63 |             14 |
| [65535.2](#event-655352) | 0x0041       |     80 |             18 |

## DAT References (imed_data)

|   Index | Hex Value   |   Dec Value |
|---------|-------------|-------------|
|       0 | 0x0028      |          40 |
|       1 | 0x042D      |        1069 |
|       2 | 0xB016      |       45078 |
|       3 | 0xFFFFF831  |  4294965297 |
|       4 | 0x03D4      |         980 |
|       5 | 0x0078      |         120 |
|       6 | 0x0000      |           0 |
|       7 | 0x0008      |           8 |
|       8 | 0x003C      |          60 |
|       9 | 0x001E      |          30 |

## Events

### Event 65535

#### Metadata

| Field        | Value   |
|--------------|---------|
| Entrypoint   | 0x0000  |
| Data Size    | 1 bytes |
| Instructions | 1       |

```
      00 01 02 03 04 05 06 07  08 09 0A 0B 0C 0D 0E 0F
      -- -- -- -- -- -- -- --  -- -- -- -- -- -- -- --
0000: 00                                                .               
```

#### Opcodes

```
  0: 0x0000 [0x00] END_REQSTACK()
```

### Event 897

#### Metadata

| Field        | Value   |
|--------------|---------|
| Entrypoint   | 0x0001  |
| Data Size    | 1 bytes |
| Instructions | 1       |

```
      00 01 02 03 04 05 06 07  08 09 0A 0B 0C 0D 0E 0F
      -- -- -- -- -- -- -- --  -- -- -- -- -- -- -- --
0000:    00                                              .              
```

#### Opcodes

```
  0: 0x0001 [0x00] END_REQSTACK()
```

### Event 65535.1

#### Metadata

| Field        | Value    |
|--------------|----------|
| Entrypoint   | 0x0002   |
| Data Size    | 63 bytes |
| Instructions | 14       |

```
      00 01 02 03 04 05 06 07  08 09 0A 0B 0C 0D 0E 0F
      -- -- -- -- -- -- -- --  -- -- -- -- -- -- -- --
0000:       32 00 80 1F 00 01  80 02 80 03 80 1F 01 6F    2............o
0010: 4B F8 FF FF 7F 04 80 1C  05 80 02 53 10 06 80 00  K..........S....
0020: 31 00 6E F8 FF FF 7F 07  80 99 F8 FF FF 7F 01 3D  1.n............=
0030: 00 6E F8 FF FF 7F 06 80  99 F8 FF FF 7F 1C 05 80  .n..............
0040: 00                                                .               
```

#### Opcodes

```
  0: 0x0002 [0x32] ExtData[1]->MainSpeed = 40* * 0.1
  1: 0x0005 [0x1F] MOVE_ENTITY: EventEntity moves to X=1.069*, Z=45.078*, Y=-1.999*
  2: 0x000D [0x1F] MOVE_ENTITY: Update entity position (mode=1)
  3: 0x000F [0x6F] WAIT_FRAME_DELAY: Yield until WaitTime reaches zero
  4: 0x0010 [0x4B] UPDATE_ENTITY_YAW(entity=EventEntity, yaw=5.4°*)
  5: 0x0017 [0x1C] WAIT(120* ticks)
  6: 0x001A [0x02] IF !(Work_Zone[83] == 0*) GOTO 0x0031
  7: 0x0022 [0x6E] EventEntity uses emote 8*
  8: 0x0029 [0x99] Wait for EventEntity animation to complete
  9: 0x002E [0x01] GOTO 0x003D
 10: 0x0031 [0x6E] EventEntity uses emote 0*
 11: 0x0038 [0x99] Wait for EventEntity animation to complete

SUBROUTINE_003D:
 12: 0x003D [0x1C] WAIT(120* ticks)
 13: 0x0040 [0x00] END_REQSTACK()
```

### Event 65535.2

#### Metadata

| Field        | Value    |
|--------------|----------|
| Entrypoint   | 0x0041   |
| Data Size    | 80 bytes |
| Instructions | 18       |

```
      00 01 02 03 04 05 06 07  08 09 0A 0B 0C 0D 0E 0F
      -- -- -- -- -- -- -- --  -- -- -- -- -- -- -- --
0040:    32 00 80 1F 00 01 80  02 80 03 80 1F 01 6F 02   2............o.
0050: 53 10 06 80 00 5D 00 1C  08 80 01 60 00 1C 09 80  S....].....`....
0060: 4B F8 FF FF 7F 04 80 1C  05 80 02 53 10 06 80 00  K..........S....
0070: 81 00 6E F8 FF FF 7F 07  80 99 F8 FF FF 7F 01 8D  ..n.............
0080: 00 6E F8 FF FF 7F 06 80  99 F8 FF FF 7F 1C 05 80  .n..............
0090: 00                                                .               
```

#### Opcodes

```
  0: 0x0041 [0x32] ExtData[1]->MainSpeed = 40* * 0.1
  1: 0x0044 [0x1F] MOVE_ENTITY: EventEntity moves to X=1.069*, Z=45.078*, Y=-1.999*
  2: 0x004C [0x1F] MOVE_ENTITY: Update entity position (mode=1)
  3: 0x004E [0x6F] WAIT_FRAME_DELAY: Yield until WaitTime reaches zero
  4: 0x004F [0x02] IF !(Work_Zone[83] == 0*) GOTO 0x005D
  5: 0x0057 [0x1C] WAIT(60* ticks)
  6: 0x005A [0x01] GOTO 0x0060
  7: 0x005D [0x1C] WAIT(30* ticks)

SUBROUTINE_0060:
  8: 0x0060 [0x4B] UPDATE_ENTITY_YAW(entity=EventEntity, yaw=5.4°*)
  9: 0x0067 [0x1C] WAIT(120* ticks)
 10: 0x006A [0x02] IF !(Work_Zone[83] == 0*) GOTO 0x0081
 11: 0x0072 [0x6E] EventEntity uses emote 8*
 12: 0x0079 [0x99] Wait for EventEntity animation to complete
 13: 0x007E [0x01] GOTO 0x008D
 14: 0x0081 [0x6E] EventEntity uses emote 0*
 15: 0x0088 [0x99] Wait for EventEntity animation to complete

SUBROUTINE_008D:
 16: 0x008D [0x1C] WAIT(120* ticks)
 17: 0x0090 [0x00] END_REQSTACK()
```
