# 17719334 - Vijartal

## Common Data

| Field            | Value                         |
|------------------|-------------------------------|
| Zone             | Southern San d'Oria (ID: 230) |
| Block Size       | 728 bytes                     |
| Total Events     | 31                            |
| References Count | 49                            |

## List of Events

| Event ID                   | Entrypoint   |   Size |   Instructions |
|----------------------------|--------------|--------|----------------|
| [65535](#event-65535)      | 0x0000       |      1 |              1 |
| [87](#event-87)            | 0x0001       |     16 |              3 |
| [65535.1](#event-655351)   | 0x0011       |     14 |              4 |
| [65535.2](#event-655352)   | 0x001F       |     14 |              4 |
| [65535.3](#event-655353)   | 0x002D       |     14 |              4 |
| [78](#event-78)            | 0x003B       |     16 |              3 |
| [65535.4](#event-655354)   | 0x004B       |     15 |              5 |
| [65535.5](#event-655355)   | 0x005A       |     14 |              4 |
| [65535.6](#event-655356)   | 0x0068       |     14 |              4 |
| [65535.7](#event-655357)   | 0x0076       |     10 |              2 |
| [65535.8](#event-655358)   | 0x0080       |     16 |              5 |
| [38](#event-38)            | 0x0090       |     16 |              3 |
| [65535.9](#event-655359)   | 0x00A0       |     14 |              4 |
| [65535.10](#event-6553510) | 0x00AE       |     10 |              2 |
| [65535.11](#event-6553511) | 0x00B8       |     14 |              4 |
| [21](#event-21)            | 0x00C6       |     16 |              3 |
| [65535.12](#event-6553512) | 0x00D6       |     14 |              4 |
| [65535.13](#event-6553513) | 0x00E4       |     14 |              4 |
| [65535.14](#event-6553514) | 0x00F2       |      6 |              2 |
| [65535.15](#event-6553515) | 0x00F8       |      6 |              2 |
| [65535.16](#event-6553516) | 0x00FE       |      6 |              2 |
| [65535.17](#event-6553517) | 0x0104       |      6 |              2 |
| [65535.18](#event-6553518) | 0x010A       |     13 |              3 |
| [65535.19](#event-6553519) | 0x0117       |     13 |              3 |
| [65535.20](#event-6553520) | 0x0124       |     16 |              2 |
| [65535.21](#event-6553521) | 0x0134       |     16 |              2 |
| [65535.22](#event-6553522) | 0x0144       |     13 |              3 |
| [65535.23](#event-6553523) | 0x0151       |     13 |              3 |
| [65535.24](#event-6553524) | 0x015E       |     13 |              3 |
| [65535.25](#event-6553525) | 0x016B       |     13 |              3 |
| [65535.26](#event-6553526) | 0x0178       |     13 |              3 |

## DAT References (imed_data)

|   Index | Hex Value   |   Dec Value |
|---------|-------------|-------------|
|       0 | 0xFFFE5E5B  |  4294860379 |
|       1 | 0x8050      |       32848 |
|       2 | 0xFFFFF830  |  4294965296 |
|       3 | 0x09DB      |        2523 |
|       4 | 0x000D      |          13 |
|       5 | 0xFFFE654D  |  4294862157 |
|       6 | 0x78AE      |       30894 |
|       7 | 0xFFFE7729  |  4294866729 |
|       8 | 0x7D57      |       32087 |
|       9 | 0x0028      |          40 |
|      10 | 0xFFFE5311  |  4294857489 |
|      11 | 0x61AB      |       25003 |
|      12 | 0xFFFCF21D  |  4294767133 |
|      13 | 0x10945     |       67909 |
|      14 | 0xFFFFF448  |  4294964296 |
|      15 | 0x084E      |        2126 |
|      16 | 0xFFFCE8E4  |  4294764772 |
|      17 | 0x109D6     |       68054 |
|      18 | 0xFFFCD83D  |  4294760509 |
|      19 | 0x107B9     |       67513 |
|      20 | 0xFFFCCAEC  |  4294757100 |
|      21 | 0x10BDF     |       68575 |
|      22 | 0xFFFFF47B  |  4294964347 |
|      23 | 0x07C0      |        1984 |
|      24 | 0xFFFD1E74  |  4294778484 |
|      25 | 0x103AF     |       66479 |
|      26 | 0xFFFE5626  |  4294858278 |
|      27 | 0x74F5      |       29941 |
|      28 | 0x0F8D      |        3981 |
|      29 | 0xFFFE6FFC  |  4294864892 |
|      30 | 0x7A84      |       31364 |
|      31 | 0x0772      |        1906 |
|      32 | 0xFFFCE974  |  4294764916 |
|      33 | 0x108C8     |       67784 |
|      34 | 0xFFFCE89D  |  4294764701 |
|      35 | 0x1095F     |       67935 |
|      36 | 0x074C      |        1868 |
|      37 | 0xFFFCD496  |  4294759574 |
|      38 | 0x10BF1     |       68593 |
|      39 | 0xFFFCFF56  |  4294770518 |
|      40 | 0x10857     |       67671 |
|      41 | 0x001A      |          26 |
|      42 | 0x0021      |          33 |
|      43 | 0x001D      |          29 |
|      44 | 0x0000      |           0 |
|      45 | 0x0015      |          21 |
|      46 | 0x0013      |          19 |
|      47 | 0x0016      |          22 |
|      48 | 0x0022      |          34 |

## Events

### Event 65535

#### Metadata

| Field        | Value   |
|--------------|---------|
| Entrypoint   | 0x0000  |
| Data Size    | 1 bytes |
| Instructions | 1       |

```
      00 01 02 03 04 05 06 07  08 09 0A 0B 0C 0D 0E 0F
      -- -- -- -- -- -- -- --  -- -- -- -- -- -- -- --
0000: 00                                                .               
```

#### Opcodes

```
  0: 0x0000 [0x00] END_REQSTACK()
```

### Event 87

#### Metadata

| Field        | Value    |
|--------------|----------|
| Entrypoint   | 0x0001   |
| Data Size    | 16 bytes |
| Instructions | 3        |

```
      00 01 02 03 04 05 06 07  08 09 0A 0B 0C 0D 0E 0F
      -- -- -- -- -- -- -- --  -- -- -- -- -- -- -- --
0000:    94 01 F8 FF FF 7F 37  00 80 01 80 02 80 03 80   ......7........
0010: 00                                                .               
```

#### Opcodes

```
  0: 0x0001 [0x94] EventEntity->Render.Flags3 ^= 0x01
  1: 0x0007 [0x37] UPDATE_EVENT_POSITION_AND_DIR: x=-106.917*, z=32.848*, y=-2.000*, direction=221.7°*
  2: 0x0010 [0x00] END_REQSTACK()
```

### Event 65535.1

#### Metadata

| Field        | Value    |
|--------------|----------|
| Entrypoint   | 0x0011   |
| Data Size    | 14 bytes |
| Instructions | 4        |

```
      00 01 02 03 04 05 06 07  08 09 0A 0B 0C 0D 0E 0F
      -- -- -- -- -- -- -- --  -- -- -- -- -- -- -- --
0010:    32 04 80 1F 00 05 80  06 80 02 80 1F 01 00      2............. 
```

#### Opcodes

```
  0: 0x0011 [0x32] ExtData[1]->MainSpeed = 13* * 0.1
  1: 0x0014 [0x1F] MOVE_ENTITY: EventEntity moves to X=-105.139*, Z=30.894*, Y=-2.000*
  2: 0x001C [0x1F] MOVE_ENTITY: Update entity position (mode=1)
  3: 0x001E [0x00] END_REQSTACK()
```

### Event 65535.2

#### Metadata

| Field        | Value    |
|--------------|----------|
| Entrypoint   | 0x001F   |
| Data Size    | 14 bytes |
| Instructions | 4        |

```
      00 01 02 03 04 05 06 07  08 09 0A 0B 0C 0D 0E 0F
      -- -- -- -- -- -- -- --  -- -- -- -- -- -- -- --
0010:                                               32                 2
0020: 04 80 1F 00 07 80 08 80  02 80 1F 01 00           .............   
```

#### Opcodes

```
  0: 0x001F [0x32] ExtData[1]->MainSpeed = 13* * 0.1
  1: 0x0022 [0x1F] MOVE_ENTITY: EventEntity moves to X=-100.567*, Z=32.087*, Y=-2.000*
  2: 0x002A [0x1F] MOVE_ENTITY: Update entity position (mode=1)
  3: 0x002C [0x00] END_REQSTACK()
```

### Event 65535.3

#### Metadata

| Field        | Value    |
|--------------|----------|
| Entrypoint   | 0x002D   |
| Data Size    | 14 bytes |
| Instructions | 4        |

```
      00 01 02 03 04 05 06 07  08 09 0A 0B 0C 0D 0E 0F
      -- -- -- -- -- -- -- --  -- -- -- -- -- -- -- --
0020:                                         32 09 80               2..
0030: 1F 00 0A 80 0B 80 02 80  1F 01 00                 ...........     
```

#### Opcodes

```
  0: 0x002D [0x32] ExtData[1]->MainSpeed = 40* * 0.1
  1: 0x0030 [0x1F] MOVE_ENTITY: EventEntity moves to X=-109.807*, Z=25.003*, Y=-2.000*
  2: 0x0038 [0x1F] MOVE_ENTITY: Update entity position (mode=1)
  3: 0x003A [0x00] END_REQSTACK()
```

### Event 78

#### Metadata

| Field        | Value    |
|--------------|----------|
| Entrypoint   | 0x003B   |
| Data Size    | 16 bytes |
| Instructions | 3        |

```
      00 01 02 03 04 05 06 07  08 09 0A 0B 0C 0D 0E 0F
      -- -- -- -- -- -- -- --  -- -- -- -- -- -- -- --
0030:                                   94 01 F8 FF FF             .....
0040: 7F 37 0C 80 0D 80 0E 80  0F 80 00                 .7.........     
```

#### Opcodes

```
  0: 0x003B [0x94] EventEntity->Render.Flags3 ^= 0x01
  1: 0x0041 [0x37] UPDATE_EVENT_POSITION_AND_DIR: x=-200.163*, z=67.909*, y=-3.000*, direction=186.8°*
  2: 0x004A [0x00] END_REQSTACK()
```

### Event 65535.4

#### Metadata

| Field        | Value    |
|--------------|----------|
| Entrypoint   | 0x004B   |
| Data Size    | 15 bytes |
| Instructions | 5        |

```
      00 01 02 03 04 05 06 07  08 09 0A 0B 0C 0D 0E 0F
      -- -- -- -- -- -- -- --  -- -- -- -- -- -- -- --
0040:                                   32 04 80 1F 00             2....
0050: 10 80 11 80 0E 80 1F 01  6F 00                    ........o.      
```

#### Opcodes

```
  0: 0x004B [0x32] ExtData[1]->MainSpeed = 13* * 0.1
  1: 0x004E [0x1F] MOVE_ENTITY: EventEntity moves to X=-202.524*, Z=68.054*, Y=-3.000*
  2: 0x0056 [0x1F] MOVE_ENTITY: Update entity position (mode=1)
  3: 0x0058 [0x6F] WAIT_FRAME_DELAY: Yield until WaitTime reaches zero
  4: 0x0059 [0x00] END_REQSTACK()
```

### Event 65535.5

#### Metadata

| Field        | Value    |
|--------------|----------|
| Entrypoint   | 0x005A   |
| Data Size    | 14 bytes |
| Instructions | 4        |

```
      00 01 02 03 04 05 06 07  08 09 0A 0B 0C 0D 0E 0F
      -- -- -- -- -- -- -- --  -- -- -- -- -- -- -- --
0050:                                32 04 80 1F 00 12            2.....
0060: 80 13 80 0E 80 1F 01 00                           ........        
```

#### Opcodes

```
  0: 0x005A [0x32] ExtData[1]->MainSpeed = 13* * 0.1
  1: 0x005D [0x1F] MOVE_ENTITY: EventEntity moves to X=-206.787*, Z=67.513*, Y=-3.000*
  2: 0x0065 [0x1F] MOVE_ENTITY: Update entity position (mode=1)
  3: 0x0067 [0x00] END_REQSTACK()
```

### Event 65535.6

#### Metadata

| Field        | Value    |
|--------------|----------|
| Entrypoint   | 0x0068   |
| Data Size    | 14 bytes |
| Instructions | 4        |

```
      00 01 02 03 04 05 06 07  08 09 0A 0B 0C 0D 0E 0F
      -- -- -- -- -- -- -- --  -- -- -- -- -- -- -- --
0060:                          32 04 80 1F 00 14 80 15          2.......
0070: 80 16 80 1F 01 00                                 ......          
```

#### Opcodes

```
  0: 0x0068 [0x32] ExtData[1]->MainSpeed = 13* * 0.1
  1: 0x006B [0x1F] MOVE_ENTITY: EventEntity moves to X=-210.196*, Z=68.575*, Y=-2.949*
  2: 0x0073 [0x1F] MOVE_ENTITY: Update entity position (mode=1)
  3: 0x0075 [0x00] END_REQSTACK()
```

### Event 65535.7

#### Metadata

| Field        | Value    |
|--------------|----------|
| Entrypoint   | 0x0076   |
| Data Size    | 10 bytes |
| Instructions | 2        |

```
      00 01 02 03 04 05 06 07  08 09 0A 0B 0C 0D 0E 0F
      -- -- -- -- -- -- -- --  -- -- -- -- -- -- -- --
0070:                   37 14  80 15 80 16 80 17 80 00        7.........
```

#### Opcodes

```
  0: 0x0076 [0x37] UPDATE_EVENT_POSITION_AND_DIR: x=-210.196*, z=68.575*, y=-2.949*, direction=174.4°*
  1: 0x007F [0x00] END_REQSTACK()
```

### Event 65535.8

#### Metadata

| Field        | Value    |
|--------------|----------|
| Entrypoint   | 0x0080   |
| Data Size    | 16 bytes |
| Instructions | 5        |

```
      00 01 02 03 04 05 06 07  08 09 0A 0B 0C 0D 0E 0F
      -- -- -- -- -- -- -- --  -- -- -- -- -- -- -- --
0080: 32 09 80 1F 00 18 80 19  80 02 80 1F 01 22 01 00  2............"..
```

#### Opcodes

```
  0: 0x0080 [0x32] ExtData[1]->MainSpeed = 40* * 0.1
  1: 0x0083 [0x1F] MOVE_ENTITY: EventEntity moves to X=-188.812*, Z=66.479*, Y=-2.000*
  2: 0x008B [0x1F] MOVE_ENTITY: Update entity position (mode=1)
  3: 0x008D [0x22] ENTITY_HIDE_FLAG(enabled=0x01)
  4: 0x008F [0x00] END_REQSTACK()
```

### Event 38

#### Metadata

| Field        | Value    |
|--------------|----------|
| Entrypoint   | 0x0090   |
| Data Size    | 16 bytes |
| Instructions | 3        |

```
      00 01 02 03 04 05 06 07  08 09 0A 0B 0C 0D 0E 0F
      -- -- -- -- -- -- -- --  -- -- -- -- -- -- -- --
0090: 94 01 F8 FF FF 7F 37 1A  80 1B 80 02 80 1C 80 00  ......7.........
```

#### Opcodes

```
  0: 0x0090 [0x94] EventEntity->Render.Flags3 ^= 0x01
  1: 0x0096 [0x37] UPDATE_EVENT_POSITION_AND_DIR: x=-109.018*, z=29.941*, y=-2.000*, direction=349.9°*
  2: 0x009F [0x00] END_REQSTACK()
```

### Event 65535.9

#### Metadata

| Field        | Value    |
|--------------|----------|
| Entrypoint   | 0x00A0   |
| Data Size    | 14 bytes |
| Instructions | 4        |

```
      00 01 02 03 04 05 06 07  08 09 0A 0B 0C 0D 0E 0F
      -- -- -- -- -- -- -- --  -- -- -- -- -- -- -- --
00A0: 32 04 80 1F 00 1D 80 1E  80 02 80 1F 01 00        2.............  
```

#### Opcodes

```
  0: 0x00A0 [0x32] ExtData[1]->MainSpeed = 13* * 0.1
  1: 0x00A3 [0x1F] MOVE_ENTITY: EventEntity moves to X=-102.404*, Z=31.364*, Y=-2.000*
  2: 0x00AB [0x1F] MOVE_ENTITY: Update entity position (mode=1)
  3: 0x00AD [0x00] END_REQSTACK()
```

### Event 65535.10

#### Metadata

| Field        | Value    |
|--------------|----------|
| Entrypoint   | 0x00AE   |
| Data Size    | 10 bytes |
| Instructions | 2        |

```
      00 01 02 03 04 05 06 07  08 09 0A 0B 0C 0D 0E 0F
      -- -- -- -- -- -- -- --  -- -- -- -- -- -- -- --
00A0:                                            37 12                7.
00B0: 80 13 80 0E 80 1F 80 00                           ........        
```

#### Opcodes

```
  0: 0x00AE [0x37] UPDATE_EVENT_POSITION_AND_DIR: x=-206.787*, z=67.513*, y=-3.000*, direction=167.5°*
  1: 0x00B7 [0x00] END_REQSTACK()
```

### Event 65535.11

#### Metadata

| Field        | Value    |
|--------------|----------|
| Entrypoint   | 0x00B8   |
| Data Size    | 14 bytes |
| Instructions | 4        |

```
      00 01 02 03 04 05 06 07  08 09 0A 0B 0C 0D 0E 0F
      -- -- -- -- -- -- -- --  -- -- -- -- -- -- -- --
00B0:                          32 04 80 1F 00 20 80 21          2.... .!
00C0: 80 0E 80 1F 01 00                                 ......          
```

#### Opcodes

```
  0: 0x00B8 [0x32] ExtData[1]->MainSpeed = 13* * 0.1
  1: 0x00BB [0x1F] MOVE_ENTITY: EventEntity moves to X=-202.380*, Z=67.784*, Y=-3.000*
  2: 0x00C3 [0x1F] MOVE_ENTITY: Update entity position (mode=1)
  3: 0x00C5 [0x00] END_REQSTACK()
```

### Event 21

#### Metadata

| Field        | Value    |
|--------------|----------|
| Entrypoint   | 0x00C6   |
| Data Size    | 16 bytes |
| Instructions | 3        |

```
      00 01 02 03 04 05 06 07  08 09 0A 0B 0C 0D 0E 0F
      -- -- -- -- -- -- -- --  -- -- -- -- -- -- -- --
00C0:                   94 01  F8 FF FF 7F 37 22 80 23        ......7".#
00D0: 80 0E 80 24 80 00                                 ...$..          
```

#### Opcodes

```
  0: 0x00C6 [0x94] EventEntity->Render.Flags3 ^= 0x01
  1: 0x00CC [0x37] UPDATE_EVENT_POSITION_AND_DIR: x=-202.595*, z=67.935*, y=-3.000*, direction=164.2°*
  2: 0x00D5 [0x00] END_REQSTACK()
```

### Event 65535.12

#### Metadata

| Field        | Value    |
|--------------|----------|
| Entrypoint   | 0x00D6   |
| Data Size    | 14 bytes |
| Instructions | 4        |

```
      00 01 02 03 04 05 06 07  08 09 0A 0B 0C 0D 0E 0F
      -- -- -- -- -- -- -- --  -- -- -- -- -- -- -- --
00D0:                   32 04  80 1F 00 25 80 26 80 0E        2....%.&..
00E0: 80 1F 01 00                                       ....            
```

#### Opcodes

```
  0: 0x00D6 [0x32] ExtData[1]->MainSpeed = 13* * 0.1
  1: 0x00D9 [0x1F] MOVE_ENTITY: EventEntity moves to X=-207.722*, Z=68.593*, Y=-3.000*
  2: 0x00E1 [0x1F] MOVE_ENTITY: Update entity position (mode=1)
  3: 0x00E3 [0x00] END_REQSTACK()
```

### Event 65535.13

#### Metadata

| Field        | Value    |
|--------------|----------|
| Entrypoint   | 0x00E4   |
| Data Size    | 14 bytes |
| Instructions | 4        |

```
      00 01 02 03 04 05 06 07  08 09 0A 0B 0C 0D 0E 0F
      -- -- -- -- -- -- -- --  -- -- -- -- -- -- -- --
00E0:             32 04 80 1F  00 27 80 28 80 02 80 1F      2....'.(....
00F0: 01 00                                             ..              
```

#### Opcodes

```
  0: 0x00E4 [0x32] ExtData[1]->MainSpeed = 13* * 0.1
  1: 0x00E7 [0x1F] MOVE_ENTITY: EventEntity moves to X=-196.778*, Z=67.671*, Y=-2.000*
  2: 0x00EF [0x1F] MOVE_ENTITY: Update entity position (mode=1)
  3: 0x00F1 [0x00] END_REQSTACK()
```

### Event 65535.14

#### Metadata

| Field        | Value   |
|--------------|---------|
| Entrypoint   | 0x00F2  |
| Data Size    | 6 bytes |
| Instructions | 2       |

```
      00 01 02 03 04 05 06 07  08 09 0A 0B 0C 0D 0E 0F
      -- -- -- -- -- -- -- --  -- -- -- -- -- -- -- --
00F0:       1E 22 60 0E 01 00                             ."`...        
```

#### Opcodes

```
  0: 0x00F2 [0x1E] EventEntity looks at Deraquien (ID: 17719330/0x010E6022) and starts talking
  1: 0x00F7 [0x00] END_REQSTACK()
```

### Event 65535.15

#### Metadata

| Field        | Value   |
|--------------|---------|
| Entrypoint   | 0x00F8  |
| Data Size    | 6 bytes |
| Instructions | 2       |

```
      00 01 02 03 04 05 06 07  08 09 0A 0B 0C 0D 0E 0F
      -- -- -- -- -- -- -- --  -- -- -- -- -- -- -- --
00F0:                          1E 23 60 0E 01 00                .#`...  
```

#### Opcodes

```
  0: 0x00F8 [0x1E] EventEntity looks at Phillone (ID: 17719331/0x010E6023) and starts talking
  1: 0x00FD [0x00] END_REQSTACK()
```

### Event 65535.16

#### Metadata

| Field        | Value   |
|--------------|---------|
| Entrypoint   | 0x00FE  |
| Data Size    | 6 bytes |
| Instructions | 2       |

```
      00 01 02 03 04 05 06 07  08 09 0A 0B 0C 0D 0E 0F
      -- -- -- -- -- -- -- --  -- -- -- -- -- -- -- --
00F0:                                            1E 25                .%
0100: 60 0E 01 00                                       `...            
```

#### Opcodes

```
  0: 0x00FE [0x1E] EventEntity looks at Roido (ID: 17719333/0x010E6025) and starts talking
  1: 0x0103 [0x00] END_REQSTACK()
```

### Event 65535.17

#### Metadata

| Field        | Value   |
|--------------|---------|
| Entrypoint   | 0x0104  |
| Data Size    | 6 bytes |
| Instructions | 2       |

```
      00 01 02 03 04 05 06 07  08 09 0A 0B 0C 0D 0E 0F
      -- -- -- -- -- -- -- --  -- -- -- -- -- -- -- --
0100:             1E F0 FF FF  7F 00                        ......      
```

#### Opcodes

```
  0: 0x0104 [0x1E] EventEntity looks at LocalPlayer and starts talking
  1: 0x0109 [0x00] END_REQSTACK()
```

### Event 65535.18

#### Metadata

| Field        | Value    |
|--------------|----------|
| Entrypoint   | 0x010A   |
| Data Size    | 13 bytes |
| Instructions | 3        |

```
      00 01 02 03 04 05 06 07  08 09 0A 0B 0C 0D 0E 0F
      -- -- -- -- -- -- -- --  -- -- -- -- -- -- -- --
0100:                                6E F8 FF FF 7F 29            n....)
0110: 80 99 F8 FF FF 7F 00                              .......         
```

#### Opcodes

```
  0: 0x010A [0x6E] EventEntity uses emote 26*
  1: 0x0111 [0x99] Wait for EventEntity animation to complete
  2: 0x0116 [0x00] END_REQSTACK()
```

### Event 65535.19

#### Metadata

| Field        | Value    |
|--------------|----------|
| Entrypoint   | 0x0117   |
| Data Size    | 13 bytes |
| Instructions | 3        |

```
      00 01 02 03 04 05 06 07  08 09 0A 0B 0C 0D 0E 0F
      -- -- -- -- -- -- -- --  -- -- -- -- -- -- -- --
0110:                      6E  F8 FF FF 7F 2A 80 99 F8         n....*...
0120: FF FF 7F 00                                       ....            
```

#### Opcodes

```
  0: 0x0117 [0x6E] EventEntity uses emote 33*
  1: 0x011E [0x99] Wait for EventEntity animation to complete
  2: 0x0123 [0x00] END_REQSTACK()
```

### Event 65535.20

#### Metadata

| Field        | Value    |
|--------------|----------|
| Entrypoint   | 0x0124   |
| Data Size    | 16 bytes |
| Instructions | 2        |

```
      00 01 02 03 04 05 06 07  08 09 0A 0B 0C 0D 0E 0F
      -- -- -- -- -- -- -- --  -- -- -- -- -- -- -- --
0120:             66 2B 80 F8  FF FF 7F F8 FF FF 7F 74      f+.........t
0130: 68 6B 31 00                                       hk1.            
```

#### Opcodes

```
  0: 0x0124 [0x66] LOAD_EXT_SCHEDULER_MAIN: Load scheduler "thk1" with entities [EventEntity, EventEntity], work=29*
  1: 0x0133 [0x00] END_REQSTACK()
```

### Event 65535.21

#### Metadata

| Field        | Value    |
|--------------|----------|
| Entrypoint   | 0x0134   |
| Data Size    | 16 bytes |
| Instructions | 2        |

```
      00 01 02 03 04 05 06 07  08 09 0A 0B 0C 0D 0E 0F
      -- -- -- -- -- -- -- --  -- -- -- -- -- -- -- --
0130:             66 2B 80 F8  FF FF 7F F8 FF FF 7F 74      f+.........t
0140: 68 6B 32 00                                       hk2.            
```

#### Opcodes

```
  0: 0x0134 [0x66] LOAD_EXT_SCHEDULER_MAIN: Load scheduler "thk2" with entities [EventEntity, EventEntity], work=29*
  1: 0x0143 [0x00] END_REQSTACK()
```

### Event 65535.22

#### Metadata

| Field        | Value    |
|--------------|----------|
| Entrypoint   | 0x0144   |
| Data Size    | 13 bytes |
| Instructions | 3        |

```
      00 01 02 03 04 05 06 07  08 09 0A 0B 0C 0D 0E 0F
      -- -- -- -- -- -- -- --  -- -- -- -- -- -- -- --
0140:             6E F8 FF FF  7F 2C 80 99 F8 FF FF 7F      n....,......
0150: 00                                                .               
```

#### Opcodes

```
  0: 0x0144 [0x6E] EventEntity uses emote 0*
  1: 0x014B [0x99] Wait for EventEntity animation to complete
  2: 0x0150 [0x00] END_REQSTACK()
```

### Event 65535.23

#### Metadata

| Field        | Value    |
|--------------|----------|
| Entrypoint   | 0x0151   |
| Data Size    | 13 bytes |
| Instructions | 3        |

```
      00 01 02 03 04 05 06 07  08 09 0A 0B 0C 0D 0E 0F
      -- -- -- -- -- -- -- --  -- -- -- -- -- -- -- --
0150:    6E F8 FF FF 7F 2D 80  99 F8 FF FF 7F 00         n....-.......  
```

#### Opcodes

```
  0: 0x0151 [0x6E] EventEntity uses emote 21*
  1: 0x0158 [0x99] Wait for EventEntity animation to complete
  2: 0x015D [0x00] END_REQSTACK()
```

### Event 65535.24

#### Metadata

| Field        | Value    |
|--------------|----------|
| Entrypoint   | 0x015E   |
| Data Size    | 13 bytes |
| Instructions | 3        |

```
      00 01 02 03 04 05 06 07  08 09 0A 0B 0C 0D 0E 0F
      -- -- -- -- -- -- -- --  -- -- -- -- -- -- -- --
0150:                                            6E F8                n.
0160: FF FF 7F 2E 80 99 F8 FF  FF 7F 00                 ...........     
```

#### Opcodes

```
  0: 0x015E [0x6E] EventEntity uses emote 19*
  1: 0x0165 [0x99] Wait for EventEntity animation to complete
  2: 0x016A [0x00] END_REQSTACK()
```

### Event 65535.25

#### Metadata

| Field        | Value    |
|--------------|----------|
| Entrypoint   | 0x016B   |
| Data Size    | 13 bytes |
| Instructions | 3        |

```
      00 01 02 03 04 05 06 07  08 09 0A 0B 0C 0D 0E 0F
      -- -- -- -- -- -- -- --  -- -- -- -- -- -- -- --
0160:                                   6E F8 FF FF 7F             n....
0170: 2F 80 99 F8 FF FF 7F 00                           /.......        
```

#### Opcodes

```
  0: 0x016B [0x6E] EventEntity uses emote 22*
  1: 0x0172 [0x99] Wait for EventEntity animation to complete
  2: 0x0177 [0x00] END_REQSTACK()
```

### Event 65535.26

#### Metadata

| Field        | Value    |
|--------------|----------|
| Entrypoint   | 0x0178   |
| Data Size    | 13 bytes |
| Instructions | 3        |

```
      00 01 02 03 04 05 06 07  08 09 0A 0B 0C 0D 0E 0F
      -- -- -- -- -- -- -- --  -- -- -- -- -- -- -- --
0170:                          6E F8 FF FF 7F 30 80 99          n....0..
0180: F8 FF FF 7F 00                                    .....           
```

#### Opcodes

```
  0: 0x0178 [0x6E] EventEntity uses emote 34*
  1: 0x017F [0x99] Wait for EventEntity animation to complete
  2: 0x0184 [0x00] END_REQSTACK()
```
