# 17719297 - Ceraule

## Common Data

| Field            | Value                         |
|------------------|-------------------------------|
| Zone             | Southern San d'Oria (ID: 230) |
| Block Size       | 868 bytes                     |
| Total Events     | 21                            |
| References Count | 39                            |

## List of Events

| Event ID                   | Entrypoint   |   Size |   Instructions |
|----------------------------|--------------|--------|----------------|
| [65535](#event-65535)      | 0x0000       |      1 |              1 |
| [503](#event-503)          | 0x0001       |     15 |              4 |
| [65535.1](#event-655351)   | 0x0010       |      5 |              3 |
| [65535.2](#event-655352)   | 0x0015       |      6 |              2 |
| [509](#event-509)          | 0x001B       |    407 |             93 |
| [65535.3](#event-655353)   | 0x01B2       |      1 |              1 |
| [65535.4](#event-655354)   | 0x01B3       |      1 |              1 |
| [65535.5](#event-655355)   | 0x01B4       |      1 |              1 |
| [65535.6](#event-655356)   | 0x01B5       |      1 |              1 |
| [65535.7](#event-655357)   | 0x01B6       |     12 |              4 |
| [65535.8](#event-655358)   | 0x01C2       |     17 |              5 |
| [65535.9](#event-655359)   | 0x01D3       |     15 |              5 |
| [65535.10](#event-6553510) | 0x01E2       |     19 |              7 |
| [65535.11](#event-6553511) | 0x01F5       |     19 |              3 |
| [65535.12](#event-6553512) | 0x0208       |      9 |              3 |
| [65535.13](#event-6553513) | 0x0211       |     19 |              3 |
| [65535.14](#event-6553514) | 0x0224       |     32 |              4 |
| [65535.15](#event-6553515) | 0x0244       |     29 |              3 |
| [993](#event-993)          | 0x0261       |      1 |              1 |

## DAT References (imed_data)

|   Index | Hex Value   |   Dec Value |
|---------|-------------|-------------|
|       0 | 0x000D      |          13 |
|       1 | 0xFFFE88ED  |  4294871277 |
|       2 | 0xFFFF6765  |  4294928229 |
|       3 | 0x03E8      |        1000 |
|       4 | 0x0607      |        1543 |
|       5 | 0x1DF7      |        7671 |
|       6 | 0x0014      |          20 |
|       7 | 0x1E19      |        7705 |
|       8 | 0x1E2D      |        7725 |
|       9 | 0x0000      |           0 |
|      10 | 0x0001      |           1 |
|      11 | 0x1E2E      |        7726 |
|      12 | 0x001E      |          30 |
|      13 | 0x1E2F      |        7727 |
|      14 | 0x1E30      |        7728 |
|      15 | 0x0002      |           2 |
|      16 | 0x1E34      |        7732 |
|      17 | 0x0003      |           3 |
|      18 | 0x1E35      |        7733 |
|      19 | 0x1E37      |        7735 |
|      20 | 0x1E38      |        7736 |
|      21 | 0x1E39      |        7737 |
|      22 | 0x0004      |           4 |
|      23 | 0x1E3B      |        7739 |
|      24 | 0x1E3C      |        7740 |
|      25 | 0x0005      |           5 |
|      26 | 0x1E3D      |        7741 |
|      27 | 0x0006      |           6 |
|      28 | 0xFFFE84E1  |  4294870241 |
|      29 | 0xFFFF62DF  |  4294927071 |
|      30 | 0xFFFE8298  |  4294869656 |
|      31 | 0xFFFF6273  |  4294926963 |
|      32 | 0xFFFE7DB2  |  4294868402 |
|      33 | 0xFFFF5864  |  4294924388 |
|      34 | 0x05F9      |        1529 |
|      35 | 0xFFFE84B9  |  4294870201 |
|      36 | 0xFFFF5F17  |  4294926103 |
|      37 | 0x003C      |          60 |
|      38 | 0x0015      |          21 |

## String References

- **7671**: [Cutscene] Never before has [he/she] set foot within the Elvaan capital, but [he/she] is resolved to let nothing stand in [his/her] way.
- **7705**: Perhaps I could be of service. Is there anything you'd like to know?
- **7725**: Something you'd like to know? [Nothing in particular./I want to go out and do battle!/I want to go shopping./I want to know more about adventuring.]
- **7726**: Just got here and you're aching to leave, eh? Listen, the lands are wild beyond our gates, filled with fiends and their ilk.
- **7727**: Right behind you is the Westgate. Beyond that, the wilds of West Ronfaure.
- **7728**: Should you need directions, ask those around you. Our citizens are friendly, for the most part.
- **7732**: Should you seek weapons, armor, or supplies, there are several shops in this area. Why not go have a look?
- **7733**: Ahh, recruits... Don't know which way to hold a sword and you think you're ready for adventures. Well, what would you like to know?
- **7735**: What would you like to hear about? [Helping people./Hunting monsters./Making easy money./Working for my country.]
- **7736**: Ah, a commendable choice! Come to think of it, there was a lady in front of a house on Pikeman's Way. She may be in need of assistance.
- **7737**: Novices... Don't know your own limits until a fiend beats it into your head for you. Very well. How about gathering some hides for the Tanners' Guild on Pikeman's Way?
- **7739**: Easy money, eh? Typical of a new recruit. I cannot promise ease, but the lumberyard in Northern San d'Oria should have work for you there.
- **7740**: To get to the lumberyard, go through Victory Arch, head northwest across the Parade Grounds, and keep going till you reach Laborman's Way. The lumberyard lies at the far end.
- **7741**: Ah, a commendable choice for a new recruit. Head to any city gate and inquire at the gatehouse. You'll be doing work for the glory of the Kingdom!

## Events

### Event 65535

#### Metadata

| Field        | Value   |
|--------------|---------|
| Entrypoint   | 0x0000  |
| Data Size    | 1 bytes |
| Instructions | 1       |

```
      00 01 02 03 04 05 06 07  08 09 0A 0B 0C 0D 0E 0F
      -- -- -- -- -- -- -- --  -- -- -- -- -- -- -- --
0000: 00                                                .               
```

#### Opcodes

```
  0: 0x0000 [0x00] END_REQSTACK()
```

### Event 503

#### Metadata

| Field        | Value    |
|--------------|----------|
| Entrypoint   | 0x0001   |
| Data Size    | 15 bytes |
| Instructions | 4        |

```
      00 01 02 03 04 05 06 07  08 09 0A 0B 0C 0D 0E 0F
      -- -- -- -- -- -- -- --  -- -- -- -- -- -- -- --
0000:    22 01 32 00 80 37 01  80 02 80 03 80 04 80 00   ".2..7.........
```

#### Opcodes

```
  0: 0x0001 [0x22] ENTITY_HIDE_FLAG(enabled=0x01)
  1: 0x0003 [0x32] ExtData[1]->MainSpeed = 13* * 0.1
  2: 0x0006 [0x37] UPDATE_EVENT_POSITION_AND_DIR: x=-96.019*, z=-39.067*, y=1.000*, direction=135.6°*
  3: 0x000F [0x00] END_REQSTACK()
```

### Event 65535.1

#### Metadata

| Field        | Value   |
|--------------|---------|
| Entrypoint   | 0x0010  |
| Data Size    | 5 bytes |
| Instructions | 3       |

```
      00 01 02 03 04 05 06 07  08 09 0A 0B 0C 0D 0E 0F
      -- -- -- -- -- -- -- --  -- -- -- -- -- -- -- --
0010: 48 05 80 23 00                                    H..#.           
```

#### Opcodes

```
  0: 0x0010 [0x48] [System] [7671*]:
    → "[Cutscene] Never before has [he/she] set foot within the Elvaan capital, but [he/she] is resolved to let nothing stand in [his/her] way."
  1: 0x0013 [0x23] WAIT_FOR_DIALOG_INTERACTION
  2: 0x0014 [0x00] END_REQSTACK()
```

### Event 65535.2

#### Metadata

| Field        | Value   |
|--------------|---------|
| Entrypoint   | 0x0015  |
| Data Size    | 6 bytes |
| Instructions | 2       |

```
      00 01 02 03 04 05 06 07  08 09 0A 0B 0C 0D 0E 0F
      -- -- -- -- -- -- -- --  -- -- -- -- -- -- -- --
0010:                5E 69 64  6C 30 00                      ^idl0.     
```

#### Opcodes

```
  0: 0x0015 [0x5E] EventEntity goes idle (kills current action) (animation: "idl0")
  1: 0x001A [0x00] END_REQSTACK()
```

### Event 509

#### Metadata

| Field        | Value     |
|--------------|-----------|
| Entrypoint   | 0x001B    |
| Data Size    | 407 bytes |
| Instructions | 92        |

```
      00 01 02 03 04 05 06 07  08 09 0A 0B 0C 0D 0E 0F
      -- -- -- -- -- -- -- --  -- -- -- -- -- -- -- --
0010:                                   1E F0 FF FF 7F             .....
0020: 6F 70 66 06 80 01 60 0E  01 01 60 0E 01 74 6C 6B  opf...`...`..tlk
0030: 30 1D 07 80 23 5E 69 64  6C 30 24 08 80 09 80 09  0...#^idl0$.....
0040: 80 25 02 00 10 09 80 00  4D 00 01 D7 00 02 00 10  .%......M.......
0050: 0A 80 00 86 00 66 06 80  01 60 0E 01 01 60 0E 01  .....f...`...`..
0060: 74 6C 6B 30 1D 0B 80 23  1C 0C 80 1D 0D 80 23 1C  tlk0...#......#.
0070: 0C 80 1D 0E 80 23 5E 69  64 6C 30 1C 0C 80 03 01  .....#^idl0.....
0080: 10 09 80 01 D7 00 02 00  10 0F 80 00 B1 00 66 06  ..............f.
0090: 80 01 60 0E 01 01 60 0E  01 74 6C 6B 30 1D 10 80  ..`...`..tlk0...
00A0: 23 5E 69 64 6C 30 1C 0C  80 03 01 10 0A 80 01 D7  #^idl0..........
00B0: 00 02 00 10 11 80 00 D7  00 66 06 80 01 60 0E 01  .........f...`..
00C0: 01 60 0E 01 74 6C 6B 30  1D 12 80 23 5E 69 64 6C  .`..tlk0...#^idl
00D0: 30 01 D9 00 01 D7 00 21  00 24 13 80 09 80 09 80  0......!.$......
00E0: 25 02 00 10 09 80 00 13  01 66 06 80 01 60 0E 01  %........f...`..
00F0: 01 60 0E 01 74 6C 6B 30  1D 14 80 23 1C 0C 80 1D  .`..tlk0...#....
0100: 0E 80 23 5E 69 64 6C 30  1C 0C 80 03 01 10 11 80  ..#^idl0........
0110: 01 B0 01 02 00 10 0A 80  00 45 01 66 06 80 01 60  .........E.f...`
0120: 0E 01 01 60 0E 01 74 6C  6B 30 1D 15 80 23 1C 0C  ...`..tlk0...#..
0130: 80 1D 0E 80 23 5E 69 64  6C 30 1C 0C 80 03 01 10  ....#^idl0......
0140: 16 80 01 B0 01 02 00 10  0F 80 00 7E 01 66 06 80  ...........~.f..
0150: 01 60 0E 01 01 60 0E 01  74 6C 6B 30 1D 17 80 23  .`...`..tlk0...#
0160: 1C 0C 80 1D 18 80 23 1C  0C 80 1D 0E 80 23 5E 69  ......#......#^i
0170: 64 6C 30 1C 0C 80 03 01  10 19 80 01 B0 01 02 00  dl0.............
0180: 10 11 80 00 B0 01 66 06  80 01 60 0E 01 01 60 0E  ......f...`...`.
0190: 01 74 6C 6B 30 1D 1A 80  23 1C 0C 80 1D 0E 80 23  .tlk0...#......#
01A0: 5E 69 64 6C 30 1C 0C 80  03 01 10 1B 80 01 B0 01  ^idl0...........
01B0: 21 00                                             !.              
```

#### Opcodes

```
  0: 0x001B [0x1E] EventEntity looks at LocalPlayer and starts talking
  1: 0x0020 [0x6F] WAIT_FRAME_DELAY: Yield until WaitTime reaches zero
  2: 0x0021 [0x70] WAIT_ENTITY_RENDER_FLAG: Wait while EventEntity->Render.Flags3 bit 2 is set (cancel turn if not)
  3: 0x0022 [0x66] LOAD_EXT_SCHEDULER_MAIN: Load scheduler "tlk0" with entities [Ceraule (ID: 17719297/0x010E6001), Ceraule (ID: 17719297/0x010E6001)], work=20*
  4: 0x0031 [0x1D] PRINT_EVENT_MESSAGE(message_id=7705*)
    → "Perhaps I could be of service. Is there anything you'd like to know?"
  5: 0x0034 [0x23] WAIT_FOR_DIALOG_INTERACTION
  6: 0x0035 [0x5E] EventEntity goes idle (kills current action) (animation: "idl0")
  7: 0x003A [0x24] CREATE_DIALOG(message_id=7725*, default_option=0*, option_flags=0*)
    → "Something you'd like to know? [Nothing in particular./I want to go out and do battle!/I want to go shopping./I want to know more about adventuring.]"
  8: 0x0041 [0x25] WAIT_DIALOG_SELECT()
  9: 0x0042 [0x02] IF !(Work_Zone[0] == 0*) GOTO 0x004D
 10: 0x004A [0x01] GOTO 0x00D7
 11: 0x004D [0x02] IF !(Work_Zone[0] == 1*) GOTO 0x0086
 12: 0x0055 [0x66] LOAD_EXT_SCHEDULER_MAIN: Load scheduler "tlk0" with entities [Ceraule (ID: 17719297/0x010E6001), Ceraule (ID: 17719297/0x010E6001)], work=20*
 13: 0x0064 [0x1D] PRINT_EVENT_MESSAGE(message_id=7726*)
    → "Just got here and you're aching to leave, eh? Listen, the lands are wild beyond our gates, filled with fiends and their ilk."
 14: 0x0067 [0x23] WAIT_FOR_DIALOG_INTERACTION
 15: 0x0068 [0x1C] WAIT(30* ticks)
 16: 0x006B [0x1D] PRINT_EVENT_MESSAGE(message_id=7727*)
    → "Right behind you is the Westgate. Beyond that, the wilds of West Ronfaure."
 17: 0x006E [0x23] WAIT_FOR_DIALOG_INTERACTION
 18: 0x006F [0x1C] WAIT(30* ticks)
 19: 0x0072 [0x1D] PRINT_EVENT_MESSAGE(message_id=7728*)
    → "Should you need directions, ask those around you. Our citizens are friendly, for the most part."
 20: 0x0075 [0x23] WAIT_FOR_DIALOG_INTERACTION
 21: 0x0076 [0x5E] EventEntity goes idle (kills current action) (animation: "idl0")
 22: 0x007B [0x1C] WAIT(30* ticks)
 23: 0x007E [0x03] Work_Zone[1] = 0*
 24: 0x0083 [0x01] GOTO 0x00D7
 25: 0x0086 [0x02] IF !(Work_Zone[0] == 2*) GOTO 0x00B1
 26: 0x008E [0x66] LOAD_EXT_SCHEDULER_MAIN: Load scheduler "tlk0" with entities [Ceraule (ID: 17719297/0x010E6001), Ceraule (ID: 17719297/0x010E6001)], work=20*
 27: 0x009D [0x1D] PRINT_EVENT_MESSAGE(message_id=7732*)
    → "Should you seek weapons, armor, or supplies, there are several shops in this area. Why not go have a look?"
 28: 0x00A0 [0x23] WAIT_FOR_DIALOG_INTERACTION
 29: 0x00A1 [0x5E] EventEntity goes idle (kills current action) (animation: "idl0")
 30: 0x00A6 [0x1C] WAIT(30* ticks)
 31: 0x00A9 [0x03] Work_Zone[1] = 1*
 32: 0x00AE [0x01] GOTO 0x00D7
 33: 0x00B1 [0x02] IF !(Work_Zone[0] == 3*) GOTO 0x00D7
 34: 0x00B9 [0x66] LOAD_EXT_SCHEDULER_MAIN: Load scheduler "tlk0" with entities [Ceraule (ID: 17719297/0x010E6001), Ceraule (ID: 17719297/0x010E6001)], work=20*
 35: 0x00C8 [0x1D] PRINT_EVENT_MESSAGE(message_id=7733*)
    → "Ahh, recruits... Don't know which way to hold a sword and you think you're ready for adventures. Well, what would you like to know?"
 36: 0x00CB [0x23] WAIT_FOR_DIALOG_INTERACTION
 37: 0x00CC [0x5E] EventEntity goes idle (kills current action) (animation: "idl0")
 38: 0x00D1 [0x01] GOTO 0x00D9

SUBROUTINE_00D7:
 39: 0x00D7 [0x21] END_EVENT
 40: 0x00D8 [0x00] END_REQSTACK()

SUBROUTINE_00D9:
 41: 0x00D9 [0x24] CREATE_DIALOG(message_id=7735*, default_option=0*, option_flags=0*)
    → "What would you like to hear about? [Helping people./Hunting monsters./Making easy money./Working for my country.]"
 42: 0x00E0 [0x25] WAIT_DIALOG_SELECT()
 43: 0x00E1 [0x02] IF !(Work_Zone[0] == 0*) GOTO 0x0113
 44: 0x00E9 [0x66] LOAD_EXT_SCHEDULER_MAIN: Load scheduler "tlk0" with entities [Ceraule (ID: 17719297/0x010E6001), Ceraule (ID: 17719297/0x010E6001)], work=20*
 45: 0x00F8 [0x1D] PRINT_EVENT_MESSAGE(message_id=7736*)
    → "Ah, a commendable choice! Come to think of it, there was a lady in front of a house on Pikeman's Way. She may be in need of assistance."
 46: 0x00FB [0x23] WAIT_FOR_DIALOG_INTERACTION
 47: 0x00FC [0x1C] WAIT(30* ticks)
 48: 0x00FF [0x1D] PRINT_EVENT_MESSAGE(message_id=7728*)
    → "Should you need directions, ask those around you. Our citizens are friendly, for the most part."
 49: 0x0102 [0x23] WAIT_FOR_DIALOG_INTERACTION
 50: 0x0103 [0x5E] EventEntity goes idle (kills current action) (animation: "idl0")
 51: 0x0108 [0x1C] WAIT(30* ticks)
 52: 0x010B [0x03] Work_Zone[1] = 3*
 53: 0x0110 [0x01] GOTO 0x01B0
 54: 0x0113 [0x02] IF !(Work_Zone[0] == 1*) GOTO 0x0145
 55: 0x011B [0x66] LOAD_EXT_SCHEDULER_MAIN: Load scheduler "tlk0" with entities [Ceraule (ID: 17719297/0x010E6001), Ceraule (ID: 17719297/0x010E6001)], work=20*
 56: 0x012A [0x1D] PRINT_EVENT_MESSAGE(message_id=7737*)
    → "Novices... Don't know your own limits until a fiend beats it into your head for you. Very well. How about gathering some hides for the Tanners' Guild on Pikeman's Way?"
 57: 0x012D [0x23] WAIT_FOR_DIALOG_INTERACTION
 58: 0x012E [0x1C] WAIT(30* ticks)
 59: 0x0131 [0x1D] PRINT_EVENT_MESSAGE(message_id=7728*)
    → "Should you need directions, ask those around you. Our citizens are friendly, for the most part."
 60: 0x0134 [0x23] WAIT_FOR_DIALOG_INTERACTION
 61: 0x0135 [0x5E] EventEntity goes idle (kills current action) (animation: "idl0")
 62: 0x013A [0x1C] WAIT(30* ticks)
 63: 0x013D [0x03] Work_Zone[1] = 4*
 64: 0x0142 [0x01] GOTO 0x01B0
 65: 0x0145 [0x02] IF !(Work_Zone[0] == 2*) GOTO 0x017E
 66: 0x014D [0x66] LOAD_EXT_SCHEDULER_MAIN: Load scheduler "tlk0" with entities [Ceraule (ID: 17719297/0x010E6001), Ceraule (ID: 17719297/0x010E6001)], work=20*
 67: 0x015C [0x1D] PRINT_EVENT_MESSAGE(message_id=7739*)
    → "Easy money, eh? Typical of a new recruit. I cannot promise ease, but the lumberyard in Northern San d'Oria should have work for you there."
 68: 0x015F [0x23] WAIT_FOR_DIALOG_INTERACTION
 69: 0x0160 [0x1C] WAIT(30* ticks)
 70: 0x0163 [0x1D] PRINT_EVENT_MESSAGE(message_id=7740*)
    → "To get to the lumberyard, go through Victory Arch, head northwest across the Parade Grounds, and keep going till you reach Laborman's Way. The lumberyard lies at the far end."
 71: 0x0166 [0x23] WAIT_FOR_DIALOG_INTERACTION
 72: 0x0167 [0x1C] WAIT(30* ticks)
 73: 0x016A [0x1D] PRINT_EVENT_MESSAGE(message_id=7728*)
    → "Should you need directions, ask those around you. Our citizens are friendly, for the most part."
 74: 0x016D [0x23] WAIT_FOR_DIALOG_INTERACTION
 75: 0x016E [0x5E] EventEntity goes idle (kills current action) (animation: "idl0")
 76: 0x0173 [0x1C] WAIT(30* ticks)
 77: 0x0176 [0x03] Work_Zone[1] = 5*
 78: 0x017B [0x01] GOTO 0x01B0
 79: 0x017E [0x02] IF !(Work_Zone[0] == 3*) GOTO 0x01B0
 80: 0x0186 [0x66] LOAD_EXT_SCHEDULER_MAIN: Load scheduler "tlk0" with entities [Ceraule (ID: 17719297/0x010E6001), Ceraule (ID: 17719297/0x010E6001)], work=20*
 81: 0x0195 [0x1D] PRINT_EVENT_MESSAGE(message_id=7741*)
    → "Ah, a commendable choice for a new recruit. Head to any city gate and inquire at the gatehouse. You'll be doing work for the glory of the Kingdom!"
 82: 0x0198 [0x23] WAIT_FOR_DIALOG_INTERACTION
 83: 0x0199 [0x1C] WAIT(30* ticks)
 84: 0x019C [0x1D] PRINT_EVENT_MESSAGE(message_id=7728*)
    → "Should you need directions, ask those around you. Our citizens are friendly, for the most part."
 85: 0x019F [0x23] WAIT_FOR_DIALOG_INTERACTION
 86: 0x01A0 [0x5E] EventEntity goes idle (kills current action) (animation: "idl0")
 87: 0x01A5 [0x1C] WAIT(30* ticks)
 88: 0x01A8 [0x03] Work_Zone[1] = 6*
 89: 0x01AD [0x01] GOTO 0x01B0

SUBROUTINE_01B0:
 90: 0x01B0 [0x21] END_EVENT
 91: 0x01B1 [0x00] END_REQSTACK()
```

#### Data or dead code:

```
# Dead code (unreachable instructions):
     0x00D4 [0x01] GOTO 0x00D7
```

### Event 65535.3

#### Metadata

| Field        | Value   |
|--------------|---------|
| Entrypoint   | 0x01B2  |
| Data Size    | 1 bytes |
| Instructions | 1       |

```
      00 01 02 03 04 05 06 07  08 09 0A 0B 0C 0D 0E 0F
      -- -- -- -- -- -- -- --  -- -- -- -- -- -- -- --
01B0:       00                                            .             
```

#### Opcodes

```
  0: 0x01B2 [0x00] END_REQSTACK()
```

### Event 65535.4

#### Metadata

| Field        | Value   |
|--------------|---------|
| Entrypoint   | 0x01B3  |
| Data Size    | 1 bytes |
| Instructions | 1       |

```
      00 01 02 03 04 05 06 07  08 09 0A 0B 0C 0D 0E 0F
      -- -- -- -- -- -- -- --  -- -- -- -- -- -- -- --
01B0:          00                                          .            
```

#### Opcodes

```
  0: 0x01B3 [0x00] END_REQSTACK()
```

### Event 65535.5

#### Metadata

| Field        | Value   |
|--------------|---------|
| Entrypoint   | 0x01B4  |
| Data Size    | 1 bytes |
| Instructions | 1       |

```
      00 01 02 03 04 05 06 07  08 09 0A 0B 0C 0D 0E 0F
      -- -- -- -- -- -- -- --  -- -- -- -- -- -- -- --
01B0:             00                                        .           
```

#### Opcodes

```
  0: 0x01B4 [0x00] END_REQSTACK()
```

### Event 65535.6

#### Metadata

| Field        | Value   |
|--------------|---------|
| Entrypoint   | 0x01B5  |
| Data Size    | 1 bytes |
| Instructions | 1       |

```
      00 01 02 03 04 05 06 07  08 09 0A 0B 0C 0D 0E 0F
      -- -- -- -- -- -- -- --  -- -- -- -- -- -- -- --
01B0:                00                                      .          
```

#### Opcodes

```
  0: 0x01B5 [0x00] END_REQSTACK()
```

### Event 65535.7

#### Metadata

| Field        | Value    |
|--------------|----------|
| Entrypoint   | 0x01B6   |
| Data Size    | 12 bytes |
| Instructions | 4        |

```
      00 01 02 03 04 05 06 07  08 09 0A 0B 0C 0D 0E 0F
      -- -- -- -- -- -- -- --  -- -- -- -- -- -- -- --
01B0:                   1F 00  1C 80 1D 80 03 80 1F 01        ..........
01C0: 6F 00                                             o.              
```

#### Opcodes

```
  0: 0x01B6 [0x1F] MOVE_ENTITY: EventEntity moves to X=-97.055*, Z=-40.225*, Y=1.000*
  1: 0x01BE [0x1F] MOVE_ENTITY: Update entity position (mode=1)
  2: 0x01C0 [0x6F] WAIT_FRAME_DELAY: Yield until WaitTime reaches zero
  3: 0x01C1 [0x00] END_REQSTACK()
```

### Event 65535.8

#### Metadata

| Field        | Value    |
|--------------|----------|
| Entrypoint   | 0x01C2   |
| Data Size    | 17 bytes |
| Instructions | 5        |

```
      00 01 02 03 04 05 06 07  08 09 0A 0B 0C 0D 0E 0F
      -- -- -- -- -- -- -- --  -- -- -- -- -- -- -- --
01C0:       1F 00 1E 80 1F 80  03 80 1F 01 6F 1E D7 60    ..........o..`
01D0: 0E 01 00                                          ...             
```

#### Opcodes

```
  0: 0x01C2 [0x1F] MOVE_ENTITY: EventEntity moves to X=-97.640*, Z=-40.333*, Y=1.000*
  1: 0x01CA [0x1F] MOVE_ENTITY: Update entity position (mode=1)
  2: 0x01CC [0x6F] WAIT_FRAME_DELAY: Yield until WaitTime reaches zero
  3: 0x01CD [0x1E] EventEntity looks at Antreneau (ID: 17719511/0x010E60D7) and starts talking
  4: 0x01D2 [0x00] END_REQSTACK()
```

### Event 65535.9

#### Metadata

| Field        | Value    |
|--------------|----------|
| Entrypoint   | 0x01D3   |
| Data Size    | 15 bytes |
| Instructions | 5        |

```
      00 01 02 03 04 05 06 07  08 09 0A 0B 0C 0D 0E 0F
      -- -- -- -- -- -- -- --  -- -- -- -- -- -- -- --
01D0:          1F 00 20 80 21  80 03 80 1F 01 6F 39 22     .. .!.....o9"
01E0: 80 00                                             ..              
```

#### Opcodes

```
  0: 0x01D3 [0x1F] MOVE_ENTITY: EventEntity moves to X=-98.894*, Z=-42.908*, Y=1.000*
  1: 0x01DB [0x1F] MOVE_ENTITY: Update entity position (mode=1)
  2: 0x01DD [0x6F] WAIT_FRAME_DELAY: Yield until WaitTime reaches zero
  3: 0x01DE [0x39] SET_ENTITY_DIRECTION(direction=8.4°*)
  4: 0x01E1 [0x00] END_REQSTACK()
```

### Event 65535.10

#### Metadata

| Field        | Value    |
|--------------|----------|
| Entrypoint   | 0x01E2   |
| Data Size    | 19 bytes |
| Instructions | 7        |

```
      00 01 02 03 04 05 06 07  08 09 0A 0B 0C 0D 0E 0F
      -- -- -- -- -- -- -- --  -- -- -- -- -- -- -- --
01E0:       1F 00 23 80 24 80  03 80 1F 01 6F 1E D5 60    ..#.$.....o..`
01F0: 0E 01 6F 70 00                                    ..op.           
```

#### Opcodes

```
  0: 0x01E2 [0x1F] MOVE_ENTITY: EventEntity moves to X=-97.095*, Z=-41.193*, Y=1.000*
  1: 0x01EA [0x1F] MOVE_ENTITY: Update entity position (mode=1)
  2: 0x01EC [0x6F] WAIT_FRAME_DELAY: Yield until WaitTime reaches zero
  3: 0x01ED [0x1E] EventEntity looks at Curilla (ID: 17719509/0x010E60D5) and starts talking
  4: 0x01F2 [0x6F] WAIT_FRAME_DELAY: Yield until WaitTime reaches zero
  5: 0x01F3 [0x70] WAIT_ENTITY_RENDER_FLAG: Wait while EventEntity->Render.Flags3 bit 2 is set (cancel turn if not)
  6: 0x01F4 [0x00] END_REQSTACK()
```

### Event 65535.11

#### Metadata

| Field        | Value    |
|--------------|----------|
| Entrypoint   | 0x01F5   |
| Data Size    | 19 bytes |
| Instructions | 3        |

```
      00 01 02 03 04 05 06 07  08 09 0A 0B 0C 0D 0E 0F
      -- -- -- -- -- -- -- --  -- -- -- -- -- -- -- --
01F0:                66 06 80  F8 FF FF 7F F8 FF FF 7F       f..........
0200: 74 6C 6B 30 1C 25 80 00                           tlk0.%..        
```

#### Opcodes

```
  0: 0x01F5 [0x66] LOAD_EXT_SCHEDULER_MAIN: Load scheduler "tlk0" with entities [EventEntity, EventEntity], work=20*
  1: 0x0204 [0x1C] WAIT(60* ticks)
  2: 0x0207 [0x00] END_REQSTACK()
```

### Event 65535.12

#### Metadata

| Field        | Value   |
|--------------|---------|
| Entrypoint   | 0x0208  |
| Data Size    | 9 bytes |
| Instructions | 3       |

```
      00 01 02 03 04 05 06 07  08 09 0A 0B 0C 0D 0E 0F
      -- -- -- -- -- -- -- --  -- -- -- -- -- -- -- --
0200:                          5E 69 64 6C 30 1C 25 80          ^idl0.%.
0210: 00                                                .               
```

#### Opcodes

```
  0: 0x0208 [0x5E] EventEntity goes idle (kills current action) (animation: "idl0")
  1: 0x020D [0x1C] WAIT(60* ticks)
  2: 0x0210 [0x00] END_REQSTACK()
```

### Event 65535.13

#### Metadata

| Field        | Value    |
|--------------|----------|
| Entrypoint   | 0x0211   |
| Data Size    | 19 bytes |
| Instructions | 3        |

```
      00 01 02 03 04 05 06 07  08 09 0A 0B 0C 0D 0E 0F
      -- -- -- -- -- -- -- --  -- -- -- -- -- -- -- --
0210:    66 06 80 F8 FF FF 7F  F8 FF FF 7F 74 68 6B 31   f..........thk1
0220: 1C 25 80 00                                       .%..            
```

#### Opcodes

```
  0: 0x0211 [0x66] LOAD_EXT_SCHEDULER_MAIN: Load scheduler "thk1" with entities [EventEntity, EventEntity], work=20*
  1: 0x0220 [0x1C] WAIT(60* ticks)
  2: 0x0223 [0x00] END_REQSTACK()
```

### Event 65535.14

#### Metadata

| Field        | Value    |
|--------------|----------|
| Entrypoint   | 0x0224   |
| Data Size    | 32 bytes |
| Instructions | 4        |

```
      00 01 02 03 04 05 06 07  08 09 0A 0B 0C 0D 0E 0F
      -- -- -- -- -- -- -- --  -- -- -- -- -- -- -- --
0220:             53 F8 FF FF  7F F8 FF FF 7F 74 68 6B      S........thk
0230: 31 66 06 80 F8 FF FF 7F  F8 FF FF 7F 74 68 6B 32  1f..........thk2
0240: 1C 25 80 00                                       .%..            
```

#### Opcodes

```
  0: 0x0224 [0x53] WAIT_SCHEDULER_TASK: Wait for scheduler "thk1" with entities [EventEntity, EventEntity]
  1: 0x0231 [0x66] LOAD_EXT_SCHEDULER_MAIN: Load scheduler "thk2" with entities [EventEntity, EventEntity], work=20*
  2: 0x0240 [0x1C] WAIT(60* ticks)
  3: 0x0243 [0x00] END_REQSTACK()
```

### Event 65535.15

#### Metadata

| Field        | Value    |
|--------------|----------|
| Entrypoint   | 0x0244   |
| Data Size    | 29 bytes |
| Instructions | 3        |

```
      00 01 02 03 04 05 06 07  08 09 0A 0B 0C 0D 0E 0F
      -- -- -- -- -- -- -- --  -- -- -- -- -- -- -- --
0240:             66 26 80 F8  FF FF 7F F8 FF FF 7F 73      f&.........s
0250: 6C 30 30 53 F8 FF FF 7F  F8 FF FF 7F 73 6C 30 30  l00S........sl00
0260: 00                                                .               
```

#### Opcodes

```
  0: 0x0244 [0x66] LOAD_EXT_SCHEDULER_MAIN: Load scheduler "sl00" with entities [EventEntity, EventEntity], work=21*
  1: 0x0253 [0x53] WAIT_SCHEDULER_TASK: Wait for scheduler "sl00" with entities [EventEntity, EventEntity]
  2: 0x0260 [0x00] END_REQSTACK()
```

### Event 993

#### Metadata

| Field        | Value   |
|--------------|---------|
| Entrypoint   | 0x0261  |
| Data Size    | 1 bytes |
| Instructions | 1       |

```
      00 01 02 03 04 05 06 07  08 09 0A 0B 0C 0D 0E 0F
      -- -- -- -- -- -- -- --  -- -- -- -- -- -- -- --
0260:    00                                              .              
```

#### Opcodes

```
  0: 0x0261 [0x00] END_REQSTACK()
```
