# 17719575

## Common Data

| Field            | Value                         |
|------------------|-------------------------------|
| Zone             | Southern San d'Oria (ID: 230) |
| Block Size       | 1844 bytes                    |
| Total Events     | 34                            |
| References Count | 142                           |

## List of Events

| Event ID                   | Entrypoint   |   Size |   Instructions |
|----------------------------|--------------|--------|----------------|
| [65535](#event-65535)      | 0x0000       |      1 |              1 |
| [827](#event-827)          | 0x0001       |      1 |              1 |
| [823](#event-823)          | 0x0002       |      1 |              1 |
| [65535.1](#event-655351)   | 0x0003       |      5 |              2 |
| [65535.2](#event-655352)   | 0x0008       |     11 |              3 |
| [65535.3](#event-655353)   | 0x0013       |     10 |              2 |
| [65535.4](#event-655354)   | 0x001D       |    121 |             24 |
| [65535.5](#event-655355)   | 0x0096       |    121 |             24 |
| [65535.6](#event-655356)   | 0x010F       |     15 |              3 |
| [65535.7](#event-655357)   | 0x011E       |     14 |              4 |
| [65535.8](#event-655358)   | 0x012C       |     11 |              3 |
| [65535.9](#event-655359)   | 0x0137       |     11 |              3 |
| [65535.10](#event-6553510) | 0x0142       |     11 |              3 |
| [65535.11](#event-6553511) | 0x014D       |     14 |              4 |
| [861](#event-861)          | 0x015B       |      1 |              1 |
| [65535.12](#event-6553512) | 0x015C       |     15 |              3 |
| [65535.13](#event-6553513) | 0x016B       |     45 |             10 |
| [65535.14](#event-6553514) | 0x0198       |     45 |             10 |
| [65535.15](#event-6553515) | 0x01C5       |      6 |              2 |
| [65535.16](#event-6553516) | 0x01CB       |     15 |              3 |
| [65535.17](#event-6553517) | 0x01DA       |     54 |             12 |
| [65535.18](#event-6553518) | 0x0210       |     66 |             16 |
| [65535.19](#event-6553519) | 0x0252       |     15 |              3 |
| [65535.20](#event-6553520) | 0x0261       |     73 |             17 |
| [65535.21](#event-6553521) | 0x02AA       |     50 |             12 |
| [65535.22](#event-6553522) | 0x02DC       |     50 |             12 |
| [65535.23](#event-6553523) | 0x030E       |     67 |             15 |
| [65535.24](#event-6553524) | 0x0351       |     14 |              4 |
| [65535.25](#event-6553525) | 0x035F       |     51 |             11 |
| [65535.26](#event-6553526) | 0x0392       |     14 |              4 |
| [65535.27](#event-6553527) | 0x03A0       |     51 |             11 |
| [65535.28](#event-6553528) | 0x03D3       |     59 |             13 |
| [65535.29](#event-6553529) | 0x040E       |     69 |             15 |
| [65535.30](#event-6553530) | 0x0453       |     15 |              3 |

## DAT References (imed_data)

|   Index | Hex Value   |   Dec Value |
|---------|-------------|-------------|
|       0 | 0x0000      |           0 |
|       1 | 0x4D5E      |       19806 |
|       2 | 0xFFFE8BA4  |  4294871972 |
|       3 | 0x0897      |        2199 |
|       4 | 0x007C      |         124 |
|       5 | 0x0039      |          57 |
|       6 | 0x5688      |       22152 |
|       7 | 0xFFFE8963  |  4294871395 |
|       8 | 0x59FA      |       23034 |
|       9 | 0xFFFE9703  |  4294874883 |
|      10 | 0x20CA      |        8394 |
|      11 | 0xFFFEA6F2  |  4294878962 |
|      12 | 0x1A0A      |        6666 |
|      13 | 0xFFFEA628  |  4294878760 |
|      14 | 0x1971      |        6513 |
|      15 | 0xFFFEA380  |  4294878080 |
|      16 | 0x22EC      |        8940 |
|      17 | 0xFFFE9A5B  |  4294875739 |
|      18 | 0x2C7E      |       11390 |
|      19 | 0xFFFE96C5  |  4294874821 |
|      20 | 0x3EC8      |       16072 |
|      21 | 0xFFFE9096  |  4294873238 |
|      22 | 0x65FE      |       26110 |
|      23 | 0xFFFE7D2E  |  4294868270 |
|      24 | 0x07B3      |        1971 |
|      25 | 0x62B2      |       25266 |
|      26 | 0xFFFE7D39  |  4294868281 |
|      27 | 0x4F1F      |       20255 |
|      28 | 0xFFFE7BB6  |  4294867894 |
|      29 | 0x40F8      |       16632 |
|      30 | 0xFFFE7AE9  |  4294867689 |
|      31 | 0x34CC      |       13516 |
|      32 | 0xFFFE7811  |  4294866961 |
|      33 | 0x3832      |       14386 |
|      34 | 0xFFFE9CCE  |  4294876366 |
|      35 | 0xFFF6D458  |  4294366296 |
|      36 | 0x94AE8     |      609000 |
|      37 | 0x00F7      |         247 |
|      38 | 0x003C      |          60 |
|      39 | 0x0002      |           2 |
|      40 | 0x000A      |          10 |
|      41 | 0xFFF6E0F7  |  4294369527 |
|      42 | 0x94851     |      608337 |
|      43 | 0x00D7      |         215 |
|      44 | 0xFFF6D937  |  4294367543 |
|      45 | 0x949C5     |      608709 |
|      46 | 0x00E9      |         233 |
|      47 | 0xFFF6CB82  |  4294364034 |
|      48 | 0x9409F     |      606367 |
|      49 | 0x0074      |         116 |
|      50 | 0x0013      |          19 |
|      51 | 0xFFF6D7C0  |  4294367168 |
|      52 | 0x8EF6A     |      585578 |
|      53 | 0x0274      |         628 |
|      54 | 0x011C      |         284 |
|      55 | 0xFFF6D0CA  |  4294365386 |
|      56 | 0x8F7DF     |      587743 |
|      57 | 0x0112      |         274 |
|      58 | 0xFFF6D779  |  4294367097 |
|      59 | 0x8FCC2     |      588994 |
|      60 | 0x015B      |         347 |
|      61 | 0xFFF6DB55  |  4294368085 |
|      62 | 0x8F169     |      586089 |
|      63 | 0x024A      |         586 |
|      64 | 0xFFF6DAA1  |  4294367905 |
|      65 | 0x8E6CF     |      583375 |
|      66 | 0x033E      |         830 |
|      67 | 0x001E      |          30 |
|      68 | 0xFFF6D3B3  |  4294366131 |
|      69 | 0x8F340     |      586560 |
|      70 | 0x01D0      |         464 |
|      71 | 0x0101      |         257 |
|      72 | 0x0078      |         120 |
|      73 | 0xFFF6D069  |  4294365289 |
|      74 | 0x8F7F4     |      587764 |
|      75 | 0x010C      |         268 |
|      76 | 0xFFF6D763  |  4294367075 |
|      77 | 0x8FB0E     |      588558 |
|      78 | 0x0171      |         369 |
|      79 | 0xFFF6CFE0  |  4294365152 |
|      80 | 0x8F449     |      586825 |
|      81 | 0x0178      |         376 |
|      82 | 0x0862      |        2146 |
|      83 | 0xFFF6D8AC  |  4294367404 |
|      84 | 0x8FABD     |      588477 |
|      85 | 0x0175      |         373 |
|      86 | 0xFFF6DB01  |  4294368001 |
|      87 | 0x90356     |      590678 |
|      88 | 0x0108      |         264 |
|      89 | 0x03BF      |         959 |
|      90 | 0xFFF6C73F  |  4294362943 |
|      91 | 0x8F234     |      586292 |
|      92 | 0x008A      |         138 |
|      93 | 0x0025      |          37 |
|      94 | 0x00F0      |         240 |
|      95 | 0xFFF6D6F8  |  4294366968 |
|      96 | 0x8E30A     |      582410 |
|      97 | 0x0322      |         802 |
|      98 | 0x0BD3      |        3027 |
|      99 | 0xFFF6DB94  |  4294368148 |
|     100 | 0x8FCF3     |      589043 |
|     101 | 0x0159      |         345 |
|     102 | 0xFFF6C79F  |  4294363039 |
|     103 | 0x8F34D     |      586573 |
|     104 | 0xFFF6CB4A  |  4294363978 |
|     105 | 0x8FAEF     |      588527 |
|     106 | 0x00C4      |         196 |
|     107 | 0xFFF6D269  |  4294365801 |
|     108 | 0x8F138     |      586040 |
|     109 | 0x01F0      |         496 |
|     110 | 0xFFF6D2EF  |  4294365935 |
|     111 | 0x8EB3B     |      584507 |
|     112 | 0x021E      |         542 |
|     113 | 0xFFF6D6A2  |  4294366882 |
|     114 | 0x8E8B3     |      583859 |
|     115 | 0x02C0      |         704 |
|     116 | 0xFFF6DAB0  |  4294367920 |
|     117 | 0x8EE3C     |      585276 |
|     118 | 0x029C      |         668 |
|     119 | 0xFFF6DC30  |  4294368304 |
|     120 | 0x8F5FC     |      587260 |
|     121 | 0x01D4      |         468 |
|     122 | 0xFFF6D87A  |  4294367354 |
|     123 | 0x8F6D2     |      587474 |
|     124 | 0x01BF      |         447 |
|     125 | 0xFFF6CEAA  |  4294364842 |
|     126 | 0x8FA2D     |      588333 |
|     127 | 0xFFF6CA0E  |  4294363662 |
|     128 | 0x8EFB9     |      585657 |
|     129 | 0x0090      |         144 |
|     130 | 0xFFF6CECB  |  4294364875 |
|     131 | 0x8E418     |      582680 |
|     132 | 0x018C      |         396 |
|     133 | 0xFFF6DB79  |  4294368121 |
|     134 | 0x8E4F3     |      582899 |
|     135 | 0x0356      |         854 |
|     136 | 0xFFF6DE60  |  4294368864 |
|     137 | 0x8F7D9     |      587737 |
|     138 | 0x019A      |         410 |
|     139 | 0xFFF6D8AE  |  4294367406 |
|     140 | 0x8FE78     |      589432 |
|     141 | 0x0146      |         326 |

## Events

### Event 65535

#### Metadata

| Field        | Value   |
|--------------|---------|
| Entrypoint   | 0x0000  |
| Data Size    | 1 bytes |
| Instructions | 1       |

```
      00 01 02 03 04 05 06 07  08 09 0A 0B 0C 0D 0E 0F
      -- -- -- -- -- -- -- --  -- -- -- -- -- -- -- --
0000: 00                                                .               
```

#### Opcodes

```
  0: 0x0000 [0x00] END_REQSTACK()
```

### Event 827

#### Metadata

| Field        | Value   |
|--------------|---------|
| Entrypoint   | 0x0001  |
| Data Size    | 1 bytes |
| Instructions | 1       |

```
      00 01 02 03 04 05 06 07  08 09 0A 0B 0C 0D 0E 0F
      -- -- -- -- -- -- -- --  -- -- -- -- -- -- -- --
0000:    00                                              .              
```

#### Opcodes

```
  0: 0x0001 [0x00] END_REQSTACK()
```

### Event 823

#### Metadata

| Field        | Value   |
|--------------|---------|
| Entrypoint   | 0x0002  |
| Data Size    | 1 bytes |
| Instructions | 1       |

```
      00 01 02 03 04 05 06 07  08 09 0A 0B 0C 0D 0E 0F
      -- -- -- -- -- -- -- --  -- -- -- -- -- -- -- --
0000:       00                                            .             
```

#### Opcodes

```
  0: 0x0002 [0x00] END_REQSTACK()
```

### Event 65535.1

#### Metadata

| Field        | Value   |
|--------------|---------|
| Entrypoint   | 0x0003  |
| Data Size    | 5 bytes |
| Instructions | 2       |

```
      00 01 02 03 04 05 06 07  08 09 0A 0B 0C 0D 0E 0F
      -- -- -- -- -- -- -- --  -- -- -- -- -- -- -- --
0000:          B6 00 04 10 00                              .....        
```

#### Opcodes

```
  0: 0x0003 [0xB6] ENTITY_APPEARANCE_HANDLER(case=Hair style, value=Work_Zone[4])
  1: 0x0007 [0x00] END_REQSTACK()
```

### Event 65535.2

#### Metadata

| Field        | Value    |
|--------------|----------|
| Entrypoint   | 0x0008   |
| Data Size    | 11 bytes |
| Instructions | 3        |

```
      00 01 02 03 04 05 06 07  08 09 0A 0B 0C 0D 0E 0F
      -- -- -- -- -- -- -- --  -- -- -- -- -- -- -- --
0000:                          B4 01 00 00 00 80 B5 00          ........
0010: 00 00 00                                          ...             
```

#### Opcodes

```
  0: 0x0008 [0xB4] UI_WINDOW_STRING_HANDLER(case=0x01 - Copy string from event strings table, work_offset=ExtData[1]->WorkLocal[0], string_index=0*)
  1: 0x000E [0xB5] SET_EVENT_ENTITY_NAME: Change EventEntity name to ExtData[1]->WorkLocal[0]
  2: 0x0012 [0x00] END_REQSTACK()
```

### Event 65535.3

#### Metadata

| Field        | Value    |
|--------------|----------|
| Entrypoint   | 0x0013   |
| Data Size    | 10 bytes |
| Instructions | 2        |

```
      00 01 02 03 04 05 06 07  08 09 0A 0B 0C 0D 0E 0F
      -- -- -- -- -- -- -- --  -- -- -- -- -- -- -- --
0010:          37 01 80 02 80  03 80 04 80 00              7.........   
```

#### Opcodes

```
  0: 0x0013 [0x37] UPDATE_EVENT_POSITION_AND_DIR: x=19.806*, z=-95.324*, y=2.199*, direction=10.9°*
  1: 0x001C [0x00] END_REQSTACK()
```

### Event 65535.4

#### Metadata

| Field        | Value     |
|--------------|-----------|
| Entrypoint   | 0x001D    |
| Data Size    | 121 bytes |
| Instructions | 24        |

```
      00 01 02 03 04 05 06 07  08 09 0A 0B 0C 0D 0E 0F
      -- -- -- -- -- -- -- --  -- -- -- -- -- -- -- --
0010:                                         32 05 80               2..
0020: 1F 00 06 80 07 80 03 80  1F 01 1F 00 08 80 09 80  ................
0030: 03 80 1F 01 1F 00 0A 80  0B 80 03 80 1F 01 1F 00  ................
0040: 0C 80 0D 80 03 80 1F 01  1F 00 0E 80 0F 80 03 80  ................
0050: 1F 01 1F 00 10 80 11 80  03 80 1F 01 1F 00 12 80  ................
0060: 13 80 03 80 1F 01 1F 00  14 80 15 80 03 80 1F 01  ................
0070: 1F 00 01 80 02 80 03 80  1F 01 02 4D 10 00 80 00  ...........M....
0080: 8C 00 27 05 17 61 0E 01  07 01 95 00 37 00 80 00  ..'..a......7...
0090: 80 00 80 00 80 00                                 ......          
```

#### Opcodes

```
  0: 0x001D [0x32] ExtData[1]->MainSpeed = 57* * 0.1
  1: 0x0020 [0x1F] MOVE_ENTITY: EventEntity moves to X=22.152*, Z=-95.901*, Y=2.199*
  2: 0x0028 [0x1F] MOVE_ENTITY: Update entity position (mode=1)
  3: 0x002A [0x1F] MOVE_ENTITY: EventEntity moves to X=23.034*, Z=-92.413*, Y=2.199*
  4: 0x0032 [0x1F] MOVE_ENTITY: Update entity position (mode=1)
  5: 0x0034 [0x1F] MOVE_ENTITY: EventEntity moves to X=8.394*, Z=-88.334*, Y=2.199*
  6: 0x003C [0x1F] MOVE_ENTITY: Update entity position (mode=1)
  7: 0x003E [0x1F] MOVE_ENTITY: EventEntity moves to X=6.666*, Z=-88.536*, Y=2.199*
  8: 0x0046 [0x1F] MOVE_ENTITY: Update entity position (mode=1)
  9: 0x0048 [0x1F] MOVE_ENTITY: EventEntity moves to X=6.513*, Z=-89.216*, Y=2.199*
 10: 0x0050 [0x1F] MOVE_ENTITY: Update entity position (mode=1)
 11: 0x0052 [0x1F] MOVE_ENTITY: EventEntity moves to X=8.940*, Z=-91.557*, Y=2.199*
 12: 0x005A [0x1F] MOVE_ENTITY: Update entity position (mode=1)
 13: 0x005C [0x1F] MOVE_ENTITY: EventEntity moves to X=11.390*, Z=-92.475*, Y=2.199*
 14: 0x0064 [0x1F] MOVE_ENTITY: Update entity position (mode=1)
 15: 0x0066 [0x1F] MOVE_ENTITY: EventEntity moves to X=16.072*, Z=-94.058*, Y=2.199*
 16: 0x006E [0x1F] MOVE_ENTITY: Update entity position (mode=1)
 17: 0x0070 [0x1F] MOVE_ENTITY: EventEntity moves to X=19.806*, Z=-95.324*, Y=2.199*
 18: 0x0078 [0x1F] MOVE_ENTITY: Update entity position (mode=1)
 19: 0x007A [0x02] IF !(Work_Zone[77] == 0*) GOTO 0x008C
 20: 0x0082 [0x27] REQ_SET(priority=0x05, entity_id=Unnamed NPC (ID: 17719575/0x010E6117), tag_num=0x07)
 21: 0x0089 [0x01] GOTO 0x0095
 22: 0x008C [0x37] UPDATE_EVENT_POSITION_AND_DIR: x=0.000*, z=0.000*, y=0.000*, direction=0.0°*

SUBROUTINE_0095:
 23: 0x0095 [0x00] END_REQSTACK()
```

### Event 65535.5

#### Metadata

| Field        | Value     |
|--------------|-----------|
| Entrypoint   | 0x0096    |
| Data Size    | 121 bytes |
| Instructions | 24        |

```
      00 01 02 03 04 05 06 07  08 09 0A 0B 0C 0D 0E 0F
      -- -- -- -- -- -- -- --  -- -- -- -- -- -- -- --
0090:                   32 05  80 1F 00 06 80 07 80 03        2.........
00A0: 80 1F 01 1F 00 08 80 09  80 03 80 1F 01 1F 00 0A  ................
00B0: 80 0B 80 03 80 1F 01 1F  00 0C 80 0D 80 03 80 1F  ................
00C0: 01 1F 00 0E 80 0F 80 03  80 1F 01 1F 00 10 80 11  ................
00D0: 80 03 80 1F 01 1F 00 12  80 13 80 03 80 1F 01 1F  ................
00E0: 00 14 80 15 80 03 80 1F  01 1F 00 01 80 02 80 03  ................
00F0: 80 1F 01 02 4D 10 00 80  00 05 01 27 05 17 61 0E  ....M......'..a.
0100: 01 06 01 0E 01 37 00 80  00 80 00 80 00 80 00     .....7......... 
```

#### Opcodes

```
  0: 0x0096 [0x32] ExtData[1]->MainSpeed = 57* * 0.1
  1: 0x0099 [0x1F] MOVE_ENTITY: EventEntity moves to X=22.152*, Z=-95.901*, Y=2.199*
  2: 0x00A1 [0x1F] MOVE_ENTITY: Update entity position (mode=1)
  3: 0x00A3 [0x1F] MOVE_ENTITY: EventEntity moves to X=23.034*, Z=-92.413*, Y=2.199*
  4: 0x00AB [0x1F] MOVE_ENTITY: Update entity position (mode=1)
  5: 0x00AD [0x1F] MOVE_ENTITY: EventEntity moves to X=8.394*, Z=-88.334*, Y=2.199*
  6: 0x00B5 [0x1F] MOVE_ENTITY: Update entity position (mode=1)
  7: 0x00B7 [0x1F] MOVE_ENTITY: EventEntity moves to X=6.666*, Z=-88.536*, Y=2.199*
  8: 0x00BF [0x1F] MOVE_ENTITY: Update entity position (mode=1)
  9: 0x00C1 [0x1F] MOVE_ENTITY: EventEntity moves to X=6.513*, Z=-89.216*, Y=2.199*
 10: 0x00C9 [0x1F] MOVE_ENTITY: Update entity position (mode=1)
 11: 0x00CB [0x1F] MOVE_ENTITY: EventEntity moves to X=8.940*, Z=-91.557*, Y=2.199*
 12: 0x00D3 [0x1F] MOVE_ENTITY: Update entity position (mode=1)
 13: 0x00D5 [0x1F] MOVE_ENTITY: EventEntity moves to X=11.390*, Z=-92.475*, Y=2.199*
 14: 0x00DD [0x1F] MOVE_ENTITY: Update entity position (mode=1)
 15: 0x00DF [0x1F] MOVE_ENTITY: EventEntity moves to X=16.072*, Z=-94.058*, Y=2.199*
 16: 0x00E7 [0x1F] MOVE_ENTITY: Update entity position (mode=1)
 17: 0x00E9 [0x1F] MOVE_ENTITY: EventEntity moves to X=19.806*, Z=-95.324*, Y=2.199*
 18: 0x00F1 [0x1F] MOVE_ENTITY: Update entity position (mode=1)
 19: 0x00F3 [0x02] IF !(Work_Zone[77] == 0*) GOTO 0x0105
 20: 0x00FB [0x27] REQ_SET(priority=0x05, entity_id=Unnamed NPC (ID: 17719575/0x010E6117), tag_num=0x06)
 21: 0x0102 [0x01] GOTO 0x010E
 22: 0x0105 [0x37] UPDATE_EVENT_POSITION_AND_DIR: x=0.000*, z=0.000*, y=0.000*, direction=0.0°*

SUBROUTINE_010E:
 23: 0x010E [0x00] END_REQSTACK()
```

### Event 65535.6

#### Metadata

| Field        | Value    |
|--------------|----------|
| Entrypoint   | 0x010F   |
| Data Size    | 15 bytes |
| Instructions | 3        |

```
      00 01 02 03 04 05 06 07  08 09 0A 0B 0C 0D 0E 0F
      -- -- -- -- -- -- -- --  -- -- -- -- -- -- -- --
0100:                                               37                 7
0110: 16 80 17 80 03 80 18 80  80 F8 FF FF 7F 00        ..............  
```

#### Opcodes

```
  0: 0x010F [0x37] UPDATE_EVENT_POSITION_AND_DIR: x=26.110*, z=-99.026*, y=2.199*, direction=173.2°*
  1: 0x0118 [0x80] LOAD_WAIT(entity=EventEntity)
  2: 0x011D [0x00] END_REQSTACK()
```

### Event 65535.7

#### Metadata

| Field        | Value    |
|--------------|----------|
| Entrypoint   | 0x011E   |
| Data Size    | 14 bytes |
| Instructions | 4        |

```
      00 01 02 03 04 05 06 07  08 09 0A 0B 0C 0D 0E 0F
      -- -- -- -- -- -- -- --  -- -- -- -- -- -- -- --
0110:                                            32 05                2.
0120: 80 1F 00 19 80 1A 80 03  80 1F 01 00              ............    
```

#### Opcodes

```
  0: 0x011E [0x32] ExtData[1]->MainSpeed = 57* * 0.1
  1: 0x0121 [0x1F] MOVE_ENTITY: EventEntity moves to X=25.266*, Z=-99.015*, Y=2.199*
  2: 0x0129 [0x1F] MOVE_ENTITY: Update entity position (mode=1)
  3: 0x012B [0x00] END_REQSTACK()
```

### Event 65535.8

#### Metadata

| Field        | Value    |
|--------------|----------|
| Entrypoint   | 0x012C   |
| Data Size    | 11 bytes |
| Instructions | 3        |

```
      00 01 02 03 04 05 06 07  08 09 0A 0B 0C 0D 0E 0F
      -- -- -- -- -- -- -- --  -- -- -- -- -- -- -- --
0120:                                      1F 00 1B 80              ....
0130: 1C 80 03 80 1F 01 00                              .......         
```

#### Opcodes

```
  0: 0x012C [0x1F] MOVE_ENTITY: EventEntity moves to X=20.255*, Z=-99.402*, Y=2.199*
  1: 0x0134 [0x1F] MOVE_ENTITY: Update entity position (mode=1)
  2: 0x0136 [0x00] END_REQSTACK()
```

### Event 65535.9

#### Metadata

| Field        | Value    |
|--------------|----------|
| Entrypoint   | 0x0137   |
| Data Size    | 11 bytes |
| Instructions | 3        |

```
      00 01 02 03 04 05 06 07  08 09 0A 0B 0C 0D 0E 0F
      -- -- -- -- -- -- -- --  -- -- -- -- -- -- -- --
0130:                      1F  00 1D 80 1E 80 03 80 1F         .........
0140: 01 00                                             ..              
```

#### Opcodes

```
  0: 0x0137 [0x1F] MOVE_ENTITY: EventEntity moves to X=16.632*, Z=-99.607*, Y=2.199*
  1: 0x013F [0x1F] MOVE_ENTITY: Update entity position (mode=1)
  2: 0x0141 [0x00] END_REQSTACK()
```

### Event 65535.10

#### Metadata

| Field        | Value    |
|--------------|----------|
| Entrypoint   | 0x0142   |
| Data Size    | 11 bytes |
| Instructions | 3        |

```
      00 01 02 03 04 05 06 07  08 09 0A 0B 0C 0D 0E 0F
      -- -- -- -- -- -- -- --  -- -- -- -- -- -- -- --
0140:       1F 00 1F 80 20 80  03 80 1F 01 00             .... ......   
```

#### Opcodes

```
  0: 0x0142 [0x1F] MOVE_ENTITY: EventEntity moves to X=13.516*, Z=-100.335*, Y=2.199*
  1: 0x014A [0x1F] MOVE_ENTITY: Update entity position (mode=1)
  2: 0x014C [0x00] END_REQSTACK()
```

### Event 65535.11

#### Metadata

| Field        | Value    |
|--------------|----------|
| Entrypoint   | 0x014D   |
| Data Size    | 14 bytes |
| Instructions | 4        |

```
      00 01 02 03 04 05 06 07  08 09 0A 0B 0C 0D 0E 0F
      -- -- -- -- -- -- -- --  -- -- -- -- -- -- -- --
0140:                                         32 05 80               2..
0150: 1F 00 21 80 22 80 03 80  1F 01 00                 ..!."......     
```

#### Opcodes

```
  0: 0x014D [0x32] ExtData[1]->MainSpeed = 57* * 0.1
  1: 0x0150 [0x1F] MOVE_ENTITY: EventEntity moves to X=14.386*, Z=-90.930*, Y=2.199*
  2: 0x0158 [0x1F] MOVE_ENTITY: Update entity position (mode=1)
  3: 0x015A [0x00] END_REQSTACK()
```

### Event 861

#### Metadata

| Field        | Value   |
|--------------|---------|
| Entrypoint   | 0x015B  |
| Data Size    | 1 bytes |
| Instructions | 1       |

```
      00 01 02 03 04 05 06 07  08 09 0A 0B 0C 0D 0E 0F
      -- -- -- -- -- -- -- --  -- -- -- -- -- -- -- --
0150:                                   00                         .    
```

#### Opcodes

```
  0: 0x015B [0x00] END_REQSTACK()
```

### Event 65535.12

#### Metadata

| Field        | Value    |
|--------------|----------|
| Entrypoint   | 0x015C   |
| Data Size    | 15 bytes |
| Instructions | 3        |

```
      00 01 02 03 04 05 06 07  08 09 0A 0B 0C 0D 0E 0F
      -- -- -- -- -- -- -- --  -- -- -- -- -- -- -- --
0150:                                      37 23 80 24              7#.$
0160: 80 25 80 26 80 03 04 00  00 80 00                 .%.&.......     
```

#### Opcodes

```
  0: 0x015C [0x37] UPDATE_EVENT_POSITION_AND_DIR: x=-601.000*, z=609.000*, y=0.247*, direction=5.3°*
  1: 0x0165 [0x03] ExtData[1]->WorkLocal[4] = 0*
  2: 0x016A [0x00] END_REQSTACK()
```

### Event 65535.13

#### Metadata

| Field        | Value    |
|--------------|----------|
| Entrypoint   | 0x016B   |
| Data Size    | 45 bytes |
| Instructions | 10       |

```
      00 01 02 03 04 05 06 07  08 09 0A 0B 0C 0D 0E 0F
      -- -- -- -- -- -- -- --  -- -- -- -- -- -- -- --
0160:                                   02 04 00 27 80             ...'.
0170: 01 97 01 32 28 80 1F 00  29 80 2A 80 2B 80 1F 01  ...2(...).*.+...
0180: 1F 00 2C 80 2D 80 2E 80  1F 01 1F 00 2F 80 30 80  ..,.-......./.0.
0190: 31 80 1F 01 01 6B 01 00                           1....k..        
```

#### Opcodes

```
  0: 0x016B [0x02] IF !(ExtData[1]->WorkLocal[4] == 2*) GOTO 0x0197
  1: 0x0173 [0x32] ExtData[1]->MainSpeed = 10* * 0.1
  2: 0x0176 [0x1F] MOVE_ENTITY: EventEntity moves to X=-597.769*, Z=608.337*, Y=0.215*
  3: 0x017E [0x1F] MOVE_ENTITY: Update entity position (mode=1)
  4: 0x0180 [0x1F] MOVE_ENTITY: EventEntity moves to X=-599.753*, Z=608.709*, Y=0.233*
  5: 0x0188 [0x1F] MOVE_ENTITY: Update entity position (mode=1)
  6: 0x018A [0x1F] MOVE_ENTITY: EventEntity moves to X=-603.262*, Z=606.367*, Y=0.116*
  7: 0x0192 [0x1F] MOVE_ENTITY: Update entity position (mode=1)
  8: 0x0194 [0x01] GOTO 0x016B
  9: 0x0197 [0x00] END_REQSTACK()
```

### Event 65535.14

#### Metadata

| Field        | Value    |
|--------------|----------|
| Entrypoint   | 0x0198   |
| Data Size    | 45 bytes |
| Instructions | 10       |

```
      00 01 02 03 04 05 06 07  08 09 0A 0B 0C 0D 0E 0F
      -- -- -- -- -- -- -- --  -- -- -- -- -- -- -- --
0190:                          02 04 00 27 80 01 C4 01          ...'....
01A0: 32 32 80 1F 00 29 80 2A  80 2B 80 1F 01 1F 00 2C  22...).*.+.....,
01B0: 80 2D 80 2E 80 1F 01 1F  00 2F 80 30 80 31 80 1F  .-......./.0.1..
01C0: 01 01 98 01 00                                    .....           
```

#### Opcodes

```
  0: 0x0198 [0x02] IF !(ExtData[1]->WorkLocal[4] == 2*) GOTO 0x01C4
  1: 0x01A0 [0x32] ExtData[1]->MainSpeed = 19* * 0.1
  2: 0x01A3 [0x1F] MOVE_ENTITY: EventEntity moves to X=-597.769*, Z=608.337*, Y=0.215*
  3: 0x01AB [0x1F] MOVE_ENTITY: Update entity position (mode=1)
  4: 0x01AD [0x1F] MOVE_ENTITY: EventEntity moves to X=-599.753*, Z=608.709*, Y=0.233*
  5: 0x01B5 [0x1F] MOVE_ENTITY: Update entity position (mode=1)
  6: 0x01B7 [0x1F] MOVE_ENTITY: EventEntity moves to X=-603.262*, Z=606.367*, Y=0.116*
  7: 0x01BF [0x1F] MOVE_ENTITY: Update entity position (mode=1)
  8: 0x01C1 [0x01] GOTO 0x0198
  9: 0x01C4 [0x00] END_REQSTACK()
```

### Event 65535.15

#### Metadata

| Field        | Value   |
|--------------|---------|
| Entrypoint   | 0x01C5  |
| Data Size    | 6 bytes |
| Instructions | 2       |

```
      00 01 02 03 04 05 06 07  08 09 0A 0B 0C 0D 0E 0F
      -- -- -- -- -- -- -- --  -- -- -- -- -- -- -- --
01C0:                03 04 00  27 80 00                      ...'..     
```

#### Opcodes

```
  0: 0x01C5 [0x03] ExtData[1]->WorkLocal[4] = 2*
  1: 0x01CA [0x00] END_REQSTACK()
```

### Event 65535.16

#### Metadata

| Field        | Value    |
|--------------|----------|
| Entrypoint   | 0x01CB   |
| Data Size    | 15 bytes |
| Instructions | 3        |

```
      00 01 02 03 04 05 06 07  08 09 0A 0B 0C 0D 0E 0F
      -- -- -- -- -- -- -- --  -- -- -- -- -- -- -- --
01C0:                                   37 33 80 34 80             73.4.
01D0: 35 80 36 80 80 F8 FF FF  7F 00                    5.6.......      
```

#### Opcodes

```
  0: 0x01CB [0x37] UPDATE_EVENT_POSITION_AND_DIR: x=-600.128*, z=585.578*, y=0.628*, direction=25.0°*
  1: 0x01D4 [0x80] LOAD_WAIT(entity=EventEntity)
  2: 0x01D9 [0x00] END_REQSTACK()
```

### Event 65535.17

#### Metadata

| Field        | Value    |
|--------------|----------|
| Entrypoint   | 0x01DA   |
| Data Size    | 54 bytes |
| Instructions | 12       |

```
      00 01 02 03 04 05 06 07  08 09 0A 0B 0C 0D 0E 0F
      -- -- -- -- -- -- -- --  -- -- -- -- -- -- -- --
01D0:                                32 28 80 1F 00 37            2(...7
01E0: 80 38 80 39 80 1F 01 1F  00 3A 80 3B 80 3C 80 1F  .8.9.....:.;.<..
01F0: 01 1F 00 3D 80 3E 80 3F  80 1F 01 1F 00 40 80 41  ...=.>.?.....@.A
0200: 80 42 80 1F 01 1F 00 33  80 34 80 35 80 1F 01 00  .B.....3.4.5....
```

#### Opcodes

```
  0: 0x01DA [0x32] ExtData[1]->MainSpeed = 10* * 0.1
  1: 0x01DD [0x1F] MOVE_ENTITY: EventEntity moves to X=-601.910*, Z=587.743*, Y=0.274*
  2: 0x01E5 [0x1F] MOVE_ENTITY: Update entity position (mode=1)
  3: 0x01E7 [0x1F] MOVE_ENTITY: EventEntity moves to X=-600.199*, Z=588.994*, Y=0.347*
  4: 0x01EF [0x1F] MOVE_ENTITY: Update entity position (mode=1)
  5: 0x01F1 [0x1F] MOVE_ENTITY: EventEntity moves to X=-599.211*, Z=586.089*, Y=0.586*
  6: 0x01F9 [0x1F] MOVE_ENTITY: Update entity position (mode=1)
  7: 0x01FB [0x1F] MOVE_ENTITY: EventEntity moves to X=-599.391*, Z=583.375*, Y=0.830*
  8: 0x0203 [0x1F] MOVE_ENTITY: Update entity position (mode=1)
  9: 0x0205 [0x1F] MOVE_ENTITY: EventEntity moves to X=-600.128*, Z=585.578*, Y=0.628*
 10: 0x020D [0x1F] MOVE_ENTITY: Update entity position (mode=1)
 11: 0x020F [0x00] END_REQSTACK()
```

### Event 65535.18

#### Metadata

| Field        | Value    |
|--------------|----------|
| Entrypoint   | 0x0210   |
| Data Size    | 66 bytes |
| Instructions | 16       |

```
      00 01 02 03 04 05 06 07  08 09 0A 0B 0C 0D 0E 0F
      -- -- -- -- -- -- -- --  -- -- -- -- -- -- -- --
0210: 32 32 80 1F 00 37 80 38  80 39 80 1F 01 1C 43 80  22...7.8.9....C.
0220: 1F 00 3A 80 3B 80 3C 80  1F 01 1C 43 80 1F 00 3D  ..:.;.<....C...=
0230: 80 3E 80 3F 80 1F 01 1C  43 80 1F 00 40 80 41 80  .>.?....C...@.A.
0240: 42 80 1F 01 1C 43 80 1F  00 33 80 34 80 35 80 1F  B....C...3.4.5..
0250: 01 00                                             ..              
```

#### Opcodes

```
  0: 0x0210 [0x32] ExtData[1]->MainSpeed = 19* * 0.1
  1: 0x0213 [0x1F] MOVE_ENTITY: EventEntity moves to X=-601.910*, Z=587.743*, Y=0.274*
  2: 0x021B [0x1F] MOVE_ENTITY: Update entity position (mode=1)
  3: 0x021D [0x1C] WAIT(30* ticks)
  4: 0x0220 [0x1F] MOVE_ENTITY: EventEntity moves to X=-600.199*, Z=588.994*, Y=0.347*
  5: 0x0228 [0x1F] MOVE_ENTITY: Update entity position (mode=1)
  6: 0x022A [0x1C] WAIT(30* ticks)
  7: 0x022D [0x1F] MOVE_ENTITY: EventEntity moves to X=-599.211*, Z=586.089*, Y=0.586*
  8: 0x0235 [0x1F] MOVE_ENTITY: Update entity position (mode=1)
  9: 0x0237 [0x1C] WAIT(30* ticks)
 10: 0x023A [0x1F] MOVE_ENTITY: EventEntity moves to X=-599.391*, Z=583.375*, Y=0.830*
 11: 0x0242 [0x1F] MOVE_ENTITY: Update entity position (mode=1)
 12: 0x0244 [0x1C] WAIT(30* ticks)
 13: 0x0247 [0x1F] MOVE_ENTITY: EventEntity moves to X=-600.128*, Z=585.578*, Y=0.628*
 14: 0x024F [0x1F] MOVE_ENTITY: Update entity position (mode=1)
 15: 0x0251 [0x00] END_REQSTACK()
```

### Event 65535.19

#### Metadata

| Field        | Value    |
|--------------|----------|
| Entrypoint   | 0x0252   |
| Data Size    | 15 bytes |
| Instructions | 3        |

```
      00 01 02 03 04 05 06 07  08 09 0A 0B 0C 0D 0E 0F
      -- -- -- -- -- -- -- --  -- -- -- -- -- -- -- --
0250:       37 44 80 45 80 46  80 47 80 80 F8 FF FF 7F    7D.E.F.G......
0260: 00                                                .               
```

#### Opcodes

```
  0: 0x0252 [0x37] UPDATE_EVENT_POSITION_AND_DIR: x=-601.165*, z=586.560*, y=0.464*, direction=22.6°*
  1: 0x025B [0x80] LOAD_WAIT(entity=EventEntity)
  2: 0x0260 [0x00] END_REQSTACK()
```

### Event 65535.20

#### Metadata

| Field        | Value    |
|--------------|----------|
| Entrypoint   | 0x0261   |
| Data Size    | 73 bytes |
| Instructions | 17       |

```
      00 01 02 03 04 05 06 07  08 09 0A 0B 0C 0D 0E 0F
      -- -- -- -- -- -- -- --  -- -- -- -- -- -- -- --
0260:    32 32 80 1F 00 37 80  38 80 39 80 1F 01 1F 00   22...7.8.9.....
0270: 3A 80 3B 80 3C 80 1F 01  1F 00 3D 80 3E 80 3F 80  :.;.<.....=.>.?.
0280: 1F 01 1F 00 40 80 41 80  42 80 1F 01 1C 43 80 1E  ....@.A.B....C..
0290: 13 61 0E 01 1C 48 80 1F  00 49 80 4A 80 4B 80 1F  .a...H...I.J.K..
02A0: 01 1C 43 80 1E 13 61 0E  01 00                    ..C...a...      
```

#### Opcodes

```
  0: 0x0261 [0x32] ExtData[1]->MainSpeed = 19* * 0.1
  1: 0x0264 [0x1F] MOVE_ENTITY: EventEntity moves to X=-601.910*, Z=587.743*, Y=0.274*
  2: 0x026C [0x1F] MOVE_ENTITY: Update entity position (mode=1)
  3: 0x026E [0x1F] MOVE_ENTITY: EventEntity moves to X=-600.199*, Z=588.994*, Y=0.347*
  4: 0x0276 [0x1F] MOVE_ENTITY: Update entity position (mode=1)
  5: 0x0278 [0x1F] MOVE_ENTITY: EventEntity moves to X=-599.211*, Z=586.089*, Y=0.586*
  6: 0x0280 [0x1F] MOVE_ENTITY: Update entity position (mode=1)
  7: 0x0282 [0x1F] MOVE_ENTITY: EventEntity moves to X=-599.391*, Z=583.375*, Y=0.830*
  8: 0x028A [0x1F] MOVE_ENTITY: Update entity position (mode=1)
  9: 0x028C [0x1C] WAIT(30* ticks)
 10: 0x028F [0x1E] EventEntity looks at Unnamed NPC (ID: 17719571/0x010E6113) and starts talking
 11: 0x0294 [0x1C] WAIT(120* ticks)
 12: 0x0297 [0x1F] MOVE_ENTITY: EventEntity moves to X=-602.007*, Z=587.764*, Y=0.268*
 13: 0x029F [0x1F] MOVE_ENTITY: Update entity position (mode=1)
 14: 0x02A1 [0x1C] WAIT(30* ticks)
 15: 0x02A4 [0x1E] EventEntity looks at Unnamed NPC (ID: 17719571/0x010E6113) and starts talking
 16: 0x02A9 [0x00] END_REQSTACK()
```

### Event 65535.21

#### Metadata

| Field        | Value    |
|--------------|----------|
| Entrypoint   | 0x02AA   |
| Data Size    | 50 bytes |
| Instructions | 12       |

```
      00 01 02 03 04 05 06 07  08 09 0A 0B 0C 0D 0E 0F
      -- -- -- -- -- -- -- --  -- -- -- -- -- -- -- --
02A0:                                32 28 80 1F 00 4C            2(...L
02B0: 80 4D 80 4E 80 1F 01 1C  26 80 1F 00 4F 80 50 80  .M.N....&...O.P.
02C0: 51 80 1F 01 1C 26 80 1F  00 33 80 34 80 35 80 1F  Q....&...3.4.5..
02D0: 01 4B 17 61 0E 01 52 80  1C 26 80 00              .K.a..R..&..    
```

#### Opcodes

```
  0: 0x02AA [0x32] ExtData[1]->MainSpeed = 10* * 0.1
  1: 0x02AD [0x1F] MOVE_ENTITY: EventEntity moves to X=-600.221*, Z=588.558*, Y=0.369*
  2: 0x02B5 [0x1F] MOVE_ENTITY: Update entity position (mode=1)
  3: 0x02B7 [0x1C] WAIT(60* ticks)
  4: 0x02BA [0x1F] MOVE_ENTITY: EventEntity moves to X=-602.144*, Z=586.825*, Y=0.376*
  5: 0x02C2 [0x1F] MOVE_ENTITY: Update entity position (mode=1)
  6: 0x02C4 [0x1C] WAIT(60* ticks)
  7: 0x02C7 [0x1F] MOVE_ENTITY: EventEntity moves to X=-600.128*, Z=585.578*, Y=0.628*
  8: 0x02CF [0x1F] MOVE_ENTITY: Update entity position (mode=1)
  9: 0x02D1 [0x4B] UPDATE_ENTITY_YAW(entity=Unnamed NPC (ID: 17719575/0x010E6117), yaw=11.8°*)
 10: 0x02D8 [0x1C] WAIT(60* ticks)
 11: 0x02DB [0x00] END_REQSTACK()
```

### Event 65535.22

#### Metadata

| Field        | Value    |
|--------------|----------|
| Entrypoint   | 0x02DC   |
| Data Size    | 50 bytes |
| Instructions | 12       |

```
      00 01 02 03 04 05 06 07  08 09 0A 0B 0C 0D 0E 0F
      -- -- -- -- -- -- -- --  -- -- -- -- -- -- -- --
02D0:                                      32 32 80 1F              22..
02E0: 00 53 80 54 80 55 80 1F  01 1C 26 80 1F 00 4F 80  .S.T.U....&...O.
02F0: 50 80 51 80 1F 01 1C 26  80 1F 00 33 80 34 80 35  P.Q....&...3.4.5
0300: 80 1F 01 4B 17 61 0E 01  52 80 1C 26 80 00        ...K.a..R..&..  
```

#### Opcodes

```
  0: 0x02DC [0x32] ExtData[1]->MainSpeed = 19* * 0.1
  1: 0x02DF [0x1F] MOVE_ENTITY: EventEntity moves to X=-599.892*, Z=588.477*, Y=0.373*
  2: 0x02E7 [0x1F] MOVE_ENTITY: Update entity position (mode=1)
  3: 0x02E9 [0x1C] WAIT(60* ticks)
  4: 0x02EC [0x1F] MOVE_ENTITY: EventEntity moves to X=-602.144*, Z=586.825*, Y=0.376*
  5: 0x02F4 [0x1F] MOVE_ENTITY: Update entity position (mode=1)
  6: 0x02F6 [0x1C] WAIT(60* ticks)
  7: 0x02F9 [0x1F] MOVE_ENTITY: EventEntity moves to X=-600.128*, Z=585.578*, Y=0.628*
  8: 0x0301 [0x1F] MOVE_ENTITY: Update entity position (mode=1)
  9: 0x0303 [0x4B] UPDATE_ENTITY_YAW(entity=Unnamed NPC (ID: 17719575/0x010E6117), yaw=11.8°*)
 10: 0x030A [0x1C] WAIT(60* ticks)
 11: 0x030D [0x00] END_REQSTACK()
```

### Event 65535.23

#### Metadata

| Field        | Value    |
|--------------|----------|
| Entrypoint   | 0x030E   |
| Data Size    | 67 bytes |
| Instructions | 15       |

```
      00 01 02 03 04 05 06 07  08 09 0A 0B 0C 0D 0E 0F
      -- -- -- -- -- -- -- --  -- -- -- -- -- -- -- --
0300:                                            32 05                2.
0310: 80 1F 00 56 80 57 80 58  80 1F 01 4B 17 61 0E 01  ...V.W.X...K.a..
0320: 59 80 1C 26 80 1F 00 5A  80 5B 80 5C 80 1F 01 4B  Y..&...Z.[.\...K
0330: 17 61 0E 01 5D 80 1C 5E  80 1F 00 5F 80 60 80 61  .a..]..^..._.`.a
0340: 80 1F 01 1C 43 80 4B 17  61 0E 01 62 80 1C 26 80  ....C.K.a..b..&.
0350: 00                                                .               
```

#### Opcodes

```
  0: 0x030E [0x32] ExtData[1]->MainSpeed = 57* * 0.1
  1: 0x0311 [0x1F] MOVE_ENTITY: EventEntity moves to X=-599.295*, Z=590.678*, Y=0.264*
  2: 0x0319 [0x1F] MOVE_ENTITY: Update entity position (mode=1)
  3: 0x031B [0x4B] UPDATE_ENTITY_YAW(entity=Unnamed NPC (ID: 17719575/0x010E6117), yaw=5.3°*)
  4: 0x0322 [0x1C] WAIT(60* ticks)
  5: 0x0325 [0x1F] MOVE_ENTITY: EventEntity moves to X=-604.353*, Z=586.292*, Y=0.138*
  6: 0x032D [0x1F] MOVE_ENTITY: Update entity position (mode=1)
  7: 0x032F [0x4B] UPDATE_ENTITY_YAW(entity=Unnamed NPC (ID: 17719575/0x010E6117), yaw=0.2°*)
  8: 0x0336 [0x1C] WAIT(240* ticks)
  9: 0x0339 [0x1F] MOVE_ENTITY: EventEntity moves to X=-600.328*, Z=582.410*, Y=0.802*
 10: 0x0341 [0x1F] MOVE_ENTITY: Update entity position (mode=1)
 11: 0x0343 [0x1C] WAIT(30* ticks)
 12: 0x0346 [0x4B] UPDATE_ENTITY_YAW(entity=Unnamed NPC (ID: 17719575/0x010E6117), yaw=16.6°*)
 13: 0x034D [0x1C] WAIT(60* ticks)
 14: 0x0350 [0x00] END_REQSTACK()
```

### Event 65535.24

#### Metadata

| Field        | Value    |
|--------------|----------|
| Entrypoint   | 0x0351   |
| Data Size    | 14 bytes |
| Instructions | 4        |

```
      00 01 02 03 04 05 06 07  08 09 0A 0B 0C 0D 0E 0F
      -- -- -- -- -- -- -- --  -- -- -- -- -- -- -- --
0350:    32 28 80 1F 00 63 80  64 80 65 80 1F 01 00      2(...c.d.e.... 
```

#### Opcodes

```
  0: 0x0351 [0x32] ExtData[1]->MainSpeed = 10* * 0.1
  1: 0x0354 [0x1F] MOVE_ENTITY: EventEntity moves to X=-599.148*, Z=589.043*, Y=0.345*
  2: 0x035C [0x1F] MOVE_ENTITY: Update entity position (mode=1)
  3: 0x035E [0x00] END_REQSTACK()
```

### Event 65535.25

#### Metadata

| Field        | Value    |
|--------------|----------|
| Entrypoint   | 0x035F   |
| Data Size    | 51 bytes |
| Instructions | 11       |

```
      00 01 02 03 04 05 06 07  08 09 0A 0B 0C 0D 0E 0F
      -- -- -- -- -- -- -- --  -- -- -- -- -- -- -- --
0350:                                               32                 2
0360: 28 80 1F 00 66 80 67 80  05 80 1F 01 1F 00 68 80  (...f.g.......h.
0370: 69 80 6A 80 1F 01 1F 00  6B 80 6C 80 6D 80 1F 01  i.j.....k.l.m...
0380: 1E 13 61 0E 01 1C 43 80  4A 13 61 0E 01 14 61 0E  ..a...C.J.a...a.
0390: 01 00                                             ..              
```

#### Opcodes

```
  0: 0x035F [0x32] ExtData[1]->MainSpeed = 10* * 0.1
  1: 0x0362 [0x1F] MOVE_ENTITY: EventEntity moves to X=-604.257*, Z=586.573*, Y=0.057*
  2: 0x036A [0x1F] MOVE_ENTITY: Update entity position (mode=1)
  3: 0x036C [0x1F] MOVE_ENTITY: EventEntity moves to X=-603.318*, Z=588.527*, Y=0.196*
  4: 0x0374 [0x1F] MOVE_ENTITY: Update entity position (mode=1)
  5: 0x0376 [0x1F] MOVE_ENTITY: EventEntity moves to X=-601.495*, Z=586.040*, Y=0.496*
  6: 0x037E [0x1F] MOVE_ENTITY: Update entity position (mode=1)
  7: 0x0380 [0x1E] EventEntity looks at Unnamed NPC (ID: 17719571/0x010E6113) and starts talking
  8: 0x0385 [0x1C] WAIT(30* ticks)
  9: 0x0388 [0x4A] Unnamed NPC (ID: 17719571/0x010E6113) looks at Unnamed NPC (ID: 17719572/0x010E6114)
 10: 0x0391 [0x00] END_REQSTACK()
```

### Event 65535.26

#### Metadata

| Field        | Value    |
|--------------|----------|
| Entrypoint   | 0x0392   |
| Data Size    | 14 bytes |
| Instructions | 4        |

```
      00 01 02 03 04 05 06 07  08 09 0A 0B 0C 0D 0E 0F
      -- -- -- -- -- -- -- --  -- -- -- -- -- -- -- --
0390:       32 05 80 1F 00 63  80 64 80 65 80 1F 01 00    2....c.d.e....
```

#### Opcodes

```
  0: 0x0392 [0x32] ExtData[1]->MainSpeed = 57* * 0.1
  1: 0x0395 [0x1F] MOVE_ENTITY: EventEntity moves to X=-599.148*, Z=589.043*, Y=0.345*
  2: 0x039D [0x1F] MOVE_ENTITY: Update entity position (mode=1)
  3: 0x039F [0x00] END_REQSTACK()
```

### Event 65535.27

#### Metadata

| Field        | Value    |
|--------------|----------|
| Entrypoint   | 0x03A0   |
| Data Size    | 51 bytes |
| Instructions | 11       |

```
      00 01 02 03 04 05 06 07  08 09 0A 0B 0C 0D 0E 0F
      -- -- -- -- -- -- -- --  -- -- -- -- -- -- -- --
03A0: 32 05 80 1F 00 66 80 67  80 05 80 1F 01 1F 00 68  2....f.g.......h
03B0: 80 69 80 6A 80 1F 01 1F  00 6B 80 6C 80 6D 80 1F  .i.j.....k.l.m..
03C0: 01 1E 13 61 0E 01 1C 43  80 4A 13 61 0E 01 17 61  ...a...C.J.a...a
03D0: 0E 01 00                                          ...             
```

#### Opcodes

```
  0: 0x03A0 [0x32] ExtData[1]->MainSpeed = 57* * 0.1
  1: 0x03A3 [0x1F] MOVE_ENTITY: EventEntity moves to X=-604.257*, Z=586.573*, Y=0.057*
  2: 0x03AB [0x1F] MOVE_ENTITY: Update entity position (mode=1)
  3: 0x03AD [0x1F] MOVE_ENTITY: EventEntity moves to X=-603.318*, Z=588.527*, Y=0.196*
  4: 0x03B5 [0x1F] MOVE_ENTITY: Update entity position (mode=1)
  5: 0x03B7 [0x1F] MOVE_ENTITY: EventEntity moves to X=-601.495*, Z=586.040*, Y=0.496*
  6: 0x03BF [0x1F] MOVE_ENTITY: Update entity position (mode=1)
  7: 0x03C1 [0x1E] EventEntity looks at Unnamed NPC (ID: 17719571/0x010E6113) and starts talking
  8: 0x03C6 [0x1C] WAIT(30* ticks)
  9: 0x03C9 [0x4A] Unnamed NPC (ID: 17719571/0x010E6113) looks at Unnamed NPC (ID: 17719575/0x010E6117)
 10: 0x03D2 [0x00] END_REQSTACK()
```

### Event 65535.28

#### Metadata

| Field        | Value    |
|--------------|----------|
| Entrypoint   | 0x03D3   |
| Data Size    | 59 bytes |
| Instructions | 13       |

```
      00 01 02 03 04 05 06 07  08 09 0A 0B 0C 0D 0E 0F
      -- -- -- -- -- -- -- --  -- -- -- -- -- -- -- --
03D0:          32 28 80 1F 00  6E 80 6F 80 70 80 1F 01     2(...n.o.p...
03E0: 1F 00 71 80 72 80 73 80  1F 01 1F 00 74 80 75 80  ..q.r.s.....t.u.
03F0: 76 80 1F 01 1F 00 77 80  78 80 79 80 1F 01 1F 00  v.....w.x.y.....
0400: 7A 80 7B 80 7C 80 1F 01  1E 13 61 0E 01 00        z.{.|.....a...  
```

#### Opcodes

```
  0: 0x03D3 [0x32] ExtData[1]->MainSpeed = 10* * 0.1
  1: 0x03D6 [0x1F] MOVE_ENTITY: EventEntity moves to X=-601.361*, Z=584.507*, Y=0.542*
  2: 0x03DE [0x1F] MOVE_ENTITY: Update entity position (mode=1)
  3: 0x03E0 [0x1F] MOVE_ENTITY: EventEntity moves to X=-600.414*, Z=583.859*, Y=0.704*
  4: 0x03E8 [0x1F] MOVE_ENTITY: Update entity position (mode=1)
  5: 0x03EA [0x1F] MOVE_ENTITY: EventEntity moves to X=-599.376*, Z=585.276*, Y=0.668*
  6: 0x03F2 [0x1F] MOVE_ENTITY: Update entity position (mode=1)
  7: 0x03F4 [0x1F] MOVE_ENTITY: EventEntity moves to X=-598.992*, Z=587.260*, Y=0.468*
  8: 0x03FC [0x1F] MOVE_ENTITY: Update entity position (mode=1)
  9: 0x03FE [0x1F] MOVE_ENTITY: EventEntity moves to X=-599.942*, Z=587.474*, Y=0.447*
 10: 0x0406 [0x1F] MOVE_ENTITY: Update entity position (mode=1)
 11: 0x0408 [0x1E] EventEntity looks at Unnamed NPC (ID: 17719571/0x010E6113) and starts talking
 12: 0x040D [0x00] END_REQSTACK()
```

### Event 65535.29

#### Metadata

| Field        | Value    |
|--------------|----------|
| Entrypoint   | 0x040E   |
| Data Size    | 69 bytes |
| Instructions | 15       |

```
      00 01 02 03 04 05 06 07  08 09 0A 0B 0C 0D 0E 0F
      -- -- -- -- -- -- -- --  -- -- -- -- -- -- -- --
0400:                                            32 05                2.
0410: 80 1F 00 7D 80 7E 80 25  80 1F 01 1F 00 7F 80 80  ...}.~.%........
0420: 80 81 80 1F 01 1F 00 82  80 83 80 84 80 1F 01 1F  ................
0430: 00 85 80 86 80 87 80 1F  01 1F 00 88 80 89 80 8A  ................
0440: 80 1F 01 1F 00 8B 80 8C  80 8D 80 1F 01 1E 13 61  ...............a
0450: 0E 01 00                                          ...             
```

#### Opcodes

```
  0: 0x040E [0x32] ExtData[1]->MainSpeed = 57* * 0.1
  1: 0x0411 [0x1F] MOVE_ENTITY: EventEntity moves to X=-602.454*, Z=588.333*, Y=0.247*
  2: 0x0419 [0x1F] MOVE_ENTITY: Update entity position (mode=1)
  3: 0x041B [0x1F] MOVE_ENTITY: EventEntity moves to X=-603.634*, Z=585.657*, Y=0.144*
  4: 0x0423 [0x1F] MOVE_ENTITY: Update entity position (mode=1)
  5: 0x0425 [0x1F] MOVE_ENTITY: EventEntity moves to X=-602.421*, Z=582.680*, Y=0.396*
  6: 0x042D [0x1F] MOVE_ENTITY: Update entity position (mode=1)
  7: 0x042F [0x1F] MOVE_ENTITY: EventEntity moves to X=-599.175*, Z=582.899*, Y=0.854*
  8: 0x0437 [0x1F] MOVE_ENTITY: Update entity position (mode=1)
  9: 0x0439 [0x1F] MOVE_ENTITY: EventEntity moves to X=-598.432*, Z=587.737*, Y=0.410*
 10: 0x0441 [0x1F] MOVE_ENTITY: Update entity position (mode=1)
 11: 0x0443 [0x1F] MOVE_ENTITY: EventEntity moves to X=-599.890*, Z=589.432*, Y=0.326*
 12: 0x044B [0x1F] MOVE_ENTITY: Update entity position (mode=1)
 13: 0x044D [0x1E] EventEntity looks at Unnamed NPC (ID: 17719571/0x010E6113) and starts talking
 14: 0x0452 [0x00] END_REQSTACK()
```

### Event 65535.30

#### Metadata

| Field        | Value    |
|--------------|----------|
| Entrypoint   | 0x0453   |
| Data Size    | 15 bytes |
| Instructions | 3        |

```
      00 01 02 03 04 05 06 07  08 09 0A 0B 0C 0D 0E 0F
      -- -- -- -- -- -- -- --  -- -- -- -- -- -- -- --
0450:          37 49 80 4A 80  4B 80 36 80 80 F8 FF FF     7I.J.K.6.....
0460: 7F 00                                             ..              
```

#### Opcodes

```
  0: 0x0453 [0x37] UPDATE_EVENT_POSITION_AND_DIR: x=-602.007*, z=587.764*, y=0.268*, direction=25.0°*
  1: 0x045C [0x80] LOAD_WAIT(entity=EventEntity)
  2: 0x0461 [0x00] END_REQSTACK()
```
