# 17719570 - Hantileon

## Common Data

| Field            | Value                         |
|------------------|-------------------------------|
| Zone             | Southern San d'Oria (ID: 230) |
| Block Size       | 71456 bytes                   |
| Total Events     | 49                            |
| References Count | 1443                          |

## List of Events

| Event ID                   | Entrypoint   |   Size |   Instructions |
|----------------------------|--------------|--------|----------------|
| [65535](#event-65535)      | 0x0000       |      1 |              1 |
| [817](#event-817)          | 0x0001       |     78 |             18 |
| [821](#event-821)          | 0x004F       |      1 |              1 |
| [65535.1](#event-655351)   | 0x0050       |     15 |              3 |
| [822](#event-822)          | 0x005F       |     29 |              7 |
| [831](#event-831)          | 0x007C       |     67 |             17 |
| [65535.2](#event-655352)   | 0x00BF       |     20 |              4 |
| [65535.3](#event-655353)   | 0x00D3       |     15 |              3 |
| [65535.4](#event-655354)   | 0x00E2       |     15 |              3 |
| [65535.5](#event-655355)   | 0x00F1       |     15 |              3 |
| [65535.6](#event-655356)   | 0x0100       |     22 |              6 |
| [65535.7](#event-655357)   | 0x0116       |     15 |              3 |
| [65535.8](#event-655358)   | 0x0125       |     72 |             16 |
| [65535.9](#event-655359)   | 0x016D       |     15 |              3 |
| [65535.10](#event-6553510) | 0x017C       |    312 |             50 |
| [65535.11](#event-6553511) | 0x02B4       |     62 |             10 |
| [65535.12](#event-6553512) | 0x02F2       |     82 |             13 |
| [65535.13](#event-6553513) | 0x0344       |     71 |             13 |
| [65535.14](#event-6553514) | 0x038B       |     73 |             13 |
| [65535.15](#event-6553515) | 0x03D4       |     15 |              3 |
| [65535.16](#event-6553516) | 0x03E3       |     15 |              3 |
| [65535.17](#event-6553517) | 0x03F2       |     15 |              3 |
| [65535.18](#event-6553518) | 0x0401       |     45 |             11 |
| [65535.19](#event-6553519) | 0x042E       |     15 |              3 |
| [65535.20](#event-6553520) | 0x043D       |     32 |              8 |
| [65535.21](#event-6553521) | 0x045D       |     15 |              3 |
| [65535.22](#event-6553522) | 0x046C       |     19 |              5 |
| [65535.23](#event-6553523) | 0x047F       |     15 |              3 |
| [65535.24](#event-6553524) | 0x048E       |    235 |             39 |
| [65535.25](#event-6553525) | 0x0579       |     15 |              3 |
| [65535.26](#event-6553526) | 0x0588       |     15 |              3 |
| [65535.27](#event-6553527) | 0x0597       |     15 |              3 |
| [65535.28](#event-6553528) | 0x05A6       |     19 |              5 |
| [65535.29](#event-6553529) | 0x05B9       |     15 |              3 |
| [65535.30](#event-6553530) | 0x05C8       |     19 |              5 |
| [65535.31](#event-6553531) | 0x05DB       |     15 |              3 |
| [65535.32](#event-6553532) | 0x05EA       |     19 |              5 |
| [65535.33](#event-6553533) | 0x05FD       |     15 |              3 |
| [65535.34](#event-6553534) | 0x060C       |     15 |              3 |
| [65535.35](#event-6553535) | 0x061B       |     15 |              3 |
| [830](#event-830)          | 0x062A       |      1 |              1 |
| [852](#event-852)          | 0x062B       |      1 |              1 |
| [824](#event-824)          | 0x062C       |      2 |              2 |
| [823](#event-823)          | 0x062E       |   1740 |            307 |
| [829](#event-829)          | 0x0CFA       |  10980 |           2287 |
| [826](#event-826)          | 0x37DE       |    299 |             41 |
| [825](#event-825)          | 0x3909       |      6 |              4 |
| [827](#event-827)          | 0x390F       |      5 |              3 |
| [65535.36](#event-6553536) | 0x3914       |  50858 |           7373 |

## DAT References (imed_data)

|   Index | Hex Value   |   Dec Value |
|---------|-------------|-------------|
|       0 | 0x001E      |          30 |
|       1 | 0x0000      |           0 |
|       2 | 0x2927      |       10535 |
|       3 | 0x001D      |          29 |
|       4 | 0x2928      |       10536 |
|       5 | 0x2929      |       10537 |
|       6 | 0x292A      |       10538 |
|       7 | 0xFFFFF17B  |  4294963579 |
|       8 | 0xFFFE800F  |  4294869007 |
|       9 | 0xFFFFFF9D  |  4294967197 |
|      10 | 0x0828      |        2088 |
|      11 | 0x2926      |       10534 |
|      12 | 0x0001      |           1 |
|      13 | 0x2B47      |       11079 |
|      14 | 0x2B48      |       11080 |
|      15 | 0x2B49      |       11081 |
|      16 | 0xFFFFF58D  |  4294964621 |
|      17 | 0xFFFE64B9  |  4294862009 |
|      18 | 0xFFFFFF9C  |  4294967196 |
|      19 | 0x0A4F      |        2639 |
|      20 | 0xFFFFDE0C  |  4294958604 |
|      21 | 0xFFFE7782  |  4294866818 |
|      22 | 0x0577      |        1399 |
|      23 | 0x002F      |          47 |
|      24 | 0x13A3      |        5027 |
|      25 | 0xFFFE5201  |  4294857217 |
|      26 | 0x060C      |        1548 |
|      27 | 0x07C2      |        1986 |
|      28 | 0xFFFFD79A  |  4294956954 |
|      29 | 0xFFFE3FC2  |  4294852546 |
|      30 | 0x06FF      |        1791 |
|      31 | 0x000D      |          13 |
|      32 | 0xFFFFD171  |  4294955377 |
|      33 | 0xFFFE3EEE  |  4294852334 |
|      34 | 0x003C      |          60 |
|      35 | 0xFFFFE524  |  4294960420 |
|      36 | 0xFFFE69C0  |  4294863296 |
|      37 | 0x0487      |        1159 |
|      38 | 0xFFFFDF11  |  4294958865 |
|      39 | 0xFFFE617E  |  4294861182 |
|      40 | 0x003E      |          62 |
|      41 | 0xFFFFE058  |  4294959192 |
|      42 | 0xFFFE5C73  |  4294859891 |
|      43 | 0xFFFFE522  |  4294960418 |
|      44 | 0xFFFE59E0  |  4294859232 |
|      45 | 0x0ADB      |        2779 |
|      46 | 0x0007      |           7 |
|      47 | 0xFFFFD9A9  |  4294957481 |
|      48 | 0xFFFE774C  |  4294866764 |
|      49 | 0x008B      |         139 |
|      50 | 0x0028      |          40 |
|      51 | 0xFFFFE4D7  |  4294960343 |
|      52 | 0xFFFE7780  |  4294866816 |
|      53 | 0xFFFFE4D2  |  4294960338 |
|      54 | 0xFFFE76B8  |  4294866616 |
|      55 | 0xFFFFDA7F  |  4294957695 |
|      56 | 0xFFFE76C3  |  4294866627 |
|      57 | 0xFFFFECF8  |  4294962424 |
|      58 | 0xFFFE5C3E  |  4294859838 |
|      59 | 0x0945      |        2373 |
|      60 | 0x0003      |           3 |
|      61 | 0x036B      |         875 |
|      62 | 0x00E0      |         224 |
|      63 | 0x00DE      |         222 |
|      64 | 0xFFFFDF97  |  4294958999 |
|      65 | 0xFFFE5CF8  |  4294860024 |
|      66 | 0x0064      |         100 |
|      67 | 0xFFFFDEC3  |  4294958787 |
|      68 | 0xFFFE6767  |  4294862695 |
|      69 | 0xFFFFE00B  |  4294959115 |
|      70 | 0xFFFE67A5  |  4294862757 |
|      71 | 0x0013      |          19 |
|      72 | 0x03DF      |         991 |
|      73 | 0xFFFFE10A  |  4294959370 |
|      74 | 0xFFFE7716  |  4294866710 |
|      75 | 0x02E6      |         742 |
|      76 | 0x0200      |         512 |
|      77 | 0xFFFFDC3B  |  4294958139 |
|      78 | 0xFFFE3F94  |  4294852500 |
|      79 | 0x0653      |        1619 |
|      80 | 0xFFFFE90B  |  4294961419 |
|      81 | 0xFFFE5D37  |  4294860087 |
|      82 | 0x0AB3      |        2739 |
|      83 | 0x06A2      |        1698 |
|      84 | 0xFFFEF2CA  |  4294898378 |
|      85 | 0x07CF      |        1999 |
|      86 | 0x0CC6      |        3270 |
|      87 | 0xFFFFF83C  |  4294965308 |
|      88 | 0xFFFEF1E5  |  4294898149 |
|      89 | 0xFFFFF80F  |  4294965263 |
|      90 | 0xFFFEFA0C  |  4294900236 |
|      91 | 0x0078      |         120 |
|      92 | 0xFFFFC2BD  |  4294951613 |
|      93 | 0xFFFFBD82  |  4294950274 |
|      94 | 0x07FC      |        2044 |
|      95 | 0xFFFFB051  |  4294946897 |
|      96 | 0xFFFFB8E8  |  4294949096 |
|      97 | 0x005A      |          90 |
|      98 | 0x0984      |        2436 |
|      99 | 0x1DCAC     |      122028 |
|     100 | 0x14626     |       83494 |
|     101 | 0x0E6C      |        3692 |
|     102 | 0x1E1D4     |      123348 |
|     103 | 0x14B8B     |       84875 |
|     104 | 0xFFFF98F9  |  4294940921 |
|     105 | 0xFFFE857B  |  4294870395 |
|     106 | 0x041F      |        1055 |
|     107 | 0x0BED      |        3053 |
|     108 | 0xFFFFA8E1  |  4294944993 |
|     109 | 0xFFFE9DD9  |  4294876633 |
|     110 | 0xFFFFC627  |  4294952487 |
|     111 | 0xFFFEF56C  |  4294899052 |
|     112 | 0x0199      |         409 |
|     113 | 0x00FE      |         254 |
|     114 | 0xFFFFD7C0  |  4294956992 |
|     115 | 0xFFFEF050  |  4294897744 |
|     116 | 0xFFFFF270  |  4294963824 |
|     117 | 0xFFFEEA63  |  4294896227 |
|     118 | 0x2075      |        8309 |
|     119 | 0xFFFEA747  |  4294879047 |
|     120 | 0x0897      |        2199 |
|     121 | 0x0483      |        1155 |
|     122 | 0x1E04      |        7684 |
|     123 | 0xFFFE97F7  |  4294875127 |
|     124 | 0xFFFFDE6D  |  4294958701 |
|     125 | 0xFFFE73B6  |  4294865846 |
|     126 | 0x0C00      |        3072 |
|     127 | 0xFFF818A4  |  4294449316 |
|     128 | 0xFFF9AE2B  |  4294553131 |
|     129 | 0x02E0      |         736 |
|     130 | 0x09F9      |        2553 |
|     131 | 0xFFFC6911  |  4294732049 |
|     132 | 0x4D9CF     |      317903 |
|     133 | 0xFFFF15F8  |  4294907384 |
|     134 | 0x0E43      |        3651 |
|     135 | 0xFFFC7B66  |  4294736742 |
|     136 | 0x4EDF4     |      323060 |
|     137 | 0xFFFF1794  |  4294907796 |
|     138 | 0xFFFA0D12  |  4294577426 |
|     139 | 0x2217A     |      139642 |
|     140 | 0xFFFF75AC  |  4294931884 |
|     141 | 0x0092      |         146 |
|     142 | 0xFFFA1D2C  |  4294581548 |
|     143 | 0x216C4     |      136900 |
|     144 | 0xFFFF73D7  |  4294931415 |
|     145 | 0xFFF608C9  |  4294314185 |
|     146 | 0x5024      |       20516 |
|     147 | 0xFFFF9872  |  4294940786 |
|     148 | 0x0761      |        1889 |
|     149 | 0xFFF5F9DB  |  4294310363 |
|     150 | 0x4E66      |       20070 |
|     151 | 0xFFFF970B  |  4294940427 |
|     152 | 0x5CEB      |       23787 |
|     153 | 0xFFFEF92C  |  4294900012 |
|     154 | 0x07CB      |        1995 |
|     155 | 0x01EE      |         494 |
|     156 | 0xFFFF8FAE  |  4294938542 |
|     157 | 0xFFFEE50C  |  4294894860 |
|     158 | 0x0E6E      |        3694 |
|     159 | 0xFFFD5B8C  |  4294794124 |
|     160 | 0x3D793     |      251795 |
|     161 | 0xFFFF1881  |  4294908033 |
|     162 | 0x0B91      |        2961 |
|     163 | 0x0005      |           5 |
|     164 | 0x00C8      |         200 |
|     165 | 0x001B      |          27 |
|     166 | 0x00BC      |         188 |
|     167 | 0x00E6      |         230 |
|     168 | 0x0148      |         328 |
|     169 | 0x2BA6      |       11174 |
|     170 | 0x2BA7      |       11175 |
|     171 | 0x2BA3      |       11171 |
|     172 | 0x2BA4      |       11172 |
|     173 | 0x00FF      |         255 |
|     174 | 0x0004      |           4 |
|     175 | 0x00D0      |         208 |
|     176 | 0xFFFFFFFF  |  4294967295 |
|     177 | 0x2ED7      |       11991 |
|     178 | 0x0002      |           2 |
|     179 | 0x2ED8      |       11992 |
|     180 | 0x2EDB      |       11995 |
|     181 | 0x01F8      |         504 |
|     182 | 0x00F8      |         248 |
|     183 | 0x0009      |           9 |
|     184 | 0x000A      |          10 |
|     185 | 0x0014      |          20 |
|     186 | 0x001F      |          31 |
|     187 | 0x000F      |          15 |
|     188 | 0x0010      |          16 |
|     189 | 0x0017      |          23 |
|     190 | 0x0018      |          24 |
|     191 | 0x2998      |       10648 |
|     192 | 0x2999      |       10649 |
|     193 | 0x00F6      |         246 |
|     194 | 0x2C18      |       11288 |
|     195 | 0x00F1      |         241 |
|     196 | 0x0129      |         297 |
|     197 | 0x00D6      |         214 |
|     198 | 0x00D7      |         215 |
|     199 | 0x3CAD      |       15533 |
|     200 | 0x2951      |       10577 |
|     201 | 0x0006      |           6 |
|     202 | 0x001A      |          26 |
|     203 | 0x0100      |         256 |
|     204 | 0x00E2      |         226 |
|     205 | 0x001C      |          28 |
|     206 | 0x00E8      |         232 |
|     207 | 0x006B      |         107 |
|     208 | 0x2B39      |       11065 |
|     209 | 0x2B3A      |       11066 |
|     210 | 0x2E18      |       11800 |
|     211 | 0x2E19      |       11801 |
|     212 | 0x2E1A      |       11802 |
|     213 | 0x2E1B      |       11803 |
|     214 | 0x2E1C      |       11804 |
|     215 | 0x2C09      |       11273 |
|     216 | 0x4E20      |       20000 |
|     217 | 0x2C0A      |       11274 |
|     218 | 0x2C0B      |       11275 |
|     219 | 0x29D7      |       10711 |
|     220 | 0x2C0C      |       11276 |
|     221 | 0x00DD      |         221 |
|     222 | 0x2C02      |       11266 |
|     223 | 0x2C03      |       11267 |
|     224 | 0x0909      |        2313 |
|     225 | 0x2C04      |       11268 |
|     226 | 0x00FA      |         250 |
|     227 | 0x29D0      |       10704 |
|     228 | 0x2C06      |       11270 |
|     229 | 0x2C05      |       11269 |
|     230 | 0x00DF      |         223 |
|     231 | 0x2953      |       10579 |
|     232 | 0x0962      |        2402 |
|     233 | 0x2C1D      |       11293 |
|     234 | 0x2C1E      |       11294 |
|     235 | 0x29CB      |       10699 |
|     236 | 0x0061      |          97 |
|     237 | 0x2BFF      |       11263 |
|     238 | 0x012C      |         300 |
|     239 | 0x2C00      |       11264 |
|     240 | 0x2C01      |       11265 |
|     241 | 0x29C8      |       10696 |
|     242 | 0x00EF      |         239 |
|     243 | 0x01EF      |         495 |
|     244 | 0x2949      |       10569 |
|     245 | 0x2BF7      |       11255 |
|     246 | 0x2BF8      |       11256 |
|     247 | 0x2BF9      |       11257 |
|     248 | 0x2BFA      |       11258 |
|     249 | 0x2BFB      |       11259 |
|     250 | 0x0060      |          96 |
|     251 | 0x0008      |           8 |
|     252 | 0x0160      |         352 |
|     253 | 0x2BF5      |       11253 |
|     254 | 0x2BF6      |       11254 |
|     255 | 0x2BE3      |       11235 |
|     256 | 0x2BE5      |       11237 |
|     257 | 0x2BE4      |       11236 |
|     258 | 0x2BE6      |       11238 |
|     259 | 0x2BE7      |       11239 |
|     260 | 0x2BE9      |       11241 |
|     261 | 0x2BE8      |       11240 |
|     262 | 0x2BEA      |       11242 |
|     263 | 0x2BEB      |       11243 |
|     264 | 0x2BED      |       11245 |
|     265 | 0x2BEC      |       11244 |
|     266 | 0x2BEE      |       11246 |
|     267 | 0x2BEF      |       11247 |
|     268 | 0x2BF0      |       11248 |
|     269 | 0x2BF1      |       11249 |
|     270 | 0x2BF2      |       11250 |
|     271 | 0x2BF3      |       11251 |
|     272 | 0x2BF4      |       11252 |
|     273 | 0x00F0      |         240 |
|     274 | 0x002E      |          46 |
|     275 | 0x2BA9      |       11177 |
|     276 | 0x2BA8      |       11176 |
|     277 | 0x00FB      |         251 |
|     278 | 0x0012      |          18 |
|     279 | 0x2BAA      |       11178 |
|     280 | 0x2BAB      |       11179 |
|     281 | 0x2BAC      |       11180 |
|     282 | 0x2BAD      |       11181 |
|     283 | 0x2BAE      |       11182 |
|     284 | 0x2BAF      |       11183 |
|     285 | 0x2BB0      |       11184 |
|     286 | 0x2BB1      |       11185 |
|     287 | 0x2BB2      |       11186 |
|     288 | 0x0216      |         534 |
|     289 | 0x2BB3      |       11187 |
|     290 | 0x0899      |        2201 |
|     291 | 0x2BB5      |       11189 |
|     292 | 0x089A      |        2202 |
|     293 | 0x2BB4      |       11188 |
|     294 | 0x2BB7      |       11191 |
|     295 | 0x2BB8      |       11192 |
|     296 | 0x2BB9      |       11193 |
|     297 | 0x2BB6      |       11190 |
|     298 | 0x2BBA      |       11194 |
|     299 | 0x2BBB      |       11195 |
|     300 | 0x2BBC      |       11196 |
|     301 | 0x2BBD      |       11197 |
|     302 | 0x000B      |          11 |
|     303 | 0x2BBE      |       11198 |
|     304 | 0x000C      |          12 |
|     305 | 0x2BBF      |       11199 |
|     306 | 0x2BC0      |       11200 |
|     307 | 0x2BC1      |       11201 |
|     308 | 0x2BC2      |       11202 |
|     309 | 0x2BC3      |       11203 |
|     310 | 0x2BC4      |       11204 |
|     311 | 0x2BC5      |       11205 |
|     312 | 0x2BC6      |       11206 |
|     313 | 0x2B7C      |       11132 |
|     314 | 0x2B7E      |       11134 |
|     315 | 0x2B7F      |       11135 |
|     316 | 0x0DCF      |        3535 |
|     317 | 0x0368      |         872 |
|     318 | 0x2B7D      |       11133 |
|     319 | 0x2B80      |       11136 |
|     320 | 0x00F3      |         243 |
|     321 | 0x29B5      |       10677 |
|     322 | 0x2BC9      |       11209 |
|     323 | 0x29B6      |       10678 |
|     324 | 0x00F2      |         242 |
|     325 | 0x0030      |          48 |
|     326 | 0x2BC7      |       11207 |
|     327 | 0x2BC8      |       11208 |
|     328 | 0x2BCA      |       11210 |
|     329 | 0x0032      |          50 |
|     330 | 0x2BCB      |       11211 |
|     331 | 0x0033      |          51 |
|     332 | 0x2BCC      |       11212 |
|     333 | 0x2BCD      |       11213 |
|     334 | 0x0034      |          52 |
|     335 | 0x2BCE      |       11214 |
|     336 | 0x2EDC      |       11996 |
|     337 | 0x002A      |          42 |
|     338 | 0x2BCF      |       11215 |
|     339 | 0x002B      |          43 |
|     340 | 0x2BD0      |       11216 |
|     341 | 0x002C      |          44 |
|     342 | 0x297A      |       10618 |
|     343 | 0x297B      |       10619 |
|     344 | 0x297F      |       10623 |
|     345 | 0x01FE      |         510 |
|     346 | 0x02FE      |         766 |
|     347 | 0x03FE      |        1022 |
|     348 | 0x2983      |       10627 |
|     349 | 0x297C      |       10620 |
|     350 | 0x2BD1      |       11217 |
|     351 | 0x2947      |       10567 |
|     352 | 0x2BD2      |       11218 |
|     353 | 0x2BD3      |       11219 |
|     354 | 0x2BD4      |       11220 |
|     355 | 0x2BD5      |       11221 |
|     356 | 0x2BD6      |       11222 |
|     357 | 0x2BD7      |       11223 |
|     358 | 0x2BD8      |       11224 |
|     359 | 0x2BD9      |       11225 |
|     360 | 0x2BDA      |       11226 |
|     361 | 0x2BDB      |       11227 |
|     362 | 0x2BDC      |       11228 |
|     363 | 0x2BDD      |       11229 |
|     364 | 0x2BDE      |       11230 |
|     365 | 0x2BDF      |       11231 |
|     366 | 0x2BE0      |       11232 |
|     367 | 0x2BE1      |       11233 |
|     368 | 0x2BE2      |       11234 |
|     369 | 0x297E      |       10622 |
|     370 | 0x29C0      |       10688 |
|     371 | 0x7800      |       30720 |
|     372 | 0x000E      |          14 |
|     373 | 0x4000      |       16384 |
|     374 | 0x3800      |       14336 |
|     375 | 0x29C1      |       10689 |
|     376 | 0x0011      |          17 |
|     377 | 0x2C2D      |       11309 |
|     378 | 0x29C3      |       10691 |
|     379 | 0xBFFFFFC0  |  3221225408 |
|     380 | 0x4000000   |    67108864 |
|     381 | 0x3FFC0000  |  1073479680 |
|     382 | 0x3F000000  |  1056964608 |
|     383 | 0x0800      |        2048 |
|     384 | 0x3FFFC100  |  1073725696 |
|     385 | 0x3F800000  |  1065353216 |
|     386 | 0x200000    |     2097152 |
|     387 | 0x3FC00000  |  1069547520 |
|     388 | 0xBFFFC000  |  3221209088 |
|     389 | 0xBFFFFFFC  |  3221225468 |
|     390 | 0x3FFFC000  |  1073725440 |
|     391 | 0x006C      |         108 |
|     392 | 0x00AE      |         174 |
|     393 | 0x00C2      |         194 |
|     394 | 0x008F      |         143 |
|     395 | 0x0054      |          84 |
|     396 | 0x0015      |          21 |
|     397 | 0x0016      |          22 |
|     398 | 0x0019      |          25 |
|     399 | 0x0020      |          32 |
|     400 | 0x0021      |          33 |
|     401 | 0x0022      |          34 |
|     402 | 0x0023      |          35 |
|     403 | 0x0024      |          36 |
|     404 | 0x0025      |          37 |
|     405 | 0x0026      |          38 |
|     406 | 0x0027      |          39 |
|     407 | 0x0029      |          41 |
|     408 | 0x002D      |          45 |
|     409 | 0x0031      |          49 |
|     410 | 0x0035      |          53 |
|     411 | 0x0036      |          54 |
|     412 | 0x0037      |          55 |
|     413 | 0x0038      |          56 |
|     414 | 0x0039      |          57 |
|     415 | 0x003A      |          58 |
|     416 | 0x003B      |          59 |
|     417 | 0x003D      |          61 |
|     418 | 0x003F      |          63 |
|     419 | 0x0040      |          64 |
|     420 | 0x0041      |          65 |
|     421 | 0x0042      |          66 |
|     422 | 0x0043      |          67 |
|     423 | 0x0044      |          68 |
|     424 | 0x0045      |          69 |
|     425 | 0x0046      |          70 |
|     426 | 0x0047      |          71 |
|     427 | 0x0048      |          72 |
|     428 | 0x0049      |          73 |
|     429 | 0x004A      |          74 |
|     430 | 0x004B      |          75 |
|     431 | 0x004C      |          76 |
|     432 | 0x004D      |          77 |
|     433 | 0x004E      |          78 |
|     434 | 0x004F      |          79 |
|     435 | 0x0050      |          80 |
|     436 | 0x0051      |          81 |
|     437 | 0x0052      |          82 |
|     438 | 0x0053      |          83 |
|     439 | 0x0055      |          85 |
|     440 | 0x0056      |          86 |
|     441 | 0x0057      |          87 |
|     442 | 0x0058      |          88 |
|     443 | 0x0059      |          89 |
|     444 | 0x005B      |          91 |
|     445 | 0x005C      |          92 |
|     446 | 0x005D      |          93 |
|     447 | 0x005E      |          94 |
|     448 | 0x005F      |          95 |
|     449 | 0x0062      |          98 |
|     450 | 0x0063      |          99 |
|     451 | 0x0065      |         101 |
|     452 | 0x0066      |         102 |
|     453 | 0x0067      |         103 |
|     454 | 0x0068      |         104 |
|     455 | 0x0069      |         105 |
|     456 | 0x006A      |         106 |
|     457 | 0x006D      |         109 |
|     458 | 0x006E      |         110 |
|     459 | 0x006F      |         111 |
|     460 | 0x0070      |         112 |
|     461 | 0x0071      |         113 |
|     462 | 0x0072      |         114 |
|     463 | 0x0073      |         115 |
|     464 | 0x0074      |         116 |
|     465 | 0x0075      |         117 |
|     466 | 0x0076      |         118 |
|     467 | 0x0077      |         119 |
|     468 | 0x0079      |         121 |
|     469 | 0x007A      |         122 |
|     470 | 0x007B      |         123 |
|     471 | 0x007C      |         124 |
|     472 | 0x007D      |         125 |
|     473 | 0x007E      |         126 |
|     474 | 0x007F      |         127 |
|     475 | 0x0080      |         128 |
|     476 | 0x0081      |         129 |
|     477 | 0x0082      |         130 |
|     478 | 0x0083      |         131 |
|     479 | 0x0084      |         132 |
|     480 | 0x0085      |         133 |
|     481 | 0x0086      |         134 |
|     482 | 0x0087      |         135 |
|     483 | 0x0088      |         136 |
|     484 | 0x0089      |         137 |
|     485 | 0x008A      |         138 |
|     486 | 0x008C      |         140 |
|     487 | 0x008D      |         141 |
|     488 | 0x008E      |         142 |
|     489 | 0x0090      |         144 |
|     490 | 0x0091      |         145 |
|     491 | 0x0093      |         147 |
|     492 | 0x0094      |         148 |
|     493 | 0x0095      |         149 |
|     494 | 0x0096      |         150 |
|     495 | 0x0097      |         151 |
|     496 | 0x0098      |         152 |
|     497 | 0x0099      |         153 |
|     498 | 0x009A      |         154 |
|     499 | 0x009B      |         155 |
|     500 | 0x009C      |         156 |
|     501 | 0x009D      |         157 |
|     502 | 0x009E      |         158 |
|     503 | 0x009F      |         159 |
|     504 | 0x00A0      |         160 |
|     505 | 0x00A1      |         161 |
|     506 | 0x00A2      |         162 |
|     507 | 0x00A3      |         163 |
|     508 | 0x00A4      |         164 |
|     509 | 0x00A5      |         165 |
|     510 | 0x00A6      |         166 |
|     511 | 0x00A7      |         167 |
|     512 | 0x00A8      |         168 |
|     513 | 0x00A9      |         169 |
|     514 | 0x00AA      |         170 |
|     515 | 0x00AB      |         171 |
|     516 | 0x00AC      |         172 |
|     517 | 0x00AD      |         173 |
|     518 | 0x00AF      |         175 |
|     519 | 0x00B0      |         176 |
|     520 | 0x00B1      |         177 |
|     521 | 0x00B2      |         178 |
|     522 | 0x00B3      |         179 |
|     523 | 0x00B4      |         180 |
|     524 | 0x00B5      |         181 |
|     525 | 0x00B6      |         182 |
|     526 | 0x00B7      |         183 |
|     527 | 0x00B8      |         184 |
|     528 | 0x00B9      |         185 |
|     529 | 0x00BA      |         186 |
|     530 | 0x00BB      |         187 |
|     531 | 0x00BD      |         189 |
|     532 | 0x00BE      |         190 |
|     533 | 0x00BF      |         191 |
|     534 | 0x00C0      |         192 |
|     535 | 0x00C1      |         193 |
|     536 | 0x00C3      |         195 |
|     537 | 0x00C4      |         196 |
|     538 | 0x00C5      |         197 |
|     539 | 0x00C6      |         198 |
|     540 | 0x00C7      |         199 |
|     541 | 0x00C9      |         201 |
|     542 | 0x00CA      |         202 |
|     543 | 0x00CB      |         203 |
|     544 | 0x00CC      |         204 |
|     545 | 0x00CD      |         205 |
|     546 | 0x00CE      |         206 |
|     547 | 0x00CF      |         207 |
|     548 | 0x00D1      |         209 |
|     549 | 0x00D2      |         210 |
|     550 | 0x00D3      |         211 |
|     551 | 0x00D4      |         212 |
|     552 | 0x00D5      |         213 |
|     553 | 0x00D8      |         216 |
|     554 | 0x00D9      |         217 |
|     555 | 0x00DA      |         218 |
|     556 | 0x00DB      |         219 |
|     557 | 0x00DC      |         220 |
|     558 | 0x00E1      |         225 |
|     559 | 0x00E3      |         227 |
|     560 | 0x00E4      |         228 |
|     561 | 0x00E5      |         229 |
|     562 | 0x00E7      |         231 |
|     563 | 0x00E9      |         233 |
|     564 | 0x00EA      |         234 |
|     565 | 0x00EB      |         235 |
|     566 | 0x00EC      |         236 |
|     567 | 0x00ED      |         237 |
|     568 | 0x00EE      |         238 |
|     569 | 0x00F4      |         244 |
|     570 | 0x00F5      |         245 |
|     571 | 0x00F7      |         247 |
|     572 | 0x00F9      |         249 |
|     573 | 0x00FC      |         252 |
|     574 | 0x00FD      |         253 |
|     575 | 0x0101      |         257 |
|     576 | 0x0102      |         258 |
|     577 | 0x0103      |         259 |
|     578 | 0x0104      |         260 |
|     579 | 0x0105      |         261 |
|     580 | 0x0106      |         262 |
|     581 | 0x0107      |         263 |
|     582 | 0x0108      |         264 |
|     583 | 0x0109      |         265 |
|     584 | 0x010A      |         266 |
|     585 | 0x010B      |         267 |
|     586 | 0x010C      |         268 |
|     587 | 0x010D      |         269 |
|     588 | 0x010E      |         270 |
|     589 | 0x010F      |         271 |
|     590 | 0x0110      |         272 |
|     591 | 0x0111      |         273 |
|     592 | 0x0112      |         274 |
|     593 | 0x0113      |         275 |
|     594 | 0x0114      |         276 |
|     595 | 0x0115      |         277 |
|     596 | 0x0116      |         278 |
|     597 | 0x0117      |         279 |
|     598 | 0x0118      |         280 |
|     599 | 0x0119      |         281 |
|     600 | 0x011A      |         282 |
|     601 | 0x011B      |         283 |
|     602 | 0x011C      |         284 |
|     603 | 0x011D      |         285 |
|     604 | 0x011E      |         286 |
|     605 | 0x011F      |         287 |
|     606 | 0x0120      |         288 |
|     607 | 0x0121      |         289 |
|     608 | 0x0122      |         290 |
|     609 | 0x0123      |         291 |
|     610 | 0x0124      |         292 |
|     611 | 0x0125      |         293 |
|     612 | 0x0126      |         294 |
|     613 | 0x0127      |         295 |
|     614 | 0x0128      |         296 |
|     615 | 0x012A      |         298 |
|     616 | 0x012B      |         299 |
|     617 | 0x012D      |         301 |
|     618 | 0x012E      |         302 |
|     619 | 0x012F      |         303 |
|     620 | 0x0130      |         304 |
|     621 | 0x0131      |         305 |
|     622 | 0x0132      |         306 |
|     623 | 0x0133      |         307 |
|     624 | 0x0134      |         308 |
|     625 | 0x0135      |         309 |
|     626 | 0x0136      |         310 |
|     627 | 0x0137      |         311 |
|     628 | 0x0138      |         312 |
|     629 | 0x0139      |         313 |
|     630 | 0x013A      |         314 |
|     631 | 0x013B      |         315 |
|     632 | 0x013C      |         316 |
|     633 | 0x013D      |         317 |
|     634 | 0x013E      |         318 |
|     635 | 0x013F      |         319 |
|     636 | 0x0140      |         320 |
|     637 | 0x0141      |         321 |
|     638 | 0x0142      |         322 |
|     639 | 0x0143      |         323 |
|     640 | 0x0144      |         324 |
|     641 | 0x0145      |         325 |
|     642 | 0x0146      |         326 |
|     643 | 0x0147      |         327 |
|     644 | 0x0149      |         329 |
|     645 | 0x014A      |         330 |
|     646 | 0x014B      |         331 |
|     647 | 0x014C      |         332 |
|     648 | 0x014D      |         333 |
|     649 | 0x014E      |         334 |
|     650 | 0x014F      |         335 |
|     651 | 0x0150      |         336 |
|     652 | 0x0151      |         337 |
|     653 | 0x0152      |         338 |
|     654 | 0x0153      |         339 |
|     655 | 0x0154      |         340 |
|     656 | 0x0155      |         341 |
|     657 | 0x0156      |         342 |
|     658 | 0x0157      |         343 |
|     659 | 0x0158      |         344 |
|     660 | 0x0159      |         345 |
|     661 | 0x015A      |         346 |
|     662 | 0x015B      |         347 |
|     663 | 0x015C      |         348 |
|     664 | 0x015D      |         349 |
|     665 | 0x015E      |         350 |
|     666 | 0x015F      |         351 |
|     667 | 0x0161      |         353 |
|     668 | 0x0162      |         354 |
|     669 | 0x0163      |         355 |
|     670 | 0x0164      |         356 |
|     671 | 0x0165      |         357 |
|     672 | 0x0166      |         358 |
|     673 | 0x0167      |         359 |
|     674 | 0x0168      |         360 |
|     675 | 0x0169      |         361 |
|     676 | 0x016A      |         362 |
|     677 | 0x016B      |         363 |
|     678 | 0x016C      |         364 |
|     679 | 0x016D      |         365 |
|     680 | 0x016E      |         366 |
|     681 | 0x016F      |         367 |
|     682 | 0x0170      |         368 |
|     683 | 0x0171      |         369 |
|     684 | 0x0172      |         370 |
|     685 | 0x0173      |         371 |
|     686 | 0x0174      |         372 |
|     687 | 0x0175      |         373 |
|     688 | 0x0176      |         374 |
|     689 | 0x0177      |         375 |
|     690 | 0x0178      |         376 |
|     691 | 0x0179      |         377 |
|     692 | 0x017A      |         378 |
|     693 | 0x017B      |         379 |
|     694 | 0x017C      |         380 |
|     695 | 0x017D      |         381 |
|     696 | 0x017E      |         382 |
|     697 | 0x017F      |         383 |
|     698 | 0x0180      |         384 |
|     699 | 0x0181      |         385 |
|     700 | 0x0182      |         386 |
|     701 | 0x0183      |         387 |
|     702 | 0x0184      |         388 |
|     703 | 0x0185      |         389 |
|     704 | 0x0186      |         390 |
|     705 | 0x0187      |         391 |
|     706 | 0x0188      |         392 |
|     707 | 0x0189      |         393 |
|     708 | 0x018A      |         394 |
|     709 | 0x018B      |         395 |
|     710 | 0x018C      |         396 |
|     711 | 0x018D      |         397 |
|     712 | 0x018E      |         398 |
|     713 | 0x018F      |         399 |
|     714 | 0x0190      |         400 |
|     715 | 0x0191      |         401 |
|     716 | 0x0192      |         402 |
|     717 | 0x0193      |         403 |
|     718 | 0x0194      |         404 |
|     719 | 0x0195      |         405 |
|     720 | 0x0196      |         406 |
|     721 | 0x0197      |         407 |
|     722 | 0x0198      |         408 |
|     723 | 0x019A      |         410 |
|     724 | 0x019B      |         411 |
|     725 | 0x019C      |         412 |
|     726 | 0x019D      |         413 |
|     727 | 0x019E      |         414 |
|     728 | 0x019F      |         415 |
|     729 | 0x01A0      |         416 |
|     730 | 0x01A1      |         417 |
|     731 | 0x01A2      |         418 |
|     732 | 0x01A3      |         419 |
|     733 | 0x01A4      |         420 |
|     734 | 0x01A5      |         421 |
|     735 | 0x01A6      |         422 |
|     736 | 0x01A7      |         423 |
|     737 | 0x01A8      |         424 |
|     738 | 0x01A9      |         425 |
|     739 | 0x01AA      |         426 |
|     740 | 0x01AB      |         427 |
|     741 | 0x01AC      |         428 |
|     742 | 0x01AD      |         429 |
|     743 | 0x01AE      |         430 |
|     744 | 0x01AF      |         431 |
|     745 | 0x01B0      |         432 |
|     746 | 0x01B1      |         433 |
|     747 | 0x01B2      |         434 |
|     748 | 0x01B3      |         435 |
|     749 | 0x01B4      |         436 |
|     750 | 0x01B5      |         437 |
|     751 | 0x01B6      |         438 |
|     752 | 0x01B7      |         439 |
|     753 | 0x01B8      |         440 |
|     754 | 0x01B9      |         441 |
|     755 | 0x01BA      |         442 |
|     756 | 0x01BB      |         443 |
|     757 | 0x01BC      |         444 |
|     758 | 0x01BD      |         445 |
|     759 | 0x01BE      |         446 |
|     760 | 0x01BF      |         447 |
|     761 | 0x01C0      |         448 |
|     762 | 0x01C1      |         449 |
|     763 | 0x01C2      |         450 |
|     764 | 0x01C3      |         451 |
|     765 | 0x01C4      |         452 |
|     766 | 0x01C5      |         453 |
|     767 | 0x01C6      |         454 |
|     768 | 0x01C7      |         455 |
|     769 | 0x01C8      |         456 |
|     770 | 0x01C9      |         457 |
|     771 | 0x01CA      |         458 |
|     772 | 0x01CB      |         459 |
|     773 | 0x01CC      |         460 |
|     774 | 0x01CD      |         461 |
|     775 | 0x01CE      |         462 |
|     776 | 0x01CF      |         463 |
|     777 | 0x01D0      |         464 |
|     778 | 0x01D1      |         465 |
|     779 | 0x01D2      |         466 |
|     780 | 0x01D3      |         467 |
|     781 | 0x01D4      |         468 |
|     782 | 0x01D5      |         469 |
|     783 | 0x01D6      |         470 |
|     784 | 0x01D7      |         471 |
|     785 | 0x01D8      |         472 |
|     786 | 0x01D9      |         473 |
|     787 | 0x01DA      |         474 |
|     788 | 0x01DB      |         475 |
|     789 | 0x01DC      |         476 |
|     790 | 0x01DD      |         477 |
|     791 | 0x01DE      |         478 |
|     792 | 0x01DF      |         479 |
|     793 | 0x01E0      |         480 |
|     794 | 0x01E1      |         481 |
|     795 | 0x01E2      |         482 |
|     796 | 0x01E3      |         483 |
|     797 | 0x01E4      |         484 |
|     798 | 0x01E5      |         485 |
|     799 | 0x01E6      |         486 |
|     800 | 0x01E7      |         487 |
|     801 | 0x01E8      |         488 |
|     802 | 0x01E9      |         489 |
|     803 | 0x01EA      |         490 |
|     804 | 0x01EB      |         491 |
|     805 | 0x01EC      |         492 |
|     806 | 0x01ED      |         493 |
|     807 | 0x01F0      |         496 |
|     808 | 0x01F1      |         497 |
|     809 | 0x01F2      |         498 |
|     810 | 0x01F3      |         499 |
|     811 | 0x01F4      |         500 |
|     812 | 0x01F5      |         501 |
|     813 | 0x01F6      |         502 |
|     814 | 0x01F7      |         503 |
|     815 | 0x01F9      |         505 |
|     816 | 0x01FA      |         506 |
|     817 | 0x01FB      |         507 |
|     818 | 0x01FC      |         508 |
|     819 | 0x01FD      |         509 |
|     820 | 0x01FF      |         511 |
|     821 | 0x0201      |         513 |
|     822 | 0x0202      |         514 |
|     823 | 0x0203      |         515 |
|     824 | 0x0204      |         516 |
|     825 | 0x0205      |         517 |
|     826 | 0x0206      |         518 |
|     827 | 0x0207      |         519 |
|     828 | 0x0208      |         520 |
|     829 | 0x0209      |         521 |
|     830 | 0x020A      |         522 |
|     831 | 0x020B      |         523 |
|     832 | 0x020C      |         524 |
|     833 | 0x020D      |         525 |
|     834 | 0x020E      |         526 |
|     835 | 0x020F      |         527 |
|     836 | 0x0210      |         528 |
|     837 | 0x0211      |         529 |
|     838 | 0x0212      |         530 |
|     839 | 0x0213      |         531 |
|     840 | 0x0214      |         532 |
|     841 | 0x0215      |         533 |
|     842 | 0x0217      |         535 |
|     843 | 0x0218      |         536 |
|     844 | 0x0219      |         537 |
|     845 | 0x021A      |         538 |
|     846 | 0x021B      |         539 |
|     847 | 0x021C      |         540 |
|     848 | 0x021D      |         541 |
|     849 | 0x021E      |         542 |
|     850 | 0x021F      |         543 |
|     851 | 0x0220      |         544 |
|     852 | 0x0221      |         545 |
|     853 | 0x0222      |         546 |
|     854 | 0x0223      |         547 |
|     855 | 0x0224      |         548 |
|     856 | 0x0225      |         549 |
|     857 | 0x0226      |         550 |
|     858 | 0x0227      |         551 |
|     859 | 0x0228      |         552 |
|     860 | 0x0229      |         553 |
|     861 | 0x022A      |         554 |
|     862 | 0x022B      |         555 |
|     863 | 0x022C      |         556 |
|     864 | 0x022D      |         557 |
|     865 | 0x022E      |         558 |
|     866 | 0x022F      |         559 |
|     867 | 0x0230      |         560 |
|     868 | 0x0231      |         561 |
|     869 | 0x0232      |         562 |
|     870 | 0x0233      |         563 |
|     871 | 0x0234      |         564 |
|     872 | 0x0235      |         565 |
|     873 | 0x0236      |         566 |
|     874 | 0x0237      |         567 |
|     875 | 0x0238      |         568 |
|     876 | 0x0239      |         569 |
|     877 | 0x023A      |         570 |
|     878 | 0x023B      |         571 |
|     879 | 0x023C      |         572 |
|     880 | 0x023D      |         573 |
|     881 | 0x023E      |         574 |
|     882 | 0x023F      |         575 |
|     883 | 0x0240      |         576 |
|     884 | 0x0241      |         577 |
|     885 | 0x0242      |         578 |
|     886 | 0x0243      |         579 |
|     887 | 0x0244      |         580 |
|     888 | 0x0245      |         581 |
|     889 | 0x0246      |         582 |
|     890 | 0x0247      |         583 |
|     891 | 0x0248      |         584 |
|     892 | 0x0249      |         585 |
|     893 | 0x024A      |         586 |
|     894 | 0x024B      |         587 |
|     895 | 0x024C      |         588 |
|     896 | 0x024D      |         589 |
|     897 | 0x024E      |         590 |
|     898 | 0x024F      |         591 |
|     899 | 0x0250      |         592 |
|     900 | 0x0251      |         593 |
|     901 | 0x0252      |         594 |
|     902 | 0x0253      |         595 |
|     903 | 0x0254      |         596 |
|     904 | 0x0255      |         597 |
|     905 | 0x0256      |         598 |
|     906 | 0x0257      |         599 |
|     907 | 0x0258      |         600 |
|     908 | 0x0259      |         601 |
|     909 | 0x025A      |         602 |
|     910 | 0x025B      |         603 |
|     911 | 0x025C      |         604 |
|     912 | 0x025D      |         605 |
|     913 | 0x025E      |         606 |
|     914 | 0x025F      |         607 |
|     915 | 0x0260      |         608 |
|     916 | 0x0261      |         609 |
|     917 | 0x0262      |         610 |
|     918 | 0x0263      |         611 |
|     919 | 0x0264      |         612 |
|     920 | 0x0265      |         613 |
|     921 | 0x0266      |         614 |
|     922 | 0x0267      |         615 |
|     923 | 0x0268      |         616 |
|     924 | 0x0269      |         617 |
|     925 | 0x026A      |         618 |
|     926 | 0x026B      |         619 |
|     927 | 0x026C      |         620 |
|     928 | 0x026D      |         621 |
|     929 | 0x026E      |         622 |
|     930 | 0x026F      |         623 |
|     931 | 0x0270      |         624 |
|     932 | 0x0271      |         625 |
|     933 | 0x0272      |         626 |
|     934 | 0x0273      |         627 |
|     935 | 0x0274      |         628 |
|     936 | 0x0275      |         629 |
|     937 | 0x0276      |         630 |
|     938 | 0x0277      |         631 |
|     939 | 0x0278      |         632 |
|     940 | 0x0279      |         633 |
|     941 | 0x027A      |         634 |
|     942 | 0x027B      |         635 |
|     943 | 0x027C      |         636 |
|     944 | 0x027D      |         637 |
|     945 | 0x027E      |         638 |
|     946 | 0x027F      |         639 |
|     947 | 0x0280      |         640 |
|     948 | 0x0281      |         641 |
|     949 | 0x0282      |         642 |
|     950 | 0x0283      |         643 |
|     951 | 0x0284      |         644 |
|     952 | 0x0285      |         645 |
|     953 | 0x0286      |         646 |
|     954 | 0x0287      |         647 |
|     955 | 0x0288      |         648 |
|     956 | 0x0289      |         649 |
|     957 | 0x028A      |         650 |
|     958 | 0x028B      |         651 |
|     959 | 0x028C      |         652 |
|     960 | 0x028D      |         653 |
|     961 | 0x028E      |         654 |
|     962 | 0x028F      |         655 |
|     963 | 0x0290      |         656 |
|     964 | 0x0291      |         657 |
|     965 | 0x0292      |         658 |
|     966 | 0x0293      |         659 |
|     967 | 0x0294      |         660 |
|     968 | 0x0295      |         661 |
|     969 | 0x0296      |         662 |
|     970 | 0x0297      |         663 |
|     971 | 0x0298      |         664 |
|     972 | 0x0299      |         665 |
|     973 | 0x029A      |         666 |
|     974 | 0x029B      |         667 |
|     975 | 0x029C      |         668 |
|     976 | 0x029D      |         669 |
|     977 | 0x029E      |         670 |
|     978 | 0x029F      |         671 |
|     979 | 0x02A0      |         672 |
|     980 | 0x02A1      |         673 |
|     981 | 0x02A2      |         674 |
|     982 | 0x02A3      |         675 |
|     983 | 0x02A4      |         676 |
|     984 | 0x02A5      |         677 |
|     985 | 0x02A6      |         678 |
|     986 | 0x02A7      |         679 |
|     987 | 0x02A8      |         680 |
|     988 | 0x02A9      |         681 |
|     989 | 0x02AA      |         682 |
|     990 | 0x02AB      |         683 |
|     991 | 0x02AC      |         684 |
|     992 | 0x02AD      |         685 |
|     993 | 0x02AE      |         686 |
|     994 | 0x02AF      |         687 |
|     995 | 0x02B0      |         688 |
|     996 | 0x02B1      |         689 |
|     997 | 0x02B2      |         690 |
|     998 | 0x02B3      |         691 |
|     999 | 0x02B4      |         692 |
|    1000 | 0x02B5      |         693 |
|    1001 | 0x02B6      |         694 |
|    1002 | 0x02B7      |         695 |
|    1003 | 0x02B8      |         696 |
|    1004 | 0x02B9      |         697 |
|    1005 | 0x02BA      |         698 |
|    1006 | 0x02BB      |         699 |
|    1007 | 0x02BC      |         700 |
|    1008 | 0x02BD      |         701 |
|    1009 | 0x02BE      |         702 |
|    1010 | 0x02BF      |         703 |
|    1011 | 0x02C0      |         704 |
|    1012 | 0x02C1      |         705 |
|    1013 | 0x02C2      |         706 |
|    1014 | 0x02C3      |         707 |
|    1015 | 0x02C4      |         708 |
|    1016 | 0x02C5      |         709 |
|    1017 | 0x02C6      |         710 |
|    1018 | 0x02C7      |         711 |
|    1019 | 0x02C8      |         712 |
|    1020 | 0x02C9      |         713 |
|    1021 | 0x02CA      |         714 |
|    1022 | 0x02CB      |         715 |
|    1023 | 0x02CC      |         716 |
|    1024 | 0x02CD      |         717 |
|    1025 | 0x02CE      |         718 |
|    1026 | 0x02CF      |         719 |
|    1027 | 0x02D0      |         720 |
|    1028 | 0x02D1      |         721 |
|    1029 | 0x02D2      |         722 |
|    1030 | 0x02D3      |         723 |
|    1031 | 0x02D4      |         724 |
|    1032 | 0x02D5      |         725 |
|    1033 | 0x02D6      |         726 |
|    1034 | 0x02D7      |         727 |
|    1035 | 0x02D8      |         728 |
|    1036 | 0x02D9      |         729 |
|    1037 | 0x02DA      |         730 |
|    1038 | 0x02DB      |         731 |
|    1039 | 0x02DC      |         732 |
|    1040 | 0x02DD      |         733 |
|    1041 | 0x02DE      |         734 |
|    1042 | 0x02DF      |         735 |
|    1043 | 0x02E1      |         737 |
|    1044 | 0x02E2      |         738 |
|    1045 | 0x02E3      |         739 |
|    1046 | 0x02E4      |         740 |
|    1047 | 0x02E5      |         741 |
|    1048 | 0x02E7      |         743 |
|    1049 | 0x02E8      |         744 |
|    1050 | 0x02E9      |         745 |
|    1051 | 0x02EA      |         746 |
|    1052 | 0x02EB      |         747 |
|    1053 | 0x02EC      |         748 |
|    1054 | 0x02ED      |         749 |
|    1055 | 0x02EE      |         750 |
|    1056 | 0x02EF      |         751 |
|    1057 | 0x02F0      |         752 |
|    1058 | 0x02F1      |         753 |
|    1059 | 0x02F2      |         754 |
|    1060 | 0x02F3      |         755 |
|    1061 | 0x02F4      |         756 |
|    1062 | 0x02F5      |         757 |
|    1063 | 0x02F6      |         758 |
|    1064 | 0x02F7      |         759 |
|    1065 | 0x02F8      |         760 |
|    1066 | 0x02F9      |         761 |
|    1067 | 0x02FA      |         762 |
|    1068 | 0x02FB      |         763 |
|    1069 | 0x02FC      |         764 |
|    1070 | 0x02FD      |         765 |
|    1071 | 0x02FF      |         767 |
|    1072 | 0x0300      |         768 |
|    1073 | 0x0301      |         769 |
|    1074 | 0x0302      |         770 |
|    1075 | 0x0303      |         771 |
|    1076 | 0x0304      |         772 |
|    1077 | 0x0305      |         773 |
|    1078 | 0x0306      |         774 |
|    1079 | 0x0307      |         775 |
|    1080 | 0x0308      |         776 |
|    1081 | 0x0309      |         777 |
|    1082 | 0x030A      |         778 |
|    1083 | 0x030B      |         779 |
|    1084 | 0x030C      |         780 |
|    1085 | 0x030D      |         781 |
|    1086 | 0x030E      |         782 |
|    1087 | 0x030F      |         783 |
|    1088 | 0x0310      |         784 |
|    1089 | 0x0311      |         785 |
|    1090 | 0x0312      |         786 |
|    1091 | 0x0313      |         787 |
|    1092 | 0x0314      |         788 |
|    1093 | 0x0315      |         789 |
|    1094 | 0x0316      |         790 |
|    1095 | 0x0317      |         791 |
|    1096 | 0x0318      |         792 |
|    1097 | 0x0319      |         793 |
|    1098 | 0x031A      |         794 |
|    1099 | 0x031B      |         795 |
|    1100 | 0x031C      |         796 |
|    1101 | 0x031D      |         797 |
|    1102 | 0x031E      |         798 |
|    1103 | 0x031F      |         799 |
|    1104 | 0x0320      |         800 |
|    1105 | 0x0321      |         801 |
|    1106 | 0x0322      |         802 |
|    1107 | 0x0323      |         803 |
|    1108 | 0x0324      |         804 |
|    1109 | 0x0325      |         805 |
|    1110 | 0x0326      |         806 |
|    1111 | 0x0327      |         807 |
|    1112 | 0x0328      |         808 |
|    1113 | 0x0329      |         809 |
|    1114 | 0x032A      |         810 |
|    1115 | 0x032B      |         811 |
|    1116 | 0x032C      |         812 |
|    1117 | 0x032D      |         813 |
|    1118 | 0x032E      |         814 |
|    1119 | 0x032F      |         815 |
|    1120 | 0x0330      |         816 |
|    1121 | 0x0331      |         817 |
|    1122 | 0x0332      |         818 |
|    1123 | 0x0333      |         819 |
|    1124 | 0x0334      |         820 |
|    1125 | 0x0335      |         821 |
|    1126 | 0x0336      |         822 |
|    1127 | 0x0337      |         823 |
|    1128 | 0x0338      |         824 |
|    1129 | 0x0339      |         825 |
|    1130 | 0x033A      |         826 |
|    1131 | 0x033B      |         827 |
|    1132 | 0x033C      |         828 |
|    1133 | 0x033D      |         829 |
|    1134 | 0x033E      |         830 |
|    1135 | 0x07CC      |        1996 |
|    1136 | 0x07CD      |        1997 |
|    1137 | 0x07CE      |        1998 |
|    1138 | 0x07D0      |        2000 |
|    1139 | 0x07D1      |        2001 |
|    1140 | 0x07D2      |        2002 |
|    1141 | 0x2A8D      |       10893 |
|    1142 | 0x2A8E      |       10894 |
|    1143 | 0x2A8F      |       10895 |
|    1144 | 0x2A90      |       10896 |
|    1145 | 0x2A91      |       10897 |
|    1146 | 0x2A92      |       10898 |
|    1147 | 0x2AAC      |       10924 |
|    1148 | 0x2AAE      |       10926 |
|    1149 | 0x2B4A      |       11082 |
|    1150 | 0x2B4B      |       11083 |
|    1151 | 0x2AD3      |       10963 |
|    1152 | 0x299B      |       10651 |
|    1153 | 0x299C      |       10652 |
|    1154 | 0x299D      |       10653 |
|    1155 | 0x299E      |       10654 |
|    1156 | 0x299F      |       10655 |
|    1157 | 0x29A0      |       10656 |
|    1158 | 0x29A1      |       10657 |
|    1159 | 0x29A2      |       10658 |
|    1160 | 0x29A3      |       10659 |
|    1161 | 0x29A4      |       10660 |
|    1162 | 0x29A5      |       10661 |
|    1163 | 0x29A6      |       10662 |
|    1164 | 0x29A7      |       10663 |
|    1165 | 0x2AF6      |       10998 |
|    1166 | 0x2AC6      |       10950 |
|    1167 | 0x2AC7      |       10951 |
|    1168 | 0x2AF5      |       10997 |
|    1169 | 0x2B42      |       11074 |
|    1170 | 0x2B3F      |       11071 |
|    1171 | 0x2B40      |       11072 |
|    1172 | 0x2B3C      |       11068 |
|    1173 | 0x2B41      |       11073 |
|    1174 | 0x2B3D      |       11069 |
|    1175 | 0x2B43      |       11075 |
|    1176 | 0x2B53      |       11091 |
|    1177 | 0x2B54      |       11092 |
|    1178 | 0x2B55      |       11093 |
|    1179 | 0x2B56      |       11094 |
|    1180 | 0x2B57      |       11095 |
|    1181 | 0x2B58      |       11096 |
|    1182 | 0x2B59      |       11097 |
|    1183 | 0x2B5A      |       11098 |
|    1184 | 0x2BFD      |       11261 |
|    1185 | 0x2B5B      |       11099 |
|    1186 | 0x2B62      |       11106 |
|    1187 | 0x2B68      |       11112 |
|    1188 | 0x2B6E      |       11118 |
|    1189 | 0x04D9      |        1241 |
|    1190 | 0x2E57      |       11863 |
|    1191 | 0x2E58      |       11864 |
|    1192 | 0x2E59      |       11865 |
|    1193 | 0x2E60      |       11872 |
|    1194 | 0x2E61      |       11873 |
|    1195 | 0x2E62      |       11874 |
|    1196 | 0x036C      |         876 |
|    1197 | 0x2B83      |       11139 |
|    1198 | 0x2E5D      |       11869 |
|    1199 | 0x2E5E      |       11870 |
|    1200 | 0x2B82      |       11138 |
|    1201 | 0x2E5A      |       11866 |
|    1202 | 0x2E5B      |       11867 |
|    1203 | 0x2E5C      |       11868 |
|    1204 | 0x055F      |        1375 |
|    1205 | 0x2E5F      |       11871 |
|    1206 | 0x2E1D      |       11805 |
|    1207 | 0x2E23      |       11811 |
|    1208 | 0x2E1E      |       11806 |
|    1209 | 0x2E24      |       11812 |
|    1210 | 0x2E25      |       11813 |
|    1211 | 0x2E1F      |       11807 |
|    1212 | 0x2E20      |       11808 |
|    1213 | 0x2E21      |       11809 |
|    1214 | 0x2E22      |       11810 |
|    1215 | 0x2E99      |       11929 |
|    1216 | 0x2E9C      |       11932 |
|    1217 | 0x2E9D      |       11933 |
|    1218 | 0x2E9F      |       11935 |
|    1219 | 0x2EA0      |       11936 |
|    1220 | 0x2E9A      |       11930 |
|    1221 | 0x2E9B      |       11931 |
|    1222 | 0x2E6D      |       11885 |
|    1223 | 0x2E6E      |       11886 |
|    1224 | 0x2E65      |       11877 |
|    1225 | 0x2E66      |       11878 |
|    1226 | 0x2E67      |       11879 |
|    1227 | 0x2E68      |       11880 |
|    1228 | 0x2E80      |       11904 |
|    1229 | 0x2E81      |       11905 |
|    1230 | 0x2E8B      |       11915 |
|    1231 | 0x2E8C      |       11916 |
|    1232 | 0x2E8D      |       11917 |
|    1233 | 0x2E91      |       11921 |
|    1234 | 0x2C24      |       11300 |
|    1235 | 0x2C28      |       11304 |
|    1236 | 0x2C29      |       11305 |
|    1237 | 0x2C2A      |       11306 |
|    1238 | 0x2C25      |       11301 |
|    1239 | 0x2C26      |       11302 |
|    1240 | 0x2C27      |       11303 |
|    1241 | 0x2E9E      |       11934 |
|    1242 | 0x2EA1      |       11937 |
|    1243 | 0x2C1F      |       11295 |
|    1244 | 0x2C20      |       11296 |
|    1245 | 0x2C21      |       11297 |
|    1246 | 0x2C22      |       11298 |
|    1247 | 0x2C23      |       11299 |
|    1248 | 0x2ECB      |       11979 |
|    1249 | 0x2E6F      |       11887 |
|    1250 | 0x2E70      |       11888 |
|    1251 | 0x2E71      |       11889 |
|    1252 | 0x2E72      |       11890 |
|    1253 | 0x2E73      |       11891 |
|    1254 | 0x2E74      |       11892 |
|    1255 | 0x2E75      |       11893 |
|    1256 | 0x2E76      |       11894 |
|    1257 | 0x2E77      |       11895 |
|    1258 | 0x2E78      |       11896 |
|    1259 | 0x2E79      |       11897 |
|    1260 | 0x0FE7      |        4071 |
|    1261 | 0x2EA8      |       11944 |
|    1262 | 0x2EAA      |       11946 |
|    1263 | 0x2E6B      |       11883 |
|    1264 | 0x2E6C      |       11884 |
|    1265 | 0x2E7E      |       11902 |
|    1266 | 0x2E7F      |       11903 |
|    1267 | 0x2E88      |       11912 |
|    1268 | 0x2E89      |       11913 |
|    1269 | 0x2E8A      |       11914 |
|    1270 | 0x035F      |         863 |
|    1271 | 0x2E90      |       11920 |
|    1272 | 0x2EA2      |       11938 |
|    1273 | 0x2EA3      |       11939 |
|    1274 | 0x2EA4      |       11940 |
|    1275 | 0x2EA9      |       11945 |
|    1276 | 0x2EA5      |       11941 |
|    1277 | 0x2EA6      |       11942 |
|    1278 | 0x2EA7      |       11943 |
|    1279 | 0x04A7      |        1191 |
|    1280 | 0x0358      |         856 |
|    1281 | 0x2EBA      |       11962 |
|    1282 | 0x2EBC      |       11964 |
|    1283 | 0x2EC3      |       11971 |
|    1284 | 0x2EC5      |       11973 |
|    1285 | 0x03D9      |         985 |
|    1286 | 0x2E63      |       11875 |
|    1287 | 0x2E64      |       11876 |
|    1288 | 0x2E7A      |       11898 |
|    1289 | 0x2E7B      |       11899 |
|    1290 | 0x2E82      |       11906 |
|    1291 | 0x2E83      |       11907 |
|    1292 | 0x2E84      |       11908 |
|    1293 | 0x045F      |        1119 |
|    1294 | 0x2E8E      |       11918 |
|    1295 | 0x2EB4      |       11956 |
|    1296 | 0x2EB5      |       11957 |
|    1297 | 0x2EB6      |       11958 |
|    1298 | 0x2EBB      |       11963 |
|    1299 | 0x05D9      |        1497 |
|    1300 | 0x2E69      |       11881 |
|    1301 | 0x2E6A      |       11882 |
|    1302 | 0x2E7C      |       11900 |
|    1303 | 0x2E7D      |       11901 |
|    1304 | 0x2E85      |       11909 |
|    1305 | 0x2E86      |       11910 |
|    1306 | 0x2E87      |       11911 |
|    1307 | 0x2E8F      |       11919 |
|    1308 | 0x2EBD      |       11965 |
|    1309 | 0x2EBE      |       11966 |
|    1310 | 0x2EBF      |       11967 |
|    1311 | 0x2EC4      |       11972 |
|    1312 | 0x2EB7      |       11959 |
|    1313 | 0x2EB8      |       11960 |
|    1314 | 0x2EB9      |       11961 |
|    1315 | 0x2EC0      |       11968 |
|    1316 | 0x2EC1      |       11969 |
|    1317 | 0x2EC2      |       11970 |
|    1318 | 0x2E92      |       11922 |
|    1319 | 0x2E93      |       11923 |
|    1320 | 0x2E94      |       11924 |
|    1321 | 0x2E95      |       11925 |
|    1322 | 0x2E96      |       11926 |
|    1323 | 0x2E97      |       11927 |
|    1324 | 0x2E98      |       11928 |
|    1325 | 0x2B8A      |       11146 |
|    1326 | 0x2B8B      |       11147 |
|    1327 | 0x2B8C      |       11148 |
|    1328 | 0x2B8E      |       11150 |
|    1329 | 0x2B8D      |       11149 |
|    1330 | 0x2B8F      |       11151 |
|    1331 | 0x2B91      |       11153 |
|    1332 | 0x2B92      |       11154 |
|    1333 | 0x2B93      |       11155 |
|    1334 | 0x2B94      |       11156 |
|    1335 | 0x2B95      |       11157 |
|    1336 | 0x2B97      |       11159 |
|    1337 | 0x2B99      |       11161 |
|    1338 | 0x2B98      |       11160 |
|    1339 | 0x2B9A      |       11162 |
|    1340 | 0x2B9B      |       11163 |
|    1341 | 0x2B9D      |       11165 |
|    1342 | 0x2B9C      |       11164 |
|    1343 | 0x2B9E      |       11166 |
|    1344 | 0x2BA0      |       11168 |
|    1345 | 0x2B9F      |       11167 |
|    1346 | 0x2BA1      |       11169 |
|    1347 | 0x2BA2      |       11170 |
|    1348 | 0x2B96      |       11158 |
|    1349 | 0x0C0C      |        3084 |
|    1350 | 0x0C23      |        3107 |
|    1351 | 0x2B84      |       11140 |
|    1352 | 0x0367      |         871 |
|    1353 | 0x2B4C      |       11084 |
|    1354 | 0x2B4D      |       11085 |
|    1355 | 0x2B4E      |       11086 |
|    1356 | 0x2B4F      |       11087 |
|    1357 | 0x2B50      |       11088 |
|    1358 | 0x2B51      |       11089 |
|    1359 | 0x2B52      |       11090 |
|    1360 | 0x2E38      |       11832 |
|    1361 | 0x2E37      |       11831 |
|    1362 | 0x089E      |        2206 |
|    1363 | 0x2E45      |       11845 |
|    1364 | 0x0929      |        2345 |
|    1365 | 0x2E3E      |       11838 |
|    1366 | 0x2E3D      |       11837 |
|    1367 | 0x2C1B      |       11291 |
|    1368 | 0x0895      |        2197 |
|    1369 | 0x2C1A      |       11290 |
|    1370 | 0x15E5      |        5605 |
|    1371 | 0x2E3B      |       11835 |
|    1372 | 0x11C1      |        4545 |
|    1373 | 0x2E3A      |       11834 |
|    1374 | 0x15E6      |        5606 |
|    1375 | 0x2E39      |       11833 |
|    1376 | 0x1544      |        5444 |
|    1377 | 0x15E7      |        5607 |
|    1378 | 0x15E8      |        5608 |
|    1379 | 0x089B      |        2203 |
|    1380 | 0x089C      |        2204 |
|    1381 | 0x089D      |        2205 |
|    1382 | 0x2E44      |       11844 |
|    1383 | 0x089F      |        2207 |
|    1384 | 0x08A2      |        2210 |
|    1385 | 0x08A0      |        2208 |
|    1386 | 0x1125      |        4389 |
|    1387 | 0x08A3      |        2211 |
|    1388 | 0x08A1      |        2209 |
|    1389 | 0x2E43      |       11843 |
|    1390 | 0x092A      |        2346 |
|    1391 | 0x2E3C      |       11836 |
|    1392 | 0x2E46      |       11846 |
|    1393 | 0x2E40      |       11840 |
|    1394 | 0x2E3F      |       11839 |
|    1395 | 0x2E47      |       11847 |
|    1396 | 0x2E42      |       11842 |
|    1397 | 0x2E41      |       11841 |
|    1398 | 0x2C19      |       11289 |
|    1399 | 0x2E2C      |       11820 |
|    1400 | 0x2E2D      |       11821 |
|    1401 | 0x2E2E      |       11822 |
|    1402 | 0x2E33      |       11827 |
|    1403 | 0x2E2F      |       11823 |
|    1404 | 0x2E30      |       11824 |
|    1405 | 0x2E31      |       11825 |
|    1406 | 0x2ED4      |       11988 |
|    1407 | 0x2ED5      |       11989 |
|    1408 | 0x2E34      |       11828 |
|    1409 | 0x2E32      |       11826 |
|    1410 | 0x2ECC      |       11980 |
|    1411 | 0x2ECE      |       11982 |
|    1412 | 0x2ECF      |       11983 |
|    1413 | 0x2ECD      |       11981 |
|    1414 | 0x2E4A      |       11850 |
|    1415 | 0x0432      |        1074 |
|    1416 | 0x2E4B      |       11851 |
|    1417 | 0x2E52      |       11858 |
|    1418 | 0x0532      |        1330 |
|    1419 | 0x2E4C      |       11852 |
|    1420 | 0x0632      |        1586 |
|    1421 | 0x2E4D      |       11853 |
|    1422 | 0x0732      |        1842 |
|    1423 | 0x2E4E      |       11854 |
|    1424 | 0x0832      |        2098 |
|    1425 | 0x2E4F      |       11855 |
|    1426 | 0x0932      |        2354 |
|    1427 | 0x2E50      |       11856 |
|    1428 | 0x2E49      |       11849 |
|    1429 | 0x2E54      |       11860 |
|    1430 | 0x2E55      |       11861 |
|    1431 | 0x2E53      |       11859 |
|    1432 | 0x2B5C      |       11100 |
|    1433 | 0x2B5E      |       11102 |
|    1434 | 0x2B60      |       11104 |
|    1435 | 0x2B66      |       11110 |
|    1436 | 0x2B78      |       11128 |
|    1437 | 0x2B7A      |       11130 |
|    1438 | 0x2B6A      |       11114 |
|    1439 | 0x2B6C      |       11116 |
|    1440 | 0x2B75      |       11125 |
|    1441 | 0x2B87      |       11143 |
|    1442 | 0x2B89      |       11145 |

## String References

- **10534**: Please make your way to the chocobo stables in Jeuno. I will bring the chocobo with me when I have finished my preparations.
- **10535**: I am Hantileon, President of the Vana'diel Chocobo Society.
- **10536**: You also seem to like chocobos... I can tell by the look in your eyes. I will allow you to join our society.
- **10537**: Trade an egg to me if you want to start raising a chocobo.
- **10538**: You seem to be raising a chocobo at another nation's stables. Just ask Arvilauge if you have any questions.
- **10567**: Is this okay? [Yes./No.]
- **10569**: Sorry, but you will have to do this later. I have something new to report.
- **10577**: What would you like to do? [Ask about chocobo's condition./Care for your chocobo./Set up a care schedule./Name your chocobo./Request documentation./Register to call your chocobo./Receive your $0./Purchase $0./----/----/----/----/----/----/----/----/----/----/----/----/----/----/----/----/----/----/Go forward 1 unit./Abilities print (debug)./User work print (debug)./Retire your chocobo./Give up chocobo raising./Nothing.]
- **10579**: Request which documentation? [Chococard./Racing Form./Nothing.]
- **10618**: Next program: [Basic care/Rest/Take a walk in town/Listen to music/Exercise alone/Exercise in a group/Interact with children/Interact with chocobos/Carry packages/Exhibit to the public/Deliver messages/Dig for treasure/Act in a play] [Plan 1: [Basic care/Rest/Take a walk in town/Listen to music/Exercise alone/Exercise in a group/Interact with children/Interact with chocobos/Carry packages/Exhibit to the public/Deliver messages/Dig for treasure/Act in a play] ($0 [day/days])/Plan 2: [Basic care/Rest/Take a walk in town/Listen to music/Exercise alone/Exercise in a group/Interact with children/Interact with chocobos/Carry packages/Exhibit to the public/Deliver messages/Dig for treasure/Act in a play] ($2 [day/days])/Never mind./Next page.]
- **10619**: Next program: [Basic care/Rest/Take a walk in town/Listen to music/Exercise alone/Exercise in a group/Interact with children/Interact with chocobos/Carry packages/Exhibit to the public/Deliver messages/Dig for treasure/Act in a play] [Plan 3: [Basic care/Rest/Take a walk in town/Listen to music/Exercise alone/Exercise in a group/Interact with children/Interact with chocobos/Carry packages/Exhibit to the public/Deliver messages/Dig for treasure/Act in a play] ($0 [day/days])/Plan 4: [Basic care/Rest/Take a walk in town/Listen to music/Exercise alone/Exercise in a group/Interact with children/Interact with chocobos/Carry packages/Exhibit to the public/Deliver messages/Dig for treasure/Act in a play] ($2 [day/days])/Never mind./Previous page.]
- **10620**: Choose a plan for your chocobo. [Basic care./Rest./Take a walk in town./Listen to music./Exercise alone./Exercise in a group./Interact with children./Interact with chocobos./Carry packages./Exhibit to the public./Deliver messages./Dig for treasure./Act in a play./----/----/----/----/----/----/----/----/----/----/----/----/----/----/----/----/----/----/Never mind.]
- **10622**: For how many days? [One./Two./Three./Four./Five./Six./Seven./I've changed my mind.]
- **10623**: Plan $0 will be registered as follows: [Basic care/Rest/Take a walk in town/Listen to music/Exercise alone/Exercise in a group/Interact with children/Interact with chocobos/Carry packages/Exhibit to the public/Deliver messages/Dig for treasure/Act in a play] Number of days: $2
- **10627**: Plan $0 has been successfully registered on your chocobo's care schedule.
- **10648**: --Chocobo Status Report: Day $0--
- **10649**: --Chocobo Status Report: Day $0-Day $1--
- **10651**: Plan: Basic Care
- **10652**: Plan: Rest
- **10653**: Plan: Take a Walk
- **10654**: Plan: Listen to Music
- **10655**: Plan: Exercise Alone
- **10656**: Plan: Exercise In a Group
- **10657**: Plan: Interact with Children
- **10658**: Plan: Interact with Chocobos
- **10659**: Plan: Carry Packages
- **10660**: Plan: Exhibit to the Public
- **10661**: Plan: Deliver Messages
- **10662**: Plan: Dig for Treasure
- **10663**: Plan: Act In a Play
- **10677**: What will you do? [Watch over the chocobo./Tell a story./Scold the chocobo./Compete against others./Go on a walk (short)./Go on a walk (regular)./Go on a walk (long)./----/----/----/----/----/----/----/----/----/----/----/----/----/----/----/----/----/----/----/----/----/----/----/----/Nothing.]
- **10678**: [Watch over the chocobo/Tell a story/Scold the chocobo/Compete against others/Go on a walk (short)/Go on a walk (regular)/Go on a walk (long)]? [Yes./No.]
- **10688**: Choose a word category ([first name/last name]). [1-letter words."-letter words."-letter words./4-letter words./5-letter words./6-letter words./7-letter words./8-letter words./9-letter words./10-letter words./11-letter words./12-letter words./13-letter words./14-letter words./Return./Cancel.]
- **10689**: Is this name okay? [%0 %1? Yes!/On second thought...]
- **10691**: Choose a word.(%0) [$0/$1/$2/$3/$4/$5/$6/$7/$8/$9/$10/$11/$12/$13/$14/$15/$16/$17/$18/$19/$20/$21/$22/$23/$24/$25/$26/$27/$28/$29/Cancel./View other options.]
- **10696**: Purchase a chococard? ($0 gil each) [Yes./Not now.]
- **10699**: Would you like a free form? [Right away!/Maybe later.]
- **10704**: Register a chocobo? ($0 gil) [Yes./Not now.]
- **10711**: Purchase $0? ($1 gil) [Yes./Not now.]
- **10893**: Choose an area. [San d'Oria./Bastok./Windurst./Chocobo Circuit (Debug only)./Cancel.]
- **10894**: Choose an event category. [Care plans./Direct care./Status abnormalities./Other./Cancel.]
- **10895**: Choose an event. [Basic care./Rest./Take a walk in town./Listen to music./Exercise alone./Exercise in a group./Interact with children./Interact with chocobos./Carry packages./Exhibit to the public./Deliver messages./Dig for treasure./Act in a play./Cancel.]
- **10896**: Choose an event. [Watch over chocobo./Feed chocobo./Tell a story./Scold chocobo./Compete./Go on a walk 1./Go on a walk 2./Go on a walk 3./Cancel.]
- **10897**: Choose an event. [Injury./Light illness./Stomachache./Loneliness./Happiness./Laziness./Serious illness./Confusion./Spoiled./Runaway./In love./Crying at night./Injury healed./Light illness healed./Stomachache healed./Loneliness healed./No longer happy./Laziness healed./Serious illness healed./Confusion healed./No longer spoiled./Back from running away./No longer in love./Crying at night healed./Bursting with vitality./No longer bursting with vitality./Sparkling intelligence./No longer sparkling with intelligence.]
- **10924**: STR:$0/VIT:$1/INT:$2/MND:$3
- **10926**: Affection:$0/Energy:$1/Satisfaction:$2
- **10950**: Growth event ($0)
- **10951**: Plan accomplished event ($0)
- **10963**: eat:$0($0)
- **10997**: Starting event
- **10998**: Event number error.
- **11079**: You gave me an egg quite recently. I cannot care for two at once.
- **11080**: I am afraid I cannot take your egg because you are already in the process of raising a chocobo.
- **11081**: I can't take your egg because you're raising a chocobo at another nation's stables.
- **11176**: Let us analyze your egg's current condition...
- **11177**: Let us analyze $0's current condition...
- **11178**: I cannot tell yet whether the chocobo will be male or female.
- **11179**: It looks like your chocobo is...a $0[male/female]!
- **11180**: Strength: [Poor/Substandard/A bit deficient/Average/Better than average/Impressive/Outstanding/First-class]
- **11181**: Endurance: [Poor/Substandard/A bit deficient/Average/Better than average/Impressive/Outstanding/First-class]
- **11182**: Discernment: [Poor/Substandard/A bit deficient/Average/Better than average/Impressive/Outstanding/First-class]
- **11183**: Receptivity: [Poor/Substandard/A bit deficient/Average/Better than average/Impressive/Outstanding/First-class]
- **11184**: Regarding affection, it seems to [not care about you at all/be able to endure your company/slightly enjoy your company/like being around you/like you pretty well/like you a lot/want to be with you all the time/regard you as its parent].
- **11185**: Hmmm... Your chocobo seems to be [starving/quite hungry/a little hungry/neither hungry nor full/neither hungry nor full/almost full/quite full/completely full].
- **11186**: It looks like your chocobo's condition is stable. There have not been any changes worth mention.
- **11187**: Your chocobo's leg seems to be slightly wounded. $1 might help it heal.
- **11188**: Your chocobo seems to have a stomachache. $1 might help it feel better.
- **11189**: Your chocobo seems to be slightly ill. $1 might help it feel better.
- **11190**: Your chocobo is very ill. $1 might help it feel better.
- **11191**: Your chocobo is not receiving enough affection, and seems very depressed. You should pay more attention to your animal.
- **11192**: $0 has been receiving plenty of affection, and seems extremely happy. It is in excellent condition now!
- **11193**: $0 is sleeping soundly in order to heal its fatigue.
- **11194**: $0 seems bored and restless. You should give it something to do, like taking it out to race against other chocobos.
- **11195**: $0 is hopelessly spoiled! You should discipline it sometimes.
- **11196**: $0 ran away from the stables the moment I turned my back... It must have been upset about something. All we can do is wait for it to come back now.
- **11197**: $0 seems to have its head in the clouds lately... It must be in love.
- **11198**: Your chocobo has been making a real fuss at night lately. Such behavior is common for chicks, but you should deal with it as soon as possible.
- **11199**: $0 is so full of energy today!
- **11200**: $0 is unusually bright and focused today!
- **11201**: It [has a very easygoing personality/is rather ill-tempered/is a very patient chocobo/is quite sensitive/has a rather enigmatic personality], making it [easy to care for/ideal for military use/ideal for carrying goods/good with people/difficult to know what the animal is thinking].
- **11202**: Your chocobo [likes clear days/likes hot, sunny days/likes rainy days/likes sandstorms/likes windy days/likes snow/likes thunder/likes auroras/likes dark days/ /likes cloudy days.][./ and dislikes rainy days./ and dislikes thunder./ and dislikes windy days./ and dislikes snow./ and dislikes hot, sunny days./ and dislikes sandstorms./ and dislikes dark days./ and dislikes auroras.]
- **11203**: Last of all, your animal does not seem to know any abilities.
- **11204**: Last of all, your animal seems to have the ability "[--/Gallop/Canter/Burrow/Bore/Auto-Regen/Treasure Finder]."
- **11205**: Last of all, your animal seems to have the abilities "[--/Gallop/Canter/Burrow/Bore/Auto-Regen/Treasure Finder]" and "[--/Gallop/Canter/Burrow/Bore/Auto-Regen/Treasure Finder]."
- **11206**: Chocobos are delicate creatures, and their condition easily changes. The secret to raising a good chocobo is giving it plenty of care.
- **11207**: Your egg does not seem to be in the best condition at the moment. It would probably be best to leave it alone for a while.
- **11208**: $0 needs more energy before you can provide it with proper care.
- **11209**: If you watch over $0, it will gradually return your affection.
- **11210**: Telling $0 a story will help it develop a healthy psychological state. Remember that concentrating on your speech will have a slightly tiring effect on your chocobo, though.
- **11211**: When $0 refuses to do anything but sleep or acts stubborn, you must discipline it. Remember that reproof is an act of love.
- **11212**: You are interested in entering your chocobo into competitions? Strange...there were three others who mentioned the same thing.
- **11213**: Well, it is good for their physical development, after all. I suppose it is acceptable as long as they do not fight.
- **11214**: You can take your chocobo on a walk just outside of town. Because West Ronfaure is nearby, $0 shouldn't grow very tired.
- **11215**: You can take your chocobo on a walk a ways from town. The La Theine Plateau is not too far, so $0 should not grow exhausted.
- **11216**: You can take your chocobo on a walk as far out as the Jugner Forest. Being together such a long time should do wonders for the bond between you and $0.
- **11217**: This is the basic care plan for your chocobo. Under this plan, we will provide for your chocobo's most fundamental needs.
- **11218**: You can choose to give your chocobo a long rest. This will revitalize its energy and accelerate its recovery from injury or illness.
- **11219**: If you like, we can take your chocobo out on a walk through the safe areas of town. This should improve its physical condition.
- **11220**: Listening to music will make your chocobo a more refined creature, and should improve its mental condition.
- **11221**: Exercising alone will improve your chocobo's strength, but will have a slightly negative effect on its mental condition.
- **11222**: Exercising in a group will improve your chocobo's stamina, but will have a slightly negative effect on its mental condition.
- **11223**: Playing with children will improve your chocobo's intelligence, but will have a slightly negative effect on its physical condition.
- **11224**: Playing with other chocobos will improve your chocobo's receptivity, but will have a slightly negative effect on its physical condition.
- **11225**: You can earn some money by having your chocobo deliver packages for a transport agency.
- **11226**: Carrying heavy loads will improve its physical condition, but will inflict a certain amount of stress on the animal.
- **11227**: You can choose to exhibit your chocobo to the public. We will provide you with a monetary token of gratitude for this service.
- **11228**: Interacting with the public will improve its mental condition, but will inflict a certain amount of stress on the animal.
- **11229**: You can send your chocobo to deliver official messages for San d'Oria, which will compensate you for your services.
- **11230**: Carrying someone on its back for a long period of time will build strength in your chocobo's legs, but will place some strain on the animal.
- **11231**: You can send your chocobo to dig for items to benefit the stables. We will thank you for your contribution with a certain amount of gil.
- **11232**: Digging for items will improve your chocobo's intelligence, but will place some strain on the animal.
- **11233**: Your chocobo can even appear in plays. You will receive payment for this service in gil.
- **11234**: Interacting with actors and the audience should improve the chocobo's receptivity, but the difficult practice will place some strain on the animal.
- **11235**: What is this? You want to give up on this egg, do you?
- **11236**: What is this? Are you telling me that you no longer want to raise this chocobo?
- **11237**: You would not want to stop raising the poor animal at a time like this, would you?
- **11238**: Give up? [Yes, I can't do it anymore./No, I want to continue.]
- **11239**: You just started raising the poor creature! You are absolutely sure you want to do this?
- **11240**: Fine. Then you will never see your chocobo again. Is that all right with you?
- **11241**: If you decide to stop raising $0, you will never see it again. Are you really willing to give up without even seeing its face one last time?
- **11242**: Give up raising your chocobo? [Yes./No!]
- **11243**: Fine. Then the stables shall raise this egg. Do you have anything to say for yourself?
- **11244**: Fine. Custody of this chocobo will be transferred to the stables. Is there anything you wish to say before you are parted?
- **11245**: Fine. When $0 returns, the stables will begin caring for it. Do you have anything you wish to say?
- **11246**: What would you like to say? [Nothing./I'm sorry./It's just an animal!/We weren't compatible./Take good care of it.]
- **11247**: Is that so? I guess this is hard on you too, then. I apologize...
- **11248**: Is that so? That is a proper attitude...
- **11249**: ... I am disappointed in you.
- **11250**: You have not even seen its face yet, have you? Once you decide to raise an animal, you should see it through to the end.
- **11251**: No matter how incompatible you feel you may be, once you decide to raise an animal, you should see it through to the end.
- **11252**: We will. I am sure you have your reasons, but it still becomes no excuse.
- **11253**: I see. May you always continue to care for your chocobo!
- **11254**: You cannot retire a chocobo that has not been named.
- **11255**: Are you sure you want to retire $0?
- **11256**: Retire $0? [Yes./Not yet!]
- **11257**: Once you retire $0, you will become unable to meet it whenever you want. You have no qualms with this?
- **11258**: Really retire your chocobo? [Yes, really!/No, I've changed my mind!]
- **11259**: Understood. Then the chocobo will be transferred to one of the Vana'diel Chocobo Society's stables. Now is the time to say your goodbyes.
- **11263**: I cannot issue any documents to a chocobo that has not been named.
- **11264**: A chococard contains all the vital information about the chocobo that you are raising.
- **11265**: Trade a chococard to the matchmaker in Jeuno, and you will be able to breed your animal with another chocobo. I can issue a chococard for $0 gil.
- **11266**: You can register a chocobo to respond to your call in the field. The chocobo will come to you when you use your $0.
- **11267**: Your chocobo's registered data determines certain features, such as its saddle, so it is wise to re-register from time to time.
- **11268**: You can register a retired chocobo by trading $0 to me.
- **11269**: All right, then. I shall prepare $0.
- **11270**: All right, then. I'll get $0 ready as soon as it returns.
- **11273**: I have your $0 right here. You may take it now.
- **11274**: You lost your $0?
- **11275**: I can give you a new one, but it will cost you $1 gil.
- **11276**: This item links you and $0 together. You would be wise not to lose it again.
- **11293**: To enter your current chocobo in one of the CRA-sanctioned races, you will require $0.
- **11294**: You need only trade it to a CRA agent to complete the registration process.
- **11309**: I am terribly sorry, but that choice violates the VCS naming conventions. Might I trouble you to choose another combination?
- **11805**: $0 is completely absorbed in its current activities.
- **11806**: What will you do? [Search for the chocobo's item./Watch over the chocobo.]
- **11807**: You find something in the ground.
- **11808**: You obtain $6!
- **11809**: There does not seem to be anything of particular notice here.
- **11811**: $0 appears to be very happy.
- **11813**: $0 noticed what you were doing...
- **11820**: Your egg feels the tender warmth of your gaze.
- **11821**: The chick inside the egg seems to want out...
- **11822**: The chick inside the egg seems to be anxious to meet you...
- **11823**: $0 looks happy to see you.
- **11824**: $0 doesn't look very happy...
- **11825**: $0 is in high spirits.
- **11826**: $0 looks irritated.
- **11827**: $0 is sleeping peacefully.
- **11828**: You feel a faint warmth in the room left behind by $0...
- **11831**: <Player> gives the chocobo $3.
- **11832**: <Player> gives the chocobo its food.
- **11833**: $0 gobbles up the $3 in a single gulp!
- **11834**: $0 munches contentedly on the $3.
- **11835**: $0 eats the $3.
- **11836**: $0 quietly eats the food.
- **11837**: $0 seems to be forcing itself to eat the $3.
- **11838**: $0 seems to be forcing itself to eat the food.
- **11839**: $0 munches discontentedly on the $3.
- **11840**: $0 munches discontentedly on the food.
- **11841**: $0 munches weakly on the $3.
- **11842**: $0 munches weakly on the food.
- **11843**: $0 gulps down the $3!
- **11844**: $0 happily takes the $3.
- **11845**: $0 is forcing itself to take the $3.
- **11846**: $0 discontentendly swallows the $3.
- **11847**: $0 weakly swallows the $3.
- **11849**: $0 seems interested in your story.
- **11850**: Which would you like to talk about? [Random chitchat./An impatient chocobo./A curious chocobo./A worrisome chocobo./A youthful chocobo./A happy chocobo./A diligent chocobo.]
- **11851**: $0 learns the ability "Gallop"!
- **11852**: $0 learns the ability "Canter"!
- **11853**: $0 learns the ability "Burrow"!
- **11854**: $0 learns the ability "Bore"!
- **11855**: $0 learns the ability "Auto-Regen"!
- **11856**: $0 learns the ability "Treasure Finder"!
- **11858**: $0 is inspired by your story.
- **11859**: $0 hangs its head in shame.
- **11860**: $0 awakens from its sleep.
- **11861**: $0 is still fast asleep...
- **11880**: $0 becomes friends with $1!
- **11933**: The chocobo appears to be lost...
- **11934**: The chocobo chick appears to be lost...
- **11935**: What will you do? [Bring it home./Leave it.]
- **11937**: The chocobo chick follows <Player>...
- **11979**: $0 appears to have found something.
- **11980**: You see something half-buried under the straw. Could it be $1...?
- **11981**: You find something on the floor of the chocobo stall. Could it be $1...?
- **11988**: Obtained: $1!
- **11989**: Inventory is full. <Player> could not obtain the $1.
- **11991**: Hear the report? [Hear a detailed report./Hear a brief report./Skip the report./I'm done here.]
- **11992**: Are you sure? [Yes./No.]
- **11995**: One moment please...
- **11996**: Choose the pace for your [short walk/regular walk/long walk]. [Leisurely./Brisk./Cancel.]

## Events

### Event 65535

#### Metadata

| Field        | Value   |
|--------------|---------|
| Entrypoint   | 0x0000  |
| Data Size    | 1 bytes |
| Instructions | 1       |

```
      00 01 02 03 04 05 06 07  08 09 0A 0B 0C 0D 0E 0F
      -- -- -- -- -- -- -- --  -- -- -- -- -- -- -- --
0000: 00                                                .               
```

#### Opcodes

```
  0: 0x0000 [0x00] END_REQSTACK()
```

### Event 817

#### Metadata

| Field        | Value    |
|--------------|----------|
| Entrypoint   | 0x0001   |
| Data Size    | 78 bytes |
| Instructions | 18       |

```
      00 01 02 03 04 05 06 07  08 09 0A 0B 0C 0D 0E 0F
      -- -- -- -- -- -- -- --  -- -- -- -- -- -- -- --
0000:    1E F0 FF FF 7F 1C 00  80 02 02 10 01 80 00 2B   ..............+
0010: 00 1D 02 80 23 66 03 80  12 61 0E 01 12 61 0E 01  ....#f...a...a..
0020: 74 6C 6B 30 1D 04 80 23  01 4D 00 66 03 80 12 61  tlk0...#.M.f...a
0030: 0E 01 12 61 0E 01 74 6C  6B 30 02 03 10 01 80 00  ...a..tlk0......
0040: 49 00 1D 05 80 23 01 4D  00 1D 06 80 23 21 00     I....#.M....#!. 
```

#### Opcodes

```
  0: 0x0001 [0x1E] EventEntity looks at LocalPlayer and starts talking
  1: 0x0006 [0x1C] WAIT(30* ticks)
  2: 0x0009 [0x02] IF !(Work_Zone[2] == 0*) GOTO 0x002B
  3: 0x0011 [0x1D] PRINT_EVENT_MESSAGE(message_id=10535*)
     "I am Hantileon, President of the Vana'diel Chocobo Society."
  4: 0x0014 [0x23] WAIT_FOR_DIALOG_INTERACTION
  5: 0x0015 [0x66] LOAD_EXT_SCHEDULER_MAIN: Load scheduler "tlk0" with entities [Hantileon (ID: 17719570/0x010E6112), Hantileon (ID: 17719570/0x010E6112)], work=29*
  6: 0x0024 [0x1D] PRINT_EVENT_MESSAGE(message_id=10536*)
     "You also seem to like chocobos... I can tell by the look in your eyes. I will allow you to join our society."
  7: 0x0027 [0x23] WAIT_FOR_DIALOG_INTERACTION
  8: 0x0028 [0x01] GOTO 0x004D
  9: 0x002B [0x66] LOAD_EXT_SCHEDULER_MAIN: Load scheduler "tlk0" with entities [Hantileon (ID: 17719570/0x010E6112), Hantileon (ID: 17719570/0x010E6112)], work=29*
 10: 0x003A [0x02] IF !(Work_Zone[3] == 0*) GOTO 0x0049
 11: 0x0042 [0x1D] PRINT_EVENT_MESSAGE(message_id=10537*)
     "Trade an egg to me if you want to start raising a chocobo."
 12: 0x0045 [0x23] WAIT_FOR_DIALOG_INTERACTION
 13: 0x0046 [0x01] GOTO 0x004D
 14: 0x0049 [0x1D] PRINT_EVENT_MESSAGE(message_id=10538*)
     "You seem to be raising a chocobo at another nation's stables. Just ask Arvilauge if you have any questions."
 15: 0x004C [0x23] WAIT_FOR_DIALOG_INTERACTION

SUBROUTINE_004D:
 16: 0x004D [0x21] END_EVENT
 17: 0x004E [0x00] END_REQSTACK()
```

### Event 821

#### Metadata

| Field        | Value   |
|--------------|---------|
| Entrypoint   | 0x004F  |
| Data Size    | 1 bytes |
| Instructions | 1       |

```
      00 01 02 03 04 05 06 07  08 09 0A 0B 0C 0D 0E 0F
      -- -- -- -- -- -- -- --  -- -- -- -- -- -- -- --
0040:                                               00                 .
```

#### Opcodes

```
  0: 0x004F [0x00] END_REQSTACK()
```

### Event 65535.1

#### Metadata

| Field        | Value    |
|--------------|----------|
| Entrypoint   | 0x0050   |
| Data Size    | 15 bytes |
| Instructions | 3        |

```
      00 01 02 03 04 05 06 07  08 09 0A 0B 0C 0D 0E 0F
      -- -- -- -- -- -- -- --  -- -- -- -- -- -- -- --
0050: 37 07 80 08 80 09 80 0A  80 80 F8 FF FF 7F 00     7.............. 
```

#### Opcodes

```
  0: 0x0050 [0x37] UPDATE_EVENT_POSITION_AND_DIR: x=-3.717*, z=-98.289*, y=-0.099*, direction=183.5*
  1: 0x0059 [0x80] LOAD_WAIT(entity=EventEntity)
  2: 0x005E [0x00] END_REQSTACK()
```

### Event 822

#### Metadata

| Field        | Value    |
|--------------|----------|
| Entrypoint   | 0x005F   |
| Data Size    | 29 bytes |
| Instructions | 7        |

```
      00 01 02 03 04 05 06 07  08 09 0A 0B 0C 0D 0E 0F
      -- -- -- -- -- -- -- --  -- -- -- -- -- -- -- --
0050:                                               1E                 .
0060: F0 FF FF 7F 1C 00 80 66  03 80 12 61 0E 01 12 61  .......f...a...a
0070: 0E 01 74 6C 6B 30 1D 0B  80 23 21 00              ..tlk0...#!.    
```

#### Opcodes

```
  0: 0x005F [0x1E] EventEntity looks at LocalPlayer and starts talking
  1: 0x0064 [0x1C] WAIT(30* ticks)
  2: 0x0067 [0x66] LOAD_EXT_SCHEDULER_MAIN: Load scheduler "tlk0" with entities [Hantileon (ID: 17719570/0x010E6112), Hantileon (ID: 17719570/0x010E6112)], work=29*
  3: 0x0076 [0x1D] PRINT_EVENT_MESSAGE(message_id=10534*)
     "Please make your way to the chocobo stables in Jeuno. I will bring the chocobo with me when I have finished my preparations."
  4: 0x0079 [0x23] WAIT_FOR_DIALOG_INTERACTION
  5: 0x007A [0x21] END_EVENT
  6: 0x007B [0x00] END_REQSTACK()
```

### Event 831

#### Metadata

| Field        | Value    |
|--------------|----------|
| Entrypoint   | 0x007C   |
| Data Size    | 67 bytes |
| Instructions | 17       |

```
      00 01 02 03 04 05 06 07  08 09 0A 0B 0C 0D 0E 0F
      -- -- -- -- -- -- -- --  -- -- -- -- -- -- -- --
0070:                                      1E F0 FF FF              ....
0080: 7F 1C 00 80 66 03 80 12  61 0E 01 12 61 0E 01 74  ....f...a...a..t
0090: 6C 6B 30 02 02 10 09 10  00 B9 00 03 02 10 0C 80  lk0.............
00A0: 1A 6A 30 02 03 10 0C 80  80 B2 00 1D 0D 80 23 01  .j0...........#.
00B0: B6 00 1D 0E 80 23 01 BD  00 1D 0F 80 23 21 00     .....#......#!. 
```

#### Opcodes

```
  0: 0x007C [0x1E] EventEntity looks at LocalPlayer and starts talking
  1: 0x0081 [0x1C] WAIT(30* ticks)
  2: 0x0084 [0x66] LOAD_EXT_SCHEDULER_MAIN: Load scheduler "tlk0" with entities [Hantileon (ID: 17719570/0x010E6112), Hantileon (ID: 17719570/0x010E6112)], work=29*
  3: 0x0093 [0x02] IF !(Work_Zone[2] == Work_Zone[9]) GOTO 0x00B9
  4: 0x009B [0x03] Work_Zone[2] = 1*
  5: 0x00A0 [0x1A] CALL_SUBROUTINE(address=0x306A)
  6: 0x00A3 [0x02] IF !(Work_Zone[3] == 1*) GOTO 0x00B2
  7: 0x00AB [0x1D] PRINT_EVENT_MESSAGE(message_id=11079*)
     "You gave me an egg quite recently. I cannot care for two at once."
  8: 0x00AE [0x23] WAIT_FOR_DIALOG_INTERACTION
  9: 0x00AF [0x01] GOTO 0x00B6
 10: 0x00B2 [0x1D] PRINT_EVENT_MESSAGE(message_id=11080*)
     "I am afraid I cannot take your egg because you are already in the process of raising a chocobo."
 11: 0x00B5 [0x23] WAIT_FOR_DIALOG_INTERACTION

SUBROUTINE_00B6:
 12: 0x00B6 [0x01] GOTO 0x00BD
 13: 0x00B9 [0x1D] PRINT_EVENT_MESSAGE(message_id=11081*)
     "I can't take your egg because you're raising a chocobo at another nation's stables."
 14: 0x00BC [0x23] WAIT_FOR_DIALOG_INTERACTION

SUBROUTINE_00BD:
 15: 0x00BD [0x21] END_EVENT
 16: 0x00BE [0x00] END_REQSTACK()
```

### Event 65535.2

#### Metadata

| Field        | Value    |
|--------------|----------|
| Entrypoint   | 0x00BF   |
| Data Size    | 20 bytes |
| Instructions | 4        |

```
      00 01 02 03 04 05 06 07  08 09 0A 0B 0C 0D 0E 0F
      -- -- -- -- -- -- -- --  -- -- -- -- -- -- -- --
00B0:                                               37                 7
00C0: 10 80 11 80 12 80 13 80  80 F8 FF FF 7F 1E F0 FF  ................
00D0: FF 7F 00                                          ...             
```

#### Opcodes

```
  0: 0x00BF [0x37] UPDATE_EVENT_POSITION_AND_DIR: x=-2.675*, z=-105.287*, y=-0.100*, direction=231.9*
  1: 0x00C8 [0x80] LOAD_WAIT(entity=EventEntity)
  2: 0x00CD [0x1E] EventEntity looks at LocalPlayer and starts talking
  3: 0x00D2 [0x00] END_REQSTACK()
```

### Event 65535.3

#### Metadata

| Field        | Value    |
|--------------|----------|
| Entrypoint   | 0x00D3   |
| Data Size    | 15 bytes |
| Instructions | 3        |

```
      00 01 02 03 04 05 06 07  08 09 0A 0B 0C 0D 0E 0F
      -- -- -- -- -- -- -- --  -- -- -- -- -- -- -- --
00D0:          37 14 80 15 80  16 80 17 80 80 F8 FF FF     7............
00E0: 7F 00                                             ..              
```

#### Opcodes

```
  0: 0x00D3 [0x37] UPDATE_EVENT_POSITION_AND_DIR: x=-8.692*, z=-100.478*, y=1.399*, direction=4.1*
  1: 0x00DC [0x80] LOAD_WAIT(entity=EventEntity)
  2: 0x00E1 [0x00] END_REQSTACK()
```

### Event 65535.4

#### Metadata

| Field        | Value    |
|--------------|----------|
| Entrypoint   | 0x00E2   |
| Data Size    | 15 bytes |
| Instructions | 3        |

```
      00 01 02 03 04 05 06 07  08 09 0A 0B 0C 0D 0E 0F
      -- -- -- -- -- -- -- --  -- -- -- -- -- -- -- --
00E0:       37 18 80 19 80 1A  80 1B 80 80 F8 FF FF 7F    7.............
00F0: 00                                                .               
```

#### Opcodes

```
  0: 0x00E2 [0x37] UPDATE_EVENT_POSITION_AND_DIR: x=5.027*, z=-110.079*, y=1.548*, direction=174.5*
  1: 0x00EB [0x80] LOAD_WAIT(entity=EventEntity)
  2: 0x00F0 [0x00] END_REQSTACK()
```

### Event 65535.5

#### Metadata

| Field        | Value    |
|--------------|----------|
| Entrypoint   | 0x00F1   |
| Data Size    | 15 bytes |
| Instructions | 3        |

```
      00 01 02 03 04 05 06 07  08 09 0A 0B 0C 0D 0E 0F
      -- -- -- -- -- -- -- --  -- -- -- -- -- -- -- --
00F0:    37 1C 80 1D 80 1A 80  1E 80 80 F8 FF FF 7F 00   7..............
```

#### Opcodes

```
  0: 0x00F1 [0x37] UPDATE_EVENT_POSITION_AND_DIR: x=-10.342*, z=-114.750*, y=1.548*, direction=157.4*
  1: 0x00FA [0x80] LOAD_WAIT(entity=EventEntity)
  2: 0x00FF [0x00] END_REQSTACK()
```

### Event 65535.6

#### Metadata

| Field        | Value    |
|--------------|----------|
| Entrypoint   | 0x0100   |
| Data Size    | 22 bytes |
| Instructions | 6        |

```
      00 01 02 03 04 05 06 07  08 09 0A 0B 0C 0D 0E 0F
      -- -- -- -- -- -- -- --  -- -- -- -- -- -- -- --
0100: 32 1F 80 1F 00 20 80 21  80 1A 80 1F 01 1E 13 61  2.... .!.......a
0110: 0E 01 1C 22 80 00                                 ..."..          
```

#### Opcodes

```
  0: 0x0100 [0x32] ExtData[1]->MainSpeed = 13* * 0.1
  1: 0x0103 [0x1F] MOVE_ENTITY: EventEntity moves to X=-11.919*, Z=-114.962*, Y=1.548*
  2: 0x010B [0x1F] MOVE_ENTITY: Update entity position (mode=1)
  3: 0x010D [0x1E] EventEntity looks at Unnamed NPC (ID: 17719571/0x010E6113) and starts talking
  4: 0x0112 [0x1C] WAIT(60* ticks)
  5: 0x0115 [0x00] END_REQSTACK()
```

### Event 65535.7

#### Metadata

| Field        | Value    |
|--------------|----------|
| Entrypoint   | 0x0116   |
| Data Size    | 15 bytes |
| Instructions | 3        |

```
      00 01 02 03 04 05 06 07  08 09 0A 0B 0C 0D 0E 0F
      -- -- -- -- -- -- -- --  -- -- -- -- -- -- -- --
0110:                   37 23  80 24 80 1A 80 25 80 80        7#.$...%..
0120: F8 FF FF 7F 00                                    .....           
```

#### Opcodes

```
  0: 0x0116 [0x37] UPDATE_EVENT_POSITION_AND_DIR: x=-6.876*, z=-104.000*, y=1.548*, direction=101.9*
  1: 0x011F [0x80] LOAD_WAIT(entity=EventEntity)
  2: 0x0124 [0x00] END_REQSTACK()
```

### Event 65535.8

#### Metadata

| Field        | Value    |
|--------------|----------|
| Entrypoint   | 0x0125   |
| Data Size    | 72 bytes |
| Instructions | 16       |

```
      00 01 02 03 04 05 06 07  08 09 0A 0B 0C 0D 0E 0F
      -- -- -- -- -- -- -- --  -- -- -- -- -- -- -- --
0120:                32 1F 80  1F 00 26 80 27 80 1A 80       2....&.'...
0130: 1F 01 4B 12 61 0E 01 28  80 1C 22 80 32 1F 80 1F  ..K.a..(..".2...
0140: 00 29 80 2A 80 1A 80 1F  01 1F 00 2B 80 2C 80 1A  .).*.......+.,..
0150: 80 1F 01 4B 12 61 0E 01  2D 80 1C 00 80 6E 12 61  ...K.a..-....n.a
0160: 0E 01 2E 80 99 12 61 0E  01 1C 22 80 00           ......a..."..   
```

#### Opcodes

```
  0: 0x0125 [0x32] ExtData[1]->MainSpeed = 13* * 0.1
  1: 0x0128 [0x1F] MOVE_ENTITY: EventEntity moves to X=-8.431*, Z=-106.114*, Y=1.548*
  2: 0x0130 [0x1F] MOVE_ENTITY: Update entity position (mode=1)
  3: 0x0132 [0x4B] UPDATE_ENTITY_YAW(entity=Hantileon (ID: 17719570/0x010E6112), yaw=0.3*)
  4: 0x0139 [0x1C] WAIT(60* ticks)
  5: 0x013C [0x32] ExtData[1]->MainSpeed = 13* * 0.1
  6: 0x013F [0x1F] MOVE_ENTITY: EventEntity moves to X=-8.104*, Z=-107.405*, Y=1.548*
  7: 0x0147 [0x1F] MOVE_ENTITY: Update entity position (mode=1)
  8: 0x0149 [0x1F] MOVE_ENTITY: EventEntity moves to X=-6.878*, Z=-108.064*, Y=1.548*
  9: 0x0151 [0x1F] MOVE_ENTITY: Update entity position (mode=1)
 10: 0x0153 [0x4B] UPDATE_ENTITY_YAW(entity=Hantileon (ID: 17719570/0x010E6112), yaw=15.3*)
 11: 0x015A [0x1C] WAIT(30* ticks)
 12: 0x015D [0x6E] Hantileon (ID: 17719570/0x010E6112) uses emote 7*
 13: 0x0164 [0x99] Wait for Hantileon (ID: 17719570/0x010E6112) animation to complete
 14: 0x0169 [0x1C] WAIT(60* ticks)
 15: 0x016C [0x00] END_REQSTACK()
```

### Event 65535.9

#### Metadata

| Field        | Value    |
|--------------|----------|
| Entrypoint   | 0x016D   |
| Data Size    | 15 bytes |
| Instructions | 3        |

```
      00 01 02 03 04 05 06 07  08 09 0A 0B 0C 0D 0E 0F
      -- -- -- -- -- -- -- --  -- -- -- -- -- -- -- --
0160:                                         37 2F 80               7/.
0170: 30 80 16 80 31 80 80 F8  FF FF 7F 00              0...1.......    
```

#### Opcodes

```
  0: 0x016D [0x37] UPDATE_EVENT_POSITION_AND_DIR: x=-9.815*, z=-100.532*, y=1.399*, direction=12.2*
  1: 0x0176 [0x80] LOAD_WAIT(entity=EventEntity)
  2: 0x017B [0x00] END_REQSTACK()
```

### Event 65535.10

#### Metadata

| Field        | Value     |
|--------------|-----------|
| Entrypoint   | 0x017C    |
| Data Size    | 312 bytes |
| Instructions | 50        |

```
      00 01 02 03 04 05 06 07  08 09 0A 0B 0C 0D 0E 0F
      -- -- -- -- -- -- -- --  -- -- -- -- -- -- -- --
0170:                                      32 32 80 1F              22..
0180: 00 33 80 34 80 16 80 1F  01 32 32 80 1F 00 35 80  .3.4.....22...5.
0190: 36 80 16 80 1F 01 1C 22  80 32 1F 80 1F 00 37 80  6......".2....7.
01A0: 38 80 16 80 1F 01 37 39  80 3A 80 1A 80 3B 80 80  8.....79.:...;..
01B0: F8 FF FF 7F 02 03 10 3C  80 80 DD 01 5B 3D 80 13  .......<....[=..
01C0: 61 0E 01 13 61 0E 01 6B  75 65 30 5B 3E 80 13 61  a...a..kue0[>..a
01D0: 0E 01 13 61 0E 01 31 30  30 39 01 FB 01 5B 3F 80  ...a..1009...[?.
01E0: 19 61 0E 01 19 61 0E 01  6A 6F 79 30 5B 3E 80 19  .a...a..joy0[>..
01F0: 61 0E 01 19 61 0E 01 31  30 31 31 1C 22 80 32 32  a...a..1011.".22
0200: 80 1F 00 40 80 41 80 1A  80 1F 01 32 42 80 1F 00  ...@.A.....2B...
0210: 43 80 44 80 1A 80 1F 01  32 32 80 1F 00 45 80 46  C.D.....22...E.F
0220: 80 1A 80 1F 01 1C 22 80  32 1F 80 1F 00 40 80 41  ......".2....@.A
0230: 80 1A 80 1F 01 02 03 10  3C 80 80 72 02 4A 13 61  ........<..r.J.a
0240: 0E 01 12 61 0E 01 1C 00  80 5B 3D 80 13 61 0E 01  ...a.....[=..a..
0250: 13 61 0E 01 6B 75 65 30  5B 3E 80 13 61 0E 01 13  .a..kue0[>..a...
0260: 61 0E 01 31 30 30 39 1C  22 80 1E 13 61 0E 01 01  a..1009."...a...
0270: A1 02 4A 19 61 0E 01 12  61 0E 01 5B 3F 80 19 61  ..J.a...a..[?..a
0280: 0E 01 19 61 0E 01 6A 6F  79 30 5B 3E 80 19 61 0E  ...a..joy0[>..a.
0290: 01 19 61 0E 01 31 30 31  31 1C 22 80 1E 19 61 0E  ..a..1011."...a.
02A0: 01 1C 00 80 6E 12 61 0E  01 47 80 99 12 61 0E 01  ....n.a..G...a..
02B0: 1C 22 80 00                                       ."..            
```

#### Opcodes

```
  0: 0x017C [0x32] ExtData[1]->MainSpeed = 40* * 0.1
  1: 0x017F [0x1F] MOVE_ENTITY: EventEntity moves to X=-6.953*, Z=-100.480*, Y=1.399*
  2: 0x0187 [0x1F] MOVE_ENTITY: Update entity position (mode=1)
  3: 0x0189 [0x32] ExtData[1]->MainSpeed = 40* * 0.1
  4: 0x018C [0x1F] MOVE_ENTITY: EventEntity moves to X=-6.958*, Z=-100.680*, Y=1.399*
  5: 0x0194 [0x1F] MOVE_ENTITY: Update entity position (mode=1)
  6: 0x0196 [0x1C] WAIT(60* ticks)
  7: 0x0199 [0x32] ExtData[1]->MainSpeed = 13* * 0.1
  8: 0x019C [0x1F] MOVE_ENTITY: EventEntity moves to X=-9.601*, Z=-100.669*, Y=1.399*
  9: 0x01A4 [0x1F] MOVE_ENTITY: Update entity position (mode=1)
 10: 0x01A6 [0x37] UPDATE_EVENT_POSITION_AND_DIR: x=-4.872*, z=-107.458*, y=1.548*, direction=208.6*
 11: 0x01AF [0x80] LOAD_WAIT(entity=EventEntity)
 12: 0x01B4 [0x02] IF !(Work_Zone[3] == 3*) GOTO 0x01DD
 13: 0x01BC [0x5B] LOAD_EXT_SCHEDULER: Load scheduler "kue0" with entities [Unnamed NPC (ID: 17719571/0x010E6113), Unnamed NPC (ID: 17719571/0x010E6113)], work=875*
 14: 0x01CB [0x5B] LOAD_EXT_SCHEDULER: Load scheduler "1009" with entities [Unnamed NPC (ID: 17719571/0x010E6113), Unnamed NPC (ID: 17719571/0x010E6113)], work=224*
 15: 0x01DA [0x01] GOTO 0x01FB
 16: 0x01DD [0x5B] LOAD_EXT_SCHEDULER: Load scheduler "joy0" with entities [Unnamed NPC (ID: 17719577/0x010E6119), Unnamed NPC (ID: 17719577/0x010E6119)], work=222*
 17: 0x01EC [0x5B] LOAD_EXT_SCHEDULER: Load scheduler "1011" with entities [Unnamed NPC (ID: 17719577/0x010E6119), Unnamed NPC (ID: 17719577/0x010E6119)], work=224*

SUBROUTINE_01FB:
 18: 0x01FB [0x1C] WAIT(60* ticks)
 19: 0x01FE [0x32] ExtData[1]->MainSpeed = 40* * 0.1
