# 17719321 - Shilah

## Common Data

| Field            | Value                         |
|------------------|-------------------------------|
| Zone             | Southern San d'Oria (ID: 230) |
| Block Size       | 504 bytes                     |
| Total Events     | 15                            |
| References Count | 31                            |

## List of Events

| Event ID                 | Entrypoint   |   Size |   Instructions |
|--------------------------|--------------|--------|----------------|
| [65535](#event-65535)    | 0x0000       |      1 |              1 |
| [563](#event-563)        | 0x0001       |     11 |              5 |
| [70](#event-70)          | 0x000C       |      1 |              1 |
| [75](#event-75)          | 0x000D       |      1 |              1 |
| [64](#event-64)          | 0x000E       |      1 |              1 |
| [888](#event-888)        | 0x000F       |      1 |              1 |
| [945](#event-945)        | 0x0010       |     10 |              2 |
| [65535.1](#event-655351) | 0x001A       |     15 |              5 |
| [65535.2](#event-655352) | 0x0029       |     68 |             12 |
| [65535.3](#event-655353) | 0x006D       |     45 |              9 |
| [65535.4](#event-655354) | 0x009A       |     89 |             16 |
| [65535.5](#event-655355) | 0x00F3       |     15 |              5 |
| [65535.6](#event-655356) | 0x0102       |     10 |              2 |
| [65535.7](#event-655357) | 0x010C       |     15 |              5 |
| [65535.8](#event-655358) | 0x011B       |     18 |              6 |

## DAT References (imed_data)

|   Index | Hex Value   |   Dec Value |
|---------|-------------|-------------|
|       0 | 0x1FD8      |        8152 |
|       1 | 0x0060      |          96 |
|       2 | 0x0001      |           1 |
|       3 | 0x000B      |          11 |
|       4 | 0xF906      |       63750 |
|       5 | 0xFFFFC4F8  |  4294952184 |
|       6 | 0x07CF      |        1999 |
|       7 | 0x0013      |          19 |
|       8 | 0x7FC6      |       32710 |
|       9 | 0xFFFF82CC  |  4294935244 |
|      10 | 0x004B      |          75 |
|      11 | 0x001E      |          30 |
|      12 | 0x0027      |          39 |
|      13 | 0x4B65      |       19301 |
|      14 | 0xFFFF927C  |  4294939260 |
|      15 | 0x001D      |          29 |
|      16 | 0x000D      |          13 |
|      17 | 0xFFFFE0FB  |  4294959355 |
|      18 | 0xFFFFFCD8  |  4294966488 |
|      19 | 0x0078      |         120 |
|      20 | 0xFFFFBEF4  |  4294950644 |
|      21 | 0xFFFFD7DD  |  4294957021 |
|      22 | 0xFFFFDD9F  |  4294958495 |
|      23 | 0xFFFFA44E  |  4294943822 |
|      24 | 0x007F      |         127 |
|      25 | 0x0028      |          40 |
|      26 | 0x3192      |       12690 |
|      27 | 0xFFFFCF7D  |  4294954877 |
|      28 | 0x0025      |          37 |
|      29 | 0x2E04      |       11780 |
|      30 | 0xFFFFCBDF  |  4294953951 |

## String References

- **8152**: Welcome, weary traveler. Make yourself at home!

## Events

### Event 65535

#### Metadata

| Field        | Value   |
|--------------|---------|
| Entrypoint   | 0x0000  |
| Data Size    | 1 bytes |
| Instructions | 1       |

```
      00 01 02 03 04 05 06 07  08 09 0A 0B 0C 0D 0E 0F
      -- -- -- -- -- -- -- --  -- -- -- -- -- -- -- --
0000: 00                                                .               
```

#### Opcodes

```
  0: 0x0000 [0x00] END_REQSTACK()
```

### Event 563

#### Metadata

| Field        | Value    |
|--------------|----------|
| Entrypoint   | 0x0001   |
| Data Size    | 11 bytes |
| Instructions | 5        |

```
      00 01 02 03 04 05 06 07  08 09 0A 0B 0C 0D 0E 0F
      -- -- -- -- -- -- -- --  -- -- -- -- -- -- -- --
0000:    1E F0 FF FF 7F 1D 00  80 23 21 00               ........#!.    
```

#### Opcodes

```
  0: 0x0001 [0x1E] EventEntity looks at LocalPlayer and starts talking
  1: 0x0006 [0x1D] PRINT_EVENT_MESSAGE(message_id=8152*)
    → "Welcome, weary traveler. Make yourself at home!"
  2: 0x0009 [0x23] WAIT_FOR_DIALOG_INTERACTION
  3: 0x000A [0x21] END_EVENT
  4: 0x000B [0x00] END_REQSTACK()
```

### Event 70

#### Metadata

| Field        | Value   |
|--------------|---------|
| Entrypoint   | 0x000C  |
| Data Size    | 1 bytes |
| Instructions | 1       |

```
      00 01 02 03 04 05 06 07  08 09 0A 0B 0C 0D 0E 0F
      -- -- -- -- -- -- -- --  -- -- -- -- -- -- -- --
0000:                                      00                       .   
```

#### Opcodes

```
  0: 0x000C [0x00] END_REQSTACK()
```

### Event 75

#### Metadata

| Field        | Value   |
|--------------|---------|
| Entrypoint   | 0x000D  |
| Data Size    | 1 bytes |
| Instructions | 1       |

```
      00 01 02 03 04 05 06 07  08 09 0A 0B 0C 0D 0E 0F
      -- -- -- -- -- -- -- --  -- -- -- -- -- -- -- --
0000:                                         00                     .  
```

#### Opcodes

```
  0: 0x000D [0x00] END_REQSTACK()
```

### Event 64

#### Metadata

| Field        | Value   |
|--------------|---------|
| Entrypoint   | 0x000E  |
| Data Size    | 1 bytes |
| Instructions | 1       |

```
      00 01 02 03 04 05 06 07  08 09 0A 0B 0C 0D 0E 0F
      -- -- -- -- -- -- -- --  -- -- -- -- -- -- -- --
0000:                                            00                   . 
```

#### Opcodes

```
  0: 0x000E [0x00] END_REQSTACK()
```

### Event 888

#### Metadata

| Field        | Value   |
|--------------|---------|
| Entrypoint   | 0x000F  |
| Data Size    | 1 bytes |
| Instructions | 1       |

```
      00 01 02 03 04 05 06 07  08 09 0A 0B 0C 0D 0E 0F
      -- -- -- -- -- -- -- --  -- -- -- -- -- -- -- --
0000:                                               00                 .
```

#### Opcodes

```
  0: 0x000F [0x00] END_REQSTACK()
```

### Event 945

#### Metadata

| Field        | Value    |
|--------------|----------|
| Entrypoint   | 0x0010   |
| Data Size    | 10 bytes |
| Instructions | 2        |

```
      00 01 02 03 04 05 06 07  08 09 0A 0B 0C 0D 0E 0F
      -- -- -- -- -- -- -- --  -- -- -- -- -- -- -- --
0010: 6C F8 FF FF 7F 01 80 02  80 00                    l.........      
```

#### Opcodes

```
  0: 0x0010 [0x6C] FADE_ENTITY_COLOR(entity_id=EventEntity, end_alpha=96*, fade_time=1*)
  1: 0x0019 [0x00] END_REQSTACK()
```

### Event 65535.1

#### Metadata

| Field        | Value    |
|--------------|----------|
| Entrypoint   | 0x001A   |
| Data Size    | 15 bytes |
| Instructions | 5        |

```
      00 01 02 03 04 05 06 07  08 09 0A 0B 0C 0D 0E 0F
      -- -- -- -- -- -- -- --  -- -- -- -- -- -- -- --
0010:                                32 03 80 1F 00 04            2.....
0020: 80 05 80 06 80 1F 01 6F  00                       .......o.       
```

#### Opcodes

```
  0: 0x001A [0x32] ExtData[1]->MainSpeed = 11* * 0.1
  1: 0x001D [0x1F] MOVE_ENTITY: EventEntity moves to X=63.750*, Z=-15.112*, Y=1.999*
  2: 0x0025 [0x1F] MOVE_ENTITY: Update entity position (mode=1)
  3: 0x0027 [0x6F] WAIT_FRAME_DELAY: Yield until WaitTime reaches zero
  4: 0x0028 [0x00] END_REQSTACK()
```

### Event 65535.2

#### Metadata

| Field        | Value    |
|--------------|----------|
| Entrypoint   | 0x0029   |
| Data Size    | 68 bytes |
| Instructions | 12       |

```
      00 01 02 03 04 05 06 07  08 09 0A 0B 0C 0D 0E 0F
      -- -- -- -- -- -- -- --  -- -- -- -- -- -- -- --
0020:                             32 07 80 1F 00 08 80           2......
0030: 09 80 06 80 1F 01 6F 1E  3D 60 0E 01 6F 76 F8 FF  ......o.=`..ov..
0040: FF 7F 4A 3D 60 0E 01 F8  FF FF 7F 5B 0A 80 F8 FF  ..J=`......[....
0050: FF 7F F8 FF FF 7F 74 6C  6B 30 1C 0B 80 5B 0A 80  ......tlk0...[..
0060: 3D 60 0E 01 3D 60 0E 01  74 68 6B 30 00           =`..=`..thk0.   
```

#### Opcodes

```
  0: 0x0029 [0x32] ExtData[1]->MainSpeed = 19* * 0.1
  1: 0x002C [0x1F] MOVE_ENTITY: EventEntity moves to X=32.710*, Z=-32.052*, Y=1.999*
  2: 0x0034 [0x1F] MOVE_ENTITY: Update entity position (mode=1)
  3: 0x0036 [0x6F] WAIT_FRAME_DELAY: Yield until WaitTime reaches zero
  4: 0x0037 [0x1E] EventEntity looks at Authere (ID: 17719357/0x010E603D) and starts talking
  5: 0x003C [0x6F] WAIT_FRAME_DELAY: Yield until WaitTime reaches zero
  6: 0x003D [0x76] CHECK_ENTITY_RENDER_FLAGS: Wait until EventEntity Render.Flags0 and Render.Flags3 conditions are met
  7: 0x0042 [0x4A] Authere (ID: 17719357/0x010E603D) looks at EventEntity
  8: 0x004B [0x5B] LOAD_EXT_SCHEDULER: Load scheduler "tlk0" with entities [EventEntity, EventEntity], work=75*
  9: 0x005A [0x1C] WAIT(30* ticks)
 10: 0x005D [0x5B] LOAD_EXT_SCHEDULER: Load scheduler "thk0" with entities [Authere (ID: 17719357/0x010E603D), Authere (ID: 17719357/0x010E603D)], work=75*
 11: 0x006C [0x00] END_REQSTACK()
```

### Event 65535.3

#### Metadata

| Field        | Value    |
|--------------|----------|
| Entrypoint   | 0x006D   |
| Data Size    | 45 bytes |
| Instructions | 9        |

```
      00 01 02 03 04 05 06 07  08 09 0A 0B 0C 0D 0E 0F
      -- -- -- -- -- -- -- --  -- -- -- -- -- -- -- --
0060:                                         32 0C 80               2..
0070: 1F 00 0D 80 0E 80 06 80  1F 01 6F 4A 72 60 0E 01  ..........oJr`..
0080: F8 FF FF 7F 6F 76 72 60  0E 01 66 0F 80 72 60 0E  ....ovr`..f..r`.
0090: 01 72 60 0E 01 74 77 61  30 00                    .r`..twa0.      
```

#### Opcodes

```
  0: 0x006D [0x32] ExtData[1]->MainSpeed = 39* * 0.1
  1: 0x0070 [0x1F] MOVE_ENTITY: EventEntity moves to X=19.301*, Z=-28.036*, Y=1.999*
  2: 0x0078 [0x1F] MOVE_ENTITY: Update entity position (mode=1)
  3: 0x007A [0x6F] WAIT_FRAME_DELAY: Yield until WaitTime reaches zero
  4: 0x007B [0x4A] Vaquelage (ID: 17719410/0x010E6072) looks at EventEntity
  5: 0x0084 [0x6F] WAIT_FRAME_DELAY: Yield until WaitTime reaches zero
  6: 0x0085 [0x76] CHECK_ENTITY_RENDER_FLAGS: Wait until Vaquelage (ID: 17719410/0x010E6072) Render.Flags0 and Render.Flags3 conditions are met
  7: 0x008A [0x66] LOAD_EXT_SCHEDULER_MAIN: Load scheduler "twa0" with entities [Vaquelage (ID: 17719410/0x010E6072), Vaquelage (ID: 17719410/0x010E6072)], work=29*
  8: 0x0099 [0x00] END_REQSTACK()
```

### Event 65535.4

#### Metadata

| Field        | Value    |
|--------------|----------|
| Entrypoint   | 0x009A   |
| Data Size    | 89 bytes |
| Instructions | 16       |

```
      00 01 02 03 04 05 06 07  08 09 0A 0B 0C 0D 0E 0F
      -- -- -- -- -- -- -- --  -- -- -- -- -- -- -- --
0090:                                32 10 80 1F 00 11            2.....
00A0: 80 12 80 06 80 1F 01 6F  79 00 F8 FF FF 7F 7E 60  .......oy.....~`
00B0: 0E 01 4A 7E 60 0E 01 F8  FF FF 7F 6F 76 7E 60 0E  ..J~`......ov~`.
00C0: 01 5B 0C 80 7E 60 0E 01  7E 60 0E 01 74 6C 6B 30  .[..~`..~`..tlk0
00D0: 1C 13 80 5B 0C 80 7E 60  0E 01 7E 60 0E 01 74 6C  ...[..~`..~`..tl
00E0: 6B 31 7B F8 FF FF 7F 1F  00 14 80 15 80 06 80 1F  k1{.............
00F0: 01 6F 00                                          .o.             
```

#### Opcodes

```
  0: 0x009A [0x32] ExtData[1]->MainSpeed = 13* * 0.1
  1: 0x009D [0x1F] MOVE_ENTITY: EventEntity moves to X=-7.941*, Z=-0.808*, Y=1.999*
  2: 0x00A5 [0x1F] MOVE_ENTITY: Update entity position (mode=1)
  3: 0x00A7 [0x6F] WAIT_FRAME_DELAY: Yield until WaitTime reaches zero
  4: 0x00A8 [0x79] EventEntity looks at Ailevia (ID: 17719422/0x010E607E) (Basic look)
  5: 0x00B2 [0x4A] Ailevia (ID: 17719422/0x010E607E) looks at EventEntity
  6: 0x00BB [0x6F] WAIT_FRAME_DELAY: Yield until WaitTime reaches zero
  7: 0x00BC [0x76] CHECK_ENTITY_RENDER_FLAGS: Wait until Ailevia (ID: 17719422/0x010E607E) Render.Flags0 and Render.Flags3 conditions are met
  8: 0x00C1 [0x5B] LOAD_EXT_SCHEDULER: Load scheduler "tlk0" with entities [Ailevia (ID: 17719422/0x010E607E), Ailevia (ID: 17719422/0x010E607E)], work=39*
  9: 0x00D0 [0x1C] WAIT(120* ticks)
 10: 0x00D3 [0x5B] LOAD_EXT_SCHEDULER: Load scheduler "tlk1" with entities [Ailevia (ID: 17719422/0x010E607E), Ailevia (ID: 17719422/0x010E607E)], work=39*
 11: 0x00E2 [0x7B] EventEntity stops talking
 12: 0x00E7 [0x1F] MOVE_ENTITY: EventEntity moves to X=-16.652*, Z=-10.275*, Y=1.999*
 13: 0x00EF [0x1F] MOVE_ENTITY: Update entity position (mode=1)
 14: 0x00F1 [0x6F] WAIT_FRAME_DELAY: Yield until WaitTime reaches zero
 15: 0x00F2 [0x00] END_REQSTACK()
```

### Event 65535.5

#### Metadata

| Field        | Value    |
|--------------|----------|
| Entrypoint   | 0x00F3   |
| Data Size    | 15 bytes |
| Instructions | 5        |

```
      00 01 02 03 04 05 06 07  08 09 0A 0B 0C 0D 0E 0F
      -- -- -- -- -- -- -- --  -- -- -- -- -- -- -- --
00F0:          32 03 80 1F 00  16 80 17 80 06 80 1F 01     2............
0100: 6F 00                                             o.              
```

#### Opcodes

```
  0: 0x00F3 [0x32] ExtData[1]->MainSpeed = 11* * 0.1
  1: 0x00F6 [0x1F] MOVE_ENTITY: EventEntity moves to X=-8.801*, Z=-23.474*, Y=1.999*
  2: 0x00FE [0x1F] MOVE_ENTITY: Update entity position (mode=1)
  3: 0x0100 [0x6F] WAIT_FRAME_DELAY: Yield until WaitTime reaches zero
  4: 0x0101 [0x00] END_REQSTACK()
```

### Event 65535.6

#### Metadata

| Field        | Value    |
|--------------|----------|
| Entrypoint   | 0x0102   |
| Data Size    | 10 bytes |
| Instructions | 2        |

```
      00 01 02 03 04 05 06 07  08 09 0A 0B 0C 0D 0E 0F
      -- -- -- -- -- -- -- --  -- -- -- -- -- -- -- --
0100:       6C F8 FF FF 7F 18  80 02 80 00                l.........    
```

#### Opcodes

```
  0: 0x0102 [0x6C] FADE_ENTITY_COLOR(entity_id=EventEntity, end_alpha=127*, fade_time=1*)
  1: 0x010B [0x00] END_REQSTACK()
```

### Event 65535.7

#### Metadata

| Field        | Value    |
|--------------|----------|
| Entrypoint   | 0x010C   |
| Data Size    | 15 bytes |
| Instructions | 5        |

```
      00 01 02 03 04 05 06 07  08 09 0A 0B 0C 0D 0E 0F
      -- -- -- -- -- -- -- --  -- -- -- -- -- -- -- --
0100:                                      32 19 80 1F              2...
0110: 00 1A 80 1B 80 06 80 1F  01 6F 00                 .........o.     
```

#### Opcodes

```
  0: 0x010C [0x32] ExtData[1]->MainSpeed = 40* * 0.1
  1: 0x010F [0x1F] MOVE_ENTITY: EventEntity moves to X=12.690*, Z=-12.419*, Y=1.999*
  2: 0x0117 [0x1F] MOVE_ENTITY: Update entity position (mode=1)
  3: 0x0119 [0x6F] WAIT_FRAME_DELAY: Yield until WaitTime reaches zero
  4: 0x011A [0x00] END_REQSTACK()
```

### Event 65535.8

#### Metadata

| Field        | Value    |
|--------------|----------|
| Entrypoint   | 0x011B   |
| Data Size    | 18 bytes |
| Instructions | 6        |

```
      00 01 02 03 04 05 06 07  08 09 0A 0B 0C 0D 0E 0F
      -- -- -- -- -- -- -- --  -- -- -- -- -- -- -- --
0110:                                   1C 0B 80 32 1C             ...2.
0120: 80 1F 00 1D 80 1E 80 06  80 1F 01 6F 00           ...........o.   
```

#### Opcodes

```
  0: 0x011B [0x1C] WAIT(30* ticks)
  1: 0x011E [0x32] ExtData[1]->MainSpeed = 37* * 0.1
  2: 0x0121 [0x1F] MOVE_ENTITY: EventEntity moves to X=11.780*, Z=-13.345*, Y=1.999*
  3: 0x0129 [0x1F] MOVE_ENTITY: Update entity position (mode=1)
  4: 0x012B [0x6F] WAIT_FRAME_DELAY: Yield until WaitTime reaches zero
  5: 0x012C [0x00] END_REQSTACK()
```
