# 17719520 - Rochefogne

## Common Data

| Field            | Value                         |
|------------------|-------------------------------|
| Zone             | Southern San d'Oria (ID: 230) |
| Block Size       | 920 bytes                     |
| Total Events     | 40                            |
| References Count | 47                            |

## List of Events

| Event ID                   | Entrypoint   |   Size |   Instructions |
|----------------------------|--------------|--------|----------------|
| [65535](#event-65535)      | 0x0000       |      1 |              1 |
| [0](#event-0)              | 0x0001       |     13 |              3 |
| [65535.1](#event-655351)   | 0x000E       |     12 |              4 |
| [65535.2](#event-655352)   | 0x001A       |     17 |              5 |
| [65535.3](#event-655353)   | 0x002B       |     16 |              6 |
| [65535.4](#event-655354)   | 0x003B       |     13 |              4 |
| [65535.5](#event-655355)   | 0x0048       |     16 |              2 |
| [65535.6](#event-655356)   | 0x0058       |     22 |              4 |
| [65535.7](#event-655357)   | 0x006E       |     16 |              2 |
| [65535.8](#event-655358)   | 0x007E       |     14 |              2 |
| [65535.9](#event-655359)   | 0x008C       |     16 |              2 |
| [65535.10](#event-6553510) | 0x009C       |     14 |              2 |
| [65535.11](#event-6553511) | 0x00AA       |     16 |              2 |
| [65535.12](#event-6553512) | 0x00BA       |     14 |              2 |
| [65535.13](#event-6553513) | 0x00C8       |     16 |              2 |
| [65535.14](#event-6553514) | 0x00D8       |     14 |              2 |
| [65535.15](#event-6553515) | 0x00E6       |     16 |              2 |
| [65535.16](#event-6553516) | 0x00F6       |     14 |              2 |
| [65535.17](#event-6553517) | 0x0104       |     16 |              2 |
| [65535.18](#event-6553518) | 0x0114       |     14 |              2 |
| [65535.19](#event-6553519) | 0x0122       |     16 |              2 |
| [65535.20](#event-6553520) | 0x0132       |     14 |              2 |
| [65535.21](#event-6553521) | 0x0140       |     16 |              2 |
| [65535.22](#event-6553522) | 0x0150       |     14 |              2 |
| [65535.23](#event-6553523) | 0x015E       |      9 |              3 |
| [1020](#event-1020)        | 0x0167       |      1 |              1 |
| [65535.24](#event-6553524) | 0x0168       |     10 |              2 |
| [65535.25](#event-6553525) | 0x0172       |     29 |              7 |
| [65535.26](#event-6553526) | 0x018F       |     11 |              3 |
| [65535.27](#event-6553527) | 0x019A       |     21 |              5 |
| [2020](#event-2020)        | 0x01AF       |      1 |              1 |
| [65535.28](#event-6553528) | 0x01B0       |     10 |              2 |
| [65535.29](#event-6553529) | 0x01BA       |     29 |              7 |
| [65535.30](#event-6553530) | 0x01D7       |     11 |              3 |
| [65535.31](#event-6553531) | 0x01E2       |     21 |              5 |
| [65535.32](#event-6553532) | 0x01F7       |      5 |              3 |
| [65535.33](#event-6553533) | 0x01FC       |     19 |              5 |
| [65535.34](#event-6553534) | 0x020F       |      5 |              3 |
| [65535.35](#event-6553535) | 0x0214       |     17 |              5 |
| [65535.36](#event-6553536) | 0x0225       |      5 |              3 |

## DAT References (imed_data)

|   Index | Hex Value   |   Dec Value |
|---------|-------------|-------------|
|       0 | 0x10A22     |       68130 |
|       1 | 0xFFFF9289  |  4294939273 |
|       2 | 0x07CF      |        1999 |
|       3 | 0x01FE      |         510 |
|       4 | 0x000D      |          13 |
|       5 | 0x130FD     |       78077 |
|       6 | 0xFFFF699C  |  4294928796 |
|       7 | 0x14F56     |       85846 |
|       8 | 0xFFFF60F0  |  4294926576 |
|       9 | 0x1762A     |       95786 |
|      10 | 0xFFFF554B  |  4294923595 |
|      11 | 0x03E7      |         999 |
|      12 | 0x0256      |         598 |
|      13 | 0x1B4C1     |      111809 |
|      14 | 0xFFFF1EDD  |  4294909661 |
|      15 | 0x0000      |           0 |
|      16 | 0x0014      |          20 |
|      17 | 0x001E      |          30 |
|      18 | 0x0015      |          21 |
|      19 | 0xFFFE56FE  |  4294858494 |
|      20 | 0xFFFF8934  |  4294936884 |
|      21 | 0x03E8      |        1000 |
|      22 | 0x059F      |        1439 |
|      23 | 0xFFFE5035  |  4294856757 |
|      24 | 0xFFFF7F84  |  4294934404 |
|      25 | 0xFFFE484C  |  4294854732 |
|      26 | 0xFFFF7866  |  4294932582 |
|      27 | 0xFFFE528D  |  4294857357 |
|      28 | 0xFFFF77CE  |  4294932430 |
|      29 | 0xFFFE6E2B  |  4294864427 |
|      30 | 0xFFFF5B80  |  4294925184 |
|      31 | 0x15178     |       86392 |
|      32 | 0xFFFF2F5F  |  4294913887 |
|      33 | 0x01D0      |         464 |
|      34 | 0x15A43     |       88643 |
|      35 | 0xFFFF2797  |  4294911895 |
|      36 | 0x16236     |       90678 |
|      37 | 0xFFFF2122  |  4294910242 |
|      38 | 0x1652C     |       91436 |
|      39 | 0xFFFF2E94  |  4294913684 |
|      40 | 0x17EF0     |       98032 |
|      41 | 0xFFFF41E6  |  4294918630 |
|      42 | 0x23EC      |        9196 |
|      43 | 0x23ED      |        9197 |
|      44 | 0x23EF      |        9199 |
|      45 | 0x23F4      |        9204 |
|      46 | 0x23F7      |        9207 |

## String References

- **9196**: Lord knight, forgive this interruption, but there is something I must ask of you.
- **9197**: I question whether Queen Leaute truly passed away fifteen years past. Tell me, of what cause did she die?
- **9199**: Please, I have traveled from afar to see Her Highness!
- **9204**: Er...
- **9207**: Is that so? Well, I thank you for your kindness, proud knight of San d'Oria.

## Events

### Event 65535

#### Metadata

| Field        | Value   |
|--------------|---------|
| Entrypoint   | 0x0000  |
| Data Size    | 1 bytes |
| Instructions | 1       |

```
      00 01 02 03 04 05 06 07  08 09 0A 0B 0C 0D 0E 0F
      -- -- -- -- -- -- -- --  -- -- -- -- -- -- -- --
0000: 00                                                .               
```

#### Opcodes

```
  0: 0x0000 [0x00] END_REQSTACK()
```

### Event 0

#### Metadata

| Field        | Value    |
|--------------|----------|
| Entrypoint   | 0x0001   |
| Data Size    | 13 bytes |
| Instructions | 3        |

```
      00 01 02 03 04 05 06 07  08 09 0A 0B 0C 0D 0E 0F
      -- -- -- -- -- -- -- --  -- -- -- -- -- -- -- --
0000:    37 00 80 01 80 02 80  03 80 32 04 80 00         7........2...  
```

#### Opcodes

```
  0: 0x0001 [0x37] UPDATE_EVENT_POSITION_AND_DIR: x=68.130*, z=-28.023*, y=1.999*, direction=44.8°*
  1: 0x000A [0x32] ExtData[1]->MainSpeed = 13* * 0.1
  2: 0x000D [0x00] END_REQSTACK()
```

### Event 65535.1

#### Metadata

| Field        | Value    |
|--------------|----------|
| Entrypoint   | 0x000E   |
| Data Size    | 12 bytes |
| Instructions | 4        |

```
      00 01 02 03 04 05 06 07  08 09 0A 0B 0C 0D 0E 0F
      -- -- -- -- -- -- -- --  -- -- -- -- -- -- -- --
0000:                                            1F 00                ..
0010: 05 80 06 80 02 80 1F 01  6F 00                    ........o.      
```

#### Opcodes

```
  0: 0x000E [0x1F] MOVE_ENTITY: EventEntity moves to X=78.077*, Z=-38.500*, Y=1.999*
  1: 0x0016 [0x1F] MOVE_ENTITY: Update entity position (mode=1)
  2: 0x0018 [0x6F] WAIT_FRAME_DELAY: Yield until WaitTime reaches zero
  3: 0x0019 [0x00] END_REQSTACK()
```

### Event 65535.2

#### Metadata

| Field        | Value    |
|--------------|----------|
| Entrypoint   | 0x001A   |
| Data Size    | 17 bytes |
| Instructions | 5        |

```
      00 01 02 03 04 05 06 07  08 09 0A 0B 0C 0D 0E 0F
      -- -- -- -- -- -- -- --  -- -- -- -- -- -- -- --
0010:                                1F 00 07 80 08 80            ......
0020: 02 80 1F 01 6F 1E F0 FF  FF 7F 00                 ....o......     
```

#### Opcodes

```
  0: 0x001A [0x1F] MOVE_ENTITY: EventEntity moves to X=85.846*, Z=-40.720*, Y=1.999*
  1: 0x0022 [0x1F] MOVE_ENTITY: Update entity position (mode=1)
  2: 0x0024 [0x6F] WAIT_FRAME_DELAY: Yield until WaitTime reaches zero
  3: 0x0025 [0x1E] EventEntity looks at LocalPlayer and starts talking
  4: 0x002A [0x00] END_REQSTACK()
```

### Event 65535.3

#### Metadata

| Field        | Value    |
|--------------|----------|
| Entrypoint   | 0x002B   |
| Data Size    | 16 bytes |
| Instructions | 6        |

```
      00 01 02 03 04 05 06 07  08 09 0A 0B 0C 0D 0E 0F
      -- -- -- -- -- -- -- --  -- -- -- -- -- -- -- --
0020:                                   1F 00 09 80 0A             .....
0030: 80 0B 80 1F 01 39 0C 80  6F 70 00                 .....9..op.     
```

#### Opcodes

```
  0: 0x002B [0x1F] MOVE_ENTITY: EventEntity moves to X=95.786*, Z=-43.701*, Y=0.999*
  1: 0x0033 [0x1F] MOVE_ENTITY: Update entity position (mode=1)
  2: 0x0035 [0x39] SET_ENTITY_DIRECTION(direction=3.3°*)
  3: 0x0038 [0x6F] WAIT_FRAME_DELAY: Yield until WaitTime reaches zero
  4: 0x0039 [0x70] WAIT_ENTITY_RENDER_FLAG: Wait while EventEntity->Render.Flags3 bit 2 is set (cancel turn if not)
  5: 0x003A [0x00] END_REQSTACK()
```

### Event 65535.4

#### Metadata

| Field        | Value    |
|--------------|----------|
| Entrypoint   | 0x003B   |
| Data Size    | 13 bytes |
| Instructions | 4        |

```
      00 01 02 03 04 05 06 07  08 09 0A 0B 0C 0D 0E 0F
      -- -- -- -- -- -- -- --  -- -- -- -- -- -- -- --
0030:                                   1F 00 0D 80 0E             .....
0040: 80 0F 80 1F 01 22 01 00                           ....."..        
```

#### Opcodes

```
  0: 0x003B [0x1F] MOVE_ENTITY: EventEntity moves to X=111.809*, Z=-57.635*, Y=0.000*
  1: 0x0043 [0x1F] MOVE_ENTITY: Update entity position (mode=1)
  2: 0x0045 [0x22] ENTITY_HIDE_FLAG(enabled=0x01)
  3: 0x0047 [0x00] END_REQSTACK()
```

### Event 65535.5

#### Metadata

| Field        | Value    |
|--------------|----------|
| Entrypoint   | 0x0048   |
| Data Size    | 16 bytes |
| Instructions | 2        |

```
      00 01 02 03 04 05 06 07  08 09 0A 0B 0C 0D 0E 0F
      -- -- -- -- -- -- -- --  -- -- -- -- -- -- -- --
0040:                          66 10 80 F8 FF FF 7F F8          f.......
0050: FF FF 7F 74 6C 6B 30 00                           ...tlk0.        
```

#### Opcodes

```
  0: 0x0048 [0x66] LOAD_EXT_SCHEDULER_MAIN: Load scheduler "tlk0" with entities [EventEntity, EventEntity], work=20*
  1: 0x0057 [0x00] END_REQSTACK()
```

### Event 65535.6

#### Metadata

| Field        | Value    |
|--------------|----------|
| Entrypoint   | 0x0058   |
| Data Size    | 22 bytes |
| Instructions | 4        |

```
      00 01 02 03 04 05 06 07  08 09 0A 0B 0C 0D 0E 0F
      -- -- -- -- -- -- -- --  -- -- -- -- -- -- -- --
0050:                          53 F8 FF FF 7F F8 FF FF          S.......
0060: 7F 74 6C 6B 30 5E 69 64  6C 30 1C 11 80 00        .tlk0^idl0....  
```

#### Opcodes

```
  0: 0x0058 [0x53] WAIT_SCHEDULER_TASK: Wait for scheduler "tlk0" with entities [EventEntity, EventEntity]
  1: 0x0065 [0x5E] EventEntity goes idle (kills current action) (animation: "idl0")
  2: 0x006A [0x1C] WAIT(30* ticks)
  3: 0x006D [0x00] END_REQSTACK()
```

### Event 65535.7

#### Metadata

| Field        | Value    |
|--------------|----------|
| Entrypoint   | 0x006E   |
| Data Size    | 16 bytes |
| Instructions | 2        |

```
      00 01 02 03 04 05 06 07  08 09 0A 0B 0C 0D 0E 0F
      -- -- -- -- -- -- -- --  -- -- -- -- -- -- -- --
0060:                                            66 10                f.
0070: 80 F8 FF FF 7F F8 FF FF  7F 74 68 6B 31 00        .........thk1.  
```

#### Opcodes

```
  0: 0x006E [0x66] LOAD_EXT_SCHEDULER_MAIN: Load scheduler "thk1" with entities [EventEntity, EventEntity], work=20*
  1: 0x007D [0x00] END_REQSTACK()
```

### Event 65535.8

#### Metadata

| Field        | Value    |
|--------------|----------|
| Entrypoint   | 0x007E   |
| Data Size    | 14 bytes |
| Instructions | 2        |

```
      00 01 02 03 04 05 06 07  08 09 0A 0B 0C 0D 0E 0F
      -- -- -- -- -- -- -- --  -- -- -- -- -- -- -- --
0070:                                            53 F8                S.
0080: FF FF 7F F8 FF FF 7F 74  68 6B 31 00              .......thk1.    
```

#### Opcodes

```
  0: 0x007E [0x53] WAIT_SCHEDULER_TASK: Wait for scheduler "thk1" with entities [EventEntity, EventEntity]
  1: 0x008B [0x00] END_REQSTACK()
```

### Event 65535.9

#### Metadata

| Field        | Value    |
|--------------|----------|
| Entrypoint   | 0x008C   |
| Data Size    | 16 bytes |
| Instructions | 2        |

```
      00 01 02 03 04 05 06 07  08 09 0A 0B 0C 0D 0E 0F
      -- -- -- -- -- -- -- --  -- -- -- -- -- -- -- --
0080:                                      66 10 80 F8              f...
0090: FF FF 7F F8 FF FF 7F 74  68 6B 32 00              .......thk2.    
```

#### Opcodes

```
  0: 0x008C [0x66] LOAD_EXT_SCHEDULER_MAIN: Load scheduler "thk2" with entities [EventEntity, EventEntity], work=20*
  1: 0x009B [0x00] END_REQSTACK()
```

### Event 65535.10

#### Metadata

| Field        | Value    |
|--------------|----------|
| Entrypoint   | 0x009C   |
| Data Size    | 14 bytes |
| Instructions | 2        |

```
      00 01 02 03 04 05 06 07  08 09 0A 0B 0C 0D 0E 0F
      -- -- -- -- -- -- -- --  -- -- -- -- -- -- -- --
0090:                                      53 F8 FF FF              S...
00A0: 7F F8 FF FF 7F 74 68 6B  32 00                    .....thk2.      
```

#### Opcodes

```
  0: 0x009C [0x53] WAIT_SCHEDULER_TASK: Wait for scheduler "thk2" with entities [EventEntity, EventEntity]
  1: 0x00A9 [0x00] END_REQSTACK()
```

### Event 65535.11

#### Metadata

| Field        | Value    |
|--------------|----------|
| Entrypoint   | 0x00AA   |
| Data Size    | 16 bytes |
| Instructions | 2        |

```
      00 01 02 03 04 05 06 07  08 09 0A 0B 0C 0D 0E 0F
      -- -- -- -- -- -- -- --  -- -- -- -- -- -- -- --
00A0:                                66 10 80 F8 FF FF            f.....
00B0: 7F F8 FF FF 7F 70 61 73  30 00                    .....pas0.      
```

#### Opcodes

```
  0: 0x00AA [0x66] LOAD_EXT_SCHEDULER_MAIN: Load scheduler "pas0" with entities [EventEntity, EventEntity], work=20*
  1: 0x00B9 [0x00] END_REQSTACK()
```

### Event 65535.12

#### Metadata

| Field        | Value    |
|--------------|----------|
| Entrypoint   | 0x00BA   |
| Data Size    | 14 bytes |
| Instructions | 2        |

```
      00 01 02 03 04 05 06 07  08 09 0A 0B 0C 0D 0E 0F
      -- -- -- -- -- -- -- --  -- -- -- -- -- -- -- --
00B0:                                53 F8 FF FF 7F F8            S.....
00C0: FF FF 7F 70 61 73 30 00                           ...pas0.        
```

#### Opcodes

```
  0: 0x00BA [0x53] WAIT_SCHEDULER_TASK: Wait for scheduler "pas0" with entities [EventEntity, EventEntity]
  1: 0x00C7 [0x00] END_REQSTACK()
```

### Event 65535.13

#### Metadata

| Field        | Value    |
|--------------|----------|
| Entrypoint   | 0x00C8   |
| Data Size    | 16 bytes |
| Instructions | 2        |

```
      00 01 02 03 04 05 06 07  08 09 0A 0B 0C 0D 0E 0F
      -- -- -- -- -- -- -- --  -- -- -- -- -- -- -- --
00C0:                          66 10 80 F8 FF FF 7F F8          f.......
00D0: FF FF 7F 70 6F 69 31 00                           ...poi1.        
```

#### Opcodes

```
  0: 0x00C8 [0x66] LOAD_EXT_SCHEDULER_MAIN: Load scheduler "poi1" with entities [EventEntity, EventEntity], work=20*
  1: 0x00D7 [0x00] END_REQSTACK()
```

### Event 65535.14

#### Metadata

| Field        | Value    |
|--------------|----------|
| Entrypoint   | 0x00D8   |
| Data Size    | 14 bytes |
| Instructions | 2        |

```
      00 01 02 03 04 05 06 07  08 09 0A 0B 0C 0D 0E 0F
      -- -- -- -- -- -- -- --  -- -- -- -- -- -- -- --
00D0:                          53 F8 FF FF 7F F8 FF FF          S.......
00E0: 7F 70 6F 69 31 00                                 .poi1.          
```

#### Opcodes

```
  0: 0x00D8 [0x53] WAIT_SCHEDULER_TASK: Wait for scheduler "poi1" with entities [EventEntity, EventEntity]
  1: 0x00E5 [0x00] END_REQSTACK()
```

### Event 65535.15

#### Metadata

| Field        | Value    |
|--------------|----------|
| Entrypoint   | 0x00E6   |
| Data Size    | 16 bytes |
| Instructions | 2        |

```
      00 01 02 03 04 05 06 07  08 09 0A 0B 0C 0D 0E 0F
      -- -- -- -- -- -- -- --  -- -- -- -- -- -- -- --
00E0:                   66 10  80 F8 FF FF 7F F8 FF FF        f.........
00F0: 7F 70 6F 69 32 00                                 .poi2.          
```

#### Opcodes

```
  0: 0x00E6 [0x66] LOAD_EXT_SCHEDULER_MAIN: Load scheduler "poi2" with entities [EventEntity, EventEntity], work=20*
  1: 0x00F5 [0x00] END_REQSTACK()
```

### Event 65535.16

#### Metadata

| Field        | Value    |
|--------------|----------|
| Entrypoint   | 0x00F6   |
| Data Size    | 14 bytes |
| Instructions | 2        |

```
      00 01 02 03 04 05 06 07  08 09 0A 0B 0C 0D 0E 0F
      -- -- -- -- -- -- -- --  -- -- -- -- -- -- -- --
00F0:                   53 F8  FF FF 7F F8 FF FF 7F 70        S........p
0100: 6F 69 32 00                                       oi2.            
```

#### Opcodes

```
  0: 0x00F6 [0x53] WAIT_SCHEDULER_TASK: Wait for scheduler "poi2" with entities [EventEntity, EventEntity]
  1: 0x0103 [0x00] END_REQSTACK()
```

### Event 65535.17

#### Metadata

| Field        | Value    |
|--------------|----------|
| Entrypoint   | 0x0104   |
| Data Size    | 16 bytes |
| Instructions | 2        |

```
      00 01 02 03 04 05 06 07  08 09 0A 0B 0C 0D 0E 0F
      -- -- -- -- -- -- -- --  -- -- -- -- -- -- -- --
0100:             66 12 80 F8  FF FF 7F F8 FF FF 7F 70      f..........p
0110: 6F 69 30 00                                       oi0.            
```

#### Opcodes

```
  0: 0x0104 [0x66] LOAD_EXT_SCHEDULER_MAIN: Load scheduler "poi0" with entities [EventEntity, EventEntity], work=21*
  1: 0x0113 [0x00] END_REQSTACK()
```

### Event 65535.18

#### Metadata

| Field        | Value    |
|--------------|----------|
| Entrypoint   | 0x0114   |
| Data Size    | 14 bytes |
| Instructions | 2        |

```
      00 01 02 03 04 05 06 07  08 09 0A 0B 0C 0D 0E 0F
      -- -- -- -- -- -- -- --  -- -- -- -- -- -- -- --
0110:             53 F8 FF FF  7F F8 FF FF 7F 70 6F 69      S........poi
0120: 30 00                                             0.              
```

#### Opcodes

```
  0: 0x0114 [0x53] WAIT_SCHEDULER_TASK: Wait for scheduler "poi0" with entities [EventEntity, EventEntity]
  1: 0x0121 [0x00] END_REQSTACK()
```

### Event 65535.19

#### Metadata

| Field        | Value    |
|--------------|----------|
| Entrypoint   | 0x0122   |
| Data Size    | 16 bytes |
| Instructions | 2        |

```
      00 01 02 03 04 05 06 07  08 09 0A 0B 0C 0D 0E 0F
      -- -- -- -- -- -- -- --  -- -- -- -- -- -- -- --
0120:       66 12 80 F8 FF FF  7F F8 FF FF 7F 70 6F 69    f..........poi
0130: 31 00                                             1.              
```

#### Opcodes

```
  0: 0x0122 [0x66] LOAD_EXT_SCHEDULER_MAIN: Load scheduler "poi1" with entities [EventEntity, EventEntity], work=21*
  1: 0x0131 [0x00] END_REQSTACK()
```

### Event 65535.20

#### Metadata

| Field        | Value    |
|--------------|----------|
| Entrypoint   | 0x0132   |
| Data Size    | 14 bytes |
| Instructions | 2        |

```
      00 01 02 03 04 05 06 07  08 09 0A 0B 0C 0D 0E 0F
      -- -- -- -- -- -- -- --  -- -- -- -- -- -- -- --
0130:       53 F8 FF FF 7F F8  FF FF 7F 70 6F 69 31 00    S........poi1.
```

#### Opcodes

```
  0: 0x0132 [0x53] WAIT_SCHEDULER_TASK: Wait for scheduler "poi1" with entities [EventEntity, EventEntity]
  1: 0x013F [0x00] END_REQSTACK()
```

### Event 65535.21

#### Metadata

| Field        | Value    |
|--------------|----------|
| Entrypoint   | 0x0140   |
| Data Size    | 16 bytes |
| Instructions | 2        |

```
      00 01 02 03 04 05 06 07  08 09 0A 0B 0C 0D 0E 0F
      -- -- -- -- -- -- -- --  -- -- -- -- -- -- -- --
0140: 66 12 80 F8 FF FF 7F F8  FF FF 7F 64 69 73 30 00  f..........dis0.
```

#### Opcodes

```
  0: 0x0140 [0x66] LOAD_EXT_SCHEDULER_MAIN: Load scheduler "dis0" with entities [EventEntity, EventEntity], work=21*
  1: 0x014F [0x00] END_REQSTACK()
```

### Event 65535.22

#### Metadata

| Field        | Value    |
|--------------|----------|
| Entrypoint   | 0x0150   |
| Data Size    | 14 bytes |
| Instructions | 2        |

```
      00 01 02 03 04 05 06 07  08 09 0A 0B 0C 0D 0E 0F
      -- -- -- -- -- -- -- --  -- -- -- -- -- -- -- --
0150: 53 F8 FF FF 7F F8 FF FF  7F 64 69 73 30 00        S........dis0.  
```

#### Opcodes

```
  0: 0x0150 [0x53] WAIT_SCHEDULER_TASK: Wait for scheduler "dis0" with entities [EventEntity, EventEntity]
  1: 0x015D [0x00] END_REQSTACK()
```

### Event 65535.23

#### Metadata

| Field        | Value   |
|--------------|---------|
| Entrypoint   | 0x015E  |
| Data Size    | 9 bytes |
| Instructions | 3       |

```
      00 01 02 03 04 05 06 07  08 09 0A 0B 0C 0D 0E 0F
      -- -- -- -- -- -- -- --  -- -- -- -- -- -- -- --
0150:                                            5E 69                ^i
0160: 64 6C 30 1C 11 80 00                              dl0....         
```

#### Opcodes

```
  0: 0x015E [0x5E] EventEntity goes idle (kills current action) (animation: "idl0")
  1: 0x0163 [0x1C] WAIT(30* ticks)
  2: 0x0166 [0x00] END_REQSTACK()
```

### Event 1020

#### Metadata

| Field        | Value   |
|--------------|---------|
| Entrypoint   | 0x0167  |
| Data Size    | 1 bytes |
| Instructions | 1       |

```
      00 01 02 03 04 05 06 07  08 09 0A 0B 0C 0D 0E 0F
      -- -- -- -- -- -- -- --  -- -- -- -- -- -- -- --
0160:                      00                                  .        
```

#### Opcodes

```
  0: 0x0167 [0x00] END_REQSTACK()
```

### Event 65535.24

#### Metadata

| Field        | Value    |
|--------------|----------|
| Entrypoint   | 0x0168   |
| Data Size    | 10 bytes |
| Instructions | 2        |

```
      00 01 02 03 04 05 06 07  08 09 0A 0B 0C 0D 0E 0F
      -- -- -- -- -- -- -- --  -- -- -- -- -- -- -- --
0160:                          37 13 80 14 80 15 80 16          7.......
0170: 80 00                                             ..              
```

#### Opcodes

```
  0: 0x0168 [0x37] UPDATE_EVENT_POSITION_AND_DIR: x=-108.802*, z=-30.412*, y=1.000*, direction=126.5°*
  1: 0x0171 [0x00] END_REQSTACK()
```

### Event 65535.25

#### Metadata

| Field        | Value    |
|--------------|----------|
| Entrypoint   | 0x0172   |
| Data Size    | 29 bytes |
| Instructions | 7        |

```
      00 01 02 03 04 05 06 07  08 09 0A 0B 0C 0D 0E 0F
      -- -- -- -- -- -- -- --  -- -- -- -- -- -- -- --
0170:       32 04 80 1F 00 17  80 18 80 0B 80 1F 01 4A    2............J
0180: E0 60 0E 01 61 60 0E 01  6F 76 E0 60 0E 01 00     .`..a`..ov.`... 
```

#### Opcodes

```
  0: 0x0172 [0x32] ExtData[1]->MainSpeed = 13* * 0.1
  1: 0x0175 [0x1F] MOVE_ENTITY: EventEntity moves to X=-110.539*, Z=-32.892*, Y=0.999*
  2: 0x017D [0x1F] MOVE_ENTITY: Update entity position (mode=1)
  3: 0x017F [0x4A] Rochefogne (ID: 17719520/0x010E60E0) looks at Endracion (ID: 17719393/0x010E6061)
  4: 0x0188 [0x6F] WAIT_FRAME_DELAY: Yield until WaitTime reaches zero
  5: 0x0189 [0x76] CHECK_ENTITY_RENDER_FLAGS: Wait until Rochefogne (ID: 17719520/0x010E60E0) Render.Flags0 and Render.Flags3 conditions are met
  6: 0x018E [0x00] END_REQSTACK()
```

### Event 65535.26

#### Metadata

| Field        | Value    |
|--------------|----------|
| Entrypoint   | 0x018F   |
| Data Size    | 11 bytes |
| Instructions | 3        |

```
      00 01 02 03 04 05 06 07  08 09 0A 0B 0C 0D 0E 0F
      -- -- -- -- -- -- -- --  -- -- -- -- -- -- -- --
0180:                                               1F                 .
0190: 00 19 80 1A 80 15 80 1F  01 00                    ..........      
```

#### Opcodes

```
  0: 0x018F [0x1F] MOVE_ENTITY: EventEntity moves to X=-112.564*, Z=-34.714*, Y=1.000*
  1: 0x0197 [0x1F] MOVE_ENTITY: Update entity position (mode=1)
  2: 0x0199 [0x00] END_REQSTACK()
```

### Event 65535.27

#### Metadata

| Field        | Value    |
|--------------|----------|
| Entrypoint   | 0x019A   |
| Data Size    | 21 bytes |
| Instructions | 5        |

```
      00 01 02 03 04 05 06 07  08 09 0A 0B 0C 0D 0E 0F
      -- -- -- -- -- -- -- --  -- -- -- -- -- -- -- --
0190:                                1F 00 1B 80 1C 80            ......
01A0: 0B 80 1F 01 1F 00 1D 80  1E 80 0B 80 1F 01 00     ............... 
```

#### Opcodes

```
  0: 0x019A [0x1F] MOVE_ENTITY: EventEntity moves to X=-109.939*, Z=-34.866*, Y=0.999*
  1: 0x01A2 [0x1F] MOVE_ENTITY: Update entity position (mode=1)
  2: 0x01A4 [0x1F] MOVE_ENTITY: EventEntity moves to X=-102.869*, Z=-42.112*, Y=0.999*
  3: 0x01AC [0x1F] MOVE_ENTITY: Update entity position (mode=1)
  4: 0x01AE [0x00] END_REQSTACK()
```

### Event 2020

#### Metadata

| Field        | Value   |
|--------------|---------|
| Entrypoint   | 0x01AF  |
| Data Size    | 1 bytes |
| Instructions | 1       |

```
      00 01 02 03 04 05 06 07  08 09 0A 0B 0C 0D 0E 0F
      -- -- -- -- -- -- -- --  -- -- -- -- -- -- -- --
01A0:                                               00                 .
```

#### Opcodes

```
  0: 0x01AF [0x00] END_REQSTACK()
```

### Event 65535.28

#### Metadata

| Field        | Value    |
|--------------|----------|
| Entrypoint   | 0x01B0   |
| Data Size    | 10 bytes |
| Instructions | 2        |

```
      00 01 02 03 04 05 06 07  08 09 0A 0B 0C 0D 0E 0F
      -- -- -- -- -- -- -- --  -- -- -- -- -- -- -- --
01B0: 37 1F 80 20 80 15 80 21  80 00                    7.. ...!..      
```

#### Opcodes

```
  0: 0x01B0 [0x37] UPDATE_EVENT_POSITION_AND_DIR: x=86.392*, z=-53.409*, y=1.000*, direction=40.8°*
  1: 0x01B9 [0x00] END_REQSTACK()
```

### Event 65535.29

#### Metadata

| Field        | Value    |
|--------------|----------|
| Entrypoint   | 0x01BA   |
| Data Size    | 29 bytes |
| Instructions | 7        |

```
      00 01 02 03 04 05 06 07  08 09 0A 0B 0C 0D 0E 0F
      -- -- -- -- -- -- -- --  -- -- -- -- -- -- -- --
01B0:                                32 04 80 1F 00 22            2...."
01C0: 80 23 80 15 80 1F 01 4A  E0 60 0E 01 62 60 0E 01  .#.....J.`..b`..
01D0: 6F 76 E0 60 0E 01 00                              ov.`...         
```

#### Opcodes

```
  0: 0x01BA [0x32] ExtData[1]->MainSpeed = 13* * 0.1
  1: 0x01BD [0x1F] MOVE_ENTITY: EventEntity moves to X=88.643*, Z=-55.401*, Y=1.000*
  2: 0x01C5 [0x1F] MOVE_ENTITY: Update entity position (mode=1)
  3: 0x01C7 [0x4A] Rochefogne (ID: 17719520/0x010E60E0) looks at Ambrotien (ID: 17719394/0x010E6062)
  4: 0x01D0 [0x6F] WAIT_FRAME_DELAY: Yield until WaitTime reaches zero
  5: 0x01D1 [0x76] CHECK_ENTITY_RENDER_FLAGS: Wait until Rochefogne (ID: 17719520/0x010E60E0) Render.Flags0 and Render.Flags3 conditions are met
  6: 0x01D6 [0x00] END_REQSTACK()
```

### Event 65535.30

#### Metadata

| Field        | Value    |
|--------------|----------|
| Entrypoint   | 0x01D7   |
| Data Size    | 11 bytes |
| Instructions | 3        |

```
      00 01 02 03 04 05 06 07  08 09 0A 0B 0C 0D 0E 0F
      -- -- -- -- -- -- -- --  -- -- -- -- -- -- -- --
01D0:                      1F  00 24 80 25 80 0B 80 1F         ..$.%....
01E0: 01 00                                             ..              
```

#### Opcodes

```
  0: 0x01D7 [0x1F] MOVE_ENTITY: EventEntity moves to X=90.678*, Z=-57.054*, Y=0.999*
  1: 0x01DF [0x1F] MOVE_ENTITY: Update entity position (mode=1)
  2: 0x01E1 [0x00] END_REQSTACK()
```

### Event 65535.31

#### Metadata

| Field        | Value    |
|--------------|----------|
| Entrypoint   | 0x01E2   |
| Data Size    | 21 bytes |
| Instructions | 5        |

```
      00 01 02 03 04 05 06 07  08 09 0A 0B 0C 0D 0E 0F
      -- -- -- -- -- -- -- --  -- -- -- -- -- -- -- --
01E0:       1F 00 26 80 27 80  15 80 1F 01 1F 00 28 80    ..&.'.......(.
01F0: 29 80 15 80 1F 01 00                              )......         
```

#### Opcodes

```
  0: 0x01E2 [0x1F] MOVE_ENTITY: EventEntity moves to X=91.436*, Z=-53.612*, Y=1.000*
  1: 0x01EA [0x1F] MOVE_ENTITY: Update entity position (mode=1)
  2: 0x01EC [0x1F] MOVE_ENTITY: EventEntity moves to X=98.032*, Z=-48.666*, Y=1.000*
  3: 0x01F4 [0x1F] MOVE_ENTITY: Update entity position (mode=1)
  4: 0x01F6 [0x00] END_REQSTACK()
```

### Event 65535.32

#### Metadata

| Field        | Value   |
|--------------|---------|
| Entrypoint   | 0x01F7  |
| Data Size    | 5 bytes |
| Instructions | 3       |

```
      00 01 02 03 04 05 06 07  08 09 0A 0B 0C 0D 0E 0F
      -- -- -- -- -- -- -- --  -- -- -- -- -- -- -- --
01F0:                      1D  2A 80 23 00                     .*.#.    
```

#### Opcodes

```
  0: 0x01F7 [0x1D] PRINT_EVENT_MESSAGE(message_id=9196*)
    → "Lord knight, forgive this interruption, but there is something I must ask of you."
  1: 0x01FA [0x23] WAIT_FOR_DIALOG_INTERACTION
  2: 0x01FB [0x00] END_REQSTACK()
```

### Event 65535.33

#### Metadata

| Field        | Value    |
|--------------|----------|
| Entrypoint   | 0x01FC   |
| Data Size    | 19 bytes |
| Instructions | 5        |

```
      00 01 02 03 04 05 06 07  08 09 0A 0B 0C 0D 0E 0F
      -- -- -- -- -- -- -- --  -- -- -- -- -- -- -- --
01F0:                                      29 08 E0 60              )..`
0200: 0E 01 16 1D 2B 80 23 29  08 E0 60 0E 01 17 00     ....+.#)..`.... 
```

#### Opcodes

```
  0: 0x01FC [0x29] REQ_SET_WAIT(priority=0x08, entity_id=Rochefogne (ID: 17719520/0x010E60E0), tag_num=0x16)
  1: 0x0203 [0x1D] PRINT_EVENT_MESSAGE(message_id=9197*)
    → "I question whether Queen Leaute truly passed away fifteen years past. Tell me, of what cause did she die?"
  2: 0x0206 [0x23] WAIT_FOR_DIALOG_INTERACTION
  3: 0x0207 [0x29] REQ_SET_WAIT(priority=0x08, entity_id=Rochefogne (ID: 17719520/0x010E60E0), tag_num=0x17)
  4: 0x020E [0x00] END_REQSTACK()
```

### Event 65535.34

#### Metadata

| Field        | Value   |
|--------------|---------|
| Entrypoint   | 0x020F  |
| Data Size    | 5 bytes |
| Instructions | 3       |

```
      00 01 02 03 04 05 06 07  08 09 0A 0B 0C 0D 0E 0F
      -- -- -- -- -- -- -- --  -- -- -- -- -- -- -- --
0200:                                               1D                 .
0210: 2C 80 23 00                                       ,.#.            
```

#### Opcodes

```
  0: 0x020F [0x1D] PRINT_EVENT_MESSAGE(message_id=9199*)
    → "Please, I have traveled from afar to see Her Highness!"
  1: 0x0212 [0x23] WAIT_FOR_DIALOG_INTERACTION
  2: 0x0213 [0x00] END_REQSTACK()
```

### Event 65535.35

#### Metadata

| Field        | Value    |
|--------------|----------|
| Entrypoint   | 0x0214   |
| Data Size    | 17 bytes |
| Instructions | 5        |

```
      00 01 02 03 04 05 06 07  08 09 0A 0B 0C 0D 0E 0F
      -- -- -- -- -- -- -- --  -- -- -- -- -- -- -- --
0210:             7C 00 F8 FF  FF 7F 1D 2D 80 23 7C 01      |......-.#|.
0220: F8 FF FF 7F 00                                    .....           
```

#### Opcodes

```
  0: 0x0214 [0x7C] EventEntity->Render.Flags2 |= 0x00
  1: 0x021A [0x1D] PRINT_EVENT_MESSAGE(message_id=9204*)
    → "Er..."
  2: 0x021D [0x23] WAIT_FOR_DIALOG_INTERACTION
  3: 0x021E [0x7C] EventEntity->Render.Flags2 |= 0x01
  4: 0x0224 [0x00] END_REQSTACK()
```

### Event 65535.36

#### Metadata

| Field        | Value   |
|--------------|---------|
| Entrypoint   | 0x0225  |
| Data Size    | 5 bytes |
| Instructions | 3       |

```
      00 01 02 03 04 05 06 07  08 09 0A 0B 0C 0D 0E 0F
      -- -- -- -- -- -- -- --  -- -- -- -- -- -- -- --
0220:                1D 2E 80  23 00                         ...#.      
```

#### Opcodes

```
  0: 0x0225 [0x1D] PRINT_EVENT_MESSAGE(message_id=9207*)
    → "Is that so? Well, I thank you for your kindness, proud knight of San d'Oria."
  1: 0x0228 [0x23] WAIT_FOR_DIALOG_INTERACTION
  2: 0x0229 [0x00] END_REQSTACK()
```
