# 17719359 - Balasiel

## Common Data

| Field            | Value                         |
|------------------|-------------------------------|
| Zone             | Southern San d'Oria (ID: 230) |
| Block Size       | 2996 bytes                    |
| Total Events     | 33                            |
| References Count | 75                            |

## List of Events

| Event ID                   | Entrypoint   |   Size |   Instructions |
|----------------------------|--------------|--------|----------------|
| [65535](#event-65535)      | 0x0000       |      1 |              1 |
| [32690](#event-32690)      | 0x0001       |     12 |              6 |
| [10](#event-10)            | 0x000D       |     20 |              9 |
| [8](#event-8)              | 0x0021       |      1 |              1 |
| [65535.1](#event-655351)   | 0x0022       |     44 |             10 |
| [11](#event-11)            | 0x004E       |    323 |             53 |
| [9](#event-9)              | 0x0191       |      1 |              1 |
| [12](#event-12)            | 0x0192       |     38 |             11 |
| [65535.2](#event-655352)   | 0x01B8       |     15 |              5 |
| [13](#event-13)            | 0x01C7       |      1 |              1 |
| [667](#event-667)          | 0x01C8       |     36 |             10 |
| [668](#event-668)          | 0x01EC       |     36 |             10 |
| [669](#event-669)          | 0x0210       |     36 |             10 |
| [670](#event-670)          | 0x0234       |     36 |             10 |
| [671](#event-671)          | 0x0258       |     36 |             10 |
| [65535.3](#event-655353)   | 0x027C       |     36 |             10 |
| [616](#event-616)          | 0x02A0       |    244 |             44 |
| [631](#event-631)          | 0x0394       |    139 |             31 |
| [617](#event-617)          | 0x041F       |    180 |             28 |
| [625](#event-625)          | 0x04D3       |    182 |             34 |
| [630](#event-630)          | 0x0589       |     67 |             14 |
| [626](#event-626)          | 0x05CC       |    164 |             26 |
| [627](#event-627)          | 0x0670       |    409 |             65 |
| [635](#event-635)          | 0x0809       |    214 |             38 |
| [628](#event-628)          | 0x08DF       |    117 |             19 |
| [63](#event-63)            | 0x0954       |      1 |              1 |
| [65535.4](#event-655354)   | 0x0955       |     10 |              2 |
| [65535.5](#event-655355)   | 0x095F       |     20 |              3 |
| [65535.6](#event-655356)   | 0x0973       |     19 |              3 |
| [65535.7](#event-655357)   | 0x0986       |     29 |              3 |
| [65535.8](#event-655358)   | 0x09A3       |     19 |              3 |
| [65535.9](#event-655359)   | 0x09B6       |     32 |              4 |
| [65535.10](#event-6553510) | 0x09D6       |     29 |              3 |

## DAT References (imed_data)

|   Index | Hex Value   |   Dec Value |
|---------|-------------|-------------|
|       0 | 0x35E3      |       13795 |
|       1 | 0x2478      |        9336 |
|       2 | 0x000D      |          13 |
|       3 | 0xFFFDE4CF  |  4294829263 |
|       4 | 0xFBC7      |       64455 |
|       5 | 0xFFFFD5D0  |  4294956496 |
|       6 | 0x0591      |        1425 |
|       7 | 0x001E      |          30 |
|       8 | 0x246E      |        9326 |
|       9 | 0x0001      |           1 |
|      10 | 0x0000      |           0 |
|      11 | 0x41FC      |       16892 |
|      12 | 0x246F      |        9327 |
|      13 | 0x0002      |           2 |
|      14 | 0x2470      |        9328 |
|      15 | 0x2471      |        9329 |
|      16 | 0x2472      |        9330 |
|      17 | 0x2473      |        9331 |
|      18 | 0x2476      |        9334 |
|      19 | 0x2477      |        9335 |
|      20 | 0x2474      |        9332 |
|      21 | 0x2475      |        9333 |
|      22 | 0x0158      |         344 |
|      23 | 0x0159      |         345 |
|      24 | 0x247E      |        9342 |
|      25 | 0xFFFDE79B  |  4294829979 |
|      26 | 0xFCD7      |       64727 |
|      27 | 0x1F70      |        8048 |
|      28 | 0x1ECC      |        7884 |
|      29 | 0x1F65      |        8037 |
|      30 | 0x1F14      |        7956 |
|      31 | 0x1ED6      |        7894 |
|      32 | 0x0003      |           3 |
|      33 | 0x0082      |         130 |
|      34 | 0x00C8      |         200 |
|      35 | 0x1ECD      |        7885 |
|      36 | 0x003C      |          60 |
|      37 | 0x1ECE      |        7886 |
|      38 | 0x1ECF      |        7887 |
|      39 | 0x1ED0      |        7888 |
|      40 | 0x1ED2      |        7890 |
|      41 | 0x03AC      |         940 |
|      42 | 0x1ED3      |        7891 |
|      43 | 0x1ED1      |        7889 |
|      44 | 0x1ED4      |        7892 |
|      45 | 0x1ED5      |        7893 |
|      46 | 0x00C9      |         201 |
|      47 | 0x1F06      |        7942 |
|      48 | 0x1F07      |        7943 |
|      49 | 0x1F08      |        7944 |
|      50 | 0x1F09      |        7945 |
|      51 | 0x1F0A      |        7946 |
|      52 | 0x1F0B      |        7947 |
|      53 | 0x1F0C      |        7948 |
|      54 | 0x1F12      |        7954 |
|      55 | 0x1F13      |        7955 |
|      56 | 0x012C      |         300 |
|      57 | 0x1F5C      |        8028 |
|      58 | 0x1F5D      |        8029 |
|      59 | 0x1F5E      |        8030 |
|      60 | 0x1F64      |        8036 |
|      61 | 0x1F5F      |        8031 |
|      62 | 0x1F60      |        8032 |
|      63 | 0x1F61      |        8033 |
|      64 | 0x1F62      |        8034 |
|      65 | 0x1F63      |        8035 |
|      66 | 0x1F6D      |        8045 |
|      67 | 0x1F6E      |        8046 |
|      68 | 0xFFFEB7ED  |  4294883309 |
|      69 | 0xFFFFBD01  |  4294950145 |
|      70 | 0xFFFFE31A  |  4294959898 |
|      71 | 0x0213      |         531 |
|      72 | 0xFFFDE3A4  |  4294828964 |
|      73 | 0x100E0     |       65760 |
|      74 | 0x0214      |         532 |

## String References

- **7884**: Take up a sword, my friend. I'll talk to you when you do, and no sooner.
- **7885**: Friend, listen to me. It is not cogs nor levers nor even the mightiest of magicks that protect this kingdom of San d'Oria.
- **7886**: No! We Elvaan live by the power of the sword alone. Our blades defend our borders.
- **7887**: If you would strengthen your sword arm and learn something of the art, then accept my challenge. What say you?
- **7888**: Accept his challenge? [Accept./Refuse.]
- **7889**: As you wish. Come back when you've grown a spine.
- **7890**: Ah, I see you have a stout heart. Now listen well!
- **7891**: Go to King Ranperre's Tomb and bring back $0. How, you ask? Use your head. Now begone!
- **7892**: Ah, I see I was right about you. You've proved your mettle today. Further tempering may forge you into a hero among adventurers.
- **7893**: In recognition of your success, I offer this sword. Train diligently, and grow strong.
- **7894**: You're a little too new at this to undertake my challenge. Train further, and return here once you feel ready.
- **7942**: Ah, you've come quite a way since last we met, I see. I believe you're ready for another task!
- **7943**: I'd like you to go to Ordelle's Caves. You'll find the entrance in a valley on La Theine Plateau.
- **7944**: Those caves are also called the "Body Caves." Know you why?
- **7945**: It is because the caves are shaped much like the body of a person. You are acquainted with its structure, yes?
- **7946**: Where in a body would lie the belly, in the caves flows a waterfall of much beauty. I want you to visit the waterfall, and return hither.
- **7947**: I want proof of your trip, however. Bring me something out from that place. You must choose something.
- **7948**: Come to think of it, the time I sent another to the waterfall, he, too, had quite a hard time! Heh-heh.
- **7954**: Ah, you're back, and in one piece! And you've brought proof of your trip to the waterfall. Well done!
- **7955**: Here, a certificate to mark your accomplishment. Keep it always!
- **7956**: When you've progressed further, visit me again. Next time, a thorough test of your mettle will be in order!
- **8028**: Ah, how far you've come since we last spoke. I expected no less of you.
- **8029**: I have one last task for you, if your heart is ready.
- **8030**: Are you prepared? [I'm ready./I need to think about it.]
- **8031**: I see, and I respect your decision. My tasks are not to be taken lightly.
- **8032**: Yes, in fact, I have sent many on this task, and many have failed...
- **8033**: All so confident when they set out... Though some never returned.
- **8034**: Sometimes, you must be the judge of your own strength, for none other can take your true measure.
- **8035**: If you deem your skills still too crude, polish them and come back when you feel you are ready. I will be here, waiting.
- **8036**: Excellent. This will be your last task, then. I entrust you with this book. Everything else is up to you.
- **8037**: The way of the sword is the way of action! Now, go!
- **8045**: You've completed your task with flying colors. You are ready to become a knight, I believe.
- **8046**: This is my gift to you, to commemorate this occasion. Accept it with easy heart, for you have earned it!
- **8048**: Let your heart be your guide, but always keep a clear mind. Good luck.
- **9327**: What is the purpose of your visit? [I have lost the $1.../I request to withdraw from the training./I was just passing by.]
- **9331**: You are not truly considering giving up? [I have had enough./On second thought...]
- **13795**: A present for me? But, whatever for--aaah, the Starlight Celebration! To think that someone remembers this frail old man...<sniff>...

## Events

### Event 65535

#### Metadata

| Field        | Value   |
|--------------|---------|
| Entrypoint   | 0x0000  |
| Data Size    | 1 bytes |
| Instructions | 1       |

```
      00 01 02 03 04 05 06 07  08 09 0A 0B 0C 0D 0E 0F
      -- -- -- -- -- -- -- --  -- -- -- -- -- -- -- --
0000: 00                                                .               
```

#### Opcodes

```
  0: 0x0000 [0x00] END_REQSTACK()
```

### Event 32690

#### Metadata

| Field        | Value    |
|--------------|----------|
| Entrypoint   | 0x0001   |
| Data Size    | 12 bytes |
| Instructions | 6        |

```
      00 01 02 03 04 05 06 07  08 09 0A 0B 0C 0D 0E 0F
      -- -- -- -- -- -- -- --  -- -- -- -- -- -- -- --
0000:    42 1E F0 FF FF 7F 1D  00 80 23 21 00            B........#!.   
```

#### Opcodes

```
  0: 0x0001 [0x42] SET_CLI_EVENT_CANCEL_DATA()
  1: 0x0002 [0x1E] EventEntity looks at LocalPlayer and starts talking
  2: 0x0007 [0x1D] PRINT_EVENT_MESSAGE(message_id=13795*)
    → "A present for me? But, whatever for--aaah, the Starlight Celebration! To think that someone remembers this frail old man...<sniff>..."
  3: 0x000A [0x23] WAIT_FOR_DIALOG_INTERACTION
  4: 0x000B [0x21] END_EVENT
  5: 0x000C [0x00] END_REQSTACK()
```

### Event 10

#### Metadata

| Field        | Value    |
|--------------|----------|
| Entrypoint   | 0x000D   |
| Data Size    | 20 bytes |
| Instructions | 9        |

```
      00 01 02 03 04 05 06 07  08 09 0A 0B 0C 0D 0E 0F
      -- -- -- -- -- -- -- --  -- -- -- -- -- -- -- --
0000:                                         20 01 42                .B
0010: 1E F0 FF FF 7F 6F 70 2B  3F 60 0E 01 01 80 23 21  .....op+?`....#!
0020: 00                                                .               
```

#### Opcodes

```
  0: 0x000D [0x20] SET_CLI_EVENT_UC_FLAG: Lock player control
  1: 0x000F [0x42] SET_CLI_EVENT_CANCEL_DATA()
  2: 0x0010 [0x1E] EventEntity looks at LocalPlayer and starts talking
  3: 0x0015 [0x6F] WAIT_FRAME_DELAY: Yield until WaitTime reaches zero
  4: 0x0016 [0x70] WAIT_ENTITY_RENDER_FLAG: Wait while EventEntity->Render.Flags3 bit 2 is set (cancel turn if not)
  5: 0x0017 [0x2B] Balasiel (ID: 17719359/0x010E603F) [9336*]:
    → "I am sorry, but I do not believe that you have used this weapon to its full extent. Continue your training. You will know when you have reached your goal."
  6: 0x001E [0x23] WAIT_FOR_DIALOG_INTERACTION
  7: 0x001F [0x21] END_EVENT
  8: 0x0020 [0x00] END_REQSTACK()
```

### Event 8

#### Metadata

| Field        | Value   |
|--------------|---------|
| Entrypoint   | 0x0021  |
| Data Size    | 1 bytes |
| Instructions | 1       |

```
      00 01 02 03 04 05 06 07  08 09 0A 0B 0C 0D 0E 0F
      -- -- -- -- -- -- -- --  -- -- -- -- -- -- -- --
0020:    00                                              .              
```

#### Opcodes

```
  0: 0x0021 [0x00] END_REQSTACK()
```

### Event 65535.1

#### Metadata

| Field        | Value    |
|--------------|----------|
| Entrypoint   | 0x0022   |
| Data Size    | 44 bytes |
| Instructions | 10       |

```
      00 01 02 03 04 05 06 07  08 09 0A 0B 0C 0D 0E 0F
      -- -- -- -- -- -- -- --  -- -- -- -- -- -- -- --
0020:       32 02 80 1F 00 03  80 04 80 05 80 1F 01 6F    2............o
0030: 39 06 80 6F 70 4A F0 FF  FF 7F F8 FF FF 7F 5B 07  9..opJ........[.
0040: 80 F8 FF FF 7F F8 FF FF  7F 74 68 6B 31 00        .........thk1.  
```

#### Opcodes

```
  0: 0x0022 [0x32] ExtData[1]->MainSpeed = 13* * 0.1
  1: 0x0025 [0x1F] MOVE_ENTITY: EventEntity moves to X=-138.033*, Z=64.455*, Y=-10.800*
  2: 0x002D [0x1F] MOVE_ENTITY: Update entity position (mode=1)
  3: 0x002F [0x6F] WAIT_FRAME_DELAY: Yield until WaitTime reaches zero
  4: 0x0030 [0x39] SET_ENTITY_DIRECTION(direction=7.8°*)
  5: 0x0033 [0x6F] WAIT_FRAME_DELAY: Yield until WaitTime reaches zero
  6: 0x0034 [0x70] WAIT_ENTITY_RENDER_FLAG: Wait while EventEntity->Render.Flags3 bit 2 is set (cancel turn if not)
  7: 0x0035 [0x4A] LocalPlayer looks at EventEntity
  8: 0x003E [0x5B] LOAD_EXT_SCHEDULER: Load scheduler "thk1" with entities [EventEntity, EventEntity], work=30*
  9: 0x004D [0x00] END_REQSTACK()
```

### Event 11

#### Metadata

| Field        | Value     |
|--------------|-----------|
| Entrypoint   | 0x004E    |
| Data Size    | 323 bytes |
| Instructions | 53        |

```
      00 01 02 03 04 05 06 07  08 09 0A 0B 0C 0D 0E 0F
      -- -- -- -- -- -- -- --  -- -- -- -- -- -- -- --
0040:                                            20 01                 .
0050: 42 4A 3F 60 0E 01 F0 FF  FF 7F 6F 76 3F 60 0E 01  BJ?`......ov?`..
0060: 5B 07 80 F8 FF FF 7F F8  FF FF 7F 74 6C 6B 30 2B  [..........tlk0+
0070: 3F 60 0E 01 08 80 23 5B  07 80 F8 FF FF 7F F8 FF  ?`....#[........
0080: FF 7F 74 6C 6B 31 53 F8  FF FF 7F F8 FF FF 7F 74  ..tlk1S........t
0090: 6C 6B 31 06 00 00 02 02  10 09 80 00 A5 00 3C 00  lk1...........<.
00A0: 00 0A 80 09 80 03 03 10  0B 80 06 01 10 24 0C 80  .............$..
00B0: 0D 80 00 00 25 42 02 00  10 0A 80 00 01 01 5B 07  ....%B........[.
00C0: 80 F8 FF FF 7F F8 FF FF  7F 74 6C 6B 30 2B 3F 60  .........tlk0+?`
00D0: 0E 01 0E 80 23 2B 3F 60  0E 01 0F 80 23 5B 07 80  ....#+?`....#[..
00E0: F8 FF FF 7F F8 FF FF 7F  74 6C 6B 31 53 F8 FF FF  ........tlk1S...
00F0: 7F F8 FF FF 7F 74 6C 6B  31 03 01 10 09 80 01 8F  .....tlk1.......
0100: 01 02 00 10 09 80 00 8F  01 5B 07 80 F8 FF FF 7F  .........[......
0110: F8 FF FF 7F 74 68 6B 31  2B 3F 60 0E 01 10 80 23  ....thk1+?`....#
0120: 24 11 80 09 80 0A 80 25  53 F8 FF FF 7F F8 FF FF  $......%S.......
0130: 7F 74 68 6B 31 5B 07 80  F8 FF FF 7F F8 FF FF 7F  .thk1[..........
0140: 74 68 6B 32 02 00 10 0A  80 00 64 01 2B 3F 60 0E  thk2......d.+?`.
0150: 01 12 80 23 2B 3F 60 0E  01 13 80 23 03 01 10 0D  ...#+?`....#....
0160: 80 01 7F 01 02 00 10 09  80 00 7F 01 2B 3F 60 0E  ............+?`.
0170: 01 14 80 23 2B 3F 60 0E  01 15 80 23 01 7F 01 53  ...#+?`....#...S
0180: F8 FF FF 7F F8 FF FF 7F  74 6C 6B 32 01 8F 01 21  ........tlk2...!
0190: 00                                                .               
```

#### Opcodes

```
  0: 0x004E [0x20] SET_CLI_EVENT_UC_FLAG: Lock player control
  1: 0x0050 [0x42] SET_CLI_EVENT_CANCEL_DATA()
  2: 0x0051 [0x4A] Balasiel (ID: 17719359/0x010E603F) looks at LocalPlayer
  3: 0x005A [0x6F] WAIT_FRAME_DELAY: Yield until WaitTime reaches zero
  4: 0x005B [0x76] CHECK_ENTITY_RENDER_FLAGS: Wait until Balasiel (ID: 17719359/0x010E603F) Render.Flags0 and Render.Flags3 conditions are met
  5: 0x0060 [0x5B] LOAD_EXT_SCHEDULER: Load scheduler "tlk0" with entities [EventEntity, EventEntity], work=30*
  6: 0x006F [0x2B] Balasiel (ID: 17719359/0x010E603F) [9326*]:
    → "Ah, <Player>. How goes your training? Show me the polearm I entrusted to you and I can evaluate your progress. Or have you called upon me for another reason...?"
  7: 0x0076 [0x23] WAIT_FOR_DIALOG_INTERACTION
  8: 0x0077 [0x5B] LOAD_EXT_SCHEDULER: Load scheduler "tlk1" with entities [EventEntity, EventEntity], work=30*
  9: 0x0086 [0x53] WAIT_SCHEDULER_TASK: Wait for scheduler "tlk1" with entities [EventEntity, EventEntity]
 10: 0x0093 [0x06] ExtData[1]->WorkLocal[0] = 0
 11: 0x0096 [0x02] IF !(Work_Zone[2] == 1*) GOTO 0x00A5
 12: 0x009E [0x3C] SET_BIT_FLAG_CONDITIONAL(target_work_offset=ExtData[1]->WorkLocal[0], bit_index_work_offset=0*, condition_work_offset=1*)
 13: 0x00A5 [0x03] Work_Zone[3] = 16892*
 14: 0x00AA [0x06] Work_Zone[1] = 0
 15: 0x00AD [0x24] CREATE_DIALOG(message_id=9327*, default_option=2*, option_flags=ExtData[1]->WorkLocal[0])
    → "What is the purpose of your visit? [I have lost the $1.../I request to withdraw from the training./I was just passing by.]"
 16: 0x00B4 [0x25] WAIT_DIALOG_SELECT()
 17: 0x00B5 [0x42] SET_CLI_EVENT_CANCEL_DATA()
 18: 0x00B6 [0x02] IF !(Work_Zone[0] == 0*) GOTO 0x0101
 19: 0x00BE [0x5B] LOAD_EXT_SCHEDULER: Load scheduler "tlk0" with entities [EventEntity, EventEntity], work=30*
 20: 0x00CD [0x2B] Balasiel (ID: 17719359/0x010E603F) [9328*]:
    → "Lost it? You have lost it!? Why, do you realize the trouble I was forced to go through with those crooks at the Brugaire Consortium to obtain that polearm?"
 21: 0x00D4 [0x23] WAIT_FOR_DIALOG_INTERACTION
 22: 0x00D5 [0x2B] Balasiel (ID: 17719359/0x010E603F) [9329*]:
    → "<Sigh> ...I apologize for my outburst. It was I who requested your services in this matter. Please, take this spear and continue your training. However, you will have to start from the beginning. And please try not to lose this one..."
 23: 0x00DC [0x23] WAIT_FOR_DIALOG_INTERACTION
 24: 0x00DD [0x5B] LOAD_EXT_SCHEDULER: Load scheduler "tlk1" with entities [EventEntity, EventEntity], work=30*
 25: 0x00EC [0x53] WAIT_SCHEDULER_TASK: Wait for scheduler "tlk1" with entities [EventEntity, EventEntity]
 26: 0x00F9 [0x03] Work_Zone[1] = 1*
 27: 0x00FE [0x01] GOTO 0x018F
 28: 0x0101 [0x02] IF !(Work_Zone[0] == 1*) GOTO 0x018F
 29: 0x0109 [0x5B] LOAD_EXT_SCHEDULER: Load scheduler "thk1" with entities [EventEntity, EventEntity], work=30*
 30: 0x0118 [0x2B] Balasiel (ID: 17719359/0x010E603F) [9330*]:
    → "Was what I asked too much for even you? No, it could not be... My years of experience led me to the construction of those training guidelines."
 31: 0x011F [0x23] WAIT_FOR_DIALOG_INTERACTION
 32: 0x0120 [0x24] CREATE_DIALOG(message_id=9331*, default_option=1*, option_flags=0*)
    → "You are not truly considering giving up? [I have had enough./On second thought...]"
 33: 0x0127 [0x25] WAIT_DIALOG_SELECT()
 34: 0x0128 [0x53] WAIT_SCHEDULER_TASK: Wait for scheduler "thk1" with entities [EventEntity, EventEntity]
 35: 0x0135 [0x5B] LOAD_EXT_SCHEDULER: Load scheduler "thk2" with entities [EventEntity, EventEntity], work=30*
 36: 0x0144 [0x02] IF !(Work_Zone[0] == 0*) GOTO 0x0164
 37: 0x014C [0x2B] Balasiel (ID: 17719359/0x010E603F) [9334*]:
    → "What is this? Have you no faith in my guidelines?"
 38: 0x0153 [0x23] WAIT_FOR_DIALOG_INTERACTION
 39: 0x0154 [0x2B] Balasiel (ID: 17719359/0x010E603F) [9335*]:
    → "I cannot believe what I am hearing... Leave me be! I will search for a more suited adventurer to take on this task."
 40: 0x015B [0x23] WAIT_FOR_DIALOG_INTERACTION
 41: 0x015C [0x03] Work_Zone[1] = 2*
 42: 0x0161 [0x01] GOTO 0x017F
 43: 0x0164 [0x02] IF !(Work_Zone[0] == 1*) GOTO 0x017F
 44: 0x016C [0x2B] Balasiel (ID: 17719359/0x010E603F) [9332*]:
    → "I knew that you were the one for this task. Anyone who cannot handle simple training such as this does not have the right to hold a polearm in their hands."
 45: 0x0173 [0x23] WAIT_FOR_DIALOG_INTERACTION
 46: 0x0174 [0x2B] Balasiel (ID: 17719359/0x010E603F) [9333*]:
    → "If you grow weary of your training, then feel free to rest. While glory does not befall those who run from the hardships they face, it must also be remembered that a true master is not born in a single day's time."
 47: 0x017B [0x23] WAIT_FOR_DIALOG_INTERACTION
 48: 0x017C [0x01] GOTO 0x017F

SUBROUTINE_017F:
 49: 0x017F [0x53] WAIT_SCHEDULER_TASK: Wait for scheduler "tlk2" with entities [EventEntity, EventEntity]
 50: 0x018C [0x01] GOTO 0x018F

SUBROUTINE_018F:
 51: 0x018F [0x21] END_EVENT
 52: 0x0190 [0x00] END_REQSTACK()
```

### Event 9

#### Metadata

| Field        | Value   |
|--------------|---------|
| Entrypoint   | 0x0191  |
| Data Size    | 1 bytes |
| Instructions | 1       |

```
      00 01 02 03 04 05 06 07  08 09 0A 0B 0C 0D 0E 0F
      -- -- -- -- -- -- -- --  -- -- -- -- -- -- -- --
0190:    00                                              .              
```

#### Opcodes

```
  0: 0x0191 [0x00] END_REQSTACK()
```

### Event 12

#### Metadata

| Field        | Value    |
|--------------|----------|
| Entrypoint   | 0x0192   |
| Data Size    | 38 bytes |
| Instructions | 11       |

```
      00 01 02 03 04 05 06 07  08 09 0A 0B 0C 0D 0E 0F
      -- -- -- -- -- -- -- --  -- -- -- -- -- -- -- --
0190:       20 01 42 4A 3F 60  0E 01 F0 FF FF 7F 6F 76     .BJ?`......ov
01A0: F0 FF FF 7F 03 02 10 16  80 03 04 10 17 80 2B 3F  ..............+?
01B0: 60 0E 01 18 80 23 21 00                           `....#!.        
```

#### Opcodes

```
  0: 0x0192 [0x20] SET_CLI_EVENT_UC_FLAG: Lock player control
  1: 0x0194 [0x42] SET_CLI_EVENT_CANCEL_DATA()
  2: 0x0195 [0x4A] Balasiel (ID: 17719359/0x010E603F) looks at LocalPlayer
  3: 0x019E [0x6F] WAIT_FRAME_DELAY: Yield until WaitTime reaches zero
  4: 0x019F [0x76] CHECK_ENTITY_RENDER_FLAGS: Wait until LocalPlayer Render.Flags0 and Render.Flags3 conditions are met
  5: 0x01A4 [0x03] Work_Zone[2] = 344*
  6: 0x01A9 [0x03] Work_Zone[4] = 345*
  7: 0x01AE [0x2B] Balasiel (ID: 17719359/0x010E603F) [9342*]:
    → "Take that $3 and travel to the Sea Serpent Grotto. There you will find $6 buried in the earth. You are to bring that back here to me. Good luck."
  8: 0x01B5 [0x23] WAIT_FOR_DIALOG_INTERACTION
  9: 0x01B6 [0x21] END_EVENT
 10: 0x01B7 [0x00] END_REQSTACK()
```

### Event 65535.2

#### Metadata

| Field        | Value    |
|--------------|----------|
| Entrypoint   | 0x01B8   |
| Data Size    | 15 bytes |
| Instructions | 5        |

```
      00 01 02 03 04 05 06 07  08 09 0A 0B 0C 0D 0E 0F
      -- -- -- -- -- -- -- --  -- -- -- -- -- -- -- --
01B0:                          32 02 80 1F 00 19 80 1A          2.......
01C0: 80 05 80 1F 01 6F 00                              .....o.         
```

#### Opcodes

```
  0: 0x01B8 [0x32] ExtData[1]->MainSpeed = 13* * 0.1
  1: 0x01BB [0x1F] MOVE_ENTITY: EventEntity moves to X=-137.317*, Z=64.727*, Y=-10.800*
  2: 0x01C3 [0x1F] MOVE_ENTITY: Update entity position (mode=1)
  3: 0x01C5 [0x6F] WAIT_FRAME_DELAY: Yield until WaitTime reaches zero
  4: 0x01C6 [0x00] END_REQSTACK()
```

### Event 13

#### Metadata

| Field        | Value   |
|--------------|---------|
| Entrypoint   | 0x01C7  |
| Data Size    | 1 bytes |
| Instructions | 1       |

```
      00 01 02 03 04 05 06 07  08 09 0A 0B 0C 0D 0E 0F
      -- -- -- -- -- -- -- --  -- -- -- -- -- -- -- --
01C0:                      00                                  .        
```

#### Opcodes

```
  0: 0x01C7 [0x00] END_REQSTACK()
```

### Event 667

#### Metadata

| Field        | Value    |
|--------------|----------|
| Entrypoint   | 0x01C8   |
| Data Size    | 36 bytes |
| Instructions | 10       |

```
      00 01 02 03 04 05 06 07  08 09 0A 0B 0C 0D 0E 0F
      -- -- -- -- -- -- -- --  -- -- -- -- -- -- -- --
01C0:                          1E F0 FF FF 7F 6F 70 5B          .....op[
01D0: 07 80 F8 FF FF 7F F8 FF  FF 7F 74 6C 6B 30 1D 1B  ..........tlk0..
01E0: 80 23 5E 69 64 6C 30 1C  07 80 21 00              .#^idl0...!.    
```

#### Opcodes

```
  0: 0x01C8 [0x1E] EventEntity looks at LocalPlayer and starts talking
  1: 0x01CD [0x6F] WAIT_FRAME_DELAY: Yield until WaitTime reaches zero
  2: 0x01CE [0x70] WAIT_ENTITY_RENDER_FLAG: Wait while EventEntity->Render.Flags3 bit 2 is set (cancel turn if not)
  3: 0x01CF [0x5B] LOAD_EXT_SCHEDULER: Load scheduler "tlk0" with entities [EventEntity, EventEntity], work=30*
  4: 0x01DE [0x1D] PRINT_EVENT_MESSAGE(message_id=8048*)
    → "Let your heart be your guide, but always keep a clear mind. Good luck."
  5: 0x01E1 [0x23] WAIT_FOR_DIALOG_INTERACTION
  6: 0x01E2 [0x5E] EventEntity goes idle (kills current action) (animation: "idl0")
  7: 0x01E7 [0x1C] WAIT(30* ticks)
  8: 0x01EA [0x21] END_EVENT
  9: 0x01EB [0x00] END_REQSTACK()
```

### Event 668

#### Metadata

| Field        | Value    |
|--------------|----------|
| Entrypoint   | 0x01EC   |
| Data Size    | 36 bytes |
| Instructions | 10       |

```
      00 01 02 03 04 05 06 07  08 09 0A 0B 0C 0D 0E 0F
      -- -- -- -- -- -- -- --  -- -- -- -- -- -- -- --
01E0:                                      1E F0 FF FF              ....
01F0: 7F 6F 70 5B 07 80 F8 FF  FF 7F F8 FF FF 7F 74 6C  .op[..........tl
0200: 6B 30 1D 1C 80 23 5E 69  64 6C 30 1C 07 80 21 00  k0...#^idl0...!.
```

#### Opcodes

```
  0: 0x01EC [0x1E] EventEntity looks at LocalPlayer and starts talking
  1: 0x01F1 [0x6F] WAIT_FRAME_DELAY: Yield until WaitTime reaches zero
  2: 0x01F2 [0x70] WAIT_ENTITY_RENDER_FLAG: Wait while EventEntity->Render.Flags3 bit 2 is set (cancel turn if not)
  3: 0x01F3 [0x5B] LOAD_EXT_SCHEDULER: Load scheduler "tlk0" with entities [EventEntity, EventEntity], work=30*
  4: 0x0202 [0x1D] PRINT_EVENT_MESSAGE(message_id=7884*)
    → "Take up a sword, my friend. I'll talk to you when you do, and no sooner."
  5: 0x0205 [0x23] WAIT_FOR_DIALOG_INTERACTION
  6: 0x0206 [0x5E] EventEntity goes idle (kills current action) (animation: "idl0")
  7: 0x020B [0x1C] WAIT(30* ticks)
  8: 0x020E [0x21] END_EVENT
  9: 0x020F [0x00] END_REQSTACK()
```

### Event 669

#### Metadata

| Field        | Value    |
|--------------|----------|
| Entrypoint   | 0x0210   |
| Data Size    | 36 bytes |
| Instructions | 10       |

```
      00 01 02 03 04 05 06 07  08 09 0A 0B 0C 0D 0E 0F
      -- -- -- -- -- -- -- --  -- -- -- -- -- -- -- --
0210: 1E F0 FF FF 7F 6F 70 5B  07 80 F8 FF FF 7F F8 FF  .....op[........
0220: FF 7F 74 6C 6B 30 1D 1D  80 23 5E 69 64 6C 30 1C  ..tlk0...#^idl0.
0230: 07 80 21 00                                       ..!.            
```

#### Opcodes

```
  0: 0x0210 [0x1E] EventEntity looks at LocalPlayer and starts talking
  1: 0x0215 [0x6F] WAIT_FRAME_DELAY: Yield until WaitTime reaches zero
  2: 0x0216 [0x70] WAIT_ENTITY_RENDER_FLAG: Wait while EventEntity->Render.Flags3 bit 2 is set (cancel turn if not)
  3: 0x0217 [0x5B] LOAD_EXT_SCHEDULER: Load scheduler "tlk0" with entities [EventEntity, EventEntity], work=30*
  4: 0x0226 [0x1D] PRINT_EVENT_MESSAGE(message_id=8037*)
    → "The way of the sword is the way of action! Now, go!"
  5: 0x0229 [0x23] WAIT_FOR_DIALOG_INTERACTION
  6: 0x022A [0x5E] EventEntity goes idle (kills current action) (animation: "idl0")
  7: 0x022F [0x1C] WAIT(30* ticks)
  8: 0x0232 [0x21] END_EVENT
  9: 0x0233 [0x00] END_REQSTACK()
```

### Event 670

#### Metadata

| Field        | Value    |
|--------------|----------|
| Entrypoint   | 0x0234   |
| Data Size    | 36 bytes |
| Instructions | 10       |

```
      00 01 02 03 04 05 06 07  08 09 0A 0B 0C 0D 0E 0F
      -- -- -- -- -- -- -- --  -- -- -- -- -- -- -- --
0230:             1E F0 FF FF  7F 6F 70 5B 07 80 F8 FF      .....op[....
0240: FF 7F F8 FF FF 7F 74 6C  6B 30 1D 1E 80 23 5E 69  ......tlk0...#^i
0250: 64 6C 30 1C 07 80 21 00                           dl0...!.        
```

#### Opcodes

```
  0: 0x0234 [0x1E] EventEntity looks at LocalPlayer and starts talking
  1: 0x0239 [0x6F] WAIT_FRAME_DELAY: Yield until WaitTime reaches zero
  2: 0x023A [0x70] WAIT_ENTITY_RENDER_FLAG: Wait while EventEntity->Render.Flags3 bit 2 is set (cancel turn if not)
  3: 0x023B [0x5B] LOAD_EXT_SCHEDULER: Load scheduler "tlk0" with entities [EventEntity, EventEntity], work=30*
  4: 0x024A [0x1D] PRINT_EVENT_MESSAGE(message_id=7956*)
    → "When you've progressed further, visit me again. Next time, a thorough test of your mettle will be in order!"
  5: 0x024D [0x23] WAIT_FOR_DIALOG_INTERACTION
  6: 0x024E [0x5E] EventEntity goes idle (kills current action) (animation: "idl0")
  7: 0x0253 [0x1C] WAIT(30* ticks)
  8: 0x0256 [0x21] END_EVENT
  9: 0x0257 [0x00] END_REQSTACK()
```

### Event 671

#### Metadata

| Field        | Value    |
|--------------|----------|
| Entrypoint   | 0x0258   |
| Data Size    | 36 bytes |
| Instructions | 10       |

```
      00 01 02 03 04 05 06 07  08 09 0A 0B 0C 0D 0E 0F
      -- -- -- -- -- -- -- --  -- -- -- -- -- -- -- --
0250:                          1E F0 FF FF 7F 6F 70 5B          .....op[
0260: 07 80 F8 FF FF 7F F8 FF  FF 7F 74 6C 6B 30 1D 1F  ..........tlk0..
0270: 80 23 5E 69 64 6C 30 1C  07 80 21 00              .#^idl0...!.    
```

#### Opcodes

```
  0: 0x0258 [0x1E] EventEntity looks at LocalPlayer and starts talking
  1: 0x025D [0x6F] WAIT_FRAME_DELAY: Yield until WaitTime reaches zero
  2: 0x025E [0x70] WAIT_ENTITY_RENDER_FLAG: Wait while EventEntity->Render.Flags3 bit 2 is set (cancel turn if not)
  3: 0x025F [0x5B] LOAD_EXT_SCHEDULER: Load scheduler "tlk0" with entities [EventEntity, EventEntity], work=30*
  4: 0x026E [0x1D] PRINT_EVENT_MESSAGE(message_id=7894*)
    → "You're a little too new at this to undertake my challenge. Train further, and return here once you feel ready."
  5: 0x0271 [0x23] WAIT_FOR_DIALOG_INTERACTION
  6: 0x0272 [0x5E] EventEntity goes idle (kills current action) (animation: "idl0")
  7: 0x0277 [0x1C] WAIT(30* ticks)
  8: 0x027A [0x21] END_EVENT
  9: 0x027B [0x00] END_REQSTACK()
```

### Event 65535.3

#### Metadata

| Field        | Value    |
|--------------|----------|
| Entrypoint   | 0x027C   |
| Data Size    | 36 bytes |
| Instructions | 10       |

```
      00 01 02 03 04 05 06 07  08 09 0A 0B 0C 0D 0E 0F
      -- -- -- -- -- -- -- --  -- -- -- -- -- -- -- --
0270:                                      1E F0 FF FF              ....
0280: 7F 6F 70 5B 07 80 F8 FF  FF 7F F8 FF FF 7F 74 6C  .op[..........tl
0290: 6B 30 1D 1C 80 23 5E 69  64 6C 30 1C 07 80 21 00  k0...#^idl0...!.
```

#### Opcodes

```
  0: 0x027C [0x1E] EventEntity looks at LocalPlayer and starts talking
  1: 0x0281 [0x6F] WAIT_FRAME_DELAY: Yield until WaitTime reaches zero
  2: 0x0282 [0x70] WAIT_ENTITY_RENDER_FLAG: Wait while EventEntity->Render.Flags3 bit 2 is set (cancel turn if not)
  3: 0x0283 [0x5B] LOAD_EXT_SCHEDULER: Load scheduler "tlk0" with entities [EventEntity, EventEntity], work=30*
  4: 0x0292 [0x1D] PRINT_EVENT_MESSAGE(message_id=7884*)
    → "Take up a sword, my friend. I'll talk to you when you do, and no sooner."
  5: 0x0295 [0x23] WAIT_FOR_DIALOG_INTERACTION
  6: 0x0296 [0x5E] EventEntity goes idle (kills current action) (animation: "idl0")
  7: 0x029B [0x1C] WAIT(30* ticks)
  8: 0x029E [0x21] END_EVENT
  9: 0x029F [0x00] END_REQSTACK()
```

### Event 616

#### Metadata

| Field        | Value     |
|--------------|-----------|
| Entrypoint   | 0x02A0    |
| Data Size    | 244 bytes |
| Instructions | 44        |

```
      00 01 02 03 04 05 06 07  08 09 0A 0B 0C 0D 0E 0F
      -- -- -- -- -- -- -- --  -- -- -- -- -- -- -- --
02A0: 42 46 01 38 20 80 45 21  80 F0 FF FF 7F F0 FF FF  BF.8 .E!........
02B0: 7F 73 30 36 37 0A 80 27  64 F0 FF FF 7F 2C 45 22  .s067..'d....,E"
02C0: 80 F0 FF FF 7F F0 FF FF  7F 66 64 69 31 0A 80 55  .........fdi1..U
02D0: 21 80 F0 FF FF 7F F0 FF  FF 7F 73 30 36 37 5B 07  !.........s067[.
02E0: 80 F8 FF FF 7F F8 FF FF  7F 74 6C 6B 30 45 21 80  .........tlk0E!.
02F0: F0 FF FF 7F F0 FF FF 7F  73 30 36 38 0A 80 1D 23  ........s068...#
0300: 80 23 1C 24 80 1D 25 80  23 1C 24 80 45 21 80 F0  .#.$..%.#.$.E!..
0310: FF FF 7F F0 FF FF 7F 73  30 36 39 0A 80 1D 26 80  .......s069...&.
0320: 23 5E 69 64 6C 30 24 27  80 09 80 0A 80 25 02 00  #^idl0$'.....%..
0330: 10 0A 80 00 65 03 5B 07  80 F8 FF FF 7F F8 FF FF  ....e.[.........
0340: 7F 74 6C 6B 30 1D 28 80  23 1C 24 80 03 02 10 29  .tlk0.(.#.$....)
0350: 80 1D 2A 80 23 5E 69 64  6C 30 1C 07 80 03 01 10  ..*.#^idl0......
0360: 0A 80 01 90 03 02 00 10  09 80 00 90 03 5B 07 80  .............[..
0370: F8 FF FF 7F F8 FF FF 7F  74 6C 6B 30 1D 2B 80 23  ........tlk0.+.#
0380: 5E 69 64 6C 30 1C 07 80  03 01 10 09 80 01 90 03  ^idl0...........
0390: 46 00 21 00                                       F.!.            
```

#### Opcodes

```
  0: 0x02A0 [0x42] SET_CLI_EVENT_CANCEL_DATA()
  1: 0x02A1 [0x46] CAMERA_CONTROL: Disable user control
  2: 0x02A3 [0x38] SET_CLIENT_EVENT_MODE(mode=3*)
  3: 0x02A6 [0x45] LOAD_SCHEDULED_TASK: Load scheduler "s067" with entities [LocalPlayer, LocalPlayer], work=[130*, 0*]
  4: 0x02B7 [0x27] REQ_SET(priority=0x64, entity_id=LocalPlayer, tag_num=0x2C)
  5: 0x02BE [0x45] LOAD_SCHEDULED_TASK: Load scheduler "fdi1" with entities [LocalPlayer, LocalPlayer], work=[200*, 0*]
  6: 0x02CF [0x55] WAIT_LOAD_SCHEDULER: Wait for scheduler "s067" with entities [LocalPlayer, LocalPlayer], work=130*
  7: 0x02DE [0x5B] LOAD_EXT_SCHEDULER: Load scheduler "tlk0" with entities [EventEntity, EventEntity], work=30*
  8: 0x02ED [0x45] LOAD_SCHEDULED_TASK: Load scheduler "s068" with entities [LocalPlayer, LocalPlayer], work=[130*, 0*]
  9: 0x02FE [0x1D] PRINT_EVENT_MESSAGE(message_id=7885*)
    → "Friend, listen to me. It is not cogs nor levers nor even the mightiest of magicks that protect this kingdom of San d'Oria."
 10: 0x0301 [0x23] WAIT_FOR_DIALOG_INTERACTION
 11: 0x0302 [0x1C] WAIT(60* ticks)
 12: 0x0305 [0x1D] PRINT_EVENT_MESSAGE(message_id=7886*)
    → "No! We Elvaan live by the power of the sword alone. Our blades defend our borders."
 13: 0x0308 [0x23] WAIT_FOR_DIALOG_INTERACTION
 14: 0x0309 [0x1C] WAIT(60* ticks)
 15: 0x030C [0x45] LOAD_SCHEDULED_TASK: Load scheduler "s069" with entities [LocalPlayer, LocalPlayer], work=[130*, 0*]
 16: 0x031D [0x1D] PRINT_EVENT_MESSAGE(message_id=7887*)
    → "If you would strengthen your sword arm and learn something of the art, then accept my challenge. What say you?"
 17: 0x0320 [0x23] WAIT_FOR_DIALOG_INTERACTION
 18: 0x0321 [0x5E] EventEntity goes idle (kills current action) (animation: "idl0")
 19: 0x0326 [0x24] CREATE_DIALOG(message_id=7888*, default_option=1*, option_flags=0*)
    → "Accept his challenge? [Accept./Refuse.]"
 20: 0x032D [0x25] WAIT_DIALOG_SELECT()
 21: 0x032E [0x02] IF !(Work_Zone[0] == 0*) GOTO 0x0365
 22: 0x0336 [0x5B] LOAD_EXT_SCHEDULER: Load scheduler "tlk0" with entities [EventEntity, EventEntity], work=30*
 23: 0x0345 [0x1D] PRINT_EVENT_MESSAGE(message_id=7890*)
    → "Ah, I see you have a stout heart. Now listen well!"
 24: 0x0348 [0x23] WAIT_FOR_DIALOG_INTERACTION
 25: 0x0349 [0x1C] WAIT(60* ticks)
 26: 0x034C [0x03] Work_Zone[2] = 940*
 27: 0x0351 [0x1D] PRINT_EVENT_MESSAGE(message_id=7891*)
    → "Go to King Ranperre's Tomb and bring back $0. How, you ask? Use your head. Now begone!"
 28: 0x0354 [0x23] WAIT_FOR_DIALOG_INTERACTION
 29: 0x0355 [0x5E] EventEntity goes idle (kills current action) (animation: "idl0")
 30: 0x035A [0x1C] WAIT(30* ticks)
 31: 0x035D [0x03] Work_Zone[1] = 0*
 32: 0x0362 [0x01] GOTO 0x0390
 33: 0x0365 [0x02] IF !(Work_Zone[0] == 1*) GOTO 0x0390
 34: 0x036D [0x5B] LOAD_EXT_SCHEDULER: Load scheduler "tlk0" with entities [EventEntity, EventEntity], work=30*
 35: 0x037C [0x1D] PRINT_EVENT_MESSAGE(message_id=7889*)
    → "As you wish. Come back when you've grown a spine."
 36: 0x037F [0x23] WAIT_FOR_DIALOG_INTERACTION
 37: 0x0380 [0x5E] EventEntity goes idle (kills current action) (animation: "idl0")
 38: 0x0385 [0x1C] WAIT(30* ticks)
 39: 0x0388 [0x03] Work_Zone[1] = 1*
 40: 0x038D [0x01] GOTO 0x0390

SUBROUTINE_0390:
 41: 0x0390 [0x46] CAMERA_CONTROL: Restore default settings
 42: 0x0392 [0x21] END_EVENT
 43: 0x0393 [0x00] END_REQSTACK()
```

### Event 631

#### Metadata

| Field        | Value     |
|--------------|-----------|
| Entrypoint   | 0x0394    |
| Data Size    | 139 bytes |
| Instructions | 31        |

```
      00 01 02 03 04 05 06 07  08 09 0A 0B 0C 0D 0E 0F
      -- -- -- -- -- -- -- --  -- -- -- -- -- -- -- --
0390:             1E F0 FF FF  7F 6F 70 5B 07 80 F8 FF      .....op[....
03A0: FF 7F F8 FF FF 7F 74 6C  6B 30 1D 26 80 23 5E 69  ......tlk0.&.#^i
03B0: 64 6C 30 24 27 80 09 80  0A 80 25 02 00 10 0A 80  dl0$'.....%.....
03C0: 00 F2 03 5B 07 80 F8 FF  FF 7F F8 FF FF 7F 74 6C  ...[..........tl
03D0: 6B 30 1D 28 80 23 1C 24  80 03 02 10 29 80 1D 2A  k0.(.#.$....)..*
03E0: 80 23 5E 69 64 6C 30 1C  07 80 03 01 10 0A 80 01  .#^idl0.........
03F0: 1D 04 02 00 10 09 80 00  1D 04 5B 07 80 F8 FF FF  ..........[.....
0400: 7F F8 FF FF 7F 74 6C 6B  30 1D 2B 80 23 5E 69 64  .....tlk0.+.#^id
0410: 6C 30 1C 07 80 03 01 10  09 80 01 1D 04 21 00     l0...........!. 
```

#### Opcodes

```
  0: 0x0394 [0x1E] EventEntity looks at LocalPlayer and starts talking
  1: 0x0399 [0x6F] WAIT_FRAME_DELAY: Yield until WaitTime reaches zero
  2: 0x039A [0x70] WAIT_ENTITY_RENDER_FLAG: Wait while EventEntity->Render.Flags3 bit 2 is set (cancel turn if not)
  3: 0x039B [0x5B] LOAD_EXT_SCHEDULER: Load scheduler "tlk0" with entities [EventEntity, EventEntity], work=30*
  4: 0x03AA [0x1D] PRINT_EVENT_MESSAGE(message_id=7887*)
    → "If you would strengthen your sword arm and learn something of the art, then accept my challenge. What say you?"
  5: 0x03AD [0x23] WAIT_FOR_DIALOG_INTERACTION
  6: 0x03AE [0x5E] EventEntity goes idle (kills current action) (animation: "idl0")
  7: 0x03B3 [0x24] CREATE_DIALOG(message_id=7888*, default_option=1*, option_flags=0*)
    → "Accept his challenge? [Accept./Refuse.]"
  8: 0x03BA [0x25] WAIT_DIALOG_SELECT()
  9: 0x03BB [0x02] IF !(Work_Zone[0] == 0*) GOTO 0x03F2
 10: 0x03C3 [0x5B] LOAD_EXT_SCHEDULER: Load scheduler "tlk0" with entities [EventEntity, EventEntity], work=30*
 11: 0x03D2 [0x1D] PRINT_EVENT_MESSAGE(message_id=7890*)
    → "Ah, I see you have a stout heart. Now listen well!"
 12: 0x03D5 [0x23] WAIT_FOR_DIALOG_INTERACTION
 13: 0x03D6 [0x1C] WAIT(60* ticks)
 14: 0x03D9 [0x03] Work_Zone[2] = 940*
 15: 0x03DE [0x1D] PRINT_EVENT_MESSAGE(message_id=7891*)
    → "Go to King Ranperre's Tomb and bring back $0. How, you ask? Use your head. Now begone!"
 16: 0x03E1 [0x23] WAIT_FOR_DIALOG_INTERACTION
 17: 0x03E2 [0x5E] EventEntity goes idle (kills current action) (animation: "idl0")
 18: 0x03E7 [0x1C] WAIT(30* ticks)
 19: 0x03EA [0x03] Work_Zone[1] = 0*
 20: 0x03EF [0x01] GOTO 0x041D
 21: 0x03F2 [0x02] IF !(Work_Zone[0] == 1*) GOTO 0x041D
 22: 0x03FA [0x5B] LOAD_EXT_SCHEDULER: Load scheduler "tlk0" with entities [EventEntity, EventEntity], work=30*
 23: 0x0409 [0x1D] PRINT_EVENT_MESSAGE(message_id=7889*)
    → "As you wish. Come back when you've grown a spine."
 24: 0x040C [0x23] WAIT_FOR_DIALOG_INTERACTION
 25: 0x040D [0x5E] EventEntity goes idle (kills current action) (animation: "idl0")
 26: 0x0412 [0x1C] WAIT(30* ticks)
 27: 0x0415 [0x03] Work_Zone[1] = 1*
 28: 0x041A [0x01] GOTO 0x041D

SUBROUTINE_041D:
 29: 0x041D [0x21] END_EVENT
 30: 0x041E [0x00] END_REQSTACK()
```

### Event 617

#### Metadata

| Field        | Value     |
|--------------|-----------|
| Entrypoint   | 0x041F    |
| Data Size    | 180 bytes |
| Instructions | 28        |

```
      00 01 02 03 04 05 06 07  08 09 0A 0B 0C 0D 0E 0F
      -- -- -- -- -- -- -- --  -- -- -- -- -- -- -- --
0410:                                               42                 B
0420: 20 01 46 01 38 20 80 45  21 80 F0 FF FF 7F F0 FF   .F.8 .E!.......
0430: FF 7F 73 30 37 31 0A 80  27 64 F0 FF FF 7F 2C 45  ..s071..'d....,E
0440: 22 80 F0 FF FF 7F F0 FF  FF 7F 66 64 69 31 0A 80  ".........fdi1..
0450: 55 21 80 F0 FF FF 7F F0  FF FF 7F 73 30 37 31 5B  U!.........s071[
0460: 07 80 F8 FF FF 7F F8 FF  FF 7F 74 6C 6B 30 1D 2C  ..........tlk0.,
0470: 80 23 5E 69 64 6C 30 1C  24 80 45 21 80 F0 FF FF  .#^idl0.$.E!....
0480: 7F F0 FF FF 7F 73 30 36  38 0A 80 5B 07 80 F8 FF  .....s068..[....
0490: FF 7F F8 FF FF 7F 70 61  73 30 1D 2D 80 23 5E 69  ......pas0.-.#^i
04A0: 64 6C 30 1C 24 80 5B 07  80 F8 FF FF 7F F8 FF FF  dl0.$.[.........
04B0: 7F 74 6C 6B 30 1D 1F 80  23 45 2E 80 F0 FF FF 7F  .tlk0...#E......
04C0: F0 FF FF 7F 71 73 74 63  0A 80 1C 07 80 46 00 20  ....qstc.....F. 
04D0: 00 21 00                                          .!.             
```

#### Opcodes

```
  0: 0x041F [0x42] SET_CLI_EVENT_CANCEL_DATA()
  1: 0x0420 [0x20] SET_CLI_EVENT_UC_FLAG: Lock player control
  2: 0x0422 [0x46] CAMERA_CONTROL: Disable user control
  3: 0x0424 [0x38] SET_CLIENT_EVENT_MODE(mode=3*)
  4: 0x0427 [0x45] LOAD_SCHEDULED_TASK: Load scheduler "s071" with entities [LocalPlayer, LocalPlayer], work=[130*, 0*]
  5: 0x0438 [0x27] REQ_SET(priority=0x64, entity_id=LocalPlayer, tag_num=0x2C)
  6: 0x043F [0x45] LOAD_SCHEDULED_TASK: Load scheduler "fdi1" with entities [LocalPlayer, LocalPlayer], work=[200*, 0*]
  7: 0x0450 [0x55] WAIT_LOAD_SCHEDULER: Wait for scheduler "s071" with entities [LocalPlayer, LocalPlayer], work=130*
  8: 0x045F [0x5B] LOAD_EXT_SCHEDULER: Load scheduler "tlk0" with entities [EventEntity, EventEntity], work=30*
  9: 0x046E [0x1D] PRINT_EVENT_MESSAGE(message_id=7892*)
    → "Ah, I see I was right about you. You've proved your mettle today. Further tempering may forge you into a hero among adventurers."
 10: 0x0471 [0x23] WAIT_FOR_DIALOG_INTERACTION
 11: 0x0472 [0x5E] EventEntity goes idle (kills current action) (animation: "idl0")
 12: 0x0477 [0x1C] WAIT(60* ticks)
 13: 0x047A [0x45] LOAD_SCHEDULED_TASK: Load scheduler "s068" with entities [LocalPlayer, LocalPlayer], work=[130*, 0*]
 14: 0x048B [0x5B] LOAD_EXT_SCHEDULER: Load scheduler "pas0" with entities [EventEntity, EventEntity], work=30*
 15: 0x049A [0x1D] PRINT_EVENT_MESSAGE(message_id=7893*)
    → "In recognition of your success, I offer this sword. Train diligently, and grow strong."
 16: 0x049D [0x23] WAIT_FOR_DIALOG_INTERACTION
 17: 0x049E [0x5E] EventEntity goes idle (kills current action) (animation: "idl0")
 18: 0x04A3 [0x1C] WAIT(60* ticks)
 19: 0x04A6 [0x5B] LOAD_EXT_SCHEDULER: Load scheduler "tlk0" with entities [EventEntity, EventEntity], work=30*
 20: 0x04B5 [0x1D] PRINT_EVENT_MESSAGE(message_id=7894*)
    → "You're a little too new at this to undertake my challenge. Train further, and return here once you feel ready."
 21: 0x04B8 [0x23] WAIT_FOR_DIALOG_INTERACTION
 22: 0x04B9 [0x45] LOAD_SCHEDULED_TASK: Load scheduler "qstc" with entities [LocalPlayer, LocalPlayer], work=[201*, 0*]
 23: 0x04CA [0x1C] WAIT(30* ticks)
 24: 0x04CD [0x46] CAMERA_CONTROL: Restore default settings
 25: 0x04CF [0x20] SET_CLI_EVENT_UC_FLAG: Unlock player control
 26: 0x04D1 [0x21] END_EVENT
 27: 0x04D2 [0x00] END_REQSTACK()
```

### Event 625

#### Metadata

| Field        | Value     |
|--------------|-----------|
| Entrypoint   | 0x04D3    |
| Data Size    | 182 bytes |
| Instructions | 34        |

```
      00 01 02 03 04 05 06 07  08 09 0A 0B 0C 0D 0E 0F
      -- -- -- -- -- -- -- --  -- -- -- -- -- -- -- --
04D0:          42 46 01 38 20  80 45 21 80 F0 FF FF 7F     BF.8 .E!.....
04E0: F0 FF FF 7F 73 30 37 32  0A 80 27 64 F0 FF FF 7F  ....s072..'d....
04F0: 2C 45 22 80 F0 FF FF 7F  F0 FF FF 7F 66 64 69 31  ,E".........fdi1
0500: 0A 80 55 21 80 F0 FF FF  7F F0 FF FF 7F 73 30 37  ..U!.........s07
0510: 32 5B 07 80 F8 FF FF 7F  F8 FF FF 7F 74 6C 6B 30  2[..........tlk0
0520: 1D 2F 80 23 1C 24 80 45  21 80 F0 FF FF 7F F0 FF  ./.#.$.E!.......
0530: FF 7F 73 30 36 38 0A 80  1D 30 80 23 1C 24 80 1D  ..s068...0.#.$..
0540: 31 80 23 5E 69 64 6C 30  1C 24 80 45 21 80 F0 FF  1.#^idl0.$.E!...
0550: FF 7F F0 FF FF 7F 73 30  36 39 0A 80 5B 07 80 F8  ......s069..[...
0560: FF FF 7F F8 FF FF 7F 74  6C 6B 30 1D 32 80 23 1C  .......tlk0.2.#.
0570: 24 80 1D 33 80 23 1C 24  80 1D 34 80 23 5E 69 64  $..3.#.$..4.#^id
0580: 6C 30 1C 07 80 46 00 21  00                       l0...F.!.       
```

#### Opcodes

```
  0: 0x04D3 [0x42] SET_CLI_EVENT_CANCEL_DATA()
  1: 0x04D4 [0x46] CAMERA_CONTROL: Disable user control
  2: 0x04D6 [0x38] SET_CLIENT_EVENT_MODE(mode=3*)
  3: 0x04D9 [0x45] LOAD_SCHEDULED_TASK: Load scheduler "s072" with entities [LocalPlayer, LocalPlayer], work=[130*, 0*]
  4: 0x04EA [0x27] REQ_SET(priority=0x64, entity_id=LocalPlayer, tag_num=0x2C)
  5: 0x04F1 [0x45] LOAD_SCHEDULED_TASK: Load scheduler "fdi1" with entities [LocalPlayer, LocalPlayer], work=[200*, 0*]
  6: 0x0502 [0x55] WAIT_LOAD_SCHEDULER: Wait for scheduler "s072" with entities [LocalPlayer, LocalPlayer], work=130*
  7: 0x0511 [0x5B] LOAD_EXT_SCHEDULER: Load scheduler "tlk0" with entities [EventEntity, EventEntity], work=30*
  8: 0x0520 [0x1D] PRINT_EVENT_MESSAGE(message_id=7942*)
    → "Ah, you've come quite a way since last we met, I see. I believe you're ready for another task!"
  9: 0x0523 [0x23] WAIT_FOR_DIALOG_INTERACTION
 10: 0x0524 [0x1C] WAIT(60* ticks)
 11: 0x0527 [0x45] LOAD_SCHEDULED_TASK: Load scheduler "s068" with entities [LocalPlayer, LocalPlayer], work=[130*, 0*]
 12: 0x0538 [0x1D] PRINT_EVENT_MESSAGE(message_id=7943*)
    → "I'd like you to go to Ordelle's Caves. You'll find the entrance in a valley on La Theine Plateau."
 13: 0x053B [0x23] WAIT_FOR_DIALOG_INTERACTION
 14: 0x053C [0x1C] WAIT(60* ticks)
 15: 0x053F [0x1D] PRINT_EVENT_MESSAGE(message_id=7944*)
    → "Those caves are also called the "Body Caves." Know you why?"
 16: 0x0542 [0x23] WAIT_FOR_DIALOG_INTERACTION
 17: 0x0543 [0x5E] EventEntity goes idle (kills current action) (animation: "idl0")
 18: 0x0548 [0x1C] WAIT(60* ticks)
 19: 0x054B [0x45] LOAD_SCHEDULED_TASK: Load scheduler "s069" with entities [LocalPlayer, LocalPlayer], work=[130*, 0*]
 20: 0x055C [0x5B] LOAD_EXT_SCHEDULER: Load scheduler "tlk0" with entities [EventEntity, EventEntity], work=30*
 21: 0x056B [0x1D] PRINT_EVENT_MESSAGE(message_id=7945*)
    → "It is because the caves are shaped much like the body of a person. You are acquainted with its structure, yes?"
 22: 0x056E [0x23] WAIT_FOR_DIALOG_INTERACTION
 23: 0x056F [0x1C] WAIT(60* ticks)
 24: 0x0572 [0x1D] PRINT_EVENT_MESSAGE(message_id=7946*)
    → "Where in a body would lie the belly, in the caves flows a waterfall of much beauty. I want you to visit the waterfall, and return hither."
 25: 0x0575 [0x23] WAIT_FOR_DIALOG_INTERACTION
 26: 0x0576 [0x1C] WAIT(60* ticks)
 27: 0x0579 [0x1D] PRINT_EVENT_MESSAGE(message_id=7947*)
    → "I want proof of your trip, however. Bring me something out from that place. You must choose something."
 28: 0x057C [0x23] WAIT_FOR_DIALOG_INTERACTION
 29: 0x057D [0x5E] EventEntity goes idle (kills current action) (animation: "idl0")
 30: 0x0582 [0x1C] WAIT(30* ticks)
 31: 0x0585 [0x46] CAMERA_CONTROL: Restore default settings
 32: 0x0587 [0x21] END_EVENT
 33: 0x0588 [0x00] END_REQSTACK()
```

### Event 630

#### Metadata

| Field        | Value    |
|--------------|----------|
| Entrypoint   | 0x0589   |
| Data Size    | 67 bytes |
| Instructions | 14       |

```
      00 01 02 03 04 05 06 07  08 09 0A 0B 0C 0D 0E 0F
      -- -- -- -- -- -- -- --  -- -- -- -- -- -- -- --
0580:                             42 46 01 38 20 80 45           BF.8 .E
0590: 21 80 F0 FF FF 7F F0 FF  FF 7F 73 30 37 30 0A 80  !.........s070..
05A0: 79 00 3F 60 0E 01 42 60  0E 01 1C 24 80 1D 35 80  y.?`..B`...$..5.
05B0: 23 55 21 80 F0 FF FF 7F  F0 FF FF 7F 73 30 37 30  #U!.........s070
05C0: 7B 3F 60 0E 01 1C 24 80  46 00 21 00              {?`...$.F.!.    
```

#### Opcodes

```
  0: 0x0589 [0x42] SET_CLI_EVENT_CANCEL_DATA()
  1: 0x058A [0x46] CAMERA_CONTROL: Disable user control
  2: 0x058C [0x38] SET_CLIENT_EVENT_MODE(mode=3*)
  3: 0x058F [0x45] LOAD_SCHEDULED_TASK: Load scheduler "s070" with entities [LocalPlayer, LocalPlayer], work=[130*, 0*]
  4: 0x05A0 [0x79] Balasiel (ID: 17719359/0x010E603F) looks at Chanpau (ID: 17719362/0x010E6042) (Basic look)
  5: 0x05AA [0x1C] WAIT(60* ticks)
  6: 0x05AD [0x1D] PRINT_EVENT_MESSAGE(message_id=7948*)
    → "Come to think of it, the time I sent another to the waterfall, he, too, had quite a hard time! Heh-heh."
  7: 0x05B0 [0x23] WAIT_FOR_DIALOG_INTERACTION
  8: 0x05B1 [0x55] WAIT_LOAD_SCHEDULER: Wait for scheduler "s070" with entities [LocalPlayer, LocalPlayer], work=130*
  9: 0x05C0 [0x7B] Balasiel (ID: 17719359/0x010E603F) stops talking
 10: 0x05C5 [0x1C] WAIT(60* ticks)
 11: 0x05C8 [0x46] CAMERA_CONTROL: Restore default settings
 12: 0x05CA [0x21] END_EVENT
 13: 0x05CB [0x00] END_REQSTACK()
```

### Event 626

#### Metadata

| Field        | Value     |
|--------------|-----------|
| Entrypoint   | 0x05CC    |
| Data Size    | 164 bytes |
| Instructions | 26        |

```
      00 01 02 03 04 05 06 07  08 09 0A 0B 0C 0D 0E 0F
      -- -- -- -- -- -- -- --  -- -- -- -- -- -- -- --
05C0:                                      42 46 01 38              BF.8
05D0: 20 80 45 21 80 F0 FF FF  7F F0 FF FF 7F 73 30 37   .E!.........s07
05E0: 35 0A 80 27 64 F0 FF FF  7F 2C 45 22 80 F0 FF FF  5..'d....,E"....
05F0: 7F F0 FF FF 7F 66 64 69  31 0A 80 55 21 80 F0 FF  .....fdi1..U!...
0600: FF 7F F0 FF FF 7F 73 30  37 35 5B 07 80 F8 FF FF  ......s075[.....
0610: 7F F8 FF FF 7F 74 6C 6B  30 1D 36 80 23 5E 69 64  .....tlk0.6.#^id
0620: 6C 30 1C 24 80 5B 07 80  F8 FF FF 7F F8 FF FF 7F  l0.$.[..........
0630: 70 61 73 30 1D 37 80 23  5E 69 64 6C 30 1C 24 80  pas0.7.#^idl0.$.
0640: 5B 07 80 F8 FF FF 7F F8  FF FF 7F 74 6C 6B 30 1D  [..........tlk0.
0650: 1E 80 23 5E 69 64 6C 30  45 2E 80 F0 FF FF 7F F0  ..#^idl0E.......
0660: FF FF 7F 71 73 74 63 0A  80 1C 07 80 46 00 21 00  ...qstc.....F.!.
```

#### Opcodes

```
  0: 0x05CC [0x42] SET_CLI_EVENT_CANCEL_DATA()
  1: 0x05CD [0x46] CAMERA_CONTROL: Disable user control
  2: 0x05CF [0x38] SET_CLIENT_EVENT_MODE(mode=3*)
  3: 0x05D2 [0x45] LOAD_SCHEDULED_TASK: Load scheduler "s075" with entities [LocalPlayer, LocalPlayer], work=[130*, 0*]
  4: 0x05E3 [0x27] REQ_SET(priority=0x64, entity_id=LocalPlayer, tag_num=0x2C)
  5: 0x05EA [0x45] LOAD_SCHEDULED_TASK: Load scheduler "fdi1" with entities [LocalPlayer, LocalPlayer], work=[200*, 0*]
  6: 0x05FB [0x55] WAIT_LOAD_SCHEDULER: Wait for scheduler "s075" with entities [LocalPlayer, LocalPlayer], work=130*
  7: 0x060A [0x5B] LOAD_EXT_SCHEDULER: Load scheduler "tlk0" with entities [EventEntity, EventEntity], work=30*
  8: 0x0619 [0x1D] PRINT_EVENT_MESSAGE(message_id=7954*)
    → "Ah, you're back, and in one piece! And you've brought proof of your trip to the waterfall. Well done!"
  9: 0x061C [0x23] WAIT_FOR_DIALOG_INTERACTION
 10: 0x061D [0x5E] EventEntity goes idle (kills current action) (animation: "idl0")
 11: 0x0622 [0x1C] WAIT(60* ticks)
 12: 0x0625 [0x5B] LOAD_EXT_SCHEDULER: Load scheduler "pas0" with entities [EventEntity, EventEntity], work=30*
 13: 0x0634 [0x1D] PRINT_EVENT_MESSAGE(message_id=7955*)
    → "Here, a certificate to mark your accomplishment. Keep it always!"
 14: 0x0637 [0x23] WAIT_FOR_DIALOG_INTERACTION
 15: 0x0638 [0x5E] EventEntity goes idle (kills current action) (animation: "idl0")
 16: 0x063D [0x1C] WAIT(60* ticks)
 17: 0x0640 [0x5B] LOAD_EXT_SCHEDULER: Load scheduler "tlk0" with entities [EventEntity, EventEntity], work=30*
 18: 0x064F [0x1D] PRINT_EVENT_MESSAGE(message_id=7956*)
    → "When you've progressed further, visit me again. Next time, a thorough test of your mettle will be in order!"
 19: 0x0652 [0x23] WAIT_FOR_DIALOG_INTERACTION
 20: 0x0653 [0x5E] EventEntity goes idle (kills current action) (animation: "idl0")
 21: 0x0658 [0x45] LOAD_SCHEDULED_TASK: Load scheduler "qstc" with entities [LocalPlayer, LocalPlayer], work=[201*, 0*]
 22: 0x0669 [0x1C] WAIT(30* ticks)
 23: 0x066C [0x46] CAMERA_CONTROL: Restore default settings
 24: 0x066E [0x21] END_EVENT
 25: 0x066F [0x00] END_REQSTACK()
```

### Event 627

#### Metadata

| Field        | Value     |
|--------------|-----------|
| Entrypoint   | 0x0670    |
| Data Size    | 409 bytes |
| Instructions | 65        |

```
      00 01 02 03 04 05 06 07  08 09 0A 0B 0C 0D 0E 0F
      -- -- -- -- -- -- -- --  -- -- -- -- -- -- -- --
0670: 42 46 01 38 20 80 45 21  80 F0 FF FF 7F F0 FF FF  BF.8 .E!........
0680: 7F 73 30 36 37 38 80 27  64 F0 FF FF 7F 2C 45 22  .s0678.'d....,E"
0690: 80 F0 FF FF 7F F0 FF FF  7F 66 64 69 31 0A 80 55  .........fdi1..U
06A0: 21 80 F0 FF FF 7F F0 FF  FF 7F 73 30 36 37 5B 07  !.........s067[.
06B0: 80 F8 FF FF 7F F8 FF FF  7F 74 6C 6B 30 1D 39 80  .........tlk0.9.
06C0: 23 5E 69 64 6C 30 1C 24  80 45 21 80 F0 FF FF 7F  #^idl0.$.E!.....
06D0: F0 FF FF 7F 73 30 36 38  0A 80 5B 07 80 F8 FF FF  ....s068..[.....
06E0: 7F F8 FF FF 7F 74 6C 6B  30 1D 3A 80 23 5E 69 64  .....tlk0.:.#^id
06F0: 6C 30 24 3B 80 09 80 0A  80 25 02 00 10 0A 80 00  l0$;.....%......
0700: 2C 07 5B 07 80 F8 FF FF  7F F8 FF FF 7F 70 61 73  ,.[..........pas
0710: 30 1D 3C 80 23 1C 24 80  1D 1D 80 23 5E 69 64 6C  0.<.#.$....#^idl
0720: 30 1C 07 80 03 01 10 0A  80 01 05 08 02 00 10 09  0...............
0730: 80 00 05 08 5B 07 80 F8  FF FF 7F F8 FF FF 7F 74  ....[..........t
0740: 6C 6B 30 1D 3D 80 23 5E  69 64 6C 30 1C 24 80 45  lk0.=.#^idl0.$.E
0750: 21 80 F0 FF FF 7F F0 FF  FF 7F 73 30 37 33 0A 80  !.........s073..
0760: 5B 07 80 F8 FF FF 7F F8  FF FF 7F 74 6C 6B 30 1D  [..........tlk0.
0770: 3E 80 23 55 21 80 F0 FF  FF 7F F0 FF FF 7F 73 30  >.#U!.........s0
0780: 37 33 5E 69 64 6C 30 1C  24 80 45 21 80 F0 FF FF  73^idl0.$.E!....
0790: 7F F0 FF FF 7F 73 30 37  34 0A 80 5B 07 80 F8 FF  .....s074..[....
07A0: FF 7F F8 FF FF 7F 74 6C  6B 30 1D 3F 80 23 5E 69  ......tlk0.?.#^i
07B0: 64 6C 30 1C 24 80 45 21  80 F0 FF FF 7F F0 FF FF  dl0.$.E!........
07C0: 7F 73 30 36 39 0A 80 5B  07 80 F8 FF FF 7F F8 FF  .s069..[........
07D0: FF 7F 74 6C 6B 30 1D 40  80 23 5E 69 64 6C 30 1C  ..tlk0.@.#^idl0.
07E0: 24 80 5B 07 80 F8 FF FF  7F F8 FF FF 7F 74 6C 6B  $.[..........tlk
07F0: 30 1D 41 80 23 5E 69 64  6C 30 1C 07 80 03 01 10  0.A.#^idl0......
0800: 09 80 01 05 08 46 00 21  00                       .....F.!.       
```

#### Opcodes

```
  0: 0x0670 [0x42] SET_CLI_EVENT_CANCEL_DATA()
  1: 0x0671 [0x46] CAMERA_CONTROL: Disable user control
  2: 0x0673 [0x38] SET_CLIENT_EVENT_MODE(mode=3*)
  3: 0x0676 [0x45] LOAD_SCHEDULED_TASK: Load scheduler "s067" with entities [LocalPlayer, LocalPlayer], work=[130*, 300*]
  4: 0x0687 [0x27] REQ_SET(priority=0x64, entity_id=LocalPlayer, tag_num=0x2C)
  5: 0x068E [0x45] LOAD_SCHEDULED_TASK: Load scheduler "fdi1" with entities [LocalPlayer, LocalPlayer], work=[200*, 0*]
  6: 0x069F [0x55] WAIT_LOAD_SCHEDULER: Wait for scheduler "s067" with entities [LocalPlayer, LocalPlayer], work=130*
  7: 0x06AE [0x5B] LOAD_EXT_SCHEDULER: Load scheduler "tlk0" with entities [EventEntity, EventEntity], work=30*
  8: 0x06BD [0x1D] PRINT_EVENT_MESSAGE(message_id=8028*)
    → "Ah, how far you've come since we last spoke. I expected no less of you."
  9: 0x06C0 [0x23] WAIT_FOR_DIALOG_INTERACTION
 10: 0x06C1 [0x5E] EventEntity goes idle (kills current action) (animation: "idl0")
 11: 0x06C6 [0x1C] WAIT(60* ticks)
 12: 0x06C9 [0x45] LOAD_SCHEDULED_TASK: Load scheduler "s068" with entities [LocalPlayer, LocalPlayer], work=[130*, 0*]
 13: 0x06DA [0x5B] LOAD_EXT_SCHEDULER: Load scheduler "tlk0" with entities [EventEntity, EventEntity], work=30*
 14: 0x06E9 [0x1D] PRINT_EVENT_MESSAGE(message_id=8029*)
    → "I have one last task for you, if your heart is ready."
 15: 0x06EC [0x23] WAIT_FOR_DIALOG_INTERACTION
 16: 0x06ED [0x5E] EventEntity goes idle (kills current action) (animation: "idl0")
 17: 0x06F2 [0x24] CREATE_DIALOG(message_id=8030*, default_option=1*, option_flags=0*)
    → "Are you prepared? [I'm ready./I need to think about it.]"
 18: 0x06F9 [0x25] WAIT_DIALOG_SELECT()
 19: 0x06FA [0x02] IF !(Work_Zone[0] == 0*) GOTO 0x072C
 20: 0x0702 [0x5B] LOAD_EXT_SCHEDULER: Load scheduler "pas0" with entities [EventEntity, EventEntity], work=30*
 21: 0x0711 [0x1D] PRINT_EVENT_MESSAGE(message_id=8036*)
    → "Excellent. This will be your last task, then. I entrust you with this book. Everything else is up to you."
 22: 0x0714 [0x23] WAIT_FOR_DIALOG_INTERACTION
 23: 0x0715 [0x1C] WAIT(60* ticks)
 24: 0x0718 [0x1D] PRINT_EVENT_MESSAGE(message_id=8037*)
    → "The way of the sword is the way of action! Now, go!"
 25: 0x071B [0x23] WAIT_FOR_DIALOG_INTERACTION
 26: 0x071C [0x5E] EventEntity goes idle (kills current action) (animation: "idl0")
 27: 0x0721 [0x1C] WAIT(30* ticks)
 28: 0x0724 [0x03] Work_Zone[1] = 0*
 29: 0x0729 [0x01] GOTO 0x0805
 30: 0x072C [0x02] IF !(Work_Zone[0] == 1*) GOTO 0x0805
 31: 0x0734 [0x5B] LOAD_EXT_SCHEDULER: Load scheduler "tlk0" with entities [EventEntity, EventEntity], work=30*
 32: 0x0743 [0x1D] PRINT_EVENT_MESSAGE(message_id=8031*)
    → "I see, and I respect your decision. My tasks are not to be taken lightly."
 33: 0x0746 [0x23] WAIT_FOR_DIALOG_INTERACTION
 34: 0x0747 [0x5E] EventEntity goes idle (kills current action) (animation: "idl0")
 35: 0x074C [0x1C] WAIT(60* ticks)
 36: 0x074F [0x45] LOAD_SCHEDULED_TASK: Load scheduler "s073" with entities [LocalPlayer, LocalPlayer], work=[130*, 0*]
 37: 0x0760 [0x5B] LOAD_EXT_SCHEDULER: Load scheduler "tlk0" with entities [EventEntity, EventEntity], work=30*
 38: 0x076F [0x1D] PRINT_EVENT_MESSAGE(message_id=8032*)
    → "Yes, in fact, I have sent many on this task, and many have failed..."
 39: 0x0772 [0x23] WAIT_FOR_DIALOG_INTERACTION
 40: 0x0773 [0x55] WAIT_LOAD_SCHEDULER: Wait for scheduler "s073" with entities [LocalPlayer, LocalPlayer], work=130*
 41: 0x0782 [0x5E] EventEntity goes idle (kills current action) (animation: "idl0")
 42: 0x0787 [0x1C] WAIT(60* ticks)
 43: 0x078A [0x45] LOAD_SCHEDULED_TASK: Load scheduler "s074" with entities [LocalPlayer, LocalPlayer], work=[130*, 0*]
 44: 0x079B [0x5B] LOAD_EXT_SCHEDULER: Load scheduler "tlk0" with entities [EventEntity, EventEntity], work=30*
 45: 0x07AA [0x1D] PRINT_EVENT_MESSAGE(message_id=8033*)
    → "All so confident when they set out... Though some never returned."
 46: 0x07AD [0x23] WAIT_FOR_DIALOG_INTERACTION
 47: 0x07AE [0x5E] EventEntity goes idle (kills current action) (animation: "idl0")
 48: 0x07B3 [0x1C] WAIT(60* ticks)
 49: 0x07B6 [0x45] LOAD_SCHEDULED_TASK: Load scheduler "s069" with entities [LocalPlayer, LocalPlayer], work=[130*, 0*]
 50: 0x07C7 [0x5B] LOAD_EXT_SCHEDULER: Load scheduler "tlk0" with entities [EventEntity, EventEntity], work=30*
 51: 0x07D6 [0x1D] PRINT_EVENT_MESSAGE(message_id=8034*)
    → "Sometimes, you must be the judge of your own strength, for none other can take your true measure."
 52: 0x07D9 [0x23] WAIT_FOR_DIALOG_INTERACTION
 53: 0x07DA [0x5E] EventEntity goes idle (kills current action) (animation: "idl0")
 54: 0x07DF [0x1C] WAIT(60* ticks)
 55: 0x07E2 [0x5B] LOAD_EXT_SCHEDULER: Load scheduler "tlk0" with entities [EventEntity, EventEntity], work=30*
 56: 0x07F1 [0x1D] PRINT_EVENT_MESSAGE(message_id=8035*)
    → "If you deem your skills still too crude, polish them and come back when you feel you are ready. I will be here, waiting."
 57: 0x07F4 [0x23] WAIT_FOR_DIALOG_INTERACTION
 58: 0x07F5 [0x5E] EventEntity goes idle (kills current action) (animation: "idl0")
 59: 0x07FA [0x1C] WAIT(30* ticks)
 60: 0x07FD [0x03] Work_Zone[1] = 1*
 61: 0x0802 [0x01] GOTO 0x0805

SUBROUTINE_0805:
 62: 0x0805 [0x46] CAMERA_CONTROL: Restore default settings
 63: 0x0807 [0x21] END_EVENT
 64: 0x0808 [0x00] END_REQSTACK()
```

### Event 635

#### Metadata

| Field        | Value     |
|--------------|-----------|
| Entrypoint   | 0x0809    |
| Data Size    | 214 bytes |
| Instructions | 38        |

```
      00 01 02 03 04 05 06 07  08 09 0A 0B 0C 0D 0E 0F
      -- -- -- -- -- -- -- --  -- -- -- -- -- -- -- --
0800:                             42 46 01 38 20 80 45           BF.8 .E
0810: 21 80 F0 FF FF 7F F0 FF  FF 7F 73 30 37 35 0A 80  !.........s075..
0820: 27 64 F0 FF FF 7F 2C 55  21 80 F0 FF FF 7F F0 FF  'd....,U!.......
0830: FF 7F 73 30 37 35 1C 24  80 45 21 80 F0 FF FF 7F  ..s075.$.E!.....
0840: F0 FF FF 7F 73 30 36 38  0A 80 5B 07 80 F8 FF FF  ....s068..[.....
0850: 7F F8 FF FF 7F 74 6C 6B  30 1D 3A 80 23 5E 69 64  .....tlk0.:.#^id
0860: 6C 30 1C 24 80 24 3B 80  09 80 0A 80 25 02 00 10  l0.$.$;.....%...
0870: 0A 80 00 9F 08 5B 07 80  F8 FF FF 7F F8 FF FF 7F  .....[..........
0880: 70 61 73 30 1D 3C 80 23  1C 24 80 1D 1D 80 23 5E  pas0.<.#.$....#^
0890: 69 64 6C 30 1C 07 80 03  01 10 0A 80 01 DB 08 02  idl0............
08A0: 00 10 09 80 00 DB 08 45  21 80 F0 FF FF 7F F0 FF  .......E!.......
08B0: FF 7F 73 30 36 39 0A 80  5B 07 80 F8 FF FF 7F F8  ..s069..[.......
08C0: FF FF 7F 74 6C 6B 30 1D  41 80 23 5E 69 64 6C 30  ...tlk0.A.#^idl0
08D0: 1C 07 80 03 01 10 09 80  01 DB 08 46 00 21 00     ...........F.!. 
```

#### Opcodes

```
  0: 0x0809 [0x42] SET_CLI_EVENT_CANCEL_DATA()
  1: 0x080A [0x46] CAMERA_CONTROL: Disable user control
  2: 0x080C [0x38] SET_CLIENT_EVENT_MODE(mode=3*)
  3: 0x080F [0x45] LOAD_SCHEDULED_TASK: Load scheduler "s075" with entities [LocalPlayer, LocalPlayer], work=[130*, 0*]
  4: 0x0820 [0x27] REQ_SET(priority=0x64, entity_id=LocalPlayer, tag_num=0x2C)
  5: 0x0827 [0x55] WAIT_LOAD_SCHEDULER: Wait for scheduler "s075" with entities [LocalPlayer, LocalPlayer], work=130*
  6: 0x0836 [0x1C] WAIT(60* ticks)
  7: 0x0839 [0x45] LOAD_SCHEDULED_TASK: Load scheduler "s068" with entities [LocalPlayer, LocalPlayer], work=[130*, 0*]
  8: 0x084A [0x5B] LOAD_EXT_SCHEDULER: Load scheduler "tlk0" with entities [EventEntity, EventEntity], work=30*
  9: 0x0859 [0x1D] PRINT_EVENT_MESSAGE(message_id=8029*)
    → "I have one last task for you, if your heart is ready."
 10: 0x085C [0x23] WAIT_FOR_DIALOG_INTERACTION
 11: 0x085D [0x5E] EventEntity goes idle (kills current action) (animation: "idl0")
 12: 0x0862 [0x1C] WAIT(60* ticks)
 13: 0x0865 [0x24] CREATE_DIALOG(message_id=8030*, default_option=1*, option_flags=0*)
    → "Are you prepared? [I'm ready./I need to think about it.]"
 14: 0x086C [0x25] WAIT_DIALOG_SELECT()
 15: 0x086D [0x02] IF !(Work_Zone[0] == 0*) GOTO 0x089F
 16: 0x0875 [0x5B] LOAD_EXT_SCHEDULER: Load scheduler "pas0" with entities [EventEntity, EventEntity], work=30*
 17: 0x0884 [0x1D] PRINT_EVENT_MESSAGE(message_id=8036*)
    → "Excellent. This will be your last task, then. I entrust you with this book. Everything else is up to you."
 18: 0x0887 [0x23] WAIT_FOR_DIALOG_INTERACTION
 19: 0x0888 [0x1C] WAIT(60* ticks)
 20: 0x088B [0x1D] PRINT_EVENT_MESSAGE(message_id=8037*)
    → "The way of the sword is the way of action! Now, go!"
 21: 0x088E [0x23] WAIT_FOR_DIALOG_INTERACTION
 22: 0x088F [0x5E] EventEntity goes idle (kills current action) (animation: "idl0")
 23: 0x0894 [0x1C] WAIT(30* ticks)
 24: 0x0897 [0x03] Work_Zone[1] = 0*
 25: 0x089C [0x01] GOTO 0x08DB
 26: 0x089F [0x02] IF !(Work_Zone[0] == 1*) GOTO 0x08DB
 27: 0x08A7 [0x45] LOAD_SCHEDULED_TASK: Load scheduler "s069" with entities [LocalPlayer, LocalPlayer], work=[130*, 0*]
 28: 0x08B8 [0x5B] LOAD_EXT_SCHEDULER: Load scheduler "tlk0" with entities [EventEntity, EventEntity], work=30*
 29: 0x08C7 [0x1D] PRINT_EVENT_MESSAGE(message_id=8035*)
    → "If you deem your skills still too crude, polish them and come back when you feel you are ready. I will be here, waiting."
 30: 0x08CA [0x23] WAIT_FOR_DIALOG_INTERACTION
 31: 0x08CB [0x5E] EventEntity goes idle (kills current action) (animation: "idl0")
 32: 0x08D0 [0x1C] WAIT(30* ticks)
 33: 0x08D3 [0x03] Work_Zone[1] = 1*
 34: 0x08D8 [0x01] GOTO 0x08DB

SUBROUTINE_08DB:
 35: 0x08DB [0x46] CAMERA_CONTROL: Restore default settings
 36: 0x08DD [0x21] END_EVENT
 37: 0x08DE [0x00] END_REQSTACK()
```

### Event 628

#### Metadata

| Field        | Value     |
|--------------|-----------|
| Entrypoint   | 0x08DF    |
| Data Size    | 117 bytes |
| Instructions | 19        |

```
      00 01 02 03 04 05 06 07  08 09 0A 0B 0C 0D 0E 0F
      -- -- -- -- -- -- -- --  -- -- -- -- -- -- -- --
08D0:                                               42                 B
08E0: 46 01 38 20 80 45 21 80  F0 FF FF 7F F0 FF FF 7F  F.8 .E!.........
08F0: 73 30 36 38 0A 80 27 64  F0 FF FF 7F 2C 45 22 80  s068..'d....,E".
0900: F0 FF FF 7F F0 FF FF 7F  66 64 69 31 0A 80 5B 07  ........fdi1..[.
0910: 80 F8 FF FF 7F F8 FF FF  7F 74 6C 6B 30 1D 42 80  .........tlk0.B.
0920: 23 1C 24 80 5B 07 80 F8  FF FF 7F F8 FF FF 7F 70  #.$.[..........p
0930: 61 73 30 1D 43 80 23 5E  69 64 6C 30 45 2E 80 F0  as0.C.#^idl0E...
0940: FF FF 7F F0 FF FF 7F 71  73 74 63 0A 80 1C 07 80  .......qstc.....
0950: 46 00 21 00                                       F.!.            
```

#### Opcodes

```
  0: 0x08DF [0x42] SET_CLI_EVENT_CANCEL_DATA()
  1: 0x08E0 [0x46] CAMERA_CONTROL: Disable user control
  2: 0x08E2 [0x38] SET_CLIENT_EVENT_MODE(mode=3*)
  3: 0x08E5 [0x45] LOAD_SCHEDULED_TASK: Load scheduler "s068" with entities [LocalPlayer, LocalPlayer], work=[130*, 0*]
  4: 0x08F6 [0x27] REQ_SET(priority=0x64, entity_id=LocalPlayer, tag_num=0x2C)
  5: 0x08FD [0x45] LOAD_SCHEDULED_TASK: Load scheduler "fdi1" with entities [LocalPlayer, LocalPlayer], work=[200*, 0*]
  6: 0x090E [0x5B] LOAD_EXT_SCHEDULER: Load scheduler "tlk0" with entities [EventEntity, EventEntity], work=30*
  7: 0x091D [0x1D] PRINT_EVENT_MESSAGE(message_id=8045*)
    → "You've completed your task with flying colors. You are ready to become a knight, I believe."
  8: 0x0920 [0x23] WAIT_FOR_DIALOG_INTERACTION
  9: 0x0921 [0x1C] WAIT(60* ticks)
 10: 0x0924 [0x5B] LOAD_EXT_SCHEDULER: Load scheduler "pas0" with entities [EventEntity, EventEntity], work=30*
 11: 0x0933 [0x1D] PRINT_EVENT_MESSAGE(message_id=8046*)
    → "This is my gift to you, to commemorate this occasion. Accept it with easy heart, for you have earned it!"
 12: 0x0936 [0x23] WAIT_FOR_DIALOG_INTERACTION
 13: 0x0937 [0x5E] EventEntity goes idle (kills current action) (animation: "idl0")
 14: 0x093C [0x45] LOAD_SCHEDULED_TASK: Load scheduler "qstc" with entities [LocalPlayer, LocalPlayer], work=[201*, 0*]
 15: 0x094D [0x1C] WAIT(30* ticks)
 16: 0x0950 [0x46] CAMERA_CONTROL: Restore default settings
 17: 0x0952 [0x21] END_EVENT
 18: 0x0953 [0x00] END_REQSTACK()
```

### Event 63

#### Metadata

| Field        | Value   |
|--------------|---------|
| Entrypoint   | 0x0954  |
| Data Size    | 1 bytes |
| Instructions | 1       |

```
      00 01 02 03 04 05 06 07  08 09 0A 0B 0C 0D 0E 0F
      -- -- -- -- -- -- -- --  -- -- -- -- -- -- -- --
0950:             00                                        .           
```

#### Opcodes

```
  0: 0x0954 [0x00] END_REQSTACK()
```

### Event 65535.4

#### Metadata

| Field        | Value    |
|--------------|----------|
| Entrypoint   | 0x0955   |
| Data Size    | 10 bytes |
| Instructions | 2        |

```
      00 01 02 03 04 05 06 07  08 09 0A 0B 0C 0D 0E 0F
      -- -- -- -- -- -- -- --  -- -- -- -- -- -- -- --
0950:                37 44 80  45 80 46 80 47 80 00          7D.E.F.G.. 
```

#### Opcodes

```
  0: 0x0955 [0x37] UPDATE_EVENT_POSITION_AND_DIR: x=-83.987*, z=-17.151*, y=-7.398*, direction=46.7°*
  1: 0x095E [0x00] END_REQSTACK()
```

### Event 65535.5

#### Metadata

| Field        | Value    |
|--------------|----------|
| Entrypoint   | 0x095F   |
| Data Size    | 20 bytes |
| Instructions | 3        |

```
      00 01 02 03 04 05 06 07  08 09 0A 0B 0C 0D 0E 0F
      -- -- -- -- -- -- -- --  -- -- -- -- -- -- -- --
0950:                                               37                 7
0960: 48 80 49 80 05 80 4A 80  79 00 F8 FF FF 7F F0 FF  H.I...J.y.......
0970: FF 7F 00                                          ...             
```

#### Opcodes

```
  0: 0x095F [0x37] UPDATE_EVENT_POSITION_AND_DIR: x=-138.332*, z=65.760*, y=-10.800*, direction=46.8°*
  1: 0x0968 [0x79] EventEntity looks at LocalPlayer (Basic look)
  2: 0x0972 [0x00] END_REQSTACK()
```

### Event 65535.6

#### Metadata

| Field        | Value    |
|--------------|----------|
| Entrypoint   | 0x0973   |
| Data Size    | 19 bytes |
| Instructions | 3        |

```
      00 01 02 03 04 05 06 07  08 09 0A 0B 0C 0D 0E 0F
      -- -- -- -- -- -- -- --  -- -- -- -- -- -- -- --
0970:          5B 07 80 F8 FF  FF 7F F8 FF FF 7F 74 6C     [..........tl
0980: 6B 30 1C 24 80 00                                 k0.$..          
```

#### Opcodes

```
  0: 0x0973 [0x5B] LOAD_EXT_SCHEDULER: Load scheduler "tlk0" with entities [EventEntity, EventEntity], work=30*
  1: 0x0982 [0x1C] WAIT(60* ticks)
  2: 0x0985 [0x00] END_REQSTACK()
```

### Event 65535.7

#### Metadata

| Field        | Value    |
|--------------|----------|
| Entrypoint   | 0x0986   |
| Data Size    | 29 bytes |
| Instructions | 3        |

```
      00 01 02 03 04 05 06 07  08 09 0A 0B 0C 0D 0E 0F
      -- -- -- -- -- -- -- --  -- -- -- -- -- -- -- --
0980:                   5B 07  80 F8 FF FF 7F F8 FF FF        [.........
0990: 7F 74 6C 6B 31 53 F8 FF  FF 7F F8 FF FF 7F 74 6C  .tlk1S........tl
09A0: 6B 31 00                                          k1.             
```

#### Opcodes

```
  0: 0x0986 [0x5B] LOAD_EXT_SCHEDULER: Load scheduler "tlk1" with entities [EventEntity, EventEntity], work=30*
  1: 0x0995 [0x53] WAIT_SCHEDULER_TASK: Wait for scheduler "tlk1" with entities [EventEntity, EventEntity]
  2: 0x09A2 [0x00] END_REQSTACK()
```

### Event 65535.8

#### Metadata

| Field        | Value    |
|--------------|----------|
| Entrypoint   | 0x09A3   |
| Data Size    | 19 bytes |
| Instructions | 3        |

```
      00 01 02 03 04 05 06 07  08 09 0A 0B 0C 0D 0E 0F
      -- -- -- -- -- -- -- --  -- -- -- -- -- -- -- --
09A0:          5B 07 80 F8 FF  FF 7F F8 FF FF 7F 74 68     [..........th
09B0: 6B 31 1C 24 80 00                                 k1.$..          
```

#### Opcodes

```
  0: 0x09A3 [0x5B] LOAD_EXT_SCHEDULER: Load scheduler "thk1" with entities [EventEntity, EventEntity], work=30*
  1: 0x09B2 [0x1C] WAIT(60* ticks)
  2: 0x09B5 [0x00] END_REQSTACK()
```

### Event 65535.9

#### Metadata

| Field        | Value    |
|--------------|----------|
| Entrypoint   | 0x09B6   |
| Data Size    | 32 bytes |
| Instructions | 4        |

```
      00 01 02 03 04 05 06 07  08 09 0A 0B 0C 0D 0E 0F
      -- -- -- -- -- -- -- --  -- -- -- -- -- -- -- --
09B0:                   53 F8  FF FF 7F F8 FF FF 7F 74        S........t
09C0: 68 6B 31 5B 07 80 F8 FF  FF 7F F8 FF FF 7F 74 68  hk1[..........th
09D0: 6B 32 1C 24 80 00                                 k2.$..          
```

#### Opcodes

```
  0: 0x09B6 [0x53] WAIT_SCHEDULER_TASK: Wait for scheduler "thk1" with entities [EventEntity, EventEntity]
  1: 0x09C3 [0x5B] LOAD_EXT_SCHEDULER: Load scheduler "thk2" with entities [EventEntity, EventEntity], work=30*
  2: 0x09D2 [0x1C] WAIT(60* ticks)
  3: 0x09D5 [0x00] END_REQSTACK()
```

### Event 65535.10

#### Metadata

| Field        | Value    |
|--------------|----------|
| Entrypoint   | 0x09D6   |
| Data Size    | 29 bytes |
| Instructions | 3        |

```
      00 01 02 03 04 05 06 07  08 09 0A 0B 0C 0D 0E 0F
      -- -- -- -- -- -- -- --  -- -- -- -- -- -- -- --
09D0:                   5B 07  80 F8 FF FF 7F F8 FF FF        [.........
09E0: 7F 70 61 73 30 53 F8 FF  FF 7F F8 FF FF 7F 70 61  .pas0S........pa
09F0: 73 30 00                                          s0.             
```

#### Opcodes

```
  0: 0x09D6 [0x5B] LOAD_EXT_SCHEDULER: Load scheduler "pas0" with entities [EventEntity, EventEntity], work=30*
  1: 0x09E5 [0x53] WAIT_SCHEDULER_TASK: Wait for scheduler "pas0" with entities [EventEntity, EventEntity]
  2: 0x09F2 [0x00] END_REQSTACK()
```
