# 17719417 - Open2

## Common Data

| Field            | Value                         |
|------------------|-------------------------------|
| Zone             | Southern San d'Oria (ID: 230) |
| Block Size       | 92 bytes                      |
| Total Events     | 3                             |
| References Count | 7                             |

## List of Events

| Event ID                 | Entrypoint   |   Size |   Instructions |
|--------------------------|--------------|--------|----------------|
| [65535](#event-65535)    | 0x0000       |      1 |              1 |
| [503](#event-503)        | 0x0001       |      1 |              1 |
| [65535.1](#event-655351) | 0x0002       |     31 |              7 |

## DAT References (imed_data)

|   Index | Hex Value   |   Dec Value |
|---------|-------------|-------------|
|       0 | 0x0014      |          20 |
|       1 | 0xFFFEE5AD  |  4294895021 |
|       2 | 0xFFFFD25C  |  4294955612 |
|       3 | 0x07CF      |        1999 |
|       4 | 0x0950      |        2384 |
|       5 | 0xFFFEAC2D  |  4294880301 |
|       6 | 0xFFFFF72E  |  4294965038 |

## Events

### Event 65535

#### Metadata

| Field        | Value   |
|--------------|---------|
| Entrypoint   | 0x0000  |
| Data Size    | 1 bytes |
| Instructions | 1       |

```
      00 01 02 03 04 05 06 07  08 09 0A 0B 0C 0D 0E 0F
      -- -- -- -- -- -- -- --  -- -- -- -- -- -- -- --
0000: 00                                                .               
```

#### Opcodes

```
  0: 0x0000 [0x00] END_REQSTACK()
```

### Event 503

#### Metadata

| Field        | Value   |
|--------------|---------|
| Entrypoint   | 0x0001  |
| Data Size    | 1 bytes |
| Instructions | 1       |

```
      00 01 02 03 04 05 06 07  08 09 0A 0B 0C 0D 0E 0F
      -- -- -- -- -- -- -- --  -- -- -- -- -- -- -- --
0000:    00                                              .              
```

#### Opcodes

```
  0: 0x0001 [0x00] END_REQSTACK()
```

### Event 65535.1

#### Metadata

| Field        | Value    |
|--------------|----------|
| Entrypoint   | 0x0002   |
| Data Size    | 31 bytes |
| Instructions | 7        |

```
      00 01 02 03 04 05 06 07  08 09 0A 0B 0C 0D 0E 0F
      -- -- -- -- -- -- -- --  -- -- -- -- -- -- -- --
0000:       2F 00 79 60 0E 01  22 00 32 00 80 37 01 80    /.y`..".2..7..
0010: 02 80 03 80 04 80 1F 00  05 80 06 80 03 80 1F 01  ................
0020: 00                                                .               
```

#### Opcodes

```
  0: 0x0002 [0x2F] Open2 (ID: 17719417/0x010E6079)->Render.Flags0 &= ~0x80000 // Bit 19
  1: 0x0008 [0x22] ENTITY_HIDE_FLAG(enabled=0x00)
  2: 0x000A [0x32] ExtData[1]->MainSpeed = 20* * 0.1
  3: 0x000D [0x37] UPDATE_EVENT_POSITION_AND_DIR: x=-72.275*, z=-11.684*, y=1.999*, direction=209.5°*
  4: 0x0016 [0x1F] MOVE_ENTITY: EventEntity moves to X=-86.995*, Z=-2.258*, Y=1.999*
  5: 0x001E [0x1F] MOVE_ENTITY: Update entity position (mode=1)
  6: 0x0020 [0x00] END_REQSTACK()
```
