# 17719330 - Deraquien

## Common Data

| Field            | Value                         |
|------------------|-------------------------------|
| Zone             | Southern San d'Oria (ID: 230) |
| Block Size       | 768 bytes                     |
| Total Events     | 28                            |
| References Count | 23                            |

## List of Events

| Event ID                   | Entrypoint   |   Size |   Instructions |
|----------------------------|--------------|--------|----------------|
| [65535](#event-65535)      | 0x0000       |      1 |              1 |
| [654](#event-654)          | 0x0001       |     77 |             16 |
| [18](#event-18)            | 0x004E       |     77 |             16 |
| [33](#event-33)            | 0x009B       |      7 |              2 |
| [47](#event-47)            | 0x00A2       |     64 |             20 |
| [34](#event-34)            | 0x00E2       |     17 |              9 |
| [80](#event-80)            | 0x00F3       |      7 |              2 |
| [20](#event-20)            | 0x00FA       |     13 |              7 |
| [87](#event-87)            | 0x0107       |      7 |              2 |
| [30](#event-30)            | 0x010E       |     13 |              7 |
| [38](#event-38)            | 0x011B       |      7 |              2 |
| [27](#event-27)            | 0x0122       |     13 |              7 |
| [65535.1](#event-655351)   | 0x012F       |      6 |              2 |
| [65535.2](#event-655352)   | 0x0135       |      6 |              2 |
| [65535.3](#event-655353)   | 0x013B       |      6 |              2 |
| [65535.4](#event-655354)   | 0x0141       |      6 |              2 |
| [65535.5](#event-655355)   | 0x0147       |      6 |              2 |
| [65535.6](#event-655356)   | 0x014D       |     16 |              2 |
| [65535.7](#event-655357)   | 0x015D       |     16 |              2 |
| [65535.8](#event-655358)   | 0x016D       |     16 |              2 |
| [65535.9](#event-655359)   | 0x017D       |     16 |              2 |
| [65535.10](#event-6553510) | 0x018D       |     16 |              2 |
| [65535.11](#event-6553511) | 0x019D       |     16 |              2 |
| [65535.12](#event-6553512) | 0x01AD       |     16 |              2 |
| [65535.13](#event-6553513) | 0x01BD       |     16 |              2 |
| [65535.14](#event-6553514) | 0x01CD       |     16 |              2 |
| [65535.15](#event-6553515) | 0x01DD       |     16 |              2 |
| [811](#event-811)          | 0x01ED       |     53 |             13 |

## DAT References (imed_data)

|   Index | Hex Value   |   Dec Value |
|---------|-------------|-------------|
|       0 | 0x0015      |          21 |
|       1 | 0x1F66      |        8038 |
|       2 | 0x001E      |          30 |
|       3 | 0x0014      |          20 |
|       4 | 0x1FF3      |        8179 |
|       5 | 0x2577      |        9591 |
|       6 | 0x2578      |        9592 |
|       7 | 0x24B0      |        9392 |
|       8 | 0x24A5      |        9381 |
|       9 | 0x0001      |           1 |
|      10 | 0x0000      |           0 |
|      11 | 0x24B1      |        9393 |
|      12 | 0x24B2      |        9394 |
|      13 | 0x24B3      |        9395 |
|      14 | 0x24B4      |        9396 |
|      15 | 0x24C6      |        9414 |
|      16 | 0x24D9      |        9433 |
|      17 | 0x2523      |        9507 |
|      18 | 0x001B      |          27 |
|      19 | 0x287B      |       10363 |
|      20 | 0x2887      |       10375 |
|      21 | 0x2888      |       10376 |
|      22 | 0x2889      |       10377 |

## String References

- **8038**: Nothing to report!
- **8179**: Er, hey! You're not the captain! Don't scare me like that, really.
- **9381**: Will you help? [Lead the way!/I cannot help at this time...]
- **9392**: Sir Elmemague has asked for the assistance of adventurers in the capture of the suspected thief lurking in La Theine Plateau...
- **9393**: Then you must make haste for La Theine Plateau. The knights there will give you further instructions.
- **9394**: I see. If it were me, I'd offer up my sword in a heartbeat...
- **9395**: You've forgotten already? Make for La Theine Plateau, and the knights there will give you further instructions.
- **9396**: I'm not feeling the smallest shred of envy. I have absolutely no interest in proving myself through acts of honor and courage...
- **9414**: If the man they caught is really the burglar, you will be eligible for a reward from Monarlais Halver. Why don't you head over to the chateau and check on the proceedings?
- **9433**: Could you go and find out more about the lady who calls herself Phillone? I must solve this crime if I'm ever to be noticed by my superiors. Please let me know if you discover anything important.
- **9507**: That lady had nothing to do with the theft? Hmm, it seems my instincts were well off the mark. Perhaps my only road to greatness lies through the diligent performance of my guard duties...
- **9591**: Intruders!
- **9592**: ...Is something I've always wanted to say, but having "nothing to report" day in, day out is probably for the best, all things considered. Still, it must have been exciting to live in the same age as Vijartal Caphieux...
- **10363**: <Player>'s badge flashes brightly.
- **10375**: Ah!? Th-that badge! Is it not a symbol of that mercenary company offering the incredible rewards?
- **10376**: A mercenary's life... If I am doomed to remain a gate guard, perhaps I, too, should put in an application.
- **10377**: But, no. I cannot forsake my duty. I will work my way towards glory one step at a time.

## Events

### Event 65535

#### Metadata

| Field        | Value   |
|--------------|---------|
| Entrypoint   | 0x0000  |
| Data Size    | 1 bytes |
| Instructions | 1       |

```
      00 01 02 03 04 05 06 07  08 09 0A 0B 0C 0D 0E 0F
      -- -- -- -- -- -- -- --  -- -- -- -- -- -- -- --
0000: 00                                                .               
```

#### Opcodes

```
  0: 0x0000 [0x00] END_REQSTACK()
```

### Event 654

#### Metadata

| Field        | Value    |
|--------------|----------|
| Entrypoint   | 0x0001   |
| Data Size    | 77 bytes |
| Instructions | 16       |

```
      00 01 02 03 04 05 06 07  08 09 0A 0B 0C 0D 0E 0F
      -- -- -- -- -- -- -- --  -- -- -- -- -- -- -- --
0000:    94 01 F8 FF FF 7F 1E  F0 FF FF 7F 6F 70 66 00   ...........opf.
0010: 80 F8 FF FF 7F F8 FF FF  7F 73 6C 30 30 1D 01 80  .........sl00...
0020: 23 53 F8 FF FF 7F F8 FF  FF 7F 73 6C 30 30 1C 02  #S........sl00..
0030: 80 66 03 80 F8 FF FF 7F  F8 FF FF 7F 74 6C 6B 30  .f..........tlk0
0040: 1D 04 80 23 5E 69 64 6C  30 1C 02 80 21 00        ...#^idl0...!.  
```

#### Opcodes

```
  0: 0x0001 [0x94] EventEntity->Render.Flags3 ^= 0x01
  1: 0x0007 [0x1E] EventEntity looks at LocalPlayer and starts talking
  2: 0x000C [0x6F] WAIT_FRAME_DELAY: Yield until WaitTime reaches zero
  3: 0x000D [0x70] WAIT_ENTITY_RENDER_FLAG: Wait while EventEntity->Render.Flags3 bit 2 is set (cancel turn if not)
  4: 0x000E [0x66] LOAD_EXT_SCHEDULER_MAIN: Load scheduler "sl00" with entities [EventEntity, EventEntity], work=21*
  5: 0x001D [0x1D] PRINT_EVENT_MESSAGE(message_id=8038*)
    → "Nothing to report!"
  6: 0x0020 [0x23] WAIT_FOR_DIALOG_INTERACTION
  7: 0x0021 [0x53] WAIT_SCHEDULER_TASK: Wait for scheduler "sl00" with entities [EventEntity, EventEntity]
  8: 0x002E [0x1C] WAIT(30* ticks)
  9: 0x0031 [0x66] LOAD_EXT_SCHEDULER_MAIN: Load scheduler "tlk0" with entities [EventEntity, EventEntity], work=20*
 10: 0x0040 [0x1D] PRINT_EVENT_MESSAGE(message_id=8179*)
    → "Er, hey! You're not the captain! Don't scare me like that, really."
 11: 0x0043 [0x23] WAIT_FOR_DIALOG_INTERACTION
 12: 0x0044 [0x5E] EventEntity goes idle (kills current action) (animation: "idl0")
 13: 0x0049 [0x1C] WAIT(30* ticks)
 14: 0x004C [0x21] END_EVENT
 15: 0x004D [0x00] END_REQSTACK()
```

### Event 18

#### Metadata

| Field        | Value    |
|--------------|----------|
| Entrypoint   | 0x004E   |
| Data Size    | 77 bytes |
| Instructions | 16       |

```
      00 01 02 03 04 05 06 07  08 09 0A 0B 0C 0D 0E 0F
      -- -- -- -- -- -- -- --  -- -- -- -- -- -- -- --
0040:                                            94 01                ..
0050: F8 FF FF 7F 1E F0 FF FF  7F 6F 70 66 00 80 F8 FF  .........opf....
0060: FF 7F F8 FF FF 7F 73 6C  30 30 1D 05 80 23 53 F8  ......sl00...#S.
0070: FF FF 7F F8 FF FF 7F 73  6C 30 30 1C 02 80 66 03  .......sl00...f.
0080: 80 F8 FF FF 7F F8 FF FF  7F 74 6C 6B 30 1D 06 80  .........tlk0...
0090: 23 5E 69 64 6C 30 1C 02  80 21 00                 #^idl0...!.     
```

#### Opcodes

```
  0: 0x004E [0x94] EventEntity->Render.Flags3 ^= 0x01
  1: 0x0054 [0x1E] EventEntity looks at LocalPlayer and starts talking
  2: 0x0059 [0x6F] WAIT_FRAME_DELAY: Yield until WaitTime reaches zero
  3: 0x005A [0x70] WAIT_ENTITY_RENDER_FLAG: Wait while EventEntity->Render.Flags3 bit 2 is set (cancel turn if not)
  4: 0x005B [0x66] LOAD_EXT_SCHEDULER_MAIN: Load scheduler "sl00" with entities [EventEntity, EventEntity], work=21*
  5: 0x006A [0x1D] PRINT_EVENT_MESSAGE(message_id=9591*)
    → "Intruders!"
  6: 0x006D [0x23] WAIT_FOR_DIALOG_INTERACTION
  7: 0x006E [0x53] WAIT_SCHEDULER_TASK: Wait for scheduler "sl00" with entities [EventEntity, EventEntity]
  8: 0x007B [0x1C] WAIT(30* ticks)
  9: 0x007E [0x66] LOAD_EXT_SCHEDULER_MAIN: Load scheduler "tlk0" with entities [EventEntity, EventEntity], work=20*
 10: 0x008D [0x1D] PRINT_EVENT_MESSAGE(message_id=9592*)
    → "...Is something I've always wanted to say, but having "nothing to report" day in, day out is probably for the best, all things considered. Still, it must have been exciting to live in the same age as Vijartal Caphieux..."
 11: 0x0090 [0x23] WAIT_FOR_DIALOG_INTERACTION
 12: 0x0091 [0x5E] EventEntity goes idle (kills current action) (animation: "idl0")
 13: 0x0096 [0x1C] WAIT(30* ticks)
 14: 0x0099 [0x21] END_EVENT
 15: 0x009A [0x00] END_REQSTACK()
```

### Event 33

#### Metadata

| Field        | Value   |
|--------------|---------|
| Entrypoint   | 0x009B  |
| Data Size    | 7 bytes |
| Instructions | 2       |

```
      00 01 02 03 04 05 06 07  08 09 0A 0B 0C 0D 0E 0F
      -- -- -- -- -- -- -- --  -- -- -- -- -- -- -- --
0090:                                   94 01 F8 FF FF             .....
00A0: 7F 00                                             ..              
```

#### Opcodes

```
  0: 0x009B [0x94] EventEntity->Render.Flags3 ^= 0x01
  1: 0x00A1 [0x00] END_REQSTACK()
```

### Event 47

#### Metadata

| Field        | Value    |
|--------------|----------|
| Entrypoint   | 0x00A2   |
| Data Size    | 64 bytes |
| Instructions | 20       |

```
      00 01 02 03 04 05 06 07  08 09 0A 0B 0C 0D 0E 0F
      -- -- -- -- -- -- -- --  -- -- -- -- -- -- -- --
00A0:       1E F0 FF FF 7F 6F  70 1D 07 80 23 06 01 10    .....op...#...
00B0: 24 08 80 09 80 0A 80 25  02 00 10 0A 80 00 CC 00  $......%........
00C0: 1D 0B 80 23 03 01 10 09  80 01 E0 00 02 00 10 09  ...#............
00D0: 80 00 E0 00 03 01 10 0A  80 1D 0C 80 23 01 E0 00  ............#...
00E0: 21 00                                             !.              
```

#### Opcodes

```
  0: 0x00A2 [0x1E] EventEntity looks at LocalPlayer and starts talking
  1: 0x00A7 [0x6F] WAIT_FRAME_DELAY: Yield until WaitTime reaches zero
  2: 0x00A8 [0x70] WAIT_ENTITY_RENDER_FLAG: Wait while EventEntity->Render.Flags3 bit 2 is set (cancel turn if not)
  3: 0x00A9 [0x1D] PRINT_EVENT_MESSAGE(message_id=9392*)
    → "Sir Elmemague has asked for the assistance of adventurers in the capture of the suspected thief lurking in La Theine Plateau..."
  4: 0x00AC [0x23] WAIT_FOR_DIALOG_INTERACTION
  5: 0x00AD [0x06] Work_Zone[1] = 0
  6: 0x00B0 [0x24] CREATE_DIALOG(message_id=9381*, default_option=1*, option_flags=0*)
    → "Will you help? [Lead the way!/I cannot help at this time...]"
  7: 0x00B7 [0x25] WAIT_DIALOG_SELECT()
  8: 0x00B8 [0x02] IF !(Work_Zone[0] == 0*) GOTO 0x00CC
  9: 0x00C0 [0x1D] PRINT_EVENT_MESSAGE(message_id=9393*)
    → "Then you must make haste for La Theine Plateau. The knights there will give you further instructions."
 10: 0x00C3 [0x23] WAIT_FOR_DIALOG_INTERACTION
 11: 0x00C4 [0x03] Work_Zone[1] = 1*
 12: 0x00C9 [0x01] GOTO 0x00E0
 13: 0x00CC [0x02] IF !(Work_Zone[0] == 1*) GOTO 0x00E0
 14: 0x00D4 [0x03] Work_Zone[1] = 0*
 15: 0x00D9 [0x1D] PRINT_EVENT_MESSAGE(message_id=9394*)
    → "I see. If it were me, I'd offer up my sword in a heartbeat..."
 16: 0x00DC [0x23] WAIT_FOR_DIALOG_INTERACTION
 17: 0x00DD [0x01] GOTO 0x00E0

SUBROUTINE_00E0:
 18: 0x00E0 [0x21] END_EVENT
 19: 0x00E1 [0x00] END_REQSTACK()
```

### Event 34

#### Metadata

| Field        | Value    |
|--------------|----------|
| Entrypoint   | 0x00E2   |
| Data Size    | 17 bytes |
| Instructions | 9        |

```
      00 01 02 03 04 05 06 07  08 09 0A 0B 0C 0D 0E 0F
      -- -- -- -- -- -- -- --  -- -- -- -- -- -- -- --
00E0:       1E F0 FF FF 7F 6F  70 1D 0D 80 23 1D 0E 80    .....op...#...
00F0: 23 21 00                                          #!.             
```

#### Opcodes

```
  0: 0x00E2 [0x1E] EventEntity looks at LocalPlayer and starts talking
  1: 0x00E7 [0x6F] WAIT_FRAME_DELAY: Yield until WaitTime reaches zero
  2: 0x00E8 [0x70] WAIT_ENTITY_RENDER_FLAG: Wait while EventEntity->Render.Flags3 bit 2 is set (cancel turn if not)
  3: 0x00E9 [0x1D] PRINT_EVENT_MESSAGE(message_id=9395*)
    → "You've forgotten already? Make for La Theine Plateau, and the knights there will give you further instructions."
  4: 0x00EC [0x23] WAIT_FOR_DIALOG_INTERACTION
  5: 0x00ED [0x1D] PRINT_EVENT_MESSAGE(message_id=9396*)
    → "I'm not feeling the smallest shred of envy. I have absolutely no interest in proving myself through acts of honor and courage..."
  6: 0x00F0 [0x23] WAIT_FOR_DIALOG_INTERACTION
  7: 0x00F1 [0x21] END_EVENT
  8: 0x00F2 [0x00] END_REQSTACK()
```

### Event 80

#### Metadata

| Field        | Value   |
|--------------|---------|
| Entrypoint   | 0x00F3  |
| Data Size    | 7 bytes |
| Instructions | 2       |

```
      00 01 02 03 04 05 06 07  08 09 0A 0B 0C 0D 0E 0F
      -- -- -- -- -- -- -- --  -- -- -- -- -- -- -- --
00F0:          94 01 F8 FF FF  7F 00                       .......      
```

#### Opcodes

```
  0: 0x00F3 [0x94] EventEntity->Render.Flags3 ^= 0x01
  1: 0x00F9 [0x00] END_REQSTACK()
```

### Event 20

#### Metadata

| Field        | Value    |
|--------------|----------|
| Entrypoint   | 0x00FA   |
| Data Size    | 13 bytes |
| Instructions | 7        |

```
      00 01 02 03 04 05 06 07  08 09 0A 0B 0C 0D 0E 0F
      -- -- -- -- -- -- -- --  -- -- -- -- -- -- -- --
00F0:                                1E F0 FF FF 7F 6F            .....o
0100: 70 1D 0F 80 23 21 00                              p...#!.         
```

#### Opcodes

```
  0: 0x00FA [0x1E] EventEntity looks at LocalPlayer and starts talking
  1: 0x00FF [0x6F] WAIT_FRAME_DELAY: Yield until WaitTime reaches zero
  2: 0x0100 [0x70] WAIT_ENTITY_RENDER_FLAG: Wait while EventEntity->Render.Flags3 bit 2 is set (cancel turn if not)
  3: 0x0101 [0x1D] PRINT_EVENT_MESSAGE(message_id=9414*)
    → "If the man they caught is really the burglar, you will be eligible for a reward from Monarlais Halver. Why don't you head over to the chateau and check on the proceedings?"
  4: 0x0104 [0x23] WAIT_FOR_DIALOG_INTERACTION
  5: 0x0105 [0x21] END_EVENT
  6: 0x0106 [0x00] END_REQSTACK()
```

### Event 87

#### Metadata

| Field        | Value   |
|--------------|---------|
| Entrypoint   | 0x0107  |
| Data Size    | 7 bytes |
| Instructions | 2       |

```
      00 01 02 03 04 05 06 07  08 09 0A 0B 0C 0D 0E 0F
      -- -- -- -- -- -- -- --  -- -- -- -- -- -- -- --
0100:                      94  01 F8 FF FF 7F 00               .......  
```

#### Opcodes

```
  0: 0x0107 [0x94] EventEntity->Render.Flags3 ^= 0x01
  1: 0x010D [0x00] END_REQSTACK()
```

### Event 30

#### Metadata

| Field        | Value    |
|--------------|----------|
| Entrypoint   | 0x010E   |
| Data Size    | 13 bytes |
| Instructions | 7        |

```
      00 01 02 03 04 05 06 07  08 09 0A 0B 0C 0D 0E 0F
      -- -- -- -- -- -- -- --  -- -- -- -- -- -- -- --
0100:                                            1E F0                ..
0110: FF FF 7F 6F 70 1D 10 80  23 21 00                 ...op...#!.     
```

#### Opcodes

```
  0: 0x010E [0x1E] EventEntity looks at LocalPlayer and starts talking
  1: 0x0113 [0x6F] WAIT_FRAME_DELAY: Yield until WaitTime reaches zero
  2: 0x0114 [0x70] WAIT_ENTITY_RENDER_FLAG: Wait while EventEntity->Render.Flags3 bit 2 is set (cancel turn if not)
  3: 0x0115 [0x1D] PRINT_EVENT_MESSAGE(message_id=9433*)
    → "Could you go and find out more about the lady who calls herself Phillone? I must solve this crime if I'm ever to be noticed by my superiors. Please let me know if you discover anything important."
  4: 0x0118 [0x23] WAIT_FOR_DIALOG_INTERACTION
  5: 0x0119 [0x21] END_EVENT
  6: 0x011A [0x00] END_REQSTACK()
```

### Event 38

#### Metadata

| Field        | Value   |
|--------------|---------|
| Entrypoint   | 0x011B  |
| Data Size    | 7 bytes |
| Instructions | 2       |

```
      00 01 02 03 04 05 06 07  08 09 0A 0B 0C 0D 0E 0F
      -- -- -- -- -- -- -- --  -- -- -- -- -- -- -- --
0110:                                   94 01 F8 FF FF             .....
0120: 7F 00                                             ..              
```

#### Opcodes

```
  0: 0x011B [0x94] EventEntity->Render.Flags3 ^= 0x01
  1: 0x0121 [0x00] END_REQSTACK()
```

### Event 27

#### Metadata

| Field        | Value    |
|--------------|----------|
| Entrypoint   | 0x0122   |
| Data Size    | 13 bytes |
| Instructions | 7        |

```
      00 01 02 03 04 05 06 07  08 09 0A 0B 0C 0D 0E 0F
      -- -- -- -- -- -- -- --  -- -- -- -- -- -- -- --
0120:       1E F0 FF FF 7F 6F  70 1D 11 80 23 21 00       .....op...#!. 
```

#### Opcodes

```
  0: 0x0122 [0x1E] EventEntity looks at LocalPlayer and starts talking
  1: 0x0127 [0x6F] WAIT_FRAME_DELAY: Yield until WaitTime reaches zero
  2: 0x0128 [0x70] WAIT_ENTITY_RENDER_FLAG: Wait while EventEntity->Render.Flags3 bit 2 is set (cancel turn if not)
  3: 0x0129 [0x1D] PRINT_EVENT_MESSAGE(message_id=9507*)
    → "That lady had nothing to do with the theft? Hmm, it seems my instincts were well off the mark. Perhaps my only road to greatness lies through the diligent performance of my guard duties..."
  4: 0x012C [0x23] WAIT_FOR_DIALOG_INTERACTION
  5: 0x012D [0x21] END_EVENT
  6: 0x012E [0x00] END_REQSTACK()
```

### Event 65535.1

#### Metadata

| Field        | Value   |
|--------------|---------|
| Entrypoint   | 0x012F  |
| Data Size    | 6 bytes |
| Instructions | 2       |

```
      00 01 02 03 04 05 06 07  08 09 0A 0B 0C 0D 0E 0F
      -- -- -- -- -- -- -- --  -- -- -- -- -- -- -- --
0120:                                               1E                 .
0130: F0 FF FF 7F 00                                    .....           
```

#### Opcodes

```
  0: 0x012F [0x1E] EventEntity looks at LocalPlayer and starts talking
  1: 0x0134 [0x00] END_REQSTACK()
```

### Event 65535.2

#### Metadata

| Field        | Value   |
|--------------|---------|
| Entrypoint   | 0x0135  |
| Data Size    | 6 bytes |
| Instructions | 2       |

```
      00 01 02 03 04 05 06 07  08 09 0A 0B 0C 0D 0E 0F
      -- -- -- -- -- -- -- --  -- -- -- -- -- -- -- --
0130:                1E 24 60  0E 01 00                      .$`...     
```

#### Opcodes

```
  0: 0x0135 [0x1E] EventEntity looks at Elmemague (ID: 17719332/0x010E6024) and starts talking
  1: 0x013A [0x00] END_REQSTACK()
```

### Event 65535.3

#### Metadata

| Field        | Value   |
|--------------|---------|
| Entrypoint   | 0x013B  |
| Data Size    | 6 bytes |
| Instructions | 2       |

```
      00 01 02 03 04 05 06 07  08 09 0A 0B 0C 0D 0E 0F
      -- -- -- -- -- -- -- --  -- -- -- -- -- -- -- --
0130:                                   1E 23 60 0E 01             .#`..
0140: 00                                                .               
```

#### Opcodes

```
  0: 0x013B [0x1E] EventEntity looks at Phillone (ID: 17719331/0x010E6023) and starts talking
  1: 0x0140 [0x00] END_REQSTACK()
```

### Event 65535.4

#### Metadata

| Field        | Value   |
|--------------|---------|
| Entrypoint   | 0x0141  |
| Data Size    | 6 bytes |
| Instructions | 2       |

```
      00 01 02 03 04 05 06 07  08 09 0A 0B 0C 0D 0E 0F
      -- -- -- -- -- -- -- --  -- -- -- -- -- -- -- --
0140:    1E 26 60 0E 01 00                               .&`...         
```

#### Opcodes

```
  0: 0x0141 [0x1E] EventEntity looks at Vijartal (ID: 17719334/0x010E6026) and starts talking
  1: 0x0146 [0x00] END_REQSTACK()
```

### Event 65535.5

#### Metadata

| Field        | Value   |
|--------------|---------|
| Entrypoint   | 0x0147  |
| Data Size    | 6 bytes |
| Instructions | 2       |

```
      00 01 02 03 04 05 06 07  08 09 0A 0B 0C 0D 0E 0F
      -- -- -- -- -- -- -- --  -- -- -- -- -- -- -- --
0140:                      1E  25 60 0E 01 00                  .%`...   
```

#### Opcodes

```
  0: 0x0147 [0x1E] EventEntity looks at Roido (ID: 17719333/0x010E6025) and starts talking
  1: 0x014C [0x00] END_REQSTACK()
```

### Event 65535.6

#### Metadata

| Field        | Value    |
|--------------|----------|
| Entrypoint   | 0x014D   |
| Data Size    | 16 bytes |
| Instructions | 2        |

```
      00 01 02 03 04 05 06 07  08 09 0A 0B 0C 0D 0E 0F
      -- -- -- -- -- -- -- --  -- -- -- -- -- -- -- --
0140:                                         66 03 80               f..
0150: F8 FF FF 7F F8 FF FF 7F  74 68 6B 31 00           ........thk1.   
```

#### Opcodes

```
  0: 0x014D [0x66] LOAD_EXT_SCHEDULER_MAIN: Load scheduler "thk1" with entities [EventEntity, EventEntity], work=20*
  1: 0x015C [0x00] END_REQSTACK()
```

### Event 65535.7

#### Metadata

| Field        | Value    |
|--------------|----------|
| Entrypoint   | 0x015D   |
| Data Size    | 16 bytes |
| Instructions | 2        |

```
      00 01 02 03 04 05 06 07  08 09 0A 0B 0C 0D 0E 0F
      -- -- -- -- -- -- -- --  -- -- -- -- -- -- -- --
0150:                                         66 03 80               f..
0160: F8 FF FF 7F F8 FF FF 7F  74 68 6B 32 00           ........thk2.   
```

#### Opcodes

```
  0: 0x015D [0x66] LOAD_EXT_SCHEDULER_MAIN: Load scheduler "thk2" with entities [EventEntity, EventEntity], work=20*
  1: 0x016C [0x00] END_REQSTACK()
```

### Event 65535.8

#### Metadata

| Field        | Value    |
|--------------|----------|
| Entrypoint   | 0x016D   |
| Data Size    | 16 bytes |
| Instructions | 2        |

```
      00 01 02 03 04 05 06 07  08 09 0A 0B 0C 0D 0E 0F
      -- -- -- -- -- -- -- --  -- -- -- -- -- -- -- --
0160:                                         66 00 80               f..
0170: F8 FF FF 7F F8 FF FF 7F  73 6C 30 30 00           ........sl00.   
```

#### Opcodes

```
  0: 0x016D [0x66] LOAD_EXT_SCHEDULER_MAIN: Load scheduler "sl00" with entities [EventEntity, EventEntity], work=21*
  1: 0x017C [0x00] END_REQSTACK()
```

### Event 65535.9

#### Metadata

| Field        | Value    |
|--------------|----------|
| Entrypoint   | 0x017D   |
| Data Size    | 16 bytes |
| Instructions | 2        |

```
      00 01 02 03 04 05 06 07  08 09 0A 0B 0C 0D 0E 0F
      -- -- -- -- -- -- -- --  -- -- -- -- -- -- -- --
0170:                                         66 00 80               f..
0180: F8 FF FF 7F F8 FF FF 7F  64 69 73 30 00           ........dis0.   
```

#### Opcodes

```
  0: 0x017D [0x66] LOAD_EXT_SCHEDULER_MAIN: Load scheduler "dis0" with entities [EventEntity, EventEntity], work=21*
  1: 0x018C [0x00] END_REQSTACK()
```

### Event 65535.10

#### Metadata

| Field        | Value    |
|--------------|----------|
| Entrypoint   | 0x018D   |
| Data Size    | 16 bytes |
| Instructions | 2        |

```
      00 01 02 03 04 05 06 07  08 09 0A 0B 0C 0D 0E 0F
      -- -- -- -- -- -- -- --  -- -- -- -- -- -- -- --
0180:                                         66 12 80               f..
0190: F8 FF FF 7F F8 FF FF 7F  74 6C 62 30 00           ........tlb0.   
```

#### Opcodes

```
  0: 0x018D [0x66] LOAD_EXT_SCHEDULER_MAIN: Load scheduler "tlb0" with entities [EventEntity, EventEntity], work=27*
  1: 0x019C [0x00] END_REQSTACK()
```

### Event 65535.11

#### Metadata

| Field        | Value    |
|--------------|----------|
| Entrypoint   | 0x019D   |
| Data Size    | 16 bytes |
| Instructions | 2        |

```
      00 01 02 03 04 05 06 07  08 09 0A 0B 0C 0D 0E 0F
      -- -- -- -- -- -- -- --  -- -- -- -- -- -- -- --
0190:                                         66 12 80               f..
01A0: F8 FF FF 7F F8 FF FF 7F  74 6C 62 31 00           ........tlb1.   
```

#### Opcodes

```
  0: 0x019D [0x66] LOAD_EXT_SCHEDULER_MAIN: Load scheduler "tlb1" with entities [EventEntity, EventEntity], work=27*
  1: 0x01AC [0x00] END_REQSTACK()
```

### Event 65535.12

#### Metadata

| Field        | Value    |
|--------------|----------|
| Entrypoint   | 0x01AD   |
| Data Size    | 16 bytes |
| Instructions | 2        |

```
      00 01 02 03 04 05 06 07  08 09 0A 0B 0C 0D 0E 0F
      -- -- -- -- -- -- -- --  -- -- -- -- -- -- -- --
01A0:                                         66 00 80               f..
01B0: F8 FF FF 7F F8 FF FF 7F  70 6F 69 30 00           ........poi0.   
```

#### Opcodes

```
  0: 0x01AD [0x66] LOAD_EXT_SCHEDULER_MAIN: Load scheduler "poi0" with entities [EventEntity, EventEntity], work=21*
  1: 0x01BC [0x00] END_REQSTACK()
```

### Event 65535.13

#### Metadata

| Field        | Value    |
|--------------|----------|
| Entrypoint   | 0x01BD   |
| Data Size    | 16 bytes |
| Instructions | 2        |

```
      00 01 02 03 04 05 06 07  08 09 0A 0B 0C 0D 0E 0F
      -- -- -- -- -- -- -- --  -- -- -- -- -- -- -- --
01B0:                                         66 00 80               f..
01C0: F8 FF FF 7F F8 FF FF 7F  70 6F 69 31 00           ........poi1.   
```

#### Opcodes

```
  0: 0x01BD [0x66] LOAD_EXT_SCHEDULER_MAIN: Load scheduler "poi1" with entities [EventEntity, EventEntity], work=21*
  1: 0x01CC [0x00] END_REQSTACK()
```

### Event 65535.14

#### Metadata

| Field        | Value    |
|--------------|----------|
| Entrypoint   | 0x01CD   |
| Data Size    | 16 bytes |
| Instructions | 2        |

```
      00 01 02 03 04 05 06 07  08 09 0A 0B 0C 0D 0E 0F
      -- -- -- -- -- -- -- --  -- -- -- -- -- -- -- --
01C0:                                         66 03 80               f..
01D0: F8 FF FF 7F F8 FF FF 7F  74 6C 6B 30 00           ........tlk0.   
```

#### Opcodes

```
  0: 0x01CD [0x66] LOAD_EXT_SCHEDULER_MAIN: Load scheduler "tlk0" with entities [EventEntity, EventEntity], work=20*
  1: 0x01DC [0x00] END_REQSTACK()
```

### Event 65535.15

#### Metadata

| Field        | Value    |
|--------------|----------|
| Entrypoint   | 0x01DD   |
| Data Size    | 16 bytes |
| Instructions | 2        |

```
      00 01 02 03 04 05 06 07  08 09 0A 0B 0C 0D 0E 0F
      -- -- -- -- -- -- -- --  -- -- -- -- -- -- -- --
01D0:                                         66 03 80               f..
01E0: F8 FF FF 7F F8 FF FF 7F  74 6C 6B 31 00           ........tlk1.   
```

#### Opcodes

```
  0: 0x01DD [0x66] LOAD_EXT_SCHEDULER_MAIN: Load scheduler "tlk1" with entities [EventEntity, EventEntity], work=20*
  1: 0x01EC [0x00] END_REQSTACK()
```

### Event 811

#### Metadata

| Field        | Value    |
|--------------|----------|
| Entrypoint   | 0x01ED   |
| Data Size    | 53 bytes |
| Instructions | 13       |

```
      00 01 02 03 04 05 06 07  08 09 0A 0B 0C 0D 0E 0F
      -- -- -- -- -- -- -- --  -- -- -- -- -- -- -- --
01E0:                                         42 48 13               BH.
01F0: 80 1E F0 FF FF 7F 1D 14  80 23 66 03 80 F8 FF FF  .........#f.....
0200: 7F F8 FF FF 7F 74 68 6B  31 1D 15 80 23 1D 16 80  .....thk1...#...
0210: 23 66 03 80 F8 FF FF 7F  F8 FF FF 7F 74 68 6B 32  #f..........thk2
0220: 21 00                                             !.              
```

#### Opcodes

```
  0: 0x01ED [0x42] SET_CLI_EVENT_CANCEL_DATA()
  1: 0x01EE [0x48] [System] [10363*]:
    → "<Player>'s badge flashes brightly."
  2: 0x01F1 [0x1E] EventEntity looks at LocalPlayer and starts talking
  3: 0x01F6 [0x1D] PRINT_EVENT_MESSAGE(message_id=10375*)
    → "Ah!? Th-that badge! Is it not a symbol of that mercenary company offering the incredible rewards?"
  4: 0x01F9 [0x23] WAIT_FOR_DIALOG_INTERACTION
  5: 0x01FA [0x66] LOAD_EXT_SCHEDULER_MAIN: Load scheduler "thk1" with entities [EventEntity, EventEntity], work=20*
  6: 0x0209 [0x1D] PRINT_EVENT_MESSAGE(message_id=10376*)
    → "A mercenary's life... If I am doomed to remain a gate guard, perhaps I, too, should put in an application."
  7: 0x020C [0x23] WAIT_FOR_DIALOG_INTERACTION
  8: 0x020D [0x1D] PRINT_EVENT_MESSAGE(message_id=10377*)
    → "But, no. I cannot forsake my duty. I will work my way towards glory one step at a time."
  9: 0x0210 [0x23] WAIT_FOR_DIALOG_INTERACTION
 10: 0x0211 [0x66] LOAD_EXT_SCHEDULER_MAIN: Load scheduler "thk2" with entities [EventEntity, EventEntity], work=20*
 11: 0x0220 [0x21] END_EVENT
 12: 0x0221 [0x00] END_REQSTACK()
```
