# 17719385 - Hanaa Punaa

## Common Data

| Field            | Value                         |
|------------------|-------------------------------|
| Zone             | Southern San d'Oria (ID: 230) |
| Block Size       | 1768 bytes                    |
| Total Events     | 18                            |
| References Count | 58                            |

## List of Events

| Event ID                 | Entrypoint   |   Size |   Instructions |
|--------------------------|--------------|--------|----------------|
| [65535](#event-65535)    | 0x0000       |      1 |              1 |
| [503](#event-503)        | 0x0001       |      1 |              1 |
| [65535.1](#event-655351) | 0x0002       |     26 |              6 |
| [590](#event-590)        | 0x001C       |     55 |             17 |
| [531](#event-531)        | 0x0053       |     34 |              8 |
| [528](#event-528)        | 0x0075       |    167 |             41 |
| [529](#event-529)        | 0x011C       |     46 |             14 |
| [530](#event-530)        | 0x014A       |    161 |             27 |
| [591](#event-591)        | 0x01EB       |     55 |             17 |
| [562](#event-562)        | 0x0222       |     29 |              7 |
| [559](#event-559)        | 0x023F       |    172 |             42 |
| [560](#event-560)        | 0x02EB       |     53 |             17 |
| [561](#event-561)        | 0x0320       |    168 |             30 |
| [592](#event-592)        | 0x03C8       |     55 |             15 |
| [579](#event-579)        | 0x03FF       |     29 |              7 |
| [576](#event-576)        | 0x041C       |    174 |             44 |
| [578](#event-578)        | 0x04CA       |     53 |             17 |
| [577](#event-577)        | 0x04FF       |    168 |             30 |

## DAT References (imed_data)

|   Index | Hex Value   |   Dec Value |
|---------|-------------|-------------|
|       0 | 0xFFFD30D2  |  4294783186 |
|       1 | 0x7AF9      |       31481 |
|       2 | 0xFFFFDDA0  |  4294958496 |
|       3 | 0x0205      |         517 |
|       4 | 0x0078      |         120 |
|       5 | 0x000D      |          13 |
|       6 | 0xFFFD41F2  |  4294787570 |
|       7 | 0x6BB6      |       27574 |
|       8 | 0x0032      |          50 |
|       9 | 0x1EA8      |        7848 |
|      10 | 0x001E      |          30 |
|      11 | 0x01F9      |         505 |
|      12 | 0x1EA9      |        7849 |
|      13 | 0x1EAA      |        7850 |
|      14 | 0x1EA5      |        7845 |
|      15 | 0x1EA6      |        7846 |
|      16 | 0x1EAE      |        7854 |
|      17 | 0x1EAF      |        7855 |
|      18 | 0x40000000  |  1073741824 |
|      19 | 0x1FCF      |        8143 |
|      20 | 0x0000      |           0 |
|      21 | 0x1EB1      |        7857 |
|      22 | 0x0001      |           1 |
|      23 | 0x1EB0      |        7856 |
|      24 | 0x1EB2      |        7858 |
|      25 | 0x1EB3      |        7859 |
|      26 | 0x1EB4      |        7860 |
|      27 | 0x00C8      |         200 |
|      28 | 0x1EB5      |        7861 |
|      29 | 0x00C9      |         201 |
|      30 | 0x0354      |         852 |
|      31 | 0x1EFC      |        7932 |
|      32 | 0x1EF9      |        7929 |
|      33 | 0x1EFA      |        7930 |
|      34 | 0x1EFB      |        7931 |
|      35 | 0x1FD0      |        8144 |
|      36 | 0x1EFE      |        7934 |
|      37 | 0x1EFD      |        7933 |
|      38 | 0x1EFF      |        7935 |
|      39 | 0x1F00      |        7936 |
|      40 | 0x1F01      |        7937 |
|      41 | 0x1F02      |        7938 |
|      42 | 0x1F03      |        7939 |
|      43 | 0x1F04      |        7940 |
|      44 | 0x035D      |         861 |
|      45 | 0x1F05      |        7941 |
|      46 | 0x1F7C      |        8060 |
|      47 | 0x1F7D      |        8061 |
|      48 | 0x1F7E      |        8062 |
|      49 | 0x1F7F      |        8063 |
|      50 | 0x1F82      |        8066 |
|      51 | 0x1F81      |        8065 |
|      52 | 0x1F83      |        8067 |
|      53 | 0x1F84      |        8068 |
|      54 | 0x1F85      |        8069 |
|      55 | 0x1F86      |        8070 |
|      56 | 0x1F87      |        8071 |
|      57 | 0x1F88      |        8072 |

## String References

- **7845**: I am Hanaa Punaa, an apprrrentice at the Tanners' Guild.
- **7846**: I drrream of becoming a tanner, but work experience is hard to come by these days.
- **7848**: Oh, it's you again!
- **7849**: If you bring me three $0, I can make the same thing for you again. I sure could use the work!
- **7850**: Really, I'd prrrefer more exotic skins to work with, but that would be too much to ask of a new recruit such as yourself. Maybe later...
- **7854**: Head to West Ronfaure and collect three $0. I'll make something for you.
- **7855**: Well? Will you collect the skins?
- **7856**: Oh, I see. Well, if you change your mind, come by any time.
- **7857**: Perrrfect! I'll be waiting for those three $0, then. I can start as soon as you bring them!
- **7858**: What about the $0? I'll need three of them before I can make anything for you, sorry...
- **7859**: What fine skins you've brrrought me! They smell so...tasty! But it won't do to eat one's materials, will it?
- **7860**: Wait just a moment. I'll make something for you.
- **7861**: Here you are! I think you'll find it worth the wait.
- **7929**: As an adventurer, you should appreciate the satisfaction you get from honing your skills day by day.
- **7930**: I've been getting too many sheepskins of late, so perrrhaps you could bring me something else this time.
- **7931**: I could make you a fine piece of leather, if you could provide three $0 from the Valkurm Dunes.
- **7932**: Bring me three more $0, and I'll be happy to craft you another!
- **7933**: How unforrrtunate. You should know that goods made from $0 fetch a fine price.
- **7934**: Excellent! I know you'll be pleased with the results. Watch out for those lizard teeth!
- **7935**: Well, what about the $0? I need thrrree of them to make anything.
- **7936**: I'll still take sheepskins, too, so come back once you've got thrrree.
- **7937**: You've brought them? Joy! You always bring the best skins, you know. You should work for me full-time!
- **7938**: I was only joking. I'm sure you have plenty of things to do. Wait rrright here, and I'll get to work.
- **7939**: It's finished! Rrreally, a good skin makes all the difference, I think you'll agree.
- **7940**: Come back again!
- **7941**: I'm not taking any more $0, but I'm still taking all the $1 and $2 I can get, so brrring me more! In sets of three, if you please.
- **8060**: You've become quite the adventurer, haven't you?
- **8061**: Perhaps it's time for me to take on a challenge, too? Make something rrreally high-class... I know!
- **8062**: Big cats live in the Jugner Forest: forest tigers. I want you to bring me some of their hides. And don't worry, we're not related!
- **8063**: Bring me thrrree $0 and I'll make you something special. How about it?
- **8065**: That's rrreally too bad. Did you know that $0 goods sell for a pretty gil at the market?
- **8066**: That's great! I'll get right to work as soon as you bring the thrrree $0. Good luck.
- **8067**: Hey! What about the $0? I'll need thrrree before I can get to work!
- **8068**: I still need sheepskins and lizard skins, too! Bring thrrree anytime and I'll make you something.
- **8069**: Oooh! That was fast. You always do such good work! And that lets me do good work, too!
- **8070**: Wait right there. With these I should be able to make something really classy. Be rrright back!
- **8071**: Sorry for the wait. Look! The quality of the hide really shows through, don't you think? Fine work, if I may say so myself!
- **8072**: Come again anytime. It's a rrreal pleasure doing business with you!
- **8143**: Accept? [Of course./Not right now.]
- **8144**: Accept? [Yes./I'm sorry.]

## Events

### Event 65535

#### Metadata

| Field        | Value   |
|--------------|---------|
| Entrypoint   | 0x0000  |
| Data Size    | 1 bytes |
| Instructions | 1       |

```
      00 01 02 03 04 05 06 07  08 09 0A 0B 0C 0D 0E 0F
      -- -- -- -- -- -- -- --  -- -- -- -- -- -- -- --
0000: 00                                                .               
```

#### Opcodes

```
  0: 0x0000 [0x00] END_REQSTACK()
```

### Event 503

#### Metadata

| Field        | Value   |
|--------------|---------|
| Entrypoint   | 0x0001  |
| Data Size    | 1 bytes |
| Instructions | 1       |

```
      00 01 02 03 04 05 06 07  08 09 0A 0B 0C 0D 0E 0F
      -- -- -- -- -- -- -- --  -- -- -- -- -- -- -- --
0000:    00                                              .              
```

#### Opcodes

```
  0: 0x0001 [0x00] END_REQSTACK()
```

### Event 65535.1

#### Metadata

| Field        | Value    |
|--------------|----------|
| Entrypoint   | 0x0002   |
| Data Size    | 26 bytes |
| Instructions | 6        |

```
      00 01 02 03 04 05 06 07  08 09 0A 0B 0C 0D 0E 0F
      -- -- -- -- -- -- -- --  -- -- -- -- -- -- -- --
0000:       37 00 80 01 80 02  80 03 80 1C 04 80 32 05    7...........2.
0010: 80 1F 00 06 80 07 80 02  80 1F 01 00              ............    
```

#### Opcodes

```
  0: 0x0002 [0x37] UPDATE_EVENT_POSITION_AND_DIR: x=-184.110*, z=31.481*, y=-8.800*, direction=45.4°*
  1: 0x000B [0x1C] WAIT(120* ticks)
  2: 0x000E [0x32] ExtData[1]->MainSpeed = 13* * 0.1
  3: 0x0011 [0x1F] MOVE_ENTITY: EventEntity moves to X=-179.726*, Z=27.574*, Y=-8.800*
  4: 0x0019 [0x1F] MOVE_ENTITY: Update entity position (mode=1)
  5: 0x001B [0x00] END_REQSTACK()
```

### Event 590

#### Metadata

| Field        | Value    |
|--------------|----------|
| Entrypoint   | 0x001C   |
| Data Size    | 55 bytes |
| Instructions | 17       |

```
      00 01 02 03 04 05 06 07  08 09 0A 0B 0C 0D 0E 0F
      -- -- -- -- -- -- -- --  -- -- -- -- -- -- -- --
0010:                                      1E F0 FF FF              ....
0020: 7F 6F 70 66 08 80 F8 FF  FF 7F F8 FF FF 7F 74 6C  .opf..........tl
0030: 6B 30 1D 09 80 23 1C 0A  80 03 02 10 0B 80 1D 0C  k0...#..........
0040: 80 23 1C 0A 80 1D 0D 80  23 5E 69 64 6C 30 1C 0A  .#......#^idl0..
0050: 80 21 00                                          .!.             
```

#### Opcodes

```
  0: 0x001C [0x1E] EventEntity looks at LocalPlayer and starts talking
  1: 0x0021 [0x6F] WAIT_FRAME_DELAY: Yield until WaitTime reaches zero
  2: 0x0022 [0x70] WAIT_ENTITY_RENDER_FLAG: Wait while EventEntity->Render.Flags3 bit 2 is set (cancel turn if not)
  3: 0x0023 [0x66] LOAD_EXT_SCHEDULER_MAIN: Load scheduler "tlk0" with entities [EventEntity, EventEntity], work=50*
  4: 0x0032 [0x1D] PRINT_EVENT_MESSAGE(message_id=7848*)
    → "Oh, it's you again!"
  5: 0x0035 [0x23] WAIT_FOR_DIALOG_INTERACTION
  6: 0x0036 [0x1C] WAIT(30* ticks)
  7: 0x0039 [0x03] Work_Zone[2] = 505*
  8: 0x003E [0x1D] PRINT_EVENT_MESSAGE(message_id=7849*)
    → "If you bring me three $0, I can make the same thing for you again. I sure could use the work!"
  9: 0x0041 [0x23] WAIT_FOR_DIALOG_INTERACTION
 10: 0x0042 [0x1C] WAIT(30* ticks)
 11: 0x0045 [0x1D] PRINT_EVENT_MESSAGE(message_id=7850*)
    → "Really, I'd prrrefer more exotic skins to work with, but that would be too much to ask of a new recruit such as yourself. Maybe later..."
 12: 0x0048 [0x23] WAIT_FOR_DIALOG_INTERACTION
 13: 0x0049 [0x5E] EventEntity goes idle (kills current action) (animation: "idl0")
 14: 0x004E [0x1C] WAIT(30* ticks)
 15: 0x0051 [0x21] END_EVENT
 16: 0x0052 [0x00] END_REQSTACK()
```

### Event 531

#### Metadata

| Field        | Value    |
|--------------|----------|
| Entrypoint   | 0x0053   |
| Data Size    | 34 bytes |
| Instructions | 8        |

```
      00 01 02 03 04 05 06 07  08 09 0A 0B 0C 0D 0E 0F
      -- -- -- -- -- -- -- --  -- -- -- -- -- -- -- --
0050:          1E F0 FF FF 7F  6F 70 66 08 80 F8 FF FF     .....opf.....
0060: 7F F8 FF FF 7F 74 6C 6B  30 1D 09 80 23 5E 69 64  .....tlk0...#^id
0070: 6C 30 1C 0A 80                                    l0...           
```

#### Opcodes

```
  0: 0x0053 [0x1E] EventEntity looks at LocalPlayer and starts talking
  1: 0x0058 [0x6F] WAIT_FRAME_DELAY: Yield until WaitTime reaches zero
  2: 0x0059 [0x70] WAIT_ENTITY_RENDER_FLAG: Wait while EventEntity->Render.Flags3 bit 2 is set (cancel turn if not)
  3: 0x005A [0x66] LOAD_EXT_SCHEDULER_MAIN: Load scheduler "tlk0" with entities [EventEntity, EventEntity], work=50*
  4: 0x0069 [0x1D] PRINT_EVENT_MESSAGE(message_id=7848*)
    → "Oh, it's you again!"
  5: 0x006C [0x23] WAIT_FOR_DIALOG_INTERACTION
  6: 0x006D [0x5E] EventEntity goes idle (kills current action) (animation: "idl0")
  7: 0x0072 [0x1C] WAIT(30* ticks)
```

### Event 528

#### Metadata

| Field        | Value     |
|--------------|-----------|
| Entrypoint   | 0x0075    |
| Data Size    | 167 bytes |
| Instructions | 40        |

```
      00 01 02 03 04 05 06 07  08 09 0A 0B 0C 0D 0E 0F
      -- -- -- -- -- -- -- --  -- -- -- -- -- -- -- --
0070:                1E F0 FF  FF 7F 6F 70 66 08 80 F8       .....opf...
0080: FF FF 7F F8 FF FF 7F 74  6C 6B 30 1D 0E 80 23 1C  .......tlk0...#.
0090: 0A 80 1D 0F 80 23 1C 0A  80 01 9D 00 00 03 02 10  .....#..........
00A0: 0B 80 1D 10 80 23 1C 0A  80 1D 11 80 23 5E 69 64  .....#......#^id
00B0: 6C 30 03 01 10 12 80 24  13 80 14 80 14 80 25 02  l0.....$......%.
00C0: 00 10 14 80 00 EF 00 66  08 80 F8 FF FF 7F F8 FF  .......f........
00D0: FF 7F 74 6C 6B 30 03 02  10 0B 80 1D 15 80 23 5E  ..tlk0........#^
00E0: 69 64 6C 30 1C 0A 80 03  01 10 14 80 01 1A 01 02  idl0............
00F0: 00 10 16 80 00 1A 01 66  08 80 F8 FF FF 7F F8 FF  .......f........
0100: FF 7F 74 6C 6B 30 1D 17  80 23 5E 69 64 6C 30 1C  ..tlk0...#^idl0.
0110: 0A 80 03 01 10 16 80 01  1A 01 21 00              ..........!.    
```

#### Opcodes

```
  0: 0x0075 [0x1E] EventEntity looks at LocalPlayer and starts talking
  1: 0x007A [0x6F] WAIT_FRAME_DELAY: Yield until WaitTime reaches zero
  2: 0x007B [0x70] WAIT_ENTITY_RENDER_FLAG: Wait while EventEntity->Render.Flags3 bit 2 is set (cancel turn if not)
  3: 0x007C [0x66] LOAD_EXT_SCHEDULER_MAIN: Load scheduler "tlk0" with entities [EventEntity, EventEntity], work=50*
  4: 0x008B [0x1D] PRINT_EVENT_MESSAGE(message_id=7845*)
    → "I am Hanaa Punaa, an apprrrentice at the Tanners' Guild."
  5: 0x008E [0x23] WAIT_FOR_DIALOG_INTERACTION
  6: 0x008F [0x1C] WAIT(30* ticks)
  7: 0x0092 [0x1D] PRINT_EVENT_MESSAGE(message_id=7846*)
    → "I drrream of becoming a tanner, but work experience is hard to come by these days."
  8: 0x0095 [0x23] WAIT_FOR_DIALOG_INTERACTION
  9: 0x0096 [0x1C] WAIT(30* ticks)
 10: 0x0099 [0x01] GOTO 0x009D

SUBROUTINE_009D:
 11: 0x009D [0x03] Work_Zone[2] = 505*
 12: 0x00A2 [0x1D] PRINT_EVENT_MESSAGE(message_id=7854*)
    → "Head to West Ronfaure and collect three $0. I'll make something for you."
 13: 0x00A5 [0x23] WAIT_FOR_DIALOG_INTERACTION
 14: 0x00A6 [0x1C] WAIT(30* ticks)
 15: 0x00A9 [0x1D] PRINT_EVENT_MESSAGE(message_id=7855*)
    → "Well? Will you collect the skins?"
 16: 0x00AC [0x23] WAIT_FOR_DIALOG_INTERACTION
 17: 0x00AD [0x5E] EventEntity goes idle (kills current action) (animation: "idl0")
 18: 0x00B2 [0x03] Work_Zone[1] = 1073741824*
 19: 0x00B7 [0x24] CREATE_DIALOG(message_id=8143*, default_option=0*, option_flags=0*)
    → "Accept? [Of course./Not right now.]"
 20: 0x00BE [0x25] WAIT_DIALOG_SELECT()
 21: 0x00BF [0x02] IF !(Work_Zone[0] == 0*) GOTO 0x00EF
 22: 0x00C7 [0x66] LOAD_EXT_SCHEDULER_MAIN: Load scheduler "tlk0" with entities [EventEntity, EventEntity], work=50*
 23: 0x00D6 [0x03] Work_Zone[2] = 505*
 24: 0x00DB [0x1D] PRINT_EVENT_MESSAGE(message_id=7857*)
    → "Perrrfect! I'll be waiting for those three $0, then. I can start as soon as you bring them!"
 25: 0x00DE [0x23] WAIT_FOR_DIALOG_INTERACTION
 26: 0x00DF [0x5E] EventEntity goes idle (kills current action) (animation: "idl0")
 27: 0x00E4 [0x1C] WAIT(30* ticks)
 28: 0x00E7 [0x03] Work_Zone[1] = 0*
 29: 0x00EC [0x01] GOTO 0x011A
 30: 0x00EF [0x02] IF !(Work_Zone[0] == 1*) GOTO 0x011A
 31: 0x00F7 [0x66] LOAD_EXT_SCHEDULER_MAIN: Load scheduler "tlk0" with entities [EventEntity, EventEntity], work=50*
 32: 0x0106 [0x1D] PRINT_EVENT_MESSAGE(message_id=7856*)
    → "Oh, I see. Well, if you change your mind, come by any time."
 33: 0x0109 [0x23] WAIT_FOR_DIALOG_INTERACTION
 34: 0x010A [0x5E] EventEntity goes idle (kills current action) (animation: "idl0")
 35: 0x010F [0x1C] WAIT(30* ticks)
 36: 0x0112 [0x03] Work_Zone[1] = 1*
 37: 0x0117 [0x01] GOTO 0x011A

SUBROUTINE_011A:
 38: 0x011A [0x21] END_EVENT
 39: 0x011B [0x00] END_REQSTACK()
```

#### Data or dead code:

```
# Dead code (unreachable instructions):
     0x009C [0x00] END_REQSTACK()
```

### Event 529

#### Metadata

| Field        | Value    |
|--------------|----------|
| Entrypoint   | 0x011C   |
| Data Size    | 46 bytes |
| Instructions | 14       |

```
      00 01 02 03 04 05 06 07  08 09 0A 0B 0C 0D 0E 0F
      -- -- -- -- -- -- -- --  -- -- -- -- -- -- -- --
0110:                                      42 20 01 1E              B ..
0120: F0 FF FF 7F 6F 70 66 08  80 F8 FF FF 7F F8 FF FF  ....opf.........
0130: 7F 74 6C 6B 30 03 02 10  0B 80 1D 18 80 23 5E 69  .tlk0........#^i
0140: 64 6C 30 1C 0A 80 20 00  21 00                    dl0... .!.      
```

#### Opcodes

```
  0: 0x011C [0x42] SET_CLI_EVENT_CANCEL_DATA()
  1: 0x011D [0x20] SET_CLI_EVENT_UC_FLAG: Lock player control
  2: 0x011F [0x1E] EventEntity looks at LocalPlayer and starts talking
  3: 0x0124 [0x6F] WAIT_FRAME_DELAY: Yield until WaitTime reaches zero
  4: 0x0125 [0x70] WAIT_ENTITY_RENDER_FLAG: Wait while EventEntity->Render.Flags3 bit 2 is set (cancel turn if not)
  5: 0x0126 [0x66] LOAD_EXT_SCHEDULER_MAIN: Load scheduler "tlk0" with entities [EventEntity, EventEntity], work=50*
  6: 0x0135 [0x03] Work_Zone[2] = 505*
  7: 0x013A [0x1D] PRINT_EVENT_MESSAGE(message_id=7858*)
    → "What about the $0? I'll need three of them before I can make anything for you, sorry..."
  8: 0x013D [0x23] WAIT_FOR_DIALOG_INTERACTION
  9: 0x013E [0x5E] EventEntity goes idle (kills current action) (animation: "idl0")
 10: 0x0143 [0x1C] WAIT(30* ticks)
 11: 0x0146 [0x20] SET_CLI_EVENT_UC_FLAG: Unlock player control
 12: 0x0148 [0x21] END_EVENT
 13: 0x0149 [0x00] END_REQSTACK()
```

### Event 530

#### Metadata

| Field        | Value     |
|--------------|-----------|
| Entrypoint   | 0x014A    |
| Data Size    | 161 bytes |
| Instructions | 27        |

```
      00 01 02 03 04 05 06 07  08 09 0A 0B 0C 0D 0E 0F
      -- -- -- -- -- -- -- --  -- -- -- -- -- -- -- --
0140:                                42 20 01 1E F0 FF            B ....
0150: FF 7F 6F 70 66 08 80 F8  FF FF 7F F8 FF FF 7F 74  ..opf..........t
0160: 6C 6B 30 1D 19 80 23 1C  0A 80 1D 1A 80 23 5E 69  lk0...#......#^i
0170: 64 6C 30 1C 0A 80 45 1B  80 F0 FF FF 7F F0 FF FF  dl0...E.........
0180: 7F 66 64 6F 31 14 80 55  1B 80 F0 FF FF 7F F0 FF  .fdo1..U........
0190: FF 7F 66 64 6F 31 45 1B  80 F0 FF FF 7F F0 FF FF  ..fdo1E.........
01A0: 7F 66 64 69 31 14 80 55  1B 80 F0 FF FF 7F F0 FF  .fdi1..U........
01B0: FF 7F 66 64 69 31 66 08  80 F8 FF FF 7F F8 FF FF  ..fdi1f.........
01C0: 7F 74 6C 6B 30 1D 1C 80  23 5E 69 64 6C 30 45 1D  .tlk0...#^idl0E.
01D0: 80 F0 FF FF 7F F0 FF FF  7F 71 73 74 63 14 80 03  .........qstc...
01E0: 01 10 14 80 1C 0A 80 20  00 21 00                 ....... .!.     
```

#### Opcodes

```
  0: 0x014A [0x42] SET_CLI_EVENT_CANCEL_DATA()
  1: 0x014B [0x20] SET_CLI_EVENT_UC_FLAG: Lock player control
  2: 0x014D [0x1E] EventEntity looks at LocalPlayer and starts talking
  3: 0x0152 [0x6F] WAIT_FRAME_DELAY: Yield until WaitTime reaches zero
  4: 0x0153 [0x70] WAIT_ENTITY_RENDER_FLAG: Wait while EventEntity->Render.Flags3 bit 2 is set (cancel turn if not)
  5: 0x0154 [0x66] LOAD_EXT_SCHEDULER_MAIN: Load scheduler "tlk0" with entities [EventEntity, EventEntity], work=50*
  6: 0x0163 [0x1D] PRINT_EVENT_MESSAGE(message_id=7859*)
    → "What fine skins you've brrrought me! They smell so...tasty! But it won't do to eat one's materials, will it?"
  7: 0x0166 [0x23] WAIT_FOR_DIALOG_INTERACTION
  8: 0x0167 [0x1C] WAIT(30* ticks)
  9: 0x016A [0x1D] PRINT_EVENT_MESSAGE(message_id=7860*)
    → "Wait just a moment. I'll make something for you."
 10: 0x016D [0x23] WAIT_FOR_DIALOG_INTERACTION
 11: 0x016E [0x5E] EventEntity goes idle (kills current action) (animation: "idl0")
 12: 0x0173 [0x1C] WAIT(30* ticks)
 13: 0x0176 [0x45] LOAD_SCHEDULED_TASK: Load scheduler "fdo1" with entities [LocalPlayer, LocalPlayer], work=[200*, 0*]
 14: 0x0187 [0x55] WAIT_LOAD_SCHEDULER: Wait for scheduler "fdo1" with entities [LocalPlayer, LocalPlayer], work=200*
 15: 0x0196 [0x45] LOAD_SCHEDULED_TASK: Load scheduler "fdi1" with entities [LocalPlayer, LocalPlayer], work=[200*, 0*]
 16: 0x01A7 [0x55] WAIT_LOAD_SCHEDULER: Wait for scheduler "fdi1" with entities [LocalPlayer, LocalPlayer], work=200*
 17: 0x01B6 [0x66] LOAD_EXT_SCHEDULER_MAIN: Load scheduler "tlk0" with entities [EventEntity, EventEntity], work=50*
 18: 0x01C5 [0x1D] PRINT_EVENT_MESSAGE(message_id=7861*)
    → "Here you are! I think you'll find it worth the wait."
 19: 0x01C8 [0x23] WAIT_FOR_DIALOG_INTERACTION
 20: 0x01C9 [0x5E] EventEntity goes idle (kills current action) (animation: "idl0")
 21: 0x01CE [0x45] LOAD_SCHEDULED_TASK: Load scheduler "qstc" with entities [LocalPlayer, LocalPlayer], work=[201*, 0*]
 22: 0x01DF [0x03] Work_Zone[1] = 0*
 23: 0x01E4 [0x1C] WAIT(30* ticks)
 24: 0x01E7 [0x20] SET_CLI_EVENT_UC_FLAG: Unlock player control
 25: 0x01E9 [0x21] END_EVENT
 26: 0x01EA [0x00] END_REQSTACK()
```

### Event 591

#### Metadata

| Field        | Value    |
|--------------|----------|
| Entrypoint   | 0x01EB   |
| Data Size    | 55 bytes |
| Instructions | 17       |

```
      00 01 02 03 04 05 06 07  08 09 0A 0B 0C 0D 0E 0F
      -- -- -- -- -- -- -- --  -- -- -- -- -- -- -- --
01E0:                                   1E F0 FF FF 7F             .....
01F0: 6F 70 66 08 80 F8 FF FF  7F F8 FF FF 7F 74 6C 6B  opf..........tlk
0200: 30 1D 09 80 23 1C 0A 80  03 02 10 1E 80 1D 1F 80  0...#...........
0210: 23 1C 0A 80 1D 0D 80 23  5E 69 64 6C 30 1C 0A 80  #......#^idl0...
0220: 21 00                                             !.              
```

#### Opcodes

```
  0: 0x01EB [0x1E] EventEntity looks at LocalPlayer and starts talking
  1: 0x01F0 [0x6F] WAIT_FRAME_DELAY: Yield until WaitTime reaches zero
  2: 0x01F1 [0x70] WAIT_ENTITY_RENDER_FLAG: Wait while EventEntity->Render.Flags3 bit 2 is set (cancel turn if not)
  3: 0x01F2 [0x66] LOAD_EXT_SCHEDULER_MAIN: Load scheduler "tlk0" with entities [EventEntity, EventEntity], work=50*
  4: 0x0201 [0x1D] PRINT_EVENT_MESSAGE(message_id=7848*)
    → "Oh, it's you again!"
  5: 0x0204 [0x23] WAIT_FOR_DIALOG_INTERACTION
  6: 0x0205 [0x1C] WAIT(30* ticks)
  7: 0x0208 [0x03] Work_Zone[2] = 852*
  8: 0x020D [0x1D] PRINT_EVENT_MESSAGE(message_id=7932*)
    → "Bring me three more $0, and I'll be happy to craft you another!"
  9: 0x0210 [0x23] WAIT_FOR_DIALOG_INTERACTION
 10: 0x0211 [0x1C] WAIT(30* ticks)
 11: 0x0214 [0x1D] PRINT_EVENT_MESSAGE(message_id=7850*)
    → "Really, I'd prrrefer more exotic skins to work with, but that would be too much to ask of a new recruit such as yourself. Maybe later..."
 12: 0x0217 [0x23] WAIT_FOR_DIALOG_INTERACTION
 13: 0x0218 [0x5E] EventEntity goes idle (kills current action) (animation: "idl0")
 14: 0x021D [0x1C] WAIT(30* ticks)
 15: 0x0220 [0x21] END_EVENT
 16: 0x0221 [0x00] END_REQSTACK()
```

### Event 562

#### Metadata

| Field        | Value    |
|--------------|----------|
| Entrypoint   | 0x0222   |
| Data Size    | 29 bytes |
| Instructions | 7        |

```
      00 01 02 03 04 05 06 07  08 09 0A 0B 0C 0D 0E 0F
      -- -- -- -- -- -- -- --  -- -- -- -- -- -- -- --
0220:       1E F0 FF FF 7F 6F  70 66 08 80 F8 FF FF 7F    .....opf......
0230: F8 FF FF 7F 74 6C 6B 30  1D 09 80 23 1C 0A 80     ....tlk0...#... 
```

#### Opcodes

```
  0: 0x0222 [0x1E] EventEntity looks at LocalPlayer and starts talking
  1: 0x0227 [0x6F] WAIT_FRAME_DELAY: Yield until WaitTime reaches zero
  2: 0x0228 [0x70] WAIT_ENTITY_RENDER_FLAG: Wait while EventEntity->Render.Flags3 bit 2 is set (cancel turn if not)
  3: 0x0229 [0x66] LOAD_EXT_SCHEDULER_MAIN: Load scheduler "tlk0" with entities [EventEntity, EventEntity], work=50*
  4: 0x0238 [0x1D] PRINT_EVENT_MESSAGE(message_id=7848*)
    → "Oh, it's you again!"
  5: 0x023B [0x23] WAIT_FOR_DIALOG_INTERACTION
  6: 0x023C [0x1C] WAIT(30* ticks)
```

### Event 559

#### Metadata

| Field        | Value     |
|--------------|-----------|
| Entrypoint   | 0x023F    |
| Data Size    | 172 bytes |
| Instructions | 41        |

```
      00 01 02 03 04 05 06 07  08 09 0A 0B 0C 0D 0E 0F
      -- -- -- -- -- -- -- --  -- -- -- -- -- -- -- --
0230:                                               1E                 .
0240: F0 FF FF 7F 6F 70 66 08  80 F8 FF FF 7F F8 FF FF  ....opf.........
0250: 7F 74 6C 6B 30 1D 20 80  23 1C 0A 80 1D 21 80 23  .tlk0. .#....!.#
0260: 1C 0A 80 01 67 02 00 03  02 10 1E 80 1D 22 80 23  ....g........".#
0270: 1C 0A 80 1D 11 80 23 5E  69 64 6C 30 03 01 10 12  ......#^idl0....
0280: 80 24 23 80 14 80 14 80  25 02 00 10 14 80 00 B9  .$#.....%.......
0290: 02 66 08 80 F8 FF FF 7F  F8 FF FF 7F 74 6C 6B 30  .f..........tlk0
02A0: 03 02 10 1E 80 1D 24 80  23 5E 69 64 6C 30 1C 0A  ......$.#^idl0..
02B0: 80 03 01 10 14 80 01 E9  02 02 00 10 16 80 00 E9  ................
02C0: 02 66 08 80 F8 FF FF 7F  F8 FF FF 7F 74 6C 6B 30  .f..........tlk0
02D0: 03 02 10 1E 80 1D 25 80  23 5E 69 64 6C 30 1C 0A  ......%.#^idl0..
02E0: 80 03 01 10 16 80 01 E9  02 21 00                 .........!.     
```

#### Opcodes

```
  0: 0x023F [0x1E] EventEntity looks at LocalPlayer and starts talking
  1: 0x0244 [0x6F] WAIT_FRAME_DELAY: Yield until WaitTime reaches zero
  2: 0x0245 [0x70] WAIT_ENTITY_RENDER_FLAG: Wait while EventEntity->Render.Flags3 bit 2 is set (cancel turn if not)
  3: 0x0246 [0x66] LOAD_EXT_SCHEDULER_MAIN: Load scheduler "tlk0" with entities [EventEntity, EventEntity], work=50*
  4: 0x0255 [0x1D] PRINT_EVENT_MESSAGE(message_id=7929*)
    → "As an adventurer, you should appreciate the satisfaction you get from honing your skills day by day."
  5: 0x0258 [0x23] WAIT_FOR_DIALOG_INTERACTION
  6: 0x0259 [0x1C] WAIT(30* ticks)
  7: 0x025C [0x1D] PRINT_EVENT_MESSAGE(message_id=7930*)
    → "I've been getting too many sheepskins of late, so perrrhaps you could bring me something else this time."
  8: 0x025F [0x23] WAIT_FOR_DIALOG_INTERACTION
  9: 0x0260 [0x1C] WAIT(30* ticks)
 10: 0x0263 [0x01] GOTO 0x0267

SUBROUTINE_0267:
 11: 0x0267 [0x03] Work_Zone[2] = 852*
 12: 0x026C [0x1D] PRINT_EVENT_MESSAGE(message_id=7931*)
    → "I could make you a fine piece of leather, if you could provide three $0 from the Valkurm Dunes."
 13: 0x026F [0x23] WAIT_FOR_DIALOG_INTERACTION
 14: 0x0270 [0x1C] WAIT(30* ticks)
 15: 0x0273 [0x1D] PRINT_EVENT_MESSAGE(message_id=7855*)
    → "Well? Will you collect the skins?"
 16: 0x0276 [0x23] WAIT_FOR_DIALOG_INTERACTION
 17: 0x0277 [0x5E] EventEntity goes idle (kills current action) (animation: "idl0")
 18: 0x027C [0x03] Work_Zone[1] = 1073741824*
 19: 0x0281 [0x24] CREATE_DIALOG(message_id=8144*, default_option=0*, option_flags=0*)
    → "Accept? [Yes./I'm sorry.]"
 20: 0x0288 [0x25] WAIT_DIALOG_SELECT()
 21: 0x0289 [0x02] IF !(Work_Zone[0] == 0*) GOTO 0x02B9
 22: 0x0291 [0x66] LOAD_EXT_SCHEDULER_MAIN: Load scheduler "tlk0" with entities [EventEntity, EventEntity], work=50*
 23: 0x02A0 [0x03] Work_Zone[2] = 852*
 24: 0x02A5 [0x1D] PRINT_EVENT_MESSAGE(message_id=7934*)
    → "Excellent! I know you'll be pleased with the results. Watch out for those lizard teeth!"
 25: 0x02A8 [0x23] WAIT_FOR_DIALOG_INTERACTION
 26: 0x02A9 [0x5E] EventEntity goes idle (kills current action) (animation: "idl0")
 27: 0x02AE [0x1C] WAIT(30* ticks)
 28: 0x02B1 [0x03] Work_Zone[1] = 0*
 29: 0x02B6 [0x01] GOTO 0x02E9
 30: 0x02B9 [0x02] IF !(Work_Zone[0] == 1*) GOTO 0x02E9
 31: 0x02C1 [0x66] LOAD_EXT_SCHEDULER_MAIN: Load scheduler "tlk0" with entities [EventEntity, EventEntity], work=50*
 32: 0x02D0 [0x03] Work_Zone[2] = 852*
 33: 0x02D5 [0x1D] PRINT_EVENT_MESSAGE(message_id=7933*)
    → "How unforrrtunate. You should know that goods made from $0 fetch a fine price."
 34: 0x02D8 [0x23] WAIT_FOR_DIALOG_INTERACTION
 35: 0x02D9 [0x5E] EventEntity goes idle (kills current action) (animation: "idl0")
 36: 0x02DE [0x1C] WAIT(30* ticks)
 37: 0x02E1 [0x03] Work_Zone[1] = 1*
 38: 0x02E6 [0x01] GOTO 0x02E9

SUBROUTINE_02E9:
 39: 0x02E9 [0x21] END_EVENT
 40: 0x02EA [0x00] END_REQSTACK()
```

#### Data or dead code:

```
# Dead code (unreachable instructions):
     0x0266 [0x00] END_REQSTACK()
```

### Event 560

#### Metadata

| Field        | Value    |
|--------------|----------|
| Entrypoint   | 0x02EB   |
| Data Size    | 53 bytes |
| Instructions | 17       |

```
      00 01 02 03 04 05 06 07  08 09 0A 0B 0C 0D 0E 0F
      -- -- -- -- -- -- -- --  -- -- -- -- -- -- -- --
02E0:                                   42 20 01 1E F0             B ...
02F0: FF FF 7F 6F 70 66 08 80  F8 FF FF 7F F8 FF FF 7F  ...opf..........
0300: 74 6C 6B 30 03 02 10 1E  80 1D 26 80 23 1C 0A 80  tlk0......&.#...
0310: 1D 27 80 23 5E 69 64 6C  30 1C 0A 80 20 00 21 00  .'.#^idl0... .!.
```

#### Opcodes

```
  0: 0x02EB [0x42] SET_CLI_EVENT_CANCEL_DATA()
  1: 0x02EC [0x20] SET_CLI_EVENT_UC_FLAG: Lock player control
  2: 0x02EE [0x1E] EventEntity looks at LocalPlayer and starts talking
  3: 0x02F3 [0x6F] WAIT_FRAME_DELAY: Yield until WaitTime reaches zero
  4: 0x02F4 [0x70] WAIT_ENTITY_RENDER_FLAG: Wait while EventEntity->Render.Flags3 bit 2 is set (cancel turn if not)
  5: 0x02F5 [0x66] LOAD_EXT_SCHEDULER_MAIN: Load scheduler "tlk0" with entities [EventEntity, EventEntity], work=50*
  6: 0x0304 [0x03] Work_Zone[2] = 852*
  7: 0x0309 [0x1D] PRINT_EVENT_MESSAGE(message_id=7935*)
    → "Well, what about the $0? I need thrrree of them to make anything."
  8: 0x030C [0x23] WAIT_FOR_DIALOG_INTERACTION
  9: 0x030D [0x1C] WAIT(30* ticks)
 10: 0x0310 [0x1D] PRINT_EVENT_MESSAGE(message_id=7936*)
    → "I'll still take sheepskins, too, so come back once you've got thrrree."
 11: 0x0313 [0x23] WAIT_FOR_DIALOG_INTERACTION
 12: 0x0314 [0x5E] EventEntity goes idle (kills current action) (animation: "idl0")
 13: 0x0319 [0x1C] WAIT(30* ticks)
 14: 0x031C [0x20] SET_CLI_EVENT_UC_FLAG: Unlock player control
 15: 0x031E [0x21] END_EVENT
 16: 0x031F [0x00] END_REQSTACK()
```

### Event 561

#### Metadata

| Field        | Value     |
|--------------|-----------|
| Entrypoint   | 0x0320    |
| Data Size    | 168 bytes |
| Instructions | 30        |

```
      00 01 02 03 04 05 06 07  08 09 0A 0B 0C 0D 0E 0F
      -- -- -- -- -- -- -- --  -- -- -- -- -- -- -- --
0320: 42 20 01 1E F0 FF FF 7F  6F 70 66 08 80 F8 FF FF  B ......opf.....
0330: 7F F8 FF FF 7F 74 6C 6B  30 1D 28 80 23 1C 0A 80  .....tlk0.(.#...
0340: 1D 29 80 23 5E 69 64 6C  30 1C 0A 80 45 1B 80 F0  .).#^idl0...E...
0350: FF FF 7F F0 FF FF 7F 66  64 6F 31 14 80 55 1B 80  .......fdo1..U..
0360: F0 FF FF 7F F0 FF FF 7F  66 64 6F 31 45 1B 80 F0  ........fdo1E...
0370: FF FF 7F F0 FF FF 7F 66  64 69 31 14 80 55 1B 80  .......fdi1..U..
0380: F0 FF FF 7F F0 FF FF 7F  66 64 69 31 66 08 80 F8  ........fdi1f...
0390: FF FF 7F F8 FF FF 7F 74  6C 6B 30 1D 2A 80 23 1C  .......tlk0.*.#.
03A0: 0A 80 1D 2B 80 23 5E 69  64 6C 30 45 1D 80 F0 FF  ...+.#^idl0E....
03B0: FF 7F F0 FF FF 7F 71 73  74 63 14 80 03 01 10 14  ......qstc......
03C0: 80 1C 0A 80 20 00 21 00                           .... .!.        
```

#### Opcodes

```
  0: 0x0320 [0x42] SET_CLI_EVENT_CANCEL_DATA()
  1: 0x0321 [0x20] SET_CLI_EVENT_UC_FLAG: Lock player control
  2: 0x0323 [0x1E] EventEntity looks at LocalPlayer and starts talking
  3: 0x0328 [0x6F] WAIT_FRAME_DELAY: Yield until WaitTime reaches zero
  4: 0x0329 [0x70] WAIT_ENTITY_RENDER_FLAG: Wait while EventEntity->Render.Flags3 bit 2 is set (cancel turn if not)
  5: 0x032A [0x66] LOAD_EXT_SCHEDULER_MAIN: Load scheduler "tlk0" with entities [EventEntity, EventEntity], work=50*
  6: 0x0339 [0x1D] PRINT_EVENT_MESSAGE(message_id=7937*)
    → "You've brought them? Joy! You always bring the best skins, you know. You should work for me full-time!"
  7: 0x033C [0x23] WAIT_FOR_DIALOG_INTERACTION
  8: 0x033D [0x1C] WAIT(30* ticks)
  9: 0x0340 [0x1D] PRINT_EVENT_MESSAGE(message_id=7938*)
    → "I was only joking. I'm sure you have plenty of things to do. Wait rrright here, and I'll get to work."
 10: 0x0343 [0x23] WAIT_FOR_DIALOG_INTERACTION
 11: 0x0344 [0x5E] EventEntity goes idle (kills current action) (animation: "idl0")
 12: 0x0349 [0x1C] WAIT(30* ticks)
 13: 0x034C [0x45] LOAD_SCHEDULED_TASK: Load scheduler "fdo1" with entities [LocalPlayer, LocalPlayer], work=[200*, 0*]
 14: 0x035D [0x55] WAIT_LOAD_SCHEDULER: Wait for scheduler "fdo1" with entities [LocalPlayer, LocalPlayer], work=200*
 15: 0x036C [0x45] LOAD_SCHEDULED_TASK: Load scheduler "fdi1" with entities [LocalPlayer, LocalPlayer], work=[200*, 0*]
 16: 0x037D [0x55] WAIT_LOAD_SCHEDULER: Wait for scheduler "fdi1" with entities [LocalPlayer, LocalPlayer], work=200*
 17: 0x038C [0x66] LOAD_EXT_SCHEDULER_MAIN: Load scheduler "tlk0" with entities [EventEntity, EventEntity], work=50*
 18: 0x039B [0x1D] PRINT_EVENT_MESSAGE(message_id=7939*)
    → "It's finished! Rrreally, a good skin makes all the difference, I think you'll agree."
 19: 0x039E [0x23] WAIT_FOR_DIALOG_INTERACTION
 20: 0x039F [0x1C] WAIT(30* ticks)
 21: 0x03A2 [0x1D] PRINT_EVENT_MESSAGE(message_id=7940*)
    → "Come back again!"
 22: 0x03A5 [0x23] WAIT_FOR_DIALOG_INTERACTION
 23: 0x03A6 [0x5E] EventEntity goes idle (kills current action) (animation: "idl0")
 24: 0x03AB [0x45] LOAD_SCHEDULED_TASK: Load scheduler "qstc" with entities [LocalPlayer, LocalPlayer], work=[201*, 0*]
 25: 0x03BC [0x03] Work_Zone[1] = 0*
 26: 0x03C1 [0x1C] WAIT(30* ticks)
 27: 0x03C4 [0x20] SET_CLI_EVENT_UC_FLAG: Unlock player control
 28: 0x03C6 [0x21] END_EVENT
 29: 0x03C7 [0x00] END_REQSTACK()
```

### Event 592

#### Metadata

| Field        | Value    |
|--------------|----------|
| Entrypoint   | 0x03C8   |
| Data Size    | 55 bytes |
| Instructions | 15       |

```
      00 01 02 03 04 05 06 07  08 09 0A 0B 0C 0D 0E 0F
      -- -- -- -- -- -- -- --  -- -- -- -- -- -- -- --
03C0:                          1E F0 FF FF 7F 6F 70 66          .....opf
03D0: 08 80 F8 FF FF 7F F8 FF  FF 7F 74 6C 6B 30 1D 09  ..........tlk0..
03E0: 80 23 03 02 10 2C 80 03  03 10 0B 80 03 04 10 1E  .#...,..........
03F0: 80 1D 2D 80 23 5E 69 64  6C 30 1C 0A 80 21 00     ..-.#^idl0...!. 
```

#### Opcodes

```
  0: 0x03C8 [0x1E] EventEntity looks at LocalPlayer and starts talking
  1: 0x03CD [0x6F] WAIT_FRAME_DELAY: Yield until WaitTime reaches zero
  2: 0x03CE [0x70] WAIT_ENTITY_RENDER_FLAG: Wait while EventEntity->Render.Flags3 bit 2 is set (cancel turn if not)
  3: 0x03CF [0x66] LOAD_EXT_SCHEDULER_MAIN: Load scheduler "tlk0" with entities [EventEntity, EventEntity], work=50*
  4: 0x03DE [0x1D] PRINT_EVENT_MESSAGE(message_id=7848*)
    → "Oh, it's you again!"
  5: 0x03E1 [0x23] WAIT_FOR_DIALOG_INTERACTION
  6: 0x03E2 [0x03] Work_Zone[2] = 861*
  7: 0x03E7 [0x03] Work_Zone[3] = 505*
  8: 0x03EC [0x03] Work_Zone[4] = 852*
  9: 0x03F1 [0x1D] PRINT_EVENT_MESSAGE(message_id=7941*)
    → "I'm not taking any more $0, but I'm still taking all the $1 and $2 I can get, so brrring me more! In sets of three, if you please."
 10: 0x03F4 [0x23] WAIT_FOR_DIALOG_INTERACTION
 11: 0x03F5 [0x5E] EventEntity goes idle (kills current action) (animation: "idl0")
 12: 0x03FA [0x1C] WAIT(30* ticks)
 13: 0x03FD [0x21] END_EVENT
 14: 0x03FE [0x00] END_REQSTACK()
```

### Event 579

#### Metadata

| Field        | Value    |
|--------------|----------|
| Entrypoint   | 0x03FF   |
| Data Size    | 29 bytes |
| Instructions | 7        |

```
      00 01 02 03 04 05 06 07  08 09 0A 0B 0C 0D 0E 0F
      -- -- -- -- -- -- -- --  -- -- -- -- -- -- -- --
03F0:                                               1E                 .
0400: F0 FF FF 7F 6F 70 66 08  80 F8 FF FF 7F F8 FF FF  ....opf.........
0410: 7F 74 6C 6B 30 1D 09 80  23 1C 0A 80              .tlk0...#...    
```

#### Opcodes

```
  0: 0x03FF [0x1E] EventEntity looks at LocalPlayer and starts talking
  1: 0x0404 [0x6F] WAIT_FRAME_DELAY: Yield until WaitTime reaches zero
  2: 0x0405 [0x70] WAIT_ENTITY_RENDER_FLAG: Wait while EventEntity->Render.Flags3 bit 2 is set (cancel turn if not)
  3: 0x0406 [0x66] LOAD_EXT_SCHEDULER_MAIN: Load scheduler "tlk0" with entities [EventEntity, EventEntity], work=50*
  4: 0x0415 [0x1D] PRINT_EVENT_MESSAGE(message_id=7848*)
    → "Oh, it's you again!"
  5: 0x0418 [0x23] WAIT_FOR_DIALOG_INTERACTION
  6: 0x0419 [0x1C] WAIT(30* ticks)
```

### Event 576

#### Metadata

| Field        | Value     |
|--------------|-----------|
| Entrypoint   | 0x041C    |
| Data Size    | 174 bytes |
| Instructions | 43        |

```
      00 01 02 03 04 05 06 07  08 09 0A 0B 0C 0D 0E 0F
      -- -- -- -- -- -- -- --  -- -- -- -- -- -- -- --
0410:                                      1E F0 FF FF              ....
0420: 7F 6F 70 66 08 80 F8 FF  FF 7F F8 FF FF 7F 74 6C  .opf..........tl
0430: 6B 30 1D 2E 80 23 1C 0A  80 1D 2F 80 23 1C 0A 80  k0...#..../.#...
0440: 01 44 04 00 1D 30 80 23  1C 0A 80 03 02 10 2C 80  .D...0.#......,.
0450: 1D 31 80 23 1C 0A 80 1D  11 80 23 5E 69 64 6C 30  .1.#......#^idl0
0460: 24 23 80 14 80 14 80 25  02 00 10 14 80 00 98 04  $#.....%........
0470: 66 08 80 F8 FF FF 7F F8  FF FF 7F 74 6C 6B 30 03  f..........tlk0.
0480: 02 10 2C 80 1D 32 80 23  5E 69 64 6C 30 1C 0A 80  ..,..2.#^idl0...
0490: 03 01 10 14 80 01 C8 04  02 00 10 16 80 00 C8 04  ................
04A0: 66 08 80 F8 FF FF 7F F8  FF FF 7F 74 6C 6B 30 03  f..........tlk0.
04B0: 02 10 2C 80 1D 33 80 23  5E 69 64 6C 30 1C 0A 80  ..,..3.#^idl0...
04C0: 03 01 10 16 80 01 C8 04  21 00                    ........!.      
```

#### Opcodes

```
  0: 0x041C [0x1E] EventEntity looks at LocalPlayer and starts talking
  1: 0x0421 [0x6F] WAIT_FRAME_DELAY: Yield until WaitTime reaches zero
  2: 0x0422 [0x70] WAIT_ENTITY_RENDER_FLAG: Wait while EventEntity->Render.Flags3 bit 2 is set (cancel turn if not)
  3: 0x0423 [0x66] LOAD_EXT_SCHEDULER_MAIN: Load scheduler "tlk0" with entities [EventEntity, EventEntity], work=50*
  4: 0x0432 [0x1D] PRINT_EVENT_MESSAGE(message_id=8060*)
    → "You've become quite the adventurer, haven't you?"
  5: 0x0435 [0x23] WAIT_FOR_DIALOG_INTERACTION
  6: 0x0436 [0x1C] WAIT(30* ticks)
  7: 0x0439 [0x1D] PRINT_EVENT_MESSAGE(message_id=8061*)
    → "Perhaps it's time for me to take on a challenge, too? Make something rrreally high-class... I know!"
  8: 0x043C [0x23] WAIT_FOR_DIALOG_INTERACTION
  9: 0x043D [0x1C] WAIT(30* ticks)
 10: 0x0440 [0x01] GOTO 0x0444

SUBROUTINE_0444:
 11: 0x0444 [0x1D] PRINT_EVENT_MESSAGE(message_id=8062*)
    → "Big cats live in the Jugner Forest: forest tigers. I want you to bring me some of their hides. And don't worry, we're not related!"
 12: 0x0447 [0x23] WAIT_FOR_DIALOG_INTERACTION
 13: 0x0448 [0x1C] WAIT(30* ticks)
 14: 0x044B [0x03] Work_Zone[2] = 861*
 15: 0x0450 [0x1D] PRINT_EVENT_MESSAGE(message_id=8063*)
    → "Bring me thrrree $0 and I'll make you something special. How about it?"
 16: 0x0453 [0x23] WAIT_FOR_DIALOG_INTERACTION
 17: 0x0454 [0x1C] WAIT(30* ticks)
 18: 0x0457 [0x1D] PRINT_EVENT_MESSAGE(message_id=7855*)
    → "Well? Will you collect the skins?"
 19: 0x045A [0x23] WAIT_FOR_DIALOG_INTERACTION
 20: 0x045B [0x5E] EventEntity goes idle (kills current action) (animation: "idl0")
 21: 0x0460 [0x24] CREATE_DIALOG(message_id=8144*, default_option=0*, option_flags=0*)
    → "Accept? [Yes./I'm sorry.]"
 22: 0x0467 [0x25] WAIT_DIALOG_SELECT()
 23: 0x0468 [0x02] IF !(Work_Zone[0] == 0*) GOTO 0x0498
 24: 0x0470 [0x66] LOAD_EXT_SCHEDULER_MAIN: Load scheduler "tlk0" with entities [EventEntity, EventEntity], work=50*
 25: 0x047F [0x03] Work_Zone[2] = 861*
 26: 0x0484 [0x1D] PRINT_EVENT_MESSAGE(message_id=8066*)
    → "That's great! I'll get right to work as soon as you bring the thrrree $0. Good luck."
 27: 0x0487 [0x23] WAIT_FOR_DIALOG_INTERACTION
 28: 0x0488 [0x5E] EventEntity goes idle (kills current action) (animation: "idl0")
 29: 0x048D [0x1C] WAIT(30* ticks)
 30: 0x0490 [0x03] Work_Zone[1] = 0*
 31: 0x0495 [0x01] GOTO 0x04C8
 32: 0x0498 [0x02] IF !(Work_Zone[0] == 1*) GOTO 0x04C8
 33: 0x04A0 [0x66] LOAD_EXT_SCHEDULER_MAIN: Load scheduler "tlk0" with entities [EventEntity, EventEntity], work=50*
 34: 0x04AF [0x03] Work_Zone[2] = 861*
 35: 0x04B4 [0x1D] PRINT_EVENT_MESSAGE(message_id=8065*)
    → "That's rrreally too bad. Did you know that $0 goods sell for a pretty gil at the market?"
 36: 0x04B7 [0x23] WAIT_FOR_DIALOG_INTERACTION
 37: 0x04B8 [0x5E] EventEntity goes idle (kills current action) (animation: "idl0")
 38: 0x04BD [0x1C] WAIT(30* ticks)
 39: 0x04C0 [0x03] Work_Zone[1] = 1*
 40: 0x04C5 [0x01] GOTO 0x04C8

SUBROUTINE_04C8:
 41: 0x04C8 [0x21] END_EVENT
 42: 0x04C9 [0x00] END_REQSTACK()
```

#### Data or dead code:

```
# Dead code (unreachable instructions):
     0x0443 [0x00] END_REQSTACK()
```

### Event 578

#### Metadata

| Field        | Value    |
|--------------|----------|
| Entrypoint   | 0x04CA   |
| Data Size    | 53 bytes |
| Instructions | 17       |

```
      00 01 02 03 04 05 06 07  08 09 0A 0B 0C 0D 0E 0F
      -- -- -- -- -- -- -- --  -- -- -- -- -- -- -- --
04C0:                                42 20 01 1E F0 FF            B ....
04D0: FF 7F 6F 70 66 08 80 F8  FF FF 7F F8 FF FF 7F 74  ..opf..........t
04E0: 6C 6B 30 03 02 10 2C 80  1D 34 80 23 1C 0A 80 1D  lk0...,..4.#....
04F0: 35 80 23 5E 69 64 6C 30  1C 0A 80 20 00 21 00     5.#^idl0... .!. 
```

#### Opcodes

```
  0: 0x04CA [0x42] SET_CLI_EVENT_CANCEL_DATA()
  1: 0x04CB [0x20] SET_CLI_EVENT_UC_FLAG: Lock player control
  2: 0x04CD [0x1E] EventEntity looks at LocalPlayer and starts talking
  3: 0x04D2 [0x6F] WAIT_FRAME_DELAY: Yield until WaitTime reaches zero
  4: 0x04D3 [0x70] WAIT_ENTITY_RENDER_FLAG: Wait while EventEntity->Render.Flags3 bit 2 is set (cancel turn if not)
  5: 0x04D4 [0x66] LOAD_EXT_SCHEDULER_MAIN: Load scheduler "tlk0" with entities [EventEntity, EventEntity], work=50*
  6: 0x04E3 [0x03] Work_Zone[2] = 861*
  7: 0x04E8 [0x1D] PRINT_EVENT_MESSAGE(message_id=8067*)
    → "Hey! What about the $0? I'll need thrrree before I can get to work!"
  8: 0x04EB [0x23] WAIT_FOR_DIALOG_INTERACTION
  9: 0x04EC [0x1C] WAIT(30* ticks)
 10: 0x04EF [0x1D] PRINT_EVENT_MESSAGE(message_id=8068*)
    → "I still need sheepskins and lizard skins, too! Bring thrrree anytime and I'll make you something."
 11: 0x04F2 [0x23] WAIT_FOR_DIALOG_INTERACTION
 12: 0x04F3 [0x5E] EventEntity goes idle (kills current action) (animation: "idl0")
 13: 0x04F8 [0x1C] WAIT(30* ticks)
 14: 0x04FB [0x20] SET_CLI_EVENT_UC_FLAG: Unlock player control
 15: 0x04FD [0x21] END_EVENT
 16: 0x04FE [0x00] END_REQSTACK()
```

### Event 577

#### Metadata

| Field        | Value     |
|--------------|-----------|
| Entrypoint   | 0x04FF    |
| Data Size    | 168 bytes |
| Instructions | 30        |

```
      00 01 02 03 04 05 06 07  08 09 0A 0B 0C 0D 0E 0F
      -- -- -- -- -- -- -- --  -- -- -- -- -- -- -- --
04F0:                                               42                 B
0500: 20 01 1E F0 FF FF 7F 6F  70 66 08 80 F8 FF FF 7F   ......opf......
0510: F8 FF FF 7F 74 6C 6B 30  1D 36 80 23 1C 0A 80 1D  ....tlk0.6.#....
0520: 37 80 23 5E 69 64 6C 30  1C 0A 80 45 1B 80 F0 FF  7.#^idl0...E....
0530: FF 7F F0 FF FF 7F 66 64  6F 31 14 80 55 1B 80 F0  ......fdo1..U...
0540: FF FF 7F F0 FF FF 7F 66  64 6F 31 45 1B 80 F0 FF  .......fdo1E....
0550: FF 7F F0 FF FF 7F 66 64  69 31 14 80 55 1B 80 F0  ......fdi1..U...
0560: FF FF 7F F0 FF FF 7F 66  64 69 31 66 08 80 F8 FF  .......fdi1f....
0570: FF 7F F8 FF FF 7F 74 6C  6B 30 1D 38 80 23 1C 0A  ......tlk0.8.#..
0580: 80 1D 39 80 23 5E 69 64  6C 30 45 1D 80 F0 FF FF  ..9.#^idl0E.....
0590: 7F F0 FF FF 7F 71 73 74  63 14 80 03 01 10 14 80  .....qstc.......
05A0: 1C 0A 80 20 00 21 00                              ... .!.         
```

#### Opcodes

```
  0: 0x04FF [0x42] SET_CLI_EVENT_CANCEL_DATA()
  1: 0x0500 [0x20] SET_CLI_EVENT_UC_FLAG: Lock player control
  2: 0x0502 [0x1E] EventEntity looks at LocalPlayer and starts talking
  3: 0x0507 [0x6F] WAIT_FRAME_DELAY: Yield until WaitTime reaches zero
  4: 0x0508 [0x70] WAIT_ENTITY_RENDER_FLAG: Wait while EventEntity->Render.Flags3 bit 2 is set (cancel turn if not)
  5: 0x0509 [0x66] LOAD_EXT_SCHEDULER_MAIN: Load scheduler "tlk0" with entities [EventEntity, EventEntity], work=50*
  6: 0x0518 [0x1D] PRINT_EVENT_MESSAGE(message_id=8069*)
    → "Oooh! That was fast. You always do such good work! And that lets me do good work, too!"
  7: 0x051B [0x23] WAIT_FOR_DIALOG_INTERACTION
  8: 0x051C [0x1C] WAIT(30* ticks)
  9: 0x051F [0x1D] PRINT_EVENT_MESSAGE(message_id=8070*)
    → "Wait right there. With these I should be able to make something really classy. Be rrright back!"
 10: 0x0522 [0x23] WAIT_FOR_DIALOG_INTERACTION
 11: 0x0523 [0x5E] EventEntity goes idle (kills current action) (animation: "idl0")
 12: 0x0528 [0x1C] WAIT(30* ticks)
 13: 0x052B [0x45] LOAD_SCHEDULED_TASK: Load scheduler "fdo1" with entities [LocalPlayer, LocalPlayer], work=[200*, 0*]
 14: 0x053C [0x55] WAIT_LOAD_SCHEDULER: Wait for scheduler "fdo1" with entities [LocalPlayer, LocalPlayer], work=200*
 15: 0x054B [0x45] LOAD_SCHEDULED_TASK: Load scheduler "fdi1" with entities [LocalPlayer, LocalPlayer], work=[200*, 0*]
 16: 0x055C [0x55] WAIT_LOAD_SCHEDULER: Wait for scheduler "fdi1" with entities [LocalPlayer, LocalPlayer], work=200*
 17: 0x056B [0x66] LOAD_EXT_SCHEDULER_MAIN: Load scheduler "tlk0" with entities [EventEntity, EventEntity], work=50*
 18: 0x057A [0x1D] PRINT_EVENT_MESSAGE(message_id=8071*)
    → "Sorry for the wait. Look! The quality of the hide really shows through, don't you think? Fine work, if I may say so myself!"
 19: 0x057D [0x23] WAIT_FOR_DIALOG_INTERACTION
 20: 0x057E [0x1C] WAIT(30* ticks)
 21: 0x0581 [0x1D] PRINT_EVENT_MESSAGE(message_id=8072*)
    → "Come again anytime. It's a rrreal pleasure doing business with you!"
 22: 0x0584 [0x23] WAIT_FOR_DIALOG_INTERACTION
 23: 0x0585 [0x5E] EventEntity goes idle (kills current action) (animation: "idl0")
 24: 0x058A [0x45] LOAD_SCHEDULED_TASK: Load scheduler "qstc" with entities [LocalPlayer, LocalPlayer], work=[201*, 0*]
 25: 0x059B [0x03] Work_Zone[1] = 0*
 26: 0x05A0 [0x1C] WAIT(30* ticks)
 27: 0x05A3 [0x20] SET_CLI_EVENT_UC_FLAG: Unlock player control
 28: 0x05A5 [0x21] END_EVENT
 29: 0x05A6 [0x00] END_REQSTACK()
```
