# 17719503 - Daggao

## Common Data

| Field            | Value                         |
|------------------|-------------------------------|
| Zone             | Southern San d'Oria (ID: 230) |
| Block Size       | 380 bytes                     |
| Total Events     | 7                             |
| References Count | 21                            |

## List of Events

| Event ID                 | Entrypoint   |   Size |   Instructions |
|--------------------------|--------------|--------|----------------|
| [65535](#event-65535)    | 0x0000       |      1 |              1 |
| [60](#event-60)          | 0x0001       |     28 |              8 |
| [72](#event-72)          | 0x001D       |     48 |             10 |
| [73](#event-73)          | 0x004D       |     98 |             24 |
| [810](#event-810)        | 0x00AF       |     60 |             16 |
| [888](#event-888)        | 0x00EB       |      1 |              1 |
| [65535.1](#event-655351) | 0x00EC       |     14 |              4 |

## DAT References (imed_data)

|   Index | Hex Value   |   Dec Value |
|---------|-------------|-------------|
|       0 | 0x003C      |          60 |
|       1 | 0x23AB      |        9131 |
|       2 | 0x0446      |        1094 |
|       3 | 0x23AC      |        9132 |
|       4 | 0x23AD      |        9133 |
|       5 | 0x23AE      |        9134 |
|       6 | 0x23AF      |        9135 |
|       7 | 0x0000      |           0 |
|       8 | 0x23B0      |        9136 |
|       9 | 0x0001      |           1 |
|      10 | 0x05FF      |        1535 |
|      11 | 0x23B1      |        9137 |
|      12 | 0x287B      |       10363 |
|      13 | 0x2882      |       10370 |
|      14 | 0x2883      |       10371 |
|      15 | 0x2884      |       10372 |
|      16 | 0x2885      |       10373 |
|      17 | 0x2886      |       10374 |
|      18 | 0x000D      |          13 |
|      19 | 0x16418     |       91160 |
|      20 | 0x1C497     |      115863 |

## String References

- **9131**: You are brave to speak to me! But if you're looking for leads, I have none to share.
- **9132**: Well, I am after a certain chest in the Garlaige Citadel. I hear you can open it with $0, but I wonder if any treasure is hidden within.
- **9133**: You found a corpse inside? I was after that chest, but now I'm glad I never opened it.
- **9134**: That's one jack-in-the-box I'll never meet!
- **9135**: Did you get it? [Haha, yes./Uh, no.]
- **9136**: Heh, I thought so. We adventurers need a sense of humor!
- **9137**: You have so sense of humor.
- **10363**: <Player>'s badge flashes brightly.
- **10370**: Hey you! What's with the badge!? I'm the only one worthy of the honor around this place!
- **10371**: Daggao's badge flashes brightly.
- **10372**: Those Near Eastern folk have been talking their company up so much, everyone's starting to smell a rat.
- **10373**: But you know, only the strongest adventurers are being accepted. This is a chance to finally show my mettle!
- **10374**: I doubt they'll take a runt like you! Gwahahahahaha!

## Events

### Event 65535

#### Metadata

| Field        | Value   |
|--------------|---------|
| Entrypoint   | 0x0000  |
| Data Size    | 1 bytes |
| Instructions | 1       |

```
      00 01 02 03 04 05 06 07  08 09 0A 0B 0C 0D 0E 0F
      -- -- -- -- -- -- -- --  -- -- -- -- -- -- -- --
0000: 00                                                .               
```

#### Opcodes

```
  0: 0x0000 [0x00] END_REQSTACK()
```

### Event 60

#### Metadata

| Field        | Value    |
|--------------|----------|
| Entrypoint   | 0x0001   |
| Data Size    | 28 bytes |
| Instructions | 8        |

```
      00 01 02 03 04 05 06 07  08 09 0A 0B 0C 0D 0E 0F
      -- -- -- -- -- -- -- --  -- -- -- -- -- -- -- --
0000:    1E F0 FF FF 7F 6F 70  66 00 80 F8 FF FF 7F F8   .....opf.......
0010: FF FF 7F 74 6C 6B 30 1D  01 80 23 21 00           ...tlk0...#!.   
```

#### Opcodes

```
  0: 0x0001 [0x1E] EventEntity looks at LocalPlayer and starts talking
  1: 0x0006 [0x6F] WAIT_FRAME_DELAY: Yield until WaitTime reaches zero
  2: 0x0007 [0x70] WAIT_ENTITY_RENDER_FLAG: Wait while EventEntity->Render.Flags3 bit 2 is set (cancel turn if not)
  3: 0x0008 [0x66] LOAD_EXT_SCHEDULER_MAIN: Load scheduler "tlk0" with entities [EventEntity, EventEntity], work=60*
  4: 0x0017 [0x1D] PRINT_EVENT_MESSAGE(message_id=9131*)
    → "You are brave to speak to me! But if you're looking for leads, I have none to share."
  5: 0x001A [0x23] WAIT_FOR_DIALOG_INTERACTION
  6: 0x001B [0x21] END_EVENT
  7: 0x001C [0x00] END_REQSTACK()
```

### Event 72

#### Metadata

| Field        | Value    |
|--------------|----------|
| Entrypoint   | 0x001D   |
| Data Size    | 48 bytes |
| Instructions | 10       |

```
      00 01 02 03 04 05 06 07  08 09 0A 0B 0C 0D 0E 0F
      -- -- -- -- -- -- -- --  -- -- -- -- -- -- -- --
0010:                                         1E F0 FF               ...
0020: FF 7F 6F 70 66 00 80 F8  FF FF 7F F8 FF FF 7F 74  ..opf..........t
0030: 68 6B 31 03 02 10 02 80  1D 03 80 23 66 00 80 F8  hk1........#f...
0040: FF FF 7F F8 FF FF 7F 74  68 6B 32 21 00           .......thk2!.   
```

#### Opcodes

```
  0: 0x001D [0x1E] EventEntity looks at LocalPlayer and starts talking
  1: 0x0022 [0x6F] WAIT_FRAME_DELAY: Yield until WaitTime reaches zero
  2: 0x0023 [0x70] WAIT_ENTITY_RENDER_FLAG: Wait while EventEntity->Render.Flags3 bit 2 is set (cancel turn if not)
  3: 0x0024 [0x66] LOAD_EXT_SCHEDULER_MAIN: Load scheduler "thk1" with entities [EventEntity, EventEntity], work=60*
  4: 0x0033 [0x03] Work_Zone[2] = 1094*
  5: 0x0038 [0x1D] PRINT_EVENT_MESSAGE(message_id=9132*)
    → "Well, I am after a certain chest in the Garlaige Citadel. I hear you can open it with $0, but I wonder if any treasure is hidden within."
  6: 0x003B [0x23] WAIT_FOR_DIALOG_INTERACTION
  7: 0x003C [0x66] LOAD_EXT_SCHEDULER_MAIN: Load scheduler "thk2" with entities [EventEntity, EventEntity], work=60*
  8: 0x004B [0x21] END_EVENT
  9: 0x004C [0x00] END_REQSTACK()
```

### Event 73

#### Metadata

| Field        | Value    |
|--------------|----------|
| Entrypoint   | 0x004D   |
| Data Size    | 98 bytes |
| Instructions | 24       |

```
      00 01 02 03 04 05 06 07  08 09 0A 0B 0C 0D 0E 0F
      -- -- -- -- -- -- -- --  -- -- -- -- -- -- -- --
0040:                                         1E F0 FF               ...
0050: FF 7F 6F 70 66 00 80 F8  FF FF 7F F8 FF FF 7F 74  ..opf..........t
0060: 6C 6B 30 1D 04 80 23 1D  05 80 23 5E 69 64 6C 30  lk0...#...#^idl0
0070: 24 06 80 07 80 07 80 25  02 00 10 07 80 00 96 00  $......%........
0080: 66 00 80 F8 FF FF 7F F8  FF FF 7F 64 69 73 30 1D  f..........dis0.
0090: 08 80 23 01 AD 00 02 00  10 09 80 00 AD 00 7B F8  ..#...........{.
00A0: FF FF 7F 39 0A 80 1D 0B  80 23 01 AD 00 21 00     ...9.....#...!. 
```

#### Opcodes

```
  0: 0x004D [0x1E] EventEntity looks at LocalPlayer and starts talking
  1: 0x0052 [0x6F] WAIT_FRAME_DELAY: Yield until WaitTime reaches zero
  2: 0x0053 [0x70] WAIT_ENTITY_RENDER_FLAG: Wait while EventEntity->Render.Flags3 bit 2 is set (cancel turn if not)
  3: 0x0054 [0x66] LOAD_EXT_SCHEDULER_MAIN: Load scheduler "tlk0" with entities [EventEntity, EventEntity], work=60*
  4: 0x0063 [0x1D] PRINT_EVENT_MESSAGE(message_id=9133*)
    → "You found a corpse inside? I was after that chest, but now I'm glad I never opened it."
  5: 0x0066 [0x23] WAIT_FOR_DIALOG_INTERACTION
  6: 0x0067 [0x1D] PRINT_EVENT_MESSAGE(message_id=9134*)
    → "That's one jack-in-the-box I'll never meet!"
  7: 0x006A [0x23] WAIT_FOR_DIALOG_INTERACTION
  8: 0x006B [0x5E] EventEntity goes idle (kills current action) (animation: "idl0")
  9: 0x0070 [0x24] CREATE_DIALOG(message_id=9135*, default_option=0*, option_flags=0*)
    → "Did you get it? [Haha, yes./Uh, no.]"
 10: 0x0077 [0x25] WAIT_DIALOG_SELECT()
 11: 0x0078 [0x02] IF !(Work_Zone[0] == 0*) GOTO 0x0096
 12: 0x0080 [0x66] LOAD_EXT_SCHEDULER_MAIN: Load scheduler "dis0" with entities [EventEntity, EventEntity], work=60*
 13: 0x008F [0x1D] PRINT_EVENT_MESSAGE(message_id=9136*)
    → "Heh, I thought so. We adventurers need a sense of humor!"
 14: 0x0092 [0x23] WAIT_FOR_DIALOG_INTERACTION
 15: 0x0093 [0x01] GOTO 0x00AD
 16: 0x0096 [0x02] IF !(Work_Zone[0] == 1*) GOTO 0x00AD
 17: 0x009E [0x7B] EventEntity stops talking
 18: 0x00A3 [0x39] SET_ENTITY_DIRECTION(direction=8.4°*)
 19: 0x00A6 [0x1D] PRINT_EVENT_MESSAGE(message_id=9137*)
    → "You have so sense of humor."
 20: 0x00A9 [0x23] WAIT_FOR_DIALOG_INTERACTION
 21: 0x00AA [0x01] GOTO 0x00AD

SUBROUTINE_00AD:
 22: 0x00AD [0x21] END_EVENT
 23: 0x00AE [0x00] END_REQSTACK()
```

### Event 810

#### Metadata

| Field        | Value    |
|--------------|----------|
| Entrypoint   | 0x00AF   |
| Data Size    | 60 bytes |
| Instructions | 16       |

```
      00 01 02 03 04 05 06 07  08 09 0A 0B 0C 0D 0E 0F
      -- -- -- -- -- -- -- --  -- -- -- -- -- -- -- --
00A0:                                               42                 B
00B0: 48 0C 80 1E F0 FF FF 7F  1D 0D 80 23 48 0E 80 66  H..........#H..f
00C0: 00 80 F8 FF FF 7F F8 FF  FF 7F 74 6C 6B 30 1D 0F  ..........tlk0..
00D0: 80 23 1D 10 80 23 66 00  80 F8 FF FF 7F F8 FF FF  .#...#f.........
00E0: 7F 74 6C 6B 31 1D 11 80  23 21 00                 .tlk1...#!.     
```

#### Opcodes

```
  0: 0x00AF [0x42] SET_CLI_EVENT_CANCEL_DATA()
  1: 0x00B0 [0x48] [System] [10363*]:
    → "<Player>'s badge flashes brightly."
  2: 0x00B3 [0x1E] EventEntity looks at LocalPlayer and starts talking
  3: 0x00B8 [0x1D] PRINT_EVENT_MESSAGE(message_id=10370*)
    → "Hey you! What's with the badge!? I'm the only one worthy of the honor around this place!"
  4: 0x00BB [0x23] WAIT_FOR_DIALOG_INTERACTION
  5: 0x00BC [0x48] [System] [10371*]:
    → "Daggao's badge flashes brightly."
  6: 0x00BF [0x66] LOAD_EXT_SCHEDULER_MAIN: Load scheduler "tlk0" with entities [EventEntity, EventEntity], work=60*
  7: 0x00CE [0x1D] PRINT_EVENT_MESSAGE(message_id=10372*)
    → "Those Near Eastern folk have been talking their company up so much, everyone's starting to smell a rat."
  8: 0x00D1 [0x23] WAIT_FOR_DIALOG_INTERACTION
  9: 0x00D2 [0x1D] PRINT_EVENT_MESSAGE(message_id=10373*)
    → "But you know, only the strongest adventurers are being accepted. This is a chance to finally show my mettle!"
 10: 0x00D5 [0x23] WAIT_FOR_DIALOG_INTERACTION
 11: 0x00D6 [0x66] LOAD_EXT_SCHEDULER_MAIN: Load scheduler "tlk1" with entities [EventEntity, EventEntity], work=60*
 12: 0x00E5 [0x1D] PRINT_EVENT_MESSAGE(message_id=10374*)
    → "I doubt they'll take a runt like you! Gwahahahahaha!"
 13: 0x00E8 [0x23] WAIT_FOR_DIALOG_INTERACTION
 14: 0x00E9 [0x21] END_EVENT
 15: 0x00EA [0x00] END_REQSTACK()
```

### Event 888

#### Metadata

| Field        | Value   |
|--------------|---------|
| Entrypoint   | 0x00EB  |
| Data Size    | 1 bytes |
| Instructions | 1       |

```
      00 01 02 03 04 05 06 07  08 09 0A 0B 0C 0D 0E 0F
      -- -- -- -- -- -- -- --  -- -- -- -- -- -- -- --
00E0:                                   00                         .    
```

#### Opcodes

```
  0: 0x00EB [0x00] END_REQSTACK()
```

### Event 65535.1

#### Metadata

| Field        | Value    |
|--------------|----------|
| Entrypoint   | 0x00EC   |
| Data Size    | 14 bytes |
| Instructions | 4        |

```
      00 01 02 03 04 05 06 07  08 09 0A 0B 0C 0D 0E 0F
      -- -- -- -- -- -- -- --  -- -- -- -- -- -- -- --
00E0:                                      32 12 80 1F              2...
00F0: 00 13 80 14 80 07 80 1F  01 00                    ..........      
```

#### Opcodes

```
  0: 0x00EC [0x32] ExtData[1]->MainSpeed = 13* * 0.1
  1: 0x00EF [0x1F] MOVE_ENTITY: EventEntity moves to X=91.160*, Z=115.863*, Y=0.000*
  2: 0x00F7 [0x1F] MOVE_ENTITY: Update entity position (mode=1)
  3: 0x00F9 [0x00] END_REQSTACK()
```
