# 17719392 - Varchet

## Common Data

| Field            | Value                         |
|------------------|-------------------------------|
| Zone             | Southern San d'Oria (ID: 230) |
| Block Size       | 480 bytes                     |
| Total Events     | 6                             |
| References Count | 18                            |

## List of Events

| Event ID              | Entrypoint   |   Size |   Instructions |
|-----------------------|--------------|--------|----------------|
| [65535](#event-65535) | 0x0000       |      1 |              1 |
| [525](#event-525)     | 0x0001       |     43 |             13 |
| [608](#event-608)     | 0x002C       |     36 |             10 |
| [638](#event-638)     | 0x0050       |     50 |             16 |
| [643](#event-643)     | 0x0082       |     36 |             10 |
| [519](#event-519)     | 0x00A6       |    202 |             47 |

## DAT References (imed_data)

|   Index | Hex Value   |   Dec Value |
|---------|-------------|-------------|
|       0 | 0x0014      |          20 |
|       1 | 0x1E67      |        7783 |
|       2 | 0x001E      |          30 |
|       3 | 0x1E68      |        7784 |
|       4 | 0x1E65      |        7781 |
|       5 | 0x1E66      |        7782 |
|       6 | 0x1E69      |        7785 |
|       7 | 0x1E6B      |        7787 |
|       8 | 0x1E70      |        7792 |
|       9 | 0x0003      |           3 |
|      10 | 0x0015      |          21 |
|      11 | 0x1E74      |        7796 |
|      12 | 0x0002      |           2 |
|      13 | 0x1E72      |        7794 |
|      14 | 0x0000      |           0 |
|      15 | 0x1E71      |        7793 |
|      16 | 0x0001      |           1 |
|      17 | 0x1E7C      |        7804 |

## String References

- **7781**: What? Those blokes at the Carpenters' Guild are looking for me, are they?
- **7782**: I'll tell you what. We'll play a game of chance, and if you win I'll go see them.
- **7783**: My name's Varchet. People call me the gambler. Would you care to play a game of chance with me?
- **7784**: It's five gil per game. Pay your bet up front.
- **7785**: That's your bet! Now we play!
- **7787**: We both roll two dice, and the higher score wins! Even scores are a draw, of course.
- **7792**: I'll roll first! It's a $0 and a $1 for a total of $2. Now it's your turn!
- **7793**: Looks like a $3 and a $4 for $5 in all. That beats my $2. Here's 10 gil.
- **7794**: Hmm, $3 and $4 make $5, but it doesn't beat my $2.
- **7796**: That's $3 and $4 for $5 in all. You've tied me at $2! Take your money back.
- **7804**: As promised, I shall go and see about those woodchippers. Maybe we can play another game later.

## Events

### Event 65535

#### Metadata

| Field        | Value   |
|--------------|---------|
| Entrypoint   | 0x0000  |
| Data Size    | 1 bytes |
| Instructions | 1       |

```
      00 01 02 03 04 05 06 07  08 09 0A 0B 0C 0D 0E 0F
      -- -- -- -- -- -- -- --  -- -- -- -- -- -- -- --
0000: 00                                                .               
```

#### Opcodes

```
  0: 0x0000 [0x00] END_REQSTACK()
```

### Event 525

#### Metadata

| Field        | Value    |
|--------------|----------|
| Entrypoint   | 0x0001   |
| Data Size    | 43 bytes |
| Instructions | 13       |

```
      00 01 02 03 04 05 06 07  08 09 0A 0B 0C 0D 0E 0F
      -- -- -- -- -- -- -- --  -- -- -- -- -- -- -- --
0000:    1E F0 FF FF 7F 6F 70  66 00 80 F8 FF FF 7F F8   .....opf.......
0010: FF FF 7F 74 6C 6B 30 1D  01 80 23 1C 02 80 1D 03  ...tlk0...#.....
0020: 80 23 5E 69 64 6C 30 1C  02 80 21 00              .#^idl0...!.    
```

#### Opcodes

```
  0: 0x0001 [0x1E] EventEntity looks at LocalPlayer and starts talking
  1: 0x0006 [0x6F] WAIT_FRAME_DELAY: Yield until WaitTime reaches zero
  2: 0x0007 [0x70] WAIT_ENTITY_RENDER_FLAG: Wait while EventEntity->Render.Flags3 bit 2 is set (cancel turn if not)
  3: 0x0008 [0x66] LOAD_EXT_SCHEDULER_MAIN: Load scheduler "tlk0" with entities [EventEntity, EventEntity], work=20*
  4: 0x0017 [0x1D] PRINT_EVENT_MESSAGE(message_id=7783*)
    → "My name's Varchet. People call me the gambler. Would you care to play a game of chance with me?"
  5: 0x001A [0x23] WAIT_FOR_DIALOG_INTERACTION
  6: 0x001B [0x1C] WAIT(30* ticks)
  7: 0x001E [0x1D] PRINT_EVENT_MESSAGE(message_id=7784*)
    → "It's five gil per game. Pay your bet up front."
  8: 0x0021 [0x23] WAIT_FOR_DIALOG_INTERACTION
  9: 0x0022 [0x5E] EventEntity goes idle (kills current action) (animation: "idl0")
 10: 0x0027 [0x1C] WAIT(30* ticks)
 11: 0x002A [0x21] END_EVENT
 12: 0x002B [0x00] END_REQSTACK()
```

### Event 608

#### Metadata

| Field        | Value    |
|--------------|----------|
| Entrypoint   | 0x002C   |
| Data Size    | 36 bytes |
| Instructions | 10       |

```
      00 01 02 03 04 05 06 07  08 09 0A 0B 0C 0D 0E 0F
      -- -- -- -- -- -- -- --  -- -- -- -- -- -- -- --
0020:                                      1E F0 FF FF              ....
0030: 7F 6F 70 66 00 80 F8 FF  FF 7F F8 FF FF 7F 74 6C  .opf..........tl
0040: 6B 30 1D 03 80 23 5E 69  64 6C 30 1C 02 80 21 00  k0...#^idl0...!.
```

#### Opcodes

```
  0: 0x002C [0x1E] EventEntity looks at LocalPlayer and starts talking
  1: 0x0031 [0x6F] WAIT_FRAME_DELAY: Yield until WaitTime reaches zero
  2: 0x0032 [0x70] WAIT_ENTITY_RENDER_FLAG: Wait while EventEntity->Render.Flags3 bit 2 is set (cancel turn if not)
  3: 0x0033 [0x66] LOAD_EXT_SCHEDULER_MAIN: Load scheduler "tlk0" with entities [EventEntity, EventEntity], work=20*
  4: 0x0042 [0x1D] PRINT_EVENT_MESSAGE(message_id=7784*)
    → "It's five gil per game. Pay your bet up front."
  5: 0x0045 [0x23] WAIT_FOR_DIALOG_INTERACTION
  6: 0x0046 [0x5E] EventEntity goes idle (kills current action) (animation: "idl0")
  7: 0x004B [0x1C] WAIT(30* ticks)
  8: 0x004E [0x21] END_EVENT
  9: 0x004F [0x00] END_REQSTACK()
```

### Event 638

#### Metadata

| Field        | Value    |
|--------------|----------|
| Entrypoint   | 0x0050   |
| Data Size    | 50 bytes |
| Instructions | 16       |

```
      00 01 02 03 04 05 06 07  08 09 0A 0B 0C 0D 0E 0F
      -- -- -- -- -- -- -- --  -- -- -- -- -- -- -- --
0050: 1E F0 FF FF 7F 6F 70 66  00 80 F8 FF FF 7F F8 FF  .....opf........
0060: FF 7F 74 6C 6B 30 1D 04  80 23 1C 02 80 1D 05 80  ..tlk0...#......
0070: 23 1C 02 80 1D 03 80 23  5E 69 64 6C 30 1C 02 80  #......#^idl0...
0080: 21 00                                             !.              
```

#### Opcodes

```
  0: 0x0050 [0x1E] EventEntity looks at LocalPlayer and starts talking
  1: 0x0055 [0x6F] WAIT_FRAME_DELAY: Yield until WaitTime reaches zero
  2: 0x0056 [0x70] WAIT_ENTITY_RENDER_FLAG: Wait while EventEntity->Render.Flags3 bit 2 is set (cancel turn if not)
  3: 0x0057 [0x66] LOAD_EXT_SCHEDULER_MAIN: Load scheduler "tlk0" with entities [EventEntity, EventEntity], work=20*
  4: 0x0066 [0x1D] PRINT_EVENT_MESSAGE(message_id=7781*)
    → "What? Those blokes at the Carpenters' Guild are looking for me, are they?"
  5: 0x0069 [0x23] WAIT_FOR_DIALOG_INTERACTION
  6: 0x006A [0x1C] WAIT(30* ticks)
  7: 0x006D [0x1D] PRINT_EVENT_MESSAGE(message_id=7782*)
    → "I'll tell you what. We'll play a game of chance, and if you win I'll go see them."
  8: 0x0070 [0x23] WAIT_FOR_DIALOG_INTERACTION
  9: 0x0071 [0x1C] WAIT(30* ticks)
 10: 0x0074 [0x1D] PRINT_EVENT_MESSAGE(message_id=7784*)
    → "It's five gil per game. Pay your bet up front."
 11: 0x0077 [0x23] WAIT_FOR_DIALOG_INTERACTION
 12: 0x0078 [0x5E] EventEntity goes idle (kills current action) (animation: "idl0")
 13: 0x007D [0x1C] WAIT(30* ticks)
 14: 0x0080 [0x21] END_EVENT
 15: 0x0081 [0x00] END_REQSTACK()
```

### Event 643

#### Metadata

| Field        | Value    |
|--------------|----------|
| Entrypoint   | 0x0082   |
| Data Size    | 36 bytes |
| Instructions | 10       |

```
      00 01 02 03 04 05 06 07  08 09 0A 0B 0C 0D 0E 0F
      -- -- -- -- -- -- -- --  -- -- -- -- -- -- -- --
0080:       1E F0 FF FF 7F 6F  70 66 00 80 F8 FF FF 7F    .....opf......
0090: F8 FF FF 7F 74 6C 6B 30  1D 03 80 23 5E 69 64 6C  ....tlk0...#^idl
00A0: 30 1C 02 80 21 00                                 0...!.          
```

#### Opcodes

```
  0: 0x0082 [0x1E] EventEntity looks at LocalPlayer and starts talking
  1: 0x0087 [0x6F] WAIT_FRAME_DELAY: Yield until WaitTime reaches zero
  2: 0x0088 [0x70] WAIT_ENTITY_RENDER_FLAG: Wait while EventEntity->Render.Flags3 bit 2 is set (cancel turn if not)
  3: 0x0089 [0x66] LOAD_EXT_SCHEDULER_MAIN: Load scheduler "tlk0" with entities [EventEntity, EventEntity], work=20*
  4: 0x0098 [0x1D] PRINT_EVENT_MESSAGE(message_id=7784*)
    → "It's five gil per game. Pay your bet up front."
  5: 0x009B [0x23] WAIT_FOR_DIALOG_INTERACTION
  6: 0x009C [0x5E] EventEntity goes idle (kills current action) (animation: "idl0")
  7: 0x00A1 [0x1C] WAIT(30* ticks)
  8: 0x00A4 [0x21] END_EVENT
  9: 0x00A5 [0x00] END_REQSTACK()
```

### Event 519

#### Metadata

| Field        | Value     |
|--------------|-----------|
| Entrypoint   | 0x00A6    |
| Data Size    | 202 bytes |
| Instructions | 47        |

```
      00 01 02 03 04 05 06 07  08 09 0A 0B 0C 0D 0E 0F
      -- -- -- -- -- -- -- --  -- -- -- -- -- -- -- --
00A0:                   42 20  01 03 07 00 09 10 1E F0        B ........
00B0: FF FF 7F 6F 70 66 00 80  F8 FF FF 7F F8 FF FF 7F  ...opf..........
00C0: 74 6C 6B 30 1D 06 80 23  1C 02 80 1D 07 80 23 1C  tlk0...#......#.
00D0: 02 80 1D 08 80 23 1C 02  80 02 08 10 09 80 80 04  .....#..........
00E0: 01 66 0A 80 F8 FF FF 7F  F8 FF FF 7F 64 69 73 30  .f..........dis0
00F0: 1D 0B 80 23 5E 69 64 6C  30 1C 02 80 03 01 10 09  ...#^idl0.......
0100: 80 01 6E 01 02 08 10 0C  80 80 2F 01 66 0A 80 F8  ..n......./.f...
0110: FF FF 7F F8 FF FF 7F 64  69 73 30 1D 0D 80 23 5E  .......dis0...#^
0120: 69 64 6C 30 1C 02 80 03  01 10 0C 80 01 6E 01 02  idl0.........n..
0130: 08 10 0E 80 80 6E 01 1D  0F 80 23 02 07 00 10 80  .....n....#.....
0140: 00 66 01 66 00 80 F8 FF  FF 7F F8 FF FF 7F 74 6C  .f.f..........tl
0150: 6B 30 1D 11 80 23 5E 69  64 6C 30 1C 02 80 03 01  k0...#^idl0.....
0160: 10 10 80 01 6B 01 03 01  10 0E 80 01 6E 01 21 00  ....k.......n.!.
```

#### Opcodes

```
  0: 0x00A6 [0x42] SET_CLI_EVENT_CANCEL_DATA()
  1: 0x00A7 [0x20] SET_CLI_EVENT_UC_FLAG: Lock player control
  2: 0x00A9 [0x03] ExtData[1]->WorkLocal[7] = Work_Zone[9]
  3: 0x00AE [0x1E] EventEntity looks at LocalPlayer and starts talking
  4: 0x00B3 [0x6F] WAIT_FRAME_DELAY: Yield until WaitTime reaches zero
  5: 0x00B4 [0x70] WAIT_ENTITY_RENDER_FLAG: Wait while EventEntity->Render.Flags3 bit 2 is set (cancel turn if not)
  6: 0x00B5 [0x66] LOAD_EXT_SCHEDULER_MAIN: Load scheduler "tlk0" with entities [EventEntity, EventEntity], work=20*
  7: 0x00C4 [0x1D] PRINT_EVENT_MESSAGE(message_id=7785*)
    → "That's your bet! Now we play!"
  8: 0x00C7 [0x23] WAIT_FOR_DIALOG_INTERACTION
  9: 0x00C8 [0x1C] WAIT(30* ticks)
 10: 0x00CB [0x1D] PRINT_EVENT_MESSAGE(message_id=7787*)
    → "We both roll two dice, and the higher score wins! Even scores are a draw, of course."
 11: 0x00CE [0x23] WAIT_FOR_DIALOG_INTERACTION
 12: 0x00CF [0x1C] WAIT(30* ticks)
 13: 0x00D2 [0x1D] PRINT_EVENT_MESSAGE(message_id=7792*)
    → "I'll roll first! It's a $0 and a $1 for a total of $2. Now it's your turn!"
 14: 0x00D5 [0x23] WAIT_FOR_DIALOG_INTERACTION
 15: 0x00D6 [0x1C] WAIT(30* ticks)
 16: 0x00D9 [0x02] IF !(Work_Zone[8] == 3*) GOTO 0x0104
 17: 0x00E1 [0x66] LOAD_EXT_SCHEDULER_MAIN: Load scheduler "dis0" with entities [EventEntity, EventEntity], work=21*
 18: 0x00F0 [0x1D] PRINT_EVENT_MESSAGE(message_id=7796*)
    → "That's $3 and $4 for $5 in all. You've tied me at $2! Take your money back."
 19: 0x00F3 [0x23] WAIT_FOR_DIALOG_INTERACTION
 20: 0x00F4 [0x5E] EventEntity goes idle (kills current action) (animation: "idl0")
 21: 0x00F9 [0x1C] WAIT(30* ticks)
 22: 0x00FC [0x03] Work_Zone[1] = 3*
 23: 0x0101 [0x01] GOTO 0x016E
 24: 0x0104 [0x02] IF !(Work_Zone[8] == 2*) GOTO 0x012F
 25: 0x010C [0x66] LOAD_EXT_SCHEDULER_MAIN: Load scheduler "dis0" with entities [EventEntity, EventEntity], work=21*
 26: 0x011B [0x1D] PRINT_EVENT_MESSAGE(message_id=7794*)
    → "Hmm, $3 and $4 make $5, but it doesn't beat my $2."
 27: 0x011E [0x23] WAIT_FOR_DIALOG_INTERACTION
 28: 0x011F [0x5E] EventEntity goes idle (kills current action) (animation: "idl0")
 29: 0x0124 [0x1C] WAIT(30* ticks)
 30: 0x0127 [0x03] Work_Zone[1] = 2*
 31: 0x012C [0x01] GOTO 0x016E
 32: 0x012F [0x02] IF !(Work_Zone[8] == 0*) GOTO 0x016E
 33: 0x0137 [0x1D] PRINT_EVENT_MESSAGE(message_id=7793*)
    → "Looks like a $3 and a $4 for $5 in all. That beats my $2. Here's 10 gil."
 34: 0x013A [0x23] WAIT_FOR_DIALOG_INTERACTION
 35: 0x013B [0x02] IF !(ExtData[1]->WorkLocal[7] == 1*) GOTO 0x0166
 36: 0x0143 [0x66] LOAD_EXT_SCHEDULER_MAIN: Load scheduler "tlk0" with entities [EventEntity, EventEntity], work=20*
 37: 0x0152 [0x1D] PRINT_EVENT_MESSAGE(message_id=7804*)
    → "As promised, I shall go and see about those woodchippers. Maybe we can play another game later."
 38: 0x0155 [0x23] WAIT_FOR_DIALOG_INTERACTION
 39: 0x0156 [0x5E] EventEntity goes idle (kills current action) (animation: "idl0")
 40: 0x015B [0x1C] WAIT(30* ticks)
 41: 0x015E [0x03] Work_Zone[1] = 1*
 42: 0x0163 [0x01] GOTO 0x016B
 43: 0x0166 [0x03] Work_Zone[1] = 0*

SUBROUTINE_016B:
 44: 0x016B [0x01] GOTO 0x016E

SUBROUTINE_016E:
 45: 0x016E [0x21] END_EVENT
 46: 0x016F [0x00] END_REQSTACK()
```
