# 17719661 - Chocobo

## Common Data

| Field            | Value                         |
|------------------|-------------------------------|
| Zone             | Southern San d'Oria (ID: 230) |
| Block Size       | 2840 bytes                    |
| Total Events     | 32                            |
| References Count | 37                            |

## List of Events

| Event ID                   | Entrypoint   |   Size |   Instructions |
|----------------------------|--------------|--------|----------------|
| [65535](#event-65535)      | 0x0000       |      1 |              1 |
| [988](#event-988)          | 0x0001       |      1 |              1 |
| [989](#event-989)          | 0x0002       |      1 |              1 |
| [990](#event-990)          | 0x0003       |      1 |              1 |
| [65535.1](#event-655351)   | 0x0004       |      5 |              2 |
| [65535.2](#event-655352)   | 0x0009       |     11 |              3 |
| [65535.3](#event-655353)   | 0x0014       |      4 |              2 |
| [65535.4](#event-655354)   | 0x0018       |     16 |              2 |
| [65535.5](#event-655355)   | 0x0028       |     16 |              2 |
| [65535.6](#event-655356)   | 0x0038       |     16 |              2 |
| [65535.7](#event-655357)   | 0x0048       |    130 |             24 |
| [65535.8](#event-655358)   | 0x00CA       |      6 |              2 |
| [65535.9](#event-655359)   | 0x00D0       |     11 |              3 |
| [65535.10](#event-6553510) | 0x00DB       |    103 |             20 |
| [65535.11](#event-6553511) | 0x0142       |    103 |             20 |
| [65535.12](#event-6553512) | 0x01A9       |    103 |             20 |
| [65535.13](#event-6553513) | 0x0210       |    103 |             20 |
| [65535.14](#event-6553514) | 0x0277       |    103 |             20 |
| [65535.15](#event-6553515) | 0x02DE       |    167 |             32 |
| [65535.16](#event-6553516) | 0x0385       |    141 |             27 |
| [65535.17](#event-6553517) | 0x0412       |    141 |             27 |
| [65535.18](#event-6553518) | 0x049F       |    141 |             27 |
| [65535.19](#event-6553519) | 0x052C       |    141 |             27 |
| [65535.20](#event-6553520) | 0x05B9       |    141 |             27 |
| [65535.21](#event-6553521) | 0x0646       |    205 |             39 |
| [65535.22](#event-6553522) | 0x0713       |    103 |             20 |
| [65535.23](#event-6553523) | 0x077A       |    103 |             20 |
| [65535.24](#event-6553524) | 0x07E1       |    103 |             20 |
| [65535.25](#event-6553525) | 0x0848       |    103 |             20 |
| [65535.26](#event-6553526) | 0x08AF       |    103 |             20 |
| [65535.27](#event-6553527) | 0x0916       |    167 |             32 |
| [65535.28](#event-6553528) | 0x09BD       |     53 |             12 |

## DAT References (imed_data)

|   Index | Hex Value   |   Dec Value |
|---------|-------------|-------------|
|       0 | 0x0050      |          80 |
|       1 | 0x00DC      |         220 |
|       2 | 0x00DF      |         223 |
|       3 | 0x00DE      |         222 |
|       4 | 0x0000      |           0 |
|       5 | 0x0014      |          20 |
|       6 | 0x0032      |          50 |
|       7 | 0xFFFFF1F0  |  4294963696 |
|       8 | 0xFFFC0C48  |  4294708296 |
|       9 | 0x13A74     |       80500 |
|      10 | 0x0001      |           1 |
|      11 | 0x14438     |       83000 |
|      12 | 0x0002      |           2 |
|      13 | 0x14DFC     |       85500 |
|      14 | 0x0012      |          18 |
|      15 | 0xFFFC0860  |  4294707296 |
|      16 | 0xFFFC0478  |  4294706296 |
|      17 | 0x0013      |          19 |
|      18 | 0xFFFC0090  |  4294705296 |
|      19 | 0x0003      |           3 |
|      20 | 0x0004      |           4 |
|      21 | 0xFFFBFCA8  |  4294704296 |
|      22 | 0xFFFBF8C0  |  4294703296 |
|      23 | 0x0005      |           5 |
|      24 | 0x0006      |           6 |
|      25 | 0xFFFBF4D8  |  4294702296 |
|      26 | 0x0007      |           7 |
|      27 | 0x0008      |           8 |
|      28 | 0x0009      |           9 |
|      29 | 0x000A      |          10 |
|      30 | 0x000B      |          11 |
|      31 | 0x000C      |          12 |
|      32 | 0x000D      |          13 |
|      33 | 0x000E      |          14 |
|      34 | 0x000F      |          15 |
|      35 | 0x0010      |          16 |
|      36 | 0x0011      |          17 |

## Events

### Event 65535

#### Metadata

| Field        | Value   |
|--------------|---------|
| Entrypoint   | 0x0000  |
| Data Size    | 1 bytes |
| Instructions | 1       |

```
      00 01 02 03 04 05 06 07  08 09 0A 0B 0C 0D 0E 0F
      -- -- -- -- -- -- -- --  -- -- -- -- -- -- -- --
0000: 00                                                .               
```

#### Opcodes

```
  0: 0x0000 [0x00] END_REQSTACK()
```

### Event 988

#### Metadata

| Field        | Value   |
|--------------|---------|
| Entrypoint   | 0x0001  |
| Data Size    | 1 bytes |
| Instructions | 1       |

```
      00 01 02 03 04 05 06 07  08 09 0A 0B 0C 0D 0E 0F
      -- -- -- -- -- -- -- --  -- -- -- -- -- -- -- --
0000:    00                                              .              
```

#### Opcodes

```
  0: 0x0001 [0x00] END_REQSTACK()
```

### Event 989

#### Metadata

| Field        | Value   |
|--------------|---------|
| Entrypoint   | 0x0002  |
| Data Size    | 1 bytes |
| Instructions | 1       |

```
      00 01 02 03 04 05 06 07  08 09 0A 0B 0C 0D 0E 0F
      -- -- -- -- -- -- -- --  -- -- -- -- -- -- -- --
0000:       00                                            .             
```

#### Opcodes

```
  0: 0x0002 [0x00] END_REQSTACK()
```

### Event 990

#### Metadata

| Field        | Value   |
|--------------|---------|
| Entrypoint   | 0x0003  |
| Data Size    | 1 bytes |
| Instructions | 1       |

```
      00 01 02 03 04 05 06 07  08 09 0A 0B 0C 0D 0E 0F
      -- -- -- -- -- -- -- --  -- -- -- -- -- -- -- --
0000:          00                                          .            
```

#### Opcodes

```
  0: 0x0003 [0x00] END_REQSTACK()
```

### Event 65535.1

#### Metadata

| Field        | Value   |
|--------------|---------|
| Entrypoint   | 0x0004  |
| Data Size    | 5 bytes |
| Instructions | 2       |

```
      00 01 02 03 04 05 06 07  08 09 0A 0B 0C 0D 0E 0F
      -- -- -- -- -- -- -- --  -- -- -- -- -- -- -- --
0000:             B6 0F 00 80  00                           .....       
```

#### Opcodes

```
  0: 0x0004 [0xB6] ENTITY_APPEARANCE_HANDLER(case=Model size, value=80*)
  1: 0x0008 [0x00] END_REQSTACK()
```

### Event 65535.2

#### Metadata

| Field        | Value    |
|--------------|----------|
| Entrypoint   | 0x0009   |
| Data Size    | 11 bytes |
| Instructions | 3        |

```
      00 01 02 03 04 05 06 07  08 09 0A 0B 0C 0D 0E 0F
      -- -- -- -- -- -- -- --  -- -- -- -- -- -- -- --
0000:                             1F 00 00 17 01 17 02           .......
0010: 17 1F 01 00                                       ....            
```

#### Opcodes

```
  0: 0x0009 [0x1F] MOVE_ENTITY: EventEntity moves to X=Work_Zone_1700[0], Z=Work_Zone_1700[1], Y=Work_Zone_1700[2]
  1: 0x0011 [0x1F] MOVE_ENTITY: Update entity position (mode=1)
  2: 0x0013 [0x00] END_REQSTACK()
```

### Event 65535.3

#### Metadata

| Field        | Value   |
|--------------|---------|
| Entrypoint   | 0x0014  |
| Data Size    | 4 bytes |
| Instructions | 2       |

```
      00 01 02 03 04 05 06 07  08 09 0A 0B 0C 0D 0E 0F
      -- -- -- -- -- -- -- --  -- -- -- -- -- -- -- --
0010:             39 03 17 00                               9...        
```

#### Opcodes

```
  0: 0x0014 [0x39] SET_ENTITY_DIRECTION(direction=Work_Zone_1700[3])
  1: 0x0017 [0x00] END_REQSTACK()
```

### Event 65535.4

#### Metadata

| Field        | Value    |
|--------------|----------|
| Entrypoint   | 0x0018   |
| Data Size    | 16 bytes |
| Instructions | 2        |

```
      00 01 02 03 04 05 06 07  08 09 0A 0B 0C 0D 0E 0F
      -- -- -- -- -- -- -- --  -- -- -- -- -- -- -- --
0010:                          5B 01 80 F8 FF FF 7F F8          [.......
0020: FF FF 7F 79 6F 72 30 00                           ...yor0.        
```

#### Opcodes

```
  0: 0x0018 [0x5B] LOAD_EXT_SCHEDULER: Load scheduler "yor0" with entities [EventEntity, EventEntity], work=220*
  1: 0x0027 [0x00] END_REQSTACK()
```

### Event 65535.5

#### Metadata

| Field        | Value    |
|--------------|----------|
| Entrypoint   | 0x0028   |
| Data Size    | 16 bytes |
| Instructions | 2        |

```
      00 01 02 03 04 05 06 07  08 09 0A 0B 0C 0D 0E 0F
      -- -- -- -- -- -- -- --  -- -- -- -- -- -- -- --
0020:                          5B 02 80 F8 FF FF 7F F8          [.......
0030: FF FF 7F 6E 61 6B 30 00                           ...nak0.        
```

#### Opcodes

```
  0: 0x0028 [0x5B] LOAD_EXT_SCHEDULER: Load scheduler "nak0" with entities [EventEntity, EventEntity], work=223*
  1: 0x0037 [0x00] END_REQSTACK()
```

### Event 65535.6

#### Metadata

| Field        | Value    |
|--------------|----------|
| Entrypoint   | 0x0038   |
| Data Size    | 16 bytes |
| Instructions | 2        |

```
      00 01 02 03 04 05 06 07  08 09 0A 0B 0C 0D 0E 0F
      -- -- -- -- -- -- -- --  -- -- -- -- -- -- -- --
0030:                          5B 03 80 F8 FF FF 7F F8          [.......
0040: FF FF 7F 75 73 74 30 00                           ...ust0.        
```

#### Opcodes

```
  0: 0x0038 [0x5B] LOAD_EXT_SCHEDULER: Load scheduler "ust0" with entities [EventEntity, EventEntity], work=222*
  1: 0x0047 [0x00] END_REQSTACK()
```

### Event 65535.7

#### Metadata

| Field        | Value     |
|--------------|-----------|
| Entrypoint   | 0x0048    |
| Data Size    | 130 bytes |
| Instructions | 24        |

```
      00 01 02 03 04 05 06 07  08 09 0A 0B 0C 0D 0E 0F
      -- -- -- -- -- -- -- --  -- -- -- -- -- -- -- --
0040:                          03 04 00 04 80 27 80 70          .....'.p
0050: 61 0E 01 02 32 05 80 59  00 06 80 03 02 17 07 80  a...2..Y........
0060: 02 04 17 04 80 80 83 00  03 01 00 08 80 03 02 00  ................
0070: 09 80 27 80 6D 61 0E 01  0C 27 80 6D 61 0E 01 0D  ..'.ma...'.ma...
0080: 01 C9 00 02 04 17 0A 80  80 A6 00 03 01 00 08 80  ................
0090: 03 02 00 0B 80 27 80 6D  61 0E 01 0C 27 80 6D 61  .....'.ma...'.ma
00A0: 0E 01 13 01 C9 00 02 04  17 0C 80 80 C9 00 03 01  ................
00B0: 00 08 80 03 02 00 0D 80  27 80 6D 61 0E 01 0C 27  ........'.ma...'
00C0: 80 6D 61 0E 01 19 01 C9  00 00                    .ma.......      
```

#### Opcodes

```
  0: 0x0048 [0x03] ExtData[1]->WorkLocal[4] = 0*
  1: 0x004D [0x27] REQ_SET(priority=0x80, entity_id=Unnamed NPC (ID: 17719664/0x010E6170), tag_num=0x02)
  2: 0x0054 [0x32] ExtData[1]->MainSpeed = 20* * 0.1
  3: 0x0057 [0x59] UPDATE_ENTITY_DATA: Set EventEntity target turn speed = 50*
  4: 0x005B [0x03] Work_Zone_1700[2] = 4294963696*
  5: 0x0060 [0x02] IF !(Work_Zone_1700[4] == 0*) GOTO 0x0083
  6: 0x0068 [0x03] ExtData[1]->WorkLocal[1] = 4294708296*
  7: 0x006D [0x03] ExtData[1]->WorkLocal[2] = 80500*
  8: 0x0072 [0x27] REQ_SET(priority=0x80, entity_id=Chocobo (ID: 17719661/0x010E616D), tag_num=0x0C)
  9: 0x0079 [0x27] REQ_SET(priority=0x80, entity_id=Chocobo (ID: 17719661/0x010E616D), tag_num=0x0D)
 10: 0x0080 [0x01] GOTO 0x00C9
 11: 0x0083 [0x02] IF !(Work_Zone_1700[4] == 1*) GOTO 0x00A6
 12: 0x008B [0x03] ExtData[1]->WorkLocal[1] = 4294708296*
 13: 0x0090 [0x03] ExtData[1]->WorkLocal[2] = 83000*
 14: 0x0095 [0x27] REQ_SET(priority=0x80, entity_id=Chocobo (ID: 17719661/0x010E616D), tag_num=0x0C)
 15: 0x009C [0x27] REQ_SET(priority=0x80, entity_id=Chocobo (ID: 17719661/0x010E616D), tag_num=0x13)
 16: 0x00A3 [0x01] GOTO 0x00C9
 17: 0x00A6 [0x02] IF !(Work_Zone_1700[4] == 2*) GOTO 0x00C9
 18: 0x00AE [0x03] ExtData[1]->WorkLocal[1] = 4294708296*
 19: 0x00B3 [0x03] ExtData[1]->WorkLocal[2] = 85500*
 20: 0x00B8 [0x27] REQ_SET(priority=0x80, entity_id=Chocobo (ID: 17719661/0x010E616D), tag_num=0x0C)
 21: 0x00BF [0x27] REQ_SET(priority=0x80, entity_id=Chocobo (ID: 17719661/0x010E616D), tag_num=0x19)
 22: 0x00C6 [0x01] GOTO 0x00C9

SUBROUTINE_00C9:
 23: 0x00C9 [0x00] END_REQSTACK()
```

### Event 65535.8

#### Metadata

| Field        | Value   |
|--------------|---------|
| Entrypoint   | 0x00CA  |
| Data Size    | 6 bytes |
| Instructions | 2       |

```
      00 01 02 03 04 05 06 07  08 09 0A 0B 0C 0D 0E 0F
      -- -- -- -- -- -- -- --  -- -- -- -- -- -- -- --
00C0:                                03 00 00 04 80 00            ......
```

#### Opcodes

```
  0: 0x00CA [0x03] ExtData[1]->WorkLocal[0] = 0*
  1: 0x00CF [0x00] END_REQSTACK()
```

### Event 65535.9

#### Metadata

| Field        | Value    |
|--------------|----------|
| Entrypoint   | 0x00D0   |
| Data Size    | 11 bytes |
| Instructions | 3        |

```
      00 01 02 03 04 05 06 07  08 09 0A 0B 0C 0D 0E 0F
      -- -- -- -- -- -- -- --  -- -- -- -- -- -- -- --
00D0: 1F 00 01 00 02 00 03 00  1F 01 00                 ...........     
```

#### Opcodes

```
  0: 0x00D0 [0x1F] MOVE_ENTITY: EventEntity moves to X=ExtData[1]->WorkLocal[1], Z=ExtData[1]->WorkLocal[2], Y=ExtData[1]->WorkLocal[3]
  1: 0x00D8 [0x1F] MOVE_ENTITY: Update entity position (mode=1)
  2: 0x00DA [0x00] END_REQSTACK()
```

### Event 65535.10

#### Metadata

| Field        | Value     |
|--------------|-----------|
| Entrypoint   | 0x00DB    |
| Data Size    | 103 bytes |
| Instructions | 20        |

```
      00 01 02 03 04 05 06 07  08 09 0A 0B 0C 0D 0E 0F
      -- -- -- -- -- -- -- --  -- -- -- -- -- -- -- --
00D0:                                   3E 07 17 0E 80             >....
00E0: 00 01 03 00 00 04 80 03  01 00 0F 80 1A C1 09 27  ...............'
00F0: 80 F8 FF FF 7F 0C 27 80  F8 FF FF 7F 0E 01 41 01  ......'.......A.
0100: 02 00 00 04 80 00 26 01  03 00 00 0A 80 03 02 00  ......&.........
0110: 0B 80 1A C1 09 27 80 F8  FF FF 7F 0C 27 80 F8 FF  .....'......'...
0120: FF 7F 13 01 41 01 03 00  00 04 80 03 01 00 0F 80  ....A...........
0130: 1A C1 09 27 80 F8 FF FF  7F 0C 27 80 F8 FF FF 7F  ...'......'.....
0140: 0E 00                                             ..              
```

#### Opcodes

```
  0: 0x00DB [0x3E] IF !(Work_Zone_1700[7] bit 18*) GOTO 0x0100
  1: 0x00E2 [0x03] ExtData[1]->WorkLocal[0] = 0*
  2: 0x00E7 [0x03] ExtData[1]->WorkLocal[1] = 4294707296*
  3: 0x00EC [0x1A] CALL_SUBROUTINE(address=0x09C1)
  4: 0x00EF [0x27] REQ_SET(priority=0x80, entity_id=EventEntity, tag_num=0x0C)
  5: 0x00F6 [0x27] REQ_SET(priority=0x80, entity_id=EventEntity, tag_num=0x0E)
  6: 0x00FD [0x01] GOTO 0x0141
  7: 0x0100 [0x02] IF !(ExtData[1]->WorkLocal[0] == 0*) GOTO 0x0126
  8: 0x0108 [0x03] ExtData[1]->WorkLocal[0] = 1*
  9: 0x010D [0x03] ExtData[1]->WorkLocal[2] = 83000*
 10: 0x0112 [0x1A] CALL_SUBROUTINE(address=0x09C1)
 11: 0x0115 [0x27] REQ_SET(priority=0x80, entity_id=EventEntity, tag_num=0x0C)
 12: 0x011C [0x27] REQ_SET(priority=0x80, entity_id=EventEntity, tag_num=0x13)
 13: 0x0123 [0x01] GOTO 0x0141
 14: 0x0126 [0x03] ExtData[1]->WorkLocal[0] = 0*
 15: 0x012B [0x03] ExtData[1]->WorkLocal[1] = 4294707296*
 16: 0x0130 [0x1A] CALL_SUBROUTINE(address=0x09C1)
 17: 0x0133 [0x27] REQ_SET(priority=0x80, entity_id=EventEntity, tag_num=0x0C)
 18: 0x013A [0x27] REQ_SET(priority=0x80, entity_id=EventEntity, tag_num=0x0E)

SUBROUTINE_0141:
 19: 0x0141 [0x00] END_REQSTACK()
```

### Event 65535.11

#### Metadata

| Field        | Value     |
|--------------|-----------|
| Entrypoint   | 0x0142    |
| Data Size    | 103 bytes |
| Instructions | 20        |

```
      00 01 02 03 04 05 06 07  08 09 0A 0B 0C 0D 0E 0F
      -- -- -- -- -- -- -- --  -- -- -- -- -- -- -- --
0140:       3E 07 17 0E 80 8D  01 02 00 00 04 80 00 6F    >............o
0150: 01 03 00 00 0C 80 03 02  00 0B 80 1A C1 09 27 80  ..............'.
0160: F8 FF FF 7F 0C 27 80 F8  FF FF 7F 14 01 8A 01 03  .....'..........
0170: 00 00 04 80 03 01 00 10  80 1A C1 09 27 80 F8 FF  ............'...
0180: FF 7F 0C 27 80 F8 FF FF  7F 0F 01 A8 01 03 00 00  ...'............
0190: 04 80 03 01 00 10 80 1A  C1 09 27 80 F8 FF FF 7F  ..........'.....
01A0: 0C 27 80 F8 FF FF 7F 0F  00                       .'.......       
```

#### Opcodes

```
  0: 0x0142 [0x3E] IF !(Work_Zone_1700[7] bit 18*) GOTO 0x018D
  1: 0x0149 [0x02] IF !(ExtData[1]->WorkLocal[0] == 0*) GOTO 0x016F
  2: 0x0151 [0x03] ExtData[1]->WorkLocal[0] = 2*
  3: 0x0156 [0x03] ExtData[1]->WorkLocal[2] = 83000*
  4: 0x015B [0x1A] CALL_SUBROUTINE(address=0x09C1)
  5: 0x015E [0x27] REQ_SET(priority=0x80, entity_id=EventEntity, tag_num=0x0C)
  6: 0x0165 [0x27] REQ_SET(priority=0x80, entity_id=EventEntity, tag_num=0x14)
  7: 0x016C [0x01] GOTO 0x018A
  8: 0x016F [0x03] ExtData[1]->WorkLocal[0] = 0*
  9: 0x0174 [0x03] ExtData[1]->WorkLocal[1] = 4294706296*
 10: 0x0179 [0x1A] CALL_SUBROUTINE(address=0x09C1)
 11: 0x017C [0x27] REQ_SET(priority=0x80, entity_id=EventEntity, tag_num=0x0C)
 12: 0x0183 [0x27] REQ_SET(priority=0x80, entity_id=EventEntity, tag_num=0x0F)

SUBROUTINE_018A:
 13: 0x018A [0x01] GOTO 0x01A8
 14: 0x018D [0x03] ExtData[1]->WorkLocal[0] = 0*
 15: 0x0192 [0x03] ExtData[1]->WorkLocal[1] = 4294706296*
 16: 0x0197 [0x1A] CALL_SUBROUTINE(address=0x09C1)
 17: 0x019A [0x27] REQ_SET(priority=0x80, entity_id=EventEntity, tag_num=0x0C)
 18: 0x01A1 [0x27] REQ_SET(priority=0x80, entity_id=EventEntity, tag_num=0x0F)

SUBROUTINE_01A8:
 19: 0x01A8 [0x00] END_REQSTACK()
```

### Event 65535.12

#### Metadata

| Field        | Value     |
|--------------|-----------|
| Entrypoint   | 0x01A9    |
| Data Size    | 103 bytes |
| Instructions | 20        |

```
      00 01 02 03 04 05 06 07  08 09 0A 0B 0C 0D 0E 0F
      -- -- -- -- -- -- -- --  -- -- -- -- -- -- -- --
01A0:                             3E 07 17 11 80 CE 01           >......
01B0: 03 00 00 04 80 03 01 00  12 80 1A C1 09 27 80 F8  .............'..
01C0: FF FF 7F 0C 27 80 F8 FF  FF 7F 10 01 0F 02 02 00  ....'...........
01D0: 00 04 80 00 F4 01 03 00  00 13 80 03 02 00 0B 80  ................
01E0: 1A C1 09 27 80 F8 FF FF  7F 0C 27 80 F8 FF FF 7F  ...'......'.....
01F0: 15 01 0F 02 03 00 00 04  80 03 01 00 12 80 1A C1  ................
0200: 09 27 80 F8 FF FF 7F 0C  27 80 F8 FF FF 7F 10 00  .'......'.......
```

#### Opcodes

```
  0: 0x01A9 [0x3E] IF !(Work_Zone_1700[7] bit 19*) GOTO 0x01CE
  1: 0x01B0 [0x03] ExtData[1]->WorkLocal[0] = 0*
  2: 0x01B5 [0x03] ExtData[1]->WorkLocal[1] = 4294705296*
  3: 0x01BA [0x1A] CALL_SUBROUTINE(address=0x09C1)
  4: 0x01BD [0x27] REQ_SET(priority=0x80, entity_id=EventEntity, tag_num=0x0C)
  5: 0x01C4 [0x27] REQ_SET(priority=0x80, entity_id=EventEntity, tag_num=0x10)
  6: 0x01CB [0x01] GOTO 0x020F
  7: 0x01CE [0x02] IF !(ExtData[1]->WorkLocal[0] == 0*) GOTO 0x01F4
  8: 0x01D6 [0x03] ExtData[1]->WorkLocal[0] = 3*
  9: 0x01DB [0x03] ExtData[1]->WorkLocal[2] = 83000*
 10: 0x01E0 [0x1A] CALL_SUBROUTINE(address=0x09C1)
 11: 0x01E3 [0x27] REQ_SET(priority=0x80, entity_id=EventEntity, tag_num=0x0C)
 12: 0x01EA [0x27] REQ_SET(priority=0x80, entity_id=EventEntity, tag_num=0x15)
 13: 0x01F1 [0x01] GOTO 0x020F
 14: 0x01F4 [0x03] ExtData[1]->WorkLocal[0] = 0*
 15: 0x01F9 [0x03] ExtData[1]->WorkLocal[1] = 4294705296*
 16: 0x01FE [0x1A] CALL_SUBROUTINE(address=0x09C1)
 17: 0x0201 [0x27] REQ_SET(priority=0x80, entity_id=EventEntity, tag_num=0x0C)
 18: 0x0208 [0x27] REQ_SET(priority=0x80, entity_id=EventEntity, tag_num=0x10)

SUBROUTINE_020F:
 19: 0x020F [0x00] END_REQSTACK()
```

### Event 65535.13

#### Metadata

| Field        | Value     |
|--------------|-----------|
| Entrypoint   | 0x0210    |
| Data Size    | 103 bytes |
| Instructions | 20        |

```
      00 01 02 03 04 05 06 07  08 09 0A 0B 0C 0D 0E 0F
      -- -- -- -- -- -- -- --  -- -- -- -- -- -- -- --
0210: 3E 07 17 11 80 5B 02 02  00 00 04 80 00 3D 02 03  >....[.......=..
0220: 00 00 14 80 03 02 00 0B  80 1A C1 09 27 80 F8 FF  ............'...
0230: FF 7F 0C 27 80 F8 FF FF  7F 16 01 58 02 03 00 00  ...'.......X....
0240: 04 80 03 01 00 15 80 1A  C1 09 27 80 F8 FF FF 7F  ..........'.....
0250: 0C 27 80 F8 FF FF 7F 11  01 76 02 03 00 00 04 80  .'.......v......
0260: 03 01 00 15 80 1A C1 09  27 80 F8 FF FF 7F 0C 27  ........'......'
0270: 80 F8 FF FF 7F 11 00                              .......         
```

#### Opcodes

```
  0: 0x0210 [0x3E] IF !(Work_Zone_1700[7] bit 19*) GOTO 0x025B
  1: 0x0217 [0x02] IF !(ExtData[1]->WorkLocal[0] == 0*) GOTO 0x023D
  2: 0x021F [0x03] ExtData[1]->WorkLocal[0] = 4*
  3: 0x0224 [0x03] ExtData[1]->WorkLocal[2] = 83000*
  4: 0x0229 [0x1A] CALL_SUBROUTINE(address=0x09C1)
  5: 0x022C [0x27] REQ_SET(priority=0x80, entity_id=EventEntity, tag_num=0x0C)
  6: 0x0233 [0x27] REQ_SET(priority=0x80, entity_id=EventEntity, tag_num=0x16)
  7: 0x023A [0x01] GOTO 0x0258
  8: 0x023D [0x03] ExtData[1]->WorkLocal[0] = 0*
  9: 0x0242 [0x03] ExtData[1]->WorkLocal[1] = 4294704296*
 10: 0x0247 [0x1A] CALL_SUBROUTINE(address=0x09C1)
 11: 0x024A [0x27] REQ_SET(priority=0x80, entity_id=EventEntity, tag_num=0x0C)
 12: 0x0251 [0x27] REQ_SET(priority=0x80, entity_id=EventEntity, tag_num=0x11)

SUBROUTINE_0258:
 13: 0x0258 [0x01] GOTO 0x0276
 14: 0x025B [0x03] ExtData[1]->WorkLocal[0] = 0*
 15: 0x0260 [0x03] ExtData[1]->WorkLocal[1] = 4294704296*
 16: 0x0265 [0x1A] CALL_SUBROUTINE(address=0x09C1)
 17: 0x0268 [0x27] REQ_SET(priority=0x80, entity_id=EventEntity, tag_num=0x0C)
 18: 0x026F [0x27] REQ_SET(priority=0x80, entity_id=EventEntity, tag_num=0x11)

SUBROUTINE_0276:
 19: 0x0276 [0x00] END_REQSTACK()
```

### Event 65535.14

#### Metadata

| Field        | Value     |
|--------------|-----------|
| Entrypoint   | 0x0277    |
| Data Size    | 103 bytes |
| Instructions | 20        |

```
      00 01 02 03 04 05 06 07  08 09 0A 0B 0C 0D 0E 0F
      -- -- -- -- -- -- -- --  -- -- -- -- -- -- -- --
0270:                      3E  07 17 05 80 9C 02 03 00         >........
0280: 00 04 80 03 01 00 16 80  1A C1 09 27 80 F8 FF FF  ...........'....
0290: 7F 0C 27 80 F8 FF FF 7F  12 01 DD 02 02 00 00 04  ..'.............
02A0: 80 00 C2 02 03 00 00 17  80 03 02 00 0B 80 1A C1  ................
02B0: 09 27 80 F8 FF FF 7F 0C  27 80 F8 FF FF 7F 17 01  .'......'.......
02C0: DD 02 03 00 00 04 80 03  01 00 16 80 1A C1 09 27  ...............'
02D0: 80 F8 FF FF 7F 0C 27 80  F8 FF FF 7F 12 00        ......'.......  
```

#### Opcodes

```
  0: 0x0277 [0x3E] IF !(Work_Zone_1700[7] bit 20*) GOTO 0x029C
  1: 0x027E [0x03] ExtData[1]->WorkLocal[0] = 0*
  2: 0x0283 [0x03] ExtData[1]->WorkLocal[1] = 4294703296*
  3: 0x0288 [0x1A] CALL_SUBROUTINE(address=0x09C1)
  4: 0x028B [0x27] REQ_SET(priority=0x80, entity_id=EventEntity, tag_num=0x0C)
  5: 0x0292 [0x27] REQ_SET(priority=0x80, entity_id=EventEntity, tag_num=0x12)
  6: 0x0299 [0x01] GOTO 0x02DD
  7: 0x029C [0x02] IF !(ExtData[1]->WorkLocal[0] == 0*) GOTO 0x02C2
  8: 0x02A4 [0x03] ExtData[1]->WorkLocal[0] = 5*
  9: 0x02A9 [0x03] ExtData[1]->WorkLocal[2] = 83000*
 10: 0x02AE [0x1A] CALL_SUBROUTINE(address=0x09C1)
 11: 0x02B1 [0x27] REQ_SET(priority=0x80, entity_id=EventEntity, tag_num=0x0C)
 12: 0x02B8 [0x27] REQ_SET(priority=0x80, entity_id=EventEntity, tag_num=0x17)
 13: 0x02BF [0x01] GOTO 0x02DD
 14: 0x02C2 [0x03] ExtData[1]->WorkLocal[0] = 0*
 15: 0x02C7 [0x03] ExtData[1]->WorkLocal[1] = 4294703296*
 16: 0x02CC [0x1A] CALL_SUBROUTINE(address=0x09C1)
 17: 0x02CF [0x27] REQ_SET(priority=0x80, entity_id=EventEntity, tag_num=0x0C)
 18: 0x02D6 [0x27] REQ_SET(priority=0x80, entity_id=EventEntity, tag_num=0x12)

SUBROUTINE_02DD:
 19: 0x02DD [0x00] END_REQSTACK()
```

### Event 65535.15

#### Metadata

| Field        | Value     |
|--------------|-----------|
| Entrypoint   | 0x02DE    |
| Data Size    | 167 bytes |
| Instructions | 32        |

```
      00 01 02 03 04 05 06 07  08 09 0A 0B 0C 0D 0E 0F
      -- -- -- -- -- -- -- --  -- -- -- -- -- -- -- --
02D0:                                            3E 07                >.
02E0: 17 05 80 49 03 02 00 00  04 80 00 0B 03 03 00 00  ...I............
02F0: 18 80 03 02 00 0B 80 1A  C1 09 27 80 F8 FF FF 7F  ..........'.....
0300: 0C 27 80 F8 FF FF 7F 18  01 46 03 03 00 00 04 80  .'.......F......
0310: 03 01 00 19 80 1A C1 09  27 80 F8 FF FF 7F 0C 02  ........'.......
0320: 04 00 04 80 80 2F 03 03  04 17 04 80 01 3F 03 02  ...../.......?..
0330: 04 00 0A 80 80 3F 03 03  05 17 04 80 01 3F 03 27  .....?.......?.'
0340: 80 F8 FF FF 7F 1F 01 84  03 03 00 00 04 80 03 01  ................
0350: 00 19 80 1A C1 09 27 80  F8 FF FF 7F 0C 02 04 00  ......'.........
0360: 04 80 80 6D 03 03 04 17  04 80 01 7D 03 02 04 00  ...m.......}....
0370: 0A 80 80 7D 03 03 05 17  04 80 01 7D 03 27 80 F8  ...}.......}.'..
0380: FF FF 7F 1F 00                                    .....           
```

#### Opcodes

```
  0: 0x02DE [0x3E] IF !(Work_Zone_1700[7] bit 20*) GOTO 0x0349
  1: 0x02E5 [0x02] IF !(ExtData[1]->WorkLocal[0] == 0*) GOTO 0x030B
  2: 0x02ED [0x03] ExtData[1]->WorkLocal[0] = 6*
  3: 0x02F2 [0x03] ExtData[1]->WorkLocal[2] = 83000*
  4: 0x02F7 [0x1A] CALL_SUBROUTINE(address=0x09C1)
  5: 0x02FA [0x27] REQ_SET(priority=0x80, entity_id=EventEntity, tag_num=0x0C)
  6: 0x0301 [0x27] REQ_SET(priority=0x80, entity_id=EventEntity, tag_num=0x18)
  7: 0x0308 [0x01] GOTO 0x0346
  8: 0x030B [0x03] ExtData[1]->WorkLocal[0] = 0*
  9: 0x0310 [0x03] ExtData[1]->WorkLocal[1] = 4294702296*
 10: 0x0315 [0x1A] CALL_SUBROUTINE(address=0x09C1)
 11: 0x0318 [0x27] REQ_SET(priority=0x80, entity_id=EventEntity, tag_num=0x0C)
 12: 0x031F [0x02] IF !(ExtData[1]->WorkLocal[4] == 0*) GOTO 0x032F
 13: 0x0327 [0x03] Work_Zone_1700[4] = 0*
 14: 0x032C [0x01] GOTO 0x033F
 15: 0x032F [0x02] IF !(ExtData[1]->WorkLocal[4] == 1*) GOTO 0x033F
 16: 0x0337 [0x03] Work_Zone_1700[5] = 0*
 17: 0x033C [0x01] GOTO 0x033F

SUBROUTINE_033F:
 18: 0x033F [0x27] REQ_SET(priority=0x80, entity_id=EventEntity, tag_num=0x1F)

SUBROUTINE_0346:
 19: 0x0346 [0x01] GOTO 0x0384
 20: 0x0349 [0x03] ExtData[1]->WorkLocal[0] = 0*
 21: 0x034E [0x03] ExtData[1]->WorkLocal[1] = 4294702296*
 22: 0x0353 [0x1A] CALL_SUBROUTINE(address=0x09C1)
 23: 0x0356 [0x27] REQ_SET(priority=0x80, entity_id=EventEntity, tag_num=0x0C)
 24: 0x035D [0x02] IF !(ExtData[1]->WorkLocal[4] == 0*) GOTO 0x036D
 25: 0x0365 [0x03] Work_Zone_1700[4] = 0*
 26: 0x036A [0x01] GOTO 0x037D
 27: 0x036D [0x02] IF !(ExtData[1]->WorkLocal[4] == 1*) GOTO 0x037D
 28: 0x0375 [0x03] Work_Zone_1700[5] = 0*
 29: 0x037A [0x01] GOTO 0x037D

SUBROUTINE_037D:
 30: 0x037D [0x27] REQ_SET(priority=0x80, entity_id=EventEntity, tag_num=0x1F)

SUBROUTINE_0384:
 31: 0x0384 [0x00] END_REQSTACK()
```

### Event 65535.16

#### Metadata

| Field        | Value     |
|--------------|-----------|
| Entrypoint   | 0x0385    |
| Data Size    | 141 bytes |
| Instructions | 27        |

```
      00 01 02 03 04 05 06 07  08 09 0A 0B 0C 0D 0E 0F
      -- -- -- -- -- -- -- --  -- -- -- -- -- -- -- --
0380:                3E 07 17  0E 80 D0 03 02 00 00 04       >..........
0390: 80 00 B2 03 03 00 00 1A  80 03 02 00 0D 80 1A C1  ................
03A0: 09 27 80 F8 FF FF 7F 0C  27 80 F8 FF FF 7F 19 01  .'......'.......
03B0: CD 03 03 00 00 04 80 03  01 00 0F 80 1A C1 09 27  ...............'
03C0: 80 F8 FF FF 7F 0C 27 80  F8 FF FF 7F 14 01 11 04  ......'.........
03D0: 02 00 00 04 80 00 F6 03  03 00 00 1A 80 03 02 00  ................
03E0: 09 80 1A C1 09 27 80 F8  FF FF 7F 0C 27 80 F8 FF  .....'......'...
03F0: FF 7F 0D 01 11 04 03 00  00 04 80 03 01 00 0F 80  ................
0400: 1A C1 09 27 80 F8 FF FF  7F 0C 27 80 F8 FF FF 7F  ...'......'.....
0410: 14 00                                             ..              
```

#### Opcodes

```
  0: 0x0385 [0x3E] IF !(Work_Zone_1700[7] bit 18*) GOTO 0x03D0
  1: 0x038C [0x02] IF !(ExtData[1]->WorkLocal[0] == 0*) GOTO 0x03B2
  2: 0x0394 [0x03] ExtData[1]->WorkLocal[0] = 7*
  3: 0x0399 [0x03] ExtData[1]->WorkLocal[2] = 85500*
  4: 0x039E [0x1A] CALL_SUBROUTINE(address=0x09C1)
  5: 0x03A1 [0x27] REQ_SET(priority=0x80, entity_id=EventEntity, tag_num=0x0C)
  6: 0x03A8 [0x27] REQ_SET(priority=0x80, entity_id=EventEntity, tag_num=0x19)
  7: 0x03AF [0x01] GOTO 0x03CD
  8: 0x03B2 [0x03] ExtData[1]->WorkLocal[0] = 0*
  9: 0x03B7 [0x03] ExtData[1]->WorkLocal[1] = 4294707296*
 10: 0x03BC [0x1A] CALL_SUBROUTINE(address=0x09C1)
 11: 0x03BF [0x27] REQ_SET(priority=0x80, entity_id=EventEntity, tag_num=0x0C)
 12: 0x03C6 [0x27] REQ_SET(priority=0x80, entity_id=EventEntity, tag_num=0x14)

SUBROUTINE_03CD:
 13: 0x03CD [0x01] GOTO 0x0411
 14: 0x03D0 [0x02] IF !(ExtData[1]->WorkLocal[0] == 0*) GOTO 0x03F6
 15: 0x03D8 [0x03] ExtData[1]->WorkLocal[0] = 7*
 16: 0x03DD [0x03] ExtData[1]->WorkLocal[2] = 80500*
 17: 0x03E2 [0x1A] CALL_SUBROUTINE(address=0x09C1)
 18: 0x03E5 [0x27] REQ_SET(priority=0x80, entity_id=EventEntity, tag_num=0x0C)
 19: 0x03EC [0x27] REQ_SET(priority=0x80, entity_id=EventEntity, tag_num=0x0D)
 20: 0x03F3 [0x01] GOTO 0x0411
 21: 0x03F6 [0x03] ExtData[1]->WorkLocal[0] = 0*
 22: 0x03FB [0x03] ExtData[1]->WorkLocal[1] = 4294707296*
 23: 0x0400 [0x1A] CALL_SUBROUTINE(address=0x09C1)
 24: 0x0403 [0x27] REQ_SET(priority=0x80, entity_id=EventEntity, tag_num=0x0C)
 25: 0x040A [0x27] REQ_SET(priority=0x80, entity_id=EventEntity, tag_num=0x14)

SUBROUTINE_0411:
 26: 0x0411 [0x00] END_REQSTACK()
```

### Event 65535.17

#### Metadata

| Field        | Value     |
|--------------|-----------|
| Entrypoint   | 0x0412    |
| Data Size    | 141 bytes |
| Instructions | 27        |

```
      00 01 02 03 04 05 06 07  08 09 0A 0B 0C 0D 0E 0F
      -- -- -- -- -- -- -- --  -- -- -- -- -- -- -- --
0410:       3E 07 17 0E 80 5D  04 02 00 00 04 80 00 3F    >....].......?
0420: 04 03 00 00 1B 80 03 02  00 09 80 1A C1 09 27 80  ..............'.
0430: F8 FF FF 7F 0C 27 80 F8  FF FF 7F 0E 01 5A 04 03  .....'.......Z..
0440: 00 00 04 80 03 01 00 10  80 1A C1 09 27 80 F8 FF  ............'...
0450: FF 7F 0C 27 80 F8 FF FF  7F 15 01 9E 04 02 00 00  ...'............
0460: 04 80 00 83 04 03 00 00  1B 80 03 02 00 0D 80 1A  ................
0470: C1 09 27 80 F8 FF FF 7F  0C 27 80 F8 FF FF 7F 1A  ..'......'......
0480: 01 9E 04 03 00 00 04 80  03 01 00 10 80 1A C1 09  ................
0490: 27 80 F8 FF FF 7F 0C 27  80 F8 FF FF 7F 15 00     '......'....... 
```

#### Opcodes

```
  0: 0x0412 [0x3E] IF !(Work_Zone_1700[7] bit 18*) GOTO 0x045D
  1: 0x0419 [0x02] IF !(ExtData[1]->WorkLocal[0] == 0*) GOTO 0x043F
  2: 0x0421 [0x03] ExtData[1]->WorkLocal[0] = 8*
  3: 0x0426 [0x03] ExtData[1]->WorkLocal[2] = 80500*
  4: 0x042B [0x1A] CALL_SUBROUTINE(address=0x09C1)
  5: 0x042E [0x27] REQ_SET(priority=0x80, entity_id=EventEntity, tag_num=0x0C)
  6: 0x0435 [0x27] REQ_SET(priority=0x80, entity_id=EventEntity, tag_num=0x0E)
  7: 0x043C [0x01] GOTO 0x045A
  8: 0x043F [0x03] ExtData[1]->WorkLocal[0] = 0*
  9: 0x0444 [0x03] ExtData[1]->WorkLocal[1] = 4294706296*
 10: 0x0449 [0x1A] CALL_SUBROUTINE(address=0x09C1)
 11: 0x044C [0x27] REQ_SET(priority=0x80, entity_id=EventEntity, tag_num=0x0C)
 12: 0x0453 [0x27] REQ_SET(priority=0x80, entity_id=EventEntity, tag_num=0x15)

SUBROUTINE_045A:
 13: 0x045A [0x01] GOTO 0x049E
 14: 0x045D [0x02] IF !(ExtData[1]->WorkLocal[0] == 0*) GOTO 0x0483
 15: 0x0465 [0x03] ExtData[1]->WorkLocal[0] = 8*
 16: 0x046A [0x03] ExtData[1]->WorkLocal[2] = 85500*
 17: 0x046F [0x1A] CALL_SUBROUTINE(address=0x09C1)
 18: 0x0472 [0x27] REQ_SET(priority=0x80, entity_id=EventEntity, tag_num=0x0C)
 19: 0x0479 [0x27] REQ_SET(priority=0x80, entity_id=EventEntity, tag_num=0x1A)
 20: 0x0480 [0x01] GOTO 0x049E
 21: 0x0483 [0x03] ExtData[1]->WorkLocal[0] = 0*
 22: 0x0488 [0x03] ExtData[1]->WorkLocal[1] = 4294706296*
 23: 0x048D [0x1A] CALL_SUBROUTINE(address=0x09C1)
 24: 0x0490 [0x27] REQ_SET(priority=0x80, entity_id=EventEntity, tag_num=0x0C)
 25: 0x0497 [0x27] REQ_SET(priority=0x80, entity_id=EventEntity, tag_num=0x15)

SUBROUTINE_049E:
 26: 0x049E [0x00] END_REQSTACK()
```

### Event 65535.18

#### Metadata

| Field        | Value     |
|--------------|-----------|
| Entrypoint   | 0x049F    |
| Data Size    | 141 bytes |
| Instructions | 27        |

```
      00 01 02 03 04 05 06 07  08 09 0A 0B 0C 0D 0E 0F
      -- -- -- -- -- -- -- --  -- -- -- -- -- -- -- --
0490:                                               3E                 >
04A0: 07 17 11 80 EA 04 02 00  00 04 80 00 CC 04 03 00  ................
04B0: 00 1C 80 03 02 00 0D 80  1A C1 09 27 80 F8 FF FF  ...........'....
04C0: 7F 0C 27 80 F8 FF FF 7F  1B 01 E7 04 03 00 00 04  ..'.............
04D0: 80 03 01 00 12 80 1A C1  09 27 80 F8 FF FF 7F 0C  .........'......
04E0: 27 80 F8 FF FF 7F 16 01  2B 05 02 00 00 04 80 00  '.......+.......
04F0: 10 05 03 00 00 1C 80 03  02 00 09 80 1A C1 09 27  ...............'
0500: 80 F8 FF FF 7F 0C 27 80  F8 FF FF 7F 0F 01 2B 05  ......'.......+.
0510: 03 00 00 04 80 03 01 00  12 80 1A C1 09 27 80 F8  .............'..
0520: FF FF 7F 0C 27 80 F8 FF  FF 7F 16 00              ....'.......    
```

#### Opcodes

```
  0: 0x049F [0x3E] IF !(Work_Zone_1700[7] bit 19*) GOTO 0x04EA
  1: 0x04A6 [0x02] IF !(ExtData[1]->WorkLocal[0] == 0*) GOTO 0x04CC
  2: 0x04AE [0x03] ExtData[1]->WorkLocal[0] = 9*
  3: 0x04B3 [0x03] ExtData[1]->WorkLocal[2] = 85500*
  4: 0x04B8 [0x1A] CALL_SUBROUTINE(address=0x09C1)
  5: 0x04BB [0x27] REQ_SET(priority=0x80, entity_id=EventEntity, tag_num=0x0C)
  6: 0x04C2 [0x27] REQ_SET(priority=0x80, entity_id=EventEntity, tag_num=0x1B)
  7: 0x04C9 [0x01] GOTO 0x04E7
  8: 0x04CC [0x03] ExtData[1]->WorkLocal[0] = 0*
  9: 0x04D1 [0x03] ExtData[1]->WorkLocal[1] = 4294705296*
 10: 0x04D6 [0x1A] CALL_SUBROUTINE(address=0x09C1)
 11: 0x04D9 [0x27] REQ_SET(priority=0x80, entity_id=EventEntity, tag_num=0x0C)
 12: 0x04E0 [0x27] REQ_SET(priority=0x80, entity_id=EventEntity, tag_num=0x16)

SUBROUTINE_04E7:
 13: 0x04E7 [0x01] GOTO 0x052B
 14: 0x04EA [0x02] IF !(ExtData[1]->WorkLocal[0] == 0*) GOTO 0x0510
 15: 0x04F2 [0x03] ExtData[1]->WorkLocal[0] = 9*
 16: 0x04F7 [0x03] ExtData[1]->WorkLocal[2] = 80500*
 17: 0x04FC [0x1A] CALL_SUBROUTINE(address=0x09C1)
 18: 0x04FF [0x27] REQ_SET(priority=0x80, entity_id=EventEntity, tag_num=0x0C)
 19: 0x0506 [0x27] REQ_SET(priority=0x80, entity_id=EventEntity, tag_num=0x0F)
 20: 0x050D [0x01] GOTO 0x052B
 21: 0x0510 [0x03] ExtData[1]->WorkLocal[0] = 0*
 22: 0x0515 [0x03] ExtData[1]->WorkLocal[1] = 4294705296*
 23: 0x051A [0x1A] CALL_SUBROUTINE(address=0x09C1)
 24: 0x051D [0x27] REQ_SET(priority=0x80, entity_id=EventEntity, tag_num=0x0C)
 25: 0x0524 [0x27] REQ_SET(priority=0x80, entity_id=EventEntity, tag_num=0x16)

SUBROUTINE_052B:
 26: 0x052B [0x00] END_REQSTACK()
```

### Event 65535.19

#### Metadata

| Field        | Value     |
|--------------|-----------|
| Entrypoint   | 0x052C    |
| Data Size    | 141 bytes |
| Instructions | 27        |

```
      00 01 02 03 04 05 06 07  08 09 0A 0B 0C 0D 0E 0F
      -- -- -- -- -- -- -- --  -- -- -- -- -- -- -- --
0520:                                      3E 07 17 11              >...
0530: 80 77 05 02 00 00 04 80  00 59 05 03 00 00 1D 80  .w.......Y......
0540: 03 02 00 09 80 1A C1 09  27 80 F8 FF FF 7F 0C 27  ........'......'
0550: 80 F8 FF FF 7F 10 01 74  05 03 00 00 04 80 03 01  .......t........
0560: 00 15 80 1A C1 09 27 80  F8 FF FF 7F 0C 27 80 F8  ......'......'..
0570: FF FF 7F 17 01 B8 05 02  00 00 04 80 00 9D 05 03  ................
0580: 00 00 1D 80 03 02 00 0D  80 1A C1 09 27 80 F8 FF  ............'...
0590: FF 7F 0C 27 80 F8 FF FF  7F 1C 01 B8 05 03 00 00  ...'............
05A0: 04 80 03 01 00 15 80 1A  C1 09 27 80 F8 FF FF 7F  ..........'.....
05B0: 0C 27 80 F8 FF FF 7F 17  00                       .'.......       
```

#### Opcodes

```
  0: 0x052C [0x3E] IF !(Work_Zone_1700[7] bit 19*) GOTO 0x0577
  1: 0x0533 [0x02] IF !(ExtData[1]->WorkLocal[0] == 0*) GOTO 0x0559
  2: 0x053B [0x03] ExtData[1]->WorkLocal[0] = 10*
  3: 0x0540 [0x03] ExtData[1]->WorkLocal[2] = 80500*
  4: 0x0545 [0x1A] CALL_SUBROUTINE(address=0x09C1)
  5: 0x0548 [0x27] REQ_SET(priority=0x80, entity_id=EventEntity, tag_num=0x0C)
  6: 0x054F [0x27] REQ_SET(priority=0x80, entity_id=EventEntity, tag_num=0x10)
  7: 0x0556 [0x01] GOTO 0x0574
  8: 0x0559 [0x03] ExtData[1]->WorkLocal[0] = 0*
  9: 0x055E [0x03] ExtData[1]->WorkLocal[1] = 4294704296*
 10: 0x0563 [0x1A] CALL_SUBROUTINE(address=0x09C1)
 11: 0x0566 [0x27] REQ_SET(priority=0x80, entity_id=EventEntity, tag_num=0x0C)
 12: 0x056D [0x27] REQ_SET(priority=0x80, entity_id=EventEntity, tag_num=0x17)

SUBROUTINE_0574:
 13: 0x0574 [0x01] GOTO 0x05B8
 14: 0x0577 [0x02] IF !(ExtData[1]->WorkLocal[0] == 0*) GOTO 0x059D
 15: 0x057F [0x03] ExtData[1]->WorkLocal[0] = 10*
 16: 0x0584 [0x03] ExtData[1]->WorkLocal[2] = 85500*
 17: 0x0589 [0x1A] CALL_SUBROUTINE(address=0x09C1)
 18: 0x058C [0x27] REQ_SET(priority=0x80, entity_id=EventEntity, tag_num=0x0C)
 19: 0x0593 [0x27] REQ_SET(priority=0x80, entity_id=EventEntity, tag_num=0x1C)
 20: 0x059A [0x01] GOTO 0x05B8
 21: 0x059D [0x03] ExtData[1]->WorkLocal[0] = 0*
 22: 0x05A2 [0x03] ExtData[1]->WorkLocal[1] = 4294704296*
 23: 0x05A7 [0x1A] CALL_SUBROUTINE(address=0x09C1)
 24: 0x05AA [0x27] REQ_SET(priority=0x80, entity_id=EventEntity, tag_num=0x0C)
 25: 0x05B1 [0x27] REQ_SET(priority=0x80, entity_id=EventEntity, tag_num=0x17)

SUBROUTINE_05B8:
 26: 0x05B8 [0x00] END_REQSTACK()
```

### Event 65535.20

#### Metadata

| Field        | Value     |
|--------------|-----------|
| Entrypoint   | 0x05B9    |
| Data Size    | 141 bytes |
| Instructions | 27        |

```
      00 01 02 03 04 05 06 07  08 09 0A 0B 0C 0D 0E 0F
      -- -- -- -- -- -- -- --  -- -- -- -- -- -- -- --
05B0:                             3E 07 17 05 80 04 06           >......
05C0: 02 00 00 04 80 00 E6 05  03 00 00 1E 80 03 02 00  ................
05D0: 0D 80 1A C1 09 27 80 F8  FF FF 7F 0C 27 80 F8 FF  .....'......'...
05E0: FF 7F 1D 01 01 06 03 00  00 04 80 03 01 00 16 80  ................
05F0: 1A C1 09 27 80 F8 FF FF  7F 0C 27 80 F8 FF FF 7F  ...'......'.....
0600: 18 01 45 06 02 00 00 04  80 00 2A 06 03 00 00 1E  ..E.......*.....
0610: 80 03 02 00 09 80 1A C1  09 27 80 F8 FF FF 7F 0C  .........'......
0620: 27 80 F8 FF FF 7F 11 01  45 06 03 00 00 04 80 03  '.......E.......
0630: 01 00 16 80 1A C1 09 27  80 F8 FF FF 7F 0C 27 80  .......'......'.
0640: F8 FF FF 7F 18 00                                 ......          
```

#### Opcodes

```
  0: 0x05B9 [0x3E] IF !(Work_Zone_1700[7] bit 20*) GOTO 0x0604
  1: 0x05C0 [0x02] IF !(ExtData[1]->WorkLocal[0] == 0*) GOTO 0x05E6
  2: 0x05C8 [0x03] ExtData[1]->WorkLocal[0] = 11*
  3: 0x05CD [0x03] ExtData[1]->WorkLocal[2] = 85500*
  4: 0x05D2 [0x1A] CALL_SUBROUTINE(address=0x09C1)
  5: 0x05D5 [0x27] REQ_SET(priority=0x80, entity_id=EventEntity, tag_num=0x0C)
  6: 0x05DC [0x27] REQ_SET(priority=0x80, entity_id=EventEntity, tag_num=0x1D)
  7: 0x05E3 [0x01] GOTO 0x0601
  8: 0x05E6 [0x03] ExtData[1]->WorkLocal[0] = 0*
  9: 0x05EB [0x03] ExtData[1]->WorkLocal[1] = 4294703296*
 10: 0x05F0 [0x1A] CALL_SUBROUTINE(address=0x09C1)
 11: 0x05F3 [0x27] REQ_SET(priority=0x80, entity_id=EventEntity, tag_num=0x0C)
 12: 0x05FA [0x27] REQ_SET(priority=0x80, entity_id=EventEntity, tag_num=0x18)

SUBROUTINE_0601:
 13: 0x0601 [0x01] GOTO 0x0645
 14: 0x0604 [0x02] IF !(ExtData[1]->WorkLocal[0] == 0*) GOTO 0x062A
 15: 0x060C [0x03] ExtData[1]->WorkLocal[0] = 11*
 16: 0x0611 [0x03] ExtData[1]->WorkLocal[2] = 80500*
 17: 0x0616 [0x1A] CALL_SUBROUTINE(address=0x09C1)
 18: 0x0619 [0x27] REQ_SET(priority=0x80, entity_id=EventEntity, tag_num=0x0C)
 19: 0x0620 [0x27] REQ_SET(priority=0x80, entity_id=EventEntity, tag_num=0x11)
 20: 0x0627 [0x01] GOTO 0x0645
 21: 0x062A [0x03] ExtData[1]->WorkLocal[0] = 0*
 22: 0x062F [0x03] ExtData[1]->WorkLocal[1] = 4294703296*
 23: 0x0634 [0x1A] CALL_SUBROUTINE(address=0x09C1)
 24: 0x0637 [0x27] REQ_SET(priority=0x80, entity_id=EventEntity, tag_num=0x0C)
 25: 0x063E [0x27] REQ_SET(priority=0x80, entity_id=EventEntity, tag_num=0x18)

SUBROUTINE_0645:
 26: 0x0645 [0x00] END_REQSTACK()
```

### Event 65535.21

#### Metadata

| Field        | Value     |
|--------------|-----------|
| Entrypoint   | 0x0646    |
| Data Size    | 205 bytes |
| Instructions | 39        |

```
      00 01 02 03 04 05 06 07  08 09 0A 0B 0C 0D 0E 0F
      -- -- -- -- -- -- -- --  -- -- -- -- -- -- -- --
0640:                   3E 07  17 05 80 B1 06 02 00 00        >.........
0650: 04 80 00 73 06 03 00 00  1F 80 03 02 00 09 80 1A  ...s............
0660: C1 09 27 80 F8 FF FF 7F  0C 27 80 F8 FF FF 7F 12  ..'......'......
0670: 01 AE 06 03 00 00 04 80  03 01 00 19 80 1A C1 09  ................
0680: 27 80 F8 FF FF 7F 0C 02  04 00 04 80 80 97 06 03  '...............
0690: 04 17 0A 80 01 A7 06 02  04 00 0A 80 80 A7 06 03  ................
06A0: 05 17 0A 80 01 A7 06 27  80 F8 FF FF 7F 1F 01 12  .......'........
06B0: 07 02 00 00 04 80 00 D7  06 03 00 00 1F 80 03 02  ................
06C0: 00 0D 80 1A C1 09 27 80  F8 FF FF 7F 0C 27 80 F8  ......'......'..
06D0: FF FF 7F 1E 01 12 07 03  00 00 04 80 03 01 00 19  ................
06E0: 80 1A C1 09 27 80 F8 FF  FF 7F 0C 02 04 00 04 80  ....'...........
06F0: 80 FB 06 03 04 17 0A 80  01 0B 07 02 04 00 0A 80  ................
0700: 80 0B 07 03 05 17 0A 80  01 0B 07 27 80 F8 FF FF  ...........'....
0710: 7F 1F 00                                          ...             
```

#### Opcodes

```
  0: 0x0646 [0x3E] IF !(Work_Zone_1700[7] bit 20*) GOTO 0x06B1
  1: 0x064D [0x02] IF !(ExtData[1]->WorkLocal[0] == 0*) GOTO 0x0673
  2: 0x0655 [0x03] ExtData[1]->WorkLocal[0] = 12*
  3: 0x065A [0x03] ExtData[1]->WorkLocal[2] = 80500*
  4: 0x065F [0x1A] CALL_SUBROUTINE(address=0x09C1)
  5: 0x0662 [0x27] REQ_SET(priority=0x80, entity_id=EventEntity, tag_num=0x0C)
  6: 0x0669 [0x27] REQ_SET(priority=0x80, entity_id=EventEntity, tag_num=0x12)
  7: 0x0670 [0x01] GOTO 0x06AE
  8: 0x0673 [0x03] ExtData[1]->WorkLocal[0] = 0*
  9: 0x0678 [0x03] ExtData[1]->WorkLocal[1] = 4294702296*
 10: 0x067D [0x1A] CALL_SUBROUTINE(address=0x09C1)
 11: 0x0680 [0x27] REQ_SET(priority=0x80, entity_id=EventEntity, tag_num=0x0C)
 12: 0x0687 [0x02] IF !(ExtData[1]->WorkLocal[4] == 0*) GOTO 0x0697
 13: 0x068F [0x03] Work_Zone_1700[4] = 1*
 14: 0x0694 [0x01] GOTO 0x06A7
 15: 0x0697 [0x02] IF !(ExtData[1]->WorkLocal[4] == 1*) GOTO 0x06A7
 16: 0x069F [0x03] Work_Zone_1700[5] = 1*
 17: 0x06A4 [0x01] GOTO 0x06A7

SUBROUTINE_06A7:
 18: 0x06A7 [0x27] REQ_SET(priority=0x80, entity_id=EventEntity, tag_num=0x1F)

SUBROUTINE_06AE:
 19: 0x06AE [0x01] GOTO 0x0712
 20: 0x06B1 [0x02] IF !(ExtData[1]->WorkLocal[0] == 0*) GOTO 0x06D7
 21: 0x06B9 [0x03] ExtData[1]->WorkLocal[0] = 12*
 22: 0x06BE [0x03] ExtData[1]->WorkLocal[2] = 85500*
 23: 0x06C3 [0x1A] CALL_SUBROUTINE(address=0x09C1)
 24: 0x06C6 [0x27] REQ_SET(priority=0x80, entity_id=EventEntity, tag_num=0x0C)
 25: 0x06CD [0x27] REQ_SET(priority=0x80, entity_id=EventEntity, tag_num=0x1E)
 26: 0x06D4 [0x01] GOTO 0x0712
 27: 0x06D7 [0x03] ExtData[1]->WorkLocal[0] = 0*
 28: 0x06DC [0x03] ExtData[1]->WorkLocal[1] = 4294702296*
 29: 0x06E1 [0x1A] CALL_SUBROUTINE(address=0x09C1)
 30: 0x06E4 [0x27] REQ_SET(priority=0x80, entity_id=EventEntity, tag_num=0x0C)
 31: 0x06EB [0x02] IF !(ExtData[1]->WorkLocal[4] == 0*) GOTO 0x06FB
 32: 0x06F3 [0x03] Work_Zone_1700[4] = 1*
 33: 0x06F8 [0x01] GOTO 0x070B
 34: 0x06FB [0x02] IF !(ExtData[1]->WorkLocal[4] == 1*) GOTO 0x070B
 35: 0x0703 [0x03] Work_Zone_1700[5] = 1*
 36: 0x0708 [0x01] GOTO 0x070B

SUBROUTINE_070B:
 37: 0x070B [0x27] REQ_SET(priority=0x80, entity_id=EventEntity, tag_num=0x1F)

SUBROUTINE_0712:
 38: 0x0712 [0x00] END_REQSTACK()
```

### Event 65535.22

#### Metadata

| Field        | Value     |
|--------------|-----------|
| Entrypoint   | 0x0713    |
| Data Size    | 103 bytes |
| Instructions | 20        |

```
      00 01 02 03 04 05 06 07  08 09 0A 0B 0C 0D 0E 0F
      -- -- -- -- -- -- -- --  -- -- -- -- -- -- -- --
0710:          3E 07 17 0E 80  5E 07 02 00 00 04 80 00     >....^.......
0720: 40 07 03 00 00 20 80 03  02 00 0B 80 1A C1 09 27  @.... .........'
0730: 80 F8 FF FF 7F 0C 27 80  F8 FF FF 7F 13 01 5B 07  ......'.......[.
0740: 03 00 00 04 80 03 01 00  0F 80 1A C1 09 27 80 F8  .............'..
0750: FF FF 7F 0C 27 80 F8 FF  FF 7F 1A 01 79 07 03 00  ....'.......y...
0760: 00 04 80 03 01 00 0F 80  1A C1 09 27 80 F8 FF FF  ...........'....
0770: 7F 0C 27 80 F8 FF FF 7F  1A 00                    ..'.......      
```

#### Opcodes

```
  0: 0x0713 [0x3E] IF !(Work_Zone_1700[7] bit 18*) GOTO 0x075E
  1: 0x071A [0x02] IF !(ExtData[1]->WorkLocal[0] == 0*) GOTO 0x0740
  2: 0x0722 [0x03] ExtData[1]->WorkLocal[0] = 13*
  3: 0x0727 [0x03] ExtData[1]->WorkLocal[2] = 83000*
  4: 0x072C [0x1A] CALL_SUBROUTINE(address=0x09C1)
  5: 0x072F [0x27] REQ_SET(priority=0x80, entity_id=EventEntity, tag_num=0x0C)
  6: 0x0736 [0x27] REQ_SET(priority=0x80, entity_id=EventEntity, tag_num=0x13)
  7: 0x073D [0x01] GOTO 0x075B
  8: 0x0740 [0x03] ExtData[1]->WorkLocal[0] = 0*
  9: 0x0745 [0x03] ExtData[1]->WorkLocal[1] = 4294707296*
 10: 0x074A [0x1A] CALL_SUBROUTINE(address=0x09C1)
 11: 0x074D [0x27] REQ_SET(priority=0x80, entity_id=EventEntity, tag_num=0x0C)
 12: 0x0754 [0x27] REQ_SET(priority=0x80, entity_id=EventEntity, tag_num=0x1A)

SUBROUTINE_075B:
 13: 0x075B [0x01] GOTO 0x0779
 14: 0x075E [0x03] ExtData[1]->WorkLocal[0] = 0*
 15: 0x0763 [0x03] ExtData[1]->WorkLocal[1] = 4294707296*
 16: 0x0768 [0x1A] CALL_SUBROUTINE(address=0x09C1)
 17: 0x076B [0x27] REQ_SET(priority=0x80, entity_id=EventEntity, tag_num=0x0C)
 18: 0x0772 [0x27] REQ_SET(priority=0x80, entity_id=EventEntity, tag_num=0x1A)

SUBROUTINE_0779:
 19: 0x0779 [0x00] END_REQSTACK()
```

### Event 65535.23

#### Metadata

| Field        | Value     |
|--------------|-----------|
| Entrypoint   | 0x077A    |
| Data Size    | 103 bytes |
| Instructions | 20        |

```
      00 01 02 03 04 05 06 07  08 09 0A 0B 0C 0D 0E 0F
      -- -- -- -- -- -- -- --  -- -- -- -- -- -- -- --
0770:                                3E 07 17 0E 80 9F            >.....
0780: 07 03 00 00 04 80 03 01  00 10 80 1A C1 09 27 80  ..............'.
0790: F8 FF FF 7F 0C 27 80 F8  FF FF 7F 1B 01 E0 07 02  .....'..........
07A0: 00 00 04 80 00 C5 07 03  00 00 21 80 03 02 00 0B  ..........!.....
07B0: 80 1A C1 09 27 80 F8 FF  FF 7F 0C 27 80 F8 FF FF  ....'......'....
07C0: 7F 14 01 E0 07 03 00 00  04 80 03 01 00 10 80 1A  ................
07D0: C1 09 27 80 F8 FF FF 7F  0C 27 80 F8 FF FF 7F 1B  ..'......'......
07E0: 00                                                .               
```

#### Opcodes

```
  0: 0x077A [0x3E] IF !(Work_Zone_1700[7] bit 18*) GOTO 0x079F
  1: 0x0781 [0x03] ExtData[1]->WorkLocal[0] = 0*
  2: 0x0786 [0x03] ExtData[1]->WorkLocal[1] = 4294706296*
  3: 0x078B [0x1A] CALL_SUBROUTINE(address=0x09C1)
  4: 0x078E [0x27] REQ_SET(priority=0x80, entity_id=EventEntity, tag_num=0x0C)
  5: 0x0795 [0x27] REQ_SET(priority=0x80, entity_id=EventEntity, tag_num=0x1B)
  6: 0x079C [0x01] GOTO 0x07E0
  7: 0x079F [0x02] IF !(ExtData[1]->WorkLocal[0] == 0*) GOTO 0x07C5
  8: 0x07A7 [0x03] ExtData[1]->WorkLocal[0] = 14*
  9: 0x07AC [0x03] ExtData[1]->WorkLocal[2] = 83000*
 10: 0x07B1 [0x1A] CALL_SUBROUTINE(address=0x09C1)
 11: 0x07B4 [0x27] REQ_SET(priority=0x80, entity_id=EventEntity, tag_num=0x0C)
 12: 0x07BB [0x27] REQ_SET(priority=0x80, entity_id=EventEntity, tag_num=0x14)
 13: 0x07C2 [0x01] GOTO 0x07E0
 14: 0x07C5 [0x03] ExtData[1]->WorkLocal[0] = 0*
 15: 0x07CA [0x03] ExtData[1]->WorkLocal[1] = 4294706296*
 16: 0x07CF [0x1A] CALL_SUBROUTINE(address=0x09C1)
 17: 0x07D2 [0x27] REQ_SET(priority=0x80, entity_id=EventEntity, tag_num=0x0C)
 18: 0x07D9 [0x27] REQ_SET(priority=0x80, entity_id=EventEntity, tag_num=0x1B)

SUBROUTINE_07E0:
 19: 0x07E0 [0x00] END_REQSTACK()
```

### Event 65535.24

#### Metadata

| Field        | Value     |
|--------------|-----------|
| Entrypoint   | 0x07E1    |
| Data Size    | 103 bytes |
| Instructions | 20        |

```
      00 01 02 03 04 05 06 07  08 09 0A 0B 0C 0D 0E 0F
      -- -- -- -- -- -- -- --  -- -- -- -- -- -- -- --
07E0:    3E 07 17 11 80 2C 08  02 00 00 04 80 00 0E 08   >....,.........
07F0: 03 00 00 22 80 03 02 00  0B 80 1A C1 09 27 80 F8  ...".........'..
0800: FF FF 7F 0C 27 80 F8 FF  FF 7F 15 01 29 08 03 00  ....'.......)...
0810: 00 04 80 03 01 00 12 80  1A C1 09 27 80 F8 FF FF  ...........'....
0820: 7F 0C 27 80 F8 FF FF 7F  1C 01 47 08 03 00 00 04  ..'.......G.....
0830: 80 03 01 00 12 80 1A C1  09 27 80 F8 FF FF 7F 0C  .........'......
0840: 27 80 F8 FF FF 7F 1C 00                           '.......        
```

#### Opcodes

```
  0: 0x07E1 [0x3E] IF !(Work_Zone_1700[7] bit 19*) GOTO 0x082C
  1: 0x07E8 [0x02] IF !(ExtData[1]->WorkLocal[0] == 0*) GOTO 0x080E
  2: 0x07F0 [0x03] ExtData[1]->WorkLocal[0] = 15*
  3: 0x07F5 [0x03] ExtData[1]->WorkLocal[2] = 83000*
  4: 0x07FA [0x1A] CALL_SUBROUTINE(address=0x09C1)
  5: 0x07FD [0x27] REQ_SET(priority=0x80, entity_id=EventEntity, tag_num=0x0C)
  6: 0x0804 [0x27] REQ_SET(priority=0x80, entity_id=EventEntity, tag_num=0x15)
  7: 0x080B [0x01] GOTO 0x0829
  8: 0x080E [0x03] ExtData[1]->WorkLocal[0] = 0*
  9: 0x0813 [0x03] ExtData[1]->WorkLocal[1] = 4294705296*
 10: 0x0818 [0x1A] CALL_SUBROUTINE(address=0x09C1)
 11: 0x081B [0x27] REQ_SET(priority=0x80, entity_id=EventEntity, tag_num=0x0C)
 12: 0x0822 [0x27] REQ_SET(priority=0x80, entity_id=EventEntity, tag_num=0x1C)

SUBROUTINE_0829:
 13: 0x0829 [0x01] GOTO 0x0847
 14: 0x082C [0x03] ExtData[1]->WorkLocal[0] = 0*
 15: 0x0831 [0x03] ExtData[1]->WorkLocal[1] = 4294705296*
 16: 0x0836 [0x1A] CALL_SUBROUTINE(address=0x09C1)
 17: 0x0839 [0x27] REQ_SET(priority=0x80, entity_id=EventEntity, tag_num=0x0C)
 18: 0x0840 [0x27] REQ_SET(priority=0x80, entity_id=EventEntity, tag_num=0x1C)

SUBROUTINE_0847:
 19: 0x0847 [0x00] END_REQSTACK()
```

### Event 65535.25

#### Metadata

| Field        | Value     |
|--------------|-----------|
| Entrypoint   | 0x0848    |
| Data Size    | 103 bytes |
| Instructions | 20        |

```
      00 01 02 03 04 05 06 07  08 09 0A 0B 0C 0D 0E 0F
      -- -- -- -- -- -- -- --  -- -- -- -- -- -- -- --
0840:                          3E 07 17 11 80 6D 08 03          >....m..
0850: 00 00 04 80 03 01 00 15  80 1A C1 09 27 80 F8 FF  ............'...
0860: FF 7F 0C 27 80 F8 FF FF  7F 1D 01 AE 08 02 00 00  ...'............
0870: 04 80 00 93 08 03 00 00  23 80 03 02 00 0B 80 1A  ........#.......
0880: C1 09 27 80 F8 FF FF 7F  0C 27 80 F8 FF FF 7F 16  ..'......'......
0890: 01 AE 08 03 00 00 04 80  03 01 00 15 80 1A C1 09  ................
08A0: 27 80 F8 FF FF 7F 0C 27  80 F8 FF FF 7F 1D 00     '......'....... 
```

#### Opcodes

```
  0: 0x0848 [0x3E] IF !(Work_Zone_1700[7] bit 19*) GOTO 0x086D
  1: 0x084F [0x03] ExtData[1]->WorkLocal[0] = 0*
  2: 0x0854 [0x03] ExtData[1]->WorkLocal[1] = 4294704296*
  3: 0x0859 [0x1A] CALL_SUBROUTINE(address=0x09C1)
  4: 0x085C [0x27] REQ_SET(priority=0x80, entity_id=EventEntity, tag_num=0x0C)
  5: 0x0863 [0x27] REQ_SET(priority=0x80, entity_id=EventEntity, tag_num=0x1D)
  6: 0x086A [0x01] GOTO 0x08AE
  7: 0x086D [0x02] IF !(ExtData[1]->WorkLocal[0] == 0*) GOTO 0x0893
  8: 0x0875 [0x03] ExtData[1]->WorkLocal[0] = 16*
  9: 0x087A [0x03] ExtData[1]->WorkLocal[2] = 83000*
 10: 0x087F [0x1A] CALL_SUBROUTINE(address=0x09C1)
 11: 0x0882 [0x27] REQ_SET(priority=0x80, entity_id=EventEntity, tag_num=0x0C)
 12: 0x0889 [0x27] REQ_SET(priority=0x80, entity_id=EventEntity, tag_num=0x16)
 13: 0x0890 [0x01] GOTO 0x08AE
 14: 0x0893 [0x03] ExtData[1]->WorkLocal[0] = 0*
 15: 0x0898 [0x03] ExtData[1]->WorkLocal[1] = 4294704296*
 16: 0x089D [0x1A] CALL_SUBROUTINE(address=0x09C1)
 17: 0x08A0 [0x27] REQ_SET(priority=0x80, entity_id=EventEntity, tag_num=0x0C)
 18: 0x08A7 [0x27] REQ_SET(priority=0x80, entity_id=EventEntity, tag_num=0x1D)

SUBROUTINE_08AE:
 19: 0x08AE [0x00] END_REQSTACK()
```

### Event 65535.26

#### Metadata

| Field        | Value     |
|--------------|-----------|
| Entrypoint   | 0x08AF    |
| Data Size    | 103 bytes |
| Instructions | 20        |

```
      00 01 02 03 04 05 06 07  08 09 0A 0B 0C 0D 0E 0F
      -- -- -- -- -- -- -- --  -- -- -- -- -- -- -- --
08A0:                                               3E                 >
08B0: 07 17 05 80 FA 08 02 00  00 04 80 00 DC 08 03 00  ................
08C0: 00 24 80 03 02 00 0B 80  1A C1 09 27 80 F8 FF FF  .$.........'....
08D0: 7F 0C 27 80 F8 FF FF 7F  17 01 F7 08 03 00 00 04  ..'.............
08E0: 80 03 01 00 16 80 1A C1  09 27 80 F8 FF FF 7F 0C  .........'......
08F0: 27 80 F8 FF FF 7F 1E 01  15 09 03 00 00 04 80 03  '...............
0900: 01 00 16 80 1A C1 09 27  80 F8 FF FF 7F 0C 27 80  .......'......'.
0910: F8 FF FF 7F 1E 00                                 ......          
```

#### Opcodes

```
  0: 0x08AF [0x3E] IF !(Work_Zone_1700[7] bit 20*) GOTO 0x08FA
  1: 0x08B6 [0x02] IF !(ExtData[1]->WorkLocal[0] == 0*) GOTO 0x08DC
  2: 0x08BE [0x03] ExtData[1]->WorkLocal[0] = 17*
  3: 0x08C3 [0x03] ExtData[1]->WorkLocal[2] = 83000*
  4: 0x08C8 [0x1A] CALL_SUBROUTINE(address=0x09C1)
  5: 0x08CB [0x27] REQ_SET(priority=0x80, entity_id=EventEntity, tag_num=0x0C)
  6: 0x08D2 [0x27] REQ_SET(priority=0x80, entity_id=EventEntity, tag_num=0x17)
  7: 0x08D9 [0x01] GOTO 0x08F7
  8: 0x08DC [0x03] ExtData[1]->WorkLocal[0] = 0*
  9: 0x08E1 [0x03] ExtData[1]->WorkLocal[1] = 4294703296*
 10: 0x08E6 [0x1A] CALL_SUBROUTINE(address=0x09C1)
 11: 0x08E9 [0x27] REQ_SET(priority=0x80, entity_id=EventEntity, tag_num=0x0C)
 12: 0x08F0 [0x27] REQ_SET(priority=0x80, entity_id=EventEntity, tag_num=0x1E)

SUBROUTINE_08F7:
 13: 0x08F7 [0x01] GOTO 0x0915
 14: 0x08FA [0x03] ExtData[1]->WorkLocal[0] = 0*
 15: 0x08FF [0x03] ExtData[1]->WorkLocal[1] = 4294703296*
 16: 0x0904 [0x1A] CALL_SUBROUTINE(address=0x09C1)
 17: 0x0907 [0x27] REQ_SET(priority=0x80, entity_id=EventEntity, tag_num=0x0C)
 18: 0x090E [0x27] REQ_SET(priority=0x80, entity_id=EventEntity, tag_num=0x1E)

SUBROUTINE_0915:
 19: 0x0915 [0x00] END_REQSTACK()
```

### Event 65535.27

#### Metadata

| Field        | Value     |
|--------------|-----------|
| Entrypoint   | 0x0916    |
| Data Size    | 167 bytes |
| Instructions | 32        |

```
      00 01 02 03 04 05 06 07  08 09 0A 0B 0C 0D 0E 0F
      -- -- -- -- -- -- -- --  -- -- -- -- -- -- -- --
0910:                   3E 07  17 05 80 5B 09 03 00 00        >....[....
0920: 04 80 03 01 00 19 80 1A  C1 09 27 80 F8 FF FF 7F  ..........'.....
0930: 0C 02 04 00 04 80 80 41  09 03 04 17 0C 80 01 51  .......A.......Q
0940: 09 02 04 00 0A 80 80 51  09 03 05 17 0C 80 01 51  .......Q.......Q
0950: 09 27 80 F8 FF FF 7F 1F  01 BC 09 02 00 00 04 80  .'..............
0960: 00 81 09 03 00 00 0E 80  03 02 00 0B 80 1A C1 09  ................
0970: 27 80 F8 FF FF 7F 0C 27  80 F8 FF FF 7F 18 01 BC  '......'........
0980: 09 03 00 00 04 80 03 01  00 19 80 27 80 F8 FF FF  ...........'....
0990: 7F 0C 1A C1 09 02 04 00  04 80 80 A5 09 03 04 17  ................
09A0: 0C 80 01 B5 09 02 04 00  0A 80 80 B5 09 03 05 17  ................
09B0: 0C 80 01 B5 09 27 80 F8  FF FF 7F 1F 00           .....'.......   
```

#### Opcodes

```
  0: 0x0916 [0x3E] IF !(Work_Zone_1700[7] bit 20*) GOTO 0x095B
  1: 0x091D [0x03] ExtData[1]->WorkLocal[0] = 0*
  2: 0x0922 [0x03] ExtData[1]->WorkLocal[1] = 4294702296*
  3: 0x0927 [0x1A] CALL_SUBROUTINE(address=0x09C1)
  4: 0x092A [0x27] REQ_SET(priority=0x80, entity_id=EventEntity, tag_num=0x0C)
  5: 0x0931 [0x02] IF !(ExtData[1]->WorkLocal[4] == 0*) GOTO 0x0941
  6: 0x0939 [0x03] Work_Zone_1700[4] = 2*
  7: 0x093E [0x01] GOTO 0x0951
  8: 0x0941 [0x02] IF !(ExtData[1]->WorkLocal[4] == 1*) GOTO 0x0951
  9: 0x0949 [0x03] Work_Zone_1700[5] = 2*
 10: 0x094E [0x01] GOTO 0x0951

SUBROUTINE_0951:
 11: 0x0951 [0x27] REQ_SET(priority=0x80, entity_id=EventEntity, tag_num=0x1F)
 12: 0x0958 [0x01] GOTO 0x09BC
 13: 0x095B [0x02] IF !(ExtData[1]->WorkLocal[0] == 0*) GOTO 0x0981
 14: 0x0963 [0x03] ExtData[1]->WorkLocal[0] = 18*
 15: 0x0968 [0x03] ExtData[1]->WorkLocal[2] = 83000*
 16: 0x096D [0x1A] CALL_SUBROUTINE(address=0x09C1)
 17: 0x0970 [0x27] REQ_SET(priority=0x80, entity_id=EventEntity, tag_num=0x0C)
 18: 0x0977 [0x27] REQ_SET(priority=0x80, entity_id=EventEntity, tag_num=0x18)
 19: 0x097E [0x01] GOTO 0x09BC
 20: 0x0981 [0x03] ExtData[1]->WorkLocal[0] = 0*
 21: 0x0986 [0x03] ExtData[1]->WorkLocal[1] = 4294702296*
 22: 0x098B [0x27] REQ_SET(priority=0x80, entity_id=EventEntity, tag_num=0x0C)
 23: 0x0992 [0x1A] CALL_SUBROUTINE(address=0x09C1)
 24: 0x0995 [0x02] IF !(ExtData[1]->WorkLocal[4] == 0*) GOTO 0x09A5
 25: 0x099D [0x03] Work_Zone_1700[4] = 2*
 26: 0x09A2 [0x01] GOTO 0x09B5
 27: 0x09A5 [0x02] IF !(ExtData[1]->WorkLocal[4] == 1*) GOTO 0x09B5
 28: 0x09AD [0x03] Work_Zone_1700[5] = 2*
 29: 0x09B2 [0x01] GOTO 0x09B5

SUBROUTINE_09B5:
 30: 0x09B5 [0x27] REQ_SET(priority=0x80, entity_id=EventEntity, tag_num=0x1F)

SUBROUTINE_09BC:
 31: 0x09BC [0x00] END_REQSTACK()
```

### Event 65535.28

#### Metadata

| Field        | Value    |
|--------------|----------|
| Entrypoint   | 0x09BD   |
| Data Size    | 53 bytes |
| Instructions | 2        |

```
      00 01 02 03 04 05 06 07  08 09 0A 0B 0C 0D 0E 0F
      -- -- -- -- -- -- -- --  -- -- -- -- -- -- -- --
09B0:                                         0B 08 17               ...
09C0: 00 02 04 00 04 80 80 D1  09 03 04 17 00 00 01 F1  ................
09D0: 09 02 04 00 0A 80 80 E1  09 03 05 17 00 00 01 F1  ................
09E0: 09 02 04 00 0C 80 80 F1  09 03 06 17 00 00 01 F1  ................
09F0: 09 1B                                             ..              
```

#### Opcodes

```
  0: 0x09BD [0x0B] Work_Zone_1700[8]++
  1: 0x09C0 [0x00] END_REQSTACK()
```

#### Data or dead code:

```
# Dead code (unreachable instructions):
     0x09C1 [0x02] IF !(ExtData[1]->WorkLocal[4] == 0*) GOTO 0x09D1
     0x09C9 [0x03] Work_Zone_1700[4] = ExtData[1]->WorkLocal[0]
     0x09CE [0x01] GOTO 0x09F1
     0x09D1 [0x02] IF !(ExtData[1]->WorkLocal[4] == 1*) GOTO 0x09E1
     0x09D9 [0x03] Work_Zone_1700[5] = ExtData[1]->WorkLocal[0]
     0x09DE [0x01] GOTO 0x09F1
     0x09E1 [0x02] IF !(ExtData[1]->WorkLocal[4] == 2*) GOTO 0x09F1
     0x09E9 [0x03] Work_Zone_1700[6] = ExtData[1]->WorkLocal[0]
     0x09EE [0x01] GOTO 0x09F1
     0x09F1 [0x1B] RETURN
```
