# 17719577

## Common Data

| Field            | Value                         |
|------------------|-------------------------------|
| Zone             | Southern San d'Oria (ID: 230) |
| Block Size       | 4572 bytes                    |
| Total Events     | 59                            |
| References Count | 250                           |

## List of Events

| Event ID                   | Entrypoint   |   Size |   Instructions |
|----------------------------|--------------|--------|----------------|
| [65535](#event-65535)      | 0x0000       |      1 |              1 |
| [827](#event-827)          | 0x0001       |      1 |              1 |
| [823](#event-823)          | 0x0002       |      1 |              1 |
| [829](#event-829)          | 0x0003       |      1 |              1 |
| [65535.1](#event-655351)   | 0x0004       |     10 |              2 |
| [65535.2](#event-655352)   | 0x000E       |     11 |              3 |
| [65535.3](#event-655353)   | 0x0019       |     15 |              2 |
| [65535.4](#event-655354)   | 0x0028       |     15 |              3 |
| [65535.5](#event-655355)   | 0x0037       |     34 |              4 |
| [65535.6](#event-655356)   | 0x0059       |      3 |              2 |
| [65535.7](#event-655357)   | 0x005C       |     52 |              6 |
| [65535.8](#event-655358)   | 0x0090       |     34 |              4 |
| [65535.9](#event-655359)   | 0x00B2       |     34 |              4 |
| [65535.10](#event-6553510) | 0x00D4       |     34 |              4 |
| [65535.11](#event-6553511) | 0x00F6       |     12 |              3 |
| [65535.12](#event-6553512) | 0x0102       |     15 |              3 |
| [65535.13](#event-6553513) | 0x0111       |     57 |              9 |
| [65535.14](#event-6553514) | 0x014A       |     15 |              3 |
| [65535.15](#event-6553515) | 0x0159       |    121 |             24 |
| [65535.16](#event-6553516) | 0x01D2       |    121 |             24 |
| [65535.17](#event-6553517) | 0x024B       |     15 |              3 |
| [65535.18](#event-6553518) | 0x025A       |     48 |              9 |
| [65535.19](#event-6553519) | 0x028A       |     15 |              3 |
| [65535.20](#event-6553520) | 0x0299       |    204 |             34 |
| [65535.21](#event-6553521) | 0x0365       |     15 |              3 |
| [65535.22](#event-6553522) | 0x0374       |     76 |             12 |
| [65535.23](#event-6553523) | 0x03C0       |     14 |              4 |
| [65535.24](#event-6553524) | 0x03CE       |     15 |              3 |
| [65535.25](#event-6553525) | 0x03DD       |     15 |              3 |
| [65535.26](#event-6553526) | 0x03EC       |    136 |             20 |
| [65535.27](#event-6553527) | 0x0474       |    129 |             15 |
| [65535.28](#event-6553528) | 0x04F5       |    125 |             25 |
| [65535.29](#event-6553529) | 0x0572       |     10 |              2 |
| [65535.30](#event-6553530) | 0x057C       |     63 |             11 |
| [65535.31](#event-6553531) | 0x05BB       |     53 |              9 |
| [65535.32](#event-6553532) | 0x05F0       |     15 |              3 |
| [65535.33](#event-6553533) | 0x05FF       |     63 |             11 |
| [65535.34](#event-6553534) | 0x063E       |     15 |              3 |
| [65535.35](#event-6553535) | 0x064D       |     73 |             13 |
| [65535.36](#event-6553536) | 0x0696       |     15 |              3 |
| [65535.37](#event-6553537) | 0x06A5       |   1195 |            202 |
| [65535.38](#event-6553538) | 0x0B50       |     33 |              9 |
| [65535.39](#event-6553539) | 0x0B71       |     19 |              5 |
| [65535.40](#event-6553540) | 0x0B84       |     14 |              4 |
| [65535.41](#event-6553541) | 0x0B92       |     14 |              4 |
| [65535.42](#event-6553542) | 0x0BA0       |     10 |              2 |
| [65535.43](#event-6553543) | 0x0BAA       |     19 |              5 |
| [861](#event-861)          | 0x0BBD       |      1 |              1 |
| [65535.44](#event-6553544) | 0x0BBE       |     15 |              3 |
| [65535.45](#event-6553545) | 0x0BCD       |     48 |             11 |
| [65535.46](#event-6553546) | 0x0BFD       |      6 |              2 |
| [65535.47](#event-6553547) | 0x0C03       |      6 |              2 |
| [65535.48](#event-6553548) | 0x0C09       |     15 |              3 |
| [65535.49](#event-6553549) | 0x0C18       |     15 |              3 |
| [65535.50](#event-6553550) | 0x0C27       |     80 |             18 |
| [65535.51](#event-6553551) | 0x0C77       |     67 |             15 |
| [65535.52](#event-6553552) | 0x0CBA       |     14 |              4 |
| [65535.53](#event-6553553) | 0x0CC8       |     34 |              8 |
| [65535.54](#event-6553554) | 0x0CEA       |     14 |              4 |

## DAT References (imed_data)

|   Index | Hex Value   |   Dec Value |
|---------|-------------|-------------|
|       0 | 0xFFFFE4C1  |  4294960321 |
|       1 | 0xFFFE627B  |  4294861435 |
|       2 | 0x060C      |        1548 |
|       3 | 0x0C23      |        3107 |
|       4 | 0x0000      |           0 |
|       5 | 0xFFFFE015  |  4294959125 |
|       6 | 0xFFFE6442  |  4294861890 |
|       7 | 0x0DB4      |        3508 |
|       8 | 0x00DC      |         220 |
|       9 | 0x003C      |          60 |
|      10 | 0x00DF      |         223 |
|      11 | 0x0078      |         120 |
|      12 | 0xFFFFD026  |  4294955046 |
|      13 | 0xFFFE38C2  |  4294850754 |
|      14 | 0xFFFFFED4  |  4294966996 |
|      15 | 0x0C0C      |        3084 |
|      16 | 0x1C9F3     |      117235 |
|      17 | 0x132C6     |       78534 |
|      18 | 0x0E39      |        3641 |
|      19 | 0x000F      |          15 |
|      20 | 0x1DBE2     |      121826 |
|      21 | 0x1445B     |       83035 |
|      22 | 0x0A3B      |        2619 |
|      23 | 0x001E      |          30 |
|      24 | 0x00DE      |         222 |
|      25 | 0x00E0      |         224 |
|      26 | 0x1971      |        6513 |
|      27 | 0xFFFEA380  |  4294878080 |
|      28 | 0x0897      |        2199 |
|      29 | 0x06BA      |        1722 |
|      30 | 0x0046      |          70 |
|      31 | 0x5688      |       22152 |
|      32 | 0xFFFE8963  |  4294871395 |
|      33 | 0x59FA      |       23034 |
|      34 | 0xFFFE9703  |  4294874883 |
|      35 | 0x20CA      |        8394 |
|      36 | 0xFFFEA6F2  |  4294878962 |
|      37 | 0x1A0A      |        6666 |
|      38 | 0xFFFEA628  |  4294878760 |
|      39 | 0x22EC      |        8940 |
|      40 | 0xFFFE9A5B  |  4294875739 |
|      41 | 0x2C7E      |       11390 |
|      42 | 0xFFFE96C5  |  4294874821 |
|      43 | 0x3EC8      |       16072 |
|      44 | 0xFFFE9096  |  4294873238 |
|      45 | 0x4D5E      |       19806 |
|      46 | 0xFFFE8BA4  |  4294871972 |
|      47 | 0xFFFF945A  |  4294939738 |
|      48 | 0xFFFE8DDC  |  4294872540 |
|      49 | 0x07CF      |        1999 |
|      50 | 0x039D      |         925 |
|      51 | 0xFFFF9E35  |  4294942261 |
|      52 | 0xFFFEA621  |  4294878753 |
|      53 | 0x106E      |        4206 |
|      54 | 0xFFFE8305  |  4294869765 |
|      55 | 0x05DC      |        1500 |
|      56 | 0x04EC      |        1260 |
|      57 | 0x0005      |           5 |
|      58 | 0x3192      |       12690 |
|      59 | 0xFFFE788B  |  4294867083 |
|      60 | 0x0812      |        2066 |
|      61 | 0x3AC5      |       15045 |
|      62 | 0xFFFEA6CB  |  4294878923 |
|      63 | 0x018F      |         399 |
|      64 | 0xFFFF9976  |  4294941046 |
|      65 | 0x06A3      |        1699 |
|      66 | 0x0407      |        1031 |
|      67 | 0xFFFFEBC7  |  4294962119 |
|      68 | 0xFFFF9AEA  |  4294941418 |
|      69 | 0xFFFDF503  |  4294833411 |
|      70 | 0x3834      |       14388 |
|      71 | 0xFFFFF831  |  4294965297 |
|      72 | 0x0843      |        2115 |
|      73 | 0x00FE      |         254 |
|      74 | 0xFFFDE316  |  4294828822 |
|      75 | 0x3B29      |       15145 |
|      76 | 0xFFF8100F  |  4294447119 |
|      77 | 0xFFF9B07A  |  4294553722 |
|      78 | 0x021C      |         540 |
|      79 | 0x0E30      |        3632 |
|      80 | 0x751F      |       29983 |
|      81 | 0x0B46      |        2886 |
|      82 | 0x0835      |        2101 |
|      83 | 0x0018      |          24 |
|      84 | 0x01F2      |         498 |
|      85 | 0x0A52      |        2642 |
|      86 | 0x0015      |          21 |
|      87 | 0x005A      |          90 |
|      88 | 0x004D      |          77 |
|      89 | 0x0020      |          32 |
|      90 | 0x062E      |        1582 |
|      91 | 0x0014      |          20 |
|      92 | 0x0DD8      |        3544 |
|      93 | 0x001A      |          26 |
|      94 | 0xFFF607FB  |  4294313979 |
|      95 | 0x54C9      |       21705 |
|      96 | 0xFFFF982D  |  4294940717 |
|      97 | 0x07FD      |        2045 |
|      98 | 0xFFF5E700  |  4294305536 |
|      99 | 0x5551      |       21841 |
|     100 | 0xFFFF93BF  |  4294939583 |
|     101 | 0x000A      |          10 |
|     102 | 0x0090      |         144 |
|     103 | 0xFFF5DB7A  |  4294302586 |
|     104 | 0x5288      |       21128 |
|     105 | 0xFFFF939F  |  4294939551 |
|     106 | 0x87047     |      553031 |
|     107 | 0xFFF984E5  |  4294542565 |
|     108 | 0x9DF1      |       40433 |
|     109 | 0x0FD0      |        4048 |
|     110 | 0x8976F     |      563055 |
|     111 | 0xFFF98788  |  4294543240 |
|     112 | 0xA0D8      |       41176 |
|     113 | 0x2A49F     |      173215 |
|     114 | 0x4B00      |       19200 |
|     115 | 0x1193      |        4499 |
|     116 | 0x0069      |         105 |
|     117 | 0x2C1E6     |      180710 |
|     118 | 0x4A22      |       18978 |
|     119 | 0x0D0F      |        3343 |
|     120 | 0x04A7      |        1191 |
|     121 | 0xFFFD5890  |  4294793360 |
|     122 | 0x3FE4F     |      261711 |
|     123 | 0xFFFF1C7D  |  4294909053 |
|     124 | 0x0805      |        2053 |
|     125 | 0xFFFCB3E7  |  4294751207 |
|     126 | 0x40426     |      263206 |
|     127 | 0xFFFF3399  |  4294914969 |
|     128 | 0x0001      |           1 |
|     129 | 0x0002      |           2 |
|     130 | 0x0003      |           3 |
|     131 | 0x00FD      |         253 |
|     132 | 0xFFFC157B  |  4294710651 |
|     133 | 0x3E121     |      254241 |
|     134 | 0xFFFF4E86  |  4294921862 |
|     135 | 0xFFFBEA2C  |  4294699564 |
|     136 | 0x37912     |      227602 |
|     137 | 0xFFFF5030  |  4294922288 |
|     138 | 0xFFFB76F5  |  4294670069 |
|     139 | 0x34632     |      214578 |
|     140 | 0xFFFF4DD4  |  4294921684 |
|     141 | 0xFFFB5844  |  4294662212 |
|     142 | 0x2C085     |      180357 |
|     143 | 0xFFFF5D33  |  4294925619 |
|     144 | 0xFFFB6D8E  |  4294667662 |
|     145 | 0x286F3     |      165619 |
|     146 | 0xFFFF7160  |  4294930784 |
|     147 | 0xFFFB5B90  |  4294663056 |
|     148 | 0x247CF     |      149455 |
|     149 | 0xFFFF7788  |  4294932360 |
|     150 | 0xFFFB27EC  |  4294649836 |
|     151 | 0x22889     |      141449 |
|     152 | 0xFFFF733C  |  4294931260 |
|     153 | 0xFFFA9716  |  4294612758 |
|     154 | 0x22BC3     |      142275 |
|     155 | 0xFFFF72F8  |  4294931192 |
|     156 | 0xFFFA3088  |  4294586504 |
|     157 | 0x223E4     |      140260 |
|     158 | 0xFFFF7401  |  4294931457 |
|     159 | 0xFFFC8092  |  4294738066 |
|     160 | 0x3FB6C     |      260972 |
|     161 | 0xFFFF4634  |  4294919732 |
|     162 | 0xFFFC9C2D  |  4294745133 |
|     163 | 0x40B1F     |      264991 |
|     164 | 0xFFFF397B  |  4294916475 |
|     165 | 0xFFFD0528  |  4294772008 |
|     166 | 0x3FE81     |      261761 |
|     167 | 0xFFFF2447  |  4294911047 |
|     168 | 0xFFF5E10F  |  4294304015 |
|     169 | 0x6244      |       25156 |
|     170 | 0xFFFF91C7  |  4294939079 |
|     171 | 0xFFF5D333  |  4294300467 |
|     172 | 0x77C2      |       30658 |
|     173 | 0xFFFF8DAA  |  4294938026 |
|     174 | 0xFFF5E80B  |  4294305803 |
|     175 | 0x6637      |       26167 |
|     176 | 0xFFFF900A  |  4294938634 |
|     177 | 0xFFF5DEA7  |  4294303399 |
|     178 | 0x7270      |       29296 |
|     179 | 0xFFFF8E21  |  4294938145 |
|     180 | 0xFFFFF154  |  4294963540 |
|     181 | 0xFFFE8C2A  |  4294872106 |
|     182 | 0x028A      |         650 |
|     183 | 0x0429      |        1065 |
|     184 | 0xFFFFF169  |  4294963561 |
|     185 | 0xFFFE78B2  |  4294867122 |
|     186 | 0xFFFFFF9D  |  4294967197 |
|     187 | 0xFFF6BBFE  |  4294360062 |
|     188 | 0x924FF     |      599295 |
|     189 | 0x00A0      |         160 |
|     190 | 0x0179      |         377 |
|     191 | 0xFFF6C5B9  |  4294362553 |
|     192 | 0x92AF2     |      600818 |
|     193 | 0x0023      |          35 |
|     194 | 0xFFF6B7C3  |  4294358979 |
|     195 | 0x92A37     |      600631 |
|     196 | 0x00D6      |         214 |
|     197 | 0xFFF6C07A  |  4294361210 |
|     198 | 0x92ED0     |      601808 |
|     199 | 0x0066      |         102 |
|     200 | 0xFFF6D7C0  |  4294367168 |
|     201 | 0x8EF6A     |      585578 |
|     202 | 0x0274      |         628 |
|     203 | 0x011C      |         284 |
|     204 | 0xFFF6D069  |  4294365289 |
|     205 | 0x8F7F4     |      587764 |
|     206 | 0x010C      |         268 |
|     207 | 0xFFF6D0CA  |  4294365386 |
|     208 | 0x8F7DF     |      587743 |
|     209 | 0x0112      |         274 |
|     210 | 0xFFF6D779  |  4294367097 |
|     211 | 0x8FCC2     |      588994 |
|     212 | 0x015B      |         347 |
|     213 | 0xFFF6DB55  |  4294368085 |
|     214 | 0x8F169     |      586089 |
|     215 | 0x024A      |         586 |
|     216 | 0xFFF6DAA1  |  4294367905 |
|     217 | 0x8E6CF     |      583375 |
|     218 | 0x033E      |         830 |
|     219 | 0x0C58      |        3160 |
|     220 | 0x0154      |         340 |
|     221 | 0x002D      |          45 |
|     222 | 0xFFF6DB01  |  4294368001 |
|     223 | 0x90356     |      590678 |
|     224 | 0x0108      |         264 |
|     225 | 0x03BF      |         959 |
|     226 | 0xFFF6C73F  |  4294362943 |
|     227 | 0x8F234     |      586292 |
|     228 | 0x008A      |         138 |
|     229 | 0x0025      |          37 |
|     230 | 0x00F0      |         240 |
|     231 | 0xFFF6D6F8  |  4294366968 |
|     232 | 0x8E30A     |      582410 |
|     233 | 0x0322      |         802 |
|     234 | 0x0BD3      |        3027 |
|     235 | 0xFFF6D2A6  |  4294365862 |
|     236 | 0x8FA8C     |      588428 |
|     237 | 0x0138      |         312 |
|     238 | 0xFFF6C79F  |  4294363039 |
|     239 | 0x8F34D     |      586573 |
|     240 | 0x0039      |          57 |
|     241 | 0xFFF6CB4A  |  4294363978 |
|     242 | 0x8FAEF     |      588527 |
|     243 | 0x00C4      |         196 |
|     244 | 0xFFF6D94C  |  4294367564 |
|     245 | 0x8EC18     |      584728 |
|     246 | 0x02D3      |         723 |
|     247 | 0xFFF6C219  |  4294361625 |
|     248 | 0x8E860     |      583776 |
|     249 | 0xFFFFFF94  |  4294967188 |

## Events

### Event 65535

#### Metadata

| Field        | Value   |
|--------------|---------|
| Entrypoint   | 0x0000  |
| Data Size    | 1 bytes |
| Instructions | 1       |

```
      00 01 02 03 04 05 06 07  08 09 0A 0B 0C 0D 0E 0F
      -- -- -- -- -- -- -- --  -- -- -- -- -- -- -- --
0000: 00                                                .               
```

#### Opcodes

```
  0: 0x0000 [0x00] END_REQSTACK()
```

### Event 827

#### Metadata

| Field        | Value   |
|--------------|---------|
| Entrypoint   | 0x0001  |
| Data Size    | 1 bytes |
| Instructions | 1       |

```
      00 01 02 03 04 05 06 07  08 09 0A 0B 0C 0D 0E 0F
      -- -- -- -- -- -- -- --  -- -- -- -- -- -- -- --
0000:    00                                              .              
```

#### Opcodes

```
  0: 0x0001 [0x00] END_REQSTACK()
```

### Event 823

#### Metadata

| Field        | Value   |
|--------------|---------|
| Entrypoint   | 0x0002  |
| Data Size    | 1 bytes |
| Instructions | 1       |

```
      00 01 02 03 04 05 06 07  08 09 0A 0B 0C 0D 0E 0F
      -- -- -- -- -- -- -- --  -- -- -- -- -- -- -- --
0000:       00                                            .             
```

#### Opcodes

```
  0: 0x0002 [0x00] END_REQSTACK()
```

### Event 829

#### Metadata

| Field        | Value   |
|--------------|---------|
| Entrypoint   | 0x0003  |
| Data Size    | 1 bytes |
| Instructions | 1       |

```
      00 01 02 03 04 05 06 07  08 09 0A 0B 0C 0D 0E 0F
      -- -- -- -- -- -- -- --  -- -- -- -- -- -- -- --
0000:          00                                          .            
```

#### Opcodes

```
  0: 0x0003 [0x00] END_REQSTACK()
```

### Event 65535.1

#### Metadata

| Field        | Value    |
|--------------|----------|
| Entrypoint   | 0x0004   |
| Data Size    | 10 bytes |
| Instructions | 2        |

```
      00 01 02 03 04 05 06 07  08 09 0A 0B 0C 0D 0E 0F
      -- -- -- -- -- -- -- --  -- -- -- -- -- -- -- --
0000:             37 00 80 01  80 02 80 03 80 00            7.........  
```

#### Opcodes

```
  0: 0x0004 [0x37] UPDATE_EVENT_POSITION_AND_DIR: x=-6.975*, z=-105.861*, y=1.548*, direction=273.1°*
  1: 0x000D [0x00] END_REQSTACK()
```

### Event 65535.2

#### Metadata

| Field        | Value    |
|--------------|----------|
| Entrypoint   | 0x000E   |
| Data Size    | 11 bytes |
| Instructions | 3        |

```
      00 01 02 03 04 05 06 07  08 09 0A 0B 0C 0D 0E 0F
      -- -- -- -- -- -- -- --  -- -- -- -- -- -- -- --
0000:                                            B4 01                ..
0010: 00 00 04 80 B5 00 00 00  00                       .........       
```

#### Opcodes

```
  0: 0x000E [0xB4] UI_WINDOW_STRING_HANDLER(case=0x01 - Copy string from event strings table, work_offset=ExtData[1]->WorkLocal[0], string_index=0*)
  1: 0x0014 [0xB5] SET_EVENT_ENTITY_NAME: Change EventEntity name to ExtData[1]->WorkLocal[0]
  2: 0x0018 [0x00] END_REQSTACK()
```

### Event 65535.3

#### Metadata

| Field        | Value    |
|--------------|----------|
| Entrypoint   | 0x0019   |
| Data Size    | 15 bytes |
| Instructions | 2        |

```
      00 01 02 03 04 05 06 07  08 09 0A 0B 0C 0D 0E 0F
      -- -- -- -- -- -- -- --  -- -- -- -- -- -- -- --
0010:                             B6 0D 04 10 05 10 06           .......
0020: 10 07 10 08 10 09 10 00                           ........        
```

#### Opcodes

```
  0: 0x0019 [0xB6] ENTITY_APPEARANCE_HANDLER(case=Look with Render flags, race=Work_Zone[4], face=Work_Zone[5], head=Work_Zone[6], body=Work_Zone[7], hands=Work_Zone[8], render_flags=0x1009)
  1: 0x0027 [0x00] END_REQSTACK()
```

### Event 65535.4

#### Metadata

| Field        | Value    |
|--------------|----------|
| Entrypoint   | 0x0028   |
| Data Size    | 15 bytes |
| Instructions | 3        |

```
      00 01 02 03 04 05 06 07  08 09 0A 0B 0C 0D 0E 0F
      -- -- -- -- -- -- -- --  -- -- -- -- -- -- -- --
0020:                          37 05 80 06 80 02 80 07          7.......
0030: 80 80 F8 FF FF 7F 00                              .......         
```

#### Opcodes

```
  0: 0x0028 [0x37] UPDATE_EVENT_POSITION_AND_DIR: x=-8.171*, z=-105.406*, y=1.548*, direction=308.3°*
  1: 0x0031 [0x80] LOAD_WAIT(entity=EventEntity)
  2: 0x0036 [0x00] END_REQSTACK()
```

### Event 65535.5

#### Metadata

| Field        | Value    |
|--------------|----------|
| Entrypoint   | 0x0037   |
| Data Size    | 34 bytes |
| Instructions | 4        |

```
      00 01 02 03 04 05 06 07  08 09 0A 0B 0C 0D 0E 0F
      -- -- -- -- -- -- -- --  -- -- -- -- -- -- -- --
0030:                      5B  08 80 19 61 0E 01 19 61         [...a...a
0040: 0E 01 74 6F 6E 30 1C 09  80 5B 08 80 19 61 0E 01  ..ton0...[...a..
0050: 19 61 0E 01 74 6F 6E 31  00                       .a..ton1.       
```

#### Opcodes

```
  0: 0x0037 [0x5B] LOAD_EXT_SCHEDULER: Load scheduler "ton0" with entities [Unnamed NPC (ID: 17719577/0x010E6119), Unnamed NPC (ID: 17719577/0x010E6119)], work=220*
  1: 0x0046 [0x1C] WAIT(60* ticks)
  2: 0x0049 [0x5B] LOAD_EXT_SCHEDULER: Load scheduler "ton1" with entities [Unnamed NPC (ID: 17719577/0x010E6119), Unnamed NPC (ID: 17719577/0x010E6119)], work=220*
  3: 0x0058 [0x00] END_REQSTACK()
```

### Event 65535.6

#### Metadata

| Field        | Value   |
|--------------|---------|
| Entrypoint   | 0x0059  |
| Data Size    | 3 bytes |
| Instructions | 2       |

```
      00 01 02 03 04 05 06 07  08 09 0A 0B 0C 0D 0E 0F
      -- -- -- -- -- -- -- --  -- -- -- -- -- -- -- --
0050:                             33 00 00                       3..    
```

#### Opcodes

```
  0: 0x0059 [0x33] EventEntity->Render.Flags0 &= ~ 0x200000 // Bit 21 (flag=0x00)
  1: 0x005B [0x00] END_REQSTACK()
```

### Event 65535.7

#### Metadata

| Field        | Value    |
|--------------|----------|
| Entrypoint   | 0x005C   |
| Data Size    | 52 bytes |
| Instructions | 6        |

```
      00 01 02 03 04 05 06 07  08 09 0A 0B 0C 0D 0E 0F
      -- -- -- -- -- -- -- --  -- -- -- -- -- -- -- --
0050:                                      5B 0A 80 19              [...
0060: 61 0E 01 19 61 0E 01 6B  69 63 6B 1C 0B 80 5B 0A  a...a..kick...[.
0070: 80 19 61 0E 01 19 61 0E  01 74 75 6B 69 1C 0B 80  ..a...a..tuki...
0080: 5B 0A 80 19 61 0E 01 19  61 0E 01 66 75 72 69 00  [...a...a..furi.
```

#### Opcodes

```
  0: 0x005C [0x5B] LOAD_EXT_SCHEDULER: Load scheduler "kick" with entities [Unnamed NPC (ID: 17719577/0x010E6119), Unnamed NPC (ID: 17719577/0x010E6119)], work=223*
  1: 0x006B [0x1C] WAIT(120* ticks)
  2: 0x006E [0x5B] LOAD_EXT_SCHEDULER: Load scheduler "tuki" with entities [Unnamed NPC (ID: 17719577/0x010E6119), Unnamed NPC (ID: 17719577/0x010E6119)], work=223*
  3: 0x007D [0x1C] WAIT(120* ticks)
  4: 0x0080 [0x5B] LOAD_EXT_SCHEDULER: Load scheduler "furi" with entities [Unnamed NPC (ID: 17719577/0x010E6119), Unnamed NPC (ID: 17719577/0x010E6119)], work=223*
  5: 0x008F [0x00] END_REQSTACK()
```

### Event 65535.8

#### Metadata

| Field        | Value    |
|--------------|----------|
| Entrypoint   | 0x0090   |
| Data Size    | 34 bytes |
| Instructions | 4        |

```
      00 01 02 03 04 05 06 07  08 09 0A 0B 0C 0D 0E 0F
      -- -- -- -- -- -- -- --  -- -- -- -- -- -- -- --
0090: 5B 0A 80 19 61 0E 01 19  61 0E 01 6B 69 63 6B 1C  [...a...a..kick.
00A0: 0B 80 5B 0A 80 19 61 0E  01 19 61 0E 01 74 75 6B  ..[...a...a..tuk
00B0: 69 00                                             i.              
```

#### Opcodes

```
  0: 0x0090 [0x5B] LOAD_EXT_SCHEDULER: Load scheduler "kick" with entities [Unnamed NPC (ID: 17719577/0x010E6119), Unnamed NPC (ID: 17719577/0x010E6119)], work=223*
  1: 0x009F [0x1C] WAIT(120* ticks)
  2: 0x00A2 [0x5B] LOAD_EXT_SCHEDULER: Load scheduler "tuki" with entities [Unnamed NPC (ID: 17719577/0x010E6119), Unnamed NPC (ID: 17719577/0x010E6119)], work=223*
  3: 0x00B1 [0x00] END_REQSTACK()
```

### Event 65535.9

#### Metadata

| Field        | Value    |
|--------------|----------|
| Entrypoint   | 0x00B2   |
| Data Size    | 34 bytes |
| Instructions | 4        |

```
      00 01 02 03 04 05 06 07  08 09 0A 0B 0C 0D 0E 0F
      -- -- -- -- -- -- -- --  -- -- -- -- -- -- -- --
00B0:       5B 0A 80 19 61 0E  01 19 61 0E 01 6B 69 63    [...a...a..kic
00C0: 6B 1C 0B 80 5B 0A 80 19  61 0E 01 19 61 0E 01 66  k...[...a...a..f
00D0: 75 72 69 00                                       uri.            
```

#### Opcodes

```
  0: 0x00B2 [0x5B] LOAD_EXT_SCHEDULER: Load scheduler "kick" with entities [Unnamed NPC (ID: 17719577/0x010E6119), Unnamed NPC (ID: 17719577/0x010E6119)], work=223*
  1: 0x00C1 [0x1C] WAIT(120* ticks)
  2: 0x00C4 [0x5B] LOAD_EXT_SCHEDULER: Load scheduler "furi" with entities [Unnamed NPC (ID: 17719577/0x010E6119), Unnamed NPC (ID: 17719577/0x010E6119)], work=223*
  3: 0x00D3 [0x00] END_REQSTACK()
```

### Event 65535.10

#### Metadata

| Field        | Value    |
|--------------|----------|
| Entrypoint   | 0x00D4   |
| Data Size    | 34 bytes |
| Instructions | 4        |

```
      00 01 02 03 04 05 06 07  08 09 0A 0B 0C 0D 0E 0F
      -- -- -- -- -- -- -- --  -- -- -- -- -- -- -- --
00D0:             5B 0A 80 19  61 0E 01 19 61 0E 01 74      [...a...a..t
00E0: 75 6B 69 1C 0B 80 5B 0A  80 19 61 0E 01 19 61 0E  uki...[...a...a.
00F0: 01 66 75 72 69 00                                 .furi.          
```

#### Opcodes

```
  0: 0x00D4 [0x5B] LOAD_EXT_SCHEDULER: Load scheduler "tuki" with entities [Unnamed NPC (ID: 17719577/0x010E6119), Unnamed NPC (ID: 17719577/0x010E6119)], work=223*
  1: 0x00E3 [0x1C] WAIT(120* ticks)
  2: 0x00E6 [0x5B] LOAD_EXT_SCHEDULER: Load scheduler "furi" with entities [Unnamed NPC (ID: 17719577/0x010E6119), Unnamed NPC (ID: 17719577/0x010E6119)], work=223*
  3: 0x00F5 [0x00] END_REQSTACK()
```

### Event 65535.11

#### Metadata

| Field        | Value    |
|--------------|----------|
| Entrypoint   | 0x00F6   |
| Data Size    | 12 bytes |
| Instructions | 3        |

```
      00 01 02 03 04 05 06 07  08 09 0A 0B 0C 0D 0E 0F
      -- -- -- -- -- -- -- --  -- -- -- -- -- -- -- --
00F0:                   33 01  37 0C 80 0D 80 0E 80 0F        3.7.......
0100: 80 00                                             ..              
```

#### Opcodes

```
  0: 0x00F6 [0x33] EventEntity->Render.Flags0 |= 0x200000 // Bit 21 (flag=0x01)
  1: 0x00F8 [0x37] UPDATE_EVENT_POSITION_AND_DIR: x=-12.250*, z=-116.542*, y=-0.300*, direction=271.0°*
  2: 0x0101 [0x00] END_REQSTACK()
```

### Event 65535.12

#### Metadata

| Field        | Value    |
|--------------|----------|
| Entrypoint   | 0x0102   |
| Data Size    | 15 bytes |
| Instructions | 3        |

```
      00 01 02 03 04 05 06 07  08 09 0A 0B 0C 0D 0E 0F
      -- -- -- -- -- -- -- --  -- -- -- -- -- -- -- --
0100:       37 10 80 11 80 04  80 12 80 80 F8 FF FF 7F    7.............
0110: 00                                                .               
```

#### Opcodes

```
  0: 0x0102 [0x37] UPDATE_EVENT_POSITION_AND_DIR: x=117.235*, z=78.534*, y=0.000*, direction=320.0°*
  1: 0x010B [0x80] LOAD_WAIT(entity=EventEntity)
  2: 0x0110 [0x00] END_REQSTACK()
```

### Event 65535.13

#### Metadata

| Field        | Value    |
|--------------|----------|
| Entrypoint   | 0x0111   |
| Data Size    | 57 bytes |
| Instructions | 9        |

```
      00 01 02 03 04 05 06 07  08 09 0A 0B 0C 0D 0E 0F
      -- -- -- -- -- -- -- --  -- -- -- -- -- -- -- --
0110:    32 13 80 1F 00 14 80  15 80 04 80 1F 01 4B 19   2............K.
0120: 61 0E 01 16 80 1C 17 80  5B 18 80 19 61 0E 01 19  a.......[...a...
0130: 61 0E 01 6A 6F 79 30 5B  19 80 19 61 0E 01 19 61  a..joy0[...a...a
0140: 0E 01 31 30 31 31 1C 09  80 00                    ..1011....      
```

#### Opcodes

```
  0: 0x0111 [0x32] ExtData[1]->MainSpeed = 15* * 0.1
  1: 0x0114 [0x1F] MOVE_ENTITY: EventEntity moves to X=121.826*, Z=83.035*, Y=0.000*
  2: 0x011C [0x1F] MOVE_ENTITY: Update entity position (mode=1)
  3: 0x011E [0x4B] UPDATE_ENTITY_YAW(entity=Unnamed NPC (ID: 17719577/0x010E6119), yaw=14.4°*)
  4: 0x0125 [0x1C] WAIT(30* ticks)
  5: 0x0128 [0x5B] LOAD_EXT_SCHEDULER: Load scheduler "joy0" with entities [Unnamed NPC (ID: 17719577/0x010E6119), Unnamed NPC (ID: 17719577/0x010E6119)], work=222*
  6: 0x0137 [0x5B] LOAD_EXT_SCHEDULER: Load scheduler "1011" with entities [Unnamed NPC (ID: 17719577/0x010E6119), Unnamed NPC (ID: 17719577/0x010E6119)], work=224*
  7: 0x0146 [0x1C] WAIT(60* ticks)
  8: 0x0149 [0x00] END_REQSTACK()
```

### Event 65535.14

#### Metadata

| Field        | Value    |
|--------------|----------|
| Entrypoint   | 0x014A   |
| Data Size    | 15 bytes |
| Instructions | 3        |

```
      00 01 02 03 04 05 06 07  08 09 0A 0B 0C 0D 0E 0F
      -- -- -- -- -- -- -- --  -- -- -- -- -- -- -- --
0140:                                37 1A 80 1B 80 1C            7.....
0150: 80 1D 80 80 F8 FF FF 7F  00                       .........       
```

#### Opcodes

```
  0: 0x014A [0x37] UPDATE_EVENT_POSITION_AND_DIR: x=6.513*, z=-89.216*, y=2.199*, direction=151.3°*
  1: 0x0153 [0x80] LOAD_WAIT(entity=EventEntity)
  2: 0x0158 [0x00] END_REQSTACK()
```

### Event 65535.15

#### Metadata

| Field        | Value     |
|--------------|-----------|
| Entrypoint   | 0x0159    |
| Data Size    | 121 bytes |
| Instructions | 24        |

```
      00 01 02 03 04 05 06 07  08 09 0A 0B 0C 0D 0E 0F
      -- -- -- -- -- -- -- --  -- -- -- -- -- -- -- --
0150:                             32 1E 80 1F 00 1F 80           2......
0160: 20 80 1C 80 1F 01 1F 00  21 80 22 80 1C 80 1F 01   .......!.".....
0170: 1F 00 23 80 24 80 1C 80  1F 01 1F 00 25 80 26 80  ..#.$.......%.&.
0180: 1C 80 1F 01 1F 00 1A 80  1B 80 1C 80 1F 01 1F 00  ................
0190: 27 80 28 80 1C 80 1F 01  1F 00 29 80 2A 80 1C 80  '.(.......).*...
01A0: 1F 01 1F 00 2B 80 2C 80  1C 80 1F 01 1F 00 2D 80  ....+.,.......-.
01B0: 2E 80 1C 80 1F 01 02 4D  10 04 80 00 C8 01 27 05  .......M......'.
01C0: 19 61 0E 01 13 01 D1 01  37 04 80 04 80 04 80 04  .a......7.......
01D0: 80 00                                             ..              
```

#### Opcodes

```
  0: 0x0159 [0x32] ExtData[1]->MainSpeed = 70* * 0.1
  1: 0x015C [0x1F] MOVE_ENTITY: EventEntity moves to X=22.152*, Z=-95.901*, Y=2.199*
  2: 0x0164 [0x1F] MOVE_ENTITY: Update entity position (mode=1)
  3: 0x0166 [0x1F] MOVE_ENTITY: EventEntity moves to X=23.034*, Z=-92.413*, Y=2.199*
  4: 0x016E [0x1F] MOVE_ENTITY: Update entity position (mode=1)
  5: 0x0170 [0x1F] MOVE_ENTITY: EventEntity moves to X=8.394*, Z=-88.334*, Y=2.199*
  6: 0x0178 [0x1F] MOVE_ENTITY: Update entity position (mode=1)
  7: 0x017A [0x1F] MOVE_ENTITY: EventEntity moves to X=6.666*, Z=-88.536*, Y=2.199*
  8: 0x0182 [0x1F] MOVE_ENTITY: Update entity position (mode=1)
  9: 0x0184 [0x1F] MOVE_ENTITY: EventEntity moves to X=6.513*, Z=-89.216*, Y=2.199*
 10: 0x018C [0x1F] MOVE_ENTITY: Update entity position (mode=1)
 11: 0x018E [0x1F] MOVE_ENTITY: EventEntity moves to X=8.940*, Z=-91.557*, Y=2.199*
 12: 0x0196 [0x1F] MOVE_ENTITY: Update entity position (mode=1)
 13: 0x0198 [0x1F] MOVE_ENTITY: EventEntity moves to X=11.390*, Z=-92.475*, Y=2.199*
 14: 0x01A0 [0x1F] MOVE_ENTITY: Update entity position (mode=1)
 15: 0x01A2 [0x1F] MOVE_ENTITY: EventEntity moves to X=16.072*, Z=-94.058*, Y=2.199*
 16: 0x01AA [0x1F] MOVE_ENTITY: Update entity position (mode=1)
 17: 0x01AC [0x1F] MOVE_ENTITY: EventEntity moves to X=19.806*, Z=-95.324*, Y=2.199*
 18: 0x01B4 [0x1F] MOVE_ENTITY: Update entity position (mode=1)
 19: 0x01B6 [0x02] IF !(Work_Zone[77] == 0*) GOTO 0x01C8
 20: 0x01BE [0x27] REQ_SET(priority=0x05, entity_id=Unnamed NPC (ID: 17719577/0x010E6119), tag_num=0x13)
 21: 0x01C5 [0x01] GOTO 0x01D1
 22: 0x01C8 [0x37] UPDATE_EVENT_POSITION_AND_DIR: x=0.000*, z=0.000*, y=0.000*, direction=0.0°*

SUBROUTINE_01D1:
 23: 0x01D1 [0x00] END_REQSTACK()
```

### Event 65535.16

#### Metadata

| Field        | Value     |
|--------------|-----------|
| Entrypoint   | 0x01D2    |
| Data Size    | 121 bytes |
| Instructions | 24        |

```
      00 01 02 03 04 05 06 07  08 09 0A 0B 0C 0D 0E 0F
      -- -- -- -- -- -- -- --  -- -- -- -- -- -- -- --
01D0:       32 1E 80 1F 00 1F  80 20 80 1C 80 1F 01 1F    2...... ......
01E0: 00 21 80 22 80 1C 80 1F  01 1F 00 23 80 24 80 1C  .!.".......#.$..
01F0: 80 1F 01 1F 00 25 80 26  80 1C 80 1F 01 1F 00 1A  .....%.&........
0200: 80 1B 80 1C 80 1F 01 1F  00 27 80 28 80 1C 80 1F  .........'.(....
0210: 01 1F 00 29 80 2A 80 1C  80 1F 01 1F 00 2B 80 2C  ...).*.......+.,
0220: 80 1C 80 1F 01 1F 00 2D  80 2E 80 1C 80 1F 01 02  .......-........
0230: 4D 10 04 80 00 41 02 27  05 19 61 0E 01 12 01 4A  M....A.'..a....J
0240: 02 37 04 80 04 80 04 80  04 80 00                 .7.........     
```

#### Opcodes

```
  0: 0x01D2 [0x32] ExtData[1]->MainSpeed = 70* * 0.1
  1: 0x01D5 [0x1F] MOVE_ENTITY: EventEntity moves to X=22.152*, Z=-95.901*, Y=2.199*
  2: 0x01DD [0x1F] MOVE_ENTITY: Update entity position (mode=1)
  3: 0x01DF [0x1F] MOVE_ENTITY: EventEntity moves to X=23.034*, Z=-92.413*, Y=2.199*
  4: 0x01E7 [0x1F] MOVE_ENTITY: Update entity position (mode=1)
  5: 0x01E9 [0x1F] MOVE_ENTITY: EventEntity moves to X=8.394*, Z=-88.334*, Y=2.199*
  6: 0x01F1 [0x1F] MOVE_ENTITY: Update entity position (mode=1)
  7: 0x01F3 [0x1F] MOVE_ENTITY: EventEntity moves to X=6.666*, Z=-88.536*, Y=2.199*
  8: 0x01FB [0x1F] MOVE_ENTITY: Update entity position (mode=1)
  9: 0x01FD [0x1F] MOVE_ENTITY: EventEntity moves to X=6.513*, Z=-89.216*, Y=2.199*
 10: 0x0205 [0x1F] MOVE_ENTITY: Update entity position (mode=1)
 11: 0x0207 [0x1F] MOVE_ENTITY: EventEntity moves to X=8.940*, Z=-91.557*, Y=2.199*
 12: 0x020F [0x1F] MOVE_ENTITY: Update entity position (mode=1)
 13: 0x0211 [0x1F] MOVE_ENTITY: EventEntity moves to X=11.390*, Z=-92.475*, Y=2.199*
 14: 0x0219 [0x1F] MOVE_ENTITY: Update entity position (mode=1)
 15: 0x021B [0x1F] MOVE_ENTITY: EventEntity moves to X=16.072*, Z=-94.058*, Y=2.199*
 16: 0x0223 [0x1F] MOVE_ENTITY: Update entity position (mode=1)
 17: 0x0225 [0x1F] MOVE_ENTITY: EventEntity moves to X=19.806*, Z=-95.324*, Y=2.199*
 18: 0x022D [0x1F] MOVE_ENTITY: Update entity position (mode=1)
 19: 0x022F [0x02] IF !(Work_Zone[77] == 0*) GOTO 0x0241
 20: 0x0237 [0x27] REQ_SET(priority=0x05, entity_id=Unnamed NPC (ID: 17719577/0x010E6119), tag_num=0x12)
 21: 0x023E [0x01] GOTO 0x024A
 22: 0x0241 [0x37] UPDATE_EVENT_POSITION_AND_DIR: x=0.000*, z=0.000*, y=0.000*, direction=0.0°*

SUBROUTINE_024A:
 23: 0x024A [0x00] END_REQSTACK()
```

### Event 65535.17

#### Metadata

| Field        | Value    |
|--------------|----------|
| Entrypoint   | 0x024B   |
| Data Size    | 15 bytes |
| Instructions | 3        |

```
      00 01 02 03 04 05 06 07  08 09 0A 0B 0C 0D 0E 0F
      -- -- -- -- -- -- -- --  -- -- -- -- -- -- -- --
0240:                                   37 2F 80 30 80             7/.0.
0250: 31 80 32 80 80 F8 FF FF  7F 00                    1.2.......      
```

#### Opcodes

```
  0: 0x024B [0x37] UPDATE_EVENT_POSITION_AND_DIR: x=-27.558*, z=-94.756*, y=1.999*, direction=81.3°*
  1: 0x0254 [0x80] LOAD_WAIT(entity=EventEntity)
  2: 0x0259 [0x00] END_REQSTACK()
```

### Event 65535.18

#### Metadata

| Field        | Value    |
|--------------|----------|
| Entrypoint   | 0x025A   |
| Data Size    | 48 bytes |
| Instructions | 9        |

```
      00 01 02 03 04 05 06 07  08 09 0A 0B 0C 0D 0E 0F
      -- -- -- -- -- -- -- --  -- -- -- -- -- -- -- --
0250:                                32 1E 80 1F 00 33            2....3
0260: 80 34 80 31 80 1F 01 33  01 37 35 80 36 80 37 80  .4.1...3.75.6.7.
0270: 38 80 80 F8 FF FF 7F 1C  39 80 5B 18 80 19 61 0E  8.......9.[...a.
0280: 01 19 61 0E 01 73 6C 70  30 00                    ..a..slp0.      
```

#### Opcodes

```
  0: 0x025A [0x32] ExtData[1]->MainSpeed = 70* * 0.1
  1: 0x025D [0x1F] MOVE_ENTITY: EventEntity moves to X=-25.035*, Z=-88.543*, Y=1.999*
  2: 0x0265 [0x1F] MOVE_ENTITY: Update entity position (mode=1)
  3: 0x0267 [0x33] EventEntity->Render.Flags0 |= 0x200000 // Bit 21 (flag=0x01)
  4: 0x0269 [0x37] UPDATE_EVENT_POSITION_AND_DIR: x=4.206*, z=-97.531*, y=1.500*, direction=110.7°*
  5: 0x0272 [0x80] LOAD_WAIT(entity=EventEntity)
  6: 0x0277 [0x1C] WAIT(5* ticks)
  7: 0x027A [0x5B] LOAD_EXT_SCHEDULER: Load scheduler "slp0" with entities [Unnamed NPC (ID: 17719577/0x010E6119), Unnamed NPC (ID: 17719577/0x010E6119)], work=222*
  8: 0x0289 [0x00] END_REQSTACK()
```

### Event 65535.19

#### Metadata

| Field        | Value    |
|--------------|----------|
| Entrypoint   | 0x028A   |
| Data Size    | 15 bytes |
| Instructions | 3        |

```
      00 01 02 03 04 05 06 07  08 09 0A 0B 0C 0D 0E 0F
      -- -- -- -- -- -- -- --  -- -- -- -- -- -- -- --
0280:                                37 3A 80 3B 80 1C            7:.;..
0290: 80 3C 80 80 F8 FF FF 7F  00                       .<.......       
```

#### Opcodes

```
  0: 0x028A [0x37] UPDATE_EVENT_POSITION_AND_DIR: x=12.690*, z=-100.213*, y=2.199*, direction=181.6°*
  1: 0x0293 [0x80] LOAD_WAIT(entity=EventEntity)
  2: 0x0298 [0x00] END_REQSTACK()
```

### Event 65535.20

#### Metadata

| Field        | Value     |
|--------------|-----------|
| Entrypoint   | 0x0299    |
| Data Size    | 204 bytes |
| Instructions | 34        |

```
      00 01 02 03 04 05 06 07  08 09 0A 0B 0C 0D 0E 0F
      -- -- -- -- -- -- -- --  -- -- -- -- -- -- -- --
0290:                             2A 05 1A 61 0E 01 2A           *..a..*
02A0: 0F 1B 61 0E 01 2A 14 1C  61 0E 01 2A 19 1D 61 0E  ..a..*..a..*..a.
02B0: 01 4B 19 61 0E 01 1E 80  1C 09 80 4B 19 61 0E 01  .K.a.......K.a..
02C0: 3C 80 29 05 1A 61 0E 01  0C 29 05 1B 61 0E 01 0A  <.)..a...)..a...
02D0: 29 05 1C 61 0E 01 0A 29  05 1D 61 0E 01 0A 4B 19  )..a...)..a...K.
02E0: 61 0E 01 1E 80 1C 09 80  4B 19 61 0E 01 3C 80 29  a.......K.a..<.)
02F0: 05 1A 61 0E 01 0D 29 05  1B 61 0E 01 0B 29 05 1C  ..a...)..a...)..
0300: 61 0E 01 0B 29 05 1D 61  0E 01 0B 4B 19 61 0E 01  a...)..a...K.a..
0310: 1E 80 1C 09 80 4B 19 61  0E 01 3C 80 29 05 1A 61  .....K.a..<.)..a
0320: 0E 01 0E 29 05 1B 61 0E  01 0C 29 05 1C 61 0E 01  ...)..a...)..a..
0330: 0C 29 05 1D 61 0E 01 0C  27 05 1D 61 0E 01 0D 27  .)..a...'..a...'
0340: 0F 1C 61 0E 01 0D 27 14  1B 61 0E 01 0D 27 19 1A  ..a...'..a...'..
0350: 61 0E 01 0F 1C 17 80 32  1E 80 1F 00 3D 80 3E 80  a......2....=.>.
0360: 1C 80 1F 01 00                                    .....           
```

#### Opcodes

```
  0: 0x0299 [0x2A] GET_REQ_LEVEL(level=5, entity_id=Unnamed NPC (ID: 17719578/0x010E611A))
  1: 0x029F [0x2A] GET_REQ_LEVEL(level=15, entity_id=Unnamed NPC (ID: 17719579/0x010E611B))
  2: 0x02A5 [0x2A] GET_REQ_LEVEL(level=20, entity_id=Unnamed NPC (ID: 17719580/0x010E611C))
  3: 0x02AB [0x2A] GET_REQ_LEVEL(level=25, entity_id=Unnamed NPC (ID: 17719581/0x010E611D))
  4: 0x02B1 [0x4B] UPDATE_ENTITY_YAW(entity=Unnamed NPC (ID: 17719577/0x010E6119), yaw=0.4°*)
  5: 0x02B8 [0x1C] WAIT(60* ticks)
  6: 0x02BB [0x4B] UPDATE_ENTITY_YAW(entity=Unnamed NPC (ID: 17719577/0x010E6119), yaw=11.3°*)
  7: 0x02C2 [0x29] REQ_SET_WAIT(priority=0x05, entity_id=Unnamed NPC (ID: 17719578/0x010E611A), tag_num=0x0C)
  8: 0x02C9 [0x29] REQ_SET_WAIT(priority=0x05, entity_id=Unnamed NPC (ID: 17719579/0x010E611B), tag_num=0x0A)
  9: 0x02D0 [0x29] REQ_SET_WAIT(priority=0x05, entity_id=Unnamed NPC (ID: 17719580/0x010E611C), tag_num=0x0A)
 10: 0x02D7 [0x29] REQ_SET_WAIT(priority=0x05, entity_id=Unnamed NPC (ID: 17719581/0x010E611D), tag_num=0x0A)
 11: 0x02DE [0x4B] UPDATE_ENTITY_YAW(entity=Unnamed NPC (ID: 17719577/0x010E6119), yaw=0.4°*)
 12: 0x02E5 [0x1C] WAIT(60* ticks)
 13: 0x02E8 [0x4B] UPDATE_ENTITY_YAW(entity=Unnamed NPC (ID: 17719577/0x010E6119), yaw=11.3°*)
 14: 0x02EF [0x29] REQ_SET_WAIT(priority=0x05, entity_id=Unnamed NPC (ID: 17719578/0x010E611A), tag_num=0x0D)
 15: 0x02F6 [0x29] REQ_SET_WAIT(priority=0x05, entity_id=Unnamed NPC (ID: 17719579/0x010E611B), tag_num=0x0B)
 16: 0x02FD [0x29] REQ_SET_WAIT(priority=0x05, entity_id=Unnamed NPC (ID: 17719580/0x010E611C), tag_num=0x0B)
 17: 0x0304 [0x29] REQ_SET_WAIT(priority=0x05, entity_id=Unnamed NPC (ID: 17719581/0x010E611D), tag_num=0x0B)
 18: 0x030B [0x4B] UPDATE_ENTITY_YAW(entity=Unnamed NPC (ID: 17719577/0x010E6119), yaw=0.4°*)
 19: 0x0312 [0x1C] WAIT(60* ticks)
 20: 0x0315 [0x4B] UPDATE_ENTITY_YAW(entity=Unnamed NPC (ID: 17719577/0x010E6119), yaw=11.3°*)
 21: 0x031C [0x29] REQ_SET_WAIT(priority=0x05, entity_id=Unnamed NPC (ID: 17719578/0x010E611A), tag_num=0x0E)
 22: 0x0323 [0x29] REQ_SET_WAIT(priority=0x05, entity_id=Unnamed NPC (ID: 17719579/0x010E611B), tag_num=0x0C)
 23: 0x032A [0x29] REQ_SET_WAIT(priority=0x05, entity_id=Unnamed NPC (ID: 17719580/0x010E611C), tag_num=0x0C)
 24: 0x0331 [0x29] REQ_SET_WAIT(priority=0x05, entity_id=Unnamed NPC (ID: 17719581/0x010E611D), tag_num=0x0C)
 25: 0x0338 [0x27] REQ_SET(priority=0x05, entity_id=Unnamed NPC (ID: 17719581/0x010E611D), tag_num=0x0D)
 26: 0x033F [0x27] REQ_SET(priority=0x0F, entity_id=Unnamed NPC (ID: 17719580/0x010E611C), tag_num=0x0D)
 27: 0x0346 [0x27] REQ_SET(priority=0x14, entity_id=Unnamed NPC (ID: 17719579/0x010E611B), tag_num=0x0D)
 28: 0x034D [0x27] REQ_SET(priority=0x19, entity_id=Unnamed NPC (ID: 17719578/0x010E611A), tag_num=0x0F)
 29: 0x0354 [0x1C] WAIT(30* ticks)
 30: 0x0357 [0x32] ExtData[1]->MainSpeed = 70* * 0.1
 31: 0x035A [0x1F] MOVE_ENTITY: EventEntity moves to X=15.045*, Z=-88.373*, Y=2.199*
 32: 0x0362 [0x1F] MOVE_ENTITY: Update entity position (mode=1)
 33: 0x0364 [0x00] END_REQSTACK()
```

### Event 65535.21

#### Metadata

| Field        | Value    |
|--------------|----------|
| Entrypoint   | 0x0365   |
| Data Size    | 15 bytes |
| Instructions | 3        |

```
      00 01 02 03 04 05 06 07  08 09 0A 0B 0C 0D 0E 0F
      -- -- -- -- -- -- -- --  -- -- -- -- -- -- -- --
0360:                37 3F 80  40 80 41 80 42 80 80 F8       7?.@.A.B...
0370: FF FF 7F 00                                       ....            
```

#### Opcodes

```
  0: 0x0365 [0x37] UPDATE_EVENT_POSITION_AND_DIR: x=0.399*, z=-26.250*, y=1.699*, direction=90.6°*
  1: 0x036E [0x80] LOAD_WAIT(entity=EventEntity)
  2: 0x0373 [0x00] END_REQSTACK()
```

### Event 65535.22

#### Metadata

| Field        | Value    |
|--------------|----------|
| Entrypoint   | 0x0374   |
| Data Size    | 76 bytes |
| Instructions | 12       |

```
      00 01 02 03 04 05 06 07  08 09 0A 0B 0C 0D 0E 0F
      -- -- -- -- -- -- -- --  -- -- -- -- -- -- -- --
0370:             32 1E 80 1F  00 43 80 44 80 41 80 1F      2....C.D.A..
0380: 01 37 45 80 46 80 47 80  48 80 80 F8 FF FF 7F 1C  .7E.F.G.H.......
0390: 09 80 52 49 80 F0 FF FF  7F F0 FF FF 7F 73 31 36  ..RI.........s16
03A0: 38 45 49 80 F0 FF FF 7F  F0 FF FF 7F 73 31 36 39  8EI.........s169
03B0: 04 80 32 1E 80 1F 00 4A  80 4B 80 47 80 1F 01 00  ..2....J.K.G....
```

#### Opcodes

```
  0: 0x0374 [0x32] ExtData[1]->MainSpeed = 70* * 0.1
  1: 0x0377 [0x1F] MOVE_ENTITY: EventEntity moves to X=-5.177*, Z=-25.878*, Y=1.699*
  2: 0x037F [0x1F] MOVE_ENTITY: Update entity position (mode=1)
  3: 0x0381 [0x37] UPDATE_EVENT_POSITION_AND_DIR: x=-133.885*, z=14.388*, y=-1.999*, direction=185.9°*
  4: 0x038A [0x80] LOAD_WAIT(entity=EventEntity)
  5: 0x038F [0x1C] WAIT(60* ticks)
  6: 0x0392 [0x52] END_LOAD_SCHEDULER: End scheduler "s168" with entities [LocalPlayer, LocalPlayer], work=254*
  7: 0x03A1 [0x45] LOAD_SCHEDULED_TASK: Load scheduler "s169" with entities [LocalPlayer, LocalPlayer], work=[254*, 0*]
  8: 0x03B2 [0x32] ExtData[1]->MainSpeed = 70* * 0.1
  9: 0x03B5 [0x1F] MOVE_ENTITY: EventEntity moves to X=-138.474*, Z=15.145*, Y=-1.999*
 10: 0x03BD [0x1F] MOVE_ENTITY: Update entity position (mode=1)
 11: 0x03BF [0x00] END_REQSTACK()
```

### Event 65535.23

#### Metadata

| Field        | Value    |
|--------------|----------|
| Entrypoint   | 0x03C0   |
| Data Size    | 14 bytes |
| Instructions | 4        |

```
      00 01 02 03 04 05 06 07  08 09 0A 0B 0C 0D 0E 0F
      -- -- -- -- -- -- -- --  -- -- -- -- -- -- -- --
03C0: 32 1E 80 1F 00 45 80 46  80 47 80 1F 01 00        2....E.F.G....  
```

#### Opcodes

```
  0: 0x03C0 [0x32] ExtData[1]->MainSpeed = 70* * 0.1
  1: 0x03C3 [0x1F] MOVE_ENTITY: EventEntity moves to X=-133.885*, Z=14.388*, Y=-1.999*
  2: 0x03CB [0x1F] MOVE_ENTITY: Update entity position (mode=1)
  3: 0x03CD [0x00] END_REQSTACK()
```

### Event 65535.24

#### Metadata

| Field        | Value    |
|--------------|----------|
| Entrypoint   | 0x03CE   |
| Data Size    | 15 bytes |
| Instructions | 3        |

```
      00 01 02 03 04 05 06 07  08 09 0A 0B 0C 0D 0E 0F
      -- -- -- -- -- -- -- --  -- -- -- -- -- -- -- --
03C0:                                            37 4C                7L
03D0: 80 4D 80 4E 80 4F 80 80  F8 FF FF 7F 00           .M.N.O.......   
```

#### Opcodes

```
  0: 0x03CE [0x37] UPDATE_EVENT_POSITION_AND_DIR: x=-520.177*, z=-413.574*, y=0.540*, direction=319.2°*
  1: 0x03D7 [0x80] LOAD_WAIT(entity=EventEntity)
  2: 0x03DC [0x00] END_REQSTACK()
```

### Event 65535.25

#### Metadata

| Field        | Value    |
|--------------|----------|
| Entrypoint   | 0x03DD   |
| Data Size    | 15 bytes |
| Instructions | 3        |

```
      00 01 02 03 04 05 06 07  08 09 0A 0B 0C 0D 0E 0F
      -- -- -- -- -- -- -- --  -- -- -- -- -- -- -- --
03D0:                                         37 50 80               7P.
03E0: 51 80 52 80 53 80 80 F8  FF FF 7F 00              Q.R.S.......    
```

#### Opcodes

```
  0: 0x03DD [0x37] UPDATE_EVENT_POSITION_AND_DIR: x=29.983*, z=2.886*, y=2.101*, direction=2.1°*
  1: 0x03E6 [0x80] LOAD_WAIT(entity=EventEntity)
  2: 0x03EB [0x00] END_REQSTACK()
```

### Event 65535.26

#### Metadata

| Field        | Value     |
|--------------|-----------|
| Entrypoint   | 0x03EC    |
| Data Size    | 136 bytes |
| Instructions | 20        |

```
      00 01 02 03 04 05 06 07  08 09 0A 0B 0C 0D 0E 0F
      -- -- -- -- -- -- -- --  -- -- -- -- -- -- -- --
03E0:                                      4B 2A 61 0E              K*a.
03F0: 01 54 80 1C 17 80 6E 2A  61 0E 01 04 80 99 2A 61  .T....n*a.....*a
0400: 0E 01 1C 09 80 4B 19 61  0E 01 54 80 1C 17 80 5B  .....K.a..T....[
0410: 19 80 19 61 0E 01 19 61  0E 01 31 30 31 31 5B 18  ...a...a..1011[.
0420: 80 19 61 0E 01 19 61 0E  01 6A 6F 79 30 1C 0B 80  ..a...a..joy0...
0430: 4B 19 61 0E 01 55 80 1C  17 80 5B 19 80 19 61 0E  K.a..U....[...a.
0440: 01 19 61 0E 01 31 30 31  31 5B 18 80 19 61 0E 01  ..a..1011[...a..
0450: 19 61 0E 01 6A 6F 79 30  4A 2A 61 0E 01 19 61 0E  .a..joy0J*a...a.
0460: 01 1C 17 80 6E 2A 61 0E  01 56 80 99 2A 61 0E 01  ....n*a..V..*a..
0470: 1C 57 80 00                                       .W..            
```

#### Opcodes

```
  0: 0x03EC [0x4B] UPDATE_ENTITY_YAW(entity=Unnamed NPC (ID: 17719594/0x010E612A), yaw=2.7°*)
  1: 0x03F3 [0x1C] WAIT(30* ticks)
  2: 0x03F6 [0x6E] Unnamed NPC (ID: 17719594/0x010E612A) uses emote 0*
  3: 0x03FD [0x99] Wait for Unnamed NPC (ID: 17719594/0x010E612A) animation to complete
  4: 0x0402 [0x1C] WAIT(60* ticks)
  5: 0x0405 [0x4B] UPDATE_ENTITY_YAW(entity=Unnamed NPC (ID: 17719577/0x010E6119), yaw=2.7°*)
  6: 0x040C [0x1C] WAIT(30* ticks)
  7: 0x040F [0x5B] LOAD_EXT_SCHEDULER: Load scheduler "1011" with entities [Unnamed NPC (ID: 17719577/0x010E6119), Unnamed NPC (ID: 17719577/0x010E6119)], work=224*
  8: 0x041E [0x5B] LOAD_EXT_SCHEDULER: Load scheduler "joy0" with entities [Unnamed NPC (ID: 17719577/0x010E6119), Unnamed NPC (ID: 17719577/0x010E6119)], work=222*
  9: 0x042D [0x1C] WAIT(120* ticks)
 10: 0x0430 [0x4B] UPDATE_ENTITY_YAW(entity=Unnamed NPC (ID: 17719577/0x010E6119), yaw=14.5°*)
 11: 0x0437 [0x1C] WAIT(30* ticks)
 12: 0x043A [0x5B] LOAD_EXT_SCHEDULER: Load scheduler "1011" with entities [Unnamed NPC (ID: 17719577/0x010E6119), Unnamed NPC (ID: 17719577/0x010E6119)], work=224*
 13: 0x0449 [0x5B] LOAD_EXT_SCHEDULER: Load scheduler "joy0" with entities [Unnamed NPC (ID: 17719577/0x010E6119), Unnamed NPC (ID: 17719577/0x010E6119)], work=222*
 14: 0x0458 [0x4A] Unnamed NPC (ID: 17719594/0x010E612A) looks at Unnamed NPC (ID: 17719577/0x010E6119)
 15: 0x0461 [0x1C] WAIT(30* ticks)
 16: 0x0464 [0x6E] Unnamed NPC (ID: 17719594/0x010E612A) uses emote 21*
 17: 0x046B [0x99] Wait for Unnamed NPC (ID: 17719594/0x010E612A) animation to complete
 18: 0x0470 [0x1C] WAIT(90* ticks)
 19: 0x0473 [0x00] END_REQSTACK()
```

### Event 65535.27

#### Metadata

| Field        | Value     |
|--------------|-----------|
| Entrypoint   | 0x0474    |
| Data Size    | 129 bytes |
| Instructions | 15        |

```
      00 01 02 03 04 05 06 07  08 09 0A 0B 0C 0D 0E 0F
      -- -- -- -- -- -- -- --  -- -- -- -- -- -- -- --
0470:             4B 2A 61 0E  01 54 80 1C 17 80 6E 2A      K*a..T....n*
0480: 61 0E 01 04 80 99 2A 61  0E 01 1C 09 80 4B 19 61  a.....*a.....K.a
0490: 0E 01 54 80 1C 17 80 5B  19 80 19 61 0E 01 19 61  ..T....[...a...a
04A0: 0E 01 31 30 31 31 5B 18  80 19 61 0E 01 19 61 0E  ..1011[...a...a.
04B0: 01 6A 6F 79 30 5B 58 80  25 61 0E 01 25 61 0E 01  .joy0[X.%a..%a..
04C0: 6B 61 6E 30 5B 58 80 23  61 0E 01 23 61 0E 01 6B  kan0[X.#a..#a..k
04D0: 61 6E 30 66 17 80 28 61  0E 01 28 61 0E 01 74 6C  an0f..(a..(a..tl
04E0: 6B 30 66 59 80 2E 61 0E  01 2E 61 0E 01 74 63 73  k0fY..a...a..tcs
04F0: 74 1C 0B 80 00                                    t....           
```

#### Opcodes

```
  0: 0x0474 [0x4B] UPDATE_ENTITY_YAW(entity=Unnamed NPC (ID: 17719594/0x010E612A), yaw=2.7°*)
  1: 0x047B [0x1C] WAIT(30* ticks)
  2: 0x047E [0x6E] Unnamed NPC (ID: 17719594/0x010E612A) uses emote 0*
  3: 0x0485 [0x99] Wait for Unnamed NPC (ID: 17719594/0x010E612A) animation to complete
  4: 0x048A [0x1C] WAIT(60* ticks)
  5: 0x048D [0x4B] UPDATE_ENTITY_YAW(entity=Unnamed NPC (ID: 17719577/0x010E6119), yaw=2.7°*)
  6: 0x0494 [0x1C] WAIT(30* ticks)
  7: 0x0497 [0x5B] LOAD_EXT_SCHEDULER: Load scheduler "1011" with entities [Unnamed NPC (ID: 17719577/0x010E6119), Unnamed NPC (ID: 17719577/0x010E6119)], work=224*
  8: 0x04A6 [0x5B] LOAD_EXT_SCHEDULER: Load scheduler "joy0" with entities [Unnamed NPC (ID: 17719577/0x010E6119), Unnamed NPC (ID: 17719577/0x010E6119)], work=222*
  9: 0x04B5 [0x5B] LOAD_EXT_SCHEDULER: Load scheduler "kan0" with entities [Zopago (ID: 17719589/0x010E6125), Zopago (ID: 17719589/0x010E6125)], work=77*
 10: 0x04C4 [0x5B] LOAD_EXT_SCHEDULER: Load scheduler "kan0" with entities [Pulonono (ID: 17719587/0x010E6123), Pulonono (ID: 17719587/0x010E6123)], work=77*
 11: 0x04D3 [0x66] LOAD_EXT_SCHEDULER_MAIN: Load scheduler "tlk0" with entities [Unnamed NPC (ID: 17719592/0x010E6128), Unnamed NPC (ID: 17719592/0x010E6128)], work=30*
 12: 0x04E2 [0x66] LOAD_EXT_SCHEDULER_MAIN: Load scheduler "tcst" with entities [Dietmund (ID: 17719598/0x010E612E), Dietmund (ID: 17719598/0x010E612E)], work=32*
 13: 0x04F1 [0x1C] WAIT(120* ticks)
 14: 0x04F4 [0x00] END_REQSTACK()
```

### Event 65535.28

#### Metadata

| Field        | Value     |
|--------------|-----------|
| Entrypoint   | 0x04F5    |
| Data Size    | 125 bytes |
| Instructions | 25        |

```
      00 01 02 03 04 05 06 07  08 09 0A 0B 0C 0D 0E 0F
      -- -- -- -- -- -- -- --  -- -- -- -- -- -- -- --
04F0:                4B 2A 61  0E 01 54 80 1C 17 80 6E       K*a..T....n
0500: 2A 61 0E 01 04 80 99 2A  61 0E 01 1C 09 80 4B 19  *a.....*a.....K.
0510: 61 0E 01 5A 80 1C 09 80  4A 2A 61 0E 01 19 61 0E  a..Z....J*a...a.
0520: 01 1C 17 80 6E 2A 61 0E  01 5B 80 99 2A 61 0E 01  ....n*a..[..*a..
0530: 1C 0B 80 4B 2A 61 0E 01  54 80 1C 17 80 6E 2A 61  ...K*a..T....n*a
0540: 0E 01 04 80 99 2A 61 0E  01 1C 09 80 4B 19 61 0E  .....*a.....K.a.
0550: 01 5C 80 1C 09 80 4A 2A  61 0E 01 19 61 0E 01 1C  .\....J*a...a...
0560: 17 80 6E 2A 61 0E 01 5D  80 99 2A 61 0E 01 1C 57  ..n*a..]..*a...W
0570: 80 00                                             ..              
```

#### Opcodes

```
  0: 0x04F5 [0x4B] UPDATE_ENTITY_YAW(entity=Unnamed NPC (ID: 17719594/0x010E612A), yaw=2.7°*)
  1: 0x04FC [0x1C] WAIT(30* ticks)
  2: 0x04FF [0x6E] Unnamed NPC (ID: 17719594/0x010E612A) uses emote 0*
  3: 0x0506 [0x99] Wait for Unnamed NPC (ID: 17719594/0x010E612A) animation to complete
  4: 0x050B [0x1C] WAIT(60* ticks)
  5: 0x050E [0x4B] UPDATE_ENTITY_YAW(entity=Unnamed NPC (ID: 17719577/0x010E6119), yaw=8.7°*)
  6: 0x0515 [0x1C] WAIT(60* ticks)
  7: 0x0518 [0x4A] Unnamed NPC (ID: 17719594/0x010E612A) looks at Unnamed NPC (ID: 17719577/0x010E6119)
  8: 0x0521 [0x1C] WAIT(30* ticks)
  9: 0x0524 [0x6E] Unnamed NPC (ID: 17719594/0x010E612A) uses emote 20*
 10: 0x052B [0x99] Wait for Unnamed NPC (ID: 17719594/0x010E612A) animation to complete
 11: 0x0530 [0x1C] WAIT(120* ticks)
 12: 0x0533 [0x4B] UPDATE_ENTITY_YAW(entity=Unnamed NPC (ID: 17719594/0x010E612A), yaw=2.7°*)
 13: 0x053A [0x1C] WAIT(30* ticks)
 14: 0x053D [0x6E] Unnamed NPC (ID: 17719594/0x010E612A) uses emote 0*
 15: 0x0544 [0x99] Wait for Unnamed NPC (ID: 17719594/0x010E612A) animation to complete
 16: 0x0549 [0x1C] WAIT(60* ticks)
 17: 0x054C [0x4B] UPDATE_ENTITY_YAW(entity=Unnamed NPC (ID: 17719577/0x010E6119), yaw=19.5°*)
 18: 0x0553 [0x1C] WAIT(60* ticks)
 19: 0x0556 [0x4A] Unnamed NPC (ID: 17719594/0x010E612A) looks at Unnamed NPC (ID: 17719577/0x010E6119)
 20: 0x055F [0x1C] WAIT(30* ticks)
 21: 0x0562 [0x6E] Unnamed NPC (ID: 17719594/0x010E612A) uses emote 26*
 22: 0x0569 [0x99] Wait for Unnamed NPC (ID: 17719594/0x010E612A) animation to complete
 23: 0x056E [0x1C] WAIT(90* ticks)
 24: 0x0571 [0x00] END_REQSTACK()
```

### Event 65535.29

#### Metadata

| Field        | Value    |
|--------------|----------|
| Entrypoint   | 0x0572   |
| Data Size    | 10 bytes |
| Instructions | 2        |

```
      00 01 02 03 04 05 06 07  08 09 0A 0B 0C 0D 0E 0F
      -- -- -- -- -- -- -- --  -- -- -- -- -- -- -- --
0570:       37 5E 80 5F 80 60  80 61 80 00                7^._.`.a..    
```

#### Opcodes

```
  0: 0x0572 [0x37] UPDATE_EVENT_POSITION_AND_DIR: x=-653.317*, z=21.705*, y=-26.579*, direction=179.7°*
  1: 0x057B [0x00] END_REQSTACK()
```

### Event 65535.30

#### Metadata

| Field        | Value    |
|--------------|----------|
| Entrypoint   | 0x057C   |
| Data Size    | 63 bytes |
| Instructions | 11       |

```
      00 01 02 03 04 05 06 07  08 09 0A 0B 0C 0D 0E 0F
      -- -- -- -- -- -- -- --  -- -- -- -- -- -- -- --
0570:                                      32 13 80 1F              2...
0580: 00 62 80 63 80 64 80 1F  01 1C 09 80 1E F0 FF FF  .b.c.d..........
0590: 7F 1C 17 80 5B 0A 80 19  61 0E 01 19 61 0E 01 6E  ....[...a...a..n
05A0: 61 6B 30 1C 65 80 45 66  80 F0 FF FF 7F F0 FF FF  ak0.e.Ef........
05B0: 7F 6E 61 6B 32 04 80 1C  57 80 00                 .nak2...W..     
```

#### Opcodes

```
  0: 0x057C [0x32] ExtData[1]->MainSpeed = 15* * 0.1
  1: 0x057F [0x1F] MOVE_ENTITY: EventEntity moves to X=-661.760*, Z=21.841*, Y=-27.713*
  2: 0x0587 [0x1F] MOVE_ENTITY: Update entity position (mode=1)
  3: 0x0589 [0x1C] WAIT(60* ticks)
  4: 0x058C [0x1E] EventEntity looks at LocalPlayer and starts talking
  5: 0x0591 [0x1C] WAIT(30* ticks)
  6: 0x0594 [0x5B] LOAD_EXT_SCHEDULER: Load scheduler "nak0" with entities [Unnamed NPC (ID: 17719577/0x010E6119), Unnamed NPC (ID: 17719577/0x010E6119)], work=223*
  7: 0x05A3 [0x1C] WAIT(10* ticks)
  8: 0x05A6 [0x45] LOAD_SCHEDULED_TASK: Load scheduler "nak2" with entities [LocalPlayer, LocalPlayer], work=[144*, 0*]
  9: 0x05B7 [0x1C] WAIT(90* ticks)
 10: 0x05BA [0x00] END_REQSTACK()
```

### Event 65535.31

#### Metadata

| Field        | Value    |
|--------------|----------|
| Entrypoint   | 0x05BB   |
| Data Size    | 53 bytes |
| Instructions | 9        |

```
      00 01 02 03 04 05 06 07  08 09 0A 0B 0C 0D 0E 0F
      -- -- -- -- -- -- -- --  -- -- -- -- -- -- -- --
05B0:                                   32 13 80 1F 00             2....
05C0: 67 80 68 80 69 80 1F 01  1C 17 80 5B 18 80 19 61  g.h.i......[...a
05D0: 0E 01 19 61 0E 01 6A 6F  79 30 1C 65 80 5B 19 80  ...a..joy0.e.[..
05E0: 19 61 0E 01 19 61 0E 01  31 30 31 31 1C 09 80 00  .a...a..1011....
```

#### Opcodes

```
  0: 0x05BB [0x32] ExtData[1]->MainSpeed = 15* * 0.1
  1: 0x05BE [0x1F] MOVE_ENTITY: EventEntity moves to X=-664.710*, Z=21.128*, Y=-27.745*
  2: 0x05C6 [0x1F] MOVE_ENTITY: Update entity position (mode=1)
  3: 0x05C8 [0x1C] WAIT(30* ticks)
  4: 0x05CB [0x5B] LOAD_EXT_SCHEDULER: Load scheduler "joy0" with entities [Unnamed NPC (ID: 17719577/0x010E6119), Unnamed NPC (ID: 17719577/0x010E6119)], work=222*
  5: 0x05DA [0x1C] WAIT(10* ticks)
  6: 0x05DD [0x5B] LOAD_EXT_SCHEDULER: Load scheduler "1011" with entities [Unnamed NPC (ID: 17719577/0x010E6119), Unnamed NPC (ID: 17719577/0x010E6119)], work=224*
  7: 0x05EC [0x1C] WAIT(60* ticks)
  8: 0x05EF [0x00] END_REQSTACK()
```

### Event 65535.32

#### Metadata

| Field        | Value    |
|--------------|----------|
| Entrypoint   | 0x05F0   |
| Data Size    | 15 bytes |
| Instructions | 3        |

```
      00 01 02 03 04 05 06 07  08 09 0A 0B 0C 0D 0E 0F
      -- -- -- -- -- -- -- --  -- -- -- -- -- -- -- --
05F0: 37 6A 80 6B 80 6C 80 6D  80 80 F8 FF FF 7F 00     7j.k.l.m....... 
```

#### Opcodes

```
  0: 0x05F0 [0x37] UPDATE_EVENT_POSITION_AND_DIR: x=553.031*, z=-424.731*, y=40.433*, direction=355.8°*
  1: 0x05F9 [0x80] LOAD_WAIT(entity=EventEntity)
  2: 0x05FE [0x00] END_REQSTACK()
```

### Event 65535.33

#### Metadata

| Field        | Value    |
|--------------|----------|
| Entrypoint   | 0x05FF   |
| Data Size    | 63 bytes |
| Instructions | 11       |

```
      00 01 02 03 04 05 06 07  08 09 0A 0B 0C 0D 0E 0F
      -- -- -- -- -- -- -- --  -- -- -- -- -- -- -- --
05F0:                                               32                 2
0600: 13 80 1F 00 6E 80 6F 80  70 80 1F 01 1C 09 80 1E  ....n.o.p.......
0610: F0 FF FF 7F 1C 17 80 5B  0A 80 19 61 0E 01 19 61  .......[...a...a
0620: 0E 01 6E 61 6B 30 1C 65  80 45 66 80 F0 FF FF 7F  ..nak0.e.Ef.....
0630: F0 FF FF 7F 6E 61 6B 32  04 80 1C 57 80 00        ....nak2...W..  
```

#### Opcodes

```
  0: 0x05FF [0x32] ExtData[1]->MainSpeed = 15* * 0.1
  1: 0x0602 [0x1F] MOVE_ENTITY: EventEntity moves to X=563.055*, Z=-424.056*, Y=41.176*
  2: 0x060A [0x1F] MOVE_ENTITY: Update entity position (mode=1)
  3: 0x060C [0x1C] WAIT(60* ticks)
  4: 0x060F [0x1E] EventEntity looks at LocalPlayer and starts talking
  5: 0x0614 [0x1C] WAIT(30* ticks)
  6: 0x0617 [0x5B] LOAD_EXT_SCHEDULER: Load scheduler "nak0" with entities [Unnamed NPC (ID: 17719577/0x010E6119), Unnamed NPC (ID: 17719577/0x010E6119)], work=223*
  7: 0x0626 [0x1C] WAIT(10* ticks)
  8: 0x0629 [0x45] LOAD_SCHEDULED_TASK: Load scheduler "nak2" with entities [LocalPlayer, LocalPlayer], work=[144*, 0*]
  9: 0x063A [0x1C] WAIT(90* ticks)
 10: 0x063D [0x00] END_REQSTACK()
```

### Event 65535.34

#### Metadata

| Field        | Value    |
|--------------|----------|
| Entrypoint   | 0x063E   |
| Data Size    | 15 bytes |
| Instructions | 3        |

```
      00 01 02 03 04 05 06 07  08 09 0A 0B 0C 0D 0E 0F
      -- -- -- -- -- -- -- --  -- -- -- -- -- -- -- --
0630:                                            37 71                7q
0640: 80 72 80 73 80 74 80 80  F8 FF FF 7F 00           .r.s.t.......   
```

#### Opcodes

```
  0: 0x063E [0x37] UPDATE_EVENT_POSITION_AND_DIR: x=173.215*, z=19.200*, y=4.499*, direction=9.2°*
  1: 0x0647 [0x80] LOAD_WAIT(entity=EventEntity)
  2: 0x064C [0x00] END_REQSTACK()
```

### Event 65535.35

#### Metadata

| Field        | Value    |
|--------------|----------|
| Entrypoint   | 0x064D   |
| Data Size    | 73 bytes |
| Instructions | 13       |

```
      00 01 02 03 04 05 06 07  08 09 0A 0B 0C 0D 0E 0F
      -- -- -- -- -- -- -- --  -- -- -- -- -- -- -- --
0640:                                         32 13 80               2..
0650: 1F 00 75 80 76 80 77 80  1F 01 1C 09 80 4B 19 61  ..u.v.w......K.a
0660: 0E 01 78 80 1C 09 80 1E  F0 FF FF 7F 1C 17 80 5B  ..x............[
0670: 0A 80 19 61 0E 01 19 61  0E 01 6E 61 6B 30 1C 65  ...a...a..nak0.e
0680: 80 45 66 80 F0 FF FF 7F  F0 FF FF 7F 6E 61 6B 32  .Ef.........nak2
0690: 04 80 1C 57 80 00                                 ...W..          
```

#### Opcodes

```
  0: 0x064D [0x32] ExtData[1]->MainSpeed = 15* * 0.1
  1: 0x0650 [0x1F] MOVE_ENTITY: EventEntity moves to X=180.710*, Z=18.978*, Y=3.343*
  2: 0x0658 [0x1F] MOVE_ENTITY: Update entity position (mode=1)
  3: 0x065A [0x1C] WAIT(60* ticks)
  4: 0x065D [0x4B] UPDATE_ENTITY_YAW(entity=Unnamed NPC (ID: 17719577/0x010E6119), yaw=6.5°*)
  5: 0x0664 [0x1C] WAIT(60* ticks)
  6: 0x0667 [0x1E] EventEntity looks at LocalPlayer and starts talking
  7: 0x066C [0x1C] WAIT(30* ticks)
  8: 0x066F [0x5B] LOAD_EXT_SCHEDULER: Load scheduler "nak0" with entities [Unnamed NPC (ID: 17719577/0x010E6119), Unnamed NPC (ID: 17719577/0x010E6119)], work=223*
  9: 0x067E [0x1C] WAIT(10* ticks)
 10: 0x0681 [0x45] LOAD_SCHEDULED_TASK: Load scheduler "nak2" with entities [LocalPlayer, LocalPlayer], work=[144*, 0*]
 11: 0x0692 [0x1C] WAIT(90* ticks)
 12: 0x0695 [0x00] END_REQSTACK()
```

### Event 65535.36

#### Metadata

| Field        | Value    |
|--------------|----------|
| Entrypoint   | 0x0696   |
| Data Size    | 15 bytes |
| Instructions | 3        |

```
      00 01 02 03 04 05 06 07  08 09 0A 0B 0C 0D 0E 0F
      -- -- -- -- -- -- -- --  -- -- -- -- -- -- -- --
0690:                   37 79  80 7A 80 7B 80 7C 80 80        7y.z.{.|..
06A0: F8 FF FF 7F 00                                    .....           
```

#### Opcodes

```
  0: 0x0696 [0x37] UPDATE_EVENT_POSITION_AND_DIR: x=-173.936*, z=261.711*, y=-58.243*, direction=180.4°*
  1: 0x069F [0x80] LOAD_WAIT(entity=EventEntity)
  2: 0x06A4 [0x00] END_REQSTACK()
```

### Event 65535.37

#### Metadata

| Field        | Value      |
|--------------|------------|
| Entrypoint   | 0x06A5     |
| Data Size    | 1195 bytes |
| Instructions | 202        |

```
      00 01 02 03 04 05 06 07  08 09 0A 0B 0C 0D 0E 0F
      -- -- -- -- -- -- -- --  -- -- -- -- -- -- -- --
06A0:                32 1E 80  1F 00 7D 80 7E 80 7F 80       2....}.~...
06B0: 1F 01 02 4C 10 04 80 80  C0 06 1C 39 80 01 EA 06  ...L.......9....
06C0: 02 4C 10 80 80 80 CE 06  1C 65 80 01 EA 06 02 4C  .L.......e.....L
06D0: 10 81 80 80 DC 06 1C 39  80 01 EA 06 02 4C 10 82  .......9.....L..
06E0: 80 80 EA 06 1C 39 80 01  EA 06 52 83 80 F8 FF FF  .....9....R.....
06F0: 7F F8 FF FF 7F 73 31 32  39 45 83 80 F8 FF FF 7F  .....s129E......
0700: F8 FF FF 7F 73 31 33 30  04 80 1F 00 84 80 85 80  ....s130........
0710: 86 80 1F 01 02 4C 10 04  80 80 22 07 1C 39 80 01  .....L...."..9..
0720: 4C 07 02 4C 10 80 80 80  30 07 1C 65 80 01 4C 07  L..L....0..e..L.
0730: 02 4C 10 81 80 80 3E 07  1C 39 80 01 4C 07 02 4C  .L....>..9..L..L
0740: 10 82 80 80 4C 07 1C 39  80 01 4C 07 1F 00 87 80  ....L..9..L.....
0750: 88 80 89 80 1F 01 02 4C  10 04 80 80 64 07 1C 39  .......L....d..9
0760: 80 01 8E 07 02 4C 10 80  80 80 72 07 1C 65 80 01  .....L....r..e..
0770: 8E 07 02 4C 10 81 80 80  80 07 1C 39 80 01 8E 07  ...L.......9....
0780: 02 4C 10 82 80 80 8E 07  1C 39 80 01 8E 07 52 83  .L.......9....R.
0790: 80 F8 FF FF 7F F8 FF FF  7F 73 31 33 30 45 83 80  .........s130E..
07A0: F8 FF FF 7F F8 FF FF 7F  73 31 33 31 04 80 1F 00  ........s131....
07B0: 8A 80 8B 80 8C 80 1F 01  02 4C 10 04 80 80 C6 07  .........L......
07C0: 1C 39 80 01 F0 07 02 4C  10 80 80 80 D4 07 1C 65  .9.....L.......e
07D0: 80 01 F0 07 02 4C 10 81  80 80 E2 07 1C 39 80 01  .....L.......9..
07E0: F0 07 02 4C 10 82 80 80  F0 07 1C 39 80 01 F0 07  ...L.......9....
07F0: 1F 00 8D 80 8E 80 8F 80  1F 01 02 4C 10 04 80 80  ...........L....
0800: 08 08 1C 39 80 01 32 08  02 4C 10 80 80 80 16 08  ...9..2..L......
0810: 1C 65 80 01 32 08 02 4C  10 81 80 80 24 08 1C 39  .e..2..L....$..9
0820: 80 01 32 08 02 4C 10 82  80 80 32 08 1C 39 80 01  ..2..L....2..9..
0830: 32 08 52 83 80 F8 FF FF  7F F8 FF FF 7F 73 31 33  2.R..........s13
0840: 31 45 83 80 F8 FF FF 7F  F8 FF FF 7F 73 31 33 32  1E..........s132
0850: 04 80 1F 00 90 80 91 80  92 80 1F 01 02 4C 10 04  .............L..
0860: 80 80 6A 08 1C 39 80 01  94 08 02 4C 10 80 80 80  ..j..9.....L....
0870: 78 08 1C 65 80 01 94 08  02 4C 10 81 80 80 86 08  x..e.....L......
0880: 1C 39 80 01 94 08 02 4C  10 82 80 80 94 08 1C 39  .9.....L.......9
0890: 80 01 94 08 1F 00 93 80  94 80 95 80 1F 01 02 4C  ...............L
08A0: 10 04 80 80 AC 08 1C 39  80 01 D6 08 02 4C 10 80  .......9.....L..
08B0: 80 80 BA 08 1C 65 80 01  D6 08 02 4C 10 81 80 80  .....e.....L....
08C0: C8 08 1C 39 80 01 D6 08  02 4C 10 82 80 80 D6 08  ...9.....L......
08D0: 1C 39 80 01 D6 08 52 83  80 F8 FF FF 7F F8 FF FF  .9....R.........
08E0: 7F 73 31 33 32 45 83 80  F8 FF FF 7F F8 FF FF 7F  .s132E..........
08F0: 73 31 33 33 04 80 1F 00  96 80 97 80 98 80 1F 01  s133............
0900: 02 4C 10 04 80 80 0E 09  1C 39 80 01 38 09 02 4C  .L.......9..8..L
0910: 10 80 80 80 1C 09 1C 65  80 01 38 09 02 4C 10 81  .......e..8..L..
0920: 80 80 2A 09 1C 39 80 01  38 09 02 4C 10 82 80 80  ..*..9..8..L....
0930: 38 09 1C 39 80 01 38 09  1F 00 99 80 9A 80 9B 80  8..9..8.........
0940: 1F 01 02 4C 10 04 80 80  50 09 1C 39 80 01 7A 09  ...L....P..9..z.
0950: 02 4C 10 80 80 80 5E 09  1C 65 80 01 7A 09 02 4C  .L....^..e..z..L
0960: 10 81 80 80 6C 09 1C 39  80 01 7A 09 02 4C 10 82  ....l..9..z..L..
0970: 80 80 7A 09 1C 39 80 01  7A 09 52 83 80 F8 FF FF  ..z..9..z.R.....
0980: 7F F8 FF FF 7F 73 31 33  33 45 83 80 F8 FF FF 7F  .....s133E......
0990: F8 FF FF 7F 73 31 33 34  04 80 1F 00 9C 80 9D 80  ....s134........
09A0: 9E 80 1F 01 02 4C 10 81  80 00 AF 09 1C 39 80 1F  .....L.......9..
09B0: 00 99 80 9A 80 9B 80 1F  01 02 4C 10 81 80 00 C4  ..........L.....
09C0: 09 1C 39 80 1F 00 96 80  97 80 98 80 1F 01 02 4C  ..9............L
09D0: 10 81 80 00 D9 09 1C 39  80 52 83 80 F8 FF FF 7F  .......9.R......
09E0: F8 FF FF 7F 73 31 33 34  45 83 80 F8 FF FF 7F F8  ....s134E.......
09F0: FF FF 7F 73 31 33 35 04  80 1F 00 93 80 94 80 95  ...s135.........
0A00: 80 1F 01 02 4C 10 81 80  00 0E 0A 1C 39 80 1F 00  ....L.......9...
0A10: 90 80 91 80 92 80 1F 01  02 4C 10 81 80 00 23 0A  .........L....#.
0A20: 1C 39 80 1F 00 8D 80 8E  80 8F 80 1F 01 02 4C 10  .9............L.
0A30: 81 80 00 38 0A 1C 39 80  52 83 80 F8 FF FF 7F F8  ...8..9.R.......
0A40: FF FF 7F 73 31 33 35 45  83 80 F8 FF FF 7F F8 FF  ...s135E........
0A50: FF 7F 73 31 33 36 04 80  1F 00 8A 80 8B 80 8C 80  ..s136..........
0A60: 1F 01 02 4C 10 81 80 00  6D 0A 1C 39 80 1F 00 87  ...L....m..9....
0A70: 80 88 80 89 80 1F 01 02  4C 10 81 80 00 82 0A 1C  ........L.......
0A80: 39 80 1F 00 84 80 85 80  86 80 1F 01 02 4C 10 81  9............L..
0A90: 80 00 97 0A 1C 39 80 52  83 80 F8 FF FF 7F F8 FF  .....9.R........
0AA0: FF 7F 73 31 33 36 45 83  80 F8 FF FF 7F F8 FF FF  ..s136E.........
0AB0: 7F 73 31 33 37 04 80 4A  F0 FF FF 7F 19 61 0E 01  .s137..J.....a..
0AC0: 4A 2D 61 0E 01 1A 61 0E  01 4A 2B 61 0E 01 1A 61  J-a...a..J+a...a
0AD0: 0E 01 4A 2C 61 0E 01 1A  61 0E 01 1F 00 9F 80 A0  ..J,a...a.......
0AE0: 80 A1 80 1F 01 02 4C 10  81 80 00 F0 0A 1C 39 80  ......L.......9.
0AF0: 1F 00 A2 80 A3 80 A4 80  1F 01 02 4C 10 81 80 00  ...........L....
0B00: 05 0B 1C 39 80 1F 00 A5  80 A6 80 A7 80 1F 01 02  ...9............
0B10: 4C 10 81 80 00 1A 0B 1C  39 80 52 83 80 F8 FF FF  L.......9.R.....
0B20: 7F F8 FF FF 7F 73 31 33  37 45 83 80 F8 FF FF 7F  .....s137E......
0B30: F8 FF FF 7F 73 31 33 38  04 80 1F 00 79 80 7A 80  ....s138....y.z.
0B40: 7B 80 1F 01 02 4C 10 81  80 00 4F 0B 1C 39 80 00  {....L....O..9..
```

#### Opcodes

```
  0: 0x06A5 [0x32] ExtData[1]->MainSpeed = 70* * 0.1
  1: 0x06A8 [0x1F] MOVE_ENTITY: EventEntity moves to X=-216.089*, Z=263.206*, Y=-52.327*
  2: 0x06B0 [0x1F] MOVE_ENTITY: Update entity position (mode=1)
  3: 0x06B2 [0x02] IF !(Work_Zone[76] == 0*) GOTO 0x06C0
  4: 0x06BA [0x1C] WAIT(5* ticks)
  5: 0x06BD [0x01] GOTO 0x06EA
  6: 0x06C0 [0x02] IF !(Work_Zone[76] == 1*) GOTO 0x06CE
  7: 0x06C8 [0x1C] WAIT(10* ticks)
  8: 0x06CB [0x01] GOTO 0x06EA
  9: 0x06CE [0x02] IF !(Work_Zone[76] == 2*) GOTO 0x06DC
 10: 0x06D6 [0x1C] WAIT(5* ticks)
 11: 0x06D9 [0x01] GOTO 0x06EA
 12: 0x06DC [0x02] IF !(Work_Zone[76] == 3*) GOTO 0x06EA
 13: 0x06E4 [0x1C] WAIT(5* ticks)
 14: 0x06E7 [0x01] GOTO 0x06EA

SUBROUTINE_06EA:
 15: 0x06EA [0x52] END_LOAD_SCHEDULER: End scheduler "s129" with entities [EventEntity, EventEntity], work=253*
 16: 0x06F9 [0x45] LOAD_SCHEDULED_TASK: Load scheduler "s130" with entities [EventEntity, EventEntity], work=[253*, 0*]
 17: 0x070A [0x1F] MOVE_ENTITY: EventEntity moves to X=-256.645*, Z=254.241*, Y=-45.434*
 18: 0x0712 [0x1F] MOVE_ENTITY: Update entity position (mode=1)
 19: 0x0714 [0x02] IF !(Work_Zone[76] == 0*) GOTO 0x0722
 20: 0x071C [0x1C] WAIT(5* ticks)
 21: 0x071F [0x01] GOTO 0x074C
 22: 0x0722 [0x02] IF !(Work_Zone[76] == 1*) GOTO 0x0730
 23: 0x072A [0x1C] WAIT(10* ticks)
 24: 0x072D [0x01] GOTO 0x074C
 25: 0x0730 [0x02] IF !(Work_Zone[76] == 2*) GOTO 0x073E
 26: 0x0738 [0x1C] WAIT(5* ticks)
 27: 0x073B [0x01] GOTO 0x074C
 28: 0x073E [0x02] IF !(Work_Zone[76] == 3*) GOTO 0x074C
 29: 0x0746 [0x1C] WAIT(5* ticks)
 30: 0x0749 [0x01] GOTO 0x074C

SUBROUTINE_074C:
 31: 0x074C [0x1F] MOVE_ENTITY: EventEntity moves to X=-267.732*, Z=227.602*, Y=-45.008*
 32: 0x0754 [0x1F] MOVE_ENTITY: Update entity position (mode=1)
 33: 0x0756 [0x02] IF !(Work_Zone[76] == 0*) GOTO 0x0764
 34: 0x075E [0x1C] WAIT(5* ticks)
 35: 0x0761 [0x01] GOTO 0x078E
 36: 0x0764 [0x02] IF !(Work_Zone[76] == 1*) GOTO 0x0772
 37: 0x076C [0x1C] WAIT(10* ticks)
 38: 0x076F [0x01] GOTO 0x078E
 39: 0x0772 [0x02] IF !(Work_Zone[76] == 2*) GOTO 0x0780
 40: 0x077A [0x1C] WAIT(5* ticks)
 41: 0x077D [0x01] GOTO 0x078E
 42: 0x0780 [0x02] IF !(Work_Zone[76] == 3*) GOTO 0x078E
 43: 0x0788 [0x1C] WAIT(5* ticks)
 44: 0x078B [0x01] GOTO 0x078E

SUBROUTINE_078E:
 45: 0x078E [0x52] END_LOAD_SCHEDULER: End scheduler "s130" with entities [EventEntity, EventEntity], work=253*
 46: 0x079D [0x45] LOAD_SCHEDULED_TASK: Load scheduler "s131" with entities [EventEntity, EventEntity], work=[253*, 0*]
 47: 0x07AE [0x1F] MOVE_ENTITY: EventEntity moves to X=-297.227*, Z=214.578*, Y=-45.612*
 48: 0x07B6 [0x1F] MOVE_ENTITY: Update entity position (mode=1)
 49: 0x07B8 [0x02] IF !(Work_Zone[76] == 0*) GOTO 0x07C6
 50: 0x07C0 [0x1C] WAIT(5* ticks)
 51: 0x07C3 [0x01] GOTO 0x07F0
 52: 0x07C6 [0x02] IF !(Work_Zone[76] == 1*) GOTO 0x07D4
 53: 0x07CE [0x1C] WAIT(10* ticks)
 54: 0x07D1 [0x01] GOTO 0x07F0
 55: 0x07D4 [0x02] IF !(Work_Zone[76] == 2*) GOTO 0x07E2
 56: 0x07DC [0x1C] WAIT(5* ticks)
 57: 0x07DF [0x01] GOTO 0x07F0
 58: 0x07E2 [0x02] IF !(Work_Zone[76] == 3*) GOTO 0x07F0
 59: 0x07EA [0x1C] WAIT(5* ticks)
 60: 0x07ED [0x01] GOTO 0x07F0

SUBROUTINE_07F0:
 61: 0x07F0 [0x1F] MOVE_ENTITY: EventEntity moves to X=-305.084*, Z=180.357*, Y=-41.677*
 62: 0x07F8 [0x1F] MOVE_ENTITY: Update entity position (mode=1)
 63: 0x07FA [0x02] IF !(Work_Zone[76] == 0*) GOTO 0x0808
 64: 0x0802 [0x1C] WAIT(5* ticks)
 65: 0x0805 [0x01] GOTO 0x0832
 66: 0x0808 [0x02] IF !(Work_Zone[76] == 1*) GOTO 0x0816
 67: 0x0810 [0x1C] WAIT(10* ticks)
 68: 0x0813 [0x01] GOTO 0x0832
 69: 0x0816 [0x02] IF !(Work_Zone[76] == 2*) GOTO 0x0824
 70: 0x081E [0x1C] WAIT(5* ticks)
 71: 0x0821 [0x01] GOTO 0x0832
 72: 0x0824 [0x02] IF !(Work_Zone[76] == 3*) GOTO 0x0832
 73: 0x082C [0x1C] WAIT(5* ticks)
 74: 0x082F [0x01] GOTO 0x0832

SUBROUTINE_0832:
 75: 0x0832 [0x52] END_LOAD_SCHEDULER: End scheduler "s131" with entities [EventEntity, EventEntity], work=253*
 76: 0x0841 [0x45] LOAD_SCHEDULED_TASK: Load scheduler "s132" with entities [EventEntity, EventEntity], work=[253*, 0*]
 77: 0x0852 [0x1F] MOVE_ENTITY: EventEntity moves to X=-299.634*, Z=165.619*, Y=-36.512*
 78: 0x085A [0x1F] MOVE_ENTITY: Update entity position (mode=1)
 79: 0x085C [0x02] IF !(Work_Zone[76] == 0*) GOTO 0x086A
 80: 0x0864 [0x1C] WAIT(5* ticks)
 81: 0x0867 [0x01] GOTO 0x0894
 82: 0x086A [0x02] IF !(Work_Zone[76] == 1*) GOTO 0x0878
 83: 0x0872 [0x1C] WAIT(10* ticks)
 84: 0x0875 [0x01] GOTO 0x0894
 85: 0x0878 [0x02] IF !(Work_Zone[76] == 2*) GOTO 0x0886
 86: 0x0880 [0x1C] WAIT(5* ticks)
 87: 0x0883 [0x01] GOTO 0x0894
 88: 0x0886 [0x02] IF !(Work_Zone[76] == 3*) GOTO 0x0894
 89: 0x088E [0x1C] WAIT(5* ticks)
 90: 0x0891 [0x01] GOTO 0x0894

SUBROUTINE_0894:
 91: 0x0894 [0x1F] MOVE_ENTITY: EventEntity moves to X=-304.240*, Z=149.455*, Y=-34.936*
 92: 0x089C [0x1F] MOVE_ENTITY: Update entity position (mode=1)
 93: 0x089E [0x02] IF !(Work_Zone[76] == 0*) GOTO 0x08AC
 94: 0x08A6 [0x1C] WAIT(5* ticks)
 95: 0x08A9 [0x01] GOTO 0x08D6
 96: 0x08AC [0x02] IF !(Work_Zone[76] == 1*) GOTO 0x08BA
 97: 0x08B4 [0x1C] WAIT(10* ticks)
 98: 0x08B7 [0x01] GOTO 0x08D6
 99: 0x08BA [0x02] IF !(Work_Zone[76] == 2*) GOTO 0x08C8
100: 0x08C2 [0x1C] WAIT(5* ticks)
101: 0x08C5 [0x01] GOTO 0x08D6
102: 0x08C8 [0x02] IF !(Work_Zone[76] == 3*) GOTO 0x08D6
103: 0x08D0 [0x1C] WAIT(5* ticks)
104: 0x08D3 [0x01] GOTO 0x08D6

SUBROUTINE_08D6:
105: 0x08D6 [0x52] END_LOAD_SCHEDULER: End scheduler "s132" with entities [EventEntity, EventEntity], work=253*
106: 0x08E5 [0x45] LOAD_SCHEDULED_TASK: Load scheduler "s133" with entities [EventEntity, EventEntity], work=[253*, 0*]
107: 0x08F6 [0x1F] MOVE_ENTITY: EventEntity moves to X=-317.460*, Z=141.449*, Y=-36.036*
108: 0x08FE [0x1F] MOVE_ENTITY: Update entity position (mode=1)
109: 0x0900 [0x02] IF !(Work_Zone[76] == 0*) GOTO 0x090E
110: 0x0908 [0x1C] WAIT(5* ticks)
111: 0x090B [0x01] GOTO 0x0938
112: 0x090E [0x02] IF !(Work_Zone[76] == 1*) GOTO 0x091C
113: 0x0916 [0x1C] WAIT(10* ticks)
114: 0x0919 [0x01] GOTO 0x0938
115: 0x091C [0x02] IF !(Work_Zone[76] == 2*) GOTO 0x092A
116: 0x0924 [0x1C] WAIT(5* ticks)
117: 0x0927 [0x01] GOTO 0x0938
118: 0x092A [0x02] IF !(Work_Zone[76] == 3*) GOTO 0x0938
119: 0x0932 [0x1C] WAIT(5* ticks)
120: 0x0935 [0x01] GOTO 0x0938

SUBROUTINE_0938:
121: 0x0938 [0x1F] MOVE_ENTITY: EventEntity moves to X=-354.538*, Z=142.275*, Y=-36.104*
122: 0x0940 [0x1F] MOVE_ENTITY: Update entity position (mode=1)
123: 0x0942 [0x02] IF !(Work_Zone[76] == 0*) GOTO 0x0950
124: 0x094A [0x1C] WAIT(5* ticks)
125: 0x094D [0x01] GOTO 0x097A
126: 0x0950 [0x02] IF !(Work_Zone[76] == 1*) GOTO 0x095E
127: 0x0958 [0x1C] WAIT(10* ticks)
128: 0x095B [0x01] GOTO 0x097A
129: 0x095E [0x02] IF !(Work_Zone[76] == 2*) GOTO 0x096C
130: 0x0966 [0x1C] WAIT(5* ticks)
131: 0x0969 [0x01] GOTO 0x097A
132: 0x096C [0x02] IF !(Work_Zone[76] == 3*) GOTO 0x097A
133: 0x0974 [0x1C] WAIT(5* ticks)
134: 0x0977 [0x01] GOTO 0x097A

SUBROUTINE_097A:
135: 0x097A [0x52] END_LOAD_SCHEDULER: End scheduler "s133" with entities [EventEntity, EventEntity], work=253*
136: 0x0989 [0x45] LOAD_SCHEDULED_TASK: Load scheduler "s134" with entities [EventEntity, EventEntity], work=[253*, 0*]
137: 0x099A [0x1F] MOVE_ENTITY: EventEntity moves to X=-380.792*, Z=140.260*, Y=-35.839*
138: 0x09A2 [0x1F] MOVE_ENTITY: Update entity position (mode=1)
139: 0x09A4 [0x02] IF !(Work_Zone[76] == 2*) GOTO 0x09AF
140: 0x09AC [0x1C] WAIT(5* ticks)
141: 0x09AF [0x1F] MOVE_ENTITY: EventEntity moves to X=-354.538*, Z=142.275*, Y=-36.104*
142: 0x09B7 [0x1F] MOVE_ENTITY: Update entity position (mode=1)
143: 0x09B9 [0x02] IF !(Work_Zone[76] == 2*) GOTO 0x09C4
144: 0x09C1 [0x1C] WAIT(5* ticks)
145: 0x09C4 [0x1F] MOVE_ENTITY: EventEntity moves to X=-317.460*, Z=141.449*, Y=-36.036*
146: 0x09CC [0x1F] MOVE_ENTITY: Update entity position (mode=1)
147: 0x09CE [0x02] IF !(Work_Zone[76] == 2*) GOTO 0x09D9
148: 0x09D6 [0x1C] WAIT(5* ticks)
149: 0x09D9 [0x52] END_LOAD_SCHEDULER: End scheduler "s134" with entities [EventEntity, EventEntity], work=253*
150: 0x09E8 [0x45] LOAD_SCHEDULED_TASK: Load scheduler "s135" with entities [EventEntity, EventEntity], work=[253*, 0*]
151: 0x09F9 [0x1F] MOVE_ENTITY: EventEntity moves to X=-304.240*, Z=149.455*, Y=-34.936*
152: 0x0A01 [0x1F] MOVE_ENTITY: Update entity position (mode=1)
153: 0x0A03 [0x02] IF !(Work_Zone[76] == 2*) GOTO 0x0A0E
154: 0x0A0B [0x1C] WAIT(5* ticks)
155: 0x0A0E [0x1F] MOVE_ENTITY: EventEntity moves to X=-299.634*, Z=165.619*, Y=-36.512*
156: 0x0A16 [0x1F] MOVE_ENTITY: Update entity position (mode=1)
157: 0x0A18 [0x02] IF !(Work_Zone[76] == 2*) GOTO 0x0A23
158: 0x0A20 [0x1C] WAIT(5* ticks)
159: 0x0A23 [0x1F] MOVE_ENTITY: EventEntity moves to X=-305.084*, Z=180.357*, Y=-41.677*
160: 0x0A2B [0x1F] MOVE_ENTITY: Update entity position (mode=1)
161: 0x0A2D [0x02] IF !(Work_Zone[76] == 2*) GOTO 0x0A38
162: 0x0A35 [0x1C] WAIT(5* ticks)
163: 0x0A38 [0x52] END_LOAD_SCHEDULER: End scheduler "s135" with entities [EventEntity, EventEntity], work=253*
164: 0x0A47 [0x45] LOAD_SCHEDULED_TASK: Load scheduler "s136" with entities [EventEntity, EventEntity], work=[253*, 0*]
165: 0x0A58 [0x1F] MOVE_ENTITY: EventEntity moves to X=-297.227*, Z=214.578*, Y=-45.612*
166: 0x0A60 [0x1F] MOVE_ENTITY: Update entity position (mode=1)
167: 0x0A62 [0x02] IF !(Work_Zone[76] == 2*) GOTO 0x0A6D
168: 0x0A6A [0x1C] WAIT(5* ticks)
169: 0x0A6D [0x1F] MOVE_ENTITY: EventEntity moves to X=-267.732*, Z=227.602*, Y=-45.008*
170: 0x0A75 [0x1F] MOVE_ENTITY: Update entity position (mode=1)
171: 0x0A77 [0x02] IF !(Work_Zone[76] == 2*) GOTO 0x0A82
172: 0x0A7F [0x1C] WAIT(5* ticks)
173: 0x0A82 [0x1F] MOVE_ENTITY: EventEntity moves to X=-256.645*, Z=254.241*, Y=-45.434*
174: 0x0A8A [0x1F] MOVE_ENTITY: Update entity position (mode=1)
175: 0x0A8C [0x02] IF !(Work_Zone[76] == 2*) GOTO 0x0A97
176: 0x0A94 [0x1C] WAIT(5* ticks)
177: 0x0A97 [0x52] END_LOAD_SCHEDULER: End scheduler "s136" with entities [EventEntity, EventEntity], work=253*
178: 0x0AA6 [0x45] LOAD_SCHEDULED_TASK: Load scheduler "s137" with entities [EventEntity, EventEntity], work=[253*, 0*]
179: 0x0AB7 [0x4A] LocalPlayer looks at Unnamed NPC (ID: 17719577/0x010E6119)
180: 0x0AC0 [0x4A] Wahboud (ID: 17719597/0x010E612D) looks at Unnamed NPC (ID: 17719578/0x010E611A)
181: 0x0AC9 [0x4A] Bashraf (ID: 17719595/0x010E612B) looks at Unnamed NPC (ID: 17719578/0x010E611A)
182: 0x0AD2 [0x4A] Foudeel (ID: 17719596/0x010E612C) looks at Unnamed NPC (ID: 17719578/0x010E611A)
183: 0x0ADB [0x1F] MOVE_ENTITY: EventEntity moves to X=-229.230*, Z=260.972*, Y=-47.564*
184: 0x0AE3 [0x1F] MOVE_ENTITY: Update entity position (mode=1)
185: 0x0AE5 [0x02] IF !(Work_Zone[76] == 2*) GOTO 0x0AF0
186: 0x0AED [0x1C] WAIT(5* ticks)
187: 0x0AF0 [0x1F] MOVE_ENTITY: EventEntity moves to X=-222.163*, Z=264.991*, Y=-50.821*
188: 0x0AF8 [0x1F] MOVE_ENTITY: Update entity position (mode=1)
189: 0x0AFA [0x02] IF !(Work_Zone[76] == 2*) GOTO 0x0B05
190: 0x0B02 [0x1C] WAIT(5* ticks)
191: 0x0B05 [0x1F] MOVE_ENTITY: EventEntity moves to X=-195.288*, Z=261.761*, Y=-56.249*
192: 0x0B0D [0x1F] MOVE_ENTITY: Update entity position (mode=1)
193: 0x0B0F [0x02] IF !(Work_Zone[76] == 2*) GOTO 0x0B1A
194: 0x0B17 [0x1C] WAIT(5* ticks)
195: 0x0B1A [0x52] END_LOAD_SCHEDULER: End scheduler "s137" with entities [EventEntity, EventEntity], work=253*
196: 0x0B29 [0x45] LOAD_SCHEDULED_TASK: Load scheduler "s138" with entities [EventEntity, EventEntity], work=[253*, 0*]
197: 0x0B3A [0x1F] MOVE_ENTITY: EventEntity moves to X=-173.936*, Z=261.711*, Y=-58.243*
198: 0x0B42 [0x1F] MOVE_ENTITY: Update entity position (mode=1)
199: 0x0B44 [0x02] IF !(Work_Zone[76] == 2*) GOTO 0x0B4F
200: 0x0B4C [0x1C] WAIT(5* ticks)
201: 0x0B4F [0x00] END_REQSTACK()
```

### Event 65535.38

#### Metadata

| Field        | Value    |
|--------------|----------|
| Entrypoint   | 0x0B50   |
| Data Size    | 33 bytes |
| Instructions | 9        |

```
      00 01 02 03 04 05 06 07  08 09 0A 0B 0C 0D 0E 0F
      -- -- -- -- -- -- -- --  -- -- -- -- -- -- -- --
0B50: 32 1E 80 1F 00 A8 80 A9  80 AA 80 1F 01 1C 39 80  2.............9.
0B60: 1E 14 61 0E 01 1C 09 80  1E F0 FF FF 7F 1C 17 80  ..a.............
0B70: 00                                                .               
```

#### Opcodes

```
  0: 0x0B50 [0x32] ExtData[1]->MainSpeed = 70* * 0.1
  1: 0x0B53 [0x1F] MOVE_ENTITY: EventEntity moves to X=-663.281*, Z=25.156*, Y=-28.217*
  2: 0x0B5B [0x1F] MOVE_ENTITY: Update entity position (mode=1)
  3: 0x0B5D [0x1C] WAIT(5* ticks)
  4: 0x0B60 [0x1E] EventEntity looks at Unnamed NPC (ID: 17719572/0x010E6114) and starts talking
  5: 0x0B65 [0x1C] WAIT(60* ticks)
  6: 0x0B68 [0x1E] EventEntity looks at LocalPlayer and starts talking
  7: 0x0B6D [0x1C] WAIT(30* ticks)
  8: 0x0B70 [0x00] END_REQSTACK()
```

### Event 65535.39

#### Metadata

| Field        | Value    |
|--------------|----------|
| Entrypoint   | 0x0B71   |
| Data Size    | 19 bytes |
| Instructions | 5        |

```
      00 01 02 03 04 05 06 07  08 09 0A 0B 0C 0D 0E 0F
      -- -- -- -- -- -- -- --  -- -- -- -- -- -- -- --
0B70:    32 1E 80 1F 00 AB 80  AC 80 AD 80 1F 01 1E 14   2..............
0B80: 61 0E 01 00                                       a...            
```

#### Opcodes

```
  0: 0x0B71 [0x32] ExtData[1]->MainSpeed = 70* * 0.1
  1: 0x0B74 [0x1F] MOVE_ENTITY: EventEntity moves to X=-666.829*, Z=30.658*, Y=-29.270*
  2: 0x0B7C [0x1F] MOVE_ENTITY: Update entity position (mode=1)
  3: 0x0B7E [0x1E] EventEntity looks at Unnamed NPC (ID: 17719572/0x010E6114) and starts talking
  4: 0x0B83 [0x00] END_REQSTACK()
```

### Event 65535.40

#### Metadata

| Field        | Value    |
|--------------|----------|
| Entrypoint   | 0x0B84   |
| Data Size    | 14 bytes |
| Instructions | 4        |

```
      00 01 02 03 04 05 06 07  08 09 0A 0B 0C 0D 0E 0F
      -- -- -- -- -- -- -- --  -- -- -- -- -- -- -- --
0B80:             32 13 80 1F  00 AE 80 AF 80 B0 80 1F      2...........
0B90: 01 00                                             ..              
```

#### Opcodes

```
  0: 0x0B84 [0x32] ExtData[1]->MainSpeed = 15* * 0.1
  1: 0x0B87 [0x1F] MOVE_ENTITY: EventEntity moves to X=-661.493*, Z=26.167*, Y=-28.662*
  2: 0x0B8F [0x1F] MOVE_ENTITY: Update entity position (mode=1)
  3: 0x0B91 [0x00] END_REQSTACK()
```

### Event 65535.41

#### Metadata

| Field        | Value    |
|--------------|----------|
| Entrypoint   | 0x0B92   |
| Data Size    | 14 bytes |
| Instructions | 4        |

```
      00 01 02 03 04 05 06 07  08 09 0A 0B 0C 0D 0E 0F
      -- -- -- -- -- -- -- --  -- -- -- -- -- -- -- --
0B90:       32 13 80 1F 00 B1  80 B2 80 B3 80 1F 01 00    2.............
```

#### Opcodes

```
  0: 0x0B92 [0x32] ExtData[1]->MainSpeed = 15* * 0.1
  1: 0x0B95 [0x1F] MOVE_ENTITY: EventEntity moves to X=-663.897*, Z=29.296*, Y=-29.151*
  2: 0x0B9D [0x1F] MOVE_ENTITY: Update entity position (mode=1)
  3: 0x0B9F [0x00] END_REQSTACK()
```

### Event 65535.42

#### Metadata

| Field        | Value    |
|--------------|----------|
| Entrypoint   | 0x0BA0   |
| Data Size    | 10 bytes |
| Instructions | 2        |

```
      00 01 02 03 04 05 06 07  08 09 0A 0B 0C 0D 0E 0F
      -- -- -- -- -- -- -- --  -- -- -- -- -- -- -- --
0BA0: 37 B4 80 B5 80 B6 80 B7  80 00                    7.........      
```

#### Opcodes

```
  0: 0x0BA0 [0x37] UPDATE_EVENT_POSITION_AND_DIR: x=-3.756*, z=-95.190*, y=0.650*, direction=93.6°*
  1: 0x0BA9 [0x00] END_REQSTACK()
```

### Event 65535.43

#### Metadata

| Field        | Value    |
|--------------|----------|
| Entrypoint   | 0x0BAA   |
| Data Size    | 19 bytes |
| Instructions | 5        |

```
      00 01 02 03 04 05 06 07  08 09 0A 0B 0C 0D 0E 0F
      -- -- -- -- -- -- -- --  -- -- -- -- -- -- -- --
0BA0:                                32 13 80 1F 00 B8            2.....
0BB0: 80 B9 80 BA 80 1F 01 1E  12 61 0E 01 00           .........a...   
```

#### Opcodes

```
  0: 0x0BAA [0x32] ExtData[1]->MainSpeed = 15* * 0.1
  1: 0x0BAD [0x1F] MOVE_ENTITY: EventEntity moves to X=-3.735*, Z=-100.174*, Y=-0.099*
  2: 0x0BB5 [0x1F] MOVE_ENTITY: Update entity position (mode=1)
  3: 0x0BB7 [0x1E] EventEntity looks at Hantileon (ID: 17719570/0x010E6112) and starts talking
  4: 0x0BBC [0x00] END_REQSTACK()
```

### Event 861

#### Metadata

| Field        | Value   |
|--------------|---------|
| Entrypoint   | 0x0BBD  |
| Data Size    | 1 bytes |
| Instructions | 1       |

```
      00 01 02 03 04 05 06 07  08 09 0A 0B 0C 0D 0E 0F
      -- -- -- -- -- -- -- --  -- -- -- -- -- -- -- --
0BB0:                                         00                     .  
```

#### Opcodes

```
  0: 0x0BBD [0x00] END_REQSTACK()
```

### Event 65535.44

#### Metadata

| Field        | Value    |
|--------------|----------|
| Entrypoint   | 0x0BBE   |
| Data Size    | 15 bytes |
| Instructions | 3        |

```
      00 01 02 03 04 05 06 07  08 09 0A 0B 0C 0D 0E 0F
      -- -- -- -- -- -- -- --  -- -- -- -- -- -- -- --
0BB0:                                            37 BB                7.
0BC0: 80 BC 80 BD 80 BE 80 03  04 00 04 80 00           .............   
```

#### Opcodes

```
  0: 0x0BBE [0x37] UPDATE_EVENT_POSITION_AND_DIR: x=-607.234*, z=599.295*, y=0.160*, direction=33.1°*
  1: 0x0BC7 [0x03] ExtData[1]->WorkLocal[4] = 0*
  2: 0x0BCC [0x00] END_REQSTACK()
```

### Event 65535.45

#### Metadata

| Field        | Value    |
|--------------|----------|
| Entrypoint   | 0x0BCD   |
| Data Size    | 48 bytes |
| Instructions | 11       |

```
      00 01 02 03 04 05 06 07  08 09 0A 0B 0C 0D 0E 0F
      -- -- -- -- -- -- -- --  -- -- -- -- -- -- -- --
0BC0:                                         02 04 00               ...
0BD0: 80 80 01 FC 0B 32 13 80  1F 00 BF 80 C0 80 C1 80  .....2..........
0BE0: 1F 01 1C 09 80 1F 00 C2  80 C3 80 C4 80 1F 01 1F  ................
0BF0: 00 C5 80 C6 80 C7 80 1F  01 01 CD 0B 00           .............   
```

#### Opcodes

```
  0: 0x0BCD [0x02] IF !(ExtData[1]->WorkLocal[4] == 1*) GOTO 0x0BFC
  1: 0x0BD5 [0x32] ExtData[1]->MainSpeed = 15* * 0.1
  2: 0x0BD8 [0x1F] MOVE_ENTITY: EventEntity moves to X=-604.743*, Z=600.818*, Y=0.035*
  3: 0x0BE0 [0x1F] MOVE_ENTITY: Update entity position (mode=1)
  4: 0x0BE2 [0x1C] WAIT(60* ticks)
  5: 0x0BE5 [0x1F] MOVE_ENTITY: EventEntity moves to X=-608.317*, Z=600.631*, Y=0.214*
  6: 0x0BED [0x1F] MOVE_ENTITY: Update entity position (mode=1)
  7: 0x0BEF [0x1F] MOVE_ENTITY: EventEntity moves to X=-606.086*, Z=601.808*, Y=0.102*
  8: 0x0BF7 [0x1F] MOVE_ENTITY: Update entity position (mode=1)
  9: 0x0BF9 [0x01] GOTO 0x0BCD
 10: 0x0BFC [0x00] END_REQSTACK()
```

### Event 65535.46

#### Metadata

| Field        | Value   |
|--------------|---------|
| Entrypoint   | 0x0BFD  |
| Data Size    | 6 bytes |
| Instructions | 2       |

```
      00 01 02 03 04 05 06 07  08 09 0A 0B 0C 0D 0E 0F
      -- -- -- -- -- -- -- --  -- -- -- -- -- -- -- --
0BF0:                                         03 04 00               ...
0C00: 80 80 00                                          ...             
```

#### Opcodes

```
  0: 0x0BFD [0x03] ExtData[1]->WorkLocal[4] = 1*
  1: 0x0C02 [0x00] END_REQSTACK()
```

### Event 65535.47

#### Metadata

| Field        | Value   |
|--------------|---------|
| Entrypoint   | 0x0C03  |
| Data Size    | 6 bytes |
| Instructions | 2       |

```
      00 01 02 03 04 05 06 07  08 09 0A 0B 0C 0D 0E 0F
      -- -- -- -- -- -- -- --  -- -- -- -- -- -- -- --
0C00:          03 04 00 04 80  00                          ......       
```

#### Opcodes

```
  0: 0x0C03 [0x03] ExtData[1]->WorkLocal[4] = 0*
  1: 0x0C08 [0x00] END_REQSTACK()
```

### Event 65535.48

#### Metadata

| Field        | Value    |
|--------------|----------|
| Entrypoint   | 0x0C09   |
| Data Size    | 15 bytes |
| Instructions | 3        |

```
      00 01 02 03 04 05 06 07  08 09 0A 0B 0C 0D 0E 0F
      -- -- -- -- -- -- -- --  -- -- -- -- -- -- -- --
0C00:                             37 C8 80 C9 80 CA 80           7......
0C10: CB 80 80 F8 FF FF 7F 00                           ........        
```

#### Opcodes

```
  0: 0x0C09 [0x37] UPDATE_EVENT_POSITION_AND_DIR: x=-600.128*, z=585.578*, y=0.628*, direction=25.0°*
  1: 0x0C12 [0x80] LOAD_WAIT(entity=EventEntity)
  2: 0x0C17 [0x00] END_REQSTACK()
```

### Event 65535.49

#### Metadata

| Field        | Value    |
|--------------|----------|
| Entrypoint   | 0x0C18   |
| Data Size    | 15 bytes |
| Instructions | 3        |

```
      00 01 02 03 04 05 06 07  08 09 0A 0B 0C 0D 0E 0F
      -- -- -- -- -- -- -- --  -- -- -- -- -- -- -- --
0C10:                          37 CC 80 CD 80 CE 80 CB          7.......
0C20: 80 80 F8 FF FF 7F 00                              .......         
```

#### Opcodes

```
  0: 0x0C18 [0x37] UPDATE_EVENT_POSITION_AND_DIR: x=-602.007*, z=587.764*, y=0.268*, direction=25.0°*
  1: 0x0C21 [0x80] LOAD_WAIT(entity=EventEntity)
  2: 0x0C26 [0x00] END_REQSTACK()
```

### Event 65535.50

#### Metadata

| Field        | Value    |
|--------------|----------|
| Entrypoint   | 0x0C27   |
| Data Size    | 80 bytes |
| Instructions | 18       |

```
      00 01 02 03 04 05 06 07  08 09 0A 0B 0C 0D 0E 0F
      -- -- -- -- -- -- -- --  -- -- -- -- -- -- -- --
0C20:                      32  13 80 1F 00 CF 80 D0 80         2........
0C30: D1 80 1F 01 1F 00 D2 80  D3 80 D4 80 1F 01 1F 00  ................
0C40: D5 80 D6 80 D7 80 1F 01  1F 00 D8 80 D9 80 DA 80  ................
0C50: 1F 01 1C 17 80 4B 19 61  0E 01 DB 80 1C 0B 80 1F  .....K.a........
0C60: 00 CC 80 CD 80 CE 80 1F  01 1C 17 80 4B 19 61 0E  ............K.a.
0C70: 01 DC 80 1C 17 80 00                              .......         
```

#### Opcodes

```
  0: 0x0C27 [0x32] ExtData[1]->MainSpeed = 15* * 0.1
  1: 0x0C2A [0x1F] MOVE_ENTITY: EventEntity moves to X=-601.910*, Z=587.743*, Y=0.274*
  2: 0x0C32 [0x1F] MOVE_ENTITY: Update entity position (mode=1)
  3: 0x0C34 [0x1F] MOVE_ENTITY: EventEntity moves to X=-600.199*, Z=588.994*, Y=0.347*
  4: 0x0C3C [0x1F] MOVE_ENTITY: Update entity position (mode=1)
  5: 0x0C3E [0x1F] MOVE_ENTITY: EventEntity moves to X=-599.211*, Z=586.089*, Y=0.586*
  6: 0x0C46 [0x1F] MOVE_ENTITY: Update entity position (mode=1)
  7: 0x0C48 [0x1F] MOVE_ENTITY: EventEntity moves to X=-599.391*, Z=583.375*, Y=0.830*
  8: 0x0C50 [0x1F] MOVE_ENTITY: Update entity position (mode=1)
  9: 0x0C52 [0x1C] WAIT(30* ticks)
 10: 0x0C55 [0x4B] UPDATE_ENTITY_YAW(entity=Unnamed NPC (ID: 17719577/0x010E6119), yaw=17.4°*)
 11: 0x0C5C [0x1C] WAIT(120* ticks)
 12: 0x0C5F [0x1F] MOVE_ENTITY: EventEntity moves to X=-602.007*, Z=587.764*, Y=0.268*
 13: 0x0C67 [0x1F] MOVE_ENTITY: Update entity position (mode=1)
 14: 0x0C69 [0x1C] WAIT(30* ticks)
 15: 0x0C6C [0x4B] UPDATE_ENTITY_YAW(entity=Unnamed NPC (ID: 17719577/0x010E6119), yaw=1.9°*)
 16: 0x0C73 [0x1C] WAIT(30* ticks)
 17: 0x0C76 [0x00] END_REQSTACK()
```

### Event 65535.51

#### Metadata

| Field        | Value    |
|--------------|----------|
| Entrypoint   | 0x0C77   |
| Data Size    | 67 bytes |
| Instructions | 15       |

```
      00 01 02 03 04 05 06 07  08 09 0A 0B 0C 0D 0E 0F
      -- -- -- -- -- -- -- --  -- -- -- -- -- -- -- --
0C70:                      32  DD 80 1F 00 DE 80 DF 80         2........
0C80: E0 80 1F 01 4B 19 61 0E  01 E1 80 1C 09 80 1F 00  ....K.a.........
0C90: E2 80 E3 80 E4 80 1F 01  4B 19 61 0E 01 E5 80 1C  ........K.a.....
0CA0: E6 80 1F 00 E7 80 E8 80  E9 80 1F 01 1C 17 80 4B  ...............K
0CB0: 19 61 0E 01 EA 80 1C 09  80 00                    .a........      
```

#### Opcodes

```
  0: 0x0C77 [0x32] ExtData[1]->MainSpeed = 45* * 0.1
  1: 0x0C7A [0x1F] MOVE_ENTITY: EventEntity moves to X=-599.295*, Z=590.678*, Y=0.264*
  2: 0x0C82 [0x1F] MOVE_ENTITY: Update entity position (mode=1)
  3: 0x0C84 [0x4B] UPDATE_ENTITY_YAW(entity=Unnamed NPC (ID: 17719577/0x010E6119), yaw=5.3°*)
  4: 0x0C8B [0x1C] WAIT(60* ticks)
  5: 0x0C8E [0x1F] MOVE_ENTITY: EventEntity moves to X=-604.353*, Z=586.292*, Y=0.138*
  6: 0x0C96 [0x1F] MOVE_ENTITY: Update entity position (mode=1)
  7: 0x0C98 [0x4B] UPDATE_ENTITY_YAW(entity=Unnamed NPC (ID: 17719577/0x010E6119), yaw=0.2°*)
  8: 0x0C9F [0x1C] WAIT(240* ticks)
  9: 0x0CA2 [0x1F] MOVE_ENTITY: EventEntity moves to X=-600.328*, Z=582.410*, Y=0.802*
 10: 0x0CAA [0x1F] MOVE_ENTITY: Update entity position (mode=1)
 11: 0x0CAC [0x1C] WAIT(30* ticks)
 12: 0x0CAF [0x4B] UPDATE_ENTITY_YAW(entity=Unnamed NPC (ID: 17719577/0x010E6119), yaw=16.6°*)
 13: 0x0CB6 [0x1C] WAIT(60* ticks)
 14: 0x0CB9 [0x00] END_REQSTACK()
```

### Event 65535.52

#### Metadata

| Field        | Value    |
|--------------|----------|
| Entrypoint   | 0x0CBA   |
| Data Size    | 14 bytes |
| Instructions | 4        |

```
      00 01 02 03 04 05 06 07  08 09 0A 0B 0C 0D 0E 0F
      -- -- -- -- -- -- -- --  -- -- -- -- -- -- -- --
0CB0:                                32 DD 80 1F 00 EB            2.....
0CC0: 80 EC 80 ED 80 1F 01 00                           ........        
```

#### Opcodes

```
  0: 0x0CBA [0x32] ExtData[1]->MainSpeed = 45* * 0.1
  1: 0x0CBD [0x1F] MOVE_ENTITY: EventEntity moves to X=-601.434*, Z=588.428*, Y=0.312*
  2: 0x0CC5 [0x1F] MOVE_ENTITY: Update entity position (mode=1)
  3: 0x0CC7 [0x00] END_REQSTACK()
```

### Event 65535.53

#### Metadata

| Field        | Value    |
|--------------|----------|
| Entrypoint   | 0x0CC8   |
| Data Size    | 34 bytes |
| Instructions | 8        |

```
      00 01 02 03 04 05 06 07  08 09 0A 0B 0C 0D 0E 0F
      -- -- -- -- -- -- -- --  -- -- -- -- -- -- -- --
0CC0:                          32 DD 80 1F 00 EE 80 EF          2.......
0CD0: 80 F0 80 1F 01 1F 00 F1  80 F2 80 F3 80 1F 01 1F  ................
0CE0: 00 F4 80 F5 80 F6 80 1F  01 00                    ..........      
```

#### Opcodes

```
  0: 0x0CC8 [0x32] ExtData[1]->MainSpeed = 45* * 0.1
  1: 0x0CCB [0x1F] MOVE_ENTITY: EventEntity moves to X=-604.257*, Z=586.573*, Y=0.057*
  2: 0x0CD3 [0x1F] MOVE_ENTITY: Update entity position (mode=1)
  3: 0x0CD5 [0x1F] MOVE_ENTITY: EventEntity moves to X=-603.318*, Z=588.527*, Y=0.196*
  4: 0x0CDD [0x1F] MOVE_ENTITY: Update entity position (mode=1)
  5: 0x0CDF [0x1F] MOVE_ENTITY: EventEntity moves to X=-599.732*, Z=584.728*, Y=0.723*
  6: 0x0CE7 [0x1F] MOVE_ENTITY: Update entity position (mode=1)
  7: 0x0CE9 [0x00] END_REQSTACK()
```

### Event 65535.54

#### Metadata

| Field        | Value    |
|--------------|----------|
| Entrypoint   | 0x0CEA   |
| Data Size    | 14 bytes |
| Instructions | 4        |

```
      00 01 02 03 04 05 06 07  08 09 0A 0B 0C 0D 0E 0F
      -- -- -- -- -- -- -- --  -- -- -- -- -- -- -- --
0CE0:                                32 DD 80 1F 00 F7            2.....
0CF0: 80 F8 80 F9 80 1F 01 00                           ........        
```

#### Opcodes

```
  0: 0x0CEA [0x32] ExtData[1]->MainSpeed = 45* * 0.1
  1: 0x0CED [0x1F] MOVE_ENTITY: EventEntity moves to X=-605.671*, Z=583.776*, Y=-0.108*
  2: 0x0CF5 [0x1F] MOVE_ENTITY: Update entity position (mode=1)
  3: 0x0CF7 [0x00] END_REQSTACK()
```
