# 17719349 - Taumila

## Common Data

| Field            | Value                         |
|------------------|-------------------------------|
| Zone             | Southern San d'Oria (ID: 230) |
| Block Size       | 508 bytes                     |
| Total Events     | 6                             |
| References Count | 18                            |

## List of Events

| Event ID              | Entrypoint   |   Size |   Instructions |
|-----------------------|--------------|--------|----------------|
| [65535](#event-65535) | 0x0000       |      1 |              1 |
| [571](#event-571)     | 0x0001       |     36 |             10 |
| [574](#event-574)     | 0x0025       |    199 |             41 |
| [575](#event-575)     | 0x00EC       |     41 |             11 |
| [572](#event-572)     | 0x0115       |     70 |             18 |
| [573](#event-573)     | 0x015B       |     46 |             14 |

## DAT References (imed_data)

|   Index | Hex Value   |   Dec Value |
|---------|-------------|-------------|
|       0 | 0x0023      |          35 |
|       1 | 0x1F3B      |        7995 |
|       2 | 0x001E      |          30 |
|       3 | 0x1F33      |        7987 |
|       4 | 0x0374      |         884 |
|       5 | 0x1F34      |        7988 |
|       6 | 0x1F35      |        7989 |
|       7 | 0x1F36      |        7990 |
|       8 | 0x1FD0      |        8144 |
|       9 | 0x0000      |           0 |
|      10 | 0x1F37      |        7991 |
|      11 | 0x0001      |           1 |
|      12 | 0x1F38      |        7992 |
|      13 | 0x40000000  |  1073741824 |
|      14 | 0x1F39      |        7993 |
|      15 | 0x1F3A      |        7994 |
|      16 | 0x00C9      |         201 |
|      17 | 0x1F3C      |        7996 |

## String References

- **7987**: Dear, dear me. If only an adventurer would help me...
- **7988**: I received an order for votive talismans from the cathedral. But I have no $0 to make them!
- **7989**: Would you be so kind as to go to Jugner Forest and collect three fangs from forest tigers there?
- **7990**: Every three fangs you bring me, I can fill an order. It would mean a lot to me!
- **7991**: So you'll go, then? My thanks to you. Remember, Jugner Forest is teeming with forest tigers. They can be a little rough, so tread carefully!
- **7992**: Oh, so you won't go? Well, it could be dangerous, after all. But come back when you're ready to tromp on some tigers!
- **7993**: What? You forgot my request, did you? Three $0 from Jugner Forest! Forest tigers' fangs grow long, and there are plenty of tigers there.
- **7994**: Ah! Thank you, thank you. That's three $0... I'll buy the lot.
- **7995**: Bring me three more, and I'll be happy to take them. You just drop by and we'll do business, eh?
- **7996**: What's this, then? I need three $0 before I'll buy them off you. Store policy, you see.
- **8144**: Accept? [Yes./I'm sorry.]

## Events

### Event 65535

#### Metadata

| Field        | Value   |
|--------------|---------|
| Entrypoint   | 0x0000  |
| Data Size    | 1 bytes |
| Instructions | 1       |

```
      00 01 02 03 04 05 06 07  08 09 0A 0B 0C 0D 0E 0F
      -- -- -- -- -- -- -- --  -- -- -- -- -- -- -- --
0000: 00                                                .               
```

#### Opcodes

```
  0: 0x0000 [0x00] END_REQSTACK()
```

### Event 571

#### Metadata

| Field        | Value    |
|--------------|----------|
| Entrypoint   | 0x0001   |
| Data Size    | 36 bytes |
| Instructions | 10       |

```
      00 01 02 03 04 05 06 07  08 09 0A 0B 0C 0D 0E 0F
      -- -- -- -- -- -- -- --  -- -- -- -- -- -- -- --
0000:    1E F0 FF FF 7F 6F 70  5B 00 80 F8 FF FF 7F F8   .....op[.......
0010: FF FF 7F 74 6C 6B 30 1D  01 80 23 5E 69 64 6C 30  ...tlk0...#^idl0
0020: 1C 02 80 21 00                                    ...!.           
```

#### Opcodes

```
  0: 0x0001 [0x1E] EventEntity looks at LocalPlayer and starts talking
  1: 0x0006 [0x6F] WAIT_FRAME_DELAY: Yield until WaitTime reaches zero
  2: 0x0007 [0x70] WAIT_ENTITY_RENDER_FLAG: Wait while EventEntity->Render.Flags3 bit 2 is set (cancel turn if not)
  3: 0x0008 [0x5B] LOAD_EXT_SCHEDULER: Load scheduler "tlk0" with entities [EventEntity, EventEntity], work=35*
  4: 0x0017 [0x1D] PRINT_EVENT_MESSAGE(message_id=7995*)
    → "Bring me three more, and I'll be happy to take them. You just drop by and we'll do business, eh?"
  5: 0x001A [0x23] WAIT_FOR_DIALOG_INTERACTION
  6: 0x001B [0x5E] EventEntity goes idle (kills current action) (animation: "idl0")
  7: 0x0020 [0x1C] WAIT(30* ticks)
  8: 0x0023 [0x21] END_EVENT
  9: 0x0024 [0x00] END_REQSTACK()
```

### Event 574

#### Metadata

| Field        | Value     |
|--------------|-----------|
| Entrypoint   | 0x0025    |
| Data Size    | 199 bytes |
| Instructions | 41        |

```
      00 01 02 03 04 05 06 07  08 09 0A 0B 0C 0D 0E 0F
      -- -- -- -- -- -- -- --  -- -- -- -- -- -- -- --
0020:                5B 00 80  F8 FF FF 7F F8 FF FF 7F       [..........
0030: 74 68 6B 31 1D 03 80 23  1C 02 80 5B 00 80 F8 FF  thk1...#...[....
0040: FF 7F F8 FF FF 7F 74 68  6B 32 53 F8 FF FF 7F F8  ......thk2S.....
0050: FF FF 7F 74 68 6B 32 1C  02 80 1E F0 FF FF 7F 6F  ...thk2........o
0060: 70 5B 00 80 F8 FF FF 7F  F8 FF FF 7F 74 6C 6B 30  p[..........tlk0
0070: 03 02 10 04 80 1D 05 80  23 1C 02 80 1D 06 80 23  ........#......#
0080: 1C 02 80 1D 07 80 23 5E  69 64 6C 30 24 08 80 09  ......#^idl0$...
0090: 80 09 80 25 02 00 10 09  80 00 BF 00 5B 00 80 F8  ...%........[...
00A0: FF FF 7F F8 FF FF 7F 74  6C 6B 30 1D 0A 80 23 5E  .......tlk0...#^
00B0: 69 64 6C 30 1C 02 80 03  01 10 09 80 01 EA 00 02  idl0............
00C0: 00 10 0B 80 00 EA 00 5B  00 80 F8 FF FF 7F F8 FF  .......[........
00D0: FF 7F 74 6C 6B 30 1D 0C  80 23 5E 69 64 6C 30 1C  ..tlk0...#^idl0.
00E0: 02 80 03 01 10 0D 80 01  EA 00 21 00              ..........!.    
```

#### Opcodes

```
  0: 0x0025 [0x5B] LOAD_EXT_SCHEDULER: Load scheduler "thk1" with entities [EventEntity, EventEntity], work=35*
  1: 0x0034 [0x1D] PRINT_EVENT_MESSAGE(message_id=7987*)
    → "Dear, dear me. If only an adventurer would help me..."
  2: 0x0037 [0x23] WAIT_FOR_DIALOG_INTERACTION
  3: 0x0038 [0x1C] WAIT(30* ticks)
  4: 0x003B [0x5B] LOAD_EXT_SCHEDULER: Load scheduler "thk2" with entities [EventEntity, EventEntity], work=35*
  5: 0x004A [0x53] WAIT_SCHEDULER_TASK: Wait for scheduler "thk2" with entities [EventEntity, EventEntity]
  6: 0x0057 [0x1C] WAIT(30* ticks)
  7: 0x005A [0x1E] EventEntity looks at LocalPlayer and starts talking
  8: 0x005F [0x6F] WAIT_FRAME_DELAY: Yield until WaitTime reaches zero
  9: 0x0060 [0x70] WAIT_ENTITY_RENDER_FLAG: Wait while EventEntity->Render.Flags3 bit 2 is set (cancel turn if not)
 10: 0x0061 [0x5B] LOAD_EXT_SCHEDULER: Load scheduler "tlk0" with entities [EventEntity, EventEntity], work=35*
 11: 0x0070 [0x03] Work_Zone[2] = 884*
 12: 0x0075 [0x1D] PRINT_EVENT_MESSAGE(message_id=7988*)
    → "I received an order for votive talismans from the cathedral. But I have no $0 to make them!"
 13: 0x0078 [0x23] WAIT_FOR_DIALOG_INTERACTION
 14: 0x0079 [0x1C] WAIT(30* ticks)
 15: 0x007C [0x1D] PRINT_EVENT_MESSAGE(message_id=7989*)
    → "Would you be so kind as to go to Jugner Forest and collect three fangs from forest tigers there?"
 16: 0x007F [0x23] WAIT_FOR_DIALOG_INTERACTION
 17: 0x0080 [0x1C] WAIT(30* ticks)
 18: 0x0083 [0x1D] PRINT_EVENT_MESSAGE(message_id=7990*)
    → "Every three fangs you bring me, I can fill an order. It would mean a lot to me!"
 19: 0x0086 [0x23] WAIT_FOR_DIALOG_INTERACTION
 20: 0x0087 [0x5E] EventEntity goes idle (kills current action) (animation: "idl0")
 21: 0x008C [0x24] CREATE_DIALOG(message_id=8144*, default_option=0*, option_flags=0*)
    → "Accept? [Yes./I'm sorry.]"
 22: 0x0093 [0x25] WAIT_DIALOG_SELECT()
 23: 0x0094 [0x02] IF !(Work_Zone[0] == 0*) GOTO 0x00BF
 24: 0x009C [0x5B] LOAD_EXT_SCHEDULER: Load scheduler "tlk0" with entities [EventEntity, EventEntity], work=35*
 25: 0x00AB [0x1D] PRINT_EVENT_MESSAGE(message_id=7991*)
    → "So you'll go, then? My thanks to you. Remember, Jugner Forest is teeming with forest tigers. They can be a little rough, so tread carefully!"
 26: 0x00AE [0x23] WAIT_FOR_DIALOG_INTERACTION
 27: 0x00AF [0x5E] EventEntity goes idle (kills current action) (animation: "idl0")
 28: 0x00B4 [0x1C] WAIT(30* ticks)
 29: 0x00B7 [0x03] Work_Zone[1] = 0*
 30: 0x00BC [0x01] GOTO 0x00EA
 31: 0x00BF [0x02] IF !(Work_Zone[0] == 1*) GOTO 0x00EA
 32: 0x00C7 [0x5B] LOAD_EXT_SCHEDULER: Load scheduler "tlk0" with entities [EventEntity, EventEntity], work=35*
 33: 0x00D6 [0x1D] PRINT_EVENT_MESSAGE(message_id=7992*)
    → "Oh, so you won't go? Well, it could be dangerous, after all. But come back when you're ready to tromp on some tigers!"
 34: 0x00D9 [0x23] WAIT_FOR_DIALOG_INTERACTION
 35: 0x00DA [0x5E] EventEntity goes idle (kills current action) (animation: "idl0")
 36: 0x00DF [0x1C] WAIT(30* ticks)
 37: 0x00E2 [0x03] Work_Zone[1] = 1073741824*
 38: 0x00E7 [0x01] GOTO 0x00EA

SUBROUTINE_00EA:
 39: 0x00EA [0x21] END_EVENT
 40: 0x00EB [0x00] END_REQSTACK()
```

### Event 575

#### Metadata

| Field        | Value    |
|--------------|----------|
| Entrypoint   | 0x00EC   |
| Data Size    | 41 bytes |
| Instructions | 11       |

```
      00 01 02 03 04 05 06 07  08 09 0A 0B 0C 0D 0E 0F
      -- -- -- -- -- -- -- --  -- -- -- -- -- -- -- --
00E0:                                      1E F0 FF FF              ....
00F0: 7F 6F 70 5B 00 80 F8 FF  FF 7F F8 FF FF 7F 74 6C  .op[..........tl
0100: 6B 30 03 02 10 04 80 1D  0E 80 23 5E 69 64 6C 30  k0........#^idl0
0110: 1C 02 80 21 00                                    ...!.           
```

#### Opcodes

```
  0: 0x00EC [0x1E] EventEntity looks at LocalPlayer and starts talking
  1: 0x00F1 [0x6F] WAIT_FRAME_DELAY: Yield until WaitTime reaches zero
  2: 0x00F2 [0x70] WAIT_ENTITY_RENDER_FLAG: Wait while EventEntity->Render.Flags3 bit 2 is set (cancel turn if not)
  3: 0x00F3 [0x5B] LOAD_EXT_SCHEDULER: Load scheduler "tlk0" with entities [EventEntity, EventEntity], work=35*
  4: 0x0102 [0x03] Work_Zone[2] = 884*
  5: 0x0107 [0x1D] PRINT_EVENT_MESSAGE(message_id=7993*)
    → "What? You forgot my request, did you? Three $0 from Jugner Forest! Forest tigers' fangs grow long, and there are plenty of tigers there."
  6: 0x010A [0x23] WAIT_FOR_DIALOG_INTERACTION
  7: 0x010B [0x5E] EventEntity goes idle (kills current action) (animation: "idl0")
  8: 0x0110 [0x1C] WAIT(30* ticks)
  9: 0x0113 [0x21] END_EVENT
 10: 0x0114 [0x00] END_REQSTACK()
```

### Event 572

#### Metadata

| Field        | Value    |
|--------------|----------|
| Entrypoint   | 0x0115   |
| Data Size    | 70 bytes |
| Instructions | 18       |

```
      00 01 02 03 04 05 06 07  08 09 0A 0B 0C 0D 0E 0F
      -- -- -- -- -- -- -- --  -- -- -- -- -- -- -- --
0110:                42 20 01  1E F0 FF FF 7F 6F 70 5B       B ......op[
0120: 00 80 F8 FF FF 7F F8 FF  FF 7F 74 6C 6B 30 03 02  ..........tlk0..
0130: 10 04 80 1D 0F 80 23 1C  02 80 1D 01 80 23 5E 69  ......#......#^i
0140: 64 6C 30 45 10 80 F0 FF  FF 7F F0 FF FF 7F 71 73  dl0E..........qs
0150: 74 63 09 80 1C 02 80 20  00 21 00                 tc..... .!.     
```

#### Opcodes

```
  0: 0x0115 [0x42] SET_CLI_EVENT_CANCEL_DATA()
  1: 0x0116 [0x20] SET_CLI_EVENT_UC_FLAG: Lock player control
  2: 0x0118 [0x1E] EventEntity looks at LocalPlayer and starts talking
  3: 0x011D [0x6F] WAIT_FRAME_DELAY: Yield until WaitTime reaches zero
  4: 0x011E [0x70] WAIT_ENTITY_RENDER_FLAG: Wait while EventEntity->Render.Flags3 bit 2 is set (cancel turn if not)
  5: 0x011F [0x5B] LOAD_EXT_SCHEDULER: Load scheduler "tlk0" with entities [EventEntity, EventEntity], work=35*
  6: 0x012E [0x03] Work_Zone[2] = 884*
  7: 0x0133 [0x1D] PRINT_EVENT_MESSAGE(message_id=7994*)
    → "Ah! Thank you, thank you. That's three $0... I'll buy the lot."
  8: 0x0136 [0x23] WAIT_FOR_DIALOG_INTERACTION
  9: 0x0137 [0x1C] WAIT(30* ticks)
 10: 0x013A [0x1D] PRINT_EVENT_MESSAGE(message_id=7995*)
    → "Bring me three more, and I'll be happy to take them. You just drop by and we'll do business, eh?"
 11: 0x013D [0x23] WAIT_FOR_DIALOG_INTERACTION
 12: 0x013E [0x5E] EventEntity goes idle (kills current action) (animation: "idl0")
 13: 0x0143 [0x45] LOAD_SCHEDULED_TASK: Load scheduler "qstc" with entities [LocalPlayer, LocalPlayer], work=[201*, 0*]
 14: 0x0154 [0x1C] WAIT(30* ticks)
 15: 0x0157 [0x20] SET_CLI_EVENT_UC_FLAG: Unlock player control
 16: 0x0159 [0x21] END_EVENT
 17: 0x015A [0x00] END_REQSTACK()
```

### Event 573

#### Metadata

| Field        | Value    |
|--------------|----------|
| Entrypoint   | 0x015B   |
| Data Size    | 46 bytes |
| Instructions | 14       |

```
      00 01 02 03 04 05 06 07  08 09 0A 0B 0C 0D 0E 0F
      -- -- -- -- -- -- -- --  -- -- -- -- -- -- -- --
0150:                                   42 20 01 1E F0             B ...
0160: FF FF 7F 6F 70 5B 00 80  F8 FF FF 7F F8 FF FF 7F  ...op[..........
0170: 74 6C 6B 30 03 02 10 04  80 1D 11 80 23 5E 69 64  tlk0........#^id
0180: 6C 30 1C 02 80 20 00 21  00                       l0... .!.       
```

#### Opcodes

```
  0: 0x015B [0x42] SET_CLI_EVENT_CANCEL_DATA()
  1: 0x015C [0x20] SET_CLI_EVENT_UC_FLAG: Lock player control
  2: 0x015E [0x1E] EventEntity looks at LocalPlayer and starts talking
  3: 0x0163 [0x6F] WAIT_FRAME_DELAY: Yield until WaitTime reaches zero
  4: 0x0164 [0x70] WAIT_ENTITY_RENDER_FLAG: Wait while EventEntity->Render.Flags3 bit 2 is set (cancel turn if not)
  5: 0x0165 [0x5B] LOAD_EXT_SCHEDULER: Load scheduler "tlk0" with entities [EventEntity, EventEntity], work=35*
  6: 0x0174 [0x03] Work_Zone[2] = 884*
  7: 0x0179 [0x1D] PRINT_EVENT_MESSAGE(message_id=7996*)
    → "What's this, then? I need three $0 before I'll buy them off you. Store policy, you see."
  8: 0x017C [0x23] WAIT_FOR_DIALOG_INTERACTION
  9: 0x017D [0x5E] EventEntity goes idle (kills current action) (animation: "idl0")
 10: 0x0182 [0x1C] WAIT(30* ticks)
 11: 0x0185 [0x20] SET_CLI_EVENT_UC_FLAG: Unlock player control
 12: 0x0187 [0x21] END_EVENT
 13: 0x0188 [0x00] END_REQSTACK()
```
