# 17719579

## Common Data

| Field            | Value                         |
|------------------|-------------------------------|
| Zone             | Southern San d'Oria (ID: 230) |
| Block Size       | 1364 bytes                    |
| Total Events     | 26                            |
| References Count | 120                           |

## List of Events

| Event ID                   | Entrypoint   |   Size |   Instructions |
|----------------------------|--------------|--------|----------------|
| [65535](#event-65535)      | 0x0000       |      1 |              1 |
| [827](#event-827)          | 0x0001       |      1 |              1 |
| [823](#event-823)          | 0x0002       |      1 |              1 |
| [65535.1](#event-655351)   | 0x0003       |     15 |              2 |
| [65535.2](#event-655352)   | 0x0012       |     11 |              3 |
| [65535.3](#event-655353)   | 0x001D       |     15 |              3 |
| [65535.4](#event-655354)   | 0x002C       |    121 |             24 |
| [65535.5](#event-655355)   | 0x00A5       |    121 |             24 |
| [65535.6](#event-655356)   | 0x011E       |     15 |              3 |
| [65535.7](#event-655357)   | 0x012D       |     14 |              4 |
| [65535.8](#event-655358)   | 0x013B       |     11 |              3 |
| [65535.9](#event-655359)   | 0x0146       |     11 |              3 |
| [65535.10](#event-6553510) | 0x0151       |     11 |              3 |
| [65535.11](#event-6553511) | 0x015C       |     14 |              4 |
| [65535.12](#event-6553512) | 0x016A       |     15 |              3 |
| [861](#event-861)          | 0x0179       |      1 |              1 |
| [65535.13](#event-6553513) | 0x017A       |     15 |              3 |
| [65535.14](#event-6553514) | 0x0189       |     48 |             11 |
| [65535.15](#event-6553515) | 0x01B9       |      6 |              2 |
| [65535.16](#event-6553516) | 0x01BF       |     20 |              4 |
| [65535.17](#event-6553517) | 0x01D3       |     80 |             18 |
| [65535.18](#event-6553518) | 0x0223       |     67 |             15 |
| [65535.19](#event-6553519) | 0x0266       |     14 |              4 |
| [65535.20](#event-6553520) | 0x0274       |     51 |             11 |
| [65535.21](#event-6553521) | 0x02A7       |     15 |              3 |
| [65535.22](#event-6553522) | 0x02B6       |     69 |             15 |

## DAT References (imed_data)

|   Index | Hex Value   |   Dec Value |
|---------|-------------|-------------|
|       0 | 0x0000      |           0 |
|       1 | 0x2C7E      |       11390 |
|       2 | 0xFFFE96C5  |  4294874821 |
|       3 | 0x0897      |        2199 |
|       4 | 0x0118      |         280 |
|       5 | 0x0046      |          70 |
|       6 | 0x5688      |       22152 |
|       7 | 0xFFFE8963  |  4294871395 |
|       8 | 0x59FA      |       23034 |
|       9 | 0xFFFE9703  |  4294874883 |
|      10 | 0x20CA      |        8394 |
|      11 | 0xFFFEA6F2  |  4294878962 |
|      12 | 0x1A0A      |        6666 |
|      13 | 0xFFFEA628  |  4294878760 |
|      14 | 0x1971      |        6513 |
|      15 | 0xFFFEA380  |  4294878080 |
|      16 | 0x22EC      |        8940 |
|      17 | 0xFFFE9A5B  |  4294875739 |
|      18 | 0x3EC8      |       16072 |
|      19 | 0xFFFE9096  |  4294873238 |
|      20 | 0x4D5E      |       19806 |
|      21 | 0xFFFE8BA4  |  4294871972 |
|      22 | 0x67D9      |       26585 |
|      23 | 0xFFFE729D  |  4294865565 |
|      24 | 0x07EA      |        2026 |
|      25 | 0x000F      |          15 |
|      26 | 0x5F77      |       24439 |
|      27 | 0xFFFE715A  |  4294865242 |
|      28 | 0x53B9      |       21433 |
|      29 | 0xFFFE6FC8  |  4294864840 |
|      30 | 0x5215      |       21013 |
|      31 | 0xFFFE6EC1  |  4294864577 |
|      32 | 0x4E90      |       20112 |
|      33 | 0xFFFE7328  |  4294865704 |
|      34 | 0x6660      |       26208 |
|      35 | 0xFFFE8DA3  |  4294872483 |
|      36 | 0xFFF81A67  |  4294449767 |
|      37 | 0xFFF97BCE  |  4294540238 |
|      38 | 0x02B6      |         694 |
|      39 | 0x0E30      |        3632 |
|      40 | 0xFFF6CD3D  |  4294364477 |
|      41 | 0x92D67     |      601447 |
|      42 | 0x0183      |         387 |
|      43 | 0x0002      |           2 |
|      44 | 0xFFF6C5BB  |  4294362555 |
|      45 | 0x934CA     |      603338 |
|      46 | 0x0023      |          35 |
|      47 | 0xFFF6D3C5  |  4294366149 |
|      48 | 0x93292     |      602770 |
|      49 | 0xFFF6DF7D  |  4294369149 |
|      50 | 0x939E5     |      604645 |
|      51 | 0x001F      |          31 |
|      52 | 0x003C      |          60 |
|      53 | 0xFFF6D7C0  |  4294367168 |
|      54 | 0x8EF6A     |      585578 |
|      55 | 0x0274      |         628 |
|      56 | 0x011C      |         284 |
|      57 | 0xFFF6D0CA  |  4294365386 |
|      58 | 0x8F7DF     |      587743 |
|      59 | 0x0112      |         274 |
|      60 | 0xFFF6D779  |  4294367097 |
|      61 | 0x8FCC2     |      588994 |
|      62 | 0x015B      |         347 |
|      63 | 0xFFF6DB55  |  4294368085 |
|      64 | 0x8F169     |      586089 |
|      65 | 0x024A      |         586 |
|      66 | 0xFFF6DAA1  |  4294367905 |
|      67 | 0x8E6CF     |      583375 |
|      68 | 0x033E      |         830 |
|      69 | 0x001E      |          30 |
|      70 | 0x0C58      |        3160 |
|      71 | 0x0078      |         120 |
|      72 | 0xFFF6D069  |  4294365289 |
|      73 | 0x8F7F4     |      587764 |
|      74 | 0x010C      |         268 |
|      75 | 0x0154      |         340 |
|      76 | 0x002D      |          45 |
|      77 | 0xFFF6DB01  |  4294368001 |
|      78 | 0x90356     |      590678 |
|      79 | 0x0108      |         264 |
|      80 | 0x03BF      |         959 |
|      81 | 0xFFF6C73F  |  4294362943 |
|      82 | 0x8F234     |      586292 |
|      83 | 0x008A      |         138 |
|      84 | 0x0025      |          37 |
|      85 | 0x00F0      |         240 |
|      86 | 0xFFF6D6F8  |  4294366968 |
|      87 | 0x8E30A     |      582410 |
|      88 | 0x0322      |         802 |
|      89 | 0x0BD3      |        3027 |
|      90 | 0xFFF6DB94  |  4294368148 |
|      91 | 0x8FCF3     |      589043 |
|      92 | 0x0159      |         345 |
|      93 | 0xFFF6C79F  |  4294363039 |
|      94 | 0x8F34D     |      586573 |
|      95 | 0x0039      |          57 |
|      96 | 0xFFF6CB4A  |  4294363978 |
|      97 | 0x8FAEF     |      588527 |
|      98 | 0x00C4      |         196 |
|      99 | 0xFFF6D269  |  4294365801 |
|     100 | 0x8F138     |      586040 |
|     101 | 0x01F0      |         496 |
|     102 | 0xFFF6CEAA  |  4294364842 |
|     103 | 0x8FA2D     |      588333 |
|     104 | 0x00F7      |         247 |
|     105 | 0xFFF6CA0E  |  4294363662 |
|     106 | 0x8EFB9     |      585657 |
|     107 | 0x0090      |         144 |
|     108 | 0xFFF6CECB  |  4294364875 |
|     109 | 0x8E418     |      582680 |
|     110 | 0x018C      |         396 |
|     111 | 0xFFF6DB79  |  4294368121 |
|     112 | 0x8E4F3     |      582899 |
|     113 | 0x0356      |         854 |
|     114 | 0xFFF6DE60  |  4294368864 |
|     115 | 0x8F7D9     |      587737 |
|     116 | 0x019A      |         410 |
|     117 | 0xFFF6D8AE  |  4294367406 |
|     118 | 0x8FE78     |      589432 |
|     119 | 0x0146      |         326 |

## Events

### Event 65535

#### Metadata

| Field        | Value   |
|--------------|---------|
| Entrypoint   | 0x0000  |
| Data Size    | 1 bytes |
| Instructions | 1       |

```
      00 01 02 03 04 05 06 07  08 09 0A 0B 0C 0D 0E 0F
      -- -- -- -- -- -- -- --  -- -- -- -- -- -- -- --
0000: 00                                                .               
```

#### Opcodes

```
  0: 0x0000 [0x00] END_REQSTACK()
```

### Event 827

#### Metadata

| Field        | Value   |
|--------------|---------|
| Entrypoint   | 0x0001  |
| Data Size    | 1 bytes |
| Instructions | 1       |

```
      00 01 02 03 04 05 06 07  08 09 0A 0B 0C 0D 0E 0F
      -- -- -- -- -- -- -- --  -- -- -- -- -- -- -- --
0000:    00                                              .              
```

#### Opcodes

```
  0: 0x0001 [0x00] END_REQSTACK()
```

### Event 823

#### Metadata

| Field        | Value   |
|--------------|---------|
| Entrypoint   | 0x0002  |
| Data Size    | 1 bytes |
| Instructions | 1       |

```
      00 01 02 03 04 05 06 07  08 09 0A 0B 0C 0D 0E 0F
      -- -- -- -- -- -- -- --  -- -- -- -- -- -- -- --
0000:       00                                            .             
```

#### Opcodes

```
  0: 0x0002 [0x00] END_REQSTACK()
```

### Event 65535.1

#### Metadata

| Field        | Value    |
|--------------|----------|
| Entrypoint   | 0x0003   |
| Data Size    | 15 bytes |
| Instructions | 2        |

```
      00 01 02 03 04 05 06 07  08 09 0A 0B 0C 0D 0E 0F
      -- -- -- -- -- -- -- --  -- -- -- -- -- -- -- --
0000:          B6 0D 04 10 05  10 06 10 07 10 08 10 09     .............
0010: 10 00                                             ..              
```

#### Opcodes

```
  0: 0x0003 [0xB6] ENTITY_APPEARANCE_HANDLER(case=Look with Render flags, race=Work_Zone[4], face=Work_Zone[5], head=Work_Zone[6], body=Work_Zone[7], hands=Work_Zone[8], render_flags=0x1009)
  1: 0x0011 [0x00] END_REQSTACK()
```

### Event 65535.2

#### Metadata

| Field        | Value    |
|--------------|----------|
| Entrypoint   | 0x0012   |
| Data Size    | 11 bytes |
| Instructions | 3        |

```
      00 01 02 03 04 05 06 07  08 09 0A 0B 0C 0D 0E 0F
      -- -- -- -- -- -- -- --  -- -- -- -- -- -- -- --
0010:       B4 01 00 00 00 80  B5 00 00 00 00             ...........   
```

#### Opcodes

```
  0: 0x0012 [0xB4] UI_WINDOW_STRING_HANDLER(case=0x01 - Copy string from event strings table, work_offset=ExtData[1]->WorkLocal[0], string_index=0*)
  1: 0x0018 [0xB5] SET_EVENT_ENTITY_NAME: Change EventEntity name to ExtData[1]->WorkLocal[0]
  2: 0x001C [0x00] END_REQSTACK()
```

### Event 65535.3

#### Metadata

| Field        | Value    |
|--------------|----------|
| Entrypoint   | 0x001D   |
| Data Size    | 15 bytes |
| Instructions | 3        |

```
      00 01 02 03 04 05 06 07  08 09 0A 0B 0C 0D 0E 0F
      -- -- -- -- -- -- -- --  -- -- -- -- -- -- -- --
0010:                                         37 01 80               7..
0020: 02 80 03 80 04 80 80 F8  FF FF 7F 00              ............    
```

#### Opcodes

```
  0: 0x001D [0x37] UPDATE_EVENT_POSITION_AND_DIR: x=11.390*, z=-92.475*, y=2.199*, direction=24.6°*
  1: 0x0026 [0x80] LOAD_WAIT(entity=EventEntity)
  2: 0x002B [0x00] END_REQSTACK()
```

### Event 65535.4

#### Metadata

| Field        | Value     |
|--------------|-----------|
| Entrypoint   | 0x002C    |
| Data Size    | 121 bytes |
| Instructions | 24        |

```
      00 01 02 03 04 05 06 07  08 09 0A 0B 0C 0D 0E 0F
      -- -- -- -- -- -- -- --  -- -- -- -- -- -- -- --
0020:                                      32 05 80 1F              2...
0030: 00 06 80 07 80 03 80 1F  01 1F 00 08 80 09 80 03  ................
0040: 80 1F 01 1F 00 0A 80 0B  80 03 80 1F 01 1F 00 0C  ................
0050: 80 0D 80 03 80 1F 01 1F  00 0E 80 0F 80 03 80 1F  ................
0060: 01 1F 00 10 80 11 80 03  80 1F 01 1F 00 01 80 02  ................
0070: 80 03 80 1F 01 1F 00 12  80 13 80 03 80 1F 01 1F  ................
0080: 00 14 80 15 80 03 80 1F  01 02 4D 10 00 80 00 9B  ..........M.....
0090: 00 27 05 1B 61 0E 01 07  01 A4 00 37 00 80 00 80  .'..a......7....
00A0: 00 80 00 80 00                                    .....           
```

#### Opcodes

```
  0: 0x002C [0x32] ExtData[1]->MainSpeed = 70* * 0.1
  1: 0x002F [0x1F] MOVE_ENTITY: EventEntity moves to X=22.152*, Z=-95.901*, Y=2.199*
  2: 0x0037 [0x1F] MOVE_ENTITY: Update entity position (mode=1)
  3: 0x0039 [0x1F] MOVE_ENTITY: EventEntity moves to X=23.034*, Z=-92.413*, Y=2.199*
  4: 0x0041 [0x1F] MOVE_ENTITY: Update entity position (mode=1)
  5: 0x0043 [0x1F] MOVE_ENTITY: EventEntity moves to X=8.394*, Z=-88.334*, Y=2.199*
  6: 0x004B [0x1F] MOVE_ENTITY: Update entity position (mode=1)
  7: 0x004D [0x1F] MOVE_ENTITY: EventEntity moves to X=6.666*, Z=-88.536*, Y=2.199*
  8: 0x0055 [0x1F] MOVE_ENTITY: Update entity position (mode=1)
  9: 0x0057 [0x1F] MOVE_ENTITY: EventEntity moves to X=6.513*, Z=-89.216*, Y=2.199*
 10: 0x005F [0x1F] MOVE_ENTITY: Update entity position (mode=1)
 11: 0x0061 [0x1F] MOVE_ENTITY: EventEntity moves to X=8.940*, Z=-91.557*, Y=2.199*
 12: 0x0069 [0x1F] MOVE_ENTITY: Update entity position (mode=1)
 13: 0x006B [0x1F] MOVE_ENTITY: EventEntity moves to X=11.390*, Z=-92.475*, Y=2.199*
 14: 0x0073 [0x1F] MOVE_ENTITY: Update entity position (mode=1)
 15: 0x0075 [0x1F] MOVE_ENTITY: EventEntity moves to X=16.072*, Z=-94.058*, Y=2.199*
 16: 0x007D [0x1F] MOVE_ENTITY: Update entity position (mode=1)
 17: 0x007F [0x1F] MOVE_ENTITY: EventEntity moves to X=19.806*, Z=-95.324*, Y=2.199*
 18: 0x0087 [0x1F] MOVE_ENTITY: Update entity position (mode=1)
 19: 0x0089 [0x02] IF !(Work_Zone[77] == 0*) GOTO 0x009B
 20: 0x0091 [0x27] REQ_SET(priority=0x05, entity_id=Unnamed NPC (ID: 17719579/0x010E611B), tag_num=0x07)
 21: 0x0098 [0x01] GOTO 0x00A4
 22: 0x009B [0x37] UPDATE_EVENT_POSITION_AND_DIR: x=0.000*, z=0.000*, y=0.000*, direction=0.0°*

SUBROUTINE_00A4:
 23: 0x00A4 [0x00] END_REQSTACK()
```

### Event 65535.5

#### Metadata

| Field        | Value     |
|--------------|-----------|
| Entrypoint   | 0x00A5    |
| Data Size    | 121 bytes |
| Instructions | 24        |

```
      00 01 02 03 04 05 06 07  08 09 0A 0B 0C 0D 0E 0F
      -- -- -- -- -- -- -- --  -- -- -- -- -- -- -- --
00A0:                32 05 80  1F 00 06 80 07 80 03 80       2..........
00B0: 1F 01 1F 00 08 80 09 80  03 80 1F 01 1F 00 0A 80  ................
00C0: 0B 80 03 80 1F 01 1F 00  0C 80 0D 80 03 80 1F 01  ................
00D0: 1F 00 0E 80 0F 80 03 80  1F 01 1F 00 10 80 11 80  ................
00E0: 03 80 1F 01 1F 00 01 80  02 80 03 80 1F 01 1F 00  ................
00F0: 12 80 13 80 03 80 1F 01  1F 00 14 80 15 80 03 80  ................
0100: 1F 01 02 4D 10 00 80 00  14 01 27 05 1B 61 0E 01  ...M......'..a..
0110: 06 01 1D 01 37 00 80 00  80 00 80 00 80 00        ....7.........  
```

#### Opcodes

```
  0: 0x00A5 [0x32] ExtData[1]->MainSpeed = 70* * 0.1
  1: 0x00A8 [0x1F] MOVE_ENTITY: EventEntity moves to X=22.152*, Z=-95.901*, Y=2.199*
  2: 0x00B0 [0x1F] MOVE_ENTITY: Update entity position (mode=1)
  3: 0x00B2 [0x1F] MOVE_ENTITY: EventEntity moves to X=23.034*, Z=-92.413*, Y=2.199*
  4: 0x00BA [0x1F] MOVE_ENTITY: Update entity position (mode=1)
  5: 0x00BC [0x1F] MOVE_ENTITY: EventEntity moves to X=8.394*, Z=-88.334*, Y=2.199*
  6: 0x00C4 [0x1F] MOVE_ENTITY: Update entity position (mode=1)
  7: 0x00C6 [0x1F] MOVE_ENTITY: EventEntity moves to X=6.666*, Z=-88.536*, Y=2.199*
  8: 0x00CE [0x1F] MOVE_ENTITY: Update entity position (mode=1)
  9: 0x00D0 [0x1F] MOVE_ENTITY: EventEntity moves to X=6.513*, Z=-89.216*, Y=2.199*
 10: 0x00D8 [0x1F] MOVE_ENTITY: Update entity position (mode=1)
 11: 0x00DA [0x1F] MOVE_ENTITY: EventEntity moves to X=8.940*, Z=-91.557*, Y=2.199*
 12: 0x00E2 [0x1F] MOVE_ENTITY: Update entity position (mode=1)
 13: 0x00E4 [0x1F] MOVE_ENTITY: EventEntity moves to X=11.390*, Z=-92.475*, Y=2.199*
 14: 0x00EC [0x1F] MOVE_ENTITY: Update entity position (mode=1)
 15: 0x00EE [0x1F] MOVE_ENTITY: EventEntity moves to X=16.072*, Z=-94.058*, Y=2.199*
 16: 0x00F6 [0x1F] MOVE_ENTITY: Update entity position (mode=1)
 17: 0x00F8 [0x1F] MOVE_ENTITY: EventEntity moves to X=19.806*, Z=-95.324*, Y=2.199*
 18: 0x0100 [0x1F] MOVE_ENTITY: Update entity position (mode=1)
 19: 0x0102 [0x02] IF !(Work_Zone[77] == 0*) GOTO 0x0114
 20: 0x010A [0x27] REQ_SET(priority=0x05, entity_id=Unnamed NPC (ID: 17719579/0x010E611B), tag_num=0x06)
 21: 0x0111 [0x01] GOTO 0x011D
 22: 0x0114 [0x37] UPDATE_EVENT_POSITION_AND_DIR: x=0.000*, z=0.000*, y=0.000*, direction=0.0°*

SUBROUTINE_011D:
 23: 0x011D [0x00] END_REQSTACK()
```

### Event 65535.6

#### Metadata

| Field        | Value    |
|--------------|----------|
| Entrypoint   | 0x011E   |
| Data Size    | 15 bytes |
| Instructions | 3        |

```
      00 01 02 03 04 05 06 07  08 09 0A 0B 0C 0D 0E 0F
      -- -- -- -- -- -- -- --  -- -- -- -- -- -- -- --
0110:                                            37 16                7.
0120: 80 17 80 03 80 18 80 80  F8 FF FF 7F 00           .............   
```

#### Opcodes

```
  0: 0x011E [0x37] UPDATE_EVENT_POSITION_AND_DIR: x=26.585*, z=-101.731*, y=2.199*, direction=178.1°*
  1: 0x0127 [0x80] LOAD_WAIT(entity=EventEntity)
  2: 0x012C [0x00] END_REQSTACK()
```

### Event 65535.7

#### Metadata

| Field        | Value    |
|--------------|----------|
| Entrypoint   | 0x012D   |
| Data Size    | 14 bytes |
| Instructions | 4        |

```
      00 01 02 03 04 05 06 07  08 09 0A 0B 0C 0D 0E 0F
      -- -- -- -- -- -- -- --  -- -- -- -- -- -- -- --
0120:                                         32 19 80               2..
0130: 1F 00 1A 80 1B 80 03 80  1F 01 00                 ...........     
```

#### Opcodes

```
  0: 0x012D [0x32] ExtData[1]->MainSpeed = 15* * 0.1
  1: 0x0130 [0x1F] MOVE_ENTITY: EventEntity moves to X=24.439*, Z=-102.054*, Y=2.199*
  2: 0x0138 [0x1F] MOVE_ENTITY: Update entity position (mode=1)
  3: 0x013A [0x00] END_REQSTACK()
```

### Event 65535.8

#### Metadata

| Field        | Value    |
|--------------|----------|
| Entrypoint   | 0x013B   |
| Data Size    | 11 bytes |
| Instructions | 3        |

```
      00 01 02 03 04 05 06 07  08 09 0A 0B 0C 0D 0E 0F
      -- -- -- -- -- -- -- --  -- -- -- -- -- -- -- --
0130:                                   1F 00 1C 80 1D             .....
0140: 80 03 80 1F 01 00                                 ......          
```

#### Opcodes

```
  0: 0x013B [0x1F] MOVE_ENTITY: EventEntity moves to X=21.433*, Z=-102.456*, Y=2.199*
  1: 0x0143 [0x1F] MOVE_ENTITY: Update entity position (mode=1)
  2: 0x0145 [0x00] END_REQSTACK()
```

### Event 65535.9

#### Metadata

| Field        | Value    |
|--------------|----------|
| Entrypoint   | 0x0146   |
| Data Size    | 11 bytes |
| Instructions | 3        |

```
      00 01 02 03 04 05 06 07  08 09 0A 0B 0C 0D 0E 0F
      -- -- -- -- -- -- -- --  -- -- -- -- -- -- -- --
0140:                   1F 00  1E 80 1F 80 03 80 1F 01        ..........
0150: 00                                                .               
```

#### Opcodes

```
  0: 0x0146 [0x1F] MOVE_ENTITY: EventEntity moves to X=21.013*, Z=-102.719*, Y=2.199*
  1: 0x014E [0x1F] MOVE_ENTITY: Update entity position (mode=1)
  2: 0x0150 [0x00] END_REQSTACK()
```

### Event 65535.10

#### Metadata

| Field        | Value    |
|--------------|----------|
| Entrypoint   | 0x0151   |
| Data Size    | 11 bytes |
| Instructions | 3        |

```
      00 01 02 03 04 05 06 07  08 09 0A 0B 0C 0D 0E 0F
      -- -- -- -- -- -- -- --  -- -- -- -- -- -- -- --
0150:    1F 00 20 80 21 80 03  80 1F 01 00               .. .!......    
```

#### Opcodes

```
  0: 0x0151 [0x1F] MOVE_ENTITY: EventEntity moves to X=20.112*, Z=-101.592*, Y=2.199*
  1: 0x0159 [0x1F] MOVE_ENTITY: Update entity position (mode=1)
  2: 0x015B [0x00] END_REQSTACK()
```

### Event 65535.11

#### Metadata

| Field        | Value    |
|--------------|----------|
| Entrypoint   | 0x015C   |
| Data Size    | 14 bytes |
| Instructions | 4        |

```
      00 01 02 03 04 05 06 07  08 09 0A 0B 0C 0D 0E 0F
      -- -- -- -- -- -- -- --  -- -- -- -- -- -- -- --
0150:                                      32 05 80 1F              2...
0160: 00 22 80 23 80 03 80 1F  01 00                    .".#......      
```

#### Opcodes

```
  0: 0x015C [0x32] ExtData[1]->MainSpeed = 70* * 0.1
  1: 0x015F [0x1F] MOVE_ENTITY: EventEntity moves to X=26.208*, Z=-94.813*, Y=2.199*
  2: 0x0167 [0x1F] MOVE_ENTITY: Update entity position (mode=1)
  3: 0x0169 [0x00] END_REQSTACK()
```

### Event 65535.12

#### Metadata

| Field        | Value    |
|--------------|----------|
| Entrypoint   | 0x016A   |
| Data Size    | 15 bytes |
| Instructions | 3        |

```
      00 01 02 03 04 05 06 07  08 09 0A 0B 0C 0D 0E 0F
      -- -- -- -- -- -- -- --  -- -- -- -- -- -- -- --
0160:                                37 24 80 25 80 26            7$.%.&
0170: 80 27 80 80 F8 FF FF 7F  00                       .'.......       
```

#### Opcodes

```
  0: 0x016A [0x37] UPDATE_EVENT_POSITION_AND_DIR: x=-517.529*, z=-427.058*, y=0.694*, direction=319.2°*
  1: 0x0173 [0x80] LOAD_WAIT(entity=EventEntity)
  2: 0x0178 [0x00] END_REQSTACK()
```

### Event 861

#### Metadata

| Field        | Value   |
|--------------|---------|
| Entrypoint   | 0x0179  |
| Data Size    | 1 bytes |
| Instructions | 1       |

```
      00 01 02 03 04 05 06 07  08 09 0A 0B 0C 0D 0E 0F
      -- -- -- -- -- -- -- --  -- -- -- -- -- -- -- --
0170:                             00                             .      
```

#### Opcodes

```
  0: 0x0179 [0x00] END_REQSTACK()
```

### Event 65535.13

#### Metadata

| Field        | Value    |
|--------------|----------|
| Entrypoint   | 0x017A   |
| Data Size    | 15 bytes |
| Instructions | 3        |

```
      00 01 02 03 04 05 06 07  08 09 0A 0B 0C 0D 0E 0F
      -- -- -- -- -- -- -- --  -- -- -- -- -- -- -- --
0170:                                37 28 80 29 80 00            7(.)..
0180: 80 2A 80 03 04 00 00 80  00                       .*.......       
```

#### Opcodes

```
  0: 0x017A [0x37] UPDATE_EVENT_POSITION_AND_DIR: x=-602.819*, z=601.447*, y=0.000*, direction=34.0°*
  1: 0x0183 [0x03] ExtData[1]->WorkLocal[4] = 0*
  2: 0x0188 [0x00] END_REQSTACK()
```

### Event 65535.14

#### Metadata

| Field        | Value    |
|--------------|----------|
| Entrypoint   | 0x0189   |
| Data Size    | 48 bytes |
| Instructions | 11       |

```
      00 01 02 03 04 05 06 07  08 09 0A 0B 0C 0D 0E 0F
      -- -- -- -- -- -- -- --  -- -- -- -- -- -- -- --
0180:                             02 04 00 2B 80 01 B8           ...+...
0190: 01 32 19 80 1F 00 2C 80  2D 80 2E 80 1F 01 1F 00  .2....,.-.......
01A0: 2F 80 30 80 00 80 1F 01  1F 00 31 80 32 80 33 80  /.0.......1.2.3.
01B0: 1F 01 1C 34 80 01 89 01  00                       ...4.....       
```

#### Opcodes

```
  0: 0x0189 [0x02] IF !(ExtData[1]->WorkLocal[4] == 2*) GOTO 0x01B8
  1: 0x0191 [0x32] ExtData[1]->MainSpeed = 15* * 0.1
  2: 0x0194 [0x1F] MOVE_ENTITY: EventEntity moves to X=-604.741*, Z=603.338*, Y=0.035*
  3: 0x019C [0x1F] MOVE_ENTITY: Update entity position (mode=1)
  4: 0x019E [0x1F] MOVE_ENTITY: EventEntity moves to X=-601.147*, Z=602.770*, Y=0.000*
  5: 0x01A6 [0x1F] MOVE_ENTITY: Update entity position (mode=1)
  6: 0x01A8 [0x1F] MOVE_ENTITY: EventEntity moves to X=-598.147*, Z=604.645*, Y=0.031*
  7: 0x01B0 [0x1F] MOVE_ENTITY: Update entity position (mode=1)
  8: 0x01B2 [0x1C] WAIT(60* ticks)
  9: 0x01B5 [0x01] GOTO 0x0189
 10: 0x01B8 [0x00] END_REQSTACK()
```

### Event 65535.15

#### Metadata

| Field        | Value   |
|--------------|---------|
| Entrypoint   | 0x01B9  |
| Data Size    | 6 bytes |
| Instructions | 2       |

```
      00 01 02 03 04 05 06 07  08 09 0A 0B 0C 0D 0E 0F
      -- -- -- -- -- -- -- --  -- -- -- -- -- -- -- --
01B0:                             03 04 00 2B 80 00              ...+.. 
```

#### Opcodes

```
  0: 0x01B9 [0x03] ExtData[1]->WorkLocal[4] = 2*
  1: 0x01BE [0x00] END_REQSTACK()
```

### Event 65535.16

#### Metadata

| Field        | Value    |
|--------------|----------|
| Entrypoint   | 0x01BF   |
| Data Size    | 20 bytes |
| Instructions | 4        |

```
      00 01 02 03 04 05 06 07  08 09 0A 0B 0C 0D 0E 0F
      -- -- -- -- -- -- -- --  -- -- -- -- -- -- -- --
01B0:                                               37                 7
01C0: 35 80 36 80 37 80 38 80  80 F8 FF FF 7F 03 04 00  5.6.7.8.........
01D0: 00 80 00                                          ...             
```

#### Opcodes

```
  0: 0x01BF [0x37] UPDATE_EVENT_POSITION_AND_DIR: x=-600.128*, z=585.578*, y=0.628*, direction=25.0°*
  1: 0x01C8 [0x80] LOAD_WAIT(entity=EventEntity)
  2: 0x01CD [0x03] ExtData[1]->WorkLocal[4] = 0*
  3: 0x01D2 [0x00] END_REQSTACK()
```

### Event 65535.17

#### Metadata

| Field        | Value    |
|--------------|----------|
| Entrypoint   | 0x01D3   |
| Data Size    | 80 bytes |
| Instructions | 18       |

```
      00 01 02 03 04 05 06 07  08 09 0A 0B 0C 0D 0E 0F
      -- -- -- -- -- -- -- --  -- -- -- -- -- -- -- --
01D0:          32 19 80 1F 00  39 80 3A 80 3B 80 1F 01     2....9.:.;...
01E0: 1F 00 3C 80 3D 80 3E 80  1F 01 1F 00 3F 80 40 80  ..<.=.>.....?.@.
01F0: 41 80 1F 01 1F 00 42 80  43 80 44 80 1F 01 1C 45  A.....B.C.D....E
0200: 80 4B 1B 61 0E 01 46 80  1C 47 80 1F 00 48 80 49  .K.a..F..G...H.I
0210: 80 4A 80 1F 01 1C 45 80  4B 1B 61 0E 01 4B 80 1C  .J....E.K.a..K..
0220: 45 80 00                                          E..             
```

#### Opcodes

```
  0: 0x01D3 [0x32] ExtData[1]->MainSpeed = 15* * 0.1
  1: 0x01D6 [0x1F] MOVE_ENTITY: EventEntity moves to X=-601.910*, Z=587.743*, Y=0.274*
  2: 0x01DE [0x1F] MOVE_ENTITY: Update entity position (mode=1)
  3: 0x01E0 [0x1F] MOVE_ENTITY: EventEntity moves to X=-600.199*, Z=588.994*, Y=0.347*
  4: 0x01E8 [0x1F] MOVE_ENTITY: Update entity position (mode=1)
  5: 0x01EA [0x1F] MOVE_ENTITY: EventEntity moves to X=-599.211*, Z=586.089*, Y=0.586*
  6: 0x01F2 [0x1F] MOVE_ENTITY: Update entity position (mode=1)
  7: 0x01F4 [0x1F] MOVE_ENTITY: EventEntity moves to X=-599.391*, Z=583.375*, Y=0.830*
  8: 0x01FC [0x1F] MOVE_ENTITY: Update entity position (mode=1)
  9: 0x01FE [0x1C] WAIT(30* ticks)
 10: 0x0201 [0x4B] UPDATE_ENTITY_YAW(entity=Unnamed NPC (ID: 17719579/0x010E611B), yaw=17.4°*)
 11: 0x0208 [0x1C] WAIT(120* ticks)
 12: 0x020B [0x1F] MOVE_ENTITY: EventEntity moves to X=-602.007*, Z=587.764*, Y=0.268*
 13: 0x0213 [0x1F] MOVE_ENTITY: Update entity position (mode=1)
 14: 0x0215 [0x1C] WAIT(30* ticks)
 15: 0x0218 [0x4B] UPDATE_ENTITY_YAW(entity=Unnamed NPC (ID: 17719579/0x010E611B), yaw=1.9°*)
 16: 0x021F [0x1C] WAIT(30* ticks)
 17: 0x0222 [0x00] END_REQSTACK()
```

### Event 65535.18

#### Metadata

| Field        | Value    |
|--------------|----------|
| Entrypoint   | 0x0223   |
| Data Size    | 67 bytes |
| Instructions | 15       |

```
      00 01 02 03 04 05 06 07  08 09 0A 0B 0C 0D 0E 0F
      -- -- -- -- -- -- -- --  -- -- -- -- -- -- -- --
0220:          32 4C 80 1F 00  4D 80 4E 80 4F 80 1F 01     2L...M.N.O...
0230: 4B 1B 61 0E 01 50 80 1C  34 80 1F 00 51 80 52 80  K.a..P..4...Q.R.
0240: 53 80 1F 01 4B 1B 61 0E  01 54 80 1C 55 80 1F 00  S...K.a..T..U...
0250: 56 80 57 80 58 80 1F 01  1C 45 80 4B 1B 61 0E 01  V.W.X....E.K.a..
0260: 59 80 1C 34 80 00                                 Y..4..          
```

#### Opcodes

```
  0: 0x0223 [0x32] ExtData[1]->MainSpeed = 45* * 0.1
  1: 0x0226 [0x1F] MOVE_ENTITY: EventEntity moves to X=-599.295*, Z=590.678*, Y=0.264*
  2: 0x022E [0x1F] MOVE_ENTITY: Update entity position (mode=1)
  3: 0x0230 [0x4B] UPDATE_ENTITY_YAW(entity=Unnamed NPC (ID: 17719579/0x010E611B), yaw=5.3°*)
  4: 0x0237 [0x1C] WAIT(60* ticks)
  5: 0x023A [0x1F] MOVE_ENTITY: EventEntity moves to X=-604.353*, Z=586.292*, Y=0.138*
  6: 0x0242 [0x1F] MOVE_ENTITY: Update entity position (mode=1)
  7: 0x0244 [0x4B] UPDATE_ENTITY_YAW(entity=Unnamed NPC (ID: 17719579/0x010E611B), yaw=0.2°*)
  8: 0x024B [0x1C] WAIT(240* ticks)
  9: 0x024E [0x1F] MOVE_ENTITY: EventEntity moves to X=-600.328*, Z=582.410*, Y=0.802*
 10: 0x0256 [0x1F] MOVE_ENTITY: Update entity position (mode=1)
 11: 0x0258 [0x1C] WAIT(30* ticks)
 12: 0x025B [0x4B] UPDATE_ENTITY_YAW(entity=Unnamed NPC (ID: 17719579/0x010E611B), yaw=16.6°*)
 13: 0x0262 [0x1C] WAIT(60* ticks)
 14: 0x0265 [0x00] END_REQSTACK()
```

### Event 65535.19

#### Metadata

| Field        | Value    |
|--------------|----------|
| Entrypoint   | 0x0266   |
| Data Size    | 14 bytes |
| Instructions | 4        |

```
      00 01 02 03 04 05 06 07  08 09 0A 0B 0C 0D 0E 0F
      -- -- -- -- -- -- -- --  -- -- -- -- -- -- -- --
0260:                   32 4C  80 1F 00 5A 80 5B 80 5C        2L...Z.[.\
0270: 80 1F 01 00                                       ....            
```

#### Opcodes

```
  0: 0x0266 [0x32] ExtData[1]->MainSpeed = 45* * 0.1
  1: 0x0269 [0x1F] MOVE_ENTITY: EventEntity moves to X=-599.148*, Z=589.043*, Y=0.345*
  2: 0x0271 [0x1F] MOVE_ENTITY: Update entity position (mode=1)
  3: 0x0273 [0x00] END_REQSTACK()
```

### Event 65535.20

#### Metadata

| Field        | Value    |
|--------------|----------|
| Entrypoint   | 0x0274   |
| Data Size    | 51 bytes |
| Instructions | 11       |

```
      00 01 02 03 04 05 06 07  08 09 0A 0B 0C 0D 0E 0F
      -- -- -- -- -- -- -- --  -- -- -- -- -- -- -- --
0270:             32 4C 80 1F  00 5D 80 5E 80 5F 80 1F      2L...].^._..
0280: 01 1F 00 60 80 61 80 62  80 1F 01 1F 00 63 80 64  ...`.a.b.....c.d
0290: 80 65 80 1F 01 1E 19 61  0E 01 1C 45 80 4A 19 61  .e.....a...E.J.a
02A0: 0E 01 1B 61 0E 01 00                              ...a...         
```

#### Opcodes

```
  0: 0x0274 [0x32] ExtData[1]->MainSpeed = 45* * 0.1
  1: 0x0277 [0x1F] MOVE_ENTITY: EventEntity moves to X=-604.257*, Z=586.573*, Y=0.057*
  2: 0x027F [0x1F] MOVE_ENTITY: Update entity position (mode=1)
  3: 0x0281 [0x1F] MOVE_ENTITY: EventEntity moves to X=-603.318*, Z=588.527*, Y=0.196*
  4: 0x0289 [0x1F] MOVE_ENTITY: Update entity position (mode=1)
  5: 0x028B [0x1F] MOVE_ENTITY: EventEntity moves to X=-601.495*, Z=586.040*, Y=0.496*
  6: 0x0293 [0x1F] MOVE_ENTITY: Update entity position (mode=1)
  7: 0x0295 [0x1E] EventEntity looks at Unnamed NPC (ID: 17719577/0x010E6119) and starts talking
  8: 0x029A [0x1C] WAIT(30* ticks)
  9: 0x029D [0x4A] Unnamed NPC (ID: 17719577/0x010E6119) looks at Unnamed NPC (ID: 17719579/0x010E611B)
 10: 0x02A6 [0x00] END_REQSTACK()
```

### Event 65535.21

#### Metadata

| Field        | Value    |
|--------------|----------|
| Entrypoint   | 0x02A7   |
| Data Size    | 15 bytes |
| Instructions | 3        |

```
      00 01 02 03 04 05 06 07  08 09 0A 0B 0C 0D 0E 0F
      -- -- -- -- -- -- -- --  -- -- -- -- -- -- -- --
02A0:                      37  48 80 49 80 4A 80 38 80         7H.I.J.8.
02B0: 80 F8 FF FF 7F 00                                 ......          
```

#### Opcodes

```
  0: 0x02A7 [0x37] UPDATE_EVENT_POSITION_AND_DIR: x=-602.007*, z=587.764*, y=0.268*, direction=25.0°*
  1: 0x02B0 [0x80] LOAD_WAIT(entity=EventEntity)
  2: 0x02B5 [0x00] END_REQSTACK()
```

### Event 65535.22

#### Metadata

| Field        | Value    |
|--------------|----------|
| Entrypoint   | 0x02B6   |
| Data Size    | 69 bytes |
| Instructions | 15       |

```
      00 01 02 03 04 05 06 07  08 09 0A 0B 0C 0D 0E 0F
      -- -- -- -- -- -- -- --  -- -- -- -- -- -- -- --
02B0:                   32 4C  80 1F 00 66 80 67 80 68        2L...f.g.h
02C0: 80 1F 01 1F 00 69 80 6A  80 6B 80 1F 01 1F 00 6C  .....i.j.k.....l
02D0: 80 6D 80 6E 80 1F 01 1F  00 6F 80 70 80 71 80 1F  .m.n.....o.p.q..
02E0: 01 1F 00 72 80 73 80 74  80 1F 01 1F 00 75 80 76  ...r.s.t.....u.v
02F0: 80 77 80 1F 01 1E 19 61  0E 01 00                 .w.....a...     
```

#### Opcodes

```
  0: 0x02B6 [0x32] ExtData[1]->MainSpeed = 45* * 0.1
  1: 0x02B9 [0x1F] MOVE_ENTITY: EventEntity moves to X=-602.454*, Z=588.333*, Y=0.247*
  2: 0x02C1 [0x1F] MOVE_ENTITY: Update entity position (mode=1)
  3: 0x02C3 [0x1F] MOVE_ENTITY: EventEntity moves to X=-603.634*, Z=585.657*, Y=0.144*
  4: 0x02CB [0x1F] MOVE_ENTITY: Update entity position (mode=1)
  5: 0x02CD [0x1F] MOVE_ENTITY: EventEntity moves to X=-602.421*, Z=582.680*, Y=0.396*
  6: 0x02D5 [0x1F] MOVE_ENTITY: Update entity position (mode=1)
  7: 0x02D7 [0x1F] MOVE_ENTITY: EventEntity moves to X=-599.175*, Z=582.899*, Y=0.854*
  8: 0x02DF [0x1F] MOVE_ENTITY: Update entity position (mode=1)
  9: 0x02E1 [0x1F] MOVE_ENTITY: EventEntity moves to X=-598.432*, Z=587.737*, Y=0.410*
 10: 0x02E9 [0x1F] MOVE_ENTITY: Update entity position (mode=1)
 11: 0x02EB [0x1F] MOVE_ENTITY: EventEntity moves to X=-599.890*, Z=589.432*, Y=0.326*
 12: 0x02F3 [0x1F] MOVE_ENTITY: Update entity position (mode=1)
 13: 0x02F5 [0x1E] EventEntity looks at Unnamed NPC (ID: 17719577/0x010E6119) and starts talking
 14: 0x02FA [0x00] END_REQSTACK()
```
