# 17719409 - Arpetion

## Common Data

| Field            | Value                         |
|------------------|-------------------------------|
| Zone             | Southern San d'Oria (ID: 230) |
| Block Size       | 536 bytes                     |
| Total Events     | 13                            |
| References Count | 34                            |

## List of Events

| Event ID                 | Entrypoint   |   Size |   Instructions |
|--------------------------|--------------|--------|----------------|
| [65535](#event-65535)    | 0x0000       |      1 |              1 |
| [0](#event-0)            | 0x0001       |      1 |              1 |
| [660](#event-660)        | 0x0002       |     43 |             11 |
| [945](#event-945)        | 0x002D       |     10 |              2 |
| [65535.1](#event-655351) | 0x0037       |     15 |              5 |
| [65535.2](#event-655352) | 0x0046       |     68 |             12 |
| [65535.3](#event-655353) | 0x008A       |     45 |              9 |
| [65535.4](#event-655354) | 0x00B7       |     89 |             16 |
| [65535.5](#event-655355) | 0x0110       |     15 |              5 |
| [65535.6](#event-655356) | 0x011F       |     10 |              2 |
| [65535.7](#event-655357) | 0x0129       |     15 |              5 |
| [65535.8](#event-655358) | 0x0138       |     18 |              6 |
| [3508](#event-3508)      | 0x014A       |      1 |              1 |

## DAT References (imed_data)

|   Index | Hex Value   |   Dec Value |
|---------|-------------|-------------|
|       0 | 0x0014      |          20 |
|       1 | 0x20F9      |        8441 |
|       2 | 0x0005      |           5 |
|       3 | 0x00B4      |         180 |
|       4 | 0x0060      |          96 |
|       5 | 0x0001      |           1 |
|       6 | 0x000B      |          11 |
|       7 | 0xF906      |       63750 |
|       8 | 0xFFFFC4F8  |  4294952184 |
|       9 | 0x07CF      |        1999 |
|      10 | 0x0013      |          19 |
|      11 | 0x7FC6      |       32710 |
|      12 | 0xFFFF82CC  |  4294935244 |
|      13 | 0x004B      |          75 |
|      14 | 0x001E      |          30 |
|      15 | 0x0027      |          39 |
|      16 | 0x4B65      |       19301 |
|      17 | 0xFFFF927C  |  4294939260 |
|      18 | 0x001D      |          29 |
|      19 | 0x000D      |          13 |
|      20 | 0xFFFFE0FB  |  4294959355 |
|      21 | 0xFFFFFCD8  |  4294966488 |
|      22 | 0x0078      |         120 |
|      23 | 0xFFFFBEF4  |  4294950644 |
|      24 | 0xFFFFD7DD  |  4294957021 |
|      25 | 0xFFFFDD9F  |  4294958495 |
|      26 | 0xFFFFA44E  |  4294943822 |
|      27 | 0x007F      |         127 |
|      28 | 0x0028      |          40 |
|      29 | 0x3192      |       12690 |
|      30 | 0xFFFFCF7D  |  4294954877 |
|      31 | 0x0025      |          37 |
|      32 | 0x2E04      |       11780 |
|      33 | 0xFFFFCBDF  |  4294953951 |

## String References

- **8441**: That lad Raminel runs parcels for us. Ever does he toil to support his ill mother. Why, it brings tears to my eyes!

## Events

### Event 65535

#### Metadata

| Field        | Value   |
|--------------|---------|
| Entrypoint   | 0x0000  |
| Data Size    | 1 bytes |
| Instructions | 1       |

```
      00 01 02 03 04 05 06 07  08 09 0A 0B 0C 0D 0E 0F
      -- -- -- -- -- -- -- --  -- -- -- -- -- -- -- --
0000: 00                                                .               
```

#### Opcodes

```
  0: 0x0000 [0x00] END_REQSTACK()
```

### Event 0

#### Metadata

| Field        | Value   |
|--------------|---------|
| Entrypoint   | 0x0001  |
| Data Size    | 1 bytes |
| Instructions | 1       |

```
      00 01 02 03 04 05 06 07  08 09 0A 0B 0C 0D 0E 0F
      -- -- -- -- -- -- -- --  -- -- -- -- -- -- -- --
0000:    00                                              .              
```

#### Opcodes

```
  0: 0x0001 [0x00] END_REQSTACK()
```

### Event 660

#### Metadata

| Field        | Value    |
|--------------|----------|
| Entrypoint   | 0x0002   |
| Data Size    | 43 bytes |
| Instructions | 11       |

```
      00 01 02 03 04 05 06 07  08 09 0A 0B 0C 0D 0E 0F
      -- -- -- -- -- -- -- --  -- -- -- -- -- -- -- --
0000:       1E F0 FF FF 7F 6F  70 66 00 80 F8 FF FF 7F    .....opf......
0010: F8 FF FF 7F 74 6C 6B 30  1D 01 80 23 6E 71 60 0E  ....tlk0...#nq`.
0020: 01 02 80 99 71 60 0E 01  1C 03 80 21 00           ....q`.....!.   
```

#### Opcodes

```
  0: 0x0002 [0x1E] EventEntity looks at LocalPlayer and starts talking
  1: 0x0007 [0x6F] WAIT_FRAME_DELAY: Yield until WaitTime reaches zero
  2: 0x0008 [0x70] WAIT_ENTITY_RENDER_FLAG: Wait while EventEntity->Render.Flags3 bit 2 is set (cancel turn if not)
  3: 0x0009 [0x66] LOAD_EXT_SCHEDULER_MAIN: Load scheduler "tlk0" with entities [EventEntity, EventEntity], work=20*
  4: 0x0018 [0x1D] PRINT_EVENT_MESSAGE(message_id=8441*)
    → "That lad Raminel runs parcels for us. Ever does he toil to support his ill mother. Why, it brings tears to my eyes!"
  5: 0x001B [0x23] WAIT_FOR_DIALOG_INTERACTION
  6: 0x001C [0x6E] Arpetion (ID: 17719409/0x010E6071) uses emote 5*
  7: 0x0023 [0x99] Wait for Arpetion (ID: 17719409/0x010E6071) animation to complete
  8: 0x0028 [0x1C] WAIT(180* ticks)
  9: 0x002B [0x21] END_EVENT
 10: 0x002C [0x00] END_REQSTACK()
```

### Event 945

#### Metadata

| Field        | Value    |
|--------------|----------|
| Entrypoint   | 0x002D   |
| Data Size    | 10 bytes |
| Instructions | 2        |

```
      00 01 02 03 04 05 06 07  08 09 0A 0B 0C 0D 0E 0F
      -- -- -- -- -- -- -- --  -- -- -- -- -- -- -- --
0020:                                         6C F8 FF               l..
0030: FF 7F 04 80 05 80 00                              .......         
```

#### Opcodes

```
  0: 0x002D [0x6C] FADE_ENTITY_COLOR(entity_id=EventEntity, end_alpha=96*, fade_time=1*)
  1: 0x0036 [0x00] END_REQSTACK()
```

### Event 65535.1

#### Metadata

| Field        | Value    |
|--------------|----------|
| Entrypoint   | 0x0037   |
| Data Size    | 15 bytes |
| Instructions | 5        |

```
      00 01 02 03 04 05 06 07  08 09 0A 0B 0C 0D 0E 0F
      -- -- -- -- -- -- -- --  -- -- -- -- -- -- -- --
0030:                      32  06 80 1F 00 07 80 08 80         2........
0040: 09 80 1F 01 6F 00                                 ....o.          
```

#### Opcodes

```
  0: 0x0037 [0x32] ExtData[1]->MainSpeed = 11* * 0.1
  1: 0x003A [0x1F] MOVE_ENTITY: EventEntity moves to X=63.750*, Z=-15.112*, Y=1.999*
  2: 0x0042 [0x1F] MOVE_ENTITY: Update entity position (mode=1)
  3: 0x0044 [0x6F] WAIT_FRAME_DELAY: Yield until WaitTime reaches zero
  4: 0x0045 [0x00] END_REQSTACK()
```

### Event 65535.2

#### Metadata

| Field        | Value    |
|--------------|----------|
| Entrypoint   | 0x0046   |
| Data Size    | 68 bytes |
| Instructions | 12       |

```
      00 01 02 03 04 05 06 07  08 09 0A 0B 0C 0D 0E 0F
      -- -- -- -- -- -- -- --  -- -- -- -- -- -- -- --
0040:                   32 0A  80 1F 00 0B 80 0C 80 09        2.........
0050: 80 1F 01 6F 1E 3D 60 0E  01 6F 76 F8 FF FF 7F 4A  ...o.=`..ov....J
0060: 3D 60 0E 01 F8 FF FF 7F  5B 0D 80 F8 FF FF 7F F8  =`......[.......
0070: FF FF 7F 74 6C 6B 30 1C  0E 80 5B 0D 80 3D 60 0E  ...tlk0...[..=`.
0080: 01 3D 60 0E 01 74 68 6B  30 00                    .=`..thk0.      
```

#### Opcodes

```
  0: 0x0046 [0x32] ExtData[1]->MainSpeed = 19* * 0.1
  1: 0x0049 [0x1F] MOVE_ENTITY: EventEntity moves to X=32.710*, Z=-32.052*, Y=1.999*
  2: 0x0051 [0x1F] MOVE_ENTITY: Update entity position (mode=1)
  3: 0x0053 [0x6F] WAIT_FRAME_DELAY: Yield until WaitTime reaches zero
  4: 0x0054 [0x1E] EventEntity looks at Authere (ID: 17719357/0x010E603D) and starts talking
  5: 0x0059 [0x6F] WAIT_FRAME_DELAY: Yield until WaitTime reaches zero
  6: 0x005A [0x76] CHECK_ENTITY_RENDER_FLAGS: Wait until EventEntity Render.Flags0 and Render.Flags3 conditions are met
  7: 0x005F [0x4A] Authere (ID: 17719357/0x010E603D) looks at EventEntity
  8: 0x0068 [0x5B] LOAD_EXT_SCHEDULER: Load scheduler "tlk0" with entities [EventEntity, EventEntity], work=75*
  9: 0x0077 [0x1C] WAIT(30* ticks)
 10: 0x007A [0x5B] LOAD_EXT_SCHEDULER: Load scheduler "thk0" with entities [Authere (ID: 17719357/0x010E603D), Authere (ID: 17719357/0x010E603D)], work=75*
 11: 0x0089 [0x00] END_REQSTACK()
```

### Event 65535.3

#### Metadata

| Field        | Value    |
|--------------|----------|
| Entrypoint   | 0x008A   |
| Data Size    | 45 bytes |
| Instructions | 9        |

```
      00 01 02 03 04 05 06 07  08 09 0A 0B 0C 0D 0E 0F
      -- -- -- -- -- -- -- --  -- -- -- -- -- -- -- --
0080:                                32 0F 80 1F 00 10            2.....
0090: 80 11 80 09 80 1F 01 6F  4A 72 60 0E 01 F8 FF FF  .......oJr`.....
00A0: 7F 6F 76 72 60 0E 01 66  12 80 72 60 0E 01 72 60  .ovr`..f..r`..r`
00B0: 0E 01 74 77 61 30 00                              ..twa0.         
```

#### Opcodes

```
  0: 0x008A [0x32] ExtData[1]->MainSpeed = 39* * 0.1
  1: 0x008D [0x1F] MOVE_ENTITY: EventEntity moves to X=19.301*, Z=-28.036*, Y=1.999*
  2: 0x0095 [0x1F] MOVE_ENTITY: Update entity position (mode=1)
  3: 0x0097 [0x6F] WAIT_FRAME_DELAY: Yield until WaitTime reaches zero
  4: 0x0098 [0x4A] Vaquelage (ID: 17719410/0x010E6072) looks at EventEntity
  5: 0x00A1 [0x6F] WAIT_FRAME_DELAY: Yield until WaitTime reaches zero
  6: 0x00A2 [0x76] CHECK_ENTITY_RENDER_FLAGS: Wait until Vaquelage (ID: 17719410/0x010E6072) Render.Flags0 and Render.Flags3 conditions are met
  7: 0x00A7 [0x66] LOAD_EXT_SCHEDULER_MAIN: Load scheduler "twa0" with entities [Vaquelage (ID: 17719410/0x010E6072), Vaquelage (ID: 17719410/0x010E6072)], work=29*
  8: 0x00B6 [0x00] END_REQSTACK()
```

### Event 65535.4

#### Metadata

| Field        | Value    |
|--------------|----------|
| Entrypoint   | 0x00B7   |
| Data Size    | 89 bytes |
| Instructions | 16       |

```
      00 01 02 03 04 05 06 07  08 09 0A 0B 0C 0D 0E 0F
      -- -- -- -- -- -- -- --  -- -- -- -- -- -- -- --
00B0:                      32  13 80 1F 00 14 80 15 80         2........
00C0: 09 80 1F 01 6F 79 00 F8  FF FF 7F 7E 60 0E 01 4A  ....oy.....~`..J
00D0: 7E 60 0E 01 F8 FF FF 7F  6F 76 7E 60 0E 01 5B 0F  ~`......ov~`..[.
00E0: 80 7E 60 0E 01 7E 60 0E  01 74 6C 6B 30 1C 16 80  .~`..~`..tlk0...
00F0: 5B 0F 80 7E 60 0E 01 7E  60 0E 01 74 6C 6B 31 7B  [..~`..~`..tlk1{
0100: F8 FF FF 7F 1F 00 17 80  18 80 09 80 1F 01 6F 00  ..............o.
```

#### Opcodes

```
  0: 0x00B7 [0x32] ExtData[1]->MainSpeed = 13* * 0.1
  1: 0x00BA [0x1F] MOVE_ENTITY: EventEntity moves to X=-7.941*, Z=-0.808*, Y=1.999*
  2: 0x00C2 [0x1F] MOVE_ENTITY: Update entity position (mode=1)
  3: 0x00C4 [0x6F] WAIT_FRAME_DELAY: Yield until WaitTime reaches zero
  4: 0x00C5 [0x79] EventEntity looks at Ailevia (ID: 17719422/0x010E607E) (Basic look)
  5: 0x00CF [0x4A] Ailevia (ID: 17719422/0x010E607E) looks at EventEntity
  6: 0x00D8 [0x6F] WAIT_FRAME_DELAY: Yield until WaitTime reaches zero
  7: 0x00D9 [0x76] CHECK_ENTITY_RENDER_FLAGS: Wait until Ailevia (ID: 17719422/0x010E607E) Render.Flags0 and Render.Flags3 conditions are met
  8: 0x00DE [0x5B] LOAD_EXT_SCHEDULER: Load scheduler "tlk0" with entities [Ailevia (ID: 17719422/0x010E607E), Ailevia (ID: 17719422/0x010E607E)], work=39*
  9: 0x00ED [0x1C] WAIT(120* ticks)
 10: 0x00F0 [0x5B] LOAD_EXT_SCHEDULER: Load scheduler "tlk1" with entities [Ailevia (ID: 17719422/0x010E607E), Ailevia (ID: 17719422/0x010E607E)], work=39*
 11: 0x00FF [0x7B] EventEntity stops talking
 12: 0x0104 [0x1F] MOVE_ENTITY: EventEntity moves to X=-16.652*, Z=-10.275*, Y=1.999*
 13: 0x010C [0x1F] MOVE_ENTITY: Update entity position (mode=1)
 14: 0x010E [0x6F] WAIT_FRAME_DELAY: Yield until WaitTime reaches zero
 15: 0x010F [0x00] END_REQSTACK()
```

### Event 65535.5

#### Metadata

| Field        | Value    |
|--------------|----------|
| Entrypoint   | 0x0110   |
| Data Size    | 15 bytes |
| Instructions | 5        |

```
      00 01 02 03 04 05 06 07  08 09 0A 0B 0C 0D 0E 0F
      -- -- -- -- -- -- -- --  -- -- -- -- -- -- -- --
0110: 32 06 80 1F 00 19 80 1A  80 09 80 1F 01 6F 00     2............o. 
```

#### Opcodes

```
  0: 0x0110 [0x32] ExtData[1]->MainSpeed = 11* * 0.1
  1: 0x0113 [0x1F] MOVE_ENTITY: EventEntity moves to X=-8.801*, Z=-23.474*, Y=1.999*
  2: 0x011B [0x1F] MOVE_ENTITY: Update entity position (mode=1)
  3: 0x011D [0x6F] WAIT_FRAME_DELAY: Yield until WaitTime reaches zero
  4: 0x011E [0x00] END_REQSTACK()
```

### Event 65535.6

#### Metadata

| Field        | Value    |
|--------------|----------|
| Entrypoint   | 0x011F   |
| Data Size    | 10 bytes |
| Instructions | 2        |

```
      00 01 02 03 04 05 06 07  08 09 0A 0B 0C 0D 0E 0F
      -- -- -- -- -- -- -- --  -- -- -- -- -- -- -- --
0110:                                               6C                 l
0120: F8 FF FF 7F 1B 80 05 80  00                       .........       
```

#### Opcodes

```
  0: 0x011F [0x6C] FADE_ENTITY_COLOR(entity_id=EventEntity, end_alpha=127*, fade_time=1*)
  1: 0x0128 [0x00] END_REQSTACK()
```

### Event 65535.7

#### Metadata

| Field        | Value    |
|--------------|----------|
| Entrypoint   | 0x0129   |
| Data Size    | 15 bytes |
| Instructions | 5        |

```
      00 01 02 03 04 05 06 07  08 09 0A 0B 0C 0D 0E 0F
      -- -- -- -- -- -- -- --  -- -- -- -- -- -- -- --
0120:                             32 1C 80 1F 00 1D 80           2......
0130: 1E 80 09 80 1F 01 6F 00                           ......o.        
```

#### Opcodes

```
  0: 0x0129 [0x32] ExtData[1]->MainSpeed = 40* * 0.1
  1: 0x012C [0x1F] MOVE_ENTITY: EventEntity moves to X=12.690*, Z=-12.419*, Y=1.999*
  2: 0x0134 [0x1F] MOVE_ENTITY: Update entity position (mode=1)
  3: 0x0136 [0x6F] WAIT_FRAME_DELAY: Yield until WaitTime reaches zero
  4: 0x0137 [0x00] END_REQSTACK()
```

### Event 65535.8

#### Metadata

| Field        | Value    |
|--------------|----------|
| Entrypoint   | 0x0138   |
| Data Size    | 18 bytes |
| Instructions | 6        |

```
      00 01 02 03 04 05 06 07  08 09 0A 0B 0C 0D 0E 0F
      -- -- -- -- -- -- -- --  -- -- -- -- -- -- -- --
0130:                          1C 0E 80 32 1F 80 1F 00          ...2....
0140: 20 80 21 80 09 80 1F 01  6F 00                     .!.....o.      
```

#### Opcodes

```
  0: 0x0138 [0x1C] WAIT(30* ticks)
  1: 0x013B [0x32] ExtData[1]->MainSpeed = 37* * 0.1
  2: 0x013E [0x1F] MOVE_ENTITY: EventEntity moves to X=11.780*, Z=-13.345*, Y=1.999*
  3: 0x0146 [0x1F] MOVE_ENTITY: Update entity position (mode=1)
  4: 0x0148 [0x6F] WAIT_FRAME_DELAY: Yield until WaitTime reaches zero
  5: 0x0149 [0x00] END_REQSTACK()
```

### Event 3508

#### Metadata

| Field        | Value   |
|--------------|---------|
| Entrypoint   | 0x014A  |
| Data Size    | 1 bytes |
| Instructions | 1       |

```
      00 01 02 03 04 05 06 07  08 09 0A 0B 0C 0D 0E 0F
      -- -- -- -- -- -- -- --  -- -- -- -- -- -- -- --
0140:                                00                           .     
```

#### Opcodes

```
  0: 0x014A [0x00] END_REQSTACK()
```
