# 17719381 - Kipopo

## Common Data

| Field            | Value                         |
|------------------|-------------------------------|
| Zone             | Southern San d'Oria (ID: 230) |
| Block Size       | 5572 bytes                    |
| Total Events     | 11                            |
| References Count | 143                           |

## List of Events

| Event ID                 | Entrypoint   |   Size |   Instructions |
|--------------------------|--------------|--------|----------------|
| [65535](#event-65535)    | 0x0000       |      1 |              1 |
| [651](#event-651)        | 0x0001       |    380 |             90 |
| [908](#event-908)        | 0x017D       |   2717 |            344 |
| [909](#event-909)        | 0x0C1A       |     25 |              9 |
| [910](#event-910)        | 0x0C33       |    349 |             49 |
| [911](#event-911)        | 0x0D90       |     10 |              6 |
| [912](#event-912)        | 0x0D9A       |    746 |            106 |
| [913](#event-913)        | 0x1084       |     10 |              6 |
| [914](#event-914)        | 0x108E       |    696 |            100 |
| [65535.1](#event-655351) | 0x1346       |      4 |              2 |
| [65535.2](#event-655352) | 0x134A       |      2 |              2 |

## DAT References (imed_data)

|   Index | Hex Value   |   Dec Value |
|---------|-------------|-------------|
|       0 | 0x0005      |           5 |
|       1 | 0x1A9A      |        6810 |
|       2 | 0x0002      |           2 |
|       3 | 0x0000      |           0 |
|       4 | 0x1AE8      |        6888 |
|       5 | 0x1AEA      |        6890 |
|       6 | 0x00C8      |         200 |
|       7 | 0x005A      |          90 |
|       8 | 0x0001      |           1 |
|       9 | 0x1AEB      |        6891 |
|      10 | 0x1A9F      |        6815 |
|      11 | 0x1AC5      |        6853 |
|      12 | 0x1AA3      |        6819 |
|      13 | 0x1AA2      |        6818 |
|      14 | 0x1AA1      |        6817 |
|      15 | 0x1AA0      |        6816 |
|      16 | 0x1AEC      |        6892 |
|      17 | 0x1AE7      |        6887 |
|      18 | 0x34C2      |       13506 |
|      19 | 0x041C      |        1052 |
|      20 | 0x34C3      |       13507 |
|      21 | 0x003C      |          60 |
|      22 | 0x0013      |          19 |
|      23 | 0x0146      |         326 |
|      24 | 0x245EA     |      148970 |
|      25 | 0x2695A     |      158042 |
|      26 | 0xFFFFF830  |  4294965296 |
|      27 | 0x0F0E      |        3854 |
|      28 | 0xFFFD1B85  |  4294777733 |
|      29 | 0x2D53      |       11603 |
|      30 | 0xFFFFFC18  |  4294966296 |
|      31 | 0x095E      |        2398 |
|      32 | 0xFFFD1633  |  4294776371 |
|      33 | 0x2F46      |       12102 |
|      34 | 0xFFFFFB92  |  4294966162 |
|      35 | 0x01C3      |         451 |
|      36 | 0x0155      |         341 |
|      37 | 0x00B4      |         180 |
|      38 | 0x0015      |          21 |
|      39 | 0x0078      |         120 |
|      40 | 0x0028      |          40 |
|      41 | 0x34C4      |       13508 |
|      42 | 0x34C5      |       13509 |
|      43 | 0x34C6      |       13510 |
|      44 | 0x001E      |          30 |
|      45 | 0x005E      |          94 |
|      46 | 0x00FF      |         255 |
|      47 | 0x245C8     |      148936 |
|      48 | 0x3B9E4     |      244196 |
|      49 | 0xFFFFE13E  |  4294959422 |
|      50 | 0x07EC      |        2028 |
|      51 | 0x009F      |         159 |
|      52 | 0x0690      |        1680 |
|      53 | 0x34C7      |       13511 |
|      54 | 0x34C8      |       13512 |
|      55 | 0x241ED     |      147949 |
|      56 | 0x3B6F1     |      243441 |
|      57 | 0xFFFFE13D  |  4294959421 |
|      58 | 0x0FED      |        4077 |
|      59 | 0x2424F     |      148047 |
|      60 | 0x3B315     |      242453 |
|      61 | 0x24651     |      149073 |
|      62 | 0x3B506     |      242950 |
|      63 | 0x084C      |        2124 |
|      64 | 0x09B5      |        2485 |
|      65 | 0x0055      |          85 |
|      66 | 0x34C9      |       13513 |
|      67 | 0x0051      |          81 |
|      68 | 0x34CA      |       13514 |
|      69 | 0x0096      |         150 |
|      70 | 0x34CB      |       13515 |
|      71 | 0x34CC      |       13516 |
|      72 | 0x34CD      |       13517 |
|      73 | 0x34CE      |       13518 |
|      74 | 0x34CF      |       13519 |
|      75 | 0x34D0      |       13520 |
|      76 | 0x0006      |           6 |
|      77 | 0x34D1      |       13521 |
|      78 | 0x00C9      |         201 |
|      79 | 0x34D2      |       13522 |
|      80 | 0x34D3      |       13523 |
|      81 | 0x00E6      |         230 |
|      82 | 0xFFFD2BD5  |  4294781909 |
|      83 | 0x062C      |        1580 |
|      84 | 0xFFFFF831  |  4294965297 |
|      85 | 0x0D50      |        3408 |
|      86 | 0xFFFD3BD6  |  4294786006 |
|      87 | 0x1432      |        5170 |
|      88 | 0x0972      |        2418 |
|      89 | 0x34D4      |       13524 |
|      90 | 0x34D5      |       13525 |
|      91 | 0x34D6      |       13526 |
|      92 | 0x0097      |         151 |
|      93 | 0x34D7      |       13527 |
|      94 | 0x0008      |           8 |
|      95 | 0x34D8      |       13528 |
|      96 | 0x0020      |          32 |
|      97 | 0x34D9      |       13529 |
|      98 | 0x34DA      |       13530 |
|      99 | 0x001A      |          26 |
|     100 | 0x34DB      |       13531 |
|     101 | 0x000B      |          11 |
|     102 | 0x34DC      |       13532 |
|     103 | 0x07DC      |        2012 |
|     104 | 0x0352      |         850 |
|     105 | 0x0330      |         816 |
|     106 | 0x34DD      |       13533 |
|     107 | 0x006B      |         107 |
|     108 | 0x34DE      |       13534 |
|     109 | 0x34DF      |       13535 |
|     110 | 0x34E0      |       13536 |
|     111 | 0x0091      |         145 |
|     112 | 0x34E1      |       13537 |
|     113 | 0x34E2      |       13538 |
|     114 | 0x000D      |          13 |
|     115 | 0x34E3      |       13539 |
|     116 | 0x34E4      |       13540 |
|     117 | 0x0032      |          50 |
|     118 | 0x34E5      |       13541 |
|     119 | 0x001D      |          29 |
|     120 | 0x34E6      |       13542 |
|     121 | 0x0004      |           4 |
|     122 | 0x34E7      |       13543 |
|     123 | 0x000C      |          12 |
|     124 | 0x34E8      |       13544 |
|     125 | 0x34E9      |       13545 |
|     126 | 0x002D      |          45 |
|     127 | 0x4AA6      |       19110 |
|     128 | 0x34EA      |       13546 |
|     129 | 0x34EB      |       13547 |
|     130 | 0x34EC      |       13548 |
|     131 | 0x34ED      |       13549 |
|     132 | 0x34EE      |       13550 |
|     133 | 0x34EF      |       13551 |
|     134 | 0x34F0      |       13552 |
|     135 | 0xFFFD2072  |  4294778994 |
|     136 | 0x3249      |       12873 |
|     137 | 0x0845      |        2117 |
|     138 | 0x0019      |          25 |
|     139 | 0x34F1      |       13553 |
|     140 | 0x0120      |         288 |
|     141 | 0x0024      |          36 |
|     142 | 0x34F2      |       13554 |

## String References

- **6810**: Request...? [[Advanced synthesis/Synthesis/Synthesis] image support./Information on synthesis materials./Nothing.]
- **6815**: Necessary skills: [Fishing/Woodworking/Smithing/Goldsmithing/Clothcraft/Leatherworking/Bonecraft/Alchemy/Cooking][ /, Woodworking/, Smithing/, Goldsmithing/, Clothcraft/, Leatherworking/, Bonecraft/, Alchemy/, Cooking][ /, Woodworking/, Smithing/, Goldsmithing/, Clothcraft/, Leatherworking/, Bonecraft/, Alchemy/, Cooking][ /, & Woodworking/, & Smithing/, & Goldsmithing/, & Clothcraft/, & Leatherworking/, & Bonecraft/, & Alchemy/, & Cooking] Necessary crystal: $4 Necessary items:
- **6816**: $4 x $0 $5 x $0$0 $6 x $0 $7 x $0$3
- **6817**: $4 x $0 $5 x $0$0 $6 x $0
- **6818**: $4 x $0 $5 x $0$0
- **6819**: $4 x $0
- **6853**: Necessary skills: [Fishing/Woodworking/Smithing/Goldsmithing/Clothcraft/Leatherworking/Bonecraft/Alchemy/Cooking][ /, Woodworking/, Smithing/, Goldsmithing/, Clothcraft/, Leatherworking/, Bonecraft/, Alchemy/, Cooking][ /, Woodworking/, Smithing/, Goldsmithing/, Clothcraft/, Leatherworking/, Bonecraft/, Alchemy/, Cooking][ /, & Woodworking/, & Smithing/, & Goldsmithing/, & Clothcraft/, & Leatherworking/, & Bonecraft/, & Alchemy/, & Cooking] Necessary crystal: $4 Necessary key item: $3 Necessary items:
- **6887**: Splish splosh I was takin' a bath.t All upon a Thundersday night.t
- **6888**: Hah hah! I'm flattered, but I don't thinky-wink you need me now.
- **6890**: Okey-dokey! Now, if you'd close your eyes and come a little closer...
- **6891**: For you? Hmm... How aboutaru $0? You'll need...
- **6892**: Did you get that? If you can't findy-wind all the goodies you need, you could try the auction house.
- **13506**: Yes? What can I do for you?
- **13507**: What is it? [Nothing in particular./Show the $3.]
- **13530**: Have Kipopo repair the handbag? [No thanks./That'd be greataru!]
- **13533**: Now, I'll need some materials to restore the handbag to its original state. Could you findy-wind me $0, $1, and $2?
- **13536**: I'm up to my ears in work rightaru now, but I'll get started on the repairs as soon as possible.
- **13545**: How are you liking the handbag? Just make sure Tek doesn't getaru her claws on it...I can't guarantee I'll be able to fix it again if she does!

## Events

### Event 65535

#### Metadata

| Field        | Value   |
|--------------|---------|
| Entrypoint   | 0x0000  |
| Data Size    | 1 bytes |
| Instructions | 1       |

```
      00 01 02 03 04 05 06 07  08 09 0A 0B 0C 0D 0E 0F
      -- -- -- -- -- -- -- --  -- -- -- -- -- -- -- --
0000: 00                                                .               
```

#### Opcodes

```
  0: 0x0000 [0x00] END_REQSTACK()
```

### Event 651

#### Metadata

| Field        | Value     |
|--------------|-----------|
| Entrypoint   | 0x0001    |
| Data Size    | 380 bytes |
| Instructions | 90        |

```
      00 01 02 03 04 05 06 07  08 09 0A 0B 0C 0D 0E 0F
      -- -- -- -- -- -- -- --  -- -- -- -- -- -- -- --
0000:    3E 05 10 00 80 77 01  24 01 80 02 80 03 80 25   >....w.$......%
0010: 02 00 10 03 80 00 59 00  02 07 10 03 80 01 27 00  ......Y.......'.
0020: 1D 04 80 23 01 56 00 1D  05 80 23 42 45 06 80 F8  ...#.V....#BE...
0030: FF FF 7F F8 FF FF 7F 66  64 6F 31 03 80 1C 07 80  .......fdo1.....
0040: 45 06 80 F8 FF FF 7F F8  FF FF 7F 66 64 69 31 03  E..........fdi1.
0050: 80 03 01 10 08 80 01 74  01 02 00 10 08 80 00 69  .......t.......i
0060: 01 03 08 10 00 80 8C 00  08 10 03 10 04 10 8C 01  ................
0070: 03 02 10 40 10 1D 09 80  23 03 03 10 41 10 03 04  ...@....#...A...
0080: 10 42 10 03 05 10 43 10  03 06 10 44 10 03 07 10  .B....C....D....
0090: 55 10 02 07 10 03 80 00  A1 00 48 0A 80 23 01 A5  U.........H..#..
00A0: 00 48 0B 80 23 03 02 10  45 10 03 03 10 46 10 03  .H..#...E....F..
00B0: 04 10 47 10 03 05 10 48  10 03 06 10 4D 10 03 07  ..G....H....M...
00C0: 10 4E 10 03 08 10 4F 10  03 09 10 50 10 02 07 10  .N....O....P....
00D0: 03 80 00 DC 00 48 0C 80  23 01 62 01 02 08 10 03  .....H..#.b.....
00E0: 80 00 EB 00 48 0D 80 23  01 62 01 02 09 10 03 80  ....H..#.b......
00F0: 00 FA 00 48 0E 80 23 01  62 01 48 0F 80 23 03 02  ...H..#.b.H..#..
0100: 10 49 10 03 03 10 4A 10  03 04 10 4B 10 03 05 10  .I....J....K....
0110: 4C 10 03 06 10 51 10 03  07 10 52 10 03 08 10 53  L....Q....R....S
0120: 10 03 09 10 54 10 02 06  10 03 80 00 31 01 01 62  ....T.......1..b
0130: 01 02 07 10 03 80 00 40  01 48 0C 80 23 01 62 01  .......@.H..#.b.
0140: 02 08 10 03 80 00 4F 01  48 0D 80 23 01 62 01 02  ......O.H..#.b..
0150: 09 10 03 80 00 5E 01 48  0E 80 23 01 62 01 48 0F  .....^.H..#.b.H.
0160: 80 23 1D 10 80 23 01 74  01 02 00 10 02 80 00 74  .#...#.t.......t
0170: 01 01 74 01 01 7B 01 1D  11 80 23 21 00           ..t..{....#!.   
```

#### Opcodes

```
  0: 0x0001 [0x3E] IF !(Work_Zone[5] bit 5*) GOTO 0x0177
  1: 0x0008 [0x24] CREATE_DIALOG(message_id=6810*, default_option=2*, option_flags=0*)
    → "Request...? [[Advanced synthesis/Synthesis/Synthesis] image support./Information on synthesis materials./Nothing.]"
  2: 0x000F [0x25] WAIT_DIALOG_SELECT()
  3: 0x0010 [0x02] IF !(Work_Zone[0] == 0*) GOTO 0x0059
  4: 0x0018 [0x02] IF !(Work_Zone[7] == 0*) GOTO 0x0027
  5: 0x0020 [0x1D] PRINT_EVENT_MESSAGE(message_id=6888*)
    → "Hah hah! I'm flattered, but I don't thinky-wink you need me now."
  6: 0x0023 [0x23] WAIT_FOR_DIALOG_INTERACTION
  7: 0x0024 [0x01] GOTO 0x0056
  8: 0x0027 [0x1D] PRINT_EVENT_MESSAGE(message_id=6890*)
    → "Okey-dokey! Now, if you'd close your eyes and come a little closer..."
  9: 0x002A [0x23] WAIT_FOR_DIALOG_INTERACTION
 10: 0x002B [0x42] SET_CLI_EVENT_CANCEL_DATA()
 11: 0x002C [0x45] LOAD_SCHEDULED_TASK: Load scheduler "fdo1" with entities [EventEntity, EventEntity], work=[200*, 0*]
 12: 0x003D [0x1C] WAIT(90* ticks)
 13: 0x0040 [0x45] LOAD_SCHEDULED_TASK: Load scheduler "fdi1" with entities [EventEntity, EventEntity], work=[200*, 0*]
 14: 0x0051 [0x03] Work_Zone[1] = 1*

SUBROUTINE_0056:
 15: 0x0056 [0x01] GOTO 0x0174
 16: 0x0059 [0x02] IF !(Work_Zone[0] == 1*) GOTO 0x0169
 17: 0x0061 [0x03] Work_Zone[8] = 5*
 18: 0x0066 [0x8C] CRAFTING_HANDLER(mode=0x00) // Initialize crafting session
 19: 0x006E [0x8C] CRAFTING_HANDLER(mode=0x01) // End crafting session
 20: 0x0070 [0x03] Work_Zone[2] = Work_Zone[64]
 21: 0x0075 [0x1D] PRINT_EVENT_MESSAGE(message_id=6891*)
    → "For you? Hmm... How aboutaru $0? You'll need..."
 22: 0x0078 [0x23] WAIT_FOR_DIALOG_INTERACTION
 23: 0x0079 [0x03] Work_Zone[3] = Work_Zone[65]
 24: 0x007E [0x03] Work_Zone[4] = Work_Zone[66]
 25: 0x0083 [0x03] Work_Zone[5] = Work_Zone[67]
 26: 0x0088 [0x03] Work_Zone[6] = Work_Zone[68]
 27: 0x008D [0x03] Work_Zone[7] = Work_Zone[85]
 28: 0x0092 [0x02] IF !(Work_Zone[7] == 0*) GOTO 0x00A1
 29: 0x009A [0x48] [System] [6815*]:
    → "Necessary skills: [Fishing/Woodworking/Smithing/Goldsmithing/Clothcraft/Leatherworking/Bonecraft/Alchemy/Cooking][ /, Woodworking/, Smithing/, Goldsmithing/, Clothcraft/, Leatherworking/, Bonecraft/, Alchemy/, Cooking][ /, Woodworking/, Smithing/, Goldsmithing/, Clothcraft/, Leatherworking/, Bonecraft/, Alchemy/, Cooking][ /, & Woodworking/, & Smithing/, & Goldsmithing/, & Clothcraft/, & Leatherworking/, & Bonecraft/, & Alchemy/, & Cooking] Necessary crystal: $4 Necessary items:"
 30: 0x009D [0x23] WAIT_FOR_DIALOG_INTERACTION
 31: 0x009E [0x01] GOTO 0x00A5
 32: 0x00A1 [0x48] [System] [6853*]:
    → "Necessary skills: [Fishing/Woodworking/Smithing/Goldsmithing/Clothcraft/Leatherworking/Bonecraft/Alchemy/Cooking][ /, Woodworking/, Smithing/, Goldsmithing/, Clothcraft/, Leatherworking/, Bonecraft/, Alchemy/, Cooking][ /, Woodworking/, Smithing/, Goldsmithing/, Clothcraft/, Leatherworking/, Bonecraft/, Alchemy/, Cooking][ /, & Woodworking/, & Smithing/, & Goldsmithing/, & Clothcraft/, & Leatherworking/, & Bonecraft/, & Alchemy/, & Cooking] Necessary crystal: $4 Necessary key item: $3 Necessary items:"
 33: 0x00A4 [0x23] WAIT_FOR_DIALOG_INTERACTION

SUBROUTINE_00A5:
 34: 0x00A5 [0x03] Work_Zone[2] = Work_Zone[69]
 35: 0x00AA [0x03] Work_Zone[3] = Work_Zone[70]
 36: 0x00AF [0x03] Work_Zone[4] = Work_Zone[71]
 37: 0x00B4 [0x03] Work_Zone[5] = Work_Zone[72]
 38: 0x00B9 [0x03] Work_Zone[6] = Work_Zone[77]
 39: 0x00BE [0x03] Work_Zone[7] = Work_Zone[78]
 40: 0x00C3 [0x03] Work_Zone[8] = Work_Zone[79]
 41: 0x00C8 [0x03] Work_Zone[9] = Work_Zone[80]
 42: 0x00CD [0x02] IF !(Work_Zone[7] == 0*) GOTO 0x00DC
 43: 0x00D5 [0x48] [System] [6819*]:
    → "$4 x $0"
 44: 0x00D8 [0x23] WAIT_FOR_DIALOG_INTERACTION
 45: 0x00D9 [0x01] GOTO 0x0162
 46: 0x00DC [0x02] IF !(Work_Zone[8] == 0*) GOTO 0x00EB
 47: 0x00E4 [0x48] [System] [6818*]:
    → "$4 x $0 $5 x $0$0"
 48: 0x00E7 [0x23] WAIT_FOR_DIALOG_INTERACTION
 49: 0x00E8 [0x01] GOTO 0x0162
 50: 0x00EB [0x02] IF !(Work_Zone[9] == 0*) GOTO 0x00FA
 51: 0x00F3 [0x48] [System] [6817*]:
    → "$4 x $0 $5 x $0$0 $6 x $0"
 52: 0x00F6 [0x23] WAIT_FOR_DIALOG_INTERACTION
 53: 0x00F7 [0x01] GOTO 0x0162
 54: 0x00FA [0x48] [System] [6816*]:
    → "$4 x $0 $5 x $0$0 $6 x $0 $7 x $0$3"
 55: 0x00FD [0x23] WAIT_FOR_DIALOG_INTERACTION
 56: 0x00FE [0x03] Work_Zone[2] = Work_Zone[73]
 57: 0x0103 [0x03] Work_Zone[3] = Work_Zone[74]
 58: 0x0108 [0x03] Work_Zone[4] = Work_Zone[75]
 59: 0x010D [0x03] Work_Zone[5] = Work_Zone[76]
 60: 0x0112 [0x03] Work_Zone[6] = Work_Zone[81]
 61: 0x0117 [0x03] Work_Zone[7] = Work_Zone[82]
 62: 0x011C [0x03] Work_Zone[8] = Work_Zone[83]
 63: 0x0121 [0x03] Work_Zone[9] = Work_Zone[84]
 64: 0x0126 [0x02] IF !(Work_Zone[6] == 0*) GOTO 0x0131
 65: 0x012E [0x01] GOTO 0x0162
 66: 0x0131 [0x02] IF !(Work_Zone[7] == 0*) GOTO 0x0140
 67: 0x0139 [0x48] [System] [6819*]:
    → "$4 x $0"
 68: 0x013C [0x23] WAIT_FOR_DIALOG_INTERACTION
 69: 0x013D [0x01] GOTO 0x0162
 70: 0x0140 [0x02] IF !(Work_Zone[8] == 0*) GOTO 0x014F
 71: 0x0148 [0x48] [System] [6818*]:
    → "$4 x $0 $5 x $0$0"
 72: 0x014B [0x23] WAIT_FOR_DIALOG_INTERACTION
 73: 0x014C [0x01] GOTO 0x0162
 74: 0x014F [0x02] IF !(Work_Zone[9] == 0*) GOTO 0x015E
 75: 0x0157 [0x48] [System] [6817*]:
    → "$4 x $0 $5 x $0$0 $6 x $0"
 76: 0x015A [0x23] WAIT_FOR_DIALOG_INTERACTION
 77: 0x015B [0x01] GOTO 0x0162
 78: 0x015E [0x48] [System] [6816*]:
    → "$4 x $0 $5 x $0$0 $6 x $0 $7 x $0$3"
 79: 0x0161 [0x23] WAIT_FOR_DIALOG_INTERACTION

SUBROUTINE_0162:
 80: 0x0162 [0x1D] PRINT_EVENT_MESSAGE(message_id=6892*)
    → "Did you get that? If you can't findy-wind all the goodies you need, you could try the auction house."
 81: 0x0165 [0x23] WAIT_FOR_DIALOG_INTERACTION
 82: 0x0166 [0x01] GOTO 0x0174
 83: 0x0169 [0x02] IF !(Work_Zone[0] == 2*) GOTO 0x0174
 84: 0x0171 [0x01] GOTO 0x0174

SUBROUTINE_0174:
 85: 0x0174 [0x01] GOTO 0x017B
 86: 0x0177 [0x1D] PRINT_EVENT_MESSAGE(message_id=6887*)
    → "Splish splosh I was takin' a bath.t All upon a Thundersday night.t"
 87: 0x017A [0x23] WAIT_FOR_DIALOG_INTERACTION

SUBROUTINE_017B:
 88: 0x017B [0x21] END_EVENT
 89: 0x017C [0x00] END_REQSTACK()
```

### Event 908

#### Metadata

| Field        | Value      |
|--------------|------------|
| Entrypoint   | 0x017D     |
| Data Size    | 2717 bytes |
| Instructions | 39         |

```
      00 01 02 03 04 05 06 07  08 09 0A 0B 0C 0D 0E 0F
      -- -- -- -- -- -- -- --  -- -- -- -- -- -- -- --
0170:                                         42 20 01               B .
0180: 1D 12 80 23 03 02 10 13  80 24 14 80 03 80 03 80  ...#.....$......
0190: 25 02 00 10 03 80 00 B3  01 45 06 80 F0 FF FF 7F  %........E......
01A0: F0 FF FF 7F 66 64 69 31  03 80 1C 15 80 01 16 0C  ....fdi1........
01B0: 01 D7 0B 02 00 10 08 80  00 D7 0B 45 06 80 F0 FF  ...........E....
01C0: FF 7F F0 FF FF 7F 66 64  6F 31 03 80 1C 15 80 46  ......fdo1.....F
01D0: 01 38 16 80 75 00 17 80  75 01 80 F0 FF FF 7F 4E  .8..u...u......N
01E0: 01 55 60 0E 01 BA 55 60  0E 01 18 80 19 80 1A 80  .U`...U`........
01F0: 1B 80 4E 01 3D 61 0E 01  BA F0 FF FF 7F 1C 80 1D  ..N.=a..........
0200: 80 1E 80 1F 80 2F 00 3C  61 0E 01 4E 00 3C 61 0E  ...../.<a..N.<a.
0210: 01 BA 3C 61 0E 01 20 80  21 80 22 80 23 80 80 3C  ..<a.. .!.".#..<
0220: 61 0E 01 92 01 3C 61 0E  01 4A 3C 61 0E 01 F0 FF  a....<a..J<a....
0230: FF 7F 6F 70 92 01 54 60  0E 01 92 01 56 60 0E 01  ..op..T`....V`..
0240: 80 54 60 0E 01 80 56 60  0E 01 79 00 F0 FF FF 7F  .T`...V`..y.....
0250: 3C 61 0E 01 45 24 80 F0  FF FF 7F F0 FF FF 7F 33  <a..E$.........3
0260: 30 30 31 03 80 45 06 80  F0 FF FF 7F F0 FF FF 7F  001..E..........
0270: 66 64 69 31 03 80 1C 25  80 6E 3C 61 0E 01 26 80  fdi1...%.n<a..&.
0280: 99 3C 61 0E 01 99 3C 61  0E 01 1C 27 80 52 24 80  .<a...<a...'.R$.
0290: F0 FF FF 7F F0 FF FF 7F  33 30 30 31 45 06 80 F0  ........3001E...
02A0: FF FF 7F F0 FF FF 7F 6F  76 6C 31 03 80 45 24 80  .......ovl1..E$.
02B0: F0 FF FF 7F F0 FF FF 7F  33 30 30 32 03 80 03 01  ........3002....
02C0: 10 08 80 66 28 80 3C 61  0E 01 3C 61 0E 01 74 6C  ...f(.<a..<a..tl
02D0: 6B 30 2B 3C 61 0E 01 29  80 23 2B 3C 61 0E 01 2A  k0+<a..).#+<a..*
02E0: 80 23 52 24 80 F0 FF FF  7F F0 FF FF 7F 33 30 30  .#R$.........300
02F0: 32 45 24 80 F0 FF FF 7F  F0 FF FF 7F 33 30 30 35  2E$.........3005
0300: 03 80 2B 3C 61 0E 01 2B  80 23 53 3C 61 0E 01 3C  ..+<a..+.#S<a..<
0310: 61 0E 01 74 6C 6B 30 1C  15 80 45 06 80 F8 FF FF  a..tlk0...E.....
0320: 7F F8 FF FF 7F 66 64 6F  31 03 80 55 06 80 F8 FF  .....fdo1..U....
0330: FF 7F F8 FF FF 7F 66 64  6F 31 4E 01 54 60 0E 01  ......fdo1N.T`..
0340: 4E 01 56 60 0E 01 1C 2C  80 29 0F 55 60 0E 01 09  N.V`...,.).U`...
0350: 29 0F 54 60 0E 01 0A 29  0F 56 60 0E 01 06 BA 54  ).T`...).V`....T
0360: 60 0E 01 18 80 19 80 1A  80 1B 80 BA 56 60 0E 01  `...........V`..
0370: 18 80 19 80 1A 80 1B 80  98 1C 08 80 34 2D 80 77  ............4-.w
0380: 2E 80 08 80 AB 09 1C 2C  80 4E 01 F0 FF FF 7F 2F  .......,.N...../
0390: 00 3E 61 0E 01 4E 00 3E  61 0E 01 BA 3E 61 0E 01  .>a..N.>a...>a..
03A0: 2F 80 30 80 31 80 32 80  80 3E 61 0E 01 92 01 3E  /.0.1.2..>a....>
03B0: 61 0E 01 5C 00 33 80 5C  01 33 80 9A 52 24 80 F0  a..\.3.\.3..R$..
03C0: FF FF 7F F0 FF FF 7F 33  30 30 35 45 24 80 F0 FF  .......3005E$...
03D0: FF 7F F0 FF FF 7F 39 34  30 37 03 80 1C 00 80 45  ......9407.....E
03E0: 06 80 F0 FF FF 7F F0 FF  FF 7F 66 64 69 31 03 80  ..........fdi1..
03F0: 45 24 80 F0 FF FF 7F F0  FF FF 7F 6B 61 6B 6F 03  E$.........kako.
0400: 80 29 0F 3E 61 0E 01 02  4B 3E 61 0E 01 34 80 6F  .).>a...K>a..4.o
0410: 70 66 28 80 3E 61 0E 01  3E 61 0E 01 74 6C 6B 30  pf(.>a..>a..tlk0
0420: 2B 3E 61 0E 01 35 80 23  2B 3E 61 0E 01 36 80 23  +>a..5.#+>a..6.#
0430: 66 28 80 3E 61 0E 01 3E  61 0E 01 74 6C 6B 31 45  f(.>a..>a..tlk1E
0440: 06 80 F0 FF FF 7F F0 FF  FF 7F 66 64 6F 31 03 80  ..........fdo1..
0450: 1C 15 80 45 24 80 F0 FF  FF 7F F0 FF FF 7F 64 6F  ...E$.........do
0460: 70 6E 03 80 52 24 80 F0  FF FF 7F F0 FF FF 7F 39  pn..R$.........9
0470: 34 30 37 2F 00 3F 61 0E  01 4E 00 3F 61 0E 01 BA  407/.?a..N.?a...
0480: 3F 61 0E 01 37 80 38 80  39 80 3A 80 80 3F 61 0E  ?a..7.8.9.:..?a.
0490: 01 92 01 3F 61 0E 01 2F  00 40 61 0E 01 4E 00 40  ...?a../.@a..N.@
04A0: 61 0E 01 BA 40 61 0E 01  3B 80 3C 80 39 80 3A 80  a...@a..;.<.9.:.
04B0: 80 40 61 0E 01 92 01 40  61 0E 01 BA 3E 61 0E 01  .@a....@a...>a..
04C0: 3D 80 3E 80 39 80 3F 80  1C 15 80 45 24 80 F0 FF  =.>.9.?....E$...
04D0: FF 7F F0 FF FF 7F 64 63  6C 73 03 80 1C 15 80 45  ......dcls.....E
04E0: 24 80 F0 FF FF 7F F0 FF  FF 7F 39 34 30 38 03 80  $.........9408..
04F0: 45 06 80 F0 FF FF 7F F0  FF FF 7F 66 64 69 31 03  E..........fdi1.
0500: 80 45 24 80 F0 FF FF 7F  F0 FF FF 7F 6B 61 6B 6F  .E$.........kako
0510: 03 80 1C 15 80 1C 07 80  52 24 80 F0 FF FF 7F F0  ........R$......
0520: FF FF 7F 39 34 30 38 45  06 80 F0 FF FF 7F F0 FF  ...9408E........
0530: FF 7F 6F 76 6C 31 03 80  45 24 80 F0 FF FF 7F F0  ..ovl1..E$......
0540: FF FF 7F 39 34 31 36 03  80 4B 3F 61 0E 01 40 80  ...9416..K?a..@.
0550: 6F 70 79 00 3E 61 0E 01  3F 61 0E 01 5B 41 80 3F  opy.>a..?a..[A.?
0560: 61 0E 01 3F 61 0E 01 74  6C 6B 30 2B 3F 61 0E 01  a..?a..tlk0+?a..
0570: 42 80 23 5B 41 80 3F 61  0E 01 3F 61 0E 01 74 6C  B.#[A.?a..?a..tl
0580: 6B 65 1C 2C 80 52 24 80  F0 FF FF 7F F0 FF FF 7F  ke.,.R$.........
0590: 39 34 31 36 45 24 80 F0  FF FF 7F F0 FF FF 7F 39  9416E$.........9
05A0: 34 31 37 03 80 1C 15 80  79 00 3E 61 0E 01 40 61  417.....y.>a..@a
05B0: 0E 01 4A 40 61 0E 01 3E  61 0E 01 5B 43 80 40 61  ..J@a..>a..[C.@a
05C0: 0E 01 40 61 0E 01 68 61  69 30 2B 40 61 0E 01 44  ..@a..hai0+@a..D
05D0: 80 23 53 40 61 0E 01 40  61 0E 01 68 61 69 30 52  .#S@a..@a..hai0R
05E0: 24 80 F0 FF FF 7F F0 FF  FF 7F 39 34 31 37 45 24  $.........9417E$
05F0: 80 F0 FF FF 7F F0 FF FF  7F 39 34 30 34 03 80 7B  .........9404..{
0600: 3E 61 0E 01 1C 45 80 27  0F 41 61 0E 01 02 1C 15  >a...E.'.Aa.....
0610: 80 6E 3E 61 0E 01 26 80  99 3E 61 0E 01 2B 3E 61  .n>a..&..>a..+>a
0620: 0E 01 46 80 23 99 3E 61  0E 01 1C 07 80 52 24 80  ..F.#.>a.....R$.
0630: F0 FF FF 7F F0 FF FF 7F  39 34 30 34 45 06 80 F0  ........9404E...
0640: FF FF 7F F0 FF FF 7F 6F  76 6C 31 03 80 45 24 80  .......ovl1..E$.
0650: F0 FF FF 7F F0 FF FF 7F  39 34 30 39 03 80 4A 3F  ........9409..J?
0660: 61 0E 01 3E 61 0E 01 79  00 3F 61 0E 01 3E 61 0E  a..>a..y.?a..>a.
0670: 01 79 00 3E 61 0E 01 3F  61 0E 01 5B 41 80 3F 61  .y.>a..?a..[A.?a
0680: 0E 01 3F 61 0E 01 74 6C  6B 30 2B 3F 61 0E 01 47  ..?a..tlk0+?a..G
0690: 80 23 79 00 F0 FF FF 7F  3F 61 0E 01 5B 41 80 3F  .#y.....?a..[A.?
06A0: 61 0E 01 3F 61 0E 01 74  6C 6B 65 1C 2C 80 66 28  a..?a..tlke.,.f(
06B0: 80 3E 61 0E 01 3E 61 0E  01 74 6C 6B 30 2B 3E 61  .>a..>a..tlk0+>a
06C0: 0E 01 48 80 23 66 28 80  3E 61 0E 01 3E 61 0E 01  ..H.#f(.>a..>a..
06D0: 74 6C 6B 31 52 24 80 F0  FF FF 7F F0 FF FF 7F 39  tlk1R$.........9
06E0: 34 30 39 45 06 80 F0 FF  FF 7F F0 FF FF 7F 6F 76  409E..........ov
06F0: 6C 31 03 80 45 24 80 F0  FF FF 7F F0 FF FF 7F 39  l1..E$.........9
0700: 34 31 30 03 80 5B 41 80  3F 61 0E 01 3F 61 0E 01  410..[A.?a..?a..
0710: 61 6E 67 30 2B 3F 61 0E  01 49 80 23 52 24 80 F0  ang0+?a..I.#R$..
0720: FF FF 7F F0 FF FF 7F 39  34 31 30 45 24 80 F0 FF  .......9410E$...
0730: FF 7F F0 FF FF 7F 39 34  31 31 03 80 2B 3F 61 0E  ......9411..+?a.
0740: 01 4A 80 23 52 24 80 F0  FF FF 7F F0 FF FF 7F 39  .J.#R$.........9
0750: 34 31 31 45 24 80 F0 FF  FF 7F F0 FF FF 7F 39 34  411E$.........94
0760: 31 32 03 80 2B 3F 61 0E  01 4B 80 23 52 24 80 F0  12..+?a..K.#R$..
0770: FF FF 7F F0 FF FF 7F 39  34 31 32 5B 41 80 3F 61  .......9412[A.?a
0780: 0E 01 3F 61 0E 01 74 6C  6B 65 45 24 80 F0 FF FF  ..?a..tlkeE$....
0790: 7F F0 FF FF 7F 39 34 30  39 03 80 6E 3E 61 0E 01  .....9409..n>a..
07A0: 4C 80 99 3E 61 0E 01 2B  3E 61 0E 01 4D 80 23 99  L..>a..+>a..M.#.
07B0: 3E 61 0E 01 52 24 80 F0  FF FF 7F F0 FF FF 7F 39  >a..R$.........9
07C0: 34 30 39 45 06 80 F0 FF  FF 7F F0 FF FF 7F 62 6C  409E..........bl
07D0: 6F 6E 03 80 45 4E 80 F0  FF FF 7F F0 FF FF 7F 62  on..EN.........b
07E0: 6C 6F 6E 03 80 45 24 80  F0 FF FF 7F F0 FF FF 7F  lon..E$.........
07F0: 39 34 31 38 03 80 1C 2C  80 45 06 80 F0 FF FF 7F  9418...,.E......
0800: F0 FF FF 7F 62 6C 6F 66  03 80 5B 41 80 3F 61 0E  ....blof..[A.?a.
0810: 01 3F 61 0E 01 61 6E 67  30 4A 40 61 0E 01 3F 61  .?a..ang0J@a..?a
0820: 0E 01 6F 70 2B 3F 61 0E  01 4F 80 23 52 24 80 F0  ..op+?a..O.#R$..
0830: FF FF 7F F0 FF FF 7F 39  34 31 38 45 24 80 F0 FF  .......9418E$...
0840: FF 7F F0 FF FF 7F 39 34  31 39 03 80 5B 43 80 40  ......9419..[C.@
0850: 61 0E 01 40 61 0E 01 62  69 6B 30 2B 3F 61 0E 01  a..@a..bik0+?a..
0860: 50 80 23 53 40 61 0E 01  40 61 0E 01 62 69 6B 30  P.#S@a..@a..bik0
0870: 1C 15 80 45 06 80 F0 FF  FF 7F F0 FF FF 7F 66 64  ...E..........fd
0880: 6F 31 03 80 1C 07 80 35  51 80 78 1C 08 80 AB 0A  o1.....5Q.x.....
0890: 75 00 17 80 75 01 4E 00  F0 FF FF 7F BA F0 FF FF  u...u.N.........
08A0: 7F 1C 80 1D 80 1E 80 1F  80 80 F0 FF FF 7F 92 00  ................
08B0: F0 FF FF 7F 2F 00 3C 61  0E 01 4E 00 3C 61 0E 01  ..../.<a..N.<a..
08C0: BA 3C 61 0E 01 20 80 21  80 22 80 23 80 80 3C 61  .<a.. .!.".#..<a
08D0: 0E 01 92 01 3C 61 0E 01  4A 3C 61 0E 01 F0 FF FF  ....<a..J<a.....
08E0: 7F 6F 70 4E 01 56 60 0E  01 2F 00 3D 61 0E 01 4E  .opN.V`../.=a..N
08F0: 00 3D 61 0E 01 BA 3D 61  0E 01 52 80 53 80 54 80  .=a...=a..R.S.T.
0900: 55 80 80 3D 61 0E 01 92  01 3D 61 0E 01 4E 00 54  U..=a....=a..N.T
0910: 60 0E 01 80 54 60 0E 01  BA 54 60 0E 01 56 80 57  `...T`...T`..V.W
0920: 80 1E 80 58 80 4E 01 55  60 0E 01 BA 55 60 0E 01  ...X.N.U`...U`..
0930: 18 80 19 80 1A 80 1B 80  29 0F 55 60 0E 01 0A 29  ........).U`...)
0940: 0F 54 60 0E 01 0B 29 0F  56 60 0E 01 07 79 00 F0  .T`...).V`...y..
0950: FF FF 7F 3C 61 0E 01 52  24 80 F0 FF FF 7F F0 FF  ...<a..R$.......
0960: FF 7F 39 34 31 39 45 24  80 F0 FF FF 7F F0 FF FF  ..9419E$........
0970: 7F 33 30 30 35 03 80 45  06 80 F0 FF FF 7F F0 FF  .3005..E........
0980: FF 7F 66 64 69 31 03 80  1C 15 80 66 28 80 3C 61  ..fdi1.....f(.<a
0990: 0E 01 3C 61 0E 01 74 6C  6B 30 2B 3C 61 0E 01 59  ..<a..tlk0+<a..Y
09A0: 80 23 52 24 80 F0 FF FF  7F F0 FF FF 7F 33 30 30  .#R$.........300
09B0: 35 45 24 80 F0 FF FF 7F  F0 FF FF 7F 33 30 30 32  5E$.........3002
09C0: 03 80 2B 3C 61 0E 01 5A  80 23 2B 3C 61 0E 01 5B  ..+<a..Z.#+<a..[
09D0: 80 23 66 28 80 3C 61 0E  01 3C 61 0E 01 74 6C 6B  .#f(.<a..<a..tlk
09E0: 31 27 0F 3D 61 0E 01 05  52 24 80 F0 FF FF 7F F0  1'.=a...R$......
09F0: FF FF 7F 33 30 30 32 45  24 80 F0 FF FF 7F F0 FF  ...3002E$.......
0A00: FF 7F 33 30 30 33 03 80  5C 00 5C 80 5C 01 5C 80  ..3003..\.\.\.\.
0A10: 9A 2B 3D 61 0E 01 5D 80  1C 45 80 4A 3D 61 0E 01  .+=a..]..E.J=a..
0A20: 3C 61 0E 01 1C 27 80 27  0F 3D 61 0E 01 06 1C 27  <a...'.'.=a....'
0A30: 80 52 24 80 F0 FF FF 7F  F0 FF FF 7F 33 30 30 33  .R$.........3003
0A40: 45 24 80 F0 FF FF 7F F0  FF FF 7F 33 30 30 32 03  E$.........3002.
0A50: 80 4A 3C 61 0E 01 3D 61  0E 01 6E 3C 61 0E 01 5E  .J<a..=a..n<a..^
0A60: 80 99 3C 61 0E 01 2B 3C  61 0E 01 5F 80 23 7B F0  ..<a..+<a.._.#{.
0A70: FF FF 7F 4A F0 FF FF 7F  3D 61 0E 01 6F 70 79 00  ...J....=a..opy.
0A80: F0 FF FF 7F 3D 61 0E 01  99 3C 61 0E 01 1C 15 80  ....=a...<a.....
0A90: 52 24 80 F0 FF FF 7F F0  FF FF 7F 33 30 30 32 45  R$.........3002E
0AA0: 24 80 F0 FF FF 7F F0 FF  FF 7F 33 30 30 35 03 80  $.........3005..
0AB0: 4A 3C 61 0E 01 F0 FF FF  7F 6F 70 6E 3C 61 0E 01  J<a......opn<a..
0AC0: 60 80 99 3C 61 0E 01 2B  3C 61 0E 01 61 80 23 99  `..<a..+<a..a.#.
0AD0: 3C 61 0E 01 1C 15 80 79  00 3C 61 0E 01 F0 FF FF  <a.....y.<a.....
0AE0: 7F 24 62 80 03 80 03 80  25 02 00 10 03 80 00 75  .$b.....%......u
0AF0: 0B 52 24 80 F0 FF FF 7F  F0 FF FF 7F 33 30 30 35  .R$.........3005
0B00: 45 06 80 F0 FF FF 7F F0  FF FF 7F 6F 76 6C 31 03  E..........ovl1.
0B10: 80 45 24 80 F0 FF FF 7F  F0 FF FF 7F 33 30 30 34  .E$.........3004
0B20: 03 80 6E 3D 61 0E 01 63  80 99 3D 61 0E 01 2B 3D  ..n=a..c..=a..+=
0B30: 61 0E 01 64 80 23 99 3D  61 0E 01 1C 15 80 52 24  a..d.#.=a.....R$
0B40: 80 F0 FF FF 7F F0 FF FF  7F 33 30 30 34 45 06 80  .........3004E..
0B50: F0 FF FF 7F F0 FF FF 7F  6F 76 6C 31 03 80 45 24  ........ovl1..E$
0B60: 80 F0 FF FF 7F F0 FF FF  7F 33 30 30 35 03 80 01  .........3005...
0B70: E1 0A 01 D4 0B 02 00 10  08 80 00 D4 0B 6E 3C 61  .............n<a
0B80: 0E 01 65 80 99 3C 61 0E  01 2B 3C 61 0E 01 66 80  ..e..<a..+<a..f.
0B90: 23 99 3C 61 0E 01 1C 15  80 66 28 80 3C 61 0E 01  #.<a.....f(.<a..
0BA0: 3C 61 0E 01 74 6C 6B 30  03 02 10 67 80 03 03 10  <a..tlk0...g....
0BB0: 68 80 03 04 10 69 80 2B  3C 61 0E 01 6A 80 23 66  h....i.+<a..j.#f
0BC0: 28 80 3C 61 0E 01 3C 61  0E 01 74 6C 6B 31 1C 15  (.<a..<a..tlk1..
0BD0: 80 01 D4 0B 01 D7 0B 45  06 80 F0 FF FF 7F F0 FF  .......E........
0BE0: FF 7F 66 64 6F 31 03 80  1C 15 80 52 24 80 F0 FF  ..fdo1.....R$...
0BF0: FF 7F F0 FF FF 7F 33 30  30 35 46 00 5C 00 6B 80  ......3005F.\.k.
0C00: 5C 01 6B 80 9A 45 06 80  F0 FF FF 7F F0 FF FF 7F  \.k..E..........
0C10: 66 64 69 31 03 80 20 00  21 00                    fdi1.. .!.      
```

#### Opcodes

```
  0: 0x017D [0x42] SET_CLI_EVENT_CANCEL_DATA()
  1: 0x017E [0x20] SET_CLI_EVENT_UC_FLAG: Lock player control
  2: 0x0180 [0x1D] PRINT_EVENT_MESSAGE(message_id=13506*)
    → "Yes? What can I do for you?"
  3: 0x0183 [0x23] WAIT_FOR_DIALOG_INTERACTION
  4: 0x0184 [0x03] Work_Zone[2] = 1052*
  5: 0x0189 [0x24] CREATE_DIALOG(message_id=13507*, default_option=0*, option_flags=0*)
    → "What is it? [Nothing in particular./Show the $3.]"
  6: 0x0190 [0x25] WAIT_DIALOG_SELECT()
  7: 0x0191 [0x02] IF !(Work_Zone[0] == 0*) GOTO 0x01B3
  8: 0x0199 [0x45] LOAD_SCHEDULED_TASK: Load scheduler "fdi1" with entities [LocalPlayer, LocalPlayer], work=[200*, 0*]
  9: 0x01AA [0x1C] WAIT(60* ticks)
 10: 0x01AD [0x01] GOTO 0x0C16

SUBROUTINE_0AE1:
 11: 0x0AE1 [0x24] CREATE_DIALOG(message_id=13530*, default_option=0*, option_flags=0*)
    → "Have Kipopo repair the handbag? [No thanks./That'd be greataru!]"
 12: 0x0AE8 [0x25] WAIT_DIALOG_SELECT()
 13: 0x0AE9 [0x02] IF !(Work_Zone[0] == 0*) GOTO 0x0B75
 14: 0x0AF1 [0x52] END_LOAD_SCHEDULER: End scheduler "3005" with entities [LocalPlayer, LocalPlayer], work=341*
 15: 0x0B00 [0x45] LOAD_SCHEDULED_TASK: Load scheduler "ovl1" with entities [LocalPlayer, LocalPlayer], work=[200*, 0*]
 16: 0x0B11 [0x45] LOAD_SCHEDULED_TASK: Load scheduler "3004" with entities [LocalPlayer, LocalPlayer], work=[341*, 0*]
 17: 0x0B22 [0x6E] Tek Lengyon (ID: 17719613/0x010E613D) uses emote 26*
 18: 0x0B29 [0x99] Wait for Tek Lengyon (ID: 17719613/0x010E613D) animation to complete
 19: 0x0B2E [0x2B] Tek Lengyon (ID: 17719613/0x010E613D) [13531*]:
    → "Hey now, therrre's no need to be shy."
 20: 0x0B35 [0x23] WAIT_FOR_DIALOG_INTERACTION
 21: 0x0B36 [0x99] Wait for Tek Lengyon (ID: 17719613/0x010E613D) animation to complete
 22: 0x0B3B [0x1C] WAIT(60* ticks)
 23: 0x0B3E [0x52] END_LOAD_SCHEDULER: End scheduler "3004" with entities [LocalPlayer, LocalPlayer], work=341*
 24: 0x0B4D [0x45] LOAD_SCHEDULED_TASK: Load scheduler "ovl1" with entities [LocalPlayer, LocalPlayer], work=[200*, 0*]
 25: 0x0B5E [0x45] LOAD_SCHEDULED_TASK: Load scheduler "3005" with entities [LocalPlayer, LocalPlayer], work=[341*, 0*]
 26: 0x0B6F [0x01] GOTO 0x0AE1

SUBROUTINE_0BD4:
 27: 0x0BD4 [0x01] GOTO 0x0BD7

SUBROUTINE_0BD7:
 28: 0x0BD7 [0x45] LOAD_SCHEDULED_TASK: Load scheduler "fdo1" with entities [LocalPlayer, LocalPlayer], work=[200*, 0*]
 29: 0x0BE8 [0x1C] WAIT(60* ticks)
 30: 0x0BEB [0x52] END_LOAD_SCHEDULER: End scheduler "3005" with entities [LocalPlayer, LocalPlayer], work=341*
 31: 0x0BFA [0x46] CAMERA_CONTROL: Restore default settings
 32: 0x0BFC [0x5C] MUSIC_CONTROL: Set Idle (Day) music to song 107*
 33: 0x0C00 [0x5C] MUSIC_CONTROL: Set Idle (Night) music to song 107*
 34: 0x0C04 [0x9A] WAIT_MUSIC_SERVER()
 35: 0x0C05 [0x45] LOAD_SCHEDULED_TASK: Load scheduler "fdi1" with entities [LocalPlayer, LocalPlayer], work=[200*, 0*]

SUBROUTINE_0C16:
 36: 0x0C16 [0x20] SET_CLI_EVENT_UC_FLAG: Unlock player control
 37: 0x0C18 [0x21] END_EVENT
 38: 0x0C19 [0x00] END_REQSTACK()
```

#### Data or dead code:

```
# Dead code (unreachable instructions):
     0x01B0 [0x01] GOTO 0x0BD7
# Dead code (unreachable instructions):
     0x0B72 [0x01] GOTO 0x0BD4
```

### Event 909

#### Metadata

| Field        | Value    |
|--------------|----------|
| Entrypoint   | 0x0C1A   |
| Data Size    | 25 bytes |
| Instructions | 9        |

```
      00 01 02 03 04 05 06 07  08 09 0A 0B 0C 0D 0E 0F
      -- -- -- -- -- -- -- --  -- -- -- -- -- -- -- --
0C10:                                20 01 03 02 10 67             ....g
0C20: 80 03 03 10 68 80 03 04  10 69 80 1D 6A 80 23 20  ....h....i..j.# 
0C30: 00 21 00                                          .!.             
```

#### Opcodes

```
  0: 0x0C1A [0x20] SET_CLI_EVENT_UC_FLAG: Lock player control
  1: 0x0C1C [0x03] Work_Zone[2] = 2012*
  2: 0x0C21 [0x03] Work_Zone[3] = 850*
  3: 0x0C26 [0x03] Work_Zone[4] = 816*
  4: 0x0C2B [0x1D] PRINT_EVENT_MESSAGE(message_id=13533*)
    → "Now, I'll need some materials to restore the handbag to its original state. Could you findy-wind me $0, $1, and $2?"
  5: 0x0C2E [0x23] WAIT_FOR_DIALOG_INTERACTION
  6: 0x0C2F [0x20] SET_CLI_EVENT_UC_FLAG: Unlock player control
  7: 0x0C31 [0x21] END_EVENT
  8: 0x0C32 [0x00] END_REQSTACK()
```

### Event 910

#### Metadata

| Field        | Value     |
|--------------|-----------|
| Entrypoint   | 0x0C33    |
| Data Size    | 349 bytes |
| Instructions | 49        |

```
      00 01 02 03 04 05 06 07  08 09 0A 0B 0C 0D 0E 0F
      -- -- -- -- -- -- -- --  -- -- -- -- -- -- -- --
0C30:          42 20 01 46 01  45 06 80 F0 FF FF 7F F0     B .F.E.......
0C40: FF FF 7F 66 64 6F 31 03  80 1C 15 80 38 16 80 75  ...fdo1.....8..u
0C50: 00 17 80 75 01 80 F0 FF  FF 7F 4E 01 55 60 0E 01  ...u......N.U`..
0C60: 4E 01 3D 61 0E 01 BA F0  FF FF 7F 1C 80 1D 80 1E  N.=a............
0C70: 80 1F 80 2F 00 3C 61 0E  01 4E 00 3C 61 0E 01 BA  .../.<a..N.<a...
0C80: 3C 61 0E 01 20 80 21 80  22 80 23 80 80 3C 61 0E  <a.. .!.".#..<a.
0C90: 01 92 01 3C 61 0E 01 4A  3C 61 0E 01 F0 FF FF 7F  ...<a..J<a......
0CA0: 6F 70 92 01 54 60 0E 01  92 01 56 60 0E 01 80 54  op..T`....V`...T
0CB0: 60 0E 01 80 56 60 0E 01  79 00 F0 FF FF 7F 3C 61  `...V`..y.....<a
0CC0: 0E 01 45 24 80 F0 FF FF  7F F0 FF FF 7F 33 30 30  ..E$.........300
0CD0: 32 03 80 45 06 80 F0 FF  FF 7F F0 FF FF 7F 66 64  2..E..........fd
0CE0: 69 31 03 80 1C 15 80 66  28 80 3C 61 0E 01 3C 61  i1.....f(.<a..<a
0CF0: 0E 01 74 6C 6B 30 2B 3C  61 0E 01 6C 80 23 52 24  ..tlk0+<a..l.#R$
0D00: 80 F0 FF FF 7F F0 FF FF  7F 33 30 30 32 45 06 80  .........3002E..
0D10: F0 FF FF 7F F0 FF FF 7F  6F 76 6C 31 03 80 45 24  ........ovl1..E$
0D20: 80 F0 FF FF 7F F0 FF FF  7F 33 30 30 35 03 80 03  .........3005...
0D30: 02 10 13 80 2B 3C 61 0E  01 6D 80 23 2B 3C 61 0E  ....+<a..m.#+<a.
0D40: 01 6E 80 23 66 28 80 3C  61 0E 01 3C 61 0E 01 74  .n.#f(.<a..<a..t
0D50: 6C 6B 31 1C 15 80 45 06  80 F0 FF FF 7F F0 FF FF  lk1...E.........
0D60: 7F 66 64 6F 31 03 80 1C  15 80 52 24 80 F0 FF FF  .fdo1.....R$....
0D70: 7F F0 FF FF 7F 33 30 30  35 46 00 45 06 80 F0 FF  .....3005F.E....
0D80: FF 7F F0 FF FF 7F 66 64  69 31 03 80 20 00 21 00  ......fdi1.. .!.
```

#### Opcodes

```
  0: 0x0C33 [0x42] SET_CLI_EVENT_CANCEL_DATA()
  1: 0x0C34 [0x20] SET_CLI_EVENT_UC_FLAG: Lock player control
  2: 0x0C36 [0x46] CAMERA_CONTROL: Disable user control
  3: 0x0C38 [0x45] LOAD_SCHEDULED_TASK: Load scheduler "fdo1" with entities [LocalPlayer, LocalPlayer], work=[200*, 0*]
  4: 0x0C49 [0x1C] WAIT(60* ticks)
  5: 0x0C4C [0x38] SET_CLIENT_EVENT_MODE(mode=19*)
  6: 0x0C4F [0x75] LOAD_ROOM(Load indoor room, room=326*)
  7: 0x0C53 [0x75] LOAD_ROOM(No action)
  8: 0x0C55 [0x80] LOAD_WAIT(entity=LocalPlayer)
  9: 0x0C5A [0x4E] SET_ENTITY_HIDE_FLAG: Hide Kipopo (ID: 17719381/0x010E6055)
 10: 0x0C60 [0x4E] SET_ENTITY_HIDE_FLAG: Hide Tek Lengyon (ID: 17719613/0x010E613D)
 11: 0x0C66 [0xBA] SET_ENTITY_POSITION(entity_id=LocalPlayer, pos_x=-189.563*, pos_z=11.603*, pos_y=-1.000*, direction=210.8°*)
 12: 0x0C73 [0x2F] Kipopo (ID: 17719612/0x010E613C)->Render.Flags0 &= ~0x80000 // Bit 19
 13: 0x0C79 [0x4E] SET_ENTITY_HIDE_FLAG: Show Kipopo (ID: 17719612/0x010E613C)
 14: 0x0C7F [0xBA] SET_ENTITY_POSITION(entity_id=Kipopo (ID: 17719612/0x010E613C), pos_x=-190.925*, pos_z=12.102*, pos_y=-1.134*, direction=39.6°*)
 15: 0x0C8C [0x80] LOAD_WAIT(entity=Kipopo (ID: 17719612/0x010E613C))
 16: 0x0C91 [0x92] Kipopo (ID: 17719612/0x010E613C)->Render.Flags3 ^= 0x01
 17: 0x0C97 [0x4A] Kipopo (ID: 17719612/0x010E613C) looks at LocalPlayer
 18: 0x0CA0 [0x6F] WAIT_FRAME_DELAY: Yield until WaitTime reaches zero
 19: 0x0CA1 [0x70] WAIT_ENTITY_RENDER_FLAG: Wait while EventEntity->Render.Flags3 bit 2 is set (cancel turn if not)
 20: 0x0CA2 [0x92] Orechiniel (ID: 17719380/0x010E6054)->Render.Flags3 ^= 0x01
 21: 0x0CA8 [0x92] Tek Lengyon (ID: 17719382/0x010E6056)->Render.Flags3 ^= 0x01
 22: 0x0CAE [0x80] LOAD_WAIT(entity=Orechiniel (ID: 17719380/0x010E6054))
 23: 0x0CB3 [0x80] LOAD_WAIT(entity=Tek Lengyon (ID: 17719382/0x010E6056))
 24: 0x0CB8 [0x79] LocalPlayer looks at Kipopo (ID: 17719612/0x010E613C) (Basic look)
 25: 0x0CC2 [0x45] LOAD_SCHEDULED_TASK: Load scheduler "3002" with entities [LocalPlayer, LocalPlayer], work=[341*, 0*]
 26: 0x0CD3 [0x45] LOAD_SCHEDULED_TASK: Load scheduler "fdi1" with entities [LocalPlayer, LocalPlayer], work=[200*, 0*]
 27: 0x0CE4 [0x1C] WAIT(60* ticks)
 28: 0x0CE7 [0x66] LOAD_EXT_SCHEDULER_MAIN: Load scheduler "tlk0" with entities [Kipopo (ID: 17719612/0x010E613C), Kipopo (ID: 17719612/0x010E613C)], work=40*
 29: 0x0CF6 [0x2B] Kipopo (ID: 17719612/0x010E613C) [13534*]:
    → "Hey, thanks for bringing me these!"
 30: 0x0CFD [0x23] WAIT_FOR_DIALOG_INTERACTION
 31: 0x0CFE [0x52] END_LOAD_SCHEDULER: End scheduler "3002" with entities [LocalPlayer, LocalPlayer], work=341*
 32: 0x0D0D [0x45] LOAD_SCHEDULED_TASK: Load scheduler "ovl1" with entities [LocalPlayer, LocalPlayer], work=[200*, 0*]
 33: 0x0D1E [0x45] LOAD_SCHEDULED_TASK: Load scheduler "3005" with entities [LocalPlayer, LocalPlayer], work=[341*, 0*]
 34: 0x0D2F [0x03] Work_Zone[2] = 1052*
 35: 0x0D34 [0x2B] Kipopo (ID: 17719612/0x010E613C) [13535*]:
    → "I'll be needing the $3, too, of course."
 36: 0x0D3B [0x23] WAIT_FOR_DIALOG_INTERACTION
 37: 0x0D3C [0x2B] Kipopo (ID: 17719612/0x010E613C) [13536*]:
    → "I'm up to my ears in work rightaru now, but I'll get started on the repairs as soon as possible."
 38: 0x0D43 [0x23] WAIT_FOR_DIALOG_INTERACTION
 39: 0x0D44 [0x66] LOAD_EXT_SCHEDULER_MAIN: Load scheduler "tlk1" with entities [Kipopo (ID: 17719612/0x010E613C), Kipopo (ID: 17719612/0x010E613C)], work=40*
 40: 0x0D53 [0x1C] WAIT(60* ticks)
 41: 0x0D56 [0x45] LOAD_SCHEDULED_TASK: Load scheduler "fdo1" with entities [LocalPlayer, LocalPlayer], work=[200*, 0*]
 42: 0x0D67 [0x1C] WAIT(60* ticks)
 43: 0x0D6A [0x52] END_LOAD_SCHEDULER: End scheduler "3005" with entities [LocalPlayer, LocalPlayer], work=341*
 44: 0x0D79 [0x46] CAMERA_CONTROL: Restore default settings
 45: 0x0D7B [0x45] LOAD_SCHEDULED_TASK: Load scheduler "fdi1" with entities [LocalPlayer, LocalPlayer], work=[200*, 0*]
 46: 0x0D8C [0x20] SET_CLI_EVENT_UC_FLAG: Unlock player control
 47: 0x0D8E [0x21] END_EVENT
 48: 0x0D8F [0x00] END_REQSTACK()
```

### Event 911

#### Metadata

| Field        | Value    |
|--------------|----------|
| Entrypoint   | 0x0D90   |
| Data Size    | 10 bytes |
| Instructions | 6        |

```
      00 01 02 03 04 05 06 07  08 09 0A 0B 0C 0D 0E 0F
      -- -- -- -- -- -- -- --  -- -- -- -- -- -- -- --
0D90: 20 01 1D 6E 80 23 20 00  21 00                     ..n.# .!.      
```

#### Opcodes

```
  0: 0x0D90 [0x20] SET_CLI_EVENT_UC_FLAG: Lock player control
  1: 0x0D92 [0x1D] PRINT_EVENT_MESSAGE(message_id=13536*)
    → "I'm up to my ears in work rightaru now, but I'll get started on the repairs as soon as possible."
  2: 0x0D95 [0x23] WAIT_FOR_DIALOG_INTERACTION
  3: 0x0D96 [0x20] SET_CLI_EVENT_UC_FLAG: Unlock player control
  4: 0x0D98 [0x21] END_EVENT
  5: 0x0D99 [0x00] END_REQSTACK()
```

### Event 912

#### Metadata

| Field        | Value     |
|--------------|-----------|
| Entrypoint   | 0x0D9A    |
| Data Size    | 746 bytes |
| Instructions | 106       |

```
      00 01 02 03 04 05 06 07  08 09 0A 0B 0C 0D 0E 0F
      -- -- -- -- -- -- -- --  -- -- -- -- -- -- -- --
0D90:                                42 20 01 46 01 45            B .F.E
0DA0: 06 80 F0 FF FF 7F F0 FF  FF 7F 66 64 6F 31 03 80  ..........fdo1..
0DB0: 1C 15 80 38 16 80 75 00  17 80 75 01 80 F0 FF FF  ...8..u...u.....
0DC0: 7F 4E 01 55 60 0E 01 4E  01 56 60 0E 01 2F 00 3D  .N.U`..N.V`../.=
0DD0: 61 0E 01 4E 00 3D 61 0E  01 BA 3D 61 0E 01 52 80  a..N.=a...=a..R.
0DE0: 53 80 54 80 55 80 80 3D  61 0E 01 92 01 3D 61 0E  S.T.U..=a....=a.
0DF0: 01 BA F0 FF FF 7F 1C 80  1D 80 1E 80 1F 80 2F 00  ............../.
0E00: 3C 61 0E 01 4E 00 3C 61  0E 01 BA 3C 61 0E 01 20  <a..N.<a...<a.. 
0E10: 80 21 80 22 80 23 80 80  3C 61 0E 01 92 01 3C 61  .!.".#..<a....<a
0E20: 0E 01 4A 3C 61 0E 01 F0  FF FF 7F 6F 70 92 01 54  ..J<a......op..T
0E30: 60 0E 01 80 54 60 0E 01  79 00 F0 FF FF 7F 3C 61  `...T`..y.....<a
0E40: 0E 01 5C 00 6F 80 5C 01  6F 80 9A 45 24 80 F0 FF  ..\.o.\.o..E$...
0E50: FF 7F F0 FF FF 7F 33 30  30 32 03 80 45 06 80 F0  ......3002..E...
0E60: FF FF 7F F0 FF FF 7F 66  64 69 31 03 80 1C 15 80  .......fdi1.....
0E70: 66 28 80 3C 61 0E 01 3C  61 0E 01 74 6C 6B 30 2B  f(.<a..<a..tlk0+
0E80: 3C 61 0E 01 70 80 23 52  24 80 F0 FF FF 7F F0 FF  <a..p.#R$.......
0E90: FF 7F 33 30 30 32 45 06  80 F0 FF FF 7F F0 FF FF  ..3002E.........
0EA0: 7F 6F 76 6C 31 03 80 45  24 80 F0 FF FF 7F F0 FF  .ovl1..E$.......
0EB0: FF 7F 33 30 30 35 03 80  2B 3C 61 0E 01 71 80 23  ..3005..+<a..q.#
0EC0: 66 28 80 3C 61 0E 01 3C  61 0E 01 74 6C 6B 31 1C  f(.<a..<a..tlk1.
0ED0: 15 80 6E 3C 61 0E 01 72  80 99 3C 61 0E 01 03 02  ..n<a..r..<a....
0EE0: 10 13 80 2B 3C 61 0E 01  73 80 23 99 3C 61 0E 01  ...+<a..s.#.<a..
0EF0: 1C 15 80 27 0F 3D 61 0E  01 05 52 24 80 F0 FF FF  ...'.=a...R$....
0F00: 7F F0 FF FF 7F 33 30 30  35 45 24 80 F0 FF FF 7F  .....3005E$.....
0F10: F0 FF FF 7F 33 30 30 33  03 80 5C 00 5C 80 5C 01  ....3003..\.\.\.
0F20: 5C 80 9A 2B 3D 61 0E 01  74 80 1C 45 80 4A 3D 61  \..+=a..t..E.J=a
0F30: 0E 01 3C 61 0E 01 6F 70  66 75 80 3D 61 0E 01 3D  ..<a..opfu.=a..=
0F40: 61 0E 01 74 6C 6B 30 2B  3D 61 0E 01 76 80 23 66  a..tlk0+=a..v.#f
0F50: 75 80 3D 61 0E 01 3D 61  0E 01 74 6C 6B 32 1C 15  u.=a..=a..tlk2..
0F60: 80 27 0F 3D 61 0E 01 06  1C 15 80 52 24 80 F0 FF  .'.=a......R$...
0F70: FF 7F F0 FF FF 7F 33 30  30 33 45 24 80 F0 FF FF  ......3003E$....
0F80: 7F F0 FF FF 7F 33 30 30  32 03 80 6E 3C 61 0E 01  .....3002..n<a..
0F90: 77 80 99 3C 61 0E 01 2B  3C 61 0E 01 78 80 23 99  w..<a..+<a..x.#.
0FA0: 3C 61 0E 01 1C 15 80 52  24 80 F0 FF FF 7F F0 FF  <a.....R$.......
0FB0: FF 7F 33 30 30 32 45 06  80 F0 FF FF 7F F0 FF FF  ..3002E.........
0FC0: 7F 6F 76 6C 31 03 80 45  24 80 F0 FF FF 7F F0 FF  .ovl1..E$.......
0FD0: FF 7F 33 30 30 34 03 80  6E 3D 61 0E 01 79 80 99  ..3004..n=a..y..
0FE0: 3D 61 0E 01 2B 3D 61 0E  01 7A 80 23 99 3D 61 0E  =a..+=a..z.#.=a.
0FF0: 01 1C 15 80 52 24 80 F0  FF FF 7F F0 FF FF 7F 33  ....R$.........3
1000: 30 30 34 45 06 80 F0 FF  FF 7F F0 FF FF 7F 6F 76  004E..........ov
1010: 6C 31 03 80 45 24 80 F0  FF FF 7F F0 FF FF 7F 33  l1..E$.........3
1020: 30 30 35 03 80 6E 3C 61  0E 01 7B 80 99 3C 61 0E  005..n<a..{..<a.
1030: 01 2B 3C 61 0E 01 7C 80  23 99 3C 61 0E 01 1C 15  .+<a..|.#.<a....
1040: 80 45 06 80 F0 FF FF 7F  F0 FF FF 7F 66 64 6F 31  .E..........fdo1
1050: 03 80 1C 15 80 52 24 80  F0 FF FF 7F F0 FF FF 7F  .....R$.........
1060: 33 30 30 35 46 00 5C 00  6B 80 5C 01 6B 80 9A 45  3005F.\.k.\.k..E
1070: 06 80 F0 FF FF 7F F0 FF  FF 7F 66 64 69 31 03 80  ..........fdi1..
1080: 20 00 21 00                                        .!.            
```

#### Opcodes

```
  0: 0x0D9A [0x42] SET_CLI_EVENT_CANCEL_DATA()
  1: 0x0D9B [0x20] SET_CLI_EVENT_UC_FLAG: Lock player control
  2: 0x0D9D [0x46] CAMERA_CONTROL: Disable user control
  3: 0x0D9F [0x45] LOAD_SCHEDULED_TASK: Load scheduler "fdo1" with entities [LocalPlayer, LocalPlayer], work=[200*, 0*]
  4: 0x0DB0 [0x1C] WAIT(60* ticks)
  5: 0x0DB3 [0x38] SET_CLIENT_EVENT_MODE(mode=19*)
  6: 0x0DB6 [0x75] LOAD_ROOM(Load indoor room, room=326*)
  7: 0x0DBA [0x75] LOAD_ROOM(No action)
  8: 0x0DBC [0x80] LOAD_WAIT(entity=LocalPlayer)
  9: 0x0DC1 [0x4E] SET_ENTITY_HIDE_FLAG: Hide Kipopo (ID: 17719381/0x010E6055)
 10: 0x0DC7 [0x4E] SET_ENTITY_HIDE_FLAG: Hide Tek Lengyon (ID: 17719382/0x010E6056)
 11: 0x0DCD [0x2F] Tek Lengyon (ID: 17719613/0x010E613D)->Render.Flags0 &= ~0x80000 // Bit 19
 12: 0x0DD3 [0x4E] SET_ENTITY_HIDE_FLAG: Show Tek Lengyon (ID: 17719613/0x010E613D)
 13: 0x0DD9 [0xBA] SET_ENTITY_POSITION(entity_id=Tek Lengyon (ID: 17719613/0x010E613D), pos_x=-185.387*, pos_z=1.580*, pos_y=-1.999*, direction=299.5°*)
 14: 0x0DE6 [0x80] LOAD_WAIT(entity=Tek Lengyon (ID: 17719613/0x010E613D))
 15: 0x0DEB [0x92] Tek Lengyon (ID: 17719613/0x010E613D)->Render.Flags3 ^= 0x01
 16: 0x0DF1 [0xBA] SET_ENTITY_POSITION(entity_id=LocalPlayer, pos_x=-189.563*, pos_z=11.603*, pos_y=-1.000*, direction=210.8°*)
 17: 0x0DFE [0x2F] Kipopo (ID: 17719612/0x010E613C)->Render.Flags0 &= ~0x80000 // Bit 19
 18: 0x0E04 [0x4E] SET_ENTITY_HIDE_FLAG: Show Kipopo (ID: 17719612/0x010E613C)
 19: 0x0E0A [0xBA] SET_ENTITY_POSITION(entity_id=Kipopo (ID: 17719612/0x010E613C), pos_x=-190.925*, pos_z=12.102*, pos_y=-1.134*, direction=39.6°*)
 20: 0x0E17 [0x80] LOAD_WAIT(entity=Kipopo (ID: 17719612/0x010E613C))
 21: 0x0E1C [0x92] Kipopo (ID: 17719612/0x010E613C)->Render.Flags3 ^= 0x01
 22: 0x0E22 [0x4A] Kipopo (ID: 17719612/0x010E613C) looks at LocalPlayer
 23: 0x0E2B [0x6F] WAIT_FRAME_DELAY: Yield until WaitTime reaches zero
 24: 0x0E2C [0x70] WAIT_ENTITY_RENDER_FLAG: Wait while EventEntity->Render.Flags3 bit 2 is set (cancel turn if not)
 25: 0x0E2D [0x92] Orechiniel (ID: 17719380/0x010E6054)->Render.Flags3 ^= 0x01
 26: 0x0E33 [0x80] LOAD_WAIT(entity=Orechiniel (ID: 17719380/0x010E6054))
 27: 0x0E38 [0x79] LocalPlayer looks at Kipopo (ID: 17719612/0x010E613C) (Basic look)
 28: 0x0E42 [0x5C] MUSIC_CONTROL: Set Idle (Day) music to song 145*
 29: 0x0E46 [0x5C] MUSIC_CONTROL: Set Idle (Night) music to song 145*
 30: 0x0E4A [0x9A] WAIT_MUSIC_SERVER()
 31: 0x0E4B [0x45] LOAD_SCHEDULED_TASK: Load scheduler "3002" with entities [LocalPlayer, LocalPlayer], work=[341*, 0*]
 32: 0x0E5C [0x45] LOAD_SCHEDULED_TASK: Load scheduler "fdi1" with entities [LocalPlayer, LocalPlayer], work=[200*, 0*]
 33: 0x0E6D [0x1C] WAIT(60* ticks)
 34: 0x0E70 [0x66] LOAD_EXT_SCHEDULER_MAIN: Load scheduler "tlk0" with entities [Kipopo (ID: 17719612/0x010E613C), Kipopo (ID: 17719612/0x010E613C)], work=40*
 35: 0x0E7F [0x2B] Kipopo (ID: 17719612/0x010E613C) [13537*]:
    → "Hey, welcome back. Greataru news--everything went smoothly and the repairs are now complete!"
 36: 0x0E86 [0x23] WAIT_FOR_DIALOG_INTERACTION
 37: 0x0E87 [0x52] END_LOAD_SCHEDULER: End scheduler "3002" with entities [LocalPlayer, LocalPlayer], work=341*
 38: 0x0E96 [0x45] LOAD_SCHEDULED_TASK: Load scheduler "ovl1" with entities [LocalPlayer, LocalPlayer], work=[200*, 0*]
 39: 0x0EA7 [0x45] LOAD_SCHEDULED_TASK: Load scheduler "3005" with entities [LocalPlayer, LocalPlayer], work=[341*, 0*]
 40: 0x0EB8 [0x2B] Kipopo (ID: 17719612/0x010E613C) [13538*]:
    → "I took the liberty of making it identical to the one Father craftarued all those years ago. I hopey-wope you don't mind."
 41: 0x0EBF [0x23] WAIT_FOR_DIALOG_INTERACTION
 42: 0x0EC0 [0x66] LOAD_EXT_SCHEDULER_MAIN: Load scheduler "tlk1" with entities [Kipopo (ID: 17719612/0x010E613C), Kipopo (ID: 17719612/0x010E613C)], work=40*
 43: 0x0ECF [0x1C] WAIT(60* ticks)
 44: 0x0ED2 [0x6E] Kipopo (ID: 17719612/0x010E613C) uses emote 13*
 45: 0x0ED9 [0x99] Wait for Kipopo (ID: 17719612/0x010E613C) animation to complete
 46: 0x0EDE [0x03] Work_Zone[2] = 1052*
 47: 0x0EE3 [0x2B] Kipopo (ID: 17719612/0x010E613C) [13539*]:
    → "But the $3 that you firstaru brought in... I still can't shake their uncanny-wanny resemblance to Father's from my head. It's just a coincidence, right?"
 48: 0x0EEA [0x23] WAIT_FOR_DIALOG_INTERACTION
 49: 0x0EEB [0x99] Wait for Kipopo (ID: 17719612/0x010E613C) animation to complete
 50: 0x0EF0 [0x1C] WAIT(60* ticks)
 51: 0x0EF3 [0x27] REQ_SET(priority=0x0F, entity_id=Tek Lengyon (ID: 17719613/0x010E613D), tag_num=0x05)
 52: 0x0EFA [0x52] END_LOAD_SCHEDULER: End scheduler "3005" with entities [LocalPlayer, LocalPlayer], work=341*
 53: 0x0F09 [0x45] LOAD_SCHEDULED_TASK: Load scheduler "3003" with entities [LocalPlayer, LocalPlayer], work=[341*, 0*]
 54: 0x0F1A [0x5C] MUSIC_CONTROL: Set Idle (Day) music to song 151*
 55: 0x0F1E [0x5C] MUSIC_CONTROL: Set Idle (Night) music to song 151*
 56: 0x0F22 [0x9A] WAIT_MUSIC_SERVER()
 57: 0x0F23 [0x2B] Tek Lengyon (ID: 17719613/0x010E613D) [13540*]:
    → "Ah, the handbag's made a full rrrecovery, I see!"
 58: 0x0F2A [0x1C] WAIT(150* ticks)
 59: 0x0F2D [0x4A] Tek Lengyon (ID: 17719613/0x010E613D) looks at Kipopo (ID: 17719612/0x010E613C)
 60: 0x0F36 [0x6F] WAIT_FRAME_DELAY: Yield until WaitTime reaches zero
 61: 0x0F37 [0x70] WAIT_ENTITY_RENDER_FLAG: Wait while EventEntity->Render.Flags3 bit 2 is set (cancel turn if not)
 62: 0x0F38 [0x66] LOAD_EXT_SCHEDULER_MAIN: Load scheduler "tlk0" with entities [Tek Lengyon (ID: 17719613/0x010E613D), Tek Lengyon (ID: 17719613/0x010E613D)], work=50*
 63: 0x0F47 [0x2B] Tek Lengyon (ID: 17719613/0x010E613D) [13541*]:
    → "Heh, that's strrrange... I'm not surrre what's come over me, but suddenly I've got this inexplicable urge to barrre my claws and--"
 64: 0x0F4E [0x23] WAIT_FOR_DIALOG_INTERACTION
 65: 0x0F4F [0x66] LOAD_EXT_SCHEDULER_MAIN: Load scheduler "tlk2" with entities [Tek Lengyon (ID: 17719613/0x010E613D), Tek Lengyon (ID: 17719613/0x010E613D)], work=50*
 66: 0x0F5E [0x1C] WAIT(60* ticks)
 67: 0x0F61 [0x27] REQ_SET(priority=0x0F, entity_id=Tek Lengyon (ID: 17719613/0x010E613D), tag_num=0x06)
 68: 0x0F68 [0x1C] WAIT(60* ticks)
 69: 0x0F6B [0x52] END_LOAD_SCHEDULER: End scheduler "3003" with entities [LocalPlayer, LocalPlayer], work=341*
 70: 0x0F7A [0x45] LOAD_SCHEDULED_TASK: Load scheduler "3002" with entities [LocalPlayer, LocalPlayer], work=[341*, 0*]
 71: 0x0F8B [0x6E] Kipopo (ID: 17719612/0x010E613C) uses emote 29*
 72: 0x0F92 [0x99] Wait for Kipopo (ID: 17719612/0x010E613C) animation to complete
 73: 0x0F97 [0x2B] Kipopo (ID: 17719612/0x010E613C) [13542*]:
    → "N-no, Tek, no repeatarus...please!"
 74: 0x0F9E [0x23] WAIT_FOR_DIALOG_INTERACTION
 75: 0x0F9F [0x99] Wait for Kipopo (ID: 17719612/0x010E613C) animation to complete
 76: 0x0FA4 [0x1C] WAIT(60* ticks)
 77: 0x0FA7 [0x52] END_LOAD_SCHEDULER: End scheduler "3002" with entities [LocalPlayer, LocalPlayer], work=341*
 78: 0x0FB6 [0x45] LOAD_SCHEDULED_TASK: Load scheduler "ovl1" with entities [LocalPlayer, LocalPlayer], work=[200*, 0*]
 79: 0x0FC7 [0x45] LOAD_SCHEDULED_TASK: Load scheduler "3004" with entities [LocalPlayer, LocalPlayer], work=[341*, 0*]
 80: 0x0FD8 [0x6E] Tek Lengyon (ID: 17719613/0x010E613D) uses emote 4*
 81: 0x0FDF [0x99] Wait for Tek Lengyon (ID: 17719613/0x010E613D) animation to complete
 82: 0x0FE4 [0x2B] Tek Lengyon (ID: 17719613/0x010E613D) [13543*]:
    → "Nyahaha, I was just kidding! A little..."
 83: 0x0FEB [0x23] WAIT_FOR_DIALOG_INTERACTION
 84: 0x0FEC [0x99] Wait for Tek Lengyon (ID: 17719613/0x010E613D) animation to complete
 85: 0x0FF1 [0x1C] WAIT(60* ticks)
 86: 0x0FF4 [0x52] END_LOAD_SCHEDULER: End scheduler "3004" with entities [LocalPlayer, LocalPlayer], work=341*
 87: 0x1003 [0x45] LOAD_SCHEDULED_TASK: Load scheduler "ovl1" with entities [LocalPlayer, LocalPlayer], work=[200*, 0*]
 88: 0x1014 [0x45] LOAD_SCHEDULED_TASK: Load scheduler "3005" with entities [LocalPlayer, LocalPlayer], work=[341*, 0*]
 89: 0x1025 [0x6E] Kipopo (ID: 17719612/0x010E613C) uses emote 12*
 90: 0x102C [0x99] Wait for Kipopo (ID: 17719612/0x010E613C) animation to complete
 91: 0x1031 [0x2B] Kipopo (ID: 17719612/0x010E613C) [13544*]:
    → "Yikes! Hurry, take that handbag someplace safey-wafe before Tek loses control!"
 92: 0x1038 [0x23] WAIT_FOR_DIALOG_INTERACTION
 93: 0x1039 [0x99] Wait for Kipopo (ID: 17719612/0x010E613C) animation to complete
 94: 0x103E [0x1C] WAIT(60* ticks)
 95: 0x1041 [0x45] LOAD_SCHEDULED_TASK: Load scheduler "fdo1" with entities [LocalPlayer, LocalPlayer], work=[200*, 0*]
 96: 0x1052 [0x1C] WAIT(60* ticks)
 97: 0x1055 [0x52] END_LOAD_SCHEDULER: End scheduler "3005" with entities [LocalPlayer, LocalPlayer], work=341*
 98: 0x1064 [0x46] CAMERA_CONTROL: Restore default settings
 99: 0x1066 [0x5C] MUSIC_CONTROL: Set Idle (Day) music to song 107*
100: 0x106A [0x5C] MUSIC_CONTROL: Set Idle (Night) music to song 107*
101: 0x106E [0x9A] WAIT_MUSIC_SERVER()
102: 0x106F [0x45] LOAD_SCHEDULED_TASK: Load scheduler "fdi1" with entities [LocalPlayer, LocalPlayer], work=[200*, 0*]
103: 0x1080 [0x20] SET_CLI_EVENT_UC_FLAG: Unlock player control
104: 0x1082 [0x21] END_EVENT
105: 0x1083 [0x00] END_REQSTACK()
```

### Event 913

#### Metadata

| Field        | Value    |
|--------------|----------|
| Entrypoint   | 0x1084   |
| Data Size    | 10 bytes |
| Instructions | 6        |

```
      00 01 02 03 04 05 06 07  08 09 0A 0B 0C 0D 0E 0F
      -- -- -- -- -- -- -- --  -- -- -- -- -- -- -- --
1080:             20 01 1D 7D  80 23 20 00 21 00             ..}.# .!.  
```

#### Opcodes

```
  0: 0x1084 [0x20] SET_CLI_EVENT_UC_FLAG: Lock player control
  1: 0x1086 [0x1D] PRINT_EVENT_MESSAGE(message_id=13545*)
    → "How are you liking the handbag? Just make sure Tek doesn't getaru her claws on it...I can't guarantee I'll be able to fix it again if she does!"
  2: 0x1089 [0x23] WAIT_FOR_DIALOG_INTERACTION
  3: 0x108A [0x20] SET_CLI_EVENT_UC_FLAG: Unlock player control
  4: 0x108C [0x21] END_EVENT
  5: 0x108D [0x00] END_REQSTACK()
```

### Event 914

#### Metadata

| Field        | Value     |
|--------------|-----------|
| Entrypoint   | 0x108E    |
| Data Size    | 696 bytes |
| Instructions | 100       |

```
      00 01 02 03 04 05 06 07  08 09 0A 0B 0C 0D 0E 0F
      -- -- -- -- -- -- -- --  -- -- -- -- -- -- -- --
1080:                                            42 20                B 
1090: 01 46 01 45 06 80 F0 FF  FF 7F F0 FF FF 7F 66 64  .F.E..........fd
10A0: 6F 31 03 80 1C 15 80 38  16 80 75 00 17 80 75 01  o1.....8..u...u.
10B0: 80 F0 FF FF 7F 4E 01 55  60 0E 01 4E 01 3D 61 0E  .....N.U`..N.=a.
10C0: 01 BA F0 FF FF 7F 1C 80  1D 80 1E 80 1F 80 2F 00  ............../.
10D0: 3C 61 0E 01 4E 00 3C 61  0E 01 BA 3C 61 0E 01 20  <a..N.<a...<a.. 
10E0: 80 21 80 22 80 23 80 80  3C 61 0E 01 92 01 3C 61  .!.".#..<a....<a
10F0: 0E 01 4A 3C 61 0E 01 F0  FF FF 7F 6F 70 92 01 54  ..J<a......op..T
1100: 60 0E 01 92 01 53 60 0E  01 92 01 56 60 0E 01 80  `....S`....V`...
1110: 54 60 0E 01 80 53 60 0E  01 80 56 60 0E 01 79 00  T`...S`...V`..y.
1120: F0 FF FF 7F 3C 61 0E 01  5C 00 7E 80 5C 01 7E 80  ....<a..\.~.\.~.
1130: 9A 45 24 80 F0 FF FF 7F  F0 FF FF 7F 33 30 30 32  .E$.........3002
1140: 03 80 45 06 80 F0 FF FF  7F F0 FF FF 7F 66 64 69  ..E..........fdi
1150: 31 03 80 1C 15 80 66 28  80 3C 61 0E 01 3C 61 0E  1.....f(.<a..<a.
1160: 01 74 6C 6B 30 03 02 10  7F 80 2B 3C 61 0E 01 80  .tlk0.....+<a...
1170: 80 23 2B 3C 61 0E 01 81  80 23 52 24 80 F0 FF FF  .#+<a....#R$....
1180: 7F F0 FF FF 7F 33 30 30  32 45 06 80 F0 FF FF 7F  .....3002E......
1190: F0 FF FF 7F 6F 76 6C 31  03 80 45 24 80 F0 FF FF  ....ovl1..E$....
11A0: 7F F0 FF FF 7F 33 30 30  35 03 80 2B 3C 61 0E 01  .....3005..+<a..
11B0: 82 80 23 2B 3C 61 0E 01  83 80 23 2B 3C 61 0E 01  ..#+<a....#+<a..
11C0: 84 80 23 52 24 80 F0 FF  FF 7F F0 FF FF 7F 33 30  ..#R$.........30
11D0: 30 35 45 06 80 F0 FF FF  7F F0 FF FF 7F 6F 76 6C  05E..........ovl
11E0: 31 03 80 45 24 80 F0 FF  FF 7F F0 FF FF 7F 33 30  1..E$.........30
11F0: 30 36 03 80 4A F0 FF FF  7F 56 60 0E 01 2B 3C 61  06..J....V`..+<a
1200: 0E 01 85 80 23 2B 3C 61  0E 01 86 80 23 66 28 80  ....#+<a....#f(.
1210: 3C 61 0E 01 3C 61 0E 01  74 6C 6B 31 BA 53 60 0E  <a..<a..tlk1.S`.
1220: 01 87 80 88 80 1E 80 89  80 52 24 80 F0 FF FF 7F  .........R$.....
1230: F0 FF FF 7F 33 30 30 36  45 06 80 F0 FF FF 7F F0  ....3006E.......
1240: FF FF 7F 6F 76 6C 31 03  80 45 24 80 F0 FF FF 7F  ...ovl1..E$.....
1250: F0 FF FF 7F 33 30 30 37  03 80 5C 00 6B 80 5C 01  ....3007..\.k.\.
1260: 6B 80 9A 6E 53 60 0E 01  8A 80 99 53 60 0E 01 2B  k..nS`.....S`..+
1270: 53 60 0E 01 8B 80 23 4A  F0 FF FF 7F 53 60 0E 01  S`....#J....S`..
1280: 6F 70 79 00 F0 FF FF 7F  53 60 0E 01 6E 3C 61 0E  opy.....S`..n<a.
1290: 01 26 80 99 3C 61 0E 01  99 3C 61 0E 01 1C 15 80  .&..<a...<a.....
12A0: 4B 53 60 0E 01 8C 80 6F  70 27 0F 53 60 0E 01 28  KS`....op'.S`..(
12B0: 1C 15 80 52 24 80 F0 FF  FF 7F F0 FF FF 7F 33 30  ...R$.........30
12C0: 30 37 45 06 80 F0 FF FF  7F F0 FF FF 7F 6F 76 6C  07E..........ovl
12D0: 31 03 80 4E 01 F0 FF FF  7F 45 24 80 F0 FF FF 7F  1..N.....E$.....
12E0: F0 FF FF 7F 33 30 30 35  03 80 6E 3C 61 0E 01 8D  ....3005..n<a...
12F0: 80 99 3C 61 0E 01 2B 3C  61 0E 01 8E 80 23 99 3C  ..<a..+<a....#.<
1300: 61 0E 01 1C 15 80 45 06  80 F0 FF FF 7F F0 FF FF  a.....E.........
1310: 7F 66 64 6F 31 03 80 1C  15 80 4E 00 F0 FF FF 7F  .fdo1.....N.....
1320: 52 24 80 F0 FF FF 7F F0  FF FF 7F 33 30 30 35 46  R$.........3005F
1330: 00 45 06 80 F0 FF FF 7F  F0 FF FF 7F 66 64 69 31  .E..........fdi1
1340: 03 80 20 00 21 00                                 .. .!.          
```

#### Opcodes

```
  0: 0x108E [0x42] SET_CLI_EVENT_CANCEL_DATA()
  1: 0x108F [0x20] SET_CLI_EVENT_UC_FLAG: Lock player control
  2: 0x1091 [0x46] CAMERA_CONTROL: Disable user control
  3: 0x1093 [0x45] LOAD_SCHEDULED_TASK: Load scheduler "fdo1" with entities [LocalPlayer, LocalPlayer], work=[200*, 0*]
  4: 0x10A4 [0x1C] WAIT(60* ticks)
  5: 0x10A7 [0x38] SET_CLIENT_EVENT_MODE(mode=19*)
  6: 0x10AA [0x75] LOAD_ROOM(Load indoor room, room=326*)
  7: 0x10AE [0x75] LOAD_ROOM(No action)
  8: 0x10B0 [0x80] LOAD_WAIT(entity=LocalPlayer)
  9: 0x10B5 [0x4E] SET_ENTITY_HIDE_FLAG: Hide Kipopo (ID: 17719381/0x010E6055)
 10: 0x10BB [0x4E] SET_ENTITY_HIDE_FLAG: Hide Tek Lengyon (ID: 17719613/0x010E613D)
 11: 0x10C1 [0xBA] SET_ENTITY_POSITION(entity_id=LocalPlayer, pos_x=-189.563*, pos_z=11.603*, pos_y=-1.000*, direction=210.8°*)
 12: 0x10CE [0x2F] Kipopo (ID: 17719612/0x010E613C)->Render.Flags0 &= ~0x80000 // Bit 19
 13: 0x10D4 [0x4E] SET_ENTITY_HIDE_FLAG: Show Kipopo (ID: 17719612/0x010E613C)
 14: 0x10DA [0xBA] SET_ENTITY_POSITION(entity_id=Kipopo (ID: 17719612/0x010E613C), pos_x=-190.925*, pos_z=12.102*, pos_y=-1.134*, direction=39.6°*)
 15: 0x10E7 [0x80] LOAD_WAIT(entity=Kipopo (ID: 17719612/0x010E613C))
 16: 0x10EC [0x92] Kipopo (ID: 17719612/0x010E613C)->Render.Flags3 ^= 0x01
 17: 0x10F2 [0x4A] Kipopo (ID: 17719612/0x010E613C) looks at LocalPlayer
 18: 0x10FB [0x6F] WAIT_FRAME_DELAY: Yield until WaitTime reaches zero
 19: 0x10FC [0x70] WAIT_ENTITY_RENDER_FLAG: Wait while EventEntity->Render.Flags3 bit 2 is set (cancel turn if not)
 20: 0x10FD [0x92] Orechiniel (ID: 17719380/0x010E6054)->Render.Flags3 ^= 0x01
 21: 0x1103 [0x92] Faulpie (ID: 17719379/0x010E6053)->Render.Flags3 ^= 0x01
 22: 0x1109 [0x92] Tek Lengyon (ID: 17719382/0x010E6056)->Render.Flags3 ^= 0x01
 23: 0x110F [0x80] LOAD_WAIT(entity=Orechiniel (ID: 17719380/0x010E6054))
 24: 0x1114 [0x80] LOAD_WAIT(entity=Faulpie (ID: 17719379/0x010E6053))
 25: 0x1119 [0x80] LOAD_WAIT(entity=Tek Lengyon (ID: 17719382/0x010E6056))
 26: 0x111E [0x79] LocalPlayer looks at Kipopo (ID: 17719612/0x010E613C) (Basic look)
 27: 0x1128 [0x5C] MUSIC_CONTROL: Set Idle (Day) music to song 45*
 28: 0x112C [0x5C] MUSIC_CONTROL: Set Idle (Night) music to song 45*
 29: 0x1130 [0x9A] WAIT_MUSIC_SERVER()
 30: 0x1131 [0x45] LOAD_SCHEDULED_TASK: Load scheduler "3002" with entities [LocalPlayer, LocalPlayer], work=[341*, 0*]
 31: 0x1142 [0x45] LOAD_SCHEDULED_TASK: Load scheduler "fdi1" with entities [LocalPlayer, LocalPlayer], work=[200*, 0*]
 32: 0x1153 [0x1C] WAIT(60* ticks)
 33: 0x1156 [0x66] LOAD_EXT_SCHEDULER_MAIN: Load scheduler "tlk0" with entities [Kipopo (ID: 17719612/0x010E613C), Kipopo (ID: 17719612/0x010E613C)], work=40*
 34: 0x1165 [0x03] Work_Zone[2] = 19110*
 35: 0x116A [0x2B] Kipopo (ID: 17719612/0x010E613C) [13546*]:
    → "Hm? That $0 you have there..."
 36: 0x1171 [0x23] WAIT_FOR_DIALOG_INTERACTION
 37: 0x1172 [0x2B] Kipopo (ID: 17719612/0x010E613C) [13547*]:
    → "It's exactaruly the same as the one my father used to have!"
 38: 0x1179 [0x23] WAIT_FOR_DIALOG_INTERACTION
 39: 0x117A [0x52] END_LOAD_SCHEDULER: End scheduler "3002" with entities [LocalPlayer, LocalPlayer], work=341*
 40: 0x1189 [0x45] LOAD_SCHEDULED_TASK: Load scheduler "ovl1" with entities [LocalPlayer, LocalPlayer], work=[200*, 0*]
 41: 0x119A [0x45] LOAD_SCHEDULED_TASK: Load scheduler "3005" with entities [LocalPlayer, LocalPlayer], work=[341*, 0*]
 42: 0x11AB [0x2B] Kipopo (ID: 17719612/0x010E613C) [13548*]:
    → "Father used to be a craftsman at the Tanners' Guild, you see. He's long retired now, though."
 43: 0x11B2 [0x23] WAIT_FOR_DIALOG_INTERACTION
 44: 0x11B3 [0x2B] Kipopo (ID: 17719612/0x010E613C) [13549*]:
    → "The Tanners' Guild in Windurst where he worked suffered irreparable damage during the Crystal War."
 45: 0x11BA [0x23] WAIT_FOR_DIALOG_INTERACTION
 46: 0x11BB [0x2B] Kipopo (ID: 17719612/0x010E613C) [13550*]:
    → "Father wanted nothing more than to restore the guild. But the scars of war run deepy-weep, and Father couldn't preventaru the guild from being officially shut down by the disheartened guildmaster."
 47: 0x11C2 [0x23] WAIT_FOR_DIALOG_INTERACTION
 48: 0x11C3 [0x52] END_LOAD_SCHEDULER: End scheduler "3005" with entities [LocalPlayer, LocalPlayer], work=341*
 49: 0x11D2 [0x45] LOAD_SCHEDULED_TASK: Load scheduler "ovl1" with entities [LocalPlayer, LocalPlayer], work=[200*, 0*]
 50: 0x11E3 [0x45] LOAD_SCHEDULED_TASK: Load scheduler "3006" with entities [LocalPlayer, LocalPlayer], work=[341*, 0*]
 51: 0x11F4 [0x4A] LocalPlayer looks at Tek Lengyon (ID: 17719382/0x010E6056)
 52: 0x11FD [0x2B] Kipopo (ID: 17719612/0x010E613C) [13551*]:
    → "I'm following in my father's footsteppy-weps and apprenticing here alongside my sister, Tek--it's a long story--over there."
 53: 0x1204 [0x23] WAIT_FOR_DIALOG_INTERACTION
 54: 0x1205 [0x2B] Kipopo (ID: 17719612/0x010E613C) [13552*]:
    → "Our mission is to fulfill Father's dreamy-weam of rebuilding the guild in Windurst."
 55: 0x120C [0x23] WAIT_FOR_DIALOG_INTERACTION
 56: 0x120D [0x66] LOAD_EXT_SCHEDULER_MAIN: Load scheduler "tlk1" with entities [Kipopo (ID: 17719612/0x010E613C), Kipopo (ID: 17719612/0x010E613C)], work=40*
 57: 0x121C [0xBA] SET_ENTITY_POSITION(entity_id=Faulpie (ID: 17719379/0x010E6053), pos_x=-188.302*, pos_z=12.873*, pos_y=-1.000*, direction=186.1°*)
 58: 0x1229 [0x52] END_LOAD_SCHEDULER: End scheduler "3006" with entities [LocalPlayer, LocalPlayer], work=341*
 59: 0x1238 [0x45] LOAD_SCHEDULED_TASK: Load scheduler "ovl1" with entities [LocalPlayer, LocalPlayer], work=[200*, 0*]
 60: 0x1249 [0x45] LOAD_SCHEDULED_TASK: Load scheduler "3007" with entities [LocalPlayer, LocalPlayer], work=[341*, 0*]
 61: 0x125A [0x5C] MUSIC_CONTROL: Set Idle (Day) music to song 107*
 62: 0x125E [0x5C] MUSIC_CONTROL: Set Idle (Night) music to song 107*
 63: 0x1262 [0x9A] WAIT_MUSIC_SERVER()
 64: 0x1263 [0x6E] Faulpie (ID: 17719379/0x010E6053) uses emote 25*
 65: 0x126A [0x99] Wait for Faulpie (ID: 17719379/0x010E6053) animation to complete
 66: 0x126F [0x2B] Faulpie (ID: 17719379/0x010E6053) [13553*]:
    → "Kipopo! You have a quota to fulfill, have you not? You may socialize all you wish--after your duties are done!"
 67: 0x1276 [0x23] WAIT_FOR_DIALOG_INTERACTION
 68: 0x1277 [0x4A] LocalPlayer looks at Faulpie (ID: 17719379/0x010E6053)
 69: 0x1280 [0x6F] WAIT_FRAME_DELAY: Yield until WaitTime reaches zero
 70: 0x1281 [0x70] WAIT_ENTITY_RENDER_FLAG: Wait while EventEntity->Render.Flags3 bit 2 is set (cancel turn if not)
 71: 0x1282 [0x79] LocalPlayer looks at Faulpie (ID: 17719379/0x010E6053) (Basic look)
 72: 0x128C [0x6E] Kipopo (ID: 17719612/0x010E613C) uses emote 21*
 73: 0x1293 [0x99] Wait for Kipopo (ID: 17719612/0x010E613C) animation to complete
 74: 0x1298 [0x99] Wait for Kipopo (ID: 17719612/0x010E613C) animation to complete
 75: 0x129D [0x1C] WAIT(60* ticks)
 76: 0x12A0 [0x4B] UPDATE_ENTITY_YAW(entity=Faulpie (ID: 17719379/0x010E6053), yaw=1.6°*)
 77: 0x12A7 [0x6F] WAIT_FRAME_DELAY: Yield until WaitTime reaches zero
 78: 0x12A8 [0x70] WAIT_ENTITY_RENDER_FLAG: Wait while EventEntity->Render.Flags3 bit 2 is set (cancel turn if not)
 79: 0x12A9 [0x27] REQ_SET(priority=0x0F, entity_id=Faulpie (ID: 17719379/0x010E6053), tag_num=0x28)
 80: 0x12B0 [0x1C] WAIT(60* ticks)
 81: 0x12B3 [0x52] END_LOAD_SCHEDULER: End scheduler "3007" with entities [LocalPlayer, LocalPlayer], work=341*
 82: 0x12C2 [0x45] LOAD_SCHEDULED_TASK: Load scheduler "ovl1" with entities [LocalPlayer, LocalPlayer], work=[200*, 0*]
 83: 0x12D3 [0x4E] SET_ENTITY_HIDE_FLAG: Hide LocalPlayer
 84: 0x12D9 [0x45] LOAD_SCHEDULED_TASK: Load scheduler "3005" with entities [LocalPlayer, LocalPlayer], work=[341*, 0*]
 85: 0x12EA [0x6E] Kipopo (ID: 17719612/0x010E613C) uses emote 36*
 86: 0x12F1 [0x99] Wait for Kipopo (ID: 17719612/0x010E613C) animation to complete
 87: 0x12F6 [0x2B] Kipopo (ID: 17719612/0x010E613C) [13554*]:
    → "Well, another day, another step closer to realizing my dreams!"
 88: 0x12FD [0x23] WAIT_FOR_DIALOG_INTERACTION
 89: 0x12FE [0x99] Wait for Kipopo (ID: 17719612/0x010E613C) animation to complete
 90: 0x1303 [0x1C] WAIT(60* ticks)
 91: 0x1306 [0x45] LOAD_SCHEDULED_TASK: Load scheduler "fdo1" with entities [LocalPlayer, LocalPlayer], work=[200*, 0*]
 92: 0x1317 [0x1C] WAIT(60* ticks)
 93: 0x131A [0x4E] SET_ENTITY_HIDE_FLAG: Show LocalPlayer
 94: 0x1320 [0x52] END_LOAD_SCHEDULER: End scheduler "3005" with entities [LocalPlayer, LocalPlayer], work=341*
 95: 0x132F [0x46] CAMERA_CONTROL: Restore default settings
 96: 0x1331 [0x45] LOAD_SCHEDULED_TASK: Load scheduler "fdi1" with entities [LocalPlayer, LocalPlayer], work=[200*, 0*]
 97: 0x1342 [0x20] SET_CLI_EVENT_UC_FLAG: Unlock player control
 98: 0x1344 [0x21] END_EVENT
 99: 0x1345 [0x00] END_REQSTACK()
```

### Event 65535.1

#### Metadata

| Field        | Value   |
|--------------|---------|
| Entrypoint   | 0x1346  |
| Data Size    | 4 bytes |
| Instructions | 2       |

```
      00 01 02 03 04 05 06 07  08 09 0A 0B 0C 0D 0E 0F
      -- -- -- -- -- -- -- --  -- -- -- -- -- -- -- --
1340:                   95 03  80 00                          ....      
```

#### Opcodes

```
  0: 0x1346 [0x95] SETUP_EVENT_NPC: Prepare NPC for event (Render.Flags3 = 0*)
  1: 0x1349 [0x00] END_REQSTACK()
```

### Event 65535.2

#### Metadata

| Field        | Value   |
|--------------|---------|
| Entrypoint   | 0x134A  |
| Data Size    | 2 bytes |
| Instructions | 2       |

```
      00 01 02 03 04 05 06 07  08 09 0A 0B 0C 0D 0E 0F
      -- -- -- -- -- -- -- --  -- -- -- -- -- -- -- --
1340:                                96 00                        ..    
```

#### Opcodes

```
  0: 0x134A [0x96] UNSET_EVENT_NPC: Restore NPC after event (removes event NPC status)
  1: 0x134B [0x00] END_REQSTACK()
```
