# 17719590

## Common Data

| Field            | Value                         |
|------------------|-------------------------------|
| Zone             | Southern San d'Oria (ID: 230) |
| Block Size       | 272 bytes                     |
| Total Events     | 7                             |
| References Count | 20                            |

## List of Events

| Event ID                 | Entrypoint   |   Size |   Instructions |
|--------------------------|--------------|--------|----------------|
| [65535](#event-65535)    | 0x0000       |      1 |              1 |
| [827](#event-827)        | 0x0001       |      1 |              1 |
| [823](#event-823)        | 0x0002       |      1 |              1 |
| [65535.1](#event-655351) | 0x0003       |     15 |              3 |
| [65535.2](#event-655352) | 0x0012       |     35 |              4 |
| [65535.3](#event-655353) | 0x0035       |     73 |              7 |
| [65535.4](#event-655354) | 0x007E       |     21 |              2 |

## DAT References (imed_data)

|   Index | Hex Value   |   Dec Value |
|---------|-------------|-------------|
|       0 | 0xFFFDF605  |  4294833669 |
|       1 | 0x427F5     |      272373 |
|       2 | 0xFFFF0DD1  |  4294905297 |
|       3 | 0x05FA      |        1530 |
|       4 | 0x0003      |           3 |
|       5 | 0x000D      |          13 |
|       6 | 0x000E      |          14 |
|       7 | 0x0017      |          23 |
|       8 | 0x0008      |           8 |
|       9 | 0x0004      |           4 |
|      10 | 0x0000      |           0 |
|      11 | 0x43F4      |       17396 |
|      12 | 0xFFFF8D53  |  4294937939 |
|      13 | 0x06A3      |        1699 |
|      14 | 0x0BA3      |        2979 |
|      15 | 0x000C      |          12 |
|      16 | 0x001E      |          30 |
|      17 | 0x0023      |          35 |
|      18 | 0x0001      |           1 |
|      19 | 0x001C      |          28 |

## Events

### Event 65535

#### Metadata

| Field        | Value   |
|--------------|---------|
| Entrypoint   | 0x0000  |
| Data Size    | 1 bytes |
| Instructions | 1       |

```
      00 01 02 03 04 05 06 07  08 09 0A 0B 0C 0D 0E 0F
      -- -- -- -- -- -- -- --  -- -- -- -- -- -- -- --
0000: 00                                                .               
```

#### Opcodes

```
  0: 0x0000 [0x00] END_REQSTACK()
```

### Event 827

#### Metadata

| Field        | Value   |
|--------------|---------|
| Entrypoint   | 0x0001  |
| Data Size    | 1 bytes |
| Instructions | 1       |

```
      00 01 02 03 04 05 06 07  08 09 0A 0B 0C 0D 0E 0F
      -- -- -- -- -- -- -- --  -- -- -- -- -- -- -- --
0000:    00                                              .              
```

#### Opcodes

```
  0: 0x0001 [0x00] END_REQSTACK()
```

### Event 823

#### Metadata

| Field        | Value   |
|--------------|---------|
| Entrypoint   | 0x0002  |
| Data Size    | 1 bytes |
| Instructions | 1       |

```
      00 01 02 03 04 05 06 07  08 09 0A 0B 0C 0D 0E 0F
      -- -- -- -- -- -- -- --  -- -- -- -- -- -- -- --
0000:       00                                            .             
```

#### Opcodes

```
  0: 0x0002 [0x00] END_REQSTACK()
```

### Event 65535.1

#### Metadata

| Field        | Value    |
|--------------|----------|
| Entrypoint   | 0x0003   |
| Data Size    | 15 bytes |
| Instructions | 3        |

```
      00 01 02 03 04 05 06 07  08 09 0A 0B 0C 0D 0E 0F
      -- -- -- -- -- -- -- --  -- -- -- -- -- -- -- --
0000:          37 00 80 01 80  02 80 03 80 80 F8 FF FF     7............
0010: 7F 00                                             ..              
```

#### Opcodes

```
  0: 0x0003 [0x37] UPDATE_EVENT_POSITION_AND_DIR: x=-133.627*, z=272.373*, y=-61.999*, direction=134.5°*
  1: 0x000C [0x80] LOAD_WAIT(entity=EventEntity)
  2: 0x0011 [0x00] END_REQSTACK()
```

### Event 65535.2

#### Metadata

| Field        | Value    |
|--------------|----------|
| Entrypoint   | 0x0012   |
| Data Size    | 35 bytes |
| Instructions | 4        |

```
      00 01 02 03 04 05 06 07  08 09 0A 0B 0C 0D 0E 0F
      -- -- -- -- -- -- -- --  -- -- -- -- -- -- -- --
0010:       B6 0B 04 80 05 80  06 80 07 80 08 80 08 80    ..............
0020: 09 80 0A 80 0A 80 37 0B  80 0C 80 0D 80 0E 80 80  ......7.........
0030: F8 FF FF 7F 00                                    .....           
```

#### Opcodes

```
  0: 0x0012 [0xB6] ENTITY_APPEARANCE_HANDLER(case=Full entity look, race=3*, hair=13*, head=14*, body=23*, hands=8*, legs=8*, feet=4*, main=0*, sub=0*)
  1: 0x0026 [0x37] UPDATE_EVENT_POSITION_AND_DIR: x=17.396*, z=-29.357*, y=1.699*, direction=261.8°*
  2: 0x002F [0x80] LOAD_WAIT(entity=EventEntity)
  3: 0x0034 [0x00] END_REQSTACK()
```

### Event 65535.3

#### Metadata

| Field        | Value    |
|--------------|----------|
| Entrypoint   | 0x0035   |
| Data Size    | 73 bytes |
| Instructions | 7        |

```
      00 01 02 03 04 05 06 07  08 09 0A 0B 0C 0D 0E 0F
      -- -- -- -- -- -- -- --  -- -- -- -- -- -- -- --
0030:                6E 26 61  0E 01 0F 80 99 26 61 0E       n&a.....&a.
0040: 01 66 10 80 29 61 0E 01  29 61 0E 01 70 6F 69 30  .f..)a..)a..poi0
0050: 66 10 80 28 61 0E 01 28  61 0E 01 74 68 6B 31 5B  f..(a..(a..thk1[
0060: 11 80 15 61 0E 01 15 61  0E 01 74 68 6B 31 5B 11  ...a...a..thk1[.
0070: 80 24 61 0E 01 24 61 0E  01 74 68 6B 31 00        .$a..$a..thk1.  
```

#### Opcodes

```
  0: 0x0035 [0x6E] Unnamed NPC (ID: 17719590/0x010E6126) uses emote 12*
  1: 0x003C [0x99] Wait for Unnamed NPC (ID: 17719590/0x010E6126) animation to complete
  2: 0x0041 [0x66] LOAD_EXT_SCHEDULER_MAIN: Load scheduler "poi0" with entities [Unnamed NPC (ID: 17719593/0x010E6129), Unnamed NPC (ID: 17719593/0x010E6129)], work=30*
  3: 0x0050 [0x66] LOAD_EXT_SCHEDULER_MAIN: Load scheduler "thk1" with entities [Unnamed NPC (ID: 17719592/0x010E6128), Unnamed NPC (ID: 17719592/0x010E6128)], work=30*
  4: 0x005F [0x5B] LOAD_EXT_SCHEDULER: Load scheduler "thk1" with entities [Unnamed NPC (ID: 17719573/0x010E6115), Unnamed NPC (ID: 17719573/0x010E6115)], work=35*
  5: 0x006E [0x5B] LOAD_EXT_SCHEDULER: Load scheduler "thk1" with entities [Brutus (ID: 17719588/0x010E6124), Brutus (ID: 17719588/0x010E6124)], work=35*
  6: 0x007D [0x00] END_REQSTACK()
```

### Event 65535.4

#### Metadata

| Field        | Value    |
|--------------|----------|
| Entrypoint   | 0x007E   |
| Data Size    | 21 bytes |
| Instructions | 2        |

```
      00 01 02 03 04 05 06 07  08 09 0A 0B 0C 0D 0E 0F
      -- -- -- -- -- -- -- --  -- -- -- -- -- -- -- --
0070:                                            B6 0B                ..
0080: 09 80 12 80 13 80 13 80  13 80 13 80 13 80 0A 80  ................
0090: 0A 80 00                                          ...             
```

#### Opcodes

```
  0: 0x007E [0xB6] ENTITY_APPEARANCE_HANDLER(case=Full entity look, race=4*, hair=1*, head=28*, body=28*, hands=28*, legs=28*, feet=28*, main=0*, sub=0*)
  1: 0x0092 [0x00] END_REQSTACK()
```
