# 17719298 - Aubejart

## Common Data

| Field            | Value                         |
|------------------|-------------------------------|
| Zone             | Southern San d'Oria (ID: 230) |
| Block Size       | 2572 bytes                    |
| Total Events     | 12                            |
| References Count | 87                            |

## List of Events

| Event ID                 | Entrypoint   |   Size |   Instructions |
|--------------------------|--------------|--------|----------------|
| [65535](#event-65535)    | 0x0000       |      1 |              1 |
| [0](#event-0)            | 0x0001       |   1832 |            257 |
| [582](#event-582)        | 0x0729       |     40 |             12 |
| [945](#event-945)        | 0x0751       |     10 |              2 |
| [65535.1](#event-655351) | 0x075B       |     15 |              5 |
| [65535.2](#event-655352) | 0x076A       |     68 |             12 |
| [65535.3](#event-655353) | 0x07AE       |     45 |              9 |
| [65535.4](#event-655354) | 0x07DB       |     89 |             16 |
| [65535.5](#event-655355) | 0x0834       |     15 |              5 |
| [65535.6](#event-655356) | 0x0843       |     10 |              2 |
| [65535.7](#event-655357) | 0x084D       |     15 |              5 |
| [65535.8](#event-655358) | 0x085C       |     18 |              6 |

## DAT References (imed_data)

|   Index | Hex Value   |   Dec Value |
|---------|-------------|-------------|
|       0 | 0x009F      |         159 |
|       1 | 0x0003      |           3 |
|       2 | 0x089B      |        2203 |
|       3 | 0x2F19      |       12057 |
|       4 | 0x0286      |         646 |
|       5 | 0x0400      |        1024 |
|       6 | 0x0000      |           0 |
|       7 | 0x0001      |           1 |
|       8 | 0x0013      |          19 |
|       9 | 0x00C8      |         200 |
|      10 | 0x001E      |          30 |
|      11 | 0x244F      |        9295 |
|      12 | 0x0064      |         100 |
|      13 | 0x005A      |          90 |
|      14 | 0x2450      |        9296 |
|      15 | 0x0015      |          21 |
|      16 | 0x003C      |          60 |
|      17 | 0x2451      |        9297 |
|      18 | 0x000F      |          15 |
|      19 | 0x2452      |        9298 |
|      20 | 0x030C      |         780 |
|      21 | 0x097F      |        2431 |
|      22 | 0x2453      |        9299 |
|      23 | 0x2454      |        9300 |
|      24 | 0x0078      |         120 |
|      25 | 0x0005      |           5 |
|      26 | 0x0006      |           6 |
|      27 | 0x0008      |           8 |
|      28 | 0x012C      |         300 |
|      29 | 0x2455      |        9301 |
|      30 | 0x00B4      |         180 |
|      31 | 0x000A      |          10 |
|      32 | 0x2456      |        9302 |
|      33 | 0x01CC      |         460 |
|      34 | 0x2457      |        9303 |
|      35 | 0x2458      |        9304 |
|      36 | 0x2459      |        9305 |
|      37 | 0x00FA      |         250 |
|      38 | 0x245A      |        9306 |
|      39 | 0x245B      |        9307 |
|      40 | 0x245C      |        9308 |
|      41 | 0x0099      |         153 |
|      42 | 0x00E9      |         233 |
|      43 | 0x0175      |         373 |
|      44 | 0x0DC9      |        3529 |
|      45 | 0x245D      |        9309 |
|      46 | 0x245E      |        9310 |
|      47 | 0x05F3      |        1523 |
|      48 | 0x245F      |        9311 |
|      49 | 0x00E6      |         230 |
|      50 | 0x2460      |        9312 |
|      51 | 0x00F0      |         240 |
|      52 | 0x0168      |         360 |
|      53 | 0x00C9      |         201 |
|      54 | 0x01F4      |         500 |
|      55 | 0x2461      |        9313 |
|      56 | 0x2462      |        9314 |
|      57 | 0x006B      |         107 |
|      58 | 0x0014      |          20 |
|      59 | 0x2009      |        8201 |
|      60 | 0x200A      |        8202 |
|      61 | 0x0060      |          96 |
|      62 | 0x000B      |          11 |
|      63 | 0xF906      |       63750 |
|      64 | 0xFFFFC4F8  |  4294952184 |
|      65 | 0x07CF      |        1999 |
|      66 | 0x7FC6      |       32710 |
|      67 | 0xFFFF82CC  |  4294935244 |
|      68 | 0x004B      |          75 |
|      69 | 0x0027      |          39 |
|      70 | 0x4B65      |       19301 |
|      71 | 0xFFFF927C  |  4294939260 |
|      72 | 0x001D      |          29 |
|      73 | 0x000D      |          13 |
|      74 | 0xFFFFE0FB  |  4294959355 |
|      75 | 0xFFFFFCD8  |  4294966488 |
|      76 | 0xFFFFBEF4  |  4294950644 |
|      77 | 0xFFFFD7DD  |  4294957021 |
|      78 | 0xFFFFDD9F  |  4294958495 |
|      79 | 0xFFFFA44E  |  4294943822 |
|      80 | 0x007F      |         127 |
|      81 | 0x0028      |          40 |
|      82 | 0x3192      |       12690 |
|      83 | 0xFFFFCF7D  |  4294954877 |
|      84 | 0x0025      |          37 |
|      85 | 0x2E04      |       11780 |
|      86 | 0xFFFFCBDF  |  4294953951 |

## String References

- **8201**: You stand beneath Victory Arch. Beyond lies Northern San d'Oria. The tale of its magnificence stretches back some 300 years to the era of Warking Acheufagais.
- **8202**: The arch stands impervious, unfelled even by the great chaos brought about by the Civil and Crystal Wars. It is precisely this permanence that has made the Victory Arch the pride of the Royal Army!
- **9297**: I apologize, Your Highness. I have not seen the man you seek.
- **9303**: One day far in the future, historians will look back on this moment as the end of a chapter in San d'Orian history.
- **9304**: ...A chapter filled with blood, deceit, and chaos.
- **9305**: However, those historians will never know that the tale they describe would never have transpired, were it not for the deeds of one brave adventurer. It is often said that the greatest heroes are the ones who remain unknown.
- **9306**: But who knows what the future holds for <Player>?
- **9307**: Perhaps the pages of the next chapter will be graced with [his/her] name.
- **9308**: But that is another story...
- **9309**: What can be said is this:
- **9310**: Even if one day Vana'diel were to vanish from the universe as we know it...
- **9311**: The trials you endured in San d'Oria--the pain, the anger, the tears, and the laughter...
- **9312**: Those memories will forever remain in your heart and never fade...
- **9313**: Until the end...
- **9314**: The end of time...

## Events

### Event 65535

#### Metadata

| Field        | Value   |
|--------------|---------|
| Entrypoint   | 0x0000  |
| Data Size    | 1 bytes |
| Instructions | 1       |

```
      00 01 02 03 04 05 06 07  08 09 0A 0B 0C 0D 0E 0F
      -- -- -- -- -- -- -- --  -- -- -- -- -- -- -- --
0000: 00                                                .               
```

#### Opcodes

```
  0: 0x0000 [0x00] END_REQSTACK()
```

### Event 0

#### Metadata

| Field        | Value      |
|--------------|------------|
| Entrypoint   | 0x0001     |
| Data Size    | 1832 bytes |
| Instructions | 257        |

```
      00 01 02 03 04 05 06 07  08 09 0A 0B 0C 0D 0E 0F
      -- -- -- -- -- -- -- --  -- -- -- -- -- -- -- --
0000:    20 01 46 01 42 5C 00  00 80 5C 01 00 80 38 01    .F.B\...\...8.
0010: 80 37 02 80 03 80 04 80  05 80 27 03 F0 FF FF 7F  .7........'.....
0020: 0F 97 06 80 07 80 45 08  80 F0 FF FF 7F F0 FF FF  ......E.........
0030: 7F 7A 30 30 30 06 80 55  08 80 F0 FF FF 7F F0 FF  .z000..U........
0040: FF 7F 7A 30 30 30 4E 00  49 60 0E 01 4E 00 44 60  ..z000N.I`..N.D`
0050: 0E 01 4E 00 E0 60 0E 01  94 01 49 60 0E 01 94 01  ..N..`....I`....
0060: 44 60 0E 01 94 01 E0 60  0E 01 80 49 60 0E 01 80  D`.....`...I`...
0070: F8 FF FF 7F 4E 01 F0 FF  FF 7F 27 03 49 60 0E 01  ....N.....'.I`..
0080: 02 45 09 80 F0 FF FF 7F  F0 FF FF 7F 66 64 69 31  .E..........fdi1
0090: 06 80 55 09 80 F0 FF FF  7F F0 FF FF 7F 66 64 69  ..U..........fdi
00A0: 31 2A 03 49 60 0E 01 27  03 49 60 0E 01 0E 1C 0A  1*.I`..'.I`.....
00B0: 80 2B 49 60 0E 01 0B 80  23 29 03 49 60 0E 01 0F  .+I`....#).I`...
00C0: 27 03 49 60 0E 01 03 1C  0C 80 45 08 80 F0 FF FF  '.I`......E.....
00D0: 7F F0 FF FF 7F 7A 30 30  31 06 80 2A 03 49 60 0E  .....z001..*.I`.
00E0: 01 55 08 80 F0 FF FF 7F  F0 FF FF 7F 7A 30 30 31  .U..........z001
00F0: 27 03 49 60 0E 01 04 1C  0D 80 45 08 80 F0 FF FF  '.I`......E.....
0100: 7F F0 FF FF 7F 7A 30 30  32 06 80 2A 03 49 60 0E  .....z002..*.I`.
0110: 01 55 08 80 F0 FF FF 7F  F0 FF FF 7F 7A 30 30 32  .U..........z002
0120: 4A 49 60 0E 01 F8 FF FF  7F 6F 76 49 60 0E 01 2B  JI`......ovI`..+
0130: 49 60 0E 01 0E 80 23 1E  49 60 0E 01 6F 70 66 0F  I`....#.I`..opf.
0140: 80 F8 FF FF 7F F8 FF FF  7F 73 6C 30 30 1C 10 80  .........sl00...
0150: 1D 11 80 23 53 F8 FF FF  7F F8 FF FF 7F 73 6C 30  ...#S........sl0
0160: 30 7B 49 60 0E 01 4B 49  60 0E 01 05 80 6F 76 49  0{I`..KI`....ovI
0170: 60 0E 01 27 03 49 60 0E  01 0A 1C 12 80 45 08 80  `..'.I`......E..
0180: F0 FF FF 7F F0 FF FF 7F  7A 30 30 33 06 80 2B 49  ........z003..+I
0190: 60 0E 01 13 80 23 29 03  49 60 0E 01 0B 55 08 80  `....#).I`...U..
01A0: F0 FF FF 7F F0 FF FF 7F  7A 30 30 33 29 03 49 60  ........z003).I`
01B0: 0E 01 05 45 08 80 F0 FF  FF 7F F0 FF FF 7F 7A 30  ...E..........z0
01C0: 30 34 06 80 55 08 80 F0  FF FF 7F F0 FF FF 7F 7A  04..U..........z
01D0: 30 30 34 28 03 49 60 0E  01 06 1C 14 80 45 08 80  004(.I`......E..
01E0: F0 FF FF 7F F0 FF FF 7F  7A 30 30 36 06 80 1C 0C  ........z006....
01F0: 80 27 03 E0 60 0E 01 02  55 08 80 F0 FF FF 7F F0  .'..`...U.......
0200: FF FF 7F 7A 30 30 36 45  08 80 F0 FF FF 7F F0 FF  ...z006E........
0210: FF 7F 7A 30 30 37 06 80  55 08 80 F0 FF FF 7F F0  ..z007..U.......
0220: FF FF 7F 7A 30 30 37 2A  03 E0 60 0E 01 1C 0A 80  ...z007*..`.....
0230: 29 03 45 60 0E 01 05 79  00 E0 60 0E 01 45 60 0E  ).E`...y..`..E`.
0240: 01 4B E0 60 0E 01 15 80  1C 12 80 45 08 80 F0 FF  .K.`.......E....
0250: FF 7F F0 FF FF 7F 7A 30  30 38 06 80 4E 00 F0 FF  ......z008..N...
0260: FF 7F 6F 76 E0 60 0E 01  55 08 80 F0 FF FF 7F F0  ..ov.`..U.......
0270: FF FF 7F 7A 30 30 38 2B  E0 60 0E 01 16 80 23 7B  ...z008+.`....#{
0280: E0 60 0E 01 1C 10 80 2B  E0 60 0E 01 17 80 23 1C  .`.....+.`....#.
0290: 0A 80 27 03 E0 60 0E 01  03 79 00 F0 FF FF 7F E0  ..'..`...y......
02A0: 60 0E 01 1C 18 80 02 87  7F 19 80 80 C2 02 45 08  `.............E.
02B0: 80 F0 FF FF 7F F0 FF FF  7F 7A 30 30 62 06 80 01  .........z00b...
02C0: 0B 03 02 87 7F 1A 80 80  DE 02 45 08 80 F0 FF FF  ..........E.....
02D0: 7F F0 FF FF 7F 7A 30 30  62 06 80 01 0B 03 02 87  .....z00b.......
02E0: 7F 1B 80 80 FA 02 45 08  80 F0 FF FF 7F F0 FF FF  ......E.........
02F0: 7F 7A 30 30 63 06 80 01  0B 03 45 08 80 F0 FF FF  .z00c.....E.....
0300: 7F F0 FF FF 7F 7A 30 30  39 06 80 1C 1C 80 2A 03  .....z009.....*.
0310: E0 60 0E 01 2B E0 60 0E  01 1D 80 23 27 03 E0 60  .`..+.`....#'..`
0320: 0E 01 04 1C 1E 80 4A F0  FF FF 7F E0 60 0E 01 1C  ......J.....`...
0330: 1F 80 45 08 80 F0 FF FF  7F F0 FF FF 7F 7A 30 31  ..E..........z01
0340: 30 06 80 55 08 80 F0 FF  FF 7F F0 FF FF 7F 7A 30  0..U..........z0
0350: 31 30 1C 18 80 4A F0 FF  FF 7F E0 60 0E 01 1C 18  10...J.....`....
0360: 80 4A 44 60 0E 01 F0 FF  FF 7F 2A 03 E0 60 0E 01  .JD`......*..`..
0370: 1C 0A 80 45 08 80 F0 FF  FF 7F F0 FF FF 7F 7A 30  ...E..........z0
0380: 30 61 06 80 55 08 80 F0  FF FF 7F F0 FF FF 7F 7A  0a..U..........z
0390: 30 30 61 1C 0A 80 2B E0  60 0E 01 20 80 23 1C 0A  00a...+.`.. .#..
03A0: 80 27 03 E0 60 0E 01 05  1C 10 80 27 03 44 60 0E  .'..`......'.D`.
03B0: 01 02 1C 1E 80 45 08 80  F0 FF FF 7F F0 FF FF 7F  .....E..........
03C0: 7A 30 31 31 06 80 27 03  F0 FF FF 7F 10 1C 21 80  z011..'.......!.
03D0: 48 22 80 23 55 08 80 F0  FF FF 7F F0 FF FF 7F 7A  H".#U..........z
03E0: 30 31 31 45 09 80 49 60  0E 01 49 60 0E 01 6F 76  011E..I`..I`..ov
03F0: 6C 31 06 80 45 08 80 F0  FF FF 7F F0 FF FF 7F 7A  l1..E..........z
0400: 30 31 32 06 80 1C 10 80  48 23 80 23 1C 0C 80 48  012.....H#.#...H
0410: 24 80 23 55 08 80 F0 FF  FF 7F F0 FF FF 7F 7A 30  $.#U..........z0
0420: 31 32 45 09 80 45 60 0E  01 45 60 0E 01 6F 76 6C  12E..E`..E`..ovl
0430: 31 06 80 45 08 80 F0 FF  FF 7F F0 FF FF 7F 7A 30  1..E..........z0
0440: 31 33 06 80 27 03 49 60  0E 01 07 1C 25 80 48 26  13..'.I`....%.H&
0450: 80 23 55 08 80 F0 FF FF  7F F0 FF FF 7F 7A 30 31  .#U..........z01
0460: 33 45 09 80 45 60 0E 01  45 60 0E 01 6F 76 6C 31  3E..E`..E`..ovl1
0470: 06 80 45 08 80 F0 FF FF  7F F0 FF FF 7F 7A 30 31  ..E..........z01
0480: 34 06 80 1C 0C 80 48 27  80 23 1C 09 80 5D 06 80  4.....H'.#...]..
0490: 09 80 48 28 80 1C 18 80  23 55 08 80 F0 FF FF 7F  ..H(....#U......
04A0: F0 FF FF 7F 7A 30 31 34  45 09 80 F0 FF FF 7F F0  ....z014E.......
04B0: FF FF 7F 66 64 6F 31 06  80 55 09 80 F0 FF FF 7F  ...fdo1..U......
04C0: F0 FF FF 7F 66 64 6F 31  5C 00 29 80 5C 01 29 80  ....fdo1\.).\.).
04D0: 9A 34 2A 80 1C 0C 80 38  08 80 78 27 03 43 60 0E  .4*....8..x'.C`.
04E0: 01 01 27 03 45 60 0E 01  04 27 03 47 60 0E 01 01  ..'.E`...'.G`...
04F0: 80 43 60 0E 01 80 45 60  0E 01 80 47 60 0E 01 4E  .C`...E`...G`..N
0500: 00 43 60 0E 01 4E 00 45  60 0E 01 4E 00 47 60 0E  .C`..N.E`..N.G`.
0510: 01 75 00 2B 80 75 01 45  08 80 F0 FF FF 7F F0 FF  .u.+.u.E........
0520: FF 7F 79 30 30 30 06 80  55 08 80 F0 FF FF 7F F0  ..y000..U.......
0530: FF FF 7F 79 30 30 30 45  09 80 F0 FF FF 7F F0 FF  ...y000E........
0540: FF 7F 66 64 69 31 06 80  55 09 80 F0 FF FF 7F F0  ..fdi1..U.......
0550: FF FF 7F 66 64 69 31 27  03 45 60 0E 01 06 27 03  ...fdi1'.E`...'.
0560: 47 60 0E 01 02 1C 10 80  4B 43 60 0E 01 2C 80 1C  G`......KC`..,..
0570: 0A 80 45 08 80 F0 FF FF  7F F0 FF FF 7F 79 30 30  ..E..........y00
0580: 31 06 80 6F 76 43 60 0E  01 48 2D 80 23 2A 03 45  1..ovC`..H-.#*.E
0590: 60 0E 01 2A 03 47 60 0E  01 48 2E 80 23 55 08 80  `..*.G`..H..#U..
05A0: F0 FF FF 7F F0 FF FF 7F  79 30 30 31 1C 10 80 4B  ........y001...K
05B0: 43 60 0E 01 2F 80 1C 12  80 45 08 80 F0 FF FF 7F  C`../....E......
05C0: F0 FF FF 7F 79 30 30 32  06 80 6F 76 43 60 0E 01  ....y002..ovC`..
05D0: 29 03 43 60 0E 01 02 1C  10 80 27 03 45 60 0E 01  ).C`......'.E`..
05E0: 07 27 03 47 60 0E 01 03  48 30 80 1C 1E 80 45 09  .'.G`...H0....E.
05F0: 80 F0 FF FF 7F F0 FF FF  7F 66 64 6F 31 06 80 55  .........fdo1..U
0600: 09 80 F0 FF FF 7F F0 FF  FF 7F 66 64 6F 31 23 55  ..........fdo1#U
0610: 08 80 F0 FF FF 7F F0 FF  FF 7F 79 30 30 32 35 31  ..........y00251
0620: 80 1C 0C 80 38 01 80 78  80 F0 FF FF 7F 27 03 F0  ....8..x.....'..
0630: FF FF 7F 11 45 08 80 F0  FF FF 7F F0 FF FF 7F 7A  ....E..........z
0640: 30 31 35 06 80 55 08 80  F0 FF FF 7F F0 FF FF 7F  015..U..........
0650: 7A 30 31 35 45 09 80 F0  FF FF 7F F0 FF FF 7F 66  z015E..........f
0660: 64 69 31 06 80 55 09 80  F0 FF FF 7F F0 FF FF 7F  di1..U..........
0670: 66 64 69 31 1C 1C 80 45  08 80 F0 FF FF 7F F0 FF  fdi1...E........
0680: FF 7F 7A 30 31 36 06 80  55 08 80 F0 FF FF 7F F0  ..z016..U.......
0690: FF FF 7F 7A 30 31 36 1C  18 80 48 32 80 1C 33 80  ...z016...H2..3.
06A0: 45 08 80 F0 FF FF 7F F0  FF FF 7F 7A 30 31 37 06  E..........z017.
06B0: 80 1C 34 80 45 35 80 45  60 0E 01 45 60 0E 01 77  ..4.E5.E`..E`..w
06C0: 68 6F 31 06 80 55 35 80  45 60 0E 01 45 60 0E 01  ho1..U5.E`..E`..
06D0: 77 68 6F 31 23 5D 06 80  36 80 1C 1E 80 48 37 80  who1#]..6....H7.
06E0: 23 1C 1C 80 48 38 80 23  52 08 80 F0 FF FF 7F F0  #...H8.#R.......
06F0: FF FF 7F 7A 30 31 37 78  1C 1C 80 5C 00 39 80 5C  ...z017x...\.9.\
0700: 01 39 80 46 00 45 09 80  F0 FF FF 7F F0 FF FF 7F  .9.F.E..........
0710: 66 64 69 31 06 80 45 35  80 F0 FF FF 7F F0 FF FF  fdi1..E5........
0720: 7F 77 68 69 31 06 80 21  00                       .whi1..!.       
```

#### Opcodes

```
  0: 0x0001 [0x20] SET_CLI_EVENT_UC_FLAG: Lock player control
  1: 0x0003 [0x46] CAMERA_CONTROL: Disable user control
  2: 0x0005 [0x42] SET_CLI_EVENT_CANCEL_DATA()
  3: 0x0006 [0x5C] MUSIC_CONTROL: Set Idle (Day) music to song 159*
  4: 0x000A [0x5C] MUSIC_CONTROL: Set Idle (Night) music to song 159*
  5: 0x000E [0x38] SET_CLIENT_EVENT_MODE(mode=3*)
  6: 0x0011 [0x37] UPDATE_EVENT_POSITION_AND_DIR: x=2.203*, z=12.057*, y=0.646*, direction=90.0°*
  7: 0x001A [0x27] REQ_SET(priority=0x03, entity_id=LocalPlayer, tag_num=0x0F)
  8: 0x0021 [0x97] SAVE_SET_WIND_VALUES(wind_base=0x8006, wind_width=0x8007)
  9: 0x0026 [0x45] LOAD_SCHEDULED_TASK: Load scheduler "z000" with entities [LocalPlayer, LocalPlayer], work=[19*, 0*]
 10: 0x0037 [0x55] WAIT_LOAD_SCHEDULER: Wait for scheduler "z000" with entities [LocalPlayer, LocalPlayer], work=19*
 11: 0x0046 [0x4E] SET_ENTITY_HIDE_FLAG: Show Claidie (ID: 17719369/0x010E6049)
 12: 0x004C [0x4E] SET_ENTITY_HIDE_FLAG: Show Vauderame (ID: 17719364/0x010E6044)
 13: 0x0052 [0x4E] SET_ENTITY_HIDE_FLAG: Show Rochefogne (ID: 17719520/0x010E60E0)
 14: 0x0058 [0x94] Claidie (ID: 17719369/0x010E6049)->Render.Flags3 ^= 0x01
 15: 0x005E [0x94] Vauderame (ID: 17719364/0x010E6044)->Render.Flags3 ^= 0x01
 16: 0x0064 [0x94] Rochefogne (ID: 17719520/0x010E60E0)->Render.Flags3 ^= 0x01
 17: 0x006A [0x80] LOAD_WAIT(entity=Claidie (ID: 17719369/0x010E6049))
 18: 0x006F [0x80] LOAD_WAIT(entity=EventEntity)
 19: 0x0074 [0x4E] SET_ENTITY_HIDE_FLAG: Hide LocalPlayer
 20: 0x007A [0x27] REQ_SET(priority=0x03, entity_id=Claidie (ID: 17719369/0x010E6049), tag_num=0x02)
 21: 0x0081 [0x45] LOAD_SCHEDULED_TASK: Load scheduler "fdi1" with entities [LocalPlayer, LocalPlayer], work=[200*, 0*]
 22: 0x0092 [0x55] WAIT_LOAD_SCHEDULER: Wait for scheduler "fdi1" with entities [LocalPlayer, LocalPlayer], work=200*
 23: 0x00A1 [0x2A] GET_REQ_LEVEL(level=3, entity_id=Claidie (ID: 17719369/0x010E6049))
 24: 0x00A7 [0x27] REQ_SET(priority=0x03, entity_id=Claidie (ID: 17719369/0x010E6049), tag_num=0x0E)
 25: 0x00AE [0x1C] WAIT(30* ticks)
 26: 0x00B1 [0x2B] Claidie (ID: 17719369/0x010E6049) [9295*]:
    → "Rochefogne! Where have you gone, Rochefogne? San d'Oria needs you!"
 27: 0x00B8 [0x23] WAIT_FOR_DIALOG_INTERACTION
 28: 0x00B9 [0x29] REQ_SET_WAIT(priority=0x03, entity_id=Claidie (ID: 17719369/0x010E6049), tag_num=0x0F)
 29: 0x00C0 [0x27] REQ_SET(priority=0x03, entity_id=Claidie (ID: 17719369/0x010E6049), tag_num=0x03)
 30: 0x00C7 [0x1C] WAIT(100* ticks)
 31: 0x00CA [0x45] LOAD_SCHEDULED_TASK: Load scheduler "z001" with entities [LocalPlayer, LocalPlayer], work=[19*, 0*]
 32: 0x00DB [0x2A] GET_REQ_LEVEL(level=3, entity_id=Claidie (ID: 17719369/0x010E6049))
 33: 0x00E1 [0x55] WAIT_LOAD_SCHEDULER: Wait for scheduler "z001" with entities [LocalPlayer, LocalPlayer], work=19*
 34: 0x00F0 [0x27] REQ_SET(priority=0x03, entity_id=Claidie (ID: 17719369/0x010E6049), tag_num=0x04)
 35: 0x00F7 [0x1C] WAIT(90* ticks)
 36: 0x00FA [0x45] LOAD_SCHEDULED_TASK: Load scheduler "z002" with entities [LocalPlayer, LocalPlayer], work=[19*, 0*]
 37: 0x010B [0x2A] GET_REQ_LEVEL(level=3, entity_id=Claidie (ID: 17719369/0x010E6049))
 38: 0x0111 [0x55] WAIT_LOAD_SCHEDULER: Wait for scheduler "z002" with entities [LocalPlayer, LocalPlayer], work=19*
 39: 0x0120 [0x4A] Claidie (ID: 17719369/0x010E6049) looks at EventEntity
 40: 0x0129 [0x6F] WAIT_FRAME_DELAY: Yield until WaitTime reaches zero
 41: 0x012A [0x76] CHECK_ENTITY_RENDER_FLAGS: Wait until Claidie (ID: 17719369/0x010E6049) Render.Flags0 and Render.Flags3 conditions are met
 42: 0x012F [0x2B] Claidie (ID: 17719369/0x010E6049) [9296*]:
    → "You there! Have you seen Rochefogne?"
 43: 0x0136 [0x23] WAIT_FOR_DIALOG_INTERACTION
 44: 0x0137 [0x1E] EventEntity looks at Claidie (ID: 17719369/0x010E6049) and starts talking
 45: 0x013C [0x6F] WAIT_FRAME_DELAY: Yield until WaitTime reaches zero
 46: 0x013D [0x70] WAIT_ENTITY_RENDER_FLAG: Wait while EventEntity->Render.Flags3 bit 2 is set (cancel turn if not)
 47: 0x013E [0x66] LOAD_EXT_SCHEDULER_MAIN: Load scheduler "sl00" with entities [EventEntity, EventEntity], work=21*
 48: 0x014D [0x1C] WAIT(60* ticks)
 49: 0x0150 [0x1D] PRINT_EVENT_MESSAGE(message_id=9297*)
    → "I apologize, Your Highness. I have not seen the man you seek."
 50: 0x0153 [0x23] WAIT_FOR_DIALOG_INTERACTION
 51: 0x0154 [0x53] WAIT_SCHEDULER_TASK: Wait for scheduler "sl00" with entities [EventEntity, EventEntity]
 52: 0x0161 [0x7B] Claidie (ID: 17719369/0x010E6049) stops talking
 53: 0x0166 [0x4B] UPDATE_ENTITY_YAW(entity=Claidie (ID: 17719369/0x010E6049), yaw=5.6°*)
 54: 0x016D [0x6F] WAIT_FRAME_DELAY: Yield until WaitTime reaches zero
 55: 0x016E [0x76] CHECK_ENTITY_RENDER_FLAGS: Wait until Claidie (ID: 17719369/0x010E6049) Render.Flags0 and Render.Flags3 conditions are met
 56: 0x0173 [0x27] REQ_SET(priority=0x03, entity_id=Claidie (ID: 17719369/0x010E6049), tag_num=0x0A)
 57: 0x017A [0x1C] WAIT(15* ticks)
 58: 0x017D [0x45] LOAD_SCHEDULED_TASK: Load scheduler "z003" with entities [LocalPlayer, LocalPlayer], work=[19*, 0*]
 59: 0x018E [0x2B] Claidie (ID: 17719369/0x010E6049) [9298*]:
    → "Where could he have gone...? His wounds are still fresh. He requires more rest."
 60: 0x0195 [0x23] WAIT_FOR_DIALOG_INTERACTION
 61: 0x0196 [0x29] REQ_SET_WAIT(priority=0x03, entity_id=Claidie (ID: 17719369/0x010E6049), tag_num=0x0B)
 62: 0x019D [0x55] WAIT_LOAD_SCHEDULER: Wait for scheduler "z003" with entities [LocalPlayer, LocalPlayer], work=19*
 63: 0x01AC [0x29] REQ_SET_WAIT(priority=0x03, entity_id=Claidie (ID: 17719369/0x010E6049), tag_num=0x05)
 64: 0x01B3 [0x45] LOAD_SCHEDULED_TASK: Load scheduler "z004" with entities [LocalPlayer, LocalPlayer], work=[19*, 0*]
 65: 0x01C4 [0x55] WAIT_LOAD_SCHEDULER: Wait for scheduler "z004" with entities [LocalPlayer, LocalPlayer], work=19*
 66: 0x01D3 [0x28] REQ_SET_WITH_CONDITIONS(priority=0x03, target_entity=Claidie (ID: 17719369/0x010E6049), tag_num=0x06)
 67: 0x01DA [0x1C] WAIT(780* ticks)
 68: 0x01DD [0x45] LOAD_SCHEDULED_TASK: Load scheduler "z006" with entities [LocalPlayer, LocalPlayer], work=[19*, 0*]
 69: 0x01EE [0x1C] WAIT(100* ticks)
 70: 0x01F1 [0x27] REQ_SET(priority=0x03, entity_id=Rochefogne (ID: 17719520/0x010E60E0), tag_num=0x02)
 71: 0x01F8 [0x55] WAIT_LOAD_SCHEDULER: Wait for scheduler "z006" with entities [LocalPlayer, LocalPlayer], work=19*
 72: 0x0207 [0x45] LOAD_SCHEDULED_TASK: Load scheduler "z007" with entities [LocalPlayer, LocalPlayer], work=[19*, 0*]
 73: 0x0218 [0x55] WAIT_LOAD_SCHEDULER: Wait for scheduler "z007" with entities [LocalPlayer, LocalPlayer], work=19*
 74: 0x0227 [0x2A] GET_REQ_LEVEL(level=3, entity_id=Rochefogne (ID: 17719520/0x010E60E0))
 75: 0x022D [0x1C] WAIT(30* ticks)
 76: 0x0230 [0x29] REQ_SET_WAIT(priority=0x03, entity_id=Trion (ID: 17719365/0x010E6045), tag_num=0x05)
 77: 0x0237 [0x79] Rochefogne (ID: 17719520/0x010E60E0) looks at Trion (ID: 17719365/0x010E6045) (Basic look)
 78: 0x0241 [0x4B] UPDATE_ENTITY_YAW(entity=Rochefogne (ID: 17719520/0x010E60E0), yaw=13.4°*)
 79: 0x0248 [0x1C] WAIT(15* ticks)
 80: 0x024B [0x45] LOAD_SCHEDULED_TASK: Load scheduler "z008" with entities [LocalPlayer, LocalPlayer], work=[19*, 0*]
 81: 0x025C [0x4E] SET_ENTITY_HIDE_FLAG: Show LocalPlayer
 82: 0x0262 [0x6F] WAIT_FRAME_DELAY: Yield until WaitTime reaches zero
 83: 0x0263 [0x76] CHECK_ENTITY_RENDER_FLAGS: Wait until Rochefogne (ID: 17719520/0x010E60E0) Render.Flags0 and Render.Flags3 conditions are met
 84: 0x0268 [0x55] WAIT_LOAD_SCHEDULER: Wait for scheduler "z008" with entities [LocalPlayer, LocalPlayer], work=19*
 85: 0x0277 [0x2B] Rochefogne (ID: 17719520/0x010E60E0) [9299*]:
    → "Leaute, my sister. If you could only be here today... How proud you would be of your children. May you rest in peace knowing that."
 86: 0x027E [0x23] WAIT_FOR_DIALOG_INTERACTION
 87: 0x027F [0x7B] Rochefogne (ID: 17719520/0x010E60E0) stops talking
 88: 0x0284 [0x1C] WAIT(60* ticks)
 89: 0x0287 [0x2B] Rochefogne (ID: 17719520/0x010E60E0) [9300*]:
    → "Now I must be on my way. I have no right to remain here in your kingdom."
 90: 0x028E [0x23] WAIT_FOR_DIALOG_INTERACTION
 91: 0x028F [0x1C] WAIT(30* ticks)
 92: 0x0292 [0x27] REQ_SET(priority=0x03, entity_id=Rochefogne (ID: 17719520/0x010E60E0), tag_num=0x03)
 93: 0x0299 [0x79] LocalPlayer looks at Rochefogne (ID: 17719520/0x010E60E0) (Basic look)
 94: 0x02A3 [0x1C] WAIT(120* ticks)
 95: 0x02A6 [0x02] IF !(LocalPlayer->Race == 5*) GOTO 0x02C2
 96: 0x02AE [0x45] LOAD_SCHEDULED_TASK: Load scheduler "z00b" with entities [LocalPlayer, LocalPlayer], work=[19*, 0*]
 97: 0x02BF [0x01] GOTO 0x030B
 98: 0x02C2 [0x02] IF !(LocalPlayer->Race == 6*) GOTO 0x02DE
 99: 0x02CA [0x45] LOAD_SCHEDULED_TASK: Load scheduler "z00b" with entities [LocalPlayer, LocalPlayer], work=[19*, 0*]
100: 0x02DB [0x01] GOTO 0x030B
101: 0x02DE [0x02] IF !(LocalPlayer->Race == 8*) GOTO 0x02FA
102: 0x02E6 [0x45] LOAD_SCHEDULED_TASK: Load scheduler "z00c" with entities [LocalPlayer, LocalPlayer], work=[19*, 0*]
103: 0x02F7 [0x01] GOTO 0x030B
104: 0x02FA [0x45] LOAD_SCHEDULED_TASK: Load scheduler "z009" with entities [LocalPlayer, LocalPlayer], work=[19*, 0*]

SUBROUTINE_030B:
105: 0x030B [0x1C] WAIT(300* ticks)
106: 0x030E [0x2A] GET_REQ_LEVEL(level=3, entity_id=Rochefogne (ID: 17719520/0x010E60E0))
107: 0x0314 [0x2B] Rochefogne (ID: 17719520/0x010E60E0) [9301*]:
    → "Ah, <Player>. I may be leaving San d'Oria, but this is not the end of my travels. No, it is just the beginning. The same is true for you, is it not?"
108: 0x031B [0x23] WAIT_FOR_DIALOG_INTERACTION
109: 0x031C [0x27] REQ_SET(priority=0x03, entity_id=Rochefogne (ID: 17719520/0x010E60E0), tag_num=0x04)
110: 0x0323 [0x1C] WAIT(180* ticks)
111: 0x0326 [0x4A] LocalPlayer looks at Rochefogne (ID: 17719520/0x010E60E0)
112: 0x032F [0x1C] WAIT(10* ticks)
113: 0x0332 [0x45] LOAD_SCHEDULED_TASK: Load scheduler "z010" with entities [LocalPlayer, LocalPlayer], work=[19*, 0*]
114: 0x0343 [0x55] WAIT_LOAD_SCHEDULER: Wait for scheduler "z010" with entities [LocalPlayer, LocalPlayer], work=19*
115: 0x0352 [0x1C] WAIT(120* ticks)
116: 0x0355 [0x4A] LocalPlayer looks at Rochefogne (ID: 17719520/0x010E60E0)
117: 0x035E [0x1C] WAIT(120* ticks)
118: 0x0361 [0x4A] Vauderame (ID: 17719364/0x010E6044) looks at LocalPlayer
119: 0x036A [0x2A] GET_REQ_LEVEL(level=3, entity_id=Rochefogne (ID: 17719520/0x010E60E0))
120: 0x0370 [0x1C] WAIT(30* ticks)
121: 0x0373 [0x45] LOAD_SCHEDULED_TASK: Load scheduler "z00a" with entities [LocalPlayer, LocalPlayer], work=[19*, 0*]
122: 0x0384 [0x55] WAIT_LOAD_SCHEDULER: Wait for scheduler "z00a" with entities [LocalPlayer, LocalPlayer], work=19*
123: 0x0393 [0x1C] WAIT(30* ticks)
124: 0x0396 [0x2B] Rochefogne (ID: 17719520/0x010E60E0) [9302*]:
    → "I have a feeling our paths may cross again one day. May we pray that when that day comes, San d'Oria will have regained the luster that it once had."
125: 0x039D [0x23] WAIT_FOR_DIALOG_INTERACTION
126: 0x039E [0x1C] WAIT(30* ticks)
127: 0x03A1 [0x27] REQ_SET(priority=0x03, entity_id=Rochefogne (ID: 17719520/0x010E60E0), tag_num=0x05)
128: 0x03A8 [0x1C] WAIT(60* ticks)
129: 0x03AB [0x27] REQ_SET(priority=0x03, entity_id=Vauderame (ID: 17719364/0x010E6044), tag_num=0x02)
130: 0x03B2 [0x1C] WAIT(180* ticks)
131: 0x03B5 [0x45] LOAD_SCHEDULED_TASK: Load scheduler "z011" with entities [LocalPlayer, LocalPlayer], work=[19*, 0*]
132: 0x03C6 [0x27] REQ_SET(priority=0x03, entity_id=LocalPlayer, tag_num=0x10)
133: 0x03CD [0x1C] WAIT(460* ticks)
134: 0x03D0 [0x48] [System] [9303*]:
    → "One day far in the future, historians will look back on this moment as the end of a chapter in San d'Orian history."
135: 0x03D3 [0x23] WAIT_FOR_DIALOG_INTERACTION
136: 0x03D4 [0x55] WAIT_LOAD_SCHEDULER: Wait for scheduler "z011" with entities [LocalPlayer, LocalPlayer], work=19*
137: 0x03E3 [0x45] LOAD_SCHEDULED_TASK: Load scheduler "ovl1" with entities [Claidie (ID: 17719369/0x010E6049), Claidie (ID: 17719369/0x010E6049)], work=[200*, 0*]
138: 0x03F4 [0x45] LOAD_SCHEDULED_TASK: Load scheduler "z012" with entities [LocalPlayer, LocalPlayer], work=[19*, 0*]
139: 0x0405 [0x1C] WAIT(60* ticks)
140: 0x0408 [0x48] [System] [9304*]:
    → "...A chapter filled with blood, deceit, and chaos."
141: 0x040B [0x23] WAIT_FOR_DIALOG_INTERACTION
142: 0x040C [0x1C] WAIT(100* ticks)
143: 0x040F [0x48] [System] [9305*]:
    → "However, those historians will never know that the tale they describe would never have transpired, were it not for the deeds of one brave adventurer. It is often said that the greatest heroes are the ones who remain unknown."
144: 0x0412 [0x23] WAIT_FOR_DIALOG_INTERACTION
145: 0x0413 [0x55] WAIT_LOAD_SCHEDULER: Wait for scheduler "z012" with entities [LocalPlayer, LocalPlayer], work=19*
146: 0x0422 [0x45] LOAD_SCHEDULED_TASK: Load scheduler "ovl1" with entities [Trion (ID: 17719365/0x010E6045), Trion (ID: 17719365/0x010E6045)], work=[200*, 0*]
147: 0x0433 [0x45] LOAD_SCHEDULED_TASK: Load scheduler "z013" with entities [LocalPlayer, LocalPlayer], work=[19*, 0*]
148: 0x0444 [0x27] REQ_SET(priority=0x03, entity_id=Claidie (ID: 17719369/0x010E6049), tag_num=0x07)
149: 0x044B [0x1C] WAIT(250* ticks)
150: 0x044E [0x48] [System] [9306*]:
    → "But who knows what the future holds for <Player>?"
151: 0x0451 [0x23] WAIT_FOR_DIALOG_INTERACTION
152: 0x0452 [0x55] WAIT_LOAD_SCHEDULER: Wait for scheduler "z013" with entities [LocalPlayer, LocalPlayer], work=19*
153: 0x0461 [0x45] LOAD_SCHEDULED_TASK: Load scheduler "ovl1" with entities [Trion (ID: 17719365/0x010E6045), Trion (ID: 17719365/0x010E6045)], work=[200*, 0*]
154: 0x0472 [0x45] LOAD_SCHEDULED_TASK: Load scheduler "z014" with entities [LocalPlayer, LocalPlayer], work=[19*, 0*]
155: 0x0483 [0x1C] WAIT(100* ticks)
156: 0x0486 [0x48] [System] [9307*]:
    → "Perhaps the pages of the next chapter will be graced with [his/her] name."
157: 0x0489 [0x23] WAIT_FOR_DIALOG_INTERACTION
158: 0x048A [0x1C] WAIT(200* ticks)
159: 0x048D [0x5D] SET_MUSIC_VOLUME(volume=0*, fade_time=200*)
160: 0x0492 [0x48] [System] [9308*]:
    → "But that is another story..."
161: 0x0495 [0x1C] WAIT(120* ticks)
162: 0x0498 [0x23] WAIT_FOR_DIALOG_INTERACTION
163: 0x0499 [0x55] WAIT_LOAD_SCHEDULER: Wait for scheduler "z014" with entities [LocalPlayer, LocalPlayer], work=19*
164: 0x04A8 [0x45] LOAD_SCHEDULED_TASK: Load scheduler "fdo1" with entities [LocalPlayer, LocalPlayer], work=[200*, 0*]
165: 0x04B9 [0x55] WAIT_LOAD_SCHEDULER: Wait for scheduler "fdo1" with entities [LocalPlayer, LocalPlayer], work=200*
166: 0x04C8 [0x5C] MUSIC_CONTROL: Set Idle (Day) music to song 153*
167: 0x04CC [0x5C] MUSIC_CONTROL: Set Idle (Night) music to song 153*
168: 0x04D0 [0x9A] WAIT_MUSIC_SERVER()
169: 0x04D1 [0x34] LOAD_UNLOAD_ZONE(zone_id=233*)
170: 0x04D4 [0x1C] WAIT(100* ticks)
171: 0x04D7 [0x38] SET_CLIENT_EVENT_MODE(mode=19*)
172: 0x04DA [0x78] ENABLE_GAME_TIMER_RESET_WEATHER()
173: 0x04DB [0x27] REQ_SET(priority=0x03, entity_id=Destin (ID: 17719363/0x010E6043), tag_num=0x01)
174: 0x04E2 [0x27] REQ_SET(priority=0x03, entity_id=Trion (ID: 17719365/0x010E6045), tag_num=0x04)
175: 0x04E9 [0x27] REQ_SET(priority=0x03, entity_id=Pieuje (ID: 17719367/0x010E6047), tag_num=0x01)
176: 0x04F0 [0x80] LOAD_WAIT(entity=Destin (ID: 17719363/0x010E6043))
177: 0x04F5 [0x80] LOAD_WAIT(entity=Trion (ID: 17719365/0x010E6045))
178: 0x04FA [0x80] LOAD_WAIT(entity=Pieuje (ID: 17719367/0x010E6047))
179: 0x04FF [0x4E] SET_ENTITY_HIDE_FLAG: Show Destin (ID: 17719363/0x010E6043)
180: 0x0505 [0x4E] SET_ENTITY_HIDE_FLAG: Show Trion (ID: 17719365/0x010E6045)
181: 0x050B [0x4E] SET_ENTITY_HIDE_FLAG: Show Pieuje (ID: 17719367/0x010E6047)
182: 0x0511 [0x75] LOAD_ROOM(Load indoor room, room=373*)
183: 0x0515 [0x75] LOAD_ROOM(No action)
184: 0x0517 [0x45] LOAD_SCHEDULED_TASK: Load scheduler "y000" with entities [LocalPlayer, LocalPlayer], work=[19*, 0*]
185: 0x0528 [0x55] WAIT_LOAD_SCHEDULER: Wait for scheduler "y000" with entities [LocalPlayer, LocalPlayer], work=19*
186: 0x0537 [0x45] LOAD_SCHEDULED_TASK: Load scheduler "fdi1" with entities [LocalPlayer, LocalPlayer], work=[200*, 0*]
187: 0x0548 [0x55] WAIT_LOAD_SCHEDULER: Wait for scheduler "fdi1" with entities [LocalPlayer, LocalPlayer], work=200*
188: 0x0557 [0x27] REQ_SET(priority=0x03, entity_id=Trion (ID: 17719365/0x010E6045), tag_num=0x06)
189: 0x055E [0x27] REQ_SET(priority=0x03, entity_id=Pieuje (ID: 17719367/0x010E6047), tag_num=0x02)
190: 0x0565 [0x1C] WAIT(60* ticks)
191: 0x0568 [0x4B] UPDATE_ENTITY_YAW(entity=Destin (ID: 17719363/0x010E6043), yaw=19.4°*)
192: 0x056F [0x1C] WAIT(30* ticks)
193: 0x0572 [0x45] LOAD_SCHEDULED_TASK: Load scheduler "y001" with entities [LocalPlayer, LocalPlayer], work=[19*, 0*]
194: 0x0583 [0x6F] WAIT_FRAME_DELAY: Yield until WaitTime reaches zero
195: 0x0584 [0x76] CHECK_ENTITY_RENDER_FLAGS: Wait until Destin (ID: 17719363/0x010E6043) Render.Flags0 and Render.Flags3 conditions are met
196: 0x0589 [0x48] [System] [9309*]:
    → "What can be said is this:"
197: 0x058C [0x23] WAIT_FOR_DIALOG_INTERACTION
198: 0x058D [0x2A] GET_REQ_LEVEL(level=3, entity_id=Trion (ID: 17719365/0x010E6045))
199: 0x0593 [0x2A] GET_REQ_LEVEL(level=3, entity_id=Pieuje (ID: 17719367/0x010E6047))
200: 0x0599 [0x48] [System] [9310*]:
    → "Even if one day Vana'diel were to vanish from the universe as we know it..."
201: 0x059C [0x23] WAIT_FOR_DIALOG_INTERACTION
202: 0x059D [0x55] WAIT_LOAD_SCHEDULER: Wait for scheduler "y001" with entities [LocalPlayer, LocalPlayer], work=19*
203: 0x05AC [0x1C] WAIT(60* ticks)
204: 0x05AF [0x4B] UPDATE_ENTITY_YAW(entity=Destin (ID: 17719363/0x010E6043), yaw=8.4°*)
205: 0x05B6 [0x1C] WAIT(15* ticks)
206: 0x05B9 [0x45] LOAD_SCHEDULED_TASK: Load scheduler "y002" with entities [LocalPlayer, LocalPlayer], work=[19*, 0*]
207: 0x05CA [0x6F] WAIT_FRAME_DELAY: Yield until WaitTime reaches zero
208: 0x05CB [0x76] CHECK_ENTITY_RENDER_FLAGS: Wait until Destin (ID: 17719363/0x010E6043) Render.Flags0 and Render.Flags3 conditions are met
209: 0x05D0 [0x29] REQ_SET_WAIT(priority=0x03, entity_id=Destin (ID: 17719363/0x010E6043), tag_num=0x02)
210: 0x05D7 [0x1C] WAIT(60* ticks)
211: 0x05DA [0x27] REQ_SET(priority=0x03, entity_id=Trion (ID: 17719365/0x010E6045), tag_num=0x07)
212: 0x05E1 [0x27] REQ_SET(priority=0x03, entity_id=Pieuje (ID: 17719367/0x010E6047), tag_num=0x03)
213: 0x05E8 [0x48] [System] [9311*]:
    → "The trials you endured in San d'Oria--the pain, the anger, the tears, and the laughter..."
214: 0x05EB [0x1C] WAIT(180* ticks)
215: 0x05EE [0x45] LOAD_SCHEDULED_TASK: Load scheduler "fdo1" with entities [LocalPlayer, LocalPlayer], work=[200*, 0*]
216: 0x05FF [0x55] WAIT_LOAD_SCHEDULER: Wait for scheduler "fdo1" with entities [LocalPlayer, LocalPlayer], work=200*
217: 0x060E [0x23] WAIT_FOR_DIALOG_INTERACTION
218: 0x060F [0x55] WAIT_LOAD_SCHEDULER: Wait for scheduler "y002" with entities [LocalPlayer, LocalPlayer], work=19*
219: 0x061E [0x35] LOAD_ZONE_NO_CLOSE(zone_id=230*)
220: 0x0621 [0x1C] WAIT(100* ticks)
221: 0x0624 [0x38] SET_CLIENT_EVENT_MODE(mode=3*)
222: 0x0627 [0x78] ENABLE_GAME_TIMER_RESET_WEATHER()
223: 0x0628 [0x80] LOAD_WAIT(entity=LocalPlayer)
224: 0x062D [0x27] REQ_SET(priority=0x03, entity_id=LocalPlayer, tag_num=0x11)
225: 0x0634 [0x45] LOAD_SCHEDULED_TASK: Load scheduler "z015" with entities [LocalPlayer, LocalPlayer], work=[19*, 0*]
226: 0x0645 [0x55] WAIT_LOAD_SCHEDULER: Wait for scheduler "z015" with entities [LocalPlayer, LocalPlayer], work=19*
227: 0x0654 [0x45] LOAD_SCHEDULED_TASK: Load scheduler "fdi1" with entities [LocalPlayer, LocalPlayer], work=[200*, 0*]
228: 0x0665 [0x55] WAIT_LOAD_SCHEDULER: Wait for scheduler "fdi1" with entities [LocalPlayer, LocalPlayer], work=200*
229: 0x0674 [0x1C] WAIT(300* ticks)
230: 0x0677 [0x45] LOAD_SCHEDULED_TASK: Load scheduler "z016" with entities [LocalPlayer, LocalPlayer], work=[19*, 0*]
231: 0x0688 [0x55] WAIT_LOAD_SCHEDULER: Wait for scheduler "z016" with entities [LocalPlayer, LocalPlayer], work=19*
232: 0x0697 [0x1C] WAIT(120* ticks)
233: 0x069A [0x48] [System] [9312*]:
    → "Those memories will forever remain in your heart and never fade..."
234: 0x069D [0x1C] WAIT(240* ticks)
235: 0x06A0 [0x45] LOAD_SCHEDULED_TASK: Load scheduler "z017" with entities [LocalPlayer, LocalPlayer], work=[19*, 0*]
236: 0x06B1 [0x1C] WAIT(360* ticks)
237: 0x06B4 [0x45] LOAD_SCHEDULED_TASK: Load scheduler "who1" with entities [Trion (ID: 17719365/0x010E6045), Trion (ID: 17719365/0x010E6045)], work=[201*, 0*]
238: 0x06C5 [0x55] WAIT_LOAD_SCHEDULER: Wait for scheduler "who1" with entities [Trion (ID: 17719365/0x010E6045), Trion (ID: 17719365/0x010E6045)], work=201*
239: 0x06D4 [0x23] WAIT_FOR_DIALOG_INTERACTION
240: 0x06D5 [0x5D] SET_MUSIC_VOLUME(volume=0*, fade_time=500*)
241: 0x06DA [0x1C] WAIT(180* ticks)
242: 0x06DD [0x48] [System] [9313*]:
    → "Until the end..."
243: 0x06E0 [0x23] WAIT_FOR_DIALOG_INTERACTION
244: 0x06E1 [0x1C] WAIT(300* ticks)
245: 0x06E4 [0x48] [System] [9314*]:
    → "The end of time..."
246: 0x06E7 [0x23] WAIT_FOR_DIALOG_INTERACTION
247: 0x06E8 [0x52] END_LOAD_SCHEDULER: End scheduler "z017" with entities [LocalPlayer, LocalPlayer], work=19*
248: 0x06F7 [0x78] ENABLE_GAME_TIMER_RESET_WEATHER()
249: 0x06F8 [0x1C] WAIT(300* ticks)
250: 0x06FB [0x5C] MUSIC_CONTROL: Set Idle (Day) music to song 107*
251: 0x06FF [0x5C] MUSIC_CONTROL: Set Idle (Night) music to song 107*
252: 0x0703 [0x46] CAMERA_CONTROL: Restore default settings
253: 0x0705 [0x45] LOAD_SCHEDULED_TASK: Load scheduler "fdi1" with entities [LocalPlayer, LocalPlayer], work=[200*, 0*]
254: 0x0716 [0x45] LOAD_SCHEDULED_TASK: Load scheduler "whi1" with entities [LocalPlayer, LocalPlayer], work=[201*, 0*]
255: 0x0727 [0x21] END_EVENT
256: 0x0728 [0x00] END_REQSTACK()
```

### Event 582

#### Metadata

| Field        | Value    |
|--------------|----------|
| Entrypoint   | 0x0729   |
| Data Size    | 40 bytes |
| Instructions | 12       |

```
      00 01 02 03 04 05 06 07  08 09 0A 0B 0C 0D 0E 0F
      -- -- -- -- -- -- -- --  -- -- -- -- -- -- -- --
0720:                             1E F0 FF FF 7F 6F 70           .....op
0730: 66 3A 80 F8 FF FF 7F F8  FF FF 7F 74 6C 6B 30 1D  f:.........tlk0.
0740: 3B 80 23 1D 3C 80 23 5E  69 64 6C 30 1C 0A 80 21  ;.#.<.#^idl0...!
0750: 00                                                .               
```

#### Opcodes

```
  0: 0x0729 [0x1E] EventEntity looks at LocalPlayer and starts talking
  1: 0x072E [0x6F] WAIT_FRAME_DELAY: Yield until WaitTime reaches zero
  2: 0x072F [0x70] WAIT_ENTITY_RENDER_FLAG: Wait while EventEntity->Render.Flags3 bit 2 is set (cancel turn if not)
  3: 0x0730 [0x66] LOAD_EXT_SCHEDULER_MAIN: Load scheduler "tlk0" with entities [EventEntity, EventEntity], work=20*
  4: 0x073F [0x1D] PRINT_EVENT_MESSAGE(message_id=8201*)
    → "You stand beneath Victory Arch. Beyond lies Northern San d'Oria. The tale of its magnificence stretches back some 300 years to the era of Warking Acheufagais."
  5: 0x0742 [0x23] WAIT_FOR_DIALOG_INTERACTION
  6: 0x0743 [0x1D] PRINT_EVENT_MESSAGE(message_id=8202*)
    → "The arch stands impervious, unfelled even by the great chaos brought about by the Civil and Crystal Wars. It is precisely this permanence that has made the Victory Arch the pride of the Royal Army!"
  7: 0x0746 [0x23] WAIT_FOR_DIALOG_INTERACTION
  8: 0x0747 [0x5E] EventEntity goes idle (kills current action) (animation: "idl0")
  9: 0x074C [0x1C] WAIT(30* ticks)
 10: 0x074F [0x21] END_EVENT
 11: 0x0750 [0x00] END_REQSTACK()
```

### Event 945

#### Metadata

| Field        | Value    |
|--------------|----------|
| Entrypoint   | 0x0751   |
| Data Size    | 10 bytes |
| Instructions | 2        |

```
      00 01 02 03 04 05 06 07  08 09 0A 0B 0C 0D 0E 0F
      -- -- -- -- -- -- -- --  -- -- -- -- -- -- -- --
0750:    6C F8 FF FF 7F 3D 80  07 80 00                  l....=....     
```

#### Opcodes

```
  0: 0x0751 [0x6C] FADE_ENTITY_COLOR(entity_id=EventEntity, end_alpha=96*, fade_time=1*)
  1: 0x075A [0x00] END_REQSTACK()
```

### Event 65535.1

#### Metadata

| Field        | Value    |
|--------------|----------|
| Entrypoint   | 0x075B   |
| Data Size    | 15 bytes |
| Instructions | 5        |

```
      00 01 02 03 04 05 06 07  08 09 0A 0B 0C 0D 0E 0F
      -- -- -- -- -- -- -- --  -- -- -- -- -- -- -- --
0750:                                   32 3E 80 1F 00             2>...
0760: 3F 80 40 80 41 80 1F 01  6F 00                    ?.@.A...o.      
```

#### Opcodes

```
  0: 0x075B [0x32] ExtData[1]->MainSpeed = 11* * 0.1
  1: 0x075E [0x1F] MOVE_ENTITY: EventEntity moves to X=63.750*, Z=-15.112*, Y=1.999*
  2: 0x0766 [0x1F] MOVE_ENTITY: Update entity position (mode=1)
  3: 0x0768 [0x6F] WAIT_FRAME_DELAY: Yield until WaitTime reaches zero
  4: 0x0769 [0x00] END_REQSTACK()
```

### Event 65535.2

#### Metadata

| Field        | Value    |
|--------------|----------|
| Entrypoint   | 0x076A   |
| Data Size    | 68 bytes |
| Instructions | 12       |

```
      00 01 02 03 04 05 06 07  08 09 0A 0B 0C 0D 0E 0F
      -- -- -- -- -- -- -- --  -- -- -- -- -- -- -- --
0760:                                32 08 80 1F 00 42            2....B
0770: 80 43 80 41 80 1F 01 6F  1E 3D 60 0E 01 6F 76 F8  .C.A...o.=`..ov.
0780: FF FF 7F 4A 3D 60 0E 01  F8 FF FF 7F 5B 44 80 F8  ...J=`......[D..
0790: FF FF 7F F8 FF FF 7F 74  6C 6B 30 1C 0A 80 5B 44  .......tlk0...[D
07A0: 80 3D 60 0E 01 3D 60 0E  01 74 68 6B 30 00        .=`..=`..thk0.  
```

#### Opcodes

```
  0: 0x076A [0x32] ExtData[1]->MainSpeed = 19* * 0.1
  1: 0x076D [0x1F] MOVE_ENTITY: EventEntity moves to X=32.710*, Z=-32.052*, Y=1.999*
  2: 0x0775 [0x1F] MOVE_ENTITY: Update entity position (mode=1)
  3: 0x0777 [0x6F] WAIT_FRAME_DELAY: Yield until WaitTime reaches zero
  4: 0x0778 [0x1E] EventEntity looks at Authere (ID: 17719357/0x010E603D) and starts talking
  5: 0x077D [0x6F] WAIT_FRAME_DELAY: Yield until WaitTime reaches zero
  6: 0x077E [0x76] CHECK_ENTITY_RENDER_FLAGS: Wait until EventEntity Render.Flags0 and Render.Flags3 conditions are met
  7: 0x0783 [0x4A] Authere (ID: 17719357/0x010E603D) looks at EventEntity
  8: 0x078C [0x5B] LOAD_EXT_SCHEDULER: Load scheduler "tlk0" with entities [EventEntity, EventEntity], work=75*
  9: 0x079B [0x1C] WAIT(30* ticks)
 10: 0x079E [0x5B] LOAD_EXT_SCHEDULER: Load scheduler "thk0" with entities [Authere (ID: 17719357/0x010E603D), Authere (ID: 17719357/0x010E603D)], work=75*
 11: 0x07AD [0x00] END_REQSTACK()
```

### Event 65535.3

#### Metadata

| Field        | Value    |
|--------------|----------|
| Entrypoint   | 0x07AE   |
| Data Size    | 45 bytes |
| Instructions | 9        |

```
      00 01 02 03 04 05 06 07  08 09 0A 0B 0C 0D 0E 0F
      -- -- -- -- -- -- -- --  -- -- -- -- -- -- -- --
07A0:                                            32 45                2E
07B0: 80 1F 00 46 80 47 80 41  80 1F 01 6F 4A 72 60 0E  ...F.G.A...oJr`.
07C0: 01 F8 FF FF 7F 6F 76 72  60 0E 01 66 48 80 72 60  .....ovr`..fH.r`
07D0: 0E 01 72 60 0E 01 74 77  61 30 00                 ..r`..twa0.     
```

#### Opcodes

```
  0: 0x07AE [0x32] ExtData[1]->MainSpeed = 39* * 0.1
  1: 0x07B1 [0x1F] MOVE_ENTITY: EventEntity moves to X=19.301*, Z=-28.036*, Y=1.999*
  2: 0x07B9 [0x1F] MOVE_ENTITY: Update entity position (mode=1)
  3: 0x07BB [0x6F] WAIT_FRAME_DELAY: Yield until WaitTime reaches zero
  4: 0x07BC [0x4A] Vaquelage (ID: 17719410/0x010E6072) looks at EventEntity
  5: 0x07C5 [0x6F] WAIT_FRAME_DELAY: Yield until WaitTime reaches zero
  6: 0x07C6 [0x76] CHECK_ENTITY_RENDER_FLAGS: Wait until Vaquelage (ID: 17719410/0x010E6072) Render.Flags0 and Render.Flags3 conditions are met
  7: 0x07CB [0x66] LOAD_EXT_SCHEDULER_MAIN: Load scheduler "twa0" with entities [Vaquelage (ID: 17719410/0x010E6072), Vaquelage (ID: 17719410/0x010E6072)], work=29*
  8: 0x07DA [0x00] END_REQSTACK()
```

### Event 65535.4

#### Metadata

| Field        | Value    |
|--------------|----------|
| Entrypoint   | 0x07DB   |
| Data Size    | 89 bytes |
| Instructions | 16       |

```
      00 01 02 03 04 05 06 07  08 09 0A 0B 0C 0D 0E 0F
      -- -- -- -- -- -- -- --  -- -- -- -- -- -- -- --
07D0:                                   32 49 80 1F 00             2I...
07E0: 4A 80 4B 80 41 80 1F 01  6F 79 00 F8 FF FF 7F 7E  J.K.A...oy.....~
07F0: 60 0E 01 4A 7E 60 0E 01  F8 FF FF 7F 6F 76 7E 60  `..J~`......ov~`
0800: 0E 01 5B 45 80 7E 60 0E  01 7E 60 0E 01 74 6C 6B  ..[E.~`..~`..tlk
0810: 30 1C 18 80 5B 45 80 7E  60 0E 01 7E 60 0E 01 74  0...[E.~`..~`..t
0820: 6C 6B 31 7B F8 FF FF 7F  1F 00 4C 80 4D 80 41 80  lk1{......L.M.A.
0830: 1F 01 6F 00                                       ..o.            
```

#### Opcodes

```
  0: 0x07DB [0x32] ExtData[1]->MainSpeed = 13* * 0.1
  1: 0x07DE [0x1F] MOVE_ENTITY: EventEntity moves to X=-7.941*, Z=-0.808*, Y=1.999*
  2: 0x07E6 [0x1F] MOVE_ENTITY: Update entity position (mode=1)
  3: 0x07E8 [0x6F] WAIT_FRAME_DELAY: Yield until WaitTime reaches zero
  4: 0x07E9 [0x79] EventEntity looks at Ailevia (ID: 17719422/0x010E607E) (Basic look)
  5: 0x07F3 [0x4A] Ailevia (ID: 17719422/0x010E607E) looks at EventEntity
  6: 0x07FC [0x6F] WAIT_FRAME_DELAY: Yield until WaitTime reaches zero
  7: 0x07FD [0x76] CHECK_ENTITY_RENDER_FLAGS: Wait until Ailevia (ID: 17719422/0x010E607E) Render.Flags0 and Render.Flags3 conditions are met
  8: 0x0802 [0x5B] LOAD_EXT_SCHEDULER: Load scheduler "tlk0" with entities [Ailevia (ID: 17719422/0x010E607E), Ailevia (ID: 17719422/0x010E607E)], work=39*
  9: 0x0811 [0x1C] WAIT(120* ticks)
 10: 0x0814 [0x5B] LOAD_EXT_SCHEDULER: Load scheduler "tlk1" with entities [Ailevia (ID: 17719422/0x010E607E), Ailevia (ID: 17719422/0x010E607E)], work=39*
 11: 0x0823 [0x7B] EventEntity stops talking
 12: 0x0828 [0x1F] MOVE_ENTITY: EventEntity moves to X=-16.652*, Z=-10.275*, Y=1.999*
 13: 0x0830 [0x1F] MOVE_ENTITY: Update entity position (mode=1)
 14: 0x0832 [0x6F] WAIT_FRAME_DELAY: Yield until WaitTime reaches zero
 15: 0x0833 [0x00] END_REQSTACK()
```

### Event 65535.5

#### Metadata

| Field        | Value    |
|--------------|----------|
| Entrypoint   | 0x0834   |
| Data Size    | 15 bytes |
| Instructions | 5        |

```
      00 01 02 03 04 05 06 07  08 09 0A 0B 0C 0D 0E 0F
      -- -- -- -- -- -- -- --  -- -- -- -- -- -- -- --
0830:             32 3E 80 1F  00 4E 80 4F 80 41 80 1F      2>...N.O.A..
0840: 01 6F 00                                          .o.             
```

#### Opcodes

```
  0: 0x0834 [0x32] ExtData[1]->MainSpeed = 11* * 0.1
  1: 0x0837 [0x1F] MOVE_ENTITY: EventEntity moves to X=-8.801*, Z=-23.474*, Y=1.999*
  2: 0x083F [0x1F] MOVE_ENTITY: Update entity position (mode=1)
  3: 0x0841 [0x6F] WAIT_FRAME_DELAY: Yield until WaitTime reaches zero
  4: 0x0842 [0x00] END_REQSTACK()
```

### Event 65535.6

#### Metadata

| Field        | Value    |
|--------------|----------|
| Entrypoint   | 0x0843   |
| Data Size    | 10 bytes |
| Instructions | 2        |

```
      00 01 02 03 04 05 06 07  08 09 0A 0B 0C 0D 0E 0F
      -- -- -- -- -- -- -- --  -- -- -- -- -- -- -- --
0840:          6C F8 FF FF 7F  50 80 07 80 00              l....P....   
```

#### Opcodes

```
  0: 0x0843 [0x6C] FADE_ENTITY_COLOR(entity_id=EventEntity, end_alpha=127*, fade_time=1*)
  1: 0x084C [0x00] END_REQSTACK()
```

### Event 65535.7

#### Metadata

| Field        | Value    |
|--------------|----------|
| Entrypoint   | 0x084D   |
| Data Size    | 15 bytes |
| Instructions | 5        |

```
      00 01 02 03 04 05 06 07  08 09 0A 0B 0C 0D 0E 0F
      -- -- -- -- -- -- -- --  -- -- -- -- -- -- -- --
0840:                                         32 51 80               2Q.
0850: 1F 00 52 80 53 80 41 80  1F 01 6F 00              ..R.S.A...o.    
```

#### Opcodes

```
  0: 0x084D [0x32] ExtData[1]->MainSpeed = 40* * 0.1
  1: 0x0850 [0x1F] MOVE_ENTITY: EventEntity moves to X=12.690*, Z=-12.419*, Y=1.999*
  2: 0x0858 [0x1F] MOVE_ENTITY: Update entity position (mode=1)
  3: 0x085A [0x6F] WAIT_FRAME_DELAY: Yield until WaitTime reaches zero
  4: 0x085B [0x00] END_REQSTACK()
```

### Event 65535.8

#### Metadata

| Field        | Value    |
|--------------|----------|
| Entrypoint   | 0x085C   |
| Data Size    | 18 bytes |
| Instructions | 6        |

```
      00 01 02 03 04 05 06 07  08 09 0A 0B 0C 0D 0E 0F
      -- -- -- -- -- -- -- --  -- -- -- -- -- -- -- --
0850:                                      1C 0A 80 32              ...2
0860: 54 80 1F 00 55 80 56 80  41 80 1F 01 6F 00        T...U.V.A...o.  
```

#### Opcodes

```
  0: 0x085C [0x1C] WAIT(30* ticks)
  1: 0x085F [0x32] ExtData[1]->MainSpeed = 37* * 0.1
  2: 0x0862 [0x1F] MOVE_ENTITY: EventEntity moves to X=11.780*, Z=-13.345*, Y=1.999*
  3: 0x086A [0x1F] MOVE_ENTITY: Update entity position (mode=1)
  4: 0x086C [0x6F] WAIT_FRAME_DELAY: Yield until WaitTime reaches zero
  5: 0x086D [0x00] END_REQSTACK()
```
