# 17719489 - Maugie

## Common Data

| Field            | Value                         |
|------------------|-------------------------------|
| Zone             | Southern San d'Oria (ID: 230) |
| Block Size       | 332 bytes                     |
| Total Events     | 8                             |
| References Count | 13                            |

## List of Events

| Event ID              | Entrypoint   |   Size |   Instructions |
|-----------------------|--------------|--------|----------------|
| [65535](#event-65535) | 0x0000       |      1 |              1 |
| [0](#event-0)         | 0x0001       |      1 |              1 |
| [46](#event-46)       | 0x0002       |     13 |              7 |
| [45](#event-45)       | 0x000F       |    115 |             25 |
| [43](#event-43)       | 0x0082       |     28 |              8 |
| [44](#event-44)       | 0x009E       |     45 |              9 |
| [42](#event-42)       | 0x00CB       |     28 |              8 |
| [991](#event-991)     | 0x00E7       |      1 |              1 |

## DAT References (imed_data)

|   Index | Hex Value   |   Dec Value |
|---------|-------------|-------------|
|       0 | 0x229B      |        8859 |
|       1 | 0x0023      |          35 |
|       2 | 0x229C      |        8860 |
|       3 | 0x229D      |        8861 |
|       4 | 0x229E      |        8862 |
|       5 | 0x0000      |           0 |
|       6 | 0x229F      |        8863 |
|       7 | 0x0001      |           1 |
|       8 | 0x22A0      |        8864 |
|       9 | 0x22A1      |        8865 |
|      10 | 0x22A2      |        8866 |
|      11 | 0x00C9      |         201 |
|      12 | 0x22A3      |        8867 |

## String References

- **8859**: Might you be an adventurer? It's easy to get lost out there in the wilds, so I've put up signposts. I hope they'll be of use!
- **8860**: Actually, I have a problem. I heard from an adventurer that my signposts were stained by foul weather recently, and with all the dangers out there...
- **8861**: I was wondering if you might help. If you could just clean the four signposts in Jugner Forest for me... Of course, I'd pay you for your time.
- **8862**: Will you clean the signposts? [Let's get to work!/Not now.]
- **8863**: You'll clean them? That's great news, indeed! Remember, there are four signposts in Jugner Forest that need cleaning.
- **8864**: I see... Hopefully, no one will lose their way on account of unreadable signposts!
- **8865**: There are four signposts that need cleaning, all of them in Jugner Forest. Much obliged!
- **8866**: A traveler just told me that the signposts are immaculate! I owe you my sincerest gratitude, and, of course, your pay!
- **8867**: No dirt on the signposts, and no lost adventurers on my conscience! You've done me a great service.

## Events

### Event 65535

#### Metadata

| Field        | Value   |
|--------------|---------|
| Entrypoint   | 0x0000  |
| Data Size    | 1 bytes |
| Instructions | 1       |

```
      00 01 02 03 04 05 06 07  08 09 0A 0B 0C 0D 0E 0F
      -- -- -- -- -- -- -- --  -- -- -- -- -- -- -- --
0000: 00                                                .               
```

#### Opcodes

```
  0: 0x0000 [0x00] END_REQSTACK()
```

### Event 0

#### Metadata

| Field        | Value   |
|--------------|---------|
| Entrypoint   | 0x0001  |
| Data Size    | 1 bytes |
| Instructions | 1       |

```
      00 01 02 03 04 05 06 07  08 09 0A 0B 0C 0D 0E 0F
      -- -- -- -- -- -- -- --  -- -- -- -- -- -- -- --
0000:    00                                              .              
```

#### Opcodes

```
  0: 0x0001 [0x00] END_REQSTACK()
```

### Event 46

#### Metadata

| Field        | Value    |
|--------------|----------|
| Entrypoint   | 0x0002   |
| Data Size    | 13 bytes |
| Instructions | 7        |

```
      00 01 02 03 04 05 06 07  08 09 0A 0B 0C 0D 0E 0F
      -- -- -- -- -- -- -- --  -- -- -- -- -- -- -- --
0000:       1E F0 FF FF 7F 6F  70 1D 00 80 23 21 00       .....op...#!. 
```

#### Opcodes

```
  0: 0x0002 [0x1E] EventEntity looks at LocalPlayer and starts talking
  1: 0x0007 [0x6F] WAIT_FRAME_DELAY: Yield until WaitTime reaches zero
  2: 0x0008 [0x70] WAIT_ENTITY_RENDER_FLAG: Wait while EventEntity->Render.Flags3 bit 2 is set (cancel turn if not)
  3: 0x0009 [0x1D] PRINT_EVENT_MESSAGE(message_id=8859*)
    → "Might you be an adventurer? It's easy to get lost out there in the wilds, so I've put up signposts. I hope they'll be of use!"
  4: 0x000C [0x23] WAIT_FOR_DIALOG_INTERACTION
  5: 0x000D [0x21] END_EVENT
  6: 0x000E [0x00] END_REQSTACK()
```

### Event 45

#### Metadata

| Field        | Value     |
|--------------|-----------|
| Entrypoint   | 0x000F    |
| Data Size    | 115 bytes |
| Instructions | 25        |

```
      00 01 02 03 04 05 06 07  08 09 0A 0B 0C 0D 0E 0F
      -- -- -- -- -- -- -- --  -- -- -- -- -- -- -- --
0000:                                               1E                 .
0010: F0 FF FF 7F 6F 70 5B 01  80 F8 FF FF 7F F8 FF FF  ....op[.........
0020: 7F 74 6C 6B 30 1D 02 80  23 1D 03 80 23 5E 69 64  .tlk0...#...#^id
0030: 6C 30 24 04 80 05 80 05  80 25 02 00 10 05 80 00  l0$......%......
0040: 5D 00 03 01 10 05 80 5B  01 80 F8 FF FF 7F F8 FF  ]......[........
0050: FF 7F 74 6C 6B 30 1D 06  80 23 01 80 00 02 00 10  ..tlk0...#......
0060: 07 80 00 80 00 03 01 10  07 80 5B 01 80 F8 FF FF  ..........[.....
0070: 7F F8 FF FF 7F 74 68 6B  31 1D 08 80 23 01 80 00  .....thk1...#...
0080: 21 00                                             !.              
```

#### Opcodes

```
  0: 0x000F [0x1E] EventEntity looks at LocalPlayer and starts talking
  1: 0x0014 [0x6F] WAIT_FRAME_DELAY: Yield until WaitTime reaches zero
  2: 0x0015 [0x70] WAIT_ENTITY_RENDER_FLAG: Wait while EventEntity->Render.Flags3 bit 2 is set (cancel turn if not)
  3: 0x0016 [0x5B] LOAD_EXT_SCHEDULER: Load scheduler "tlk0" with entities [EventEntity, EventEntity], work=35*
  4: 0x0025 [0x1D] PRINT_EVENT_MESSAGE(message_id=8860*)
    → "Actually, I have a problem. I heard from an adventurer that my signposts were stained by foul weather recently, and with all the dangers out there..."
  5: 0x0028 [0x23] WAIT_FOR_DIALOG_INTERACTION
  6: 0x0029 [0x1D] PRINT_EVENT_MESSAGE(message_id=8861*)
    → "I was wondering if you might help. If you could just clean the four signposts in Jugner Forest for me... Of course, I'd pay you for your time."
  7: 0x002C [0x23] WAIT_FOR_DIALOG_INTERACTION
  8: 0x002D [0x5E] EventEntity goes idle (kills current action) (animation: "idl0")
  9: 0x0032 [0x24] CREATE_DIALOG(message_id=8862*, default_option=0*, option_flags=0*)
    → "Will you clean the signposts? [Let's get to work!/Not now.]"
 10: 0x0039 [0x25] WAIT_DIALOG_SELECT()
 11: 0x003A [0x02] IF !(Work_Zone[0] == 0*) GOTO 0x005D
 12: 0x0042 [0x03] Work_Zone[1] = 0*
 13: 0x0047 [0x5B] LOAD_EXT_SCHEDULER: Load scheduler "tlk0" with entities [EventEntity, EventEntity], work=35*
 14: 0x0056 [0x1D] PRINT_EVENT_MESSAGE(message_id=8863*)
    → "You'll clean them? That's great news, indeed! Remember, there are four signposts in Jugner Forest that need cleaning."
 15: 0x0059 [0x23] WAIT_FOR_DIALOG_INTERACTION
 16: 0x005A [0x01] GOTO 0x0080
 17: 0x005D [0x02] IF !(Work_Zone[0] == 1*) GOTO 0x0080
 18: 0x0065 [0x03] Work_Zone[1] = 1*
 19: 0x006A [0x5B] LOAD_EXT_SCHEDULER: Load scheduler "thk1" with entities [EventEntity, EventEntity], work=35*
 20: 0x0079 [0x1D] PRINT_EVENT_MESSAGE(message_id=8864*)
    → "I see... Hopefully, no one will lose their way on account of unreadable signposts!"
 21: 0x007C [0x23] WAIT_FOR_DIALOG_INTERACTION
 22: 0x007D [0x01] GOTO 0x0080

SUBROUTINE_0080:
 23: 0x0080 [0x21] END_EVENT
 24: 0x0081 [0x00] END_REQSTACK()
```

### Event 43

#### Metadata

| Field        | Value    |
|--------------|----------|
| Entrypoint   | 0x0082   |
| Data Size    | 28 bytes |
| Instructions | 8        |

```
      00 01 02 03 04 05 06 07  08 09 0A 0B 0C 0D 0E 0F
      -- -- -- -- -- -- -- --  -- -- -- -- -- -- -- --
0080:       1E F0 FF FF 7F 6F  70 5B 01 80 F8 FF FF 7F    .....op[......
0090: F8 FF FF 7F 74 6C 6B 30  1D 09 80 23 21 00        ....tlk0...#!.  
```

#### Opcodes

```
  0: 0x0082 [0x1E] EventEntity looks at LocalPlayer and starts talking
  1: 0x0087 [0x6F] WAIT_FRAME_DELAY: Yield until WaitTime reaches zero
  2: 0x0088 [0x70] WAIT_ENTITY_RENDER_FLAG: Wait while EventEntity->Render.Flags3 bit 2 is set (cancel turn if not)
  3: 0x0089 [0x5B] LOAD_EXT_SCHEDULER: Load scheduler "tlk0" with entities [EventEntity, EventEntity], work=35*
  4: 0x0098 [0x1D] PRINT_EVENT_MESSAGE(message_id=8865*)
    → "There are four signposts that need cleaning, all of them in Jugner Forest. Much obliged!"
  5: 0x009B [0x23] WAIT_FOR_DIALOG_INTERACTION
  6: 0x009C [0x21] END_EVENT
  7: 0x009D [0x00] END_REQSTACK()
```

### Event 44

#### Metadata

| Field        | Value    |
|--------------|----------|
| Entrypoint   | 0x009E   |
| Data Size    | 45 bytes |
| Instructions | 9        |

```
      00 01 02 03 04 05 06 07  08 09 0A 0B 0C 0D 0E 0F
      -- -- -- -- -- -- -- --  -- -- -- -- -- -- -- --
0090:                                            1E F0                ..
00A0: FF FF 7F 6F 70 5B 01 80  F8 FF FF 7F F8 FF FF 7F  ...op[..........
00B0: 74 6C 6B 30 1D 0A 80 23  45 0B 80 F0 FF FF 7F F0  tlk0...#E.......
00C0: FF FF 7F 71 73 74 63 05  80 21 00                 ...qstc..!.     
```

#### Opcodes

```
  0: 0x009E [0x1E] EventEntity looks at LocalPlayer and starts talking
  1: 0x00A3 [0x6F] WAIT_FRAME_DELAY: Yield until WaitTime reaches zero
  2: 0x00A4 [0x70] WAIT_ENTITY_RENDER_FLAG: Wait while EventEntity->Render.Flags3 bit 2 is set (cancel turn if not)
  3: 0x00A5 [0x5B] LOAD_EXT_SCHEDULER: Load scheduler "tlk0" with entities [EventEntity, EventEntity], work=35*
  4: 0x00B4 [0x1D] PRINT_EVENT_MESSAGE(message_id=8866*)
    → "A traveler just told me that the signposts are immaculate! I owe you my sincerest gratitude, and, of course, your pay!"
  5: 0x00B7 [0x23] WAIT_FOR_DIALOG_INTERACTION
  6: 0x00B8 [0x45] LOAD_SCHEDULED_TASK: Load scheduler "qstc" with entities [LocalPlayer, LocalPlayer], work=[201*, 0*]
  7: 0x00C9 [0x21] END_EVENT
  8: 0x00CA [0x00] END_REQSTACK()
```

### Event 42

#### Metadata

| Field        | Value    |
|--------------|----------|
| Entrypoint   | 0x00CB   |
| Data Size    | 28 bytes |
| Instructions | 8        |

```
      00 01 02 03 04 05 06 07  08 09 0A 0B 0C 0D 0E 0F
      -- -- -- -- -- -- -- --  -- -- -- -- -- -- -- --
00C0:                                   1E F0 FF FF 7F             .....
00D0: 6F 70 5B 01 80 F8 FF FF  7F F8 FF FF 7F 74 6C 6B  op[..........tlk
00E0: 30 1D 0C 80 23 21 00                              0...#!.         
```

#### Opcodes

```
  0: 0x00CB [0x1E] EventEntity looks at LocalPlayer and starts talking
  1: 0x00D0 [0x6F] WAIT_FRAME_DELAY: Yield until WaitTime reaches zero
  2: 0x00D1 [0x70] WAIT_ENTITY_RENDER_FLAG: Wait while EventEntity->Render.Flags3 bit 2 is set (cancel turn if not)
  3: 0x00D2 [0x5B] LOAD_EXT_SCHEDULER: Load scheduler "tlk0" with entities [EventEntity, EventEntity], work=35*
  4: 0x00E1 [0x1D] PRINT_EVENT_MESSAGE(message_id=8867*)
    → "No dirt on the signposts, and no lost adventurers on my conscience! You've done me a great service."
  5: 0x00E4 [0x23] WAIT_FOR_DIALOG_INTERACTION
  6: 0x00E5 [0x21] END_EVENT
  7: 0x00E6 [0x00] END_REQSTACK()
```

### Event 991

#### Metadata

| Field        | Value   |
|--------------|---------|
| Entrypoint   | 0x00E7  |
| Data Size    | 1 bytes |
| Instructions | 1       |

```
      00 01 02 03 04 05 06 07  08 09 0A 0B 0C 0D 0E 0F
      -- -- -- -- -- -- -- --  -- -- -- -- -- -- -- --
00E0:                      00                                  .        
```

#### Opcodes

```
  0: 0x00E7 [0x00] END_REQSTACK()
```
