# 17719389 - Victoire

## Common Data

| Field            | Value                         |
|------------------|-------------------------------|
| Zone             | Southern San d'Oria (ID: 230) |
| Block Size       | 188 bytes                     |
| Total Events     | 3                             |
| References Count | 9                             |

## List of Events

| Event ID              | Entrypoint   |   Size |   Instructions |
|-----------------------|--------------|--------|----------------|
| [65535](#event-65535) | 0x0000       |      1 |              1 |
| [523](#event-523)     | 0x0001       |      1 |              1 |
| [848](#event-848)     | 0x0002       |    120 |             28 |

## DAT References (imed_data)

|   Index | Hex Value   |   Dec Value |
|---------|-------------|-------------|
|       0 | 0x0000      |           0 |
|       1 | 0x2ECA      |       11978 |
|       2 | 0x0001      |           1 |
|       3 | 0x001E      |          30 |
|       4 | 0x2EF9      |       12025 |
|       5 | 0x2EFA      |       12026 |
|       6 | 0x2EE3      |       12003 |
|       7 | 0x2EE4      |       12004 |
|       8 | 0x2EE5      |       12005 |

## String References

- **11978**: Ask if this person is the chick's owner? [Yes./No.]
- **12003**: My chocobo is in your care?
- **12004**: You have my thanks. I have never seen a more curious bird. He skips off as soon as I avert my eyes!
- **12005**: To show you the depth of my gratitude, I will teach you a story I often tell my chocobo...
- **12025**: You say my chocobo is in your care?
- **12026**: Sorry, but it is not mine. I laid my chocobo down for a nap just a moment ago.

## Events

### Event 65535

#### Metadata

| Field        | Value   |
|--------------|---------|
| Entrypoint   | 0x0000  |
| Data Size    | 1 bytes |
| Instructions | 1       |

```
      00 01 02 03 04 05 06 07  08 09 0A 0B 0C 0D 0E 0F
      -- -- -- -- -- -- -- --  -- -- -- -- -- -- -- --
0000: 00                                                .               
```

#### Opcodes

```
  0: 0x0000 [0x00] END_REQSTACK()
```

### Event 523

#### Metadata

| Field        | Value   |
|--------------|---------|
| Entrypoint   | 0x0001  |
| Data Size    | 1 bytes |
| Instructions | 1       |

```
      00 01 02 03 04 05 06 07  08 09 0A 0B 0C 0D 0E 0F
      -- -- -- -- -- -- -- --  -- -- -- -- -- -- -- --
0000:    00                                              .              
```

#### Opcodes

```
  0: 0x0001 [0x00] END_REQSTACK()
```

### Event 848

#### Metadata

| Field        | Value     |
|--------------|-----------|
| Entrypoint   | 0x0002    |
| Data Size    | 120 bytes |
| Instructions | 28        |

```
      00 01 02 03 04 05 06 07  08 09 0A 0B 0C 0D 0E 0F
      -- -- -- -- -- -- -- --  -- -- -- -- -- -- -- --
0000:       42 03 01 10 00 80  24 01 80 02 80 00 80 25    B.....$......%
0010: 02 00 10 00 80 00 78 00  1E F0 FF FF 7F 1C 03 80  ......x.........
0020: 03 01 10 02 80 43 00 43  01 02 02 10 00 80 00 4B  .....C.C.......K
0030: 00 1D 04 80 23 66 03 80  F8 FF FF 7F F8 FF FF 7F  ....#f..........
0040: 74 6C 6B 30 1D 05 80 23  01 75 00 1D 06 80 23 66  tlk0...#.u....#f
0050: 03 80 F8 FF FF 7F F8 FF  FF 7F 74 6C 6B 30 1D 07  ..........tlk0..
0060: 80 23 66 03 80 F8 FF FF  7F F8 FF FF 7F 74 6C 6B  .#f..........tlk
0070: 31 1D 08 80 23 01 78 00  21 00                    1...#.x.!.      
```

#### Opcodes

```
  0: 0x0002 [0x42] SET_CLI_EVENT_CANCEL_DATA()
  1: 0x0003 [0x03] Work_Zone[1] = 0*
  2: 0x0008 [0x24] CREATE_DIALOG(message_id=11978*, default_option=1*, option_flags=0*)
    → "Ask if this person is the chick's owner? [Yes./No.]"
  3: 0x000F [0x25] WAIT_DIALOG_SELECT()
  4: 0x0010 [0x02] IF !(Work_Zone[0] == 0*) GOTO 0x0078
  5: 0x0018 [0x1E] EventEntity looks at LocalPlayer and starts talking
  6: 0x001D [0x1C] WAIT(30* ticks)
  7: 0x0020 [0x03] Work_Zone[1] = 1*
  8: 0x0025 [0x43] SEND_EVENT_UPDATE: Send pending tag to server (packet 0x005B)
  9: 0x0027 [0x43] SEND_EVENT_UPDATE: Check pending flag (skip if not pending)
 10: 0x0029 [0x02] IF !(Work_Zone[2] == 0*) GOTO 0x004B
 11: 0x0031 [0x1D] PRINT_EVENT_MESSAGE(message_id=12025*)
    → "You say my chocobo is in your care?"
 12: 0x0034 [0x23] WAIT_FOR_DIALOG_INTERACTION
 13: 0x0035 [0x66] LOAD_EXT_SCHEDULER_MAIN: Load scheduler "tlk0" with entities [EventEntity, EventEntity], work=30*
 14: 0x0044 [0x1D] PRINT_EVENT_MESSAGE(message_id=12026*)
    → "Sorry, but it is not mine. I laid my chocobo down for a nap just a moment ago."
 15: 0x0047 [0x23] WAIT_FOR_DIALOG_INTERACTION
 16: 0x0048 [0x01] GOTO 0x0075
 17: 0x004B [0x1D] PRINT_EVENT_MESSAGE(message_id=12003*)
    → "My chocobo is in your care?"
 18: 0x004E [0x23] WAIT_FOR_DIALOG_INTERACTION
 19: 0x004F [0x66] LOAD_EXT_SCHEDULER_MAIN: Load scheduler "tlk0" with entities [EventEntity, EventEntity], work=30*
 20: 0x005E [0x1D] PRINT_EVENT_MESSAGE(message_id=12004*)
    → "You have my thanks. I have never seen a more curious bird. He skips off as soon as I avert my eyes!"
 21: 0x0061 [0x23] WAIT_FOR_DIALOG_INTERACTION
 22: 0x0062 [0x66] LOAD_EXT_SCHEDULER_MAIN: Load scheduler "tlk1" with entities [EventEntity, EventEntity], work=30*
 23: 0x0071 [0x1D] PRINT_EVENT_MESSAGE(message_id=12005*)
    → "To show you the depth of my gratitude, I will teach you a story I often tell my chocobo..."
 24: 0x0074 [0x23] WAIT_FOR_DIALOG_INTERACTION

SUBROUTINE_0075:
 25: 0x0075 [0x01] GOTO 0x0078

SUBROUTINE_0078:
 26: 0x0078 [0x21] END_EVENT
 27: 0x0079 [0x00] END_REQSTACK()
```
