# 17719638 - Rolandienne

## Common Data

| Field            | Value                         |
|------------------|-------------------------------|
| Zone             | Southern San d'Oria (ID: 230) |
| Block Size       | 15916 bytes                   |
| Total Events     | 6                             |
| References Count | 928                           |

## List of Events

| Event ID              | Entrypoint   |   Size |   Instructions |
|-----------------------|--------------|--------|----------------|
| [65535](#event-65535) | 0x0000       |      1 |              1 |
| [993](#event-993)     | 0x0001       |   2864 |            390 |
| [994](#event-994)     | 0x0B31       |     49 |             13 |
| [995](#event-995)     | 0x0B62       |   8499 |           1091 |
| [4601](#event-4601)   | 0x2C95       |    750 |             86 |
| [3526](#event-3526)   | 0x2F83       |      1 |              1 |

## DAT References (imed_data)

|   Index | Hex Value   |   Dec Value |
|---------|-------------|-------------|
|       0 | 0x0093      |         147 |
|       1 | 0xFFFEB143  |  4294881603 |
|       2 | 0xFFFF4473  |  4294919283 |
|       3 | 0x03E8      |        1000 |
|       4 | 0x0387      |         903 |
|       5 | 0xFFFEB798  |  4294883224 |
|       6 | 0xFFFF47ED  |  4294920173 |
|       7 | 0x04AF      |        1199 |
|       8 | 0x039C      |         924 |
|       9 | 0xFFFEB1E0  |  4294881760 |
|      10 | 0xFFFF3E66  |  4294917734 |
|      11 | 0x023B      |         571 |
|      12 | 0x00A3      |         163 |
|      13 | 0x0274      |         628 |
|      14 | 0x0000      |           0 |
|      15 | 0x001E      |          30 |
|      16 | 0x000D      |          13 |
|      17 | 0xFFFEB2E2  |  4294882018 |
|      18 | 0xFFFF39EC  |  4294916588 |
|      19 | 0x0848      |        2120 |
|      20 | 0x004B      |          75 |
|      21 | 0x0003      |           3 |
|      22 | 0x003C      |          60 |
|      23 | 0x3C11      |       15377 |
|      24 | 0x0001      |           1 |
|      25 | 0x0004      |           4 |
|      26 | 0x0023      |          35 |
|      27 | 0x005A      |          90 |
|      28 | 0x0005      |           5 |
|      29 | 0x0006      |           6 |
|      30 | 0x008C      |         140 |
|      31 | 0x0002      |           2 |
|      32 | 0x0014      |          20 |
|      33 | 0x001A      |          26 |
|      34 | 0x0032      |          50 |
|      35 | 0xFFFEAD11  |  4294880529 |
|      36 | 0xFFFF46D5  |  4294919893 |
|      37 | 0x034B      |         843 |
|      38 | 0x0050      |          80 |
|      39 | 0x0028      |          40 |
|      40 | 0x3C12      |       15378 |
|      41 | 0x0027      |          39 |
|      42 | 0x3C13      |       15379 |
|      43 | 0x3C14      |       15380 |
|      44 | 0x3C15      |       15381 |
|      45 | 0x0007      |           7 |
|      46 | 0x3C16      |       15382 |
|      47 | 0x3C1A      |       15386 |
|      48 | 0x3C17      |       15383 |
|      49 | 0x3C18      |       15384 |
|      50 | 0x3C19      |       15385 |
|      51 | 0x000E      |          14 |
|      52 | 0x09A2      |        2466 |
|      53 | 0x3C1B      |       15387 |
|      54 | 0x0080      |         128 |
|      55 | 0x0015      |          21 |
|      56 | 0x3C1C      |       15388 |
|      57 | 0x3C1D      |       15389 |
|      58 | 0x3C1E      |       15390 |
|      59 | 0x3C1F      |       15391 |
|      60 | 0x000A      |          10 |
|      61 | 0x0078      |         120 |
|      62 | 0x3C20      |       15392 |
|      63 | 0x3C21      |       15393 |
|      64 | 0x3C22      |       15394 |
|      65 | 0x3C23      |       15395 |
|      66 | 0x3C24      |       15396 |
|      67 | 0x3C25      |       15397 |
|      68 | 0x0024      |          36 |
|      69 | 0x3C26      |       15398 |
|      70 | 0x3C27      |       15399 |
|      71 | 0x0268      |         616 |
|      72 | 0x0008      |           8 |
|      73 | 0x3C28      |       15400 |
|      74 | 0x3C2E      |       15406 |
|      75 | 0x000F      |          15 |
|      76 | 0x0064      |         100 |
|      77 | 0x00FC      |         252 |
|      78 | 0x3C2F      |       15407 |
|      79 | 0xFFFEBD03  |  4294884611 |
|      80 | 0xFFFF4282  |  4294918786 |
|      81 | 0x0951      |        2385 |
|      82 | 0x006B      |         107 |
|      83 | 0x00C9      |         201 |
|      84 | 0x00C8      |         200 |
|      85 | 0x3C0F      |       15375 |
|      86 | 0x3C10      |       15376 |
|      87 | 0x00E6      |         230 |
|      88 | 0x3C32      |       15410 |
|      89 | 0x00EB      |         235 |
|      90 | 0x3C37      |       15415 |
|      91 | 0x00F1      |         241 |
|      92 | 0x3C3C      |       15420 |
|      93 | 0x0100      |         256 |
|      94 | 0x3C42      |       15426 |
|      95 | 0x0C00      |        3072 |
|      96 | 0x2C00      |       11264 |
|      97 | 0x000B      |          11 |
|      98 | 0x3C53      |       15443 |
|      99 | 0x0009      |           9 |
|     100 | 0x000C      |          12 |
|     101 | 0x3C33      |       15411 |
|     102 | 0x3C38      |       15416 |
|     103 | 0x003B      |          59 |
|     104 | 0x3C3D      |       15421 |
|     105 | 0x0045      |          69 |
|     106 | 0x3C43      |       15427 |
|     107 | 0x3C47      |       15431 |
|     108 | 0x3C48      |       15432 |
|     109 | 0x3C49      |       15433 |
|     110 | 0x3C4A      |       15434 |
|     111 | 0x3C4B      |       15435 |
|     112 | 0x3C4C      |       15436 |
|     113 | 0x3C4D      |       15437 |
|     114 | 0x3C34      |       15412 |
|     115 | 0x3C35      |       15413 |
|     116 | 0x3C39      |       15417 |
|     117 | 0x3C3A      |       15418 |
|     118 | 0x3C3E      |       15422 |
|     119 | 0x3C3F      |       15423 |
|     120 | 0x3C40      |       15424 |
|     121 | 0x3C44      |       15428 |
|     122 | 0x3C45      |       15429 |
|     123 | 0x1055      |        4181 |
|     124 | 0x1056      |        4182 |
|     125 | 0x0FE0      |        4064 |
|     126 | 0x0FE1      |        4065 |
|     127 | 0x0FE2      |        4066 |
|     128 | 0x0FE3      |        4067 |
|     129 | 0x0FE4      |        4068 |
|     130 | 0x0FE5      |        4069 |
|     131 | 0x0FE6      |        4070 |
|     132 | 0x0FE7      |        4071 |
|     133 | 0x0FE8      |        4072 |
|     134 | 0x0FE9      |        4073 |
|     135 | 0x6F82      |       28546 |
|     136 | 0x2331      |        9009 |
|     137 | 0x1D4C      |        7500 |
|     138 | 0x3A98      |       15000 |
|     139 | 0x1388      |        5000 |
|     140 | 0x2710      |       10000 |
|     141 | 0x2795      |       10133 |
|     142 | 0x01F4      |         500 |
|     143 | 0x1803      |        6147 |
|     144 | 0x1804      |        6148 |
|     145 | 0x1805      |        6149 |
|     146 | 0x1806      |        6150 |
|     147 | 0x1807      |        6151 |
|     148 | 0x1808      |        6152 |
|     149 | 0x1809      |        6153 |
|     150 | 0x180A      |        6154 |
|     151 | 0x180B      |        6155 |
|     152 | 0x180C      |        6156 |
|     153 | 0x180D      |        6157 |
|     154 | 0x180E      |        6158 |
|     155 | 0x180F      |        6159 |
|     156 | 0x1810      |        6160 |
|     157 | 0x1811      |        6161 |
|     158 | 0x1812      |        6162 |
|     159 | 0x1813      |        6163 |
|     160 | 0x1814      |        6164 |
|     161 | 0x1815      |        6165 |
|     162 | 0x1816      |        6166 |
|     163 | 0x1817      |        6167 |
|     164 | 0x1818      |        6168 |
|     165 | 0x1819      |        6169 |
|     166 | 0x181A      |        6170 |
|     167 | 0x181B      |        6171 |
|     168 | 0x181C      |        6172 |
|     169 | 0x181D      |        6173 |
|     170 | 0x181E      |        6174 |
|     171 | 0x181F      |        6175 |
|     172 | 0x1820      |        6176 |
|     173 | 0x1821      |        6177 |
|     174 | 0x1822      |        6178 |
|     175 | 0x1823      |        6179 |
|     176 | 0x4001      |       16385 |
|     177 | 0x4006      |       16390 |
|     178 | 0x4007      |       16391 |
|     179 | 0x4040      |       16448 |
|     180 | 0x4051      |       16465 |
|     181 | 0x4046      |       16454 |
|     182 | 0x4057      |       16471 |
|     183 | 0x4041      |       16449 |
|     184 | 0x40D8      |       16600 |
|     185 | 0x4092      |       16530 |
|     186 | 0x4100      |       16640 |
|     187 | 0x4101      |       16641 |
|     188 | 0x4140      |       16704 |
|     189 | 0x4145      |       16709 |
|     190 | 0x4180      |       16768 |
|     191 | 0x41C0      |       16832 |
|     192 | 0x41C1      |       16833 |
|     193 | 0x4200      |       16896 |
|     194 | 0x4204      |       16900 |
|     195 | 0x4246      |       16966 |
|     196 | 0x4280      |       17024 |
|     197 | 0x428A      |       17034 |
|     198 | 0x4292      |       17042 |
|     199 | 0x42A3      |       17059 |
|     200 | 0x429A      |       17050 |
|     201 | 0x42C0      |       17088 |
|     202 | 0x42C7      |       17095 |
|     203 | 0x4300      |       17152 |
|     204 | 0x4308      |       17160 |
|     205 | 0x4301      |       17153 |
|     206 | 0x4340      |       17216 |
|     207 | 0x4B18      |       19224 |
|     208 | 0x43C1      |       17345 |
|     209 | 0x43C0      |       17344 |
|     210 | 0x43C3      |       17347 |
|     211 | 0x43C9      |       17353 |
|     212 | 0x30A0      |       12448 |
|     213 | 0x3120      |       12576 |
|     214 | 0x31A0      |       12704 |
|     215 | 0x3220      |       12832 |
|     216 | 0x32A0      |       12960 |
|     217 | 0x30B8      |       12472 |
|     218 | 0x3138      |       12600 |
|     219 | 0x31B8      |       12728 |
|     220 | 0x3238      |       12856 |
|     221 | 0x32B8      |       12984 |
|     222 | 0x3098      |       12440 |
|     223 | 0x3118      |       12568 |
|     224 | 0x3198      |       12696 |
|     225 | 0x3218      |       12824 |
|     226 | 0x3298      |       12952 |
|     227 | 0x3140      |       12608 |
|     228 | 0x31C0      |       12736 |
|     229 | 0x3240      |       12864 |
|     230 | 0x32C0      |       12992 |
|     231 | 0x30A8      |       12456 |
|     232 | 0x3128      |       12584 |
|     233 | 0x31A8      |       12712 |
|     234 | 0x3228      |       12840 |
|     235 | 0x32A8      |       12968 |
|     236 | 0x3001      |       12289 |
|     237 | 0x307F      |       12415 |
|     238 | 0x3002      |       12290 |
|     239 | 0x300B      |       12299 |
|     240 | 0x4017      |       16407 |
|     241 | 0x4042      |       16450 |
|     242 | 0x4052      |       16466 |
|     243 | 0x4047      |       16455 |
|     244 | 0x40BC      |       16572 |
|     245 | 0x4093      |       16531 |
|     246 | 0x4098      |       16536 |
|     247 | 0x40C7      |       16583 |
|     248 | 0x40CC      |       16588 |
|     249 | 0x4102      |       16642 |
|     250 | 0x4109      |       16649 |
|     251 | 0x4141      |       16705 |
|     252 | 0x4181      |       16769 |
|     253 | 0x4186      |       16774 |
|     254 | 0x41C2      |       16834 |
|     255 | 0x469C      |       18076 |
|     256 | 0x4217      |       16919 |
|     257 | 0x420A      |       16906 |
|     258 | 0x4240      |       16960 |
|     259 | 0x4256      |       16982 |
|     260 | 0x4293      |       17043 |
|     261 | 0x42B9      |       17081 |
|     262 | 0x4281      |       17025 |
|     263 | 0x429B      |       17051 |
|     264 | 0x428B      |       17035 |
|     265 | 0x42C1      |       17089 |
|     266 | 0x42C8      |       17096 |
|     267 | 0x4309      |       17161 |
|     268 | 0x4341      |       17217 |
|     269 | 0x4369      |       17257 |
|     270 | 0x4371      |       17265 |
|     271 | 0x43C7      |       17351 |
|     272 | 0x43CA      |       17354 |
|     273 | 0x3090      |       12432 |
|     274 | 0x3110      |       12560 |
|     275 | 0x3190      |       12688 |
|     276 | 0x3210      |       12816 |
|     277 | 0x3290      |       12944 |
|     278 | 0x30B0      |       12464 |
|     279 | 0x3130      |       12592 |
|     280 | 0x31B0      |       12720 |
|     281 | 0x3230      |       12848 |
|     282 | 0x32B0      |       12976 |
|     283 | 0x30A6      |       12454 |
|     284 | 0x3126      |       12582 |
|     285 | 0x31A6      |       12710 |
|     286 | 0x3222      |       12834 |
|     287 | 0x32A6      |       12966 |
|     288 | 0x3099      |       12441 |
|     289 | 0x3119      |       12569 |
|     290 | 0x3199      |       12697 |
|     291 | 0x3219      |       12825 |
|     292 | 0x3299      |       12953 |
|     293 | 0x3003      |       12291 |
|     294 | 0x0046      |          70 |
|     295 | 0x0084      |         132 |
|     296 | 0x0062      |          98 |
|     297 | 0x005D      |          93 |
|     298 | 0x005B      |          91 |
|     299 | 0x00B1      |         177 |
|     300 | 0x0059      |          89 |
|     301 | 0x0044      |          68 |
|     302 | 0x0087      |         135 |
|     303 | 0x0051      |          81 |
|     304 | 0x0063      |          99 |
|     305 | 0x00BB      |         187 |
|     306 | 0x0056      |          86 |
|     307 | 0x0041      |          65 |
|     308 | 0x4008      |       16392 |
|     309 | 0x4016      |       16406 |
|     310 | 0x4003      |       16387 |
|     311 | 0x4059      |       16473 |
|     312 | 0x4070      |       16496 |
|     313 | 0x4058      |       16472 |
|     314 | 0x4043      |       16451 |
|     315 | 0x4085      |       16517 |
|     316 | 0x4081      |       16513 |
|     317 | 0x4094      |       16532 |
|     318 | 0x40D1      |       16593 |
|     319 | 0x40D2      |       16594 |
|     320 | 0x4103      |       16643 |
|     321 | 0x4616      |       17942 |
|     322 | 0x4182      |       16770 |
|     323 | 0x41C3      |       16835 |
|     324 | 0x4570      |       17776 |
|     325 | 0x420B      |       16907 |
|     326 | 0x4294      |       17044 |
|     327 | 0x42C2      |       17090 |
|     328 | 0x4410      |       17424 |
|     329 | 0x4302      |       17154 |
|     330 | 0x4360      |       17248 |
|     331 | 0x436B      |       17259 |
|     332 | 0x3B67      |       15207 |
|     333 | 0x386E      |       14446 |
|     334 | 0x36E5      |       14053 |
|     335 | 0x3C2C      |       15404 |
|     336 | 0x3BEF      |       15343 |
|     337 | 0x3088      |       12424 |
|     338 | 0x3108      |       12552 |
|     339 | 0x3188      |       12680 |
|     340 | 0x3208      |       12808 |
|     341 | 0x3288      |       12936 |
|     342 | 0x3B3D      |       15165 |
|     343 | 0x385A      |       14426 |
|     344 | 0x3A0A      |       14858 |
|     345 | 0x37F7      |       14327 |
|     346 | 0x3BD3      |       15315 |
|     347 | 0x3B3F      |       15167 |
|     348 | 0x385F      |       14431 |
|     349 | 0x3A0C      |       14860 |
|     350 | 0x37F9      |       14329 |
|     351 | 0x3BD5      |       15317 |
|     352 | 0x3B3B      |       15163 |
|     353 | 0x3858      |       14424 |
|     354 | 0x3A08      |       14856 |
|     355 | 0x37F5      |       14325 |
|     356 | 0x3BD1      |       15313 |
|     357 | 0x3004      |       12292 |
|     358 | 0x307E      |       12414 |
|     359 | 0x3012      |       12306 |
|     360 | 0x0057      |          87 |
|     361 | 0x0090      |         144 |
|     362 | 0x0067      |         103 |
|     363 | 0x0060      |          96 |
|     364 | 0x007B      |         123 |
|     365 | 0x008F      |         143 |
|     366 | 0x00AA      |         170 |
|     367 | 0x00D7      |         215 |
|     368 | 0x010D      |         269 |
|     369 | 0x015D      |         349 |
|     370 | 0x0088      |         136 |
|     371 | 0x0053      |          83 |
|     372 | 0x00D1      |         209 |
|     373 | 0x0054      |          84 |
|     374 | 0x006D      |         109 |
|     375 | 0x0208      |         520 |
|     376 | 0x01B0      |         432 |
|     377 | 0x0047      |          71 |
|     378 | 0x00AB      |         171 |
|     379 | 0x0108      |         264 |
|     380 | 0x008D      |         141 |
|     381 | 0x00D2      |         210 |
|     382 | 0x0081      |         129 |
|     383 | 0x00C3      |         195 |
|     384 | 0x020D      |         525 |
|     385 | 0x012D      |         301 |
|     386 | 0x0162      |         354 |
|     387 | 0x017B      |         379 |
|     388 | 0x00FA      |         250 |
|     389 | 0x0122      |         290 |
|     390 | 0x00EA      |         234 |
|     391 | 0x0061      |          97 |
|     392 | 0x0089      |         137 |
|     393 | 0x009D      |         157 |
|     394 | 0x0099      |         153 |
|     395 | 0x401B      |       16411 |
|     396 | 0x400F      |       16399 |
|     397 | 0x4009      |       16393 |
|     398 | 0x4AA1      |       19105 |
|     399 | 0x405B      |       16475 |
|     400 | 0x4048      |       16456 |
|     401 | 0x40A1      |       16545 |
|     402 | 0x40C0      |       16576 |
|     403 | 0x40C5      |       16581 |
|     404 | 0x40A5      |       16549 |
|     405 | 0x47C7      |       18375 |
|     406 | 0x40C8      |       16584 |
|     407 | 0x4623      |       17955 |
|     408 | 0x4104      |       16644 |
|     409 | 0x4726      |       18214 |
|     410 | 0x4142      |       16706 |
|     411 | 0x41CD      |       16845 |
|     412 | 0x469E      |       18078 |
|     413 | 0x41C4      |       16836 |
|     414 | 0x46CA      |       18122 |
|     415 | 0x4205      |       16901 |
|     416 | 0x424D      |       16973 |
|     417 | 0x4242      |       16962 |
|     418 | 0x424A      |       16970 |
|     419 | 0x4295      |       17045 |
|     420 | 0x429C      |       17052 |
|     421 | 0x42A5      |       17061 |
|     422 | 0x428C      |       17036 |
|     423 | 0x42B8      |       17080 |
|     424 | 0x42C9      |       17097 |
|     425 | 0x42C3      |       17091 |
|     426 | 0x430A      |       17162 |
|     427 | 0x4303      |       17155 |
|     428 | 0x4342      |       17218 |
|     429 | 0x491B      |       18715 |
|     430 | 0x4910      |       18704 |
|     431 | 0x43C4      |       17348 |
|     432 | 0x43CB      |       17355 |
|     433 | 0x3B3C      |       15164 |
|     434 | 0x3859      |       14425 |
|     435 | 0x3A09      |       14857 |
|     436 | 0x37F6      |       14326 |
|     437 | 0x3BD2      |       15314 |
|     438 | 0x3B39      |       15161 |
|     439 | 0x3856      |       14422 |
|     440 | 0x3A06      |       14854 |
|     441 | 0x37F3      |       14323 |
|     442 | 0x3BCF      |       15311 |
|     443 | 0x3142      |       12610 |
|     444 | 0x31C2      |       12738 |
|     445 | 0x3242      |       12866 |
|     446 | 0x32C2      |       12994 |
|     447 | 0x30A2      |       12450 |
|     448 | 0x3122      |       12578 |
|     449 | 0x31A2      |       12706 |
|     450 | 0x3224      |       12836 |
|     451 | 0x32A2      |       12962 |
|     452 | 0x30B2      |       12466 |
|     453 | 0x3132      |       12594 |
|     454 | 0x31B2      |       12722 |
|     455 | 0x3232      |       12850 |
|     456 | 0x32B2      |       12978 |
|     457 | 0x30BB      |       12475 |
|     458 | 0x313B      |       12603 |
|     459 | 0x31BB      |       12731 |
|     460 | 0x323B      |       12859 |
|     461 | 0x32BB      |       12987 |
|     462 | 0x362F      |       13871 |
|     463 | 0x35D7      |       13783 |
|     464 | 0x36B1      |       14001 |
|     465 | 0x3726      |       14118 |
|     466 | 0x300C      |       12300 |
|     467 | 0x3005      |       12293 |
|     468 | 0x304C      |       12364 |
|     469 | 0x00B6      |         182 |
|     470 | 0x00C2      |         194 |
|     471 | 0x013D      |         317 |
|     472 | 0x00F8      |         248 |
|     473 | 0x00C6      |         198 |
|     474 | 0x014E      |         334 |
|     475 | 0x01F1      |         497 |
|     476 | 0x01AE      |         430 |
|     477 | 0x01ED      |         493 |
|     478 | 0x0214      |         532 |
|     479 | 0x021C      |         540 |
|     480 | 0x0129      |         297 |
|     481 | 0x0203      |         515 |
|     482 | 0x009A      |         154 |
|     483 | 0x0082      |         130 |
|     484 | 0x00A8      |         168 |
|     485 | 0x0145      |         325 |
|     486 | 0x0144      |         324 |
|     487 | 0x00E4      |         228 |
|     488 | 0x00E2      |         226 |
|     489 | 0x013F      |         319 |
|     490 | 0x007A      |         122 |
|     491 | 0x0138      |         312 |
|     492 | 0x007D      |         125 |
|     493 | 0x0154      |         340 |
|     494 | 0x00B9      |         185 |
|     495 | 0x0109      |         265 |
|     496 | 0x00BE      |         190 |
|     497 | 0x007C      |         124 |
|     498 | 0x00C0      |         192 |
|     499 | 0x00AE      |         174 |
|     500 | 0x0052      |          82 |
|     501 | 0x00BC      |         188 |
|     502 | 0x006E      |         110 |
|     503 | 0x0055      |          85 |
|     504 | 0x0189      |         393 |
|     505 | 0x00D8      |         216 |
|     506 | 0x013C      |         316 |
|     507 | 0x00C4      |         196 |
|     508 | 0x00AF      |         175 |
|     509 | 0x011D      |         285 |
|     510 | 0x01A9      |         425 |
|     511 | 0x00F0      |         240 |
|     512 | 0x015B      |         347 |
|     513 | 0x0086      |         134 |
|     514 | 0x012E      |         302 |
|     515 | 0x01D0      |         464 |
|     516 | 0x4004      |       16388 |
|     517 | 0x401C      |       16412 |
|     518 | 0x4023      |       16419 |
|     519 | 0x404B      |       16459 |
|     520 | 0x44CA      |       17610 |
|     521 | 0x408A      |       16522 |
|     522 | 0x40AE      |       16558 |
|     523 | 0x40B4      |       16564 |
|     524 | 0x40B7      |       16567 |
|     525 | 0x40CE      |       16590 |
|     526 | 0x423D      |       16957 |
|     527 | 0x4111      |       16657 |
|     528 | 0x410B      |       16651 |
|     529 | 0x471F      |       18207 |
|     530 | 0x4187      |       16775 |
|     531 | 0x419C      |       16796 |
|     532 | 0x4682      |       18050 |
|     533 | 0x41CF      |       16847 |
|     534 | 0x4209      |       16905 |
|     535 | 0x4206      |       16902 |
|     536 | 0x420C      |       16908 |
|     537 | 0x4213      |       16915 |
|     538 | 0x4247      |       16967 |
|     539 | 0x42A6      |       17062 |
|     540 | 0x429D      |       17053 |
|     541 | 0x42CA      |       17098 |
|     542 | 0x4473      |       17523 |
|     543 | 0x430B      |       17163 |
|     544 | 0x4304      |       17156 |
|     545 | 0x430C      |       17164 |
|     546 | 0x4373      |       17267 |
|     547 | 0x4343      |       17219 |
|     548 | 0x4916      |       18710 |
|     549 | 0x43C8      |       17352 |
|     550 | 0x43C6      |       17350 |
|     551 | 0x37A3      |       14243 |
|     552 | 0x3080      |       12416 |
|     553 | 0x3100      |       12544 |
|     554 | 0x3180      |       12672 |
|     555 | 0x3200      |       12800 |
|     556 | 0x3280      |       12928 |
|     557 | 0x3B65      |       15205 |
|     558 | 0x386C      |       14444 |
|     559 | 0x36E3      |       14051 |
|     560 | 0x3C2A      |       15402 |
|     561 | 0x3BED      |       15341 |
|     562 | 0x308A      |       12426 |
|     563 | 0x310A      |       12554 |
|     564 | 0x318A      |       12682 |
|     565 | 0x320A      |       12810 |
|     566 | 0x328A      |       12938 |
|     567 | 0x309C      |       12444 |
|     568 | 0x311C      |       12572 |
|     569 | 0x319C      |       12700 |
|     570 | 0x321C      |       12828 |
|     571 | 0x329C      |       12956 |
|     572 | 0x3081      |       12417 |
|     573 | 0x3101      |       12545 |
|     574 | 0x3181      |       12673 |
|     575 | 0x3201      |       12801 |
|     576 | 0x3281      |       12929 |
|     577 | 0x30AC      |       12460 |
|     578 | 0x312C      |       12588 |
|     579 | 0x31AC      |       12716 |
|     580 | 0x322C      |       12844 |
|     581 | 0x32AC      |       12972 |
|     582 | 0x3631      |       13873 |
|     583 | 0x35D9      |       13785 |
|     584 | 0x36B3      |       14003 |
|     585 | 0x37A5      |       14245 |
|     586 | 0x3728      |       14120 |
|     587 | 0x3B8A      |       15242 |
|     588 | 0x38A2      |       14498 |
|     589 | 0x3A3B      |       14907 |
|     590 | 0x3CDA      |       15578 |
|     591 | 0x3D2F      |       15663 |
|     592 | 0x3013      |       12307 |
|     593 | 0x300D      |       12301 |
|     594 | 0x3006      |       12294 |
|     595 | 0x0072      |         114 |
|     596 | 0x012A      |         298 |
|     597 | 0x01A0      |         416 |
|     598 | 0x0174      |         372 |
|     599 | 0x01E0      |         480 |
|     600 | 0x02A8      |         680 |
|     601 | 0x0307      |         775 |
|     602 | 0x02A4      |         676 |
|     603 | 0x029D      |         669 |
|     604 | 0x0294      |         660 |
|     605 | 0x02E4      |         740 |
|     606 | 0x01E1      |         481 |
|     607 | 0x02B2      |         690 |
|     608 | 0x02BA      |         698 |
|     609 | 0x03F9      |        1017 |
|     610 | 0x0102      |         258 |
|     611 | 0x00E7      |         231 |
|     612 | 0x00E9      |         233 |
|     613 | 0x0176      |         374 |
|     614 | 0x0070      |         112 |
|     615 | 0x009C      |         156 |
|     616 | 0x0069      |         105 |
|     617 | 0x0168      |         360 |
|     618 | 0x00F7      |         247 |
|     619 | 0x0198      |         408 |
|     620 | 0x04B0      |        1200 |
|     621 | 0x00FF      |         255 |
|     622 | 0x0134      |         308 |
|     623 | 0x019E      |         414 |
|     624 | 0x0222      |         546 |
|     625 | 0x0120      |         288 |
|     626 | 0x00B4      |         180 |
|     627 | 0x02EE      |         750 |
|     628 | 0x0654      |        1620 |
|     629 | 0x028E      |         654 |
|     630 | 0x0216      |         534 |
|     631 | 0x01AB      |         427 |
|     632 | 0x0160      |         352 |
|     633 | 0x0142      |         322 |
|     634 | 0x00E0      |         224 |
|     635 | 0x0098      |         152 |
|     636 | 0x0150      |         336 |
|     637 | 0x01B5      |         437 |
|     638 | 0x018C      |         396 |
|     639 | 0x016B      |         363 |
|     640 | 0x015A      |         346 |
|     641 | 0x0152      |         338 |
|     642 | 0x01C0      |         448 |
|     643 | 0x02B0      |         688 |
|     644 | 0x0170      |         368 |
|     645 | 0x024A      |         586 |
|     646 | 0x011F      |         287 |
|     647 | 0x0181      |         385 |
|     648 | 0x0137      |         311 |
|     649 | 0x6C5C      |       27740 |
|     650 | 0x6CE9      |       27881 |
|     651 | 0x6D7D      |       28029 |
|     652 | 0x6E08      |       28168 |
|     653 | 0x6E92      |       28306 |
|     654 | 0x6C5D      |       27741 |
|     655 | 0x6CEA      |       27882 |
|     656 | 0x6D7E      |       28030 |
|     657 | 0x6E09      |       28169 |
|     658 | 0x6E93      |       28307 |
|     659 | 0x6C5E      |       27742 |
|     660 | 0x6CEB      |       27883 |
|     661 | 0x6D7F      |       28031 |
|     662 | 0x6E0A      |       28170 |
|     663 | 0x6E94      |       28308 |
|     664 | 0x6C5F      |       27743 |
|     665 | 0x6CEC      |       27884 |
|     666 | 0x6D80      |       28032 |
|     667 | 0x6E0B      |       28171 |
|     668 | 0x6E95      |       28309 |
|     669 | 0x503C      |       20540 |
|     670 | 0x5090      |       20624 |
|     671 | 0x50F6      |       20726 |
|     672 | 0x511E      |       20766 |
|     673 | 0x5151      |       20817 |
|     674 | 0x5181      |       20865 |
|     675 | 0x51AC      |       20908 |
|     676 | 0x51DA      |       20954 |
|     677 | 0x5206      |       20998 |
|     678 | 0x5234      |       21044 |
|     679 | 0x527F      |       21119 |
|     680 | 0x52BE      |       21182 |
|     681 | 0x52BF      |       21183 |
|     682 | 0x52EF      |       21231 |
|     683 | 0x5303      |       21251 |
|     684 | 0x5321      |       21281 |
|     685 | 0x6FF0      |       28656 |
|     686 | 0x53CD      |       21453 |
|     687 | 0x5387      |       21383 |
|     688 | 0x6F85      |       28549 |
|     689 | 0x6F86      |       28550 |
|     690 | 0x6F87      |       28551 |
|     691 | 0x6F88      |       28552 |
|     692 | 0x6F89      |       28553 |
|     693 | 0x6F8A      |       28554 |
|     694 | 0x6F53      |       28499 |
|     695 | 0x6F54      |       28500 |
|     696 | 0x6F55      |       28501 |
|     697 | 0x6F56      |       28502 |
|     698 | 0x6F57      |       28503 |
|     699 | 0x6F58      |       28504 |
|     700 | 0x6F83      |       28547 |
|     701 | 0x53D6      |       21462 |
|     702 | 0x539D      |       21405 |
|     703 | 0x5336      |       21302 |
|     704 | 0x5344      |       21316 |
|     705 | 0x5353      |       21331 |
|     706 | 0x536B      |       21355 |
|     707 | 0x56F4      |       22260 |
|     708 | 0x0BB8      |        3000 |
|     709 | 0x07D0      |        2000 |
|     710 | 0x1B58      |        7000 |
|     711 | 0x515A      |       20826 |
|     712 | 0x51B5      |       20917 |
|     713 | 0x5356      |       21334 |
|     714 | 0x53B4      |       21428 |
|     715 | 0x6C76      |       27766 |
|     716 | 0x6EAB      |       28331 |
|     717 | 0x5188      |       20872 |
|     718 | 0x5285      |       21125 |
|     719 | 0x6C77      |       27767 |
|     720 | 0x6D92      |       28050 |
|     721 | 0x6EF0      |       28400 |
|     722 | 0x6FE0      |       28640 |
|     723 | 0x5154      |       20820 |
|     724 | 0x51DE      |       20958 |
|     725 | 0x6C59      |       27737 |
|     726 | 0x6E07      |       28167 |
|     727 | 0x5096      |       20630 |
|     728 | 0x5237      |       21047 |
|     729 | 0x5305      |       21253 |
|     730 | 0x6C5A      |       27738 |
|     731 | 0x6E91      |       28305 |
|     732 | 0x503F      |       20543 |
|     733 | 0x50FB      |       20731 |
|     734 | 0x6C5B      |       27739 |
|     735 | 0x6D7C      |       28028 |
|     736 | 0x5120      |       20768 |
|     737 | 0x52F1      |       21233 |
|     738 | 0x52C2      |       21186 |
|     739 | 0x6C58      |       27736 |
|     740 | 0x6E06      |       28166 |
|     741 | 0x6F84      |       28548 |
|     742 | 0x53D7      |       21463 |
|     743 | 0x5200      |       20992 |
|     744 | 0x400A      |       16394 |
|     745 | 0x4010      |       16400 |
|     746 | 0x4026      |       16422 |
|     747 | 0x44CC      |       17612 |
|     748 | 0x405D      |       16477 |
|     749 | 0x409A      |       16538 |
|     750 | 0x40AA      |       16554 |
|     751 | 0x4082      |       16514 |
|     752 | 0x409D      |       16541 |
|     753 | 0x40C9      |       16585 |
|     754 | 0x40D4      |       16596 |
|     755 | 0x4105      |       16645 |
|     756 | 0x410D      |       16653 |
|     757 | 0x415A      |       16730 |
|     758 | 0x419A      |       16794 |
|     759 | 0x4195      |       16789 |
|     760 | 0x41F8      |       16888 |
|     761 | 0x41D0      |       16848 |
|     762 | 0x46AD      |       18093 |
|     763 | 0x41CA      |       16842 |
|     764 | 0x4207      |       16903 |
|     765 | 0x420D      |       16909 |
|     766 | 0x4244      |       16964 |
|     767 | 0x424C      |       16972 |
|     768 | 0x429E      |       17054 |
|     769 | 0x42A0      |       17056 |
|     770 | 0x42CC      |       17100 |
|     771 | 0x4354      |       17236 |
|     772 | 0x4344      |       17220 |
|     773 | 0x435A      |       17242 |
|     774 | 0x43D1      |       17361 |
|     775 | 0x45B9      |       17849 |
|     776 | 0x43CF      |       17359 |
|     777 | 0x3023      |       12323 |
|     778 | 0x3017      |       12311 |
|     779 | 0x3F2A      |       16170 |
|     780 | 0x300E      |       12302 |
|     781 | 0x3014      |       12308 |
|     782 | 0x3007      |       12295 |
|     783 | 0x300F      |       12303 |
|     784 | 0x3024      |       12324 |
|     785 | 0x3016      |       12310 |
|     786 | 0x305F      |       12383 |
|     787 | 0x3047      |       12359 |
|     788 | 0x0185      |         389 |
|     789 | 0x01E4      |         484 |
|     790 | 0x016A      |         362 |
|     791 | 0x037B      |         891 |
|     792 | 0x02F0      |         752 |
|     793 | 0x03FA      |        1018 |
|     794 | 0x012F      |         303 |
|     795 | 0x054A      |        1354 |
|     796 | 0x03E5      |         997 |
|     797 | 0x05CD      |        1485 |
|     798 | 0x0401      |        1025 |
|     799 | 0x022C      |         556 |
|     800 | 0x0483      |        1155 |
|     801 | 0x04E5      |        1253 |
|     802 | 0x02DF      |         735 |
|     803 | 0x01E3      |         483 |
|     804 | 0x01E2      |         482 |
|     805 | 0x0192      |         402 |
|     806 | 0x0104      |         260 |
|     807 | 0x0278      |         632 |
|     808 | 0x031B      |         795 |
|     809 | 0x011C      |         284 |
|     810 | 0x01B3      |         435 |
|     811 | 0x026F      |         623 |
|     812 | 0x0205      |         517 |
|     813 | 0x0215      |         533 |
|     814 | 0x02BC      |         700 |
|     815 | 0x01C8      |         456 |
|     816 | 0x0339      |         825 |
|     817 | 0x01D9      |         473 |
|     818 | 0x0119      |         281 |
|     819 | 0x018B      |         395 |
|     820 | 0x0230      |         560 |
|     821 | 0x0618      |        1560 |
|     822 | 0x00CC      |         204 |
|     823 | 0x4027      |       16423 |
|     824 | 0x495E      |       18782 |
|     825 | 0x4056      |       16470 |
|     826 | 0x4065      |       16485 |
|     827 | 0x4AC2      |       19138 |
|     828 | 0x4500      |       17664 |
|     829 | 0x49D5      |       18901 |
|     830 | 0x4ACF      |       19151 |
|     831 | 0x4ADD      |       19165 |
|     832 | 0x4AE2      |       19170 |
|     833 | 0x4114      |       16660 |
|     834 | 0x4869      |       18537 |
|     835 | 0x4143      |       16707 |
|     836 | 0x484F      |       18511 |
|     837 | 0x4855      |       18517 |
|     838 | 0x4189      |       16777 |
|     839 | 0x4A14      |       18964 |
|     840 | 0x487B      |       18555 |
|     841 | 0x41C8      |       16840 |
|     842 | 0x41DD      |       16861 |
|     843 | 0x4B75      |       19317 |
|     844 | 0x47F4      |       18420 |
|     845 | 0x4B55      |       19285 |
|     846 | 0x4B5D      |       19293 |
|     847 | 0x424B      |       16971 |
|     848 | 0x4243      |       16963 |
|     849 | 0x49A0      |       18848 |
|     850 | 0x49BB      |       18875 |
|     851 | 0x49BD      |       18877 |
|     852 | 0x42CE      |       17102 |
|     853 | 0x48BD      |       18621 |
|     854 | 0x4907      |       18695 |
|     855 | 0x4D15      |       19733 |
|     856 | 0x4364      |       17252 |
|     857 | 0x433D      |       17213 |
|     858 | 0x4B41      |       19265 |
|     859 | 0x4B43      |       19267 |
|     860 | 0x4D17      |       19735 |
|     861 | 0x3015      |       12309 |
|     862 | 0x3011      |       12305 |
|     863 | 0x3063      |       12387 |
|     864 | 0x3061      |       12385 |
|     865 | 0x3F3D      |       16189 |
|     866 | 0x0409      |        1033 |
|     867 | 0x012C      |         300 |
|     868 | 0x02AF      |         687 |
|     869 | 0x0354      |         852 |
|     870 | 0x0659      |        1625 |
|     871 | 0x0362      |         866 |
|     872 | 0x02B6      |         694 |
|     873 | 0x02BD      |         701 |
|     874 | 0x0316      |         790 |
|     875 | 0x02A3      |         675 |
|     876 | 0x02FA      |         762 |
|     877 | 0x0187      |         391 |
|     878 | 0x039E      |         926 |
|     879 | 0x0231      |         561 |
|     880 | 0x02C4      |         708 |
|     881 | 0x0204      |         516 |
|     882 | 0x0169      |         361 |
|     883 | 0x0328      |         808 |
|     884 | 0x028A      |         650 |
|     885 | 0x0290      |         656 |
|     886 | 0x0284      |         644 |
|     887 | 0x08B7      |        2231 |
|     888 | 0x0AC3      |        2755 |
|     889 | 0x0010      |          16 |
|     890 | 0x3C54      |       15444 |
|     891 | 0x0011      |          17 |
|     892 | 0x3C55      |       15445 |
|     893 | 0x3C56      |       15446 |
|     894 | 0x3C57      |       15447 |
|     895 | 0x001F      |          31 |
|     896 | 0x1FFFF     |      131071 |
|     897 | 0x279A      |       10138 |
|     898 | 0x27A4      |       10148 |
|     899 | 0x27A8      |       10152 |
|     900 | 0x27C5      |       10181 |
|     901 | 0x3C58      |       15448 |
|     902 | 0x3C59      |       15449 |
|     903 | 0x0012      |          18 |
|     904 | 0x0013      |          19 |
|     905 | 0x7530      |       30000 |
|     906 | 0x3C5A      |       15450 |
|     907 | 0x3C5C      |       15452 |
|     908 | 0x3C5F      |       15455 |
|     909 | 0x0FDB      |        4059 |
|     910 | 0x0FDC      |        4060 |
|     911 | 0x0FDD      |        4061 |
|     912 | 0x3C5D      |       15453 |
|     913 | 0x3C5E      |       15454 |
|     914 | 0x09B2      |        2482 |
|     915 | 0x09B3      |        2483 |
|     916 | 0x09B4      |        2484 |
|     917 | 0x09B5      |        2485 |
|     918 | 0x09B6      |        2486 |
|     919 | 0x09B7      |        2487 |
|     920 | 0x3C61      |       15457 |
|     921 | 0x3C62      |       15458 |
|     922 | 0x3C60      |       15456 |
|     923 | 0x3C36      |       15414 |
|     924 | 0x3C3B      |       15419 |
|     925 | 0x3C41      |       15425 |
|     926 | 0x3C46      |       15430 |
|     927 | 0x002D      |          45 |

## String References

- **15375**: I had no idea just how unprepared most adventurers in these parts are...
- **15376**: My superior told me to "meet an adventurer who has set the first objective from the 'Objective List' under the 'Records of Eminence' section of the Quests menu," but I feel I will wither and die before that ever happens. What the heck is a "quest menu," anyway?
- **15377**: What will you do? [Pick it up./Watch and wait./Walk away.]
- **15378**: How will I ever be able to show my beautiful yet shamed face to my superiors again?
- **15379**: Oh my, what a stunning coincidence! I had long given up on the hope of bumping into someone who satisfied that tall list of requirements!
- **15380**: You would not happen to be knowledgeable about the subject of "Records of Eminence," would you?
- **15381**: Well, are you? [Of course./Nope.]
- **15382**: Splendid! Then you have saved both me from losing any more of my time and you from a long-winded explanation!
- **15383**: Completely understandable. I myself had not heard of the system until I was charged with disseminating information on it to the masses.
- **15384**: Interestingly enough, this conversation is undeniable proof that you have already begun to participate in Records of Eminence.
- **15385**: As you will see in this mandate--um, manual--it says "set the first objective from the 'Objective List'" and everything.
- **15386**: As you know, you have cleared this first objective with flying colors.
- **15387**: In honor of your accomplishment, I would like to present you with $6!
- **15388**: It slinks up from nowhere like an assassin, and it stares with such creepy intensity that you cannot help but...uh...think how adorable it is. <Whisper> Do you think it's listening!?
- **15389**: Each time you clear an objective, the details are recorded within the frame of this eerie doll. On a brighter note, you also receive a quantified measure of your eminence, termed "sparks."
- **15390**: Oh, of course. I as well cannot stand how that doll stares daggers into the depths of my soul.
- **15391**: At least its inventor was magnanimous enough to bestow it with this special function!
- **15392**: Amazing, is it not? I hear it is all attributable to an "astral patina." Sadly, I do not understand much more about it than that.
- **15393**: What I do know is that your recipe for success is to set your objectives periodically. That way you can complete them while on your adventures and garner as many sparks as possible!
- **15394**: Moreover, some objectives only appear after you complete a certain amount of others. There is always a chance you will be surprised when you check!
- **15395**: In the event you have forgotten how to set objectives, go to the "Objective List" under the "Records of Eminence" section of the Quests menu. From there you simply pick those most suited to your current undertakings.
- **15396**: I suggest partaking in a variety of objectives, including the ones that may be repeated.
- **15397**: Then, when you accrue a sufficient amount of eminence, come to me or one of my friends. We have many a reward stockpiled and ready to enter your veteran hands.
- **15398**: In summation, with benefits more inflated than even the Royal Guard's sense of self-worth and absolutely no downside, why would you not give this a shot?
- **15399**: ...Hmmm. Upon further inspection, you do not seem to be as reliable as I first thought. Please consult with Alaune to learn the ins and outs of adventuring before approaching me again.
- **15400**: Oh, and as that $3 has irrevocably bonded to you, there is no need to return it. All we can do with it is throw it to the wendigos if you don't keep it.
- **15406**: Invisible eyes upon you cause the hairs on the back of your neck to rise.
- **15407**: The $3 nods in agreement.
- **15410**: You wish to exchange your sparks?
- **15411**: Wait but a moment. Here, follow this command--er, compendium to the letter and you should be able to learn a thing or two.
- **15412**: Ah, this almost slipped my mind. Should you receive any distinct sorts of artifacts for completing an objective, I will be happy to take them off your hands.
- **15413**: Worry not, for I am not out to rob you of your glory. Quite the opposite, in fact. I will provide you with a worthwhile reward for collecting them.
- **15414**: Thanks to your donation, I now have $1 $0 in safekeeping.
- **15415**: Ohohoho... Turning in sparks, I see.
- **15416**: Hold your hoarder hares, [hero/heroine]. I love your enthusiasm, but you're not going to learn a thing without a primer. Ahhh, here it is. Have a look-see.
- **15417**: Oh, crud, that's right. You should trade me any special artifacts you get from completing objectives.
- **15418**: "Why?" What a good question! Because I'll give you a nifty-difty reward at some point, that's why.
- **15419**: Thanks for doing what I asked. Now I have a total of $1 $0 from you.
- **15420**: You want to trrrade in sparks, do you?
- **15421**: Let me wake up from my catnap first... Alright, now rrread this.
- **15422**: Wait, wait, wait! If you happen to get any purrrticularly interesting items from completing objectives, send them my way.
- **15423**: Don't worry, I'm as honest as a cat when the meat's out of reach. I thought of taking them all for myself...
- **15424**: ...but I don't want to make fur fly with the Adventurers' Mutual Aid Network, so I'll do my job like a good little kitty.
- **15425**: Grrreat! Now I have $1 $0 from you. Thanks!
- **15426**: Hm? Oh, spark exchange... Of course.
- **15427**: I'm not completely sure, but this might help set some things straight...I guess.
- **15428**: Let me add one thing. Please find it within your heart of hearts to give me anything of particular interest you get from completing objectives.
- **15429**: I'll make it worth your while...I swear! Just keep at it and I'll be sure to surprise you with a hot, steaming helping of gratitude one day.
- **15430**: Thanks for doing your part in the battle for love and peace! With this latest addition, I'm now keeping track of $1 $0 for you.
- **15431**: "Records of Eminence is a system brought to you by the caring folks at the Adventurers' Mutual Aid Network. Set your own objectives whenever you desire, and fulfill them to receive compensation.
- **15432**: "To set these tasks, select 'Objective List' from the Quests menu, then choose ones that suit your fancy.
- **15433**: "You will be rewarded with gil and sparks of eminence, which serve the same function as points, notes, credits, and other such methods of quantifying one's greatness. As an extra incentive, adventurers will earn three times the amount of sparks for completing an objective the first time.
- **15434**: "Completed objectives will vanish from your quest list unless they are repeatable. In the event that you wish to make room for different objectives, you will need to remove them manually.
- **15435**: "As a corollary regarding rewards, you'll be blessed with special remuneration once you complete several objectives. Bask in the joy of these pleasant surprises when you can.
- **15436**: "Lastly, any and all acts of vandalism directed against your $3 are strictly prohibited.
- **15437**: "Should you be found in violation of this dictum, the heavens will part and wrath incarnate will descend to mete out justice upon you."
- **15443**: Exchange for what? (Sparks: $0) [Items./Skill-increasing tomes./Equ. Lv.1 - 9. (Up to $")/Equ. Lv.10 - 19. (Up to $")/Equ. Lv.20 - 29. (Up to $")/Equ. Lv.30 - 39. (Up to $")/Equ. Lv.40 - 50. (Up to $")/Equ. Lv.51 - 70. (Up to $")/Equ. Lv.71 - 98. (Up to $")/Equ. Lv.99. (Up to $")/10./Trust./Exchange A.M.A.N. currencies./Exchange Seven Treasures./Wise words on Records of Eminence./Nothing.]
- **15445**: Receive how many? ($6 spark[/s]) [One. ($1 spark[/s])/Three. ($2 spark[/s])/Twelve. ($3 spark[/s])/Thirty-six. ($4 spark[/s])/None.]
- **15446**: Are you sure you want to expend $0 spark[/s] of eminence on this?
- **15447**: Make the exchange? [Yes./No.]
- **15448**: Exchange for what? (On hand: $0) [Currencies./Provisions./None for the nonce.]
- **15449**: Exchange for what? (On hand: $0) [Sparks of Eminence: $1./Conquest Points: $2./Imperial Standing: $3./Allied Notes: $4./Bayld: $5./Valor Pts.: $6./Aslt. Pts. (Leujaoam): $7./Aslt. Pts. (T. Grounds): $8./Aslt. Pts. (Lebros): $9./Aslt. Pts. (Periqia): $10./Aslt. Pts. (Ilrusi): $11./Cruor: $12./Kinetic Units: $13./Obs. Fragments: $14./M. Plasm Corpuscles: $15./Ballista Points: $16. (2000 max)/Unity Accolades: $17./Escha Silt: $18./Resistance Credits: $19./Nothing for the nonce.]
- **15450**: Exchange how many points? (On hand: $0) [$1 (One)./$2 (Three)./$3 (Ten)./$4 (Thirty)./None.]
- **15452**: Beware that any amount that exceeds the maximum storage limit will unceremoniously vanish into the aether.
- **15454**: Exchange how many? (On hand: $0) [One ($1)./Three ($2)./Ten ($3)./Thirty ($4)./None.]
- **15455**: Truly exchange $0 ($2)?
- **15456**: Are you quite satisfied with your selection?
- **15457**: You wish to exchange $6, $6, $6, $6, $6, and $6 for equipment?

## Events

### Event 65535

#### Metadata

| Field        | Value   |
|--------------|---------|
| Entrypoint   | 0x0000  |
| Data Size    | 1 bytes |
| Instructions | 1       |

```
      00 01 02 03 04 05 06 07  08 09 0A 0B 0C 0D 0E 0F
      -- -- -- -- -- -- -- --  -- -- -- -- -- -- -- --
0000: 00                                                .               
```

#### Opcodes

```
  0: 0x0000 [0x00] END_REQSTACK()
```

### Event 993

#### Metadata

| Field        | Value      |
|--------------|------------|
| Entrypoint   | 0x0001     |
| Data Size    | 2864 bytes |
| Instructions | 368        |

```
      00 01 02 03 04 05 06 07  08 09 0A 0B 0C 0D 0E 0F
      -- -- -- -- -- -- -- --  -- -- -- -- -- -- -- --
0000:    42 03 01 00 02 10 06  01 10 1A 55 2D 46 01 38   B.........U-F.8
0010: 00 80 2F 00 57 61 0E 01  4E 00 57 61 0E 01 92 01  ../.Wa..N.Wa....
0020: 56 61 0E 01 92 01 57 61  0E 01 92 01 42 61 0E 01  Va....Wa....Ba..
0030: 92 01 63 60 0E 01 92 01  61 60 0E 01 92 01 01 60  ..c`....a`.....`
0040: 0E 01 92 01 21 60 0E 01  92 01 53 61 0E 01 92 01  ....!`....Sa....
0050: 54 61 0E 01 92 01 52 61  0E 01 92 01 87 60 0E 01  Ta....Ra.....`..
0060: 94 01 F0 FF FF 7F 94 01  56 61 0E 01 94 01 57 61  ........Va....Wa
0070: 0E 01 94 01 42 61 0E 01  94 01 63 60 0E 01 94 01  ....Ba....c`....
0080: 61 60 0E 01 94 01 01 60  0E 01 94 01 21 60 0E 01  a`.....`....!`..
0090: 94 01 53 61 0E 01 94 01  54 61 0E 01 94 01 52 61  ..Sa....Ta....Ra
00A0: 0E 01 94 01 87 60 0E 01  27 05 57 61 0E 01 02 BA  .....`..'.Wa....
00B0: F0 FF FF 7F 01 80 02 80  03 80 04 80 BA F8 FF FF  ................
00C0: 7F 05 80 06 80 07 80 08  80 BA 57 61 0E 01 09 80  ..........Wa....
00D0: 0A 80 03 80 0B 80 80 F0  FF FF 7F 80 56 61 0E 01  ............Va..
00E0: 80 57 61 0E 01 80 42 61  0E 01 80 63 60 0E 01 80  .Wa...Ba...c`...
00F0: 61 60 0E 01 80 01 60 0E  01 80 21 60 0E 01 80 53  a`....`...!`...S
0100: 61 0E 01 80 54 61 0E 01  80 52 61 0E 01 80 87 60  a...Ta...Ra....`
0110: 0E 01 5C 00 0C 80 5C 01  0C 80 9A 45 0D 80 F8 FF  ..\...\....E....
0120: FF 7F F8 FF FF 7F 73 30  32 36 0E 80 1C 0F 80 32  ......s026.....2
0130: 10 80 1F 00 11 80 12 80  03 80 1F 01 4B F8 FF FF  ............K...
0140: 7F 13 80 1A 34 2D 1C 14  80 4A F0 FF FF 7F 56 61  ....4-...J....Va
0150: 0E 01 62 15 80 57 61 0E  01 57 61 0E 01 6D 61 69  ..b..Wa..Wa..mai
0160: 6E 0E 80 1C 16 80 79 00  F0 FF FF 7F 57 61 0E 01  n.....y.....Wa..
0170: 1C 16 80 52 0D 80 F8 FF  FF 7F F8 FF FF 7F 73 30  ...R..........s0
0180: 32 36 06 00 00 45 0D 80  F8 FF FF 7F F8 FF FF 7F  26...E..........
0190: 73 30 32 37 0E 80 24 17  80 0E 80 0E 80 25 02 00  s027..$......%..
01A0: 10 0E 80 00 A9 01 01 CA  02 02 00 10 18 80 00 94  ................
01B0: 02 02 00 00 19 80 04 00  02 4A F8 FF FF 7F F0 FF  .........J......
01C0: FF 7F 6F 76 F8 FF FF 7F  1C 0F 80 6E F8 FF FF 7F  ..ov.......n....
01D0: 1A 80 99 F8 FF FF 7F 52  0D 80 F8 FF FF 7F F8 FF  .......R........
01E0: FF 7F 73 30 32 37 45 0D  80 F8 FF FF 7F F8 FF FF  ..s027E.........
01F0: 7F 73 30 33 30 0E 80 1C  1B 80 01 DB 0A 01 91 02  .s030...........
0200: 0B 00 00 52 0D 80 F8 FF  FF 7F F8 FF FF 7F 73 30  ...R..........s0
0210: 32 37 02 87 7F 1C 80 80  2E 02 45 0D 80 F8 FF FF  27........E.....
0220: 7F F8 FF FF 7F 73 30 32  39 0E 80 01 5B 02 02 87  .....s029...[...
0230: 7F 1D 80 80 4A 02 45 0D  80 F8 FF FF 7F F8 FF FF  ....J.E.........
0240: 7F 73 30 32 39 0E 80 01  5B 02 45 0D 80 F8 FF FF  .s029...[.E.....
0250: 7F F8 FF FF 7F 73 30 32  38 0E 80 1C 16 80 79 00  .....s028.....y.
0260: F8 FF FF 7F F0 FF FF 7F  1C 1E 80 52 0D 80 F8 FF  ...........R....
0270: FF 7F F8 FF FF 7F 73 30  32 38 52 0D 80 F8 FF FF  ......s028R.....
0280: 7F F8 FF FF 7F 73 30 32  39 7B F8 FF FF 7F 01 85  .....s029{......
0290: 01 01 CA 02 02 00 10 1F  80 00 CA 02 27 05 F0 FF  ............'...
02A0: FF 7F 9D 1C 20 80 4A F8  FF FF 7F F0 FF FF 7F 6F  .... .J........o
02B0: 76 F8 FF FF 7F 6E F8 FF  FF 7F 21 80 99 F8 FF FF  v....n....!.....
02C0: 7F 1C 22 80 01 DB 0A 01  CA 02 29 05 F0 FF FF 7F  ..".......).....
02D0: 64 1C 1B 80 BA 57 61 0E  01 23 80 24 80 03 80 25  d....Wa..#.$...%
02E0: 80 52 0D 80 F8 FF FF 7F  F8 FF FF 7F 73 30 32 37  .R..........s027
02F0: 45 0D 80 F8 FF FF 7F F8  FF FF 7F 73 30 33 31 0E  E..........s031.
0300: 80 29 05 F0 FF FF 7F 65  4A F8 FF FF 7F F0 FF FF  .).....eJ.......
0310: 7F 6F 76 F8 FF FF 7F 27  05 F0 FF FF 7F 95 1C 26  .ov....'.......&
0320: 80 27 05 F0 FF FF 7F 9C  1C 27 80 52 0D 80 F8 FF  .'.......'.R....
0330: FF 7F F8 FF FF 7F 73 30  33 31 45 0D 80 F8 FF FF  ......s031E.....
0340: 7F F8 FF FF 7F 73 30 33  32 0E 80 1D 28 80 23 29  .....s032...(.#)
0350: 05 57 61 0E 01 03 6C 57  61 0E 01 0E 80 18 80 52  .Wa...lWa......R
0360: 0D 80 F8 FF FF 7F F8 FF  FF 7F 73 30 33 32 45 0D  ..........s032E.
0370: 80 F8 FF FF 7F F8 FF FF  7F 73 30 33 33 0E 80 66  .........s033..f
0380: 29 80 56 61 0E 01 56 61  0E 01 74 6C 6B 30 1C 20  ).Va..Va..tlk0. 
0390: 80 1D 2A 80 23 1D 2B 80  23 66 29 80 56 61 0E 01  ..*.#.+.#f).Va..
03A0: 56 61 0E 01 74 6C 6B 31  52 0D 80 F8 FF FF 7F F8  Va..tlk1R.......
03B0: FF FF 7F 73 30 33 33 02  87 7F 1C 80 80 D3 03 45  ...s033........E
03C0: 0D 80 F8 FF FF 7F F8 FF  FF 7F 73 30 33 35 0E 80  ..........s035..
03D0: 01 00 04 02 87 7F 1D 80  80 EF 03 45 0D 80 F8 FF  ...........E....
03E0: FF 7F F8 FF FF 7F 73 30  33 35 0E 80 01 00 04 45  ......s035.....E
03F0: 0D 80 F8 FF FF 7F F8 FF  FF 7F 73 30 33 34 0E 80  ..........s034..
0400: 24 2C 80 0E 80 0E 80 25  02 00 10 0E 80 00 6E 04  $,.....%......n.
0410: 52 0D 80 F8 FF FF 7F F8  FF FF 7F 73 30 33 34 52  R..........s034R
0420: 0D 80 F8 FF FF 7F F8 FF  FF 7F 73 30 33 35 45 0D  ..........s035E.
0430: 80 F8 FF FF 7F F8 FF FF  7F 73 30 33 36 0E 80 6E  .........s036..n
0440: F8 FF FF 7F 2D 80 99 F8  FF FF 7F 1D 2E 80 23 1D  ....-.........#.
0450: 2F 80 23 4A F8 FF FF 7F  57 61 0E 01 52 0D 80 F8  /.#J....Wa..R...
0460: FF FF 7F F8 FF FF 7F 73  30 33 36 01 2A 05 02 00  .......s036.*...
0470: 10 18 80 00 2A 05 52 0D  80 F8 FF FF 7F F8 FF FF  ....*.R.........
0480: 7F 73 30 33 34 52 0D 80  F8 FF FF 7F F8 FF FF 7F  .s034R..........
0490: 73 30 33 35 45 0D 80 F8  FF FF 7F F8 FF FF 7F 73  s035E..........s
04A0: 30 33 36 0E 80 6E F8 FF  FF 7F 1D 80 99 F8 FF FF  036..n..........
04B0: 7F 1D 30 80 23 52 0D 80  F8 FF FF 7F F8 FF FF 7F  ..0.#R..........
04C0: 73 30 33 36 45 0D 80 F8  FF FF 7F F8 FF FF 7F 73  s036E..........s
04D0: 30 33 37 0E 80 66 29 80  56 61 0E 01 56 61 0E 01  037..f).Va..Va..
04E0: 74 6C 6B 30 1C 20 80 1D  31 80 23 1D 32 80 23 66  tlk0. ..1.#.2.#f
04F0: 29 80 56 61 0E 01 56 61  0E 01 74 6C 6B 31 53 56  ).Va..Va..tlk1SV
0500: 61 0E 01 56 61 0E 01 74  6C 6B 31 1D 2F 80 23 4A  a..Va..tlk1./.#J
0510: F8 FF FF 7F 57 61 0E 01  52 0D 80 F8 FF FF 7F F8  ....Wa..R.......
0520: FF FF 7F 73 30 33 37 01  2A 05 45 0D 80 F8 FF FF  ...s037.*.E.....
0530: 7F F8 FF FF 7F 73 30 33  38 0E 80 6F 76 F8 FF FF  .....s038..ov...
0540: 7F 7B F8 FF FF 7F 6E 56  61 0E 01 33 80 99 56 61  .{....nVa..3..Va
0550: 0E 01 03 02 10 34 80 1D  35 80 6C 57 61 0E 01 36  .....4..5.lWa..6
0560: 80 16 80 23 1C 16 80 4A  F0 FF FF 7F 57 61 0E 01  ...#...J....Wa..
0570: 1C 0F 80 6E F0 FF FF 7F  37 80 99 F0 FF FF 7F 1C  ...n....7.......
0580: 26 80 6B 69 64 6C 30 56  61 0E 01 4A F8 FF FF 7F  &.kidl0Va..J....
0590: F0 FF FF 7F 52 0D 80 F8  FF FF 7F F8 FF FF 7F 73  ....R..........s
05A0: 30 33 38 45 0D 80 F8 FF  FF 7F F8 FF FF 7F 73 30  038E..........s0
05B0: 33 39 0E 80 6F 76 F8 FF  FF 7F 1C 20 80 66 29 80  39..ov..... .f).
05C0: 56 61 0E 01 56 61 0E 01  74 6C 6B 30 1C 20 80 1D  Va..Va..tlk0. ..
05D0: 38 80 23 1D 39 80 23 66  29 80 56 61 0E 01 56 61  8.#.9.#f).Va..Va
05E0: 0E 01 74 6C 6B 31 53 56  61 0E 01 56 61 0E 01 74  ..tlk1SVa..Va..t
05F0: 6C 6B 31 52 0D 80 F8 FF  FF 7F F8 FF FF 7F 73 30  lk1R..........s0
0600: 33 39 02 87 7F 1C 80 80  1E 06 45 0D 80 F8 FF FF  39........E.....
0610: 7F F8 FF FF 7F 73 30 34  31 0E 80 01 4B 06 02 87  .....s041...K...
0620: 7F 1D 80 80 3A 06 45 0D  80 F8 FF FF 7F F8 FF FF  ....:.E.........
0630: 7F 73 30 34 31 0E 80 01  4B 06 45 0D 80 F8 FF FF  .s041...K.E.....
0640: 7F F8 FF FF 7F 73 30 34  30 0E 80 27 05 F0 FF FF  .....s040..'....
0650: 7F 97 1C 1B 80 7B F8 FF  FF 7F 66 29 80 56 61 0E  .....{....f).Va.
0660: 01 56 61 0E 01 74 68 6B  31 1D 3A 80 23 52 0D 80  .Va..thk1.:.#R..
0670: F8 FF FF 7F F8 FF FF 7F  73 30 34 30 52 0D 80 F8  ........s040R...
0680: FF FF 7F F8 FF FF 7F 73  30 34 31 45 0D 80 F8 FF  .......s041E....
0690: FF 7F F8 FF FF 7F 73 30  34 32 0E 80 66 29 80 56  ......s042..f).V
06A0: 61 0E 01 56 61 0E 01 74  68 6B 32 79 00 F8 FF FF  a..Va..thk2y....
06B0: 7F F0 FF FF 7F 27 05 F0  FF FF 7F 98 1D 3B 80 23  .....'.......;.#
06C0: 6E 56 61 0E 01 33 80 99  56 61 0E 01 1C 1B 80 52  nVa..3..Va.....R
06D0: 0D 80 F8 FF FF 7F F8 FF  FF 7F 73 30 34 32 45 0D  ..........s042E.
06E0: 80 F8 FF FF 7F F8 FF FF  7F 73 30 34 33 0E 80 1C  .........s043...
06F0: 0F 80 BB 3C 80 57 61 0E  01 57 61 0E 01 74 72 67  ...<.Wa..Wa..trg
0700: 30 0E 80 1C 3D 80 52 0D  80 F8 FF FF 7F F8 FF FF  0...=.R.........
0710: 7F 73 30 34 33 45 0D 80  F8 FF FF 7F F8 FF FF 7F  .s043E..........
0720: 73 30 34 34 0E 80 66 29  80 56 61 0E 01 56 61 0E  s044..f).Va..Va.
0730: 01 74 6C 6B 30 1C 20 80  4A F0 FF FF 7F F8 FF FF  .tlk0. .J.......
0740: 7F 1D 3E 80 23 1D 3F 80  23 52 0D 80 F8 FF FF 7F  ..>.#.?.#R......
0750: F8 FF FF 7F 73 30 34 34  45 0D 80 F8 FF FF 7F F8  ....s044E.......
0760: FF FF 7F 73 30 34 35 0E  80 1D 40 80 23 1D 41 80  ...s045...@.#.A.
0770: 23 52 0D 80 F8 FF FF 7F  F8 FF FF 7F 73 30 34 35  #R..........s045
0780: 45 0D 80 F8 FF FF 7F F8  FF FF 7F 73 30 34 36 0E  E..........s046.
0790: 80 1D 42 80 23 1D 43 80  23 66 29 80 56 61 0E 01  ..B.#.C.#f).Va..
07A0: 56 61 0E 01 74 6C 6B 31  53 56 61 0E 01 56 61 0E  Va..tlk1SVa..Va.
07B0: 01 74 6C 6B 31 1C 0F 80  52 0D 80 F8 FF FF 7F F8  .tlk1...R.......
07C0: FF FF 7F 73 30 34 36 45  0D 80 F8 FF FF 7F F8 FF  ...s046E........
07D0: FF 7F 73 30 34 37 0E 80  6E F8 FF FF 7F 44 80 99  ..s047..n....D..
07E0: F8 FF FF 7F 1C 16 80 1D  45 80 23 1C 20 80 52 0D  ........E.#. .R.
07F0: 80 F8 FF FF 7F F8 FF FF  7F 73 30 34 37 02 01 00  .........s047...
0800: 18 80 00 8B 08 45 0D 80  F8 FF FF 7F F8 FF FF 7F  .....E..........
0810: 73 30 34 38 0E 80 1D 46  80 1C 16 80 1E 42 61 0E  s048...F.....Ba.
0820: 01 4A F0 FF FF 7F 42 61  0E 01 52 0D 80 F8 FF FF  .J....Ba..R.....
0830: 7F F8 FF FF 7F 73 30 34  38 45 47 80 F8 FF FF 7F  .....s048EG.....
0840: F8 FF FF 7F 73 30 30 37  0E 80 1C 20 80 6E 42 61  ....s007... .nBa
0850: 0E 01 48 80 99 42 61 0E  01 1C 1B 80 23 1C 0F 80  ..H..Ba.....#...
0860: 52 47 80 F8 FF FF 7F F8  FF FF 7F 73 30 30 37 45  RG.........s007E
0870: 0D 80 F8 FF FF 7F F8 FF  FF 7F 73 30 34 39 0E 80  ..........s049..
0880: 1E F0 FF FF 7F 1C 0F 80  01 9C 08 45 0D 80 F8 FF  ...........E....
0890: FF 7F F8 FF FF 7F 73 30  34 39 0E 80 66 29 80 56  ......s049..f).V
08A0: 61 0E 01 56 61 0E 01 74  6C 6B 30 1C 0F 80 4A F0  a..Va..tlk0...J.
08B0: FF FF 7F F8 FF FF 7F 03  02 10 34 80 1D 49 80 23  ..........4..I.#
08C0: 66 29 80 56 61 0E 01 56  61 0E 01 74 6C 6B 31 53  f).Va..Va..tlk1S
08D0: 56 61 0E 01 56 61 0E 01  74 6C 6B 31 6B 69 64 6C  Va..Va..tlk1kidl
08E0: 30 F0 FF FF 7F 1C 16 80  52 0D 80 F8 FF FF 7F F8  0.......R.......
08F0: FF FF 7F 73 30 34 39 02  87 7F 15 80 80 13 09 45  ...s049........E
0900: 47 80 F8 FF FF 7F F8 FF  FF 7F 73 30 30 34 0E 80  G.........s004..
0910: 01 94 09 02 87 7F 19 80  80 2F 09 45 47 80 F8 FF  ........./.EG...
0920: FF 7F F8 FF FF 7F 73 30  30 34 0E 80 01 94 09 02  ......s004......
0930: 87 7F 1C 80 80 4B 09 45  47 80 F8 FF FF 7F F8 FF  .....K.EG.......
0940: FF 7F 73 30 30 35 0E 80  01 94 09 02 87 7F 1D 80  ..s005..........
0950: 80 67 09 45 47 80 F8 FF  FF 7F F8 FF FF 7F 73 30  .g.EG.........s0
0960: 30 35 0E 80 01 94 09 02  87 7F 48 80 80 83 09 45  05........H....E
0970: 47 80 F8 FF FF 7F F8 FF  FF 7F 73 30 30 34 0E 80  G.........s004..
0980: 01 94 09 45 0D 80 F8 FF  FF 7F F8 FF FF 7F 73 30  ...E..........s0
0990: 35 30 0E 80 1C 1B 80 48  4A 80 23 1C 0F 80 52 0D  50.....HJ.#...R.
09A0: 80 F8 FF FF 7F F8 FF FF  7F 73 30 35 30 52 47 80  .........s050RG.
09B0: F8 FF FF 7F F8 FF FF 7F  73 30 30 34 52 47 80 F8  ........s004RG..
09C0: FF FF 7F F8 FF FF 7F 73  30 30 34 45 0D 80 F8 FF  .......s004E....
09D0: FF 7F F8 FF FF 7F 73 30  35 31 0E 80 6E F0 FF FF  ......s051..n...
09E0: 7F 33 80 99 F0 FF FF 7F  1C 16 80 6C 57 61 0E 01  .3.........lWa..
09F0: 36 80 16 80 1C 16 80 4A  F0 FF FF 7F 57 61 0E 01  6......J....Wa..
0A00: 6F 76 F0 FF FF 7F 1C 4B  80 6E F0 FF FF 7F 37 80  ov.....K.n....7.
0A10: 99 F0 FF FF 7F 1C 4C 80  5B 4D 80 57 61 0E 01 57  ......L.[M.Wa..W
0A20: 61 0E 01 62 72 75 30 03  02 10 34 80 48 4E 80 1C  a..bru0...4.HN..
0A30: 3D 80 6B 69 64 6C 30 57  61 0E 01 1C 16 80 52 0D  =.kidl0Wa.....R.
0A40: 80 F8 FF FF 7F F8 FF FF  7F 73 30 35 31 45 47 80  .........s051EG.
0A50: F8 FF FF 7F F8 FF FF 7F  73 30 30 36 0E 80 6E F0  ........s006..n.
0A60: FF FF 7F 33 80 99 F0 FF  FF 7F 1C 16 80 BB 3C 80  ...3..........<.
0A70: 57 61 0E 01 57 61 0E 01  74 72 67 30 0E 80 1C 1B  Wa..Wa..trg0....
0A80: 80 6E F0 FF FF 7F 2D 80  99 F0 FF FF 7F 1C 16 80  .n....-.........
0A90: 27 05 F0 FF FF 7F 9D BA  57 61 0E 01 4F 80 50 80  '.......Wa..O.P.
0AA0: 07 80 51 80 4A 57 61 0E  01 F0 FF FF 7F 6F 76 57  ..Q.JWa......ovW
0AB0: 61 0E 01 6E F8 FF FF 7F  33 80 99 F8 FF FF 7F 1C  a..n....3.......
0AC0: 16 80 6C 57 61 0E 01 36  80 16 80 1C 20 80 27 05  ..lWa..6.... .'.
0AD0: 57 61 0E 01 04 1C 14 80  05 01 10 1A 55 2D 1C 0F  Wa..........U-..
0AE0: 80 52 47 80 F8 FF FF 7F  F8 FF FF 7F 73 30 30 36  .RG.........s006
0AF0: 5C 00 52 80 5C 01 52 80  9A 1C 4B 80 AB 11 0E 80  \.R.\.R...K.....
0B00: 1C 18 80 46 00 02 01 10  18 80 00 1E 0B 45 53 80  ...F.........ES.
0B10: F8 FF FF 7F F8 FF FF 7F  71 73 74 63 0E 80 45 54  ........qstc..ET
0B20: 80 F0 FF FF 7F F0 FF FF  7F 66 64 69 32 0E 80 21  .........fdi2..!
0B30: 00                                                .               
```

#### Opcodes

```
  0: 0x0001 [0x42] SET_CLI_EVENT_CANCEL_DATA()
  1: 0x0002 [0x03] ExtData[1]->WorkLocal[1] = Work_Zone[2]
  2: 0x0007 [0x06] Work_Zone[1] = 0
  3: 0x000A [0x1A] CALL_SUBROUTINE(address=0x2D55)
  4: 0x000D [0x46] CAMERA_CONTROL: Disable user control
  5: 0x000F [0x38] SET_CLIENT_EVENT_MODE(mode=147*)
  6: 0x0012 [0x2F] ??? (ID: 17719639/0x010E6157)->Render.Flags0 &= ~0x80000 // Bit 19
  7: 0x0018 [0x4E] SET_ENTITY_HIDE_FLAG: Show ??? (ID: 17719639/0x010E6157)
  8: 0x001E [0x92] Rolandienne (ID: 17719638/0x010E6156)->Render.Flags3 ^= 0x01
  9: 0x0024 [0x92] ??? (ID: 17719639/0x010E6157)->Render.Flags3 ^= 0x01
 10: 0x002A [0x92] Alaune (ID: 17719618/0x010E6142)->Render.Flags3 ^= 0x01
 11: 0x0030 [0x92] Malecharisant (ID: 17719395/0x010E6063)->Render.Flags3 ^= 0x01
 12: 0x0036 [0x92] Endracion (ID: 17719393/0x010E6061)->Render.Flags3 ^= 0x01
 13: 0x003C [0x92] Ceraule (ID: 17719297/0x010E6001)->Render.Flags3 ^= 0x01
 14: 0x0042 [0x92] Luthiaque (ID: 17719329/0x010E6021)->Render.Flags3 ^= 0x01
 15: 0x0048 [0x92] Voidwatch Officer (ID: 17719635/0x010E6153)->Render.Flags3 ^= 0x01
 16: 0x004E [0x92] Voidwatch Purveyor (ID: 17719636/0x010E6154)->Render.Flags3 ^= 0x01
 17: 0x0054 [0x92] Atmacite Refiner (ID: 17719634/0x010E6152)->Render.Flags3 ^= 0x01
 18: 0x005A [0x92] Home Point #1 (ID: 17719431/0x010E6087)->Render.Flags3 ^= 0x01
 19: 0x0060 [0x94] LocalPlayer->Render.Flags3 ^= 0x01
 20: 0x0066 [0x94] Rolandienne (ID: 17719638/0x010E6156)->Render.Flags3 ^= 0x01
 21: 0x006C [0x94] ??? (ID: 17719639/0x010E6157)->Render.Flags3 ^= 0x01
 22: 0x0072 [0x94] Alaune (ID: 17719618/0x010E6142)->Render.Flags3 ^= 0x01
 23: 0x0078 [0x94] Malecharisant (ID: 17719395/0x010E6063)->Render.Flags3 ^= 0x01
 24: 0x007E [0x94] Endracion (ID: 17719393/0x010E6061)->Render.Flags3 ^= 0x01
 25: 0x0084 [0x94] Ceraule (ID: 17719297/0x010E6001)->Render.Flags3 ^= 0x01
 26: 0x008A [0x94] Luthiaque (ID: 17719329/0x010E6021)->Render.Flags3 ^= 0x01
 27: 0x0090 [0x94] Voidwatch Officer (ID: 17719635/0x010E6153)->Render.Flags3 ^= 0x01
 28: 0x0096 [0x94] Voidwatch Purveyor (ID: 17719636/0x010E6154)->Render.Flags3 ^= 0x01
 29: 0x009C [0x94] Atmacite Refiner (ID: 17719634/0x010E6152)->Render.Flags3 ^= 0x01
 30: 0x00A2 [0x94] Home Point #1 (ID: 17719431/0x010E6087)->Render.Flags3 ^= 0x01
 31: 0x00A8 [0x27] REQ_SET(priority=0x05, entity_id=??? (ID: 17719639/0x010E6157), tag_num=0x02)
 32: 0x00AF [0xBA] SET_ENTITY_POSITION(entity_id=LocalPlayer, pos_x=-85.693*, pos_z=-48.013*, pos_y=1.000*, direction=79.4*)
 33: 0x00BC [0xBA] SET_ENTITY_POSITION(entity_id=EventEntity, pos_x=-84.072*, pos_z=-47.123*, pos_y=1.199*, direction=81.2*)
 34: 0x00C9 [0xBA] SET_ENTITY_POSITION(entity_id=??? (ID: 17719639/0x010E6157), pos_x=-85.536*, pos_z=-49.562*, pos_y=1.000*, direction=50.2*)
 35: 0x00D6 [0x80] LOAD_WAIT(entity=LocalPlayer)
 36: 0x00DB [0x80] LOAD_WAIT(entity=Rolandienne (ID: 17719638/0x010E6156))
 37: 0x00E0 [0x80] LOAD_WAIT(entity=??? (ID: 17719639/0x010E6157))
 38: 0x00E5 [0x80] LOAD_WAIT(entity=Alaune (ID: 17719618/0x010E6142))
 39: 0x00EA [0x80] LOAD_WAIT(entity=Malecharisant (ID: 17719395/0x010E6063))
 40: 0x00EF [0x80] LOAD_WAIT(entity=Endracion (ID: 17719393/0x010E6061))
 41: 0x00F4 [0x80] LOAD_WAIT(entity=Ceraule (ID: 17719297/0x010E6001))
 42: 0x00F9 [0x80] LOAD_WAIT(entity=Luthiaque (ID: 17719329/0x010E6021))
 43: 0x00FE [0x80] LOAD_WAIT(entity=Voidwatch Officer (ID: 17719635/0x010E6153))
 44: 0x0103 [0x80] LOAD_WAIT(entity=Voidwatch Purveyor (ID: 17719636/0x010E6154))
 45: 0x0108 [0x80] LOAD_WAIT(entity=Atmacite Refiner (ID: 17719634/0x010E6152))
 46: 0x010D [0x80] LOAD_WAIT(entity=Home Point #1 (ID: 17719431/0x010E6087))
 47: 0x0112 [0x5C] MUSIC_CONTROL: Set Idle (Day) music to song 163*
 48: 0x0116 [0x5C] MUSIC_CONTROL: Set Idle (Night) music to song 163*
 49: 0x011A [0x9A] WAIT_MUSIC_SERVER()
 50: 0x011B [0x45] LOAD_SCHEDULED_TASK: Load scheduler "s026" with entities [EventEntity, EventEntity], work=[628*, 0*]
 51: 0x012C [0x1C] WAIT(30* ticks)
 52: 0x012F [0x32] ExtData[1]->MainSpeed = 13* * 0.1
 53: 0x0132 [0x1F] MOVE_ENTITY: EventEntity moves to X=-85.278*, Z=-50.708*, Y=1.000*
 54: 0x013A [0x1F] MOVE_ENTITY: Update entity position (mode=1)
 55: 0x013C [0x4B] UPDATE_ENTITY_YAW(entity=EventEntity, yaw=11.6*)
 56: 0x0143 [0x1A] CALL_SUBROUTINE(address=0x2D34)
 57: 0x0146 [0x1C] WAIT(75* ticks)
 58: 0x0149 [0x4A] LocalPlayer looks at Rolandienne (ID: 17719638/0x010E6156)
 59: 0x0152 [0x62] LOAD_EVENT_SCHEDULER: Load scheduler "main" with entities [??? (ID: 17719639/0x010E6157), ??? (ID: 17719639/0x010E6157)], work=[3*, 0*]
 60: 0x0163 [0x1C] WAIT(60* ticks)
 61: 0x0166 [0x79] LocalPlayer looks at ??? (ID: 17719639/0x010E6157) (Basic look)
 62: 0x0170 [0x1C] WAIT(60* ticks)
 63: 0x0173 [0x52] END_LOAD_SCHEDULER: End scheduler "s026" with entities [EventEntity, EventEntity], work=628*
 64: 0x0182 [0x06] ExtData[1]->WorkLocal[0] = 0
 65: 0x0185 [0x45] LOAD_SCHEDULED_TASK: Load scheduler "s027" with entities [EventEntity, EventEntity], work=[628*, 0*]
 66: 0x0196 [0x24] CREATE_DIALOG(message_id=15377*, default_option=0*, option_flags=0*)
     "What will you do? [Pick it up./Watch and wait./Walk away.]"
 67: 0x019D [0x25] WAIT_DIALOG_SELECT()
 68: 0x019E [0x02] IF !(Work_Zone[0] == 0*) GOTO 0x01A9
 69: 0x01A6 [0x01] GOTO 0x02CA
 70: 0x01A9 [0x02] IF !(Work_Zone[0] == 1*) GOTO 0x0294
 71: 0x01B1 [0x02] IF !(ExtData[1]->WorkLocal[0] < 4*) GOTO 0x0200
 72: 0x01B9 [0x4A] EventEntity looks at LocalPlayer
 73: 0x01C2 [0x6F] WAIT_FRAME_DELAY: Yield until WaitTime reaches zero
 74: 0x01C3 [0x76] CHECK_ENTITY_RENDER_FLAGS: Wait until EventEntity Render.Flags0 and Render.Flags3 conditions are met
 75: 0x01C8 [0x1C] WAIT(30* ticks)
 76: 0x01CB [0x6E] EventEntity uses emote 35*
 77: 0x01D2 [0x99] Wait for EventEntity animation to complete
 78: 0x01D7 [0x52] END_LOAD_SCHEDULER: End scheduler "s027" with entities [EventEntity, EventEntity], work=628*
 79: 0x01E6 [0x45] LOAD_SCHEDULED_TASK: Load scheduler "s030" with entities [EventEntity, EventEntity], work=[628*, 0*]
 80: 0x01F7 [0x1C] WAIT(90* ticks)
 81: 0x01FA [0x01] GOTO 0x0ADB

SUBROUTINE_025B:
 82: 0x025B [0x1C] WAIT(60* ticks)
 83: 0x025E [0x79] EventEntity looks at LocalPlayer (Basic look)
 84: 0x0268 [0x1C] WAIT(140* ticks)
 85: 0x026B [0x52] END_LOAD_SCHEDULER: End scheduler "s028" with entities [EventEntity, EventEntity], work=628*
 86: 0x027A [0x52] END_LOAD_SCHEDULER: End scheduler "s029" with entities [EventEntity, EventEntity], work=628*
 87: 0x0289 [0x7B] EventEntity stops talking
 88: 0x028E [0x01] GOTO 0x0185

SUBROUTINE_02CA:
 89: 0x02CA [0x29] REQ_SET_WAIT(priority=0x05, entity_id=LocalPlayer, tag_num=0x64)
 90: 0x02D1 [0x1C] WAIT(90* ticks)
 91: 0x02D4 [0xBA] SET_ENTITY_POSITION(entity_id=??? (ID: 17719639/0x010E6157), pos_x=-86.767*, pos_z=-47.403*, pos_y=1.000*, direction=74.1*)
 92: 0x02E1 [0x52] END_LOAD_SCHEDULER: End scheduler "s027" with entities [EventEntity, EventEntity], work=628*
 93: 0x02F0 [0x45] LOAD_SCHEDULED_TASK: Load scheduler "s031" with entities [EventEntity, EventEntity], work=[628*, 0*]
 94: 0x0301 [0x29] REQ_SET_WAIT(priority=0x05, entity_id=LocalPlayer, tag_num=0x65)
 95: 0x0308 [0x4A] EventEntity looks at LocalPlayer
 96: 0x0311 [0x6F] WAIT_FRAME_DELAY: Yield until WaitTime reaches zero
 97: 0x0312 [0x76] CHECK_ENTITY_RENDER_FLAGS: Wait until EventEntity Render.Flags0 and Render.Flags3 conditions are met
 98: 0x0317 [0x27] REQ_SET(priority=0x05, entity_id=LocalPlayer, tag_num=0x95)
 99: 0x031E [0x1C] WAIT(80* ticks)
100: 0x0321 [0x27] REQ_SET(priority=0x05, entity_id=LocalPlayer, tag_num=0x9C)
101: 0x0328 [0x1C] WAIT(40* ticks)
102: 0x032B [0x52] END_LOAD_SCHEDULER: End scheduler "s031" with entities [EventEntity, EventEntity], work=628*
103: 0x033A [0x45] LOAD_SCHEDULED_TASK: Load scheduler "s032" with entities [EventEntity, EventEntity], work=[628*, 0*]
104: 0x034B [0x1D] PRINT_EVENT_MESSAGE(message_id=15378*)
     "How will I ever be able to show my beautiful yet shamed face to my superiors again?"
105: 0x034E [0x23] WAIT_FOR_DIALOG_INTERACTION
106: 0x034F [0x29] REQ_SET_WAIT(priority=0x05, entity_id=??? (ID: 17719639/0x010E6157), tag_num=0x03)
107: 0x0356 [0x6C] FADE_ENTITY_COLOR(entity_id=??? (ID: 17719639/0x010E6157), end_alpha=0*, fade_time=1*)
108: 0x035F [0x52] END_LOAD_SCHEDULER: End scheduler "s032" with entities [EventEntity, EventEntity], work=628*
109: 0x036E [0x45] LOAD_SCHEDULED_TASK: Load scheduler "s033" with entities [EventEntity, EventEntity], work=[628*, 0*]
110: 0x037F [0x66] LOAD_EXT_SCHEDULER_MAIN: Load scheduler "tlk0" with entities [Rolandienne (ID: 17719638/0x010E6156), Rolandienne (ID: 17719638/0x010E6156)], work=39*
111: 0x038E [0x1C] WAIT(20* ticks)
112: 0x0391 [0x1D] PRINT_EVENT_MESSAGE(message_id=15379*)
     "Oh my, what a stunning coincidence! I had long given up on the hope of bumping into someone who satisfied that tall list of requirements!"
113: 0x0394 [0x23] WAIT_FOR_DIALOG_INTERACTION
114: 0x0395 [0x1D] PRINT_EVENT_MESSAGE(message_id=15380*)
     "You would not happen to be knowledgeable about the subject of "Records of Eminence," would you?"
115: 0x0398 [0x23] WAIT_FOR_DIALOG_INTERACTION
116: 0x0399 [0x66] LOAD_EXT_SCHEDULER_MAIN: Load scheduler "tlk1" with entities [Rolandienne (ID: 17719638/0x010E6156), Rolandienne (ID: 17719638/0x010E6156)], work=39*
117: 0x03A8 [0x52] END_LOAD_SCHEDULER: End scheduler "s033" with entities [EventEntity, EventEntity], work=628*
118: 0x03B7 [0x02] IF !(LocalPlayer->Race == 5*) GOTO 0x03D3
119: 0x03BF [0x45] LOAD_SCHEDULED_TASK: Load scheduler "s035" with entities [EventEntity, EventEntity], work=[628*, 0*]
120: 0x03D0 [0x01] GOTO 0x0400
121: 0x03D3 [0x02] IF !(LocalPlayer->Race == 6*) GOTO 0x03EF
122: 0x03DB [0x45] LOAD_SCHEDULED_TASK: Load scheduler "s035" with entities [EventEntity, EventEntity], work=[628*, 0*]
123: 0x03EC [0x01] GOTO 0x0400
124: 0x03EF [0x45] LOAD_SCHEDULED_TASK: Load scheduler "s034" with entities [EventEntity, EventEntity], work=[628*, 0*]

SUBROUTINE_0400:
125: 0x0400 [0x24] CREATE_DIALOG(message_id=15381*, default_option=0*, option_flags=0*)
     "Well, are you? [Of course./Nope.]"
126: 0x0407 [0x25] WAIT_DIALOG_SELECT()
127: 0x0408 [0x02] IF !(Work_Zone[0] == 0*) GOTO 0x046E
128: 0x0410 [0x52] END_LOAD_SCHEDULER: End scheduler "s034" with entities [EventEntity, EventEntity], work=628*
129: 0x041F [0x52] END_LOAD_SCHEDULER: End scheduler "s035" with entities [EventEntity, EventEntity], work=628*
130: 0x042E [0x45] LOAD_SCHEDULED_TASK: Load scheduler "s036" with entities [EventEntity, EventEntity], work=[628*, 0*]
131: 0x043F [0x6E] EventEntity uses emote 7*
132: 0x0446 [0x99] Wait for EventEntity animation to complete
133: 0x044B [0x1D] PRINT_EVENT_MESSAGE(message_id=15382*)
     "Splendid! Then you have saved both me from losing any more of my time and you from a long-winded explanation!"
134: 0x044E [0x23] WAIT_FOR_DIALOG_INTERACTION
135: 0x044F [0x1D] PRINT_EVENT_MESSAGE(message_id=15386*)
     "As you know, you have cleared this first objective with flying colors."
136: 0x0452 [0x23] WAIT_FOR_DIALOG_INTERACTION
137: 0x0453 [0x4A] EventEntity looks at ??? (ID: 17719639/0x010E6157)
138: 0x045C [0x52] END_LOAD_SCHEDULER: End scheduler "s036" with entities [EventEntity, EventEntity], work=628*
139: 0x046B [0x01] GOTO 0x052A
140: 0x046E [0x02] IF !(Work_Zone[0] == 1*) GOTO 0x052A
141: 0x0476 [0x52] END_LOAD_SCHEDULER: End scheduler "s034" with entities [EventEntity, EventEntity], work=628*
142: 0x0485 [0x52] END_LOAD_SCHEDULER: End scheduler "s035" with entities [EventEntity, EventEntity], work=628*
143: 0x0494 [0x45] LOAD_SCHEDULED_TASK: Load scheduler "s036" with entities [EventEntity, EventEntity], work=[628*, 0*]
144: 0x04A5 [0x6E] EventEntity uses emote 6*
145: 0x04AC [0x99] Wait for EventEntity animation to complete
146: 0x04B1 [0x1D] PRINT_EVENT_MESSAGE(message_id=15383*)
     "Completely understandable. I myself had not heard of the system until I was charged with disseminating information on it to the masses."
147: 0x04B4 [0x23] WAIT_FOR_DIALOG_INTERACTION
148: 0x04B5 [0x52] END_LOAD_SCHEDULER: End scheduler "s036" with entities [EventEntity, EventEntity], work=628*
149: 0x04C4 [0x45] LOAD_SCHEDULED_TASK: Load scheduler "s037" with entities [EventEntity, EventEntity], work=[628*, 0*]
150: 0x04D5 [0x66] LOAD_EXT_SCHEDULER_MAIN: Load scheduler "tlk0" with entities [Rolandienne (ID: 17719638/0x010E6156), Rolandienne (ID: 17719638/0x010E6156)], work=39*
151: 0x04E4 [0x1C] WAIT(20* ticks)
152: 0x04E7 [0x1D] PRINT_EVENT_MESSAGE(message_id=15384*)
     "Interestingly enough, this conversation is undeniable proof that you have already begun to participate in Records of Eminence."
153: 0x04EA [0x23] WAIT_FOR_DIALOG_INTERACTION
154: 0x04EB [0x1D] PRINT_EVENT_MESSAGE(message_id=15385*)
     "As you will see in this mandate--um, manual--it says "set the first objective from the 'Objective List'" and everything."
155: 0x04EE [0x23] WAIT_FOR_DIALOG_INTERACTION
156: 0x04EF [0x66] LOAD_EXT_SCHEDULER_MAIN: Load scheduler "tlk1" with entities [Rolandienne (ID: 17719638/0x010E6156), Rolandienne (ID: 17719638/0x010E6156)], work=39*
157: 0x04FE [0x53] WAIT_SCHEDULER_TASK: Wait for scheduler "tlk1" with entities [Rolandienne (ID: 17719638/0x010E6156), Rolandienne (ID: 17719638/0x010E6156)]
158: 0x050B [0x1D] PRINT_EVENT_MESSAGE(message_id=15386*)
     "As you know, you have cleared this first objective with flying colors."
159: 0x050E [0x23] WAIT_FOR_DIALOG_INTERACTION
160: 0x050F [0x4A] EventEntity looks at ??? (ID: 17719639/0x010E6157)
161: 0x0518 [0x52] END_LOAD_SCHEDULER: End scheduler "s037" with entities [EventEntity, EventEntity], work=628*
162: 0x0527 [0x01] GOTO 0x052A

SUBROUTINE_052A:
163: 0x052A [0x45] LOAD_SCHEDULED_TASK: Load scheduler "s038" with entities [EventEntity, EventEntity], work=[628*, 0*]
164: 0x053B [0x6F] WAIT_FRAME_DELAY: Yield until WaitTime reaches zero
165: 0x053C [0x76] CHECK_ENTITY_RENDER_FLAGS: Wait until EventEntity Render.Flags0 and Render.Flags3 conditions are met
166: 0x0541 [0x7B] EventEntity stops talking
167: 0x0546 [0x6E] Rolandienne (ID: 17719638/0x010E6156) uses emote 14*
168: 0x054D [0x99] Wait for Rolandienne (ID: 17719638/0x010E6156) animation to complete
169: 0x0552 [0x03] Work_Zone[2] = 2466*
170: 0x0557 [0x1D] PRINT_EVENT_MESSAGE(message_id=15387*)
     "In honor of your accomplishment, I would like to present you with $6!"
171: 0x055A [0x6C] FADE_ENTITY_COLOR(entity_id=??? (ID: 17719639/0x010E6157), end_alpha=128*, fade_time=60*)
172: 0x0563 [0x23] WAIT_FOR_DIALOG_INTERACTION
173: 0x0564 [0x1C] WAIT(60* ticks)
174: 0x0567 [0x4A] LocalPlayer looks at ??? (ID: 17719639/0x010E6157)
175: 0x0570 [0x1C] WAIT(30* ticks)
176: 0x0573 [0x6E] LocalPlayer uses emote 21*
177: 0x057A [0x99] Wait for LocalPlayer animation to complete
178: 0x057F [0x1C] WAIT(80* ticks)
179: 0x0582 [0x6B] STOP_AND_IDLE: Rolandienne (ID: 17719638/0x010E6156) stops current action and resets to idle (animation="idl0")
180: 0x058B [0x4A] EventEntity looks at LocalPlayer
181: 0x0594 [0x52] END_LOAD_SCHEDULER: End scheduler "s038" with entities [EventEntity, EventEntity], work=628*
182: 0x05A3 [0x45] LOAD_SCHEDULED_TASK: Load scheduler "s039" with entities [EventEntity, EventEntity], work=[628*, 0*]
183: 0x05B4 [0x6F] WAIT_FRAME_DELAY: Yield until WaitTime reaches zero
184: 0x05B5 [0x76] CHECK_ENTITY_RENDER_FLAGS: Wait until EventEntity Render.Flags0 and Render.Flags3 conditions are met
185: 0x05BA [0x1C] WAIT(20* ticks)
186: 0x05BD [0x66] LOAD_EXT_SCHEDULER_MAIN: Load scheduler "tlk0" with entities [Rolandienne (ID: 17719638/0x010E6156), Rolandienne (ID: 17719638/0x010E6156)], work=39*
187: 0x05CC [0x1C] WAIT(20* ticks)
188: 0x05CF [0x1D] PRINT_EVENT_MESSAGE(message_id=15388*)
     "It slinks up from nowhere like an assassin, and it stares with such creepy intensity that you cannot help but...uh...think how adorable it is. <Whisper> Do you think it's listening!?"
189: 0x05D2 [0x23] WAIT_FOR_DIALOG_INTERACTION
190: 0x05D3 [0x1D] PRINT_EVENT_MESSAGE(message_id=15389*)
     "Each time you clear an objective, the details are recorded within the frame of this eerie doll. On a brighter note, you also receive a quantified measure of your eminence, termed "sparks.""
191: 0x05D6 [0x23] WAIT_FOR_DIALOG_INTERACTION
192: 0x05D7 [0x66] LOAD_EXT_SCHEDULER_MAIN: Load scheduler "tlk1" with entities [Rolandienne (ID: 17719638/0x010E6156), Rolandienne (ID: 17719638/0x010E6156)], work=39*
193: 0x05E6 [0x53] WAIT_SCHEDULER_TASK: Wait for scheduler "tlk1" with entities [Rolandienne (ID: 17719638/0x010E6156), Rolandienne (ID: 17719638/0x010E6156)]
194: 0x05F3 [0x52] END_LOAD_SCHEDULER: End scheduler "s039" with entities [EventEntity, EventEntity], work=628*
195: 0x0602 [0x02] IF !(LocalPlayer->Race == 5*) GOTO 0x061E
196: 0x060A [0x45] LOAD_SCHEDULED_TASK: Load scheduler "s041" with entities [EventEntity, EventEntity], work=[628*, 0*]
197: 0x061B [0x01] GOTO 0x064B
198: 0x061E [0x02] IF !(LocalPlayer->Race == 6*) GOTO 0x063A
199: 0x0626 [0x45] LOAD_SCHEDULED_TASK: Load scheduler "s041" with entities [EventEntity, EventEntity], work=[628*, 0*]
200: 0x0637 [0x01] GOTO 0x064B
201: 0x063A [0x45] LOAD_SCHEDULED_TASK: Load scheduler "s040" with entities [EventEntity, EventEntity], work=[628*, 0*]

SUBROUTINE_064B:
202: 0x064B [0x27] REQ_SET(priority=0x05, entity_id=LocalPlayer, tag_num=0x97)
203: 0x0652 [0x1C] WAIT(90* ticks)
204: 0x0655 [0x7B] EventEntity stops talking
205: 0x065A [0x66] LOAD_EXT_SCHEDULER_MAIN: Load scheduler "thk1" with entities [Rolandienne (ID: 17719638/0x010E6156), Rolandienne (ID: 17719638/0x010E6156)], work=39*
206: 0x0669 [0x1D] PRINT_EVENT_MESSAGE(message_id=15390*)
     "Oh, of course. I as well cannot stand how that doll stares daggers into the depths of my soul."
207: 0x066C [0x23] WAIT_FOR_DIALOG_INTERACTION
208: 0x066D [0x52] END_LOAD_SCHEDULER: End scheduler "s040" with entities [EventEntity, EventEntity], work=628*
209: 0x067C [0x52] END_LOAD_SCHEDULER: End scheduler "s041" with entities [EventEntity, EventEntity], work=628*
210: 0x068B [0x45] LOAD_SCHEDULED_TASK: Load scheduler "s042" with entities [EventEntity, EventEntity], work=[628*, 0*]
211: 0x069C [0x66] LOAD_EXT_SCHEDULER_MAIN: Load scheduler "thk2" with entities [Rolandienne (ID: 17719638/0x010E6156), Rolandienne (ID: 17719638/0x010E6156)], work=39*
212: 0x06AB [0x79] EventEntity looks at LocalPlayer (Basic look)
213: 0x06B5 [0x27] REQ_SET(priority=0x05, entity_id=LocalPlayer, tag_num=0x98)
214: 0x06BC [0x1D] PRINT_EVENT_MESSAGE(message_id=15391*)
     "At least its inventor was magnanimous enough to bestow it with this special function!"
215: 0x06BF [0x23] WAIT_FOR_DIALOG_INTERACTION
216: 0x06C0 [0x6E] Rolandienne (ID: 17719638/0x010E6156) uses emote 14*
217: 0x06C7 [0x99] Wait for Rolandienne (ID: 17719638/0x010E6156) animation to complete
218: 0x06CC [0x1C] WAIT(90* ticks)
219: 0x06CF [0x52] END_LOAD_SCHEDULER: End scheduler "s042" with entities [EventEntity, EventEntity], work=628*
220: 0x06DE [0x45] LOAD_SCHEDULED_TASK: Load scheduler "s043" with entities [EventEntity, EventEntity], work=[628*, 0*]
221: 0x06EF [0x1C] WAIT(30* ticks)
222: 0x06F2 [0xBB] LOAD_EVENT_SCHEDULER_ALT: Load scheduler "trg0" with entities [??? (ID: 17719639/0x010E6157), ??? (ID: 17719639/0x010E6157)], work=[10*, 0*]
223: 0x0703 [0x1C] WAIT(120* ticks)
224: 0x0706 [0x52] END_LOAD_SCHEDULER: End scheduler "s043" with entities [EventEntity, EventEntity], work=628*
225: 0x0715 [0x45] LOAD_SCHEDULED_TASK: Load scheduler "s044" with entities [EventEntity, EventEntity], work=[628*, 0*]
226: 0x0726 [0x66] LOAD_EXT_SCHEDULER_MAIN: Load scheduler "tlk0" with entities [Rolandienne (ID: 17719638/0x010E6156), Rolandienne (ID: 17719638/0x010E6156)], work=39*
227: 0x0735 [0x1C] WAIT(20* ticks)
228: 0x0738 [0x4A] LocalPlayer looks at EventEntity
229: 0x0741 [0x1D] PRINT_EVENT_MESSAGE(message_id=15392*)
     "Amazing, is it not? I hear it is all attributable to an "astral patina." Sadly, I do not understand much more about it than that."
230: 0x0744 [0x23] WAIT_FOR_DIALOG_INTERACTION
231: 0x0745 [0x1D] PRINT_EVENT_MESSAGE(message_id=15393*)
     "What I do know is that your recipe for success is to set your objectives periodically. That way you can complete them while on your adventures and garner as many sparks as possible!"
232: 0x0748 [0x23] WAIT_FOR_DIALOG_INTERACTION
233: 0x0749 [0x52] END_LOAD_SCHEDULER: End scheduler "s044" with entities [EventEntity, EventEntity], work=628*
234: 0x0758 [0x45] LOAD_SCHEDULED_TASK: Load scheduler "s045" with entities [EventEntity, EventEntity], work=[628*, 0*]
235: 0x0769 [0x1D] PRINT_EVENT_MESSAGE(message_id=15394*)
     "Moreover, some objectives only appear after you complete a certain amount of others. There is always a chance you will be surprised when you check!"
236: 0x076C [0x23] WAIT_FOR_DIALOG_INTERACTION
237: 0x076D [0x1D] PRINT_EVENT_MESSAGE(message_id=15395*)
     "In the event you have forgotten how to set objectives, go to the "Objective List" under the "Records of Eminence" section of the Quests menu. From there you simply pick those most suited to your current undertakings."
238: 0x0770 [0x23] WAIT_FOR_DIALOG_INTERACTION
239: 0x0771 [0x52] END_LOAD_SCHEDULER: End scheduler "s045" with entities [EventEntity, EventEntity], work=628*
240: 0x0780 [0x45] LOAD_SCHEDULED_TASK: Load scheduler "s046" with entities [EventEntity, EventEntity], work=[628*, 0*]
241: 0x0791 [0x1D] PRINT_EVENT_MESSAGE(message_id=15396*)
     "I suggest partaking in a variety of objectives, including the ones that may be repeated."
242: 0x0794 [0x23] WAIT_FOR_DIALOG_INTERACTION
243: 0x0795 [0x1D] PRINT_EVENT_MESSAGE(message_id=15397*)
     "Then, when you accrue a sufficient amount of eminence, come to me or one of my friends. We have many a reward stockpiled and ready to enter your veteran hands."
244: 0x0798 [0x23] WAIT_FOR_DIALOG_INTERACTION
245: 0x0799 [0x66] LOAD_EXT_SCHEDULER_MAIN: Load scheduler "tlk1" with entities [Rolandienne (ID: 17719638/0x010E6156), Rolandienne (ID: 17719638/0x010E6156)], work=39*
246: 0x07A8 [0x53] WAIT_SCHEDULER_TASK: Wait for scheduler "tlk1" with entities [Rolandienne (ID: 17719638/0x010E6156), Rolandienne (ID: 17719638/0x010E6156)]
247: 0x07B5 [0x1C] WAIT(30* ticks)
248: 0x07B8 [0x52] END_LOAD_SCHEDULER: End scheduler "s046" with entities [EventEntity, EventEntity], work=628*
249: 0x07C7 [0x45] LOAD_SCHEDULED_TASK: Load scheduler "s047" with entities [EventEntity, EventEntity], work=[628*, 0*]
250: 0x07D8 [0x6E] EventEntity uses emote 36*
251: 0x07DF [0x99] Wait for EventEntity animation to complete
252: 0x07E4 [0x1C] WAIT(60* ticks)
253: 0x07E7 [0x1D] PRINT_EVENT_MESSAGE(message_id=15398*)
     "In summation, with benefits more inflated than even the Royal Guard's sense of self-worth and absolutely no downside, why would you not give this a shot?"
254: 0x07EA [0x23] WAIT_FOR_DIALOG_INTERACTION
255: 0x07EB [0x1C] WAIT(20* ticks)
256: 0x07EE [0x52] END_LOAD_SCHEDULER: End scheduler "s047" with entities [EventEntity, EventEntity], work=628*
257: 0x07FD [0x02] IF !(ExtData[1]->WorkLocal[1] == 1*) GOTO 0x088B
258: 0x0805 [0x45] LOAD_SCHEDULED_TASK: Load scheduler "s048" with entities [EventEntity, EventEntity], work=[628*, 0*]
259: 0x0816 [0x1D] PRINT_EVENT_MESSAGE(message_id=15399*)
     "...Hmmm. Upon further inspection, you do not seem to be as reliable as I first thought. Please consult with Alaune to learn the ins and outs of adventuring before approaching me again."
260: 0x0819 [0x1C] WAIT(60* ticks)
261: 0x081C [0x1E] EventEntity looks at Alaune (ID: 17719618/0x010E6142) and starts talking
262: 0x0821 [0x4A] LocalPlayer looks at Alaune (ID: 17719618/0x010E6142)
263: 0x082A [0x52] END_LOAD_SCHEDULER: End scheduler "s048" with entities [EventEntity, EventEntity], work=628*
264: 0x0839 [0x45] LOAD_SCHEDULED_TASK: Load scheduler "s007" with entities [EventEntity, EventEntity], work=[616*, 0*]
265: 0x084A [0x1C] WAIT(20* ticks)
266: 0x084D [0x6E] Alaune (ID: 17719618/0x010E6142) uses emote 8*
267: 0x0854 [0x99] Wait for Alaune (ID: 17719618/0x010E6142) animation to complete
268: 0x0859 [0x1C] WAIT(90* ticks)
269: 0x085C [0x23] WAIT_FOR_DIALOG_INTERACTION
270: 0x085D [0x1C] WAIT(30* ticks)
271: 0x0860 [0x52] END_LOAD_SCHEDULER: End scheduler "s007" with entities [EventEntity, EventEntity], work=616*
272: 0x086F [0x45] LOAD_SCHEDULED_TASK: Load scheduler "s049" with entities [EventEntity, EventEntity], work=[628*, 0*]
273: 0x0880 [0x1E] EventEntity looks at LocalPlayer and starts talking
274: 0x0885 [0x1C] WAIT(30* ticks)
275: 0x0888 [0x01] GOTO 0x089C
276: 0x088B [0x45] LOAD_SCHEDULED_TASK: Load scheduler "s049" with entities [EventEntity, EventEntity], work=[628*, 0*]

SUBROUTINE_089C:
277: 0x089C [0x66] LOAD_EXT_SCHEDULER_MAIN: Load scheduler "tlk0" with entities [Rolandienne (ID: 17719638/0x010E6156), Rolandienne (ID: 17719638/0x010E6156)], work=39*
278: 0x08AB [0x1C] WAIT(30* ticks)
279: 0x08AE [0x4A] LocalPlayer looks at EventEntity
280: 0x08B7 [0x03] Work_Zone[2] = 2466*
281: 0x08BC [0x1D] PRINT_EVENT_MESSAGE(message_id=15400*)
     "Oh, and as that $3 has irrevocably bonded to you, there is no need to return it. All we can do with it is throw it to the wendigos if you don't keep it."
282: 0x08BF [0x23] WAIT_FOR_DIALOG_INTERACTION
283: 0x08C0 [0x66] LOAD_EXT_SCHEDULER_MAIN: Load scheduler "tlk1" with entities [Rolandienne (ID: 17719638/0x010E6156), Rolandienne (ID: 17719638/0x010E6156)], work=39*
284: 0x08CF [0x53] WAIT_SCHEDULER_TASK: Wait for scheduler "tlk1" with entities [Rolandienne (ID: 17719638/0x010E6156), Rolandienne (ID: 17719638/0x010E6156)]
285: 0x08DC [0x6B] STOP_AND_IDLE: LocalPlayer stops current action and resets to idle (animation="idl0")
286: 0x08E5 [0x1C] WAIT(60* ticks)
287: 0x08E8 [0x52] END_LOAD_SCHEDULER: End scheduler "s049" with entities [EventEntity, EventEntity], work=628*
288: 0x08F7 [0x02] IF !(LocalPlayer->Race == 3*) GOTO 0x0913
289: 0x08FF [0x45] LOAD_SCHEDULED_TASK: Load scheduler "s004" with entities [EventEntity, EventEntity], work=[616*, 0*]
290: 0x0910 [0x01] GOTO 0x0994
291: 0x0913 [0x02] IF !(LocalPlayer->Race == 4*) GOTO 0x092F
292: 0x091B [0x45] LOAD_SCHEDULED_TASK: Load scheduler "s004" with entities [EventEntity, EventEntity], work=[616*, 0*]
293: 0x092C [0x01] GOTO 0x0994
294: 0x092F [0x02] IF !(LocalPlayer->Race == 5*) GOTO 0x094B
295: 0x0937 [0x45] LOAD_SCHEDULED_TASK: Load scheduler "s005" with entities [EventEntity, EventEntity], work=[616*, 0*]
296: 0x0948 [0x01] GOTO 0x0994
297: 0x094B [0x02] IF !(LocalPlayer->Race == 6*) GOTO 0x0967
298: 0x0953 [0x45] LOAD_SCHEDULED_TASK: Load scheduler "s005" with entities [EventEntity, EventEntity], work=[616*, 0*]
299: 0x0964 [0x01] GOTO 0x0994
300: 0x0967 [0x02] IF !(LocalPlayer->Race == 8*) GOTO 0x0983
301: 0x096F [0x45] LOAD_SCHEDULED_TASK: Load scheduler "s004" with entities [EventEntity, EventEntity], work=[616*, 0*]
302: 0x0980 [0x01] GOTO 0x0994
303: 0x0983 [0x45] LOAD_SCHEDULED_TASK: Load scheduler "s050" with entities [EventEntity, EventEntity], work=[628*, 0*]

SUBROUTINE_0994:
304: 0x0994 [0x1C] WAIT(90* ticks)
305: 0x0997 [0x48] [System] [15406*]:
     "Invisible eyes upon you cause the hairs on the back of your neck to rise."
306: 0x099A [0x23] WAIT_FOR_DIALOG_INTERACTION
307: 0x099B [0x1C] WAIT(30* ticks)
308: 0x099E [0x52] END_LOAD_SCHEDULER: End scheduler "s050" with entities [EventEntity, EventEntity], work=628*
309: 0x09AD [0x52] END_LOAD_SCHEDULER: End scheduler "s004" with entities [EventEntity, EventEntity], work=616*
310: 0x09BC [0x52] END_LOAD_SCHEDULER: End scheduler "s004" with entities [EventEntity, EventEntity], work=616*
311: 0x09CB [0x45] LOAD_SCHEDULED_TASK: Load scheduler "s051" with entities [EventEntity, EventEntity], work=[628*, 0*]
312: 0x09DC [0x6E] LocalPlayer uses emote 14*
313: 0x09E3 [0x99] Wait for LocalPlayer animation to complete
314: 0x09E8 [0x1C] WAIT(60* ticks)
315: 0x09EB [0x6C] FADE_ENTITY_COLOR(entity_id=??? (ID: 17719639/0x010E6157), end_alpha=128*, fade_time=60*)
316: 0x09F4 [0x1C] WAIT(60* ticks)
317: 0x09F7 [0x4A] LocalPlayer looks at ??? (ID: 17719639/0x010E6157)
318: 0x0A00 [0x6F] WAIT_FRAME_DELAY: Yield until WaitTime reaches zero
319: 0x0A01 [0x76] CHECK_ENTITY_RENDER_FLAGS: Wait until LocalPlayer Render.Flags0 and Render.Flags3 conditions are met
320: 0x0A06 [0x1C] WAIT(15* ticks)
321: 0x0A09 [0x6E] LocalPlayer uses emote 21*
322: 0x0A10 [0x99] Wait for LocalPlayer animation to complete
323: 0x0A15 [0x1C] WAIT(100* ticks)
324: 0x0A18 [0x5B] LOAD_EXT_SCHEDULER: Load scheduler "bru0" with entities [??? (ID: 17719639/0x010E6157), ??? (ID: 17719639/0x010E6157)], work=252*
325: 0x0A27 [0x03] Work_Zone[2] = 2466*
326: 0x0A2C [0x48] [System] [15407*]:
     "The $3 nods in agreement."
327: 0x0A2F [0x1C] WAIT(120* ticks)
328: 0x0A32 [0x6B] STOP_AND_IDLE: ??? (ID: 17719639/0x010E6157) stops current action and resets to idle (animation="idl0")
329: 0x0A3B [0x1C] WAIT(60* ticks)
330: 0x0A3E [0x52] END_LOAD_SCHEDULER: End scheduler "s051" with entities [EventEntity, EventEntity], work=628*
331: 0x0A4D [0x45] LOAD_SCHEDULED_TASK: Load scheduler "s006" with entities [EventEntity, EventEntity], work=[616*, 0*]
332: 0x0A5E [0x6E] LocalPlayer uses emote 14*
333: 0x0A65 [0x99] Wait for LocalPlayer animation to complete
334: 0x0A6A [0x1C] WAIT(60* ticks)
335: 0x0A6D [0xBB] LOAD_EVENT_SCHEDULER_ALT: Load scheduler "trg0" with entities [??? (ID: 17719639/0x010E6157), ??? (ID: 17719639/0x010E6157)], work=[10*, 0*]
336: 0x0A7E [0x1C] WAIT(90* ticks)
337: 0x0A81 [0x6E] LocalPlayer uses emote 7*
338: 0x0A88 [0x99] Wait for LocalPlayer animation to complete
339: 0x0A8D [0x1C] WAIT(60* ticks)
340: 0x0A90 [0x27] REQ_SET(priority=0x05, entity_id=LocalPlayer, tag_num=0x9D)
341: 0x0A97 [0xBA] SET_ENTITY_POSITION(entity_id=??? (ID: 17719639/0x010E6157), pos_x=-82.685*, pos_z=-48.510*, pos_y=1.199*, direction=209.6*)
342: 0x0AA4 [0x4A] ??? (ID: 17719639/0x010E6157) looks at LocalPlayer
343: 0x0AAD [0x6F] WAIT_FRAME_DELAY: Yield until WaitTime reaches zero
344: 0x0AAE [0x76] CHECK_ENTITY_RENDER_FLAGS: Wait until ??? (ID: 17719639/0x010E6157) Render.Flags0 and Render.Flags3 conditions are met
345: 0x0AB3 [0x6E] EventEntity uses emote 14*
346: 0x0ABA [0x99] Wait for EventEntity animation to complete
347: 0x0ABF [0x1C] WAIT(60* ticks)
348: 0x0AC2 [0x6C] FADE_ENTITY_COLOR(entity_id=??? (ID: 17719639/0x010E6157), end_alpha=128*, fade_time=60*)
349: 0x0ACB [0x1C] WAIT(20* ticks)
350: 0x0ACE [0x27] REQ_SET(priority=0x05, entity_id=??? (ID: 17719639/0x010E6157), tag_num=0x04)
351: 0x0AD5 [0x1C] WAIT(75* ticks)
352: 0x0AD8 [0x05] Work_Zone[1] = 1

SUBROUTINE_0ADB:
353: 0x0ADB [0x1A] CALL_SUBROUTINE(address=0x2D55)
354: 0x0ADE [0x1C] WAIT(30* ticks)
355: 0x0AE1 [0x52] END_LOAD_SCHEDULER: End scheduler "s006" with entities [EventEntity, EventEntity], work=616*
356: 0x0AF0 [0x5C] MUSIC_CONTROL: Set Idle (Day) music to song 107*
357: 0x0AF4 [0x5C] MUSIC_CONTROL: Set Idle (Night) music to song 107*
358: 0x0AF8 [0x9A] WAIT_MUSIC_SERVER()
359: 0x0AF9 [0x1C] WAIT(15* ticks)
360: 0x0AFC [0xAB] EventEntity->DespawnValue = 0* // Set despawn value
361: 0x0B00 [0x1C] WAIT(1* ticks)
362: 0x0B03 [0x46] CAMERA_CONTROL: Restore default settings
363: 0x0B05 [0x02] IF !(Work_Zone[1] == 1*) GOTO 0x0B1E
364: 0x0B0D [0x45] LOAD_SCHEDULED_TASK: Load scheduler "qstc" with entities [EventEntity, EventEntity], work=[201*, 0*]
365: 0x0B1E [0x45] LOAD_SCHEDULED_TASK: Load scheduler "fdi2" with entities [LocalPlayer, LocalPlayer], work=[200*, 0*]
366: 0x0B2F [0x21] END_EVENT
367: 0x0B30 [0x00] END_REQSTACK()
```

#### Data or dead code:

```
# Dead code (unreachable instructions):
     0x01FD [0x01] GOTO 0x0291
# Dead code (unreachable instructions):
     0x0291 [0x01] GOTO 0x02CA
     0x02C7 [0x01] GOTO 0x02CA
```

### Event 994

#### Metadata

| Field        | Value    |
|--------------|----------|
| Entrypoint   | 0x0B31   |
| Data Size    | 49 bytes |
| Instructions | 13       |

```
      00 01 02 03 04 05 06 07  08 09 0A 0B 0C 0D 0E 0F
      -- -- -- -- -- -- -- --  -- -- -- -- -- -- -- --
0B30:    4A F0 FF FF 7F F8 FF  FF 7F 4A F8 FF FF 7F F0   J........J.....
0B40: FF FF 7F 6F 76 F8 FF FF  7F 6E F8 FF FF 7F 1A 80  ...ov....n......
0B50: 99 F8 FF FF 7F 1D 55 80  23 1C 16 80 1D 56 80 23  ......U.#....V.#
0B60: 21 00                                             !.              
```

#### Opcodes

```
  0: 0x0B31 [0x4A] LocalPlayer looks at EventEntity
  1: 0x0B3A [0x4A] EventEntity looks at LocalPlayer
  2: 0x0B43 [0x6F] WAIT_FRAME_DELAY: Yield until WaitTime reaches zero
  3: 0x0B44 [0x76] CHECK_ENTITY_RENDER_FLAGS: Wait until EventEntity Render.Flags0 and Render.Flags3 conditions are met
  4: 0x0B49 [0x6E] EventEntity uses emote 35*
  5: 0x0B50 [0x99] Wait for EventEntity animation to complete
  6: 0x0B55 [0x1D] PRINT_EVENT_MESSAGE(message_id=15375*)
     "I had no idea just how unprepared most adventurers in these parts are..."
  7: 0x0B58 [0x23] WAIT_FOR_DIALOG_INTERACTION
  8: 0x0B59 [0x1C] WAIT(60* ticks)
  9: 0x0B5C [0x1D] PRINT_EVENT_MESSAGE(message_id=15376*)
     "My superior told me to "meet an adventurer who has set the first objective from the 'Objective List' under the 'Records of Eminence' section of the Quests menu," but I feel I will wither and die before that ever happens. What the heck is a "quest menu," anyway?"
 10: 0x0B5F [0x23] WAIT_FOR_DIALOG_INTERACTION
 11: 0x0B60 [0x21] END_EVENT
 12: 0x0B61 [0x00] END_REQSTACK()
```

### Event 995

#### Metadata

| Field        | Value      |
|--------------|------------|
| Entrypoint   | 0x0B62     |
| Data Size    | 8499 bytes |
| Instructions | 1078       |

```
      00 01 02 03 04 05 06 07  08 09 0A 0B 0C 0D 0E 0F
      -- -- -- -- -- -- -- --  -- -- -- -- -- -- -- --
0B60:       03 03 00 02 10 03  04 00 03 10 03 05 00 04    ..............
0B70: 10 03 06 00 05 10 03 20  00 06 10 03 21 00 07 10  ....... ....!...
0B80: 4A F0 FF FF 7F F8 FF FF  7F 4A F8 FF FF 7F F0 FF  J........J......
0B90: FF 7F 02 03 00 57 80 80  A0 0B 1D 58 80 01 CA 0B  .....W.....X....
0BA0: 02 03 00 59 80 80 AE 0B  1D 5A 80 01 CA 0B 02 03  ...Y.....Z......
0BB0: 00 5B 80 80 BC 0B 1D 5C  80 01 CA 0B 02 03 00 5D  .[.....\.......]
0BC0: 80 80 CA 0B 1D 5E 80 01  CA 0B 06 1B 00 03 07 00  .....^..........
0BD0: 18 80 02 07 00 0E 80 02  56 0F 03 02 10 04 00 03  ........V.......
0BE0: 08 00 5F 80 02 06 00 0E  80 00 F1 0B 03 08 00 60  .._............`
0BF0: 80 3E 20 00 20 80 FF 0B  3D 08 00 61 80 18 80 3E  .> . ...=..a...>
0C00: 20 00 37 80 0D 0C 3D 08  00 61 80 18 80 3E 20 00   .7...=..a...> .
0C10: 20 80 1B 0C 3D 08 00 61  80 18 80 3E 20 00 37 80   ...=..a...> .7.
0C20: 29 0C 3D 08 00 61 80 18  80 3E 20 00 37 80 37 0C  ).=..a...> .7.7.
0C30: 3D 08 00 61 80 18 80 03  1A 17 21 00 24 62 80 1B  =..a......!.$b..
0C40: 00 08 00 25 02 00 10 0E  80 00 5C 0C 03 1B 00 00  ...%......\.....
0C50: 10 03 18 00 0E 80 1A 78  1A 01 53 0F 02 00 10 18  .......x..S.....
0C60: 80 00 74 0C 03 1B 00 00  10 03 18 00 18 80 1A 78  ..t............x
0C70: 1A 01 53 0F 02 00 10 1F  80 00 8C 0C 03 1B 00 00  ..S.............
0C80: 10 03 18 00 1F 80 1A 78  1A 01 53 0F 02 00 10 15  .......x..S.....
0C90: 80 00 A4 0C 03 1B 00 00  10 03 18 00 15 80 1A 78  ...............x
0CA0: 1A 01 53 0F 02 00 10 19  80 00 BC 0C 03 1B 00 00  ..S.............
0CB0: 10 03 18 00 19 80 1A 78  1A 01 53 0F 02 00 10 1C  .......x..S.....
0CC0: 80 00 D4 0C 03 1B 00 00  10 03 18 00 1C 80 1A 78  ...............x
0CD0: 1A 01 53 0F 02 00 10 1D  80 00 EC 0C 03 1B 00 00  ..S.............
0CE0: 10 03 18 00 1D 80 1A 78  1A 01 53 0F 02 00 10 2D  .......x..S....-
0CF0: 80 00 04 0D 03 1B 00 00  10 03 18 00 2D 80 1A 78  ............-..x
0D00: 1A 01 53 0F 02 00 10 48  80 00 1C 0D 03 1B 00 00  ..S....H........
0D10: 10 03 18 00 48 80 1A 78  1A 01 53 0F 02 00 10 63  ....H..x..S....c
0D20: 80 00 34 0D 03 1B 00 00  10 03 18 00 63 80 1A 78  ..4.........c..x
0D30: 1A 01 53 0F 02 00 10 3C  80 00 44 0D 03 1B 00 00  ..S....<..D.....
0D40: 10 01 53 0F 02 00 10 61  80 00 57 0D 03 1B 00 00  ..S....a..W.....
0D50: 10 1A 8D 20 01 53 0F 02  00 10 64 80 00 6A 0D 03  ... .S....d..j..
0D60: 1B 00 00 10 1A F7 22 01  53 0F 02 00 10 10 80 00  ......".S.......
0D70: 7D 0D 03 1B 00 00 10 1A  EE 2A 01 53 0F 02 00 10  }........*.S....
0D80: 33 80 00 45 0F 03 1B 00  00 10 02 03 00 57 80 80  3..E.........W..
0D90: BA 0D 66 29 80 F8 FF FF  7F F8 FF FF 7F 74 6C 6B  ..f).........tlk
0DA0: 30 1C 0F 80 1D 65 80 23  66 29 80 F8 FF FF 7F F8  0....e.#f)......
0DB0: FF FF 7F 74 6C 6B 31 01  4A 0E 02 03 00 59 80 80  ...tlk1.J....Y..
0DC0: EA 0D 66 63 80 F8 FF FF  7F F8 FF FF 7F 74 6C 6B  ..fc.........tlk
0DD0: 30 1C 0F 80 1D 66 80 23  66 63 80 F8 FF FF 7F F8  0....f.#fc......
0DE0: FF FF 7F 74 6C 6B 31 01  4A 0E 02 03 00 5B 80 80  ...tlk1.J....[..
0DF0: 1A 0E 66 67 80 F8 FF FF  7F F8 FF FF 7F 74 6C 6B  ..fg.........tlk
0E00: 30 1C 0F 80 1D 68 80 23  66 67 80 F8 FF FF 7F F8  0....h.#fg......
0E10: FF FF 7F 74 6C 6B 31 01  4A 0E 02 03 00 5D 80 80  ...tlk1.J....]..
0E20: 4A 0E 66 69 80 F8 FF FF  7F F8 FF FF 7F 74 6C 6B  J.fi.........tlk
0E30: 30 1C 0F 80 1D 6A 80 23  66 69 80 F8 FF FF 7F F8  0....j.#fi......
0E40: FF FF 7F 74 6C 6B 31 01  4A 0E 1C 0F 80 48 6B 80  ...tlk1.J....Hk.
0E50: 23 48 6C 80 23 48 6D 80  23 48 6E 80 23 48 6F 80  #Hl.#Hm.#Hn.#Ho.
0E60: 23 03 02 10 34 80 48 70  80 23 48 71 80 23 02 03  #...4.Hp.#Hq.#..
0E70: 00 57 80 80 A2 0E 66 29  80 F8 FF FF 7F F8 FF FF  .W....f)........
0E80: 7F 74 6C 6B 30 1C 0F 80  1D 72 80 23 1D 73 80 23  .tlk0....r.#.s.#
0E90: 66 29 80 F8 FF FF 7F F8  FF FF 7F 74 6C 6B 31 01  f).........tlk1.
0EA0: 42 0F 02 03 00 59 80 80  D6 0E 66 63 80 F8 FF FF  B....Y....fc....
0EB0: 7F F8 FF FF 7F 74 6C 6B  30 1C 0F 80 1D 74 80 23  .....tlk0....t.#
0EC0: 1D 75 80 23 66 63 80 F8  FF FF 7F F8 FF FF 7F 74  .u.#fc.........t
0ED0: 6C 6B 31 01 42 0F 02 03  00 5B 80 80 0E 0F 66 67  lk1.B....[....fg
0EE0: 80 F8 FF FF 7F F8 FF FF  7F 74 6C 6B 30 1C 0F 80  .........tlk0...
0EF0: 1D 76 80 23 1D 77 80 23  1D 78 80 23 66 67 80 F8  .v.#.w.#.x.#fg..
0F00: FF FF 7F F8 FF FF 7F 74  6C 6B 31 01 42 0F 02 03  .......tlk1.B...
0F10: 00 5D 80 80 42 0F 66 69  80 F8 FF FF 7F F8 FF FF  .]..B.fi........
0F20: 7F 74 6C 6B 30 1C 0F 80  1D 79 80 23 1D 7A 80 23  .tlk0....y.#.z.#
0F30: 66 69 80 F8 FF FF 7F F8  FF FF 7F 74 6C 6B 31 01  fi.........tlk1.
0F40: 42 0F 01 53 0F 02 00 10  4B 80 00 53 0F 0C 07 00  B..S....K..S....
0F50: 01 53 0F 01 D2 0B 21 00  03 10 04 10 05 10 06 10  .S....!.........
0F60: 07 10 08 10 09 10 00 17  01 17 02 17 03 17 04 17  ................
0F70: 05 17 06 17 07 17 08 17  09 17 0A 17 0B 17 0C 17  ................
0F80: 0D 17 0E 17 0F 17 10 17  11 17 12 17 13 17 14 17  ................
0F90: 15 17 16 17 17 17 0E 80  7B 80 7C 80 7D 80 7E 80  ........{.|.}.~.
0FA0: 7F 80 80 80 81 80 82 80  83 80 84 80 85 80 86 80  ................
0FB0: 87 80 88 80 0E 80 0E 80  0E 80 0E 80 0E 80 0E 80  ................
