# 17719817 - Estiliphire

## Common Data

| Field            | Value                         |
|------------------|-------------------------------|
| Zone             | Southern San d'Oria (ID: 230) |
| Block Size       | 2344 bytes                    |
| Total Events     | 2                             |
| References Count | 69                            |

## List of Events

| Event ID              | Entrypoint   |   Size |   Instructions |
|-----------------------|--------------|--------|----------------|
| [65535](#event-65535) | 0x0000       |      1 |              1 |
| [897](#event-897)     | 0x0001       |   2042 |            380 |

## DAT References (imed_data)

|   Index | Hex Value   |   Dec Value |
|---------|-------------|-------------|
|       0 | 0x0000      |           0 |
|       1 | 0x0008      |           8 |
|       2 | 0x3496      |       13462 |
|       3 | 0x0001      |           1 |
|       4 | 0x34A9      |       13481 |
|       5 | 0x0002      |           2 |
|       6 | 0x34AA      |       13482 |
|       7 | 0x3498      |       13464 |
|       8 | 0x3499      |       13465 |
|       9 | 0x34AB      |       13483 |
|      10 | 0x34AC      |       13484 |
|      11 | 0x34AD      |       13485 |
|      12 | 0x34AE      |       13486 |
|      13 | 0x34AF      |       13487 |
|      14 | 0x000A      |          10 |
|      15 | 0x349C      |       13468 |
|      16 | 0x349D      |       13469 |
|      17 | 0x0012      |          18 |
|      18 | 0x0013      |          19 |
|      19 | 0x349E      |       13470 |
|      20 | 0x0003      |           3 |
|      21 | 0x3497      |       13463 |
|      22 | 0x349A      |       13466 |
|      23 | 0x349B      |       13467 |
|      24 | 0x00C8      |         200 |
|      25 | 0x001B      |          27 |
|      26 | 0x000C      |          12 |
|      27 | 0x1B303     |      111363 |
|      28 | 0x14623     |       83491 |
|      29 | 0x052E      |        1326 |
|      30 | 0x1B817     |      112663 |
|      31 | 0x13FAE     |       81838 |
|      32 | 0x0592      |        1426 |
|      33 | 0x1BC44     |      113732 |
|      34 | 0x13D3A     |       81210 |
|      35 | 0x05F6      |        1526 |
|      36 | 0x1C0D5     |      114901 |
|      37 | 0x136AC     |       79532 |
|      38 | 0xFFFFFBB0  |  4294966192 |
|      39 | 0x9FF2      |       40946 |
|      40 | 0xFFFFF831  |  4294965297 |
|      41 | 0x0BE5      |        3045 |
|      42 | 0x0485      |        1157 |
|      43 | 0xA07A      |       41082 |
|      44 | 0x0C4B      |        3147 |
|      45 | 0x6ECA      |       28362 |
|      46 | 0xFFFFE421  |  4294960161 |
|      47 | 0x0835      |        2101 |
|      48 | 0x0BB8      |        3000 |
|      49 | 0x6B71      |       27505 |
|      50 | 0xFFFFE480  |  4294960256 |
|      51 | 0x0C2B      |        3115 |
|      52 | 0x0151      |         337 |
|      53 | 0x000F      |          15 |
|      54 | 0x349F      |       13471 |
|      55 | 0x0004      |           4 |
|      56 | 0x0005      |           5 |
|      57 | 0x0006      |           6 |
|      58 | 0x34A4      |       13476 |
|      59 | 0x0078      |         120 |
|      60 | 0x34A5      |       13477 |
|      61 | 0x34A3      |       13475 |
|      62 | 0x0007      |           7 |
|      63 | 0x34A0      |       13472 |
|      64 | 0x34A1      |       13473 |
|      65 | 0x0009      |           9 |
|      66 | 0x34A2      |       13474 |
|      67 | 0x0011      |          17 |
|      68 | 0x34B2      |       13490 |

## String References

- **13462**: Hi there! Welcome to Spot the Difference!
- **13463**: What would you like to do? [Learn how to play./Check current high score./Have a go!/Nothing.]
- **13464**: As the name suggests, in this game you have to spot the difference. We will show you two people in identical attire, doing the same movements. However, there'll be moments of difference. Your job is to pinpoint such moments.
- **13465**: Be warned! Pinpoint the wrong moment, and it's game over red rover!
- **13466**: To clear the game, you need to pick out at least seven differences within one minute.
- **13467**: Current high score: $0 [spot/spots]. Record holder: %0.
- **13468**: It costs $0 gil to play.
- **13469**: Play the game? (You have $0 gil.) [Play./Don't play.]
- **13470**: Cheers!
- **13471**: Push the button when you spot something! [Now!/Wait.]
- **13472**: [Good job!/Too bad!] You spotted $2 [difference/differences].
- **13473**: It's a new record! Congratulations!
- **13474**: Here's your prize.
- **13475**: Please come again.
- **13476**: Oh no! I'm afraid that's game over!
- **13477**: There wasn't anything different when you pushed the button.
- **13481**: Wow, you sure do look good in that outfit! Why don't you try playing the game in hard mode?
- **13482**: What would you like to do? [Learn how to play./Check current high score./Play normal mode./Try hard mode./Nothing.]
- **13483**: To win in normal mode, you have one minute to spot seven or more differences.
- **13484**: For hard mode, though, you'll need to find nine!
- **13485**: Check high score for which mode? [Normal mode./Hard mode./Don't check.]
- **13486**: Normal mode high score: $0 [spot/spots]. Record holder: %0.
- **13487**: Hard mode high score: $1 [spot/spots]. Record holder: %1.
- **13490**: Just when I thought the day couldn't get any warmer, you come and turn the heat up to sizzling! Here's your hard-earned prize, adventurer. May it always keep you cool.

## Events

### Event 65535

#### Metadata

| Field        | Value   |
|--------------|---------|
| Entrypoint   | 0x0000  |
| Data Size    | 1 bytes |
| Instructions | 1       |

```
      00 01 02 03 04 05 06 07  08 09 0A 0B 0C 0D 0E 0F
      -- -- -- -- -- -- -- --  -- -- -- -- -- -- -- --
0000: 00                                                .               
```

#### Opcodes

```
  0: 0x0000 [0x00] END_REQSTACK()
```

### Event 897

#### Metadata

| Field        | Value      |
|--------------|------------|
| Entrypoint   | 0x0001     |
| Data Size    | 2042 bytes |
| Instructions | 332        |

```
      00 01 02 03 04 05 06 07  08 09 0A 0B 0C 0D 0E 0F
      -- -- -- -- -- -- -- --  -- -- -- -- -- -- -- --
0000:    42 03 00 00 00 80 03  01 00 00 80 03 53 10 00   B...........S..
0010: 80 03 04 00 00 80 38 01  80 03 02 00 02 10 03 03  ......8.........
0020: 00 03 10 03 04 00 05 10  1E F0 FF FF 7F 1D 02 80  ................
0030: 23 02 04 10 03 80 00 96  01 03 02 10 8B 7F 1D 04  #...............
0040: 80 23 02 02 00 00 80 00  57 00 02 03 00 00 80 00  .#......W.......
0050: 57 00 03 00 00 05 80 24  06 80 00 80 00 00 25 02  W......$......%.
0060: 00 10 00 80 00 7D 00 1D  07 80 23 1D 08 80 23 1D  .....}....#...#.
0070: 09 80 23 1D 0A 80 23 01  57 00 01 93 01 02 00 10  ..#...#.W.......
0080: 03 80 00 E6 00 02 02 00  00 80 00 9D 00 02 03 00  ................
0090: 03 80 01 9A 00 03 01 00  03 80 01 AA 00 02 03 00  ................
00A0: 00 80 00 AA 00 03 01 00  05 80 24 0B 80 00 80 01  ..........$.....
00B0: 00 25 02 00 10 00 80 00  C9 00 03 02 10 02 00 1D  .%..............
00C0: 0C 80 23 01 AA 00 01 E0  00 02 00 10 03 80 00 E0  ..#.............
00D0: 00 03 03 10 03 00 1D 0D  80 23 01 AA 00 01 E0 00  .........#......
00E0: 01 57 00 01 93 01 02 00  10 05 80 00 3A 01 03 02  .W..........:...
00F0: 10 0E 80 1D 0F 80 23 03  01 10 03 80 43 00 43 01  ......#.....C.C.
0100: 24 10 80 03 80 00 80 25  02 00 10 03 80 00 16 01  $......%........
0110: 01 57 00 01 16 01 03 01  10 05 80 43 00 43 01 02  .W.........C.C..
0120: 02 10 03 80 00 37 01 40  11 80 12 80 01 10 03 80  .....7.@........
0130: 1D 13 80 23 1A 32 02 01  93 01 02 00 10 14 80 00  ...#.2..........
0140: 93 01 03 02 10 0E 80 1D  0F 80 23 03 01 10 03 80  ..........#.....
0150: 43 00 43 01 24 10 80 03  80 00 80 25 02 00 10 03  C.C.$......%....
0160: 80 00 6A 01 01 57 00 01  6A 01 03 01 10 05 80 43  ..j..W..j......C
0170: 00 43 01 03 53 10 03 80  02 02 10 03 80 00 90 01  .C..S...........
0180: 40 11 80 12 80 01 10 03  80 1D 13 80 23 1A 32 02  @...........#.2.
0190: 01 93 01 01 30 02 02 02  00 00 80 00 A3 01 03 00  ....0...........
01A0: 00 05 80 24 15 80 00 80  00 00 25 02 00 10 00 80  ...$......%.....
01B0: 00 C5 01 1D 07 80 23 1D  08 80 23 1D 16 80 23 01  ......#...#...#.
01C0: A3 01 01 30 02 02 00 10  03 80 00 DC 01 03 02 10  ...0............
01D0: 02 00 1D 17 80 23 01 A3  01 01 30 02 02 00 10 05  .....#....0.....
01E0: 80 00 30 02 03 02 10 0E  80 1D 0F 80 23 03 01 10  ..0.........#...
01F0: 03 80 43 00 43 01 24 10  80 03 80 00 80 25 02 00  ..C.C.$......%..
0200: 10 03 80 00 0C 02 01 A3  01 01 0C 02 03 01 10 05  ................
0210: 80 43 00 43 01 02 02 10  03 80 00 2D 02 40 11 80  .C.C.......-.@..
0220: 12 80 01 10 03 80 1D 13  80 23 1A 32 02 01 30 02  .........#.2..0.
0230: 21 00 45 18 80 F8 FF FF  7F F8 FF FF 7F 66 64 6F  !.E..........fdo
0240: 31 00 80 55 18 80 F8 FF  FF 7F F8 FF FF 7F 66 64  1..U..........fd
0250: 6F 31 46 01 38 19 80 77  1A 80 00 80 2F 00 0D 62  o1F.8..w..../..b
0260: 0E 01 4E 00 0D 62 0E 01  2F 00 0E 62 0E 01 4E 00  ..N..b../..b..N.
0270: 0E 62 0E 01 2F 00 0F 62  0E 01 4E 00 0F 62 0E 01  .b../..b..N..b..
0280: 2F 00 10 62 0E 01 4E 00  10 62 0E 01 2F 00 11 62  /..b..N..b../..b
0290: 0E 01 4E 00 11 62 0E 01  2F 00 12 62 0E 01 4E 00  ..N..b../..b..N.
02A0: 12 62 0E 01 2F 00 13 62  0E 01 4E 00 13 62 0E 01  .b../..b..N..b..
02B0: 2F 00 14 62 0E 01 4E 00  14 62 0E 01 2F 00 15 62  /..b..N..b../..b
02C0: 0E 01 4E 00 15 62 0E 01  2F 00 16 62 0E 01 4E 00  ..N..b../..b..N.
02D0: 16 62 0E 01 2F 00 17 62  0E 01 4E 00 17 62 0E 01  .b../..b..N..b..
02E0: 2F 00 18 62 0E 01 2F 00  19 62 0E 01 2F 00 1A 62  /..b../..b../..b
02F0: 0E 01 2F 00 1B 62 0E 01  2F 00 1C 62 0E 01 2F 00  ../..b../..b../.
0300: 1D 62 0E 01 2F 00 0A 62  0E 01 2F 00 0B 62 0E 01  .b../..b../..b..
0310: 2F 00 0C 62 0E 01 BA 0E  62 0E 01 1B 80 1C 80 00  /..b....b.......
0320: 80 1D 80 BA 0F 62 0E 01  1E 80 1F 80 00 80 20 80  .....b........ .
0330: BA 11 62 0E 01 21 80 22  80 00 80 23 80 BA 12 62  ..b..!."...#...b
0340: 0E 01 24 80 25 80 00 80  23 80 BA 0D 62 0E 01 26  ..$.%...#...b..&
0350: 80 27 80 28 80 29 80 BA  10 62 0E 01 2A 80 2B 80  .'.(.)...b..*.+.
0360: 28 80 2C 80 BA 14 62 0E  01 2D 80 2E 80 2F 80 30  (.,...b..-.../.0
0370: 80 BA 13 62 0E 01 31 80  32 80 2F 80 33 80 80 0E  ...b..1.2./.3...
0380: 62 0E 01 80 0F 62 0E 01  80 11 62 0E 01 80 12 62  b....b....b....b
0390: 0E 01 80 0D 62 0E 01 80  10 62 0E 01 80 13 62 0E  ....b....b....b.
03A0: 01 80 14 62 0E 01 03 4F  10 00 80 03 50 10 00 80  ...b...O....P...
03B0: 03 51 10 00 80 45 34 80  F8 FF FF 7F F8 FF FF 7F  .Q...E4.........
03C0: 73 30 30 33 00 80 1C 35  80 45 18 80 F8 FF FF 7F  s003...5.E......
03D0: F8 FF FF 7F 66 64 69 31  00 80 55 18 80 F8 FF FF  ....fdi1..U.....
03E0: 7F F8 FF FF 7F 66 64 69  31 27 05 0A 62 0E 01 02  .....fdi1'..b...
03F0: 27 05 0B 62 0E 01 02 03  52 10 00 80 03 55 10 03  '..b....R....U..
0400: 80 02 50 10 00 80 00 EB  05 02 55 10 03 80 00 E5  ..P.......U.....
0410: 05 24 36 80 00 80 00 80  25 02 00 10 00 80 00 34  .$6.....%......4
0420: 05 02 52 10 00 80 00 31  05 02 4F 10 03 80 00 F5  ..R....1..O.....
0430: 04 BB 18 80 F8 FF FF 7F  F8 FF FF 7F 6D 61 72 31  ............mar1
0440: 00 80 03 4F 10 00 80 03  55 10 00 80 07 51 10 03  ...O....U....Q..
0450: 80 02 54 10 03 80 80 69  04 27 03 0C 62 0E 01 02  ..T....i.'..b...
0460: 7A 00 0B 62 0E 01 01 F2  04 02 54 10 05 80 80 81  z..b......T.....
0470: 04 27 03 0B 62 0E 01 03  7A 00 0C 62 0E 01 01 F2  .'..b...z..b....
0480: 04 02 54 10 14 80 80 99  04 27 03 0C 62 0E 01 03  ..T......'..b...
0490: 7A 00 0B 62 0E 01 01 F2  04 02 54 10 37 80 80 C2  z..b......T.7...
04A0: 04 45 34 80 F8 FF FF 7F  F8 FF FF 7F 6B 30 30 34  .E4.........k004
04B0: 00 80 27 03 0B 62 0E 01  04 7A 00 0C 62 0E 01 01  ..'..b...z..b...
04C0: F2 04 02 54 10 38 80 80  DA 04 27 03 0C 62 0E 01  ...T.8....'..b..
04D0: 04 7A 00 0B 62 0E 01 01  F2 04 02 54 10 39 80 80  .z..b......T.9..
04E0: F2 04 27 03 0B 62 0E 01  02 7A 00 0C 62 0E 01 01  ..'..b...z..b...
04F0: F2 04 01 31 05 02 4F 10  05 80 00 00 05 01 31 05  ...1..O.......1.
0500: BB 18 80 F8 FF FF 7F F8  FF FF 7F 62 61 74 31 00  ...........bat1.
0510: 80 45 34 80 F8 FF FF 7F  F8 FF FF 7F 6B 30 30 34  .E4.........k004
0520: 00 80 B4 0B 03 52 10 03  80 B4 06 00 03 50 10 05  .....R.......P..
0530: 80 01 E5 05 02 00 10 03  80 00 E5 05 03 55 10 00  .............U..
0540: 80 02 54 10 03 80 80 59  05 27 03 0C 62 0E 01 02  ..T....Y.'..b...
0550: 7A 00 0B 62 0E 01 01 E2  05 02 54 10 05 80 80 71  z..b......T....q
0560: 05 27 03 0B 62 0E 01 03  7A 00 0C 62 0E 01 01 E2  .'..b...z..b....
0570: 05 02 54 10 14 80 80 89  05 27 03 0C 62 0E 01 03  ..T......'..b...
0580: 7A 00 0B 62 0E 01 01 E2  05 02 54 10 37 80 80 B2  z..b......T.7...
0590: 05 45 34 80 F8 FF FF 7F  F8 FF FF 7F 6B 30 30 34  .E4.........k004
05A0: 00 80 27 03 0B 62 0E 01  04 7A 00 0C 62 0E 01 01  ..'..b...z..b...
05B0: E2 05 02 54 10 38 80 80  CA 05 27 03 0C 62 0E 01  ...T.8....'..b..
05C0: 04 7A 00 0B 62 0E 01 01  E2 05 02 54 10 39 80 80  .z..b......T.9..
05D0: E2 05 27 03 0B 62 0E 01  02 7A 00 0C 62 0E 01 01  ..'..b...z..b...
05E0: E2 05 01 E5 05 1C 03 80  01 01 04 45 18 80 F8 FF  ...........E....
05F0: FF 7F F8 FF FF 7F 66 64  6F 31 00 80 55 18 80 F8  ......fdo1..U...
0600: FF FF 7F F8 FF FF 7F 66  64 6F 31 02 50 10 05 80  .......fdo1.P...
0610: 00 28 06 45 34 80 F8 FF  FF 7F F8 FF FF 7F 6F 77  .(.E4.........ow
0620: 72 69 00 80 1D 3A 80 23  52 34 80 F8 FF FF 7F F8  ri...:.#R4......
0630: FF FF 7F 73 30 30 32 78  7A 00 0B 62 0E 01 7A 00  ...s002xz..b..z.
0640: 0C 62 0E 01 7A 00 0D 62  0E 01 7A 00 10 62 0E 01  .b..z..b..z..b..
0650: 7A 00 0E 62 0E 01 7A 00  0F 62 0E 01 7A 00 11 62  z..b..z..b..z..b
0660: 0E 01 7A 00 12 62 0E 01  4E 01 15 62 0E 01 4E 01  ..z..b..N..b..N.
0670: 16 62 0E 01 4E 01 17 62  0E 01 4E 01 18 62 0E 01  .b..N..b..N..b..
0680: 4E 01 19 62 0E 01 4E 01  1A 62 0E 01 4E 01 1B 62  N..b..N..b..N..b
0690: 0E 01 4E 01 1C 62 0E 01  4E 01 1D 62 0E 01 4E 01  ..N..b..N..b..N.
06A0: 13 62 0E 01 4E 01 14 62  0E 01 4E 01 0D 62 0E 01  .b..N..b..N..b..
06B0: 4E 01 10 62 0E 01 4E 01  0E 62 0E 01 4E 01 0F 62  N..b..N..b..N..b
06C0: 0E 01 4E 01 11 62 0E 01  4E 01 12 62 0E 01 2F 01  ..N..b..N..b../.
06D0: 0D 62 0E 01 2F 01 10 62  0E 01 2F 01 0E 62 0E 01  .b../..b../..b..
06E0: 2F 01 0F 62 0E 01 2F 01  11 62 0E 01 2F 01 12 62  /..b../..b../..b
06F0: 0E 01 38 00 80 46 00 1C  3B 80 45 18 80 F8 FF FF  ..8..F..;.E.....
0700: 7F F8 FF FF 7F 66 64 69  30 00 80 55 18 80 F8 FF  .....fdi0..U....
0710: FF 7F F8 FF FF 7F 66 64  69 30 02 50 10 05 80 00  ......fdi0.P....
0720: 32 07 03 02 10 8B 7F 1D  3C 80 23 1D 3D 80 23 01  2.......<.#.=.#.
0730: FA 07 02 53 10 00 80 00  94 07 02 51 10 3E 80 04  ...S.......Q.>..
0740: 7A 07 03 02 10 00 80 03  03 10 8B 7F 03 04 10 51  z..............Q
0750: 10 1D 3F 80 23 02 02 00  51 10 03 6A 07 1D 40 80  ..?.#...Q..j..@.
0760: 23 40 05 80 41 80 01 10  51 10 1D 42 80 23 40 00  #@..A...Q..B.#@.
0770: 80 03 80 01 10 00 80 01  91 07 03 02 10 03 80 03  ................
0780: 03 10 8B 7F 03 04 10 51  10 1D 3F 80 23 1D 3D 80  .......Q..?.#.=.
0790: 23 01 FA 07 02 51 10 41  80 04 E3 07 03 02 10 00  #....Q.A........
07A0: 80 03 03 10 8B 7F 03 04  10 51 10 1D 3F 80 23 02  .........Q..?.#.
07B0: 03 00 51 10 03 C4 07 1D  40 80 23 40 0E 80 43 80  ..Q.....@.#@..C.
07C0: 01 10 51 10 02 04 00 00  80 00 D3 07 1D 44 80 23  ..Q..........D.#
07D0: 01 D7 07 1D 42 80 23 40  00 80 03 80 01 10 03 80  ....B.#@........
07E0: 01 FA 07 03 02 10 03 80  03 03 10 8B 7F 03 04 10  ................
07F0: 51 10 1D 3F 80 23 1D 3D  80 23 1B                 Q..?.#.=.#.     
```

#### Opcodes

```
  0: 0x0001 [0x42] SET_CLI_EVENT_CANCEL_DATA()
  1: 0x0002 [0x03] ExtData[1]->WorkLocal[0] = 0*
  2: 0x0007 [0x03] ExtData[1]->WorkLocal[1] = 0*
  3: 0x000C [0x03] Work_Zone[83] = 0*
  4: 0x0011 [0x03] ExtData[1]->WorkLocal[4] = 0*
  5: 0x0016 [0x38] SET_CLIENT_EVENT_MODE(mode=8*)
  6: 0x0019 [0x03] ExtData[1]->WorkLocal[2] = Work_Zone[2]
  7: 0x001E [0x03] ExtData[1]->WorkLocal[3] = Work_Zone[3]
  8: 0x0023 [0x03] ExtData[1]->WorkLocal[4] = Work_Zone[5]
  9: 0x0028 [0x1E] EventEntity looks at LocalPlayer and starts talking
 10: 0x002D [0x1D] PRINT_EVENT_MESSAGE(message_id=13462*)
    → "Hi there! Welcome to Spot the Difference!"
 11: 0x0030 [0x23] WAIT_FOR_DIALOG_INTERACTION
 12: 0x0031 [0x02] IF !(Work_Zone[4] == 1*) GOTO 0x0196
 13: 0x0039 [0x03] Work_Zone[2] = (LocalPlayer->Render.Flags01 >> 25) & 1
 14: 0x003E [0x1D] PRINT_EVENT_MESSAGE(message_id=13481*)
    → "Wow, you sure do look good in that outfit! Why don't you try playing the game in hard mode?"
 15: 0x0041 [0x23] WAIT_FOR_DIALOG_INTERACTION
 16: 0x0042 [0x02] IF !(ExtData[1]->WorkLocal[2] == 0*) GOTO 0x0057
 17: 0x004A [0x02] IF !(ExtData[1]->WorkLocal[3] == 0*) GOTO 0x0057
 18: 0x0052 [0x03] ExtData[1]->WorkLocal[0] = 2*
 19: 0x0057 [0x24] CREATE_DIALOG(message_id=13482*, default_option=0*, option_flags=ExtData[1]->WorkLocal[0])
    → "What would you like to do? [Learn how to play./Check current high score./Play normal mode./Try hard mode./Nothing.]"
 20: 0x005E [0x25] WAIT_DIALOG_SELECT()
 21: 0x005F [0x02] IF !(Work_Zone[0] == 0*) GOTO 0x007D
 22: 0x0067 [0x1D] PRINT_EVENT_MESSAGE(message_id=13464*)
    → "As the name suggests, in this game you have to spot the difference. We will show you two people in identical attire, doing the same movements. However, there'll be moments of difference. Your job is to pinpoint such moments."
 23: 0x006A [0x23] WAIT_FOR_DIALOG_INTERACTION
 24: 0x006B [0x1D] PRINT_EVENT_MESSAGE(message_id=13465*)
    → "Be warned! Pinpoint the wrong moment, and it's game over red rover!"
 25: 0x006E [0x23] WAIT_FOR_DIALOG_INTERACTION
 26: 0x006F [0x1D] PRINT_EVENT_MESSAGE(message_id=13483*)
    → "To win in normal mode, you have one minute to spot seven or more differences."
 27: 0x0072 [0x23] WAIT_FOR_DIALOG_INTERACTION
 28: 0x0073 [0x1D] PRINT_EVENT_MESSAGE(message_id=13484*)
    → "For hard mode, though, you'll need to find nine!"
 29: 0x0076 [0x23] WAIT_FOR_DIALOG_INTERACTION
 30: 0x0077 [0x01] GOTO 0x0057

SUBROUTINE_00AA:
 31: 0x00AA [0x24] CREATE_DIALOG(message_id=13485*, default_option=0*, option_flags=ExtData[1]->WorkLocal[1])
    → "Check high score for which mode? [Normal mode./Hard mode./Don't check.]"
 32: 0x00B1 [0x25] WAIT_DIALOG_SELECT()
 33: 0x00B2 [0x02] IF !(Work_Zone[0] == 0*) GOTO 0x00C9
 34: 0x00BA [0x03] Work_Zone[2] = ExtData[1]->WorkLocal[2]
 35: 0x00BF [0x1D] PRINT_EVENT_MESSAGE(message_id=13486*)
    → "Normal mode high score: $0 [spot/spots]. Record holder: %0."
 36: 0x00C2 [0x23] WAIT_FOR_DIALOG_INTERACTION
 37: 0x00C3 [0x01] GOTO 0x00AA

SUBROUTINE_00E0:
 38: 0x00E0 [0x01] GOTO 0x0057

SUBROUTINE_0116:
 39: 0x0116 [0x03] Work_Zone[1] = 2*
 40: 0x011B [0x43] SEND_EVENT_UPDATE: Send pending tag to server (packet 0x005B)
 41: 0x011D [0x43] SEND_EVENT_UPDATE: Check pending flag (skip if not pending)
 42: 0x011F [0x02] IF !(Work_Zone[2] == 1*) GOTO 0x0137
 43: 0x0127 [0x40] SET_BIT_WORK_RANGE(start_bit=18*, end_bit=19*, target=Work_Zone[1], source=1*)
 44: 0x0130 [0x1D] PRINT_EVENT_MESSAGE(message_id=13470*)
    → "Cheers!"
 45: 0x0133 [0x23] WAIT_FOR_DIALOG_INTERACTION
 46: 0x0134 [0x1A] CALL_SUBROUTINE(address=0x0232)
 47: 0x0137 [0x01] GOTO 0x0193
 48: 0x013A [0x02] IF !(Work_Zone[0] == 3*) GOTO 0x0193
 49: 0x0142 [0x03] Work_Zone[2] = 10*
 50: 0x0147 [0x1D] PRINT_EVENT_MESSAGE(message_id=13468*)
    → "It costs $0 gil to play."
 51: 0x014A [0x23] WAIT_FOR_DIALOG_INTERACTION
 52: 0x014B [0x03] Work_Zone[1] = 1*
 53: 0x0150 [0x43] SEND_EVENT_UPDATE: Send pending tag to server (packet 0x005B)
 54: 0x0152 [0x43] SEND_EVENT_UPDATE: Check pending flag (skip if not pending)
 55: 0x0154 [0x24] CREATE_DIALOG(message_id=13469*, default_option=1*, option_flags=0*)
    → "Play the game? (You have $0 gil.) [Play./Don't play.]"
 56: 0x015B [0x25] WAIT_DIALOG_SELECT()
 57: 0x015C [0x02] IF !(Work_Zone[0] == 1*) GOTO 0x016A
 58: 0x0164 [0x01] GOTO 0x0057

SUBROUTINE_016A:
 59: 0x016A [0x03] Work_Zone[1] = 2*
 60: 0x016F [0x43] SEND_EVENT_UPDATE: Send pending tag to server (packet 0x005B)
 61: 0x0171 [0x43] SEND_EVENT_UPDATE: Check pending flag (skip if not pending)
 62: 0x0173 [0x03] Work_Zone[83] = 1*
 63: 0x0178 [0x02] IF !(Work_Zone[2] == 1*) GOTO 0x0190
 64: 0x0180 [0x40] SET_BIT_WORK_RANGE(start_bit=18*, end_bit=19*, target=Work_Zone[1], source=1*)
 65: 0x0189 [0x1D] PRINT_EVENT_MESSAGE(message_id=13470*)
    → "Cheers!"
 66: 0x018C [0x23] WAIT_FOR_DIALOG_INTERACTION
 67: 0x018D [0x1A] CALL_SUBROUTINE(address=0x0232)
 68: 0x0190 [0x01] GOTO 0x0193

SUBROUTINE_0193:
 69: 0x0193 [0x01] GOTO 0x0230
 70: 0x0196 [0x02] IF !(ExtData[1]->WorkLocal[2] == 0*) GOTO 0x01A3
 71: 0x019E [0x03] ExtData[1]->WorkLocal[0] = 2*

SUBROUTINE_01A3:
 72: 0x01A3 [0x24] CREATE_DIALOG(message_id=13463*, default_option=0*, option_flags=ExtData[1]->WorkLocal[0])
    → "What would you like to do? [Learn how to play./Check current high score./Have a go!/Nothing.]"
 73: 0x01AA [0x25] WAIT_DIALOG_SELECT()
 74: 0x01AB [0x02] IF !(Work_Zone[0] == 0*) GOTO 0x01C5
 75: 0x01B3 [0x1D] PRINT_EVENT_MESSAGE(message_id=13464*)
    → "As the name suggests, in this game you have to spot the difference. We will show you two people in identical attire, doing the same movements. However, there'll be moments of difference. Your job is to pinpoint such moments."
 76: 0x01B6 [0x23] WAIT_FOR_DIALOG_INTERACTION
 77: 0x01B7 [0x1D] PRINT_EVENT_MESSAGE(message_id=13465*)
    → "Be warned! Pinpoint the wrong moment, and it's game over red rover!"
 78: 0x01BA [0x23] WAIT_FOR_DIALOG_INTERACTION
 79: 0x01BB [0x1D] PRINT_EVENT_MESSAGE(message_id=13466*)
    → "To clear the game, you need to pick out at least seven differences within one minute."
 80: 0x01BE [0x23] WAIT_FOR_DIALOG_INTERACTION
 81: 0x01BF [0x01] GOTO 0x01A3

SUBROUTINE_020C:
 82: 0x020C [0x03] Work_Zone[1] = 2*
 83: 0x0211 [0x43] SEND_EVENT_UPDATE: Send pending tag to server (packet 0x005B)
 84: 0x0213 [0x43] SEND_EVENT_UPDATE: Check pending flag (skip if not pending)
 85: 0x0215 [0x02] IF !(Work_Zone[2] == 1*) GOTO 0x022D
 86: 0x021D [0x40] SET_BIT_WORK_RANGE(start_bit=18*, end_bit=19*, target=Work_Zone[1], source=1*)
 87: 0x0226 [0x1D] PRINT_EVENT_MESSAGE(message_id=13470*)
    → "Cheers!"
 88: 0x0229 [0x23] WAIT_FOR_DIALOG_INTERACTION
 89: 0x022A [0x1A] CALL_SUBROUTINE(address=0x0232)
 90: 0x022D [0x01] GOTO 0x0230

SUBROUTINE_0230:
 91: 0x0230 [0x21] END_EVENT
 92: 0x0231 [0x00] END_REQSTACK()

SUBROUTINE_0232:
 93: 0x0232 [0x45] LOAD_SCHEDULED_TASK: Load scheduler "fdo1" with entities [EventEntity, EventEntity], work=[200*, 0*]
 94: 0x0243 [0x55] WAIT_LOAD_SCHEDULER: Wait for scheduler "fdo1" with entities [EventEntity, EventEntity], work=200*
 95: 0x0252 [0x46] CAMERA_CONTROL: Disable user control
 96: 0x0254 [0x38] SET_CLIENT_EVENT_MODE(mode=27*)
 97: 0x0257 [0x77] SET_EVENT_TIME_WEATHER(hour=12*, weather=0*)
 98: 0x025C [0x2F] Unnamed NPC (ID: 17719821/0x010E620D)->Render.Flags0 &= ~0x80000 // Bit 19
 99: 0x0262 [0x4E] SET_ENTITY_HIDE_FLAG: Show Unnamed NPC (ID: 17719821/0x010E620D)
100: 0x0268 [0x2F] Unnamed NPC (ID: 17719822/0x010E620E)->Render.Flags0 &= ~0x80000 // Bit 19
101: 0x026E [0x4E] SET_ENTITY_HIDE_FLAG: Show Unnamed NPC (ID: 17719822/0x010E620E)
102: 0x0274 [0x2F] Unnamed NPC (ID: 17719823/0x010E620F)->Render.Flags0 &= ~0x80000 // Bit 19
103: 0x027A [0x4E] SET_ENTITY_HIDE_FLAG: Show Unnamed NPC (ID: 17719823/0x010E620F)
104: 0x0280 [0x2F] Unnamed NPC (ID: 17719824/0x010E6210)->Render.Flags0 &= ~0x80000 // Bit 19
105: 0x0286 [0x4E] SET_ENTITY_HIDE_FLAG: Show Unnamed NPC (ID: 17719824/0x010E6210)
106: 0x028C [0x2F] Unnamed NPC (ID: 17719825/0x010E6211)->Render.Flags0 &= ~0x80000 // Bit 19
107: 0x0292 [0x4E] SET_ENTITY_HIDE_FLAG: Show Unnamed NPC (ID: 17719825/0x010E6211)
108: 0x0298 [0x2F] Unnamed NPC (ID: 17719826/0x010E6212)->Render.Flags0 &= ~0x80000 // Bit 19
109: 0x029E [0x4E] SET_ENTITY_HIDE_FLAG: Show Unnamed NPC (ID: 17719826/0x010E6212)
110: 0x02A4 [0x2F] Unnamed NPC (ID: 17719827/0x010E6213)->Render.Flags0 &= ~0x80000 // Bit 19
111: 0x02AA [0x4E] SET_ENTITY_HIDE_FLAG: Show Unnamed NPC (ID: 17719827/0x010E6213)
112: 0x02B0 [0x2F] Unnamed NPC (ID: 17719828/0x010E6214)->Render.Flags0 &= ~0x80000 // Bit 19
113: 0x02B6 [0x4E] SET_ENTITY_HIDE_FLAG: Show Unnamed NPC (ID: 17719828/0x010E6214)
114: 0x02BC [0x2F] Unnamed NPC (ID: 17719829/0x010E6215)->Render.Flags0 &= ~0x80000 // Bit 19
115: 0x02C2 [0x4E] SET_ENTITY_HIDE_FLAG: Show Unnamed NPC (ID: 17719829/0x010E6215)
116: 0x02C8 [0x2F] Unnamed NPC (ID: 17719830/0x010E6216)->Render.Flags0 &= ~0x80000 // Bit 19
117: 0x02CE [0x4E] SET_ENTITY_HIDE_FLAG: Show Unnamed NPC (ID: 17719830/0x010E6216)
118: 0x02D4 [0x2F] Unnamed NPC (ID: 17719831/0x010E6217)->Render.Flags0 &= ~0x80000 // Bit 19
119: 0x02DA [0x4E] SET_ENTITY_HIDE_FLAG: Show Unnamed NPC (ID: 17719831/0x010E6217)
120: 0x02E0 [0x2F] Unnamed NPC (ID: 17719832/0x010E6218)->Render.Flags0 &= ~0x80000 // Bit 19
121: 0x02E6 [0x2F] Unnamed NPC (ID: 17719833/0x010E6219)->Render.Flags0 &= ~0x80000 // Bit 19
122: 0x02EC [0x2F] Unnamed NPC (ID: 17719834/0x010E621A)->Render.Flags0 &= ~0x80000 // Bit 19
123: 0x02F2 [0x2F] Unnamed NPC (ID: 17719835/0x010E621B)->Render.Flags0 &= ~0x80000 // Bit 19
124: 0x02F8 [0x2F] Unnamed NPC (ID: 17719836/0x010E621C)->Render.Flags0 &= ~0x80000 // Bit 19
125: 0x02FE [0x2F] Unnamed NPC (ID: 17719837/0x010E621D)->Render.Flags0 &= ~0x80000 // Bit 19
126: 0x0304 [0x2F] Unnamed NPC (ID: 17719818/0x010E620A)->Render.Flags0 &= ~0x80000 // Bit 19
127: 0x030A [0x2F] Unnamed NPC (ID: 17719819/0x010E620B)->Render.Flags0 &= ~0x80000 // Bit 19
128: 0x0310 [0x2F] Unnamed NPC (ID: 17719820/0x010E620C)->Render.Flags0 &= ~0x80000 // Bit 19
129: 0x0316 [0xBA] SET_ENTITY_POSITION(entity_id=Unnamed NPC (ID: 17719822/0x010E620E), pos_x=111.363*, pos_z=83.491*, pos_y=0.000*, direction=116.5°*)
130: 0x0323 [0xBA] SET_ENTITY_POSITION(entity_id=Unnamed NPC (ID: 17719823/0x010E620F), pos_x=112.663*, pos_z=81.838*, pos_y=0.000*, direction=125.3°*)
131: 0x0330 [0xBA] SET_ENTITY_POSITION(entity_id=Unnamed NPC (ID: 17719825/0x010E6211), pos_x=113.732*, pos_z=81.210*, pos_y=0.000*, direction=134.1°*)
132: 0x033D [0xBA] SET_ENTITY_POSITION(entity_id=Unnamed NPC (ID: 17719826/0x010E6212), pos_x=114.901*, pos_z=79.532*, pos_y=0.000*, direction=134.1°*)
133: 0x034A [0xBA] SET_ENTITY_POSITION(entity_id=Unnamed NPC (ID: 17719821/0x010E620D), pos_x=-1.104*, pos_z=40.946*, pos_y=-1.999*, direction=267.6°*)
134: 0x0357 [0xBA] SET_ENTITY_POSITION(entity_id=Unnamed NPC (ID: 17719824/0x010E6210), pos_x=1.157*, pos_z=41.082*, pos_y=-1.999*, direction=276.6°*)
135: 0x0364 [0xBA] SET_ENTITY_POSITION(entity_id=Unnamed NPC (ID: 17719828/0x010E6214), pos_x=28.362*, pos_z=-7.135*, pos_y=2.101*, direction=263.7°*)
136: 0x0371 [0xBA] SET_ENTITY_POSITION(entity_id=Unnamed NPC (ID: 17719827/0x010E6213), pos_x=27.505*, pos_z=-7.040*, pos_y=2.101*, direction=273.8°*)
137: 0x037E [0x80] LOAD_WAIT(entity=Unnamed NPC (ID: 17719822/0x010E620E))
138: 0x0383 [0x80] LOAD_WAIT(entity=Unnamed NPC (ID: 17719823/0x010E620F))
139: 0x0388 [0x80] LOAD_WAIT(entity=Unnamed NPC (ID: 17719825/0x010E6211))
140: 0x038D [0x80] LOAD_WAIT(entity=Unnamed NPC (ID: 17719826/0x010E6212))
141: 0x0392 [0x80] LOAD_WAIT(entity=Unnamed NPC (ID: 17719821/0x010E620D))
142: 0x0397 [0x80] LOAD_WAIT(entity=Unnamed NPC (ID: 17719824/0x010E6210))
143: 0x039C [0x80] LOAD_WAIT(entity=Unnamed NPC (ID: 17719827/0x010E6213))
144: 0x03A1 [0x80] LOAD_WAIT(entity=Unnamed NPC (ID: 17719828/0x010E6214))
145: 0x03A6 [0x03] Work_Zone[79] = 0*
146: 0x03AB [0x03] Work_Zone[80] = 0*
147: 0x03B0 [0x03] Work_Zone[81] = 0*
148: 0x03B5 [0x45] LOAD_SCHEDULED_TASK: Load scheduler "s003" with entities [EventEntity, EventEntity], work=[337*, 0*]
149: 0x03C6 [0x1C] WAIT(15* ticks)
150: 0x03C9 [0x45] LOAD_SCHEDULED_TASK: Load scheduler "fdi1" with entities [EventEntity, EventEntity], work=[200*, 0*]
151: 0x03DA [0x55] WAIT_LOAD_SCHEDULER: Wait for scheduler "fdi1" with entities [EventEntity, EventEntity], work=200*
152: 0x03E9 [0x27] REQ_SET(priority=0x05, entity_id=Unnamed NPC (ID: 17719818/0x010E620A), tag_num=0x02)
153: 0x03F0 [0x27] REQ_SET(priority=0x05, entity_id=Unnamed NPC (ID: 17719819/0x010E620B), tag_num=0x02)
154: 0x03F7 [0x03] Work_Zone[82] = 0*
155: 0x03FC [0x03] Work_Zone[85] = 1*

SUBROUTINE_0401:
156: 0x0401 [0x02] IF !(Work_Zone[80] == 0*) GOTO 0x05EB
157: 0x0409 [0x02] IF !(Work_Zone[85] == 1*) GOTO 0x05E5
158: 0x0411 [0x24] CREATE_DIALOG(message_id=13471*, default_option=0*, option_flags=0*)
    → "Push the button when you spot something! [Now!/Wait.]"
159: 0x0418 [0x25] WAIT_DIALOG_SELECT()
160: 0x0419 [0x02] IF !(Work_Zone[0] == 0*) GOTO 0x0534
161: 0x0421 [0x02] IF !(Work_Zone[82] == 0*) GOTO 0x0531
162: 0x0429 [0x02] IF !(Work_Zone[79] == 1*) GOTO 0x04F5
163: 0x0431 [0xBB] LOAD_EVENT_SCHEDULER_ALT: Load scheduler "mar1" with entities [EventEntity, EventEntity], work=[200*, 0*]
164: 0x0442 [0x03] Work_Zone[79] = 0*
165: 0x0447 [0x03] Work_Zone[85] = 0*
166: 0x044C [0x07] Work_Zone[81] += 1*
167: 0x0451 [0x02] IF !(Work_Zone[84] == 1*) GOTO 0x0469
168: 0x0459 [0x27] REQ_SET(priority=0x03, entity_id=Unnamed NPC (ID: 17719820/0x010E620C), tag_num=0x02)
169: 0x0460 [0x7A] VM_CONTROL: Reset VM for Unnamed NPC (ID: 17719819/0x010E620B)
170: 0x0466 [0x01] GOTO 0x04F2
171: 0x0469 [0x02] IF !(Work_Zone[84] == 2*) GOTO 0x0481
172: 0x0471 [0x27] REQ_SET(priority=0x03, entity_id=Unnamed NPC (ID: 17719819/0x010E620B), tag_num=0x03)
173: 0x0478 [0x7A] VM_CONTROL: Reset VM for Unnamed NPC (ID: 17719820/0x010E620C)
174: 0x047E [0x01] GOTO 0x04F2
175: 0x0481 [0x02] IF !(Work_Zone[84] == 3*) GOTO 0x0499
176: 0x0489 [0x27] REQ_SET(priority=0x03, entity_id=Unnamed NPC (ID: 17719820/0x010E620C), tag_num=0x03)
177: 0x0490 [0x7A] VM_CONTROL: Reset VM for Unnamed NPC (ID: 17719819/0x010E620B)
178: 0x0496 [0x01] GOTO 0x04F2
179: 0x0499 [0x02] IF !(Work_Zone[84] == 4*) GOTO 0x04C2
180: 0x04A1 [0x45] LOAD_SCHEDULED_TASK: Load scheduler "k004" with entities [EventEntity, EventEntity], work=[337*, 0*]
181: 0x04B2 [0x27] REQ_SET(priority=0x03, entity_id=Unnamed NPC (ID: 17719819/0x010E620B), tag_num=0x04)
182: 0x04B9 [0x7A] VM_CONTROL: Reset VM for Unnamed NPC (ID: 17719820/0x010E620C)
183: 0x04BF [0x01] GOTO 0x04F2
184: 0x04C2 [0x02] IF !(Work_Zone[84] == 5*) GOTO 0x04DA
185: 0x04CA [0x27] REQ_SET(priority=0x03, entity_id=Unnamed NPC (ID: 17719820/0x010E620C), tag_num=0x04)
186: 0x04D1 [0x7A] VM_CONTROL: Reset VM for Unnamed NPC (ID: 17719819/0x010E620B)
187: 0x04D7 [0x01] GOTO 0x04F2
188: 0x04DA [0x02] IF !(Work_Zone[84] == 6*) GOTO 0x04F2
189: 0x04E2 [0x27] REQ_SET(priority=0x03, entity_id=Unnamed NPC (ID: 17719819/0x010E620B), tag_num=0x02)
190: 0x04E9 [0x7A] VM_CONTROL: Reset VM for Unnamed NPC (ID: 17719820/0x010E620C)
191: 0x04EF [0x01] GOTO 0x04F2

SUBROUTINE_04F2:
192: 0x04F2 [0x01] GOTO 0x0531
193: 0x04F5 [0x02] IF !(Work_Zone[79] == 2*) GOTO 0x0500
194: 0x04FD [0x01] GOTO 0x0531
195: 0x0500 [0xBB] LOAD_EVENT_SCHEDULER_ALT: Load scheduler "bat1" with entities [EventEntity, EventEntity], work=[200*, 0*]
196: 0x0511 [0x45] LOAD_SCHEDULED_TASK: Load scheduler "k004" with entities [EventEntity, EventEntity], work=[337*, 0*]
197: 0x0522 [0xB4] UI_WINDOW_STRING_HANDLER(case=0x0B - Destroy event time window)
198: 0x0524 [0x03] Work_Zone[82] = 1*
199: 0x0529 [0xB4] UI_WINDOW_STRING_HANDLER(case=0x06 - Toggle query message flag, flag_value=0x00)
200: 0x052C [0x03] Work_Zone[80] = 2*

SUBROUTINE_0531:
201: 0x0531 [0x01] GOTO 0x05E5
202: 0x0534 [0x02] IF !(Work_Zone[0] == 1*) GOTO 0x05E5
203: 0x053C [0x03] Work_Zone[85] = 0*
204: 0x0541 [0x02] IF !(Work_Zone[84] == 1*) GOTO 0x0559
205: 0x0549 [0x27] REQ_SET(priority=0x03, entity_id=Unnamed NPC (ID: 17719820/0x010E620C), tag_num=0x02)
206: 0x0550 [0x7A] VM_CONTROL: Reset VM for Unnamed NPC (ID: 17719819/0x010E620B)
207: 0x0556 [0x01] GOTO 0x05E2
208: 0x0559 [0x02] IF !(Work_Zone[84] == 2*) GOTO 0x0571
209: 0x0561 [0x27] REQ_SET(priority=0x03, entity_id=Unnamed NPC (ID: 17719819/0x010E620B), tag_num=0x03)
210: 0x0568 [0x7A] VM_CONTROL: Reset VM for Unnamed NPC (ID: 17719820/0x010E620C)
211: 0x056E [0x01] GOTO 0x05E2
212: 0x0571 [0x02] IF !(Work_Zone[84] == 3*) GOTO 0x0589
213: 0x0579 [0x27] REQ_SET(priority=0x03, entity_id=Unnamed NPC (ID: 17719820/0x010E620C), tag_num=0x03)
214: 0x0580 [0x7A] VM_CONTROL: Reset VM for Unnamed NPC (ID: 17719819/0x010E620B)
215: 0x0586 [0x01] GOTO 0x05E2
216: 0x0589 [0x02] IF !(Work_Zone[84] == 4*) GOTO 0x05B2
217: 0x0591 [0x45] LOAD_SCHEDULED_TASK: Load scheduler "k004" with entities [EventEntity, EventEntity], work=[337*, 0*]
218: 0x05A2 [0x27] REQ_SET(priority=0x03, entity_id=Unnamed NPC (ID: 17719819/0x010E620B), tag_num=0x04)
219: 0x05A9 [0x7A] VM_CONTROL: Reset VM for Unnamed NPC (ID: 17719820/0x010E620C)
220: 0x05AF [0x01] GOTO 0x05E2
221: 0x05B2 [0x02] IF !(Work_Zone[84] == 5*) GOTO 0x05CA
222: 0x05BA [0x27] REQ_SET(priority=0x03, entity_id=Unnamed NPC (ID: 17719820/0x010E620C), tag_num=0x04)
223: 0x05C1 [0x7A] VM_CONTROL: Reset VM for Unnamed NPC (ID: 17719819/0x010E620B)
224: 0x05C7 [0x01] GOTO 0x05E2
225: 0x05CA [0x02] IF !(Work_Zone[84] == 6*) GOTO 0x05E2
226: 0x05D2 [0x27] REQ_SET(priority=0x03, entity_id=Unnamed NPC (ID: 17719819/0x010E620B), tag_num=0x02)
227: 0x05D9 [0x7A] VM_CONTROL: Reset VM for Unnamed NPC (ID: 17719820/0x010E620C)
228: 0x05DF [0x01] GOTO 0x05E2

SUBROUTINE_05E2:
229: 0x05E2 [0x01] GOTO 0x05E5

SUBROUTINE_05E5:
230: 0x05E5 [0x1C] WAIT(1* ticks)
231: 0x05E8 [0x01] GOTO 0x0401
232: 0x05EB [0x45] LOAD_SCHEDULED_TASK: Load scheduler "fdo1" with entities [EventEntity, EventEntity], work=[200*, 0*]
233: 0x05FC [0x55] WAIT_LOAD_SCHEDULER: Wait for scheduler "fdo1" with entities [EventEntity, EventEntity], work=200*
234: 0x060B [0x02] IF !(Work_Zone[80] == 2*) GOTO 0x0628
235: 0x0613 [0x45] LOAD_SCHEDULED_TASK: Load scheduler "owri" with entities [EventEntity, EventEntity], work=[337*, 0*]
236: 0x0624 [0x1D] PRINT_EVENT_MESSAGE(message_id=13476*)
    → "Oh no! I'm afraid that's game over!"
237: 0x0627 [0x23] WAIT_FOR_DIALOG_INTERACTION
238: 0x0628 [0x52] END_LOAD_SCHEDULER: End scheduler "s002" with entities [EventEntity, EventEntity], work=337*
239: 0x0637 [0x78] ENABLE_GAME_TIMER_RESET_WEATHER()
240: 0x0638 [0x7A] VM_CONTROL: Reset VM for Unnamed NPC (ID: 17719819/0x010E620B)
241: 0x063E [0x7A] VM_CONTROL: Reset VM for Unnamed NPC (ID: 17719820/0x010E620C)
242: 0x0644 [0x7A] VM_CONTROL: Reset VM for Unnamed NPC (ID: 17719821/0x010E620D)
243: 0x064A [0x7A] VM_CONTROL: Reset VM for Unnamed NPC (ID: 17719824/0x010E6210)
244: 0x0650 [0x7A] VM_CONTROL: Reset VM for Unnamed NPC (ID: 17719822/0x010E620E)
245: 0x0656 [0x7A] VM_CONTROL: Reset VM for Unnamed NPC (ID: 17719823/0x010E620F)
246: 0x065C [0x7A] VM_CONTROL: Reset VM for Unnamed NPC (ID: 17719825/0x010E6211)
247: 0x0662 [0x7A] VM_CONTROL: Reset VM for Unnamed NPC (ID: 17719826/0x010E6212)
248: 0x0668 [0x4E] SET_ENTITY_HIDE_FLAG: Hide Unnamed NPC (ID: 17719829/0x010E6215)
249: 0x066E [0x4E] SET_ENTITY_HIDE_FLAG: Hide Unnamed NPC (ID: 17719830/0x010E6216)
250: 0x0674 [0x4E] SET_ENTITY_HIDE_FLAG: Hide Unnamed NPC (ID: 17719831/0x010E6217)
251: 0x067A [0x4E] SET_ENTITY_HIDE_FLAG: Hide Unnamed NPC (ID: 17719832/0x010E6218)
252: 0x0680 [0x4E] SET_ENTITY_HIDE_FLAG: Hide Unnamed NPC (ID: 17719833/0x010E6219)
253: 0x0686 [0x4E] SET_ENTITY_HIDE_FLAG: Hide Unnamed NPC (ID: 17719834/0x010E621A)
254: 0x068C [0x4E] SET_ENTITY_HIDE_FLAG: Hide Unnamed NPC (ID: 17719835/0x010E621B)
255: 0x0692 [0x4E] SET_ENTITY_HIDE_FLAG: Hide Unnamed NPC (ID: 17719836/0x010E621C)
256: 0x0698 [0x4E] SET_ENTITY_HIDE_FLAG: Hide Unnamed NPC (ID: 17719837/0x010E621D)
257: 0x069E [0x4E] SET_ENTITY_HIDE_FLAG: Hide Unnamed NPC (ID: 17719827/0x010E6213)
258: 0x06A4 [0x4E] SET_ENTITY_HIDE_FLAG: Hide Unnamed NPC (ID: 17719828/0x010E6214)
259: 0x06AA [0x4E] SET_ENTITY_HIDE_FLAG: Hide Unnamed NPC (ID: 17719821/0x010E620D)
260: 0x06B0 [0x4E] SET_ENTITY_HIDE_FLAG: Hide Unnamed NPC (ID: 17719824/0x010E6210)
261: 0x06B6 [0x4E] SET_ENTITY_HIDE_FLAG: Hide Unnamed NPC (ID: 17719822/0x010E620E)
262: 0x06BC [0x4E] SET_ENTITY_HIDE_FLAG: Hide Unnamed NPC (ID: 17719823/0x010E620F)
263: 0x06C2 [0x4E] SET_ENTITY_HIDE_FLAG: Hide Unnamed NPC (ID: 17719825/0x010E6211)
264: 0x06C8 [0x4E] SET_ENTITY_HIDE_FLAG: Hide Unnamed NPC (ID: 17719826/0x010E6212)
265: 0x06CE [0x2F] Unnamed NPC (ID: 17719821/0x010E620D)->Render.Flags0 |= 0x80000 // Bit 19
266: 0x06D4 [0x2F] Unnamed NPC (ID: 17719824/0x010E6210)->Render.Flags0 |= 0x80000 // Bit 19
267: 0x06DA [0x2F] Unnamed NPC (ID: 17719822/0x010E620E)->Render.Flags0 |= 0x80000 // Bit 19
268: 0x06E0 [0x2F] Unnamed NPC (ID: 17719823/0x010E620F)->Render.Flags0 |= 0x80000 // Bit 19
269: 0x06E6 [0x2F] Unnamed NPC (ID: 17719825/0x010E6211)->Render.Flags0 |= 0x80000 // Bit 19
270: 0x06EC [0x2F] Unnamed NPC (ID: 17719826/0x010E6212)->Render.Flags0 |= 0x80000 // Bit 19
271: 0x06F2 [0x38] SET_CLIENT_EVENT_MODE(mode=0*)
272: 0x06F5 [0x46] CAMERA_CONTROL: Restore default settings
273: 0x06F7 [0x1C] WAIT(120* ticks)
274: 0x06FA [0x45] LOAD_SCHEDULED_TASK: Load scheduler "fdi0" with entities [EventEntity, EventEntity], work=[200*, 0*]
275: 0x070B [0x55] WAIT_LOAD_SCHEDULER: Wait for scheduler "fdi0" with entities [EventEntity, EventEntity], work=200*
276: 0x071A [0x02] IF !(Work_Zone[80] == 2*) GOTO 0x0732
277: 0x0722 [0x03] Work_Zone[2] = (LocalPlayer->Render.Flags01 >> 25) & 1
278: 0x0727 [0x1D] PRINT_EVENT_MESSAGE(message_id=13477*)
    → "There wasn't anything different when you pushed the button."
279: 0x072A [0x23] WAIT_FOR_DIALOG_INTERACTION
280: 0x072B [0x1D] PRINT_EVENT_MESSAGE(message_id=13475*)
    → "Please come again."
281: 0x072E [0x23] WAIT_FOR_DIALOG_INTERACTION
282: 0x072F [0x01] GOTO 0x07FA
283: 0x0732 [0x02] IF !(Work_Zone[83] == 0*) GOTO 0x0794
284: 0x073A [0x02] IF !(Work_Zone[81] < 7*) GOTO 0x077A
285: 0x0742 [0x03] Work_Zone[2] = 0*
286: 0x0747 [0x03] Work_Zone[3] = (LocalPlayer->Render.Flags01 >> 25) & 1
287: 0x074C [0x03] Work_Zone[4] = Work_Zone[81]
288: 0x0751 [0x1D] PRINT_EVENT_MESSAGE(message_id=13472*)
    → "[Good job!/Too bad!] You spotted $2 [difference/differences]."
289: 0x0754 [0x23] WAIT_FOR_DIALOG_INTERACTION
290: 0x0755 [0x02] IF !(ExtData[1]->WorkLocal[2] >= Work_Zone[81]) GOTO 0x076A
291: 0x075D [0x1D] PRINT_EVENT_MESSAGE(message_id=13473*)
    → "It's a new record! Congratulations!"
292: 0x0760 [0x23] WAIT_FOR_DIALOG_INTERACTION
293: 0x0761 [0x40] SET_BIT_WORK_RANGE(start_bit=2*, end_bit=9*, target=Work_Zone[1], source=Work_Zone[81])
294: 0x076A [0x1D] PRINT_EVENT_MESSAGE(message_id=13474*)
    → "Here's your prize."
295: 0x076D [0x23] WAIT_FOR_DIALOG_INTERACTION
296: 0x076E [0x40] SET_BIT_WORK_RANGE(start_bit=0*, end_bit=1*, target=Work_Zone[1], source=0*)
297: 0x0777 [0x01] GOTO 0x0791
298: 0x077A [0x03] Work_Zone[2] = 1*
299: 0x077F [0x03] Work_Zone[3] = (LocalPlayer->Render.Flags01 >> 25) & 1
300: 0x0784 [0x03] Work_Zone[4] = Work_Zone[81]
301: 0x0789 [0x1D] PRINT_EVENT_MESSAGE(message_id=13472*)
    → "[Good job!/Too bad!] You spotted $2 [difference/differences]."
302: 0x078C [0x23] WAIT_FOR_DIALOG_INTERACTION
303: 0x078D [0x1D] PRINT_EVENT_MESSAGE(message_id=13475*)
    → "Please come again."
304: 0x0790 [0x23] WAIT_FOR_DIALOG_INTERACTION

SUBROUTINE_0791:
305: 0x0791 [0x01] GOTO 0x07FA
306: 0x0794 [0x02] IF !(Work_Zone[81] < 9*) GOTO 0x07E3
307: 0x079C [0x03] Work_Zone[2] = 0*
308: 0x07A1 [0x03] Work_Zone[3] = (LocalPlayer->Render.Flags01 >> 25) & 1
309: 0x07A6 [0x03] Work_Zone[4] = Work_Zone[81]
310: 0x07AB [0x1D] PRINT_EVENT_MESSAGE(message_id=13472*)
    → "[Good job!/Too bad!] You spotted $2 [difference/differences]."
311: 0x07AE [0x23] WAIT_FOR_DIALOG_INTERACTION
312: 0x07AF [0x02] IF !(ExtData[1]->WorkLocal[3] >= Work_Zone[81]) GOTO 0x07C4
313: 0x07B7 [0x1D] PRINT_EVENT_MESSAGE(message_id=13473*)
    → "It's a new record! Congratulations!"
314: 0x07BA [0x23] WAIT_FOR_DIALOG_INTERACTION
315: 0x07BB [0x40] SET_BIT_WORK_RANGE(start_bit=10*, end_bit=17*, target=Work_Zone[1], source=Work_Zone[81])
316: 0x07C4 [0x02] IF !(ExtData[1]->WorkLocal[4] == 0*) GOTO 0x07D3
317: 0x07CC [0x1D] PRINT_EVENT_MESSAGE(message_id=13490*)
    → "Just when I thought the day couldn't get any warmer, you come and turn the heat up to sizzling! Here's your hard-earned prize, adventurer. May it always keep you cool."
318: 0x07CF [0x23] WAIT_FOR_DIALOG_INTERACTION
319: 0x07D0 [0x01] GOTO 0x07D7
320: 0x07D3 [0x1D] PRINT_EVENT_MESSAGE(message_id=13474*)
    → "Here's your prize."
321: 0x07D6 [0x23] WAIT_FOR_DIALOG_INTERACTION

SUBROUTINE_07D7:
322: 0x07D7 [0x40] SET_BIT_WORK_RANGE(start_bit=0*, end_bit=1*, target=Work_Zone[1], source=1*)
323: 0x07E0 [0x01] GOTO 0x07FA
324: 0x07E3 [0x03] Work_Zone[2] = 1*
325: 0x07E8 [0x03] Work_Zone[3] = (LocalPlayer->Render.Flags01 >> 25) & 1
326: 0x07ED [0x03] Work_Zone[4] = Work_Zone[81]
327: 0x07F2 [0x1D] PRINT_EVENT_MESSAGE(message_id=13472*)
    → "[Good job!/Too bad!] You spotted $2 [difference/differences]."
328: 0x07F5 [0x23] WAIT_FOR_DIALOG_INTERACTION
329: 0x07F6 [0x1D] PRINT_EVENT_MESSAGE(message_id=13475*)
    → "Please come again."
330: 0x07F9 [0x23] WAIT_FOR_DIALOG_INTERACTION

SUBROUTINE_07FA:
331: 0x07FA [0x1B] RETURN
```

#### Data or dead code:

```
# Dead code (unreachable instructions):
     0x007A [0x01] GOTO 0x0193
# Dead code (unreachable instructions):
     0x00C6 [0x01] GOTO 0x00E0
     0x00DD [0x01] GOTO 0x00E0
# Dead code (unreachable instructions):
     0x00E3 [0x01] GOTO 0x0193
     0x0113 [0x01] GOTO 0x0116
# Dead code (unreachable instructions):
     0x0167 [0x01] GOTO 0x016A
# Dead code (unreachable instructions):
     0x01C2 [0x01] GOTO 0x0230
     0x01D9 [0x01] GOTO 0x0230
     0x0209 [0x01] GOTO 0x020C
```
