# 17719507

## Common Data

| Field            | Value                         |
|------------------|-------------------------------|
| Zone             | Southern San d'Oria (ID: 230) |
| Block Size       | 124 bytes                     |
| Total Events     | 2                             |
| References Count | 7                             |

## List of Events

| Event ID              | Entrypoint   |   Size |   Instructions |
|-----------------------|--------------|--------|----------------|
| [65535](#event-65535) | 0x0000       |      1 |              1 |
| [41](#event-41)       | 0x0001       |     68 |             19 |

## DAT References (imed_data)

|   Index | Hex Value   |   Dec Value |
|---------|-------------|-------------|
|       0 | 0x23D2      |        9170 |
|       1 | 0x0002      |           2 |
|       2 | 0x0000      |           0 |
|       3 | 0x23D1      |        9169 |
|       4 | 0x0001      |           1 |
|       5 | 0x23D3      |        9171 |
|       6 | 0x23D4      |        9172 |

## String References

- **9169**: Further inspection reveals that all the paintings here are from the same artist.
- **9170**: What now? [Examine the painting./Look behind the frame./Nothing.]
- **9171**: You find an envelope with nothing written on it.
- **9172**: What now? [Open and examine./Leave it be.]

## Events

### Event 65535

#### Metadata

| Field        | Value   |
|--------------|---------|
| Entrypoint   | 0x0000  |
| Data Size    | 1 bytes |
| Instructions | 1       |

```
      00 01 02 03 04 05 06 07  08 09 0A 0B 0C 0D 0E 0F
      -- -- -- -- -- -- -- --  -- -- -- -- -- -- -- --
0000: 00                                                .               
```

#### Opcodes

```
  0: 0x0000 [0x00] END_REQSTACK()
```

### Event 41

#### Metadata

| Field        | Value    |
|--------------|----------|
| Entrypoint   | 0x0001   |
| Data Size    | 68 bytes |
| Instructions | 19       |

```
      00 01 02 03 04 05 06 07  08 09 0A 0B 0C 0D 0E 0F
      -- -- -- -- -- -- -- --  -- -- -- -- -- -- -- --
0000:    42 06 01 10 24 00 80  01 80 02 80 25 02 00 10   B...$......%...
0010: 02 80 00 1C 00 48 03 80  23 01 43 00 02 00 10 04  .....H..#.C.....
0020: 80 00 43 00 48 05 80 23  24 06 80 04 80 02 80 25  ..C.H..#$......%
0030: 02 00 10 02 80 00 40 00  03 01 10 04 80 01 40 00  ......@.......@.
0040: 01 43 00 21 00                                    .C.!.           
```

#### Opcodes

```
  0: 0x0001 [0x42] SET_CLI_EVENT_CANCEL_DATA()
  1: 0x0002 [0x06] Work_Zone[1] = 0
  2: 0x0005 [0x24] CREATE_DIALOG(message_id=9170*, default_option=2*, option_flags=0*)
    → "What now? [Examine the painting./Look behind the frame./Nothing.]"
  3: 0x000C [0x25] WAIT_DIALOG_SELECT()
  4: 0x000D [0x02] IF !(Work_Zone[0] == 0*) GOTO 0x001C
  5: 0x0015 [0x48] [System] [9169*]:
    → "Further inspection reveals that all the paintings here are from the same artist."
  6: 0x0018 [0x23] WAIT_FOR_DIALOG_INTERACTION
  7: 0x0019 [0x01] GOTO 0x0043
  8: 0x001C [0x02] IF !(Work_Zone[0] == 1*) GOTO 0x0043
  9: 0x0024 [0x48] [System] [9171*]:
    → "You find an envelope with nothing written on it."
 10: 0x0027 [0x23] WAIT_FOR_DIALOG_INTERACTION
 11: 0x0028 [0x24] CREATE_DIALOG(message_id=9172*, default_option=1*, option_flags=0*)
    → "What now? [Open and examine./Leave it be.]"
 12: 0x002F [0x25] WAIT_DIALOG_SELECT()
 13: 0x0030 [0x02] IF !(Work_Zone[0] == 0*) GOTO 0x0040
 14: 0x0038 [0x03] Work_Zone[1] = 1*
 15: 0x003D [0x01] GOTO 0x0040

SUBROUTINE_0040:
 16: 0x0040 [0x01] GOTO 0x0043

SUBROUTINE_0043:
 17: 0x0043 [0x21] END_EVENT
 18: 0x0044 [0x00] END_REQSTACK()
```
