# 17719580

## Common Data

| Field            | Value                         |
|------------------|-------------------------------|
| Zone             | Southern San d'Oria (ID: 230) |
| Block Size       | 1368 bytes                    |
| Total Events     | 26                            |
| References Count | 122                           |

## List of Events

| Event ID                   | Entrypoint   |   Size |   Instructions |
|----------------------------|--------------|--------|----------------|
| [65535](#event-65535)      | 0x0000       |      1 |              1 |
| [827](#event-827)          | 0x0001       |      1 |              1 |
| [823](#event-823)          | 0x0002       |      1 |              1 |
| [65535.1](#event-655351)   | 0x0003       |     15 |              2 |
| [65535.2](#event-655352)   | 0x0012       |     11 |              3 |
| [65535.3](#event-655353)   | 0x001D       |     15 |              3 |
| [65535.4](#event-655354)   | 0x002C       |    121 |             24 |
| [65535.5](#event-655355)   | 0x00A5       |    121 |             24 |
| [65535.6](#event-655356)   | 0x011E       |     15 |              3 |
| [65535.7](#event-655357)   | 0x012D       |     14 |              4 |
| [65535.8](#event-655358)   | 0x013B       |     11 |              3 |
| [65535.9](#event-655359)   | 0x0146       |     11 |              3 |
| [65535.10](#event-6553510) | 0x0151       |     11 |              3 |
| [65535.11](#event-6553511) | 0x015C       |     14 |              4 |
| [65535.12](#event-6553512) | 0x016A       |     15 |              3 |
| [861](#event-861)          | 0x0179       |      1 |              1 |
| [65535.13](#event-6553513) | 0x017A       |     15 |              3 |
| [65535.14](#event-6553514) | 0x0189       |     45 |             10 |
| [65535.15](#event-6553515) | 0x01B6       |      6 |              2 |
| [65535.16](#event-6553516) | 0x01BC       |     20 |              4 |
| [65535.17](#event-6553517) | 0x01D0       |     80 |             18 |
| [65535.18](#event-6553518) | 0x0220       |     67 |             15 |
| [65535.19](#event-6553519) | 0x0263       |     14 |              4 |
| [65535.20](#event-6553520) | 0x0271       |     51 |             11 |
| [65535.21](#event-6553521) | 0x02A4       |     15 |              3 |
| [65535.22](#event-6553522) | 0x02B3       |     69 |             15 |

## DAT References (imed_data)

|   Index | Hex Value   |   Dec Value |
|---------|-------------|-------------|
|       0 | 0x0000      |           0 |
|       1 | 0x3EC8      |       16072 |
|       2 | 0xFFFE9096  |  4294873238 |
|       3 | 0x0897      |        2199 |
|       4 | 0x0079      |         121 |
|       5 | 0x0046      |          70 |
|       6 | 0x5688      |       22152 |
|       7 | 0xFFFE8963  |  4294871395 |
|       8 | 0x59FA      |       23034 |
|       9 | 0xFFFE9703  |  4294874883 |
|      10 | 0x20CA      |        8394 |
|      11 | 0xFFFEA6F2  |  4294878962 |
|      12 | 0x1A0A      |        6666 |
|      13 | 0xFFFEA628  |  4294878760 |
|      14 | 0x1971      |        6513 |
|      15 | 0xFFFEA380  |  4294878080 |
|      16 | 0x22EC      |        8940 |
|      17 | 0xFFFE9A5B  |  4294875739 |
|      18 | 0x2C7E      |       11390 |
|      19 | 0xFFFE96C5  |  4294874821 |
|      20 | 0x4D5E      |       19806 |
|      21 | 0xFFFE8BA4  |  4294871972 |
|      22 | 0x6F5C      |       28508 |
|      23 | 0xFFFE76B3  |  4294866611 |
|      24 | 0x07E8      |        2024 |
|      25 | 0x64EB      |       25835 |
|      26 | 0xFFFE78BB  |  4294867131 |
|      27 | 0x54AB      |       21675 |
|      28 | 0xFFFE778A  |  4294866826 |
|      29 | 0x4807      |       18439 |
|      30 | 0xFFFE769E  |  4294866590 |
|      31 | 0x3C77      |       15479 |
|      32 | 0xFFFE755D  |  4294866269 |
|      33 | 0x6660      |       26208 |
|      34 | 0xFFFE8DA3  |  4294872483 |
|      35 | 0xFFF80A2B  |  4294445611 |
|      36 | 0xFFF99322  |  4294546210 |
|      37 | 0x03B0      |         944 |
|      38 | 0x0E30      |        3632 |
|      39 | 0xFFF6D458  |  4294366296 |
|      40 | 0x94B18     |      609048 |
|      41 | 0x00FA      |         250 |
|      42 | 0x09E7      |        2535 |
|      43 | 0x0002      |           2 |
|      44 | 0x000F      |          15 |
|      45 | 0xFFF6CD5C  |  4294364508 |
|      46 | 0x95040     |      610368 |
|      47 | 0x013C      |         316 |
|      48 | 0xFFF6C2ED  |  4294361837 |
|      49 | 0x93B8C     |      605068 |
|      50 | 0x007B      |         123 |
|      51 | 0xFFF6CB21  |  4294363937 |
|      52 | 0x94810     |      608272 |
|      53 | 0x00D3      |         211 |
|      54 | 0xFFF6D7C0  |  4294367168 |
|      55 | 0x8EF6A     |      585578 |
|      56 | 0x0274      |         628 |
|      57 | 0x011C      |         284 |
|      58 | 0xFFF6D0CA  |  4294365386 |
|      59 | 0x8F7DF     |      587743 |
|      60 | 0x0112      |         274 |
|      61 | 0xFFF6D779  |  4294367097 |
|      62 | 0x8FCC2     |      588994 |
|      63 | 0x015B      |         347 |
|      64 | 0xFFF6DB55  |  4294368085 |
|      65 | 0x8F169     |      586089 |
|      66 | 0x024A      |         586 |
|      67 | 0xFFF6DAA1  |  4294367905 |
|      68 | 0x8E6CF     |      583375 |
|      69 | 0x033E      |         830 |
|      70 | 0x001E      |          30 |
|      71 | 0x0C58      |        3160 |
|      72 | 0x0078      |         120 |
|      73 | 0xFFF6D069  |  4294365289 |
|      74 | 0x8F7F4     |      587764 |
|      75 | 0x010C      |         268 |
|      76 | 0x0154      |         340 |
|      77 | 0x002D      |          45 |
|      78 | 0xFFF6DB01  |  4294368001 |
|      79 | 0x90356     |      590678 |
|      80 | 0x0108      |         264 |
|      81 | 0x03BF      |         959 |
|      82 | 0x003C      |          60 |
|      83 | 0xFFF6C73F  |  4294362943 |
|      84 | 0x8F234     |      586292 |
|      85 | 0x008A      |         138 |
|      86 | 0x0025      |          37 |
|      87 | 0x00F0      |         240 |
|      88 | 0xFFF6D6F8  |  4294366968 |
|      89 | 0x8E30A     |      582410 |
|      90 | 0x0322      |         802 |
|      91 | 0x0BD3      |        3027 |
|      92 | 0xFFF6DB94  |  4294368148 |
|      93 | 0x8FCF3     |      589043 |
|      94 | 0x0159      |         345 |
|      95 | 0xFFF6C79F  |  4294363039 |
|      96 | 0x8F34D     |      586573 |
|      97 | 0x0039      |          57 |
|      98 | 0xFFF6CB4A  |  4294363978 |
|      99 | 0x8FAEF     |      588527 |
|     100 | 0x00C4      |         196 |
|     101 | 0xFFF6D269  |  4294365801 |
|     102 | 0x8F138     |      586040 |
|     103 | 0x01F0      |         496 |
|     104 | 0xFFF6CEAA  |  4294364842 |
|     105 | 0x8FA2D     |      588333 |
|     106 | 0x00F7      |         247 |
|     107 | 0xFFF6CA0E  |  4294363662 |
|     108 | 0x8EFB9     |      585657 |
|     109 | 0x0090      |         144 |
|     110 | 0xFFF6CECB  |  4294364875 |
|     111 | 0x8E418     |      582680 |
|     112 | 0x018C      |         396 |
|     113 | 0xFFF6DB79  |  4294368121 |
|     114 | 0x8E4F3     |      582899 |
|     115 | 0x0356      |         854 |
|     116 | 0xFFF6DE60  |  4294368864 |
|     117 | 0x8F7D9     |      587737 |
|     118 | 0x019A      |         410 |
|     119 | 0xFFF6D8AE  |  4294367406 |
|     120 | 0x8FE78     |      589432 |
|     121 | 0x0146      |         326 |

## Events

### Event 65535

#### Metadata

| Field        | Value   |
|--------------|---------|
| Entrypoint   | 0x0000  |
| Data Size    | 1 bytes |
| Instructions | 1       |

```
      00 01 02 03 04 05 06 07  08 09 0A 0B 0C 0D 0E 0F
      -- -- -- -- -- -- -- --  -- -- -- -- -- -- -- --
0000: 00                                                .               
```

#### Opcodes

```
  0: 0x0000 [0x00] END_REQSTACK()
```

### Event 827

#### Metadata

| Field        | Value   |
|--------------|---------|
| Entrypoint   | 0x0001  |
| Data Size    | 1 bytes |
| Instructions | 1       |

```
      00 01 02 03 04 05 06 07  08 09 0A 0B 0C 0D 0E 0F
      -- -- -- -- -- -- -- --  -- -- -- -- -- -- -- --
0000:    00                                              .              
```

#### Opcodes

```
  0: 0x0001 [0x00] END_REQSTACK()
```

### Event 823

#### Metadata

| Field        | Value   |
|--------------|---------|
| Entrypoint   | 0x0002  |
| Data Size    | 1 bytes |
| Instructions | 1       |

```
      00 01 02 03 04 05 06 07  08 09 0A 0B 0C 0D 0E 0F
      -- -- -- -- -- -- -- --  -- -- -- -- -- -- -- --
0000:       00                                            .             
```

#### Opcodes

```
  0: 0x0002 [0x00] END_REQSTACK()
```

### Event 65535.1

#### Metadata

| Field        | Value    |
|--------------|----------|
| Entrypoint   | 0x0003   |
| Data Size    | 15 bytes |
| Instructions | 2        |

```
      00 01 02 03 04 05 06 07  08 09 0A 0B 0C 0D 0E 0F
      -- -- -- -- -- -- -- --  -- -- -- -- -- -- -- --
0000:          B6 0D 04 10 05  10 06 10 07 10 08 10 09     .............
0010: 10 00                                             ..              
```

#### Opcodes

```
  0: 0x0003 [0xB6] ENTITY_APPEARANCE_HANDLER(case=Look with Render flags, race=Work_Zone[4], face=Work_Zone[5], head=Work_Zone[6], body=Work_Zone[7], hands=Work_Zone[8], render_flags=0x1009)
  1: 0x0011 [0x00] END_REQSTACK()
```

### Event 65535.2

#### Metadata

| Field        | Value    |
|--------------|----------|
| Entrypoint   | 0x0012   |
| Data Size    | 11 bytes |
| Instructions | 3        |

```
      00 01 02 03 04 05 06 07  08 09 0A 0B 0C 0D 0E 0F
      -- -- -- -- -- -- -- --  -- -- -- -- -- -- -- --
0010:       B4 01 00 00 00 80  B5 00 00 00 00             ...........   
```

#### Opcodes

```
  0: 0x0012 [0xB4] UI_WINDOW_STRING_HANDLER(case=0x01 - Copy string from event strings table, work_offset=ExtData[1]->WorkLocal[0], string_index=0*)
  1: 0x0018 [0xB5] SET_EVENT_ENTITY_NAME: Change EventEntity name to ExtData[1]->WorkLocal[0]
  2: 0x001C [0x00] END_REQSTACK()
```

### Event 65535.3

#### Metadata

| Field        | Value    |
|--------------|----------|
| Entrypoint   | 0x001D   |
| Data Size    | 15 bytes |
| Instructions | 3        |

```
      00 01 02 03 04 05 06 07  08 09 0A 0B 0C 0D 0E 0F
      -- -- -- -- -- -- -- --  -- -- -- -- -- -- -- --
0010:                                         37 01 80               7..
0020: 02 80 03 80 04 80 80 F8  FF FF 7F 00              ............    
```

#### Opcodes

```
  0: 0x001D [0x37] UPDATE_EVENT_POSITION_AND_DIR: x=16.072*, z=-94.058*, y=2.199*, direction=10.6°*
  1: 0x0026 [0x80] LOAD_WAIT(entity=EventEntity)
  2: 0x002B [0x00] END_REQSTACK()
```

### Event 65535.4

#### Metadata

| Field        | Value     |
|--------------|-----------|
| Entrypoint   | 0x002C    |
| Data Size    | 121 bytes |
| Instructions | 24        |

```
      00 01 02 03 04 05 06 07  08 09 0A 0B 0C 0D 0E 0F
      -- -- -- -- -- -- -- --  -- -- -- -- -- -- -- --
0020:                                      32 05 80 1F              2...
0030: 00 06 80 07 80 03 80 1F  01 1F 00 08 80 09 80 03  ................
0040: 80 1F 01 1F 00 0A 80 0B  80 03 80 1F 01 1F 00 0C  ................
0050: 80 0D 80 03 80 1F 01 1F  00 0E 80 0F 80 03 80 1F  ................
0060: 01 1F 00 10 80 11 80 03  80 1F 01 1F 00 12 80 13  ................
0070: 80 03 80 1F 01 1F 00 01  80 02 80 03 80 1F 01 1F  ................
0080: 00 14 80 15 80 03 80 1F  01 02 4D 10 00 80 00 9B  ..........M.....
0090: 00 27 05 1C 61 0E 01 07  01 A4 00 37 00 80 00 80  .'..a......7....
00A0: 00 80 00 80 00                                    .....           
```

#### Opcodes

```
  0: 0x002C [0x32] ExtData[1]->MainSpeed = 70* * 0.1
  1: 0x002F [0x1F] MOVE_ENTITY: EventEntity moves to X=22.152*, Z=-95.901*, Y=2.199*
  2: 0x0037 [0x1F] MOVE_ENTITY: Update entity position (mode=1)
  3: 0x0039 [0x1F] MOVE_ENTITY: EventEntity moves to X=23.034*, Z=-92.413*, Y=2.199*
  4: 0x0041 [0x1F] MOVE_ENTITY: Update entity position (mode=1)
  5: 0x0043 [0x1F] MOVE_ENTITY: EventEntity moves to X=8.394*, Z=-88.334*, Y=2.199*
  6: 0x004B [0x1F] MOVE_ENTITY: Update entity position (mode=1)
  7: 0x004D [0x1F] MOVE_ENTITY: EventEntity moves to X=6.666*, Z=-88.536*, Y=2.199*
  8: 0x0055 [0x1F] MOVE_ENTITY: Update entity position (mode=1)
  9: 0x0057 [0x1F] MOVE_ENTITY: EventEntity moves to X=6.513*, Z=-89.216*, Y=2.199*
 10: 0x005F [0x1F] MOVE_ENTITY: Update entity position (mode=1)
 11: 0x0061 [0x1F] MOVE_ENTITY: EventEntity moves to X=8.940*, Z=-91.557*, Y=2.199*
 12: 0x0069 [0x1F] MOVE_ENTITY: Update entity position (mode=1)
 13: 0x006B [0x1F] MOVE_ENTITY: EventEntity moves to X=11.390*, Z=-92.475*, Y=2.199*
 14: 0x0073 [0x1F] MOVE_ENTITY: Update entity position (mode=1)
 15: 0x0075 [0x1F] MOVE_ENTITY: EventEntity moves to X=16.072*, Z=-94.058*, Y=2.199*
 16: 0x007D [0x1F] MOVE_ENTITY: Update entity position (mode=1)
 17: 0x007F [0x1F] MOVE_ENTITY: EventEntity moves to X=19.806*, Z=-95.324*, Y=2.199*
 18: 0x0087 [0x1F] MOVE_ENTITY: Update entity position (mode=1)
 19: 0x0089 [0x02] IF !(Work_Zone[77] == 0*) GOTO 0x009B
 20: 0x0091 [0x27] REQ_SET(priority=0x05, entity_id=Unnamed NPC (ID: 17719580/0x010E611C), tag_num=0x07)
 21: 0x0098 [0x01] GOTO 0x00A4
 22: 0x009B [0x37] UPDATE_EVENT_POSITION_AND_DIR: x=0.000*, z=0.000*, y=0.000*, direction=0.0°*

SUBROUTINE_00A4:
 23: 0x00A4 [0x00] END_REQSTACK()
```

### Event 65535.5

#### Metadata

| Field        | Value     |
|--------------|-----------|
| Entrypoint   | 0x00A5    |
| Data Size    | 121 bytes |
| Instructions | 24        |

```
      00 01 02 03 04 05 06 07  08 09 0A 0B 0C 0D 0E 0F
      -- -- -- -- -- -- -- --  -- -- -- -- -- -- -- --
00A0:                32 05 80  1F 00 06 80 07 80 03 80       2..........
00B0: 1F 01 1F 00 08 80 09 80  03 80 1F 01 1F 00 0A 80  ................
00C0: 0B 80 03 80 1F 01 1F 00  0C 80 0D 80 03 80 1F 01  ................
00D0: 1F 00 0E 80 0F 80 03 80  1F 01 1F 00 10 80 11 80  ................
00E0: 03 80 1F 01 1F 00 12 80  13 80 03 80 1F 01 1F 00  ................
00F0: 01 80 02 80 03 80 1F 01  1F 00 14 80 15 80 03 80  ................
0100: 1F 01 02 4D 10 00 80 00  14 01 27 05 1C 61 0E 01  ...M......'..a..
0110: 06 01 1D 01 37 00 80 00  80 00 80 00 80 00        ....7.........  
```

#### Opcodes

```
  0: 0x00A5 [0x32] ExtData[1]->MainSpeed = 70* * 0.1
  1: 0x00A8 [0x1F] MOVE_ENTITY: EventEntity moves to X=22.152*, Z=-95.901*, Y=2.199*
  2: 0x00B0 [0x1F] MOVE_ENTITY: Update entity position (mode=1)
  3: 0x00B2 [0x1F] MOVE_ENTITY: EventEntity moves to X=23.034*, Z=-92.413*, Y=2.199*
  4: 0x00BA [0x1F] MOVE_ENTITY: Update entity position (mode=1)
  5: 0x00BC [0x1F] MOVE_ENTITY: EventEntity moves to X=8.394*, Z=-88.334*, Y=2.199*
  6: 0x00C4 [0x1F] MOVE_ENTITY: Update entity position (mode=1)
  7: 0x00C6 [0x1F] MOVE_ENTITY: EventEntity moves to X=6.666*, Z=-88.536*, Y=2.199*
  8: 0x00CE [0x1F] MOVE_ENTITY: Update entity position (mode=1)
  9: 0x00D0 [0x1F] MOVE_ENTITY: EventEntity moves to X=6.513*, Z=-89.216*, Y=2.199*
 10: 0x00D8 [0x1F] MOVE_ENTITY: Update entity position (mode=1)
 11: 0x00DA [0x1F] MOVE_ENTITY: EventEntity moves to X=8.940*, Z=-91.557*, Y=2.199*
 12: 0x00E2 [0x1F] MOVE_ENTITY: Update entity position (mode=1)
 13: 0x00E4 [0x1F] MOVE_ENTITY: EventEntity moves to X=11.390*, Z=-92.475*, Y=2.199*
 14: 0x00EC [0x1F] MOVE_ENTITY: Update entity position (mode=1)
 15: 0x00EE [0x1F] MOVE_ENTITY: EventEntity moves to X=16.072*, Z=-94.058*, Y=2.199*
 16: 0x00F6 [0x1F] MOVE_ENTITY: Update entity position (mode=1)
 17: 0x00F8 [0x1F] MOVE_ENTITY: EventEntity moves to X=19.806*, Z=-95.324*, Y=2.199*
 18: 0x0100 [0x1F] MOVE_ENTITY: Update entity position (mode=1)
 19: 0x0102 [0x02] IF !(Work_Zone[77] == 0*) GOTO 0x0114
 20: 0x010A [0x27] REQ_SET(priority=0x05, entity_id=Unnamed NPC (ID: 17719580/0x010E611C), tag_num=0x06)
 21: 0x0111 [0x01] GOTO 0x011D
 22: 0x0114 [0x37] UPDATE_EVENT_POSITION_AND_DIR: x=0.000*, z=0.000*, y=0.000*, direction=0.0°*

SUBROUTINE_011D:
 23: 0x011D [0x00] END_REQSTACK()
```

### Event 65535.6

#### Metadata

| Field        | Value    |
|--------------|----------|
| Entrypoint   | 0x011E   |
| Data Size    | 15 bytes |
| Instructions | 3        |

```
      00 01 02 03 04 05 06 07  08 09 0A 0B 0C 0D 0E 0F
      -- -- -- -- -- -- -- --  -- -- -- -- -- -- -- --
0110:                                            37 16                7.
0120: 80 17 80 03 80 18 80 80  F8 FF FF 7F 00           .............   
```

#### Opcodes

```
  0: 0x011E [0x37] UPDATE_EVENT_POSITION_AND_DIR: x=28.508*, z=-100.685*, y=2.199*, direction=177.9°*
  1: 0x0127 [0x80] LOAD_WAIT(entity=EventEntity)
  2: 0x012C [0x00] END_REQSTACK()
```

### Event 65535.7

#### Metadata

| Field        | Value    |
|--------------|----------|
| Entrypoint   | 0x012D   |
| Data Size    | 14 bytes |
| Instructions | 4        |

```
      00 01 02 03 04 05 06 07  08 09 0A 0B 0C 0D 0E 0F
      -- -- -- -- -- -- -- --  -- -- -- -- -- -- -- --
0120:                                         32 05 80               2..
0130: 1F 00 19 80 1A 80 03 80  1F 01 00                 ...........     
```

#### Opcodes

```
  0: 0x012D [0x32] ExtData[1]->MainSpeed = 70* * 0.1
  1: 0x0130 [0x1F] MOVE_ENTITY: EventEntity moves to X=25.835*, Z=-100.165*, Y=2.199*
  2: 0x0138 [0x1F] MOVE_ENTITY: Update entity position (mode=1)
  3: 0x013A [0x00] END_REQSTACK()
```

### Event 65535.8

#### Metadata

| Field        | Value    |
|--------------|----------|
| Entrypoint   | 0x013B   |
| Data Size    | 11 bytes |
| Instructions | 3        |

```
      00 01 02 03 04 05 06 07  08 09 0A 0B 0C 0D 0E 0F
      -- -- -- -- -- -- -- --  -- -- -- -- -- -- -- --
0130:                                   1F 00 1B 80 1C             .....
0140: 80 03 80 1F 01 00                                 ......          
```

#### Opcodes

```
  0: 0x013B [0x1F] MOVE_ENTITY: EventEntity moves to X=21.675*, Z=-100.470*, Y=2.199*
  1: 0x0143 [0x1F] MOVE_ENTITY: Update entity position (mode=1)
  2: 0x0145 [0x00] END_REQSTACK()
```

### Event 65535.9

#### Metadata

| Field        | Value    |
|--------------|----------|
| Entrypoint   | 0x0146   |
| Data Size    | 11 bytes |
| Instructions | 3        |

```
      00 01 02 03 04 05 06 07  08 09 0A 0B 0C 0D 0E 0F
      -- -- -- -- -- -- -- --  -- -- -- -- -- -- -- --
0140:                   1F 00  1D 80 1E 80 03 80 1F 01        ..........
0150: 00                                                .               
```

#### Opcodes

```
  0: 0x0146 [0x1F] MOVE_ENTITY: EventEntity moves to X=18.439*, Z=-100.706*, Y=2.199*
  1: 0x014E [0x1F] MOVE_ENTITY: Update entity position (mode=1)
  2: 0x0150 [0x00] END_REQSTACK()
```

### Event 65535.10

#### Metadata

| Field        | Value    |
|--------------|----------|
| Entrypoint   | 0x0151   |
| Data Size    | 11 bytes |
| Instructions | 3        |

```
      00 01 02 03 04 05 06 07  08 09 0A 0B 0C 0D 0E 0F
      -- -- -- -- -- -- -- --  -- -- -- -- -- -- -- --
0150:    1F 00 1F 80 20 80 03  80 1F 01 00               .... ......    
```

#### Opcodes

```
  0: 0x0151 [0x1F] MOVE_ENTITY: EventEntity moves to X=15.479*, Z=-101.027*, Y=2.199*
  1: 0x0159 [0x1F] MOVE_ENTITY: Update entity position (mode=1)
  2: 0x015B [0x00] END_REQSTACK()
```

### Event 65535.11

#### Metadata

| Field        | Value    |
|--------------|----------|
| Entrypoint   | 0x015C   |
| Data Size    | 14 bytes |
| Instructions | 4        |

```
      00 01 02 03 04 05 06 07  08 09 0A 0B 0C 0D 0E 0F
      -- -- -- -- -- -- -- --  -- -- -- -- -- -- -- --
0150:                                      32 05 80 1F              2...
0160: 00 21 80 22 80 03 80 1F  01 00                    .!."......      
```

#### Opcodes

```
  0: 0x015C [0x32] ExtData[1]->MainSpeed = 70* * 0.1
  1: 0x015F [0x1F] MOVE_ENTITY: EventEntity moves to X=26.208*, Z=-94.813*, Y=2.199*
  2: 0x0167 [0x1F] MOVE_ENTITY: Update entity position (mode=1)
  3: 0x0169 [0x00] END_REQSTACK()
```

### Event 65535.12

#### Metadata

| Field        | Value    |
|--------------|----------|
| Entrypoint   | 0x016A   |
| Data Size    | 15 bytes |
| Instructions | 3        |

```
      00 01 02 03 04 05 06 07  08 09 0A 0B 0C 0D 0E 0F
      -- -- -- -- -- -- -- --  -- -- -- -- -- -- -- --
0160:                                37 23 80 24 80 25            7#.$.%
0170: 80 26 80 80 F8 FF FF 7F  00                       .&.......       
```

#### Opcodes

```
  0: 0x016A [0x37] UPDATE_EVENT_POSITION_AND_DIR: x=-521.685*, z=-421.086*, y=0.944*, direction=319.2°*
  1: 0x0173 [0x80] LOAD_WAIT(entity=EventEntity)
  2: 0x0178 [0x00] END_REQSTACK()
```

### Event 861

#### Metadata

| Field        | Value   |
|--------------|---------|
| Entrypoint   | 0x0179  |
| Data Size    | 1 bytes |
| Instructions | 1       |

```
      00 01 02 03 04 05 06 07  08 09 0A 0B 0C 0D 0E 0F
      -- -- -- -- -- -- -- --  -- -- -- -- -- -- -- --
0170:                             00                             .      
```

#### Opcodes

```
  0: 0x0179 [0x00] END_REQSTACK()
```

### Event 65535.13

#### Metadata

| Field        | Value    |
|--------------|----------|
| Entrypoint   | 0x017A   |
| Data Size    | 15 bytes |
| Instructions | 3        |

```
      00 01 02 03 04 05 06 07  08 09 0A 0B 0C 0D 0E 0F
      -- -- -- -- -- -- -- --  -- -- -- -- -- -- -- --
0170:                                37 27 80 28 80 29            7'.(.)
0180: 80 2A 80 03 04 00 00 80  00                       .*.......       
```

#### Opcodes

```
  0: 0x017A [0x37] UPDATE_EVENT_POSITION_AND_DIR: x=-601.000*, z=609.048*, y=0.250*, direction=222.8°*
  1: 0x0183 [0x03] ExtData[1]->WorkLocal[4] = 0*
  2: 0x0188 [0x00] END_REQSTACK()
```

### Event 65535.14

#### Metadata

| Field        | Value    |
|--------------|----------|
| Entrypoint   | 0x0189   |
| Data Size    | 45 bytes |
| Instructions | 10       |

```
      00 01 02 03 04 05 06 07  08 09 0A 0B 0C 0D 0E 0F
      -- -- -- -- -- -- -- --  -- -- -- -- -- -- -- --
0180:                             02 04 00 2B 80 01 B5           ...+...
0190: 01 32 2C 80 1F 00 2D 80  2E 80 2F 80 1F 01 1F 00  .2,...-.../.....
01A0: 30 80 31 80 32 80 1F 01  1F 00 33 80 34 80 35 80  0.1.2.....3.4.5.
01B0: 1F 01 01 89 01 00                                 ......          
```

#### Opcodes

```
  0: 0x0189 [0x02] IF !(ExtData[1]->WorkLocal[4] == 2*) GOTO 0x01B5
  1: 0x0191 [0x32] ExtData[1]->MainSpeed = 15* * 0.1
  2: 0x0194 [0x1F] MOVE_ENTITY: EventEntity moves to X=-602.788*, Z=610.368*, Y=0.316*
  3: 0x019C [0x1F] MOVE_ENTITY: Update entity position (mode=1)
  4: 0x019E [0x1F] MOVE_ENTITY: EventEntity moves to X=-605.459*, Z=605.068*, Y=0.123*
  5: 0x01A6 [0x1F] MOVE_ENTITY: Update entity position (mode=1)
  6: 0x01A8 [0x1F] MOVE_ENTITY: EventEntity moves to X=-603.359*, Z=608.272*, Y=0.211*
  7: 0x01B0 [0x1F] MOVE_ENTITY: Update entity position (mode=1)
  8: 0x01B2 [0x01] GOTO 0x0189
  9: 0x01B5 [0x00] END_REQSTACK()
```

### Event 65535.15

#### Metadata

| Field        | Value   |
|--------------|---------|
| Entrypoint   | 0x01B6  |
| Data Size    | 6 bytes |
| Instructions | 2       |

```
      00 01 02 03 04 05 06 07  08 09 0A 0B 0C 0D 0E 0F
      -- -- -- -- -- -- -- --  -- -- -- -- -- -- -- --
01B0:                   03 04  00 2B 80 00                    ...+..    
```

#### Opcodes

```
  0: 0x01B6 [0x03] ExtData[1]->WorkLocal[4] = 2*
  1: 0x01BB [0x00] END_REQSTACK()
```

### Event 65535.16

#### Metadata

| Field        | Value    |
|--------------|----------|
| Entrypoint   | 0x01BC   |
| Data Size    | 20 bytes |
| Instructions | 4        |

```
      00 01 02 03 04 05 06 07  08 09 0A 0B 0C 0D 0E 0F
      -- -- -- -- -- -- -- --  -- -- -- -- -- -- -- --
01B0:                                      37 36 80 37              76.7
01C0: 80 38 80 39 80 80 F8 FF  FF 7F 03 04 00 00 80 00  .8.9............
```

#### Opcodes

```
  0: 0x01BC [0x37] UPDATE_EVENT_POSITION_AND_DIR: x=-600.128*, z=585.578*, y=0.628*, direction=25.0°*
  1: 0x01C5 [0x80] LOAD_WAIT(entity=EventEntity)
  2: 0x01CA [0x03] ExtData[1]->WorkLocal[4] = 0*
  3: 0x01CF [0x00] END_REQSTACK()
```

### Event 65535.17

#### Metadata

| Field        | Value    |
|--------------|----------|
| Entrypoint   | 0x01D0   |
| Data Size    | 80 bytes |
| Instructions | 18       |

```
      00 01 02 03 04 05 06 07  08 09 0A 0B 0C 0D 0E 0F
      -- -- -- -- -- -- -- --  -- -- -- -- -- -- -- --
01D0: 32 2C 80 1F 00 3A 80 3B  80 3C 80 1F 01 1F 00 3D  2,...:.;.<.....=
01E0: 80 3E 80 3F 80 1F 01 1F  00 40 80 41 80 42 80 1F  .>.?.....@.A.B..
01F0: 01 1F 00 43 80 44 80 45  80 1F 01 1C 46 80 4B 1C  ...C.D.E....F.K.
0200: 61 0E 01 47 80 1C 48 80  1F 00 49 80 4A 80 4B 80  a..G..H...I.J.K.
0210: 1F 01 1C 46 80 4B 1C 61  0E 01 4C 80 1C 46 80 00  ...F.K.a..L..F..
```

#### Opcodes

```
  0: 0x01D0 [0x32] ExtData[1]->MainSpeed = 15* * 0.1
  1: 0x01D3 [0x1F] MOVE_ENTITY: EventEntity moves to X=-601.910*, Z=587.743*, Y=0.274*
  2: 0x01DB [0x1F] MOVE_ENTITY: Update entity position (mode=1)
  3: 0x01DD [0x1F] MOVE_ENTITY: EventEntity moves to X=-600.199*, Z=588.994*, Y=0.347*
  4: 0x01E5 [0x1F] MOVE_ENTITY: Update entity position (mode=1)
  5: 0x01E7 [0x1F] MOVE_ENTITY: EventEntity moves to X=-599.211*, Z=586.089*, Y=0.586*
  6: 0x01EF [0x1F] MOVE_ENTITY: Update entity position (mode=1)
  7: 0x01F1 [0x1F] MOVE_ENTITY: EventEntity moves to X=-599.391*, Z=583.375*, Y=0.830*
  8: 0x01F9 [0x1F] MOVE_ENTITY: Update entity position (mode=1)
  9: 0x01FB [0x1C] WAIT(30* ticks)
 10: 0x01FE [0x4B] UPDATE_ENTITY_YAW(entity=Unnamed NPC (ID: 17719580/0x010E611C), yaw=17.4°*)
 11: 0x0205 [0x1C] WAIT(120* ticks)
 12: 0x0208 [0x1F] MOVE_ENTITY: EventEntity moves to X=-602.007*, Z=587.764*, Y=0.268*
 13: 0x0210 [0x1F] MOVE_ENTITY: Update entity position (mode=1)
 14: 0x0212 [0x1C] WAIT(30* ticks)
 15: 0x0215 [0x4B] UPDATE_ENTITY_YAW(entity=Unnamed NPC (ID: 17719580/0x010E611C), yaw=1.9°*)
 16: 0x021C [0x1C] WAIT(30* ticks)
 17: 0x021F [0x00] END_REQSTACK()
```

### Event 65535.18

#### Metadata

| Field        | Value    |
|--------------|----------|
| Entrypoint   | 0x0220   |
| Data Size    | 67 bytes |
| Instructions | 15       |

```
      00 01 02 03 04 05 06 07  08 09 0A 0B 0C 0D 0E 0F
      -- -- -- -- -- -- -- --  -- -- -- -- -- -- -- --
0220: 32 4D 80 1F 00 4E 80 4F  80 50 80 1F 01 4B 1C 61  2M...N.O.P...K.a
0230: 0E 01 51 80 1C 52 80 1F  00 53 80 54 80 55 80 1F  ..Q..R...S.T.U..
0240: 01 4B 1C 61 0E 01 56 80  1C 57 80 1F 00 58 80 59  .K.a..V..W...X.Y
0250: 80 5A 80 1F 01 1C 46 80  4B 1C 61 0E 01 5B 80 1C  .Z....F.K.a..[..
0260: 52 80 00                                          R..             
```

#### Opcodes

```
  0: 0x0220 [0x32] ExtData[1]->MainSpeed = 45* * 0.1
  1: 0x0223 [0x1F] MOVE_ENTITY: EventEntity moves to X=-599.295*, Z=590.678*, Y=0.264*
  2: 0x022B [0x1F] MOVE_ENTITY: Update entity position (mode=1)
  3: 0x022D [0x4B] UPDATE_ENTITY_YAW(entity=Unnamed NPC (ID: 17719580/0x010E611C), yaw=5.3°*)
  4: 0x0234 [0x1C] WAIT(60* ticks)
  5: 0x0237 [0x1F] MOVE_ENTITY: EventEntity moves to X=-604.353*, Z=586.292*, Y=0.138*
  6: 0x023F [0x1F] MOVE_ENTITY: Update entity position (mode=1)
  7: 0x0241 [0x4B] UPDATE_ENTITY_YAW(entity=Unnamed NPC (ID: 17719580/0x010E611C), yaw=0.2°*)
  8: 0x0248 [0x1C] WAIT(240* ticks)
  9: 0x024B [0x1F] MOVE_ENTITY: EventEntity moves to X=-600.328*, Z=582.410*, Y=0.802*
 10: 0x0253 [0x1F] MOVE_ENTITY: Update entity position (mode=1)
 11: 0x0255 [0x1C] WAIT(30* ticks)
 12: 0x0258 [0x4B] UPDATE_ENTITY_YAW(entity=Unnamed NPC (ID: 17719580/0x010E611C), yaw=16.6°*)
 13: 0x025F [0x1C] WAIT(60* ticks)
 14: 0x0262 [0x00] END_REQSTACK()
```

### Event 65535.19

#### Metadata

| Field        | Value    |
|--------------|----------|
| Entrypoint   | 0x0263   |
| Data Size    | 14 bytes |
| Instructions | 4        |

```
      00 01 02 03 04 05 06 07  08 09 0A 0B 0C 0D 0E 0F
      -- -- -- -- -- -- -- --  -- -- -- -- -- -- -- --
0260:          32 4D 80 1F 00  5C 80 5D 80 5E 80 1F 01     2M...\.].^...
0270: 00                                                .               
```

#### Opcodes

```
  0: 0x0263 [0x32] ExtData[1]->MainSpeed = 45* * 0.1
  1: 0x0266 [0x1F] MOVE_ENTITY: EventEntity moves to X=-599.148*, Z=589.043*, Y=0.345*
  2: 0x026E [0x1F] MOVE_ENTITY: Update entity position (mode=1)
  3: 0x0270 [0x00] END_REQSTACK()
```

### Event 65535.20

#### Metadata

| Field        | Value    |
|--------------|----------|
| Entrypoint   | 0x0271   |
| Data Size    | 51 bytes |
| Instructions | 11       |

```
      00 01 02 03 04 05 06 07  08 09 0A 0B 0C 0D 0E 0F
      -- -- -- -- -- -- -- --  -- -- -- -- -- -- -- --
0270:    32 4D 80 1F 00 5F 80  60 80 61 80 1F 01 1F 00   2M..._.`.a.....
0280: 62 80 63 80 64 80 1F 01  1F 00 65 80 66 80 67 80  b.c.d.....e.f.g.
0290: 1F 01 1E 19 61 0E 01 1C  46 80 4A 19 61 0E 01 1C  ....a...F.J.a...
02A0: 61 0E 01 00                                       a...            
```

#### Opcodes

```
  0: 0x0271 [0x32] ExtData[1]->MainSpeed = 45* * 0.1
  1: 0x0274 [0x1F] MOVE_ENTITY: EventEntity moves to X=-604.257*, Z=586.573*, Y=0.057*
  2: 0x027C [0x1F] MOVE_ENTITY: Update entity position (mode=1)
  3: 0x027E [0x1F] MOVE_ENTITY: EventEntity moves to X=-603.318*, Z=588.527*, Y=0.196*
  4: 0x0286 [0x1F] MOVE_ENTITY: Update entity position (mode=1)
  5: 0x0288 [0x1F] MOVE_ENTITY: EventEntity moves to X=-601.495*, Z=586.040*, Y=0.496*
  6: 0x0290 [0x1F] MOVE_ENTITY: Update entity position (mode=1)
  7: 0x0292 [0x1E] EventEntity looks at Unnamed NPC (ID: 17719577/0x010E6119) and starts talking
  8: 0x0297 [0x1C] WAIT(30* ticks)
  9: 0x029A [0x4A] Unnamed NPC (ID: 17719577/0x010E6119) looks at Unnamed NPC (ID: 17719580/0x010E611C)
 10: 0x02A3 [0x00] END_REQSTACK()
```

### Event 65535.21

#### Metadata

| Field        | Value    |
|--------------|----------|
| Entrypoint   | 0x02A4   |
| Data Size    | 15 bytes |
| Instructions | 3        |

```
      00 01 02 03 04 05 06 07  08 09 0A 0B 0C 0D 0E 0F
      -- -- -- -- -- -- -- --  -- -- -- -- -- -- -- --
02A0:             37 49 80 4A  80 4B 80 39 80 80 F8 FF      7I.J.K.9....
02B0: FF 7F 00                                          ...             
```

#### Opcodes

```
  0: 0x02A4 [0x37] UPDATE_EVENT_POSITION_AND_DIR: x=-602.007*, z=587.764*, y=0.268*, direction=25.0°*
  1: 0x02AD [0x80] LOAD_WAIT(entity=EventEntity)
  2: 0x02B2 [0x00] END_REQSTACK()
```

### Event 65535.22

#### Metadata

| Field        | Value    |
|--------------|----------|
| Entrypoint   | 0x02B3   |
| Data Size    | 69 bytes |
| Instructions | 15       |

```
      00 01 02 03 04 05 06 07  08 09 0A 0B 0C 0D 0E 0F
      -- -- -- -- -- -- -- --  -- -- -- -- -- -- -- --
02B0:          32 4D 80 1F 00  68 80 69 80 6A 80 1F 01     2M...h.i.j...
02C0: 1F 00 6B 80 6C 80 6D 80  1F 01 1F 00 6E 80 6F 80  ..k.l.m.....n.o.
02D0: 70 80 1F 01 1F 00 71 80  72 80 73 80 1F 01 1F 00  p.....q.r.s.....
02E0: 74 80 75 80 76 80 1F 01  1F 00 77 80 78 80 79 80  t.u.v.....w.x.y.
02F0: 1F 01 1E 19 61 0E 01 00                           ....a...        
```

#### Opcodes

```
  0: 0x02B3 [0x32] ExtData[1]->MainSpeed = 45* * 0.1
  1: 0x02B6 [0x1F] MOVE_ENTITY: EventEntity moves to X=-602.454*, Z=588.333*, Y=0.247*
  2: 0x02BE [0x1F] MOVE_ENTITY: Update entity position (mode=1)
  3: 0x02C0 [0x1F] MOVE_ENTITY: EventEntity moves to X=-603.634*, Z=585.657*, Y=0.144*
  4: 0x02C8 [0x1F] MOVE_ENTITY: Update entity position (mode=1)
  5: 0x02CA [0x1F] MOVE_ENTITY: EventEntity moves to X=-602.421*, Z=582.680*, Y=0.396*
  6: 0x02D2 [0x1F] MOVE_ENTITY: Update entity position (mode=1)
  7: 0x02D4 [0x1F] MOVE_ENTITY: EventEntity moves to X=-599.175*, Z=582.899*, Y=0.854*
  8: 0x02DC [0x1F] MOVE_ENTITY: Update entity position (mode=1)
  9: 0x02DE [0x1F] MOVE_ENTITY: EventEntity moves to X=-598.432*, Z=587.737*, Y=0.410*
 10: 0x02E6 [0x1F] MOVE_ENTITY: Update entity position (mode=1)
 11: 0x02E8 [0x1F] MOVE_ENTITY: EventEntity moves to X=-599.890*, Z=589.432*, Y=0.326*
 12: 0x02F0 [0x1F] MOVE_ENTITY: Update entity position (mode=1)
 13: 0x02F2 [0x1E] EventEntity looks at Unnamed NPC (ID: 17719577/0x010E6119) and starts talking
 14: 0x02F7 [0x00] END_REQSTACK()
```
