# 17719492 - Rouva

## Common Data

| Field            | Value                         |
|------------------|-------------------------------|
| Zone             | Southern San d'Oria (ID: 230) |
| Block Size       | 936 bytes                     |
| Total Events     | 25                            |
| References Count | 52                            |

## List of Events

| Event ID                   | Entrypoint   |   Size |   Instructions |
|----------------------------|--------------|--------|----------------|
| [65535](#event-65535)      | 0x0000       |      1 |              1 |
| [728](#event-728)          | 0x0001       |     16 |              6 |
| [0](#event-0)              | 0x0011       |      1 |              1 |
| [662](#event-662)          | 0x0012       |     30 |              8 |
| [663](#event-663)          | 0x0030       |      1 |              1 |
| [664](#event-664)          | 0x0031       |     28 |              8 |
| [665](#event-665)          | 0x004D       |      1 |              1 |
| [65535.1](#event-655351)   | 0x004E       |     56 |             10 |
| [65535.2](#event-655352)   | 0x0086       |     28 |              8 |
| [724](#event-724)          | 0x00A2       |      1 |              1 |
| [725](#event-725)          | 0x00A3       |      1 |              1 |
| [726](#event-726)          | 0x00A4       |     55 |             13 |
| [727](#event-727)          | 0x00DB       |     53 |             11 |
| [747](#event-747)          | 0x0110       |      1 |              1 |
| [748](#event-748)          | 0x0111       |      1 |              1 |
| [808](#event-808)          | 0x0112       |     52 |             12 |
| [945](#event-945)          | 0x0146       |     10 |              2 |
| [65535.3](#event-655353)   | 0x0150       |     15 |              5 |
| [65535.4](#event-655354)   | 0x015F       |     68 |             12 |
| [65535.5](#event-655355)   | 0x01A3       |     45 |              9 |
| [65535.6](#event-655356)   | 0x01D0       |     89 |             16 |
| [65535.7](#event-655357)   | 0x0229       |     15 |              5 |
| [65535.8](#event-655358)   | 0x0238       |     10 |              2 |
| [65535.9](#event-655359)   | 0x0242       |     15 |              5 |
| [65535.10](#event-6553510) | 0x0251       |     18 |              6 |

## DAT References (imed_data)

|   Index | Hex Value   |   Dec Value |
|---------|-------------|-------------|
|       0 | 0x026D      |         621 |
|       1 | 0x2620      |        9760 |
|       2 | 0x22C1      |        8897 |
|       3 | 0x0023      |          35 |
|       4 | 0x22C2      |        8898 |
|       5 | 0x22B6      |        8886 |
|       6 | 0x22B7      |        8887 |
|       7 | 0x000A      |          10 |
|       8 | 0xFFFFBE93  |  4294950547 |
|       9 | 0x2C9C      |       11420 |
|      10 | 0x0835      |        2101 |
|      11 | 0x0001      |           1 |
|      12 | 0x262B      |        9771 |
|      13 | 0x262C      |        9772 |
|      14 | 0x262D      |        9773 |
|      15 | 0x2621      |        9761 |
|      16 | 0x2622      |        9762 |
|      17 | 0x00C9      |         201 |
|      18 | 0x0000      |           0 |
|      19 | 0x287B      |       10363 |
|      20 | 0x003C      |          60 |
|      21 | 0x287E      |       10366 |
|      22 | 0x287F      |       10367 |
|      23 | 0x0060      |          96 |
|      24 | 0x000B      |          11 |
|      25 | 0xF906      |       63750 |
|      26 | 0xFFFFC4F8  |  4294952184 |
|      27 | 0x07CF      |        1999 |
|      28 | 0x0013      |          19 |
|      29 | 0x7FC6      |       32710 |
|      30 | 0xFFFF82CC  |  4294935244 |
|      31 | 0x004B      |          75 |
|      32 | 0x001E      |          30 |
|      33 | 0x0027      |          39 |
|      34 | 0x4B65      |       19301 |
|      35 | 0xFFFF927C  |  4294939260 |
|      36 | 0x001D      |          29 |
|      37 | 0x000D      |          13 |
|      38 | 0xFFFFE0FB  |  4294959355 |
|      39 | 0xFFFFFCD8  |  4294966488 |
|      40 | 0x0078      |         120 |
|      41 | 0xFFFFBEF4  |  4294950644 |
|      42 | 0xFFFFD7DD  |  4294957021 |
|      43 | 0xFFFFDD9F  |  4294958495 |
|      44 | 0xFFFFA44E  |  4294943822 |
|      45 | 0x007F      |         127 |
|      46 | 0x0028      |          40 |
|      47 | 0x3192      |       12690 |
|      48 | 0xFFFFCF7D  |  4294954877 |
|      49 | 0x0025      |          37 |
|      50 | 0x2E04      |       11780 |
|      51 | 0xFFFFCBDF  |  4294953951 |

## String References

- **8886**: You should be able to find an Elvaan goldsmith in Bastok, named--
- **8897**: My lady is concerned about San d'Oria's future. She's worried how much we are bound to ceremony.
- **8898**: Of course, the convergence of old and new has always been part of who we are, hasn't it?
- **9760**: If, by some wonderful miracle, you find yourself in possession of a sprig of $3, then I should dearly love to prepare Lady Femitte some authentic Tavnazian dishes once again.
- **9761**: Why, this is $3! I never imagined that I would once again be blessed with the opportunity to garnish my dishes with this succulent spice.
- **9762**: As I am but a simple maidservant, I have little to offer you in return. Please accept this as a token of my gratitude.
- **9771**: Thanks to your unselfish act of kindness, I was able to serve my lady a taste from her childhood.
- **9772**: If your path in life leads you once again to the fields of Riverne, it would be much appreciated if you might stop and collect another sprig of $3 for Lady Femitte.
- **9773**: No... I cannot ask you to go out of your way for such a trivial task. Forget the words I have spoken...
- **10363**: <Player>'s badge flashes brightly.
- **10366**: When the unknown looms before us, you venture forth to learn the truth with your own eyes. Ah, an adventurer's life...
- **10367**: I have not the stamina for such foolishness anymore. But do come and make an old woman smile with tales of far-off lands, should you ever have the time.

## Events

### Event 65535

#### Metadata

| Field        | Value   |
|--------------|---------|
| Entrypoint   | 0x0000  |
| Data Size    | 1 bytes |
| Instructions | 1       |

```
      00 01 02 03 04 05 06 07  08 09 0A 0B 0C 0D 0E 0F
      -- -- -- -- -- -- -- --  -- -- -- -- -- -- -- --
0000: 00                                                .               
```

#### Opcodes

```
  0: 0x0000 [0x00] END_REQSTACK()
```

### Event 728

#### Metadata

| Field        | Value    |
|--------------|----------|
| Entrypoint   | 0x0001   |
| Data Size    | 16 bytes |
| Instructions | 6        |

```
      00 01 02 03 04 05 06 07  08 09 0A 0B 0C 0D 0E 0F
      -- -- -- -- -- -- -- --  -- -- -- -- -- -- -- --
0000:    03 09 10 00 80 1E F0  FF FF 7F 1D 01 80 23 21   .............#!
0010: 00                                                .               
```

#### Opcodes

```
  0: 0x0001 [0x03] Work_Zone[9] = 621*
  1: 0x0006 [0x1E] EventEntity looks at LocalPlayer and starts talking
  2: 0x000B [0x1D] PRINT_EVENT_MESSAGE(message_id=9760*)
    → "If, by some wonderful miracle, you find yourself in possession of a sprig of $3, then I should dearly love to prepare Lady Femitte some authentic Tavnazian dishes once again."
  3: 0x000E [0x23] WAIT_FOR_DIALOG_INTERACTION
  4: 0x000F [0x21] END_EVENT
  5: 0x0010 [0x00] END_REQSTACK()
```

### Event 0

#### Metadata

| Field        | Value   |
|--------------|---------|
| Entrypoint   | 0x0011  |
| Data Size    | 1 bytes |
| Instructions | 1       |

```
      00 01 02 03 04 05 06 07  08 09 0A 0B 0C 0D 0E 0F
      -- -- -- -- -- -- -- --  -- -- -- -- -- -- -- --
0010:    00                                              .              
```

#### Opcodes

```
  0: 0x0011 [0x00] END_REQSTACK()
```

### Event 662

#### Metadata

| Field        | Value    |
|--------------|----------|
| Entrypoint   | 0x0012   |
| Data Size    | 30 bytes |
| Instructions | 8        |

```
      00 01 02 03 04 05 06 07  08 09 0A 0B 0C 0D 0E 0F
      -- -- -- -- -- -- -- --  -- -- -- -- -- -- -- --
0010:       1E F0 FF FF 7F 1D  02 80 23 5B 03 80 C4 60    ........#[...`
0020: 0E 01 C4 60 0E 01 74 6C  6B 30 1D 04 80 23 21 00  ...`..tlk0...#!.
```

#### Opcodes

```
  0: 0x0012 [0x1E] EventEntity looks at LocalPlayer and starts talking
  1: 0x0017 [0x1D] PRINT_EVENT_MESSAGE(message_id=8897*)
    → "My lady is concerned about San d'Oria's future. She's worried how much we are bound to ceremony."
  2: 0x001A [0x23] WAIT_FOR_DIALOG_INTERACTION
  3: 0x001B [0x5B] LOAD_EXT_SCHEDULER: Load scheduler "tlk0" with entities [Rouva (ID: 17719492/0x010E60C4), Rouva (ID: 17719492/0x010E60C4)], work=35*
  4: 0x002A [0x1D] PRINT_EVENT_MESSAGE(message_id=8898*)
    → "Of course, the convergence of old and new has always been part of who we are, hasn't it?"
  5: 0x002D [0x23] WAIT_FOR_DIALOG_INTERACTION
  6: 0x002E [0x21] END_EVENT
  7: 0x002F [0x00] END_REQSTACK()
```

### Event 663

#### Metadata

| Field        | Value   |
|--------------|---------|
| Entrypoint   | 0x0030  |
| Data Size    | 1 bytes |
| Instructions | 1       |

```
      00 01 02 03 04 05 06 07  08 09 0A 0B 0C 0D 0E 0F
      -- -- -- -- -- -- -- --  -- -- -- -- -- -- -- --
0030: 00                                                .               
```

#### Opcodes

```
  0: 0x0030 [0x00] END_REQSTACK()
```

### Event 664

#### Metadata

| Field        | Value    |
|--------------|----------|
| Entrypoint   | 0x0031   |
| Data Size    | 28 bytes |
| Instructions | 8        |

```
      00 01 02 03 04 05 06 07  08 09 0A 0B 0C 0D 0E 0F
      -- -- -- -- -- -- -- --  -- -- -- -- -- -- -- --
0030:    1E F0 FF FF 7F 1D 05  80 23 4A C3 60 0E 01 C4   ........#J.`...
0040: 60 0E 01 2B C3 60 0E 01  06 80 23 21 00           `..+.`....#!.   
```

#### Opcodes

```
  0: 0x0031 [0x1E] EventEntity looks at LocalPlayer and starts talking
  1: 0x0036 [0x1D] PRINT_EVENT_MESSAGE(message_id=8886*)
    → "You should be able to find an Elvaan goldsmith in Bastok, named--"
  2: 0x0039 [0x23] WAIT_FOR_DIALOG_INTERACTION
  3: 0x003A [0x4A] Femitte (ID: 17719491/0x010E60C3) looks at Rouva (ID: 17719492/0x010E60C4)
  4: 0x0043 [0x2B] Femitte (ID: 17719491/0x010E60C3) [8887*]:
    → "Rouva! Be silent!"
  5: 0x004A [0x23] WAIT_FOR_DIALOG_INTERACTION
  6: 0x004B [0x21] END_EVENT
  7: 0x004C [0x00] END_REQSTACK()
```

### Event 665

#### Metadata

| Field        | Value   |
|--------------|---------|
| Entrypoint   | 0x004D  |
| Data Size    | 1 bytes |
| Instructions | 1       |

```
      00 01 02 03 04 05 06 07  08 09 0A 0B 0C 0D 0E 0F
      -- -- -- -- -- -- -- --  -- -- -- -- -- -- -- --
0040:                                         00                     .  
```

#### Opcodes

```
  0: 0x004D [0x00] END_REQSTACK()
```

### Event 65535.1

#### Metadata

| Field        | Value    |
|--------------|----------|
| Entrypoint   | 0x004E   |
| Data Size    | 56 bytes |
| Instructions | 10       |

```
      00 01 02 03 04 05 06 07  08 09 0A 0B 0C 0D 0E 0F
      -- -- -- -- -- -- -- --  -- -- -- -- -- -- -- --
0040:                                            7B C4                {.
0050: 60 0E 01 32 07 80 1F 00  08 80 09 80 0A 80 1F 01  `..2............
0060: 6F 1C 0B 80 7B C3 60 0E  01 5B 03 80 C4 60 0E 01  o...{.`..[...`..
0070: C4 60 0E 01 70 61 73 30  53 C4 60 0E 01 C4 60 0E  .`..pas0S.`...`.
0080: 01 70 61 73 30 00                                 .pas0.          
```

#### Opcodes

```
  0: 0x004E [0x7B] Rouva (ID: 17719492/0x010E60C4) stops talking
  1: 0x0053 [0x32] ExtData[1]->MainSpeed = 10* * 0.1
  2: 0x0056 [0x1F] MOVE_ENTITY: EventEntity moves to X=-16.749*, Z=11.420*, Y=2.101*
  3: 0x005E [0x1F] MOVE_ENTITY: Update entity position (mode=1)
  4: 0x0060 [0x6F] WAIT_FRAME_DELAY: Yield until WaitTime reaches zero
  5: 0x0061 [0x1C] WAIT(1* ticks)
  6: 0x0064 [0x7B] Femitte (ID: 17719491/0x010E60C3) stops talking
  7: 0x0069 [0x5B] LOAD_EXT_SCHEDULER: Load scheduler "pas0" with entities [Rouva (ID: 17719492/0x010E60C4), Rouva (ID: 17719492/0x010E60C4)], work=35*
  8: 0x0078 [0x53] WAIT_SCHEDULER_TASK: Wait for scheduler "pas0" with entities [Rouva (ID: 17719492/0x010E60C4), Rouva (ID: 17719492/0x010E60C4)]
  9: 0x0085 [0x00] END_REQSTACK()
```

### Event 65535.2

#### Metadata

| Field        | Value    |
|--------------|----------|
| Entrypoint   | 0x0086   |
| Data Size    | 28 bytes |
| Instructions | 8        |

```
      00 01 02 03 04 05 06 07  08 09 0A 0B 0C 0D 0E 0F
      -- -- -- -- -- -- -- --  -- -- -- -- -- -- -- --
0080:                   7B C4  60 0E 01 32 07 80 1F 00        {.`..2....
0090: 08 80 09 80 0A 80 1F 01  6F 1C 0B 80 7B C3 60 0E  ........o...{.`.
00A0: 01 00                                             ..              
```

#### Opcodes

```
  0: 0x0086 [0x7B] Rouva (ID: 17719492/0x010E60C4) stops talking
  1: 0x008B [0x32] ExtData[1]->MainSpeed = 10* * 0.1
  2: 0x008E [0x1F] MOVE_ENTITY: EventEntity moves to X=-16.749*, Z=11.420*, Y=2.101*
  3: 0x0096 [0x1F] MOVE_ENTITY: Update entity position (mode=1)
  4: 0x0098 [0x6F] WAIT_FRAME_DELAY: Yield until WaitTime reaches zero
  5: 0x0099 [0x1C] WAIT(1* ticks)
  6: 0x009C [0x7B] Femitte (ID: 17719491/0x010E60C3) stops talking
  7: 0x00A1 [0x00] END_REQSTACK()
```

### Event 724

#### Metadata

| Field        | Value   |
|--------------|---------|
| Entrypoint   | 0x00A2  |
| Data Size    | 1 bytes |
| Instructions | 1       |

```
      00 01 02 03 04 05 06 07  08 09 0A 0B 0C 0D 0E 0F
      -- -- -- -- -- -- -- --  -- -- -- -- -- -- -- --
00A0:       00                                            .             
```

#### Opcodes

```
  0: 0x00A2 [0x00] END_REQSTACK()
```

### Event 725

#### Metadata

| Field        | Value   |
|--------------|---------|
| Entrypoint   | 0x00A3  |
| Data Size    | 1 bytes |
| Instructions | 1       |

```
      00 01 02 03 04 05 06 07  08 09 0A 0B 0C 0D 0E 0F
      -- -- -- -- -- -- -- --  -- -- -- -- -- -- -- --
00A0:          00                                          .            
```

#### Opcodes

```
  0: 0x00A3 [0x00] END_REQSTACK()
```

### Event 726

#### Metadata

| Field        | Value    |
|--------------|----------|
| Entrypoint   | 0x00A4   |
| Data Size    | 55 bytes |
| Instructions | 13       |

```
      00 01 02 03 04 05 06 07  08 09 0A 0B 0C 0D 0E 0F
      -- -- -- -- -- -- -- --  -- -- -- -- -- -- -- --
00A0:             42 03 09 10  00 80 1E F0 FF FF 7F 1D      B...........
00B0: 0C 80 23 5B 03 80 C4 60  0E 01 C4 60 0E 01 74 6C  ..#[...`...`..tl
00C0: 6B 30 1D 0D 80 23 5B 03  80 C4 60 0E 01 C4 60 0E  k0...#[...`...`.
00D0: 01 74 6C 6B 31 1D 0E 80  23 21 00                 .tlk1...#!.     
```

#### Opcodes

```
  0: 0x00A4 [0x42] SET_CLI_EVENT_CANCEL_DATA()
  1: 0x00A5 [0x03] Work_Zone[9] = 621*
  2: 0x00AA [0x1E] EventEntity looks at LocalPlayer and starts talking
  3: 0x00AF [0x1D] PRINT_EVENT_MESSAGE(message_id=9771*)
    → "Thanks to your unselfish act of kindness, I was able to serve my lady a taste from her childhood."
  4: 0x00B2 [0x23] WAIT_FOR_DIALOG_INTERACTION
  5: 0x00B3 [0x5B] LOAD_EXT_SCHEDULER: Load scheduler "tlk0" with entities [Rouva (ID: 17719492/0x010E60C4), Rouva (ID: 17719492/0x010E60C4)], work=35*
  6: 0x00C2 [0x1D] PRINT_EVENT_MESSAGE(message_id=9772*)
    → "If your path in life leads you once again to the fields of Riverne, it would be much appreciated if you might stop and collect another sprig of $3 for Lady Femitte."
  7: 0x00C5 [0x23] WAIT_FOR_DIALOG_INTERACTION
  8: 0x00C6 [0x5B] LOAD_EXT_SCHEDULER: Load scheduler "tlk1" with entities [Rouva (ID: 17719492/0x010E60C4), Rouva (ID: 17719492/0x010E60C4)], work=35*
  9: 0x00D5 [0x1D] PRINT_EVENT_MESSAGE(message_id=9773*)
    → "No... I cannot ask you to go out of your way for such a trivial task. Forget the words I have spoken..."
 10: 0x00D8 [0x23] WAIT_FOR_DIALOG_INTERACTION
 11: 0x00D9 [0x21] END_EVENT
 12: 0x00DA [0x00] END_REQSTACK()
```

### Event 727

#### Metadata

| Field        | Value    |
|--------------|----------|
| Entrypoint   | 0x00DB   |
| Data Size    | 53 bytes |
| Instructions | 11       |

```
      00 01 02 03 04 05 06 07  08 09 0A 0B 0C 0D 0E 0F
      -- -- -- -- -- -- -- --  -- -- -- -- -- -- -- --
00D0:                                   42 03 09 10 00             B....
00E0: 80 1E F0 FF FF 7F 1D 0F  80 23 5B 03 80 C4 60 0E  .........#[...`.
00F0: 01 C4 60 0E 01 70 61 73  30 1D 10 80 23 45 11 80  ..`..pas0...#E..
0100: F0 FF FF 7F F0 FF FF 7F  71 73 74 63 12 80 21 00  ........qstc..!.
```

#### Opcodes

```
  0: 0x00DB [0x42] SET_CLI_EVENT_CANCEL_DATA()
  1: 0x00DC [0x03] Work_Zone[9] = 621*
  2: 0x00E1 [0x1E] EventEntity looks at LocalPlayer and starts talking
  3: 0x00E6 [0x1D] PRINT_EVENT_MESSAGE(message_id=9761*)
    → "Why, this is $3! I never imagined that I would once again be blessed with the opportunity to garnish my dishes with this succulent spice."
  4: 0x00E9 [0x23] WAIT_FOR_DIALOG_INTERACTION
  5: 0x00EA [0x5B] LOAD_EXT_SCHEDULER: Load scheduler "pas0" with entities [Rouva (ID: 17719492/0x010E60C4), Rouva (ID: 17719492/0x010E60C4)], work=35*
  6: 0x00F9 [0x1D] PRINT_EVENT_MESSAGE(message_id=9762*)
    → "As I am but a simple maidservant, I have little to offer you in return. Please accept this as a token of my gratitude."
  7: 0x00FC [0x23] WAIT_FOR_DIALOG_INTERACTION
  8: 0x00FD [0x45] LOAD_SCHEDULED_TASK: Load scheduler "qstc" with entities [LocalPlayer, LocalPlayer], work=[201*, 0*]
  9: 0x010E [0x21] END_EVENT
 10: 0x010F [0x00] END_REQSTACK()
```

### Event 747

#### Metadata

| Field        | Value   |
|--------------|---------|
| Entrypoint   | 0x0110  |
| Data Size    | 1 bytes |
| Instructions | 1       |

```
      00 01 02 03 04 05 06 07  08 09 0A 0B 0C 0D 0E 0F
      -- -- -- -- -- -- -- --  -- -- -- -- -- -- -- --
0110: 00                                                .               
```

#### Opcodes

```
  0: 0x0110 [0x00] END_REQSTACK()
```

### Event 748

#### Metadata

| Field        | Value   |
|--------------|---------|
| Entrypoint   | 0x0111  |
| Data Size    | 1 bytes |
| Instructions | 1       |

```
      00 01 02 03 04 05 06 07  08 09 0A 0B 0C 0D 0E 0F
      -- -- -- -- -- -- -- --  -- -- -- -- -- -- -- --
0110:    00                                              .              
```

#### Opcodes

```
  0: 0x0111 [0x00] END_REQSTACK()
```

### Event 808

#### Metadata

| Field        | Value    |
|--------------|----------|
| Entrypoint   | 0x0112   |
| Data Size    | 52 bytes |
| Instructions | 12       |

```
      00 01 02 03 04 05 06 07  08 09 0A 0B 0C 0D 0E 0F
      -- -- -- -- -- -- -- --  -- -- -- -- -- -- -- --
0110:       42 48 13 80 1E F0  FF FF 7F 1C 14 80 5B 03    BH..........[.
0120: 80 C4 60 0E 01 C4 60 0E  01 74 6C 6B 30 1D 15 80  ..`...`..tlk0...
0130: 23 1D 16 80 23 5B 03 80  C4 60 0E 01 C4 60 0E 01  #...#[...`...`..
0140: 74 6C 6B 31 21 00                                 tlk1!.          
```

#### Opcodes

```
  0: 0x0112 [0x42] SET_CLI_EVENT_CANCEL_DATA()
  1: 0x0113 [0x48] [System] [10363*]:
    → "<Player>'s badge flashes brightly."
  2: 0x0116 [0x1E] EventEntity looks at LocalPlayer and starts talking
  3: 0x011B [0x1C] WAIT(60* ticks)
  4: 0x011E [0x5B] LOAD_EXT_SCHEDULER: Load scheduler "tlk0" with entities [Rouva (ID: 17719492/0x010E60C4), Rouva (ID: 17719492/0x010E60C4)], work=35*
  5: 0x012D [0x1D] PRINT_EVENT_MESSAGE(message_id=10366*)
    → "When the unknown looms before us, you venture forth to learn the truth with your own eyes. Ah, an adventurer's life..."
  6: 0x0130 [0x23] WAIT_FOR_DIALOG_INTERACTION
  7: 0x0131 [0x1D] PRINT_EVENT_MESSAGE(message_id=10367*)
    → "I have not the stamina for such foolishness anymore. But do come and make an old woman smile with tales of far-off lands, should you ever have the time."
  8: 0x0134 [0x23] WAIT_FOR_DIALOG_INTERACTION
  9: 0x0135 [0x5B] LOAD_EXT_SCHEDULER: Load scheduler "tlk1" with entities [Rouva (ID: 17719492/0x010E60C4), Rouva (ID: 17719492/0x010E60C4)], work=35*
 10: 0x0144 [0x21] END_EVENT
 11: 0x0145 [0x00] END_REQSTACK()
```

### Event 945

#### Metadata

| Field        | Value    |
|--------------|----------|
| Entrypoint   | 0x0146   |
| Data Size    | 10 bytes |
| Instructions | 2        |

```
      00 01 02 03 04 05 06 07  08 09 0A 0B 0C 0D 0E 0F
      -- -- -- -- -- -- -- --  -- -- -- -- -- -- -- --
0140:                   6C F8  FF FF 7F 17 80 0B 80 00        l.........
```

#### Opcodes

```
  0: 0x0146 [0x6C] FADE_ENTITY_COLOR(entity_id=EventEntity, end_alpha=96*, fade_time=1*)
  1: 0x014F [0x00] END_REQSTACK()
```

### Event 65535.3

#### Metadata

| Field        | Value    |
|--------------|----------|
| Entrypoint   | 0x0150   |
| Data Size    | 15 bytes |
| Instructions | 5        |

```
      00 01 02 03 04 05 06 07  08 09 0A 0B 0C 0D 0E 0F
      -- -- -- -- -- -- -- --  -- -- -- -- -- -- -- --
0150: 32 18 80 1F 00 19 80 1A  80 1B 80 1F 01 6F 00     2............o. 
```

#### Opcodes

```
  0: 0x0150 [0x32] ExtData[1]->MainSpeed = 11* * 0.1
  1: 0x0153 [0x1F] MOVE_ENTITY: EventEntity moves to X=63.750*, Z=-15.112*, Y=1.999*
  2: 0x015B [0x1F] MOVE_ENTITY: Update entity position (mode=1)
  3: 0x015D [0x6F] WAIT_FRAME_DELAY: Yield until WaitTime reaches zero
  4: 0x015E [0x00] END_REQSTACK()
```

### Event 65535.4

#### Metadata

| Field        | Value    |
|--------------|----------|
| Entrypoint   | 0x015F   |
| Data Size    | 68 bytes |
| Instructions | 12       |

```
      00 01 02 03 04 05 06 07  08 09 0A 0B 0C 0D 0E 0F
      -- -- -- -- -- -- -- --  -- -- -- -- -- -- -- --
0150:                                               32                 2
0160: 1C 80 1F 00 1D 80 1E 80  1B 80 1F 01 6F 1E 3D 60  ............o.=`
0170: 0E 01 6F 76 F8 FF FF 7F  4A 3D 60 0E 01 F8 FF FF  ..ov....J=`.....
0180: 7F 5B 1F 80 F8 FF FF 7F  F8 FF FF 7F 74 6C 6B 30  .[..........tlk0
0190: 1C 20 80 5B 1F 80 3D 60  0E 01 3D 60 0E 01 74 68  . .[..=`..=`..th
01A0: 6B 30 00                                          k0.             
```

#### Opcodes

```
  0: 0x015F [0x32] ExtData[1]->MainSpeed = 19* * 0.1
  1: 0x0162 [0x1F] MOVE_ENTITY: EventEntity moves to X=32.710*, Z=-32.052*, Y=1.999*
  2: 0x016A [0x1F] MOVE_ENTITY: Update entity position (mode=1)
  3: 0x016C [0x6F] WAIT_FRAME_DELAY: Yield until WaitTime reaches zero
  4: 0x016D [0x1E] EventEntity looks at Authere (ID: 17719357/0x010E603D) and starts talking
  5: 0x0172 [0x6F] WAIT_FRAME_DELAY: Yield until WaitTime reaches zero
  6: 0x0173 [0x76] CHECK_ENTITY_RENDER_FLAGS: Wait until EventEntity Render.Flags0 and Render.Flags3 conditions are met
  7: 0x0178 [0x4A] Authere (ID: 17719357/0x010E603D) looks at EventEntity
  8: 0x0181 [0x5B] LOAD_EXT_SCHEDULER: Load scheduler "tlk0" with entities [EventEntity, EventEntity], work=75*
  9: 0x0190 [0x1C] WAIT(30* ticks)
 10: 0x0193 [0x5B] LOAD_EXT_SCHEDULER: Load scheduler "thk0" with entities [Authere (ID: 17719357/0x010E603D), Authere (ID: 17719357/0x010E603D)], work=75*
 11: 0x01A2 [0x00] END_REQSTACK()
```

### Event 65535.5

#### Metadata

| Field        | Value    |
|--------------|----------|
| Entrypoint   | 0x01A3   |
| Data Size    | 45 bytes |
| Instructions | 9        |

```
      00 01 02 03 04 05 06 07  08 09 0A 0B 0C 0D 0E 0F
      -- -- -- -- -- -- -- --  -- -- -- -- -- -- -- --
01A0:          32 21 80 1F 00  22 80 23 80 1B 80 1F 01     2!...".#.....
01B0: 6F 4A 72 60 0E 01 F8 FF  FF 7F 6F 76 72 60 0E 01  oJr`......ovr`..
01C0: 66 24 80 72 60 0E 01 72  60 0E 01 74 77 61 30 00  f$.r`..r`..twa0.
```

#### Opcodes

```
  0: 0x01A3 [0x32] ExtData[1]->MainSpeed = 39* * 0.1
  1: 0x01A6 [0x1F] MOVE_ENTITY: EventEntity moves to X=19.301*, Z=-28.036*, Y=1.999*
  2: 0x01AE [0x1F] MOVE_ENTITY: Update entity position (mode=1)
  3: 0x01B0 [0x6F] WAIT_FRAME_DELAY: Yield until WaitTime reaches zero
  4: 0x01B1 [0x4A] Vaquelage (ID: 17719410/0x010E6072) looks at EventEntity
  5: 0x01BA [0x6F] WAIT_FRAME_DELAY: Yield until WaitTime reaches zero
  6: 0x01BB [0x76] CHECK_ENTITY_RENDER_FLAGS: Wait until Vaquelage (ID: 17719410/0x010E6072) Render.Flags0 and Render.Flags3 conditions are met
  7: 0x01C0 [0x66] LOAD_EXT_SCHEDULER_MAIN: Load scheduler "twa0" with entities [Vaquelage (ID: 17719410/0x010E6072), Vaquelage (ID: 17719410/0x010E6072)], work=29*
  8: 0x01CF [0x00] END_REQSTACK()
```

### Event 65535.6

#### Metadata

| Field        | Value    |
|--------------|----------|
| Entrypoint   | 0x01D0   |
| Data Size    | 89 bytes |
| Instructions | 16       |

```
      00 01 02 03 04 05 06 07  08 09 0A 0B 0C 0D 0E 0F
      -- -- -- -- -- -- -- --  -- -- -- -- -- -- -- --
01D0: 32 25 80 1F 00 26 80 27  80 1B 80 1F 01 6F 79 00  2%...&.'.....oy.
01E0: F8 FF FF 7F 7E 60 0E 01  4A 7E 60 0E 01 F8 FF FF  ....~`..J~`.....
01F0: 7F 6F 76 7E 60 0E 01 5B  21 80 7E 60 0E 01 7E 60  .ov~`..[!.~`..~`
0200: 0E 01 74 6C 6B 30 1C 28  80 5B 21 80 7E 60 0E 01  ..tlk0.(.[!.~`..
0210: 7E 60 0E 01 74 6C 6B 31  7B F8 FF FF 7F 1F 00 29  ~`..tlk1{......)
0220: 80 2A 80 1B 80 1F 01 6F  00                       .*.....o.       
```

#### Opcodes

```
  0: 0x01D0 [0x32] ExtData[1]->MainSpeed = 13* * 0.1
  1: 0x01D3 [0x1F] MOVE_ENTITY: EventEntity moves to X=-7.941*, Z=-0.808*, Y=1.999*
  2: 0x01DB [0x1F] MOVE_ENTITY: Update entity position (mode=1)
  3: 0x01DD [0x6F] WAIT_FRAME_DELAY: Yield until WaitTime reaches zero
  4: 0x01DE [0x79] EventEntity looks at Ailevia (ID: 17719422/0x010E607E) (Basic look)
  5: 0x01E8 [0x4A] Ailevia (ID: 17719422/0x010E607E) looks at EventEntity
  6: 0x01F1 [0x6F] WAIT_FRAME_DELAY: Yield until WaitTime reaches zero
  7: 0x01F2 [0x76] CHECK_ENTITY_RENDER_FLAGS: Wait until Ailevia (ID: 17719422/0x010E607E) Render.Flags0 and Render.Flags3 conditions are met
  8: 0x01F7 [0x5B] LOAD_EXT_SCHEDULER: Load scheduler "tlk0" with entities [Ailevia (ID: 17719422/0x010E607E), Ailevia (ID: 17719422/0x010E607E)], work=39*
  9: 0x0206 [0x1C] WAIT(120* ticks)
 10: 0x0209 [0x5B] LOAD_EXT_SCHEDULER: Load scheduler "tlk1" with entities [Ailevia (ID: 17719422/0x010E607E), Ailevia (ID: 17719422/0x010E607E)], work=39*
 11: 0x0218 [0x7B] EventEntity stops talking
 12: 0x021D [0x1F] MOVE_ENTITY: EventEntity moves to X=-16.652*, Z=-10.275*, Y=1.999*
 13: 0x0225 [0x1F] MOVE_ENTITY: Update entity position (mode=1)
 14: 0x0227 [0x6F] WAIT_FRAME_DELAY: Yield until WaitTime reaches zero
 15: 0x0228 [0x00] END_REQSTACK()
```

### Event 65535.7

#### Metadata

| Field        | Value    |
|--------------|----------|
| Entrypoint   | 0x0229   |
| Data Size    | 15 bytes |
| Instructions | 5        |

```
      00 01 02 03 04 05 06 07  08 09 0A 0B 0C 0D 0E 0F
      -- -- -- -- -- -- -- --  -- -- -- -- -- -- -- --
0220:                             32 18 80 1F 00 2B 80           2....+.
0230: 2C 80 1B 80 1F 01 6F 00                           ,.....o.        
```

#### Opcodes

```
  0: 0x0229 [0x32] ExtData[1]->MainSpeed = 11* * 0.1
  1: 0x022C [0x1F] MOVE_ENTITY: EventEntity moves to X=-8.801*, Z=-23.474*, Y=1.999*
  2: 0x0234 [0x1F] MOVE_ENTITY: Update entity position (mode=1)
  3: 0x0236 [0x6F] WAIT_FRAME_DELAY: Yield until WaitTime reaches zero
  4: 0x0237 [0x00] END_REQSTACK()
```

### Event 65535.8

#### Metadata

| Field        | Value    |
|--------------|----------|
| Entrypoint   | 0x0238   |
| Data Size    | 10 bytes |
| Instructions | 2        |

```
      00 01 02 03 04 05 06 07  08 09 0A 0B 0C 0D 0E 0F
      -- -- -- -- -- -- -- --  -- -- -- -- -- -- -- --
0230:                          6C F8 FF FF 7F 2D 80 0B          l....-..
0240: 80 00                                             ..              
```

#### Opcodes

```
  0: 0x0238 [0x6C] FADE_ENTITY_COLOR(entity_id=EventEntity, end_alpha=127*, fade_time=1*)
  1: 0x0241 [0x00] END_REQSTACK()
```

### Event 65535.9

#### Metadata

| Field        | Value    |
|--------------|----------|
| Entrypoint   | 0x0242   |
| Data Size    | 15 bytes |
| Instructions | 5        |

```
      00 01 02 03 04 05 06 07  08 09 0A 0B 0C 0D 0E 0F
      -- -- -- -- -- -- -- --  -- -- -- -- -- -- -- --
0240:       32 2E 80 1F 00 2F  80 30 80 1B 80 1F 01 6F    2..../.0.....o
0250: 00                                                .               
```

#### Opcodes

```
  0: 0x0242 [0x32] ExtData[1]->MainSpeed = 40* * 0.1
  1: 0x0245 [0x1F] MOVE_ENTITY: EventEntity moves to X=12.690*, Z=-12.419*, Y=1.999*
  2: 0x024D [0x1F] MOVE_ENTITY: Update entity position (mode=1)
  3: 0x024F [0x6F] WAIT_FRAME_DELAY: Yield until WaitTime reaches zero
  4: 0x0250 [0x00] END_REQSTACK()
```

### Event 65535.10

#### Metadata

| Field        | Value    |
|--------------|----------|
| Entrypoint   | 0x0251   |
| Data Size    | 18 bytes |
| Instructions | 6        |

```
      00 01 02 03 04 05 06 07  08 09 0A 0B 0C 0D 0E 0F
      -- -- -- -- -- -- -- --  -- -- -- -- -- -- -- --
0250:    1C 20 80 32 31 80 1F  00 32 80 33 80 1B 80 1F   . .21...2.3....
0260: 01 6F 00                                          .o.             
```

#### Opcodes

```
  0: 0x0251 [0x1C] WAIT(30* ticks)
  1: 0x0254 [0x32] ExtData[1]->MainSpeed = 37* * 0.1
  2: 0x0257 [0x1F] MOVE_ENTITY: EventEntity moves to X=11.780*, Z=-13.345*, Y=1.999*
  3: 0x025F [0x1F] MOVE_ENTITY: Update entity position (mode=1)
  4: 0x0261 [0x6F] WAIT_FRAME_DELAY: Yield until WaitTime reaches zero
  5: 0x0262 [0x00] END_REQSTACK()
```
