# 17719371 - Avandale

## Common Data

| Field            | Value                         |
|------------------|-------------------------------|
| Zone             | Southern San d'Oria (ID: 230) |
| Block Size       | 424 bytes                     |
| Total Events     | 13                            |
| References Count | 35                            |

## List of Events

| Event ID                 | Entrypoint   |   Size |   Instructions |
|--------------------------|--------------|--------|----------------|
| [65535](#event-65535)    | 0x0000       |      1 |              1 |
| [13](#event-13)          | 0x0001       |     12 |              3 |
| [65535.1](#event-655351) | 0x000D       |     14 |              4 |
| [65535.2](#event-655352) | 0x001B       |     44 |             11 |
| [597](#event-597)        | 0x0047       |      1 |              1 |
| [65535.3](#event-655353) | 0x0048       |     35 |              9 |
| [65535.4](#event-655354) | 0x006B       |     34 |              8 |
| [65535.5](#event-655355) | 0x008D       |     11 |              3 |
| [65535.6](#event-655356) | 0x0098       |     10 |              2 |
| [65535.7](#event-655357) | 0x00A2       |      5 |              3 |
| [65535.8](#event-655358) | 0x00A7       |      5 |              3 |
| [23](#event-23)          | 0x00AC       |     33 |              6 |
| [65535.9](#event-655359) | 0x00CD       |     10 |              2 |

## DAT References (imed_data)

|   Index | Hex Value   |   Dec Value |
|---------|-------------|-------------|
|       0 | 0xFFFDFC61  |  4294835297 |
|       1 | 0xE305      |       58117 |
|       2 | 0xFFFFD5D0  |  4294956496 |
|       3 | 0x09BE      |        2494 |
|       4 | 0x000D      |          13 |
|       5 | 0xFFFDF75E  |  4294834014 |
|       6 | 0xE8EA      |       59626 |
|       7 | 0x003C      |          60 |
|       8 | 0xFFFE03D9  |  4294837209 |
|       9 | 0xE1DD      |       57821 |
|      10 | 0xFFFE08D9  |  4294838489 |
|      11 | 0xE6B2      |       59058 |
|      12 | 0xFFFE0E8E  |  4294839950 |
|      13 | 0xEBA5      |       60325 |
|      14 | 0x0014      |          20 |
|      15 | 0x1FB8      |        8120 |
|      16 | 0x001E      |          30 |
|      17 | 0x142C0     |       82624 |
|      18 | 0xFFFFEE5E  |  4294962782 |
|      19 | 0x07CF      |        1999 |
|      20 | 0x0563      |        1379 |
|      21 | 0x11FBC     |       73660 |
|      22 | 0xFFFFBE53  |  4294950483 |
|      23 | 0x07D0      |        2000 |
|      24 | 0x13347     |       78663 |
|      25 | 0xFFFFAC7C  |  4294945916 |
|      26 | 0x0600      |        1536 |
|      27 | 0x1DF3      |        7667 |
|      28 | 0x1DF4      |        7668 |
|      29 | 0x0000      |           0 |
|      30 | 0xFFFB6CD0  |  4294667472 |
|      31 | 0x17D8F     |       97679 |
|      32 | 0xFFFFDFF9  |  4294959097 |
|      33 | 0x07EA      |        2026 |
|      34 | 0x17E78     |       97912 |

## String References

- **7667**: [Cutscene] On this particular day there comes a new adventurer, ready to make a name for [himself/herself] in San d'Oria.
- **7668**: [Cutscene] The king wishes to bolster his ranks, and <Player> has journeyed far to answer the call.
- **8120**: Your Highness, have you caught cold?

## Events

### Event 65535

#### Metadata

| Field        | Value   |
|--------------|---------|
| Entrypoint   | 0x0000  |
| Data Size    | 1 bytes |
| Instructions | 1       |

```
      00 01 02 03 04 05 06 07  08 09 0A 0B 0C 0D 0E 0F
      -- -- -- -- -- -- -- --  -- -- -- -- -- -- -- --
0000: 00                                                .               
```

#### Opcodes

```
  0: 0x0000 [0x00] END_REQSTACK()
```

### Event 13

#### Metadata

| Field        | Value    |
|--------------|----------|
| Entrypoint   | 0x0001   |
| Data Size    | 12 bytes |
| Instructions | 3        |

```
      00 01 02 03 04 05 06 07  08 09 0A 0B 0C 0D 0E 0F
      -- -- -- -- -- -- -- --  -- -- -- -- -- -- -- --
0000:    22 01 37 00 80 01 80  02 80 03 80 00            ".7.........   
```

#### Opcodes

```
  0: 0x0001 [0x22] ENTITY_HIDE_FLAG(enabled=0x01)
  1: 0x0003 [0x37] UPDATE_EVENT_POSITION_AND_DIR: x=-131.999*, z=58.117*, y=-10.800*, direction=219.2°*
  2: 0x000C [0x00] END_REQSTACK()
```

### Event 65535.1

#### Metadata

| Field        | Value    |
|--------------|----------|
| Entrypoint   | 0x000D   |
| Data Size    | 14 bytes |
| Instructions | 4        |

```
      00 01 02 03 04 05 06 07  08 09 0A 0B 0C 0D 0E 0F
      -- -- -- -- -- -- -- --  -- -- -- -- -- -- -- --
0000:                                         32 04 80               2..
0010: 1F 00 05 80 06 80 02 80  1F 01 00                 ...........     
```

#### Opcodes

```
  0: 0x000D [0x32] ExtData[1]->MainSpeed = 13* * 0.1
  1: 0x0010 [0x1F] MOVE_ENTITY: EventEntity moves to X=-133.282*, Z=59.626*, Y=-10.800*
  2: 0x0018 [0x1F] MOVE_ENTITY: Update entity position (mode=1)
  3: 0x001A [0x00] END_REQSTACK()
```

### Event 65535.2

#### Metadata

| Field        | Value    |
|--------------|----------|
| Entrypoint   | 0x001B   |
| Data Size    | 44 bytes |
| Instructions | 11       |

```
      00 01 02 03 04 05 06 07  08 09 0A 0B 0C 0D 0E 0F
      -- -- -- -- -- -- -- --  -- -- -- -- -- -- -- --
0010:                                   1E 45 60 0E 01             .E`..
0020: 1C 07 80 32 04 80 1F 00  08 80 09 80 02 80 1F 01  ...2............
0030: 1F 00 0A 80 0B 80 02 80  1F 01 1F 00 0C 80 0D 80  ................
0040: 02 80 1F 01 22 01 00                              ...."..         
```

#### Opcodes

```
  0: 0x001B [0x1E] EventEntity looks at Trion (ID: 17719365/0x010E6045) and starts talking
  1: 0x0020 [0x1C] WAIT(60* ticks)
  2: 0x0023 [0x32] ExtData[1]->MainSpeed = 13* * 0.1
  3: 0x0026 [0x1F] MOVE_ENTITY: EventEntity moves to X=-130.087*, Z=57.821*, Y=-10.800*
  4: 0x002E [0x1F] MOVE_ENTITY: Update entity position (mode=1)
  5: 0x0030 [0x1F] MOVE_ENTITY: EventEntity moves to X=-128.807*, Z=59.058*, Y=-10.800*
  6: 0x0038 [0x1F] MOVE_ENTITY: Update entity position (mode=1)
  7: 0x003A [0x1F] MOVE_ENTITY: EventEntity moves to X=-127.346*, Z=60.325*, Y=-10.800*
  8: 0x0042 [0x1F] MOVE_ENTITY: Update entity position (mode=1)
  9: 0x0044 [0x22] ENTITY_HIDE_FLAG(enabled=0x01)
 10: 0x0046 [0x00] END_REQSTACK()
```

### Event 597

#### Metadata

| Field        | Value   |
|--------------|---------|
| Entrypoint   | 0x0047  |
| Data Size    | 1 bytes |
| Instructions | 1       |

```
      00 01 02 03 04 05 06 07  08 09 0A 0B 0C 0D 0E 0F
      -- -- -- -- -- -- -- --  -- -- -- -- -- -- -- --
0040:                      00                                  .        
```

#### Opcodes

```
  0: 0x0047 [0x00] END_REQSTACK()
```

### Event 65535.3

#### Metadata

| Field        | Value    |
|--------------|----------|
| Entrypoint   | 0x0048   |
| Data Size    | 35 bytes |
| Instructions | 9        |

```
      00 01 02 03 04 05 06 07  08 09 0A 0B 0C 0D 0E 0F
      -- -- -- -- -- -- -- --  -- -- -- -- -- -- -- --
0040:                          1E 45 60 0E 01 6F 70 66          .E`..opf
0050: 0E 80 F8 FF FF 7F F8 FF  FF 7F 74 6C 6B 30 1D 0F  ..........tlk0..
0060: 80 23 5E 69 64 6C 30 1C  10 80 00                 .#^idl0....     
```

#### Opcodes

```
  0: 0x0048 [0x1E] EventEntity looks at Trion (ID: 17719365/0x010E6045) and starts talking
  1: 0x004D [0x6F] WAIT_FRAME_DELAY: Yield until WaitTime reaches zero
  2: 0x004E [0x70] WAIT_ENTITY_RENDER_FLAG: Wait while EventEntity->Render.Flags3 bit 2 is set (cancel turn if not)
  3: 0x004F [0x66] LOAD_EXT_SCHEDULER_MAIN: Load scheduler "tlk0" with entities [EventEntity, EventEntity], work=20*
  4: 0x005E [0x1D] PRINT_EVENT_MESSAGE(message_id=8120*)
    → "Your Highness, have you caught cold?"
  5: 0x0061 [0x23] WAIT_FOR_DIALOG_INTERACTION
  6: 0x0062 [0x5E] EventEntity goes idle (kills current action) (animation: "idl0")
  7: 0x0067 [0x1C] WAIT(30* ticks)
  8: 0x006A [0x00] END_REQSTACK()
```

### Event 65535.4

#### Metadata

| Field        | Value    |
|--------------|----------|
| Entrypoint   | 0x006B   |
| Data Size    | 34 bytes |
| Instructions | 8        |

```
      00 01 02 03 04 05 06 07  08 09 0A 0B 0C 0D 0E 0F
      -- -- -- -- -- -- -- --  -- -- -- -- -- -- -- --
0060:                                   2F 00 4B 60 0E             /.K`.
0070: 01 37 11 80 12 80 13 80  14 80 22 00 32 04 80 1F  .7........".2...
0080: 00 15 80 16 80 17 80 1F  01 1C 10 80 00           .............   
```

#### Opcodes

```
  0: 0x006B [0x2F] Avandale (ID: 17719371/0x010E604B)->Render.Flags0 &= ~0x80000 // Bit 19
  1: 0x0071 [0x37] UPDATE_EVENT_POSITION_AND_DIR: x=82.624*, z=-4.514*, y=1.999*, direction=121.2°*
  2: 0x007A [0x22] ENTITY_HIDE_FLAG(enabled=0x00)
  3: 0x007C [0x32] ExtData[1]->MainSpeed = 13* * 0.1
  4: 0x007F [0x1F] MOVE_ENTITY: EventEntity moves to X=73.660*, Z=-16.813*, Y=2.000*
  5: 0x0087 [0x1F] MOVE_ENTITY: Update entity position (mode=1)
  6: 0x0089 [0x1C] WAIT(30* ticks)
  7: 0x008C [0x00] END_REQSTACK()
```

### Event 65535.5

#### Metadata

| Field        | Value    |
|--------------|----------|
| Entrypoint   | 0x008D   |
| Data Size    | 11 bytes |
| Instructions | 3        |

```
      00 01 02 03 04 05 06 07  08 09 0A 0B 0C 0D 0E 0F
      -- -- -- -- -- -- -- --  -- -- -- -- -- -- -- --
0080:                                         1F 00 18               ...
0090: 80 19 80 17 80 1F 01 00                           ........        
```

#### Opcodes

```
  0: 0x008D [0x1F] MOVE_ENTITY: EventEntity moves to X=78.663*, Z=-21.380*, Y=2.000*
  1: 0x0095 [0x1F] MOVE_ENTITY: Update entity position (mode=1)
  2: 0x0097 [0x00] END_REQSTACK()
```

### Event 65535.6

#### Metadata

| Field        | Value    |
|--------------|----------|
| Entrypoint   | 0x0098   |
| Data Size    | 10 bytes |
| Instructions | 2        |

```
      00 01 02 03 04 05 06 07  08 09 0A 0B 0C 0D 0E 0F
      -- -- -- -- -- -- -- --  -- -- -- -- -- -- -- --
0090:                          37 15 80 16 80 17 80 1A          7.......
00A0: 80 00                                             ..              
```

#### Opcodes

```
  0: 0x0098 [0x37] UPDATE_EVENT_POSITION_AND_DIR: x=73.660*, z=-16.813*, y=2.000*, direction=135.0°*
  1: 0x00A1 [0x00] END_REQSTACK()
```

### Event 65535.7

#### Metadata

| Field        | Value   |
|--------------|---------|
| Entrypoint   | 0x00A2  |
| Data Size    | 5 bytes |
| Instructions | 3       |

```
      00 01 02 03 04 05 06 07  08 09 0A 0B 0C 0D 0E 0F
      -- -- -- -- -- -- -- --  -- -- -- -- -- -- -- --
00A0:       48 1B 80 23 00                                H..#.         
```

#### Opcodes

```
  0: 0x00A2 [0x48] [System] [7667*]:
    → "[Cutscene] On this particular day there comes a new adventurer, ready to make a name for [himself/herself] in San d'Oria."
  1: 0x00A5 [0x23] WAIT_FOR_DIALOG_INTERACTION
  2: 0x00A6 [0x00] END_REQSTACK()
```

### Event 65535.8

#### Metadata

| Field        | Value   |
|--------------|---------|
| Entrypoint   | 0x00A7  |
| Data Size    | 5 bytes |
| Instructions | 3       |

```
      00 01 02 03 04 05 06 07  08 09 0A 0B 0C 0D 0E 0F
      -- -- -- -- -- -- -- --  -- -- -- -- -- -- -- --
00A0:                      48  1C 80 23 00                     H..#.    
```

#### Opcodes

```
  0: 0x00A7 [0x48] [System] [7668*]:
    → "[Cutscene] The king wishes to bolster his ranks, and <Player> has journeyed far to answer the call."
  1: 0x00AA [0x23] WAIT_FOR_DIALOG_INTERACTION
  2: 0x00AB [0x00] END_REQSTACK()
```

### Event 23

#### Metadata

| Field        | Value    |
|--------------|----------|
| Entrypoint   | 0x00AC   |
| Data Size    | 33 bytes |
| Instructions | 6        |

```
      00 01 02 03 04 05 06 07  08 09 0A 0B 0C 0D 0E 0F
      -- -- -- -- -- -- -- --  -- -- -- -- -- -- -- --
00A0:                                      92 01 F8 FF              ....
00B0: FF 7F 94 01 F8 FF FF 7F  6C F8 FF FF 7F 1D 80 1D  ........l.......
00C0: 80 33 01 37 1E 80 1F 80  20 80 21 80 00           .3.7.... .!..   
```

#### Opcodes

```
  0: 0x00AC [0x92] EventEntity->Render.Flags3 ^= 0x01
  1: 0x00B2 [0x94] EventEntity->Render.Flags3 ^= 0x01
  2: 0x00B8 [0x6C] FADE_ENTITY_COLOR(entity_id=EventEntity, end_alpha=0*, fade_time=0*)
  3: 0x00C1 [0x33] EventEntity->Render.Flags0 |= 0x200000 // Bit 21 (flag=0x01)
  4: 0x00C3 [0x37] UPDATE_EVENT_POSITION_AND_DIR: x=-299.824*, z=97.679*, y=-8.199*, direction=178.1°*
  5: 0x00CC [0x00] END_REQSTACK()
```

### Event 65535.9

#### Metadata

| Field        | Value    |
|--------------|----------|
| Entrypoint   | 0x00CD   |
| Data Size    | 10 bytes |
| Instructions | 2        |

```
      00 01 02 03 04 05 06 07  08 09 0A 0B 0C 0D 0E 0F
      -- -- -- -- -- -- -- --  -- -- -- -- -- -- -- --
00C0:                                         37 1E 80               7..
00D0: 22 80 20 80 21 80 00                              ". .!..         
```

#### Opcodes

```
  0: 0x00CD [0x37] UPDATE_EVENT_POSITION_AND_DIR: x=-299.824*, z=97.912*, y=-8.199*, direction=178.1°*
  1: 0x00D6 [0x00] END_REQSTACK()
```
