# 17719573

## Common Data

| Field            | Value                         |
|------------------|-------------------------------|
| Zone             | Southern San d'Oria (ID: 230) |
| Block Size       | 2004 bytes                    |
| Total Events     | 40                            |
| References Count | 157                           |

## List of Events

| Event ID                   | Entrypoint   |   Size |   Instructions |
|----------------------------|--------------|--------|----------------|
| [65535](#event-65535)      | 0x0000       |      1 |              1 |
| [827](#event-827)          | 0x0001       |      1 |              1 |
| [823](#event-823)          | 0x0002       |      1 |              1 |
| [65535.1](#event-655351)   | 0x0003       |      5 |              2 |
| [65535.2](#event-655352)   | 0x0008       |     11 |              3 |
| [65535.3](#event-655353)   | 0x0013       |     10 |              2 |
| [65535.4](#event-655354)   | 0x001D       |    121 |             24 |
| [65535.5](#event-655355)   | 0x0096       |    121 |             24 |
| [65535.6](#event-655356)   | 0x010F       |     15 |              3 |
| [65535.7](#event-655357)   | 0x011E       |     14 |              4 |
| [65535.8](#event-655358)   | 0x012C       |     11 |              3 |
| [65535.9](#event-655359)   | 0x0137       |     11 |              3 |
| [65535.10](#event-6553510) | 0x0142       |     11 |              3 |
| [65535.11](#event-6553511) | 0x014D       |     14 |              4 |
| [65535.12](#event-6553512) | 0x015B       |      5 |              2 |
| [65535.13](#event-6553513) | 0x0160       |     15 |              3 |
| [65535.14](#event-6553514) | 0x016F       |     15 |              3 |
| [65535.15](#event-6553515) | 0x017E       |     13 |              2 |
| [65535.16](#event-6553516) | 0x018B       |     22 |              5 |
| [65535.17](#event-6553517) | 0x01A1       |      2 |              2 |
| [861](#event-861)          | 0x01A3       |      1 |              1 |
| [65535.18](#event-6553518) | 0x01A4       |     15 |              3 |
| [65535.19](#event-6553519) | 0x01B3       |     48 |             11 |
| [65535.20](#event-6553520) | 0x01E3       |     48 |             11 |
| [65535.21](#event-6553521) | 0x0213       |      6 |              2 |
| [65535.22](#event-6553522) | 0x0219       |     15 |              3 |
| [65535.23](#event-6553523) | 0x0228       |     54 |             12 |
| [65535.24](#event-6553524) | 0x025E       |     66 |             16 |
| [65535.25](#event-6553525) | 0x02A0       |     15 |              3 |
| [65535.26](#event-6553526) | 0x02AF       |     73 |             17 |
| [65535.27](#event-6553527) | 0x02F8       |     50 |             12 |
| [65535.28](#event-6553528) | 0x032A       |     50 |             12 |
| [65535.29](#event-6553529) | 0x035C       |     67 |             15 |
| [65535.30](#event-6553530) | 0x039F       |     14 |              4 |
| [65535.31](#event-6553531) | 0x03AD       |     51 |             11 |
| [65535.32](#event-6553532) | 0x03E0       |     14 |              4 |
| [65535.33](#event-6553533) | 0x03EE       |     51 |             11 |
| [65535.34](#event-6553534) | 0x0421       |     59 |             13 |
| [65535.35](#event-6553535) | 0x045C       |     69 |             15 |
| [65535.36](#event-6553536) | 0x04A1       |     15 |              3 |

## DAT References (imed_data)

|   Index | Hex Value   |   Dec Value |
|---------|-------------|-------------|
|       0 | 0x0000      |           0 |
|       1 | 0x2C7E      |       11390 |
|       2 | 0xFFFE96C5  |  4294874821 |
|       3 | 0x0897      |        2199 |
|       4 | 0x0118      |         280 |
|       5 | 0x0039      |          57 |
|       6 | 0x5688      |       22152 |
|       7 | 0xFFFE8963  |  4294871395 |
|       8 | 0x59FA      |       23034 |
|       9 | 0xFFFE9703  |  4294874883 |
|      10 | 0x20CA      |        8394 |
|      11 | 0xFFFEA6F2  |  4294878962 |
|      12 | 0x1A0A      |        6666 |
|      13 | 0xFFFEA628  |  4294878760 |
|      14 | 0x1971      |        6513 |
|      15 | 0xFFFEA380  |  4294878080 |
|      16 | 0x22EC      |        8940 |
|      17 | 0xFFFE9A5B  |  4294875739 |
|      18 | 0x3EC8      |       16072 |
|      19 | 0xFFFE9096  |  4294873238 |
|      20 | 0x4D5E      |       19806 |
|      21 | 0xFFFE8BA4  |  4294871972 |
|      22 | 0x67D9      |       26585 |
|      23 | 0xFFFE729D  |  4294865565 |
|      24 | 0x07EA      |        2026 |
|      25 | 0x000F      |          15 |
|      26 | 0x5F77      |       24439 |
|      27 | 0xFFFE715A  |  4294865242 |
|      28 | 0x53B9      |       21433 |
|      29 | 0xFFFE6FC8  |  4294864840 |
|      30 | 0x5215      |       21013 |
|      31 | 0xFFFE6EC1  |  4294864577 |
|      32 | 0x4E90      |       20112 |
|      33 | 0xFFFE7328  |  4294865704 |
|      34 | 0x63D3      |       25555 |
|      35 | 0xFFFE82D1  |  4294869713 |
|      36 | 0x0090      |         144 |
|      37 | 0x8778      |       34680 |
|      38 | 0x1749      |        5961 |
|      39 | 0x029B      |         667 |
|      40 | 0x064E      |        1614 |
|      41 | 0x13CD      |        5069 |
|      42 | 0xFFFF9B12  |  4294941458 |
|      43 | 0x06A3      |        1699 |
|      44 | 0x0D7D      |        3453 |
|      45 | 0x00DC      |         220 |
|      46 | 0xFFFFC628  |  4294952488 |
|      47 | 0xFFFFD697  |  4294956695 |
|      48 | 0x07CF      |        1999 |
|      49 | 0x0EBD      |        3773 |
|      50 | 0x0003      |           3 |
|      51 | 0xFFF6CD3D  |  4294364477 |
|      52 | 0x92D67     |      601447 |
|      53 | 0x0183      |         387 |
|      54 | 0x0002      |           2 |
|      55 | 0x000A      |          10 |
|      56 | 0xFFF6C5BB  |  4294362555 |
|      57 | 0x934CA     |      603338 |
|      58 | 0x0023      |          35 |
|      59 | 0xFFF6D3C5  |  4294366149 |
|      60 | 0x93292     |      602770 |
|      61 | 0xFFF6DF7D  |  4294369149 |
|      62 | 0x939E5     |      604645 |
|      63 | 0x001F      |          31 |
|      64 | 0x003C      |          60 |
|      65 | 0x0013      |          19 |
|      66 | 0xFFF6D7C0  |  4294367168 |
|      67 | 0x8EF6A     |      585578 |
|      68 | 0x0274      |         628 |
|      69 | 0x011C      |         284 |
|      70 | 0xFFF6D0CA  |  4294365386 |
|      71 | 0x8F7DF     |      587743 |
|      72 | 0x0112      |         274 |
|      73 | 0xFFF6D779  |  4294367097 |
|      74 | 0x8FCC2     |      588994 |
|      75 | 0x015B      |         347 |
|      76 | 0xFFF6DB55  |  4294368085 |
|      77 | 0x8F169     |      586089 |
|      78 | 0x024A      |         586 |
|      79 | 0xFFF6DAA1  |  4294367905 |
|      80 | 0x8E6CF     |      583375 |
|      81 | 0x033E      |         830 |
|      82 | 0x001E      |          30 |
|      83 | 0xFFF6D3B3  |  4294366131 |
|      84 | 0x8F340     |      586560 |
|      85 | 0x01D0      |         464 |
|      86 | 0x0101      |         257 |
|      87 | 0x0078      |         120 |
|      88 | 0xFFF6D069  |  4294365289 |
|      89 | 0x8F7F4     |      587764 |
|      90 | 0x010C      |         268 |
|      91 | 0xFFF6D763  |  4294367075 |
|      92 | 0x8FB0E     |      588558 |
|      93 | 0x0171      |         369 |
|      94 | 0xFFF6CFE0  |  4294365152 |
|      95 | 0x8F449     |      586825 |
|      96 | 0x0178      |         376 |
|      97 | 0x0862      |        2146 |
|      98 | 0xFFF6D8AC  |  4294367404 |
|      99 | 0x8FABD     |      588477 |
|     100 | 0x0175      |         373 |
|     101 | 0xFFF6DB01  |  4294368001 |
|     102 | 0x90356     |      590678 |
|     103 | 0x0108      |         264 |
|     104 | 0x03BF      |         959 |
|     105 | 0xFFF6C73F  |  4294362943 |
|     106 | 0x8F234     |      586292 |
|     107 | 0x008A      |         138 |
|     108 | 0x0025      |          37 |
|     109 | 0x00F0      |         240 |
|     110 | 0xFFF6D6F8  |  4294366968 |
|     111 | 0x8E30A     |      582410 |
|     112 | 0x0322      |         802 |
|     113 | 0x0BD3      |        3027 |
|     114 | 0xFFF6DB94  |  4294368148 |
|     115 | 0x8FCF3     |      589043 |
|     116 | 0x0159      |         345 |
|     117 | 0xFFF6C79F  |  4294363039 |
|     118 | 0x8F34D     |      586573 |
|     119 | 0xFFF6CB4A  |  4294363978 |
|     120 | 0x8FAEF     |      588527 |
|     121 | 0x00C4      |         196 |
|     122 | 0xFFF6D269  |  4294365801 |
|     123 | 0x8F138     |      586040 |
|     124 | 0x01F0      |         496 |
|     125 | 0xFFF6D2EF  |  4294365935 |
|     126 | 0x8EB3B     |      584507 |
|     127 | 0x021E      |         542 |
|     128 | 0xFFF6D6A2  |  4294366882 |
|     129 | 0x8E8B3     |      583859 |
|     130 | 0x02C0      |         704 |
|     131 | 0xFFF6DAB0  |  4294367920 |
|     132 | 0x8EE3C     |      585276 |
|     133 | 0x029C      |         668 |
|     134 | 0xFFF6DC30  |  4294368304 |
|     135 | 0x8F5FC     |      587260 |
|     136 | 0x01D4      |         468 |
|     137 | 0xFFF6D87A  |  4294367354 |
|     138 | 0x8F6D2     |      587474 |
|     139 | 0x01BF      |         447 |
|     140 | 0xFFF6CEAA  |  4294364842 |
|     141 | 0x8FA2D     |      588333 |
|     142 | 0x00F7      |         247 |
|     143 | 0xFFF6CA0E  |  4294363662 |
|     144 | 0x8EFB9     |      585657 |
|     145 | 0xFFF6CECB  |  4294364875 |
|     146 | 0x8E418     |      582680 |
|     147 | 0x018C      |         396 |
|     148 | 0xFFF6DB79  |  4294368121 |
|     149 | 0x8E4F3     |      582899 |
|     150 | 0x0356      |         854 |
|     151 | 0xFFF6DE60  |  4294368864 |
|     152 | 0x8F7D9     |      587737 |
|     153 | 0x019A      |         410 |
|     154 | 0xFFF6D8AE  |  4294367406 |
|     155 | 0x8FE78     |      589432 |
|     156 | 0x0146      |         326 |

## Events

### Event 65535

#### Metadata

| Field        | Value   |
|--------------|---------|
| Entrypoint   | 0x0000  |
| Data Size    | 1 bytes |
| Instructions | 1       |

```
      00 01 02 03 04 05 06 07  08 09 0A 0B 0C 0D 0E 0F
      -- -- -- -- -- -- -- --  -- -- -- -- -- -- -- --
0000: 00                                                .               
```

#### Opcodes

```
  0: 0x0000 [0x00] END_REQSTACK()
```

### Event 827

#### Metadata

| Field        | Value   |
|--------------|---------|
| Entrypoint   | 0x0001  |
| Data Size    | 1 bytes |
| Instructions | 1       |

```
      00 01 02 03 04 05 06 07  08 09 0A 0B 0C 0D 0E 0F
      -- -- -- -- -- -- -- --  -- -- -- -- -- -- -- --
0000:    00                                              .              
```

#### Opcodes

```
  0: 0x0001 [0x00] END_REQSTACK()
```

### Event 823

#### Metadata

| Field        | Value   |
|--------------|---------|
| Entrypoint   | 0x0002  |
| Data Size    | 1 bytes |
| Instructions | 1       |

```
      00 01 02 03 04 05 06 07  08 09 0A 0B 0C 0D 0E 0F
      -- -- -- -- -- -- -- --  -- -- -- -- -- -- -- --
0000:       00                                            .             
```

#### Opcodes

```
  0: 0x0002 [0x00] END_REQSTACK()
```

### Event 65535.1

#### Metadata

| Field        | Value   |
|--------------|---------|
| Entrypoint   | 0x0003  |
| Data Size    | 5 bytes |
| Instructions | 2       |

```
      00 01 02 03 04 05 06 07  08 09 0A 0B 0C 0D 0E 0F
      -- -- -- -- -- -- -- --  -- -- -- -- -- -- -- --
0000:          B6 00 04 10 00                              .....        
```

#### Opcodes

```
  0: 0x0003 [0xB6] ENTITY_APPEARANCE_HANDLER(case=Hair style, value=Work_Zone[4])
  1: 0x0007 [0x00] END_REQSTACK()
```

### Event 65535.2

#### Metadata

| Field        | Value    |
|--------------|----------|
| Entrypoint   | 0x0008   |
| Data Size    | 11 bytes |
| Instructions | 3        |

```
      00 01 02 03 04 05 06 07  08 09 0A 0B 0C 0D 0E 0F
      -- -- -- -- -- -- -- --  -- -- -- -- -- -- -- --
0000:                          B4 01 00 00 00 80 B5 00          ........
0010: 00 00 00                                          ...             
```

#### Opcodes

```
  0: 0x0008 [0xB4] UI_WINDOW_STRING_HANDLER(case=0x01 - Copy string from event strings table, work_offset=ExtData[1]->WorkLocal[0], string_index=0*)
  1: 0x000E [0xB5] SET_EVENT_ENTITY_NAME: Change EventEntity name to ExtData[1]->WorkLocal[0]
  2: 0x0012 [0x00] END_REQSTACK()
```

### Event 65535.3

#### Metadata

| Field        | Value    |
|--------------|----------|
| Entrypoint   | 0x0013   |
| Data Size    | 10 bytes |
| Instructions | 2        |

```
      00 01 02 03 04 05 06 07  08 09 0A 0B 0C 0D 0E 0F
      -- -- -- -- -- -- -- --  -- -- -- -- -- -- -- --
0010:          37 01 80 02 80  03 80 04 80 00              7.........   
```

#### Opcodes

```
  0: 0x0013 [0x37] UPDATE_EVENT_POSITION_AND_DIR: x=11.390*, z=-92.475*, y=2.199*, direction=24.6°*
  1: 0x001C [0x00] END_REQSTACK()
```

### Event 65535.4

#### Metadata

| Field        | Value     |
|--------------|-----------|
| Entrypoint   | 0x001D    |
| Data Size    | 121 bytes |
| Instructions | 24        |

```
      00 01 02 03 04 05 06 07  08 09 0A 0B 0C 0D 0E 0F
      -- -- -- -- -- -- -- --  -- -- -- -- -- -- -- --
0010:                                         32 05 80               2..
0020: 1F 00 06 80 07 80 03 80  1F 01 1F 00 08 80 09 80  ................
0030: 03 80 1F 01 1F 00 0A 80  0B 80 03 80 1F 01 1F 00  ................
0040: 0C 80 0D 80 03 80 1F 01  1F 00 0E 80 0F 80 03 80  ................
0050: 1F 01 1F 00 10 80 11 80  03 80 1F 01 1F 00 01 80  ................
0060: 02 80 03 80 1F 01 1F 00  12 80 13 80 03 80 1F 01  ................
0070: 1F 00 14 80 15 80 03 80  1F 01 02 4D 10 00 80 00  ...........M....
0080: 8C 00 27 05 15 61 0E 01  07 01 95 00 37 00 80 00  ..'..a......7...
0090: 80 00 80 00 80 00                                 ......          
```

#### Opcodes

```
  0: 0x001D [0x32] ExtData[1]->MainSpeed = 57* * 0.1
  1: 0x0020 [0x1F] MOVE_ENTITY: EventEntity moves to X=22.152*, Z=-95.901*, Y=2.199*
  2: 0x0028 [0x1F] MOVE_ENTITY: Update entity position (mode=1)
  3: 0x002A [0x1F] MOVE_ENTITY: EventEntity moves to X=23.034*, Z=-92.413*, Y=2.199*
  4: 0x0032 [0x1F] MOVE_ENTITY: Update entity position (mode=1)
  5: 0x0034 [0x1F] MOVE_ENTITY: EventEntity moves to X=8.394*, Z=-88.334*, Y=2.199*
  6: 0x003C [0x1F] MOVE_ENTITY: Update entity position (mode=1)
  7: 0x003E [0x1F] MOVE_ENTITY: EventEntity moves to X=6.666*, Z=-88.536*, Y=2.199*
  8: 0x0046 [0x1F] MOVE_ENTITY: Update entity position (mode=1)
  9: 0x0048 [0x1F] MOVE_ENTITY: EventEntity moves to X=6.513*, Z=-89.216*, Y=2.199*
 10: 0x0050 [0x1F] MOVE_ENTITY: Update entity position (mode=1)
 11: 0x0052 [0x1F] MOVE_ENTITY: EventEntity moves to X=8.940*, Z=-91.557*, Y=2.199*
 12: 0x005A [0x1F] MOVE_ENTITY: Update entity position (mode=1)
 13: 0x005C [0x1F] MOVE_ENTITY: EventEntity moves to X=11.390*, Z=-92.475*, Y=2.199*
 14: 0x0064 [0x1F] MOVE_ENTITY: Update entity position (mode=1)
 15: 0x0066 [0x1F] MOVE_ENTITY: EventEntity moves to X=16.072*, Z=-94.058*, Y=2.199*
 16: 0x006E [0x1F] MOVE_ENTITY: Update entity position (mode=1)
 17: 0x0070 [0x1F] MOVE_ENTITY: EventEntity moves to X=19.806*, Z=-95.324*, Y=2.199*
 18: 0x0078 [0x1F] MOVE_ENTITY: Update entity position (mode=1)
 19: 0x007A [0x02] IF !(Work_Zone[77] == 0*) GOTO 0x008C
 20: 0x0082 [0x27] REQ_SET(priority=0x05, entity_id=Unnamed NPC (ID: 17719573/0x010E6115), tag_num=0x07)
 21: 0x0089 [0x01] GOTO 0x0095
 22: 0x008C [0x37] UPDATE_EVENT_POSITION_AND_DIR: x=0.000*, z=0.000*, y=0.000*, direction=0.0°*

SUBROUTINE_0095:
 23: 0x0095 [0x00] END_REQSTACK()
```

### Event 65535.5

#### Metadata

| Field        | Value     |
|--------------|-----------|
| Entrypoint   | 0x0096    |
| Data Size    | 121 bytes |
| Instructions | 24        |

```
      00 01 02 03 04 05 06 07  08 09 0A 0B 0C 0D 0E 0F
      -- -- -- -- -- -- -- --  -- -- -- -- -- -- -- --
0090:                   32 05  80 1F 00 06 80 07 80 03        2.........
00A0: 80 1F 01 1F 00 08 80 09  80 03 80 1F 01 1F 00 0A  ................
00B0: 80 0B 80 03 80 1F 01 1F  00 0C 80 0D 80 03 80 1F  ................
00C0: 01 1F 00 0E 80 0F 80 03  80 1F 01 1F 00 10 80 11  ................
00D0: 80 03 80 1F 01 1F 00 01  80 02 80 03 80 1F 01 1F  ................
00E0: 00 12 80 13 80 03 80 1F  01 1F 00 14 80 15 80 03  ................
00F0: 80 1F 01 02 4D 10 00 80  00 05 01 27 05 15 61 0E  ....M......'..a.
0100: 01 06 01 0E 01 37 00 80  00 80 00 80 00 80 00     .....7......... 
```

#### Opcodes

```
  0: 0x0096 [0x32] ExtData[1]->MainSpeed = 57* * 0.1
  1: 0x0099 [0x1F] MOVE_ENTITY: EventEntity moves to X=22.152*, Z=-95.901*, Y=2.199*
  2: 0x00A1 [0x1F] MOVE_ENTITY: Update entity position (mode=1)
  3: 0x00A3 [0x1F] MOVE_ENTITY: EventEntity moves to X=23.034*, Z=-92.413*, Y=2.199*
  4: 0x00AB [0x1F] MOVE_ENTITY: Update entity position (mode=1)
  5: 0x00AD [0x1F] MOVE_ENTITY: EventEntity moves to X=8.394*, Z=-88.334*, Y=2.199*
  6: 0x00B5 [0x1F] MOVE_ENTITY: Update entity position (mode=1)
  7: 0x00B7 [0x1F] MOVE_ENTITY: EventEntity moves to X=6.666*, Z=-88.536*, Y=2.199*
  8: 0x00BF [0x1F] MOVE_ENTITY: Update entity position (mode=1)
  9: 0x00C1 [0x1F] MOVE_ENTITY: EventEntity moves to X=6.513*, Z=-89.216*, Y=2.199*
 10: 0x00C9 [0x1F] MOVE_ENTITY: Update entity position (mode=1)
 11: 0x00CB [0x1F] MOVE_ENTITY: EventEntity moves to X=8.940*, Z=-91.557*, Y=2.199*
 12: 0x00D3 [0x1F] MOVE_ENTITY: Update entity position (mode=1)
 13: 0x00D5 [0x1F] MOVE_ENTITY: EventEntity moves to X=11.390*, Z=-92.475*, Y=2.199*
 14: 0x00DD [0x1F] MOVE_ENTITY: Update entity position (mode=1)
 15: 0x00DF [0x1F] MOVE_ENTITY: EventEntity moves to X=16.072*, Z=-94.058*, Y=2.199*
 16: 0x00E7 [0x1F] MOVE_ENTITY: Update entity position (mode=1)
 17: 0x00E9 [0x1F] MOVE_ENTITY: EventEntity moves to X=19.806*, Z=-95.324*, Y=2.199*
 18: 0x00F1 [0x1F] MOVE_ENTITY: Update entity position (mode=1)
 19: 0x00F3 [0x02] IF !(Work_Zone[77] == 0*) GOTO 0x0105
 20: 0x00FB [0x27] REQ_SET(priority=0x05, entity_id=Unnamed NPC (ID: 17719573/0x010E6115), tag_num=0x06)
 21: 0x0102 [0x01] GOTO 0x010E
 22: 0x0105 [0x37] UPDATE_EVENT_POSITION_AND_DIR: x=0.000*, z=0.000*, y=0.000*, direction=0.0°*

SUBROUTINE_010E:
 23: 0x010E [0x00] END_REQSTACK()
```

### Event 65535.6

#### Metadata

| Field        | Value    |
|--------------|----------|
| Entrypoint   | 0x010F   |
| Data Size    | 15 bytes |
| Instructions | 3        |

```
      00 01 02 03 04 05 06 07  08 09 0A 0B 0C 0D 0E 0F
      -- -- -- -- -- -- -- --  -- -- -- -- -- -- -- --
0100:                                               37                 7
0110: 16 80 17 80 03 80 18 80  80 F8 FF FF 7F 00        ..............  
```

#### Opcodes

```
  0: 0x010F [0x37] UPDATE_EVENT_POSITION_AND_DIR: x=26.585*, z=-101.731*, y=2.199*, direction=178.1°*
  1: 0x0118 [0x80] LOAD_WAIT(entity=EventEntity)
  2: 0x011D [0x00] END_REQSTACK()
```

### Event 65535.7

#### Metadata

| Field        | Value    |
|--------------|----------|
| Entrypoint   | 0x011E   |
| Data Size    | 14 bytes |
| Instructions | 4        |

```
      00 01 02 03 04 05 06 07  08 09 0A 0B 0C 0D 0E 0F
      -- -- -- -- -- -- -- --  -- -- -- -- -- -- -- --
0110:                                            32 19                2.
0120: 80 1F 00 1A 80 1B 80 03  80 1F 01 00              ............    
```

#### Opcodes

```
  0: 0x011E [0x32] ExtData[1]->MainSpeed = 15* * 0.1
  1: 0x0121 [0x1F] MOVE_ENTITY: EventEntity moves to X=24.439*, Z=-102.054*, Y=2.199*
  2: 0x0129 [0x1F] MOVE_ENTITY: Update entity position (mode=1)
  3: 0x012B [0x00] END_REQSTACK()
```

### Event 65535.8

#### Metadata

| Field        | Value    |
|--------------|----------|
| Entrypoint   | 0x012C   |
| Data Size    | 11 bytes |
| Instructions | 3        |

```
      00 01 02 03 04 05 06 07  08 09 0A 0B 0C 0D 0E 0F
      -- -- -- -- -- -- -- --  -- -- -- -- -- -- -- --
0120:                                      1F 00 1C 80              ....
0130: 1D 80 03 80 1F 01 00                              .......         
```

#### Opcodes

```
  0: 0x012C [0x1F] MOVE_ENTITY: EventEntity moves to X=21.433*, Z=-102.456*, Y=2.199*
  1: 0x0134 [0x1F] MOVE_ENTITY: Update entity position (mode=1)
  2: 0x0136 [0x00] END_REQSTACK()
```

### Event 65535.9

#### Metadata

| Field        | Value    |
|--------------|----------|
| Entrypoint   | 0x0137   |
| Data Size    | 11 bytes |
| Instructions | 3        |

```
      00 01 02 03 04 05 06 07  08 09 0A 0B 0C 0D 0E 0F
      -- -- -- -- -- -- -- --  -- -- -- -- -- -- -- --
0130:                      1F  00 1E 80 1F 80 03 80 1F         .........
0140: 01 00                                             ..              
```

#### Opcodes

```
  0: 0x0137 [0x1F] MOVE_ENTITY: EventEntity moves to X=21.013*, Z=-102.719*, Y=2.199*
  1: 0x013F [0x1F] MOVE_ENTITY: Update entity position (mode=1)
  2: 0x0141 [0x00] END_REQSTACK()
```

### Event 65535.10

#### Metadata

| Field        | Value    |
|--------------|----------|
| Entrypoint   | 0x0142   |
| Data Size    | 11 bytes |
| Instructions | 3        |

```
      00 01 02 03 04 05 06 07  08 09 0A 0B 0C 0D 0E 0F
      -- -- -- -- -- -- -- --  -- -- -- -- -- -- -- --
0140:       1F 00 20 80 21 80  03 80 1F 01 00             .. .!......   
```

#### Opcodes

```
  0: 0x0142 [0x1F] MOVE_ENTITY: EventEntity moves to X=20.112*, Z=-101.592*, Y=2.199*
  1: 0x014A [0x1F] MOVE_ENTITY: Update entity position (mode=1)
  2: 0x014C [0x00] END_REQSTACK()
```

### Event 65535.11

#### Metadata

| Field        | Value    |
|--------------|----------|
| Entrypoint   | 0x014D   |
| Data Size    | 14 bytes |
| Instructions | 4        |

```
      00 01 02 03 04 05 06 07  08 09 0A 0B 0C 0D 0E 0F
      -- -- -- -- -- -- -- --  -- -- -- -- -- -- -- --
0140:                                         32 05 80               2..
0150: 1F 00 22 80 23 80 03 80  1F 01 00                 ..".#......     
```

#### Opcodes

```
  0: 0x014D [0x32] ExtData[1]->MainSpeed = 57* * 0.1
  1: 0x0150 [0x1F] MOVE_ENTITY: EventEntity moves to X=25.555*, Z=-97.583*, Y=2.199*
  2: 0x0158 [0x1F] MOVE_ENTITY: Update entity position (mode=1)
  3: 0x015A [0x00] END_REQSTACK()
```

### Event 65535.12

#### Metadata

| Field        | Value   |
|--------------|---------|
| Entrypoint   | 0x015B  |
| Data Size    | 5 bytes |
| Instructions | 2       |

```
      00 01 02 03 04 05 06 07  08 09 0A 0B 0C 0D 0E 0F
      -- -- -- -- -- -- -- --  -- -- -- -- -- -- -- --
0150:                                   B6 00 24 80 00             ..$..
```

#### Opcodes

```
  0: 0x015B [0xB6] ENTITY_APPEARANCE_HANDLER(case=Hair style, value=144*)
  1: 0x015F [0x00] END_REQSTACK()
```

### Event 65535.13

#### Metadata

| Field        | Value    |
|--------------|----------|
| Entrypoint   | 0x0160   |
| Data Size    | 15 bytes |
| Instructions | 3        |

```
      00 01 02 03 04 05 06 07  08 09 0A 0B 0C 0D 0E 0F
      -- -- -- -- -- -- -- --  -- -- -- -- -- -- -- --
0160: 37 25 80 26 80 27 80 28  80 80 F8 FF FF 7F 00     7%.&.'.(....... 
```

#### Opcodes

```
  0: 0x0160 [0x37] UPDATE_EVENT_POSITION_AND_DIR: x=34.680*, z=5.961*, y=0.667*, direction=141.9°*
  1: 0x0169 [0x80] LOAD_WAIT(entity=EventEntity)
  2: 0x016E [0x00] END_REQSTACK()
```

### Event 65535.14

#### Metadata

| Field        | Value    |
|--------------|----------|
| Entrypoint   | 0x016F   |
| Data Size    | 15 bytes |
| Instructions | 3        |

```
      00 01 02 03 04 05 06 07  08 09 0A 0B 0C 0D 0E 0F
      -- -- -- -- -- -- -- --  -- -- -- -- -- -- -- --
0160:                                               37                 7
0170: 29 80 2A 80 2B 80 2C 80  80 F8 FF FF 7F 00        ).*.+.,.......  
```

#### Opcodes

```
  0: 0x016F [0x37] UPDATE_EVENT_POSITION_AND_DIR: x=5.069*, z=-25.838*, y=1.699*, direction=303.5°*
  1: 0x0178 [0x80] LOAD_WAIT(entity=EventEntity)
  2: 0x017D [0x00] END_REQSTACK()
```

### Event 65535.15

#### Metadata

| Field        | Value    |
|--------------|----------|
| Entrypoint   | 0x017E   |
| Data Size    | 13 bytes |
| Instructions | 2        |

```
      00 01 02 03 04 05 06 07  08 09 0A 0B 0C 0D 0E 0F
      -- -- -- -- -- -- -- --  -- -- -- -- -- -- -- --
0170:                                            B6 00                ..
0180: 2D 80 37 2E 80 2F 80 30  80 31 80                 -.7../.0.1.     
```

#### Opcodes

```
  0: 0x017E [0xB6] ENTITY_APPEARANCE_HANDLER(case=Hair style, value=220*)
  1: 0x0182 [0x37] UPDATE_EVENT_POSITION_AND_DIR: x=-14.808*, z=-10.601*, y=1.999*, direction=331.6°*
```

### Event 65535.16

#### Metadata

| Field        | Value    |
|--------------|----------|
| Entrypoint   | 0x018B   |
| Data Size    | 22 bytes |
| Instructions | 5        |

```
      00 01 02 03 04 05 06 07  08 09 0A 0B 0C 0D 0E 0F
      -- -- -- -- -- -- -- --  -- -- -- -- -- -- -- --
0180:                                   95 32 80 B6 00             .2...
0190: 2D 80 37 2E 80 2F 80 30  80 31 80 80 F8 FF FF 7F  -.7../.0.1......
01A0: 00                                                .               
```

#### Opcodes

```
  0: 0x018B [0x95] SETUP_EVENT_NPC: Prepare NPC for event (Render.Flags3 = 3*)
  1: 0x018E [0xB6] ENTITY_APPEARANCE_HANDLER(case=Hair style, value=220*)
  2: 0x0192 [0x37] UPDATE_EVENT_POSITION_AND_DIR: x=-14.808*, z=-10.601*, y=1.999*, direction=331.6°*
  3: 0x019B [0x80] LOAD_WAIT(entity=EventEntity)
  4: 0x01A0 [0x00] END_REQSTACK()
```

### Event 65535.17

#### Metadata

| Field        | Value   |
|--------------|---------|
| Entrypoint   | 0x01A1  |
| Data Size    | 2 bytes |
| Instructions | 2       |

```
      00 01 02 03 04 05 06 07  08 09 0A 0B 0C 0D 0E 0F
      -- -- -- -- -- -- -- --  -- -- -- -- -- -- -- --
01A0:    96 00                                           ..             
```

#### Opcodes

```
  0: 0x01A1 [0x96] UNSET_EVENT_NPC: Restore NPC after event (removes event NPC status)
  1: 0x01A2 [0x00] END_REQSTACK()
```

### Event 861

#### Metadata

| Field        | Value   |
|--------------|---------|
| Entrypoint   | 0x01A3  |
| Data Size    | 1 bytes |
| Instructions | 1       |

```
      00 01 02 03 04 05 06 07  08 09 0A 0B 0C 0D 0E 0F
      -- -- -- -- -- -- -- --  -- -- -- -- -- -- -- --
01A0:          00                                          .            
```

#### Opcodes

```
  0: 0x01A3 [0x00] END_REQSTACK()
```

### Event 65535.18

#### Metadata

| Field        | Value    |
|--------------|----------|
| Entrypoint   | 0x01A4   |
| Data Size    | 15 bytes |
| Instructions | 3        |

```
      00 01 02 03 04 05 06 07  08 09 0A 0B 0C 0D 0E 0F
      -- -- -- -- -- -- -- --  -- -- -- -- -- -- -- --
01A0:             37 33 80 34  80 00 80 35 80 03 04 00      73.4...5....
01B0: 00 80 00                                          ...             
```

#### Opcodes

```
  0: 0x01A4 [0x37] UPDATE_EVENT_POSITION_AND_DIR: x=-602.819*, z=601.447*, y=0.000*, direction=34.0°*
  1: 0x01AD [0x03] ExtData[1]->WorkLocal[4] = 0*
  2: 0x01B2 [0x00] END_REQSTACK()
```

### Event 65535.19

#### Metadata

| Field        | Value    |
|--------------|----------|
| Entrypoint   | 0x01B3   |
| Data Size    | 48 bytes |
| Instructions | 11       |

```
      00 01 02 03 04 05 06 07  08 09 0A 0B 0C 0D 0E 0F
      -- -- -- -- -- -- -- --  -- -- -- -- -- -- -- --
01B0:          02 04 00 36 80  01 E2 01 32 37 80 1F 00     ...6....27...
01C0: 38 80 39 80 3A 80 1F 01  1F 00 3B 80 3C 80 00 80  8.9.:.....;.<...
01D0: 1F 01 1F 00 3D 80 3E 80  3F 80 1F 01 1C 40 80 01  ....=.>.?....@..
01E0: B3 01 00                                          ...             
```

#### Opcodes

```
  0: 0x01B3 [0x02] IF !(ExtData[1]->WorkLocal[4] == 2*) GOTO 0x01E2
  1: 0x01BB [0x32] ExtData[1]->MainSpeed = 10* * 0.1
  2: 0x01BE [0x1F] MOVE_ENTITY: EventEntity moves to X=-604.741*, Z=603.338*, Y=0.035*
  3: 0x01C6 [0x1F] MOVE_ENTITY: Update entity position (mode=1)
  4: 0x01C8 [0x1F] MOVE_ENTITY: EventEntity moves to X=-601.147*, Z=602.770*, Y=0.000*
  5: 0x01D0 [0x1F] MOVE_ENTITY: Update entity position (mode=1)
  6: 0x01D2 [0x1F] MOVE_ENTITY: EventEntity moves to X=-598.147*, Z=604.645*, Y=0.031*
  7: 0x01DA [0x1F] MOVE_ENTITY: Update entity position (mode=1)
  8: 0x01DC [0x1C] WAIT(60* ticks)
  9: 0x01DF [0x01] GOTO 0x01B3
 10: 0x01E2 [0x00] END_REQSTACK()
```

### Event 65535.20

#### Metadata

| Field        | Value    |
|--------------|----------|
| Entrypoint   | 0x01E3   |
| Data Size    | 48 bytes |
| Instructions | 11       |

```
      00 01 02 03 04 05 06 07  08 09 0A 0B 0C 0D 0E 0F
      -- -- -- -- -- -- -- --  -- -- -- -- -- -- -- --
01E0:          02 04 00 36 80  01 12 02 32 41 80 1F 00     ...6....2A...
01F0: 38 80 39 80 3A 80 1F 01  1F 00 3B 80 3C 80 00 80  8.9.:.....;.<...
0200: 1F 01 1F 00 3D 80 3E 80  3F 80 1F 01 1C 40 80 01  ....=.>.?....@..
0210: E3 01 00                                          ...             
```

#### Opcodes

```
  0: 0x01E3 [0x02] IF !(ExtData[1]->WorkLocal[4] == 2*) GOTO 0x0212
  1: 0x01EB [0x32] ExtData[1]->MainSpeed = 19* * 0.1
  2: 0x01EE [0x1F] MOVE_ENTITY: EventEntity moves to X=-604.741*, Z=603.338*, Y=0.035*
  3: 0x01F6 [0x1F] MOVE_ENTITY: Update entity position (mode=1)
  4: 0x01F8 [0x1F] MOVE_ENTITY: EventEntity moves to X=-601.147*, Z=602.770*, Y=0.000*
  5: 0x0200 [0x1F] MOVE_ENTITY: Update entity position (mode=1)
  6: 0x0202 [0x1F] MOVE_ENTITY: EventEntity moves to X=-598.147*, Z=604.645*, Y=0.031*
  7: 0x020A [0x1F] MOVE_ENTITY: Update entity position (mode=1)
  8: 0x020C [0x1C] WAIT(60* ticks)
  9: 0x020F [0x01] GOTO 0x01E3
 10: 0x0212 [0x00] END_REQSTACK()
```

### Event 65535.21

#### Metadata

| Field        | Value   |
|--------------|---------|
| Entrypoint   | 0x0213  |
| Data Size    | 6 bytes |
| Instructions | 2       |

```
      00 01 02 03 04 05 06 07  08 09 0A 0B 0C 0D 0E 0F
      -- -- -- -- -- -- -- --  -- -- -- -- -- -- -- --
0210:          03 04 00 36 80  00                          ...6..       
```

#### Opcodes

```
  0: 0x0213 [0x03] ExtData[1]->WorkLocal[4] = 2*
  1: 0x0218 [0x00] END_REQSTACK()
```

### Event 65535.22

#### Metadata

| Field        | Value    |
|--------------|----------|
| Entrypoint   | 0x0219   |
| Data Size    | 15 bytes |
| Instructions | 3        |

```
      00 01 02 03 04 05 06 07  08 09 0A 0B 0C 0D 0E 0F
      -- -- -- -- -- -- -- --  -- -- -- -- -- -- -- --
0210:                             37 42 80 43 80 44 80           7B.C.D.
0220: 45 80 80 F8 FF FF 7F 00                           E.......        
```

#### Opcodes

```
  0: 0x0219 [0x37] UPDATE_EVENT_POSITION_AND_DIR: x=-600.128*, z=585.578*, y=0.628*, direction=25.0°*
  1: 0x0222 [0x80] LOAD_WAIT(entity=EventEntity)
  2: 0x0227 [0x00] END_REQSTACK()
```

### Event 65535.23

#### Metadata

| Field        | Value    |
|--------------|----------|
| Entrypoint   | 0x0228   |
| Data Size    | 54 bytes |
| Instructions | 12       |

```
      00 01 02 03 04 05 06 07  08 09 0A 0B 0C 0D 0E 0F
      -- -- -- -- -- -- -- --  -- -- -- -- -- -- -- --
0220:                          32 37 80 1F 00 46 80 47          27...F.G
0230: 80 48 80 1F 01 1F 00 49  80 4A 80 4B 80 1F 01 1F  .H.....I.J.K....
0240: 00 4C 80 4D 80 4E 80 1F  01 1F 00 4F 80 50 80 51  .L.M.N.....O.P.Q
0250: 80 1F 01 1F 00 42 80 43  80 44 80 1F 01 00        .....B.C.D....  
```

#### Opcodes

```
  0: 0x0228 [0x32] ExtData[1]->MainSpeed = 10* * 0.1
  1: 0x022B [0x1F] MOVE_ENTITY: EventEntity moves to X=-601.910*, Z=587.743*, Y=0.274*
  2: 0x0233 [0x1F] MOVE_ENTITY: Update entity position (mode=1)
  3: 0x0235 [0x1F] MOVE_ENTITY: EventEntity moves to X=-600.199*, Z=588.994*, Y=0.347*
  4: 0x023D [0x1F] MOVE_ENTITY: Update entity position (mode=1)
  5: 0x023F [0x1F] MOVE_ENTITY: EventEntity moves to X=-599.211*, Z=586.089*, Y=0.586*
  6: 0x0247 [0x1F] MOVE_ENTITY: Update entity position (mode=1)
  7: 0x0249 [0x1F] MOVE_ENTITY: EventEntity moves to X=-599.391*, Z=583.375*, Y=0.830*
  8: 0x0251 [0x1F] MOVE_ENTITY: Update entity position (mode=1)
  9: 0x0253 [0x1F] MOVE_ENTITY: EventEntity moves to X=-600.128*, Z=585.578*, Y=0.628*
 10: 0x025B [0x1F] MOVE_ENTITY: Update entity position (mode=1)
 11: 0x025D [0x00] END_REQSTACK()
```

### Event 65535.24

#### Metadata

| Field        | Value    |
|--------------|----------|
| Entrypoint   | 0x025E   |
| Data Size    | 66 bytes |
| Instructions | 16       |

```
      00 01 02 03 04 05 06 07  08 09 0A 0B 0C 0D 0E 0F
      -- -- -- -- -- -- -- --  -- -- -- -- -- -- -- --
0250:                                            32 41                2A
0260: 80 1F 00 46 80 47 80 48  80 1F 01 1C 52 80 1F 00  ...F.G.H....R...
0270: 49 80 4A 80 4B 80 1F 01  1C 52 80 1F 00 4C 80 4D  I.J.K....R...L.M
0280: 80 4E 80 1F 01 1C 52 80  1F 00 4F 80 50 80 51 80  .N....R...O.P.Q.
0290: 1F 01 1C 52 80 1F 00 42  80 43 80 44 80 1F 01 00  ...R...B.C.D....
```

#### Opcodes

```
  0: 0x025E [0x32] ExtData[1]->MainSpeed = 19* * 0.1
  1: 0x0261 [0x1F] MOVE_ENTITY: EventEntity moves to X=-601.910*, Z=587.743*, Y=0.274*
  2: 0x0269 [0x1F] MOVE_ENTITY: Update entity position (mode=1)
  3: 0x026B [0x1C] WAIT(30* ticks)
  4: 0x026E [0x1F] MOVE_ENTITY: EventEntity moves to X=-600.199*, Z=588.994*, Y=0.347*
  5: 0x0276 [0x1F] MOVE_ENTITY: Update entity position (mode=1)
  6: 0x0278 [0x1C] WAIT(30* ticks)
  7: 0x027B [0x1F] MOVE_ENTITY: EventEntity moves to X=-599.211*, Z=586.089*, Y=0.586*
  8: 0x0283 [0x1F] MOVE_ENTITY: Update entity position (mode=1)
  9: 0x0285 [0x1C] WAIT(30* ticks)
 10: 0x0288 [0x1F] MOVE_ENTITY: EventEntity moves to X=-599.391*, Z=583.375*, Y=0.830*
 11: 0x0290 [0x1F] MOVE_ENTITY: Update entity position (mode=1)
 12: 0x0292 [0x1C] WAIT(30* ticks)
 13: 0x0295 [0x1F] MOVE_ENTITY: EventEntity moves to X=-600.128*, Z=585.578*, Y=0.628*
 14: 0x029D [0x1F] MOVE_ENTITY: Update entity position (mode=1)
 15: 0x029F [0x00] END_REQSTACK()
```

### Event 65535.25

#### Metadata

| Field        | Value    |
|--------------|----------|
| Entrypoint   | 0x02A0   |
| Data Size    | 15 bytes |
| Instructions | 3        |

```
      00 01 02 03 04 05 06 07  08 09 0A 0B 0C 0D 0E 0F
      -- -- -- -- -- -- -- --  -- -- -- -- -- -- -- --
02A0: 37 53 80 54 80 55 80 56  80 80 F8 FF FF 7F 00     7S.T.U.V....... 
```

#### Opcodes

```
  0: 0x02A0 [0x37] UPDATE_EVENT_POSITION_AND_DIR: x=-601.165*, z=586.560*, y=0.464*, direction=22.6°*
  1: 0x02A9 [0x80] LOAD_WAIT(entity=EventEntity)
  2: 0x02AE [0x00] END_REQSTACK()
```

### Event 65535.26

#### Metadata

| Field        | Value    |
|--------------|----------|
| Entrypoint   | 0x02AF   |
| Data Size    | 73 bytes |
| Instructions | 17       |

```
      00 01 02 03 04 05 06 07  08 09 0A 0B 0C 0D 0E 0F
      -- -- -- -- -- -- -- --  -- -- -- -- -- -- -- --
02A0:                                               32                 2
02B0: 41 80 1F 00 46 80 47 80  48 80 1F 01 1F 00 49 80  A...F.G.H.....I.
02C0: 4A 80 4B 80 1F 01 1F 00  4C 80 4D 80 4E 80 1F 01  J.K.....L.M.N...
02D0: 1F 00 4F 80 50 80 51 80  1F 01 1C 52 80 1E 13 61  ..O.P.Q....R...a
02E0: 0E 01 1C 57 80 1F 00 58  80 59 80 5A 80 1F 01 1C  ...W...X.Y.Z....
02F0: 52 80 1E 13 61 0E 01 00                           R...a...        
```

#### Opcodes

```
  0: 0x02AF [0x32] ExtData[1]->MainSpeed = 19* * 0.1
  1: 0x02B2 [0x1F] MOVE_ENTITY: EventEntity moves to X=-601.910*, Z=587.743*, Y=0.274*
  2: 0x02BA [0x1F] MOVE_ENTITY: Update entity position (mode=1)
  3: 0x02BC [0x1F] MOVE_ENTITY: EventEntity moves to X=-600.199*, Z=588.994*, Y=0.347*
  4: 0x02C4 [0x1F] MOVE_ENTITY: Update entity position (mode=1)
  5: 0x02C6 [0x1F] MOVE_ENTITY: EventEntity moves to X=-599.211*, Z=586.089*, Y=0.586*
  6: 0x02CE [0x1F] MOVE_ENTITY: Update entity position (mode=1)
  7: 0x02D0 [0x1F] MOVE_ENTITY: EventEntity moves to X=-599.391*, Z=583.375*, Y=0.830*
  8: 0x02D8 [0x1F] MOVE_ENTITY: Update entity position (mode=1)
  9: 0x02DA [0x1C] WAIT(30* ticks)
 10: 0x02DD [0x1E] EventEntity looks at Unnamed NPC (ID: 17719571/0x010E6113) and starts talking
 11: 0x02E2 [0x1C] WAIT(120* ticks)
 12: 0x02E5 [0x1F] MOVE_ENTITY: EventEntity moves to X=-602.007*, Z=587.764*, Y=0.268*
 13: 0x02ED [0x1F] MOVE_ENTITY: Update entity position (mode=1)
 14: 0x02EF [0x1C] WAIT(30* ticks)
 15: 0x02F2 [0x1E] EventEntity looks at Unnamed NPC (ID: 17719571/0x010E6113) and starts talking
 16: 0x02F7 [0x00] END_REQSTACK()
```

### Event 65535.27

#### Metadata

| Field        | Value    |
|--------------|----------|
| Entrypoint   | 0x02F8   |
| Data Size    | 50 bytes |
| Instructions | 12       |

```
      00 01 02 03 04 05 06 07  08 09 0A 0B 0C 0D 0E 0F
      -- -- -- -- -- -- -- --  -- -- -- -- -- -- -- --
02F0:                          32 37 80 1F 00 5B 80 5C          27...[.\
0300: 80 5D 80 1F 01 1C 40 80  1F 00 5E 80 5F 80 60 80  .]....@...^._.`.
0310: 1F 01 1C 40 80 1F 00 42  80 43 80 44 80 1F 01 4B  ...@...B.C.D...K
0320: 15 61 0E 01 61 80 1C 40  80 00                    .a..a..@..      
```

#### Opcodes

```
  0: 0x02F8 [0x32] ExtData[1]->MainSpeed = 10* * 0.1
  1: 0x02FB [0x1F] MOVE_ENTITY: EventEntity moves to X=-600.221*, Z=588.558*, Y=0.369*
  2: 0x0303 [0x1F] MOVE_ENTITY: Update entity position (mode=1)
  3: 0x0305 [0x1C] WAIT(60* ticks)
  4: 0x0308 [0x1F] MOVE_ENTITY: EventEntity moves to X=-602.144*, Z=586.825*, Y=0.376*
  5: 0x0310 [0x1F] MOVE_ENTITY: Update entity position (mode=1)
  6: 0x0312 [0x1C] WAIT(60* ticks)
  7: 0x0315 [0x1F] MOVE_ENTITY: EventEntity moves to X=-600.128*, Z=585.578*, Y=0.628*
  8: 0x031D [0x1F] MOVE_ENTITY: Update entity position (mode=1)
  9: 0x031F [0x4B] UPDATE_ENTITY_YAW(entity=Unnamed NPC (ID: 17719573/0x010E6115), yaw=11.8°*)
 10: 0x0326 [0x1C] WAIT(60* ticks)
 11: 0x0329 [0x00] END_REQSTACK()
```

### Event 65535.28

#### Metadata

| Field        | Value    |
|--------------|----------|
| Entrypoint   | 0x032A   |
| Data Size    | 50 bytes |
| Instructions | 12       |

```
      00 01 02 03 04 05 06 07  08 09 0A 0B 0C 0D 0E 0F
      -- -- -- -- -- -- -- --  -- -- -- -- -- -- -- --
0320:                                32 41 80 1F 00 62            2A...b
0330: 80 63 80 64 80 1F 01 1C  40 80 1F 00 5E 80 5F 80  .c.d....@...^._.
0340: 60 80 1F 01 1C 40 80 1F  00 42 80 43 80 44 80 1F  `....@...B.C.D..
0350: 01 4B 15 61 0E 01 61 80  1C 40 80 00              .K.a..a..@..    
```

#### Opcodes

```
  0: 0x032A [0x32] ExtData[1]->MainSpeed = 19* * 0.1
  1: 0x032D [0x1F] MOVE_ENTITY: EventEntity moves to X=-599.892*, Z=588.477*, Y=0.373*
  2: 0x0335 [0x1F] MOVE_ENTITY: Update entity position (mode=1)
  3: 0x0337 [0x1C] WAIT(60* ticks)
  4: 0x033A [0x1F] MOVE_ENTITY: EventEntity moves to X=-602.144*, Z=586.825*, Y=0.376*
  5: 0x0342 [0x1F] MOVE_ENTITY: Update entity position (mode=1)
  6: 0x0344 [0x1C] WAIT(60* ticks)
  7: 0x0347 [0x1F] MOVE_ENTITY: EventEntity moves to X=-600.128*, Z=585.578*, Y=0.628*
  8: 0x034F [0x1F] MOVE_ENTITY: Update entity position (mode=1)
  9: 0x0351 [0x4B] UPDATE_ENTITY_YAW(entity=Unnamed NPC (ID: 17719573/0x010E6115), yaw=11.8°*)
 10: 0x0358 [0x1C] WAIT(60* ticks)
 11: 0x035B [0x00] END_REQSTACK()
```

### Event 65535.29

#### Metadata

| Field        | Value    |
|--------------|----------|
| Entrypoint   | 0x035C   |
| Data Size    | 67 bytes |
| Instructions | 15       |

```
      00 01 02 03 04 05 06 07  08 09 0A 0B 0C 0D 0E 0F
      -- -- -- -- -- -- -- --  -- -- -- -- -- -- -- --
0350:                                      32 05 80 1F              2...
0360: 00 65 80 66 80 67 80 1F  01 4B 15 61 0E 01 68 80  .e.f.g...K.a..h.
0370: 1C 40 80 1F 00 69 80 6A  80 6B 80 1F 01 4B 15 61  .@...i.j.k...K.a
0380: 0E 01 6C 80 1C 6D 80 1F  00 6E 80 6F 80 70 80 1F  ..l..m...n.o.p..
0390: 01 1C 52 80 4B 15 61 0E  01 71 80 1C 40 80 00     ..R.K.a..q..@.. 
```

#### Opcodes

```
  0: 0x035C [0x32] ExtData[1]->MainSpeed = 57* * 0.1
  1: 0x035F [0x1F] MOVE_ENTITY: EventEntity moves to X=-599.295*, Z=590.678*, Y=0.264*
  2: 0x0367 [0x1F] MOVE_ENTITY: Update entity position (mode=1)
  3: 0x0369 [0x4B] UPDATE_ENTITY_YAW(entity=Unnamed NPC (ID: 17719573/0x010E6115), yaw=5.3°*)
  4: 0x0370 [0x1C] WAIT(60* ticks)
  5: 0x0373 [0x1F] MOVE_ENTITY: EventEntity moves to X=-604.353*, Z=586.292*, Y=0.138*
  6: 0x037B [0x1F] MOVE_ENTITY: Update entity position (mode=1)
  7: 0x037D [0x4B] UPDATE_ENTITY_YAW(entity=Unnamed NPC (ID: 17719573/0x010E6115), yaw=0.2°*)
  8: 0x0384 [0x1C] WAIT(240* ticks)
  9: 0x0387 [0x1F] MOVE_ENTITY: EventEntity moves to X=-600.328*, Z=582.410*, Y=0.802*
 10: 0x038F [0x1F] MOVE_ENTITY: Update entity position (mode=1)
 11: 0x0391 [0x1C] WAIT(30* ticks)
 12: 0x0394 [0x4B] UPDATE_ENTITY_YAW(entity=Unnamed NPC (ID: 17719573/0x010E6115), yaw=16.6°*)
 13: 0x039B [0x1C] WAIT(60* ticks)
 14: 0x039E [0x00] END_REQSTACK()
```

### Event 65535.30

#### Metadata

| Field        | Value    |
|--------------|----------|
| Entrypoint   | 0x039F   |
| Data Size    | 14 bytes |
| Instructions | 4        |

```
      00 01 02 03 04 05 06 07  08 09 0A 0B 0C 0D 0E 0F
      -- -- -- -- -- -- -- --  -- -- -- -- -- -- -- --
0390:                                               32                 2
03A0: 37 80 1F 00 72 80 73 80  74 80 1F 01 00           7...r.s.t....   
```

#### Opcodes

```
  0: 0x039F [0x32] ExtData[1]->MainSpeed = 10* * 0.1
  1: 0x03A2 [0x1F] MOVE_ENTITY: EventEntity moves to X=-599.148*, Z=589.043*, Y=0.345*
  2: 0x03AA [0x1F] MOVE_ENTITY: Update entity position (mode=1)
  3: 0x03AC [0x00] END_REQSTACK()
```

### Event 65535.31

#### Metadata

| Field        | Value    |
|--------------|----------|
| Entrypoint   | 0x03AD   |
| Data Size    | 51 bytes |
| Instructions | 11       |

```
      00 01 02 03 04 05 06 07  08 09 0A 0B 0C 0D 0E 0F
      -- -- -- -- -- -- -- --  -- -- -- -- -- -- -- --
03A0:                                         32 37 80               27.
03B0: 1F 00 75 80 76 80 05 80  1F 01 1F 00 77 80 78 80  ..u.v.......w.x.
03C0: 79 80 1F 01 1F 00 7A 80  7B 80 7C 80 1F 01 1E 13  y.....z.{.|.....
03D0: 61 0E 01 1C 52 80 4A 13  61 0E 01 14 61 0E 01 00  a...R.J.a...a...
```

#### Opcodes

```
  0: 0x03AD [0x32] ExtData[1]->MainSpeed = 10* * 0.1
  1: 0x03B0 [0x1F] MOVE_ENTITY: EventEntity moves to X=-604.257*, Z=586.573*, Y=0.057*
  2: 0x03B8 [0x1F] MOVE_ENTITY: Update entity position (mode=1)
  3: 0x03BA [0x1F] MOVE_ENTITY: EventEntity moves to X=-603.318*, Z=588.527*, Y=0.196*
  4: 0x03C2 [0x1F] MOVE_ENTITY: Update entity position (mode=1)
  5: 0x03C4 [0x1F] MOVE_ENTITY: EventEntity moves to X=-601.495*, Z=586.040*, Y=0.496*
  6: 0x03CC [0x1F] MOVE_ENTITY: Update entity position (mode=1)
  7: 0x03CE [0x1E] EventEntity looks at Unnamed NPC (ID: 17719571/0x010E6113) and starts talking
  8: 0x03D3 [0x1C] WAIT(30* ticks)
  9: 0x03D6 [0x4A] Unnamed NPC (ID: 17719571/0x010E6113) looks at Unnamed NPC (ID: 17719572/0x010E6114)
 10: 0x03DF [0x00] END_REQSTACK()
```

### Event 65535.32

#### Metadata

| Field        | Value    |
|--------------|----------|
| Entrypoint   | 0x03E0   |
| Data Size    | 14 bytes |
| Instructions | 4        |

```
      00 01 02 03 04 05 06 07  08 09 0A 0B 0C 0D 0E 0F
      -- -- -- -- -- -- -- --  -- -- -- -- -- -- -- --
03E0: 32 05 80 1F 00 72 80 73  80 74 80 1F 01 00        2....r.s.t....  
```

#### Opcodes

```
  0: 0x03E0 [0x32] ExtData[1]->MainSpeed = 57* * 0.1
  1: 0x03E3 [0x1F] MOVE_ENTITY: EventEntity moves to X=-599.148*, Z=589.043*, Y=0.345*
  2: 0x03EB [0x1F] MOVE_ENTITY: Update entity position (mode=1)
  3: 0x03ED [0x00] END_REQSTACK()
```

### Event 65535.33

#### Metadata

| Field        | Value    |
|--------------|----------|
| Entrypoint   | 0x03EE   |
| Data Size    | 51 bytes |
| Instructions | 11       |

```
      00 01 02 03 04 05 06 07  08 09 0A 0B 0C 0D 0E 0F
      -- -- -- -- -- -- -- --  -- -- -- -- -- -- -- --
03E0:                                            32 05                2.
03F0: 80 1F 00 75 80 76 80 05  80 1F 01 1F 00 77 80 78  ...u.v.......w.x
0400: 80 79 80 1F 01 1F 00 7A  80 7B 80 7C 80 1F 01 1E  .y.....z.{.|....
0410: 13 61 0E 01 1C 52 80 4A  13 61 0E 01 15 61 0E 01  .a...R.J.a...a..
0420: 00                                                .               
```

#### Opcodes

```
  0: 0x03EE [0x32] ExtData[1]->MainSpeed = 57* * 0.1
  1: 0x03F1 [0x1F] MOVE_ENTITY: EventEntity moves to X=-604.257*, Z=586.573*, Y=0.057*
  2: 0x03F9 [0x1F] MOVE_ENTITY: Update entity position (mode=1)
  3: 0x03FB [0x1F] MOVE_ENTITY: EventEntity moves to X=-603.318*, Z=588.527*, Y=0.196*
  4: 0x0403 [0x1F] MOVE_ENTITY: Update entity position (mode=1)
  5: 0x0405 [0x1F] MOVE_ENTITY: EventEntity moves to X=-601.495*, Z=586.040*, Y=0.496*
  6: 0x040D [0x1F] MOVE_ENTITY: Update entity position (mode=1)
  7: 0x040F [0x1E] EventEntity looks at Unnamed NPC (ID: 17719571/0x010E6113) and starts talking
  8: 0x0414 [0x1C] WAIT(30* ticks)
  9: 0x0417 [0x4A] Unnamed NPC (ID: 17719571/0x010E6113) looks at Unnamed NPC (ID: 17719573/0x010E6115)
 10: 0x0420 [0x00] END_REQSTACK()
```

### Event 65535.34

#### Metadata

| Field        | Value    |
|--------------|----------|
| Entrypoint   | 0x0421   |
| Data Size    | 59 bytes |
| Instructions | 13       |

```
      00 01 02 03 04 05 06 07  08 09 0A 0B 0C 0D 0E 0F
      -- -- -- -- -- -- -- --  -- -- -- -- -- -- -- --
0420:    32 37 80 1F 00 7D 80  7E 80 7F 80 1F 01 1F 00   27...}.~.......
0430: 80 80 81 80 82 80 1F 01  1F 00 83 80 84 80 85 80  ................
0440: 1F 01 1F 00 86 80 87 80  88 80 1F 01 1F 00 89 80  ................
0450: 8A 80 8B 80 1F 01 1E 13  61 0E 01 00              ........a...    
```

#### Opcodes

```
  0: 0x0421 [0x32] ExtData[1]->MainSpeed = 10* * 0.1
  1: 0x0424 [0x1F] MOVE_ENTITY: EventEntity moves to X=-601.361*, Z=584.507*, Y=0.542*
  2: 0x042C [0x1F] MOVE_ENTITY: Update entity position (mode=1)
  3: 0x042E [0x1F] MOVE_ENTITY: EventEntity moves to X=-600.414*, Z=583.859*, Y=0.704*
  4: 0x0436 [0x1F] MOVE_ENTITY: Update entity position (mode=1)
  5: 0x0438 [0x1F] MOVE_ENTITY: EventEntity moves to X=-599.376*, Z=585.276*, Y=0.668*
  6: 0x0440 [0x1F] MOVE_ENTITY: Update entity position (mode=1)
  7: 0x0442 [0x1F] MOVE_ENTITY: EventEntity moves to X=-598.992*, Z=587.260*, Y=0.468*
  8: 0x044A [0x1F] MOVE_ENTITY: Update entity position (mode=1)
  9: 0x044C [0x1F] MOVE_ENTITY: EventEntity moves to X=-599.942*, Z=587.474*, Y=0.447*
 10: 0x0454 [0x1F] MOVE_ENTITY: Update entity position (mode=1)
 11: 0x0456 [0x1E] EventEntity looks at Unnamed NPC (ID: 17719571/0x010E6113) and starts talking
 12: 0x045B [0x00] END_REQSTACK()
```

### Event 65535.35

#### Metadata

| Field        | Value    |
|--------------|----------|
| Entrypoint   | 0x045C   |
| Data Size    | 69 bytes |
| Instructions | 15       |

```
      00 01 02 03 04 05 06 07  08 09 0A 0B 0C 0D 0E 0F
      -- -- -- -- -- -- -- --  -- -- -- -- -- -- -- --
0450:                                      32 05 80 1F              2...
0460: 00 8C 80 8D 80 8E 80 1F  01 1F 00 8F 80 90 80 24  ...............$
0470: 80 1F 01 1F 00 91 80 92  80 93 80 1F 01 1F 00 94  ................
0480: 80 95 80 96 80 1F 01 1F  00 97 80 98 80 99 80 1F  ................
0490: 01 1F 00 9A 80 9B 80 9C  80 1F 01 1E 13 61 0E 01  .............a..
04A0: 00                                                .               
```

#### Opcodes

```
  0: 0x045C [0x32] ExtData[1]->MainSpeed = 57* * 0.1
  1: 0x045F [0x1F] MOVE_ENTITY: EventEntity moves to X=-602.454*, Z=588.333*, Y=0.247*
  2: 0x0467 [0x1F] MOVE_ENTITY: Update entity position (mode=1)
  3: 0x0469 [0x1F] MOVE_ENTITY: EventEntity moves to X=-603.634*, Z=585.657*, Y=0.144*
  4: 0x0471 [0x1F] MOVE_ENTITY: Update entity position (mode=1)
  5: 0x0473 [0x1F] MOVE_ENTITY: EventEntity moves to X=-602.421*, Z=582.680*, Y=0.396*
  6: 0x047B [0x1F] MOVE_ENTITY: Update entity position (mode=1)
  7: 0x047D [0x1F] MOVE_ENTITY: EventEntity moves to X=-599.175*, Z=582.899*, Y=0.854*
  8: 0x0485 [0x1F] MOVE_ENTITY: Update entity position (mode=1)
  9: 0x0487 [0x1F] MOVE_ENTITY: EventEntity moves to X=-598.432*, Z=587.737*, Y=0.410*
 10: 0x048F [0x1F] MOVE_ENTITY: Update entity position (mode=1)
 11: 0x0491 [0x1F] MOVE_ENTITY: EventEntity moves to X=-599.890*, Z=589.432*, Y=0.326*
 12: 0x0499 [0x1F] MOVE_ENTITY: Update entity position (mode=1)
 13: 0x049B [0x1E] EventEntity looks at Unnamed NPC (ID: 17719571/0x010E6113) and starts talking
 14: 0x04A0 [0x00] END_REQSTACK()
```

### Event 65535.36

#### Metadata

| Field        | Value    |
|--------------|----------|
| Entrypoint   | 0x04A1   |
| Data Size    | 15 bytes |
| Instructions | 3        |

```
      00 01 02 03 04 05 06 07  08 09 0A 0B 0C 0D 0E 0F
      -- -- -- -- -- -- -- --  -- -- -- -- -- -- -- --
04A0:    37 58 80 59 80 5A 80  45 80 80 F8 FF FF 7F 00   7X.Y.Z.E.......
```

#### Opcodes

```
  0: 0x04A1 [0x37] UPDATE_EVENT_POSITION_AND_DIR: x=-602.007*, z=587.764*, y=0.268*, direction=25.0°*
  1: 0x04AA [0x80] LOAD_WAIT(entity=EventEntity)
  2: 0x04AF [0x00] END_REQSTACK()
```
