# 17719587 - Pulonono

## Common Data

| Field            | Value                         |
|------------------|-------------------------------|
| Zone             | Southern San d'Oria (ID: 230) |
| Block Size       | 608 bytes                     |
| Total Events     | 18                            |
| References Count | 56                            |

## List of Events

| Event ID                   | Entrypoint   |   Size |   Instructions |
|----------------------------|--------------|--------|----------------|
| [65535](#event-65535)      | 0x0000       |      1 |              1 |
| [821](#event-821)          | 0x0001       |      1 |              1 |
| [65535.1](#event-655351)   | 0x0002       |     15 |              3 |
| [65535.2](#event-655352)   | 0x0011       |     19 |              5 |
| [827](#event-827)          | 0x0024       |      1 |              1 |
| [823](#event-823)          | 0x0025       |      1 |              1 |
| [65535.3](#event-655353)   | 0x0026       |     15 |              3 |
| [65535.4](#event-655354)   | 0x0035       |     14 |              4 |
| [65535.5](#event-655355)   | 0x0043       |     30 |              3 |
| [65535.6](#event-655356)   | 0x0061       |     19 |              5 |
| [65535.7](#event-655357)   | 0x0074       |     21 |              2 |
| [65535.8](#event-655358)   | 0x0089       |     15 |              3 |
| [65535.9](#event-655359)   | 0x0098       |     15 |              3 |
| [65535.10](#event-6553510) | 0x00A7       |     15 |              3 |
| [65535.11](#event-6553511) | 0x00B6       |     22 |              4 |
| [65535.12](#event-6553512) | 0x00CC       |     35 |              4 |
| [65535.13](#event-6553513) | 0x00EF       |     35 |              4 |
| [65535.14](#event-6553514) | 0x0112       |     21 |              2 |

## DAT References (imed_data)

|   Index | Hex Value   |   Dec Value |
|---------|-------------|-------------|
|       0 | 0xFFFFE1F8  |  4294959608 |
|       1 | 0xFFFE8B05  |  4294871813 |
|       2 | 0x0577      |        1399 |
|       3 | 0x01F8      |         504 |
|       4 | 0x000D      |          13 |
|       5 | 0xFFFFE11A  |  4294959386 |
|       6 | 0xFFFEAC31  |  4294880305 |
|       7 | 0x07CF      |        1999 |
|       8 | 0x2DFBD     |      188349 |
|       9 | 0x4E83      |       20099 |
|      10 | 0x0850      |        2128 |
|      11 | 0x081E      |        2078 |
|      12 | 0x2CF77     |      184183 |
|      13 | 0x5053      |       20563 |
|      14 | 0x0A6A      |        2666 |
|      15 | 0x001F      |          31 |
|      16 | 0x0014      |          20 |
|      17 | 0x0000      |           0 |
|      18 | 0xFFFDECDE  |  4294831326 |
|      19 | 0x5175      |       20853 |
|      20 | 0xFFFFF830  |  4294965296 |
|      21 | 0x0D7D      |        3453 |
|      22 | 0x0028      |          40 |
|      23 | 0xFFFDDD02  |  4294827266 |
|      24 | 0x420D      |       16909 |
|      25 | 0x0016      |          22 |
|      26 | 0x8906      |       35078 |
|      27 | 0xFFFF8059  |  4294934617 |
|      28 | 0x0F61      |        3937 |
|      29 | 0xFFFFDD6F  |  4294958447 |
|      30 | 0xFFFE66B8  |  4294862520 |
|      31 | 0x060C      |        1548 |
|      32 | 0x002D      |          45 |
|      33 | 0x8170      |       33136 |
|      34 | 0x1233      |        4659 |
|      35 | 0x0534      |        1332 |
|      36 | 0x064E      |        1614 |
|      37 | 0x003C      |          60 |
|      38 | 0x0004      |           4 |
|      39 | 0x0005      |           5 |
|      40 | 0x0015      |          21 |
|      41 | 0x0008      |           8 |
|      42 | 0x000A      |          10 |
|      43 | 0x0018      |          24 |
|      44 | 0xFFF82819  |  4294453273 |
|      45 | 0xFFF99E63  |  4294549091 |
|      46 | 0x04E9      |        1257 |
|      47 | 0x09F9      |        2553 |
|      48 | 0x0001      |           1 |
|      49 | 0x0019      |          25 |
|      50 | 0xFFFFA9D9  |  4294945241 |
|      51 | 0xFFFFD126  |  4294955302 |
|      52 | 0x01CC      |         460 |
|      53 | 0x0006      |           6 |
|      54 | 0x0010      |          16 |
|      55 | 0x0013      |          19 |

## Events

### Event 65535

#### Metadata

| Field        | Value   |
|--------------|---------|
| Entrypoint   | 0x0000  |
| Data Size    | 1 bytes |
| Instructions | 1       |

```
      00 01 02 03 04 05 06 07  08 09 0A 0B 0C 0D 0E 0F
      -- -- -- -- -- -- -- --  -- -- -- -- -- -- -- --
0000: 00                                                .               
```

#### Opcodes

```
  0: 0x0000 [0x00] END_REQSTACK()
```

### Event 821

#### Metadata

| Field        | Value   |
|--------------|---------|
| Entrypoint   | 0x0001  |
| Data Size    | 1 bytes |
| Instructions | 1       |

```
      00 01 02 03 04 05 06 07  08 09 0A 0B 0C 0D 0E 0F
      -- -- -- -- -- -- -- --  -- -- -- -- -- -- -- --
0000:    00                                              .              
```

#### Opcodes

```
  0: 0x0001 [0x00] END_REQSTACK()
```

### Event 65535.1

#### Metadata

| Field        | Value    |
|--------------|----------|
| Entrypoint   | 0x0002   |
| Data Size    | 15 bytes |
| Instructions | 3        |

```
      00 01 02 03 04 05 06 07  08 09 0A 0B 0C 0D 0E 0F
      -- -- -- -- -- -- -- --  -- -- -- -- -- -- -- --
0000:       37 00 80 01 80 02  80 03 80 80 F8 FF FF 7F    7.............
0010: 00                                                .               
```

#### Opcodes

```
  0: 0x0002 [0x37] UPDATE_EVENT_POSITION_AND_DIR: x=-7.688*, z=-95.483*, y=1.399*, direction=44.3°*
  1: 0x000B [0x80] LOAD_WAIT(entity=EventEntity)
  2: 0x0010 [0x00] END_REQSTACK()
```

### Event 65535.2

#### Metadata

| Field        | Value    |
|--------------|----------|
| Entrypoint   | 0x0011   |
| Data Size    | 19 bytes |
| Instructions | 5        |

```
      00 01 02 03 04 05 06 07  08 09 0A 0B 0C 0D 0E 0F
      -- -- -- -- -- -- -- --  -- -- -- -- -- -- -- --
0010:    32 04 80 1F 00 05 80  06 80 07 80 1F 01 80 F8   2..............
0020: FF FF 7F 00                                       ....            
```

#### Opcodes

```
  0: 0x0011 [0x32] ExtData[1]->MainSpeed = 13* * 0.1
  1: 0x0014 [0x1F] MOVE_ENTITY: EventEntity moves to X=-7.910*, Z=-86.991*, Y=1.999*
  2: 0x001C [0x1F] MOVE_ENTITY: Update entity position (mode=1)
  3: 0x001E [0x80] LOAD_WAIT(entity=EventEntity)
  4: 0x0023 [0x00] END_REQSTACK()
```

### Event 827

#### Metadata

| Field        | Value   |
|--------------|---------|
| Entrypoint   | 0x0024  |
| Data Size    | 1 bytes |
| Instructions | 1       |

```
      00 01 02 03 04 05 06 07  08 09 0A 0B 0C 0D 0E 0F
      -- -- -- -- -- -- -- --  -- -- -- -- -- -- -- --
0020:             00                                        .           
```

#### Opcodes

```
  0: 0x0024 [0x00] END_REQSTACK()
```

### Event 823

#### Metadata

| Field        | Value   |
|--------------|---------|
| Entrypoint   | 0x0025  |
| Data Size    | 1 bytes |
| Instructions | 1       |

```
      00 01 02 03 04 05 06 07  08 09 0A 0B 0C 0D 0E 0F
      -- -- -- -- -- -- -- --  -- -- -- -- -- -- -- --
0020:                00                                      .          
```

#### Opcodes

```
  0: 0x0025 [0x00] END_REQSTACK()
```

### Event 65535.3

#### Metadata

| Field        | Value    |
|--------------|----------|
| Entrypoint   | 0x0026   |
| Data Size    | 15 bytes |
| Instructions | 3        |

```
      00 01 02 03 04 05 06 07  08 09 0A 0B 0C 0D 0E 0F
      -- -- -- -- -- -- -- --  -- -- -- -- -- -- -- --
0020:                   37 08  80 09 80 0A 80 0B 80 80        7.........
0030: F8 FF FF 7F 00                                    .....           
```

#### Opcodes

```
  0: 0x0026 [0x37] UPDATE_EVENT_POSITION_AND_DIR: x=188.349*, z=20.099*, y=2.128*, direction=182.6°*
  1: 0x002F [0x80] LOAD_WAIT(entity=EventEntity)
  2: 0x0034 [0x00] END_REQSTACK()
```

### Event 65535.4

#### Metadata

| Field        | Value    |
|--------------|----------|
| Entrypoint   | 0x0035   |
| Data Size    | 14 bytes |
| Instructions | 4        |

```
      00 01 02 03 04 05 06 07  08 09 0A 0B 0C 0D 0E 0F
      -- -- -- -- -- -- -- --  -- -- -- -- -- -- -- --
0030:                32 04 80  1F 00 0C 80 0D 80 0E 80       2..........
0040: 1F 01 00                                          ...             
```

#### Opcodes

```
  0: 0x0035 [0x32] ExtData[1]->MainSpeed = 13* * 0.1
  1: 0x0038 [0x1F] MOVE_ENTITY: EventEntity moves to X=184.183*, Z=20.563*, Y=2.666*
  2: 0x0040 [0x1F] MOVE_ENTITY: Update entity position (mode=1)
  3: 0x0042 [0x00] END_REQSTACK()
```

### Event 65535.5

#### Metadata

| Field        | Value    |
|--------------|----------|
| Entrypoint   | 0x0043   |
| Data Size    | 30 bytes |
| Instructions | 3        |

```
      00 01 02 03 04 05 06 07  08 09 0A 0B 0C 0D 0E 0F
      -- -- -- -- -- -- -- --  -- -- -- -- -- -- -- --
0040:          B6 0B 0F 80 10  80 10 80 10 80 10 80 10     .............
0050: 80 10 80 11 80 11 80 37  12 80 13 80 14 80 15 80  .......7........
0060: 00                                                .               
```

#### Opcodes

```
  0: 0x0043 [0xB6] ENTITY_APPEARANCE_HANDLER(case=Full entity look, race=31*, hair=20*, head=20*, body=20*, hands=20*, legs=20*, feet=20*, main=0*, sub=0*)
  1: 0x0057 [0x37] UPDATE_EVENT_POSITION_AND_DIR: x=-135.970*, z=20.853*, y=-2.000*, direction=303.5°*
  2: 0x0060 [0x00] END_REQSTACK()
```

### Event 65535.6

#### Metadata

| Field        | Value    |
|--------------|----------|
| Entrypoint   | 0x0061   |
| Data Size    | 19 bytes |
| Instructions | 5        |

```
      00 01 02 03 04 05 06 07  08 09 0A 0B 0C 0D 0E 0F
      -- -- -- -- -- -- -- --  -- -- -- -- -- -- -- --
0060:    32 16 80 1F 00 17 80  18 80 14 80 1F 01 1E 25   2.............%
0070: 61 0E 01 00                                       a...            
```

#### Opcodes

```
  0: 0x0061 [0x32] ExtData[1]->MainSpeed = 40* * 0.1
  1: 0x0064 [0x1F] MOVE_ENTITY: EventEntity moves to X=-140.030*, Z=16.909*, Y=-2.000*
  2: 0x006C [0x1F] MOVE_ENTITY: Update entity position (mode=1)
  3: 0x006E [0x1E] EventEntity looks at Zopago (ID: 17719589/0x010E6125) and starts talking
  4: 0x0073 [0x00] END_REQSTACK()
```

### Event 65535.7

#### Metadata

| Field        | Value    |
|--------------|----------|
| Entrypoint   | 0x0074   |
| Data Size    | 21 bytes |
| Instructions | 2        |

```
      00 01 02 03 04 05 06 07  08 09 0A 0B 0C 0D 0E 0F
      -- -- -- -- -- -- -- --  -- -- -- -- -- -- -- --
0070:             B6 0B 0F 80  19 80 11 80 10 80 11 80      ............
0080: 10 80 11 80 11 80 11 80  00                       .........       
```

#### Opcodes

```
  0: 0x0074 [0xB6] ENTITY_APPEARANCE_HANDLER(case=Full entity look, race=31*, hair=22*, head=0*, body=20*, hands=0*, legs=20*, feet=0*, main=0*, sub=0*)
  1: 0x0088 [0x00] END_REQSTACK()
```

### Event 65535.8

#### Metadata

| Field        | Value    |
|--------------|----------|
| Entrypoint   | 0x0089   |
| Data Size    | 15 bytes |
| Instructions | 3        |

```
      00 01 02 03 04 05 06 07  08 09 0A 0B 0C 0D 0E 0F
      -- -- -- -- -- -- -- --  -- -- -- -- -- -- -- --
0080:                             37 1A 80 1B 80 07 80           7......
0090: 1C 80 80 F8 FF FF 7F 00                           ........        
```

#### Opcodes

```
  0: 0x0089 [0x37] UPDATE_EVENT_POSITION_AND_DIR: x=35.078*, z=-32.679*, y=1.999*, direction=346.0°*
  1: 0x0092 [0x80] LOAD_WAIT(entity=EventEntity)
  2: 0x0097 [0x00] END_REQSTACK()
```

### Event 65535.9

#### Metadata

| Field        | Value    |
|--------------|----------|
| Entrypoint   | 0x0098   |
| Data Size    | 15 bytes |
| Instructions | 3        |

```
      00 01 02 03 04 05 06 07  08 09 0A 0B 0C 0D 0E 0F
      -- -- -- -- -- -- -- --  -- -- -- -- -- -- -- --
0090:                          37 1D 80 1E 80 1F 80 20          7...... 
00A0: 80 80 F8 FF FF 7F 00                              .......         
```

#### Opcodes

```
  0: 0x0098 [0x37] UPDATE_EVENT_POSITION_AND_DIR: x=-8.849*, z=-104.776*, y=1.548*, direction=4.0°*
  1: 0x00A1 [0x80] LOAD_WAIT(entity=EventEntity)
  2: 0x00A6 [0x00] END_REQSTACK()
```

### Event 65535.10

#### Metadata

| Field        | Value    |
|--------------|----------|
| Entrypoint   | 0x00A7   |
| Data Size    | 15 bytes |
| Instructions | 3        |

```
      00 01 02 03 04 05 06 07  08 09 0A 0B 0C 0D 0E 0F
      -- -- -- -- -- -- -- --  -- -- -- -- -- -- -- --
00A0:                      37  21 80 22 80 23 80 24 80         7!.".#.$.
00B0: 80 F8 FF FF 7F 00                                 ......          
```

#### Opcodes

```
  0: 0x00A7 [0x37] UPDATE_EVENT_POSITION_AND_DIR: x=33.136*, z=4.659*, y=1.332*, direction=141.9°*
  1: 0x00B0 [0x80] LOAD_WAIT(entity=EventEntity)
  2: 0x00B5 [0x00] END_REQSTACK()
```

### Event 65535.11

#### Metadata

| Field        | Value    |
|--------------|----------|
| Entrypoint   | 0x00B6   |
| Data Size    | 22 bytes |
| Instructions | 4        |

```
      00 01 02 03 04 05 06 07  08 09 0A 0B 0C 0D 0E 0F
      -- -- -- -- -- -- -- --  -- -- -- -- -- -- -- --
00B0:                   1C 25  80 4A 23 61 0E 01 13 61        .%.J#a...a
00C0: 0E 01 4A 25 61 0E 01 13  61 0E 01 00              ..J%a...a...    
```

#### Opcodes

```
  0: 0x00B6 [0x1C] WAIT(60* ticks)
  1: 0x00B9 [0x4A] Pulonono (ID: 17719587/0x010E6123) looks at Unnamed NPC (ID: 17719571/0x010E6113)
  2: 0x00C2 [0x4A] Zopago (ID: 17719589/0x010E6125) looks at Unnamed NPC (ID: 17719571/0x010E6113)
  3: 0x00CB [0x00] END_REQSTACK()
```

### Event 65535.12

#### Metadata

| Field        | Value    |
|--------------|----------|
| Entrypoint   | 0x00CC   |
| Data Size    | 35 bytes |
| Instructions | 4        |

```
      00 01 02 03 04 05 06 07  08 09 0A 0B 0C 0D 0E 0F
      -- -- -- -- -- -- -- --  -- -- -- -- -- -- -- --
00C0:                                      B6 0B 26 80              ..&.
00D0: 27 80 28 80 29 80 2A 80  28 80 2B 80 11 80 11 80  '.(.).*.(.+.....
00E0: 37 2C 80 2D 80 2E 80 2F  80 80 F8 FF FF 7F 00     7,.-.../....... 
```

#### Opcodes

```
  0: 0x00CC [0xB6] ENTITY_APPEARANCE_HANDLER(case=Full entity look, race=4*, hair=5*, head=21*, body=8*, hands=10*, legs=21*, feet=24*, main=0*, sub=0*)
  1: 0x00E0 [0x37] UPDATE_EVENT_POSITION_AND_DIR: x=-514.023*, z=-418.205*, y=1.257*, direction=224.4°*
  2: 0x00E9 [0x80] LOAD_WAIT(entity=EventEntity)
  3: 0x00EE [0x00] END_REQSTACK()
```

### Event 65535.13

#### Metadata

| Field        | Value    |
|--------------|----------|
| Entrypoint   | 0x00EF   |
| Data Size    | 35 bytes |
| Instructions | 4        |

```
      00 01 02 03 04 05 06 07  08 09 0A 0B 0C 0D 0E 0F
      -- -- -- -- -- -- -- --  -- -- -- -- -- -- -- --
00E0:                                               B6                 .
00F0: 0B 30 80 04 80 11 80 29  80 31 80 2B 80 31 80 11  .0.....).1.+.1..
0100: 80 11 80 37 32 80 33 80  07 80 34 80 80 F8 FF FF  ...72.3...4.....
0110: 7F 00                                             ..              
```

#### Opcodes

```
  0: 0x00EF [0xB6] ENTITY_APPEARANCE_HANDLER(case=Full entity look, race=1*, hair=13*, head=0*, body=8*, hands=25*, legs=24*, feet=25*, main=0*, sub=0*)
  1: 0x0103 [0x37] UPDATE_EVENT_POSITION_AND_DIR: x=-22.055*, z=-11.994*, y=1.999*, direction=40.4°*
  2: 0x010C [0x80] LOAD_WAIT(entity=EventEntity)
  3: 0x0111 [0x00] END_REQSTACK()
```

### Event 65535.14

#### Metadata

| Field        | Value    |
|--------------|----------|
| Entrypoint   | 0x0112   |
| Data Size    | 21 bytes |
| Instructions | 2        |

```
      00 01 02 03 04 05 06 07  08 09 0A 0B 0C 0D 0E 0F
      -- -- -- -- -- -- -- --  -- -- -- -- -- -- -- --
0110:       B6 0B 35 80 36 80  11 80 37 80 37 80 37 80    ..5.6...7.7.7.
0120: 37 80 11 80 11 80 00                              7......         
```

#### Opcodes

```
  0: 0x0112 [0xB6] ENTITY_APPEARANCE_HANDLER(case=Full entity look, race=6*, hair=16*, head=0*, body=19*, hands=19*, legs=19*, feet=19*, main=0*, sub=0*)
  1: 0x0126 [0x00] END_REQSTACK()
```
