# 17719420 - Open5

## Common Data

| Field            | Value                         |
|------------------|-------------------------------|
| Zone             | Southern San d'Oria (ID: 230) |
| Block Size       | 108 bytes                     |
| Total Events     | 3                             |
| References Count | 9                             |

## List of Events

| Event ID                 | Entrypoint   |   Size |   Instructions |
|--------------------------|--------------|--------|----------------|
| [65535](#event-65535)    | 0x0000       |      1 |              1 |
| [503](#event-503)        | 0x0001       |      1 |              1 |
| [65535.1](#event-655351) | 0x0002       |     41 |              9 |

## DAT References (imed_data)

|   Index | Hex Value   |   Dec Value |
|---------|-------------|-------------|
|       0 | 0x0032      |          50 |
|       1 | 0xFFFFE15A  |  4294959450 |
|       2 | 0xFFFFF00B  |  4294963211 |
|       3 | 0x07CF      |        1999 |
|       4 | 0x0756      |        1878 |
|       5 | 0xFFFFBB8F  |  4294949775 |
|       6 | 0xFFFFB35B  |  4294947675 |
|       7 | 0xFFFF654D  |  4294927693 |
|       8 | 0xFFFFA9A3  |  4294945187 |

## Events

### Event 65535

#### Metadata

| Field        | Value   |
|--------------|---------|
| Entrypoint   | 0x0000  |
| Data Size    | 1 bytes |
| Instructions | 1       |

```
      00 01 02 03 04 05 06 07  08 09 0A 0B 0C 0D 0E 0F
      -- -- -- -- -- -- -- --  -- -- -- -- -- -- -- --
0000: 00                                                .               
```

#### Opcodes

```
  0: 0x0000 [0x00] END_REQSTACK()
```

### Event 503

#### Metadata

| Field        | Value   |
|--------------|---------|
| Entrypoint   | 0x0001  |
| Data Size    | 1 bytes |
| Instructions | 1       |

```
      00 01 02 03 04 05 06 07  08 09 0A 0B 0C 0D 0E 0F
      -- -- -- -- -- -- -- --  -- -- -- -- -- -- -- --
0000:    00                                              .              
```

#### Opcodes

```
  0: 0x0001 [0x00] END_REQSTACK()
```

### Event 65535.1

#### Metadata

| Field        | Value    |
|--------------|----------|
| Entrypoint   | 0x0002   |
| Data Size    | 41 bytes |
| Instructions | 9        |

```
      00 01 02 03 04 05 06 07  08 09 0A 0B 0C 0D 0E 0F
      -- -- -- -- -- -- -- --  -- -- -- -- -- -- -- --
0000:       2F 00 7C 60 0E 01  22 00 32 00 80 37 01 80    /.|`..".2..7..
0010: 02 80 03 80 04 80 1F 00  05 80 06 80 03 80 1F 01  ................
0020: 1F 00 07 80 08 80 03 80  1F 01 00                 ...........     
```

#### Opcodes

```
  0: 0x0002 [0x2F] Open5 (ID: 17719420/0x010E607C)->Render.Flags0 &= ~0x80000 // Bit 19
  1: 0x0008 [0x22] ENTITY_HIDE_FLAG(enabled=0x00)
  2: 0x000A [0x32] ExtData[1]->MainSpeed = 50* * 0.1
  3: 0x000D [0x37] UPDATE_EVENT_POSITION_AND_DIR: x=-7.846*, z=-4.085*, y=1.999*, direction=165.1°*
  4: 0x0016 [0x1F] MOVE_ENTITY: EventEntity moves to X=-17.521*, Z=-19.621*, Y=1.999*
  5: 0x001E [0x1F] MOVE_ENTITY: Update entity position (mode=1)
  6: 0x0020 [0x1F] MOVE_ENTITY: EventEntity moves to X=-39.603*, Z=-22.109*, Y=1.999*
  7: 0x0028 [0x1F] MOVE_ENTITY: Update entity position (mode=1)
  8: 0x002A [0x00] END_REQSTACK()
```
