# 17719353 - Helbort

## Common Data

| Field            | Value                         |
|------------------|-------------------------------|
| Zone             | Southern San d'Oria (ID: 230) |
| Block Size       | 604 bytes                     |
| Total Events     | 6                             |
| References Count | 24                            |

## List of Events

| Event ID              | Entrypoint   |   Size |   Instructions |
|-----------------------|--------------|--------|----------------|
| [65535](#event-65535) | 0x0000       |      1 |              1 |
| [50](#event-50)       | 0x0001       |      1 |              1 |
| [77](#event-77)       | 0x0002       |      1 |              1 |
| [593](#event-593)     | 0x0003       |    196 |             38 |
| [594](#event-594)     | 0x00C7       |    178 |             38 |
| [607](#event-607)     | 0x0179       |     89 |             17 |

## DAT References (imed_data)

|   Index | Hex Value   |   Dec Value |
|---------|-------------|-------------|
|       0 | 0x0014      |          20 |
|       1 | 0x1F41      |        8001 |
|       2 | 0x003C      |          60 |
|       3 | 0x1F51      |        8017 |
|       4 | 0x0003      |           3 |
|       5 | 0x0082      |         130 |
|       6 | 0x0000      |           0 |
|       7 | 0x1F52      |        8018 |
|       8 | 0x1F53      |        8019 |
|       9 | 0x001E      |          30 |
|      10 | 0x1F46      |        8006 |
|      11 | 0x1F47      |        8007 |
|      12 | 0x1FD0      |        8144 |
|      13 | 0x1F48      |        8008 |
|      14 | 0x1F49      |        8009 |
|      15 | 0x0061      |          97 |
|      16 | 0x0062      |          98 |
|      17 | 0x1F4A      |        8010 |
|      18 | 0x0001      |           1 |
|      19 | 0x1F4C      |        8012 |
|      20 | 0x40000000  |  1073741824 |
|      21 | 0x1F4E      |        8014 |
|      22 | 0x1F4F      |        8015 |
|      23 | 0x00C9      |         201 |

## String References

- **8001**: Welcome, welcome! Either of my attendants will be happy to help you!
- **8006**: How about you? You look like the adventuring type. We need help filling an order. Of course, we would compensate you accordingly.
- **8007**: A customer has ordered a large amount of weaponry, but we're without the stock to fill it. We need someone to procure the remainder from a free trader.
- **8008**: Then you'll do it? Much obliged! Listen well, and I'll explain what you're to do.
- **8009**: A free trader named Alexius often passes through Jugner Forest. He's one of our suppliers of weapons.
- **8010**: Take this $3 to Alexius, and he'll give you $6 in exchange. Bring that back here.
- **8012**: Eh? You won't do it? That's a shame. Well, come back if you change your mind.
- **8014**: You've returned, and with the receipt! Splendid. Thanks to you, we can make the consortium happy!
- **8015**: Here's a payment for your services. Mind you use it well!
- **8017**: He's back again...
- **8018**: Comes in every day to look, but never to buy! Word is he's a Royal Knight, and that he's quite a weapons enthusiast.
- **8019**: They say whenever he's off duty he just leaves his kid and scours the weapon shops... Even I would tire of them before long!
- **8144**: Accept? [Yes./I'm sorry.]

## Events

### Event 65535

#### Metadata

| Field        | Value   |
|--------------|---------|
| Entrypoint   | 0x0000  |
| Data Size    | 1 bytes |
| Instructions | 1       |

```
      00 01 02 03 04 05 06 07  08 09 0A 0B 0C 0D 0E 0F
      -- -- -- -- -- -- -- --  -- -- -- -- -- -- -- --
0000: 00                                                .               
```

#### Opcodes

```
  0: 0x0000 [0x00] END_REQSTACK()
```

### Event 50

#### Metadata

| Field        | Value   |
|--------------|---------|
| Entrypoint   | 0x0001  |
| Data Size    | 1 bytes |
| Instructions | 1       |

```
      00 01 02 03 04 05 06 07  08 09 0A 0B 0C 0D 0E 0F
      -- -- -- -- -- -- -- --  -- -- -- -- -- -- -- --
0000:    00                                              .              
```

#### Opcodes

```
  0: 0x0001 [0x00] END_REQSTACK()
```

### Event 77

#### Metadata

| Field        | Value   |
|--------------|---------|
| Entrypoint   | 0x0002  |
| Data Size    | 1 bytes |
| Instructions | 1       |

```
      00 01 02 03 04 05 06 07  08 09 0A 0B 0C 0D 0E 0F
      -- -- -- -- -- -- -- --  -- -- -- -- -- -- -- --
0000:       00                                            .             
```

#### Opcodes

```
  0: 0x0002 [0x00] END_REQSTACK()
```

### Event 593

#### Metadata

| Field        | Value     |
|--------------|-----------|
| Entrypoint   | 0x0003    |
| Data Size    | 196 bytes |
| Instructions | 38        |

```
      00 01 02 03 04 05 06 07  08 09 0A 0B 0C 0D 0E 0F
      -- -- -- -- -- -- -- --  -- -- -- -- -- -- -- --
0000:          42 46 01 1E F0  FF FF 7F 6F 70 66 00 80     BF......opf..
0010: F8 FF FF 7F F8 FF FF 7F  74 6C 6B 30 1D 01 80 23  ........tlk0...#
0020: 5E 69 64 6C 30 1C 02 80  1E 3C 60 0E 01 6F 70 66  ^idl0....<`..opf
0030: 00 80 F8 FF FF 7F F8 FF  FF 7F 74 6C 6B 30 1D 03  ..........tlk0..
0040: 80 23 5E 69 64 6C 30 38  04 80 45 05 80 F0 FF FF  .#^idl08..E.....
0050: 7F F0 FF FF 7F 73 30 30  37 06 80 1C 02 80 27 64  .....s007.....'d
0060: 3C 60 0E 01 0B 55 05 80  F0 FF FF 7F F0 FF FF 7F  <`...U..........
0070: 73 30 30 37 66 00 80 F8  FF FF 7F F8 FF FF 7F 74  s007f..........t
0080: 6C 6B 30 1D 07 80 23 5E  69 64 6C 30 4A F0 FF FF  lk0...#^idl0J...
0090: 7F 3C 60 0E 01 2A 64 3C  60 0E 01 27 65 3C 60 0E  .<`..*d<`..'e<`.
00A0: 01 0C 66 00 80 F8 FF FF  7F F8 FF FF 7F 74 6C 6B  ..f..........tlk
00B0: 30 1D 08 80 23 5E 69 64  6C 30 1C 09 80 2A 65 3C  0...#^idl0...*e<
00C0: 60 0E 01 46 00 21 00                              `..F.!.         
```

#### Opcodes

```
  0: 0x0003 [0x42] SET_CLI_EVENT_CANCEL_DATA()
  1: 0x0004 [0x46] CAMERA_CONTROL: Disable user control
  2: 0x0006 [0x1E] EventEntity looks at LocalPlayer and starts talking
  3: 0x000B [0x6F] WAIT_FRAME_DELAY: Yield until WaitTime reaches zero
  4: 0x000C [0x70] WAIT_ENTITY_RENDER_FLAG: Wait while EventEntity->Render.Flags3 bit 2 is set (cancel turn if not)
  5: 0x000D [0x66] LOAD_EXT_SCHEDULER_MAIN: Load scheduler "tlk0" with entities [EventEntity, EventEntity], work=20*
  6: 0x001C [0x1D] PRINT_EVENT_MESSAGE(message_id=8001*)
    → "Welcome, welcome! Either of my attendants will be happy to help you!"
  7: 0x001F [0x23] WAIT_FOR_DIALOG_INTERACTION
  8: 0x0020 [0x5E] EventEntity goes idle (kills current action) (animation: "idl0")
  9: 0x0025 [0x1C] WAIT(60* ticks)
 10: 0x0028 [0x1E] EventEntity looks at Exoroche (ID: 17719356/0x010E603C) and starts talking
 11: 0x002D [0x6F] WAIT_FRAME_DELAY: Yield until WaitTime reaches zero
 12: 0x002E [0x70] WAIT_ENTITY_RENDER_FLAG: Wait while EventEntity->Render.Flags3 bit 2 is set (cancel turn if not)
 13: 0x002F [0x66] LOAD_EXT_SCHEDULER_MAIN: Load scheduler "tlk0" with entities [EventEntity, EventEntity], work=20*
 14: 0x003E [0x1D] PRINT_EVENT_MESSAGE(message_id=8017*)
    → "He's back again..."
 15: 0x0041 [0x23] WAIT_FOR_DIALOG_INTERACTION
 16: 0x0042 [0x5E] EventEntity goes idle (kills current action) (animation: "idl0")
 17: 0x0047 [0x38] SET_CLIENT_EVENT_MODE(mode=3*)
 18: 0x004A [0x45] LOAD_SCHEDULED_TASK: Load scheduler "s007" with entities [LocalPlayer, LocalPlayer], work=[130*, 0*]
 19: 0x005B [0x1C] WAIT(60* ticks)
 20: 0x005E [0x27] REQ_SET(priority=0x64, entity_id=Exoroche (ID: 17719356/0x010E603C), tag_num=0x0B)
 21: 0x0065 [0x55] WAIT_LOAD_SCHEDULER: Wait for scheduler "s007" with entities [LocalPlayer, LocalPlayer], work=130*
 22: 0x0074 [0x66] LOAD_EXT_SCHEDULER_MAIN: Load scheduler "tlk0" with entities [EventEntity, EventEntity], work=20*
 23: 0x0083 [0x1D] PRINT_EVENT_MESSAGE(message_id=8018*)
    → "Comes in every day to look, but never to buy! Word is he's a Royal Knight, and that he's quite a weapons enthusiast."
 24: 0x0086 [0x23] WAIT_FOR_DIALOG_INTERACTION
 25: 0x0087 [0x5E] EventEntity goes idle (kills current action) (animation: "idl0")
 26: 0x008C [0x4A] LocalPlayer looks at Exoroche (ID: 17719356/0x010E603C)
 27: 0x0095 [0x2A] GET_REQ_LEVEL(level=100, entity_id=Exoroche (ID: 17719356/0x010E603C))
 28: 0x009B [0x27] REQ_SET(priority=0x65, entity_id=Exoroche (ID: 17719356/0x010E603C), tag_num=0x0C)
 29: 0x00A2 [0x66] LOAD_EXT_SCHEDULER_MAIN: Load scheduler "tlk0" with entities [EventEntity, EventEntity], work=20*
 30: 0x00B1 [0x1D] PRINT_EVENT_MESSAGE(message_id=8019*)
    → "They say whenever he's off duty he just leaves his kid and scours the weapon shops... Even I would tire of them before long!"
 31: 0x00B4 [0x23] WAIT_FOR_DIALOG_INTERACTION
 32: 0x00B5 [0x5E] EventEntity goes idle (kills current action) (animation: "idl0")
 33: 0x00BA [0x1C] WAIT(30* ticks)
 34: 0x00BD [0x2A] GET_REQ_LEVEL(level=101, entity_id=Exoroche (ID: 17719356/0x010E603C))
 35: 0x00C3 [0x46] CAMERA_CONTROL: Restore default settings
 36: 0x00C5 [0x21] END_EVENT
 37: 0x00C6 [0x00] END_REQSTACK()
```

### Event 594

#### Metadata

| Field        | Value     |
|--------------|-----------|
| Entrypoint   | 0x00C7    |
| Data Size    | 178 bytes |
| Instructions | 38        |

```
      00 01 02 03 04 05 06 07  08 09 0A 0B 0C 0D 0E 0F
      -- -- -- -- -- -- -- --  -- -- -- -- -- -- -- --
00C0:                      1E  F0 FF FF 7F 6F 70 66 00         .....opf.
00D0: 80 F8 FF FF 7F F8 FF FF  7F 74 6C 6B 30 1D 0A 80  .........tlk0...
00E0: 23 1C 09 80 1D 0B 80 23  5E 69 64 6C 30 24 0C 80  #......#^idl0$..
00F0: 06 80 06 80 25 02 00 10  06 80 00 4C 01 66 00 80  ....%......L.f..
0100: F8 FF FF 7F F8 FF FF 7F  74 6C 6B 30 1D 0D 80 23  ........tlk0...#
0110: 1C 09 80 1D 0E 80 23 03  02 10 0F 80 03 03 10 10  ......#.........
0120: 80 66 00 80 F8 FF FF 7F  F8 FF FF 7F 70 61 73 30  .f..........pas0
0130: 1D 11 80 23 53 F8 FF FF  7F F8 FF FF 7F 70 61 73  ...#S........pas
0140: 30 1C 09 80 03 01 10 06  80 01 77 01 02 00 10 12  0.........w.....
0150: 80 00 77 01 66 00 80 F8  FF FF 7F F8 FF FF 7F 74  ..w.f..........t
0160: 6C 6B 30 1D 13 80 23 5E  69 64 6C 30 1C 09 80 03  lk0...#^idl0....
0170: 01 10 14 80 01 77 01 21  00                       .....w.!.       
```

#### Opcodes

```
  0: 0x00C7 [0x1E] EventEntity looks at LocalPlayer and starts talking
  1: 0x00CC [0x6F] WAIT_FRAME_DELAY: Yield until WaitTime reaches zero
  2: 0x00CD [0x70] WAIT_ENTITY_RENDER_FLAG: Wait while EventEntity->Render.Flags3 bit 2 is set (cancel turn if not)
  3: 0x00CE [0x66] LOAD_EXT_SCHEDULER_MAIN: Load scheduler "tlk0" with entities [EventEntity, EventEntity], work=20*
  4: 0x00DD [0x1D] PRINT_EVENT_MESSAGE(message_id=8006*)
    → "How about you? You look like the adventuring type. We need help filling an order. Of course, we would compensate you accordingly."
  5: 0x00E0 [0x23] WAIT_FOR_DIALOG_INTERACTION
  6: 0x00E1 [0x1C] WAIT(30* ticks)
  7: 0x00E4 [0x1D] PRINT_EVENT_MESSAGE(message_id=8007*)
    → "A customer has ordered a large amount of weaponry, but we're without the stock to fill it. We need someone to procure the remainder from a free trader."
  8: 0x00E7 [0x23] WAIT_FOR_DIALOG_INTERACTION
  9: 0x00E8 [0x5E] EventEntity goes idle (kills current action) (animation: "idl0")
 10: 0x00ED [0x24] CREATE_DIALOG(message_id=8144*, default_option=0*, option_flags=0*)
    → "Accept? [Yes./I'm sorry.]"
 11: 0x00F4 [0x25] WAIT_DIALOG_SELECT()
 12: 0x00F5 [0x02] IF !(Work_Zone[0] == 0*) GOTO 0x014C
 13: 0x00FD [0x66] LOAD_EXT_SCHEDULER_MAIN: Load scheduler "tlk0" with entities [EventEntity, EventEntity], work=20*
 14: 0x010C [0x1D] PRINT_EVENT_MESSAGE(message_id=8008*)
    → "Then you'll do it? Much obliged! Listen well, and I'll explain what you're to do."
 15: 0x010F [0x23] WAIT_FOR_DIALOG_INTERACTION
 16: 0x0110 [0x1C] WAIT(30* ticks)
 17: 0x0113 [0x1D] PRINT_EVENT_MESSAGE(message_id=8009*)
    → "A free trader named Alexius often passes through Jugner Forest. He's one of our suppliers of weapons."
 18: 0x0116 [0x23] WAIT_FOR_DIALOG_INTERACTION
 19: 0x0117 [0x03] Work_Zone[2] = 97*
 20: 0x011C [0x03] Work_Zone[3] = 98*
 21: 0x0121 [0x66] LOAD_EXT_SCHEDULER_MAIN: Load scheduler "pas0" with entities [EventEntity, EventEntity], work=20*
 22: 0x0130 [0x1D] PRINT_EVENT_MESSAGE(message_id=8010*)
    → "Take this $3 to Alexius, and he'll give you $6 in exchange. Bring that back here."
 23: 0x0133 [0x23] WAIT_FOR_DIALOG_INTERACTION
 24: 0x0134 [0x53] WAIT_SCHEDULER_TASK: Wait for scheduler "pas0" with entities [EventEntity, EventEntity]
 25: 0x0141 [0x1C] WAIT(30* ticks)
 26: 0x0144 [0x03] Work_Zone[1] = 0*
 27: 0x0149 [0x01] GOTO 0x0177
 28: 0x014C [0x02] IF !(Work_Zone[0] == 1*) GOTO 0x0177
 29: 0x0154 [0x66] LOAD_EXT_SCHEDULER_MAIN: Load scheduler "tlk0" with entities [EventEntity, EventEntity], work=20*
 30: 0x0163 [0x1D] PRINT_EVENT_MESSAGE(message_id=8012*)
    → "Eh? You won't do it? That's a shame. Well, come back if you change your mind."
 31: 0x0166 [0x23] WAIT_FOR_DIALOG_INTERACTION
 32: 0x0167 [0x5E] EventEntity goes idle (kills current action) (animation: "idl0")
 33: 0x016C [0x1C] WAIT(30* ticks)
 34: 0x016F [0x03] Work_Zone[1] = 1073741824*
 35: 0x0174 [0x01] GOTO 0x0177

SUBROUTINE_0177:
 36: 0x0177 [0x21] END_EVENT
 37: 0x0178 [0x00] END_REQSTACK()
```

### Event 607

#### Metadata

| Field        | Value    |
|--------------|----------|
| Entrypoint   | 0x0179   |
| Data Size    | 89 bytes |
| Instructions | 17       |

```
      00 01 02 03 04 05 06 07  08 09 0A 0B 0C 0D 0E 0F
      -- -- -- -- -- -- -- --  -- -- -- -- -- -- -- --
0170:                             42 1E F0 FF FF 7F 6F           B.....o
0180: 70 66 00 80 F8 FF FF 7F  F8 FF FF 7F 74 6C 6B 30  pf..........tlk0
0190: 1D 15 80 23 5E 69 64 6C  30 1C 09 80 66 00 80 F8  ...#^idl0...f...
01A0: FF FF 7F F8 FF FF 7F 70  61 73 30 1D 16 80 23 53  .......pas0...#S
01B0: F8 FF FF 7F F8 FF FF 7F  70 61 73 30 45 17 80 F0  ........pas0E...
01C0: FF FF 7F F0 FF FF 7F 71  73 74 63 06 80 1C 09 80  .......qstc.....
01D0: 21 00                                             !.              
```

#### Opcodes

```
  0: 0x0179 [0x42] SET_CLI_EVENT_CANCEL_DATA()
  1: 0x017A [0x1E] EventEntity looks at LocalPlayer and starts talking
  2: 0x017F [0x6F] WAIT_FRAME_DELAY: Yield until WaitTime reaches zero
  3: 0x0180 [0x70] WAIT_ENTITY_RENDER_FLAG: Wait while EventEntity->Render.Flags3 bit 2 is set (cancel turn if not)
  4: 0x0181 [0x66] LOAD_EXT_SCHEDULER_MAIN: Load scheduler "tlk0" with entities [EventEntity, EventEntity], work=20*
  5: 0x0190 [0x1D] PRINT_EVENT_MESSAGE(message_id=8014*)
    → "You've returned, and with the receipt! Splendid. Thanks to you, we can make the consortium happy!"
  6: 0x0193 [0x23] WAIT_FOR_DIALOG_INTERACTION
  7: 0x0194 [0x5E] EventEntity goes idle (kills current action) (animation: "idl0")
  8: 0x0199 [0x1C] WAIT(30* ticks)
  9: 0x019C [0x66] LOAD_EXT_SCHEDULER_MAIN: Load scheduler "pas0" with entities [EventEntity, EventEntity], work=20*
 10: 0x01AB [0x1D] PRINT_EVENT_MESSAGE(message_id=8015*)
    → "Here's a payment for your services. Mind you use it well!"
 11: 0x01AE [0x23] WAIT_FOR_DIALOG_INTERACTION
 12: 0x01AF [0x53] WAIT_SCHEDULER_TASK: Wait for scheduler "pas0" with entities [EventEntity, EventEntity]
 13: 0x01BC [0x45] LOAD_SCHEDULED_TASK: Load scheduler "qstc" with entities [LocalPlayer, LocalPlayer], work=[201*, 0*]
 14: 0x01CD [0x1C] WAIT(30* ticks)
 15: 0x01D0 [0x21] END_EVENT
 16: 0x01D1 [0x00] END_REQSTACK()
```
