# 17719357 - Authere

## Common Data

| Field            | Value                         |
|------------------|-------------------------------|
| Zone             | Southern San d'Oria (ID: 230) |
| Block Size       | 1336 bytes                    |
| Total Events     | 19                            |
| References Count | 46                            |

## List of Events

| Event ID                   | Entrypoint   |   Size |   Instructions |
|----------------------------|--------------|--------|----------------|
| [65535](#event-65535)      | 0x0000       |      1 |              1 |
| [0](#event-0)              | 0x0001       |      1 |              1 |
| [605](#event-605)          | 0x0002       |     36 |             10 |
| [597](#event-597)          | 0x0026       |    662 |            113 |
| [598](#event-598)          | 0x02BC       |      1 |              1 |
| [809](#event-809)          | 0x02BD       |     55 |             13 |
| [945](#event-945)          | 0x02F4       |     10 |              2 |
| [65535.1](#event-655351)   | 0x02FE       |     15 |              5 |
| [65535.2](#event-655352)   | 0x030D       |     68 |             12 |
| [65535.3](#event-655353)   | 0x0351       |     45 |              9 |
| [65535.4](#event-655354)   | 0x037E       |     89 |             16 |
| [65535.5](#event-655355)   | 0x03D7       |     15 |              5 |
| [65535.6](#event-655356)   | 0x03E6       |     10 |              2 |
| [65535.7](#event-655357)   | 0x03F0       |     15 |              5 |
| [65535.8](#event-655358)   | 0x03FF       |     18 |              6 |
| [3506](#event-3506)        | 0x0411       |      1 |              1 |
| [3507](#event-3507)        | 0x0412       |      1 |              1 |
| [65535.9](#event-655359)   | 0x0413       |     11 |              3 |
| [65535.10](#event-6553510) | 0x041E       |      4 |              2 |

## DAT References (imed_data)

|   Index | Hex Value   |   Dec Value |
|---------|-------------|-------------|
|       0 | 0x004B      |          75 |
|       1 | 0x1FC1      |        8129 |
|       2 | 0x001E      |          30 |
|       3 | 0x0003      |           3 |
|       4 | 0x00C8      |         200 |
|       5 | 0x0000      |           0 |
|       6 | 0x0082      |         130 |
|       7 | 0x1FAF      |        8111 |
|       8 | 0x003C      |          60 |
|       9 | 0x1FB2      |        8114 |
|      10 | 0x1FB4      |        8116 |
|      11 | 0x1FB7      |        8119 |
|      12 | 0x1FBB      |        8123 |
|      13 | 0x1FBE      |        8126 |
|      14 | 0x002D      |          45 |
|      15 | 0x0078      |         120 |
|      16 | 0x287B      |       10363 |
|      17 | 0x2880      |       10368 |
|      18 | 0x2881      |       10369 |
|      19 | 0x0060      |          96 |
|      20 | 0x0001      |           1 |
|      21 | 0x000B      |          11 |
|      22 | 0xF906      |       63750 |
|      23 | 0xFFFFC4F8  |  4294952184 |
|      24 | 0x07CF      |        1999 |
|      25 | 0x0013      |          19 |
|      26 | 0x7FC6      |       32710 |
|      27 | 0xFFFF82CC  |  4294935244 |
|      28 | 0x0027      |          39 |
|      29 | 0x4B65      |       19301 |
|      30 | 0xFFFF927C  |  4294939260 |
|      31 | 0x001D      |          29 |
|      32 | 0x000D      |          13 |
|      33 | 0xFFFFE0FB  |  4294959355 |
|      34 | 0xFFFFFCD8  |  4294966488 |
|      35 | 0xFFFFBEF4  |  4294950644 |
|      36 | 0xFFFFD7DD  |  4294957021 |
|      37 | 0xFFFFDD9F  |  4294958495 |
|      38 | 0xFFFFA44E  |  4294943822 |
|      39 | 0x007F      |         127 |
|      40 | 0x0028      |          40 |
|      41 | 0x3192      |       12690 |
|      42 | 0xFFFFCF7D  |  4294954877 |
|      43 | 0x0025      |          37 |
|      44 | 0x2E04      |       11780 |
|      45 | 0xFFFFCBDF  |  4294953951 |

## String References

- **8111**: You're so selfish! I lent you something yesterday! When are you going to give it back?
- **8114**: I'm not stealing! This brat won't give me back the toy I lent him!
- **8116**: Well, yes, but...
- **8123**: Hmm...maybe.
- **8126**: You really think fiends will attack?
- **8129**: When I grow up, I'm going to go fight the fiends, just like Prince Trion!
- **10363**: <Player>'s badge flashes brightly.
- **10368**: Wow! I wish I had a badge like that! Are they going to let you join the mercenaries? I was thinking of becoming a mercenary, too, one day...
- **10369**: Do you think they would let me in? Maybe I should try defeating a few fiends first.

## Events

### Event 65535

#### Metadata

| Field        | Value   |
|--------------|---------|
| Entrypoint   | 0x0000  |
| Data Size    | 1 bytes |
| Instructions | 1       |

```
      00 01 02 03 04 05 06 07  08 09 0A 0B 0C 0D 0E 0F
      -- -- -- -- -- -- -- --  -- -- -- -- -- -- -- --
0000: 00                                                .               
```

#### Opcodes

```
  0: 0x0000 [0x00] END_REQSTACK()
```

### Event 0

#### Metadata

| Field        | Value   |
|--------------|---------|
| Entrypoint   | 0x0001  |
| Data Size    | 1 bytes |
| Instructions | 1       |

```
      00 01 02 03 04 05 06 07  08 09 0A 0B 0C 0D 0E 0F
      -- -- -- -- -- -- -- --  -- -- -- -- -- -- -- --
0000:    00                                              .              
```

#### Opcodes

```
  0: 0x0001 [0x00] END_REQSTACK()
```

### Event 605

#### Metadata

| Field        | Value    |
|--------------|----------|
| Entrypoint   | 0x0002   |
| Data Size    | 36 bytes |
| Instructions | 10       |

```
      00 01 02 03 04 05 06 07  08 09 0A 0B 0C 0D 0E 0F
      -- -- -- -- -- -- -- --  -- -- -- -- -- -- -- --
0000:       1E F0 FF FF 7F 6F  70 5B 00 80 F8 FF FF 7F    .....op[......
0010: F8 FF FF 7F 74 6C 6B 30  1D 01 80 23 5E 69 64 6C  ....tlk0...#^idl
0020: 30 1C 02 80 21 00                                 0...!.          
```

#### Opcodes

```
  0: 0x0002 [0x1E] EventEntity looks at LocalPlayer and starts talking
  1: 0x0007 [0x6F] WAIT_FRAME_DELAY: Yield until WaitTime reaches zero
  2: 0x0008 [0x70] WAIT_ENTITY_RENDER_FLAG: Wait while EventEntity->Render.Flags3 bit 2 is set (cancel turn if not)
  3: 0x0009 [0x5B] LOAD_EXT_SCHEDULER: Load scheduler "tlk0" with entities [EventEntity, EventEntity], work=75*
  4: 0x0018 [0x1D] PRINT_EVENT_MESSAGE(message_id=8129*)
    → "When I grow up, I'm going to go fight the fiends, just like Prince Trion!"
  5: 0x001B [0x23] WAIT_FOR_DIALOG_INTERACTION
  6: 0x001C [0x5E] EventEntity goes idle (kills current action) (animation: "idl0")
  7: 0x0021 [0x1C] WAIT(30* ticks)
  8: 0x0024 [0x21] END_EVENT
  9: 0x0025 [0x00] END_REQSTACK()
```

### Event 597

#### Metadata

| Field        | Value     |
|--------------|-----------|
| Entrypoint   | 0x0026    |
| Data Size    | 662 bytes |
| Instructions | 113       |

```
      00 01 02 03 04 05 06 07  08 09 0A 0B 0C 0D 0E 0F
      -- -- -- -- -- -- -- --  -- -- -- -- -- -- -- --
0020:                   42 46  01 38 03 80 45 04 80 F0        BF.8..E...
0030: FF FF 7F F0 FF FF 7F 66  64 69 31 05 80 45 06 80  .......fdi1..E..
0040: F0 FF FF 7F F0 FF FF 7F  73 30 30 38 05 80 27 63  ........s008..'c
0050: F0 FF FF 7F 22 55 06 80  F0 FF FF 7F F0 FF FF 7F  ...."U..........
0060: 73 30 30 38 1C 02 80 27  64 3E 60 0E 01 05 2A 64  s008...'d>`...*d
0070: 3E 60 0E 01 1C 02 80 27  66 40 60 0E 01 04 1C 02  >`.....'f@`.....
0080: 80 1E 3E 60 0E 01 6F 70  5B 00 80 F8 FF FF 7F F8  ..>`..op[.......
0090: FF FF 7F 74 6C 6B 30 1D  07 80 23 5E 69 64 6C 30  ...tlk0...#^idl0
00A0: 1C 02 80 27 65 45 60 0E  01 0C 27 67 4B 60 0E 01  ...'eE`...'gK`..
00B0: 06 45 06 80 F0 FF FF 7F  F0 FF FF 7F 73 30 31 30  .E..........s010
00C0: 05 80 27 66 40 60 0E 01  05 2A 66 40 60 0E 01 1C  ..'f@`...*f@`...
00D0: 02 80 27 64 3E 60 0E 01  06 1C 08 80 1E 40 60 0E  ..'d>`.......@`.
00E0: 01 2A 64 3E 60 0E 01 1C  02 80 27 64 3E 60 0E 01  .*d>`.....'d>`..
00F0: 0A 6F 70 5B 00 80 F8 FF  FF 7F F8 FF FF 7F 74 6C  .op[..........tl
0100: 6B 30 1D 09 80 23 5E 69  64 6C 30 1C 02 80 1E 40  k0...#^idl0....@
0110: 60 0E 01 27 66 40 60 0E  01 06 2A 66 40 60 0E 01  `..'f@`...*f@`..
0120: 1C 02 80 6F 70 5B 00 80  F8 FF FF 7F F8 FF FF 7F  ...op[..........
0130: 74 6C 6B 30 1D 0A 80 23  5E 69 64 6C 30 1C 02 80  tlk0...#^idl0...
0140: 27 66 40 60 0E 01 03 2A  66 40 60 0E 01 1C 08 80  'f@`...*f@`.....
0150: 45 06 80 F0 FF FF 7F F0  FF FF 7F 73 30 37 39 05  E..........s079.
0160: 80 27 64 3E 60 0E 01 07  2A 64 3E 60 0E 01 1C 08  .'d>`...*d>`....
0170: 80 27 66 40 60 0E 01 07  2A 66 40 60 0E 01 1C 08  .'f@`...*f@`....
0180: 80 27 65 45 60 0E 01 0A  2B 45 60 0E 01 0B 80 23  .'eE`...+E`....#
0190: 45 06 80 F0 FF FF 7F F0  FF FF 7F 73 30 37 38 02  E..........s078.
01A0: 80 2A 65 45 60 0E 01 55  06 80 F0 FF FF 7F F0 FF  .*eE`..U........
01B0: FF 7F 73 30 37 38 45 06  80 F0 FF FF 7F F0 FF FF  ..s078E.........
01C0: 7F 73 30 31 33 05 80 55  06 80 F0 FF FF 7F F0 FF  .s013..U........
01D0: FF 7F 73 30 31 33 27 67  4B 60 0E 01 05 2A 67 4B  ..s013'gK`...*gK
01E0: 60 0E 01 1C 02 80 27 65  45 60 0E 01 0B 2A 65 45  `.....'eE`...*eE
01F0: 60 0E 01 1C 02 80 27 65  45 60 0E 01 0D 27 67 4B  `.....'eE`...'gK
0200: 60 0E 01 07 45 06 80 F0  FF FF 7F F0 FF FF 7F 73  `...E..........s
0210: 30 31 30 05 80 27 66 40  60 0E 01 08 2A 66 40 60  010..'f@`...*f@`
0220: 0E 01 1C 02 80 5B 00 80  F8 FF FF 7F F8 FF FF 7F  .....[..........
0230: 74 6C 6B 30 1D 0C 80 23  5E 69 64 6C 30 1C 08 80  tlk0...#^idl0...
0240: 27 66 40 60 0E 01 03 1C  08 80 27 64 3E 60 0E 01  'f@`......'d>`..
0250: 08 2A 64 3E 60 0E 01 1C  02 80 27 66 40 60 0E 01  .*d>`.....'f@`..
0260: 09 2A 66 40 60 0E 01 1C  02 80 1E 3E 60 0E 01 6F  .*f@`......>`..o
0270: 70 5B 00 80 F8 FF FF 7F  F8 FF FF 7F 74 6C 6B 30  p[..........tlk0
0280: 1D 0D 80 23 5E 69 64 6C  30 1C 0E 80 27 64 3E 60  ...#^idl0...'d>`
0290: 0E 01 0B 2A 64 3E 60 0E  01 1C 08 80 27 66 40 60  ...*d>`.....'f@`
02A0: 0E 01 0A 27 68 40 60 0E  01 0B 1C 0F 80 1E 40 60  ...'h@`.......@`
02B0: 0E 01 2A 68 40 60 0E 01  46 00 21 00              ..*h@`..F.!.    
```

#### Opcodes

```
  0: 0x0026 [0x42] SET_CLI_EVENT_CANCEL_DATA()
  1: 0x0027 [0x46] CAMERA_CONTROL: Disable user control
  2: 0x0029 [0x38] SET_CLIENT_EVENT_MODE(mode=3*)
  3: 0x002C [0x45] LOAD_SCHEDULED_TASK: Load scheduler "fdi1" with entities [LocalPlayer, LocalPlayer], work=[200*, 0*]
  4: 0x003D [0x45] LOAD_SCHEDULED_TASK: Load scheduler "s008" with entities [LocalPlayer, LocalPlayer], work=[130*, 0*]
  5: 0x004E [0x27] REQ_SET(priority=0x63, entity_id=LocalPlayer, tag_num=0x22)
  6: 0x0055 [0x55] WAIT_LOAD_SCHEDULER: Wait for scheduler "s008" with entities [LocalPlayer, LocalPlayer], work=130*
  7: 0x0064 [0x1C] WAIT(30* ticks)
  8: 0x0067 [0x27] REQ_SET(priority=0x64, entity_id=Blendare (ID: 17719358/0x010E603E), tag_num=0x05)
  9: 0x006E [0x2A] GET_REQ_LEVEL(level=100, entity_id=Blendare (ID: 17719358/0x010E603E))
 10: 0x0074 [0x1C] WAIT(30* ticks)
 11: 0x0077 [0x27] REQ_SET(priority=0x66, entity_id=Balasiel (ID: 17719360/0x010E6040), tag_num=0x04)
 12: 0x007E [0x1C] WAIT(30* ticks)
 13: 0x0081 [0x1E] EventEntity looks at Blendare (ID: 17719358/0x010E603E) and starts talking
 14: 0x0086 [0x6F] WAIT_FRAME_DELAY: Yield until WaitTime reaches zero
 15: 0x0087 [0x70] WAIT_ENTITY_RENDER_FLAG: Wait while EventEntity->Render.Flags3 bit 2 is set (cancel turn if not)
 16: 0x0088 [0x5B] LOAD_EXT_SCHEDULER: Load scheduler "tlk0" with entities [EventEntity, EventEntity], work=75*
 17: 0x0097 [0x1D] PRINT_EVENT_MESSAGE(message_id=8111*)
    → "You're so selfish! I lent you something yesterday! When are you going to give it back?"
 18: 0x009A [0x23] WAIT_FOR_DIALOG_INTERACTION
 19: 0x009B [0x5E] EventEntity goes idle (kills current action) (animation: "idl0")
 20: 0x00A0 [0x1C] WAIT(30* ticks)
 21: 0x00A3 [0x27] REQ_SET(priority=0x65, entity_id=Trion (ID: 17719365/0x010E6045), tag_num=0x0C)
 22: 0x00AA [0x27] REQ_SET(priority=0x67, entity_id=Avandale (ID: 17719371/0x010E604B), tag_num=0x06)
 23: 0x00B1 [0x45] LOAD_SCHEDULED_TASK: Load scheduler "s010" with entities [LocalPlayer, LocalPlayer], work=[130*, 0*]
 24: 0x00C2 [0x27] REQ_SET(priority=0x66, entity_id=Balasiel (ID: 17719360/0x010E6040), tag_num=0x05)
 25: 0x00C9 [0x2A] GET_REQ_LEVEL(level=102, entity_id=Balasiel (ID: 17719360/0x010E6040))
 26: 0x00CF [0x1C] WAIT(30* ticks)
 27: 0x00D2 [0x27] REQ_SET(priority=0x64, entity_id=Blendare (ID: 17719358/0x010E603E), tag_num=0x06)
 28: 0x00D9 [0x1C] WAIT(60* ticks)
 29: 0x00DC [0x1E] EventEntity looks at Balasiel (ID: 17719360/0x010E6040) and starts talking
 30: 0x00E1 [0x2A] GET_REQ_LEVEL(level=100, entity_id=Blendare (ID: 17719358/0x010E603E))
 31: 0x00E7 [0x1C] WAIT(30* ticks)
 32: 0x00EA [0x27] REQ_SET(priority=0x64, entity_id=Blendare (ID: 17719358/0x010E603E), tag_num=0x0A)
 33: 0x00F1 [0x6F] WAIT_FRAME_DELAY: Yield until WaitTime reaches zero
 34: 0x00F2 [0x70] WAIT_ENTITY_RENDER_FLAG: Wait while EventEntity->Render.Flags3 bit 2 is set (cancel turn if not)
 35: 0x00F3 [0x5B] LOAD_EXT_SCHEDULER: Load scheduler "tlk0" with entities [EventEntity, EventEntity], work=75*
 36: 0x0102 [0x1D] PRINT_EVENT_MESSAGE(message_id=8114*)
    → "I'm not stealing! This brat won't give me back the toy I lent him!"
 37: 0x0105 [0x23] WAIT_FOR_DIALOG_INTERACTION
 38: 0x0106 [0x5E] EventEntity goes idle (kills current action) (animation: "idl0")
 39: 0x010B [0x1C] WAIT(30* ticks)
 40: 0x010E [0x1E] EventEntity looks at Balasiel (ID: 17719360/0x010E6040) and starts talking
 41: 0x0113 [0x27] REQ_SET(priority=0x66, entity_id=Balasiel (ID: 17719360/0x010E6040), tag_num=0x06)
 42: 0x011A [0x2A] GET_REQ_LEVEL(level=102, entity_id=Balasiel (ID: 17719360/0x010E6040))
 43: 0x0120 [0x1C] WAIT(30* ticks)
 44: 0x0123 [0x6F] WAIT_FRAME_DELAY: Yield until WaitTime reaches zero
 45: 0x0124 [0x70] WAIT_ENTITY_RENDER_FLAG: Wait while EventEntity->Render.Flags3 bit 2 is set (cancel turn if not)
 46: 0x0125 [0x5B] LOAD_EXT_SCHEDULER: Load scheduler "tlk0" with entities [EventEntity, EventEntity], work=75*
 47: 0x0134 [0x1D] PRINT_EVENT_MESSAGE(message_id=8116*)
    → "Well, yes, but..."
 48: 0x0137 [0x23] WAIT_FOR_DIALOG_INTERACTION
 49: 0x0138 [0x5E] EventEntity goes idle (kills current action) (animation: "idl0")
 50: 0x013D [0x1C] WAIT(30* ticks)
 51: 0x0140 [0x27] REQ_SET(priority=0x66, entity_id=Balasiel (ID: 17719360/0x010E6040), tag_num=0x03)
 52: 0x0147 [0x2A] GET_REQ_LEVEL(level=102, entity_id=Balasiel (ID: 17719360/0x010E6040))
 53: 0x014D [0x1C] WAIT(60* ticks)
 54: 0x0150 [0x45] LOAD_SCHEDULED_TASK: Load scheduler "s079" with entities [LocalPlayer, LocalPlayer], work=[130*, 0*]
 55: 0x0161 [0x27] REQ_SET(priority=0x64, entity_id=Blendare (ID: 17719358/0x010E603E), tag_num=0x07)
 56: 0x0168 [0x2A] GET_REQ_LEVEL(level=100, entity_id=Blendare (ID: 17719358/0x010E603E))
 57: 0x016E [0x1C] WAIT(60* ticks)
 58: 0x0171 [0x27] REQ_SET(priority=0x66, entity_id=Balasiel (ID: 17719360/0x010E6040), tag_num=0x07)
 59: 0x0178 [0x2A] GET_REQ_LEVEL(level=102, entity_id=Balasiel (ID: 17719360/0x010E6040))
 60: 0x017E [0x1C] WAIT(60* ticks)
 61: 0x0181 [0x27] REQ_SET(priority=0x65, entity_id=Trion (ID: 17719365/0x010E6045), tag_num=0x0A)
 62: 0x0188 [0x2B] Trion (ID: 17719365/0x010E6045) [8119*]:
    → "Ah-choo!"
 63: 0x018F [0x23] WAIT_FOR_DIALOG_INTERACTION
 64: 0x0190 [0x45] LOAD_SCHEDULED_TASK: Load scheduler "s078" with entities [LocalPlayer, LocalPlayer], work=[130*, 30*]
 65: 0x01A1 [0x2A] GET_REQ_LEVEL(level=101, entity_id=Trion (ID: 17719365/0x010E6045))
 66: 0x01A7 [0x55] WAIT_LOAD_SCHEDULER: Wait for scheduler "s078" with entities [LocalPlayer, LocalPlayer], work=130*
 67: 0x01B6 [0x45] LOAD_SCHEDULED_TASK: Load scheduler "s013" with entities [LocalPlayer, LocalPlayer], work=[130*, 0*]
 68: 0x01C7 [0x55] WAIT_LOAD_SCHEDULER: Wait for scheduler "s013" with entities [LocalPlayer, LocalPlayer], work=130*
 69: 0x01D6 [0x27] REQ_SET(priority=0x67, entity_id=Avandale (ID: 17719371/0x010E604B), tag_num=0x05)
 70: 0x01DD [0x2A] GET_REQ_LEVEL(level=103, entity_id=Avandale (ID: 17719371/0x010E604B))
 71: 0x01E3 [0x1C] WAIT(30* ticks)
 72: 0x01E6 [0x27] REQ_SET(priority=0x65, entity_id=Trion (ID: 17719365/0x010E6045), tag_num=0x0B)
 73: 0x01ED [0x2A] GET_REQ_LEVEL(level=101, entity_id=Trion (ID: 17719365/0x010E6045))
 74: 0x01F3 [0x1C] WAIT(30* ticks)
 75: 0x01F6 [0x27] REQ_SET(priority=0x65, entity_id=Trion (ID: 17719365/0x010E6045), tag_num=0x0D)
 76: 0x01FD [0x27] REQ_SET(priority=0x67, entity_id=Avandale (ID: 17719371/0x010E604B), tag_num=0x07)
 77: 0x0204 [0x45] LOAD_SCHEDULED_TASK: Load scheduler "s010" with entities [LocalPlayer, LocalPlayer], work=[130*, 0*]
 78: 0x0215 [0x27] REQ_SET(priority=0x66, entity_id=Balasiel (ID: 17719360/0x010E6040), tag_num=0x08)
 79: 0x021C [0x2A] GET_REQ_LEVEL(level=102, entity_id=Balasiel (ID: 17719360/0x010E6040))
 80: 0x0222 [0x1C] WAIT(30* ticks)
 81: 0x0225 [0x5B] LOAD_EXT_SCHEDULER: Load scheduler "tlk0" with entities [EventEntity, EventEntity], work=75*
 82: 0x0234 [0x1D] PRINT_EVENT_MESSAGE(message_id=8123*)
    → "Hmm...maybe."
 83: 0x0237 [0x23] WAIT_FOR_DIALOG_INTERACTION
 84: 0x0238 [0x5E] EventEntity goes idle (kills current action) (animation: "idl0")
 85: 0x023D [0x1C] WAIT(60* ticks)
 86: 0x0240 [0x27] REQ_SET(priority=0x66, entity_id=Balasiel (ID: 17719360/0x010E6040), tag_num=0x03)
 87: 0x0247 [0x1C] WAIT(60* ticks)
 88: 0x024A [0x27] REQ_SET(priority=0x64, entity_id=Blendare (ID: 17719358/0x010E603E), tag_num=0x08)
 89: 0x0251 [0x2A] GET_REQ_LEVEL(level=100, entity_id=Blendare (ID: 17719358/0x010E603E))
 90: 0x0257 [0x1C] WAIT(30* ticks)
 91: 0x025A [0x27] REQ_SET(priority=0x66, entity_id=Balasiel (ID: 17719360/0x010E6040), tag_num=0x09)
 92: 0x0261 [0x2A] GET_REQ_LEVEL(level=102, entity_id=Balasiel (ID: 17719360/0x010E6040))
 93: 0x0267 [0x1C] WAIT(30* ticks)
 94: 0x026A [0x1E] EventEntity looks at Blendare (ID: 17719358/0x010E603E) and starts talking
 95: 0x026F [0x6F] WAIT_FRAME_DELAY: Yield until WaitTime reaches zero
 96: 0x0270 [0x70] WAIT_ENTITY_RENDER_FLAG: Wait while EventEntity->Render.Flags3 bit 2 is set (cancel turn if not)
 97: 0x0271 [0x5B] LOAD_EXT_SCHEDULER: Load scheduler "tlk0" with entities [EventEntity, EventEntity], work=75*
 98: 0x0280 [0x1D] PRINT_EVENT_MESSAGE(message_id=8126*)
    → "You really think fiends will attack?"
 99: 0x0283 [0x23] WAIT_FOR_DIALOG_INTERACTION
100: 0x0284 [0x5E] EventEntity goes idle (kills current action) (animation: "idl0")
101: 0x0289 [0x1C] WAIT(45* ticks)
102: 0x028C [0x27] REQ_SET(priority=0x64, entity_id=Blendare (ID: 17719358/0x010E603E), tag_num=0x0B)
103: 0x0293 [0x2A] GET_REQ_LEVEL(level=100, entity_id=Blendare (ID: 17719358/0x010E603E))
104: 0x0299 [0x1C] WAIT(60* ticks)
105: 0x029C [0x27] REQ_SET(priority=0x66, entity_id=Balasiel (ID: 17719360/0x010E6040), tag_num=0x0A)
106: 0x02A3 [0x27] REQ_SET(priority=0x68, entity_id=Balasiel (ID: 17719360/0x010E6040), tag_num=0x0B)
107: 0x02AA [0x1C] WAIT(120* ticks)
108: 0x02AD [0x1E] EventEntity looks at Balasiel (ID: 17719360/0x010E6040) and starts talking
109: 0x02B2 [0x2A] GET_REQ_LEVEL(level=104, entity_id=Balasiel (ID: 17719360/0x010E6040))
110: 0x02B8 [0x46] CAMERA_CONTROL: Restore default settings
111: 0x02BA [0x21] END_EVENT
112: 0x02BB [0x00] END_REQSTACK()
```

### Event 598

#### Metadata

| Field        | Value   |
|--------------|---------|
| Entrypoint   | 0x02BC  |
| Data Size    | 1 bytes |
| Instructions | 1       |

```
      00 01 02 03 04 05 06 07  08 09 0A 0B 0C 0D 0E 0F
      -- -- -- -- -- -- -- --  -- -- -- -- -- -- -- --
02B0:                                      00                       .   
```

#### Opcodes

```
  0: 0x02BC [0x00] END_REQSTACK()
```

### Event 809

#### Metadata

| Field        | Value    |
|--------------|----------|
| Entrypoint   | 0x02BD   |
| Data Size    | 55 bytes |
| Instructions | 13       |

```
      00 01 02 03 04 05 06 07  08 09 0A 0B 0C 0D 0E 0F
      -- -- -- -- -- -- -- --  -- -- -- -- -- -- -- --
02B0:                                         42 48 10               BH.
02C0: 80 1E F0 FF FF 7F 1C 02  80 5B 00 80 F8 FF FF 7F  .........[......
02D0: F8 FF FF 7F 74 6C 6B 30  1D 11 80 23 5B 00 80 F8  ....tlk0...#[...
02E0: FF FF 7F F8 FF FF 7F 74  6C 6B 31 1C 08 80 1D 12  .......tlk1.....
02F0: 80 23 21 00                                       .#!.            
```

#### Opcodes

```
  0: 0x02BD [0x42] SET_CLI_EVENT_CANCEL_DATA()
  1: 0x02BE [0x48] [System] [10363*]:
    → "<Player>'s badge flashes brightly."
  2: 0x02C1 [0x1E] EventEntity looks at LocalPlayer and starts talking
  3: 0x02C6 [0x1C] WAIT(30* ticks)
  4: 0x02C9 [0x5B] LOAD_EXT_SCHEDULER: Load scheduler "tlk0" with entities [EventEntity, EventEntity], work=75*
  5: 0x02D8 [0x1D] PRINT_EVENT_MESSAGE(message_id=10368*)
    → "Wow! I wish I had a badge like that! Are they going to let you join the mercenaries? I was thinking of becoming a mercenary, too, one day..."
  6: 0x02DB [0x23] WAIT_FOR_DIALOG_INTERACTION
  7: 0x02DC [0x5B] LOAD_EXT_SCHEDULER: Load scheduler "tlk1" with entities [EventEntity, EventEntity], work=75*
  8: 0x02EB [0x1C] WAIT(60* ticks)
  9: 0x02EE [0x1D] PRINT_EVENT_MESSAGE(message_id=10369*)
    → "Do you think they would let me in? Maybe I should try defeating a few fiends first."
 10: 0x02F1 [0x23] WAIT_FOR_DIALOG_INTERACTION
 11: 0x02F2 [0x21] END_EVENT
 12: 0x02F3 [0x00] END_REQSTACK()
```

### Event 945

#### Metadata

| Field        | Value    |
|--------------|----------|
| Entrypoint   | 0x02F4   |
| Data Size    | 10 bytes |
| Instructions | 2        |

```
      00 01 02 03 04 05 06 07  08 09 0A 0B 0C 0D 0E 0F
      -- -- -- -- -- -- -- --  -- -- -- -- -- -- -- --
02F0:             6C F8 FF FF  7F 13 80 14 80 00            l.........  
```

#### Opcodes

```
  0: 0x02F4 [0x6C] FADE_ENTITY_COLOR(entity_id=EventEntity, end_alpha=96*, fade_time=1*)
  1: 0x02FD [0x00] END_REQSTACK()
```

### Event 65535.1

#### Metadata

| Field        | Value    |
|--------------|----------|
| Entrypoint   | 0x02FE   |
| Data Size    | 15 bytes |
| Instructions | 5        |

```
      00 01 02 03 04 05 06 07  08 09 0A 0B 0C 0D 0E 0F
      -- -- -- -- -- -- -- --  -- -- -- -- -- -- -- --
02F0:                                            32 15                2.
0300: 80 1F 00 16 80 17 80 18  80 1F 01 6F 00           ...........o.   
```

#### Opcodes

```
  0: 0x02FE [0x32] ExtData[1]->MainSpeed = 11* * 0.1
  1: 0x0301 [0x1F] MOVE_ENTITY: EventEntity moves to X=63.750*, Z=-15.112*, Y=1.999*
  2: 0x0309 [0x1F] MOVE_ENTITY: Update entity position (mode=1)
  3: 0x030B [0x6F] WAIT_FRAME_DELAY: Yield until WaitTime reaches zero
  4: 0x030C [0x00] END_REQSTACK()
```

### Event 65535.2

#### Metadata

| Field        | Value    |
|--------------|----------|
| Entrypoint   | 0x030D   |
| Data Size    | 68 bytes |
| Instructions | 12       |

```
      00 01 02 03 04 05 06 07  08 09 0A 0B 0C 0D 0E 0F
      -- -- -- -- -- -- -- --  -- -- -- -- -- -- -- --
0300:                                         32 19 80               2..
0310: 1F 00 1A 80 1B 80 18 80  1F 01 6F 1E 3D 60 0E 01  ..........o.=`..
0320: 6F 76 F8 FF FF 7F 4A 3D  60 0E 01 F8 FF FF 7F 5B  ov....J=`......[
0330: 00 80 F8 FF FF 7F F8 FF  FF 7F 74 6C 6B 30 1C 02  ..........tlk0..
0340: 80 5B 00 80 3D 60 0E 01  3D 60 0E 01 74 68 6B 30  .[..=`..=`..thk0
0350: 00                                                .               
```

#### Opcodes

```
  0: 0x030D [0x32] ExtData[1]->MainSpeed = 19* * 0.1
  1: 0x0310 [0x1F] MOVE_ENTITY: EventEntity moves to X=32.710*, Z=-32.052*, Y=1.999*
  2: 0x0318 [0x1F] MOVE_ENTITY: Update entity position (mode=1)
  3: 0x031A [0x6F] WAIT_FRAME_DELAY: Yield until WaitTime reaches zero
  4: 0x031B [0x1E] EventEntity looks at Authere (ID: 17719357/0x010E603D) and starts talking
  5: 0x0320 [0x6F] WAIT_FRAME_DELAY: Yield until WaitTime reaches zero
  6: 0x0321 [0x76] CHECK_ENTITY_RENDER_FLAGS: Wait until EventEntity Render.Flags0 and Render.Flags3 conditions are met
  7: 0x0326 [0x4A] Authere (ID: 17719357/0x010E603D) looks at EventEntity
  8: 0x032F [0x5B] LOAD_EXT_SCHEDULER: Load scheduler "tlk0" with entities [EventEntity, EventEntity], work=75*
  9: 0x033E [0x1C] WAIT(30* ticks)
 10: 0x0341 [0x5B] LOAD_EXT_SCHEDULER: Load scheduler "thk0" with entities [Authere (ID: 17719357/0x010E603D), Authere (ID: 17719357/0x010E603D)], work=75*
 11: 0x0350 [0x00] END_REQSTACK()
```

### Event 65535.3

#### Metadata

| Field        | Value    |
|--------------|----------|
| Entrypoint   | 0x0351   |
| Data Size    | 45 bytes |
| Instructions | 9        |

```
      00 01 02 03 04 05 06 07  08 09 0A 0B 0C 0D 0E 0F
      -- -- -- -- -- -- -- --  -- -- -- -- -- -- -- --
0350:    32 1C 80 1F 00 1D 80  1E 80 18 80 1F 01 6F 4A   2............oJ
0360: 72 60 0E 01 F8 FF FF 7F  6F 76 72 60 0E 01 66 1F  r`......ovr`..f.
0370: 80 72 60 0E 01 72 60 0E  01 74 77 61 30 00        .r`..r`..twa0.  
```

#### Opcodes

```
  0: 0x0351 [0x32] ExtData[1]->MainSpeed = 39* * 0.1
  1: 0x0354 [0x1F] MOVE_ENTITY: EventEntity moves to X=19.301*, Z=-28.036*, Y=1.999*
  2: 0x035C [0x1F] MOVE_ENTITY: Update entity position (mode=1)
  3: 0x035E [0x6F] WAIT_FRAME_DELAY: Yield until WaitTime reaches zero
  4: 0x035F [0x4A] Vaquelage (ID: 17719410/0x010E6072) looks at EventEntity
  5: 0x0368 [0x6F] WAIT_FRAME_DELAY: Yield until WaitTime reaches zero
  6: 0x0369 [0x76] CHECK_ENTITY_RENDER_FLAGS: Wait until Vaquelage (ID: 17719410/0x010E6072) Render.Flags0 and Render.Flags3 conditions are met
  7: 0x036E [0x66] LOAD_EXT_SCHEDULER_MAIN: Load scheduler "twa0" with entities [Vaquelage (ID: 17719410/0x010E6072), Vaquelage (ID: 17719410/0x010E6072)], work=29*
  8: 0x037D [0x00] END_REQSTACK()
```

### Event 65535.4

#### Metadata

| Field        | Value    |
|--------------|----------|
| Entrypoint   | 0x037E   |
| Data Size    | 89 bytes |
| Instructions | 16       |

```
      00 01 02 03 04 05 06 07  08 09 0A 0B 0C 0D 0E 0F
      -- -- -- -- -- -- -- --  -- -- -- -- -- -- -- --
0370:                                            32 20                2 
0380: 80 1F 00 21 80 22 80 18  80 1F 01 6F 79 00 F8 FF  ...!.".....oy...
0390: FF 7F 7E 60 0E 01 4A 7E  60 0E 01 F8 FF FF 7F 6F  ..~`..J~`......o
03A0: 76 7E 60 0E 01 5B 1C 80  7E 60 0E 01 7E 60 0E 01  v~`..[..~`..~`..
03B0: 74 6C 6B 30 1C 0F 80 5B  1C 80 7E 60 0E 01 7E 60  tlk0...[..~`..~`
03C0: 0E 01 74 6C 6B 31 7B F8  FF FF 7F 1F 00 23 80 24  ..tlk1{......#.$
03D0: 80 18 80 1F 01 6F 00                              .....o.         
```

#### Opcodes

```
  0: 0x037E [0x32] ExtData[1]->MainSpeed = 13* * 0.1
  1: 0x0381 [0x1F] MOVE_ENTITY: EventEntity moves to X=-7.941*, Z=-0.808*, Y=1.999*
  2: 0x0389 [0x1F] MOVE_ENTITY: Update entity position (mode=1)
  3: 0x038B [0x6F] WAIT_FRAME_DELAY: Yield until WaitTime reaches zero
  4: 0x038C [0x79] EventEntity looks at Ailevia (ID: 17719422/0x010E607E) (Basic look)
  5: 0x0396 [0x4A] Ailevia (ID: 17719422/0x010E607E) looks at EventEntity
  6: 0x039F [0x6F] WAIT_FRAME_DELAY: Yield until WaitTime reaches zero
  7: 0x03A0 [0x76] CHECK_ENTITY_RENDER_FLAGS: Wait until Ailevia (ID: 17719422/0x010E607E) Render.Flags0 and Render.Flags3 conditions are met
  8: 0x03A5 [0x5B] LOAD_EXT_SCHEDULER: Load scheduler "tlk0" with entities [Ailevia (ID: 17719422/0x010E607E), Ailevia (ID: 17719422/0x010E607E)], work=39*
  9: 0x03B4 [0x1C] WAIT(120* ticks)
 10: 0x03B7 [0x5B] LOAD_EXT_SCHEDULER: Load scheduler "tlk1" with entities [Ailevia (ID: 17719422/0x010E607E), Ailevia (ID: 17719422/0x010E607E)], work=39*
 11: 0x03C6 [0x7B] EventEntity stops talking
 12: 0x03CB [0x1F] MOVE_ENTITY: EventEntity moves to X=-16.652*, Z=-10.275*, Y=1.999*
 13: 0x03D3 [0x1F] MOVE_ENTITY: Update entity position (mode=1)
 14: 0x03D5 [0x6F] WAIT_FRAME_DELAY: Yield until WaitTime reaches zero
 15: 0x03D6 [0x00] END_REQSTACK()
```

### Event 65535.5

#### Metadata

| Field        | Value    |
|--------------|----------|
| Entrypoint   | 0x03D7   |
| Data Size    | 15 bytes |
| Instructions | 5        |

```
      00 01 02 03 04 05 06 07  08 09 0A 0B 0C 0D 0E 0F
      -- -- -- -- -- -- -- --  -- -- -- -- -- -- -- --
03D0:                      32  15 80 1F 00 25 80 26 80         2....%.&.
03E0: 18 80 1F 01 6F 00                                 ....o.          
```

#### Opcodes

```
  0: 0x03D7 [0x32] ExtData[1]->MainSpeed = 11* * 0.1
  1: 0x03DA [0x1F] MOVE_ENTITY: EventEntity moves to X=-8.801*, Z=-23.474*, Y=1.999*
  2: 0x03E2 [0x1F] MOVE_ENTITY: Update entity position (mode=1)
  3: 0x03E4 [0x6F] WAIT_FRAME_DELAY: Yield until WaitTime reaches zero
  4: 0x03E5 [0x00] END_REQSTACK()
```

### Event 65535.6

#### Metadata

| Field        | Value    |
|--------------|----------|
| Entrypoint   | 0x03E6   |
| Data Size    | 10 bytes |
| Instructions | 2        |

```
      00 01 02 03 04 05 06 07  08 09 0A 0B 0C 0D 0E 0F
      -- -- -- -- -- -- -- --  -- -- -- -- -- -- -- --
03E0:                   6C F8  FF FF 7F 27 80 14 80 00        l....'....
```

#### Opcodes

```
  0: 0x03E6 [0x6C] FADE_ENTITY_COLOR(entity_id=EventEntity, end_alpha=127*, fade_time=1*)
  1: 0x03EF [0x00] END_REQSTACK()
```

### Event 65535.7

#### Metadata

| Field        | Value    |
|--------------|----------|
| Entrypoint   | 0x03F0   |
| Data Size    | 15 bytes |
| Instructions | 5        |

```
      00 01 02 03 04 05 06 07  08 09 0A 0B 0C 0D 0E 0F
      -- -- -- -- -- -- -- --  -- -- -- -- -- -- -- --
03F0: 32 28 80 1F 00 29 80 2A  80 18 80 1F 01 6F 00     2(...).*.....o. 
```

#### Opcodes

```
  0: 0x03F0 [0x32] ExtData[1]->MainSpeed = 40* * 0.1
  1: 0x03F3 [0x1F] MOVE_ENTITY: EventEntity moves to X=12.690*, Z=-12.419*, Y=1.999*
  2: 0x03FB [0x1F] MOVE_ENTITY: Update entity position (mode=1)
  3: 0x03FD [0x6F] WAIT_FRAME_DELAY: Yield until WaitTime reaches zero
  4: 0x03FE [0x00] END_REQSTACK()
```

### Event 65535.8

#### Metadata

| Field        | Value    |
|--------------|----------|
| Entrypoint   | 0x03FF   |
| Data Size    | 18 bytes |
| Instructions | 6        |

```
      00 01 02 03 04 05 06 07  08 09 0A 0B 0C 0D 0E 0F
      -- -- -- -- -- -- -- --  -- -- -- -- -- -- -- --
03F0:                                               1C                 .
0400: 02 80 32 2B 80 1F 00 2C  80 2D 80 18 80 1F 01 6F  ..2+...,.-.....o
0410: 00                                                .               
```

#### Opcodes

```
  0: 0x03FF [0x1C] WAIT(30* ticks)
  1: 0x0402 [0x32] ExtData[1]->MainSpeed = 37* * 0.1
  2: 0x0405 [0x1F] MOVE_ENTITY: EventEntity moves to X=11.780*, Z=-13.345*, Y=1.999*
  3: 0x040D [0x1F] MOVE_ENTITY: Update entity position (mode=1)
  4: 0x040F [0x6F] WAIT_FRAME_DELAY: Yield until WaitTime reaches zero
  5: 0x0410 [0x00] END_REQSTACK()
```

### Event 3506

#### Metadata

| Field        | Value   |
|--------------|---------|
| Entrypoint   | 0x0411  |
| Data Size    | 1 bytes |
| Instructions | 1       |

```
      00 01 02 03 04 05 06 07  08 09 0A 0B 0C 0D 0E 0F
      -- -- -- -- -- -- -- --  -- -- -- -- -- -- -- --
0410:    00                                              .              
```

#### Opcodes

```
  0: 0x0411 [0x00] END_REQSTACK()
```

### Event 3507

#### Metadata

| Field        | Value   |
|--------------|---------|
| Entrypoint   | 0x0412  |
| Data Size    | 1 bytes |
| Instructions | 1       |

```
      00 01 02 03 04 05 06 07  08 09 0A 0B 0C 0D 0E 0F
      -- -- -- -- -- -- -- --  -- -- -- -- -- -- -- --
0410:       00                                            .             
```

#### Opcodes

```
  0: 0x0412 [0x00] END_REQSTACK()
```

### Event 65535.9

#### Metadata

| Field        | Value    |
|--------------|----------|
| Entrypoint   | 0x0413   |
| Data Size    | 11 bytes |
| Instructions | 3        |

```
      00 01 02 03 04 05 06 07  08 09 0A 0B 0C 0D 0E 0F
      -- -- -- -- -- -- -- --  -- -- -- -- -- -- -- --
0410:          1F 00 04 17 05  17 06 17 1F 01 00           ...........  
```

#### Opcodes

```
  0: 0x0413 [0x1F] MOVE_ENTITY: EventEntity moves to X=Work_Zone_1700[4], Z=Work_Zone_1700[5], Y=Work_Zone_1700[6]
  1: 0x041B [0x1F] MOVE_ENTITY: Update entity position (mode=1)
  2: 0x041D [0x00] END_REQSTACK()
```

### Event 65535.10

#### Metadata

| Field        | Value   |
|--------------|---------|
| Entrypoint   | 0x041E  |
| Data Size    | 4 bytes |
| Instructions | 2       |

```
      00 01 02 03 04 05 06 07  08 09 0A 0B 0C 0D 0E 0F
      -- -- -- -- -- -- -- --  -- -- -- -- -- -- -- --
0410:                                            39 07                9.
0420: 17 00                                             ..              
```

#### Opcodes

```
  0: 0x041E [0x39] SET_ENTITY_DIRECTION(direction=Work_Zone_1700[7])
  1: 0x0421 [0x00] END_REQSTACK()
```
