# 17719534 - Nokkhi Jinjahl

## Common Data

| Field            | Value                         |
|------------------|-------------------------------|
| Zone             | Southern San d'Oria (ID: 230) |
| Block Size       | 496 bytes                     |
| Total Events     | 2                             |
| References Count | 52                            |

## List of Events

| Event ID              | Entrypoint   |   Size |   Instructions |
|-----------------------|--------------|--------|----------------|
| [65535](#event-65535) | 0x0000       |      1 |              1 |
| [683](#event-683)     | 0x0001       |    263 |             72 |

## DAT References (imed_data)

|   Index | Hex Value   |   Dec Value |
|---------|-------------|-------------|
|       0 | 0x1CE7      |        7399 |
|       1 | 0x1CE8      |        7400 |
|       2 | 0x1CE9      |        7401 |
|       3 | 0x43A8      |       17320 |
|       4 | 0x43A9      |       17321 |
|       5 | 0x46EA      |       18154 |
|       6 | 0x46EC      |       18156 |
|       7 | 0x43B9      |       17337 |
|       8 | 0x43BA      |       17338 |
|       9 | 0x1CEA      |        7402 |
|      10 | 0x46EB      |       18155 |
|      11 | 0x46EF      |       18159 |
|      12 | 0x46EE      |       18158 |
|      13 | 0x43AD      |       17325 |
|      14 | 0x46E6      |       18150 |
|      15 | 0x46E4      |       18148 |
|      16 | 0x1CEB      |        7403 |
|      17 | 0x46E9      |       18153 |
|      18 | 0x46E5      |       18149 |
|      19 | 0x46E8      |       18152 |
|      20 | 0x46E7      |       18151 |
|      21 | 0x43BD      |       17341 |
|      22 | 0x46F0      |       18160 |
|      23 | 0x43A0      |       17312 |
|      24 | 0x1CEC      |        7404 |
|      25 | 0x43BF      |       17343 |
|      26 | 0x43BC      |       17340 |
|      27 | 0x4923      |       18723 |
|      28 | 0x1CED      |        7405 |
|      29 | 0x4AFB      |       19195 |
|      30 | 0x4AFC      |       19196 |
|      31 | 0x4AFD      |       19197 |
|      32 | 0x4AFE      |       19198 |
|      33 | 0x4AFF      |       19199 |
|      34 | 0x1CEE      |        7406 |
|      35 | 0x4AEE      |       19182 |
|      36 | 0x4AEF      |       19183 |
|      37 | 0x4AF0      |       19184 |
|      38 | 0x1CEF      |        7407 |
|      39 | 0x4D58      |       19800 |
|      40 | 0x4D59      |       19801 |
|      41 | 0x4D5A      |       19802 |
|      42 | 0x4D5B      |       19803 |
|      43 | 0x1CF0      |        7408 |
|      44 | 0x1CF1      |        7409 |
|      45 | 0x1CF2      |        7410 |
|      46 | 0x1CF3      |        7411 |
|      47 | 0x03B4      |         948 |
|      48 | 0x1CF4      |        7412 |
|      49 | 0x1CF5      |        7413 |
|      50 | 0x1CF6      |        7414 |
|      51 | 0x001E      |          30 |

## String References

- **7399**: The Troupe Valeriano, at your service! Well, I'm more of a behind-the-scenes kinda gal, not an entertainer.
- **7400**: People call me "Nokky the Tree-shaker"! While the other guys are doing their thing, I work on the sidelines as a quiver-maker. Basically, I can make it easier for you to lug around those bundles of ninety-nine arrows or bolts or whatever.
- **7401**: I've been doing this for a while now, so I've learned to bundle all sorts of stuff...
- **7402**: %, $1, $2, $3, $4, and $5 I've always been able to do...
- **7403**: But now I can also bundle $0, $1, $2, $3, $4, and $5.
- **7404**: Not to mention $0, $1, $2, $3, $4, $5, and $6.
- **7405**: %, $2, and plain old $1!
- **7406**: And of course, $0, $1, $2, $3, and $4!
- **7407**: Then there's everyone's favorite $0, $1, and $2.
- **7408**: Finally, new to my bundling repertoire, we have $0, $1, $2, and $3!
- **7409**: I can even bundle those elemental cards that corsairs use!
- **7410**: Aren't you imprrressed? Keeping up with all these new types of ammunition is hard work!
- **7411**: Oh, and for the rrrecord, anything else is too much trrrouble to deal with. Not my thing.
- **7412**: This ain't no charity, though. I'm not really interested in gil, but... Let's see here... Flowers...? Yeah, you bring me $0 for every ninety-nine arrows, bolts, or whatever you want organized, and we got a deal.
- **7413**: I can make a quiver or pouch for up to seven sets of the same kind of ammunition. So you could bring me, say, one hundred ninety-eight $1 and two of those $0, for example. I like to do things real efficient-like, you see, so make sure they're in multiples of ninety-nine.
- **7414**: % smiles slyly at you.

## Events

### Event 65535

#### Metadata

| Field        | Value   |
|--------------|---------|
| Entrypoint   | 0x0000  |
| Data Size    | 1 bytes |
| Instructions | 1       |

```
      00 01 02 03 04 05 06 07  08 09 0A 0B 0C 0D 0E 0F
      -- -- -- -- -- -- -- --  -- -- -- -- -- -- -- --
0000: 00                                                .               
```

#### Opcodes

```
  0: 0x0000 [0x00] END_REQSTACK()
```

### Event 683

#### Metadata

| Field        | Value     |
|--------------|-----------|
| Entrypoint   | 0x0001    |
| Data Size    | 263 bytes |
| Instructions | 72        |

```
      00 01 02 03 04 05 06 07  08 09 0A 0B 0C 0D 0E 0F
      -- -- -- -- -- -- -- --  -- -- -- -- -- -- -- --
0000:    79 00 F8 FF FF 7F F0  FF FF 7F 1D 00 80 23 1D   y............#.
0010: 01 80 23 1D 02 80 23 03  02 10 03 80 03 03 10 04  ..#...#.........
0020: 80 03 04 10 05 80 03 05  10 06 80 03 06 10 07 80  ................
0030: 03 07 10 08 80 1D 09 80  23 03 02 10 0A 80 03 03  ........#.......
0040: 10 0B 80 03 04 10 0C 80  03 05 10 0D 80 03 06 10  ................
0050: 0E 80 03 07 10 0F 80 1D  10 80 23 03 02 10 11 80  ..........#.....
0060: 03 03 10 12 80 03 04 10  13 80 03 05 10 14 80 03  ................
0070: 06 10 15 80 03 07 10 16  80 03 08 10 17 80 1D 18  ................
0080: 80 23 03 02 10 19 80 03  03 10 1A 80 03 04 10 1B  .#..............
0090: 80 1D 1C 80 23 03 02 10  1D 80 03 03 10 1E 80 03  ....#...........
00A0: 04 10 1F 80 03 05 10 20  80 03 06 10 21 80 1D 22  ....... ....!.."
00B0: 80 23 03 02 10 23 80 03  03 10 24 80 03 04 10 25  .#...#....$....%
00C0: 80 1D 26 80 23 03 02 10  27 80 03 03 10 28 80 03  ..&.#...'....(..
00D0: 04 10 29 80 03 05 10 2A  80 1D 2B 80 23 1D 2C 80  ..)....*..+.#.,.
00E0: 23 1D 2D 80 23 1D 2E 80  23 03 02 10 2F 80 03 03  #.-.#...#.../...
00F0: 10 04 80 1D 30 80 23 1D  31 80 23 48 32 80 1C 33  ....0.#.1.#H2..3
0100: 80 7B F8 FF FF 7F 21 00                           .{....!.        
```

#### Opcodes

```
  0: 0x0001 [0x79] EventEntity looks at LocalPlayer (Basic look)
  1: 0x000B [0x1D] PRINT_EVENT_MESSAGE(message_id=7399*)
    → "The Troupe Valeriano, at your service! Well, I'm more of a behind-the-scenes kinda gal, not an entertainer."
  2: 0x000E [0x23] WAIT_FOR_DIALOG_INTERACTION
  3: 0x000F [0x1D] PRINT_EVENT_MESSAGE(message_id=7400*)
    → "People call me "Nokky the Tree-shaker"! While the other guys are doing their thing, I work on the sidelines as a quiver-maker. Basically, I can make it easier for you to lug around those bundles of ninety-nine arrows or bolts or whatever."
  4: 0x0012 [0x23] WAIT_FOR_DIALOG_INTERACTION
  5: 0x0013 [0x1D] PRINT_EVENT_MESSAGE(message_id=7401*)
    → "I've been doing this for a while now, so I've learned to bundle all sorts of stuff..."
  6: 0x0016 [0x23] WAIT_FOR_DIALOG_INTERACTION
  7: 0x0017 [0x03] Work_Zone[2] = 17320*
  8: 0x001C [0x03] Work_Zone[3] = 17321*
  9: 0x0021 [0x03] Work_Zone[4] = 18154*
 10: 0x0026 [0x03] Work_Zone[5] = 18156*
 11: 0x002B [0x03] Work_Zone[6] = 17337*
 12: 0x0030 [0x03] Work_Zone[7] = 17338*
 13: 0x0035 [0x1D] PRINT_EVENT_MESSAGE(message_id=7402*)
    → "%, $1, $2, $3, $4, and $5 I've always been able to do..."
 14: 0x0038 [0x23] WAIT_FOR_DIALOG_INTERACTION
 15: 0x0039 [0x03] Work_Zone[2] = 18155*
 16: 0x003E [0x03] Work_Zone[3] = 18159*
 17: 0x0043 [0x03] Work_Zone[4] = 18158*
 18: 0x0048 [0x03] Work_Zone[5] = 17325*
 19: 0x004D [0x03] Work_Zone[6] = 18150*
 20: 0x0052 [0x03] Work_Zone[7] = 18148*
 21: 0x0057 [0x1D] PRINT_EVENT_MESSAGE(message_id=7403*)
    → "But now I can also bundle $0, $1, $2, $3, $4, and $5."
 22: 0x005A [0x23] WAIT_FOR_DIALOG_INTERACTION
 23: 0x005B [0x03] Work_Zone[2] = 18153*
 24: 0x0060 [0x03] Work_Zone[3] = 18149*
 25: 0x0065 [0x03] Work_Zone[4] = 18152*
 26: 0x006A [0x03] Work_Zone[5] = 18151*
 27: 0x006F [0x03] Work_Zone[6] = 17341*
 28: 0x0074 [0x03] Work_Zone[7] = 18160*
 29: 0x0079 [0x03] Work_Zone[8] = 17312*
 30: 0x007E [0x1D] PRINT_EVENT_MESSAGE(message_id=7404*)
    → "Not to mention $0, $1, $2, $3, $4, $5, and $6."
 31: 0x0081 [0x23] WAIT_FOR_DIALOG_INTERACTION
 32: 0x0082 [0x03] Work_Zone[2] = 17343*
 33: 0x0087 [0x03] Work_Zone[3] = 17340*
 34: 0x008C [0x03] Work_Zone[4] = 18723*
 35: 0x0091 [0x1D] PRINT_EVENT_MESSAGE(message_id=7405*)
    → "%, $2, and plain old $1!"
 36: 0x0094 [0x23] WAIT_FOR_DIALOG_INTERACTION
 37: 0x0095 [0x03] Work_Zone[2] = 19195*
 38: 0x009A [0x03] Work_Zone[3] = 19196*
 39: 0x009F [0x03] Work_Zone[4] = 19197*
 40: 0x00A4 [0x03] Work_Zone[5] = 19198*
 41: 0x00A9 [0x03] Work_Zone[6] = 19199*
 42: 0x00AE [0x1D] PRINT_EVENT_MESSAGE(message_id=7406*)
    → "And of course, $0, $1, $2, $3, and $4!"
 43: 0x00B1 [0x23] WAIT_FOR_DIALOG_INTERACTION
 44: 0x00B2 [0x03] Work_Zone[2] = 19182*
 45: 0x00B7 [0x03] Work_Zone[3] = 19183*
 46: 0x00BC [0x03] Work_Zone[4] = 19184*
 47: 0x00C1 [0x1D] PRINT_EVENT_MESSAGE(message_id=7407*)
    → "Then there's everyone's favorite $0, $1, and $2."
 48: 0x00C4 [0x23] WAIT_FOR_DIALOG_INTERACTION
 49: 0x00C5 [0x03] Work_Zone[2] = 19800*
 50: 0x00CA [0x03] Work_Zone[3] = 19801*
 51: 0x00CF [0x03] Work_Zone[4] = 19802*
 52: 0x00D4 [0x03] Work_Zone[5] = 19803*
 53: 0x00D9 [0x1D] PRINT_EVENT_MESSAGE(message_id=7408*)
    → "Finally, new to my bundling repertoire, we have $0, $1, $2, and $3!"
 54: 0x00DC [0x23] WAIT_FOR_DIALOG_INTERACTION
 55: 0x00DD [0x1D] PRINT_EVENT_MESSAGE(message_id=7409*)
    → "I can even bundle those elemental cards that corsairs use!"
 56: 0x00E0 [0x23] WAIT_FOR_DIALOG_INTERACTION
 57: 0x00E1 [0x1D] PRINT_EVENT_MESSAGE(message_id=7410*)
    → "Aren't you imprrressed? Keeping up with all these new types of ammunition is hard work!"
 58: 0x00E4 [0x23] WAIT_FOR_DIALOG_INTERACTION
 59: 0x00E5 [0x1D] PRINT_EVENT_MESSAGE(message_id=7411*)
    → "Oh, and for the rrrecord, anything else is too much trrrouble to deal with. Not my thing."
 60: 0x00E8 [0x23] WAIT_FOR_DIALOG_INTERACTION
 61: 0x00E9 [0x03] Work_Zone[2] = 948*
 62: 0x00EE [0x03] Work_Zone[3] = 17321*
 63: 0x00F3 [0x1D] PRINT_EVENT_MESSAGE(message_id=7412*)
    → "This ain't no charity, though. I'm not really interested in gil, but... Let's see here... Flowers...? Yeah, you bring me $0 for every ninety-nine arrows, bolts, or whatever you want organized, and we got a deal."
 64: 0x00F6 [0x23] WAIT_FOR_DIALOG_INTERACTION
 65: 0x00F7 [0x1D] PRINT_EVENT_MESSAGE(message_id=7413*)
    → "I can make a quiver or pouch for up to seven sets of the same kind of ammunition. So you could bring me, say, one hundred ninety-eight $1 and two of those $0, for example. I like to do things real efficient-like, you see, so make sure they're in multiples of ninety-nine."
 66: 0x00FA [0x23] WAIT_FOR_DIALOG_INTERACTION
 67: 0x00FB [0x48] [System] [7414*]:
    → "% smiles slyly at you."
 68: 0x00FE [0x1C] WAIT(30* ticks)
 69: 0x0101 [0x7B] EventEntity stops talking
 70: 0x0106 [0x21] END_EVENT
 71: 0x0107 [0x00] END_REQSTACK()
```
