# 17719509 - Curilla

## Common Data

| Field            | Value                         |
|------------------|-------------------------------|
| Zone             | Southern San d'Oria (ID: 230) |
| Block Size       | 244 bytes                     |
| Total Events     | 9                             |
| References Count | 18                            |

## List of Events

| Event ID                 | Entrypoint   |   Size |   Instructions |
|--------------------------|--------------|--------|----------------|
| [65535](#event-65535)    | 0x0000       |      1 |              1 |
| [503](#event-503)        | 0x0001       |     13 |              3 |
| [65535.1](#event-655351) | 0x000E       |     12 |              4 |
| [65535.2](#event-655352) | 0x001A       |     17 |              5 |
| [65535.3](#event-655353) | 0x002B       |     12 |              4 |
| [65535.4](#event-655354) | 0x0037       |     12 |              4 |
| [65535.5](#event-655355) | 0x0043       |     12 |              4 |
| [65535.6](#event-655356) | 0x004F       |     19 |              3 |
| [65535.7](#event-655357) | 0x0062       |     19 |              3 |

## DAT References (imed_data)

|   Index | Hex Value   |   Dec Value |
|---------|-------------|-------------|
|       0 | 0xFFFE74C8  |  4294866120 |
|       1 | 0xFFFF709E  |  4294930590 |
|       2 | 0x03E8      |        1000 |
|       3 | 0x02FE      |         766 |
|       4 | 0x000D      |          13 |
|       5 | 0xFFFE7B57  |  4294867799 |
|       6 | 0xFFFF5F3F  |  4294926143 |
|       7 | 0xFFFE76C3  |  4294866627 |
|       8 | 0xFFFF5B7F  |  4294925183 |
|       9 | 0xFFFE7BA4  |  4294867876 |
|      10 | 0xFFFF5DBC  |  4294925756 |
|      11 | 0xFFFE7975  |  4294867317 |
|      12 | 0xFFFF5B6D  |  4294925165 |
|      13 | 0xFFFEADD7  |  4294880727 |
|      14 | 0xFFFF95DD  |  4294940125 |
|      15 | 0x07CF      |        1999 |
|      16 | 0x008C      |         140 |
|      17 | 0x003C      |          60 |

## Events

### Event 65535

#### Metadata

| Field        | Value   |
|--------------|---------|
| Entrypoint   | 0x0000  |
| Data Size    | 1 bytes |
| Instructions | 1       |

```
      00 01 02 03 04 05 06 07  08 09 0A 0B 0C 0D 0E 0F
      -- -- -- -- -- -- -- --  -- -- -- -- -- -- -- --
0000: 00                                                .               
```

#### Opcodes

```
  0: 0x0000 [0x00] END_REQSTACK()
```

### Event 503

#### Metadata

| Field        | Value    |
|--------------|----------|
| Entrypoint   | 0x0001   |
| Data Size    | 13 bytes |
| Instructions | 3        |

```
      00 01 02 03 04 05 06 07  08 09 0A 0B 0C 0D 0E 0F
      -- -- -- -- -- -- -- --  -- -- -- -- -- -- -- --
0000:    37 00 80 01 80 02 80  03 80 32 04 80 00         7........2...  
```

#### Opcodes

```
  0: 0x0001 [0x37] UPDATE_EVENT_POSITION_AND_DIR: x=-101.176*, z=-36.706*, y=1.000*, direction=67.3°*
  1: 0x000A [0x32] ExtData[1]->MainSpeed = 13* * 0.1
  2: 0x000D [0x00] END_REQSTACK()
```

### Event 65535.1

#### Metadata

| Field        | Value    |
|--------------|----------|
| Entrypoint   | 0x000E   |
| Data Size    | 12 bytes |
| Instructions | 4        |

```
      00 01 02 03 04 05 06 07  08 09 0A 0B 0C 0D 0E 0F
      -- -- -- -- -- -- -- --  -- -- -- -- -- -- -- --
0000:                                            1F 00                ..
0010: 05 80 06 80 02 80 1F 01  6F 00                    ........o.      
```

#### Opcodes

```
  0: 0x000E [0x1F] MOVE_ENTITY: EventEntity moves to X=-99.497*, Z=-41.153*, Y=1.000*
  1: 0x0016 [0x1F] MOVE_ENTITY: Update entity position (mode=1)
  2: 0x0018 [0x6F] WAIT_FRAME_DELAY: Yield until WaitTime reaches zero
  3: 0x0019 [0x00] END_REQSTACK()
```

### Event 65535.2

#### Metadata

| Field        | Value    |
|--------------|----------|
| Entrypoint   | 0x001A   |
| Data Size    | 17 bytes |
| Instructions | 5        |

```
      00 01 02 03 04 05 06 07  08 09 0A 0B 0C 0D 0E 0F
      -- -- -- -- -- -- -- --  -- -- -- -- -- -- -- --
0010:                                1F 00 07 80 08 80            ......
0020: 02 80 1F 01 6F 1E D7 60  0E 01 00                 ....o..`...     
```

#### Opcodes

```
  0: 0x001A [0x1F] MOVE_ENTITY: EventEntity moves to X=-100.669*, Z=-42.113*, Y=1.000*
  1: 0x0022 [0x1F] MOVE_ENTITY: Update entity position (mode=1)
  2: 0x0024 [0x6F] WAIT_FRAME_DELAY: Yield until WaitTime reaches zero
  3: 0x0025 [0x1E] EventEntity looks at Antreneau (ID: 17719511/0x010E60D7) and starts talking
  4: 0x002A [0x00] END_REQSTACK()
```

### Event 65535.3

#### Metadata

| Field        | Value    |
|--------------|----------|
| Entrypoint   | 0x002B   |
| Data Size    | 12 bytes |
| Instructions | 4        |

```
      00 01 02 03 04 05 06 07  08 09 0A 0B 0C 0D 0E 0F
      -- -- -- -- -- -- -- --  -- -- -- -- -- -- -- --
0020:                                   1F 00 09 80 0A             .....
0030: 80 02 80 1F 01 6F 00                              .....o.         
```

#### Opcodes

```
  0: 0x002B [0x1F] MOVE_ENTITY: EventEntity moves to X=-99.420*, Z=-41.540*, Y=1.000*
  1: 0x0033 [0x1F] MOVE_ENTITY: Update entity position (mode=1)
  2: 0x0035 [0x6F] WAIT_FRAME_DELAY: Yield until WaitTime reaches zero
  3: 0x0036 [0x00] END_REQSTACK()
```

### Event 65535.4

#### Metadata

| Field        | Value    |
|--------------|----------|
| Entrypoint   | 0x0037   |
| Data Size    | 12 bytes |
| Instructions | 4        |

```
      00 01 02 03 04 05 06 07  08 09 0A 0B 0C 0D 0E 0F
      -- -- -- -- -- -- -- --  -- -- -- -- -- -- -- --
0030:                      1F  00 0B 80 0C 80 02 80 1F         .........
0040: 01 6F 00                                          .o.             
```

#### Opcodes

```
  0: 0x0037 [0x1F] MOVE_ENTITY: EventEntity moves to X=-99.979*, Z=-42.131*, Y=1.000*
  1: 0x003F [0x1F] MOVE_ENTITY: Update entity position (mode=1)
  2: 0x0041 [0x6F] WAIT_FRAME_DELAY: Yield until WaitTime reaches zero
  3: 0x0042 [0x00] END_REQSTACK()
```

### Event 65535.5

#### Metadata

| Field        | Value    |
|--------------|----------|
| Entrypoint   | 0x0043   |
| Data Size    | 12 bytes |
| Instructions | 4        |

```
      00 01 02 03 04 05 06 07  08 09 0A 0B 0C 0D 0E 0F
      -- -- -- -- -- -- -- --  -- -- -- -- -- -- -- --
0040:          1F 00 0D 80 0E  80 0F 80 1F 01 6F 00        ..........o. 
```

#### Opcodes

```
  0: 0x0043 [0x1F] MOVE_ENTITY: EventEntity moves to X=-86.569*, Z=-27.171*, Y=1.999*
  1: 0x004B [0x1F] MOVE_ENTITY: Update entity position (mode=1)
  2: 0x004D [0x6F] WAIT_FRAME_DELAY: Yield until WaitTime reaches zero
  3: 0x004E [0x00] END_REQSTACK()
```

### Event 65535.6

#### Metadata

| Field        | Value    |
|--------------|----------|
| Entrypoint   | 0x004F   |
| Data Size    | 19 bytes |
| Instructions | 3        |

```
      00 01 02 03 04 05 06 07  08 09 0A 0B 0C 0D 0E 0F
      -- -- -- -- -- -- -- --  -- -- -- -- -- -- -- --
0040:                                               5B                 [
0050: 10 80 F8 FF FF 7F F8 FF  FF 7F 74 6C 6B 30 1C 11  ..........tlk0..
0060: 80 00                                             ..              
```

#### Opcodes

```
  0: 0x004F [0x5B] LOAD_EXT_SCHEDULER: Load scheduler "tlk0" with entities [EventEntity, EventEntity], work=140*
  1: 0x005E [0x1C] WAIT(60* ticks)
  2: 0x0061 [0x00] END_REQSTACK()
```

### Event 65535.7

#### Metadata

| Field        | Value    |
|--------------|----------|
| Entrypoint   | 0x0062   |
| Data Size    | 19 bytes |
| Instructions | 3        |

```
      00 01 02 03 04 05 06 07  08 09 0A 0B 0C 0D 0E 0F
      -- -- -- -- -- -- -- --  -- -- -- -- -- -- -- --
0060:       5B 10 80 F8 FF FF  7F F8 FF FF 7F 74 6C 6B    [..........tlk
0070: 31 1C 11 80 00                                    1....           
```

#### Opcodes

```
  0: 0x0062 [0x5B] LOAD_EXT_SCHEDULER: Load scheduler "tlk1" with entities [EventEntity, EventEntity], work=140*
  1: 0x0071 [0x1C] WAIT(60* ticks)
  2: 0x0074 [0x00] END_REQSTACK()
```
