# 17719772

## Common Data

| Field            | Value                         |
|------------------|-------------------------------|
| Zone             | Southern San d'Oria (ID: 230) |
| Block Size       | 112 bytes                     |
| Total Events     | 5                             |
| References Count | 1                             |

## List of Events

| Event ID                 | Entrypoint   |   Size |   Instructions |
|--------------------------|--------------|--------|----------------|
| [65535](#event-65535)    | 0x0000       |      1 |              1 |
| [3632](#event-3632)      | 0x0001       |      1 |              1 |
| [3633](#event-3633)      | 0x0002       |      1 |              1 |
| [65535.1](#event-655351) | 0x0003       |     33 |              4 |
| [65535.2](#event-655352) | 0x0024       |     33 |              4 |

## DAT References (imed_data)

|   Index | Hex Value   |   Dec Value |
|---------|-------------|-------------|
|       0 | 0x0002      |           2 |

## Events

### Event 65535

#### Metadata

| Field        | Value   |
|--------------|---------|
| Entrypoint   | 0x0000  |
| Data Size    | 1 bytes |
| Instructions | 1       |

```
      00 01 02 03 04 05 06 07  08 09 0A 0B 0C 0D 0E 0F
      -- -- -- -- -- -- -- --  -- -- -- -- -- -- -- --
0000: 00                                                .               
```

#### Opcodes

```
  0: 0x0000 [0x00] END_REQSTACK()
```

### Event 3632

#### Metadata

| Field        | Value   |
|--------------|---------|
| Entrypoint   | 0x0001  |
| Data Size    | 1 bytes |
| Instructions | 1       |

```
      00 01 02 03 04 05 06 07  08 09 0A 0B 0C 0D 0E 0F
      -- -- -- -- -- -- -- --  -- -- -- -- -- -- -- --
0000:    00                                              .              
```

#### Opcodes

```
  0: 0x0001 [0x00] END_REQSTACK()
```

### Event 3633

#### Metadata

| Field        | Value   |
|--------------|---------|
| Entrypoint   | 0x0002  |
| Data Size    | 1 bytes |
| Instructions | 1       |

```
      00 01 02 03 04 05 06 07  08 09 0A 0B 0C 0D 0E 0F
      -- -- -- -- -- -- -- --  -- -- -- -- -- -- -- --
0000:       00                                            .             
```

#### Opcodes

```
  0: 0x0002 [0x00] END_REQSTACK()
```

### Event 65535.1

#### Metadata

| Field        | Value    |
|--------------|----------|
| Entrypoint   | 0x0003   |
| Data Size    | 33 bytes |
| Instructions | 4        |

```
      00 01 02 03 04 05 06 07  08 09 0A 0B 0C 0D 0E 0F
      -- -- -- -- -- -- -- --  -- -- -- -- -- -- -- --
0000:          B4 00 00 00 31  30 00 00 00 00 00 00 00     ....10.......
0010: 00 00 00 00 00 00 00 B5  00 00 00 AE 01 F8 FF FF  ................
0020: 7F 00 80 00                                       ....            
```

#### Opcodes

```
  0: 0x0003 [0xB4] UI_WINDOW_STRING_HANDLER(case=0x00 - Copy string from opcode, work_offset=ExtData[1]->WorkLocal[0], string="10")
  1: 0x0017 [0xB5] SET_EVENT_ENTITY_NAME: Change EventEntity name to ExtData[1]->WorkLocal[0]
  2: 0x001B [0xAE] MULTI_PURPOSE_ENTITY_HANDLER(case_type=0x01 - Name color, entity=EventEntity, color=2*)
  3: 0x0023 [0x00] END_REQSTACK()
```

### Event 65535.2

#### Metadata

| Field        | Value    |
|--------------|----------|
| Entrypoint   | 0x0024   |
| Data Size    | 33 bytes |
| Instructions | 4        |

```
      00 01 02 03 04 05 06 07  08 09 0A 0B 0C 0D 0E 0F
      -- -- -- -- -- -- -- --  -- -- -- -- -- -- -- --
0020:             B4 00 00 00  00 00 00 00 00 00 00 00      ............
0030: 00 00 00 00 00 00 00 00  B5 00 00 00 AE 02 F8 FF  ................
0040: FF 7F 00 00 00                                    .....           
```

#### Opcodes

```
  0: 0x0024 [0xB4] UI_WINDOW_STRING_HANDLER(case=0x00 - Copy string from opcode, work_offset=ExtData[1]->WorkLocal[0], string="")
  1: 0x0038 [0xB5] SET_EVENT_ENTITY_NAME: Change EventEntity name to ExtData[1]->WorkLocal[0]
  2: 0x003C [0xAE] MULTI_PURPOSE_ENTITY_HANDLER(case_type=0x02 - Name color, entity=EventEntity, color=ExtData[1]->WorkLocal[0])
  3: 0x0044 [0x00] END_REQSTACK()
```
