# 17719308 - Andecia

## Common Data

| Field            | Value                         |
|------------------|-------------------------------|
| Zone             | Southern San d'Oria (ID: 230) |
| Block Size       | 860 bytes                     |
| Total Events     | 8                             |
| References Count | 33                            |

## List of Events

| Event ID                 | Entrypoint   |   Size |   Instructions |
|--------------------------|--------------|--------|----------------|
| [65535](#event-65535)    | 0x0000       |      1 |              1 |
| [540](#event-540)        | 0x0001       |    189 |             47 |
| [541](#event-541)        | 0x00BE       |    145 |             29 |
| [622](#event-622)        | 0x014F       |    168 |             32 |
| [623](#event-623)        | 0x01F7       |     43 |             13 |
| [624](#event-624)        | 0x0222       |     66 |             16 |
| [558](#event-558)        | 0x0264       |     55 |             13 |
| [65535.1](#event-655351) | 0x029B       |     10 |              2 |

## DAT References (imed_data)

|   Index | Hex Value   |   Dec Value |
|---------|-------------|-------------|
|       0 | 0x001E      |          30 |
|       1 | 0x1ED9      |        7897 |
|       2 | 0x1EDA      |        7898 |
|       3 | 0x0000      |           0 |
|       4 | 0x1EDE      |        7902 |
|       5 | 0x0001      |           1 |
|       6 | 0x1EDB      |        7899 |
|       7 | 0x1EDC      |        7900 |
|       8 | 0x1EDD      |        7901 |
|       9 | 0x1EDF      |        7903 |
|      10 | 0x1EE0      |        7904 |
|      11 | 0x1EE1      |        7905 |
|      12 | 0x1EE2      |        7906 |
|      13 | 0x1EE3      |        7907 |
|      14 | 0x1FCF      |        8143 |
|      15 | 0x0237      |         567 |
|      16 | 0x0223      |         547 |
|      17 | 0x1EE5      |        7909 |
|      18 | 0x1EE4      |        7908 |
|      19 | 0x1EE7      |        7911 |
|      20 | 0x1EE8      |        7912 |
|      21 | 0x1EE9      |        7913 |
|      22 | 0x1EEA      |        7914 |
|      23 | 0x1EEB      |        7915 |
|      24 | 0x1EED      |        7917 |
|      25 | 0x1EF6      |        7926 |
|      26 | 0x1EF7      |        7927 |
|      27 | 0x00C9      |         201 |
|      28 | 0x1EF2      |        7922 |
|      29 | 0xFFFEDD4A  |  4294892874 |
|      30 | 0xFFFFEE0C  |  4294962700 |
|      31 | 0x07CF      |        1999 |
|      32 | 0x0F64      |        3940 |

## String References

- **7897**: You are an adventurer, are you not? Surely you've heard of King Ranperre's Tomb.
- **7898**: Heard of the tomb? [Yes./No.]
- **7899**: The Tomb of King Ranperre lies under a slope far south of Eastgate.
- **7900**: The tomb is the final resting place of the Dragon King of San d'Oria. It was constructed within a cave to protect it from thieves.
- **7901**: Although the tomb is safe from pillagers, the caves shelter all manner of fiendish creatures.
- **7902**: Indeed? Well, then...
- **7903**: I am entrusted with the tomb's care. Not long ago I used to wash its stones and change the offering every day.
- **7904**: But now that fiends have overrun the place, my work would require risking my life. No job is worth that!
- **7905**: I decided not to return, but the Dragon King himself came to me in my dreams and spoke, "I am thirsty... Bring me water."
- **7906**: I would like to help him, at least by bringing him fresh water...
- **7907**: I have a request. Would you go to the tomb and replace the offering there with fresh water?
- **7908**: That is...unfortunate.
- **7909**: Then you'll help? Excellent! Please take this $0 to King Ranperre's Tomb, and exchange it with $1 you'll find there.
- **7911**: You've lost the $0H
- **7912**: More $0 is readily available, but the question is how to carry it...
- **7913**: I have no other waterskin to give you. That last one I received from the late queen herself...
- **7914**: How about this: Take the waterskin from the gravestone in King Ranperre's Tomb, fill it in Southern San d'Oria, then take it back to the tomb.
- **7915**: Consider it penance for losing the waterskin I gave you. Agreed? I bid you a safe journey.
- **7917**: Take the waterskin from gravestone in King Ranperre's Tomb, fill it in Southern San d'Oria, then return it to the tomb.
- **7922**: I thank you, kind adventurer. His Majesty, the late king, thanks you, too.
- **7926**: Well, you lost the waterskin, but to travel to the late king's tomb and back is no mean feat. I commend you.
- **7927**: I had thought to take the cost of the waterskin out of your compensation, but I cannot disregard the toil you've endured on my behalf. You deserve your full reward.
- **8143**: Accept? [Of course./Not right now.]

## Events

### Event 65535

#### Metadata

| Field        | Value   |
|--------------|---------|
| Entrypoint   | 0x0000  |
| Data Size    | 1 bytes |
| Instructions | 1       |

```
      00 01 02 03 04 05 06 07  08 09 0A 0B 0C 0D 0E 0F
      -- -- -- -- -- -- -- --  -- -- -- -- -- -- -- --
0000: 00                                                .               
```

#### Opcodes

```
  0: 0x0000 [0x00] END_REQSTACK()
```

### Event 540

#### Metadata

| Field        | Value     |
|--------------|-----------|
| Entrypoint   | 0x0001    |
| Data Size    | 189 bytes |
| Instructions | 47        |

```
      00 01 02 03 04 05 06 07  08 09 0A 0B 0C 0D 0E 0F
      -- -- -- -- -- -- -- --  -- -- -- -- -- -- -- --
0000:    1E F0 FF FF 7F 6F 70  66 00 80 F8 FF FF 7F F8   .....opf.......
0010: FF FF 7F 74 6C 6B 30 1D  01 80 23 5E 69 64 6C 30  ...tlk0...#^idl0
0020: 24 02 80 03 80 03 80 25  02 00 10 03 80 00 53 00  $......%......S.
0030: 66 00 80 F8 FF FF 7F F8  FF FF 7F 74 6C 6B 30 1D  f..........tlk0.
0040: 04 80 23 5E 69 64 6C 30  1C 00 80 03 01 10 03 80  ..#^idl0........
0050: 01 8C 00 02 00 10 05 80  00 8C 00 66 00 80 F8 FF  ...........f....
0060: FF 7F F8 FF FF 7F 74 6C  6B 30 1D 06 80 23 1C 00  ......tlk0...#..
0070: 80 1D 07 80 23 1C 00 80  1D 08 80 23 5E 69 64 6C  ....#......#^idl
0080: 30 1C 00 80 03 01 10 05  80 01 8C 00 66 00 80 F8  0...........f...
0090: FF FF 7F F8 FF FF 7F 74  6C 6B 30 1D 09 80 23 1C  .......tlk0...#.
00A0: 00 80 1D 0A 80 23 1C 00  80 1D 0B 80 23 1C 00 80  .....#......#...
00B0: 1D 0C 80 23 5E 69 64 6C  30 1C 00 80 21 00        ...#^idl0...!.  
```

#### Opcodes

```
  0: 0x0001 [0x1E] EventEntity looks at LocalPlayer and starts talking
  1: 0x0006 [0x6F] WAIT_FRAME_DELAY: Yield until WaitTime reaches zero
  2: 0x0007 [0x70] WAIT_ENTITY_RENDER_FLAG: Wait while EventEntity->Render.Flags3 bit 2 is set (cancel turn if not)
  3: 0x0008 [0x66] LOAD_EXT_SCHEDULER_MAIN: Load scheduler "tlk0" with entities [EventEntity, EventEntity], work=30*
  4: 0x0017 [0x1D] PRINT_EVENT_MESSAGE(message_id=7897*)
    → "You are an adventurer, are you not? Surely you've heard of King Ranperre's Tomb."
  5: 0x001A [0x23] WAIT_FOR_DIALOG_INTERACTION
  6: 0x001B [0x5E] EventEntity goes idle (kills current action) (animation: "idl0")
  7: 0x0020 [0x24] CREATE_DIALOG(message_id=7898*, default_option=0*, option_flags=0*)
    → "Heard of the tomb? [Yes./No.]"
  8: 0x0027 [0x25] WAIT_DIALOG_SELECT()
  9: 0x0028 [0x02] IF !(Work_Zone[0] == 0*) GOTO 0x0053
 10: 0x0030 [0x66] LOAD_EXT_SCHEDULER_MAIN: Load scheduler "tlk0" with entities [EventEntity, EventEntity], work=30*
 11: 0x003F [0x1D] PRINT_EVENT_MESSAGE(message_id=7902*)
    → "Indeed? Well, then..."
 12: 0x0042 [0x23] WAIT_FOR_DIALOG_INTERACTION
 13: 0x0043 [0x5E] EventEntity goes idle (kills current action) (animation: "idl0")
 14: 0x0048 [0x1C] WAIT(30* ticks)
 15: 0x004B [0x03] Work_Zone[1] = 0*
 16: 0x0050 [0x01] GOTO 0x008C
 17: 0x0053 [0x02] IF !(Work_Zone[0] == 1*) GOTO 0x008C
 18: 0x005B [0x66] LOAD_EXT_SCHEDULER_MAIN: Load scheduler "tlk0" with entities [EventEntity, EventEntity], work=30*
 19: 0x006A [0x1D] PRINT_EVENT_MESSAGE(message_id=7899*)
    → "The Tomb of King Ranperre lies under a slope far south of Eastgate."
 20: 0x006D [0x23] WAIT_FOR_DIALOG_INTERACTION
 21: 0x006E [0x1C] WAIT(30* ticks)
 22: 0x0071 [0x1D] PRINT_EVENT_MESSAGE(message_id=7900*)
    → "The tomb is the final resting place of the Dragon King of San d'Oria. It was constructed within a cave to protect it from thieves."
 23: 0x0074 [0x23] WAIT_FOR_DIALOG_INTERACTION
 24: 0x0075 [0x1C] WAIT(30* ticks)
 25: 0x0078 [0x1D] PRINT_EVENT_MESSAGE(message_id=7901*)
    → "Although the tomb is safe from pillagers, the caves shelter all manner of fiendish creatures."
 26: 0x007B [0x23] WAIT_FOR_DIALOG_INTERACTION
 27: 0x007C [0x5E] EventEntity goes idle (kills current action) (animation: "idl0")
 28: 0x0081 [0x1C] WAIT(30* ticks)
 29: 0x0084 [0x03] Work_Zone[1] = 1*
 30: 0x0089 [0x01] GOTO 0x008C

SUBROUTINE_008C:
 31: 0x008C [0x66] LOAD_EXT_SCHEDULER_MAIN: Load scheduler "tlk0" with entities [EventEntity, EventEntity], work=30*
 32: 0x009B [0x1D] PRINT_EVENT_MESSAGE(message_id=7903*)
    → "I am entrusted with the tomb's care. Not long ago I used to wash its stones and change the offering every day."
 33: 0x009E [0x23] WAIT_FOR_DIALOG_INTERACTION
 34: 0x009F [0x1C] WAIT(30* ticks)
 35: 0x00A2 [0x1D] PRINT_EVENT_MESSAGE(message_id=7904*)
    → "But now that fiends have overrun the place, my work would require risking my life. No job is worth that!"
 36: 0x00A5 [0x23] WAIT_FOR_DIALOG_INTERACTION
 37: 0x00A6 [0x1C] WAIT(30* ticks)
 38: 0x00A9 [0x1D] PRINT_EVENT_MESSAGE(message_id=7905*)
    → "I decided not to return, but the Dragon King himself came to me in my dreams and spoke, "I am thirsty... Bring me water.""
 39: 0x00AC [0x23] WAIT_FOR_DIALOG_INTERACTION
 40: 0x00AD [0x1C] WAIT(30* ticks)
 41: 0x00B0 [0x1D] PRINT_EVENT_MESSAGE(message_id=7906*)
    → "I would like to help him, at least by bringing him fresh water..."
 42: 0x00B3 [0x23] WAIT_FOR_DIALOG_INTERACTION
 43: 0x00B4 [0x5E] EventEntity goes idle (kills current action) (animation: "idl0")
 44: 0x00B9 [0x1C] WAIT(30* ticks)
 45: 0x00BC [0x21] END_EVENT
 46: 0x00BD [0x00] END_REQSTACK()
```

### Event 541

#### Metadata

| Field        | Value     |
|--------------|-----------|
| Entrypoint   | 0x00BE    |
| Data Size    | 145 bytes |
| Instructions | 29        |

```
      00 01 02 03 04 05 06 07  08 09 0A 0B 0C 0D 0E 0F
      -- -- -- -- -- -- -- --  -- -- -- -- -- -- -- --
00B0:                                            1E F0                ..
00C0: FF FF 7F 6F 70 66 00 80  F8 FF FF 7F F8 FF FF 7F  ...opf..........
00D0: 74 6C 6B 30 1D 0D 80 23  5E 69 64 6C 30 24 0E 80  tlk0...#^idl0$..
00E0: 03 80 03 80 25 02 00 10  03 80 00 22 01 66 00 80  ....%......".f..
00F0: F8 FF FF 7F F8 FF FF 7F  70 61 73 30 03 02 10 0F  ........pas0....
0100: 80 03 03 10 10 80 1D 11  80 23 53 F8 FF FF 7F F8  .........#S.....
0110: FF FF 7F 70 61 73 30 1C  00 80 03 01 10 03 80 01  ...pas0.........
0120: 4D 01 02 00 10 05 80 00  4D 01 66 00 80 F8 FF FF  M.......M.f.....
0130: 7F F8 FF FF 7F 74 6C 6B  30 1D 12 80 23 5E 69 64  .....tlk0...#^id
0140: 6C 30 1C 00 80 03 01 10  05 80 01 4D 01 21 00     l0.........M.!. 
```

#### Opcodes

```
  0: 0x00BE [0x1E] EventEntity looks at LocalPlayer and starts talking
  1: 0x00C3 [0x6F] WAIT_FRAME_DELAY: Yield until WaitTime reaches zero
  2: 0x00C4 [0x70] WAIT_ENTITY_RENDER_FLAG: Wait while EventEntity->Render.Flags3 bit 2 is set (cancel turn if not)
  3: 0x00C5 [0x66] LOAD_EXT_SCHEDULER_MAIN: Load scheduler "tlk0" with entities [EventEntity, EventEntity], work=30*
  4: 0x00D4 [0x1D] PRINT_EVENT_MESSAGE(message_id=7907*)
    → "I have a request. Would you go to the tomb and replace the offering there with fresh water?"
  5: 0x00D7 [0x23] WAIT_FOR_DIALOG_INTERACTION
  6: 0x00D8 [0x5E] EventEntity goes idle (kills current action) (animation: "idl0")
  7: 0x00DD [0x24] CREATE_DIALOG(message_id=8143*, default_option=0*, option_flags=0*)
    → "Accept? [Of course./Not right now.]"
  8: 0x00E4 [0x25] WAIT_DIALOG_SELECT()
  9: 0x00E5 [0x02] IF !(Work_Zone[0] == 0*) GOTO 0x0122
 10: 0x00ED [0x66] LOAD_EXT_SCHEDULER_MAIN: Load scheduler "pas0" with entities [EventEntity, EventEntity], work=30*
 11: 0x00FC [0x03] Work_Zone[2] = 567*
 12: 0x0101 [0x03] Work_Zone[3] = 547*
 13: 0x0106 [0x1D] PRINT_EVENT_MESSAGE(message_id=7909*)
    → "Then you'll help? Excellent! Please take this $0 to King Ranperre's Tomb, and exchange it with $1 you'll find there."
 14: 0x0109 [0x23] WAIT_FOR_DIALOG_INTERACTION
 15: 0x010A [0x53] WAIT_SCHEDULER_TASK: Wait for scheduler "pas0" with entities [EventEntity, EventEntity]
 16: 0x0117 [0x1C] WAIT(30* ticks)
 17: 0x011A [0x03] Work_Zone[1] = 0*
 18: 0x011F [0x01] GOTO 0x014D
 19: 0x0122 [0x02] IF !(Work_Zone[0] == 1*) GOTO 0x014D
 20: 0x012A [0x66] LOAD_EXT_SCHEDULER_MAIN: Load scheduler "tlk0" with entities [EventEntity, EventEntity], work=30*
 21: 0x0139 [0x1D] PRINT_EVENT_MESSAGE(message_id=7908*)
    → "That is...unfortunate."
 22: 0x013C [0x23] WAIT_FOR_DIALOG_INTERACTION
 23: 0x013D [0x5E] EventEntity goes idle (kills current action) (animation: "idl0")
 24: 0x0142 [0x1C] WAIT(30* ticks)
 25: 0x0145 [0x03] Work_Zone[1] = 1*
 26: 0x014A [0x01] GOTO 0x014D

SUBROUTINE_014D:
 27: 0x014D [0x21] END_EVENT
 28: 0x014E [0x00] END_REQSTACK()
```

### Event 622

#### Metadata

| Field        | Value     |
|--------------|-----------|
| Entrypoint   | 0x014F    |
| Data Size    | 168 bytes |
| Instructions | 32        |

```
      00 01 02 03 04 05 06 07  08 09 0A 0B 0C 0D 0E 0F
      -- -- -- -- -- -- -- --  -- -- -- -- -- -- -- --
0140:                                               1E                 .
0150: F0 FF FF 7F 6F 70 66 00  80 F8 FF FF 7F F8 FF FF  ....opf.........
0160: 7F 64 69 73 30 03 02 10  0F 80 1D 13 80 23 53 F8  .dis0........#S.
0170: FF FF 7F F8 FF FF 7F 64  69 73 30 1C 00 80 66 00  .......dis0...f.
0180: 80 F8 FF FF 7F F8 FF FF  7F 74 6C 6B 30 03 02 10  .........tlk0...
0190: 0F 80 1D 14 80 23 5E 69  64 6C 30 1C 00 80 66 00  .....#^idl0...f.
01A0: 80 F8 FF FF 7F F8 FF FF  7F 74 68 6B 31 1D 15 80  .........thk1...
01B0: 23 1C 00 80 66 00 80 F8  FF FF 7F F8 FF FF 7F 74  #...f..........t
01C0: 68 6B 32 53 F8 FF FF 7F  F8 FF FF 7F 74 68 6B 32  hk2S........thk2
01D0: 1C 00 80 66 00 80 F8 FF  FF 7F F8 FF FF 7F 74 6C  ...f..........tl
01E0: 6B 30 1D 16 80 23 1C 00  80 1D 17 80 23 5E 69 64  k0...#......#^id
01F0: 6C 30 1C 00 80 21 00                              l0...!.         
```

#### Opcodes

```
  0: 0x014F [0x1E] EventEntity looks at LocalPlayer and starts talking
  1: 0x0154 [0x6F] WAIT_FRAME_DELAY: Yield until WaitTime reaches zero
  2: 0x0155 [0x70] WAIT_ENTITY_RENDER_FLAG: Wait while EventEntity->Render.Flags3 bit 2 is set (cancel turn if not)
  3: 0x0156 [0x66] LOAD_EXT_SCHEDULER_MAIN: Load scheduler "dis0" with entities [EventEntity, EventEntity], work=30*
  4: 0x0165 [0x03] Work_Zone[2] = 567*
  5: 0x016A [0x1D] PRINT_EVENT_MESSAGE(message_id=7911*)
    → "You've lost the $0H"
  6: 0x016D [0x23] WAIT_FOR_DIALOG_INTERACTION
  7: 0x016E [0x53] WAIT_SCHEDULER_TASK: Wait for scheduler "dis0" with entities [EventEntity, EventEntity]
  8: 0x017B [0x1C] WAIT(30* ticks)
  9: 0x017E [0x66] LOAD_EXT_SCHEDULER_MAIN: Load scheduler "tlk0" with entities [EventEntity, EventEntity], work=30*
 10: 0x018D [0x03] Work_Zone[2] = 567*
 11: 0x0192 [0x1D] PRINT_EVENT_MESSAGE(message_id=7912*)
    → "More $0 is readily available, but the question is how to carry it..."
 12: 0x0195 [0x23] WAIT_FOR_DIALOG_INTERACTION
 13: 0x0196 [0x5E] EventEntity goes idle (kills current action) (animation: "idl0")
 14: 0x019B [0x1C] WAIT(30* ticks)
 15: 0x019E [0x66] LOAD_EXT_SCHEDULER_MAIN: Load scheduler "thk1" with entities [EventEntity, EventEntity], work=30*
 16: 0x01AD [0x1D] PRINT_EVENT_MESSAGE(message_id=7913*)
    → "I have no other waterskin to give you. That last one I received from the late queen herself..."
 17: 0x01B0 [0x23] WAIT_FOR_DIALOG_INTERACTION
 18: 0x01B1 [0x1C] WAIT(30* ticks)
 19: 0x01B4 [0x66] LOAD_EXT_SCHEDULER_MAIN: Load scheduler "thk2" with entities [EventEntity, EventEntity], work=30*
 20: 0x01C3 [0x53] WAIT_SCHEDULER_TASK: Wait for scheduler "thk2" with entities [EventEntity, EventEntity]
 21: 0x01D0 [0x1C] WAIT(30* ticks)
 22: 0x01D3 [0x66] LOAD_EXT_SCHEDULER_MAIN: Load scheduler "tlk0" with entities [EventEntity, EventEntity], work=30*
 23: 0x01E2 [0x1D] PRINT_EVENT_MESSAGE(message_id=7914*)
    → "How about this: Take the waterskin from the gravestone in King Ranperre's Tomb, fill it in Southern San d'Oria, then take it back to the tomb."
 24: 0x01E5 [0x23] WAIT_FOR_DIALOG_INTERACTION
 25: 0x01E6 [0x1C] WAIT(30* ticks)
 26: 0x01E9 [0x1D] PRINT_EVENT_MESSAGE(message_id=7915*)
    → "Consider it penance for losing the waterskin I gave you. Agreed? I bid you a safe journey."
 27: 0x01EC [0x23] WAIT_FOR_DIALOG_INTERACTION
 28: 0x01ED [0x5E] EventEntity goes idle (kills current action) (animation: "idl0")
 29: 0x01F2 [0x1C] WAIT(30* ticks)
 30: 0x01F5 [0x21] END_EVENT
 31: 0x01F6 [0x00] END_REQSTACK()
```

### Event 623

#### Metadata

| Field        | Value    |
|--------------|----------|
| Entrypoint   | 0x01F7   |
| Data Size    | 43 bytes |
| Instructions | 13       |

```
      00 01 02 03 04 05 06 07  08 09 0A 0B 0C 0D 0E 0F
      -- -- -- -- -- -- -- --  -- -- -- -- -- -- -- --
01F0:                      1E  F0 FF FF 7F 6F 70 66 00         .....opf.
0200: 80 F8 FF FF 7F F8 FF FF  7F 74 6C 6B 30 1D 18 80  .........tlk0...
0210: 23 1C 00 80 1D 17 80 23  5E 69 64 6C 30 1C 00 80  #......#^idl0...
0220: 21 00                                             !.              
```

#### Opcodes

```
  0: 0x01F7 [0x1E] EventEntity looks at LocalPlayer and starts talking
  1: 0x01FC [0x6F] WAIT_FRAME_DELAY: Yield until WaitTime reaches zero
  2: 0x01FD [0x70] WAIT_ENTITY_RENDER_FLAG: Wait while EventEntity->Render.Flags3 bit 2 is set (cancel turn if not)
  3: 0x01FE [0x66] LOAD_EXT_SCHEDULER_MAIN: Load scheduler "tlk0" with entities [EventEntity, EventEntity], work=30*
  4: 0x020D [0x1D] PRINT_EVENT_MESSAGE(message_id=7917*)
    → "Take the waterskin from gravestone in King Ranperre's Tomb, fill it in Southern San d'Oria, then return it to the tomb."
  5: 0x0210 [0x23] WAIT_FOR_DIALOG_INTERACTION
  6: 0x0211 [0x1C] WAIT(30* ticks)
  7: 0x0214 [0x1D] PRINT_EVENT_MESSAGE(message_id=7915*)
    → "Consider it penance for losing the waterskin I gave you. Agreed? I bid you a safe journey."
  8: 0x0217 [0x23] WAIT_FOR_DIALOG_INTERACTION
  9: 0x0218 [0x5E] EventEntity goes idle (kills current action) (animation: "idl0")
 10: 0x021D [0x1C] WAIT(30* ticks)
 11: 0x0220 [0x21] END_EVENT
 12: 0x0221 [0x00] END_REQSTACK()
```

### Event 624

#### Metadata

| Field        | Value    |
|--------------|----------|
| Entrypoint   | 0x0222   |
| Data Size    | 66 bytes |
| Instructions | 16       |

```
      00 01 02 03 04 05 06 07  08 09 0A 0B 0C 0D 0E 0F
      -- -- -- -- -- -- -- --  -- -- -- -- -- -- -- --
0220:       42 1E F0 FF FF 7F  6F 70 66 00 80 F8 FF FF    B.....opf.....
0230: 7F F8 FF FF 7F 74 6C 6B  30 03 02 10 0F 80 1D 19  .....tlk0.......
0240: 80 23 1C 00 80 1D 1A 80  23 5E 69 64 6C 30 45 1B  .#......#^idl0E.
0250: 80 F0 FF FF 7F F0 FF FF  7F 71 73 74 63 03 80 1C  .........qstc...
0260: 00 80 21 00                                       ..!.            
```

#### Opcodes

```
  0: 0x0222 [0x42] SET_CLI_EVENT_CANCEL_DATA()
  1: 0x0223 [0x1E] EventEntity looks at LocalPlayer and starts talking
  2: 0x0228 [0x6F] WAIT_FRAME_DELAY: Yield until WaitTime reaches zero
  3: 0x0229 [0x70] WAIT_ENTITY_RENDER_FLAG: Wait while EventEntity->Render.Flags3 bit 2 is set (cancel turn if not)
  4: 0x022A [0x66] LOAD_EXT_SCHEDULER_MAIN: Load scheduler "tlk0" with entities [EventEntity, EventEntity], work=30*
  5: 0x0239 [0x03] Work_Zone[2] = 567*
  6: 0x023E [0x1D] PRINT_EVENT_MESSAGE(message_id=7926*)
    → "Well, you lost the waterskin, but to travel to the late king's tomb and back is no mean feat. I commend you."
  7: 0x0241 [0x23] WAIT_FOR_DIALOG_INTERACTION
  8: 0x0242 [0x1C] WAIT(30* ticks)
  9: 0x0245 [0x1D] PRINT_EVENT_MESSAGE(message_id=7927*)
    → "I had thought to take the cost of the waterskin out of your compensation, but I cannot disregard the toil you've endured on my behalf. You deserve your full reward."
 10: 0x0248 [0x23] WAIT_FOR_DIALOG_INTERACTION
 11: 0x0249 [0x5E] EventEntity goes idle (kills current action) (animation: "idl0")
 12: 0x024E [0x45] LOAD_SCHEDULED_TASK: Load scheduler "qstc" with entities [LocalPlayer, LocalPlayer], work=[201*, 0*]
 13: 0x025F [0x1C] WAIT(30* ticks)
 14: 0x0262 [0x21] END_EVENT
 15: 0x0263 [0x00] END_REQSTACK()
```

### Event 558

#### Metadata

| Field        | Value    |
|--------------|----------|
| Entrypoint   | 0x0264   |
| Data Size    | 55 bytes |
| Instructions | 13       |

```
      00 01 02 03 04 05 06 07  08 09 0A 0B 0C 0D 0E 0F
      -- -- -- -- -- -- -- --  -- -- -- -- -- -- -- --
0260:             42 20 01 1E  F0 FF FF 7F 6F 70 66 00      B ......opf.
0270: 80 F8 FF FF 7F F8 FF FF  7F 74 6C 6B 30 1D 1C 80  .........tlk0...
0280: 23 5E 69 64 6C 30 45 1B  80 F0 FF FF 7F F0 FF FF  #^idl0E.........
0290: 7F 71 73 74 63 03 80 20  00 21 00                 .qstc.. .!.     
```

#### Opcodes

```
  0: 0x0264 [0x42] SET_CLI_EVENT_CANCEL_DATA()
  1: 0x0265 [0x20] SET_CLI_EVENT_UC_FLAG: Lock player control
  2: 0x0267 [0x1E] EventEntity looks at LocalPlayer and starts talking
  3: 0x026C [0x6F] WAIT_FRAME_DELAY: Yield until WaitTime reaches zero
  4: 0x026D [0x70] WAIT_ENTITY_RENDER_FLAG: Wait while EventEntity->Render.Flags3 bit 2 is set (cancel turn if not)
  5: 0x026E [0x66] LOAD_EXT_SCHEDULER_MAIN: Load scheduler "tlk0" with entities [EventEntity, EventEntity], work=30*
  6: 0x027D [0x1D] PRINT_EVENT_MESSAGE(message_id=7922*)
    → "I thank you, kind adventurer. His Majesty, the late king, thanks you, too."
  7: 0x0280 [0x23] WAIT_FOR_DIALOG_INTERACTION
  8: 0x0281 [0x5E] EventEntity goes idle (kills current action) (animation: "idl0")
  9: 0x0286 [0x45] LOAD_SCHEDULED_TASK: Load scheduler "qstc" with entities [LocalPlayer, LocalPlayer], work=[201*, 0*]
 10: 0x0297 [0x20] SET_CLI_EVENT_UC_FLAG: Unlock player control
 11: 0x0299 [0x21] END_EVENT
 12: 0x029A [0x00] END_REQSTACK()
```

### Event 65535.1

#### Metadata

| Field        | Value    |
|--------------|----------|
| Entrypoint   | 0x029B   |
| Data Size    | 10 bytes |
| Instructions | 2        |

```
      00 01 02 03 04 05 06 07  08 09 0A 0B 0C 0D 0E 0F
      -- -- -- -- -- -- -- --  -- -- -- -- -- -- -- --
0290:                                   37 1D 80 1E 80             7....
02A0: 1F 80 20 80 00                                    .. ..           
```

#### Opcodes

```
  0: 0x029B [0x37] UPDATE_EVENT_POSITION_AND_DIR: x=-74.422*, z=-4.596*, y=1.999*, direction=346.3°*
  1: 0x02A4 [0x00] END_REQSTACK()
```
