# 17719304 - Corua

## Common Data

| Field            | Value                         |
|------------------|-------------------------------|
| Zone             | Southern San d'Oria (ID: 230) |
| Block Size       | 220 bytes                     |
| Total Events     | 3                             |
| References Count | 11                            |

## List of Events

| Event ID                 | Entrypoint   |   Size |   Instructions |
|--------------------------|--------------|--------|----------------|
| [65535](#event-65535)    | 0x0000       |      1 |              1 |
| [849](#event-849)        | 0x0001       |    110 |             29 |
| [65535.1](#event-655351) | 0x006F       |     37 |              5 |

## DAT References (imed_data)

|   Index | Hex Value   |   Dec Value |
|---------|-------------|-------------|
|       0 | 0x0000      |           0 |
|       1 | 0x2ECD      |       11981 |
|       2 | 0x0001      |           1 |
|       3 | 0x001E      |          30 |
|       4 | 0x2EE9      |       12009 |
|       5 | 0x2EFE      |       12030 |
|       6 | 0x2EEA      |       12010 |
|       7 | 0x0023      |          35 |
|       8 | 0x2EEB      |       12011 |
|       9 | 0x00B4      |         180 |
|      10 | 0x005A      |          90 |

## String References

- **11981**: Ask if this person is the chick's owner? [Yes./No.]
- **12009**: What's that, [lad/lass]? You say you've got my chocobo?
- **12010**: ... Was I raising a chocobo again...? My stars, that's right! I lost the little bugger when we were out on a walk...
- **12011**: Why thank you, dear. Let me teach you a story I often tell my chocobo...
- **12030**: ... Did I lose my chocobo...? Oh, that's right...I found the little bugger already. You must have somebody else's chocobo, [lad/lass].

## Events

### Event 65535

#### Metadata

| Field        | Value   |
|--------------|---------|
| Entrypoint   | 0x0000  |
| Data Size    | 1 bytes |
| Instructions | 1       |

```
      00 01 02 03 04 05 06 07  08 09 0A 0B 0C 0D 0E 0F
      -- -- -- -- -- -- -- --  -- -- -- -- -- -- -- --
0000: 00                                                .               
```

#### Opcodes

```
  0: 0x0000 [0x00] END_REQSTACK()
```

### Event 849

#### Metadata

| Field        | Value     |
|--------------|-----------|
| Entrypoint   | 0x0001    |
| Data Size    | 110 bytes |
| Instructions | 29        |

```
      00 01 02 03 04 05 06 07  08 09 0A 0B 0C 0D 0E 0F
      -- -- -- -- -- -- -- --  -- -- -- -- -- -- -- --
0000:    42 03 01 10 00 80 24  01 80 02 80 00 80 25 02   B.....$......%.
0010: 00 10 00 80 00 6D 00 1E  F0 FF FF 7F 1C 03 80 03  .....m..........
0020: 01 10 02 80 43 00 43 01  02 02 10 00 80 00 42 00  ....C.C.......B.
0030: 1D 04 80 23 27 05 08 60  0E 01 02 1D 05 80 23 01  ...#'..`......#.
0040: 6A 00 1D 04 80 23 27 05  08 60 0E 01 02 1D 06 80  j....#'..`......
0050: 23 2A 05 08 60 0E 01 5B  07 80 F8 FF FF 7F F8 FF  #*..`..[........
0060: FF 7F 74 6C 6B 30 1D 08  80 23 01 6D 00 21 00     ..tlk0...#.m.!. 
```

#### Opcodes

```
  0: 0x0001 [0x42] SET_CLI_EVENT_CANCEL_DATA()
  1: 0x0002 [0x03] Work_Zone[1] = 0*
  2: 0x0007 [0x24] CREATE_DIALOG(message_id=11981*, default_option=1*, option_flags=0*)
    → "Ask if this person is the chick's owner? [Yes./No.]"
  3: 0x000E [0x25] WAIT_DIALOG_SELECT()
  4: 0x000F [0x02] IF !(Work_Zone[0] == 0*) GOTO 0x006D
  5: 0x0017 [0x1E] EventEntity looks at LocalPlayer and starts talking
  6: 0x001C [0x1C] WAIT(30* ticks)
  7: 0x001F [0x03] Work_Zone[1] = 1*
  8: 0x0024 [0x43] SEND_EVENT_UPDATE: Send pending tag to server (packet 0x005B)
  9: 0x0026 [0x43] SEND_EVENT_UPDATE: Check pending flag (skip if not pending)
 10: 0x0028 [0x02] IF !(Work_Zone[2] == 0*) GOTO 0x0042
 11: 0x0030 [0x1D] PRINT_EVENT_MESSAGE(message_id=12009*)
    → "What's that, [lad/lass]? You say you've got my chocobo?"
 12: 0x0033 [0x23] WAIT_FOR_DIALOG_INTERACTION
 13: 0x0034 [0x27] REQ_SET(priority=0x05, entity_id=Corua (ID: 17719304/0x010E6008), tag_num=0x02)
 14: 0x003B [0x1D] PRINT_EVENT_MESSAGE(message_id=12030*)
    → "... Did I lose my chocobo...? Oh, that's right...I found the little bugger already. You must have somebody else's chocobo, [lad/lass]."
 15: 0x003E [0x23] WAIT_FOR_DIALOG_INTERACTION
 16: 0x003F [0x01] GOTO 0x006A
 17: 0x0042 [0x1D] PRINT_EVENT_MESSAGE(message_id=12009*)
    → "What's that, [lad/lass]? You say you've got my chocobo?"
 18: 0x0045 [0x23] WAIT_FOR_DIALOG_INTERACTION
 19: 0x0046 [0x27] REQ_SET(priority=0x05, entity_id=Corua (ID: 17719304/0x010E6008), tag_num=0x02)
 20: 0x004D [0x1D] PRINT_EVENT_MESSAGE(message_id=12010*)
    → "... Was I raising a chocobo again...? My stars, that's right! I lost the little bugger when we were out on a walk..."
 21: 0x0050 [0x23] WAIT_FOR_DIALOG_INTERACTION
 22: 0x0051 [0x2A] GET_REQ_LEVEL(level=5, entity_id=Corua (ID: 17719304/0x010E6008))
 23: 0x0057 [0x5B] LOAD_EXT_SCHEDULER: Load scheduler "tlk0" with entities [EventEntity, EventEntity], work=35*
 24: 0x0066 [0x1D] PRINT_EVENT_MESSAGE(message_id=12011*)
    → "Why thank you, dear. Let me teach you a story I often tell my chocobo..."
 25: 0x0069 [0x23] WAIT_FOR_DIALOG_INTERACTION

SUBROUTINE_006A:
 26: 0x006A [0x01] GOTO 0x006D

SUBROUTINE_006D:
 27: 0x006D [0x21] END_EVENT
 28: 0x006E [0x00] END_REQSTACK()
```

### Event 65535.1

#### Metadata

| Field        | Value    |
|--------------|----------|
| Entrypoint   | 0x006F   |
| Data Size    | 37 bytes |
| Instructions | 5        |

```
      00 01 02 03 04 05 06 07  08 09 0A 0B 0C 0D 0E 0F
      -- -- -- -- -- -- -- --  -- -- -- -- -- -- -- --
0060:                                               5B                 [
0070: 07 80 F8 FF FF 7F F8 FF  FF 7F 74 68 6B 31 1C 09  ..........thk1..
0080: 80 5B 07 80 F8 FF FF 7F  F8 FF FF 7F 74 68 6B 32  .[..........thk2
0090: 1C 0A 80 00                                       ....            
```

#### Opcodes

```
  0: 0x006F [0x5B] LOAD_EXT_SCHEDULER: Load scheduler "thk1" with entities [EventEntity, EventEntity], work=35*
  1: 0x007E [0x1C] WAIT(180* ticks)
  2: 0x0081 [0x5B] LOAD_EXT_SCHEDULER: Load scheduler "thk2" with entities [EventEntity, EventEntity], work=35*
  3: 0x0090 [0x1C] WAIT(90* ticks)
  4: 0x0093 [0x00] END_REQSTACK()
```
