# 17719619

## Common Data

| Field            | Value                         |
|------------------|-------------------------------|
| Zone             | Southern San d'Oria (ID: 230) |
| Block Size       | 12688 bytes                   |
| Total Events     | 11                            |
| References Count | 237                           |

## List of Events

| Event ID              | Entrypoint   |   Size |   Instructions |
|-----------------------|--------------|--------|----------------|
| [65535](#event-65535) | 0x0000       |      1 |              1 |
| [935](#event-935)     | 0x0001       |   2487 |            268 |
| [936](#event-936)     | 0x09B8       |     38 |             10 |
| [937](#event-937)     | 0x09DE       |   2208 |            239 |
| [938](#event-938)     | 0x127E       |     52 |             14 |
| [939](#event-939)     | 0x12B2       |    867 |            107 |
| [940](#event-940)     | 0x1615       |     33 |              9 |
| [941](#event-941)     | 0x1636       |   1377 |            159 |
| [942](#event-942)     | 0x1B97       |     25 |              7 |
| [945](#event-945)     | 0x1BB0       |   2126 |            248 |
| [955](#event-955)     | 0x23FE       |   2465 |            285 |

## DAT References (imed_data)

|   Index | Hex Value   |   Dec Value |
|---------|-------------|-------------|
|       0 | 0x0013      |          19 |
|       1 | 0x0156      |         342 |
|       2 | 0x00B4      |         180 |
|       3 | 0xFFFE7530  |  4294866224 |
|       4 | 0x13734     |       79668 |
|       5 | 0xFFFFE890  |  4294961296 |
|       6 | 0x0E04      |        3588 |
|       7 | 0xFFFE7D9D  |  4294868381 |
|       8 | 0x13BD7     |       80855 |
|       9 | 0xFFFEB44B  |  4294882379 |
|      10 | 0x161EC     |       90604 |
|      11 | 0xFFFFE4DB  |  4294960347 |
|      12 | 0x0DCF      |        3535 |
|      13 | 0x0014      |          20 |
|      14 | 0x01B7      |         439 |
|      15 | 0x0000      |           0 |
|      16 | 0x0032      |          50 |
|      17 | 0x0078      |         120 |
|      18 | 0x3582      |       13698 |
|      19 | 0x001E      |          30 |
|      20 | 0x060E      |        1550 |
|      21 | 0x003C      |          60 |
|      22 | 0x0023      |          35 |
|      23 | 0x3583      |       13699 |
|      24 | 0x0857      |        2135 |
|      25 | 0x0856      |        2134 |
|      26 | 0x3584      |       13700 |
|      27 | 0x3585      |       13701 |
|      28 | 0x0859      |        2137 |
|      29 | 0x3586      |       13702 |
|      30 | 0x3587      |       13703 |
|      31 | 0x0854      |        2132 |
|      32 | 0x000F      |          15 |
|      33 | 0x3588      |       13704 |
|      34 | 0x3589      |       13705 |
|      35 | 0x0850      |        2128 |
|      36 | 0x358A      |       13706 |
|      37 | 0x358B      |       13707 |
|      38 | 0x358C      |       13708 |
|      39 | 0x358D      |       13709 |
|      40 | 0x358E      |       13710 |
|      41 | 0x0425      |        1061 |
|      42 | 0x358F      |       13711 |
|      43 | 0x3590      |       13712 |
|      44 | 0x0AA8      |        2728 |
|      45 | 0x3591      |       13713 |
|      46 | 0x3592      |       13714 |
|      47 | 0x3593      |       13715 |
|      48 | 0x3594      |       13716 |
|      49 | 0xFFFE7522  |  4294866210 |
|      50 | 0x13C02     |       80898 |
|      51 | 0x0F40      |        3904 |
|      52 | 0xFFFE7BB0  |  4294867888 |
|      53 | 0x136E5     |       79589 |
|      54 | 0x014A      |         330 |
|      55 | 0x0855      |        2133 |
|      56 | 0x3595      |       13717 |
|      57 | 0x0007      |           7 |
|      58 | 0x005A      |          90 |
|      59 | 0x08C5      |        2245 |
|      60 | 0x3596      |       13718 |
|      61 | 0x00C8      |         200 |
|      62 | 0xFFFE9DB5  |  4294876597 |
|      63 | 0x159D9     |       88537 |
|      64 | 0x0FA0      |        4000 |
|      65 | 0xFFFEA4E4  |  4294878436 |
|      66 | 0x15642     |       87618 |
|      67 | 0x0E36      |        3638 |
|      68 | 0xFFFEAD5D  |  4294880605 |
|      69 | 0x15B5F     |       88927 |
|      70 | 0x06A4      |        1700 |
|      71 | 0x3597      |       13719 |
|      72 | 0x3598      |       13720 |
|      73 | 0x3599      |       13721 |
|      74 | 0x359A      |       13722 |
|      75 | 0x359B      |       13723 |
|      76 | 0x359C      |       13724 |
|      77 | 0x359D      |       13725 |
|      78 | 0x359E      |       13726 |
|      79 | 0x085B      |        2139 |
|      80 | 0x359F      |       13727 |
|      81 | 0x35A0      |       13728 |
|      82 | 0x35A1      |       13729 |
|      83 | 0x0050      |          80 |
|      84 | 0x35A2      |       13730 |
|      85 | 0x012C      |         300 |
|      86 | 0xFFFE8467  |  4294870119 |
|      87 | 0x1449A     |       83098 |
|      88 | 0xFFFFE4A9  |  4294960297 |
|      89 | 0x0587      |        1415 |
|      90 | 0xFFFE822A  |  4294869546 |
|      91 | 0x13E53     |       81491 |
|      92 | 0xFFFFE702  |  4294960898 |
|      93 | 0x0863      |        2147 |
|      94 | 0x35A3      |       13731 |
|      95 | 0x0028      |          40 |
|      96 | 0x35A4      |       13732 |
|      97 | 0x0015      |          21 |
|      98 | 0x0046      |          70 |
|      99 | 0x35A5      |       13733 |
|     100 | 0x35A6      |       13734 |
|     101 | 0x35A7      |       13735 |
|     102 | 0x0016      |          22 |
|     103 | 0x35A8      |       13736 |
|     104 | 0x35A9      |       13737 |
|     105 | 0xFFFE74CD  |  4294866125 |
|     106 | 0x133C4     |       78788 |
|     107 | 0xFFFE8002  |  4294868994 |
|     108 | 0x13EEC     |       81644 |
|     109 | 0xFFFFE7C9  |  4294961097 |
|     110 | 0x35AA      |       13738 |
|     111 | 0x35AB      |       13739 |
|     112 | 0x35AC      |       13740 |
|     113 | 0x35AD      |       13741 |
|     114 | 0x35AE      |       13742 |
|     115 | 0x35AF      |       13743 |
|     116 | 0x085C      |        2140 |
|     117 | 0x000B      |          11 |
|     118 | 0x35B0      |       13744 |
|     119 | 0x35B1      |       13745 |
|     120 | 0xFFFEA1D3  |  4294877651 |
|     121 | 0x15A89     |       88713 |
|     122 | 0xFFFEB671  |  4294882929 |
|     123 | 0x1640C     |       91148 |
|     124 | 0x35B2      |       13746 |
|     125 | 0x35B3      |       13747 |
|     126 | 0x35B4      |       13748 |
|     127 | 0x35B5      |       13749 |
|     128 | 0x35B6      |       13750 |
|     129 | 0x35B7      |       13751 |
|     130 | 0x35B8      |       13752 |
|     131 | 0x35B9      |       13753 |
|     132 | 0x35BA      |       13754 |
|     133 | 0x000A      |          10 |
|     134 | 0x06D6      |        1750 |
|     135 | 0x35BB      |       13755 |
|     136 | 0x35BC      |       13756 |
|     137 | 0x35BD      |       13757 |
|     138 | 0x35BE      |       13758 |
|     139 | 0x35BF      |       13759 |
|     140 | 0x0064      |         100 |
|     141 | 0x11CE8     |       72936 |
|     142 | 0xFFFF826F  |  4294935151 |
|     143 | 0x07CF      |        1999 |
|     144 | 0x09EB      |        2539 |
|     145 | 0xF99C      |       63900 |
|     146 | 0xFFFF9D4F  |  4294942031 |
|     147 | 0x09B0      |        2480 |
|     148 | 0xFFF8448D  |  4294460557 |
|     149 | 0x80BE3     |      527331 |
|     150 | 0xFFF91678  |  4294514296 |
|     151 | 0x0800      |        2048 |
|     152 | 0x10133     |       65843 |
|     153 | 0xFFFFD53F  |  4294956351 |
|     154 | 0x0AC3      |        2755 |
|     155 | 0x103BE     |       66494 |
|     156 | 0xFFFFD9AF  |  4294957487 |
|     157 | 0x09A7      |        2471 |
|     158 | 0x11C7A     |       72826 |
|     159 | 0xFFFFEC12  |  4294962194 |
|     160 | 0x05E0      |        1504 |
|     161 | 0x2A76      |       10870 |
|     162 | 0xFFFF8DD4  |  4294938068 |
|     163 | 0x06A3      |        1699 |
|     164 | 0x05A0      |        1440 |
|     165 | 0xFFFFEEF3  |  4294962931 |
|     166 | 0x053C      |        1340 |
|     167 | 0x069D      |        1693 |
|     168 | 0x2775      |       10101 |
|     169 | 0xFFFF9E69  |  4294942313 |
|     170 | 0x05E5      |        1509 |
|     171 | 0x00FD      |         253 |
|     172 | 0x005B      |          91 |
|     173 | 0x0141      |         321 |
|     174 | 0x0A16      |        2582 |
|     175 | 0x0A18      |        2584 |
|     176 | 0x01E5      |         485 |
|     177 | 0x085A      |        2138 |
|     178 | 0x0008      |           8 |
|     179 | 0x001D      |          29 |
|     180 | 0x36AC      |       13996 |
|     181 | 0x977F      |       38783 |
|     182 | 0xFFFF9590  |  4294940048 |
|     183 | 0x07FB      |        2043 |
|     184 | 0x0020      |          32 |
|     185 | 0x36AD      |       13997 |
|     186 | 0x0862      |        2146 |
|     187 | 0x36AE      |       13998 |
|     188 | 0x8231      |       33329 |
|     189 | 0xFFFFA09C  |  4294942876 |
|     190 | 0x0828      |        2088 |
|     191 | 0x0065      |         101 |
|     192 | 0x0861      |        2145 |
|     193 | 0x0128      |         296 |
|     194 | 0x36AF      |       13999 |
|     195 | 0x007F      |         127 |
|     196 | 0x36B0      |       14000 |
|     197 | 0x0001      |           1 |
|     198 | 0x0002      |           2 |
|     199 | 0x0003      |           3 |
|     200 | 0x0004      |           4 |
|     201 | 0x0005      |           5 |
|     202 | 0x0006      |           6 |
|     203 | 0x0FCC      |        4044 |
|     204 | 0x00A0      |         160 |
|     205 | 0x36B1      |       14001 |
|     206 | 0x36B2      |       14002 |
|     207 | 0xFFFEB0FC  |  4294881532 |
|     208 | 0x15E4F     |       89679 |
|     209 | 0x0E05      |        3589 |
|     210 | 0xFFFEAEA9  |  4294880937 |
|     211 | 0x16447     |       91207 |
|     212 | 0x0DF0      |        3568 |
|     213 | 0x007B      |         123 |
|     214 | 0x021E      |         542 |
|     215 | 0x3ABE      |       15038 |
|     216 | 0x3ABD      |       15037 |
|     217 | 0x3ABF      |       15039 |
|     218 | 0x00C9      |         201 |
|     219 | 0x0054      |          84 |
|     220 | 0x0080      |         128 |
|     221 | 0x00D7      |         215 |
|     222 | 0x002D      |          45 |
|     223 | 0x3AC0      |       15040 |
|     224 | 0x3AC1      |       15041 |
|     225 | 0x3AC2      |       15042 |
|     226 | 0x3AC3      |       15043 |
|     227 | 0x3AC4      |       15044 |
|     228 | 0x3AC5      |       15045 |
|     229 | 0x3AC6      |       15046 |
|     230 | 0x3AC7      |       15047 |
|     231 | 0x3AC8      |       15048 |
|     232 | 0x3AC9      |       15049 |
|     233 | 0xFFFEAF6C  |  4294881132 |
|     234 | 0x16753     |       91987 |
|     235 | 0x006B      |         107 |
|     236 | 0x3ACA      |       15050 |

## Events

### Event 65535

#### Metadata

| Field        | Value   |
|--------------|---------|
| Entrypoint   | 0x0000  |
| Data Size    | 1 bytes |
| Instructions | 1       |

```
      00 01 02 03 04 05 06 07  08 09 0A 0B 0C 0D 0E 0F
      -- -- -- -- -- -- -- --  -- -- -- -- -- -- -- --
0000: 00                                                .               
```

#### Opcodes

```
  0: 0x0000 [0x00] END_REQSTACK()
```

### Event 935

#### Metadata

| Field        | Value      |
|--------------|------------|
| Entrypoint   | 0x0001     |
| Data Size    | 2487 bytes |
| Instructions | 268        |

```
      00 01 02 03 04 05 06 07  08 09 0A 0B 0C 0D 0E 0F
      -- -- -- -- -- -- -- --  -- -- -- -- -- -- -- --
0000:    42 1A 71 2B 46 01 38  00 80 92 01 44 61 0E 01   B.q+F.8....Da..
0010: 92 01 1F 60 0E 01 75 00  01 80 75 01 94 01 F0 FF  ...`..u...u.....
0020: FF 7F 94 01 44 61 0E 01  94 01 1F 60 0E 01 27 10  ....Da.....`..'.
0030: 44 61 0E 01 09 4E 00 1F  60 0E 01 29 10 A4 60 0E  Da...N..`..)..`.
0040: 01 07 1C 02 80 BA F0 FF  FF 7F 03 80 04 80 05 80  ................
0050: 06 80 BA 44 61 0E 01 07  80 08 80 05 80 06 80 BA  ...Da...........
0060: 1F 60 0E 01 09 80 0A 80  0B 80 0C 80 80 F0 FF FF  .`..............
0070: 7F 80 44 61 0E 01 80 1F  60 0E 01 79 00 F0 FF FF  ..Da....`..y....
0080: 7F F0 FF FF 7F 7B 44 61  0E 01 79 00 1F 60 0E 01  .....{Da..y..`..
0090: 1F 60 0E 01 27 10 44 61  0E 01 12 1C 0D 80 27 10  .`..'.Da......'.
00A0: 45 61 0E 01 05 45 0E 80  F0 FF FF 7F F0 FF FF 7F  Ea...E..........
00B0: 73 61 30 30 0F 80 1A 50  2B 2A 10 44 61 0E 01 27  sa00...P+*.Da..'
00C0: 10 A4 60 0E 01 06 1C 10  80 27 10 44 61 0E 01 13  ..`......'.Da...
00D0: 1C 11 80 52 0E 80 F0 FF  FF 7F F0 FF FF 7F 73 61  ...R..........sa
00E0: 30 30 45 0E 80 F0 FF FF  7F F0 FF FF 7F 73 61 30  00E..........sa0
00F0: 31 0F 80 2A 10 44 61 0E  01 27 10 44 61 0E 01 14  1..*.Da..'.Da...
0100: 2B 44 61 0E 01 12 80 23  1C 13 80 27 10 A4 60 0E  +Da....#...'..`.
0110: 01 07 2A 10 44 61 0E 01  4B 1F 60 0E 01 14 80 7B  ..*.Da..K.`....{
0120: 1F 60 0E 01 2A 10 45 61  0E 01 1C 15 80 1C 13 80  .`..*.Ea........
0130: 6F 76 1F 60 0E 01 52 0E  80 F0 FF FF 7F F0 FF FF  ov.`..R.........
0140: 7F 73 61 30 31 45 0E 80  F0 FF FF 7F F0 FF FF 7F  .sa01E..........
0150: 73 61 30 32 0F 80 5B 16  80 1F 60 0E 01 1F 60 0E  sa02..[...`...`.
0160: 01 74 6C 6B 30 2B 1F 60  0E 01 17 80 23 53 1F 60  .tlk0+.`....#S.`
0170: 0E 01 1F 60 0E 01 74 6C  6B 30 1C 13 80 5B 16 80  ...`..tlk0...[..
0180: 1F 60 0E 01 1F 60 0E 01  74 6C 6B 31 52 0E 80 F0  .`...`..tlk1R...
0190: FF FF 7F F0 FF FF 7F 73  61 30 32 45 0E 80 F0 FF  .......sa02E....
01A0: FF 7F F0 FF FF 7F 73 61  30 34 0F 80 5B 18 80 44  ......sa04..[..D
01B0: 61 0E 01 44 61 0E 01 66  64 30 31 5B 19 80 44 61  a..Da..fd01[..Da
01C0: 0E 01 44 61 0E 01 74 6C  61 30 2B 44 61 0E 01 1A  ..Da..tla0+Da...
01D0: 80 23 53 44 61 0E 01 44  61 0E 01 74 6C 61 30 5B  .#SDa..Da..tla0[
01E0: 18 80 44 61 0E 01 44 61  0E 01 66 64 30 30 1C 13  ..Da..Da..fd00..
01F0: 80 5B 19 80 44 61 0E 01  44 61 0E 01 74 6C 61 31  .[..Da..Da..tla1
0200: 52 0E 80 F0 FF FF 7F F0  FF FF 7F 73 61 30 34 45  R..........sa04E
0210: 0E 80 F0 FF FF 7F F0 FF  FF 7F 73 61 30 33 0F 80  ..........sa03..
0220: 53 1F 60 0E 01 1F 60 0E  01 74 6C 6B 31 27 10 1F  S.`...`..tlk1'..
0230: 60 0E 01 12 2B 1F 60 0E  01 1B 80 23 2A 10 1F 60  `...+.`....#*..`
0240: 0E 01 7B 44 61 0E 01 5B  18 80 44 61 0E 01 44 61  ..{Da..[..Da..Da
0250: 0E 01 66 68 30 31 5B 1C  80 44 61 0E 01 44 61 0E  ..fh01[..Da..Da.
0260: 01 75 74 75 30 1C 13 80  52 0E 80 F0 FF FF 7F F0  .utu0...R.......
0270: FF FF 7F 73 61 30 33 45  0E 80 F0 FF FF 7F F0 FF  ...sa03E........
0280: FF 7F 73 61 30 35 0F 80  2B 44 61 0E 01 1D 80 23  ..sa05..+Da....#
0290: 53 44 61 0E 01 44 61 0E  01 75 74 75 30 5B 18 80  SDa..Da..utu0[..
02A0: 44 61 0E 01 44 61 0E 01  66 68 30 30 1C 13 80 52  Da..Da..fh00...R
02B0: 0E 80 F0 FF FF 7F F0 FF  FF 7F 73 61 30 35 45 0E  ..........sa05E.
02C0: 80 F0 FF FF 7F F0 FF FF  7F 73 61 30 36 0F 80 1C  .........sa06...
02D0: 13 80 79 00 44 61 0E 01  1F 60 0E 01 5B 18 80 44  ..y.Da...`..[..D
02E0: 61 0E 01 44 61 0E 01 66  32 30 30 5B 1C 80 44 61  a..Da..f200[..Da
02F0: 0E 01 44 61 0E 01 75 74  75 31 5B 16 80 1F 60 0E  ..Da..utu1[...`.
0300: 01 1F 60 0E 01 74 6C 6B  30 2B 1F 60 0E 01 1E 80  ..`..tlk0+.`....
0310: 23 53 1F 60 0E 01 1F 60  0E 01 74 6C 6B 30 1C 13  #S.`...`..tlk0..
0320: 80 5B 16 80 1F 60 0E 01  1F 60 0E 01 74 6C 6B 31  .[...`...`..tlk1
0330: 53 44 61 0E 01 44 61 0E  01 75 74 75 31 5B 18 80  SDa..Da..utu1[..
0340: 44 61 0E 01 44 61 0E 01  66 64 30 31 5B 1F 80 44  Da..Da..fd01[..D
0350: 61 0E 01 44 61 0E 01 74  6C 64 30 1C 20 80 52 0E  a..Da..tld0. .R.
0360: 80 F0 FF FF 7F F0 FF FF  7F 73 61 30 36 45 0E 80  .........sa06E..
0370: F0 FF FF 7F F0 FF FF 7F  73 61 30 37 0F 80 2B 44  ........sa07..+D
0380: 61 0E 01 21 80 23 53 44  61 0E 01 44 61 0E 01 74  a..!.#SDa..Da..t
0390: 6C 64 30 5B 18 80 44 61  0E 01 44 61 0E 01 66 64  ld0[..Da..Da..fd
03A0: 30 30 1C 13 80 52 0E 80  F0 FF FF 7F F0 FF FF 7F  00...R..........
03B0: 73 61 30 37 45 0E 80 F0  FF FF 7F F0 FF FF 7F 73  sa07E..........s
03C0: 61 30 38 0F 80 5B 16 80  1F 60 0E 01 1F 60 0E 01  a08..[...`...`..
03D0: 74 6C 6B 30 2B 1F 60 0E  01 22 80 23 53 1F 60 0E  tlk0+.`..".#S.`.
03E0: 01 1F 60 0E 01 74 6C 6B  30 1C 13 80 5B 16 80 1F  ..`..tlk0...[...
03F0: 60 0E 01 1F 60 0E 01 74  6C 6B 31 5B 18 80 44 61  `...`..tlk1[..Da
0400: 0E 01 44 61 0E 01 66 30  30 30 5B 1F 80 44 61 0E  ..Da..f000[..Da.
0410: 01 44 61 0E 01 74 6C 64  31 1C 15 80 52 0E 80 F0  .Da..tld1...R...
0420: FF FF 7F F0 FF FF 7F 73  61 30 38 45 0E 80 F0 FF  .......sa08E....
0430: FF 7F F0 FF FF 7F 73 61  30 39 0F 80 53 44 61 0E  ......sa09..SDa.
0440: 01 44 61 0E 01 74 6C 64  31 81 00 44 61 0E 01 5B  .Da..tld1..Da..[
0450: 23 80 44 61 0E 01 44 61  0E 01 68 64 62 30 2B 44  #.Da..Da..hdb0+D
0460: 61 0E 01 24 80 23 53 44  61 0E 01 44 61 0E 01 68  a..$.#SDa..Da..h
0470: 64 62 30 81 01 44 61 0E  01 1C 13 80 5B 23 80 44  db0..Da.....[#.D
0480: 61 0E 01 44 61 0E 01 68  64 62 31 52 0E 80 F0 FF  a..Da..hdb1R....
0490: FF 7F F0 FF FF 7F 73 61  30 39 45 0E 80 F0 FF FF  ......sa09E.....
04A0: 7F F0 FF FF 7F 73 61 31  30 0F 80 5B 16 80 1F 60  .....sa10..[...`
04B0: 0E 01 1F 60 0E 01 74 6C  6B 30 2B 1F 60 0E 01 25  ...`..tlk0+.`..%
04C0: 80 23 53 1F 60 0E 01 1F  60 0E 01 74 6C 6B 30 1C  .#S.`...`..tlk0.
04D0: 13 80 5B 16 80 1F 60 0E  01 1F 60 0E 01 74 6C 6B  ..[...`...`..tlk
04E0: 31 52 0E 80 F0 FF FF 7F  F0 FF FF 7F 73 61 31 30  1R..........sa10
04F0: 45 0E 80 F0 FF FF 7F F0  FF FF 7F 73 61 31 31 0F  E..........sa11.
0500: 80 7B 44 61 0E 01 5B 19  80 44 61 0E 01 44 61 0E  .{Da..[..Da..Da.
0510: 01 74 68 61 30 2B 44 61  0E 01 26 80 23 53 44 61  .tha0+Da..&.#SDa
0520: 0E 01 44 61 0E 01 74 68  61 30 1C 13 80 5B 19 80  ..Da..tha0...[..
0530: 44 61 0E 01 44 61 0E 01  74 68 61 31 52 0E 80 F0  Da..Da..tha1R...
0540: FF FF 7F F0 FF FF 7F 73  61 31 31 45 0E 80 F0 FF  .......sa11E....
0550: FF 7F F0 FF FF 7F 73 61  31 32 0F 80 79 00 44 61  ......sa12..y.Da
0560: 0E 01 1F 60 0E 01 5B 16  80 1F 60 0E 01 1F 60 0E  ...`..[...`...`.
0570: 01 74 68 6B 31 2B 1F 60  0E 01 27 80 23 53 1F 60  .thk1+.`..'.#S.`
0580: 0E 01 1F 60 0E 01 74 68  6B 31 1C 13 80 5B 16 80  ...`..thk1...[..
0590: 1F 60 0E 01 1F 60 0E 01  74 68 6B 32 52 0E 80 F0  .`...`..thk2R...
05A0: FF FF 7F F0 FF FF 7F 73  61 31 32 45 0E 80 F0 FF  .......sa12E....
05B0: FF 7F F0 FF FF 7F 73 61  31 33 0F 80 5B 18 80 44  ......sa13..[..D
05C0: 61 0E 01 44 61 0E 01 66  67 30 31 5B 23 80 44 61  a..Da..fg01[#.Da
05D0: 0E 01 44 61 0E 01 68 64  62 30 2B 44 61 0E 01 28  ..Da..hdb0+Da..(
05E0: 80 23 53 44 61 0E 01 44  61 0E 01 68 64 62 30 5B  .#SDa..Da..hdb0[
05F0: 18 80 44 61 0E 01 44 61  0E 01 66 67 30 30 1C 13  ..Da..Da..fg00..
0600: 80 52 0E 80 F0 FF FF 7F  F0 FF FF 7F 73 61 31 33  .R..........sa13
0610: 45 0E 80 F0 FF FF 7F F0  FF FF 7F 73 61 31 34 0F  E..........sa14.
0620: 80 5B 16 80 1F 60 0E 01  1F 60 0E 01 74 6C 6B 30  .[...`...`..tlk0
0630: 03 02 10 29 80 2B 1F 60  0E 01 2A 80 23 53 1F 60  ...).+.`..*.#S.`
0640: 0E 01 1F 60 0E 01 74 6C  6B 30 5B 18 80 44 61 0E  ...`..tlk0[..Da.
0650: 01 44 61 0E 01 66 68 30  31 1C 13 80 5B 16 80 1F  .Da..fh01...[...
0660: 60 0E 01 1F 60 0E 01 74  6C 6B 31 52 0E 80 F0 FF  `...`..tlk1R....
0670: FF 7F F0 FF FF 7F 73 61  31 34 45 0E 80 F0 FF FF  ......sa14E.....
0680: 7F F0 FF FF 7F 73 61 31  35 0F 80 2B 44 61 0E 01  .....sa15..+Da..
0690: 2B 80 23 1C 13 80 52 0E  80 F0 FF FF 7F F0 FF FF  +.#...R.........
06A0: 7F 73 61 31 35 45 0E 80  F0 FF FF 7F F0 FF FF 7F  .sa15E..........
06B0: 30 30 30 30 0F 80 55 0E  80 F0 FF FF 7F F0 FF FF  0000..U.........
06C0: 7F 30 30 30 30 52 0E 80  F0 FF FF 7F F0 FF FF 7F  .0000R..........
06D0: 30 30 30 30 45 0E 80 F0  FF FF 7F F0 FF FF 7F 73  0000E..........s
06E0: 61 31 36 0F 80 5B 18 80  44 61 0E 01 44 61 0E 01  a16..[..Da..Da..
06F0: 66 68 30 30 5B 16 80 1F  60 0E 01 1F 60 0E 01 74  fh00[...`...`..t
0700: 68 6B 31 03 02 10 2C 80  2B 1F 60 0E 01 2D 80 23  hk1...,.+.`..-.#
0710: 1C 13 80 52 0E 80 F0 FF  FF 7F F0 FF FF 7F 73 61  ...R..........sa
0720: 31 36 45 0E 80 F0 FF FF  7F F0 FF FF 7F 73 61 31  16E..........sa1
0730: 37 0F 80 2B 1F 60 0E 01  2E 80 23 1C 13 80 52 0E  7..+.`....#...R.
0740: 80 F0 FF FF 7F F0 FF FF  7F 73 61 31 37 45 0E 80  .........sa17E..
0750: F0 FF FF 7F F0 FF FF 7F  73 61 31 38 0F 80 2B 1F  ........sa18..+.
0760: 60 0E 01 2F 80 23 1C 13  80 5B 16 80 1F 60 0E 01  `../.#...[...`..
0770: 1F 60 0E 01 74 68 6B 32  5B 18 80 44 61 0E 01 44  .`..thk2[..Da..D
0780: 61 0E 01 66 30 30 30 5B  23 80 44 61 0E 01 44 61  a..f000[#.Da..Da
0790: 0E 01 68 64 62 31 1C 0D  80 52 0E 80 F0 FF FF 7F  ..hdb1...R......
07A0: F0 FF FF 7F 73 61 31 38  45 0E 80 F0 FF FF 7F F0  ....sa18E.......
07B0: FF FF 7F 73 61 31 39 0F  80 53 44 61 0E 01 44 61  ...sa19..SDa..Da
07C0: 0E 01 68 64 62 31 7B 44  61 0E 01 53 44 61 0E 01  ..hdb1{Da..SDa..
07D0: 44 61 0E 01 68 64 62 31  5B 19 80 44 61 0E 01 44  Da..hdb1[..Da..D
07E0: 61 0E 01 74 68 61 30 2B  44 61 0E 01 30 80 23 1C  a..tha0+Da..0.#.
07F0: 13 80 1A 71 2B 52 0E 80  F0 FF FF 7F F0 FF FF 7F  ...q+R..........
0800: 73 61 31 39 5B 19 80 44  61 0E 01 44 61 0E 01 74  sa19[..Da..Da..t
0810: 68 61 31 53 44 61 0E 01  44 61 0E 01 74 68 61 31  ha1SDa..Da..tha1
0820: BA F0 FF FF 7F 31 80 32  80 05 80 33 80 BA 44 61  .....1.2...3..Da
0830: 0E 01 34 80 35 80 05 80  33 80 80 F0 FF FF 7F 80  ..4.5...3.......
0840: 44 61 0E 01 5B 18 80 44  61 0E 01 44 61 0E 01 66  Da..[..Da..Da..f
0850: 30 30 30 4A F0 FF FF 7F  44 61 0E 01 79 00 F0 FF  000J....Da..y...
0860: FF 7F 44 61 0E 01 4A 44  61 0E 01 F0 FF FF 7F 79  ..Da..JDa......y
0870: 00 44 61 0E 01 F0 FF FF  7F 6F 76 44 61 0E 01 45  .Da......ovDa..E
0880: 0E 80 F0 FF FF 7F F0 FF  FF 7F 73 61 32 30 0F 80  ..........sa20..
0890: 1A 50 2B 1C 36 80 5B 37  80 44 61 0E 01 44 61 0E  .P+.6.[7.Da..Da.
08A0: 01 74 6C 62 30 2B 44 61  0E 01 38 80 23 1C 13 80  .tlb0+Da..8.#...
08B0: 5B 37 80 44 61 0E 01 44  61 0E 01 74 6C 62 31 52  [7.Da..Da..tlb1R
08C0: 0E 80 F0 FF FF 7F F0 FF  FF 7F 73 61 32 30 45 0E  ..........sa20E.
08D0: 80 F0 FF FF 7F F0 FF FF  7F 73 61 32 32 0F 80 6E  .........sa22..n
08E0: F0 FF FF 7F 39 80 99 F0  FF FF 7F 1C 3A 80 53 44  ....9.......:.SD
08F0: 61 0E 01 44 61 0E 01 74  6C 62 31 7B 44 61 0E 01  a..Da..tlb1{Da..
0900: 5B 18 80 44 61 0E 01 44  61 0E 01 66 64 30 31 5B  [..Da..Da..fd01[
0910: 3B 80 44 61 0E 01 44 61  0E 01 6B 69 61 30 1C 13  ;.Da..Da..kia0..
0920: 80 52 0E 80 F0 FF FF 7F  F0 FF FF 7F 73 61 32 32  .R..........sa22
0930: 45 0E 80 F0 FF FF 7F F0  FF FF 7F 73 61 32 31 0F  E..........sa21.
0940: 80 7B 44 61 0E 01 7C 00  44 61 0E 01 81 00 44 61  .{Da..|.Da....Da
0950: 0E 01 2B 44 61 0E 01 3C  80 23 53 44 61 0E 01 44  ..+Da..<.#SDa..D
0960: 61 0E 01 6B 69 61 30 5B  18 80 44 61 0E 01 44 61  a..kia0[..Da..Da
0970: 0E 01 66 64 30 30 7C 01  44 61 0E 01 81 01 44 61  ..fd00|.Da....Da
0980: 0E 01 1C 13 80 1A 71 2B  1C 13 80 52 0E 80 F0 FF  ......q+...R....
0990: FF 7F F0 FF FF 7F 73 61  32 31 6B 69 64 6C 30 44  ......sa21kidl0D
09A0: 61 0E 01 46 00 45 3D 80  F0 FF FF 7F F0 FF FF 7F  a..F.E=.........
09B0: 66 64 69 32 0F 80 21 00                           fdi2..!.        
```

#### Opcodes

```
  0: 0x0001 [0x42] SET_CLI_EVENT_CANCEL_DATA()
  1: 0x0002 [0x1A] CALL_SUBROUTINE(address=0x2B71)
  2: 0x0005 [0x46] CAMERA_CONTROL: Disable user control
  3: 0x0007 [0x38] SET_CLIENT_EVENT_MODE(mode=19*)
  4: 0x000A [0x92] Lilisette (ID: 17719620/0x010E6144)->Render.Flags3 ^= 0x01
  5: 0x0010 [0x92] Amaura (ID: 17719327/0x010E601F)->Render.Flags3 ^= 0x01
  6: 0x0016 [0x75] LOAD_ROOM(Load indoor room, room=342*)
  7: 0x001A [0x75] LOAD_ROOM(No action)
  8: 0x001C [0x94] LocalPlayer->Render.Flags3 ^= 0x01
  9: 0x0022 [0x94] Lilisette (ID: 17719620/0x010E6144)->Render.Flags3 ^= 0x01
 10: 0x0028 [0x94] Amaura (ID: 17719327/0x010E601F)->Render.Flags3 ^= 0x01
 11: 0x002E [0x27] REQ_SET(priority=0x10, entity_id=Lilisette (ID: 17719620/0x010E6144), tag_num=0x09)
 12: 0x0035 [0x4E] SET_ENTITY_HIDE_FLAG: Show Amaura (ID: 17719327/0x010E601F)
 13: 0x003B [0x29] REQ_SET_WAIT(priority=0x10, entity_id=Door:House (ID: 17719460/0x010E60A4), tag_num=0x07)
 14: 0x0042 [0x1C] WAIT(180* ticks)
 15: 0x0045 [0xBA] SET_ENTITY_POSITION(entity_id=LocalPlayer, pos_x=-101.072*, pos_z=79.668*, pos_y=-6.000*, direction=315.3°*)
 16: 0x0052 [0xBA] SET_ENTITY_POSITION(entity_id=Lilisette (ID: 17719620/0x010E6144), pos_x=-98.915*, pos_z=80.855*, pos_y=-6.000*, direction=315.3°*)
 17: 0x005F [0xBA] SET_ENTITY_POSITION(entity_id=Amaura (ID: 17719327/0x010E601F), pos_x=-84.917*, pos_z=90.604*, pos_y=-6.949*, direction=310.7°*)
 18: 0x006C [0x80] LOAD_WAIT(entity=LocalPlayer)
 19: 0x0071 [0x80] LOAD_WAIT(entity=Lilisette (ID: 17719620/0x010E6144))
 20: 0x0076 [0x80] LOAD_WAIT(entity=Amaura (ID: 17719327/0x010E601F))
 21: 0x007B [0x79] LocalPlayer looks at LocalPlayer (Basic look)
 22: 0x0085 [0x7B] Lilisette (ID: 17719620/0x010E6144) stops talking
 23: 0x008A [0x79] Amaura (ID: 17719327/0x010E601F) looks at Amaura (ID: 17719327/0x010E601F) (Basic look)
 24: 0x0094 [0x27] REQ_SET(priority=0x10, entity_id=Lilisette (ID: 17719620/0x010E6144), tag_num=0x12)
 25: 0x009B [0x1C] WAIT(20* ticks)
 26: 0x009E [0x27] REQ_SET(priority=0x10, entity_id=??? (ID: 17719621/0x010E6145), tag_num=0x05)
 27: 0x00A5 [0x45] LOAD_SCHEDULED_TASK: Load scheduler "sa00" with entities [LocalPlayer, LocalPlayer], work=[439*, 0*]
 28: 0x00B6 [0x1A] CALL_SUBROUTINE(address=0x2B50)
 29: 0x00B9 [0x2A] GET_REQ_LEVEL(level=16, entity_id=Lilisette (ID: 17719620/0x010E6144))
 30: 0x00BF [0x27] REQ_SET(priority=0x10, entity_id=Door:House (ID: 17719460/0x010E60A4), tag_num=0x06)
 31: 0x00C6 [0x1C] WAIT(50* ticks)
 32: 0x00C9 [0x27] REQ_SET(priority=0x10, entity_id=Lilisette (ID: 17719620/0x010E6144), tag_num=0x13)
 33: 0x00D0 [0x1C] WAIT(120* ticks)
 34: 0x00D3 [0x52] END_LOAD_SCHEDULER: End scheduler "sa00" with entities [LocalPlayer, LocalPlayer], work=439*
 35: 0x00E2 [0x45] LOAD_SCHEDULED_TASK: Load scheduler "sa01" with entities [LocalPlayer, LocalPlayer], work=[439*, 0*]
 36: 0x00F3 [0x2A] GET_REQ_LEVEL(level=16, entity_id=Lilisette (ID: 17719620/0x010E6144))
 37: 0x00F9 [0x27] REQ_SET(priority=0x10, entity_id=Lilisette (ID: 17719620/0x010E6144), tag_num=0x14)
 38: 0x0100 [0x2B] Lilisette (ID: 17719620/0x010E6144) [13698*]:
    → "Amaura!"
 39: 0x0107 [0x23] WAIT_FOR_DIALOG_INTERACTION
 40: 0x0108 [0x1C] WAIT(30* ticks)
 41: 0x010B [0x27] REQ_SET(priority=0x10, entity_id=Door:House (ID: 17719460/0x010E60A4), tag_num=0x07)
 42: 0x0112 [0x2A] GET_REQ_LEVEL(level=16, entity_id=Lilisette (ID: 17719620/0x010E6144))
 43: 0x0118 [0x4B] UPDATE_ENTITY_YAW(entity=Amaura (ID: 17719327/0x010E601F), yaw=8.5°*)
 44: 0x011F [0x7B] Amaura (ID: 17719327/0x010E601F) stops talking
 45: 0x0124 [0x2A] GET_REQ_LEVEL(level=16, entity_id=??? (ID: 17719621/0x010E6145))
 46: 0x012A [0x1C] WAIT(60* ticks)
 47: 0x012D [0x1C] WAIT(30* ticks)
 48: 0x0130 [0x6F] WAIT_FRAME_DELAY: Yield until WaitTime reaches zero
 49: 0x0131 [0x76] CHECK_ENTITY_RENDER_FLAGS: Wait until Amaura (ID: 17719327/0x010E601F) Render.Flags0 and Render.Flags3 conditions are met
 50: 0x0136 [0x52] END_LOAD_SCHEDULER: End scheduler "sa01" with entities [LocalPlayer, LocalPlayer], work=439*
 51: 0x0145 [0x45] LOAD_SCHEDULED_TASK: Load scheduler "sa02" with entities [LocalPlayer, LocalPlayer], work=[439*, 0*]
 52: 0x0156 [0x5B] LOAD_EXT_SCHEDULER: Load scheduler "tlk0" with entities [Amaura (ID: 17719327/0x010E601F), Amaura (ID: 17719327/0x010E601F)], work=35*
 53: 0x0165 [0x2B] Amaura (ID: 17719327/0x010E601F) [13699*]:
    → "Well, well, if it isn't little Lilisette!"
 54: 0x016C [0x23] WAIT_FOR_DIALOG_INTERACTION
 55: 0x016D [0x53] WAIT_SCHEDULER_TASK: Wait for scheduler "tlk0" with entities [Amaura (ID: 17719327/0x010E601F), Amaura (ID: 17719327/0x010E601F)]
 56: 0x017A [0x1C] WAIT(30* ticks)
 57: 0x017D [0x5B] LOAD_EXT_SCHEDULER: Load scheduler "tlk1" with entities [Amaura (ID: 17719327/0x010E601F), Amaura (ID: 17719327/0x010E601F)], work=35*
 58: 0x018C [0x52] END_LOAD_SCHEDULER: End scheduler "sa02" with entities [LocalPlayer, LocalPlayer], work=439*
 59: 0x019B [0x45] LOAD_SCHEDULED_TASK: Load scheduler "sa04" with entities [LocalPlayer, LocalPlayer], work=[439*, 0*]
 60: 0x01AC [0x5B] LOAD_EXT_SCHEDULER: Load scheduler "fd01" with entities [Lilisette (ID: 17719620/0x010E6144), Lilisette (ID: 17719620/0x010E6144)], work=2135*
 61: 0x01BB [0x5B] LOAD_EXT_SCHEDULER: Load scheduler "tla0" with entities [Lilisette (ID: 17719620/0x010E6144), Lilisette (ID: 17719620/0x010E6144)], work=2134*
 62: 0x01CA [0x2B] Lilisette (ID: 17719620/0x010E6144) [13700*]:
    → "It's lovely to see you again, Amaura. You're looking well."
 63: 0x01D1 [0x23] WAIT_FOR_DIALOG_INTERACTION
 64: 0x01D2 [0x53] WAIT_SCHEDULER_TASK: Wait for scheduler "tla0" with entities [Lilisette (ID: 17719620/0x010E6144), Lilisette (ID: 17719620/0x010E6144)]
 65: 0x01DF [0x5B] LOAD_EXT_SCHEDULER: Load scheduler "fd00" with entities [Lilisette (ID: 17719620/0x010E6144), Lilisette (ID: 17719620/0x010E6144)], work=2135*
 66: 0x01EE [0x1C] WAIT(30* ticks)
 67: 0x01F1 [0x5B] LOAD_EXT_SCHEDULER: Load scheduler "tla1" with entities [Lilisette (ID: 17719620/0x010E6144), Lilisette (ID: 17719620/0x010E6144)], work=2134*
 68: 0x0200 [0x52] END_LOAD_SCHEDULER: End scheduler "sa04" with entities [LocalPlayer, LocalPlayer], work=439*
 69: 0x020F [0x45] LOAD_SCHEDULED_TASK: Load scheduler "sa03" with entities [LocalPlayer, LocalPlayer], work=[439*, 0*]
 70: 0x0220 [0x53] WAIT_SCHEDULER_TASK: Wait for scheduler "tlk1" with entities [Amaura (ID: 17719327/0x010E601F), Amaura (ID: 17719327/0x010E601F)]
 71: 0x022D [0x27] REQ_SET(priority=0x10, entity_id=Amaura (ID: 17719327/0x010E601F), tag_num=0x12)
 72: 0x0234 [0x2B] Amaura (ID: 17719327/0x010E601F) [13701*]:
    → "Oh, my, just look at ye! How ye've grown! Why, the last time I saw ye would've been the day Sir Ragelise passed away..."
 73: 0x023B [0x23] WAIT_FOR_DIALOG_INTERACTION
 74: 0x023C [0x2A] GET_REQ_LEVEL(level=16, entity_id=Amaura (ID: 17719327/0x010E601F))
 75: 0x0242 [0x7B] Lilisette (ID: 17719620/0x010E6144) stops talking
 76: 0x0247 [0x5B] LOAD_EXT_SCHEDULER: Load scheduler "fh01" with entities [Lilisette (ID: 17719620/0x010E6144), Lilisette (ID: 17719620/0x010E6144)], work=2135*
 77: 0x0256 [0x5B] LOAD_EXT_SCHEDULER: Load scheduler "utu0" with entities [Lilisette (ID: 17719620/0x010E6144), Lilisette (ID: 17719620/0x010E6144)], work=2137*
 78: 0x0265 [0x1C] WAIT(30* ticks)
 79: 0x0268 [0x52] END_LOAD_SCHEDULER: End scheduler "sa03" with entities [LocalPlayer, LocalPlayer], work=439*
 80: 0x0277 [0x45] LOAD_SCHEDULED_TASK: Load scheduler "sa05" with entities [LocalPlayer, LocalPlayer], work=[439*, 0*]
 81: 0x0288 [0x2B] Lilisette (ID: 17719620/0x010E6144) [13702*]:
    → "Yes..."
 82: 0x028F [0x23] WAIT_FOR_DIALOG_INTERACTION
 83: 0x0290 [0x53] WAIT_SCHEDULER_TASK: Wait for scheduler "utu0" with entities [Lilisette (ID: 17719620/0x010E6144), Lilisette (ID: 17719620/0x010E6144)]
 84: 0x029D [0x5B] LOAD_EXT_SCHEDULER: Load scheduler "fh00" with entities [Lilisette (ID: 17719620/0x010E6144), Lilisette (ID: 17719620/0x010E6144)], work=2135*
 85: 0x02AC [0x1C] WAIT(30* ticks)
 86: 0x02AF [0x52] END_LOAD_SCHEDULER: End scheduler "sa05" with entities [LocalPlayer, LocalPlayer], work=439*
 87: 0x02BE [0x45] LOAD_SCHEDULED_TASK: Load scheduler "sa06" with entities [LocalPlayer, LocalPlayer], work=[439*, 0*]
 88: 0x02CF [0x1C] WAIT(30* ticks)
 89: 0x02D2 [0x79] Lilisette (ID: 17719620/0x010E6144) looks at Amaura (ID: 17719327/0x010E601F) (Basic look)
 90: 0x02DC [0x5B] LOAD_EXT_SCHEDULER: Load scheduler "f200" with entities [Lilisette (ID: 17719620/0x010E6144), Lilisette (ID: 17719620/0x010E6144)], work=2135*
 91: 0x02EB [0x5B] LOAD_EXT_SCHEDULER: Load scheduler "utu1" with entities [Lilisette (ID: 17719620/0x010E6144), Lilisette (ID: 17719620/0x010E6144)], work=2137*
 92: 0x02FA [0x5B] LOAD_EXT_SCHEDULER: Load scheduler "tlk0" with entities [Amaura (ID: 17719327/0x010E601F), Amaura (ID: 17719327/0x010E601F)], work=35*
 93: 0x0309 [0x2B] Amaura (ID: 17719327/0x010E601F) [13703*]:
    → "And what's the pretty little number ye've got on there, eh? Looks mighty familiar, like somethin' your mother used to wear."
 94: 0x0310 [0x23] WAIT_FOR_DIALOG_INTERACTION
 95: 0x0311 [0x53] WAIT_SCHEDULER_TASK: Wait for scheduler "tlk0" with entities [Amaura (ID: 17719327/0x010E601F), Amaura (ID: 17719327/0x010E601F)]
 96: 0x031E [0x1C] WAIT(30* ticks)
 97: 0x0321 [0x5B] LOAD_EXT_SCHEDULER: Load scheduler "tlk1" with entities [Amaura (ID: 17719327/0x010E601F), Amaura (ID: 17719327/0x010E601F)], work=35*
 98: 0x0330 [0x53] WAIT_SCHEDULER_TASK: Wait for scheduler "utu1" with entities [Lilisette (ID: 17719620/0x010E6144), Lilisette (ID: 17719620/0x010E6144)]
 99: 0x033D [0x5B] LOAD_EXT_SCHEDULER: Load scheduler "fd01" with entities [Lilisette (ID: 17719620/0x010E6144), Lilisette (ID: 17719620/0x010E6144)], work=2135*
100: 0x034C [0x5B] LOAD_EXT_SCHEDULER: Load scheduler "tld0" with entities [Lilisette (ID: 17719620/0x010E6144), Lilisette (ID: 17719620/0x010E6144)], work=2132*
101: 0x035B [0x1C] WAIT(15* ticks)
102: 0x035E [0x52] END_LOAD_SCHEDULER: End scheduler "sa06" with entities [LocalPlayer, LocalPlayer], work=439*
103: 0x036D [0x45] LOAD_SCHEDULED_TASK: Load scheduler "sa07" with entities [LocalPlayer, LocalPlayer], work=[439*, 0*]
104: 0x037E [0x2B] Lilisette (ID: 17719620/0x010E6144) [13704*]:
    → "You like it? It's the performance outfit for my dance troupe. I'm actually a famous dancer now, you know."
105: 0x0385 [0x23] WAIT_FOR_DIALOG_INTERACTION
106: 0x0386 [0x53] WAIT_SCHEDULER_TASK: Wait for scheduler "tld0" with entities [Lilisette (ID: 17719620/0x010E6144), Lilisette (ID: 17719620/0x010E6144)]
107: 0x0393 [0x5B] LOAD_EXT_SCHEDULER: Load scheduler "fd00" with entities [Lilisette (ID: 17719620/0x010E6144), Lilisette (ID: 17719620/0x010E6144)], work=2135*
108: 0x03A2 [0x1C] WAIT(30* ticks)
109: 0x03A5 [0x52] END_LOAD_SCHEDULER: End scheduler "sa07" with entities [LocalPlayer, LocalPlayer], work=439*
110: 0x03B4 [0x45] LOAD_SCHEDULED_TASK: Load scheduler "sa08" with entities [LocalPlayer, LocalPlayer], work=[439*, 0*]
111: 0x03C5 [0x5B] LOAD_EXT_SCHEDULER: Load scheduler "tlk0" with entities [Amaura (ID: 17719327/0x010E601F), Amaura (ID: 17719327/0x010E601F)], work=35*
112: 0x03D4 [0x2B] Amaura (ID: 17719327/0x010E601F) [13705*]:
    → "A dance troupe, ye say? Do those things still even exist? The closest thing we have comin' to San d'Oria nowadays is that Valeriano crew, what with their fire breathin' and sword jugglin' and--"
113: 0x03DB [0x23] WAIT_FOR_DIALOG_INTERACTION
114: 0x03DC [0x53] WAIT_SCHEDULER_TASK: Wait for scheduler "tlk0" with entities [Amaura (ID: 17719327/0x010E601F), Amaura (ID: 17719327/0x010E601F)]
115: 0x03E9 [0x1C] WAIT(30* ticks)
116: 0x03EC [0x5B] LOAD_EXT_SCHEDULER: Load scheduler "tlk1" with entities [Amaura (ID: 17719327/0x010E601F), Amaura (ID: 17719327/0x010E601F)], work=35*
117: 0x03FB [0x5B] LOAD_EXT_SCHEDULER: Load scheduler "f000" with entities [Lilisette (ID: 17719620/0x010E6144), Lilisette (ID: 17719620/0x010E6144)], work=2135*
118: 0x040A [0x5B] LOAD_EXT_SCHEDULER: Load scheduler "tld1" with entities [Lilisette (ID: 17719620/0x010E6144), Lilisette (ID: 17719620/0x010E6144)], work=2132*
119: 0x0419 [0x1C] WAIT(60* ticks)
120: 0x041C [0x52] END_LOAD_SCHEDULER: End scheduler "sa08" with entities [LocalPlayer, LocalPlayer], work=439*
121: 0x042B [0x45] LOAD_SCHEDULED_TASK: Load scheduler "sa09" with entities [LocalPlayer, LocalPlayer], work=[439*, 0*]
122: 0x043C [0x53] WAIT_SCHEDULER_TASK: Wait for scheduler "tld1" with entities [Lilisette (ID: 17719620/0x010E6144), Lilisette (ID: 17719620/0x010E6144)]
123: 0x0449 [0x81] SET_ENTITY_BLINKING(blink_flag=0x00, entity=Lilisette (ID: 17719620/0x010E6144))
124: 0x044F [0x5B] LOAD_EXT_SCHEDULER: Load scheduler "hdb0" with entities [Lilisette (ID: 17719620/0x010E6144), Lilisette (ID: 17719620/0x010E6144)], work=2128*
125: 0x045E [0x2B] Lilisette (ID: 17719620/0x010E6144) [13706*]:
    → "Um, yes, we're rather rare nowadays... But, more importantly, I have a favor to ask, Amaura. I need you to make that medicine again."
126: 0x0465 [0x23] WAIT_FOR_DIALOG_INTERACTION
127: 0x0466 [0x53] WAIT_SCHEDULER_TASK: Wait for scheduler "hdb0" with entities [Lilisette (ID: 17719620/0x010E6144), Lilisette (ID: 17719620/0x010E6144)]
128: 0x0473 [0x81] SET_ENTITY_BLINKING(blink_flag=0x01, entity=Lilisette (ID: 17719620/0x010E6144))
129: 0x0479 [0x1C] WAIT(30* ticks)
130: 0x047C [0x5B] LOAD_EXT_SCHEDULER: Load scheduler "hdb1" with entities [Lilisette (ID: 17719620/0x010E6144), Lilisette (ID: 17719620/0x010E6144)], work=2128*
131: 0x048B [0x52] END_LOAD_SCHEDULER: End scheduler "sa09" with entities [LocalPlayer, LocalPlayer], work=439*
132: 0x049A [0x45] LOAD_SCHEDULED_TASK: Load scheduler "sa10" with entities [LocalPlayer, LocalPlayer], work=[439*, 0*]
133: 0x04AB [0x5B] LOAD_EXT_SCHEDULER: Load scheduler "tlk0" with entities [Amaura (ID: 17719327/0x010E601F), Amaura (ID: 17719327/0x010E601F)], work=35*
134: 0x04BA [0x2B] Amaura (ID: 17719327/0x010E601F) [13707*]:
    → "Medicine, ye say? You mean the same one I brewed for your father all those years ago?"
135: 0x04C1 [0x23] WAIT_FOR_DIALOG_INTERACTION
136: 0x04C2 [0x53] WAIT_SCHEDULER_TASK: Wait for scheduler "tlk0" with entities [Amaura (ID: 17719327/0x010E601F), Amaura (ID: 17719327/0x010E601F)]
137: 0x04CF [0x1C] WAIT(30* ticks)
138: 0x04D2 [0x5B] LOAD_EXT_SCHEDULER: Load scheduler "tlk1" with entities [Amaura (ID: 17719327/0x010E601F), Amaura (ID: 17719327/0x010E601F)], work=35*
139: 0x04E1 [0x52] END_LOAD_SCHEDULER: End scheduler "sa10" with entities [LocalPlayer, LocalPlayer], work=439*
140: 0x04F0 [0x45] LOAD_SCHEDULED_TASK: Load scheduler "sa11" with entities [LocalPlayer, LocalPlayer], work=[439*, 0*]
141: 0x0501 [0x7B] Lilisette (ID: 17719620/0x010E6144) stops talking
142: 0x0506 [0x5B] LOAD_EXT_SCHEDULER: Load scheduler "tha0" with entities [Lilisette (ID: 17719620/0x010E6144), Lilisette (ID: 17719620/0x010E6144)], work=2134*
143: 0x0515 [0x2B] Lilisette (ID: 17719620/0x010E6144) [13708*]:
    → "Yes. You see, someone I know is experiencing similar symptoms..."
144: 0x051C [0x23] WAIT_FOR_DIALOG_INTERACTION
145: 0x051D [0x53] WAIT_SCHEDULER_TASK: Wait for scheduler "tha0" with entities [Lilisette (ID: 17719620/0x010E6144), Lilisette (ID: 17719620/0x010E6144)]
146: 0x052A [0x1C] WAIT(30* ticks)
147: 0x052D [0x5B] LOAD_EXT_SCHEDULER: Load scheduler "tha1" with entities [Lilisette (ID: 17719620/0x010E6144), Lilisette (ID: 17719620/0x010E6144)], work=2134*
148: 0x053C [0x52] END_LOAD_SCHEDULER: End scheduler "sa11" with entities [LocalPlayer, LocalPlayer], work=439*
149: 0x054B [0x45] LOAD_SCHEDULED_TASK: Load scheduler "sa12" with entities [LocalPlayer, LocalPlayer], work=[439*, 0*]
150: 0x055C [0x79] Lilisette (ID: 17719620/0x010E6144) looks at Amaura (ID: 17719327/0x010E601F) (Basic look)
151: 0x0566 [0x5B] LOAD_EXT_SCHEDULER: Load scheduler "thk1" with entities [Amaura (ID: 17719327/0x010E601F), Amaura (ID: 17719327/0x010E601F)], work=35*
152: 0x0575 [0x2B] Amaura (ID: 17719327/0x010E601F) [13709*]:
    → "Is that right...? It breaks my heart to have to disappoint ye, dearie, but I can't make that medicine anymore."
153: 0x057C [0x23] WAIT_FOR_DIALOG_INTERACTION
154: 0x057D [0x53] WAIT_SCHEDULER_TASK: Wait for scheduler "thk1" with entities [Amaura (ID: 17719327/0x010E601F), Amaura (ID: 17719327/0x010E601F)]
155: 0x058A [0x1C] WAIT(30* ticks)
156: 0x058D [0x5B] LOAD_EXT_SCHEDULER: Load scheduler "thk2" with entities [Amaura (ID: 17719327/0x010E601F), Amaura (ID: 17719327/0x010E601F)], work=35*
157: 0x059C [0x52] END_LOAD_SCHEDULER: End scheduler "sa12" with entities [LocalPlayer, LocalPlayer], work=439*
158: 0x05AB [0x45] LOAD_SCHEDULED_TASK: Load scheduler "sa13" with entities [LocalPlayer, LocalPlayer], work=[439*, 0*]
159: 0x05BC [0x5B] LOAD_EXT_SCHEDULER: Load scheduler "fg01" with entities [Lilisette (ID: 17719620/0x010E6144), Lilisette (ID: 17719620/0x010E6144)], work=2135*
160: 0x05CB [0x5B] LOAD_EXT_SCHEDULER: Load scheduler "hdb0" with entities [Lilisette (ID: 17719620/0x010E6144), Lilisette (ID: 17719620/0x010E6144)], work=2128*
161: 0x05DA [0x2B] Lilisette (ID: 17719620/0x010E6144) [13710*]:
    → "Wh-what? But, why?"
162: 0x05E1 [0x23] WAIT_FOR_DIALOG_INTERACTION
163: 0x05E2 [0x53] WAIT_SCHEDULER_TASK: Wait for scheduler "hdb0" with entities [Lilisette (ID: 17719620/0x010E6144), Lilisette (ID: 17719620/0x010E6144)]
164: 0x05EF [0x5B] LOAD_EXT_SCHEDULER: Load scheduler "fg00" with entities [Lilisette (ID: 17719620/0x010E6144), Lilisette (ID: 17719620/0x010E6144)], work=2135*
165: 0x05FE [0x1C] WAIT(30* ticks)
166: 0x0601 [0x52] END_LOAD_SCHEDULER: End scheduler "sa13" with entities [LocalPlayer, LocalPlayer], work=439*
167: 0x0610 [0x45] LOAD_SCHEDULED_TASK: Load scheduler "sa14" with entities [LocalPlayer, LocalPlayer], work=[439*, 0*]
168: 0x0621 [0x5B] LOAD_EXT_SCHEDULER: Load scheduler "tlk0" with entities [Amaura (ID: 17719327/0x010E601F), Amaura (ID: 17719327/0x010E601F)], work=35*
169: 0x0630 [0x03] Work_Zone[2] = 1061*
170: 0x0635 [0x2B] Amaura (ID: 17719327/0x010E601F) [13711*]:
    → "<Sigh>... The main ingredient, $3, can no longer be found."
171: 0x063C [0x23] WAIT_FOR_DIALOG_INTERACTION
172: 0x063D [0x53] WAIT_SCHEDULER_TASK: Wait for scheduler "tlk0" with entities [Amaura (ID: 17719327/0x010E601F), Amaura (ID: 17719327/0x010E601F)]
173: 0x064A [0x5B] LOAD_EXT_SCHEDULER: Load scheduler "fh01" with entities [Lilisette (ID: 17719620/0x010E6144), Lilisette (ID: 17719620/0x010E6144)], work=2135*
174: 0x0659 [0x1C] WAIT(30* ticks)
175: 0x065C [0x5B] LOAD_EXT_SCHEDULER: Load scheduler "tlk1" with entities [Amaura (ID: 17719327/0x010E601F), Amaura (ID: 17719327/0x010E601F)], work=35*
176: 0x066B [0x52] END_LOAD_SCHEDULER: End scheduler "sa14" with entities [LocalPlayer, LocalPlayer], work=439*
177: 0x067A [0x45] LOAD_SCHEDULED_TASK: Load scheduler "sa15" with entities [LocalPlayer, LocalPlayer], work=[439*, 0*]
178: 0x068B [0x2B] Lilisette (ID: 17719620/0x010E6144) [13712*]:
    → "Oh..."
179: 0x0692 [0x23] WAIT_FOR_DIALOG_INTERACTION
180: 0x0693 [0x1C] WAIT(30* ticks)
181: 0x0696 [0x52] END_LOAD_SCHEDULER: End scheduler "sa15" with entities [LocalPlayer, LocalPlayer], work=439*
182: 0x06A5 [0x45] LOAD_SCHEDULED_TASK: Load scheduler "0000" with entities [LocalPlayer, LocalPlayer], work=[439*, 0*]
183: 0x06B6 [0x55] WAIT_LOAD_SCHEDULER: Wait for scheduler "0000" with entities [LocalPlayer, LocalPlayer], work=439*
184: 0x06C5 [0x52] END_LOAD_SCHEDULER: End scheduler "0000" with entities [LocalPlayer, LocalPlayer], work=439*
185: 0x06D4 [0x45] LOAD_SCHEDULED_TASK: Load scheduler "sa16" with entities [LocalPlayer, LocalPlayer], work=[439*, 0*]
186: 0x06E5 [0x5B] LOAD_EXT_SCHEDULER: Load scheduler "fh00" with entities [Lilisette (ID: 17719620/0x010E6144), Lilisette (ID: 17719620/0x010E6144)], work=2135*
187: 0x06F4 [0x5B] LOAD_EXT_SCHEDULER: Load scheduler "thk1" with entities [Amaura (ID: 17719327/0x010E601F), Amaura (ID: 17719327/0x010E601F)], work=35*
188: 0x0703 [0x03] Work_Zone[2] = 2728*
189: 0x0708 [0x2B] Amaura (ID: 17719327/0x010E601F) [13713*]:
    → "A real shame, I know, but it's been that way for some years, ever since the last batch of $0 was harvested."
190: 0x070F [0x23] WAIT_FOR_DIALOG_INTERACTION
191: 0x0710 [0x1C] WAIT(30* ticks)
192: 0x0713 [0x52] END_LOAD_SCHEDULER: End scheduler "sa16" with entities [LocalPlayer, LocalPlayer], work=439*
193: 0x0722 [0x45] LOAD_SCHEDULED_TASK: Load scheduler "sa17" with entities [LocalPlayer, LocalPlayer], work=[439*, 0*]
194: 0x0733 [0x2B] Amaura (ID: 17719327/0x010E601F) [13714*]:
    → "There's nary a mature tree to be seen nowadays. It's like they all just up and disappeared off the horizon."
195: 0x073A [0x23] WAIT_FOR_DIALOG_INTERACTION
196: 0x073B [0x1C] WAIT(30* ticks)
197: 0x073E [0x52] END_LOAD_SCHEDULER: End scheduler "sa17" with entities [LocalPlayer, LocalPlayer], work=439*
198: 0x074D [0x45] LOAD_SCHEDULED_TASK: Load scheduler "sa18" with entities [LocalPlayer, LocalPlayer], work=[439*, 0*]
199: 0x075E [0x2B] Amaura (ID: 17719327/0x010E601F) [13715*]:
    → "And to think that not a decade ago, the saplings from which the bulbs could be obtained were still as common as those pesky little hares out in Ronfaure..."
200: 0x0765 [0x23] WAIT_FOR_DIALOG_INTERACTION
201: 0x0766 [0x1C] WAIT(30* ticks)
202: 0x0769 [0x5B] LOAD_EXT_SCHEDULER: Load scheduler "thk2" with entities [Amaura (ID: 17719327/0x010E601F), Amaura (ID: 17719327/0x010E601F)], work=35*
203: 0x0778 [0x5B] LOAD_EXT_SCHEDULER: Load scheduler "f000" with entities [Lilisette (ID: 17719620/0x010E6144), Lilisette (ID: 17719620/0x010E6144)], work=2135*
204: 0x0787 [0x5B] LOAD_EXT_SCHEDULER: Load scheduler "hdb1" with entities [Lilisette (ID: 17719620/0x010E6144), Lilisette (ID: 17719620/0x010E6144)], work=2128*
205: 0x0796 [0x1C] WAIT(20* ticks)
206: 0x0799 [0x52] END_LOAD_SCHEDULER: End scheduler "sa18" with entities [LocalPlayer, LocalPlayer], work=439*
207: 0x07A8 [0x45] LOAD_SCHEDULED_TASK: Load scheduler "sa19" with entities [LocalPlayer, LocalPlayer], work=[439*, 0*]
208: 0x07B9 [0x53] WAIT_SCHEDULER_TASK: Wait for scheduler "hdb1" with entities [Lilisette (ID: 17719620/0x010E6144), Lilisette (ID: 17719620/0x010E6144)]
209: 0x07C6 [0x7B] Lilisette (ID: 17719620/0x010E6144) stops talking
210: 0x07CB [0x53] WAIT_SCHEDULER_TASK: Wait for scheduler "hdb1" with entities [Lilisette (ID: 17719620/0x010E6144), Lilisette (ID: 17719620/0x010E6144)]
211: 0x07D8 [0x5B] LOAD_EXT_SCHEDULER: Load scheduler "tha0" with entities [Lilisette (ID: 17719620/0x010E6144), Lilisette (ID: 17719620/0x010E6144)], work=2134*
212: 0x07E7 [0x2B] Lilisette (ID: 17719620/0x010E6144) [13716*]:
    → "Saplings...in the past...!"
213: 0x07EE [0x23] WAIT_FOR_DIALOG_INTERACTION
214: 0x07EF [0x1C] WAIT(30* ticks)
215: 0x07F2 [0x1A] CALL_SUBROUTINE(address=0x2B71)
216: 0x07F5 [0x52] END_LOAD_SCHEDULER: End scheduler "sa19" with entities [LocalPlayer, LocalPlayer], work=439*
217: 0x0804 [0x5B] LOAD_EXT_SCHEDULER: Load scheduler "tha1" with entities [Lilisette (ID: 17719620/0x010E6144), Lilisette (ID: 17719620/0x010E6144)], work=2134*
218: 0x0813 [0x53] WAIT_SCHEDULER_TASK: Wait for scheduler "tha1" with entities [Lilisette (ID: 17719620/0x010E6144), Lilisette (ID: 17719620/0x010E6144)]
219: 0x0820 [0xBA] SET_ENTITY_POSITION(entity_id=LocalPlayer, pos_x=-101.086*, pos_z=80.898*, pos_y=-6.000*, direction=343.1°*)
220: 0x082D [0xBA] SET_ENTITY_POSITION(entity_id=Lilisette (ID: 17719620/0x010E6144), pos_x=-99.408*, pos_z=79.589*, pos_y=-6.000*, direction=343.1°*)
221: 0x083A [0x80] LOAD_WAIT(entity=LocalPlayer)
222: 0x083F [0x80] LOAD_WAIT(entity=Lilisette (ID: 17719620/0x010E6144))
223: 0x0844 [0x5B] LOAD_EXT_SCHEDULER: Load scheduler "f000" with entities [Lilisette (ID: 17719620/0x010E6144), Lilisette (ID: 17719620/0x010E6144)], work=2135*
224: 0x0853 [0x4A] LocalPlayer looks at Lilisette (ID: 17719620/0x010E6144)
225: 0x085C [0x79] LocalPlayer looks at Lilisette (ID: 17719620/0x010E6144) (Basic look)
226: 0x0866 [0x4A] Lilisette (ID: 17719620/0x010E6144) looks at LocalPlayer
227: 0x086F [0x79] Lilisette (ID: 17719620/0x010E6144) looks at LocalPlayer (Basic look)
228: 0x0879 [0x6F] WAIT_FRAME_DELAY: Yield until WaitTime reaches zero
229: 0x087A [0x76] CHECK_ENTITY_RENDER_FLAGS: Wait until Lilisette (ID: 17719620/0x010E6144) Render.Flags0 and Render.Flags3 conditions are met
230: 0x087F [0x45] LOAD_SCHEDULED_TASK: Load scheduler "sa20" with entities [LocalPlayer, LocalPlayer], work=[439*, 0*]
231: 0x0890 [0x1A] CALL_SUBROUTINE(address=0x2B50)
232: 0x0893 [0x1C] WAIT(330* ticks)
233: 0x0896 [0x5B] LOAD_EXT_SCHEDULER: Load scheduler "tlb0" with entities [Lilisette (ID: 17719620/0x010E6144), Lilisette (ID: 17719620/0x010E6144)], work=2133*
234: 0x08A5 [0x2B] Lilisette (ID: 17719620/0x010E6144) [13717*]:
    → "<Player>, I trust I needn't tell you what our next course of action is."
235: 0x08AC [0x23] WAIT_FOR_DIALOG_INTERACTION
236: 0x08AD [0x1C] WAIT(30* ticks)
237: 0x08B0 [0x5B] LOAD_EXT_SCHEDULER: Load scheduler "tlb1" with entities [Lilisette (ID: 17719620/0x010E6144), Lilisette (ID: 17719620/0x010E6144)], work=2133*
238: 0x08BF [0x52] END_LOAD_SCHEDULER: End scheduler "sa20" with entities [LocalPlayer, LocalPlayer], work=439*
239: 0x08CE [0x45] LOAD_SCHEDULED_TASK: Load scheduler "sa22" with entities [LocalPlayer, LocalPlayer], work=[439*, 0*]
240: 0x08DF [0x6E] LocalPlayer uses emote 7*
241: 0x08E6 [0x99] Wait for LocalPlayer animation to complete
242: 0x08EB [0x1C] WAIT(90* ticks)
243: 0x08EE [0x53] WAIT_SCHEDULER_TASK: Wait for scheduler "tlb1" with entities [Lilisette (ID: 17719620/0x010E6144), Lilisette (ID: 17719620/0x010E6144)]
244: 0x08FB [0x7B] Lilisette (ID: 17719620/0x010E6144) stops talking
245: 0x0900 [0x5B] LOAD_EXT_SCHEDULER: Load scheduler "fd01" with entities [Lilisette (ID: 17719620/0x010E6144), Lilisette (ID: 17719620/0x010E6144)], work=2135*
246: 0x090F [0x5B] LOAD_EXT_SCHEDULER: Load scheduler "kia0" with entities [Lilisette (ID: 17719620/0x010E6144), Lilisette (ID: 17719620/0x010E6144)], work=2245*
247: 0x091E [0x1C] WAIT(30* ticks)
248: 0x0921 [0x52] END_LOAD_SCHEDULER: End scheduler "sa22" with entities [LocalPlayer, LocalPlayer], work=439*
249: 0x0930 [0x45] LOAD_SCHEDULED_TASK: Load scheduler "sa21" with entities [LocalPlayer, LocalPlayer], work=[439*, 0*]
250: 0x0941 [0x7B] Lilisette (ID: 17719620/0x010E6144) stops talking
251: 0x0946 [0x7C] Lilisette (ID: 17719620/0x010E6144)->Render.Flags2 |= 0x00
252: 0x094C [0x81] SET_ENTITY_BLINKING(blink_flag=0x00, entity=Lilisette (ID: 17719620/0x010E6144))
253: 0x0952 [0x2B] Lilisette (ID: 17719620/0x010E6144) [13718*]:
    → "Even extinction is no match for this tag-team duo! Whatever the task, and no matter the odds, Future Fabulous shall prevail! Heheheheheh..."
254: 0x0959 [0x23] WAIT_FOR_DIALOG_INTERACTION
255: 0x095A [0x53] WAIT_SCHEDULER_TASK: Wait for scheduler "kia0" with entities [Lilisette (ID: 17719620/0x010E6144), Lilisette (ID: 17719620/0x010E6144)]
256: 0x0967 [0x5B] LOAD_EXT_SCHEDULER: Load scheduler "fd00" with entities [Lilisette (ID: 17719620/0x010E6144), Lilisette (ID: 17719620/0x010E6144)], work=2135*
257: 0x0976 [0x7C] Lilisette (ID: 17719620/0x010E6144)->Render.Flags2 |= 0x01
258: 0x097C [0x81] SET_ENTITY_BLINKING(blink_flag=0x01, entity=Lilisette (ID: 17719620/0x010E6144))
259: 0x0982 [0x1C] WAIT(30* ticks)
260: 0x0985 [0x1A] CALL_SUBROUTINE(address=0x2B71)
261: 0x0988 [0x1C] WAIT(30* ticks)
262: 0x098B [0x52] END_LOAD_SCHEDULER: End scheduler "sa21" with entities [LocalPlayer, LocalPlayer], work=439*
263: 0x099A [0x6B] STOP_AND_IDLE: Lilisette (ID: 17719620/0x010E6144) stops current action and resets to idle (animation="idl0")
264: 0x09A3 [0x46] CAMERA_CONTROL: Restore default settings
265: 0x09A5 [0x45] LOAD_SCHEDULED_TASK: Load scheduler "fdi2" with entities [LocalPlayer, LocalPlayer], work=[200*, 0*]
266: 0x09B6 [0x21] END_EVENT
267: 0x09B7 [0x00] END_REQSTACK()
```

### Event 936

#### Metadata

| Field        | Value    |
|--------------|----------|
| Entrypoint   | 0x09B8   |
| Data Size    | 38 bytes |
| Instructions | 10       |

```
      00 01 02 03 04 05 06 07  08 09 0A 0B 0C 0D 0E 0F
      -- -- -- -- -- -- -- --  -- -- -- -- -- -- -- --
09B0:                          4A 1F 60 0E 01 F0 FF FF          J.`.....
09C0: 7F 6F 76 F0 FF FF 7F 03  02 10 29 80 2B 1F 60 0E  .ov.......).+.`.
09D0: 01 2A 80 23 2B 1F 60 0E  01 2F 80 23 21 00        .*.#+.`../.#!.  
```

#### Opcodes

```
  0: 0x09B8 [0x4A] Amaura (ID: 17719327/0x010E601F) looks at LocalPlayer
  1: 0x09C1 [0x6F] WAIT_FRAME_DELAY: Yield until WaitTime reaches zero
  2: 0x09C2 [0x76] CHECK_ENTITY_RENDER_FLAGS: Wait until LocalPlayer Render.Flags0 and Render.Flags3 conditions are met
  3: 0x09C7 [0x03] Work_Zone[2] = 1061*
  4: 0x09CC [0x2B] Amaura (ID: 17719327/0x010E601F) [13711*]:
    → "<Sigh>... The main ingredient, $3, can no longer be found."
  5: 0x09D3 [0x23] WAIT_FOR_DIALOG_INTERACTION
  6: 0x09D4 [0x2B] Amaura (ID: 17719327/0x010E601F) [13715*]:
    → "And to think that not a decade ago, the saplings from which the bulbs could be obtained were still as common as those pesky little hares out in Ronfaure..."
  7: 0x09DB [0x23] WAIT_FOR_DIALOG_INTERACTION
  8: 0x09DC [0x21] END_EVENT
  9: 0x09DD [0x00] END_REQSTACK()
```

### Event 937

#### Metadata

| Field        | Value      |
|--------------|------------|
| Entrypoint   | 0x09DE     |
| Data Size    | 2208 bytes |
| Instructions | 239        |

```
      00 01 02 03 04 05 06 07  08 09 0A 0B 0C 0D 0E 0F
      -- -- -- -- -- -- -- --  -- -- -- -- -- -- -- --
09D0:                                            42 1A                B.
09E0: 71 2B 46 01 38 00 80 92  01 44 61 0E 01 92 01 1F  q+F.8....Da.....
09F0: 60 0E 01 75 00 01 80 75  01 94 01 F0 FF FF 7F 94  `..u...u........
0A00: 01 44 61 0E 01 94 01 1F  60 0E 01 27 10 44 61 0E  .Da.....`..'.Da.
0A10: 01 09 4E 00 1F 60 0E 01  29 10 A4 60 0E 01 07 1C  ..N..`..)..`....
0A20: 02 80 BA F0 FF FF 7F 3E  80 3F 80 0B 80 40 80 BA  .......>.?...@..
0A30: 44 61 0E 01 41 80 42 80  0B 80 43 80 BA 1F 60 0E  Da..A.B...C...`.
0A40: 01 44 80 45 80 0B 80 46  80 80 F0 FF FF 7F 80 44  .D.E...F.......D
0A50: 61 0E 01 80 1F 60 0E 01  79 00 F0 FF FF 7F F0 FF  a....`..y.......
0A60: FF 7F 7B 44 61 0E 01 79  00 1F 60 0E 01 1F 60 0E  ..{Da..y..`...`.
0A70: 01 4A 44 61 0E 01 1F 60  0E 01 79 00 44 61 0E 01  .JDa...`..y.Da..
0A80: 1F 60 0E 01 4A F0 FF FF  7F 1F 60 0E 01 79 00 F0  .`..J.....`..y..
0A90: FF FF 7F 1F 60 0E 01 6F  76 F0 FF FF 7F 5B 16 80  ....`..ov....[..
0AA0: 1F 60 0E 01 1F 60 0E 01  74 6C 6B 30 1C 15 80 45  .`...`..tlk0...E
0AB0: 0E 80 F0 FF FF 7F F0 FF  FF 7F 73 62 30 30 0F 80  ..........sb00..
0AC0: 1A 50 2B 1C 13 80 03 02  10 2C 80 2B 1F 60 0E 01  .P+......,.+.`..
0AD0: 47 80 23 1C 13 80 52 0E  80 F0 FF FF 7F F0 FF FF  G.#...R.........
0AE0: 7F 73 62 30 30 45 0E 80  F0 FF FF 7F F0 FF FF 7F  .sb00E..........
0AF0: 73 62 30 32 0F 80 2B 1F  60 0E 01 48 80 23 5B 18  sb02..+.`..H.#[.
0B00: 80 44 61 0E 01 44 61 0E  01 66 64 30 31 5B 23 80  .Da..Da..fd01[#.
0B10: 44 61 0E 01 44 61 0E 01  68 64 62 30 1C 13 80 5B  Da..Da..hdb0...[
0B20: 16 80 1F 60 0E 01 1F 60  0E 01 74 6C 6B 31 52 0E  ...`...`..tlk1R.
0B30: 80 F0 FF FF 7F F0 FF FF  7F 73 62 30 32 45 0E 80  .........sb02E..
0B40: F0 FF FF 7F F0 FF FF 7F  73 62 30 33 0F 80 2B 44  ........sb03..+D
0B50: 61 0E 01 49 80 23 53 44  61 0E 01 44 61 0E 01 68  a..I.#SDa..Da..h
0B60: 64 62 30 5B 18 80 44 61  0E 01 44 61 0E 01 66 64  db0[..Da..Da..fd
0B70: 30 30 1C 13 80 52 0E 80  F0 FF FF 7F F0 FF FF 7F  00...R..........
0B80: 73 62 30 33 45 0E 80 F0  FF FF 7F F0 FF FF 7F 73  sb03E..........s
0B90: 62 30 34 0F 80 5B 18 80  44 61 0E 01 44 61 0E 01  b04..[..Da..Da..
0BA0: 66 30 30 30 5B 16 80 1F  60 0E 01 1F 60 0E 01 74  f000[...`...`..t
0BB0: 6C 6B 30 2B 1F 60 0E 01  4A 80 23 1C 13 80 52 0E  lk0+.`..J.#...R.
0BC0: 80 F0 FF FF 7F F0 FF FF  7F 73 62 30 34 45 0E 80  .........sb04E..
0BD0: F0 FF FF 7F F0 FF FF 7F  73 62 30 35 0F 80 2B 1F  ........sb05..+.
0BE0: 60 0E 01 4B 80 23 1C 13  80 5B 16 80 1F 60 0E 01  `..K.#...[...`..
0BF0: 1F 60 0E 01 74 6C 6B 31  52 0E 80 F0 FF FF 7F F0  .`..tlk1R.......
0C00: FF FF 7F 73 62 30 35 45  0E 80 F0 FF FF 7F F0 FF  ...sb05E........
0C10: FF 7F 73 62 30 36 0F 80  5B 18 80 44 61 0E 01 44  ..sb06..[..Da..D
0C20: 61 0E 01 66 67 30 31 5B  23 80 44 61 0E 01 44 61  a..fg01[#.Da..Da
0C30: 0E 01 68 64 62 31 2B 44  61 0E 01 4C 80 23 53 44  ..hdb1+Da..L.#SD
0C40: 61 0E 01 44 61 0E 01 68  64 62 31 5B 18 80 44 61  a..Da..hdb1[..Da
0C50: 0E 01 44 61 0E 01 66 67  30 30 1C 13 80 52 0E 80  ..Da..fg00...R..
0C60: F0 FF FF 7F F0 FF FF 7F  73 62 30 36 45 0E 80 F0  ........sb06E...
0C70: FF FF 7F F0 FF FF 7F 73  62 30 37 0F 80 5B 18 80  .......sb07..[..
0C80: 44 61 0E 01 44 61 0E 01  66 30 30 30 5B 16 80 1F  Da..Da..f000[...
0C90: 60 0E 01 1F 60 0E 01 74  6C 6B 30 2B 1F 60 0E 01  `...`..tlk0+.`..
0CA0: 4D 80 23 1C 13 80 52 0E  80 F0 FF FF 7F F0 FF FF  M.#...R.........
0CB0: 7F 73 62 30 37 45 0E 80  F0 FF FF 7F F0 FF FF 7F  .sb07E..........
0CC0: 73 62 30 38 0F 80 2B 1F  60 0E 01 4E 80 23 1C 13  sb08..+.`..N.#..
0CD0: 80 5B 16 80 1F 60 0E 01  1F 60 0E 01 74 6C 6B 31  .[...`...`..tlk1
0CE0: 52 0E 80 F0 FF FF 7F F0  FF FF 7F 73 62 30 38 45  R..........sb08E
0CF0: 0E 80 F0 FF FF 7F F0 FF  FF 7F 73 62 30 39 0F 80  ..........sb09..
0D00: 5B 4F 80 44 61 0E 01 44  61 0E 01 79 65 73 30 2B  [O.Da..Da..yes0+
0D10: 44 61 0E 01 50 80 23 1C  13 80 53 44 61 0E 01 44  Da..P.#...SDa..D
0D20: 61 0E 01 79 65 73 30 52  0E 80 F0 FF FF 7F F0 FF  a..yes0R........
0D30: FF 7F 73 62 30 39 45 0E  80 F0 FF FF 7F F0 FF FF  ..sb09E.........
0D40: 7F 73 62 31 30 0F 80 5B  16 80 1F 60 0E 01 1F 60  .sb10..[...`...`
0D50: 0E 01 74 68 6B 31 2B 1F  60 0E 01 51 80 23 53 1F  ..thk1+.`..Q.#S.
0D60: 60 0E 01 1F 60 0E 01 74  68 6B 31 1C 13 80 5B 16  `...`..thk1...[.
0D70: 80 1F 60 0E 01 1F 60 0E  01 74 68 6B 32 5B 18 80  ..`...`..thk2[..
0D80: 44 61 0E 01 44 61 0E 01  66 67 30 31 5B 19 80 44  Da..Da..fg01[..D
0D90: 61 0E 01 44 61 0E 01 6F  64 6F 30 1C 13 80 52 0E  a..Da..odo0...R.
0DA0: 80 F0 FF FF 7F F0 FF FF  7F 73 62 31 30 45 0E 80  .........sb10E..
0DB0: F0 FF FF 7F F0 FF FF 7F  73 62 31 31 0F 80 2B 44  ........sb11..+D
0DC0: 61 0E 01 52 80 23 53 44  61 0E 01 44 61 0E 01 6F  a..R.#SDa..Da..o
0DD0: 64 6F 30 5B 18 80 44 61  0E 01 44 61 0E 01 66 67  do0[..Da..Da..fg
0DE0: 30 30 1C 13 80 52 0E 80  F0 FF FF 7F F0 FF FF 7F  00...R..........
0DF0: 73 62 31 31 45 0E 80 F0  FF FF 7F F0 FF FF 7F 73  sb11E..........s
0E00: 62 32 31 0F 80 5B 23 80  44 61 0E 01 44 61 0E 01  b21..[#.Da..Da..
0E10: 75 74 75 30 1C 53 80 5B  16 80 1F 60 0E 01 1F 60  utu0.S.[...`...`
0E20: 0E 01 74 6C 6B 30 2B 1F  60 0E 01 54 80 23 1C 13  ..tlk0+.`..T.#..
0E30: 80 5B 16 80 1F 60 0E 01  1F 60 0E 01 74 6C 6B 31  .[...`...`..tlk1
0E40: 52 0E 80 F0 FF FF 7F F0  FF FF 7F 73 62 32 31 45  R..........sb21E
0E50: 0E 80 F0 FF FF 7F F0 FF  FF 7F 73 62 31 32 0F 80  ..........sb12..
0E60: 5B 18 80 44 61 0E 01 44  61 0E 01 66 68 30 30 5B  [..Da..Da..fh00[
0E70: 23 80 44 61 0E 01 44 61  0E 01 75 74 75 31 53 44  #.Da..Da..utu1SD
0E80: 61 0E 01 44 61 0E 01 75  74 75 31 5B 4F 80 44 61  a..Da..utu1[O.Da
0E90: 0E 01 44 61 0E 01 6E 6F  30 30 53 44 61 0E 01 44  ..Da..no00SDa..D
0EA0: 61 0E 01 6E 6F 30 30 1C  13 80 1A 71 2B 52 0E 80  a..no00....q+R..
0EB0: F0 FF FF 7F F0 FF FF 7F  73 62 31 32 5B 18 80 44  ........sb12[..D
0EC0: 61 0E 01 44 61 0E 01 66  30 30 30 1C 55 80 BA F0  a..Da..f000.U...
0ED0: FF FF 7F 56 80 57 80 58  80 59 80 BA 44 61 0E 01  ...V.W.X.Y..Da..
0EE0: 5A 80 5B 80 5C 80 59 80  79 00 F0 FF FF 7F F0 FF  Z.[.\.Y.y.......
0EF0: FF 7F 7B 44 61 0E 01 80  F0 FF FF 7F 80 44 61 0E  ..{Da........Da.
0F00: 01 27 10 44 61 0E 01 16  1C 0D 80 27 10 F0 FF FF  .'.Da......'....
0F10: 7F 90 45 0E 80 F0 FF FF  7F F0 FF FF 7F 73 62 31  ..E..........sb1
0F20: 33 0F 80 1A 50 2B 1C 53  80 52 0E 80 F0 FF FF 7F  3...P+.S.R......
0F30: F0 FF FF 7F 73 62 31 33  45 0E 80 F0 FF FF 7F F0  ....sb13E.......
0F40: FF FF 7F 73 62 31 34 0F  80 2A 10 44 61 0E 01 5B  ...sb14..*.Da..[
0F50: 5D 80 44 61 0E 01 44 61  0E 01 70 75 6C 30 2B 44  ].Da..Da..pul0+D
0F60: 61 0E 01 5E 80 23 1C 13  80 53 44 61 0E 01 44 61  a..^.#...SDa..Da
0F70: 0E 01 70 75 6C 30 79 00  44 61 0E 01 F0 FF FF 7F  ..pul0y.Da......
0F80: 4A 44 61 0E 01 F0 FF FF  7F 1C 5F 80 52 0E 80 F0  JDa......._.R...
0F90: FF FF 7F F0 FF FF 7F 73  62 31 34 45 0E 80 F0 FF  .......sb14E....
0FA0: FF 7F F0 FF FF 7F 73 62  31 35 0F 80 6F 76 44 61  ......sb15..ovDa
0FB0: 0E 01 5B 23 80 44 61 0E  01 44 61 0E 01 68 64 62  ..[#.Da..Da..hdb
0FC0: 30 2B 44 61 0E 01 60 80  23 53 44 61 0E 01 44 61  0+Da..`.#SDa..Da
0FD0: 0E 01 68 64 62 30 6E F0  FF FF 7F 61 80 99 F0 FF  ..hdb0n....a....
0FE0: FF 7F 1C 20 80 7B 44 61  0E 01 5B 23 80 44 61 0E  ... .{Da..[#.Da.
0FF0: 01 44 61 0E 01 68 64 62  31 52 0E 80 F0 FF FF 7F  .Da..hdb1R......
1000: F0 FF FF 7F 73 62 31 35  45 0E 80 F0 FF FF 7F F0  ....sb15E.......
1010: FF FF 7F 73 62 31 36 0F  80 53 44 61 0E 01 44 61  ...sb16..SDa..Da
1020: 0E 01 68 64 62 31 5B 18  80 44 61 0E 01 44 61 0E  ..hdb1[..Da..Da.
1030: 01 66 64 30 31 5B 3B 80  44 61 0E 01 44 61 0E 01  .fd01[;.Da..Da..
1040: 6B 69 61 30 1C 62 80 52  0E 80 F0 FF FF 7F F0 FF  kia0.b.R........
1050: FF 7F 73 62 31 36 45 0E  80 F0 FF FF 7F F0 FF FF  ..sb16E.........
1060: 7F 73 74 30 34 0F 80 7C  00 44 61 0E 01 81 00 44  .st04..|.Da....D
1070: 61 0E 01 2B 44 61 0E 01  63 80 23 53 44 61 0E 01  a..+Da..c.#SDa..
1080: 44 61 0E 01 6B 69 61 30  5B 18 80 44 61 0E 01 44  Da..kia0[..Da..D
1090: 61 0E 01 66 64 30 30 7C  01 44 61 0E 01 81 01 44  a..fd00|.Da....D
10A0: 61 0E 01 1C 13 80 52 0E  80 F0 FF FF 7F F0 FF FF  a.....R.........
10B0: 7F 73 74 30 34 45 0E 80  F0 FF FF 7F F0 FF FF 7F  .st04E..........
10C0: 73 62 31 37 0F 80 5B 18  80 44 61 0E 01 44 61 0E  sb17..[..Da..Da.
10D0: 01 66 30 30 30 5B 19 80  44 61 0E 01 44 61 0E 01  .f000[..Da..Da..
10E0: 74 68 61 30 2B 44 61 0E  01 64 80 23 53 44 61 0E  tha0+Da..d.#SDa.
10F0: 01 44 61 0E 01 74 68 61  30 1C 13 80 5B 19 80 44  .Da..tha0...[..D
1100: 61 0E 01 44 61 0E 01 74  68 61 31 52 0E 80 F0 FF  a..Da..tha1R....
1110: FF 7F F0 FF FF 7F 73 62  31 37 45 0E 80 F0 FF FF  ......sb17E.....
1120: 7F F0 FF FF 7F 73 62 31  38 0F 80 53 44 61 0E 01  .....sb18..SDa..
1130: 44 61 0E 01 74 68 61 31  79 00 44 61 0E 01 F0 FF  Da..tha1y.Da....
1140: FF 7F 5B 37 80 44 61 0E  01 44 61 0E 01 74 6C 62  ..[7.Da..Da..tlb
1150: 30 2B 44 61 0E 01 65 80  23 1C 13 80 5B 37 80 44  0+Da..e.#...[7.D
1160: 61 0E 01 44 61 0E 01 74  6C 62 31 6E F0 FF FF 7F  a..Da..tlb1n....
1170: 66 80 99 F0 FF FF 7F 1C  02 80 52 0E 80 F0 FF FF  f.........R.....
1180: 7F F0 FF FF 7F 73 62 31  38 45 0E 80 F0 FF FF 7F  .....sb18E......
1190: F0 FF FF 7F 73 62 31 39  0F 80 53 44 61 0E 01 44  ....sb19..SDa..D
11A0: 61 0E 01 74 6C 62 31 7B  44 61 0E 01 5B 19 80 44  a..tlb1{Da..[..D
11B0: 61 0E 01 44 61 0E 01 74  68 61 30 2B 44 61 0E 01  a..Da..tha0+Da..
11C0: 67 80 23 53 44 61 0E 01  44 61 0E 01 74 68 61 30  g.#SDa..Da..tha0
11D0: 1C 13 80 79 00 44 61 0E  01 F0 FF FF 7F 5B 19 80  ...y.Da......[..
11E0: 44 61 0E 01 44 61 0E 01  74 68 61 31 1C 13 80 52  Da..Da..tha1...R
11F0: 0E 80 F0 FF FF 7F F0 FF  FF 7F 73 62 31 39 45 0E  ..........sb19E.
1200: 80 F0 FF FF 7F F0 FF FF  7F 73 62 32 30 0F 80 53  .........sb20..S
1210: 44 61 0E 01 44 61 0E 01  74 68 61 31 5B 37 80 44  Da..Da..tha1[7.D
1220: 61 0E 01 44 61 0E 01 74  6C 62 30 2B 44 61 0E 01  a..Da..tlb0+Da..
1230: 68 80 23 1C 13 80 5B 37  80 44 61 0E 01 44 61 0E  h.#...[7.Da..Da.
1240: 01 74 6C 62 31 6E F0 FF  FF 7F 39 80 99 F0 FF FF  .tlb1n....9.....
1250: 7F 1C 11 80 1A 71 2B 1C  13 80 52 0E 80 F0 FF FF  .....q+...R.....
1260: 7F F0 FF FF 7F 73 62 32  30 46 00 45 3D 80 F0 FF  .....sb20F.E=...
1270: FF 7F F0 FF FF 7F 66 64  69 32 0F 80 21 00        ......fdi2..!.  
```

#### Opcodes

```
  0: 0x09DE [0x42] SET_CLI_EVENT_CANCEL_DATA()
  1: 0x09DF [0x1A] CALL_SUBROUTINE(address=0x2B71)
  2: 0x09E2 [0x46] CAMERA_CONTROL: Disable user control
  3: 0x09E4 [0x38] SET_CLIENT_EVENT_MODE(mode=19*)
  4: 0x09E7 [0x92] Lilisette (ID: 17719620/0x010E6144)->Render.Flags3 ^= 0x01
  5: 0x09ED [0x92] Amaura (ID: 17719327/0x010E601F)->Render.Flags3 ^= 0x01
  6: 0x09F3 [0x75] LOAD_ROOM(Load indoor room, room=342*)
  7: 0x09F7 [0x75] LOAD_ROOM(No action)
  8: 0x09F9 [0x94] LocalPlayer->Render.Flags3 ^= 0x01
  9: 0x09FF [0x94] Lilisette (ID: 17719620/0x010E6144)->Render.Flags3 ^= 0x01
 10: 0x0A05 [0x94] Amaura (ID: 17719327/0x010E601F)->Render.Flags3 ^= 0x01
 11: 0x0A0B [0x27] REQ_SET(priority=0x10, entity_id=Lilisette (ID: 17719620/0x010E6144), tag_num=0x09)
 12: 0x0A12 [0x4E] SET_ENTITY_HIDE_FLAG: Show Amaura (ID: 17719327/0x010E601F)
 13: 0x0A18 [0x29] REQ_SET_WAIT(priority=0x10, entity_id=Door:House (ID: 17719460/0x010E60A4), tag_num=0x07)
 14: 0x0A1F [0x1C] WAIT(180* ticks)
 15: 0x0A22 [0xBA] SET_ENTITY_POSITION(entity_id=LocalPlayer, pos_x=-90.699*, pos_z=88.537*, pos_y=-6.949*, direction=351.6°*)
 16: 0x0A2F [0xBA] SET_ENTITY_POSITION(entity_id=Lilisette (ID: 17719620/0x010E6144), pos_x=-88.860*, pos_z=87.618*, pos_y=-6.949*, direction=319.7°*)
 17: 0x0A3C [0xBA] SET_ENTITY_POSITION(entity_id=Amaura (ID: 17719327/0x010E601F), pos_x=-86.691*, pos_z=88.927*, pos_y=-6.949*, direction=149.4°*)
 18: 0x0A49 [0x80] LOAD_WAIT(entity=LocalPlayer)
 19: 0x0A4E [0x80] LOAD_WAIT(entity=Lilisette (ID: 17719620/0x010E6144))
 20: 0x0A53 [0x80] LOAD_WAIT(entity=Amaura (ID: 17719327/0x010E601F))
 21: 0x0A58 [0x79] LocalPlayer looks at LocalPlayer (Basic look)
 22: 0x0A62 [0x7B] Lilisette (ID: 17719620/0x010E6144) stops talking
 23: 0x0A67 [0x79] Amaura (ID: 17719327/0x010E601F) looks at Amaura (ID: 17719327/0x010E601F) (Basic look)
 24: 0x0A71 [0x4A] Lilisette (ID: 17719620/0x010E6144) looks at Amaura (ID: 17719327/0x010E601F)
 25: 0x0A7A [0x79] Lilisette (ID: 17719620/0x010E6144) looks at Amaura (ID: 17719327/0x010E601F) (Basic look)
 26: 0x0A84 [0x4A] LocalPlayer looks at Amaura (ID: 17719327/0x010E601F)
 27: 0x0A8D [0x79] LocalPlayer looks at Amaura (ID: 17719327/0x010E601F) (Basic look)
 28: 0x0A97 [0x6F] WAIT_FRAME_DELAY: Yield until WaitTime reaches zero
 29: 0x0A98 [0x76] CHECK_ENTITY_RENDER_FLAGS: Wait until LocalPlayer Render.Flags0 and Render.Flags3 conditions are met
 30: 0x0A9D [0x5B] LOAD_EXT_SCHEDULER: Load scheduler "tlk0" with entities [Amaura (ID: 17719327/0x010E601F), Amaura (ID: 17719327/0x010E601F)], work=35*
 31: 0x0AAC [0x1C] WAIT(60* ticks)
 32: 0x0AAF [0x45] LOAD_SCHEDULED_TASK: Load scheduler "sb00" with entities [LocalPlayer, LocalPlayer], work=[439*, 0*]
 33: 0x0AC0 [0x1A] CALL_SUBROUTINE(address=0x2B50)
 34: 0x0AC3 [0x1C] WAIT(30* ticks)
 35: 0x0AC6 [0x03] Work_Zone[2] = 2728*
 36: 0x0ACB [0x2B] Amaura (ID: 17719327/0x010E601F) [13719*]:
    → "My, my, be that $0 ye have there?"
 37: 0x0AD2 [0x23] WAIT_FOR_DIALOG_INTERACTION
 38: 0x0AD3 [0x1C] WAIT(30* ticks)
 39: 0x0AD6 [0x52] END_LOAD_SCHEDULER: End scheduler "sb00" with entities [LocalPlayer, LocalPlayer], work=439*
 40: 0x0AE5 [0x45] LOAD_SCHEDULED_TASK: Load scheduler "sb02" with entities [LocalPlayer, LocalPlayer], work=[439*, 0*]
 41: 0x0AF6 [0x2B] Amaura (ID: 17719327/0x010E601F) [13720*]:
    → "Why, I haven't seen one of these for... Actually, I can't remember when I last saw one. How did ye come by it?"
 42: 0x0AFD [0x23] WAIT_FOR_DIALOG_INTERACTION
 43: 0x0AFE [0x5B] LOAD_EXT_SCHEDULER: Load scheduler "fd01" with entities [Lilisette (ID: 17719620/0x010E6144), Lilisette (ID: 17719620/0x010E6144)], work=2135*
 44: 0x0B0D [0x5B] LOAD_EXT_SCHEDULER: Load scheduler "hdb0" with entities [Lilisette (ID: 17719620/0x010E6144), Lilisette (ID: 17719620/0x010E6144)], work=2128*
 45: 0x0B1C [0x1C] WAIT(30* ticks)
 46: 0x0B1F [0x5B] LOAD_EXT_SCHEDULER: Load scheduler "tlk1" with entities [Amaura (ID: 17719327/0x010E601F), Amaura (ID: 17719327/0x010E601F)], work=35*
 47: 0x0B2E [0x52] END_LOAD_SCHEDULER: End scheduler "sb02" with entities [LocalPlayer, LocalPlayer], work=439*
 48: 0x0B3D [0x45] LOAD_SCHEDULED_TASK: Load scheduler "sb03" with entities [LocalPlayer, LocalPlayer], work=[439*, 0*]
 49: 0x0B4E [0x2B] Lilisette (ID: 17719620/0x010E6144) [13721*]:
    → "This is what you said you wanted, right? Please, Amaura, I need the medicine as soon as--"
 50: 0x0B55 [0x23] WAIT_FOR_DIALOG_INTERACTION
 51: 0x0B56 [0x53] WAIT_SCHEDULER_TASK: Wait for scheduler "hdb0" with entities [Lilisette (ID: 17719620/0x010E6144), Lilisette (ID: 17719620/0x010E6144)]
 52: 0x0B63 [0x5B] LOAD_EXT_SCHEDULER: Load scheduler "fd00" with entities [Lilisette (ID: 17719620/0x010E6144), Lilisette (ID: 17719620/0x010E6144)], work=2135*
 53: 0x0B72 [0x1C] WAIT(30* ticks)
 54: 0x0B75 [0x52] END_LOAD_SCHEDULER: End scheduler "sb03" with entities [LocalPlayer, LocalPlayer], work=439*
 55: 0x0B84 [0x45] LOAD_SCHEDULED_TASK: Load scheduler "sb04" with entities [LocalPlayer, LocalPlayer], work=[439*, 0*]
 56: 0x0B95 [0x5B] LOAD_EXT_SCHEDULER: Load scheduler "f000" with entities [Lilisette (ID: 17719620/0x010E6144), Lilisette (ID: 17719620/0x010E6144)], work=2135*
 57: 0x0BA4 [0x5B] LOAD_EXT_SCHEDULER: Load scheduler "tlk0" with entities [Amaura (ID: 17719327/0x010E601F), Amaura (ID: 17719327/0x010E601F)], work=35*
 58: 0x0BB3 [0x2B] Amaura (ID: 17719327/0x010E601F) [13722*]:
    → "Ohoho, ever the impatient young Lilisette, I see. Ye never were one for waiting."
 59: 0x0BBA [0x23] WAIT_FOR_DIALOG_INTERACTION
 60: 0x0BBB [0x1C] WAIT(30* ticks)
 61: 0x0BBE [0x52] END_LOAD_SCHEDULER: End scheduler "sb04" with entities [LocalPlayer, LocalPlayer], work=439*
 62: 0x0BCD [0x45] LOAD_SCHEDULED_TASK: Load scheduler "sb05" with entities [LocalPlayer, LocalPlayer], work=[439*, 0*]
 63: 0x0BDE [0x2B] Amaura (ID: 17719327/0x010E601F) [13723*]:
    → "I hate to have to disappoint ye again, dearie, but the mature tree is what we need."
 64: 0x0BE5 [0x23] WAIT_FOR_DIALOG_INTERACTION
 65: 0x0BE6 [0x1C] WAIT(30* ticks)
 66: 0x0BE9 [0x5B] LOAD_EXT_SCHEDULER: Load scheduler "tlk1" with entities [Amaura (ID: 17719327/0x010E601F), Amaura (ID: 17719327/0x010E601F)], work=35*
 67: 0x0BF8 [0x52] END_LOAD_SCHEDULER: End scheduler "sb05" with entities [LocalPlayer, LocalPlayer], work=439*
 68: 0x0C07 [0x45] LOAD_SCHEDULED_TASK: Load scheduler "sb06" with entities [LocalPlayer, LocalPlayer], work=[439*, 0*]
 69: 0x0C18 [0x5B] LOAD_EXT_SCHEDULER: Load scheduler "fg01" with entities [Lilisette (ID: 17719620/0x010E6144), Lilisette (ID: 17719620/0x010E6144)], work=2135*
 70: 0x0C27 [0x5B] LOAD_EXT_SCHEDULER: Load scheduler "hdb1" with entities [Lilisette (ID: 17719620/0x010E6144), Lilisette (ID: 17719620/0x010E6144)], work=2128*
 71: 0x0C36 [0x2B] Lilisette (ID: 17719620/0x010E6144) [13724*]:
    → "What!?"
 72: 0x0C3D [0x23] WAIT_FOR_DIALOG_INTERACTION
 73: 0x0C3E [0x53] WAIT_SCHEDULER_TASK: Wait for scheduler "hdb1" with entities [Lilisette (ID: 17719620/0x010E6144), Lilisette (ID: 17719620/0x010E6144)]
 74: 0x0C4B [0x5B] LOAD_EXT_SCHEDULER: Load scheduler "fg00" with entities [Lilisette (ID: 17719620/0x010E6144), Lilisette (ID: 17719620/0x010E6144)], work=2135*
 75: 0x0C5A [0x1C] WAIT(30* ticks)
 76: 0x0C5D [0x52] END_LOAD_SCHEDULER: End scheduler "sb06" with entities [LocalPlayer, LocalPlayer], work=439*
 77: 0x0C6C [0x45] LOAD_SCHEDULED_TASK: Load scheduler "sb07" with entities [LocalPlayer, LocalPlayer], work=[439*, 0*]
 78: 0x0C7D [0x5B] LOAD_EXT_SCHEDULER: Load scheduler "f000" with entities [Lilisette (ID: 17719620/0x010E6144), Lilisette (ID: 17719620/0x010E6144)], work=2135*
 79: 0x0C8C [0x5B] LOAD_EXT_SCHEDULER: Load scheduler "tlk0" with entities [Amaura (ID: 17719327/0x010E601F), Amaura (ID: 17719327/0x010E601F)], work=35*
 80: 0x0C9B [0x2B] Amaura (ID: 17719327/0x010E601F) [13725*]:
    → "Try planting that bulb by the shore of an unspoilt lake."
 81: 0x0CA2 [0x23] WAIT_FOR_DIALOG_INTERACTION
 82: 0x0CA3 [0x1C] WAIT(30* ticks)
 83: 0x0CA6 [0x52] END_LOAD_SCHEDULER: End scheduler "sb07" with entities [LocalPlayer, LocalPlayer], work=439*
 84: 0x0CB5 [0x45] LOAD_SCHEDULED_TASK: Load scheduler "sb08" with entities [LocalPlayer, LocalPlayer], work=[439*, 0*]
 85: 0x0CC6 [0x2B] Amaura (ID: 17719327/0x010E601F) [13726*]:
    → "Once it has grown to maturity, ye'll find resin seeping out from the crack of ripened fruit. That resin, solidified, is what is needed to make our medicine."
 86: 0x0CCD [0x23] WAIT_FOR_DIALOG_INTERACTION
 87: 0x0CCE [0x1C] WAIT(30* ticks)
 88: 0x0CD1 [0x5B] LOAD_EXT_SCHEDULER: Load scheduler "tlk1" with entities [Amaura (ID: 17719327/0x010E601F), Amaura (ID: 17719327/0x010E601F)], work=35*
 89: 0x0CE0 [0x52] END_LOAD_SCHEDULER: End scheduler "sb08" with entities [LocalPlayer, LocalPlayer], work=439*
 90: 0x0CEF [0x45] LOAD_SCHEDULED_TASK: Load scheduler "sb09" with entities [LocalPlayer, LocalPlayer], work=[439*, 0*]
 91: 0x0D00 [0x5B] LOAD_EXT_SCHEDULER: Load scheduler "yes0" with entities [Lilisette (ID: 17719620/0x010E6144), Lilisette (ID: 17719620/0x010E6144)], work=2139*
 92: 0x0D0F [0x2B] Lilisette (ID: 17719620/0x010E6144) [13727*]:
    → "Alright... I'll do as you say..."
 93: 0x0D16 [0x23] WAIT_FOR_DIALOG_INTERACTION
 94: 0x0D17 [0x1C] WAIT(30* ticks)
 95: 0x0D1A [0x53] WAIT_SCHEDULER_TASK: Wait for scheduler "yes0" with entities [Lilisette (ID: 17719620/0x010E6144), Lilisette (ID: 17719620/0x010E6144)]
 96: 0x0D27 [0x52] END_LOAD_SCHEDULER: End scheduler "sb09" with entities [LocalPlayer, LocalPlayer], work=439*
 97: 0x0D36 [0x45] LOAD_SCHEDULED_TASK: Load scheduler "sb10" with entities [LocalPlayer, LocalPlayer], work=[439*, 0*]
 98: 0x0D47 [0x5B] LOAD_EXT_SCHEDULER: Load scheduler "thk1" with entities [Amaura (ID: 17719327/0x010E601F), Amaura (ID: 17719327/0x010E601F)], work=35*
 99: 0x0D56 [0x2B] Amaura (ID: 17719327/0x010E601F) [13728*]:
    → "Yes, yes, that's the spirit. Ye'll have something to look forward to ten, perhaps twenty, years from now."
100: 0x0D5D [0x23] WAIT_FOR_DIALOG_INTERACTION
101: 0x0D5E [0x53] WAIT_SCHEDULER_TASK: Wait for scheduler "thk1" with entities [Amaura (ID: 17719327/0x010E601F), Amaura (ID: 17719327/0x010E601F)]
102: 0x0D6B [0x1C] WAIT(30* ticks)
103: 0x0D6E [0x5B] LOAD_EXT_SCHEDULER: Load scheduler "thk2" with entities [Amaura (ID: 17719327/0x010E601F), Amaura (ID: 17719327/0x010E601F)], work=35*
104: 0x0D7D [0x5B] LOAD_EXT_SCHEDULER: Load scheduler "fg01" with entities [Lilisette (ID: 17719620/0x010E6144), Lilisette (ID: 17719620/0x010E6144)], work=2135*
105: 0x0D8C [0x5B] LOAD_EXT_SCHEDULER: Load scheduler "odo0" with entities [Lilisette (ID: 17719620/0x010E6144), Lilisette (ID: 17719620/0x010E6144)], work=2134*
106: 0x0D9B [0x1C] WAIT(30* ticks)
107: 0x0D9E [0x52] END_LOAD_SCHEDULER: End scheduler "sb10" with entities [LocalPlayer, LocalPlayer], work=439*
108: 0x0DAD [0x45] LOAD_SCHEDULED_TASK: Load scheduler "sb11" with entities [LocalPlayer, LocalPlayer], work=[439*, 0*]
109: 0x0DBE [0x2B] Lilisette (ID: 17719620/0x010E6144) [13729*]:
    → "What!?"
110: 0x0DC5 [0x23] WAIT_FOR_DIALOG_INTERACTION
111: 0x0DC6 [0x53] WAIT_SCHEDULER_TASK: Wait for scheduler "odo0" with entities [Lilisette (ID: 17719620/0x010E6144), Lilisette (ID: 17719620/0x010E6144)]
112: 0x0DD3 [0x5B] LOAD_EXT_SCHEDULER: Load scheduler "fg00" with entities [Lilisette (ID: 17719620/0x010E6144), Lilisette (ID: 17719620/0x010E6144)], work=2135*
113: 0x0DE2 [0x1C] WAIT(30* ticks)
114: 0x0DE5 [0x52] END_LOAD_SCHEDULER: End scheduler "sb11" with entities [LocalPlayer, LocalPlayer], work=439*
115: 0x0DF4 [0x45] LOAD_SCHEDULED_TASK: Load scheduler "sb21" with entities [LocalPlayer, LocalPlayer], work=[439*, 0*]
116: 0x0E05 [0x5B] LOAD_EXT_SCHEDULER: Load scheduler "utu0" with entities [Lilisette (ID: 17719620/0x010E6144), Lilisette (ID: 17719620/0x010E6144)], work=2128*
117: 0x0E14 [0x1C] WAIT(80* ticks)
118: 0x0E17 [0x5B] LOAD_EXT_SCHEDULER: Load scheduler "tlk0" with entities [Amaura (ID: 17719327/0x010E601F), Amaura (ID: 17719327/0x010E601F)], work=35*
119: 0x0E26 [0x2B] Amaura (ID: 17719327/0x010E601F) [13730*]:
    → "Ohoho, it seems I've developed a knack for disappointing ye!"
120: 0x0E2D [0x23] WAIT_FOR_DIALOG_INTERACTION
121: 0x0E2E [0x1C] WAIT(30* ticks)
122: 0x0E31 [0x5B] LOAD_EXT_SCHEDULER: Load scheduler "tlk1" with entities [Amaura (ID: 17719327/0x010E601F), Amaura (ID: 17719327/0x010E601F)], work=35*
123: 0x0E40 [0x52] END_LOAD_SCHEDULER: End scheduler "sb21" with entities [LocalPlayer, LocalPlayer], work=439*
124: 0x0E4F [0x45] LOAD_SCHEDULED_TASK: Load scheduler "sb12" with entities [LocalPlayer, LocalPlayer], work=[439*, 0*]
125: 0x0E60 [0x5B] LOAD_EXT_SCHEDULER: Load scheduler "fh00" with entities [Lilisette (ID: 17719620/0x010E6144), Lilisette (ID: 17719620/0x010E6144)], work=2135*
126: 0x0E6F [0x5B] LOAD_EXT_SCHEDULER: Load scheduler "utu1" with entities [Lilisette (ID: 17719620/0x010E6144), Lilisette (ID: 17719620/0x010E6144)], work=2128*
127: 0x0E7E [0x53] WAIT_SCHEDULER_TASK: Wait for scheduler "utu1" with entities [Lilisette (ID: 17719620/0x010E6144), Lilisette (ID: 17719620/0x010E6144)]
128: 0x0E8B [0x5B] LOAD_EXT_SCHEDULER: Load scheduler "no00" with entities [Lilisette (ID: 17719620/0x010E6144), Lilisette (ID: 17719620/0x010E6144)], work=2139*
129: 0x0E9A [0x53] WAIT_SCHEDULER_TASK: Wait for scheduler "no00" with entities [Lilisette (ID: 17719620/0x010E6144), Lilisette (ID: 17719620/0x010E6144)]
130: 0x0EA7 [0x1C] WAIT(30* ticks)
131: 0x0EAA [0x1A] CALL_SUBROUTINE(address=0x2B71)
132: 0x0EAD [0x52] END_LOAD_SCHEDULER: End scheduler "sb12" with entities [LocalPlayer, LocalPlayer], work=439*
133: 0x0EBC [0x5B] LOAD_EXT_SCHEDULER: Load scheduler "f000" with entities [Lilisette (ID: 17719620/0x010E6144), Lilisette (ID: 17719620/0x010E6144)], work=2135*
134: 0x0ECB [0x1C] WAIT(300* ticks)
135: 0x0ECE [0xBA] SET_ENTITY_POSITION(entity_id=LocalPlayer, pos_x=-97.177*, pos_z=83.098*, pos_y=-6.999*, direction=124.4°*)
136: 0x0EDB [0xBA] SET_ENTITY_POSITION(entity_id=Lilisette (ID: 17719620/0x010E6144), pos_x=-97.750*, pos_z=81.491*, pos_y=-6.398*, direction=124.4°*)
137: 0x0EE8 [0x79] LocalPlayer looks at LocalPlayer (Basic look)
138: 0x0EF2 [0x7B] Lilisette (ID: 17719620/0x010E6144) stops talking
139: 0x0EF7 [0x80] LOAD_WAIT(entity=LocalPlayer)
140: 0x0EFC [0x80] LOAD_WAIT(entity=Lilisette (ID: 17719620/0x010E6144))
141: 0x0F01 [0x27] REQ_SET(priority=0x10, entity_id=Lilisette (ID: 17719620/0x010E6144), tag_num=0x16)
142: 0x0F08 [0x1C] WAIT(20* ticks)
143: 0x0F0B [0x27] REQ_SET(priority=0x10, entity_id=LocalPlayer, tag_num=0x90)
144: 0x0F12 [0x45] LOAD_SCHEDULED_TASK: Load scheduler "sb13" with entities [LocalPlayer, LocalPlayer], work=[439*, 0*]
145: 0x0F23 [0x1A] CALL_SUBROUTINE(address=0x2B50)
146: 0x0F26 [0x1C] WAIT(80* ticks)
147: 0x0F29 [0x52] END_LOAD_SCHEDULER: End scheduler "sb13" with entities [LocalPlayer, LocalPlayer], work=439*
148: 0x0F38 [0x45] LOAD_SCHEDULED_TASK: Load scheduler "sb14" with entities [LocalPlayer, LocalPlayer], work=[439*, 0*]
149: 0x0F49 [0x2A] GET_REQ_LEVEL(level=16, entity_id=Lilisette (ID: 17719620/0x010E6144))
150: 0x0F4F [0x5B] LOAD_EXT_SCHEDULER: Load scheduler "pul0" with entities [Lilisette (ID: 17719620/0x010E6144), Lilisette (ID: 17719620/0x010E6144)], work=2147*
151: 0x0F5E [0x2B] Lilisette (ID: 17719620/0x010E6144) [13731*]:
    → "Grrr..."
152: 0x0F65 [0x23] WAIT_FOR_DIALOG_INTERACTION
153: 0x0F66 [0x1C] WAIT(30* ticks)
154: 0x0F69 [0x53] WAIT_SCHEDULER_TASK: Wait for scheduler "pul0" with entities [Lilisette (ID: 17719620/0x010E6144), Lilisette (ID: 17719620/0x010E6144)]
155: 0x0F76 [0x79] Lilisette (ID: 17719620/0x010E6144) looks at LocalPlayer (Basic look)
156: 0x0F80 [0x4A] Lilisette (ID: 17719620/0x010E6144) looks at LocalPlayer
157: 0x0F89 [0x1C] WAIT(40* ticks)
158: 0x0F8C [0x52] END_LOAD_SCHEDULER: End scheduler "sb14" with entities [LocalPlayer, LocalPlayer], work=439*
159: 0x0F9B [0x45] LOAD_SCHEDULED_TASK: Load scheduler "sb15" with entities [LocalPlayer, LocalPlayer], work=[439*, 0*]
160: 0x0FAC [0x6F] WAIT_FRAME_DELAY: Yield until WaitTime reaches zero
161: 0x0FAD [0x76] CHECK_ENTITY_RENDER_FLAGS: Wait until Lilisette (ID: 17719620/0x010E6144) Render.Flags0 and Render.Flags3 conditions are met
162: 0x0FB2 [0x5B] LOAD_EXT_SCHEDULER: Load scheduler "hdb0" with entities [Lilisette (ID: 17719620/0x010E6144), Lilisette (ID: 17719620/0x010E6144)], work=2128*
163: 0x0FC1 [0x2B] Lilisette (ID: 17719620/0x010E6144) [13732*]:
    → "Like I said: Whatever the task, and no matter the odds!"
164: 0x0FC8 [0x23] WAIT_FOR_DIALOG_INTERACTION
165: 0x0FC9 [0x53] WAIT_SCHEDULER_TASK: Wait for scheduler "hdb0" with entities [Lilisette (ID: 17719620/0x010E6144), Lilisette (ID: 17719620/0x010E6144)]
166: 0x0FD6 [0x6E] LocalPlayer uses emote 21*
167: 0x0FDD [0x99] Wait for LocalPlayer animation to complete
168: 0x0FE2 [0x1C] WAIT(15* ticks)
169: 0x0FE5 [0x7B] Lilisette (ID: 17719620/0x010E6144) stops talking
170: 0x0FEA [0x5B] LOAD_EXT_SCHEDULER: Load scheduler "hdb1" with entities [Lilisette (ID: 17719620/0x010E6144), Lilisette (ID: 17719620/0x010E6144)], work=2128*
171: 0x0FF9 [0x52] END_LOAD_SCHEDULER: End scheduler "sb15" with entities [LocalPlayer, LocalPlayer], work=439*
172: 0x1008 [0x45] LOAD_SCHEDULED_TASK: Load scheduler "sb16" with entities [LocalPlayer, LocalPlayer], work=[439*, 0*]
173: 0x1019 [0x53] WAIT_SCHEDULER_TASK: Wait for scheduler "hdb1" with entities [Lilisette (ID: 17719620/0x010E6144), Lilisette (ID: 17719620/0x010E6144)]
174: 0x1026 [0x5B] LOAD_EXT_SCHEDULER: Load scheduler "fd01" with entities [Lilisette (ID: 17719620/0x010E6144), Lilisette (ID: 17719620/0x010E6144)], work=2135*
175: 0x1035 [0x5B] LOAD_EXT_SCHEDULER: Load scheduler "kia0" with entities [Lilisette (ID: 17719620/0x010E6144), Lilisette (ID: 17719620/0x010E6144)], work=2245*
176: 0x1044 [0x1C] WAIT(70* ticks)
177: 0x1047 [0x52] END_LOAD_SCHEDULER: End scheduler "sb16" with entities [LocalPlayer, LocalPlayer], work=439*
178: 0x1056 [0x45] LOAD_SCHEDULED_TASK: Load scheduler "st04" with entities [LocalPlayer, LocalPlayer], work=[439*, 0*]
179: 0x1067 [0x7C] Lilisette (ID: 17719620/0x010E6144)->Render.Flags2 |= 0x00
180: 0x106D [0x81] SET_ENTITY_BLINKING(blink_flag=0x00, entity=Lilisette (ID: 17719620/0x010E6144))
181: 0x1073 [0x2B] Lilisette (ID: 17719620/0x010E6144) [13733*]:
    → "We'll plant this bulb and have it grow into a hulking tree in the blink of an eye...with moss and all!"
182: 0x107A [0x23] WAIT_FOR_DIALOG_INTERACTION
183: 0x107B [0x53] WAIT_SCHEDULER_TASK: Wait for scheduler "kia0" with entities [Lilisette (ID: 17719620/0x010E6144), Lilisette (ID: 17719620/0x010E6144)]
184: 0x1088 [0x5B] LOAD_EXT_SCHEDULER: Load scheduler "fd00" with entities [Lilisette (ID: 17719620/0x010E6144), Lilisette (ID: 17719620/0x010E6144)], work=2135*
185: 0x1097 [0x7C] Lilisette (ID: 17719620/0x010E6144)->Render.Flags2 |= 0x01
186: 0x109D [0x81] SET_ENTITY_BLINKING(blink_flag=0x01, entity=Lilisette (ID: 17719620/0x010E6144))
187: 0x10A3 [0x1C] WAIT(30* ticks)
188: 0x10A6 [0x52] END_LOAD_SCHEDULER: End scheduler "st04" with entities [LocalPlayer, LocalPlayer], work=439*
189: 0x10B5 [0x45] LOAD_SCHEDULED_TASK: Load scheduler "sb17" with entities [LocalPlayer, LocalPlayer], work=[439*, 0*]
190: 0x10C6 [0x5B] LOAD_EXT_SCHEDULER: Load scheduler "f000" with entities [Lilisette (ID: 17719620/0x010E6144), Lilisette (ID: 17719620/0x010E6144)], work=2135*
191: 0x10D5 [0x5B] LOAD_EXT_SCHEDULER: Load scheduler "tha0" with entities [Lilisette (ID: 17719620/0x010E6144), Lilisette (ID: 17719620/0x010E6144)], work=2134*
192: 0x10E4 [0x2B] Lilisette (ID: 17719620/0x010E6144) [13734*]:
    → "Now, we just need to find an unspoilt lake..."
193: 0x10EB [0x23] WAIT_FOR_DIALOG_INTERACTION
194: 0x10EC [0x53] WAIT_SCHEDULER_TASK: Wait for scheduler "tha0" with entities [Lilisette (ID: 17719620/0x010E6144), Lilisette (ID: 17719620/0x010E6144)]
195: 0x10F9 [0x1C] WAIT(30* ticks)
196: 0x10FC [0x5B] LOAD_EXT_SCHEDULER: Load scheduler "tha1" with entities [Lilisette (ID: 17719620/0x010E6144), Lilisette (ID: 17719620/0x010E6144)], work=2134*
197: 0x110B [0x52] END_LOAD_SCHEDULER: End scheduler "sb17" with entities [LocalPlayer, LocalPlayer], work=439*
198: 0x111A [0x45] LOAD_SCHEDULED_TASK: Load scheduler "sb18" with entities [LocalPlayer, LocalPlayer], work=[439*, 0*]
199: 0x112B [0x53] WAIT_SCHEDULER_TASK: Wait for scheduler "tha1" with entities [Lilisette (ID: 17719620/0x010E6144), Lilisette (ID: 17719620/0x010E6144)]
200: 0x1138 [0x79] Lilisette (ID: 17719620/0x010E6144) looks at LocalPlayer (Basic look)
201: 0x1142 [0x5B] LOAD_EXT_SCHEDULER: Load scheduler "tlb0" with entities [Lilisette (ID: 17719620/0x010E6144), Lilisette (ID: 17719620/0x010E6144)], work=2133*
202: 0x1151 [0x2B] Lilisette (ID: 17719620/0x010E6144) [13735*]:
    → "<Player>, do you know of such a place? I must confess, my geographic knowledge is sorely wanting."
203: 0x1158 [0x23] WAIT_FOR_DIALOG_INTERACTION
204: 0x1159 [0x1C] WAIT(30* ticks)
205: 0x115C [0x5B] LOAD_EXT_SCHEDULER: Load scheduler "tlb1" with entities [Lilisette (ID: 17719620/0x010E6144), Lilisette (ID: 17719620/0x010E6144)], work=2133*
206: 0x116B [0x6E] LocalPlayer uses emote 22*
207: 0x1172 [0x99] Wait for LocalPlayer animation to complete
208: 0x1177 [0x1C] WAIT(180* ticks)
209: 0x117A [0x52] END_LOAD_SCHEDULER: End scheduler "sb18" with entities [LocalPlayer, LocalPlayer], work=439*
210: 0x1189 [0x45] LOAD_SCHEDULED_TASK: Load scheduler "sb19" with entities [LocalPlayer, LocalPlayer], work=[439*, 0*]
211: 0x119A [0x53] WAIT_SCHEDULER_TASK: Wait for scheduler "tlb1" with entities [Lilisette (ID: 17719620/0x010E6144), Lilisette (ID: 17719620/0x010E6144)]
212: 0x11A7 [0x7B] Lilisette (ID: 17719620/0x010E6144) stops talking
213: 0x11AC [0x5B] LOAD_EXT_SCHEDULER: Load scheduler "tha0" with entities [Lilisette (ID: 17719620/0x010E6144), Lilisette (ID: 17719620/0x010E6144)], work=2134*
214: 0x11BB [0x2B] Lilisette (ID: 17719620/0x010E6144) [13736*]:
    → "You, on the other hand, seem to be quite well-traveled and familiar with the lay of the land."
215: 0x11C2 [0x23] WAIT_FOR_DIALOG_INTERACTION
216: 0x11C3 [0x53] WAIT_SCHEDULER_TASK: Wait for scheduler "tha0" with entities [Lilisette (ID: 17719620/0x010E6144), Lilisette (ID: 17719620/0x010E6144)]
217: 0x11D0 [0x1C] WAIT(30* ticks)
218: 0x11D3 [0x79] Lilisette (ID: 17719620/0x010E6144) looks at LocalPlayer (Basic look)
219: 0x11DD [0x5B] LOAD_EXT_SCHEDULER: Load scheduler "tha1" with entities [Lilisette (ID: 17719620/0x010E6144), Lilisette (ID: 17719620/0x010E6144)], work=2134*
220: 0x11EC [0x1C] WAIT(30* ticks)
221: 0x11EF [0x52] END_LOAD_SCHEDULER: End scheduler "sb19" with entities [LocalPlayer, LocalPlayer], work=439*
222: 0x11FE [0x45] LOAD_SCHEDULED_TASK: Load scheduler "sb20" with entities [LocalPlayer, LocalPlayer], work=[439*, 0*]
223: 0x120F [0x53] WAIT_SCHEDULER_TASK: Wait for scheduler "tha1" with entities [Lilisette (ID: 17719620/0x010E6144), Lilisette (ID: 17719620/0x010E6144)]
224: 0x121C [0x5B] LOAD_EXT_SCHEDULER: Load scheduler "tlb0" with entities [Lilisette (ID: 17719620/0x010E6144), Lilisette (ID: 17719620/0x010E6144)], work=2133*
225: 0x122B [0x2B] Lilisette (ID: 17719620/0x010E6144) [13737*]:
    → "Hehe, this is what this tag-team duo is all about--making up for each other's shortcomings! Alright then, after you, [mister/miss] geography expert!"
226: 0x1232 [0x23] WAIT_FOR_DIALOG_INTERACTION
227: 0x1233 [0x1C] WAIT(30* ticks)
228: 0x1236 [0x5B] LOAD_EXT_SCHEDULER: Load scheduler "tlb1" with entities [Lilisette (ID: 17719620/0x010E6144), Lilisette (ID: 17719620/0x010E6144)], work=2133*
229: 0x1245 [0x6E] LocalPlayer uses emote 7*
230: 0x124C [0x99] Wait for LocalPlayer animation to complete
231: 0x1251 [0x1C] WAIT(120* ticks)
232: 0x1254 [0x1A] CALL_SUBROUTINE(address=0x2B71)
233: 0x1257 [0x1C] WAIT(30* ticks)
234: 0x125A [0x52] END_LOAD_SCHEDULER: End scheduler "sb20" with entities [LocalPlayer, LocalPlayer], work=439*
235: 0x1269 [0x46] CAMERA_CONTROL: Restore default settings
236: 0x126B [0x45] LOAD_SCHEDULED_TASK: Load scheduler "fdi2" with entities [LocalPlayer, LocalPlayer], work=[200*, 0*]
237: 0x127C [0x21] END_EVENT
238: 0x127D [0x00] END_REQSTACK()
```

### Event 938

#### Metadata

| Field        | Value    |
|--------------|----------|
| Entrypoint   | 0x127E   |
| Data Size    | 52 bytes |
| Instructions | 14       |

```
      00 01 02 03 04 05 06 07  08 09 0A 0B 0C 0D 0E 0F
      -- -- -- -- -- -- -- --  -- -- -- -- -- -- -- --
1270:                                            4A 1F                J.
1280: 60 0E 01 F0 FF FF 7F 6F  76 F0 FF FF 7F 2B 1F 60  `......ov....+.`
1290: 0E 01 4D 80 23 2B 1F 60  0E 01 4E 80 23 2B 1F 60  ..M.#+.`..N.#+.`
12A0: 0E 01 51 80 23 1C 11 80  2B 1F 60 0E 01 54 80 23  ..Q.#...+.`..T.#
12B0: 21 00                                             !.              
```

#### Opcodes

```
  0: 0x127E [0x4A] Amaura (ID: 17719327/0x010E601F) looks at LocalPlayer
  1: 0x1287 [0x6F] WAIT_FRAME_DELAY: Yield until WaitTime reaches zero
  2: 0x1288 [0x76] CHECK_ENTITY_RENDER_FLAGS: Wait until LocalPlayer Render.Flags0 and Render.Flags3 conditions are met
  3: 0x128D [0x2B] Amaura (ID: 17719327/0x010E601F) [13725*]:
    → "Try planting that bulb by the shore of an unspoilt lake."
  4: 0x1294 [0x23] WAIT_FOR_DIALOG_INTERACTION
  5: 0x1295 [0x2B] Amaura (ID: 17719327/0x010E601F) [13726*]:
    → "Once it has grown to maturity, ye'll find resin seeping out from the crack of ripened fruit. That resin, solidified, is what is needed to make our medicine."
  6: 0x129C [0x23] WAIT_FOR_DIALOG_INTERACTION
  7: 0x129D [0x2B] Amaura (ID: 17719327/0x010E601F) [13728*]:
    → "Yes, yes, that's the spirit. Ye'll have something to look forward to ten, perhaps twenty, years from now."
  8: 0x12A4 [0x23] WAIT_FOR_DIALOG_INTERACTION
  9: 0x12A5 [0x1C] WAIT(120* ticks)
 10: 0x12A8 [0x2B] Amaura (ID: 17719327/0x010E601F) [13730*]:
    → "Ohoho, it seems I've developed a knack for disappointing ye!"
 11: 0x12AF [0x23] WAIT_FOR_DIALOG_INTERACTION
 12: 0x12B0 [0x21] END_EVENT
 13: 0x12B1 [0x00] END_REQSTACK()
```

### Event 939

#### Metadata

| Field        | Value     |
|--------------|-----------|
| Entrypoint   | 0x12B2    |
| Data Size    | 867 bytes |
| Instructions | 107       |

```
      00 01 02 03 04 05 06 07  08 09 0A 0B 0C 0D 0E 0F
      -- -- -- -- -- -- -- --  -- -- -- -- -- -- -- --
12B0:       42 1A 71 2B 46 01  38 00 80 92 01 44 61 0E    B.q+F.8....Da.
12C0: 01 92 01 1F 60 0E 01 75  00 01 80 75 01 94 01 F0  ....`..u...u....
12D0: FF FF 7F 94 01 44 61 0E  01 94 01 1F 60 0E 01 27  .....Da.....`..'
12E0: 10 44 61 0E 01 09 4E 00  1F 60 0E 01 29 10 A4 60  .Da...N..`..)..`
12F0: 0E 01 07 1C 02 80 BA F0  FF FF 7F 69 80 6A 80 05  ...........i.j..
1300: 80 43 80 BA 44 61 0E 01  6B 80 6C 80 6D 80 43 80  .C..Da..k.l.m.C.
1310: BA 1F 60 0E 01 09 80 0A  80 0B 80 0C 80 80 F0 FF  ..`.............
1320: FF 7F 80 44 61 0E 01 80  1F 60 0E 01 79 00 F0 FF  ...Da....`..y...
1330: FF 7F F0 FF FF 7F 7B 44  61 0E 01 79 00 1F 60 0E  ......{Da..y..`.
1340: 01 1F 60 0E 01 27 10 45  61 0E 01 09 1C 20 80 27  ..`..'.Ea.... .'
1350: 10 F0 FF FF 7F 91 27 10  A4 60 0E 01 06 45 0E 80  ......'..`...E..
1360: F0 FF FF 7F F0 FF FF 7F  73 63 30 30 0F 80 1A 50  ........sc00...P
1370: 2B 1C 10 80 52 0E 80 F0  FF FF 7F F0 FF FF 7F 73  +...R..........s
1380: 63 30 30 45 0E 80 F0 FF  FF 7F F0 FF FF 7F 73 63  c00E..........sc
1390: 30 38 0F 80 1C 10 80 52  0E 80 F0 FF FF 7F F0 FF  08.....R........
13A0: FF 7F 73 63 30 38 45 0E  80 F0 FF FF 7F F0 FF FF  ..sc08E.........
13B0: 7F 73 63 30 31 0F 80 2A  10 45 61 0E 01 27 10 A4  .sc01..*.Ea..'..
13C0: 60 0E 01 07 79 00 44 61  0E 01 1F 60 0E 01 4A 44  `...y.Da...`..JD
13D0: 61 0E 01 1F 60 0E 01 6F  76 44 61 0E 01 5B 23 80  a...`..ovDa..[#.
13E0: 44 61 0E 01 44 61 0E 01  68 64 62 30 2B 44 61 0E  Da..Da..hdb0+Da.
13F0: 01 6E 80 23 1C 13 80 52  0E 80 F0 FF FF 7F F0 FF  .n.#...R........
1400: FF 7F 73 63 30 31 45 0E  80 F0 FF FF 7F F0 FF FF  ..sc01E.........
1410: 7F 73 63 30 32 0F 80 4B  1F 60 0E 01 46 80 79 00  .sc02..K.`..F.y.
1420: 1F 60 0E 01 44 61 0E 01  6F 76 1F 60 0E 01 27 10  .`..Da..ov.`..'.
1430: 1F 60 0E 01 13 2B 1F 60  0E 01 6F 80 23 1C 13 80  .`...+.`..o.#...
1440: 2A 10 1F 60 0E 01 52 0E  80 F0 FF FF 7F F0 FF FF  *..`..R.........
1450: 7F 73 63 30 32 45 0E 80  F0 FF FF 7F F0 FF FF 7F  .sc02E..........
1460: 73 63 30 33 0F 80 1C 16  80 5B 16 80 1F 60 0E 01  sc03.....[...`..
1470: 1F 60 0E 01 74 6C 6B 30  03 02 10 29 80 2B 1F 60  .`..tlk0...).+.`
1480: 0E 01 70 80 23 1C 13 80  5B 23 80 44 61 0E 01 44  ..p.#...[#.Da..D
1490: 61 0E 01 68 64 62 31 52  0E 80 F0 FF FF 7F F0 FF  a..hdb1R........
14A0: FF 7F 73 63 30 33 45 0E  80 F0 FF FF 7F F0 FF FF  ..sc03E.........
14B0: 7F 73 63 30 34 0F 80 2B  1F 60 0E 01 71 80 23 5B  .sc04..+.`..q.#[
14C0: 18 80 44 61 0E 01 44 61  0E 01 66 64 30 31 1C 13  ..Da..Da..fd01..
14D0: 80 5B 16 80 1F 60 0E 01  1F 60 0E 01 74 6C 6B 31  .[...`...`..tlk1
14E0: 52 0E 80 F0 FF FF 7F F0  FF FF 7F 73 63 30 34 45  R..........sc04E
14F0: 0E 80 F0 FF FF 7F F0 FF  FF 7F 73 63 30 35 0F 80  ..........sc05..
1500: 7B 44 61 0E 01 27 10 45  61 0E 01 0A 2B 44 61 0E  {Da..'.Ea...+Da.
1510: 01 72 80 23 2A 10 45 61  0E 01 5B 18 80 44 61 0E  .r.#*.Ea..[..Da.
1520: 01 44 61 0E 01 66 64 30  30 1C 13 80 52 0E 80 F0  .Da..fd00...R...
1530: FF FF 7F F0 FF FF 7F 73  63 30 35 45 0E 80 F0 FF  .......sc05E....
1540: FF 7F F0 FF FF 7F 73 63  30 36 0F 80 5B 16 80 1F  ......sc06..[...
1550: 60 0E 01 1F 60 0E 01 74  6C 6B 30 2B 1F 60 0E 01  `...`..tlk0+.`..
1560: 73 80 23 1C 13 80 5B 16  80 1F 60 0E 01 1F 60 0E  s.#...[...`...`.
1570: 01 74 6C 6B 31 52 0E 80  F0 FF FF 7F F0 FF FF 7F  .tlk1R..........
1580: 73 63 30 36 45 0E 80 F0  FF FF 7F F0 FF FF 7F 73  sc06E..........s
1590: 63 30 37 0F 80 5B 74 80  44 61 0E 01 44 61 0E 01  c07..[t.Da..Da..
15A0: 61 61 6E 31 6E F0 FF FF  7F 75 80 99 F0 FF FF 7F  aan1n....u......
15B0: 53 1F 60 0E 01 1F 60 0E  01 74 6C 6B 31 27 10 1F  S.`...`..tlk1'..
15C0: 60 0E 01 14 1C 53 80 1A  71 2B 1C 13 80 52 0E 80  `....S..q+...R..
15D0: F0 FF FF 7F F0 FF FF 7F  73 63 30 37 5B 18 80 44  ........sc07[..D
15E0: 61 0E 01 44 61 0E 01 66  30 30 30 5B 23 80 44 61  a..Da..f000[#.Da
15F0: 0E 01 44 61 0E 01 68 64  62 31 2A 10 1F 60 0E 01  ..Da..hdb1*..`..
1600: 46 00 45 3D 80 F0 FF FF  7F F0 FF FF 7F 66 64 69  F.E=.........fdi
1610: 32 0F 80 21 00                                    2..!.           
```

#### Opcodes

```
  0: 0x12B2 [0x42] SET_CLI_EVENT_CANCEL_DATA()
  1: 0x12B3 [0x1A] CALL_SUBROUTINE(address=0x2B71)
  2: 0x12B6 [0x46] CAMERA_CONTROL: Disable user control
  3: 0x12B8 [0x38] SET_CLIENT_EVENT_MODE(mode=19*)
  4: 0x12BB [0x92] Lilisette (ID: 17719620/0x010E6144)->Render.Flags3 ^= 0x01
  5: 0x12C1 [0x92] Amaura (ID: 17719327/0x010E601F)->Render.Flags3 ^= 0x01
  6: 0x12C7 [0x75] LOAD_ROOM(Load indoor room, room=342*)
  7: 0x12CB [0x75] LOAD_ROOM(No action)
  8: 0x12CD [0x94] LocalPlayer->Render.Flags3 ^= 0x01
  9: 0x12D3 [0x94] Lilisette (ID: 17719620/0x010E6144)->Render.Flags3 ^= 0x01
 10: 0x12D9 [0x94] Amaura (ID: 17719327/0x010E601F)->Render.Flags3 ^= 0x01
 11: 0x12DF [0x27] REQ_SET(priority=0x10, entity_id=Lilisette (ID: 17719620/0x010E6144), tag_num=0x09)
 12: 0x12E6 [0x4E] SET_ENTITY_HIDE_FLAG: Show Amaura (ID: 17719327/0x010E601F)
 13: 0x12EC [0x29] REQ_SET_WAIT(priority=0x10, entity_id=Door:House (ID: 17719460/0x010E60A4), tag_num=0x07)
 14: 0x12F3 [0x1C] WAIT(180* ticks)
 15: 0x12F6 [0xBA] SET_ENTITY_POSITION(entity_id=LocalPlayer, pos_x=-101.171*, pos_z=78.788*, pos_y=-6.000*, direction=319.7°*)
 16: 0x1303 [0xBA] SET_ENTITY_POSITION(entity_id=Lilisette (ID: 17719620/0x010E6144), pos_x=-98.302*, pos_z=81.644*, pos_y=-6.199*, direction=319.7°*)
 17: 0x1310 [0xBA] SET_ENTITY_POSITION(entity_id=Amaura (ID: 17719327/0x010E601F), pos_x=-84.917*, pos_z=90.604*, pos_y=-6.949*, direction=310.7°*)
 18: 0x131D [0x80] LOAD_WAIT(entity=LocalPlayer)
 19: 0x1322 [0x80] LOAD_WAIT(entity=Lilisette (ID: 17719620/0x010E6144))
 20: 0x1327 [0x80] LOAD_WAIT(entity=Amaura (ID: 17719327/0x010E601F))
 21: 0x132C [0x79] LocalPlayer looks at LocalPlayer (Basic look)
 22: 0x1336 [0x7B] Lilisette (ID: 17719620/0x010E6144) stops talking
 23: 0x133B [0x79] Amaura (ID: 17719327/0x010E601F) looks at Amaura (ID: 17719327/0x010E601F) (Basic look)
 24: 0x1345 [0x27] REQ_SET(priority=0x10, entity_id=??? (ID: 17719621/0x010E6145), tag_num=0x09)
 25: 0x134C [0x1C] WAIT(15* ticks)
 26: 0x134F [0x27] REQ_SET(priority=0x10, entity_id=LocalPlayer, tag_num=0x91)
 27: 0x1356 [0x27] REQ_SET(priority=0x10, entity_id=Door:House (ID: 17719460/0x010E60A4), tag_num=0x06)
 28: 0x135D [0x45] LOAD_SCHEDULED_TASK: Load scheduler "sc00" with entities [LocalPlayer, LocalPlayer], work=[439*, 0*]
 29: 0x136E [0x1A] CALL_SUBROUTINE(address=0x2B50)
 30: 0x1371 [0x1C] WAIT(50* ticks)
 31: 0x1374 [0x52] END_LOAD_SCHEDULER: End scheduler "sc00" with entities [LocalPlayer, LocalPlayer], work=439*
 32: 0x1383 [0x45] LOAD_SCHEDULED_TASK: Load scheduler "sc08" with entities [LocalPlayer, LocalPlayer], work=[439*, 0*]
 33: 0x1394 [0x1C] WAIT(50* ticks)
 34: 0x1397 [0x52] END_LOAD_SCHEDULER: End scheduler "sc08" with entities [LocalPlayer, LocalPlayer], work=439*
 35: 0x13A6 [0x45] LOAD_SCHEDULED_TASK: Load scheduler "sc01" with entities [LocalPlayer, LocalPlayer], work=[439*, 0*]
 36: 0x13B7 [0x2A] GET_REQ_LEVEL(level=16, entity_id=??? (ID: 17719621/0x010E6145))
 37: 0x13BD [0x27] REQ_SET(priority=0x10, entity_id=Door:House (ID: 17719460/0x010E60A4), tag_num=0x07)
 38: 0x13C4 [0x79] Lilisette (ID: 17719620/0x010E6144) looks at Amaura (ID: 17719327/0x010E601F) (Basic look)
 39: 0x13CE [0x4A] Lilisette (ID: 17719620/0x010E6144) looks at Amaura (ID: 17719327/0x010E601F)
 40: 0x13D7 [0x6F] WAIT_FRAME_DELAY: Yield until WaitTime reaches zero
 41: 0x13D8 [0x76] CHECK_ENTITY_RENDER_FLAGS: Wait until Lilisette (ID: 17719620/0x010E6144) Render.Flags0 and Render.Flags3 conditions are met
 42: 0x13DD [0x5B] LOAD_EXT_SCHEDULER: Load scheduler "hdb0" with entities [Lilisette (ID: 17719620/0x010E6144), Lilisette (ID: 17719620/0x010E6144)], work=2128*
 43: 0x13EC [0x2B] Lilisette (ID: 17719620/0x010E6144) [13738*]:
    → "Amaura! We have it!"
 44: 0x13F3 [0x23] WAIT_FOR_DIALOG_INTERACTION
 45: 0x13F4 [0x1C] WAIT(30* ticks)
 46: 0x13F7 [0x52] END_LOAD_SCHEDULER: End scheduler "sc01" with entities [LocalPlayer, LocalPlayer], work=439*
 47: 0x1406 [0x45] LOAD_SCHEDULED_TASK: Load scheduler "sc02" with entities [LocalPlayer, LocalPlayer], work=[439*, 0*]
 48: 0x1417 [0x4B] UPDATE_ENTITY_YAW(entity=Amaura (ID: 17719327/0x010E601F), yaw=9.3°*)
 49: 0x141E [0x79] Amaura (ID: 17719327/0x010E601F) looks at Lilisette (ID: 17719620/0x010E6144) (Basic look)
 50: 0x1428 [0x6F] WAIT_FRAME_DELAY: Yield until WaitTime reaches zero
 51: 0x1429 [0x76] CHECK_ENTITY_RENDER_FLAGS: Wait until Amaura (ID: 17719327/0x010E601F) Render.Flags0 and Render.Flags3 conditions are met
 52: 0x142E [0x27] REQ_SET(priority=0x10, entity_id=Amaura (ID: 17719327/0x010E601F), tag_num=0x13)
 53: 0x1435 [0x2B] Amaura (ID: 17719327/0x010E601F) [13739*]:
    → "Eh? What's the ruckus? Is the house on fire?"
 54: 0x143C [0x23] WAIT_FOR_DIALOG_INTERACTION
 55: 0x143D [0x1C] WAIT(30* ticks)
 56: 0x1440 [0x2A] GET_REQ_LEVEL(level=16, entity_id=Amaura (ID: 17719327/0x010E601F))
 57: 0x1446 [0x52] END_LOAD_SCHEDULER: End scheduler "sc02" with entities [LocalPlayer, LocalPlayer], work=439*
 58: 0x1455 [0x45] LOAD_SCHEDULED_TASK: Load scheduler "sc03" with entities [LocalPlayer, LocalPlayer], work=[439*, 0*]
 59: 0x1466 [0x1C] WAIT(35* ticks)
 60: 0x1469 [0x5B] LOAD_EXT_SCHEDULER: Load scheduler "tlk0" with entities [Amaura (ID: 17719327/0x010E601F), Amaura (ID: 17719327/0x010E601F)], work=35*
 61: 0x1478 [0x03] Work_Zone[2] = 1061*
 62: 0x147D [0x2B] Amaura (ID: 17719327/0x010E601F) [13740*]:
    → "G-good Goddess...$3!"
 63: 0x1484 [0x23] WAIT_FOR_DIALOG_INTERACTION
 64: 0x1485 [0x1C] WAIT(30* ticks)
 65: 0x1488 [0x5B] LOAD_EXT_SCHEDULER: Load scheduler "hdb1" with entities [Lilisette (ID: 17719620/0x010E6144), Lilisette (ID: 17719620/0x010E6144)], work=2128*
 66: 0x1497 [0x52] END_LOAD_SCHEDULER: End scheduler "sc03" with entities [LocalPlayer, LocalPlayer], work=439*
 67: 0x14A6 [0x45] LOAD_SCHEDULED_TASK: Load scheduler "sc04" with entities [LocalPlayer, LocalPlayer], work=[439*, 0*]
 68: 0x14B7 [0x2B] Amaura (ID: 17719327/0x010E601F) [13741*]:
    → "Well, pinch my cheeks and call me senile... What miraculous manner of magic did ye use to get a hold of this?"
 69: 0x14BE [0x23] WAIT_FOR_DIALOG_INTERACTION
 70: 0x14BF [0x5B] LOAD_EXT_SCHEDULER: Load scheduler "fd01" with entities [Lilisette (ID: 17719620/0x010E6144), Lilisette (ID: 17719620/0x010E6144)], work=2135*
 71: 0x14CE [0x1C] WAIT(30* ticks)
 72: 0x14D1 [0x5B] LOAD_EXT_SCHEDULER: Load scheduler "tlk1" with entities [Amaura (ID: 17719327/0x010E601F), Amaura (ID: 17719327/0x010E601F)], work=35*
 73: 0x14E0 [0x52] END_LOAD_SCHEDULER: End scheduler "sc04" with entities [LocalPlayer, LocalPlayer], work=439*
 74: 0x14EF [0x45] LOAD_SCHEDULED_TASK: Load scheduler "sc05" with entities [LocalPlayer, LocalPlayer], work=[439*, 0*]
 75: 0x1500 [0x7B] Lilisette (ID: 17719620/0x010E6144) stops talking
 76: 0x1505 [0x27] REQ_SET(priority=0x10, entity_id=??? (ID: 17719621/0x010E6145), tag_num=0x0A)
 77: 0x150C [0x2B] Lilisette (ID: 17719620/0x010E6144) [13742*]:
