# 17719300 - Cahaurme

## Common Data

| Field            | Value                         |
|------------------|-------------------------------|
| Zone             | Southern San d'Oria (ID: 230) |
| Block Size       | 296 bytes                     |
| Total Events     | 3                             |
| References Count | 14                            |

## List of Events

| Event ID              | Entrypoint   |   Size |   Instructions |
|-----------------------|--------------|--------|----------------|
| [65535](#event-65535) | 0x0000       |      1 |              1 |
| [633](#event-633)     | 0x0001       |     73 |             15 |
| [847](#event-847)     | 0x004A       |    135 |             29 |

## DAT References (imed_data)

|   Index | Hex Value   |   Dec Value |
|---------|-------------|-------------|
|       0 | 0x008F      |         143 |
|       1 | 0x0014      |          20 |
|       2 | 0x1F67      |        8039 |
|       3 | 0x001E      |          30 |
|       4 | 0x0015      |          21 |
|       5 | 0x0000      |           0 |
|       6 | 0x2ECD      |       11981 |
|       7 | 0x0001      |           1 |
|       8 | 0x2EFA      |       12026 |
|       9 | 0x2EFB      |       12027 |
|      10 | 0x001A      |          26 |
|      11 | 0x2EE3      |       12003 |
|      12 | 0x2EE4      |       12004 |
|      13 | 0x2EE5      |       12005 |

## String References

- **8039**: Have you the $3? Great. Here, have this. Figure the rest out by yourself.
- **11981**: Ask if this person is the chick's owner? [Yes./No.]
- **12003**: Red alert! My chocobo has gone missing!
- **12004**: What's this? You've got him? What a relief! I am supposed to be looking out for any threats to our nation here, but in truth all I have had my eyes out for is that poor little chocobo...
- **12005**: You are raising a chocobo as well, are you not? Let me show you my thanks by teaching you a story you can tell your animal...
- **12026**: You have my chocobo, you say?
- **12027**: That is not a joking matter. I could never stand here so calmly if my chocobo was lost.

## Events

### Event 65535

#### Metadata

| Field        | Value   |
|--------------|---------|
| Entrypoint   | 0x0000  |
| Data Size    | 1 bytes |
| Instructions | 1       |

```
      00 01 02 03 04 05 06 07  08 09 0A 0B 0C 0D 0E 0F
      -- -- -- -- -- -- -- --  -- -- -- -- -- -- -- --
0000: 00                                                .               
```

#### Opcodes

```
  0: 0x0000 [0x00] END_REQSTACK()
```

### Event 633

#### Metadata

| Field        | Value    |
|--------------|----------|
| Entrypoint   | 0x0001   |
| Data Size    | 73 bytes |
| Instructions | 15       |

```
      00 01 02 03 04 05 06 07  08 09 0A 0B 0C 0D 0E 0F
      -- -- -- -- -- -- -- --  -- -- -- -- -- -- -- --
0000:    42 1E F0 FF FF 7F 6F  70 03 02 10 00 80 66 01   B.....op.....f.
0010: 80 F8 FF FF 7F F8 FF FF  7F 74 6C 6B 30 1D 02 80  .........tlk0...
0020: 23 5E 69 64 6C 30 1C 03  80 66 04 80 F8 FF FF 7F  #^idl0...f......
0030: F8 FF FF 7F 73 6C 30 30  53 F8 FF FF 7F F8 FF FF  ....sl00S.......
0040: 7F 73 6C 30 30 1C 03 80  21 00                    .sl00...!.      
```

#### Opcodes

```
  0: 0x0001 [0x42] SET_CLI_EVENT_CANCEL_DATA()
  1: 0x0002 [0x1E] EventEntity looks at LocalPlayer and starts talking
  2: 0x0007 [0x6F] WAIT_FRAME_DELAY: Yield until WaitTime reaches zero
  3: 0x0008 [0x70] WAIT_ENTITY_RENDER_FLAG: Wait while EventEntity->Render.Flags3 bit 2 is set (cancel turn if not)
  4: 0x0009 [0x03] Work_Zone[2] = 143*
  5: 0x000E [0x66] LOAD_EXT_SCHEDULER_MAIN: Load scheduler "tlk0" with entities [EventEntity, EventEntity], work=20*
  6: 0x001D [0x1D] PRINT_EVENT_MESSAGE(message_id=8039*)
    → "Have you the $3? Great. Here, have this. Figure the rest out by yourself."
  7: 0x0020 [0x23] WAIT_FOR_DIALOG_INTERACTION
  8: 0x0021 [0x5E] EventEntity goes idle (kills current action) (animation: "idl0")
  9: 0x0026 [0x1C] WAIT(30* ticks)
 10: 0x0029 [0x66] LOAD_EXT_SCHEDULER_MAIN: Load scheduler "sl00" with entities [EventEntity, EventEntity], work=21*
 11: 0x0038 [0x53] WAIT_SCHEDULER_TASK: Wait for scheduler "sl00" with entities [EventEntity, EventEntity]
 12: 0x0045 [0x1C] WAIT(30* ticks)
 13: 0x0048 [0x21] END_EVENT
 14: 0x0049 [0x00] END_REQSTACK()
```

### Event 847

#### Metadata

| Field        | Value     |
|--------------|-----------|
| Entrypoint   | 0x004A    |
| Data Size    | 135 bytes |
| Instructions | 29        |

```
      00 01 02 03 04 05 06 07  08 09 0A 0B 0C 0D 0E 0F
      -- -- -- -- -- -- -- --  -- -- -- -- -- -- -- --
0040:                                42 03 01 10 05 80            B.....
0050: 24 06 80 07 80 05 80 25  02 00 10 05 80 00 CF 00  $......%........
0060: 1E F0 FF FF 7F 1C 03 80  03 01 10 07 80 43 00 43  .............C.C
0070: 01 02 02 10 05 80 00 93  00 1D 08 80 23 66 01 80  ............#f..
0080: F8 FF FF 7F F8 FF FF 7F  74 6C 6B 30 1D 09 80 23  ........tlk0...#
0090: 01 CC 00 66 0A 80 F8 FF  FF 7F F8 FF FF 7F 6F 72  ...f..........or
00A0: 6F 30 1D 0B 80 23 66 0A  80 F8 FF FF 7F F8 FF FF  o0...#f.........
00B0: 7F 6F 72 6F 31 1D 0C 80  23 66 01 80 F8 FF FF 7F  .oro1...#f......
00C0: F8 FF FF 7F 74 6C 6B 30  1D 0D 80 23 01 CF 00 21  ....tlk0...#...!
00D0: 00                                                .               
```

#### Opcodes

```
  0: 0x004A [0x42] SET_CLI_EVENT_CANCEL_DATA()
  1: 0x004B [0x03] Work_Zone[1] = 0*
  2: 0x0050 [0x24] CREATE_DIALOG(message_id=11981*, default_option=1*, option_flags=0*)
    → "Ask if this person is the chick's owner? [Yes./No.]"
  3: 0x0057 [0x25] WAIT_DIALOG_SELECT()
  4: 0x0058 [0x02] IF !(Work_Zone[0] == 0*) GOTO 0x00CF
  5: 0x0060 [0x1E] EventEntity looks at LocalPlayer and starts talking
  6: 0x0065 [0x1C] WAIT(30* ticks)
  7: 0x0068 [0x03] Work_Zone[1] = 1*
  8: 0x006D [0x43] SEND_EVENT_UPDATE: Send pending tag to server (packet 0x005B)
  9: 0x006F [0x43] SEND_EVENT_UPDATE: Check pending flag (skip if not pending)
 10: 0x0071 [0x02] IF !(Work_Zone[2] == 0*) GOTO 0x0093
 11: 0x0079 [0x1D] PRINT_EVENT_MESSAGE(message_id=12026*)
    → "You have my chocobo, you say?"
 12: 0x007C [0x23] WAIT_FOR_DIALOG_INTERACTION
 13: 0x007D [0x66] LOAD_EXT_SCHEDULER_MAIN: Load scheduler "tlk0" with entities [EventEntity, EventEntity], work=20*
 14: 0x008C [0x1D] PRINT_EVENT_MESSAGE(message_id=12027*)
    → "That is not a joking matter. I could never stand here so calmly if my chocobo was lost."
 15: 0x008F [0x23] WAIT_FOR_DIALOG_INTERACTION
 16: 0x0090 [0x01] GOTO 0x00CC
 17: 0x0093 [0x66] LOAD_EXT_SCHEDULER_MAIN: Load scheduler "oro0" with entities [EventEntity, EventEntity], work=26*
 18: 0x00A2 [0x1D] PRINT_EVENT_MESSAGE(message_id=12003*)
    → "Red alert! My chocobo has gone missing!"
 19: 0x00A5 [0x23] WAIT_FOR_DIALOG_INTERACTION
 20: 0x00A6 [0x66] LOAD_EXT_SCHEDULER_MAIN: Load scheduler "oro1" with entities [EventEntity, EventEntity], work=26*
 21: 0x00B5 [0x1D] PRINT_EVENT_MESSAGE(message_id=12004*)
    → "What's this? You've got him? What a relief! I am supposed to be looking out for any threats to our nation here, but in truth all I have had my eyes out for is that poor little chocobo..."
 22: 0x00B8 [0x23] WAIT_FOR_DIALOG_INTERACTION
 23: 0x00B9 [0x66] LOAD_EXT_SCHEDULER_MAIN: Load scheduler "tlk0" with entities [EventEntity, EventEntity], work=20*
 24: 0x00C8 [0x1D] PRINT_EVENT_MESSAGE(message_id=12005*)
    → "You are raising a chocobo as well, are you not? Let me show you my thanks by teaching you a story you can tell your animal..."
 25: 0x00CB [0x23] WAIT_FOR_DIALOG_INTERACTION

SUBROUTINE_00CC:
 26: 0x00CC [0x01] GOTO 0x00CF

SUBROUTINE_00CF:
 27: 0x00CF [0x21] END_EVENT
 28: 0x00D0 [0x00] END_REQSTACK()
```
