# 17719360 - Balasiel

## Common Data

| Field            | Value                         |
|------------------|-------------------------------|
| Zone             | Southern San d'Oria (ID: 230) |
| Block Size       | 388 bytes                     |
| Total Events     | 12                            |
| References Count | 13                            |

## List of Events

| Event ID                   | Entrypoint   |   Size |   Instructions |
|----------------------------|--------------|--------|----------------|
| [65535](#event-65535)      | 0x0000       |      1 |              1 |
| [597](#event-597)          | 0x0001       |      1 |              1 |
| [65535.1](#event-655351)   | 0x0002       |      6 |              2 |
| [65535.2](#event-655352)   | 0x0008       |      6 |              2 |
| [65535.3](#event-655353)   | 0x000E       |     22 |              6 |
| [65535.4](#event-655354)   | 0x0024       |     40 |             10 |
| [65535.5](#event-655355)   | 0x004C       |     35 |              9 |
| [65535.6](#event-655356)   | 0x006F       |     35 |              9 |
| [65535.7](#event-655357)   | 0x0092       |     40 |             10 |
| [65535.8](#event-655358)   | 0x00BA       |     40 |             10 |
| [65535.9](#event-655359)   | 0x00E2       |     35 |              9 |
| [65535.10](#event-6553510) | 0x0105       |     11 |              3 |

## DAT References (imed_data)

|   Index | Hex Value   |   Dec Value |
|---------|-------------|-------------|
|       0 | 0x000D      |          13 |
|       1 | 0x8E77      |       36471 |
|       2 | 0xFFFF931D  |  4294939421 |
|       3 | 0x07CF      |        1999 |
|       4 | 0x001E      |          30 |
|       5 | 0x1FB0      |        8112 |
|       6 | 0x1FB3      |        8115 |
|       7 | 0x1FB6      |        8118 |
|       8 | 0x1FBA      |        8122 |
|       9 | 0x1FBD      |        8125 |
|      10 | 0x1FC0      |        8128 |
|      11 | 0x96CD      |       38605 |
|      12 | 0xFFFF7335  |  4294931253 |

## String References

- **8112**: What are you two bickering about, eh?
- **8115**: Now, boys... Toys and candies are temporary, but you'll be brothers your whole lives. Do you understand?
- **8118**: So, there are many kinds of brothers in this world. Some get along, and others fight whenever they meet.
- **8122**: But someday you will need each other. Compared to the Great War twenty years ago, your squabbles are chocobo-feed!
- **8125**: I hear of battle in lands abroad. What if another war came, and fiends knocked through these walls? You'd forget your quarreling, then!
- **8128**: Heh-heh! That's the spirit! Grow strong, my boys! You'll be out slaying beastmen soon enough!

## Events

### Event 65535

#### Metadata

| Field        | Value   |
|--------------|---------|
| Entrypoint   | 0x0000  |
| Data Size    | 1 bytes |
| Instructions | 1       |

```
      00 01 02 03 04 05 06 07  08 09 0A 0B 0C 0D 0E 0F
      -- -- -- -- -- -- -- --  -- -- -- -- -- -- -- --
0000: 00                                                .               
```

#### Opcodes

```
  0: 0x0000 [0x00] END_REQSTACK()
```

### Event 597

#### Metadata

| Field        | Value   |
|--------------|---------|
| Entrypoint   | 0x0001  |
| Data Size    | 1 bytes |
| Instructions | 1       |

```
      00 01 02 03 04 05 06 07  08 09 0A 0B 0C 0D 0E 0F
      -- -- -- -- -- -- -- --  -- -- -- -- -- -- -- --
0000:    00                                              .              
```

#### Opcodes

```
  0: 0x0001 [0x00] END_REQSTACK()
```

### Event 65535.1

#### Metadata

| Field        | Value   |
|--------------|---------|
| Entrypoint   | 0x0002  |
| Data Size    | 6 bytes |
| Instructions | 2       |

```
      00 01 02 03 04 05 06 07  08 09 0A 0B 0C 0D 0E 0F
      -- -- -- -- -- -- -- --  -- -- -- -- -- -- -- --
0000:       1E 3D 60 0E 01 00                             .=`...        
```

#### Opcodes

```
  0: 0x0002 [0x1E] EventEntity looks at Authere (ID: 17719357/0x010E603D) and starts talking
  1: 0x0007 [0x00] END_REQSTACK()
```

### Event 65535.2

#### Metadata

| Field        | Value   |
|--------------|---------|
| Entrypoint   | 0x0008  |
| Data Size    | 6 bytes |
| Instructions | 2       |

```
      00 01 02 03 04 05 06 07  08 09 0A 0B 0C 0D 0E 0F
      -- -- -- -- -- -- -- --  -- -- -- -- -- -- -- --
0000:                          1E 3E 60 0E 01 00                .>`...  
```

#### Opcodes

```
  0: 0x0008 [0x1E] EventEntity looks at Blendare (ID: 17719358/0x010E603E) and starts talking
  1: 0x000D [0x00] END_REQSTACK()
```

### Event 65535.3

#### Metadata

| Field        | Value    |
|--------------|----------|
| Entrypoint   | 0x000E   |
| Data Size    | 22 bytes |
| Instructions | 6        |

```
      00 01 02 03 04 05 06 07  08 09 0A 0B 0C 0D 0E 0F
      -- -- -- -- -- -- -- --  -- -- -- -- -- -- -- --
0000:                                            2F 00                /.
0010: 40 60 0E 01 22 00 32 00  80 1F 00 01 80 02 80 03  @`..".2.........
0020: 80 1F 01 00                                       ....            
```

#### Opcodes

```
  0: 0x000E [0x2F] Balasiel (ID: 17719360/0x010E6040)->Render.Flags0 &= ~0x80000 // Bit 19
  1: 0x0014 [0x22] ENTITY_HIDE_FLAG(enabled=0x00)
  2: 0x0016 [0x32] ExtData[1]->MainSpeed = 13* * 0.1
  3: 0x0019 [0x1F] MOVE_ENTITY: EventEntity moves to X=36.471*, Z=-27.875*, Y=1.999*
  4: 0x0021 [0x1F] MOVE_ENTITY: Update entity position (mode=1)
  5: 0x0023 [0x00] END_REQSTACK()
```

### Event 65535.4

#### Metadata

| Field        | Value    |
|--------------|----------|
| Entrypoint   | 0x0024   |
| Data Size    | 40 bytes |
| Instructions | 10       |

```
      00 01 02 03 04 05 06 07  08 09 0A 0B 0C 0D 0E 0F
      -- -- -- -- -- -- -- --  -- -- -- -- -- -- -- --
0020:             1E 3D 60 0E  01 6F 70 5B 04 80 F8 FF      .=`..op[....
0030: FF 7F F8 FF FF 7F 74 6C  6B 30 1D 05 80 23 5E 69  ......tlk0...#^i
0040: 64 6C 30 1C 04 80 1E 3E  60 0E 01 00              dl0....>`...    
```

#### Opcodes

```
  0: 0x0024 [0x1E] EventEntity looks at Authere (ID: 17719357/0x010E603D) and starts talking
  1: 0x0029 [0x6F] WAIT_FRAME_DELAY: Yield until WaitTime reaches zero
  2: 0x002A [0x70] WAIT_ENTITY_RENDER_FLAG: Wait while EventEntity->Render.Flags3 bit 2 is set (cancel turn if not)
  3: 0x002B [0x5B] LOAD_EXT_SCHEDULER: Load scheduler "tlk0" with entities [EventEntity, EventEntity], work=30*
  4: 0x003A [0x1D] PRINT_EVENT_MESSAGE(message_id=8112*)
    → "What are you two bickering about, eh?"
  5: 0x003D [0x23] WAIT_FOR_DIALOG_INTERACTION
  6: 0x003E [0x5E] EventEntity goes idle (kills current action) (animation: "idl0")
  7: 0x0043 [0x1C] WAIT(30* ticks)
  8: 0x0046 [0x1E] EventEntity looks at Blendare (ID: 17719358/0x010E603E) and starts talking
  9: 0x004B [0x00] END_REQSTACK()
```

### Event 65535.5

#### Metadata

| Field        | Value    |
|--------------|----------|
| Entrypoint   | 0x004C   |
| Data Size    | 35 bytes |
| Instructions | 9        |

```
      00 01 02 03 04 05 06 07  08 09 0A 0B 0C 0D 0E 0F
      -- -- -- -- -- -- -- --  -- -- -- -- -- -- -- --
0040:                                      1E 3D 60 0E              .=`.
0050: 01 6F 70 5B 04 80 F8 FF  FF 7F F8 FF FF 7F 74 6C  .op[..........tl
0060: 6B 30 1D 06 80 23 5E 69  64 6C 30 1C 04 80 00     k0...#^idl0.... 
```

#### Opcodes

```
  0: 0x004C [0x1E] EventEntity looks at Authere (ID: 17719357/0x010E603D) and starts talking
  1: 0x0051 [0x6F] WAIT_FRAME_DELAY: Yield until WaitTime reaches zero
  2: 0x0052 [0x70] WAIT_ENTITY_RENDER_FLAG: Wait while EventEntity->Render.Flags3 bit 2 is set (cancel turn if not)
  3: 0x0053 [0x5B] LOAD_EXT_SCHEDULER: Load scheduler "tlk0" with entities [EventEntity, EventEntity], work=30*
  4: 0x0062 [0x1D] PRINT_EVENT_MESSAGE(message_id=8115*)
    → "Now, boys... Toys and candies are temporary, but you'll be brothers your whole lives. Do you understand?"
  5: 0x0065 [0x23] WAIT_FOR_DIALOG_INTERACTION
  6: 0x0066 [0x5E] EventEntity goes idle (kills current action) (animation: "idl0")
  7: 0x006B [0x1C] WAIT(30* ticks)
  8: 0x006E [0x00] END_REQSTACK()
```

### Event 65535.6

#### Metadata

| Field        | Value    |
|--------------|----------|
| Entrypoint   | 0x006F   |
| Data Size    | 35 bytes |
| Instructions | 9        |

```
      00 01 02 03 04 05 06 07  08 09 0A 0B 0C 0D 0E 0F
      -- -- -- -- -- -- -- --  -- -- -- -- -- -- -- --
0060:                                               1E                 .
0070: 3D 60 0E 01 6F 70 5B 04  80 F8 FF FF 7F F8 FF FF  =`..op[.........
0080: 7F 74 6C 6B 30 1D 07 80  23 5E 69 64 6C 30 1C 04  .tlk0...#^idl0..
0090: 80 00                                             ..              
```

#### Opcodes

```
  0: 0x006F [0x1E] EventEntity looks at Authere (ID: 17719357/0x010E603D) and starts talking
  1: 0x0074 [0x6F] WAIT_FRAME_DELAY: Yield until WaitTime reaches zero
  2: 0x0075 [0x70] WAIT_ENTITY_RENDER_FLAG: Wait while EventEntity->Render.Flags3 bit 2 is set (cancel turn if not)
  3: 0x0076 [0x5B] LOAD_EXT_SCHEDULER: Load scheduler "tlk0" with entities [EventEntity, EventEntity], work=30*
  4: 0x0085 [0x1D] PRINT_EVENT_MESSAGE(message_id=8118*)
    → "So, there are many kinds of brothers in this world. Some get along, and others fight whenever they meet."
  5: 0x0088 [0x23] WAIT_FOR_DIALOG_INTERACTION
  6: 0x0089 [0x5E] EventEntity goes idle (kills current action) (animation: "idl0")
  7: 0x008E [0x1C] WAIT(30* ticks)
  8: 0x0091 [0x00] END_REQSTACK()
```

### Event 65535.7

#### Metadata

| Field        | Value    |
|--------------|----------|
| Entrypoint   | 0x0092   |
| Data Size    | 40 bytes |
| Instructions | 10       |

```
      00 01 02 03 04 05 06 07  08 09 0A 0B 0C 0D 0E 0F
      -- -- -- -- -- -- -- --  -- -- -- -- -- -- -- --
0090:       1E 3E 60 0E 01 6F  70 5B 04 80 F8 FF FF 7F    .>`..op[......
00A0: F8 FF FF 7F 74 6C 6B 30  1D 08 80 23 5E 69 64 6C  ....tlk0...#^idl
00B0: 30 1C 04 80 1E 3D 60 0E  01 00                    0....=`...      
```

#### Opcodes

```
  0: 0x0092 [0x1E] EventEntity looks at Blendare (ID: 17719358/0x010E603E) and starts talking
  1: 0x0097 [0x6F] WAIT_FRAME_DELAY: Yield until WaitTime reaches zero
  2: 0x0098 [0x70] WAIT_ENTITY_RENDER_FLAG: Wait while EventEntity->Render.Flags3 bit 2 is set (cancel turn if not)
  3: 0x0099 [0x5B] LOAD_EXT_SCHEDULER: Load scheduler "tlk0" with entities [EventEntity, EventEntity], work=30*
  4: 0x00A8 [0x1D] PRINT_EVENT_MESSAGE(message_id=8122*)
    → "But someday you will need each other. Compared to the Great War twenty years ago, your squabbles are chocobo-feed!"
  5: 0x00AB [0x23] WAIT_FOR_DIALOG_INTERACTION
  6: 0x00AC [0x5E] EventEntity goes idle (kills current action) (animation: "idl0")
  7: 0x00B1 [0x1C] WAIT(30* ticks)
  8: 0x00B4 [0x1E] EventEntity looks at Authere (ID: 17719357/0x010E603D) and starts talking
  9: 0x00B9 [0x00] END_REQSTACK()
```

### Event 65535.8

#### Metadata

| Field        | Value    |
|--------------|----------|
| Entrypoint   | 0x00BA   |
| Data Size    | 40 bytes |
| Instructions | 10       |

```
      00 01 02 03 04 05 06 07  08 09 0A 0B 0C 0D 0E 0F
      -- -- -- -- -- -- -- --  -- -- -- -- -- -- -- --
00B0:                                1E 3D 60 0E 01 6F            .=`..o
00C0: 70 5B 04 80 F8 FF FF 7F  F8 FF FF 7F 74 6C 6B 30  p[..........tlk0
00D0: 1D 09 80 23 5E 69 64 6C  30 1C 04 80 1E 3E 60 0E  ...#^idl0....>`.
00E0: 01 00                                             ..              
```

#### Opcodes

```
  0: 0x00BA [0x1E] EventEntity looks at Authere (ID: 17719357/0x010E603D) and starts talking
  1: 0x00BF [0x6F] WAIT_FRAME_DELAY: Yield until WaitTime reaches zero
  2: 0x00C0 [0x70] WAIT_ENTITY_RENDER_FLAG: Wait while EventEntity->Render.Flags3 bit 2 is set (cancel turn if not)
  3: 0x00C1 [0x5B] LOAD_EXT_SCHEDULER: Load scheduler "tlk0" with entities [EventEntity, EventEntity], work=30*
  4: 0x00D0 [0x1D] PRINT_EVENT_MESSAGE(message_id=8125*)
    → "I hear of battle in lands abroad. What if another war came, and fiends knocked through these walls? You'd forget your quarreling, then!"
  5: 0x00D3 [0x23] WAIT_FOR_DIALOG_INTERACTION
  6: 0x00D4 [0x5E] EventEntity goes idle (kills current action) (animation: "idl0")
  7: 0x00D9 [0x1C] WAIT(30* ticks)
  8: 0x00DC [0x1E] EventEntity looks at Blendare (ID: 17719358/0x010E603E) and starts talking
  9: 0x00E1 [0x00] END_REQSTACK()
```

### Event 65535.9

#### Metadata

| Field        | Value    |
|--------------|----------|
| Entrypoint   | 0x00E2   |
| Data Size    | 35 bytes |
| Instructions | 9        |

```
      00 01 02 03 04 05 06 07  08 09 0A 0B 0C 0D 0E 0F
      -- -- -- -- -- -- -- --  -- -- -- -- -- -- -- --
00E0:       1E 3E 60 0E 01 6F  70 5B 04 80 F8 FF FF 7F    .>`..op[......
00F0: F8 FF FF 7F 74 6C 6B 30  1D 0A 80 23 5E 69 64 6C  ....tlk0...#^idl
0100: 30 1C 04 80 00                                    0....           
```

#### Opcodes

```
  0: 0x00E2 [0x1E] EventEntity looks at Blendare (ID: 17719358/0x010E603E) and starts talking
  1: 0x00E7 [0x6F] WAIT_FRAME_DELAY: Yield until WaitTime reaches zero
  2: 0x00E8 [0x70] WAIT_ENTITY_RENDER_FLAG: Wait while EventEntity->Render.Flags3 bit 2 is set (cancel turn if not)
  3: 0x00E9 [0x5B] LOAD_EXT_SCHEDULER: Load scheduler "tlk0" with entities [EventEntity, EventEntity], work=30*
  4: 0x00F8 [0x1D] PRINT_EVENT_MESSAGE(message_id=8128*)
    → "Heh-heh! That's the spirit! Grow strong, my boys! You'll be out slaying beastmen soon enough!"
  5: 0x00FB [0x23] WAIT_FOR_DIALOG_INTERACTION
  6: 0x00FC [0x5E] EventEntity goes idle (kills current action) (animation: "idl0")
  7: 0x0101 [0x1C] WAIT(30* ticks)
  8: 0x0104 [0x00] END_REQSTACK()
```

### Event 65535.10

#### Metadata

| Field        | Value    |
|--------------|----------|
| Entrypoint   | 0x0105   |
| Data Size    | 11 bytes |
| Instructions | 3        |

```
      00 01 02 03 04 05 06 07  08 09 0A 0B 0C 0D 0E 0F
      -- -- -- -- -- -- -- --  -- -- -- -- -- -- -- --
0100:                1F 00 0B  80 0C 80 03 80 1F 01 00       ...........
```

#### Opcodes

```
  0: 0x0105 [0x1F] MOVE_ENTITY: EventEntity moves to X=38.605*, Z=-36.043*, Y=1.999*
  1: 0x010D [0x1F] MOVE_ENTITY: Update entity position (mode=1)
  2: 0x010F [0x00] END_REQSTACK()
```
