# 17719430 - Diary

## Common Data

| Field            | Value                         |
|------------------|-------------------------------|
| Zone             | Southern San d'Oria (ID: 230) |
| Block Size       | 1988 bytes                    |
| Total Events     | 6                             |
| References Count | 29                            |

## List of Events

| Event ID              | Entrypoint   |   Size |   Instructions |
|-----------------------|--------------|--------|----------------|
| [65535](#event-65535) | 0x0000       |      1 |              1 |
| [639](#event-639)     | 0x0001       |    135 |             29 |
| [640](#event-640)     | 0x0088       |    282 |             59 |
| [641](#event-641)     | 0x01A2       |    387 |             79 |
| [722](#event-722)     | 0x0325       |    516 |            111 |
| [723](#event-723)     | 0x0529       |    508 |            107 |

## DAT References (imed_data)

|   Index | Hex Value   |   Dec Value |
|---------|-------------|-------------|
|       0 | 0x1F15      |        7957 |
|       1 | 0x1F16      |        7958 |
|       2 | 0x0000      |           0 |
|       3 | 0x00C8      |         200 |
|       4 | 0x1DEE      |        7662 |
|       5 | 0x1F18      |        7960 |
|       6 | 0x1F19      |        7961 |
|       7 | 0x1F1A      |        7962 |
|       8 | 0x0001      |           1 |
|       9 | 0x40000000  |  1073741824 |
|      10 | 0x1F17      |        7959 |
|      11 | 0x0008      |           8 |
|      12 | 0x0002      |           2 |
|      13 | 0x1F1B      |        7963 |
|      14 | 0x1F1C      |        7964 |
|      15 | 0x008D      |         141 |
|      16 | 0x1F1D      |        7965 |
|      17 | 0x0003      |           3 |
|      18 | 0x1F1E      |        7966 |
|      19 | 0x1F1F      |        7967 |
|      20 | 0x1F20      |        7968 |
|      21 | 0x25C8      |        9672 |
|      22 | 0x0004      |           4 |
|      23 | 0x25C9      |        9673 |
|      24 | 0x25CA      |        9674 |
|      25 | 0x25CB      |        9675 |
|      26 | 0x25CC      |        9676 |
|      27 | 0x25CD      |        9677 |
|      28 | 0x25CE      |        9678 |

## String References

- **7662**: @
- **7957**: You see a diary.
- **7958**: Read diary? [Read it./Leave it be.]
- **7959**: Read which page? [On second thought, I'll pass./Page 1./Page 2./Page 3.]
- **7960**: Went to the grotto at Yughott yesterday. Aided an adventurer there who claimed to be on the Kingdom's duty.
- **7961**: Why could it be that the fiends are increasing so evidently in number?
- **7962**: I have visited many places, attempting to uncover the beastmen's plans, but never have I encountered such a creature.
- **7963**: I saw him there at the entrance to the cave. Thankfully, he did not note my presence.
- **7964**: He was the same as he has always been--both the good parts, and the bad.
- **7965**: That reminds me, I saw the waterfall again. I remember when I was a squire in training, going to fetch $6, so long ago.
- **7966**: A traveler told me the other day that a certain kind of moss can help alleviate severe coughs.
- **7967**: Perhaps I shall gather some on my next patrol, to give to that child and his mother. I do not know how much I will be able to carry, however.
- **7968**: If only there was someone who could deliver it in my stead...
- **9672**: Read which page? [On second thought, I'll pass./Page 1./Page 2./Page 3./Page 4.]
- **9673**: I have come across the most frightening information concerning the dark schemes of the beastmen. It appears they have succeeded in awakening their divinity.
- **9674**: The "Kindred" that inhabit the Northlands are said to have been created by this deity. Could the Twilight God have returned...?
- **9675**: I must leave for the north immediately, and determine the truth of these rumors firsthand. Lord Excenmille's army has begun operations to completely obliterate the fiendish forces that lie beyond the Northlands.
- **9676**: If I can but reach their camp, I should be able to further research this god of the beastmen. Fortunately, I was able to send word to the count, and an advance party will be waiting to greet me.
- **9677**: However, I must complete the journey across the Uleguerand Range alone. Without a map of the area, I foresee much backtracking and other such delays I cannot afford.
- **9678**: Though I am reluctant to do so, I will meet with my nephew, Antreneau. As a Royal Knight, he will have access to the charts I require.

## Events

### Event 65535

#### Metadata

| Field        | Value   |
|--------------|---------|
| Entrypoint   | 0x0000  |
| Data Size    | 1 bytes |
| Instructions | 1       |

```
      00 01 02 03 04 05 06 07  08 09 0A 0B 0C 0D 0E 0F
      -- -- -- -- -- -- -- --  -- -- -- -- -- -- -- --
0000: 00                                                .               
```

#### Opcodes

```
  0: 0x0000 [0x00] END_REQSTACK()
```

### Event 639

#### Metadata

| Field        | Value     |
|--------------|-----------|
| Entrypoint   | 0x0001    |
| Data Size    | 135 bytes |
| Instructions | 29        |

```
      00 01 02 03 04 05 06 07  08 09 0A 0B 0C 0D 0E 0F
      -- -- -- -- -- -- -- --  -- -- -- -- -- -- -- --
0000:    48 00 80 23 24 01 80  02 80 02 80 25 02 00 10   H..#$......%...
0010: 02 80 00 76 00 42 45 03  80 F0 FF FF 7F F0 FF FF  ...v.BE.........
0020: 7F 66 64 6F 31 02 80 55  03 80 F0 FF FF 7F F0 FF  .fdo1..U........
0030: FF 7F 66 64 6F 31 48 04  80 23 48 05 80 23 48 04  ..fdo1H..#H..#H.
0040: 80 23 48 06 80 23 48 04  80 23 48 07 80 23 45 03  .#H..#H..#H..#E.
0050: 80 F0 FF FF 7F F0 FF FF  7F 66 64 69 31 02 80 55  .........fdi1..U
0060: 03 80 F0 FF FF 7F F0 FF  FF 7F 66 64 69 31 03 01  ..........fdi1..
0070: 10 02 80 01 86 00 02 00  10 08 80 00 86 00 03 01  ................
0080: 10 09 80 01 86 00 21 00                           ......!.        
```

#### Opcodes

```
  0: 0x0001 [0x48] [System] [7957*]:
    → "You see a diary."
  1: 0x0004 [0x23] WAIT_FOR_DIALOG_INTERACTION
  2: 0x0005 [0x24] CREATE_DIALOG(message_id=7958*, default_option=0*, option_flags=0*)
    → "Read diary? [Read it./Leave it be.]"
  3: 0x000C [0x25] WAIT_DIALOG_SELECT()
  4: 0x000D [0x02] IF !(Work_Zone[0] == 0*) GOTO 0x0076
  5: 0x0015 [0x42] SET_CLI_EVENT_CANCEL_DATA()
  6: 0x0016 [0x45] LOAD_SCHEDULED_TASK: Load scheduler "fdo1" with entities [LocalPlayer, LocalPlayer], work=[200*, 0*]
  7: 0x0027 [0x55] WAIT_LOAD_SCHEDULER: Wait for scheduler "fdo1" with entities [LocalPlayer, LocalPlayer], work=200*
  8: 0x0036 [0x48] [System] [7662*]:
    → "@"
  9: 0x0039 [0x23] WAIT_FOR_DIALOG_INTERACTION
 10: 0x003A [0x48] [System] [7960*]:
    → "Went to the grotto at Yughott yesterday. Aided an adventurer there who claimed to be on the Kingdom's duty."
 11: 0x003D [0x23] WAIT_FOR_DIALOG_INTERACTION
 12: 0x003E [0x48] [System] [7662*]:
    → "@"
 13: 0x0041 [0x23] WAIT_FOR_DIALOG_INTERACTION
 14: 0x0042 [0x48] [System] [7961*]:
    → "Why could it be that the fiends are increasing so evidently in number?"
 15: 0x0045 [0x23] WAIT_FOR_DIALOG_INTERACTION
 16: 0x0046 [0x48] [System] [7662*]:
    → "@"
 17: 0x0049 [0x23] WAIT_FOR_DIALOG_INTERACTION
 18: 0x004A [0x48] [System] [7962*]:
    → "I have visited many places, attempting to uncover the beastmen's plans, but never have I encountered such a creature."
 19: 0x004D [0x23] WAIT_FOR_DIALOG_INTERACTION
 20: 0x004E [0x45] LOAD_SCHEDULED_TASK: Load scheduler "fdi1" with entities [LocalPlayer, LocalPlayer], work=[200*, 0*]
 21: 0x005F [0x55] WAIT_LOAD_SCHEDULER: Wait for scheduler "fdi1" with entities [LocalPlayer, LocalPlayer], work=200*
 22: 0x006E [0x03] Work_Zone[1] = 0*
 23: 0x0073 [0x01] GOTO 0x0086
 24: 0x0076 [0x02] IF !(Work_Zone[0] == 1*) GOTO 0x0086
 25: 0x007E [0x03] Work_Zone[1] = 1073741824*
 26: 0x0083 [0x01] GOTO 0x0086

SUBROUTINE_0086:
 27: 0x0086 [0x21] END_EVENT
 28: 0x0087 [0x00] END_REQSTACK()
```

### Event 640

#### Metadata

| Field        | Value     |
|--------------|-----------|
| Entrypoint   | 0x0088    |
| Data Size    | 282 bytes |
| Instructions | 17        |

```
      00 01 02 03 04 05 06 07  08 09 0A 0B 0C 0D 0E 0F
      -- -- -- -- -- -- -- --  -- -- -- -- -- -- -- --
0080:                          48 00 80 23 24 01 80 02          H..#$...
0090: 80 02 80 25 02 00 10 02  80 00 90 01 24 0A 80 02  ...%........$...
00A0: 80 0B 80 25 02 00 10 02  80 00 B6 00 03 01 10 09  ...%............
00B0: 80 21 00 01 8D 01 02 00  10 08 80 00 1F 01 42 45  .!............BE
00C0: 03 80 F0 FF FF 7F F0 FF  FF 7F 66 64 6F 31 02 80  ..........fdo1..
00D0: 55 03 80 F0 FF FF 7F F0  FF FF 7F 66 64 6F 31 48  U..........fdo1H
00E0: 04 80 23 48 05 80 23 48  04 80 23 48 06 80 23 48  ..#H..#H..#H..#H
00F0: 04 80 23 48 07 80 23 45  03 80 F0 FF FF 7F F0 FF  ..#H..#E........
0100: FF 7F 66 64 69 31 02 80  55 03 80 F0 FF FF 7F F0  ..fdi1..U.......
0110: FF FF 7F 66 64 69 31 03  01 10 08 80 01 8D 01 02  ...fdi1.........
0120: 00 10 0C 80 00 8D 01 42  45 03 80 F0 FF FF 7F F0  .......BE.......
0130: FF FF 7F 66 64 6F 31 02  80 55 03 80 F0 FF FF 7F  ...fdo1..U......
0140: F0 FF FF 7F 66 64 6F 31  48 04 80 23 48 0D 80 23  ....fdo1H..#H..#
0150: 48 04 80 23 48 0E 80 23  48 04 80 23 03 02 10 0F  H..#H..#H..#....
0160: 80 48 10 80 23 45 03 80  F0 FF FF 7F F0 FF FF 7F  .H..#E..........
0170: 66 64 69 31 02 80 55 03  80 F0 FF FF 7F F0 FF FF  fdi1..U.........
0180: 7F 66 64 69 31 03 01 10  0C 80 01 8D 01 01 A0 01  .fdi1...........
0190: 02 00 10 08 80 00 A0 01  03 01 10 09 80 01 A0 01  ................
01A0: 21 00                                             !.              
```

#### Opcodes

```
  0: 0x0088 [0x48] [System] [7957*]:
    → "You see a diary."
  1: 0x008B [0x23] WAIT_FOR_DIALOG_INTERACTION
  2: 0x008C [0x24] CREATE_DIALOG(message_id=7958*, default_option=0*, option_flags=0*)
    → "Read diary? [Read it./Leave it be.]"
  3: 0x0093 [0x25] WAIT_DIALOG_SELECT()
  4: 0x0094 [0x02] IF !(Work_Zone[0] == 0*) GOTO 0x0190
  5: 0x009C [0x24] CREATE_DIALOG(message_id=7959*, default_option=0*, option_flags=8*)
    → "Read which page? [On second thought, I'll pass./Page 1./Page 2./Page 3.]"
  6: 0x00A3 [0x25] WAIT_DIALOG_SELECT()
  7: 0x00A4 [0x02] IF !(Work_Zone[0] == 0*) GOTO 0x00B6
  8: 0x00AC [0x03] Work_Zone[1] = 1073741824*
  9: 0x00B1 [0x21] END_EVENT
 10: 0x00B2 [0x00] END_REQSTACK()

SUBROUTINE_018D:
 11: 0x018D [0x01] GOTO 0x01A0
 12: 0x0190 [0x02] IF !(Work_Zone[0] == 1*) GOTO 0x01A0
 13: 0x0198 [0x03] Work_Zone[1] = 1073741824*
 14: 0x019D [0x01] GOTO 0x01A0

SUBROUTINE_01A0:
 15: 0x01A0 [0x21] END_EVENT
 16: 0x01A1 [0x00] END_REQSTACK()
```

#### Data or dead code:

```
# Dead code (unreachable instructions):
     0x00B3 [0x01] GOTO 0x018D
```

### Event 641

#### Metadata

| Field        | Value     |
|--------------|-----------|
| Entrypoint   | 0x01A2    |
| Data Size    | 387 bytes |
| Instructions | 17        |

```
      00 01 02 03 04 05 06 07  08 09 0A 0B 0C 0D 0E 0F
      -- -- -- -- -- -- -- --  -- -- -- -- -- -- -- --
01A0:       48 00 80 23 24 01  80 02 80 02 80 25 02 00    H..#$......%..
01B0: 10 02 80 00 13 03 24 0A  80 02 80 02 80 25 02 00  ......$......%..
01C0: 10 02 80 00 D0 01 03 01  10 09 80 21 00 01 10 03  ...........!....
01D0: 02 00 10 08 80 00 39 02  42 45 03 80 F0 FF FF 7F  ......9.BE......
01E0: F0 FF FF 7F 66 64 6F 31  02 80 55 03 80 F0 FF FF  ....fdo1..U.....
01F0: 7F F0 FF FF 7F 66 64 6F  31 48 04 80 23 48 05 80  .....fdo1H..#H..
0200: 23 48 04 80 23 48 06 80  23 48 04 80 23 48 07 80  #H..#H..#H..#H..
0210: 23 45 03 80 F0 FF FF 7F  F0 FF FF 7F 66 64 69 31  #E..........fdi1
0220: 02 80 55 03 80 F0 FF FF  7F F0 FF FF 7F 66 64 69  ..U..........fdi
0230: 31 03 01 10 08 80 01 10  03 02 00 10 0C 80 00 A7  1...............
0240: 02 42 45 03 80 F0 FF FF  7F F0 FF FF 7F 66 64 6F  .BE..........fdo
0250: 31 02 80 55 03 80 F0 FF  FF 7F F0 FF FF 7F 66 64  1..U..........fd
0260: 6F 31 48 04 80 23 48 0D  80 23 48 04 80 23 48 0E  o1H..#H..#H..#H.
0270: 80 23 48 04 80 23 03 02  10 0F 80 48 10 80 23 45  .#H..#.....H..#E
0280: 03 80 F0 FF FF 7F F0 FF  FF 7F 66 64 69 31 02 80  ..........fdi1..
0290: 55 03 80 F0 FF FF 7F F0  FF FF 7F 66 64 69 31 03  U..........fdi1.
02A0: 01 10 0C 80 01 10 03 02  00 10 11 80 00 10 03 42  ...............B
02B0: 45 03 80 F0 FF FF 7F F0  FF FF 7F 66 64 6F 31 02  E..........fdo1.
02C0: 80 55 03 80 F0 FF FF 7F  F0 FF FF 7F 66 64 6F 31  .U..........fdo1
02D0: 48 04 80 23 48 12 80 23  48 04 80 23 48 13 80 23  H..#H..#H..#H..#
02E0: 48 04 80 23 48 14 80 23  45 03 80 F0 FF FF 7F F0  H..#H..#E.......
02F0: FF FF 7F 66 64 69 31 02  80 55 03 80 F0 FF FF 7F  ...fdi1..U......
0300: F0 FF FF 7F 66 64 69 31  03 01 10 11 80 01 10 03  ....fdi1........
0310: 01 23 03 02 00 10 08 80  00 23 03 03 01 10 09 80  .#.......#......
0320: 01 23 03 21 00                                    .#.!.           
```

#### Opcodes

```
  0: 0x01A2 [0x48] [System] [7957*]:
    → "You see a diary."
  1: 0x01A5 [0x23] WAIT_FOR_DIALOG_INTERACTION
  2: 0x01A6 [0x24] CREATE_DIALOG(message_id=7958*, default_option=0*, option_flags=0*)
    → "Read diary? [Read it./Leave it be.]"
  3: 0x01AD [0x25] WAIT_DIALOG_SELECT()
  4: 0x01AE [0x02] IF !(Work_Zone[0] == 0*) GOTO 0x0313
  5: 0x01B6 [0x24] CREATE_DIALOG(message_id=7959*, default_option=0*, option_flags=0*)
    → "Read which page? [On second thought, I'll pass./Page 1./Page 2./Page 3.]"
  6: 0x01BD [0x25] WAIT_DIALOG_SELECT()
  7: 0x01BE [0x02] IF !(Work_Zone[0] == 0*) GOTO 0x01D0
  8: 0x01C6 [0x03] Work_Zone[1] = 1073741824*
  9: 0x01CB [0x21] END_EVENT
 10: 0x01CC [0x00] END_REQSTACK()

SUBROUTINE_0310:
 11: 0x0310 [0x01] GOTO 0x0323
 12: 0x0313 [0x02] IF !(Work_Zone[0] == 1*) GOTO 0x0323
 13: 0x031B [0x03] Work_Zone[1] = 1073741824*
 14: 0x0320 [0x01] GOTO 0x0323

SUBROUTINE_0323:
 15: 0x0323 [0x21] END_EVENT
 16: 0x0324 [0x00] END_REQSTACK()
```

#### Data or dead code:

```
# Dead code (unreachable instructions):
     0x01CD [0x01] GOTO 0x0310
```

### Event 722

#### Metadata

| Field        | Value     |
|--------------|-----------|
| Entrypoint   | 0x0325    |
| Data Size    | 516 bytes |
| Instructions | 17        |

```
      00 01 02 03 04 05 06 07  08 09 0A 0B 0C 0D 0E 0F
      -- -- -- -- -- -- -- --  -- -- -- -- -- -- -- --
0320:                48 00 80  23 24 01 80 02 80 02 80       H..#$......
0330: 25 02 00 10 02 80 00 17  05 24 15 80 02 80 02 80  %........$......
0340: 25 02 00 10 02 80 00 53  03 03 01 10 09 80 21 00  %......S......!.
0350: 01 14 05 02 00 10 08 80  00 BC 03 42 45 03 80 F0  ...........BE...
0360: FF FF 7F F0 FF FF 7F 66  64 6F 31 02 80 55 03 80  .......fdo1..U..
0370: F0 FF FF 7F F0 FF FF 7F  66 64 6F 31 48 04 80 23  ........fdo1H..#
0380: 48 05 80 23 48 04 80 23  48 06 80 23 48 04 80 23  H..#H..#H..#H..#
0390: 48 07 80 23 45 03 80 F0  FF FF 7F F0 FF FF 7F 66  H..#E..........f
03A0: 64 69 31 02 80 55 03 80  F0 FF FF 7F F0 FF FF 7F  di1..U..........
03B0: 66 64 69 31 03 01 10 08  80 01 14 05 02 00 10 0C  fdi1............
03C0: 80 00 2A 04 42 45 03 80  F0 FF FF 7F F0 FF FF 7F  ..*.BE..........
03D0: 66 64 6F 31 02 80 55 03  80 F0 FF FF 7F F0 FF FF  fdo1..U.........
03E0: 7F 66 64 6F 31 48 04 80  23 48 0D 80 23 48 04 80  .fdo1H..#H..#H..
03F0: 23 48 0E 80 23 48 04 80  23 03 02 10 0F 80 48 10  #H..#H..#.....H.
0400: 80 23 45 03 80 F0 FF FF  7F F0 FF FF 7F 66 64 69  .#E..........fdi
0410: 31 02 80 55 03 80 F0 FF  FF 7F F0 FF FF 7F 66 64  1..U..........fd
0420: 69 31 03 01 10 0C 80 01  14 05 02 00 10 11 80 00  i1..............
0430: 93 04 42 45 03 80 F0 FF  FF 7F F0 FF FF 7F 66 64  ..BE..........fd
0440: 6F 31 02 80 55 03 80 F0  FF FF 7F F0 FF FF 7F 66  o1..U..........f
0450: 64 6F 31 48 04 80 23 48  12 80 23 48 04 80 23 48  do1H..#H..#H..#H
0460: 13 80 23 48 04 80 23 48  14 80 23 45 03 80 F0 FF  ..#H..#H..#E....
0470: FF 7F F0 FF FF 7F 66 64  69 31 02 80 55 03 80 F0  ......fdi1..U...
0480: FF FF 7F F0 FF FF 7F 66  64 69 31 03 01 10 11 80  .......fdi1.....
0490: 01 14 05 02 00 10 16 80  00 14 05 42 45 03 80 F0  ...........BE...
04A0: FF FF 7F F0 FF FF 7F 66  64 6F 31 02 80 55 03 80  .......fdo1..U..
04B0: F0 FF FF 7F F0 FF FF 7F  66 64 6F 31 48 04 80 23  ........fdo1H..#
04C0: 48 17 80 23 48 04 80 23  48 18 80 23 48 04 80 23  H..#H..#H..#H..#
04D0: 48 19 80 23 48 04 80 23  48 1A 80 23 48 04 80 23  H..#H..#H..#H..#
04E0: 48 1B 80 23 48 04 80 23  48 1C 80 23 45 03 80 F0  H..#H..#H..#E...
04F0: FF FF 7F F0 FF FF 7F 66  64 69 31 02 80 55 03 80  .......fdi1..U..
0500: F0 FF FF 7F F0 FF FF 7F  66 64 69 31 03 01 10 16  ........fdi1....
0510: 80 01 14 05 01 27 05 02  00 10 08 80 00 27 05 03  .....'.......'..
0520: 01 10 09 80 01 27 05 21  00                       .....'.!.       
```

#### Opcodes

```
  0: 0x0325 [0x48] [System] [7957*]:
    → "You see a diary."
  1: 0x0328 [0x23] WAIT_FOR_DIALOG_INTERACTION
  2: 0x0329 [0x24] CREATE_DIALOG(message_id=7958*, default_option=0*, option_flags=0*)
    → "Read diary? [Read it./Leave it be.]"
  3: 0x0330 [0x25] WAIT_DIALOG_SELECT()
  4: 0x0331 [0x02] IF !(Work_Zone[0] == 0*) GOTO 0x0517
  5: 0x0339 [0x24] CREATE_DIALOG(message_id=9672*, default_option=0*, option_flags=0*)
    → "Read which page? [On second thought, I'll pass./Page 1./Page 2./Page 3./Page 4.]"
  6: 0x0340 [0x25] WAIT_DIALOG_SELECT()
  7: 0x0341 [0x02] IF !(Work_Zone[0] == 0*) GOTO 0x0353
  8: 0x0349 [0x03] Work_Zone[1] = 1073741824*
  9: 0x034E [0x21] END_EVENT
 10: 0x034F [0x00] END_REQSTACK()

SUBROUTINE_0514:
 11: 0x0514 [0x01] GOTO 0x0527
 12: 0x0517 [0x02] IF !(Work_Zone[0] == 1*) GOTO 0x0527
 13: 0x051F [0x03] Work_Zone[1] = 1073741824*
 14: 0x0524 [0x01] GOTO 0x0527

SUBROUTINE_0527:
 15: 0x0527 [0x21] END_EVENT
 16: 0x0528 [0x00] END_REQSTACK()
```

#### Data or dead code:

```
# Dead code (unreachable instructions):
     0x0350 [0x01] GOTO 0x0514
```

### Event 723

#### Metadata

| Field        | Value     |
|--------------|-----------|
| Entrypoint   | 0x0529    |
| Data Size    | 508 bytes |
| Instructions | 17        |

```
      00 01 02 03 04 05 06 07  08 09 0A 0B 0C 0D 0E 0F
      -- -- -- -- -- -- -- --  -- -- -- -- -- -- -- --
0520:                             48 00 80 23 24 01 80           H..#$..
0530: 02 80 02 80 25 02 00 10  02 80 00 13 07 24 15 80  ....%........$..
0540: 02 80 02 80 25 02 00 10  02 80 00 57 05 03 01 10  ....%......W....
0550: 09 80 21 00 01 10 07 02  00 10 08 80 00 C0 05 42  ..!............B
0560: 45 03 80 F0 FF FF 7F F0  FF FF 7F 66 64 6F 31 02  E..........fdo1.
0570: 80 55 03 80 F0 FF FF 7F  F0 FF FF 7F 66 64 6F 31  .U..........fdo1
0580: 48 04 80 23 48 05 80 23  48 04 80 23 48 06 80 23  H..#H..#H..#H..#
0590: 48 04 80 23 48 07 80 23  45 03 80 F0 FF FF 7F F0  H..#H..#E.......
05A0: FF FF 7F 66 64 69 31 02  80 55 03 80 F0 FF FF 7F  ...fdi1..U......
05B0: F0 FF FF 7F 66 64 69 31  03 01 10 08 80 01 10 07  ....fdi1........
05C0: 02 00 10 0C 80 00 2E 06  42 45 03 80 F0 FF FF 7F  ........BE......
05D0: F0 FF FF 7F 66 64 6F 31  02 80 55 03 80 F0 FF FF  ....fdo1..U.....
05E0: 7F F0 FF FF 7F 66 64 6F  31 48 04 80 23 48 0D 80  .....fdo1H..#H..
05F0: 23 48 04 80 23 48 0E 80  23 48 04 80 23 03 02 10  #H..#H..#H..#...
0600: 0F 80 48 10 80 23 45 03  80 F0 FF FF 7F F0 FF FF  ..H..#E.........
0610: 7F 66 64 69 31 02 80 55  03 80 F0 FF FF 7F F0 FF  .fdi1..U........
0620: FF 7F 66 64 69 31 03 01  10 0C 80 01 10 07 02 00  ..fdi1..........
0630: 10 11 80 00 97 06 42 45  03 80 F0 FF FF 7F F0 FF  ......BE........
0640: FF 7F 66 64 6F 31 02 80  55 03 80 F0 FF FF 7F F0  ..fdo1..U.......
0650: FF FF 7F 66 64 6F 31 48  04 80 23 48 12 80 23 48  ...fdo1H..#H..#H
0660: 04 80 23 48 13 80 23 48  04 80 23 48 14 80 23 45  ..#H..#H..#H..#E
0670: 03 80 F0 FF FF 7F F0 FF  FF 7F 66 64 69 31 02 80  ..........fdi1..
0680: 55 03 80 F0 FF FF 7F F0  FF FF 7F 66 64 69 31 03  U..........fdi1.
0690: 01 10 11 80 01 10 07 02  00 10 16 80 00 10 07 42  ...............B
06A0: 45 03 80 F0 FF FF 7F F0  FF FF 7F 66 64 6F 31 02  E..........fdo1.
06B0: 80 55 03 80 F0 FF FF 7F  F0 FF FF 7F 66 64 6F 31  .U..........fdo1
06C0: 48 04 80 23 48 17 80 23  48 04 80 23 48 19 80 23  H..#H..#H..#H..#
06D0: 48 04 80 23 48 1A 80 23  48 04 80 23 48 1B 80 23  H..#H..#H..#H..#
06E0: 48 04 80 23 48 1C 80 23  45 03 80 F0 FF FF 7F F0  H..#H..#E.......
06F0: FF FF 7F 66 64 69 31 02  80 55 03 80 F0 FF FF 7F  ...fdi1..U......
0700: F0 FF FF 7F 66 64 69 31  03 01 10 16 80 01 10 07  ....fdi1........
0710: 01 23 07 02 00 10 08 80  00 23 07 03 01 10 09 80  .#.......#......
0720: 01 23 07 21 00                                    .#.!.           
```

#### Opcodes

```
  0: 0x0529 [0x48] [System] [7957*]:
    → "You see a diary."
  1: 0x052C [0x23] WAIT_FOR_DIALOG_INTERACTION
  2: 0x052D [0x24] CREATE_DIALOG(message_id=7958*, default_option=0*, option_flags=0*)
    → "Read diary? [Read it./Leave it be.]"
  3: 0x0534 [0x25] WAIT_DIALOG_SELECT()
  4: 0x0535 [0x02] IF !(Work_Zone[0] == 0*) GOTO 0x0713
  5: 0x053D [0x24] CREATE_DIALOG(message_id=9672*, default_option=0*, option_flags=0*)
    → "Read which page? [On second thought, I'll pass./Page 1./Page 2./Page 3./Page 4.]"
  6: 0x0544 [0x25] WAIT_DIALOG_SELECT()
  7: 0x0545 [0x02] IF !(Work_Zone[0] == 0*) GOTO 0x0557
  8: 0x054D [0x03] Work_Zone[1] = 1073741824*
  9: 0x0552 [0x21] END_EVENT
 10: 0x0553 [0x00] END_REQSTACK()

SUBROUTINE_0710:
 11: 0x0710 [0x01] GOTO 0x0723
 12: 0x0713 [0x02] IF !(Work_Zone[0] == 1*) GOTO 0x0723
 13: 0x071B [0x03] Work_Zone[1] = 1073741824*
 14: 0x0720 [0x01] GOTO 0x0723

SUBROUTINE_0723:
 15: 0x0723 [0x21] END_EVENT
 16: 0x0724 [0x00] END_REQSTACK()
```

#### Data or dead code:

```
# Dead code (unreachable instructions):
     0x0554 [0x01] GOTO 0x0710
```
