# 17719965

## Common Data

| Field            | Value                         |
|------------------|-------------------------------|
| Zone             | Southern San d'Oria (ID: 230) |
| Block Size       | 7424 bytes                    |
| Total Events     | 9                             |
| References Count | 137                           |

## List of Events

| Event ID              | Entrypoint   |   Size |   Instructions |
|-----------------------|--------------|--------|----------------|
| [65535](#event-65535) | 0x0000       |      1 |              1 |
| [3508](#event-3508)   | 0x0001       |   3532 |            445 |
| [3509](#event-3509)   | 0x0DCD       |   2690 |            399 |
| [3510](#event-3510)   | 0x184F       |     38 |              9 |
| [3511](#event-3511)   | 0x1875       |    151 |             35 |
| [3512](#event-3512)   | 0x190C       |     38 |              9 |
| [3513](#event-3513)   | 0x1932       |    151 |             35 |
| [3514](#event-3514)   | 0x19C9       |     38 |              9 |
| [3515](#event-3515)   | 0x19EF       |    183 |             43 |

## DAT References (imed_data)

|   Index | Hex Value   |   Dec Value |
|---------|-------------|-------------|
|       0 | 0x00C8      |         200 |
|       1 | 0x0000      |           0 |
|       2 | 0x0013      |          19 |
|       3 | 0xFFFF15A0  |  4294907296 |
|       4 | 0xFFFFB1E0  |  4294947296 |
|       5 | 0x07D0      |        2000 |
|       6 | 0x07FF      |        2047 |
|       7 | 0x0081      |         129 |
|       8 | 0xFFFEF660  |  4294899296 |
|       9 | 0x027F      |         639 |
|      10 | 0x00D2      |         210 |
|      11 | 0x0005      |           5 |
|      12 | 0x000A      |          10 |
|      13 | 0x000F      |          15 |
|      14 | 0x001E      |          30 |
|      15 | 0x0006      |           6 |
|      16 | 0x0014      |          20 |
|      17 | 0x3BC6      |       15302 |
|      18 | 0x0060      |          96 |
|      19 | 0xFFFEEBCA  |  4294896586 |
|      20 | 0xFFFFAF15  |  4294946581 |
|      21 | 0x06BA      |        1722 |
|      22 | 0x02DA      |         730 |
|      23 | 0x0320      |         800 |
|      24 | 0x3BC7      |       15303 |
|      25 | 0x0003      |           3 |
|      26 | 0x003C      |          60 |
|      27 | 0xFFFEEBD9  |  4294896601 |
|      28 | 0xFFFFAF10  |  4294946576 |
|      29 | 0x070D      |        1805 |
|      30 | 0x02D0      |         720 |
|      31 | 0x3BC8      |       15304 |
|      32 | 0x002D      |          45 |
|      33 | 0x0007      |           7 |
|      34 | 0x3BC9      |       15305 |
|      35 | 0x3BCA      |       15306 |
|      36 | 0x3BCB      |       15307 |
|      37 | 0x3BCC      |       15308 |
|      38 | 0x3BCD      |       15309 |
|      39 | 0x3BCE      |       15310 |
|      40 | 0x3BCF      |       15311 |
|      41 | 0x3BD0      |       15312 |
|      42 | 0x3BD1      |       15313 |
|      43 | 0x3BD2      |       15314 |
|      44 | 0x3BD3      |       15315 |
|      45 | 0x3BD4      |       15316 |
|      46 | 0x3BD5      |       15317 |
|      47 | 0x3BD6      |       15318 |
|      48 | 0x3BD7      |       15319 |
|      49 | 0x3BD8      |       15320 |
|      50 | 0x3BD9      |       15321 |
|      51 | 0x3BDA      |       15322 |
|      52 | 0x3BDB      |       15323 |
|      53 | 0x3BDC      |       15324 |
|      54 | 0x3BDD      |       15325 |
|      55 | 0x3BDE      |       15326 |
|      56 | 0x3BDF      |       15327 |
|      57 | 0x05FF      |        1535 |
|      58 | 0x3BE0      |       15328 |
|      59 | 0x0088      |         136 |
|      60 | 0x3BE1      |       15329 |
|      61 | 0x3BE2      |       15330 |
|      62 | 0x3BE3      |       15331 |
|      63 | 0x3BE4      |       15332 |
|      64 | 0x0078      |         120 |
|      65 | 0x3BE5      |       15333 |
|      66 | 0x3BE6      |       15334 |
|      67 | 0x3BE7      |       15335 |
|      68 | 0x3BE8      |       15336 |
|      69 | 0x3BE9      |       15337 |
|      70 | 0x3BEA      |       15338 |
|      71 | 0x3BEB      |       15339 |
|      72 | 0xFFFEE97C  |  4294895996 |
|      73 | 0xFFFFAA74  |  4294945396 |
|      74 | 0x06D6      |        1750 |
|      75 | 0x0016      |          22 |
|      76 | 0x3BEC      |       15340 |
|      77 | 0x3BED      |       15341 |
|      78 | 0x3BEE      |       15342 |
|      79 | 0x3BEF      |       15343 |
|      80 | 0x3BF0      |       15344 |
|      81 | 0x3BF1      |       15345 |
|      82 | 0x3BF2      |       15346 |
|      83 | 0x3BF3      |       15347 |
|      84 | 0x007A      |         122 |
|      85 | 0x010E      |         270 |
|      86 | 0x0001      |           1 |
|      87 | 0x3BF4      |       15348 |
|      88 | 0x006B      |         107 |
|      89 | 0x0009      |           9 |
|      90 | 0x001D      |          29 |
|      91 | 0x3C01      |       15361 |
|      92 | 0x3BF8      |       15352 |
|      93 | 0x3BF9      |       15353 |
|      94 | 0x3BFA      |       15354 |
|      95 | 0x3BF5      |       15349 |
|      96 | 0x3BF6      |       15350 |
|      97 | 0x0002      |           2 |
|      98 | 0x3BF7      |       15351 |
|      99 | 0x0004      |           4 |
|     100 | 0x3BFB      |       15355 |
|     101 | 0x3BFD      |       15357 |
|     102 | 0x3BFE      |       15358 |
|     103 | 0x3C00      |       15360 |
|     104 | 0x01E0      |         480 |
|     105 | 0x00B4      |         180 |
|     106 | 0x3BFF      |       15359 |
|     107 | 0x3BFC      |       15356 |
|     108 | 0x0008      |           8 |
|     109 | 0x003F      |          63 |
|     110 | 0x3C02      |       15362 |
|     111 | 0x3C05      |       15365 |
|     112 | 0x3C03      |       15363 |
|     113 | 0x3C04      |       15364 |
|     114 | 0xFFFFFFFF  |  4294967295 |
|     115 | 0x3C08      |       15368 |
|     116 | 0x3C09      |       15369 |
|     117 | 0x3C06      |       15366 |
|     118 | 0x03FC      |        1020 |
|     119 | 0x03F3      |        1011 |
|     120 | 0x03CF      |         975 |
|     121 | 0x3C07      |       15367 |
|     122 | 0x3C0B      |       15371 |
|     123 | 0x3C0A      |       15370 |
|     124 | 0x3C0E      |       15374 |
|     125 | 0x3C0C      |       15372 |
|     126 | 0x3C0D      |       15373 |
|     127 | 0x6CE0      |       27872 |
|     128 | 0x6CE1      |       27873 |
|     129 | 0x5279      |       21113 |
|     130 | 0x527A      |       21114 |
|     131 | 0x6CFE      |       27902 |
|     132 | 0x527E      |       21118 |
|     133 | 0x1831      |        6193 |
|     134 | 0x1830      |        6192 |
|     135 | 0x182F      |        6191 |
|     136 | 0x182E      |        6190 |

## String References

- **15346**: Be teleported outside of town? [You bet!/I don't think so.]
- **15350**: What will you do? [Spin the wheel! ($0 chartruese shard[/s])/Spin the wheel! ($1 vermilion shard[/s])/Spin the wheel! ($2 mauve shard[/s])/Check the item list./Warp outside town./Nothing.]
- **15355**: You are on a hot streak!
- **15356**: Your hot streak has burned out.
- **15362**: [What would you like/View which item]? [$1./$2./$3./$4./$5./$6./$7./$8./$9./$10./[I'll decide later/I'm done].]
- **15364**: Really select that item? [Undoubtedly./Let me think on it.]
- **15366**: View which category? [First prize./Second prize./Third prize./Booby prize./None for now.]

## Events

### Event 65535

#### Metadata

| Field        | Value   |
|--------------|---------|
| Entrypoint   | 0x0000  |
| Data Size    | 1 bytes |
| Instructions | 1       |

```
      00 01 02 03 04 05 06 07  08 09 0A 0B 0C 0D 0E 0F
      -- -- -- -- -- -- -- --  -- -- -- -- -- -- -- --
0000: 00                                                .               
```

#### Opcodes

```
  0: 0x0000 [0x00] END_REQSTACK()
```

### Event 3508

#### Metadata

| Field        | Value      |
|--------------|------------|
| Entrypoint   | 0x0001     |
| Data Size    | 3532 bytes |
| Instructions | 445        |

```
      00 01 02 03 04 05 06 07  08 09 0A 0B 0C 0D 0E 0F
      -- -- -- -- -- -- -- --  -- -- -- -- -- -- -- --
0000:    03 00 00 02 10 42 45  00 80 F0 FF FF 7F F0 FF   .....BE........
0010: FF 7F 66 64 6F 31 01 80  55 00 80 F0 FF FF 7F F0  ..fdo1..U.......
0020: FF FF 7F 66 64 6F 31 46  01 38 02 80 2F 00 A2 62  ...fdo1F.8../..b
0030: 0E 01 2F 00 A3 62 0E 01  4E 00 A2 62 0E 01 4E 00  ../..b..N..b..N.
0040: A3 62 0E 01 92 01 9E 62  0E 01 92 01 9F 62 0E 01  .b.....b.....b..
0050: 92 01 A0 62 0E 01 92 01  A1 62 0E 01 94 01 9E 62  ...b.....b.....b
0060: 0E 01 94 01 9F 62 0E 01  94 01 A0 62 0E 01 94 01  .....b.....b....
0070: A1 62 0E 01 94 01 F0 FF  FF 7F 4A F0 FF FF 7F F0  .b........J.....
0080: FF FF 7F BA F0 FF FF 7F  03 80 04 80 05 80 06 80  ................
0090: 4A 9E 62 0E 01 9F 62 0E  01 4A 9F 62 0E 01 9E 62  J.b...b..J.b...b
00A0: 0E 01 4A A0 62 0E 01 9E  62 0E 01 4A A1 62 0E 01  ..J.b...b..J.b..
00B0: 9E 62 0E 01 6F 76 9E 62  0E 01 6F 76 9F 62 0E 01  .b..ov.b..ov.b..
00C0: 6F 76 A0 62 0E 01 6F 76  A1 62 0E 01 80 9E 62 0E  ov.b..ov.b....b.
00D0: 01 80 9F 62 0E 01 80 A0  62 0E 01 80 A1 62 0E 01  ...b....b....b..
00E0: 80 F0 FF FF 7F 92 01 71  60 0E 01 5C 00 07 80 5C  .......q`..\...\
00F0: 01 07 80 9A 03 0B 17 08  80 03 0C 17 04 80 03 0D  ................
0100: 17 05 80 27 10 F0 FF FF  7F AB 2C 9E 62 0E 01 9E  ...'......,.b...
0110: 62 0E 01 65 78 70 30 45  09 80 F8 FF FF 7F F8 FF  b..exp0E........
0120: FF 7F 73 35 33 36 01 80  45 00 80 F0 FF FF 7F F0  ..s536..E.......
0130: FF FF 7F 66 64 69 31 01  80 1C 0A 80 2C 9E 62 0E  ...fdi1.....,.b.
0140: 01 9E 62 0E 01 65 78 70  31 53 9E 62 0E 01 9E 62  ..b..exp1S.b...b
0150: 0E 01 65 78 70 31 4A 9F  62 0E 01 F0 FF FF 7F 1C  ..exp1J.b.......
0160: 0B 80 4A A0 62 0E 01 F0  FF FF 7F 1C 0C 80 4A A1  ..J.b.........J.
0170: 62 0E 01 F0 FF FF 7F 1C  0D 80 4A 9E 62 0E 01 F0  b.........J.b...
0180: FF FF 7F 6F 76 9E 62 0E  01 1C 0E 80 52 09 80 F8  ...ov.b.....R...
0190: FF FF 7F F8 FF FF 7F 73  35 33 36 02 87 7F 0B 80  .......s536.....
01A0: 80 B7 01 45 09 80 F8 FF  FF 7F F8 FF FF 7F 73 35  ...E..........s5
01B0: 33 38 01 80 01 E4 01 02  87 7F 0F 80 80 D3 01 45  38.............E
01C0: 09 80 F8 FF FF 7F F8 FF  FF 7F 73 35 33 38 01 80  ..........s538..
01D0: 01 E4 01 45 09 80 F8 FF  FF 7F F8 FF FF 7F 73 35  ...E..........s5
01E0: 33 37 01 80 2A 10 F0 FF  FF 7F 4A 9E 62 0E 01 F0  37..*.....J.b...
01F0: FF FF 7F 1C 10 80 4A 9F  62 0E 01 F0 FF FF 7F 1C  ......J.b.......
0200: 0C 80 4A A0 62 0E 01 F0  FF FF 7F 4A A1 62 0E 01  ..J.b......J.b..
0210: F0 FF FF 7F 4A F0 FF FF  7F 9E 62 0E 01 6F 76 F0  ....J.....b..ov.
0220: FF FF 7F 4A 9F 62 0E 01  F0 FF FF 7F 4A A0 62 0E  ...J.b......J.b.
0230: 01 F0 FF FF 7F 4A A1 62  0E 01 F0 FF FF 7F 2C 9E  .....J.b......,.
0240: 62 0E 01 9E 62 0E 01 6E  65 77 30 2B 9E 62 0E 01  b...b..new0+.b..
0250: 11 80 23 2C 9E 62 0E 01  9E 62 0E 01 6E 65 77 31  ..#,.b...b..new1
0260: 53 9E 62 0E 01 9E 62 0E  01 6E 65 77 31 4A F0 FF  S.b...b..new1J..
0270: FF 7F 9F 62 0E 01 02 87  7F 0B 80 80 90 02 52 09  ...b..........R.
0280: 80 F8 FF FF 7F F8 FF FF  7F 73 35 33 38 01 B9 02  .........s538...
0290: 02 87 7F 0F 80 80 AA 02  52 09 80 F8 FF FF 7F F8  ........R.......
02A0: FF FF 7F 73 35 33 38 01  B9 02 52 09 80 F8 FF FF  ...s538...R.....
02B0: 7F F8 FF FF 7F 73 35 33  37 45 09 80 F8 FF FF 7F  .....s537E......
02C0: F8 FF FF 7F 73 35 32 38  01 80 9F 12 80 F8 FF FF  ....s528........
02D0: 7F F8 FF FF 7F 6D 61 69  6E 01 80 33 01 A4 01 36  .....main..3...6
02E0: 13 80 14 80 15 80 59 05  A2 62 0E 01 01 59 05 A3  ......Y..b...Y..
02F0: 62 0E 01 01 03 01 00 13  80 03 02 00 14 80 08 02  b...............
0300: 00 16 80 BA A2 62 0E 01  01 00 02 00 15 80 01 80  .....b..........
0310: 08 01 00 17 80 07 02 00  16 80 BA A3 62 0E 01 01  ............b...
0320: 00 02 00 15 80 01 80 1C  0E 80 2B 9E 62 0E 01 18  ..........+.b...
0330: 80 23 62 19 80 F8 FF FF  7F F8 FF FF 7F 6D 61 69  .#b..........mai
0340: 6E 01 80 62 19 80 A2 62  0E 01 A2 62 0E 01 6D 61  n..b...b...b..ma
0350: 69 6E 01 80 62 19 80 A3  62 0E 01 A3 62 0E 01 6D  in..b...b...b..m
0360: 61 69 6E 01 80 1C 1A 80  52 09 80 F8 FF FF 7F F8  ain.....R.......
0370: FF FF 7F 73 35 32 38 45  09 80 F8 FF FF 7F F8 FF  ...s528E........
0380: FF 7F 73 35 32 39 01 80  36 1B 80 1C 80 1D 80 03  ..s529..6.......
0390: 01 00 1B 80 03 02 00 1C  80 08 02 00 1E 80 BA A2  ................
03A0: 62 0E 01 01 00 02 00 1D  80 01 80 08 01 00 17 80  b...............
03B0: 07 02 00 1E 80 BA A3 62  0E 01 01 00 02 00 1D 80  .......b........
03C0: 01 80 1C 0E 80 2B 9E 62  0E 01 1F 80 23 62 19 80  .....+.b....#b..
03D0: F8 FF FF 7F F8 FF FF 7F  6D 61 69 6E 01 80 62 19  ........main..b.
03E0: 80 A2 62 0E 01 A2 62 0E  01 6D 61 69 6E 01 80 62  ..b...b..main..b
03F0: 19 80 A3 62 0E 01 A3 62  0E 01 6D 61 69 6E 01 80  ...b...b..main..
0400: 1C 1A 80 9F 12 80 F8 FF  FF 7F F8 FF FF 7F 6B 69  ..............ki
0410: 6C 6C 01 80 A2 12 80 F8  FF FF 7F F8 FF FF 7F 6B  ll.............k
0420: 69 6C 6C 1C 20 80 52 09  80 F8 FF FF 7F F8 FF FF  ill. .R.........
0430: 7F 73 35 32 39 45 09 80  F8 FF FF 7F F8 FF FF 7F  .s529E..........
0440: 73 35 33 39 01 80 1C 0D  80 4A F0 FF FF 7F 9E 62  s539.....J.....b
0450: 0E 01 6F 76 F0 FF FF 7F  02 00 00 21 80 00 C0 04  ..ov.......!....
0460: 27 10 F0 FF FF 7F AA 2A  10 F0 FF FF 7F 1C 0D 80  '......*........
0470: 2C 9E 62 0E 01 9E 62 0E  01 74 6C 6B 30 2B 9E 62  ,.b...b..tlk0+.b
0480: 0E 01 22 80 23 2B 9E 62  0E 01 23 80 23 2B 9E 62  ..".#+.b..#.#+.b
0490: 0E 01 24 80 23 2B 9E 62  0E 01 25 80 23 52 09 80  ..$.#+.b..%.#R..
04A0: F8 FF FF 7F F8 FF FF 7F  73 35 33 39 45 09 80 F8  ........s539E...
04B0: FF FF 7F F8 FF FF 7F 73  35 32 35 01 80 01 52 05  .......s525...R.
04C0: 2C 9E 62 0E 01 9E 62 0E  01 74 6C 6B 30 2B 9E 62  ,.b...b..tlk0+.b
04D0: 0E 01 26 80 23 2B 9E 62  0E 01 27 80 23 2B 9E 62  ..&.#+.b..'.#+.b
04E0: 0E 01 28 80 23 2B 9E 62  0E 01 29 80 23 52 09 80  ..(.#+.b..).#R..
04F0: F8 FF FF 7F F8 FF FF 7F  73 35 33 39 45 09 80 F8  ........s539E...
0500: FF FF 7F F8 FF FF 7F 73  35 32 34 01 80 2C 9E 62  .......s524..,.b
0510: 0E 01 9E 62 0E 01 74 6C  6B 30 2B 9E 62 0E 01 2A  ...b..tlk0+.b..*
0520: 80 23 2B 9E 62 0E 01 2B  80 23 2B 9E 62 0E 01 2C  .#+.b..+.#+.b..,
0530: 80 23 52 09 80 F8 FF FF  7F F8 FF FF 7F 73 35 32  .#R..........s52
0540: 34 45 09 80 F8 FF FF 7F  F8 FF FF 7F 73 35 32 35  4E..........s525
0550: 01 80 2C 9E 62 0E 01 9E  62 0E 01 65 78 70 30 2B  ..,.b...b..exp0+
0560: 9E 62 0E 01 2D 80 23 2B  9E 62 0E 01 2E 80 23 2C  .b..-.#+.b....#,
0570: 9E 62 0E 01 9E 62 0E 01  68 61 70 30 2B 9E 62 0E  .b...b..hap0+.b.
0580: 01 2F 80 23 2C 9E 62 0E  01 9E 62 0E 01 68 61 70  ./.#,.b...b..hap
0590: 31 4E 01 9F 62 0E 01 4E  01 A0 62 0E 01 4E 01 A1  1N..b..N..b..N..
05A0: 62 0E 01 52 09 80 F8 FF  FF 7F F8 FF FF 7F 73 35  b..R..........s5
05B0: 32 35 02 87 7F 0B 80 80  CE 05 45 09 80 F8 FF FF  25........E.....
05C0: 7F F8 FF FF 7F 73 35 30  37 01 80 01 FB 05 02 87  .....s507.......
05D0: 7F 0F 80 80 EA 05 45 09  80 F8 FF FF 7F F8 FF FF  ......E.........
05E0: 7F 73 35 30 37 01 80 01  FB 05 45 09 80 F8 FF FF  .s507.....E.....
05F0: 7F F8 FF FF 7F 73 35 30  36 01 80 27 10 F0 FF FF  .....s506..'....
0600: 7F AA 2A 10 F0 FF FF 7F  1C 0D 80 2C 9E 62 0E 01  ..*........,.b..
0610: 9E 62 0E 01 74 6C 6B 30  2B 9E 62 0E 01 30 80 23  .b..tlk0+.b..0.#
0620: 2B 9E 62 0E 01 31 80 23  1C 0E 80 4E 00 9F 62 0E  +.b..1.#...N..b.
0630: 01 4E 00 A0 62 0E 01 4E  00 A1 62 0E 01 02 87 7F  .N..b..N..b.....
0640: 0B 80 80 57 06 52 09 80  F8 FF FF 7F F8 FF FF 7F  ...W.R..........
0650: 73 35 30 37 01 80 06 02  87 7F 0F 80 80 71 06 52  s507.........q.R
0660: 09 80 F8 FF FF 7F F8 FF  FF 7F 73 35 30 37 01 80  ..........s507..
0670: 06 52 09 80 F8 FF FF 7F  F8 FF FF 7F 73 35 30 36  .R..........s506
0680: 45 09 80 F8 FF FF 7F F8  FF FF 7F 73 35 32 38 01  E..........s528.
0690: 80 9F 12 80 F8 FF FF 7F  F8 FF FF 7F 6D 61 69 6E  ............main
06A0: 01 80 33 01 A4 01 36 13  80 14 80 15 80 03 01 00  ..3...6.........
06B0: 13 80 03 02 00 14 80 08  02 00 16 80 BA A2 62 0E  ..............b.
06C0: 01 01 00 02 00 15 80 01  80 08 01 00 17 80 07 02  ................
06D0: 00 16 80 BA A3 62 0E 01  01 00 02 00 15 80 01 80  .....b..........
06E0: 1C 0E 80 2B 9E 62 0E 01  18 80 23 62 19 80 F8 FF  ...+.b....#b....
06F0: FF 7F F8 FF FF 7F 6D 61  69 6E 01 80 62 19 80 A2  ......main..b...
0700: 62 0E 01 A2 62 0E 01 6D  61 69 6E 01 80 62 19 80  b...b..main..b..
0710: A3 62 0E 01 A3 62 0E 01  6D 61 69 6E 01 80 1C 1A  .b...b..main....
0720: 80 52 09 80 F8 FF FF 7F  F8 FF FF 7F 73 35 32 38  .R..........s528
0730: 45 09 80 F8 FF FF 7F F8  FF FF 7F 73 35 32 39 01  E..........s529.
0740: 80 36 1B 80 1C 80 1D 80  59 05 A2 62 0E 01 01 59  .6......Y..b...Y
0750: 05 A3 62 0E 01 01 03 01  00 1B 80 03 02 00 1C 80  ..b.............
0760: 08 02 00 1E 80 BA A2 62  0E 01 01 00 02 00 1D 80  .......b........
0770: 01 80 08 01 00 17 80 07  02 00 1E 80 BA A3 62 0E  ..............b.
0780: 01 01 00 02 00 1D 80 01  80 1C 0E 80 2B 9E 62 0E  ............+.b.
0790: 01 1F 80 23 62 19 80 F8  FF FF 7F F8 FF FF 7F 6D  ...#b..........m
07A0: 61 69 6E 01 80 62 19 80  A2 62 0E 01 A2 62 0E 01  ain..b...b...b..
07B0: 6D 61 69 6E 01 80 62 19  80 A3 62 0E 01 A3 62 0E  main..b...b...b.
07C0: 01 6D 61 69 6E 01 80 1C  1A 80 9F 12 80 F8 FF FF  .main...........
07D0: 7F F8 FF FF 7F 6B 69 6C  6C 01 80 A2 12 80 F8 FF  .....kill.......
07E0: FF 7F F8 FF FF 7F 6B 69  6C 6C 1C 20 80 52 09 80  ......kill. .R..
07F0: F8 FF FF 7F F8 FF FF 7F  73 35 32 39 45 09 80 F8  ........s529E...
0800: FF FF 7F F8 FF FF 7F 73  35 32 36 01 80 4A 9E 62  .......s526..J.b
0810: 0E 01 9F 62 0E 01 6F 76  9E 62 0E 01 2C 9E 62 0E  ...b..ov.b..,.b.
0820: 01 9E 62 0E 01 74 6C 6B  30 2B 9E 62 0E 01 32 80  ..b..tlk0+.b..2.
0830: 23 4A 9E 62 0E 01 9F 62  0E 01 6F 76 9E 62 0E 01  #J.b...b..ov.b..
0840: 2B 9E 62 0E 01 33 80 23  2C 9E 62 0E 01 9E 62 0E  +.b..3.#,.b...b.
0850: 01 68 61 70 30 2B 9E 62  0E 01 34 80 23 2C 9E 62  .hap0+.b..4.#,.b
0860: 0E 01 9E 62 0E 01 68 61  70 31 4A 9E 62 0E 01 F0  ...b..hap1J.b...
0870: FF FF 7F 52 09 80 F8 FF  FF 7F F8 FF FF 7F 73 35  ...R..........s5
0880: 32 36 45 09 80 F8 FF FF  7F F8 FF FF 7F 73 35 32  26E..........s52
0890: 37 01 80 1C 10 80 6F 76  9E 62 0E 01 2C 9E 62 0E  7.....ov.b..,.b.
08A0: 01 9E 62 0E 01 74 6C 6B  30 2B 9E 62 0E 01 35 80  ..b..tlk0+.b..5.
08B0: 23 1C 0E 80 52 09 80 F8  FF FF 7F F8 FF FF 7F 73  #...R..........s
08C0: 35 32 37 45 09 80 F8 FF  FF 7F F8 FF FF 7F 73 35  527E..........s5
08D0: 32 30 01 80 4A 9E 62 0E  01 9F 62 0E 01 6F 76 9E  20..J.b...b..ov.
08E0: 62 0E 01 2C 9E 62 0E 01  9E 62 0E 01 74 6C 6B 30  b..,.b...b..tlk0
08F0: 2B 9E 62 0E 01 36 80 23  4A 9F 62 0E 01 9E 62 0E  +.b..6.#J.b...b.
0900: 01 6F 76 9E 62 0E 01 2B  9E 62 0E 01 37 80 23 2C  .ov.b..+.b..7.#,
0910: 9E 62 0E 01 9E 62 0E 01  74 6C 6B 30 2B 9E 62 0E  .b...b..tlk0+.b.
0920: 01 38 80 23 2C 9E 62 0E  01 9E 62 0E 01 74 6C 6B  .8.#,.b...b..tlk
0930: 31 53 9E 62 0E 01 9E 62  0E 01 74 6C 6B 31 52 09  1S.b...b..tlk1R.
0940: 80 F8 FF FF 7F F8 FF FF  7F 73 35 32 30 45 09 80  .........s520E..
0950: F8 FF FF 7F F8 FF FF 7F  73 35 32 31 01 80 1C 10  ........s521....
0960: 80 03 03 17 39 80 7B 9E  62 0E 01 1C 0C 80 4A 9F  ....9.{.b.....J.
0970: 62 0E 01 F0 FF FF 7F 29  10 9E 62 0E 01 03 2C 9E  b......)..b...,.
0980: 62 0E 01 9E 62 0E 01 74  6C 6B 30 2B 9E 62 0E 01  b...b..tlk0+.b..
0990: 3A 80 23 1C 1A 80 5C 00  3B 80 5C 01 3B 80 9A 52  :.#...\.;.\.;..R
09A0: 09 80 F8 FF FF 7F F8 FF  FF 7F 73 35 32 31 45 09  ..........s521E.
09B0: 80 F8 FF FF 7F F8 FF FF  7F 73 35 31 32 01 80 4E  .........s512..N
09C0: 01 9F 62 0E 01 4E 01 A0  62 0E 01 4E 01 A1 62 0E  ..b..N..b..N..b.
09D0: 01 2C 9E 62 0E 01 9E 62  0E 01 68 61 70 30 2B 9E  .,.b...b..hap0+.
09E0: 62 0E 01 3C 80 23 2B 9E  62 0E 01 3D 80 23 2C 9E  b..<.#+.b..=.#,.
09F0: 62 0E 01 9E 62 0E 01 68  61 70 31 53 9E 62 0E 01  b...b..hap1S.b..
0A00: 9E 62 0E 01 68 61 70 31  52 09 80 F8 FF FF 7F F8  .b..hap1R.......
0A10: FF FF 7F 73 35 31 32 45  09 80 F8 FF FF 7F F8 FF  ...s512E........
0A20: FF 7F 73 35 32 32 01 80  45 09 80 F8 FF FF 7F F8  ..s522..E.......
0A30: FF FF 7F 62 6F 66 66 01  80 A0 09 80 F8 FF FF 7F  ...boff.........
0A40: F8 FF FF 7F 62 6F 66 66  2B 9E 62 0E 01 3E 80 23  ....boff+.b..>.#
0A50: 2B 9E 62 0E 01 3F 80 23  1C 40 80 52 09 80 F8 FF  +.b..?.#.@.R....
0A60: FF 7F F8 FF FF 7F 73 35  32 32 45 09 80 F8 FF FF  ......s522E.....
0A70: 7F F8 FF FF 7F 73 35 32  33 01 80 2C 9E 62 0E 01  .....s523..,.b..
0A80: 9E 62 0E 01 68 61 70 30  2B 9E 62 0E 01 41 80 23  .b..hap0+.b..A.#
0A90: 2B 9E 62 0E 01 42 80 23  2B 9E 62 0E 01 43 80 23  +.b..B.#+.b..C.#
0AA0: 2C 9E 62 0E 01 9E 62 0E  01 68 61 70 31 53 9E 62  ,.b...b..hap1S.b
0AB0: 0E 01 9E 62 0E 01 68 61  70 31 4A 9E 62 0E 01 F0  ...b..hap1J.b...
0AC0: FF FF 7F 52 09 80 F8 FF  FF 7F F8 FF FF 7F 73 35  ...R..........s5
0AD0: 32 33 45 09 80 F8 FF FF  7F F8 FF FF 7F 73 35 31  23E..........s51
0AE0: 35 01 80 45 09 80 F8 FF  FF 7F F8 FF FF 7F 62 6F  5..E..........bo
0AF0: 66 66 01 80 A0 09 80 F8  FF FF 7F F8 FF FF 7F 62  ff.............b
0B00: 6F 66 66 6F 76 9E 62 0E  01 1C 0C 80 2C 9E 62 0E  offov.b.....,.b.
0B10: 01 9E 62 0E 01 74 6C 6B  30 2B 9E 62 0E 01 44 80  ..b..tlk0+.b..D.
0B20: 23 2C 9E 62 0E 01 9E 62  0E 01 67 61 6B 30 2B 9E  #,.b...b..gak0+.
0B30: 62 0E 01 45 80 23 53 9E  62 0E 01 9E 62 0E 01 67  b..E.#S.b...b..g
0B40: 61 6B 30 2C 9E 62 0E 01  9E 62 0E 01 67 61 6B 31  ak0,.b...b..gak1
0B50: 53 9E 62 0E 01 9E 62 0E  01 67 61 6B 31 52 09 80  S.b...b..gak1R..
0B60: F8 FF FF 7F F8 FF FF 7F  73 35 31 35 45 09 80 F8  ........s515E...
0B70: FF FF 7F F8 FF FF 7F 73  35 31 36 01 80 4E 00 9F  .......s516..N..
0B80: 62 0E 01 4E 00 A0 62 0E  01 4E 00 A1 62 0E 01 2C  b..N..b..N..b..,
0B90: 9E 62 0E 01 9E 62 0E 01  65 78 70 30 2B 9E 62 0E  .b...b..exp0+.b.
0BA0: 01 46 80 23 2B 9E 62 0E  01 47 80 23 36 48 80 49  .F.#+.b..G.#6H.I
0BB0: 80 4A 80 BB 4B 80 F8 FF  FF 7F F8 FF FF 7F 6D 61  .J..K.........ma
0BC0: 69 6E 01 80 2C 9E 62 0E  01 9E 62 0E 01 68 61 70  in..,.b...b..hap
0BD0: 30 2B 9E 62 0E 01 4C 80  23 BC 4B 80 F8 FF FF 7F  0+.b..L.#.K.....
0BE0: F8 FF FF 7F 6D 61 69 6E  1C 0C 80 52 09 80 F8 FF  ....main...R....
0BF0: FF 7F F8 FF FF 7F 73 35  31 36 02 87 7F 0B 80 80  ......s516......
0C00: 16 0C 45 09 80 F8 FF FF  7F F8 FF FF 7F 73 35 31  ..E..........s51
0C10: 34 01 80 01 43 0C 02 87  7F 0F 80 80 32 0C 45 09  4...C.......2.E.
0C20: 80 F8 FF FF 7F F8 FF FF  7F 73 35 31 34 01 80 01  .........s514...
0C30: 43 0C 45 09 80 F8 FF FF  7F F8 FF FF 7F 73 35 31  C.E..........s51
0C40: 33 01 80 2C 9E 62 0E 01  9E 62 0E 01 65 78 70 30  3..,.b...b..exp0
0C50: 2B 9E 62 0E 01 4D 80 23  2B 9E 62 0E 01 4E 80 23  +.b..M.#+.b..N.#
0C60: 2B 9E 62 0E 01 4F 80 23  2B 9E 62 0E 01 50 80 23  +.b..O.#+.b..P.#
0C70: 7B 9E 62 0E 01 02 87 7F  0B 80 80 8F 0C 52 09 80  {.b..........R..
0C80: F8 FF FF 7F F8 FF FF 7F  73 35 31 34 01 B8 0C 02  ........s514....
0C90: 87 7F 0F 80 80 A9 0C 52  09 80 F8 FF FF 7F F8 FF  .......R........
0CA0: FF 7F 73 35 31 34 01 B8  0C 52 09 80 F8 FF FF 7F  ..s514...R......
0CB0: F8 FF FF 7F 73 35 31 33  45 09 80 F8 FF FF 7F F8  ....s513E.......
0CC0: FF FF 7F 73 35 31 38 01  80 2B 9E 62 0E 01 51 80  ...s518..+.b..Q.
0CD0: 23 2C 9E 62 0E 01 9E 62  0E 01 65 78 70 31 53 9E  #,.b...b..exp1S.
0CE0: 62 0E 01 9E 62 0E 01 65  78 70 31 24 52 80 01 80  b...b..exp1$R...
0CF0: 01 80 25 02 00 10 01 80  00 47 0D 52 09 80 F8 FF  ..%......G.R....
0D00: FF 7F F8 FF FF 7F 73 35  31 38 45 09 80 F8 FF FF  ......s518E.....
0D10: 7F F8 FF FF 7F 73 35 34  30 01 80 2C 9E 62 0E 01  .....s540..,.b..
0D20: 9E 62 0E 01 6A 6F 62 30  2B 9E 62 0E 01 53 80 23  .b..job0+.b..S.#
0D30: 03 01 10 01 80 73 54 80  9E 62 0E 01 F0 FF FF 7F  .....sT..b......
0D40: 1C 55 80 30 01 79 0D 02  00 10 56 80 00 79 0D 2C  .U.0.y....V..y.,
0D50: 9E 62 0E 01 9E 62 0E 01  65 78 70 30 2B 9E 62 0E  .b...b..exp0+.b.
0D60: 01 57 80 23 2C 9E 62 0E  01 9E 62 0E 01 65 78 70  .W.#,.b...b..exp
0D70: 31 03 01 10 56 80 01 79  0D 45 00 80 F0 FF FF 7F  1...V..y.E......
0D80: F0 FF FF 7F 66 64 6F 31  01 80 55 00 80 F0 FF FF  ....fdo1..U.....
0D90: 7F F0 FF FF 7F 66 64 6F  31 02 01 10 01 80 01 CB  .....fdo1.......
0DA0: 0D 5C 00 58 80 5C 01 58  80 52 09 80 F8 FF FF 7F  .\.X.\.X.R......
0DB0: F8 FF FF 7F 73 35 31 38  46 00 45 00 80 F0 FF FF  ....s518F.E.....
0DC0: 7F F0 FF FF 7F 66 64 69  31 01 80 21 00           .....fdi1..!.   
```

#### Opcodes

```
  0: 0x0001 [0x03] ExtData[1]->WorkLocal[0] = Work_Zone[2]
  1: 0x0006 [0x42] SET_CLI_EVENT_CANCEL_DATA()
  2: 0x0007 [0x45] LOAD_SCHEDULED_TASK: Load scheduler "fdo1" with entities [LocalPlayer, LocalPlayer], work=[200*, 0*]
  3: 0x0018 [0x55] WAIT_LOAD_SCHEDULER: Wait for scheduler "fdo1" with entities [LocalPlayer, LocalPlayer], work=200*
  4: 0x0027 [0x46] CAMERA_CONTROL: Disable user control
  5: 0x0029 [0x38] SET_CLIENT_EVENT_MODE(mode=19*)
  6: 0x002C [0x2F] Unnamed NPC (ID: 17719970/0x010E62A2)->Render.Flags0 &= ~0x80000 // Bit 19
  7: 0x0032 [0x2F] Unnamed NPC (ID: 17719971/0x010E62A3)->Render.Flags0 &= ~0x80000 // Bit 19
  8: 0x0038 [0x4E] SET_ENTITY_HIDE_FLAG: Show Unnamed NPC (ID: 17719970/0x010E62A2)
  9: 0x003E [0x4E] SET_ENTITY_HIDE_FLAG: Show Unnamed NPC (ID: 17719971/0x010E62A3)
 10: 0x0044 [0x92] Moogle (ID: 17719966/0x010E629E)->Render.Flags3 ^= 0x01
 11: 0x004A [0x92] Spriggan Sifter (ID: 17719967/0x010E629F)->Render.Flags3 ^= 0x01
 12: 0x0050 [0x92] Spriggan Crier (ID: 17719968/0x010E62A0)->Render.Flags3 ^= 0x01
 13: 0x0056 [0x92] Spriggan Graverobber (ID: 17719969/0x010E62A1)->Render.Flags3 ^= 0x01
 14: 0x005C [0x94] Moogle (ID: 17719966/0x010E629E)->Render.Flags3 ^= 0x01
 15: 0x0062 [0x94] Spriggan Sifter (ID: 17719967/0x010E629F)->Render.Flags3 ^= 0x01
 16: 0x0068 [0x94] Spriggan Crier (ID: 17719968/0x010E62A0)->Render.Flags3 ^= 0x01
 17: 0x006E [0x94] Spriggan Graverobber (ID: 17719969/0x010E62A1)->Render.Flags3 ^= 0x01
 18: 0x0074 [0x94] LocalPlayer->Render.Flags3 ^= 0x01
 19: 0x007A [0x4A] LocalPlayer looks at LocalPlayer
 20: 0x0083 [0xBA] SET_ENTITY_POSITION(entity_id=LocalPlayer, pos_x=-60.000*, pos_z=-20.000*, pos_y=2.000*, direction=179.9°*)
 21: 0x0090 [0x4A] Moogle (ID: 17719966/0x010E629E) looks at Spriggan Sifter (ID: 17719967/0x010E629F)
 22: 0x0099 [0x4A] Spriggan Sifter (ID: 17719967/0x010E629F) looks at Moogle (ID: 17719966/0x010E629E)
 23: 0x00A2 [0x4A] Spriggan Crier (ID: 17719968/0x010E62A0) looks at Moogle (ID: 17719966/0x010E629E)
 24: 0x00AB [0x4A] Spriggan Graverobber (ID: 17719969/0x010E62A1) looks at Moogle (ID: 17719966/0x010E629E)
 25: 0x00B4 [0x6F] WAIT_FRAME_DELAY: Yield until WaitTime reaches zero
 26: 0x00B5 [0x76] CHECK_ENTITY_RENDER_FLAGS: Wait until Moogle (ID: 17719966/0x010E629E) Render.Flags0 and Render.Flags3 conditions are met
 27: 0x00BA [0x6F] WAIT_FRAME_DELAY: Yield until WaitTime reaches zero
 28: 0x00BB [0x76] CHECK_ENTITY_RENDER_FLAGS: Wait until Spriggan Sifter (ID: 17719967/0x010E629F) Render.Flags0 and Render.Flags3 conditions are met
 29: 0x00C0 [0x6F] WAIT_FRAME_DELAY: Yield until WaitTime reaches zero
 30: 0x00C1 [0x76] CHECK_ENTITY_RENDER_FLAGS: Wait until Spriggan Crier (ID: 17719968/0x010E62A0) Render.Flags0 and Render.Flags3 conditions are met
 31: 0x00C6 [0x6F] WAIT_FRAME_DELAY: Yield until WaitTime reaches zero
 32: 0x00C7 [0x76] CHECK_ENTITY_RENDER_FLAGS: Wait until Spriggan Graverobber (ID: 17719969/0x010E62A1) Render.Flags0 and Render.Flags3 conditions are met
 33: 0x00CC [0x80] LOAD_WAIT(entity=Moogle (ID: 17719966/0x010E629E))
 34: 0x00D1 [0x80] LOAD_WAIT(entity=Spriggan Sifter (ID: 17719967/0x010E629F))
 35: 0x00D6 [0x80] LOAD_WAIT(entity=Spriggan Crier (ID: 17719968/0x010E62A0))
 36: 0x00DB [0x80] LOAD_WAIT(entity=Spriggan Graverobber (ID: 17719969/0x010E62A1))
 37: 0x00E0 [0x80] LOAD_WAIT(entity=LocalPlayer)
 38: 0x00E5 [0x92] Arpetion (ID: 17719409/0x010E6071)->Render.Flags3 ^= 0x01
 39: 0x00EB [0x5C] MUSIC_CONTROL: Set Idle (Day) music to song 129*
 40: 0x00EF [0x5C] MUSIC_CONTROL: Set Idle (Night) music to song 129*
 41: 0x00F3 [0x9A] WAIT_MUSIC_SERVER()
 42: 0x00F4 [0x03] Work_Zone_1700[11] = 4294899296*
 43: 0x00F9 [0x03] Work_Zone_1700[12] = 4294947296*
 44: 0x00FE [0x03] Work_Zone_1700[13] = 2000*
 45: 0x0103 [0x27] REQ_SET(priority=0x10, entity_id=LocalPlayer, tag_num=0xAB)
 46: 0x010A [0x2C] CREATE_SCHEDULER_TASK: Create scheduler "exp0" with entities [Moogle (ID: 17719966/0x010E629E), Moogle (ID: 17719966/0x010E629E)]
 47: 0x0117 [0x45] LOAD_SCHEDULED_TASK: Load scheduler "s536" with entities [EventEntity, EventEntity], work=[639*, 0*]
 48: 0x0128 [0x45] LOAD_SCHEDULED_TASK: Load scheduler "fdi1" with entities [LocalPlayer, LocalPlayer], work=[200*, 0*]
 49: 0x0139 [0x1C] WAIT(210* ticks)
 50: 0x013C [0x2C] CREATE_SCHEDULER_TASK: Create scheduler "exp1" with entities [Moogle (ID: 17719966/0x010E629E), Moogle (ID: 17719966/0x010E629E)]
 51: 0x0149 [0x53] WAIT_SCHEDULER_TASK: Wait for scheduler "exp1" with entities [Moogle (ID: 17719966/0x010E629E), Moogle (ID: 17719966/0x010E629E)]
 52: 0x0156 [0x4A] Spriggan Sifter (ID: 17719967/0x010E629F) looks at LocalPlayer
 53: 0x015F [0x1C] WAIT(5* ticks)
 54: 0x0162 [0x4A] Spriggan Crier (ID: 17719968/0x010E62A0) looks at LocalPlayer
 55: 0x016B [0x1C] WAIT(10* ticks)
 56: 0x016E [0x4A] Spriggan Graverobber (ID: 17719969/0x010E62A1) looks at LocalPlayer
 57: 0x0177 [0x1C] WAIT(15* ticks)
 58: 0x017A [0x4A] Moogle (ID: 17719966/0x010E629E) looks at LocalPlayer
 59: 0x0183 [0x6F] WAIT_FRAME_DELAY: Yield until WaitTime reaches zero
 60: 0x0184 [0x76] CHECK_ENTITY_RENDER_FLAGS: Wait until Moogle (ID: 17719966/0x010E629E) Render.Flags0 and Render.Flags3 conditions are met
 61: 0x0189 [0x1C] WAIT(30* ticks)
 62: 0x018C [0x52] END_LOAD_SCHEDULER: End scheduler "s536" with entities [EventEntity, EventEntity], work=639*
 63: 0x019B [0x02] IF !(LocalPlayer->Race == 5*) GOTO 0x01B7
 64: 0x01A3 [0x45] LOAD_SCHEDULED_TASK: Load scheduler "s538" with entities [EventEntity, EventEntity], work=[639*, 0*]
 65: 0x01B4 [0x01] GOTO 0x01E4
 66: 0x01B7 [0x02] IF !(LocalPlayer->Race == 6*) GOTO 0x01D3
 67: 0x01BF [0x45] LOAD_SCHEDULED_TASK: Load scheduler "s538" with entities [EventEntity, EventEntity], work=[639*, 0*]
 68: 0x01D0 [0x01] GOTO 0x01E4
 69: 0x01D3 [0x45] LOAD_SCHEDULED_TASK: Load scheduler "s537" with entities [EventEntity, EventEntity], work=[639*, 0*]

SUBROUTINE_01E4:
 70: 0x01E4 [0x2A] GET_REQ_LEVEL(level=16, entity_id=LocalPlayer)
 71: 0x01EA [0x4A] Moogle (ID: 17719966/0x010E629E) looks at LocalPlayer
 72: 0x01F3 [0x1C] WAIT(20* ticks)
 73: 0x01F6 [0x4A] Spriggan Sifter (ID: 17719967/0x010E629F) looks at LocalPlayer
 74: 0x01FF [0x1C] WAIT(10* ticks)
 75: 0x0202 [0x4A] Spriggan Crier (ID: 17719968/0x010E62A0) looks at LocalPlayer
 76: 0x020B [0x4A] Spriggan Graverobber (ID: 17719969/0x010E62A1) looks at LocalPlayer
 77: 0x0214 [0x4A] LocalPlayer looks at Moogle (ID: 17719966/0x010E629E)
 78: 0x021D [0x6F] WAIT_FRAME_DELAY: Yield until WaitTime reaches zero
 79: 0x021E [0x76] CHECK_ENTITY_RENDER_FLAGS: Wait until LocalPlayer Render.Flags0 and Render.Flags3 conditions are met
 80: 0x0223 [0x4A] Spriggan Sifter (ID: 17719967/0x010E629F) looks at LocalPlayer
 81: 0x022C [0x4A] Spriggan Crier (ID: 17719968/0x010E62A0) looks at LocalPlayer
 82: 0x0235 [0x4A] Spriggan Graverobber (ID: 17719969/0x010E62A1) looks at LocalPlayer
 83: 0x023E [0x2C] CREATE_SCHEDULER_TASK: Create scheduler "new0" with entities [Moogle (ID: 17719966/0x010E629E), Moogle (ID: 17719966/0x010E629E)]
 84: 0x024B [0x2B] Moogle (ID: 17719966/0x010E629E) [15302*]:
    → "Hey, you--able adventurer! Cast your gaze on the countenance of this misbegotten mutant."
 85: 0x0252 [0x23] WAIT_FOR_DIALOG_INTERACTION
 86: 0x0253 [0x2C] CREATE_SCHEDULER_TASK: Create scheduler "new1" with entities [Moogle (ID: 17719966/0x010E629E), Moogle (ID: 17719966/0x010E629E)]
 87: 0x0260 [0x53] WAIT_SCHEDULER_TASK: Wait for scheduler "new1" with entities [Moogle (ID: 17719966/0x010E629E), Moogle (ID: 17719966/0x010E629E)]
 88: 0x026D [0x4A] LocalPlayer looks at Spriggan Sifter (ID: 17719967/0x010E629F)
 89: 0x0276 [0x02] IF !(LocalPlayer->Race == 5*) GOTO 0x0290
 90: 0x027E [0x52] END_LOAD_SCHEDULER: End scheduler "s538" with entities [EventEntity, EventEntity], work=639*
 91: 0x028D [0x01] GOTO 0x02B9
 92: 0x0290 [0x02] IF !(LocalPlayer->Race == 6*) GOTO 0x02AA
 93: 0x0298 [0x52] END_LOAD_SCHEDULER: End scheduler "s538" with entities [EventEntity, EventEntity], work=639*
 94: 0x02A7 [0x01] GOTO 0x02B9
 95: 0x02AA [0x52] END_LOAD_SCHEDULER: End scheduler "s537" with entities [EventEntity, EventEntity], work=639*

SUBROUTINE_02B9:
 96: 0x02B9 [0x45] LOAD_SCHEDULED_TASK: Load scheduler "s528" with entities [EventEntity, EventEntity], work=[639*, 0*]
 97: 0x02CA [0x9F] LOAD_SCHEDULED_TASK_ALT: Load scheduler "main" with entities [EventEntity, EventEntity], work=[96*, 0*]
 98: 0x02DB [0x33] EventEntity->Render.Flags0 |= 0x200000 // Bit 21 (flag=0x01)
 99: 0x02DD [0xA4] EventEntity->Flags3.unknown_3_2 = 1
100: 0x02DF [0x36] SET_ENTITY_EVENT_POSITION(pos_x=-70.710*, pos_z=-20.715*, pos_y=1.722*)
101: 0x02E6 [0x59] UPDATE_ENTITY_DATA: Unnamed NPC (ID: 17719970/0x010E62A2)->Render.Flags0 |= 0x200000
102: 0x02ED [0x59] UPDATE_ENTITY_DATA: Unnamed NPC (ID: 17719971/0x010E62A3)->Render.Flags0 |= 0x200000
103: 0x02F4 [0x03] ExtData[1]->WorkLocal[1] = 4294896586*
104: 0x02F9 [0x03] ExtData[1]->WorkLocal[2] = 4294946581*
105: 0x02FE [0x08] ExtData[1]->WorkLocal[2] -= 730*
106: 0x0303 [0xBA] SET_ENTITY_POSITION(entity_id=Unnamed NPC (ID: 17719970/0x010E62A2), pos_x=ExtData[1]->WorkLocal[1], pos_z=ExtData[1]->WorkLocal[2], pos_y=1.722*, direction=0.0°*)
107: 0x0310 [0x08] ExtData[1]->WorkLocal[1] -= 800*
108: 0x0315 [0x07] ExtData[1]->WorkLocal[2] += 730*
109: 0x031A [0xBA] SET_ENTITY_POSITION(entity_id=Unnamed NPC (ID: 17719971/0x010E62A3), pos_x=ExtData[1]->WorkLocal[1], pos_z=ExtData[1]->WorkLocal[2], pos_y=1.722*, direction=0.0°*)
110: 0x0327 [0x1C] WAIT(30* ticks)
111: 0x032A [0x2B] Moogle (ID: 17719966/0x010E629E) [15303*]:
    → "Glance at the good-natured glimmer in his eyes!"
112: 0x0331 [0x23] WAIT_FOR_DIALOG_INTERACTION
113: 0x0332 [0x62] LOAD_EVENT_SCHEDULER: Load scheduler "main" with entities [EventEntity, EventEntity], work=[3*, 0*]
114: 0x0343 [0x62] LOAD_EVENT_SCHEDULER: Load scheduler "main" with entities [Unnamed NPC (ID: 17719970/0x010E62A2), Unnamed NPC (ID: 17719970/0x010E62A2)], work=[3*, 0*]
115: 0x0354 [0x62] LOAD_EVENT_SCHEDULER: Load scheduler "main" with entities [Unnamed NPC (ID: 17719971/0x010E62A3), Unnamed NPC (ID: 17719971/0x010E62A3)], work=[3*, 0*]
116: 0x0365 [0x1C] WAIT(60* ticks)
117: 0x0368 [0x52] END_LOAD_SCHEDULER: End scheduler "s528" with entities [EventEntity, EventEntity], work=639*
118: 0x0377 [0x45] LOAD_SCHEDULED_TASK: Load scheduler "s529" with entities [EventEntity, EventEntity], work=[639*, 0*]
119: 0x0388 [0x36] SET_ENTITY_EVENT_POSITION(pos_x=-70.695*, pos_z=-20.720*, pos_y=1.805*)
120: 0x038F [0x03] ExtData[1]->WorkLocal[1] = 4294896601*
121: 0x0394 [0x03] ExtData[1]->WorkLocal[2] = 4294946576*
122: 0x0399 [0x08] ExtData[1]->WorkLocal[2] -= 720*
123: 0x039E [0xBA] SET_ENTITY_POSITION(entity_id=Unnamed NPC (ID: 17719970/0x010E62A2), pos_x=ExtData[1]->WorkLocal[1], pos_z=ExtData[1]->WorkLocal[2], pos_y=1.805*, direction=0.0°*)
124: 0x03AB [0x08] ExtData[1]->WorkLocal[1] -= 800*
125: 0x03B0 [0x07] ExtData[1]->WorkLocal[2] += 720*
126: 0x03B5 [0xBA] SET_ENTITY_POSITION(entity_id=Unnamed NPC (ID: 17719971/0x010E62A3), pos_x=ExtData[1]->WorkLocal[1], pos_z=ExtData[1]->WorkLocal[2], pos_y=1.805*, direction=0.0°*)
127: 0x03C2 [0x1C] WAIT(30* ticks)
128: 0x03C5 [0x2B] Moogle (ID: 17719966/0x010E629E) [15304*]:
    → "Take in his tiny teeth scintillating in the sunlight, kupo!"
129: 0x03CC [0x23] WAIT_FOR_DIALOG_INTERACTION
130: 0x03CD [0x62] LOAD_EVENT_SCHEDULER: Load scheduler "main" with entities [EventEntity, EventEntity], work=[3*, 0*]
131: 0x03DE [0x62] LOAD_EVENT_SCHEDULER: Load scheduler "main" with entities [Unnamed NPC (ID: 17719970/0x010E62A2), Unnamed NPC (ID: 17719970/0x010E62A2)], work=[3*, 0*]
132: 0x03EF [0x62] LOAD_EVENT_SCHEDULER: Load scheduler "main" with entities [Unnamed NPC (ID: 17719971/0x010E62A3), Unnamed NPC (ID: 17719971/0x010E62A3)], work=[3*, 0*]
133: 0x0400 [0x1C] WAIT(60* ticks)
134: 0x0403 [0x9F] LOAD_SCHEDULED_TASK_ALT: Load scheduler "kill" with entities [EventEntity, EventEntity], work=[96*, 0*]
135: 0x0414 [0xA2] WAIT_LOAD_SCHEDULER_MAIN: Wait for scheduler "kill" with entities [EventEntity, EventEntity], work=96*
136: 0x0423 [0x1C] WAIT(45* ticks)
137: 0x0426 [0x52] END_LOAD_SCHEDULER: End scheduler "s529" with entities [EventEntity, EventEntity], work=639*
138: 0x0435 [0x45] LOAD_SCHEDULED_TASK: Load scheduler "s539" with entities [EventEntity, EventEntity], work=[639*, 0*]
139: 0x0446 [0x1C] WAIT(15* ticks)
140: 0x0449 [0x4A] LocalPlayer looks at Moogle (ID: 17719966/0x010E629E)
141: 0x0452 [0x6F] WAIT_FRAME_DELAY: Yield until WaitTime reaches zero
142: 0x0453 [0x76] CHECK_ENTITY_RENDER_FLAGS: Wait until LocalPlayer Render.Flags0 and Render.Flags3 conditions are met
143: 0x0458 [0x02] IF !(ExtData[1]->WorkLocal[0] == 7*) GOTO 0x04C0
144: 0x0460 [0x27] REQ_SET(priority=0x10, entity_id=LocalPlayer, tag_num=0xAA)
145: 0x0467 [0x2A] GET_REQ_LEVEL(level=16, entity_id=LocalPlayer)
146: 0x046D [0x1C] WAIT(15* ticks)
147: 0x0470 [0x2C] CREATE_SCHEDULER_TASK: Create scheduler "tlk0" with entities [Moogle (ID: 17719966/0x010E629E), Moogle (ID: 17719966/0x010E629E)]
148: 0x047D [0x2B] Moogle (ID: 17719966/0x010E629E) [15305*]:
    → "You mean...you're familiar with its furry form?"
149: 0x0484 [0x23] WAIT_FOR_DIALOG_INTERACTION
150: 0x0485 [0x2B] Moogle (ID: 17719966/0x010E629E) [15306*]:
    → "Oh hush, hustler. Listen to the lowdown before you loosen your lips."
151: 0x048C [0x23] WAIT_FOR_DIALOG_INTERACTION
152: 0x048D [0x2B] Moogle (ID: 17719966/0x010E629E) [15307*]:
    → "Remember the gristly green gobs who came before? Now its mauve and maroon mates have come to wreak wrongdoings upon our realm!"
153: 0x0494 [0x23] WAIT_FOR_DIALOG_INTERACTION
154: 0x0495 [0x2B] Moogle (ID: 17719966/0x010E629E) [15308*]:
    → "At least, I suppose so. They haven't lifted a limb of late, so maybe there should be nothing nagging at my noggin after all..."
155: 0x049C [0x23] WAIT_FOR_DIALOG_INTERACTION
156: 0x049D [0x52] END_LOAD_SCHEDULER: End scheduler "s539" with entities [EventEntity, EventEntity], work=639*
157: 0x04AC [0x45] LOAD_SCHEDULED_TASK: Load scheduler "s525" with entities [EventEntity, EventEntity], work=[639*, 0*]
158: 0x04BD [0x01] GOTO 0x0552
159: 0x04C0 [0x2C] CREATE_SCHEDULER_TASK: Create scheduler "tlk0" with entities [Moogle (ID: 17719966/0x010E629E), Moogle (ID: 17719966/0x010E629E)]
160: 0x04CD [0x2B] Moogle (ID: 17719966/0x010E629E) [15309*]:
    → "Let me tell you a troubled tale. Not long ago, some grisly green gobs came to Vana'diel, and we amassed a fabulous fortune crafting countless curios in their likeness."
161: 0x04D4 [0x23] WAIT_FOR_DIALOG_INTERACTION
162: 0x04D5 [0x2B] Moogle (ID: 17719966/0x010E629E) [15310*]:
    → "But there was an--inconsequential?--issue with them consuming crystals like crunchy candies."
163: 0x04DC [0x23] WAIT_FOR_DIALOG_INTERACTION
164: 0x04DD [0x2B] Moogle (ID: 17719966/0x010E629E) [15311*]:
    → "Thanks to hardy heroes and moogle magic, we turned them into cerulean stone shards and sent them scurrying home, kupo."
165: 0x04E4 [0x23] WAIT_FOR_DIALOG_INTERACTION
166: 0x04E5 [0x2B] Moogle (ID: 17719966/0x010E629E) [15312*]:
    → "But we gave the victors great gifts resembling those rowdy ruffians, so our profits plummeted and we had to cancel our tropical travel plans..."
167: 0x04EC [0x23] WAIT_FOR_DIALOG_INTERACTION
168: 0x04ED [0x52] END_LOAD_SCHEDULER: End scheduler "s539" with entities [EventEntity, EventEntity], work=639*
169: 0x04FC [0x45] LOAD_SCHEDULED_TASK: Load scheduler "s524" with entities [EventEntity, EventEntity], work=[639*, 0*]
170: 0x050D [0x2C] CREATE_SCHEDULER_TASK: Create scheduler "tlk0" with entities [Moogle (ID: 17719966/0x010E629E), Moogle (ID: 17719966/0x010E629E)]
171: 0x051A [0x2B] Moogle (ID: 17719966/0x010E629E) [15313*]:
    → "But the past is in the past. We must make the most of the moment!"
172: 0x0521 [0x23] WAIT_FOR_DIALOG_INTERACTION
173: 0x0522 [0x2B] Moogle (ID: 17719966/0x010E629E) [15314*]:
    → "And so! With the multicolored monsters now manifesting themselves, we found our next best chance!"
174: 0x0529 [0x23] WAIT_FOR_DIALOG_INTERACTION
175: 0x052A [0x2B] Moogle (ID: 17719966/0x010E629E) [15315*]:
    → "They haven't lifted a limb of late, so maybe there's nothing to knock my noggin over..."
176: 0x0531 [0x23] WAIT_FOR_DIALOG_INTERACTION
177: 0x0532 [0x52] END_LOAD_SCHEDULER: End scheduler "s524" with entities [EventEntity, EventEntity], work=639*
178: 0x0541 [0x45] LOAD_SCHEDULED_TASK: Load scheduler "s525" with entities [EventEntity, EventEntity], work=[639*, 0*]

SUBROUTINE_0552:
179: 0x0552 [0x2C] CREATE_SCHEDULER_TASK: Create scheduler "exp0" with entities [Moogle (ID: 17719966/0x010E629E), Moogle (ID: 17719966/0x010E629E)]
180: 0x055F [0x2B] Moogle (ID: 17719966/0x010E629E) [15316*]:
    → "Thus, we have an ostensibly outstanding opportunity to manufacture new knickknacks, kupo!"
181: 0x0566 [0x23] WAIT_FOR_DIALOG_INTERACTION
182: 0x0567 [0x2B] Moogle (ID: 17719966/0x010E629E) [15317*]:
    → "Part of the proceeds will be diverted to do up dilapidated Mog Houses, with the rest funding our jovial jaunts!"
183: 0x056E [0x23] WAIT_FOR_DIALOG_INTERACTION
184: 0x056F [0x2C] CREATE_SCHEDULER_TASK: Create scheduler "hap0" with entities [Moogle (ID: 17719966/0x010E629E), Moogle (ID: 17719966/0x010E629E)]
185: 0x057C [0x2B] Moogle (ID: 17719966/0x010E629E) [15318*]:
    → "Kupopopo! How magnificently marvelous!"
186: 0x0583 [0x23] WAIT_FOR_DIALOG_INTERACTION
187: 0x0584 [0x2C] CREATE_SCHEDULER_TASK: Create scheduler "hap1" with entities [Moogle (ID: 17719966/0x010E629E), Moogle (ID: 17719966/0x010E629E)]
188: 0x0591 [0x4E] SET_ENTITY_HIDE_FLAG: Hide Spriggan Sifter (ID: 17719967/0x010E629F)
189: 0x0597 [0x4E] SET_ENTITY_HIDE_FLAG: Hide Spriggan Crier (ID: 17719968/0x010E62A0)
190: 0x059D [0x4E] SET_ENTITY_HIDE_FLAG: Hide Spriggan Graverobber (ID: 17719969/0x010E62A1)
191: 0x05A3 [0x52] END_LOAD_SCHEDULER: End scheduler "s525" with entities [EventEntity, EventEntity], work=639*
192: 0x05B2 [0x02] IF !(LocalPlayer->Race == 5*) GOTO 0x05CE
193: 0x05BA [0x45] LOAD_SCHEDULED_TASK: Load scheduler "s507" with entities [EventEntity, EventEntity], work=[639*, 0*]
194: 0x05CB [0x01] GOTO 0x05FB
195: 0x05CE [0x02] IF !(LocalPlayer->Race == 6*) GOTO 0x05EA
196: 0x05D6 [0x45] LOAD_SCHEDULED_TASK: Load scheduler "s507" with entities [EventEntity, EventEntity], work=[639*, 0*]
197: 0x05E7 [0x01] GOTO 0x05FB
198: 0x05EA [0x45] LOAD_SCHEDULED_TASK: Load scheduler "s506" with entities [EventEntity, EventEntity], work=[639*, 0*]

SUBROUTINE_05FB:
199: 0x05FB [0x27] REQ_SET(priority=0x10, entity_id=LocalPlayer, tag_num=0xAA)
200: 0x0602 [0x2A] GET_REQ_LEVEL(level=16, entity_id=LocalPlayer)
201: 0x0608 [0x1C] WAIT(15* ticks)
202: 0x060B [0x2C] CREATE_SCHEDULER_TASK: Create scheduler "tlk0" with entities [Moogle (ID: 17719966/0x010E629E), Moogle (ID: 17719966/0x010E629E)]
203: 0x0618 [0x2B] Moogle (ID: 17719966/0x010E629E) [15319*]:
    → "You can't discern the difference between the dimensional delegates?"
204: 0x061F [0x23] WAIT_FOR_DIALOG_INTERACTION
205: 0x0620 [0x2B] Moogle (ID: 17719966/0x010E629E) [15320*]:
    → "Give them a good glance!"
206: 0x0627 [0x23] WAIT_FOR_DIALOG_INTERACTION
207: 0x0628 [0x1C] WAIT(30* ticks)
208: 0x062B [0x4E] SET_ENTITY_HIDE_FLAG: Show Spriggan Sifter (ID: 17719967/0x010E629F)
209: 0x0631 [0x4E] SET_ENTITY_HIDE_FLAG: Show Spriggan Crier (ID: 17719968/0x010E62A0)
210: 0x0637 [0x4E] SET_ENTITY_HIDE_FLAG: Show Spriggan Graverobber (ID: 17719969/0x010E62A1)
211: 0x063D [0x02] IF !(LocalPlayer->Race == 5*) GOTO 0x0657
212: 0x0645 [0x52] END_LOAD_SCHEDULER: End scheduler "s507" with entities [EventEntity, EventEntity], work=639*
213: 0x0654 [0x01] GOTO 0x0680
214: 0x0657 [0x02] IF !(LocalPlayer->Race == 6*) GOTO 0x0671
215: 0x065F [0x52] END_LOAD_SCHEDULER: End scheduler "s507" with entities [EventEntity, EventEntity], work=639*
216: 0x066E [0x01] GOTO 0x0680
217: 0x0671 [0x52] END_LOAD_SCHEDULER: End scheduler "s506" with entities [EventEntity, EventEntity], work=639*

SUBROUTINE_0680:
218: 0x0680 [0x45] LOAD_SCHEDULED_TASK: Load scheduler "s528" with entities [EventEntity, EventEntity], work=[639*, 0*]
219: 0x0691 [0x9F] LOAD_SCHEDULED_TASK_ALT: Load scheduler "main" with entities [EventEntity, EventEntity], work=[96*, 0*]
220: 0x06A2 [0x33] EventEntity->Render.Flags0 |= 0x200000 // Bit 21 (flag=0x01)
221: 0x06A4 [0xA4] EventEntity->Flags3.unknown_3_2 = 1
222: 0x06A6 [0x36] SET_ENTITY_EVENT_POSITION(pos_x=-70.710*, pos_z=-20.715*, pos_y=1.722*)
223: 0x06AD [0x03] ExtData[1]->WorkLocal[1] = 4294896586*
224: 0x06B2 [0x03] ExtData[1]->WorkLocal[2] = 4294946581*
225: 0x06B7 [0x08] ExtData[1]->WorkLocal[2] -= 730*
226: 0x06BC [0xBA] SET_ENTITY_POSITION(entity_id=Unnamed NPC (ID: 17719970/0x010E62A2), pos_x=ExtData[1]->WorkLocal[1], pos_z=ExtData[1]->WorkLocal[2], pos_y=1.722*, direction=0.0°*)
227: 0x06C9 [0x08] ExtData[1]->WorkLocal[1] -= 800*
228: 0x06CE [0x07] ExtData[1]->WorkLocal[2] += 730*
229: 0x06D3 [0xBA] SET_ENTITY_POSITION(entity_id=Unnamed NPC (ID: 17719971/0x010E62A3), pos_x=ExtData[1]->WorkLocal[1], pos_z=ExtData[1]->WorkLocal[2], pos_y=1.722*, direction=0.0°*)
230: 0x06E0 [0x1C] WAIT(30* ticks)
231: 0x06E3 [0x2B] Moogle (ID: 17719966/0x010E629E) [15303*]:
    → "Glance at the good-natured glimmer in his eyes!"
232: 0x06EA [0x23] WAIT_FOR_DIALOG_INTERACTION
233: 0x06EB [0x62] LOAD_EVENT_SCHEDULER: Load scheduler "main" with entities [EventEntity, EventEntity], work=[3*, 0*]
234: 0x06FC [0x62] LOAD_EVENT_SCHEDULER: Load scheduler "main" with entities [Unnamed NPC (ID: 17719970/0x010E62A2), Unnamed NPC (ID: 17719970/0x010E62A2)], work=[3*, 0*]
235: 0x070D [0x62] LOAD_EVENT_SCHEDULER: Load scheduler "main" with entities [Unnamed NPC (ID: 17719971/0x010E62A3), Unnamed NPC (ID: 17719971/0x010E62A3)], work=[3*, 0*]
236: 0x071E [0x1C] WAIT(60* ticks)
237: 0x0721 [0x52] END_LOAD_SCHEDULER: End scheduler "s528" with entities [EventEntity, EventEntity], work=639*
238: 0x0730 [0x45] LOAD_SCHEDULED_TASK: Load scheduler "s529" with entities [EventEntity, EventEntity], work=[639*, 0*]
239: 0x0741 [0x36] SET_ENTITY_EVENT_POSITION(pos_x=-70.695*, pos_z=-20.720*, pos_y=1.805*)
240: 0x0748 [0x59] UPDATE_ENTITY_DATA: Unnamed NPC (ID: 17719970/0x010E62A2)->Render.Flags0 |= 0x200000
241: 0x074F [0x59] UPDATE_ENTITY_DATA: Unnamed NPC (ID: 17719971/0x010E62A3)->Render.Flags0 |= 0x200000
242: 0x0756 [0x03] ExtData[1]->WorkLocal[1] = 4294896601*
243: 0x075B [0x03] ExtData[1]->WorkLocal[2] = 4294946576*
244: 0x0760 [0x08] ExtData[1]->WorkLocal[2] -= 720*
245: 0x0765 [0xBA] SET_ENTITY_POSITION(entity_id=Unnamed NPC (ID: 17719970/0x010E62A2), pos_x=ExtData[1]->WorkLocal[1], pos_z=ExtData[1]->WorkLocal[2], pos_y=1.805*, direction=0.0°*)
246: 0x0772 [0x08] ExtData[1]->WorkLocal[1] -= 800*
247: 0x0777 [0x07] ExtData[1]->WorkLocal[2] += 720*
248: 0x077C [0xBA] SET_ENTITY_POSITION(entity_id=Unnamed NPC (ID: 17719971/0x010E62A3), pos_x=ExtData[1]->WorkLocal[1], pos_z=ExtData[1]->WorkLocal[2], pos_y=1.805*, direction=0.0°*)
249: 0x0789 [0x1C] WAIT(30* ticks)
250: 0x078C [0x2B] Moogle (ID: 17719966/0x010E629E) [15304*]:
    → "Take in his tiny teeth scintillating in the sunlight, kupo!"
251: 0x0793 [0x23] WAIT_FOR_DIALOG_INTERACTION
252: 0x0794 [0x62] LOAD_EVENT_SCHEDULER: Load scheduler "main" with entities [EventEntity, EventEntity], work=[3*, 0*]
253: 0x07A5 [0x62] LOAD_EVENT_SCHEDULER: Load scheduler "main" with entities [Unnamed NPC (ID: 17719970/0x010E62A2), Unnamed NPC (ID: 17719970/0x010E62A2)], work=[3*, 0*]
254: 0x07B6 [0x62] LOAD_EVENT_SCHEDULER: Load scheduler "main" with entities [Unnamed NPC (ID: 17719971/0x010E62A3), Unnamed NPC (ID: 17719971/0x010E62A3)], work=[3*, 0*]
255: 0x07C7 [0x1C] WAIT(60* ticks)
256: 0x07CA [0x9F] LOAD_SCHEDULED_TASK_ALT: Load scheduler "kill" with entities [EventEntity, EventEntity], work=[96*, 0*]
257: 0x07DB [0xA2] WAIT_LOAD_SCHEDULER_MAIN: Wait for scheduler "kill" with entities [EventEntity, EventEntity], work=96*
258: 0x07EA [0x1C] WAIT(45* ticks)
259: 0x07ED [0x52] END_LOAD_SCHEDULER: End scheduler "s529" with entities [EventEntity, EventEntity], work=639*
260: 0x07FC [0x45] LOAD_SCHEDULED_TASK: Load scheduler "s526" with entities [EventEntity, EventEntity], work=[639*, 0*]
261: 0x080D [0x4A] Moogle (ID: 17719966/0x010E629E) looks at Spriggan Sifter (ID: 17719967/0x010E629F)
262: 0x0816 [0x6F] WAIT_FRAME_DELAY: Yield until WaitTime reaches zero
263: 0x0817 [0x76] CHECK_ENTITY_RENDER_FLAGS: Wait until Moogle (ID: 17719966/0x010E629E) Render.Flags0 and Render.Flags3 conditions are met
264: 0x081C [0x2C] CREATE_SCHEDULER_TASK: Create scheduler "tlk0" with entities [Moogle (ID: 17719966/0x010E629E), Moogle (ID: 17719966/0x010E629E)]
265: 0x0829 [0x2B] Moogle (ID: 17719966/0x010E629E) [15321*]:
    → "I guess their terrible teeth and enchanting eyes do look alike..."
266: 0x0830 [0x23] WAIT_FOR_DIALOG_INTERACTION
267: 0x0831 [0x4A] Moogle (ID: 17719966/0x010E629E) looks at Spriggan Sifter (ID: 17719967/0x010E629F)
268: 0x083A [0x6F] WAIT_FRAME_DELAY: Yield until WaitTime reaches zero
269: 0x083B [0x76] CHECK_ENTITY_RENDER_FLAGS: Wait until Moogle (ID: 17719966/0x010E629E) Render.Flags0 and Render.Flags3 conditions are met
270: 0x0840 [0x2B] Moogle (ID: 17719966/0x010E629E) [15322*]:
    → "But the metal in their mitts and trinkets on their waists! Those are different, kupo!"
271: 0x0847 [0x23] WAIT_FOR_DIALOG_INTERACTION
272: 0x0848 [0x2C] CREATE_SCHEDULER_TASK: Create scheduler "hap0" with entities [Moogle (ID: 17719966/0x010E629E), Moogle (ID: 17719966/0x010E629E)]
273: 0x0855 [0x2B] Moogle (ID: 17719966/0x010E629E) [15323*]:
    → "Wonderful! We can cut down on costs and rake in the revenue! Vivacious vacations for all!"
274: 0x085C [0x23] WAIT_FOR_DIALOG_INTERACTION
275: 0x085D [0x2C] CREATE_SCHEDULER_TASK: Create scheduler "hap1" with entities [Moogle (ID: 17719966/0x010E629E), Moogle (ID: 17719966/0x010E629E)]
276: 0x086A [0x4A] Moogle (ID: 17719966/0x010E629E) looks at LocalPlayer
277: 0x0873 [0x52] END_LOAD_SCHEDULER: End scheduler "s526" with entities [EventEntity, EventEntity], work=639*
278: 0x0882 [0x45] LOAD_SCHEDULED_TASK: Load scheduler "s527" with entities [EventEntity, EventEntity], work=[639*, 0*]
279: 0x0893 [0x1C] WAIT(20* ticks)
280: 0x0896 [0x6F] WAIT_FRAME_DELAY: Yield until WaitTime reaches zero
281: 0x0897 [0x76] CHECK_ENTITY_RENDER_FLAGS: Wait until Moogle (ID: 17719966/0x010E629E) Render.Flags0 and Render.Flags3 conditions are met
282: 0x089C [0x2C] CREATE_SCHEDULER_TASK: Create scheduler "tlk0" with entities [Moogle (ID: 17719966/0x010E629E), Moogle (ID: 17719966/0x010E629E)]
283: 0x08A9 [0x2B] Moogle (ID: 17719966/0x010E629E) [15324*]:
    → "A-ah! Forget my frivolous fettering."
284: 0x08B0 [0x23] WAIT_FOR_DIALOG_INTERACTION
285: 0x08B1 [0x1C] WAIT(30* ticks)
286: 0x08B4 [0x52] END_LOAD_SCHEDULER: End scheduler "s527" with entities [EventEntity, EventEntity], work=639*
287: 0x08C3 [0x45] LOAD_SCHEDULED_TASK: Load scheduler "s520" with entities [EventEntity, EventEntity], work=[639*, 0*]
288: 0x08D4 [0x4A] Moogle (ID: 17719966/0x010E629E) looks at Spriggan Sifter (ID: 17719967/0x010E629F)
289: 0x08DD [0x6F] WAIT_FRAME_DELAY: Yield until WaitTime reaches zero
290: 0x08DE [0x76] CHECK_ENTITY_RENDER_FLAGS: Wait until Moogle (ID: 17719966/0x010E629E) Render.Flags0 and Render.Flags3 conditions are met
291: 0x08E3 [0x2C] CREATE_SCHEDULER_TASK: Create scheduler "tlk0" with entities [Moogle (ID: 17719966/0x010E629E), Moogle (ID: 17719966/0x010E629E)]
292: 0x08F0 [0x2B] Moogle (ID: 17719966/0x010E629E) [15325*]:
    → "But if we captured the cerulean creatures before, then how did they surreptitiously scuttle back?"
293: 0x08F7 [0x23] WAIT_FOR_DIALOG_INTERACTION
294: 0x08F8 [0x4A] Spriggan Sifter (ID: 17719967/0x010E629F) looks at Moogle (ID: 17719966/0x010E629E)
295: 0x0901 [0x6F] WAIT_FRAME_DELAY: Yield until WaitTime reaches zero
296: 0x0902 [0x76] CHECK_ENTITY_RENDER_FLAGS: Wait until Moogle (ID: 17719966/0x010E629E) Render.Flags0 and Render.Flags3 conditions are met
297: 0x0907 [0x2B] Moogle (ID: 17719966/0x010E629E) [15326*]:
    → "Undeniably unimportant. What matters most is the moment!"
298: 0x090E [0x23] WAIT_FOR_DIALOG_INTERACTION
299: 0x090F [0x2C] CREATE_SCHEDULER_TASK: Create scheduler "tlk0" with entities [Moogle (ID: 17719966/0x010E629E), Moogle (ID: 17719966/0x010E629E)]
300: 0x091C [0x2B] Moogle (ID: 17719966/0x010E629E) [15327*]:
    → "Oh ho? A covert communique from my cohort in charge of the stone shard storage."
301: 0x0923 [0x23] WAIT_FOR_DIALOG_INTERACTION
302: 0x0924 [0x2C] CREATE_SCHEDULER_TASK: Create scheduler "tlk1" with entities [Moogle (ID: 17719966/0x010E629E), Moogle (ID: 17719966/0x010E629E)]
303: 0x0931 [0x53] WAIT_SCHEDULER_TASK: Wait for scheduler "tlk1" with entities [Moogle (ID: 17719966/0x010E629E), Moogle (ID: 17719966/0x010E629E)]
304: 0x093E [0x52] END_LOAD_SCHEDULER: End scheduler "s520" with entities [EventEntity, EventEntity], work=639*
305: 0x094D [0x45] LOAD_SCHEDULED_TASK: Load scheduler "s521" with entities [EventEntity, EventEntity], work=[639*, 0*]
306: 0x095E [0x1C] WAIT(20* ticks)
307: 0x0961 [0x03] Work_Zone_1700[3] = 1535*
308: 0x0966 [0x7B] Moogle (ID: 17719966/0x010E629E) stops talking
309: 0x096B [0x1C] WAIT(10* ticks)
310: 0x096E [0x4A] Spriggan Sifter (ID: 17719967/0x010E629F) looks at LocalPlayer
311: 0x0977 [0x29] REQ_SET_WAIT(priority=0x10, entity_id=Moogle (ID: 17719966/0x010E629E), tag_num=0x03)
312: 0x097E [0x2C] CREATE_SCHEDULER_TASK: Create scheduler "tlk0" with entities [Moogle (ID: 17719966/0x010E629E), Moogle (ID: 17719966/0x010E629E)]
313: 0x098B [0x2B] Moogle (ID: 17719966/0x010E629E) [15328*]:
    → "Yes? Mm hmm... Mm hmm..."
314: 0x0992 [0x23] WAIT_FOR_DIALOG_INTERACTION
315: 0x0993 [0x1C] WAIT(60* ticks)
316: 0x0996 [0x5C] MUSIC_CONTROL: Set Idle (Day) music to song 136*
317: 0x099A [0x5C] MUSIC_CONTROL: Set Idle (Night) music to song 136*
318: 0x099E [0x9A] WAIT_MUSIC_SERVER()
319: 0x099F [0x52] END_LOAD_SCHEDULER: End scheduler "s521" with entities [EventEntity, EventEntity], work=639*
320: 0x09AE [0x45] LOAD_SCHEDULED_TASK: Load scheduler "s512" with entities [EventEntity, EventEntity], work=[639*, 0*]
321: 0x09BF [0x4E] SET_ENTITY_HIDE_FLAG: Hide Spriggan Sifter (ID: 17719967/0x010E629F)
322: 0x09C5 [0x4E] SET_ENTITY_HIDE_FLAG: Hide Spriggan Crier (ID: 17719968/0x010E62A0)
323: 0x09CB [0x4E] SET_ENTITY_HIDE_FLAG: Hide Spriggan Graverobber (ID: 17719969/0x010E62A1)
324: 0x09D1 [0x2C] CREATE_SCHEDULER_TASK: Create scheduler "hap0" with entities [Moogle (ID: 17719966/0x010E629E), Moogle (ID: 17719966/0x010E629E)]
325: 0x09DE [0x2B] Moogle (ID: 17719966/0x010E629E) [15329*]:
    → "Altana kupo it all!"
326: 0x09E5 [0x23] WAIT_FOR_DIALOG_INTERACTION
327: 0x09E6 [0x2B] Moogle (ID: 17719966/0x010E629E) [15330*]:
    → "The ones we previously petrified have escaped, and they're traipsing outside town!"
328: 0x09ED [0x23] WAIT_FOR_DIALOG_INTERACTION
329: 0x09EE [0x2C] CREATE_SCHEDULER_TASK: Create scheduler "hap1" with entities [Moogle (ID: 17719966/0x010E629E), Moogle (ID: 17719966/0x010E629E)]
330: 0x09FB [0x53] WAIT_SCHEDULER_TASK: Wait for scheduler "hap1" with entities [Moogle (ID: 17719966/0x010E629E), Moogle (ID: 17719966/0x010E629E)]
331: 0x0A08 [0x52] END_LOAD_SCHEDULER: End scheduler "s512" with entities [EventEntity, EventEntity], work=639*
332: 0x0A17 [0x45] LOAD_SCHEDULED_TASK: Load scheduler "s522" with entities [EventEntity, EventEntity], work=[639*, 0*]
333: 0x0A28 [0x45] LOAD_SCHEDULED_TASK: Load scheduler "boff" with entities [EventEntity, EventEntity], work=[639*, 0*]
334: 0x0A39 [0xA0] WAIT_LOAD_SCHEDULER_MAIN_ALT2: Wait for scheduler "boff" with entities [EventEntity, EventEntity], work=639*
335: 0x0A48 [0x2B] Moogle (ID: 17719966/0x010E629E) [15331*]:
    → "Then again, the clock was ticking on the enchantment expiring."
336: 0x0A4F [0x23] WAIT_FOR_DIALOG_INTERACTION
337: 0x0A50 [0x2B] Moogle (ID: 17719966/0x010E629E) [15332*]:
    → "...And now a nuanced notification from outside town? Oh, dear."
338: 0x0A57 [0x23] WAIT_FOR_DIALOG_INTERACTION
339: 0x0A58 [0x1C] WAIT(120* ticks)
340: 0x0A5B [0x52] END_LOAD_SCHEDULER: End scheduler "s522" with entities [EventEntity, EventEntity], work=639*
341: 0x0A6A [0x45] LOAD_SCHEDULED_TASK: Load scheduler "s523" with entities [EventEntity, EventEntity], work=[639*, 0*]
342: 0x0A7B [0x2C] CREATE_SCHEDULER_TASK: Create scheduler "hap0" with entities [Moogle (ID: 17719966/0x010E629E), Moogle (ID: 17719966/0x010E629E)]
343: 0x0A88 [0x2B] Moogle (ID: 17719966/0x010E629E) [15333*]:
    → "Th-then it's true, kupo!"
344: 0x0A8F [0x23] WAIT_FOR_DIALOG_INTERACTION
345: 0x0A90 [0x2B] Moogle (ID: 17719966/0x010E629E) [15334*]:
    → "Great gasping Goblins! Those furry freaks are capturing crystals again!"
346: 0x0A97 [0x23] WAIT_FOR_DIALOG_INTERACTION
347: 0x0A98 [0x2B] Moogle (ID: 17719966/0x010E629E) [15335*]:
    → "And their bespeckled brethren are helping, kupo!"
348: 0x0A9F [0x23] WAIT_FOR_DIALOG_INTERACTION
349: 0x0AA0 [0x2C] CREATE_SCHEDULER_TASK: Create scheduler "hap1" with entities [Moogle (ID: 17719966/0x010E629E), Moogle (ID: 17719966/0x010E629E)]
350: 0x0AAD [0x53] WAIT_SCHEDULER_TASK: Wait for scheduler "hap1" with entities [Moogle (ID: 17719966/0x010E629E), Moogle (ID: 17719966/0x010E629E)]
351: 0x0ABA [0x4A] Moogle (ID: 17719966/0x010E629E) looks at LocalPlayer
352: 0x0AC3 [0x52] END_LOAD_SCHEDULER: End scheduler "s523" with entities [EventEntity, EventEntity], work=639*
353: 0x0AD2 [0x45] LOAD_SCHEDULED_TASK: Load scheduler "s515" with entities [EventEntity, EventEntity], work=[639*, 0*]
354: 0x0AE3 [0x45] LOAD_SCHEDULED_TASK: Load scheduler "boff" with entities [EventEntity, EventEntity], work=[639*, 0*]
355: 0x0AF4 [0xA0] WAIT_LOAD_SCHEDULER_MAIN_ALT2: Wait for scheduler "boff" with entities [EventEntity, EventEntity], work=639*
356: 0x0B03 [0x6F] WAIT_FRAME_DELAY: Yield until WaitTime reaches zero
357: 0x0B04 [0x76] CHECK_ENTITY_RENDER_FLAGS: Wait until Moogle (ID: 17719966/0x010E629E) Render.Flags0 and Render.Flags3 conditions are met
358: 0x0B09 [0x1C] WAIT(10* ticks)
359: 0x0B0C [0x2C] CREATE_SCHEDULER_TASK: Create scheduler "tlk0" with entities [Moogle (ID: 17719966/0x010E629E), Moogle (ID: 17719966/0x010E629E)]
360: 0x0B19 [0x2B] Moogle (ID: 17719966/0x010E629E) [15336*]:
    → "If they succeed in pilfering our precious prizes, Vana'diel will descend into a desolate decay!"
361: 0x0B20 [0x23] WAIT_FOR_DIALOG_INTERACTION
362: 0x0B21 [0x2C] CREATE_SCHEDULER_TASK: Create scheduler "gak0" with entities [Moogle (ID: 17719966/0x010E629E), Moogle (ID: 17719966/0x010E629E)]
363: 0x0B2E [0x2B] Moogle (ID: 17719966/0x010E629E) [15337*]:
    → "And worse, snafu will surely stain the M.H.M.U.'s resplendent reputation!"
364: 0x0B35 [0x23] WAIT_FOR_DIALOG_INTERACTION
365: 0x0B36 [0x53] WAIT_SCHEDULER_TASK: Wait for scheduler "gak0" with entities [Moogle (ID: 17719966/0x010E629E), Moogle (ID: 17719966/0x010E629E)]
366: 0x0B43 [0x2C] CREATE_SCHEDULER_TASK: Create scheduler "gak1" with entities [Moogle (ID: 17719966/0x010E629E), Moogle (ID: 17719966/0x010E629E)]
367: 0x0B50 [0x53] WAIT_SCHEDULER_TASK: Wait for scheduler "gak1" with entities [Moogle (ID: 17719966/0x010E629E), Moogle (ID: 17719966/0x010E629E)]
368: 0x0B5D [0x52] END_LOAD_SCHEDULER: End scheduler "s515" with entities [EventEntity, EventEntity], work=639*
369: 0x0B6C [0x45] LOAD_SCHEDULED_TASK: Load scheduler "s516" with entities [EventEntity, EventEntity], work=[639*, 0*]
370: 0x0B7D [0x4E] SET_ENTITY_HIDE_FLAG: Show Spriggan Sifter (ID: 17719967/0x010E629F)
371: 0x0B83 [0x4E] SET_ENTITY_HIDE_FLAG: Show Spriggan Crier (ID: 17719968/0x010E62A0)
372: 0x0B89 [0x4E] SET_ENTITY_HIDE_FLAG: Show Spriggan Graverobber (ID: 17719969/0x010E62A1)
373: 0x0B8F [0x2C] CREATE_SCHEDULER_TASK: Create scheduler "exp0" with entities [Moogle (ID: 17719966/0x010E629E), Moogle (ID: 17719966/0x010E629E)]
374: 0x0B9C [0x2B] Moogle (ID: 17719966/0x010E629E) [15338*]:
    → "Most excellent explorer, please travel outside town and round up these recidivist reprobates!"
375: 0x0BA3 [0x23] WAIT_FOR_DIALOG_INTERACTION
376: 0x0BA4 [0x2B] Moogle (ID: 17719966/0x010E629E) [15339*]:
    → "A mixture of moogle magic will enable you to ensconce the evildoers by subjugating them into stone shards."
377: 0x0BAB [0x23] WAIT_FOR_DIALOG_INTERACTION
378: 0x0BAC [0x36] SET_ENTITY_EVENT_POSITION(pos_x=-71.300*, pos_z=-21.900*, pos_y=1.750*)
379: 0x0BB3 [0xBB] LOAD_EVENT_SCHEDULER_ALT: Load scheduler "main" with entities [EventEntity, EventEntity], work=[22*, 0*]
380: 0x0BC4 [0x2C] CREATE_SCHEDULER_TASK: Create scheduler "hap0" with entities [Moogle (ID: 17719966/0x010E629E), Moogle (ID: 17719966/0x010E629E)]
381: 0x0BD1 [0x2B] Moogle (ID: 17719966/0x010E629E) [15340*]:
    → "Of course, I'll reward your righteousness with the requisite remuneration, kupo."
382: 0x0BD8 [0x23] WAIT_FOR_DIALOG_INTERACTION
383: 0x0BD9 [0xBC] WAIT_LOAD_SCHEDULER_ALT2: Wait for scheduler "main" with entities [EventEntity, EventEntity], work=22*
384: 0x0BE8 [0x1C] WAIT(10* ticks)
385: 0x0BEB [0x52] END_LOAD_SCHEDULER: End scheduler "s516" with entities [EventEntity, EventEntity], work=639*
386: 0x0BFA [0x02] IF !(LocalPlayer->Race == 5*) GOTO 0x0C16
387: 0x0C02 [0x45] LOAD_SCHEDULED_TASK: Load scheduler "s514" with entities [EventEntity, EventEntity], work=[639*, 0*]
388: 0x0C13 [0x01] GOTO 0x0C43
389: 0x0C16 [0x02] IF !(LocalPlayer->Race == 6*) GOTO 0x0C32
390: 0x0C1E [0x45] LOAD_SCHEDULED_TASK: Load scheduler "s514" with entities [EventEntity, EventEntity], work=[639*, 0*]
391: 0x0C2F [0x01] GOTO 0x0C43
392: 0x0C32 [0x45] LOAD_SCHEDULED_TASK: Load scheduler "s513" with entities [EventEntity, EventEntity], work=[639*, 0*]

SUBROUTINE_0C43:
393: 0x0C43 [0x2C] CREATE_SCHEDULER_TASK: Create scheduler "exp0" with entities [Moogle (ID: 17719966/0x010E629E), Moogle (ID: 17719966/0x010E629E)]
394: 0x0C50 [0x2B] Moogle (ID: 17719966/0x010E629E) [15341*]:
    → "But since we have such a short supply of stuff, I have to let Lady Luck look upon you with...a lottery!"
395: 0x0C57 [0x23] WAIT_FOR_DIALOG_INTERACTION
396: 0x0C58 [0x2B] Moogle (ID: 17719966/0x010E629E) [15342*]:
    → "The most prestigious prizes are awarded in the order of mauve, vermilion, and chartruese stone shards."
397: 0x0C5F [0x23] WAIT_FOR_DIALOG_INTERACTION
398: 0x0C60 [0x2B] Moogle (ID: 17719966/0x010E629E) [15343*]:
    → "The goods we've gathered can be chosen from a long list that lengthens depending on your success."
399: 0x0C67 [0x23] WAIT_FOR_DIALOG_INTERACTION
400: 0x0C68 [0x2B] Moogle (ID: 17719966/0x010E629E) [15344*]:
    → "Simply stated, if you procure first prize, you can select spoils from lower levels should you deign to do so. And so on."
401: 0x0C6F [0x23] WAIT_FOR_DIALOG_INTERACTION
402: 0x0C70 [0x7B] Moogle (ID: 17719966/0x010E629E) stops talking
403: 0x0C75 [0x02] IF !(LocalPlayer->Race == 5*) GOTO 0x0C8F
404: 0x0C7D [0x52] END_LOAD_SCHEDULER: End scheduler "s514" with entities [EventEntity, EventEntity], work=639*
405: 0x0C8C [0x01] GOTO 0x0CB8
406: 0x0C8F [0x02] IF !(LocalPlayer->Race == 6*) GOTO 0x0CA9
407: 0x0C97 [0x52] END_LOAD_SCHEDULER: End scheduler "s514" with entities [EventEntity, EventEntity], work=639*
408: 0x0CA6 [0x01] GOTO 0x0CB8
409: 0x0CA9 [0x52] END_LOAD_SCHEDULER: End scheduler "s513" with entities [EventEntity, EventEntity], work=639*

SUBROUTINE_0CB8:
410: 0x0CB8 [0x45] LOAD_SCHEDULED_TASK: Load scheduler "s518" with entities [EventEntity, EventEntity], work=[639*, 0*]
411: 0x0CC9 [0x2B] Moogle (ID: 17719966/0x010E629E) [15345*]:
    → "This is a dire dilemma, so I shall send you off to the outskirts immediately. Are you ready, kupo?"
412: 0x0CD0 [0x23] WAIT_FOR_DIALOG_INTERACTION
413: 0x0CD1 [0x2C] CREATE_SCHEDULER_TASK: Create scheduler "exp1" with entities [Moogle (ID: 17719966/0x010E629E), Moogle (ID: 17719966/0x010E629E)]
414: 0x0CDE [0x53] WAIT_SCHEDULER_TASK: Wait for scheduler "exp1" with entities [Moogle (ID: 17719966/0x010E629E), Moogle (ID: 17719966/0x010E629E)]
415: 0x0CEB [0x24] CREATE_DIALOG(message_id=15346*, default_option=0*, option_flags=0*)
    → "Be teleported outside of town? [You bet!/I don't think so.]"
416: 0x0CF2 [0x25] WAIT_DIALOG_SELECT()
417: 0x0CF3 [0x02] IF !(Work_Zone[0] == 0*) GOTO 0x0D47
418: 0x0CFB [0x52] END_LOAD_SCHEDULER: End scheduler "s518" with entities [EventEntity, EventEntity], work=639*
419: 0x0D0A [0x45] LOAD_SCHEDULED_TASK: Load scheduler "s540" with entities [EventEntity, EventEntity], work=[639*, 0*]
420: 0x0D1B [0x2C] CREATE_SCHEDULER_TASK: Create scheduler "job0" with entities [Moogle (ID: 17719966/0x010E629E), Moogle (ID: 17719966/0x010E629E)]
421: 0x0D28 [0x2B] Moogle (ID: 17719966/0x010E629E) [15347*]:
    → "Ready and raring to go! The M.H.M.U.--and all Vana'diel--appreciates your assistance!"
422: 0x0D2F [0x23] WAIT_FOR_DIALOG_INTERACTION
423: 0x0D30 [0x03] Work_Zone[1] = 0*
424: 0x0D35 [0x73] Moogle (ID: 17719966/0x010E629E) casts magic 122* on LocalPlayer
425: 0x0D40 [0x1C] WAIT(270* ticks)
426: 0x0D43 [0x30] SET_UCOFF_CONTINUE_ZERO()
427: 0x0D44 [0x01] GOTO 0x0D79
428: 0x0D47 [0x02] IF !(Work_Zone[0] == 1*) GOTO 0x0D79
429: 0x0D4F [0x2C] CREATE_SCHEDULER_TASK: Create scheduler "exp0" with entities [Moogle (ID: 17719966/0x010E629E), Moogle (ID: 17719966/0x010E629E)]
430: 0x0D5C [0x2B] Moogle (ID: 17719966/0x010E629E) [15348*]:
    → "O-oh dear, kupo... But we really require reinforcements! Please reconsider, kupo!"
431: 0x0D63 [0x23] WAIT_FOR_DIALOG_INTERACTION
432: 0x0D64 [0x2C] CREATE_SCHEDULER_TASK: Create scheduler "exp1" with entities [Moogle (ID: 17719966/0x010E629E), Moogle (ID: 17719966/0x010E629E)]
433: 0x0D71 [0x03] Work_Zone[1] = 1*
434: 0x0D76 [0x01] GOTO 0x0D79

SUBROUTINE_0D79:
435: 0x0D79 [0x45] LOAD_SCHEDULED_TASK: Load scheduler "fdo1" with entities [LocalPlayer, LocalPlayer], work=[200*, 0*]
436: 0x0D8A [0x55] WAIT_LOAD_SCHEDULER: Wait for scheduler "fdo1" with entities [LocalPlayer, LocalPlayer], work=200*
437: 0x0D99 [0x02] IF !(Work_Zone[1] == 0*) GOTO 0x0DCB
438: 0x0DA1 [0x5C] MUSIC_CONTROL: Set Idle (Day) music to song 107*
439: 0x0DA5 [0x5C] MUSIC_CONTROL: Set Idle (Night) music to song 107*
440: 0x0DA9 [0x52] END_LOAD_SCHEDULER: End scheduler "s518" with entities [EventEntity, EventEntity], work=639*
441: 0x0DB8 [0x46] CAMERA_CONTROL: Restore default settings
442: 0x0DBA [0x45] LOAD_SCHEDULED_TASK: Load scheduler "fdi1" with entities [LocalPlayer, LocalPlayer], work=[200*, 0*]
443: 0x0DCB [0x21] END_EVENT
444: 0x0DCC [0x00] END_REQSTACK()
```

### Event 3509

#### Metadata

| Field        | Value      |
|--------------|------------|
| Entrypoint   | 0x0DCD     |
| Data Size    | 2690 bytes |
| Instructions | 371        |

```
      00 01 02 03 04 05 06 07  08 09 0A 0B 0C 0D 0E 0F
      -- -- -- -- -- -- -- --  -- -- -- -- -- -- -- --
0DC0:                                         41 01 80               A..
0DD0: 59 80 02 10 05 00 41 0C  80 02 80 02 10 06 00 41  Y.....A........A
0DE0: 10 80 5A 80 02 10 07 00  03 08 00 03 10 03 11 00  ..Z.............
0DF0: 05 10 02 04 10 56 80 00  07 0E 42 4A 9E 62 0E 01  .....V....BJ.b..
0E00: F0 FF FF 7F 01 0F 13 4A  9E 62 0E 01 F0 FF FF 7F  .......J.b......
0E10: 6F 76 9E 62 0E 01 02 08  00 01 80 01 55 0E 03 02  ov.b........U...
0E20: 10 56 80 2C 9E 62 0E 01  9E 62 0E 01 65 78 70 30  .V.,.b...b..exp0
0E30: 2B 9E 62 0E 01 5B 80 23  2C 9E 62 0E 01 9E 62 0E  +.b..[.#,.b...b.
0E40: 01 65 78 70 31 53 9E 62  0E 01 9E 62 0E 01 65 78  .exp1S.b...b..ex
0E50: 70 31 01 8F 11 02 11 00  56 80 00 8F 0E 2C 9E 62  p1......V....,.b
0E60: 0E 01 9E 62 0E 01 65 78  70 30 2B 9E 62 0E 01 5C  ...b..exp0+.b..\
0E70: 80 23 2B 9E 62 0E 01 5D  80 23 2B 9E 62 0E 01 5E  .#+.b..].#+.b..^
0E80: 80 23 2C 9E 62 0E 01 9E  62 0E 01 65 78 70 31 2C  .#,.b...b..exp1,
0E90: 9E 62 0E 01 9E 62 0E 01  74 6C 6B 30 03 02 10 05  .b...b..tlk0....
0EA0: 00 03 03 10 06 00 03 04  10 07 00 2B 9E 62 0E 01  ...........+.b..
0EB0: 5F 80 23 2C 9E 62 0E 01  9E 62 0E 01 74 6C 6B 31  _.#,.b...b..tlk1
0EC0: 06 0D 00 06 0E 00 06 09  00 06 0A 00 06 0F 00 06  ................
0ED0: 13 00 03 02 10 05 00 03  03 10 06 00 03 04 10 07  ................
0EE0: 00 24 60 80 09 00 01 80  25 02 00 10 01 80 00 2B  .$`.....%......+
0EF0: 16 02 05 00 01 80 05 2C  0F 2C 9E 62 0E 01 9E 62  .......,.,.b...b
0F00: 0E 01 65 78 70 30 03 05  10 61 80 2B 9E 62 0E 01  ..exp0...a.+.b..
0F10: 62 80 23 2C 9E 62 0E 01  9E 62 0E 01 65 78 70 31  b.#,.b...b..exp1
0F20: 40 01 80 61 80 01 10 01  80 01 28 16 42 40 19 80  @..a......(.B@..
0F30: 63 80 01 10 01 80 03 09  00 00 10 40 01 80 61 80  c..........@..a.
0F40: 01 10 61 80 43 00 43 01  41 01 80 59 80 02 10 05  ..a.C.C.A..Y....
0F50: 00 41 0C 80 02 80 02 10  06 00 41 10 80 5A 80 02  .A........A..Z..
0F60: 10 07 00 03 08 00 03 10  03 12 00 04 10 02 12 00  ................
0F70: 56 80 04 99 0F 02 13 00  01 80 00 99 0F 03 13 00  V...............
0F80: 56 80 45 00 80 F0 FF FF  7F F0 FF FF 7F 73 30 33  V.E..........s03
0F90: 33 01 80 1C 0E 80 48 64  80 2C 9E 62 0E 01 9E 62  3.....Hd.,.b...b
0FA0: 0E 01 74 6C 6B 30 02 0E  00 01 80 00 B6 0F 2B 9E  ..tlk0........+.
0FB0: 62 0E 01 65 80 23 2B 9E  62 0E 01 66 80 23 2C 9E  b..e.#+.b..f.#,.
0FC0: 62 0E 01 9E 62 0E 01 74  6C 6B 31 02 0E 00 01 80  b...b..tlk1.....
0FD0: 00 D6 0F 1C 1A 80 02 08  00 63 80 00 03 10 2C 9E  .........c....,.
0FE0: 62 0E 01 9E 62 0E 01 74  6C 6B 30 2B 9E 62 0E 01  b...b..tlk0+.b..
0FF0: 67 80 23 2C 9E 62 0E 01  9E 62 0E 01 74 6C 6B 31  g.#,.b...b..tlk1
1000: 01 5C 11 02 08 00 56 80  80 38 10 2C 9E 62 0E 01  .\....V..8.,.b..
1010: 9E 62 0E 01 68 61 70 30  45 00 80 F0 FF FF 7F F0  .b..hap0E.......
1020: FF FF 7F 66 61 6E 31 01  80 03 07 17 68 80 27 10  ...fan1.....h.'.
1030: 9F 62 0E 01 05 01 A2 10  02 08 00 61 80 80 6D 10  .b.........a..m.
1040: 2C 9E 62 0E 01 9E 62 0E  01 68 61 70 30 45 00 80  ,.b...b..hap0E..
1050: F0 FF FF 7F F0 FF FF 7F  66 61 6E 33 01 80 03 07  ........fan3....
1060: 17 69 80 27 10 9F 62 0E  01 05 01 A2 10 02 08 00  .i.'..b.........
1070: 19 80 80 A2 10 2C 9E 62  0E 01 9E 62 0E 01 68 61  .....,.b...b..ha
1080: 70 30 45 00 80 F0 FF FF  7F F0 FF FF 7F 66 61 6E  p0E..........fan
1090: 34 01 80 03 07 17 40 80  27 10 9F 62 0E 01 05 01  4.....@.'..b....
10A0: A2 10 03 02 10 08 00 2B  9E 62 0E 01 6A 80 23 02  .......+.b..j.#.
10B0: 08 00 56 80 80 DA 10 2A  10 9F 62 0E 01 2C 9E 62  ..V....*..b..,.b
10C0: 0E 01 9E 62 0E 01 68 61  70 31 53 9E 62 0E 01 9E  ...b..hap1S.b...
10D0: 62 0E 01 68 61 70 31 01  30 11 02 08 00 61 80 80  b..hap1.0....a..
10E0: 05 11 2A 10 9F 62 0E 01  2C 9E 62 0E 01 9E 62 0E  ..*..b..,.b...b.
10F0: 01 68 61 70 31 53 9E 62  0E 01 9E 62 0E 01 68 61  .hap1S.b...b..ha
1100: 70 31 01 30 11 02 08 00  19 80 80 30 11 2A 10 9F  p1.0.......0.*..
1110: 62 0E 01 2C 9E 62 0E 01  9E 62 0E 01 68 61 70 31  b..,.b...b..hap1
1120: 53 9E 62 0E 01 9E 62 0E  01 68 61 70 31 01 30 11  S.b...b..hap1.0.
1130: 02 12 00 61 80 00 5C 11  02 13 00 56 80 00 5C 11  ...a..\....V..\.
1140: 03 13 00 01 80 45 00 80  F0 FF FF 7F F0 FF FF 7F  .....E..........
1150: 73 30 33 34 01 80 1C 0E  80 48 6B 80 03 02 10 01  s034.....Hk.....
1160: 80 02 0E 00 01 80 00 8E  11 2C 9E 62 0E 01 9E 62  .........,.b...b
1170: 0E 01 65 78 70 30 2B 9E  62 0E 01 5B 80 23 2C 9E  ..exp0+.b..[.#,.
1180: 62 0E 01 9E 62 0E 01 65  78 70 31 05 0E 00 2E 9D  b...b..exp1.....
1190: 00 86 1A 03 10 01 80 9D  00 86 1A 04 10 56 80 9D  .............V..
11A0: 00 86 1A 05 10 61 80 9D  00 86 1A 06 10 19 80 9D  .....a..........
11B0: 00 86 1A 07 10 63 80 9D  00 86 1A 08 10 0B 80 9D  .....c..........
11C0: 00 86 1A 09 10 0F 80 9D  00 86 1A 00 17 21 80 9D  .............!..
11D0: 00 86 1A 01 17 6C 80 9D  00 86 1A 02 17 59 80 02  .....l.......Y..
11E0: 08 00 56 80 80 EF 11 03  14 00 01 80 01 1F 12 02  ..V.............
11F0: 08 00 61 80 80 FF 11 03  14 00 19 80 01 1F 12 02  ..a.............
1200: 08 00 19 80 80 0F 12 03  14 00 0D 80 01 1F 12 02  ................
1210: 08 00 63 80 80 1F 12 03  14 00 6D 80 01 1F 12 02  ..c.......m.....
1220: 0D 00 08 00 01 2F 12 06  0A 00 03 0D 00 08 00 24  ...../.........$
1230: 6E 80 0A 00 14 00 25 02  00 10 0C 80 00 6E 12 2C  n.....%......n.,
1240: 9E 62 0E 01 9E 62 0E 01  65 78 70 30 2B 9E 62 0E  .b...b..exp0+.b.
1250: 01 6F 80 23 2C 9E 62 0E  01 9E 62 0E 01 65 78 70  .o.#,.b...b..exp
1260: 31 40 01 80 61 80 01 10  01 80 21 01 73 12 03 0A  1@..a.....!.s...
1270: 00 00 10 06 10 00 05 0C  00 3E 0F 00 0A 00 86 12  .........>......
1280: 05 10 00 06 0C 00 9D 00  86 1A 03 17 0A 00 02 10  ................
1290: 00 01 80 00 CB 12 93 03  17 2C 9E 62 0E 01 9E 62  .........,.b...b
12A0: 0E 01 65 78 70 30 2B 9E  62 0E 01 70 80 23 2C 9E  ..exp0+.b..p.#,.
12B0: 62 0E 01 9E 62 0E 01 65  78 70 31 53 9E 62 0E 01  b...b..exp1S.b..
12C0: 9E 62 0E 01 65 78 70 31  93 01 80 24 71 80 0C 00  .b..exp1...$q...
12D0: 01 80 25 02 00 10 01 80  00 1A 16 42 40 01 80 61  ..%........B@..a
12E0: 80 01 10 19 80 40 0B 80  6C 80 01 10 0A 00 43 00  .....@..l.....C.
12F0: 43 01 02 02 10 72 80 00  07 13 40 01 80 61 80 01  C....r....@..a..
1300: 10 01 80 21 01 17 16 02  03 10 56 80 00 F1 15 45  ...!......V....E
1310: 00 80 F0 FF FF 7F F0 FF  FF 7F 66 64 6F 31 01 80  ..........fdo1..
1320: 55 00 80 F0 FF FF 7F F0  FF FF 7F 66 64 6F 31 46  U..........fdo1F
1330: 01 38 02 80 2F 00 A2 62  0E 01 2F 00 A3 62 0E 01  .8../..b../..b..
1340: 4E 00 A2 62 0E 01 4E 00  A3 62 0E 01 92 01 9E 62  N..b..N..b.....b
1350: 0E 01 92 01 9F 62 0E 01  92 01 A0 62 0E 01 92 01  .....b.....b....
1360: A1 62 0E 01 94 01 9E 62  0E 01 94 01 9F 62 0E 01  .b.....b.....b..
1370: 94 01 A0 62 0E 01 94 01  A1 62 0E 01 94 01 F0 FF  ...b.....b......
1380: FF 7F BA F0 FF FF 7F 08  80 04 80 05 80 39 80 4A  .............9.J
1390: F0 FF FF 7F 9E 62 0E 01  4A 9E 62 0E 01 F0 FF FF  .....b..J.b.....
13A0: 7F 4A 9F 62 0E 01 F0 FF  FF 7F 4A A0 62 0E 01 F0  .J.b......J.b...
13B0: FF FF 7F 4A A1 62 0E 01  F0 FF FF 7F 6F 76 F0 FF  ...J.b......ov..
13C0: FF 7F 6F 76 9E 62 0E 01  6F 76 9F 62 0E 01 6F 76  ..ov.b..ov.b..ov
13D0: A0 62 0E 01 6F 76 A1 62  0E 01 80 F0 FF FF 7F 80  .b..ov.b........
13E0: 9E 62 0E 01 80 9F 62 0E  01 80 A0 62 0E 01 80 A1  .b....b....b....
13F0: 62 0E 01 5C 00 07 80 5C  01 07 80 9A 02 87 7F 0B  b..\...\........
1400: 80 80 18 14 45 09 80 F8  FF FF 7F F8 FF FF 7F 73  ....E..........s
1410: 35 33 34 01 80 01 45 14  02 87 7F 0F 80 80 34 14  534...E.......4.
1420: 45 09 80 F8 FF FF 7F F8  FF FF 7F 73 35 33 34 01  E..........s534.
1430: 80 01 45 14 45 09 80 F8  FF FF 7F F8 FF FF 7F 73  ..E.E..........s
1440: 35 33 33 01 80 45 00 80  F0 FF FF 7F F0 FF FF 7F  533..E..........
1450: 66 64 69 31 01 80 1C 1A  80 2C 9E 62 0E 01 9E 62  fdi1.....,.b...b
1460: 0E 01 74 6C 6B 30 2B 9E  62 0E 01 73 80 23 2C 9E  ..tlk0+.b..s.#,.
1470: 62 0E 01 9E 62 0E 01 65  78 70 30 2B 9E 62 0E 01  b...b..exp0+.b..
1480: 74 80 23 2C 9E 62 0E 01  9E 62 0E 01 65 78 70 31  t.#,.b...b..exp1
1490: 02 87 7F 0B 80 80 AA 14  52 09 80 F8 FF FF 7F F8  ........R.......
14A0: FF FF 7F 73 35 33 34 01  D3 14 02 87 7F 0F 80 80  ...s534.........
14B0: C4 14 52 09 80 F8 FF FF  7F F8 FF FF 7F 73 35 33  ..R..........s53
14C0: 34 01 D3 14 52 09 80 F8  FF FF 7F F8 FF FF 7F 73  4...R..........s
14D0: 35 33 33 45 09 80 F8 FF  FF 7F F8 FF FF 7F 73 35  533E..........s5
14E0: 33 35 01 80 9F 12 80 F8  FF FF 7F F8 FF FF 7F 6D  35.............m
14F0: 61 69 6E 01 80 33 01 A4  01 36 13 80 14 80 15 80  ain..3...6......
1500: 59 05 A2 62 0E 01 01 59  05 A3 62 0E 01 01 03 01  Y..b...Y..b.....
1510: 00 13 80 03 02 00 14 80  08 02 00 16 80 BA A2 62  ...............b
1520: 0E 01 01 00 02 00 15 80  01 80 08 01 00 17 80 07  ................
1530: 02 00 16 80 BA A3 62 0E  01 01 00 02 00 15 80 01  ......b.........
1540: 80 1C 40 80 62 19 80 F8  FF FF 7F F8 FF FF 7F 6D  ..@.b..........m
1550: 61 69 6E 01 80 62 19 80  A2 62 0E 01 A2 62 0E 01  ain..b...b...b..
1560: 6D 61 69 6E 01 80 62 19  80 A3 62 0E 01 A3 62 0E  main..b...b...b.
1570: 01 6D 61 69 6E 01 80 1C  40 80 40 01 80 61 80 01  .main...@.@..a..
1580: 10 63 80 45 00 80 F0 FF  FF 7F F0 FF FF 7F 66 64  .c.E..........fd
1590: 6F 31 01 80 55 00 80 F0  FF FF 7F F0 FF FF 7F 66  o1..U..........f
15A0: 64 6F 31 9F 12 80 F8 FF  FF 7F F8 FF FF 7F 6B 69  do1...........ki
15B0: 6C 6C 01 80 A2 12 80 F8  FF FF 7F F8 FF FF 7F 6B  ll.............k
15C0: 69 6C 6C 1C 0E 80 5C 00  58 80 5C 01 58 80 52 09  ill...\.X.\.X.R.
15D0: 80 F8 FF FF 7F F8 FF FF  7F 73 35 33 32 46 00 45  .........s532F.E
15E0: 00 80 F0 FF FF 7F F0 FF  FF 7F 66 64 69 31 01 80  ..........fdi1..
15F0: 21 3C 0F 00 0A 00 56 80  2E 41 01 80 59 80 02 10  !<....V..A..Y...
1600: 05 00 41 0C 80 02 80 02  10 06 00 41 10 80 5A 80  ..A........A..Z.
1610: 02 10 07 00 01 D2 0E 01  28 16 02 00 10 56 80 00  ........(....V..
1620: 28 16 01 1F 12 01 28 16  01 4D 18 02 00 10 56 80  (.....(..M....V.
1630: 00 7E 16 02 06 00 01 80  05 6E 16 2C 9E 62 0E 01  .~.......n.,.b..
1640: 9E 62 0E 01 65 78 70 30  03 05 10 56 80 2B 9E 62  .b..exp0...V.+.b
1650: 0E 01 62 80 23 2C 9E 62  0E 01 9E 62 0E 01 65 78  ..b.#,.b...b..ex
1660: 70 31 40 01 80 61 80 01  10 01 80 01 7B 16 42 40  p1@..a......{.B@
1670: 19 80 63 80 01 10 56 80  01 36 0F 01 4D 18 02 00  ..c...V..6..M...
1680: 10 61 80 00 D1 16 02 07  00 01 80 05 C1 16 2C 9E  .a............,.
1690: 62 0E 01 9E 62 0E 01 65  78 70 30 03 05 10 01 80  b...b..exp0.....
16A0: 2B 9E 62 0E 01 62 80 23  2C 9E 62 0E 01 9E 62 0E  +.b..b.#,.b...b.
16B0: 01 65 78 70 31 40 01 80  61 80 01 10 01 80 01 CE  .exp1@..a.......
16C0: 16 42 40 19 80 63 80 01  10 61 80 01 36 0F 01 4D  .B@..c...a..6..M
16D0: 18 02 00 10 19 80 00 EF  17 06 0A 00 9D 00 86 1A  ................
16E0: 03 10 01 80 9D 00 86 1A  04 10 56 80 9D 00 86 1A  ..........V.....
16F0: 05 10 61 80 9D 00 86 1A  06 10 19 80 9D 00 86 1A  ..a.............
1700: 07 10 63 80 9D 00 86 1A  08 10 0B 80 9D 00 86 1A  ..c.............
1710: 09 10 0F 80 9D 00 86 1A  00 17 21 80 9D 00 86 1A  ..........!.....
1720: 01 17 6C 80 9D 00 86 1A  02 17 59 80 24 75 80 0A  ..l.......Y.$u..
1730: 00 01 80 25 02 00 10 01  80 00 49 17 03 14 00 76  ...%......I....v
1740: 80 03 0A 00 00 10 01 96  17 02 00 10 56 80 00 5E  ............V..^
1750: 17 03 14 00 77 80 03 0A  00 00 10 01 96 17 02 00  ....w...........
1760: 10 61 80 00 73 17 03 14  00 78 80 03 0A 00 00 10  .a..s....x......
1770: 01 96 17 02 00 10 19 80  00 88 17 03 14 00 6D 80  ..............m.
1780: 03 0A 00 00 10 01 96 17  02 00 10 63 80 00 96 17  ...........c....
1790: 01 D2 0E 01 96 17 06 0B  00 03 02 10 56 80 24 6E  ............V.$n
17A0: 80 0B 00 14 00 25 02 00  10 0C 80 00 B4 17 01 DC  .....%..........
17B0: 16 01 C4 17 03 0B 00 00  10 9D 00 86 1A 03 17 0B  ................
17C0: 00 93 03 17 2C 9E 62 0E  01 9E 62 0E 01 65 78 70  ....,.b...b..exp
17D0: 30 2B 9E 62 0E 01 79 80  23 2C 9E 62 0E 01 9E 62  0+.b..y.#,.b...b
17E0: 0E 01 65 78 70 31 93 01  80 01 99 17 01 4D 18 02  ..exp1.......M..
17F0: 00 10 63 80 00 39 18 42  2C 9E 62 0E 01 9E 62 0E  ..c..9.B,.b...b.
1800: 01 6A 6F 62 30 2B 9E 62  0E 01 53 80 23 40 01 80  .job0+.b..S.#@..
1810: 61 80 01 10 56 80 73 54  80 9E 62 0E 01 F0 FF FF  a...V.sT..b.....
1820: 7F 1C 55 80 45 00 80 F0  FF FF 7F F0 FF FF 7F 66  ..U.E..........f
1830: 64 6F 31 01 80 30 01 4D  18 02 00 10 0B 80 00 4D  do1..0.M.......M
1840: 18 40 01 80 61 80 01 10  01 80 01 4D 18 21 00     .@..a......M.!. 
```

#### Opcodes

```
  0: 0x0DCD [0x41] ExtData[1]->WorkLocal[5] = Work_Zone[2] (bits 0*-9*)
  1: 0x0DD6 [0x41] ExtData[1]->WorkLocal[6] = Work_Zone[2] (bits 10*-19*)
  2: 0x0DDF [0x41] ExtData[1]->WorkLocal[7] = Work_Zone[2] (bits 20*-29*)
  3: 0x0DE8 [0x03] ExtData[1]->WorkLocal[8] = Work_Zone[3]
  4: 0x0DED [0x03] ExtData[1]->WorkLocal[17] = Work_Zone[5]
  5: 0x0DF2 [0x02] IF !(Work_Zone[4] == 1*) GOTO 0x0E07
  6: 0x0DFA [0x42] SET_CLI_EVENT_CANCEL_DATA()
  7: 0x0DFB [0x4A] Moogle (ID: 17719966/0x010E629E) looks at LocalPlayer
  8: 0x0E04 [0x01] GOTO 0x130F
  9: 0x0E07 [0x4A] Moogle (ID: 17719966/0x010E629E) looks at LocalPlayer
 10: 0x0E10 [0x6F] WAIT_FRAME_DELAY: Yield until WaitTime reaches zero
 11: 0x0E11 [0x76] CHECK_ENTITY_RENDER_FLAGS: Wait until Moogle (ID: 17719966/0x010E629E) Render.Flags0 and Render.Flags3 conditions are met
 12: 0x0E16 [0x02] IF !(ExtData[1]->WorkLocal[8] == 0*) GOTO 0x0E55
 13: 0x0E1E [0x03] Work_Zone[2] = 1*
 14: 0x0E23 [0x2C] CREATE_SCHEDULER_TASK: Create scheduler "exp0" with entities [Moogle (ID: 17719966/0x010E629E), Moogle (ID: 17719966/0x010E629E)]
 15: 0x0E30 [0x2B] Moogle (ID: 17719966/0x010E629E) [15361*]:
    → "Select your prize from the long list I'm about to lay upon you, kupo!"
 16: 0x0E37 [0x23] WAIT_FOR_DIALOG_INTERACTION
 17: 0x0E38 [0x2C] CREATE_SCHEDULER_TASK: Create scheduler "exp1" with entities [Moogle (ID: 17719966/0x010E629E), Moogle (ID: 17719966/0x010E629E)]
 18: 0x0E45 [0x53] WAIT_SCHEDULER_TASK: Wait for scheduler "exp1" with entities [Moogle (ID: 17719966/0x010E629E), Moogle (ID: 17719966/0x010E629E)]
 19: 0x0E52 [0x01] GOTO 0x118F
 20: 0x0E55 [0x02] IF !(ExtData[1]->WorkLocal[17] == 1*) GOTO 0x0E8F
 21: 0x0E5D [0x2C] CREATE_SCHEDULER_TASK: Create scheduler "exp0" with entities [Moogle (ID: 17719966/0x010E629E), Moogle (ID: 17719966/0x010E629E)]
 22: 0x0E6A [0x2B] Moogle (ID: 17719966/0x010E629E) [15352*]:
    → "Altana above, kupo!"
 23: 0x0E71 [0x23] WAIT_FOR_DIALOG_INTERACTION
 24: 0x0E72 [0x2B] Moogle (ID: 17719966/0x010E629E) [15353*]:
    → "Congratulations!"
 25: 0x0E79 [0x23] WAIT_FOR_DIALOG_INTERACTION
 26: 0x0E7A [0x2B] Moogle (ID: 17719966/0x010E629E) [15354*]:
    → "You're more likely to get on a hot streak thanks to the intricacies of that item!"
 27: 0x0E81 [0x23] WAIT_FOR_DIALOG_INTERACTION
 28: 0x0E82 [0x2C] CREATE_SCHEDULER_TASK: Create scheduler "exp1" with entities [Moogle (ID: 17719966/0x010E629E), Moogle (ID: 17719966/0x010E629E)]
 29: 0x0E8F [0x2C] CREATE_SCHEDULER_TASK: Create scheduler "tlk0" with entities [Moogle (ID: 17719966/0x010E629E), Moogle (ID: 17719966/0x010E629E)]
 30: 0x0E9C [0x03] Work_Zone[2] = ExtData[1]->WorkLocal[5]
 31: 0x0EA1 [0x03] Work_Zone[3] = ExtData[1]->WorkLocal[6]
 32: 0x0EA6 [0x03] Work_Zone[4] = ExtData[1]->WorkLocal[7]
 33: 0x0EAB [0x2B] Moogle (ID: 17719966/0x010E629E) [15349*]:
    → "You have phenomenally procured a prodigious amount of $0 chartruese stone shard[/s], $1 vermilion stone shard[/s], and $2 mauve stone shard[/s]. What would you like, kupo?"
 34: 0x0EB2 [0x23] WAIT_FOR_DIALOG_INTERACTION
 35: 0x0EB3 [0x2C] CREATE_SCHEDULER_TASK: Create scheduler "tlk1" with entities [Moogle (ID: 17719966/0x010E629E), Moogle (ID: 17719966/0x010E629E)]
 36: 0x0EC0 [0x06] ExtData[1]->WorkLocal[13] = 0
 37: 0x0EC3 [0x06] ExtData[1]->WorkLocal[14] = 0
 38: 0x0EC6 [0x06] ExtData[1]->WorkLocal[9] = 0
 39: 0x0EC9 [0x06] ExtData[1]->WorkLocal[10] = 0
 40: 0x0ECC [0x06] ExtData[1]->WorkLocal[15] = 0
 41: 0x0ECF [0x06] ExtData[1]->WorkLocal[19] = 0

SUBROUTINE_0ED2:
 42: 0x0ED2 [0x03] Work_Zone[2] = ExtData[1]->WorkLocal[5]
 43: 0x0ED7 [0x03] Work_Zone[3] = ExtData[1]->WorkLocal[6]
 44: 0x0EDC [0x03] Work_Zone[4] = ExtData[1]->WorkLocal[7]
 45: 0x0EE1 [0x24] CREATE_DIALOG(message_id=15350*, default_option=ExtData[1]->WorkLocal[9], option_flags=0*)
    → "What will you do? [Spin the wheel! ($0 chartruese shard[/s])/Spin the wheel! ($1 vermilion shard[/s])/Spin the wheel! ($2 mauve shard[/s])/Check the item list./Warp outside town./Nothing.]"
 46: 0x0EE8 [0x25] WAIT_DIALOG_SELECT()
 47: 0x0EE9 [0x02] IF !(Work_Zone[0] == 0*) GOTO 0x162B
 48: 0x0EF1 [0x02] IF !(ExtData[1]->WorkLocal[5] > 0*) GOTO 0x0F2C
 49: 0x0EF9 [0x2C] CREATE_SCHEDULER_TASK: Create scheduler "exp0" with entities [Moogle (ID: 17719966/0x010E629E), Moogle (ID: 17719966/0x010E629E)]
 50: 0x0F06 [0x03] Work_Zone[5] = 2*
 51: 0x0F0B [0x2B] Moogle (ID: 17719966/0x010E629E) [15351*]:
    → "You have not harvested a sufficient supply of [mauve stone shards/vermilion stone shards/chartruese stone shards], kupo! Clobber more critters and come back later!"
 52: 0x0F12 [0x23] WAIT_FOR_DIALOG_INTERACTION
 53: 0x0F13 [0x2C] CREATE_SCHEDULER_TASK: Create scheduler "exp1" with entities [Moogle (ID: 17719966/0x010E629E), Moogle (ID: 17719966/0x010E629E)]
 54: 0x0F20 [0x40] SET_BIT_WORK_RANGE(start_bit=0*, end_bit=2*, target=Work_Zone[1], source=0*)
 55: 0x0F29 [0x01] GOTO 0x1628
 56: 0x0F2C [0x42] SET_CLI_EVENT_CANCEL_DATA()
 57: 0x0F2D [0x40] SET_BIT_WORK_RANGE(start_bit=3*, end_bit=4*, target=Work_Zone[1], source=0*)

SUBROUTINE_0F36:
 58: 0x0F36 [0x03] ExtData[1]->WorkLocal[9] = Work_Zone[0]
 59: 0x0F3B [0x40] SET_BIT_WORK_RANGE(start_bit=0*, end_bit=2*, target=Work_Zone[1], source=2*)
 60: 0x0F44 [0x43] SEND_EVENT_UPDATE: Send pending tag to server (packet 0x005B)
 61: 0x0F46 [0x43] SEND_EVENT_UPDATE: Check pending flag (skip if not pending)
 62: 0x0F48 [0x41] ExtData[1]->WorkLocal[5] = Work_Zone[2] (bits 0*-9*)
 63: 0x0F51 [0x41] ExtData[1]->WorkLocal[6] = Work_Zone[2] (bits 10*-19*)
 64: 0x0F5A [0x41] ExtData[1]->WorkLocal[7] = Work_Zone[2] (bits 20*-29*)
 65: 0x0F63 [0x03] ExtData[1]->WorkLocal[8] = Work_Zone[3]
 66: 0x0F68 [0x03] ExtData[1]->WorkLocal[18] = Work_Zone[4]
 67: 0x0F6D [0x02] IF !(ExtData[1]->WorkLocal[18] < 1*) GOTO 0x0F99
 68: 0x0F75 [0x02] IF !(ExtData[1]->WorkLocal[19] == 0*) GOTO 0x0F99
 69: 0x0F7D [0x03] ExtData[1]->WorkLocal[19] = 1*
 70: 0x0F82 [0x45] LOAD_SCHEDULED_TASK: Load scheduler "s033" with entities [LocalPlayer, LocalPlayer], work=[200*, 0*]
 71: 0x0F93 [0x1C] WAIT(30* ticks)
 72: 0x0F96 [0x48] [System] [15355*]:
    → "You are on a hot streak!"
 73: 0x0F99 [0x2C] CREATE_SCHEDULER_TASK: Create scheduler "tlk0" with entities [Moogle (ID: 17719966/0x010E629E), Moogle (ID: 17719966/0x010E629E)]
 74: 0x0FA6 [0x02] IF !(ExtData[1]->WorkLocal[14] == 0*) GOTO 0x0FB6
 75: 0x0FAE [0x2B] Moogle (ID: 17719966/0x010E629E) [15357*]:
    → "Roll them bones, kupo!"
 76: 0x0FB5 [0x23] WAIT_FOR_DIALOG_INTERACTION
 77: 0x0FB6 [0x2B] Moogle (ID: 17719966/0x010E629E) [15358*]:
    → "And the outstanding outcome is..."
 78: 0x0FBD [0x23] WAIT_FOR_DIALOG_INTERACTION
 79: 0x0FBE [0x2C] CREATE_SCHEDULER_TASK: Create scheduler "tlk1" with entities [Moogle (ID: 17719966/0x010E629E), Moogle (ID: 17719966/0x010E629E)]
 80: 0x0FCB [0x02] IF !(ExtData[1]->WorkLocal[14] == 0*) GOTO 0x0FD6
 81: 0x0FD3 [0x1C] WAIT(60* ticks)
 82: 0x0FD6 [0x02] IF !(ExtData[1]->WorkLocal[8] == 4*) GOTO 0x1003
 83: 0x0FDE [0x2C] CREATE_SCHEDULER_TASK: Create scheduler "tlk0" with entities [Moogle (ID: 17719966/0x010E629E), Moogle (ID: 17719966/0x010E629E)]
 84: 0x0FEB [0x2B] Moogle (ID: 17719966/0x010E629E) [15360*]:
    → "...the booby prize, kupo..."
 85: 0x0FF2 [0x23] WAIT_FOR_DIALOG_INTERACTION
 86: 0x0FF3 [0x2C] CREATE_SCHEDULER_TASK: Create scheduler "tlk1" with entities [Moogle (ID: 17719966/0x010E629E), Moogle (ID: 17719966/0x010E629E)]
 87: 0x1000 [0x01] GOTO 0x115C
 88: 0x1003 [0x02] IF !(ExtData[1]->WorkLocal[8] == 1*) GOTO 0x1038
 89: 0x100B [0x2C] CREATE_SCHEDULER_TASK: Create scheduler "hap0" with entities [Moogle (ID: 17719966/0x010E629E), Moogle (ID: 17719966/0x010E629E)]
 90: 0x1018 [0x45] LOAD_SCHEDULED_TASK: Load scheduler "fan1" with entities [LocalPlayer, LocalPlayer], work=[200*, 0*]
 91: 0x1029 [0x03] Work_Zone_1700[7] = 480*
 92: 0x102E [0x27] REQ_SET(priority=0x10, entity_id=Spriggan Sifter (ID: 17719967/0x010E629F), tag_num=0x05)
 93: 0x1035 [0x01] GOTO 0x10A2
 94: 0x1038 [0x02] IF !(ExtData[1]->WorkLocal[8] == 2*) GOTO 0x106D
 95: 0x1040 [0x2C] CREATE_SCHEDULER_TASK: Create scheduler "hap0" with entities [Moogle (ID: 17719966/0x010E629E), Moogle (ID: 17719966/0x010E629E)]
 96: 0x104D [0x45] LOAD_SCHEDULED_TASK: Load scheduler "fan3" with entities [LocalPlayer, LocalPlayer], work=[200*, 0*]
 97: 0x105E [0x03] Work_Zone_1700[7] = 180*
 98: 0x1063 [0x27] REQ_SET(priority=0x10, entity_id=Spriggan Sifter (ID: 17719967/0x010E629F), tag_num=0x05)
 99: 0x106A [0x01] GOTO 0x10A2
100: 0x106D [0x02] IF !(ExtData[1]->WorkLocal[8] == 3*) GOTO 0x10A2
101: 0x1075 [0x2C] CREATE_SCHEDULER_TASK: Create scheduler "hap0" with entities [Moogle (ID: 17719966/0x010E629E), Moogle (ID: 17719966/0x010E629E)]
102: 0x1082 [0x45] LOAD_SCHEDULED_TASK: Load scheduler "fan4" with entities [LocalPlayer, LocalPlayer], work=[200*, 0*]
103: 0x1093 [0x03] Work_Zone_1700[7] = 120*
104: 0x1098 [0x27] REQ_SET(priority=0x10, entity_id=Spriggan Sifter (ID: 17719967/0x010E629F), tag_num=0x05)
105: 0x109F [0x01] GOTO 0x10A2

SUBROUTINE_10A2:
106: 0x10A2 [0x03] Work_Zone[2] = ExtData[1]->WorkLocal[8]
107: 0x10A7 [0x2B] Moogle (ID: 17719966/0x010E629E) [15359*]:
    → "[.../First prize! Absolutely amazing!/Second prize! Emphatically excellent!/Third prize! Positively peachy!]"
108: 0x10AE [0x23] WAIT_FOR_DIALOG_INTERACTION
109: 0x10AF [0x02] IF !(ExtData[1]->WorkLocal[8] == 1*) GOTO 0x10DA
110: 0x10B7 [0x2A] GET_REQ_LEVEL(level=16, entity_id=Spriggan Sifter (ID: 17719967/0x010E629F))
111: 0x10BD [0x2C] CREATE_SCHEDULER_TASK: Create scheduler "hap1" with entities [Moogle (ID: 17719966/0x010E629E), Moogle (ID: 17719966/0x010E629E)]
112: 0x10CA [0x53] WAIT_SCHEDULER_TASK: Wait for scheduler "hap1" with entities [Moogle (ID: 17719966/0x010E629E), Moogle (ID: 17719966/0x010E629E)]
113: 0x10D7 [0x01] GOTO 0x1130
114: 0x10DA [0x02] IF !(ExtData[1]->WorkLocal[8] == 2*) GOTO 0x1105
115: 0x10E2 [0x2A] GET_REQ_LEVEL(level=16, entity_id=Spriggan Sifter (ID: 17719967/0x010E629F))
116: 0x10E8 [0x2C] CREATE_SCHEDULER_TASK: Create scheduler "hap1" with entities [Moogle (ID: 17719966/0x010E629E), Moogle (ID: 17719966/0x010E629E)]
117: 0x10F5 [0x53] WAIT_SCHEDULER_TASK: Wait for scheduler "hap1" with entities [Moogle (ID: 17719966/0x010E629E), Moogle (ID: 17719966/0x010E629E)]
118: 0x1102 [0x01] GOTO 0x1130
119: 0x1105 [0x02] IF !(ExtData[1]->WorkLocal[8] == 3*) GOTO 0x1130
120: 0x110D [0x2A] GET_REQ_LEVEL(level=16, entity_id=Spriggan Sifter (ID: 17719967/0x010E629F))
121: 0x1113 [0x2C] CREATE_SCHEDULER_TASK: Create scheduler "hap1" with entities [Moogle (ID: 17719966/0x010E629E), Moogle (ID: 17719966/0x010E629E)]
122: 0x1120 [0x53] WAIT_SCHEDULER_TASK: Wait for scheduler "hap1" with entities [Moogle (ID: 17719966/0x010E629E), Moogle (ID: 17719966/0x010E629E)]
123: 0x112D [0x01] GOTO 0x1130

SUBROUTINE_1130:
124: 0x1130 [0x02] IF !(ExtData[1]->WorkLocal[18] == 2*) GOTO 0x115C
125: 0x1138 [0x02] IF !(ExtData[1]->WorkLocal[19] == 1*) GOTO 0x115C
126: 0x1140 [0x03] ExtData[1]->WorkLocal[19] = 0*
127: 0x1145 [0x45] LOAD_SCHEDULED_TASK: Load scheduler "s034" with entities [LocalPlayer, LocalPlayer], work=[200*, 0*]
128: 0x1156 [0x1C] WAIT(30* ticks)
129: 0x1159 [0x48] [System] [15356*]:
    → "Your hot streak has burned out."

SUBROUTINE_115C:
130: 0x115C [0x03] Work_Zone[2] = 0*
131: 0x1161 [0x02] IF !(ExtData[1]->WorkLocal[14] == 0*) GOTO 0x118E
132: 0x1169 [0x2C] CREATE_SCHEDULER_TASK: Create scheduler "exp0" with entities [Moogle (ID: 17719966/0x010E629E), Moogle (ID: 17719966/0x010E629E)]
133: 0x1176 [0x2B] Moogle (ID: 17719966/0x010E629E) [15361*]:
    → "Select your prize from the long list I'm about to lay upon you, kupo!"
134: 0x117D [0x23] WAIT_FOR_DIALOG_INTERACTION
135: 0x117E [0x2C] CREATE_SCHEDULER_TASK: Create scheduler "exp1" with entities [Moogle (ID: 17719966/0x010E629E), Moogle (ID: 17719966/0x010E629E)]
136: 0x118B [0x05] ExtData[1]->WorkLocal[14] = 1
137: 0x118E [0x2E] SET_CLI_EVENT_CANCEL_FLAGS()

SUBROUTINE_118F:
138: 0x118F [0x9D] Work_Zone[3] = 0x1A86[0*] // Read WORD
139: 0x1197 [0x9D] Work_Zone[4] = 0x1A86[1*] // Read WORD
140: 0x119F [0x9D] Work_Zone[5] = 0x1A86[2*] // Read WORD
141: 0x11A7 [0x9D] Work_Zone[6] = 0x1A86[3*] // Read WORD
142: 0x11AF [0x9D] Work_Zone[7] = 0x1A86[4*] // Read WORD
143: 0x11B7 [0x9D] Work_Zone[8] = 0x1A86[5*] // Read WORD
144: 0x11BF [0x9D] Work_Zone[9] = 0x1A86[6*] // Read WORD
145: 0x11C7 [0x9D] Work_Zone_1700[0] = 0x1A86[7*] // Read WORD
146: 0x11CF [0x9D] Work_Zone_1700[1] = 0x1A86[8*] // Read WORD
147: 0x11D7 [0x9D] Work_Zone_1700[2] = 0x1A86[9*] // Read WORD
148: 0x11DF [0x02] IF !(ExtData[1]->WorkLocal[8] == 1*) GOTO 0x11EF
149: 0x11E7 [0x03] ExtData[1]->WorkLocal[20] = 0*
150: 0x11EC [0x01] GOTO 0x121F
151: 0x11EF [0x02] IF !(ExtData[1]->WorkLocal[8] == 2*) GOTO 0x11FF
152: 0x11F7 [0x03] ExtData[1]->WorkLocal[20] = 3*
153: 0x11FC [0x01] GOTO 0x121F
154: 0x11FF [0x02] IF !(ExtData[1]->WorkLocal[8] == 3*) GOTO 0x120F
155: 0x1207 [0x03] ExtData[1]->WorkLocal[20] = 15*
156: 0x120C [0x01] GOTO 0x121F
157: 0x120F [0x02] IF !(ExtData[1]->WorkLocal[8] == 4*) GOTO 0x121F
158: 0x1217 [0x03] ExtData[1]->WorkLocal[20] = 63*
159: 0x121C [0x01] GOTO 0x121F

SUBROUTINE_121F:
160: 0x121F [0x02] IF !(ExtData[1]->WorkLocal[13] == ExtData[1]->WorkLocal[8]) GOTO 0x122F
161: 0x1227 [0x06] ExtData[1]->WorkLocal[10] = 0
162: 0x122A [0x03] ExtData[1]->WorkLocal[13] = ExtData[1]->WorkLocal[8]
163: 0x122F [0x24] CREATE_DIALOG(message_id=15362*, default_option=ExtData[1]->WorkLocal[10], option_flags=ExtData[1]->WorkLocal[20])
    → "[What would you like/View which item]? [$1./$2./$3./$4./$5./$6./$7./$8./$9./$10./[I'll decide later/I'm done].]"
164: 0x1236 [0x25] WAIT_DIALOG_SELECT()
165: 0x1237 [0x02] IF !(Work_Zone[0] == 10*) GOTO 0x126E
166: 0x123F [0x2C] CREATE_SCHEDULER_TASK: Create scheduler "exp0" with entities [Moogle (ID: 17719966/0x010E629E), Moogle (ID: 17719966/0x010E629E)]
167: 0x124C [0x2B] Moogle (ID: 17719966/0x010E629E) [15365*]:
    → "Come back and call upon me when you determine which doodad you desire!"
168: 0x1253 [0x23] WAIT_FOR_DIALOG_INTERACTION
169: 0x1254 [0x2C] CREATE_SCHEDULER_TASK: Create scheduler "exp1" with entities [Moogle (ID: 17719966/0x010E629E), Moogle (ID: 17719966/0x010E629E)]
170: 0x1261 [0x40] SET_BIT_WORK_RANGE(start_bit=0*, end_bit=2*, target=Work_Zone[1], source=0*)
171: 0x126A [0x21] END_EVENT

SUBROUTINE_1273:
172: 0x1273 [0x06] ExtData[1]->WorkLocal[16] = 0
173: 0x1276 [0x05] ExtData[1]->WorkLocal[12] = 1
174: 0x1279 [0x3E] IF !(ExtData[1]->WorkLocal[15] bit ExtData[1]->WorkLocal[10]) GOTO 0x1286
175: 0x1280 [0x05] ExtData[1]->WorkLocal[16] = 1
176: 0x1283 [0x06] ExtData[1]->WorkLocal[12] = 0
177: 0x1286 [0x9D] Work_Zone_1700[3] = 0x1A86[ExtData[1]->WorkLocal[10]] // Read WORD
178: 0x128E [0x02] IF !(ExtData[1]->WorkLocal[16] == 0*) GOTO 0x12CB
179: 0x1296 [0x93] DISPLAY_ITEM_INFO(item_id=Work_Zone_1700[3])
180: 0x1299 [0x2C] CREATE_SCHEDULER_TASK: Create scheduler "exp0" with entities [Moogle (ID: 17719966/0x010E629E), Moogle (ID: 17719966/0x010E629E)]
181: 0x12A6 [0x2B] Moogle (ID: 17719966/0x010E629E) [15363*]:
    → "Would you like this item, kupo?"
182: 0x12AD [0x23] WAIT_FOR_DIALOG_INTERACTION
183: 0x12AE [0x2C] CREATE_SCHEDULER_TASK: Create scheduler "exp1" with entities [Moogle (ID: 17719966/0x010E629E), Moogle (ID: 17719966/0x010E629E)]
184: 0x12BB [0x53] WAIT_SCHEDULER_TASK: Wait for scheduler "exp1" with entities [Moogle (ID: 17719966/0x010E629E), Moogle (ID: 17719966/0x010E629E)]
185: 0x12C8 [0x93] DISPLAY_ITEM_INFO(item_id=0*)
186: 0x12CB [0x24] CREATE_DIALOG(message_id=15364*, default_option=ExtData[1]->WorkLocal[12], option_flags=0*)
    → "Really select that item? [Undoubtedly./Let me think on it.]"
187: 0x12D2 [0x25] WAIT_DIALOG_SELECT()
188: 0x12D3 [0x02] IF !(Work_Zone[0] == 0*) GOTO 0x161A
189: 0x12DB [0x42] SET_CLI_EVENT_CANCEL_DATA()
190: 0x12DC [0x40] SET_BIT_WORK_RANGE(start_bit=0*, end_bit=2*, target=Work_Zone[1], source=3*)
191: 0x12E5 [0x40] SET_BIT_WORK_RANGE(start_bit=5*, end_bit=8*, target=Work_Zone[1], source=ExtData[1]->WorkLocal[10])
192: 0x12EE [0x43] SEND_EVENT_UPDATE: Send pending tag to server (packet 0x005B)
193: 0x12F0 [0x43] SEND_EVENT_UPDATE: Check pending flag (skip if not pending)
194: 0x12F2 [0x02] IF !(Work_Zone[2] == 4294967295*) GOTO 0x1307
195: 0x12FA [0x40] SET_BIT_WORK_RANGE(start_bit=0*, end_bit=2*, target=Work_Zone[1], source=0*)
196: 0x1303 [0x21] END_EVENT

SUBROUTINE_130F:
197: 0x130F [0x45] LOAD_SCHEDULED_TASK: Load scheduler "fdo1" with entities [LocalPlayer, LocalPlayer], work=[200*, 0*]
198: 0x1320 [0x55] WAIT_LOAD_SCHEDULER: Wait for scheduler "fdo1" with entities [LocalPlayer, LocalPlayer], work=200*
199: 0x132F [0x46] CAMERA_CONTROL: Disable user control
200: 0x1331 [0x38] SET_CLIENT_EVENT_MODE(mode=19*)
201: 0x1334 [0x2F] Unnamed NPC (ID: 17719970/0x010E62A2)->Render.Flags0 &= ~0x80000 // Bit 19
202: 0x133A [0x2F] Unnamed NPC (ID: 17719971/0x010E62A3)->Render.Flags0 &= ~0x80000 // Bit 19
203: 0x1340 [0x4E] SET_ENTITY_HIDE_FLAG: Show Unnamed NPC (ID: 17719970/0x010E62A2)
204: 0x1346 [0x4E] SET_ENTITY_HIDE_FLAG: Show Unnamed NPC (ID: 17719971/0x010E62A3)
205: 0x134C [0x92] Moogle (ID: 17719966/0x010E629E)->Render.Flags3 ^= 0x01
206: 0x1352 [0x92] Spriggan Sifter (ID: 17719967/0x010E629F)->Render.Flags3 ^= 0x01
207: 0x1358 [0x92] Spriggan Crier (ID: 17719968/0x010E62A0)->Render.Flags3 ^= 0x01
208: 0x135E [0x92] Spriggan Graverobber (ID: 17719969/0x010E62A1)->Render.Flags3 ^= 0x01
209: 0x1364 [0x94] Moogle (ID: 17719966/0x010E629E)->Render.Flags3 ^= 0x01
210: 0x136A [0x94] Spriggan Sifter (ID: 17719967/0x010E629F)->Render.Flags3 ^= 0x01
211: 0x1370 [0x94] Spriggan Crier (ID: 17719968/0x010E62A0)->Render.Flags3 ^= 0x01
212: 0x1376 [0x94] Spriggan Graverobber (ID: 17719969/0x010E62A1)->Render.Flags3 ^= 0x01
213: 0x137C [0x94] LocalPlayer->Render.Flags3 ^= 0x01
214: 0x1382 [0xBA] SET_ENTITY_POSITION(entity_id=LocalPlayer, pos_x=-68.000*, pos_z=-20.000*, pos_y=2.000*, direction=134.9°*)
215: 0x138F [0x4A] LocalPlayer looks at Moogle (ID: 17719966/0x010E629E)
216: 0x1398 [0x4A] Moogle (ID: 17719966/0x010E629E) looks at LocalPlayer
217: 0x13A1 [0x4A] Spriggan Sifter (ID: 17719967/0x010E629F) looks at LocalPlayer
218: 0x13AA [0x4A] Spriggan Crier (ID: 17719968/0x010E62A0) looks at LocalPlayer
219: 0x13B3 [0x4A] Spriggan Graverobber (ID: 17719969/0x010E62A1) looks at LocalPlayer
220: 0x13BC [0x6F] WAIT_FRAME_DELAY: Yield until WaitTime reaches zero
221: 0x13BD [0x76] CHECK_ENTITY_RENDER_FLAGS: Wait until LocalPlayer Render.Flags0 and Render.Flags3 conditions are met
222: 0x13C2 [0x6F] WAIT_FRAME_DELAY: Yield until WaitTime reaches zero
223: 0x13C3 [0x76] CHECK_ENTITY_RENDER_FLAGS: Wait until Moogle (ID: 17719966/0x010E629E) Render.Flags0 and Render.Flags3 conditions are met
224: 0x13C8 [0x6F] WAIT_FRAME_DELAY: Yield until WaitTime reaches zero
225: 0x13C9 [0x76] CHECK_ENTITY_RENDER_FLAGS: Wait until Spriggan Sifter (ID: 17719967/0x010E629F) Render.Flags0 and Render.Flags3 conditions are met
226: 0x13CE [0x6F] WAIT_FRAME_DELAY: Yield until WaitTime reaches zero
227: 0x13CF [0x76] CHECK_ENTITY_RENDER_FLAGS: Wait until Spriggan Crier (ID: 17719968/0x010E62A0) Render.Flags0 and Render.Flags3 conditions are met
228: 0x13D4 [0x6F] WAIT_FRAME_DELAY: Yield until WaitTime reaches zero
229: 0x13D5 [0x76] CHECK_ENTITY_RENDER_FLAGS: Wait until Spriggan Graverobber (ID: 17719969/0x010E62A1) Render.Flags0 and Render.Flags3 conditions are met
230: 0x13DA [0x80] LOAD_WAIT(entity=LocalPlayer)
231: 0x13DF [0x80] LOAD_WAIT(entity=Moogle (ID: 17719966/0x010E629E))
232: 0x13E4 [0x80] LOAD_WAIT(entity=Spriggan Sifter (ID: 17719967/0x010E629F))
233: 0x13E9 [0x80] LOAD_WAIT(entity=Spriggan Crier (ID: 17719968/0x010E62A0))
234: 0x13EE [0x80] LOAD_WAIT(entity=Spriggan Graverobber (ID: 17719969/0x010E62A1))
235: 0x13F3 [0x5C] MUSIC_CONTROL: Set Idle (Day) music to song 129*
236: 0x13F7 [0x5C] MUSIC_CONTROL: Set Idle (Night) music to song 129*
237: 0x13FB [0x9A] WAIT_MUSIC_SERVER()
238: 0x13FC [0x02] IF !(LocalPlayer->Race == 5*) GOTO 0x1418
239: 0x1404 [0x45] LOAD_SCHEDULED_TASK: Load scheduler "s534" with entities [EventEntity, EventEntity], work=[639*, 0*]
240: 0x1415 [0x01] GOTO 0x1445
241: 0x1418 [0x02] IF !(LocalPlayer->Race == 6*) GOTO 0x1434
242: 0x1420 [0x45] LOAD_SCHEDULED_TASK: Load scheduler "s534" with entities [EventEntity, EventEntity], work=[639*, 0*]
243: 0x1431 [0x01] GOTO 0x1445
244: 0x1434 [0x45] LOAD_SCHEDULED_TASK: Load scheduler "s533" with entities [EventEntity, EventEntity], work=[639*, 0*]

SUBROUTINE_1445:
245: 0x1445 [0x45] LOAD_SCHEDULED_TASK: Load scheduler "fdi1" with entities [LocalPlayer, LocalPlayer], work=[200*, 0*]
