# 17719931

## Common Data

| Field            | Value                         |
|------------------|-------------------------------|
| Zone             | Southern San d'Oria (ID: 230) |
| Block Size       | 132 bytes                     |
| Total Events     | 5                             |
| References Count | 9                             |

## List of Events

| Event ID                 | Entrypoint   |   Size |   Instructions |
|--------------------------|--------------|--------|----------------|
| [65535](#event-65535)    | 0x0000       |      1 |              1 |
| [986](#event-986)        | 0x0001       |      1 |              1 |
| [65535.1](#event-655351) | 0x0002       |     13 |              3 |
| [65535.2](#event-655352) | 0x000F       |     21 |              2 |
| [65535.3](#event-655353) | 0x0024       |     21 |              2 |

## DAT References (imed_data)

|   Index | Hex Value   |   Dec Value |
|---------|-------------|-------------|
|       0 | 0x002B      |          43 |
|       1 | 0x0002      |           2 |
|       2 | 0x0001      |           1 |
|       3 | 0x008C      |         140 |
|       4 | 0x007A      |         122 |
|       5 | 0x00F4      |         244 |
|       6 | 0x014C      |         332 |
|       7 | 0x0000      |           0 |
|       8 | 0x01C1      |         449 |

## Events

### Event 65535

#### Metadata

| Field        | Value   |
|--------------|---------|
| Entrypoint   | 0x0000  |
| Data Size    | 1 bytes |
| Instructions | 1       |

```
      00 01 02 03 04 05 06 07  08 09 0A 0B 0C 0D 0E 0F
      -- -- -- -- -- -- -- --  -- -- -- -- -- -- -- --
0000: 00                                                .               
```

#### Opcodes

```
  0: 0x0000 [0x00] END_REQSTACK()
```

### Event 986

#### Metadata

| Field        | Value   |
|--------------|---------|
| Entrypoint   | 0x0001  |
| Data Size    | 1 bytes |
| Instructions | 1       |

```
      00 01 02 03 04 05 06 07  08 09 0A 0B 0C 0D 0E 0F
      -- -- -- -- -- -- -- --  -- -- -- -- -- -- -- --
0000:    00                                              .              
```

#### Opcodes

```
  0: 0x0001 [0x00] END_REQSTACK()
```

### Event 65535.1

#### Metadata

| Field        | Value    |
|--------------|----------|
| Entrypoint   | 0x0002   |
| Data Size    | 13 bytes |
| Instructions | 3        |

```
      00 01 02 03 04 05 06 07  08 09 0A 0B 0C 0D 0E 0F
      -- -- -- -- -- -- -- --  -- -- -- -- -- -- -- --
0000:       6E F8 FF FF 7F 00  80 99 F8 FF FF 7F 00       n............ 
```

#### Opcodes

```
  0: 0x0002 [0x6E] EventEntity uses emote 43*
  1: 0x0009 [0x99] Wait for EventEntity animation to complete
  2: 0x000E [0x00] END_REQSTACK()
```

### Event 65535.2

#### Metadata

| Field        | Value    |
|--------------|----------|
| Entrypoint   | 0x000F   |
| Data Size    | 21 bytes |
| Instructions | 2        |

```
      00 01 02 03 04 05 06 07  08 09 0A 0B 0C 0D 0E 0F
      -- -- -- -- -- -- -- --  -- -- -- -- -- -- -- --
0000:                                               B6                 .
0010: 0B 01 80 02 80 03 80 03  80 04 80 05 80 03 80 06  ................
0020: 80 07 80 00                                       ....            
```

#### Opcodes

```
  0: 0x000F [0xB6] ENTITY_APPEARANCE_HANDLER(case=Full entity look, race=2*, hair=1*, head=140*, body=140*, hands=122*, legs=244*, feet=140*, main=332*, sub=0*)
  1: 0x0023 [0x00] END_REQSTACK()
```

### Event 65535.3

#### Metadata

| Field        | Value    |
|--------------|----------|
| Entrypoint   | 0x0024   |
| Data Size    | 21 bytes |
| Instructions | 2        |

```
      00 01 02 03 04 05 06 07  08 09 0A 0B 0C 0D 0E 0F
      -- -- -- -- -- -- -- --  -- -- -- -- -- -- -- --
0020:             B6 0B 01 80  02 80 03 80 03 80 04 80      ............
0030: 05 80 03 80 08 80 07 80  00                       .........       
```

#### Opcodes

```
  0: 0x0024 [0xB6] ENTITY_APPEARANCE_HANDLER(case=Full entity look, race=2*, hair=1*, head=140*, body=140*, hands=122*, legs=244*, feet=140*, main=449*, sub=0*)
  1: 0x0038 [0x00] END_REQSTACK()
```
