# 17719578

## Common Data

| Field            | Value                         |
|------------------|-------------------------------|
| Zone             | Southern San d'Oria (ID: 230) |
| Block Size       | 2276 bytes                    |
| Total Events     | 36                            |
| References Count | 194                           |

## List of Events

| Event ID                   | Entrypoint   |   Size |   Instructions |
|----------------------------|--------------|--------|----------------|
| [65535](#event-65535)      | 0x0000       |      1 |              1 |
| [827](#event-827)          | 0x0001       |      1 |              1 |
| [823](#event-823)          | 0x0002       |      1 |              1 |
| [65535.1](#event-655351)   | 0x0003       |     11 |              3 |
| [65535.2](#event-655352)   | 0x000E       |     25 |              3 |
| [65535.3](#event-655353)   | 0x0027       |     15 |              2 |
| [65535.4](#event-655354)   | 0x0036       |     12 |              3 |
| [65535.5](#event-655355)   | 0x0042       |     15 |              3 |
| [65535.6](#event-655356)   | 0x0051       |    121 |             24 |
| [65535.7](#event-655357)   | 0x00CA       |    121 |             24 |
| [65535.8](#event-655358)   | 0x0143       |     15 |              3 |
| [65535.9](#event-655359)   | 0x0152       |     14 |              4 |
| [65535.10](#event-6553510) | 0x0160       |     11 |              3 |
| [65535.11](#event-6553511) | 0x016B       |     11 |              3 |
| [65535.12](#event-6553512) | 0x0176       |     11 |              3 |
| [65535.13](#event-6553513) | 0x0181       |     14 |              4 |
| [65535.14](#event-6553514) | 0x018F       |     15 |              3 |
| [65535.15](#event-6553515) | 0x019E       |     15 |              3 |
| [65535.16](#event-6553516) | 0x01AD       |     19 |              5 |
| [65535.17](#event-6553517) | 0x01C0       |     15 |              3 |
| [65535.18](#event-6553518) | 0x01CF       |     19 |              5 |
| [65535.19](#event-6553519) | 0x01E2       |     15 |              3 |
| [65535.20](#event-6553520) | 0x01F1       |     19 |              5 |
| [65535.21](#event-6553521) | 0x0204       |     15 |              3 |
| [65535.22](#event-6553522) | 0x0213       |    426 |             89 |
| [861](#event-861)          | 0x03BD       |      1 |              1 |
| [65535.23](#event-6553523) | 0x03BE       |     15 |              3 |
| [65535.24](#event-6553524) | 0x03CD       |     48 |             11 |
| [65535.25](#event-6553525) | 0x03FD       |      6 |              2 |
| [65535.26](#event-6553526) | 0x0403       |     15 |              3 |
| [65535.27](#event-6553527) | 0x0412       |     80 |             18 |
| [65535.28](#event-6553528) | 0x0462       |     67 |             15 |
| [65535.29](#event-6553529) | 0x04A5       |     14 |              4 |
| [65535.30](#event-6553530) | 0x04B3       |     51 |             11 |
| [65535.31](#event-6553531) | 0x04E6       |     15 |              3 |
| [65535.32](#event-6553532) | 0x04F5       |     69 |             15 |

## DAT References (imed_data)

|   Index | Hex Value   |   Dec Value |
|---------|-------------|-------------|
|       0 | 0x0001      |           1 |
|       1 | 0xFFFFD026  |  4294955046 |
|       2 | 0xFFFE38C2  |  4294850754 |
|       3 | 0xFFFFFED4  |  4294966996 |
|       4 | 0x0C0C      |        3084 |
|       5 | 0x22EC      |        8940 |
|       6 | 0xFFFE9A5B  |  4294875739 |
|       7 | 0x0897      |        2199 |
|       8 | 0x009C      |         156 |
|       9 | 0x0046      |          70 |
|      10 | 0x5688      |       22152 |
|      11 | 0xFFFE8963  |  4294871395 |
|      12 | 0x59FA      |       23034 |
|      13 | 0xFFFE9703  |  4294874883 |
|      14 | 0x20CA      |        8394 |
|      15 | 0xFFFEA6F2  |  4294878962 |
|      16 | 0x1A0A      |        6666 |
|      17 | 0xFFFEA628  |  4294878760 |
|      18 | 0x1971      |        6513 |
|      19 | 0xFFFEA380  |  4294878080 |
|      20 | 0x2C7E      |       11390 |
|      21 | 0xFFFE96C5  |  4294874821 |
|      22 | 0x3EC8      |       16072 |
|      23 | 0xFFFE9096  |  4294873238 |
|      24 | 0x4D5E      |       19806 |
|      25 | 0xFFFE8BA4  |  4294871972 |
|      26 | 0x0000      |           0 |
|      27 | 0x6EC8      |       28360 |
|      28 | 0xFFFE72AE  |  4294865582 |
|      29 | 0x0886      |        2182 |
|      30 | 0x6B56      |       27478 |
|      31 | 0xFFFE731F  |  4294865695 |
|      32 | 0x6918      |       26904 |
|      33 | 0xFFFE7366  |  4294865766 |
|      34 | 0x6410      |       25616 |
|      35 | 0xFFFE7349  |  4294865737 |
|      36 | 0x6149      |       24905 |
|      37 | 0xFFFE7331  |  4294865713 |
|      38 | 0x6660      |       26208 |
|      39 | 0xFFFE8DA3  |  4294872483 |
|      40 | 0xFFF81EBB  |  4294450875 |
|      41 | 0xFFF9A9D6  |  4294552022 |
|      42 | 0x03B1      |         945 |
|      43 | 0x0E30      |        3632 |
|      44 | 0xFFF60CDF  |  4294315231 |
|      45 | 0x5851      |       22609 |
|      46 | 0xFFFF9819  |  4294940697 |
|      47 | 0x06D2      |        1746 |
|      48 | 0x000F      |          15 |
|      49 | 0xFFF5F907  |  4294310151 |
|      50 | 0x53F9      |       21497 |
|      51 | 0xFFFF968B  |  4294940299 |
|      52 | 0x89A43     |      563779 |
|      53 | 0xFFF9697D  |  4294535549 |
|      54 | 0x9EEF      |       40687 |
|      55 | 0x0CD9      |        3289 |
|      56 | 0x89944     |      563524 |
|      57 | 0xFFF97A21  |  4294539809 |
|      58 | 0xA154      |       41300 |
|      59 | 0x2E3CD     |      189389 |
|      60 | 0x4719      |       18201 |
|      61 | 0x07E4      |        2020 |
|      62 | 0x2D059     |      184409 |
|      63 | 0x4914      |       18708 |
|      64 | 0x0ADB      |        2779 |
|      65 | 0xFFFD581C  |  4294793244 |
|      66 | 0x3EDF7     |      257527 |
|      67 | 0xFFFF1D03  |  4294909187 |
|      68 | 0x07AE      |        1966 |
|      69 | 0xFFFCB651  |  4294751825 |
|      70 | 0x3F960     |      260448 |
|      71 | 0xFFFF32E2  |  4294914786 |
|      72 | 0xFFFC2237  |  4294713911 |
|      73 | 0x3D774     |      251764 |
|      74 | 0xFFFF5058  |  4294922328 |
|      75 | 0xFFFBF4E9  |  4294702313 |
|      76 | 0x36CD2     |      224466 |
|      77 | 0xFFFF4EA8  |  4294921896 |
|      78 | 0xFFFB814B  |  4294672715 |
|      79 | 0x33DCB     |      212427 |
|      80 | 0xFFFF5070  |  4294922352 |
|      81 | 0xFFFB6583  |  4294665603 |
|      82 | 0x2C022     |      180258 |
|      83 | 0xFFFF5FD3  |  4294926291 |
|      84 | 0xFFFB7E23  |  4294671907 |
|      85 | 0x28A5B     |      166491 |
|      86 | 0xFFFF6E3E  |  4294929982 |
|      87 | 0xFFFB689C  |  4294666396 |
|      88 | 0x24267     |      148071 |
|      89 | 0xFFFF750E  |  4294931726 |
|      90 | 0xFFFB298F  |  4294650255 |
|      91 | 0x21E09     |      138761 |
|      92 | 0xFFFF73E8  |  4294931432 |
|      93 | 0xFFFA992F  |  4294613295 |
|      94 | 0x22152     |      139602 |
|      95 | 0xFFFF7447  |  4294931527 |
|      96 | 0xFFFA42B6  |  4294591158 |
|      97 | 0x21456     |      136278 |
|      98 | 0xFFFF7211  |  4294930961 |
|      99 | 0xFFFA3088  |  4294586504 |
|     100 | 0x223E4     |      140260 |
|     101 | 0xFFFF7401  |  4294931457 |
|     102 | 0x0002      |           2 |
|     103 | 0x0005      |           5 |
|     104 | 0xFFFC7700  |  4294735616 |
|     105 | 0x3ECF9     |      257273 |
|     106 | 0xFFFF472F  |  4294919983 |
|     107 | 0xFFFC9FBC  |  4294746044 |
|     108 | 0x3FF87     |      262023 |
|     109 | 0xFFFF3AC3  |  4294916803 |
|     110 | 0xFFFD04CA  |  4294771914 |
|     111 | 0x3F3DA     |      259034 |
|     112 | 0xFFFF24C4  |  4294911172 |
|     113 | 0xFFF6C3EF  |  4294362095 |
|     114 | 0x93FF1     |      606193 |
|     115 | 0x00A7      |         167 |
|     116 | 0x0179      |         377 |
|     117 | 0xFFF6C0EC  |  4294361324 |
|     118 | 0x945D1     |      607697 |
|     119 | 0x0004      |           4 |
|     120 | 0xFFF6B7E2  |  4294359010 |
|     121 | 0x94244     |      606788 |
|     122 | 0xFFFFFFC0  |  4294967232 |
|     123 | 0x003C      |          60 |
|     124 | 0xFFF6BED4  |  4294360788 |
|     125 | 0x946D6     |      607958 |
|     126 | 0xFFFFFFCF  |  4294967247 |
|     127 | 0xFFF6D7C0  |  4294367168 |
|     128 | 0x8EF6A     |      585578 |
|     129 | 0x0274      |         628 |
|     130 | 0x011C      |         284 |
|     131 | 0xFFF6D0CA  |  4294365386 |
|     132 | 0x8F7DF     |      587743 |
|     133 | 0x0112      |         274 |
|     134 | 0xFFF6D779  |  4294367097 |
|     135 | 0x8FCC2     |      588994 |
|     136 | 0x015B      |         347 |
|     137 | 0xFFF6DB55  |  4294368085 |
|     138 | 0x8F169     |      586089 |
|     139 | 0x024A      |         586 |
|     140 | 0xFFF6DAA1  |  4294367905 |
|     141 | 0x8E6CF     |      583375 |
|     142 | 0x033E      |         830 |
|     143 | 0x001E      |          30 |
|     144 | 0x0C58      |        3160 |
|     145 | 0x0078      |         120 |
|     146 | 0xFFF6D069  |  4294365289 |
|     147 | 0x8F7F4     |      587764 |
|     148 | 0x010C      |         268 |
|     149 | 0x0154      |         340 |
|     150 | 0x002D      |          45 |
|     151 | 0xFFF6DB01  |  4294368001 |
|     152 | 0x90356     |      590678 |
|     153 | 0x0108      |         264 |
|     154 | 0x03BF      |         959 |
|     155 | 0xFFF6C73F  |  4294362943 |
|     156 | 0x8F234     |      586292 |
|     157 | 0x008A      |         138 |
|     158 | 0x0025      |          37 |
|     159 | 0x00F0      |         240 |
|     160 | 0xFFF6D6F8  |  4294366968 |
|     161 | 0x8E30A     |      582410 |
|     162 | 0x0322      |         802 |
|     163 | 0x0BD3      |        3027 |
|     164 | 0xFFF6DB94  |  4294368148 |
|     165 | 0x8FCF3     |      589043 |
|     166 | 0x0159      |         345 |
|     167 | 0xFFF6C79F  |  4294363039 |
|     168 | 0x8F34D     |      586573 |
|     169 | 0x0039      |          57 |
|     170 | 0xFFF6CB4A  |  4294363978 |
|     171 | 0x8FAEF     |      588527 |
|     172 | 0x00C4      |         196 |
|     173 | 0xFFF6D269  |  4294365801 |
|     174 | 0x8F138     |      586040 |
|     175 | 0x01F0      |         496 |
|     176 | 0xFFF6CEAA  |  4294364842 |
|     177 | 0x8FA2D     |      588333 |
|     178 | 0x00F7      |         247 |
|     179 | 0xFFF6CA0E  |  4294363662 |
|     180 | 0x8EFB9     |      585657 |
|     181 | 0x0090      |         144 |
|     182 | 0xFFF6CECB  |  4294364875 |
|     183 | 0x8E418     |      582680 |
|     184 | 0x018C      |         396 |
|     185 | 0xFFF6DB79  |  4294368121 |
|     186 | 0x8E4F3     |      582899 |
|     187 | 0x0356      |         854 |
|     188 | 0xFFF6DE60  |  4294368864 |
|     189 | 0x8F7D9     |      587737 |
|     190 | 0x019A      |         410 |
|     191 | 0xFFF6D8AE  |  4294367406 |
|     192 | 0x8FE78     |      589432 |
|     193 | 0x0146      |         326 |

## Events

### Event 65535

#### Metadata

| Field        | Value   |
|--------------|---------|
| Entrypoint   | 0x0000  |
| Data Size    | 1 bytes |
| Instructions | 1       |

```
      00 01 02 03 04 05 06 07  08 09 0A 0B 0C 0D 0E 0F
      -- -- -- -- -- -- -- --  -- -- -- -- -- -- -- --
0000: 00                                                .               
```

#### Opcodes

```
  0: 0x0000 [0x00] END_REQSTACK()
```

### Event 827

#### Metadata

| Field        | Value   |
|--------------|---------|
| Entrypoint   | 0x0001  |
| Data Size    | 1 bytes |
| Instructions | 1       |

```
      00 01 02 03 04 05 06 07  08 09 0A 0B 0C 0D 0E 0F
      -- -- -- -- -- -- -- --  -- -- -- -- -- -- -- --
0000:    00                                              .              
```

#### Opcodes

```
  0: 0x0001 [0x00] END_REQSTACK()
```

### Event 823

#### Metadata

| Field        | Value   |
|--------------|---------|
| Entrypoint   | 0x0002  |
| Data Size    | 1 bytes |
| Instructions | 1       |

```
      00 01 02 03 04 05 06 07  08 09 0A 0B 0C 0D 0E 0F
      -- -- -- -- -- -- -- --  -- -- -- -- -- -- -- --
0000:       00                                            .             
```

#### Opcodes

```
  0: 0x0002 [0x00] END_REQSTACK()
```

### Event 65535.1

#### Metadata

| Field        | Value    |
|--------------|----------|
| Entrypoint   | 0x0003   |
| Data Size    | 11 bytes |
| Instructions | 3        |

```
      00 01 02 03 04 05 06 07  08 09 0A 0B 0C 0D 0E 0F
      -- -- -- -- -- -- -- --  -- -- -- -- -- -- -- --
0000:          B4 01 00 00 00  80 B5 00 00 00 00           ...........  
```

#### Opcodes

```
  0: 0x0003 [0xB4] UI_WINDOW_STRING_HANDLER(case=0x01 - Copy string from event strings table, work_offset=ExtData[1]->WorkLocal[0], string_index=1*)
  1: 0x0009 [0xB5] SET_EVENT_ENTITY_NAME: Change EventEntity name to ExtData[1]->WorkLocal[0]
  2: 0x000D [0x00] END_REQSTACK()
```

### Event 65535.2

#### Metadata

| Field        | Value    |
|--------------|----------|
| Entrypoint   | 0x000E   |
| Data Size    | 25 bytes |
| Instructions | 3        |

```
      00 01 02 03 04 05 06 07  08 09 0A 0B 0C 0D 0E 0F
      -- -- -- -- -- -- -- --  -- -- -- -- -- -- -- --
0000:                                            B4 00                ..
0010: 00 00 43 68 6F 63 6F 62  6F 00 00 00 00 00 00 00  ..Chocobo.......
0020: 00 00 B5 00 00 00 00                              .......         
```

#### Opcodes

```
  0: 0x000E [0xB4] UI_WINDOW_STRING_HANDLER(case=0x00 - Copy string from opcode, work_offset=ExtData[1]->WorkLocal[0], string="Chocobo")
  1: 0x0022 [0xB5] SET_EVENT_ENTITY_NAME: Change EventEntity name to ExtData[1]->WorkLocal[0]
  2: 0x0026 [0x00] END_REQSTACK()
```

### Event 65535.3

#### Metadata

| Field        | Value    |
|--------------|----------|
| Entrypoint   | 0x0027   |
| Data Size    | 15 bytes |
| Instructions | 2        |

```
      00 01 02 03 04 05 06 07  08 09 0A 0B 0C 0D 0E 0F
      -- -- -- -- -- -- -- --  -- -- -- -- -- -- -- --
0020:                      B6  0D 04 10 05 10 06 10 07         .........
0030: 10 08 10 09 10 00                                 ......          
```

#### Opcodes

```
  0: 0x0027 [0xB6] ENTITY_APPEARANCE_HANDLER(case=Look with Render flags, race=Work_Zone[4], face=Work_Zone[5], head=Work_Zone[6], body=Work_Zone[7], hands=Work_Zone[8], render_flags=0x1009)
  1: 0x0035 [0x00] END_REQSTACK()
```

### Event 65535.4

#### Metadata

| Field        | Value    |
|--------------|----------|
| Entrypoint   | 0x0036   |
| Data Size    | 12 bytes |
| Instructions | 3        |

```
      00 01 02 03 04 05 06 07  08 09 0A 0B 0C 0D 0E 0F
      -- -- -- -- -- -- -- --  -- -- -- -- -- -- -- --
0030:                   33 01  37 01 80 02 80 03 80 04        3.7.......
0040: 80 00                                             ..              
```

#### Opcodes

```
  0: 0x0036 [0x33] EventEntity->Render.Flags0 |= 0x200000 // Bit 21 (flag=0x01)
  1: 0x0038 [0x37] UPDATE_EVENT_POSITION_AND_DIR: x=-12.250*, z=-116.542*, y=-0.300*, direction=271.0°*
  2: 0x0041 [0x00] END_REQSTACK()
```

### Event 65535.5

#### Metadata

| Field        | Value    |
|--------------|----------|
| Entrypoint   | 0x0042   |
| Data Size    | 15 bytes |
| Instructions | 3        |

```
      00 01 02 03 04 05 06 07  08 09 0A 0B 0C 0D 0E 0F
      -- -- -- -- -- -- -- --  -- -- -- -- -- -- -- --
0040:       37 05 80 06 80 07  80 08 80 80 F8 FF FF 7F    7.............
0050: 00                                                .               
```

#### Opcodes

```
  0: 0x0042 [0x37] UPDATE_EVENT_POSITION_AND_DIR: x=8.940*, z=-91.557*, y=2.199*, direction=13.7°*
  1: 0x004B [0x80] LOAD_WAIT(entity=EventEntity)
  2: 0x0050 [0x00] END_REQSTACK()
```

### Event 65535.6

#### Metadata

| Field        | Value     |
|--------------|-----------|
| Entrypoint   | 0x0051    |
| Data Size    | 121 bytes |
| Instructions | 24        |

```
      00 01 02 03 04 05 06 07  08 09 0A 0B 0C 0D 0E 0F
      -- -- -- -- -- -- -- --  -- -- -- -- -- -- -- --
0050:    32 09 80 1F 00 0A 80  0B 80 07 80 1F 01 1F 00   2..............
0060: 0C 80 0D 80 07 80 1F 01  1F 00 0E 80 0F 80 07 80  ................
0070: 1F 01 1F 00 10 80 11 80  07 80 1F 01 1F 00 12 80  ................
0080: 13 80 07 80 1F 01 1F 00  05 80 06 80 07 80 1F 01  ................
0090: 1F 00 14 80 15 80 07 80  1F 01 1F 00 16 80 17 80  ................
00A0: 07 80 1F 01 1F 00 18 80  19 80 07 80 1F 01 02 4D  ...............M
00B0: 10 1A 80 00 C0 00 27 05  1A 61 0E 01 09 01 C9 00  ......'..a......
00C0: 37 1A 80 1A 80 1A 80 1A  80 00                    7.........      
```

#### Opcodes

```
  0: 0x0051 [0x32] ExtData[1]->MainSpeed = 70* * 0.1
  1: 0x0054 [0x1F] MOVE_ENTITY: EventEntity moves to X=22.152*, Z=-95.901*, Y=2.199*
  2: 0x005C [0x1F] MOVE_ENTITY: Update entity position (mode=1)
  3: 0x005E [0x1F] MOVE_ENTITY: EventEntity moves to X=23.034*, Z=-92.413*, Y=2.199*
  4: 0x0066 [0x1F] MOVE_ENTITY: Update entity position (mode=1)
  5: 0x0068 [0x1F] MOVE_ENTITY: EventEntity moves to X=8.394*, Z=-88.334*, Y=2.199*
  6: 0x0070 [0x1F] MOVE_ENTITY: Update entity position (mode=1)
  7: 0x0072 [0x1F] MOVE_ENTITY: EventEntity moves to X=6.666*, Z=-88.536*, Y=2.199*
  8: 0x007A [0x1F] MOVE_ENTITY: Update entity position (mode=1)
  9: 0x007C [0x1F] MOVE_ENTITY: EventEntity moves to X=6.513*, Z=-89.216*, Y=2.199*
 10: 0x0084 [0x1F] MOVE_ENTITY: Update entity position (mode=1)
 11: 0x0086 [0x1F] MOVE_ENTITY: EventEntity moves to X=8.940*, Z=-91.557*, Y=2.199*
 12: 0x008E [0x1F] MOVE_ENTITY: Update entity position (mode=1)
 13: 0x0090 [0x1F] MOVE_ENTITY: EventEntity moves to X=11.390*, Z=-92.475*, Y=2.199*
 14: 0x0098 [0x1F] MOVE_ENTITY: Update entity position (mode=1)
 15: 0x009A [0x1F] MOVE_ENTITY: EventEntity moves to X=16.072*, Z=-94.058*, Y=2.199*
 16: 0x00A2 [0x1F] MOVE_ENTITY: Update entity position (mode=1)
 17: 0x00A4 [0x1F] MOVE_ENTITY: EventEntity moves to X=19.806*, Z=-95.324*, Y=2.199*
 18: 0x00AC [0x1F] MOVE_ENTITY: Update entity position (mode=1)
 19: 0x00AE [0x02] IF !(Work_Zone[77] == 0*) GOTO 0x00C0
 20: 0x00B6 [0x27] REQ_SET(priority=0x05, entity_id=Unnamed NPC (ID: 17719578/0x010E611A), tag_num=0x09)
 21: 0x00BD [0x01] GOTO 0x00C9
 22: 0x00C0 [0x37] UPDATE_EVENT_POSITION_AND_DIR: x=0.000*, z=0.000*, y=0.000*, direction=0.0°*

SUBROUTINE_00C9:
 23: 0x00C9 [0x00] END_REQSTACK()
```

### Event 65535.7

#### Metadata

| Field        | Value     |
|--------------|-----------|
| Entrypoint   | 0x00CA    |
| Data Size    | 121 bytes |
| Instructions | 24        |

```
      00 01 02 03 04 05 06 07  08 09 0A 0B 0C 0D 0E 0F
      -- -- -- -- -- -- -- --  -- -- -- -- -- -- -- --
00C0:                                32 09 80 1F 00 0A            2.....
00D0: 80 0B 80 07 80 1F 01 1F  00 0C 80 0D 80 07 80 1F  ................
00E0: 01 1F 00 0E 80 0F 80 07  80 1F 01 1F 00 10 80 11  ................
00F0: 80 07 80 1F 01 1F 00 12  80 13 80 07 80 1F 01 1F  ................
0100: 00 05 80 06 80 07 80 1F  01 1F 00 14 80 15 80 07  ................
0110: 80 1F 01 1F 00 16 80 17  80 07 80 1F 01 1F 00 18  ................
0120: 80 19 80 07 80 1F 01 02  4D 10 1A 80 00 39 01 27  ........M....9.'
0130: 05 1A 61 0E 01 08 01 42  01 37 1A 80 1A 80 1A 80  ..a....B.7......
0140: 1A 80 00                                          ...             
```

#### Opcodes

```
  0: 0x00CA [0x32] ExtData[1]->MainSpeed = 70* * 0.1
  1: 0x00CD [0x1F] MOVE_ENTITY: EventEntity moves to X=22.152*, Z=-95.901*, Y=2.199*
  2: 0x00D5 [0x1F] MOVE_ENTITY: Update entity position (mode=1)
  3: 0x00D7 [0x1F] MOVE_ENTITY: EventEntity moves to X=23.034*, Z=-92.413*, Y=2.199*
  4: 0x00DF [0x1F] MOVE_ENTITY: Update entity position (mode=1)
  5: 0x00E1 [0x1F] MOVE_ENTITY: EventEntity moves to X=8.394*, Z=-88.334*, Y=2.199*
  6: 0x00E9 [0x1F] MOVE_ENTITY: Update entity position (mode=1)
  7: 0x00EB [0x1F] MOVE_ENTITY: EventEntity moves to X=6.666*, Z=-88.536*, Y=2.199*
  8: 0x00F3 [0x1F] MOVE_ENTITY: Update entity position (mode=1)
  9: 0x00F5 [0x1F] MOVE_ENTITY: EventEntity moves to X=6.513*, Z=-89.216*, Y=2.199*
 10: 0x00FD [0x1F] MOVE_ENTITY: Update entity position (mode=1)
 11: 0x00FF [0x1F] MOVE_ENTITY: EventEntity moves to X=8.940*, Z=-91.557*, Y=2.199*
 12: 0x0107 [0x1F] MOVE_ENTITY: Update entity position (mode=1)
 13: 0x0109 [0x1F] MOVE_ENTITY: EventEntity moves to X=11.390*, Z=-92.475*, Y=2.199*
 14: 0x0111 [0x1F] MOVE_ENTITY: Update entity position (mode=1)
 15: 0x0113 [0x1F] MOVE_ENTITY: EventEntity moves to X=16.072*, Z=-94.058*, Y=2.199*
 16: 0x011B [0x1F] MOVE_ENTITY: Update entity position (mode=1)
 17: 0x011D [0x1F] MOVE_ENTITY: EventEntity moves to X=19.806*, Z=-95.324*, Y=2.199*
 18: 0x0125 [0x1F] MOVE_ENTITY: Update entity position (mode=1)
 19: 0x0127 [0x02] IF !(Work_Zone[77] == 0*) GOTO 0x0139
 20: 0x012F [0x27] REQ_SET(priority=0x05, entity_id=Unnamed NPC (ID: 17719578/0x010E611A), tag_num=0x08)
 21: 0x0136 [0x01] GOTO 0x0142
 22: 0x0139 [0x37] UPDATE_EVENT_POSITION_AND_DIR: x=0.000*, z=0.000*, y=0.000*, direction=0.0°*

SUBROUTINE_0142:
 23: 0x0142 [0x00] END_REQSTACK()
```

### Event 65535.8

#### Metadata

| Field        | Value    |
|--------------|----------|
| Entrypoint   | 0x0143   |
| Data Size    | 15 bytes |
| Instructions | 3        |

```
      00 01 02 03 04 05 06 07  08 09 0A 0B 0C 0D 0E 0F
      -- -- -- -- -- -- -- --  -- -- -- -- -- -- -- --
0140:          37 1B 80 1C 80  07 80 1D 80 80 F8 FF FF     7............
0150: 7F 00                                             ..              
```

#### Opcodes

```
  0: 0x0143 [0x37] UPDATE_EVENT_POSITION_AND_DIR: x=28.360*, z=-101.714*, y=2.199*, direction=191.8°*
  1: 0x014C [0x80] LOAD_WAIT(entity=EventEntity)
  2: 0x0151 [0x00] END_REQSTACK()
```

### Event 65535.9

#### Metadata

| Field        | Value    |
|--------------|----------|
| Entrypoint   | 0x0152   |
| Data Size    | 14 bytes |
| Instructions | 4        |

```
      00 01 02 03 04 05 06 07  08 09 0A 0B 0C 0D 0E 0F
      -- -- -- -- -- -- -- --  -- -- -- -- -- -- -- --
0150:       32 09 80 1F 00 1E  80 1F 80 07 80 1F 01 00    2.............
```

#### Opcodes

```
  0: 0x0152 [0x32] ExtData[1]->MainSpeed = 70* * 0.1
  1: 0x0155 [0x1F] MOVE_ENTITY: EventEntity moves to X=27.478*, Z=-101.601*, Y=2.199*
  2: 0x015D [0x1F] MOVE_ENTITY: Update entity position (mode=1)
  3: 0x015F [0x00] END_REQSTACK()
```

### Event 65535.10

#### Metadata

| Field        | Value    |
|--------------|----------|
| Entrypoint   | 0x0160   |
| Data Size    | 11 bytes |
| Instructions | 3        |

```
      00 01 02 03 04 05 06 07  08 09 0A 0B 0C 0D 0E 0F
      -- -- -- -- -- -- -- --  -- -- -- -- -- -- -- --
0160: 1F 00 20 80 21 80 07 80  1F 01 00                 .. .!......     
```

#### Opcodes

```
  0: 0x0160 [0x1F] MOVE_ENTITY: EventEntity moves to X=26.904*, Z=-101.530*, Y=2.199*
  1: 0x0168 [0x1F] MOVE_ENTITY: Update entity position (mode=1)
  2: 0x016A [0x00] END_REQSTACK()
```

### Event 65535.11

#### Metadata

| Field        | Value    |
|--------------|----------|
| Entrypoint   | 0x016B   |
| Data Size    | 11 bytes |
| Instructions | 3        |

```
      00 01 02 03 04 05 06 07  08 09 0A 0B 0C 0D 0E 0F
      -- -- -- -- -- -- -- --  -- -- -- -- -- -- -- --
0160:                                   1F 00 22 80 23             ..".#
0170: 80 07 80 1F 01 00                                 ......          
```

#### Opcodes

```
  0: 0x016B [0x1F] MOVE_ENTITY: EventEntity moves to X=25.616*, Z=-101.559*, Y=2.199*
  1: 0x0173 [0x1F] MOVE_ENTITY: Update entity position (mode=1)
  2: 0x0175 [0x00] END_REQSTACK()
```

### Event 65535.12

#### Metadata

| Field        | Value    |
|--------------|----------|
| Entrypoint   | 0x0176   |
| Data Size    | 11 bytes |
| Instructions | 3        |

```
      00 01 02 03 04 05 06 07  08 09 0A 0B 0C 0D 0E 0F
      -- -- -- -- -- -- -- --  -- -- -- -- -- -- -- --
0170:                   1F 00  24 80 25 80 07 80 1F 01        ..$.%.....
0180: 00                                                .               
```

#### Opcodes

```
  0: 0x0176 [0x1F] MOVE_ENTITY: EventEntity moves to X=24.905*, Z=-101.583*, Y=2.199*
  1: 0x017E [0x1F] MOVE_ENTITY: Update entity position (mode=1)
  2: 0x0180 [0x00] END_REQSTACK()
```

### Event 65535.13

#### Metadata

| Field        | Value    |
|--------------|----------|
| Entrypoint   | 0x0181   |
| Data Size    | 14 bytes |
| Instructions | 4        |

```
      00 01 02 03 04 05 06 07  08 09 0A 0B 0C 0D 0E 0F
      -- -- -- -- -- -- -- --  -- -- -- -- -- -- -- --
0180:    32 09 80 1F 00 26 80  27 80 07 80 1F 01 00      2....&.'...... 
```

#### Opcodes

```
  0: 0x0181 [0x32] ExtData[1]->MainSpeed = 70* * 0.1
  1: 0x0184 [0x1F] MOVE_ENTITY: EventEntity moves to X=26.208*, Z=-94.813*, Y=2.199*
  2: 0x018C [0x1F] MOVE_ENTITY: Update entity position (mode=1)
  3: 0x018E [0x00] END_REQSTACK()
```

### Event 65535.14

#### Metadata

| Field        | Value    |
|--------------|----------|
| Entrypoint   | 0x018F   |
| Data Size    | 15 bytes |
| Instructions | 3        |

```
      00 01 02 03 04 05 06 07  08 09 0A 0B 0C 0D 0E 0F
      -- -- -- -- -- -- -- --  -- -- -- -- -- -- -- --
0180:                                               37                 7
0190: 28 80 29 80 2A 80 2B 80  80 F8 FF FF 7F 00        (.).*.+.......  
```

#### Opcodes

```
  0: 0x018F [0x37] UPDATE_EVENT_POSITION_AND_DIR: x=-516.421*, z=-415.274*, y=0.945*, direction=319.2°*
  1: 0x0198 [0x80] LOAD_WAIT(entity=EventEntity)
  2: 0x019D [0x00] END_REQSTACK()
```

### Event 65535.15

#### Metadata

| Field        | Value    |
|--------------|----------|
| Entrypoint   | 0x019E   |
| Data Size    | 15 bytes |
| Instructions | 3        |

```
      00 01 02 03 04 05 06 07  08 09 0A 0B 0C 0D 0E 0F
      -- -- -- -- -- -- -- --  -- -- -- -- -- -- -- --
0190:                                            37 2C                7,
01A0: 80 2D 80 2E 80 2F 80 80  F8 FF FF 7F 00           .-.../.......   
```

#### Opcodes

```
  0: 0x019E [0x37] UPDATE_EVENT_POSITION_AND_DIR: x=-652.065*, z=22.609*, y=-26.599*, direction=153.5°*
  1: 0x01A7 [0x80] LOAD_WAIT(entity=EventEntity)
  2: 0x01AC [0x00] END_REQSTACK()
```

### Event 65535.16

#### Metadata

| Field        | Value    |
|--------------|----------|
| Entrypoint   | 0x01AD   |
| Data Size    | 19 bytes |
| Instructions | 5        |

```
      00 01 02 03 04 05 06 07  08 09 0A 0B 0C 0D 0E 0F
      -- -- -- -- -- -- -- --  -- -- -- -- -- -- -- --
01A0:                                         32 30 80               20.
01B0: 1F 00 31 80 32 80 33 80  1F 01 1E 19 61 0E 01 00  ..1.2.3.....a...
```

#### Opcodes

```
  0: 0x01AD [0x32] ExtData[1]->MainSpeed = 15* * 0.1
  1: 0x01B0 [0x1F] MOVE_ENTITY: EventEntity moves to X=-657.145*, Z=21.497*, Y=-26.997*
  2: 0x01B8 [0x1F] MOVE_ENTITY: Update entity position (mode=1)
  3: 0x01BA [0x1E] EventEntity looks at Unnamed NPC (ID: 17719577/0x010E6119) and starts talking
  4: 0x01BF [0x00] END_REQSTACK()
```

### Event 65535.17

#### Metadata

| Field        | Value    |
|--------------|----------|
| Entrypoint   | 0x01C0   |
| Data Size    | 15 bytes |
| Instructions | 3        |

```
      00 01 02 03 04 05 06 07  08 09 0A 0B 0C 0D 0E 0F
      -- -- -- -- -- -- -- --  -- -- -- -- -- -- -- --
01C0: 37 34 80 35 80 36 80 37  80 80 F8 FF FF 7F 00     74.5.6.7....... 
```

#### Opcodes

```
  0: 0x01C0 [0x37] UPDATE_EVENT_POSITION_AND_DIR: x=563.779*, z=-431.747*, y=40.687*, direction=289.1°*
  1: 0x01C9 [0x80] LOAD_WAIT(entity=EventEntity)
  2: 0x01CE [0x00] END_REQSTACK()
```

### Event 65535.18

#### Metadata

| Field        | Value    |
|--------------|----------|
| Entrypoint   | 0x01CF   |
| Data Size    | 19 bytes |
| Instructions | 5        |

```
      00 01 02 03 04 05 06 07  08 09 0A 0B 0C 0D 0E 0F
      -- -- -- -- -- -- -- --  -- -- -- -- -- -- -- --
01C0:                                               32                 2
01D0: 30 80 1F 00 38 80 39 80  3A 80 1F 01 1E 19 61 0E  0...8.9.:.....a.
01E0: 01 00                                             ..              
```

#### Opcodes

```
  0: 0x01CF [0x32] ExtData[1]->MainSpeed = 15* * 0.1
  1: 0x01D2 [0x1F] MOVE_ENTITY: EventEntity moves to X=563.524*, Z=-427.487*, Y=41.300*
  2: 0x01DA [0x1F] MOVE_ENTITY: Update entity position (mode=1)
  3: 0x01DC [0x1E] EventEntity looks at Unnamed NPC (ID: 17719577/0x010E6119) and starts talking
  4: 0x01E1 [0x00] END_REQSTACK()
```

### Event 65535.19

#### Metadata

| Field        | Value    |
|--------------|----------|
| Entrypoint   | 0x01E2   |
| Data Size    | 15 bytes |
| Instructions | 3        |

```
      00 01 02 03 04 05 06 07  08 09 0A 0B 0C 0D 0E 0F
      -- -- -- -- -- -- -- --  -- -- -- -- -- -- -- --
01E0:       37 3B 80 3C 80 3D  80 07 80 80 F8 FF FF 7F    7;.<.=........
01F0: 00                                                .               
```

#### Opcodes

```
  0: 0x01E2 [0x37] UPDATE_EVENT_POSITION_AND_DIR: x=189.389*, z=18.201*, y=2.020*, direction=193.3°*
  1: 0x01EB [0x80] LOAD_WAIT(entity=EventEntity)
  2: 0x01F0 [0x00] END_REQSTACK()
```

### Event 65535.20

#### Metadata

| Field        | Value    |
|--------------|----------|
| Entrypoint   | 0x01F1   |
| Data Size    | 19 bytes |
| Instructions | 5        |

```
      00 01 02 03 04 05 06 07  08 09 0A 0B 0C 0D 0E 0F
      -- -- -- -- -- -- -- --  -- -- -- -- -- -- -- --
01F0:    32 30 80 1F 00 3E 80  3F 80 40 80 1F 01 1E 19   20...>.?.@.....
0200: 61 0E 01 00                                       a...            
```

#### Opcodes

```
  0: 0x01F1 [0x32] ExtData[1]->MainSpeed = 15* * 0.1
  1: 0x01F4 [0x1F] MOVE_ENTITY: EventEntity moves to X=184.409*, Z=18.708*, Y=2.779*
  2: 0x01FC [0x1F] MOVE_ENTITY: Update entity position (mode=1)
  3: 0x01FE [0x1E] EventEntity looks at Unnamed NPC (ID: 17719577/0x010E6119) and starts talking
  4: 0x0203 [0x00] END_REQSTACK()
```

### Event 65535.21

#### Metadata

| Field        | Value    |
|--------------|----------|
| Entrypoint   | 0x0204   |
| Data Size    | 15 bytes |
| Instructions | 3        |

```
      00 01 02 03 04 05 06 07  08 09 0A 0B 0C 0D 0E 0F
      -- -- -- -- -- -- -- --  -- -- -- -- -- -- -- --
0200:             37 41 80 42  80 43 80 44 80 80 F8 FF      7A.B.C.D....
0210: FF 7F 00                                          ...             
```

#### Opcodes

```
  0: 0x0204 [0x37] UPDATE_EVENT_POSITION_AND_DIR: x=-174.052*, z=257.527*, y=-58.109*, direction=172.8°*
  1: 0x020D [0x80] LOAD_WAIT(entity=EventEntity)
  2: 0x0212 [0x00] END_REQSTACK()
```

### Event 65535.22

#### Metadata

| Field        | Value     |
|--------------|-----------|
| Entrypoint   | 0x0213    |
| Data Size    | 426 bytes |
| Instructions | 89        |

```
      00 01 02 03 04 05 06 07  08 09 0A 0B 0C 0D 0E 0F
      -- -- -- -- -- -- -- --  -- -- -- -- -- -- -- --
0210:          32 09 80 1F 00  45 80 46 80 47 80 1F 01     2....E.F.G...
0220: 1F 00 48 80 49 80 4A 80  1F 01 1F 00 4B 80 4C 80  ..H.I.J.....K.L.
0230: 4D 80 1F 01 1F 00 4E 80  4F 80 50 80 1F 01 1F 00  M.....N.O.P.....
0240: 51 80 52 80 53 80 1F 01  1F 00 54 80 55 80 56 80  Q.R.S.....T.U.V.
0250: 1F 01 1F 00 57 80 58 80  59 80 1F 01 1F 00 5A 80  ....W.X.Y.....Z.
0260: 5B 80 5C 80 1F 01 1F 00  5D 80 5E 80 5F 80 1F 01  [.\.....].^._...
0270: 1F 00 60 80 61 80 62 80  1F 01 1F 00 63 80 64 80  ..`.a.b.....c.d.
0280: 65 80 1F 01 1F 00 60 80  61 80 62 80 1F 01 02 4C  e.....`.a.b....L
0290: 10 66 80 00 99 02 01 9C  02 1C 67 80 1F 00 5D 80  .f........g...].
02A0: 5E 80 5F 80 1F 01 02 4C  10 66 80 00 B1 02 01 B4  ^._....L.f......
02B0: 02 1C 67 80 1F 00 5A 80  5B 80 5C 80 1F 01 02 4C  ..g...Z.[.\....L
02C0: 10 66 80 00 C9 02 01 CC  02 1C 67 80 1F 00 57 80  .f........g...W.
02D0: 58 80 59 80 1F 01 02 4C  10 66 80 00 E1 02 01 E4  X.Y....L.f......
02E0: 02 1C 67 80 1F 00 54 80  55 80 56 80 1F 01 02 4C  ..g...T.U.V....L
02F0: 10 66 80 00 F9 02 01 FC  02 1C 67 80 1F 00 51 80  .f........g...Q.
0300: 52 80 53 80 1F 01 02 4C  10 66 80 00 11 03 01 14  R.S....L.f......
0310: 03 1C 67 80 1F 00 4E 80  4F 80 50 80 1F 01 02 4C  ..g...N.O.P....L
0320: 10 66 80 00 29 03 01 2C  03 1C 67 80 1F 00 4B 80  .f..)..,..g...K.
0330: 4C 80 4D 80 1F 01 02 4C  10 66 80 00 41 03 01 44  L.M....L.f..A..D
0340: 03 1C 67 80 1F 00 48 80  49 80 4A 80 1F 01 02 4C  ..g...H.I.J....L
0350: 10 66 80 00 59 03 01 5C  03 1C 67 80 1F 00 68 80  .f..Y..\..g...h.
0360: 69 80 6A 80 1F 01 02 4C  10 66 80 00 71 03 01 74  i.j....L.f..q..t
0370: 03 1C 67 80 1F 00 6B 80  6C 80 6D 80 1F 01 02 4C  ..g...k.l.m....L
0380: 10 66 80 00 89 03 01 8C  03 1C 67 80 1F 00 6E 80  .f........g...n.
0390: 6F 80 70 80 1F 01 02 4C  10 66 80 00 A1 03 01 A4  o.p....L.f......
03A0: 03 1C 67 80 1F 00 41 80  42 80 43 80 1F 01 02 4C  ..g...A.B.C....L
03B0: 10 66 80 00 B9 03 01 BC  03 1C 67 80 00           .f........g..   
```

#### Opcodes

```
  0: 0x0213 [0x32] ExtData[1]->MainSpeed = 70* * 0.1
  1: 0x0216 [0x1F] MOVE_ENTITY: EventEntity moves to X=-215.471*, Z=260.448*, Y=-52.510*
  2: 0x021E [0x1F] MOVE_ENTITY: Update entity position (mode=1)
  3: 0x0220 [0x1F] MOVE_ENTITY: EventEntity moves to X=-253.385*, Z=251.764*, Y=-44.968*
  4: 0x0228 [0x1F] MOVE_ENTITY: Update entity position (mode=1)
  5: 0x022A [0x1F] MOVE_ENTITY: EventEntity moves to X=-264.983*, Z=224.466*, Y=-45.400*
  6: 0x0232 [0x1F] MOVE_ENTITY: Update entity position (mode=1)
  7: 0x0234 [0x1F] MOVE_ENTITY: EventEntity moves to X=-294.581*, Z=212.427*, Y=-44.944*
  8: 0x023C [0x1F] MOVE_ENTITY: Update entity position (mode=1)
  9: 0x023E [0x1F] MOVE_ENTITY: EventEntity moves to X=-301.693*, Z=180.258*, Y=-41.005*
 10: 0x0246 [0x1F] MOVE_ENTITY: Update entity position (mode=1)
 11: 0x0248 [0x1F] MOVE_ENTITY: EventEntity moves to X=-295.389*, Z=166.491*, Y=-37.314*
 12: 0x0250 [0x1F] MOVE_ENTITY: Update entity position (mode=1)
 13: 0x0252 [0x1F] MOVE_ENTITY: EventEntity moves to X=-300.900*, Z=148.071*, Y=-35.570*
 14: 0x025A [0x1F] MOVE_ENTITY: Update entity position (mode=1)
 15: 0x025C [0x1F] MOVE_ENTITY: EventEntity moves to X=-317.041*, Z=138.761*, Y=-35.864*
 16: 0x0264 [0x1F] MOVE_ENTITY: Update entity position (mode=1)
 17: 0x0266 [0x1F] MOVE_ENTITY: EventEntity moves to X=-354.001*, Z=139.602*, Y=-35.769*
 18: 0x026E [0x1F] MOVE_ENTITY: Update entity position (mode=1)
 19: 0x0270 [0x1F] MOVE_ENTITY: EventEntity moves to X=-376.138*, Z=136.278*, Y=-36.335*
 20: 0x0278 [0x1F] MOVE_ENTITY: Update entity position (mode=1)
 21: 0x027A [0x1F] MOVE_ENTITY: EventEntity moves to X=-380.792*, Z=140.260*, Y=-35.839*
 22: 0x0282 [0x1F] MOVE_ENTITY: Update entity position (mode=1)
 23: 0x0284 [0x1F] MOVE_ENTITY: EventEntity moves to X=-376.138*, Z=136.278*, Y=-36.335*
 24: 0x028C [0x1F] MOVE_ENTITY: Update entity position (mode=1)
 25: 0x028E [0x02] IF !(Work_Zone[76] == 2*) GOTO 0x0299
 26: 0x0296 [0x01] GOTO 0x029C
 27: 0x0299 [0x1C] WAIT(5* ticks)

SUBROUTINE_029C:
 28: 0x029C [0x1F] MOVE_ENTITY: EventEntity moves to X=-354.001*, Z=139.602*, Y=-35.769*
 29: 0x02A4 [0x1F] MOVE_ENTITY: Update entity position (mode=1)
 30: 0x02A6 [0x02] IF !(Work_Zone[76] == 2*) GOTO 0x02B1
 31: 0x02AE [0x01] GOTO 0x02B4
 32: 0x02B1 [0x1C] WAIT(5* ticks)

SUBROUTINE_02B4:
 33: 0x02B4 [0x1F] MOVE_ENTITY: EventEntity moves to X=-317.041*, Z=138.761*, Y=-35.864*
 34: 0x02BC [0x1F] MOVE_ENTITY: Update entity position (mode=1)
 35: 0x02BE [0x02] IF !(Work_Zone[76] == 2*) GOTO 0x02C9
 36: 0x02C6 [0x01] GOTO 0x02CC
 37: 0x02C9 [0x1C] WAIT(5* ticks)

SUBROUTINE_02CC:
 38: 0x02CC [0x1F] MOVE_ENTITY: EventEntity moves to X=-300.900*, Z=148.071*, Y=-35.570*
 39: 0x02D4 [0x1F] MOVE_ENTITY: Update entity position (mode=1)
 40: 0x02D6 [0x02] IF !(Work_Zone[76] == 2*) GOTO 0x02E1
 41: 0x02DE [0x01] GOTO 0x02E4
 42: 0x02E1 [0x1C] WAIT(5* ticks)

SUBROUTINE_02E4:
 43: 0x02E4 [0x1F] MOVE_ENTITY: EventEntity moves to X=-295.389*, Z=166.491*, Y=-37.314*
 44: 0x02EC [0x1F] MOVE_ENTITY: Update entity position (mode=1)
 45: 0x02EE [0x02] IF !(Work_Zone[76] == 2*) GOTO 0x02F9
 46: 0x02F6 [0x01] GOTO 0x02FC
 47: 0x02F9 [0x1C] WAIT(5* ticks)

SUBROUTINE_02FC:
 48: 0x02FC [0x1F] MOVE_ENTITY: EventEntity moves to X=-301.693*, Z=180.258*, Y=-41.005*
 49: 0x0304 [0x1F] MOVE_ENTITY: Update entity position (mode=1)
 50: 0x0306 [0x02] IF !(Work_Zone[76] == 2*) GOTO 0x0311
 51: 0x030E [0x01] GOTO 0x0314
 52: 0x0311 [0x1C] WAIT(5* ticks)

SUBROUTINE_0314:
 53: 0x0314 [0x1F] MOVE_ENTITY: EventEntity moves to X=-294.581*, Z=212.427*, Y=-44.944*
 54: 0x031C [0x1F] MOVE_ENTITY: Update entity position (mode=1)
 55: 0x031E [0x02] IF !(Work_Zone[76] == 2*) GOTO 0x0329
 56: 0x0326 [0x01] GOTO 0x032C
 57: 0x0329 [0x1C] WAIT(5* ticks)

SUBROUTINE_032C:
 58: 0x032C [0x1F] MOVE_ENTITY: EventEntity moves to X=-264.983*, Z=224.466*, Y=-45.400*
 59: 0x0334 [0x1F] MOVE_ENTITY: Update entity position (mode=1)
 60: 0x0336 [0x02] IF !(Work_Zone[76] == 2*) GOTO 0x0341
 61: 0x033E [0x01] GOTO 0x0344
 62: 0x0341 [0x1C] WAIT(5* ticks)

SUBROUTINE_0344:
 63: 0x0344 [0x1F] MOVE_ENTITY: EventEntity moves to X=-253.385*, Z=251.764*, Y=-44.968*
 64: 0x034C [0x1F] MOVE_ENTITY: Update entity position (mode=1)
 65: 0x034E [0x02] IF !(Work_Zone[76] == 2*) GOTO 0x0359
 66: 0x0356 [0x01] GOTO 0x035C
 67: 0x0359 [0x1C] WAIT(5* ticks)

SUBROUTINE_035C:
 68: 0x035C [0x1F] MOVE_ENTITY: EventEntity moves to X=-231.680*, Z=257.273*, Y=-47.313*
 69: 0x0364 [0x1F] MOVE_ENTITY: Update entity position (mode=1)
 70: 0x0366 [0x02] IF !(Work_Zone[76] == 2*) GOTO 0x0371
 71: 0x036E [0x01] GOTO 0x0374
 72: 0x0371 [0x1C] WAIT(5* ticks)

SUBROUTINE_0374:
 73: 0x0374 [0x1F] MOVE_ENTITY: EventEntity moves to X=-221.252*, Z=262.023*, Y=-50.493*
 74: 0x037C [0x1F] MOVE_ENTITY: Update entity position (mode=1)
 75: 0x037E [0x02] IF !(Work_Zone[76] == 2*) GOTO 0x0389
 76: 0x0386 [0x01] GOTO 0x038C
 77: 0x0389 [0x1C] WAIT(5* ticks)

SUBROUTINE_038C:
 78: 0x038C [0x1F] MOVE_ENTITY: EventEntity moves to X=-195.382*, Z=259.034*, Y=-56.124*
 79: 0x0394 [0x1F] MOVE_ENTITY: Update entity position (mode=1)
 80: 0x0396 [0x02] IF !(Work_Zone[76] == 2*) GOTO 0x03A1
 81: 0x039E [0x01] GOTO 0x03A4
 82: 0x03A1 [0x1C] WAIT(5* ticks)

SUBROUTINE_03A4:
 83: 0x03A4 [0x1F] MOVE_ENTITY: EventEntity moves to X=-174.052*, Z=257.527*, Y=-58.109*
 84: 0x03AC [0x1F] MOVE_ENTITY: Update entity position (mode=1)
 85: 0x03AE [0x02] IF !(Work_Zone[76] == 2*) GOTO 0x03B9
 86: 0x03B6 [0x01] GOTO 0x03BC
 87: 0x03B9 [0x1C] WAIT(5* ticks)

SUBROUTINE_03BC:
 88: 0x03BC [0x00] END_REQSTACK()
```

### Event 861

#### Metadata

| Field        | Value   |
|--------------|---------|
| Entrypoint   | 0x03BD  |
| Data Size    | 1 bytes |
| Instructions | 1       |

```
      00 01 02 03 04 05 06 07  08 09 0A 0B 0C 0D 0E 0F
      -- -- -- -- -- -- -- --  -- -- -- -- -- -- -- --
03B0:                                         00                     .  
```

#### Opcodes

```
  0: 0x03BD [0x00] END_REQSTACK()
```

### Event 65535.23

#### Metadata

| Field        | Value    |
|--------------|----------|
| Entrypoint   | 0x03BE   |
| Data Size    | 15 bytes |
| Instructions | 3        |

```
      00 01 02 03 04 05 06 07  08 09 0A 0B 0C 0D 0E 0F
      -- -- -- -- -- -- -- --  -- -- -- -- -- -- -- --
03B0:                                            37 71                7q
03C0: 80 72 80 73 80 74 80 03  04 00 1A 80 00           .r.s.t.......   
```

#### Opcodes

```
  0: 0x03BE [0x37] UPDATE_EVENT_POSITION_AND_DIR: x=-605.201*, z=606.193*, y=0.167*, direction=33.1°*
  1: 0x03C7 [0x03] ExtData[1]->WorkLocal[4] = 0*
  2: 0x03CC [0x00] END_REQSTACK()
```

### Event 65535.24

#### Metadata

| Field        | Value    |
|--------------|----------|
| Entrypoint   | 0x03CD   |
| Data Size    | 48 bytes |
| Instructions | 11       |

```
      00 01 02 03 04 05 06 07  08 09 0A 0B 0C 0D 0E 0F
      -- -- -- -- -- -- -- --  -- -- -- -- -- -- -- --
03C0:                                         02 04 00               ...
03D0: 66 80 01 FC 03 32 30 80  1F 00 75 80 76 80 77 80  f....20...u.v.w.
03E0: 1F 01 1F 00 78 80 79 80  7A 80 1F 01 1C 7B 80 1F  ....x.y.z....{..
03F0: 00 7C 80 7D 80 7E 80 1F  01 01 CD 03 00           .|.}.~.......   
```

#### Opcodes

```
  0: 0x03CD [0x02] IF !(ExtData[1]->WorkLocal[4] == 2*) GOTO 0x03FC
  1: 0x03D5 [0x32] ExtData[1]->MainSpeed = 15* * 0.1
  2: 0x03D8 [0x1F] MOVE_ENTITY: EventEntity moves to X=-605.972*, Z=607.697*, Y=0.004*
  3: 0x03E0 [0x1F] MOVE_ENTITY: Update entity position (mode=1)
  4: 0x03E2 [0x1F] MOVE_ENTITY: EventEntity moves to X=-608.286*, Z=606.788*, Y=-0.064*
  5: 0x03EA [0x1F] MOVE_ENTITY: Update entity position (mode=1)
  6: 0x03EC [0x1C] WAIT(60* ticks)
  7: 0x03EF [0x1F] MOVE_ENTITY: EventEntity moves to X=-606.508*, Z=607.958*, Y=-0.049*
  8: 0x03F7 [0x1F] MOVE_ENTITY: Update entity position (mode=1)
  9: 0x03F9 [0x01] GOTO 0x03CD
 10: 0x03FC [0x00] END_REQSTACK()
```

### Event 65535.25

#### Metadata

| Field        | Value   |
|--------------|---------|
| Entrypoint   | 0x03FD  |
| Data Size    | 6 bytes |
| Instructions | 2       |

```
      00 01 02 03 04 05 06 07  08 09 0A 0B 0C 0D 0E 0F
      -- -- -- -- -- -- -- --  -- -- -- -- -- -- -- --
03F0:                                         03 04 00               ...
0400: 66 80 00                                          f..             
```

#### Opcodes

```
  0: 0x03FD [0x03] ExtData[1]->WorkLocal[4] = 2*
  1: 0x0402 [0x00] END_REQSTACK()
```

### Event 65535.26

#### Metadata

| Field        | Value    |
|--------------|----------|
| Entrypoint   | 0x0403   |
| Data Size    | 15 bytes |
| Instructions | 3        |

```
      00 01 02 03 04 05 06 07  08 09 0A 0B 0C 0D 0E 0F
      -- -- -- -- -- -- -- --  -- -- -- -- -- -- -- --
0400:          37 7F 80 80 80  81 80 82 80 80 F8 FF FF     7............
0410: 7F 00                                             ..              
```

#### Opcodes

```
  0: 0x0403 [0x37] UPDATE_EVENT_POSITION_AND_DIR: x=-600.128*, z=585.578*, y=0.628*, direction=25.0°*
  1: 0x040C [0x80] LOAD_WAIT(entity=EventEntity)
  2: 0x0411 [0x00] END_REQSTACK()
```

### Event 65535.27

#### Metadata

| Field        | Value    |
|--------------|----------|
| Entrypoint   | 0x0412   |
| Data Size    | 80 bytes |
| Instructions | 18       |

```
      00 01 02 03 04 05 06 07  08 09 0A 0B 0C 0D 0E 0F
      -- -- -- -- -- -- -- --  -- -- -- -- -- -- -- --
0410:       32 30 80 1F 00 83  80 84 80 85 80 1F 01 1F    20............
0420: 00 86 80 87 80 88 80 1F  01 1F 00 89 80 8A 80 8B  ................
0430: 80 1F 01 1F 00 8C 80 8D  80 8E 80 1F 01 1C 8F 80  ................
0440: 4B 1A 61 0E 01 90 80 1C  91 80 1F 00 92 80 93 80  K.a.............
0450: 94 80 1F 01 1C 8F 80 4B  1A 61 0E 01 95 80 1C 8F  .......K.a......
0460: 80 00                                             ..              
```

#### Opcodes

```
  0: 0x0412 [0x32] ExtData[1]->MainSpeed = 15* * 0.1
  1: 0x0415 [0x1F] MOVE_ENTITY: EventEntity moves to X=-601.910*, Z=587.743*, Y=0.274*
  2: 0x041D [0x1F] MOVE_ENTITY: Update entity position (mode=1)
  3: 0x041F [0x1F] MOVE_ENTITY: EventEntity moves to X=-600.199*, Z=588.994*, Y=0.347*
  4: 0x0427 [0x1F] MOVE_ENTITY: Update entity position (mode=1)
  5: 0x0429 [0x1F] MOVE_ENTITY: EventEntity moves to X=-599.211*, Z=586.089*, Y=0.586*
  6: 0x0431 [0x1F] MOVE_ENTITY: Update entity position (mode=1)
  7: 0x0433 [0x1F] MOVE_ENTITY: EventEntity moves to X=-599.391*, Z=583.375*, Y=0.830*
  8: 0x043B [0x1F] MOVE_ENTITY: Update entity position (mode=1)
  9: 0x043D [0x1C] WAIT(30* ticks)
 10: 0x0440 [0x4B] UPDATE_ENTITY_YAW(entity=Unnamed NPC (ID: 17719578/0x010E611A), yaw=17.4°*)
 11: 0x0447 [0x1C] WAIT(120* ticks)
 12: 0x044A [0x1F] MOVE_ENTITY: EventEntity moves to X=-602.007*, Z=587.764*, Y=0.268*
 13: 0x0452 [0x1F] MOVE_ENTITY: Update entity position (mode=1)
 14: 0x0454 [0x1C] WAIT(30* ticks)
 15: 0x0457 [0x4B] UPDATE_ENTITY_YAW(entity=Unnamed NPC (ID: 17719578/0x010E611A), yaw=1.9°*)
 16: 0x045E [0x1C] WAIT(30* ticks)
 17: 0x0461 [0x00] END_REQSTACK()
```

### Event 65535.28

#### Metadata

| Field        | Value    |
|--------------|----------|
| Entrypoint   | 0x0462   |
| Data Size    | 67 bytes |
| Instructions | 15       |

```
      00 01 02 03 04 05 06 07  08 09 0A 0B 0C 0D 0E 0F
      -- -- -- -- -- -- -- --  -- -- -- -- -- -- -- --
0460:       32 96 80 1F 00 97  80 98 80 99 80 1F 01 4B    2............K
0470: 1A 61 0E 01 9A 80 1C 7B  80 1F 00 9B 80 9C 80 9D  .a.....{........
0480: 80 1F 01 4B 1A 61 0E 01  9E 80 1C 9F 80 1F 00 A0  ...K.a..........
0490: 80 A1 80 A2 80 1F 01 1C  8F 80 4B 1A 61 0E 01 A3  ..........K.a...
04A0: 80 1C 7B 80 00                                    ..{..           
```

#### Opcodes

```
  0: 0x0462 [0x32] ExtData[1]->MainSpeed = 45* * 0.1
  1: 0x0465 [0x1F] MOVE_ENTITY: EventEntity moves to X=-599.295*, Z=590.678*, Y=0.264*
  2: 0x046D [0x1F] MOVE_ENTITY: Update entity position (mode=1)
  3: 0x046F [0x4B] UPDATE_ENTITY_YAW(entity=Unnamed NPC (ID: 17719578/0x010E611A), yaw=5.3°*)
  4: 0x0476 [0x1C] WAIT(60* ticks)
  5: 0x0479 [0x1F] MOVE_ENTITY: EventEntity moves to X=-604.353*, Z=586.292*, Y=0.138*
  6: 0x0481 [0x1F] MOVE_ENTITY: Update entity position (mode=1)
  7: 0x0483 [0x4B] UPDATE_ENTITY_YAW(entity=Unnamed NPC (ID: 17719578/0x010E611A), yaw=0.2°*)
  8: 0x048A [0x1C] WAIT(240* ticks)
  9: 0x048D [0x1F] MOVE_ENTITY: EventEntity moves to X=-600.328*, Z=582.410*, Y=0.802*
 10: 0x0495 [0x1F] MOVE_ENTITY: Update entity position (mode=1)
 11: 0x0497 [0x1C] WAIT(30* ticks)
 12: 0x049A [0x4B] UPDATE_ENTITY_YAW(entity=Unnamed NPC (ID: 17719578/0x010E611A), yaw=16.6°*)
 13: 0x04A1 [0x1C] WAIT(60* ticks)
 14: 0x04A4 [0x00] END_REQSTACK()
```

### Event 65535.29

#### Metadata

| Field        | Value    |
|--------------|----------|
| Entrypoint   | 0x04A5   |
| Data Size    | 14 bytes |
| Instructions | 4        |

```
      00 01 02 03 04 05 06 07  08 09 0A 0B 0C 0D 0E 0F
      -- -- -- -- -- -- -- --  -- -- -- -- -- -- -- --
04A0:                32 96 80  1F 00 A4 80 A5 80 A6 80       2..........
04B0: 1F 01 00                                          ...             
```

#### Opcodes

```
  0: 0x04A5 [0x32] ExtData[1]->MainSpeed = 45* * 0.1
  1: 0x04A8 [0x1F] MOVE_ENTITY: EventEntity moves to X=-599.148*, Z=589.043*, Y=0.345*
  2: 0x04B0 [0x1F] MOVE_ENTITY: Update entity position (mode=1)
  3: 0x04B2 [0x00] END_REQSTACK()
```

### Event 65535.30

#### Metadata

| Field        | Value    |
|--------------|----------|
| Entrypoint   | 0x04B3   |
| Data Size    | 51 bytes |
| Instructions | 11       |

```
      00 01 02 03 04 05 06 07  08 09 0A 0B 0C 0D 0E 0F
      -- -- -- -- -- -- -- --  -- -- -- -- -- -- -- --
04B0:          32 96 80 1F 00  A7 80 A8 80 A9 80 1F 01     2............
04C0: 1F 00 AA 80 AB 80 AC 80  1F 01 1F 00 AD 80 AE 80  ................
04D0: AF 80 1F 01 1E 19 61 0E  01 1C 8F 80 4A 19 61 0E  ......a.....J.a.
04E0: 01 1A 61 0E 01 00                                 ..a...          
```

#### Opcodes

```
  0: 0x04B3 [0x32] ExtData[1]->MainSpeed = 45* * 0.1
  1: 0x04B6 [0x1F] MOVE_ENTITY: EventEntity moves to X=-604.257*, Z=586.573*, Y=0.057*
  2: 0x04BE [0x1F] MOVE_ENTITY: Update entity position (mode=1)
  3: 0x04C0 [0x1F] MOVE_ENTITY: EventEntity moves to X=-603.318*, Z=588.527*, Y=0.196*
  4: 0x04C8 [0x1F] MOVE_ENTITY: Update entity position (mode=1)
  5: 0x04CA [0x1F] MOVE_ENTITY: EventEntity moves to X=-601.495*, Z=586.040*, Y=0.496*
  6: 0x04D2 [0x1F] MOVE_ENTITY: Update entity position (mode=1)
  7: 0x04D4 [0x1E] EventEntity looks at Unnamed NPC (ID: 17719577/0x010E6119) and starts talking
  8: 0x04D9 [0x1C] WAIT(30* ticks)
  9: 0x04DC [0x4A] Unnamed NPC (ID: 17719577/0x010E6119) looks at Unnamed NPC (ID: 17719578/0x010E611A)
 10: 0x04E5 [0x00] END_REQSTACK()
```

### Event 65535.31

#### Metadata

| Field        | Value    |
|--------------|----------|
| Entrypoint   | 0x04E6   |
| Data Size    | 15 bytes |
| Instructions | 3        |

```
      00 01 02 03 04 05 06 07  08 09 0A 0B 0C 0D 0E 0F
      -- -- -- -- -- -- -- --  -- -- -- -- -- -- -- --
04E0:                   37 92  80 93 80 94 80 82 80 80        7.........
04F0: F8 FF FF 7F 00                                    .....           
```

#### Opcodes

```
  0: 0x04E6 [0x37] UPDATE_EVENT_POSITION_AND_DIR: x=-602.007*, z=587.764*, y=0.268*, direction=25.0°*
  1: 0x04EF [0x80] LOAD_WAIT(entity=EventEntity)
  2: 0x04F4 [0x00] END_REQSTACK()
```

### Event 65535.32

#### Metadata

| Field        | Value    |
|--------------|----------|
| Entrypoint   | 0x04F5   |
| Data Size    | 69 bytes |
| Instructions | 15       |

```
      00 01 02 03 04 05 06 07  08 09 0A 0B 0C 0D 0E 0F
      -- -- -- -- -- -- -- --  -- -- -- -- -- -- -- --
04F0:                32 96 80  1F 00 B0 80 B1 80 B2 80       2..........
0500: 1F 01 1F 00 B3 80 B4 80  B5 80 1F 01 1F 00 B6 80  ................
0510: B7 80 B8 80 1F 01 1F 00  B9 80 BA 80 BB 80 1F 01  ................
0520: 1F 00 BC 80 BD 80 BE 80  1F 01 1F 00 BF 80 C0 80  ................
0530: C1 80 1F 01 1E 19 61 0E  01 00                    ......a...      
```

#### Opcodes

```
  0: 0x04F5 [0x32] ExtData[1]->MainSpeed = 45* * 0.1
  1: 0x04F8 [0x1F] MOVE_ENTITY: EventEntity moves to X=-602.454*, Z=588.333*, Y=0.247*
  2: 0x0500 [0x1F] MOVE_ENTITY: Update entity position (mode=1)
  3: 0x0502 [0x1F] MOVE_ENTITY: EventEntity moves to X=-603.634*, Z=585.657*, Y=0.144*
  4: 0x050A [0x1F] MOVE_ENTITY: Update entity position (mode=1)
  5: 0x050C [0x1F] MOVE_ENTITY: EventEntity moves to X=-602.421*, Z=582.680*, Y=0.396*
  6: 0x0514 [0x1F] MOVE_ENTITY: Update entity position (mode=1)
  7: 0x0516 [0x1F] MOVE_ENTITY: EventEntity moves to X=-599.175*, Z=582.899*, Y=0.854*
  8: 0x051E [0x1F] MOVE_ENTITY: Update entity position (mode=1)
  9: 0x0520 [0x1F] MOVE_ENTITY: EventEntity moves to X=-598.432*, Z=587.737*, Y=0.410*
 10: 0x0528 [0x1F] MOVE_ENTITY: Update entity position (mode=1)
 11: 0x052A [0x1F] MOVE_ENTITY: EventEntity moves to X=-599.890*, Z=589.432*, Y=0.326*
 12: 0x0532 [0x1F] MOVE_ENTITY: Update entity position (mode=1)
 13: 0x0534 [0x1E] EventEntity looks at Unnamed NPC (ID: 17719577/0x010E6119) and starts talking
 14: 0x0539 [0x00] END_REQSTACK()
```
