# 17719643 - Urbiolaine

## Common Data

| Field            | Value                         |
|------------------|-------------------------------|
| Zone             | Southern San d'Oria (ID: 230) |
| Block Size       | 22200 bytes                   |
| Total Events     | 17                            |
| References Count | 805                           |

## List of Events

| Event ID                 | Entrypoint   |   Size |   Instructions |
|--------------------------|--------------|--------|----------------|
| [65535](#event-65535)    | 0x0000       |      1 |              1 |
| [3528](#event-3528)      | 0x0001       |     33 |             15 |
| [3527](#event-3527)      | 0x0022       |     22 |             10 |
| [3524](#event-3524)      | 0x0038       |     29 |             11 |
| [3525](#event-3525)      | 0x0055       |     28 |             10 |
| [3526](#event-3526)      | 0x0071       |      1 |              1 |
| [65535.1](#event-655351) | 0x0072       |     13 |              3 |
| [65535.2](#event-655352) | 0x007F       |     44 |              5 |
| [65535.3](#event-655353) | 0x00AB       |     33 |              3 |
| [65535.4](#event-655354) | 0x00CC       |     29 |              3 |
| [65535.5](#event-655355) | 0x00E9       |     29 |              3 |
| [65535.6](#event-655356) | 0x0106       |     29 |              3 |
| [65535.7](#event-655357) | 0x0123       |     29 |              3 |
| [65535.8](#event-655358) | 0x0140       |     14 |              4 |
| [3529](#event-3529)      | 0x014E       |  17292 |           3648 |
| [3530](#event-3530)      | 0x44DA       |   1175 |            175 |
| [3531](#event-3531)      | 0x4971       |     94 |             25 |

## DAT References (imed_data)

|   Index | Hex Value   |   Dec Value |
|---------|-------------|-------------|
|       0 | 0x3ECA      |       16074 |
|       1 | 0x000A      |          10 |
|       2 | 0x3ECB      |       16075 |
|       3 | 0x3ECC      |       16076 |
|       4 | 0x0001      |           1 |
|       5 | 0x0005      |           5 |
|       6 | 0x3ECD      |       16077 |
|       7 | 0x002D      |          45 |
|       8 | 0x0B52      |        2898 |
|       9 | 0x01B8      |         440 |
|      10 | 0x0B53      |        2899 |
|      11 | 0x0061      |          97 |
|      12 | 0x00B3      |         179 |
|      13 | 0x0027      |          39 |
|      14 | 0x000D      |          13 |
|      15 | 0xFFFEA572  |  4294878578 |
|      16 | 0xFFFF30E1  |  4294914273 |
|      17 | 0x03E7      |         999 |
|      18 | 0x0000      |           0 |
|      19 | 0x0004      |           4 |
|      20 | 0x3EF1      |       16113 |
|      21 | 0x3E7C      |       15996 |
|      22 | 0x0007      |           7 |
|      23 | 0x0038      |          56 |
|      24 | 0x0008      |           8 |
|      25 | 0x0020      |          32 |
|      26 | 0x0040      |          64 |
|      27 | 0x0060      |          96 |
|      28 | 0x0302      |         770 |
|      29 | 0x3E7D      |       15997 |
|      30 | 0x0006      |           6 |
|      31 | 0x0002      |           2 |
|      32 | 0x0003      |           3 |
|      33 | 0x0009      |           9 |
|      34 | 0x0011      |          17 |
|      35 | 0x000B      |          11 |
|      36 | 0x3E7E      |       15998 |
|      37 | 0x3EF2      |       16114 |
|      38 | 0x0064      |         100 |
|      39 | 0x3E7F      |       15999 |
|      40 | 0x3EF3      |       16115 |
|      41 | 0x3EC8      |       16072 |
|      42 | 0x3EC9      |       16073 |
|      43 | 0x007A      |         122 |
|      44 | 0x010E      |         270 |
|      45 | 0x000C      |          12 |
|      46 | 0x03FE      |        1022 |
|      47 | 0x0033      |          51 |
|      48 | 0x0019      |          25 |
|      49 | 0x3E81      |       16001 |
|      50 | 0x3E82      |       16002 |
|      51 | 0x3EF5      |       16117 |
|      52 | 0x3EF6      |       16118 |
|      53 | 0x3EF7      |       16119 |
|      54 | 0x3EF8      |       16120 |
|      55 | 0x7530      |       30000 |
|      56 | 0x3EF9      |       16121 |
|      57 | 0x3EFA      |       16122 |
|      58 | 0x3EFB      |       16123 |
|      59 | 0x3EFC      |       16124 |
|      60 | 0x3EFD      |       16125 |
|      61 | 0x3EFE      |       16126 |
|      62 | 0x3EFF      |       16127 |
|      63 | 0x001E      |          30 |
|      64 | 0x000F      |          15 |
|      65 | 0x0010      |          16 |
|      66 | 0x001F      |          31 |
|      67 | 0x3E84      |       16004 |
|      68 | 0x3F00      |       16128 |
|      69 | 0x3EF4      |       16116 |
|      70 | 0x3E85      |       16005 |
|      71 | 0x03C0      |         960 |
|      72 | 0x0063      |          99 |
|      73 | 0x1EF0      |        7920 |
|      74 | 0x3F01      |       16129 |
|      75 | 0x3F02      |       16130 |
|      76 | 0x3E86      |       16006 |
|      77 | 0x3F03      |       16131 |
|      78 | 0x3F04      |       16132 |
|      79 | 0x3F05      |       16133 |
|      80 | 0x3E76      |       15990 |
|      81 | 0x3E7A      |       15994 |
|      82 | 0x0018      |          24 |
|      83 | 0x3F06      |       16134 |
|      84 | 0x3F07      |       16135 |
|      85 | 0x3F08      |       16136 |
|      86 | 0x3E80      |       16000 |
|      87 | 0x3F09      |       16137 |
|      88 | 0x3F0A      |       16138 |
|      89 | 0x3F0B      |       16139 |
|      90 | 0x3F0C      |       16140 |
|      91 | 0x3F1B      |       16155 |
|      92 | 0x3E8C      |       16012 |
|      93 | 0x3E8D      |       16013 |
|      94 | 0x3E8E      |       16014 |
|      95 | 0x3E8F      |       16015 |
|      96 | 0x0A47      |        2631 |
|      97 | 0x3E90      |       16016 |
|      98 | 0x3E91      |       16017 |
|      99 | 0x3E92      |       16018 |
|     100 | 0x3E93      |       16019 |
|     101 | 0x3E94      |       16020 |
|     102 | 0x3E95      |       16021 |
|     103 | 0x3E96      |       16022 |
|     104 | 0x3E97      |       16023 |
|     105 | 0x3E98      |       16024 |
|     106 | 0x3E99      |       16025 |
|     107 | 0x3E9A      |       16026 |
|     108 | 0x3E9B      |       16027 |
|     109 | 0x3E9C      |       16028 |
|     110 | 0x3E9D      |       16029 |
|     111 | 0x3E9E      |       16030 |
|     112 | 0x3E9F      |       16031 |
|     113 | 0x3EA0      |       16032 |
|     114 | 0x3EA1      |       16033 |
|     115 | 0x3EA2      |       16034 |
|     116 | 0x3EA3      |       16035 |
|     117 | 0x3EA4      |       16036 |
|     118 | 0x3EA5      |       16037 |
|     119 | 0x3EA6      |       16038 |
|     120 | 0x3EA7      |       16039 |
|     121 | 0x3EA8      |       16040 |
|     122 | 0x3EA9      |       16041 |
|     123 | 0x3EAA      |       16042 |
|     124 | 0x3EAB      |       16043 |
|     125 | 0x3EAC      |       16044 |
|     126 | 0x3EAD      |       16045 |
|     127 | 0x3EAE      |       16046 |
|     128 | 0x3EAF      |       16047 |
|     129 | 0x186A0     |      100000 |
|     130 | 0x3EB0      |       16048 |
|     131 | 0x3EB1      |       16049 |
|     132 | 0x3EB2      |       16050 |
|     133 | 0x3EB3      |       16051 |
|     134 | 0x3EB4      |       16052 |
|     135 | 0x3EB5      |       16053 |
|     136 | 0x3EB6      |       16054 |
|     137 | 0x3EB7      |       16055 |
|     138 | 0x3EB8      |       16056 |
|     139 | 0x3EB9      |       16057 |
|     140 | 0x03E8      |        1000 |
|     141 | 0x3EBA      |       16058 |
|     142 | 0x3EBB      |       16059 |
|     143 | 0x3EBC      |       16060 |
|     144 | 0x3EBD      |       16061 |
|     145 | 0x3EBE      |       16062 |
|     146 | 0x3EBF      |       16063 |
|     147 | 0x3EC0      |       16064 |
|     148 | 0x3EC1      |       16065 |
|     149 | 0x3EC2      |       16066 |
|     150 | 0x3EC3      |       16067 |
|     151 | 0x000E      |          14 |
|     152 | 0x0012      |          18 |
|     153 | 0x0013      |          19 |
|     154 | 0x0014      |          20 |
|     155 | 0x0015      |          21 |
|     156 | 0x0016      |          22 |
|     157 | 0x0017      |          23 |
|     158 | 0x001A      |          26 |
|     159 | 0x001B      |          27 |
|     160 | 0x001C      |          28 |
|     161 | 0x001D      |          29 |
|     162 | 0x0065      |         101 |
|     163 | 0x2AF80     |      176000 |
|     164 | 0xFFFC5680  |  4294727296 |
|     165 | 0xFFFFB1E0  |  4294947296 |
|     166 | 0x007F      |         127 |
|     167 | 0x00C8      |         200 |
|     168 | 0x006B      |         107 |
|     169 | 0xFFF92230  |  4294517296 |
|     170 | 0xFFFDB9F8  |  4294818296 |
|     171 | 0x975E      |       38750 |
|     172 | 0x05FF      |        1535 |
|     173 | 0x0074      |         116 |
|     174 | 0x5795E     |      358750 |
|     175 | 0x2710      |       10000 |
|     176 | 0xFFFFCC3E  |  4294954046 |
|     177 | 0x07FF      |        2047 |
|     178 | 0x0066      |         102 |
|     179 | 0x0884      |        2180 |
|     180 | 0x01A4      |         420 |
|     181 | 0x072D      |        1837 |
|     182 | 0x0190      |         400 |
|     183 | 0x006C      |         108 |
|     184 | 0xFFFE4A1C  |  4294855196 |
|     185 | 0x4234C     |      271180 |
|     186 | 0x308E      |       12430 |
|     187 | 0x0A66      |        2662 |
|     188 | 0x0075      |         117 |
|     189 | 0x57E40     |      360000 |
|     190 | 0xFFFF5038  |  4294922296 |
|     191 | 0xFFFFFF7E  |  4294967166 |
|     192 | 0x0535      |        1333 |
|     193 | 0x0067      |         103 |
|     194 | 0xF618      |       63000 |
|     195 | 0xFFFEDB08  |  4294892296 |
|     196 | 0x047E      |        1150 |
|     197 | 0xFFFFFB39  |  4294966073 |
|     198 | 0x05DC      |        1500 |
|     199 | 0x0076      |         118 |
|     200 | 0xFFFB0848  |  4294641736 |
|     201 | 0x45F24     |      286500 |
|     202 | 0xFFFF6028  |  4294926376 |
|     203 | 0x0280      |         640 |
|     204 | 0x007E      |         126 |
|     205 | 0x2DC6C     |      187500 |
|     206 | 0xFFFFB118  |  4294947096 |
|     207 | 0xFFFFAC86  |  4294945926 |
|     208 | 0x083C      |        2108 |
|     209 | 0x9C9DC     |      641500 |
|     210 | 0xD735C     |      881500 |
|     211 | 0x055C      |        1372 |
|     212 | 0x86C4      |       34500 |
|     213 | 0xFFF4B22C  |  4294226476 |
|     214 | 0xFFFFE91C  |  4294961436 |
|     215 | 0x0FD9      |        4057 |
|     216 | 0x007B      |         123 |
|     217 | 0xFFF8B264  |  4294488676 |
|     218 | 0xFFFA3440  |  4294587456 |
|     219 | 0x3FAC      |       16300 |
|     220 | 0x639C0     |      408000 |
|     221 | 0xFFFEE0D0  |  4294893776 |
|     222 | 0xFFFFFFD9  |  4294967257 |
|     223 | 0x063F      |        1599 |
|     224 | 0x0068      |         104 |
|     225 | 0xEA60      |       60000 |
|     226 | 0xFFFFD8F0  |  4294957296 |
|     227 | 0x0226      |         550 |
|     228 | 0x0C06      |        3078 |
|     229 | 0x0708      |        1800 |
|     230 | 0x006D      |         109 |
|     231 | 0xFFF862C8  |  4294468296 |
|     232 | 0xFFF6E204  |  4294369796 |
|     233 | 0x61A8      |       25000 |
|     234 | 0x0C08      |        3080 |
|     235 | 0x0077      |         119 |
|     236 | 0xFFFD920C  |  4294808076 |
|     237 | 0xFFF77340  |  4294406976 |
|     238 | 0xFFFFA240  |  4294943296 |
|     239 | 0x0903      |        2307 |
|     240 | 0x0072      |         114 |
|     241 | 0x6F09A     |      454810 |
|     242 | 0xFFFF9B06  |  4294941446 |
|     243 | 0xFFFFD36E  |  4294955886 |
|     244 | 0x05B7      |        1463 |
|     245 | 0x007C      |         124 |
|     246 | 0x3DF9A     |      253850 |
|     247 | 0x1937A     |      103290 |
|     248 | 0x0C9E      |        3230 |
|     249 | 0x0511      |        1297 |
|     250 | 0x0079      |         121 |
|     251 | 0x7C2B8     |      508600 |
|     252 | 0xFFF72FF2  |  4294389746 |
|     253 | 0x0992      |        2450 |
|     254 | 0x08FF      |        2303 |
|     255 | 0xFFFC412C  |  4294721836 |
|     256 | 0x3BEC0     |      245440 |
|     257 | 0xFFFF8206  |  4294935046 |
|     258 | 0x01FF      |         511 |
|     259 | 0x00D5      |         213 |
|     260 | 0xFFFF15A0  |  4294907296 |
|     261 | 0x1ADB0     |      110000 |
|     262 | 0x1464      |        5220 |
|     263 | 0xFFFFFC01  |  4294966273 |
|     264 | 0x00A7      |         167 |
|     265 | 0xFFFA3B70  |  4294589296 |
|     266 | 0xFFFCA4A0  |  4294747296 |
|     267 | 0xFFFFF060  |  4294963296 |
|     268 | 0x0069      |         105 |
|     269 | 0x6B4EA     |      439530 |
|     270 | 0xFFFDAF3A  |  4294815546 |
|     271 | 0x2012      |        8210 |
|     272 | 0x0949      |        2377 |
|     273 | 0x0834      |        2100 |
|     274 | 0x006E      |         110 |
|     275 | 0xFFF43C5C  |  4294196316 |
|     276 | 0xFFF87E84  |  4294475396 |
|     277 | 0xFFFF7446  |  4294931526 |
|     278 | 0x0DE3      |        3555 |
|     279 | 0x0078      |         120 |
|     280 | 0x4A326     |      303910 |
|     281 | 0x4A8C6     |      305350 |
|     282 | 0x93D0      |       37840 |
|     283 | 0x0A00      |        2560 |
|     284 | 0x006F      |         111 |
|     285 | 0x1D6FA     |      120570 |
|     286 | 0xFFFD4270  |  4294787696 |
|     287 | 0xFFFFF1C8  |  4294963656 |
|     288 | 0x0FFD      |        4093 |
|     289 | 0x0070      |         112 |
|     290 | 0x8CAC8     |      576200 |
|     291 | 0xFFFBF56E  |  4294702446 |
|     292 | 0x06E0      |        1760 |
|     293 | 0xFFFDC998  |  4294822296 |
|     294 | 0xFFFFE0C0  |  4294959296 |
|     295 | 0x007D      |         125 |
|     296 | 0x164CC     |       91340 |
|     297 | 0xFFFFA470  |  4294943856 |
|     298 | 0xFFFFFB78  |  4294966136 |
|     299 | 0xFFFB4128  |  4294656296 |
|     300 | 0x28C58     |      167000 |
|     301 | 0xFFFFEC28  |  4294962216 |
|     302 | 0x06FF      |        1791 |
|     303 | 0xFFFB6C20  |  4294667296 |
|     304 | 0x4EBC4     |      322500 |
|     305 | 0x4650      |       18000 |
|     306 | 0x03FF      |        1023 |
|     307 | 0x00CD      |         205 |
|     308 | 0x13880     |       80000 |
|     309 | 0x3F3B8     |      259000 |
|     310 | 0x0099      |         153 |
|     311 | 0x4268      |       17000 |
|     312 | 0xFFFFB47E  |  4294947966 |
|     313 | 0x00FF      |         255 |
|     314 | 0x00AE      |         174 |
|     315 | 0x6B3A      |       27450 |
|     316 | 0x40740     |      264000 |
|     317 | 0xFFFFCB44  |  4294953796 |
|     318 | 0x00B0      |         176 |
|     319 | 0x4844      |       18500 |
|     320 | 0xFFFE63E4  |  4294861796 |
|     321 | 0x4E02      |       19970 |
|     322 | 0x009F      |         159 |
|     323 | 0x14050     |       82000 |
|     324 | 0x00D0      |         208 |
|     325 | 0xD1F60     |      860000 |
|     326 | 0xFFFA52E0  |  4294595296 |
|     327 | 0xFFFFE05C  |  4294959196 |
|     328 | 0xFFFD8348  |  4294804296 |
|     329 | 0xFFFFD120  |  4294955296 |
|     330 | 0x0071      |         113 |
|     331 | 0x10A86     |       68230 |
|     332 | 0x24248     |      148040 |
|     333 | 0xFFFFE822  |  4294961186 |
|     334 | 0x0960      |        2400 |
|     335 | 0xFFF99DF0  |  4294548976 |
|     336 | 0xFFFE6BD2  |  4294863826 |
|     337 | 0xFFFFBE88  |  4294950536 |
|     338 | 0xFFFFFB01  |  4294966017 |
|     339 | 0x00A0      |         160 |
|     340 | 0x5CC6      |       23750 |
|     341 | 0xFFFC0964  |  4294707556 |
|     342 | 0x67DE      |       26590 |
|     343 | 0xFFFFFD41  |  4294966593 |
|     344 | 0x00CC      |         204 |
|     345 | 0xFFFD4C98  |  4294790296 |
|     346 | 0xFFFD6408  |  4294796296 |
|     347 | 0xFFFFA254  |  4294943316 |
|     348 | 0xFFFFFE81  |  4294966913 |
|     349 | 0x0048      |          72 |
|     350 | 0xFFFE7960  |  4294867296 |
|     351 | 0x4E20      |       20000 |
|     352 | 0xFFFFDECC  |  4294958796 |
|     353 | 0x003D      |          61 |
|     354 | 0xFFF6A578  |  4294354296 |
|     355 | 0x38270     |      230000 |
|     356 | 0xFFFFACCC  |  4294945996 |
|     357 | 0xFFFFFE01  |  4294966785 |
|     358 | 0x00D4      |         212 |
|     359 | 0xFFFE2F28  |  4294848296 |
|     360 | 0xFFFD34C4  |  4294784196 |
|     361 | 0xE22C      |       57900 |
|     362 | 0xFFFFB26C  |  4294947436 |
|     363 | 0x0C1C      |        3100 |
|     364 | 0x0080      |         128 |
|     365 | 0xFFFDD744  |  4294825796 |
|     366 | 0x4D58      |       19800 |
|     367 | 0xFFFFEADE  |  4294961886 |
|     368 | 0x004F      |          79 |
|     369 | 0xA1220     |      660000 |
|     370 | 0x3A78C     |      239500 |
|     371 | 0x0044      |          68 |
|     372 | 0x251C      |        9500 |
|     373 | 0xFFFEAA34  |  4294879796 |
|     374 | 0x5280      |       21120 |
|     375 | 0x1004      |        4100 |
|     376 | 0x0331      |         817 |
|     377 | 0x0332      |         818 |
|     378 | 0x0333      |         819 |
|     379 | 0x0334      |         820 |
|     380 | 0x0335      |         821 |
|     381 | 0x0337      |         823 |
|     382 | 0x0336      |         822 |
|     383 | 0x0338      |         824 |
|     384 | 0x0343      |         835 |
|     385 | 0x0339      |         825 |
|     386 | 0x033B      |         827 |
|     387 | 0x0356      |         854 |
|     388 | 0x035B      |         859 |
|     389 | 0x033A      |         826 |
|     390 | 0x033D      |         829 |
|     391 | 0x033F      |         831 |
|     392 | 0x0344      |         836 |
|     393 | 0x0345      |         837 |
|     394 | 0x0357      |         855 |
|     395 | 0x035C      |         860 |
|     396 | 0x035F      |         863 |
|     397 | 0x037B      |         891 |
|     398 | 0x033C      |         828 |
|     399 | 0x033E      |         830 |
|     400 | 0x0340      |         832 |
|     401 | 0x0341      |         833 |
|     402 | 0x0342      |         834 |
|     403 | 0x0358      |         856 |
|     404 | 0x0359      |         857 |
|     405 | 0x035D      |         861 |
|     406 | 0x0360      |         864 |
|     407 | 0x0361      |         865 |
|     408 | 0x0362      |         866 |
|     409 | 0x0363      |         867 |
|     410 | 0x037C      |         892 |
|     411 | 0x037D      |         893 |
|     412 | 0x0382      |         898 |
|     413 | 0x0380      |         896 |
|     414 | 0x037E      |         894 |
|     415 | 0x035A      |         858 |
|     416 | 0x0397      |         919 |
|     417 | 0x035E      |         862 |
|     418 | 0x0364      |         868 |
|     419 | 0x0365      |         869 |
|     420 | 0x0396      |         918 |
|     421 | 0x0383      |         899 |
|     422 | 0x037F      |         895 |
|     423 | 0x0381      |         897 |
|     424 | 0x0398      |         920 |
|     425 | 0x0392      |         914 |
|     426 | 0x0393      |         915 |
|     427 | 0x0394      |         916 |
|     428 | 0x0399      |         921 |
|     429 | 0x039A      |         922 |
|     430 | 0x039B      |         923 |
|     431 | 0x039C      |         924 |
|     432 | 0x501B      |       20507 |
|     433 | 0x501C      |       20508 |
|     434 | 0x23F3      |        9203 |
|     435 | 0x0032      |          50 |
|     436 | 0x5029      |       20521 |
|     437 | 0x502A      |       20522 |
|     438 | 0x2384      |        9092 |
|     439 | 0x502F      |       20527 |
|     440 | 0x5030      |       20528 |
|     441 | 0x2364      |        9060 |
|     442 | 0x5064      |       20580 |
|     443 | 0x5065      |       20581 |
|     444 | 0x23F7      |        9207 |
|     445 | 0x507B      |       20603 |
|     446 | 0x507C      |       20604 |
|     447 | 0x235F      |        9055 |
|     448 | 0x507E      |       20606 |
|     449 | 0x507F      |       20607 |
|     450 | 0x2358      |        9048 |
|     451 | 0x5080      |       20608 |
|     452 | 0x5081      |       20609 |
|     453 | 0x2347      |        9031 |
|     454 | 0x50C7      |       20679 |
|     455 | 0x50C8      |       20680 |
|     456 | 0x23F5      |        9205 |
|     457 | 0x50C9      |       20681 |
|     458 | 0x50CA      |       20682 |
|     459 | 0x23F6      |        9206 |
|     460 | 0x50D8      |       20696 |
|     461 | 0x50D9      |       20697 |
|     462 | 0x23BD      |        9149 |
|     463 | 0x50E4      |       20708 |
|     464 | 0x50E5      |       20709 |
|     465 | 0x2385      |        9093 |
|     466 | 0x5083      |       20611 |
|     467 | 0x5084      |       20612 |
|     468 | 0x2319      |        8985 |
|     469 | 0x5085      |       20613 |
|     470 | 0x5086      |       20614 |
|     471 | 0x231D      |        8989 |
|     472 | 0x54BA      |       21690 |
|     473 | 0x54BB      |       21691 |
|     474 | 0x54B8      |       21688 |
|     475 | 0x54B9      |       21689 |
|     476 | 0x54BF      |       21695 |
|     477 | 0x54C0      |       21696 |
|     478 | 0x54C6      |       21702 |
|     479 | 0x54C7      |       21703 |
|     480 | 0x2362      |        9058 |
|     481 | 0x54F4      |       21748 |
|     482 | 0x54F5      |       21749 |
|     483 | 0x23F4      |        9204 |
|     484 | 0x513F      |       20799 |
|     485 | 0x5140      |       20800 |
|     486 | 0x2389      |        9097 |
|     487 | 0x5144      |       20804 |
|     488 | 0x5145      |       20805 |
|     489 | 0x2361      |        9057 |
|     490 | 0x5146      |       20806 |
|     491 | 0x5147      |       20807 |
|     492 | 0x2320      |        8992 |
|     493 | 0x5175      |       20853 |
|     494 | 0x5176      |       20854 |
|     495 | 0x5173      |       20851 |
|     496 | 0x5174      |       20852 |
|     497 | 0x2363      |        9059 |
|     498 | 0x552D      |       21805 |
|     499 | 0x552E      |       21806 |
|     500 | 0x23F9      |        9209 |
|     501 | 0x51A2      |       20898 |
|     502 | 0x51A3      |       20899 |
|     503 | 0x235B      |        9051 |
|     504 | 0x51CE      |       20942 |
|     505 | 0x51CF      |       20943 |
|     506 | 0x2360      |        9056 |
|     507 | 0x51F4      |       20980 |
|     508 | 0x51F5      |       20981 |
|     509 | 0x238F      |        9103 |
|     510 | 0x51FB      |       20987 |
|     511 | 0x51FC      |       20988 |
|     512 | 0x2318      |        8984 |
|     513 | 0x5225      |       21029 |
|     514 | 0x5226      |       21030 |
|     515 | 0x2388      |        9096 |
|     516 | 0x522A      |       21034 |
|     517 | 0x522B      |       21035 |
|     518 | 0x2344      |        9028 |
|     519 | 0x5253      |       21075 |
|     520 | 0x5254      |       21076 |
|     521 | 0x5262      |       21090 |
|     522 | 0x5263      |       21091 |
|     523 | 0x238A      |        9098 |
|     524 | 0x526B      |       21099 |
|     525 | 0x526C      |       21100 |
|     526 | 0x231B      |        8987 |
|     527 | 0x5629      |       22057 |
|     528 | 0x562A      |       22058 |
|     529 | 0x52A7      |       21159 |
|     530 | 0x52A8      |       21160 |
|     531 | 0x52AA      |       21162 |
|     532 | 0x52AB      |       21163 |
|     533 | 0x2322      |        8994 |
|     534 | 0x52AC      |       21164 |
|     535 | 0x52AD      |       21165 |
|     536 | 0x6721      |       26401 |
|     537 | 0x6722      |       26402 |
|     538 | 0x23BE      |        9150 |
|     539 | 0x6BF8      |       27640 |
|     540 | 0x6BF9      |       27641 |
|     541 | 0x6BF6      |       27638 |
|     542 | 0x6BF7      |       27639 |
|     543 | 0x6BF4      |       27636 |
|     544 | 0x6BF5      |       27637 |
|     545 | 0x52E3      |       21219 |
|     546 | 0x52E4      |       21220 |
|     547 | 0x52E6      |       21222 |
|     548 | 0x52E7      |       21223 |
|     549 | 0x2321      |        8993 |
|     550 | 0x5668      |       22120 |
|     551 | 0x5669      |       22121 |
|     552 | 0x53EB      |       21483 |
|     553 | 0x53EC      |       21484 |
|     554 | 0x56FA      |       22266 |
|     555 | 0x56FB      |       22267 |
|     556 | 0x23BF      |        9151 |
|     557 | 0x5365      |       21349 |
|     558 | 0x5366      |       21350 |
|     559 | 0x2315      |        8981 |
|     560 | 0x56EE      |       22254 |
|     561 | 0x56EF      |       22255 |
|     562 | 0x535F      |       21343 |
|     563 | 0x5360      |       21344 |
|     564 | 0x53A8      |       21416 |
|     565 | 0x53A9      |       21417 |
|     566 | 0x235E      |        9054 |
|     567 | 0x53AA      |       21418 |
|     568 | 0x53AB      |       21419 |
|     569 | 0x2345      |        9029 |
|     570 | 0x6423      |       25635 |
|     571 | 0x6424      |       25636 |
|     572 | 0x6401      |       25601 |
|     573 | 0x6402      |       25602 |
|     574 | 0x2387      |        9095 |
|     575 | 0x68A2      |       26786 |
|     576 | 0x68A3      |       26787 |
|     577 | 0x68A0      |       26784 |
|     578 | 0x68A1      |       26785 |
|     579 | 0x686B      |       26731 |
|     580 | 0x686C      |       26732 |
|     581 | 0x2346      |        9030 |
|     582 | 0x685A      |       26714 |
|     583 | 0x685B      |       26715 |
|     584 | 0x231F      |        8991 |
|     585 | 0x6855      |       26709 |
|     586 | 0x6856      |       26710 |
|     587 | 0x2313      |        8979 |
|     588 | 0x6484      |       25732 |
|     589 | 0x6485      |       25733 |
|     590 | 0x646D      |       25709 |
|     591 | 0x646E      |       25710 |
|     592 | 0x6450      |       25680 |
|     593 | 0x6451      |       25681 |
|     594 | 0x2390      |        9104 |
|     595 | 0x693E      |       26942 |
|     596 | 0x693F      |       26943 |
|     597 | 0x6910      |       26896 |
|     598 | 0x6911      |       26897 |
|     599 | 0x2356      |        9046 |
|     600 | 0x6907      |       26887 |
|     601 | 0x6908      |       26888 |
|     602 | 0x68F4      |       26868 |
|     603 | 0x68F5      |       26869 |
|     604 | 0x68F6      |       26870 |
|     605 | 0x68F7      |       26871 |
|     606 | 0x231E      |        8990 |
|     607 | 0x68F8      |       26872 |
|     608 | 0x68F9      |       26873 |
|     609 | 0x6A0E      |       27150 |
|     610 | 0x6A0F      |       27151 |
|     611 | 0x23F8      |        9208 |
|     612 | 0x6A0C      |       27148 |
|     613 | 0x6A0D      |       27149 |
|     614 | 0x69E2      |       27106 |
|     615 | 0x69E3      |       27107 |
|     616 | 0x2386      |        9094 |
|     617 | 0x69E4      |       27108 |
|     618 | 0x69E5      |       27109 |
|     619 | 0x69AA      |       27050 |
|     620 | 0x69AB      |       27051 |
|     621 | 0x6D59      |       27993 |
|     622 | 0x6D5A      |       27994 |
|     623 | 0x6D5B      |       27995 |
|     624 | 0x6D5C      |       27996 |
|     625 | 0x231C      |        8988 |
|     626 | 0x64FF      |       25855 |
|     627 | 0x6500      |       25856 |
|     628 | 0x6A5E      |       27230 |
|     629 | 0x6A5F      |       27231 |
|     630 | 0x6DE6      |       28134 |
|     631 | 0x6DE7      |       28135 |
|     632 | 0x2316      |        8982 |
|     633 | 0x6DE8      |       28136 |
|     634 | 0x6DE9      |       28137 |
|     635 | 0x2317      |        8983 |
|     636 | 0x6543      |       25923 |
|     637 | 0x6544      |       25924 |
|     638 | 0x6B11      |       27409 |
|     639 | 0x6B12      |       27410 |
|     640 | 0x2357      |        9047 |
|     641 | 0x6B0F      |       27407 |
|     642 | 0x6B10      |       27408 |
|     643 | 0x6E71      |       28273 |
|     644 | 0x6E72      |       28274 |
|     645 | 0x6E73      |       28275 |
|     646 | 0x6E74      |       28276 |
|     647 | 0x6BF1      |       27633 |
|     648 | 0x6BF2      |       27634 |
|     649 | 0x2311      |        8977 |
|     650 | 0x1388      |        5000 |
|     651 | 0x539A      |       21402 |
|     652 | 0x539B      |       21403 |
|     653 | 0x2312      |        8978 |
|     654 | 0x6EBE      |       28350 |
|     655 | 0x6EBF      |       28351 |
|     656 | 0x2314      |        8980 |
|     657 | 0x6E6F      |       28271 |
|     658 | 0x6E70      |       28272 |
|     659 | 0x230F      |        8975 |
|     660 | 0x6BCE      |       27598 |
|     661 | 0x6BCF      |       27599 |
|     662 | 0x2310      |        8976 |
|     663 | 0x2CEF      |       11503 |
|     664 | 0x6857      |       26711 |
|     665 | 0x230E      |        8974 |
|     666 | 0x35BF      |       13759 |
|     667 | 0x6CCB      |       27851 |
|     668 | 0x31C9      |       12745 |
|     669 | 0x6D5D      |       27997 |
|     670 | 0x3782      |       14210 |
|     671 | 0x6DEA      |       28138 |
|     672 | 0x2C95      |       11413 |
|     673 | 0x6E75      |       28277 |
|     674 | 0x2CF0      |       11504 |
|     675 | 0x6858      |       26712 |
|     676 | 0x35C0      |       13760 |
|     677 | 0x6CCC      |       27852 |
|     678 | 0x31CA      |       12746 |
|     679 | 0x6D5E      |       27998 |
|     680 | 0x37B1      |       14257 |
|     681 | 0x6DEB      |       28139 |
|     682 | 0x2C96      |       11414 |
|     683 | 0x6E76      |       28278 |
|     684 | 0x2CF1      |       11505 |
|     685 | 0x6859      |       26713 |
|     686 | 0x35D2      |       13778 |
|     687 | 0x6CCD      |       27853 |
|     688 | 0x31CB      |       12747 |
|     689 | 0x6D5F      |       27999 |
|     690 | 0x37B2      |       14258 |
|     691 | 0x6DEC      |       28140 |
|     692 | 0x2C97      |       11415 |
|     693 | 0x6E77      |       28279 |
|     694 | 0x65A5      |       26021 |
|     695 | 0x65A6      |       26022 |
|     696 | 0x6591      |       26001 |
|     697 | 0x6592      |       26002 |
|     698 | 0x6B7D      |       27517 |
|     699 | 0x6B7E      |       27518 |
|     700 | 0x6B74      |       27508 |
|     701 | 0x6B75      |       27509 |
|     702 | 0x2343      |        9027 |
|     703 | 0x6B70      |       27504 |
|     704 | 0x6B71      |       27505 |
|     705 | 0x6EC0      |       28352 |
|     706 | 0x6EC1      |       28353 |
|     707 | 0x231A      |        8986 |
|     708 | 0x6BE3      |       27619 |
|     709 | 0x6BE4      |       27620 |
|     710 | 0x6BD9      |       27609 |
|     711 | 0x6BDA      |       27610 |
|     712 | 0x6BD1      |       27601 |
|     713 | 0x6BD2      |       27602 |
|     714 | 0x6EFC      |       28412 |
|     715 | 0x6EFD      |       28413 |
|     716 | 0x6F07      |       28423 |
|     717 | 0x6F08      |       28424 |
|     718 | 0x6F0D      |       28429 |
|     719 | 0x6F0E      |       28430 |
|     720 | 0x6F0B      |       28427 |
|     721 | 0x6F0C      |       28428 |
|     722 | 0x6B9C      |       27548 |
|     723 | 0x6B9D      |       27549 |
|     724 | 0x6B96      |       27542 |
|     725 | 0x6B97      |       27543 |
|     726 | 0x6B8C      |       27532 |
|     727 | 0x6B8D      |       27533 |
|     728 | 0x6F41      |       28481 |
|     729 | 0x6F42      |       28482 |
|     730 | 0x6F44      |       28484 |
|     731 | 0x6F45      |       28485 |
|     732 | 0x6F46      |       28486 |
|     733 | 0x6F47      |       28487 |
|     734 | 0x6F4A      |       28490 |
|     735 | 0x6F4B      |       28491 |
|     736 | 0x2A12      |       10770 |
|     737 | 0x2A13      |       10771 |
|     738 | 0x2A10      |       10768 |
|     739 | 0x2A11      |       10769 |
|     740 | 0x6BA6      |       27558 |
|     741 | 0x6BA7      |       27559 |
|     742 | 0x6BA8      |       27560 |
|     743 | 0x6BA9      |       27561 |
|     744 | 0x6BAA      |       27562 |
|     745 | 0x6BAB      |       27563 |
|     746 | 0x0FF8      |        4088 |
|     747 | 0x03D3      |         979 |
|     748 | 0x0FF6      |        4086 |
|     749 | 0x03D1      |         977 |
|     750 | 0x0FF7      |        4087 |
|     751 | 0x03D2      |         978 |
|     752 | 0x2359      |        9049 |
|     753 | 0x3A98      |       15000 |
|     754 | 0x230D      |        8973 |
|     755 | 0x1055      |        4181 |
|     756 | 0x1056      |        4182 |
|     757 | 0x1764      |        5988 |
|     758 | 0x1765      |        5989 |
|     759 | 0x13FA      |        5114 |
|     760 | 0x13FB      |        5115 |
|     761 | 0x13FC      |        5116 |
|     762 | 0x13FD      |        5117 |
|     763 | 0x13FE      |        5118 |
|     764 | 0x13FF      |        5119 |
|     765 | 0x1739      |        5945 |
|     766 | 0x0E64      |        3684 |
|     767 | 0x0E67      |        3687 |
|     768 | 0x0E66      |        3686 |
|     769 | 0x0E65      |        3685 |
|     770 | 0x0E68      |        3688 |
|     771 | 0x0E6A      |        3690 |
|     772 | 0x6486      |       25734 |
|     773 | 0x6487      |       25735 |
|     774 | 0x6488      |       25736 |
|     775 | 0x6489      |       25737 |
|     776 | 0x648A      |       25738 |
|     777 | 0x648B      |       25739 |
|     778 | 0x648C      |       25740 |
|     779 | 0x648D      |       25741 |
|     780 | 0x648E      |       25742 |
|     781 | 0x648F      |       25743 |
|     782 | 0x6490      |       25744 |
|     783 | 0x01F4      |         500 |
|     784 | 0x3F0D      |       16141 |
|     785 | 0x3F0E      |       16142 |
|     786 | 0x3E89      |       16009 |
|     787 | 0x3F0F      |       16143 |
|     788 | 0x3F10      |       16144 |
|     789 | 0x3F11      |       16145 |
|     790 | 0x3F12      |       16146 |
|     791 | 0x3F13      |       16147 |
|     792 | 0x3F14      |       16148 |
|     793 | 0x3E8A      |       16010 |
|     794 | 0x3F15      |       16149 |
|     795 | 0x3F16      |       16150 |
|     796 | 0x3F18      |       16152 |
|     797 | 0x3E8B      |       16011 |
|     798 | 0x3F19      |       16153 |
|     799 | 0x3F1A      |       16154 |
|     800 | 0x3F17      |       16151 |
|     801 | 0x00C9      |         201 |
|     802 | 0x00D7      |         215 |
|     803 | 0x3E77      |       15991 |
|     804 | 0x3E78      |       15992 |

## String References

- **15990**: Join which Unity? [I need time to consider./Pieuje./Ayame./Invincible Shield./Apururu./Maat./Aldo./Jakoh Wahcondalo./Naja Salaheem./Flaviria./Yoran-Oran./Sylvie.]
- **15991**: Should you join one Unity, you will not be able to switch to another one until the rankings are tallied. Proceed anyway?
- **15992**: Join [Pieuje's/Ayame's/Invincible Shield's/Apururu's/Maat's/Aldo's/Jakoh Wahcondalo's/Naja Salaheem's/Flaviria's/Yoran-Oran's/Sylvie's] Unity? [Yes./No.]
- **15994**: Join [Pieuje's/Ayame's/Invincible Shield's/Apururu's/Maat's/Aldo's/Jakoh Wahcondalo's/Naja Salaheem's/Flaviria's/Yoran-Oran's/Sylvie's] Unity? ($2 acc.) [Yes. (Cost: $1 accolade[/s])/No.]
- **15996**: Any actions to take? [None at the moment./Bring me to a Wanted encounter area./Enhance my equipment.[/ (In progress)]/Add an attribute to enhanced equipment./Items, please. (Up to $17 acc.)/Special mats! (Up to $17 acc.)/I want to change Unities./Tell me more about all this.]
- **15997**: Which area? [Return to previous selection./Currently accepted area./Content level 99 and below./Content level 119./Content level 122./Content level 125./Content level 128./Content level 135./Content level 145./Content level 137.]
- **15998**: Go to which area? [Return to previous selection./$8./$8./$8./$8./$8./$8./$8./$8./Next page.]
- **15999**: Go to $8? ($2 acc.) [Yes. (Cost: $1 accolade[/s])/Not now.]
- **16000**: Hear an explanation on which topic? [Return to previous selection./Give me a quick outline./Unity Concord./Unities./Unity chat./Connection with Records of Eminence./Wanted battles./Enhancing equipment./Adding attributes to enhanced equipment./Rewards and accolades./Changing Unities./Unity rankings./Unity leader alter egos.]
- **16001**: Select a type of equipment. [Return to previous selection./Item level 119 weapons/shields./Item level 119 headgear./Item level 119 chestgear./Item level 119 handgear./Item level 119 leggear./Item level 119 footgear./Level 99 equipment./Level 98 and lower equipment./Accessories.]
- **16005**: Buy $1? [Yes, please. (Cost: $0 accolade[/s])/No, thank you.]
- **16006**: $3 $0$0 ? [Yes, please. (Cost: $0 accolade[/s])/No, thank you.]
- **16009**: Enhance the $1? ($2 acc.) [Yes, please. (Cost: $0 accolade[/s])/No, thank you.]
- **16012**: Unity Concord is a system promulgated and managed by the Adventurers' Mutual Aid Network.
- **16013**: Participating adventurers are able to receive a variety of benefits and rewards just by engaging in their everyday activities.
- **16014**: "Unity" is a catchall term that refers to the group that participants belong to.
- **16015**: Unity leaders are individuals who have strong ties to adventurers' activities and are sterling representatives of their home nations.
- **16016**: Members of the same Unity can converse with each other over great distances through the use of specialized figurines known as "$5."
- **16017**: Chat settings may be changed by selecting "Status" from the main menu, and choosing "Unity Info" under the "Unity" submenu.
- **16018**: You may not always be able to join the chat if too many players are participating at once.
- **16019**: Those belonging to a Unity are able to undertake special Records of Eminence objectives related to Unity Concord activities.
- **16020**: The three pertinent categories include shared objectives, Unity leader-specific objectives, and Wanted battle objectives.
- **16021**: Shared objectives may be taken regardless of which Unity you have joined. These tasks can be undertaken at any time, and change every day at midnight (JST).
- **16022**: Unity leader-specific objectives are tied to the Unity's eponymous leader and change each week.
- **16023**: "Wanted" objectives center around vanquishing particularly heinous foes that terrorize Vana'diel.
- **16024**: These objectives are of a higher caliber, and thus require currency known as "Unity accolades" to undertake.
- **16025**: Shared and leader-specific objectives provide more accolades than run-of-the-mill objectives.
- **16026**: Vana'diel has always been plagued by nefarious foes pillaging the landscape, but relatives of some of the more heinous ones have been spotted lately.
- **16027**: The A.M.A.N. has deemed it necessary to eliminate these Wanted targets, and has notified Unity members that they are of the utmost priority.
- **16028**: A list of these foes can be viewed at any time by selecting the appropriate subcategory under the objectives list.
- **16029**: Unity Concord representatives are able to provide participants with transportation to the areas where these threats can be found.
- **16030**: Though tackling the profane will likely require participation of your allies, the objective can be undertaken so long as at least one person has set the appropriate objective.
- **16031**: When you set the objective and commence the battle, the requisite number of Unity accolades will be deducted from your total.
- **16032**: Successful challengers will be rewarded with special rewards in addition to the normal sparks of eminence.
- **16033**: No Unity accolades will be charged should you commence the battle without having the appropriate objective set, but the rewards you can reap from your efforts will be limited.
- **16034**: You can snatch unparalleled equipment and materials from the slain corpses of Wanted targets.
- **16035**: An A.M.A.N. specialist versed in arcane harmonization has kindly offered to use these materials to bring out the latent potential in such pieces.
- **16036**: One of the Unity guides will be pleased to accept certain combinations of equipment and materials to begin the process for you.
- **16037**: A number of accolades is required for this service, but the precision and accuracy of her methods are without equal, and there is no worry of your equipment being destroyed.
- **16038**: You can use specified materials to add new attributes to equipment that has been upgraded.
- **16039**: Utilizing additional materials after adding an attribute can accumulate Reinforcement Points for the equipment and increase its rank.
- **16040**: Increasing your equipment's rank can boost its attributes, while some equipment can also have additional attributes added later.
- **16041**: Speak to the Unity guides after gathering the necessary materials for your equipment in order to add attributes to it or increase its rank.
- **16042**: The first time you add an attribute to a piece of equipment will require the use of Unity accolades.
- **16043**: It also requires that you first complete a specific Records of Eminence objective.
- **16044**: The work you request will be carried out on-site by a specially trained Unity guide.
- **16045**: Completing Records of Eminence objectives as part of a Unity will reward you with Unity accolades in addition to sparks of eminence.
- **16046**: These accolades not only serve as a symbol of prestige, but can also be exchanged for a variety of services.
- **16047**: Some of these services include purchasing items, securing battle zones for hunting Wanted targets, fees for strengthening equipment, and more.
- **16048**: Please note that you may only exchange a maximum of $0 accolades per week (Earth time).
- **16049**: You may switch Unities once during the Unity ranking tabulation period.
- **16050**: This is not a decision to be taken lightly, for switching Unities will cause you to forfeit any benefits you were receiving from your previous one.
- **16051**: This process requires a fair deal of paperwork, and the A.M.A.N. will charge you an accolade fee based on your rank.
- **16052**: However, your valorous deeds remain wherever you choose to go, and you will not lose any other accolades.
- **16053**: Rankings are decided through the combined efforts of each of the Unity's members.
- **16054**: The A.M.A.N. tabulates all the good deeds done during a period of time and confers benefits on a Unity for the following ranking period.
- **16055**: Some of these benefits include changes to Unity accolades gained and the effects of equipment earned from Wanted battles.
- **16056**: Yes, you read that correctly--the attributes of certain equipment will increase in line with your Unity's ranking.
- **16057**: On the other hand, members of a Unity that finds itself on the lower rungs will enjoy an increase in accolades and capacity points earned to help bring them up to par.
- **16058**: Additionally, an individual's evaluation is the sum of the accolades they have earned divided by $0. A Unity's ranking is the average of all eligible members' individual evaluations.
- **16059**: The A.M.A.N. does not look kindly on those who only seek to siphon rewards from others' hard work, and thus only confers these boons on those who have collected at least a certain number of accolades.
- **16060**: Unity leaders may also join you as alter egos for a limited period of time.
- **16061**: Those with evaluations of $0 or greater will be able to call forth an alter ego of their leader to assist them in battle.
- **16062**: Those eligible will be able to use the alter ego from the moment they acquire the appropriate ranking level until the tabulation after the next.
- **16063**: A leader's alter ego grows in power the higher their Unity is ranked.
- **16064**: Changing Unities will remove the player's ability to call forth their leader's alter ego at the moment they leave their current Unity, regardless of personal evaluation or remaining time.
- **16065**: A player will have to work hard in their new Unity and acquire a sufficient evaluation to regain the ability to call forth their new Unity's leader.
- **16066**: It goes without saying that players must first have acquired a Trust permit in order to avail themselves of this opportunity.
- **16067**: Those desiring to participate should seek out one of the initiative's representatives, dressed in green, in one of the three nations.
- **16072**: Should you choose to be teleported to this area, you will not have enough accolades to participate in the Wanted battle. Teleport anyway?
- **16073**: Teleport anyway? [Yes, please./No, thank you.]
- **16074**: Just looking at you gives me this wonderful tingling feeling...
- **16075**: Maybe it would be even more tingly if you completed at least $0 Records of Eminence objective[/s] for me.
- **16076**: My good friend Rolandienne can get you started!
- **16077**: If only a [dashing prince/dazzling maiden] could win my heart over by setting the "$1" Records of Eminence objective from the "Tutorial" category...
- **16113**: What do you want?
- **16114**: Fine. Go to $8. Just don't be surprised if I've found someone else by the time you're back.
- **16115**: And you don't even have enough accolades! Ugh, what did I expect...
- **16116**: Hey--don't forget that you can only exchange $0 more accolade[/s] this week!
- **16117**: Here's what your new piece of equipment'll look like.
- **16118**: If you want $0, I'll need $4, $2 $0$0 , and $3 Unity accolade[/s].
- **16119**: Don't expect it to be done right away. The artisan is busy and needs time to work.
- **16120**: But hang on--you've already got a request pending for $0. Can't you be more patient!?
- **16121**: I suppose this is what the new attribute will be like.
- **16122**: This is what your equipment will be like if you increase its rank to the maximum.
- **16123**: You'll need to bring me $1 along with your $0. And don't even think about forgetting my fee of $2 accolade[/s]!
- **16124**: I also cannot accept your request unless you complete the Records of Eminence objective "$4" beforehand.
- **16125**: To boost your item's rank, bring me $1 that features an attribute along with some $3. The more you bring, the higher its rank will rise.
- **16126**: I am responsible for adding attributes to items as well as increasing their rank...
- **16127**: H-hey, don't get the wrong idea! It's not like I learned how to do this just for you or anything!
- **16128**: Wow, are you sure you want to waste your accolades on $1? Hmph. That's your prerogative, but it'll cost you $0 accolade[/s].
- **16129**: And how many would you like? (1 to $0)
- **16130**: $2 $0$0 will run you $0 accolade[/s].
- **16131**: That's fine. I didn't want your stinking accolades anyway.
- **16132**: Does that mean...at least we...
- **16133**: ...Uh....never mind. Stop lollygagging and pick your Unity already!
- **16134**: Everything should be in the clear. Go enjoy your new Unity and leave me here to rot.
- **16135**: Sweet Goddess, would you make up your mind?
- **16136**: More questions? Okay, let me take out this backbreakingly heavy guide I've been lugging around for days.
- **16137**: First, you join a Unity of your choosing.
- **16138**: Then you earn accolades by completing Records of Eminence objectives.
- **16139**: Finally, you use those accolades to procure rewards.
- **16140**: Hopefully that was simple enough for you to wrap your pea-sized head around.
- **16141**: You want us to enhance your $1?
- **16142**: Our artisan requires a fee of $0 accolade[/s]. Are you willing to cough it up?
- **16143**: I'll make sure it gets safely to him. Try not to get killed in the meantime.
- **16144**: Have you come back to torment me!?
- **16145**: Your $1 isn't ready yet. Shoo! Shoo!
- **16146**: Yeah, yeah, your $1 is finally ready. I hope you choke on it.
- **16149**: Here you go. I don't want to hear any complaints out of you.
- **16150**: What's wrong with you? I don't have time for this nonsense!
- **16151**: You forgot already!? You need to complete the Records of Eminence objective "$7" first!
- **16153**: Okay, here you go. H-hey, I couldn't care less if this is for you or not!
- **16154**: What's the matter with you? You're the one who came to me!
- **16155**: @@

## Events

### Event 65535

#### Metadata

| Field        | Value   |
|--------------|---------|
| Entrypoint   | 0x0000  |
| Data Size    | 1 bytes |
| Instructions | 1       |

```
      00 01 02 03 04 05 06 07  08 09 0A 0B 0C 0D 0E 0F
      -- -- -- -- -- -- -- --  -- -- -- -- -- -- -- --
0000: 00                                                .               
```

#### Opcodes

```
  0: 0x0000 [0x00] END_REQSTACK()
```

### Event 3528

#### Metadata

| Field        | Value    |
|--------------|----------|
| Entrypoint   | 0x0001   |
| Data Size    | 33 bytes |
| Instructions | 15       |

```
      00 01 02 03 04 05 06 07  08 09 0A 0B 0C 0D 0E 0F
      -- -- -- -- -- -- -- --  -- -- -- -- -- -- -- --
0000:    1E F0 FF FF 7F 6F 70  1D 00 80 23 03 02 10 01   .....op...#....
0010: 80 1D 02 80 23 1E 56 61  0E 01 6F 70 1D 03 80 23  ....#.Va..op...#
0020: 21 00                                             !.              
```

#### Opcodes

```
  0: 0x0001 [0x1E] EventEntity looks at LocalPlayer and starts talking
  1: 0x0006 [0x6F] WAIT_FRAME_DELAY: Yield until WaitTime reaches zero
  2: 0x0007 [0x70] WAIT_ENTITY_RENDER_FLAG: Wait while EventEntity->Render.Flags3 bit 2 is set (cancel turn if not)
  3: 0x0008 [0x1D] PRINT_EVENT_MESSAGE(message_id=16074*)
    → "Just looking at you gives me this wonderful tingling feeling..."
  4: 0x000B [0x23] WAIT_FOR_DIALOG_INTERACTION
  5: 0x000C [0x03] Work_Zone[2] = 10*
  6: 0x0011 [0x1D] PRINT_EVENT_MESSAGE(message_id=16075*)
    → "Maybe it would be even more tingly if you completed at least $0 Records of Eminence objective[/s] for me."
  7: 0x0014 [0x23] WAIT_FOR_DIALOG_INTERACTION
  8: 0x0015 [0x1E] EventEntity looks at Rolandienne (ID: 17719638/0x010E6156) and starts talking
  9: 0x001A [0x6F] WAIT_FRAME_DELAY: Yield until WaitTime reaches zero
 10: 0x001B [0x70] WAIT_ENTITY_RENDER_FLAG: Wait while EventEntity->Render.Flags3 bit 2 is set (cancel turn if not)
 11: 0x001C [0x1D] PRINT_EVENT_MESSAGE(message_id=16076*)
    → "My good friend Rolandienne can get you started!"
 12: 0x001F [0x23] WAIT_FOR_DIALOG_INTERACTION
 13: 0x0020 [0x21] END_EVENT
 14: 0x0021 [0x00] END_REQSTACK()
```

### Event 3527

#### Metadata

| Field        | Value    |
|--------------|----------|
| Entrypoint   | 0x0022   |
| Data Size    | 22 bytes |
| Instructions | 10       |

```
      00 01 02 03 04 05 06 07  08 09 0A 0B 0C 0D 0E 0F
      -- -- -- -- -- -- -- --  -- -- -- -- -- -- -- --
0020:       1E F0 FF FF 7F 6F  70 1D 00 80 23 03 02 10    .....op...#...
0030: 01 80 1D 02 80 23 21 00                           .....#!.        
```

#### Opcodes

```
  0: 0x0022 [0x1E] EventEntity looks at LocalPlayer and starts talking
  1: 0x0027 [0x6F] WAIT_FRAME_DELAY: Yield until WaitTime reaches zero
  2: 0x0028 [0x70] WAIT_ENTITY_RENDER_FLAG: Wait while EventEntity->Render.Flags3 bit 2 is set (cancel turn if not)
  3: 0x0029 [0x1D] PRINT_EVENT_MESSAGE(message_id=16074*)
    → "Just looking at you gives me this wonderful tingling feeling..."
  4: 0x002C [0x23] WAIT_FOR_DIALOG_INTERACTION
  5: 0x002D [0x03] Work_Zone[2] = 10*
  6: 0x0032 [0x1D] PRINT_EVENT_MESSAGE(message_id=16075*)
    → "Maybe it would be even more tingly if you completed at least $0 Records of Eminence objective[/s] for me."
  7: 0x0035 [0x23] WAIT_FOR_DIALOG_INTERACTION
  8: 0x0036 [0x21] END_EVENT
  9: 0x0037 [0x00] END_REQSTACK()
```

### Event 3524

#### Metadata

| Field        | Value    |
|--------------|----------|
| Entrypoint   | 0x0038   |
| Data Size    | 29 bytes |
| Instructions | 11       |

```
      00 01 02 03 04 05 06 07  08 09 0A 0B 0C 0D 0E 0F
      -- -- -- -- -- -- -- --  -- -- -- -- -- -- -- --
0030:                          42 1E F0 FF FF 7F 6F 70          B.....op
0040: 03 02 10 8B 7F 0F 02 10  04 80 03 03 10 05 80 1D  ................
0050: 06 80 23 21 00                                    ..#!.           
```

#### Opcodes

```
  0: 0x0038 [0x42] SET_CLI_EVENT_CANCEL_DATA()
  1: 0x0039 [0x1E] EventEntity looks at LocalPlayer and starts talking
  2: 0x003E [0x6F] WAIT_FRAME_DELAY: Yield until WaitTime reaches zero
  3: 0x003F [0x70] WAIT_ENTITY_RENDER_FLAG: Wait while EventEntity->Render.Flags3 bit 2 is set (cancel turn if not)
  4: 0x0040 [0x03] Work_Zone[2] = (LocalPlayer->Render.Flags01 >> 25) & 1
  5: 0x0045 [0x0F] Work_Zone[2] ^= 1*
  6: 0x004A [0x03] Work_Zone[3] = 5*
  7: 0x004F [0x1D] PRINT_EVENT_MESSAGE(message_id=16077*)
    → "If only a [dashing prince/dazzling maiden] could win my heart over by setting the "$1" Records of Eminence objective from the "Tutorial" category..."
  8: 0x0052 [0x23] WAIT_FOR_DIALOG_INTERACTION
  9: 0x0053 [0x21] END_EVENT
 10: 0x0054 [0x00] END_REQSTACK()
```

### Event 3525

#### Metadata

| Field        | Value    |
|--------------|----------|
| Entrypoint   | 0x0055   |
| Data Size    | 28 bytes |
| Instructions | 10       |

```
      00 01 02 03 04 05 06 07  08 09 0A 0B 0C 0D 0E 0F
      -- -- -- -- -- -- -- --  -- -- -- -- -- -- -- --
0050:                1E F0 FF  FF 7F 6F 70 03 02 10 8B       .....op....
0060: 7F 0F 02 10 04 80 03 03  10 05 80 1D 06 80 23 21  ..............#!
0070: 00                                                .               
```

#### Opcodes

```
  0: 0x0055 [0x1E] EventEntity looks at LocalPlayer and starts talking
  1: 0x005A [0x6F] WAIT_FRAME_DELAY: Yield until WaitTime reaches zero
  2: 0x005B [0x70] WAIT_ENTITY_RENDER_FLAG: Wait while EventEntity->Render.Flags3 bit 2 is set (cancel turn if not)
  3: 0x005C [0x03] Work_Zone[2] = (LocalPlayer->Render.Flags01 >> 25) & 1
  4: 0x0061 [0x0F] Work_Zone[2] ^= 1*
  5: 0x0066 [0x03] Work_Zone[3] = 5*
  6: 0x006B [0x1D] PRINT_EVENT_MESSAGE(message_id=16077*)
    → "If only a [dashing prince/dazzling maiden] could win my heart over by setting the "$1" Records of Eminence objective from the "Tutorial" category..."
  7: 0x006E [0x23] WAIT_FOR_DIALOG_INTERACTION
  8: 0x006F [0x21] END_EVENT
  9: 0x0070 [0x00] END_REQSTACK()
```

### Event 3526

#### Metadata

| Field        | Value   |
|--------------|---------|
| Entrypoint   | 0x0071  |
| Data Size    | 1 bytes |
| Instructions | 1       |

```
      00 01 02 03 04 05 06 07  08 09 0A 0B 0C 0D 0E 0F
      -- -- -- -- -- -- -- --  -- -- -- -- -- -- -- --
0070:    00                                              .              
```

#### Opcodes

```
  0: 0x0071 [0x00] END_REQSTACK()
```

### Event 65535.1

#### Metadata

| Field        | Value    |
|--------------|----------|
| Entrypoint   | 0x0072   |
| Data Size    | 13 bytes |
| Instructions | 3        |

```
      00 01 02 03 04 05 06 07  08 09 0A 0B 0C 0D 0E 0F
      -- -- -- -- -- -- -- --  -- -- -- -- -- -- -- --
0070:       6B 69 64 6C 30 F8  FF FF 7F 1C 07 80 00       kidl0........ 
```

#### Opcodes

```
  0: 0x0072 [0x6B] STOP_AND_IDLE: EventEntity stops current action and resets to idle (animation="idl0")
  1: 0x007B [0x1C] WAIT(45* ticks)
  2: 0x007E [0x00] END_REQSTACK()
```

### Event 65535.2

#### Metadata

| Field        | Value    |
|--------------|----------|
| Entrypoint   | 0x007F   |
| Data Size    | 44 bytes |
| Instructions | 5        |

```
      00 01 02 03 04 05 06 07  08 09 0A 0B 0C 0D 0E 0F
      -- -- -- -- -- -- -- --  -- -- -- -- -- -- -- --
0070:                                               81                 .
0080: 00 F8 FF FF 7F 7B F8 FF  FF 7F 5F 05 08 80 F8 FF  .....{...._.....
0090: FF 7F F8 FF FF 7F 63 72  79 30 09 80 5F 07 F8 FF  ......cry0.._...
00A0: FF 7F F8 FF FF 7F 63 72  79 30 00                 ......cry0.     
```

#### Opcodes

```
  0: 0x007F [0x81] SET_ENTITY_BLINKING(blink_flag=0x00, entity=EventEntity)
  1: 0x0085 [0x7B] EventEntity stops talking
  2: 0x008A [0x5F] MULTI_HANDLER_COMPLEX(mode=0x05 - Load ext scheduler with flag (OpCode 0x5B mode 0, flag 1), ref=2898*, entity1=EventEntity, entity2=EventEntity, string="cry0", extra=440*)
  3: 0x009C [0x5F] MULTI_HANDLER_COMPLEX(mode=0x07 - Wait scheduler task (OpCode 0x53))
  4: 0x00AA [0x00] END_REQSTACK()
```

### Event 65535.3

#### Metadata

| Field        | Value    |
|--------------|----------|
| Entrypoint   | 0x00AB   |
| Data Size    | 33 bytes |
| Instructions | 3        |

```
      00 01 02 03 04 05 06 07  08 09 0A 0B 0C 0D 0E 0F
      -- -- -- -- -- -- -- --  -- -- -- -- -- -- -- --
00A0:                                   5F 05 0A 80 F8             _....
00B0: FF FF 7F F8 FF FF 7F 6D  69 74 30 0B 80 5F 07 F8  .......mit0.._..
00C0: FF FF 7F F8 FF FF 7F 6D  69 74 30 00              .......mit0.    
```

#### Opcodes

```
  0: 0x00AB [0x5F] MULTI_HANDLER_COMPLEX(mode=0x05 - Load ext scheduler with flag (OpCode 0x5B mode 0, flag 1), ref=2899*, entity1=EventEntity, entity2=EventEntity, string="mit0", extra=97*)
  1: 0x00BD [0x5F] MULTI_HANDLER_COMPLEX(mode=0x07 - Wait scheduler task (OpCode 0x53))
  2: 0x00CB [0x00] END_REQSTACK()
```

### Event 65535.4

#### Metadata

| Field        | Value    |
|--------------|----------|
| Entrypoint   | 0x00CC   |
| Data Size    | 29 bytes |
| Instructions | 3        |

```
      00 01 02 03 04 05 06 07  08 09 0A 0B 0C 0D 0E 0F
      -- -- -- -- -- -- -- --  -- -- -- -- -- -- -- --
00C0:                                      66 0C 80 F8              f...
00D0: FF FF 7F F8 FF FF 7F 74  6C 6B 30 53 F8 FF FF 7F  .......tlk0S....
00E0: F8 FF FF 7F 74 6C 6B 30  00                       ....tlk0.       
```

#### Opcodes

```
  0: 0x00CC [0x66] LOAD_EXT_SCHEDULER_MAIN: Load scheduler "tlk0" with entities [EventEntity, EventEntity], work=179*
  1: 0x00DB [0x53] WAIT_SCHEDULER_TASK: Wait for scheduler "tlk0" with entities [EventEntity, EventEntity]
  2: 0x00E8 [0x00] END_REQSTACK()
```

### Event 65535.5

#### Metadata

| Field        | Value    |
|--------------|----------|
| Entrypoint   | 0x00E9   |
| Data Size    | 29 bytes |
| Instructions | 3        |

```
      00 01 02 03 04 05 06 07  08 09 0A 0B 0C 0D 0E 0F
      -- -- -- -- -- -- -- --  -- -- -- -- -- -- -- --
00E0:                             66 0C 80 F8 FF FF 7F           f......
00F0: F8 FF FF 7F 74 6C 6B 31  53 F8 FF FF 7F F8 FF FF  ....tlk1S.......
0100: 7F 74 6C 6B 31 00                                 .tlk1.          
```

#### Opcodes

```
  0: 0x00E9 [0x66] LOAD_EXT_SCHEDULER_MAIN: Load scheduler "tlk1" with entities [EventEntity, EventEntity], work=179*
  1: 0x00F8 [0x53] WAIT_SCHEDULER_TASK: Wait for scheduler "tlk1" with entities [EventEntity, EventEntity]
  2: 0x0105 [0x00] END_REQSTACK()
```

### Event 65535.6

#### Metadata

| Field        | Value    |
|--------------|----------|
| Entrypoint   | 0x0106   |
| Data Size    | 29 bytes |
| Instructions | 3        |

```
      00 01 02 03 04 05 06 07  08 09 0A 0B 0C 0D 0E 0F
      -- -- -- -- -- -- -- --  -- -- -- -- -- -- -- --
0100:                   66 0D  80 F8 FF FF 7F F8 FF FF        f.........
0110: 7F 74 6C 6B 30 53 F8 FF  FF 7F F8 FF FF 7F 74 6C  .tlk0S........tl
0120: 6B 30 00                                          k0.             
```

#### Opcodes

```
  0: 0x0106 [0x66] LOAD_EXT_SCHEDULER_MAIN: Load scheduler "tlk0" with entities [EventEntity, EventEntity], work=39*
  1: 0x0115 [0x53] WAIT_SCHEDULER_TASK: Wait for scheduler "tlk0" with entities [EventEntity, EventEntity]
  2: 0x0122 [0x00] END_REQSTACK()
```

### Event 65535.7

#### Metadata

| Field        | Value    |
|--------------|----------|
| Entrypoint   | 0x0123   |
| Data Size    | 29 bytes |
| Instructions | 3        |

```
      00 01 02 03 04 05 06 07  08 09 0A 0B 0C 0D 0E 0F
      -- -- -- -- -- -- -- --  -- -- -- -- -- -- -- --
0120:          66 0D 80 F8 FF  FF 7F F8 FF FF 7F 74 6C     f..........tl
0130: 6B 31 53 F8 FF FF 7F F8  FF FF 7F 74 6C 6B 31 00  k1S........tlk1.
```

#### Opcodes

```
  0: 0x0123 [0x66] LOAD_EXT_SCHEDULER_MAIN: Load scheduler "tlk1" with entities [EventEntity, EventEntity], work=39*
  1: 0x0132 [0x53] WAIT_SCHEDULER_TASK: Wait for scheduler "tlk1" with entities [EventEntity, EventEntity]
  2: 0x013F [0x00] END_REQSTACK()
```

### Event 65535.8

#### Metadata

| Field        | Value    |
|--------------|----------|
| Entrypoint   | 0x0140   |
| Data Size    | 14 bytes |
| Instructions | 4        |

```
      00 01 02 03 04 05 06 07  08 09 0A 0B 0C 0D 0E 0F
      -- -- -- -- -- -- -- --  -- -- -- -- -- -- -- --
0140: 32 0E 80 1F 00 0F 80 10  80 11 80 1F 01 00        2.............  
```

#### Opcodes

```
  0: 0x0140 [0x32] ExtData[1]->MainSpeed = 13* * 0.1
  1: 0x0143 [0x1F] MOVE_ENTITY: EventEntity moves to X=-88.718*, Z=-53.023*, Y=0.999*
  2: 0x014B [0x1F] MOVE_ENTITY: Update entity position (mode=1)
  3: 0x014D [0x00] END_REQSTACK()
```

### Event 3529

#### Metadata

| Field        | Value       |
|--------------|-------------|
| Entrypoint   | 0x014E      |
| Data Size    | 17292 bytes |
| Instructions | 1317        |

```
      00 01 02 03 04 05 06 07  08 09 0A 0B 0C 0D 0E 0F
      -- -- -- -- -- -- -- --  -- -- -- -- -- -- -- --
0140:                                            03 00                ..
0150: 00 03 10 03 01 00 04 10  03 08 00 05 10 03 09 00  ................
0160: 06 10 03 0C 00 07 10 03  0A 00 09 10 03 0B 00 08  ................
0170: 10 06 01 10 40 12 80 13  80 01 10 01 80 43 00 43  ....@........C.C
0180: 01 03 1C 00 02 10 03 1D  00 03 10 03 1E 00 04 10  ................
0190: 03 09 17 05 10 1E F0 FF  FF 7F 1D 14 80 23 06 02  .............#..
01A0: 00 06 05 00 03 15 00 1C  00 0E 15 00 1D 00 0E 15  ................
01B0: 00 1E 00 02 15 00 12 80  01 BE 01 01 C5 01 3C 05  ..............<.
01C0: 00 05 80 04 80 02 08 00  12 80 00 D3 01 06 08 10  ................
01D0: 01 D6 01 05 08 10 24 15  80 02 00 05 00 25 02 00  ......$......%..
01E0: 10 12 80 00 EE 01 03 01  10 12 80 01 1A 23 02 00  .............#..
01F0: 10 04 80 00 39 09 40 12  80 13 80 01 10 16 80 43  ....9.@........C
0200: 00 43 01 03 1F 00 02 10  03 20 00 03 10 03 21 00  .C....... ....!.
0210: 04 10 03 02 00 00 10 06  03 00 06 22 00 06 23 00  ..........."..#.
0220: 02 23 00 17 80 03 9F 02  03 19 00 23 00 14 19 00  .#.........#....
0230: 18 80 1A EC 26 02 00 17  04 80 00 99 02 02 23 00  ....&.........#.
0240: 19 80 03 56 02 3E 1F 00  23 00 53 02 3D 1F 00 23  ...V.>..#.S.=..#
0250: 00 04 80 01 99 02 02 23  00 1A 80 03 79 02 03 15  .......#....y...
0260: 00 23 00 08 15 00 19 80  3E 20 00 15 00 76 02 3D  .#......> ...v.=
0270: 20 00 15 00 04 80 01 99  02 02 23 00 1B 80 03 99   .........#.....
0280: 02 03 15 00 23 00 08 15  00 1A 80 3E 21 00 15 00  ....#......>!...
0290: 99 02 3D 21 00 15 00 04  80 0B 23 00 01 20 02 03  ..=!......#.. ..
02A0: 05 00 1C 80 03 15 00 1F  00 0E 15 00 20 00 0E 15  ............ ...
02B0: 00 21 00 02 15 00 12 80  01 C2 02 3D 05 00 04 80  .!.........=....
02C0: 04 80 3E 0B 00 16 80 D0  02 3D 05 00 18 80 04 80  ..>......=......
02D0: 24 1D 80 03 00 05 00 25  02 00 10 12 80 00 E6 02  $......%........
02E0: 01 A1 01 01 E6 02 03 03  00 00 10 06 04 00 06 06  ................
02F0: 00 06 24 00 06 25 00 02  03 00 04 80 00 0C 03 03  ..$..%..........
0300: 07 00 17 80 03 25 00 17  80 01 D0 03 03 18 00 04  .....%..........
0310: 80 02 18 00 03 00 03 D0  03 02 18 00 04 80 80 2E  ................
0320: 03 03 07 00 1E 80 07 25  00 1E 80 01 CA 03 02 18  .......%........
0330: 00 1F 80 80 48 03 03 07  00 16 80 07 25 00 16 80  ....H.......%...
0340: 07 24 00 1E 80 01 CA 03  02 18 00 20 80 80 62 03  .$......... ..b.
0350: 03 07 00 21 80 07 25 00  21 80 07 24 00 16 80 01  ...!..%.!..$....
0360: CA 03 02 18 00 13 80 80  7C 03 03 07 00 22 80 07  ........|...."..
0370: 25 00 22 80 07 24 00 21  80 01 CA 03 02 18 00 05  %."..$.!........
0380: 80 80 96 03 03 07 00 01  80 07 25 00 01 80 07 24  ..........%....$
0390: 00 22 80 01 CA 03 02 18  00 1E 80 80 B0 03 03 07  ."..............
03A0: 00 1E 80 07 25 00 1E 80  07 24 00 01 80 01 CA 03  ....%....$......
03B0: 02 18 00 16 80 80 CA 03  03 07 00 04 80 07 25 00  ..............%.
03C0: 04 80 07 24 00 1E 80 01  CA 03 0B 18 00 01 11 03  ...$............
03D0: 14 25 00 18 80 06 26 00  06 27 00 06 28 00 06 29  .%....&..'..(..)
03E0: 00 06 2A 00 06 2B 00 06  2C 00 06 2D 00 06 2E 00  ..*..+..,..-....
03F0: 06 2F 00 06 30 00 06 31  00 06 32 00 06 33 00 06  ./..0..1..2..3..
0400: 34 00 06 35 00 06 36 00  06 37 00 06 38 00 06 39  4..5..6..7..8..9
0410: 00 06 3A 00 06 3B 00 06  3C 00 06 3D 00 06 3E 00  ..:..;..<..=..>.
0420: 06 3F 00 06 40 00 06 41  00 06 42 00 06 43 00 06  .?..@..A..B..C..
0430: 44 00 06 45 00 06 46 00  06 47 00 06 18 00 03 19  D..E..F..G......
0440: 00 24 00 14 19 00 18 80  07 19 00 05 80 03 1A 00  .$..............
0450: 19 00 08 1A 00 13 80 02  18 00 07 00 03 CA 05 9D  ................
0460: 0A BA 29 02 10 19 00 25  00 02 02 10 12 80 80 A6  ..)....%........
0470: 04 03 15 00 19 00 07 15  00 1F 80 9D 0A BA 29 03  ..............).
0480: 10 15 00 25 00 02 03 10  12 80 02 A0 04 3E 0B 00  ...%.........>..
0490: 03 10 9A 04 1A 49 28 01  9D 04 1A 1C 23 01 A3 04  .....I(.....#...
04A0: 1A 49 28 01 BA 05 02 02  10 04 80 80 F0 04 3E 0A  .I(...........>.
04B0: 00 04 80 EA 04 03 15 00  19 00 07 15 00 1F 80 9D  ................
04C0: 0A BA 29 03 10 15 00 25  00 02 03 10 12 80 02 E4  ..)....%........
04D0: 04 3E 0B 00 03 10 DE 04  1A 49 28 01 E1 04 1A 1C  .>.......I(.....
04E0: 23 01 E7 04 1A 49 28 01  ED 04 1A 1C 23 01 BA 05  #....I(.....#...
04F0: 02 02 10 1F 80 80 3A 05  3E 0A 00 1F 80 34 05 03  ......:.>....4..
0500: 15 00 19 00 07 15 00 1F  80 9D 0A BA 29 03 10 15  ............)...
0510: 00 25 00 02 03 10 12 80  02 2E 05 3E 0B 00 03 10  .%.........>....
0520: 28 05 1A 49 28 01 2B 05  1A 1C 23 01 31 05 1A 49  (..I(.+...#.1..I
0530: 28 01 37 05 1A 1C 23 01  BA 05 02 02 10 20 80 80  (.7...#...... ..
0540: 84 05 3E 0A 00 20 80 7E  05 03 15 00 19 00 07 15  ..>.. .~........
0550: 00 1F 80 9D 0A BA 29 03  10 15 00 25 00 02 03 10  ......)....%....
0560: 12 80 02 78 05 3E 0B 00  03 10 72 05 1A 49 28 01  ...x.>....r..I(.
0570: 75 05 1A 1C 23 01 7B 05  1A 49 28 01 81 05 1A 1C  u...#.{..I(.....
0580: 23 01 BA 05 02 02 10 13  80 80 9F 05 3E 0A 00 13  #...........>...
0590: 80 99 05 1A 49 28 01 9C  05 1A 1C 23 01 BA 05 02  ....I(.....#....
05A0: 02 10 23 80 80 BA 05 3E  0A 00 23 80 B4 05 1A 49  ..#....>..#....I
05B0: 28 01 B7 05 1A 1C 23 01  BA 05 07 19 00 18 80 07  (.....#.........
05C0: 1A 00 18 80 0B 18 00 01  57 04 08 07 00 46 00 03  ........W....F..
05D0: 15 00 07 00 3F 15 00 15  00 18 80 15 07 00 18 80  ....?...........
05E0: 02 15 00 12 80 00 F3 05  02 07 00 12 80 02 F3 05  ................
05F0: 0C 07 00 06 05 00 02 06  00 07 00 00 05 06 3C 05  ..............<.
0600: 00 21 80 04 80 03 15 00  06 00 14 15 00 18 80 1A  .!..............
0610: EA 24 07 15 00 24 00 14  15 00 18 80 06 19 00 07  .$...$..........
0620: 19 00 15 00 06 02 10 06  03 10 06 04 10 06 05 10  ................
0630: 06 06 10 06 07 10 06 08  10 06 09 10 06 48 00 06  .............H..
0640: 49 00 06 4A 00 06 4B 00  06 4C 00 06 4D 00 06 4E  I..J..K..L..M..N
0650: 00 06 4F 00 06 22 00 1A  EC 26 02 00 17 04 80 00  ..O.."...&......
0660: 6A 06 07 19 00 18 80 01  57 06 03 48 00 19 00 02  j.......W..H....
0670: 19 00 25 00 04 81 06 3C  05 00 04 80 04 80 01 8B  ..%....<........
0680: 06 9D 0A BA 29 02 10 19  00 25 00 07 19 00 18 80  ....)....%......
0690: 1A EC 26 02 00 17 04 80  00 A3 06 07 19 00 18 80  ..&.............
06A0: 01 90 06 03 49 00 19 00  02 19 00 25 00 04 BA 06  ....I......%....
06B0: 3C 05 00 1F 80 04 80 01  C4 06 9D 0A BA 29 03 10  <............)..
06C0: 19 00 25 00 07 19 00 18  80 1A EC 26 02 00 17 04  ..%........&....
06D0: 80 00 DC 06 07 19 00 18  80 01 C9 06 03 4A 00 19  .............J..
06E0: 00 02 19 00 25 00 04 F3  06 3C 05 00 20 80 04 80  ....%....<.. ...
06F0: 01 FD 06 9D 0A BA 29 04  10 19 00 25 00 07 19 00  ......)....%....
0700: 18 80 1A EC 26 02 00 17  04 80 00 15 07 07 19 00  ....&...........
0710: 18 80 01 02 07 03 4B 00  19 00 02 19 00 25 00 04  ......K......%..
0720: 2C 07 3C 05 00 13 80 04  80 01 36 07 9D 0A BA 29  ,.<.......6....)
0730: 05 10 19 00 25 00 07 19  00 18 80 1A EC 26 02 00  ....%........&..
0740: 17 04 80 00 4E 07 07 19  00 18 80 01 3B 07 03 4C  ....N.......;..L
0750: 00 19 00 02 19 00 25 00  04 65 07 3C 05 00 05 80  ......%..e.<....
0760: 04 80 01 6F 07 9D 0A BA  29 06 10 19 00 25 00 07  ...o....)....%..
0770: 19 00 18 80 1A EC 26 02  00 17 04 80 00 87 07 07  ......&.........
0780: 19 00 18 80 01 74 07 03  4D 00 19 00 02 19 00 25  .....t..M......%
0790: 00 04 9E 07 3C 05 00 1E  80 04 80 01 A8 07 9D 0A  ....<...........
07A0: BA 29 07 10 19 00 25 00  07 19 00 18 80 1A EC 26  .)....%........&
07B0: 02 00 17 04 80 00 C0 07  07 19 00 18 80 01 AD 07  ................
07C0: 03 4E 00 19 00 02 19 00  25 00 04 D7 07 3C 05 00  .N......%....<..
07D0: 16 80 04 80 01 E1 07 9D  0A BA 29 08 10 19 00 25  ..........)....%
07E0: 00 07 19 00 18 80 1A EC  26 02 00 17 04 80 00 F9  ........&.......
07F0: 07 07 19 00 18 80 01 E6  07 03 4F 00 19 00 02 19  ..........O.....
0800: 00 25 00 04 10 08 3C 05  00 18 80 04 80 01 1A 08  .%....<.........
0810: 9D 0A BA 29 09 10 19 00  25 00 24 24 80 04 00 05  ...)....%.$$....
0820: 00 25 02 00 10 12 80 00  44 08 06 04 00 02 06 00  .%......D.......
0830: 12 80 00 3B 08 01 9F 02  01 41 08 0C 06 00 01 F3  ...;.....A......
0840: 05 01 D1 08 02 00 10 21  80 00 58 08 06 04 00 0B  .......!..X.....
0850: 06 00 01 F3 05 01 D1 08  03 04 00 00 10 03 15 00  ................
0860: 00 10 0C 15 00 9D 0A EB  28 19 00 15 00 18 80 9D  ........(.......
0870: 0A BA 29 02 10 19 00 25  00 03 15 00 19 00 07 15  ..)....%........
0880: 00 1E 80 9D 0A BA 29 14  00 15 00 25 00 1D 25 80  ......)....%..%.
0890: 23 03 03 10 26 80 03 04  10 01 00 24 27 80 12 80  #...&......$'...
08A0: 12 80 25 02 00 10 12 80  00 C3 08 02 04 10 03 10  ..%.............
08B0: 03 BD 08 1D 28 80 23 01  F3 05 01 C0 08 01 D1 08  ....(.#.........
08C0: 01 D1 08 02 00 10 04 80  00 D1 08 01 F3 05 01 D1  ................
08D0: 08 02 03 00 04 80 01 0F  09 03 15 00 01 00 08 15  ................
08E0: 00 26 80 02 15 00 14 00  03 0F 09 48 29 80 24 2A  .&.........H).$*
08F0: 80 12 80 12 80 25 02 00  10 12 80 00 01 09 01 0F  .....%..........
0900: 09 02 00 10 04 80 00 0F  09 01 F3 05 01 0F 09 73  ...............s
0910: 2B 80 F8 FF FF 7F F0 FF  FF 7F 1C 2C 80 30 40 12  +..........,.0@.
0920: 80 13 80 01 10 04 80 15  19 00 18 80 40 05 80 2D  ............@..-
0930: 80 01 10 19 00 21 01 1A  23 02 00 10 1F 80 00 61  .....!..#......a
0940: 0C 03 02 00 00 10 06 03  00 06 11 00 06 05 00 06  ................
0950: 19 00 06 1B 00 03 05 00  2E 80 02 2F 80 12 80 02  .........../....
0960: 69 09 3D 05 00 04 80 04  80 02 16 80 12 80 02 78  i.=............x
0970: 09 3D 05 00 1F 80 04 80  02 21 80 12 80 02 87 09  .=.......!......
0980: 3D 05 00 20 80 04 80 02  16 80 12 80 02 96 09 3D  =.. ...........=
0990: 05 00 13 80 04 80 02 13  80 12 80 02 A5 09 3D 05  ..............=.
09A0: 00 05 80 04 80 02 05 80  12 80 02 B4 09 3D 05 00  .............=..
09B0: 1E 80 04 80 02 20 80 12  80 02 C3 09 3D 05 00 16  ..... ......=...
09C0: 80 04 80 02 22 80 12 80  02 D2 09 3D 05 00 18 80  ...."......=....
09D0: 04 80 02 30 80 12 80 02  E1 09 3D 05 00 21 80 04  ...0......=..!..
09E0: 80 24 31 80 03 00 05 00  25 02 00 10 12 80 00 F7  .$1.....%.......
09F0: 09 01 A1 01 01 FF 09 03  03 00 00 10 1A FB 28 06  ..............(.
0A00: 04 00 06 06 00 06 05 00  02 06 00 07 00 00 17 0A  ................
0A10: 3C 05 00 21 80 04 80 03  19 00 1B 00 14 19 00 18  <..!............
0A20: 80 03 15 00 06 00 14 15  00 18 80 14 15 00 18 80  ................
0A30: 07 19 00 15 00 06 02 10  06 03 10 06 04 10 06 05  ................
0A40: 10 06 06 10 06 07 10 06  08 10 06 09 10 9D 0A BA  ................
0A50: 30 02 10 19 00 25 00 07  19 00 18 80 02 19 00 25  0....%.........%
0A60: 00 04 6E 0A 3C 05 00 1F  80 04 80 01 78 0A 9D 0A  ..n.<.......x...
0A70: BA 30 03 10 19 00 25 00  07 19 00 18 80 02 19 00  .0....%.........
0A80: 25 00 04 8F 0A 3C 05 00  20 80 04 80 01 99 0A 9D  %....<.. .......
0A90: 0A BA 30 04 10 19 00 25  00 07 19 00 18 80 02 19  ..0....%........
0AA0: 00 25 00 04 B0 0A 3C 05  00 13 80 04 80 01 BA 0A  .%....<.........
0AB0: 9D 0A BA 30 05 10 19 00  25 00 07 19 00 18 80 02  ...0....%.......
0AC0: 19 00 25 00 04 D1 0A 3C  05 00 05 80 04 80 01 DB  ..%....<........
0AD0: 0A 9D 0A BA 30 06 10 19  00 25 00 07 19 00 18 80  ....0....%......
0AE0: 02 19 00 25 00 04 F2 0A  3C 05 00 1E 80 04 80 01  ...%....<.......
0AF0: FC 0A 9D 0A BA 30 07 10  19 00 25 00 07 19 00 18  .....0....%.....
0B00: 80 02 19 00 25 00 04 13  0B 3C 05 00 16 80 04 80  ....%....<......
0B10: 01 1D 0B 9D 0A BA 30 08  10 19 00 25 00 07 19 00  ......0....%....
0B20: 18 80 02 19 00 25 00 04  34 0B 3C 05 00 18 80 04  .....%..4.<.....
0B30: 80 01 3E 0B 9D 0A BA 30  09 10 19 00 25 00 D4 03  ..>....0....%...
0B40: 04 80 02 10 D4 03 1F 80  03 10 D4 03 20 80 04 10  ............ ...
0B50: D4 03 13 80 05 10 D4 03  05 80 06 10 D4 03 1E 80  ................
0B60: 07 10 D4 03 16 80 08 10  D4 03 18 80 09 10 D4 02  ................
0B70: 32 80 04 00 05 00 25 02  00 10 12 80 00 99 0B 06  2.....%.........
0B80: 04 00 02 06 00 12 80 00  90 0B 01 4C 09 01 96 0B  ...........L....
0B90: 0C 06 00 01 05 0A 01 5E  0C 02 00 10 21 80 00 AD  .......^....!...
0BA0: 0B 06 04 00 0B 06 00 01  05 0A 01 5E 0C 03 04 00  ...........^....
0BB0: 00 10 03 19 00 1B 00 14  19 00 18 80 03 15 00 06  ................
0BC0: 00 14 15 00 18 80 14 15  00 18 80 07 19 00 15 00  ................
0BD0: 03 15 00 00 10 0C 15 00  14 15 00 18 80 07 19 00  ................
0BE0: 15 00 9D 0A BA 30 06 10  19 00 25 00 0B 19 00 9D  .....0....%.....
0BF0: 0A BA 30 02 10 19 00 25  00 0B 19 00 9D 0A BA 30  ..0....%.......0
0C00: 03 10 19 00 25 00 0B 19  00 9D 0A BA 30 04 10 19  ....%.......0...
0C10: 00 25 00 0B 19 00 9D 0A  BA 30 05 10 19 00 25 00  .%.......0....%.
0C20: 02 11 00 12 80 00 51 0C  05 11 00 93 02 10 1D 33  ......Q........3
0C30: 80 23 93 12 80 1D 34 80  23 1D 35 80 23 03 02 10  .#....4.#.5.#...
0C40: 08 00 02 02 10 12 80 01  4E 0C 1D 36 80 23 01 5B  ........N..6.#.[
0C50: 0C 93 02 10 1D 34 80 23  93 12 80 01 05 0A 01 1A  .....4.#........
0C60: 23 02 00 10 20 80 00 E9  0F 03 02 00 00 10 06 03  #... ...........
0C70: 00 06 11 00 06 05 00 06  19 00 06 1B 00 03 05 00  ................
0C80: 2E 80 02 2F 80 12 80 02  91 0C 3D 05 00 04 80 04  .../......=.....
0C90: 80 02 16 80 12 80 02 A0  0C 3D 05 00 1F 80 04 80  .........=......
0CA0: 02 21 80 12 80 02 AF 0C  3D 05 00 20 80 04 80 02  .!......=.. ....
0CB0: 16 80 12 80 02 BE 0C 3D  05 00 13 80 04 80 02 13  .......=........
0CC0: 80 12 80 02 CD 0C 3D 05  00 05 80 04 80 02 05 80  ......=.........
0CD0: 12 80 02 DC 0C 3D 05 00  1E 80 04 80 02 12 80 12  .....=..........
0CE0: 80 02 EB 0C 3D 05 00 16  80 04 80 02 12 80 12 80  ....=...........
0CF0: 02 FA 0C 3D 05 00 18 80  04 80 02 30 80 12 80 02  ...=.......0....
0D00: 09 0D 3D 05 00 21 80 04  80 24 31 80 03 00 05 00  ..=..!...$1.....
0D10: 25 02 00 10 12 80 00 1F  0D 01 A1 01 01 27 0D 03  %............'..
0D20: 03 00 00 10 1A FB 28 06  04 00 06 06 00 06 05 00  ......(.........
0D30: 02 06 00 07 00 00 3F 0D  3C 05 00 21 80 04 80 03  ......?.<..!....
0D40: 19 00 1B 00 14 19 00 18  80 03 15 00 06 00 14 15  ................
0D50: 00 18 80 14 15 00 18 80  07 19 00 15 00 06 02 10  ................
0D60: 06 03 10 06 04 10 06 05  10 06 06 10 06 07 10 06  ................
0D70: 08 10 06 09 10 9D 0A BA  38 02 10 19 00 25 00 07  ........8....%..
0D80: 19 00 18 80 02 19 00 25  00 04 96 0D 3C 05 00 1F  .......%....<...
0D90: 80 04 80 01 A0 0D 9D 0A  BA 38 03 10 19 00 25 00  .........8....%.
0DA0: 07 19 00 18 80 02 19 00  25 00 04 B7 0D 3C 05 00  ........%....<..
0DB0: 20 80 04 80 01 C1 0D 9D  0A BA 38 04 10 19 00 25   .........8....%
0DC0: 00 07 19 00 18 80 02 19  00 25 00 04 D8 0D 3C 05  .........%....<.
0DD0: 00 13 80 04 80 01 E2 0D  9D 0A BA 38 05 10 19 00  ...........8....
0DE0: 25 00 07 19 00 18 80 02  19 00 25 00 04 F9 0D 3C  %.........%....<
0DF0: 05 00 05 80 04 80 01 03  0E 9D 0A BA 38 06 10 19  ............8...
0E00: 00 25 00 07 19 00 18 80  02 19 00 25 00 04 1A 0E  .%.........%....
0E10: 3C 05 00 1E 80 04 80 01  24 0E 9D 0A BA 38 07 10  <.......$....8..
0E20: 19 00 25 00 07 19 00 18  80 02 19 00 25 00 04 3B  ..%.........%..;
0E30: 0E 3C 05 00 16 80 04 80  01 45 0E 9D 0A BA 38 08  .<.......E....8.
0E40: 10 19 00 25 00 07 19 00  18 80 02 19 00 25 00 04  ...%.........%..
0E50: 5C 0E 3C 05 00 18 80 04  80 01 66 0E 9D 0A BA 38  \.<.......f....8
0E60: 09 10 19 00 25 00 D4 03  04 80 02 10 D4 03 1F 80  ....%...........
0E70: 03 10 D4 03 20 80 04 10  D4 03 13 80 05 10 D4 03  .... ...........
0E80: 05 80 06 10 D4 03 1E 80  07 10 D4 03 16 80 08 10  ................
0E90: D4 03 18 80 09 10 D4 02  32 80 04 00 05 00 25 02  ........2.....%.
0EA0: 00 10 12 80 00 C1 0E 06  04 00 02 06 00 12 80 00  ................
0EB0: B8 0E 01 74 0C 01 BE 0E  0C 06 00 01 2D 0D 01 E6  ...t........-...
0EC0: 0F 02 00 10 21 80 00 D5  0E 06 04 00 0B 06 00 01  ....!...........
0ED0: 2D 0D 01 E6 0F 03 04 00  00 10 03 19 00 1B 00 03  -...............
0EE0: 15 00 06 00 14 15 00 18  80 07 19 00 15 00 03 15  ................
0EF0: 00 00 10 0C 15 00 07 19  00 15 00 40 12 80 13 80  ...........@....
0F00: 01 10 23 80 40 05 80 2D  80 01 10 19 00 43 00 43  ..#.@..-.....C.C
0F10: 01 02 02 10 12 80 03 24  0F 40 12 80 13 80 01 10  .......$.@......
0F20: 12 80 21 00 03 02 17 02  10 03 03 17 03 10 03 04  ..!.............
0F30: 17 04 10 03 05 17 06 10  03 06 17 07 10 03 07 17  ................
0F40: 08 10 14 19 00 18 80 9D  0A BA 38 02 10 19 00 25  ..........8....%
0F50: 00 0B 19 00 9D 0A BA 38  03 10 19 00 25 00 03 04  .......8....%...
0F60: 10 37 80 0B 19 00 9D 0A  BA 38 05 10 19 00 25 00  .7.......8....%.
0F70: 07 19 00 13 80 9D 0A BA  38 06 10 19 00 25 00 02  ........8....%..
0F80: 11 00 12 80 00 C0 0F 05  11 00 CC 03 02 10 02 17  ................
0F90: 03 17 04 17 1D 38 80 23  CC 03 02 10 05 17 06 17  .....8.#........
0FA0: 07 17 1D 39 80 23 93 12  80 1D 3A 80 23 1D 3B 80  ...9.#....:.#.;.
0FB0: 23 1D 3C 80 23 1D 3D 80  23 1D 3E 80 23 01 E3 0F  #.<.#.=.#.>.#...
0FC0: CC 03 02 10 02 17 03 17  04 17 1D 3A 80 23 1D 3B  ...........:.#.;
0FD0: 80 23 CC 03 02 10 05 17  06 17 07 17 1D 3C 80 23  .#...........<.#
0FE0: 93 12 80 01 2D 0D 01 1A  23 02 00 10 13 80 00 50  ....-...#......P
0FF0: 1A 03 02 00 00 10 06 03  00 06 06 00 03 07 00 3F  ...............?
1000: 80 03 25 00 07 00 14 25  00 18 80 06 26 00 06 27  ..%....%....&..'
1010: 00 06 28 00 06 29 00 06  2A 00 06 2B 00 06 2C 00  ..(..)..*..+..,.
1020: 06 2D 00 06 2E 00 06 2F  00 06 30 00 06 31 00 06  .-...../..0..1..
1030: 32 00 06 46 00 06 47 00  06 18 00 03 19 00 1F 80  2..F..G.........
1040: 02 18 00 3F 80 03 C6 10  9D 0A 7A 3F 15 00 19 00  ...?......z?....
1050: 25 00 02 15 00 2D 80 00  60 10 1A 1C 23 01 BB 10  %....-..`...#...
1060: 02 15 00 12 80 02 B8 10  02 15 00 2D 80 03 B2 10  ...........-....
1070: 02 15 00 00 00 00 AC 10  41 12 80 40 80 09 00 16  ........A..@....
1080: 00 02 16 00 01 80 04 A6  10 41 41 80 42 80 09 00  .........AA.B...
1090: 16 00 02 16 00 01 80 04  A0 10 0B 47 00 01 A3 10  ...........G....
10A0: 1A 1C 23 01 A9 10 1A 1C  23 01 AF 10 1A 1C 23 01  ..#.....#.....#.
10B0: B5 10 0B 47 00 01 BB 10  0B 47 00 0B 18 00 07 19  ...G.....G......
10C0: 00 18 80 01 40 10 08 07  00 46 00 03 15 00 07 00  ....@....F......
10D0: 3F 15 00 15 00 18 80 15  07 00 18 80 02 15 00 12  ?...............
10E0: 80 00 E7 10 0C 07 00 06  05 00 02 06 00 07 00 00  ................
10F0: F9 10 3C 05 00 21 80 04  80 03 15 00 06 00 14 15  ..<..!..........
1100: 00 18 80 1A EA 24 14 15  00 18 80 06 19 00 07 19  .....$..........
1110: 00 15 00 03 1A 00 19 00  07 1A 00 1F 80 06 03 10  ................
1120: 06 04 10 06 05 10 06 06  10 06 07 10 06 08 10 06  ................
1130: 09 10 06 00 17 06 01 17  06 02 17 06 03 17 06 04  ................
1140: 17 06 05 17 06 06 17 06  07 17 06 08 17 06 48 00  ..............H.
1150: 06 49 00 06 4A 00 06 4B  00 06 4C 00 06 4D 00 06  .I..J..K..L..M..
1160: 4E 00 06 4F 00 02 19 00  25 00 04 77 11 3C 05 00  N..O....%..w.<..
1170: 04 80 04 80 01 29 12 9D  0A 7A 3F 15 00 1A 00 25  .....)...z?....%
1180: 00 02 15 00 2D 80 00 99  11 07 19 00 18 80 07 1A  ....-...........
1190: 00 18 80 01 65 11 01 03  12 02 15 00 12 80 02 03  ....e...........
11A0: 12 02 15 00 2D 80 03 03  12 02 15 00 00 00 00 F6  ....-...........
11B0: 11 41 12 80 40 80 09 00  16 00 02 16 00 01 80 04  .A..@...........
11C0: E6 11 41 41 80 42 80 09  00 16 00 02 16 00 01 80  ..AA.B..........
11D0: 04 D6 11 01 E3 11 07 19  00 18 80 07 1A 00 18 80  ................
11E0: 01 65 11 01 F3 11 07 19  00 18 80 07 1A 00 18 80  .e..............
11F0: 01 65 11 01 03 12 07 19  00 18 80 07 1A 00 18 80  .e..............
1200: 01 65 11 9D 0A 7A 3F 03  10 19 00 25 00 0C 1A 00  .e...z?....%....
1210: 9D 0A 7A 3F 04 10 1A 00  25 00 03 48 00 19 00 07  ..z?....%..H....
1220: 19 00 18 80 07 1A 00 21  80 02 19 00 25 00 04 3B  .......!....%..;
1230: 12 3C 05 00 1F 80 04 80  01 ED 12 9D 0A 7A 3F 15  .<...........z?.
1240: 00 1A 00 25 00 02 15 00  2D 80 00 5D 12 07 19 00  ...%....-..]....
1250: 18 80 07 1A 00 18 80 01  29 12 01 C7 12 02 15 00  ........).......
1260: 12 80 02 C7 12 02 15 00  2D 80 03 C7 12 02 15 00  ........-.......
1270: 00 00 00 BA 12 41 12 80  40 80 09 00 16 00 02 16  .....A..@.......
1280: 00 01 80 04 AA 12 41 41  80 42 80 09 00 16 00 02  ......AA.B......
1290: 16 00 01 80 04 9A 12 01  A7 12 07 19 00 18 80 07  ................
12A0: 1A 00 18 80 01 29 12 01  B7 12 07 19 00 18 80 07  .....)..........
12B0: 1A 00 18 80 01 29 12 01  C7 12 07 19 00 18 80 07  .....)..........
12C0: 1A 00 18 80 01 29 12 9D  0A 7A 3F 05 10 19 00 25  .....)...z?....%
12D0: 00 0C 1A 00 9D 0A 7A 3F  06 10 1A 00 25 00 03 49  ......z?....%..I
12E0: 00 19 00 07 19 00 18 80  07 1A 00 21 80 02 19 00  ...........!....
12F0: 25 00 04 FF 12 3C 05 00  20 80 04 80 01 B1 13 9D  %....<.. .......
1300: 0A 7A 3F 15 00 1A 00 25  00 02 15 00 2D 80 00 21  .z?....%....-..!
1310: 13 07 19 00 18 80 07 1A  00 18 80 01 ED 12 01 8B  ................
1320: 13 02 15 00 12 80 02 8B  13 02 15 00 2D 80 03 8B  ............-...
1330: 13 02 15 00 00 00 00 7E  13 41 12 80 40 80 09 00  .......~.A..@...
1340: 16 00 02 16 00 01 80 04  6E 13 41 41 80 42 80 09  ........n.AA.B..
1350: 00 16 00 02 16 00 01 80  04 5E 13 01 6B 13 07 19  .........^..k...
1360: 00 18 80 07 1A 00 18 80  01 ED 12 01 7B 13 07 19  ............{...
1370: 00 18 80 07 1A 00 18 80  01 ED 12 01 8B 13 07 19  ................
1380: 00 18 80 07 1A 00 18 80  01 ED 12 9D 0A 7A 3F 07  .............z?.
1390: 10 19 00 25 00 0C 1A 00  9D 0A 7A 3F 08 10 1A 00  ...%......z?....
13A0: 25 00 03 4A 00 19 00 07  19 00 18 80 07 1A 00 21  %..J...........!
13B0: 80 02 19 00 25 00 04 C3  13 3C 05 00 13 80 04 80  ....%....<......
13C0: 01 75 14 9D 0A 7A 3F 15  00 1A 00 25 00 02 15 00  .u...z?....%....
13D0: 2D 80 00 E5 13 07 19 00  18 80 07 1A 00 18 80 01  -...............
13E0: B1 13 01 4F 14 02 15 00  12 80 02 4F 14 02 15 00  ...O.......O....
13F0: 2D 80 03 4F 14 02 15 00  00 00 00 42 14 41 12 80  -..O.......B.A..
1400: 40 80 09 00 16 00 02 16  00 01 80 04 32 14 41 41  @...........2.AA
1410: 80 42 80 09 00 16 00 02  16 00 01 80 04 22 14 01  .B..........."..
1420: 2F 14 07 19 00 18 80 07  1A 00 18 80 01 B1 13 01  /...............
1430: 3F 14 07 19 00 18 80 07  1A 00 18 80 01 B1 13 01  ?...............
1440: 4F 14 07 19 00 18 80 07  1A 00 18 80 01 B1 13 9D  O...............
1450: 0A 7A 3F 09 10 19 00 25  00 0C 1A 00 9D 0A 7A 3F  .z?....%......z?
1460: 00 17 1A 00 25 00 03 4B  00 19 00 07 19 00 18 80  ....%..K........
1470: 07 1A 00 21 80 02 19 00  25 00 04 87 14 3C 05 00  ...!....%....<..
1480: 05 80 04 80 01 39 15 9D  0A 7A 3F 15 00 1A 00 25  .....9...z?....%
1490: 00 02 15 00 2D 80 00 A9  14 07 19 00 18 80 07 1A  ....-...........
14A0: 00 18 80 01 75 14 01 13  15 02 15 00 12 80 02 13  ....u...........
14B0: 15 02 15 00 2D 80 03 13  15 02 15 00 00 00 00 06  ....-...........
14C0: 15 41 12 80 40 80 09 00  16 00 02 16 00 01 80 04  .A..@...........
14D0: F6 14 41 41 80 42 80 09  00 16 00 02 16 00 01 80  ..AA.B..........
14E0: 04 E6 14 01 F3 14 07 19  00 18 80 07 1A 00 18 80  ................
14F0: 01 75 14 01 03 15 07 19  00 18 80 07 1A 00 18 80  .u..............
1500: 01 75 14 01 13 15 07 19  00 18 80 07 1A 00 18 80  .u..............
1510: 01 75 14 9D 0A 7A 3F 01  17 19 00 25 00 0C 1A 00  .u...z?....%....
1520: 9D 0A 7A 3F 02 17 1A 00  25 00 03 4C 00 19 00 07  ..z?....%..L....
1530: 19 00 18 80 07 1A 00 21  80 02 19 00 25 00 04 4B  .......!....%..K
1540: 15 3C 05 00 1E 80 04 80  01 FD 15 9D 0A 7A 3F 15  .<...........z?.
1550: 00 1A 00 25 00 02 15 00  2D 80 00 6D 15 07 19 00  ...%....-..m....
1560: 18 80 07 1A 00 18 80 01  39 15 01 D7 15 02 15 00  ........9.......
1570: 12 80 02 D7 15 02 15 00  2D 80 03 D7 15 02 15 00  ........-.......
1580: 00 00 00 CA 15 41 12 80  40 80 09 00 16 00 02 16  .....A..@.......
1590: 00 01 80 04 BA 15 41 41  80 42 80 09 00 16 00 02  ......AA.B......
15A0: 16 00 01 80 04 AA 15 01  B7 15 07 19 00 18 80 07  ................
15B0: 1A 00 18 80 01 39 15 01  C7 15 07 19 00 18 80 07  .....9..........
15C0: 1A 00 18 80 01 39 15 01  D7 15 07 19 00 18 80 07  .....9..........
15D0: 1A 00 18 80 01 39 15 9D  0A 7A 3F 03 17 19 00 25  .....9...z?....%
15E0: 00 0C 1A 00 9D 0A 7A 3F  04 17 1A 00 25 00 03 4D  ......z?....%..M
15F0: 00 19 00 07 19 00 18 80  07 1A 00 21 80 02 19 00  ...........!....
1600: 25 00 04 0F 16 3C 05 00  16 80 04 80 01 C1 16 9D  %....<..........
1610: 0A 7A 3F 15 00 1A 00 25  00 02 15 00 2D 80 00 31  .z?....%....-..1
1620: 16 07 19 00 18 80 07 1A  00 18 80 01 FD 15 01 9B  ................
1630: 16 02 15 00 12 80 02 9B  16 02 15 00 2D 80 03 9B  ............-...
1640: 16 02 15 00 00 00 00 8E  16 41 12 80 40 80 09 00  .........A..@...
1650: 16 00 02 16 00 01 80 04  7E 16 41 41 80 42 80 09  ........~.AA.B..
1660: 00 16 00 02 16 00 01 80  04 6E 16 01 7B 16 07 19  .........n..{...
1670: 00 18 80 07 1A 00 18 80  01 FD 15 01 8B 16 07 19  ................
1680: 00 18 80 07 1A 00 18 80  01 FD 15 01 9B 16 07 19  ................
1690: 00 18 80 07 1A 00 18 80  01 FD 15 9D 0A 7A 3F 05  .............z?.
16A0: 17 19 00 25 00 0C 1A 00  9D 0A 7A 3F 06 17 1A 00  ...%......z?....
16B0: 25 00 03 4E 00 19 00 07  19 00 18 80 07 1A 00 21  %..N...........!
16C0: 80 02 19 00 25 00 04 D3  16 3C 05 00 18 80 04 80  ....%....<......
16D0: 01 85 17 9D 0A 7A 3F 15  00 1A 00 25 00 02 15 00  .....z?....%....
16E0: 2D 80 00 F5 16 07 19 00  18 80 07 1A 00 18 80 01  -...............
16F0: C1 16 01 5F 17 02 15 00  12 80 02 5F 17 02 15 00  ..._......._....
1700: 2D 80 03 5F 17 02 15 00  00 00 00 52 17 41 12 80  -.._.......R.A..
1710: 40 80 09 00 16 00 02 16  00 01 80 04 42 17 41 41  @...........B.AA
1720: 80 42 80 09 00 16 00 02  16 00 01 80 04 32 17 01  .B...........2..
1730: 3F 17 07 19 00 18 80 07  1A 00 18 80 01 C1 16 01  ?...............
1740: 4F 17 07 19 00 18 80 07  1A 00 18 80 01 C1 16 01  O...............
1750: 5F 17 07 19 00 18 80 07  1A 00 18 80 01 C1 16 9D  _...............
1760: 0A 7A 3F 07 17 19 00 25  00 0C 1A 00 9D 0A 7A 3F  .z?....%......z?
1770: 08 17 1A 00 25 00 03 4F  00 19 00 07 19 00 18 80  ....%..O........
1780: 07 1A 00 21 80 03 02 10  01 00 D4 03 04 80 03 10  ...!............
1790: D4 03 1F 80 05 10 D4 03  20 80 07 10 D4 03 13 80  ........ .......
17A0: 09 10 D4 03 05 80 01 17  D4 03 1E 80 03 17 D4 03  ................
17B0: 16 80 05 17 D4 03 18 80  07 17 D4 02 43 80 03 00  ............C...
17C0: 05 00 25 02 00 10 12 80  00 E5 17 06 03 00 02 06  ..%.............
17D0: 00 12 80 00 DC 17 01 A1  01 01 E2 17 0C 06 00 01  ................
17E0: E7 10 01 A8 18 02 00 10  21 80 00 F9 17 06 03 00  ........!.......
17F0: 0B 06 00 01 E7 10 01 A8  18 03 03 00 00 10 03 15  ................
1800: 00 00 10 0C 15 00 9D 0A  EB 28 19 00 15 00 18 80  .........(......
1810: 03 1A 00 19 00 15 19 00  18 80 9D 0A 7A 3F 03 10  ............z?..
1820: 1A 00 25 00 0B 1A 00 9D  0A 7A 3F 02 10 1A 00 25  ..%......z?....%
1830: 00 03 0D 00 03 10 03 0E  00 02 10 40 12 80 13 80  ...........@....
1840: 01 10 20 80 40 05 80 2D  80 01 10 19 00 43 00 43  .. .@..-.....C.C
1850: 01 03 10 00 03 10 02 02  10 12 80 03 69 18 40 12  ............i.@.
1860: 80 13 80 01 10 12 80 21  00 02 02 10 04 80 00 79  .......!.......y
1870: 18 03 0F 00 04 80 01 A8  18 03 15 00 0E 00 14 15  ................
1880: 00 1F 80 02 01 00 15 00  03 93 18 03 0F 00 04 80  ................
1890: 01 A8 18 02 09 17 15 00  03 A3 18 03 0F 00 04 80  ................
18A0: 01 A8 18 03 0F 00 1F 80  03 03 10 0D 00 03 02 10  ................
18B0: 0E 00 02 0F 00 04 80 00  14 19 93 0D 00 1D 44 80  ..............D.
18C0: 23 93 12 80 02 0E 00 01  00 02 D6 18 1D 28 80 23  #............(.#
18D0: 01 E7 10 01 EA 18 02 0E  00 09 17 02 EA 18 03 02  ................
18E0: 10 09 17 1D 45 80 23 01  E7 10 03 04 10 01 00 24  ....E.#........$
18F0: 46 80 04 80 12 80 25 02  00 10 12 80 00 03 19 42  F.....%........B
1900: 01 11 19 02 00 10 04 80  00 11 19 01 E7 10 01 11  ................
1910: 19 01 09 1A 03 02 10 01  00 02 02 10 09 17 02 26  ...............&
1920: 19 03 02 10 09 17 15 02  10 0E 00 02 10 00 2D 80  ..............-.
1930: 80 43 19 02 02 10 47 80  02 40 19 03 02 10 47 80  .C....G..@....G.
1940: 01 5B 19 02 10 00 48 80  80 5B 19 02 02 10 49 80  .[....H..[....I.
1950: 02 58 19 03 02 10 49 80  01 5B 19 93 0D 00 1D 4A  .X....I..[.....J
1960: 80 23 71 10 04 80 71 11  0F 00 93 12 80 02 0F 00  .#q...q.........
1970: 12 80 00 78 19 01 E7 10  02 10 00 2D 80 80 8E 19  ...x.......-....
1980: 02 0F 00 47 80 02 8B 19  01 14 19 01 A4 19 02 10  ...G............
1990: 00 48 80 80 A4 19 02 0F  00 49 80 02 A1 19 01 14  .H.......I......
19A0: 19 01 A4 19 03 04 10 0F  00 03 02 10 0E 00 14 02  ................
19B0: 10 0F 00 02 02 10 01 00  02 C5 19 1D 28 80 23 01  ............(.#.
19C0: 14 19 01 D9 19 02 02 10  09 17 02 D9 19 03 02 10  ................
19D0: 09 17 1D 45 80 23 01 14  19 1D 4B 80 23 03 04 10  ...E.#....K.#...
19E0: 01 00 03 05 10 0F 00 24  4C 80 04 80 12 80 25 02  .......$L.....%.
19F0: 00 10 12 80 00 FB 19 42  01 09 1A 02 00 10 04 80  .......B........
1A00: 00 09 1A 01 E7 10 01 09  1A 1D 4D 80 23 40 12 80  ..........M.#@..
1A10: 13 80 01 10 13 80 40 05  80 2D 80 01 10 19 00 40  ......@..-.....@
1A20: 0E 80 30 80 01 10 0F 00  43 00 43 01 02 02 10 12  ..0.....C.C.....
1A30: 80 03 3F 1A 40 12 80 13  80 01 10 12 80 21 00 03  ..?.@........!..
1A40: 01 00 04 10 03 09 17 05  10 2E 01 E7 10 01 1A 23  ...............#
1A50: 02 00 10 05 80 00 EB 1F  03 02 00 00 10 06 03 00  ................
1A60: 06 06 00 03 07 00 17 80  03 25 00 07 00 14 25 00  .........%....%.
1A70: 18 80 06 26 00 06 27 00  06 28 00 06 29 00 06 2A  ...&..'..(..)..*
1A80: 00 06 2B 00 06 2C 00 06  2D 00 06 2E 00 06 2F 00  ..+..,..-...../.
1A90: 06 30 00 06 31 00 06 32  00 06 46 00 06 47 00 06  .0..1..2..F..G..
1AA0: 18 00 02 18 00 17 80 03  C0 1A 3E 1C 00 18 00 B7  ..........>.....
1AB0: 1A 0B 47 00 01 BA 1A 1A  1C 23 0B 18 00 01 A2 1A  ..G......#......
1AC0: 08 07 00 46 00 03 15 00  07 00 3F 15 00 15 00 18  ...F......?.....
1AD0: 80 15 07 00 18 80 02 15  00 12 80 00 E1 1A 0C 07  ................
1AE0: 00 06 05 00 02 06 00 07  00 00 F3 1A 3C 05 00 21  ............<..!
1AF0: 80 04 80 03 15 00 06 00  14 15 00 18 80 1A EA 24  ...............$
1B00: 14 15 00 18 80 06 19 00  07 19 00 15 00 03 1A 00  ................
1B10: 19 00 0B 1A 00 06 03 10  06 04 10 06 05 10 06 06  ................
1B20: 10 06 07 10 06 08 10 06  09 10 06 00 17 06 01 17  ................
1B30: 06 02 17 06 03 17 06 04  17 06 05 17 06 06 17 06  ................
1B40: 07 17 06 08 17 06 48 00  06 49 00 06 4A 00 06 4B  ......H..I..J..K
1B50: 00 06 4C 00 06 4D 00 06  4E 00 06 4F 00 15 15 00  ..L..M..N..O....
1B60: 18 80 3E 1C 00 15 00 85  1B 9D 0A 5A 41 03 10 19  ..>........ZA...
1B70: 00 25 00 9D 0A 5A 41 04  10 1A 00 25 00 03 48 00  .%...ZA....%..H.
1B80: 19 00 01 AA 1B 07 19 00  18 80 07 1A 00 18 80 0B  ................
1B90: 15 00 02 19 00 25 00 04  A7 1B 3C 05 00 04 80 04  .....%....<.....
1BA0: 80 01 AA 1B 01 AA 1B 01  62 1B 07 19 00 18 80 07  ........b.......
1BB0: 1A 00 18 80 0B 15 00 3E  1C 00 15 00 DA 1B 9D 0A  .......>........
1BC0: 5A 41 05 10 19 00 25 00  9D 0A 5A 41 06 10 1A 00  ZA....%...ZA....
1BD0: 25 00 03 49 00 19 00 01  F2 1B 02 19 00 25 00 04  %..I.........%..
1BE0: EF 1B 3C 05 00 1F 80 04  80 01 F2 1B 01 F2 1B 01  ..<.............
1BF0: AA 1B 07 19 00 18 80 07  1A 00 18 80 0B 15 00 3E  ...............>
1C00: 1C 00 15 00 22 1C 9D 0A  5A 41 07 10 19 00 25 00  ...."...ZA....%.
1C10: 9D 0A 5A 41 08 10 1A 00  25 00 03 4A 00 19 00 01  ..ZA....%..J....
1C20: 3A 1C 02 19 00 25 00 04  37 1C 3C 05 00 20 80 04  :....%..7.<.. ..
1C30: 80 01 3A 1C 01 3A 1C 01  F2 1B 07 19 00 18 80 07  ..:..:..........
1C40: 1A 00 18 80 0B 15 00 3E  1C 00 15 00 6A 1C 9D 0A  .......>....j...
1C50: 5A 41 09 10 19 00 25 00  9D 0A 5A 41 00 17 1A 00  ZA....%...ZA....
1C60: 25 00 03 4B 00 19 00 01  82 1C 02 19 00 25 00 04  %..K.........%..
1C70: 7F 1C 3C 05 00 13 80 04  80 01 82 1C 01 82 1C 01  ..<.............
1C80: 3A 1C 07 19 00 18 80 07  1A 00 18 80 0B 15 00 3E  :..............>
1C90: 1C 00 15 00 B2 1C 9D 0A  5A 41 01 17 19 00 25 00  ........ZA....%.
1CA0: 9D 0A 5A 41 02 17 1A 00  25 00 03 4C 00 19 00 01  ..ZA....%..L....
1CB0: CA 1C 02 19 00 25 00 04  C7 1C 3C 05 00 05 80 04  .....%....<.....
1CC0: 80 01 CA 1C 01 CA 1C 01  82 1C 07 19 00 18 80 07  ................
1CD0: 1A 00 18 80 0B 15 00 3E  1C 00 15 00 FA 1C 9D 0A  .......>........
1CE0: 5A 41 03 17 19 00 25 00  9D 0A 5A 41 04 17 1A 00  ZA....%...ZA....
1CF0: 25 00 03 4D 00 19 00 01  12 1D 02 19 00 25 00 04  %..M.........%..
1D00: 0F 1D 3C 05 00 1E 80 04  80 01 12 1D 01 12 1D 01  ..<.............
1D10: CA 1C 07 19 00 18 80 07  1A 00 18 80 0B 15 00 3E  ...............>
1D20: 1C 00 15 00 42 1D 9D 0A  5A 41 05 17 19 00 25 00  ....B...ZA....%.
1D30: 9D 0A 5A 41 06 17 1A 00  25 00 03 4E 00 19 00 01  ..ZA....%..N....
1D40: 5A 1D 02 19 00 25 00 04  57 1D 3C 05 00 16 80 04  Z....%..W.<.....
1D50: 80 01 5A 1D 01 5A 1D 01  12 1D 07 19 00 18 80 07  ..Z..Z..........
1D60: 1A 00 18 80 0B 15 00 3E  1C 00 15 00 8A 1D 9D 0A  .......>........
1D70: 5A 41 07 17 19 00 25 00  9D 0A 5A 41 08 17 1A 00  ZA....%...ZA....
1D80: 25 00 03 4F 00 19 00 01  A2 1D 02 19 00 25 00 04  %..O.........%..
1D90: 9F 1D 3C 05 00 18 80 04  80 01 A2 1D 01 A2 1D 01  ..<.............
1DA0: 5A 1D 03 02 10 01 00 D4  03 04 80 03 10 D4 03 1F  Z...............
1DB0: 80 05 10 D4 03 20 80 07  10 D4 03 13 80 09 10 D4  ..... ..........
1DC0: 03 05 80 01 17 D4 03 1E  80 03 17 D4 03 16 80 05  ................
1DD0: 17 D4 03 18 80 07 17 D4  02 43 80 03 00 05 00 25  .........C.....%
1DE0: 02 00 10 12 80 00 02 1E  06 03 00 02 06 00 12 80  ................
1DF0: 00 F9 1D 01 A1 01 01 FF  1D 0C 06 00 01 E1 1A 01  ................
1E00: 82 1E 02 00 10 21 80 00  16 1E 06 03 00 0B 06 00  .....!..........
1E10: 01 E1 1A 01 82 1E 03 03  00 00 10 03 15 00 00 10  ................
1E20: 0C 15 00 9D 0A EB 28 19  00 15 00 18 80 03 1A 00  ......(.........
1E30: 19 00 0B 1A 00 9D 0A 5A  41 03 10 19 00 25 00 9D  .......ZA....%..
1E40: 0A 5A 41 02 10 1A 00 25  00 03 0D 00 03 10 03 0E  .ZA....%........
1E50: 00 02 10 03 15 00 0E 00  14 15 00 1F 80 02 01 00  ................
1E60: 15 00 03 6D 1E 03 0F 00  04 80 01 82 1E 02 09 17  ...m............
1E70: 15 00 03 7D 1E 03 0F 00  04 80 01 82 1E 03 0F 00  ...}............
1E80: 1F 80 03 03 10 0D 00 03  02 10 0E 00 02 0F 00 04  ................
1E90: 80 00 EE 1E 93 0D 00 1D  44 80 23 93 12 80 02 0E  ........D.#.....
1EA0: 00 01 00 02 B0 1E 1D 28  80 23 01 E1 1A 01 C4 1E  .......(.#......
1EB0: 02 0E 00 09 17 02 C4 1E  03 02 10 09 17 1D 45 80  ..............E.
1EC0: 23 01 E1 1A 03 04 10 01  00 24 46 80 04 80 12 80  #........$F.....
1ED0: 25 02 00 10 12 80 00 DD  1E 42 01 EB 1E 02 00 10  %........B......
1EE0: 04 80 00 EB 1E 01 E1 1A  01 EB 1E 01 9F 1F 03 02  ................
1EF0: 10 01 00 02 02 10 09 17  02 00 1F 03 02 10 09 17  ................
1F00: 15 02 10 0E 00 02 02 10  47 80 02 12 1F 03 02 10  ........G.......
1F10: 47 80 93 0D 00 1D 4A 80  23 71 10 04 80 71 11 0F  G.....J.#q...q..
1F20: 00 93 12 80 02 0F 00 12  80 00 2F 1F 01 E1 1A 02  ........../.....
1F30: 0F 00 47 80 02 3A 1F 01  EE 1E 03 04 10 0F 00 03  ..G..:..........
1F40: 02 10 0E 00 14 02 10 0F  00 02 02 10 01 00 02 5B  ...............[
1F50: 1F 1D 28 80 23 01 EE 1E  01 6F 1F 02 02 10 09 17  ..(.#....o......
1F60: 02 6F 1F 03 02 10 09 17  1D 45 80 23 01 EE 1E 1D  .o.......E.#....
1F70: 4B 80 23 03 04 10 01 00  03 05 10 0F 00 24 4C 80  K.#..........$L.
1F80: 04 80 12 80 25 02 00 10  12 80 00 91 1F 42 01 9F  ....%........B..
1F90: 1F 02 00 10 04 80 00 9F  1F 01 E1 1A 01 9F 1F 1D  ................
1FA0: 4D 80 23 15 19 00 18 80  40 12 80 13 80 01 10 21  M.#.....@......!
1FB0: 80 40 05 80 2D 80 01 10  19 00 40 0E 80 30 80 01  .@..-.....@..0..
1FC0: 10 0F 00 43 00 43 01 02  02 10 12 80 03 DA 1F 40  ...C.C.........@
1FD0: 12 80 13 80 01 10 12 80  21 00 03 01 00 04 10 03  ........!.......
1FE0: 09 17 05 10 2E 01 E1 1A  01 1A 23 02 00 10 1E 80  ..........#.....
1FF0: 00 C4 20 03 02 00 00 10  1D 4E 80 23 1D 4F 80 23  .. ......N.#.O.#
2000: 06 05 00 3C 05 00 00 00  04 80 06 03 00 24 50 80  ...<.........$P.
2010: 03 00 05 00 25 02 00 10  12 80 00 23 20 01 A1 01  ....%......# ...
2020: 01 43 20 03 03 00 00 10  03 12 00 00 10 40 12 80  .C ..........@..
2030: 13 80 01 10 05 80 40 05  80 21 80 01 10 12 00 43  ......@..!.....C
2040: 00 43 01 02 02 10 12 80  03 56 20 40 12 80 13 80  .C.......V @....
2050: 01 10 12 80 21 00 03 13  00 02 10 03 02 10 12 00  ....!...........
2060: 0C 02 10 03 03 10 13 00  03 04 10 01 00 24 51 80  .............$Q.
2070: 04 80 12 80 25 02 00 10  12 80 00 AF 20 02 01 00  ....%....... ...
2080: 13 00 03 8C 20 1D 28 80  23 01 0D 20 42 40 12 80  .... .(.#.. B@..
2090: 13 80 01 10 1E 80 40 05  80 21 80 01 10 12 00 40  ......@..!.....@
20A0: 01 80 52 80 01 10 13 00  1D 53 80 23 01 C1 20 02  ..R......S.#.. .
20B0: 00 10 04 80 00 C1 20 1D  54 80 23 01 0D 20 01 C1  ...... .T.#.. ..
20C0: 20 01 1A 23 02 00 10 16  80 00 1A 23 03 02 00 00   ..#.......#....
20D0: 10 1D 55 80 23 06 03 00  24 56 80 03 00 12 80 25  ..U.#...$V.....%
20E0: 02 00 10 12 80 00 EE 20  01 A1 01 01 17 23 02 00  ....... .....#..
20F0: 10 04 80 00 11 21 03 03  00 00 10 1D 57 80 23 1D  .....!......W.#.
2100: 58 80 23 1D 59 80 23 1D  5A 80 23 01 D8 20 01 17  X.#.Y.#.Z.#.. ..
2110: 23 02 00 10 1F 80 00 30  21 03 03 00 00 10 48 5B  #......0!.....H[
2120: 80 23 48 5C 80 23 48 5D  80 23 01 D8 20 01 17 23  .#H\.#H].#.. ..#
2130: 02 00 10 20 80 00 4F 21  03 03 00 00 10 48 5B 80  ... ..O!.....H[.
2140: 23 48 5E 80 23 48 5F 80  23 01 D8 20 01 17 23 02  #H^.#H_.#.. ..#.
2150: 00 10 13 80 00 77 21 03  03 00 00 10 48 5B 80 23  .....w!.....H[.#
2160: 03 03 10 60 80 48 61 80  23 48 62 80 23 48 63 80  ...`.Ha.#Hb.#Hc.
2170: 23 01 D8 20 01 17 23 02  00 10 05 80 00 AA 21 03  #.. ..#.......!.
2180: 03 00 00 10 48 5B 80 23  48 64 80 23 48 65 80 23  ....H[.#Hd.#He.#
2190: 48 66 80 23 48 67 80 23  48 68 80 23 48 69 80 23  Hf.#Hg.#Hh.#Hi.#
21A0: 48 6A 80 23 01 D8 20 01  17 23 02 00 10 1E 80 00  Hj.#.. ..#......
21B0: E1 21 03 03 00 00 10 48  5B 80 23 48 6B 80 23 48  .!.....H[.#Hk.#H
21C0: 6C 80 23 48 6D 80 23 48  6E 80 23 48 6F 80 23 48  l.#Hm.#Hn.#Ho.#H
21D0: 70 80 23 48 71 80 23 48  72 80 23 01 D8 20 01 17  p.#Hq.#Hr.#.. ..
21E0: 23 02 00 10 16 80 00 08  22 03 03 00 00 10 48 5B  #.......".....H[
21F0: 80 23 48 73 80 23 48 74  80 23 48 75 80 23 48 76  .#Hs.#Ht.#Hu.#Hv
2200: 80 23 01 D8 20 01 17 23  02 00 10 18 80 00 3B 22  .#.. ..#......;"
2210: 03 03 00 00 10 48 5B 80  23 48 77 80 23 48 78 80  .....H[.#Hw.#Hx.
2220: 23 48 79 80 23 48 7A 80  23 48 7B 80 23 48 7C 80  #Hy.#Hz.#H{.#H|.
2230: 23 48 7D 80 23 01 D8 20  01 17 23 02 00 10 21 80  #H}.#.. ..#...!.
2240: 00 67 22 03 03 00 00 10  48 5B 80 23 48 7E 80 23  .g".....H[.#H~.#
2250: 48 7F 80 23 48 80 80 23  03 02 10 81 80 48 82 80  H..#H..#.....H..
2260: 23 01 D8 20 01 17 23 02  00 10 01 80 00 8E 22 03  #.. ..#.......".
2270: 03 00 00 10 48 5B 80 23  48 83 80 23 48 84 80 23  ....H[.#H..#H..#
2280: 48 85 80 23 48 86 80 23  01 D8 20 01 17 23 02 00  H..#H..#.. ..#..
2290: 10 23 80 00 C6 22 03 03  00 00 10 48 5B 80 23 48  .#...".....H[.#H
22A0: 87 80 23 48 88 80 23 48  89 80 23 48 8A 80 23 48  ..#H..#H..#H..#H
22B0: 8B 80 23 03 02 10 8C 80  48 8D 80 23 48 8E 80 23  ..#.....H..#H..#
22C0: 01 D8 20 01 17 23 02 00  10 2D 80 00 17 23 03 03  .. ..#...-...#..
22D0: 00 00 10 48 5B 80 23 48  8F 80 23 03 02 10 05 80  ...H[.#H..#.....
