# 17719406

## Common Data

| Field            | Value                         |
|------------------|-------------------------------|
| Zone             | Southern San d'Oria (ID: 230) |
| Block Size       | 92 bytes                      |
| Total Events     | 3                             |
| References Count | 7                             |

## List of Events

| Event ID                 | Entrypoint   |   Size |   Instructions |
|--------------------------|--------------|--------|----------------|
| [65535](#event-65535)    | 0x0000       |      1 |              1 |
| [503](#event-503)        | 0x0001       |      1 |              1 |
| [65535.1](#event-655351) | 0x0002       |     31 |              7 |

## DAT References (imed_data)

|   Index | Hex Value   |   Dec Value |
|---------|-------------|-------------|
|       0 | 0x000D      |          13 |
|       1 | 0xFFFFFC18  |  4294966296 |
|       2 | 0x12110     |       74000 |
|       3 | 0xFFFFF830  |  4294965296 |
|       4 | 0x03F3      |        1011 |
|       5 | 0x5DC0      |       24000 |
|       6 | 0x0000      |           0 |

## Events

### Event 65535

#### Metadata

| Field        | Value   |
|--------------|---------|
| Entrypoint   | 0x0000  |
| Data Size    | 1 bytes |
| Instructions | 1       |

```
      00 01 02 03 04 05 06 07  08 09 0A 0B 0C 0D 0E 0F
      -- -- -- -- -- -- -- --  -- -- -- -- -- -- -- --
0000: 00                                                .               
```

#### Opcodes

```
  0: 0x0000 [0x00] END_REQSTACK()
```

### Event 503

#### Metadata

| Field        | Value   |
|--------------|---------|
| Entrypoint   | 0x0001  |
| Data Size    | 1 bytes |
| Instructions | 1       |

```
      00 01 02 03 04 05 06 07  08 09 0A 0B 0C 0D 0E 0F
      -- -- -- -- -- -- -- --  -- -- -- -- -- -- -- --
0000:    00                                              .              
```

#### Opcodes

```
  0: 0x0001 [0x00] END_REQSTACK()
```

### Event 65535.1

#### Metadata

| Field        | Value    |
|--------------|----------|
| Entrypoint   | 0x0002   |
| Data Size    | 31 bytes |
| Instructions | 7        |

```
      00 01 02 03 04 05 06 07  08 09 0A 0B 0C 0D 0E 0F
      -- -- -- -- -- -- -- --  -- -- -- -- -- -- -- --
0000:       32 00 80 37 01 80  02 80 03 80 04 80 1F 00    2..7..........
0010: 01 80 05 80 06 80 1F 01  2F 01 6E 60 0E 01 22 01  ......../.n`..".
0020: 00                                                .               
```

#### Opcodes

```
  0: 0x0002 [0x32] ExtData[1]->MainSpeed = 13* * 0.1
  1: 0x0005 [0x37] UPDATE_EVENT_POSITION_AND_DIR: x=-1.000*, z=74.000*, y=-2.000*, direction=88.9°*
  2: 0x000E [0x1F] MOVE_ENTITY: EventEntity moves to X=-1.000*, Z=24.000*, Y=0.000*
  3: 0x0016 [0x1F] MOVE_ENTITY: Update entity position (mode=1)
  4: 0x0018 [0x2F] Unnamed NPC (ID: 17719406/0x010E606E)->Render.Flags0 |= 0x80000 // Bit 19
  5: 0x001E [0x22] ENTITY_HIDE_FLAG(enabled=0x01)
  6: 0x0020 [0x00] END_REQSTACK()
```
