# 17719819

## Common Data

| Field            | Value                         |
|------------------|-------------------------------|
| Zone             | Southern San d'Oria (ID: 230) |
| Block Size       | 3008 bytes                    |
| Total Events     | 5                             |
| References Count | 85                            |

## List of Events

| Event ID                 | Entrypoint   |   Size |   Instructions |
|--------------------------|--------------|--------|----------------|
| [65535](#event-65535)    | 0x0000       |      1 |              1 |
| [897](#event-897)        | 0x0001       |      1 |              1 |
| [65535.1](#event-655351) | 0x0002       |    288 |             40 |
| [65535.2](#event-655352) | 0x0122       |    899 |            148 |
| [65535.3](#event-655353) | 0x04A5       |   1440 |            262 |

## DAT References (imed_data)

|   Index | Hex Value   |   Dec Value |
|---------|-------------|-------------|
|       0 | 0x0006      |           6 |
|       1 | 0x1B303     |      111363 |
|       2 | 0x14623     |       83491 |
|       3 | 0x0000      |           0 |
|       4 | 0x052E      |        1326 |
|       5 | 0x1B817     |      112663 |
|       6 | 0x13FAE     |       81838 |
|       7 | 0x0592      |        1426 |
|       8 | 0x1BC44     |      113732 |
|       9 | 0x13D3A     |       81210 |
|      10 | 0x05F6      |        1526 |
|      11 | 0x1C0D5     |      114901 |
|      12 | 0x136AC     |       79532 |
|      13 | 0xFFFFFBB0  |  4294966192 |
|      14 | 0x9FF2      |       40946 |
|      15 | 0xFFFFF831  |  4294965297 |
|      16 | 0x0BE5      |        3045 |
|      17 | 0x0485      |        1157 |
|      18 | 0xA07A      |       41082 |
|      19 | 0x0C4B      |        3147 |
|      20 | 0x0028      |          40 |
|      21 | 0x0151      |         337 |
|      22 | 0x0001      |           1 |
|      23 | 0x0002      |           2 |
|      24 | 0xFFFD901D  |  4294807581 |
|      25 | 0x10772     |       67442 |
|      26 | 0xFFFFF830  |  4294965296 |
|      27 | 0x03A1      |         929 |
|      28 | 0xFFFD8F32  |  4294807346 |
|      29 | 0x10C18     |       68632 |
|      30 | 0xFFFD8E9C  |  4294807196 |
|      31 | 0x10F3B     |       69435 |
|      32 | 0xFFFD947F  |  4294808703 |
|      33 | 0x106FF     |       67327 |
|      34 | 0x0405      |        1029 |
|      35 | 0xFFFD94AA  |  4294808746 |
|      36 | 0x10B83     |       68483 |
|      37 | 0x0404      |        1028 |
|      38 | 0xFFFD94DC  |  4294808796 |
|      39 | 0x10F55     |       69461 |
|      40 | 0x043A      |        1082 |
|      41 | 0x003C      |          60 |
|      42 | 0x0003      |           3 |
|      43 | 0x001E      |          30 |
|      44 | 0x005A      |          90 |
|      45 | 0x0014      |          20 |
|      46 | 0x0046      |          70 |
|      47 | 0x0064      |         100 |
|      48 | 0x0050      |          80 |
|      49 | 0x0005      |           5 |
|      50 | 0x0037      |          55 |
|      51 | 0x000A      |          10 |
|      52 | 0xFFFF9599  |  4294940057 |
|      53 | 0xFFFE8AAE  |  4294871726 |
|      54 | 0x07D0      |        2000 |
|      55 | 0x0E10      |        3600 |
|      56 | 0xFFFF9774  |  4294940532 |
|      57 | 0xFFFE87FE  |  4294871038 |
|      58 | 0x0CE4      |        3300 |
|      59 | 0xFFFFA911  |  4294945041 |
|      60 | 0xFFFE87F7  |  4294871031 |
|      61 | 0x06BC      |        1724 |
|      62 | 0xFFFFA22F  |  4294943279 |
|      63 | 0xFFFE8A0B  |  4294871563 |
|      64 | 0x015E      |         350 |
|      65 | 0xFFFFA60F  |  4294944271 |
|      66 | 0xFFFE8AF5  |  4294871797 |
|      67 | 0x040F      |        1039 |
|      68 | 0xFFFFA17D  |  4294943101 |
|      69 | 0xFFFE8449  |  4294870089 |
|      70 | 0x0D95      |        3477 |
|      71 | 0xFFFFA416  |  4294943766 |
|      72 | 0xFFFE81F5  |  4294869493 |
|      73 | 0x0C2E      |        3118 |
|      74 | 0xFFFF9F78  |  4294942584 |
|      75 | 0xFFFE8E69  |  4294872681 |
|      76 | 0x06F8      |        1784 |
|      77 | 0xFFFF9889  |  4294940809 |
|      78 | 0xFFFE907F  |  4294873215 |
|      79 | 0x0267      |         615 |
|      80 | 0xFFFF9D1E  |  4294941982 |
|      81 | 0xFFFE9142  |  4294873410 |
|      82 | 0x0461      |        1121 |
|      83 | 0x0004      |           4 |
|      84 | 0x0007      |           7 |

## Events

### Event 65535

#### Metadata

| Field        | Value   |
|--------------|---------|
| Entrypoint   | 0x0000  |
| Data Size    | 1 bytes |
| Instructions | 1       |

```
      00 01 02 03 04 05 06 07  08 09 0A 0B 0C 0D 0E 0F
      -- -- -- -- -- -- -- --  -- -- -- -- -- -- -- --
0000: 00                                                .               
```

#### Opcodes

```
  0: 0x0000 [0x00] END_REQSTACK()
```

### Event 897

#### Metadata

| Field        | Value   |
|--------------|---------|
| Entrypoint   | 0x0001  |
| Data Size    | 1 bytes |
| Instructions | 1       |

```
      00 01 02 03 04 05 06 07  08 09 0A 0B 0C 0D 0E 0F
      -- -- -- -- -- -- -- --  -- -- -- -- -- -- -- --
0000:    00                                              .              
```

#### Opcodes

```
  0: 0x0001 [0x00] END_REQSTACK()
```

### Event 65535.1

#### Metadata

| Field        | Value     |
|--------------|-----------|
| Entrypoint   | 0x0002    |
| Data Size    | 288 bytes |
| Instructions | 40        |

```
      00 01 02 03 04 05 06 07  08 09 0A 0B 0C 0D 0E 0F
      -- -- -- -- -- -- -- --  -- -- -- -- -- -- -- --
0000:       02 54 10 00 80 00  B9 00 7A 00 0D 62 0E 01    .T......z..b..
0010: 7A 00 10 62 0E 01 99 0D  62 0E 01 99 10 62 0E 01  z..b....b....b..
0020: BA 0E 62 0E 01 01 80 02  80 03 80 04 80 BA 0F 62  ..b............b
0030: 0E 01 05 80 06 80 03 80  07 80 BA 11 62 0E 01 08  ............b...
0040: 80 09 80 03 80 0A 80 BA  12 62 0E 01 0B 80 0C 80  .........b......
0050: 03 80 0A 80 BA 0D 62 0E  01 0D 80 0E 80 0F 80 10  ......b.........
0060: 80 BA 10 62 0E 01 11 80  12 80 0F 80 13 80 80 0D  ...b............
0070: 62 0E 01 80 0E 62 0E 01  80 0F 62 0E 01 80 10 62  b....b....b....b
0080: 0E 01 80 11 62 0E 01 80  12 62 0E 01 1C 14 80 03  ....b....b......
0090: 4F 10 03 80 52 15 80 F8  FF FF 7F F8 FF FF 7F 73  O...R..........s
00A0: 30 30 37 45 15 80 F8 FF  FF 7F F8 FF FF 7F 73 30  007E..........s0
00B0: 30 33 03 80 03 55 10 16  80 03 54 10 16 80 13 00  03...U....T.....
00C0: 00 17 80 02 00 00 03 80  80 DC 00 27 05 0D 62 0E  ...........'..b.
00D0: 01 02 27 05 10 62 0E 01  03 01 0E 01 02 00 00 16  ..'..b..........
00E0: 80 80 F5 00 27 05 0D 62  0E 01 03 27 05 10 62 0E  ....'..b...'..b.
00F0: 01 02 01 0E 01 02 00 00  17 80 80 0E 01 27 05 0D  .............'..
0100: 62 0E 01 04 27 05 10 62  0E 01 02 01 0E 01 2A 05  b...'..b......*.
0110: 0D 62 0E 01 2A 05 10 62  0E 01 27 05 0C 62 0E 01  .b..*..b..'..b..
0120: 02 00                                             ..              
```

#### Opcodes

```
  0: 0x0002 [0x02] IF !(Work_Zone[84] == 6*) GOTO 0x00B9
  1: 0x000A [0x7A] VM_CONTROL: Reset VM for Unnamed NPC (ID: 17719821/0x010E620D)
  2: 0x0010 [0x7A] VM_CONTROL: Reset VM for Unnamed NPC (ID: 17719824/0x010E6210)
  3: 0x0016 [0x99] Wait for Unnamed NPC (ID: 17719821/0x010E620D) animation to complete
  4: 0x001B [0x99] Wait for Unnamed NPC (ID: 17719824/0x010E6210) animation to complete
  5: 0x0020 [0xBA] SET_ENTITY_POSITION(entity_id=Unnamed NPC (ID: 17719822/0x010E620E), pos_x=111.363*, pos_z=83.491*, pos_y=0.000*, direction=116.5°*)
  6: 0x002D [0xBA] SET_ENTITY_POSITION(entity_id=Unnamed NPC (ID: 17719823/0x010E620F), pos_x=112.663*, pos_z=81.838*, pos_y=0.000*, direction=125.3°*)
  7: 0x003A [0xBA] SET_ENTITY_POSITION(entity_id=Unnamed NPC (ID: 17719825/0x010E6211), pos_x=113.732*, pos_z=81.210*, pos_y=0.000*, direction=134.1°*)
  8: 0x0047 [0xBA] SET_ENTITY_POSITION(entity_id=Unnamed NPC (ID: 17719826/0x010E6212), pos_x=114.901*, pos_z=79.532*, pos_y=0.000*, direction=134.1°*)
  9: 0x0054 [0xBA] SET_ENTITY_POSITION(entity_id=Unnamed NPC (ID: 17719821/0x010E620D), pos_x=-1.104*, pos_z=40.946*, pos_y=-1.999*, direction=267.6°*)
 10: 0x0061 [0xBA] SET_ENTITY_POSITION(entity_id=Unnamed NPC (ID: 17719824/0x010E6210), pos_x=1.157*, pos_z=41.082*, pos_y=-1.999*, direction=276.6°*)
 11: 0x006E [0x80] LOAD_WAIT(entity=Unnamed NPC (ID: 17719821/0x010E620D))
 12: 0x0073 [0x80] LOAD_WAIT(entity=Unnamed NPC (ID: 17719822/0x010E620E))
 13: 0x0078 [0x80] LOAD_WAIT(entity=Unnamed NPC (ID: 17719823/0x010E620F))
 14: 0x007D [0x80] LOAD_WAIT(entity=Unnamed NPC (ID: 17719824/0x010E6210))
 15: 0x0082 [0x80] LOAD_WAIT(entity=Unnamed NPC (ID: 17719825/0x010E6211))
 16: 0x0087 [0x80] LOAD_WAIT(entity=Unnamed NPC (ID: 17719826/0x010E6212))
 17: 0x008C [0x1C] WAIT(40* ticks)
 18: 0x008F [0x03] Work_Zone[79] = 0*
 19: 0x0094 [0x52] END_LOAD_SCHEDULER: End scheduler "s007" with entities [EventEntity, EventEntity], work=337*
 20: 0x00A3 [0x45] LOAD_SCHEDULED_TASK: Load scheduler "s003" with entities [EventEntity, EventEntity], work=[337*, 0*]
 21: 0x00B4 [0x03] Work_Zone[85] = 1*
 22: 0x00B9 [0x03] Work_Zone[84] = 1*
 23: 0x00BE [0x13] ExtData[1]->WorkLocal[0] = rand() % 2*
 24: 0x00C3 [0x02] IF !(ExtData[1]->WorkLocal[0] == 0*) GOTO 0x00DC
 25: 0x00CB [0x27] REQ_SET(priority=0x05, entity_id=Unnamed NPC (ID: 17719821/0x010E620D), tag_num=0x02)
 26: 0x00D2 [0x27] REQ_SET(priority=0x05, entity_id=Unnamed NPC (ID: 17719824/0x010E6210), tag_num=0x03)
 27: 0x00D9 [0x01] GOTO 0x010E
 28: 0x00DC [0x02] IF !(ExtData[1]->WorkLocal[0] == 1*) GOTO 0x00F5
 29: 0x00E4 [0x27] REQ_SET(priority=0x05, entity_id=Unnamed NPC (ID: 17719821/0x010E620D), tag_num=0x03)
 30: 0x00EB [0x27] REQ_SET(priority=0x05, entity_id=Unnamed NPC (ID: 17719824/0x010E6210), tag_num=0x02)
 31: 0x00F2 [0x01] GOTO 0x010E
 32: 0x00F5 [0x02] IF !(ExtData[1]->WorkLocal[0] == 2*) GOTO 0x010E
 33: 0x00FD [0x27] REQ_SET(priority=0x05, entity_id=Unnamed NPC (ID: 17719821/0x010E620D), tag_num=0x04)
 34: 0x0104 [0x27] REQ_SET(priority=0x05, entity_id=Unnamed NPC (ID: 17719824/0x010E6210), tag_num=0x02)
 35: 0x010B [0x01] GOTO 0x010E

SUBROUTINE_010E:
 36: 0x010E [0x2A] GET_REQ_LEVEL(level=5, entity_id=Unnamed NPC (ID: 17719821/0x010E620D))
 37: 0x0114 [0x2A] GET_REQ_LEVEL(level=5, entity_id=Unnamed NPC (ID: 17719824/0x010E6210))
 38: 0x011A [0x27] REQ_SET(priority=0x05, entity_id=Unnamed NPC (ID: 17719820/0x010E620C), tag_num=0x02)
 39: 0x0121 [0x00] END_REQSTACK()
```

### Event 65535.2

#### Metadata

| Field        | Value     |
|--------------|-----------|
| Entrypoint   | 0x0122    |
| Data Size    | 899 bytes |
| Instructions | 148       |

```
      00 01 02 03 04 05 06 07  08 09 0A 0B 0C 0D 0E 0F
      -- -- -- -- -- -- -- --  -- -- -- -- -- -- -- --
0120:       4E 01 18 62 0E 01  4E 01 19 62 0E 01 4E 01    N..b..N..b..N.
0130: 1A 62 0E 01 4E 01 1B 62  0E 01 4E 01 1C 62 0E 01  .b..N..b..N..b..
0140: 4E 01 1D 62 0E 01 BA 15  62 0E 01 18 80 19 80 1A  N..b....b.......
0150: 80 1B 80 BA 16 62 0E 01  1C 80 1D 80 1A 80 1B 80  .....b..........
0160: BA 17 62 0E 01 1E 80 1F  80 1A 80 1B 80 80 15 62  ..b............b
0170: 0E 01 80 16 62 0E 01 80  17 62 0E 01 13 00 00 17  ....b....b......
0180: 80 02 00 00 03 80 80 7B  02 4E 00 1B 62 0E 01 4E  .......{.N..b..N
0190: 00 19 62 0E 01 4E 00 1A  62 0E 01 BA 1B 62 0E 01  ..b..N..b....b..
01A0: 20 80 21 80 1A 80 22 80  BA 19 62 0E 01 23 80 24   .!..."...b..#.$
01B0: 80 1A 80 25 80 BA 1A 62  0E 01 26 80 27 80 1A 80  ...%...b..&.'...
01C0: 28 80 80 1B 62 0E 01 80  19 62 0E 01 80 1A 62 0E  (...b....b....b.
01D0: 01 1C 29 80 03 4F 10 03  80 52 15 80 F8 FF FF 7F  ..)..O...R......
01E0: F8 FF FF 7F 73 30 30 32  45 15 80 F8 FF FF 7F F8  ....s002E.......
01F0: FF FF 7F 73 30 30 35 03  80 03 55 10 16 80 03 54  ...s005...U....T
0200: 10 2A 80 03 4F 10 16 80  1C 2B 80 27 05 15 62 0E  .*..O....+.'..b.
0210: 01 02 27 05 1B 62 0E 01  02 02 53 10 03 80 00 27  ..'..b....S....'
0220: 02 1C 2C 80 01 32 02 1C  14 80 03 4F 10 03 80 1C  ..,..2.....O....
0230: 2D 80 27 05 16 62 0E 01  02 27 05 19 62 0E 01 02  -.'..b...'..b...
0240: 02 53 10 03 80 00 56 02  1C 2D 80 03 4F 10 03 80  .S....V..-..O...
0250: 1C 2E 80 01 59 02 1C 2B  80 27 05 17 62 0E 01 02  ....Y..+.'..b...
0260: 27 05 1A 62 0E 01 02 02  53 10 03 80 00 75 02 1C  '..b....S....u..
0270: 2F 80 01 78 02 1C 30 80  01 9D 04 02 00 00 16 80  /..x..0.........
0280: 80 94 03 4E 00 18 62 0E  01 4E 00 1C 62 0E 01 4E  ...N..b..N..b..N
0290: 00 1A 62 0E 01 BA 18 62  0E 01 20 80 21 80 1A 80  ..b....b.. .!...
02A0: 22 80 BA 1C 62 0E 01 23  80 24 80 1A 80 25 80 BA  "...b..#.$...%..
02B0: 1A 62 0E 01 26 80 27 80  1A 80 28 80 80 18 62 0E  .b..&.'...(...b.
02C0: 01 80 1C 62 0E 01 80 1A  62 0E 01 1C 29 80 03 4F  ...b....b...)..O
02D0: 10 03 80 52 15 80 F8 FF  FF 7F F8 FF FF 7F 73 30  ...R..........s0
02E0: 30 32 45 15 80 F8 FF FF  7F F8 FF FF 7F 73 30 30  02E..........s00
02F0: 35 03 80 03 55 10 16 80  03 54 10 2A 80 02 53 10  5...U....T.*..S.
0300: 03 80 00 0B 03 1C 29 80  01 0E 03 1C 2B 80 27 05  ......).....+.'.
0310: 15 62 0E 01 02 27 05 18  62 0E 01 02 02 53 10 03  .b...'..b....S..
0320: 80 00 2A 03 1C 2B 80 01  2D 03 1C 31 80 03 4F 10  ..*..+..-..1..O.
0330: 16 80 02 53 10 03 80 00  40 03 1C 29 80 01 43 03  ...S....@..)..C.
0340: 1C 32 80 27 05 16 62 0E  01 02 27 05 1C 62 0E 01  .2.'..b...'..b..
0350: 02 02 53 10 03 80 00 5F  03 1C 2C 80 01 6A 03 1C  ..S...._..,..j..
0360: 2B 80 03 4F 10 03 80 1C  2B 80 27 05 17 62 0E 01  +..O....+.'..b..
0370: 02 27 05 1A 62 0E 01 02  02 53 10 03 80 00 8E 03  .'..b....S......
0380: 1C 2E 80 03 4F 10 03 80  1C 2B 80 01 91 03 1C 30  ....O....+.....0
0390: 80 01 9D 04 02 00 00 17  80 80 9D 04 4E 00 18 62  ............N..b
03A0: 0E 01 4E 00 19 62 0E 01  4E 00 1D 62 0E 01 BA 18  ..N..b..N..b....
03B0: 62 0E 01 20 80 21 80 1A  80 22 80 BA 19 62 0E 01  b.. .!..."...b..
03C0: 23 80 24 80 1A 80 25 80  BA 1D 62 0E 01 26 80 27  #.$...%...b..&.'
03D0: 80 1A 80 28 80 80 18 62  0E 01 80 19 62 0E 01 80  ...(...b....b...
03E0: 1D 62 0E 01 1C 29 80 03  4F 10 03 80 52 15 80 F8  .b...)..O...R...
03F0: FF FF 7F F8 FF FF 7F 73  30 30 32 45 15 80 F8 FF  .......s002E....
0400: FF 7F F8 FF FF 7F 73 30  30 35 03 80 03 55 10 16  ......s005...U..
0410: 80 03 54 10 2A 80 02 53  10 03 80 00 24 04 1C 29  ..T.*..S....$..)
0420: 80 01 27 04 1C 2B 80 27  05 15 62 0E 01 02 27 05  ..'..+.'..b...'.
0430: 18 62 0E 01 02 02 53 10  03 80 00 43 04 1C 2C 80  .b....S....C..,.
0440: 01 46 04 1C 29 80 27 05  16 62 0E 01 02 27 05 19  .F..).'..b...'..
0450: 62 0E 01 02 02 53 10 03  80 00 62 04 1C 33 80 01  b....S....b..3..
0460: 65 04 1C 31 80 03 4F 10  16 80 02 53 10 03 80 00  e..1..O....S....
0470: 78 04 1C 30 80 01 7B 04  1C 32 80 27 05 17 62 0E  x..0..{..2.'..b.
0480: 01 02 27 05 1D 62 0E 01  02 02 53 10 03 80 00 97  ..'..b....S.....
0490: 04 1C 2F 80 01 9A 04 1C  2E 80 01 9D 04 27 05 0C  ../..........'..
04A0: 62 0E 01 03 00                                    b....           
```

#### Opcodes

```
  0: 0x0122 [0x4E] SET_ENTITY_HIDE_FLAG: Hide Unnamed NPC (ID: 17719832/0x010E6218)
  1: 0x0128 [0x4E] SET_ENTITY_HIDE_FLAG: Hide Unnamed NPC (ID: 17719833/0x010E6219)
  2: 0x012E [0x4E] SET_ENTITY_HIDE_FLAG: Hide Unnamed NPC (ID: 17719834/0x010E621A)
  3: 0x0134 [0x4E] SET_ENTITY_HIDE_FLAG: Hide Unnamed NPC (ID: 17719835/0x010E621B)
  4: 0x013A [0x4E] SET_ENTITY_HIDE_FLAG: Hide Unnamed NPC (ID: 17719836/0x010E621C)
  5: 0x0140 [0x4E] SET_ENTITY_HIDE_FLAG: Hide Unnamed NPC (ID: 17719837/0x010E621D)
  6: 0x0146 [0xBA] SET_ENTITY_POSITION(entity_id=Unnamed NPC (ID: 17719829/0x010E6215), pos_x=-159.715*, pos_z=67.442*, pos_y=-2.000*, direction=81.6°*)
  7: 0x0153 [0xBA] SET_ENTITY_POSITION(entity_id=Unnamed NPC (ID: 17719830/0x010E6216), pos_x=-159.950*, pos_z=68.632*, pos_y=-2.000*, direction=81.6°*)
  8: 0x0160 [0xBA] SET_ENTITY_POSITION(entity_id=Unnamed NPC (ID: 17719831/0x010E6217), pos_x=-160.100*, pos_z=69.435*, pos_y=-2.000*, direction=81.6°*)
  9: 0x016D [0x80] LOAD_WAIT(entity=Unnamed NPC (ID: 17719829/0x010E6215))
 10: 0x0172 [0x80] LOAD_WAIT(entity=Unnamed NPC (ID: 17719830/0x010E6216))
 11: 0x0177 [0x80] LOAD_WAIT(entity=Unnamed NPC (ID: 17719831/0x010E6217))
 12: 0x017C [0x13] ExtData[1]->WorkLocal[0] = rand() % 2*
 13: 0x0181 [0x02] IF !(ExtData[1]->WorkLocal[0] == 0*) GOTO 0x027B
 14: 0x0189 [0x4E] SET_ENTITY_HIDE_FLAG: Show Unnamed NPC (ID: 17719835/0x010E621B)
 15: 0x018F [0x4E] SET_ENTITY_HIDE_FLAG: Show Unnamed NPC (ID: 17719833/0x010E6219)
 16: 0x0195 [0x4E] SET_ENTITY_HIDE_FLAG: Show Unnamed NPC (ID: 17719834/0x010E621A)
 17: 0x019B [0xBA] SET_ENTITY_POSITION(entity_id=Unnamed NPC (ID: 17719835/0x010E621B), pos_x=-158.593*, pos_z=67.327*, pos_y=-2.000*, direction=90.4°*)
 18: 0x01A8 [0xBA] SET_ENTITY_POSITION(entity_id=Unnamed NPC (ID: 17719833/0x010E6219), pos_x=-158.550*, pos_z=68.483*, pos_y=-2.000*, direction=90.3°*)
 19: 0x01B5 [0xBA] SET_ENTITY_POSITION(entity_id=Unnamed NPC (ID: 17719834/0x010E621A), pos_x=-158.500*, pos_z=69.461*, pos_y=-2.000*, direction=95.1°*)
 20: 0x01C2 [0x80] LOAD_WAIT(entity=Unnamed NPC (ID: 17719835/0x010E621B))
 21: 0x01C7 [0x80] LOAD_WAIT(entity=Unnamed NPC (ID: 17719833/0x010E6219))
 22: 0x01CC [0x80] LOAD_WAIT(entity=Unnamed NPC (ID: 17719834/0x010E621A))
 23: 0x01D1 [0x1C] WAIT(60* ticks)
 24: 0x01D4 [0x03] Work_Zone[79] = 0*
 25: 0x01D9 [0x52] END_LOAD_SCHEDULER: End scheduler "s002" with entities [EventEntity, EventEntity], work=337*
 26: 0x01E8 [0x45] LOAD_SCHEDULED_TASK: Load scheduler "s005" with entities [EventEntity, EventEntity], work=[337*, 0*]
 27: 0x01F9 [0x03] Work_Zone[85] = 1*
 28: 0x01FE [0x03] Work_Zone[84] = 3*
 29: 0x0203 [0x03] Work_Zone[79] = 1*
 30: 0x0208 [0x1C] WAIT(30* ticks)
 31: 0x020B [0x27] REQ_SET(priority=0x05, entity_id=Unnamed NPC (ID: 17719829/0x010E6215), tag_num=0x02)
 32: 0x0212 [0x27] REQ_SET(priority=0x05, entity_id=Unnamed NPC (ID: 17719835/0x010E621B), tag_num=0x02)
 33: 0x0219 [0x02] IF !(Work_Zone[83] == 0*) GOTO 0x0227
 34: 0x0221 [0x1C] WAIT(90* ticks)
 35: 0x0224 [0x01] GOTO 0x0232
 36: 0x0227 [0x1C] WAIT(40* ticks)
 37: 0x022A [0x03] Work_Zone[79] = 0*
 38: 0x022F [0x1C] WAIT(20* ticks)

SUBROUTINE_0232:
 39: 0x0232 [0x27] REQ_SET(priority=0x05, entity_id=Unnamed NPC (ID: 17719830/0x010E6216), tag_num=0x02)
 40: 0x0239 [0x27] REQ_SET(priority=0x05, entity_id=Unnamed NPC (ID: 17719833/0x010E6219), tag_num=0x02)
 41: 0x0240 [0x02] IF !(Work_Zone[83] == 0*) GOTO 0x0256
 42: 0x0248 [0x1C] WAIT(20* ticks)
 43: 0x024B [0x03] Work_Zone[79] = 0*
 44: 0x0250 [0x1C] WAIT(70* ticks)
 45: 0x0253 [0x01] GOTO 0x0259
 46: 0x0256 [0x1C] WAIT(30* ticks)

SUBROUTINE_0259:
 47: 0x0259 [0x27] REQ_SET(priority=0x05, entity_id=Unnamed NPC (ID: 17719831/0x010E6217), tag_num=0x02)
 48: 0x0260 [0x27] REQ_SET(priority=0x05, entity_id=Unnamed NPC (ID: 17719834/0x010E621A), tag_num=0x02)
 49: 0x0267 [0x02] IF !(Work_Zone[83] == 0*) GOTO 0x0275
 50: 0x026F [0x1C] WAIT(100* ticks)
 51: 0x0272 [0x01] GOTO 0x0278
 52: 0x0275 [0x1C] WAIT(80* ticks)

SUBROUTINE_0278:
 53: 0x0278 [0x01] GOTO 0x049D
 54: 0x027B [0x02] IF !(ExtData[1]->WorkLocal[0] == 1*) GOTO 0x0394
 55: 0x0283 [0x4E] SET_ENTITY_HIDE_FLAG: Show Unnamed NPC (ID: 17719832/0x010E6218)
 56: 0x0289 [0x4E] SET_ENTITY_HIDE_FLAG: Show Unnamed NPC (ID: 17719836/0x010E621C)
 57: 0x028F [0x4E] SET_ENTITY_HIDE_FLAG: Show Unnamed NPC (ID: 17719834/0x010E621A)
 58: 0x0295 [0xBA] SET_ENTITY_POSITION(entity_id=Unnamed NPC (ID: 17719832/0x010E6218), pos_x=-158.593*, pos_z=67.327*, pos_y=-2.000*, direction=90.4°*)
 59: 0x02A2 [0xBA] SET_ENTITY_POSITION(entity_id=Unnamed NPC (ID: 17719836/0x010E621C), pos_x=-158.550*, pos_z=68.483*, pos_y=-2.000*, direction=90.3°*)
 60: 0x02AF [0xBA] SET_ENTITY_POSITION(entity_id=Unnamed NPC (ID: 17719834/0x010E621A), pos_x=-158.500*, pos_z=69.461*, pos_y=-2.000*, direction=95.1°*)
 61: 0x02BC [0x80] LOAD_WAIT(entity=Unnamed NPC (ID: 17719832/0x010E6218))
 62: 0x02C1 [0x80] LOAD_WAIT(entity=Unnamed NPC (ID: 17719836/0x010E621C))
 63: 0x02C6 [0x80] LOAD_WAIT(entity=Unnamed NPC (ID: 17719834/0x010E621A))
 64: 0x02CB [0x1C] WAIT(60* ticks)
 65: 0x02CE [0x03] Work_Zone[79] = 0*
 66: 0x02D3 [0x52] END_LOAD_SCHEDULER: End scheduler "s002" with entities [EventEntity, EventEntity], work=337*
 67: 0x02E2 [0x45] LOAD_SCHEDULED_TASK: Load scheduler "s005" with entities [EventEntity, EventEntity], work=[337*, 0*]
 68: 0x02F3 [0x03] Work_Zone[85] = 1*
 69: 0x02F8 [0x03] Work_Zone[84] = 3*
 70: 0x02FD [0x02] IF !(Work_Zone[83] == 0*) GOTO 0x030B
 71: 0x0305 [0x1C] WAIT(60* ticks)
 72: 0x0308 [0x01] GOTO 0x030E
 73: 0x030B [0x1C] WAIT(30* ticks)

SUBROUTINE_030E:
 74: 0x030E [0x27] REQ_SET(priority=0x05, entity_id=Unnamed NPC (ID: 17719829/0x010E6215), tag_num=0x02)
 75: 0x0315 [0x27] REQ_SET(priority=0x05, entity_id=Unnamed NPC (ID: 17719832/0x010E6218), tag_num=0x02)
 76: 0x031C [0x02] IF !(Work_Zone[83] == 0*) GOTO 0x032A
 77: 0x0324 [0x1C] WAIT(30* ticks)
 78: 0x0327 [0x01] GOTO 0x032D
 79: 0x032A [0x1C] WAIT(5* ticks)

SUBROUTINE_032D:
 80: 0x032D [0x03] Work_Zone[79] = 1*
 81: 0x0332 [0x02] IF !(Work_Zone[83] == 0*) GOTO 0x0340
 82: 0x033A [0x1C] WAIT(60* ticks)
 83: 0x033D [0x01] GOTO 0x0343
 84: 0x0340 [0x1C] WAIT(55* ticks)

SUBROUTINE_0343:
 85: 0x0343 [0x27] REQ_SET(priority=0x05, entity_id=Unnamed NPC (ID: 17719830/0x010E6216), tag_num=0x02)
 86: 0x034A [0x27] REQ_SET(priority=0x05, entity_id=Unnamed NPC (ID: 17719836/0x010E621C), tag_num=0x02)
 87: 0x0351 [0x02] IF !(Work_Zone[83] == 0*) GOTO 0x035F
 88: 0x0359 [0x1C] WAIT(90* ticks)
 89: 0x035C [0x01] GOTO 0x036A
 90: 0x035F [0x1C] WAIT(30* ticks)
 91: 0x0362 [0x03] Work_Zone[79] = 0*
 92: 0x0367 [0x1C] WAIT(30* ticks)

SUBROUTINE_036A:
 93: 0x036A [0x27] REQ_SET(priority=0x05, entity_id=Unnamed NPC (ID: 17719831/0x010E6217), tag_num=0x02)
 94: 0x0371 [0x27] REQ_SET(priority=0x05, entity_id=Unnamed NPC (ID: 17719834/0x010E621A), tag_num=0x02)
 95: 0x0378 [0x02] IF !(Work_Zone[83] == 0*) GOTO 0x038E
 96: 0x0380 [0x1C] WAIT(70* ticks)
 97: 0x0383 [0x03] Work_Zone[79] = 0*
 98: 0x0388 [0x1C] WAIT(30* ticks)
 99: 0x038B [0x01] GOTO 0x0391
100: 0x038E [0x1C] WAIT(80* ticks)

SUBROUTINE_0391:
101: 0x0391 [0x01] GOTO 0x049D
102: 0x0394 [0x02] IF !(ExtData[1]->WorkLocal[0] == 2*) GOTO 0x049D
103: 0x039C [0x4E] SET_ENTITY_HIDE_FLAG: Show Unnamed NPC (ID: 17719832/0x010E6218)
104: 0x03A2 [0x4E] SET_ENTITY_HIDE_FLAG: Show Unnamed NPC (ID: 17719833/0x010E6219)
105: 0x03A8 [0x4E] SET_ENTITY_HIDE_FLAG: Show Unnamed NPC (ID: 17719837/0x010E621D)
106: 0x03AE [0xBA] SET_ENTITY_POSITION(entity_id=Unnamed NPC (ID: 17719832/0x010E6218), pos_x=-158.593*, pos_z=67.327*, pos_y=-2.000*, direction=90.4°*)
107: 0x03BB [0xBA] SET_ENTITY_POSITION(entity_id=Unnamed NPC (ID: 17719833/0x010E6219), pos_x=-158.550*, pos_z=68.483*, pos_y=-2.000*, direction=90.3°*)
108: 0x03C8 [0xBA] SET_ENTITY_POSITION(entity_id=Unnamed NPC (ID: 17719837/0x010E621D), pos_x=-158.500*, pos_z=69.461*, pos_y=-2.000*, direction=95.1°*)
109: 0x03D5 [0x80] LOAD_WAIT(entity=Unnamed NPC (ID: 17719832/0x010E6218))
110: 0x03DA [0x80] LOAD_WAIT(entity=Unnamed NPC (ID: 17719833/0x010E6219))
111: 0x03DF [0x80] LOAD_WAIT(entity=Unnamed NPC (ID: 17719837/0x010E621D))
112: 0x03E4 [0x1C] WAIT(60* ticks)
113: 0x03E7 [0x03] Work_Zone[79] = 0*
114: 0x03EC [0x52] END_LOAD_SCHEDULER: End scheduler "s002" with entities [EventEntity, EventEntity], work=337*
115: 0x03FB [0x45] LOAD_SCHEDULED_TASK: Load scheduler "s005" with entities [EventEntity, EventEntity], work=[337*, 0*]
116: 0x040C [0x03] Work_Zone[85] = 1*
117: 0x0411 [0x03] Work_Zone[84] = 3*
118: 0x0416 [0x02] IF !(Work_Zone[83] == 0*) GOTO 0x0424
119: 0x041E [0x1C] WAIT(60* ticks)
120: 0x0421 [0x01] GOTO 0x0427
121: 0x0424 [0x1C] WAIT(30* ticks)

SUBROUTINE_0427:
122: 0x0427 [0x27] REQ_SET(priority=0x05, entity_id=Unnamed NPC (ID: 17719829/0x010E6215), tag_num=0x02)
123: 0x042E [0x27] REQ_SET(priority=0x05, entity_id=Unnamed NPC (ID: 17719832/0x010E6218), tag_num=0x02)
124: 0x0435 [0x02] IF !(Work_Zone[83] == 0*) GOTO 0x0443
125: 0x043D [0x1C] WAIT(90* ticks)
126: 0x0440 [0x01] GOTO 0x0446
127: 0x0443 [0x1C] WAIT(60* ticks)

SUBROUTINE_0446:
128: 0x0446 [0x27] REQ_SET(priority=0x05, entity_id=Unnamed NPC (ID: 17719830/0x010E6216), tag_num=0x02)
129: 0x044D [0x27] REQ_SET(priority=0x05, entity_id=Unnamed NPC (ID: 17719833/0x010E6219), tag_num=0x02)
130: 0x0454 [0x02] IF !(Work_Zone[83] == 0*) GOTO 0x0462
131: 0x045C [0x1C] WAIT(10* ticks)
132: 0x045F [0x01] GOTO 0x0465
133: 0x0462 [0x1C] WAIT(5* ticks)

SUBROUTINE_0465:
134: 0x0465 [0x03] Work_Zone[79] = 1*
135: 0x046A [0x02] IF !(Work_Zone[83] == 0*) GOTO 0x0478
136: 0x0472 [0x1C] WAIT(80* ticks)
137: 0x0475 [0x01] GOTO 0x047B
138: 0x0478 [0x1C] WAIT(55* ticks)

SUBROUTINE_047B:
139: 0x047B [0x27] REQ_SET(priority=0x05, entity_id=Unnamed NPC (ID: 17719831/0x010E6217), tag_num=0x02)
140: 0x0482 [0x27] REQ_SET(priority=0x05, entity_id=Unnamed NPC (ID: 17719837/0x010E621D), tag_num=0x02)
141: 0x0489 [0x02] IF !(Work_Zone[83] == 0*) GOTO 0x0497
142: 0x0491 [0x1C] WAIT(100* ticks)
143: 0x0494 [0x01] GOTO 0x049A
144: 0x0497 [0x1C] WAIT(70* ticks)

SUBROUTINE_049A:
145: 0x049A [0x01] GOTO 0x049D

SUBROUTINE_049D:
146: 0x049D [0x27] REQ_SET(priority=0x05, entity_id=Unnamed NPC (ID: 17719820/0x010E620C), tag_num=0x03)
147: 0x04A4 [0x00] END_REQSTACK()
```

### Event 65535.3

#### Metadata

| Field        | Value      |
|--------------|------------|
| Entrypoint   | 0x04A5     |
| Data Size    | 1440 bytes |
| Instructions | 262        |

```
      00 01 02 03 04 05 06 07  08 09 0A 0B 0C 0D 0E 0F
      -- -- -- -- -- -- -- --  -- -- -- -- -- -- -- --
04A0:                7A 00 15  62 0E 01 7A 00 16 62 0E       z..b..z..b.
04B0: 01 7A 00 17 62 0E 01 7A  00 18 62 0E 01 7A 00 19  .z..b..z..b..z..
04C0: 62 0E 01 7A 00 1A 62 0E  01 7A 00 1B 62 0E 01 7A  b..z..b..z..b..z
04D0: 00 1C 62 0E 01 7A 00 1D  62 0E 01 99 0D 62 0E 01  ..b..z..b....b..
04E0: 99 0E 62 0E 01 99 0F 62  0E 01 99 10 62 0E 01 99  ..b....b....b...
04F0: 11 62 0E 01 99 12 62 0E  01 4E 00 18 62 0E 01 4E  .b....b..N..b..N
0500: 00 19 62 0E 01 BA 0D 62  0E 01 34 80 35 80 36 80  ..b....b..4.5.6.
0510: 37 80 BA 0E 62 0E 01 38  80 39 80 36 80 3A 80 BA  7...b..8.9.6.:..
0520: 0F 62 0E 01 3B 80 3C 80  36 80 3D 80 BA 15 62 0E  .b..;.<.6.=...b.
0530: 01 3E 80 3F 80 36 80 40  80 BA 16 62 0E 01 41 80  .>.?.6.@...b..A.
0540: 42 80 36 80 43 80 BA 10  62 0E 01 44 80 45 80 36  B.6.C...b..D.E.6
0550: 80 46 80 BA 11 62 0E 01  47 80 48 80 36 80 49 80  .F...b..G.H.6.I.
0560: BA 12 62 0E 01 4A 80 4B  80 36 80 4C 80 BA 18 62  ..b..J.K.6.L...b
0570: 0E 01 4D 80 4E 80 36 80  4F 80 BA 19 62 0E 01 50  ..M.N.6.O...b..P
0580: 80 51 80 36 80 52 80 80  0D 62 0E 01 80 0E 62 0E  .Q.6.R...b....b.
0590: 01 80 0F 62 0E 01 80 15  62 0E 01 80 16 62 0E 01  ...b....b....b..
05A0: 80 10 62 0E 01 80 11 62  0E 01 80 12 62 0E 01 80  ..b....b....b...
05B0: 18 62 0E 01 80 19 62 0E  01 1C 29 80 03 4F 10 03  .b....b...)..O..
05C0: 80 45 15 80 F8 FF FF 7F  F8 FF FF 7F 73 30 30 36  .E..........s006
05D0: 03 80 03 55 10 16 80 03  54 10 31 80 13 00 00 53  ...U....T.1....S
05E0: 80 02 00 00 03 80 80 C3  06 6E 0D 62 0E 01 54 80  .........n.b..T.
05F0: 99 0D 62 0E 01 6E 10 62  0E 01 00 80 99 10 62 0E  ..b..n.b......b.
0600: 01 03 4F 10 16 80 02 53  10 03 80 00 14 06 1C 2C  ..O....S.......,
0610: 80 01 17 06 1C 29 80 03  4F 10 03 80 6E 0E 62 0E  .....)..O...n.b.
0620: 01 54 80 99 0E 62 0E 01  6E 11 62 0E 01 54 80 99  .T...b..n.b..T..
0630: 11 62 0E 01 02 53 10 03  80 00 42 06 1C 2C 80 01  .b...S....B..,..
0640: 45 06 1C 29 80 6E 0F 62  0E 01 54 80 99 0F 62 0E  E..).n.b..T...b.
0650: 01 6E 12 62 0E 01 54 80  99 12 62 0E 01 02 53 10  .n.b..T...b...S.
0660: 03 80 00 6B 06 1C 2C 80  01 6E 06 1C 29 80 6E 15  ...k..,..n..).n.
0670: 62 0E 01 54 80 99 15 62  0E 01 6E 18 62 0E 01 54  b..T...b..n.b..T
0680: 80 99 18 62 0E 01 02 53  10 03 80 00 94 06 1C 2C  ...b...S.......,
0690: 80 01 97 06 1C 29 80 6E  16 62 0E 01 54 80 99 16  .....).n.b..T...
06A0: 62 0E 01 6E 19 62 0E 01  54 80 99 19 62 0E 01 02  b..n.b..T...b...
06B0: 53 10 03 80 00 BD 06 1C  2C 80 01 C0 06 1C 29 80  S.......,.....).
06C0: 01 3D 0A 02 00 00 16 80  80 A5 07 6E 0D 62 0E 01  .=.........n.b..
06D0: 54 80 99 0D 62 0E 01 6E  10 62 0E 01 54 80 99 10  T...b..n.b..T...
06E0: 62 0E 01 02 53 10 03 80  00 F1 06 1C 2C 80 01 F4  b...S.......,...
06F0: 06 1C 29 80 6E 0E 62 0E  01 54 80 99 0E 62 0E 01  ..).n.b..T...b..
0700: 6E 11 62 0E 01 00 80 99  11 62 0E 01 03 4F 10 16  n.b......b...O..
0710: 80 02 53 10 03 80 00 1F  07 1C 2C 80 01 22 07 1C  ..S.......,.."..
0720: 29 80 03 4F 10 03 80 6E  0F 62 0E 01 54 80 99 0F  )..O...n.b..T...
0730: 62 0E 01 6E 12 62 0E 01  54 80 99 12 62 0E 01 02  b..n.b..T...b...
0740: 53 10 03 80 00 4D 07 1C  2C 80 01 50 07 1C 29 80  S....M..,..P..).
0750: 6E 15 62 0E 01 54 80 99  15 62 0E 01 6E 18 62 0E  n.b..T...b..n.b.
0760: 01 54 80 99 18 62 0E 01  02 53 10 03 80 00 76 07  .T...b...S....v.
0770: 1C 2C 80 01 79 07 1C 29  80 6E 16 62 0E 01 54 80  .,..y..).n.b..T.
0780: 99 16 62 0E 01 6E 19 62  0E 01 54 80 99 19 62 0E  ..b..n.b..T...b.
0790: 01 02 53 10 03 80 00 9F  07 1C 2C 80 01 A2 07 1C  ..S.......,.....
07A0: 29 80 01 3D 0A 02 00 00  17 80 80 87 08 6E 0D 62  )..=.........n.b
07B0: 0E 01 54 80 99 0D 62 0E  01 6E 10 62 0E 01 54 80  ..T...b..n.b..T.
07C0: 99 10 62 0E 01 02 53 10  03 80 00 D3 07 1C 2C 80  ..b...S.......,.
07D0: 01 D6 07 1C 29 80 6E 0E  62 0E 01 54 80 99 0E 62  ....).n.b..T...b
07E0: 0E 01 6E 11 62 0E 01 54  80 99 11 62 0E 01 02 53  ..n.b..T...b...S
07F0: 10 03 80 00 FC 07 1C 2C  80 01 FF 07 1C 29 80 6E  .......,.....).n
0800: 0F 62 0E 01 54 80 99 0F  62 0E 01 6E 12 62 0E 01  .b..T...b..n.b..
0810: 00 80 99 12 62 0E 01 03  4F 10 16 80 02 53 10 03  ....b...O....S..
0820: 80 00 2A 08 1C 2C 80 01  2D 08 1C 29 80 03 4F 10  ..*..,..-..)..O.
0830: 03 80 6E 15 62 0E 01 54  80 99 15 62 0E 01 6E 18  ..n.b..T...b..n.
0840: 62 0E 01 54 80 99 18 62  0E 01 02 53 10 03 80 00  b..T...b...S....
0850: 58 08 1C 2C 80 01 5B 08  1C 29 80 6E 16 62 0E 01  X..,..[..).n.b..
0860: 54 80 99 16 62 0E 01 6E  19 62 0E 01 54 80 99 19  T...b..n.b..T...
0870: 62 0E 01 02 53 10 03 80  00 81 08 1C 2C 80 01 84  b...S.......,...
0880: 08 1C 29 80 01 3D 0A 02  00 00 2A 80 80 5B 09 6E  ..)..=....*..[.n
0890: 0D 62 0E 01 54 80 99 0D  62 0E 01 6E 10 62 0E 01  .b..T...b..n.b..
08A0: 54 80 99 10 62 0E 01 1C  29 80 6E 0E 62 0E 01 54  T...b...).n.b..T
08B0: 80 99 0E 62 0E 01 6E 11  62 0E 01 54 80 99 11 62  ...b..n.b..T...b
08C0: 0E 01 02 53 10 03 80 00  D0 08 1C 2C 80 01 D3 08  ...S.......,....
08D0: 1C 29 80 6E 0F 62 0E 01  54 80 99 0F 62 0E 01 6E  .).n.b..T...b..n
08E0: 12 62 0E 01 54 80 99 12  62 0E 01 02 53 10 03 80  .b..T...b...S...
08F0: 00 F9 08 1C 2C 80 01 FC  08 1C 29 80 6E 15 62 0E  ....,.....).n.b.
0900: 01 54 80 99 15 62 0E 01  6E 18 62 0E 01 00 80 99  .T...b..n.b.....
0910: 18 62 0E 01 03 4F 10 16  80 02 53 10 03 80 00 27  .b...O....S....'
0920: 09 1C 2C 80 01 2A 09 1C  29 80 03 4F 10 03 80 6E  ..,..*..)..O...n
0930: 16 62 0E 01 54 80 99 16  62 0E 01 6E 19 62 0E 01  .b..T...b..n.b..
0940: 54 80 99 19 62 0E 01 02  53 10 03 80 00 55 09 1C  T...b...S....U..
0950: 2C 80 01 58 09 1C 29 80  01 3D 0A 02 00 00 53 80  ,..X..)..=....S.
0960: 80 3D 0A 6E 0D 62 0E 01  54 80 99 0D 62 0E 01 6E  .=.n.b..T...b..n
0970: 10 62 0E 01 54 80 99 10  62 0E 01 02 53 10 03 80  .b..T...b...S...
0980: 00 89 09 1C 2C 80 01 8C  09 1C 29 80 6E 0E 62 0E  ....,.....).n.b.
0990: 01 54 80 99 0E 62 0E 01  6E 11 62 0E 01 54 80 99  .T...b..n.b..T..
09A0: 11 62 0E 01 02 53 10 03  80 00 B2 09 1C 2C 80 01  .b...S.......,..
09B0: B5 09 1C 29 80 6E 0F 62  0E 01 54 80 99 0F 62 0E  ...).n.b..T...b.
09C0: 01 6E 12 62 0E 01 54 80  99 12 62 0E 01 02 53 10  .n.b..T...b...S.
09D0: 03 80 00 DB 09 1C 2C 80  01 DE 09 1C 29 80 6E 15  ......,.....).n.
09E0: 62 0E 01 54 80 99 15 62  0E 01 6E 18 62 0E 01 54  b..T...b..n.b..T
09F0: 80 99 18 62 0E 01 02 53  10 03 80 00 04 0A 1C 2C  ...b...S.......,
0A00: 80 01 07 0A 1C 29 80 6E  16 62 0E 01 54 80 99 16  .....).n.b..T...
0A10: 62 0E 01 6E 19 62 0E 01  00 80 99 19 62 0E 01 03  b..n.b......b...
0A20: 4F 10 16 80 02 53 10 03  80 00 32 0A 1C 2C 80 01  O....S....2..,..
0A30: 35 0A 1C 29 80 03 4F 10  03 80 01 3D 0A 27 05 0C  5..)..O....=.'..
0A40: 62 0E 01 04 00                                    b....           
```

#### Opcodes

```
  0: 0x04A5 [0x7A] VM_CONTROL: Reset VM for Unnamed NPC (ID: 17719829/0x010E6215)
  1: 0x04AB [0x7A] VM_CONTROL: Reset VM for Unnamed NPC (ID: 17719830/0x010E6216)
  2: 0x04B1 [0x7A] VM_CONTROL: Reset VM for Unnamed NPC (ID: 17719831/0x010E6217)
  3: 0x04B7 [0x7A] VM_CONTROL: Reset VM for Unnamed NPC (ID: 17719832/0x010E6218)
  4: 0x04BD [0x7A] VM_CONTROL: Reset VM for Unnamed NPC (ID: 17719833/0x010E6219)
  5: 0x04C3 [0x7A] VM_CONTROL: Reset VM for Unnamed NPC (ID: 17719834/0x010E621A)
  6: 0x04C9 [0x7A] VM_CONTROL: Reset VM for Unnamed NPC (ID: 17719835/0x010E621B)
  7: 0x04CF [0x7A] VM_CONTROL: Reset VM for Unnamed NPC (ID: 17719836/0x010E621C)
  8: 0x04D5 [0x7A] VM_CONTROL: Reset VM for Unnamed NPC (ID: 17719837/0x010E621D)
  9: 0x04DB [0x99] Wait for Unnamed NPC (ID: 17719821/0x010E620D) animation to complete
 10: 0x04E0 [0x99] Wait for Unnamed NPC (ID: 17719822/0x010E620E) animation to complete
 11: 0x04E5 [0x99] Wait for Unnamed NPC (ID: 17719823/0x010E620F) animation to complete
 12: 0x04EA [0x99] Wait for Unnamed NPC (ID: 17719824/0x010E6210) animation to complete
 13: 0x04EF [0x99] Wait for Unnamed NPC (ID: 17719825/0x010E6211) animation to complete
 14: 0x04F4 [0x99] Wait for Unnamed NPC (ID: 17719826/0x010E6212) animation to complete
 15: 0x04F9 [0x4E] SET_ENTITY_HIDE_FLAG: Show Unnamed NPC (ID: 17719832/0x010E6218)
 16: 0x04FF [0x4E] SET_ENTITY_HIDE_FLAG: Show Unnamed NPC (ID: 17719833/0x010E6219)
 17: 0x0505 [0xBA] SET_ENTITY_POSITION(entity_id=Unnamed NPC (ID: 17719821/0x010E620D), pos_x=-27.239*, pos_z=-95.570*, pos_y=2.000*, direction=316.4°*)
 18: 0x0512 [0xBA] SET_ENTITY_POSITION(entity_id=Unnamed NPC (ID: 17719822/0x010E620E), pos_x=-26.764*, pos_z=-96.258*, pos_y=2.000*, direction=290.0°*)
 19: 0x051F [0xBA] SET_ENTITY_POSITION(entity_id=Unnamed NPC (ID: 17719823/0x010E620F), pos_x=-22.255*, pos_z=-96.265*, pos_y=2.000*, direction=151.5°*)
 20: 0x052C [0xBA] SET_ENTITY_POSITION(entity_id=Unnamed NPC (ID: 17719829/0x010E6215), pos_x=-24.017*, pos_z=-95.733*, pos_y=2.000*, direction=30.8°*)
 21: 0x0539 [0xBA] SET_ENTITY_POSITION(entity_id=Unnamed NPC (ID: 17719830/0x010E6216), pos_x=-23.025*, pos_z=-95.499*, pos_y=2.000*, direction=91.3°*)
 22: 0x0546 [0xBA] SET_ENTITY_POSITION(entity_id=Unnamed NPC (ID: 17719824/0x010E6210), pos_x=-24.195*, pos_z=-97.207*, pos_y=2.000*, direction=305.6°*)
 23: 0x0553 [0xBA] SET_ENTITY_POSITION(entity_id=Unnamed NPC (ID: 17719825/0x010E6211), pos_x=-23.530*, pos_z=-97.803*, pos_y=2.000*, direction=274.0°*)
 24: 0x0560 [0xBA] SET_ENTITY_POSITION(entity_id=Unnamed NPC (ID: 17719826/0x010E6212), pos_x=-24.712*, pos_z=-94.615*, pos_y=2.000*, direction=156.8°*)
 25: 0x056D [0xBA] SET_ENTITY_POSITION(entity_id=Unnamed NPC (ID: 17719832/0x010E6218), pos_x=-26.487*, pos_z=-94.081*, pos_y=2.000*, direction=54.1°*)
 26: 0x057A [0xBA] SET_ENTITY_POSITION(entity_id=Unnamed NPC (ID: 17719833/0x010E6219), pos_x=-25.314*, pos_z=-93.886*, pos_y=2.000*, direction=98.5°*)
 27: 0x0587 [0x80] LOAD_WAIT(entity=Unnamed NPC (ID: 17719821/0x010E620D))
 28: 0x058C [0x80] LOAD_WAIT(entity=Unnamed NPC (ID: 17719822/0x010E620E))
 29: 0x0591 [0x80] LOAD_WAIT(entity=Unnamed NPC (ID: 17719823/0x010E620F))
 30: 0x0596 [0x80] LOAD_WAIT(entity=Unnamed NPC (ID: 17719829/0x010E6215))
 31: 0x059B [0x80] LOAD_WAIT(entity=Unnamed NPC (ID: 17719830/0x010E6216))
 32: 0x05A0 [0x80] LOAD_WAIT(entity=Unnamed NPC (ID: 17719824/0x010E6210))
 33: 0x05A5 [0x80] LOAD_WAIT(entity=Unnamed NPC (ID: 17719825/0x010E6211))
 34: 0x05AA [0x80] LOAD_WAIT(entity=Unnamed NPC (ID: 17719826/0x010E6212))
 35: 0x05AF [0x80] LOAD_WAIT(entity=Unnamed NPC (ID: 17719832/0x010E6218))
 36: 0x05B4 [0x80] LOAD_WAIT(entity=Unnamed NPC (ID: 17719833/0x010E6219))
 37: 0x05B9 [0x1C] WAIT(60* ticks)
 38: 0x05BC [0x03] Work_Zone[79] = 0*
 39: 0x05C1 [0x45] LOAD_SCHEDULED_TASK: Load scheduler "s006" with entities [EventEntity, EventEntity], work=[337*, 0*]
 40: 0x05D2 [0x03] Work_Zone[85] = 1*
 41: 0x05D7 [0x03] Work_Zone[84] = 5*
 42: 0x05DC [0x13] ExtData[1]->WorkLocal[0] = rand() % 4*
 43: 0x05E1 [0x02] IF !(ExtData[1]->WorkLocal[0] == 0*) GOTO 0x06C3
 44: 0x05E9 [0x6E] Unnamed NPC (ID: 17719821/0x010E620D) uses emote 7*
 45: 0x05F0 [0x99] Wait for Unnamed NPC (ID: 17719821/0x010E620D) animation to complete
 46: 0x05F5 [0x6E] Unnamed NPC (ID: 17719824/0x010E6210) uses emote 6*
 47: 0x05FC [0x99] Wait for Unnamed NPC (ID: 17719824/0x010E6210) animation to complete
 48: 0x0601 [0x03] Work_Zone[79] = 1*
 49: 0x0606 [0x02] IF !(Work_Zone[83] == 0*) GOTO 0x0614
 50: 0x060E [0x1C] WAIT(90* ticks)
 51: 0x0611 [0x01] GOTO 0x0617
 52: 0x0614 [0x1C] WAIT(60* ticks)

SUBROUTINE_0617:
 53: 0x0617 [0x03] Work_Zone[79] = 0*
 54: 0x061C [0x6E] Unnamed NPC (ID: 17719822/0x010E620E) uses emote 7*
 55: 0x0623 [0x99] Wait for Unnamed NPC (ID: 17719822/0x010E620E) animation to complete
 56: 0x0628 [0x6E] Unnamed NPC (ID: 17719825/0x010E6211) uses emote 7*
 57: 0x062F [0x99] Wait for Unnamed NPC (ID: 17719825/0x010E6211) animation to complete
 58: 0x0634 [0x02] IF !(Work_Zone[83] == 0*) GOTO 0x0642
 59: 0x063C [0x1C] WAIT(90* ticks)
 60: 0x063F [0x01] GOTO 0x0645
 61: 0x0642 [0x1C] WAIT(60* ticks)

SUBROUTINE_0645:
 62: 0x0645 [0x6E] Unnamed NPC (ID: 17719823/0x010E620F) uses emote 7*
 63: 0x064C [0x99] Wait for Unnamed NPC (ID: 17719823/0x010E620F) animation to complete
 64: 0x0651 [0x6E] Unnamed NPC (ID: 17719826/0x010E6212) uses emote 7*
 65: 0x0658 [0x99] Wait for Unnamed NPC (ID: 17719826/0x010E6212) animation to complete
 66: 0x065D [0x02] IF !(Work_Zone[83] == 0*) GOTO 0x066B
 67: 0x0665 [0x1C] WAIT(90* ticks)
 68: 0x0668 [0x01] GOTO 0x066E
 69: 0x066B [0x1C] WAIT(60* ticks)

SUBROUTINE_066E:
 70: 0x066E [0x6E] Unnamed NPC (ID: 17719829/0x010E6215) uses emote 7*
 71: 0x0675 [0x99] Wait for Unnamed NPC (ID: 17719829/0x010E6215) animation to complete
 72: 0x067A [0x6E] Unnamed NPC (ID: 17719832/0x010E6218) uses emote 7*
 73: 0x0681 [0x99] Wait for Unnamed NPC (ID: 17719832/0x010E6218) animation to complete
 74: 0x0686 [0x02] IF !(Work_Zone[83] == 0*) GOTO 0x0694
 75: 0x068E [0x1C] WAIT(90* ticks)
 76: 0x0691 [0x01] GOTO 0x0697
 77: 0x0694 [0x1C] WAIT(60* ticks)

SUBROUTINE_0697:
 78: 0x0697 [0x6E] Unnamed NPC (ID: 17719830/0x010E6216) uses emote 7*
 79: 0x069E [0x99] Wait for Unnamed NPC (ID: 17719830/0x010E6216) animation to complete
 80: 0x06A3 [0x6E] Unnamed NPC (ID: 17719833/0x010E6219) uses emote 7*
 81: 0x06AA [0x99] Wait for Unnamed NPC (ID: 17719833/0x010E6219) animation to complete
 82: 0x06AF [0x02] IF !(Work_Zone[83] == 0*) GOTO 0x06BD
 83: 0x06B7 [0x1C] WAIT(90* ticks)
 84: 0x06BA [0x01] GOTO 0x06C0
 85: 0x06BD [0x1C] WAIT(60* ticks)

SUBROUTINE_06C0:
 86: 0x06C0 [0x01] GOTO 0x0A3D
 87: 0x06C3 [0x02] IF !(ExtData[1]->WorkLocal[0] == 1*) GOTO 0x07A5
 88: 0x06CB [0x6E] Unnamed NPC (ID: 17719821/0x010E620D) uses emote 7*
 89: 0x06D2 [0x99] Wait for Unnamed NPC (ID: 17719821/0x010E620D) animation to complete
 90: 0x06D7 [0x6E] Unnamed NPC (ID: 17719824/0x010E6210) uses emote 7*
 91: 0x06DE [0x99] Wait for Unnamed NPC (ID: 17719824/0x010E6210) animation to complete
 92: 0x06E3 [0x02] IF !(Work_Zone[83] == 0*) GOTO 0x06F1
 93: 0x06EB [0x1C] WAIT(90* ticks)
 94: 0x06EE [0x01] GOTO 0x06F4
 95: 0x06F1 [0x1C] WAIT(60* ticks)

SUBROUTINE_06F4:
 96: 0x06F4 [0x6E] Unnamed NPC (ID: 17719822/0x010E620E) uses emote 7*
 97: 0x06FB [0x99] Wait for Unnamed NPC (ID: 17719822/0x010E620E) animation to complete
 98: 0x0700 [0x6E] Unnamed NPC (ID: 17719825/0x010E6211) uses emote 6*
 99: 0x0707 [0x99] Wait for Unnamed NPC (ID: 17719825/0x010E6211) animation to complete
100: 0x070C [0x03] Work_Zone[79] = 1*
101: 0x0711 [0x02] IF !(Work_Zone[83] == 0*) GOTO 0x071F
102: 0x0719 [0x1C] WAIT(90* ticks)
103: 0x071C [0x01] GOTO 0x0722
104: 0x071F [0x1C] WAIT(60* ticks)

SUBROUTINE_0722:
105: 0x0722 [0x03] Work_Zone[79] = 0*
106: 0x0727 [0x6E] Unnamed NPC (ID: 17719823/0x010E620F) uses emote 7*
107: 0x072E [0x99] Wait for Unnamed NPC (ID: 17719823/0x010E620F) animation to complete
108: 0x0733 [0x6E] Unnamed NPC (ID: 17719826/0x010E6212) uses emote 7*
109: 0x073A [0x99] Wait for Unnamed NPC (ID: 17719826/0x010E6212) animation to complete
110: 0x073F [0x02] IF !(Work_Zone[83] == 0*) GOTO 0x074D
111: 0x0747 [0x1C] WAIT(90* ticks)
112: 0x074A [0x01] GOTO 0x0750
113: 0x074D [0x1C] WAIT(60* ticks)

SUBROUTINE_0750:
114: 0x0750 [0x6E] Unnamed NPC (ID: 17719829/0x010E6215) uses emote 7*
115: 0x0757 [0x99] Wait for Unnamed NPC (ID: 17719829/0x010E6215) animation to complete
116: 0x075C [0x6E] Unnamed NPC (ID: 17719832/0x010E6218) uses emote 7*
117: 0x0763 [0x99] Wait for Unnamed NPC (ID: 17719832/0x010E6218) animation to complete
118: 0x0768 [0x02] IF !(Work_Zone[83] == 0*) GOTO 0x0776
119: 0x0770 [0x1C] WAIT(90* ticks)
120: 0x0773 [0x01] GOTO 0x0779
121: 0x0776 [0x1C] WAIT(60* ticks)

SUBROUTINE_0779:
122: 0x0779 [0x6E] Unnamed NPC (ID: 17719830/0x010E6216) uses emote 7*
123: 0x0780 [0x99] Wait for Unnamed NPC (ID: 17719830/0x010E6216) animation to complete
124: 0x0785 [0x6E] Unnamed NPC (ID: 17719833/0x010E6219) uses emote 7*
125: 0x078C [0x99] Wait for Unnamed NPC (ID: 17719833/0x010E6219) animation to complete
126: 0x0791 [0x02] IF !(Work_Zone[83] == 0*) GOTO 0x079F
127: 0x0799 [0x1C] WAIT(90* ticks)
128: 0x079C [0x01] GOTO 0x07A2
129: 0x079F [0x1C] WAIT(60* ticks)

SUBROUTINE_07A2:
130: 0x07A2 [0x01] GOTO 0x0A3D
131: 0x07A5 [0x02] IF !(ExtData[1]->WorkLocal[0] == 2*) GOTO 0x0887
132: 0x07AD [0x6E] Unnamed NPC (ID: 17719821/0x010E620D) uses emote 7*
133: 0x07B4 [0x99] Wait for Unnamed NPC (ID: 17719821/0x010E620D) animation to complete
134: 0x07B9 [0x6E] Unnamed NPC (ID: 17719824/0x010E6210) uses emote 7*
135: 0x07C0 [0x99] Wait for Unnamed NPC (ID: 17719824/0x010E6210) animation to complete
136: 0x07C5 [0x02] IF !(Work_Zone[83] == 0*) GOTO 0x07D3
137: 0x07CD [0x1C] WAIT(90* ticks)
138: 0x07D0 [0x01] GOTO 0x07D6
139: 0x07D3 [0x1C] WAIT(60* ticks)

SUBROUTINE_07D6:
140: 0x07D6 [0x6E] Unnamed NPC (ID: 17719822/0x010E620E) uses emote 7*
141: 0x07DD [0x99] Wait for Unnamed NPC (ID: 17719822/0x010E620E) animation to complete
142: 0x07E2 [0x6E] Unnamed NPC (ID: 17719825/0x010E6211) uses emote 7*
143: 0x07E9 [0x99] Wait for Unnamed NPC (ID: 17719825/0x010E6211) animation to complete
144: 0x07EE [0x02] IF !(Work_Zone[83] == 0*) GOTO 0x07FC
145: 0x07F6 [0x1C] WAIT(90* ticks)
146: 0x07F9 [0x01] GOTO 0x07FF
147: 0x07FC [0x1C] WAIT(60* ticks)

SUBROUTINE_07FF:
148: 0x07FF [0x6E] Unnamed NPC (ID: 17719823/0x010E620F) uses emote 7*
149: 0x0806 [0x99] Wait for Unnamed NPC (ID: 17719823/0x010E620F) animation to complete
150: 0x080B [0x6E] Unnamed NPC (ID: 17719826/0x010E6212) uses emote 6*
151: 0x0812 [0x99] Wait for Unnamed NPC (ID: 17719826/0x010E6212) animation to complete
152: 0x0817 [0x03] Work_Zone[79] = 1*
153: 0x081C [0x02] IF !(Work_Zone[83] == 0*) GOTO 0x082A
154: 0x0824 [0x1C] WAIT(90* ticks)
155: 0x0827 [0x01] GOTO 0x082D
156: 0x082A [0x1C] WAIT(60* ticks)

SUBROUTINE_082D:
157: 0x082D [0x03] Work_Zone[79] = 0*
158: 0x0832 [0x6E] Unnamed NPC (ID: 17719829/0x010E6215) uses emote 7*
159: 0x0839 [0x99] Wait for Unnamed NPC (ID: 17719829/0x010E6215) animation to complete
160: 0x083E [0x6E] Unnamed NPC (ID: 17719832/0x010E6218) uses emote 7*
161: 0x0845 [0x99] Wait for Unnamed NPC (ID: 17719832/0x010E6218) animation to complete
162: 0x084A [0x02] IF !(Work_Zone[83] == 0*) GOTO 0x0858
163: 0x0852 [0x1C] WAIT(90* ticks)
164: 0x0855 [0x01] GOTO 0x085B
165: 0x0858 [0x1C] WAIT(60* ticks)

SUBROUTINE_085B:
166: 0x085B [0x6E] Unnamed NPC (ID: 17719830/0x010E6216) uses emote 7*
167: 0x0862 [0x99] Wait for Unnamed NPC (ID: 17719830/0x010E6216) animation to complete
168: 0x0867 [0x6E] Unnamed NPC (ID: 17719833/0x010E6219) uses emote 7*
169: 0x086E [0x99] Wait for Unnamed NPC (ID: 17719833/0x010E6219) animation to complete
170: 0x0873 [0x02] IF !(Work_Zone[83] == 0*) GOTO 0x0881
171: 0x087B [0x1C] WAIT(90* ticks)
172: 0x087E [0x01] GOTO 0x0884
173: 0x0881 [0x1C] WAIT(60* ticks)

SUBROUTINE_0884:
174: 0x0884 [0x01] GOTO 0x0A3D
175: 0x0887 [0x02] IF !(ExtData[1]->WorkLocal[0] == 3*) GOTO 0x095B
176: 0x088F [0x6E] Unnamed NPC (ID: 17719821/0x010E620D) uses emote 7*
177: 0x0896 [0x99] Wait for Unnamed NPC (ID: 17719821/0x010E620D) animation to complete
178: 0x089B [0x6E] Unnamed NPC (ID: 17719824/0x010E6210) uses emote 7*
179: 0x08A2 [0x99] Wait for Unnamed NPC (ID: 17719824/0x010E6210) animation to complete
180: 0x08A7 [0x1C] WAIT(60* ticks)
181: 0x08AA [0x6E] Unnamed NPC (ID: 17719822/0x010E620E) uses emote 7*
182: 0x08B1 [0x99] Wait for Unnamed NPC (ID: 17719822/0x010E620E) animation to complete
183: 0x08B6 [0x6E] Unnamed NPC (ID: 17719825/0x010E6211) uses emote 7*
184: 0x08BD [0x99] Wait for Unnamed NPC (ID: 17719825/0x010E6211) animation to complete
185: 0x08C2 [0x02] IF !(Work_Zone[83] == 0*) GOTO 0x08D0
186: 0x08CA [0x1C] WAIT(90* ticks)
187: 0x08CD [0x01] GOTO 0x08D3
188: 0x08D0 [0x1C] WAIT(60* ticks)

SUBROUTINE_08D3:
189: 0x08D3 [0x6E] Unnamed NPC (ID: 17719823/0x010E620F) uses emote 7*
190: 0x08DA [0x99] Wait for Unnamed NPC (ID: 17719823/0x010E620F) animation to complete
191: 0x08DF [0x6E] Unnamed NPC (ID: 17719826/0x010E6212) uses emote 7*
192: 0x08E6 [0x99] Wait for Unnamed NPC (ID: 17719826/0x010E6212) animation to complete
193: 0x08EB [0x02] IF !(Work_Zone[83] == 0*) GOTO 0x08F9
194: 0x08F3 [0x1C] WAIT(90* ticks)
195: 0x08F6 [0x01] GOTO 0x08FC
196: 0x08F9 [0x1C] WAIT(60* ticks)

SUBROUTINE_08FC:
197: 0x08FC [0x6E] Unnamed NPC (ID: 17719829/0x010E6215) uses emote 7*
198: 0x0903 [0x99] Wait for Unnamed NPC (ID: 17719829/0x010E6215) animation to complete
199: 0x0908 [0x6E] Unnamed NPC (ID: 17719832/0x010E6218) uses emote 6*
200: 0x090F [0x99] Wait for Unnamed NPC (ID: 17719832/0x010E6218) animation to complete
201: 0x0914 [0x03] Work_Zone[79] = 1*
202: 0x0919 [0x02] IF !(Work_Zone[83] == 0*) GOTO 0x0927
203: 0x0921 [0x1C] WAIT(90* ticks)
204: 0x0924 [0x01] GOTO 0x092A
205: 0x0927 [0x1C] WAIT(60* ticks)

SUBROUTINE_092A:
206: 0x092A [0x03] Work_Zone[79] = 0*
207: 0x092F [0x6E] Unnamed NPC (ID: 17719830/0x010E6216) uses emote 7*
208: 0x0936 [0x99] Wait for Unnamed NPC (ID: 17719830/0x010E6216) animation to complete
209: 0x093B [0x6E] Unnamed NPC (ID: 17719833/0x010E6219) uses emote 7*
210: 0x0942 [0x99] Wait for Unnamed NPC (ID: 17719833/0x010E6219) animation to complete
211: 0x0947 [0x02] IF !(Work_Zone[83] == 0*) GOTO 0x0955
212: 0x094F [0x1C] WAIT(90* ticks)
213: 0x0952 [0x01] GOTO 0x0958
214: 0x0955 [0x1C] WAIT(60* ticks)

SUBROUTINE_0958:
215: 0x0958 [0x01] GOTO 0x0A3D
216: 0x095B [0x02] IF !(ExtData[1]->WorkLocal[0] == 4*) GOTO 0x0A3D
217: 0x0963 [0x6E] Unnamed NPC (ID: 17719821/0x010E620D) uses emote 7*
218: 0x096A [0x99] Wait for Unnamed NPC (ID: 17719821/0x010E620D) animation to complete
219: 0x096F [0x6E] Unnamed NPC (ID: 17719824/0x010E6210) uses emote 7*
220: 0x0976 [0x99] Wait for Unnamed NPC (ID: 17719824/0x010E6210) animation to complete
221: 0x097B [0x02] IF !(Work_Zone[83] == 0*) GOTO 0x0989
222: 0x0983 [0x1C] WAIT(90* ticks)
223: 0x0986 [0x01] GOTO 0x098C
224: 0x0989 [0x1C] WAIT(60* ticks)

SUBROUTINE_098C:
225: 0x098C [0x6E] Unnamed NPC (ID: 17719822/0x010E620E) uses emote 7*
226: 0x0993 [0x99] Wait for Unnamed NPC (ID: 17719822/0x010E620E) animation to complete
227: 0x0998 [0x6E] Unnamed NPC (ID: 17719825/0x010E6211) uses emote 7*
228: 0x099F [0x99] Wait for Unnamed NPC (ID: 17719825/0x010E6211) animation to complete
229: 0x09A4 [0x02] IF !(Work_Zone[83] == 0*) GOTO 0x09B2
230: 0x09AC [0x1C] WAIT(90* ticks)
231: 0x09AF [0x01] GOTO 0x09B5
232: 0x09B2 [0x1C] WAIT(60* ticks)

SUBROUTINE_09B5:
233: 0x09B5 [0x6E] Unnamed NPC (ID: 17719823/0x010E620F) uses emote 7*
234: 0x09BC [0x99] Wait for Unnamed NPC (ID: 17719823/0x010E620F) animation to complete
235: 0x09C1 [0x6E] Unnamed NPC (ID: 17719826/0x010E6212) uses emote 7*
236: 0x09C8 [0x99] Wait for Unnamed NPC (ID: 17719826/0x010E6212) animation to complete
237: 0x09CD [0x02] IF !(Work_Zone[83] == 0*) GOTO 0x09DB
238: 0x09D5 [0x1C] WAIT(90* ticks)
239: 0x09D8 [0x01] GOTO 0x09DE
240: 0x09DB [0x1C] WAIT(60* ticks)

SUBROUTINE_09DE:
241: 0x09DE [0x6E] Unnamed NPC (ID: 17719829/0x010E6215) uses emote 7*
242: 0x09E5 [0x99] Wait for Unnamed NPC (ID: 17719829/0x010E6215) animation to complete
243: 0x09EA [0x6E] Unnamed NPC (ID: 17719832/0x010E6218) uses emote 7*
244: 0x09F1 [0x99] Wait for Unnamed NPC (ID: 17719832/0x010E6218) animation to complete
245: 0x09F6 [0x02] IF !(Work_Zone[83] == 0*) GOTO 0x0A04
246: 0x09FE [0x1C] WAIT(90* ticks)
247: 0x0A01 [0x01] GOTO 0x0A07
248: 0x0A04 [0x1C] WAIT(60* ticks)

SUBROUTINE_0A07:
249: 0x0A07 [0x6E] Unnamed NPC (ID: 17719830/0x010E6216) uses emote 7*
250: 0x0A0E [0x99] Wait for Unnamed NPC (ID: 17719830/0x010E6216) animation to complete
251: 0x0A13 [0x6E] Unnamed NPC (ID: 17719833/0x010E6219) uses emote 6*
252: 0x0A1A [0x99] Wait for Unnamed NPC (ID: 17719833/0x010E6219) animation to complete
253: 0x0A1F [0x03] Work_Zone[79] = 1*
254: 0x0A24 [0x02] IF !(Work_Zone[83] == 0*) GOTO 0x0A32
255: 0x0A2C [0x1C] WAIT(90* ticks)
256: 0x0A2F [0x01] GOTO 0x0A35
257: 0x0A32 [0x1C] WAIT(60* ticks)

SUBROUTINE_0A35:
258: 0x0A35 [0x03] Work_Zone[79] = 0*
259: 0x0A3A [0x01] GOTO 0x0A3D

SUBROUTINE_0A3D:
260: 0x0A3D [0x27] REQ_SET(priority=0x05, entity_id=Unnamed NPC (ID: 17719820/0x010E620C), tag_num=0x04)
261: 0x0A44 [0x00] END_REQSTACK()
```
