# 17719595 - Bashraf

## Common Data

| Field            | Value                         |
|------------------|-------------------------------|
| Zone             | Southern San d'Oria (ID: 230) |
| Block Size       | 628 bytes                     |
| Total Events     | 18                            |
| References Count | 61                            |

## List of Events

| Event ID                   | Entrypoint   |   Size |   Instructions |
|----------------------------|--------------|--------|----------------|
| [65535](#event-65535)      | 0x0000       |      1 |              1 |
| [827](#event-827)          | 0x0001       |      1 |              1 |
| [823](#event-823)          | 0x0002       |      1 |              1 |
| [65535.1](#event-655351)   | 0x0003       |     15 |              3 |
| [65535.2](#event-655352)   | 0x0012       |     19 |              5 |
| [65535.3](#event-655353)   | 0x0025       |     15 |              3 |
| [65535.4](#event-655354)   | 0x0034       |     19 |              5 |
| [65535.5](#event-655355)   | 0x0047       |     15 |              3 |
| [65535.6](#event-655356)   | 0x0056       |     15 |              3 |
| [65535.7](#event-655357)   | 0x0065       |     29 |              7 |
| [65535.8](#event-655358)   | 0x0082       |     15 |              3 |
| [65535.9](#event-655359)   | 0x0091       |     14 |              4 |
| [65535.10](#event-6553510) | 0x009F       |     35 |              4 |
| [65535.11](#event-6553511) | 0x00C2       |     21 |              2 |
| [65535.12](#event-6553512) | 0x00D7       |     15 |              3 |
| [65535.13](#event-6553513) | 0x00E6       |     28 |              6 |
| [65535.14](#event-6553514) | 0x0102       |     15 |              3 |
| [65535.15](#event-6553515) | 0x0111       |     21 |              2 |

## DAT References (imed_data)

|   Index | Hex Value   |   Dec Value |
|---------|-------------|-------------|
|       0 | 0xFFF5E132  |  4294304050 |
|       1 | 0x6E43D     |      451645 |
|       2 | 0x4073      |       16499 |
|       3 | 0x01E0      |         480 |
|       4 | 0x000D      |          13 |
|       5 | 0xFFF5CFD7  |  4294299607 |
|       6 | 0x6ED84     |      454020 |
|       7 | 0x897EE     |      563182 |
|       8 | 0xFFF95EC5  |  4294532805 |
|       9 | 0x9D71      |       40305 |
|      10 | 0x0B27      |        2855 |
|      11 | 0x890CD     |      561357 |
|      12 | 0xFFF96D04  |  4294536452 |
|      13 | 0x9E67      |       40551 |
|      14 | 0x5A68      |       23144 |
|      15 | 0xFFFEEB8C  |  4294896524 |
|      16 | 0x07CF      |        1999 |
|      17 | 0x0F52      |        3922 |
|      18 | 0xFFFF935E  |  4294939486 |
|      19 | 0xFFFED8CC  |  4294891724 |
|      20 | 0x0D12      |        3346 |
|      21 | 0x0028      |          40 |
|      22 | 0xFFFF9784  |  4294940548 |
|      23 | 0xFFFEDFC0  |  4294893504 |
|      24 | 0xFFFFA5C4  |  4294944196 |
|      25 | 0xFFFEDCE1  |  4294892769 |
|      26 | 0xFFFD647B  |  4294796411 |
|      27 | 0x3EBB3     |      256947 |
|      28 | 0xFFFF1A38  |  4294908472 |
|      29 | 0x0B74      |        2932 |
|      30 | 0xFFFD61BB  |  4294795707 |
|      31 | 0x3F268     |      258664 |
|      32 | 0xFFFF1B66  |  4294908774 |
|      33 | 0x0004      |           4 |
|      34 | 0x0009      |           9 |
|      35 | 0x0015      |          21 |
|      36 | 0x0008      |           8 |
|      37 | 0x000A      |          10 |
|      38 | 0x0018      |          24 |
|      39 | 0x0000      |           0 |
|      40 | 0xFFF80F12  |  4294446866 |
|      41 | 0xFFF98CF3  |  4294544627 |
|      42 | 0x0361      |         865 |
|      43 | 0x09F9      |        2553 |
|      44 | 0x001E      |          30 |
|      45 | 0x0014      |          20 |
|      46 | 0xFFFF9D35  |  4294942005 |
|      47 | 0xFFFE8D32  |  4294872370 |
|      48 | 0x0495      |        1173 |
|      49 | 0xFFFFA8E1  |  4294944993 |
|      50 | 0xFFFE9DD9  |  4294876633 |
|      51 | 0xFFFFE197  |  4294959511 |
|      52 | 0xFFFF018B  |  4294902155 |
|      53 | 0x0CF4      |        3316 |
|      54 | 0xFFFFDEA8  |  4294958760 |
|      55 | 0xFFFE6162  |  4294861154 |
|      56 | 0x060C      |        1548 |
|      57 | 0x0F41      |        3905 |
|      58 | 0x0001      |           1 |
|      59 | 0x0002      |           2 |
|      60 | 0x0006      |           6 |

## Events

### Event 65535

#### Metadata

| Field        | Value   |
|--------------|---------|
| Entrypoint   | 0x0000  |
| Data Size    | 1 bytes |
| Instructions | 1       |

```
      00 01 02 03 04 05 06 07  08 09 0A 0B 0C 0D 0E 0F
      -- -- -- -- -- -- -- --  -- -- -- -- -- -- -- --
0000: 00                                                .               
```

#### Opcodes

```
  0: 0x0000 [0x00] END_REQSTACK()
```

### Event 827

#### Metadata

| Field        | Value   |
|--------------|---------|
| Entrypoint   | 0x0001  |
| Data Size    | 1 bytes |
| Instructions | 1       |

```
      00 01 02 03 04 05 06 07  08 09 0A 0B 0C 0D 0E 0F
      -- -- -- -- -- -- -- --  -- -- -- -- -- -- -- --
0000:    00                                              .              
```

#### Opcodes

```
  0: 0x0001 [0x00] END_REQSTACK()
```

### Event 823

#### Metadata

| Field        | Value   |
|--------------|---------|
| Entrypoint   | 0x0002  |
| Data Size    | 1 bytes |
| Instructions | 1       |

```
      00 01 02 03 04 05 06 07  08 09 0A 0B 0C 0D 0E 0F
      -- -- -- -- -- -- -- --  -- -- -- -- -- -- -- --
0000:       00                                            .             
```

#### Opcodes

```
  0: 0x0002 [0x00] END_REQSTACK()
```

### Event 65535.1

#### Metadata

| Field        | Value    |
|--------------|----------|
| Entrypoint   | 0x0003   |
| Data Size    | 15 bytes |
| Instructions | 3        |

```
      00 01 02 03 04 05 06 07  08 09 0A 0B 0C 0D 0E 0F
      -- -- -- -- -- -- -- --  -- -- -- -- -- -- -- --
0000:          37 00 80 01 80  02 80 03 80 80 F8 FF FF     7............
0010: 7F 00                                             ..              
```

#### Opcodes

```
  0: 0x0003 [0x37] UPDATE_EVENT_POSITION_AND_DIR: x=-663.246*, z=451.645*, y=16.499*, direction=42.2°*
  1: 0x000C [0x80] LOAD_WAIT(entity=EventEntity)
  2: 0x0011 [0x00] END_REQSTACK()
```

### Event 65535.2

#### Metadata

| Field        | Value    |
|--------------|----------|
| Entrypoint   | 0x0012   |
| Data Size    | 19 bytes |
| Instructions | 5        |

```
      00 01 02 03 04 05 06 07  08 09 0A 0B 0C 0D 0E 0F
      -- -- -- -- -- -- -- --  -- -- -- -- -- -- -- --
0010:       32 04 80 1F 00 05  80 06 80 02 80 1F 01 1E    2.............
0020: F0 FF FF 7F 00                                    .....           
```

#### Opcodes

```
  0: 0x0012 [0x32] ExtData[1]->MainSpeed = 13* * 0.1
  1: 0x0015 [0x1F] MOVE_ENTITY: EventEntity moves to X=-667.689*, Z=454.020*, Y=16.499*
  2: 0x001D [0x1F] MOVE_ENTITY: Update entity position (mode=1)
  3: 0x001F [0x1E] EventEntity looks at LocalPlayer and starts talking
  4: 0x0024 [0x00] END_REQSTACK()
```

### Event 65535.3

#### Metadata

| Field        | Value    |
|--------------|----------|
| Entrypoint   | 0x0025   |
| Data Size    | 15 bytes |
| Instructions | 3        |

```
      00 01 02 03 04 05 06 07  08 09 0A 0B 0C 0D 0E 0F
      -- -- -- -- -- -- -- --  -- -- -- -- -- -- -- --
0020:                37 07 80  08 80 09 80 0A 80 80 F8       7..........
0030: FF FF 7F 00                                       ....            
```

#### Opcodes

```
  0: 0x0025 [0x37] UPDATE_EVENT_POSITION_AND_DIR: x=563.182*, z=-434.491*, y=40.305*, direction=250.9°*
  1: 0x002E [0x80] LOAD_WAIT(entity=EventEntity)
  2: 0x0033 [0x00] END_REQSTACK()
```

### Event 65535.4

#### Metadata

| Field        | Value    |
|--------------|----------|
| Entrypoint   | 0x0034   |
| Data Size    | 19 bytes |
| Instructions | 5        |

```
      00 01 02 03 04 05 06 07  08 09 0A 0B 0C 0D 0E 0F
      -- -- -- -- -- -- -- --  -- -- -- -- -- -- -- --
0030:             32 04 80 1F  00 0B 80 0C 80 0D 80 1F      2...........
0040: 01 1E F0 FF FF 7F 00                              .......         
```

#### Opcodes

```
  0: 0x0034 [0x32] ExtData[1]->MainSpeed = 13* * 0.1
  1: 0x0037 [0x1F] MOVE_ENTITY: EventEntity moves to X=561.357*, Z=-430.844*, Y=40.551*
  2: 0x003F [0x1F] MOVE_ENTITY: Update entity position (mode=1)
  3: 0x0041 [0x1E] EventEntity looks at LocalPlayer and starts talking
  4: 0x0046 [0x00] END_REQSTACK()
```

### Event 65535.5

#### Metadata

| Field        | Value    |
|--------------|----------|
| Entrypoint   | 0x0047   |
| Data Size    | 15 bytes |
| Instructions | 3        |

```
      00 01 02 03 04 05 06 07  08 09 0A 0B 0C 0D 0E 0F
      -- -- -- -- -- -- -- --  -- -- -- -- -- -- -- --
0040:                      37  0E 80 0F 80 10 80 11 80         7........
0050: 80 F8 FF FF 7F 00                                 ......          
```

#### Opcodes

```
  0: 0x0047 [0x37] UPDATE_EVENT_POSITION_AND_DIR: x=23.144*, z=-70.772*, y=1.999*, direction=344.7°*
  1: 0x0050 [0x80] LOAD_WAIT(entity=EventEntity)
  2: 0x0055 [0x00] END_REQSTACK()
```

### Event 65535.6

#### Metadata

| Field        | Value    |
|--------------|----------|
| Entrypoint   | 0x0056   |
| Data Size    | 15 bytes |
| Instructions | 3        |

```
      00 01 02 03 04 05 06 07  08 09 0A 0B 0C 0D 0E 0F
      -- -- -- -- -- -- -- --  -- -- -- -- -- -- -- --
0050:                   37 12  80 13 80 10 80 14 80 80        7.........
0060: F8 FF FF 7F 00                                    .....           
```

#### Opcodes

```
  0: 0x0056 [0x37] UPDATE_EVENT_POSITION_AND_DIR: x=-27.810*, z=-75.572*, y=1.999*, direction=294.1°*
  1: 0x005F [0x80] LOAD_WAIT(entity=EventEntity)
  2: 0x0064 [0x00] END_REQSTACK()
```

### Event 65535.7

#### Metadata

| Field        | Value    |
|--------------|----------|
| Entrypoint   | 0x0065   |
| Data Size    | 29 bytes |
| Instructions | 7        |

```
      00 01 02 03 04 05 06 07  08 09 0A 0B 0C 0D 0E 0F
      -- -- -- -- -- -- -- --  -- -- -- -- -- -- -- --
0060:                32 15 80  1F 00 16 80 17 80 10 80       2..........
0070: 1F 01 1F 00 18 80 19 80  10 80 1F 01 1E F0 FF FF  ................
0080: 7F 00                                             ..              
```

#### Opcodes

```
  0: 0x0065 [0x32] ExtData[1]->MainSpeed = 40* * 0.1
  1: 0x0068 [0x1F] MOVE_ENTITY: EventEntity moves to X=-26.748*, Z=-73.792*, Y=1.999*
  2: 0x0070 [0x1F] MOVE_ENTITY: Update entity position (mode=1)
  3: 0x0072 [0x1F] MOVE_ENTITY: EventEntity moves to X=-23.100*, Z=-74.527*, Y=1.999*
  4: 0x007A [0x1F] MOVE_ENTITY: Update entity position (mode=1)
  5: 0x007C [0x1E] EventEntity looks at LocalPlayer and starts talking
  6: 0x0081 [0x00] END_REQSTACK()
```

### Event 65535.8

#### Metadata

| Field        | Value    |
|--------------|----------|
| Entrypoint   | 0x0082   |
| Data Size    | 15 bytes |
| Instructions | 3        |

```
      00 01 02 03 04 05 06 07  08 09 0A 0B 0C 0D 0E 0F
      -- -- -- -- -- -- -- --  -- -- -- -- -- -- -- --
0080:       37 1A 80 1B 80 1C  80 1D 80 80 F8 FF FF 7F    7.............
0090: 00                                                .               
```

#### Opcodes

```
  0: 0x0082 [0x37] UPDATE_EVENT_POSITION_AND_DIR: x=-170.885*, z=256.947*, y=-58.824*, direction=257.7°*
  1: 0x008B [0x80] LOAD_WAIT(entity=EventEntity)
  2: 0x0090 [0x00] END_REQSTACK()
```

### Event 65535.9

#### Metadata

| Field        | Value    |
|--------------|----------|
| Entrypoint   | 0x0091   |
| Data Size    | 14 bytes |
| Instructions | 4        |

```
      00 01 02 03 04 05 06 07  08 09 0A 0B 0C 0D 0E 0F
      -- -- -- -- -- -- -- --  -- -- -- -- -- -- -- --
0090:    32 15 80 1F 00 1E 80  1F 80 20 80 1F 01 00      2........ .... 
```

#### Opcodes

```
  0: 0x0091 [0x32] ExtData[1]->MainSpeed = 40* * 0.1
  1: 0x0094 [0x1F] MOVE_ENTITY: EventEntity moves to X=-171.589*, Z=258.664*, Y=-58.522*
  2: 0x009C [0x1F] MOVE_ENTITY: Update entity position (mode=1)
  3: 0x009E [0x00] END_REQSTACK()
```

### Event 65535.10

#### Metadata

| Field        | Value    |
|--------------|----------|
| Entrypoint   | 0x009F   |
| Data Size    | 35 bytes |
| Instructions | 4        |

```
      00 01 02 03 04 05 06 07  08 09 0A 0B 0C 0D 0E 0F
      -- -- -- -- -- -- -- --  -- -- -- -- -- -- -- --
0090:                                               B6                 .
00A0: 0B 21 80 22 80 23 80 24  80 25 80 23 80 26 80 27  .!.".#.$.%.#.&.'
00B0: 80 27 80 37 28 80 29 80  2A 80 2B 80 80 F8 FF FF  .'.7(.).*.+.....
00C0: 7F 00                                             ..              
```

#### Opcodes

```
  0: 0x009F [0xB6] ENTITY_APPEARANCE_HANDLER(case=Full entity look, race=4*, hair=9*, head=21*, body=8*, hands=10*, legs=21*, feet=24*, main=0*, sub=0*)
  1: 0x00B3 [0x37] UPDATE_EVENT_POSITION_AND_DIR: x=-520.430*, z=-422.669*, y=0.865*, direction=224.4°*
  2: 0x00BC [0x80] LOAD_WAIT(entity=EventEntity)
  3: 0x00C1 [0x00] END_REQSTACK()
```

### Event 65535.11

#### Metadata

| Field        | Value    |
|--------------|----------|
| Entrypoint   | 0x00C2   |
| Data Size    | 21 bytes |
| Instructions | 2        |

```
      00 01 02 03 04 05 06 07  08 09 0A 0B 0C 0D 0E 0F
      -- -- -- -- -- -- -- --  -- -- -- -- -- -- -- --
00C0:       B6 0B 2C 80 23 80  27 80 2D 80 2D 80 2D 80    ..,.#.'.-.-.-.
00D0: 2D 80 27 80 27 80 00                              -.'.'..         
```

#### Opcodes

```
  0: 0x00C2 [0xB6] ENTITY_APPEARANCE_HANDLER(case=Full entity look, race=30*, hair=21*, head=0*, body=20*, hands=20*, legs=20*, feet=20*, main=0*, sub=0*)
  1: 0x00D6 [0x00] END_REQSTACK()
```

### Event 65535.12

#### Metadata

| Field        | Value    |
|--------------|----------|
| Entrypoint   | 0x00D7   |
| Data Size    | 15 bytes |
| Instructions | 3        |

```
      00 01 02 03 04 05 06 07  08 09 0A 0B 0C 0D 0E 0F
      -- -- -- -- -- -- -- --  -- -- -- -- -- -- -- --
00D0:                      37  2E 80 2F 80 10 80 30 80         7../...0.
00E0: 80 F8 FF FF 7F 00                                 ......          
```

#### Opcodes

```
  0: 0x00D7 [0x37] UPDATE_EVENT_POSITION_AND_DIR: x=-25.291*, z=-94.926*, y=1.999*, direction=103.1°*
  1: 0x00E0 [0x80] LOAD_WAIT(entity=EventEntity)
  2: 0x00E5 [0x00] END_REQSTACK()
```

### Event 65535.13

#### Metadata

| Field        | Value    |
|--------------|----------|
| Entrypoint   | 0x00E6   |
| Data Size    | 28 bytes |
| Instructions | 6        |

```
      00 01 02 03 04 05 06 07  08 09 0A 0B 0C 0D 0E 0F
      -- -- -- -- -- -- -- --  -- -- -- -- -- -- -- --
00E0:                   32 15  80 1F 00 31 80 32 80 10        2....1.2..
00F0: 80 1F 01 37 33 80 34 80  10 80 35 80 80 F8 FF FF  ...73.4...5.....
0100: 7F 00                                             ..              
```

#### Opcodes

```
  0: 0x00E6 [0x32] ExtData[1]->MainSpeed = 40* * 0.1
  1: 0x00E9 [0x1F] MOVE_ENTITY: EventEntity moves to X=-22.303*, Z=-90.663*, Y=1.999*
  2: 0x00F1 [0x1F] MOVE_ENTITY: Update entity position (mode=1)
  3: 0x00F3 [0x37] UPDATE_EVENT_POSITION_AND_DIR: x=-7.785*, z=-65.141*, y=1.999*, direction=291.4°*
  4: 0x00FC [0x80] LOAD_WAIT(entity=EventEntity)
  5: 0x0101 [0x00] END_REQSTACK()
```

### Event 65535.14

#### Metadata

| Field        | Value    |
|--------------|----------|
| Entrypoint   | 0x0102   |
| Data Size    | 15 bytes |
| Instructions | 3        |

```
      00 01 02 03 04 05 06 07  08 09 0A 0B 0C 0D 0E 0F
      -- -- -- -- -- -- -- --  -- -- -- -- -- -- -- --
0100:       37 36 80 37 80 38  80 39 80 80 F8 FF FF 7F    76.7.8.9......
0110: 00                                                .               
```

#### Opcodes

```
  0: 0x0102 [0x37] UPDATE_EVENT_POSITION_AND_DIR: x=-8.536*, z=-106.142*, y=1.548*, direction=343.2°*
  1: 0x010B [0x80] LOAD_WAIT(entity=EventEntity)
  2: 0x0110 [0x00] END_REQSTACK()
```

### Event 65535.15

#### Metadata

| Field        | Value    |
|--------------|----------|
| Entrypoint   | 0x0111   |
| Data Size    | 21 bytes |
| Instructions | 2        |

```
      00 01 02 03 04 05 06 07  08 09 0A 0B 0C 0D 0E 0F
      -- -- -- -- -- -- -- --  -- -- -- -- -- -- -- --
0110:    B6 0B 3A 80 3B 80 27  80 3C 80 3C 80 3C 80 3C   ..:.;.'.<.<.<.<
0120: 80 27 80 27 80 00                                 .'.'..          
```

#### Opcodes

```
  0: 0x0111 [0xB6] ENTITY_APPEARANCE_HANDLER(case=Full entity look, race=1*, hair=2*, head=0*, body=6*, hands=6*, legs=6*, feet=6*, main=0*, sub=0*)
  1: 0x0125 [0x00] END_REQSTACK()
```
