# 17719623

## Common Data

| Field            | Value                         |
|------------------|-------------------------------|
| Zone             | Southern San d'Oria (ID: 230) |
| Block Size       | 312 bytes                     |
| Total Events     | 3                             |
| References Count | 21                            |

## List of Events

| Event ID                 | Entrypoint   |   Size |   Instructions |
|--------------------------|--------------|--------|----------------|
| [65535](#event-65535)    | 0x0000       |      1 |              1 |
| [945](#event-945)        | 0x0001       |      1 |              1 |
| [65535.1](#event-655351) | 0x0002       |    198 |             50 |

## DAT References (imed_data)

|   Index | Hex Value   |   Dec Value |
|---------|-------------|-------------|
|       0 | 0x000C      |          12 |
|       1 | 0x0001      |           1 |
|       2 | 0x0003      |           3 |
|       3 | 0x000B      |          11 |
|       4 | 0x000A      |          10 |
|       5 | 0x0009      |           9 |
|       6 | 0x0008      |           8 |
|       7 | 0x0007      |           7 |
|       8 | 0x0006      |           6 |
|       9 | 0x000D      |          13 |
|      10 | 0x000E      |          14 |
|      11 | 0x000F      |          15 |
|      12 | 0x0010      |          16 |
|      13 | 0x0011      |          17 |
|      14 | 0x0012      |          18 |
|      15 | 0x0013      |          19 |
|      16 | 0x0014      |          20 |
|      17 | 0x0015      |          21 |
|      18 | 0x0016      |          22 |
|      19 | 0x0017      |          23 |
|      20 | 0x0000      |           0 |

## Events

### Event 65535

#### Metadata

| Field        | Value   |
|--------------|---------|
| Entrypoint   | 0x0000  |
| Data Size    | 1 bytes |
| Instructions | 1       |

```
      00 01 02 03 04 05 06 07  08 09 0A 0B 0C 0D 0E 0F
      -- -- -- -- -- -- -- --  -- -- -- -- -- -- -- --
0000: 00                                                .               
```

#### Opcodes

```
  0: 0x0000 [0x00] END_REQSTACK()
```

### Event 945

#### Metadata

| Field        | Value   |
|--------------|---------|
| Entrypoint   | 0x0001  |
| Data Size    | 1 bytes |
| Instructions | 1       |

```
      00 01 02 03 04 05 06 07  08 09 0A 0B 0C 0D 0E 0F
      -- -- -- -- -- -- -- --  -- -- -- -- -- -- -- --
0000:    00                                              .              
```

#### Opcodes

```
  0: 0x0001 [0x00] END_REQSTACK()
```

### Event 65535.1

#### Metadata

| Field        | Value     |
|--------------|-----------|
| Entrypoint   | 0x0002    |
| Data Size    | 198 bytes |
| Instructions | 50        |

```
      00 01 02 03 04 05 06 07  08 09 0A 0B 0C 0D 0E 0F
      -- -- -- -- -- -- -- --  -- -- -- -- -- -- -- --
0000:       77 00 80 01 80 1C  02 80 77 03 80 01 80 1C    w.......w.....
0010: 02 80 77 04 80 01 80 1C  02 80 77 05 80 01 80 1C  ..w.......w.....
0020: 02 80 77 06 80 01 80 1C  02 80 77 07 80 01 80 1C  ..w.......w.....
0030: 02 80 77 08 80 01 80 1C  02 80 77 07 80 01 80 1C  ..w.......w.....
0040: 02 80 77 06 80 01 80 1C  02 80 77 05 80 01 80 1C  ..w.......w.....
0050: 02 80 77 04 80 01 80 1C  02 80 77 03 80 01 80 1C  ..w.......w.....
0060: 02 80 77 00 80 01 80 1C  02 80 77 09 80 01 80 1C  ..w.......w.....
0070: 02 80 77 0A 80 01 80 1C  02 80 77 0B 80 01 80 1C  ..w.......w.....
0080: 02 80 77 0C 80 01 80 1C  02 80 77 0D 80 01 80 1C  ..w.......w.....
0090: 02 80 77 0E 80 01 80 1C  02 80 77 0F 80 01 80 1C  ..w.......w.....
00A0: 02 80 77 10 80 01 80 1C  02 80 77 11 80 01 80 1C  ..w.......w.....
00B0: 02 80 77 12 80 01 80 1C  02 80 77 13 80 01 80 1C  ..w.......w.....
00C0: 02 80 77 14 80 01 80 00                           ..w.....        
```

#### Opcodes

```
  0: 0x0002 [0x77] SET_EVENT_TIME_WEATHER(hour=12*, weather=1*)
  1: 0x0007 [0x1C] WAIT(3* ticks)
  2: 0x000A [0x77] SET_EVENT_TIME_WEATHER(hour=11*, weather=1*)
  3: 0x000F [0x1C] WAIT(3* ticks)
  4: 0x0012 [0x77] SET_EVENT_TIME_WEATHER(hour=10*, weather=1*)
  5: 0x0017 [0x1C] WAIT(3* ticks)
  6: 0x001A [0x77] SET_EVENT_TIME_WEATHER(hour=9*, weather=1*)
  7: 0x001F [0x1C] WAIT(3* ticks)
  8: 0x0022 [0x77] SET_EVENT_TIME_WEATHER(hour=8*, weather=1*)
  9: 0x0027 [0x1C] WAIT(3* ticks)
 10: 0x002A [0x77] SET_EVENT_TIME_WEATHER(hour=7*, weather=1*)
 11: 0x002F [0x1C] WAIT(3* ticks)
 12: 0x0032 [0x77] SET_EVENT_TIME_WEATHER(hour=6*, weather=1*)
 13: 0x0037 [0x1C] WAIT(3* ticks)
 14: 0x003A [0x77] SET_EVENT_TIME_WEATHER(hour=7*, weather=1*)
 15: 0x003F [0x1C] WAIT(3* ticks)
 16: 0x0042 [0x77] SET_EVENT_TIME_WEATHER(hour=8*, weather=1*)
 17: 0x0047 [0x1C] WAIT(3* ticks)
 18: 0x004A [0x77] SET_EVENT_TIME_WEATHER(hour=9*, weather=1*)
 19: 0x004F [0x1C] WAIT(3* ticks)
 20: 0x0052 [0x77] SET_EVENT_TIME_WEATHER(hour=10*, weather=1*)
 21: 0x0057 [0x1C] WAIT(3* ticks)
 22: 0x005A [0x77] SET_EVENT_TIME_WEATHER(hour=11*, weather=1*)
 23: 0x005F [0x1C] WAIT(3* ticks)
 24: 0x0062 [0x77] SET_EVENT_TIME_WEATHER(hour=12*, weather=1*)
 25: 0x0067 [0x1C] WAIT(3* ticks)
 26: 0x006A [0x77] SET_EVENT_TIME_WEATHER(hour=13*, weather=1*)
 27: 0x006F [0x1C] WAIT(3* ticks)
 28: 0x0072 [0x77] SET_EVENT_TIME_WEATHER(hour=14*, weather=1*)
 29: 0x0077 [0x1C] WAIT(3* ticks)
 30: 0x007A [0x77] SET_EVENT_TIME_WEATHER(hour=15*, weather=1*)
 31: 0x007F [0x1C] WAIT(3* ticks)
 32: 0x0082 [0x77] SET_EVENT_TIME_WEATHER(hour=16*, weather=1*)
 33: 0x0087 [0x1C] WAIT(3* ticks)
 34: 0x008A [0x77] SET_EVENT_TIME_WEATHER(hour=17*, weather=1*)
 35: 0x008F [0x1C] WAIT(3* ticks)
 36: 0x0092 [0x77] SET_EVENT_TIME_WEATHER(hour=18*, weather=1*)
 37: 0x0097 [0x1C] WAIT(3* ticks)
 38: 0x009A [0x77] SET_EVENT_TIME_WEATHER(hour=19*, weather=1*)
 39: 0x009F [0x1C] WAIT(3* ticks)
 40: 0x00A2 [0x77] SET_EVENT_TIME_WEATHER(hour=20*, weather=1*)
 41: 0x00A7 [0x1C] WAIT(3* ticks)
 42: 0x00AA [0x77] SET_EVENT_TIME_WEATHER(hour=21*, weather=1*)
 43: 0x00AF [0x1C] WAIT(3* ticks)
 44: 0x00B2 [0x77] SET_EVENT_TIME_WEATHER(hour=22*, weather=1*)
 45: 0x00B7 [0x1C] WAIT(3* ticks)
 46: 0x00BA [0x77] SET_EVENT_TIME_WEATHER(hour=23*, weather=1*)
 47: 0x00BF [0x1C] WAIT(3* ticks)
 48: 0x00C2 [0x77] SET_EVENT_TIME_WEATHER(hour=0*, weather=1*)
 49: 0x00C7 [0x00] END_REQSTACK()
```
