# 17720000 - Gondebaud

## Common Data

| Field            | Value                         |
|------------------|-------------------------------|
| Zone             | Southern San d'Oria (ID: 230) |
| Block Size       | 5452 bytes                    |
| Total Events     | 40                            |
| References Count | 143                           |

## List of Events

| Event ID                   | Entrypoint   |   Size |   Instructions |
|----------------------------|--------------|--------|----------------|
| [65535](#event-65535)      | 0x0000       |      1 |              1 |
| [65535.1](#event-655351)   | 0x0001       |     16 |              2 |
| [65535.2](#event-655352)   | 0x0011       |     14 |              2 |
| [65535.3](#event-655353)   | 0x001F       |     16 |              2 |
| [65535.4](#event-655354)   | 0x002F       |     14 |              2 |
| [65535.5](#event-655355)   | 0x003D       |     16 |              2 |
| [65535.6](#event-655356)   | 0x004D       |     14 |              2 |
| [65535.7](#event-655357)   | 0x005B       |     16 |              2 |
| [65535.8](#event-655358)   | 0x006B       |     14 |              2 |
| [65535.9](#event-655359)   | 0x0079       |     16 |              2 |
| [65535.10](#event-6553510) | 0x0089       |     14 |              2 |
| [65535.11](#event-6553511) | 0x0097       |     16 |              2 |
| [65535.12](#event-6553512) | 0x00A7       |     14 |              2 |
| [65535.13](#event-6553513) | 0x00B5       |     16 |              2 |
| [65535.14](#event-6553514) | 0x00C5       |     14 |              2 |
| [65535.15](#event-6553515) | 0x00D3       |     16 |              2 |
| [65535.16](#event-6553516) | 0x00E3       |     14 |              2 |
| [65535.17](#event-6553517) | 0x00F1       |     16 |              2 |
| [65535.18](#event-6553518) | 0x0101       |     14 |              2 |
| [65535.19](#event-6553519) | 0x010F       |     16 |              2 |
| [65535.20](#event-6553520) | 0x011F       |     14 |              2 |
| [65535.21](#event-6553521) | 0x012D       |     16 |              2 |
| [65535.22](#event-6553522) | 0x013D       |     14 |              2 |
| [65535.23](#event-6553523) | 0x014B       |     16 |              2 |
| [65535.24](#event-6553524) | 0x015B       |     14 |              2 |
| [65535.25](#event-6553525) | 0x0169       |     16 |              2 |
| [65535.26](#event-6553526) | 0x0179       |     14 |              2 |
| [65535.27](#event-6553527) | 0x0187       |     16 |              2 |
| [65535.28](#event-6553528) | 0x0197       |     14 |              2 |
| [65535.29](#event-6553529) | 0x01A5       |     16 |              2 |
| [65535.30](#event-6553530) | 0x01B5       |     14 |              2 |
| [3505](#event-3505)        | 0x01C3       |     29 |             10 |
| [3500](#event-3500)        | 0x01E0       |    410 |             97 |
| [3501](#event-3501)        | 0x037A       |     47 |             14 |
| [3502](#event-3502)        | 0x03A9       |    865 |            187 |
| [3503](#event-3503)        | 0x070A       |    344 |             68 |
| [3552](#event-3552)        | 0x0862       |     48 |             15 |
| [3553](#event-3553)        | 0x0892       |    273 |             44 |
| [3612](#event-3612)        | 0x09A3       |    239 |             46 |
| [3504](#event-3504)        | 0x0A92       |   1998 |            267 |

## DAT References (imed_data)

|   Index | Hex Value   |   Dec Value |
|---------|-------------|-------------|
|       0 | 0x0014      |          20 |
|       1 | 0x0015      |          21 |
|       2 | 0x001A      |          26 |
|       3 | 0x001B      |          27 |
|       4 | 0x001D      |          29 |
|       5 | 0x3C9E      |       15518 |
|       6 | 0x0001      |           1 |
|       7 | 0x3C9C      |       15516 |
|       8 | 0x3C9D      |       15517 |
|       9 | 0x3C9F      |       15519 |
|      10 | 0x0000      |           0 |
|      11 | 0x3CA0      |       15520 |
|      12 | 0x3CA1      |       15521 |
|      13 | 0x3CA2      |       15522 |
|      14 | 0x3CA3      |       15523 |
|      15 | 0x3CA4      |       15524 |
|      16 | 0x3CA6      |       15526 |
|      17 | 0x3CA7      |       15527 |
|      18 | 0x3CA8      |       15528 |
|      19 | 0x3CA9      |       15529 |
|      20 | 0x3CAA      |       15530 |
|      21 | 0x3CAB      |       15531 |
|      22 | 0x3CAC      |       15532 |
|      23 | 0x3CAE      |       15534 |
|      24 | 0x3CAF      |       15535 |
|      25 | 0x3CB0      |       15536 |
|      26 | 0x3CB1      |       15537 |
|      27 | 0x0002      |           2 |
|      28 | 0x3CAD      |       15533 |
|      29 | 0x3CA5      |       15525 |
|      30 | 0x3CB2      |       15538 |
|      31 | 0x000C      |          12 |
|      32 | 0x3CB3      |       15539 |
|      33 | 0x3CB4      |       15540 |
|      34 | 0x3CB5      |       15541 |
|      35 | 0x3CB6      |       15542 |
|      36 | 0x3CB7      |       15543 |
|      37 | 0x3CB8      |       15544 |
|      38 | 0x3CB9      |       15545 |
|      39 | 0x3CBA      |       15546 |
|      40 | 0x3CBB      |       15547 |
|      41 | 0x3CBC      |       15548 |
|      42 | 0x3CBD      |       15549 |
|      43 | 0x3CBE      |       15550 |
|      44 | 0x3CBF      |       15551 |
|      45 | 0x3CC0      |       15552 |
|      46 | 0x3CC1      |       15553 |
|      47 | 0x3CC2      |       15554 |
|      48 | 0x0003      |           3 |
|      49 | 0x3CC5      |       15557 |
|      50 | 0x3CC3      |       15555 |
|      51 | 0x0004      |           4 |
|      52 | 0x0005      |           5 |
|      53 | 0x0006      |           6 |
|      54 | 0x0007      |           7 |
|      55 | 0x0008      |           8 |
|      56 | 0x0009      |           9 |
|      57 | 0x0013      |          19 |
|      58 | 0x000A      |          10 |
|      59 | 0x000B      |          11 |
|      60 | 0x000D      |          13 |
|      61 | 0x000F      |          15 |
|      62 | 0x000E      |          14 |
|      63 | 0x0010      |          16 |
|      64 | 0x0011      |          17 |
|      65 | 0x0012      |          18 |
|      66 | 0x3CC4      |       15556 |
|      67 | 0x3CC6      |       15558 |
|      68 | 0x3CC7      |       15559 |
|      69 | 0x3CC8      |       15560 |
|      70 | 0x3CD3      |       15571 |
|      71 | 0x3CC9      |       15561 |
|      72 | 0x3CCA      |       15562 |
|      73 | 0x3CCB      |       15563 |
|      74 | 0x3CCC      |       15564 |
|      75 | 0x3CD4      |       15572 |
|      76 | 0x3CD5      |       15573 |
|      77 | 0x00C8      |         200 |
|      78 | 0x003C      |          60 |
|      79 | 0x00AE      |         174 |
|      80 | 0x00B0      |         176 |
|      81 | 0x012C      |         300 |
|      82 | 0x3CD6      |       15574 |
|      83 | 0x3CD7      |       15575 |
|      84 | 0x00C9      |         201 |
|      85 | 0x3CCD      |       15565 |
|      86 | 0x3CCE      |       15566 |
|      87 | 0x3CCF      |       15567 |
|      88 | 0x3CD0      |       15568 |
|      89 | 0x1DB7B     |      121723 |
|      90 | 0x16C10     |       93200 |
|      91 | 0x0FF8      |        4088 |
|      92 | 0x0065      |         101 |
|      93 | 0x005A      |          90 |
|      94 | 0x001E      |          30 |
|      95 | 0x3CD1      |       15569 |
|      96 | 0x3CD2      |       15570 |
|      97 | 0x0078      |         120 |
|      98 | 0x3CDA      |       15578 |
|      99 | 0x3CDB      |       15579 |
|     100 | 0x3CDC      |       15580 |
|     101 | 0x3CDD      |       15581 |
|     102 | 0x3CDE      |       15582 |
|     103 | 0x3CDF      |       15583 |
|     104 | 0x3CE0      |       15584 |
|     105 | 0x3CE1      |       15585 |
|     106 | 0x3CD8      |       15576 |
|     107 | 0x3CD9      |       15577 |
|     108 | 0x06C3      |        1731 |
|     109 | 0x2396D     |      145773 |
|     110 | 0xFFFCCBB0  |  4294757296 |
|     111 | 0x086E      |        2158 |
|     112 | 0xFFFFF52C  |  4294964524 |
|     113 | 0x23A64     |      146020 |
|     114 | 0xFFFCCF98  |  4294758296 |
|     115 | 0x006D      |         109 |
|     116 | 0x0DAC      |        3500 |
|     117 | 0x24205     |      147973 |
|     118 | 0xFFFCC9BC  |  4294756796 |
|     119 | 0x077A      |        1914 |
|     120 | 0x15B8      |        5560 |
|     121 | 0x240FF     |      147711 |
|     122 | 0x06C7      |        1735 |
|     123 | 0x13A5      |        5029 |
|     124 | 0x2456B     |      148843 |
|     125 | 0x0DAE      |        3502 |
|     126 | 0x22D3A     |      142650 |
|     127 | 0x0992      |        2450 |
|     128 | 0x0C76      |        3190 |
|     129 | 0x2323C     |      143932 |
|     130 | 0x093B      |        2363 |
|     131 | 0x00A1      |         161 |
|     132 | 0x00E8      |         232 |
|     133 | 0x27CE      |       10190 |
|     134 | 0x27CD      |       10189 |
|     135 | 0x27D0      |       10192 |
|     136 | 0x27CC      |       10188 |
|     137 | 0x27CF      |       10191 |
|     138 | 0x0FE2      |        4066 |
|     139 | 0x23C29     |      146473 |
|     140 | 0x0018      |          24 |
|     141 | 0x0064      |         100 |
|     142 | 0x007F      |         127 |

## String References

- **15516**: Hail, friend! No need to be so fleet of foot. Come, let me impart upon you a tantalizing morsel of information.
- **15517**: A [freshly hatched/well-traveled/high-class] adventurer such as yourself could surely appreciate the offer I am about to lay forth for your consideration.
- **15518**: I, Gondebaud, am an esteemed member of the storied Jeuno Institute of Magical Studies.
- **15519**: Mayhap I am repeating what you already know, but Jeuno is a grand city far to the southeast of here that connects the Quon and Mindartia continents.
- **15520**: The leading council has bid me come to this fair land of San d'Oria with a most sacred mission.
- **15521**: Several moons past, our famed institute held a lavish symposium at which we made privy to the public information about a new form of magic.
- **15522**: These new forms of incantations, which we call "Trust," would prove a mighty boon to adventurers of your caliber.
- **15523**: A bevy of new experiences await should you choose to participate in this grand experiment. Will you embark on a journey to this fresh new world?
- **15524**: Participate in the experiment? [I'd love to./I'm not sure it's for me.]
- **15525**: You leave my jaw so agape that I fear my dentures are starting to slip!
- **15526**: How fortuitous! I swear by every gray hair on this head that you will not regret it! Your first task is to head to the city gates in Northern San d'Oria.
- **15527**: There you will find someone engaged in the running of "Ballista," a type of mock skirmish. Some call him by the moniker of "the grand hero of San d'Oria."
- **15528**: As you have already surmised, experimental magic may have unknown effects on the world, so he is very careful to ensure the safety of everyone involved.
- **15529**: In fact, he is so dedicated to this goal that he himself stepped up as the nation's first participant in the program.
- **15530**: The two other grand nations--Bastok and Windurst--have also seen others step up to try their hand at this wonderful manifestation of the arcane.
- **15531**: But we will leave those journeys for a later date. Your first step starts here, in San d'Oria, where you will garner the services of one of Vana'diel's most storied heroes.
- **15532**: Participate here in San d'Oria? [Yes./No.]
- **15533**: As I previously alluded to, there are more like me stationed in the other nations. They will guide you in much the same way, so please--lend an ear when you travel abroad.
- **15534**: Stupendous! Under my expert tutelage here in San d'Oria, you will surely grasp the basics of Trust in no time!
- **15535**: Take this letter of introduction with you and head to Ranperre Gate in Northern San d'Oria.
- **15536**: To get to Northern San d'Oria, you must first head west of here, then north toward Victory Square.
- **15537**: After reaching Northern San d'Oria, you are to make for Ranperre Gate. Once there, seek out Excenmille--and pray do not affront him in any fashion. The words of a hero such as he carry unmatched weight in this land.
- **15538**: Do you require an explanation as to what Trust is?
- **15539**: Inquire about what? [What Trust is./What happens when one uses Trust./How to learn new Trust spells./Whereabouts of Trust participants./Nothing at the moment.]
- **15540**: Trust is a new series of magical incantations woven into being by the Jeuno Institute of Magical Studies, announced at our recent symposium.
- **15541**: Mayhaps the term "incantations" is a trifle misleading. Rather than draw upon aetheric manipulation, Trust taps into the spiritual connection between those bound by [fraternal/sororal] love.
- **15542**: To lead you to my explanation's logical conclusion, I'll say this magic can be utilized regardless of its wielder's vocation. Both simple and profitable.
- **15543**: As the technique is reliant upon the connection between two souls, interference by a profusion of souls, such as in cities, renders the technique unusable.
- **15544**: Using Trust magic enables the caster to call forth alter egos of those with whom [he/she] has formed bonds of friendship and trust.
- **15545**: As this technique utilizes the resonance between two kindred spirits, the alter ego which manifests always matches the caster, be they weak or strong.
- **15546**: Journeys are much more satisfying when you have a companion, don't you think? The alter ego you summon will fight bravely by your side, but you will be unable to present them with detailed tactical orders.
- **15547**: If you wish to return the alter ego from whence it came, you only need speak to it and express your desire. A bittersweet moment, to be sure.
- **15548**: Alter egos suffer wounds just like you and I, and if one falls in battle, it will wink out of existence. To watch one so dear fade away...it brings a tear to your eye, does it not?
- **15549**: Yet fret not, my disciple! After just a short while you will be able to bring it back to the world once more. Your sadness will be but whispers on the wind.
- **15550**: Bringing forth an alter ego is not a simple process. You must first forge intangible bonds with those whose aid you wish to enlist.
- **15551**: Carefully cultivate trust and respect between yourself and a practitioner, as this technique cannot work unless the bonds between you be surer than steel.
- **15552**: Know you the adage "opposites attract"? Assuredly, such is not the case here. Storied personages have little time for those whose deeds are not sung as widely as their own.
- **15553**: But all I have just told you can be circumvented, as research into new methods of calling forth alter egos has been ongoing. It is possible to summon one without having so much as met the person.
- **15554**: As you can imagine, this requires a bit of tinkering with the aether, but it is indeed possible. All I require is the appropriate scroll.
- **15555**: Do you wish to drink from the font of knowledge?
- **15556**: [Excenmille/Naji/Kupipi/Curilla/Ayame/Nanaa Mihgo/Trion/Volker/Ajido-Marujido/Iron Eater/Prishe/Ulmia/Shikaree Z/Cherukiki/Gadalar/Zazarg/Nashmeira/Gessho/Ingrid/Maat/Arciela/Chacharoon] can be found in [San d'Oria/Bastok/Windurst/Jeuno/Tavnazia/Aht Urhgan/Adoulin/the Mod Gardens].
- **15557**: My well has run dry. There is nothing more I can proffer you.
- **15558**: Oh ho! You've got $3 on hand, do you?
- **15559**: Funny story, that. They are also involved in the Trust initiative.
- **15560**: I must bow my head in appreciation for all that you and your ilk have done for us. From the bottom of my heart, thank you.
- **15561**: I am more than pleased to report that your activities on our behalf have aided the institute in posting never-before-seen results.
- **15562**: Always cherish the bonds you have formed with that person, for such resilient ties take years--decades!--to form.
- **15563**: May your trust and friendship blossom into the envy of all!
- **15564**: Wh-who? This old mind does not work like it used to, for I know not one whit about that person.
- **15565**: Bah! What exactly am I supposed to do with this pile of nonsense?
- **15566**: But lest you think otherwise, it is the parchment to blame. Some strange energy prevents it from being properly read.
- **15567**: You cannot read this cipher due to an event occurring in Rhapsodies of Vana'diel.
- **15568**: Even I cannot tell who this cipher is supposed to call. Let me get out my reading glasses and take a gander, hmm?
- **15569**: Oho! A strange apparition, you say?
- **15570**: Glad I could help you reach even greater heights. May you enjoy many bright years with your new companion.
- **15571**: Though I perhaps should not share this information with one not of the institute, lately we have been pushing the limits of the Trust initiative beyond just the five races.
- **15572**: Let us get down to business, you say? Use these newfound powers?
- **15573**: Then we shall commune together. Close your eyes, and let the powers of trust, friendship, and [brotherly/sisterly] love fill every ilm of your body.
- **15574**: A marvelous spectacle, if I do say so myself!
- **15575**: Now you owe me not one, but two! Tohoho, how great it is to have the upper hand!
- **15576**: You know about this all-important Trust initiative already? Rumors truly do spread like wildfire on a dry summer day.
- **15577**: Whether my compatriots in Bastok or Windurst informed you is of little consequence. What matters most is that you are here--and wish to engage in the trials we San d'Orians can offer.
- **15578**: Oh ho! Is that $3 you have there mayhap?
- **15579**: Doctor Monberaux is a doctor of much renown throughout Jeuno. I have been meaning to have him take a look at my creaky old back.
- **15580**: By the by, when we spoke with him about helping us with our Trust magic, he asked if his friend could join too.
- **15581**: It seems his friend Wolf-something is quite popular with ladies of a certain age such as Ilumida. He received quite a glowing recommendation.
- **15582**: Unfortunately, things ended up being a bit complicated. No, it was not like anybody was jealous of him or anything.
- **15583**: Now, where was I... Oh yes, we were talking about Doctor Monberaux. Close your eyes, and let the powers of trust, friendship, and [brotherly/sisterly] love fill every ilm of your body.
- **15584**: A marvelous spectacle, if I do say so myself!
- **15585**: Now you owe me not one, but two! Tohoho, how great it is to have the upper hand!

## Events

### Event 65535

#### Metadata

| Field        | Value   |
|--------------|---------|
| Entrypoint   | 0x0000  |
| Data Size    | 1 bytes |
| Instructions | 1       |

```
      00 01 02 03 04 05 06 07  08 09 0A 0B 0C 0D 0E 0F
      -- -- -- -- -- -- -- --  -- -- -- -- -- -- -- --
0000: 00                                                .               
```

#### Opcodes

```
  0: 0x0000 [0x00] END_REQSTACK()
```

### Event 65535.1

#### Metadata

| Field        | Value    |
|--------------|----------|
| Entrypoint   | 0x0001   |
| Data Size    | 16 bytes |
| Instructions | 2        |

```
      00 01 02 03 04 05 06 07  08 09 0A 0B 0C 0D 0E 0F
      -- -- -- -- -- -- -- --  -- -- -- -- -- -- -- --
0000:    66 00 80 F8 FF FF 7F  F8 FF FF 7F 74 6C 6B 30   f..........tlk0
0010: 00                                                .               
```

#### Opcodes

```
  0: 0x0001 [0x66] LOAD_EXT_SCHEDULER_MAIN: Load scheduler "tlk0" with entities [EventEntity, EventEntity], work=20*
  1: 0x0010 [0x00] END_REQSTACK()
```

### Event 65535.2

#### Metadata

| Field        | Value    |
|--------------|----------|
| Entrypoint   | 0x0011   |
| Data Size    | 14 bytes |
| Instructions | 2        |

```
      00 01 02 03 04 05 06 07  08 09 0A 0B 0C 0D 0E 0F
      -- -- -- -- -- -- -- --  -- -- -- -- -- -- -- --
0010:    53 F8 FF FF 7F F8 FF  FF 7F 74 6C 6B 30 00      S........tlk0. 
```

#### Opcodes

```
  0: 0x0011 [0x53] WAIT_SCHEDULER_TASK: Wait for scheduler "tlk0" with entities [EventEntity, EventEntity]
  1: 0x001E [0x00] END_REQSTACK()
```

### Event 65535.3

#### Metadata

| Field        | Value    |
|--------------|----------|
| Entrypoint   | 0x001F   |
| Data Size    | 16 bytes |
| Instructions | 2        |

```
      00 01 02 03 04 05 06 07  08 09 0A 0B 0C 0D 0E 0F
      -- -- -- -- -- -- -- --  -- -- -- -- -- -- -- --
0010:                                               66                 f
0020: 00 80 F8 FF FF 7F F8 FF  FF 7F 74 6C 6B 31 00     ..........tlk1. 
```

#### Opcodes

```
  0: 0x001F [0x66] LOAD_EXT_SCHEDULER_MAIN: Load scheduler "tlk1" with entities [EventEntity, EventEntity], work=20*
  1: 0x002E [0x00] END_REQSTACK()
```

### Event 65535.4

#### Metadata

| Field        | Value    |
|--------------|----------|
| Entrypoint   | 0x002F   |
| Data Size    | 14 bytes |
| Instructions | 2        |

```
      00 01 02 03 04 05 06 07  08 09 0A 0B 0C 0D 0E 0F
      -- -- -- -- -- -- -- --  -- -- -- -- -- -- -- --
0020:                                               53                 S
0030: F8 FF FF 7F F8 FF FF 7F  74 6C 6B 31 00           ........tlk1.   
```

#### Opcodes

```
  0: 0x002F [0x53] WAIT_SCHEDULER_TASK: Wait for scheduler "tlk1" with entities [EventEntity, EventEntity]
  1: 0x003C [0x00] END_REQSTACK()
```

### Event 65535.5

#### Metadata

| Field        | Value    |
|--------------|----------|
| Entrypoint   | 0x003D   |
| Data Size    | 16 bytes |
| Instructions | 2        |

```
      00 01 02 03 04 05 06 07  08 09 0A 0B 0C 0D 0E 0F
      -- -- -- -- -- -- -- --  -- -- -- -- -- -- -- --
0030:                                         66 00 80               f..
0040: F8 FF FF 7F F8 FF FF 7F  74 68 6B 31 00           ........thk1.   
```

#### Opcodes

```
  0: 0x003D [0x66] LOAD_EXT_SCHEDULER_MAIN: Load scheduler "thk1" with entities [EventEntity, EventEntity], work=20*
  1: 0x004C [0x00] END_REQSTACK()
```

### Event 65535.6

#### Metadata

| Field        | Value    |
|--------------|----------|
| Entrypoint   | 0x004D   |
| Data Size    | 14 bytes |
| Instructions | 2        |

```
      00 01 02 03 04 05 06 07  08 09 0A 0B 0C 0D 0E 0F
      -- -- -- -- -- -- -- --  -- -- -- -- -- -- -- --
0040:                                         53 F8 FF               S..
0050: FF 7F F8 FF FF 7F 74 68  6B 31 00                 ......thk1.     
```

#### Opcodes

```
  0: 0x004D [0x53] WAIT_SCHEDULER_TASK: Wait for scheduler "thk1" with entities [EventEntity, EventEntity]
  1: 0x005A [0x00] END_REQSTACK()
```

### Event 65535.7

#### Metadata

| Field        | Value    |
|--------------|----------|
| Entrypoint   | 0x005B   |
| Data Size    | 16 bytes |
| Instructions | 2        |

```
      00 01 02 03 04 05 06 07  08 09 0A 0B 0C 0D 0E 0F
      -- -- -- -- -- -- -- --  -- -- -- -- -- -- -- --
0050:                                   66 00 80 F8 FF             f....
0060: FF 7F F8 FF FF 7F 74 68  6B 32 00                 ......thk2.     
```

#### Opcodes

```
  0: 0x005B [0x66] LOAD_EXT_SCHEDULER_MAIN: Load scheduler "thk2" with entities [EventEntity, EventEntity], work=20*
  1: 0x006A [0x00] END_REQSTACK()
```

### Event 65535.8

#### Metadata

| Field        | Value    |
|--------------|----------|
| Entrypoint   | 0x006B   |
| Data Size    | 14 bytes |
| Instructions | 2        |

```
      00 01 02 03 04 05 06 07  08 09 0A 0B 0C 0D 0E 0F
      -- -- -- -- -- -- -- --  -- -- -- -- -- -- -- --
0060:                                   53 F8 FF FF 7F             S....
0070: F8 FF FF 7F 74 68 6B 32  00                       ....thk2.       
```

#### Opcodes

```
  0: 0x006B [0x53] WAIT_SCHEDULER_TASK: Wait for scheduler "thk2" with entities [EventEntity, EventEntity]
  1: 0x0078 [0x00] END_REQSTACK()
```

### Event 65535.9

#### Metadata

| Field        | Value    |
|--------------|----------|
| Entrypoint   | 0x0079   |
| Data Size    | 16 bytes |
| Instructions | 2        |

```
      00 01 02 03 04 05 06 07  08 09 0A 0B 0C 0D 0E 0F
      -- -- -- -- -- -- -- --  -- -- -- -- -- -- -- --
0070:                             66 00 80 F8 FF FF 7F           f......
0080: F8 FF FF 7F 70 61 73 30  00                       ....pas0.       
```

#### Opcodes

```
  0: 0x0079 [0x66] LOAD_EXT_SCHEDULER_MAIN: Load scheduler "pas0" with entities [EventEntity, EventEntity], work=20*
  1: 0x0088 [0x00] END_REQSTACK()
```

### Event 65535.10

#### Metadata

| Field        | Value    |
|--------------|----------|
| Entrypoint   | 0x0089   |
| Data Size    | 14 bytes |
| Instructions | 2        |

```
      00 01 02 03 04 05 06 07  08 09 0A 0B 0C 0D 0E 0F
      -- -- -- -- -- -- -- --  -- -- -- -- -- -- -- --
0080:                             53 F8 FF FF 7F F8 FF           S......
0090: FF 7F 70 61 73 30 00                              ..pas0.         
```

#### Opcodes

```
  0: 0x0089 [0x53] WAIT_SCHEDULER_TASK: Wait for scheduler "pas0" with entities [EventEntity, EventEntity]
  1: 0x0096 [0x00] END_REQSTACK()
```

### Event 65535.11

#### Metadata

| Field        | Value    |
|--------------|----------|
| Entrypoint   | 0x0097   |
| Data Size    | 16 bytes |
| Instructions | 2        |

```
      00 01 02 03 04 05 06 07  08 09 0A 0B 0C 0D 0E 0F
      -- -- -- -- -- -- -- --  -- -- -- -- -- -- -- --
0090:                      66  01 80 F8 FF FF 7F F8 FF         f........
00A0: FF 7F 70 6F 69 30 00                              ..poi0.         
```

#### Opcodes

```
  0: 0x0097 [0x66] LOAD_EXT_SCHEDULER_MAIN: Load scheduler "poi0" with entities [EventEntity, EventEntity], work=21*
  1: 0x00A6 [0x00] END_REQSTACK()
```

### Event 65535.12

#### Metadata

| Field        | Value    |
|--------------|----------|
| Entrypoint   | 0x00A7   |
| Data Size    | 14 bytes |
| Instructions | 2        |

```
      00 01 02 03 04 05 06 07  08 09 0A 0B 0C 0D 0E 0F
      -- -- -- -- -- -- -- --  -- -- -- -- -- -- -- --
00A0:                      53  F8 FF FF 7F F8 FF FF 7F         S........
00B0: 70 6F 69 30 00                                    poi0.           
```

#### Opcodes

```
  0: 0x00A7 [0x53] WAIT_SCHEDULER_TASK: Wait for scheduler "poi0" with entities [EventEntity, EventEntity]
  1: 0x00B4 [0x00] END_REQSTACK()
```

### Event 65535.13

#### Metadata

| Field        | Value    |
|--------------|----------|
| Entrypoint   | 0x00B5   |
| Data Size    | 16 bytes |
| Instructions | 2        |

```
      00 01 02 03 04 05 06 07  08 09 0A 0B 0C 0D 0E 0F
      -- -- -- -- -- -- -- --  -- -- -- -- -- -- -- --
00B0:                66 01 80  F8 FF FF 7F F8 FF FF 7F       f..........
00C0: 70 6F 69 31 00                                    poi1.           
```

#### Opcodes

```
  0: 0x00B5 [0x66] LOAD_EXT_SCHEDULER_MAIN: Load scheduler "poi1" with entities [EventEntity, EventEntity], work=21*
  1: 0x00C4 [0x00] END_REQSTACK()
```

### Event 65535.14

#### Metadata

| Field        | Value    |
|--------------|----------|
| Entrypoint   | 0x00C5   |
| Data Size    | 14 bytes |
| Instructions | 2        |

```
      00 01 02 03 04 05 06 07  08 09 0A 0B 0C 0D 0E 0F
      -- -- -- -- -- -- -- --  -- -- -- -- -- -- -- --
00C0:                53 F8 FF  FF 7F F8 FF FF 7F 70 6F       S........po
00D0: 69 31 00                                          i1.             
```

#### Opcodes

```
  0: 0x00C5 [0x53] WAIT_SCHEDULER_TASK: Wait for scheduler "poi1" with entities [EventEntity, EventEntity]
  1: 0x00D2 [0x00] END_REQSTACK()
```

### Event 65535.15

#### Metadata

| Field        | Value    |
|--------------|----------|
| Entrypoint   | 0x00D3   |
| Data Size    | 16 bytes |
| Instructions | 2        |

```
      00 01 02 03 04 05 06 07  08 09 0A 0B 0C 0D 0E 0F
      -- -- -- -- -- -- -- --  -- -- -- -- -- -- -- --
00D0:          66 01 80 F8 FF  FF 7F F8 FF FF 7F 64 69     f..........di
00E0: 73 30 00                                          s0.             
```

#### Opcodes

```
  0: 0x00D3 [0x66] LOAD_EXT_SCHEDULER_MAIN: Load scheduler "dis0" with entities [EventEntity, EventEntity], work=21*
  1: 0x00E2 [0x00] END_REQSTACK()
```

### Event 65535.16

#### Metadata

| Field        | Value    |
|--------------|----------|
| Entrypoint   | 0x00E3   |
| Data Size    | 14 bytes |
| Instructions | 2        |

```
      00 01 02 03 04 05 06 07  08 09 0A 0B 0C 0D 0E 0F
      -- -- -- -- -- -- -- --  -- -- -- -- -- -- -- --
00E0:          53 F8 FF FF 7F  F8 FF FF 7F 64 69 73 30     S........dis0
00F0: 00                                                .               
```

#### Opcodes

```
  0: 0x00E3 [0x53] WAIT_SCHEDULER_TASK: Wait for scheduler "dis0" with entities [EventEntity, EventEntity]
  1: 0x00F0 [0x00] END_REQSTACK()
```

### Event 65535.17

#### Metadata

| Field        | Value    |
|--------------|----------|
| Entrypoint   | 0x00F1   |
| Data Size    | 16 bytes |
| Instructions | 2        |

```
      00 01 02 03 04 05 06 07  08 09 0A 0B 0C 0D 0E 0F
      -- -- -- -- -- -- -- --  -- -- -- -- -- -- -- --
00F0:    66 02 80 F8 FF FF 7F  F8 FF FF 7F 6F 72 6F 30   f..........oro0
0100: 00                                                .               
```

#### Opcodes

```
  0: 0x00F1 [0x66] LOAD_EXT_SCHEDULER_MAIN: Load scheduler "oro0" with entities [EventEntity, EventEntity], work=26*
  1: 0x0100 [0x00] END_REQSTACK()
```

### Event 65535.18

#### Metadata

| Field        | Value    |
|--------------|----------|
| Entrypoint   | 0x0101   |
| Data Size    | 14 bytes |
| Instructions | 2        |

```
      00 01 02 03 04 05 06 07  08 09 0A 0B 0C 0D 0E 0F
      -- -- -- -- -- -- -- --  -- -- -- -- -- -- -- --
0100:    53 F8 FF FF 7F F8 FF  FF 7F 6F 72 6F 30 00      S........oro0. 
```

#### Opcodes

```
  0: 0x0101 [0x53] WAIT_SCHEDULER_TASK: Wait for scheduler "oro0" with entities [EventEntity, EventEntity]
  1: 0x010E [0x00] END_REQSTACK()
```

### Event 65535.19

#### Metadata

| Field        | Value    |
|--------------|----------|
| Entrypoint   | 0x010F   |
| Data Size    | 16 bytes |
| Instructions | 2        |

```
      00 01 02 03 04 05 06 07  08 09 0A 0B 0C 0D 0E 0F
      -- -- -- -- -- -- -- --  -- -- -- -- -- -- -- --
0100:                                               66                 f
0110: 02 80 F8 FF FF 7F F8 FF  FF 7F 6F 72 6F 31 00     ..........oro1. 
```

#### Opcodes

```
  0: 0x010F [0x66] LOAD_EXT_SCHEDULER_MAIN: Load scheduler "oro1" with entities [EventEntity, EventEntity], work=26*
  1: 0x011E [0x00] END_REQSTACK()
```

### Event 65535.20

#### Metadata

| Field        | Value    |
|--------------|----------|
| Entrypoint   | 0x011F   |
| Data Size    | 14 bytes |
| Instructions | 2        |

```
      00 01 02 03 04 05 06 07  08 09 0A 0B 0C 0D 0E 0F
      -- -- -- -- -- -- -- --  -- -- -- -- -- -- -- --
0110:                                               53                 S
0120: F8 FF FF 7F F8 FF FF 7F  6F 72 6F 31 00           ........oro1.   
```

#### Opcodes

```
  0: 0x011F [0x53] WAIT_SCHEDULER_TASK: Wait for scheduler "oro1" with entities [EventEntity, EventEntity]
  1: 0x012C [0x00] END_REQSTACK()
```

### Event 65535.21

#### Metadata

| Field        | Value    |
|--------------|----------|
| Entrypoint   | 0x012D   |
| Data Size    | 16 bytes |
| Instructions | 2        |

```
      00 01 02 03 04 05 06 07  08 09 0A 0B 0C 0D 0E 0F
      -- -- -- -- -- -- -- --  -- -- -- -- -- -- -- --
0120:                                         66 03 80               f..
0130: F8 FF FF 7F F8 FF FF 7F  74 6C 62 30 00           ........tlb0.   
```

#### Opcodes

```
  0: 0x012D [0x66] LOAD_EXT_SCHEDULER_MAIN: Load scheduler "tlb0" with entities [EventEntity, EventEntity], work=27*
  1: 0x013C [0x00] END_REQSTACK()
```

### Event 65535.22

#### Metadata

| Field        | Value    |
|--------------|----------|
| Entrypoint   | 0x013D   |
| Data Size    | 14 bytes |
| Instructions | 2        |

```
      00 01 02 03 04 05 06 07  08 09 0A 0B 0C 0D 0E 0F
      -- -- -- -- -- -- -- --  -- -- -- -- -- -- -- --
0130:                                         53 F8 FF               S..
0140: FF 7F F8 FF FF 7F 74 6C  62 30 00                 ......tlb0.     
```

#### Opcodes

```
  0: 0x013D [0x53] WAIT_SCHEDULER_TASK: Wait for scheduler "tlb0" with entities [EventEntity, EventEntity]
  1: 0x014A [0x00] END_REQSTACK()
```

### Event 65535.23

#### Metadata

| Field        | Value    |
|--------------|----------|
| Entrypoint   | 0x014B   |
| Data Size    | 16 bytes |
| Instructions | 2        |

```
      00 01 02 03 04 05 06 07  08 09 0A 0B 0C 0D 0E 0F
      -- -- -- -- -- -- -- --  -- -- -- -- -- -- -- --
0140:                                   66 03 80 F8 FF             f....
0150: FF 7F F8 FF FF 7F 74 6C  62 31 00                 ......tlb1.     
```

#### Opcodes

```
  0: 0x014B [0x66] LOAD_EXT_SCHEDULER_MAIN: Load scheduler "tlb1" with entities [EventEntity, EventEntity], work=27*
  1: 0x015A [0x00] END_REQSTACK()
```

### Event 65535.24

#### Metadata

| Field        | Value    |
|--------------|----------|
| Entrypoint   | 0x015B   |
| Data Size    | 14 bytes |
| Instructions | 2        |

```
      00 01 02 03 04 05 06 07  08 09 0A 0B 0C 0D 0E 0F
      -- -- -- -- -- -- -- --  -- -- -- -- -- -- -- --
0150:                                   53 F8 FF FF 7F             S....
0160: F8 FF FF 7F 74 6C 62 31  00                       ....tlb1.       
```

#### Opcodes

```
  0: 0x015B [0x53] WAIT_SCHEDULER_TASK: Wait for scheduler "tlb1" with entities [EventEntity, EventEntity]
  1: 0x0168 [0x00] END_REQSTACK()
```

### Event 65535.25

#### Metadata

| Field        | Value    |
|--------------|----------|
| Entrypoint   | 0x0169   |
| Data Size    | 16 bytes |
| Instructions | 2        |

```
      00 01 02 03 04 05 06 07  08 09 0A 0B 0C 0D 0E 0F
      -- -- -- -- -- -- -- --  -- -- -- -- -- -- -- --
0160:                             66 04 80 F8 FF FF 7F           f......
0170: F8 FF FF 7F 73 69 74 30  00                       ....sit0.       
```

#### Opcodes

```
  0: 0x0169 [0x66] LOAD_EXT_SCHEDULER_MAIN: Load scheduler "sit0" with entities [EventEntity, EventEntity], work=29*
  1: 0x0178 [0x00] END_REQSTACK()
```

### Event 65535.26

#### Metadata

| Field        | Value    |
|--------------|----------|
| Entrypoint   | 0x0179   |
| Data Size    | 14 bytes |
| Instructions | 2        |

```
      00 01 02 03 04 05 06 07  08 09 0A 0B 0C 0D 0E 0F
      -- -- -- -- -- -- -- --  -- -- -- -- -- -- -- --
0170:                             53 F8 FF FF 7F F8 FF           S......
0180: FF 7F 73 69 74 30 00                              ..sit0.         
```

#### Opcodes

```
  0: 0x0179 [0x53] WAIT_SCHEDULER_TASK: Wait for scheduler "sit0" with entities [EventEntity, EventEntity]
  1: 0x0186 [0x00] END_REQSTACK()
```

### Event 65535.27

#### Metadata

| Field        | Value    |
|--------------|----------|
| Entrypoint   | 0x0187   |
| Data Size    | 16 bytes |
| Instructions | 2        |

```
      00 01 02 03 04 05 06 07  08 09 0A 0B 0C 0D 0E 0F
      -- -- -- -- -- -- -- --  -- -- -- -- -- -- -- --
0180:                      66  04 80 F8 FF FF 7F F8 FF         f........
0190: FF 7F 73 69 74 31 00                              ..sit1.         
```

#### Opcodes

```
  0: 0x0187 [0x66] LOAD_EXT_SCHEDULER_MAIN: Load scheduler "sit1" with entities [EventEntity, EventEntity], work=29*
  1: 0x0196 [0x00] END_REQSTACK()
```

### Event 65535.28

#### Metadata

| Field        | Value    |
|--------------|----------|
| Entrypoint   | 0x0197   |
| Data Size    | 14 bytes |
| Instructions | 2        |

```
      00 01 02 03 04 05 06 07  08 09 0A 0B 0C 0D 0E 0F
      -- -- -- -- -- -- -- --  -- -- -- -- -- -- -- --
0190:                      53  F8 FF FF 7F F8 FF FF 7F         S........
01A0: 73 69 74 31 00                                    sit1.           
```

#### Opcodes

```
  0: 0x0197 [0x53] WAIT_SCHEDULER_TASK: Wait for scheduler "sit1" with entities [EventEntity, EventEntity]
  1: 0x01A4 [0x00] END_REQSTACK()
```

### Event 65535.29

#### Metadata

| Field        | Value    |
|--------------|----------|
| Entrypoint   | 0x01A5   |
| Data Size    | 16 bytes |
| Instructions | 2        |

```
      00 01 02 03 04 05 06 07  08 09 0A 0B 0C 0D 0E 0F
      -- -- -- -- -- -- -- --  -- -- -- -- -- -- -- --
01A0:                66 04 80  F8 FF FF 7F F8 FF FF 7F       f..........
01B0: 73 69 74 6C 00                                    sitl.           
```

#### Opcodes

```
  0: 0x01A5 [0x66] LOAD_EXT_SCHEDULER_MAIN: Load scheduler "sitl" with entities [EventEntity, EventEntity], work=29*
  1: 0x01B4 [0x00] END_REQSTACK()
```

### Event 65535.30

#### Metadata

| Field        | Value    |
|--------------|----------|
| Entrypoint   | 0x01B5   |
| Data Size    | 14 bytes |
| Instructions | 2        |

```
      00 01 02 03 04 05 06 07  08 09 0A 0B 0C 0D 0E 0F
      -- -- -- -- -- -- -- --  -- -- -- -- -- -- -- --
01B0:                53 F8 FF  FF 7F F8 FF FF 7F 73 69       S........si
01C0: 74 6C 00                                          tl.             
```

#### Opcodes

```
  0: 0x01B5 [0x53] WAIT_SCHEDULER_TASK: Wait for scheduler "sitl" with entities [EventEntity, EventEntity]
  1: 0x01C2 [0x00] END_REQSTACK()
```

### Event 3505

#### Metadata

| Field        | Value    |
|--------------|----------|
| Entrypoint   | 0x01C3   |
| Data Size    | 29 bytes |
| Instructions | 10       |

```
      00 01 02 03 04 05 06 07  08 09 0A 0B 0C 0D 0E 0F
      -- -- -- -- -- -- -- --  -- -- -- -- -- -- -- --
01C0:          1E F0 FF FF 7F  6F 70 29 08 C0 62 0E 01     .....op)..b..
01D0: 01 1D 05 80 23 29 08 C0  62 0E 01 02 20 00 21 00  ....#)..b... .!.
```

#### Opcodes

```
  0: 0x01C3 [0x1E] EventEntity looks at LocalPlayer and starts talking
  1: 0x01C8 [0x6F] WAIT_FRAME_DELAY: Yield until WaitTime reaches zero
  2: 0x01C9 [0x70] WAIT_ENTITY_RENDER_FLAG: Wait while EventEntity->Render.Flags3 bit 2 is set (cancel turn if not)
  3: 0x01CA [0x29] REQ_SET_WAIT(priority=0x08, entity_id=Gondebaud (ID: 17720000/0x010E62C0), tag_num=0x01)
  4: 0x01D1 [0x1D] PRINT_EVENT_MESSAGE(message_id=15518*)
    → "I, Gondebaud, am an esteemed member of the storied Jeuno Institute of Magical Studies."
  5: 0x01D4 [0x23] WAIT_FOR_DIALOG_INTERACTION
  6: 0x01D5 [0x29] REQ_SET_WAIT(priority=0x08, entity_id=Gondebaud (ID: 17720000/0x010E62C0), tag_num=0x02)
  7: 0x01DC [0x20] SET_CLI_EVENT_UC_FLAG: Unlock player control
  8: 0x01DE [0x21] END_EVENT
  9: 0x01DF [0x00] END_REQSTACK()
```

### Event 3500

#### Metadata

| Field        | Value     |
|--------------|-----------|
| Entrypoint   | 0x01E0    |
| Data Size    | 410 bytes |
| Instructions | 97        |

```
      00 01 02 03 04 05 06 07  08 09 0A 0B 0C 0D 0E 0F
      -- -- -- -- -- -- -- --  -- -- -- -- -- -- -- --
01E0: 1E F0 FF FF 7F 4A F0 FF  FF 7F F8 FF FF 7F 6F 70  .....J........op
01F0: 03 01 10 06 80 29 08 C0  62 0E 01 0F 1D 07 80 23  .....)..b......#
0200: 1D 08 80 23 29 08 C0 62  0E 01 10 29 08 C0 62 0E  ...#)..b...)..b.
0210: 01 01 1D 05 80 23 1D 09  80 23 29 08 C0 62 0E 01  .....#...#)..b..
0220: 02 03 04 10 0A 80 29 08  C0 62 0E 01 03 1D 0B 80  ......)..b......
0230: 23 29 08 C0 62 0E 01 04  29 08 C0 62 0E 01 05 1D  #)..b...)..b....
0240: 0C 80 23 1D 0D 80 23 29  08 C0 62 0E 01 06 29 08  ..#...#)..b...).
0250: C0 62 0E 01 07 1D 0E 80  23 29 08 C0 62 0E 01 08  .b......#)..b...
0260: 24 0F 80 0A 80 0A 80 25  02 00 10 0A 80 00 4D 03  $......%......M.
0270: 29 08 C0 62 0E 01 01 1D  10 80 23 1D 11 80 23 29  )..b......#...#)
0280: 08 C0 62 0E 01 02 29 08  C0 62 0E 01 15 1D 12 80  ..b...)..b......
0290: 23 29 08 C0 62 0E 01 16  29 08 C0 62 0E 01 17 1D  #)..b...)..b....
02A0: 13 80 23 29 08 C0 62 0E  01 18 29 08 C0 62 0E 01  ..#)..b...)..b..
02B0: 05 1D 14 80 23 29 08 C0  62 0E 01 06 29 08 C0 62  ....#)..b...)..b
02C0: 0E 01 07 1D 15 80 23 29  08 C0 62 0E 01 08 24 16  ......#)..b...$.
02D0: 80 0A 80 0A 80 25 02 00  10 0A 80 00 21 03 42 1D  .....%......!.B.
02E0: 17 80 23 29 08 C0 62 0E  01 09 1D 18 80 23 29 08  ..#)..b......#).
02F0: C0 62 0E 01 0A 29 08 C0  62 0E 01 01 1D 19 80 23  .b...)..b......#
0300: 29 08 C0 62 0E 01 02 29  08 C0 62 0E 01 03 1D 1A  )..b...)..b.....
0310: 80 23 29 08 C0 62 0E 01  04 03 01 10 1B 80 01 4A  .#)..b.........J
0320: 03 02 00 10 06 80 00 4A  03 29 08 C0 62 0E 01 05  .......J.)..b...
0330: 1D 1C 80 23 29 08 C0 62  0E 01 06 29 08 C0 62 0E  ...#)..b...)..b.
0340: 01 07 03 01 10 06 80 01  4A 03 01 76 03 02 00 10  ........J..v....
0350: 06 80 00 76 03 29 08 C0  62 0E 01 11 1D 1D 80 23  ...v.)..b......#
0360: 29 08 C0 62 0E 01 12 29  08 C0 62 0E 01 13 03 01  )..b...)..b.....
0370: 10 06 80 01 76 03 20 00  21 00                    ....v. .!.      
```

#### Opcodes

```
  0: 0x01E0 [0x1E] EventEntity looks at LocalPlayer and starts talking
  1: 0x01E5 [0x4A] LocalPlayer looks at EventEntity
  2: 0x01EE [0x6F] WAIT_FRAME_DELAY: Yield until WaitTime reaches zero
  3: 0x01EF [0x70] WAIT_ENTITY_RENDER_FLAG: Wait while EventEntity->Render.Flags3 bit 2 is set (cancel turn if not)
  4: 0x01F0 [0x03] Work_Zone[1] = 1*
  5: 0x01F5 [0x29] REQ_SET_WAIT(priority=0x08, entity_id=Gondebaud (ID: 17720000/0x010E62C0), tag_num=0x0F)
  6: 0x01FC [0x1D] PRINT_EVENT_MESSAGE(message_id=15516*)
    → "Hail, friend! No need to be so fleet of foot. Come, let me impart upon you a tantalizing morsel of information."
  7: 0x01FF [0x23] WAIT_FOR_DIALOG_INTERACTION
  8: 0x0200 [0x1D] PRINT_EVENT_MESSAGE(message_id=15517*)
    → "A [freshly hatched/well-traveled/high-class] adventurer such as yourself could surely appreciate the offer I am about to lay forth for your consideration."
  9: 0x0203 [0x23] WAIT_FOR_DIALOG_INTERACTION
 10: 0x0204 [0x29] REQ_SET_WAIT(priority=0x08, entity_id=Gondebaud (ID: 17720000/0x010E62C0), tag_num=0x10)
 11: 0x020B [0x29] REQ_SET_WAIT(priority=0x08, entity_id=Gondebaud (ID: 17720000/0x010E62C0), tag_num=0x01)
 12: 0x0212 [0x1D] PRINT_EVENT_MESSAGE(message_id=15518*)
    → "I, Gondebaud, am an esteemed member of the storied Jeuno Institute of Magical Studies."
 13: 0x0215 [0x23] WAIT_FOR_DIALOG_INTERACTION
 14: 0x0216 [0x1D] PRINT_EVENT_MESSAGE(message_id=15519*)
    → "Mayhap I am repeating what you already know, but Jeuno is a grand city far to the southeast of here that connects the Quon and Mindartia continents."
 15: 0x0219 [0x23] WAIT_FOR_DIALOG_INTERACTION
 16: 0x021A [0x29] REQ_SET_WAIT(priority=0x08, entity_id=Gondebaud (ID: 17720000/0x010E62C0), tag_num=0x02)
 17: 0x0221 [0x03] Work_Zone[4] = 0*
 18: 0x0226 [0x29] REQ_SET_WAIT(priority=0x08, entity_id=Gondebaud (ID: 17720000/0x010E62C0), tag_num=0x03)
 19: 0x022D [0x1D] PRINT_EVENT_MESSAGE(message_id=15520*)
    → "The leading council has bid me come to this fair land of San d'Oria with a most sacred mission."
 20: 0x0230 [0x23] WAIT_FOR_DIALOG_INTERACTION
 21: 0x0231 [0x29] REQ_SET_WAIT(priority=0x08, entity_id=Gondebaud (ID: 17720000/0x010E62C0), tag_num=0x04)
 22: 0x0238 [0x29] REQ_SET_WAIT(priority=0x08, entity_id=Gondebaud (ID: 17720000/0x010E62C0), tag_num=0x05)
 23: 0x023F [0x1D] PRINT_EVENT_MESSAGE(message_id=15521*)
    → "Several moons past, our famed institute held a lavish symposium at which we made privy to the public information about a new form of magic."
 24: 0x0242 [0x23] WAIT_FOR_DIALOG_INTERACTION
 25: 0x0243 [0x1D] PRINT_EVENT_MESSAGE(message_id=15522*)
    → "These new forms of incantations, which we call "Trust," would prove a mighty boon to adventurers of your caliber."
 26: 0x0246 [0x23] WAIT_FOR_DIALOG_INTERACTION
 27: 0x0247 [0x29] REQ_SET_WAIT(priority=0x08, entity_id=Gondebaud (ID: 17720000/0x010E62C0), tag_num=0x06)
 28: 0x024E [0x29] REQ_SET_WAIT(priority=0x08, entity_id=Gondebaud (ID: 17720000/0x010E62C0), tag_num=0x07)
 29: 0x0255 [0x1D] PRINT_EVENT_MESSAGE(message_id=15523*)
    → "A bevy of new experiences await should you choose to participate in this grand experiment. Will you embark on a journey to this fresh new world?"
 30: 0x0258 [0x23] WAIT_FOR_DIALOG_INTERACTION
 31: 0x0259 [0x29] REQ_SET_WAIT(priority=0x08, entity_id=Gondebaud (ID: 17720000/0x010E62C0), tag_num=0x08)
 32: 0x0260 [0x24] CREATE_DIALOG(message_id=15524*, default_option=0*, option_flags=0*)
    → "Participate in the experiment? [I'd love to./I'm not sure it's for me.]"
 33: 0x0267 [0x25] WAIT_DIALOG_SELECT()
 34: 0x0268 [0x02] IF !(Work_Zone[0] == 0*) GOTO 0x034D
 35: 0x0270 [0x29] REQ_SET_WAIT(priority=0x08, entity_id=Gondebaud (ID: 17720000/0x010E62C0), tag_num=0x01)
 36: 0x0277 [0x1D] PRINT_EVENT_MESSAGE(message_id=15526*)
    → "How fortuitous! I swear by every gray hair on this head that you will not regret it! Your first task is to head to the city gates in Northern San d'Oria."
 37: 0x027A [0x23] WAIT_FOR_DIALOG_INTERACTION
 38: 0x027B [0x1D] PRINT_EVENT_MESSAGE(message_id=15527*)
    → "There you will find someone engaged in the running of "Ballista," a type of mock skirmish. Some call him by the moniker of "the grand hero of San d'Oria.""
 39: 0x027E [0x23] WAIT_FOR_DIALOG_INTERACTION
 40: 0x027F [0x29] REQ_SET_WAIT(priority=0x08, entity_id=Gondebaud (ID: 17720000/0x010E62C0), tag_num=0x02)
 41: 0x0286 [0x29] REQ_SET_WAIT(priority=0x08, entity_id=Gondebaud (ID: 17720000/0x010E62C0), tag_num=0x15)
 42: 0x028D [0x1D] PRINT_EVENT_MESSAGE(message_id=15528*)
    → "As you have already surmised, experimental magic may have unknown effects on the world, so he is very careful to ensure the safety of everyone involved."
 43: 0x0290 [0x23] WAIT_FOR_DIALOG_INTERACTION
 44: 0x0291 [0x29] REQ_SET_WAIT(priority=0x08, entity_id=Gondebaud (ID: 17720000/0x010E62C0), tag_num=0x16)
 45: 0x0298 [0x29] REQ_SET_WAIT(priority=0x08, entity_id=Gondebaud (ID: 17720000/0x010E62C0), tag_num=0x17)
 46: 0x029F [0x1D] PRINT_EVENT_MESSAGE(message_id=15529*)
    → "In fact, he is so dedicated to this goal that he himself stepped up as the nation's first participant in the program."
 47: 0x02A2 [0x23] WAIT_FOR_DIALOG_INTERACTION
 48: 0x02A3 [0x29] REQ_SET_WAIT(priority=0x08, entity_id=Gondebaud (ID: 17720000/0x010E62C0), tag_num=0x18)
 49: 0x02AA [0x29] REQ_SET_WAIT(priority=0x08, entity_id=Gondebaud (ID: 17720000/0x010E62C0), tag_num=0x05)
 50: 0x02B1 [0x1D] PRINT_EVENT_MESSAGE(message_id=15530*)
    → "The two other grand nations--Bastok and Windurst--have also seen others step up to try their hand at this wonderful manifestation of the arcane."
 51: 0x02B4 [0x23] WAIT_FOR_DIALOG_INTERACTION
 52: 0x02B5 [0x29] REQ_SET_WAIT(priority=0x08, entity_id=Gondebaud (ID: 17720000/0x010E62C0), tag_num=0x06)
 53: 0x02BC [0x29] REQ_SET_WAIT(priority=0x08, entity_id=Gondebaud (ID: 17720000/0x010E62C0), tag_num=0x07)
 54: 0x02C3 [0x1D] PRINT_EVENT_MESSAGE(message_id=15531*)
    → "But we will leave those journeys for a later date. Your first step starts here, in San d'Oria, where you will garner the services of one of Vana'diel's most storied heroes."
 55: 0x02C6 [0x23] WAIT_FOR_DIALOG_INTERACTION
 56: 0x02C7 [0x29] REQ_SET_WAIT(priority=0x08, entity_id=Gondebaud (ID: 17720000/0x010E62C0), tag_num=0x08)
 57: 0x02CE [0x24] CREATE_DIALOG(message_id=15532*, default_option=0*, option_flags=0*)
    → "Participate here in San d'Oria? [Yes./No.]"
 58: 0x02D5 [0x25] WAIT_DIALOG_SELECT()
 59: 0x02D6 [0x02] IF !(Work_Zone[0] == 0*) GOTO 0x0321
 60: 0x02DE [0x42] SET_CLI_EVENT_CANCEL_DATA()
 61: 0x02DF [0x1D] PRINT_EVENT_MESSAGE(message_id=15534*)
    → "Stupendous! Under my expert tutelage here in San d'Oria, you will surely grasp the basics of Trust in no time!"
 62: 0x02E2 [0x23] WAIT_FOR_DIALOG_INTERACTION
 63: 0x02E3 [0x29] REQ_SET_WAIT(priority=0x08, entity_id=Gondebaud (ID: 17720000/0x010E62C0), tag_num=0x09)
 64: 0x02EA [0x1D] PRINT_EVENT_MESSAGE(message_id=15535*)
    → "Take this letter of introduction with you and head to Ranperre Gate in Northern San d'Oria."
 65: 0x02ED [0x23] WAIT_FOR_DIALOG_INTERACTION
 66: 0x02EE [0x29] REQ_SET_WAIT(priority=0x08, entity_id=Gondebaud (ID: 17720000/0x010E62C0), tag_num=0x0A)
 67: 0x02F5 [0x29] REQ_SET_WAIT(priority=0x08, entity_id=Gondebaud (ID: 17720000/0x010E62C0), tag_num=0x01)
 68: 0x02FC [0x1D] PRINT_EVENT_MESSAGE(message_id=15536*)
    → "To get to Northern San d'Oria, you must first head west of here, then north toward Victory Square."
 69: 0x02FF [0x23] WAIT_FOR_DIALOG_INTERACTION
 70: 0x0300 [0x29] REQ_SET_WAIT(priority=0x08, entity_id=Gondebaud (ID: 17720000/0x010E62C0), tag_num=0x02)
 71: 0x0307 [0x29] REQ_SET_WAIT(priority=0x08, entity_id=Gondebaud (ID: 17720000/0x010E62C0), tag_num=0x03)
 72: 0x030E [0x1D] PRINT_EVENT_MESSAGE(message_id=15537*)
    → "After reaching Northern San d'Oria, you are to make for Ranperre Gate. Once there, seek out Excenmille--and pray do not affront him in any fashion. The words of a hero such as he carry unmatched weight in this land."
 73: 0x0311 [0x23] WAIT_FOR_DIALOG_INTERACTION
 74: 0x0312 [0x29] REQ_SET_WAIT(priority=0x08, entity_id=Gondebaud (ID: 17720000/0x010E62C0), tag_num=0x04)
 75: 0x0319 [0x03] Work_Zone[1] = 2*
 76: 0x031E [0x01] GOTO 0x034A
 77: 0x0321 [0x02] IF !(Work_Zone[0] == 1*) GOTO 0x034A
 78: 0x0329 [0x29] REQ_SET_WAIT(priority=0x08, entity_id=Gondebaud (ID: 17720000/0x010E62C0), tag_num=0x05)
 79: 0x0330 [0x1D] PRINT_EVENT_MESSAGE(message_id=15533*)
    → "As I previously alluded to, there are more like me stationed in the other nations. They will guide you in much the same way, so please--lend an ear when you travel abroad."
 80: 0x0333 [0x23] WAIT_FOR_DIALOG_INTERACTION
 81: 0x0334 [0x29] REQ_SET_WAIT(priority=0x08, entity_id=Gondebaud (ID: 17720000/0x010E62C0), tag_num=0x06)
 82: 0x033B [0x29] REQ_SET_WAIT(priority=0x08, entity_id=Gondebaud (ID: 17720000/0x010E62C0), tag_num=0x07)
 83: 0x0342 [0x03] Work_Zone[1] = 1*
 84: 0x0347 [0x01] GOTO 0x034A

SUBROUTINE_034A:
 85: 0x034A [0x01] GOTO 0x0376
 86: 0x034D [0x02] IF !(Work_Zone[0] == 1*) GOTO 0x0376
 87: 0x0355 [0x29] REQ_SET_WAIT(priority=0x08, entity_id=Gondebaud (ID: 17720000/0x010E62C0), tag_num=0x11)
 88: 0x035C [0x1D] PRINT_EVENT_MESSAGE(message_id=15525*)
    → "You leave my jaw so agape that I fear my dentures are starting to slip!"
 89: 0x035F [0x23] WAIT_FOR_DIALOG_INTERACTION
 90: 0x0360 [0x29] REQ_SET_WAIT(priority=0x08, entity_id=Gondebaud (ID: 17720000/0x010E62C0), tag_num=0x12)
 91: 0x0367 [0x29] REQ_SET_WAIT(priority=0x08, entity_id=Gondebaud (ID: 17720000/0x010E62C0), tag_num=0x13)
 92: 0x036E [0x03] Work_Zone[1] = 1*
 93: 0x0373 [0x01] GOTO 0x0376

SUBROUTINE_0376:
 94: 0x0376 [0x20] SET_CLI_EVENT_UC_FLAG: Unlock player control
 95: 0x0378 [0x21] END_EVENT
 96: 0x0379 [0x00] END_REQSTACK()
```

### Event 3501

#### Metadata

| Field        | Value    |
|--------------|----------|
| Entrypoint   | 0x037A   |
| Data Size    | 47 bytes |
| Instructions | 14       |

```
      00 01 02 03 04 05 06 07  08 09 0A 0B 0C 0D 0E 0F
      -- -- -- -- -- -- -- --  -- -- -- -- -- -- -- --
0370:                                1E F0 FF FF 7F 6F            .....o
0380: 70 29 08 C0 62 0E 01 01  1D 19 80 23 29 08 C0 62  p)..b......#)..b
0390: 0E 01 02 29 08 C0 62 0E  01 03 1D 1A 80 23 29 08  ...)..b......#).
03A0: C0 62 0E 01 04 20 00 21  00                       .b... .!.       
```

#### Opcodes

```
  0: 0x037A [0x1E] EventEntity looks at LocalPlayer and starts talking
  1: 0x037F [0x6F] WAIT_FRAME_DELAY: Yield until WaitTime reaches zero
  2: 0x0380 [0x70] WAIT_ENTITY_RENDER_FLAG: Wait while EventEntity->Render.Flags3 bit 2 is set (cancel turn if not)
  3: 0x0381 [0x29] REQ_SET_WAIT(priority=0x08, entity_id=Gondebaud (ID: 17720000/0x010E62C0), tag_num=0x01)
  4: 0x0388 [0x1D] PRINT_EVENT_MESSAGE(message_id=15536*)
    → "To get to Northern San d'Oria, you must first head west of here, then north toward Victory Square."
  5: 0x038B [0x23] WAIT_FOR_DIALOG_INTERACTION
  6: 0x038C [0x29] REQ_SET_WAIT(priority=0x08, entity_id=Gondebaud (ID: 17720000/0x010E62C0), tag_num=0x02)
  7: 0x0393 [0x29] REQ_SET_WAIT(priority=0x08, entity_id=Gondebaud (ID: 17720000/0x010E62C0), tag_num=0x03)
  8: 0x039A [0x1D] PRINT_EVENT_MESSAGE(message_id=15537*)
    → "After reaching Northern San d'Oria, you are to make for Ranperre Gate. Once there, seek out Excenmille--and pray do not affront him in any fashion. The words of a hero such as he carry unmatched weight in this land."
  9: 0x039D [0x23] WAIT_FOR_DIALOG_INTERACTION
 10: 0x039E [0x29] REQ_SET_WAIT(priority=0x08, entity_id=Gondebaud (ID: 17720000/0x010E62C0), tag_num=0x04)
 11: 0x03A5 [0x20] SET_CLI_EVENT_UC_FLAG: Unlock player control
 12: 0x03A7 [0x21] END_EVENT
 13: 0x03A8 [0x00] END_REQSTACK()
```

### Event 3502

#### Metadata

| Field        | Value     |
|--------------|-----------|
| Entrypoint   | 0x03A9    |
| Data Size    | 865 bytes |
| Instructions | 40        |

```
      00 01 02 03 04 05 06 07  08 09 0A 0B 0C 0D 0E 0F
      -- -- -- -- -- -- -- --  -- -- -- -- -- -- -- --
03A0:                             1E F0 FF FF 7F 4A F0           .....J.
03B0: FF FF 7F F8 FF FF 7F 6F  70 03 02 00 06 10 03 03  .......op.......
03C0: 00 02 10 1D 1E 80 23 02  03 00 06 80 00 D7 03 03  ......#.........
03D0: 03 00 0A 80 01 DC 03 03  03 00 1F 80 24 20 80 0A  ............$ ..
03E0: 80 03 00 25 02 00 10 0A  80 00 3A 04 29 08 C0 62  ...%......:.)..b
03F0: 0E 01 05 1D 21 80 23 1D  22 80 23 29 08 C0 62 0E  ....!.#.".#)..b.
0400: 01 06 29 08 C0 62 0E 01  07 1D 23 80 23 29 08 C0  ..)..b....#.#)..
0410: 62 0E 01 08 29 08 C0 62  0E 01 0B 1D 24 80 23 29  b...)..b....$.#)
0420: 08 C0 62 0E 01 0C 29 08  C0 62 0E 01 0D 29 08 C0  ..b...)..b...)..
0430: 62 0E 01 0E 01 DC 03 01  06 07 02 00 10 06 80 00  b...............
0440: A6 04 29 08 C0 62 0E 01  0F 1D 25 80 23 29 08 C0  ..)..b....%.#)..
0450: 62 0E 01 10 29 08 C0 62  0E 01 05 1D 26 80 23 29  b...)..b....&.#)
0460: 08 C0 62 0E 01 06 29 08  C0 62 0E 01 07 1D 27 80  ..b...)..b....'.
0470: 23 29 08 C0 62 0E 01 08  29 08 C0 62 0E 01 01 1D  #)..b...)..b....
0480: 28 80 23 1D 29 80 23 29  08 C0 62 0E 01 02 29 08  (.#.).#)..b...).
0490: C0 62 0E 01 03 1D 2A 80  23 29 08 C0 62 0E 01 04  .b....*.#)..b...
04A0: 01 DC 03 01 06 07 02 00  10 1B 80 00 F7 04 29 08  ..............).
04B0: C0 62 0E 01 01 1D 2B 80  23 1D 2C 80 23 29 08 C0  .b....+.#.,.#)..
04C0: 62 0E 01 02 29 08 C0 62  0E 01 03 1D 2D 80 23 29  b...)..b....-.#)
04D0: 08 C0 62 0E 01 04 03 07  10 0A 80 29 08 C0 62 0E  ..b........)..b.
04E0: 01 0F 1D 2E 80 23 1D 2F  80 23 29 08 C0 62 0E 01  .....#./.#)..b..
04F0: 10 01 DC 03 01 06 07 02  00 10 30 80 00 FB 06 02  ..........0.....
0500: 02 00 0A 80 00 1C 05 29  08 C0 62 0E 01 0F 1D 31  .......)..b....1
0510: 80 23 29 08 C0 62 0E 01  10 01 F5 06 29 08 C0 62  .#)..b......)..b
0520: 0E 01 05 1D 32 80 23 29  08 C0 62 0E 01 06 3E 02  ....2.#)..b...>.
0530: 00 30 80 42 05 03 04 10  0A 80 03 05 10 0A 80 01  .0.B............
0540: E3 06 3E 02 00 33 80 56  05 03 04 10 0A 80 03 05  ..>..3.V........
0550: 10 30 80 01 E3 06 3E 02  00 34 80 6A 05 03 04 10  .0....>..4.j....
0560: 0A 80 03 05 10 35 80 01  E3 06 3E 02 00 35 80 7E  .....5....>..5.~
0570: 05 03 04 10 1B 80 03 05  10 1B 80 01 E3 06 3E 02  ..............>.
0580: 00 36 80 92 05 03 04 10  1B 80 03 05 10 34 80 01  .6...........4..
0590: E3 06 3E 02 00 37 80 A6  05 03 04 10 1B 80 03 05  ..>..7..........
05A0: 10 37 80 01 E3 06 3E 02  00 1F 80 BA 05 03 04 10  .7....>.........
05B0: 1B 80 03 05 10 1F 80 01  E3 06 3E 02 00 0A 80 CE  ..........>.....
05C0: 05 03 04 10 06 80 03 05  10 06 80 01 E3 06 3E 02  ..............>.
05D0: 00 06 80 E2 05 03 04 10  06 80 03 05 10 33 80 01  .............3..
05E0: E3 06 3E 02 00 1B 80 F6  05 03 04 10 06 80 03 05  ..>.............
05F0: 10 36 80 01 E3 06 3E 02  00 38 80 0A 06 03 04 10  .6....>..8......
0600: 06 80 03 05 10 38 80 01  E3 06 3E 02 00 39 80 1E  .....8....>..9..
0610: 06 03 04 10 30 80 03 05  10 39 80 01 E3 06 3E 02  ....0....9....>.
0620: 00 3A 80 32 06 03 04 10  33 80 03 05 10 3A 80 01  .:.2....3....:..
0630: E3 06 3E 02 00 3B 80 46  06 03 04 10 33 80 03 05  ..>..;.F....3...
0640: 10 3B 80 01 E3 06 3E 02  00 3C 80 5A 06 03 04 10  .;....>..<.Z....
0650: 30 80 03 05 10 3C 80 01  E3 06 3E 02 00 3D 80 6E  0....<....>..=.n
0660: 06 03 04 10 34 80 03 05  10 3D 80 01 E3 06 3E 02  ....4....=....>.
0670: 00 3E 80 82 06 03 04 10  34 80 03 05 10 3E 80 01  .>......4....>..
0680: E3 06 3E 02 00 3F 80 96  06 03 04 10 34 80 03 05  ..>..?......4...
0690: 10 3F 80 01 E3 06 3E 02  00 40 80 AA 06 03 04 10  .?....>..@......
06A0: 34 80 03 05 10 40 80 01  E3 06 3E 02 00 41 80 BE  4....@....>..A..
06B0: 06 03 04 10 35 80 03 05  10 41 80 01 E3 06 3E 02  ....5....A....>.
06C0: 00 00 80 D2 06 03 04 10  35 80 03 05 10 00 80 01  ........5.......
06D0: E3 06 3E 02 00 01 80 E3  06 03 04 10 36 80 03 05  ..>.........6...
06E0: 10 01 80 29 08 C0 62 0E  01 07 1D 42 80 23 29 08  ...)..b....B.#).
06F0: C0 62 0E 01 08 01 DC 03  01 06 07 02 00 10 33 80  .b............3.
0700: 00 06 07 01 06 07 20 00  21 00                    ...... .!.      
```

#### Opcodes

```
  0: 0x03A9 [0x1E] EventEntity looks at LocalPlayer and starts talking
  1: 0x03AE [0x4A] LocalPlayer looks at EventEntity
  2: 0x03B7 [0x6F] WAIT_FRAME_DELAY: Yield until WaitTime reaches zero
  3: 0x03B8 [0x70] WAIT_ENTITY_RENDER_FLAG: Wait while EventEntity->Render.Flags3 bit 2 is set (cancel turn if not)
  4: 0x03B9 [0x03] ExtData[1]->WorkLocal[2] = Work_Zone[6]
  5: 0x03BE [0x03] ExtData[1]->WorkLocal[3] = Work_Zone[2]
  6: 0x03C3 [0x1D] PRINT_EVENT_MESSAGE(message_id=15538*)
    → "Do you require an explanation as to what Trust is?"
  7: 0x03C6 [0x23] WAIT_FOR_DIALOG_INTERACTION
  8: 0x03C7 [0x02] IF !(ExtData[1]->WorkLocal[3] == 1*) GOTO 0x03D7
  9: 0x03CF [0x03] ExtData[1]->WorkLocal[3] = 0*
 10: 0x03D4 [0x01] GOTO 0x03DC
 11: 0x03D7 [0x03] ExtData[1]->WorkLocal[3] = 12*

SUBROUTINE_03DC:
 12: 0x03DC [0x24] CREATE_DIALOG(message_id=15539*, default_option=0*, option_flags=ExtData[1]->WorkLocal[3])
    → "Inquire about what? [What Trust is./What happens when one uses Trust./How to learn new Trust spells./Whereabouts of Trust participants./Nothing at the moment.]"
 13: 0x03E3 [0x25] WAIT_DIALOG_SELECT()
 14: 0x03E4 [0x02] IF !(Work_Zone[0] == 0*) GOTO 0x043A
 15: 0x03EC [0x29] REQ_SET_WAIT(priority=0x08, entity_id=Gondebaud (ID: 17720000/0x010E62C0), tag_num=0x05)
 16: 0x03F3 [0x1D] PRINT_EVENT_MESSAGE(message_id=15540*)
    → "Trust is a new series of magical incantations woven into being by the Jeuno Institute of Magical Studies, announced at our recent symposium."
 17: 0x03F6 [0x23] WAIT_FOR_DIALOG_INTERACTION
 18: 0x03F7 [0x1D] PRINT_EVENT_MESSAGE(message_id=15541*)
    → "Mayhaps the term "incantations" is a trifle misleading. Rather than draw upon aetheric manipulation, Trust taps into the spiritual connection between those bound by [fraternal/sororal] love."
 19: 0x03FA [0x23] WAIT_FOR_DIALOG_INTERACTION
 20: 0x03FB [0x29] REQ_SET_WAIT(priority=0x08, entity_id=Gondebaud (ID: 17720000/0x010E62C0), tag_num=0x06)
 21: 0x0402 [0x29] REQ_SET_WAIT(priority=0x08, entity_id=Gondebaud (ID: 17720000/0x010E62C0), tag_num=0x07)
 22: 0x0409 [0x1D] PRINT_EVENT_MESSAGE(message_id=15542*)
    → "To lead you to my explanation's logical conclusion, I'll say this magic can be utilized regardless of its wielder's vocation. Both simple and profitable."
 23: 0x040C [0x23] WAIT_FOR_DIALOG_INTERACTION
 24: 0x040D [0x29] REQ_SET_WAIT(priority=0x08, entity_id=Gondebaud (ID: 17720000/0x010E62C0), tag_num=0x08)
 25: 0x0414 [0x29] REQ_SET_WAIT(priority=0x08, entity_id=Gondebaud (ID: 17720000/0x010E62C0), tag_num=0x0B)
 26: 0x041B [0x1D] PRINT_EVENT_MESSAGE(message_id=15543*)
    → "As the technique is reliant upon the connection between two souls, interference by a profusion of souls, such as in cities, renders the technique unusable."
 27: 0x041E [0x23] WAIT_FOR_DIALOG_INTERACTION
 28: 0x041F [0x29] REQ_SET_WAIT(priority=0x08, entity_id=Gondebaud (ID: 17720000/0x010E62C0), tag_num=0x0C)
 29: 0x0426 [0x29] REQ_SET_WAIT(priority=0x08, entity_id=Gondebaud (ID: 17720000/0x010E62C0), tag_num=0x0D)
 30: 0x042D [0x29] REQ_SET_WAIT(priority=0x08, entity_id=Gondebaud (ID: 17720000/0x010E62C0), tag_num=0x0E)
 31: 0x0434 [0x01] GOTO 0x03DC

SUBROUTINE_06E3:
 32: 0x06E3 [0x29] REQ_SET_WAIT(priority=0x08, entity_id=Gondebaud (ID: 17720000/0x010E62C0), tag_num=0x07)
 33: 0x06EA [0x1D] PRINT_EVENT_MESSAGE(message_id=15556*)
    → "[Excenmille/Naji/Kupipi/Curilla/Ayame/Nanaa Mihgo/Trion/Volker/Ajido-Marujido/Iron Eater/Prishe/Ulmia/Shikaree Z/Cherukiki/Gadalar/Zazarg/Nashmeira/Gessho/Ingrid/Maat/Arciela/Chacharoon] can be found in [San d'Oria/Bastok/Windurst/Jeuno/Tavnazia/Aht Urhgan/Adoulin/the Mod Gardens]."
 34: 0x06ED [0x23] WAIT_FOR_DIALOG_INTERACTION
 35: 0x06EE [0x29] REQ_SET_WAIT(priority=0x08, entity_id=Gondebaud (ID: 17720000/0x010E62C0), tag_num=0x08)

SUBROUTINE_06F5:
 36: 0x06F5 [0x01] GOTO 0x03DC

SUBROUTINE_0706:
 37: 0x0706 [0x20] SET_CLI_EVENT_UC_FLAG: Unlock player control
 38: 0x0708 [0x21] END_EVENT
 39: 0x0709 [0x00] END_REQSTACK()
```

#### Data or dead code:

```
# Dead code (unreachable instructions):
     0x0437 [0x01] GOTO 0x0706
     0x04A3 [0x01] GOTO 0x0706
     0x04F4 [0x01] GOTO 0x0706
# Dead code (unreachable instructions):
     0x06F8 [0x01] GOTO 0x0706
```

### Event 3503

#### Metadata

| Field        | Value     |
|--------------|-----------|
| Entrypoint   | 0x070A    |
| Data Size    | 344 bytes |
| Instructions | 68        |

```
      00 01 02 03 04 05 06 07  08 09 0A 0B 0C 0D 0E 0F
      -- -- -- -- -- -- -- --  -- -- -- -- -- -- -- --
0700:                                42 03 00 00 03 10            B.....
0710: 03 01 00 04 10 1E F0 FF  FF 7F 4A F0 FF FF 7F F8  ..........J.....
0720: FF FF 7F 6F 70 29 08 C0  62 0E 01 11 1D 43 80 23  ...op)..b....C.#
0730: 29 08 C0 62 0E 01 12 02  01 00 0A 80 00 58 07 29  )..b.........X.)
0740: 08 C0 62 0E 01 13 1D 44  80 23 1D 45 80 23 29 08  ..b....D.#.E.#).
0750: C0 62 0E 01 14 01 D6 07  02 01 00 1B 80 00 75 07  .b............u.
0760: 29 08 C0 62 0E 01 13 1D  46 80 23 29 08 C0 62 0E  )..b....F.#)..b.
0770: 01 14 01 D6 07 02 01 00  33 80 00 AF 07 29 08 C0  ........3....)..
0780: 62 0E 01 13 1D 47 80 23  29 08 C0 62 0E 01 14 29  b....G.#)..b...)
0790: 08 C0 62 0E 01 05 1D 48  80 23 29 08 C0 62 0E 01  ..b....H.#)..b..
07A0: 06 29 08 C0 62 0E 01 07  1D 49 80 23 01 D6 07 29  .)..b....I.#...)
07B0: 08 C0 62 0E 01 13 29 08  C0 62 0E 01 14 29 08 C0  ..b...)..b...)..
07C0: 62 0E 01 05 1D 4A 80 23  29 08 C0 62 0E 01 06 29  b....J.#)..b...)
07D0: 08 C0 62 0E 01 07 1D 4B  80 23 1D 4C 80 23 45 4D  ..b....K.#.L.#EM
07E0: 80 F8 FF FF 7F F8 FF FF  7F 66 64 6F 31 0A 80 1C  .........fdo1...
07F0: 4E 80 CD 4F 80 F0 FF FF  7F F0 FF FF 7F 73 74 61  N..O.........sta
0800: 72 0A 80 1C 50 80 CD 4F  80 F0 FF FF 7F F0 FF FF  r...P..O........
0810: 7F 73 74 6F 70 0A 80 1C  51 80 45 4D 80 F8 FF FF  .stop...Q.EM....
0820: 7F F8 FF FF 7F 66 64 69  31 0A 80 29 08 C0 62 0E  .....fdi1..)..b.
0830: 01 11 1D 52 80 23 29 08  C0 62 0E 01 12 29 08 C0  ...R.#)..b...)..
0840: 62 0E 01 13 1D 53 80 23  45 54 80 F8 FF FF 7F F8  b....S.#ET......
0850: FF FF 7F 71 73 74 63 0A  80 03 01 10 00 00 20 00  ...qstc....... .
0860: 21 00                                             !.              
```

#### Opcodes

```
  0: 0x070A [0x42] SET_CLI_EVENT_CANCEL_DATA()
  1: 0x070B [0x03] ExtData[1]->WorkLocal[0] = Work_Zone[3]
  2: 0x0710 [0x03] ExtData[1]->WorkLocal[1] = Work_Zone[4]
  3: 0x0715 [0x1E] EventEntity looks at LocalPlayer and starts talking
  4: 0x071A [0x4A] LocalPlayer looks at EventEntity
  5: 0x0723 [0x6F] WAIT_FRAME_DELAY: Yield until WaitTime reaches zero
  6: 0x0724 [0x70] WAIT_ENTITY_RENDER_FLAG: Wait while EventEntity->Render.Flags3 bit 2 is set (cancel turn if not)
  7: 0x0725 [0x29] REQ_SET_WAIT(priority=0x08, entity_id=Gondebaud (ID: 17720000/0x010E62C0), tag_num=0x11)
  8: 0x072C [0x1D] PRINT_EVENT_MESSAGE(message_id=15558*)
    → "Oh ho! You've got $3 on hand, do you?"
  9: 0x072F [0x23] WAIT_FOR_DIALOG_INTERACTION
 10: 0x0730 [0x29] REQ_SET_WAIT(priority=0x08, entity_id=Gondebaud (ID: 17720000/0x010E62C0), tag_num=0x12)
 11: 0x0737 [0x02] IF !(ExtData[1]->WorkLocal[1] == 0*) GOTO 0x0758
 12: 0x073F [0x29] REQ_SET_WAIT(priority=0x08, entity_id=Gondebaud (ID: 17720000/0x010E62C0), tag_num=0x13)
 13: 0x0746 [0x1D] PRINT_EVENT_MESSAGE(message_id=15559*)
    → "Funny story, that. They are also involved in the Trust initiative."
 14: 0x0749 [0x23] WAIT_FOR_DIALOG_INTERACTION
 15: 0x074A [0x1D] PRINT_EVENT_MESSAGE(message_id=15560*)
    → "I must bow my head in appreciation for all that you and your ilk have done for us. From the bottom of my heart, thank you."
 16: 0x074D [0x23] WAIT_FOR_DIALOG_INTERACTION
 17: 0x074E [0x29] REQ_SET_WAIT(priority=0x08, entity_id=Gondebaud (ID: 17720000/0x010E62C0), tag_num=0x14)
 18: 0x0755 [0x01] GOTO 0x07D6
 19: 0x0758 [0x02] IF !(ExtData[1]->WorkLocal[1] == 2*) GOTO 0x0775
 20: 0x0760 [0x29] REQ_SET_WAIT(priority=0x08, entity_id=Gondebaud (ID: 17720000/0x010E62C0), tag_num=0x13)
 21: 0x0767 [0x1D] PRINT_EVENT_MESSAGE(message_id=15571*)
    → "Though I perhaps should not share this information with one not of the institute, lately we have been pushing the limits of the Trust initiative beyond just the five races."
 22: 0x076A [0x23] WAIT_FOR_DIALOG_INTERACTION
 23: 0x076B [0x29] REQ_SET_WAIT(priority=0x08, entity_id=Gondebaud (ID: 17720000/0x010E62C0), tag_num=0x14)
 24: 0x0772 [0x01] GOTO 0x07D6
 25: 0x0775 [0x02] IF !(ExtData[1]->WorkLocal[1] == 4*) GOTO 0x07AF
 26: 0x077D [0x29] REQ_SET_WAIT(priority=0x08, entity_id=Gondebaud (ID: 17720000/0x010E62C0), tag_num=0x13)
 27: 0x0784 [0x1D] PRINT_EVENT_MESSAGE(message_id=15561*)
    → "I am more than pleased to report that your activities on our behalf have aided the institute in posting never-before-seen results."
 28: 0x0787 [0x23] WAIT_FOR_DIALOG_INTERACTION
 29: 0x0788 [0x29] REQ_SET_WAIT(priority=0x08, entity_id=Gondebaud (ID: 17720000/0x010E62C0), tag_num=0x14)
 30: 0x078F [0x29] REQ_SET_WAIT(priority=0x08, entity_id=Gondebaud (ID: 17720000/0x010E62C0), tag_num=0x05)
 31: 0x0796 [0x1D] PRINT_EVENT_MESSAGE(message_id=15562*)
    → "Always cherish the bonds you have formed with that person, for such resilient ties take years--decades!--to form."
 32: 0x0799 [0x23] WAIT_FOR_DIALOG_INTERACTION
 33: 0x079A [0x29] REQ_SET_WAIT(priority=0x08, entity_id=Gondebaud (ID: 17720000/0x010E62C0), tag_num=0x06)
 34: 0x07A1 [0x29] REQ_SET_WAIT(priority=0x08, entity_id=Gondebaud (ID: 17720000/0x010E62C0), tag_num=0x07)
 35: 0x07A8 [0x1D] PRINT_EVENT_MESSAGE(message_id=15563*)
    → "May your trust and friendship blossom into the envy of all!"
 36: 0x07AB [0x23] WAIT_FOR_DIALOG_INTERACTION
 37: 0x07AC [0x01] GOTO 0x07D6
 38: 0x07AF [0x29] REQ_SET_WAIT(priority=0x08, entity_id=Gondebaud (ID: 17720000/0x010E62C0), tag_num=0x13)
 39: 0x07B6 [0x29] REQ_SET_WAIT(priority=0x08, entity_id=Gondebaud (ID: 17720000/0x010E62C0), tag_num=0x14)
 40: 0x07BD [0x29] REQ_SET_WAIT(priority=0x08, entity_id=Gondebaud (ID: 17720000/0x010E62C0), tag_num=0x05)
 41: 0x07C4 [0x1D] PRINT_EVENT_MESSAGE(message_id=15564*)
    → "Wh-who? This old mind does not work like it used to, for I know not one whit about that person."
 42: 0x07C7 [0x23] WAIT_FOR_DIALOG_INTERACTION
 43: 0x07C8 [0x29] REQ_SET_WAIT(priority=0x08, entity_id=Gondebaud (ID: 17720000/0x010E62C0), tag_num=0x06)
 44: 0x07CF [0x29] REQ_SET_WAIT(priority=0x08, entity_id=Gondebaud (ID: 17720000/0x010E62C0), tag_num=0x07)

SUBROUTINE_07D6:
 45: 0x07D6 [0x1D] PRINT_EVENT_MESSAGE(message_id=15572*)
    → "Let us get down to business, you say? Use these newfound powers?"
 46: 0x07D9 [0x23] WAIT_FOR_DIALOG_INTERACTION
 47: 0x07DA [0x1D] PRINT_EVENT_MESSAGE(message_id=15573*)
    → "Then we shall commune together. Close your eyes, and let the powers of trust, friendship, and [brotherly/sisterly] love fill every ilm of your body."
 48: 0x07DD [0x23] WAIT_FOR_DIALOG_INTERACTION
 49: 0x07DE [0x45] LOAD_SCHEDULED_TASK: Load scheduler "fdo1" with entities [EventEntity, EventEntity], work=[200*, 0*]
 50: 0x07EF [0x1C] WAIT(60* ticks)
 51: 0x07F2 [0xCD] LOAD_SCHEDULED_TASK_ALT4: Load scheduler "star" with entities [LocalPlayer, LocalPlayer], work=[174*, 0*]
 52: 0x0803 [0x1C] WAIT(176* ticks)
 53: 0x0806 [0xCD] LOAD_SCHEDULED_TASK_ALT4: Load scheduler "stop" with entities [LocalPlayer, LocalPlayer], work=[174*, 0*]
 54: 0x0817 [0x1C] WAIT(300* ticks)
 55: 0x081A [0x45] LOAD_SCHEDULED_TASK: Load scheduler "fdi1" with entities [EventEntity, EventEntity], work=[200*, 0*]
 56: 0x082B [0x29] REQ_SET_WAIT(priority=0x08, entity_id=Gondebaud (ID: 17720000/0x010E62C0), tag_num=0x11)
 57: 0x0832 [0x1D] PRINT_EVENT_MESSAGE(message_id=15574*)
    → "A marvelous spectacle, if I do say so myself!"
 58: 0x0835 [0x23] WAIT_FOR_DIALOG_INTERACTION
 59: 0x0836 [0x29] REQ_SET_WAIT(priority=0x08, entity_id=Gondebaud (ID: 17720000/0x010E62C0), tag_num=0x12)
 60: 0x083D [0x29] REQ_SET_WAIT(priority=0x08, entity_id=Gondebaud (ID: 17720000/0x010E62C0), tag_num=0x13)
 61: 0x0844 [0x1D] PRINT_EVENT_MESSAGE(message_id=15575*)
    → "Now you owe me not one, but two! Tohoho, how great it is to have the upper hand!"
 62: 0x0847 [0x23] WAIT_FOR_DIALOG_INTERACTION
 63: 0x0848 [0x45] LOAD_SCHEDULED_TASK: Load scheduler "qstc" with entities [EventEntity, EventEntity], work=[201*, 0*]
 64: 0x0859 [0x03] Work_Zone[1] = ExtData[1]->WorkLocal[0]
 65: 0x085E [0x20] SET_CLI_EVENT_UC_FLAG: Unlock player control
 66: 0x0860 [0x21] END_EVENT
 67: 0x0861 [0x00] END_REQSTACK()
```

### Event 3552

#### Metadata

| Field        | Value    |
|--------------|----------|
| Entrypoint   | 0x0862   |
| Data Size    | 48 bytes |
| Instructions | 15       |

```
      00 01 02 03 04 05 06 07  08 09 0A 0B 0C 0D 0E 0F
      -- -- -- -- -- -- -- --  -- -- -- -- -- -- -- --
0860:       1E F0 FF FF 7F 4A  F0 FF FF 7F F8 FF FF 7F    .....J........
0870: 6F 70 29 08 C0 62 0E 01  11 1C 00 80 1D 55 80 23  op)..b.......U.#
0880: 1D 56 80 23 48 57 80 29  08 C0 62 0E 01 12 20 00  .V.#HW.)..b... .
0890: 21 00                                             !.              
```

#### Opcodes

```
  0: 0x0862 [0x1E] EventEntity looks at LocalPlayer and starts talking
  1: 0x0867 [0x4A] LocalPlayer looks at EventEntity
  2: 0x0870 [0x6F] WAIT_FRAME_DELAY: Yield until WaitTime reaches zero
  3: 0x0871 [0x70] WAIT_ENTITY_RENDER_FLAG: Wait while EventEntity->Render.Flags3 bit 2 is set (cancel turn if not)
  4: 0x0872 [0x29] REQ_SET_WAIT(priority=0x08, entity_id=Gondebaud (ID: 17720000/0x010E62C0), tag_num=0x11)
  5: 0x0879 [0x1C] WAIT(20* ticks)
  6: 0x087C [0x1D] PRINT_EVENT_MESSAGE(message_id=15565*)
    → "Bah! What exactly am I supposed to do with this pile of nonsense?"
  7: 0x087F [0x23] WAIT_FOR_DIALOG_INTERACTION
  8: 0x0880 [0x1D] PRINT_EVENT_MESSAGE(message_id=15566*)
    → "But lest you think otherwise, it is the parchment to blame. Some strange energy prevents it from being properly read."
  9: 0x0883 [0x23] WAIT_FOR_DIALOG_INTERACTION
 10: 0x0884 [0x48] [System] [15567*]:
    → "You cannot read this cipher due to an event occurring in Rhapsodies of Vana'diel."
 11: 0x0887 [0x29] REQ_SET_WAIT(priority=0x08, entity_id=Gondebaud (ID: 17720000/0x010E62C0), tag_num=0x12)
 12: 0x088E [0x20] SET_CLI_EVENT_UC_FLAG: Unlock player control
 13: 0x0890 [0x21] END_EVENT
 14: 0x0891 [0x00] END_REQSTACK()
```

### Event 3553

#### Metadata

| Field        | Value     |
|--------------|-----------|
| Entrypoint   | 0x0892    |
| Data Size    | 273 bytes |
| Instructions | 44        |

```
      00 01 02 03 04 05 06 07  08 09 0A 0B 0C 0D 0E 0F
      -- -- -- -- -- -- -- --  -- -- -- -- -- -- -- --
0890:       42 03 00 00 03 10  1E F0 FF FF 7F 4A F0 FF    B..........J..
08A0: FF 7F F8 FF FF 7F 6F 70  29 08 C0 62 0E 01 05 1C  ......op)..b....
08B0: 00 80 1D 58 80 23 29 08  C0 62 0E 01 06 1A 80 0B  ...X.#)..b......
08C0: BA F0 FF FF 7F 59 80 5A  80 0A 80 5B 80 79 00 F0  .....Y.Z...[.y..
08D0: FF FF 7F F8 FF FF 7F 79  00 F8 FF FF 7F F0 FF FF  .......y........
08E0: 7F 92 01 F8 FF FF 7F 4A  F8 FF FF 7F F0 FF FF 7F  .......J........
08F0: 6F 76 F8 FF FF 7F 45 5C  80 F8 FF FF 7F F8 FF FF  ov....E\........
0900: 7F 73 30 30 33 0A 80 29  08 C0 62 0E 01 05 29 08  .s003..)..b...).
0910: C0 62 0E 01 06 45 4D 80  F8 FF FF 7F F8 FF FF 7F  .b...EM.........
0920: 66 64 69 31 0A 80 29 08  F0 FF FF 7F 95 1C 5D 80  fdi1..).......].
0930: 29 08 F0 FF FF 7F 9C 1C  5E 80 29 08 C0 62 0E 01  ).......^.)..b..
0940: 07 1D 5F 80 1C 5E 80 23  29 08 C0 62 0E 01 08 1D  .._..^.#)..b....
0950: 60 80 23 45 4D 80 F8 FF  FF 7F F8 FF FF 7F 66 64  `.#EM.........fd
0960: 6F 31 0A 80 1C 61 80 52  5C 80 F8 FF FF 7F F8 FF  o1...a.R\.......
0970: FF 7F 73 30 30 33 45 54  80 F8 FF FF 7F F8 FF FF  ..s003ET........
0980: 7F 71 73 74 63 0A 80 03  01 10 00 00 46 00 45 4D  .qstc.......F.EM
0990: 80 F8 FF FF 7F F8 FF FF  7F 66 64 69 31 0A 80 20  .........fdi1.. 
09A0: 00 21 00                                          .!.             
```

#### Opcodes

```
  0: 0x0892 [0x42] SET_CLI_EVENT_CANCEL_DATA()
  1: 0x0893 [0x03] ExtData[1]->WorkLocal[0] = Work_Zone[3]
  2: 0x0898 [0x1E] EventEntity looks at LocalPlayer and starts talking
  3: 0x089D [0x4A] LocalPlayer looks at EventEntity
  4: 0x08A6 [0x6F] WAIT_FRAME_DELAY: Yield until WaitTime reaches zero
  5: 0x08A7 [0x70] WAIT_ENTITY_RENDER_FLAG: Wait while EventEntity->Render.Flags3 bit 2 is set (cancel turn if not)
  6: 0x08A8 [0x29] REQ_SET_WAIT(priority=0x08, entity_id=Gondebaud (ID: 17720000/0x010E62C0), tag_num=0x05)
  7: 0x08AF [0x1C] WAIT(20* ticks)
  8: 0x08B2 [0x1D] PRINT_EVENT_MESSAGE(message_id=15568*)
    → "Even I cannot tell who this cipher is supposed to call. Let me get out my reading glasses and take a gander, hmm?"
  9: 0x08B5 [0x23] WAIT_FOR_DIALOG_INTERACTION
 10: 0x08B6 [0x29] REQ_SET_WAIT(priority=0x08, entity_id=Gondebaud (ID: 17720000/0x010E62C0), tag_num=0x06)
 11: 0x08BD [0x1A] CALL_SUBROUTINE(address=0x0B80)
 12: 0x08C0 [0xBA] SET_ENTITY_POSITION(entity_id=LocalPlayer, pos_x=121.723*, pos_z=93.200*, pos_y=0.000*, direction=359.3°*)
 13: 0x08CD [0x79] LocalPlayer looks at EventEntity (Basic look)
 14: 0x08D7 [0x79] EventEntity looks at LocalPlayer (Basic look)
 15: 0x08E1 [0x92] EventEntity->Render.Flags3 ^= 0x01
 16: 0x08E7 [0x4A] EventEntity looks at LocalPlayer
 17: 0x08F0 [0x6F] WAIT_FRAME_DELAY: Yield until WaitTime reaches zero
 18: 0x08F1 [0x76] CHECK_ENTITY_RENDER_FLAGS: Wait until EventEntity Render.Flags0 and Render.Flags3 conditions are met
 19: 0x08F6 [0x45] LOAD_SCHEDULED_TASK: Load scheduler "s003" with entities [EventEntity, EventEntity], work=[101*, 0*]
 20: 0x0907 [0x29] REQ_SET_WAIT(priority=0x08, entity_id=Gondebaud (ID: 17720000/0x010E62C0), tag_num=0x05)
 21: 0x090E [0x29] REQ_SET_WAIT(priority=0x08, entity_id=Gondebaud (ID: 17720000/0x010E62C0), tag_num=0x06)
 22: 0x0915 [0x45] LOAD_SCHEDULED_TASK: Load scheduler "fdi1" with entities [EventEntity, EventEntity], work=[200*, 0*]
 23: 0x0926 [0x29] REQ_SET_WAIT(priority=0x08, entity_id=LocalPlayer, tag_num=0x95)
 24: 0x092D [0x1C] WAIT(90* ticks)
 25: 0x0930 [0x29] REQ_SET_WAIT(priority=0x08, entity_id=LocalPlayer, tag_num=0x9C)
 26: 0x0937 [0x1C] WAIT(30* ticks)
 27: 0x093A [0x29] REQ_SET_WAIT(priority=0x08, entity_id=Gondebaud (ID: 17720000/0x010E62C0), tag_num=0x07)
 28: 0x0941 [0x1D] PRINT_EVENT_MESSAGE(message_id=15569*)
    → "Oho! A strange apparition, you say?"
 29: 0x0944 [0x1C] WAIT(30* ticks)
 30: 0x0947 [0x23] WAIT_FOR_DIALOG_INTERACTION
 31: 0x0948 [0x29] REQ_SET_WAIT(priority=0x08, entity_id=Gondebaud (ID: 17720000/0x010E62C0), tag_num=0x08)
 32: 0x094F [0x1D] PRINT_EVENT_MESSAGE(message_id=15570*)
    → "Glad I could help you reach even greater heights. May you enjoy many bright years with your new companion."
 33: 0x0952 [0x23] WAIT_FOR_DIALOG_INTERACTION
 34: 0x0953 [0x45] LOAD_SCHEDULED_TASK: Load scheduler "fdo1" with entities [EventEntity, EventEntity], work=[200*, 0*]
 35: 0x0964 [0x1C] WAIT(120* ticks)
 36: 0x0967 [0x52] END_LOAD_SCHEDULER: End scheduler "s003" with entities [EventEntity, EventEntity], work=101*
 37: 0x0976 [0x45] LOAD_SCHEDULED_TASK: Load scheduler "qstc" with entities [EventEntity, EventEntity], work=[201*, 0*]
 38: 0x0987 [0x03] Work_Zone[1] = ExtData[1]->WorkLocal[0]
 39: 0x098C [0x46] CAMERA_CONTROL: Restore default settings
 40: 0x098E [0x45] LOAD_SCHEDULED_TASK: Load scheduler "fdi1" with entities [EventEntity, EventEntity], work=[200*, 0*]
 41: 0x099F [0x20] SET_CLI_EVENT_UC_FLAG: Unlock player control
 42: 0x09A1 [0x21] END_EVENT
 43: 0x09A2 [0x00] END_REQSTACK()
```

### Event 3612

#### Metadata

| Field        | Value     |
|--------------|-----------|
| Entrypoint   | 0x09A3    |
| Data Size    | 239 bytes |
| Instructions | 46        |

```
      00 01 02 03 04 05 06 07  08 09 0A 0B 0C 0D 0E 0F
      -- -- -- -- -- -- -- --  -- -- -- -- -- -- -- --
09A0:          42 03 00 00 03  10 03 01 00 04 10 1E F0     B............
09B0: FF FF 7F 4A F0 FF FF 7F  F8 FF FF 7F 6F 70 29 08  ...J........op).
09C0: C0 62 0E 01 11 1D 62 80  23 29 08 C0 62 0E 01 12  .b....b.#)..b...
09D0: 29 08 C0 62 0E 01 13 1D  63 80 23 29 08 C0 62 0E  )..b....c.#)..b.
09E0: 01 14 29 08 C0 62 0E 01  05 1D 64 80 23 1D 65 80  ..)..b....d.#.e.
09F0: 23 29 08 C0 62 0E 01 06  29 08 C0 62 0E 01 07 1D  #)..b...)..b....
0A00: 66 80 23 29 08 C0 62 0E  01 08 1D 67 80 23 45 4D  f.#)..b....g.#EM
0A10: 80 F8 FF FF 7F F8 FF FF  7F 66 64 6F 31 0A 80 1C  .........fdo1...
0A20: 4E 80 CD 4F 80 F0 FF FF  7F F0 FF FF 7F 73 74 61  N..O.........sta
0A30: 72 0A 80 1C 50 80 CD 4F  80 F0 FF FF 7F F0 FF FF  r...P..O........
0A40: 7F 73 74 6F 70 0A 80 1C  51 80 45 4D 80 F8 FF FF  .stop...Q.EM....
0A50: 7F F8 FF FF 7F 66 64 69  31 0A 80 29 08 C0 62 0E  .....fdi1..)..b.
0A60: 01 11 1D 68 80 23 29 08  C0 62 0E 01 12 29 08 C0  ...h.#)..b...)..
0A70: 62 0E 01 13 1D 69 80 23  45 54 80 F8 FF FF 7F F8  b....i.#ET......
0A80: FF FF 7F 71 73 74 63 0A  80 03 01 10 00 00 20 00  ...qstc....... .
0A90: 21 00                                             !.              
```

#### Opcodes

```
  0: 0x09A3 [0x42] SET_CLI_EVENT_CANCEL_DATA()
  1: 0x09A4 [0x03] ExtData[1]->WorkLocal[0] = Work_Zone[3]
  2: 0x09A9 [0x03] ExtData[1]->WorkLocal[1] = Work_Zone[4]
  3: 0x09AE [0x1E] EventEntity looks at LocalPlayer and starts talking
  4: 0x09B3 [0x4A] LocalPlayer looks at EventEntity
  5: 0x09BC [0x6F] WAIT_FRAME_DELAY: Yield until WaitTime reaches zero
  6: 0x09BD [0x70] WAIT_ENTITY_RENDER_FLAG: Wait while EventEntity->Render.Flags3 bit 2 is set (cancel turn if not)
  7: 0x09BE [0x29] REQ_SET_WAIT(priority=0x08, entity_id=Gondebaud (ID: 17720000/0x010E62C0), tag_num=0x11)
  8: 0x09C5 [0x1D] PRINT_EVENT_MESSAGE(message_id=15578*)
    → "Oh ho! Is that $3 you have there mayhap?"
  9: 0x09C8 [0x23] WAIT_FOR_DIALOG_INTERACTION
 10: 0x09C9 [0x29] REQ_SET_WAIT(priority=0x08, entity_id=Gondebaud (ID: 17720000/0x010E62C0), tag_num=0x12)
 11: 0x09D0 [0x29] REQ_SET_WAIT(priority=0x08, entity_id=Gondebaud (ID: 17720000/0x010E62C0), tag_num=0x13)
 12: 0x09D7 [0x1D] PRINT_EVENT_MESSAGE(message_id=15579*)
    → "Doctor Monberaux is a doctor of much renown throughout Jeuno. I have been meaning to have him take a look at my creaky old back."
 13: 0x09DA [0x23] WAIT_FOR_DIALOG_INTERACTION
 14: 0x09DB [0x29] REQ_SET_WAIT(priority=0x08, entity_id=Gondebaud (ID: 17720000/0x010E62C0), tag_num=0x14)
 15: 0x09E2 [0x29] REQ_SET_WAIT(priority=0x08, entity_id=Gondebaud (ID: 17720000/0x010E62C0), tag_num=0x05)
 16: 0x09E9 [0x1D] PRINT_EVENT_MESSAGE(message_id=15580*)
    → "By the by, when we spoke with him about helping us with our Trust magic, he asked if his friend could join too."
 17: 0x09EC [0x23] WAIT_FOR_DIALOG_INTERACTION
 18: 0x09ED [0x1D] PRINT_EVENT_MESSAGE(message_id=15581*)
    → "It seems his friend Wolf-something is quite popular with ladies of a certain age such as Ilumida. He received quite a glowing recommendation."
 19: 0x09F0 [0x23] WAIT_FOR_DIALOG_INTERACTION
 20: 0x09F1 [0x29] REQ_SET_WAIT(priority=0x08, entity_id=Gondebaud (ID: 17720000/0x010E62C0), tag_num=0x06)
 21: 0x09F8 [0x29] REQ_SET_WAIT(priority=0x08, entity_id=Gondebaud (ID: 17720000/0x010E62C0), tag_num=0x07)
 22: 0x09FF [0x1D] PRINT_EVENT_MESSAGE(message_id=15582*)
    → "Unfortunately, things ended up being a bit complicated. No, it was not like anybody was jealous of him or anything."
 23: 0x0A02 [0x23] WAIT_FOR_DIALOG_INTERACTION
 24: 0x0A03 [0x29] REQ_SET_WAIT(priority=0x08, entity_id=Gondebaud (ID: 17720000/0x010E62C0), tag_num=0x08)
 25: 0x0A0A [0x1D] PRINT_EVENT_MESSAGE(message_id=15583*)
    → "Now, where was I... Oh yes, we were talking about Doctor Monberaux. Close your eyes, and let the powers of trust, friendship, and [brotherly/sisterly] love fill every ilm of your body."
 26: 0x0A0D [0x23] WAIT_FOR_DIALOG_INTERACTION
 27: 0x0A0E [0x45] LOAD_SCHEDULED_TASK: Load scheduler "fdo1" with entities [EventEntity, EventEntity], work=[200*, 0*]
 28: 0x0A1F [0x1C] WAIT(60* ticks)
 29: 0x0A22 [0xCD] LOAD_SCHEDULED_TASK_ALT4: Load scheduler "star" with entities [LocalPlayer, LocalPlayer], work=[174*, 0*]
 30: 0x0A33 [0x1C] WAIT(176* ticks)
 31: 0x0A36 [0xCD] LOAD_SCHEDULED_TASK_ALT4: Load scheduler "stop" with entities [LocalPlayer, LocalPlayer], work=[174*, 0*]
 32: 0x0A47 [0x1C] WAIT(300* ticks)
 33: 0x0A4A [0x45] LOAD_SCHEDULED_TASK: Load scheduler "fdi1" with entities [EventEntity, EventEntity], work=[200*, 0*]
 34: 0x0A5B [0x29] REQ_SET_WAIT(priority=0x08, entity_id=Gondebaud (ID: 17720000/0x010E62C0), tag_num=0x11)
 35: 0x0A62 [0x1D] PRINT_EVENT_MESSAGE(message_id=15584*)
    → "A marvelous spectacle, if I do say so myself!"
 36: 0x0A65 [0x23] WAIT_FOR_DIALOG_INTERACTION
 37: 0x0A66 [0x29] REQ_SET_WAIT(priority=0x08, entity_id=Gondebaud (ID: 17720000/0x010E62C0), tag_num=0x12)
 38: 0x0A6D [0x29] REQ_SET_WAIT(priority=0x08, entity_id=Gondebaud (ID: 17720000/0x010E62C0), tag_num=0x13)
 39: 0x0A74 [0x1D] PRINT_EVENT_MESSAGE(message_id=15585*)
    → "Now you owe me not one, but two! Tohoho, how great it is to have the upper hand!"
 40: 0x0A77 [0x23] WAIT_FOR_DIALOG_INTERACTION
 41: 0x0A78 [0x45] LOAD_SCHEDULED_TASK: Load scheduler "qstc" with entities [EventEntity, EventEntity], work=[201*, 0*]
 42: 0x0A89 [0x03] Work_Zone[1] = ExtData[1]->WorkLocal[0]
 43: 0x0A8E [0x20] SET_CLI_EVENT_UC_FLAG: Unlock player control
 44: 0x0A90 [0x21] END_EVENT
 45: 0x0A91 [0x00] END_REQSTACK()
```

### Event 3504

#### Metadata

| Field        | Value      |
|--------------|------------|
| Entrypoint   | 0x0A92     |
| Data Size    | 1998 bytes |
| Instructions | 59         |

```
      00 01 02 03 04 05 06 07  08 09 0A 0B 0C 0D 0E 0F
      -- -- -- -- -- -- -- --  -- -- -- -- -- -- -- --
0A90:       1E F0 FF FF 7F 4A  F0 FF FF 7F F8 FF FF 7F    .....J........
0AA0: 6F 70 03 01 10 06 80 29  08 C0 62 0E 01 01 1D 05  op.....)..b.....
0AB0: 80 23 03 04 10 06 80 1D  0B 80 23 29 08 C0 62 0E  .#........#)..b.
0AC0: 01 02 29 08 C0 62 0E 01  11 1D 6A 80 23 1D 6B 80  ..)..b....j.#.k.
0AD0: 23 29 08 C0 62 0E 01 12  29 08 C0 62 0E 01 13 24  #)..b...)..b...$
0AE0: 0F 80 0A 80 0A 80 25 02  00 10 0A 80 00 5A 0B 42  ......%......Z.B
0AF0: 29 08 C0 62 0E 01 01 1D  10 80 23 1D 11 80 23 29  )..b......#...#)
0B00: 08 C0 62 0E 01 02 29 08  C0 62 0E 01 15 1D 12 80  ..b...)..b......
0B10: 23 1D 13 80 23 29 08 C0  62 0E 01 16 29 08 C0 62  #...#)..b...)..b
0B20: 0E 01 17 29 08 C0 62 0E  01 18 29 08 C0 62 0E 01  ...)..b...)..b..
0B30: 09 1D 18 80 23 1D 19 80  23 29 08 C0 62 0E 01 0A  ....#...#)..b...
0B40: 29 08 C0 62 0E 01 0F 1D  1A 80 23 29 08 C0 62 0E  )..b......#)..b.
0B50: 01 10 03 01 10 1B 80 01  7C 0B 02 00 10 06 80 00  ........|.......
0B60: 7C 0B 29 08 C0 62 0E 01  0F 1D 1D 80 23 29 08 C0  |.)..b......#)..
0B70: 62 0E 01 10 03 01 10 06  80 01 7C 0B 20 00 21 00  b.........|. .!.
0B80: 42 46 01 5D 0A 80 61 80  45 54 80 F0 FF FF 7F F0  BF.]..a.ET......
0B90: FF FF 7F 77 68 6F 31 0A  80 55 54 80 F0 FF FF 7F  ...who1..UT.....
0BA0: F0 FF FF 7F 77 68 6F 31  38 39 80 4E 00 C5 62 0E  ....who189.N..b.
0BB0: 01 BA C5 62 0E 01 6C 80  6D 80 6E 80 6F 80 BA F0  ...b..l.m.n.o...
0BC0: FF FF 7F 70 80 71 80 72  80 73 80 2F 00 C6 62 0E  ...p.q.r.s./..b.
0BD0: 01 29 08 C6 62 0E 01 1E  4E 00 C6 62 0E 01 BA C6  .)..b...N..b....
0BE0: 62 0E 01 74 80 75 80 76  80 77 80 4A C6 62 0E 01  b..t.u.v.w.J.b..
0BF0: F0 FF FF 7F 2F 00 C7 62  0E 01 29 08 C7 62 0E 01  ..../..b..)..b..
0C00: 09 4E 00 C7 62 0E 01 BA  C7 62 0E 01 78 80 79 80  .N..b....b..x.y.
0C10: 76 80 7A 80 4A C7 62 0E  01 F0 FF FF 7F 2F 00 CA  v.z.J.b....../..
0C20: 62 0E 01 29 08 CA 62 0E  01 05 4E 00 CA 62 0E 01  b..)..b...N..b..
0C30: BA CA 62 0E 01 7B 80 7C  80 76 80 7A 80 4A CA 62  ..b..{.|.v.z.J.b
0C40: 0E 01 F0 FF FF 7F 2F 00  C9 62 0E 01 29 08 C9 62  ....../..b..)..b
0C50: 0E 01 0F 4E 00 C9 62 0E  01 BA C9 62 0E 01 7D 80  ...N..b....b..}.
0C60: 7E 80 76 80 7F 80 4A C9  62 0E 01 F0 FF FF 7F 2F  ~.v...J.b....../
0C70: 00 C8 62 0E 01 29 08 C8  62 0E 01 06 4E 00 C8 62  ..b..)..b...N..b
0C80: 0E 01 BA C8 62 0E 01 80  80 81 80 76 80 82 80 4A  ....b......v...J
0C90: C8 62 0E 01 F0 FF FF 7F  80 C6 62 0E 01 92 01 C6  .b........b.....
0CA0: 62 0E 01 6F 76 C6 62 0E  01 80 C7 62 0E 01 92 01  b..ov.b....b....
0CB0: C7 62 0E 01 6F 76 C7 62  0E 01 80 CA 62 0E 01 92  .b..ov.b....b...
0CC0: 01 CA 62 0E 01 6F 76 CA  62 0E 01 80 C9 62 0E 01  ..b..ov.b....b..
0CD0: 92 01 C9 62 0E 01 6F 76  C9 62 0E 01 80 C8 62 0E  ...b..ov.b....b.
0CE0: 01 92 01 C8 62 0E 01 6F  76 C8 62 0E 01 7B C6 62  ....b..ov.b..{.b
0CF0: 0E 01 7B C7 62 0E 01 7B  C8 62 0E 01 1C 5E 80 80  ..{.b..{.b...^..
0D00: C5 62 0E 01 D0 83 80 C5  62 0E 01 C5 62 0E 01 6D  .b......b...b..m
0D10: 61 69 6E 0A 80 D0 84 80  C5 62 0E 01 C5 62 0E 01  ain......b...b..
0D20: 73 74 72 30 0A 80 1C 5E  80 02 05 10 85 80 00 48  str0...^.......H
0D30: 0D 79 00 CA 62 0E 01 F0  FF FF 7F 79 00 F0 FF FF  .y..b......y....
0D40: 7F CA 62 0E 01 01 79 0D  02 05 10 86 80 00 67 0D  ..b...y.......g.
0D50: 79 00 C9 62 0E 01 F0 FF  FF 7F 79 00 F0 FF FF 7F  y..b......y.....
0D60: C9 62 0E 01 01 79 0D 02  05 10 87 80 00 79 0D 79  .b...y.......y.y
0D70: 00 F0 FF FF 7F C8 62 0E  01 02 05 10 88 80 00 95  ......b.........
0D80: 0D 45 5C 80 F8 FF FF 7F  F8 FF FF 7F 73 30 30 39  .E\.........s009
0D90: 0A 80 01 02 0E 02 05 10  89 80 00 B1 0D 45 5C 80  .............E\.
0DA0: F8 FF FF 7F F8 FF FF 7F  73 31 33 33 0A 80 01 02  ........s133....
0DB0: 0E 02 05 10 85 80 00 CD  0D 45 5C 80 F8 FF FF 7F  .........E\.....
0DC0: F8 FF FF 7F 73 31 33 33  0A 80 01 02 0E 02 05 10  ....s133........
0DD0: 86 80 00 E9 0D 45 5C 80  F8 FF FF 7F F8 FF FF 7F  .....E\.........
0DE0: 73 31 33 33 0A 80 01 02  0E 02 05 10 87 80 00 02  s133............
0DF0: 0E 45 5C 80 F8 FF FF 7F  F8 FF FF 7F 73 31 33 33  .E\.........s133
0E00: 0A 80 45 4D 80 F8 FF FF  7F F8 FF FF 7F 66 64 69  ..EM.........fdi
0E10: 31 0A 80 45 54 80 F0 FF  FF 7F F0 FF FF 7F 77 68  1..ET.........wh
0E20: 69 31 0A 80 55 54 80 F0  FF FF 7F F0 FF FF 7F 77  i1..UT.........w
0E30: 68 69 31 3E 07 10 0A 80  3D 0E 01 44 0E 27 08 C6  hi1>....=..D.'..
0E40: 62 0E 01 20 3E 07 10 06  80 4E 0E 01 55 0E 27 08  b.. >....N..U.'.
0E50: C7 62 0E 01 0B 3E 07 10  1B 80 5F 0E 01 66 0E 27  .b...>...._..f.'
0E60: 08 CA 62 0E 01 07 1C 61  80 02 05 10 88 80 00 83  ..b....a........
0E70: 0E 52 5C 80 F8 FF FF 7F  F8 FF FF 7F 73 30 30 39  .R\.........s009
0E80: 01 E8 0E 02 05 10 89 80  00 9D 0E 52 5C 80 F8 FF  ...........R\...
0E90: FF 7F F8 FF FF 7F 73 31  33 33 01 E8 0E 02 05 10  ......s133......
0EA0: 85 80 00 B7 0E 52 5C 80  F8 FF FF 7F F8 FF FF 7F  .....R\.........
0EB0: 73 31 33 33 01 E8 0E 02  05 10 86 80 00 D1 0E 52  s133...........R
0EC0: 5C 80 F8 FF FF 7F F8 FF  FF 7F 73 31 33 33 01 E8  \.........s133..
0ED0: 0E 02 05 10 87 80 00 E8  0E 52 5C 80 F8 FF FF 7F  .........R\.....
0EE0: F8 FF FF 7F 73 31 33 33  45 5C 80 F8 FF FF 7F F8  ....s133E\......
0EF0: FF FF 7F 73 31 33 34 0A  80 3E 07 10 30 80 03 0F  ...s134..>..0...
0F00: 01 0A 0F 27 08 C9 62 0E  01 11 3E 07 10 33 80 14  ...'..b...>..3..
0F10: 0F 01 1B 0F 27 08 C8 62  0E 01 08 1C 61 80 2A 08  ....'..b....a.*.
0F20: C6 62 0E 01 BA C6 62 0E  01 8A 80 8B 80 76 80 77  .b....b......v.w
0F30: 80 52 5C 80 F8 FF FF 7F  F8 FF FF 7F 73 31 33 34  .R\.........s134
0F40: 02 05 10 88 80 00 5C 0F  45 5C 80 F8 FF FF 7F F8  ......\.E\......
0F50: FF FF 7F 73 30 30 32 0A  80 01 A9 10 02 05 10 89  ...s002.........
0F60: 80 00 78 0F 45 5C 80 F8  FF FF 7F F8 FF FF 7F 73  ..x.E\.........s
0F70: 30 30 32 0A 80 01 A9 10  02 05 10 85 80 00 94 0F  002.............
0F80: 45 5C 80 F8 FF FF 7F F8  FF FF 7F 73 30 30 38 0A  E\.........s008.
0F90: 80 01 A9 10 02 05 10 86  80 00 20 10 02 87 7F 34  .......... ....4
0FA0: 80 80 B8 0F 45 5C 80 F8  FF FF 7F F8 FF FF 7F 73  ....E\.........s
0FB0: 30 30 37 0A 80 01 1D 10  02 87 7F 35 80 80 D4 0F  007........5....
0FC0: 45 5C 80 F8 FF FF 7F F8  FF FF 7F 73 30 30 37 0A  E\.........s007.
0FD0: 80 01 1D 10 02 07 10 3F  80 00 F0 0F 45 5C 80 F8  .......?....E\..
0FE0: FF FF 7F F8 FF FF 7F 73  31 35 39 0A 80 01 1D 10  .......s159.....
0FF0: 02 07 10 8C 80 00 0C 10  45 5C 80 F8 FF FF 7F F8  ........E\......
1000: FF FF 7F 73 31 35 39 0A  80 01 1D 10 45 5C 80 F8  ...s159.....E\..
1010: FF FF 7F F8 FF FF 7F 73  31 33 31 0A 80 01 A9 10  .......s131.....
1020: 02 05 10 87 80 00 A9 10  02 87 7F 34 80 80 44 10  ...........4..D.
1030: 45 5C 80 F8 FF FF 7F F8  FF FF 7F 73 30 30 37 0A  E\.........s007.
1040: 80 01 A9 10 02 87 7F 35  80 80 60 10 45 5C 80 F8  .......5..`.E\..
1050: FF FF 7F F8 FF FF 7F 73  30 30 37 0A 80 01 A9 10  .......s007.....
1060: 02 07 10 3F 80 00 7C 10  45 5C 80 F8 FF FF 7F F8  ...?..|.E\......
1070: FF FF 7F 73 31 35 39 0A  80 01 A9 10 02 07 10 8C  ...s159.........
1080: 80 00 98 10 45 5C 80 F8  FF FF 7F F8 FF FF 7F 73  ....E\.........s
1090: 31 35 39 0A 80 01 A9 10  45 5C 80 F8 FF FF 7F F8  159.....E\......
10A0: FF FF 7F 73 31 33 31 0A  80 02 05 10 88 80 00 BE  ...s131.........
10B0: 10 79 00 F0 FF FF 7F C6  62 0E 01 01 DA 10 02 05  .y......b.......
10C0: 10 89 80 00 DA 10 79 00  C7 62 0E 01 F0 FF FF 7F  ......y..b......
10D0: 79 00 F0 FF FF 7F C7 62  0E 01 CD 4F 80 F0 FF FF  y......b...O....
10E0: 7F F0 FF FF 7F 73 74 61  72 0A 80 1C 8D 80 CD 4F  .....star......O
10F0: 80 F0 FF FF 7F F0 FF FF  7F 73 74 6F 70 0A 80 1C  .........stop...
1100: 8D 80 45 54 80 F0 FF FF  7F F0 FF FF 7F 77 68 6F  ..ET.........who
1110: 31 0A 80 55 54 80 F0 FF  FF 7F F0 FF FF 7F 77 68  1..UT.........wh
1120: 6F 31 52 5C 80 F8 FF FF  7F F8 FF FF 7F 73 31 35  o1R\.........s15
1130: 39 52 5C 80 F8 FF FF 7F  F8 FF FF 7F 73 31 33 31  9R\.........s131
1140: 52 5C 80 F8 FF FF 7F F8  FF FF 7F 73 30 30 35 52  R\.........s005R
1150: 5C 80 F8 FF FF 7F F8 FF  FF 7F 73 30 30 32 52 5C  \.........s002R\
1160: 80 F8 FF FF 7F F8 FF FF  7F 73 30 30 36 52 5C 80  .........s006R\.
1170: F8 FF FF 7F F8 FF FF 7F  73 30 30 37 52 5C 80 F8  ........s007R\..
1180: FF FF 7F F8 FF FF 7F 73  30 30 38 45 5C 80 F8 FF  .......s008E\...
1190: FF 7F F8 FF FF 7F 73 62  6F 66 0A 80 1C 5E 80 2A  ......sbof...^.*
11A0: 08 C7 62 0E 01 2A 08 CA  62 0E 01 2A 08 C9 62 0E  ..b..*..b..*..b.
11B0: 01 2A 08 C8 62 0E 01 29  08 C6 62 0E 01 17 29 08  .*..b..)..b...).
11C0: C7 62 0E 01 07 29 08 CA  62 0E 01 03 29 08 C9 62  .b...)..b...)..b
11D0: 0E 01 02 29 08 C8 62 0E  01 04 4E 01 C6 62 0E 01  ...)..b...N..b..
11E0: 4E 01 C7 62 0E 01 4E 01  CA 62 0E 01 4E 01 C9 62  N..b..N..b..N..b
11F0: 0E 01 4E 01 C8 62 0E 01  5D 8E 80 61 80 1C 5E 80  ..N..b..]..a..^.
1200: D0 83 80 C5 62 0E 01 C5  62 0E 01 6B 6C 61 6C 0A  ....b...b..klal.
1210: 80 D0 84 80 C5 62 0E 01  C5 62 0E 01 6B 69 6C 6C  .....b...b..kill
1220: 0A 80 1C 06 80 4E 01 C5  62 0E 01 45 4D 80 F8 FF  .....N..b..EM...
1230: FF 7F F8 FF FF 7F 66 64  6F 31 0A 80 1C 61 80 45  ......fdo1...a.E
1240: 54 80 F0 FF FF 7F F0 FF  FF 7F 77 68 69 31 0A 80  T.........whi1..
1250: 55 54 80 F0 FF FF 7F F0  FF FF 7F 77 68 69 31 1B  UT.........whi1.
```

#### Opcodes

```
  0: 0x0A92 [0x1E] EventEntity looks at LocalPlayer and starts talking
  1: 0x0A97 [0x4A] LocalPlayer looks at EventEntity
  2: 0x0AA0 [0x6F] WAIT_FRAME_DELAY: Yield until WaitTime reaches zero
  3: 0x0AA1 [0x70] WAIT_ENTITY_RENDER_FLAG: Wait while EventEntity->Render.Flags3 bit 2 is set (cancel turn if not)
  4: 0x0AA2 [0x03] Work_Zone[1] = 1*
  5: 0x0AA7 [0x29] REQ_SET_WAIT(priority=0x08, entity_id=Gondebaud (ID: 17720000/0x010E62C0), tag_num=0x01)
  6: 0x0AAE [0x1D] PRINT_EVENT_MESSAGE(message_id=15518*)
    → "I, Gondebaud, am an esteemed member of the storied Jeuno Institute of Magical Studies."
  7: 0x0AB1 [0x23] WAIT_FOR_DIALOG_INTERACTION
  8: 0x0AB2 [0x03] Work_Zone[4] = 1*
  9: 0x0AB7 [0x1D] PRINT_EVENT_MESSAGE(message_id=15520*)
    → "The leading council has bid me come to this fair land of San d'Oria with a most sacred mission."
 10: 0x0ABA [0x23] WAIT_FOR_DIALOG_INTERACTION
 11: 0x0ABB [0x29] REQ_SET_WAIT(priority=0x08, entity_id=Gondebaud (ID: 17720000/0x010E62C0), tag_num=0x02)
 12: 0x0AC2 [0x29] REQ_SET_WAIT(priority=0x08, entity_id=Gondebaud (ID: 17720000/0x010E62C0), tag_num=0x11)
 13: 0x0AC9 [0x1D] PRINT_EVENT_MESSAGE(message_id=15576*)
    → "You know about this all-important Trust initiative already? Rumors truly do spread like wildfire on a dry summer day."
 14: 0x0ACC [0x23] WAIT_FOR_DIALOG_INTERACTION
 15: 0x0ACD [0x1D] PRINT_EVENT_MESSAGE(message_id=15577*)
    → "Whether my compatriots in Bastok or Windurst informed you is of little consequence. What matters most is that you are here--and wish to engage in the trials we San d'Orians can offer."
 16: 0x0AD0 [0x23] WAIT_FOR_DIALOG_INTERACTION
 17: 0x0AD1 [0x29] REQ_SET_WAIT(priority=0x08, entity_id=Gondebaud (ID: 17720000/0x010E62C0), tag_num=0x12)
 18: 0x0AD8 [0x29] REQ_SET_WAIT(priority=0x08, entity_id=Gondebaud (ID: 17720000/0x010E62C0), tag_num=0x13)
 19: 0x0ADF [0x24] CREATE_DIALOG(message_id=15524*, default_option=0*, option_flags=0*)
    → "Participate in the experiment? [I'd love to./I'm not sure it's for me.]"
 20: 0x0AE6 [0x25] WAIT_DIALOG_SELECT()
 21: 0x0AE7 [0x02] IF !(Work_Zone[0] == 0*) GOTO 0x0B5A
 22: 0x0AEF [0x42] SET_CLI_EVENT_CANCEL_DATA()
 23: 0x0AF0 [0x29] REQ_SET_WAIT(priority=0x08, entity_id=Gondebaud (ID: 17720000/0x010E62C0), tag_num=0x01)
 24: 0x0AF7 [0x1D] PRINT_EVENT_MESSAGE(message_id=15526*)
    → "How fortuitous! I swear by every gray hair on this head that you will not regret it! Your first task is to head to the city gates in Northern San d'Oria."
 25: 0x0AFA [0x23] WAIT_FOR_DIALOG_INTERACTION
 26: 0x0AFB [0x1D] PRINT_EVENT_MESSAGE(message_id=15527*)
    → "There you will find someone engaged in the running of "Ballista," a type of mock skirmish. Some call him by the moniker of "the grand hero of San d'Oria.""
 27: 0x0AFE [0x23] WAIT_FOR_DIALOG_INTERACTION
 28: 0x0AFF [0x29] REQ_SET_WAIT(priority=0x08, entity_id=Gondebaud (ID: 17720000/0x010E62C0), tag_num=0x02)
 29: 0x0B06 [0x29] REQ_SET_WAIT(priority=0x08, entity_id=Gondebaud (ID: 17720000/0x010E62C0), tag_num=0x15)
 30: 0x0B0D [0x1D] PRINT_EVENT_MESSAGE(message_id=15528*)
    → "As you have already surmised, experimental magic may have unknown effects on the world, so he is very careful to ensure the safety of everyone involved."
 31: 0x0B10 [0x23] WAIT_FOR_DIALOG_INTERACTION
 32: 0x0B11 [0x1D] PRINT_EVENT_MESSAGE(message_id=15529*)
    → "In fact, he is so dedicated to this goal that he himself stepped up as the nation's first participant in the program."
 33: 0x0B14 [0x23] WAIT_FOR_DIALOG_INTERACTION
 34: 0x0B15 [0x29] REQ_SET_WAIT(priority=0x08, entity_id=Gondebaud (ID: 17720000/0x010E62C0), tag_num=0x16)
 35: 0x0B1C [0x29] REQ_SET_WAIT(priority=0x08, entity_id=Gondebaud (ID: 17720000/0x010E62C0), tag_num=0x17)
 36: 0x0B23 [0x29] REQ_SET_WAIT(priority=0x08, entity_id=Gondebaud (ID: 17720000/0x010E62C0), tag_num=0x18)
 37: 0x0B2A [0x29] REQ_SET_WAIT(priority=0x08, entity_id=Gondebaud (ID: 17720000/0x010E62C0), tag_num=0x09)
 38: 0x0B31 [0x1D] PRINT_EVENT_MESSAGE(message_id=15535*)
    → "Take this letter of introduction with you and head to Ranperre Gate in Northern San d'Oria."
 39: 0x0B34 [0x23] WAIT_FOR_DIALOG_INTERACTION
 40: 0x0B35 [0x1D] PRINT_EVENT_MESSAGE(message_id=15536*)
    → "To get to Northern San d'Oria, you must first head west of here, then north toward Victory Square."
 41: 0x0B38 [0x23] WAIT_FOR_DIALOG_INTERACTION
 42: 0x0B39 [0x29] REQ_SET_WAIT(priority=0x08, entity_id=Gondebaud (ID: 17720000/0x010E62C0), tag_num=0x0A)
 43: 0x0B40 [0x29] REQ_SET_WAIT(priority=0x08, entity_id=Gondebaud (ID: 17720000/0x010E62C0), tag_num=0x0F)
 44: 0x0B47 [0x1D] PRINT_EVENT_MESSAGE(message_id=15537*)
    → "After reaching Northern San d'Oria, you are to make for Ranperre Gate. Once there, seek out Excenmille--and pray do not affront him in any fashion. The words of a hero such as he carry unmatched weight in this land."
 45: 0x0B4A [0x23] WAIT_FOR_DIALOG_INTERACTION
 46: 0x0B4B [0x29] REQ_SET_WAIT(priority=0x08, entity_id=Gondebaud (ID: 17720000/0x010E62C0), tag_num=0x10)
 47: 0x0B52 [0x03] Work_Zone[1] = 2*
 48: 0x0B57 [0x01] GOTO 0x0B7C
 49: 0x0B5A [0x02] IF !(Work_Zone[0] == 1*) GOTO 0x0B7C
 50: 0x0B62 [0x29] REQ_SET_WAIT(priority=0x08, entity_id=Gondebaud (ID: 17720000/0x010E62C0), tag_num=0x0F)
 51: 0x0B69 [0x1D] PRINT_EVENT_MESSAGE(message_id=15525*)
    → "You leave my jaw so agape that I fear my dentures are starting to slip!"
 52: 0x0B6C [0x23] WAIT_FOR_DIALOG_INTERACTION
 53: 0x0B6D [0x29] REQ_SET_WAIT(priority=0x08, entity_id=Gondebaud (ID: 17720000/0x010E62C0), tag_num=0x10)
 54: 0x0B74 [0x03] Work_Zone[1] = 1*
 55: 0x0B79 [0x01] GOTO 0x0B7C

SUBROUTINE_0B7C:
 56: 0x0B7C [0x20] SET_CLI_EVENT_UC_FLAG: Unlock player control
 57: 0x0B7E [0x21] END_EVENT
 58: 0x0B7F [0x00] END_REQSTACK()
```

#### Data or dead code:

```
# Dead code (unreachable instructions):
     0x0B80 [0x42] SET_CLI_EVENT_CANCEL_DATA()
     0x0B81 [0x46] CAMERA_CONTROL: Disable user control
     0x0B83 [0x5D] SET_MUSIC_VOLUME(volume=0*, fade_time=120*)
     0x0B88 [0x45] LOAD_SCHEDULED_TASK: Load scheduler "who1" with entities [LocalPlayer, LocalPlayer], work=[201*, 0*]
     0x0B99 [0x55] WAIT_LOAD_SCHEDULER: Wait for scheduler "who1" with entities [LocalPlayer, LocalPlayer], work=201*
     0x0BA8 [0x38] SET_CLIENT_EVENT_MODE(mode=19*)
     0x0BAB [0x4E] SET_ENTITY_HIDE_FLAG: Show Unnamed NPC (ID: 17720005/0x010E62C5)
     0x0BB1 [0xBA] SET_ENTITY_POSITION(entity_id=Unnamed NPC (ID: 17720005/0x010E62C5), pos_x=1.731*, pos_z=145.773*, pos_y=-210.000*, direction=189.7°*)
     0x0BBE [0xBA] SET_ENTITY_POSITION(entity_id=LocalPlayer, pos_x=-2.772*, pos_z=146.020*, pos_y=-209.000*, direction=9.6°*)
     0x0BCB [0x2F] Iroha (ID: 17720006/0x010E62C6)->Render.Flags0 &= ~0x80000 // Bit 19
     0x0BD1 [0x29] REQ_SET_WAIT(priority=0x08, entity_id=Iroha (ID: 17720006/0x010E62C6), tag_num=0x1E)
     0x0BD8 [0x4E] SET_ENTITY_HIDE_FLAG: Show Iroha (ID: 17720006/0x010E62C6)
     0x0BDE [0xBA] SET_ENTITY_POSITION(entity_id=Iroha (ID: 17720006/0x010E62C6), pos_x=3.500*, pos_z=147.973*, pos_y=-210.500*, direction=168.2°*)
     0x0BEB [0x4A] Iroha (ID: 17720006/0x010E62C6) looks at LocalPlayer
     0x0BF4 [0x2F] Lion (ID: 17720007/0x010E62C7)->Render.Flags0 &= ~0x80000 // Bit 19
     0x0BFA [0x29] REQ_SET_WAIT(priority=0x08, entity_id=Lion (ID: 17720007/0x010E62C7), tag_num=0x09)
     0x0C01 [0x4E] SET_ENTITY_HIDE_FLAG: Show Lion (ID: 17720007/0x010E62C7)
     0x0C07 [0xBA] SET_ENTITY_POSITION(entity_id=Lion (ID: 17720007/0x010E62C7), pos_x=5.560*, pos_z=147.711*, pos_y=-210.500*, direction=152.5°*)
     0x0C14 [0x4A] Lion (ID: 17720007/0x010E62C7) looks at LocalPlayer
     0x0C1D [0x2F] Selh'teus (ID: 17720010/0x010E62CA)->Render.Flags0 &= ~0x80000 // Bit 19
     0x0C23 [0x29] REQ_SET_WAIT(priority=0x08, entity_id=Selh'teus (ID: 17720010/0x010E62CA), tag_num=0x05)
     0x0C2A [0x4E] SET_ENTITY_HIDE_FLAG: Show Selh'teus (ID: 17720010/0x010E62CA)
     0x0C30 [0xBA] SET_ENTITY_POSITION(entity_id=Selh'teus (ID: 17720010/0x010E62CA), pos_x=5.029*, pos_z=148.843*, pos_y=-210.500*, direction=152.5°*)
     0x0C3D [0x4A] Selh'teus (ID: 17720010/0x010E62CA) looks at LocalPlayer
     0x0C46 [0x2F] Unnamed NPC (ID: 17720009/0x010E62C9)->Render.Flags0 &= ~0x80000 // Bit 19
