# 17720015

## Common Data

| Field            | Value                         |
|------------------|-------------------------------|
| Zone             | Southern San d'Oria (ID: 230) |
| Block Size       | 11464 bytes                   |
| Total Events     | 3                             |
| References Count | 178                           |

## List of Events

| Event ID              | Entrypoint   |   Size |   Instructions |
|-----------------------|--------------|--------|----------------|
| [65535](#event-65535) | 0x0000       |      1 |              1 |
| [30042](#event-30042) | 0x0001       |   5036 |            636 |
| [30043](#event-30043) | 0x13AD       |   5684 |            694 |

## DAT References (imed_data)

|   Index | Hex Value   |   Dec Value |
|---------|-------------|-------------|
|       0 | 0x0001      |           1 |
|       1 | 0x0000      |           0 |
|       2 | 0x0078      |         120 |
|       3 | 0x001B      |          27 |
|       4 | 0x02DF      |         735 |
|       5 | 0x0013      |          19 |
|       6 | 0x003C      |          60 |
|       7 | 0x0006      |           6 |
|       8 | 0xBE6E0     |      780000 |
|       9 | 0x4E20      |       20000 |
|      10 | 0xBF2B2     |      783026 |
|      11 | 0x00C2      |         194 |
|      12 | 0x07CC      |        1996 |
|      13 | 0xBE6C0     |      779968 |
|      14 | 0xFFFFF271  |  4294963825 |
|      15 | 0xBDC4D     |      777293 |
|      16 | 0xFFFFF6D4  |  4294964948 |
|      17 | 0xBEDAF     |      781743 |
|      18 | 0x0B08      |        2824 |
|      19 | 0xBEDE9     |      781801 |
|      20 | 0xFFFFF416  |  4294964246 |
|      21 | 0xBF021     |      782369 |
|      22 | 0xFFFFF6F7  |  4294964983 |
|      23 | 0xBD796     |      776086 |
|      24 | 0x0068      |         104 |
|      25 | 0xBDC47     |      777287 |
|      26 | 0x0AC6      |        2758 |
|      27 | 0xBFC2C     |      785452 |
|      28 | 0x00B5      |         181 |
|      29 | 0x000F      |          15 |
|      30 | 0x00DF      |         223 |
|      31 | 0x00E9      |         233 |
|      32 | 0x00F3      |         243 |
|      33 | 0x00FD      |         253 |
|      34 | 0x0107      |         263 |
|      35 | 0x0111      |         273 |
|      36 | 0x0020      |          32 |
|      37 | 0x0050      |          80 |
|      38 | 0x001E      |          30 |
|      39 | 0x02E0      |         736 |
|      40 | 0x3F3D      |       16189 |
|      41 | 0x005A      |          90 |
|      42 | 0x3F3E      |       16190 |
|      43 | 0x3F3F      |       16191 |
|      44 | 0xBF123     |      782627 |
|      45 | 0x134A      |        4938 |
|      46 | 0x0809      |        2057 |
|      47 | 0xBF336     |      783158 |
|      48 | 0x1301      |        4865 |
|      49 | 0x3F40      |       16192 |
|      50 | 0x3F41      |       16193 |
|      51 | 0x3F42      |       16194 |
|      52 | 0x3F43      |       16195 |
|      53 | 0x3F44      |       16196 |
|      54 | 0x3F45      |       16197 |
|      55 | 0x3F46      |       16198 |
|      56 | 0x3F47      |       16199 |
|      57 | 0xBE073     |      778355 |
|      58 | 0x19D7      |        6615 |
|      59 | 0xBC4F5     |      771317 |
|      60 | 0x0CE8      |        3304 |
|      61 | 0x3F48      |       16200 |
|      62 | 0x3F49      |       16201 |
|      63 | 0x3F4A      |       16202 |
|      64 | 0x3F4B      |       16203 |
|      65 | 0x3F4C      |       16204 |
|      66 | 0x3F4D      |       16205 |
|      67 | 0xBC820     |      772128 |
|      68 | 0xFFFFEBA6  |  4294962086 |
|      69 | 0x0345      |         837 |
|      70 | 0x3F4E      |       16206 |
|      71 | 0x3F4F      |       16207 |
|      72 | 0x3F50      |       16208 |
|      73 | 0x3F51      |       16209 |
|      74 | 0x3F52      |       16210 |
|      75 | 0xBDAA8     |      776872 |
|      76 | 0xFFFFD8D5  |  4294957269 |
|      77 | 0x3F53      |       16211 |
|      78 | 0x3F54      |       16212 |
|      79 | 0x3F55      |       16213 |
|      80 | 0x3F56      |       16214 |
|      81 | 0x3F57      |       16215 |
|      82 | 0x3F58      |       16216 |
|      83 | 0xBF9E0     |      784864 |
|      84 | 0x0008      |           8 |
|      85 | 0x3F59      |       16217 |
|      86 | 0x3F5A      |       16218 |
|      87 | 0x3F5B      |       16219 |
|      88 | 0x3F5C      |       16220 |
|      89 | 0x3F5D      |       16221 |
|      90 | 0x3F5E      |       16222 |
|      91 | 0x3F80      |       16256 |
|      92 | 0x0007      |           7 |
|      93 | 0x0080      |         128 |
|      94 | 0x0F38      |        3896 |
|      95 | 0x014A      |         330 |
|      96 | 0x0096      |         150 |
|      97 | 0x3F5F      |       16223 |
|      98 | 0x3F60      |       16224 |
|      99 | 0x3F61      |       16225 |
|     100 | 0x3F62      |       16226 |
|     101 | 0x3F63      |       16227 |
|     102 | 0x3F64      |       16228 |
|     103 | 0x3F65      |       16229 |
|     104 | 0x3F66      |       16230 |
|     105 | 0x3F67      |       16231 |
|     106 | 0x3F68      |       16232 |
|     107 | 0x3F69      |       16233 |
|     108 | 0x00B7      |         183 |
|     109 | 0x0F78      |        3960 |
|     110 | 0x00DC      |         220 |
|     111 | 0x3F6A      |       16234 |
|     112 | 0x3F6B      |       16235 |
|     113 | 0x001D      |          29 |
|     114 | 0x3F6C      |       16236 |
|     115 | 0x3F6D      |       16237 |
|     116 | 0x00F0      |         240 |
|     117 | 0x3F6E      |       16238 |
|     118 | 0x3F6F      |       16239 |
|     119 | 0x3F70      |       16240 |
|     120 | 0x3F71      |       16241 |
|     121 | 0x3F72      |       16242 |
|     122 | 0x3F73      |       16243 |
|     123 | 0x3F74      |       16244 |
|     124 | 0x3F75      |       16245 |
|     125 | 0x01E0      |         480 |
|     126 | 0x3F76      |       16246 |
|     127 | 0x0104      |         260 |
|     128 | 0x00B4      |         180 |
|     129 | 0x002D      |          45 |
|     130 | 0x0066      |         102 |
|     131 | 0x007F      |         127 |
|     132 | 0xC1BDA     |      793562 |
|     133 | 0xFFFFFBEC  |  4294966252 |
|     134 | 0x4DBF      |       19903 |
|     135 | 0x084E      |        2126 |
|     136 | 0x0077      |         119 |
|     137 | 0x008C      |         140 |
|     138 | 0x0C00      |        3072 |
|     139 | 0xFFFFE9BC  |  4294961596 |
|     140 | 0x4A38      |       19000 |
|     141 | 0xBE8FC     |      780540 |
|     142 | 0xFFFFDECC  |  4294958796 |
|     143 | 0x3FAC      |       16300 |
|     144 | 0x00A1      |         161 |
|     145 | 0x005D      |          93 |
|     146 | 0x009F      |         159 |
|     147 | 0x003D      |          61 |
|     148 | 0x0099      |         153 |
|     149 | 0x3F77      |       16247 |
|     150 | 0x3F78      |       16248 |
|     151 | 0x3F79      |       16249 |
|     152 | 0x3F7A      |       16250 |
|     153 | 0x2A678     |      173688 |
|     154 | 0x5137F     |      332671 |
|     155 | 0xFFFEA530  |  4294878512 |
|     156 | 0x07ED      |        2029 |
|     157 | 0x275BE     |      161214 |
|     158 | 0x510FD     |      332029 |
|     159 | 0xFFFEA9CF  |  4294879695 |
|     160 | 0x07B2      |        1970 |
|     161 | 0x0F1A      |        3866 |
|     162 | 0x3F7B      |       16251 |
|     163 | 0x3F7C      |       16252 |
|     164 | 0x03E7      |         999 |
|     165 | 0x3F7D      |       16253 |
|     166 | 0x3F7E      |       16254 |
|     167 | 0x0003      |           3 |
|     168 | 0x0168      |         360 |
|     169 | 0xFFFFFFCE  |  4294967246 |
|     170 | 0x3F7F      |       16255 |
|     171 | 0x010E      |         270 |
|     172 | 0x00E6      |         230 |
|     173 | 0x006B      |         107 |
|     174 | 0x00C8      |         200 |
|     175 | 0x00C9      |         201 |
|     176 | 0x0002      |           2 |
|     177 | 0x00D7      |         215 |

## String References

- **16225**: Is this a dream? [What else could it be?/No. It's something more...]
- **16255**: <Player>, this rhapsody is yours to sing.
- **16256**: @@

## Events

### Event 65535

#### Metadata

| Field        | Value   |
|--------------|---------|
| Entrypoint   | 0x0000  |
| Data Size    | 1 bytes |
| Instructions | 1       |

```
      00 01 02 03 04 05 06 07  08 09 0A 0B 0C 0D 0E 0F
      -- -- -- -- -- -- -- --  -- -- -- -- -- -- -- --
0000: 00                                                .               
```

#### Opcodes

```
  0: 0x0000 [0x00] END_REQSTACK()
```

### Event 30042

#### Metadata

| Field        | Value      |
|--------------|------------|
| Entrypoint   | 0x0001     |
| Data Size    | 5036 bytes |
| Instructions | 636        |

```
      00 01 02 03 04 05 06 07  08 09 0A 0B 0C 0D 0E 0F
      -- -- -- -- -- -- -- --  -- -- -- -- -- -- -- --
0000:    42 03 01 10 00 80 43  00 43 01 03 01 00 02 10   B.....C.C......
0010: 03 04 00 03 10 03 03 00  04 10 5D 01 80 02 80 1A  ..........].....
0020: B3 27 46 01 38 03 80 34  04 80 77 01 80 05 80 1C  .'F.8..4..w.....
0030: 00 80 6A 01 80 06 80 07  80 4E 00 F0 FF FF 7F 2F  ..j......N...../
0040: 00 C6 62 0E 01 4E 00 C6  62 0E 01 4E 00 F8 FF FF  ..b..N..b..N....
0050: 7F 4E 00 D0 62 0E 01 27  10 D1 62 0E 01 02 27 10  .N..b..'..b...'.
0060: D2 62 0E 01 02 27 10 D3  62 0E 01 02 27 10 D4 62  .b...'..b...'..b
0070: 0E 01 02 27 10 D5 62 0E  01 02 27 10 D6 62 0E 01  ...'..b...'..b..
0080: 02 27 10 D7 62 0E 01 02  27 10 D8 62 0E 01 02 27  .'..b...'..b...'
0090: 10 D9 62 0E 01 04 27 10  DA 62 0E 01 04 92 01 F0  ..b...'..b......
00A0: FF FF 7F 92 01 C6 62 0E  01 92 01 D1 62 0E 01 92  ......b.....b...
00B0: 01 D2 62 0E 01 92 01 D3  62 0E 01 92 01 D4 62 0E  ..b.....b.....b.
00C0: 01 92 01 D5 62 0E 01 92  01 D6 62 0E 01 92 01 D7  ....b.....b.....
00D0: 62 0E 01 92 01 D8 62 0E  01 92 01 D9 62 0E 01 92  b.....b.....b...
00E0: 01 DA 62 0E 01 94 01 F0  FF FF 7F 94 01 C6 62 0E  ..b...........b.
00F0: 01 94 01 D1 62 0E 01 94  01 D2 62 0E 01 94 01 D3  ....b.....b.....
0100: 62 0E 01 94 01 D4 62 0E  01 94 01 D5 62 0E 01 94  b.....b.....b...
0110: 01 D6 62 0E 01 94 01 D7  62 0E 01 94 01 D8 62 0E  ..b.....b.....b.
0120: 01 94 01 D9 62 0E 01 94  01 DA 62 0E 01 94 01 F8  ....b.....b.....
0130: FF FF 7F 59 05 F0 FF FF  7F 01 59 05 C6 62 0E 01  ...Y......Y..b..
0140: 01 59 05 D1 62 0E 01 01  59 05 D2 62 0E 01 01 59  .Y..b...Y..b...Y
0150: 05 D3 62 0E 01 01 59 05  D4 62 0E 01 01 59 05 D5  ..b...Y..b...Y..
0160: 62 0E 01 01 59 05 D6 62  0E 01 01 59 05 D7 62 0E  b...Y..b...Y..b.
0170: 01 01 59 05 D8 62 0E 01  01 59 05 D9 62 0E 01 01  ..Y..b...Y..b...
0180: 59 05 DA 62 0E 01 01 BA  F0 FF FF 7F 08 80 01 80  Y..b............
0190: 09 80 01 80 BA C6 62 0E  01 08 80 01 80 09 80 01  ......b.........
01A0: 80 BA F8 FF FF 7F 08 80  01 80 09 80 01 80 BA D1  ................
01B0: 62 0E 01 0A 80 0B 80 09  80 0C 80 BA D2 62 0E 01  b............b..
01C0: 0D 80 0E 80 09 80 01 80  BA D3 62 0E 01 0F 80 10  ..........b.....
01D0: 80 09 80 01 80 BA D4 62  0E 01 11 80 12 80 09 80  .......b........
01E0: 01 80 BA D5 62 0E 01 13  80 14 80 09 80 01 80 BA  ....b...........
01F0: D6 62 0E 01 15 80 16 80  09 80 01 80 BA D7 62 0E  .b............b.
0200: 01 17 80 18 80 09 80 01  80 BA D8 62 0E 01 19 80  ...........b....
0210: 1A 80 09 80 01 80 BA D9  62 0E 01 1B 80 1C 80 09  ........b.......
0220: 80 01 80 6C F0 FF FF 7F  01 80 00 80 6C C6 62 0E  ...l........l.b.
0230: 01 01 80 00 80 29 10 D9  62 0E 01 0B 29 10 DA 62  .....)..b...)..b
0240: 0E 01 0B 80 F0 FF FF 7F  80 C6 62 0E 01 80 F8 FF  ..........b.....
0250: FF 7F 80 D9 62 0E 01 80  DA 62 0E 01 80 D1 62 0E  ....b....b....b.
0260: 01 80 D2 62 0E 01 80 D3  62 0E 01 80 D4 62 0E 01  ...b....b....b..
0270: 80 D5 62 0E 01 80 D6 62  0E 01 80 D7 62 0E 01 80  ..b....b....b...
0280: D8 62 0E 01 4A D1 62 0E  01 F0 FF FF 7F 4A D2 62  .b..J.b......J.b
0290: 0E 01 F0 FF FF 7F 4A D3  62 0E 01 F0 FF FF 7F 4A  ......J.b......J
02A0: D4 62 0E 01 F0 FF FF 7F  4A D5 62 0E 01 F0 FF FF  .b......J.b.....
02B0: 7F 4A D6 62 0E 01 F0 FF  FF 7F 4A D7 62 0E 01 F0  .J.b......J.b...
02C0: FF FF 7F 4A D8 62 0E 01  F0 FF FF 7F 6F 76 D8 62  ...J.b......ov.b
02D0: 0E 01 1C 1D 80 7B D1 62  0E 01 7B D2 62 0E 01 7B  .....{.b..{.b..{
02E0: D3 62 0E 01 7B D4 62 0E  01 7B D5 62 0E 01 7B D6  .b..{.b..{.b..{.
02F0: 62 0E 01 7B D7 62 0E 01  7B D8 62 0E 01 5F 04 1E  b..{.b..{.b.._..
0300: 80 D2 62 0E 01 D2 62 0E  01 66 79 75 30 5F 04 1F  ..b...b..fyu0_..
0310: 80 D3 62 0E 01 D3 62 0E  01 66 79 75 30 5F 04 20  ..b...b..fyu0_. 
0320: 80 D4 62 0E 01 D4 62 0E  01 66 79 75 30 5F 04 21  ..b...b..fyu0_.!
0330: 80 D5 62 0E 01 D5 62 0E  01 66 79 75 30 5F 04 21  ..b...b..fyu0_.!
0340: 80 D6 62 0E 01 D6 62 0E  01 66 79 75 30 5F 04 22  ..b...b..fyu0_."
0350: 80 D7 62 0E 01 D7 62 0E  01 66 79 75 30 5F 04 23  ..b...b..fyu0_.#
0360: 80 D8 62 0E 01 D8 62 0E  01 66 79 75 30 CD 24 80  ..b...b..fyu0.$.
0370: F8 FF FF 7F F8 FF FF 7F  73 30 30 30 01 80 5C 00  ........s000..\.
0380: 25 80 5C 01 25 80 9A 1C  26 80 45 27 80 F8 FF FF  %.\.%...&.E'....
0390: 7F F8 FF FF 7F 30 62 6C  6F 01 80 45 27 80 F8 FF  .....0blo..E'...
03A0: FF 7F F8 FF FF 7F 79 6D  30 31 01 80 1A 92 27 2B  ......ym01....'+
03B0: D9 62 0E 01 28 80 1C 29  80 23 52 27 80 F8 FF FF  .b..(..).#R'....
03C0: 7F F8 FF FF 7F 79 6D 30  31 45 27 80 F8 FF FF 7F  .....ym01E'.....
03D0: F8 FF FF 7F 79 6D 30 32  01 80 2B D9 62 0E 01 2A  ....ym02..+.b..*
03E0: 80 1C 29 80 23 52 27 80  F8 FF FF 7F F8 FF FF 7F  ..).#R'.........
03F0: 79 6D 30 32 45 27 80 F8  FF FF 7F F8 FF FF 7F 79  ym02E'.........y
0400: 6D 30 33 01 80 2B D9 62  0E 01 2B 80 1C 29 80 23  m03..+.b..+..).#
0410: 1A B3 27 29 10 D9 62 0E  01 0C 29 10 DA 62 0E 01  ..')..b...)..b..
0420: 0B 80 D9 62 0E 01 80 DA  62 0E 01 BA D9 62 0E 01  ...b....b....b..
0430: 2C 80 2D 80 09 80 2E 80  BA DA 62 0E 01 2F 80 30  ,.-.......b../.0
0440: 80 09 80 01 80 1C 1D 80  52 27 80 F8 FF FF 7F F8  ........R'......
0450: FF FF 7F 79 6D 30 33 45  27 80 F8 FF FF 7F F8 FF  ...ym03E'.......
0460: FF 7F 7A 6C 30 31 01 80  1A 92 27 2B DA 62 0E 01  ..zl01....'+.b..
0470: 31 80 1C 29 80 23 2B DA  62 0E 01 32 80 1C 29 80  1..).#+.b..2..).
0480: 23 52 27 80 F8 FF FF 7F  F8 FF FF 7F 7A 6C 30 31  #R'.........zl01
0490: 45 27 80 F8 FF FF 7F F8  FF FF 7F 7A 6C 30 32 01  E'.........zl02.
04A0: 80 2B D9 62 0E 01 33 80  1C 29 80 23 2B D9 62 0E  .+.b..3..).#+.b.
04B0: 01 34 80 1C 29 80 23 52  27 80 F8 FF FF 7F F8 FF  .4..).#R'.......
04C0: FF 7F 7A 6C 30 32 45 27  80 F8 FF FF 7F F8 FF FF  ..zl02E'........
04D0: 7F 7A 6C 30 33 01 80 2B  D9 62 0E 01 35 80 1C 29  .zl03..+.b..5..)
04E0: 80 23 52 27 80 F8 FF FF  7F F8 FF FF 7F 7A 6C 30  .#R'.........zl0
04F0: 33 45 27 80 F8 FF FF 7F  F8 FF FF 7F 7A 6C 30 34  3E'.........zl04
0500: 01 80 2B D9 62 0E 01 36  80 1C 29 80 23 52 27 80  ..+.b..6..).#R'.
0510: F8 FF FF 7F F8 FF FF 7F  7A 6C 30 34 45 27 80 F8  ........zl04E'..
0520: FF FF 7F F8 FF FF 7F 7A  6C 30 35 01 80 2B DA 62  .......zl05..+.b
0530: 0E 01 37 80 1C 29 80 23  52 27 80 F8 FF FF 7F F8  ..7..).#R'......
0540: FF FF 7F 7A 6C 30 35 45  27 80 F8 FF FF 7F F8 FF  ...zl05E'.......
0550: FF 7F 7A 6C 30 36 01 80  2B DA 62 0E 01 38 80 1C  ..zl06..+.b..8..
0560: 29 80 23 1A B3 27 29 10  D9 62 0E 01 0D 29 10 DA  ).#..')..b...)..
0570: 62 0E 01 0C 80 D9 62 0E  01 80 DA 62 0E 01 BA D9  b.....b....b....
0580: 62 0E 01 39 80 3A 80 09  80 01 80 BA DA 62 0E 01  b..9.:.......b..
0590: 3B 80 3C 80 09 80 01 80  1C 1D 80 52 27 80 F8 FF  ;.<........R'...
05A0: FF 7F F8 FF FF 7F 7A 6C  30 36 45 27 80 F8 FF FF  ......zl06E'....
05B0: 7F F8 FF FF 7F 70 72 30  31 01 80 1A 92 27 2B D9  .....pr01....'+.
05C0: 62 0E 01 3D 80 1C 29 80  23 2B D9 62 0E 01 3E 80  b..=..).#+.b..>.
05D0: 1C 29 80 23 52 27 80 F8  FF FF 7F F8 FF FF 7F 70  .).#R'.........p
05E0: 72 30 31 45 27 80 F8 FF  FF 7F F8 FF FF 7F 70 72  r01E'.........pr
05F0: 30 32 01 80 2B D9 62 0E  01 3F 80 1C 29 80 23 2B  02..+.b..?..).#+
0600: D9 62 0E 01 40 80 1C 29  80 23 52 27 80 F8 FF FF  .b..@..).#R'....
0610: 7F F8 FF FF 7F 70 72 30  32 45 27 80 F8 FF FF 7F  .....pr02E'.....
0620: F8 FF FF 7F 70 72 30 33  01 80 2B D9 62 0E 01 41  ....pr03..+.b..A
0630: 80 1C 29 80 23 2B D9 62  0E 01 42 80 1C 29 80 23  ..).#+.b..B..).#
0640: 1A B3 27 29 10 D9 62 0E  01 0E 80 D9 62 0E 01 BA  ..')..b.....b...
0650: D9 62 0E 01 43 80 44 80  09 80 01 80 5F 03 45 80  .b..C.D....._.E.
0660: DA 62 0E 01 DA 62 0E 01  73 74 62 6C 1C 1D 80 52  .b...b..stbl...R
0670: 27 80 F8 FF FF 7F F8 FF  FF 7F 70 72 30 33 45 27  '.........pr03E'
0680: 80 F8 FF FF 7F F8 FF FF  7F 61 74 30 31 01 80 1A  .........at01...
0690: 92 27 2B DA 62 0E 01 46  80 1C 29 80 23 2B DA 62  .'+.b..F..).#+.b
06A0: 0E 01 47 80 1C 29 80 23  52 27 80 F8 FF FF 7F F8  ..G..).#R'......
06B0: FF FF 7F 61 74 30 31 45  27 80 F8 FF FF 7F F8 FF  ...at01E'.......
06C0: FF 7F 61 74 30 32 01 80  2B DA 62 0E 01 48 80 1C  ..at02..+.b..H..
06D0: 29 80 23 2B DA 62 0E 01  49 80 1C 29 80 23 52 27  ).#+.b..I..).#R'
06E0: 80 F8 FF FF 7F F8 FF FF  7F 61 74 30 32 45 27 80  .........at02E'.
06F0: F8 FF FF 7F F8 FF FF 7F  61 74 30 33 01 80 2B DA  ........at03..+.
0700: 62 0E 01 4A 80 1C 29 80  23 1A B3 27 02 04 00 01  b..J..).#..'....
0710: 80 00 1D 07 4E 01 DA 62  0E 01 01 36 07 29 10 DA  ....N..b...6.)..
0720: 62 0E 01 0D 80 DA 62 0E  01 BA DA 62 0E 01 4B 80  b.....b....b..K.
0730: 4C 80 09 80 01 80 1C 1D  80 52 27 80 F8 FF FF 7F  L........R'.....
0740: F8 FF FF 7F 61 74 30 33  45 27 80 F8 FF FF 7F F8  ....at03E'......
0750: FF FF 7F 77 67 30 31 01  80 1A 92 27 2B D9 62 0E  ...wg01....'+.b.
0760: 01 4D 80 1C 29 80 23 2B  D9 62 0E 01 4E 80 1C 29  .M..).#+.b..N..)
0770: 80 23 52 27 80 F8 FF FF  7F F8 FF FF 7F 77 67 30  .#R'.........wg0
0780: 31 45 27 80 F8 FF FF 7F  F8 FF FF 7F 77 67 30 32  1E'.........wg02
0790: 01 80 03 04 10 03 00 2B  D9 62 0E 01 4F 80 1C 29  .......+.b..O..)
07A0: 80 23 52 27 80 F8 FF FF  7F F8 FF FF 7F 77 67 30  .#R'.........wg0
07B0: 32 45 27 80 F8 FF FF 7F  F8 FF FF 7F 77 67 30 33  2E'.........wg03
07C0: 01 80 2B D9 62 0E 01 50  80 1C 29 80 23 2B D9 62  ..+.b..P..).#+.b
07D0: 0E 01 51 80 1C 29 80 23  52 27 80 F8 FF FF 7F F8  ..Q..).#R'......
07E0: FF FF 7F 77 67 30 33 45  27 80 F8 FF FF 7F F8 FF  ...wg03E'.......
07F0: FF 7F 77 67 30 34 01 80  2B D9 62 0E 01 52 80 1C  ..wg04..+.b..R..
0800: 29 80 23 1A B3 27 6C D9  62 0E 01 01 80 00 80 BA  ).#..'l.b.......
0810: D9 62 0E 01 53 80 54 80  09 80 01 80 1C 1D 80 02  .b..S.T.........
0820: 04 00 01 80 00 2A 08 01  F8 08 52 27 80 F8 FF FF  .....*....R'....
0830: 7F F8 FF FF 7F 77 67 30  34 45 27 80 F8 FF FF 7F  .....wg04E'.....
0840: F8 FF FF 7F 61 64 30 31  01 80 1A 92 27 2B DA 62  ....ad01....'+.b
0850: 0E 01 55 80 1C 29 80 23  52 27 80 F8 FF FF 7F F8  ..U..).#R'......
0860: FF FF 7F 61 64 30 31 45  27 80 F8 FF FF 7F F8 FF  ...ad01E'.......
0870: FF 7F 61 64 30 32 01 80  2B DA 62 0E 01 56 80 1C  ..ad02..+.b..V..
0880: 29 80 23 2B DA 62 0E 01  57 80 1C 29 80 23 52 27  ).#+.b..W..).#R'
0890: 80 F8 FF FF 7F F8 FF FF  7F 61 64 30 32 45 27 80  .........ad02E'.
08A0: F8 FF FF 7F F8 FF FF 7F  61 64 30 33 01 80 2B DA  ........ad03..+.
08B0: 62 0E 01 58 80 1C 29 80  23 2B DA 62 0E 01 59 80  b..X..).#+.b..Y.
08C0: 1C 29 80 23 52 27 80 F8  FF FF 7F F8 FF FF 7F 61  .).#R'.........a
08D0: 64 30 33 45 27 80 F8 FF  FF 7F F8 FF FF 7F 61 64  d03E'.........ad
08E0: 30 34 01 80 2B DA 62 0E  01 5A 80 1C 29 80 23 1A  04..+.b..Z..).#.
08F0: B3 27 4E 01 DA 62 0E 01  1C 26 80 CD 24 80 F8 FF  .'N..b...&..$...
0900: FF 7F F8 FF FF 7F 6B 69  6C 30 01 80 48 5B 80 23  ......kil0..H[.#
0910: D5 5C 80 F8 FF FF 7F F8  FF FF 7F 73 30 30 31 01  .\.........s001.
0920: 80 6C D1 62 0E 01 5D 80  00 80 5F 05 5E 80 D1 62  .l.b..]..._.^..b
0930: 0E 01 D1 62 0E 01 77 6C  6B 31 5F 80 52 27 80 F8  ...b..wlk1_.R'..
0940: FF FF 7F F8 FF FF 7F 61  74 30 33 52 27 80 F8 FF  .......at03R'...
0950: FF 7F F8 FF FF 7F 61 64  30 34 45 27 80 F8 FF FF  ......ad04E'....
0960: 7F F8 FF FF 7F 68 73 30  32 01 80 1A 92 27 1C 60  .....hs02....'.`
0970: 80 2B D1 62 0E 01 61 80  23 5F 07 D1 62 0E 01 D1  .+.b..a.#_..b...
0980: 62 0E 01 77 6C 6B 31 52  27 80 F8 FF FF 7F F8 FF  b..wlk1R'.......
0990: FF 7F 68 73 30 32 45 27  80 F8 FF FF 7F F8 FF FF  ..hs02E'........
09A0: 7F 68 73 30 34 01 80 2B  D1 62 0E 01 62 80 1C 29  .hs04..+.b..b..)
09B0: 80 23 24 63 80 01 80 01  80 25 02 00 10 01 80 00  .#$c.....%......
09C0: CC 09 2B D1 62 0E 01 64  80 01 DE 09 02 00 10 00  ..+.b..d........
09D0: 80 00 DE 09 2B D1 62 0E  01 65 80 01 DE 09 1C 29  ....+.b..e.....)
09E0: 80 23 52 27 80 F8 FF FF  7F F8 FF FF 7F 68 73 30  .#R'.........hs0
09F0: 34 45 27 80 F8 FF FF 7F  F8 FF FF 7F 68 73 30 35  4E'.........hs05
0A00: 01 80 92 00 F0 FF FF 7F  6C F0 FF FF 7F 5D 80 00  ........l....]..
0A10: 80 2B D1 62 0E 01 66 80  1C 29 80 23 2B D1 62 0E  .+.b..f..).#+.b.
0A20: 01 67 80 1C 29 80 23 52  27 80 F8 FF FF 7F F8 FF  .g..).#R'.......
0A30: FF 7F 68 73 30 35 45 27  80 F8 FF FF 7F F8 FF FF  ..hs05E'........
0A40: 7F 68 73 30 36 01 80 2B  D1 62 0E 01 68 80 1C 29  .hs06..+.b..h..)
0A50: 80 23 52 27 80 F8 FF FF  7F F8 FF FF 7F 68 73 30  .#R'.........hs0
0A60: 36 02 01 00 01 80 00 A8  0A 45 27 80 F8 FF FF 7F  6........E'.....
0A70: F8 FF FF 7F 68 73 30 37  01 80 2B D1 62 0E 01 69  ....hs07..+.b..i
0A80: 80 23 2B D1 62 0E 01 6A  80 1C 26 80 6B 69 64 6C  .#+.b..j..&.kidl
0A90: 30 D1 62 0E 01 1C 06 80  23 52 27 80 F8 FF FF 7F  0.b.....#R'.....
0AA0: F8 FF FF 7F 68 73 30 37  45 27 80 F8 FF FF 7F F8  ....hs07E'......
0AB0: FF FF 7F 68 73 30 31 01  80 2B D1 62 0E 01 6B 80  ...hs01..+.b..k.
0AC0: 1C 26 80 D0 6C 80 D1 62  0E 01 D1 62 0E 01 67 6E  .&..l..b...b..gn
0AD0: 67 30 01 80 1C 29 80 23  52 27 80 F8 FF FF 7F F8  g0...).#R'......
0AE0: FF FF 7F 68 73 30 31 45  27 80 F8 FF FF 7F F8 FF  ...hs01E'.......
0AF0: FF 7F 68 73 30 38 01 80  5F 05 6D 80 D1 62 0E 01  ..hs08.._.m..b..
0B00: D1 62 0E 01 75 6B 75 30  6E 80 1C 26 80 2B D1 62  .b..uku0n..&.+.b
0B10: 0E 01 6F 80 1C 29 80 23  5F 07 D1 62 0E 01 D1 62  ..o..).#_..b...b
0B20: 0E 01 75 6B 75 30 52 27  80 F8 FF FF 7F F8 FF FF  ..uku0R'........
0B30: 7F 68 73 30 38 45 27 80  F8 FF FF 7F F8 FF FF 7F  .hs08E'.........
0B40: 68 73 31 31 01 80 2B D1  62 0E 01 70 80 1C 02 80  hs11..+.b..p....
0B50: 23 52 27 80 F8 FF FF 7F  F8 FF FF 7F 68 73 31 31  #R'.........hs11
0B60: 45 27 80 F8 FF FF 7F F8  FF FF 7F 68 73 31 30 01  E'.........hs10.
0B70: 80 45 27 80 F8 FF FF 7F  F8 FF FF 7F 30 70 6F 70  .E'.........0pop
0B80: 01 80 27 10 D0 62 0E 01  03 1C 26 80 6E F0 FF FF  ..'..b....&.n...
0B90: 7F 71 80 99 F0 FF FF 7F  2A 10 D0 62 0E 01 52 27  .q......*..b..R'
0BA0: 80 F8 FF FF 7F F8 FF FF  7F 68 73 31 30 45 27 80  .........hs10E'.
0BB0: F8 FF FF 7F F8 FF FF 7F  6B 68 66 32 01 80 45 27  ........khf2..E'
0BC0: 80 F8 FF FF 7F F8 FF FF  7F 34 6B 32 33 01 80 2B  .........4k23..+
0BD0: D2 62 0E 01 72 80 1C 29  80 23 52 27 80 F8 FF FF  .b..r..).#R'....
0BE0: 7F F8 FF FF 7F 6B 68 66  32 45 27 80 F8 FF FF 7F  .....khf2E'.....
0BF0: F8 FF FF 7F 6B 68 66 31  01 80 2B D2 62 0E 01 73  ....khf1..+.b..s
0C00: 80 1C 29 80 23 27 10 D2  62 0E 01 0B D0 1C 80 D2  ..).#'..b.......
0C10: 62 0E 01 F0 FF FF 7F 73  30 30 30 01 80 1C 74 80  b......s000...t.
0C20: 81 00 F0 FF FF 7F 27 10  F0 FF FF 7F B7 52 27 80  ......'......R'.
0C30: F8 FF FF 7F F8 FF FF 7F  6B 68 66 31 45 27 80 F8  ........khf1E'..
0C40: FF FF 7F F8 FF FF 7F 6B  65 6D 31 01 80 2B D3 62  .......kem1..+.b
0C50: 0E 01 75 80 1C 29 80 23  52 27 80 F8 FF FF 7F F8  ..u..).#R'......
0C60: FF FF 7F 6B 65 6D 31 45  27 80 F8 FF FF 7F F8 FF  ...kem1E'.......
0C70: FF 7F 6B 65 6D 32 01 80  2B D3 62 0E 01 76 80 1C  ..kem2..+.b..v..
0C80: 29 80 23 27 10 D3 62 0E  01 0B D0 1C 80 D3 62 0E  ).#'..b.......b.
0C90: 01 F0 FF FF 7F 73 30 30  30 01 80 1C 74 80 52 27  .....s000...t.R'
0CA0: 80 F8 FF FF 7F F8 FF FF  7F 6B 65 6D 32 45 27 80  .........kem2E'.
0CB0: F8 FF FF 7F F8 FF FF 7F  6B 65 66 31 01 80 2B D4  ........kef1..+.
0CC0: 62 0E 01 77 80 1C 29 80  23 27 10 D4 62 0E 01 0B  b..w..).#'..b...
0CD0: D0 1C 80 D4 62 0E 01 F0  FF FF 7F 73 30 30 30 01  ....b......s000.
0CE0: 80 1C 74 80 52 27 80 F8  FF FF 7F F8 FF FF 7F 6B  ..t.R'.........k
0CF0: 65 66 31 45 27 80 F8 FF  FF 7F F8 FF FF 7F 6B 6D  ef1E'.........km
0D00: 74 31 01 80 2B D7 62 0E  01 78 80 1C 29 80 23 52  t1..+.b..x..).#R
0D10: 27 80 F8 FF FF 7F F8 FF  FF 7F 6B 6D 74 31 45 27  '.........kmt1E'
0D20: 80 F8 FF FF 7F F8 FF FF  7F 6B 6D 74 32 01 80 2B  .........kmt2..+
0D30: D7 62 0E 01 79 80 1C 29  80 23 27 10 D7 62 0E 01  .b..y..).#'..b..
0D40: 0B D0 1C 80 D7 62 0E 01  F0 FF FF 7F 73 30 30 30  .....b......s000
0D50: 01 80 1C 74 80 52 27 80  F8 FF FF 7F F8 FF FF 7F  ...t.R'.........
0D60: 6B 6D 74 32 45 27 80 F8  FF FF 7F F8 FF FF 7F 6B  kmt2E'.........k
0D70: 67 6C 31 01 80 2B D8 62  0E 01 7A 80 1C 29 80 23  gl1..+.b..z..).#
0D80: 27 10 D8 62 0E 01 0B D0  1C 80 D8 62 0E 01 F0 FF  '..b.......b....
0D90: FF 7F 73 30 30 30 01 80  1C 74 80 52 27 80 F8 FF  ..s000...t.R'...
0DA0: FF 7F F8 FF FF 7F 6B 67  6C 31 45 27 80 F8 FF FF  ......kgl1E'....
0DB0: 7F F8 FF FF 7F 6B 74 6D  31 01 80 2B D5 62 0E 01  .....ktm1..+.b..
0DC0: 7B 80 1C 29 80 23 27 10  D5 62 0E 01 0B D0 1C 80  {..).#'..b......
0DD0: D5 62 0E 01 F0 FF FF 7F  73 30 30 30 01 80 1C 74  .b......s000...t
0DE0: 80 52 27 80 F8 FF FF 7F  F8 FF FF 7F 6B 74 6D 31  .R'.........ktm1
0DF0: 45 27 80 F8 FF FF 7F F8  FF FF 7F 6B 74 66 31 01  E'.........ktf1.
0E00: 80 2B D6 62 0E 01 7C 80  1C 29 80 27 10 D6 62 0E  .+.b..|..).'..b.
0E10: 01 0B D0 1C 80 D6 62 0E  01 F0 FF FF 7F 73 30 30  ......b......s00
0E20: 30 01 80 1C 7D 80 52 27  80 F8 FF FF 7F F8 FF FF  0...}.R'........
0E30: 7F 6B 74 66 31 45 27 80  F8 FF FF 7F F8 FF FF 7F  .ktf1E'.........
0E40: 6B 68 6D 31 01 80 2B D1  62 0E 01 7E 80 1C 29 80  khm1..+.b..~..).
0E50: 23 52 27 80 F8 FF FF 7F  F8 FF FF 7F 6B 68 6D 31  #R'.........khm1
0E60: 45 27 80 F8 FF FF 7F F8  FF FF 7F 6B 68 6D 32 01  E'.........khm2.
0E70: 80 D0 6C 80 D1 62 0E 01  D1 62 0E 01 73 65 6B 6C  ..l..b...b..sekl
0E80: 01 80 D0 1C 80 D1 62 0E  01 F0 FF FF 7F 73 30 30  ......b......s00
0E90: 31 01 80 1C 7F 80 52 27  80 F8 FF FF 7F F8 FF FF  1.....R'........
0EA0: 7F 6B 68 6D 32 45 27 80  F8 FF FF 7F F8 FF FF 7F  .khm2E'.........
0EB0: 6B 68 6D 33 01 80 D0 80  80 F0 FF FF 7F F0 FF FF  khm3............
0EC0: 7F 73 30 30 30 01 80 1C  81 80 1A 06 29 1C 1D 80  .s000.......)...
0ED0: 81 01 F0 FF FF 7F 27 10  F0 FF FF 7F B8 D0 82 80  ......'.........
0EE0: D9 62 0E 01 D9 62 0E 01  70 6B 30 30 01 80 6C D1  .b...b..pk00..l.
0EF0: 62 0E 01 83 80 00 80 BA  D1 62 0E 01 84 80 85 80  b........b......
0F00: 86 80 87 80 1C 1D 80 D0  88 80 D1 62 0E 01 D1 62  ...........b...b
0F10: 0E 01 6B 30 30 30 01 80  5F 05 6D 80 D1 62 0E 01  ..k000.._.m..b..
0F20: D1 62 0E 01 66 75 74 30  89 80 52 27 80 F8 FF FF  .b..fut0..R'....
0F30: 7F F8 FF FF 7F 6B 68 6D  33 45 27 80 F8 FF FF 7F  .....khm3E'.....
0F40: F8 FF FF 7F 66 6C 30 31  01 80 1A D4 27 5F 07 D1  ....fl01....'_..
0F50: 62 0E 01 D1 62 0E 01 66  75 74 30 D0 88 80 D1 62  b...b..fut0....b
0F60: 0E 01 D1 62 0E 01 6B 6F  66 30 01 80 5C A0 01 80  ...b..kof0..\...
0F70: 74 80 5C A1 01 80 7D 80  1C 80 80 1A F5 27 1C 1D  t.\...}......'..
0F80: 80 D0 82 80 D9 62 0E 01  D9 62 0E 01 6C 70 6B 6C  .....b...b..lpkl
0F90: 01 80 77 07 80 05 80 BA  F0 FF FF 7F 08 80 01 80  ..w.............
0FA0: 09 80 8A 80 BA D1 62 0E  01 08 80 8B 80 8C 80 8A  ......b.........
0FB0: 80 BA F8 FF FF 7F 8D 80  8E 80 8F 80 01 80 1C 1D  ................
0FC0: 80 29 10 F0 FF FF 7F B6  D5 5C 80 F8 FF FF 7F F8  .).......\......
0FD0: FF FF 7F 6B 6C 30 31 01  80 D0 90 80 F0 FF FF 7F  ...kl01.........
0FE0: F0 FF FF 7F 6D 61 69 6E  01 80 C5 91 80 F8 FF FF  ....main........
0FF0: 7F F8 FF FF 7F 73 30 30  34 01 80 29 10 D1 62 0E  .....s004..)..b.
1000: 01 0A 6C D1 62 0E 01 01  80 00 80 D0 92 80 D1 62  ..l.b..........b
1010: 0E 01 D1 62 0E 01 73 30  30 30 01 80 9F 93 80 F8  ...b..s000......
1020: FF FF 7F F8 FF FF 7F 73  74 72 30 01 80 48 5B 80  .......str0..H[.
1030: 23 5C 00 94 80 5C 01 94  80 9A 52 27 80 F8 FF FF  #\...\....R'....
1040: 7F F8 FF FF 7F 66 6C 30  31 45 27 80 F8 FF FF 7F  .....fl01E'.....
1050: F8 FF FF 7F 6C 69 30 32  01 80 1C 26 80 1A D4 27  ....li02...&...'
1060: 1C 74 80 52 27 80 F8 FF  FF 7F F8 FF FF 7F 6C 69  .t.R'.........li
1070: 30 32 45 27 80 F8 FF FF  7F F8 FF FF 7F 6C 69 30  02E'.........li0
1080: 31 01 80 1C 06 80 2B D1  62 0E 01 95 80 1C 29 80  1.....+.b.....).
1090: 23 2B D1 62 0E 01 96 80  1C 29 80 23 52 27 80 F8  #+.b.....).#R'..
10A0: FF FF 7F F8 FF FF 7F 6C  69 30 31 45 27 80 F8 FF  .......li01E'...
10B0: FF 7F F8 FF FF 7F 6C 69  30 33 01 80 2B D1 62 0E  ......li03..+.b.
10C0: 01 97 80 1C 29 80 23 2B  D1 62 0E 01 98 80 1C 29  ....).#+.b.....)
10D0: 80 23 1A F5 27 1C 26 80  4E 01 D9 62 0E 01 6B 69  .#..'.&.N..b..ki
10E0: 64 6C 30 F0 FF FF 7F D0  90 80 F0 FF FF 7F F0 FF  dl0.............
10F0: FF 7F 6B 6C 61 6C 01 80  C5 91 80 F8 FF FF 7F F8  ..klal..........
1100: FF FF 7F 6B 69 6C 30 01  80 59 05 F0 FF FF 7F 00  ...kil0..Y......
1110: BA F0 FF FF 7F 99 80 9A  80 9B 80 9C 80 BA C6 62  ...............b
1120: 0E 01 99 80 9A 80 9B 80  01 80 BA D0 62 0E 01 9D  ............b...
1130: 80 9E 80 9F 80 A0 80 D0  18 80 C6 62 0E 01 C6 62  ...........b...b
1140: 0E 01 6B 69 65 30 01 80  5B A1 80 C6 62 0E 01 C6  ..kie0..[...b...
1150: 62 0E 01 6D 69 73 30 92  01 F0 FF FF 7F 6C F0 FF  b..mis0......l..
1160: FF 7F 01 80 00 80 48 5B  80 23 2B D1 62 0E 01 A2  ......H[.#+.b...
1170: 80 1C 29 80 23 2B D1 62  0E 01 A3 80 1C 29 80 23  ..).#+.b.....).#
1180: 6A A4 80 06 80 07 80 52  27 80 F8 FF FF 7F F8 FF  j......R'.......
1190: FF 7F 6C 69 30 33 45 27  80 F8 FF FF 7F F8 FF FF  ..li03E'........
11A0: 7F 72 65 31 30 01 80 1A  D4 27 55 27 80 F8 FF FF  .re10....'U'....
11B0: 7F F8 FF FF 7F 72 65 31  30 45 27 80 F8 FF FF 7F  .....re10E'.....
11C0: F8 FF FF 7F 72 65 31 33  01 80 55 27 80 F8 FF FF  ....re13..U'....
11D0: 7F F8 FF FF 7F 72 65 31  33 45 27 80 F8 FF FF 7F  .....re13E'.....
11E0: F8 FF FF 7F 72 65 31 31  01 80 D0 18 80 C6 62 0E  ....re11......b.
11F0: 01 C6 62 0E 01 6B 69 65  31 01 80 55 27 80 F8 FF  ..b..kie1..U'...
1200: FF 7F F8 FF FF 7F 72 65  31 31 45 27 80 F8 FF FF  ......re11E'....
1210: 7F F8 FF FF 7F 72 65 31  32 01 80 1C 26 80 BA C6  .....re12...&...
1220: 62 0E 01 9D 80 9E 80 9F  80 A0 80 D0 18 80 C6 62  b..............b
1230: 0E 01 C6 62 0E 01 6B 69  65 30 01 80 92 00 F0 FF  ...b..kie0......
1240: FF 7F 6C F0 FF FF 7F 83  80 00 80 1C 60 80 52 27  ..l.........`.R'
1250: 80 F8 FF FF 7F F8 FF FF  7F 72 65 31 32 45 27 80  .........re12E'.
1260: F8 FF FF 7F F8 FF FF 7F  72 65 30 32 01 80 2B D1  ........re02..+.
1270: 62 0E 01 A5 80 1C 80 80  2B D1 62 0E 01 A6 80 1C  b.......+.b.....
1280: 80 80 52 27 80 F8 FF FF  7F F8 FF FF 7F 72 65 30  ..R'.........re0
1290: 32 45 27 80 F8 FF FF 7F  F8 FF FF 7F 72 65 30 33  2E'.........re03
12A0: 01 80 D0 18 80 C6 62 0E  01 C6 62 0E 01 6B 69 65  ......b...b..kie
12B0: 31 01 80 5B A1 80 C6 62  0E 01 C6 62 0E 01 6D 69  1..[...b...b..mi
12C0: 73 31 1C 02 80 27 10 F0  FF FF 7F B4 1C 02 80 52  s1...'.........R
12D0: 27 80 F8 FF FF 7F F8 FF  FF 7F 72 65 30 33 45 27  '.........re03E'
12E0: 80 F8 FF FF 7F F8 FF FF  7F 72 65 30 35 01 80 5C  .........re05..\
12F0: A0 01 80 74 80 5C A1 01  80 7D 80 1C 02 80 62 A7  ...t.\...}....b.
1300: 80 D0 62 0E 01 D0 62 0E  01 6D 61 69 6E 01 80 1C  ..b...b..main...
1310: 06 80 27 10 F0 FF FF 7F  B5 52 27 80 F8 FF FF 7F  ..'......R'.....
1320: F8 FF FF 7F 72 65 30 35  45 27 80 F8 FF FF 7F F8  ....re05E'......
1330: FF FF 7F 72 65 30 34 01  80 1C A8 80 1A F5 27 1C  ...re04.......'.
1340: 06 80 52 27 80 F8 FF FF  7F F8 FF FF 7F 72 65 30  ..R'.........re0
1350: 34 45 27 80 F8 FF FF 7F  F8 FF FF 7F 30 62 6C 66  4E'.........0blf
1360: 01 80 9F 93 80 F8 FF FF  7F F8 FF FF 7F 6B 69 6C  .............kil
1370: 6C 01 80 1A B3 27 1A D4  27 1C 06 80 67 A9 80 A9  l....'..'...g...
1380: 80 48 AA 80 1C AB 80 68  35 AC 80 78 1C 00 80 5C  .H.....h5..x...\
1390: 00 AD 80 5C 01 AD 80 9A  46 00 45 AE 80 F8 FF FF  ...\....F.E.....
13A0: 7F F8 FF FF 7F 66 64 69  32 01 80 21 00           .....fdi2..!.   
```

#### Opcodes

```
  0: 0x0001 [0x42] SET_CLI_EVENT_CANCEL_DATA()
  1: 0x0002 [0x03] Work_Zone[1] = 1*
  2: 0x0007 [0x43] SEND_EVENT_UPDATE: Send pending tag to server (packet 0x005B)
  3: 0x0009 [0x43] SEND_EVENT_UPDATE: Check pending flag (skip if not pending)
  4: 0x000B [0x03] ExtData[1]->WorkLocal[1] = Work_Zone[2]
  5: 0x0010 [0x03] ExtData[1]->WorkLocal[4] = Work_Zone[3]
  6: 0x0015 [0x03] ExtData[1]->WorkLocal[3] = Work_Zone[4]
  7: 0x001A [0x5D] SET_MUSIC_VOLUME(volume=0*, fade_time=120*)
  8: 0x001F [0x1A] CALL_SUBROUTINE(address=0x27B3)
  9: 0x0022 [0x46] CAMERA_CONTROL: Disable user control
 10: 0x0024 [0x38] SET_CLIENT_EVENT_MODE(mode=27*)
 11: 0x0027 [0x34] LOAD_UNLOAD_ZONE(zone_id=735*)
 12: 0x002A [0x77] SET_EVENT_TIME_WEATHER(hour=0*, weather=19*)
 13: 0x002F [0x1C] WAIT(1* ticks)
 14: 0x0032 [0x6A] CHANGE_SOUND_VOLUME: Set (System/Zone)* volume to 0*, fade_time=60*
 15: 0x0039 [0x4E] SET_ENTITY_HIDE_FLAG: Show LocalPlayer
 16: 0x003F [0x2F] Iroha (ID: 17720006/0x010E62C6)->Render.Flags0 &= ~0x80000 // Bit 19
 17: 0x0045 [0x4E] SET_ENTITY_HIDE_FLAG: Show Iroha (ID: 17720006/0x010E62C6)
 18: 0x004B [0x4E] SET_ENTITY_HIDE_FLAG: Show EventEntity
 19: 0x0051 [0x4E] SET_ENTITY_HIDE_FLAG: Show Unnamed NPC (ID: 17720016/0x010E62D0)
 20: 0x0057 [0x27] REQ_SET(priority=0x10, entity_id=Disjoined One (ID: 17720017/0x010E62D1), tag_num=0x02)
 21: 0x005E [0x27] REQ_SET(priority=0x10, entity_id=Disjoined One (ID: 17720018/0x010E62D2), tag_num=0x02)
 22: 0x0065 [0x27] REQ_SET(priority=0x10, entity_id=Disjoined One (ID: 17720019/0x010E62D3), tag_num=0x02)
 23: 0x006C [0x27] REQ_SET(priority=0x10, entity_id=Disjoined One (ID: 17720020/0x010E62D4), tag_num=0x02)
 24: 0x0073 [0x27] REQ_SET(priority=0x10, entity_id=Disjoined One (ID: 17720021/0x010E62D5), tag_num=0x02)
 25: 0x007A [0x27] REQ_SET(priority=0x10, entity_id=Disjoined One (ID: 17720022/0x010E62D6), tag_num=0x02)
 26: 0x0081 [0x27] REQ_SET(priority=0x10, entity_id=Disjoined One (ID: 17720023/0x010E62D7), tag_num=0x02)
 27: 0x0088 [0x27] REQ_SET(priority=0x10, entity_id=Disjoined One (ID: 17720024/0x010E62D8), tag_num=0x02)
 28: 0x008F [0x27] REQ_SET(priority=0x10, entity_id=Unnamed NPC (ID: 17720025/0x010E62D9), tag_num=0x04)
 29: 0x0096 [0x27] REQ_SET(priority=0x10, entity_id=Unnamed NPC (ID: 17720026/0x010E62DA), tag_num=0x04)
 30: 0x009D [0x92] LocalPlayer->Render.Flags3 ^= 0x01
 31: 0x00A3 [0x92] Iroha (ID: 17720006/0x010E62C6)->Render.Flags3 ^= 0x01
 32: 0x00A9 [0x92] Disjoined One (ID: 17720017/0x010E62D1)->Render.Flags3 ^= 0x01
 33: 0x00AF [0x92] Disjoined One (ID: 17720018/0x010E62D2)->Render.Flags3 ^= 0x01
 34: 0x00B5 [0x92] Disjoined One (ID: 17720019/0x010E62D3)->Render.Flags3 ^= 0x01
 35: 0x00BB [0x92] Disjoined One (ID: 17720020/0x010E62D4)->Render.Flags3 ^= 0x01
 36: 0x00C1 [0x92] Disjoined One (ID: 17720021/0x010E62D5)->Render.Flags3 ^= 0x01
 37: 0x00C7 [0x92] Disjoined One (ID: 17720022/0x010E62D6)->Render.Flags3 ^= 0x01
 38: 0x00CD [0x92] Disjoined One (ID: 17720023/0x010E62D7)->Render.Flags3 ^= 0x01
 39: 0x00D3 [0x92] Disjoined One (ID: 17720024/0x010E62D8)->Render.Flags3 ^= 0x01
 40: 0x00D9 [0x92] Unnamed NPC (ID: 17720025/0x010E62D9)->Render.Flags3 ^= 0x01
 41: 0x00DF [0x92] Unnamed NPC (ID: 17720026/0x010E62DA)->Render.Flags3 ^= 0x01
 42: 0x00E5 [0x94] LocalPlayer->Render.Flags3 ^= 0x01
 43: 0x00EB [0x94] Iroha (ID: 17720006/0x010E62C6)->Render.Flags3 ^= 0x01
 44: 0x00F1 [0x94] Disjoined One (ID: 17720017/0x010E62D1)->Render.Flags3 ^= 0x01
 45: 0x00F7 [0x94] Disjoined One (ID: 17720018/0x010E62D2)->Render.Flags3 ^= 0x01
 46: 0x00FD [0x94] Disjoined One (ID: 17720019/0x010E62D3)->Render.Flags3 ^= 0x01
 47: 0x0103 [0x94] Disjoined One (ID: 17720020/0x010E62D4)->Render.Flags3 ^= 0x01
 48: 0x0109 [0x94] Disjoined One (ID: 17720021/0x010E62D5)->Render.Flags3 ^= 0x01
 49: 0x010F [0x94] Disjoined One (ID: 17720022/0x010E62D6)->Render.Flags3 ^= 0x01
 50: 0x0115 [0x94] Disjoined One (ID: 17720023/0x010E62D7)->Render.Flags3 ^= 0x01
 51: 0x011B [0x94] Disjoined One (ID: 17720024/0x010E62D8)->Render.Flags3 ^= 0x01
 52: 0x0121 [0x94] Unnamed NPC (ID: 17720025/0x010E62D9)->Render.Flags3 ^= 0x01
 53: 0x0127 [0x94] Unnamed NPC (ID: 17720026/0x010E62DA)->Render.Flags3 ^= 0x01
 54: 0x012D [0x94] EventEntity->Render.Flags3 ^= 0x01
 55: 0x0133 [0x59] UPDATE_ENTITY_DATA: LocalPlayer->Render.Flags0 |= 0x200000
 56: 0x013A [0x59] UPDATE_ENTITY_DATA: Iroha (ID: 17720006/0x010E62C6)->Render.Flags0 |= 0x200000
 57: 0x0141 [0x59] UPDATE_ENTITY_DATA: Disjoined One (ID: 17720017/0x010E62D1)->Render.Flags0 |= 0x200000
 58: 0x0148 [0x59] UPDATE_ENTITY_DATA: Disjoined One (ID: 17720018/0x010E62D2)->Render.Flags0 |= 0x200000
 59: 0x014F [0x59] UPDATE_ENTITY_DATA: Disjoined One (ID: 17720019/0x010E62D3)->Render.Flags0 |= 0x200000
 60: 0x0156 [0x59] UPDATE_ENTITY_DATA: Disjoined One (ID: 17720020/0x010E62D4)->Render.Flags0 |= 0x200000
 61: 0x015D [0x59] UPDATE_ENTITY_DATA: Disjoined One (ID: 17720021/0x010E62D5)->Render.Flags0 |= 0x200000
 62: 0x0164 [0x59] UPDATE_ENTITY_DATA: Disjoined One (ID: 17720022/0x010E62D6)->Render.Flags0 |= 0x200000
 63: 0x016B [0x59] UPDATE_ENTITY_DATA: Disjoined One (ID: 17720023/0x010E62D7)->Render.Flags0 |= 0x200000
 64: 0x0172 [0x59] UPDATE_ENTITY_DATA: Disjoined One (ID: 17720024/0x010E62D8)->Render.Flags0 |= 0x200000
 65: 0x0179 [0x59] UPDATE_ENTITY_DATA: Unnamed NPC (ID: 17720025/0x010E62D9)->Render.Flags0 |= 0x200000
 66: 0x0180 [0x59] UPDATE_ENTITY_DATA: Unnamed NPC (ID: 17720026/0x010E62DA)->Render.Flags0 |= 0x200000
 67: 0x0187 [0xBA] SET_ENTITY_POSITION(entity_id=LocalPlayer, pos_x=780.000*, pos_z=0.000*, pos_y=20.000*, direction=0.0°*)
 68: 0x0194 [0xBA] SET_ENTITY_POSITION(entity_id=Iroha (ID: 17720006/0x010E62C6), pos_x=780.000*, pos_z=0.000*, pos_y=20.000*, direction=0.0°*)
 69: 0x01A1 [0xBA] SET_ENTITY_POSITION(entity_id=EventEntity, pos_x=780.000*, pos_z=0.000*, pos_y=20.000*, direction=0.0°*)
 70: 0x01AE [0xBA] SET_ENTITY_POSITION(entity_id=Disjoined One (ID: 17720017/0x010E62D1), pos_x=783.026*, pos_z=0.194*, pos_y=20.000*, direction=175.4°*)
 71: 0x01BB [0xBA] SET_ENTITY_POSITION(entity_id=Disjoined One (ID: 17720018/0x010E62D2), pos_x=779.968*, pos_z=-3.471*, pos_y=20.000*, direction=0.0°*)
 72: 0x01C8 [0xBA] SET_ENTITY_POSITION(entity_id=Disjoined One (ID: 17720019/0x010E62D3), pos_x=777.293*, pos_z=-2.348*, pos_y=20.000*, direction=0.0°*)
 73: 0x01D5 [0xBA] SET_ENTITY_POSITION(entity_id=Disjoined One (ID: 17720020/0x010E62D4), pos_x=781.743*, pos_z=2.824*, pos_y=20.000*, direction=0.0°*)
 74: 0x01E2 [0xBA] SET_ENTITY_POSITION(entity_id=Disjoined One (ID: 17720021/0x010E62D5), pos_x=781.801*, pos_z=-3.050*, pos_y=20.000*, direction=0.0°*)
 75: 0x01EF [0xBA] SET_ENTITY_POSITION(entity_id=Disjoined One (ID: 17720022/0x010E62D6), pos_x=782.369*, pos_z=-2.313*, pos_y=20.000*, direction=0.0°*)
 76: 0x01FC [0xBA] SET_ENTITY_POSITION(entity_id=Disjoined One (ID: 17720023/0x010E62D7), pos_x=776.086*, pos_z=0.104*, pos_y=20.000*, direction=0.0°*)
 77: 0x0209 [0xBA] SET_ENTITY_POSITION(entity_id=Disjoined One (ID: 17720024/0x010E62D8), pos_x=777.287*, pos_z=2.758*, pos_y=20.000*, direction=0.0°*)
 78: 0x0216 [0xBA] SET_ENTITY_POSITION(entity_id=Unnamed NPC (ID: 17720025/0x010E62D9), pos_x=785.452*, pos_z=0.181*, pos_y=20.000*, direction=0.0°*)
 79: 0x0223 [0x6C] FADE_ENTITY_COLOR(entity_id=LocalPlayer, end_alpha=0*, fade_time=1*)
 80: 0x022C [0x6C] FADE_ENTITY_COLOR(entity_id=Iroha (ID: 17720006/0x010E62C6), end_alpha=0*, fade_time=1*)
 81: 0x0235 [0x29] REQ_SET_WAIT(priority=0x10, entity_id=Unnamed NPC (ID: 17720025/0x010E62D9), tag_num=0x0B)
 82: 0x023C [0x29] REQ_SET_WAIT(priority=0x10, entity_id=Unnamed NPC (ID: 17720026/0x010E62DA), tag_num=0x0B)
 83: 0x0243 [0x80] LOAD_WAIT(entity=LocalPlayer)
 84: 0x0248 [0x80] LOAD_WAIT(entity=Iroha (ID: 17720006/0x010E62C6))
 85: 0x024D [0x80] LOAD_WAIT(entity=EventEntity)
 86: 0x0252 [0x80] LOAD_WAIT(entity=Unnamed NPC (ID: 17720025/0x010E62D9))
 87: 0x0257 [0x80] LOAD_WAIT(entity=Unnamed NPC (ID: 17720026/0x010E62DA))
 88: 0x025C [0x80] LOAD_WAIT(entity=Disjoined One (ID: 17720017/0x010E62D1))
 89: 0x0261 [0x80] LOAD_WAIT(entity=Disjoined One (ID: 17720018/0x010E62D2))
 90: 0x0266 [0x80] LOAD_WAIT(entity=Disjoined One (ID: 17720019/0x010E62D3))
 91: 0x026B [0x80] LOAD_WAIT(entity=Disjoined One (ID: 17720020/0x010E62D4))
 92: 0x0270 [0x80] LOAD_WAIT(entity=Disjoined One (ID: 17720021/0x010E62D5))
 93: 0x0275 [0x80] LOAD_WAIT(entity=Disjoined One (ID: 17720022/0x010E62D6))
 94: 0x027A [0x80] LOAD_WAIT(entity=Disjoined One (ID: 17720023/0x010E62D7))
 95: 0x027F [0x80] LOAD_WAIT(entity=Disjoined One (ID: 17720024/0x010E62D8))
 96: 0x0284 [0x4A] Disjoined One (ID: 17720017/0x010E62D1) looks at LocalPlayer
 97: 0x028D [0x4A] Disjoined One (ID: 17720018/0x010E62D2) looks at LocalPlayer
 98: 0x0296 [0x4A] Disjoined One (ID: 17720019/0x010E62D3) looks at LocalPlayer
 99: 0x029F [0x4A] Disjoined One (ID: 17720020/0x010E62D4) looks at LocalPlayer
100: 0x02A8 [0x4A] Disjoined One (ID: 17720021/0x010E62D5) looks at LocalPlayer
101: 0x02B1 [0x4A] Disjoined One (ID: 17720022/0x010E62D6) looks at LocalPlayer
102: 0x02BA [0x4A] Disjoined One (ID: 17720023/0x010E62D7) looks at LocalPlayer
103: 0x02C3 [0x4A] Disjoined One (ID: 17720024/0x010E62D8) looks at LocalPlayer
104: 0x02CC [0x6F] WAIT_FRAME_DELAY: Yield until WaitTime reaches zero
105: 0x02CD [0x76] CHECK_ENTITY_RENDER_FLAGS: Wait until Disjoined One (ID: 17720024/0x010E62D8) Render.Flags0 and Render.Flags3 conditions are met
106: 0x02D2 [0x1C] WAIT(15* ticks)
107: 0x02D5 [0x7B] Disjoined One (ID: 17720017/0x010E62D1) stops talking
108: 0x02DA [0x7B] Disjoined One (ID: 17720018/0x010E62D2) stops talking
109: 0x02DF [0x7B] Disjoined One (ID: 17720019/0x010E62D3) stops talking
110: 0x02E4 [0x7B] Disjoined One (ID: 17720020/0x010E62D4) stops talking
111: 0x02E9 [0x7B] Disjoined One (ID: 17720021/0x010E62D5) stops talking
112: 0x02EE [0x7B] Disjoined One (ID: 17720022/0x010E62D6) stops talking
113: 0x02F3 [0x7B] Disjoined One (ID: 17720023/0x010E62D7) stops talking
114: 0x02F8 [0x7B] Disjoined One (ID: 17720024/0x010E62D8) stops talking
115: 0x02FD [0x5F] MULTI_HANDLER_COMPLEX(mode=0x04 - Load ext scheduler (OpCode 0x5B mode 1), ref=223*, entity1=Disjoined One (ID: 17720018/0x010E62D2), entity2=Disjoined One (ID: 17720018/0x010E62D2), string="fyu0")
116: 0x030D [0x5F] MULTI_HANDLER_COMPLEX(mode=0x04 - Load ext scheduler (OpCode 0x5B mode 1), ref=233*, entity1=Disjoined One (ID: 17720019/0x010E62D3), entity2=Disjoined One (ID: 17720019/0x010E62D3), string="fyu0")
117: 0x031D [0x5F] MULTI_HANDLER_COMPLEX(mode=0x04 - Load ext scheduler (OpCode 0x5B mode 1), ref=243*, entity1=Disjoined One (ID: 17720020/0x010E62D4), entity2=Disjoined One (ID: 17720020/0x010E62D4), string="fyu0")
118: 0x032D [0x5F] MULTI_HANDLER_COMPLEX(mode=0x04 - Load ext scheduler (OpCode 0x5B mode 1), ref=253*, entity1=Disjoined One (ID: 17720021/0x010E62D5), entity2=Disjoined One (ID: 17720021/0x010E62D5), string="fyu0")
119: 0x033D [0x5F] MULTI_HANDLER_COMPLEX(mode=0x04 - Load ext scheduler (OpCode 0x5B mode 1), ref=253*, entity1=Disjoined One (ID: 17720022/0x010E62D6), entity2=Disjoined One (ID: 17720022/0x010E62D6), string="fyu0")
120: 0x034D [0x5F] MULTI_HANDLER_COMPLEX(mode=0x04 - Load ext scheduler (OpCode 0x5B mode 1), ref=263*, entity1=Disjoined One (ID: 17720023/0x010E62D7), entity2=Disjoined One (ID: 17720023/0x010E62D7), string="fyu0")
121: 0x035D [0x5F] MULTI_HANDLER_COMPLEX(mode=0x04 - Load ext scheduler (OpCode 0x5B mode 1), ref=273*, entity1=Disjoined One (ID: 17720024/0x010E62D8), entity2=Disjoined One (ID: 17720024/0x010E62D8), string="fyu0")
122: 0x036D [0xCD] LOAD_SCHEDULED_TASK_ALT4: Load scheduler "s000" with entities [EventEntity, EventEntity], work=[32*, 0*]
123: 0x037E [0x5C] MUSIC_CONTROL: Set Idle (Day) music to song 80*
124: 0x0382 [0x5C] MUSIC_CONTROL: Set Idle (Night) music to song 80*
125: 0x0386 [0x9A] WAIT_MUSIC_SERVER()
126: 0x0387 [0x1C] WAIT(30* ticks)
127: 0x038A [0x45] LOAD_SCHEDULED_TASK: Load scheduler "0blo" with entities [EventEntity, EventEntity], work=[736*, 0*]
128: 0x039B [0x45] LOAD_SCHEDULED_TASK: Load scheduler "ym01" with entities [EventEntity, EventEntity], work=[736*, 0*]
129: 0x03AC [0x1A] CALL_SUBROUTINE(address=0x2792)
130: 0x03AF [0x2B] Unnamed NPC (ID: 17720025/0x010E62D9) [16189*]:
    → "Despite betrayal by those I once called my own..."
131: 0x03B6 [0x1C] WAIT(90* ticks)
132: 0x03B9 [0x23] WAIT_FOR_DIALOG_INTERACTION
133: 0x03BA [0x52] END_LOAD_SCHEDULER: End scheduler "ym01" with entities [EventEntity, EventEntity], work=736*
134: 0x03C9 [0x45] LOAD_SCHEDULED_TASK: Load scheduler "ym02" with entities [EventEntity, EventEntity], work=[736*, 0*]
135: 0x03DA [0x2B] Unnamed NPC (ID: 17720025/0x010E62D9) [16190*]:
    → "I refuse to yield until humanity's blight is purged from this land."
136: 0x03E1 [0x1C] WAIT(90* ticks)
137: 0x03E4 [0x23] WAIT_FOR_DIALOG_INTERACTION
138: 0x03E5 [0x52] END_LOAD_SCHEDULER: End scheduler "ym02" with entities [EventEntity, EventEntity], work=736*
139: 0x03F4 [0x45] LOAD_SCHEDULED_TASK: Load scheduler "ym03" with entities [EventEntity, EventEntity], work=[736*, 0*]
140: 0x0405 [0x2B] Unnamed NPC (ID: 17720025/0x010E62D9) [16191*]:
    → "I now serve to bring darkness unending, an umbral shroud choking the life from Vana'diel."
141: 0x040C [0x1C] WAIT(90* ticks)
142: 0x040F [0x23] WAIT_FOR_DIALOG_INTERACTION
143: 0x0410 [0x1A] CALL_SUBROUTINE(address=0x27B3)
144: 0x0413 [0x29] REQ_SET_WAIT(priority=0x10, entity_id=Unnamed NPC (ID: 17720025/0x010E62D9), tag_num=0x0C)
145: 0x041A [0x29] REQ_SET_WAIT(priority=0x10, entity_id=Unnamed NPC (ID: 17720026/0x010E62DA), tag_num=0x0B)
146: 0x0421 [0x80] LOAD_WAIT(entity=Unnamed NPC (ID: 17720025/0x010E62D9))
147: 0x0426 [0x80] LOAD_WAIT(entity=Unnamed NPC (ID: 17720026/0x010E62DA))
148: 0x042B [0xBA] SET_ENTITY_POSITION(entity_id=Unnamed NPC (ID: 17720025/0x010E62D9), pos_x=782.627*, pos_z=4.938*, pos_y=20.000*, direction=180.8°*)
149: 0x0438 [0xBA] SET_ENTITY_POSITION(entity_id=Unnamed NPC (ID: 17720026/0x010E62DA), pos_x=783.158*, pos_z=4.865*, pos_y=20.000*, direction=0.0°*)
150: 0x0445 [0x1C] WAIT(15* ticks)
151: 0x0448 [0x52] END_LOAD_SCHEDULER: End scheduler "ym03" with entities [EventEntity, EventEntity], work=736*
152: 0x0457 [0x45] LOAD_SCHEDULED_TASK: Load scheduler "zl01" with entities [EventEntity, EventEntity], work=[736*, 0*]
153: 0x0468 [0x1A] CALL_SUBROUTINE(address=0x2792)
154: 0x046B [0x2B] Unnamed NPC (ID: 17720026/0x010E62DA) [16192*]:
    → "Simply opening the Gate of the Gods would bring the Zilart what they have been denied for over ten thousand years."
155: 0x0472 [0x1C] WAIT(90* ticks)
156: 0x0475 [0x23] WAIT_FOR_DIALOG_INTERACTION
157: 0x0476 [0x2B] Unnamed NPC (ID: 17720026/0x010E62DA) [16193*]:
    → "The endless nightmare would be endless no longer."
158: 0x047D [0x1C] WAIT(90* ticks)
159: 0x0480 [0x23] WAIT_FOR_DIALOG_INTERACTION
160: 0x0481 [0x52] END_LOAD_SCHEDULER: End scheduler "zl01" with entities [EventEntity, EventEntity], work=736*
161: 0x0490 [0x45] LOAD_SCHEDULED_TASK: Load scheduler "zl02" with entities [EventEntity, EventEntity], work=[736*, 0*]
162: 0x04A1 [0x2B] Unnamed NPC (ID: 17720025/0x010E62D9) [16194*]:
    → "Have you ever paused to consider exactly whose nightmare it is?"
163: 0x04A8 [0x1C] WAIT(90* ticks)
164: 0x04AB [0x23] WAIT_FOR_DIALOG_INTERACTION
165: 0x04AC [0x2B] Unnamed NPC (ID: 17720025/0x010E62D9) [16195*]:
    → "Those who have ceased to be? Those who walk Vana'diel as she stands today?"
166: 0x04B3 [0x1C] WAIT(90* ticks)
167: 0x04B6 [0x23] WAIT_FOR_DIALOG_INTERACTION
168: 0x04B7 [0x52] END_LOAD_SCHEDULER: End scheduler "zl02" with entities [EventEntity, EventEntity], work=736*
169: 0x04C6 [0x45] LOAD_SCHEDULED_TASK: Load scheduler "zl03" with entities [EventEntity, EventEntity], work=[736*, 0*]
170: 0x04D7 [0x2B] Unnamed NPC (ID: 17720025/0x010E62D9) [16196*]:
    → "Old gods? New?"
171: 0x04DE [0x1C] WAIT(90* ticks)
172: 0x04E1 [0x23] WAIT_FOR_DIALOG_INTERACTION
173: 0x04E2 [0x52] END_LOAD_SCHEDULER: End scheduler "zl03" with entities [EventEntity, EventEntity], work=736*
174: 0x04F1 [0x45] LOAD_SCHEDULED_TASK: Load scheduler "zl04" with entities [EventEntity, EventEntity], work=[736*, 0*]
175: 0x0502 [0x2B] Unnamed NPC (ID: 17720025/0x010E62D9) [16197*]:
    → "No. It is a nightmare of the crystals themselves."
176: 0x0509 [0x1C] WAIT(90* ticks)
177: 0x050C [0x23] WAIT_FOR_DIALOG_INTERACTION
178: 0x050D [0x52] END_LOAD_SCHEDULER: End scheduler "zl04" with entities [EventEntity, EventEntity], work=736*
179: 0x051C [0x45] LOAD_SCHEDULED_TASK: Load scheduler "zl05" with entities [EventEntity, EventEntity], work=[736*, 0*]
180: 0x052D [0x2B] Unnamed NPC (ID: 17720026/0x010E62DA) [16198*]:
    → "We were born in Vana'diel and exist only due to her endless bounty."
181: 0x0534 [0x1C] WAIT(90* ticks)
182: 0x0537 [0x23] WAIT_FOR_DIALOG_INTERACTION
183: 0x0538 [0x52] END_LOAD_SCHEDULER: End scheduler "zl05" with entities [EventEntity, EventEntity], work=736*
184: 0x0547 [0x45] LOAD_SCHEDULED_TASK: Load scheduler "zl06" with entities [EventEntity, EventEntity], work=[736*, 0*]
185: 0x0558 [0x2B] Unnamed NPC (ID: 17720026/0x010E62DA) [16199*]:
    → "And yet our very presence here is an affront to her. We are the source of her nightmare."
186: 0x055F [0x1C] WAIT(90* ticks)
187: 0x0562 [0x23] WAIT_FOR_DIALOG_INTERACTION
188: 0x0563 [0x1A] CALL_SUBROUTINE(address=0x27B3)
189: 0x0566 [0x29] REQ_SET_WAIT(priority=0x10, entity_id=Unnamed NPC (ID: 17720025/0x010E62D9), tag_num=0x0D)
190: 0x056D [0x29] REQ_SET_WAIT(priority=0x10, entity_id=Unnamed NPC (ID: 17720026/0x010E62DA), tag_num=0x0C)
191: 0x0574 [0x80] LOAD_WAIT(entity=Unnamed NPC (ID: 17720025/0x010E62D9))
192: 0x0579 [0x80] LOAD_WAIT(entity=Unnamed NPC (ID: 17720026/0x010E62DA))
193: 0x057E [0xBA] SET_ENTITY_POSITION(entity_id=Unnamed NPC (ID: 17720025/0x010E62D9), pos_x=778.355*, pos_z=6.615*, pos_y=20.000*, direction=0.0°*)
194: 0x058B [0xBA] SET_ENTITY_POSITION(entity_id=Unnamed NPC (ID: 17720026/0x010E62DA), pos_x=771.317*, pos_z=3.304*, pos_y=20.000*, direction=0.0°*)
195: 0x0598 [0x1C] WAIT(15* ticks)
196: 0x059B [0x52] END_LOAD_SCHEDULER: End scheduler "zl06" with entities [EventEntity, EventEntity], work=736*
197: 0x05AA [0x45] LOAD_SCHEDULED_TASK: Load scheduler "pr01" with entities [EventEntity, EventEntity], work=[736*, 0*]
198: 0x05BB [0x1A] CALL_SUBROUTINE(address=0x2792)
199: 0x05BE [0x2B] Unnamed NPC (ID: 17720025/0x010E62D9) [16200*]:
    → "There is one secret to humanity's success: ambition. Imagining a better future, it strives ever onward in search of it."
200: 0x05C5 [0x1C] WAIT(90* ticks)
201: 0x05C8 [0x23] WAIT_FOR_DIALOG_INTERACTION
202: 0x05C9 [0x2B] Unnamed NPC (ID: 17720025/0x010E62D9) [16201*]:
    → "Having seen the promised land, it rages and struggles each day to become more than it was meant to be."
203: 0x05D0 [0x1C] WAIT(90* ticks)
204: 0x05D3 [0x23] WAIT_FOR_DIALOG_INTERACTION
205: 0x05D4 [0x52] END_LOAD_SCHEDULER: End scheduler "pr01" with entities [EventEntity, EventEntity], work=736*
206: 0x05E3 [0x45] LOAD_SCHEDULED_TASK: Load scheduler "pr02" with entities [EventEntity, EventEntity], work=[736*, 0*]
207: 0x05F4 [0x2B] Unnamed NPC (ID: 17720025/0x010E62D9) [16202*]:
    → "And it continues to claw its way forward, even if what it aspires to be does not truly exist."
208: 0x05FB [0x1C] WAIT(90* ticks)
209: 0x05FE [0x23] WAIT_FOR_DIALOG_INTERACTION
210: 0x05FF [0x2B] Unnamed NPC (ID: 17720025/0x010E62D9) [16203*]:
    → "Its insatiable avarice defines it more than even it can possibly realize."
211: 0x0606 [0x1C] WAIT(90* ticks)
212: 0x0609 [0x23] WAIT_FOR_DIALOG_INTERACTION
213: 0x060A [0x52] END_LOAD_SCHEDULER: End scheduler "pr02" with entities [EventEntity, EventEntity], work=736*
214: 0x0619 [0x45] LOAD_SCHEDULED_TASK: Load scheduler "pr03" with entities [EventEntity, EventEntity], work=[736*, 0*]
215: 0x062A [0x2B] Unnamed NPC (ID: 17720025/0x010E62D9) [16204*]:
    → "But I am not a "human" such as you. I will be--I must be--an existence far beyond the most grandiose thought of such petty, grasping beings."
216: 0x0631 [0x1C] WAIT(90* ticks)
217: 0x0634 [0x23] WAIT_FOR_DIALOG_INTERACTION
218: 0x0635 [0x2B] Unnamed NPC (ID: 17720025/0x010E62D9) [16205*]:
    → "For that is what life is. And those who cannot reach that pinnacle are fated to perish."
219: 0x063C [0x1C] WAIT(90* ticks)
220: 0x063F [0x23] WAIT_FOR_DIALOG_INTERACTION
221: 0x0640 [0x1A] CALL_SUBROUTINE(address=0x27B3)
222: 0x0643 [0x29] REQ_SET_WAIT(priority=0x10, entity_id=Unnamed NPC (ID: 17720025/0x010E62D9), tag_num=0x0E)
223: 0x064A [0x80] LOAD_WAIT(entity=Unnamed NPC (ID: 17720025/0x010E62D9))
224: 0x064F [0xBA] SET_ENTITY_POSITION(entity_id=Unnamed NPC (ID: 17720025/0x010E62D9), pos_x=772.128*, pos_z=-5.210*, pos_y=20.000*, direction=0.0°*)
225: 0x065C [0x5F] MULTI_HANDLER_COMPLEX(mode=0x03 - Load ext scheduler (OpCode 0x5B mode 0), ref=837*, entity1=Unnamed NPC (ID: 17720026/0x010E62DA), entity2=Unnamed NPC (ID: 17720026/0x010E62DA), string="stbl")
226: 0x066C [0x1C] WAIT(15* ticks)
227: 0x066F [0x52] END_LOAD_SCHEDULER: End scheduler "pr03" with entities [EventEntity, EventEntity], work=736*
228: 0x067E [0x45] LOAD_SCHEDULED_TASK: Load scheduler "at01" with entities [EventEntity, EventEntity], work=[736*, 0*]
229: 0x068F [0x1A] CALL_SUBROUTINE(address=0x2792)
230: 0x0692 [0x2B] Unnamed NPC (ID: 17720026/0x010E62DA) [16206*]:
    → "Time is a cruel beast whose savageness cannot be sated."
231: 0x0699 [0x1C] WAIT(90* ticks)
232: 0x069C [0x23] WAIT_FOR_DIALOG_INTERACTION
233: 0x069D [0x2B] Unnamed NPC (ID: 17720026/0x010E62DA) [16207*]:
    → "Every man, woman, and child feels its claws sinking into their backs, the talons digging ever deeper with each passing day."
234: 0x06A4 [0x1C] WAIT(90* ticks)
235: 0x06A7 [0x23] WAIT_FOR_DIALOG_INTERACTION
236: 0x06A8 [0x52] END_LOAD_SCHEDULER: End scheduler "at01" with entities [EventEntity, EventEntity], work=736*
237: 0x06B7 [0x45] LOAD_SCHEDULED_TASK: Load scheduler "at02" with entities [EventEntity, EventEntity], work=[736*, 0*]
238: 0x06C8 [0x2B] Unnamed NPC (ID: 17720026/0x010E62DA) [16208*]:
    → "It marches on, unstoppable, immaterial, and unforgiving, and all any of us can do is watch it pass."
239: 0x06CF [0x1C] WAIT(90* ticks)
240: 0x06D2 [0x23] WAIT_FOR_DIALOG_INTERACTION
241: 0x06D3 [0x2B] Unnamed NPC (ID: 17720026/0x010E62DA) [16209*]:
    → "I claimed ever greater power in pursuit of my goals until my time, too, ran out."
242: 0x06DA [0x1C] WAIT(90* ticks)
243: 0x06DD [0x23] WAIT_FOR_DIALOG_INTERACTION
244: 0x06DE [0x52] END_LOAD_SCHEDULER: End scheduler "at02" with entities [EventEntity, EventEntity], work=736*
245: 0x06ED [0x45] LOAD_SCHEDULED_TASK: Load scheduler "at03" with entities [EventEntity, EventEntity], work=[736*, 0*]
246: 0x06FE [0x2B] Unnamed NPC (ID: 17720026/0x010E62DA) [16210*]:
    → "All I wanted to do was protect my countrymen...my homeland..."
247: 0x0705 [0x1C] WAIT(90* ticks)
248: 0x0708 [0x23] WAIT_FOR_DIALOG_INTERACTION
249: 0x0709 [0x1A] CALL_SUBROUTINE(address=0x27B3)
250: 0x070C [0x02] IF !(ExtData[1]->WorkLocal[4] == 0*) GOTO 0x071D
251: 0x0714 [0x4E] SET_ENTITY_HIDE_FLAG: Hide Unnamed NPC (ID: 17720026/0x010E62DA)
252: 0x071A [0x01] GOTO 0x0736
253: 0x071D [0x29] REQ_SET_WAIT(priority=0x10, entity_id=Unnamed NPC (ID: 17720026/0x010E62DA), tag_num=0x0D)
254: 0x0724 [0x80] LOAD_WAIT(entity=Unnamed NPC (ID: 17720026/0x010E62DA))
255: 0x0729 [0xBA] SET_ENTITY_POSITION(entity_id=Unnamed NPC (ID: 17720026/0x010E62DA), pos_x=776.872*, pos_z=-10.027*, pos_y=20.000*, direction=0.0°*)

SUBROUTINE_0736:
256: 0x0736 [0x1C] WAIT(15* ticks)
257: 0x0739 [0x52] END_LOAD_SCHEDULER: End scheduler "at03" with entities [EventEntity, EventEntity], work=736*
258: 0x0748 [0x45] LOAD_SCHEDULED_TASK: Load scheduler "wg01" with entities [EventEntity, EventEntity], work=[736*, 0*]
259: 0x0759 [0x1A] CALL_SUBROUTINE(address=0x2792)
260: 0x075C [0x2B] Unnamed NPC (ID: 17720025/0x010E62D9) [16211*]:
    → "An alternate world, with alternate fates and alternate existences."
261: 0x0763 [0x1C] WAIT(90* ticks)
262: 0x0766 [0x23] WAIT_FOR_DIALOG_INTERACTION
263: 0x0767 [0x2B] Unnamed NPC (ID: 17720025/0x010E62D9) [16212*]:
    → "I gambled my own life away to protect the world I called home."
264: 0x076E [0x1C] WAIT(90* ticks)
265: 0x0771 [0x23] WAIT_FOR_DIALOG_INTERACTION
266: 0x0772 [0x52] END_LOAD_SCHEDULER: End scheduler "wg01" with entities [EventEntity, EventEntity], work=736*
267: 0x0781 [0x45] LOAD_SCHEDULED_TASK: Load scheduler "wg02" with entities [EventEntity, EventEntity], work=[736*, 0*]
268: 0x0792 [0x03] Work_Zone[4] = ExtData[1]->WorkLocal[3]
269: 0x0797 [0x2B] Unnamed NPC (ID: 17720025/0x010E62D9) [16213*]:
    → "Can you truly say that you [did/would have done] any different?"
270: 0x079E [0x1C] WAIT(90* ticks)
271: 0x07A1 [0x23] WAIT_FOR_DIALOG_INTERACTION
272: 0x07A2 [0x52] END_LOAD_SCHEDULER: End scheduler "wg02" with entities [EventEntity, EventEntity], work=736*
273: 0x07B1 [0x45] LOAD_SCHEDULED_TASK: Load scheduler "wg03" with entities [EventEntity, EventEntity], work=[736*, 0*]
274: 0x07C2 [0x2B] Unnamed NPC (ID: 17720025/0x010E62D9) [16214*]:
    → "I channeled my love for my homeland into power."
275: 0x07C9 [0x1C] WAIT(90* ticks)
276: 0x07CC [0x23] WAIT_FOR_DIALOG_INTERACTION
277: 0x07CD [0x2B] Unnamed NPC (ID: 17720025/0x010E62D9) [16215*]:
    → "When I fell before you..."
278: 0x07D4 [0x1C] WAIT(90* ticks)
279: 0x07D7 [0x23] WAIT_FOR_DIALOG_INTERACTION
280: 0x07D8 [0x52] END_LOAD_SCHEDULER: End scheduler "wg03" with entities [EventEntity, EventEntity], work=736*
281: 0x07E7 [0x45] LOAD_SCHEDULED_TASK: Load scheduler "wg04" with entities [EventEntity, EventEntity], work=[736*, 0*]
282: 0x07F8 [0x2B] Unnamed NPC (ID: 17720025/0x010E62D9) [16216*]:
    → "...did it mean everything was for naught?"
283: 0x07FF [0x1C] WAIT(90* ticks)
284: 0x0802 [0x23] WAIT_FOR_DIALOG_INTERACTION
285: 0x0803 [0x1A] CALL_SUBROUTINE(address=0x27B3)
286: 0x0806 [0x6C] FADE_ENTITY_COLOR(entity_id=Unnamed NPC (ID: 17720025/0x010E62D9), end_alpha=0*, fade_time=1*)
287: 0x080F [0xBA] SET_ENTITY_POSITION(entity_id=Unnamed NPC (ID: 17720025/0x010E62D9), pos_x=784.864*, pos_z=0.008*, pos_y=20.000*, direction=0.0°*)
288: 0x081C [0x1C] WAIT(15* ticks)
289: 0x081F [0x02] IF !(ExtData[1]->WorkLocal[4] == 0*) GOTO 0x082A
290: 0x0827 [0x01] GOTO 0x08F8
291: 0x082A [0x52] END_LOAD_SCHEDULER: End scheduler "wg04" with entities [EventEntity, EventEntity], work=736*
292: 0x0839 [0x45] LOAD_SCHEDULED_TASK: Load scheduler "ad01" with entities [EventEntity, EventEntity], work=[736*, 0*]
293: 0x084A [0x1A] CALL_SUBROUTINE(address=0x2792)
294: 0x084D [0x2B] Unnamed NPC (ID: 17720026/0x010E62DA) [16217*]:
    → "I, and I alone, have seen the true nature of things in this world."
295: 0x0854 [0x1C] WAIT(90* ticks)
296: 0x0857 [0x23] WAIT_FOR_DIALOG_INTERACTION
297: 0x0858 [0x52] END_LOAD_SCHEDULER: End scheduler "ad01" with entities [EventEntity, EventEntity], work=736*
298: 0x0867 [0x45] LOAD_SCHEDULED_TASK: Load scheduler "ad02" with entities [EventEntity, EventEntity], work=[736*, 0*]
299: 0x0878 [0x2B] Unnamed NPC (ID: 17720026/0x010E62DA) [16218*]:
    → "And thus, I have learned why all beings that rise must fall."
300: 0x087F [0x1C] WAIT(90* ticks)
301: 0x0882 [0x23] WAIT_FOR_DIALOG_INTERACTION
302: 0x0883 [0x2B] Unnamed NPC (ID: 17720026/0x010E62DA) [16219*]:
    → "This is a burden which I must bear and prevent from happening ever again."
303: 0x088A [0x1C] WAIT(90* ticks)
304: 0x088D [0x23] WAIT_FOR_DIALOG_INTERACTION
305: 0x088E [0x52] END_LOAD_SCHEDULER: End scheduler "ad02" with entities [EventEntity, EventEntity], work=736*
306: 0x089D [0x45] LOAD_SCHEDULED_TASK: Load scheduler "ad03" with entities [EventEntity, EventEntity], work=[736*, 0*]
307: 0x08AE [0x2B] Unnamed NPC (ID: 17720026/0x010E62DA) [16220*]:
    → "Should you not understand why my goal is pure and just, then you are unworthy of being called human."
308: 0x08B5 [0x1C] WAIT(90* ticks)
309: 0x08B8 [0x23] WAIT_FOR_DIALOG_INTERACTION
310: 0x08B9 [0x2B] Unnamed NPC (ID: 17720026/0x010E62DA) [16221*]:
    → "Open your eyes and witness the truth!"
311: 0x08C0 [0x1C] WAIT(90* ticks)
312: 0x08C3 [0x23] WAIT_FOR_DIALOG_INTERACTION
313: 0x08C4 [0x52] END_LOAD_SCHEDULER: End scheduler "ad03" with entities [EventEntity, EventEntity], work=736*
314: 0x08D3 [0x45] LOAD_SCHEDULED_TASK: Load scheduler "ad04" with entities [EventEntity, EventEntity], work=[736*, 0*]
315: 0x08E4 [0x2B] Unnamed NPC (ID: 17720026/0x010E62DA) [16222*]:
    → "Don't let ignorance cloud your judgment!"
316: 0x08EB [0x1C] WAIT(90* ticks)
317: 0x08EE [0x23] WAIT_FOR_DIALOG_INTERACTION
318: 0x08EF [0x1A] CALL_SUBROUTINE(address=0x27B3)
319: 0x08F2 [0x4E] SET_ENTITY_HIDE_FLAG: Hide Unnamed NPC (ID: 17720026/0x010E62DA)

SUBROUTINE_08F8:
320: 0x08F8 [0x1C] WAIT(30* ticks)
321: 0x08FB [0xCD] LOAD_SCHEDULED_TASK_ALT4: Load scheduler "kil0" with entities [EventEntity, EventEntity], work=[32*, 0*]
322: 0x090C [0x48] [System] [16256*]:
    → "@@"
323: 0x090F [0x23] WAIT_FOR_DIALOG_INTERACTION
324: 0x0910 [0xD5] LOAD_EVENT_SCHEDULER_ALT8: Load scheduler "s0" with entities [EventEntity, EventEntity], work=ExtData[1]->WorkLocal[1]
325: 0x0921 [0x6C] FADE_ENTITY_COLOR(entity_id=Disjoined One (ID: 17720017/0x010E62D1), end_alpha=128*, fade_time=1*)
326: 0x092A [0x5F] MULTI_HANDLER_COMPLEX(mode=0x05 - Load ext scheduler with flag (OpCode 0x5B mode 0, flag 1), ref=3896*, entity1=Disjoined One (ID: 17720017/0x010E62D1), entity2=Disjoined One (ID: 17720017/0x010E62D1), string="wlk1", extra=330*)
327: 0x093C [0x52] END_LOAD_SCHEDULER: End scheduler "at03" with entities [EventEntity, EventEntity], work=736*
328: 0x094B [0x52] END_LOAD_SCHEDULER: End scheduler "ad04" with entities [EventEntity, EventEntity], work=736*
329: 0x095A [0x45] LOAD_SCHEDULED_TASK: Load scheduler "hs02" with entities [EventEntity, EventEntity], work=[736*, 0*]
330: 0x096B [0x1A] CALL_SUBROUTINE(address=0x2792)
331: 0x096E [0x1C] WAIT(150* ticks)
332: 0x0971 [0x2B] Disjoined One (ID: 17720017/0x010E62D1) [16223*]:
    → "<Player>..."
333: 0x0978 [0x23] WAIT_FOR_DIALOG_INTERACTION
334: 0x0979 [0x5F] MULTI_HANDLER_COMPLEX(mode=0x07 - Wait scheduler task (OpCode 0x53))
335: 0x0987 [0x52] END_LOAD_SCHEDULER: End scheduler "hs02" with entities [EventEntity, EventEntity], work=736*
336: 0x0996 [0x45] LOAD_SCHEDULED_TASK: Load scheduler "hs04" with entities [EventEntity, EventEntity], work=[736*, 0*]
337: 0x09A7 [0x2B] Disjoined One (ID: 17720017/0x010E62D1) [16224*]:
    → "What you see before you--is it a dream, or something else?"
338: 0x09AE [0x1C] WAIT(90* ticks)
339: 0x09B1 [0x23] WAIT_FOR_DIALOG_INTERACTION
340: 0x09B2 [0x24] CREATE_DIALOG(message_id=16225*, default_option=0*, option_flags=0*)
    → "Is this a dream? [What else could it be?/No. It's something more...]"
341: 0x09B9 [0x25] WAIT_DIALOG_SELECT()
342: 0x09BA [0x02] IF !(Work_Zone[0] == 0*) GOTO 0x09CC
343: 0x09C2 [0x2B] Disjoined One (ID: 17720017/0x010E62D1) [16226*]:
    → "Come. Surely your vision cannot be that clouded."
344: 0x09C9 [0x01] GOTO 0x09DE
345: 0x09CC [0x02] IF !(Work_Zone[0] == 1*) GOTO 0x09DE
346: 0x09D4 [0x2B] Disjoined One (ID: 17720017/0x010E62D1) [16227*]:
    → "A keen eye, as always."
347: 0x09DB [0x01] GOTO 0x09DE

SUBROUTINE_09DE:
348: 0x09DE [0x1C] WAIT(90* ticks)
349: 0x09E1 [0x23] WAIT_FOR_DIALOG_INTERACTION
350: 0x09E2 [0x52] END_LOAD_SCHEDULER: End scheduler "hs04" with entities [EventEntity, EventEntity], work=736*
351: 0x09F1 [0x45] LOAD_SCHEDULED_TASK: Load scheduler "hs05" with entities [EventEntity, EventEntity], work=[736*, 0*]
352: 0x0A02 [0x92] LocalPlayer->Render.Flags3 = Flags3  // No change (flag=0)
353: 0x0A08 [0x6C] FADE_ENTITY_COLOR(entity_id=LocalPlayer, end_alpha=128*, fade_time=1*)
354: 0x0A11 [0x2B] Disjoined One (ID: 17720017/0x010E62D1) [16228*]:
    → "The minds of all who have existed--and all who will exist--are as one."
355: 0x0A18 [0x1C] WAIT(90* ticks)
356: 0x0A1B [0x23] WAIT_FOR_DIALOG_INTERACTION
357: 0x0A1C [0x2B] Disjoined One (ID: 17720017/0x010E62D1) [16229*]:
    → "As, too, are the light and darkness inherent in the mothercrystals."
358: 0x0A23 [0x1C] WAIT(90* ticks)
359: 0x0A26 [0x23] WAIT_FOR_DIALOG_INTERACTION
360: 0x0A27 [0x52] END_LOAD_SCHEDULER: End scheduler "hs05" with entities [EventEntity, EventEntity], work=736*
361: 0x0A36 [0x45] LOAD_SCHEDULED_TASK: Load scheduler "hs06" with entities [EventEntity, EventEntity], work=[736*, 0*]
362: 0x0A47 [0x2B] Disjoined One (ID: 17720017/0x010E62D1) [16230*]:
    → "I need not point out that the apparitions appearing before you are those whose schemes you have foiled."
363: 0x0A4E [0x1C] WAIT(90* ticks)
364: 0x0A51 [0x23] WAIT_FOR_DIALOG_INTERACTION
365: 0x0A52 [0x52] END_LOAD_SCHEDULER: End scheduler "hs06" with entities [EventEntity, EventEntity], work=736*
366: 0x0A61 [0x02] IF !(ExtData[1]->WorkLocal[1] == 0*) GOTO 0x0AA8
367: 0x0A69 [0x45] LOAD_SCHEDULED_TASK: Load scheduler "hs07" with entities [EventEntity, EventEntity], work=[736*, 0*]
368: 0x0A7A [0x2B] Disjoined One (ID: 17720017/0x010E62D1) [16231*]:
    → "And those..."
369: 0x0A81 [0x23] WAIT_FOR_DIALOG_INTERACTION
370: 0x0A82 [0x2B] Disjoined One (ID: 17720017/0x010E62D1) [16232*]:
    → "...Who you are destined to stop."
371: 0x0A89 [0x1C] WAIT(30* ticks)
372: 0x0A8C [0x6B] STOP_AND_IDLE: Disjoined One (ID: 17720017/0x010E62D1) stops current action and resets to idle (animation="idl0")
373: 0x0A95 [0x1C] WAIT(60* ticks)
374: 0x0A98 [0x23] WAIT_FOR_DIALOG_INTERACTION
375: 0x0A99 [0x52] END_LOAD_SCHEDULER: End scheduler "hs07" with entities [EventEntity, EventEntity], work=736*
376: 0x0AA8 [0x45] LOAD_SCHEDULED_TASK: Load scheduler "hs01" with entities [EventEntity, EventEntity], work=[736*, 0*]
377: 0x0AB9 [0x2B] Disjoined One (ID: 17720017/0x010E62D1) [16233*]:
    → "I have sought them out of my own volition, hoping to manipulate their essences for my own ends."
378: 0x0AC0 [0x1C] WAIT(30* ticks)
379: 0x0AC3 [0xD0] LOAD_SCHEDULED_TASK_ALT5: Load scheduler "gng0" with entities [Disjoined One (ID: 17720017/0x010E62D1), Disjoined One (ID: 17720017/0x010E62D1)], work=[183*, 0*]
380: 0x0AD4 [0x1C] WAIT(90* ticks)
381: 0x0AD7 [0x23] WAIT_FOR_DIALOG_INTERACTION
382: 0x0AD8 [0x52] END_LOAD_SCHEDULER: End scheduler "hs01" with entities [EventEntity, EventEntity], work=736*
383: 0x0AE7 [0x45] LOAD_SCHEDULED_TASK: Load scheduler "hs08" with entities [EventEntity, EventEntity], work=[736*, 0*]
384: 0x0AF8 [0x5F] MULTI_HANDLER_COMPLEX(mode=0x05 - Load ext scheduler with flag (OpCode 0x5B mode 0, flag 1), ref=3960*, entity1=Disjoined One (ID: 17720017/0x010E62D1), entity2=Disjoined One (ID: 17720017/0x010E62D1), string="uku0", extra=220*)
385: 0x0B0A [0x1C] WAIT(30* ticks)
386: 0x0B0D [0x2B] Disjoined One (ID: 17720017/0x010E62D1) [16234*]:
    → "Dark, infernal forces, serving as a counterbalance to the light you hope to make manifest."
387: 0x0B14 [0x1C] WAIT(90* ticks)
388: 0x0B17 [0x23] WAIT_FOR_DIALOG_INTERACTION
389: 0x0B18 [0x5F] MULTI_HANDLER_COMPLEX(mode=0x07 - Wait scheduler task (OpCode 0x53))
390: 0x0B26 [0x52] END_LOAD_SCHEDULER: End scheduler "hs08" with entities [EventEntity, EventEntity], work=736*
391: 0x0B35 [0x45] LOAD_SCHEDULED_TASK: Load scheduler "hs11" with entities [EventEntity, EventEntity], work=[736*, 0*]
392: 0x0B46 [0x2B] Disjoined One (ID: 17720017/0x010E62D1) [16235*]:
    → "And now is the time for me to fill you with that energy. Come."
393: 0x0B4D [0x1C] WAIT(120* ticks)
394: 0x0B50 [0x23] WAIT_FOR_DIALOG_INTERACTION
395: 0x0B51 [0x52] END_LOAD_SCHEDULER: End scheduler "hs11" with entities [EventEntity, EventEntity], work=736*
396: 0x0B60 [0x45] LOAD_SCHEDULED_TASK: Load scheduler "hs10" with entities [EventEntity, EventEntity], work=[736*, 0*]
397: 0x0B71 [0x45] LOAD_SCHEDULED_TASK: Load scheduler "0pop" with entities [EventEntity, EventEntity], work=[736*, 0*]
398: 0x0B82 [0x27] REQ_SET(priority=0x10, entity_id=Unnamed NPC (ID: 17720016/0x010E62D0), tag_num=0x03)
399: 0x0B89 [0x1C] WAIT(30* ticks)
400: 0x0B8C [0x6E] LocalPlayer uses emote 29*
401: 0x0B93 [0x99] Wait for LocalPlayer animation to complete
402: 0x0B98 [0x2A] GET_REQ_LEVEL(level=16, entity_id=Unnamed NPC (ID: 17720016/0x010E62D0))
403: 0x0B9E [0x52] END_LOAD_SCHEDULER: End scheduler "hs10" with entities [EventEntity, EventEntity], work=736*
404: 0x0BAD [0x45] LOAD_SCHEDULED_TASK: Load scheduler "khf2" with entities [EventEntity, EventEntity], work=[736*, 0*]
405: 0x0BBE [0x45] LOAD_SCHEDULED_TASK: Load scheduler "4k23" with entities [EventEntity, EventEntity], work=[736*, 0*]
406: 0x0BCF [0x2B] Disjoined One (ID: 17720018/0x010E62D2) [16236*]:
    → "You don't really expect to save the world, do you?"
407: 0x0BD6 [0x1C] WAIT(90* ticks)
408: 0x0BD9 [0x23] WAIT_FOR_DIALOG_INTERACTION
409: 0x0BDA [0x52] END_LOAD_SCHEDULER: End scheduler "khf2" with entities [EventEntity, EventEntity], work=736*
410: 0x0BE9 [0x45] LOAD_SCHEDULED_TASK: Load scheduler "khf1" with entities [EventEntity, EventEntity], work=[736*, 0*]
411: 0x0BFA [0x2B] Disjoined One (ID: 17720018/0x010E62D2) [16237*]:
    → "At best you might buy it a few more phases of the moon."
412: 0x0C01 [0x1C] WAIT(90* ticks)
413: 0x0C04 [0x23] WAIT_FOR_DIALOG_INTERACTION
414: 0x0C05 [0x27] REQ_SET(priority=0x10, entity_id=Disjoined One (ID: 17720018/0x010E62D2), tag_num=0x0B)
415: 0x0C0C [0xD0] LOAD_SCHEDULED_TASK_ALT5: Load scheduler "s000" with entities [Disjoined One (ID: 17720018/0x010E62D2), LocalPlayer], work=[181*, 0*]
416: 0x0C1D [0x1C] WAIT(240* ticks)
417: 0x0C20 [0x81] SET_ENTITY_BLINKING(blink_flag=0x00, entity=LocalPlayer)
418: 0x0C26 [0x27] REQ_SET(priority=0x10, entity_id=LocalPlayer, tag_num=0xB7)
419: 0x0C2D [0x52] END_LOAD_SCHEDULER: End scheduler "khf1" with entities [EventEntity, EventEntity], work=736*
420: 0x0C3C [0x45] LOAD_SCHEDULED_TASK: Load scheduler "kem1" with entities [EventEntity, EventEntity], work=[736*, 0*]
421: 0x0C4D [0x2B] Disjoined One (ID: 17720019/0x010E62D3) [16238*]:
    → "Even should I fall, there is a grand legion aching to take my place."
422: 0x0C54 [0x1C] WAIT(90* ticks)
423: 0x0C57 [0x23] WAIT_FOR_DIALOG_INTERACTION
424: 0x0C58 [0x52] END_LOAD_SCHEDULER: End scheduler "kem1" with entities [EventEntity, EventEntity], work=736*
425: 0x0C67 [0x45] LOAD_SCHEDULED_TASK: Load scheduler "kem2" with entities [EventEntity, EventEntity], work=[736*, 0*]
426: 0x0C78 [0x2B] Disjoined One (ID: 17720019/0x010E62D3) [16239*]:
    → "So in the end, all my journeys have been utterly without meaning."
427: 0x0C7F [0x1C] WAIT(90* ticks)
428: 0x0C82 [0x23] WAIT_FOR_DIALOG_INTERACTION
429: 0x0C83 [0x27] REQ_SET(priority=0x10, entity_id=Disjoined One (ID: 17720019/0x010E62D3), tag_num=0x0B)
430: 0x0C8A [0xD0] LOAD_SCHEDULED_TASK_ALT5: Load scheduler "s000" with entities [Disjoined One (ID: 17720019/0x010E62D3), LocalPlayer], work=[181*, 0*]
431: 0x0C9B [0x1C] WAIT(240* ticks)
432: 0x0C9E [0x52] END_LOAD_SCHEDULER: End scheduler "kem2" with entities [EventEntity, EventEntity], work=736*
433: 0x0CAD [0x45] LOAD_SCHEDULED_TASK: Load scheduler "kef1" with entities [EventEntity, EventEntity], work=[736*, 0*]
434: 0x0CBE [0x2B] Disjoined One (ID: 17720020/0x010E62D4) [16240*]:
    → "One by one, those I have trusted have fallen. None are left to prop me up when I begin to falter."
435: 0x0CC5 [0x1C] WAIT(90* ticks)
436: 0x0CC8 [0x23] WAIT_FOR_DIALOG_INTERACTION
437: 0x0CC9 [0x27] REQ_SET(priority=0x10, entity_id=Disjoined One (ID: 17720020/0x010E62D4), tag_num=0x0B)
438: 0x0CD0 [0xD0] LOAD_SCHEDULED_TASK_ALT5: Load scheduler "s000" with entities [Disjoined One (ID: 17720020/0x010E62D4), LocalPlayer], work=[181*, 0*]
439: 0x0CE1 [0x1C] WAIT(240* ticks)
440: 0x0CE4 [0x52] END_LOAD_SCHEDULER: End scheduler "kef1" with entities [EventEntity, EventEntity], work=736*
441: 0x0CF3 [0x45] LOAD_SCHEDULED_TASK: Load scheduler "kmt1" with entities [EventEntity, EventEntity], work=[736*, 0*]
442: 0x0D04 [0x2B] Disjoined One (ID: 17720023/0x010E62D7) [16241*]:
    → "Hahaha...none know who I rrreally am."
443: 0x0D0B [0x1C] WAIT(90* ticks)
444: 0x0D0E [0x23] WAIT_FOR_DIALOG_INTERACTION
445: 0x0D0F [0x52] END_LOAD_SCHEDULER: End scheduler "kmt1" with entities [EventEntity, EventEntity], work=736*
446: 0x0D1E [0x45] LOAD_SCHEDULED_TASK: Load scheduler "kmt2" with entities [EventEntity, EventEntity], work=[736*, 0*]
447: 0x0D2F [0x2B] Disjoined One (ID: 17720023/0x010E62D7) [16242*]:
    → "False prophets. False worlds. False adventurers... The truth is the pain I feel inside."
448: 0x0D36 [0x1C] WAIT(90* ticks)
449: 0x0D39 [0x23] WAIT_FOR_DIALOG_INTERACTION
450: 0x0D3A [0x27] REQ_SET(priority=0x10, entity_id=Disjoined One (ID: 17720023/0x010E62D7), tag_num=0x0B)
451: 0x0D41 [0xD0] LOAD_SCHEDULED_TASK_ALT5: Load scheduler "s000" with entities [Disjoined One (ID: 17720023/0x010E62D7), LocalPlayer], work=[181*, 0*]
452: 0x0D52 [0x1C] WAIT(240* ticks)
453: 0x0D55 [0x52] END_LOAD_SCHEDULER: End scheduler "kmt2" with entities [EventEntity, EventEntity], work=736*
454: 0x0D64 [0x45] LOAD_SCHEDULED_TASK: Load scheduler "kgl1" with entities [EventEntity, EventEntity], work=[736*, 0*]
455: 0x0D75 [0x2B] Disjoined One (ID: 17720024/0x010E62D8) [16243*]:
    → "Each combat has prepared me for the next...but in the end, it's all worthless. A new age is descending, and it threatens to leave me behind."
456: 0x0D7C [0x1C] WAIT(90* ticks)
457: 0x0D7F [0x23] WAIT_FOR_DIALOG_INTERACTION
458: 0x0D80 [0x27] REQ_SET(priority=0x10, entity_id=Disjoined One (ID: 17720024/0x010E62D8), tag_num=0x0B)
459: 0x0D87 [0xD0] LOAD_SCHEDULED_TASK_ALT5: Load scheduler "s000" with entities [Disjoined One (ID: 17720024/0x010E62D8), LocalPlayer], work=[181*, 0*]
460: 0x0D98 [0x1C] WAIT(240* ticks)
461: 0x0D9B [0x52] END_LOAD_SCHEDULER: End scheduler "kgl1" with entities [EventEntity, EventEntity], work=736*
462: 0x0DAA [0x45] LOAD_SCHEDULED_TASK: Load scheduler "ktm1" with entities [EventEntity, EventEntity], work=[736*, 0*]
463: 0x0DBB [0x2B] Disjoined One (ID: 17720021/0x010E62D5) [16244*]:
    → "Pandora's box-wox has been opened, overturned, and shaken until nothing remains inside."
464: 0x0DC2 [0x1C] WAIT(90* ticks)
465: 0x0DC5 [0x23] WAIT_FOR_DIALOG_INTERACTION
466: 0x0DC6 [0x27] REQ_SET(priority=0x10, entity_id=Disjoined One (ID: 17720021/0x010E62D5), tag_num=0x0B)
467: 0x0DCD [0xD0] LOAD_SCHEDULED_TASK_ALT5: Load scheduler "s000" with entities [Disjoined One (ID: 17720021/0x010E62D5), LocalPlayer], work=[181*, 0*]
468: 0x0DDE [0x1C] WAIT(240* ticks)
469: 0x0DE1 [0x52] END_LOAD_SCHEDULER: End scheduler "ktm1" with entities [EventEntity, EventEntity], work=736*
470: 0x0DF0 [0x45] LOAD_SCHEDULED_TASK: Load scheduler "ktf1" with entities [EventEntity, EventEntity], work=[736*, 0*]
471: 0x0E01 [0x2B] Disjoined One (ID: 17720022/0x010E62D6) [16245*]:
    → "Perhaps not even your precious-wecious "hope.""
472: 0x0E08 [0x1C] WAIT(90* ticks)
473: 0x0E0B [0x27] REQ_SET(priority=0x10, entity_id=Disjoined One (ID: 17720022/0x010E62D6), tag_num=0x0B)
474: 0x0E12 [0xD0] LOAD_SCHEDULED_TASK_ALT5: Load scheduler "s000" with entities [Disjoined One (ID: 17720022/0x010E62D6), LocalPlayer], work=[181*, 0*]
475: 0x0E23 [0x1C] WAIT(480* ticks)
476: 0x0E26 [0x52] END_LOAD_SCHEDULER: End scheduler "ktf1" with entities [EventEntity, EventEntity], work=736*
477: 0x0E35 [0x45] LOAD_SCHEDULED_TASK: Load scheduler "khm1" with entities [EventEntity, EventEntity], work=[736*, 0*]
478: 0x0E46 [0x2B] Disjoined One (ID: 17720017/0x010E62D1) [16246*]:
    → "Some claim that hope is what keeps humanity sane in these trying times...yet in reality it is a prison that shuts away the real world."
479: 0x0E4D [0x1C] WAIT(90* ticks)
480: 0x0E50 [0x23] WAIT_FOR_DIALOG_INTERACTION
481: 0x0E51 [0x52] END_LOAD_SCHEDULER: End scheduler "khm1" with entities [EventEntity, EventEntity], work=736*
482: 0x0E60 [0x45] LOAD_SCHEDULED_TASK: Load scheduler "khm2" with entities [EventEntity, EventEntity], work=[736*, 0*]
483: 0x0E71 [0xD0] LOAD_SCHEDULED_TASK_ALT5: Load scheduler "sekl" with entities [Disjoined One (ID: 17720017/0x010E62D1), Disjoined One (ID: 17720017/0x010E62D1)], work=[183*, 0*]
484: 0x0E82 [0xD0] LOAD_SCHEDULED_TASK_ALT5: Load scheduler "s001" with entities [Disjoined One (ID: 17720017/0x010E62D1), LocalPlayer], work=[181*, 0*]
485: 0x0E93 [0x1C] WAIT(260* ticks)
486: 0x0E96 [0x52] END_LOAD_SCHEDULER: End scheduler "khm2" with entities [EventEntity, EventEntity], work=736*
487: 0x0EA5 [0x45] LOAD_SCHEDULED_TASK: Load scheduler "khm3" with entities [EventEntity, EventEntity], work=[736*, 0*]
488: 0x0EB6 [0xD0] LOAD_SCHEDULED_TASK_ALT5: Load scheduler "s000" with entities [LocalPlayer, LocalPlayer], work=[180*, 0*]
489: 0x0EC7 [0x1C] WAIT(45* ticks)
490: 0x0ECA [0x1A] CALL_SUBROUTINE(address=0x2906)
491: 0x0ECD [0x1C] WAIT(15* ticks)
492: 0x0ED0 [0x81] SET_ENTITY_BLINKING(blink_flag=0x01, entity=LocalPlayer)
493: 0x0ED6 [0x27] REQ_SET(priority=0x10, entity_id=LocalPlayer, tag_num=0xB8)
494: 0x0EDD [0xD0] LOAD_SCHEDULED_TASK_ALT5: Load scheduler "pk00" with entities [Unnamed NPC (ID: 17720025/0x010E62D9), Unnamed NPC (ID: 17720025/0x010E62D9)], work=[102*, 0*]
495: 0x0EEE [0x6C] FADE_ENTITY_COLOR(entity_id=Disjoined One (ID: 17720017/0x010E62D1), end_alpha=127*, fade_time=1*)
496: 0x0EF7 [0xBA] SET_ENTITY_POSITION(entity_id=Disjoined One (ID: 17720017/0x010E62D1), pos_x=793.562*, pos_z=-1.044*, pos_y=19.903*, direction=186.8°*)
497: 0x0F04 [0x1C] WAIT(15* ticks)
498: 0x0F07 [0xD0] LOAD_SCHEDULED_TASK_ALT5: Load scheduler "k000" with entities [Disjoined One (ID: 17720017/0x010E62D1), Disjoined One (ID: 17720017/0x010E62D1)], work=[119*, 0*]
499: 0x0F18 [0x5F] MULTI_HANDLER_COMPLEX(mode=0x05 - Load ext scheduler with flag (OpCode 0x5B mode 0, flag 1), ref=3960*, entity1=Disjoined One (ID: 17720017/0x010E62D1), entity2=Disjoined One (ID: 17720017/0x010E62D1), string="fut0", extra=140*)
500: 0x0F2A [0x52] END_LOAD_SCHEDULER: End scheduler "khm3" with entities [EventEntity, EventEntity], work=736*
501: 0x0F39 [0x45] LOAD_SCHEDULED_TASK: Load scheduler "fl01" with entities [EventEntity, EventEntity], work=[736*, 0*]
502: 0x0F4A [0x1A] CALL_SUBROUTINE(address=0x27D4)
503: 0x0F4D [0x5F] MULTI_HANDLER_COMPLEX(mode=0x07 - Wait scheduler task (OpCode 0x53))
504: 0x0F5B [0xD0] LOAD_SCHEDULED_TASK_ALT5: Load scheduler "kof0" with entities [Disjoined One (ID: 17720017/0x010E62D1), Disjoined One (ID: 17720017/0x010E62D1)], work=[119*, 0*]
505: 0x0F6C [0x5C] MUSIC_CONTROL: Set music volume to song 0*, fade_time=240*
506: 0x0F72 [0x5C] MUSIC_CONTROL: Adjust music volume to song 0*, fade_time=480*
507: 0x0F78 [0x1C] WAIT(180* ticks)
508: 0x0F7B [0x1A] CALL_SUBROUTINE(address=0x27F5)
509: 0x0F7E [0x1C] WAIT(15* ticks)
510: 0x0F81 [0xD0] LOAD_SCHEDULED_TASK_ALT5: Load scheduler "lpkl" with entities [Unnamed NPC (ID: 17720025/0x010E62D9), Unnamed NPC (ID: 17720025/0x010E62D9)], work=[102*, 0*]
511: 0x0F92 [0x77] SET_EVENT_TIME_WEATHER(hour=6*, weather=19*)
512: 0x0F97 [0xBA] SET_ENTITY_POSITION(entity_id=LocalPlayer, pos_x=780.000*, pos_z=0.000*, pos_y=20.000*, direction=270.0°*)
513: 0x0FA4 [0xBA] SET_ENTITY_POSITION(entity_id=Disjoined One (ID: 17720017/0x010E62D1), pos_x=780.000*, pos_z=-5.700*, pos_y=19.000*, direction=270.0°*)
514: 0x0FB1 [0xBA] SET_ENTITY_POSITION(entity_id=EventEntity, pos_x=780.540*, pos_z=-8.500*, pos_y=16.300*, direction=0.0°*)
515: 0x0FBE [0x1C] WAIT(15* ticks)
516: 0x0FC1 [0x29] REQ_SET_WAIT(priority=0x10, entity_id=LocalPlayer, tag_num=0xB6)
517: 0x0FC8 [0xD5] LOAD_EVENT_SCHEDULER_ALT8: Load scheduler "kl" with entities [EventEntity, EventEntity], work=ExtData[1]->WorkLocal[1]
518: 0x0FD9 [0xD0] LOAD_SCHEDULED_TASK_ALT5: Load scheduler "main" with entities [LocalPlayer, LocalPlayer], work=[161*, 0*]
519: 0x0FEA [0xC5] LOAD_SCHEDULED_TASK_ALT3: Load scheduler 0x80013430 for entities [EventEntity, EventEntity], work=93*, param=12403
520: 0x0FFB [0x29] REQ_SET_WAIT(priority=0x10, entity_id=Disjoined One (ID: 17720017/0x010E62D1), tag_num=0x0A)
521: 0x1002 [0x6C] FADE_ENTITY_COLOR(entity_id=Disjoined One (ID: 17720017/0x010E62D1), end_alpha=0*, fade_time=1*)
522: 0x100B [0xD0] LOAD_SCHEDULED_TASK_ALT5: Load scheduler "s000" with entities [Disjoined One (ID: 17720017/0x010E62D1), Disjoined One (ID: 17720017/0x010E62D1)], work=[159*, 0*]
523: 0x101C [0x9F] LOAD_SCHEDULED_TASK_ALT: Load scheduler "str0" with entities [EventEntity, EventEntity], work=[61*, 0*]
524: 0x102D [0x48] [System] [16256*]:
    → "@@"
525: 0x1030 [0x23] WAIT_FOR_DIALOG_INTERACTION
526: 0x1031 [0x5C] MUSIC_CONTROL: Set Idle (Day) music to song 153*
527: 0x1035 [0x5C] MUSIC_CONTROL: Set Idle (Night) music to song 153*
528: 0x1039 [0x9A] WAIT_MUSIC_SERVER()
529: 0x103A [0x52] END_LOAD_SCHEDULER: End scheduler "fl01" with entities [EventEntity, EventEntity], work=736*
530: 0x1049 [0x45] LOAD_SCHEDULED_TASK: Load scheduler "li02" with entities [EventEntity, EventEntity], work=[736*, 0*]
531: 0x105A [0x1C] WAIT(30* ticks)
532: 0x105D [0x1A] CALL_SUBROUTINE(address=0x27D4)
533: 0x1060 [0x1C] WAIT(240* ticks)
534: 0x1063 [0x52] END_LOAD_SCHEDULER: End scheduler "li02" with entities [EventEntity, EventEntity], work=736*
535: 0x1072 [0x45] LOAD_SCHEDULED_TASK: Load scheduler "li01" with entities [EventEntity, EventEntity], work=[736*, 0*]
536: 0x1083 [0x1C] WAIT(60* ticks)
537: 0x1086 [0x2B] Disjoined One (ID: 17720017/0x010E62D1) [16247*]:
    → "No matter how deeply darkness has penetrated your soul..."
538: 0x108D [0x1C] WAIT(90* ticks)
539: 0x1090 [0x23] WAIT_FOR_DIALOG_INTERACTION
540: 0x1091 [0x2B] Disjoined One (ID: 17720017/0x010E62D1) [16248*]:
    → "...no matter how much you want to give up..."
541: 0x1098 [0x1C] WAIT(90* ticks)
542: 0x109B [0x23] WAIT_FOR_DIALOG_INTERACTION
543: 0x109C [0x52] END_LOAD_SCHEDULER: End scheduler "li01" with entities [EventEntity, EventEntity], work=736*
544: 0x10AB [0x45] LOAD_SCHEDULED_TASK: Load scheduler "li03" with entities [EventEntity, EventEntity], work=[736*, 0*]
545: 0x10BC [0x2B] Disjoined One (ID: 17720017/0x010E62D1) [16249*]:
    → "You must not. You cannot."
546: 0x10C3 [0x1C] WAIT(90* ticks)
547: 0x10C6 [0x23] WAIT_FOR_DIALOG_INTERACTION
548: 0x10C7 [0x2B] Disjoined One (ID: 17720017/0x010E62D1) [16250*]:
    → "Hope is something seized, not given."
549: 0x10CE [0x1C] WAIT(90* ticks)
550: 0x10D1 [0x23] WAIT_FOR_DIALOG_INTERACTION
551: 0x10D2 [0x1A] CALL_SUBROUTINE(address=0x27F5)
552: 0x10D5 [0x1C] WAIT(30* ticks)
553: 0x10D8 [0x4E] SET_ENTITY_HIDE_FLAG: Hide Unnamed NPC (ID: 17720025/0x010E62D9)
554: 0x10DE [0x6B] STOP_AND_IDLE: LocalPlayer stops current action and resets to idle (animation="idl0")
555: 0x10E7 [0xD0] LOAD_SCHEDULED_TASK_ALT5: Load scheduler "klal" with entities [LocalPlayer, LocalPlayer], work=[161*, 0*]
556: 0x10F8 [0xC5] LOAD_SCHEDULED_TASK_ALT3: Load scheduler 0x8001306C for entities [EventEntity, EventEntity], work=93*, param=26987
557: 0x1109 [0x59] UPDATE_ENTITY_DATA: LocalPlayer->Render.Flags0 &= ~0x200000
558: 0x1110 [0xBA] SET_ENTITY_POSITION(entity_id=LocalPlayer, pos_x=173.688*, pos_z=332.671*, pos_y=-88.784*, direction=178.3°*)
559: 0x111D [0xBA] SET_ENTITY_POSITION(entity_id=Iroha (ID: 17720006/0x010E62C6), pos_x=173.688*, pos_z=332.671*, pos_y=-88.784*, direction=0.0°*)
560: 0x112A [0xBA] SET_ENTITY_POSITION(entity_id=Unnamed NPC (ID: 17720016/0x010E62D0), pos_x=161.214*, pos_z=332.029*, pos_y=-87.601*, direction=173.1°*)
561: 0x1137 [0xD0] LOAD_SCHEDULED_TASK_ALT5: Load scheduler "kie0" with entities [Iroha (ID: 17720006/0x010E62C6), Iroha (ID: 17720006/0x010E62C6)], work=[104*, 0*]
562: 0x1148 [0x5B] LOAD_EXT_SCHEDULER: Load scheduler "mis0" with entities [Iroha (ID: 17720006/0x010E62C6), Iroha (ID: 17720006/0x010E62C6)], work=3866*
563: 0x1157 [0x92] LocalPlayer->Render.Flags3 ^= 0x01
564: 0x115D [0x6C] FADE_ENTITY_COLOR(entity_id=LocalPlayer, end_alpha=0*, fade_time=1*)
565: 0x1166 [0x48] [System] [16256*]:
    → "@@"
566: 0x1169 [0x23] WAIT_FOR_DIALOG_INTERACTION
567: 0x116A [0x2B] Disjoined One (ID: 17720017/0x010E62D1) [16251*]:
    → "Whether surrounded by friends or walking a hard road alone..."
568: 0x1171 [0x1C] WAIT(90* ticks)
569: 0x1174 [0x23] WAIT_FOR_DIALOG_INTERACTION
570: 0x1175 [0x2B] Disjoined One (ID: 17720017/0x010E62D1) [16252*]:
    → "There is unshaking value in seeing your path to its conclusion."
571: 0x117C [0x1C] WAIT(90* ticks)
572: 0x117F [0x23] WAIT_FOR_DIALOG_INTERACTION
573: 0x1180 [0x6A] CHANGE_SOUND_VOLUME: Set (System/Zone)* volume to 999*, fade_time=60*
574: 0x1187 [0x52] END_LOAD_SCHEDULER: End scheduler "li03" with entities [EventEntity, EventEntity], work=736*
575: 0x1196 [0x45] LOAD_SCHEDULED_TASK: Load scheduler "re10" with entities [EventEntity, EventEntity], work=[736*, 0*]
576: 0x11A7 [0x1A] CALL_SUBROUTINE(address=0x27D4)
577: 0x11AA [0x55] WAIT_LOAD_SCHEDULER: Wait for scheduler "re10" with entities [EventEntity, EventEntity], work=736*
578: 0x11B9 [0x45] LOAD_SCHEDULED_TASK: Load scheduler "re13" with entities [EventEntity, EventEntity], work=[736*, 0*]
579: 0x11CA [0x55] WAIT_LOAD_SCHEDULER: Wait for scheduler "re13" with entities [EventEntity, EventEntity], work=736*
580: 0x11D9 [0x45] LOAD_SCHEDULED_TASK: Load scheduler "re11" with entities [EventEntity, EventEntity], work=[736*, 0*]
581: 0x11EA [0xD0] LOAD_SCHEDULED_TASK_ALT5: Load scheduler "kie1" with entities [Iroha (ID: 17720006/0x010E62C6), Iroha (ID: 17720006/0x010E62C6)], work=[104*, 0*]
582: 0x11FB [0x55] WAIT_LOAD_SCHEDULER: Wait for scheduler "re11" with entities [EventEntity, EventEntity], work=736*
583: 0x120A [0x45] LOAD_SCHEDULED_TASK: Load scheduler "re12" with entities [EventEntity, EventEntity], work=[736*, 0*]
584: 0x121B [0x1C] WAIT(30* ticks)
585: 0x121E [0xBA] SET_ENTITY_POSITION(entity_id=Iroha (ID: 17720006/0x010E62C6), pos_x=161.214*, pos_z=332.029*, pos_y=-87.601*, direction=173.1°*)
586: 0x122B [0xD0] LOAD_SCHEDULED_TASK_ALT5: Load scheduler "kie0" with entities [Iroha (ID: 17720006/0x010E62C6), Iroha (ID: 17720006/0x010E62C6)], work=[104*, 0*]
587: 0x123C [0x92] LocalPlayer->Render.Flags3 = Flags3  // No change (flag=0)
588: 0x1242 [0x6C] FADE_ENTITY_COLOR(entity_id=LocalPlayer, end_alpha=127*, fade_time=1*)
589: 0x124B [0x1C] WAIT(150* ticks)
590: 0x124E [0x52] END_LOAD_SCHEDULER: End scheduler "re12" with entities [EventEntity, EventEntity], work=736*
591: 0x125D [0x45] LOAD_SCHEDULED_TASK: Load scheduler "re02" with entities [EventEntity, EventEntity], work=[736*, 0*]
592: 0x126E [0x2B] Disjoined One (ID: 17720017/0x010E62D1) [16253*]:
    → "You are the culmination of all your experiences."
593: 0x1275 [0x1C] WAIT(180* ticks)
594: 0x1278 [0x2B] Disjoined One (ID: 17720017/0x010E62D1) [16254*]:
    → "Even those who are gone still depend on you."
595: 0x127F [0x1C] WAIT(180* ticks)
596: 0x1282 [0x52] END_LOAD_SCHEDULER: End scheduler "re02" with entities [EventEntity, EventEntity], work=736*
597: 0x1291 [0x45] LOAD_SCHEDULED_TASK: Load scheduler "re03" with entities [EventEntity, EventEntity], work=[736*, 0*]
598: 0x12A2 [0xD0] LOAD_SCHEDULED_TASK_ALT5: Load scheduler "kie1" with entities [Iroha (ID: 17720006/0x010E62C6), Iroha (ID: 17720006/0x010E62C6)], work=[104*, 0*]
599: 0x12B3 [0x5B] LOAD_EXT_SCHEDULER: Load scheduler "mis1" with entities [Iroha (ID: 17720006/0x010E62C6), Iroha (ID: 17720006/0x010E62C6)], work=3866*
600: 0x12C2 [0x1C] WAIT(120* ticks)
601: 0x12C5 [0x27] REQ_SET(priority=0x10, entity_id=LocalPlayer, tag_num=0xB4)
602: 0x12CC [0x1C] WAIT(120* ticks)
603: 0x12CF [0x52] END_LOAD_SCHEDULER: End scheduler "re03" with entities [EventEntity, EventEntity], work=736*
604: 0x12DE [0x45] LOAD_SCHEDULED_TASK: Load scheduler "re05" with entities [EventEntity, EventEntity], work=[736*, 0*]
605: 0x12EF [0x5C] MUSIC_CONTROL: Set music volume to song 0*, fade_time=240*
606: 0x12F5 [0x5C] MUSIC_CONTROL: Adjust music volume to song 0*, fade_time=480*
607: 0x12FB [0x1C] WAIT(120* ticks)
608: 0x12FE [0x62] LOAD_EVENT_SCHEDULER: Load scheduler "main" with entities [Unnamed NPC (ID: 17720016/0x010E62D0), Unnamed NPC (ID: 17720016/0x010E62D0)], work=[3*, 0*]
609: 0x130F [0x1C] WAIT(60* ticks)
610: 0x1312 [0x27] REQ_SET(priority=0x10, entity_id=LocalPlayer, tag_num=0xB5)
611: 0x1319 [0x52] END_LOAD_SCHEDULER: End scheduler "re05" with entities [EventEntity, EventEntity], work=736*
612: 0x1328 [0x45] LOAD_SCHEDULED_TASK: Load scheduler "re04" with entities [EventEntity, EventEntity], work=[736*, 0*]
613: 0x1339 [0x1C] WAIT(360* ticks)
614: 0x133C [0x1A] CALL_SUBROUTINE(address=0x27F5)
615: 0x133F [0x1C] WAIT(60* ticks)
616: 0x1342 [0x52] END_LOAD_SCHEDULER: End scheduler "re04" with entities [EventEntity, EventEntity], work=736*
617: 0x1351 [0x45] LOAD_SCHEDULED_TASK: Load scheduler "0blf" with entities [EventEntity, EventEntity], work=[736*, 0*]
618: 0x1362 [0x9F] LOAD_SCHEDULED_TASK_ALT: Load scheduler "kill" with entities [EventEntity, EventEntity], work=[61*, 0*]
619: 0x1373 [0x1A] CALL_SUBROUTINE(address=0x27B3)
620: 0x1376 [0x1A] CALL_SUBROUTINE(address=0x27D4)
621: 0x1379 [0x1C] WAIT(60* ticks)
622: 0x137C [0x67] HIDE_HUD_ELEMENTS(param1=0x80A9, param2=0x80A9)
623: 0x1381 [0x48] [System] [16255*]:
    → "<Player>, this rhapsody is yours to sing."
624: 0x1384 [0x1C] WAIT(270* ticks)
625: 0x1387 [0x68] SHOW_HUD_ELEMENTS()
626: 0x1388 [0x35] LOAD_ZONE_NO_CLOSE(zone_id=230*)
627: 0x138B [0x78] ENABLE_GAME_TIMER_RESET_WEATHER()
628: 0x138C [0x1C] WAIT(1* ticks)
629: 0x138F [0x5C] MUSIC_CONTROL: Set Idle (Day) music to song 107*
630: 0x1393 [0x5C] MUSIC_CONTROL: Set Idle (Night) music to song 107*
631: 0x1397 [0x9A] WAIT_MUSIC_SERVER()
632: 0x1398 [0x46] CAMERA_CONTROL: Restore default settings
633: 0x139A [0x45] LOAD_SCHEDULED_TASK: Load scheduler "fdi2" with entities [EventEntity, EventEntity], work=[200*, 0*]
634: 0x13AB [0x21] END_EVENT
635: 0x13AC [0x00] END_REQSTACK()
```

### Event 30043

#### Metadata

| Field        | Value      |
|--------------|------------|
| Entrypoint   | 0x13AD     |
| Data Size    | 5684 bytes |
| Instructions | 648        |

```
      00 01 02 03 04 05 06 07  08 09 0A 0B 0C 0D 0E 0F
      -- -- -- -- -- -- -- --  -- -- -- -- -- -- -- --
13A0:                                         42 03 01               B..
13B0: 00 02 10 03 04 00 03 10  03 03 00 04 10 5D 01 80  .............]..
13C0: 02 80 1A B3 27 46 01 38  03 80 34 04 80 77 01 80  ....'F.8..4..w..
13D0: 05 80 1C 00 80 6A 01 80  06 80 07 80 4E 00 F0 FF  .....j......N...
13E0: FF 7F 2F 00 C6 62 0E 01  4E 00 C6 62 0E 01 4E 00  ../..b..N..b..N.
13F0: F8 FF FF 7F 4E 00 D0 62  0E 01 27 10 D1 62 0E 01  ....N..b..'..b..
1400: 02 27 10 D2 62 0E 01 02  27 10 D3 62 0E 01 02 27  .'..b...'..b...'
1410: 10 D4 62 0E 01 02 27 10  D5 62 0E 01 02 27 10 D6  ..b...'..b...'..
1420: 62 0E 01 02 27 10 D7 62  0E 01 02 27 10 D8 62 0E  b...'..b...'..b.
1430: 01 02 27 10 D9 62 0E 01  04 27 10 DA 62 0E 01 04  ..'..b...'..b...
1440: 92 01 F0 FF FF 7F 92 01  C6 62 0E 01 92 01 D1 62  .........b.....b
1450: 0E 01 92 01 D2 62 0E 01  92 01 D3 62 0E 01 92 01  .....b.....b....
1460: D4 62 0E 01 92 01 D5 62  0E 01 92 01 D6 62 0E 01  .b.....b.....b..
1470: 92 01 D7 62 0E 01 92 01  D8 62 0E 01 92 01 D9 62  ...b.....b.....b
1480: 0E 01 92 01 DA 62 0E 01  94 01 F0 FF FF 7F 94 01  .....b..........
1490: C6 62 0E 01 94 01 D1 62  0E 01 94 01 D2 62 0E 01  .b.....b.....b..
14A0: 94 01 D3 62 0E 01 94 01  D4 62 0E 01 94 01 D5 62  ...b.....b.....b
14B0: 0E 01 94 01 D6 62 0E 01  94 01 D7 62 0E 01 94 01  .....b.....b....
14C0: D8 62 0E 01 94 01 D9 62  0E 01 94 01 DA 62 0E 01  .b.....b.....b..
14D0: 94 01 F8 FF FF 7F 59 05  F0 FF FF 7F 01 59 05 C6  ......Y......Y..
14E0: 62 0E 01 01 59 05 D1 62  0E 01 01 59 05 D2 62 0E  b...Y..b...Y..b.
14F0: 01 01 59 05 D3 62 0E 01  01 59 05 D4 62 0E 01 01  ..Y..b...Y..b...
1500: 59 05 D5 62 0E 01 01 59  05 D6 62 0E 01 01 59 05  Y..b...Y..b...Y.
1510: D7 62 0E 01 01 59 05 D8  62 0E 01 01 59 05 D9 62  .b...Y..b...Y..b
1520: 0E 01 01 59 05 DA 62 0E  01 01 BA F0 FF FF 7F 08  ...Y..b.........
1530: 80 01 80 09 80 01 80 BA  C6 62 0E 01 08 80 01 80  .........b......
1540: 09 80 01 80 BA F8 FF FF  7F 08 80 01 80 09 80 01  ................
1550: 80 BA D1 62 0E 01 0A 80  0B 80 09 80 0C 80 BA D2  ...b............
1560: 62 0E 01 0D 80 0E 80 09  80 01 80 BA D3 62 0E 01  b............b..
1570: 0F 80 10 80 09 80 01 80  BA D4 62 0E 01 11 80 12  ..........b.....
1580: 80 09 80 01 80 BA D5 62  0E 01 13 80 14 80 09 80  .......b........
1590: 01 80 BA D6 62 0E 01 15  80 16 80 09 80 01 80 BA  ....b...........
15A0: D7 62 0E 01 17 80 18 80  09 80 01 80 BA D8 62 0E  .b............b.
15B0: 01 19 80 1A 80 09 80 01  80 BA D9 62 0E 01 1B 80  ...........b....
15C0: 1C 80 09 80 01 80 6C F0  FF FF 7F 01 80 00 80 6C  ......l........l
15D0: C6 62 0E 01 01 80 00 80  29 10 D9 62 0E 01 0B 29  .b......)..b...)
15E0: 10 DA 62 0E 01 0B 80 F0  FF FF 7F 80 C6 62 0E 01  ..b..........b..
15F0: 80 F8 FF FF 7F 80 D9 62  0E 01 80 DA 62 0E 01 80  .......b....b...
1600: D1 62 0E 01 80 D2 62 0E  01 80 D3 62 0E 01 80 D4  .b....b....b....
1610: 62 0E 01 80 D5 62 0E 01  80 D6 62 0E 01 80 D7 62  b....b....b....b
1620: 0E 01 80 D8 62 0E 01 4A  D1 62 0E 01 F0 FF FF 7F  ....b..J.b......
1630: 4A D2 62 0E 01 F0 FF FF  7F 4A D3 62 0E 01 F0 FF  J.b......J.b....
1640: FF 7F 4A D4 62 0E 01 F0  FF FF 7F 4A D5 62 0E 01  ..J.b......J.b..
1650: F0 FF FF 7F 4A D6 62 0E  01 F0 FF FF 7F 4A D7 62  ....J.b......J.b
1660: 0E 01 F0 FF FF 7F 4A D8  62 0E 01 F0 FF FF 7F 6F  ......J.b......o
1670: 76 D8 62 0E 01 1C 1D 80  7B D1 62 0E 01 7B D2 62  v.b.....{.b..{.b
1680: 0E 01 7B D3 62 0E 01 7B  D4 62 0E 01 7B D5 62 0E  ..{.b..{.b..{.b.
1690: 01 7B D6 62 0E 01 7B D7  62 0E 01 7B D8 62 0E 01  .{.b..{.b..{.b..
16A0: 5F 04 1E 80 D2 62 0E 01  D2 62 0E 01 66 79 75 30  _....b...b..fyu0
16B0: 5F 04 1F 80 D3 62 0E 01  D3 62 0E 01 66 79 75 30  _....b...b..fyu0
16C0: 5F 04 20 80 D4 62 0E 01  D4 62 0E 01 66 79 75 30  _. ..b...b..fyu0
16D0: 5F 04 21 80 D5 62 0E 01  D5 62 0E 01 66 79 75 30  _.!..b...b..fyu0
16E0: 5F 04 21 80 D6 62 0E 01  D6 62 0E 01 66 79 75 30  _.!..b...b..fyu0
16F0: 5F 04 22 80 D7 62 0E 01  D7 62 0E 01 66 79 75 30  _."..b...b..fyu0
1700: 5F 04 23 80 D8 62 0E 01  D8 62 0E 01 66 79 75 30  _.#..b...b..fyu0
1710: CD 24 80 F8 FF FF 7F F8  FF FF 7F 73 30 30 30 01  .$.........s000.
1720: 80 5C 00 25 80 5C 01 25  80 9A 1C 26 80 45 27 80  .\.%.\.%...&.E'.
1730: F8 FF FF 7F F8 FF FF 7F  30 62 6C 6F 01 80 45 27  ........0blo..E'
1740: 80 F8 FF FF 7F F8 FF FF  7F 79 6D 30 31 01 80 1A  .........ym01...
1750: 92 27 2B D9 62 0E 01 28  80 1C 29 80 23 52 27 80  .'+.b..(..).#R'.
1760: F8 FF FF 7F F8 FF FF 7F  79 6D 30 31 45 27 80 F8  ........ym01E'..
1770: FF FF 7F F8 FF FF 7F 79  6D 30 32 01 80 2B D9 62  .......ym02..+.b
1780: 0E 01 2A 80 1C 29 80 23  52 27 80 F8 FF FF 7F F8  ..*..).#R'......
1790: FF FF 7F 79 6D 30 32 45  27 80 F8 FF FF 7F F8 FF  ...ym02E'.......
17A0: FF 7F 79 6D 30 33 01 80  2B D9 62 0E 01 2B 80 1C  ..ym03..+.b..+..
17B0: 29 80 23 1A B3 27 29 10  D9 62 0E 01 0C 29 10 DA  ).#..')..b...)..
17C0: 62 0E 01 0B 80 D9 62 0E  01 80 DA 62 0E 01 BA D9  b.....b....b....
17D0: 62 0E 01 2C 80 2D 80 09  80 2E 80 BA DA 62 0E 01  b..,.-.......b..
17E0: 2F 80 30 80 09 80 01 80  1C 1D 80 52 27 80 F8 FF  /.0........R'...
17F0: FF 7F F8 FF FF 7F 79 6D  30 33 45 27 80 F8 FF FF  ......ym03E'....
1800: 7F F8 FF FF 7F 7A 6C 30  31 01 80 1A 92 27 2B DA  .....zl01....'+.
1810: 62 0E 01 31 80 1C 29 80  23 2B DA 62 0E 01 32 80  b..1..).#+.b..2.
1820: 1C 29 80 23 52 27 80 F8  FF FF 7F F8 FF FF 7F 7A  .).#R'.........z
1830: 6C 30 31 45 27 80 F8 FF  FF 7F F8 FF FF 7F 7A 6C  l01E'.........zl
1840: 30 32 01 80 2B D9 62 0E  01 33 80 1C 29 80 23 2B  02..+.b..3..).#+
1850: D9 62 0E 01 34 80 1C 29  80 23 52 27 80 F8 FF FF  .b..4..).#R'....
1860: 7F F8 FF FF 7F 7A 6C 30  32 45 27 80 F8 FF FF 7F  .....zl02E'.....
1870: F8 FF FF 7F 7A 6C 30 33  01 80 2B D9 62 0E 01 35  ....zl03..+.b..5
1880: 80 1C 29 80 23 52 27 80  F8 FF FF 7F F8 FF FF 7F  ..).#R'.........
1890: 7A 6C 30 33 45 27 80 F8  FF FF 7F F8 FF FF 7F 7A  zl03E'.........z
18A0: 6C 30 34 01 80 2B D9 62  0E 01 36 80 1C 29 80 23  l04..+.b..6..).#
18B0: 52 27 80 F8 FF FF 7F F8  FF FF 7F 7A 6C 30 34 45  R'.........zl04E
18C0: 27 80 F8 FF FF 7F F8 FF  FF 7F 7A 6C 30 35 01 80  '.........zl05..
18D0: 2B DA 62 0E 01 37 80 1C  29 80 23 52 27 80 F8 FF  +.b..7..).#R'...
18E0: FF 7F F8 FF FF 7F 7A 6C  30 35 45 27 80 F8 FF FF  ......zl05E'....
18F0: 7F F8 FF FF 7F 7A 6C 30  36 01 80 2B DA 62 0E 01  .....zl06..+.b..
1900: 38 80 1C 29 80 23 1A B3  27 29 10 D9 62 0E 01 0D  8..).#..')..b...
1910: 29 10 DA 62 0E 01 0C 80  D9 62 0E 01 80 DA 62 0E  )..b.....b....b.
1920: 01 BA D9 62 0E 01 39 80  3A 80 09 80 01 80 BA DA  ...b..9.:.......
1930: 62 0E 01 3B 80 3C 80 09  80 01 80 1C 1D 80 52 27  b..;.<........R'
1940: 80 F8 FF FF 7F F8 FF FF  7F 7A 6C 30 36 45 27 80  .........zl06E'.
1950: F8 FF FF 7F F8 FF FF 7F  70 72 30 31 01 80 1A 92  ........pr01....
1960: 27 2B D9 62 0E 01 3D 80  1C 29 80 23 2B D9 62 0E  '+.b..=..).#+.b.
1970: 01 3E 80 1C 29 80 23 52  27 80 F8 FF FF 7F F8 FF  .>..).#R'.......
1980: FF 7F 70 72 30 31 45 27  80 F8 FF FF 7F F8 FF FF  ..pr01E'........
1990: 7F 70 72 30 32 01 80 2B  D9 62 0E 01 3F 80 1C 29  .pr02..+.b..?..)
19A0: 80 23 2B D9 62 0E 01 40  80 1C 29 80 23 52 27 80  .#+.b..@..).#R'.
19B0: F8 FF FF 7F F8 FF FF 7F  70 72 30 32 45 27 80 F8  ........pr02E'..
19C0: FF FF 7F F8 FF FF 7F 70  72 30 33 01 80 2B D9 62  .......pr03..+.b
19D0: 0E 01 41 80 1C 29 80 23  2B D9 62 0E 01 42 80 1C  ..A..).#+.b..B..
19E0: 29 80 23 1A B3 27 29 10  D9 62 0E 01 0E 80 D9 62  ).#..')..b.....b
19F0: 0E 01 BA D9 62 0E 01 43  80 44 80 09 80 01 80 5F  ....b..C.D....._
1A00: 03 45 80 DA 62 0E 01 DA  62 0E 01 73 74 62 6C 1C  .E..b...b..stbl.
1A10: 1D 80 52 27 80 F8 FF FF  7F F8 FF FF 7F 70 72 30  ..R'.........pr0
1A20: 33 45 27 80 F8 FF FF 7F  F8 FF FF 7F 61 74 30 31  3E'.........at01
1A30: 01 80 1A 92 27 2B DA 62  0E 01 46 80 1C 29 80 23  ....'+.b..F..).#
1A40: 2B DA 62 0E 01 47 80 1C  29 80 23 52 27 80 F8 FF  +.b..G..).#R'...
1A50: FF 7F F8 FF FF 7F 61 74  30 31 45 27 80 F8 FF FF  ......at01E'....
1A60: 7F F8 FF FF 7F 61 74 30  32 01 80 2B DA 62 0E 01  .....at02..+.b..
1A70: 48 80 1C 29 80 23 2B DA  62 0E 01 49 80 1C 29 80  H..).#+.b..I..).
1A80: 23 52 27 80 F8 FF FF 7F  F8 FF FF 7F 61 74 30 32  #R'.........at02
1A90: 45 27 80 F8 FF FF 7F F8  FF FF 7F 61 74 30 33 01  E'.........at03.
1AA0: 80 2B DA 62 0E 01 4A 80  1C 29 80 23 1A B3 27 02  .+.b..J..).#..'.
1AB0: 04 00 01 80 00 C0 1A 4E  01 DA 62 0E 01 01 D9 1A  .......N..b.....
1AC0: 29 10 DA 62 0E 01 0D 80  DA 62 0E 01 BA DA 62 0E  )..b.....b....b.
1AD0: 01 4B 80 4C 80 09 80 01  80 1C 1D 80 52 27 80 F8  .K.L........R'..
1AE0: FF FF 7F F8 FF FF 7F 61  74 30 33 45 27 80 F8 FF  .......at03E'...
1AF0: FF 7F F8 FF FF 7F 77 67  30 31 01 80 1A 92 27 2B  ......wg01....'+
1B00: D9 62 0E 01 4D 80 1C 29  80 23 2B D9 62 0E 01 4E  .b..M..).#+.b..N
1B10: 80 1C 29 80 23 52 27 80  F8 FF FF 7F F8 FF FF 7F  ..).#R'.........
1B20: 77 67 30 31 45 27 80 F8  FF FF 7F F8 FF FF 7F 77  wg01E'.........w
1B30: 67 30 32 01 80 03 04 10  03 00 2B D9 62 0E 01 4F  g02.......+.b..O
1B40: 80 1C 29 80 23 52 27 80  F8 FF FF 7F F8 FF FF 7F  ..).#R'.........
1B50: 77 67 30 32 45 27 80 F8  FF FF 7F F8 FF FF 7F 77  wg02E'.........w
1B60: 67 30 33 01 80 2B D9 62  0E 01 50 80 1C 29 80 23  g03..+.b..P..).#
1B70: 2B D9 62 0E 01 51 80 1C  29 80 23 52 27 80 F8 FF  +.b..Q..).#R'...
1B80: FF 7F F8 FF FF 7F 77 67  30 33 45 27 80 F8 FF FF  ......wg03E'....
1B90: 7F F8 FF FF 7F 77 67 30  34 01 80 2B D9 62 0E 01  .....wg04..+.b..
1BA0: 52 80 1C 29 80 23 1A B3  27 6C D9 62 0E 01 01 80  R..).#..'l.b....
1BB0: 00 80 BA D9 62 0E 01 53  80 54 80 09 80 01 80 1C  ....b..S.T......
1BC0: 1D 80 02 04 00 01 80 00  CD 1B 01 9B 1C 52 27 80  .............R'.
1BD0: F8 FF FF 7F F8 FF FF 7F  77 67 30 34 45 27 80 F8  ........wg04E'..
1BE0: FF FF 7F F8 FF FF 7F 61  64 30 31 01 80 1A 92 27  .......ad01....'
1BF0: 2B DA 62 0E 01 55 80 1C  29 80 23 52 27 80 F8 FF  +.b..U..).#R'...
1C00: FF 7F F8 FF FF 7F 61 64  30 31 45 27 80 F8 FF FF  ......ad01E'....
1C10: 7F F8 FF FF 7F 61 64 30  32 01 80 2B DA 62 0E 01  .....ad02..+.b..
1C20: 56 80 1C 29 80 23 2B DA  62 0E 01 57 80 1C 29 80  V..).#+.b..W..).
