# 0x7FFFFFF0 - Zone Events

## Common Data

| Field            | Value                         |
|------------------|-------------------------------|
| Zone             | Southern San d'Oria (ID: 230) |
| Block Size       | 61528 bytes                   |
| Total Events     | 186                           |
| References Count | 1410                          |

## List of Events

| Event ID                     | Entrypoint   |   Size |   Instructions |
|------------------------------|--------------|--------|----------------|
| [65535](#event-65535)        | 0x0000       |      1 |              1 |
| [65535.1](#event-655351)     | 0x0001       |     10 |              2 |
| [23](#event-23)              | 0x000B       |   2588 |            359 |
| [22](#event-22)              | 0x0A27       |    644 |             90 |
| [33](#event-33)              | 0x0CAB       |   1173 |            165 |
| [80](#event-80)              | 0x1140       |    753 |            104 |
| [87](#event-87)              | 0x1431       |    816 |            109 |
| [78](#event-78)              | 0x1761       |   1721 |            238 |
| [38](#event-38)              | 0x1E1A       |   1595 |            203 |
| [21](#event-21)              | 0x2455       |   1705 |            233 |
| [14](#event-14)              | 0x2AFE       |   1545 |            215 |
| [8](#event-8)                | 0x3107       |    529 |             72 |
| [9](#event-9)                | 0x3318       |    346 |             44 |
| [13](#event-13)              | 0x3472       |    834 |            119 |
| [0](#event-0)                | 0x37B4       |      4 |              2 |
| [65535.2](#event-655352)     | 0x37B8       |     10 |              2 |
| [65535.3](#event-655353)     | 0x37C2       |     24 |              6 |
| [65535.4](#event-655354)     | 0x37DA       |     23 |              5 |
| [503](#event-503)            | 0x37F1       |   4211 |            603 |
| [65535.5](#event-655355)     | 0x4864       |      6 |              2 |
| [65535.6](#event-655356)     | 0x486A       |      7 |              3 |
| [65535.7](#event-655357)     | 0x4871       |     28 |              4 |
| [65535.8](#event-655358)     | 0x488D       |     10 |              2 |
| [65535.9](#event-655359)     | 0x4897       |     10 |              2 |
| [65535.10](#event-6553510)   | 0x48A1       |     10 |              2 |
| [65535.11](#event-6553511)   | 0x48AB       |     10 |              2 |
| [65535.12](#event-6553512)   | 0x48B5       |     55 |              9 |
| [65535.13](#event-6553513)   | 0x48EC       |     14 |              4 |
| [65535.14](#event-6553514)   | 0x48FA       |     55 |              9 |
| [65535.15](#event-6553515)   | 0x4931       |     14 |              4 |
| [65535.16](#event-6553516)   | 0x493F       |     55 |              9 |
| [65535.17](#event-6553517)   | 0x4976       |     14 |              4 |
| [65535.18](#event-6553518)   | 0x4984       |     97 |             13 |
| [65535.19](#event-6553519)   | 0x49E5       |     10 |              2 |
| [65535.20](#event-6553520)   | 0x49EF       |     10 |              2 |
| [65535.21](#event-6553521)   | 0x49F9       |     10 |              2 |
| [65535.22](#event-6553522)   | 0x4A03       |      6 |              2 |
| [65535.23](#event-6553523)   | 0x4A09       |      6 |              2 |
| [65535.24](#event-6553524)   | 0x4A0F       |     10 |              2 |
| [65535.25](#event-6553525)   | 0x4A19       |      6 |              2 |
| [65535.26](#event-6553526)   | 0x4A1F       |      6 |              2 |
| [65535.27](#event-6553527)   | 0x4A25       |     10 |              2 |
| [65535.28](#event-6553528)   | 0x4A2F       |     14 |              4 |
| [65535.29](#event-6553529)   | 0x4A3D       |     14 |              4 |
| [65535.30](#event-6553530)   | 0x4A4B       |     10 |              2 |
| [65534](#event-65534)        | 0x4A55       |      1 |              1 |
| [663](#event-663)            | 0x4A56       |    390 |             60 |
| [665](#event-665)            | 0x4BDC       |    585 |             76 |
| [65535.31](#event-6553531)   | 0x4E25       |     21 |              3 |
| [70](#event-70)              | 0x4E3A       |    413 |             66 |
| [75](#event-75)              | 0x4FD7       |   1463 |            220 |
| [64](#event-64)              | 0x558E       |    496 |             81 |
| [50](#event-50)              | 0x577E       |    351 |             48 |
| [77](#event-77)              | 0x58DD       |    651 |             88 |
| [6](#event-6)                | 0x5B68       |    263 |             33 |
| [65535.32](#event-6553532)   | 0x5C6F       |      6 |              2 |
| [65535.33](#event-6553533)   | 0x5C75       |      6 |              2 |
| [65535.34](#event-6553534)   | 0x5C7B       |      6 |              2 |
| [65535.35](#event-6553535)   | 0x5C81       |      6 |              2 |
| [65535.36](#event-6553536)   | 0x5C87       |      6 |              2 |
| [65535.37](#event-6553537)   | 0x5C8D       |     10 |              2 |
| [65535.38](#event-6553538)   | 0x5C97       |     10 |              2 |
| [65535.39](#event-6553539)   | 0x5CA1       |     10 |              2 |
| [65535.40](#event-6553540)   | 0x5CAB       |     10 |              2 |
| [63](#event-63)              | 0x5CB5       |    866 |            116 |
| [65535.41](#event-6553541)   | 0x6017       |     10 |              2 |
| [65535.42](#event-6553542)   | 0x6021       |     10 |              2 |
| [65535.43](#event-6553543)   | 0x602B       |     10 |              2 |
| [65535.44](#event-6553544)   | 0x6035       |     10 |              2 |
| [65535.45](#event-6553545)   | 0x603F       |     10 |              2 |
| [65535.46](#event-6553546)   | 0x6049       |     10 |              2 |
| [65535.47](#event-6553547)   | 0x6053       |     10 |              2 |
| [65535.48](#event-6553548)   | 0x605D       |     10 |              2 |
| [65535.49](#event-6553549)   | 0x6067       |     10 |              2 |
| [65535.50](#event-6553550)   | 0x6071       |     10 |              2 |
| [65535.51](#event-6553551)   | 0x607B       |     10 |              2 |
| [65535.52](#event-6553552)   | 0x6085       |     10 |              2 |
| [65535.53](#event-6553553)   | 0x608F       |     10 |              2 |
| [65535.54](#event-6553554)   | 0x6099       |     10 |              2 |
| [65535.55](#event-6553555)   | 0x60A3       |     10 |              2 |
| [65535.56](#event-6553556)   | 0x60AD       |     10 |              2 |
| [65535.57](#event-6553557)   | 0x60B7       |     10 |              2 |
| [65535.58](#event-6553558)   | 0x60C1       |     10 |              2 |
| [65535.59](#event-6553559)   | 0x60CB       |     10 |              2 |
| [65535.60](#event-6553560)   | 0x60D5       |     10 |              2 |
| [65535.61](#event-6553561)   | 0x60DF       |     10 |              2 |
| [65535.62](#event-6553562)   | 0x60E9       |     10 |              2 |
| [65535.63](#event-6553563)   | 0x60F3       |     12 |              3 |
| [65535.64](#event-6553564)   | 0x60FF       |     10 |              2 |
| [724](#event-724)            | 0x6109       |    238 |             30 |
| [725](#event-725)            | 0x61F7       |    409 |             51 |
| [747](#event-747)            | 0x6390       |    840 |            102 |
| [748](#event-748)            | 0x66D8       |    481 |             52 |
| [65535.65](#event-6553565)   | 0x68B9       |     10 |              2 |
| [65535.66](#event-6553566)   | 0x68C3       |     10 |              2 |
| [65535.67](#event-6553567)   | 0x68CD       |     15 |              5 |
| [65535.68](#event-6553568)   | 0x68DC       |     15 |              5 |
| [65535.69](#event-6553569)   | 0x68EB       |     10 |              2 |
| [65535.70](#event-6553570)   | 0x68F5       |     20 |              3 |
| [780](#event-780)            | 0x6909       |  19839 |           3401 |
| [65535.71](#event-6553571)   | 0xB688       |     37 |              5 |
| [65535.72](#event-6553572)   | 0xB6AD       |     37 |              5 |
| [820](#event-820)            | 0xB6D2       |    751 |             89 |
| [821](#event-821)            | 0xB9C1       |   3304 |            398 |
| [888](#event-888)            | 0xC6A9       |   1646 |            190 |
| [65535.73](#event-6553573)   | 0xCD17       |     15 |              3 |
| [65535.74](#event-6553574)   | 0xCD26       |     15 |              3 |
| [65535.75](#event-6553575)   | 0xCD35       |     19 |              5 |
| [65535.76](#event-6553576)   | 0xCD48       |     15 |              3 |
| [65535.77](#event-6553577)   | 0xCD57       |     19 |              5 |
| [65535.78](#event-6553578)   | 0xCD6A       |     15 |              3 |
| [65535.79](#event-6553579)   | 0xCD79       |     19 |              5 |
| [65535.80](#event-6553580)   | 0xCD8C       |     15 |              3 |
| [65535.81](#event-6553581)   | 0xCD9B       |     19 |              5 |
| [65535.82](#event-6553582)   | 0xCDAE       |     15 |              3 |
| [65535.83](#event-6553583)   | 0xCDBD       |     19 |              5 |
| [65535.84](#event-6553584)   | 0xCDD0       |     15 |              3 |
| [65535.85](#event-6553585)   | 0xCDDF       |     19 |              5 |
| [65535.86](#event-6553586)   | 0xCDF2       |     15 |              3 |
| [65535.87](#event-6553587)   | 0xCE01       |     15 |              3 |
| [65535.88](#event-6553588)   | 0xCE10       |     20 |              4 |
| [65535.89](#event-6553589)   | 0xCE24       |     19 |              5 |
| [65535.90](#event-6553590)   | 0xCE37       |     15 |              3 |
| [65535.91](#event-6553591)   | 0xCE46       |     29 |              7 |
| [65535.92](#event-6553592)   | 0xCE63       |     14 |              4 |
| [65535.93](#event-6553593)   | 0xCE71       |     14 |              4 |
| [65535.94](#event-6553594)   | 0xCE7F       |     19 |              5 |
| [65535.95](#event-6553595)   | 0xCE92       |     27 |              7 |
| [65535.96](#event-6553596)   | 0xCEAD       |     14 |              4 |
| [65535.97](#event-6553597)   | 0xCEBB       |     19 |              5 |
| [65535.98](#event-6553598)   | 0xCECE       |     27 |              7 |
| [65535.99](#event-6553599)   | 0xCEE9       |     14 |              4 |
| [65535.100](#event-65535100) | 0xCEF7       |     10 |              2 |
| [65535.101](#event-65535101) | 0xCF01       |     19 |              5 |
| [65535.102](#event-65535102) | 0xCF14       |     15 |              3 |
| [65535.103](#event-65535103) | 0xCF23       |     15 |              3 |
| [65535.104](#event-65535104) | 0xCF32       |     15 |              3 |
| [65535.105](#event-65535105) | 0xCF41       |     15 |              3 |
| [65535.106](#event-65535106) | 0xCF50       |     37 |              5 |
| [65535.107](#event-65535107) | 0xCF75       |    185 |             37 |
| [65535.108](#event-65535108) | 0xD02E       |     41 |             10 |
| [65535.109](#event-65535109) | 0xD057       |      9 |              3 |
| [65535.110](#event-65535110) | 0xD060       |     19 |              4 |
| [65535.111](#event-65535111) | 0xD073       |     38 |              6 |
| [65535.112](#event-65535112) | 0xD099       |     37 |              7 |
| [65535.113](#event-65535113) | 0xD0BE       |     38 |              6 |
| [65535.114](#event-65535114) | 0xD0E4       |     18 |              6 |
| [65535.115](#event-65535115) | 0xD0F6       |     25 |              6 |
| [65535.116](#event-65535116) | 0xD10F       |     39 |              7 |
| [65535.117](#event-65535117) | 0xD136       |     37 |              5 |
| [65535.118](#event-65535118) | 0xD15B       |     37 |              5 |
| [65535.119](#event-65535119) | 0xD180       |     37 |              5 |
| [65535.120](#event-65535120) | 0xD1A5       |     37 |              5 |
| [65535.121](#event-65535121) | 0xD1CA       |      6 |              2 |
| [65535.122](#event-65535122) | 0xD1D0       |      6 |              2 |
| [65535.123](#event-65535123) | 0xD1D6       |     27 |              5 |
| [65535.124](#event-65535124) | 0xD1F1       |     24 |              4 |
| [65535.125](#event-65535125) | 0xD209       |     14 |              4 |
| [65535.126](#event-65535126) | 0xD217       |     15 |              5 |
| [65535.127](#event-65535127) | 0xD226       |     15 |              5 |
| [65535.128](#event-65535128) | 0xD235       |     15 |              5 |
| [65535.129](#event-65535129) | 0xD244       |     19 |              5 |
| [65535.130](#event-65535130) | 0xD257       |     15 |              5 |
| [65535.131](#event-65535131) | 0xD266       |     16 |              3 |
| [65535.132](#event-65535132) | 0xD276       |     16 |              3 |
| [65535.133](#event-65535133) | 0xD286       |     38 |              5 |
| [65535.134](#event-65535134) | 0xD2AC       |     38 |              5 |
| [65535.135](#event-65535135) | 0xD2D2       |     38 |              5 |
| [65535.136](#event-65535136) | 0xD2F8       |      3 |              2 |
| [65535.137](#event-65535137) | 0xD2FB       |     14 |              4 |
| [65535.138](#event-65535138) | 0xD309       |    353 |             41 |
| [65535.139](#event-65535139) | 0xD46A       |     14 |              4 |
| [65535.140](#event-65535140) | 0xD478       |      4 |              2 |
| [65535.141](#event-65535141) | 0xD47C       |     42 |              6 |
| [65535.142](#event-65535142) | 0xD4A6       |     27 |              3 |
| [65535.143](#event-65535143) | 0xD4C1       |     27 |              3 |
| [65535.144](#event-65535144) | 0xD4DC       |     19 |              5 |
| [65535.145](#event-65535145) | 0xD4EF       |      7 |              3 |
| [65535.146](#event-65535146) | 0xD4F6       |      7 |              3 |
| [65535.147](#event-65535147) | 0xD4FD       |    353 |             41 |
| [65535.148](#event-65535148) | 0xD65E       |     15 |              5 |
| [65535.149](#event-65535149) | 0xD66D       |     41 |              9 |
| [65535.150](#event-65535150) | 0xD696       |     29 |              5 |
| [65535.151](#event-65535151) | 0xD6B3       |     24 |              4 |
| [65535.152](#event-65535152) | 0xD6CB       |     24 |              4 |
| [3594](#event-3594)          | 0xD6E3       |    115 |             21 |

## DAT References (imed_data)

|   Index | Hex Value   |   Dec Value |
|---------|-------------|-------------|
|       0 | 0x009A      |         154 |
|       1 | 0xFFFFF98B  |  4294965643 |
|       2 | 0x0000      |           0 |
|       3 | 0x0B83      |        2947 |
|       4 | 0x014F      |         335 |
|       5 | 0x00C8      |         200 |
|       6 | 0x0003      |           3 |
|       7 | 0xFFFB6628  |  4294665768 |
|       8 | 0x174AF     |       95407 |
|       9 | 0xFFFFDC11  |  4294958097 |
|      10 | 0x0BC9      |        3017 |
|      11 | 0x007F      |         127 |
|      12 | 0x0001      |           1 |
|      13 | 0x0050      |          80 |
|      14 | 0x000A      |          10 |
|      15 | 0x2579      |        9593 |
|      16 | 0x257A      |        9594 |
|      17 | 0x257B      |        9595 |
|      18 | 0x257C      |        9596 |
|      19 | 0x001E      |          30 |
|      20 | 0x257D      |        9597 |
|      21 | 0x257E      |        9598 |
|      22 | 0x257F      |        9599 |
|      23 | 0x2580      |        9600 |
|      24 | 0x2581      |        9601 |
|      25 | 0x000F      |          15 |
|      26 | 0x0078      |         120 |
|      27 | 0x2582      |        9602 |
|      28 | 0x2583      |        9603 |
|      29 | 0x00EA      |         234 |
|      30 | 0x003C      |          60 |
|      31 | 0x2584      |        9604 |
|      32 | 0x2585      |        9605 |
|      33 | 0x2586      |        9606 |
|      34 | 0x2587      |        9607 |
|      35 | 0x2588      |        9608 |
|      36 | 0x2589      |        9609 |
|      37 | 0x258A      |        9610 |
|      38 | 0x258B      |        9611 |
|      39 | 0x258C      |        9612 |
|      40 | 0x258D      |        9613 |
|      41 | 0x258E      |        9614 |
|      42 | 0x258F      |        9615 |
|      43 | 0x2590      |        9616 |
|      44 | 0x2591      |        9617 |
|      45 | 0x0028      |          40 |
|      46 | 0x2592      |        9618 |
|      47 | 0x2593      |        9619 |
|      48 | 0x2594      |        9620 |
|      49 | 0x2595      |        9621 |
|      50 | 0x2596      |        9622 |
|      51 | 0x2597      |        9623 |
|      52 | 0x2598      |        9624 |
|      53 | 0x2599      |        9625 |
|      54 | 0x009F      |         159 |
|      55 | 0x259A      |        9626 |
|      56 | 0x259B      |        9627 |
|      57 | 0x259C      |        9628 |
|      58 | 0x259D      |        9629 |
|      59 | 0x259E      |        9630 |
|      60 | 0x259F      |        9631 |
|      61 | 0x25A0      |        9632 |
|      62 | 0x25A1      |        9633 |
|      63 | 0x25A2      |        9634 |
|      64 | 0x25A3      |        9635 |
|      65 | 0x25A4      |        9636 |
|      66 | 0x0014      |          20 |
|      67 | 0x25A5      |        9637 |
|      68 | 0x25A6      |        9638 |
|      69 | 0x25A7      |        9639 |
|      70 | 0x25A8      |        9640 |
|      71 | 0x25A9      |        9641 |
|      72 | 0x0400      |        1024 |
|      73 | 0x25AA      |        9642 |
|      74 | 0x25AB      |        9643 |
|      75 | 0x25AC      |        9644 |
|      76 | 0x25AD      |        9645 |
|      77 | 0xFFFB77D6  |  4294670294 |
|      78 | 0x16A77     |       92791 |
|      79 | 0x000D      |          13 |
|      80 | 0x012C      |         300 |
|      81 | 0x0BB8      |        3000 |
|      82 | 0xFFFB8FC2  |  4294676418 |
|      83 | 0x17BF3     |       97267 |
|      84 | 0xFFFB96AF  |  4294678191 |
|      85 | 0x17BE1     |       97249 |
|      86 | 0xFFFFDD00  |  4294958336 |
|      87 | 0x25AE      |        9646 |
|      88 | 0x0005      |           5 |
|      89 | 0x25AF      |        9647 |
|      90 | 0x25B0      |        9648 |
|      91 | 0x25B1      |        9649 |
|      92 | 0x006B      |         107 |
|      93 | 0x25B7      |        9655 |
|      94 | 0x25B8      |        9656 |
|      95 | 0x25B9      |        9657 |
|      96 | 0x25BA      |        9658 |
|      97 | 0x25BB      |        9659 |
|      98 | 0x25BC      |        9660 |
|      99 | 0x25BD      |        9661 |
|     100 | 0x25BE      |        9662 |
|     101 | 0x25BF      |        9663 |
|     102 | 0x25C0      |        9664 |
|     103 | 0x25C1      |        9665 |
|     104 | 0x25C2      |        9666 |
|     105 | 0x25C3      |        9667 |
|     106 | 0x25C4      |        9668 |
|     107 | 0x25C5      |        9669 |
|     108 | 0xFFFE7ADE  |  4294867678 |
|     109 | 0x776C      |       30572 |
|     110 | 0xFFFFF830  |  4294965296 |
|     111 | 0x0D4C      |        3404 |
|     112 | 0x0037      |          55 |
|     113 | 0x00A3      |         163 |
|     114 | 0x248F      |        9359 |
|     115 | 0x2490      |        9360 |
|     116 | 0x2491      |        9361 |
|     117 | 0x2492      |        9362 |
|     118 | 0x2493      |        9363 |
|     119 | 0x2494      |        9364 |
|     120 | 0x2495      |        9365 |
|     121 | 0x2496      |        9366 |
|     122 | 0x2497      |        9367 |
|     123 | 0x2498      |        9368 |
|     124 | 0x2499      |        9369 |
|     125 | 0x00B4      |         180 |
|     126 | 0x249A      |        9370 |
|     127 | 0x249B      |        9371 |
|     128 | 0x00AA      |         170 |
|     129 | 0x249C      |        9372 |
|     130 | 0x249D      |        9373 |
|     131 | 0x249E      |        9374 |
|     132 | 0x249F      |        9375 |
|     133 | 0x24A0      |        9376 |
|     134 | 0x24A1      |        9377 |
|     135 | 0x24A2      |        9378 |
|     136 | 0x24A3      |        9379 |
|     137 | 0x24A4      |        9380 |
|     138 | 0x24A5      |        9381 |
|     139 | 0x24A7      |        9383 |
|     140 | 0x24A8      |        9384 |
|     141 | 0x24A9      |        9385 |
|     142 | 0x24AA      |        9386 |
|     143 | 0x24AB      |        9387 |
|     144 | 0x0032      |          50 |
|     145 | 0x0064      |         100 |
|     146 | 0x24AC      |        9388 |
|     147 | 0x24A6      |        9382 |
|     148 | 0xFFFE79E4  |  4294867428 |
|     149 | 0x7875      |       30837 |
|     150 | 0x0DBA      |        3514 |
|     151 | 0x003F      |          63 |
|     152 | 0x24B5      |        9397 |
|     153 | 0x24B6      |        9398 |
|     154 | 0x24B7      |        9399 |
|     155 | 0x007B      |         123 |
|     156 | 0x005A      |          90 |
|     157 | 0x24B8      |        9400 |
|     158 | 0x24B9      |        9401 |
|     159 | 0x24BA      |        9402 |
|     160 | 0x24BB      |        9403 |
|     161 | 0x24BC      |        9404 |
|     162 | 0x24BD      |        9405 |
|     163 | 0x24BE      |        9406 |
|     164 | 0x24BF      |        9407 |
|     165 | 0x24C0      |        9408 |
|     166 | 0x24C1      |        9409 |
|     167 | 0x24C2      |        9410 |
|     168 | 0x24C3      |        9411 |
|     169 | 0x24C4      |        9412 |
|     170 | 0x24C5      |        9413 |
|     171 | 0xFFFE7C6C  |  4294868076 |
|     172 | 0x827F      |       33407 |
|     173 | 0x03A7      |         935 |
|     174 | 0x24C8      |        9416 |
|     175 | 0x24C9      |        9417 |
|     176 | 0x0046      |          70 |
|     177 | 0x24CA      |        9418 |
|     178 | 0x00F0      |         240 |
|     179 | 0x24CB      |        9419 |
|     180 | 0x0096      |         150 |
|     181 | 0x24CC      |        9420 |
|     182 | 0x24CD      |        9421 |
|     183 | 0x24CE      |        9422 |
|     184 | 0x24CF      |        9423 |
|     185 | 0x24D0      |        9424 |
|     186 | 0x24D1      |        9425 |
|     187 | 0x24D2      |        9426 |
|     188 | 0x24D3      |        9427 |
|     189 | 0x24D4      |        9428 |
|     190 | 0x24D5      |        9429 |
|     191 | 0x24D6      |        9430 |
|     192 | 0x24D7      |        9431 |
|     193 | 0x24D8      |        9432 |
|     194 | 0xFFFCD747  |  4294760263 |
|     195 | 0x10C80     |       68736 |
|     196 | 0xFFFFF448  |  4294964296 |
|     197 | 0x05D7      |        1495 |
|     198 | 0x0155      |         341 |
|     199 | 0x24DA      |        9434 |
|     200 | 0x24DB      |        9435 |
|     201 | 0x24DC      |        9436 |
|     202 | 0x24DD      |        9437 |
|     203 | 0x24DE      |        9438 |
|     204 | 0x24DF      |        9439 |
|     205 | 0x24E0      |        9440 |
|     206 | 0x24E1      |        9441 |
|     207 | 0x24E2      |        9442 |
|     208 | 0x24E3      |        9443 |
|     209 | 0x24E4      |        9444 |
|     210 | 0x24E5      |        9445 |
|     211 | 0x24E6      |        9446 |
|     212 | 0x24E7      |        9447 |
|     213 | 0x24E8      |        9448 |
|     214 | 0x24E9      |        9449 |
|     215 | 0x24EA      |        9450 |
|     216 | 0x24EB      |        9451 |
|     217 | 0x24EC      |        9452 |
|     218 | 0xFFFCD511  |  4294759697 |
|     219 | 0x10D63     |       68963 |
|     220 | 0xFFFFF449  |  4294964297 |
|     221 | 0x05DD      |        1501 |
|     222 | 0x24ED      |        9453 |
|     223 | 0x24EE      |        9454 |
|     224 | 0x24EF      |        9455 |
|     225 | 0x24F0      |        9456 |
|     226 | 0x24F1      |        9457 |
|     227 | 0x24F2      |        9458 |
|     228 | 0x24F3      |        9459 |
|     229 | 0x24F4      |        9460 |
|     230 | 0x24F5      |        9461 |
|     231 | 0x24F6      |        9462 |
|     232 | 0x24F7      |        9463 |
|     233 | 0x24F8      |        9464 |
|     234 | 0x24F9      |        9465 |
|     235 | 0x24FA      |        9466 |
|     236 | 0x24FB      |        9467 |
|     237 | 0x24FC      |        9468 |
|     238 | 0x24FD      |        9469 |
|     239 | 0x24FE      |        9470 |
|     240 | 0x24FF      |        9471 |
|     241 | 0xFFFE7729  |  4294866729 |
|     242 | 0x7D57      |       32087 |
|     243 | 0x0EB3      |        3763 |
|     244 | 0x2501      |        9473 |
|     245 | 0x2502      |        9474 |
|     246 | 0x2503      |        9475 |
|     247 | 0x2504      |        9476 |
|     248 | 0x2505      |        9477 |
|     249 | 0x2506      |        9478 |
|     250 | 0x2507      |        9479 |
|     251 | 0x2508      |        9480 |
|     252 | 0x2509      |        9481 |
|     253 | 0x250A      |        9482 |
|     254 | 0x250B      |        9483 |
|     255 | 0x250C      |        9484 |
|     256 | 0x250D      |        9485 |
|     257 | 0x250E      |        9486 |
|     258 | 0xFFFCDA21  |  4294760993 |
|     259 | 0x1034D     |       66381 |
|     260 | 0x085E      |        2142 |
|     261 | 0x250F      |        9487 |
|     262 | 0x2510      |        9488 |
|     263 | 0x2511      |        9489 |
|     264 | 0x2512      |        9490 |
|     265 | 0x2513      |        9491 |
|     266 | 0x2514      |        9492 |
|     267 | 0x2515      |        9493 |
|     268 | 0x2516      |        9494 |
|     269 | 0x2517      |        9495 |
|     270 | 0x2518      |        9496 |
|     271 | 0x2519      |        9497 |
|     272 | 0x251A      |        9498 |
|     273 | 0x251B      |        9499 |
|     274 | 0x251C      |        9500 |
|     275 | 0x251D      |        9501 |
|     276 | 0x251E      |        9502 |
|     277 | 0x251F      |        9503 |
|     278 | 0x2520      |        9504 |
|     279 | 0x2521      |        9505 |
|     280 | 0xFFFCD5CC  |  4294759884 |
|     281 | 0x10455     |       66645 |
|     282 | 0x086A      |        2154 |
|     283 | 0x2524      |        9508 |
|     284 | 0x2525      |        9509 |
|     285 | 0x2526      |        9510 |
|     286 | 0x2527      |        9511 |
|     287 | 0x2528      |        9512 |
|     288 | 0x2529      |        9513 |
|     289 | 0x252A      |        9514 |
|     290 | 0x252B      |        9515 |
|     291 | 0x252C      |        9516 |
|     292 | 0x252D      |        9517 |
|     293 | 0x252E      |        9518 |
|     294 | 0x252F      |        9519 |
|     295 | 0x2530      |        9520 |
|     296 | 0x2531      |        9521 |
|     297 | 0x2532      |        9522 |
|     298 | 0x2533      |        9523 |
|     299 | 0x2534      |        9524 |
|     300 | 0x2535      |        9525 |
|     301 | 0x2536      |        9526 |
|     302 | 0x2537      |        9527 |
|     303 | 0x2538      |        9528 |
|     304 | 0x2539      |        9529 |
|     305 | 0x253A      |        9530 |
|     306 | 0x253B      |        9531 |
|     307 | 0x253C      |        9532 |
|     308 | 0x253D      |        9533 |
|     309 | 0x253E      |        9534 |
|     310 | 0x253F      |        9535 |
|     311 | 0x2540      |        9536 |
|     312 | 0x2541      |        9537 |
|     313 | 0x2542      |        9538 |
|     314 | 0x2543      |        9539 |
|     315 | 0x2544      |        9540 |
|     316 | 0x2545      |        9541 |
|     317 | 0x2546      |        9542 |
|     318 | 0x2547      |        9543 |
|     319 | 0x2548      |        9544 |
|     320 | 0x2549      |        9545 |
|     321 | 0x254A      |        9546 |
|     322 | 0x254B      |        9547 |
|     323 | 0x254C      |        9548 |
|     324 | 0x254D      |        9549 |
|     325 | 0x254E      |        9550 |
|     326 | 0x254F      |        9551 |
|     327 | 0x008C      |         140 |
|     328 | 0xFFFCD45A  |  4294759514 |
|     329 | 0xFF50      |       65360 |
|     330 | 0x0AF9      |        2809 |
|     331 | 0x2551      |        9553 |
|     332 | 0x2552      |        9554 |
|     333 | 0x2553      |        9555 |
|     334 | 0x007A      |         122 |
|     335 | 0x2554      |        9556 |
|     336 | 0x2555      |        9557 |
|     337 | 0x2556      |        9558 |
|     338 | 0x2557      |        9559 |
|     339 | 0x2558      |        9560 |
|     340 | 0x2559      |        9561 |
|     341 | 0x255A      |        9562 |
|     342 | 0x255B      |        9563 |
|     343 | 0x255C      |        9564 |
|     344 | 0x255D      |        9565 |
|     345 | 0x255E      |        9566 |
|     346 | 0x255F      |        9567 |
|     347 | 0x2560      |        9568 |
|     348 | 0x2561      |        9569 |
|     349 | 0x2562      |        9570 |
|     350 | 0x2563      |        9571 |
|     351 | 0x2564      |        9572 |
|     352 | 0x2565      |        9573 |
|     353 | 0x2566      |        9574 |
|     354 | 0x2567      |        9575 |
|     355 | 0x2568      |        9576 |
|     356 | 0x2569      |        9577 |
|     357 | 0x256A      |        9578 |
|     358 | 0x256B      |        9579 |
|     359 | 0x256C      |        9580 |
|     360 | 0x256D      |        9581 |
|     361 | 0x256E      |        9582 |
|     362 | 0x256F      |        9583 |
|     363 | 0x2570      |        9584 |
|     364 | 0x2571      |        9585 |
|     365 | 0x2572      |        9586 |
|     366 | 0x2573      |        9587 |
|     367 | 0x2574      |        9588 |
|     368 | 0x2575      |        9589 |
|     369 | 0x00C9      |         201 |
|     370 | 0xFFFDEBC1  |  4294831041 |
|     371 | 0xF804      |       63492 |
|     372 | 0xFFFFD5D0  |  4294956496 |
|     373 | 0x09F1      |        2545 |
|     374 | 0x2463      |        9315 |
|     375 | 0x2464      |        9316 |
|     376 | 0x2465      |        9317 |
|     377 | 0x2466      |        9318 |
|     378 | 0x2467      |        9319 |
|     379 | 0x2468      |        9320 |
|     380 | 0x2469      |        9321 |
|     381 | 0x246A      |        9322 |
|     382 | 0x246B      |        9323 |
|     383 | 0x246C      |        9324 |
|     384 | 0x246D      |        9325 |
|     385 | 0x0158      |         344 |
|     386 | 0x41FC      |       16892 |
|     387 | 0x0159      |         345 |
|     388 | 0x2479      |        9337 |
|     389 | 0x247A      |        9338 |
|     390 | 0x247B      |        9339 |
|     391 | 0x247C      |        9340 |
|     392 | 0x247D      |        9341 |
|     393 | 0x247F      |        9343 |
|     394 | 0x2480      |        9344 |
|     395 | 0x2481      |        9345 |
|     396 | 0xFFFDEC06  |  4294831110 |
|     397 | 0xFD07      |       64775 |
|     398 | 0x2482      |        9346 |
|     399 | 0x2483      |        9347 |
|     400 | 0x2484      |        9348 |
|     401 | 0x2485      |        9349 |
|     402 | 0x2486      |        9350 |
|     403 | 0x2487      |        9351 |
|     404 | 0x2488      |        9352 |
|     405 | 0x2489      |        9353 |
|     406 | 0x248A      |        9354 |
|     407 | 0x248B      |        9355 |
|     408 | 0x1668E     |       91790 |
|     409 | 0xFFFF5E7B  |  4294925947 |
|     410 | 0x03E7      |         999 |
|     411 | 0x0896      |        2198 |
|     412 | 0x127EF     |       75759 |
|     413 | 0xFFFF763A  |  4294932026 |
|     414 | 0x07CF      |        1999 |
|     415 | 0x1056E     |       66926 |
|     416 | 0xFFFF97A7  |  4294940583 |
|     417 | 0x004A      |          74 |
|     418 | 0x594C      |       22860 |
|     419 | 0x0BFA      |        3066 |
|     420 | 0x14355     |       82773 |
|     421 | 0xFFFFF831  |  4294965297 |
|     422 | 0x0013      |          19 |
|     423 | 0x017C      |         380 |
|     424 | 0x0008      |           8 |
|     425 | 0x0082      |         130 |
|     426 | 0x1DEF      |        7663 |
|     427 | 0x1DF0      |        7664 |
|     428 | 0x1DF1      |        7665 |
|     429 | 0x1DF2      |        7666 |
|     430 | 0xFFFE334E  |  4294849358 |
|     431 | 0xFFFF0E26  |  4294905382 |
|     432 | 0x0DF6      |        3574 |
|     433 | 0xFFFE52A8  |  4294857384 |
|     434 | 0xFFFF2D5B  |  4294913371 |
|     435 | 0xFFFE8988  |  4294871432 |
|     436 | 0xFFFF5D85  |  4294925701 |
|     437 | 0x03E8      |        1000 |
|     438 | 0x0E71      |        3697 |
|     439 | 0x01E0      |         480 |
|     440 | 0x1DF5      |        7669 |
|     441 | 0x1DF6      |        7670 |
|     442 | 0xFFFE5418  |  4294857752 |
|     443 | 0xFFFF2EFF  |  4294913791 |
|     444 | 0x0E14      |        3604 |
|     445 | 0x00D0      |         208 |
|     446 | 0xFFFE5785  |  4294858629 |
|     447 | 0xFFFF326D  |  4294914669 |
|     448 | 0xFFFE7C04  |  4294867972 |
|     449 | 0xFFFF5648  |  4294923848 |
|     450 | 0x0FAD      |        4013 |
|     451 | 0x0BEC      |        3052 |
|     452 | 0x0E31      |        3633 |
|     453 | 0xFFFE825B  |  4294869595 |
|     454 | 0xFFFF5D08  |  4294925576 |
|     455 | 0x1DF8      |        7672 |
|     456 | 0x1DF9      |        7673 |
|     457 | 0x1DFA      |        7674 |
|     458 | 0x1DFB      |        7675 |
|     459 | 0xFFFE7E08  |  4294868488 |
|     460 | 0xFFFF6539  |  4294927673 |
|     461 | 0x1DFC      |        7676 |
|     462 | 0x1DFD      |        7677 |
|     463 | 0x1DFE      |        7678 |
|     464 | 0x1DFF      |        7679 |
|     465 | 0x1E00      |        7680 |
|     466 | 0x1E01      |        7681 |
|     467 | 0x1E02      |        7682 |
|     468 | 0x1E03      |        7683 |
|     469 | 0x1E04      |        7684 |
|     470 | 0x1E05      |        7685 |
|     471 | 0x1E06      |        7686 |
|     472 | 0x0002      |           2 |
|     473 | 0x1E07      |        7687 |
|     474 | 0x1E08      |        7688 |
|     475 | 0x1E09      |        7689 |
|     476 | 0x1E0A      |        7690 |
|     477 | 0x1E0B      |        7691 |
|     478 | 0x1E0C      |        7692 |
|     479 | 0x1E0D      |        7693 |
|     480 | 0x1E0E      |        7694 |
|     481 | 0x1E0F      |        7695 |
|     482 | 0x1E10      |        7696 |
|     483 | 0x1E11      |        7697 |
|     484 | 0x1E12      |        7698 |
|     485 | 0x1E13      |        7699 |
|     486 | 0x1E14      |        7700 |
|     487 | 0x1E15      |        7701 |
|     488 | 0x1E16      |        7702 |
|     489 | 0x1E17      |        7703 |
|     490 | 0x1E18      |        7704 |
|     491 | 0x1E2B      |        7723 |
|     492 | 0x1E2D      |        7725 |
|     493 | 0x1E2E      |        7726 |
|     494 | 0x1E2F      |        7727 |
|     495 | 0x1E30      |        7728 |
|     496 | 0x1E34      |        7732 |
|     497 | 0x1E35      |        7733 |
|     498 | 0x00E6      |         230 |
|     499 | 0xFFFFD7E8  |  4294957032 |
|     500 | 0xFFFFFE95  |  4294966933 |
|     501 | 0x0218      |         536 |
|     502 | 0x1E3E      |        7742 |
|     503 | 0x3D45      |       15685 |
|     504 | 0x1E3F      |        7743 |
|     505 | 0x1E22      |        7714 |
|     506 | 0x1E38      |        7736 |
|     507 | 0x1E39      |        7737 |
|     508 | 0x1E3B      |        7739 |
|     509 | 0x1E3C      |        7740 |
|     510 | 0x1E3D      |        7741 |
|     511 | 0x06D6      |        1750 |
|     512 | 0x021A      |         538 |
|     513 | 0xFFFF948E  |  4294939790 |
|     514 | 0x0F9F      |        3999 |
|     515 | 0x09EC      |        2540 |
|     516 | 0xFFFE26C2  |  4294846146 |
|     517 | 0xFFFFE8A2  |  4294961314 |
|     518 | 0x04EC      |        1260 |
|     519 | 0xFFFE4ED8  |  4294856408 |
|     520 | 0xFFFF76FA  |  4294932218 |
|     521 | 0x05EE      |        1518 |
|     522 | 0x162B3     |       90803 |
|     523 | 0xFFFF296D  |  4294912365 |
|     524 | 0x01F0      |         496 |
|     525 | 0xFFFFDE90  |  4294958736 |
|     526 | 0xFFFE6EED  |  4294864621 |
|     527 | 0x060C      |        1548 |
|     528 | 0x03E1      |         993 |
|     529 | 0xFFFFDE47  |  4294958663 |
|     530 | 0xFFFE6C91  |  4294864017 |
|     531 | 0xFFFFDEE5  |  4294958821 |
|     532 | 0xFFFE6981  |  4294863233 |
|     533 | 0xFFFFE163  |  4294959459 |
|     534 | 0xFFFE67CC  |  4294862796 |
|     535 | 0xFFFFCEA2  |  4294954658 |
|     536 | 0xFFFE6F2D  |  4294864685 |
|     537 | 0x03D6      |         982 |
|     538 | 0xFFFFCECF  |  4294954703 |
|     539 | 0xFFFE6E67  |  4294864487 |
|     540 | 0xFFFFCF0A  |  4294954762 |
|     541 | 0xFFFE6AA8  |  4294863528 |
|     542 | 0xFFFFD22A  |  4294955562 |
|     543 | 0xFFFFBE6D  |  4294950509 |
|     544 | 0xFFFE6EE7  |  4294864615 |
|     545 | 0x03F4      |        1012 |
|     546 | 0xFFFFBE7C  |  4294950524 |
|     547 | 0xFFFE6DBB  |  4294864315 |
|     548 | 0xFFFFBEA0  |  4294950560 |
|     549 | 0xFFFE6A17  |  4294863383 |
|     550 | 0xFFFFC218  |  4294951448 |
|     551 | 0x001B      |          27 |
|     552 | 0xFFFFEB77  |  4294962039 |
|     553 | 0xFFFE54D9  |  4294857945 |
|     554 | 0x00CB      |         203 |
|     555 | 0xFFFFF120  |  4294963488 |
|     556 | 0x1352      |        4946 |
|     557 | 0xFFFE52E5  |  4294857445 |
|     558 | 0x00CA      |         202 |
|     559 | 0x1429      |        5161 |
|     560 | 0xFFFE2F24  |  4294848292 |
|     561 | 0x11B17     |       72471 |
|     562 | 0xA174      |       41332 |
|     563 | 0x07E9      |        2025 |
|     564 | 0x84A3      |       33955 |
|     565 | 0xFFFF7B5B  |  4294933339 |
|     566 | 0x07D0      |        2000 |
|     567 | 0x0CD1      |        3281 |
|     568 | 0xFFFE452B  |  4294853931 |
|     569 | 0x193EB     |      103403 |
|     570 | 0xFFFFE4DB  |  4294960347 |
|     571 | 0x0AC5      |        2757 |
|     572 | 0xFFFDCF6D  |  4294823789 |
|     573 | 0x86EE      |       34542 |
|     574 | 0x00E8      |         232 |
|     575 | 0xFFFFD8CF  |  4294957263 |
|     576 | 0xFFFFF27F  |  4294963839 |
|     577 | 0x0B9A      |        2970 |
|     578 | 0xFFFE6C45  |  4294863941 |
|     579 | 0xFFFF450B  |  4294919435 |
|     580 | 0xFFFDEAE0  |  4294830816 |
|     581 | 0xFAB6      |       64182 |
|     582 | 0x09FB      |        2555 |
|     583 | 0x22AE      |        8878 |
|     584 | 0x22AF      |        8879 |
|     585 | 0x22B0      |        8880 |
|     586 | 0x40000000  |  1073741824 |
|     587 | 0x0023      |          35 |
|     588 | 0xFFFFBA63  |  4294949475 |
|     589 | 0x2AD1      |       10961 |
|     590 | 0x0835      |        2101 |
|     591 | 0x0DEA      |        3562 |
|     592 | 0x00C3      |         195 |
|     593 | 0x22B1      |        8881 |
|     594 | 0x22B2      |        8882 |
|     595 | 0x22B3      |        8883 |
|     596 | 0x22B4      |        8884 |
|     597 | 0x22B5      |        8885 |
|     598 | 0x0027      |          39 |
|     599 | 0x22B8      |        8888 |
|     600 | 0x22B9      |        8889 |
|     601 | 0x22BA      |        8890 |
|     602 | 0x22BB      |        8891 |
|     603 | 0x22BC      |        8892 |
|     604 | 0x22BD      |        8893 |
|     605 | 0x22BE      |        8894 |
|     606 | 0x22BF      |        8895 |
|     607 | 0x0149      |         329 |
|     608 | 0x1780F     |       96271 |
|     609 | 0x1B5E4     |      112100 |
|     610 | 0x0AA2      |        2722 |
|     611 | 0x00CF      |         207 |
|     612 | 0x2363      |        9059 |
|     613 | 0x2364      |        9060 |
|     614 | 0x2365      |        9061 |
|     615 | 0x00C4      |         196 |
|     616 | 0x2366      |        9062 |
|     617 | 0x2367      |        9063 |
|     618 | 0x2368      |        9064 |
|     619 | 0x2369      |        9065 |
|     620 | 0x236A      |        9066 |
|     621 | 0x236B      |        9067 |
|     622 | 0x236D      |        9069 |
|     623 | 0x236E      |        9070 |
|     624 | 0x236F      |        9071 |
|     625 | 0x2370      |        9072 |
|     626 | 0x2371      |        9073 |
|     627 | 0x2372      |        9074 |
|     628 | 0x2373      |        9075 |
|     629 | 0x00E7      |         231 |
|     630 | 0x0168      |         360 |
|     631 | 0x2374      |        9076 |
|     632 | 0x2375      |        9077 |
|     633 | 0x2376      |        9078 |
|     634 | 0x2377      |        9079 |
|     635 | 0x2378      |        9080 |
|     636 | 0x2379      |        9081 |
|     637 | 0x237A      |        9082 |
|     638 | 0x237B      |        9083 |
|     639 | 0x237C      |        9084 |
|     640 | 0x237D      |        9085 |
|     641 | 0x237E      |        9086 |
|     642 | 0x237F      |        9087 |
|     643 | 0x2380      |        9088 |
|     644 | 0x2381      |        9089 |
|     645 | 0x2382      |        9090 |
|     646 | 0x2383      |        9091 |
|     647 | 0x2384      |        9092 |
|     648 | 0x2385      |        9093 |
|     649 | 0x2386      |        9094 |
|     650 | 0x2387      |        9095 |
|     651 | 0x2388      |        9096 |
|     652 | 0x2389      |        9097 |
|     653 | 0x238A      |        9098 |
|     654 | 0x238B      |        9099 |
|     655 | 0x238C      |        9100 |
|     656 | 0x238D      |        9101 |
|     657 | 0x238E      |        9102 |
|     658 | 0x238F      |        9103 |
|     659 | 0x2390      |        9104 |
|     660 | 0x2391      |        9105 |
|     661 | 0x2394      |        9108 |
|     662 | 0x2395      |        9109 |
|     663 | 0x2396      |        9110 |
|     664 | 0x2397      |        9111 |
|     665 | 0x2398      |        9112 |
|     666 | 0x2399      |        9113 |
|     667 | 0x239A      |        9114 |
|     668 | 0x239B      |        9115 |
|     669 | 0x239C      |        9116 |
|     670 | 0x239D      |        9117 |
|     671 | 0x239E      |        9118 |
|     672 | 0x0445      |        1093 |
|     673 | 0x239F      |        9119 |
|     674 | 0x23A0      |        9120 |
|     675 | 0x23B2      |        9138 |
|     676 | 0x23B3      |        9139 |
|     677 | 0x23B4      |        9140 |
|     678 | 0x23B5      |        9141 |
|     679 | 0x23B6      |        9142 |
|     680 | 0x4269      |       17001 |
|     681 | 0x23B7      |        9143 |
|     682 | 0x23B8      |        9144 |
|     683 | 0x23B9      |        9145 |
|     684 | 0x23BA      |        9146 |
|     685 | 0x23D5      |        9173 |
|     686 | 0x23D6      |        9174 |
|     687 | 0x23D7      |        9175 |
|     688 | 0x23D8      |        9176 |
|     689 | 0x23D9      |        9177 |
|     690 | 0x23DA      |        9178 |
|     691 | 0x23DB      |        9179 |
|     692 | 0x23DC      |        9180 |
|     693 | 0x23DD      |        9181 |
|     694 | 0x23DE      |        9182 |
|     695 | 0x23DF      |        9183 |
|     696 | 0x23E0      |        9184 |
|     697 | 0x23E1      |        9185 |
|     698 | 0x014B      |         331 |
|     699 | 0x11A11     |       72209 |
|     700 | 0xEA04      |       59908 |
|     701 | 0x04E3      |        1251 |
|     702 | 0x0154      |         340 |
|     703 | 0x26013     |      155667 |
|     704 | 0x104A6     |       66726 |
|     705 | 0xFFFFFC17  |  4294966295 |
|     706 | 0x01DD      |         477 |
|     707 | 0x23E3      |        9187 |
|     708 | 0x23E4      |        9188 |
|     709 | 0x23E5      |        9189 |
|     710 | 0xFFFE4F20  |  4294856480 |
|     711 | 0xFFFF761D  |  4294931997 |
|     712 | 0x066C      |        1644 |
|     713 | 0xFFFE5074  |  4294856820 |
|     714 | 0xFFFF6FB0  |  4294930352 |
|     715 | 0x08E4      |        2276 |
|     716 | 0x16424     |       91172 |
|     717 | 0xFFFF289C  |  4294912156 |
|     718 | 0x01A6      |         422 |
|     719 | 0x16BB5     |       93109 |
|     720 | 0xFFFF2939  |  4294912313 |
|     721 | 0x049D      |        1181 |
|     722 | 0x242E      |        9262 |
|     723 | 0x242F      |        9263 |
|     724 | 0x2430      |        9264 |
|     725 | 0x00A1      |         161 |
|     726 | 0x00F5      |         245 |
|     727 | 0x2431      |        9265 |
|     728 | 0x2432      |        9266 |
|     729 | 0x2433      |        9267 |
|     730 | 0x2434      |        9268 |
|     731 | 0x2435      |        9269 |
|     732 | 0x2436      |        9270 |
|     733 | 0x2437      |        9271 |
|     734 | 0x2438      |        9272 |
|     735 | 0x2439      |        9273 |
|     736 | 0x243A      |        9274 |
|     737 | 0x243B      |        9275 |
|     738 | 0xFFFDE9D1  |  4294830545 |
|     739 | 0xFA9A      |       64154 |
|     740 | 0x09C8      |        2504 |
|     741 | 0x243C      |        9276 |
|     742 | 0x243D      |        9277 |
|     743 | 0xFFFD14FA  |  4294776058 |
|     744 | 0x1838A     |       99210 |
|     745 | 0xFFFFF47B  |  4294964347 |
|     746 | 0x0068      |         104 |
|     747 | 0xFFFF2ED3  |  4294913747 |
|     748 | 0xFFFFD39C  |  4294955932 |
|     749 | 0xFFFFD3B6  |  4294955958 |
|     750 | 0x0208      |         520 |
|     751 | 0x21D4A     |      138570 |
|     752 | 0x1DC79     |      121977 |
|     753 | 0x086F      |        2159 |
|     754 | 0x1807D     |       98429 |
|     755 | 0xFFFEFF25  |  4294901541 |
|     756 | 0x03E4      |         996 |
|     757 | 0xFFFCB26E  |  4294750830 |
|     758 | 0xFFFE9627  |  4294874663 |
|     759 | 0xFFFFFF0B  |  4294967051 |
|     760 | 0x09F7      |        2551 |
|     761 | 0x8B2F      |       35631 |
|     762 | 0xFFFF3AAD  |  4294916781 |
|     763 | 0x2329      |        9001 |
|     764 | 0x27692     |      161426 |
|     765 | 0x274F7     |      161015 |
|     766 | 0x05F8      |        1528 |
|     767 | 0x1C843     |      116803 |
|     768 | 0xFFFEE69B  |  4294895259 |
|     769 | 0x07F9      |        2041 |
|     770 | 0xFFFC8339  |  4294738745 |
|     771 | 0xFFFE2B86  |  4294847366 |
|     772 | 0xFFFFFF07  |  4294967047 |
|     773 | 0x0FFD      |        4093 |
|     774 | 0xBF7E      |       49022 |
|     775 | 0xFFFEE2B4  |  4294894260 |
|     776 | 0x2712      |       10002 |
|     777 | 0x0C0F      |        3087 |
|     778 | 0x185ED     |       99821 |
|     779 | 0xFFFEFF9F  |  4294901663 |
|     780 | 0x0312      |         786 |
|     781 | 0x21BAA     |      138154 |
|     782 | 0x1D514     |      120084 |
|     783 | 0x0E96      |        3734 |
|     784 | 0xFFFCB3AF  |  4294751151 |
|     785 | 0xFFFE90C0  |  4294873280 |
|     786 | 0xFFFFFF72  |  4294967154 |
|     787 | 0x084B      |        2123 |
|     788 | 0x8B65      |       35685 |
|     789 | 0xFFFF3C2F  |  4294917167 |
|     790 | 0x065B      |        1627 |
|     791 | 0xFFFBBF41  |  4294688577 |
|     792 | 0xFFF9A232  |  4294550066 |
|     793 | 0xFFFF641B  |  4294927387 |
|     794 | 0x0AA6      |        2726 |
|     795 | 0x8B7BE     |      571326 |
|     796 | 0xFFFBD923  |  4294695203 |
|     797 | 0xFFFFFEA3  |  4294966947 |
|     798 | 0xFFFBB61F  |  4294686239 |
|     799 | 0xFFF9928F  |  4294546063 |
|     800 | 0xFFFF648E  |  4294927502 |
|     801 | 0x0704      |        1796 |
|     802 | 0x88F90     |      561040 |
|     803 | 0xFFFBC607  |  4294690311 |
|     804 | 0x06C5      |        1733 |
|     805 | 0xFFFA88AC  |  4294609068 |
|     806 | 0x4DDD      |       19933 |
|     807 | 0xFFFF7744  |  4294932292 |
|     808 | 0x0831      |        2097 |
|     809 | 0x1DA71     |      121457 |
|     810 | 0x1C391     |      115601 |
|     811 | 0xFFFFE0D3  |  4294959315 |
|     812 | 0x0DA9      |        3497 |
|     813 | 0x25BC9     |      154569 |
|     814 | 0xFFFD5734  |  4294793012 |
|     815 | 0x0227      |         551 |
|     816 | 0x091C      |        2332 |
|     817 | 0xFFFFC3F3  |  4294951923 |
|     818 | 0x19656     |      104022 |
|     819 | 0xFFFFBC6C  |  4294949996 |
|     820 | 0x0379      |         889 |
|     821 | 0x0286      |         646 |
|     822 | 0xFFFF97B9  |  4294940601 |
|     823 | 0xFFFFE43B  |  4294960187 |
|     824 | 0x0689      |        1673 |
|     825 | 0xFFFFFFD1  |  4294967249 |
|     826 | 0xFFFF80F7  |  4294934775 |
|     827 | 0xFFFFA435  |  4294943797 |
|     828 | 0x03FD      |        1021 |
|     829 | 0x026D      |         621 |
|     830 | 0xFFFFBF68  |  4294950760 |
|     831 | 0x260E      |        9742 |
|     832 | 0x0C2B      |        3115 |
|     833 | 0x00EF      |         239 |
|     834 | 0x261B      |        9755 |
|     835 | 0x261C      |        9756 |
|     836 | 0x261D      |        9757 |
|     837 | 0x261E      |        9758 |
|     838 | 0x261F      |        9759 |
|     839 | 0x2621      |        9761 |
|     840 | 0x2622      |        9762 |
|     841 | 0x2623      |        9763 |
|     842 | 0x2624      |        9764 |
|     843 | 0x2625      |        9765 |
|     844 | 0x2626      |        9766 |
|     845 | 0x2627      |        9767 |
|     846 | 0x2628      |        9768 |
|     847 | 0x2629      |        9769 |
|     848 | 0x262A      |        9770 |
|     849 | 0x02A8      |         680 |
|     850 | 0xFFFFBCD7  |  4294950103 |
|     851 | 0x2857      |       10327 |
|     852 | 0x0D49      |        3401 |
|     853 | 0x00EC      |         236 |
|     854 | 0x26E9      |        9961 |
|     855 | 0x002D      |          45 |
|     856 | 0x0021      |          33 |
|     857 | 0x26EA      |        9962 |
|     858 | 0x26EB      |        9963 |
|     859 | 0x26EC      |        9964 |
|     860 | 0x000E      |          14 |
|     861 | 0x26ED      |        9965 |
|     862 | 0x26EE      |        9966 |
|     863 | 0x26EF      |        9967 |
|     864 | 0x26F0      |        9968 |
|     865 | 0x26F1      |        9969 |
|     866 | 0x26F2      |        9970 |
|     867 | 0x26F3      |        9971 |
|     868 | 0x26F4      |        9972 |
|     869 | 0x26F5      |        9973 |
|     870 | 0x26F6      |        9974 |
|     871 | 0x26F7      |        9975 |
|     872 | 0x26F8      |        9976 |
|     873 | 0x26F9      |        9977 |
|     874 | 0x26FA      |        9978 |
|     875 | 0x26FB      |        9979 |
|     876 | 0x26FC      |        9980 |
|     877 | 0x26FD      |        9981 |
|     878 | 0x26FE      |        9982 |
|     879 | 0x26FF      |        9983 |
|     880 | 0xFFFB69FA  |  4294666746 |
|     881 | 0x17641     |       95809 |
|     882 | 0x0AD9      |        2777 |
|     883 | 0xFFFC1E75  |  4294712949 |
|     884 | 0x17F13     |       98067 |
|     885 | 0xFFFFF061  |  4294963297 |
|     886 | 0x07F8      |        2040 |
|     887 | 0xFFFC1225  |  4294709797 |
|     888 | 0x17EF5     |       98037 |
|     889 | 0x000B      |          11 |
|     890 | 0xFFFC0C09  |  4294708233 |
|     891 | 0x17EB2     |       97970 |
|     892 | 0xFFFFF060  |  4294963296 |
|     893 | 0xFFFC1974  |  4294711668 |
|     894 | 0x185CC     |       99788 |
|     895 | 0x00CC      |         204 |
|     896 | 0xFFFD3BA4  |  4294785956 |
|     897 | 0x27D4      |       10196 |
|     898 | 0xFFFFFC18  |  4294966296 |
|     899 | 0x0F26      |        3878 |
|     900 | 0x014D      |         333 |
|     901 | 0xFFFDD4A4  |  4294825124 |
|     902 | 0x803C      |       32828 |
|     903 | 0x0C09      |        3081 |
|     904 | 0x00C7      |         199 |
|     905 | 0x2804      |       10244 |
|     906 | 0x2805      |       10245 |
|     907 | 0x0C91      |        3217 |
|     908 | 0x2806      |       10246 |
|     909 | 0x0007      |           7 |
|     910 | 0x2812      |       10258 |
|     911 | 0x04DC      |        1244 |
|     912 | 0x281E      |       10270 |
|     913 | 0x2807      |       10247 |
|     914 | 0x2813      |       10259 |
|     915 | 0x281F      |       10271 |
|     916 | 0x2808      |       10248 |
|     917 | 0x2814      |       10260 |
|     918 | 0x2820      |       10272 |
|     919 | 0x0004      |           4 |
|     920 | 0x2809      |       10249 |
|     921 | 0x2815      |       10261 |
|     922 | 0x2821      |       10273 |
|     923 | 0x280C      |       10252 |
|     924 | 0x2818      |       10264 |
|     925 | 0x2824      |       10276 |
|     926 | 0x0006      |           6 |
|     927 | 0x280D      |       10253 |
|     928 | 0x2819      |       10265 |
|     929 | 0x2825      |       10277 |
|     930 | 0x280E      |       10254 |
|     931 | 0x281A      |       10266 |
|     932 | 0x2826      |       10278 |
|     933 | 0x280F      |       10255 |
|     934 | 0x281B      |       10267 |
|     935 | 0x2827      |       10279 |
|     936 | 0x0009      |           9 |
|     937 | 0x2810      |       10256 |
|     938 | 0x281C      |       10268 |
|     939 | 0x2828      |       10280 |
|     940 | 0x280A      |       10250 |
|     941 | 0x2816      |       10262 |
|     942 | 0x2822      |       10274 |
|     943 | 0x280B      |       10251 |
|     944 | 0x2817      |       10263 |
|     945 | 0x2823      |       10275 |
|     946 | 0x000C      |          12 |
|     947 | 0x2811      |       10257 |
|     948 | 0x281D      |       10269 |
|     949 | 0x2829      |       10281 |
|     950 | 0x282A      |       10282 |
|     951 | 0x282B      |       10283 |
|     952 | 0x005F      |          95 |
|     953 | 0x0069      |         105 |
|     954 | 0x0052      |          82 |
|     955 | 0x0057      |          87 |
|     956 | 0x005C      |          92 |
|     957 | 0x0059      |          89 |
|     958 | 0x005D      |          93 |
|     959 | 0x0061      |          97 |
|     960 | 0x0060      |          96 |
|     961 | 0x0012      |          18 |
|     962 | 0x0017      |          23 |
|     963 | 0x0018      |          24 |
|     964 | 0x001F      |          31 |
|     965 | 0x0010      |          16 |
|     966 | 0x0015      |          21 |
|     967 | 0x018D      |         397 |
|     968 | 0x0175      |         373 |
|     969 | 0x0170      |         368 |
|     970 | 0x0171      |         369 |
|     971 | 0x014C      |         332 |
|     972 | 0x01C1      |         449 |
|     973 | 0x027C      |         636 |
|     974 | 0x027B      |         635 |
|     975 | 0x027D      |         637 |
|     976 | 0x02D3      |         723 |
|     977 | 0x0321      |         801 |
|     978 | 0x0326      |         806 |
|     979 | 0x01E1      |         481 |
|     980 | 0x0343      |         835 |
|     981 | 0x0386      |         902 |
|     982 | 0x0388      |         904 |
|     983 | 0x0361      |         865 |
|     984 | 0x0387      |         903 |
|     985 | 0x038A      |         906 |
|     986 | 0x0282      |         642 |
|     987 | 0x0283      |         643 |
|     988 | 0x0288      |         648 |
|     989 | 0x0289      |         649 |
|     990 | 0x028A      |         650 |
|     991 | 0x028B      |         651 |
|     992 | 0x029E      |         670 |
|     993 | 0x0019      |          25 |
|     994 | 0x00C6      |         198 |
|     995 | 0x00B5      |         181 |
|     996 | 0x008E      |         142 |
|     997 | 0x0148      |         328 |
|     998 | 0x0166      |         358 |
|     999 | 0x017A      |         378 |
|    1000 | 0x0182      |         386 |
|    1001 | 0x0183      |         387 |
|    1002 | 0x0192      |         402 |
|    1003 | 0x01DF      |         479 |
|    1004 | 0x01E9      |         489 |
|    1005 | 0x001C      |          28 |
|    1006 | 0x00EB      |         235 |
|    1007 | 0x007E      |         126 |
|    1008 | 0x00F3      |         243 |
|    1009 | 0x00F4      |         244 |
|    1010 | 0x00E0      |         224 |
|    1011 | 0x00E9      |         233 |
|    1012 | 0x009E      |         158 |
|    1013 | 0x009D      |         157 |
|    1014 | 0x00E2      |         226 |
|    1015 | 0x00E1      |         225 |
|    1016 | 0x014E      |         334 |
|    1017 | 0x0167      |         359 |
|    1018 | 0x00E5      |         229 |
|    1019 | 0x0169      |         361 |
|    1020 | 0x016A      |         362 |
|    1021 | 0x0133      |         307 |
|    1022 | 0x0174      |         372 |
|    1023 | 0x018C      |         396 |
|    1024 | 0x0194      |         404 |
|    1025 | 0x0195      |         405 |
|    1026 | 0x0178      |         376 |
|    1027 | 0x0240      |         576 |
|    1028 | 0x0197      |         407 |
|    1029 | 0x0198      |         408 |
|    1030 | 0x01A3      |         419 |
|    1031 | 0x019E      |         414 |
|    1032 | 0x0246      |         582 |
|    1033 | 0x0247      |         583 |
|    1034 | 0x0248      |         584 |
|    1035 | 0x024B      |         587 |
|    1036 | 0x024A      |         586 |
|    1037 | 0x0011      |          17 |
|    1038 | 0x024F      |         591 |
|    1039 | 0x01C3      |         451 |
|    1040 | 0x01C4      |         452 |
|    1041 | 0x01EF      |         495 |
|    1042 | 0x001A      |          26 |
|    1043 | 0x0095      |         149 |
|    1044 | 0x001D      |          29 |
|    1045 | 0x0073      |         115 |
|    1046 | 0x0034      |          52 |
|    1047 | 0x0024      |          36 |
|    1048 | 0x005E      |          94 |
|    1049 | 0x0072      |         114 |
|    1050 | 0x0031      |          49 |
|    1051 | 0x006C      |         108 |
|    1052 | 0x003A      |          58 |
|    1053 | 0x0016      |          22 |
|    1054 | 0x0035      |          53 |
|    1055 | 0x0085      |         133 |
|    1056 | 0x0081      |         129 |
|    1057 | 0x0033      |          51 |
|    1058 | 0x0039      |          57 |
|    1059 | 0x0020      |          32 |
|    1060 | 0x0038      |          56 |
|    1061 | 0x0036      |          54 |
|    1062 | 0x0083      |         131 |
|    1063 | 0x00A2      |         162 |
|    1064 | 0x0022      |          34 |
|    1065 | 0x0065      |         101 |
|    1066 | 0x0086      |         134 |
|    1067 | 0x0062      |          98 |
|    1068 | 0x008D      |         141 |
|    1069 | 0x008A      |         138 |
|    1070 | 0x008B      |         139 |
|    1071 | 0x002B      |          43 |
|    1072 | 0x0067      |         103 |
|    1073 | 0x0030      |          48 |
|    1074 | 0x0066      |         102 |
|    1075 | 0x0075      |         117 |
|    1076 | 0x0077      |         119 |
|    1077 | 0x01FE      |         510 |
|    1078 | 0x00A4      |         164 |
|    1079 | 0x00A9      |         169 |
|    1080 | 0x00AC      |         172 |
|    1081 | 0x00B2      |         178 |
|    1082 | 0x00B0      |         176 |
|    1083 | 0x013D      |         317 |
|    1084 | 0x0108      |         264 |
|    1085 | 0x010C      |         268 |
|    1086 | 0x0100      |         256 |
|    1087 | 0x00FB      |         251 |
|    1088 | 0x00B8      |         184 |
|    1089 | 0x011C      |         284 |
|    1090 | 0x0041      |          65 |
|    1091 | 0x0042      |          66 |
|    1092 | 0x0047      |          71 |
|    1093 | 0x0160      |         352 |
|    1094 | 0x0043      |          67 |
|    1095 | 0x0048      |          72 |
|    1096 | 0x004B      |          75 |
|    1097 | 0x004C      |          76 |
|    1098 | 0x004D      |          77 |
|    1099 | 0x005B      |          91 |
|    1100 | 0x0058      |          88 |
|    1101 | 0x0053      |          83 |
|    1102 | 0x0054      |          84 |
|    1103 | 0x0161      |         353 |
|    1104 | 0x015C      |         348 |
|    1105 | 0x016D      |         365 |
|    1106 | 0x00C5      |         197 |
|    1107 | 0x015E      |         350 |
|    1108 | 0x016E      |         366 |
|    1109 | 0x00CD      |         205 |
|    1110 | 0x00D2      |         210 |
|    1111 | 0x00D8      |         216 |
|    1112 | 0x00D5      |         213 |
|    1113 | 0x00D6      |         214 |
|    1114 | 0x013B      |         315 |
|    1115 | 0x0136      |         310 |
|    1116 | 0x013A      |         314 |
|    1117 | 0x0137      |         311 |
|    1118 | 0x016F      |         367 |
|    1119 | 0x0138      |         312 |
|    1120 | 0x0139      |         313 |
|    1121 | 0x0091      |         145 |
|    1122 | 0x009B      |         155 |
|    1123 | 0x0099      |         153 |
|    1124 | 0x0093      |         147 |
|    1125 | 0x0092      |         146 |
|    1126 | 0x0098      |         152 |
|    1127 | 0x0071      |         113 |
|    1128 | 0x00DD      |         221 |
|    1129 | 0x00F8      |         248 |
|    1130 | 0x00F1      |         241 |
|    1131 | 0x0124      |         292 |
|    1132 | 0x012E      |         302 |
|    1133 | 0x0129      |         297 |
|    1134 | 0x0122      |         290 |
|    1135 | 0x0132      |         306 |
|    1136 | 0x0126      |         294 |
|    1137 | 0x0025      |          37 |
|    1138 | 0x0029      |          41 |
|    1139 | 0x007D      |         125 |
|    1140 | 0x0079      |         121 |
|    1141 | 0x007C      |         124 |
|    1142 | 0x0074      |         116 |
|    1143 | 0x019C      |         412 |
|    1144 | 0x0193      |         403 |
|    1145 | 0x01C6      |         454 |
|    1146 | 0x01C7      |         455 |
|    1147 | 0x4FBE      |       20414 |
|    1148 | 0xFFFE9DB1  |  4294876593 |
|    1149 | 0x0897      |        2199 |
|    1150 | 0x00FF      |         255 |
|    1151 | 0x0090      |         144 |
|    1152 | 0x28F6      |       10486 |
|    1153 | 0x0140      |         320 |
|    1154 | 0x28F5      |       10485 |
|    1155 | 0x00DE      |         222 |
|    1156 | 0xFFFFE0C4  |  4294959300 |
|    1157 | 0xFFFE7922  |  4294867234 |
|    1158 | 0x0577      |        1399 |
|    1159 | 0x0D24      |        3364 |
|    1160 | 0x28F7      |       10487 |
|    1161 | 0x28F8      |       10488 |
|    1162 | 0x0045      |          69 |
|    1163 | 0x28F9      |       10489 |
|    1164 | 0x28FA      |       10490 |
|    1165 | 0x28FB      |       10491 |
|    1166 | 0x28FC      |       10492 |
|    1167 | 0x28FD      |       10493 |
|    1168 | 0x28FE      |       10494 |
|    1169 | 0x28FF      |       10495 |
|    1170 | 0x00EE      |         238 |
|    1171 | 0x2900      |       10496 |
|    1172 | 0x2901      |       10497 |
|    1173 | 0x2902      |       10498 |
|    1174 | 0x2903      |       10499 |
|    1175 | 0x2904      |       10500 |
|    1176 | 0x2905      |       10501 |
|    1177 | 0x2906      |       10502 |
|    1178 | 0x2907      |       10503 |
|    1179 | 0x2908      |       10504 |
|    1180 | 0x2909      |       10505 |
|    1181 | 0x290A      |       10506 |
|    1182 | 0x290B      |       10507 |
|    1183 | 0x290C      |       10508 |
|    1184 | 0x290D      |       10509 |
|    1185 | 0x0828      |        2088 |
|    1186 | 0x290E      |       10510 |
|    1187 | 0x290F      |       10511 |
|    1188 | 0x2910      |       10512 |
|    1189 | 0x2911      |       10513 |
|    1190 | 0x2912      |       10514 |
|    1191 | 0x2913      |       10515 |
|    1192 | 0x2914      |       10516 |
|    1193 | 0x2915      |       10517 |
|    1194 | 0x2916      |       10518 |
|    1195 | 0x2917      |       10519 |
|    1196 | 0x2918      |       10520 |
|    1197 | 0x2919      |       10521 |
|    1198 | 0x291A      |       10522 |
|    1199 | 0x291B      |       10523 |
|    1200 | 0x291C      |       10524 |
|    1201 | 0x291D      |       10525 |
|    1202 | 0x291E      |       10526 |
|    1203 | 0x291F      |       10527 |
|    1204 | 0x2920      |       10528 |
|    1205 | 0x2921      |       10529 |
|    1206 | 0x2922      |       10530 |
|    1207 | 0x2923      |       10531 |
|    1208 | 0x2924      |       10532 |
|    1209 | 0x2925      |       10533 |
|    1210 | 0x2926      |       10534 |
|    1211 | 0x2927      |       10535 |
|    1212 | 0x2928      |       10536 |
|    1213 | 0x1781D     |       96285 |
|    1214 | 0x1B2AC     |      111276 |
|    1215 | 0x0D0E      |        3342 |
|    1216 | 0x0120      |         288 |
|    1217 | 0x347D      |       13437 |
|    1218 | 0x347E      |       13438 |
|    1219 | 0x347F      |       13439 |
|    1220 | 0x3480      |       13440 |
|    1221 | 0x3481      |       13441 |
|    1222 | 0x3482      |       13442 |
|    1223 | 0x147C6     |       83910 |
|    1224 | 0x1D502     |      120066 |
|    1225 | 0xFFFFFFF5  |  4294967285 |
|    1226 | 0x01DA      |         474 |
|    1227 | 0x158D8     |       88280 |
|    1228 | 0x1CEE5     |      118501 |
|    1229 | 0x0A14      |        2580 |
|    1230 | 0x14E40     |       85568 |
|    1231 | 0x1CBA7     |      117671 |
|    1232 | 0x09E1      |        2529 |
|    1233 | 0x158A2     |       88226 |
|    1234 | 0x1C931     |      117041 |
|    1235 | 0x0A01      |        2561 |
|    1236 | 0x155D3     |       87507 |
|    1237 | 0x1C58E     |      116110 |
|    1238 | 0x0A05      |        2565 |
|    1239 | 0x15344     |       86852 |
|    1240 | 0x1CB2F     |      117551 |
|    1241 | 0x14BAB     |       84907 |
|    1242 | 0x1C926     |      117030 |
|    1243 | 0x0A39      |        2617 |
|    1244 | 0x14B9A     |       84890 |
|    1245 | 0x1C4B0     |      115888 |
|    1246 | 0x3483      |       13443 |
|    1247 | 0x3484      |       13444 |
|    1248 | 0x3485      |       13445 |
|    1249 | 0x3486      |       13446 |
|    1250 | 0x3487      |       13447 |
|    1251 | 0x348A      |       13450 |
|    1252 | 0x3489      |       13449 |
|    1253 | 0xFFFFEEE3  |  4294962915 |
|    1254 | 0xFFFE6C05  |  4294863877 |
|    1255 | 0xFFFFFF9C  |  4294967196 |
|    1256 | 0x0308      |         776 |
|    1257 | 0xFFFCA650  |  4294747728 |
|    1258 | 0x4F9B0     |      326064 |
|    1259 | 0xFFFF1745  |  4294907717 |
|    1260 | 0x0867      |        2151 |
|    1261 | 0xFFFC91BC  |  4294742460 |
|    1262 | 0x4F8FA     |      325882 |
|    1263 | 0xFFFF1545  |  4294907205 |
|    1264 | 0xFFFA2BCB  |  4294585291 |
|    1265 | 0x21BA0     |      138144 |
|    1266 | 0xFFFF73E5  |  4294931429 |
|    1267 | 0x0FD8      |        4056 |
|    1268 | 0xFFFA35E1  |  4294587873 |
|    1269 | 0x21C0A     |      138250 |
|    1270 | 0xFFFF73C4  |  4294931396 |
|    1271 | 0xFFF60A0F  |  4294314511 |
|    1272 | 0x4BD6      |       19414 |
|    1273 | 0xFFFF9824  |  4294940708 |
|    1274 | 0x07C8      |        1992 |
|    1275 | 0xFFF5EC8C  |  4294306956 |
|    1276 | 0x4DA1      |       19873 |
|    1277 | 0xFFFF95E1  |  4294940129 |
|    1278 | 0xFFF5AF18  |  4294291224 |
|    1279 | 0x733FB     |      472059 |
|    1280 | 0x3E24      |       15908 |
|    1281 | 0x033D      |         829 |
|    1282 | 0xFFF5BE7D  |  4294295165 |
|    1283 | 0x704FB     |      460027 |
|    1284 | 0x407B      |       16507 |
|    1285 | 0x873D5     |      553941 |
|    1286 | 0xFFF98D86  |  4294544774 |
|    1287 | 0x9DE7      |       40423 |
|    1288 | 0x0F96      |        3990 |
|    1289 | 0x88EA8     |      560808 |
|    1290 | 0xFFF99272  |  4294546034 |
|    1291 | 0x9FE8      |       40936 |
|    1292 | 0x2AD1F     |      175391 |
|    1293 | 0x52C4      |       21188 |
|    1294 | 0x0E91      |        3729 |
|    1295 | 0x00D4      |         212 |
|    1296 | 0x2BE1C     |      179740 |
|    1297 | 0x5262      |       21090 |
|    1298 | 0x0C5A      |        3162 |
|    1299 | 0x607A      |       24698 |
|    1300 | 0xFFFEE3B4  |  4294894516 |
|    1301 | 0x0986      |        2438 |
|    1302 | 0xFFFFAF54  |  4294946644 |
|    1303 | 0xFFFEF560  |  4294899040 |
|    1304 | 0x0625      |        1573 |
|    1305 | 0xFFFFAA41  |  4294945345 |
|    1306 | 0xFFFEE3A5  |  4294894501 |
|    1307 | 0xFFFD699A  |  4294797722 |
|    1308 | 0x3FAB3     |      260787 |
|    1309 | 0xFFFF1A10  |  4294908432 |
|    1310 | 0x047B      |        1147 |
|    1311 | 0xFFFC7FA3  |  4294737827 |
|    1312 | 0x4E55C     |      320860 |
|    1313 | 0xFFFF1794  |  4294907796 |
|    1314 | 0xFFFC802F  |  4294737967 |
|    1315 | 0x4DCE4     |      318692 |
|    1316 | 0xFFFC97ED  |  4294744045 |
|    1317 | 0x4D40B     |      316427 |
|    1318 | 0xFFFF15CE  |  4294907342 |
|    1319 | 0xFFFC7866  |  4294735974 |
|    1320 | 0x4DD15     |      318741 |
|    1321 | 0xFFFA31B3  |  4294586803 |
|    1322 | 0x240E4     |      147684 |
|    1323 | 0xFFFF6BD0  |  4294929360 |
|    1324 | 0xFFFA32E9  |  4294587113 |
|    1325 | 0x24801     |      149505 |
|    1326 | 0xFFFF6938  |  4294928696 |
|    1327 | 0xFFFA3867  |  4294588519 |
|    1328 | 0x235CB     |      144843 |
|    1329 | 0xFFFF6DD8  |  4294929880 |
|    1330 | 0xFFFA2793  |  4294584211 |
|    1331 | 0x23E6C     |      147052 |
|    1332 | 0xFFFF6BCE  |  4294929358 |
|    1333 | 0xFFF5D9BF  |  4294302143 |
|    1334 | 0x7064      |       28772 |
|    1335 | 0xFFFF8E09  |  4294938121 |
|    1336 | 0xFFF5DFC8  |  4294303688 |
|    1337 | 0x760F      |       30223 |
|    1338 | 0xFFFF8DBD  |  4294938045 |
|    1339 | 0xFFF5E80B  |  4294305803 |
|    1340 | 0x6637      |       26167 |
|    1341 | 0xFFFF900A  |  4294938634 |
|    1342 | 0xFFF5ED65  |  4294307173 |
|    1343 | 0x6BF5      |       27637 |
|    1344 | 0xFFFF8D45  |  4294937925 |
|    1345 | 0xFFFFF221  |  4294963745 |
|    1346 | 0xFFFE7E6B  |  4294868587 |
|    1347 | 0xFFFFFF9D  |  4294967197 |
|    1348 | 0x0458      |        1112 |
|    1349 | 0xFFFFF355  |  4294964053 |
|    1350 | 0xFFFE6EC5  |  4294864581 |
|    1351 | 0xFFFFE5E5  |  4294960613 |
|    1352 | 0xFFFE76B4  |  4294866612 |
|    1353 | 0x0486      |        1158 |
|    1354 | 0xFFFFCED6  |  4294954710 |
|    1355 | 0xFFFE4194  |  4294853012 |
|    1356 | 0x03D9      |         985 |
|    1357 | 0x1403      |        5123 |
|    1358 | 0xFFFE598D  |  4294859149 |
|    1359 | 0x082F      |        2095 |
|    1360 | 0xFFFFE586  |  4294960518 |
|    1361 | 0xFFFE6A2A  |  4294863402 |
|    1362 | 0x0C13      |        3091 |
|    1363 | 0x0E10      |        3600 |
|    1364 | 0xFFFE87B9  |  4294870969 |
|    1365 | 0x147C8     |       83912 |
|    1366 | 0xFFFFE4A9  |  4294960297 |
|    1367 | 0xFFFEA0F3  |  4294877427 |
|    1368 | 0x15C0C     |       89100 |
|    1369 | 0xFFFE7871  |  4294867057 |
|    1370 | 0x13AAE     |       80558 |
|    1371 | 0xFFFFE890  |  4294961296 |
|    1372 | 0x04BF      |        1215 |
|    1373 | 0xFFFE9DB5  |  4294876597 |
|    1374 | 0x159D9     |       88537 |
|    1375 | 0x1060E     |       67086 |
|    1376 | 0xFFFF98E5  |  4294940901 |
|    1377 | 0x0200      |         512 |
|    1378 | 0xFF2E      |       65326 |
|    1379 | 0xFFFF9E00  |  4294942208 |
|    1380 | 0xFFFEA645  |  4294878789 |
|    1381 | 0x1584B     |       88139 |
|    1382 | 0xFFFE9197  |  4294873495 |
|    1383 | 0xFFFF3BC5  |  4294917061 |
|    1384 | 0xFFFEAC74  |  4294880372 |
|    1385 | 0x15A0D     |       88589 |
|    1386 | 0xFFFEAB83  |  4294880131 |
|    1387 | 0x15912     |       88338 |
|    1388 | 0xFFFEAAE5  |  4294879973 |
|    1389 | 0x15897     |       88215 |
|    1390 | 0xFFFEA8B3  |  4294879411 |
|    1391 | 0x15660     |       87648 |
|    1392 | 0x18FBD     |      102333 |
|    1393 | 0xFFFF4A2A  |  4294920746 |
|    1394 | 0x0080      |         128 |
|    1395 | 0x004F      |          79 |
|    1396 | 0x0106      |         262 |
|    1397 | 0x0040      |          64 |
|    1398 | 0x003B      |          59 |
|    1399 | 0x00B3      |         179 |
|    1400 | 0x00BD      |         189 |
|    1401 | 0x00D1      |         209 |
|    1402 | 0x2814C     |      164172 |
|    1403 | 0x5118B     |      332171 |
|    1404 | 0xFFFEA992  |  4294879634 |
|    1405 | 0x27951     |      162129 |
|    1406 | 0x510CC     |      331980 |
|    1407 | 0xFFFEA9CB  |  4294879691 |
|    1408 | 0x409D      |       16541 |
|    1409 | 0x40C3      |       16579 |

## String References

- **7663**: [Cutscene] The fortress city of San d'Oria lies to the north on the great continent of Quon. The beating heart of an ancient kingdom, it is home to a thousand legends past.
- **7664**: [Cutscene] But now, her reign of glory is but a memory. Heroes raise shining swords to the heavens no more.
- **7665**: [Cutscene] The sun has set on the kingdom of knights. An old lion, never to rise again... Thus do some dismiss her now.
- **7666**: [Cutscene] Yet young Elvaan knights still venture proudly into the wilds of Vana'diel, determined to triumph over any foe.
- **7669**: [Cutscene] Should fortune favor [him/her], bards across the land will sing of [his/her] exploits for generations to come.
- **7670**: [Cutscene] Of course, [he/she] has only begun [his/her] rise to glory. No one can tell what [his/her] future holds.
- **7714**: What would you like to hear about? [Helping people./Hunting monsters./Making easy money./Working for my country.]
- **7725**: Something you'd like to know? [Nothing in particular./I want to go out and do battle!/I want to go shopping./I want to know more about adventuring.]
- **8879**: Hear Femitte's request? [Let's hear it./Not today.]
- **9064**: Could you do this for me? [Of course./Not right now.]
- **9072**: Are you daring? [Of course I am./No, not really.]
- **9321**: Can you lend your assistance? [I would be honored!/I have affairs of greater importance.]
- **9381**: Will you help? [Lead the way!/I cannot help at this time...]
- **10518**: What do you suggest? [Return the chocobos to the wild./Give the chocobos a rest./Reform the chocobo raising system./Bring the chocobos together.]
- **13443**: Now's your chance to capture the hearts of the audience.
- **13444**: What do you do? [Appeal to the audience./Stretch out your hand./Strike a pose.]
- **16541**: Entering [D. San d'Oria/D. Bastok/D. Windurst/D. Jeuno].
- **16579**: Your $3 fills with sand.

## Events

### Event 65535

#### Metadata

| Field        | Value   |
|--------------|---------|
| Entrypoint   | 0x0000  |
| Data Size    | 1 bytes |
| Instructions | 1       |

```
      00 01 02 03 04 05 06 07  08 09 0A 0B 0C 0D 0E 0F
      -- -- -- -- -- -- -- --  -- -- -- -- -- -- -- --
0000: 00                                                .               
```

#### Opcodes

```
  0: 0x0000 [0x00] END_REQSTACK()
```

### Event 65535.1

#### Metadata

| Field        | Value    |
|--------------|----------|
| Entrypoint   | 0x0001   |
| Data Size    | 10 bytes |
| Instructions | 2        |

```
      00 01 02 03 04 05 06 07  08 09 0A 0B 0C 0D 0E 0F
      -- -- -- -- -- -- -- --  -- -- -- -- -- -- -- --
0000:    37 00 80 01 80 02 80  03 80 00                  7.........     
```

#### Opcodes

```
  0: 0x0001 [0x37] UPDATE_EVENT_POSITION_AND_DIR: x=0.154*, z=-1.653*, y=0.000*, direction=259.0*
  1: 0x000A [0x00] END_REQSTACK()
```

### Event 23

#### Metadata

| Field        | Value      |
|--------------|------------|
| Entrypoint   | 0x000B     |
| Data Size    | 2588 bytes |
| Instructions | 354        |

```
      00 01 02 03 04 05 06 07  08 09 0A 0B 0C 0D 0E 0F
      -- -- -- -- -- -- -- --  -- -- -- -- -- -- -- --
0000:                                   20 01 46 01 42              .F.B
0010: 75 00 04 80 75 01 45 05  80 F0 FF FF 7F F0 FF FF  u...u.E.........
0020: 7F 66 64 6F 31 02 80 55  05 80 F0 FF FF 7F F0 FF  .fdo1..U........
0030: FF 7F 66 64 6F 31 38 06  80 94 01 F0 FF FF 7F 37  ..fdo18........7
0040: 07 80 08 80 09 80 0A 80  5C 00 0B 80 5C 01 0B 80  ........\...\...
0050: 97 02 80 0C 80 4E 00 ED  60 0E 01 45 0D 80 F0 FF  .....N..`..E....
0060: FF 7F F0 FF FF 7F 7A 30  30 30 02 80 45 05 80 F0  ......z000..E...
0070: FF FF 7F F0 FF FF 7F 66  64 69 31 02 80 4A 5F 60  .......fdi1..J_`
0080: 0E 01 F0 FF FF 7F 1C 0E  80 55 05 80 F0 FF FF 7F  .........U......
0090: F0 FF FF 7F 66 64 69 31  6F 76 5F 60 0E 01 27 03  ....fdi1ov_`..'.
00A0: 5F 60 0E 01 0A 2B 5F 60  0E 01 0F 80 23 2B 5F 60  _`...+_`....#+_`
00B0: 0E 01 10 80 23 27 03 5F  60 0E 01 0B 2B 5F 60 0E  ....#'._`...+_`.
00C0: 01 11 80 23 2A 03 5F 60  0E 01 7B 5F 60 0E 01 4B  ...#*._`..{_`..K
00D0: 5F 60 0E 01 02 80 6F 76  5F 60 0E 01 2B 5F 60 0E  _`....ov_`..+_`.
00E0: 01 12 80 23 27 03 5F 60  0E 01 0C 1C 13 80 52 0D  ...#'._`......R.
00F0: 80 F0 FF FF 7F F0 FF FF  7F 7A 30 30 30 45 05 80  .........z000E..
0100: F0 FF FF 7F F0 FF FF 7F  6F 76 6C 31 02 80 45 0D  ........ovl1..E.
0110: 80 F0 FF FF 7F F0 FF FF  7F 7A 30 30 32 02 80 2B  .........z002..+
0120: 5F 60 0E 01 14 80 23 2B  5F 60 0E 01 15 80 23 55  _`....#+_`....#U
0130: 0D 80 F0 FF FF 7F F0 FF  FF 7F 7A 30 30 32 27 03  ..........z002'.
0140: 5F 60 0E 01 0D 45 0D 80  F0 FF FF 7F F0 FF FF 7F  _`...E..........
0150: 7A 30 30 31 02 80 2B 5F  60 0E 01 16 80 23 2A 03  z001..+_`....#*.
0160: 5F 60 0E 01 4A 5F 60 0E  01 F0 FF FF 7F 2B 5F 60  _`..J_`......+_`
0170: 0E 01 17 80 23 2B 5F 60  0E 01 18 80 23 27 03 B4  ....#+_`....#'..
0180: 60 0E 01 02 1C 19 80 27  03 ED 60 0E 01 03 52 0D  `......'..`...R.
0190: 80 F0 FF FF 7F F0 FF FF  7F 7A 30 30 31 5D 02 80  .........z001]..
01A0: 1A 80 45 0D 80 F0 FF FF  7F F0 FF FF 7F 7A 30 30  ..E..........z00
01B0: 33 02 80 2B ED 60 0E 01  1B 80 2A 03 ED 60 0E 01  3..+.`....*..`..
01C0: 55 0D 80 F0 FF FF 7F F0  FF FF 7F 7A 30 30 33 4A  U..........z003J
01D0: 5F 60 0E 01 ED 60 0E 01  4A F0 FF FF 7F ED 60 0E  _`...`..J.....`.
01E0: 01 23 45 0D 80 F0 FF FF  7F F0 FF FF 7F 7A 30 30  .#E..........z00
01F0: 34 02 80 2B 5F 60 0E 01  1C 80 23 55 0D 80 F0 FF  4..+_`....#U....
0200: FF 7F F0 FF FF 7F 7A 30  30 34 45 05 80 5F 60 0E  ......z004E.._`.
0210: 01 5F 60 0E 01 6F 76 6C  31 02 80 45 0D 80 F0 FF  ._`..ovl1..E....
0220: FF 7F F0 FF FF 7F 7A 30  30 35 02 80 55 0D 80 F0  ......z005..U...
0230: FF FF 7F F0 FF FF 7F 7A  30 30 35 27 03 B4 60 0E  .......z005'..`.
0240: 01 03 1C 1A 80 5C 00 1D  80 5C 01 1D 80 29 03 ED  .....\...\...)..
0250: 60 0E 01 04 4A 5F 60 0E  01 ED 60 0E 01 4A F0 FF  `...J_`...`..J..
0260: FF 7F ED 60 0E 01 6F 76  ED 60 0E 01 9A 1C 1E 80  ...`..ov.`......
0270: 45 05 80 5F 60 0E 01 5F  60 0E 01 6F 76 6C 31 02  E.._`.._`..ovl1.
0280: 80 45 0D 80 F0 FF FF 7F  F0 FF FF 7F 7A 30 30 36  .E..........z006
0290: 02 80 55 0D 80 F0 FF FF  7F F0 FF FF 7F 7A 30 30  ..U..........z00
02A0: 36 2B 5F 60 0E 01 1F 80  23 2B 5F 60 0E 01 20 80  6+_`....#+_`.. .
02B0: 23 79 00 ED 60 0E 01 4B  60 0E 01 27 03 ED 60 0E  #y..`..K`..'..`.
02C0: 01 07 1C 19 80 45 0D 80  F0 FF FF 7F F0 FF FF 7F  .....E..........
02D0: 7A 30 30 37 02 80 55 0D  80 F0 FF FF 7F F0 FF FF  z007..U.........
02E0: 7F 7A 30 30 37 2B ED 60  0E 01 21 80 23 27 03 5F  .z007+.`..!.#'._
02F0: 60 0E 01 0A 2B 5F 60 0E  01 22 80 23 27 03 5F 60  `...+_`..".#'._`
0300: 0E 01 0B 79 00 ED 60 0E  01 5F 60 0E 01 1C 19 80  ...y..`.._`.....
0310: 2B ED 60 0E 01 23 80 23  27 03 ED 60 0E 01 08 45  +.`..#.#'..`...E
0320: 0D 80 F0 FF FF 7F F0 FF  FF 7F 7A 30 30 38 02 80  ..........z008..
0330: 2B 5F 60 0E 01 24 80 23  2B 5F 60 0E 01 25 80 23  +_`..$.#+_`..%.#
0340: 2B 5F 60 0E 01 26 80 23  55 0D 80 F0 FF FF 7F F0  +_`..&.#U.......
0350: FF FF 7F 7A 30 30 38 45  0D 80 F0 FF FF 7F F0 FF  ...z008E........
0360: FF 7F 7A 30 30 39 02 80  79 00 ED 60 0E 01 4B 60  ..z009..y..`..K`
0370: 0E 01 1C 0E 80 2B ED 60  0E 01 27 80 23 1C 1E 80  .....+.`..'.#...
0380: 52 0D 80 F0 FF FF 7F F0  FF FF 7F 7A 30 30 39 45  R..........z009E
0390: 05 80 5F 60 0E 01 5F 60  0E 01 6F 76 6C 31 02 80  .._`.._`..ovl1..
03A0: 45 0D 80 F0 FF FF 7F F0  FF FF 7F 7A 30 31 30 02  E..........z010.
03B0: 80 55 0D 80 F0 FF FF 7F  F0 FF FF 7F 7A 30 31 30  .U..........z010
03C0: 1C 13 80 27 03 5F 60 0E  01 0A 2B 5F 60 0E 01 28  ...'._`...+_`..(
03D0: 80 23 27 03 5F 60 0E 01  0B 79 00 ED 60 0E 01 5F  .#'._`...y..`.._
03E0: 60 0E 01 1C 19 80 7C 00  ED 60 0E 01 2B ED 60 0E  `.....|..`..+.`.
03F0: 01 29 80 23 7C 01 ED 60  0E 01 45 0D 80 F0 FF FF  .).#|..`..E.....
0400: 7F F0 FF FF 7F 7A 30 31  31 02 80 29 03 4B 60 0E  .....z011..).K`.
0410: 01 0C 79 00 5F 60 0E 01  4B 60 0E 01 2B 5F 60 0E  ..y._`..K`..+_`.
0420: 01 2A 80 23 55 0D 80 F0  FF FF 7F F0 FF FF 7F 7A  .*.#U..........z
0430: 30 31 31 2B ED 60 0E 01  2B 80 23 45 0D 80 F0 FF  011+.`..+.#E....
0440: FF 7F F0 FF FF 7F 7A 30  31 32 02 80 55 0D 80 F0  ......z012..U...
0450: FF FF 7F F0 FF FF 7F 7A  30 31 32 79 00 5F 60 0E  .......z012y._`.
0460: 01 ED 60 0E 01 2B 5F 60  0E 01 2C 80 23 7B 5F 60  ..`..+_`..,.#{_`
0470: 0E 01 27 03 5F 60 0E 01  08 1C 1E 80 45 0D 80 F0  ..'._`......E...
0480: FF FF 7F F0 FF FF 7F 79  30 30 30 02 80 1C 2D 80  .......y000...-.
0490: 2B 5F 60 0E 01 2E 80 23  2A 03 5F 60 0E 01 2B 5F  +_`....#*._`..+_
04A0: 60 0E 01 2F 80 23 55 0D  80 F0 FF FF 7F F0 FF FF  `../.#U.........
04B0: 7F 79 30 30 30 45 05 80  F0 FF FF 7F F0 FF FF 7F  .y000E..........
04C0: 6F 76 6C 31 02 80 45 0D  80 F0 FF FF 7F F0 FF FF  ovl1..E.........
04D0: 7F 79 30 30 61 02 80 5D  02 80 05 80 27 03 ED 60  .y00a..]....'..`
04E0: 0E 01 0B 2B ED 60 0E 01  30 80 23 2B ED 60 0E 01  ...+.`..0.#+.`..
04F0: 31 80 23 55 0D 80 F0 FF  FF 7F F0 FF FF 7F 79 30  1.#U..........y0
0500: 30 61 27 03 ED 60 0E 01  0C 27 03 5F 60 0E 01 0D  0a'..`...'._`...
0510: 7C 00 5F 60 0E 01 2B 5F  60 0E 01 32 80 23 7C 01  |._`..+_`..2.#|.
0520: 5F 60 0E 01 2A 03 5F 60  0E 01 45 05 80 F0 FF FF  _`..*._`..E.....
0530: 7F F0 FF FF 7F 6F 76 6C  31 02 80 45 0D 80 F0 FF  .....ovl1..E....
0540: FF 7F F0 FF FF 7F 79 30  30 31 02 80 2B ED 60 0E  ......y001..+.`.
0550: 01 33 80 23 2B ED 60 0E  01 34 80 23 2B ED 60 0E  .3.#+.`..4.#+.`.
0560: 01 35 80 23 5C 00 36 80  5C 01 36 80 9A 52 0D 80  .5.#\.6.\.6..R..
0570: F0 FF FF 7F F0 FF FF 7F  79 30 30 31 45 0D 80 F0  ........y001E...
0580: FF FF 7F F0 FF FF 7F 79  30 30 32 02 80 4A ED 60  .......y002..J.`
0590: 0E 01 5F 60 0E 01 4A 5F  60 0E 01 ED 60 0E 01 6F  .._`..J_`...`..o
05A0: 76 5F 60 0E 01 2B 5F 60  0E 01 37 80 23 2B 5F 60  v_`..+_`..7.#+_`
05B0: 0E 01 38 80 23 2B 5F 60  0E 01 39 80 23 55 0D 80  ..8.#+_`..9.#U..
05C0: F0 FF FF 7F F0 FF FF 7F  79 30 30 32 45 0D 80 F0  ........y002E...
05D0: FF FF 7F F0 FF FF 7F 79  30 30 33 02 80 27 03 ED  .......y003..'..
05E0: 60 0E 01 09 2B ED 60 0E  01 3A 80 23 2B ED 60 0E  `...+.`..:.#+.`.
05F0: 01 3B 80 23 1C 13 80 52  0D 80 F0 FF FF 7F F0 FF  .;.#...R........
0600: FF 7F 79 30 30 33 45 05  80 5F 60 0E 01 5F 60 0E  ..y003E.._`.._`.
0610: 01 6F 76 6C 31 02 80 45  0D 80 F0 FF FF 7F F0 FF  .ovl1..E........
0620: FF 7F 79 30 30 34 02 80  55 0D 80 F0 FF FF 7F F0  ..y004..U.......
0630: FF FF 7F 79 30 30 34 2B  5F 60 0E 01 3C 80 23 1C  ...y004+_`..<.#.
0640: 1E 80 2B 5F 60 0E 01 3D  80 23 45 05 80 F0 FF FF  ..+_`..=.#E.....
0650: 7F F0 FF FF 7F 6F 76 6C  31 02 80 45 0D 80 F0 FF  .....ovl1..E....
0660: FF 7F F0 FF FF 7F 79 30  30 35 02 80 1C 13 80 2B  ......y005.....+
0670: 5F 60 0E 01 3E 80 23 1C  13 80 2B ED 60 0E 01 3F  _`..>.#...+.`..?
0680: 80 23 2B 5F 60 0E 01 40  80 23 55 0D 80 F0 FF FF  .#+_`..@.#U.....
0690: 7F F0 FF FF 7F 79 30 30  35 27 03 ED 60 0E 01 0A  .....y005'..`...
06A0: 1C 1E 80 7C 00 ED 60 0E  01 2B ED 60 0E 01 41 80  ...|..`..+.`..A.
06B0: 23 7C 01 ED 60 0E 01 45  05 80 F0 FF FF 7F F0 FF  #|..`..E........
06C0: FF 7F 6F 76 6C 31 02 80  45 0D 80 F0 FF FF 7F F0  ..ovl1..E.......
06D0: FF FF 7F 79 30 30 36 02  80 1C 42 80 7C 00 ED 60  ...y006...B.|..`
06E0: 0E 01 7C 01 ED 60 0E 01  2B 5F 60 0E 01 43 80 23  ..|..`..+_`..C.#
06F0: 2B 5F 60 0E 01 44 80 23  55 0D 80 F0 FF FF 7F F0  +_`..D.#U.......
0700: FF FF 7F 79 30 30 36 45  0D 80 F0 FF FF 7F F0 FF  ...y006E........
0710: FF 7F 79 30 30 62 02 80  55 0D 80 F0 FF FF 7F F0  ..y00b..U.......
0720: FF FF 7F 79 30 30 62 2B  ED 60 0E 01 45 80 23 27  ...y00b+.`..E.#'
0730: 03 5F 60 0E 01 0A 2B 5F  60 0E 01 46 80 23 27 03  ._`...+_`..F.#'.
0740: 5F 60 0E 01 0B 45 0D 80  F0 FF FF 7F F0 FF FF 7F  _`...E..........
0750: 79 30 30 37 02 80 55 0D  80 F0 FF FF 7F F0 FF FF  y007..U.........
0760: 7F 79 30 30 37 27 03 ED  60 0E 01 07 2B ED 60 0E  .y007'..`...+.`.
0770: 01 47 80 7B 5F 60 0E 01  4B 5F 60 0E 01 48 80 6F  .G.{_`..K_`..H.o
0780: 76 5F 60 0E 01 23 27 03  5F 60 0E 01 09 1C 0E 80  v_`..#'._`......
0790: 27 03 ED 60 0E 01 08 45  0D 80 F0 FF FF 7F F0 FF  '..`...E........
07A0: FF 7F 79 30 30 38 02 80  2B 5F 60 0E 01 49 80 23  ..y008..+_`..I.#
07B0: 2A 03 5F 60 0E 01 4A ED  60 0E 01 5F 60 0E 01 2B  *._`..J.`.._`..+
07C0: ED 60 0E 01 4A 80 23 55  0D 80 F0 FF FF 7F F0 FF  .`..J.#U........
07D0: FF 7F 79 30 30 38 4A 5F  60 0E 01 ED 60 0E 01 6F  ..y008J_`...`..o
07E0: 76 5F 60 0E 01 7B 5F 60  0E 01 2B 5F 60 0E 01 4B  v_`..{_`..+_`..K
07F0: 80 23 45 05 80 F0 FF FF  7F F0 FF FF 7F 6F 76 6C  .#E..........ovl
0800: 31 02 80 45 0D 80 F0 FF  FF 7F F0 FF FF 7F 79 30  1..E..........y0
0810: 30 39 02 80 1C 0E 80 2B  5F 60 0E 01 4C 80 29 03  09.....+_`..L.).
0820: ED 60 0E 01 05 92 01 F0  FF FF 7F 37 4D 80 4E 80  .`.........7M.N.
0830: 09 80 02 80 79 00 F0 FF  FF 7F ED 60 0E 01 32 4F  ....y......`..2O
0840: 80 23 5D 02 80 50 80 55  0D 80 F0 FF FF 7F F0 FF  .#]..P.U........
0850: FF 7F 79 30 30 39 45 05  80 F0 FF FF 7F F0 FF FF  ..y009E.........
0860: 7F 6F 76 6C 31 02 80 45  0D 80 F0 FF FF 7F F0 FF  .ovl1..E........
0870: FF 7F 78 30 30 30 02 80  55 0D 80 F0 FF FF 7F F0  ..x000..U.......
0880: FF FF 7F 78 30 30 30 92  00 F0 FF FF 7F 27 03 B4  ...x000......'..
0890: 60 0E 01 02 45 0D 80 F0  FF FF 7F F0 FF FF 7F 78  `...E..........x
08A0: 30 30 31 02 80 27 03 ED  60 0E 01 06 1C 1A 80 03  001..'..`.......
08B0: 04 00 51 80 1A E3 09 32  4F 80 1F 00 05 00 06 00  ..Q....2O.......
08C0: 07 00 1F 01 1F 00 52 80  53 80 09 80 1F 01 27 03  ......R.S.....'.
08D0: B4 60 0E 01 03 1F 00 54  80 55 80 56 80 1F 01 55  .`.....T.U.V...U
08E0: 0D 80 F0 FF FF 7F F0 FF  FF 7F 78 30 30 31 2A 03  ..........x001*.
08F0: ED 60 0E 01 1C 1E 80 2B  ED 60 0E 01 57 80 23 4A  .`.....+.`..W.#J
0900: ED 60 0E 01 F0 FF FF 7F  1C 0E 80 45 0D 80 F0 FF  .`.........E....
0910: FF 7F F0 FF FF 7F 78 30  30 32 02 80 6F 76 ED 60  ......x002..ov.`
0920: 0E 01 1C 58 80 27 03 ED  60 0E 01 09 2B ED 60 0E  ...X.'..`...+.`.
0930: 01 59 80 23 2B ED 60 0E  01 5A 80 23 29 03 ED 60  .Y.#+.`..Z.#)..`
0940: 0E 01 0A 7B ED 60 0E 01  4B ED 60 0E 01 02 80 6F  ...{.`..K.`....o
0950: 76 ED 60 0E 01 52 0D 80  F0 FF FF 7F F0 FF FF 7F  v.`..R..........
0960: 78 30 30 32 45 05 80 F0  FF FF 7F F0 FF FF 7F 6F  x002E..........o
0970: 76 6C 31 02 80 45 0D 80  F0 FF FF 7F F0 FF FF 7F  vl1..E..........
0980: 78 30 30 33 02 80 1C 13  80 2B ED 60 0E 01 5B 80  x003.....+.`..[.
0990: 1C 1A 80 45 05 80 F0 FF  FF 7F F0 FF FF 7F 66 64  ...E..........fd
09A0: 6F 32 02 80 55 05 80 F0  FF FF 7F F0 FF FF 7F 66  o2..U..........f
09B0: 64 6F 32 52 0D 80 F0 FF  FF 7F F0 FF FF 7F 78 30  do2R..........x0
09C0: 30 33 1C 05 80 23 5C 00  5C 80 5C 01 5C 80 46 00  03...#\.\.\.\.F.
09D0: 45 05 80 F0 FF FF 7F F0  FF FF 7F 66 64 69 32 02  E..........fdi2.
09E0: 80 21 00 3B F8 FF FF 7F  05 00 06 00 07 00 3A F8  .!.;..........:.
09F0: FF FF 7F 08 00 17 09 00  08 00 04 00 16 0A 00 08  ................
0A00: 00 04 00 07 05 00 09 00  07 06 00 0A 00 1B 17 09  ................
0A10: 00 08 00 04 00 16 0A 00  08 00 04 00 07 05 00 09  ................
0A20: 00 07 06 00 0A 00 1B                              .......         
```

#### Opcodes

```
  0: 0x000B [0x20] SET_CLI_EVENT_UC_FLAG: Lock player control
  1: 0x000D [0x46] CAMERA_CONTROL: Disable user control
  2: 0x000F [0x42] SET_CLI_EVENT_CANCEL_DATA()
  3: 0x0010 [0x75] LOAD_ROOM(Load indoor room, room=335*)
  4: 0x0014 [0x75] LOAD_ROOM(No action)
  5: 0x0016 [0x45] LOAD_SCHEDULED_TASK: Load scheduler "fdo1" with entities [LocalPlayer, LocalPlayer], work=[200*, 0*]
  6: 0x0027 [0x55] WAIT_LOAD_SCHEDULER: Wait for scheduler "fdo1" with entities [LocalPlayer, LocalPlayer], work=200*
  7: 0x0036 [0x38] SET_CLIENT_EVENT_MODE(mode=3*)
  8: 0x0039 [0x94] LocalPlayer->Render.Flags3 ^= 0x01
  9: 0x003F [0x37] UPDATE_EVENT_POSITION_AND_DIR: x=-301.528*, z=95.407*, y=-9.199*, direction=265.2*
 10: 0x0048 [0x5C] MUSIC_CONTROL: Set Idle (Day) music to song 127*
 11: 0x004C [0x5C] MUSIC_CONTROL: Set Idle (Night) music to song 127*
 12: 0x0050 [0x97] SAVE_SET_WIND_VALUES(wind_base=0x8002, wind_width=0x800C)
 13: 0x0055 [0x4E] SET_ENTITY_HIDE_FLAG: Show Ulmia (ID: 17719533/0x010E60ED)
 14: 0x005B [0x45] LOAD_SCHEDULED_TASK: Load scheduler "z000" with entities [LocalPlayer, LocalPlayer], work=[80*, 0*]
 15: 0x006C [0x45] LOAD_SCHEDULED_TASK: Load scheduler "fdi1" with entities [LocalPlayer, LocalPlayer], work=[200*, 0*]
 16: 0x007D [0x4A] Hinaree (ID: 17719391/0x010E605F) looks at LocalPlayer
 17: 0x0086 [0x1C] WAIT(10* ticks)
 18: 0x0089 [0x55] WAIT_LOAD_SCHEDULER: Wait for scheduler "fdi1" with entities [LocalPlayer, LocalPlayer], work=200*
 19: 0x0098 [0x6F] WAIT_FRAME_DELAY: Yield until WaitTime reaches zero
 20: 0x0099 [0x76] CHECK_ENTITY_RENDER_FLAGS: Wait until Hinaree (ID: 17719391/0x010E605F) Render.Flags0 and Render.Flags3 conditions are met
 21: 0x009E [0x27] REQ_SET(priority=0x03, entity_id=Hinaree (ID: 17719391/0x010E605F), tag_num=0x0A)
 22: 0x00A5 [0x2B] Hinaree (ID: 17719391/0x010E605F) [9593*]:
     "You say you met with Louverance? How was the young fellow?"
 23: 0x00AC [0x23] WAIT_FOR_DIALOG_INTERACTION
 24: 0x00AD [0x2B] Hinaree (ID: 17719391/0x010E605F) [9594*]:
     "I see... He rarely visits any more. I have been so worried. If anything were to happen to him, my late husband would be devastated."
 25: 0x00B4 [0x23] WAIT_FOR_DIALOG_INTERACTION
 26: 0x00B5 [0x27] REQ_SET(priority=0x03, entity_id=Hinaree (ID: 17719391/0x010E605F), tag_num=0x0B)
 27: 0x00BC [0x2B] Hinaree (ID: 17719391/0x010E605F) [9595*]:
     "Hm? The Multinational Expedition? Why, I have not heard that name for thirty years..."
 28: 0x00C3 [0x23] WAIT_FOR_DIALOG_INTERACTION
 29: 0x00C4 [0x2A] GET_REQ_LEVEL(level=3, entity_id=Hinaree (ID: 17719391/0x010E605F))
 30: 0x00CA [0x7B] Hinaree (ID: 17719391/0x010E605F) stops talking
 31: 0x00CF [0x4B] UPDATE_ENTITY_YAW(entity=Hinaree (ID: 17719391/0x010E605F), yaw=0.0*)
 32: 0x00D6 [0x6F] WAIT_FRAME_DELAY: Yield until WaitTime reaches zero
 33: 0x00D7 [0x76] CHECK_ENTITY_RENDER_FLAGS: Wait until Hinaree (ID: 17719391/0x010E605F) Render.Flags0 and Render.Flags3 conditions are met
 34: 0x00DC [0x2B] Hinaree (ID: 17719391/0x010E605F) [9596*]:
     "Yes, I remember it like it was yesterday... Back then, my husband and I lived in a manor just outside of the village of La Vaule, though I think the area is called Davoi now."
 35: 0x00E3 [0x23] WAIT_FOR_DIALOG_INTERACTION
 36: 0x00E4 [0x27] REQ_SET(priority=0x03, entity_id=Hinaree (ID: 17719391/0x010E605F), tag_num=0x0C)
 37: 0x00EB [0x1C] WAIT(30* ticks)
 38: 0x00EE [0x52] END_LOAD_SCHEDULER: End scheduler "z000" with entities [LocalPlayer, LocalPlayer], work=80*
 39: 0x00FD [0x45] LOAD_SCHEDULED_TASK: Load scheduler "ovl1" with entities [LocalPlayer, LocalPlayer], work=[200*, 0*]
 40: 0x010E [0x45] LOAD_SCHEDULED_TASK: Load scheduler "z002" with entities [LocalPlayer, LocalPlayer], work=[80*, 0*]
 41: 0x011F [0x2B] Hinaree (ID: 17719391/0x010E605F) [9597*]:
     "There was a monastery in the center of the village. When Muchavatte, the papsque at the time, visited the monastery, he would often stop by our residence."
 42: 0x0126 [0x23] WAIT_FOR_DIALOG_INTERACTION
 43: 0x0127 [0x2B] Hinaree (ID: 17719391/0x010E605F) [9598*]:
     "I recall His Holiness mentioning that the expedition was called to ascertain certain information brought forth by the Bastokan government."
 44: 0x012E [0x23] WAIT_FOR_DIALOG_INTERACTION
 45: 0x012F [0x55] WAIT_LOAD_SCHEDULER: Wait for scheduler "z002" with entities [LocalPlayer, LocalPlayer], work=80*
 46: 0x013E [0x27] REQ_SET(priority=0x03, entity_id=Hinaree (ID: 17719391/0x010E605F), tag_num=0x0D)
 47: 0x0145 [0x45] LOAD_SCHEDULED_TASK: Load scheduler "z001" with entities [LocalPlayer, LocalPlayer], work=[80*, 0*]
 48: 0x0156 [0x2B] Hinaree (ID: 17719391/0x010E605F) [9599*]:
     "At that time, the Humes claimed that there was a powerful force of some sort hidden deep within the forbidden Northlands."
 49: 0x015D [0x23] WAIT_FOR_DIALOG_INTERACTION
 50: 0x015E [0x2A] GET_REQ_LEVEL(level=3, entity_id=Hinaree (ID: 17719391/0x010E605F))
 51: 0x0164 [0x4A] Hinaree (ID: 17719391/0x010E605F) looks at LocalPlayer
 52: 0x016D [0x2B] Hinaree (ID: 17719391/0x010E605F) [9600*]:
     "Of course, the papsque could not fully believe the stories of those conniving Bastokers."
 53: 0x0174 [0x23] WAIT_FOR_DIALOG_INTERACTION
 54: 0x0175 [0x2B] Hinaree (ID: 17719391/0x010E605F) [9601*]:
     "However, it was my husband who suggested that this powerful force could be the Gates of Paradise..."
 55: 0x017C [0x23] WAIT_FOR_DIALOG_INTERACTION
 56: 0x017D [0x27] REQ_SET(priority=0x03, entity_id=Door:Count's Manor (ID: 17719476/0x010E60B4), tag_num=0x02)
 57: 0x0184 [0x1C] WAIT(15* ticks)
 58: 0x0187 [0x27] REQ_SET(priority=0x03, entity_id=Ulmia (ID: 17719533/0x010E60ED), tag_num=0x03)
 59: 0x018E [0x52] END_LOAD_SCHEDULER: End scheduler "z001" with entities [LocalPlayer, LocalPlayer], work=80*
 60: 0x019D [0x5D] SET_MUSIC_VOLUME(volume=0*, fade_time=120*)
 61: 0x01A2 [0x45] LOAD_SCHEDULED_TASK: Load scheduler "z003" with entities [LocalPlayer, LocalPlayer], work=[80*, 0*]
 62: 0x01B3 [0x2B] Ulmia (ID: 17719533/0x010E60ED) [9602*]:
     "Lady Hinaree! So you mean to say the cathedral had located the gates?"
 63: 0x01BA [0x2A] GET_REQ_LEVEL(level=3, entity_id=Ulmia (ID: 17719533/0x010E60ED))
 64: 0x01C0 [0x55] WAIT_LOAD_SCHEDULER: Wait for scheduler "z003" with entities [LocalPlayer, LocalPlayer], work=80*
 65: 0x01CF [0x4A] Hinaree (ID: 17719391/0x010E605F) looks at Ulmia (ID: 17719533/0x010E60ED)
 66: 0x01D8 [0x4A] LocalPlayer looks at Ulmia (ID: 17719533/0x010E60ED)
 67: 0x01E1 [0x23] WAIT_FOR_DIALOG_INTERACTION
 68: 0x01E2 [0x45] LOAD_SCHEDULED_TASK: Load scheduler "z004" with entities [LocalPlayer, LocalPlayer], work=[80*, 0*]
 69: 0x01F3 [0x2B] Hinaree (ID: 17719391/0x010E605F) [9603*]:
     "Why, it is...!"
 70: 0x01FA [0x23] WAIT_FOR_DIALOG_INTERACTION
 71: 0x01FB [0x55] WAIT_LOAD_SCHEDULER: Wait for scheduler "z004" with entities [LocalPlayer, LocalPlayer], work=80*
 72: 0x020A [0x45] LOAD_SCHEDULED_TASK: Load scheduler "ovl1" with entities [Hinaree (ID: 17719391/0x010E605F), Hinaree (ID: 17719391/0x010E605F)], work=[200*, 0*]
 73: 0x021B [0x45] LOAD_SCHEDULED_TASK: Load scheduler "z005" with entities [LocalPlayer, LocalPlayer], work=[80*, 0*]
 74: 0x022C [0x55] WAIT_LOAD_SCHEDULER: Wait for scheduler "z005" with entities [LocalPlayer, LocalPlayer], work=80*
 75: 0x023B [0x27] REQ_SET(priority=0x03, entity_id=Door:Count's Manor (ID: 17719476/0x010E60B4), tag_num=0x03)
 76: 0x0242 [0x1C] WAIT(120* ticks)
 77: 0x0245 [0x5C] MUSIC_CONTROL: Set Idle (Day) music to song 234*
 78: 0x0249 [0x5C] MUSIC_CONTROL: Set Idle (Night) music to song 234*
 79: 0x024D [0x29] REQ_SET_WAIT(priority=0x03, entity_id=Ulmia (ID: 17719533/0x010E60ED), tag_num=0x04)
 80: 0x0254 [0x4A] Hinaree (ID: 17719391/0x010E605F) looks at Ulmia (ID: 17719533/0x010E60ED)
 81: 0x025D [0x4A] LocalPlayer looks at Ulmia (ID: 17719533/0x010E60ED)
 82: 0x0266 [0x6F] WAIT_FRAME_DELAY: Yield until WaitTime reaches zero
 83: 0x0267 [0x76] CHECK_ENTITY_RENDER_FLAGS: Wait until Ulmia (ID: 17719533/0x010E60ED) Render.Flags0 and Render.Flags3 conditions are met
 84: 0x026C [0x9A] WAIT_MUSIC_SERVER()
 85: 0x026D [0x1C] WAIT(60* ticks)
 86: 0x0270 [0x45] LOAD_SCHEDULED_TASK: Load scheduler "ovl1" with entities [Hinaree (ID: 17719391/0x010E605F), Hinaree (ID: 17719391/0x010E605F)], work=[200*, 0*]
 87: 0x0281 [0x45] LOAD_SCHEDULED_TASK: Load scheduler "z006" with entities [LocalPlayer, LocalPlayer], work=[80*, 0*]
 88: 0x0292 [0x55] WAIT_LOAD_SCHEDULER: Wait for scheduler "z006" with entities [LocalPlayer, LocalPlayer], work=80*
 89: 0x02A1 [0x2B] Hinaree (ID: 17719391/0x010E605F) [9604*]:
     "Oh, how our little guest from Tavnazia has grown! And just look at how beautiful you've become!"
 90: 0x02A8 [0x23] WAIT_FOR_DIALOG_INTERACTION
 91: 0x02A9 [0x2B] Hinaree (ID: 17719391/0x010E605F) [9605*]:
     "I can assume that this adventurer is your acquaintance?"
 92: 0x02B0 [0x23] WAIT_FOR_DIALOG_INTERACTION
 93: 0x02B1 [0x79] Ulmia (ID: 17719533/0x010E60ED) looks at Avandale (ID: 17719371/0x010E604B) (Basic look)
 94: 0x02BB [0x27] REQ_SET(priority=0x03, entity_id=Ulmia (ID: 17719533/0x010E60ED), tag_num=0x07)
 95: 0x02C2 [0x1C] WAIT(15* ticks)
 96: 0x02C5 [0x45] LOAD_SCHEDULED_TASK: Load scheduler "z007" with entities [LocalPlayer, LocalPlayer], work=[80*, 0*]
 97: 0x02D6 [0x55] WAIT_LOAD_SCHEDULER: Wait for scheduler "z007" with entities [LocalPlayer, LocalPlayer], work=80*
 98: 0x02E5 [0x2B] Ulmia (ID: 17719533/0x010E60ED) [9606*]:
     "I apologize for my intrusion, Lady Hinaree. When I heard you speak of the Gates of Paradise, I could not control myself..."
 99: 0x02EC [0x23] WAIT_FOR_DIALOG_INTERACTION
100: 0x02ED [0x27] REQ_SET(priority=0x03, entity_id=Hinaree (ID: 17719391/0x010E605F), tag_num=0x0A)
101: 0x02F4 [0x2B] Hinaree (ID: 17719391/0x010E605F) [9607*]:
     "It is all right, my child. I am just so overwhelmed. I never imagined that we would meet again. What has it been, twenty years?"
102: 0x02FB [0x23] WAIT_FOR_DIALOG_INTERACTION
103: 0x02FC [0x27] REQ_SET(priority=0x03, entity_id=Hinaree (ID: 17719391/0x010E605F), tag_num=0x0B)
104: 0x0303 [0x79] Ulmia (ID: 17719533/0x010E60ED) looks at Hinaree (ID: 17719391/0x010E605F) (Basic look)
105: 0x030D [0x1C] WAIT(15* ticks)
106: 0x0310 [0x2B] Ulmia (ID: 17719533/0x010E60ED) [9608*]:
     "Yes. And I must once again express my greatest thanks for the kindness you showed me then."
107: 0x0317 [0x23] WAIT_FOR_DIALOG_INTERACTION
108: 0x0318 [0x27] REQ_SET(priority=0x03, entity_id=Ulmia (ID: 17719533/0x010E60ED), tag_num=0x08)
109: 0x031F [0x45] LOAD_SCHEDULED_TASK: Load scheduler "z008" with entities [LocalPlayer, LocalPlayer], work=[80*, 0*]
110: 0x0330 [0x2B] Hinaree (ID: 17719391/0x010E605F) [9609*]:
     "Oh, such a display of humility is not necessary. According to Mildaurion C Giloumet, you were a very special guest."
111: 0x0337 [0x23] WAIT_FOR_DIALOG_INTERACTION
112: 0x0338 [0x2B] Hinaree (ID: 17719391/0x010E605F) [9610*]:
     "I can still hear her words, "Please welcome into your home the world-renowned minstrel, Lady Ulmia.""
113: 0x033F [0x23] WAIT_FOR_DIALOG_INTERACTION
114: 0x0340 [0x2B] Hinaree (ID: 17719391/0x010E605F) [9611*]:
     "<Laugh> You were still so young, I wondered how and when you had become "world-renowned." It was then you told me that you were traveling with the cardinal as you wished to see Vana'diel."
115: 0x0347 [0x23] WAIT_FOR_DIALOG_INTERACTION
116: 0x0348 [0x55] WAIT_LOAD_SCHEDULER: Wait for scheduler "z008" with entities [LocalPlayer, LocalPlayer], work=80*
117: 0x0357 [0x45] LOAD_SCHEDULED_TASK: Load scheduler "z009" with entities [LocalPlayer, LocalPlayer], work=[80*, 0*]
118: 0x0368 [0x79] Ulmia (ID: 17719533/0x010E60ED) looks at Avandale (ID: 17719371/0x010E604B) (Basic look)
119: 0x0372 [0x1C] WAIT(10* ticks)
120: 0x0375 [0x2B] Ulmia (ID: 17719533/0x010E60ED) [9612*]:
     "Again, I apologize..."
121: 0x037C [0x23] WAIT_FOR_DIALOG_INTERACTION
122: 0x037D [0x1C] WAIT(60* ticks)
123: 0x0380 [0x52] END_LOAD_SCHEDULER: End scheduler "z009" with entities [LocalPlayer, LocalPlayer], work=80*
124: 0x038F [0x45] LOAD_SCHEDULED_TASK: Load scheduler "ovl1" with entities [Hinaree (ID: 17719391/0x010E605F), Hinaree (ID: 17719391/0x010E605F)], work=[200*, 0*]
125: 0x03A0 [0x45] LOAD_SCHEDULED_TASK: Load scheduler "z010" with entities [LocalPlayer, LocalPlayer], work=[80*, 0*]
126: 0x03B1 [0x55] WAIT_LOAD_SCHEDULER: Wait for scheduler "z010" with entities [LocalPlayer, LocalPlayer], work=80*
127: 0x03C0 [0x1C] WAIT(30* ticks)
128: 0x03C3 [0x27] REQ_SET(priority=0x03, entity_id=Hinaree (ID: 17719391/0x010E605F), tag_num=0x0A)
129: 0x03CA [0x2B] Hinaree (ID: 17719391/0x010E605F) [9613*]:
     "Yes, I remember now... Was there not another young lady with you?"
130: 0x03D1 [0x23] WAIT_FOR_DIALOG_INTERACTION
131: 0x03D2 [0x27] REQ_SET(priority=0x03, entity_id=Hinaree (ID: 17719391/0x010E605F), tag_num=0x0B)
132: 0x03D9 [0x79] Ulmia (ID: 17719533/0x010E60ED) looks at Hinaree (ID: 17719391/0x010E605F) (Basic look)
133: 0x03E3 [0x1C] WAIT(15* ticks)
134: 0x03E6 [0x7C] Ulmia (ID: 17719533/0x010E60ED)->Render.Flags2 |= 0x00
135: 0x03EC [0x2B] Ulmia (ID: 17719533/0x010E60ED) [9614*]:
     "..."
136: 0x03F3 [0x23] WAIT_FOR_DIALOG_INTERACTION
137: 0x03F4 [0x7C] Ulmia (ID: 17719533/0x010E60ED)->Render.Flags2 |= 0x01
138: 0x03FA [0x45] LOAD_SCHEDULED_TASK: Load scheduler "z011" with entities [LocalPlayer, LocalPlayer], work=[80*, 0*]
139: 0x040B [0x29] REQ_SET_WAIT(priority=0x03, entity_id=Avandale (ID: 17719371/0x010E604B), tag_num=0x0C)
140: 0x0412 [0x79] Hinaree (ID: 17719391/0x010E605F) looks at Avandale (ID: 17719371/0x010E604B) (Basic look)
141: 0x041C [0x2B] Hinaree (ID: 17719391/0x010E605F) [9615*]:
     "Oh, I am so sorry. I was not thinking. I did not realize that she..."
142: 0x0423 [0x23] WAIT_FOR_DIALOG_INTERACTION
143: 0x0424 [0x55] WAIT_LOAD_SCHEDULER: Wait for scheduler "z011" with entities [LocalPlayer, LocalPlayer], work=80*
144: 0x0433 [0x2B] Ulmia (ID: 17719533/0x010E60ED) [9616*]:
     "No, that is all right. She is still alive. She managed to escape the flames of the war with me."
