# Event 65535

## Metadata

| Field           | Value    |
|-----------------|----------|
| Event Index     | 15/23    |
| Offset          | 0x0067   |
| Data Size       | 43 bytes |
| Calculated Size | 43 bytes |
| Instructions    | 9        |

```
      00 01 02 03 04 05 06 07  08 09 0A 0B 0C 0D 0E 0F
      -- -- -- -- -- -- -- --  -- -- -- -- -- -- -- --
0060:                      32  08 80 1F 00 09 80 0A 80         2........
0070: 0B 80 1F 01 6F 4B 5D 92  06 01 00 80 6F 76 5D 92  ....oK].....ov].
0080: 06 01 5B 07 80 5D 92 06  01 5D 92 06 01 6B 65 69  ..[..]...]...kei
0090: 30 00                                             0.              
```

## Opcodes

```
  0: 0x0067 [0x32] ExtData[1]->MainSpeed = 16* * 0.1
  1: 0x006A [0x1F] MOVE_ENTITY: EventEntity moves to X=-186.946*, Z=57.946*, Y=-2.199*
  2: 0x0072 [0x1F] MOVE_ENTITY: Update entity position (mode=1)
  3: 0x0074 [0x6F] WAIT_FRAME_DELAY: Yield until WaitTime reaches zero
  4: 0x0075 [0x4B] UPDATE_ENTITY_YAW(entity=Excenmille (ID: 17207901/0x0106925D), yaw=0.0°*)
  5: 0x007C [0x6F] WAIT_FRAME_DELAY: Yield until WaitTime reaches zero
  6: 0x007D [0x76] CHECK_ENTITY_RENDER_FLAGS: Wait until Excenmille (ID: 17207901/0x0106925D) Render.Flags0 and Render.Flags3 conditions are met
  7: 0x0082 [0x5B] LOAD_EXT_SCHEDULER: Load scheduler "kei0" with entities [Excenmille (ID: 17207901/0x0106925D), Excenmille (ID: 17207901/0x0106925D)], work=1301*
  8: 0x0091 [0x00] END_REQSTACK()
```
