# Event 65535

## Metadata

| Field           | Value    |
|-----------------|----------|
| Event Index     | 6/64     |
| Offset          | 0x0047   |
| Data Size       | 50 bytes |
| Calculated Size | 50 bytes |
| Instructions    | 8        |

```
      00 01 02 03 04 05 06 07  08 09 0A 0B 0C 0D 0E 0F
      -- -- -- -- -- -- -- --  -- -- -- -- -- -- -- --
0040:                      32  0A 80 1F 00 0B 80 0C 80         2........
0050: 02 80 1F 01 1E 18 D0 0E  01 1C 0D 80 66 05 80 2D  ............f..-
0060: D0 0E 01 2D D0 0E 01 70  61 73 30 53 2D D0 0E 01  ...-...pas0S-...
0070: 2D D0 0E 01 70 61 73 30  00                       -...pas0.       
```

## Opcodes

```
  0: 0x0047 [0x32] ExtData[1]->MainSpeed = 13* * 0.1
  1: 0x004A [0x1F] MOVE_ENTITY: EventEntity moves to X=66.635*, Z=-3.659*, Y=-13.999*
  2: 0x0052 [0x1F] MOVE_ENTITY: Update entity position (mode=1)
  3: 0x0054 [0x1E] EventEntity looks at Lucius (ID: 17747992/0x010ED018) and starts talking
  4: 0x0059 [0x1C] WAIT(30* ticks)
  5: 0x005C [0x66] LOAD_EXT_SCHEDULER_MAIN(work_offset=0*, entity1=Naji (ID: 17748013/0x010ED02D), entity2=Naji (ID: 17748013/0x010ED02D), action="pas0")
  6: 0x006B [0x53] WAIT_SCHEDULER_TASK(entity1=Naji (ID: 17748013/0x010ED02D), entity2=Naji (ID: 17748013/0x010ED02D), action_id="pas0")
  7: 0x0078 [0x00] END_REQSTACK()
```
