# Event 65535

## Metadata

| Field           | Value    |
|-----------------|----------|
| Event Index     | 39/64    |
| Offset          | 0x0274   |
| Data Size       | 51 bytes |
| Calculated Size | 51 bytes |
| Instructions    | 9        |

```
      00 01 02 03 04 05 06 07  08 09 0A 0B 0C 0D 0E 0F
      -- -- -- -- -- -- -- --  -- -- -- -- -- -- -- --
0270:             1F 00 5C 80  65 80 64 80 1F 01 4A 2D      ..\.e.d...J-
0280: D0 0E 01 1D D0 0E 01 1C  2C 80 66 66 80 2D D0 0E  ........,.ff.-..
0290: 01 2D D0 0E 01 6B 62 61  32 1C 2C 80 1F 00 59 80  .-...kba2.,...Y.
02A0: 67 80 64 80 1F 01 00                              g.d....         
```

## Opcodes

```
  0: 0x0274 [0x1F] MOVE_ENTITY: EventEntity moves to X=89.000*, Z=9.000*, Y=-20.185*
  1: 0x027C [0x1F] MOVE_ENTITY: Update entity position (mode=1)
  2: 0x027E [0x4A] Naji (ID: 17748013/0x010ED02D) looks at Alois (ID: 17747997/0x010ED01D)
  3: 0x0287 [0x1C] WAIT(60* ticks)
  4: 0x028A [0x66] LOAD_EXT_SCHEDULER_MAIN(work_offset=2*, entity1=Naji (ID: 17748013/0x010ED02D), entity2=Naji (ID: 17748013/0x010ED02D), action="kba2")
  5: 0x0299 [0x1C] WAIT(60* ticks)
  6: 0x029C [0x1F] MOVE_ENTITY: EventEntity moves to X=88.000*, Z=4.000*, Y=-20.185*
  7: 0x02A4 [0x1F] MOVE_ENTITY: Update entity position (mode=1)
  8: 0x02A6 [0x00] END_REQSTACK()
```
