# Event 938

## Metadata

| Field           | Value    |
|-----------------|----------|
| Event Index     | 47/64    |
| Offset          | 0x033E   |
| Data Size       | 34 bytes |
| Calculated Size | 34 bytes |
| Instructions    | 10       |

```
      00 01 02 03 04 05 06 07  08 09 0A 0B 0C 0D 0E 0F
      -- -- -- -- -- -- -- --  -- -- -- -- -- -- -- --
0330:                                            42 1E                B.
0340: F0 FF FF 7F 1C 0D 80 1D  76 80 23 66 05 80 2D D0  ........v.#f..-.
0350: 0E 01 2D D0 0E 01 74 6C  6B 30 1D 77 80 23 21 00  ..-...tlk0.w.#!.
```

## Opcodes

```
  0: 0x033E [0x42] SET_CLI_EVENT_CANCEL_DATA()
  1: 0x033F [0x1E] EventEntity looks at LocalPlayer and starts talking
  2: 0x0344 [0x1C] WAIT(30* ticks)
  3: 0x0347 [0x1D] PRINT_EVENT_MESSAGE(message_id=10713*)
    → "Hm? What are you doing here?\u0007I thought I told you to go to the palace in Jeuno.\u007F1\u0000\u0007"
  4: 0x034A [0x23] WAIT_FOR_DIALOG_INTERACTION
  5: 0x034B [0x66] LOAD_EXT_SCHEDULER_MAIN(work_offset=0*, entity1=Naji (ID: 17748013/0x010ED02D), entity2=Naji (ID: 17748013/0x010ED02D), action="tlk0")
  6: 0x035A [0x1D] PRINT_EVENT_MESSAGE(message_id=10714*)
    → "What am I still doing here?\u0007Well...you see I...I still have some \u00072cleaning up\u00073 to do...\u007F1\u0000\u0007"
  7: 0x035D [0x23] WAIT_FOR_DIALOG_INTERACTION
  8: 0x035E [0x21] END_EVENT
  9: 0x035F [0x00] END_REQSTACK()
```
