# Event 939

## Metadata

| Field           | Value    |
|-----------------|----------|
| Event Index     | 48/64    |
| Offset          | 0x0360   |
| Data Size       | 34 bytes |
| Calculated Size | 34 bytes |
| Instructions    | 10       |

```
      00 01 02 03 04 05 06 07  08 09 0A 0B 0C 0D 0E 0F
      -- -- -- -- -- -- -- --  -- -- -- -- -- -- -- --
0360: 42 1E F0 FF FF 7F 1C 0D  80 1D 78 80 23 66 05 80  B.........x.#f..
0370: 2D D0 0E 01 2D D0 0E 01  74 6C 6B 30 1D 79 80 23  -...-...tlk0.y.#
0380: 21 00                                             !.              
```

## Opcodes

```
  0: 0x0360 [0x42] SET_CLI_EVENT_CANCEL_DATA()
  1: 0x0361 [0x1E] EventEntity looks at LocalPlayer and starts talking
  2: 0x0366 [0x1C] WAIT(30* ticks)
  3: 0x0369 [0x1D] PRINT_EVENT_MESSAGE(message_id=10715*)
    → "Why are you here in Bastok?\u0007Have you turned down your place in the Wajaoam Infiltration Operation?\u007F1\u0000\u0007"
  4: 0x036C [0x23] WAIT_FOR_DIALOG_INTERACTION
  5: 0x036D [0x66] LOAD_EXT_SCHEDULER_MAIN: Load scheduler "tlk0" with entities [Naji (ID: 17748013/0x010ED02D), Naji (ID: 17748013/0x010ED02D)], work=0*
  6: 0x037C [0x1D] PRINT_EVENT_MESSAGE(message_id=10716*)
    → "Well, that's your choice.\u0007Me? I was collared for extra duties when I came back to pick something up...\u007F1\u0000\u0007"
  7: 0x037F [0x23] WAIT_FOR_DIALOG_INTERACTION
  8: 0x0380 [0x21] END_EVENT
  9: 0x0381 [0x00] END_REQSTACK()
```
