# Event 940

## Metadata

| Field           | Value    |
|-----------------|----------|
| Event Index     | 49/64    |
| Offset          | 0x0382   |
| Data Size       | 34 bytes |
| Calculated Size | 34 bytes |
| Instructions    | 10       |

```
      00 01 02 03 04 05 06 07  08 09 0A 0B 0C 0D 0E 0F
      -- -- -- -- -- -- -- --  -- -- -- -- -- -- -- --
0380:       42 1E F0 FF FF 7F  1C 0D 80 1D 7A 80 23 66    B.........z.#f
0390: 05 80 2D D0 0E 01 2D D0  0E 01 74 6C 6B 30 1D 7B  ..-...-...tlk0.{
03A0: 80 23 21 00                                       .#!.            
```

## Opcodes

```
  0: 0x0382 [0x42] SET_CLI_EVENT_CANCEL_DATA()
  1: 0x0383 [0x1E] EventEntity looks at LocalPlayer and starts talking
  2: 0x0388 [0x1C] WAIT(30* ticks)
  3: 0x038B [0x1D] PRINT_EVENT_MESSAGE(message_id=10717*)
    → "What are doing here?\u0007I thought I ordered you to continue the mission with the King of Hearts?\u007F1\u0000\u0007"
  4: 0x038E [0x23] WAIT_FOR_DIALOG_INTERACTION
  5: 0x038F [0x66] LOAD_EXT_SCHEDULER_MAIN(work_offset=0*, entity1=Naji (ID: 17748013/0x010ED02D), entity2=Naji (ID: 17748013/0x010ED02D), action="tlk0")
  6: 0x039E [0x1D] PRINT_EVENT_MESSAGE(message_id=10718*)
    → "I wouldn't worry about the other members of the team--their wounds are serious, but stable.\u0007It's a miracle anyone survived that crash...\u007F1\u0000\u0007"
  7: 0x03A1 [0x23] WAIT_FOR_DIALOG_INTERACTION
  8: 0x03A2 [0x21] END_EVENT
  9: 0x03A3 [0x00] END_REQSTACK()
```
