# Event 941

## Metadata

| Field           | Value    |
|-----------------|----------|
| Event Index     | 50/64    |
| Offset          | 0x03A4   |
| Data Size       | 34 bytes |
| Calculated Size | 34 bytes |
| Instructions    | 10       |

```
      00 01 02 03 04 05 06 07  08 09 0A 0B 0C 0D 0E 0F
      -- -- -- -- -- -- -- --  -- -- -- -- -- -- -- --
03A0:             42 1E F0 FF  FF 7F 1C 0D 80 1D 7C 80      B.........|.
03B0: 23 66 05 80 2D D0 0E 01  2D D0 0E 01 74 6C 6B 30  #f..-...-...tlk0
03C0: 1D 7D 80 23 21 00                                 .}.#!.          
```

## Opcodes

```
  0: 0x03A4 [0x42] SET_CLI_EVENT_CANCEL_DATA()
  1: 0x03A5 [0x1E] EventEntity looks at LocalPlayer and starts talking
  2: 0x03AA [0x1C] WAIT(30* ticks)
  3: 0x03AD [0x1D] PRINT_EVENT_MESSAGE(message_id=10720*)
    → "This is confidential information, but I hear an allied force is assembling in Jeuno to invade the Empire in retaliation for the Endymion...\u007F1\u0000\u0007"
  4: 0x03B0 [0x23] WAIT_FOR_DIALOG_INTERACTION
  5: 0x03B1 [0x66] LOAD_EXT_SCHEDULER_MAIN: Load scheduler "tlk0" with entities [Naji (ID: 17748013/0x010ED02D), Naji (ID: 17748013/0x010ED02D)], work=0*
  6: 0x03C0 [0x1D] PRINT_EVENT_MESSAGE(message_id=10721*)
    → "A fleet of airships will be making a lightning assault on Al Zahbi.\u0007I wish I could help you, but I've been ordered to assist with the preparations...\u007F1\u0000\u0007"
  7: 0x03C3 [0x23] WAIT_FOR_DIALOG_INTERACTION
  8: 0x03C4 [0x21] END_EVENT
  9: 0x03C5 [0x00] END_REQSTACK()
```
