# Event 971

## Metadata

| Field           | Value    |
|-----------------|----------|
| Event Index     | 52/64    |
| Offset          | 0x03D5   |
| Data Size       | 34 bytes |
| Calculated Size | 34 bytes |
| Instructions    | 10       |

```
      00 01 02 03 04 05 06 07  08 09 0A 0B 0C 0D 0E 0F
      -- -- -- -- -- -- -- --  -- -- -- -- -- -- -- --
03D0:                42 1E F0  FF FF 7F 1C 0D 80 66 05       B........f.
03E0: 80 2D D0 0E 01 2D D0 0E  01 74 6C 6B 30 1D 7F 80  .-...-...tlk0...
03F0: 23 1D 80 80 23 21 00                              #...#!.         
```

## Opcodes

```
  0: 0x03D5 [0x42] SET_CLI_EVENT_CANCEL_DATA()
  1: 0x03D6 [0x1E] EventEntity looks at LocalPlayer and starts talking
  2: 0x03DB [0x1C] WAIT(30* ticks)
  3: 0x03DE [0x66] LOAD_EXT_SCHEDULER_MAIN: Load scheduler "tlk0" with entities [Naji (ID: 17748013/0x010ED02D), Naji (ID: 17748013/0x010ED02D)], work=0*
  4: 0x03ED [0x1D] PRINT_EVENT_MESSAGE(message_id=10917*)
    → "They say that in the days of the Great War, there was a hero of the Republic who distinguished \u007F\u0005[himself/herself] so highly that \u007F\u0005[he/she] was bestowed the title of Mythril Musketeer Zero by President Prien himself.\u007F1\u0000\u0007"
  5: 0x03F0 [0x23] WAIT_FOR_DIALOG_INTERACTION
  6: 0x03F1 [0x1D] PRINT_EVENT_MESSAGE(message_id=10918*)
    → "\u007F\u0005[His/Her] identity was never made public, and \u007F\u0005[he/she] remains the only one to this day to receive the honor.\u0007What I wouldn't give for the chance to meet such a legend!\u007F1\u0000\u0007"
  7: 0x03F4 [0x23] WAIT_FOR_DIALOG_INTERACTION
  8: 0x03F5 [0x21] END_EVENT
  9: 0x03F6 [0x00] END_REQSTACK()
```
