# Event 261

## Metadata

| Field           | Value    |
|-----------------|----------|
| Event Index     | 9/11     |
| Offset          | 0x017B   |
| Data Size       | 34 bytes |
| Calculated Size | 34 bytes |
| Instructions    | 9        |

```
      00 01 02 03 04 05 06 07  08 09 0A 0B 0C 0D 0E 0F
      -- -- -- -- -- -- -- --  -- -- -- -- -- -- -- --
0170:                                   20 01 42 1E F0              .B..
0180: FF FF 7F 1C 00 80 1D 1C  80 23 45 15 80 F0 FF FF  .........#E.....
0190: 7F F0 FF FF 7F 71 73 74  63 08 80 21 00           .....qstc..!.   
```

## Opcodes

```
  0: 0x017B [0x20] SET_CLI_EVENT_UC_FLAG: Lock player control
  1: 0x017D [0x42] SET_CLI_EVENT_CANCEL_DATA()
  2: 0x017E [0x1E] EventEntity looks at LocalPlayer and starts talking
  3: 0x0183 [0x1C] WAIT(20* ticks)
  4: 0x0186 [0x1D] PRINT_EVENT_MESSAGE(message_id=8016*)
    → "Oh, thank you ever so much! This should give my next batch of stew some serious bang!\u0007Please, take this for your troubles.\u007F1\u0000\u0007"
  5: 0x0189 [0x23] WAIT_FOR_DIALOG_INTERACTION
  6: 0x018A [0x45] LOAD_SCHEDULED_TASK: Load scheduler "qstc" with entities [LocalPlayer, LocalPlayer], work=[201*, 0*]
  7: 0x019B [0x21] END_EVENT
  8: 0x019C [0x00] END_REQSTACK()
```
