# Event 24

## Metadata

| Field           | Value    |
|-----------------|----------|
| Event Index     | 10/16    |
| Offset          | 0x03DF   |
| Data Size       | 49 bytes |
| Calculated Size | 49 bytes |
| Instructions    | 11       |

```
      00 01 02 03 04 05 06 07  08 09 0A 0B 0C 0D 0E 0F
      -- -- -- -- -- -- -- --  -- -- -- -- -- -- -- --
03D0:                                               1E                 .
03E0: F0 FF FF 7F 1D 21 80 23  66 10 80 A9 00 02 01 A9  .....!.#f.......
03F0: 00 02 01 74 6C 6B 30 1D  22 80 23 66 10 80 A9 00  ...tlk0.".#f....
0400: 02 01 A9 00 02 01 74 6C  6B 31 1D 23 80 23 21 00  ......tlk1.#.#!.
```

## Opcodes

```
  0: 0x03DF [0x1E] EventEntity looks at LocalPlayer and starts talking
  1: 0x03E4 [0x1D] PRINT_EVENT_MESSAGE(message_id=7686*)
    → "Ulmia told me that we may never see Prishe again...\u007F1\u0000\u0007"
  2: 0x03E7 [0x23] WAIT_FOR_DIALOG_INTERACTION
  3: 0x03E8 [0x66] LOAD_EXT_SCHEDULER_MAIN: Load scheduler "tlk0" with entities [Sueleen (ID: 16908457/0x010200A9), Sueleen (ID: 16908457/0x010200A9)], work=10*
  4: 0x03F7 [0x1D] PRINT_EVENT_MESSAGE(message_id=7687*)
    → "...That Prishe is ready to sacrifice herself to the Wyrmking to save the world...\u007F1\u0000\u0007"
  5: 0x03FA [0x23] WAIT_FOR_DIALOG_INTERACTION
  6: 0x03FB [0x66] LOAD_EXT_SCHEDULER_MAIN: Load scheduler "tlk1" with entities [Sueleen (ID: 16908457/0x010200A9), Sueleen (ID: 16908457/0x010200A9)], work=10*
  7: 0x040A [0x1D] PRINT_EVENT_MESSAGE(message_id=7688*)
    → "But you won't let that happen, will you, \u0008? You'll find a way to save Prishe, Ulmia, and everybody, right?\u007F1\u0000\u0007"
  8: 0x040D [0x23] WAIT_FOR_DIALOG_INTERACTION
  9: 0x040E [0x21] END_EVENT
 10: 0x040F [0x00] END_REQSTACK()
```
