# Event 65535

## Metadata

| Field           | Value    |
|-----------------|----------|
| Event Index     | 49/61    |
| Offset          | 0x0404   |
| Data Size       | 27 bytes |
| Calculated Size | 27 bytes |
| Instructions    | 7        |

```
      00 01 02 03 04 05 06 07  08 09 0A 0B 0C 0D 0E 0F
      -- -- -- -- -- -- -- --  -- -- -- -- -- -- -- --
0400:             1F 00 79 80  7A 80 78 80 1F 01 6F 4A      ..y.z.x...oJ
0410: F7 D1 03 01 F8 D1 03 01  6F 76 F7 D1 03 01 00     ........ov..... 
```

## Opcodes

```
  0: 0x0404 [0x1F] MOVE_ENTITY: EventEntity moves to X=-611.981*, Z=-379.540*, Y=-18.000*
  1: 0x040C [0x1F] MOVE_ENTITY: Update entity position (mode=1)
  2: 0x040E [0x6F] WAIT_FRAME_DELAY: Yield until WaitTime reaches zero
  3: 0x040F [0x4A] Gadalar (ID: 17027575/0x0103D1F7) looks at Shayeeha (ID: 17027576/0x0103D1F8)
  4: 0x0418 [0x6F] WAIT_FRAME_DELAY: Yield until WaitTime reaches zero
  5: 0x0419 [0x76] CHECK_ENTITY_RENDER_FLAGS: Wait until Gadalar (ID: 17027575/0x0103D1F7) Render.Flags0 and Render.Flags3 conditions are met
  6: 0x041E [0x00] END_REQSTACK()
```
