# 17961681

## Common Data

| Field            | Value                    |
|------------------|--------------------------|
| Zone             | Escha - Ru'Aun (ID: 289) |
| Block Size       | 11288 bytes              |
| Total Events     | 7                        |
| References Count | 286                      |

## List of Events

| Event ID              | Entrypoint   |   Size |   Instructions |
|-----------------------|--------------|--------|----------------|
| [65535](#event-65535) | 0x0000       |      1 |              1 |
| [8](#event-8)         | 0x0001       |     39 |              8 |
| [3](#event-3)         | 0x0028       |      6 |              4 |
| [2](#event-2)         | 0x002E       |   3258 |            374 |
| [5](#event-5)         | 0x0CE8       |   1774 |            208 |
| [6](#event-6)         | 0x13D6       |   2541 |            285 |
| [7](#event-7)         | 0x1DC3       |   2481 |            273 |

## DAT References (imed_data)

|   Index | Hex Value   |   Dec Value |
|---------|-------------|-------------|
|       0 | 0x00C8      |         200 |
|       1 | 0x0000      |           0 |
|       2 | 0x1B88      |        7048 |
|       3 | 0x0001      |           1 |
|       4 | 0x001B      |          27 |
|       5 | 0x0005      |           5 |
|       6 | 0x0006      |           6 |
|       7 | 0x0007      |           7 |
|       8 | 0x0008      |           8 |
|       9 | 0xFFFFFF92  |  4294967186 |
|      10 | 0xFFF8F2A9  |  4294505129 |
|      11 | 0xFFFF7748  |  4294932296 |
|      12 | 0x0B60      |        2912 |
|      13 | 0xFFFFFE00  |  4294966784 |
|      14 | 0xFFF8FAA0  |  4294507168 |
|      15 | 0x040B      |        1035 |
|      16 | 0xFFFFFA1E  |  4294965790 |
|      17 | 0xFFF8DD56  |  4294499670 |
|      18 | 0xFFFF7A1B  |  4294933019 |
|      19 | 0x0C2F      |        3119 |
|      20 | 0x02FE      |         766 |
|      21 | 0xFFF8DEB5  |  4294500021 |
|      22 | 0x0BF5      |        3061 |
|      23 | 0x0394      |         916 |
|      24 | 0xFFF8E476  |  4294501494 |
|      25 | 0x0C44      |        3140 |
|      26 | 0x0003      |           3 |
|      27 | 0x03F9      |        1017 |
|      28 | 0xFFF8E40B  |  4294501387 |
|      29 | 0xFFFF756B  |  4294931819 |
|      30 | 0x0004      |           4 |
|      31 | 0xFFFF78EF  |  4294932719 |
|      32 | 0xFFF8E446  |  4294501446 |
|      33 | 0xFFFF7665  |  4294932069 |
|      34 | 0xFFFF7633  |  4294932019 |
|      35 | 0x001E      |          30 |
|      36 | 0x0F26      |        3878 |
|      37 | 0x0002      |           2 |
|      38 | 0x0F27      |        3879 |
|      39 | 0x02FD      |         765 |
|      40 | 0x000F      |          15 |
|      41 | 0x003C      |          60 |
|      42 | 0x0078      |         120 |
|      43 | 0x0096      |         150 |
|      44 | 0x0067      |         103 |
|      45 | 0x005A      |          90 |
|      46 | 0x0065      |         101 |
|      47 | 0x00B4      |         180 |
|      48 | 0x01A9      |         425 |
|      49 | 0x1CDF      |        7391 |
|      50 | 0x1CE0      |        7392 |
|      51 | 0x1CE1      |        7393 |
|      52 | 0x1CE2      |        7394 |
|      53 | 0x1CE3      |        7395 |
|      54 | 0x1CE4      |        7396 |
|      55 | 0x1CE5      |        7397 |
|      56 | 0x1CE6      |        7398 |
|      57 | 0x1CE7      |        7399 |
|      58 | 0x1CE8      |        7400 |
|      59 | 0x1CE9      |        7401 |
|      60 | 0x1CEA      |        7402 |
|      61 | 0x1CEB      |        7403 |
|      62 | 0x0280      |         640 |
|      63 | 0x1CEC      |        7404 |
|      64 | 0x1CED      |        7405 |
|      65 | 0x1CEE      |        7406 |
|      66 | 0x1CEF      |        7407 |
|      67 | 0x1CF0      |        7408 |
|      68 | 0x1CF1      |        7409 |
|      69 | 0x1CF2      |        7410 |
|      70 | 0x1CF3      |        7411 |
|      71 | 0x1CF4      |        7412 |
|      72 | 0x0075      |         117 |
|      73 | 0x0082      |         130 |
|      74 | 0x0294      |         660 |
|      75 | 0x012C      |         300 |
|      76 | 0x1CF5      |        7413 |
|      77 | 0x1CF6      |        7414 |
|      78 | 0x01AB      |         427 |
|      79 | 0x000A      |          10 |
|      80 | 0x1CF7      |        7415 |
|      81 | 0x0028      |          40 |
|      82 | 0x001D      |          29 |
|      83 | 0x1CF8      |        7416 |
|      84 | 0x1CF9      |        7417 |
|      85 | 0x1CFA      |        7418 |
|      86 | 0x1CFB      |        7419 |
|      87 | 0x1CFC      |        7420 |
|      88 | 0x1CFD      |        7421 |
|      89 | 0x1CFE      |        7422 |
|      90 | 0x1CFF      |        7423 |
|      91 | 0x1D00      |        7424 |
|      92 | 0x1D01      |        7425 |
|      93 | 0x0F28      |        3880 |
|      94 | 0x0076      |         118 |
|      95 | 0x0140      |         320 |
|      96 | 0x1D02      |        7426 |
|      97 | 0x1D03      |        7427 |
|      98 | 0xFFFFFB15  |  4294966037 |
|      99 | 0xFFF8FAC8  |  4294507208 |
|     100 | 0xFFFF7B30  |  4294933296 |
|     101 | 0x0B96      |        2966 |
|     102 | 0xFFFFF4A2  |  4294964386 |
|     103 | 0xFFF8F59D  |  4294505885 |
|     104 | 0x0C00      |        3072 |
|     105 | 0x00CF      |         207 |
|     106 | 0xFFF8F75E  |  4294506334 |
|     107 | 0x0B76      |        2934 |
|     108 | 0xFFFFFE8D  |  4294966925 |
|     109 | 0xFFF8DFDB  |  4294500315 |
|     110 | 0x0BB5      |        2997 |
|     111 | 0x1660      |        5728 |
|     112 | 0xFFF92C52  |  4294519890 |
|     113 | 0xFFFF5D81  |  4294925697 |
|     114 | 0x0BB6      |        2998 |
|     115 | 0x1EF8      |        7928 |
|     116 | 0xFFF9BAAF  |  4294556335 |
|     117 | 0xFFFEEE2D  |  4294897197 |
|     118 | 0xFFFFF4B9  |  4294964409 |
|     119 | 0xFFF95C9A  |  4294532250 |
|     120 | 0xFFFF458A  |  4294919562 |
|     121 | 0xFFFFCCAD  |  4294954157 |
|     122 | 0xFFF9BD5A  |  4294557018 |
|     123 | 0xFFFF3095  |  4294914197 |
|     124 | 0x1A245     |      107077 |
|     125 | 0xFFFD83A3  |  4294804387 |
|     126 | 0xFFFF6294  |  4294926996 |
|     127 | 0x0B90      |        2960 |
|     128 | 0x197BA     |      104378 |
|     129 | 0xFFFDA4F8  |  4294812920 |
|     130 | 0xFFFF57A5  |  4294924197 |
|     131 | 0x008F      |         143 |
|     132 | 0x006E      |         110 |
|     133 | 0x1D35      |        7477 |
|     134 | 0x1D36      |        7478 |
|     135 | 0xFFFF64D2  |  4294927570 |
|     136 | 0xFFF97073  |  4294537331 |
|     137 | 0xFFFF51C8  |  4294922696 |
|     138 | 0xFFFF6947  |  4294928711 |
|     139 | 0xFFF98642  |  4294542914 |
|     140 | 0xFFFF44F4  |  4294919412 |
|     141 | 0xFFFF7AFF  |  4294933247 |
|     142 | 0xFFF99A00  |  4294547968 |
|     143 | 0xFFFF48DC  |  4294920412 |
|     144 | 0x1B207     |      111111 |
|     145 | 0xFFFD612D  |  4294795565 |
|     146 | 0xFFFF667D  |  4294927997 |
|     147 | 0x1D37      |        7479 |
|     148 | 0x1D38      |        7480 |
|     149 | 0x1D39      |        7481 |
|     150 | 0x1D3A      |        7482 |
|     151 | 0x000D      |          13 |
|     152 | 0x1D3B      |        7483 |
|     153 | 0x1D3C      |        7484 |
|     154 | 0x1D3D      |        7485 |
|     155 | 0x1D3E      |        7486 |
|     156 | 0x1D3F      |        7487 |
|     157 | 0x1D40      |        7488 |
|     158 | 0xFFFF3DC9  |  4294917577 |
|     159 | 0xFFFE3F45  |  4294852421 |
|     160 | 0xFFFF2EA0  |  4294913696 |
|     161 | 0xFFFF619D  |  4294926749 |
|     162 | 0xFFFDDA32  |  4294826546 |
|     163 | 0xFFFF26D0  |  4294911696 |
|     164 | 0xFFFF2F16  |  4294913814 |
|     165 | 0xFFFE23A6  |  4294845350 |
|     166 | 0x1D41      |        7489 |
|     167 | 0x1D42      |        7490 |
|     168 | 0x1D44      |        7492 |
|     169 | 0x1D43      |        7491 |
|     170 | 0xFFFFFBAB  |  4294966187 |
|     171 | 0xFFF6A876  |  4294355062 |
|     172 | 0xFFFF29AC  |  4294912428 |
|     173 | 0xFFFFFEE4  |  4294967012 |
|     174 | 0xFFF6BA53  |  4294359635 |
|     175 | 0xFFFF2CEA  |  4294913258 |
|     176 | 0x041E      |        1054 |
|     177 | 0xFFFFF8BC  |  4294965436 |
|     178 | 0xFFF6DB6C  |  4294368108 |
|     179 | 0xFFF65120  |  4294332704 |
|     180 | 0xFFFF24D5  |  4294911189 |
|     181 | 0x0400      |        1024 |
|     182 | 0x0303      |         771 |
|     183 | 0x0E01      |        3585 |
|     184 | 0x1D45      |        7493 |
|     185 | 0x1D46      |        7494 |
|     186 | 0x1D47      |        7495 |
|     187 | 0x0064      |         100 |
|     188 | 0x1D48      |        7496 |
|     189 | 0x1D49      |        7497 |
|     190 | 0x0DFC      |        3580 |
|     191 | 0x1D4A      |        7498 |
|     192 | 0x1D4B      |        7499 |
|     193 | 0x1D4C      |        7500 |
|     194 | 0x1D4D      |        7501 |
|     195 | 0x1D4E      |        7502 |
|     196 | 0x1D4F      |        7503 |
|     197 | 0x1D50      |        7504 |
|     198 | 0x1D51      |        7505 |
|     199 | 0x1D52      |        7506 |
|     200 | 0x1D53      |        7507 |
|     201 | 0x0014      |          20 |
|     202 | 0x1D54      |        7508 |
|     203 | 0x1D55      |        7509 |
|     204 | 0x0E1A      |        3610 |
|     205 | 0x0050      |          80 |
|     206 | 0x1D56      |        7510 |
|     207 | 0x1D57      |        7511 |
|     208 | 0x1D58      |        7512 |
|     209 | 0x0DFB      |        3579 |
|     210 | 0x1D59      |        7513 |
|     211 | 0x1D5A      |        7514 |
|     212 | 0x1D5B      |        7515 |
|     213 | 0x1D5C      |        7516 |
|     214 | 0x1D5D      |        7517 |
|     215 | 0x1D5E      |        7518 |
|     216 | 0x1D5F      |        7519 |
|     217 | 0x1D60      |        7520 |
|     218 | 0x1D61      |        7521 |
|     219 | 0x1D62      |        7522 |
|     220 | 0x1D63      |        7523 |
|     221 | 0x1D64      |        7524 |
|     222 | 0x1D65      |        7525 |
|     223 | 0x1D66      |        7526 |
|     224 | 0x1D67      |        7527 |
|     225 | 0x004A      |          74 |
|     226 | 0x0E20      |        3616 |
|     227 | 0x009D      |         157 |
|     228 | 0x1D68      |        7528 |
|     229 | 0x1D69      |        7529 |
|     230 | 0x1D6A      |        7530 |
|     231 | 0x00C9      |         201 |
|     232 | 0xFFFFF77C  |  4294965116 |
|     233 | 0xFFF6BA92  |  4294359698 |
|     234 | 0xFFF66306  |  4294337286 |
|     235 | 0xFFFF2838  |  4294912056 |
|     236 | 0x0BF1      |        3057 |
|     237 | 0xFFFFFBAC  |  4294966188 |
|     238 | 0xFFF6ABF9  |  4294355961 |
|     239 | 0xFFFF2827  |  4294912039 |
|     240 | 0x0E00      |        3584 |
|     241 | 0x0300      |         768 |
|     242 | 0x0118      |         280 |
|     243 | 0x1D6B      |        7531 |
|     244 | 0x1D6C      |        7532 |
|     245 | 0x1D6D      |        7533 |
|     246 | 0x1D6E      |        7534 |
|     247 | 0x1D6F      |        7535 |
|     248 | 0x1D70      |        7536 |
|     249 | 0x1D71      |        7537 |
|     250 | 0x1D72      |        7538 |
|     251 | 0x1D73      |        7539 |
|     252 | 0x1D74      |        7540 |
|     253 | 0x1D75      |        7541 |
|     254 | 0x1D76      |        7542 |
|     255 | 0x0E21      |        3617 |
|     256 | 0x1D77      |        7543 |
|     257 | 0x01CC      |         460 |
|     258 | 0x1D79      |        7545 |
|     259 | 0x1D78      |        7544 |
|     260 | 0x1D7A      |        7546 |
|     261 | 0x1D7B      |        7547 |
|     262 | 0x1D7C      |        7548 |
|     263 | 0x1D7D      |        7549 |
|     264 | 0x0086      |         134 |
|     265 | 0x01D0      |         464 |
|     266 | 0x0087      |         135 |
|     267 | 0x1D7E      |        7550 |
|     268 | 0x0D6E      |        3438 |
|     269 | 0x0032      |          50 |
|     270 | 0x1D7F      |        7551 |
|     271 | 0x0E22      |        3618 |
|     272 | 0xFFF67125  |  4294340901 |
|     273 | 0xFFFF29AA  |  4294912426 |
|     274 | 0x00FA      |         250 |
|     275 | 0x1D80      |        7552 |
|     276 | 0x00F0      |         240 |
|     277 | 0x0D66      |        3430 |
|     278 | 0x1D81      |        7553 |
|     279 | 0x1D82      |        7554 |
|     280 | 0x1D83      |        7555 |
|     281 | 0x00A5      |         165 |
|     282 | 0xFFFF1DF4  |  4294909428 |
|     283 | 0x0168      |         360 |
|     284 | 0x1D84      |        7556 |
|     285 | 0x1D85      |        7557 |

## String References

- **7048**: You are unable to make further progress in Rhapsodies of Vana'diel due to an event occurring in the [Chains of Promathia/Treasures of Aht Urhgan/Wings of the Goddess/Seekers of Adoulin/Rise of the Zilart] missions.
- **7418**: Will you leave? [Yes./No./"Buy time"?]
- **7490**: Head toward the vortex? [Yes./No.]
- **7495**: Why are you here? [We're looking for "him."/Where's the masked man?/Just what are you doing?]

## Events

### Event 65535

#### Metadata

| Field        | Value   |
|--------------|---------|
| Entrypoint   | 0x0000  |
| Data Size    | 1 bytes |
| Instructions | 1       |

```
      00 01 02 03 04 05 06 07  08 09 0A 0B 0C 0D 0E 0F
      -- -- -- -- -- -- -- --  -- -- -- -- -- -- -- --
0000: 00                                                .               
```

#### Opcodes

```
  0: 0x0000 [0x00] END_REQSTACK()
```

### Event 8

#### Metadata

| Field        | Value    |
|--------------|----------|
| Entrypoint   | 0x0001   |
| Data Size    | 39 bytes |
| Instructions | 8        |

```
      00 01 02 03 04 05 06 07  08 09 0A 0B 0C 0D 0E 0F
      -- -- -- -- -- -- -- --  -- -- -- -- -- -- -- --
0000:    42 4E 00 F0 FF FF 7F  80 F0 FF FF 7F 45 00 80   BN..........E..
0010: F8 FF FF 7F F8 FF FF 7F  66 64 69 31 01 80 03 03  ........fdi1....
0020: 10 01 80 48 02 80 21 00                           ...H..!.        
```

#### Opcodes

```
  0: 0x0001 [0x42] SET_CLI_EVENT_CANCEL_DATA()
  1: 0x0002 [0x4E] SET_ENTITY_HIDE_FLAG: Show LocalPlayer
  2: 0x0008 [0x80] LOAD_WAIT(entity=LocalPlayer)
  3: 0x000D [0x45] LOAD_SCHEDULED_TASK: Load scheduler "fdi1" with entities [EventEntity, EventEntity], work=[200*, 0*]
  4: 0x001E [0x03] Work_Zone[3] = 0*
  5: 0x0023 [0x48] [System] [7048*]:
    → "You are unable to make further progress in Rhapsodies of Vana'diel due to an event occurring in the [Chains of Promathia/Treasures of Aht Urhgan/Wings of the Goddess/Seekers of Adoulin/Rise of the Zilart] missions."
  6: 0x0026 [0x21] END_EVENT
  7: 0x0027 [0x00] END_REQSTACK()
```

### Event 3

#### Metadata

| Field        | Value   |
|--------------|---------|
| Entrypoint   | 0x0028  |
| Data Size    | 6 bytes |
| Instructions | 4       |

```
      00 01 02 03 04 05 06 07  08 09 0A 0B 0C 0D 0E 0F
      -- -- -- -- -- -- -- --  -- -- -- -- -- -- -- --
0020:                          42 1A 3D 00 21 00                B.=.!.  
```

#### Opcodes

```
  0: 0x0028 [0x42] SET_CLI_EVENT_CANCEL_DATA()
  1: 0x0029 [0x1A] CALL_SUBROUTINE(address=0x003D)
  2: 0x002C [0x21] END_EVENT
  3: 0x002D [0x00] END_REQSTACK()
```

### Event 2

#### Metadata

| Field        | Value      |
|--------------|------------|
| Entrypoint   | 0x002E     |
| Data Size    | 3258 bytes |
| Instructions | 374        |

```
      00 01 02 03 04 05 06 07  08 09 0A 0B 0C 0D 0E 0F
      -- -- -- -- -- -- -- --  -- -- -- -- -- -- -- --
0020:                                            42 03                B.
0030: 01 10 03 80 43 00 43 01  1A 3D 00 21 00 03 00 00  ....C.C..=.!....
0040: 02 10 45 00 80 F8 FF FF  7F F8 FF FF 7F 66 64 6F  ..E..........fdo
0050: 31 01 80 55 00 80 F8 FF  FF 7F F8 FF FF 7F 66 64  1..U..........fd
0060: 6F 31 46 01 38 04 80 2F  00 D4 12 12 01 2F 00 D5  o1F.8../...../..
0070: 12 12 01 2F 00 D8 12 12  01 2F 00 D7 12 12 01 22  .../...../....."
0080: 00 4E 00 D4 12 12 01 4E  00 D5 12 12 01 4E 00 F0  .N.....N.....N..
0090: FF FF 7F 4E 00 D8 12 12  01 4E 00 D7 12 12 01 92  ...N.....N......
00A0: 01 D4 12 12 01 92 01 D5  12 12 01 94 01 D4 12 12  ................
00B0: 01 94 01 D5 12 12 01 94  01 F0 FF FF 7F 94 01 D8  ................
00C0: 12 12 01 94 01 D7 12 12  01 27 05 D5 12 12 01 04  .........'......
00D0: 02 87 7F 05 80 80 E2 00  27 05 F0 FF FF 7F 11 01  ........'.......
00E0: 1F 01 02 87 7F 06 80 80  F4 00 27 05 F0 FF FF 7F  ..........'.....
00F0: 11 01 1F 01 02 87 7F 07  80 80 06 01 27 05 F0 FF  ............'...
0100: FF 7F 12 01 1F 01 02 87  7F 08 80 80 18 01 27 05  ..............'.
0110: F0 FF FF 7F 13 01 1F 01  27 05 F0 FF FF 7F 14 59  ........'......Y
0120: 05 D8 12 12 01 01 59 05  D5 12 12 01 01 33 01 37  ......Y......3.7
0130: 09 80 0A 80 0B 80 0C 80  BA D5 12 12 01 0D 80 0E  ................
0140: 80 0B 80 0F 80 BA D4 12  12 01 10 80 11 80 12 80  ................
0150: 13 80 BA F0 FF FF 7F 14  80 15 80 12 80 16 80 BA  ................
0160: D7 12 12 01 17 80 18 80  12 80 19 80 02 87 7F 1A  ................
0170: 80 80 84 01 BA D8 12 12  01 1B 80 1C 80 1D 80 16  ................
0180: 80 01 09 02 02 87 7F 1E  80 80 9C 01 BA D8 12 12  ................
0190: 01 1B 80 1C 80 1D 80 16  80 01 09 02 02 87 7F 05  ................
01A0: 80 80 B4 01 BA D8 12 12  01 1B 80 1C 80 1F 80 16  ................
01B0: 80 01 09 02 02 87 7F 06  80 80 CC 01 BA D8 12 12  ................
01C0: 01 1B 80 1C 80 1F 80 16  80 01 09 02 02 87 7F 07  ................
01D0: 80 80 E4 01 BA D8 12 12  01 1B 80 20 80 21 80 16  ........... .!..
01E0: 80 01 09 02 02 87 7F 08  80 80 FC 01 BA D8 12 12  ................
01F0: 01 1B 80 1C 80 1D 80 16  80 01 09 02 BA D8 12 12  ................
0200: 01 1B 80 1C 80 22 80 16  80 80 F8 FF FF 7F 80 D4  ....."..........
0210: 12 12 01 80 F0 FF FF 7F  80 D7 12 12 01 80 D8 12  ................
0220: 12 01 1C 23 80 02 87 7F  03 80 80 40 02 5F 03 24  ...#.......@._.$
0230: 80 D7 12 12 01 D7 12 12  01 68 6D 6D 6C 01 FD 02  .........hmml...
0240: 02 87 7F 25 80 80 5B 02  5F 03 24 80 D7 12 12 01  ...%..[._.$.....
0250: D7 12 12 01 68 66 6D 6C  01 FD 02 02 87 7F 1A 80  ....hfml........
0260: 80 76 02 5F 03 24 80 D7  12 12 01 D7 12 12 01 65  .v._.$.........e
0270: 6D 6D 6C 01 FD 02 02 87  7F 1E 80 80 91 02 5F 03  mml..........._.
0280: 24 80 D7 12 12 01 D7 12  12 01 65 66 6D 6C 01 FD  $.........efml..
0290: 02 02 87 7F 05 80 80 AC  02 5F 03 24 80 D7 12 12  ........._.$....
02A0: 01 D7 12 12 01 74 6D 61  6C 01 FD 02 02 87 7F 06  .....tmal.......
02B0: 80 80 C7 02 5F 03 24 80  D7 12 12 01 D7 12 12 01  ...._.$.........
02C0: 74 6D 61 6C 01 FD 02 02  87 7F 07 80 80 E2 02 5F  tmal..........._
02D0: 03 24 80 D7 12 12 01 D7  12 12 01 6D 6D 61 6C 01  .$.........mmal.
02E0: FD 02 02 87 7F 08 80 80  FD 02 5F 03 24 80 D7 12  .........._.$...
02F0: 12 01 D7 12 12 01 67 6D  61 6C 01 FD 02 81 00 D5  ......gmal......
0300: 12 12 01 7C 00 D5 12 12  01 5B 26 80 D5 12 12 01  ...|.....[&.....
0310: D5 12 12 01 70 6F 70 6C  45 27 80 F8 FF FF 7F F8  ....poplE'......
0320: FF FF 7F 73 31 30 30 01  80 1C 28 80 45 00 80 F8  ...s100...(.E...
0330: FF FF 7F F8 FF FF 7F 66  64 69 31 01 80 27 05 D4  .......fdi1..'..
0340: 12 12 01 03 1C 28 80 29  05 F0 FF FF 7F 17 1C 29  .....(.).......)
0350: 80 52 27 80 F8 FF FF 7F  F8 FF FF 7F 73 31 30 30  .R'.........s100
0360: 45 27 80 F8 FF FF 7F F8  FF FF 7F 73 31 38 31 01  E'.........s181.
0370: 80 1C 2A 80 45 00 80 F0  FF FF 7F F0 FF FF 7F 6F  ..*.E..........o
0380: 76 6C 31 01 80 52 27 80  F8 FF FF 7F F8 FF FF 7F  vl1..R'.........
0390: 73 31 38 31 45 27 80 F8  FF FF 7F F8 FF FF 7F 73  s181E'.........s
03A0: 31 38 30 01 80 1C 2A 80  45 00 80 F0 FF FF 7F F0  180...*.E.......
03B0: FF FF 7F 6F 76 6C 31 01  80 52 27 80 F8 FF FF 7F  ...ovl1..R'.....
03C0: F8 FF FF 7F 73 31 38 30  45 27 80 F8 FF FF 7F F8  ....s180E'......
03D0: FF FF 7F 73 31 38 32 01  80 1C 2B 80 52 27 80 F8  ...s182...+.R'..
03E0: FF FF 7F F8 FF FF 7F 73  31 38 32 02 87 7F 1A 80  .......s182.....
03F0: 80 07 04 45 27 80 F8 FF  FF 7F F8 FF FF 7F 73 31  ...E'.........s1
0400: 30 33 01 80 01 88 04 02  87 7F 1E 80 80 23 04 45  03...........#.E
0410: 27 80 F8 FF FF 7F F8 FF  FF 7F 73 31 30 33 01 80  '.........s103..
0420: 01 88 04 02 87 7F 05 80  80 3F 04 45 27 80 F8 FF  .........?.E'...
0430: FF 7F F8 FF FF 7F 73 31  30 34 01 80 01 88 04 02  ......s104......
0440: 87 7F 06 80 80 5B 04 45  27 80 F8 FF FF 7F F8 FF  .....[.E'.......
0450: FF 7F 73 31 30 34 01 80  01 88 04 02 87 7F 08 80  ..s104..........
0460: 80 77 04 45 27 80 F8 FF  FF 7F F8 FF FF 7F 73 31  .w.E'.........s1
0470: 30 33 01 80 01 88 04 45  27 80 F8 FF FF 7F F8 FF  03.....E'.......
0480: FF 7F 73 31 30 31 01 80  D0 2C 80 D8 12 12 01 D8  ..s101...,......
0490: 12 12 01 73 74 61 31 01  80 1C 2A 80 D0 2C 80 D8  ...sta1...*..,..
04A0: 12 12 01 D8 12 12 01 6B  69 6C 32 01 80 52 27 80  .......kil2..R'.
04B0: F8 FF FF 7F F8 FF FF 7F  73 31 30 31 52 27 80 F8  ........s101R'..
04C0: FF FF 7F F8 FF FF 7F 73  31 30 33 52 27 80 F8 FF  .......s103R'...
04D0: FF 7F F8 FF FF 7F 73 31  30 34 02 87 7F 05 80 80  ......s104......
04E0: F6 04 45 27 80 F8 FF FF  7F F8 FF FF 7F 73 31 30  ..E'.........s10
04F0: 35 01 80 01 23 05 02 87  7F 06 80 80 12 05 45 27  5...#.........E'
0500: 80 F8 FF FF 7F F8 FF FF  7F 73 31 30 35 01 80 01  .........s105...
0510: 23 05 45 27 80 F8 FF FF  7F F8 FF FF 7F 73 31 30  #.E'.........s10
0520: 32 01 80 27 05 F0 FF FF  7F 15 1C 2B 80 D0 2C 80  2..'.......+..,.
0530: D7 12 12 01 D7 12 12 01  73 74 61 72 01 80 4A D4  ........star..J.
0540: 12 12 01 D5 12 12 01 1C  2D 80 52 27 80 F8 FF FF  ........-.R'....
0550: 7F F8 FF FF 7F 73 31 30  32 52 27 80 F8 FF FF 7F  .....s102R'.....
0560: F8 FF FF 7F 73 31 30 35  45 27 80 F8 FF FF 7F F8  ....s105E'......
0570: FF FF 7F 73 31 30 36 01  80 D0 2E 80 D5 12 12 01  ...s106.........
0580: D5 12 12 01 6D 61 69 6E  01 80 27 05 F0 FF FF 7F  ....main..'.....
0590: 16 1C 2F 80 52 27 80 F8  FF FF 7F F8 FF FF 7F 73  ../.R'.........s
05A0: 31 30 36 45 27 80 F8 FF  FF 7F F8 FF FF 7F 73 31  106E'.........s1
05B0: 30 37 01 80 1C 29 80 D0  2C 80 D7 12 12 01 D7 12  07...)..,.......
05C0: 12 01 6B 69 6C 6C 01 80  4E 01 D7 12 12 01 6B 69  ..kill..N.....ki
05D0: 64 6C 30 F0 FF FF 7F 4A  F0 FF FF 7F D5 12 12 01  dl0....J........
05E0: 1C 29 80 81 01 D5 12 12  01 7C 01 D5 12 12 01 52  .).......|.....R
05F0: 27 80 F8 FF FF 7F F8 FF  FF 7F 73 31 30 37 45 27  '.........s107E'
0600: 80 F8 FF FF 7F F8 FF FF  7F 73 31 30 38 01 80 5B  .........s108..[
0610: 30 80 D4 12 12 01 D4 12  12 01 74 6C 61 30 2B D4  0.........tla0+.
0620: 12 12 01 31 80 23 5B 30  80 D4 12 12 01 D4 12 12  ...1.#[0........
0630: 01 74 6C 61 31 52 27 80  F8 FF FF 7F F8 FF FF 7F  .tla1R'.........
0640: 73 31 30 38 45 27 80 F8  FF FF 7F F8 FF FF 7F 73  s108E'.........s
0650: 31 30 39 01 80 2B D5 12  12 01 32 80 23 2B D5 12  109..+....2.#+..
0660: 12 01 33 80 23 2B D5 12  12 01 34 80 23 52 27 80  ..3.#+....4.#R'.
0670: F8 FF FF 7F F8 FF FF 7F  73 31 30 39 45 27 80 F8  ........s109E'..
0680: FF FF 7F F8 FF FF 7F 73  31 31 30 01 80 2B D5 12  .......s110..+..
0690: 12 01 35 80 23 2B D5 12  12 01 36 80 23 52 27 80  ..5.#+....6.#R'.
06A0: F8 FF FF 7F F8 FF FF 7F  73 31 31 30 45 27 80 F8  ........s110E'..
06B0: FF FF 7F F8 FF FF 7F 73  31 31 31 01 80 2B D5 12  .......s111..+..
06C0: 12 01 37 80 23 2B D5 12  12 01 38 80 23 52 27 80  ..7.#+....8.#R'.
06D0: F8 FF FF 7F F8 FF FF 7F  73 31 31 31 45 27 80 F8  ........s111E'..
06E0: FF FF 7F F8 FF FF 7F 73  31 31 32 01 80 2B D5 12  .......s112..+..
06F0: 12 01 39 80 23 2B D5 12  12 01 3A 80 23 2B D5 12  ..9.#+....:.#+..
0700: 12 01 3B 80 23 52 27 80  F8 FF FF 7F F8 FF FF 7F  ..;.#R'.........
0710: 73 31 31 32 45 27 80 F8  FF FF 7F F8 FF FF 7F 73  s112E'.........s
0720: 31 31 33 01 80 2B D5 12  12 01 3C 80 23 02 00 00  113..+....<.#...
0730: 25 80 00 3D 07 03 03 10  01 80 01 42 07 03 03 10  %..=.......B....
0740: 03 80 2B D5 12 12 01 3D  80 23 5B 3E 80 D4 12 12  ..+....=.#[>....
0750: 01 D4 12 12 01 74 6C 68  32 1C 05 80 52 27 80 F8  .....tlh2...R'..
0760: FF FF 7F F8 FF FF 7F 73  31 31 33 45 27 80 F8 FF  .......s113E'...
0770: FF 7F F8 FF FF 7F 73 31  31 34 01 80 2B D4 12 12  ......s114..+...
0780: 01 3F 80 23 2B D4 12 12  01 40 80 23 5B 3E 80 D4  .?.#+....@.#[>..
0790: 12 12 01 D4 12 12 01 74  6C 68 33 52 27 80 F8 FF  .......tlh3R'...
07A0: FF 7F F8 FF FF 7F 73 31  31 34 45 27 80 F8 FF FF  ......s114E'....
07B0: 7F F8 FF FF 7F 73 31 31  35 01 80 6E F0 FF FF 7F  .....s115..n....
07C0: 07 80 99 F0 FF FF 7F 1C  2A 80 52 27 80 F8 FF FF  ........*.R'....
07D0: 7F F8 FF FF 7F 73 31 31  35 45 27 80 F8 FF FF 7F  .....s115E'.....
07E0: F8 FF FF 7F 73 31 31 36  01 80 2B D5 12 12 01 41  ....s116..+....A
07F0: 80 23 5B 30 80 D4 12 12  01 D4 12 12 01 74 6C 61  .#[0.........tla
0800: 30 2B D4 12 12 01 42 80  23 5B 30 80 D4 12 12 01  0+....B.#[0.....
0810: D4 12 12 01 74 6C 61 31  1C 2D 80 52 27 80 F8 FF  ....tla1.-.R'...
0820: FF 7F F8 FF FF 7F 73 31  31 36 02 00 00 01 80 00  ......s116......
0830: 35 08 01 A7 08 45 27 80  F8 FF FF 7F F8 FF FF 7F  5....E'.........
0840: 73 31 31 37 01 80 4A D4  12 12 01 F0 FF FF 7F 79  s117..J........y
0850: 00 F0 FF FF 7F D4 12 12  01 1C 23 80 5B 30 80 D4  ..........#.[0..
0860: 12 12 01 D4 12 12 01 74  6C 61 30 2B D4 12 12 01  .......tla0+....
0870: 43 80 23 5B 30 80 D4 12  12 01 D4 12 12 01 74 6C  C.#[0.........tl
0880: 61 31 1C 2D 80 79 00 F0  FF FF 7F D5 12 12 01 4A  a1.-.y.........J
0890: D4 12 12 01 D5 12 12 01  52 27 80 F8 FF FF 7F F8  ........R'......
08A0: FF FF 7F 73 31 31 37 45  27 80 F8 FF FF 7F F8 FF  ...s117E'.......
08B0: FF 7F 73 31 31 38 01 80  2B D5 12 12 01 44 80 23  ..s118..+....D.#
08C0: 2B D5 12 12 01 45 80 23  52 27 80 F8 FF FF 7F F8  +....E.#R'......
08D0: FF FF 7F 73 31 31 38 45  27 80 F8 FF FF 7F F8 FF  ...s118E'.......
08E0: FF 7F 73 31 31 39 01 80  2B D5 12 12 01 46 80 23  ..s119..+....F.#
08F0: 2B D5 12 12 01 47 80 23  52 27 80 F8 FF FF 7F F8  +....G.#R'......
0900: FF FF 7F 73 31 31 39 45  27 80 F8 FF FF 7F F8 FF  ...s119E'.......
0910: FF 7F 73 31 32 30 01 80  81 00 D5 12 12 01 7C 00  ..s120........|.
0920: D5 12 12 01 5B 26 80 D5  12 12 01 D5 12 12 01 6B  ....[&.........k
0930: 61 67 30 D0 48 80 D5 12  12 01 D5 12 12 01 6D 61  ag0.H.........ma
0940: 69 6E 01 80 1C 49 80 52  27 80 F8 FF FF 7F F8 FF  in...I.R'.......
0950: FF 7F 73 31 32 30 45 27  80 F8 FF FF 7F F8 FF FF  ..s120E'........
0960: 7F 73 31 32 31 01 80 1C  49 80 52 27 80 F8 FF FF  .s121...I.R'....
0970: 7F F8 FF FF 7F 73 31 32  31 45 27 80 F8 FF FF 7F  .....s121E'.....
0980: F8 FF FF 7F 73 31 32 32  01 80 79 00 D4 12 12 01  ....s122..y.....
0990: F8 FF FF 7F 5B 30 80 D4  12 12 01 D4 12 12 01 74  ....[0.........t
09A0: 6C 61 30 1C 28 80 79 00  F0 FF FF 7F F8 FF FF 7F  la0.(.y.........
09B0: 1C 28 80 62 1A 80 F8 FF  FF 7F F8 FF FF 7F 6D 61  .(.b..........ma
09C0: 69 6E 01 80 1C 2D 80 5B  30 80 D4 12 12 01 D4 12  in...-.[0.......
09D0: 12 01 74 6C 61 31 1C 29  80 79 00 D4 12 12 01 D5  ..tla1.).y......
09E0: 12 12 01 81 01 D5 12 12  01 7C 01 D5 12 12 01 52  .........|.....R
09F0: 27 80 F8 FF FF 7F F8 FF  FF 7F 73 31 32 32 45 27  '.........s122E'
0A00: 80 F8 FF FF 7F F8 FF FF  7F 73 31 32 33 01 80 79  .........s123..y
0A10: 00 F0 FF FF 7F D5 12 12  01 5F 05 4A 80 D4 12 12  ........._.J....
0A20: 01 D4 12 12 01 62 79 65  30 4B 80 2B D4 12 12 01  .....bye0K.+....
0A30: 4C 80 23 2B D5 12 12 01  4D 80 23 5F 07 D4 12 12  L.#+....M.#_....
0A40: 01 D4 12 12 01 62 79 65  30 5B 4E 80 D4 12 12 01  .....bye0[N.....
0A50: D4 12 12 01 6F 64 6F 30  1C 4F 80 52 27 80 F8 FF  ....odo0.O.R'...
0A60: FF 7F F8 FF FF 7F 73 31  32 33 45 27 80 F8 FF FF  ......s123E'....
0A70: 7F F8 FF FF 7F 73 31 32  34 01 80 2B D4 12 12 01  .....s124..+....
0A80: 50 80 23 52 27 80 F8 FF  FF 7F F8 FF FF 7F 73 31  P.#R'.........s1
0A90: 32 34 45 27 80 F8 FF FF  7F F8 FF FF 7F 73 31 32  24E'.........s12
0AA0: 35 01 80 CD 07 80 F8 FF  FF 7F F8 FF FF 7F 73 30  5.............s0
0AB0: 30 30 01 80 1C 51 80 6E  F0 FF FF 7F 52 80 99 F0  00...Q.n....R...
0AC0: FF FF 7F 1C 00 80 52 27  80 F8 FF FF 7F F8 FF FF  ......R'........
0AD0: 7F 73 31 32 35 45 27 80  F8 FF FF 7F F8 FF FF 7F  .s125E'.........
0AE0: 73 31 32 36 01 80 2B D5  12 12 01 53 80 23 2B D5  s126..+....S.#+.
0AF0: 12 12 01 54 80 23 52 27  80 F8 FF FF 7F F8 FF FF  ...T.#R'........
0B00: 7F 73 31 32 36 45 27 80  F8 FF FF 7F F8 FF FF 7F  .s126E'.........
0B10: 73 31 32 37 01 80 24 55  80 01 80 01 80 25 02 00  s127..$U.....%..
0B20: 10 01 80 00 59 0B 52 27  80 F8 FF FF 7F F8 FF FF  ....Y.R'........
0B30: 7F 73 31 32 37 45 27 80  F8 FF FF 7F F8 FF FF 7F  .s127E'.........
0B40: 73 31 32 38 01 80 2B D5  12 12 01 56 80 23 2B D5  s128..+....V.#+.
0B50: 12 12 01 57 80 23 01 D7  0B 02 00 10 03 80 00 94  ...W.#..........
0B60: 0B 52 27 80 F8 FF FF 7F  F8 FF FF 7F 73 31 32 37  .R'.........s127
0B70: 45 27 80 F8 FF FF 7F F8  FF FF 7F 73 31 32 38 01  E'.........s128.
0B80: 80 2B D5 12 12 01 58 80  23 2B D5 12 12 01 59 80  .+....X.#+....Y.
0B90: 23 01 D7 0B 02 00 10 25  80 00 D7 0B 52 27 80 F8  #......%....R'..
0BA0: FF FF 7F F8 FF FF 7F 73  31 32 37 45 27 80 F8 FF  .......s127E'...
0BB0: FF 7F F8 FF FF 7F 73 31  32 38 01 80 2B D5 12 12  ......s128..+...
0BC0: 01 5A 80 23 2B D5 12 12  01 5B 80 23 2B D5 12 12  .Z.#+....[.#+...
0BD0: 01 5C 80 23 01 D7 0B 52  27 80 F8 FF FF 7F F8 FF  .\.#...R'.......
0BE0: FF 7F 73 31 32 38 45 27  80 F8 FF FF 7F F8 FF FF  ..s128E'........
0BF0: 7F 73 31 32 39 01 80 81  00 D5 12 12 01 7C 00 D5  .s129........|..
0C00: 12 12 01 5B 5D 80 D5 12  12 01 D5 12 12 01 64 65  ...[].........de
0C10: 64 30 D0 5E 80 D5 12 12  01 D5 12 12 01 6D 61 69  d0.^.........mai
0C20: 6E 01 80 5B 4E 80 D4 12  12 01 D4 12 12 01 6F 64  n..[N.........od
0C30: 6F 31 1C 5F 80 52 27 80  F8 FF FF 7F F8 FF FF 7F  o1._.R'.........
0C40: 73 31 32 39 45 27 80 F8  FF FF 7F F8 FF FF 7F 73  s129E'.........s
0C50: 31 33 30 01 80 4A D4 12  12 01 F0 FF FF 7F 79 00  130..J........y.
0C60: F0 FF FF 7F D4 12 12 01  1C 23 80 2B D4 12 12 01  .........#.+....
0C70: 60 80 23 2B D4 12 12 01  61 80 23 52 27 80 F8 FF  `.#+....a.#R'...
0C80: FF 7F F8 FF FF 7F 73 31  33 30 45 27 80 F8 FF FF  ......s130E'....
0C90: 7F F8 FF FF 7F 73 31 33  31 01 80 27 05 D4 12 12  .....s131..'....
0CA0: 01 04 1C 2A 80 45 00 80  F8 FF FF 7F F8 FF FF 7F  ...*.E..........
0CB0: 66 64 6F 31 01 80 55 00  80 F8 FF FF 7F F8 FF FF  fdo1..U.........
0CC0: 7F 66 64 6F 31 52 27 80  F8 FF FF 7F F8 FF FF 7F  .fdo1R'.........
0CD0: 73 31 33 31 46 00 45 00  80 F8 FF FF 7F F8 FF FF  s131F.E.........
0CE0: 7F 66 64 69 32 01 80 1B                           .fdi2...        
```

#### Opcodes

```
  0: 0x002E [0x42] SET_CLI_EVENT_CANCEL_DATA()
  1: 0x002F [0x03] Work_Zone[1] = 1*
  2: 0x0034 [0x43] SEND_EVENT_UPDATE: Send pending tag to server (packet 0x005B)
  3: 0x0036 [0x43] SEND_EVENT_UPDATE: Check pending flag (skip if not pending)
  4: 0x0038 [0x1A] CALL_SUBROUTINE(address=0x003D)
  5: 0x003B [0x21] END_EVENT
  6: 0x003C [0x00] END_REQSTACK()

SUBROUTINE_003D:
  7: 0x003D [0x03] ExtData[1]->WorkLocal[0] = Work_Zone[2]
  8: 0x0042 [0x45] LOAD_SCHEDULED_TASK: Load scheduler "fdo1" with entities [EventEntity, EventEntity], work=[200*, 0*]
  9: 0x0053 [0x55] WAIT_LOAD_SCHEDULER: Wait for scheduler "fdo1" with entities [EventEntity, EventEntity], work=200*
 10: 0x0062 [0x46] CAMERA_CONTROL: Disable user control
 11: 0x0064 [0x38] SET_CLIENT_EVENT_MODE(mode=27*)
 12: 0x0067 [0x2F] Tenzen (ID: 17961684/0x011212D4)->Render.Flags0 &= ~0x80000 // Bit 19
 13: 0x006D [0x2F] Siren (ID: 17961685/0x011212D5)->Render.Flags0 &= ~0x80000 // Bit 19
 14: 0x0073 [0x2F] Unnamed NPC (ID: 17961688/0x011212D8)->Render.Flags0 &= ~0x80000 // Bit 19
 15: 0x0079 [0x2F] Unnamed NPC (ID: 17961687/0x011212D7)->Render.Flags0 &= ~0x80000 // Bit 19
 16: 0x007F [0x22] ENTITY_HIDE_FLAG(enabled=0x00)
 17: 0x0081 [0x4E] SET_ENTITY_HIDE_FLAG: Show Tenzen (ID: 17961684/0x011212D4)
 18: 0x0087 [0x4E] SET_ENTITY_HIDE_FLAG: Show Siren (ID: 17961685/0x011212D5)
 19: 0x008D [0x4E] SET_ENTITY_HIDE_FLAG: Show LocalPlayer
 20: 0x0093 [0x4E] SET_ENTITY_HIDE_FLAG: Show Unnamed NPC (ID: 17961688/0x011212D8)
 21: 0x0099 [0x4E] SET_ENTITY_HIDE_FLAG: Show Unnamed NPC (ID: 17961687/0x011212D7)
 22: 0x009F [0x92] Tenzen (ID: 17961684/0x011212D4)->Render.Flags3 ^= 0x01
 23: 0x00A5 [0x92] Siren (ID: 17961685/0x011212D5)->Render.Flags3 ^= 0x01
 24: 0x00AB [0x94] Tenzen (ID: 17961684/0x011212D4)->Render.Flags3 ^= 0x01
 25: 0x00B1 [0x94] Siren (ID: 17961685/0x011212D5)->Render.Flags3 ^= 0x01
 26: 0x00B7 [0x94] LocalPlayer->Render.Flags3 ^= 0x01
 27: 0x00BD [0x94] Unnamed NPC (ID: 17961688/0x011212D8)->Render.Flags3 ^= 0x01
 28: 0x00C3 [0x94] Unnamed NPC (ID: 17961687/0x011212D7)->Render.Flags3 ^= 0x01
 29: 0x00C9 [0x27] REQ_SET(priority=0x05, entity_id=Siren (ID: 17961685/0x011212D5), tag_num=0x04)
 30: 0x00D0 [0x02] IF !(LocalPlayer->Race == 5*) GOTO 0x00E2
 31: 0x00D8 [0x27] REQ_SET(priority=0x05, entity_id=LocalPlayer, tag_num=0x11)
 32: 0x00DF [0x01] GOTO 0x011F
 33: 0x00E2 [0x02] IF !(LocalPlayer->Race == 6*) GOTO 0x00F4
 34: 0x00EA [0x27] REQ_SET(priority=0x05, entity_id=LocalPlayer, tag_num=0x11)
 35: 0x00F1 [0x01] GOTO 0x011F
 36: 0x00F4 [0x02] IF !(LocalPlayer->Race == 7*) GOTO 0x0106
 37: 0x00FC [0x27] REQ_SET(priority=0x05, entity_id=LocalPlayer, tag_num=0x12)
 38: 0x0103 [0x01] GOTO 0x011F
 39: 0x0106 [0x02] IF !(LocalPlayer->Race == 8*) GOTO 0x0118
 40: 0x010E [0x27] REQ_SET(priority=0x05, entity_id=LocalPlayer, tag_num=0x13)
 41: 0x0115 [0x01] GOTO 0x011F
 42: 0x0118 [0x27] REQ_SET(priority=0x05, entity_id=LocalPlayer, tag_num=0x14)

SUBROUTINE_011F:
 43: 0x011F [0x59] UPDATE_ENTITY_DATA: Unnamed NPC (ID: 17961688/0x011212D8)->Render.Flags0 |= 0x200000
 44: 0x0126 [0x59] UPDATE_ENTITY_DATA: Siren (ID: 17961685/0x011212D5)->Render.Flags0 |= 0x200000
 45: 0x012D [0x33] EventEntity->Render.Flags0 |= 0x200000 // Bit 21 (flag=0x01)
 46: 0x012F [0x37] UPDATE_EVENT_POSITION_AND_DIR: x=-0.110*, z=-462.167*, y=-35.000*, direction=255.9°*
 47: 0x0138 [0xBA] SET_ENTITY_POSITION(entity_id=Siren (ID: 17961685/0x011212D5), pos_x=-0.512*, pos_z=-460.128*, pos_y=-35.000*, direction=91.0°*)
 48: 0x0145 [0xBA] SET_ENTITY_POSITION(entity_id=Tenzen (ID: 17961684/0x011212D4), pos_x=-1.506*, pos_z=-467.626*, pos_y=-34.277*, direction=274.1°*)
 49: 0x0152 [0xBA] SET_ENTITY_POSITION(entity_id=LocalPlayer, pos_x=0.766*, pos_z=-467.275*, pos_y=-34.277*, direction=269.0°*)
 50: 0x015F [0xBA] SET_ENTITY_POSITION(entity_id=Unnamed NPC (ID: 17961687/0x011212D7), pos_x=0.916*, pos_z=-465.802*, pos_y=-34.277*, direction=276.0°*)
 51: 0x016C [0x02] IF !(LocalPlayer->Race == 3*) GOTO 0x0184
 52: 0x0174 [0xBA] SET_ENTITY_POSITION(entity_id=Unnamed NPC (ID: 17961688/0x011212D8), pos_x=1.017*, pos_z=-465.909*, pos_y=-35.477*, direction=269.0°*)
 53: 0x0181 [0x01] GOTO 0x0209
 54: 0x0184 [0x02] IF !(LocalPlayer->Race == 4*) GOTO 0x019C
 55: 0x018C [0xBA] SET_ENTITY_POSITION(entity_id=Unnamed NPC (ID: 17961688/0x011212D8), pos_x=1.017*, pos_z=-465.909*, pos_y=-35.477*, direction=269.0°*)
 56: 0x0199 [0x01] GOTO 0x0209
 57: 0x019C [0x02] IF !(LocalPlayer->Race == 5*) GOTO 0x01B4
 58: 0x01A4 [0xBA] SET_ENTITY_POSITION(entity_id=Unnamed NPC (ID: 17961688/0x011212D8), pos_x=1.017*, pos_z=-465.909*, pos_y=-34.577*, direction=269.0°*)
 59: 0x01B1 [0x01] GOTO 0x0209
 60: 0x01B4 [0x02] IF !(LocalPlayer->Race == 6*) GOTO 0x01CC
 61: 0x01BC [0xBA] SET_ENTITY_POSITION(entity_id=Unnamed NPC (ID: 17961688/0x011212D8), pos_x=1.017*, pos_z=-465.909*, pos_y=-34.577*, direction=269.0°*)
 62: 0x01C9 [0x01] GOTO 0x0209
 63: 0x01CC [0x02] IF !(LocalPlayer->Race == 7*) GOTO 0x01E4
 64: 0x01D4 [0xBA] SET_ENTITY_POSITION(entity_id=Unnamed NPC (ID: 17961688/0x011212D8), pos_x=1.017*, pos_z=-465.850*, pos_y=-35.227*, direction=269.0°*)
 65: 0x01E1 [0x01] GOTO 0x0209
 66: 0x01E4 [0x02] IF !(LocalPlayer->Race == 8*) GOTO 0x01FC
 67: 0x01EC [0xBA] SET_ENTITY_POSITION(entity_id=Unnamed NPC (ID: 17961688/0x011212D8), pos_x=1.017*, pos_z=-465.909*, pos_y=-35.477*, direction=269.0°*)
 68: 0x01F9 [0x01] GOTO 0x0209
 69: 0x01FC [0xBA] SET_ENTITY_POSITION(entity_id=Unnamed NPC (ID: 17961688/0x011212D8), pos_x=1.017*, pos_z=-465.909*, pos_y=-35.277*, direction=269.0°*)

SUBROUTINE_0209:
 70: 0x0209 [0x80] LOAD_WAIT(entity=EventEntity)
 71: 0x020E [0x80] LOAD_WAIT(entity=Tenzen (ID: 17961684/0x011212D4))
 72: 0x0213 [0x80] LOAD_WAIT(entity=LocalPlayer)
 73: 0x0218 [0x80] LOAD_WAIT(entity=Unnamed NPC (ID: 17961687/0x011212D7))
 74: 0x021D [0x80] LOAD_WAIT(entity=Unnamed NPC (ID: 17961688/0x011212D8))
 75: 0x0222 [0x1C] WAIT(30* ticks)
 76: 0x0225 [0x02] IF !(LocalPlayer->Race == 1*) GOTO 0x0240
 77: 0x022D [0x5F] MULTI_HANDLER_COMPLEX(mode=0x03 - Load ext scheduler (OpCode 0x5B mode 0), ref=3878*, entity1=Unnamed NPC (ID: 17961687/0x011212D7), entity2=Unnamed NPC (ID: 17961687/0x011212D7), string="hmml")
 78: 0x023D [0x01] GOTO 0x02FD
 79: 0x0240 [0x02] IF !(LocalPlayer->Race == 2*) GOTO 0x025B
 80: 0x0248 [0x5F] MULTI_HANDLER_COMPLEX(mode=0x03 - Load ext scheduler (OpCode 0x5B mode 0), ref=3878*, entity1=Unnamed NPC (ID: 17961687/0x011212D7), entity2=Unnamed NPC (ID: 17961687/0x011212D7), string="hfml")
 81: 0x0258 [0x01] GOTO 0x02FD
 82: 0x025B [0x02] IF !(LocalPlayer->Race == 3*) GOTO 0x0276
 83: 0x0263 [0x5F] MULTI_HANDLER_COMPLEX(mode=0x03 - Load ext scheduler (OpCode 0x5B mode 0), ref=3878*, entity1=Unnamed NPC (ID: 17961687/0x011212D7), entity2=Unnamed NPC (ID: 17961687/0x011212D7), string="emml")
 84: 0x0273 [0x01] GOTO 0x02FD
 85: 0x0276 [0x02] IF !(LocalPlayer->Race == 4*) GOTO 0x0291
 86: 0x027E [0x5F] MULTI_HANDLER_COMPLEX(mode=0x03 - Load ext scheduler (OpCode 0x5B mode 0), ref=3878*, entity1=Unnamed NPC (ID: 17961687/0x011212D7), entity2=Unnamed NPC (ID: 17961687/0x011212D7), string="efml")
 87: 0x028E [0x01] GOTO 0x02FD
 88: 0x0291 [0x02] IF !(LocalPlayer->Race == 5*) GOTO 0x02AC
 89: 0x0299 [0x5F] MULTI_HANDLER_COMPLEX(mode=0x03 - Load ext scheduler (OpCode 0x5B mode 0), ref=3878*, entity1=Unnamed NPC (ID: 17961687/0x011212D7), entity2=Unnamed NPC (ID: 17961687/0x011212D7), string="tmal")
 90: 0x02A9 [0x01] GOTO 0x02FD
 91: 0x02AC [0x02] IF !(LocalPlayer->Race == 6*) GOTO 0x02C7
 92: 0x02B4 [0x5F] MULTI_HANDLER_COMPLEX(mode=0x03 - Load ext scheduler (OpCode 0x5B mode 0), ref=3878*, entity1=Unnamed NPC (ID: 17961687/0x011212D7), entity2=Unnamed NPC (ID: 17961687/0x011212D7), string="tmal")
 93: 0x02C4 [0x01] GOTO 0x02FD
 94: 0x02C7 [0x02] IF !(LocalPlayer->Race == 7*) GOTO 0x02E2
 95: 0x02CF [0x5F] MULTI_HANDLER_COMPLEX(mode=0x03 - Load ext scheduler (OpCode 0x5B mode 0), ref=3878*, entity1=Unnamed NPC (ID: 17961687/0x011212D7), entity2=Unnamed NPC (ID: 17961687/0x011212D7), string="mmal")
 96: 0x02DF [0x01] GOTO 0x02FD
 97: 0x02E2 [0x02] IF !(LocalPlayer->Race == 8*) GOTO 0x02FD
 98: 0x02EA [0x5F] MULTI_HANDLER_COMPLEX(mode=0x03 - Load ext scheduler (OpCode 0x5B mode 0), ref=3878*, entity1=Unnamed NPC (ID: 17961687/0x011212D7), entity2=Unnamed NPC (ID: 17961687/0x011212D7), string="gmal")
 99: 0x02FA [0x01] GOTO 0x02FD

SUBROUTINE_02FD:
100: 0x02FD [0x81] SET_ENTITY_BLINKING(blink_flag=0x00, entity=Siren (ID: 17961685/0x011212D5))
101: 0x0303 [0x7C] Siren (ID: 17961685/0x011212D5)->Render.Flags2 |= 0x00
102: 0x0309 [0x5B] LOAD_EXT_SCHEDULER: Load scheduler "popl" with entities [Siren (ID: 17961685/0x011212D5), Siren (ID: 17961685/0x011212D5)], work=3879*
103: 0x0318 [0x45] LOAD_SCHEDULED_TASK: Load scheduler "s100" with entities [EventEntity, EventEntity], work=[765*, 0*]
104: 0x0329 [0x1C] WAIT(15* ticks)
105: 0x032C [0x45] LOAD_SCHEDULED_TASK: Load scheduler "fdi1" with entities [EventEntity, EventEntity], work=[200*, 0*]
106: 0x033D [0x27] REQ_SET(priority=0x05, entity_id=Tenzen (ID: 17961684/0x011212D4), tag_num=0x03)
107: 0x0344 [0x1C] WAIT(15* ticks)
108: 0x0347 [0x29] REQ_SET_WAIT(priority=0x05, entity_id=LocalPlayer, tag_num=0x17)
109: 0x034E [0x1C] WAIT(60* ticks)
110: 0x0351 [0x52] END_LOAD_SCHEDULER: End scheduler "s100" with entities [EventEntity, EventEntity], work=765*
111: 0x0360 [0x45] LOAD_SCHEDULED_TASK: Load scheduler "s181" with entities [EventEntity, EventEntity], work=[765*, 0*]
112: 0x0371 [0x1C] WAIT(120* ticks)
113: 0x0374 [0x45] LOAD_SCHEDULED_TASK: Load scheduler "ovl1" with entities [LocalPlayer, LocalPlayer], work=[200*, 0*]
114: 0x0385 [0x52] END_LOAD_SCHEDULER: End scheduler "s181" with entities [EventEntity, EventEntity], work=765*
115: 0x0394 [0x45] LOAD_SCHEDULED_TASK: Load scheduler "s180" with entities [EventEntity, EventEntity], work=[765*, 0*]
116: 0x03A5 [0x1C] WAIT(120* ticks)
117: 0x03A8 [0x45] LOAD_SCHEDULED_TASK: Load scheduler "ovl1" with entities [LocalPlayer, LocalPlayer], work=[200*, 0*]
118: 0x03B9 [0x52] END_LOAD_SCHEDULER: End scheduler "s180" with entities [EventEntity, EventEntity], work=765*
119: 0x03C8 [0x45] LOAD_SCHEDULED_TASK: Load scheduler "s182" with entities [EventEntity, EventEntity], work=[765*, 0*]
120: 0x03D9 [0x1C] WAIT(150* ticks)
121: 0x03DC [0x52] END_LOAD_SCHEDULER: End scheduler "s182" with entities [EventEntity, EventEntity], work=765*
122: 0x03EB [0x02] IF !(LocalPlayer->Race == 3*) GOTO 0x0407
123: 0x03F3 [0x45] LOAD_SCHEDULED_TASK: Load scheduler "s103" with entities [EventEntity, EventEntity], work=[765*, 0*]
124: 0x0404 [0x01] GOTO 0x0488
125: 0x0407 [0x02] IF !(LocalPlayer->Race == 4*) GOTO 0x0423
126: 0x040F [0x45] LOAD_SCHEDULED_TASK: Load scheduler "s103" with entities [EventEntity, EventEntity], work=[765*, 0*]
127: 0x0420 [0x01] GOTO 0x0488
128: 0x0423 [0x02] IF !(LocalPlayer->Race == 5*) GOTO 0x043F
129: 0x042B [0x45] LOAD_SCHEDULED_TASK: Load scheduler "s104" with entities [EventEntity, EventEntity], work=[765*, 0*]
130: 0x043C [0x01] GOTO 0x0488
131: 0x043F [0x02] IF !(LocalPlayer->Race == 6*) GOTO 0x045B
132: 0x0447 [0x45] LOAD_SCHEDULED_TASK: Load scheduler "s104" with entities [EventEntity, EventEntity], work=[765*, 0*]
133: 0x0458 [0x01] GOTO 0x0488
134: 0x045B [0x02] IF !(LocalPlayer->Race == 8*) GOTO 0x0477
135: 0x0463 [0x45] LOAD_SCHEDULED_TASK: Load scheduler "s103" with entities [EventEntity, EventEntity], work=[765*, 0*]
136: 0x0474 [0x01] GOTO 0x0488
137: 0x0477 [0x45] LOAD_SCHEDULED_TASK: Load scheduler "s101" with entities [EventEntity, EventEntity], work=[765*, 0*]

SUBROUTINE_0488:
138: 0x0488 [0xD0] LOAD_SCHEDULED_TASK_ALT5: Load scheduler "sta1" with entities [Unnamed NPC (ID: 17961688/0x011212D8), Unnamed NPC (ID: 17961688/0x011212D8)], work=[103*, 0*]
139: 0x0499 [0x1C] WAIT(120* ticks)
140: 0x049C [0xD0] LOAD_SCHEDULED_TASK_ALT5: Load scheduler "kil2" with entities [Unnamed NPC (ID: 17961688/0x011212D8), Unnamed NPC (ID: 17961688/0x011212D8)], work=[103*, 0*]
141: 0x04AD [0x52] END_LOAD_SCHEDULER: End scheduler "s101" with entities [EventEntity, EventEntity], work=765*
142: 0x04BC [0x52] END_LOAD_SCHEDULER: End scheduler "s103" with entities [EventEntity, EventEntity], work=765*
143: 0x04CB [0x52] END_LOAD_SCHEDULER: End scheduler "s104" with entities [EventEntity, EventEntity], work=765*
144: 0x04DA [0x02] IF !(LocalPlayer->Race == 5*) GOTO 0x04F6
145: 0x04E2 [0x45] LOAD_SCHEDULED_TASK: Load scheduler "s105" with entities [EventEntity, EventEntity], work=[765*, 0*]
146: 0x04F3 [0x01] GOTO 0x0523
147: 0x04F6 [0x02] IF !(LocalPlayer->Race == 6*) GOTO 0x0512
148: 0x04FE [0x45] LOAD_SCHEDULED_TASK: Load scheduler "s105" with entities [EventEntity, EventEntity], work=[765*, 0*]
149: 0x050F [0x01] GOTO 0x0523
150: 0x0512 [0x45] LOAD_SCHEDULED_TASK: Load scheduler "s102" with entities [EventEntity, EventEntity], work=[765*, 0*]

SUBROUTINE_0523:
151: 0x0523 [0x27] REQ_SET(priority=0x05, entity_id=LocalPlayer, tag_num=0x15)
152: 0x052A [0x1C] WAIT(150* ticks)
153: 0x052D [0xD0] LOAD_SCHEDULED_TASK_ALT5: Load scheduler "star" with entities [Unnamed NPC (ID: 17961687/0x011212D7), Unnamed NPC (ID: 17961687/0x011212D7)], work=[103*, 0*]
154: 0x053E [0x4A] Tenzen (ID: 17961684/0x011212D4) looks at Siren (ID: 17961685/0x011212D5)
155: 0x0547 [0x1C] WAIT(90* ticks)
156: 0x054A [0x52] END_LOAD_SCHEDULER: End scheduler "s102" with entities [EventEntity, EventEntity], work=765*
157: 0x0559 [0x52] END_LOAD_SCHEDULER: End scheduler "s105" with entities [EventEntity, EventEntity], work=765*
158: 0x0568 [0x45] LOAD_SCHEDULED_TASK: Load scheduler "s106" with entities [EventEntity, EventEntity], work=[765*, 0*]
159: 0x0579 [0xD0] LOAD_SCHEDULED_TASK_ALT5: Load scheduler "main" with entities [Siren (ID: 17961685/0x011212D5), Siren (ID: 17961685/0x011212D5)], work=[101*, 0*]
160: 0x058A [0x27] REQ_SET(priority=0x05, entity_id=LocalPlayer, tag_num=0x16)
161: 0x0591 [0x1C] WAIT(180* ticks)
162: 0x0594 [0x52] END_LOAD_SCHEDULER: End scheduler "s106" with entities [EventEntity, EventEntity], work=765*
163: 0x05A3 [0x45] LOAD_SCHEDULED_TASK: Load scheduler "s107" with entities [EventEntity, EventEntity], work=[765*, 0*]
164: 0x05B4 [0x1C] WAIT(60* ticks)
165: 0x05B7 [0xD0] LOAD_SCHEDULED_TASK_ALT5: Load scheduler "kill" with entities [Unnamed NPC (ID: 17961687/0x011212D7), Unnamed NPC (ID: 17961687/0x011212D7)], work=[103*, 0*]
166: 0x05C8 [0x4E] SET_ENTITY_HIDE_FLAG: Hide Unnamed NPC (ID: 17961687/0x011212D7)
167: 0x05CE [0x6B] STOP_AND_IDLE: LocalPlayer stops current action and resets to idle (animation="idl0")
168: 0x05D7 [0x4A] LocalPlayer looks at Siren (ID: 17961685/0x011212D5)
169: 0x05E0 [0x1C] WAIT(60* ticks)
170: 0x05E3 [0x81] SET_ENTITY_BLINKING(blink_flag=0x01, entity=Siren (ID: 17961685/0x011212D5))
171: 0x05E9 [0x7C] Siren (ID: 17961685/0x011212D5)->Render.Flags2 |= 0x01
172: 0x05EF [0x52] END_LOAD_SCHEDULER: End scheduler "s107" with entities [EventEntity, EventEntity], work=765*
173: 0x05FE [0x45] LOAD_SCHEDULED_TASK: Load scheduler "s108" with entities [EventEntity, EventEntity], work=[765*, 0*]
174: 0x060F [0x5B] LOAD_EXT_SCHEDULER: Load scheduler "tla0" with entities [Tenzen (ID: 17961684/0x011212D4), Tenzen (ID: 17961684/0x011212D4)], work=425*
175: 0x061E [0x2B] Tenzen (ID: 17961684/0x011212D4) [7391*]:
    → "Siren! Where is Lady Iroha!?"
176: 0x0625 [0x23] WAIT_FOR_DIALOG_INTERACTION
177: 0x0626 [0x5B] LOAD_EXT_SCHEDULER: Load scheduler "tla1" with entities [Tenzen (ID: 17961684/0x011212D4), Tenzen (ID: 17961684/0x011212D4)], work=425*
178: 0x0635 [0x52] END_LOAD_SCHEDULER: End scheduler "s108" with entities [EventEntity, EventEntity], work=765*
179: 0x0644 [0x45] LOAD_SCHEDULED_TASK: Load scheduler "s109" with entities [EventEntity, EventEntity], work=[765*, 0*]
180: 0x0655 [0x2B] Siren (ID: 17961685/0x011212D5) [7392*]:
    → "Ah yes, the cute one. I sense you have a special bond with her."
181: 0x065C [0x23] WAIT_FOR_DIALOG_INTERACTION
182: 0x065D [0x2B] Siren (ID: 17961685/0x011212D5) [7393*]:
    → "Then heed well my words."
183: 0x0664 [0x23] WAIT_FOR_DIALOG_INTERACTION
184: 0x0665 [0x2B] Siren (ID: 17961685/0x011212D5) [7394*]:
    → "When I was under the ambassador's thrall, I opened up many spatial rifts...though it pains me to admit it."
185: 0x066C [0x23] WAIT_FOR_DIALOG_INTERACTION
186: 0x066D [0x52] END_LOAD_SCHEDULER: End scheduler "s109" with entities [EventEntity, EventEntity], work=765*
187: 0x067C [0x45] LOAD_SCHEDULED_TASK: Load scheduler "s110" with entities [EventEntity, EventEntity], work=[765*, 0*]
188: 0x068D [0x2B] Siren (ID: 17961685/0x011212D5) [7395*]:
    → "One such rift is the location which unfolds before you now."
189: 0x0694 [0x23] WAIT_FOR_DIALOG_INTERACTION
190: 0x0695 [0x2B] Siren (ID: 17961685/0x011212D5) [7396*]:
    → "Ru'Aun is said to be a place close to the gods, so it is of no wonder he wishes to strike here."
191: 0x069C [0x23] WAIT_FOR_DIALOG_INTERACTION
192: 0x069D [0x52] END_LOAD_SCHEDULER: End scheduler "s110" with entities [EventEntity, EventEntity], work=765*
193: 0x06AC [0x45] LOAD_SCHEDULED_TASK: Load scheduler "s111" with entities [EventEntity, EventEntity], work=[765*, 0*]
194: 0x06BD [0x2B] Siren (ID: 17961685/0x011212D5) [7397*]:
    → "A cloud of nothingness descending from a different dimension created this land, devoid of all time and color."
195: 0x06C4 [0x23] WAIT_FOR_DIALOG_INTERACTION
196: 0x06C5 [0x2B] Siren (ID: 17961685/0x011212D5) [7398*]:
    → "It passed through the crystal, devouring all in its wake."
197: 0x06CC [0x23] WAIT_FOR_DIALOG_INTERACTION
198: 0x06CD [0x52] END_LOAD_SCHEDULER: End scheduler "s111" with entities [EventEntity, EventEntity], work=765*
199: 0x06DC [0x45] LOAD_SCHEDULED_TASK: Load scheduler "s112" with entities [EventEntity, EventEntity], work=[765*, 0*]
200: 0x06ED [0x2B] Siren (ID: 17961685/0x011212D5) [7399*]:
    → "Yet what did Altana do to stop it? Nothing."
201: 0x06F4 [0x23] WAIT_FOR_DIALOG_INTERACTION
202: 0x06F5 [0x2B] Siren (ID: 17961685/0x011212D5) [7400*]:
    → "She was eminently aware of the truth."
203: 0x06FC [0x23] WAIT_FOR_DIALOG_INTERACTION
204: 0x06FD [0x2B] Siren (ID: 17961685/0x011212D5) [7401*]:
    → "This is the destiny that Vana'diel is fated to face."
205: 0x0704 [0x23] WAIT_FOR_DIALOG_INTERACTION
206: 0x0705 [0x52] END_LOAD_SCHEDULER: End scheduler "s112" with entities [EventEntity, EventEntity], work=765*
207: 0x0714 [0x45] LOAD_SCHEDULED_TASK: Load scheduler "s113" with entities [EventEntity, EventEntity], work=[765*, 0*]
208: 0x0725 [0x2B] Siren (ID: 17961685/0x011212D5) [7402*]:
    → "The tide can no longer be stemmed."
209: 0x072C [0x23] WAIT_FOR_DIALOG_INTERACTION
210: 0x072D [0x02] IF !(ExtData[1]->WorkLocal[0] == 2*) GOTO 0x073D
211: 0x0735 [0x03] Work_Zone[3] = 0*
212: 0x073A [0x01] GOTO 0x0742
213: 0x073D [0x03] Work_Zone[3] = 1*

SUBROUTINE_0742:
214: 0x0742 [0x2B] Siren (ID: 17961685/0x011212D5) [7403*]:
    → "Altana is alone, having lost her counterpart[/ in Promathia], and is wholly powerless."
215: 0x0749 [0x23] WAIT_FOR_DIALOG_INTERACTION
216: 0x074A [0x5B] LOAD_EXT_SCHEDULER: Load scheduler "tlh2" with entities [Tenzen (ID: 17961684/0x011212D4), Tenzen (ID: 17961684/0x011212D4)], work=640*
217: 0x0759 [0x1C] WAIT(5* ticks)
218: 0x075C [0x52] END_LOAD_SCHEDULER: End scheduler "s113" with entities [EventEntity, EventEntity], work=765*
219: 0x076B [0x45] LOAD_SCHEDULED_TASK: Load scheduler "s114" with entities [EventEntity, EventEntity], work=[765*, 0*]
220: 0x077C [0x2B] Tenzen (ID: 17961684/0x011212D4) [7404*]:
    → "We do not intend to fold, even if Altana cannot help us!"
221: 0x0783 [0x23] WAIT_FOR_DIALOG_INTERACTION
222: 0x0784 [0x2B] Tenzen (ID: 17961684/0x011212D4) [7405*]:
    → "All we need is light to guide us, no matter how dim that may be!"
223: 0x078B [0x23] WAIT_FOR_DIALOG_INTERACTION
224: 0x078C [0x5B] LOAD_EXT_SCHEDULER: Load scheduler "tlh3" with entities [Tenzen (ID: 17961684/0x011212D4), Tenzen (ID: 17961684/0x011212D4)], work=640*
225: 0x079B [0x52] END_LOAD_SCHEDULER: End scheduler "s114" with entities [EventEntity, EventEntity], work=765*
226: 0x07AA [0x45] LOAD_SCHEDULED_TASK: Load scheduler "s115" with entities [EventEntity, EventEntity], work=[765*, 0*]
227: 0x07BB [0x6E] LocalPlayer uses emote 7*
228: 0x07C2 [0x99] Wait for LocalPlayer animation to complete
229: 0x07C7 [0x1C] WAIT(120* ticks)
230: 0x07CA [0x52] END_LOAD_SCHEDULER: End scheduler "s115" with entities [EventEntity, EventEntity], work=765*
231: 0x07D9 [0x45] LOAD_SCHEDULED_TASK: Load scheduler "s116" with entities [EventEntity, EventEntity], work=[765*, 0*]
232: 0x07EA [0x2B] Siren (ID: 17961685/0x011212D5) [7406*]:
    → "Ah, such words encourage me to entrust what I can to you."
233: 0x07F1 [0x23] WAIT_FOR_DIALOG_INTERACTION
234: 0x07F2 [0x5B] LOAD_EXT_SCHEDULER: Load scheduler "tla0" with entities [Tenzen (ID: 17961684/0x011212D4), Tenzen (ID: 17961684/0x011212D4)], work=425*
235: 0x0801 [0x2B] Tenzen (ID: 17961684/0x011212D4) [7407*]:
    → "Siren, your understanding and compassion are beyond compare."
236: 0x0808 [0x23] WAIT_FOR_DIALOG_INTERACTION
237: 0x0809 [0x5B] LOAD_EXT_SCHEDULER: Load scheduler "tla1" with entities [Tenzen (ID: 17961684/0x011212D4), Tenzen (ID: 17961684/0x011212D4)], work=425*
238: 0x0818 [0x1C] WAIT(90* ticks)
239: 0x081B [0x52] END_LOAD_SCHEDULER: End scheduler "s116" with entities [EventEntity, EventEntity], work=765*
240: 0x082A [0x02] IF !(ExtData[1]->WorkLocal[0] == 0*) GOTO 0x0835
241: 0x0832 [0x01] GOTO 0x08A7
242: 0x0835 [0x45] LOAD_SCHEDULED_TASK: Load scheduler "s117" with entities [EventEntity, EventEntity], work=[765*, 0*]
243: 0x0846 [0x4A] Tenzen (ID: 17961684/0x011212D4) looks at LocalPlayer
244: 0x084F [0x79] LocalPlayer looks at Tenzen (ID: 17961684/0x011212D4) (Basic look)
245: 0x0859 [0x1C] WAIT(30* ticks)
246: 0x085C [0x5B] LOAD_EXT_SCHEDULER: Load scheduler "tla0" with entities [Tenzen (ID: 17961684/0x011212D4), Tenzen (ID: 17961684/0x011212D4)], work=425*
247: 0x086B [0x2B] Tenzen (ID: 17961684/0x011212D4) [7408*]:
    → "All the prime avatars can understand our words and thoughts, and will not deny us our due!"
248: 0x0872 [0x23] WAIT_FOR_DIALOG_INTERACTION
249: 0x0873 [0x5B] LOAD_EXT_SCHEDULER: Load scheduler "tla1" with entities [Tenzen (ID: 17961684/0x011212D4), Tenzen (ID: 17961684/0x011212D4)], work=425*
250: 0x0882 [0x1C] WAIT(90* ticks)
251: 0x0885 [0x79] LocalPlayer looks at Siren (ID: 17961685/0x011212D5) (Basic look)
252: 0x088F [0x4A] Tenzen (ID: 17961684/0x011212D4) looks at Siren (ID: 17961685/0x011212D5)
253: 0x0898 [0x52] END_LOAD_SCHEDULER: End scheduler "s117" with entities [EventEntity, EventEntity], work=765*

SUBROUTINE_08A7:
254: 0x08A7 [0x45] LOAD_SCHEDULED_TASK: Load scheduler "s118" with entities [EventEntity, EventEntity], work=[765*, 0*]
255: 0x08B8 [0x2B] Siren (ID: 17961685/0x011212D5) [7409*]:
    → "I shall show you how to meet Altana."
256: 0x08BF [0x23] WAIT_FOR_DIALOG_INTERACTION
257: 0x08C0 [0x2B] Siren (ID: 17961685/0x011212D5) [7410*]:
    → "But to do so, you must first banish the Emptiness surrounding Reisenjima."
258: 0x08C7 [0x23] WAIT_FOR_DIALOG_INTERACTION
259: 0x08C8 [0x52] END_LOAD_SCHEDULER: End scheduler "s118" with entities [EventEntity, EventEntity], work=765*
260: 0x08D7 [0x45] LOAD_SCHEDULED_TASK: Load scheduler "s119" with entities [EventEntity, EventEntity], work=[765*, 0*]
261: 0x08E8 [0x2B] Siren (ID: 17961685/0x011212D5) [7411*]:
    → "And the only one who can aid you in that task is Selh'teus."
262: 0x08EF [0x23] WAIT_FOR_DIALOG_INTERACTION
263: 0x08F0 [0x2B] Siren (ID: 17961685/0x011212D5) [7412*]:
    → "I shall grant you the ability to traverse the mists to where Selh'teus resides."
264: 0x08F7 [0x23] WAIT_FOR_DIALOG_INTERACTION
265: 0x08F8 [0x52] END_LOAD_SCHEDULER: End scheduler "s119" with entities [EventEntity, EventEntity], work=765*
266: 0x0907 [0x45] LOAD_SCHEDULED_TASK: Load scheduler "s120" with entities [EventEntity, EventEntity], work=[765*, 0*]
267: 0x0918 [0x81] SET_ENTITY_BLINKING(blink_flag=0x00, entity=Siren (ID: 17961685/0x011212D5))
268: 0x091E [0x7C] Siren (ID: 17961685/0x011212D5)->Render.Flags2 |= 0x00
269: 0x0924 [0x5B] LOAD_EXT_SCHEDULER: Load scheduler "kag0" with entities [Siren (ID: 17961685/0x011212D5), Siren (ID: 17961685/0x011212D5)], work=3879*
270: 0x0933 [0xD0] LOAD_SCHEDULED_TASK_ALT5: Load scheduler "main" with entities [Siren (ID: 17961685/0x011212D5), Siren (ID: 17961685/0x011212D5)], work=[117*, 0*]
271: 0x0944 [0x1C] WAIT(130* ticks)
272: 0x0947 [0x52] END_LOAD_SCHEDULER: End scheduler "s120" with entities [EventEntity, EventEntity], work=765*
273: 0x0956 [0x45] LOAD_SCHEDULED_TASK: Load scheduler "s121" with entities [EventEntity, EventEntity], work=[765*, 0*]
274: 0x0967 [0x1C] WAIT(130* ticks)
275: 0x096A [0x52] END_LOAD_SCHEDULER: End scheduler "s121" with entities [EventEntity, EventEntity], work=765*
276: 0x0979 [0x45] LOAD_SCHEDULED_TASK: Load scheduler "s122" with entities [EventEntity, EventEntity], work=[765*, 0*]
277: 0x098A [0x79] Tenzen (ID: 17961684/0x011212D4) looks at EventEntity (Basic look)
278: 0x0994 [0x5B] LOAD_EXT_SCHEDULER: Load scheduler "tla0" with entities [Tenzen (ID: 17961684/0x011212D4), Tenzen (ID: 17961684/0x011212D4)], work=425*
279: 0x09A3 [0x1C] WAIT(15* ticks)
280: 0x09A6 [0x79] LocalPlayer looks at EventEntity (Basic look)
281: 0x09B0 [0x1C] WAIT(15* ticks)
282: 0x09B3 [0x62] LOAD_EVENT_SCHEDULER: Load scheduler "main" with entities [EventEntity, EventEntity], work=[3*, 0*]
283: 0x09C4 [0x1C] WAIT(90* ticks)
284: 0x09C7 [0x5B] LOAD_EXT_SCHEDULER: Load scheduler "tla1" with entities [Tenzen (ID: 17961684/0x011212D4), Tenzen (ID: 17961684/0x011212D4)], work=425*
285: 0x09D6 [0x1C] WAIT(60* ticks)
286: 0x09D9 [0x79] Tenzen (ID: 17961684/0x011212D4) looks at Siren (ID: 17961685/0x011212D5) (Basic look)
287: 0x09E3 [0x81] SET_ENTITY_BLINKING(blink_flag=0x01, entity=Siren (ID: 17961685/0x011212D5))
288: 0x09E9 [0x7C] Siren (ID: 17961685/0x011212D5)->Render.Flags2 |= 0x01
289: 0x09EF [0x52] END_LOAD_SCHEDULER: End scheduler "s122" with entities [EventEntity, EventEntity], work=765*
290: 0x09FE [0x45] LOAD_SCHEDULED_TASK: Load scheduler "s123" with entities [EventEntity, EventEntity], work=[765*, 0*]
291: 0x0A0F [0x79] LocalPlayer looks at Siren (ID: 17961685/0x011212D5) (Basic look)
292: 0x0A19 [0x5F] MULTI_HANDLER_COMPLEX(mode=0x05 - Load ext scheduler with flag (OpCode 0x5B mode 0, flag 1), ref=660*, entity1=Tenzen (ID: 17961684/0x011212D4), entity2=Tenzen (ID: 17961684/0x011212D4), string="bye0", extra=300*)
293: 0x0A2B [0x2B] Tenzen (ID: 17961684/0x011212D4) [7413*]:
    → "To think you would do such a thing for us!"
294: 0x0A32 [0x23] WAIT_FOR_DIALOG_INTERACTION
295: 0x0A33 [0x2B] Siren (ID: 17961685/0x011212D5) [7414*]:
    → "Never forget your charge, even should Iroha and I fade from this world."
296: 0x0A3A [0x23] WAIT_FOR_DIALOG_INTERACTION
297: 0x0A3B [0x5F] MULTI_HANDLER_COMPLEX(mode=0x07 - Wait scheduler task (OpCode 0x53))
298: 0x0A49 [0x5B] LOAD_EXT_SCHEDULER: Load scheduler "odo0" with entities [Tenzen (ID: 17961684/0x011212D4), Tenzen (ID: 17961684/0x011212D4)], work=427*
299: 0x0A58 [0x1C] WAIT(10* ticks)
300: 0x0A5B [0x52] END_LOAD_SCHEDULER: End scheduler "s123" with entities [EventEntity, EventEntity], work=765*
301: 0x0A6A [0x45] LOAD_SCHEDULED_TASK: Load scheduler "s124" with entities [EventEntity, EventEntity], work=[765*, 0*]
302: 0x0A7B [0x2B] Tenzen (ID: 17961684/0x011212D4) [7415*]:
    → ""Fade"? Why fade?"
303: 0x0A82 [0x23] WAIT_FOR_DIALOG_INTERACTION
304: 0x0A83 [0x52] END_LOAD_SCHEDULER: End scheduler "s124" with entities [EventEntity, EventEntity], work=765*
305: 0x0A92 [0x45] LOAD_SCHEDULED_TASK: Load scheduler "s125" with entities [EventEntity, EventEntity], work=[765*, 0*]
306: 0x0AA3 [0xCD] LOAD_SCHEDULED_TASK_ALT4: Load scheduler "s000" with entities [EventEntity, EventEntity], work=[7*, 0*]
307: 0x0AB4 [0x1C] WAIT(40* ticks)
308: 0x0AB7 [0x6E] LocalPlayer uses emote 29*
309: 0x0ABE [0x99] Wait for LocalPlayer animation to complete
310: 0x0AC3 [0x1C] WAIT(200* ticks)
311: 0x0AC6 [0x52] END_LOAD_SCHEDULER: End scheduler "s125" with entities [EventEntity, EventEntity], work=765*
312: 0x0AD5 [0x45] LOAD_SCHEDULED_TASK: Load scheduler "s126" with entities [EventEntity, EventEntity], work=[765*, 0*]
313: 0x0AE6 [0x2B] Siren (ID: 17961685/0x011212D5) [7416*]:
    → "Hahaha... Your friend had bid me buy some time, yet I fear that I cannot hold out any longer."
314: 0x0AED [0x23] WAIT_FOR_DIALOG_INTERACTION
315: 0x0AEE [0x2B] Siren (ID: 17961685/0x011212D5) [7417*]:
    → "Go."
316: 0x0AF5 [0x23] WAIT_FOR_DIALOG_INTERACTION
317: 0x0AF6 [0x52] END_LOAD_SCHEDULER: End scheduler "s126" with entities [EventEntity, EventEntity], work=765*
318: 0x0B05 [0x45] LOAD_SCHEDULED_TASK: Load scheduler "s127" with entities [EventEntity, EventEntity], work=[765*, 0*]
319: 0x0B16 [0x24] CREATE_DIALOG(message_id=7418*, default_option=0*, option_flags=0*)
    → "Will you leave? [Yes./No./"Buy time"?]"
320: 0x0B1D [0x25] WAIT_DIALOG_SELECT()
321: 0x0B1E [0x02] IF !(Work_Zone[0] == 0*) GOTO 0x0B59
322: 0x0B26 [0x52] END_LOAD_SCHEDULER: End scheduler "s127" with entities [EventEntity, EventEntity], work=765*
323: 0x0B35 [0x45] LOAD_SCHEDULED_TASK: Load scheduler "s128" with entities [EventEntity, EventEntity], work=[765*, 0*]
324: 0x0B46 [0x2B] Siren (ID: 17961685/0x011212D5) [7419*]:
    → "That which wishes to defile the cycle of nature is using us to try to extinguish itself."
325: 0x0B4D [0x23] WAIT_FOR_DIALOG_INTERACTION
326: 0x0B4E [0x2B] Siren (ID: 17961685/0x011212D5) [7420*]:
    → "Pray it succeeds."
327: 0x0B55 [0x23] WAIT_FOR_DIALOG_INTERACTION
328: 0x0B56 [0x01] GOTO 0x0BD7
329: 0x0B59 [0x02] IF !(Work_Zone[0] == 1*) GOTO 0x0B94
330: 0x0B61 [0x52] END_LOAD_SCHEDULER: End scheduler "s127" with entities [EventEntity, EventEntity], work=765*
331: 0x0B70 [0x45] LOAD_SCHEDULED_TASK: Load scheduler "s128" with entities [EventEntity, EventEntity], work=[765*, 0*]
332: 0x0B81 [0x2B] Siren (ID: 17961685/0x011212D5) [7421*]:
    → "She has explicitly expressed that she does not desire to see you."
333: 0x0B88 [0x23] WAIT_FOR_DIALOG_INTERACTION
334: 0x0B89 [0x2B] Siren (ID: 17961685/0x011212D5) [7422*]:
    → "Do not get in the way. That which wishes to defile the cycle of nature is trying to extinguish itself."
335: 0x0B90 [0x23] WAIT_FOR_DIALOG_INTERACTION
336: 0x0B91 [0x01] GOTO 0x0BD7
337: 0x0B94 [0x02] IF !(Work_Zone[0] == 2*) GOTO 0x0BD7
338: 0x0B9C [0x52] END_LOAD_SCHEDULER: End scheduler "s127" with entities [EventEntity, EventEntity], work=765*
339: 0x0BAB [0x45] LOAD_SCHEDULED_TASK: Load scheduler "s128" with entities [EventEntity, EventEntity], work=[765*, 0*]
340: 0x0BBC [0x2B] Siren (ID: 17961685/0x011212D5) [7423*]:
    → "She has explicitly expressed that she does not desire to see you."
341: 0x0BC3 [0x23] WAIT_FOR_DIALOG_INTERACTION
342: 0x0BC4 [0x2B] Siren (ID: 17961685/0x011212D5) [7424*]:
    → "That which wishes to defile the cycle of nature is trying to extinguish itself...and we will do our utmost to see that it succeeds."
343: 0x0BCB [0x23] WAIT_FOR_DIALOG_INTERACTION
344: 0x0BCC [0x2B] Siren (ID: 17961685/0x011212D5) [7425*]:
    → "You would do best to remain ignorant of the particulars. Now go."
345: 0x0BD3 [0x23] WAIT_FOR_DIALOG_INTERACTION
346: 0x0BD4 [0x01] GOTO 0x0BD7

SUBROUTINE_0BD7:
347: 0x0BD7 [0x52] END_LOAD_SCHEDULER: End scheduler "s128" with entities [EventEntity, EventEntity], work=765*
348: 0x0BE6 [0x45] LOAD_SCHEDULED_TASK: Load scheduler "s129" with entities [EventEntity, EventEntity], work=[765*, 0*]
349: 0x0BF7 [0x81] SET_ENTITY_BLINKING(blink_flag=0x00, entity=Siren (ID: 17961685/0x011212D5))
350: 0x0BFD [0x7C] Siren (ID: 17961685/0x011212D5)->Render.Flags2 |= 0x00
351: 0x0C03 [0x5B] LOAD_EXT_SCHEDULER: Load scheduler "ded0" with entities [Siren (ID: 17961685/0x011212D5), Siren (ID: 17961685/0x011212D5)], work=3880*
352: 0x0C12 [0xD0] LOAD_SCHEDULED_TASK_ALT5: Load scheduler "main" with entities [Siren (ID: 17961685/0x011212D5), Siren (ID: 17961685/0x011212D5)], work=[118*, 0*]
353: 0x0C23 [0x5B] LOAD_EXT_SCHEDULER: Load scheduler "odo1" with entities [Tenzen (ID: 17961684/0x011212D4), Tenzen (ID: 17961684/0x011212D4)], work=427*
354: 0x0C32 [0x1C] WAIT(320* ticks)
355: 0x0C35 [0x52] END_LOAD_SCHEDULER: End scheduler "s129" with entities [EventEntity, EventEntity], work=765*
356: 0x0C44 [0x45] LOAD_SCHEDULED_TASK: Load scheduler "s130" with entities [EventEntity, EventEntity], work=[765*, 0*]
357: 0x0C55 [0x4A] Tenzen (ID: 17961684/0x011212D4) looks at LocalPlayer
358: 0x0C5E [0x79] LocalPlayer looks at Tenzen (ID: 17961684/0x011212D4) (Basic look)
359: 0x0C68 [0x1C] WAIT(30* ticks)
360: 0x0C6B [0x2B] Tenzen (ID: 17961684/0x011212D4) [7426*]:
    → "[Lord/Lady] <Player>, it matters not what Siren says. We cannot turn back now!"
361: 0x0C72 [0x23] WAIT_FOR_DIALOG_INTERACTION
362: 0x0C73 [0x2B] Tenzen (ID: 17961684/0x011212D4) [7427*]:
    → "What we seek lies further within!"
363: 0x0C7A [0x23] WAIT_FOR_DIALOG_INTERACTION
364: 0x0C7B [0x52] END_LOAD_SCHEDULER: End scheduler "s130" with entities [EventEntity, EventEntity], work=765*
365: 0x0C8A [0x45] LOAD_SCHEDULED_TASK: Load scheduler "s131" with entities [EventEntity, EventEntity], work=[765*, 0*]
366: 0x0C9B [0x27] REQ_SET(priority=0x05, entity_id=Tenzen (ID: 17961684/0x011212D4), tag_num=0x04)
367: 0x0CA2 [0x1C] WAIT(120* ticks)
368: 0x0CA5 [0x45] LOAD_SCHEDULED_TASK: Load scheduler "fdo1" with entities [EventEntity, EventEntity], work=[200*, 0*]
369: 0x0CB6 [0x55] WAIT_LOAD_SCHEDULER: Wait for scheduler "fdo1" with entities [EventEntity, EventEntity], work=200*
370: 0x0CC5 [0x52] END_LOAD_SCHEDULER: End scheduler "s131" with entities [EventEntity, EventEntity], work=765*
371: 0x0CD4 [0x46] CAMERA_CONTROL: Restore default settings
372: 0x0CD6 [0x45] LOAD_SCHEDULED_TASK: Load scheduler "fdi2" with entities [EventEntity, EventEntity], work=[200*, 0*]
373: 0x0CE7 [0x1B] RETURN
```

### Event 5

#### Metadata

| Field        | Value      |
|--------------|------------|
| Entrypoint   | 0x0CE8     |
| Data Size    | 1774 bytes |
| Instructions | 208        |

```
      00 01 02 03 04 05 06 07  08 09 0A 0B 0C 0D 0E 0F
      -- -- -- -- -- -- -- --  -- -- -- -- -- -- -- --
0CE0:                          42 45 00 80 F8 FF FF 7F          BE......
0CF0: F8 FF FF 7F 66 64 6F 31  01 80 55 00 80 F8 FF FF  ....fdo1..U.....
0D00: 7F F8 FF FF 7F 66 64 6F  31 46 01 38 04 80 2F 00  .....fdo1F.8../.
0D10: D9 12 12 01 2F 00 DA 12  12 01 2F 00 DB 12 12 01  ..../...../.....
0D20: 2F 00 D5 12 12 01 2F 00  D6 12 12 01 2F 00 D7 12  /...../...../...
0D30: 12 01 2F 00 D8 12 12 01  2F 00 D4 12 12 01 22 00  ../...../.....".
0D40: 4E 00 D9 12 12 01 4E 00  DA 12 12 01 4E 00 DB 12  N.....N.....N...
0D50: 12 01 4E 00 F0 FF FF 7F  4E 00 D5 12 12 01 4E 00  ..N.....N.....N.
0D60: D6 12 12 01 4E 00 D7 12  12 01 4E 00 D8 12 12 01  ....N.....N.....
0D70: 4E 00 D4 12 12 01 92 01  D9 12 12 01 92 01 DA 12  N...............
0D80: 12 01 92 01 DB 12 12 01  92 01 D5 12 12 01 92 01  ................
0D90: D6 12 12 01 92 01 D4 12  12 01 94 01 D9 12 12 01  ................
0DA0: 94 01 DA 12 12 01 94 01  DB 12 12 01 94 01 F0 FF  ................
0DB0: FF 7F 94 01 D5 12 12 01  94 01 D6 12 12 01 94 01  ................
0DC0: D7 12 12 01 94 01 D8 12  12 01 94 01 D4 12 12 01  ................
0DD0: 94 01 F8 FF FF 7F 33 01  59 05 D5 12 12 01 01 59  ......3.Y......Y
0DE0: 05 D6 12 12 01 01 59 05  D7 12 12 01 01 59 05 D8  ......Y......Y..
0DF0: 12 12 01 01 59 05 D4 12  12 01 01 BA D9 12 12 01  ....Y...........
0E00: 62 80 63 80 64 80 65 80  BA DA 12 12 01 66 80 67  b.c.d.e......f.g
0E10: 80 64 80 68 80 BA DB 12  12 01 69 80 6A 80 64 80  .d.h......i.j.d.
0E20: 6B 80 BA F0 FF FF 7F 6C  80 6D 80 12 80 6E 80 BA  k......l.m...n..
0E30: D5 12 12 01 6F 80 70 80  71 80 72 80 BA D6 12 12  ....o.p.q.r.....
0E40: 01 73 80 74 80 75 80 72  80 BA D7 12 12 01 76 80  .s.t.u.r......v.
0E50: 77 80 78 80 6E 80 BA D8  12 12 01 79 80 7A 80 7B  w.x.n......y.z.{
0E60: 80 72 80 BA D4 12 12 01  7C 80 7D 80 7E 80 7F 80  .r......|.}.~...
0E70: 37 80 80 81 80 82 80 7F  80 80 D9 12 12 01 80 DA  7...............
0E80: 12 12 01 80 DB 12 12 01  80 F0 FF FF 7F 80 D5 12  ................
0E90: 12 01 80 D6 12 12 01 80  D7 12 12 01 80 D8 12 12  ................
0EA0: 01 80 D4 12 12 01 80 F8  FF FF 7F 1C 23 80 D0 83  ............#...
0EB0: 80 D5 12 12 01 D5 12 12  01 75 7A 30 30 01 80 D0  .........uz00...
0EC0: 83 80 D6 12 12 01 D6 12  12 01 75 7A 30 30 01 80  ..........uz00..
0ED0: D0 83 80 D8 12 12 01 D8  12 12 01 75 7A 30 30 01  ...........uz00.
0EE0: 80 D0 83 80 D7 12 12 01  D7 12 12 01 75 7A 30 30  ............uz00
0EF0: 01 80 D0 83 80 D4 12 12  01 D4 12 12 01 75 7A 30  .............uz0
0F00: 30 01 80 D0 83 80 F8 FF  FF 7F F8 FF FF 7F 75 7A  0.............uz
0F10: 30 30 01 80 1C 2D 80 45  27 80 F8 FF FF 7F F8 FF  00...-.E'.......
0F20: FF 7F 73 31 38 33 01 80  1C 28 80 45 00 80 F8 FF  ..s183...(.E....
0F30: FF 7F F8 FF FF 7F 66 64  69 31 01 80 1C 2A 80 52  ......fdi1...*.R
0F40: 27 80 F8 FF FF 7F F8 FF  FF 7F 73 31 38 33 45 27  '.........s183E'
0F50: 80 F8 FF FF 7F F8 FF FF  7F 73 31 35 37 01 80 66  .........s157..f
0F60: 01 80 DA 12 12 01 DA 12  12 01 74 68 6B 31 5B 84  ..........thk1[.
0F70: 80 D9 12 12 01 D9 12 12  01 6B 61 6B 30 2B D9 12  .........kak0+..
0F80: 12 01 85 80 23 2B D9 12  12 01 86 80 23 27 05 F0  ....#+......#'..
0F90: FF FF 7F 18 52 27 80 F8  FF FF 7F F8 FF FF 7F 73  ....R'.........s
0FA0: 31 35 37 45 27 80 F8 FF  FF 7F F8 FF FF 7F 73 31  157E'.........s1
0FB0: 35 38 01 80 5B 84 80 D9  12 12 01 D9 12 12 01 6B  58..[..........k
0FC0: 61 6B 31 1C 23 80 BA D5  12 12 01 87 80 88 80 89  ak1.#...........
0FD0: 80 7F 80 BA D7 12 12 01  8A 80 8B 80 8C 80 7F 80  ................
0FE0: BA D8 12 12 01 8D 80 8E  80 8F 80 7F 80 BA D6 12  ................
0FF0: 12 01 90 80 91 80 92 80  7F 80 66 01 80 DA 12 12  ..........f.....
1000: 01 DA 12 12 01 74 68 6B  32 1C 23 80 4A D9 12 12  .....thk2.#.J...
1010: 01 F0 FF FF 7F 1C 23 80  4A DB 12 12 01 F0 FF FF  ......#.J.......
1020: 7F 1C 28 80 4A DA 12 12  01 F0 FF FF 7F 1C 23 80  ..(.J.........#.
1030: 2A 05 F0 FF FF 7F 52 27  80 F8 FF FF 7F F8 FF FF  *.....R'........
1040: 7F 73 31 35 38 45 27 80  F8 FF FF 7F F8 FF FF 7F  .s158E'.........
1050: 73 31 35 39 01 80 5B 84  80 D9 12 12 01 D9 12 12  s159..[.........
1060: 01 74 6C 6B 30 2B D9 12  12 01 93 80 23 2B D9 12  .tlk0+......#+..
1070: 12 01 94 80 23 2B D9 12  12 01 95 80 23 5B 84 80  ....#+......#[..
1080: D9 12 12 01 D9 12 12 01  74 6C 6B 31 52 27 80 F8  ........tlk1R'..
1090: FF FF 7F F8 FF FF 7F 73  31 35 39 45 27 80 F8 FF  .......s159E'...
10A0: FF 7F F8 FF FF 7F 73 31  36 30 01 80 66 01 80 DA  ......s160..f...
10B0: 12 12 01 DA 12 12 01 64  69 73 30 2B DA 12 12 01  .......dis0+....
10C0: 96 80 23 52 27 80 F8 FF  FF 7F F8 FF FF 7F 73 31  ..#R'.........s1
10D0: 36 30 45 27 80 F8 FF FF  7F F8 FF FF 7F 73 31 36  60E'.........s16
10E0: 31 01 80 66 97 80 DB 12  12 01 DB 12 12 01 74 6C  1..f..........tl
10F0: 62 30 2B DB 12 12 01 98  80 23 2B DB 12 12 01 99  b0+......#+.....
1100: 80 23 66 97 80 DB 12 12  01 DB 12 12 01 74 6C 62  .#f..........tlb
1110: 31 52 27 80 F8 FF FF 7F  F8 FF FF 7F 73 31 36 31  1R'.........s161
1120: 45 27 80 F8 FF FF 7F F8  FF FF 7F 73 31 36 32 01  E'.........s162.
1130: 80 27 05 D9 12 12 01 02  2B D9 12 12 01 9A 80 23  .'......+......#
1140: 2A 05 D9 12 12 01 4A DB  12 12 01 D9 12 12 01 1C  *.....J.........
1150: 23 80 4A DA 12 12 01 D9  12 12 01 66 97 80 DB 12  #.J........f....
1160: 12 01 DB 12 12 01 74 6C  62 30 2B DB 12 12 01 9B  ......tlb0+.....
1170: 80 23 66 97 80 DB 12 12  01 DB 12 12 01 74 6C 62  .#f..........tlb
1180: 31 52 27 80 F8 FF FF 7F  F8 FF FF 7F 73 31 36 32  1R'.........s162
1190: 45 27 80 F8 FF FF 7F F8  FF FF 7F 73 31 36 33 01  E'.........s163.
11A0: 80 4A D9 12 12 01 DB 12  12 01 1C 23 80 5B 84 80  .J.........#.[..
11B0: D9 12 12 01 D9 12 12 01  74 6C 6B 30 2B D9 12 12  ........tlk0+...
11C0: 01 9C 80 23 52 27 80 F8  FF FF 7F F8 FF FF 7F 73  ...#R'.........s
11D0: 31 36 33 45 27 80 F8 FF  FF 7F F8 FF FF 7F 73 31  163E'.........s1
11E0: 36 36 01 80 2B D9 12 12  01 9D 80 1C 2A 80 52 27  66..+.......*.R'
11F0: 80 F8 FF FF 7F F8 FF FF  7F 73 31 36 36 45 27 80  .........s166E'.
1200: F8 FF FF 7F F8 FF FF 7F  73 31 36 37 01 80 1C 29  ........s167...)
1210: 80 4A D9 12 12 01 DA 12  12 01 BA D5 12 12 01 9E  .J..............
1220: 80 9F 80 A0 80 7F 80 BA  D7 12 12 01 A1 80 A2 80  ................
1230: A3 80 7F 80 BA D8 12 12  01 A4 80 A5 80 A0 80 7F  ................
1240: 80 1C 29 80 52 27 80 F8  FF FF 7F F8 FF FF 7F 73  ..).R'.........s
1250: 31 36 37 45 27 80 F8 FF  FF 7F F8 FF FF 7F 73 31  167E'.........s1
1260: 36 38 01 80 1C 2A 80 23  5B 84 80 D9 12 12 01 D9  68...*.#[.......
1270: 12 12 01 74 6C 6B 31 52  27 80 F8 FF FF 7F F8 FF  ...tlk1R'.......
1280: FF 7F 73 31 36 38 45 27  80 F8 FF FF 7F F8 FF FF  ..s168E'........
1290: 7F 73 31 36 34 01 80 79  00 D9 12 12 01 F0 FF FF  .s164..y........
12A0: 7F 2B D9 12 12 01 A6 80  23 4E 01 D5 12 12 01 4E  .+......#N.....N
12B0: 01 D6 12 12 01 4E 01 D7  12 12 01 4E 01 D8 12 12  .....N.....N....
12C0: 01 4E 01 D4 12 12 01 22  01 24 A7 80 01 80 01 80  .N.....".$......
12D0: 25 02 00 10 01 80 00 22  13 6E F0 FF FF 7F 07 80  %......".n......
12E0: 99 F0 FF FF 7F 1C 2D 80  52 27 80 F8 FF FF 7F F8  ......-.R'......
12F0: FF FF 7F 73 31 36 34 45  27 80 F8 FF FF 7F F8 FF  ...s164E'.......
1300: FF 7F 73 31 36 35 01 80  5B 84 80 D9 12 12 01 D9  ..s165..[.......
1310: 12 12 01 74 6C 6B 30 2B  D9 12 12 01 A8 80 23 01  ...tlk0+......#.
1320: 73 13 02 00 10 03 80 00  73 13 6E F0 FF FF 7F 06  s.......s.n.....
1330: 80 99 F0 FF FF 7F 1C 2D  80 52 27 80 F8 FF FF 7F  .......-.R'.....
1340: F8 FF FF 7F 73 31 36 34  45 27 80 F8 FF FF 7F F8  ....s164E'......
1350: FF FF 7F 73 31 36 35 01  80 5B 84 80 D9 12 12 01  ...s165..[......
1360: D9 12 12 01 74 6C 6B 30  2B D9 12 12 01 A9 80 23  ....tlk0+......#
1370: 01 73 13 45 00 80 F8 FF  FF 7F F8 FF FF 7F 66 64  .s.E..........fd
1380: 6F 31 01 80 55 00 80 F8  FF FF 7F F8 FF FF 7F 66  o1..U..........f
1390: 64 6F 31 52 27 80 F8 FF  FF 7F F8 FF FF 7F 73 31  do1R'.........s1
13A0: 36 35 29 05 D4 12 12 01  08 29 05 D5 12 12 01 07  65)......)......
13B0: 29 05 D6 12 12 01 04 29  05 D7 12 12 01 04 1C 29  )......).......)
13C0: 80 46 00 45 00 80 F8 FF  FF 7F F8 FF FF 7F 66 64  .F.E..........fd
13D0: 69 32 01 80 21 00                                 i2..!.          
```

#### Opcodes

```
  0: 0x0CE8 [0x42] SET_CLI_EVENT_CANCEL_DATA()
  1: 0x0CE9 [0x45] LOAD_SCHEDULED_TASK: Load scheduler "fdo1" with entities [EventEntity, EventEntity], work=[200*, 0*]
  2: 0x0CFA [0x55] WAIT_LOAD_SCHEDULER: Wait for scheduler "fdo1" with entities [EventEntity, EventEntity], work=200*
  3: 0x0D09 [0x46] CAMERA_CONTROL: Disable user control
  4: 0x0D0B [0x38] SET_CLIENT_EVENT_MODE(mode=27*)
  5: 0x0D0E [0x2F] Cid (ID: 17961689/0x011212D9)->Render.Flags0 &= ~0x80000 // Bit 19
  6: 0x0D14 [0x2F] Naji (ID: 17961690/0x011212DA)->Render.Flags0 &= ~0x80000 // Bit 19
  7: 0x0D1A [0x2F] Ayame (ID: 17961691/0x011212DB)->Render.Flags0 &= ~0x80000 // Bit 19
  8: 0x0D20 [0x2F] Siren (ID: 17961685/0x011212D5)->Render.Flags0 &= ~0x80000 // Bit 19
  9: 0x0D26 [0x2F] Siren Prime (ID: 17961686/0x011212D6)->Render.Flags0 &= ~0x80000 // Bit 19
 10: 0x0D2C [0x2F] Unnamed NPC (ID: 17961687/0x011212D7)->Render.Flags0 &= ~0x80000 // Bit 19
 11: 0x0D32 [0x2F] Unnamed NPC (ID: 17961688/0x011212D8)->Render.Flags0 &= ~0x80000 // Bit 19
 12: 0x0D38 [0x2F] Tenzen (ID: 17961684/0x011212D4)->Render.Flags0 &= ~0x80000 // Bit 19
 13: 0x0D3E [0x22] ENTITY_HIDE_FLAG(enabled=0x00)
 14: 0x0D40 [0x4E] SET_ENTITY_HIDE_FLAG: Show Cid (ID: 17961689/0x011212D9)
 15: 0x0D46 [0x4E] SET_ENTITY_HIDE_FLAG: Show Naji (ID: 17961690/0x011212DA)
 16: 0x0D4C [0x4E] SET_ENTITY_HIDE_FLAG: Show Ayame (ID: 17961691/0x011212DB)
 17: 0x0D52 [0x4E] SET_ENTITY_HIDE_FLAG: Show LocalPlayer
 18: 0x0D58 [0x4E] SET_ENTITY_HIDE_FLAG: Show Siren (ID: 17961685/0x011212D5)
 19: 0x0D5E [0x4E] SET_ENTITY_HIDE_FLAG: Show Siren Prime (ID: 17961686/0x011212D6)
 20: 0x0D64 [0x4E] SET_ENTITY_HIDE_FLAG: Show Unnamed NPC (ID: 17961687/0x011212D7)
 21: 0x0D6A [0x4E] SET_ENTITY_HIDE_FLAG: Show Unnamed NPC (ID: 17961688/0x011212D8)
 22: 0x0D70 [0x4E] SET_ENTITY_HIDE_FLAG: Show Tenzen (ID: 17961684/0x011212D4)
 23: 0x0D76 [0x92] Cid (ID: 17961689/0x011212D9)->Render.Flags3 ^= 0x01
 24: 0x0D7C [0x92] Naji (ID: 17961690/0x011212DA)->Render.Flags3 ^= 0x01
 25: 0x0D82 [0x92] Ayame (ID: 17961691/0x011212DB)->Render.Flags3 ^= 0x01
 26: 0x0D88 [0x92] Siren (ID: 17961685/0x011212D5)->Render.Flags3 ^= 0x01
 27: 0x0D8E [0x92] Siren Prime (ID: 17961686/0x011212D6)->Render.Flags3 ^= 0x01
 28: 0x0D94 [0x92] Tenzen (ID: 17961684/0x011212D4)->Render.Flags3 ^= 0x01
 29: 0x0D9A [0x94] Cid (ID: 17961689/0x011212D9)->Render.Flags3 ^= 0x01
 30: 0x0DA0 [0x94] Naji (ID: 17961690/0x011212DA)->Render.Flags3 ^= 0x01
 31: 0x0DA6 [0x94] Ayame (ID: 17961691/0x011212DB)->Render.Flags3 ^= 0x01
 32: 0x0DAC [0x94] LocalPlayer->Render.Flags3 ^= 0x01
 33: 0x0DB2 [0x94] Siren (ID: 17961685/0x011212D5)->Render.Flags3 ^= 0x01
 34: 0x0DB8 [0x94] Siren Prime (ID: 17961686/0x011212D6)->Render.Flags3 ^= 0x01
 35: 0x0DBE [0x94] Unnamed NPC (ID: 17961687/0x011212D7)->Render.Flags3 ^= 0x01
 36: 0x0DC4 [0x94] Unnamed NPC (ID: 17961688/0x011212D8)->Render.Flags3 ^= 0x01
 37: 0x0DCA [0x94] Tenzen (ID: 17961684/0x011212D4)->Render.Flags3 ^= 0x01
 38: 0x0DD0 [0x94] EventEntity->Render.Flags3 ^= 0x01
 39: 0x0DD6 [0x33] EventEntity->Render.Flags0 |= 0x200000 // Bit 21 (flag=0x01)
 40: 0x0DD8 [0x59] UPDATE_ENTITY_DATA: Siren (ID: 17961685/0x011212D5)->Render.Flags0 |= 0x200000
 41: 0x0DDF [0x59] UPDATE_ENTITY_DATA: Siren Prime (ID: 17961686/0x011212D6)->Render.Flags0 |= 0x200000
 42: 0x0DE6 [0x59] UPDATE_ENTITY_DATA: Unnamed NPC (ID: 17961687/0x011212D7)->Render.Flags0 |= 0x200000
 43: 0x0DED [0x59] UPDATE_ENTITY_DATA: Unnamed NPC (ID: 17961688/0x011212D8)->Render.Flags0 |= 0x200000
 44: 0x0DF4 [0x59] UPDATE_ENTITY_DATA: Tenzen (ID: 17961684/0x011212D4)->Render.Flags0 |= 0x200000
 45: 0x0DFB [0xBA] SET_ENTITY_POSITION(entity_id=Cid (ID: 17961689/0x011212D9), pos_x=-1.259*, pos_z=-460.088*, pos_y=-34.000*, direction=260.7°*)
 46: 0x0E08 [0xBA] SET_ENTITY_POSITION(entity_id=Naji (ID: 17961690/0x011212DA), pos_x=-2.910*, pos_z=-461.411*, pos_y=-34.000*, direction=270.0°*)
 47: 0x0E15 [0xBA] SET_ENTITY_POSITION(entity_id=Ayame (ID: 17961691/0x011212DB), pos_x=0.207*, pos_z=-460.962*, pos_y=-34.000*, direction=257.9°*)
 48: 0x0E22 [0xBA] SET_ENTITY_POSITION(entity_id=LocalPlayer, pos_x=-0.371*, pos_z=-466.981*, pos_y=-34.277*, direction=263.4°*)
 49: 0x0E2F [0xBA] SET_ENTITY_POSITION(entity_id=Siren (ID: 17961685/0x011212D5), pos_x=5.728*, pos_z=-447.406*, pos_y=-41.599*, direction=263.5°*)
 50: 0x0E3C [0xBA] SET_ENTITY_POSITION(entity_id=Siren Prime (ID: 17961686/0x011212D6), pos_x=7.928*, pos_z=-410.961*, pos_y=-70.099*, direction=263.5°*)
 51: 0x0E49 [0xBA] SET_ENTITY_POSITION(entity_id=Unnamed NPC (ID: 17961687/0x011212D7), pos_x=-2.887*, pos_z=-435.046*, pos_y=-47.734*, direction=263.4°*)
 52: 0x0E56 [0xBA] SET_ENTITY_POSITION(entity_id=Unnamed NPC (ID: 17961688/0x011212D8), pos_x=-13.139*, pos_z=-410.278*, pos_y=-53.099*, direction=263.5°*)
 53: 0x0E63 [0xBA] SET_ENTITY_POSITION(entity_id=Tenzen (ID: 17961684/0x011212D4), pos_x=107.077*, pos_z=-162.909*, pos_y=-40.300*, direction=260.1°*)
 54: 0x0E70 [0x37] UPDATE_EVENT_POSITION_AND_DIR: x=104.378*, z=-154.376*, y=-43.099*, direction=260.1°*
 55: 0x0E79 [0x80] LOAD_WAIT(entity=Cid (ID: 17961689/0x011212D9))
 56: 0x0E7E [0x80] LOAD_WAIT(entity=Naji (ID: 17961690/0x011212DA))
 57: 0x0E83 [0x80] LOAD_WAIT(entity=Ayame (ID: 17961691/0x011212DB))
 58: 0x0E88 [0x80] LOAD_WAIT(entity=LocalPlayer)
 59: 0x0E8D [0x80] LOAD_WAIT(entity=Siren (ID: 17961685/0x011212D5))
 60: 0x0E92 [0x80] LOAD_WAIT(entity=Siren Prime (ID: 17961686/0x011212D6))
 61: 0x0E97 [0x80] LOAD_WAIT(entity=Unnamed NPC (ID: 17961687/0x011212D7))
 62: 0x0E9C [0x80] LOAD_WAIT(entity=Unnamed NPC (ID: 17961688/0x011212D8))
 63: 0x0EA1 [0x80] LOAD_WAIT(entity=Tenzen (ID: 17961684/0x011212D4))
 64: 0x0EA6 [0x80] LOAD_WAIT(entity=EventEntity)
 65: 0x0EAB [0x1C] WAIT(30* ticks)
 66: 0x0EAE [0xD0] LOAD_SCHEDULED_TASK_ALT5: Load scheduler "uz00" with entities [Siren (ID: 17961685/0x011212D5), Siren (ID: 17961685/0x011212D5)], work=[143*, 0*]
 67: 0x0EBF [0xD0] LOAD_SCHEDULED_TASK_ALT5: Load scheduler "uz00" with entities [Siren Prime (ID: 17961686/0x011212D6), Siren Prime (ID: 17961686/0x011212D6)], work=[143*, 0*]
 68: 0x0ED0 [0xD0] LOAD_SCHEDULED_TASK_ALT5: Load scheduler "uz00" with entities [Unnamed NPC (ID: 17961688/0x011212D8), Unnamed NPC (ID: 17961688/0x011212D8)], work=[143*, 0*]
 69: 0x0EE1 [0xD0] LOAD_SCHEDULED_TASK_ALT5: Load scheduler "uz00" with entities [Unnamed NPC (ID: 17961687/0x011212D7), Unnamed NPC (ID: 17961687/0x011212D7)], work=[143*, 0*]
 70: 0x0EF2 [0xD0] LOAD_SCHEDULED_TASK_ALT5: Load scheduler "uz00" with entities [Tenzen (ID: 17961684/0x011212D4), Tenzen (ID: 17961684/0x011212D4)], work=[143*, 0*]
 71: 0x0F03 [0xD0] LOAD_SCHEDULED_TASK_ALT5: Load scheduler "uz00" with entities [EventEntity, EventEntity], work=[143*, 0*]
 72: 0x0F14 [0x1C] WAIT(90* ticks)
 73: 0x0F17 [0x45] LOAD_SCHEDULED_TASK: Load scheduler "s183" with entities [EventEntity, EventEntity], work=[765*, 0*]
 74: 0x0F28 [0x1C] WAIT(15* ticks)
 75: 0x0F2B [0x45] LOAD_SCHEDULED_TASK: Load scheduler "fdi1" with entities [EventEntity, EventEntity], work=[200*, 0*]
 76: 0x0F3C [0x1C] WAIT(120* ticks)
 77: 0x0F3F [0x52] END_LOAD_SCHEDULER: End scheduler "s183" with entities [EventEntity, EventEntity], work=765*
 78: 0x0F4E [0x45] LOAD_SCHEDULED_TASK: Load scheduler "s157" with entities [EventEntity, EventEntity], work=[765*, 0*]
 79: 0x0F5F [0x66] LOAD_EXT_SCHEDULER_MAIN: Load scheduler "thk1" with entities [Naji (ID: 17961690/0x011212DA), Naji (ID: 17961690/0x011212DA)], work=0*
 80: 0x0F6E [0x5B] LOAD_EXT_SCHEDULER: Load scheduler "kak0" with entities [Cid (ID: 17961689/0x011212D9), Cid (ID: 17961689/0x011212D9)], work=110*
 81: 0x0F7D [0x2B] Cid (ID: 17961689/0x011212D9) [7477*]:
    → "Well, if this isn't something else. Hey, Naji, get a load of this!"
 82: 0x0F84 [0x23] WAIT_FOR_DIALOG_INTERACTION
 83: 0x0F85 [0x2B] Cid (ID: 17961689/0x011212D9) [7478*]:
    → "I've seen some stuff in my time, but it's wholly unnatural."
 84: 0x0F8C [0x23] WAIT_FOR_DIALOG_INTERACTION
 85: 0x0F8D [0x27] REQ_SET(priority=0x05, entity_id=LocalPlayer, tag_num=0x18)
 86: 0x0F94 [0x52] END_LOAD_SCHEDULER: End scheduler "s157" with entities [EventEntity, EventEntity], work=765*
 87: 0x0FA3 [0x45] LOAD_SCHEDULED_TASK: Load scheduler "s158" with entities [EventEntity, EventEntity], work=[765*, 0*]
 88: 0x0FB4 [0x5B] LOAD_EXT_SCHEDULER: Load scheduler "kak1" with entities [Cid (ID: 17961689/0x011212D9), Cid (ID: 17961689/0x011212D9)], work=110*
 89: 0x0FC3 [0x1C] WAIT(30* ticks)
 90: 0x0FC6 [0xBA] SET_ENTITY_POSITION(entity_id=Siren (ID: 17961685/0x011212D5), pos_x=-39.726*, pos_z=-429.965*, pos_y=-44.600*, direction=260.1°*)
 91: 0x0FD3 [0xBA] SET_ENTITY_POSITION(entity_id=Unnamed NPC (ID: 17961687/0x011212D7), pos_x=-38.585*, pos_z=-424.382*, pos_y=-47.884*, direction=260.1°*)
 92: 0x0FE0 [0xBA] SET_ENTITY_POSITION(entity_id=Unnamed NPC (ID: 17961688/0x011212D8), pos_x=-34.049*, pos_z=-419.328*, pos_y=-46.884*, direction=260.1°*)
 93: 0x0FED [0xBA] SET_ENTITY_POSITION(entity_id=Siren Prime (ID: 17961686/0x011212D6), pos_x=111.111*, pos_z=-171.731*, pos_y=-39.299*, direction=260.1°*)
 94: 0x0FFA [0x66] LOAD_EXT_SCHEDULER_MAIN: Load scheduler "thk2" with entities [Naji (ID: 17961690/0x011212DA), Naji (ID: 17961690/0x011212DA)], work=0*
 95: 0x1009 [0x1C] WAIT(30* ticks)
 96: 0x100C [0x4A] Cid (ID: 17961689/0x011212D9) looks at LocalPlayer
 97: 0x1015 [0x1C] WAIT(30* ticks)
 98: 0x1018 [0x4A] Ayame (ID: 17961691/0x011212DB) looks at LocalPlayer
 99: 0x1021 [0x1C] WAIT(15* ticks)
100: 0x1024 [0x4A] Naji (ID: 17961690/0x011212DA) looks at LocalPlayer
101: 0x102D [0x1C] WAIT(30* ticks)
102: 0x1030 [0x2A] GET_REQ_LEVEL(level=5, entity_id=LocalPlayer)
103: 0x1036 [0x52] END_LOAD_SCHEDULER: End scheduler "s158" with entities [EventEntity, EventEntity], work=765*
104: 0x1045 [0x45] LOAD_SCHEDULED_TASK: Load scheduler "s159" with entities [EventEntity, EventEntity], work=[765*, 0*]
105: 0x1056 [0x5B] LOAD_EXT_SCHEDULER: Load scheduler "tlk0" with entities [Cid (ID: 17961689/0x011212D9), Cid (ID: 17961689/0x011212D9)], work=110*
106: 0x1065 [0x2B] Cid (ID: 17961689/0x011212D9) [7479*]:
    → "Don't get in over your head, my little adventurer buddy."
107: 0x106C [0x23] WAIT_FOR_DIALOG_INTERACTION
108: 0x106D [0x2B] Cid (ID: 17961689/0x011212D9) [7480*]:
    → "We haven't quite finished up our survey of it, but one thing's fully clear:"
109: 0x1074 [0x23] WAIT_FOR_DIALOG_INTERACTION
110: 0x1075 [0x2B] Cid (ID: 17961689/0x011212D9) [7481*]:
    → "The longer you stay in this Escha place, the more your spirit slips away."
111: 0x107C [0x23] WAIT_FOR_DIALOG_INTERACTION
112: 0x107D [0x5B] LOAD_EXT_SCHEDULER: Load scheduler "tlk1" with entities [Cid (ID: 17961689/0x011212D9), Cid (ID: 17961689/0x011212D9)], work=110*
113: 0x108C [0x52] END_LOAD_SCHEDULER: End scheduler "s159" with entities [EventEntity, EventEntity], work=765*
114: 0x109B [0x45] LOAD_SCHEDULED_TASK: Load scheduler "s160" with entities [EventEntity, EventEntity], work=[765*, 0*]
115: 0x10AC [0x66] LOAD_EXT_SCHEDULER_MAIN: Load scheduler "dis0" with entities [Naji (ID: 17961690/0x011212DA), Naji (ID: 17961690/0x011212DA)], work=0*
116: 0x10BB [0x2B] Naji (ID: 17961690/0x011212DA) [7482*]:
    → "As if that's not bad enough, you also lose all sense of time. That's why we make sure to keep someone posted at the entrance."
117: 0x10C2 [0x23] WAIT_FOR_DIALOG_INTERACTION
118: 0x10C3 [0x52] END_LOAD_SCHEDULER: End scheduler "s160" with entities [EventEntity, EventEntity], work=765*
119: 0x10D2 [0x45] LOAD_SCHEDULED_TASK: Load scheduler "s161" with entities [EventEntity, EventEntity], work=[765*, 0*]
120: 0x10E3 [0x66] LOAD_EXT_SCHEDULER_MAIN: Load scheduler "tlb0" with entities [Ayame (ID: 17961691/0x011212DB), Ayame (ID: 17961691/0x011212DB)], work=13*
121: 0x10F2 [0x2B] Ayame (ID: 17961691/0x011212DB) [7483*]:
    → "The chief is convinced that this is because the power of the crystals is being drained."
122: 0x10F9 [0x23] WAIT_FOR_DIALOG_INTERACTION
123: 0x10FA [0x2B] Ayame (ID: 17961691/0x011212DB) [7484*]:
    → "The only reason magic can be used inside is that the energies of Misareaux Coast are seeping in too."
124: 0x1101 [0x23] WAIT_FOR_DIALOG_INTERACTION
125: 0x1102 [0x66] LOAD_EXT_SCHEDULER_MAIN: Load scheduler "tlb1" with entities [Ayame (ID: 17961691/0x011212DB), Ayame (ID: 17961691/0x011212DB)], work=13*
126: 0x1111 [0x52] END_LOAD_SCHEDULER: End scheduler "s161" with entities [EventEntity, EventEntity], work=765*
127: 0x1120 [0x45] LOAD_SCHEDULED_TASK: Load scheduler "s162" with entities [EventEntity, EventEntity], work=[765*, 0*]
128: 0x1131 [0x27] REQ_SET(priority=0x05, entity_id=Cid (ID: 17961689/0x011212D9), tag_num=0x02)
129: 0x1138 [0x2B] Cid (ID: 17961689/0x011212D9) [7485*]:
    → "You couldn't pay me enough to jump into the vortex over there."
130: 0x113F [0x23] WAIT_FOR_DIALOG_INTERACTION
131: 0x1140 [0x2A] GET_REQ_LEVEL(level=5, entity_id=Cid (ID: 17961689/0x011212D9))
132: 0x1146 [0x4A] Ayame (ID: 17961691/0x011212DB) looks at Cid (ID: 17961689/0x011212D9)
133: 0x114F [0x1C] WAIT(30* ticks)
134: 0x1152 [0x4A] Naji (ID: 17961690/0x011212DA) looks at Cid (ID: 17961689/0x011212D9)
135: 0x115B [0x66] LOAD_EXT_SCHEDULER_MAIN: Load scheduler "tlb0" with entities [Ayame (ID: 17961691/0x011212DB), Ayame (ID: 17961691/0x011212DB)], work=13*
136: 0x116A [0x2B] Ayame (ID: 17961691/0x011212DB) [7486*]:
    → "Vortex?"
137: 0x1171 [0x23] WAIT_FOR_DIALOG_INTERACTION
138: 0x1172 [0x66] LOAD_EXT_SCHEDULER_MAIN: Load scheduler "tlb1" with entities [Ayame (ID: 17961691/0x011212DB), Ayame (ID: 17961691/0x011212DB)], work=13*
139: 0x1181 [0x52] END_LOAD_SCHEDULER: End scheduler "s162" with entities [EventEntity, EventEntity], work=765*
140: 0x1190 [0x45] LOAD_SCHEDULED_TASK: Load scheduler "s163" with entities [EventEntity, EventEntity], work=[765*, 0*]
141: 0x11A1 [0x4A] Cid (ID: 17961689/0x011212D9) looks at Ayame (ID: 17961691/0x011212DB)
142: 0x11AA [0x1C] WAIT(30* ticks)
143: 0x11AD [0x5B] LOAD_EXT_SCHEDULER: Load scheduler "tlk0" with entities [Cid (ID: 17961689/0x011212D9), Cid (ID: 17961689/0x011212D9)], work=110*
144: 0x11BC [0x2B] Cid (ID: 17961689/0x011212D9) [7487*]:
    → "Have you got a better word for it?"
145: 0x11C3 [0x23] WAIT_FOR_DIALOG_INTERACTION
146: 0x11C4 [0x52] END_LOAD_SCHEDULER: End scheduler "s163" with entities [EventEntity, EventEntity], work=765*
147: 0x11D3 [0x45] LOAD_SCHEDULED_TASK: Load scheduler "s166" with entities [EventEntity, EventEntity], work=[765*, 0*]
148: 0x11E4 [0x2B] Cid (ID: 17961689/0x011212D9) [7488*]:
    → "It sucks up the energy and swirls 'round and 'round. If that's not a vortex, then I don't know what is!"
149: 0x11EB [0x1C] WAIT(120* ticks)
150: 0x11EE [0x52] END_LOAD_SCHEDULER: End scheduler "s166" with entities [EventEntity, EventEntity], work=765*
151: 0x11FD [0x45] LOAD_SCHEDULED_TASK: Load scheduler "s167" with entities [EventEntity, EventEntity], work=[765*, 0*]
152: 0x120E [0x1C] WAIT(60* ticks)
153: 0x1211 [0x4A] Cid (ID: 17961689/0x011212D9) looks at Naji (ID: 17961690/0x011212DA)
154: 0x121A [0xBA] SET_ENTITY_POSITION(entity_id=Siren (ID: 17961685/0x011212D5), pos_x=-49.719*, pos_z=-114.875*, pos_y=-53.600*, direction=260.1°*)
155: 0x1227 [0xBA] SET_ENTITY_POSITION(entity_id=Unnamed NPC (ID: 17961687/0x011212D7), pos_x=-40.547*, pos_z=-140.750*, pos_y=-55.600*, direction=260.1°*)
156: 0x1234 [0xBA] SET_ENTITY_POSITION(entity_id=Unnamed NPC (ID: 17961688/0x011212D8), pos_x=-53.482*, pos_z=-121.946*, pos_y=-53.600*, direction=260.1°*)
157: 0x1241 [0x1C] WAIT(60* ticks)
158: 0x1244 [0x52] END_LOAD_SCHEDULER: End scheduler "s167" with entities [EventEntity, EventEntity], work=765*
159: 0x1253 [0x45] LOAD_SCHEDULED_TASK: Load scheduler "s168" with entities [EventEntity, EventEntity], work=[765*, 0*]
160: 0x1264 [0x1C] WAIT(120* ticks)
161: 0x1267 [0x23] WAIT_FOR_DIALOG_INTERACTION
162: 0x1268 [0x5B] LOAD_EXT_SCHEDULER: Load scheduler "tlk1" with entities [Cid (ID: 17961689/0x011212D9), Cid (ID: 17961689/0x011212D9)], work=110*
163: 0x1277 [0x52] END_LOAD_SCHEDULER: End scheduler "s168" with entities [EventEntity, EventEntity], work=765*
164: 0x1286 [0x45] LOAD_SCHEDULED_TASK: Load scheduler "s164" with entities [EventEntity, EventEntity], work=[765*, 0*]
165: 0x1297 [0x79] Cid (ID: 17961689/0x011212D9) looks at LocalPlayer (Basic look)
166: 0x12A1 [0x2B] Cid (ID: 17961689/0x011212D9) [7489*]:
    → "You going in?"
167: 0x12A8 [0x23] WAIT_FOR_DIALOG_INTERACTION
168: 0x12A9 [0x4E] SET_ENTITY_HIDE_FLAG: Hide Siren (ID: 17961685/0x011212D5)
169: 0x12AF [0x4E] SET_ENTITY_HIDE_FLAG: Hide Siren Prime (ID: 17961686/0x011212D6)
170: 0x12B5 [0x4E] SET_ENTITY_HIDE_FLAG: Hide Unnamed NPC (ID: 17961687/0x011212D7)
171: 0x12BB [0x4E] SET_ENTITY_HIDE_FLAG: Hide Unnamed NPC (ID: 17961688/0x011212D8)
172: 0x12C1 [0x4E] SET_ENTITY_HIDE_FLAG: Hide Tenzen (ID: 17961684/0x011212D4)
173: 0x12C7 [0x22] ENTITY_HIDE_FLAG(enabled=0x01)
174: 0x12C9 [0x24] CREATE_DIALOG(message_id=7490*, default_option=0*, option_flags=0*)
    → "Head toward the vortex? [Yes./No.]"
175: 0x12D0 [0x25] WAIT_DIALOG_SELECT()
176: 0x12D1 [0x02] IF !(Work_Zone[0] == 0*) GOTO 0x1322
177: 0x12D9 [0x6E] LocalPlayer uses emote 7*
178: 0x12E0 [0x99] Wait for LocalPlayer animation to complete
179: 0x12E5 [0x1C] WAIT(90* ticks)
180: 0x12E8 [0x52] END_LOAD_SCHEDULER: End scheduler "s164" with entities [EventEntity, EventEntity], work=765*
181: 0x12F7 [0x45] LOAD_SCHEDULED_TASK: Load scheduler "s165" with entities [EventEntity, EventEntity], work=[765*, 0*]
182: 0x1308 [0x5B] LOAD_EXT_SCHEDULER: Load scheduler "tlk0" with entities [Cid (ID: 17961689/0x011212D9), Cid (ID: 17961689/0x011212D9)], work=110*
183: 0x1317 [0x2B] Cid (ID: 17961689/0x011212D9) [7492*]:
    → "Suppose we can't stop you, but don't go getting yourself killed."
184: 0x131E [0x23] WAIT_FOR_DIALOG_INTERACTION
185: 0x131F [0x01] GOTO 0x1373
186: 0x1322 [0x02] IF !(Work_Zone[0] == 1*) GOTO 0x1373
187: 0x132A [0x6E] LocalPlayer uses emote 6*
188: 0x1331 [0x99] Wait for LocalPlayer animation to complete
189: 0x1336 [0x1C] WAIT(90* ticks)
190: 0x1339 [0x52] END_LOAD_SCHEDULER: End scheduler "s164" with entities [EventEntity, EventEntity], work=765*
191: 0x1348 [0x45] LOAD_SCHEDULED_TASK: Load scheduler "s165" with entities [EventEntity, EventEntity], work=[765*, 0*]
192: 0x1359 [0x5B] LOAD_EXT_SCHEDULER: Load scheduler "tlk0" with entities [Cid (ID: 17961689/0x011212D9), Cid (ID: 17961689/0x011212D9)], work=110*
193: 0x1368 [0x2B] Cid (ID: 17961689/0x011212D9) [7491*]:
    → "I think we all agree that's for the best."
194: 0x136F [0x23] WAIT_FOR_DIALOG_INTERACTION
195: 0x1370 [0x01] GOTO 0x1373

SUBROUTINE_1373:
196: 0x1373 [0x45] LOAD_SCHEDULED_TASK: Load scheduler "fdo1" with entities [EventEntity, EventEntity], work=[200*, 0*]
197: 0x1384 [0x55] WAIT_LOAD_SCHEDULER: Wait for scheduler "fdo1" with entities [EventEntity, EventEntity], work=200*
198: 0x1393 [0x52] END_LOAD_SCHEDULER: End scheduler "s165" with entities [EventEntity, EventEntity], work=765*
199: 0x13A2 [0x29] REQ_SET_WAIT(priority=0x05, entity_id=Tenzen (ID: 17961684/0x011212D4), tag_num=0x08)
200: 0x13A9 [0x29] REQ_SET_WAIT(priority=0x05, entity_id=Siren (ID: 17961685/0x011212D5), tag_num=0x07)
201: 0x13B0 [0x29] REQ_SET_WAIT(priority=0x05, entity_id=Siren Prime (ID: 17961686/0x011212D6), tag_num=0x04)
202: 0x13B7 [0x29] REQ_SET_WAIT(priority=0x05, entity_id=Unnamed NPC (ID: 17961687/0x011212D7), tag_num=0x04)
203: 0x13BE [0x1C] WAIT(60* ticks)
204: 0x13C1 [0x46] CAMERA_CONTROL: Restore default settings
205: 0x13C3 [0x45] LOAD_SCHEDULED_TASK: Load scheduler "fdi2" with entities [EventEntity, EventEntity], work=[200*, 0*]
206: 0x13D4 [0x21] END_EVENT
207: 0x13D5 [0x00] END_REQSTACK()
```

### Event 6

#### Metadata

| Field        | Value      |
|--------------|------------|
| Entrypoint   | 0x13D6     |
| Data Size    | 2541 bytes |
| Instructions | 285        |

```
      00 01 02 03 04 05 06 07  08 09 0A 0B 0C 0D 0E 0F
      -- -- -- -- -- -- -- --  -- -- -- -- -- -- -- --
13D0:                   42 03  01 00 02 10 45 00 80 F8        B.....E...
13E0: FF FF 7F F8 FF FF 7F 66  64 6F 31 01 80 55 00 80  .......fdo1..U..
13F0: F8 FF FF 7F F8 FF FF 7F  66 64 6F 31 46 01 38 04  ........fdo1F.8.
1400: 80 2F 00 DD 12 12 01 2F  00 DC 12 12 01 4E 00 DD  ./...../.....N..
1410: 12 12 01 22 00 92 01 DD  12 12 01 92 01 DC 12 12  ..."............
1420: 01 94 01 DD 12 12 01 94  01 DC 12 12 01 94 01 F0  ................
1430: FF FF 7F 59 05 DD 12 12  01 01 33 01 27 05 DD 12  ...Y......3.'...
1440: 12 01 06 BA DD 12 12 01  AA 80 AB 80 AC 80 68 80  ..............h.
1450: BA F0 FF FF 7F AD 80 AE  80 AF 80 B0 80 BA DC 12  ................
1460: 12 01 B1 80 B2 80 AF 80  B0 80 37 AA 80 B3 80 B4  ..........7.....
1470: 80 B5 80 80 F0 FF FF 7F  80 F8 FF FF 7F 1C 23 80  ..............#.
1480: D0 83 80 F8 FF FF 7F F8  FF FF 7F 75 7A 30 30 01  ...........uz00.
1490: 80 1C 23 80 45 B6 80 F8  FF FF 7F F8 FF FF 7F 73  ..#.E..........s
14A0: 30 35 32 01 80 1C 28 80  45 00 80 F8 FF FF 7F F8  052...(.E.......
14B0: FF FF 7F 66 64 69 31 01  80 1C 2B 80 5F 05 B7 80  ...fdi1...+._...
14C0: DD 12 12 01 DD 12 12 01  6E 65 73 30 2B 80 27 05  ........nes0+.'.
14D0: DD 12 12 01 07 52 B6 80  F8 FF FF 7F F8 FF FF 7F  .....R..........
14E0: 73 30 35 32 45 B6 80 F8  FF FF 7F F8 FF FF 7F 73  s052E..........s
14F0: 30 35 33 01 80 79 00 F0  FF FF 7F DD 12 12 01 79  053..y.........y
1500: 00 DC 12 12 01 DD 12 12  01 2B DD 12 12 01 B8 80  .........+......
1510: 23 2B DD 12 12 01 B9 80  23 5F 07 DD 12 12 01 DD  #+......#_......
1520: 12 12 01 6E 65 73 30 52  B6 80 F8 FF FF 7F F8 FF  ...nes0R........
1530: FF 7F 73 30 35 33 02 87  7F 05 80 80 52 15 45 B6  ..s053......R.E.
1540: 80 F8 FF FF 7F F8 FF FF  7F 73 30 35 35 01 80 01  .........s055...
1550: 7F 15 02 87 7F 06 80 80  6E 15 45 B6 80 F8 FF FF  ........n.E.....
1560: 7F F8 FF FF 7F 73 30 35  35 01 80 01 7F 15 45 B6  .....s055.....E.
1570: 80 F8 FF FF 7F F8 FF FF  7F 73 30 35 34 01 80 24  .........s054..$
1580: BA 80 01 80 01 80 25 02  00 10 01 80 00 49 16 52  ......%......I.R
1590: B6 80 F8 FF FF 7F F8 FF  FF 7F 73 30 35 34 52 B6  ..........s054R.
15A0: 80 F8 FF FF 7F F8 FF FF  7F 73 30 35 35 45 B6 80  .........s055E..
15B0: F8 FF FF 7F F8 FF FF 7F  73 30 35 36 01 80 5F 05  ........s056.._.
15C0: B7 80 DD 12 12 01 DD 12  12 01 73 68 6B 33 BB 80  ..........shk3..
15D0: 2B DD 12 12 01 BC 80 23  2B DD 12 12 01 BD 80 23  +......#+......#
15E0: 5F 07 DD 12 12 01 DD 12  12 01 73 68 6B 33 52 B6  _.........shk3R.
15F0: 80 F8 FF FF 7F F8 FF FF  7F 73 30 35 36 45 B6 80  .........s056E..
1600: F8 FF FF 7F F8 FF FF 7F  73 30 35 37 01 80 5F 05  ........s057.._.
1610: BE 80 DD 12 12 01 DD 12  12 01 79 61 72 30 2F 80  ..........yar0/.
1620: 2B DD 12 12 01 BF 80 23  2B DD 12 12 01 C0 80 23  +......#+......#
1630: 2B DD 12 12 01 C1 80 23  5F 07 DD 12 12 01 DD 12  +......#_.......
1640: 12 01 79 61 72 30 01 B5  17 02 00 10 03 80 00 03  ..yar0..........
1650: 17 52 B6 80 F8 FF FF 7F  F8 FF FF 7F 73 30 35 34  .R..........s054
1660: 52 B6 80 F8 FF FF 7F F8  FF FF 7F 73 30 35 35 45  R..........s055E
1670: B6 80 F8 FF FF 7F F8 FF  FF 7F 73 30 35 36 01 80  ..........s056..
1680: 5F 05 B7 80 DD 12 12 01  DD 12 12 01 73 68 6B 33  _...........shk3
1690: BB 80 2B DD 12 12 01 C2  80 23 2B DD 12 12 01 C3  ..+......#+.....
16A0: 80 23 5F 07 DD 12 12 01  DD 12 12 01 73 68 6B 33  .#_.........shk3
16B0: 52 B6 80 F8 FF FF 7F F8  FF FF 7F 73 30 35 36 45  R..........s056E
16C0: B6 80 F8 FF FF 7F F8 FF  FF 7F 73 30 35 37 01 80  ..........s057..
16D0: 5F 05 BE 80 DD 12 12 01  DD 12 12 01 79 61 72 30  _...........yar0
16E0: 2F 80 2B DD 12 12 01 C4  80 23 2B DD 12 12 01 C5  /.+......#+.....
16F0: 80 23 5F 07 DD 12 12 01  DD 12 12 01 79 61 72 30  .#_.........yar0
1700: 01 B5 17 02 00 10 25 80  00 B5 17 52 B6 80 F8 FF  ......%....R....
1710: FF 7F F8 FF FF 7F 73 30  35 34 52 B6 80 F8 FF FF  ......s054R.....
1720: 7F F8 FF FF 7F 73 30 35  35 45 B6 80 F8 FF FF 7F  .....s055E......
1730: F8 FF FF 7F 73 30 35 36  01 80 5F 05 B7 80 DD 12  ....s056.._.....
1740: 12 01 DD 12 12 01 73 68  6B 33 BB 80 2B DD 12 12  ......shk3..+...
1750: 01 C6 80 23 2B DD 12 12  01 C7 80 23 5F 07 DD 12  ...#+......#_...
1760: 12 01 DD 12 12 01 73 68  6B 33 52 B6 80 F8 FF FF  ......shk3R.....
1770: 7F F8 FF FF 7F 73 30 35  36 45 B6 80 F8 FF FF 7F  .....s056E......
1780: F8 FF FF 7F 73 30 35 37  01 80 5F 05 BE 80 DD 12  ....s057.._.....
1790: 12 01 DD 12 12 01 79 61  72 30 2F 80 2B DD 12 12  ......yar0/.+...
17A0: 01 C8 80 23 5F 07 DD 12  12 01 DD 12 12 01 79 61  ...#_.........ya
17B0: 72 30 01 B5 17 4E 00 DC  12 12 01 80 DC 12 12 01  r0...N..........
17C0: 27 05 DC 12 12 01 02 1C  C9 80 52 B6 80 F8 FF FF  '.........R.....
17D0: 7F F8 FF FF 7F 73 30 35  37 45 B6 80 F8 FF FF 7F  .....s057E......
17E0: F8 FF FF 7F 73 30 35 38  01 80 1C 2A 80 52 B6 80  ....s058...*.R..
17F0: F8 FF FF 7F F8 FF FF 7F  73 30 35 38 45 B6 80 F8  ........s058E...
1800: FF FF 7F F8 FF FF 7F 73  30 35 39 01 80 1C 29 80  .......s059...).
1810: 02 01 00 01 80 00 29 18  7C 00 DC 12 12 01 2B DC  ......).|.....+.
1820: 12 12 01 CA 80 23 01 31  18 2B DC 12 12 01 CB 80  .....#.1.+......
1830: 23 2A 05 DC 12 12 01 52  B6 80 F8 FF FF 7F F8 FF  #*.....R........
1840: FF 7F 73 30 35 39 45 B6  80 F8 FF FF 7F F8 FF FF  ..s059E.........
1850: 7F 73 30 36 30 01 80 4A  DD 12 12 01 DC 12 12 01  .s060..J........
1860: 1C 23 80 5F 05 CC 80 DD  12 12 01 DD 12 12 01 74  .#._...........t
1870: 6C 62 30 CD 80 2B DD 12  12 01 CE 80 23 2B DD 12  lb0..+......#+..
1880: 12 01 CF 80 23 5F 07 DD  12 12 01 DD 12 12 01 74  ....#_.........t
1890: 6C 62 30 5B CC 80 DD 12  12 01 DD 12 12 01 74 6C  lb0[..........tl
18A0: 62 31 2B DD 12 12 01 D0  80 1C CD 80 23 5F 05 D1  b1+.........#_..
18B0: 80 DD 12 12 01 DD 12 12  01 74 68 6B 30 BB 80 52  .........thk0..R
18C0: B6 80 F8 FF FF 7F F8 FF  FF 7F 73 30 36 30 45 B6  ..........s060E.
18D0: 80 F8 FF FF 7F F8 FF FF  7F 73 30 36 31 01 80 2B  .........s061..+
18E0: DD 12 12 01 D2 80 23 2B  DD 12 12 01 D3 80 23 5F  ......#+......#_
18F0: 07 DD 12 12 01 DD 12 12  01 74 68 6B 30 52 B6 80  .........thk0R..
1900: F8 FF FF 7F F8 FF FF 7F  73 30 36 31 45 B6 80 F8  ........s061E...
1910: FF FF 7F F8 FF FF 7F 73  30 36 32 01 80 02 01 00  .......s062.....
1920: 01 80 00 45 19 27 05 F0  FF FF 7F 04 1C CD 80 27  ...E.'.........'
1930: 05 F0 FF FF 7F 05 6B 69  64 6C 30 DD 12 12 01 1C  ......kidl0.....
1940: 51 80 01 5C 19 1C C9 80  6B 69 64 6C 30 DD 12 12  Q..\....kidl0...
1950: 01 2B DC 12 12 01 D4 80  23 1C 23 80 52 B6 80 F8  .+......#.#.R...
1960: FF FF 7F F8 FF FF 7F 73  30 36 32 45 B6 80 F8 FF  .......s062E....
1970: FF 7F F8 FF FF 7F 73 30  36 33 01 80 5F 05 D1 80  ......s063.._...
1980: DD 12 12 01 DD 12 12 01  74 6C 6B 30 CD 80 2B DD  ........tlk0..+.
1990: 12 12 01 D5 80 23 2B DD  12 12 01 D6 80 23 5F 07  .....#+......#_.
19A0: DD 12 12 01 DD 12 12 01  74 6C 6B 30 5B D1 80 DD  ........tlk0[...
19B0: 12 12 01 DD 12 12 01 74  6C 6B 31 2B DD 12 12 01  .......tlk1+....
19C0: D7 80 1C BB 80 23 5F 05  D1 80 DD 12 12 01 DD 12  .....#_.........
19D0: 12 01 74 68 6B 30 BB 80  52 B6 80 F8 FF FF 7F F8  ..thk0..R.......
19E0: FF FF 7F 73 30 36 33 45  B6 80 F8 FF FF 7F F8 FF  ...s063E........
