# 0x7FFFFFF0 - Zone Events

## Common Data

| Field            | Value                    |
|------------------|--------------------------|
| Zone             | Escha - Ru'Aun (ID: 289) |
| Block Size       | 8208 bytes               |
| Total Events     | 30                       |
| References Count | 304                      |

## List of Events

| Event ID                   | Entrypoint   |   Size |   Instructions |
|----------------------------|--------------|--------|----------------|
| [65535](#event-65535)      | 0x0000       |      1 |              1 |
| [65534](#event-65534)      | 0x0001       |      1 |              1 |
| [65535.1](#event-655351)   | 0x0002       |      7 |              3 |
| [65535.2](#event-655352)   | 0x0009       |      7 |              3 |
| [65535.3](#event-655353)   | 0x0010       |     24 |              4 |
| [65535.4](#event-655354)   | 0x0028       |    172 |             36 |
| [9100](#event-9100)        | 0x00D4       |   4222 |            832 |
| [9101](#event-9101)        | 0x1152       |     83 |             19 |
| [9251](#event-9251)        | 0x11A5       |     36 |             12 |
| [9250](#event-9250)        | 0x11C9       |     36 |             12 |
| [9252](#event-9252)        | 0x11ED       |   1168 |            207 |
| [65535.5](#event-655355)   | 0x167D       |     38 |              5 |
| [65535.6](#event-655356)   | 0x16A3       |     38 |              5 |
| [65535.7](#event-655357)   | 0x16C9       |     38 |              5 |
| [65535.8](#event-655358)   | 0x16EF       |     37 |              5 |
| [65535.9](#event-655359)   | 0x1714       |     37 |              5 |
| [65535.10](#event-6553510) | 0x1739       |     42 |              6 |
| [65535.11](#event-6553511) | 0x1763       |      5 |              2 |
| [65535.12](#event-6553512) | 0x1768       |      5 |              2 |
| [65535.13](#event-6553513) | 0x176D       |      5 |              2 |
| [65535.14](#event-6553514) | 0x1772       |      5 |              2 |
| [65535.15](#event-6553515) | 0x1777       |    345 |             33 |
| [65535.16](#event-6553516) | 0x18D0       |    345 |             33 |
| [65535.17](#event-6553517) | 0x1A29       |     14 |              4 |
| [65535.18](#event-6553518) | 0x1A37       |     22 |              6 |
| [65535.19](#event-6553519) | 0x1A4D       |     14 |              4 |
| [65535.20](#event-6553520) | 0x1A5B       |     14 |              4 |
| [65535.21](#event-6553521) | 0x1A69       |     33 |              7 |
| [65535.22](#event-6553522) | 0x1A8A       |     24 |              4 |
| [65535.23](#event-6553523) | 0x1AA2       |     37 |              5 |

## DAT References (imed_data)

|   Index | Hex Value   |   Dec Value |
|---------|-------------|-------------|
|       0 | 0x0001      |           1 |
|       1 | 0x0000      |           0 |
|       2 | 0x0005      |           5 |
|       3 | 0x0002      |           2 |
|       4 | 0x000A      |          10 |
|       5 | 0x0009      |           9 |
|       6 | 0x0046      |          70 |
|       7 | 0x008C      |         140 |
|       8 | 0x00D2      |         210 |
|       9 | 0x1D8B      |        7563 |
|      10 | 0x0120      |         288 |
|      11 | 0x0007      |           7 |
|      12 | 0x0121      |         289 |
|      13 | 0x0008      |           8 |
|      14 | 0x0016      |          22 |
|      15 | 0x0123      |         291 |
|      16 | 0x0017      |          23 |
|      17 | 0x001F      |          31 |
|      18 | 0x1D8C      |        7564 |
|      19 | 0x1D8D      |        7565 |
|      20 | 0x1D8E      |        7566 |
|      21 | 0x1D91      |        7569 |
|      22 | 0x0003      |           3 |
|      23 | 0x1D8F      |        7567 |
|      24 | 0x1D90      |        7568 |
|      25 | 0x40000000  |  1073741824 |
|      26 | 0x000F      |          15 |
|      27 | 0x0010      |          16 |
|      28 | 0x1D92      |        7570 |
|      29 | 0x0004      |           4 |
|      30 | 0x0028      |          40 |
|      31 | 0x23BC      |        9148 |
|      32 | 0x0B4D      |        2893 |
|      33 | 0xFFFFFFFF  |  4294967295 |
|      34 | 0x0020      |          32 |
|      35 | 0x0260      |         608 |
|      36 | 0x000B      |          11 |
|      37 | 0x001E      |          30 |
|      38 | 0x007D      |         125 |
|      39 | 0x00C8      |         200 |
|      40 | 0x003C      |          60 |
|      41 | 0x007E      |         126 |
|      42 | 0x00B4      |         180 |
|      43 | 0x00A8      |         168 |
|      44 | 0x00A0      |         160 |
|      45 | 0x00A9      |         169 |
|      46 | 0xFFFFFC18  |  4294966296 |
|      47 | 0x0200      |         512 |
|      48 | 0x03E8      |        1000 |
|      49 | 0x0400      |        1024 |
|      50 | 0x0600      |        1536 |
|      51 | 0x0800      |        2048 |
|      52 | 0x0A00      |        2560 |
|      53 | 0x0006      |           6 |
|      54 | 0x0C00      |        3072 |
|      55 | 0x0E00      |        3584 |
|      56 | 0x000C      |          12 |
|      57 | 0x000D      |          13 |
|      58 | 0x000E      |          14 |
|      59 | 0xFFFAC810  |  4294625296 |
|      60 | 0xFFFB6068  |  4294664296 |
|      61 | 0xFFFC0478  |  4294706296 |
|      62 | 0xFFFE5250  |  4294857296 |
|      63 | 0x3C0F0     |      246000 |
|      64 | 0x6E5A0     |      452000 |
|      65 | 0x2EE00     |      192000 |
|      66 | 0xFFFDF0A8  |  4294832296 |
|      67 | 0x2710      |       10000 |
|      68 | 0xFFFBCFBC  |  4294692796 |
|      69 | 0xFFF90EA8  |  4294512296 |
|      70 | 0xFFF91C54  |  4294515796 |
|      71 | 0xFFF93B94  |  4294523796 |
|      72 | 0xFFFBB464  |  4294685796 |
|      73 | 0xFFF96E5C  |  4294536796 |
|      74 | 0x443CC     |      279500 |
|      75 | 0x2D2A8     |      185000 |
|      76 | 0x6C46C     |      443500 |
|      77 | 0x6F34C     |      455500 |
|      78 | 0x852DC     |      545500 |
|      79 | 0x42E50     |      274000 |
|      80 | 0xFFFFFB50  |  4294966096 |
|      81 | 0xFFF87498  |  4294472856 |
|      82 | 0xFFF9D5E0  |  4294563296 |
|      83 | 0xFFF7E438  |  4294435896 |
|      84 | 0xFFF78A60  |  4294412896 |
|      85 | 0x1A1F8     |      107000 |
|      86 | 0x3B344     |      242500 |
|      87 | 0x9C658     |      640600 |
|      88 | 0xFFFA5FB0  |  4294598576 |
|      89 | 0xFFF72660  |  4294387296 |
|      90 | 0xFFFA0F9C  |  4294578076 |
|      91 | 0xFFFD6020  |  4294795296 |
|      92 | 0x4B708     |      309000 |
|      93 | 0xFFFFC568  |  4294952296 |
|      94 | 0xFFFC4EB0  |  4294725296 |
|      95 | 0xFFFDBDE0  |  4294819296 |
|      96 | 0xFFFAC428  |  4294624296 |
|      97 | 0xFFFB25D0  |  4294649296 |
|      98 | 0xFFF91678  |  4294514296 |
|      99 | 0xFFF8EF68  |  4294504296 |
|     100 | 0xFFFA3D64  |  4294589796 |
|     101 | 0xFFFDBFD4  |  4294819796 |
|     102 | 0xFFFB52BC  |  4294660796 |
|     103 | 0x23280     |      144000 |
|     104 | 0x5E9AC     |      387500 |
|     105 | 0x51AA4     |      334500 |
|     106 | 0x71A5C     |      465500 |
|     107 | 0x5DFE8     |      385000 |
|     108 | 0x7D5DC     |      513500 |
|     109 | 0xFFFFBD98  |  4294950296 |
|     110 | 0xFFFA414C  |  4294590796 |
|     111 | 0xFFF7246C  |  4294386796 |
|     112 | 0xFFF8BAC0  |  4294490816 |
|     113 | 0x14C08     |       85000 |
|     114 | 0x6159E     |      398750 |
|     115 | 0x93378     |      603000 |
|     116 | 0x91FF0     |      598000 |
|     117 | 0x19E10     |      106000 |
|     118 | 0xFFF218A0  |  4294056096 |
|     119 | 0x339FA     |      211450 |
|     120 | 0xFFEFBFD8  |  4293902296 |
|     121 | 0xFFF341C6  |  4294132166 |
|     122 | 0xFFFFFFBA  |  4294967226 |
|     123 | 0xFFFFFFE2  |  4294967266 |
|     124 | 0x029E      |         670 |
|     125 | 0x0078      |         120 |
|     126 | 0x010E      |         270 |
|     127 | 0x056E      |        1390 |
|     128 | 0x0708      |        1800 |
|     129 | 0xFFFF7B30  |  4294933296 |
|     130 | 0xFFFF61CC  |  4294926796 |
|     131 | 0xFFFFF254  |  4294963796 |
|     132 | 0xFFFEE904  |  4294895876 |
|     133 | 0xFFFEE756  |  4294895446 |
|     134 | 0xFFFFF1D2  |  4294963666 |
|     135 | 0xFFFF63C0  |  4294927296 |
|     136 | 0xFFFFF1F0  |  4294963696 |
|     137 | 0xFFFEE8B4  |  4294895796 |
|     138 | 0xFFFF34E0  |  4294915296 |
|     139 | 0xFFFFB5C8  |  4294948296 |
|     140 | 0xFFFF2928  |  4294912296 |
|     141 | 0xFFFF3CB0  |  4294917296 |
|     142 | 0xFFFF4192  |  4294918546 |
|     143 | 0xFFFED978  |  4294891896 |
|     144 | 0xFFFEAA98  |  4294879896 |
|     145 | 0xFFFA4B10  |  4294593296 |
|     146 | 0xFFFE456C  |  4294853996 |
|     147 | 0xFFF9A188  |  4294549896 |
|     148 | 0xFFF94A62  |  4294527586 |
|     149 | 0xFFFB0E60  |  4294643296 |
|     150 | 0xFFF9C640  |  4294559296 |
|     151 | 0xFFF7FFF4  |  4294442996 |
|     152 | 0xFFF80120  |  4294443296 |
|     153 | 0xFFFCD380  |  4294759296 |
|     154 | 0xFFFA2BD0  |  4294585296 |
|     155 | 0x50140     |      328000 |
|     156 | 0x52C38     |      339000 |
|     157 | 0x7FAF8     |      523000 |
|     158 | 0x591C8     |      365000 |
|     159 | 0x90498     |      591000 |
|     160 | 0x4F1A0     |      324000 |
|     161 | 0xFFFFDCD8  |  4294958296 |
|     162 | 0x9E5E8     |      648680 |
|     163 | 0xFFF6F67C  |  4294375036 |
|     164 | 0xFFFA10BE  |  4294578366 |
|     165 | 0xFFF8E3B0  |  4294501296 |
|     166 | 0xFFF931D0  |  4294521296 |
|     167 | 0xFFFDAA58  |  4294814296 |
|     168 | 0xFFFBD886  |  4294695046 |
|     169 | 0x29810     |      170000 |
|     170 | 0x46118     |      287000 |
|     171 | 0x6F540     |      456000 |
|     172 | 0x86C40     |      552000 |
|     173 | 0x3E418     |      255000 |
|     174 | 0x72BF0     |      470000 |
|     175 | 0xE290      |       58000 |
|     176 | 0xFFFEF660  |  4294899296 |
|     177 | 0xFFF71E90  |  4294385296 |
|     178 | 0xFFF213D2  |  4294054866 |
|     179 | 0x33A2C     |      211500 |
|     180 | 0xFFEFCDC0  |  4293905856 |
|     181 | 0xFFF32286  |  4294124166 |
|     182 | 0xFFFF56FA  |  4294924026 |
|     183 | 0xFFFFE0C0  |  4294959296 |
|     184 | 0xFFFEEDB4  |  4294897076 |
|     185 | 0xFFFFA240  |  4294943296 |
|     186 | 0xFFFEF32C  |  4294898476 |
|     187 | 0xFFFA4804  |  4294592516 |
|     188 | 0xFFF94990  |  4294527376 |
|     189 | 0x55555555  |  1431655765 |
|     190 | 0x33333333  |   858993459 |
|     191 | 0xF0F0F0F   |   252645135 |
|     192 | 0x001C      |          28 |
|     193 | 0xFF00FF    |    16711935 |
|     194 | 0x0018      |          24 |
|     195 | 0xFFFF      |       65535 |
|     196 | 0xFFF72278  |  4294386296 |
|     197 | 0xFFEFA516  |  4293895446 |
|     198 | 0x0B0E      |        2830 |
|     199 | 0x1EA0      |        7840 |
|     200 | 0x1E39      |        7737 |
|     201 | 0x1E40      |        7744 |
|     202 | 0x1E3A      |        7738 |
|     203 | 0x1E3E      |        7742 |
|     204 | 0x1E37      |        7735 |
|     205 | 0x1EB2      |        7858 |
|     206 | 0x1E9A      |        7834 |
|     207 | 0x1E38      |        7736 |
|     208 | 0x16C0      |        5824 |
|     209 | 0x16C3      |        5827 |
|     210 | 0x16CB      |        5835 |
|     211 | 0x16CD      |        5837 |
|     212 | 0x1056      |        4182 |
|     213 | 0x150C      |        5388 |
|     214 | 0x150A      |        5386 |
|     215 | 0x1512      |        5394 |
|     216 | 0x150D      |        5389 |
|     217 | 0x1510      |        5392 |
|     218 | 0x16C1      |        5825 |
|     219 | 0x16C4      |        5828 |
|     220 | 0x109E      |        4254 |
|     221 | 0x16CA      |        5834 |
|     222 | 0x106E      |        4206 |
|     223 | 0x150E      |        5390 |
|     224 | 0x1515      |        5397 |
|     225 | 0x150F      |        5391 |
|     226 | 0x16CC      |        5836 |
|     227 | 0x16CE      |        5838 |
|     228 | 0x1511      |        5393 |
|     229 | 0x1509      |        5385 |
|     230 | 0x150B      |        5387 |
|     231 | 0x16C2      |        5826 |
|     232 | 0x16C5      |        5829 |
|     233 | 0x16C6      |        5830 |
|     234 | 0x106A      |        4202 |
|     235 | 0x18FF      |        6399 |
|     236 | 0x1900      |        6400 |
|     237 | 0x1901      |        6401 |
|     238 | 0x1513      |        5395 |
|     239 | 0x1902      |        6402 |
|     240 | 0x14CA      |        5322 |
|     241 | 0x109F      |        4255 |
|     242 | 0x1070      |        4208 |
|     243 | 0x194A      |        6474 |
|     244 | 0x16C8      |        5832 |
|     245 | 0x16C9      |        5833 |
|     246 | 0x153F      |        5439 |
|     247 | 0x16C7      |        5831 |
|     248 | 0x153C      |        5436 |
|     249 | 0x194B      |        6475 |
|     250 | 0x1949      |        6473 |
|     251 | 0x194C      |        6476 |
|     252 | 0x194D      |        6477 |
|     253 | 0x194E      |        6478 |
|     254 | 0x0011      |          17 |
|     255 | 0x0012      |          18 |
|     256 | 0x0013      |          19 |
|     257 | 0x0014      |          20 |
|     258 | 0x0015      |          21 |
|     259 | 0x0019      |          25 |
|     260 | 0x001A      |          26 |
|     261 | 0x001B      |          27 |
|     262 | 0x001D      |          29 |
|     263 | 0x0021      |          33 |
|     264 | 0x0022      |          34 |
|     265 | 0x0023      |          35 |
|     266 | 0x0024      |          36 |
|     267 | 0x0025      |          37 |
|     268 | 0x0026      |          38 |
|     269 | 0x0027      |          39 |
|     270 | 0x002A      |          42 |
|     271 | 0x002B      |          43 |
|     272 | 0x002C      |          44 |
|     273 | 0x002D      |          45 |
|     274 | 0x002E      |          46 |
|     275 | 0x0091      |         145 |
|     276 | 0x004F      |          79 |
|     277 | 0x004C      |          76 |
|     278 | 0x00C9      |         201 |
|     279 | 0x0030      |          48 |
|     280 | 0x0040      |          64 |
|     281 | 0x0057      |          87 |
|     282 | 0x005D      |          93 |
|     283 | 0x0060      |          96 |
|     284 | 0x0064      |         100 |
|     285 | 0x008D      |         141 |
|     286 | 0x0F26      |        3878 |
|     287 | 0x0097      |         151 |
|     288 | 0x00A1      |         161 |
|     289 | 0x00AB      |         171 |
|     290 | 0x00B5      |         181 |
|     291 | 0x00BF      |         191 |
|     292 | 0x0395      |         917 |
|     293 | 0xFFF8E46F  |  4294501487 |
|     294 | 0xFFFF7A1B  |  4294933019 |
|     295 | 0xFFFFFE54  |  4294966868 |
|     296 | 0xFFF8E81B  |  4294502427 |
|     297 | 0xFFFEDC2A  |  4294892586 |
|     298 | 0xFFF9B4FC  |  4294554876 |
|     299 | 0xFFFEA94E  |  4294879566 |
|     300 | 0xFFF9CAA0  |  4294560416 |
|     301 | 0x0960      |        2400 |
|     302 | 0xFFFE968E  |  4294874766 |
|     303 | 0xFFF9D25C  |  4294562396 |

## String References

- **7563**: Light begins to shimmer and twist as you pass your hand over it.
- **7564**: The blinding light obscures your vision of the world beyond.
- **7565**: Your pinches of escha silt trigger a faint reaction in the light, granting a small glimpse of what lies beyond.
- **7567**: Traverse the light? ($0 silt) [Let's do it. ($1 silt)/Do not go into the light!]
- **7568**: You do not have enough escha silt.
- **7569**: What do you do? [Nothing for now./Use escha silt./Teleport using $0./Teleport using $6.]
- **7570**: Traverse the light? [Let's do this./No, wait!]
- **7735**: Which temporary item will you obtain? [None of them./$0/$1/$2/$3/$4/$5/$6@/$7/Destroy treasure chest.]
- **7736**: Which item will you obtain? [None of them./$0/$1/$2/$3/$4/$5/$6/$7/Destroy treasure chest.]
- **7737**: This treasure chest has been fitted with a unique combination lock that randomly generates numbers from 1\`99. Opening it requires you to guess whether the next number is greater or less than the previous.
- **7738**: Previous: $0 ($1 tr[y/ies] left) [Do nothing./Twist number dial up./Twist number dial down.]
- **7742**: The chest will be lost. Proceed? [Yes, destroy./No, cancel.]
- **7744**: What will you do? [Do nothing./Attempt to unlock it./Destroy the chest.]
- **7834**: Obtain this item? [Yes./No.]
- **7840**: The chest is locked.
- **7858**: Obtain this item?

## Events

### Event 65535

#### Metadata

| Field        | Value   |
|--------------|---------|
| Entrypoint   | 0x0000  |
| Data Size    | 1 bytes |
| Instructions | 1       |

```
      00 01 02 03 04 05 06 07  08 09 0A 0B 0C 0D 0E 0F
      -- -- -- -- -- -- -- --  -- -- -- -- -- -- -- --
0000: 00                                                .               
```

#### Opcodes

```
  0: 0x0000 [0x00] END_REQSTACK()
```

### Event 65534

#### Metadata

| Field        | Value   |
|--------------|---------|
| Entrypoint   | 0x0001  |
| Data Size    | 1 bytes |
| Instructions | 1       |

```
      00 01 02 03 04 05 06 07  08 09 0A 0B 0C 0D 0E 0F
      -- -- -- -- -- -- -- --  -- -- -- -- -- -- -- --
0000:    00                                              .              
```

#### Opcodes

```
  0: 0x0001 [0x00] END_REQSTACK()
```

### Event 65535.1

#### Metadata

| Field        | Value   |
|--------------|---------|
| Entrypoint   | 0x0002  |
| Data Size    | 7 bytes |
| Instructions | 3       |

```
      00 01 02 03 04 05 06 07  08 09 0A 0B 0C 0D 0E 0F
      -- -- -- -- -- -- -- --  -- -- -- -- -- -- -- --
0000:       AB 03 AC 01 00 80  00                         .......       
```

#### Opcodes

```
  0: 0x0002 [0xAB] EventEntity->Render.Flags0 ^= 0x20000 // Toggle bit 17
  1: 0x0004 [0xAC] EventEntity->StatusEvent = 1*
  2: 0x0008 [0x00] END_REQSTACK()
```

### Event 65535.2

#### Metadata

| Field        | Value   |
|--------------|---------|
| Entrypoint   | 0x0009  |
| Data Size    | 7 bytes |
| Instructions | 3       |

```
      00 01 02 03 04 05 06 07  08 09 0A 0B 0C 0D 0E 0F
      -- -- -- -- -- -- -- --  -- -- -- -- -- -- -- --
0000:                             AC 01 01 80 AB 04 00           .......
```

#### Opcodes

```
  0: 0x0009 [0xAC] EventEntity->StatusEvent = 0*
  1: 0x000D [0xAB] EventEntity->Render.Flags0 |= 0x40000 // Set bit 18
  2: 0x000F [0x00] END_REQSTACK()
```

### Event 65535.3

#### Metadata

| Field        | Value    |
|--------------|----------|
| Entrypoint   | 0x0010   |
| Data Size    | 24 bytes |
| Instructions | 4        |

```
      00 01 02 03 04 05 06 07  08 09 0A 0B 0C 0D 0E 0F
      -- -- -- -- -- -- -- --  -- -- -- -- -- -- -- --
0010: 03 00 00 07 7F 1A 40 00  66 01 00 F8 FF FF 7F F8  ......@.f.......
0020: FF FF 7F 74 6C 6B 30 00                           ...tlk0.        
```

#### Opcodes

```
  0: 0x0010 [0x03] ExtData[1]->WorkLocal[0] = Entity->Race
  1: 0x0015 [0x1A] CALL_SUBROUTINE(address=0x0040)
  2: 0x0018 [0x66] LOAD_EXT_SCHEDULER_MAIN: Load scheduler "tlk0" with entities [EventEntity, EventEntity], work=ExtData[1]->WorkLocal[1]
  3: 0x0027 [0x00] END_REQSTACK()
```

### Event 65535.4

#### Metadata

| Field        | Value     |
|--------------|-----------|
| Entrypoint   | 0x0028    |
| Data Size    | 172 bytes |
| Instructions | 12        |

```
      00 01 02 03 04 05 06 07  08 09 0A 0B 0C 0D 0E 0F
      -- -- -- -- -- -- -- --  -- -- -- -- -- -- -- --
0020:                          03 00 00 07 7F 1A 40 00          ......@.
0030: 66 01 00 F8 FF FF 7F F8  FF FF 7F 74 6C 6B 31 00  f..........tlk1.
0040: 03 01 00 00 00 02 01 00  02 80 05 55 00 08 01 00  ...........U....
0050: 00 80 01 5A 00 08 01 00  03 80 14 01 00 04 80 07  ...Z............
0060: 01 00 05 80 1B 03 01 00  00 00 02 01 00 02 80 05  ................
0070: 7A 00 08 01 00 00 80 01  7F 00 08 01 00 03 80 14  z...............
0080: 01 00 04 80 07 01 00 06  80 1B 03 01 00 00 00 02  ................
0090: 01 00 02 80 05 9F 00 08  01 00 00 80 01 A4 00 08  ................
00A0: 01 00 03 80 14 01 00 04  80 07 01 00 07 80 1B 03  ................
00B0: 01 00 00 00 02 01 00 02  80 05 C4 00 08 01 00 00  ................
00C0: 80 01 C9 00 08 01 00 03  80 14 01 00 04 80 07 01  ................
00D0: 00 08 80 1B                                       ....            
```

#### Opcodes

```
  0: 0x0028 [0x03] ExtData[1]->WorkLocal[0] = Entity->Race
  1: 0x002D [0x1A] CALL_SUBROUTINE(address=0x0040)
  2: 0x0030 [0x66] LOAD_EXT_SCHEDULER_MAIN: Load scheduler "tlk1" with entities [EventEntity, EventEntity], work=ExtData[1]->WorkLocal[1]
  3: 0x003F [0x00] END_REQSTACK()

SUBROUTINE_0040:
  4: 0x0040 [0x03] ExtData[1]->WorkLocal[1] = ExtData[1]->WorkLocal[0]
  5: 0x0045 [0x02] IF !(ExtData[1]->WorkLocal[1] > 5*) GOTO 0x0055
  6: 0x004D [0x08] ExtData[1]->WorkLocal[1] -= 1*
  7: 0x0052 [0x01] GOTO 0x005A
  8: 0x0055 [0x08] ExtData[1]->WorkLocal[1] -= 2*

SUBROUTINE_005A:
  9: 0x005A [0x14] ExtData[1]->WorkLocal[1] *= 10*
 10: 0x005F [0x07] ExtData[1]->WorkLocal[1] += 9*
 11: 0x0064 [0x1B] RETURN
```

#### Data or dead code:

```
# Dead code (unreachable instructions):
     0x0065 [0x03] ExtData[1]->WorkLocal[1] = ExtData[1]->WorkLocal[0]
     0x006A [0x02] IF !(ExtData[1]->WorkLocal[1] > 5*) GOTO 0x007A
     0x0072 [0x08] ExtData[1]->WorkLocal[1] -= 1*
     0x0077 [0x01] GOTO 0x007F
     0x007A [0x08] ExtData[1]->WorkLocal[1] -= 2*
     0x007F [0x14] ExtData[1]->WorkLocal[1] *= 10*
     0x0084 [0x07] ExtData[1]->WorkLocal[1] += 70*
     0x0089 [0x1B] RETURN
     0x008A [0x03] ExtData[1]->WorkLocal[1] = ExtData[1]->WorkLocal[0]
     0x008F [0x02] IF !(ExtData[1]->WorkLocal[1] > 5*) GOTO 0x009F
     0x0097 [0x08] ExtData[1]->WorkLocal[1] -= 1*
     0x009C [0x01] GOTO 0x00A4
     0x009F [0x08] ExtData[1]->WorkLocal[1] -= 2*
     0x00A4 [0x14] ExtData[1]->WorkLocal[1] *= 10*
     0x00A9 [0x07] ExtData[1]->WorkLocal[1] += 140*
     0x00AE [0x1B] RETURN
     0x00AF [0x03] ExtData[1]->WorkLocal[1] = ExtData[1]->WorkLocal[0]
     0x00B4 [0x02] IF !(ExtData[1]->WorkLocal[1] > 5*) GOTO 0x00C4
     0x00BC [0x08] ExtData[1]->WorkLocal[1] -= 1*
     0x00C1 [0x01] GOTO 0x00C9
     0x00C4 [0x08] ExtData[1]->WorkLocal[1] -= 2*
     0x00C9 [0x14] ExtData[1]->WorkLocal[1] *= 10*
     0x00CE [0x07] ExtData[1]->WorkLocal[1] += 210*
     0x00D3 [0x1B] RETURN
```

### Event 9100

#### Metadata

| Field        | Value      |
|--------------|------------|
| Entrypoint   | 0x00D4     |
| Data Size    | 4222 bytes |
| Instructions | 501        |

```
      00 01 02 03 04 05 06 07  08 09 0A 0B 0C 0D 0E 0F
      -- -- -- -- -- -- -- --  -- -- -- -- -- -- -- --
00D0:             03 02 00 03  10 03 08 00 04 10 03 03      ............
00E0: 00 05 10 03 0A 00 06 10  03 05 00 07 10 03 0B 00  ................
00F0: 08 10 03 23 00 09 10 41  01 80 01 80 0A 00 04 00  ...#...A........
0100: 41 00 80 03 80 0A 00 0C  00 02 04 00 01 80 02 15  A...............
0110: 01 48 09 80 23 06 0E 00  06 0F 00 06 07 00 02 08  .H..#...........
0120: 00 0A 80 80 32 01 41 01  80 0B 80 02 00 26 00 01  ....2.A......&..
0130: 5A 01 02 08 00 0C 80 80  46 01 41 0D 80 0E 80 02  Z.......F.A.....
0140: 00 26 00 01 5A 01 02 08  00 0F 80 80 5A 01 41 10  .&..Z.......Z.A.
0150: 80 11 80 02 00 26 00 01  5A 01 1A 9D 10 02 08 00  .....&..Z.......
0160: 0A 80 80 7E 01 02 26 00  00 80 00 74 01 48 12 80  ...~..&....t.H..
0170: 23 01 7B 01 48 13 80 23  1A 0A 02 01 08 02 02 08  #.{.H..#........
0180: 00 0C 80 80 C3 01 02 26  00 00 80 00 A7 01 02 0C  .......&........
0190: 00 01 80 00 9D 01 48 12  80 23 01 A4 01 48 13 80  ......H..#...H..
01A0: 23 1A 79 02 01 C0 01 02  0C 00 01 80 00 B9 01 48  #.y............H
01B0: 13 80 23 1A 0A 02 01 C0  01 48 13 80 23 1A 79 02  ..#......H..#.y.
01C0: 01 08 02 02 08 00 0F 80  80 08 02 02 26 00 00 80  ............&...
01D0: 00 EC 01 02 0C 00 01 80  00 E2 01 48 12 80 23 01  ...........H..#.
01E0: E9 01 48 13 80 23 1A 79  02 01 05 02 02 0C 00 01  ..H..#.y........
01F0: 80 00 FE 01 48 13 80 23  1A 0A 02 01 05 02 48 13  ....H..#......H.
0200: 80 23 1A 79 02 01 08 02  21 00 06 12 00 06 11 00  .#.y....!.......
0210: 06 10 00 02 12 00 01 80  00 78 02 1A F2 07 02 08  .........x......
0220: 00 0A 80 80 2E 02 03 02  10 01 80 01 4E 02 02 08  ............N...
0230: 00 0C 80 80 3E 02 03 02  10 01 80 01 4E 02 02 08  ....>.......N...
0240: 00 0F 80 80 4E 02 03 02  10 00 80 01 4E 02 D4 00  ....N.......N...
0250: 14 80 11 00 10 00 25 02  00 10 01 80 00 65 02 05  ......%......e..
0260: 12 00 01 65 02 03 11 00  00 10 02 12 00 01 80 00  ...e............
0270: 75 02 1A 16 04 01 13 02  1B 02 0F 00 01 80 00 15  u...............
0280: 04 1A EF 06 24 15 80 0E  00 0D 00 25 02 00 10 01  ....$......%....
0290: 80 00 9A 02 05 0F 00 01  9A 02 03 0E 00 00 10 02  ................
02A0: 0F 00 01 80 00 12 04 02  0E 00 00 80 80 20 03 06  ............. ..
02B0: 12 00 06 11 00 06 10 00  02 12 00 01 80 00 1D 03  ................
02C0: 1A F2 07 02 08 00 0A 80  80 D3 02 03 02 10 01 80  ................
02D0: 01 F3 02 02 08 00 0C 80  80 E3 02 03 02 10 01 80  ................
02E0: 01 F3 02 02 08 00 0F 80  80 F3 02 03 02 10 00 80  ................
02F0: 01 F3 02 D4 00 14 80 11  00 10 00 25 02 00 10 01  ...........%....
0300: 80 00 0A 03 05 12 00 01  0A 03 03 11 00 00 10 02  ................
0310: 12 00 01 80 00 1A 03 1A  16 04 01 B8 02 01 12 04  ................
0320: 02 0E 00 03 80 80 99 03  06 12 00 06 11 00 06 10  ................
0330: 00 02 12 00 01 80 00 96  03 1A 79 08 02 08 00 0A  ..........y.....
0340: 80 80 4C 03 03 02 10 01  80 01 6C 03 02 08 00 0C  ..L.......l.....
0350: 80 80 5C 03 03 02 10 01  80 01 6C 03 02 08 00 0F  ..\.......l.....
0360: 80 80 6C 03 03 02 10 00  80 01 6C 03 D4 00 14 80  ..l.......l.....
0370: 11 00 10 00 25 02 00 10  01 80 00 83 03 05 12 00  ....%...........
0380: 01 83 03 03 11 00 00 10  02 12 00 01 80 00 93 03  ................
0390: 1A 0F 05 01 31 03 01 12  04 02 0E 00 16 80 80 12  ....1...........
03A0: 04 06 12 00 06 11 00 06  10 00 02 12 00 01 80 00  ................
03B0: 0F 04 1A 26 09 02 08 00  0A 80 80 C5 03 03 02 10  ...&............
03C0: 01 80 01 E5 03 02 08 00  0C 80 80 D5 03 03 02 10  ................
03D0: 01 80 01 E5 03 02 08 00  0F 80 80 E5 03 03 02 10  ................
03E0: 00 80 01 E5 03 D4 00 14  80 11 00 10 00 25 02 00  .............%..
03F0: 10 01 80 00 FC 03 05 12  00 01 FC 03 03 11 00 00  ................
0400: 10 02 12 00 01 80 00 0C  04 1A 08 06 01 AA 03 01  ................
0410: 12 04 01 79 02 1B 03 1D  00 0B 00 03 02 10 05 00  ...y............
0420: 03 03 10 1D 00 24 17 80  00 80 01 80 25 02 00 10  .....$......%...
0430: 01 80 00 03 05 02 05 00  1D 00 03 4C 04 48 18 80  ...........L.H..
0440: 23 05 0F 00 03 01 10 19  80 01 00 05 42 1A B3 06  #...........B...
0450: 40 01 80 1A 80 01 10 00  80 40 1B 80 11 80 01 10  @........@......
0460: 06 00 43 00 43 01 02 08  00 0A 80 80 74 04 1A 01  ..C.C.......t...
0470: 0A 01 90 04 02 08 00 0C  80 80 82 04 1A 01 0A 01  ................
0480: 90 04 02 08 00 0F 80 80  90 04 1A 5F 0A 01 90 04  ..........._....
0490: 1A BD 0A BA F0 FF FF 7F  1F 00 21 00 20 00 22 00  ..........!. .".
04A0: 40 01 80 1A 80 01 10 03  80 40 1B 80 11 80 01 10  @........@......
04B0: 06 00 47 00 1F 00 21 00  20 00 22 00 47 01 02 08  ..G...!. .".G...
04C0: 00 0A 80 80 CC 04 1A 2A  0A 01 E8 04 02 08 00 0C  .......*........
04D0: 80 80 DA 04 1A 2A 0A 01  E8 04 02 08 00 0F 80 80  .....*..........
04E0: E8 04 1A 88 0A 01 E8 04  40 01 80 1A 80 01 10 03  ........@.......
04F0: 80 40 1B 80 11 80 01 10  01 80 05 0F 00 05 12 00  .@..............
0500: 01 0E 05 02 00 10 00 80  00 0E 05 01 0E 05 1B 03  ................
0510: 1D 00 01 80 03 02 10 05  00 03 03 10 1D 00 24 1C  ..............$.
0520: 80 00 80 01 80 25 02 00  10 01 80 00 FC 05 02 05  .....%..........
0530: 00 1D 00 03 45 05 48 18  80 23 05 0F 00 03 01 10  ....E.H..#......
0540: 19 80 01 F9 05 42 1A B3  06 40 01 80 1A 80 01 10  .....B...@......
0550: 00 80 40 1B 80 11 80 01  10 06 00 43 00 43 01 02  ..@........C.C..
0560: 08 00 0A 80 80 6D 05 1A  01 0A 01 89 05 02 08 00  .....m..........
0570: 0C 80 80 7B 05 1A 01 0A  01 89 05 02 08 00 0F 80  ...{............
0580: 80 89 05 1A 5F 0A 01 89  05 1A BD 0A BA F0 FF FF  ...._...........
0590: 7F 1F 00 21 00 20 00 22  00 40 01 80 1A 80 01 10  ...!. .".@......
05A0: 16 80 40 1B 80 11 80 01  10 06 00 47 00 1F 00 21  ..@........G...!
05B0: 00 20 00 22 00 47 01 02  08 00 0A 80 80 C5 05 1A  . .".G..........
05C0: 2A 0A 01 E1 05 02 08 00  0C 80 80 D3 05 1A 2A 0A  *.............*.
05D0: 01 E1 05 02 08 00 0F 80  80 E1 05 1A 88 0A 01 E1  ................
05E0: 05 40 01 80 1A 80 01 10  16 80 40 1B 80 11 80 01  .@........@.....
05F0: 10 01 80 05 0F 00 05 12  00 01 07 06 02 00 10 00  ................
0600: 80 00 07 06 01 07 06 1B  03 1D 00 01 80 03 02 10  ................
0610: 05 00 03 03 10 1D 00 24  1C 80 00 80 01 80 25 02  .......$......%.
0620: 00 10 01 80 00 A7 06 02  05 00 1D 00 03 3E 06 48  .............>.H
0630: 18 80 23 05 0F 00 03 01  10 19 80 01 A4 06 42 1A  ..#...........B.
0640: B3 06 40 01 80 1A 80 01  10 00 80 40 1B 80 11 80  ..@........@....
0650: 01 10 06 00 43 00 43 01  1A 5F 0A 1A BD 0A BA F0  ....C.C.._......
0660: FF FF 7F 1F 00 21 00 20  00 22 00 40 01 80 1A 80  .....!. .".@....
0670: 01 10 1D 80 40 1B 80 11  80 01 10 06 00 47 00 1F  ....@........G..
0680: 00 21 00 20 00 22 00 47  01 1A 88 0A 40 01 80 1A  .!. .".G....@...
0690: 80 01 10 1D 80 40 1B 80  11 80 01 10 01 80 05 0F  .....@..........
06A0: 00 05 12 00 01 B2 06 02  00 10 00 80 00 B2 06 01  ................
06B0: B2 06 1B 06 17 00 02 17  00 1E 80 03 EE 06 9D 00  ................
06C0: ED 0B 19 00 17 00 02 19  00 08 00 00 E8 06 9D 00  ................
06D0: 3D 0C 15 00 17 00 02 15  00 11 00 00 E8 06 03 06  =...............
06E0: 00 17 00 03 17 00 1E 80  0B 17 00 01 B6 06 1B 06  ................
06F0: 0D 00 02 08 00 0A 80 80  06 07 41 01 80 0B 80 02  ..........A.....
0700: 00 26 00 01 2E 07 02 08  00 0C 80 80 1A 07 41 0D  .&............A.
0710: 80 0E 80 02 00 26 00 01  2E 07 02 08 00 0F 80 80  .....&..........
0720: 2E 07 41 10 80 11 80 02  00 26 00 01 2E 07 1A 9D  ..A......&......
0730: 10 02 26 00 00 80 05 40  07 3C 0D 00 00 80 00 80  ..&....@.<......
0740: 02 08 00 0A 80 80 59 07  3C 0D 00 03 80 00 80 3C  ......Y.<......<
0750: 0D 00 16 80 00 80 01 E7  07 02 08 00 0C 80 80 7A  ...............z
0760: 07 02 0C 00 01 80 00 70  07 3C 0D 00 03 80 00 80  .......p.<......
0770: 3C 0D 00 16 80 00 80 01  E7 07 02 08 00 0F 80 80  <...............
0780: E7 07 9D 00 3D 0C 15 00  03 00 02 15 00 00 80 80  ....=...........
0790: 9C 07 3C 0D 00 03 80 00  80 01 9C 07 02 0C 00 01  ..<.............
07A0: 80 80 B5 07 3C 0D 00 03  80 00 80 3C 0D 00 16 80  ....<......<....
07B0: 00 80 01 E4 07 02 0C 00  00 80 80 C7 07 3C 0D 00  .............<..
07C0: 16 80 00 80 01 E4 07 02  0C 00 03 80 80 D9 07 3C  ...............<
07D0: 0D 00 03 80 00 80 01 E4  07 02 0C 00 16 80 80 E4  ................
07E0: 07 01 E4 07 01 E7 07 03  02 10 1F 80 03 03 10 20  ............... 
07F0: 80 1B 1A E7 09 06 17 00  06 10 00 06 1B 00 03 1B  ................
0800: 00 08 00 03 10 00 21 80  3D 10 00 01 80 00 80 02  ......!.=.......
0810: 17 00 1E 80 03 78 08 3E  02 00 17 00 72 08 02 17  .....x.>....r...
0820: 00 03 00 01 72 08 9D 00  ED 0B 19 00 17 00 02 19  ....r...........
0830: 00 08 00 00 72 08 02 17  00 22 80 03 72 08 9D 00  ....r...."..r...
0840: 3D 0C 15 00 17 00 3D 10  00 15 00 00 80 03 24 00  =.....=.......$.
0850: 17 00 07 24 00 23 80 02  08 00 0F 80 80 6A 08 D4  ...$.#.......j..
0860: 01 15 00 24 80 24 00 01  72 08 D4 01 15 00 04 80  ...$.$..r.......
0870: 24 00 0B 17 00 01 0F 08  1B 1A E7 09 06 17 00 06  $...............
0880: 10 00 06 1B 00 03 1B 00  08 00 03 10 00 21 80 3D  .............!.=
0890: 10 00 01 80 00 80 06 1E  00 02 08 00 0A 80 80 BD  ................
08A0: 08 03 1B 00 03 00 08 1B  00 01 80 0B 1B 00 3F 1B  ..............?.
08B0: 00 1B 00 0D 80 07 1B 00  01 80 01 F1 08 02 08 00  ................
08C0: 0C 80 80 E1 08 03 1B 00  03 00 08 1B 00 0D 80 0B  ................
08D0: 1B 00 3F 1B 00 1B 00 1A  80 07 1B 00 0D 80 01 F1  ..?.............
08E0: 08 02 08 00 0F 80 80 F1  08 03 1B 00 10 80 01 F1  ................
08F0: 08 9D 00 3D 0C 15 00 1B  00 3D 10 00 15 00 00 80  ...=.....=......
0900: 03 24 00 1B 00 07 24 00  23 80 02 08 00 0F 80 80  .$....$.#.......
0910: 1D 09 D4 01 15 00 24 80  24 00 01 25 09 D4 01 15  ......$.$..%....
0920: 00 04 80 24 00 1B 1A E7  09 06 17 00 06 10 00 06  ...$............
0930: 1B 00 03 1B 00 08 00 03  10 00 21 80 3D 10 00 01  ..........!.=...
0940: 80 00 80 06 1E 00 02 08  00 0F 80 80 C5 09 9D 00  ................
0950: 3D 0C 15 00 03 00 02 15  00 0D 80 01 84 09 03 1B  =...............
0960: 00 25 80 9D 00 3D 0C 15  00 1B 00 3D 10 00 15 00  .%...=.....=....
0970: 00 80 03 24 00 1B 00 07  24 00 23 80 D4 01 15 00  ...$....$.#.....
0980: 24 80 24 00 9D 00 3D 0C  15 00 03 00 02 15 00 04  $.$...=.........
0990: 80 01 C2 09 03 1B 00 25  80 07 1B 00 03 80 9D 00  .......%........
09A0: 3D 0C 15 00 1B 00 3D 10  00 15 00 00 80 03 24 00  =.....=.......$.
09B0: 25 80 0B 24 00 07 24 00  23 80 D4 01 15 00 24 80  %..$..$.#.....$.
09C0: 24 00 01 E6 09 9D 00 3D  0C 15 00 1B 00 3D 10 00  $......=.....=..
09D0: 15 00 00 80 03 24 00 1B  00 07 24 00 23 80 D4 01  .....$....$.#...
09E0: 15 00 04 80 24 00 1B 06  17 00 02 17 00 1E 80 03  ....$...........
09F0: 00 0A 9D 05 9D 0B 01 80  17 00 0B 17 00 01 EA 09  ................
0A00: 1B D0 26 80 F8 FF FF 7F  F8 FF FF 7F 6D 61 69 6E  ..&.........main
0A10: 01 80 1C 27 80 45 27 80  F0 FF FF 7F F0 FF FF 7F  ...'.E'.........
0A20: 66 64 6F 31 01 80 1C 28  80 1B 45 27 80 F0 FF FF  fdo1...(..E'....
0A30: 7F F0 FF FF 7F 66 64 69  31 01 80 D0 29 80 F8 FF  .....fdi1...)...
0A40: FF 7F F8 FF FF 7F 6D 61  69 6E 01 80 1C 2A 80 55  ......main...*.U
0A50: 27 80 F0 FF FF 7F F0 FF  FF 7F 66 64 69 31 1B D0  '.........fdi1..
0A60: 2B 80 F8 FF FF 7F F8 FF  FF 7F 6D 61 69 6E 01 80  +.........main..
0A70: 1C 2C 80 45 27 80 F0 FF  FF 7F F0 FF FF 7F 66 64  .,.E'.........fd
0A80: 6F 31 01 80 1C 28 80 1B  45 27 80 F0 FF FF 7F F0  o1...(..E'......
0A90: FF FF 7F 66 64 69 31 01  80 D0 2D 80 F8 FF FF 7F  ...fdi1...-.....
0AA0: F8 FF FF 7F 6D 61 69 6E  01 80 1C 2C 80 55 27 80  ....main...,.U'.
0AB0: F0 FF FF 7F F0 FF FF 7F  66 64 69 31 1B 06 17 00  ........fdi1....
0AC0: 9D 00 DD 0C 1F 00 06 00  9D 00 7D 0D 20 00 06 00  ..........}. ...
0AD0: 9D 00 2D 0D 21 00 06 00  9D 00 1D 0E 25 00 06 00  ..-.!.......%...
0AE0: 02 25 00 01 80 80 F5 0A  03 22 00 01 80 07 1F 00  .%......."......
0AF0: 2E 80 01 9C 0B 02 25 00  00 80 80 0F 0B 03 22 00  ......%.......".
0B00: 2F 80 07 1F 00 2E 80 07  21 00 30 80 01 9C 0B 02  /.......!.0.....
0B10: 25 00 03 80 80 24 0B 03  22 00 31 80 07 21 00 30  %....$..".1..!.0
0B20: 80 01 9C 0B 02 25 00 16  80 80 3E 0B 03 22 00 32  .....%....>..".2
0B30: 80 07 1F 00 30 80 07 21  00 30 80 01 9C 0B 02 25  ....0..!.0.....%
0B40: 00 1D 80 80 53 0B 03 22  00 33 80 07 1F 00 30 80  ....S..".3....0.
0B50: 01 9C 0B 02 25 00 02 80  80 6D 0B 03 22 00 34 80  ....%....m..".4.
0B60: 07 1F 00 30 80 07 21 00  2E 80 01 9C 0B 02 25 00  ...0..!.......%.
0B70: 35 80 80 82 0B 03 22 00  36 80 07 21 00 2E 80 01  5.....".6..!....
0B80: 9C 0B 02 25 00 0B 80 80  9C 0B 03 22 00 37 80 07  ...%.......".7..
0B90: 1F 00 2E 80 07 21 00 2E  80 01 9C 0B 1B 03 10 04  .....!..........
0BA0: 10 05 10 06 10 07 10 08  10 09 10 00 17 01 17 02  ................
0BB0: 17 03 17 04 17 05 17 06  17 07 17 08 17 09 17 0A  ................
0BC0: 17 0B 17 0C 17 0D 17 0E  17 0F 17 10 17 11 17 12  ................
0BD0: 17 13 17 14 17 15 17 16  17 17 17 18 17 19 17 1A  ................
0BE0: 17 1B 17 1C 17 1D 17 1E  17 1F 17 02 10 0A 80 0A  ................
0BF0: 80 0A 80 0A 80 0A 80 0A  80 0A 80 0A 80 0C 80 0C  ................
0C00: 80 0C 80 0C 80 0C 80 0C  80 0C 80 0C 80 0C 80 0C  ................
0C10: 80 0C 80 0C 80 0C 80 0C  80 0C 80 0F 80 0F 80 0F  ................
0C20: 80 0F 80 0F 80 0F 80 0F  80 0F 80 0F 80 0F 80 01  ................
0C30: 80 01 80 01 80 01 80 01  80 01 80 01 80 00 80 03  ................
0C40: 80 16 80 1D 80 02 80 35  80 0B 80 0D 80 00 80 03  .......5........
0C50: 80 16 80 1D 80 02 80 35  80 0B 80 0D 80 05 80 04  .......5........
0C60: 80 24 80 38 80 39 80 3A  80 1A 80 00 80 03 80 16  .$.8.9.:........
0C70: 80 1D 80 02 80 35 80 0B  80 0D 80 05 80 04 80 01  .....5..........
0C80: 80 01 80 01 80 01 80 01  80 01 80 01 80 01 80 01  ................
0C90: 80 01 80 01 80 01 80 01  80 01 80 01 80 01 80 01  ................
0CA0: 80 01 80 01 80 01 80 01  80 01 80 01 80 01 80 01  ................
0CB0: 80 01 80 01 80 01 80 01  80 01 80 01 80 01 80 01  ................
0CC0: 80 01 80 01 80 01 80 01  80 01 80 01 80 01 80 01  ................
0CD0: 80 01 80 01 80 01 80 01  80 01 80 01 80 3B 80 3C  .............;.<
0CE0: 80 3D 80 3E 80 3F 80 40  80 41 80 42 80 43 80 44  .=.>.?.@.A.B.C.D
0CF0: 80 45 80 46 80 47 80 48  80 49 80 01 80 4A 80 4B  .E.F.G.H.I...J.K
0D00: 80 4C 80 4D 80 4E 80 4F  80 50 80 51 80 52 80 53  .L.M.N.O.P.Q.R.S
0D10: 80 54 80 55 80 56 80 57  80 58 80 59 80 5A 80 01  .T.U.V.W.X.Y.Z..
0D20: 80 01 80 01 80 01 80 01  80 01 80 01 80 5B 80 5C  .............[.\
0D30: 80 5D 80 5E 80 5F 80 60  80 61 80 62 80 63 80 64  .].^._.`.a.b.c.d
0D40: 80 65 80 66 80 67 80 68  80 69 80 6A 80 6B 80 6C  .e.f.g.h.i.j.k.l
0D50: 80 67 80 65 80 6D 80 6E  80 6F 80 70 80 71 80 72  .g.e.m.n.o.p.q.r
0D60: 80 73 80 74 80 75 80 76  80 77 80 78 80 79 80 01  .s.t.u.v.w.x.y..
0D70: 80 01 80 01 80 01 80 01  80 01 80 01 80 7A 80 7B  .............z.{
0D80: 80 7C 80 7D 80 7E 80 7F  80 27 80 80 80 81 80 82  .|.}.~...'......
0D90: 80 83 80 84 80 82 80 83  80 85 80 82 80 86 80 85  ................
0DA0: 80 87 80 88 80 89 80 82  80 8A 80 8B 80 8C 80 8D  ................
0DB0: 80 8E 80 8F 80 90 80 91  80 92 80 93 80 94 80 01  ................
0DC0: 80 01 80 01 80 01 80 01  80 01 80 01 80 01 80 01  ................
0DD0: 80 01 80 01 80 01 80 01  80 01 80 01 80 01 80 01  ................
0DE0: 80 01 80 01 80 01 80 01  80 01 80 01 80 01 80 01  ................
0DF0: 80 01 80 01 80 01 80 01  80 01 80 01 80 01 80 01  ................
0E00: 80 01 80 01 80 01 80 01  80 01 80 01 80 01 80 01  ................
0E10: 80 01 80 01 80 01 80 01  80 01 80 01 80 01 80 35  ...............5
0E20: 80 35 80 03 80 01 80 35  80 01 80 02 80 35 80 0B  .5.....5.....5..
0E30: 80 1D 80 0B 80 01 80 02  80 00 80 03 80 0B 80 16  ................
0E40: 80 1D 80 01 80 1D 80 02  80 35 80 01 80 03 80 16  .........5......
0E50: 80 35 80 03 80 1D 80 02  80 03 80 01 80 01 80 01  .5..............
0E60: 80 01 80 01 80 01 80 01  80 01 80 01 80 0C 80 0C  ................
0E70: 80 0C 80 0C 80 0C 80 0C  80 0C 80 0C 80 0C 80 0C  ................
0E80: 80 0C 80 0C 80 0C 80 0C  80 0C 80 0F 80 0F 80 0F  ................
0E90: 80 0F 80 01 80 01 80 01  80 01 80 01 80 01 80 01  ................
0EA0: 80 01 80 01 80 01 80 01  80 01 80 01 80 01 80 01  ................
0EB0: 80 01 80 01 80 01 80 01  80 01 80 01 80 00 80 03  ................
0EC0: 80 16 80 1D 80 02 80 35  80 0B 80 0D 80 05 80 04  .......5........
0ED0: 80 24 80 38 80 39 80 3A  80 1A 80 00 80 03 80 16  .$.8.9.:........
0EE0: 80 1D 80 01 80 01 80 01  80 01 80 01 80 01 80 01  ................
0EF0: 80 01 80 01 80 01 80 01  80 01 80 01 80 01 80 01  ................
0F00: 80 01 80 01 80 01 80 01  80 01 80 01 80 01 80 01  ................
0F10: 80 01 80 01 80 01 80 01  80 01 80 01 80 01 80 01  ................
0F20: 80 01 80 01 80 01 80 01  80 01 80 01 80 01 80 01  ................
0F30: 80 01 80 01 80 01 80 01  80 01 80 01 80 01 80 01  ................
0F40: 80 01 80 01 80 01 80 01  80 01 80 01 80 01 80 01  ................
0F50: 80 01 80 01 80 01 80 01  80 01 80 01 80 5D 80 95  .............]..
0F60: 80 96 80 97 80 98 80 99  80 9A 80 01 80 9B 80 9C  ................
0F70: 80 9D 80 9E 80 9F 80 A0  80 A1 80 A2 80 64 80 A3  .............d..
0F80: 80 A4 80 01 80 01 80 01  80 01 80 01 80 01 80 01  ................
0F90: 80 01 80 01 80 01 80 01  80 01 80 01 80 01 80 01  ................
0FA0: 80 01 80 01 80 01 80 01  80 01 80 01 80 A5 80 A6  ................
0FB0: 80 A7 80 A8 80 A9 80 AA  80 AB 80 AC 80 AD 80 AE  ................
0FC0: 80 A9 80 AF 80 B0 80 A6  80 B1 80 B2 80 B3 80 B4  ................
0FD0: 80 B5 80 01 80 01 80 01  80 01 80 01 80 01 80 01  ................
0FE0: 80 01 80 01 80 01 80 01  80 01 80 01 80 01 80 01  ................
0FF0: 80 01 80 01 80 01 80 01  80 01 80 01 80 81 80 B6  ................
1000: 80 B7 80 B8 80 B6 80 B7  80 B0 80 B6 80 B9 80 BA  ................
1010: 80 B6 80 B9 80 B8 80 B6  80 8A 80 BB 80 92 80 93  ................
1020: 80 BC 80 01 80 01 80 01  80 01 80 01 80 01 80 01  ................
1030: 80 01 80 01 80 01 80 01  80 01 80 01 80 01 80 01  ................
1040: 80 01 80 01 80 01 80 01  80 01 80 01 80 01 80 01  ................
1050: 80 01 80 01 80 01 80 01  80 01 80 01 80 01 80 01  ................
1060: 80 01 80 01 80 01 80 01  80 01 80 01 80 01 80 01  ................
1070: 80 01 80 01 80 01 80 01  80 01 80 01 80 01 80 01  ................
1080: 80 01 80 01 80 01 80 01  80 01 80 01 80 01 80 01  ................
1090: 80 01 80 01 80 01 80 01  80 01 80 01 80 03 27 00  ..............'.
10A0: 26 00 03 28 00 26 00 0D  27 00 BD 80 11 28 00 00  &..(.&..'....(..
10B0: 80 40 11 80 11 80 28 00  01 80 0D 28 00 BD 80 07  .@....(....(....
10C0: 27 00 28 00 03 28 00 27  00 0D 27 00 BE 80 11 28  '.(..(.'..'....(
10D0: 00 03 80 40 25 80 11 80  28 00 01 80 0D 28 00 BE  ...@%...(....(..
10E0: 80 07 27 00 28 00 03 28  00 27 00 0D 27 00 BF 80  ..'.(..(.'..'...
10F0: 11 28 00 1D 80 40 C0 80  11 80 28 00 01 80 0D 28  .(...@....(....(
1100: 00 BF 80 07 27 00 28 00  03 28 00 27 00 0D 27 00  ....'.(..(.'..'.
1110: C1 80 11 28 00 0D 80 40  C2 80 11 80 28 00 01 80  ...(...@....(...
1120: 0D 28 00 C1 80 07 27 00  28 00 03 28 00 27 00 0D  .(....'.(..(.'..
1130: 27 00 C3 80 11 28 00 1B  80 40 1B 80 11 80 28 00  '....(...@....(.
1140: 01 80 0D 28 00 C3 80 07  27 00 28 00 03 26 00 27  ...(....'.(..&.'
1150: 00 1B                                             ..              
```

#### Opcodes

```
  0: 0x00D4 [0x03] ExtData[1]->WorkLocal[2] = Work_Zone[3]
  1: 0x00D9 [0x03] ExtData[1]->WorkLocal[8] = Work_Zone[4]
  2: 0x00DE [0x03] ExtData[1]->WorkLocal[3] = Work_Zone[5]
  3: 0x00E3 [0x03] ExtData[1]->WorkLocal[10] = Work_Zone[6]
  4: 0x00E8 [0x03] ExtData[1]->WorkLocal[5] = Work_Zone[7]
  5: 0x00ED [0x03] ExtData[1]->WorkLocal[11] = Work_Zone[8]
  6: 0x00F2 [0x03] ExtData[1]->WorkLocal[35] = Work_Zone[9]
  7: 0x00F7 [0x41] ExtData[1]->WorkLocal[4] = ExtData[1]->WorkLocal[10] (bits 0*-0*)
  8: 0x0100 [0x41] ExtData[1]->WorkLocal[12] = ExtData[1]->WorkLocal[10] (bits 1*-2*)
  9: 0x0109 [0x02] IF !(ExtData[1]->WorkLocal[4] <= 0*) GOTO 0x0115
 10: 0x0111 [0x48] [System] [7563*]:
    → "Light begins to shimmer and twist as you pass your hand over it."
 11: 0x0114 [0x23] WAIT_FOR_DIALOG_INTERACTION
 12: 0x0115 [0x06] ExtData[1]->WorkLocal[14] = 0
 13: 0x0118 [0x06] ExtData[1]->WorkLocal[15] = 0
 14: 0x011B [0x06] ExtData[1]->WorkLocal[7] = 0
 15: 0x011E [0x02] IF !(ExtData[1]->WorkLocal[8] == 288*) GOTO 0x0132
 16: 0x0126 [0x41] ExtData[1]->WorkLocal[38] = ExtData[1]->WorkLocal[2] (bits 0*-7*)
 17: 0x012F [0x01] GOTO 0x015A
 18: 0x0132 [0x02] IF !(ExtData[1]->WorkLocal[8] == 289*) GOTO 0x0146
 19: 0x013A [0x41] ExtData[1]->WorkLocal[38] = ExtData[1]->WorkLocal[2] (bits 8*-22*)
 20: 0x0143 [0x01] GOTO 0x015A
 21: 0x0146 [0x02] IF !(ExtData[1]->WorkLocal[8] == 291*) GOTO 0x015A
 22: 0x014E [0x41] ExtData[1]->WorkLocal[38] = ExtData[1]->WorkLocal[2] (bits 23*-31*)
 23: 0x0157 [0x01] GOTO 0x015A

SUBROUTINE_015A:
 24: 0x015A [0x1A] CALL_SUBROUTINE(address=0x109D)
 25: 0x015D [0x02] IF !(ExtData[1]->WorkLocal[8] == 288*) GOTO 0x017E
 26: 0x0165 [0x02] IF !(ExtData[1]->WorkLocal[38] == 1*) GOTO 0x0174
 27: 0x016D [0x48] [System] [7564*]:
    → "The blinding light obscures your vision of the world beyond."
 28: 0x0170 [0x23] WAIT_FOR_DIALOG_INTERACTION
 29: 0x0171 [0x01] GOTO 0x017B
 30: 0x0174 [0x48] [System] [7565*]:
    → "Your pinches of escha silt trigger a faint reaction in the light, granting a small glimpse of what lies beyond."
 31: 0x0177 [0x23] WAIT_FOR_DIALOG_INTERACTION
 32: 0x0178 [0x1A] CALL_SUBROUTINE(address=0x020A)

SUBROUTINE_017B:
 33: 0x017B [0x01] GOTO 0x0208
 34: 0x017E [0x02] IF !(ExtData[1]->WorkLocal[8] == 289*) GOTO 0x01C3
 35: 0x0186 [0x02] IF !(ExtData[1]->WorkLocal[38] == 1*) GOTO 0x01A7
 36: 0x018E [0x02] IF !(ExtData[1]->WorkLocal[12] == 0*) GOTO 0x019D
 37: 0x0196 [0x48] [System] [7564*]:
    → "The blinding light obscures your vision of the world beyond."
 38: 0x0199 [0x23] WAIT_FOR_DIALOG_INTERACTION
 39: 0x019A [0x01] GOTO 0x01A4
 40: 0x019D [0x48] [System] [7565*]:
    → "Your pinches of escha silt trigger a faint reaction in the light, granting a small glimpse of what lies beyond."
 41: 0x01A0 [0x23] WAIT_FOR_DIALOG_INTERACTION
 42: 0x01A1 [0x1A] CALL_SUBROUTINE(address=0x0279)

SUBROUTINE_01A4:
 43: 0x01A4 [0x01] GOTO 0x01C0
 44: 0x01A7 [0x02] IF !(ExtData[1]->WorkLocal[12] == 0*) GOTO 0x01B9
 45: 0x01AF [0x48] [System] [7565*]:
    → "Your pinches of escha silt trigger a faint reaction in the light, granting a small glimpse of what lies beyond."
 46: 0x01B2 [0x23] WAIT_FOR_DIALOG_INTERACTION
 47: 0x01B3 [0x1A] CALL_SUBROUTINE(address=0x020A)
 48: 0x01B6 [0x01] GOTO 0x01C0
 49: 0x01B9 [0x48] [System] [7565*]:
    → "Your pinches of escha silt trigger a faint reaction in the light, granting a small glimpse of what lies beyond."
 50: 0x01BC [0x23] WAIT_FOR_DIALOG_INTERACTION
 51: 0x01BD [0x1A] CALL_SUBROUTINE(address=0x0279)

SUBROUTINE_01C0:
 52: 0x01C0 [0x01] GOTO 0x0208
 53: 0x01C3 [0x02] IF !(ExtData[1]->WorkLocal[8] == 291*) GOTO 0x0208
 54: 0x01CB [0x02] IF !(ExtData[1]->WorkLocal[38] == 1*) GOTO 0x01EC
 55: 0x01D3 [0x02] IF !(ExtData[1]->WorkLocal[12] == 0*) GOTO 0x01E2
 56: 0x01DB [0x48] [System] [7564*]:
    → "The blinding light obscures your vision of the world beyond."
 57: 0x01DE [0x23] WAIT_FOR_DIALOG_INTERACTION
 58: 0x01DF [0x01] GOTO 0x01E9
 59: 0x01E2 [0x48] [System] [7565*]:
    → "Your pinches of escha silt trigger a faint reaction in the light, granting a small glimpse of what lies beyond."
 60: 0x01E5 [0x23] WAIT_FOR_DIALOG_INTERACTION
 61: 0x01E6 [0x1A] CALL_SUBROUTINE(address=0x0279)

SUBROUTINE_01E9:
 62: 0x01E9 [0x01] GOTO 0x0205
 63: 0x01EC [0x02] IF !(ExtData[1]->WorkLocal[12] == 0*) GOTO 0x01FE
 64: 0x01F4 [0x48] [System] [7565*]:
    → "Your pinches of escha silt trigger a faint reaction in the light, granting a small glimpse of what lies beyond."
 65: 0x01F7 [0x23] WAIT_FOR_DIALOG_INTERACTION
 66: 0x01F8 [0x1A] CALL_SUBROUTINE(address=0x020A)
 67: 0x01FB [0x01] GOTO 0x0205
 68: 0x01FE [0x48] [System] [7565*]:
    → "Your pinches of escha silt trigger a faint reaction in the light, granting a small glimpse of what lies beyond."
 69: 0x0201 [0x23] WAIT_FOR_DIALOG_INTERACTION
 70: 0x0202 [0x1A] CALL_SUBROUTINE(address=0x0279)

SUBROUTINE_0205:
 71: 0x0205 [0x01] GOTO 0x0208

SUBROUTINE_0208:
 72: 0x0208 [0x21] END_EVENT
 73: 0x0209 [0x00] END_REQSTACK()

SUBROUTINE_020A:
 74: 0x020A [0x06] ExtData[1]->WorkLocal[18] = 0
 75: 0x020D [0x06] ExtData[1]->WorkLocal[17] = 0
 76: 0x0210 [0x06] ExtData[1]->WorkLocal[16] = 0

SUBROUTINE_0213:
 77: 0x0213 [0x02] IF !(ExtData[1]->WorkLocal[18] == 0*) GOTO 0x0278
 78: 0x021B [0x1A] CALL_SUBROUTINE(address=0x07F2)
 79: 0x021E [0x02] IF !(ExtData[1]->WorkLocal[8] == 288*) GOTO 0x022E
 80: 0x0226 [0x03] Work_Zone[2] = 0*
 81: 0x022B [0x01] GOTO 0x024E
 82: 0x022E [0x02] IF !(ExtData[1]->WorkLocal[8] == 289*) GOTO 0x023E
 83: 0x0236 [0x03] Work_Zone[2] = 0*
 84: 0x023B [0x01] GOTO 0x024E
 85: 0x023E [0x02] IF !(ExtData[1]->WorkLocal[8] == 291*) GOTO 0x024E
 86: 0x0246 [0x03] Work_Zone[2] = 1*
 87: 0x024B [0x01] GOTO 0x024E

SUBROUTINE_024E:
 88: 0x024E [0xD4] MAP_QUERY_WINDOW: Test and open map window (flag=0x14, work=[0x1180, Work_Zone[0], 0x2500])
 89: 0x0257 [0x02] IF !(Work_Zone[0] == 0*) GOTO 0x0265
 90: 0x025F [0x05] ExtData[1]->WorkLocal[18] = 1
 91: 0x0262 [0x01] GOTO 0x0265

SUBROUTINE_0265:
 92: 0x0265 [0x03] ExtData[1]->WorkLocal[17] = Work_Zone[0]
 93: 0x026A [0x02] IF !(ExtData[1]->WorkLocal[18] == 0*) GOTO 0x0275
 94: 0x0272 [0x1A] CALL_SUBROUTINE(address=0x0416)
 95: 0x0275 [0x01] GOTO 0x0213
 96: 0x0278 [0x1B] RETURN

SUBROUTINE_0279:
 97: 0x0279 [0x02] IF !(ExtData[1]->WorkLocal[15] == 0*) GOTO 0x0415
 98: 0x0281 [0x1A] CALL_SUBROUTINE(address=0x06EF)
 99: 0x0284 [0x24] CREATE_DIALOG(message_id=7569*, default_option=ExtData[1]->WorkLocal[14], option_flags=ExtData[1]->WorkLocal[13])
    → "What do you do? [Nothing for now./Use escha silt./Teleport using $0./Teleport using $6.]"
100: 0x028B [0x25] WAIT_DIALOG_SELECT()
101: 0x028C [0x02] IF !(Work_Zone[0] == 0*) GOTO 0x029A
102: 0x0294 [0x05] ExtData[1]->WorkLocal[15] = 1
103: 0x0297 [0x01] GOTO 0x029A

SUBROUTINE_029A:
104: 0x029A [0x03] ExtData[1]->WorkLocal[14] = Work_Zone[0]
105: 0x029F [0x02] IF !(ExtData[1]->WorkLocal[15] == 0*) GOTO 0x0412
106: 0x02A7 [0x02] IF !(ExtData[1]->WorkLocal[14] == 1*) GOTO 0x0320
107: 0x02AF [0x06] ExtData[1]->WorkLocal[18] = 0
108: 0x02B2 [0x06] ExtData[1]->WorkLocal[17] = 0
109: 0x02B5 [0x06] ExtData[1]->WorkLocal[16] = 0

SUBROUTINE_02B8:
110: 0x02B8 [0x02] IF !(ExtData[1]->WorkLocal[18] == 0*) GOTO 0x031D
111: 0x02C0 [0x1A] CALL_SUBROUTINE(address=0x07F2)
112: 0x02C3 [0x02] IF !(ExtData[1]->WorkLocal[8] == 288*) GOTO 0x02D3
113: 0x02CB [0x03] Work_Zone[2] = 0*
114: 0x02D0 [0x01] GOTO 0x02F3
115: 0x02D3 [0x02] IF !(ExtData[1]->WorkLocal[8] == 289*) GOTO 0x02E3
116: 0x02DB [0x03] Work_Zone[2] = 0*
117: 0x02E0 [0x01] GOTO 0x02F3
118: 0x02E3 [0x02] IF !(ExtData[1]->WorkLocal[8] == 291*) GOTO 0x02F3
119: 0x02EB [0x03] Work_Zone[2] = 1*
120: 0x02F0 [0x01] GOTO 0x02F3

SUBROUTINE_02F3:
121: 0x02F3 [0xD4] MAP_QUERY_WINDOW: Test and open map window (flag=0x14, work=[0x1180, Work_Zone[0], 0x2500])
122: 0x02FC [0x02] IF !(Work_Zone[0] == 0*) GOTO 0x030A
123: 0x0304 [0x05] ExtData[1]->WorkLocal[18] = 1
124: 0x0307 [0x01] GOTO 0x030A

SUBROUTINE_030A:
125: 0x030A [0x03] ExtData[1]->WorkLocal[17] = Work_Zone[0]
126: 0x030F [0x02] IF !(ExtData[1]->WorkLocal[18] == 0*) GOTO 0x031A
127: 0x0317 [0x1A] CALL_SUBROUTINE(address=0x0416)
128: 0x031A [0x01] GOTO 0x02B8
129: 0x031D [0x01] GOTO 0x0412
130: 0x0320 [0x02] IF !(ExtData[1]->WorkLocal[14] == 2*) GOTO 0x0399
131: 0x0328 [0x06] ExtData[1]->WorkLocal[18] = 0
132: 0x032B [0x06] ExtData[1]->WorkLocal[17] = 0
133: 0x032E [0x06] ExtData[1]->WorkLocal[16] = 0

SUBROUTINE_0331:
134: 0x0331 [0x02] IF !(ExtData[1]->WorkLocal[18] == 0*) GOTO 0x0396
135: 0x0339 [0x1A] CALL_SUBROUTINE(address=0x0879)
136: 0x033C [0x02] IF !(ExtData[1]->WorkLocal[8] == 288*) GOTO 0x034C
137: 0x0344 [0x03] Work_Zone[2] = 0*
138: 0x0349 [0x01] GOTO 0x036C
139: 0x034C [0x02] IF !(ExtData[1]->WorkLocal[8] == 289*) GOTO 0x035C
140: 0x0354 [0x03] Work_Zone[2] = 0*
141: 0x0359 [0x01] GOTO 0x036C
142: 0x035C [0x02] IF !(ExtData[1]->WorkLocal[8] == 291*) GOTO 0x036C
143: 0x0364 [0x03] Work_Zone[2] = 1*
144: 0x0369 [0x01] GOTO 0x036C

SUBROUTINE_036C:
145: 0x036C [0xD4] MAP_QUERY_WINDOW: Test and open map window (flag=0x14, work=[0x1180, Work_Zone[0], 0x2500])
146: 0x0375 [0x02] IF !(Work_Zone[0] == 0*) GOTO 0x0383
147: 0x037D [0x05] ExtData[1]->WorkLocal[18] = 1

SUBROUTINE_0380:
148: 0x0380 [0x01] GOTO 0x0383

SUBROUTINE_0383:
149: 0x0383 [0x03] ExtData[1]->WorkLocal[17] = Work_Zone[0]
150: 0x0388 [0x02] IF !(ExtData[1]->WorkLocal[18] == 0*) GOTO 0x0393
151: 0x0390 [0x1A] CALL_SUBROUTINE(address=0x050F)
152: 0x0393 [0x01] GOTO 0x0331
153: 0x0396 [0x01] GOTO 0x0412
154: 0x0399 [0x02] IF !(ExtData[1]->WorkLocal[14] == 3*) GOTO 0x0412
155: 0x03A1 [0x06] ExtData[1]->WorkLocal[18] = 0
156: 0x03A4 [0x06] ExtData[1]->WorkLocal[17] = 0
157: 0x03A7 [0x06] ExtData[1]->WorkLocal[16] = 0

SUBROUTINE_03AA:
158: 0x03AA [0x02] IF !(ExtData[1]->WorkLocal[18] == 0*) GOTO 0x040F
159: 0x03B2 [0x1A] CALL_SUBROUTINE(address=0x0926)
160: 0x03B5 [0x02] IF !(ExtData[1]->WorkLocal[8] == 288*) GOTO 0x03C5
161: 0x03BD [0x03] Work_Zone[2] = 0*
162: 0x03C2 [0x01] GOTO 0x03E5
163: 0x03C5 [0x02] IF !(ExtData[1]->WorkLocal[8] == 289*) GOTO 0x03D5
164: 0x03CD [0x03] Work_Zone[2] = 0*
165: 0x03D2 [0x01] GOTO 0x03E5
166: 0x03D5 [0x02] IF !(ExtData[1]->WorkLocal[8] == 291*) GOTO 0x03E5
167: 0x03DD [0x03] Work_Zone[2] = 1*
168: 0x03E2 [0x01] GOTO 0x03E5

SUBROUTINE_03E5:
169: 0x03E5 [0xD4] MAP_QUERY_WINDOW: Test and open map window (flag=0x14, work=[0x1180, Work_Zone[0], 0x2500])
170: 0x03EE [0x02] IF !(Work_Zone[0] == 0*) GOTO 0x03FC
171: 0x03F6 [0x05] ExtData[1]->WorkLocal[18] = 1
172: 0x03F9 [0x01] GOTO 0x03FC

SUBROUTINE_03FC:
173: 0x03FC [0x03] ExtData[1]->WorkLocal[17] = Work_Zone[0]
174: 0x0401 [0x02] IF !(ExtData[1]->WorkLocal[18] == 0*) GOTO 0x040C
175: 0x0409 [0x1A] CALL_SUBROUTINE(address=0x0608)
176: 0x040C [0x01] GOTO 0x03AA
177: 0x040F [0x01] GOTO 0x0412

SUBROUTINE_0412:
178: 0x0412 [0x01] GOTO 0x0279
179: 0x0415 [0x1B] RETURN

SUBROUTINE_0416:
180: 0x0416 [0x03] ExtData[1]->WorkLocal[29] = ExtData[1]->WorkLocal[11]
181: 0x041B [0x03] Work_Zone[2] = ExtData[1]->WorkLocal[5]
182: 0x0420 [0x03] Work_Zone[3] = ExtData[1]->WorkLocal[29]
183: 0x0425 [0x24] CREATE_DIALOG(message_id=7567*, default_option=1*, option_flags=0*)
    → "Traverse the light? ($0 silt) [Let's do it. ($1 silt)/Do not go into the light!]"
184: 0x042C [0x25] WAIT_DIALOG_SELECT()
185: 0x042D [0x02] IF !(Work_Zone[0] == 0*) GOTO 0x0503
186: 0x0435 [0x02] IF !(ExtData[1]->WorkLocal[5] >= ExtData[1]->WorkLocal[29]) GOTO 0x044C
187: 0x043D [0x48] [System] [7568*]:
    → "You do not have enough escha silt."
188: 0x0440 [0x23] WAIT_FOR_DIALOG_INTERACTION
189: 0x0441 [0x05] ExtData[1]->WorkLocal[15] = 1
190: 0x0444 [0x03] Work_Zone[1] = 1073741824*
191: 0x0449 [0x01] GOTO 0x0500
192: 0x044C [0x42] SET_CLI_EVENT_CANCEL_DATA()
193: 0x044D [0x1A] CALL_SUBROUTINE(address=0x06B3)
194: 0x0450 [0x40] SET_BIT_WORK_RANGE(start_bit=0*, end_bit=15*, target=Work_Zone[1], source=1*)
195: 0x0459 [0x40] SET_BIT_WORK_RANGE(start_bit=16*, end_bit=31*, target=Work_Zone[1], source=ExtData[1]->WorkLocal[6])
196: 0x0462 [0x43] SEND_EVENT_UPDATE: Send pending tag to server (packet 0x005B)
197: 0x0464 [0x43] SEND_EVENT_UPDATE: Check pending flag (skip if not pending)
198: 0x0466 [0x02] IF !(ExtData[1]->WorkLocal[8] == 288*) GOTO 0x0474
199: 0x046E [0x1A] CALL_SUBROUTINE(address=0x0A01)
200: 0x0471 [0x01] GOTO 0x0490
201: 0x0474 [0x02] IF !(ExtData[1]->WorkLocal[8] == 289*) GOTO 0x0482
202: 0x047C [0x1A] CALL_SUBROUTINE(address=0x0A01)
203: 0x047F [0x01] GOTO 0x0490
204: 0x0482 [0x02] IF !(ExtData[1]->WorkLocal[8] == 291*) GOTO 0x0490
205: 0x048A [0x1A] CALL_SUBROUTINE(address=0x0A5F)
206: 0x048D [0x01] GOTO 0x0490

SUBROUTINE_0490:
207: 0x0490 [0x1A] CALL_SUBROUTINE(address=0x0ABD)
208: 0x0493 [0xBA] SET_ENTITY_POSITION(entity_id=LocalPlayer, pos_x=ExtData[1]->WorkLocal[31], pos_z=ExtData[1]->WorkLocal[33], pos_y=ExtData[1]->WorkLocal[32], direction=ExtData[1]->WorkLocal[34])
209: 0x04A0 [0x40] SET_BIT_WORK_RANGE(start_bit=0*, end_bit=15*, target=Work_Zone[1], source=2*)
210: 0x04A9 [0x40] SET_BIT_WORK_RANGE(start_bit=16*, end_bit=31*, target=Work_Zone[1], source=ExtData[1]->WorkLocal[6])
211: 0x04B2 [0x47] UPDATE_PLAYER_POS(ExtData[1]->WorkLocal[31], ExtData[1]->WorkLocal[33], ExtData[1]->WorkLocal[32], yaw=ExtData[1]->WorkLocal[34])
212: 0x04BC [0x47] WAIT_PLAYER_POS_UPDATE
213: 0x04BE [0x02] IF !(ExtData[1]->WorkLocal[8] == 288*) GOTO 0x04CC
214: 0x04C6 [0x1A] CALL_SUBROUTINE(address=0x0A2A)
215: 0x04C9 [0x01] GOTO 0x04E8
216: 0x04CC [0x02] IF !(ExtData[1]->WorkLocal[8] == 289*) GOTO 0x04DA
217: 0x04D4 [0x1A] CALL_SUBROUTINE(address=0x0A2A)
218: 0x04D7 [0x01] GOTO 0x04E8
219: 0x04DA [0x02] IF !(ExtData[1]->WorkLocal[8] == 291*) GOTO 0x04E8
220: 0x04E2 [0x1A] CALL_SUBROUTINE(address=0x0A88)
221: 0x04E5 [0x01] GOTO 0x04E8

SUBROUTINE_04E8:
222: 0x04E8 [0x40] SET_BIT_WORK_RANGE(start_bit=0*, end_bit=15*, target=Work_Zone[1], source=2*)
223: 0x04F1 [0x40] SET_BIT_WORK_RANGE(start_bit=16*, end_bit=31*, target=Work_Zone[1], source=0*)
224: 0x04FA [0x05] ExtData[1]->WorkLocal[15] = 1
225: 0x04FD [0x05] ExtData[1]->WorkLocal[18] = 1

SUBROUTINE_0500:
226: 0x0500 [0x01] GOTO 0x050E
227: 0x0503 [0x02] IF !(Work_Zone[0] == 1*) GOTO 0x050E
228: 0x050B [0x01] GOTO 0x050E

SUBROUTINE_050E:
229: 0x050E [0x1B] RETURN

SUBROUTINE_050F:
230: 0x050F [0x03] ExtData[1]->WorkLocal[29] = 0*
231: 0x0514 [0x03] Work_Zone[2] = ExtData[1]->WorkLocal[5]
232: 0x0519 [0x03] Work_Zone[3] = ExtData[1]->WorkLocal[29]
233: 0x051E [0x24] CREATE_DIALOG(message_id=7570*, default_option=1*, option_flags=0*)
    → "Traverse the light? [Let's do this./No, wait!]"
234: 0x0525 [0x25] WAIT_DIALOG_SELECT()
235: 0x0526 [0x02] IF !(Work_Zone[0] == 0*) GOTO 0x05FC
236: 0x052E [0x02] IF !(ExtData[1]->WorkLocal[5] >= ExtData[1]->WorkLocal[29]) GOTO 0x0545
237: 0x0536 [0x48] [System] [7568*]:
    → "You do not have enough escha silt."
238: 0x0539 [0x23] WAIT_FOR_DIALOG_INTERACTION
239: 0x053A [0x05] ExtData[1]->WorkLocal[15] = 1
240: 0x053D [0x03] Work_Zone[1] = 1073741824*
241: 0x0542 [0x01] GOTO 0x05F9
242: 0x0545 [0x42] SET_CLI_EVENT_CANCEL_DATA()
243: 0x0546 [0x1A] CALL_SUBROUTINE(address=0x06B3)
244: 0x0549 [0x40] SET_BIT_WORK_RANGE(start_bit=0*, end_bit=15*, target=Work_Zone[1], source=1*)
245: 0x0552 [0x40] SET_BIT_WORK_RANGE(start_bit=16*, end_bit=31*, target=Work_Zone[1], source=ExtData[1]->WorkLocal[6])
246: 0x055B [0x43] SEND_EVENT_UPDATE: Send pending tag to server (packet 0x005B)
247: 0x055D [0x43] SEND_EVENT_UPDATE: Check pending flag (skip if not pending)
248: 0x055F [0x02] IF !(ExtData[1]->WorkLocal[8] == 288*) GOTO 0x056D
249: 0x0567 [0x1A] CALL_SUBROUTINE(address=0x0A01)
250: 0x056A [0x01] GOTO 0x0589
251: 0x056D [0x02] IF !(ExtData[1]->WorkLocal[8] == 289*) GOTO 0x057B
252: 0x0575 [0x1A] CALL_SUBROUTINE(address=0x0A01)
253: 0x0578 [0x01] GOTO 0x0589
254: 0x057B [0x02] IF !(ExtData[1]->WorkLocal[8] == 291*) GOTO 0x0589
255: 0x0583 [0x1A] CALL_SUBROUTINE(address=0x0A5F)
256: 0x0586 [0x01] GOTO 0x0589

SUBROUTINE_0589:
257: 0x0589 [0x1A] CALL_SUBROUTINE(address=0x0ABD)
258: 0x058C [0xBA] SET_ENTITY_POSITION(entity_id=LocalPlayer, pos_x=ExtData[1]->WorkLocal[31], pos_z=ExtData[1]->WorkLocal[33], pos_y=ExtData[1]->WorkLocal[32], direction=ExtData[1]->WorkLocal[34])
259: 0x0599 [0x40] SET_BIT_WORK_RANGE(start_bit=0*, end_bit=15*, target=Work_Zone[1], source=3*)
260: 0x05A2 [0x40] SET_BIT_WORK_RANGE(start_bit=16*, end_bit=31*, target=Work_Zone[1], source=ExtData[1]->WorkLocal[6])
261: 0x05AB [0x47] UPDATE_PLAYER_POS(ExtData[1]->WorkLocal[31], ExtData[1]->WorkLocal[33], ExtData[1]->WorkLocal[32], yaw=ExtData[1]->WorkLocal[34])
262: 0x05B5 [0x47] WAIT_PLAYER_POS_UPDATE
263: 0x05B7 [0x02] IF !(ExtData[1]->WorkLocal[8] == 288*) GOTO 0x05C5
264: 0x05BF [0x1A] CALL_SUBROUTINE(address=0x0A2A)
265: 0x05C2 [0x01] GOTO 0x05E1
266: 0x05C5 [0x02] IF !(ExtData[1]->WorkLocal[8] == 289*) GOTO 0x05D3
267: 0x05CD [0x1A] CALL_SUBROUTINE(address=0x0A2A)
268: 0x05D0 [0x01] GOTO 0x05E1
269: 0x05D3 [0x02] IF !(ExtData[1]->WorkLocal[8] == 291*) GOTO 0x05E1
270: 0x05DB [0x1A] CALL_SUBROUTINE(address=0x0A88)
271: 0x05DE [0x01] GOTO 0x05E1

SUBROUTINE_05E1:
272: 0x05E1 [0x40] SET_BIT_WORK_RANGE(start_bit=0*, end_bit=15*, target=Work_Zone[1], source=3*)
273: 0x05EA [0x40] SET_BIT_WORK_RANGE(start_bit=16*, end_bit=31*, target=Work_Zone[1], source=0*)
274: 0x05F3 [0x05] ExtData[1]->WorkLocal[15] = 1
275: 0x05F6 [0x05] ExtData[1]->WorkLocal[18] = 1

SUBROUTINE_05F9:
276: 0x05F9 [0x01] GOTO 0x0607
277: 0x05FC [0x02] IF !(Work_Zone[0] == 1*) GOTO 0x0607
278: 0x0604 [0x01] GOTO 0x0607

SUBROUTINE_0607:
279: 0x0607 [0x1B] RETURN

SUBROUTINE_0608:
280: 0x0608 [0x03] ExtData[1]->WorkLocal[29] = 0*
281: 0x060D [0x03] Work_Zone[2] = ExtData[1]->WorkLocal[5]
282: 0x0612 [0x03] Work_Zone[3] = ExtData[1]->WorkLocal[29]
283: 0x0617 [0x24] CREATE_DIALOG(message_id=7570*, default_option=1*, option_flags=0*)
    → "Traverse the light? [Let's do this./No, wait!]"
284: 0x061E [0x25] WAIT_DIALOG_SELECT()
285: 0x061F [0x02] IF !(Work_Zone[0] == 0*) GOTO 0x06A7
286: 0x0627 [0x02] IF !(ExtData[1]->WorkLocal[5] >= ExtData[1]->WorkLocal[29]) GOTO 0x063E
287: 0x062F [0x48] [System] [7568*]:
    → "You do not have enough escha silt."
288: 0x0632 [0x23] WAIT_FOR_DIALOG_INTERACTION
289: 0x0633 [0x05] ExtData[1]->WorkLocal[15] = 1
290: 0x0636 [0x03] Work_Zone[1] = 1073741824*
291: 0x063B [0x01] GOTO 0x06A4
292: 0x063E [0x42] SET_CLI_EVENT_CANCEL_DATA()
293: 0x063F [0x1A] CALL_SUBROUTINE(address=0x06B3)
294: 0x0642 [0x40] SET_BIT_WORK_RANGE(start_bit=0*, end_bit=15*, target=Work_Zone[1], source=1*)
295: 0x064B [0x40] SET_BIT_WORK_RANGE(start_bit=16*, end_bit=31*, target=Work_Zone[1], source=ExtData[1]->WorkLocal[6])
296: 0x0654 [0x43] SEND_EVENT_UPDATE: Send pending tag to server (packet 0x005B)
297: 0x0656 [0x43] SEND_EVENT_UPDATE: Check pending flag (skip if not pending)
298: 0x0658 [0x1A] CALL_SUBROUTINE(address=0x0A5F)
299: 0x065B [0x1A] CALL_SUBROUTINE(address=0x0ABD)
300: 0x065E [0xBA] SET_ENTITY_POSITION(entity_id=LocalPlayer, pos_x=ExtData[1]->WorkLocal[31], pos_z=ExtData[1]->WorkLocal[33], pos_y=ExtData[1]->WorkLocal[32], direction=ExtData[1]->WorkLocal[34])
301: 0x066B [0x40] SET_BIT_WORK_RANGE(start_bit=0*, end_bit=15*, target=Work_Zone[1], source=4*)
302: 0x0674 [0x40] SET_BIT_WORK_RANGE(start_bit=16*, end_bit=31*, target=Work_Zone[1], source=ExtData[1]->WorkLocal[6])
303: 0x067D [0x47] UPDATE_PLAYER_POS(ExtData[1]->WorkLocal[31], ExtData[1]->WorkLocal[33], ExtData[1]->WorkLocal[32], yaw=ExtData[1]->WorkLocal[34])
304: 0x0687 [0x47] WAIT_PLAYER_POS_UPDATE
305: 0x0689 [0x1A] CALL_SUBROUTINE(address=0x0A88)
306: 0x068C [0x40] SET_BIT_WORK_RANGE(start_bit=0*, end_bit=15*, target=Work_Zone[1], source=4*)
307: 0x0695 [0x40] SET_BIT_WORK_RANGE(start_bit=16*, end_bit=31*, target=Work_Zone[1], source=0*)
308: 0x069E [0x05] ExtData[1]->WorkLocal[15] = 1
309: 0x06A1 [0x05] ExtData[1]->WorkLocal[18] = 1

SUBROUTINE_06A4:
310: 0x06A4 [0x01] GOTO 0x06B2
311: 0x06A7 [0x02] IF !(Work_Zone[0] == 1*) GOTO 0x06B2
312: 0x06AF [0x01] GOTO 0x06B2

SUBROUTINE_06B2:
313: 0x06B2 [0x1B] RETURN

SUBROUTINE_06B3:
314: 0x06B3 [0x06] ExtData[1]->WorkLocal[23] = 0

SUBROUTINE_06B6:
315: 0x06B6 [0x02] IF !(ExtData[1]->WorkLocal[23] >= 40*) GOTO 0x06EE
316: 0x06BE [0x9D] ExtData[1]->WorkLocal[25] = 0x0BED[ExtData[1]->WorkLocal[23]] // Read WORD
317: 0x06C6 [0x02] IF !(ExtData[1]->WorkLocal[25] == ExtData[1]->WorkLocal[8]) GOTO 0x06E8
318: 0x06CE [0x9D] ExtData[1]->WorkLocal[21] = 0x0C3D[ExtData[1]->WorkLocal[23]] // Read WORD
319: 0x06D6 [0x02] IF !(ExtData[1]->WorkLocal[21] == ExtData[1]->WorkLocal[17]) GOTO 0x06E8
320: 0x06DE [0x03] ExtData[1]->WorkLocal[6] = ExtData[1]->WorkLocal[23]
321: 0x06E3 [0x03] ExtData[1]->WorkLocal[23] = 40*
322: 0x06E8 [0x0B] ExtData[1]->WorkLocal[23]++
323: 0x06EB [0x01] GOTO 0x06B6
324: 0x06EE [0x1B] RETURN

SUBROUTINE_06EF:
325: 0x06EF [0x06] ExtData[1]->WorkLocal[13] = 0
326: 0x06F2 [0x02] IF !(ExtData[1]->WorkLocal[8] == 288*) GOTO 0x0706
327: 0x06FA [0x41] ExtData[1]->WorkLocal[38] = ExtData[1]->WorkLocal[2] (bits 0*-7*)
328: 0x0703 [0x01] GOTO 0x072E
329: 0x0706 [0x02] IF !(ExtData[1]->WorkLocal[8] == 289*) GOTO 0x071A
330: 0x070E [0x41] ExtData[1]->WorkLocal[38] = ExtData[1]->WorkLocal[2] (bits 8*-22*)
331: 0x0717 [0x01] GOTO 0x072E
332: 0x071A [0x02] IF !(ExtData[1]->WorkLocal[8] == 291*) GOTO 0x072E
333: 0x0722 [0x41] ExtData[1]->WorkLocal[38] = ExtData[1]->WorkLocal[2] (bits 23*-31*)
334: 0x072B [0x01] GOTO 0x072E

SUBROUTINE_072E:
335: 0x072E [0x1A] CALL_SUBROUTINE(address=0x109D)
336: 0x0731 [0x02] IF !(ExtData[1]->WorkLocal[38] > 1*) GOTO 0x0740
337: 0x0739 [0x3C] SET_BIT_FLAG_CONDITIONAL(target_work_offset=ExtData[1]->WorkLocal[13], bit_index_work_offset=1*, condition_work_offset=1*)
338: 0x0740 [0x02] IF !(ExtData[1]->WorkLocal[8] == 288*) GOTO 0x0759
339: 0x0748 [0x3C] SET_BIT_FLAG_CONDITIONAL(target_work_offset=ExtData[1]->WorkLocal[13], bit_index_work_offset=2*, condition_work_offset=1*)
340: 0x074F [0x3C] SET_BIT_FLAG_CONDITIONAL(target_work_offset=ExtData[1]->WorkLocal[13], bit_index_work_offset=3*, condition_work_offset=1*)
341: 0x0756 [0x01] GOTO 0x07E7
342: 0x0759 [0x02] IF !(ExtData[1]->WorkLocal[8] == 289*) GOTO 0x077A
343: 0x0761 [0x02] IF !(ExtData[1]->WorkLocal[12] == 0*) GOTO 0x0770
344: 0x0769 [0x3C] SET_BIT_FLAG_CONDITIONAL(target_work_offset=ExtData[1]->WorkLocal[13], bit_index_work_offset=2*, condition_work_offset=1*)
345: 0x0770 [0x3C] SET_BIT_FLAG_CONDITIONAL(target_work_offset=ExtData[1]->WorkLocal[13], bit_index_work_offset=3*, condition_work_offset=1*)
346: 0x0777 [0x01] GOTO 0x07E7
347: 0x077A [0x02] IF !(ExtData[1]->WorkLocal[8] == 291*) GOTO 0x07E7
348: 0x0782 [0x9D] ExtData[1]->WorkLocal[21] = 0x0C3D[ExtData[1]->WorkLocal[3]] // Read WORD
349: 0x078A [0x02] IF !(ExtData[1]->WorkLocal[21] == 1*) GOTO 0x079C
350: 0x0792 [0x3C] SET_BIT_FLAG_CONDITIONAL(target_work_offset=ExtData[1]->WorkLocal[13], bit_index_work_offset=2*, condition_work_offset=1*)
351: 0x0799 [0x01] GOTO 0x079C

SUBROUTINE_079C:
352: 0x079C [0x02] IF !(ExtData[1]->WorkLocal[12] == 0*) GOTO 0x07B5
353: 0x07A4 [0x3C] SET_BIT_FLAG_CONDITIONAL(target_work_offset=ExtData[1]->WorkLocal[13], bit_index_work_offset=2*, condition_work_offset=1*)
354: 0x07AB [0x3C] SET_BIT_FLAG_CONDITIONAL(target_work_offset=ExtData[1]->WorkLocal[13], bit_index_work_offset=3*, condition_work_offset=1*)
355: 0x07B2 [0x01] GOTO 0x07E4
356: 0x07B5 [0x02] IF !(ExtData[1]->WorkLocal[12] == 1*) GOTO 0x07C7
357: 0x07BD [0x3C] SET_BIT_FLAG_CONDITIONAL(target_work_offset=ExtData[1]->WorkLocal[13], bit_index_work_offset=3*, condition_work_offset=1*)
358: 0x07C4 [0x01] GOTO 0x07E4
359: 0x07C7 [0x02] IF !(ExtData[1]->WorkLocal[12] == 2*) GOTO 0x07D9
360: 0x07CF [0x3C] SET_BIT_FLAG_CONDITIONAL(target_work_offset=ExtData[1]->WorkLocal[13], bit_index_work_offset=2*, condition_work_offset=1*)
361: 0x07D6 [0x01] GOTO 0x07E4
362: 0x07D9 [0x02] IF !(ExtData[1]->WorkLocal[12] == 3*) GOTO 0x07E4
363: 0x07E1 [0x01] GOTO 0x07E4

SUBROUTINE_07E4:
364: 0x07E4 [0x01] GOTO 0x07E7

SUBROUTINE_07E7:
365: 0x07E7 [0x03] Work_Zone[2] = 9148*
366: 0x07EC [0x03] Work_Zone[3] = 2893*
367: 0x07F1 [0x1B] RETURN

SUBROUTINE_07F2:
368: 0x07F2 [0x1A] CALL_SUBROUTINE(address=0x09E7)
369: 0x07F5 [0x06] ExtData[1]->WorkLocal[23] = 0
370: 0x07F8 [0x06] ExtData[1]->WorkLocal[16] = 0
371: 0x07FB [0x06] ExtData[1]->WorkLocal[27] = 0
372: 0x07FE [0x03] ExtData[1]->WorkLocal[27] = ExtData[1]->WorkLocal[8]
373: 0x0803 [0x03] ExtData[1]->WorkLocal[16] = 4294967295*
374: 0x0808 [0x3D] CLEAR_BIT_FLAG_CONDITIONAL(target_work_offset=ExtData[1]->WorkLocal[16], bit_index_work_offset=0*, condition_work_offset=1*)
375: 0x080F [0x02] IF !(ExtData[1]->WorkLocal[23] >= 40*) GOTO 0x0878
376: 0x0817 [0x3E] IF !(ExtData[1]->WorkLocal[2] bit ExtData[1]->WorkLocal[23]) GOTO 0x0872
377: 0x081E [0x02] IF !(ExtData[1]->WorkLocal[23] == ExtData[1]->WorkLocal[3]) GOTO 0x0872
378: 0x0826 [0x9D] ExtData[1]->WorkLocal[25] = 0x0BED[ExtData[1]->WorkLocal[23]] // Read WORD
379: 0x082E [0x02] IF !(ExtData[1]->WorkLocal[25] == ExtData[1]->WorkLocal[8]) GOTO 0x0872
380: 0x0836 [0x02] IF !(ExtData[1]->WorkLocal[23] >= 32*) GOTO 0x0872
381: 0x083E [0x9D] ExtData[1]->WorkLocal[21] = 0x0C3D[ExtData[1]->WorkLocal[23]] // Read WORD
382: 0x0846 [0x3D] CLEAR_BIT_FLAG_CONDITIONAL(target_work_offset=ExtData[1]->WorkLocal[16], bit_index_work_offset=ExtData[1]->WorkLocal[21], condition_work_offset=1*)
383: 0x084D [0x03] ExtData[1]->WorkLocal[36] = ExtData[1]->WorkLocal[23]
384: 0x0852 [0x07] ExtData[1]->WorkLocal[36] += 608*
385: 0x0857 [0x02] IF !(ExtData[1]->WorkLocal[8] == 291*) GOTO 0x086A
386: 0x085F [0xD4] MAP_QUERY_WINDOW: Prepare buffer and copy to TalkpQW object (buffer=[15 00 24 80 24 00 01 72...])
387: 0x087F [0x06] ExtData[1]->WorkLocal[16] = 0
388: 0x0882 [0x06] ExtData[1]->WorkLocal[27] = 0
389: 0x0885 [0x03] ExtData[1]->WorkLocal[27] = ExtData[1]->WorkLocal[8]
390: 0x088A [0x03] ExtData[1]->WorkLocal[16] = 4294967295*
391: 0x088F [0x3D] CLEAR_BIT_FLAG_CONDITIONAL(target_work_offset=ExtData[1]->WorkLocal[16], bit_index_work_offset=0*, condition_work_offset=1*)
392: 0x0896 [0x06] ExtData[1]->WorkLocal[30] = 0
393: 0x0899 [0x02] IF !(ExtData[1]->WorkLocal[8] == 288*) GOTO 0x08BD
394: 0x08A1 [0x03] ExtData[1]->WorkLocal[27] = ExtData[1]->WorkLocal[3]
395: 0x08A6 [0x08] ExtData[1]->WorkLocal[27] -= 0*
396: 0x08AB [0x0B] ExtData[1]->WorkLocal[27]++
397: 0x08AE [0x3F] ExtData[1]->WorkLocal[27] = ExtData[1]->WorkLocal[27] % 8*
398: 0x08B5 [0x07] ExtData[1]->WorkLocal[27] += 0*
399: 0x08BA [0x01] GOTO 0x08F1
400: 0x08BD [0x02] IF !(ExtData[1]->WorkLocal[8] == 289*) GOTO 0x08E1
401: 0x08C5 [0x03] ExtData[1]->WorkLocal[27] = ExtData[1]->WorkLocal[3]
402: 0x08CA [0x08] ExtData[1]->WorkLocal[27] -= 8*
403: 0x08CF [0x0B] ExtData[1]->WorkLocal[27]++
404: 0x08D2 [0x3F] ExtData[1]->WorkLocal[27] = ExtData[1]->WorkLocal[27] % 15*
405: 0x08D9 [0x07] ExtData[1]->WorkLocal[27] += 8*
406: 0x08DE [0x01] GOTO 0x08F1
407: 0x08E1 [0x02] IF !(ExtData[1]->WorkLocal[8] == 291*) GOTO 0x08F1
408: 0x08E9 [0x03] ExtData[1]->WorkLocal[27] = 23*
409: 0x08EE [0x01] GOTO 0x08F1

SUBROUTINE_08F1:
410: 0x08F1 [0x9D] ExtData[1]->WorkLocal[21] = 0x0C3D[ExtData[1]->WorkLocal[27]] // Read WORD
411: 0x08F9 [0x3D] CLEAR_BIT_FLAG_CONDITIONAL(target_work_offset=ExtData[1]->WorkLocal[16], bit_index_work_offset=ExtData[1]->WorkLocal[21], condition_work_offset=1*)
412: 0x0900 [0x03] ExtData[1]->WorkLocal[36] = ExtData[1]->WorkLocal[27]
413: 0x0905 [0x07] ExtData[1]->WorkLocal[36] += 608*
414: 0x090A [0x02] IF !(ExtData[1]->WorkLocal[8] == 291*) GOTO 0x091D
415: 0x0912 [0xD4] MAP_QUERY_WINDOW: Prepare buffer and copy to TalkpQW object (buffer=[15 00 24 80 24 00 01 25...])
416: 0x0932 [0x03] ExtData[1]->WorkLocal[27] = ExtData[1]->WorkLocal[8]
417: 0x0937 [0x03] ExtData[1]->WorkLocal[16] = 4294967295*
418: 0x093C [0x3D] CLEAR_BIT_FLAG_CONDITIONAL(target_work_offset=ExtData[1]->WorkLocal[16], bit_index_work_offset=0*, condition_work_offset=1*)
419: 0x0943 [0x06] ExtData[1]->WorkLocal[30] = 0
420: 0x0946 [0x02] IF !(ExtData[1]->WorkLocal[8] == 291*) GOTO 0x09C5
421: 0x094E [0x9D] ExtData[1]->WorkLocal[21] = 0x0C3D[ExtData[1]->WorkLocal[3]] // Read WORD
422: 0x0956 [0x02] IF !(ExtData[1]->WorkLocal[21] == 8*) GOTO 0x0984
423: 0x095E [0x03] ExtData[1]->WorkLocal[27] = 30*
424: 0x0963 [0x9D] ExtData[1]->WorkLocal[21] = 0x0C3D[ExtData[1]->WorkLocal[27]] // Read WORD
425: 0x096B [0x3D] CLEAR_BIT_FLAG_CONDITIONAL(target_work_offset=ExtData[1]->WorkLocal[16], bit_index_work_offset=ExtData[1]->WorkLocal[21], condition_work_offset=1*)
426: 0x0972 [0x03] ExtData[1]->WorkLocal[36] = ExtData[1]->WorkLocal[27]
427: 0x0977 [0x07] ExtData[1]->WorkLocal[36] += 608*
428: 0x097C [0xD4] MAP_QUERY_WINDOW: Prepare buffer and copy to TalkpQW object (buffer=[15 00 24 80 24 00 9D 00...])
429: 0x099C [0x03] 0x9D80 = 0x3D00
430: 0x09A1 [0x0C] ExtData[1]->WorkLocal[21]--
431: 0x09A4 [0x1B] RETURN
432: 0x09A5 [0x00] END_REQSTACK()

SUBROUTINE_09E7:
433: 0x09E7 [0x06] ExtData[1]->WorkLocal[23] = 0

SUBROUTINE_09EA:
434: 0x09EA [0x02] IF !(ExtData[1]->WorkLocal[23] >= 40*) GOTO 0x0A00
435: 0x09F2 [0x9D] 0x0B9D[ExtData[1]->WorkLocal[23] * 2] = 0* // Write WORD
436: 0x09FA [0x0B] ExtData[1]->WorkLocal[23]++
437: 0x09FD [0x01] GOTO 0x09EA
438: 0x0A00 [0x1B] RETURN

SUBROUTINE_0A01:
439: 0x0A01 [0xD0] LOAD_SCHEDULED_TASK_ALT5: Load scheduler "main" with entities [EventEntity, EventEntity], work=[125*, 0*]
440: 0x0A12 [0x1C] WAIT(200* ticks)
441: 0x0A15 [0x45] LOAD_SCHEDULED_TASK: Load scheduler "fdo1" with entities [LocalPlayer, LocalPlayer], work=[200*, 0*]
442: 0x0A26 [0x1C] WAIT(60* ticks)
443: 0x0A29 [0x1B] RETURN

SUBROUTINE_0A2A:
444: 0x0A2A [0x45] LOAD_SCHEDULED_TASK: Load scheduler "fdi1" with entities [LocalPlayer, LocalPlayer], work=[200*, 0*]
445: 0x0A3B [0xD0] LOAD_SCHEDULED_TASK_ALT5: Load scheduler "main" with entities [EventEntity, EventEntity], work=[126*, 0*]
446: 0x0A4C [0x1C] WAIT(180* ticks)
447: 0x0A4F [0x55] WAIT_LOAD_SCHEDULER: Wait for scheduler "fdi1" with entities [LocalPlayer, LocalPlayer], work=200*
448: 0x0A5E [0x1B] RETURN

SUBROUTINE_0A5F:
449: 0x0A5F [0xD0] LOAD_SCHEDULED_TASK_ALT5: Load scheduler "main" with entities [EventEntity, EventEntity], work=[168*, 0*]
450: 0x0A70 [0x1C] WAIT(160* ticks)
451: 0x0A73 [0x45] LOAD_SCHEDULED_TASK: Load scheduler "fdo1" with entities [LocalPlayer, LocalPlayer], work=[200*, 0*]
452: 0x0A84 [0x1C] WAIT(60* ticks)
453: 0x0A87 [0x1B] RETURN

SUBROUTINE_0A88:
454: 0x0A88 [0x45] LOAD_SCHEDULED_TASK: Load scheduler "fdi1" with entities [LocalPlayer, LocalPlayer], work=[200*, 0*]
455: 0x0A99 [0xD0] LOAD_SCHEDULED_TASK_ALT5: Load scheduler "main" with entities [EventEntity, EventEntity], work=[169*, 0*]
456: 0x0AAA [0x1C] WAIT(160* ticks)
457: 0x0AAD [0x55] WAIT_LOAD_SCHEDULER: Wait for scheduler "fdi1" with entities [LocalPlayer, LocalPlayer], work=200*
458: 0x0ABC [0x1B] RETURN

SUBROUTINE_0ABD:
459: 0x0ABD [0x06] ExtData[1]->WorkLocal[23] = 0
460: 0x0AC0 [0x9D] ExtData[1]->WorkLocal[31] = 0x0CDD[ExtData[1]->WorkLocal[6]] // Read WORD
461: 0x0AC8 [0x9D] ExtData[1]->WorkLocal[32] = 0x0D7D[ExtData[1]->WorkLocal[6]] // Read WORD
462: 0x0AD0 [0x9D] ExtData[1]->WorkLocal[33] = 0x0D2D[ExtData[1]->WorkLocal[6]] // Read WORD
463: 0x0AD8 [0x9D] ExtData[1]->WorkLocal[37] = 0x0E1D[ExtData[1]->WorkLocal[6]] // Read WORD
464: 0x0AE0 [0x02] IF !(ExtData[1]->WorkLocal[37] == 0*) GOTO 0x0AF5
465: 0x0AE8 [0x03] ExtData[1]->WorkLocal[34] = 0*
466: 0x0AED [0x07] ExtData[1]->WorkLocal[31] += 4294966296*
467: 0x0AF2 [0x01] GOTO 0x0B9C
468: 0x0AF5 [0x02] IF !(ExtData[1]->WorkLocal[37] == 1*) GOTO 0x0B0F
469: 0x0AFD [0x03] ExtData[1]->WorkLocal[34] = 512*
470: 0x0B02 [0x07] ExtData[1]->WorkLocal[31] += 4294966296*
471: 0x0B07 [0x07] ExtData[1]->WorkLocal[33] += 1000*
472: 0x0B0C [0x01] GOTO 0x0B9C
473: 0x0B0F [0x02] IF !(ExtData[1]->WorkLocal[37] == 2*) GOTO 0x0B24
474: 0x0B17 [0x03] ExtData[1]->WorkLocal[34] = 1024*
475: 0x0B1C [0x07] ExtData[1]->WorkLocal[33] += 1000*
476: 0x0B21 [0x01] GOTO 0x0B9C
477: 0x0B24 [0x02] IF !(ExtData[1]->WorkLocal[37] == 3*) GOTO 0x0B3E
478: 0x0B2C [0x03] ExtData[1]->WorkLocal[34] = 1536*
479: 0x0B31 [0x07] ExtData[1]->WorkLocal[31] += 1000*
480: 0x0B36 [0x07] ExtData[1]->WorkLocal[33] += 1000*
481: 0x0B3B [0x01] GOTO 0x0B9C
482: 0x0B3E [0x02] IF !(ExtData[1]->WorkLocal[37] == 4*) GOTO 0x0B53
483: 0x0B46 [0x03] ExtData[1]->WorkLocal[34] = 2048*
484: 0x0B4B [0x07] ExtData[1]->WorkLocal[31] += 1000*
485: 0x0B50 [0x01] GOTO 0x0B9C
486: 0x0B53 [0x02] IF !(ExtData[1]->WorkLocal[37] == 5*) GOTO 0x0B6D
487: 0x0B5B [0x03] ExtData[1]->WorkLocal[34] = 2560*
488: 0x0B60 [0x07] ExtData[1]->WorkLocal[31] += 1000*
489: 0x0B65 [0x07] ExtData[1]->WorkLocal[33] += 4294966296*
490: 0x0B6A [0x01] GOTO 0x0B9C
491: 0x0B6D [0x02] IF !(ExtData[1]->WorkLocal[37] == 6*) GOTO 0x0B82
492: 0x0B75 [0x03] ExtData[1]->WorkLocal[34] = 3072*
493: 0x0B7A [0x07] ExtData[1]->WorkLocal[33] += 4294966296*
494: 0x0B7F [0x01] GOTO 0x0B9C
495: 0x0B82 [0x02] IF !(ExtData[1]->WorkLocal[37] == 7*) GOTO 0x0B9C
496: 0x0B8A [0x03] ExtData[1]->WorkLocal[34] = 3584*
497: 0x0B8F [0x07] ExtData[1]->WorkLocal[31] += 4294966296*
498: 0x0B94 [0x07] ExtData[1]->WorkLocal[33] += 4294966296*
499: 0x0B99 [0x01] GOTO 0x0B9C

SUBROUTINE_0B9C:
500: 0x0B9C [0x1B] RETURN
```

#### Data or dead code:

```
# Dead code (unreachable instructions):
     0x09A6 [0x3D] CLEAR_BIT_FLAG_CONDITIONAL(target_work_offset=ExtData[1]->WorkLocal[16], bit_index_work_offset=ExtData[1]->WorkLocal[21], condition_work_offset=1*)
     0x09AD [0x03] ExtData[1]->WorkLocal[36] = 30*
     0x09B2 [0x0B] ExtData[1]->WorkLocal[36]++
     0x09B5 [0x07] ExtData[1]->WorkLocal[36] += 608*
     0x09BA [0xD4] MAP_QUERY_WINDOW: Prepare buffer and copy to TalkpQW object (buffer=[15 00 24 80 24 00 01 E6...])
     0x09E6 [0x1B] RETURN
# Dead code (unreachable instructions):
     0x0B9D [0x03] 0x0410 = 0x0510
     0x0BA2 [0x10] Work_Zone[6] <<= Work_Zone[7]
     0x0BA7 [0x08] 0x0910 -= ExtData[1]->WorkLocal[16]
     0x0BAC [0x17] Work_Zone_1700[1] = cos(Work_Zone_1700[2]) * Work_Zone_1700[3]
     0x0BB3 [0x04] DEPRECATED_NOP(unused=0x0517)
     0x0BB6 [0x17] Work_Zone_1700[6] = cos(Work_Zone_1700[7]) * Work_Zone_1700[8]
     0x0BBD [0x09] 0x0A17 |= (1 << 0x0B17)
     0x0BC2 [0x17] Work_Zone_1700[12] = cos(Work_Zone_1700[13]) * Work_Zone_1700[14]
     0x0BC9 [0x0F] Work_Zone[23] ^= Work_Zone_Memorize[23]
     0x0BCE [0x17] Work_Zone_1700[18] = cos(Work_Zone_1700[19]) * Work_Zone_1700[20]
     0x0BD5 [0x15] 0x1617 /= Work_Zone_1700[23]
     0x0BDA [0x17] Work_Zone_1700[24] = cos(Work_Zone_1700[25]) * Work_Zone_1700[26]
     0x0BE1 [0x1B] RETURN
     0x0BE2 [0x17] Work_Zone_1700[28] = cos(Work_Zone_1700[29]) * Work_Zone_1700[30]
     0x0BE9 [0x1F] MOVE_ENTITY: Update entity position (mode=23)
     0x0BEB [0x02] IF !(0x0A10 == 0x0A80) GOTO 0x800A
     0x0BF3 [0x0A] 0x0A80 &= ~(1 << 0x0A80)
     0x0BF8 [0x80] LOAD_WAIT(entity=Unknown NPC (ID: 2148171786/0x800A800A))
     0x0BFD [0x0C] 0x0C80--
     0x0C00 [0x80] LOAD_WAIT(entity=Unknown NPC (ID: 2148302860/0x800C800C))
     0x0C05 [0x0C] 0x0C80--
     0x0C08 [0x80] LOAD_WAIT(entity=Unknown NPC (ID: 2148302860/0x800C800C))
     0x0C0D [0x0C] 0x0C80--
     0x0C10 [0x80] LOAD_WAIT(entity=Unknown NPC (ID: 2148302860/0x800C800C))
     0x0C15 [0x0C] 0x0C80--
     0x0C18 [0x80] LOAD_WAIT(entity=Unknown NPC (ID: 2148499468/0x800F800C))
     0x0C1D [0x0F] 0x0F80 ^= 0x0F80
     0x0C22 [0x80] LOAD_WAIT(entity=Unknown NPC (ID: 2148499471/0x800F800F))
     0x0C27 [0x0F] 0x0F80 ^= 0x0F80
     0x0C2C [0x80] LOAD_WAIT(entity=Unknown NPC (ID: 2147581967/0x8001800F))
     0x0C31 [0x01] GOTO 0x0180
     0x0C34 [0x80] LOAD_WAIT(entity=Unknown NPC (ID: 2147581953/0x80018001))
     0x0C39 [0x01] GOTO 0x0180
     0x0C3C [0x80] LOAD_WAIT(entity=Unknown NPC (ID: 2147713024/0x80038000))
     0x0C41 [0x16] 0x1D80 = sin(0x0280) * 0x3580
     0x0C48 [0x80] LOAD_WAIT(entity=Unknown NPC (ID: 2148368395/0x800D800B))
     0x0C4D [0x00] END_REQSTACK()
     0x0C4E [0x80] LOAD_WAIT(entity=Unknown NPC (ID: 2148958211/0x80168003))
     0x0C53 [0x1D] PRINT_EVENT_MESSAGE(message_id=0x0280)
     0x0C56 [0x80] LOAD_WAIT(entity=Unknown NPC (ID: 2148237365/0x800B8035))
     0x0C5B [0x0D] 0x0580 &= 0x0480
     0x0C60 [0x80] LOAD_WAIT(entity=Unknown NPC (ID: 2151186468/0x80388024))
     0x0C65 [0x39] SET_ENTITY_DIRECTION(direction=0x3A80)
     0x0C68 [0x80] LOAD_WAIT(entity=Unknown NPC (ID: 2147516442/0x8000801A))
     0x0C6D [0x03] 0x1680 = 0x1D80
     0x0C72 [0x80] LOAD_WAIT(entity=Unknown NPC (ID: 2150989826/0x80358002))
     0x0C77 [0x0B] 0x0D80++
     0x0C7A [0x80] LOAD_WAIT(entity=Unknown NPC (ID: 2147778565/0x80048005))
     0x0C7F [0x01] GOTO 0x0180
     0x0C82 [0x80] LOAD_WAIT(entity=Unknown NPC (ID: 2147581953/0x80018001))
     0x0C87 [0x01] GOTO 0x0180
     0x0C8A [0x80] LOAD_WAIT(entity=Unknown NPC (ID: 2147581953/0x80018001))
     0x0C8F [0x01] GOTO 0x0180
     0x0C92 [0x80] LOAD_WAIT(entity=Unknown NPC (ID: 2147581953/0x80018001))
     0x0C97 [0x01] GOTO 0x0180
     0x0C9A [0x80] LOAD_WAIT(entity=Unknown NPC (ID: 2147581953/0x80018001))
     0x0C9F [0x01] GOTO 0x0180
     0x0CA2 [0x80] LOAD_WAIT(entity=Unknown NPC (ID: 2147581953/0x80018001))
     0x0CA7 [0x01] GOTO 0x0180
     0x0CAA [0x80] LOAD_WAIT(entity=Unknown NPC (ID: 2147581953/0x80018001))
     0x0CAF [0x01] GOTO 0x0180
     0x0CB2 [0x80] LOAD_WAIT(entity=Unknown NPC (ID: 2147581953/0x80018001))
     0x0CB7 [0x01] GOTO 0x0180
     0x0CBA [0x80] LOAD_WAIT(entity=Unknown NPC (ID: 2147581953/0x80018001))
     0x0CBF [0x01] GOTO 0x0180
     0x0CC2 [0x80] LOAD_WAIT(entity=Unknown NPC (ID: 2147581953/0x80018001))
     0x0CC7 [0x01] GOTO 0x0180
     0x0CCA [0x80] LOAD_WAIT(entity=Unknown NPC (ID: 2147581953/0x80018001))
     0x0CCF [0x01] GOTO 0x0180
     0x0CD2 [0x80] LOAD_WAIT(entity=Unknown NPC (ID: 2147581953/0x80018001))
     0x0CD7 [0x01] GOTO 0x0180
     0x0CDA [0x80] LOAD_WAIT(entity=Unknown NPC (ID: 2151383041/0x803B8001))
     0x0CDF [0x3C] SET_BIT_FLAG_CONDITIONAL(target_work_offset=0x3D80, bit_index_work_offset=0x3E80, condition_work_offset=0x3F80)
     0x0CE6 [0x80] LOAD_WAIT(entity=Unknown NPC (ID: 2151776320/0x80418040))
     0x0CEB [0x42] SET_CLI_EVENT_CANCEL_DATA()
     0x0CEC [0x80] LOAD_WAIT(entity=Unknown NPC (ID: 2151972931/0x80448043))
     0x0CF1 [0x45] LOAD_SCHEDULED_TASK: Load scheduler 0x4B804A80 with entities [Unknown NPC (ID: 1216366464/0x48804780), Unknown NPC (ID: 25184640/0x01804980)], work=[0x4680, 0x4C80]
     0x0D02 [0x80] LOAD_WAIT(entity=Unknown NPC (ID: 2152628301/0x804E804D))
     0x0D07 [0x4F] EventEntity->StatusEvent = 0x5080 // Custom event value
     0x0D0A [0x80] LOAD_WAIT(entity=Unknown NPC (ID: 2152890449/0x80528051))
     0x0D0F [0x53] WAIT_SCHEDULER_TASK: Wait for scheduler 0x59805880 with entities [Unknown NPC (ID: 1434473600/0x55805480), Unknown NPC (ID: 1468028544/0x57805680)]
     0x0D1C [0x80] LOAD_WAIT(entity=Unknown NPC (ID: 2147582042/0x8001805A))
     0x0D21 [0x01] GOTO 0x0180
     0x0D24 [0x80] LOAD_WAIT(entity=Unknown NPC (ID: 2147581953/0x80018001))
     0x0D29 [0x01] GOTO 0x0180
     0x0D2C [0x80] LOAD_WAIT(entity=Unknown NPC (ID: 2153545819/0x805C805B))
     0x0D31 [0x5D] SET_MUSIC_VOLUME(volume=0x5E80, fade_time=0x5F80)
     0x0D36 [0x80] LOAD_WAIT(entity=Unknown NPC (ID: 2153873504/0x80618060))
     0x0D3B [0x62] LOAD_EVENT_SCHEDULER: Load scheduler 0x69806880 with entities [Unknown NPC (ID: 1702913152/0x65806480), Unknown NPC (ID: 1736468096/0x67806680)], work=[0x6380, 0x6A80]
     0x0D4C [0x80] LOAD_WAIT(entity=Unknown NPC (ID: 2154594411/0x806C806B))
     0x0D51 [0x67] HIDE_HUD_ELEMENTS(param1=0x6580, param2=0x6D80)
     0x0D56 [0x80] LOAD_WAIT(entity=Unknown NPC (ID: 2154791022/0x806F806E))
     0x0D5B [0x70] WAIT_ENTITY_RENDER_FLAG: Wait while EventEntity->Render.Flags3 bit 2 is set (cancel turn if not)
     0x0D5C [0x80] LOAD_WAIT(entity=Unknown NPC (ID: 2154987633/0x80728071))
     0x0D61 [0x73] Unknown NPC (ID: 1988130176/0x76807580) casts magic 0x7480 on Unknown NPC (ID: 2021685120/0x78807780)
     0x0D6C [0x80] LOAD_WAIT(entity=Unknown NPC (ID: 2147582073/0x80018079))
     0x0D71 [0x01] GOTO 0x0180
     0x0D74 [0x80] LOAD_WAIT(entity=Unknown NPC (ID: 2147581953/0x80018001))
     0x0D79 [0x01] GOTO 0x0180
     0x0D7C [0x80] LOAD_WAIT(entity=Unknown NPC (ID: 2155577466/0x807B807A))
     0x0D81 [0x7C] Unknown NPC (ID: 2155774077/0x807E807D)->Render.Flags2 ^= 0x00
     0x0D87 [0x7F] WAIT_DIALOG_SELECT_ALT()
     0x0D88 [0x80] LOAD_WAIT(entity=Unknown NPC (ID: 2155905063/0x80808027))
     0x0D8D [0x81] SET_ENTITY_BLINKING(blink_flag=0x80, entity=Unknown NPC (ID: 2156101762/0x80838082))
     0x0D93 [0x84] ADJUST_RENDER_FLAGS3_BIT0()
     0x0D94 [0x80] LOAD_WAIT(entity=Unknown NPC (ID: 2156101762/0x80838082))
     0x0D99 [0x85] OPEN_MOOGLE_MENU()
     0x0D9A [0x80] LOAD_WAIT(entity=Unknown NPC (ID: 2156298370/0x80868082))
     0x0D9F [0x85] OPEN_MOOGLE_MENU()
     0x0DA0 [0x80] LOAD_WAIT(entity=Unknown NPC (ID: 2156429447/0x80888087))
     0x0DA5 [0x89] OPEN_MAP(map_id=0x00008280)
     0x0DA8 [0x80] LOAD_WAIT(entity=Unknown NPC (ID: 2156626058/0x808B808A))
     0x0DAD [0x8C] CRAFTING_HANDLER(mode=0x80) // Unknown mode 128
     0x0DAF [0x8D] OPEN_MAP_WITH_PROPERTIES(map_id=References[3712], properties=References[3968])
     0x0DB4 [0x80] LOAD_WAIT(entity=Unknown NPC (ID: 2157019280/0x80918090))
     0x0DB9 [0x92] Unknown NPC (ID: 2157215891/0x80948093)->Render.Flags3 ^= 0x80
     0x0DBF [0x01] GOTO 0x0180
     0x0DC2 [0x80] LOAD_WAIT(entity=Unknown NPC (ID: 2147581953/0x80018001))
     0x0DC7 [0x01] GOTO 0x0180
     0x0DCA [0x80] LOAD_WAIT(entity=Unknown NPC (ID: 2147581953/0x80018001))
     0x0DCF [0x01] GOTO 0x0180
     0x0DD2 [0x80] LOAD_WAIT(entity=Unknown NPC (ID: 2147581953/0x80018001))
     0x0DD7 [0x01] GOTO 0x0180
     0x0DDA [0x80] LOAD_WAIT(entity=Unknown NPC (ID: 2147581953/0x80018001))
     0x0DDF [0x01] GOTO 0x0180
     0x0DE2 [0x80] LOAD_WAIT(entity=Unknown NPC (ID: 2147581953/0x80018001))
     0x0DE7 [0x01] GOTO 0x0180
     0x0DEA [0x80] LOAD_WAIT(entity=Unknown NPC (ID: 2147581953/0x80018001))
     0x0DEF [0x01] GOTO 0x0180
     0x0DF2 [0x80] LOAD_WAIT(entity=Unknown NPC (ID: 2147581953/0x80018001))
     0x0DF7 [0x01] GOTO 0x0180
     0x0DFA [0x80] LOAD_WAIT(entity=Unknown NPC (ID: 2147581953/0x80018001))
     0x0DFF [0x01] GOTO 0x0180
     0x0E02 [0x80] LOAD_WAIT(entity=Unknown NPC (ID: 2147581953/0x80018001))
     0x0E07 [0x01] GOTO 0x0180
     0x0E0A [0x80] LOAD_WAIT(entity=Unknown NPC (ID: 2147581953/0x80018001))
     0x0E0F [0x01] GOTO 0x0180
     0x0E12 [0x80] LOAD_WAIT(entity=Unknown NPC (ID: 2147581953/0x80018001))
     0x0E17 [0x01] GOTO 0x0180
     0x0E1A [0x80] LOAD_WAIT(entity=Unknown NPC (ID: 2147581953/0x80018001))
     0x0E1F [0x35] LOAD_ZONE_NO_CLOSE(zone_id=0x3580)
     0x0E22 [0x80] LOAD_WAIT(entity=Unknown NPC (ID: 2147581955/0x80018003))
     0x0E27 [0x35] LOAD_ZONE_NO_CLOSE(zone_id=0x0180)
     0x0E2A [0x80] LOAD_WAIT(entity=Unknown NPC (ID: 2150989826/0x80358002))
     0x0E2F [0x0B] 0x1D80++
     0x0E32 [0x80] LOAD_WAIT(entity=Unknown NPC (ID: 2147581963/0x8001800B))
     0x0E37 [0x02] IF !(0x80 == 0x0380) GOTO 0x800B
     0x0E3F [0x16] 0x1D80 = sin(0x0180) * 0x1D80
     0x0E46 [0x80] LOAD_WAIT(entity=Unknown NPC (ID: 2150989826/0x80358002))
     0x0E4B [0x01] GOTO 0x0380
     0x0E4E [0x80] LOAD_WAIT(entity=Unknown NPC (ID: 2150989846/0x80358016))
     0x0E53 [0x03] 0x1D80 = 0x0280
     0x0E58 [0x80] LOAD_WAIT(entity=Unknown NPC (ID: 2147581955/0x80018003))
     0x0E5D [0x01] GOTO 0x0180
     0x0E60 [0x80] LOAD_WAIT(entity=Unknown NPC (ID: 2147581953/0x80018001))
     0x0E65 [0x01] GOTO 0x0180
     0x0E68 [0x80] LOAD_WAIT(entity=Unknown NPC (ID: 2147581953/0x80018001))
     0x0E6D [0x0C] 0x0C80--
     0x0E70 [0x80] LOAD_WAIT(entity=Unknown NPC (ID: 2148302860/0x800C800C))
     0x0E75 [0x0C] 0x0C80--
     0x0E78 [0x80] LOAD_WAIT(entity=Unknown NPC (ID: 2148302860/0x800C800C))
     0x0E7D [0x0C] 0x0C80--
     0x0E80 [0x80] LOAD_WAIT(entity=Unknown NPC (ID: 2148302860/0x800C800C))
     0x0E85 [0x0C] 0x0C80--
     0x0E88 [0x80] LOAD_WAIT(entity=Unknown NPC (ID: 2148499468/0x800F800C))
     0x0E8D [0x0F] 0x0F80 ^= 0x0F80
     0x0E92 [0x80] LOAD_WAIT(entity=Unknown NPC (ID: 2147581953/0x80018001))
     0x0E97 [0x01] GOTO 0x0180
     0x0E9A [0x80] LOAD_WAIT(entity=Unknown NPC (ID: 2147581953/0x80018001))
     0x0E9F [0x01] GOTO 0x0180
     0x0EA2 [0x80] LOAD_WAIT(entity=Unknown NPC (ID: 2147581953/0x80018001))
     0x0EA7 [0x01] GOTO 0x0180
     0x0EAA [0x80] LOAD_WAIT(entity=Unknown NPC (ID: 2147581953/0x80018001))
     0x0EAF [0x01] GOTO 0x0180
     0x0EB2 [0x80] LOAD_WAIT(entity=Unknown NPC (ID: 2147581953/0x80018001))
     0x0EB7 [0x01] GOTO 0x0180
     0x0EBA [0x80] LOAD_WAIT(entity=Unknown NPC (ID: 2147516417/0x80008001))
     0x0EBF [0x03] 0x1680 = 0x1D80
     0x0EC4 [0x80] LOAD_WAIT(entity=Unknown NPC (ID: 2150989826/0x80358002))
     0x0EC9 [0x0B] 0x0D80++
     0x0ECC [0x80] LOAD_WAIT(entity=Unknown NPC (ID: 2147778565/0x80048005))
     0x0ED1 [0x24] CREATE_DIALOG(message_id=0x3880, default_option=0x3980, option_flags=0x3A80)
     0x0ED8 [0x80] LOAD_WAIT(entity=Unknown NPC (ID: 2147516442/0x8000801A))
     0x0EDD [0x03] 0x1680 = 0x1D80
     0x0EE2 [0x80] LOAD_WAIT(entity=Unknown NPC (ID: 2147581953/0x80018001))
     0x0EE7 [0x01] GOTO 0x0180
     0x0EEA [0x80] LOAD_WAIT(entity=Unknown NPC (ID: 2147581953/0x80018001))
     0x0EEF [0x01] GOTO 0x0180
     0x0EF2 [0x80] LOAD_WAIT(entity=Unknown NPC (ID: 2147581953/0x80018001))
     0x0EF7 [0x01] GOTO 0x0180
     0x0EFA [0x80] LOAD_WAIT(entity=Unknown NPC (ID: 2147581953/0x80018001))
     0x0EFF [0x01] GOTO 0x0180
     0x0F02 [0x80] LOAD_WAIT(entity=Unknown NPC (ID: 2147581953/0x80018001))
     0x0F07 [0x01] GOTO 0x0180
     0x0F0A [0x80] LOAD_WAIT(entity=Unknown NPC (ID: 2147581953/0x80018001))
     0x0F0F [0x01] GOTO 0x0180
     0x0F12 [0x80] LOAD_WAIT(entity=Unknown NPC (ID: 2147581953/0x80018001))
     0x0F17 [0x01] GOTO 0x0180
     0x0F1A [0x80] LOAD_WAIT(entity=Unknown NPC (ID: 2147581953/0x80018001))
     0x0F1F [0x01] GOTO 0x0180
     0x0F22 [0x80] LOAD_WAIT(entity=Unknown NPC (ID: 2147581953/0x80018001))
     0x0F27 [0x01] GOTO 0x0180
     0x0F2A [0x80] LOAD_WAIT(entity=Unknown NPC (ID: 2147581953/0x80018001))
     0x0F2F [0x01] GOTO 0x0180
     0x0F32 [0x80] LOAD_WAIT(entity=Unknown NPC (ID: 2147581953/0x80018001))
     0x0F37 [0x01] GOTO 0x0180
     0x0F3A [0x80] LOAD_WAIT(entity=Unknown NPC (ID: 2147581953/0x80018001))
     0x0F3F [0x01] GOTO 0x0180
     0x0F42 [0x80] LOAD_WAIT(entity=Unknown NPC (ID: 2147581953/0x80018001))
     0x0F47 [0x01] GOTO 0x0180
     0x0F4A [0x80] LOAD_WAIT(entity=Unknown NPC (ID: 2147581953/0x80018001))
     0x0F4F [0x01] GOTO 0x0180
     0x0F52 [0x80] LOAD_WAIT(entity=Unknown NPC (ID: 2147581953/0x80018001))
     0x0F57 [0x01] GOTO 0x0180
     0x0F5A [0x80] LOAD_WAIT(entity=Unknown NPC (ID: 2153611265/0x805D8001))
     0x0F5F [0x95] SETUP_EVENT_NPC: Prepare NPC for event (Render.Flags3 = 0x9680)
     0x0F62 [0x80] LOAD_WAIT(entity=Unknown NPC (ID: 2157478039/0x80988097))
     0x0F67 [0x99] Wait for Unknown NPC (ID: 25205376/0x01809A80) animation to complete
     0x0F6C [0x80] LOAD_WAIT(entity=Unknown NPC (ID: 2157740187/0x809C809B))
     0x0F71 [0x9D] OPCODE_9D[0x80]: Unknown
     0x0F73 [0x9E] SET_RECT_EVENT_SEND_FLAG: Notify client of area movement
     0x0F75 [0x9F] LOAD_SCHEDULED_TASK_ALT: Load scheduler 0x0180A480 with entities [Unknown NPC (ID: 2726338944/0xA280A180), Unknown NPC (ID: 2743100544/0xA3806480)], work=[0xA080, 0x0180]
     0x0F86 [0x80] LOAD_WAIT(entity=Unknown NPC (ID: 2147581953/0x80018001))
     0x0F8B [0x01] GOTO 0x0180
     0x0F8E [0x80] LOAD_WAIT(entity=Unknown NPC (ID: 2147581953/0x80018001))
     0x0F93 [0x01] GOTO 0x0180
     0x0F96 [0x80] LOAD_WAIT(entity=Unknown NPC (ID: 2147581953/0x80018001))
     0x0F9B [0x01] GOTO 0x0180
     0x0F9E [0x80] LOAD_WAIT(entity=Unknown NPC (ID: 2147581953/0x80018001))
     0x0FA3 [0x01] GOTO 0x0180
     0x0FA6 [0x80] LOAD_WAIT(entity=Unknown NPC (ID: 2147581953/0x80018001))
     0x0FAB [0x01] GOTO 0xA580
     0x0FAE [0x80] LOAD_WAIT(entity=Unknown NPC (ID: 2158461094/0x80A780A6))
     0x0FB3 [0xA8] MAP_MARKER_CONTROL: Control markers (flag=0x80), zone=170000*, marker=287000*
     0x0FB9 [0xAB] ADJUST_ENTITY_FLAGS: Unknown sub_case 0x80
     0x0FBB [0xAC] ENTITY_STATUS_HANDLER: Invalid case 0x80 (bad parse?)
     0x0FBF [0xAE] MULTI_PURPOSE_ENTITY_HANDLER(case_type=0x80)
     0x0FC1 [0xA9] DISABLE_GAME_TIME_SET_SPECIFIC(time_offset=0xAF80)
     0x0FC4 [0x80] LOAD_WAIT(entity=Unknown NPC (ID: 2158395568/0x80A680B0))
     0x0FC9 [0xB1] GET_APP_FLAG(flag_type=0x80, dest_offset=0x80B2)
     0x0FCD [0xB3] RANKINGS_BOARD_HANDLER(case_type=0x80)
     0x0FCF [0xB4] UI_WINDOW_STRING_HANDLER(case=0x80 - Unknown case 0x80)
     0x0FD1 [0xB5] SET_EVENT_ENTITY_NAME: Change EventEntity name to 0*
     0x0FD5 [0x01] GOTO 0x0180
     0x0FD8 [0x80] LOAD_WAIT(entity=Unknown NPC (ID: 2147581953/0x80018001))
     0x0FDD [0x01] GOTO 0x0180
     0x0FE0 [0x80] LOAD_WAIT(entity=Unknown NPC (ID: 2147581953/0x80018001))
     0x0FE5 [0x01] GOTO 0x0180
     0x0FE8 [0x80] LOAD_WAIT(entity=Unknown NPC (ID: 2147581953/0x80018001))
     0x0FED [0x01] GOTO 0x0180
     0x0FF0 [0x80] LOAD_WAIT(entity=Unknown NPC (ID: 2147581953/0x80018001))
     0x0FF5 [0x01] GOTO 0x0180
     0x0FF8 [0x80] LOAD_WAIT(entity=Unknown NPC (ID: 2147581953/0x80018001))
     0x0FFD [0x81] SET_ENTITY_BLINKING(blink_flag=0x80, entity=Unknown NPC (ID: 2159509686/0x80B780B6))
     0x1003 [0xB8] MAP_ADD_MARKER_WITH_NAME(zone=0xB680, submap=0xB780, marker_id=0xB080, x_pos=0xB680, y_pos=0xB980, marker_name=0x80ba80b680b980b880b6808a80bb8092)
     0x101E [0x80] LOAD_WAIT(entity=Unknown NPC (ID: 2159837331/0x80BC8093))
     0x1023 [0x01] GOTO 0x0180
     0x1026 [0x80] LOAD_WAIT(entity=Unknown NPC (ID: 2147581953/0x80018001))
     0x102B [0x01] GOTO 0x0180
     0x102E [0x80] LOAD_WAIT(entity=Unknown NPC (ID: 2147581953/0x80018001))
     0x1033 [0x01] GOTO 0x0180
     0x1036 [0x80] LOAD_WAIT(entity=Unknown NPC (ID: 2147581953/0x80018001))
     0x103B [0x01] GOTO 0x0180
     0x103E [0x80] LOAD_WAIT(entity=Unknown NPC (ID: 2147581953/0x80018001))
     0x1043 [0x01] GOTO 0x0180
     0x1046 [0x80] LOAD_WAIT(entity=Unknown NPC (ID: 2147581953/0x80018001))
     0x104B [0x01] GOTO 0x0180
     0x104E [0x80] LOAD_WAIT(entity=Unknown NPC (ID: 2147581953/0x80018001))
     0x1053 [0x01] GOTO 0x0180
     0x1056 [0x80] LOAD_WAIT(entity=Unknown NPC (ID: 2147581953/0x80018001))
     0x105B [0x01] GOTO 0x0180
     0x105E [0x80] LOAD_WAIT(entity=Unknown NPC (ID: 2147581953/0x80018001))
     0x1063 [0x01] GOTO 0x0180
     0x1066 [0x80] LOAD_WAIT(entity=Unknown NPC (ID: 2147581953/0x80018001))
     0x106B [0x01] GOTO 0x0180
     0x106E [0x80] LOAD_WAIT(entity=Unknown NPC (ID: 2147581953/0x80018001))
     0x1073 [0x01] GOTO 0x0180
     0x1076 [0x80] LOAD_WAIT(entity=Unknown NPC (ID: 2147581953/0x80018001))
     0x107B [0x01] GOTO 0x0180
     0x107E [0x80] LOAD_WAIT(entity=Unknown NPC (ID: 2147581953/0x80018001))
     0x1083 [0x01] GOTO 0x0180
     0x1086 [0x80] LOAD_WAIT(entity=Unknown NPC (ID: 2147581953/0x80018001))
     0x108B [0x01] GOTO 0x0180
     0x108E [0x80] LOAD_WAIT(entity=Unknown NPC (ID: 2147581953/0x80018001))
     0x1093 [0x01] GOTO 0x0180
     0x1096 [0x80] LOAD_WAIT(entity=Unknown NPC (ID: 2147581953/0x80018001))
     0x109B [0x01] GOTO 0x0380
     0x10A6 [0x00] END_REQSTACK()
     0x10A7 [0x0D] ExtData[1]->WorkLocal[39] &= 1431655765*
     0x10AC [0x11] ExtData[1]->WorkLocal[40] >>= 1*
     0x10B1 [0x40] SET_BIT_WORK_RANGE(start_bit=31*, end_bit=31*, target=ExtData[1]->WorkLocal[40], source=0*)
     0x10BA [0x0D] ExtData[1]->WorkLocal[40] &= 1431655765*
     0x10BF [0x07] ExtData[1]->WorkLocal[39] += ExtData[1]->WorkLocal[40]
     0x10C4 [0x03] ExtData[1]->WorkLocal[40] = ExtData[1]->WorkLocal[39]
     0x10C9 [0x0D] ExtData[1]->WorkLocal[39] &= 858993459*
     0x10CE [0x11] ExtData[1]->WorkLocal[40] >>= 2*
     0x10D3 [0x40] SET_BIT_WORK_RANGE(start_bit=30*, end_bit=31*, target=ExtData[1]->WorkLocal[40], source=0*)
     0x10DC [0x0D] ExtData[1]->WorkLocal[40] &= 858993459*
     0x10E1 [0x07] ExtData[1]->WorkLocal[39] += ExtData[1]->WorkLocal[40]
     0x10E6 [0x03] ExtData[1]->WorkLocal[40] = ExtData[1]->WorkLocal[39]
     0x10EB [0x0D] ExtData[1]->WorkLocal[39] &= 252645135*
     0x10F0 [0x11] ExtData[1]->WorkLocal[40] >>= 4*
     0x10F5 [0x40] SET_BIT_WORK_RANGE(start_bit=28*, end_bit=31*, target=ExtData[1]->WorkLocal[40], source=0*)
     0x10FE [0x0D] ExtData[1]->WorkLocal[40] &= 252645135*
     0x1103 [0x07] ExtData[1]->WorkLocal[39] += ExtData[1]->WorkLocal[40]
     0x1108 [0x03] ExtData[1]->WorkLocal[40] = ExtData[1]->WorkLocal[39]
     0x110D [0x0D] ExtData[1]->WorkLocal[39] &= 16711935*
     0x1112 [0x11] ExtData[1]->WorkLocal[40] >>= 8*
     0x1117 [0x40] SET_BIT_WORK_RANGE(start_bit=24*, end_bit=31*, target=ExtData[1]->WorkLocal[40], source=0*)
     0x1120 [0x0D] ExtData[1]->WorkLocal[40] &= 16711935*
     0x1125 [0x07] ExtData[1]->WorkLocal[39] += ExtData[1]->WorkLocal[40]
     0x112A [0x03] ExtData[1]->WorkLocal[40] = ExtData[1]->WorkLocal[39]
     0x112F [0x0D] ExtData[1]->WorkLocal[39] &= 65535*
     0x1134 [0x11] ExtData[1]->WorkLocal[40] >>= 16*
     0x1139 [0x40] SET_BIT_WORK_RANGE(start_bit=16*, end_bit=31*, target=ExtData[1]->WorkLocal[40], source=0*)
     0x1142 [0x0D] ExtData[1]->WorkLocal[40] &= 65535*
     0x1147 [0x07] ExtData[1]->WorkLocal[39] += ExtData[1]->WorkLocal[40]
     0x114C [0x03] ExtData[1]->WorkLocal[38] = ExtData[1]->WorkLocal[39]
     0x1151 [0x1B] RETURN
```

### Event 9101

#### Metadata

| Field        | Value    |
|--------------|----------|
| Entrypoint   | 0x1152   |
| Data Size    | 83 bytes |
| Instructions | 19       |

```
      00 01 02 03 04 05 06 07  08 09 0A 0B 0C 0D 0E 0F
      -- -- -- -- -- -- -- --  -- -- -- -- -- -- -- --
1150:       24 1C 80 00 80 01  80 25 02 00 10 01 80 00    $......%......
1160: 93 11 42 03 01 10 01 80  43 00 43 01 1A 5F 0A BA  ..B.....C.C.._..
1170: F0 FF FF 7F C4 80 C5 80  93 80 C6 80 47 00 C4 80  ............G...
1180: C5 80 93 80 C6 80 47 01  1A 88 0A 03 01 10 01 80  ......G.........
1190: 01 A3 11 02 00 10 00 80  00 A3 11 03 01 10 00 80  ................
11A0: 01 A3 11 21 00                                    ...!.           
```

#### Opcodes

```
  0: 0x1152 [0x24] CREATE_DIALOG(message_id=7570*, default_option=1*, option_flags=0*)
    → "Traverse the light? [Let's do this./No, wait!]"
  1: 0x1159 [0x25] WAIT_DIALOG_SELECT()
  2: 0x115A [0x02] IF !(Work_Zone[0] == 0*) GOTO 0x1193
  3: 0x1162 [0x42] SET_CLI_EVENT_CANCEL_DATA()
  4: 0x1163 [0x03] Work_Zone[1] = 0*
  5: 0x1168 [0x43] SEND_EVENT_UPDATE: Send pending tag to server (packet 0x005B)
  6: 0x116A [0x43] SEND_EVENT_UPDATE: Check pending flag (skip if not pending)
  7: 0x116C [0x1A] CALL_SUBROUTINE(address=0x0A5F)
  8: 0x116F [0xBA] SET_ENTITY_POSITION(entity_id=LocalPlayer, pos_x=-581.000*, pos_z=-1071.850*, pos_y=-417.400*, direction=248.7°*)
  9: 0x117C [0x47] UPDATE_PLAYER_POS(-581.000*, -1071.850*, -417.400*, yaw=248.7°*)
 10: 0x1186 [0x47] WAIT_PLAYER_POS_UPDATE
 11: 0x1188 [0x1A] CALL_SUBROUTINE(address=0x0A88)
 12: 0x118B [0x03] Work_Zone[1] = 0*
 13: 0x1190 [0x01] GOTO 0x11A3
 14: 0x1193 [0x02] IF !(Work_Zone[0] == 1*) GOTO 0x11A3
 15: 0x119B [0x03] Work_Zone[1] = 1*
 16: 0x11A0 [0x01] GOTO 0x11A3

SUBROUTINE_11A3:
 17: 0x11A3 [0x21] END_EVENT
 18: 0x11A4 [0x00] END_REQSTACK()
```

### Event 9251

#### Metadata

| Field        | Value    |
|--------------|----------|
| Entrypoint   | 0x11A5   |
| Data Size    | 36 bytes |
| Instructions | 12       |

```
      00 01 02 03 04 05 06 07  08 09 0A 0B 0C 0D 0E 0F
      -- -- -- -- -- -- -- --  -- -- -- -- -- -- -- --
11A0:                1A 50 13  1A 6A 13 20 01 1C 28 80       .P..j. ..(.
11B0: 06 0F 00 06 0E 00 06 0D  00 02 0F 00 01 80 00 C7  ................
11C0: 11 1A 30 14 01 B9 11 21  00                       ..0....!.       
```

#### Opcodes

```
  0: 0x11A5 [0x1A] CALL_SUBROUTINE(address=0x1350)
  1: 0x11A8 [0x1A] CALL_SUBROUTINE(address=0x136A)
  2: 0x11AB [0x20] SET_CLI_EVENT_UC_FLAG: Lock player control
  3: 0x11AD [0x1C] WAIT(60* ticks)
  4: 0x11B0 [0x06] ExtData[1]->WorkLocal[15] = 0
  5: 0x11B3 [0x06] ExtData[1]->WorkLocal[14] = 0
  6: 0x11B6 [0x06] ExtData[1]->WorkLocal[13] = 0
  7: 0x11B9 [0x02] IF !(ExtData[1]->WorkLocal[15] == 0*) GOTO 0x11C7
  8: 0x11C1 [0x1A] CALL_SUBROUTINE(address=0x1430)
  9: 0x11C4 [0x01] GOTO 0x11B9
 10: 0x11C7 [0x21] END_EVENT
 11: 0x11C8 [0x00] END_REQSTACK()
```

### Event 9250

#### Metadata

| Field        | Value    |
|--------------|----------|
| Entrypoint   | 0x11C9   |
| Data Size    | 36 bytes |
| Instructions | 12       |

```
      00 01 02 03 04 05 06 07  08 09 0A 0B 0C 0D 0E 0F
      -- -- -- -- -- -- -- --  -- -- -- -- -- -- -- --
11C0:                             1A 50 13 1A 6A 13 20           .P..j. 
11D0: 01 1C 28 80 06 0F 00 06  0E 00 06 0D 00 02 0F 00  ..(.............
11E0: 01 80 00 EB 11 1A 8F 13  01 DD 11 21 00           ...........!.   
```

#### Opcodes

```
  0: 0x11C9 [0x1A] CALL_SUBROUTINE(address=0x1350)
  1: 0x11CC [0x1A] CALL_SUBROUTINE(address=0x136A)
  2: 0x11CF [0x20] SET_CLI_EVENT_UC_FLAG: Lock player control
  3: 0x11D1 [0x1C] WAIT(60* ticks)
  4: 0x11D4 [0x06] ExtData[1]->WorkLocal[15] = 0
  5: 0x11D7 [0x06] ExtData[1]->WorkLocal[14] = 0
  6: 0x11DA [0x06] ExtData[1]->WorkLocal[13] = 0
  7: 0x11DD [0x02] IF !(ExtData[1]->WorkLocal[15] == 0*) GOTO 0x11EB
  8: 0x11E5 [0x1A] CALL_SUBROUTINE(address=0x138F)
  9: 0x11E8 [0x01] GOTO 0x11DD
 10: 0x11EB [0x21] END_EVENT
 11: 0x11EC [0x00] END_REQSTACK()
```

### Event 9252

#### Metadata

| Field        | Value      |
|--------------|------------|
| Entrypoint   | 0x11ED     |
| Data Size    | 1168 bytes |
| Instructions | 157        |

```
      00 01 02 03 04 05 06 07  08 09 0A 0B 0C 0D 0E 0F
      -- -- -- -- -- -- -- --  -- -- -- -- -- -- -- --
11E0:                                         1A 50 13               .P.
11F0: 1A 6A 13 20 01 1C 28 80  06 0F 00 02 2C 00 01 80  .j. ..(.....,...
