# Event 2513

## Metadata

| Field           | Value    |
|-----------------|----------|
| Event Index     | 5/5      |
| Offset          | 0x00B6   |
| Data Size       | 44 bytes |
| Calculated Size | 44 bytes |
| Instructions    | 10       |

```
      00 01 02 03 04 05 06 07  08 09 0A 0B 0C 0D 0E 0F
      -- -- -- -- -- -- -- --  -- -- -- -- -- -- -- --
00B0:                   42 1E  F0 FF FF 7F 6F 70 66 00        B.....opf.
00C0: 80 F8 FF FF 7F F8 FF FF  7F 74 6C 62 30 1D 07 80  .........tlb0...
00D0: 23 66 00 80 F8 FF FF 7F  F8 FF FF 7F 74 6C 62 31  #f..........tlb1
00E0: 21 00                                             !.              
```

## Opcodes

```
  0: 0x00B6 [0x42] SET_CLI_EVENT_CANCEL_DATA()
  1: 0x00B7 [0x1E] EventEntity looks at LocalPlayer and starts talking
  2: 0x00BC [0x6F] WAIT_FRAME_DELAY: Yield until WaitTime reaches zero
  3: 0x00BD [0x70] WAIT_ENTITY_RENDER_FLAG: Wait while EventEntity->Render.Flags3 bit 2 is set (cancel turn if not)
  4: 0x00BE [0x66] LOAD_EXT_SCHEDULER_MAIN(work_offset=68*, entity1=EventEntity, entity2=EventEntity, action="tlb0")
  5: 0x00CD [0x1D] PRINT_EVENT_MESSAGE(message_id=7524*)
    → "First we were concerned about the chapuli, but the further in we go the more we learn about the dangerrrs of Ulbuka. Nothing a good claw to the face can't handle, though.\u007F1\u0000\u0007"
  6: 0x00D0 [0x23] WAIT_FOR_DIALOG_INTERACTION
  7: 0x00D1 [0x66] LOAD_EXT_SCHEDULER_MAIN(work_offset=68*, entity1=EventEntity, entity2=EventEntity, action="tlb1")
  8: 0x00E0 [0x21] END_EVENT
  9: 0x00E1 [0x00] END_REQSTACK()
```
