# 17821725 - Prishe

## Common Data

| Field            | Value                                |
|------------------|--------------------------------------|
| Zone             | Abyssea - Empyreal Paradox (ID: 255) |
| Block Size       | 676 bytes                            |
| Total Events     | 15                                   |
| References Count | 36                                   |

## List of Events

| Event ID                 | Entrypoint   |   Size |   Instructions |
|--------------------------|--------------|--------|----------------|
| [65535](#event-65535)    | 0x0000       |      1 |              1 |
| [202](#event-202)        | 0x0001       |      1 |              1 |
| [203](#event-203)        | 0x0002       |      1 |              1 |
| [204](#event-204)        | 0x0003       |      1 |              1 |
| [65535.1](#event-655351) | 0x0004       |     25 |              3 |
| [65535.2](#event-655352) | 0x001D       |     25 |              3 |
| [205](#event-205)        | 0x0036       |    181 |             33 |
| [206](#event-206)        | 0x00EB       |     72 |             19 |
| [207](#event-207)        | 0x0133       |     65 |             13 |
| [65535.3](#event-655353) | 0x0174       |     33 |              7 |
| [65535.4](#event-655354) | 0x0195       |      3 |              2 |
| [65535.5](#event-655355) | 0x0198       |      3 |              2 |
| [65535.6](#event-655356) | 0x019B       |     15 |              5 |
| [65535.7](#event-655357) | 0x01AA       |     15 |              5 |
| [65535.8](#event-655358) | 0x01B9       |     15 |              5 |

## DAT References (imed_data)

|   Index | Hex Value   |   Dec Value |
|---------|-------------|-------------|
|       0 | 0x0000      |           0 |
|       1 | 0x01DF      |         479 |
|       2 | 0x1FBC      |        8124 |
|       3 | 0x1FBD      |        8125 |
|       4 | 0x1FBE      |        8126 |
|       5 | 0x0078      |         120 |
|       6 | 0x001E      |          30 |
|       7 | 0x1FBF      |        8127 |
|       8 | 0x1FC0      |        8128 |
|       9 | 0x1FC1      |        8129 |
|      10 | 0x1FC2      |        8130 |
|      11 | 0x1FC3      |        8131 |
|      12 | 0x1FD4      |        8148 |
|      13 | 0x1FD5      |        8149 |
|      14 | 0x1FD6      |        8150 |
|      15 | 0x1FD7      |        8151 |
|      16 | 0x1FD8      |        8152 |
|      17 | 0x1FD9      |        8153 |
|      18 | 0x01E1      |         481 |
|      19 | 0x003C      |          60 |
|      20 | 0x1FED      |        8173 |
|      21 | 0x1FEE      |        8174 |
|      22 | 0x0010      |          16 |
|      23 | 0x83102     |      536834 |
|      24 | 0xFFF6F84E  |  4294375502 |
|      25 | 0xFFF85EE1  |  4294467297 |
|      26 | 0x000F      |          15 |
|      27 | 0x02B8      |         696 |
|      28 | 0x7F82A     |      522282 |
|      29 | 0x7C625     |      509477 |
|      30 | 0xFFF85EE0  |  4294467296 |
|      31 | 0x7F803     |      522243 |
|      32 | 0x7CE53     |      511571 |
|      33 | 0x0036      |          54 |
|      34 | 0x7F693     |      521875 |
|      35 | 0x7E243     |      516675 |

## Events

### Event 65535

#### Metadata

| Field        | Value   |
|--------------|---------|
| Entrypoint   | 0x0000  |
| Data Size    | 1 bytes |
| Instructions | 1       |

```
      00 01 02 03 04 05 06 07  08 09 0A 0B 0C 0D 0E 0F
      -- -- -- -- -- -- -- --  -- -- -- -- -- -- -- --
0000: 00                                                .               
```

#### Opcodes

```
  0: 0x0000 [0x00] END_REQSTACK()
```

### Event 202

#### Metadata

| Field        | Value   |
|--------------|---------|
| Entrypoint   | 0x0001  |
| Data Size    | 1 bytes |
| Instructions | 1       |

```
      00 01 02 03 04 05 06 07  08 09 0A 0B 0C 0D 0E 0F
      -- -- -- -- -- -- -- --  -- -- -- -- -- -- -- --
0000:    00                                              .              
```

#### Opcodes

```
  0: 0x0001 [0x00] END_REQSTACK()
```

### Event 203

#### Metadata

| Field        | Value   |
|--------------|---------|
| Entrypoint   | 0x0002  |
| Data Size    | 1 bytes |
| Instructions | 1       |

```
      00 01 02 03 04 05 06 07  08 09 0A 0B 0C 0D 0E 0F
      -- -- -- -- -- -- -- --  -- -- -- -- -- -- -- --
0000:       00                                            .             
```

#### Opcodes

```
  0: 0x0002 [0x00] END_REQSTACK()
```

### Event 204

#### Metadata

| Field        | Value   |
|--------------|---------|
| Entrypoint   | 0x0003  |
| Data Size    | 1 bytes |
| Instructions | 1       |

```
      00 01 02 03 04 05 06 07  08 09 0A 0B 0C 0D 0E 0F
      -- -- -- -- -- -- -- --  -- -- -- -- -- -- -- --
0000:          00                                          .            
```

#### Opcodes

```
  0: 0x0003 [0x00] END_REQSTACK()
```

### Event 65535.1

#### Metadata

| Field        | Value    |
|--------------|----------|
| Entrypoint   | 0x0004   |
| Data Size    | 25 bytes |
| Instructions | 3        |

```
      00 01 02 03 04 05 06 07  08 09 0A 0B 0C 0D 0E 0F
      -- -- -- -- -- -- -- --  -- -- -- -- -- -- -- --
0000:             B4 00 00 00  3F 3F 3F 00 00 00 00 00      ....???.....
0010: 00 00 00 00 00 00 00 00  B5 00 00 00 00           .............   
```

#### Opcodes

```
  0: 0x0004 [0xB4] UI_WINDOW_STRING_HANDLER(case=0x00 - Copy string from opcode, work_offset=ExtData[1]->WorkLocal[0], string="???")
  1: 0x0018 [0xB5] SET_EVENT_ENTITY_NAME: Change EventEntity name to ExtData[1]->WorkLocal[0]
  2: 0x001C [0x00] END_REQSTACK()
```

### Event 65535.2

#### Metadata

| Field        | Value    |
|--------------|----------|
| Entrypoint   | 0x001D   |
| Data Size    | 25 bytes |
| Instructions | 3        |

```
      00 01 02 03 04 05 06 07  08 09 0A 0B 0C 0D 0E 0F
      -- -- -- -- -- -- -- --  -- -- -- -- -- -- -- --
0010:                                         B4 00 00               ...
0020: 00 50 72 69 73 68 65 00  00 00 00 00 00 00 00 00  .Prishe.........
0030: 00 B5 00 00 00 00                                 ......          
```

#### Opcodes

```
  0: 0x001D [0xB4] UI_WINDOW_STRING_HANDLER(case=0x00 - Copy string from opcode, work_offset=ExtData[1]->WorkLocal[0], string="Prishe")
  1: 0x0031 [0xB5] SET_EVENT_ENTITY_NAME: Change EventEntity name to ExtData[1]->WorkLocal[0]
  2: 0x0035 [0x00] END_REQSTACK()
```

### Event 205

#### Metadata

| Field        | Value     |
|--------------|-----------|
| Entrypoint   | 0x0036    |
| Data Size    | 181 bytes |
| Instructions | 33        |

```
      00 01 02 03 04 05 06 07  08 09 0A 0B 0C 0D 0E 0F
      -- -- -- -- -- -- -- --  -- -- -- -- -- -- -- --
0030:                   1E F0  FF FF 7F 6F 76 F8 FF FF        .....ov...
0040: 7F 02 02 10 00 80 00 CA  00 5B 01 80 1D F0 0F 01  .........[......
0050: 1D F0 0F 01 73 74 64 30  2B 1D F0 0F 01 02 80 23  ....std0+......#
0060: 2B 1D F0 0F 01 03 80 23  2B 1D F0 0F 01 04 80 23  +......#+......#
0070: 5B 01 80 1D F0 0F 01 1D  F0 0F 01 73 74 68 63 03  [..........sthc.
0080: 02 10 05 80 27 10 1F F0  0F 01 01 1C 06 80 2B 1D  ....'.........+.
0090: F0 0F 01 07 80 23 2B 1D  F0 0F 01 08 80 23 2A 10  .....#+......#*.
00A0: 1F F0 0F 01 5B 01 80 1D  F0 0F 01 1D F0 0F 01 68  ....[..........h
00B0: 63 74 66 03 02 10 05 80  27 10 1F F0 0F 01 01 2B  ctf.....'......+
00C0: 1D F0 0F 01 09 80 23 01  E9 00 2B 1D F0 0F 01 0A  ......#...+.....
00D0: 80 23 5B 01 80 1D F0 0F  01 1D F0 0F 01 73 74 64  .#[..........std
00E0: 30 2B 1D F0 0F 01 0B 80  23 21 00                 0+......#!.     
```

#### Opcodes

```
  0: 0x0036 [0x1E] EventEntity looks at LocalPlayer and starts talking
  1: 0x003B [0x6F] WAIT_FRAME_DELAY: Yield until WaitTime reaches zero
  2: 0x003C [0x76] CHECK_ENTITY_RENDER_FLAGS: Wait until EventEntity Render.Flags0 and Render.Flags3 conditions are met
  3: 0x0041 [0x02] IF !(Work_Zone[2] == 0*) GOTO 0x00CA
  4: 0x0049 [0x5B] LOAD_EXT_SCHEDULER: Load scheduler "std0" with entities [Prishe (ID: 17821725/0x010FF01D), Prishe (ID: 17821725/0x010FF01D)], work=479*
  5: 0x0058 [0x2B] Prishe (ID: 17821725/0x010FF01D) [8124*]:
    → "Now, let me be dead serious for a moment, <Player>."
  6: 0x005F [0x23] WAIT_FOR_DIALOG_INTERACTION
  7: 0x0060 [0x2B] Prishe (ID: 17821725/0x010FF01D) [8125*]:
    → "You're bursting at the seams with power that people of Abyssea can only dream of, this is true."
  8: 0x0067 [0x23] WAIT_FOR_DIALOG_INTERACTION
  9: 0x0068 [0x2B] Prishe (ID: 17821725/0x010FF01D) [8126*]:
    → "However, the enemy that awaits beyond isn't the run-of-the-mill man-god you might be expecting."
 10: 0x006F [0x23] WAIT_FOR_DIALOG_INTERACTION
 11: 0x0070 [0x5B] LOAD_EXT_SCHEDULER: Load scheduler "sthc" with entities [Prishe (ID: 17821725/0x010FF01D), Prishe (ID: 17821725/0x010FF01D)], work=479*
 12: 0x007F [0x03] Work_Zone[2] = 120*
 13: 0x0084 [0x27] REQ_SET(priority=0x10, entity_id=??? (ID: 17821727/0x010FF01F), tag_num=0x01)
 14: 0x008B [0x1C] WAIT(30* ticks)
 15: 0x008E [0x2B] Prishe (ID: 17821725/0x010FF01D) [8127*]:
    → "In absorbing our friend Selh'teus into His being, the Twilight God has evolved and taken on a fearsome new form: terror and dread made flesh."
 16: 0x0095 [0x23] WAIT_FOR_DIALOG_INTERACTION
 17: 0x0096 [0x2B] Prishe (ID: 17821725/0x010FF01D) [8128*]:
    → "He looks more like a wyrm now, but one that's bigger, badder, and uglier than anything you've ever seen."
 18: 0x009D [0x23] WAIT_FOR_DIALOG_INTERACTION
 19: 0x009E [0x2A] GET_REQ_LEVEL(level=16, entity_id=??? (ID: 17821727/0x010FF01F))
 20: 0x00A4 [0x5B] LOAD_EXT_SCHEDULER: Load scheduler "hctf" with entities [Prishe (ID: 17821725/0x010FF01D), Prishe (ID: 17821725/0x010FF01D)], work=479*
 21: 0x00B3 [0x03] Work_Zone[2] = 120*
 22: 0x00B8 [0x27] REQ_SET(priority=0x10, entity_id=??? (ID: 17821727/0x010FF01F), tag_num=0x01)
 23: 0x00BF [0x2B] Prishe (ID: 17821725/0x010FF01D) [8129*]:
    → "But hey, don't let these little details unnerve you."
 24: 0x00C6 [0x23] WAIT_FOR_DIALOG_INTERACTION
 25: 0x00C7 [0x01] GOTO 0x00E9
 26: 0x00CA [0x2B] Prishe (ID: 17821725/0x010FF01D) [8130*]:
    → "When you square off against this souped-up Promathia, the foremost thing to keep in mind is to be yourself. That's right, <Player>. Be your bloodthirsty, ruthless self."
 27: 0x00D1 [0x23] WAIT_FOR_DIALOG_INTERACTION
 28: 0x00D2 [0x5B] LOAD_EXT_SCHEDULER: Load scheduler "std0" with entities [Prishe (ID: 17821725/0x010FF01D), Prishe (ID: 17821725/0x010FF01D)], work=479*
 29: 0x00E1 [0x2B] Prishe (ID: 17821725/0x010FF01D) [8131*]:
    → "Ready yourself as best you can, because if even the extra-dimensional version of you can't come out on top, then--the Goddess forbid--Abyssea truly is screwed."
 30: 0x00E8 [0x23] WAIT_FOR_DIALOG_INTERACTION

SUBROUTINE_00E9:
 31: 0x00E9 [0x21] END_EVENT
 32: 0x00EA [0x00] END_REQSTACK()
```

### Event 206

#### Metadata

| Field        | Value    |
|--------------|----------|
| Entrypoint   | 0x00EB   |
| Data Size    | 72 bytes |
| Instructions | 19       |

```
      00 01 02 03 04 05 06 07  08 09 0A 0B 0C 0D 0E 0F
      -- -- -- -- -- -- -- --  -- -- -- -- -- -- -- --
00E0:                                   1E F0 FF FF 7F             .....
00F0: 6F 76 F8 FF FF 7F 02 02  10 00 80 00 19 01 2B 1D  ov............+.
0100: F0 0F 01 0C 80 23 2B 1D  F0 0F 01 0D 80 23 2B 1D  .....#+......#+.
0110: F0 0F 01 0E 80 23 01 31  01 2B 1D F0 0F 01 0F 80  .....#.1.+......
0120: 23 2B 1D F0 0F 01 10 80  23 2B 1D F0 0F 01 11 80  #+......#+......
0130: 23 21 00                                          #!.             
```

#### Opcodes

```
  0: 0x00EB [0x1E] EventEntity looks at LocalPlayer and starts talking
  1: 0x00F0 [0x6F] WAIT_FRAME_DELAY: Yield until WaitTime reaches zero
  2: 0x00F1 [0x76] CHECK_ENTITY_RENDER_FLAGS: Wait until EventEntity Render.Flags0 and Render.Flags3 conditions are met
  3: 0x00F6 [0x02] IF !(Work_Zone[2] == 0*) GOTO 0x0119
  4: 0x00FE [0x2B] Prishe (ID: 17821725/0x010FF01D) [8148*]:
    → "Rough days are still ahead for Abyssea, and it pains me that I won't be around to help out."
  5: 0x0105 [0x23] WAIT_FOR_DIALOG_INTERACTION
  6: 0x0106 [0x2B] Prishe (ID: 17821725/0x010FF01D) [8149*]:
    → "But with you on the job, I know I've got nothing to worry about."
  7: 0x010D [0x23] WAIT_FOR_DIALOG_INTERACTION
  8: 0x010E [0x2B] Prishe (ID: 17821725/0x010FF01D) [8150*]:
    → "When you get back, I want you to deliver a message to the cardinal. Tell her that I'm alive, and in strapping shape as always."
  9: 0x0115 [0x23] WAIT_FOR_DIALOG_INTERACTION
 10: 0x0116 [0x01] GOTO 0x0131
 11: 0x0119 [0x2B] Prishe (ID: 17821725/0x010FF01D) [8151*]:
    → "Tell her also...that I'm sorry."
 12: 0x0120 [0x23] WAIT_FOR_DIALOG_INTERACTION
 13: 0x0121 [0x2B] Prishe (ID: 17821725/0x010FF01D) [8152*]:
    → "Folk would call me improper to send a god-slayer as my errand [boy/girl]. But as you can see, there's no one else around I can ask to do this favor."
 14: 0x0128 [0x23] WAIT_FOR_DIALOG_INTERACTION
 15: 0x0129 [0x2B] Prishe (ID: 17821725/0x010FF01D) [8153*]:
    → "We may be of different worlds, but ours is a friendship of dimension transcending! Go well, <Player>, and thank you. I hope it won't be long before we meet again."
 16: 0x0130 [0x23] WAIT_FOR_DIALOG_INTERACTION

SUBROUTINE_0131:
 17: 0x0131 [0x21] END_EVENT
 18: 0x0132 [0x00] END_REQSTACK()
```

### Event 207

#### Metadata

| Field        | Value    |
|--------------|----------|
| Entrypoint   | 0x0133   |
| Data Size    | 65 bytes |
| Instructions | 13       |

```
      00 01 02 03 04 05 06 07  08 09 0A 0B 0C 0D 0E 0F
      -- -- -- -- -- -- -- --  -- -- -- -- -- -- -- --
0130:          1E F0 FF FF 7F  6F 76 F8 FF FF 7F 5B 12     .....ov....[.
0140: 80 1D F0 0F 01 1D F0 0F  01 74 62 6F 30 1C 13 80  .........tbo0...
0150: 2B 1D F0 0F 01 14 80 23  2B 1D F0 0F 01 15 80 23  +......#+......#
0160: 5B 12 80 1D F0 0F 01 1D  F0 0F 01 74 62 6F 31 1C  [..........tbo1.
0170: 05 80 21 00                                       ..!.            
```

#### Opcodes

```
  0: 0x0133 [0x1E] EventEntity looks at LocalPlayer and starts talking
  1: 0x0138 [0x6F] WAIT_FRAME_DELAY: Yield until WaitTime reaches zero
  2: 0x0139 [0x76] CHECK_ENTITY_RENDER_FLAGS: Wait until EventEntity Render.Flags0 and Render.Flags3 conditions are met
  3: 0x013E [0x5B] LOAD_EXT_SCHEDULER: Load scheduler "tbo0" with entities [Prishe (ID: 17821725/0x010FF01D), Prishe (ID: 17821725/0x010FF01D)], work=481*
  4: 0x014D [0x1C] WAIT(60* ticks)
  5: 0x0150 [0x2B] Prishe (ID: 17821725/0x010FF01D) [8173*]:
    → "I've never had so much free time in my life. It's all I can do to find things to occupy myself. Perhaps I'll go for a stroll along the surface of the moon. Moonlighting--heheh, you get it?"
  6: 0x0157 [0x23] WAIT_FOR_DIALOG_INTERACTION
  7: 0x0158 [0x2B] Prishe (ID: 17821725/0x010FF01D) [8174*]:
    → "No? Damn it, I really am losing my edge..."
  8: 0x015F [0x23] WAIT_FOR_DIALOG_INTERACTION
  9: 0x0160 [0x5B] LOAD_EXT_SCHEDULER: Load scheduler "tbo1" with entities [Prishe (ID: 17821725/0x010FF01D), Prishe (ID: 17821725/0x010FF01D)], work=481*
 10: 0x016F [0x1C] WAIT(120* ticks)
 11: 0x0172 [0x21] END_EVENT
 12: 0x0173 [0x00] END_REQSTACK()
```

### Event 65535.3

#### Metadata

| Field        | Value    |
|--------------|----------|
| Entrypoint   | 0x0174   |
| Data Size    | 33 bytes |
| Instructions | 7        |

```
      00 01 02 03 04 05 06 07  08 09 0A 0B 0C 0D 0E 0F
      -- -- -- -- -- -- -- --  -- -- -- -- -- -- -- --
0170:             32 16 80 1F  00 17 80 18 80 19 80 1F      2...........
0180: 01 6F 1C 1A 80 5B 1B 80  1D F0 0F 01 1D F0 0F 01  .o...[..........
0190: 65 70 30 32 00                                    ep02.           
```

#### Opcodes

```
  0: 0x0174 [0x32] ExtData[1]->MainSpeed = 16* * 0.1
  1: 0x0177 [0x1F] MOVE_ENTITY: EventEntity moves to X=536.834*, Z=-591.794*, Y=-499.999*
  2: 0x017F [0x1F] MOVE_ENTITY: Update entity position (mode=1)
  3: 0x0181 [0x6F] WAIT_FRAME_DELAY: Yield until WaitTime reaches zero
  4: 0x0182 [0x1C] WAIT(15* ticks)
  5: 0x0185 [0x5B] LOAD_EXT_SCHEDULER: Load scheduler "ep02" with entities [Prishe (ID: 17821725/0x010FF01D), Prishe (ID: 17821725/0x010FF01D)], work=696*
  6: 0x0194 [0x00] END_REQSTACK()
```

### Event 65535.4

#### Metadata

| Field        | Value   |
|--------------|---------|
| Entrypoint   | 0x0195  |
| Data Size    | 3 bytes |
| Instructions | 2       |

```
      00 01 02 03 04 05 06 07  08 09 0A 0B 0C 0D 0E 0F
      -- -- -- -- -- -- -- --  -- -- -- -- -- -- -- --
0190:                AB 08 00                                ...        
```

#### Opcodes

```
  0: 0x0195 [0xAB] EventEntity->Render.Flags2 |= 0x02 // Set bit 1
  1: 0x0197 [0x00] END_REQSTACK()
```

### Event 65535.5

#### Metadata

| Field        | Value   |
|--------------|---------|
| Entrypoint   | 0x0198  |
| Data Size    | 3 bytes |
| Instructions | 2       |

```
      00 01 02 03 04 05 06 07  08 09 0A 0B 0C 0D 0E 0F
      -- -- -- -- -- -- -- --  -- -- -- -- -- -- -- --
0190:                          AB 07 00                         ...     
```

#### Opcodes

```
  0: 0x0198 [0xAB] EventEntity->Render.Flags2 |= 0x01 // Set bit 0
  1: 0x019A [0x00] END_REQSTACK()
```

### Event 65535.6

#### Metadata

| Field        | Value    |
|--------------|----------|
| Entrypoint   | 0x019B   |
| Data Size    | 15 bytes |
| Instructions | 5        |

```
      00 01 02 03 04 05 06 07  08 09 0A 0B 0C 0D 0E 0F
      -- -- -- -- -- -- -- --  -- -- -- -- -- -- -- --
0190:                                   32 16 80 1F 00             2....
01A0: 1C 80 1D 80 1E 80 1F 01  6F 00                    ........o.      
```

#### Opcodes

```
  0: 0x019B [0x32] ExtData[1]->MainSpeed = 16* * 0.1
  1: 0x019E [0x1F] MOVE_ENTITY: EventEntity moves to X=522.282*, Z=509.477*, Y=-500.000*
  2: 0x01A6 [0x1F] MOVE_ENTITY: Update entity position (mode=1)
  3: 0x01A8 [0x6F] WAIT_FRAME_DELAY: Yield until WaitTime reaches zero
  4: 0x01A9 [0x00] END_REQSTACK()
```

### Event 65535.7

#### Metadata

| Field        | Value    |
|--------------|----------|
| Entrypoint   | 0x01AA   |
| Data Size    | 15 bytes |
| Instructions | 5        |

```
      00 01 02 03 04 05 06 07  08 09 0A 0B 0C 0D 0E 0F
      -- -- -- -- -- -- -- --  -- -- -- -- -- -- -- --
01A0:                                32 16 80 1F 00 1F            2.....
01B0: 80 20 80 19 80 1F 01 6F  00                       . .....o.       
```

#### Opcodes

```
  0: 0x01AA [0x32] ExtData[1]->MainSpeed = 16* * 0.1
  1: 0x01AD [0x1F] MOVE_ENTITY: EventEntity moves to X=522.243*, Z=511.571*, Y=-499.999*
  2: 0x01B5 [0x1F] MOVE_ENTITY: Update entity position (mode=1)
  3: 0x01B7 [0x6F] WAIT_FRAME_DELAY: Yield until WaitTime reaches zero
  4: 0x01B8 [0x00] END_REQSTACK()
```

### Event 65535.8

#### Metadata

| Field        | Value    |
|--------------|----------|
| Entrypoint   | 0x01B9   |
| Data Size    | 15 bytes |
| Instructions | 5        |

```
      00 01 02 03 04 05 06 07  08 09 0A 0B 0C 0D 0E 0F
      -- -- -- -- -- -- -- --  -- -- -- -- -- -- -- --
01B0:                             32 21 80 1F 00 22 80           2!...".
01C0: 23 80 19 80 1F 01 6F 00                           #.....o.        
```

#### Opcodes

```
  0: 0x01B9 [0x32] ExtData[1]->MainSpeed = 54* * 0.1
  1: 0x01BC [0x1F] MOVE_ENTITY: EventEntity moves to X=521.875*, Z=516.675*, Y=-499.999*
  2: 0x01C4 [0x1F] MOVE_ENTITY: Update entity position (mode=1)
  3: 0x01C6 [0x6F] WAIT_FRAME_DELAY: Yield until WaitTime reaches zero
  4: 0x01C7 [0x00] END_REQSTACK()
```
