# 17821724

## Common Data

| Field            | Value                                |
|------------------|--------------------------------------|
| Zone             | Abyssea - Empyreal Paradox (ID: 255) |
| Block Size       | 8020 bytes                           |
| Total Events     | 5                                    |
| References Count | 171                                  |

## List of Events

| Event ID              | Entrypoint   |   Size |   Instructions |
|-----------------------|--------------|--------|----------------|
| [65535](#event-65535) | 0x0000       |      1 |              1 |
| [202](#event-202)     | 0x0001       |   2698 |            340 |
| [208](#event-208)     | 0x0A8B       |    642 |             80 |
| [203](#event-203)     | 0x0D0D       |   1508 |            199 |
| [204](#event-204)     | 0x12F1       |   2448 |            294 |

## DAT References (imed_data)

|   Index | Hex Value   |   Dec Value |
|---------|-------------|-------------|
|       0 | 0x0013      |          19 |
|       1 | 0x0001      |           1 |
|       2 | 0x83D5E     |      539998 |
|       3 | 0xFFF74A54  |  4294396500 |
|       4 | 0xFFF85EE1  |  4294467297 |
|       5 | 0x0400      |        1024 |
|       6 | 0x83D2E     |      539950 |
|       7 | 0xFFF72B69  |  4294388585 |
|       8 | 0x0C04      |        3076 |
|       9 | 0x0000      |           0 |
|      10 | 0x001E      |          30 |
|      11 | 0x0230      |         560 |
|      12 | 0x0050      |          80 |
|      13 | 0x0078      |         120 |
|      14 | 0x003C      |          60 |
|      15 | 0x02B6      |         694 |
|      16 | 0x0096      |         150 |
|      17 | 0x1FA2      |        8098 |
|      18 | 0x026C      |         620 |
|      19 | 0x1FA3      |        8099 |
|      20 | 0x1FA4      |        8100 |
|      21 | 0x1FA5      |        8101 |
|      22 | 0x0007      |           7 |
|      23 | 0x005A      |          90 |
|      24 | 0x1FA6      |        8102 |
|      25 | 0x00B4      |         180 |
|      26 | 0x83B2A     |      539434 |
|      27 | 0xFFF70470  |  4294378608 |
|      28 | 0x05BA      |        1466 |
|      29 | 0x832A5     |      537253 |
|      30 | 0xFFF6FE3A  |  4294377018 |
|      31 | 0x0E25      |        3621 |
|      32 | 0x01DF      |         479 |
|      33 | 0x1FF0      |        8176 |
|      34 | 0x007C      |         124 |
|      35 | 0x1FA7      |        8103 |
|      36 | 0x1FA8      |        8104 |
|      37 | 0x1FA9      |        8105 |
|      38 | 0x1FAA      |        8106 |
|      39 | 0x1FAB      |        8107 |
|      40 | 0x1FAC      |        8108 |
|      41 | 0x002D      |          45 |
|      42 | 0x0005      |           5 |
|      43 | 0x0006      |           6 |
|      44 | 0x1FAD      |        8109 |
|      45 | 0x02B8      |         696 |
|      46 | 0x1FAE      |        8110 |
|      47 | 0x1FAF      |        8111 |
|      48 | 0x00F0      |         240 |
|      49 | 0x0019      |          25 |
|      50 | 0x02B9      |         697 |
|      51 | 0x1FB0      |        8112 |
|      52 | 0x1FB1      |        8113 |
|      53 | 0x031B      |         795 |
|      54 | 0x0014      |          20 |
|      55 | 0x1FB2      |        8114 |
|      56 | 0x026F      |         623 |
|      57 | 0x1FB3      |        8115 |
|      58 | 0x83E46     |      540230 |
|      59 | 0xFFF6ED4D  |  4294372685 |
|      60 | 0x0B39      |        2873 |
|      61 | 0x83A8F     |      539279 |
|      62 | 0xFFF6F6A4  |  4294375076 |
|      63 | 0x0343      |         835 |
|      64 | 0x0273      |         627 |
|      65 | 0x1FB4      |        8116 |
|      66 | 0x1FB5      |        8117 |
|      67 | 0x1FB6      |        8118 |
|      68 | 0x1FB7      |        8119 |
|      69 | 0x0002      |           2 |
|      70 | 0x0003      |           3 |
|      71 | 0x0004      |           4 |
|      72 | 0x0008      |           8 |
|      73 | 0x1FB8      |        8120 |
|      74 | 0x1FB9      |        8121 |
|      75 | 0x1FBA      |        8122 |
|      76 | 0x1FBB      |        8123 |
|      77 | 0x00C6      |         198 |
|      78 | 0x1FBC      |        8124 |
|      79 | 0x1FBD      |        8125 |
|      80 | 0x1FBE      |        8126 |
|      81 | 0x1FBF      |        8127 |
|      82 | 0x1FC0      |        8128 |
|      83 | 0x1FC1      |        8129 |
|      84 | 0x1FC2      |        8130 |
|      85 | 0x1FC3      |        8131 |
|      86 | 0x00C8      |         200 |
|      87 | 0x83D3D     |      539965 |
|      88 | 0xFFF6F04D  |  4294373453 |
|      89 | 0x004B      |          75 |
|      90 | 0x0064      |         100 |
|      91 | 0x7EF41     |      520001 |
|      92 | 0x76202     |      483842 |
|      93 | 0xFFF85EE0  |  4294467296 |
|      94 | 0x0C00      |        3072 |
|      95 | 0x7EF61     |      520033 |
|      96 | 0x7F00F     |      520207 |
|      97 | 0x004C      |          76 |
|      98 | 0x0035      |          53 |
|      99 | 0x00D2      |         210 |
|     100 | 0x7EF6B     |      520043 |
|     101 | 0x7CF03     |      511747 |
|     102 | 0x0C01      |        3073 |
|     103 | 0x7FB6D     |      523117 |
|     104 | 0x7AFEF     |      503791 |
|     105 | 0x0030      |          48 |
|     106 | 0x0300      |         768 |
|     107 | 0x1FC4      |        8132 |
|     108 | 0x1FC5      |        8133 |
|     109 | 0x1FC6      |        8134 |
|     110 | 0x1FC7      |        8135 |
|     111 | 0x0800      |        2048 |
|     112 | 0x02B4      |         692 |
|     113 | 0x1FC8      |        8136 |
|     114 | 0x1FC9      |        8137 |
|     115 | 0x1FCA      |        8138 |
|     116 | 0x1FCB      |        8139 |
|     117 | 0x1FCC      |        8140 |
|     118 | 0x026D      |         621 |
|     119 | 0x1FCD      |        8141 |
|     120 | 0x1FCE      |        8142 |
|     121 | 0x01E1      |         481 |
|     122 | 0x1FCF      |        8143 |
|     123 | 0x1FD0      |        8144 |
|     124 | 0x01DB      |         475 |
|     125 | 0x1FD1      |        8145 |
|     126 | 0x1FD2      |        8146 |
|     127 | 0x1FD3      |        8147 |
|     128 | 0x1FD4      |        8148 |
|     129 | 0x1FD5      |        8149 |
|     130 | 0x1FD6      |        8150 |
|     131 | 0x1FD7      |        8151 |
|     132 | 0x1FD8      |        8152 |
|     133 | 0x1FD9      |        8153 |
|     134 | 0x836DA     |      538330 |
|     135 | 0xFFF6FC9F  |  4294376607 |
|     136 | 0x0731      |        1841 |
|     137 | 0x1FDA      |        8154 |
|     138 | 0x0081      |         129 |
|     139 | 0x1FDB      |        8155 |
|     140 | 0x1FDC      |        8156 |
|     141 | 0x0270      |         624 |
|     142 | 0x1FDD      |        8157 |
|     143 | 0x0015      |          21 |
|     144 | 0x1FDE      |        8158 |
|     145 | 0x1FDF      |        8159 |
|     146 | 0x01DE      |         478 |
|     147 | 0x1FE0      |        8160 |
|     148 | 0x7EBB8     |      519096 |
|     149 | 0x7BF30     |      507696 |
|     150 | 0x0C02      |        3074 |
|     151 | 0x7F2B8     |      520888 |
|     152 | 0x7C146     |      508230 |
|     153 | 0x1FE1      |        8161 |
|     154 | 0x012C      |         300 |
|     155 | 0x1FE2      |        8162 |
|     156 | 0x1FE3      |        8163 |
|     157 | 0x1FE4      |        8164 |
|     158 | 0x1FE5      |        8165 |
|     159 | 0x1FE6      |        8166 |
|     160 | 0x1FE7      |        8167 |
|     161 | 0x006C      |         108 |
|     162 | 0x1FE8      |        8168 |
|     163 | 0x1FE9      |        8169 |
|     164 | 0x01DD      |         477 |
|     165 | 0x05A3      |        1443 |
|     166 | 0x1FEA      |        8170 |
|     167 | 0x1FEB      |        8171 |
|     168 | 0x1FEC      |        8172 |
|     169 | 0x00C9      |         201 |
|     170 | 0x00D7      |         215 |

## String References

- **8100**: What will you say? [P-Prishe?/What's a girl like you...]
- **8111**: What do you say? [Snap out of it, Prishe!/Say nothing and continue on.]
- **8120**: What do you say? [You just leave it to me!/Smile in response.]
- **8122**: <Player> flashes [his/her] pearly whites at Prishe.
- **8166**: Promise to visit Prishe? [Of course!/Uh...]
- **8176**: @@

## Events

### Event 65535

#### Metadata

| Field        | Value   |
|--------------|---------|
| Entrypoint   | 0x0000  |
| Data Size    | 1 bytes |
| Instructions | 1       |

```
      00 01 02 03 04 05 06 07  08 09 0A 0B 0C 0D 0E 0F
      -- -- -- -- -- -- -- --  -- -- -- -- -- -- -- --
0000: 00                                                .               
```

#### Opcodes

```
  0: 0x0000 [0x00] END_REQSTACK()
```

### Event 202

#### Metadata

| Field        | Value      |
|--------------|------------|
| Entrypoint   | 0x0001     |
| Data Size    | 2698 bytes |
| Instructions | 340        |

```
      00 01 02 03 04 05 06 07  08 09 0A 0B 0C 0D 0E 0F
      -- -- -- -- -- -- -- --  -- -- -- -- -- -- -- --
0000:    42 1A 53 1A 46 01 38  00 80 4E 00 F0 FF FF 7F   B.S.F.8..N.....
0010: 03 01 10 01 80 43 00 43  01 03 00 00 09 10 92 01  .....C.C........
0020: F0 FF FF 7F 92 01 1D F0  0F 01 94 01 F0 FF FF 7F  ................
0030: 94 01 1D F0 0F 01 BA F0  FF FF 7F 02 80 03 80 04  ................
0040: 80 05 80 BA 1D F0 0F 01  06 80 07 80 04 80 08 80  ................
0050: 80 F0 FF FF 7F 80 1D F0  0F 01 6C F0 FF FF 7F 09  ..........l.....
0060: 80 01 80 29 10 F0 FF FF  7F 04 1C 0A 80 29 10 1D  ...).........)..
0070: F0 0F 01 04 45 0B 80 F0  FF FF 7F F0 FF FF 7F 33  ....E..........3
0080: 38 30 30 09 80 1A 32 1A  CD 0C 80 F0 FF FF 7F F0  800...2.........
0090: FF FF 7F 6D 61 69 6E 09  80 1C 0D 80 92 00 F0 FF  ...main.........
00A0: FF 7F 1C 0E 80 52 0B 80  F0 FF FF 7F F0 FF FF 7F  .....R..........
00B0: 33 38 30 30 45 0B 80 F0  FF FF 7F F0 FF FF 7F 33  3800E..........3
00C0: 38 30 31 09 80 27 10 1D  F0 0F 01 0A 5B 0F 80 1D  801..'......[...
00D0: F0 0F 01 1D F0 0F 01 6C  61 30 31 03 02 10 10 80  .......la01.....
00E0: 27 10 1F F0 0F 01 01 1C  0A 80 2B 1D F0 0F 01 11  '.........+.....
00F0: 80 29 10 F0 FF FF 7F 05  23 2A 10 1F F0 0F 01 5B  .)......#*.....[
0100: 12 80 1D F0 0F 01 1D F0  0F 01 66 6E 64 30 52 0B  ..........fnd0R.
0110: 80 F0 FF FF 7F F0 FF FF  7F 33 38 30 31 45 0B 80  .........3801E..
0120: F0 FF FF 7F F0 FF FF 7F  33 38 30 33 09 80 2B 1D  ........3803..+.
0130: F0 0F 01 13 80 1C 0D 80  23 24 14 80 09 80 00 00  ........#$......
0140: 25 02 00 10 09 80 00 4C  01 01 57 01 02 00 10 01  %......L..W.....
0150: 80 00 57 01 01 57 01 5B  12 80 1D F0 0F 01 1D F0  ..W..W.[........
0160: 0F 01 66 6E 73 70 29 10  1D F0 0F 01 05 2B 1D F0  ..fnsp)......+..
0170: 0F 01 15 80 CD 16 80 F8  FF FF 7F F8 FF FF 7F 73  ...............s
0180: 30 30 33 09 80 1C 0A 80  CD 16 80 F8 FF FF 7F F8  003.............
0190: FF FF 7F 73 74 30 33 09  80 1C 17 80 23 52 0B 80  ...st03.....#R..
01A0: F0 FF FF 7F F0 FF FF 7F  33 38 30 33 45 0B 80 F0  ........3803E...
01B0: FF FF 7F F0 FF FF 7F 33  38 30 34 09 80 5B 12 80  .......3804..[..
01C0: 1D F0 0F 01 1D F0 0F 01  66 6E 64 31 1C 0A 80 2B  ........fnd1...+
01D0: 1D F0 0F 01 18 80 1C 19  80 23 1A 53 1A 1C 0A 80  .........#.S....
01E0: 27 10 1D F0 0F 01 0B 6B  69 64 6C 30 1D F0 0F 01  '......kidl0....
01F0: BA F0 FF FF 7F 1A 80 1B  80 04 80 1C 80 BA 1D F0  ................
0200: 0F 01 1D 80 1E 80 04 80  1F 80 4A F0 FF FF 7F 1D  ..........J.....
0210: F0 0F 01 6F 76 F0 FF FF  7F 5B 20 80 1D F0 0F 01  ...ov....[ .....
0220: 1D F0 0F 01 74 68 63 30  29 10 F0 FF FF 7F 06 48  ....thc0)......H
0230: 21 80 23 5C 00 22 80 5C  01 22 80 9A 52 0B 80 F0  !.#\.".\."..R...
0240: FF FF 7F F0 FF FF 7F 33  38 30 34 45 0B 80 F0 FF  .......3804E....
0250: FF 7F F0 FF FF 7F 33 38  30 36 09 80 1A 32 1A 1C  ......3806...2..
0260: 0E 80 29 10 F0 FF FF 7F  07 1C 0E 80 7C 00 1D F0  ..).........|...
0270: 0F 01 2B 1D F0 0F 01 23  80 23 7C 01 1D F0 0F 01  ..+....#.#|.....
0280: 52 0B 80 F0 FF FF 7F F0  FF FF 7F 33 38 30 36 45  R..........3806E
0290: 0B 80 F0 FF FF 7F F0 FF  FF 7F 33 38 30 37 09 80  ..........3807..
02A0: 2B 1D F0 0F 01 24 80 23  5B 20 80 1D F0 0F 01 1D  +....$.#[ ......
02B0: F0 0F 01 68 63 74 66 2B  1D F0 0F 01 25 80 1C 19  ...hctf+....%...
02C0: 80 23 52 0B 80 F0 FF FF  7F F0 FF FF 7F 33 38 30  .#R..........380
02D0: 37 45 0B 80 F0 FF FF 7F  F0 FF FF 7F 33 38 30 38  7E..........3808
02E0: 09 80 5B 20 80 1D F0 0F  01 1D F0 0F 01 74 66 73  ..[ .........tfs
02F0: 74 03 02 10 19 80 27 10  1F F0 0F 01 01 1C 0E 80  t.....'.........
0300: 2B 1D F0 0F 01 26 80 23  2B 1D F0 0F 01 27 80 23  +....&.#+....'.#
0310: 2A 10 1F F0 0F 01 52 0B  80 F0 FF FF 7F F0 FF FF  *.....R.........
0320: 7F 33 38 30 38 45 0B 80  F0 FF FF 7F F0 FF FF 7F  .3808E..........
0330: 33 38 31 32 09 80 5B 20  80 1D F0 0F 01 1D F0 0F  3812..[ ........
0340: 01 73 74 64 31 1C 0A 80  2B 1D F0 0F 01 28 80 23  .std1...+....(.#
0350: 53 1D F0 0F 01 1D F0 0F  01 73 74 64 31 29 10 F0  S........std1)..
0360: FF FF 7F 02 27 10 1D F0  0F 01 09 1C 29 80 52 0B  ....'.......).R.
0370: 80 F0 FF FF 7F F0 FF FF  7F 33 38 31 32 02 02 10  .........3812...
0380: 2A 80 80 99 03 45 0B 80  F0 FF FF 7F F0 FF FF 7F  *....E..........
0390: 33 38 31 30 09 80 01 C6  03 02 02 10 2B 80 80 B5  3810........+...
03A0: 03 45 0B 80 F0 FF FF 7F  F0 FF FF 7F 33 38 31 30  .E..........3810
03B0: 09 80 01 C6 03 45 0B 80  F0 FF FF 7F F0 FF FF 7F  .....E..........
03C0: 33 38 30 39 09 80 1C 0E  80 2B 1D F0 0F 01 2C 80  3809.....+....,.
03D0: 1C 0D 80 23 2A 10 1D F0  0F 01 4A F0 FF FF 7F 1D  ...#*.....J.....
03E0: F0 0F 01 52 0B 80 F0 FF  FF 7F F0 FF FF 7F 33 38  ...R..........38
03F0: 30 39 52 0B 80 F0 FF FF  7F F0 FF FF 7F 33 38 31  09R..........381
0400: 30 45 0B 80 F0 FF FF 7F  F0 FF FF 7F 33 38 31 31  0E..........3811
0410: 09 80 5B 2D 80 1D F0 0F  01 1D F0 0F 01 65 70 30  ..[-.........ep0
0420: 33 1C 29 80 2B 1D F0 0F  01 2E 80 1C 0D 80 23 24  3.).+.........#$
0430: 2F 80 09 80 09 80 25 02  00 10 09 80 00 CA 04 5D  /.....%........]
0440: 09 80 30 80 6E F0 FF FF  7F 31 80 99 F0 FF FF 7F  ..0.n....1......
0450: 1C 17 80 5B 32 80 1D F0  0F 01 1D F0 0F 01 65 70  ...[2.........ep
0460: 30 34 1C 0A 80 52 0B 80  F0 FF FF 7F F0 FF FF 7F  04...R..........
0470: 33 38 31 31 45 0B 80 F0  FF FF 7F F0 FF FF 7F 33  3811E..........3
0480: 38 31 33 09 80 2B 1D F0  0F 01 33 80 1C 19 80 23  813..+....3....#
0490: 52 0B 80 F0 FF FF 7F F0  FF FF 7F 33 38 31 33 45  R..........3813E
04A0: 0B 80 F0 FF FF 7F F0 FF  FF 7F 33 38 31 34 09 80  ..........3814..
04B0: 2B 1D F0 0F 01 34 80 1C  0E 80 6E F0 FF FF 7F 2B  +....4....n....+
04C0: 80 99 F0 FF FF 7F 23 01  90 05 02 00 10 01 80 00  ......#.........
04D0: 90 05 5D 09 80 30 80 27  10 F0 FF FF 7F 0B 1C 17  ..]..0.'........
04E0: 80 52 0B 80 F0 FF FF 7F  F0 FF FF 7F 33 38 31 31  .R..........3811
04F0: 45 0B 80 F0 FF FF 7F F0  FF FF 7F 33 38 31 35 09  E..........3815.
0500: 80 1C 0D 80 5B 35 80 1D  F0 0F 01 1D F0 0F 01 70  ....[5.........p
0510: 61 72 34 1C 36 80 52 0B  80 F0 FF FF 7F F0 FF FF  ar4.6.R.........
0520: 7F 33 38 31 35 45 0B 80  F0 FF FF 7F F0 FF FF 7F  .3815E..........
0530: 33 38 31 36 09 80 2B 1D  F0 0F 01 37 80 1C 0D 80  3816..+....7....
0540: 23 52 0B 80 F0 FF FF 7F  F0 FF FF 7F 33 38 31 36  #R..........3816
0550: 45 0B 80 F0 FF FF 7F F0  FF FF 7F 33 38 31 37 09  E..........3817.
0560: 80 1C 0E 80 6E F0 FF FF  7F 16 80 99 F0 FF FF 7F  ....n...........
0570: 1C 0E 80 5B 38 80 1D F0  0F 01 1D F0 0F 01 63 68  ...[8.........ch
0580: 32 30 1C 0E 80 2B 1D F0  0F 01 39 80 23 01 90 05  20...+....9.#...
0590: 1A 53 1A 1C 0E 80 6B 69  64 6C 30 1D F0 0F 01 BA  .S....kidl0.....
05A0: F0 FF FF 7F 3A 80 3B 80  04 80 3C 80 BA 1D F0 0F  ....:.;...<.....
05B0: 01 3D 80 3E 80 04 80 3F  80 4A F0 FF FF 7F 1D F0  .=.>...?.J......
05C0: 0F 01 6F 76 F0 FF FF 7F  48 21 80 23 5B 40 80 1D  ..ov....H!.#[@..
05D0: F0 0F 01 1D F0 0F 01 68  65 6E 30 52 0B 80 F0 FF  .......hen0R....
05E0: FF 7F F0 FF FF 7F 33 38  31 34 52 0B 80 F0 FF FF  ......3814R.....
05F0: 7F F0 FF FF 7F 33 38 31  37 45 0B 80 F0 FF FF 7F  .....3817E......
0600: F0 FF FF 7F 33 38 31 38  09 80 1A 32 1A 2B 1D F0  ....3818...2.+..
0610: 0F 01 41 80 23 5B 40 80  1D F0 0F 01 1D F0 0F 01  ..A.#[@.........
0620: 68 65 6E 31 1C 0E 80 2B  1D F0 0F 01 42 80 23 52  hen1...+....B.#R
0630: 0B 80 F0 FF FF 7F F0 FF  FF 7F 33 38 31 38 45 0B  ..........3818E.
0640: 80 F0 FF FF 7F F0 FF FF  7F 33 38 31 39 09 80 2B  .........3819..+
0650: 1D F0 0F 01 43 80 23 2B  1D F0 0F 01 44 80 23 29  ....C.#+....D.#)
0660: 10 F0 FF FF 7F 02 52 0B  80 F0 FF FF 7F F0 FF FF  ......R.........
0670: 7F 33 38 31 39 02 02 10  01 80 80 91 06 45 0B 80  .3819........E..
0680: F0 FF FF 7F F0 FF FF 7F  33 38 68 6D 09 80 01 55  ........38hm...U
0690: 07 02 02 10 45 80 80 AD  06 45 0B 80 F0 FF FF 7F  ....E....E......
06A0: F0 FF FF 7F 33 38 68 66  09 80 01 55 07 02 02 10  ....38hf...U....
06B0: 46 80 80 C9 06 45 0B 80  F0 FF FF 7F F0 FF FF 7F  F....E..........
06C0: 33 38 65 6D 09 80 01 55  07 02 02 10 47 80 80 E5  38em...U....G...
06D0: 06 45 0B 80 F0 FF FF 7F  F0 FF FF 7F 33 38 65 66  .E..........38ef
06E0: 09 80 01 55 07 02 02 10  2A 80 80 01 07 45 0B 80  ...U....*....E..
06F0: F0 FF FF 7F F0 FF FF 7F  33 38 74 72 09 80 01 55  ........38tr...U
0700: 07 02 02 10 2B 80 80 1D  07 45 0B 80 F0 FF FF 7F  ....+....E......
0710: F0 FF FF 7F 33 38 74 72  09 80 01 55 07 02 02 10  ....38tr...U....
0720: 16 80 80 39 07 45 0B 80  F0 FF FF 7F F0 FF FF 7F  ...9.E..........
0730: 33 38 6D 74 09 80 01 55  07 02 02 10 48 80 80 55  38mt...U....H..U
0740: 07 45 0B 80 F0 FF FF 7F  F0 FF FF 7F 33 38 67 6C  .E..........38gl
0750: 09 80 01 55 07 24 49 80  09 80 09 80 25 02 00 10  ...U.$I.....%...
0760: 09 80 00 17 08 6E F0 FF  FF 7F 16 80 99 F0 FF FF  .....n..........
0770: 7F 1C 0D 80 52 0B 80 F0  FF FF 7F F0 FF FF 7F 33  ....R..........3
0780: 38 68 6D 52 0B 80 F0 FF  FF 7F F0 FF FF 7F 33 38  8hmR..........38
0790: 68 66 52 0B 80 F0 FF FF  7F F0 FF FF 7F 33 38 65  hfR..........38e
07A0: 6D 52 0B 80 F0 FF FF 7F  F0 FF FF 7F 33 38 65 66  mR..........38ef
07B0: 52 0B 80 F0 FF FF 7F F0  FF FF 7F 33 38 74 72 52  R..........38trR
07C0: 0B 80 F0 FF FF 7F F0 FF  FF 7F 33 38 6D 74 52 0B  ..........38mtR.
07D0: 80 F0 FF FF 7F F0 FF FF  7F 33 38 67 6C 45 0B 80  .........38glE..
07E0: F0 FF FF 7F F0 FF FF 7F  33 38 32 30 09 80 5B 40  ........3820..[@
07F0: 80 1D F0 0F 01 1D F0 0F  01 68 65 6E 30 03 02 10  .........hen0...
0800: 10 80 27 10 1F F0 0F 01  01 1C 29 80 2B 1D F0 0F  ..'.......).+...
0810: 01 4A 80 23 01 C8 08 02  00 10 01 80 00 C8 08 48  .J.#...........H
0820: 4B 80 1C 0D 80 52 0B 80  F0 FF FF 7F F0 FF FF 7F  K....R..........
0830: 33 38 68 6D 52 0B 80 F0  FF FF 7F F0 FF FF 7F 33  38hmR..........3
0840: 38 68 66 52 0B 80 F0 FF  FF 7F F0 FF FF 7F 33 38  8hfR..........38
0850: 65 6D 52 0B 80 F0 FF FF  7F F0 FF FF 7F 33 38 65  emR..........38e
0860: 66 52 0B 80 F0 FF FF 7F  F0 FF FF 7F 33 38 74 72  fR..........38tr
0870: 52 0B 80 F0 FF FF 7F F0  FF FF 7F 33 38 6D 74 52  R..........38mtR
0880: 0B 80 F0 FF FF 7F F0 FF  FF 7F 33 38 67 6C 45 0B  ..........38glE.
0890: 80 F0 FF FF 7F F0 FF FF  7F 33 38 32 30 09 80 5B  .........3820..[
08A0: 40 80 1D F0 0F 01 1D F0  0F 01 68 65 6E 30 03 02  @.........hen0..
08B0: 10 10 80 27 10 1F F0 0F  01 01 1C 29 80 2B 1D F0  ...'.......).+..
08C0: 0F 01 4C 80 23 01 C8 08  2A 10 1F F0 0F 01 5B 40  ..L.#...*.....[@
08D0: 80 1D F0 0F 01 1D F0 0F  01 68 65 6E 31 53 1D F0  .........hen1S..
08E0: 0F 01 1D F0 0F 01 68 65  6E 31 5C 00 4D 80 5C 01  ......hen1\.M.\.
08F0: 4D 80 9A 5B 20 80 1D F0  0F 01 1D F0 0F 01 73 74  M..[ .........st
0900: 64 30 52 0B 80 F0 FF FF  7F F0 FF FF 7F 33 38 32  d0R..........382
0910: 30 45 0B 80 F0 FF FF 7F  F0 FF FF 7F 33 38 32 31  0E..........3821
0920: 09 80 2B 1D F0 0F 01 4E  80 23 2B 1D F0 0F 01 4F  ..+....N.#+....O
0930: 80 23 52 0B 80 F0 FF FF  7F F0 FF FF 7F 33 38 32  .#R..........382
0940: 31 45 0B 80 F0 FF FF 7F  F0 FF FF 7F 33 38 32 32  1E..........3822
0950: 09 80 1C 0E 80 2B 1D F0  0F 01 50 80 1C 19 80 23  .....+....P....#
0960: 52 0B 80 F0 FF FF 7F F0  FF FF 7F 33 38 32 32 45  R..........3822E
0970: 0B 80 F0 FF FF 7F F0 FF  FF 7F 33 38 32 33 09 80  ..........3823..
0980: 5B 20 80 1D F0 0F 01 1D  F0 0F 01 73 74 68 63 03  [ .........sthc.
0990: 02 10 0D 80 27 10 1F F0  0F 01 01 1C 0A 80 2B 1D  ....'.........+.
09A0: F0 0F 01 51 80 23 2B 1D  F0 0F 01 52 80 23 2A 10  ...Q.#+....R.#*.
09B0: 1F F0 0F 01 52 0B 80 F0  FF FF 7F F0 FF FF 7F 33  ....R..........3
09C0: 38 32 33 45 0B 80 F0 FF  FF 7F F0 FF FF 7F 33 38  823E..........38
09D0: 32 34 09 80 5B 20 80 1D  F0 0F 01 1D F0 0F 01 68  24..[ .........h
09E0: 63 74 66 03 02 10 0D 80  27 10 1F F0 0F 01 01 1C  ctf.....'.......
09F0: 29 80 2B 1D F0 0F 01 53  80 23 2B 1D F0 0F 01 54  ).+....S.#+....T
0A00: 80 23 2A 10 1F F0 0F 01  5B 20 80 1D F0 0F 01 1D  .#*.....[ ......
0A10: F0 0F 01 74 66 73 74 1C  0E 80 52 0B 80 F0 FF FF  ...tfst...R.....
0A20: 7F F0 FF FF 7F 33 38 32  34 45 0B 80 F0 FF FF 7F  .....3824E......
0A30: F0 FF FF 7F 33 38 32 35  09 80 5D 09 80 0D 80 2B  ....3825..]....+
0A40: 1D F0 0F 01 55 80 23 1A  53 1A 1C 0A 80 52 0B 80  ....U.#.S....R..
0A50: F0 FF FF 7F F0 FF FF 7F  33 38 32 35 45 0B 80 F0  ........3825E...
0A60: FF FF 7F F0 FF FF 7F 30  62 6C 66 09 80 5C 00 09  .......0blf..\..
0A70: 80 5C 01 09 80 9A 46 00  45 56 80 F0 FF FF 7F F0  .\....F.EV......
0A80: FF FF 7F 66 64 69 32 09  80 21 00                 ...fdi2..!.     
```

#### Opcodes

```
  0: 0x0001 [0x42] SET_CLI_EVENT_CANCEL_DATA()
  1: 0x0002 [0x1A] CALL_SUBROUTINE(address=0x1A53)
  2: 0x0005 [0x46] CAMERA_CONTROL: Disable user control
  3: 0x0007 [0x38] SET_CLIENT_EVENT_MODE(mode=19*)
  4: 0x000A [0x4E] SET_ENTITY_HIDE_FLAG: Show LocalPlayer
  5: 0x0010 [0x03] Work_Zone[1] = 1*
  6: 0x0015 [0x43] SEND_EVENT_UPDATE: Send pending tag to server (packet 0x005B)
  7: 0x0017 [0x43] SEND_EVENT_UPDATE: Check pending flag (skip if not pending)
  8: 0x0019 [0x03] ExtData[1]->WorkLocal[0] = Work_Zone[9]
  9: 0x001E [0x92] LocalPlayer->Render.Flags3 ^= 0x01
 10: 0x0024 [0x92] Prishe (ID: 17821725/0x010FF01D)->Render.Flags3 ^= 0x01
 11: 0x002A [0x94] LocalPlayer->Render.Flags3 ^= 0x01
 12: 0x0030 [0x94] Prishe (ID: 17821725/0x010FF01D)->Render.Flags3 ^= 0x01
 13: 0x0036 [0xBA] SET_ENTITY_POSITION(entity_id=LocalPlayer, pos_x=539.998*, pos_z=-570.796*, pos_y=-499.999*, direction=90.0°*)
 14: 0x0043 [0xBA] SET_ENTITY_POSITION(entity_id=Prishe (ID: 17821725/0x010FF01D), pos_x=539.950*, pos_z=-578.711*, pos_y=-499.999*, direction=270.3°*)
 15: 0x0050 [0x80] LOAD_WAIT(entity=LocalPlayer)
 16: 0x0055 [0x80] LOAD_WAIT(entity=Prishe (ID: 17821725/0x010FF01D))
 17: 0x005A [0x6C] FADE_ENTITY_COLOR(entity_id=LocalPlayer, end_alpha=0*, fade_time=1*)
 18: 0x0063 [0x29] REQ_SET_WAIT(priority=0x10, entity_id=LocalPlayer, tag_num=0x04)
 19: 0x006A [0x1C] WAIT(30* ticks)
 20: 0x006D [0x29] REQ_SET_WAIT(priority=0x10, entity_id=Prishe (ID: 17821725/0x010FF01D), tag_num=0x04)
 21: 0x0074 [0x45] LOAD_SCHEDULED_TASK: Load scheduler "3800" with entities [LocalPlayer, LocalPlayer], work=[560*, 0*]
 22: 0x0085 [0x1A] CALL_SUBROUTINE(address=0x1A32)
 23: 0x0088 [0xCD] LOAD_SCHEDULED_TASK_ALT4: Load scheduler "main" with entities [LocalPlayer, LocalPlayer], work=[80*, 0*]
 24: 0x0099 [0x1C] WAIT(120* ticks)
 25: 0x009C [0x92] LocalPlayer->Render.Flags3 = Flags3  // No change (flag=0)
 26: 0x00A2 [0x1C] WAIT(60* ticks)
 27: 0x00A5 [0x52] END_LOAD_SCHEDULER: End scheduler "3800" with entities [LocalPlayer, LocalPlayer], work=560*
 28: 0x00B4 [0x45] LOAD_SCHEDULED_TASK: Load scheduler "3801" with entities [LocalPlayer, LocalPlayer], work=[560*, 0*]
 29: 0x00C5 [0x27] REQ_SET(priority=0x10, entity_id=Prishe (ID: 17821725/0x010FF01D), tag_num=0x0A)
 30: 0x00CC [0x5B] LOAD_EXT_SCHEDULER: Load scheduler "la01" with entities [Prishe (ID: 17821725/0x010FF01D), Prishe (ID: 17821725/0x010FF01D)], work=694*
 31: 0x00DB [0x03] Work_Zone[2] = 150*
 32: 0x00E0 [0x27] REQ_SET(priority=0x10, entity_id=??? (ID: 17821727/0x010FF01F), tag_num=0x01)
 33: 0x00E7 [0x1C] WAIT(30* ticks)
 34: 0x00EA [0x2B] Prishe (ID: 17821725/0x010FF01D) [8098*]:
    → "<Player>? Could it truly be you?"
 35: 0x00F1 [0x29] REQ_SET_WAIT(priority=0x10, entity_id=LocalPlayer, tag_num=0x05)
 36: 0x00F8 [0x23] WAIT_FOR_DIALOG_INTERACTION
 37: 0x00F9 [0x2A] GET_REQ_LEVEL(level=16, entity_id=??? (ID: 17821727/0x010FF01F))
 38: 0x00FF [0x5B] LOAD_EXT_SCHEDULER: Load scheduler "fnd0" with entities [Prishe (ID: 17821725/0x010FF01D), Prishe (ID: 17821725/0x010FF01D)], work=620*
 39: 0x010E [0x52] END_LOAD_SCHEDULER: End scheduler "3801" with entities [LocalPlayer, LocalPlayer], work=560*
 40: 0x011D [0x45] LOAD_SCHEDULED_TASK: Load scheduler "3803" with entities [LocalPlayer, LocalPlayer], work=[560*, 0*]
 41: 0x012E [0x2B] Prishe (ID: 17821725/0x010FF01D) [8099*]:
    → "But...how is it that you're still here!?"
 42: 0x0135 [0x1C] WAIT(120* ticks)
 43: 0x0138 [0x23] WAIT_FOR_DIALOG_INTERACTION
 44: 0x0139 [0x24] CREATE_DIALOG(message_id=8100*, default_option=0*, option_flags=ExtData[1]->WorkLocal[0])
    → "What will you say? [P-Prishe?/What's a girl like you...]"
 45: 0x0140 [0x25] WAIT_DIALOG_SELECT()
 46: 0x0141 [0x02] IF !(Work_Zone[0] == 0*) GOTO 0x014C
 47: 0x0149 [0x01] GOTO 0x0157
 48: 0x014C [0x02] IF !(Work_Zone[0] == 1*) GOTO 0x0157
 49: 0x0154 [0x01] GOTO 0x0157

SUBROUTINE_0157:
 50: 0x0157 [0x5B] LOAD_EXT_SCHEDULER: Load scheduler "fnsp" with entities [Prishe (ID: 17821725/0x010FF01D), Prishe (ID: 17821725/0x010FF01D)], work=620*
 51: 0x0166 [0x29] REQ_SET_WAIT(priority=0x10, entity_id=Prishe (ID: 17821725/0x010FF01D), tag_num=0x05)
 52: 0x016D [0x2B] Prishe (ID: 17821725/0x010FF01D) [8101*]:
    → "Huh? What the hell kind of reaction is that? Have you got a fever or something? Then again, with all you've been through, small wonder if you're not feeling yourself."
 53: 0x0174 [0xCD] LOAD_SCHEDULED_TASK_ALT4: Load scheduler "s003" with entities [EventEntity, EventEntity], work=[7*, 0*]
 54: 0x0185 [0x1C] WAIT(30* ticks)
 55: 0x0188 [0xCD] LOAD_SCHEDULED_TASK_ALT4: Load scheduler "st03" with entities [EventEntity, EventEntity], work=[7*, 0*]
 56: 0x0199 [0x1C] WAIT(90* ticks)
 57: 0x019C [0x23] WAIT_FOR_DIALOG_INTERACTION
 58: 0x019D [0x52] END_LOAD_SCHEDULER: End scheduler "3803" with entities [LocalPlayer, LocalPlayer], work=560*
 59: 0x01AC [0x45] LOAD_SCHEDULED_TASK: Load scheduler "3804" with entities [LocalPlayer, LocalPlayer], work=[560*, 0*]
 60: 0x01BD [0x5B] LOAD_EXT_SCHEDULER: Load scheduler "fnd1" with entities [Prishe (ID: 17821725/0x010FF01D), Prishe (ID: 17821725/0x010FF01D)], work=620*
 61: 0x01CC [0x1C] WAIT(30* ticks)
 62: 0x01CF [0x2B] Prishe (ID: 17821725/0x010FF01D) [8102*]:
    → "No, wait... Something isn't quite right here. Who are you?"
 63: 0x01D6 [0x1C] WAIT(180* ticks)
 64: 0x01D9 [0x23] WAIT_FOR_DIALOG_INTERACTION
 65: 0x01DA [0x1A] CALL_SUBROUTINE(address=0x1A53)
 66: 0x01DD [0x1C] WAIT(30* ticks)
 67: 0x01E0 [0x27] REQ_SET(priority=0x10, entity_id=Prishe (ID: 17821725/0x010FF01D), tag_num=0x0B)
 68: 0x01E7 [0x6B] STOP_AND_IDLE: Prishe (ID: 17821725/0x010FF01D) stops current action and resets to idle (animation="idl0")
 69: 0x01F0 [0xBA] SET_ENTITY_POSITION(entity_id=LocalPlayer, pos_x=539.434*, pos_z=-588.688*, pos_y=-499.999*, direction=128.8°*)
 70: 0x01FD [0xBA] SET_ENTITY_POSITION(entity_id=Prishe (ID: 17821725/0x010FF01D), pos_x=537.253*, pos_z=-590.278*, pos_y=-499.999*, direction=318.2°*)
 71: 0x020A [0x4A] LocalPlayer looks at Prishe (ID: 17821725/0x010FF01D)
 72: 0x0213 [0x6F] WAIT_FRAME_DELAY: Yield until WaitTime reaches zero
 73: 0x0214 [0x76] CHECK_ENTITY_RENDER_FLAGS: Wait until LocalPlayer Render.Flags0 and Render.Flags3 conditions are met
 74: 0x0219 [0x5B] LOAD_EXT_SCHEDULER: Load scheduler "thc0" with entities [Prishe (ID: 17821725/0x010FF01D), Prishe (ID: 17821725/0x010FF01D)], work=479*
 75: 0x0228 [0x29] REQ_SET_WAIT(priority=0x10, entity_id=LocalPlayer, tag_num=0x06)
 76: 0x022F [0x48] [System] [8176*]:
    → "@@"
 77: 0x0232 [0x23] WAIT_FOR_DIALOG_INTERACTION
 78: 0x0233 [0x5C] MUSIC_CONTROL: Set Idle (Day) music to song 124*
 79: 0x0237 [0x5C] MUSIC_CONTROL: Set Idle (Night) music to song 124*
 80: 0x023B [0x9A] WAIT_MUSIC_SERVER()
 81: 0x023C [0x52] END_LOAD_SCHEDULER: End scheduler "3804" with entities [LocalPlayer, LocalPlayer], work=560*
 82: 0x024B [0x45] LOAD_SCHEDULED_TASK: Load scheduler "3806" with entities [LocalPlayer, LocalPlayer], work=[560*, 0*]
 83: 0x025C [0x1A] CALL_SUBROUTINE(address=0x1A32)
 84: 0x025F [0x1C] WAIT(60* ticks)
 85: 0x0262 [0x29] REQ_SET_WAIT(priority=0x10, entity_id=LocalPlayer, tag_num=0x07)
 86: 0x0269 [0x1C] WAIT(60* ticks)
 87: 0x026C [0x7C] Prishe (ID: 17821725/0x010FF01D)->Render.Flags2 |= 0x00
 88: 0x0272 [0x2B] Prishe (ID: 17821725/0x010FF01D) [8103*]:
    → "..."
 89: 0x0279 [0x23] WAIT_FOR_DIALOG_INTERACTION
 90: 0x027A [0x7C] Prishe (ID: 17821725/0x010FF01D)->Render.Flags2 |= 0x01
 91: 0x0280 [0x52] END_LOAD_SCHEDULER: End scheduler "3806" with entities [LocalPlayer, LocalPlayer], work=560*
 92: 0x028F [0x45] LOAD_SCHEDULED_TASK: Load scheduler "3807" with entities [LocalPlayer, LocalPlayer], work=[560*, 0*]
 93: 0x02A0 [0x2B] Prishe (ID: 17821725/0x010FF01D) [8104*]:
    → "So all hell broke loose on Abyssea..."
 94: 0x02A7 [0x23] WAIT_FOR_DIALOG_INTERACTION
 95: 0x02A8 [0x5B] LOAD_EXT_SCHEDULER: Load scheduler "hctf" with entities [Prishe (ID: 17821725/0x010FF01D), Prishe (ID: 17821725/0x010FF01D)], work=479*
 96: 0x02B7 [0x2B] Prishe (ID: 17821725/0x010FF01D) [8105*]:
    → "And you're <Player>, only you've come from another dimension. That's not the craziest thing I've ever heard, but it sure as hell comes close."
 97: 0x02BE [0x1C] WAIT(180* ticks)
 98: 0x02C1 [0x23] WAIT_FOR_DIALOG_INTERACTION
 99: 0x02C2 [0x52] END_LOAD_SCHEDULER: End scheduler "3807" with entities [LocalPlayer, LocalPlayer], work=560*
100: 0x02D1 [0x45] LOAD_SCHEDULED_TASK: Load scheduler "3808" with entities [LocalPlayer, LocalPlayer], work=[560*, 0*]
101: 0x02E2 [0x5B] LOAD_EXT_SCHEDULER: Load scheduler "tfst" with entities [Prishe (ID: 17821725/0x010FF01D), Prishe (ID: 17821725/0x010FF01D)], work=479*
102: 0x02F1 [0x03] Work_Zone[2] = 180*
103: 0x02F6 [0x27] REQ_SET(priority=0x10, entity_id=??? (ID: 17821727/0x010FF01F), tag_num=0x01)
104: 0x02FD [0x1C] WAIT(60* ticks)
105: 0x0300 [0x2B] Prishe (ID: 17821725/0x010FF01D) [8106*]:
    → "There's something I need to say. The wretched state of the world--it's...it's all our fault."
106: 0x0307 [0x23] WAIT_FOR_DIALOG_INTERACTION
107: 0x0308 [0x2B] Prishe (ID: 17821725/0x010FF01D) [8107*]:
    → "I bet you've already figured it out."
108: 0x030F [0x23] WAIT_FOR_DIALOG_INTERACTION
109: 0x0310 [0x2A] GET_REQ_LEVEL(level=16, entity_id=??? (ID: 17821727/0x010FF01F))
110: 0x0316 [0x52] END_LOAD_SCHEDULER: End scheduler "3808" with entities [LocalPlayer, LocalPlayer], work=560*
111: 0x0325 [0x45] LOAD_SCHEDULED_TASK: Load scheduler "3812" with entities [LocalPlayer, LocalPlayer], work=[560*, 0*]
112: 0x0336 [0x5B] LOAD_EXT_SCHEDULER: Load scheduler "std1" with entities [Prishe (ID: 17821725/0x010FF01D), Prishe (ID: 17821725/0x010FF01D)], work=479*
113: 0x0345 [0x1C] WAIT(30* ticks)
114: 0x0348 [0x2B] Prishe (ID: 17821725/0x010FF01D) [8108*]:
    → "We went up against Promathia, <Player>. We took on the Twilight God...but we couldn't finish the job."
115: 0x034F [0x23] WAIT_FOR_DIALOG_INTERACTION
116: 0x0350 [0x53] WAIT_SCHEDULER_TASK: Wait for scheduler "std1" with entities [Prishe (ID: 17821725/0x010FF01D), Prishe (ID: 17821725/0x010FF01D)]
117: 0x035D [0x29] REQ_SET_WAIT(priority=0x10, entity_id=LocalPlayer, tag_num=0x02)
118: 0x0364 [0x27] REQ_SET(priority=0x10, entity_id=Prishe (ID: 17821725/0x010FF01D), tag_num=0x09)
119: 0x036B [0x1C] WAIT(45* ticks)
120: 0x036E [0x52] END_LOAD_SCHEDULER: End scheduler "3812" with entities [LocalPlayer, LocalPlayer], work=560*
121: 0x037D [0x02] IF !(Work_Zone[2] == 5*) GOTO 0x0399
122: 0x0385 [0x45] LOAD_SCHEDULED_TASK: Load scheduler "3810" with entities [LocalPlayer, LocalPlayer], work=[560*, 0*]
123: 0x0396 [0x01] GOTO 0x03C6
124: 0x0399 [0x02] IF !(Work_Zone[2] == 6*) GOTO 0x03B5
125: 0x03A1 [0x45] LOAD_SCHEDULED_TASK: Load scheduler "3810" with entities [LocalPlayer, LocalPlayer], work=[560*, 0*]
126: 0x03B2 [0x01] GOTO 0x03C6
127: 0x03B5 [0x45] LOAD_SCHEDULED_TASK: Load scheduler "3809" with entities [LocalPlayer, LocalPlayer], work=[560*, 0*]

SUBROUTINE_03C6:
128: 0x03C6 [0x1C] WAIT(60* ticks)
129: 0x03C9 [0x2B] Prishe (ID: 17821725/0x010FF01D) [8109*]:
    → "We got our butts handed to us, in fact, all that dropkicking to no avail. You and your comrades were all swallowed up...and there was nothing I could do but stand by and watch in stunned horror."
130: 0x03D0 [0x1C] WAIT(120* ticks)
131: 0x03D3 [0x23] WAIT_FOR_DIALOG_INTERACTION
132: 0x03D4 [0x2A] GET_REQ_LEVEL(level=16, entity_id=Prishe (ID: 17821725/0x010FF01D))
133: 0x03DA [0x4A] LocalPlayer looks at Prishe (ID: 17821725/0x010FF01D)
134: 0x03E3 [0x52] END_LOAD_SCHEDULER: End scheduler "3809" with entities [LocalPlayer, LocalPlayer], work=560*
135: 0x03F2 [0x52] END_LOAD_SCHEDULER: End scheduler "3810" with entities [LocalPlayer, LocalPlayer], work=560*
136: 0x0401 [0x45] LOAD_SCHEDULED_TASK: Load scheduler "3811" with entities [LocalPlayer, LocalPlayer], work=[560*, 0*]
137: 0x0412 [0x5B] LOAD_EXT_SCHEDULER: Load scheduler "ep03" with entities [Prishe (ID: 17821725/0x010FF01D), Prishe (ID: 17821725/0x010FF01D)], work=696*
138: 0x0421 [0x1C] WAIT(45* ticks)
139: 0x0424 [0x2B] Prishe (ID: 17821725/0x010FF01D) [8110*]:
    → "Being what I am, I was the sole survival of the carnage. But truth be told, I would've sooner joined you all on the far side. I don't know if I could muster up the courage to face Cardinal Mildaurion again."
140: 0x042B [0x1C] WAIT(120* ticks)
141: 0x042E [0x23] WAIT_FOR_DIALOG_INTERACTION
142: 0x042F [0x24] CREATE_DIALOG(message_id=8111*, default_option=0*, option_flags=0*)
    → "What do you say? [Snap out of it, Prishe!/Say nothing and continue on.]"
143: 0x0436 [0x25] WAIT_DIALOG_SELECT()
144: 0x0437 [0x02] IF !(Work_Zone[0] == 0*) GOTO 0x04CA
145: 0x043F [0x5D] SET_MUSIC_VOLUME(volume=0*, fade_time=240*)
146: 0x0444 [0x6E] LocalPlayer uses emote 25*
147: 0x044B [0x99] Wait for LocalPlayer animation to complete
148: 0x0450 [0x1C] WAIT(90* ticks)
149: 0x0453 [0x5B] LOAD_EXT_SCHEDULER: Load scheduler "ep04" with entities [Prishe (ID: 17821725/0x010FF01D), Prishe (ID: 17821725/0x010FF01D)], work=697*
150: 0x0462 [0x1C] WAIT(30* ticks)
151: 0x0465 [0x52] END_LOAD_SCHEDULER: End scheduler "3811" with entities [LocalPlayer, LocalPlayer], work=560*
152: 0x0474 [0x45] LOAD_SCHEDULED_TASK: Load scheduler "3813" with entities [LocalPlayer, LocalPlayer], work=[560*, 0*]
153: 0x0485 [0x2B] Prishe (ID: 17821725/0x010FF01D) [8112*]:
    → "Hey! Those were the exact words you said to me before!"
154: 0x048C [0x1C] WAIT(180* ticks)
155: 0x048F [0x23] WAIT_FOR_DIALOG_INTERACTION
156: 0x0490 [0x52] END_LOAD_SCHEDULER: End scheduler "3813" with entities [LocalPlayer, LocalPlayer], work=560*
157: 0x049F [0x45] LOAD_SCHEDULED_TASK: Load scheduler "3814" with entities [LocalPlayer, LocalPlayer], work=[560*, 0*]
158: 0x04B0 [0x2B] Prishe (ID: 17821725/0x010FF01D) [8113*]:
    → "You're right, <Player>. It's not like me to be a sad-sack sourpuss."
159: 0x04B7 [0x1C] WAIT(60* ticks)
160: 0x04BA [0x6E] LocalPlayer uses emote 6*
161: 0x04C1 [0x99] Wait for LocalPlayer animation to complete
162: 0x04C6 [0x23] WAIT_FOR_DIALOG_INTERACTION
163: 0x04C7 [0x01] GOTO 0x0590
164: 0x04CA [0x02] IF !(Work_Zone[0] == 1*) GOTO 0x0590
165: 0x04D2 [0x5D] SET_MUSIC_VOLUME(volume=0*, fade_time=240*)
166: 0x04D7 [0x27] REQ_SET(priority=0x10, entity_id=LocalPlayer, tag_num=0x0B)
167: 0x04DE [0x1C] WAIT(90* ticks)
168: 0x04E1 [0x52] END_LOAD_SCHEDULER: End scheduler "3811" with entities [LocalPlayer, LocalPlayer], work=560*
169: 0x04F0 [0x45] LOAD_SCHEDULED_TASK: Load scheduler "3815" with entities [LocalPlayer, LocalPlayer], work=[560*, 0*]
170: 0x0501 [0x1C] WAIT(120* ticks)
171: 0x0504 [0x5B] LOAD_EXT_SCHEDULER: Load scheduler "par4" with entities [Prishe (ID: 17821725/0x010FF01D), Prishe (ID: 17821725/0x010FF01D)], work=795*
172: 0x0513 [0x1C] WAIT(20* ticks)
173: 0x0516 [0x52] END_LOAD_SCHEDULER: End scheduler "3815" with entities [LocalPlayer, LocalPlayer], work=560*
174: 0x0525 [0x45] LOAD_SCHEDULED_TASK: Load scheduler "3816" with entities [LocalPlayer, LocalPlayer], work=[560*, 0*]
175: 0x0536 [0x2B] Prishe (ID: 17821725/0x010FF01D) [8114*]:
    → "H-hey! Are you planning to do what I think you're planning to do?"
176: 0x053D [0x1C] WAIT(120* ticks)
177: 0x0540 [0x23] WAIT_FOR_DIALOG_INTERACTION
178: 0x0541 [0x52] END_LOAD_SCHEDULER: End scheduler "3816" with entities [LocalPlayer, LocalPlayer], work=560*
179: 0x0550 [0x45] LOAD_SCHEDULED_TASK: Load scheduler "3817" with entities [LocalPlayer, LocalPlayer], work=[560*, 0*]
180: 0x0561 [0x1C] WAIT(60* ticks)
181: 0x0564 [0x6E] LocalPlayer uses emote 7*
182: 0x056B [0x99] Wait for LocalPlayer animation to complete
183: 0x0570 [0x1C] WAIT(60* ticks)
184: 0x0573 [0x5B] LOAD_EXT_SCHEDULER: Load scheduler "ch20" with entities [Prishe (ID: 17821725/0x010FF01D), Prishe (ID: 17821725/0x010FF01D)], work=623*
185: 0x0582 [0x1C] WAIT(60* ticks)
186: 0x0585 [0x2B] Prishe (ID: 17821725/0x010FF01D) [8115*]:
    → "Why, you're every ilm the gutsy adventurer the <Player> I knew was! Always setting the bar so high, you make me look bad, you know?"
187: 0x058C [0x23] WAIT_FOR_DIALOG_INTERACTION
188: 0x058D [0x01] GOTO 0x0590

SUBROUTINE_0590:
189: 0x0590 [0x1A] CALL_SUBROUTINE(address=0x1A53)
190: 0x0593 [0x1C] WAIT(60* ticks)
191: 0x0596 [0x6B] STOP_AND_IDLE: Prishe (ID: 17821725/0x010FF01D) stops current action and resets to idle (animation="idl0")
192: 0x059F [0xBA] SET_ENTITY_POSITION(entity_id=LocalPlayer, pos_x=540.230*, pos_z=-594.611*, pos_y=-499.999*, direction=252.5°*)
193: 0x05AC [0xBA] SET_ENTITY_POSITION(entity_id=Prishe (ID: 17821725/0x010FF01D), pos_x=539.279*, pos_z=-592.220*, pos_y=-499.999*, direction=73.4°*)
194: 0x05B9 [0x4A] LocalPlayer looks at Prishe (ID: 17821725/0x010FF01D)
195: 0x05C2 [0x6F] WAIT_FRAME_DELAY: Yield until WaitTime reaches zero
196: 0x05C3 [0x76] CHECK_ENTITY_RENDER_FLAGS: Wait until LocalPlayer Render.Flags0 and Render.Flags3 conditions are met
197: 0x05C8 [0x48] [System] [8176*]:
    → "@@"
198: 0x05CB [0x23] WAIT_FOR_DIALOG_INTERACTION
199: 0x05CC [0x5B] LOAD_EXT_SCHEDULER: Load scheduler "hen0" with entities [Prishe (ID: 17821725/0x010FF01D), Prishe (ID: 17821725/0x010FF01D)], work=627*
200: 0x05DB [0x52] END_LOAD_SCHEDULER: End scheduler "3814" with entities [LocalPlayer, LocalPlayer], work=560*
201: 0x05EA [0x52] END_LOAD_SCHEDULER: End scheduler "3817" with entities [LocalPlayer, LocalPlayer], work=560*
202: 0x05F9 [0x45] LOAD_SCHEDULED_TASK: Load scheduler "3818" with entities [LocalPlayer, LocalPlayer], work=[560*, 0*]
203: 0x060A [0x1A] CALL_SUBROUTINE(address=0x1A32)
204: 0x060D [0x2B] Prishe (ID: 17821725/0x010FF01D) [8116*]:
    → "At any rate, it's good to know that <Player> will always be <Player>, no matter what dimension [he/she] hails from."
205: 0x0614 [0x23] WAIT_FOR_DIALOG_INTERACTION
206: 0x0615 [0x5B] LOAD_EXT_SCHEDULER: Load scheduler "hen1" with entities [Prishe (ID: 17821725/0x010FF01D), Prishe (ID: 17821725/0x010FF01D)], work=627*
207: 0x0624 [0x1C] WAIT(60* ticks)
208: 0x0627 [0x2B] Prishe (ID: 17821725/0x010FF01D) [8117*]:
    → "I do notice one difference, though. The oodles and oodles of power you emanate--it seems to be something inherent to folk of your world."
209: 0x062E [0x23] WAIT_FOR_DIALOG_INTERACTION
210: 0x062F [0x52] END_LOAD_SCHEDULER: End scheduler "3818" with entities [LocalPlayer, LocalPlayer], work=560*
211: 0x063E [0x45] LOAD_SCHEDULED_TASK: Load scheduler "3819" with entities [LocalPlayer, LocalPlayer], work=[560*, 0*]
212: 0x064F [0x2B] Prishe (ID: 17821725/0x010FF01D) [8118*]:
    → "I hate to admit it, but it's obvious I'll just end up cramping your style if I tag along. ;<Player>j$15I$P10m&H"LE"
213: 0x0656 [0x23] WAIT_FOR_DIALOG_INTERACTION
214: 0x0657 [0x2B] Prishe (ID: 17821725/0x010FF01D) [8119*]:
    → "Therefore, I'm going to sit this one out. My world, Abyssea--it's all in your hands now, <Player>."
215: 0x065E [0x23] WAIT_FOR_DIALOG_INTERACTION
216: 0x065F [0x29] REQ_SET_WAIT(priority=0x10, entity_id=LocalPlayer, tag_num=0x02)
217: 0x0666 [0x52] END_LOAD_SCHEDULER: End scheduler "3819" with entities [LocalPlayer, LocalPlayer], work=560*
218: 0x0675 [0x02] IF !(Work_Zone[2] == 1*) GOTO 0x0691
219: 0x067D [0x45] LOAD_SCHEDULED_TASK: Load scheduler "38hm" with entities [LocalPlayer, LocalPlayer], work=[560*, 0*]
220: 0x068E [0x01] GOTO 0x0755
221: 0x0691 [0x02] IF !(Work_Zone[2] == 2*) GOTO 0x06AD
222: 0x0699 [0x45] LOAD_SCHEDULED_TASK: Load scheduler "38hf" with entities [LocalPlayer, LocalPlayer], work=[560*, 0*]
223: 0x06AA [0x01] GOTO 0x0755
224: 0x06AD [0x02] IF !(Work_Zone[2] == 3*) GOTO 0x06C9
225: 0x06B5 [0x45] LOAD_SCHEDULED_TASK: Load scheduler "38em" with entities [LocalPlayer, LocalPlayer], work=[560*, 0*]
226: 0x06C6 [0x01] GOTO 0x0755
227: 0x06C9 [0x02] IF !(Work_Zone[2] == 4*) GOTO 0x06E5
228: 0x06D1 [0x45] LOAD_SCHEDULED_TASK: Load scheduler "38ef" with entities [LocalPlayer, LocalPlayer], work=[560*, 0*]
229: 0x06E2 [0x01] GOTO 0x0755
230: 0x06E5 [0x02] IF !(Work_Zone[2] == 5*) GOTO 0x0701
231: 0x06ED [0x45] LOAD_SCHEDULED_TASK: Load scheduler "38tr" with entities [LocalPlayer, LocalPlayer], work=[560*, 0*]
232: 0x06FE [0x01] GOTO 0x0755
233: 0x0701 [0x02] IF !(Work_Zone[2] == 6*) GOTO 0x071D
234: 0x0709 [0x45] LOAD_SCHEDULED_TASK: Load scheduler "38tr" with entities [LocalPlayer, LocalPlayer], work=[560*, 0*]
235: 0x071A [0x01] GOTO 0x0755
236: 0x071D [0x02] IF !(Work_Zone[2] == 7*) GOTO 0x0739
237: 0x0725 [0x45] LOAD_SCHEDULED_TASK: Load scheduler "38mt" with entities [LocalPlayer, LocalPlayer], work=[560*, 0*]
238: 0x0736 [0x01] GOTO 0x0755
239: 0x0739 [0x02] IF !(Work_Zone[2] == 8*) GOTO 0x0755
240: 0x0741 [0x45] LOAD_SCHEDULED_TASK: Load scheduler "38gl" with entities [LocalPlayer, LocalPlayer], work=[560*, 0*]
241: 0x0752 [0x01] GOTO 0x0755

SUBROUTINE_0755:
242: 0x0755 [0x24] CREATE_DIALOG(message_id=8120*, default_option=0*, option_flags=0*)
    → "What do you say? [You just leave it to me!/Smile in response.]"
243: 0x075C [0x25] WAIT_DIALOG_SELECT()
244: 0x075D [0x02] IF !(Work_Zone[0] == 0*) GOTO 0x0817
245: 0x0765 [0x6E] LocalPlayer uses emote 7*
246: 0x076C [0x99] Wait for LocalPlayer animation to complete
247: 0x0771 [0x1C] WAIT(120* ticks)
248: 0x0774 [0x52] END_LOAD_SCHEDULER: End scheduler "38hm" with entities [LocalPlayer, LocalPlayer], work=560*
249: 0x0783 [0x52] END_LOAD_SCHEDULER: End scheduler "38hf" with entities [LocalPlayer, LocalPlayer], work=560*
250: 0x0792 [0x52] END_LOAD_SCHEDULER: End scheduler "38em" with entities [LocalPlayer, LocalPlayer], work=560*
251: 0x07A1 [0x52] END_LOAD_SCHEDULER: End scheduler "38ef" with entities [LocalPlayer, LocalPlayer], work=560*
252: 0x07B0 [0x52] END_LOAD_SCHEDULER: End scheduler "38tr" with entities [LocalPlayer, LocalPlayer], work=560*
253: 0x07BF [0x52] END_LOAD_SCHEDULER: End scheduler "38mt" with entities [LocalPlayer, LocalPlayer], work=560*
254: 0x07CE [0x52] END_LOAD_SCHEDULER: End scheduler "38gl" with entities [LocalPlayer, LocalPlayer], work=560*
255: 0x07DD [0x45] LOAD_SCHEDULED_TASK: Load scheduler "3820" with entities [LocalPlayer, LocalPlayer], work=[560*, 0*]
256: 0x07EE [0x5B] LOAD_EXT_SCHEDULER: Load scheduler "hen0" with entities [Prishe (ID: 17821725/0x010FF01D), Prishe (ID: 17821725/0x010FF01D)], work=627*
257: 0x07FD [0x03] Work_Zone[2] = 150*
258: 0x0802 [0x27] REQ_SET(priority=0x10, entity_id=??? (ID: 17821727/0x010FF01F), tag_num=0x01)
259: 0x0809 [0x1C] WAIT(45* ticks)
260: 0x080C [0x2B] Prishe (ID: 17821725/0x010FF01D) [8121*]:
    → "Hehehe, ever the reliable adventurer, I see."
261: 0x0813 [0x23] WAIT_FOR_DIALOG_INTERACTION
262: 0x0814 [0x01] GOTO 0x08C8
263: 0x0817 [0x02] IF !(Work_Zone[0] == 1*) GOTO 0x08C8
264: 0x081F [0x48] [System] [8122*]:
    → "<Player> flashes [his/her] pearly whites at Prishe."
265: 0x0822 [0x1C] WAIT(120* ticks)
266: 0x0825 [0x52] END_LOAD_SCHEDULER: End scheduler "38hm" with entities [LocalPlayer, LocalPlayer], work=560*
267: 0x0834 [0x52] END_LOAD_SCHEDULER: End scheduler "38hf" with entities [LocalPlayer, LocalPlayer], work=560*
268: 0x0843 [0x52] END_LOAD_SCHEDULER: End scheduler "38em" with entities [LocalPlayer, LocalPlayer], work=560*
269: 0x0852 [0x52] END_LOAD_SCHEDULER: End scheduler "38ef" with entities [LocalPlayer, LocalPlayer], work=560*
270: 0x0861 [0x52] END_LOAD_SCHEDULER: End scheduler "38tr" with entities [LocalPlayer, LocalPlayer], work=560*
271: 0x0870 [0x52] END_LOAD_SCHEDULER: End scheduler "38mt" with entities [LocalPlayer, LocalPlayer], work=560*
272: 0x087F [0x52] END_LOAD_SCHEDULER: End scheduler "38gl" with entities [LocalPlayer, LocalPlayer], work=560*
273: 0x088E [0x45] LOAD_SCHEDULED_TASK: Load scheduler "3820" with entities [LocalPlayer, LocalPlayer], work=[560*, 0*]
274: 0x089F [0x5B] LOAD_EXT_SCHEDULER: Load scheduler "hen0" with entities [Prishe (ID: 17821725/0x010FF01D), Prishe (ID: 17821725/0x010FF01D)], work=627*
275: 0x08AE [0x03] Work_Zone[2] = 150*
276: 0x08B3 [0x27] REQ_SET(priority=0x10, entity_id=??? (ID: 17821727/0x010FF01F), tag_num=0x01)
277: 0x08BA [0x1C] WAIT(45* ticks)
278: 0x08BD [0x2B] Prishe (ID: 17821725/0x010FF01D) [8123*]:
    → "Ah, how many times have I seen that doltish grin of yours? Sure brings back memories."
279: 0x08C4 [0x23] WAIT_FOR_DIALOG_INTERACTION
280: 0x08C5 [0x01] GOTO 0x08C8

SUBROUTINE_08C8:
281: 0x08C8 [0x2A] GET_REQ_LEVEL(level=16, entity_id=??? (ID: 17821727/0x010FF01F))
282: 0x08CE [0x5B] LOAD_EXT_SCHEDULER: Load scheduler "hen1" with entities [Prishe (ID: 17821725/0x010FF01D), Prishe (ID: 17821725/0x010FF01D)], work=627*
283: 0x08DD [0x53] WAIT_SCHEDULER_TASK: Wait for scheduler "hen1" with entities [Prishe (ID: 17821725/0x010FF01D), Prishe (ID: 17821725/0x010FF01D)]
284: 0x08EA [0x5C] MUSIC_CONTROL: Set Idle (Day) music to song 198*
285: 0x08EE [0x5C] MUSIC_CONTROL: Set Idle (Night) music to song 198*
286: 0x08F2 [0x9A] WAIT_MUSIC_SERVER()
287: 0x08F3 [0x5B] LOAD_EXT_SCHEDULER: Load scheduler "std0" with entities [Prishe (ID: 17821725/0x010FF01D), Prishe (ID: 17821725/0x010FF01D)], work=479*
288: 0x0902 [0x52] END_LOAD_SCHEDULER: End scheduler "3820" with entities [LocalPlayer, LocalPlayer], work=560*
289: 0x0911 [0x45] LOAD_SCHEDULED_TASK: Load scheduler "3821" with entities [LocalPlayer, LocalPlayer], work=[560*, 0*]
290: 0x0922 [0x2B] Prishe (ID: 17821725/0x010FF01D) [8124*]:
    → "Now, let me be dead serious for a moment, <Player>."
291: 0x0929 [0x23] WAIT_FOR_DIALOG_INTERACTION
292: 0x092A [0x2B] Prishe (ID: 17821725/0x010FF01D) [8125*]:
    → "You're bursting at the seams with power that people of Abyssea can only dream of, this is true."
293: 0x0931 [0x23] WAIT_FOR_DIALOG_INTERACTION
294: 0x0932 [0x52] END_LOAD_SCHEDULER: End scheduler "3821" with entities [LocalPlayer, LocalPlayer], work=560*
295: 0x0941 [0x45] LOAD_SCHEDULED_TASK: Load scheduler "3822" with entities [LocalPlayer, LocalPlayer], work=[560*, 0*]
296: 0x0952 [0x1C] WAIT(60* ticks)
297: 0x0955 [0x2B] Prishe (ID: 17821725/0x010FF01D) [8126*]:
    → "However, the enemy that awaits beyond isn't the run-of-the-mill man-god you might be expecting."
298: 0x095C [0x1C] WAIT(180* ticks)
299: 0x095F [0x23] WAIT_FOR_DIALOG_INTERACTION
300: 0x0960 [0x52] END_LOAD_SCHEDULER: End scheduler "3822" with entities [LocalPlayer, LocalPlayer], work=560*
301: 0x096F [0x45] LOAD_SCHEDULED_TASK: Load scheduler "3823" with entities [LocalPlayer, LocalPlayer], work=[560*, 0*]
302: 0x0980 [0x5B] LOAD_EXT_SCHEDULER: Load scheduler "sthc" with entities [Prishe (ID: 17821725/0x010FF01D), Prishe (ID: 17821725/0x010FF01D)], work=479*
303: 0x098F [0x03] Work_Zone[2] = 120*
304: 0x0994 [0x27] REQ_SET(priority=0x10, entity_id=??? (ID: 17821727/0x010FF01F), tag_num=0x01)
305: 0x099B [0x1C] WAIT(30* ticks)
306: 0x099E [0x2B] Prishe (ID: 17821725/0x010FF01D) [8127*]:
    → "In absorbing our friend Selh'teus into His being, the Twilight God has evolved and taken on a fearsome new form: terror and dread made flesh."
307: 0x09A5 [0x23] WAIT_FOR_DIALOG_INTERACTION
308: 0x09A6 [0x2B] Prishe (ID: 17821725/0x010FF01D) [8128*]:
    → "He looks more like a wyrm now, but one that's bigger, badder, and uglier than anything you've ever seen."
309: 0x09AD [0x23] WAIT_FOR_DIALOG_INTERACTION
310: 0x09AE [0x2A] GET_REQ_LEVEL(level=16, entity_id=??? (ID: 17821727/0x010FF01F))
311: 0x09B4 [0x52] END_LOAD_SCHEDULER: End scheduler "3823" with entities [LocalPlayer, LocalPlayer], work=560*
312: 0x09C3 [0x45] LOAD_SCHEDULED_TASK: Load scheduler "3824" with entities [LocalPlayer, LocalPlayer], work=[560*, 0*]
313: 0x09D4 [0x5B] LOAD_EXT_SCHEDULER: Load scheduler "hctf" with entities [Prishe (ID: 17821725/0x010FF01D), Prishe (ID: 17821725/0x010FF01D)], work=479*
314: 0x09E3 [0x03] Work_Zone[2] = 120*
315: 0x09E8 [0x27] REQ_SET(priority=0x10, entity_id=??? (ID: 17821727/0x010FF01F), tag_num=0x01)
316: 0x09EF [0x1C] WAIT(45* ticks)
317: 0x09F2 [0x2B] Prishe (ID: 17821725/0x010FF01D) [8129*]:
    → "But hey, don't let these little details unnerve you."
318: 0x09F9 [0x23] WAIT_FOR_DIALOG_INTERACTION
319: 0x09FA [0x2B] Prishe (ID: 17821725/0x010FF01D) [8130*]:
    → "When you square off against this souped-up Promathia, the foremost thing to keep in mind is to be yourself. That's right, <Player>. Be your bloodthirsty, ruthless self."
320: 0x0A01 [0x23] WAIT_FOR_DIALOG_INTERACTION
321: 0x0A02 [0x2A] GET_REQ_LEVEL(level=16, entity_id=??? (ID: 17821727/0x010FF01F))
322: 0x0A08 [0x5B] LOAD_EXT_SCHEDULER: Load scheduler "tfst" with entities [Prishe (ID: 17821725/0x010FF01D), Prishe (ID: 17821725/0x010FF01D)], work=479*
323: 0x0A17 [0x1C] WAIT(60* ticks)
324: 0x0A1A [0x52] END_LOAD_SCHEDULER: End scheduler "3824" with entities [LocalPlayer, LocalPlayer], work=560*
325: 0x0A29 [0x45] LOAD_SCHEDULED_TASK: Load scheduler "3825" with entities [LocalPlayer, LocalPlayer], work=[560*, 0*]
326: 0x0A3A [0x5D] SET_MUSIC_VOLUME(volume=0*, fade_time=120*)
327: 0x0A3F [0x2B] Prishe (ID: 17821725/0x010FF01D) [8131*]:
    → "Ready yourself as best you can, because if even the extra-dimensional version of you can't come out on top, then--the Goddess forbid--Abyssea truly is screwed."
328: 0x0A46 [0x23] WAIT_FOR_DIALOG_INTERACTION
329: 0x0A47 [0x1A] CALL_SUBROUTINE(address=0x1A53)
330: 0x0A4A [0x1C] WAIT(30* ticks)
331: 0x0A4D [0x52] END_LOAD_SCHEDULER: End scheduler "3825" with entities [LocalPlayer, LocalPlayer], work=560*
332: 0x0A5C [0x45] LOAD_SCHEDULED_TASK: Load scheduler "0blf" with entities [LocalPlayer, LocalPlayer], work=[560*, 0*]
333: 0x0A6D [0x5C] MUSIC_CONTROL: Set Idle (Day) music to song 0*
334: 0x0A71 [0x5C] MUSIC_CONTROL: Set Idle (Night) music to song 0*
335: 0x0A75 [0x9A] WAIT_MUSIC_SERVER()
336: 0x0A76 [0x46] CAMERA_CONTROL: Restore default settings
337: 0x0A78 [0x45] LOAD_SCHEDULED_TASK: Load scheduler "fdi2" with entities [LocalPlayer, LocalPlayer], work=[200*, 0*]
338: 0x0A89 [0x21] END_EVENT
339: 0x0A8A [0x00] END_REQSTACK()
```

### Event 208

#### Metadata

| Field        | Value     |
|--------------|-----------|
| Entrypoint   | 0x0A8B    |
| Data Size    | 642 bytes |
| Instructions | 80        |

```
      00 01 02 03 04 05 06 07  08 09 0A 0B 0C 0D 0E 0F
      -- -- -- -- -- -- -- --  -- -- -- -- -- -- -- --
0A80:                                   42 1A 53 1A 46             B.S.F
0A90: 01 38 00 80 79 00 F0 FF  FF 7F F0 FF FF 7F 94 01  .8..y...........
0AA0: F0 FF FF 7F BA F0 FF FF  7F 57 80 58 80 04 80 05  .........W.X....
0AB0: 80 80 F0 FF FF 7F 80 12  F0 0F 01 1C 0A 80 45 0B  ..............E.
0AC0: 80 F0 FF FF 7F F0 FF FF  7F 69 6E 30 30 09 80 1A  .........in00...
0AD0: 32 1A 9F 59 80 F0 FF FF  7F F0 FF FF 7F 6D 61 69  2..Y.........mai
0AE0: 6E 09 80 1C 0E 80 92 01  F0 FF FF 7F 55 0B 80 F0  n...........U...
0AF0: FF FF 7F F0 FF FF 7F 69  6E 30 30 45 0B 80 F0 FF  .......in00E....
0B00: FF 7F F0 FF FF 7F 69 6E  30 31 09 80 1C 5A 80 45  ......in01...Z.E
0B10: 0B 80 F0 FF FF 7F F0 FF  FF 7F 6B 31 33 32 09 80  ..........k132..
0B20: 45 0B 80 F0 FF FF 7F F0  FF FF 7F 34 30 33 35 09  E..........4035.
0B30: 80 1A 95 1A 55 0B 80 F0  FF FF 7F F0 FF FF 7F 69  ....U..........i
0B40: 6E 30 31 27 10 1E F0 0F  01 04 92 01 1E F0 0F 01  n01'............
0B50: 94 01 1E F0 0F 01 BA F0  FF FF 7F 5B 80 5C 80 5D  ...........[.\.]
0B60: 80 5E 80 BA 1E F0 0F 01  5F 80 60 80 5D 80 05 80  .^......_.`.]...
0B70: 29 10 1E F0 0F 01 0A 80  1E F0 0F 01 6C F0 FF FF  )...........l...
0B80: 7F 09 80 01 80 29 10 F0  FF FF 7F 04 1C 0A 80 45  .....).........E
0B90: 0B 80 F0 FF FF 7F F0 FF  FF 7F 33 38 35 30 09 80  ..........3850..
0BA0: 1A 74 1A 9F 61 80 F0 FF  FF 7F F0 FF FF 7F 6D 61  .t..a.........ma
0BB0: 69 6E 09 80 1C 0D 80 92  00 F0 FF FF 7F 1C 0E 80  in..............
0BC0: 52 0B 80 F0 FF FF 7F F0  FF FF 7F 33 38 35 30 45  R..........3850E
0BD0: 0B 80 F0 FF FF 7F F0 FF  FF 7F 33 38 35 31 09 80  ..........3851..
0BE0: 29 10 F0 FF FF 7F 05 1C  0A 80 5C 00 62 80 5C 01  ).........\.b.\.
0BF0: 62 80 5C 02 62 80 5C 03  62 80 9A 52 0B 80 F0 FF  b.\.b.\.b..R....
0C00: FF 7F F0 FF FF 7F 33 38  35 31 45 0B 80 F0 FF FF  ......3851E.....
0C10: 7F F0 FF FF 7F 33 38 35  32 09 80 1C 19 80 52 0B  .....3852.....R.
0C20: 80 F0 FF FF 7F F0 FF FF  7F 33 38 35 32 45 0B 80  .........3852E..
0C30: F0 FF FF 7F F0 FF FF 7F  33 38 35 33 09 80 1C 0E  ........3853....
0C40: 80 1C 10 80 52 0B 80 F0  FF FF 7F F0 FF FF 7F 33  ....R..........3
0C50: 38 35 33 45 0B 80 F0 FF  FF 7F F0 FF FF 7F 33 38  853E..........38
0C60: 35 34 09 80 1C 10 80 52  0B 80 F0 FF FF 7F F0 FF  54.....R........
0C70: FF 7F 33 38 35 34 45 0B  80 F0 FF FF 7F F0 FF FF  ..3854E.........
0C80: 7F 33 38 35 36 09 80 1C  63 80 27 10 F0 FF FF 7F  .3856...c.'.....
0C90: 0C 52 0B 80 F0 FF FF 7F  F0 FF FF 7F 33 38 35 36  .R..........3856
0CA0: 45 0B 80 F0 FF FF 7F F0  FF FF 7F 33 38 35 35 09  E..........3855.
0CB0: 80 1C 17 80 1A A6 1B 1C  0E 80 52 0B 80 F0 FF FF  ..........R.....
0CC0: 7F F0 FF FF 7F 33 38 35  35 45 0B 80 F0 FF FF 7F  .....3855E......
0CD0: F0 FF FF 7F 30 62 6C 66  09 80 1A 53 1A 1A 74 1A  ....0blf...S..t.
0CE0: 27 10 F0 FF FF 7F 0D 5C  00 09 80 5C 01 09 80 5C  '......\...\...\
0CF0: 02 62 80 5C 03 62 80 9A  46 00 45 56 80 F0 FF FF  .b.\.b..F.EV....
0D00: 7F F0 FF FF 7F 66 64 69  32 09 80 21 00           .....fdi2..!.   
```

#### Opcodes

```
  0: 0x0A8B [0x42] SET_CLI_EVENT_CANCEL_DATA()
  1: 0x0A8C [0x1A] CALL_SUBROUTINE(address=0x1A53)
  2: 0x0A8F [0x46] CAMERA_CONTROL: Disable user control
  3: 0x0A91 [0x38] SET_CLIENT_EVENT_MODE(mode=19*)
  4: 0x0A94 [0x79] LocalPlayer looks at LocalPlayer (Basic look)
  5: 0x0A9E [0x94] LocalPlayer->Render.Flags3 ^= 0x01
  6: 0x0AA4 [0xBA] SET_ENTITY_POSITION(entity_id=LocalPlayer, pos_x=539.965*, pos_z=-593.843*, pos_y=-499.999*, direction=90.0°*)
  7: 0x0AB1 [0x80] LOAD_WAIT(entity=LocalPlayer)
  8: 0x0AB6 [0x80] LOAD_WAIT(entity=Transcendental Radiance (ID: 17821714/0x010FF012))
  9: 0x0ABB [0x1C] WAIT(30* ticks)
 10: 0x0ABE [0x45] LOAD_SCHEDULED_TASK: Load scheduler "in00" with entities [LocalPlayer, LocalPlayer], work=[560*, 0*]
 11: 0x0ACF [0x1A] CALL_SUBROUTINE(address=0x1A32)
 12: 0x0AD2 [0x9F] LOAD_SCHEDULED_TASK_ALT: Load scheduler "main" with entities [LocalPlayer, LocalPlayer], work=[75*, 0*]
 13: 0x0AE3 [0x1C] WAIT(60* ticks)
 14: 0x0AE6 [0x92] LocalPlayer->Render.Flags3 ^= 0x01
 15: 0x0AEC [0x55] WAIT_LOAD_SCHEDULER: Wait for scheduler "in00" with entities [LocalPlayer, LocalPlayer], work=560*
 16: 0x0AFB [0x45] LOAD_SCHEDULED_TASK: Load scheduler "in01" with entities [LocalPlayer, LocalPlayer], work=[560*, 0*]
 17: 0x0B0C [0x1C] WAIT(100* ticks)
 18: 0x0B0F [0x45] LOAD_SCHEDULED_TASK: Load scheduler "k132" with entities [LocalPlayer, LocalPlayer], work=[560*, 0*]
 19: 0x0B20 [0x45] LOAD_SCHEDULED_TASK: Load scheduler "4035" with entities [LocalPlayer, LocalPlayer], work=[560*, 0*]
 20: 0x0B31 [0x1A] CALL_SUBROUTINE(address=0x1A95)
 21: 0x0B34 [0x55] WAIT_LOAD_SCHEDULER: Wait for scheduler "in01" with entities [LocalPlayer, LocalPlayer], work=560*
 22: 0x0B43 [0x27] REQ_SET(priority=0x10, entity_id=Unnamed NPC (ID: 17821726/0x010FF01E), tag_num=0x04)
 23: 0x0B4A [0x92] Unnamed NPC (ID: 17821726/0x010FF01E)->Render.Flags3 ^= 0x01
 24: 0x0B50 [0x94] Unnamed NPC (ID: 17821726/0x010FF01E)->Render.Flags3 ^= 0x01
 25: 0x0B56 [0xBA] SET_ENTITY_POSITION(entity_id=LocalPlayer, pos_x=520.001*, pos_z=483.842*, pos_y=-500.000*, direction=270.0°*)
 26: 0x0B63 [0xBA] SET_ENTITY_POSITION(entity_id=Unnamed NPC (ID: 17821726/0x010FF01E), pos_x=520.033*, pos_z=520.207*, pos_y=-500.000*, direction=90.0°*)
 27: 0x0B70 [0x29] REQ_SET_WAIT(priority=0x10, entity_id=Unnamed NPC (ID: 17821726/0x010FF01E), tag_num=0x0A)
 28: 0x0B77 [0x80] LOAD_WAIT(entity=Unnamed NPC (ID: 17821726/0x010FF01E))
 29: 0x0B7C [0x6C] FADE_ENTITY_COLOR(entity_id=LocalPlayer, end_alpha=0*, fade_time=1*)
 30: 0x0B85 [0x29] REQ_SET_WAIT(priority=0x10, entity_id=LocalPlayer, tag_num=0x04)
 31: 0x0B8C [0x1C] WAIT(30* ticks)
 32: 0x0B8F [0x45] LOAD_SCHEDULED_TASK: Load scheduler "3850" with entities [LocalPlayer, LocalPlayer], work=[560*, 0*]
 33: 0x0BA0 [0x1A] CALL_SUBROUTINE(address=0x1A74)
 34: 0x0BA3 [0x9F] LOAD_SCHEDULED_TASK_ALT: Load scheduler "main" with entities [LocalPlayer, LocalPlayer], work=[76*, 0*]
 35: 0x0BB4 [0x1C] WAIT(120* ticks)
 36: 0x0BB7 [0x92] LocalPlayer->Render.Flags3 = Flags3  // No change (flag=0)
 37: 0x0BBD [0x1C] WAIT(60* ticks)
 38: 0x0BC0 [0x52] END_LOAD_SCHEDULER: End scheduler "3850" with entities [LocalPlayer, LocalPlayer], work=560*
 39: 0x0BCF [0x45] LOAD_SCHEDULED_TASK: Load scheduler "3851" with entities [LocalPlayer, LocalPlayer], work=[560*, 0*]
 40: 0x0BE0 [0x29] REQ_SET_WAIT(priority=0x10, entity_id=LocalPlayer, tag_num=0x05)
 41: 0x0BE7 [0x1C] WAIT(30* ticks)
 42: 0x0BEA [0x5C] MUSIC_CONTROL: Set Idle (Day) music to song 53*
 43: 0x0BEE [0x5C] MUSIC_CONTROL: Set Idle (Night) music to song 53*
 44: 0x0BF2 [0x5C] MUSIC_CONTROL: Set Combat (Solo) music to song 53*
 45: 0x0BF6 [0x5C] MUSIC_CONTROL: Set Combat (Party) music to song 53*
 46: 0x0BFA [0x9A] WAIT_MUSIC_SERVER()
 47: 0x0BFB [0x52] END_LOAD_SCHEDULER: End scheduler "3851" with entities [LocalPlayer, LocalPlayer], work=560*
 48: 0x0C0A [0x45] LOAD_SCHEDULED_TASK: Load scheduler "3852" with entities [LocalPlayer, LocalPlayer], work=[560*, 0*]
 49: 0x0C1B [0x1C] WAIT(180* ticks)
 50: 0x0C1E [0x52] END_LOAD_SCHEDULER: End scheduler "3852" with entities [LocalPlayer, LocalPlayer], work=560*
 51: 0x0C2D [0x45] LOAD_SCHEDULED_TASK: Load scheduler "3853" with entities [LocalPlayer, LocalPlayer], work=[560*, 0*]
 52: 0x0C3E [0x1C] WAIT(60* ticks)
 53: 0x0C41 [0x1C] WAIT(150* ticks)
 54: 0x0C44 [0x52] END_LOAD_SCHEDULER: End scheduler "3853" with entities [LocalPlayer, LocalPlayer], work=560*
 55: 0x0C53 [0x45] LOAD_SCHEDULED_TASK: Load scheduler "3854" with entities [LocalPlayer, LocalPlayer], work=[560*, 0*]
 56: 0x0C64 [0x1C] WAIT(150* ticks)
 57: 0x0C67 [0x52] END_LOAD_SCHEDULER: End scheduler "3854" with entities [LocalPlayer, LocalPlayer], work=560*
 58: 0x0C76 [0x45] LOAD_SCHEDULED_TASK: Load scheduler "3856" with entities [LocalPlayer, LocalPlayer], work=[560*, 0*]
 59: 0x0C87 [0x1C] WAIT(210* ticks)
 60: 0x0C8A [0x27] REQ_SET(priority=0x10, entity_id=LocalPlayer, tag_num=0x0C)
 61: 0x0C91 [0x52] END_LOAD_SCHEDULER: End scheduler "3856" with entities [LocalPlayer, LocalPlayer], work=560*
 62: 0x0CA0 [0x45] LOAD_SCHEDULED_TASK: Load scheduler "3855" with entities [LocalPlayer, LocalPlayer], work=[560*, 0*]
 63: 0x0CB1 [0x1C] WAIT(90* ticks)
 64: 0x0CB4 [0x1A] CALL_SUBROUTINE(address=0x1BA6)
 65: 0x0CB7 [0x1C] WAIT(60* ticks)
 66: 0x0CBA [0x52] END_LOAD_SCHEDULER: End scheduler "3855" with entities [LocalPlayer, LocalPlayer], work=560*
 67: 0x0CC9 [0x45] LOAD_SCHEDULED_TASK: Load scheduler "0blf" with entities [LocalPlayer, LocalPlayer], work=[560*, 0*]
 68: 0x0CDA [0x1A] CALL_SUBROUTINE(address=0x1A53)
 69: 0x0CDD [0x1A] CALL_SUBROUTINE(address=0x1A74)
 70: 0x0CE0 [0x27] REQ_SET(priority=0x10, entity_id=LocalPlayer, tag_num=0x0D)
 71: 0x0CE7 [0x5C] MUSIC_CONTROL: Set Idle (Day) music to song 0*
 72: 0x0CEB [0x5C] MUSIC_CONTROL: Set Idle (Night) music to song 0*
 73: 0x0CEF [0x5C] MUSIC_CONTROL: Set Combat (Solo) music to song 53*
 74: 0x0CF3 [0x5C] MUSIC_CONTROL: Set Combat (Party) music to song 53*
 75: 0x0CF7 [0x9A] WAIT_MUSIC_SERVER()
 76: 0x0CF8 [0x46] CAMERA_CONTROL: Restore default settings
 77: 0x0CFA [0x45] LOAD_SCHEDULED_TASK: Load scheduler "fdi2" with entities [LocalPlayer, LocalPlayer], work=[200*, 0*]
 78: 0x0D0B [0x21] END_EVENT
 79: 0x0D0C [0x00] END_REQSTACK()
```

### Event 203

#### Metadata

| Field        | Value      |
|--------------|------------|
| Entrypoint   | 0x0D0D     |
| Data Size    | 1508 bytes |
| Instructions | 199        |

```
      00 01 02 03 04 05 06 07  08 09 0A 0B 0C 0D 0E 0F
      -- -- -- -- -- -- -- --  -- -- -- -- -- -- -- --
0D00:                                         42 1A 53               B.S
0D10: 1A 46 01 38 00 80 92 01  1D F0 0F 01 94 01 F0 FF  .F.8............
0D20: FF 7F 94 01 1D F0 0F 01  BA F0 FF FF 7F 64 80 65  .............d.e
0D30: 80 5D 80 66 80 BA 1D F0  0F 01 67 80 68 80 04 80  .].f......g.h...
0D40: 66 80 80 F0 FF FF 7F 80  1D F0 0F 01 29 10 F0 FF  f...........)...
0D50: FF 7F 02 03 01 00 02 10  1C 0A 80 5C 00 69 80 5C  ...........\.i.\
0D60: 01 69 80 9A CD 48 80 F0  FF FF 7F F0 FF FF 7F 73  .i...H.........s
0D70: 30 30 32 09 80 45 0B 80  F0 FF FF 7F F0 FF FF 7F  002..E..........
0D80: 33 39 30 30 09 80 1A 32  1A 1C 0D 80 79 02 F0 FF  3900...2....y...
0D90: FF 7F 6A 80 09 80 1C 19  80 52 0B 80 F0 FF FF 7F  ..j......R......
0DA0: F0 FF FF 7F 33 39 30 30  45 0B 80 F0 FF FF 7F F0  ....3900E.......
0DB0: FF FF 7F 33 39 30 31 09  80 27 10 1D F0 0F 01 0C  ...3901..'......
0DC0: 1C 0A 80 2B 1D F0 0F 01  6B 80 1C 0A 80 4A F0 FF  ...+....k....J..
0DD0: FF 7F 1D F0 0F 01 23 2A  10 1D F0 0F 01 52 0B 80  ......#*.....R..
0DE0: F0 FF FF 7F F0 FF FF 7F  33 39 30 31 45 0B 80 F0  ........3901E...
0DF0: FF FF 7F F0 FF FF 7F 33  39 30 32 09 80 1C 0A 80  .......3902.....
0E00: 2B 1D F0 0F 01 6C 80 23  5B 20 80 1D F0 0F 01 1D  +....l.#[ ......
0E10: F0 0F 01 73 74 64 30 2B  1D F0 0F 01 6D 80 23 2B  ...std0+....m.#+
0E20: 1D F0 0F 01 6E 80 1C 0E  80 52 0B 80 F0 FF FF 7F  ....n....R......
0E30: F0 FF FF 7F 33 39 30 32  45 0B 80 F0 FF FF 7F F0  ....3902E.......
0E40: FF FF 7F 33 39 30 33 09  80 1C 0E 80 BA F0 FF FF  ...3903.........
0E50: 7F 64 80 65 80 5D 80 6F  80 79 02 F0 FF FF 7F 6A  .d.e.].o.y.....j
0E60: 80 09 80 5B 70 80 1D F0  0F 01 1D F0 0F 01 70 61  ...[p.........pa
0E70: 30 34 1C 19 80 23 52 0B  80 F0 FF FF 7F F0 FF FF  04...#R.........
0E80: 7F 33 39 30 33 45 0B 80  F0 FF FF 7F F0 FF FF 7F  .3903E..........
0E90: 33 39 30 34 09 80 1C 0A  80 2B 1D F0 0F 01 71 80  3904.....+....q.
0EA0: 23 2B 1D F0 0F 01 72 80  23 52 0B 80 F0 FF FF 7F  #+....r.#R......
0EB0: F0 FF FF 7F 33 39 30 34  45 0B 80 F0 FF FF 7F F0  ....3904E.......
0EC0: FF FF 7F 33 39 30 35 09  80 1C 0E 80 2B 1D F0 0F  ...3905.....+...
0ED0: 01 73 80 1C 0A 80 6B 69  64 6C 30 1D F0 0F 01 1C  .s....kidl0.....
0EE0: 17 80 23 27 10 1D F0 0F  01 0D 2B 1D F0 0F 01 74  ..#'......+....t
0EF0: 80 52 0B 80 F0 FF FF 7F  F0 FF FF 7F 33 39 30 35  .R..........3905
0F00: 02 01 00 2A 80 80 1C 0F  45 0B 80 F0 FF FF 7F F0  ...*....E.......
0F10: FF FF 7F 33 39 30 37 09  80 01 49 0F 02 01 00 2B  ...3907...I....+
0F20: 80 80 38 0F 45 0B 80 F0  FF FF 7F F0 FF FF 7F 33  ..8.E..........3
0F30: 39 30 37 09 80 01 49 0F  45 0B 80 F0 FF FF 7F F0  907...I.E.......
0F40: FF FF 7F 33 39 30 36 09  80 1C 0A 80 4A F0 FF FF  ...3906.....J...
0F50: 7F 1D F0 0F 01 1C 17 80  23 2A 10 1D F0 0F 01 2B  ........#*.....+
0F60: 1D F0 0F 01 75 80 23 4A  F0 FF FF 7F 1D F0 0F 01  ....u.#J........
0F70: 52 0B 80 F0 FF FF 7F F0  FF FF 7F 33 39 30 36 52  R..........3906R
0F80: 0B 80 F0 FF FF 7F F0 FF  FF 7F 33 39 30 37 45 0B  ..........3907E.
0F90: 80 F0 FF FF 7F F0 FF FF  7F 33 39 30 38 09 80 5B  .........3908..[
0FA0: 76 80 1D F0 0F 01 1D F0  0F 01 68 6E 64 30 03 02  v.........hnd0..
0FB0: 10 19 80 27 10 1F F0 0F  01 01 2B 1D F0 0F 01 77  ...'......+....w
0FC0: 80 23 2A 10 1F F0 0F 01  6E F0 FF FF 7F 2B 80 99  .#*.....n....+..
0FD0: F0 FF FF 7F 1C 0A 80 5B  35 80 1D F0 0F 01 1D F0  .......[5.......
0FE0: 0F 01 70 61 72 34 1C 0E  80 52 0B 80 F0 FF FF 7F  ..par4...R......
0FF0: F0 FF FF 7F 33 39 30 38  45 0B 80 F0 FF FF 7F F0  ....3908E.......
1000: FF FF 7F 33 39 30 39 09  80 1C 0A 80 2B 1D F0 0F  ...3909.....+...
1010: 01 78 80 1C 0D 80 23 5B  79 80 1D F0 0F 01 1D F0  .x....#[y.......
1020: 0F 01 74 62 6F 30 03 02  10 30 80 27 10 1F F0 0F  ..tbo0...0.'....
1030: 01 01 52 0B 80 F0 FF FF  7F F0 FF FF 7F 33 39 30  ..R..........390
1040: 39 45 0B 80 F0 FF FF 7F  F0 FF FF 7F 33 39 31 30  9E..........3910
1050: 09 80 1C 0A 80 2B 1D F0  0F 01 7A 80 23 2A 10 1F  .....+....z.#*..
1060: F0 0F 01 5B 79 80 1D F0  0F 01 1D F0 0F 01 74 62  ...[y.........tb
1070: 6F 31 1C 17 80 4A 1D F0  0F 01 F0 FF FF 7F 52 0B  o1...J........R.
1080: 80 F0 FF FF 7F F0 FF FF  7F 33 39 31 30 45 0B 80  .........3910E..
1090: F0 FF FF 7F F0 FF FF 7F  33 39 31 31 09 80 7B 1D  ........3911..{.
10A0: F0 0F 01 1C 0A 80 2B 1D  F0 0F 01 7B 80 1C 0D 80  ......+....{....
10B0: 23 5B 7C 80 1D F0 0F 01  1D F0 0F 01 74 6C 65 30  #[|.........tle0
10C0: 03 02 10 0D 80 27 10 1F  F0 0F 01 01 2B 1D F0 0F  .....'......+...
10D0: 01 7D 80 23 2A 10 1F F0  0F 01 5B 7C 80 1D F0 0F  .}.#*.....[|....
10E0: 01 1D F0 0F 01 74 6C 65  31 1C 0A 80 2B 1D F0 0F  .....tle1...+...
10F0: 01 7E 80 1C 10 80 23 52  0B 80 F0 FF FF 7F F0 FF  .~....#R........
1100: FF 7F 33 39 31 31 45 0B  80 F0 FF FF 7F F0 FF FF  ..3911E.........
1110: 7F 33 39 31 32 09 80 5B  38 80 1D F0 0F 01 1D F0  .3912..[8.......
1120: 0F 01 63 68 32 30 1C 0E  80 2B 1D F0 0F 01 7F 80  ..ch20...+......
1130: 23 52 0B 80 F0 FF FF 7F  F0 FF FF 7F 33 39 31 32  #R..........3912
1140: 45 0B 80 F0 FF FF 7F F0  FF FF 7F 33 39 31 33 09  E..........3913.
1150: 80 27 10 1D F0 0F 01 0E  1C 0A 80 4A F0 FF FF 7F  .'.........J....
1160: 1D F0 0F 01 2A 10 1D F0  0F 01 1C 0A 80 2B 1D F0  ....*........+..
1170: 0F 01 80 80 23 4A 1D F0  0F 01 F0 FF FF 7F 7B 1D  ....#J........{.
1180: F0 0F 01 52 0B 80 F0 FF  FF 7F F0 FF FF 7F 33 39  ...R..........39
1190: 31 33 45 0B 80 F0 FF FF  7F F0 FF FF 7F 33 39 31  13E..........391
11A0: 34 09 80 6F 76 1D F0 0F  01 1C 0A 80 2B 1D F0 0F  4..ov.......+...
11B0: 01 81 80 23 5B 20 80 1D  F0 0F 01 1D F0 0F 01 74  ...#[ .........t
11C0: 6C 66 30 03 02 10 0D 80  27 10 1F F0 0F 01 01 2B  lf0.....'......+
11D0: 1D F0 0F 01 82 80 23 2A  10 1F F0 0F 01 5B 20 80  ......#*.....[ .
11E0: 1D F0 0F 01 1D F0 0F 01  74 66 68 63 03 02 10 19  ........tfhc....
11F0: 80 27 10 1F F0 0F 01 01  1C 0E 80 2B 1D F0 0F 01  .'.........+....
1200: 83 80 23 52 0B 80 F0 FF  FF 7F F0 FF FF 7F 33 39  ..#R..........39
1210: 31 34 45 0B 80 F0 FF FF  7F F0 FF FF 7F 33 39 31  14E..........391
1220: 35 09 80 1C 0D 80 2B 1D  F0 0F 01 84 80 23 2A 10  5.....+......#*.
1230: 1F F0 0F 01 52 0B 80 F0  FF FF 7F F0 FF FF 7F 33  ....R..........3
1240: 39 31 35 45 0B 80 F0 FF  FF 7F F0 FF FF 7F 33 39  915E..........39
1250: 31 36 09 80 5B 76 80 1D  F0 0F 01 1D F0 0F 01 6A  16..[v.........j
1260: 6E 61 30 2B 1D F0 0F 01  85 80 1C 19 80 23 5D 09  na0+.........#].
1270: 80 19 80 52 0B 80 F0 FF  FF 7F F0 FF FF 7F 33 39  ...R..........39
1280: 31 36 45 0B 80 F0 FF FF  7F F0 FF FF 7F 33 39 31  16E..........391
1290: 37 09 80 1C 30 80 1A 95  1A 1C 0E 80 CD 48 80 F0  7...0........H..
12A0: FF FF 7F F0 FF FF 7F 73  74 70 32 09 80 52 0B 80  .......stp2..R..
12B0: F0 FF FF 7F F0 FF FF 7F  33 39 31 37 45 0B 80 F0  ........3917E...
12C0: FF FF 7F F0 FF FF 7F 30  62 6C 66 09 80 1A 53 1A  .......0blf...S.
12D0: 1A 74 1A 5C 00 09 80 5C  01 09 80 9A 46 00 45 56  .t.\...\....F.EV
12E0: 80 F0 FF FF 7F F0 FF FF  7F 66 64 69 32 09 80 21  .........fdi2..!
12F0: 00                                                .               
```

#### Opcodes

```
  0: 0x0D0D [0x42] SET_CLI_EVENT_CANCEL_DATA()
  1: 0x0D0E [0x1A] CALL_SUBROUTINE(address=0x1A53)
  2: 0x0D11 [0x46] CAMERA_CONTROL: Disable user control
  3: 0x0D13 [0x38] SET_CLIENT_EVENT_MODE(mode=19*)
  4: 0x0D16 [0x92] Prishe (ID: 17821725/0x010FF01D)->Render.Flags3 ^= 0x01
  5: 0x0D1C [0x94] LocalPlayer->Render.Flags3 ^= 0x01
  6: 0x0D22 [0x94] Prishe (ID: 17821725/0x010FF01D)->Render.Flags3 ^= 0x01
  7: 0x0D28 [0xBA] SET_ENTITY_POSITION(entity_id=LocalPlayer, pos_x=520.043*, pos_z=511.747*, pos_y=-500.000*, direction=270.1°*)
  8: 0x0D35 [0xBA] SET_ENTITY_POSITION(entity_id=Prishe (ID: 17821725/0x010FF01D), pos_x=523.117*, pos_z=503.791*, pos_y=-499.999*, direction=270.1°*)
  9: 0x0D42 [0x80] LOAD_WAIT(entity=LocalPlayer)
 10: 0x0D47 [0x80] LOAD_WAIT(entity=Prishe (ID: 17821725/0x010FF01D))
 11: 0x0D4C [0x29] REQ_SET_WAIT(priority=0x10, entity_id=LocalPlayer, tag_num=0x02)
 12: 0x0D53 [0x03] ExtData[1]->WorkLocal[1] = Work_Zone[2]
 13: 0x0D58 [0x1C] WAIT(30* ticks)
 14: 0x0D5B [0x5C] MUSIC_CONTROL: Set Idle (Day) music to song 48*
 15: 0x0D5F [0x5C] MUSIC_CONTROL: Set Idle (Night) music to song 48*
 16: 0x0D63 [0x9A] WAIT_MUSIC_SERVER()
 17: 0x0D64 [0xCD] LOAD_SCHEDULED_TASK_ALT4: Load scheduler "s002" with entities [LocalPlayer, LocalPlayer], work=[8*, 0*]
 18: 0x0D75 [0x45] LOAD_SCHEDULED_TASK: Load scheduler "3900" with entities [LocalPlayer, LocalPlayer], work=[560*, 0*]
 19: 0x0D86 [0x1A] CALL_SUBROUTINE(address=0x1A32)
 20: 0x0D89 [0x1C] WAIT(120* ticks)
 21: 0x0D8C [0x79] LocalPlayer looks at Unknown NPC (ID: 2148106346/0x8009806A) (Direct axis set)
 22: 0x0D96 [0x1C] WAIT(180* ticks)
 23: 0x0D99 [0x52] END_LOAD_SCHEDULER: End scheduler "3900" with entities [LocalPlayer, LocalPlayer], work=560*
 24: 0x0DA8 [0x45] LOAD_SCHEDULED_TASK: Load scheduler "3901" with entities [LocalPlayer, LocalPlayer], work=[560*, 0*]
 25: 0x0DB9 [0x27] REQ_SET(priority=0x10, entity_id=Prishe (ID: 17821725/0x010FF01D), tag_num=0x0C)
 26: 0x0DC0 [0x1C] WAIT(30* ticks)
 27: 0x0DC3 [0x2B] Prishe (ID: 17821725/0x010FF01D) [8132*]:
    → "You did it, <Player>!"
 28: 0x0DCA [0x1C] WAIT(30* ticks)
 29: 0x0DCD [0x4A] LocalPlayer looks at Prishe (ID: 17821725/0x010FF01D)
 30: 0x0DD6 [0x23] WAIT_FOR_DIALOG_INTERACTION
 31: 0x0DD7 [0x2A] GET_REQ_LEVEL(level=16, entity_id=Prishe (ID: 17821725/0x010FF01D))
 32: 0x0DDD [0x52] END_LOAD_SCHEDULER: End scheduler "3901" with entities [LocalPlayer, LocalPlayer], work=560*
 33: 0x0DEC [0x45] LOAD_SCHEDULED_TASK: Load scheduler "3902" with entities [LocalPlayer, LocalPlayer], work=[560*, 0*]
 34: 0x0DFD [0x1C] WAIT(30* ticks)
 35: 0x0E00 [0x2B] Prishe (ID: 17821725/0x010FF01D) [8133*]:
    → "I always knew you could do it, but still, I was on pins and needles the whole time. I'd already lost you once before, after all."
 36: 0x0E07 [0x23] WAIT_FOR_DIALOG_INTERACTION
 37: 0x0E08 [0x5B] LOAD_EXT_SCHEDULER: Load scheduler "std0" with entities [Prishe (ID: 17821725/0x010FF01D), Prishe (ID: 17821725/0x010FF01D)], work=479*
 38: 0x0E17 [0x2B] Prishe (ID: 17821725/0x010FF01D) [8134*]:
    → "It's just as I feared, though. Defeating a god won't turn back time--won't undo all the damage in the blink of an eye. Those who were taken won't be coming back, while those who remain will have to rebuild their world the old-fashioned way."
 39: 0x0E1E [0x23] WAIT_FOR_DIALOG_INTERACTION
 40: 0x0E1F [0x2B] Prishe (ID: 17821725/0x010FF01D) [8135*]:
    → "You see the ring of red in the sky, <Player>? That there's the mothercrystal, shattered all to pieces once again."
 41: 0x0E26 [0x1C] WAIT(60* ticks)
 42: 0x0E29 [0x52] END_LOAD_SCHEDULER: End scheduler "3902" with entities [LocalPlayer, LocalPlayer], work=560*
 43: 0x0E38 [0x45] LOAD_SCHEDULED_TASK: Load scheduler "3903" with entities [LocalPlayer, LocalPlayer], work=[560*, 0*]
 44: 0x0E49 [0x1C] WAIT(60* ticks)
 45: 0x0E4C [0xBA] SET_ENTITY_POSITION(entity_id=LocalPlayer, pos_x=520.043*, pos_z=511.747*, pos_y=-500.000*, direction=180.0°*)
 46: 0x0E59 [0x79] LocalPlayer looks at Unknown NPC (ID: 2148106346/0x8009806A) (Direct axis set)
 47: 0x0E63 [0x5B] LOAD_EXT_SCHEDULER: Load scheduler "pa04" with entities [Prishe (ID: 17821725/0x010FF01D), Prishe (ID: 17821725/0x010FF01D)], work=692*
 48: 0x0E72 [0x1C] WAIT(180* ticks)
 49: 0x0E75 [0x23] WAIT_FOR_DIALOG_INTERACTION
 50: 0x0E76 [0x52] END_LOAD_SCHEDULER: End scheduler "3903" with entities [LocalPlayer, LocalPlayer], work=560*
 51: 0x0E85 [0x45] LOAD_SCHEDULED_TASK: Load scheduler "3904" with entities [LocalPlayer, LocalPlayer], work=[560*, 0*]
 52: 0x0E96 [0x1C] WAIT(30* ticks)
 53: 0x0E99 [0x2B] Prishe (ID: 17821725/0x010FF01D) [8136*]:
    → "Do you notice?"
 54: 0x0EA0 [0x23] WAIT_FOR_DIALOG_INTERACTION
 55: 0x0EA1 [0x2B] Prishe (ID: 17821725/0x010FF01D) [8137*]:
    → "Promathia's gone, but neither can I hear the voice of the Goddess. I'm sure she's grieving in silence even as we speak."
 56: 0x0EA8 [0x23] WAIT_FOR_DIALOG_INTERACTION
 57: 0x0EA9 [0x52] END_LOAD_SCHEDULER: End scheduler "3904" with entities [LocalPlayer, LocalPlayer], work=560*
 58: 0x0EB8 [0x45] LOAD_SCHEDULED_TASK: Load scheduler "3905" with entities [LocalPlayer, LocalPlayer], work=[560*, 0*]
 59: 0x0EC9 [0x1C] WAIT(60* ticks)
 60: 0x0ECC [0x2B] Prishe (ID: 17821725/0x010FF01D) [8138*]:
    → "There's no cause for concern, though. As long as mankind lives on, so too will the gods that gave birth to us."
 61: 0x0ED3 [0x1C] WAIT(30* ticks)
 62: 0x0ED6 [0x6B] STOP_AND_IDLE: Prishe (ID: 17821725/0x010FF01D) stops current action and resets to idle (animation="idl0")
 63: 0x0EDF [0x1C] WAIT(90* ticks)
 64: 0x0EE2 [0x23] WAIT_FOR_DIALOG_INTERACTION
 65: 0x0EE3 [0x27] REQ_SET(priority=0x10, entity_id=Prishe (ID: 17821725/0x010FF01D), tag_num=0x0D)
 66: 0x0EEA [0x2B] Prishe (ID: 17821725/0x010FF01D) [8139*]:
    → "When her champions fell to Promathia, Abyssea was forced onto a new path, one with eventualities far departed from before."
 67: 0x0EF1 [0x52] END_LOAD_SCHEDULER: End scheduler "3905" with entities [LocalPlayer, LocalPlayer], work=560*
 68: 0x0F00 [0x02] IF !(ExtData[1]->WorkLocal[1] == 5*) GOTO 0x0F1C
 69: 0x0F08 [0x45] LOAD_SCHEDULED_TASK: Load scheduler "3907" with entities [LocalPlayer, LocalPlayer], work=[560*, 0*]
 70: 0x0F19 [0x01] GOTO 0x0F49
 71: 0x0F1C [0x02] IF !(ExtData[1]->WorkLocal[1] == 6*) GOTO 0x0F38
 72: 0x0F24 [0x45] LOAD_SCHEDULED_TASK: Load scheduler "3907" with entities [LocalPlayer, LocalPlayer], work=[560*, 0*]
 73: 0x0F35 [0x01] GOTO 0x0F49
 74: 0x0F38 [0x45] LOAD_SCHEDULED_TASK: Load scheduler "3906" with entities [LocalPlayer, LocalPlayer], work=[560*, 0*]

SUBROUTINE_0F49:
 75: 0x0F49 [0x1C] WAIT(30* ticks)
 76: 0x0F4C [0x4A] LocalPlayer looks at Prishe (ID: 17821725/0x010FF01D)
 77: 0x0F55 [0x1C] WAIT(90* ticks)
 78: 0x0F58 [0x23] WAIT_FOR_DIALOG_INTERACTION
 79: 0x0F59 [0x2A] GET_REQ_LEVEL(level=16, entity_id=Prishe (ID: 17821725/0x010FF01D))
 80: 0x0F5F [0x2B] Prishe (ID: 17821725/0x010FF01D) [8140*]:
    → "Things may never be the same again, but I still mean to put to good use the long life I've been given. I'm going to stay here and keep watch over the world, see where it's headed."
 81: 0x0F66 [0x23] WAIT_FOR_DIALOG_INTERACTION
 82: 0x0F67 [0x4A] LocalPlayer looks at Prishe (ID: 17821725/0x010FF01D)
 83: 0x0F70 [0x52] END_LOAD_SCHEDULER: End scheduler "3906" with entities [LocalPlayer, LocalPlayer], work=560*
 84: 0x0F7F [0x52] END_LOAD_SCHEDULER: End scheduler "3907" with entities [LocalPlayer, LocalPlayer], work=560*
 85: 0x0F8E [0x45] LOAD_SCHEDULED_TASK: Load scheduler "3908" with entities [LocalPlayer, LocalPlayer], work=[560*, 0*]
 86: 0x0F9F [0x5B] LOAD_EXT_SCHEDULER: Load scheduler "hnd0" with entities [Prishe (ID: 17821725/0x010FF01D), Prishe (ID: 17821725/0x010FF01D)], work=621*
 87: 0x0FAE [0x03] Work_Zone[2] = 180*
 88: 0x0FB3 [0x27] REQ_SET(priority=0x10, entity_id=??? (ID: 17821727/0x010FF01F), tag_num=0x01)
 89: 0x0FBA [0x2B] Prishe (ID: 17821725/0x010FF01D) [8141*]:
    → "You'd have to go a long way to find a better view than here. Don't you think, <Player>?"
 90: 0x0FC1 [0x23] WAIT_FOR_DIALOG_INTERACTION
 91: 0x0FC2 [0x2A] GET_REQ_LEVEL(level=16, entity_id=??? (ID: 17821727/0x010FF01F))
 92: 0x0FC8 [0x6E] LocalPlayer uses emote 6*
 93: 0x0FCF [0x99] Wait for LocalPlayer animation to complete
 94: 0x0FD4 [0x1C] WAIT(30* ticks)
 95: 0x0FD7 [0x5B] LOAD_EXT_SCHEDULER: Load scheduler "par4" with entities [Prishe (ID: 17821725/0x010FF01D), Prishe (ID: 17821725/0x010FF01D)], work=795*
 96: 0x0FE6 [0x1C] WAIT(60* ticks)
 97: 0x0FE9 [0x52] END_LOAD_SCHEDULER: End scheduler "3908" with entities [LocalPlayer, LocalPlayer], work=560*
 98: 0x0FF8 [0x45] LOAD_SCHEDULED_TASK: Load scheduler "3909" with entities [LocalPlayer, LocalPlayer], work=[560*, 0*]
 99: 0x1009 [0x1C] WAIT(30* ticks)
100: 0x100C [0x2B] Prishe (ID: 17821725/0x010FF01D) [8142*]:
    → "Wh-what's with the sidelong glance? Cut it out already! Spells and curses have no effect on me, let alone words and stares!"
101: 0x1013 [0x1C] WAIT(120* ticks)
102: 0x1016 [0x23] WAIT_FOR_DIALOG_INTERACTION
103: 0x1017 [0x5B] LOAD_EXT_SCHEDULER: Load scheduler "tbo0" with entities [Prishe (ID: 17821725/0x010FF01D), Prishe (ID: 17821725/0x010FF01D)], work=481*
104: 0x1026 [0x03] Work_Zone[2] = 240*
105: 0x102B [0x27] REQ_SET(priority=0x10, entity_id=??? (ID: 17821727/0x010FF01F), tag_num=0x01)
106: 0x1032 [0x52] END_LOAD_SCHEDULER: End scheduler "3909" with entities [LocalPlayer, LocalPlayer], work=560*
107: 0x1041 [0x45] LOAD_SCHEDULED_TASK: Load scheduler "3910" with entities [LocalPlayer, LocalPlayer], work=[560*, 0*]
108: 0x1052 [0x1C] WAIT(30* ticks)
109: 0x1055 [0x2B] Prishe (ID: 17821725/0x010FF01D) [8143*]:
    → "If this is the moon we're standing on, then that thing a hojillion malms away must be Abyssea."
110: 0x105C [0x23] WAIT_FOR_DIALOG_INTERACTION
111: 0x105D [0x2A] GET_REQ_LEVEL(level=16, entity_id=??? (ID: 17821727/0x010FF01F))
112: 0x1063 [0x5B] LOAD_EXT_SCHEDULER: Load scheduler "tbo1" with entities [Prishe (ID: 17821725/0x010FF01D), Prishe (ID: 17821725/0x010FF01D)], work=481*
113: 0x1072 [0x1C] WAIT(90* ticks)
114: 0x1075 [0x4A] Prishe (ID: 17821725/0x010FF01D) looks at LocalPlayer
115: 0x107E [0x52] END_LOAD_SCHEDULER: End scheduler "3910" with entities [LocalPlayer, LocalPlayer], work=560*
116: 0x108D [0x45] LOAD_SCHEDULED_TASK: Load scheduler "3911" with entities [LocalPlayer, LocalPlayer], work=[560*, 0*]
117: 0x109E [0x7B] Prishe (ID: 17821725/0x010FF01D) stops talking
118: 0x10A3 [0x1C] WAIT(30* ticks)
119: 0x10A6 [0x2B] Prishe (ID: 17821725/0x010FF01D) [8144*]:
    → "It's as round as the moon, and even more beautiful, I reckon."
120: 0x10AD [0x1C] WAIT(120* ticks)
121: 0x10B0 [0x23] WAIT_FOR_DIALOG_INTERACTION
122: 0x10B1 [0x5B] LOAD_EXT_SCHEDULER: Load scheduler "tle0" with entities [Prishe (ID: 17821725/0x010FF01D), Prishe (ID: 17821725/0x010FF01D)], work=475*
123: 0x10C0 [0x03] Work_Zone[2] = 120*
124: 0x10C5 [0x27] REQ_SET(priority=0x10, entity_id=??? (ID: 17821727/0x010FF01F), tag_num=0x01)
125: 0x10CC [0x2B] Prishe (ID: 17821725/0x010FF01D) [8145*]:
    → "This place, though, holds special meaning for me. After all, it's where I fought my last battle beside my friends."
126: 0x10D3 [0x23] WAIT_FOR_DIALOG_INTERACTION
127: 0x10D4 [0x2A] GET_REQ_LEVEL(level=16, entity_id=??? (ID: 17821727/0x010FF01F))
128: 0x10DA [0x5B] LOAD_EXT_SCHEDULER: Load scheduler "tle1" with entities [Prishe (ID: 17821725/0x010FF01D), Prishe (ID: 17821725/0x010FF01D)], work=475*
129: 0x10E9 [0x1C] WAIT(30* ticks)
130: 0x10EC [0x2B] Prishe (ID: 17821725/0x010FF01D) [8146*]:
    → "If I left, I'd be making a lot of people sad. I can't be doing that now, can I?"
131: 0x10F3 [0x1C] WAIT(150* ticks)
132: 0x10F6 [0x23] WAIT_FOR_DIALOG_INTERACTION
133: 0x10F7 [0x52] END_LOAD_SCHEDULER: End scheduler "3911" with entities [LocalPlayer, LocalPlayer], work=560*
134: 0x1106 [0x45] LOAD_SCHEDULED_TASK: Load scheduler "3912" with entities [LocalPlayer, LocalPlayer], work=[560*, 0*]
135: 0x1117 [0x5B] LOAD_EXT_SCHEDULER: Load scheduler "ch20" with entities [Prishe (ID: 17821725/0x010FF01D), Prishe (ID: 17821725/0x010FF01D)], work=623*
136: 0x1126 [0x1C] WAIT(60* ticks)
137: 0x1129 [0x2B] Prishe (ID: 17821725/0x010FF01D) [8147*]:
    → "And that's why I have to stay."
138: 0x1130 [0x23] WAIT_FOR_DIALOG_INTERACTION
139: 0x1131 [0x52] END_LOAD_SCHEDULER: End scheduler "3912" with entities [LocalPlayer, LocalPlayer], work=560*
140: 0x1140 [0x45] LOAD_SCHEDULED_TASK: Load scheduler "3913" with entities [LocalPlayer, LocalPlayer], work=[560*, 0*]
141: 0x1151 [0x27] REQ_SET(priority=0x10, entity_id=Prishe (ID: 17821725/0x010FF01D), tag_num=0x0E)
142: 0x1158 [0x1C] WAIT(30* ticks)
143: 0x115B [0x4A] LocalPlayer looks at Prishe (ID: 17821725/0x010FF01D)
144: 0x1164 [0x2A] GET_REQ_LEVEL(level=16, entity_id=Prishe (ID: 17821725/0x010FF01D))
145: 0x116A [0x1C] WAIT(30* ticks)
146: 0x116D [0x2B] Prishe (ID: 17821725/0x010FF01D) [8148*]:
    → "Rough days are still ahead for Abyssea, and it pains me that I won't be around to help out."
147: 0x1174 [0x23] WAIT_FOR_DIALOG_INTERACTION
148: 0x1175 [0x4A] Prishe (ID: 17821725/0x010FF01D) looks at LocalPlayer
149: 0x117E [0x7B] Prishe (ID: 17821725/0x010FF01D) stops talking
150: 0x1183 [0x52] END_LOAD_SCHEDULER: End scheduler "3913" with entities [LocalPlayer, LocalPlayer], work=560*
151: 0x1192 [0x45] LOAD_SCHEDULED_TASK: Load scheduler "3914" with entities [LocalPlayer, LocalPlayer], work=[560*, 0*]
152: 0x11A3 [0x6F] WAIT_FRAME_DELAY: Yield until WaitTime reaches zero
153: 0x11A4 [0x76] CHECK_ENTITY_RENDER_FLAGS: Wait until Prishe (ID: 17821725/0x010FF01D) Render.Flags0 and Render.Flags3 conditions are met
154: 0x11A9 [0x1C] WAIT(30* ticks)
155: 0x11AC [0x2B] Prishe (ID: 17821725/0x010FF01D) [8149*]:
    → "But with you on the job, I know I've got nothing to worry about."
156: 0x11B3 [0x23] WAIT_FOR_DIALOG_INTERACTION
157: 0x11B4 [0x5B] LOAD_EXT_SCHEDULER: Load scheduler "tlf0" with entities [Prishe (ID: 17821725/0x010FF01D), Prishe (ID: 17821725/0x010FF01D)], work=479*
158: 0x11C3 [0x03] Work_Zone[2] = 120*
159: 0x11C8 [0x27] REQ_SET(priority=0x10, entity_id=??? (ID: 17821727/0x010FF01F), tag_num=0x01)
160: 0x11CF [0x2B] Prishe (ID: 17821725/0x010FF01D) [8150*]:
    → "When you get back, I want you to deliver a message to the cardinal. Tell her that I'm alive, and in strapping shape as always."
161: 0x11D6 [0x23] WAIT_FOR_DIALOG_INTERACTION
162: 0x11D7 [0x2A] GET_REQ_LEVEL(level=16, entity_id=??? (ID: 17821727/0x010FF01F))
163: 0x11DD [0x5B] LOAD_EXT_SCHEDULER: Load scheduler "tfhc" with entities [Prishe (ID: 17821725/0x010FF01D), Prishe (ID: 17821725/0x010FF01D)], work=479*
164: 0x11EC [0x03] Work_Zone[2] = 180*
165: 0x11F1 [0x27] REQ_SET(priority=0x10, entity_id=??? (ID: 17821727/0x010FF01F), tag_num=0x01)
166: 0x11F8 [0x1C] WAIT(60* ticks)
167: 0x11FB [0x2B] Prishe (ID: 17821725/0x010FF01D) [8151*]:
    → "Tell her also...that I'm sorry."
168: 0x1202 [0x23] WAIT_FOR_DIALOG_INTERACTION
169: 0x1203 [0x52] END_LOAD_SCHEDULER: End scheduler "3914" with entities [LocalPlayer, LocalPlayer], work=560*
170: 0x1212 [0x45] LOAD_SCHEDULED_TASK: Load scheduler "3915" with entities [LocalPlayer, LocalPlayer], work=[560*, 0*]
171: 0x1223 [0x1C] WAIT(120* ticks)
172: 0x1226 [0x2B] Prishe (ID: 17821725/0x010FF01D) [8152*]:
    → "Folk would call me improper to send a god-slayer as my errand [boy/girl]. But as you can see, there's no one else around I can ask to do this favor."
173: 0x122D [0x23] WAIT_FOR_DIALOG_INTERACTION
174: 0x122E [0x2A] GET_REQ_LEVEL(level=16, entity_id=??? (ID: 17821727/0x010FF01F))
175: 0x1234 [0x52] END_LOAD_SCHEDULER: End scheduler "3915" with entities [LocalPlayer, LocalPlayer], work=560*
176: 0x1243 [0x45] LOAD_SCHEDULED_TASK: Load scheduler "3916" with entities [LocalPlayer, LocalPlayer], work=[560*, 0*]
177: 0x1254 [0x5B] LOAD_EXT_SCHEDULER: Load scheduler "jna0" with entities [Prishe (ID: 17821725/0x010FF01D), Prishe (ID: 17821725/0x010FF01D)], work=621*
178: 0x1263 [0x2B] Prishe (ID: 17821725/0x010FF01D) [8153*]:
    → "We may be of different worlds, but ours is a friendship of dimension transcending! Go well, <Player>, and thank you. I hope it won't be long before we meet again."
179: 0x126A [0x1C] WAIT(180* ticks)
180: 0x126D [0x23] WAIT_FOR_DIALOG_INTERACTION
181: 0x126E [0x5D] SET_MUSIC_VOLUME(volume=0*, fade_time=180*)
182: 0x1273 [0x52] END_LOAD_SCHEDULER: End scheduler "3916" with entities [LocalPlayer, LocalPlayer], work=560*
183: 0x1282 [0x45] LOAD_SCHEDULED_TASK: Load scheduler "3917" with entities [LocalPlayer, LocalPlayer], work=[560*, 0*]
184: 0x1293 [0x1C] WAIT(240* ticks)
185: 0x1296 [0x1A] CALL_SUBROUTINE(address=0x1A95)
186: 0x1299 [0x1C] WAIT(60* ticks)
187: 0x129C [0xCD] LOAD_SCHEDULED_TASK_ALT4: Load scheduler "stp2" with entities [LocalPlayer, LocalPlayer], work=[8*, 0*]
188: 0x12AD [0x52] END_LOAD_SCHEDULER: End scheduler "3917" with entities [LocalPlayer, LocalPlayer], work=560*
189: 0x12BC [0x45] LOAD_SCHEDULED_TASK: Load scheduler "0blf" with entities [LocalPlayer, LocalPlayer], work=[560*, 0*]
190: 0x12CD [0x1A] CALL_SUBROUTINE(address=0x1A53)
191: 0x12D0 [0x1A] CALL_SUBROUTINE(address=0x1A74)
192: 0x12D3 [0x5C] MUSIC_CONTROL: Set Idle (Day) music to song 0*
193: 0x12D7 [0x5C] MUSIC_CONTROL: Set Idle (Night) music to song 0*
194: 0x12DB [0x9A] WAIT_MUSIC_SERVER()
195: 0x12DC [0x46] CAMERA_CONTROL: Restore default settings
196: 0x12DE [0x45] LOAD_SCHEDULED_TASK: Load scheduler "fdi2" with entities [LocalPlayer, LocalPlayer], work=[200*, 0*]
197: 0x12EF [0x21] END_EVENT
198: 0x12F0 [0x00] END_REQSTACK()
```

### Event 204

#### Metadata

| Field        | Value      |
|--------------|------------|
| Entrypoint   | 0x12F1     |
| Data Size    | 2448 bytes |
| Instructions | 239        |

```
      00 01 02 03 04 05 06 07  08 09 0A 0B 0C 0D 0E 0F
      -- -- -- -- -- -- -- --  -- -- -- -- -- -- -- --
12F0:    42 1A 53 1A 46 01 38  00 80 92 01 1D F0 0F 01   B.S.F.8........
1300: 94 01 F0 FF FF 7F 94 01  1D F0 0F 01 BA F0 FF FF  ................
1310: 7F 86 80 87 80 04 80 88  80 80 F0 FF FF 7F 80 1D  ................
1320: F0 0F 01 4A 1D F0 0F 01  F0 FF FF 7F 7B 1D F0 0F  ...J........{...
1330: 01 4A F0 FF FF 7F 1D F0  0F 01 6F 76 F0 FF FF 7F  .J........ov....
1340: 1C 0A 80 45 0B 80 F0 FF  FF 7F F0 FF FF 7F 33 63  ...E..........3c
1350: 30 30 09 80 1A 32 1A 5B  7C 80 1D F0 0F 01 1D F0  00...2.[|.......
1360: 0F 01 74 6C 64 30 03 02  10 0D 80 27 10 1F F0 0F  ..tld0.....'....
1370: 01 01 1C 0A 80 2B 1D F0  0F 01 89 80 23 2A 10 1F  .....+......#*..
1380: F0 0F 01 5C 00 8A 80 5C  01 8A 80 9A 5B 79 80 1D  ...\...\....[y..
1390: F0 0F 01 1D F0 0F 01 74  62 6F 30 03 02 10 19 80  .......tbo0.....
13A0: 27 10 1F F0 0F 01 01 1C  0A 80 52 0B 80 F0 FF FF  '.........R.....
13B0: 7F F0 FF FF 7F 33 63 30  30 45 0B 80 F0 FF FF 7F  .....3c00E......
13C0: F0 FF FF 7F 33 63 30 31  09 80 2B 1D F0 0F 01 8B  ....3c01..+.....
13D0: 80 23 2B 1D F0 0F 01 8C  80 23 2A 10 1F F0 0F 01  .#+......#*.....
13E0: 5B 8D 80 1D F0 0F 01 1D  F0 0F 01 6F 72 61 30 1C  [..........ora0.
13F0: 0A 80 52 0B 80 F0 FF FF  7F F0 FF FF 7F 33 63 30  ..R..........3c0
1400: 31 45 0B 80 F0 FF FF 7F  F0 FF FF 7F 33 63 30 32  1E..........3c02
1410: 09 80 CD 16 80 F8 FF FF  7F F8 FF FF 7F 73 30 30  .............s00
1420: 33 09 80 1C 0A 80 CD 16  80 F8 FF FF 7F F8 FF FF  3...............
1430: 7F 73 74 30 33 09 80 2B  1D F0 0F 01 8E 80 6E F0  .st03..+......n.
1440: FF FF 7F 8F 80 99 F0 FF  FF 7F 5C 00 09 80 5C 01  ..........\...\.
1450: 09 80 9A 23 52 0B 80 F0  FF FF 7F F0 FF FF 7F 33  ...#R..........3
1460: 63 30 32 45 0B 80 F0 FF  FF 7F F0 FF FF 7F 33 63  c02E..........3c
1470: 30 33 09 80 7C 00 1D F0  0F 01 2B 1D F0 0F 01 23  03..|.....+....#
1480: 80 23 7C 01 1D F0 0F 01  5B 8D 80 1D F0 0F 01 1D  .#|.....[.......
1490: F0 0F 01 6F 72 61 32 1C  17 80 2B 1D F0 0F 01 90  ...ora2...+.....
14A0: 80 23 2B 1D F0 0F 01 91  80 23 52 0B 80 F0 FF FF  .#+......#R.....
14B0: 7F F0 FF FF 7F 33 63 30  33 45 0B 80 F0 FF FF 7F  .....3c03E......
14C0: F0 FF FF 7F 33 63 30 34  09 80 5B 92 80 1D F0 0F  ....3c04..[.....
14D0: 01 1D F0 0F 01 6D 6F 6A  30 1C 0A 80 2B 1D F0 0F  .....moj0...+...
14E0: 01 93 80 1C 0D 80 23 1A  53 1A 1C 17 80 6B 69 64  ......#.S....kid
14F0: 6C 30 1D F0 0F 01 BA F0  FF FF 7F 94 80 95 80 04  l0..............
1500: 80 96 80 BA 1D F0 0F 01  97 80 98 80 04 80 66 80  ..............f.
1510: 1C 0A 80 79 00 F0 FF FF  7F F0 FF FF 7F 29 10 F0  ...y.........)..
1520: FF FF 7F 08 5B 35 80 1D  F0 0F 01 1D F0 0F 01 65  ....[5.........e
1530: 70 31 36 48 21 80 23 52  0B 80 F0 FF FF 7F F0 FF  p16H!.#R........
1540: FF 7F 33 63 30 34 45 0B  80 F0 FF FF 7F F0 FF FF  ..3c04E.........
1550: 7F 33 63 30 35 09 80 1A  32 1A 1C 19 80 52 0B 80  .3c05...2....R..
1560: F0 FF FF 7F F0 FF FF 7F  33 63 30 35 45 0B 80 F0  ........3c05E...
1570: FF FF 7F F0 FF FF 7F 33  63 30 36 09 80 2B 1D F0  .......3c06..+..
1580: 0F 01 99 80 1C 9A 80 23  5C 00 29 80 5C 01 29 80  .......#\.).\.).
1590: 9A 52 0B 80 F0 FF FF 7F  F0 FF FF 7F 33 63 30 36  .R..........3c06
15A0: 45 0B 80 F0 FF FF 7F F0  FF FF 7F 33 63 30 38 09  E..........3c08.
15B0: 80 1C 0E 80 2B 1D F0 0F  01 9B 80 1C 19 80 23 52  ....+.........#R
15C0: 0B 80 F0 FF FF 7F F0 FF  FF 7F 33 63 30 38 29 10  ..........3c08).
15D0: F0 FF FF 7F 02 02 02 10  01 80 80 F1 15 45 0B 80  .............E..
15E0: F0 FF FF 7F F0 FF FF 7F  33 63 68 6D 09 80 01 B5  ........3chm....
15F0: 16 02 02 10 45 80 80 0D  16 45 0B 80 F0 FF FF 7F  ....E....E......
1600: F0 FF FF 7F 33 63 68 66  09 80 01 B5 16 02 02 10  ....3chf........
1610: 46 80 80 29 16 45 0B 80  F0 FF FF 7F F0 FF FF 7F  F..).E..........
1620: 33 63 65 6D 09 80 01 B5  16 02 02 10 47 80 80 45  3cem........G..E
1630: 16 45 0B 80 F0 FF FF 7F  F0 FF FF 7F 33 63 65 66  .E..........3cef
1640: 09 80 01 B5 16 02 02 10  2A 80 80 61 16 45 0B 80  ........*..a.E..
1650: F0 FF FF 7F F0 FF FF 7F  33 63 74 72 09 80 01 B5  ........3ctr....
1660: 16 02 02 10 2B 80 80 7D  16 45 0B 80 F0 FF FF 7F  ....+..}.E......
1670: F0 FF FF 7F 33 63 74 72  09 80 01 B5 16 02 02 10  ....3ctr........
1680: 16 80 80 99 16 45 0B 80  F0 FF FF 7F F0 FF FF 7F  .....E..........
1690: 33 63 6D 74 09 80 01 B5  16 02 02 10 48 80 80 B5  3cmt........H...
16A0: 16 45 0B 80 F0 FF FF 7F  F0 FF FF 7F 33 63 67 6C  .E..........3cgl
16B0: 09 80 01 B5 16 1C 0A 80  6B 69 64 6C 30 1D F0 0F  ........kidl0...
16C0: 01 1C 0D 80 52 0B 80 F0  FF FF 7F F0 FF FF 7F 33  ....R..........3
16D0: 63 68 6D 52 0B 80 F0 FF  FF 7F F0 FF FF 7F 33 63  chmR..........3c
16E0: 68 66 52 0B 80 F0 FF FF  7F F0 FF FF 7F 33 63 65  hfR..........3ce
16F0: 6D 52 0B 80 F0 FF FF 7F  F0 FF FF 7F 33 63 65 66  mR..........3cef
1700: 52 0B 80 F0 FF FF 7F F0  FF FF 7F 33 63 74 72 52  R..........3ctrR
1710: 0B 80 F0 FF FF 7F F0 FF  FF 7F 33 63 6D 74 52 0B  ..........3cmtR.
1720: 80 F0 FF FF 7F F0 FF FF  7F 33 63 67 6C 45 0B 80  .........3cglE..
1730: F0 FF FF 7F F0 FF FF 7F  33 63 30 39 09 80 2B 1D  ........3c09..+.
1740: F0 0F 01 9C 80 23 4A 1D  F0 0F 01 F0 FF FF 7F 7B  .....#J........{
1750: 1D F0 0F 01 5D 09 80 9A  80 2B 1D F0 0F 01 9D 80  ....]....+......
1760: 1C 0E 80 27 10 F0 FF FF  7F 09 1C 0A 80 52 0B 80  ...'.........R..
1770: F0 FF FF 7F F0 FF FF 7F  33 63 30 39 45 0B 80 F0  ........3c09E...
1780: FF FF 7F F0 FF FF 7F 33  63 31 30 09 80 1C 17 80  .......3c10.....
1790: 4A F0 FF FF 7F 1D F0 0F  01 6F 76 F0 FF FF 7F 1C  J........ov.....
17A0: 0A 80 23 2B 1D F0 0F 01  9E 80 23 24 9F 80 09 80  ..#+......#$....
17B0: 09 80 25 02 00 10 09 80  00 CD 17 6E F0 FF FF 7F  ..%........n....
17C0: 16 80 99 F0 FF FF 7F 1C  17 80 01 35 18 02 00 10  ...........5....
17D0: 01 80 00 35 18 6E F0 FF  FF 7F 00 80 99 F0 FF FF  ...5.n..........
17E0: 7F 1C 17 80 27 10 1D F0  0F 01 0A 5B 12 80 1D F0  ....'......[....
17F0: 0F 01 1D F0 0F 01 66 6E  64 30 1C 0A 80 29 10 F0  ......fnd0...)..
1800: FF FF 7F 03 2B 1D F0 0F  01 A0 80 1C 63 80 23 5B  ....+.......c.#[
1810: 12 80 1D F0 0F 01 1D F0  0F 01 66 6E 64 31 53 1D  ..........fnd1S.
1820: F0 0F 01 1D F0 0F 01 66  6E 64 30 27 10 1D F0 0F  .......fnd0'....
1830: 01 0B 01 35 18 5C 00 A1  80 5C 01 A1 80 9A 52 0B  ...5.\...\....R.
1840: 80 F0 FF FF 7F F0 FF FF  7F 33 63 31 30 45 0B 80  .........3c10E..
1850: F0 FF FF 7F F0 FF FF 7F  33 63 31 31 09 80 5B 7C  ........3c11..[|
1860: 80 1D F0 0F 01 1D F0 0F  01 74 6C 64 30 03 02 10  .........tld0...
1870: 10 80 27 10 1F F0 0F 01  01 1C 0A 80 2B 1D F0 0F  ..'.........+...
1880: 01 A2 80 23 2A 10 1F F0  0F 01 52 0B 80 F0 FF FF  ...#*.....R.....
1890: 7F F0 FF FF 7F 33 63 31  31 45 0B 80 F0 FF FF 7F  .....3c11E......
18A0: F0 FF FF 7F 33 63 31 32  09 80 5B 7C 80 1D F0 0F  ....3c12..[|....
18B0: 01 1D F0 0F 01 74 6C 64  31 1C 0A 80 2B 1D F0 0F  .....tld1...+...
18C0: 01 A3 80 23 53 1D F0 0F  01 1D F0 0F 01 74 6C 64  ...#S........tld
18D0: 31 5B A4 80 1D F0 0F 01  1D F0 0F 01 70 61 73 30  1[..........pas0
18E0: 53 1D F0 0F 01 1D F0 0F  01 70 61 73 30 52 0B 80  S........pas0R..
18F0: F0 FF FF 7F F0 FF FF 7F  33 63 31 32 45 0B 80 F0  ........3c12E...
1900: FF FF 7F F0 FF FF 7F 33  63 31 33 09 80 03 02 10  .......3c13.....
1910: A5 80 2B 1D F0 0F 01 A6  80 23 5B 40 80 1D F0 0F  ..+......#[@....
1920: 01 1D F0 0F 01 68 65 6E  30 03 02 10 19 80 27 10  .....hen0.....'.
1930: 1F F0 0F 01 01 1C 0E 80  2B 1D F0 0F 01 A7 80 23  ........+......#
1940: 2A 10 1F F0 0F 01 52 0B  80 F0 FF FF 7F F0 FF FF  *.....R.........
1950: 7F 33 63 31 33 45 0B 80  F0 FF FF 7F F0 FF FF 7F  .3c13E..........
1960: 33 63 31 34 09 80 5B 40  80 1D F0 0F 01 1D F0 0F  3c14..[@........
1970: 01 68 69 61 6D 2B 1D F0  0F 01 A8 80 23 52 0B 80  .hiam+......#R..
1980: F0 FF FF 7F F0 FF FF 7F  33 63 31 34 45 0B 80 F0  ........3c14E...
1990: FF FF 7F F0 FF FF 7F 33  63 31 35 09 80 6E F0 FF  .......3c15..n..
19A0: FF 7F 16 80 99 F0 FF FF  7F 1C 19 80 1A 53 1A 1C  .............S..
19B0: 0A 80 52 0B 80 F0 FF FF  7F F0 FF FF 7F 33 63 31  ..R..........3c1
19C0: 35 45 0B 80 F0 FF FF 7F  F0 FF FF 7F 30 62 6C 66  5E..........0blf
19D0: 09 80 5C 00 09 80 5C 01  09 80 9A 46 00 45 56 80  ..\...\....F.EV.
19E0: F0 FF FF 7F F0 FF FF 7F  66 64 69 32 09 80 21 00  ........fdi2..!.
19F0: 45 56 80 F0 FF FF 7F F0  FF FF 7F 66 64 69 30 09  EV.........fdi0.
1A00: 80 55 56 80 F0 FF FF 7F  F0 FF FF 7F 66 64 69 30  .UV.........fdi0
1A10: 1B 45 56 80 F0 FF FF 7F  F0 FF FF 7F 66 64 6F 30  .EV.........fdo0
1A20: 09 80 55 56 80 F0 FF FF  7F F0 FF FF 7F 66 64 6F  ..UV.........fdo
1A30: 30 1B 45 56 80 F0 FF FF  7F F0 FF FF 7F 66 64 69  0.EV.........fdi
1A40: 31 09 80 55 56 80 F0 FF  FF 7F F0 FF FF 7F 66 64  1..UV.........fd
1A50: 69 31 1B 45 56 80 F0 FF  FF 7F F0 FF FF 7F 66 64  i1.EV.........fd
1A60: 6F 31 09 80 55 56 80 F0  FF FF 7F F0 FF FF 7F 66  o1..UV.........f
1A70: 64 6F 31 1B 45 A9 80 F0  FF FF 7F F0 FF FF 7F 77  do1.E..........w
1A80: 68 69 31 09 80 55 A9 80  F0 FF FF 7F F0 FF FF 7F  hi1..U..........
1A90: 77 68 69 31 1B 45 A9 80  F0 FF FF 7F F0 FF FF 7F  whi1.E..........
1AA0: 77 68 6F 31 09 80 55 A9  80 F0 FF FF 7F F0 FF FF  who1..U.........
1AB0: 7F 77 68 6F 31 1B 45 A9  80 F0 FF FF 7F F0 FF FF  .who1.E.........
1AC0: 7F 77 68 6F 32 09 80 55  A9 80 F0 FF FF 7F F0 FF  .who2..U........
1AD0: FF 7F 77 68 6F 32 1B 45  A9 80 F0 FF FF 7F F0 FF  ..who2.E........
1AE0: FF 7F 77 68 6F 33 09 80  55 A9 80 F0 FF FF 7F F0  ..who3..U.......
1AF0: FF FF 7F 77 68 6F 33 1B  62 01 80 F0 FF FF 7F F0  ...who3.b.......
1B00: FF FF 7F 6D 61 69 6E 09  80 1C 29 80 45 56 80 F0  ...main...).EV..
1B10: FF FF 7F F0 FF FF 7F 66  64 6F 31 09 80 55 56 80  .......fdo1..UV.
1B20: F0 FF FF 7F F0 FF FF 7F  66 64 6F 31 1B 45 56 80  ........fdo1.EV.
1B30: F0 FF FF 7F F0 FF FF 7F  66 64 69 31 09 80 62 45  ........fdi1..bE
1B40: 80 F0 FF FF 7F F0 FF FF  7F 6D 61 69 6E 09 80 1C  .........main...
1B50: 0A 80 55 56 80 F0 FF FF  7F F0 FF FF 7F 66 64 69  ..UV.........fdi
1B60: 31 1B 45 56 80 F0 FF FF  7F F0 FF FF 7F 62 6C 6F  1.EV.........blo
1B70: 6E 09 80 45 A9 80 F0 FF  FF 7F F0 FF FF 7F 62 6C  n..E..........bl
1B80: 6F 6E 09 80 1B 45 A9 80  F0 FF FF 7F F0 FF FF 7F  on...E..........
1B90: 77 68 69 30 09 80 55 A9  80 F0 FF FF 7F F0 FF FF  whi0..U.........
1BA0: 7F 77 68 69 30 1B 45 A9  80 F0 FF FF 7F F0 FF FF  .whi0.E.........
1BB0: 7F 77 68 6F 30 09 80 55  A9 80 F0 FF FF 7F F0 FF  .who0..U........
1BC0: FF 7F 77 68 6F 30 1B 45  AA 80 F0 FF FF 7F F0 FF  ..who0.E........
1BD0: FF 7F 65 66 6F 6E 09 80  55 AA 80 F0 FF FF 7F F0  ..efon..U.......
1BE0: FF FF 7F 65 66 6F 6E 1B  45 56 80 F0 FF FF 7F F0  ...efon.EV......
1BF0: FF FF 7F 66 64 69 73 09  80 1B 45 56 80 F0 FF FF  ...fdis...EV....
1C00: 7F F0 FF FF 7F 66 64 6F  73 09 80 55 56 80 F0 FF  .....fdos..UV...
1C10: FF 7F F0 FF FF 7F 66 64  6F 73 1B 45 56 80 F0 FF  ......fdos.EV...
1C20: FF 7F F0 FF FF 7F 66 64  69 66 09 80 1B 45 56 80  ......fdif...EV.
1C30: F0 FF FF 7F F0 FF FF 7F  66 64 6F 66 09 80 55 56  ........fdof..UV
1C40: 80 F0 FF FF 7F F0 FF FF  7F 66 64 6F 66 1B 45 56  .........fdof.EV
1C50: 80 F0 FF FF 7F F0 FF FF  7F 66 64 69 70 09 80 1B  .........fdip...
1C60: 45 56 80 F0 FF FF 7F F0  FF FF 7F 66 64 6F 70 09  EV.........fdop.
1C70: 80 55 56 80 F0 FF FF 7F  F0 FF FF 7F 66 64 6F 70  .UV.........fdop
1C80: 1B                                                .               
```

#### Opcodes

```
  0: 0x12F1 [0x42] SET_CLI_EVENT_CANCEL_DATA()
  1: 0x12F2 [0x1A] CALL_SUBROUTINE(address=0x1A53)
  2: 0x12F5 [0x46] CAMERA_CONTROL: Disable user control
  3: 0x12F7 [0x38] SET_CLIENT_EVENT_MODE(mode=19*)
  4: 0x12FA [0x92] Prishe (ID: 17821725/0x010FF01D)->Render.Flags3 ^= 0x01
  5: 0x1300 [0x94] LocalPlayer->Render.Flags3 ^= 0x01
  6: 0x1306 [0x94] Prishe (ID: 17821725/0x010FF01D)->Render.Flags3 ^= 0x01
  7: 0x130C [0xBA] SET_ENTITY_POSITION(entity_id=LocalPlayer, pos_x=538.330*, pos_z=-590.689*, pos_y=-499.999*, direction=161.8°*)
  8: 0x1319 [0x80] LOAD_WAIT(entity=LocalPlayer)
  9: 0x131E [0x80] LOAD_WAIT(entity=Prishe (ID: 17821725/0x010FF01D))
 10: 0x1323 [0x4A] Prishe (ID: 17821725/0x010FF01D) looks at LocalPlayer
 11: 0x132C [0x7B] Prishe (ID: 17821725/0x010FF01D) stops talking
 12: 0x1331 [0x4A] LocalPlayer looks at Prishe (ID: 17821725/0x010FF01D)
 13: 0x133A [0x6F] WAIT_FRAME_DELAY: Yield until WaitTime reaches zero
 14: 0x133B [0x76] CHECK_ENTITY_RENDER_FLAGS: Wait until LocalPlayer Render.Flags0 and Render.Flags3 conditions are met
 15: 0x1340 [0x1C] WAIT(30* ticks)
 16: 0x1343 [0x45] LOAD_SCHEDULED_TASK: Load scheduler "3c00" with entities [LocalPlayer, LocalPlayer], work=[560*, 0*]
 17: 0x1354 [0x1A] CALL_SUBROUTINE(address=0x1A32)
 18: 0x1357 [0x5B] LOAD_EXT_SCHEDULER: Load scheduler "tld0" with entities [Prishe (ID: 17821725/0x010FF01D), Prishe (ID: 17821725/0x010FF01D)], work=475*
 19: 0x1366 [0x03] Work_Zone[2] = 120*
 20: 0x136B [0x27] REQ_SET(priority=0x10, entity_id=??? (ID: 17821727/0x010FF01F), tag_num=0x01)
 21: 0x1372 [0x1C] WAIT(30* ticks)
 22: 0x1375 [0x2B] Prishe (ID: 17821725/0x010FF01D) [8154*]:
    → "Hey! If it isn't the other <Player>! Did you forget something when you left?"
 23: 0x137C [0x23] WAIT_FOR_DIALOG_INTERACTION
 24: 0x137D [0x2A] GET_REQ_LEVEL(level=16, entity_id=??? (ID: 17821727/0x010FF01F))
 25: 0x1383 [0x5C] MUSIC_CONTROL: Set Idle (Day) music to song 129*
 26: 0x1387 [0x5C] MUSIC_CONTROL: Set Idle (Night) music to song 129*
 27: 0x138B [0x9A] WAIT_MUSIC_SERVER()
 28: 0x138C [0x5B] LOAD_EXT_SCHEDULER: Load scheduler "tbo0" with entities [Prishe (ID: 17821725/0x010FF01D), Prishe (ID: 17821725/0x010FF01D)], work=481*
 29: 0x139B [0x03] Work_Zone[2] = 180*
 30: 0x13A0 [0x27] REQ_SET(priority=0x10, entity_id=??? (ID: 17821727/0x010FF01F), tag_num=0x01)
 31: 0x13A7 [0x1C] WAIT(30* ticks)
 32: 0x13AA [0x52] END_LOAD_SCHEDULER: End scheduler "3c00" with entities [LocalPlayer, LocalPlayer], work=560*
 33: 0x13B9 [0x45] LOAD_SCHEDULED_TASK: Load scheduler "3c01" with entities [LocalPlayer, LocalPlayer], work=[560*, 0*]
 34: 0x13CA [0x2B] Prishe (ID: 17821725/0x010FF01D) [8155*]:
    → "Or perhaps--dare I hope--you came all this way to see little old me? Hmmm?"
 35: 0x13D1 [0x23] WAIT_FOR_DIALOG_INTERACTION
