# 17821710 - Cruor Prospector

## Common Data

| Field            | Value                                |
|------------------|--------------------------------------|
| Zone             | Abyssea - Empyreal Paradox (ID: 255) |
| Block Size       | 9152 bytes                           |
| Total Events     | 2                                    |
| References Count | 132                                  |

## List of Events

| Event ID              | Entrypoint   |   Size |   Instructions |
|-----------------------|--------------|--------|----------------|
| [65535](#event-65535) | 0x0000       |      1 |              1 |
| [2002](#event-2002)   | 0x0001       |   8598 |           1664 |

## DAT References (imed_data)

|   Index | Hex Value   |   Dec Value |
|---------|-------------|-------------|
|       0 | 0x0000      |           0 |
|       1 | 0x1C70      |        7280 |
|       2 | 0x0006      |           6 |
|       3 | 0x0001      |           1 |
|       4 | 0x0002      |           2 |
|       5 | 0x0004      |           4 |
|       6 | 0x1C71      |        7281 |
|       7 | 0x40000000  |  1073741824 |
|       8 | 0x1C72      |        7282 |
|       9 | 0x1C73      |        7283 |
|      10 | 0x1C74      |        7284 |
|      11 | 0x1C75      |        7285 |
|      12 | 0x1C76      |        7286 |
|      13 | 0x1C77      |        7287 |
|      14 | 0x1C78      |        7288 |
|      15 | 0x1C79      |        7289 |
|      16 | 0x000B      |          11 |
|      17 | 0x000A      |          10 |
|      18 | 0x000C      |          12 |
|      19 | 0x0014      |          20 |
|      20 | 0x1C7A      |        7290 |
|      21 | 0x0003      |           3 |
|      22 | 0x0005      |           5 |
|      23 | 0x0007      |           7 |
|      24 | 0x0008      |           8 |
|      25 | 0x0009      |           9 |
|      26 | 0x000D      |          13 |
|      27 | 0x000E      |          14 |
|      28 | 0x000F      |          15 |
|      29 | 0x0010      |          16 |
|      30 | 0x0011      |          17 |
|      31 | 0x0012      |          18 |
|      32 | 0x0013      |          19 |
|      33 | 0x0015      |          21 |
|      34 | 0x0016      |          22 |
|      35 | 0x0017      |          23 |
|      36 | 0x0018      |          24 |
|      37 | 0x0019      |          25 |
|      38 | 0x001A      |          26 |
|      39 | 0x001B      |          27 |
|      40 | 0x001C      |          28 |
|      41 | 0x001D      |          29 |
|      42 | 0x001E      |          30 |
|      43 | 0x1C7F      |        7295 |
|      44 | 0x09BA      |        2490 |
|      45 | 0x01F4      |         500 |
|      46 | 0x09C4      |        2500 |
|      47 | 0x1388      |        5000 |
|      48 | 0x3A98      |       15000 |
|      49 | 0x0032      |          50 |
|      50 | 0x61A8      |       25000 |
|      51 | 0x1C9F      |        7327 |
|      52 | 0x1CA0      |        7328 |
|      53 | 0x001F      |          31 |
|      54 | 0x1C8C      |        7308 |
|      55 | 0x1C81      |        7297 |
|      56 | 0x16C0      |        5824 |
|      57 | 0x0050      |          80 |
|      58 | 0x16C3      |        5827 |
|      59 | 0x106E      |        4206 |
|      60 | 0x1539      |        5433 |
|      61 | 0x0078      |         120 |
|      62 | 0x16CD      |        5837 |
|      63 | 0x16CF      |        5839 |
|      64 | 0x0096      |         150 |
|      65 | 0x16D1      |        5841 |
|      66 | 0x16D3      |        5843 |
|      67 | 0x16C1      |        5825 |
|      68 | 0x00C8      |         200 |
|      69 | 0x16C4      |        5828 |
|      70 | 0x16C6      |        5830 |
|      71 | 0x012C      |         300 |
|      72 | 0x14CA      |        5322 |
|      73 | 0x109F      |        4255 |
|      74 | 0x16CB      |        5835 |
|      75 | 0x153F      |        5439 |
|      76 | 0x16CE      |        5838 |
|      77 | 0x16DD      |        5853 |
|      78 | 0x1E8480    |     2000000 |
|      79 | 0x1C7B      |        7291 |
|      80 | 0x30D40     |      200000 |
|      81 | 0x1C80      |        7296 |
|      82 | 0x1C82      |        7298 |
|      83 | 0x1C7C      |        7292 |
|      84 | 0x0563      |        1379 |
|      85 | 0x1C90      |        7312 |
|      86 | 0x056D      |        1389 |
|      87 | 0x04F7      |        1271 |
|      88 | 0x1C95      |        7317 |
|      89 | 0x056F      |        1391 |
|      90 | 0x1C91      |        7313 |
|      91 | 0x0572      |        1394 |
|      92 | 0x1C92      |        7314 |
|      93 | 0x0575      |        1397 |
|      94 | 0x1C93      |        7315 |
|      95 | 0x0579      |        1401 |
|      96 | 0x1C96      |        7318 |
|      97 | 0x0581      |        1409 |
|      98 | 0x1C94      |        7316 |
|      99 | 0x05A0      |        1440 |
|     100 | 0x1C97      |        7319 |
|     101 | 0x075D      |        1885 |
|     102 | 0x1C98      |        7320 |
|     103 | 0x075E      |        1886 |
|     104 | 0x1C99      |        7321 |
|     105 | 0x075F      |        1887 |
|     106 | 0x1C9A      |        7322 |
|     107 | 0x0760      |        1888 |
|     108 | 0x1C9B      |        7323 |
|     109 | 0x0761      |        1889 |
|     110 | 0x1C9C      |        7324 |
|     111 | 0x0762      |        1890 |
|     112 | 0x1C9D      |        7325 |
|     113 | 0x061C      |        1564 |
|     114 | 0x1C9E      |        7326 |
|     115 | 0x1C83      |        7299 |
|     116 | 0x0064      |         100 |
|     117 | 0x01D6      |         470 |
|     118 | 0x1C7D      |        7293 |
|     119 | 0x1C84      |        7300 |
|     120 | 0x061D      |        1565 |
|     121 | 0x061E      |        1566 |
|     122 | 0x061F      |        1567 |
|     123 | 0x0620      |        1568 |
|     124 | 0x0671      |        1649 |
|     125 | 0x0672      |        1650 |
|     126 | 0x0673      |        1651 |
|     127 | 0x0674      |        1652 |
|     128 | 0x0675      |        1653 |
|     129 | 0x0676      |        1654 |
|     130 | 0x1C7E      |        7294 |
|     131 | 0x1C85      |        7301 |

## String References

- **7280**: Greetings, traveler. I am a resistance officer whose charge is the procurement of cruor. If you would be willing to part with any cruor you possess, I will issue you with helpful items in return.
- **7281**: What will you do? (Cruor balance: $0) [Nothing./Learn about cruor./Exchange for items./Exchange for temporary items./Exchange for key items./Exchange for enhancement effects./Dispose of abyssite.]
- **7282**: Cruor is a naturally occurring mineral found as deposits on creatures native to Abyssea.
- **7283**: Known by some as "blood gold," these red granules are highly prized and see use as both energy source and construction material.
- **7284**: It would be no exaggeration to say that cruor is the lifeblood of the resistance effort. As a matter of fact, the bulk of items I have in stock are cruor-based.
- **7285**: Chief among them being "ancient abyssite," a highly concentrated, doubly valuable form of the stone boasting diverse benefits.
- **7286**: Ancient abyssite has been observed to improve the fortunes and vitality of their possessors, not unlike a good luck talisman.
- **7287**: The most popular varieties offer extended visitant status time, accelerated growth, and myriad enhancement effects. Some are even said to improve luck, but such benefits can be troublesome to measure.
- **7288**: I am limited in the types of ancient abyssite I can issue. The opportunity to acquire rarer varieties, however, will surely visit you during your time in Abyssea.
- **7289**: Besides the issuance of items, I am also authorized to imbue you with enhancement effects.
- **7290**: Select item. (Cruor: $0) [Nothing right now./$1: $2./$3: $4./$5: $6./$7: $8./$9: $10./$11: $12./$13: $14./$15: $16./$17: $18./$19: $20./Previous page./Next page.]
- **7291**: Select item. (Cruor: $0) [Nothing right now./$1: $2./$3: $4./$5: $6./$7: $8./$9: $10./$11: $12./$13: $14./$15: $16./$17: $18./$19: $20./Previous page./Next page.]
- **7292**: Select key item. (Cruor: $0) [Nothing right now./$6: $2./$6: $4./$6: $6./$6: $8./$6: $10./$6: $12./$6: $14./$6: $16./$6: $18./$6: $20./Previous page./Next page.]
- **7293**: Select enhancement. (Cruor: $0) [Nothing for now./Reraise: $1./Protect: $2./Shell: $3./Regen: $4./Refresh: $5./HP boost: $6./MP boost: $7./STR-DEX boost: $8./VIT-AGI boost: $9./INT-MND-CHR boost: $10./All enhancements: $11.]
- **7294**: Discard which one? [None for now./6./$6./$6./$6./$6./$6./$6./$6./$6./$6./$6.]
- **7295**: Trade for $0?
- **7296**: Trade for $0?
- **7297**: Trade for $0? [Yes./No.]
- **7298**: Trade for $0? [Yes./No.]
- **7299**: Trade for $6? [Yes./No.]
- **7300**: [/$3$3C$3Y/$3v$3$3e$3X/$3V$3F$3 [/$3$3W$3F$3l/$3$3t$3V$3$5/HP$3A$3b$3v/MP$3A$3b$3v/STRFDEX$3A$3b$3v/VITFAGI$3A$3b$3v/INTFMNDFCHR$3A$3b$3v/7WD]Lx%JFp$77iH/Trade for [/Reraise/Protect/Shell/Regen/Refresh/HP boost/MP boost/STR-DEX boost/VIT-AGI boost/INT-MND-CHR boost/all enhancements]?/ [Yes./No.]
- **7301**: Discard the $3? [Yes./No.]
- **7308**: You do not have enough cruor.
- **7312**: This ancient abyssite helps to stabilize your existential phase, allowing you to remain in Abyssea for longer durations.
- **7313**: This ancient abyssite facilitates energy release, making travel through Veridical Confluxes possible with fewer cruor.
- **7314**: This ancient abyssite mitigates mechanical wear, reducing the cool-off duration when using martellos.
- **7315**: This ancient abyssite resonates with treasure, increasing your likelihood of finding spoils after battle.
- **7316**: This ancient abyssite heightens your senses, allowing you to unlock treasure chests with greater ease.
- **7317**: This ancient abyssite resonates with the ground beneath you, allowing you to obtain more $5.
- **7318**: This ancient abyssite resonates with treasure, increasing your likelihood of encountering blue pyxides.
- **7319**: This ancient abyssite imbues your soul with great strength, allowing you to infuse an additional atma for each piece possessed.
- **7320**: This is a map of Abyssea - La Theine. Don't leave home without it!
- **7321**: This is a map of Abyssea - Konschtat. Don't leave home without it!
- **7322**: This is a map of Abyssea - Tahrongi. Don't leave home without it!
- **7323**: This is a map of Abyssea - Attohwa. Don't leave home without it!
- **7324**: This is a map of Abyssea - Misareaux. Don't leave home without it!
- **7325**: This is a map of Abyssea - Vunkerl. Don't leave home without it!
- **7326**: Certain monsters in Abyssea loath contact with people, concealing themselves from detection. Only with this abyssite will you be able to uncloak and confront them. Go into a crouch with it in your possession, and the way will be revealed to you.
- **7327**: Trade for how many? (Cruor balance: $0) [None for now./$1 ($2 cruor)./$3 ($4 cruor)./$5i$6 cruor)./$7i$8 cruor)./$9 ($10 cruor).]
- **7328**: Trade for $1 of the item? [Yes./No.]

## Events

### Event 65535

#### Metadata

| Field        | Value   |
|--------------|---------|
| Entrypoint   | 0x0000  |
| Data Size    | 1 bytes |
| Instructions | 1       |

```
      00 01 02 03 04 05 06 07  08 09 0A 0B 0C 0D 0E 0F
      -- -- -- -- -- -- -- --  -- -- -- -- -- -- -- --
0000: 00                                                .               
```

#### Opcodes

```
  0: 0x0000 [0x00] END_REQSTACK()
```

### Event 2002

#### Metadata

| Field        | Value      |
|--------------|------------|
| Entrypoint   | 0x0001     |
| Data Size    | 8598 bytes |
| Instructions | 1664       |

```
      00 01 02 03 04 05 06 07  08 09 0A 0B 0C 0D 0E 0F
      -- -- -- -- -- -- -- --  -- -- -- -- -- -- -- --
0000:    20 01 03 00 00 00 80  03 01 00 00 80 03 02 00    ..............
0010: 00 80 03 03 00 00 80 03  04 00 00 80 03 05 00 00  ................
0020: 80 03 07 00 00 80 03 09  00 00 80 03 0A 00 00 80  ................
0030: 03 0B 00 00 80 03 0C 00  00 80 03 0D 00 00 80 03  ................
0040: 0E 00 00 80 03 0F 00 00  80 03 00 00 02 10 03 01  ................
0050: 00 03 10 03 0D 00 04 10  03 0F 00 05 10 03 11 00  ................
0060: 06 10 1D 01 80 23 05 0A  00 02 0A 00 00 80 02 92  .....#..........
0070: 19 03 02 00 00 80 03 03  00 00 80 03 04 00 00 80  ................
0080: 03 07 00 00 80 03 02 10  00 00 02 01 00 00 80 00  ................
0090: 99 00 3C 08 00 02 80 03  80 3C 08 00 03 80 03 80  ..<......<......
00A0: 3C 08 00 04 80 03 80 3C  08 00 05 80 03 80 3C 08  <......<......<.
00B0: 00 02 80 03 80 24 06 80  00 80 08 00 25 02 00 10  .....$......%...
00C0: 00 80 00 D0 00 03 01 10  07 80 06 0A 00 01 8F 19  ................
00D0: 02 00 10 03 80 00 FB 00  1D 08 80 23 1D 09 80 23  ...........#...#
00E0: 1D 0A 80 23 1D 0B 80 23  1D 0C 80 23 1D 0D 80 23  ...#...#...#...#
00F0: 1D 0E 80 23 1D 0F 80 23  01 8F 19 02 00 10 04 80  ...#...#........
0100: 00 ED 07 1A 95 19 05 0B  00 02 0B 00 00 80 02 EA  ................
0110: 07 03 03 00 00 80 03 04  00 00 80 03 07 00 00 80  ................
0120: 03 09 00 00 80 03 02 10  00 00 02 02 00 00 80 80  ................
0130: B2 01 03 03 10 00 80 03  04 10 00 80 03 05 10 00  ................
0140: 80 03 06 10 00 80 03 07  10 00 80 03 08 10 00 80  ................
0150: 03 09 10 00 80 03 00 17  00 80 03 01 17 00 80 03  ................
0160: 02 17 00 80 03 03 17 00  80 03 04 17 00 80 03 05  ................
0170: 17 00 80 03 06 17 00 80  03 07 17 00 80 03 08 17  ................
0180: 00 80 03 09 17 00 80 03  0A 17 00 80 03 0B 17 00  ................
0190: 80 03 0C 17 00 80 1A A1  1F 3C 09 00 10 80 03 80  .........<......
01A0: 02 05 00 11 80 05 AF 01  3C 09 00 12 80 03 80 01  ........<.......
01B0: AC 02 02 02 00 03 80 80  33 02 03 03 10 00 80 03  ........3.......
01C0: 04 10 00 80 03 05 10 00  80 03 06 10 00 80 03 07  ................
01D0: 10 00 80 03 08 10 00 80  03 09 10 00 80 03 00 17  ................
01E0: 00 80 03 01 17 00 80 03  02 17 00 80 03 03 17 00  ................
01F0: 80 03 04 17 00 80 03 05  17 00 80 03 06 17 00 80  ................
0200: 03 07 17 00 80 03 08 17  00 80 03 09 17 00 80 03  ................
0210: 0A 17 00 80 03 0B 17 00  80 03 0C 17 00 80 1A A1  ................
0220: 1F 02 05 00 13 80 05 30  02 3C 09 00 12 80 03 80  .......0.<......
0230: 01 AC 02 02 02 00 04 80  80 AC 02 03 03 10 00 80  ................
0240: 03 04 10 00 80 03 05 10  00 80 03 06 10 00 80 03  ................
0250: 07 10 00 80 03 08 10 00  80 03 09 10 00 80 03 00  ................
0260: 17 00 80 03 01 17 00 80  03 02 17 00 80 03 03 17  ................
0270: 00 80 03 04 17 00 80 03  05 17 00 80 03 06 17 00  ................
0280: 80 03 07 17 00 80 03 08  17 00 80 03 09 17 00 80  ................
0290: 03 0A 17 00 80 03 0B 17  00 80 03 0C 17 00 80 1A  ................
02A0: A1 1F 3C 09 00 12 80 03  80 01 AC 02 24 14 80 00  ..<.........$...
02B0: 80 09 00 25 02 00 10 00  80 00 C2 02 06 0B 00 01  ...%............
02C0: 2E 03 02 00 10 10 80 00  F8 02 02 02 00 00 80 80  ................
02D0: D5 02 01 F5 02 02 02 00  03 80 80 E5 02 03 02 00  ................
02E0: 00 80 01 F5 02 02 02 00  04 80 80 F5 02 03 02 00  ................
02F0: 03 80 01 F5 02 01 2E 03  02 00 10 12 80 00 2E 03  ................
0300: 02 02 00 00 80 80 10 03  03 02 00 03 80 01 2B 03  ..............+.
0310: 02 02 00 03 80 80 20 03  03 02 00 04 80 01 2B 03  ...... .......+.
0320: 02 02 00 04 80 80 2B 03  01 2B 03 01 2E 03 02 00  ......+..+......
0330: 10 03 80 04 E7 07 02 00  10 11 80 05 E7 07 02 02  ................
0340: 00 00 80 80 4D 04 02 00  10 03 80 80 60 03 03 03  ....M.......`...
0350: 00 00 80 03 04 00 00 80  03 07 00 03 80 01 4A 04  ..............J.
0360: 02 00 10 04 80 80 7A 03  03 03 00 00 80 03 04 00  ......z.........
0370: 00 80 03 07 00 04 80 01  4A 04 02 00 10 15 80 80  ........J.......
0380: 94 03 03 03 00 00 80 03  04 00 00 80 03 07 00 15  ................
0390: 80 01 4A 04 02 00 10 05  80 80 AE 03 03 03 00 00  ..J.............
03A0: 80 03 04 00 00 80 03 07  00 05 80 01 4A 04 02 00  ............J...
03B0: 10 16 80 80 C8 03 03 03  00 00 80 03 04 00 00 80  ................
03C0: 03 07 00 16 80 01 4A 04  02 00 10 02 80 80 E2 03  ......J.........
03D0: 03 03 00 00 80 03 04 00  00 80 03 07 00 02 80 01  ................
03E0: 4A 04 02 00 10 17 80 80  FC 03 03 03 00 00 80 03  J...............
03F0: 04 00 00 80 03 07 00 17  80 01 4A 04 02 00 10 18  ..........J.....
0400: 80 80 16 04 03 03 00 00  80 03 04 00 00 80 03 07  ................
0410: 00 18 80 01 4A 04 02 00  10 19 80 80 30 04 03 03  ....J.......0...
0420: 00 00 80 03 04 00 00 80  03 07 00 19 80 01 4A 04  ..............J.
0430: 02 00 10 11 80 80 4A 04  03 03 00 00 80 03 04 00  ......J.........
0440: 00 80 03 07 00 11 80 01  4A 04 01 6B 06 02 02 00  ........J..k....
0450: 03 80 80 5C 05 02 00 10  03 80 80 6F 04 03 03 00  ...\.......o....
0460: 00 80 03 04 00 00 80 03  07 00 10 80 01 59 05 02  .............Y..
0470: 00 10 04 80 80 89 04 03  03 00 00 80 03 04 00 00  ................
0480: 80 03 07 00 12 80 01 59  05 02 00 10 15 80 80 A3  .......Y........
0490: 04 03 03 00 00 80 03 04  00 00 80 03 07 00 1A 80  ................
04A0: 01 59 05 02 00 10 05 80  80 BD 04 03 03 00 00 80  .Y..............
04B0: 03 04 00 00 80 03 07 00  1B 80 01 59 05 02 00 10  ...........Y....
04C0: 16 80 80 D7 04 03 03 00  00 80 03 04 00 00 80 03  ................
04D0: 07 00 1C 80 01 59 05 02  00 10 02 80 80 F1 04 03  .....Y..........
04E0: 03 00 00 80 03 04 00 00  80 03 07 00 1D 80 01 59  ...............Y
04F0: 05 02 00 10 17 80 80 0B  05 03 03 00 00 80 03 04  ................
0500: 00 00 80 03 07 00 1E 80  01 59 05 02 00 10 18 80  .........Y......
0510: 80 25 05 03 03 00 00 80  03 04 00 00 80 03 07 00  .%..............
0520: 1F 80 01 59 05 02 00 10  19 80 80 3F 05 03 03 00  ...Y.......?....
0530: 00 80 03 04 00 00 80 03  07 00 20 80 01 59 05 02  .......... ..Y..
0540: 00 10 11 80 80 59 05 03  03 00 00 80 03 04 00 00  .....Y..........
0550: 80 03 07 00 13 80 01 59  05 01 6B 06 02 02 00 04  .......Y..k.....
0560: 80 80 6B 06 02 00 10 03  80 80 7E 05 03 03 00 00  ..k.......~.....
0570: 80 03 04 00 00 80 03 07  00 21 80 01 68 06 02 00  .........!..h...
0580: 10 04 80 80 98 05 03 03  00 00 80 03 04 00 00 80  ................
0590: 03 07 00 22 80 01 68 06  02 00 10 15 80 80 B2 05  ..."..h.........
05A0: 03 03 00 00 80 03 04 00  00 80 03 07 00 23 80 01  .............#..
05B0: 68 06 02 00 10 05 80 80  CC 05 03 03 00 00 80 03  h...............
05C0: 04 00 00 80 03 07 00 24  80 01 68 06 02 00 10 16  .......$..h.....
05D0: 80 80 E6 05 03 03 00 00  80 03 04 00 00 80 03 07  ................
05E0: 00 25 80 01 68 06 02 00  10 02 80 80 00 06 03 03  .%..h...........
05F0: 00 00 80 03 04 00 00 80  03 07 00 26 80 01 68 06  ...........&..h.
0600: 02 00 10 17 80 80 1A 06  03 03 00 00 80 03 04 00  ................
0610: 00 80 03 07 00 27 80 01  68 06 02 00 10 18 80 80  .....'..h.......
0620: 34 06 03 03 00 00 80 03  04 00 00 80 03 07 00 28  4..............(
0630: 80 01 68 06 02 00 10 19  80 80 4E 06 03 03 00 00  ..h.......N.....
0640: 80 03 04 00 00 80 03 07  00 29 80 01 68 06 02 00  .........)..h...
0650: 10 11 80 80 68 06 03 03  00 00 80 03 04 00 00 80  ....h...........
0660: 03 07 00 2A 80 01 68 06  01 6B 06 93 03 00 03 02  ...*..h..k......
0670: 10 03 00 48 2B 80 23 93  00 80 02 03 00 2C 80 00  ...H+.#......,..
0680: 9D 07 03 0E 00 00 80 03  02 10 00 00 03 03 10 03  ................
0690: 80 03 04 10 2D 80 03 05  10 16 80 03 06 10 2E 80  ....-...........
06A0: 03 07 10 11 80 03 08 10  2F 80 03 09 10 2A 80 03  ......../....*..
06B0: 00 17 30 80 03 01 17 31  80 03 02 17 32 80 24 33  ..0....1....2.$3
06C0: 80 00 80 00 80 25 02 00  10 00 80 00 D1 06 01 3A  .....%.........:
06D0: 07 02 00 10 03 80 00 E6  06 03 0E 00 03 80 03 04  ................
06E0: 00 2D 80 01 3A 07 02 00  10 04 80 00 FB 06 03 0E  .-..:...........
06F0: 00 16 80 03 04 00 2E 80  01 3A 07 02 00 10 15 80  .........:......
0700: 00 10 07 03 0E 00 11 80  03 04 00 2F 80 01 3A 07  .........../..:.
0710: 02 00 10 05 80 00 25 07  03 0E 00 2A 80 03 04 00  ......%....*....
0720: 30 80 01 3A 07 02 00 10  16 80 00 3A 07 03 0E 00  0..:.......:....
0730: 31 80 03 04 00 32 80 01  3A 07 02 0E 00 00 80 02  1....2..:.......
0740: 9A 07 03 02 10 2C 80 03  03 10 0E 00 24 34 80 03  .....,......$4..
0750: 80 00 80 25 02 00 10 00  80 00 8F 07 02 00 00 04  ...%............
0760: 00 04 88 07 40 00 80 1C  80 01 10 03 80 40 1D 80  ....@........@..
0770: 23 80 01 10 07 00 40 24  80 35 80 01 10 0E 00 06  #.....@$.5......
0780: 0B 00 06 0A 00 01 8C 07  1D 36 80 23 01 9A 07 02  .........6.#....
0790: 00 10 03 80 00 9A 07 01  9A 07 01 E7 07 03 02 10  ................
07A0: 03 00 24 37 80 03 80 00  80 25 02 00 10 00 80 00  ..$7.....%......
07B0: DC 07 02 00 00 04 00 04  D5 07 40 00 80 1C 80 01  ..........@.....
07C0: 10 03 80 40 1D 80 23 80  01 10 07 00 06 0B 00 06  ...@..#.........
07D0: 0A 00 01 D9 07 1D 36 80  23 01 E7 07 02 00 10 03  ......6.#.......
07E0: 80 00 E7 07 01 E7 07 01  09 01 01 8F 19 02 00 10  ................
07F0: 15 80 00 EC 0D 1A 99 1B  05 0B 00 02 0B 00 00 80  ................
0800: 02 E9 0D 03 03 00 00 80  03 04 00 00 80 03 07 00  ................
0810: 00 80 03 09 00 00 80 03  02 10 00 00 02 02 00 00  ................
0820: 80 80 A4 08 03 03 10 38  80 03 04 10 39 80 03 05  .......8....9...
0830: 10 3A 80 03 06 10 39 80  03 07 10 3B 80 03 08 10  .:....9....;....
0840: 39 80 03 09 10 3C 80 03  00 17 3D 80 03 01 17 3E  9....<....=....>
0850: 80 03 02 17 3D 80 03 03  17 3F 80 03 04 17 40 80  ....=....?....@.
0860: 03 05 17 41 80 03 06 17  40 80 03 07 17 42 80 03  ...A....@....B..
0870: 08 17 40 80 03 09 17 43  80 03 0A 17 44 80 03 0B  ..@....C....D...
0880: 17 45 80 03 0C 17 44 80  1A A1 1F 3C 09 00 10 80  .E....D....<....
0890: 03 80 02 05 00 11 80 05  A1 08 3C 09 00 12 80 03  ..........<.....
08A0: 80 01 9E 09 02 02 00 03  80 80 25 09 03 03 10 46  ..........%....F
08B0: 80 03 04 10 47 80 03 05  10 48 80 03 06 10 47 80  ....G....H....G.
08C0: 03 07 10 49 80 03 08 10  47 80 03 09 10 4A 80 03  ...I....G....J..
08D0: 00 17 47 80 03 01 17 4B  80 03 02 17 47 80 03 03  ..G....K....G...
08E0: 17 4C 80 03 04 17 47 80  03 05 17 4D 80 03 06 17  .L....G....M....
08F0: 4E 80 03 07 17 00 80 03  08 17 00 80 03 09 17 00  N...............
0900: 80 03 0A 17 00 80 03 0B  17 00 80 03 0C 17 00 80  ................
0910: 1A A1 1F 02 05 00 13 80  05 22 09 3C 09 00 12 80  .........".<....
0920: 03 80 01 9E 09 02 02 00  04 80 80 9E 09 03 03 10  ................
0930: 00 80 03 04 10 00 80 03  05 10 00 80 03 06 10 00  ................
0940: 80 03 07 10 00 80 03 08  10 00 80 03 09 10 00 80  ................
0950: 03 00 17 00 80 03 01 17  00 80 03 02 17 00 80 03  ................
0960: 03 17 00 80 03 04 17 00  80 03 05 17 00 80 03 06  ................
0970: 17 00 80 03 07 17 00 80  03 08 17 00 80 03 09 17  ................
0980: 00 80 03 0A 17 00 80 03  0B 17 00 80 03 0C 17 00  ................
0990: 80 1A A1 1F 3C 09 00 12  80 03 80 01 9E 09 02 0F  ....<...........
09A0: 00 03 80 00 A9 09 1A 38  20 24 4F 80 00 80 09 00  .......8 $O.....
09B0: 25 02 00 10 00 80 00 BF  09 06 0B 00 01 2B 0A 02  %............+..
09C0: 00 10 10 80 00 F5 09 02  02 00 00 80 80 D2 09 01  ................
09D0: F2 09 02 02 00 03 80 80  E2 09 03 02 00 00 80 01  ................
09E0: F2 09 02 02 00 04 80 80  F2 09 03 02 00 03 80 01  ................
09F0: F2 09 01 2B 0A 02 00 10  12 80 00 2B 0A 02 02 00  ...+.......+....
0A00: 00 80 80 0D 0A 03 02 00  03 80 01 28 0A 02 02 00  ...........(....
0A10: 03 80 80 1D 0A 03 02 00  04 80 01 28 0A 02 02 00  ...........(....
0A20: 04 80 80 28 0A 01 28 0A  01 2B 0A 02 00 10 03 80  ...(..(..+......
0A30: 04 E6 0D 02 00 10 11 80  05 E6 0D 02 02 00 00 80  ................
0A40: 80 4A 0B 02 00 10 03 80  80 5D 0A 03 03 00 38 80  .J.......]....8.
0A50: 03 04 00 39 80 03 07 00  03 80 01 47 0B 02 00 10  ...9.......G....
0A60: 04 80 80 77 0A 03 03 00  3A 80 03 04 00 39 80 03  ...w....:....9..
0A70: 07 00 04 80 01 47 0B 02  00 10 15 80 80 91 0A 03  .....G..........
0A80: 03 00 3B 80 03 04 00 39  80 03 07 00 15 80 01 47  ..;....9.......G
0A90: 0B 02 00 10 05 80 80 AB  0A 03 03 00 3C 80 03 04  ............<...
0AA0: 00 3D 80 03 07 00 05 80  01 47 0B 02 00 10 16 80  .=.......G......
0AB0: 80 C5 0A 03 03 00 3E 80  03 04 00 3D 80 03 07 00  ......>....=....
0AC0: 16 80 01 47 0B 02 00 10  02 80 80 DF 0A 03 03 00  ...G............
0AD0: 3F 80 03 04 00 40 80 03  07 00 02 80 01 47 0B 02  ?....@.......G..
0AE0: 00 10 17 80 80 F9 0A 03  03 00 41 80 03 04 00 40  ..........A....@
0AF0: 80 03 07 00 17 80 01 47  0B 02 00 10 18 80 80 13  .......G........
0B00: 0B 03 03 00 42 80 03 04  00 40 80 03 07 00 18 80  ....B....@......
0B10: 01 47 0B 02 00 10 19 80  80 2D 0B 03 03 00 43 80  .G.......-....C.
0B20: 03 04 00 44 80 03 07 00  19 80 01 47 0B 02 00 10  ...D.......G....
0B30: 11 80 80 47 0B 03 03 00  45 80 03 04 00 44 80 03  ...G....E....D..
0B40: 07 00 11 80 01 47 0B 01  78 0D 02 02 00 03 80 80  .....G..x.......
0B50: 69 0C 02 00 10 03 80 80  6C 0B 03 03 00 46 80 03  i.......l....F..
0B60: 04 00 47 80 03 07 00 10  80 01 66 0C 02 00 10 04  ..G.......f.....
0B70: 80 80 86 0B 03 03 00 48  80 03 04 00 47 80 03 07  .......H....G...
0B80: 00 12 80 01 66 0C 02 00  10 15 80 80 A0 0B 03 03  ....f...........
0B90: 00 49 80 03 04 00 47 80  03 07 00 1A 80 01 66 0C  .I....G.......f.
0BA0: 02 00 10 05 80 80 BA 0B  03 03 00 4A 80 03 04 00  ...........J....
0BB0: 47 80 03 07 00 1B 80 01  66 0C 02 00 10 16 80 80  G.......f.......
0BC0: D4 0B 03 03 00 4B 80 03  04 00 47 80 03 07 00 1C  .....K....G.....
0BD0: 80 01 66 0C 02 00 10 02  80 80 EE 0B 03 03 00 4C  ..f............L
0BE0: 80 03 04 00 47 80 03 07  00 1D 80 01 66 0C 02 00  ....G.......f...
0BF0: 10 17 80 80 18 0C 03 03  00 4D 80 02 0F 00 00 80  .........M......
0C00: 00 0B 0C 03 04 00 4E 80  01 10 0C 03 04 00 50 80  ......N.......P.
0C10: 03 07 00 1E 80 01 66 0C  02 00 10 18 80 80 32 0C  ......f.......2.
0C20: 03 03 00 00 80 03 04 00  00 80 03 07 00 1F 80 01  ................
0C30: 66 0C 02 00 10 19 80 80  4C 0C 03 03 00 00 80 03  f.......L.......
0C40: 04 00 00 80 03 07 00 20  80 01 66 0C 02 00 10 11  ....... ..f.....
0C50: 80 80 66 0C 03 03 00 00  80 03 04 00 00 80 03 07  ..f.............
0C60: 00 13 80 01 66 0C 01 78  0D 02 02 00 04 80 80 78  ....f..x.......x
0C70: 0D 02 00 10 03 80 80 8B  0C 03 03 00 00 80 03 04  ................
0C80: 00 00 80 03 07 00 21 80  01 75 0D 02 00 10 04 80  ......!..u......
0C90: 80 A5 0C 03 03 00 00 80  03 04 00 00 80 03 07 00  ................
0CA0: 22 80 01 75 0D 02 00 10  15 80 80 BF 0C 03 03 00  "..u............
0CB0: 00 80 03 04 00 00 80 03  07 00 23 80 01 75 0D 02  ..........#..u..
0CC0: 00 10 05 80 80 D9 0C 03  03 00 00 80 03 04 00 00  ................
0CD0: 80 03 07 00 24 80 01 75  0D 02 00 10 16 80 80 F3  ....$..u........
0CE0: 0C 03 03 00 00 80 03 04  00 00 80 03 07 00 25 80  ..............%.
0CF0: 01 75 0D 02 00 10 02 80  80 0D 0D 03 03 00 00 80  .u..............
0D00: 03 04 00 00 80 03 07 00  26 80 01 75 0D 02 00 10  ........&..u....
0D10: 17 80 80 27 0D 03 03 00  00 80 03 04 00 00 80 03  ...'............
0D20: 07 00 27 80 01 75 0D 02  00 10 18 80 80 41 0D 03  ..'..u.......A..
0D30: 03 00 00 80 03 04 00 00  80 03 07 00 28 80 01 75  ............(..u
0D40: 0D 02 00 10 19 80 80 5B  0D 03 03 00 00 80 03 04  .......[........
0D50: 00 00 80 03 07 00 29 80  01 75 0D 02 00 10 11 80  ......)..u......
0D60: 80 75 0D 03 03 00 00 80  03 04 00 00 80 03 07 00  .u..............
0D70: 2A 80 01 75 0D 01 78 0D  02 03 00 4D 80 00 8D 0D  *..u..x....M....
0D80: 02 0F 00 03 80 00 8D 0D  03 04 00 50 80 93 03 00  ...........P....
0D90: 03 02 10 03 00 48 51 80  23 93 00 80 03 02 10 03  .....HQ.#.......
0DA0: 00 24 52 80 03 80 00 80  25 02 00 10 00 80 00 DB  .$R.....%.......
0DB0: 0D 02 00 00 04 00 04 D4  0D 40 00 80 1C 80 01 10  .........@......
0DC0: 04 80 40 1D 80 23 80 01  10 07 00 06 0B 00 06 0A  ..@..#..........
0DD0: 00 01 D8 0D 1D 36 80 23  01 E6 0D 02 00 10 03 80  .....6.#........
0DE0: 00 E6 0D 01 E6 0D 01 FB  07 01 8F 19 02 00 10 05  ................
0DF0: 80 00 92 14 1A 9D 1D 05  0B 00 02 0B 00 00 80 02  ................
0E00: 8F 14 03 03 00 00 80 03  04 00 00 80 03 07 00 00  ................
0E10: 80 03 09 00 00 80 03 02  10 00 00 02 02 00 00 80  ................
0E20: 80 A3 0E 03 03 10 00 80  03 04 10 00 80 03 05 10  ................
0E30: 00 80 03 06 10 00 80 03  07 10 00 80 03 08 10 00  ................
0E40: 80 03 09 10 00 80 03 00  17 00 80 03 01 17 00 80  ................
0E50: 03 02 17 00 80 03 03 17  00 80 03 04 17 00 80 03  ................
0E60: 05 17 00 80 03 06 17 00  80 03 07 17 00 80 03 08  ................
0E70: 17 00 80 03 09 17 00 80  03 0A 17 00 80 03 0B 17  ................
0E80: 00 80 03 0C 17 00 80 1A  A1 1F 3C 09 00 10 80 03  ..........<.....
0E90: 80 02 05 00 11 80 05 A0  0E 3C 09 00 12 80 03 80  .........<......
0EA0: 01 9D 0F 02 02 00 03 80  80 24 0F 03 03 10 00 80  .........$......
0EB0: 03 04 10 00 80 03 05 10  00 80 03 06 10 00 80 03  ................
0EC0: 07 10 00 80 03 08 10 00  80 03 09 10 00 80 03 00  ................
0ED0: 17 00 80 03 01 17 00 80  03 02 17 00 80 03 03 17  ................
0EE0: 00 80 03 04 17 00 80 03  05 17 00 80 03 06 17 00  ................
0EF0: 80 03 07 17 00 80 03 08  17 00 80 03 09 17 00 80  ................
0F00: 03 0A 17 00 80 03 0B 17  00 80 03 0C 17 00 80 1A  ................
0F10: A1 1F 02 05 00 13 80 05  21 0F 3C 09 00 12 80 03  ........!.<.....
0F20: 80 01 9D 0F 02 02 00 04  80 80 9D 0F 03 03 10 00  ................
0F30: 80 03 04 10 00 80 03 05  10 00 80 03 06 10 00 80  ................
0F40: 03 07 10 00 80 03 08 10  00 80 03 09 10 00 80 03  ................
0F50: 00 17 00 80 03 01 17 00  80 03 02 17 00 80 03 03  ................
0F60: 17 00 80 03 04 17 00 80  03 05 17 00 80 03 06 17  ................
0F70: 00 80 03 07 17 00 80 03  08 17 00 80 03 09 17 00  ................
0F80: 80 03 0A 17 00 80 03 0B  17 00 80 03 0C 17 00 80  ................
0F90: 1A A1 1F 3C 09 00 12 80  03 80 01 9D 0F 24 53 80  ...<.........$S.
0FA0: 00 80 09 00 25 02 00 10  00 80 00 B3 0F 06 0B 00  ....%...........
0FB0: 01 1F 10 02 00 10 10 80  00 E9 0F 02 02 00 00 80  ................
0FC0: 80 C6 0F 01 E6 0F 02 02  00 03 80 80 D6 0F 03 02  ................
0FD0: 00 00 80 01 E6 0F 02 02  00 04 80 80 E6 0F 03 02  ................
0FE0: 00 03 80 01 E6 0F 01 1F  10 02 00 10 12 80 00 1F  ................
0FF0: 10 02 02 00 00 80 80 01  10 03 02 00 03 80 01 1C  ................
1000: 10 02 02 00 03 80 80 11  10 03 02 00 04 80 01 1C  ................
1010: 10 02 02 00 04 80 80 1C  10 01 1C 10 01 1F 10 02  ................
1020: 00 10 03 80 04 8C 14 02  00 10 11 80 05 8C 14 02  ................
1030: 02 00 00 80 80 3E 11 02  00 10 03 80 80 51 10 03  .....>.......Q..
1040: 03 00 00 80 03 04 00 00  80 03 07 00 03 80 01 3B  ...............;
1050: 11 02 00 10 04 80 80 6B  10 03 03 00 00 80 03 04  .......k........
1060: 00 00 80 03 07 00 04 80  01 3B 11 02 00 10 15 80  .........;......
1070: 80 85 10 03 03 00 00 80  03 04 00 00 80 03 07 00  ................
1080: 15 80 01 3B 11 02 00 10  05 80 80 9F 10 03 03 00  ...;............
1090: 00 80 03 04 00 00 80 03  07 00 05 80 01 3B 11 02  .............;..
10A0: 00 10 16 80 80 B9 10 03  03 00 00 80 03 04 00 00  ................
10B0: 80 03 07 00 16 80 01 3B  11 02 00 10 02 80 80 D3  .......;........
10C0: 10 03 03 00 00 80 03 04  00 00 80 03 07 00 02 80  ................
10D0: 01 3B 11 02 00 10 17 80  80 ED 10 03 03 00 00 80  .;..............
10E0: 03 04 00 00 80 03 07 00  17 80 01 3B 11 02 00 10  ...........;....
10F0: 18 80 80 07 11 03 03 00  00 80 03 04 00 00 80 03  ................
1100: 07 00 18 80 01 3B 11 02  00 10 19 80 80 21 11 03  .....;.......!..
1110: 03 00 00 80 03 04 00 00  80 03 07 00 19 80 01 3B  ...............;
1120: 11 02 00 10 11 80 80 3B  11 03 03 00 00 80 03 04  .......;........
1130: 00 00 80 03 07 00 11 80  01 3B 11 01 5C 13 02 02  .........;..\...
1140: 00 03 80 80 4D 12 02 00  10 03 80 80 60 11 03 03  ....M.......`...
1150: 00 00 80 03 04 00 00 80  03 07 00 10 80 01 4A 12  ..............J.
1160: 02 00 10 04 80 80 7A 11  03 03 00 00 80 03 04 00  ......z.........
1170: 00 80 03 07 00 12 80 01  4A 12 02 00 10 15 80 80  ........J.......
1180: 94 11 03 03 00 00 80 03  04 00 00 80 03 07 00 1A  ................
1190: 80 01 4A 12 02 00 10 05  80 80 AE 11 03 03 00 00  ..J.............
11A0: 80 03 04 00 00 80 03 07  00 1B 80 01 4A 12 02 00  ............J...
11B0: 10 16 80 80 C8 11 03 03  00 00 80 03 04 00 00 80  ................
11C0: 03 07 00 1C 80 01 4A 12  02 00 10 02 80 80 E2 11  ......J.........
11D0: 03 03 00 00 80 03 04 00  00 80 03 07 00 1D 80 01  ................
11E0: 4A 12 02 00 10 17 80 80  FC 11 03 03 00 00 80 03  J...............
11F0: 04 00 00 80 03 07 00 1E  80 01 4A 12 02 00 10 18  ..........J.....
1200: 80 80 16 12 03 03 00 00  80 03 04 00 00 80 03 07  ................
1210: 00 1F 80 01 4A 12 02 00  10 19 80 80 30 12 03 03  ....J.......0...
1220: 00 00 80 03 04 00 00 80  03 07 00 20 80 01 4A 12  ........... ..J.
1230: 02 00 10 11 80 80 4A 12  03 03 00 00 80 03 04 00  ......J.........
1240: 00 80 03 07 00 13 80 01  4A 12 01 5C 13 02 02 00  ........J..\....
1250: 04 80 80 5C 13 02 00 10  03 80 80 6F 12 03 03 00  ...\.......o....
1260: 00 80 03 04 00 00 80 03  07 00 21 80 01 59 13 02  ..........!..Y..
1270: 00 10 04 80 80 89 12 03  03 00 00 80 03 04 00 00  ................
1280: 80 03 07 00 22 80 01 59  13 02 00 10 15 80 80 A3  ...."..Y........
1290: 12 03 03 00 00 80 03 04  00 00 80 03 07 00 23 80  ..............#.
12A0: 01 59 13 02 00 10 05 80  80 BD 12 03 03 00 00 80  .Y..............
12B0: 03 04 00 00 80 03 07 00  24 80 01 59 13 02 00 10  ........$..Y....
12C0: 16 80 80 D7 12 03 03 00  00 80 03 04 00 00 80 03  ................
12D0: 07 00 25 80 01 59 13 02  00 10 02 80 80 F1 12 03  ..%..Y..........
12E0: 03 00 00 80 03 04 00 00  80 03 07 00 26 80 01 59  ............&..Y
12F0: 13 02 00 10 17 80 80 0B  13 03 03 00 00 80 03 04  ................
1300: 00 00 80 03 07 00 27 80  01 59 13 02 00 10 18 80  ......'..Y......
1310: 80 25 13 03 03 00 00 80  03 04 00 00 80 03 07 00  .%..............
1320: 28 80 01 59 13 02 00 10  19 80 80 3F 13 03 03 00  (..Y.......?....
1330: 00 80 03 04 00 00 80 03  07 00 29 80 01 59 13 02  ..........)..Y..
1340: 00 10 11 80 80 59 13 03  03 00 00 80 03 04 00 00  .....Y..........
1350: 80 03 07 00 2A 80 01 59  13 01 5C 13 02 03 00 54  ....*..Y..\....T
1360: 80 80 6B 13 1D 55 80 23  01 42 14 02 03 00 56 80  ..k..U.#.B....V.
1370: 80 7F 13 03 02 10 57 80  1D 58 80 23 01 42 14 02  ......W..X.#.B..
1380: 03 00 59 80 80 8E 13 1D  5A 80 23 01 42 14 02 03  ..Y.....Z.#.B...
1390: 00 5B 80 80 9D 13 1D 5C  80 23 01 42 14 02 03 00  .[.....\.#.B....
13A0: 5D 80 80 AC 13 1D 5E 80  23 01 42 14 02 03 00 5F  ].....^.#.B...._
13B0: 80 80 BB 13 1D 60 80 23  01 42 14 02 03 00 61 80  .....`.#.B....a.
13C0: 80 CA 13 1D 62 80 23 01  42 14 02 03 00 63 80 80  ....b.#.B....c..
13D0: D9 13 1D 64 80 23 01 42  14 02 03 00 65 80 80 E8  ...d.#.B....e...
13E0: 13 1D 66 80 23 01 42 14  02 03 00 67 80 80 F7 13  ..f.#.B....g....
13F0: 1D 68 80 23 01 42 14 02  03 00 69 80 80 06 14 1D  .h.#.B....i.....
1400: 6A 80 23 01 42 14 02 03  00 6B 80 80 15 14 1D 6C  j.#.B....k.....l
1410: 80 23 01 42 14 02 03 00  6D 80 80 24 14 1D 6E 80  .#.B....m..$..n.
1420: 23 01 42 14 02 03 00 6F  80 80 33 14 1D 70 80 23  #.B....o..3..p.#
1430: 01 42 14 02 03 00 71 80  80 42 14 1D 72 80 23 01  .B....q..B..r.#.
1440: 42 14 03 02 10 03 00 24  73 80 03 80 00 80 25 02  B......$s.....%.
1450: 00 10 00 80 00 81 14 02  00 00 04 00 04 7A 14 40  .............z.@
1460: 00 80 1C 80 01 10 15 80  40 1D 80 23 80 01 10 07  ........@..#....
1470: 00 06 0B 00 06 0A 00 01  7E 14 1D 36 80 23 01 8C  ........~..6.#..
1480: 14 02 00 10 03 80 00 8C  14 01 8C 14 01 FA 0D 01  ................
1490: 8F 19 02 00 10 16 80 00  3A 17 05 0B 00 02 0B 00  ........:.......
14A0: 00 80 02 37 17 03 07 00  00 80 03 09 00 00 80 3E  ...7...........>
14B0: 0D 00 00 80 C4 14 3C 09  00 03 80 03 80 3C 09 00  ......<......<..
14C0: 10 80 03 80 3E 0D 00 03  80 D9 14 3C 09 00 04 80  ....>......<....
14D0: 03 80 3C 09 00 10 80 03  80 3E 0D 00 04 80 EE 14  ..<......>......
14E0: 3C 09 00 15 80 03 80 3C  09 00 10 80 03 80 3E 0D  <......<......>.
14F0: 00 15 80 03 15 3C 09 00  05 80 03 80 3C 09 00 10  .....<......<...
1500: 80 03 80 3E 0D 00 05 80  18 15 3C 09 00 16 80 03  ...>......<.....
1510: 80 3C 09 00 10 80 03 80  3E 0D 00 16 80 2D 15 3C  .<......>....-.<
1520: 09 00 02 80 03 80 3C 09  00 10 80 03 80 3E 0D 00  ......<......>..
1530: 02 80 42 15 3C 09 00 17  80 03 80 3C 09 00 10 80  ..B.<......<....
1540: 03 80 3E 0D 00 17 80 57  15 3C 09 00 18 80 03 80  ..>....W.<......
1550: 3C 09 00 10 80 03 80 3E  0D 00 18 80 6C 15 3C 09  <......>....l.<.
1560: 00 19 80 03 80 3C 09 00  10 80 03 80 3E 0D 00 19  .....<......>...
1570: 80 81 15 3C 09 00 11 80  03 80 3C 09 00 10 80 03  ...<......<.....
1580: 80 3C 09 00 03 80 03 80  3C 09 00 04 80 03 80 3C  .<......<......<
1590: 09 00 15 80 03 80 3C 09  00 05 80 03 80 3C 09 00  ......<......<..
15A0: 16 80 03 80 03 04 00 00  80 03 02 10 00 00 03 03  ................
15B0: 10 31 80 03 04 10 31 80  03 05 10 31 80 03 06 10  .1....1....1....
15C0: 31 80 03 07 10 31 80 03  08 10 31 80 03 09 10 3D  1....1....1....=
15D0: 80 03 00 17 74 80 03 01  17 74 80 03 02 17 74 80  ....t....t....t.
15E0: 03 03 17 75 80 24 76 80  00 80 09 00 25 02 00 10  ...u.$v.....%...
15F0: 00 80 00 FB 15 06 0B 00  01 E2 16 02 00 10 03 80  ................
1600: 00 10 16 03 07 00 03 80  03 04 00 31 80 01 E2 16  ...........1....
1610: 02 00 10 04 80 00 25 16  03 07 00 04 80 03 04 00  ......%.........
1620: 31 80 01 E2 16 02 00 10  15 80 00 3A 16 03 07 00  1..........:....
1630: 15 80 03 04 00 31 80 01  E2 16 02 00 10 05 80 00  .....1..........
1640: 4F 16 03 07 00 05 80 03  04 00 31 80 01 E2 16 02  O.........1.....
1650: 00 10 16 80 00 64 16 03  07 00 16 80 03 04 00 31  .....d.........1
1660: 80 01 E2 16 02 00 10 02  80 00 79 16 03 07 00 02  ..........y.....
1670: 80 03 04 00 31 80 01 E2  16 02 00 10 17 80 00 8E  ....1...........
1680: 16 03 07 00 17 80 03 04  00 3D 80 01 E2 16 02 00  .........=......
1690: 10 18 80 00 A3 16 03 07  00 18 80 03 04 00 74 80  ..............t.
16A0: 01 E2 16 02 00 10 19 80  00 B8 16 03 07 00 19 80  ................
16B0: 03 04 00 74 80 01 E2 16  02 00 10 11 80 00 CD 16  ...t............
16C0: 03 07 00 11 80 03 04 00  74 80 01 E2 16 02 00 10  ........t.......
16D0: 10 80 00 E2 16 03 07 00  10 80 03 04 00 75 80 01  .............u..
16E0: E2 16 02 07 00 00 80 02  34 17 03 02 10 07 00 24  ........4......$
16F0: 77 80 03 80 00 80 25 02  00 10 00 80 00 29 17 02  w.....%......)..
1700: 00 00 04 00 04 22 17 40  00 80 1C 80 01 10 05 80  .....".@........
1710: 40 1D 80 23 80 01 10 07  00 06 0B 00 06 0A 00 01  @..#............
1720: 26 17 1D 36 80 23 01 34  17 02 00 10 03 80 00 34  &..6.#.4.......4
1730: 17 01 34 17 01 9D 14 01  8F 19 02 00 10 02 80 00  ..4.............
1740: 8F 19 05 0B 00 02 0B 00  00 80 02 8C 19 03 09 00  ................
1750: 00 80 03 07 00 00 80 3E  01 00 00 80 61 17 01 68  .......>....a..h
1760: 17 3C 09 00 03 80 03 80  3E 01 00 03 80 72 17 01  .<......>....r..
1770: 79 17 3C 09 00 04 80 03  80 3E 01 00 04 80 83 17  y.<......>......
1780: 01 8A 17 3C 09 00 15 80  03 80 3E 01 00 15 80 94  ...<......>.....
1790: 17 01 9B 17 3C 09 00 05  80 03 80 3E 01 00 05 80  ....<......>....
17A0: A5 17 01 AC 17 3C 09 00  16 80 03 80 3E 01 00 16  .....<......>...
17B0: 80 B6 17 01 BD 17 3C 09  00 02 80 03 80 3E 01 00  ......<......>..
17C0: 02 80 C7 17 01 CE 17 3C  09 00 17 80 03 80 3E 01  .......<......>.
17D0: 00 17 80 D8 17 01 DF 17  3C 09 00 18 80 03 80 3E  ........<......>
17E0: 01 00 18 80 E9 17 01 F0  17 3C 09 00 19 80 03 80  .........<......
17F0: 3E 01 00 19 80 FA 17 01  01 18 3C 09 00 11 80 03  >.........<.....
1800: 80 3E 01 00 11 80 0B 18  01 12 18 3C 09 00 10 80  .>.........<....
1810: 03 80 03 02 10 71 80 03  03 10 78 80 03 04 10 79  .....q....x....y
1820: 80 03 05 10 7A 80 03 06  10 7B 80 03 07 10 7C 80  ....z....{....|.
1830: 03 08 10 7D 80 03 09 10  7E 80 03 00 17 7F 80 03  ...}....~.......
1840: 01 17 80 80 03 02 17 81  80 24 82 80 00 80 09 00  .........$......
1850: 25 02 00 10 00 80 00 5F  18 06 0B 00 01 46 19 02  %......_.....F..
1860: 00 10 03 80 00 74 18 03  07 00 03 80 03 03 00 71  .....t.........q
1870: 80 01 46 19 02 00 10 04  80 00 89 18 03 07 00 04  ..F.............
1880: 80 03 03 00 78 80 01 46  19 02 00 10 15 80 00 9E  ....x..F........
1890: 18 03 07 00 15 80 03 03  00 79 80 01 46 19 02 00  .........y..F...
18A0: 10 05 80 00 B3 18 03 07  00 05 80 03 03 00 7A 80  ..............z.
18B0: 01 46 19 02 00 10 16 80  00 C8 18 03 07 00 16 80  .F..............
18C0: 03 03 00 7B 80 01 46 19  02 00 10 02 80 00 DD 18  ...{..F.........
18D0: 03 07 00 02 80 03 03 00  7C 80 01 46 19 02 00 10  ........|..F....
18E0: 17 80 00 F2 18 03 07 00  17 80 03 03 00 7D 80 01  .............}..
18F0: 46 19 02 00 10 18 80 00  07 19 03 07 00 18 80 03  F...............
1900: 03 00 7E 80 01 46 19 02  00 10 19 80 00 1C 19 03  ..~..F..........
1910: 07 00 19 80 03 03 00 7F  80 01 46 19 02 00 10 11  ..........F.....
1920: 80 00 31 19 03 07 00 11  80 03 03 00 80 80 01 46  ..1............F
1930: 19 02 00 10 10 80 00 46  19 03 07 00 10 80 03 03  .......F........
1940: 00 81 80 01 46 19 02 07  00 00 80 02 89 19 03 02  ....F...........
1950: 10 03 00 24 83 80 03 80  00 80 25 02 00 10 00 80  ...$......%.....
1960: 00 7E 19 40 00 80 1C 80  01 10 16 80 40 1D 80 23  .~.@........@..#
1970: 80 01 10 07 00 06 0B 00  06 0A 00 01 89 19 02 00  ................
1980: 10 03 80 00 89 19 01 89  19 01 45 17 01 8F 19 01  ..........E.....
1990: 69 00 42 21 00 03 05 00  00 80 03 12 00 00 80 02  i.B!............
19A0: 12 00 2A 80 03 98 1B 02  12 00 00 80 80 B7 19 03  ..*.............
19B0: 10 00 00 80 01 87 1B 02  12 00 03 80 80 C7 19 03  ................
19C0: 10 00 00 80 01 87 1B 02  12 00 04 80 80 D7 19 03  ................
19D0: 10 00 00 80 01 87 1B 02  12 00 15 80 80 E7 19 03  ................
19E0: 10 00 00 80 01 87 1B 02  12 00 05 80 80 F7 19 03  ................
19F0: 10 00 00 80 01 87 1B 02  12 00 16 80 80 07 1A 03  ................
1A00: 10 00 00 80 01 87 1B 02  12 00 02 80 80 17 1A 03  ................
1A10: 10 00 00 80 01 87 1B 02  12 00 17 80 80 27 1A 03  .............'..
1A20: 10 00 00 80 01 87 1B 02  12 00 18 80 80 37 1A 03  .............7..
1A30: 10 00 00 80 01 87 1B 02  12 00 19 80 80 47 1A 03  .............G..
1A40: 10 00 00 80 01 87 1B 02  12 00 11 80 80 57 1A 03  .............W..
1A50: 10 00 00 80 01 87 1B 02  12 00 10 80 80 67 1A 03  .............g..
1A60: 10 00 00 80 01 87 1B 02  12 00 12 80 80 77 1A 03  .............w..
1A70: 10 00 00 80 01 87 1B 02  12 00 1A 80 80 87 1A 03  ................
1A80: 10 00 00 80 01 87 1B 02  12 00 1B 80 80 97 1A 03  ................
1A90: 10 00 00 80 01 87 1B 02  12 00 1C 80 80 A7 1A 03  ................
1AA0: 10 00 00 80 01 87 1B 02  12 00 1D 80 80 B7 1A 03  ................
1AB0: 10 00 00 80 01 87 1B 02  12 00 1E 80 80 C7 1A 03  ................
1AC0: 10 00 00 80 01 87 1B 02  12 00 1F 80 80 D7 1A 03  ................
1AD0: 10 00 00 80 01 87 1B 02  12 00 20 80 80 E7 1A 03  .......... .....
1AE0: 10 00 00 80 01 87 1B 02  12 00 13 80 80 F7 1A 03  ................
1AF0: 10 00 00 80 01 87 1B 02  12 00 21 80 80 07 1B 03  ..........!.....
1B00: 10 00 00 80 01 87 1B 02  12 00 22 80 80 17 1B 03  ..........".....
1B10: 10 00 00 80 01 87 1B 02  12 00 23 80 80 27 1B 03  ..........#..'..
1B20: 10 00 00 80 01 87 1B 02  12 00 24 80 80 37 1B 03  ..........$..7..
1B30: 10 00 00 80 01 87 1B 02  12 00 25 80 80 47 1B 03  ..........%..G..
1B40: 10 00 00 80 01 87 1B 02  12 00 26 80 80 57 1B 03  ..........&..W..
1B50: 10 00 00 80 01 87 1B 02  12 00 27 80 80 67 1B 03  ..........'..g..
1B60: 10 00 00 80 01 87 1B 02  12 00 28 80 80 77 1B 03  ..........(..w..
1B70: 10 00 00 80 01 87 1B 02  12 00 29 80 80 87 1B 03  ..........).....
1B80: 10 00 00 80 01 87 1B 02  10 00 00 80 01 92 1B 0B  ................
1B90: 05 00 0B 12 00 01 9F 19  1B 03 05 00 00 80 03 12  ................
1BA0: 00 00 80 02 12 00 2A 80  03 9C 1D 02 12 00 00 80  ......*.........
1BB0: 80 BB 1B 03 10 00 38 80  01 8B 1D 02 12 00 03 80  ......8.........
1BC0: 80 CB 1B 03 10 00 3A 80  01 8B 1D 02 12 00 04 80  ......:.........
1BD0: 80 DB 1B 03 10 00 3B 80  01 8B 1D 02 12 00 15 80  ......;.........
1BE0: 80 EB 1B 03 10 00 3C 80  01 8B 1D 02 12 00 05 80  ......<.........
1BF0: 80 FB 1B 03 10 00 3E 80  01 8B 1D 02 12 00 16 80  ......>.........
1C00: 80 0B 1C 03 10 00 3F 80  01 8B 1D 02 12 00 02 80  ......?.........
1C10: 80 1B 1C 03 10 00 41 80  01 8B 1D 02 12 00 17 80  ......A.........
1C20: 80 2B 1C 03 10 00 42 80  01 8B 1D 02 12 00 18 80  .+....B.........
1C30: 80 3B 1C 03 10 00 43 80  01 8B 1D 02 12 00 19 80  .;....C.........
1C40: 80 4B 1C 03 10 00 45 80  01 8B 1D 02 12 00 11 80  .K....E.........
1C50: 80 5B 1C 03 10 00 46 80  01 8B 1D 02 12 00 10 80  .[....F.........
1C60: 80 6B 1C 03 10 00 48 80  01 8B 1D 02 12 00 12 80  .k....H.........
1C70: 80 7B 1C 03 10 00 49 80  01 8B 1D 02 12 00 1A 80  .{....I.........
1C80: 80 8B 1C 03 10 00 4A 80  01 8B 1D 02 12 00 1B 80  ......J.........
1C90: 80 9B 1C 03 10 00 4B 80  01 8B 1D 02 12 00 1C 80  ......K.........
1CA0: 80 AB 1C 03 10 00 4C 80  01 8B 1D 02 12 00 1D 80  ......L.........
1CB0: 80 BB 1C 03 10 00 4D 80  01 8B 1D 02 12 00 1E 80  ......M.........
1CC0: 80 CB 1C 03 10 00 00 80  01 8B 1D 02 12 00 1F 80  ................
1CD0: 80 DB 1C 03 10 00 00 80  01 8B 1D 02 12 00 20 80  .............. .
1CE0: 80 EB 1C 03 10 00 00 80  01 8B 1D 02 12 00 13 80  ................
1CF0: 80 FB 1C 03 10 00 00 80  01 8B 1D 02 12 00 21 80  ..............!.
1D00: 80 0B 1D 03 10 00 00 80  01 8B 1D 02 12 00 22 80  ..............".
1D10: 80 1B 1D 03 10 00 00 80  01 8B 1D 02 12 00 23 80  ..............#.
1D20: 80 2B 1D 03 10 00 00 80  01 8B 1D 02 12 00 24 80  .+............$.
1D30: 80 3B 1D 03 10 00 00 80  01 8B 1D 02 12 00 25 80  .;............%.
1D40: 80 4B 1D 03 10 00 00 80  01 8B 1D 02 12 00 26 80  .K............&.
1D50: 80 5B 1D 03 10 00 00 80  01 8B 1D 02 12 00 27 80  .[............'.
1D60: 80 6B 1D 03 10 00 00 80  01 8B 1D 02 12 00 28 80  .k............(.
1D70: 80 7B 1D 03 10 00 00 80  01 8B 1D 02 12 00 29 80  .{............).
1D80: 80 8B 1D 03 10 00 00 80  01 8B 1D 02 10 00 00 80  ................
1D90: 01 96 1D 0B 05 00 0B 12  00 01 A3 1B 1B 03 05 00  ................
1DA0: 00 80 03 12 00 00 80 02  12 00 2A 80 03 A0 1F 02  ..........*.....
1DB0: 12 00 00 80 80 BF 1D 03  10 00 00 80 01 8F 1F 02  ................
1DC0: 12 00 03 80 80 CF 1D 03  10 00 00 80 01 8F 1F 02  ................
1DD0: 12 00 04 80 80 DF 1D 03  10 00 00 80 01 8F 1F 02  ................
1DE0: 12 00 15 80 80 EF 1D 03  10 00 00 80 01 8F 1F 02  ................
1DF0: 12 00 05 80 80 FF 1D 03  10 00 00 80 01 8F 1F 02  ................
1E00: 12 00 16 80 80 0F 1E 03  10 00 00 80 01 8F 1F 02  ................
1E10: 12 00 02 80 80 1F 1E 03  10 00 00 80 01 8F 1F 02  ................
1E20: 12 00 17 80 80 2F 1E 03  10 00 00 80 01 8F 1F 02  ...../..........
1E30: 12 00 18 80 80 3F 1E 03  10 00 00 80 01 8F 1F 02  .....?..........
1E40: 12 00 19 80 80 4F 1E 03  10 00 00 80 01 8F 1F 02  .....O..........
1E50: 12 00 11 80 80 5F 1E 03  10 00 00 80 01 8F 1F 02  ....._..........
1E60: 12 00 10 80 80 6F 1E 03  10 00 00 80 01 8F 1F 02  .....o..........
1E70: 12 00 12 80 80 7F 1E 03  10 00 00 80 01 8F 1F 02  ................
1E80: 12 00 1A 80 80 8F 1E 03  10 00 00 80 01 8F 1F 02  ................
1E90: 12 00 1B 80 80 9F 1E 03  10 00 00 80 01 8F 1F 02  ................
1EA0: 12 00 1C 80 80 AF 1E 03  10 00 00 80 01 8F 1F 02  ................
1EB0: 12 00 1D 80 80 BF 1E 03  10 00 00 80 01 8F 1F 02  ................
1EC0: 12 00 1E 80 80 CF 1E 03  10 00 00 80 01 8F 1F 02  ................
1ED0: 12 00 1F 80 80 DF 1E 03  10 00 00 80 01 8F 1F 02  ................
1EE0: 12 00 20 80 80 EF 1E 03  10 00 00 80 01 8F 1F 02  .. .............
1EF0: 12 00 13 80 80 FF 1E 03  10 00 00 80 01 8F 1F 02  ................
1F00: 12 00 21 80 80 0F 1F 03  10 00 00 80 01 8F 1F 02  ..!.............
1F10: 12 00 22 80 80 1F 1F 03  10 00 00 80 01 8F 1F 02  ..".............
1F20: 12 00 23 80 80 2F 1F 03  10 00 00 80 01 8F 1F 02  ..#../..........
1F30: 12 00 24 80 80 3F 1F 03  10 00 00 80 01 8F 1F 02  ..$..?..........
1F40: 12 00 25 80 80 4F 1F 03  10 00 00 80 01 8F 1F 02  ..%..O..........
1F50: 12 00 26 80 80 5F 1F 03  10 00 00 80 01 8F 1F 02  ..&.._..........
1F60: 12 00 27 80 80 6F 1F 03  10 00 00 80 01 8F 1F 02  ..'..o..........
1F70: 12 00 28 80 80 7F 1F 03  10 00 00 80 01 8F 1F 02  ..(.............
1F80: 12 00 29 80 80 8F 1F 03  10 00 00 80 01 8F 1F 02  ..).............
1F90: 10 00 00 80 01 9A 1F 0B  05 00 0B 12 00 01 A7 1D  ................
1FA0: 1B 02 03 10 00 80 00 B0  1F 3C 09 00 03 80 03 80  .........<......
1FB0: 02 05 10 00 80 00 BF 1F  3C 09 00 04 80 03 80 02  ........<.......
1FC0: 07 10 00 80 00 CE 1F 3C  09 00 15 80 03 80 02 09  .......<........
1FD0: 10 00 80 00 DD 1F 3C 09  00 05 80 03 80 02 01 17  ......<.........
1FE0: 00 80 00 EC 1F 3C 09 00  16 80 03 80 02 03 17 00  .....<..........
1FF0: 80 00 FB 1F 3C 09 00 02  80 03 80 02 05 17 00 80  ....<...........
2000: 00 0A 20 3C 09 00 17 80  03 80 02 07 17 00 80 00  .. <............
2010: 19 20 3C 09 00 18 80 03  80 02 09 17 00 80 00 28  . <............(
2020: 20 3C 09 00 19 80 03 80  02 0B 17 00 80 00 37 20   <............7 
2030: 3C 09 00 11 80 03 80 1B  06 13 00 02 13 00 11 80  <...............
2040: 03 96 21 02 13 00 00 80  80 53 20 03 14 00 03 10  ..!......S .....
2050: 01 E3 20 02 13 00 03 80  80 63 20 03 14 00 05 10  .. ......c .....
2060: 01 E3 20 02 13 00 04 80  80 73 20 03 14 00 07 10  .. ......s .....
2070: 01 E3 20 02 13 00 15 80  80 83 20 03 14 00 09 10  .. ....... .....
2080: 01 E3 20 02 13 00 05 80  80 93 20 03 14 00 01 17  .. ....... .....
2090: 01 E3 20 02 13 00 16 80  80 A3 20 03 14 00 03 17  .. ....... .....
20A0: 01 E3 20 02 13 00 02 80  80 B3 20 03 14 00 05 17  .. ....... .....
20B0: 01 E3 20 02 13 00 17 80  80 C3 20 03 14 00 07 17  .. ....... .....
20C0: 01 E3 20 02 13 00 18 80  80 D3 20 03 14 00 09 17  .. ....... .....
20D0: 01 E3 20 02 13 00 19 80  80 E3 20 03 14 00 0B 17  .. ....... .....
20E0: 01 E3 20 02 14 00 4D 80  00 90 21 02 13 00 00 80  .. ...M...!.....
20F0: 80 FB 20 03 04 10 50 80  01 8B 21 02 13 00 03 80  .. ...P...!.....
2100: 80 0B 21 03 06 10 50 80  01 8B 21 02 13 00 04 80  ..!...P...!.....
2110: 80 1B 21 03 08 10 50 80  01 8B 21 02 13 00 15 80  ..!...P...!.....
2120: 80 2B 21 03 00 17 50 80  01 8B 21 02 13 00 05 80  .+!...P...!.....
2130: 80 3B 21 03 02 17 50 80  01 8B 21 02 13 00 16 80  .;!...P...!.....
2140: 80 4B 21 03 04 17 50 80  01 8B 21 02 13 00 02 80  .K!...P...!.....
2150: 80 5B 21 03 06 17 50 80  01 8B 21 02 13 00 17 80  .[!...P...!.....
2160: 80 6B 21 03 08 17 50 80  01 8B 21 02 13 00 18 80  .k!...P...!.....
2170: 80 7B 21 03 0A 17 50 80  01 8B 21 02 13 00 19 80  .{!...P...!.....
2180: 80 8B 21 03 0C 17 50 80  01 8B 21 03 13 00 11 80  ..!...P...!.....
2190: 0B 13 00 01 3B 20 1B                              ....; .         
```

#### Opcodes

```
  0: 0x0001 [0x20] SET_CLI_EVENT_UC_FLAG: Lock player control
  1: 0x0003 [0x03] ExtData[1]->WorkLocal[0] = 0*
  2: 0x0008 [0x03] ExtData[1]->WorkLocal[1] = 0*
  3: 0x000D [0x03] ExtData[1]->WorkLocal[2] = 0*
  4: 0x0012 [0x03] ExtData[1]->WorkLocal[3] = 0*
  5: 0x0017 [0x03] ExtData[1]->WorkLocal[4] = 0*
  6: 0x001C [0x03] ExtData[1]->WorkLocal[5] = 0*
  7: 0x0021 [0x03] ExtData[1]->WorkLocal[7] = 0*
  8: 0x0026 [0x03] ExtData[1]->WorkLocal[9] = 0*
  9: 0x002B [0x03] ExtData[1]->WorkLocal[10] = 0*
 10: 0x0030 [0x03] ExtData[1]->WorkLocal[11] = 0*
 11: 0x0035 [0x03] ExtData[1]->WorkLocal[12] = 0*
 12: 0x003A [0x03] ExtData[1]->WorkLocal[13] = 0*
 13: 0x003F [0x03] ExtData[1]->WorkLocal[14] = 0*
 14: 0x0044 [0x03] ExtData[1]->WorkLocal[15] = 0*
 15: 0x0049 [0x03] ExtData[1]->WorkLocal[0] = Work_Zone[2]
 16: 0x004E [0x03] ExtData[1]->WorkLocal[1] = Work_Zone[3]
 17: 0x0053 [0x03] ExtData[1]->WorkLocal[13] = Work_Zone[4]
 18: 0x0058 [0x03] ExtData[1]->WorkLocal[15] = Work_Zone[5]
 19: 0x005D [0x03] ExtData[1]->WorkLocal[17] = Work_Zone[6]
 20: 0x0062 [0x1D] PRINT_EVENT_MESSAGE(message_id=7280*)
     "Greetings, traveler. I am a resistance officer whose charge is the procurement of cruor. If you would be willing to part with any cruor you possess, I will issue you with helpful items in return."
 21: 0x0065 [0x23] WAIT_FOR_DIALOG_INTERACTION
 22: 0x0066 [0x05] ExtData[1]->WorkLocal[10] = 1
 23: 0x0069 [0x02] IF !(ExtData[1]->WorkLocal[10] <= 0*) GOTO 0x1992
 24: 0x0071 [0x03] ExtData[1]->WorkLocal[2] = 0*
 25: 0x0076 [0x03] ExtData[1]->WorkLocal[3] = 0*
 26: 0x007B [0x03] ExtData[1]->WorkLocal[4] = 0*
 27: 0x0080 [0x03] ExtData[1]->WorkLocal[7] = 0*
 28: 0x0085 [0x03] Work_Zone[2] = ExtData[1]->WorkLocal[0]
 29: 0x008A [0x02] IF !(ExtData[1]->WorkLocal[1] == 0*) GOTO 0x0099
 30: 0x0092 [0x3C] SET_BIT_FLAG_CONDITIONAL(target_work_offset=ExtData[1]->WorkLocal[8], bit_index_work_offset=6*, condition_work_offset=1*)
 31: 0x0099 [0x3C] SET_BIT_FLAG_CONDITIONAL(target_work_offset=ExtData[1]->WorkLocal[8], bit_index_work_offset=1*, condition_work_offset=1*)
 32: 0x00A0 [0x3C] SET_BIT_FLAG_CONDITIONAL(target_work_offset=ExtData[1]->WorkLocal[8], bit_index_work_offset=2*, condition_work_offset=1*)
 33: 0x00A7 [0x3C] SET_BIT_FLAG_CONDITIONAL(target_work_offset=ExtData[1]->WorkLocal[8], bit_index_work_offset=4*, condition_work_offset=1*)
 34: 0x00AE [0x3C] SET_BIT_FLAG_CONDITIONAL(target_work_offset=ExtData[1]->WorkLocal[8], bit_index_work_offset=6*, condition_work_offset=1*)
 35: 0x00B5 [0x24] CREATE_DIALOG(message_id=7281*, default_option=0*, option_flags=ExtData[1]->WorkLocal[8])
     "What will you do? (Cruor balance: $0) [Nothing./Learn about cruor./Exchange for items./Exchange for temporary items./Exchange for key items./Exchange for enhancement effects./Dispose of abyssite.]"
 36: 0x00BC [0x25] WAIT_DIALOG_SELECT()
 37: 0x00BD [0x02] IF !(Work_Zone[0] == 0*) GOTO 0x00D0
 38: 0x00C5 [0x03] Work_Zone[1] = 1073741824*
 39: 0x00CA [0x06] ExtData[1]->WorkLocal[10] = 0
 40: 0x00CD [0x01] GOTO 0x198F
 41: 0x00D0 [0x02] IF !(Work_Zone[0] == 1*) GOTO 0x00FB
 42: 0x00D8 [0x1D] PRINT_EVENT_MESSAGE(message_id=7282*)
     "Cruor is a naturally occurring mineral found as deposits on creatures native to Abyssea."
 43: 0x00DB [0x23] WAIT_FOR_DIALOG_INTERACTION
 44: 0x00DC [0x1D] PRINT_EVENT_MESSAGE(message_id=7283*)
     "Known by some as "blood gold," these red granules are highly prized and see use as both energy source and construction material."
 45: 0x00DF [0x23] WAIT_FOR_DIALOG_INTERACTION
 46: 0x00E0 [0x1D] PRINT_EVENT_MESSAGE(message_id=7284*)
     "It would be no exaggeration to say that cruor is the lifeblood of the resistance effort. As a matter of fact, the bulk of items I have in stock are cruor-based."
 47: 0x00E3 [0x23] WAIT_FOR_DIALOG_INTERACTION
 48: 0x00E4 [0x1D] PRINT_EVENT_MESSAGE(message_id=7285*)
     "Chief among them being "ancient abyssite," a highly concentrated, doubly valuable form of the stone boasting diverse benefits."
 49: 0x00E7 [0x23] WAIT_FOR_DIALOG_INTERACTION
 50: 0x00E8 [0x1D] PRINT_EVENT_MESSAGE(message_id=7286*)
     "Ancient abyssite has been observed to improve the fortunes and vitality of their possessors, not unlike a good luck talisman."
 51: 0x00EB [0x23] WAIT_FOR_DIALOG_INTERACTION
 52: 0x00EC [0x1D] PRINT_EVENT_MESSAGE(message_id=7287*)
     "The most popular varieties offer extended visitant status time, accelerated growth, and myriad enhancement effects. Some are even said to improve luck, but such benefits can be troublesome to measure."
 53: 0x00EF [0x23] WAIT_FOR_DIALOG_INTERACTION
 54: 0x00F0 [0x1D] PRINT_EVENT_MESSAGE(message_id=7288*)
     "I am limited in the types of ancient abyssite I can issue. The opportunity to acquire rarer varieties, however, will surely visit you during your time in Abyssea."
 55: 0x00F3 [0x23] WAIT_FOR_DIALOG_INTERACTION
 56: 0x00F4 [0x1D] PRINT_EVENT_MESSAGE(message_id=7289*)
     "Besides the issuance of items, I am also authorized to imbue you with enhancement effects."
 57: 0x00F7 [0x23] WAIT_FOR_DIALOG_INTERACTION
 58: 0x00F8 [0x01] GOTO 0x198F
 59: 0x00FB [0x02] IF !(Work_Zone[0] == 2*) GOTO 0x07ED
 60: 0x0103 [0x1A] CALL_SUBROUTINE(address=0x1995)
 61: 0x0106 [0x05] ExtData[1]->WorkLocal[11] = 1

SUBROUTINE_0109:
 62: 0x0109 [0x02] IF !(ExtData[1]->WorkLocal[11] <= 0*) GOTO 0x07EA
 63: 0x0111 [0x03] ExtData[1]->WorkLocal[3] = 0*
 64: 0x0116 [0x03] ExtData[1]->WorkLocal[4] = 0*
 65: 0x011B [0x03] ExtData[1]->WorkLocal[7] = 0*
 66: 0x0120 [0x03] ExtData[1]->WorkLocal[9] = 0*
 67: 0x0125 [0x03] Work_Zone[2] = ExtData[1]->WorkLocal[0]
 68: 0x012A [0x02] IF !(ExtData[1]->WorkLocal[2] == 0*) GOTO 0x01B2
 69: 0x0132 [0x03] Work_Zone[3] = 0*
 70: 0x0137 [0x03] Work_Zone[4] = 0*
 71: 0x013C [0x03] Work_Zone[5] = 0*
 72: 0x0141 [0x03] Work_Zone[6] = 0*
 73: 0x0146 [0x03] Work_Zone[7] = 0*
 74: 0x014B [0x03] Work_Zone[8] = 0*
 75: 0x0150 [0x03] Work_Zone[9] = 0*
 76: 0x0155 [0x03] Work_Zone_1700[0] = 0*
 77: 0x015A [0x03] Work_Zone_1700[1] = 0*
 78: 0x015F [0x03] Work_Zone_1700[2] = 0*
 79: 0x0164 [0x03] Work_Zone_1700[3] = 0*
 80: 0x0169 [0x03] Work_Zone_1700[4] = 0*
 81: 0x016E [0x03] Work_Zone_1700[5] = 0*
 82: 0x0173 [0x03] Work_Zone_1700[6] = 0*
 83: 0x0178 [0x03] Work_Zone_1700[7] = 0*
 84: 0x017D [0x03] Work_Zone_1700[8] = 0*
 85: 0x0182 [0x03] Work_Zone_1700[9] = 0*
 86: 0x0187 [0x03] Work_Zone_1700[10] = 0*
 87: 0x018C [0x03] Work_Zone_1700[11] = 0*
 88: 0x0191 [0x03] Work_Zone_1700[12] = 0*
 89: 0x0196 [0x1A] CALL_SUBROUTINE(address=0x1FA1)
 90: 0x0199 [0x3C] SET_BIT_FLAG_CONDITIONAL(target_work_offset=ExtData[1]->WorkLocal[9], bit_index_work_offset=11*, condition_work_offset=1*)
 91: 0x01A0 [0x02] IF !(ExtData[1]->WorkLocal[5] > 10*) GOTO 0x01AF
 92: 0x01A8 [0x3C] SET_BIT_FLAG_CONDITIONAL(target_work_offset=ExtData[1]->WorkLocal[9], bit_index_work_offset=12*, condition_work_offset=1*)
 93: 0x01AF [0x01] GOTO 0x02AC
 94: 0x01B2 [0x02] IF !(ExtData[1]->WorkLocal[2] == 1*) GOTO 0x0233
 95: 0x01BA [0x03] Work_Zone[3] = 0*
 96: 0x01BF [0x03] Work_Zone[4] = 0*
 97: 0x01C4 [0x03] Work_Zone[5] = 0*
 98: 0x01C9 [0x03] Work_Zone[6] = 0*
 99: 0x01CE [0x03] Work_Zone[7] = 0*
100: 0x01D3 [0x03] Work_Zone[8] = 0*
101: 0x01D8 [0x03] Work_Zone[9] = 0*
102: 0x01DD [0x03] Work_Zone_1700[0] = 0*
103: 0x01E2 [0x03] Work_Zone_1700[1] = 0*
104: 0x01E7 [0x03] Work_Zone_1700[2] = 0*
105: 0x01EC [0x03] Work_Zone_1700[3] = 0*
106: 0x01F1 [0x03] Work_Zone_1700[4] = 0*
107: 0x01F6 [0x03] Work_Zone_1700[5] = 0*
108: 0x01FB [0x03] Work_Zone_1700[6] = 0*
109: 0x0200 [0x03] Work_Zone_1700[7] = 0*
110: 0x0205 [0x03] Work_Zone_1700[8] = 0*
111: 0x020A [0x03] Work_Zone_1700[9] = 0*
112: 0x020F [0x03] Work_Zone_1700[10] = 0*
113: 0x0214 [0x03] Work_Zone_1700[11] = 0*
114: 0x0219 [0x03] Work_Zone_1700[12] = 0*
115: 0x021E [0x1A] CALL_SUBROUTINE(address=0x1FA1)
116: 0x0221 [0x02] IF !(ExtData[1]->WorkLocal[5] > 20*) GOTO 0x0230
117: 0x0229 [0x3C] SET_BIT_FLAG_CONDITIONAL(target_work_offset=ExtData[1]->WorkLocal[9], bit_index_work_offset=12*, condition_work_offset=1*)
118: 0x0230 [0x01] GOTO 0x02AC
119: 0x0233 [0x02] IF !(ExtData[1]->WorkLocal[2] == 2*) GOTO 0x02AC
120: 0x023B [0x03] Work_Zone[3] = 0*
121: 0x0240 [0x03] Work_Zone[4] = 0*
122: 0x0245 [0x03] Work_Zone[5] = 0*
123: 0x024A [0x03] Work_Zone[6] = 0*
124: 0x024F [0x03] Work_Zone[7] = 0*
125: 0x0254 [0x03] Work_Zone[8] = 0*
126: 0x0259 [0x03] Work_Zone[9] = 0*
127: 0x025E [0x03] Work_Zone_1700[0] = 0*
128: 0x0263 [0x03] Work_Zone_1700[1] = 0*
129: 0x0268 [0x03] Work_Zone_1700[2] = 0*
130: 0x026D [0x03] Work_Zone_1700[3] = 0*
131: 0x0272 [0x03] Work_Zone_1700[4] = 0*
132: 0x0277 [0x03] Work_Zone_1700[5] = 0*
133: 0x027C [0x03] Work_Zone_1700[6] = 0*
134: 0x0281 [0x03] Work_Zone_1700[7] = 0*
135: 0x0286 [0x03] Work_Zone_1700[8] = 0*
136: 0x028B [0x03] Work_Zone_1700[9] = 0*
137: 0x0290 [0x03] Work_Zone_1700[10] = 0*
138: 0x0295 [0x03] Work_Zone_1700[11] = 0*
139: 0x029A [0x03] Work_Zone_1700[12] = 0*
140: 0x029F [0x1A] CALL_SUBROUTINE(address=0x1FA1)
141: 0x02A2 [0x3C] SET_BIT_FLAG_CONDITIONAL(target_work_offset=ExtData[1]->WorkLocal[9], bit_index_work_offset=12*, condition_work_offset=1*)
142: 0x02A9 [0x01] GOTO 0x02AC

SUBROUTINE_02AC:
143: 0x02AC [0x24] CREATE_DIALOG(message_id=7290*, default_option=0*, option_flags=ExtData[1]->WorkLocal[9])
     "Select item. (Cruor: $0) [Nothing right now./$1: $2./$3: $4./$5: $6./$7: $8./$9: $10./$11: $12./$13: $14./$15: $16./$17: $18./$19: $20./Previous page./Next page.]"
144: 0x02B3 [0x25] WAIT_DIALOG_SELECT()
145: 0x02B4 [0x02] IF !(Work_Zone[0] == 0*) GOTO 0x02C2
146: 0x02BC [0x06] ExtData[1]->WorkLocal[11] = 0
147: 0x02BF [0x01] GOTO 0x032E
148: 0x02C2 [0x02] IF !(Work_Zone[0] == 11*) GOTO 0x02F8
149: 0x02CA [0x02] IF !(ExtData[1]->WorkLocal[2] == 0*) GOTO 0x02D5
150: 0x02D2 [0x01] GOTO 0x02F5
151: 0x02D5 [0x02] IF !(ExtData[1]->WorkLocal[2] == 1*) GOTO 0x02E5
152: 0x02DD [0x03] ExtData[1]->WorkLocal[2] = 0*
153: 0x02E2 [0x01] GOTO 0x02F5
154: 0x02E5 [0x02] IF !(ExtData[1]->WorkLocal[2] == 2*) GOTO 0x02F5
155: 0x02ED [0x03] ExtData[1]->WorkLocal[2] = 1*
156: 0x02F2 [0x01] GOTO 0x02F5

SUBROUTINE_02F5:
157: 0x02F5 [0x01] GOTO 0x032E
158: 0x02F8 [0x02] IF !(Work_Zone[0] == 12*) GOTO 0x032E
159: 0x0300 [0x02] IF !(ExtData[1]->WorkLocal[2] == 0*) GOTO 0x0310
160: 0x0308 [0x03] ExtData[1]->WorkLocal[2] = 1*
161: 0x030D [0x01] GOTO 0x032B
162: 0x0310 [0x02] IF !(ExtData[1]->WorkLocal[2] == 1*) GOTO 0x0320
163: 0x0318 [0x03] ExtData[1]->WorkLocal[2] = 2*
164: 0x031D [0x01] GOTO 0x032B
165: 0x0320 [0x02] IF !(ExtData[1]->WorkLocal[2] == 2*) GOTO 0x032B
166: 0x0328 [0x01] GOTO 0x032B

SUBROUTINE_032B:
167: 0x032B [0x01] GOTO 0x032E

SUBROUTINE_032E:
168: 0x032E [0x02] IF !(Work_Zone[0] < 1*) GOTO 0x07E7
169: 0x0336 [0x02] IF !(Work_Zone[0] > 10*) GOTO 0x07E7
170: 0x033E [0x02] IF !(ExtData[1]->WorkLocal[2] == 0*) GOTO 0x044D
171: 0x0346 [0x02] IF !(Work_Zone[0] == 1*) GOTO 0x0360
172: 0x034E [0x03] ExtData[1]->WorkLocal[3] = 0*
173: 0x0353 [0x03] ExtData[1]->WorkLocal[4] = 0*
174: 0x0358 [0x03] ExtData[1]->WorkLocal[7] = 1*
175: 0x035D [0x01] GOTO 0x044A
176: 0x0360 [0x02] IF !(Work_Zone[0] == 2*) GOTO 0x037A
177: 0x0368 [0x03] ExtData[1]->WorkLocal[3] = 0*
178: 0x036D [0x03] ExtData[1]->WorkLocal[4] = 0*
179: 0x0372 [0x03] ExtData[1]->WorkLocal[7] = 2*
180: 0x0377 [0x01] GOTO 0x044A
181: 0x037A [0x02] IF !(Work_Zone[0] == 3*) GOTO 0x0394
182: 0x0382 [0x03] ExtData[1]->WorkLocal[3] = 0*
183: 0x0387 [0x03] ExtData[1]->WorkLocal[4] = 0*
184: 0x038C [0x03] ExtData[1]->WorkLocal[7] = 3*
185: 0x0391 [0x01] GOTO 0x044A
186: 0x0394 [0x02] IF !(Work_Zone[0] == 4*) GOTO 0x03AE
187: 0x039C [0x03] ExtData[1]->WorkLocal[3] = 0*
188: 0x03A1 [0x03] ExtData[1]->WorkLocal[4] = 0*
189: 0x03A6 [0x03] ExtData[1]->WorkLocal[7] = 4*
190: 0x03AB [0x01] GOTO 0x044A
191: 0x03AE [0x02] IF !(Work_Zone[0] == 5*) GOTO 0x03C8
192: 0x03B6 [0x03] ExtData[1]->WorkLocal[3] = 0*
193: 0x03BB [0x03] ExtData[1]->WorkLocal[4] = 0*
194: 0x03C0 [0x03] ExtData[1]->WorkLocal[7] = 5*
195: 0x03C5 [0x01] GOTO 0x044A
196: 0x03C8 [0x02] IF !(Work_Zone[0] == 6*) GOTO 0x03E2
197: 0x03D0 [0x03] ExtData[1]->WorkLocal[3] = 0*
198: 0x03D5 [0x03] ExtData[1]->WorkLocal[4] = 0*
199: 0x03DA [0x03] ExtData[1]->WorkLocal[7] = 6*
200: 0x03DF [0x01] GOTO 0x044A
201: 0x03E2 [0x02] IF !(Work_Zone[0] == 7*) GOTO 0x03FC
202: 0x03EA [0x03] ExtData[1]->WorkLocal[3] = 0*
203: 0x03EF [0x03] ExtData[1]->WorkLocal[4] = 0*
204: 0x03F4 [0x03] ExtData[1]->WorkLocal[7] = 7*
205: 0x03F9 [0x01] GOTO 0x044A
206: 0x03FC [0x02] IF !(Work_Zone[0] == 8*) GOTO 0x0416
207: 0x0404 [0x03] ExtData[1]->WorkLocal[3] = 0*
208: 0x0409 [0x03] ExtData[1]->WorkLocal[4] = 0*
209: 0x040E [0x03] ExtData[1]->WorkLocal[7] = 8*
210: 0x0413 [0x01] GOTO 0x044A
211: 0x0416 [0x02] IF !(Work_Zone[0] == 9*) GOTO 0x0430
212: 0x041E [0x03] ExtData[1]->WorkLocal[3] = 0*
213: 0x0423 [0x03] ExtData[1]->WorkLocal[4] = 0*
214: 0x0428 [0x03] ExtData[1]->WorkLocal[7] = 9*
215: 0x042D [0x01] GOTO 0x044A
216: 0x0430 [0x02] IF !(Work_Zone[0] == 10*) GOTO 0x044A
217: 0x0438 [0x03] ExtData[1]->WorkLocal[3] = 0*
218: 0x043D [0x03] ExtData[1]->WorkLocal[4] = 0*
219: 0x0442 [0x03] ExtData[1]->WorkLocal[7] = 10*
220: 0x0447 [0x01] GOTO 0x044A

SUBROUTINE_044A:
221: 0x044A [0x01] GOTO 0x066B
222: 0x044D [0x02] IF !(ExtData[1]->WorkLocal[2] == 1*) GOTO 0x055C
223: 0x0455 [0x02] IF !(Work_Zone[0] == 1*) GOTO 0x046F
224: 0x045D [0x03] ExtData[1]->WorkLocal[3] = 0*
225: 0x0462 [0x03] ExtData[1]->WorkLocal[4] = 0*
226: 0x0467 [0x03] ExtData[1]->WorkLocal[7] = 11*
227: 0x046C [0x01] GOTO 0x0559
228: 0x046F [0x02] IF !(Work_Zone[0] == 2*) GOTO 0x0489
229: 0x0477 [0x03] ExtData[1]->WorkLocal[3] = 0*
230: 0x047C [0x03] ExtData[1]->WorkLocal[4] = 0*
231: 0x0481 [0x03] ExtData[1]->WorkLocal[7] = 12*
232: 0x0486 [0x01] GOTO 0x0559
233: 0x0489 [0x02] IF !(Work_Zone[0] == 3*) GOTO 0x04A3
234: 0x0491 [0x03] ExtData[1]->WorkLocal[3] = 0*
235: 0x0496 [0x03] ExtData[1]->WorkLocal[4] = 0*
236: 0x049B [0x03] ExtData[1]->WorkLocal[7] = 13*
237: 0x04A0 [0x01] GOTO 0x0559
238: 0x04A3 [0x02] IF !(Work_Zone[0] == 4*) GOTO 0x04BD
239: 0x04AB [0x03] ExtData[1]->WorkLocal[3] = 0*
240: 0x04B0 [0x03] ExtData[1]->WorkLocal[4] = 0*
241: 0x04B5 [0x03] ExtData[1]->WorkLocal[7] = 14*
242: 0x04BA [0x01] GOTO 0x0559
243: 0x04BD [0x02] IF !(Work_Zone[0] == 5*) GOTO 0x04D7
244: 0x04C5 [0x03] ExtData[1]->WorkLocal[3] = 0*
245: 0x04CA [0x03] ExtData[1]->WorkLocal[4] = 0*
246: 0x04CF [0x03] ExtData[1]->WorkLocal[7] = 15*
247: 0x04D4 [0x01] GOTO 0x0559
248: 0x04D7 [0x02] IF !(Work_Zone[0] == 6*) GOTO 0x04F1
249: 0x04DF [0x03] ExtData[1]->WorkLocal[3] = 0*
250: 0x04E4 [0x03] ExtData[1]->WorkLocal[4] = 0*
251: 0x04E9 [0x03] ExtData[1]->WorkLocal[7] = 16*
252: 0x04EE [0x01] GOTO 0x0559
253: 0x04F1 [0x02] IF !(Work_Zone[0] == 7*) GOTO 0x050B
254: 0x04F9 [0x03] ExtData[1]->WorkLocal[3] = 0*
255: 0x04FE [0x03] ExtData[1]->WorkLocal[4] = 0*
256: 0x0503 [0x03] ExtData[1]->WorkLocal[7] = 17*
257: 0x0508 [0x01] GOTO 0x0559
258: 0x050B [0x02] IF !(Work_Zone[0] == 8*) GOTO 0x0525
259: 0x0513 [0x03] ExtData[1]->WorkLocal[3] = 0*
260: 0x0518 [0x03] ExtData[1]->WorkLocal[4] = 0*
261: 0x051D [0x03] ExtData[1]->WorkLocal[7] = 18*
262: 0x0522 [0x01] GOTO 0x0559
263: 0x0525 [0x02] IF !(Work_Zone[0] == 9*) GOTO 0x053F
264: 0x052D [0x03] ExtData[1]->WorkLocal[3] = 0*
265: 0x0532 [0x03] ExtData[1]->WorkLocal[4] = 0*
266: 0x0537 [0x03] ExtData[1]->WorkLocal[7] = 19*
267: 0x053C [0x01] GOTO 0x0559
268: 0x053F [0x02] IF !(Work_Zone[0] == 10*) GOTO 0x0559
269: 0x0547 [0x03] ExtData[1]->WorkLocal[3] = 0*
270: 0x054C [0x03] ExtData[1]->WorkLocal[4] = 0*
271: 0x0551 [0x03] ExtData[1]->WorkLocal[7] = 20*
272: 0x0556 [0x01] GOTO 0x0559

SUBROUTINE_0559:
273: 0x0559 [0x01] GOTO 0x066B
274: 0x055C [0x02] IF !(ExtData[1]->WorkLocal[2] == 2*) GOTO 0x066B
275: 0x0564 [0x02] IF !(Work_Zone[0] == 1*) GOTO 0x057E
276: 0x056C [0x03] ExtData[1]->WorkLocal[3] = 0*
277: 0x0571 [0x03] ExtData[1]->WorkLocal[4] = 0*
278: 0x0576 [0x03] ExtData[1]->WorkLocal[7] = 21*
279: 0x057B [0x01] GOTO 0x0668
280: 0x057E [0x02] IF !(Work_Zone[0] == 2*) GOTO 0x0598
281: 0x0586 [0x03] ExtData[1]->WorkLocal[3] = 0*
282: 0x058B [0x03] ExtData[1]->WorkLocal[4] = 0*
283: 0x0590 [0x03] ExtData[1]->WorkLocal[7] = 22*
284: 0x0595 [0x01] GOTO 0x0668
285: 0x0598 [0x02] IF !(Work_Zone[0] == 3*) GOTO 0x05B2
286: 0x05A0 [0x03] ExtData[1]->WorkLocal[3] = 0*
287: 0x05A5 [0x03] ExtData[1]->WorkLocal[4] = 0*
288: 0x05AA [0x03] ExtData[1]->WorkLocal[7] = 23*
289: 0x05AF [0x01] GOTO 0x0668
290: 0x05B2 [0x02] IF !(Work_Zone[0] == 4*) GOTO 0x05CC
291: 0x05BA [0x03] ExtData[1]->WorkLocal[3] = 0*
292: 0x05BF [0x03] ExtData[1]->WorkLocal[4] = 0*
293: 0x05C4 [0x03] ExtData[1]->WorkLocal[7] = 24*
294: 0x05C9 [0x01] GOTO 0x0668
295: 0x05CC [0x02] IF !(Work_Zone[0] == 5*) GOTO 0x05E6
296: 0x05D4 [0x03] ExtData[1]->WorkLocal[3] = 0*
297: 0x05D9 [0x03] ExtData[1]->WorkLocal[4] = 0*
298: 0x05DE [0x03] ExtData[1]->WorkLocal[7] = 25*
299: 0x05E3 [0x01] GOTO 0x0668
300: 0x05E6 [0x02] IF !(Work_Zone[0] == 6*) GOTO 0x0600
301: 0x05EE [0x03] ExtData[1]->WorkLocal[3] = 0*
302: 0x05F3 [0x03] ExtData[1]->WorkLocal[4] = 0*
303: 0x05F8 [0x03] ExtData[1]->WorkLocal[7] = 26*
304: 0x05FD [0x01] GOTO 0x0668
305: 0x0600 [0x02] IF !(Work_Zone[0] == 7*) GOTO 0x061A
306: 0x0608 [0x03] ExtData[1]->WorkLocal[3] = 0*
307: 0x060D [0x03] ExtData[1]->WorkLocal[4] = 0*
308: 0x0612 [0x03] ExtData[1]->WorkLocal[7] = 27*
309: 0x0617 [0x01] GOTO 0x0668
310: 0x061A [0x02] IF !(Work_Zone[0] == 8*) GOTO 0x0634
311: 0x0622 [0x03] ExtData[1]->WorkLocal[3] = 0*
312: 0x0627 [0x03] ExtData[1]->WorkLocal[4] = 0*
313: 0x062C [0x03] ExtData[1]->WorkLocal[7] = 28*
314: 0x0631 [0x01] GOTO 0x0668
315: 0x0634 [0x02] IF !(Work_Zone[0] == 9*) GOTO 0x064E
316: 0x063C [0x03] ExtData[1]->WorkLocal[3] = 0*
317: 0x0641 [0x03] ExtData[1]->WorkLocal[4] = 0*
318: 0x0646 [0x03] ExtData[1]->WorkLocal[7] = 29*
319: 0x064B [0x01] GOTO 0x0668
320: 0x064E [0x02] IF !(Work_Zone[0] == 10*) GOTO 0x0668
321: 0x0656 [0x03] ExtData[1]->WorkLocal[3] = 0*
322: 0x065B [0x03] ExtData[1]->WorkLocal[4] = 0*
323: 0x0660 [0x03] ExtData[1]->WorkLocal[7] = 30*
324: 0x0665 [0x01] GOTO 0x0668

SUBROUTINE_0668:
325: 0x0668 [0x01] GOTO 0x066B

SUBROUTINE_066B:
326: 0x066B [0x93] DISPLAY_ITEM_INFO(item_id=ExtData[1]->WorkLocal[3])
327: 0x066E [0x03] Work_Zone[2] = ExtData[1]->WorkLocal[3]
328: 0x0673 [0x48] [System] [7295*]:
     "Trade for $0?"
329: 0x0676 [0x23] WAIT_FOR_DIALOG_INTERACTION
330: 0x0677 [0x93] DISPLAY_ITEM_INFO(item_id=0*)
331: 0x067A [0x02] IF !(ExtData[1]->WorkLocal[3] == 2490*) GOTO 0x079D
332: 0x0682 [0x03] ExtData[1]->WorkLocal[14] = 0*
333: 0x0687 [0x03] Work_Zone[2] = ExtData[1]->WorkLocal[0]
334: 0x068C [0x03] Work_Zone[3] = 1*
335: 0x0691 [0x03] Work_Zone[4] = 500*
336: 0x0696 [0x03] Work_Zone[5] = 5*
337: 0x069B [0x03] Work_Zone[6] = 2500*
338: 0x06A0 [0x03] Work_Zone[7] = 10*
339: 0x06A5 [0x03] Work_Zone[8] = 5000*
340: 0x06AA [0x03] Work_Zone[9] = 30*
341: 0x06AF [0x03] Work_Zone_1700[0] = 15000*
342: 0x06B4 [0x03] Work_Zone_1700[1] = 50*
343: 0x06B9 [0x03] Work_Zone_1700[2] = 25000*
344: 0x06BE [0x24] CREATE_DIALOG(message_id=7327*, default_option=0*, option_flags=0*)
     "Trade for how many? (Cruor balance: $0) [None for now./$1 ($2 cruor)./$3 ($4 cruor)./$5i$6 cruor)./$7i$8 cruor)./$9 ($10 cruor).]"
345: 0x06C5 [0x25] WAIT_DIALOG_SELECT()
346: 0x06C6 [0x02] IF !(Work_Zone[0] == 0*) GOTO 0x06D1
347: 0x06CE [0x01] GOTO 0x073A
348: 0x06D1 [0x02] IF !(Work_Zone[0] == 1*) GOTO 0x06E6
349: 0x06D9 [0x03] ExtData[1]->WorkLocal[14] = 1*
350: 0x06DE [0x03] ExtData[1]->WorkLocal[4] = 500*
351: 0x06E3 [0x01] GOTO 0x073A
352: 0x06E6 [0x02] IF !(Work_Zone[0] == 2*) GOTO 0x06FB
353: 0x06EE [0x03] ExtData[1]->WorkLocal[14] = 5*
354: 0x06F3 [0x03] ExtData[1]->WorkLocal[4] = 2500*
355: 0x06F8 [0x01] GOTO 0x073A
356: 0x06FB [0x02] IF !(Work_Zone[0] == 3*) GOTO 0x0710
357: 0x0703 [0x03] ExtData[1]->WorkLocal[14] = 10*
358: 0x0708 [0x03] ExtData[1]->WorkLocal[4] = 5000*
359: 0x070D [0x01] GOTO 0x073A
360: 0x0710 [0x02] IF !(Work_Zone[0] == 4*) GOTO 0x0725
361: 0x0718 [0x03] ExtData[1]->WorkLocal[14] = 30*
362: 0x071D [0x03] ExtData[1]->WorkLocal[4] = 15000*
363: 0x0722 [0x01] GOTO 0x073A
364: 0x0725 [0x02] IF !(Work_Zone[0] == 5*) GOTO 0x073A
365: 0x072D [0x03] ExtData[1]->WorkLocal[14] = 50*
366: 0x0732 [0x03] ExtData[1]->WorkLocal[4] = 25000*
367: 0x0737 [0x01] GOTO 0x073A

SUBROUTINE_073A:
368: 0x073A [0x02] IF !(ExtData[1]->WorkLocal[14] <= 0*) GOTO 0x079A
369: 0x0742 [0x03] Work_Zone[2] = 2490*
370: 0x0747 [0x03] Work_Zone[3] = ExtData[1]->WorkLocal[14]
371: 0x074C [0x24] CREATE_DIALOG(message_id=7328*, default_option=1*, option_flags=0*)
     "Trade for $1 of the item? [Yes./No.]"
372: 0x0753 [0x25] WAIT_DIALOG_SELECT()
373: 0x0754 [0x02] IF !(Work_Zone[0] == 0*) GOTO 0x078F
374: 0x075C [0x02] IF !(ExtData[1]->WorkLocal[0] < ExtData[1]->WorkLocal[4]) GOTO 0x0788
375: 0x0764 [0x40] SET_BIT_WORK_RANGE(start_bit=0*, end_bit=15*, target=Work_Zone[1], source=1*)
376: 0x076D [0x40] SET_BIT_WORK_RANGE(start_bit=16*, end_bit=23*, target=Work_Zone[1], source=ExtData[1]->WorkLocal[7])
377: 0x0776 [0x40] SET_BIT_WORK_RANGE(start_bit=24*, end_bit=31*, target=Work_Zone[1], source=ExtData[1]->WorkLocal[14])
378: 0x077F [0x06] ExtData[1]->WorkLocal[11] = 0
379: 0x0782 [0x06] ExtData[1]->WorkLocal[10] = 0
380: 0x0785 [0x01] GOTO 0x078C
381: 0x0788 [0x1D] PRINT_EVENT_MESSAGE(message_id=7308*)
     "You do not have enough cruor."
382: 0x078B [0x23] WAIT_FOR_DIALOG_INTERACTION

SUBROUTINE_078C:
383: 0x078C [0x01] GOTO 0x079A
384: 0x078F [0x02] IF !(Work_Zone[0] == 1*) GOTO 0x079A
385: 0x0797 [0x01] GOTO 0x079A

SUBROUTINE_079A:
386: 0x079A [0x01] GOTO 0x07E7
387: 0x079D [0x03] Work_Zone[2] = ExtData[1]->WorkLocal[3]
388: 0x07A2 [0x24] CREATE_DIALOG(message_id=7297*, default_option=1*, option_flags=0*)
     "Trade for $0? [Yes./No.]"
389: 0x07A9 [0x25] WAIT_DIALOG_SELECT()
390: 0x07AA [0x02] IF !(Work_Zone[0] == 0*) GOTO 0x07DC
391: 0x07B2 [0x02] IF !(ExtData[1]->WorkLocal[0] < ExtData[1]->WorkLocal[4]) GOTO 0x07D5
392: 0x07BA [0x40] SET_BIT_WORK_RANGE(start_bit=0*, end_bit=15*, target=Work_Zone[1], source=1*)
393: 0x07C3 [0x40] SET_BIT_WORK_RANGE(start_bit=16*, end_bit=23*, target=Work_Zone[1], source=ExtData[1]->WorkLocal[7])
394: 0x07CC [0x06] ExtData[1]->WorkLocal[11] = 0
395: 0x07CF [0x06] ExtData[1]->WorkLocal[10] = 0
396: 0x07D2 [0x01] GOTO 0x07D9
397: 0x07D5 [0x1D] PRINT_EVENT_MESSAGE(message_id=7308*)
     "You do not have enough cruor."
398: 0x07D8 [0x23] WAIT_FOR_DIALOG_INTERACTION

SUBROUTINE_07D9:
399: 0x07D9 [0x01] GOTO 0x07E7
400: 0x07DC [0x02] IF !(Work_Zone[0] == 1*) GOTO 0x07E7
401: 0x07E4 [0x01] GOTO 0x07E7

SUBROUTINE_07E7:
402: 0x07E7 [0x01] GOTO 0x0109
403: 0x07EA [0x01] GOTO 0x198F
404: 0x07ED [0x02] IF !(Work_Zone[0] == 3*) GOTO 0x0DEC
405: 0x07F5 [0x1A] CALL_SUBROUTINE(address=0x1B99)
406: 0x07F8 [0x05] ExtData[1]->WorkLocal[11] = 1

SUBROUTINE_07FB:
407: 0x07FB [0x02] IF !(ExtData[1]->WorkLocal[11] <= 0*) GOTO 0x0DE9
408: 0x0803 [0x03] ExtData[1]->WorkLocal[3] = 0*
409: 0x0808 [0x03] ExtData[1]->WorkLocal[4] = 0*
410: 0x080D [0x03] ExtData[1]->WorkLocal[7] = 0*
411: 0x0812 [0x03] ExtData[1]->WorkLocal[9] = 0*
412: 0x0817 [0x03] Work_Zone[2] = ExtData[1]->WorkLocal[0]
413: 0x081C [0x02] IF !(ExtData[1]->WorkLocal[2] == 0*) GOTO 0x08A4
414: 0x0824 [0x03] Work_Zone[3] = 5824*
415: 0x0829 [0x03] Work_Zone[4] = 80*
416: 0x082E [0x03] Work_Zone[5] = 5827*
417: 0x0833 [0x03] Work_Zone[6] = 80*
418: 0x0838 [0x03] Work_Zone[7] = 4206*
419: 0x083D [0x03] Work_Zone[8] = 80*
420: 0x0842 [0x03] Work_Zone[9] = 5433*
421: 0x0847 [0x03] Work_Zone_1700[0] = 120*
422: 0x084C [0x03] Work_Zone_1700[1] = 5837*
423: 0x0851 [0x03] Work_Zone_1700[2] = 120*
424: 0x0856 [0x03] Work_Zone_1700[3] = 5839*
425: 0x085B [0x03] Work_Zone_1700[4] = 150*
426: 0x0860 [0x03] Work_Zone_1700[5] = 5841*
427: 0x0865 [0x03] Work_Zone_1700[6] = 150*
428: 0x086A [0x03] Work_Zone_1700[7] = 5843*
429: 0x086F [0x03] Work_Zone_1700[8] = 150*
430: 0x0874 [0x03] Work_Zone_1700[9] = 5825*
431: 0x0879 [0x03] Work_Zone_1700[10] = 200*
432: 0x087E [0x03] Work_Zone_1700[11] = 5828*
433: 0x0883 [0x03] Work_Zone_1700[12] = 200*
434: 0x0888 [0x1A] CALL_SUBROUTINE(address=0x1FA1)
435: 0x088B [0x3C] SET_BIT_FLAG_CONDITIONAL(target_work_offset=ExtData[1]->WorkLocal[9], bit_index_work_offset=11*, condition_work_offset=1*)
436: 0x0892 [0x02] IF !(ExtData[1]->WorkLocal[5] > 10*) GOTO 0x08A1
437: 0x089A [0x3C] SET_BIT_FLAG_CONDITIONAL(target_work_offset=ExtData[1]->WorkLocal[9], bit_index_work_offset=12*, condition_work_offset=1*)
438: 0x08A1 [0x01] GOTO 0x099E
439: 0x08A4 [0x02] IF !(ExtData[1]->WorkLocal[2] == 1*) GOTO 0x0925
440: 0x08AC [0x03] Work_Zone[3] = 5830*
441: 0x08B1 [0x03] Work_Zone[4] = 300*
442: 0x08B6 [0x03] Work_Zone[5] = 5322*
443: 0x08BB [0x03] Work_Zone[6] = 300*
444: 0x08C0 [0x03] Work_Zone[7] = 4255*
445: 0x08C5 [0x03] Work_Zone[8] = 300*
446: 0x08CA [0x03] Work_Zone[9] = 5835*
447: 0x08CF [0x03] Work_Zone_1700[0] = 300*
448: 0x08D4 [0x03] Work_Zone_1700[1] = 5439*
449: 0x08D9 [0x03] Work_Zone_1700[2] = 300*
450: 0x08DE [0x03] Work_Zone_1700[3] = 5838*
451: 0x08E3 [0x03] Work_Zone_1700[4] = 300*
452: 0x08E8 [0x03] Work_Zone_1700[5] = 5853*
453: 0x08ED [0x03] Work_Zone_1700[6] = 2000000*
454: 0x08F2 [0x03] Work_Zone_1700[7] = 0*
455: 0x08F7 [0x03] Work_Zone_1700[8] = 0*
456: 0x08FC [0x03] Work_Zone_1700[9] = 0*
457: 0x0901 [0x03] Work_Zone_1700[10] = 0*
458: 0x0906 [0x03] Work_Zone_1700[11] = 0*
459: 0x090B [0x03] Work_Zone_1700[12] = 0*
460: 0x0910 [0x1A] CALL_SUBROUTINE(address=0x1FA1)
461: 0x0913 [0x02] IF !(ExtData[1]->WorkLocal[5] > 20*) GOTO 0x0922
462: 0x091B [0x3C] SET_BIT_FLAG_CONDITIONAL(target_work_offset=ExtData[1]->WorkLocal[9], bit_index_work_offset=12*, condition_work_offset=1*)
463: 0x0922 [0x01] GOTO 0x099E
464: 0x0925 [0x02] IF !(ExtData[1]->WorkLocal[2] == 2*) GOTO 0x099E
465: 0x092D [0x03] Work_Zone[3] = 0*
466: 0x0932 [0x03] Work_Zone[4] = 0*
467: 0x0937 [0x03] Work_Zone[5] = 0*
468: 0x093C [0x03] Work_Zone[6] = 0*
469: 0x0941 [0x03] Work_Zone[7] = 0*
470: 0x0946 [0x03] Work_Zone[8] = 0*
471: 0x094B [0x03] Work_Zone[9] = 0*
472: 0x0950 [0x03] Work_Zone_1700[0] = 0*
473: 0x0955 [0x03] Work_Zone_1700[1] = 0*
474: 0x095A [0x03] Work_Zone_1700[2] = 0*
475: 0x095F [0x03] Work_Zone_1700[3] = 0*
476: 0x0964 [0x03] Work_Zone_1700[4] = 0*
477: 0x0969 [0x03] Work_Zone_1700[5] = 0*
478: 0x096E [0x03] Work_Zone_1700[6] = 0*
479: 0x0973 [0x03] Work_Zone_1700[7] = 0*
480: 0x0978 [0x03] Work_Zone_1700[8] = 0*
481: 0x097D [0x03] Work_Zone_1700[9] = 0*
482: 0x0982 [0x03] Work_Zone_1700[10] = 0*
483: 0x0987 [0x03] Work_Zone_1700[11] = 0*
484: 0x098C [0x03] Work_Zone_1700[12] = 0*
485: 0x0991 [0x1A] CALL_SUBROUTINE(address=0x1FA1)
486: 0x0994 [0x3C] SET_BIT_FLAG_CONDITIONAL(target_work_offset=ExtData[1]->WorkLocal[9], bit_index_work_offset=12*, condition_work_offset=1*)
487: 0x099B [0x01] GOTO 0x099E

SUBROUTINE_099E:
488: 0x099E [0x02] IF !(ExtData[1]->WorkLocal[15] == 1*) GOTO 0x09A9
489: 0x09A6 [0x1A] CALL_SUBROUTINE(address=0x2038)
490: 0x09A9 [0x24] CREATE_DIALOG(message_id=7291*, default_option=0*, option_flags=ExtData[1]->WorkLocal[9])
     "Select item. (Cruor: $0) [Nothing right now./$1: $2./$3: $4./$5: $6./$7: $8./$9: $10./$11: $12./$13: $14./$15: $16./$17: $18./$19: $20./Previous page./Next page.]"
491: 0x09B0 [0x25] WAIT_DIALOG_SELECT()
492: 0x09B1 [0x02] IF !(Work_Zone[0] == 0*) GOTO 0x09BF
493: 0x09B9 [0x06] ExtData[1]->WorkLocal[11] = 0
494: 0x09BC [0x01] GOTO 0x0A2B
495: 0x09BF [0x02] IF !(Work_Zone[0] == 11*) GOTO 0x09F5
496: 0x09C7 [0x02] IF !(ExtData[1]->WorkLocal[2] == 0*) GOTO 0x09D2
497: 0x09CF [0x01] GOTO 0x09F2
498: 0x09D2 [0x02] IF !(ExtData[1]->WorkLocal[2] == 1*) GOTO 0x09E2
499: 0x09DA [0x03] ExtData[1]->WorkLocal[2] = 0*
500: 0x09DF [0x01] GOTO 0x09F2
501: 0x09E2 [0x02] IF !(ExtData[1]->WorkLocal[2] == 2*) GOTO 0x09F2
502: 0x09EA [0x03] ExtData[1]->WorkLocal[2] = 1*
503: 0x09EF [0x01] GOTO 0x09F2

SUBROUTINE_09F2:
504: 0x09F2 [0x01] GOTO 0x0A2B
505: 0x09F5 [0x02] IF !(Work_Zone[0] == 12*) GOTO 0x0A2B
506: 0x09FD [0x02] IF !(ExtData[1]->WorkLocal[2] == 0*) GOTO 0x0A0D
507: 0x0A05 [0x03] ExtData[1]->WorkLocal[2] = 1*
508: 0x0A0A [0x01] GOTO 0x0A28
509: 0x0A0D [0x02] IF !(ExtData[1]->WorkLocal[2] == 1*) GOTO 0x0A1D
510: 0x0A15 [0x03] ExtData[1]->WorkLocal[2] = 2*
511: 0x0A1A [0x01] GOTO 0x0A28
512: 0x0A1D [0x02] IF !(ExtData[1]->WorkLocal[2] == 2*) GOTO 0x0A28
513: 0x0A25 [0x01] GOTO 0x0A28

SUBROUTINE_0A28:
514: 0x0A28 [0x01] GOTO 0x0A2B

SUBROUTINE_0A2B:
515: 0x0A2B [0x02] IF !(Work_Zone[0] < 1*) GOTO 0x0DE6
516: 0x0A33 [0x02] IF !(Work_Zone[0] > 10*) GOTO 0x0DE6
517: 0x0A3B [0x02] IF !(ExtData[1]->WorkLocal[2] == 0*) GOTO 0x0B4A
518: 0x0A43 [0x02] IF !(Work_Zone[0] == 1*) GOTO 0x0A5D
519: 0x0A4B [0x03] ExtData[1]->WorkLocal[3] = 5824*
520: 0x0A50 [0x03] ExtData[1]->WorkLocal[4] = 80*
521: 0x0A55 [0x03] ExtData[1]->WorkLocal[7] = 1*
522: 0x0A5A [0x01] GOTO 0x0B47
523: 0x0A5D [0x02] IF !(Work_Zone[0] == 2*) GOTO 0x0A77
524: 0x0A65 [0x03] ExtData[1]->WorkLocal[3] = 5827*
525: 0x0A6A [0x03] ExtData[1]->WorkLocal[4] = 80*
526: 0x0A6F [0x03] ExtData[1]->WorkLocal[7] = 2*
527: 0x0A74 [0x01] GOTO 0x0B47
528: 0x0A77 [0x02] IF !(Work_Zone[0] == 3*) GOTO 0x0A91
529: 0x0A7F [0x03] ExtData[1]->WorkLocal[3] = 4206*
530: 0x0A84 [0x03] ExtData[1]->WorkLocal[4] = 80*
531: 0x0A89 [0x03] ExtData[1]->WorkLocal[7] = 3*
532: 0x0A8E [0x01] GOTO 0x0B47
533: 0x0A91 [0x02] IF !(Work_Zone[0] == 4*) GOTO 0x0AAB
534: 0x0A99 [0x03] ExtData[1]->WorkLocal[3] = 5433*
535: 0x0A9E [0x03] ExtData[1]->WorkLocal[4] = 120*
536: 0x0AA3 [0x03] ExtData[1]->WorkLocal[7] = 4*
537: 0x0AA8 [0x01] GOTO 0x0B47
538: 0x0AAB [0x02] IF !(Work_Zone[0] == 5*) GOTO 0x0AC5
539: 0x0AB3 [0x03] ExtData[1]->WorkLocal[3] = 5837*
540: 0x0AB8 [0x03] ExtData[1]->WorkLocal[4] = 120*
541: 0x0ABD [0x03] ExtData[1]->WorkLocal[7] = 5*
542: 0x0AC2 [0x01] GOTO 0x0B47
543: 0x0AC5 [0x02] IF !(Work_Zone[0] == 6*) GOTO 0x0ADF
544: 0x0ACD [0x03] ExtData[1]->WorkLocal[3] = 5839*
545: 0x0AD2 [0x03] ExtData[1]->WorkLocal[4] = 150*
546: 0x0AD7 [0x03] ExtData[1]->WorkLocal[7] = 6*
547: 0x0ADC [0x01] GOTO 0x0B47
548: 0x0ADF [0x02] IF !(Work_Zone[0] == 7*) GOTO 0x0AF9
549: 0x0AE7 [0x03] ExtData[1]->WorkLocal[3] = 5841*
550: 0x0AEC [0x03] ExtData[1]->WorkLocal[4] = 150*
551: 0x0AF1 [0x03] ExtData[1]->WorkLocal[7] = 7*
552: 0x0AF6 [0x01] GOTO 0x0B47
553: 0x0AF9 [0x02] IF !(Work_Zone[0] == 8*) GOTO 0x0B13
554: 0x0B01 [0x03] ExtData[1]->WorkLocal[3] = 5843*
555: 0x0B06 [0x03] ExtData[1]->WorkLocal[4] = 150*
556: 0x0B0B [0x03] ExtData[1]->WorkLocal[7] = 8*
557: 0x0B10 [0x01] GOTO 0x0B47
558: 0x0B13 [0x02] IF !(Work_Zone[0] == 9*) GOTO 0x0B2D
559: 0x0B1B [0x03] ExtData[1]->WorkLocal[3] = 5825*
560: 0x0B20 [0x03] ExtData[1]->WorkLocal[4] = 200*
561: 0x0B25 [0x03] ExtData[1]->WorkLocal[7] = 9*
562: 0x0B2A [0x01] GOTO 0x0B47
563: 0x0B2D [0x02] IF !(Work_Zone[0] == 10*) GOTO 0x0B47
564: 0x0B35 [0x03] ExtData[1]->WorkLocal[3] = 5828*
565: 0x0B3A [0x03] ExtData[1]->WorkLocal[4] = 200*
566: 0x0B3F [0x03] ExtData[1]->WorkLocal[7] = 10*
567: 0x0B44 [0x01] GOTO 0x0B47

SUBROUTINE_0B47:
568: 0x0B47 [0x01] GOTO 0x0D78
569: 0x0B4A [0x02] IF !(ExtData[1]->WorkLocal[2] == 1*) GOTO 0x0C69
570: 0x0B52 [0x02] IF !(Work_Zone[0] == 1*) GOTO 0x0B6C
571: 0x0B5A [0x03] ExtData[1]->WorkLocal[3] = 5830*
572: 0x0B5F [0x03] ExtData[1]->WorkLocal[4] = 300*
573: 0x0B64 [0x03] ExtData[1]->WorkLocal[7] = 11*
574: 0x0B69 [0x01] GOTO 0x0C66
575: 0x0B6C [0x02] IF !(Work_Zone[0] == 2*) GOTO 0x0B86
576: 0x0B74 [0x03] ExtData[1]->WorkLocal[3] = 5322*
577: 0x0B79 [0x03] ExtData[1]->WorkLocal[4] = 300*
578: 0x0B7E [0x03] ExtData[1]->WorkLocal[7] = 12*
579: 0x0B83 [0x01] GOTO 0x0C66
580: 0x0B86 [0x02] IF !(Work_Zone[0] == 3*) GOTO 0x0BA0
581: 0x0B8E [0x03] ExtData[1]->WorkLocal[3] = 4255*
582: 0x0B93 [0x03] ExtData[1]->WorkLocal[4] = 300*
583: 0x0B98 [0x03] ExtData[1]->WorkLocal[7] = 13*
584: 0x0B9D [0x01] GOTO 0x0C66
585: 0x0BA0 [0x02] IF !(Work_Zone[0] == 4*) GOTO 0x0BBA
586: 0x0BA8 [0x03] ExtData[1]->WorkLocal[3] = 5835*
587: 0x0BAD [0x03] ExtData[1]->WorkLocal[4] = 300*
588: 0x0BB2 [0x03] ExtData[1]->WorkLocal[7] = 14*
589: 0x0BB7 [0x01] GOTO 0x0C66
590: 0x0BBA [0x02] IF !(Work_Zone[0] == 5*) GOTO 0x0BD4
591: 0x0BC2 [0x03] ExtData[1]->WorkLocal[3] = 5439*
592: 0x0BC7 [0x03] ExtData[1]->WorkLocal[4] = 300*
593: 0x0BCC [0x03] ExtData[1]->WorkLocal[7] = 15*
594: 0x0BD1 [0x01] GOTO 0x0C66
595: 0x0BD4 [0x02] IF !(Work_Zone[0] == 6*) GOTO 0x0BEE
596: 0x0BDC [0x03] ExtData[1]->WorkLocal[3] = 5838*
597: 0x0BE1 [0x03] ExtData[1]->WorkLocal[4] = 300*
598: 0x0BE6 [0x03] ExtData[1]->WorkLocal[7] = 16*
599: 0x0BEB [0x01] GOTO 0x0C66
600: 0x0BEE [0x02] IF !(Work_Zone[0] == 7*) GOTO 0x0C18
601: 0x0BF6 [0x03] ExtData[1]->WorkLocal[3] = 5853*
602: 0x0BFB [0x02] IF !(ExtData[1]->WorkLocal[15] == 0*) GOTO 0x0C0B
603: 0x0C03 [0x03] ExtData[1]->WorkLocal[4] = 2000000*
604: 0x0C08 [0x01] GOTO 0x0C10
605: 0x0C0B [0x03] ExtData[1]->WorkLocal[4] = 200000*

SUBROUTINE_0C10:
606: 0x0C10 [0x03] ExtData[1]->WorkLocal[7] = 17*
607: 0x0C15 [0x01] GOTO 0x0C66
608: 0x0C18 [0x02] IF !(Work_Zone[0] == 8*) GOTO 0x0C32
609: 0x0C20 [0x03] ExtData[1]->WorkLocal[3] = 0*
610: 0x0C25 [0x03] ExtData[1]->WorkLocal[4] = 0*
611: 0x0C2A [0x03] ExtData[1]->WorkLocal[7] = 18*
612: 0x0C2F [0x01] GOTO 0x0C66
613: 0x0C32 [0x02] IF !(Work_Zone[0] == 9*) GOTO 0x0C4C
614: 0x0C3A [0x03] ExtData[1]->WorkLocal[3] = 0*
615: 0x0C3F [0x03] ExtData[1]->WorkLocal[4] = 0*
616: 0x0C44 [0x03] ExtData[1]->WorkLocal[7] = 19*
617: 0x0C49 [0x01] GOTO 0x0C66
618: 0x0C4C [0x02] IF !(Work_Zone[0] == 10*) GOTO 0x0C66
619: 0x0C54 [0x03] ExtData[1]->WorkLocal[3] = 0*
620: 0x0C59 [0x03] ExtData[1]->WorkLocal[4] = 0*
621: 0x0C5E [0x03] ExtData[1]->WorkLocal[7] = 20*
622: 0x0C63 [0x01] GOTO 0x0C66

SUBROUTINE_0C66:
623: 0x0C66 [0x01] GOTO 0x0D78
624: 0x0C69 [0x02] IF !(ExtData[1]->WorkLocal[2] == 2*) GOTO 0x0D78
625: 0x0C71 [0x02] IF !(Work_Zone[0] == 1*) GOTO 0x0C8B
626: 0x0C79 [0x03] ExtData[1]->WorkLocal[3] = 0*
627: 0x0C7E [0x03] ExtData[1]->WorkLocal[4] = 0*
628: 0x0C83 [0x03] ExtData[1]->WorkLocal[7] = 21*
629: 0x0C88 [0x01] GOTO 0x0D75
630: 0x0C8B [0x02] IF !(Work_Zone[0] == 2*) GOTO 0x0CA5
631: 0x0C93 [0x03] ExtData[1]->WorkLocal[3] = 0*
632: 0x0C98 [0x03] ExtData[1]->WorkLocal[4] = 0*
633: 0x0C9D [0x03] ExtData[1]->WorkLocal[7] = 22*
634: 0x0CA2 [0x01] GOTO 0x0D75
635: 0x0CA5 [0x02] IF !(Work_Zone[0] == 3*) GOTO 0x0CBF
636: 0x0CAD [0x03] ExtData[1]->WorkLocal[3] = 0*
637: 0x0CB2 [0x03] ExtData[1]->WorkLocal[4] = 0*
638: 0x0CB7 [0x03] ExtData[1]->WorkLocal[7] = 23*
639: 0x0CBC [0x01] GOTO 0x0D75
640: 0x0CBF [0x02] IF !(Work_Zone[0] == 4*) GOTO 0x0CD9
641: 0x0CC7 [0x03] ExtData[1]->WorkLocal[3] = 0*
642: 0x0CCC [0x03] ExtData[1]->WorkLocal[4] = 0*
643: 0x0CD1 [0x03] ExtData[1]->WorkLocal[7] = 24*
644: 0x0CD6 [0x01] GOTO 0x0D75
645: 0x0CD9 [0x02] IF !(Work_Zone[0] == 5*) GOTO 0x0CF3
646: 0x0CE1 [0x03] ExtData[1]->WorkLocal[3] = 0*
647: 0x0CE6 [0x03] ExtData[1]->WorkLocal[4] = 0*
648: 0x0CEB [0x03] ExtData[1]->WorkLocal[7] = 25*
649: 0x0CF0 [0x01] GOTO 0x0D75
650: 0x0CF3 [0x02] IF !(Work_Zone[0] == 6*) GOTO 0x0D0D
651: 0x0CFB [0x03] ExtData[1]->WorkLocal[3] = 0*
652: 0x0D00 [0x03] ExtData[1]->WorkLocal[4] = 0*
653: 0x0D05 [0x03] ExtData[1]->WorkLocal[7] = 26*
654: 0x0D0A [0x01] GOTO 0x0D75
655: 0x0D0D [0x02] IF !(Work_Zone[0] == 7*) GOTO 0x0D27
656: 0x0D15 [0x03] ExtData[1]->WorkLocal[3] = 0*
657: 0x0D1A [0x03] ExtData[1]->WorkLocal[4] = 0*
658: 0x0D1F [0x03] ExtData[1]->WorkLocal[7] = 27*
659: 0x0D24 [0x01] GOTO 0x0D75
660: 0x0D27 [0x02] IF !(Work_Zone[0] == 8*) GOTO 0x0D41
661: 0x0D2F [0x03] ExtData[1]->WorkLocal[3] = 0*
662: 0x0D34 [0x03] ExtData[1]->WorkLocal[4] = 0*
663: 0x0D39 [0x03] ExtData[1]->WorkLocal[7] = 28*
664: 0x0D3E [0x01] GOTO 0x0D75
665: 0x0D41 [0x02] IF !(Work_Zone[0] == 9*) GOTO 0x0D5B
666: 0x0D49 [0x03] ExtData[1]->WorkLocal[3] = 0*
667: 0x0D4E [0x03] ExtData[1]->WorkLocal[4] = 0*
668: 0x0D53 [0x03] ExtData[1]->WorkLocal[7] = 29*
669: 0x0D58 [0x01] GOTO 0x0D75
670: 0x0D5B [0x02] IF !(Work_Zone[0] == 10*) GOTO 0x0D75
671: 0x0D63 [0x03] ExtData[1]->WorkLocal[3] = 0*
672: 0x0D68 [0x03] ExtData[1]->WorkLocal[4] = 0*
673: 0x0D6D [0x03] ExtData[1]->WorkLocal[7] = 30*
674: 0x0D72 [0x01] GOTO 0x0D75

SUBROUTINE_0D75:
675: 0x0D75 [0x01] GOTO 0x0D78

SUBROUTINE_0D78:
676: 0x0D78 [0x02] IF !(ExtData[1]->WorkLocal[3] == 5853*) GOTO 0x0D8D
677: 0x0D80 [0x02] IF !(ExtData[1]->WorkLocal[15] == 1*) GOTO 0x0D8D
678: 0x0D88 [0x03] ExtData[1]->WorkLocal[4] = 200000*
679: 0x0D8D [0x93] DISPLAY_ITEM_INFO(item_id=ExtData[1]->WorkLocal[3])
680: 0x0D90 [0x03] Work_Zone[2] = ExtData[1]->WorkLocal[3]
681: 0x0D95 [0x48] [System] [7296*]:
     "Trade for $0?"
682: 0x0D98 [0x23] WAIT_FOR_DIALOG_INTERACTION
683: 0x0D99 [0x93] DISPLAY_ITEM_INFO(item_id=0*)
684: 0x0D9C [0x03] Work_Zone[2] = ExtData[1]->WorkLocal[3]
685: 0x0DA1 [0x24] CREATE_DIALOG(message_id=7298*, default_option=1*, option_flags=0*)
     "Trade for $0? [Yes./No.]"
686: 0x0DA8 [0x25] WAIT_DIALOG_SELECT()
687: 0x0DA9 [0x02] IF !(Work_Zone[0] == 0*) GOTO 0x0DDB
688: 0x0DB1 [0x02] IF !(ExtData[1]->WorkLocal[0] < ExtData[1]->WorkLocal[4]) GOTO 0x0DD4
689: 0x0DB9 [0x40] SET_BIT_WORK_RANGE(start_bit=0*, end_bit=15*, target=Work_Zone[1], source=2*)
690: 0x0DC2 [0x40] SET_BIT_WORK_RANGE(start_bit=16*, end_bit=23*, target=Work_Zone[1], source=ExtData[1]->WorkLocal[7])
691: 0x0DCB [0x06] ExtData[1]->WorkLocal[11] = 0
692: 0x0DCE [0x06] ExtData[1]->WorkLocal[10] = 0
693: 0x0DD1 [0x01] GOTO 0x0DD8
694: 0x0DD4 [0x1D] PRINT_EVENT_MESSAGE(message_id=7308*)
     "You do not have enough cruor."
695: 0x0DD7 [0x23] WAIT_FOR_DIALOG_INTERACTION

SUBROUTINE_0DD8:
696: 0x0DD8 [0x01] GOTO 0x0DE6
697: 0x0DDB [0x02] IF !(Work_Zone[0] == 1*) GOTO 0x0DE6
698: 0x0DE3 [0x01] GOTO 0x0DE6

SUBROUTINE_0DE6:
699: 0x0DE6 [0x01] GOTO 0x07FB
700: 0x0DE9 [0x01] GOTO 0x198F
701: 0x0DEC [0x02] IF !(Work_Zone[0] == 4*) GOTO 0x1492
702: 0x0DF4 [0x1A] CALL_SUBROUTINE(address=0x1D9D)
703: 0x0DF7 [0x05] ExtData[1]->WorkLocal[11] = 1

SUBROUTINE_0DFA:
704: 0x0DFA [0x02] IF !(ExtData[1]->WorkLocal[11] <= 0*) GOTO 0x148F
705: 0x0E02 [0x03] ExtData[1]->WorkLocal[3] = 0*
706: 0x0E07 [0x03] ExtData[1]->WorkLocal[4] = 0*
707: 0x0E0C [0x03] ExtData[1]->WorkLocal[7] = 0*
708: 0x0E11 [0x03] ExtData[1]->WorkLocal[9] = 0*
709: 0x0E16 [0x03] Work_Zone[2] = ExtData[1]->WorkLocal[0]
710: 0x0E1B [0x02] IF !(ExtData[1]->WorkLocal[2] == 0*) GOTO 0x0EA3
711: 0x0E23 [0x03] Work_Zone[3] = 0*
712: 0x0E28 [0x03] Work_Zone[4] = 0*
713: 0x0E2D [0x03] Work_Zone[5] = 0*
714: 0x0E32 [0x03] Work_Zone[6] = 0*
715: 0x0E37 [0x03] Work_Zone[7] = 0*
716: 0x0E3C [0x03] Work_Zone[8] = 0*
717: 0x0E41 [0x03] Work_Zone[9] = 0*
718: 0x0E46 [0x03] Work_Zone_1700[0] = 0*
719: 0x0E4B [0x03] Work_Zone_1700[1] = 0*
720: 0x0E50 [0x03] Work_Zone_1700[2] = 0*
721: 0x0E55 [0x03] Work_Zone_1700[3] = 0*
722: 0x0E5A [0x03] Work_Zone_1700[4] = 0*
723: 0x0E5F [0x03] Work_Zone_1700[5] = 0*
724: 0x0E64 [0x03] Work_Zone_1700[6] = 0*
725: 0x0E69 [0x03] Work_Zone_1700[7] = 0*
726: 0x0E6E [0x03] Work_Zone_1700[8] = 0*
727: 0x0E73 [0x03] Work_Zone_1700[9] = 0*
728: 0x0E78 [0x03] Work_Zone_1700[10] = 0*
729: 0x0E7D [0x03] Work_Zone_1700[11] = 0*
730: 0x0E82 [0x03] Work_Zone_1700[12] = 0*
731: 0x0E87 [0x1A] CALL_SUBROUTINE(address=0x1FA1)
732: 0x0E8A [0x3C] SET_BIT_FLAG_CONDITIONAL(target_work_offset=ExtData[1]->WorkLocal[9], bit_index_work_offset=11*, condition_work_offset=1*)
733: 0x0E91 [0x02] IF !(ExtData[1]->WorkLocal[5] > 10*) GOTO 0x0EA0
734: 0x0E99 [0x3C] SET_BIT_FLAG_CONDITIONAL(target_work_offset=ExtData[1]->WorkLocal[9], bit_index_work_offset=12*, condition_work_offset=1*)
735: 0x0EA0 [0x01] GOTO 0x0F9D
736: 0x0EA3 [0x02] IF !(ExtData[1]->WorkLocal[2] == 1*) GOTO 0x0F24
737: 0x0EAB [0x03] Work_Zone[3] = 0*
738: 0x0EB0 [0x03] Work_Zone[4] = 0*
739: 0x0EB5 [0x03] Work_Zone[5] = 0*
740: 0x0EBA [0x03] Work_Zone[6] = 0*
741: 0x0EBF [0x03] Work_Zone[7] = 0*
742: 0x0EC4 [0x03] Work_Zone[8] = 0*
743: 0x0EC9 [0x03] Work_Zone[9] = 0*
744: 0x0ECE [0x03] Work_Zone_1700[0] = 0*
745: 0x0ED3 [0x03] Work_Zone_1700[1] = 0*
746: 0x0ED8 [0x03] Work_Zone_1700[2] = 0*
747: 0x0EDD [0x03] Work_Zone_1700[3] = 0*
748: 0x0EE2 [0x03] Work_Zone_1700[4] = 0*
749: 0x0EE7 [0x03] Work_Zone_1700[5] = 0*
750: 0x0EEC [0x03] Work_Zone_1700[6] = 0*
751: 0x0EF1 [0x03] Work_Zone_1700[7] = 0*
752: 0x0EF6 [0x03] Work_Zone_1700[8] = 0*
753: 0x0EFB [0x03] Work_Zone_1700[9] = 0*
754: 0x0F00 [0x03] Work_Zone_1700[10] = 0*
755: 0x0F05 [0x03] Work_Zone_1700[11] = 0*
756: 0x0F0A [0x03] Work_Zone_1700[12] = 0*
757: 0x0F0F [0x1A] CALL_SUBROUTINE(address=0x1FA1)
758: 0x0F12 [0x02] IF !(ExtData[1]->WorkLocal[5] > 20*) GOTO 0x0F21
759: 0x0F1A [0x3C] SET_BIT_FLAG_CONDITIONAL(target_work_offset=ExtData[1]->WorkLocal[9], bit_index_work_offset=12*, condition_work_offset=1*)
760: 0x0F21 [0x01] GOTO 0x0F9D
761: 0x0F24 [0x02] IF !(ExtData[1]->WorkLocal[2] == 2*) GOTO 0x0F9D
762: 0x0F2C [0x03] Work_Zone[3] = 0*
763: 0x0F31 [0x03] Work_Zone[4] = 0*
764: 0x0F36 [0x03] Work_Zone[5] = 0*
765: 0x0F3B [0x03] Work_Zone[6] = 0*
766: 0x0F40 [0x03] Work_Zone[7] = 0*
767: 0x0F45 [0x03] Work_Zone[8] = 0*
768: 0x0F4A [0x03] Work_Zone[9] = 0*
769: 0x0F4F [0x03] Work_Zone_1700[0] = 0*
770: 0x0F54 [0x03] Work_Zone_1700[1] = 0*
771: 0x0F59 [0x03] Work_Zone_1700[2] = 0*
772: 0x0F5E [0x03] Work_Zone_1700[3] = 0*
773: 0x0F63 [0x03] Work_Zone_1700[4] = 0*
774: 0x0F68 [0x03] Work_Zone_1700[5] = 0*
775: 0x0F6D [0x03] Work_Zone_1700[6] = 0*
776: 0x0F72 [0x03] Work_Zone_1700[7] = 0*
777: 0x0F77 [0x03] Work_Zone_1700[8] = 0*
778: 0x0F7C [0x03] Work_Zone_1700[9] = 0*
779: 0x0F81 [0x03] Work_Zone_1700[10] = 0*
780: 0x0F86 [0x03] Work_Zone_1700[11] = 0*
781: 0x0F8B [0x03] Work_Zone_1700[12] = 0*
782: 0x0F90 [0x1A] CALL_SUBROUTINE(address=0x1FA1)
783: 0x0F93 [0x3C] SET_BIT_FLAG_CONDITIONAL(target_work_offset=ExtData[1]->WorkLocal[9], bit_index_work_offset=12*, condition_work_offset=1*)
784: 0x0F9A [0x01] GOTO 0x0F9D

SUBROUTINE_0F9D:
785: 0x0F9D [0x24] CREATE_DIALOG(message_id=7292*, default_option=0*, option_flags=ExtData[1]->WorkLocal[9])
     "Select key item. (Cruor: $0) [Nothing right now./$6: $2./$6: $4./$6: $6./$6: $8./$6: $10./$6: $12./$6: $14./$6: $16./$6: $18./$6: $20./Previous page./Next page.]"
786: 0x0FA4 [0x25] WAIT_DIALOG_SELECT()
787: 0x0FA5 [0x02] IF !(Work_Zone[0] == 0*) GOTO 0x0FB3
788: 0x0FAD [0x06] ExtData[1]->WorkLocal[11] = 0
789: 0x0FB0 [0x01] GOTO 0x101F
790: 0x0FB3 [0x02] IF !(Work_Zone[0] == 11*) GOTO 0x0FE9
791: 0x0FBB [0x02] IF !(ExtData[1]->WorkLocal[2] == 0*) GOTO 0x0FC6
792: 0x0FC3 [0x01] GOTO 0x0FE6
793: 0x0FC6 [0x02] IF !(ExtData[1]->WorkLocal[2] == 1*) GOTO 0x0FD6
794: 0x0FCE [0x03] ExtData[1]->WorkLocal[2] = 0*
795: 0x0FD3 [0x01] GOTO 0x0FE6
796: 0x0FD6 [0x02] IF !(ExtData[1]->WorkLocal[2] == 2*) GOTO 0x0FE6
797: 0x0FDE [0x03] ExtData[1]->WorkLocal[2] = 1*
798: 0x0FE3 [0x01] GOTO 0x0FE6

SUBROUTINE_0FE6:
799: 0x0FE6 [0x01] GOTO 0x101F
800: 0x0FE9 [0x02] IF !(Work_Zone[0] == 12*) GOTO 0x101F
801: 0x0FF1 [0x02] IF !(ExtData[1]->WorkLocal[2] == 0*) GOTO 0x1001
802: 0x0FF9 [0x03] ExtData[1]->WorkLocal[2] = 1*
803: 0x0FFE [0x01] GOTO 0x101C
804: 0x1001 [0x02] IF !(ExtData[1]->WorkLocal[2] == 1*) GOTO 0x1011
805: 0x1009 [0x03] ExtData[1]->WorkLocal[2] = 2*
806: 0x100E [0x01] GOTO 0x101C
807: 0x1011 [0x02] IF !(ExtData[1]->WorkLocal[2] == 2*) GOTO 0x101C
808: 0x1019 [0x01] GOTO 0x101C

SUBROUTINE_101C:
809: 0x101C [0x01] GOTO 0x101F

SUBROUTINE_101F:
810: 0x101F [0x02] IF !(Work_Zone[0] < 1*) GOTO 0x148C
811: 0x1027 [0x02] IF !(Work_Zone[0] > 10*) GOTO 0x148C
812: 0x102F [0x02] IF !(ExtData[1]->WorkLocal[2] == 0*) GOTO 0x113E
813: 0x1037 [0x02] IF !(Work_Zone[0] == 1*) GOTO 0x1051
814: 0x103F [0x03] ExtData[1]->WorkLocal[3] = 0*
815: 0x1044 [0x03] ExtData[1]->WorkLocal[4] = 0*
816: 0x1049 [0x03] ExtData[1]->WorkLocal[7] = 1*
817: 0x104E [0x01] GOTO 0x113B
818: 0x1051 [0x02] IF !(Work_Zone[0] == 2*) GOTO 0x106B
819: 0x1059 [0x03] ExtData[1]->WorkLocal[3] = 0*
820: 0x105E [0x03] ExtData[1]->WorkLocal[4] = 0*
821: 0x1063 [0x03] ExtData[1]->WorkLocal[7] = 2*
822: 0x1068 [0x01] GOTO 0x113B
823: 0x106B [0x02] IF !(Work_Zone[0] == 3*) GOTO 0x1085
824: 0x1073 [0x03] ExtData[1]->WorkLocal[3] = 0*
825: 0x1078 [0x03] ExtData[1]->WorkLocal[4] = 0*
826: 0x107D [0x03] ExtData[1]->WorkLocal[7] = 3*
827: 0x1082 [0x01] GOTO 0x113B
828: 0x1085 [0x02] IF !(Work_Zone[0] == 4*) GOTO 0x109F
829: 0x108D [0x03] ExtData[1]->WorkLocal[3] = 0*
830: 0x1092 [0x03] ExtData[1]->WorkLocal[4] = 0*
831: 0x1097 [0x03] ExtData[1]->WorkLocal[7] = 4*
832: 0x109C [0x01] GOTO 0x113B
833: 0x109F [0x02] IF !(Work_Zone[0] == 5*) GOTO 0x10B9
834: 0x10A7 [0x03] ExtData[1]->WorkLocal[3] = 0*
835: 0x10AC [0x03] ExtData[1]->WorkLocal[4] = 0*
836: 0x10B1 [0x03] ExtData[1]->WorkLocal[7] = 5*
837: 0x10B6 [0x01] GOTO 0x113B
838: 0x10B9 [0x02] IF !(Work_Zone[0] == 6*) GOTO 0x10D3
839: 0x10C1 [0x03] ExtData[1]->WorkLocal[3] = 0*
840: 0x10C6 [0x03] ExtData[1]->WorkLocal[4] = 0*
841: 0x10CB [0x03] ExtData[1]->WorkLocal[7] = 6*
842: 0x10D0 [0x01] GOTO 0x113B
843: 0x10D3 [0x02] IF !(Work_Zone[0] == 7*) GOTO 0x10ED
844: 0x10DB [0x03] ExtData[1]->WorkLocal[3] = 0*
845: 0x10E0 [0x03] ExtData[1]->WorkLocal[4] = 0*
846: 0x10E5 [0x03] ExtData[1]->WorkLocal[7] = 7*
847: 0x10EA [0x01] GOTO 0x113B
848: 0x10ED [0x02] IF !(Work_Zone[0] == 8*) GOTO 0x1107
849: 0x10F5 [0x03] ExtData[1]->WorkLocal[3] = 0*
850: 0x10FA [0x03] ExtData[1]->WorkLocal[4] = 0*
851: 0x10FF [0x03] ExtData[1]->WorkLocal[7] = 8*
852: 0x1104 [0x01] GOTO 0x113B
853: 0x1107 [0x02] IF !(Work_Zone[0] == 9*) GOTO 0x1121
854: 0x110F [0x03] ExtData[1]->WorkLocal[3] = 0*
855: 0x1114 [0x03] ExtData[1]->WorkLocal[4] = 0*
856: 0x1119 [0x03] ExtData[1]->WorkLocal[7] = 9*
857: 0x111E [0x01] GOTO 0x113B
858: 0x1121 [0x02] IF !(Work_Zone[0] == 10*) GOTO 0x113B
859: 0x1129 [0x03] ExtData[1]->WorkLocal[3] = 0*
860: 0x112E [0x03] ExtData[1]->WorkLocal[4] = 0*
861: 0x1133 [0x03] ExtData[1]->WorkLocal[7] = 10*
862: 0x1138 [0x01] GOTO 0x113B

SUBROUTINE_113B:
863: 0x113B [0x01] GOTO 0x135C
864: 0x113E [0x02] IF !(ExtData[1]->WorkLocal[2] == 1*) GOTO 0x124D
865: 0x1146 [0x02] IF !(Work_Zone[0] == 1*) GOTO 0x1160
866: 0x114E [0x03] ExtData[1]->WorkLocal[3] = 0*
867: 0x1153 [0x03] ExtData[1]->WorkLocal[4] = 0*
868: 0x1158 [0x03] ExtData[1]->WorkLocal[7] = 11*
869: 0x115D [0x01] GOTO 0x124A
870: 0x1160 [0x02] IF !(Work_Zone[0] == 2*) GOTO 0x117A
871: 0x1168 [0x03] ExtData[1]->WorkLocal[3] = 0*
872: 0x116D [0x03] ExtData[1]->WorkLocal[4] = 0*
873: 0x1172 [0x03] ExtData[1]->WorkLocal[7] = 12*
874: 0x1177 [0x01] GOTO 0x124A
875: 0x117A [0x02] IF !(Work_Zone[0] == 3*) GOTO 0x1194
876: 0x1182 [0x03] ExtData[1]->WorkLocal[3] = 0*
877: 0x1187 [0x03] ExtData[1]->WorkLocal[4] = 0*
878: 0x118C [0x03] ExtData[1]->WorkLocal[7] = 13*
879: 0x1191 [0x01] GOTO 0x124A
880: 0x1194 [0x02] IF !(Work_Zone[0] == 4*) GOTO 0x11AE
881: 0x119C [0x03] ExtData[1]->WorkLocal[3] = 0*
882: 0x11A1 [0x03] ExtData[1]->WorkLocal[4] = 0*
883: 0x11A6 [0x03] ExtData[1]->WorkLocal[7] = 14*
884: 0x11AB [0x01] GOTO 0x124A
885: 0x11AE [0x02] IF !(Work_Zone[0] == 5*) GOTO 0x11C8
886: 0x11B6 [0x03] ExtData[1]->WorkLocal[3] = 0*
887: 0x11BB [0x03] ExtData[1]->WorkLocal[4] = 0*
888: 0x11C0 [0x03] ExtData[1]->WorkLocal[7] = 15*
889: 0x11C5 [0x01] GOTO 0x124A
890: 0x11C8 [0x02] IF !(Work_Zone[0] == 6*) GOTO 0x11E2
891: 0x11D0 [0x03] ExtData[1]->WorkLocal[3] = 0*
892: 0x11D5 [0x03] ExtData[1]->WorkLocal[4] = 0*
893: 0x11DA [0x03] ExtData[1]->WorkLocal[7] = 16*
894: 0x11DF [0x01] GOTO 0x124A
895: 0x11E2 [0x02] IF !(Work_Zone[0] == 7*) GOTO 0x11FC
896: 0x11EA [0x03] ExtData[1]->WorkLocal[3] = 0*
897: 0x11EF [0x03] ExtData[1]->WorkLocal[4] = 0*
898: 0x11F4 [0x03] ExtData[1]->WorkLocal[7] = 17*
899: 0x11F9 [0x01] GOTO 0x124A
900: 0x11FC [0x02] IF !(Work_Zone[0] == 8*) GOTO 0x1216
901: 0x1204 [0x03] ExtData[1]->WorkLocal[3] = 0*
902: 0x1209 [0x03] ExtData[1]->WorkLocal[4] = 0*
903: 0x120E [0x03] ExtData[1]->WorkLocal[7] = 18*
904: 0x1213 [0x01] GOTO 0x124A
905: 0x1216 [0x02] IF !(Work_Zone[0] == 9*) GOTO 0x1230
906: 0x121E [0x03] ExtData[1]->WorkLocal[3] = 0*
907: 0x1223 [0x03] ExtData[1]->WorkLocal[4] = 0*
908: 0x1228 [0x03] ExtData[1]->WorkLocal[7] = 19*
909: 0x122D [0x01] GOTO 0x124A
910: 0x1230 [0x02] IF !(Work_Zone[0] == 10*) GOTO 0x124A
911: 0x1238 [0x03] ExtData[1]->WorkLocal[3] = 0*
912: 0x123D [0x03] ExtData[1]->WorkLocal[4] = 0*
913: 0x1242 [0x03] ExtData[1]->WorkLocal[7] = 20*
914: 0x1247 [0x01] GOTO 0x124A

SUBROUTINE_124A:
915: 0x124A [0x01] GOTO 0x135C
916: 0x124D [0x02] IF !(ExtData[1]->WorkLocal[2] == 2*) GOTO 0x135C
917: 0x1255 [0x02] IF !(Work_Zone[0] == 1*) GOTO 0x126F
918: 0x125D [0x03] ExtData[1]->WorkLocal[3] = 0*
919: 0x1262 [0x03] ExtData[1]->WorkLocal[4] = 0*
920: 0x1267 [0x03] ExtData[1]->WorkLocal[7] = 21*
921: 0x126C [0x01] GOTO 0x1359
922: 0x126F [0x02] IF !(Work_Zone[0] == 2*) GOTO 0x1289
923: 0x1277 [0x03] ExtData[1]->WorkLocal[3] = 0*
924: 0x127C [0x03] ExtData[1]->WorkLocal[4] = 0*
925: 0x1281 [0x03] ExtData[1]->WorkLocal[7] = 22*
926: 0x1286 [0x01] GOTO 0x1359
