# 0x7FFFFFF0 - Zone Events

## Common Data

| Field            | Value                                |
|------------------|--------------------------------------|
| Zone             | Abyssea - Empyreal Paradox (ID: 255) |
| Block Size       | 6560 bytes                           |
| Total Events     | 21                                   |
| References Count | 154                                  |

## List of Events

| Event ID                   | Entrypoint   |   Size |   Instructions |
|----------------------------|--------------|--------|----------------|
| [65535](#event-65535)      | 0x0000       |      1 |              1 |
| [65534](#event-65534)      | 0x0001       |      1 |              1 |
| [65535.1](#event-655351)   | 0x0002       |      6 |              2 |
| [65535.2](#event-655352)   | 0x0008       |      6 |              2 |
| [65535.3](#event-655353)   | 0x000E       |     37 |              5 |
| [65535.4](#event-655354)   | 0x0033       |    185 |             37 |
| [65535.5](#event-655355)   | 0x00EC       |     24 |              4 |
| [65535.6](#event-655356)   | 0x0104       |     24 |              4 |
| [65535.7](#event-655357)   | 0x011C       |     37 |              5 |
| [65535.8](#event-655358)   | 0x0141       |     37 |              5 |
| [65535.9](#event-655359)   | 0x0166       |     42 |              6 |
| [65535.10](#event-6553510) | 0x0190       |     23 |              7 |
| [65535.11](#event-6553511) | 0x01A7       |      7 |              3 |
| [65535.12](#event-6553512) | 0x01AE       |      7 |              3 |
| [65535.13](#event-6553513) | 0x01B5       |     16 |              3 |
| [65535.14](#event-6553514) | 0x01C5       |     41 |              5 |
| [32000](#event-32000)      | 0x01EE       |   2162 |            412 |
| [32002](#event-32002)      | 0x0A60       |    494 |             83 |
| [32001](#event-32001)      | 0x0C4E       |    819 |            138 |
| [32003](#event-32003)      | 0x0F81       |    435 |             77 |
| [32004](#event-32004)      | 0x1134       |   1438 |            199 |

## DAT References (imed_data)

|   Index | Hex Value   |   Dec Value |
|---------|-------------|-------------|
|       0 | 0x0005      |           5 |
|       1 | 0x0001      |           1 |
|       2 | 0x0002      |           2 |
|       3 | 0x000A      |          10 |
|       4 | 0x0009      |           9 |
|       5 | 0x0046      |          70 |
|       6 | 0x008C      |         140 |
|       7 | 0x00D2      |         210 |
|       8 | 0x003C      |          60 |
|       9 | 0x001E      |          30 |
|      10 | 0x000B      |          11 |
|      11 | 0x83C60     |      539744 |
|      12 | 0xFFF6F404  |  4294374404 |
|      13 | 0xFFF85EE1  |  4294467297 |
|      14 | 0x0000      |           0 |
|      15 | 0x83D7F     |      540031 |
|      16 | 0xFFF74590  |  4294395280 |
|      17 | 0x0C00      |        3072 |
|      18 | 0x0094      |         148 |
|      19 | 0x00F0      |         240 |
|      20 | 0x00C8      |         200 |
|      21 | 0x000F      |          15 |
|      22 | 0x0010      |          16 |
|      23 | 0x001F      |          31 |
|      24 | 0xFFFFFFFF  |  4294967295 |
|      25 | 0x1F9C      |        8092 |
|      26 | 0x1F90      |        8080 |
|      27 | 0x0003      |           3 |
|      28 | 0x0004      |           4 |
|      29 | 0x1E22      |        7714 |
|      30 | 0x00FF      |         255 |
|      31 | 0x0013      |          19 |
|      32 | 0x0008      |           8 |
|      33 | 0xFFF8AD00  |  4294487296 |
|      34 | 0x77240     |      488000 |
|      35 | 0x7EF40     |      520000 |
|      36 | 0xFFF85EE0  |  4294467296 |
|      37 | 0xFFF83000  |  4294455296 |
|      38 | 0xFFF0BDC0  |  4293967296 |
|      39 | 0x1E2D      |        7725 |
|      40 | 0x1E2E      |        7726 |
|      41 | 0x1E2F      |        7727 |
|      42 | 0x1E30      |        7728 |
|      43 | 0x1E54      |        7764 |
|      44 | 0x0006      |           6 |
|      45 | 0x0007      |           7 |
|      46 | 0x000C      |          12 |
|      47 | 0x000D      |          13 |
|      48 | 0x000E      |          14 |
|      49 | 0x0011      |          17 |
|      50 | 0x0012      |          18 |
|      51 | 0x0014      |          20 |
|      52 | 0x0015      |          21 |
|      53 | 0x0016      |          22 |
|      54 | 0x0017      |          23 |
|      55 | 0x0018      |          24 |
|      56 | 0x0019      |          25 |
|      57 | 0x001A      |          26 |
|      58 | 0x001B      |          27 |
|      59 | 0x001C      |          28 |
|      60 | 0x001D      |          29 |
|      61 | 0x1F89      |        8073 |
|      62 | 0x0064      |         100 |
|      63 | 0x1F75      |        8053 |
|      64 | 0x0035      |          53 |
|      65 | 0x1E25      |        7717 |
|      66 | 0x00C9      |         201 |
|      67 | 0x00B4      |         180 |
|      68 | 0xFFF6C42B  |  4294362155 |
|      69 | 0x752B9     |      479929 |
|      70 | 0xFFFFA767  |  4294944615 |
|      71 | 0x03E0      |         992 |
|      72 | 0xFFFBFE43  |  4294704707 |
|      73 | 0x5C401     |      377857 |
|      74 | 0xFFFDE79F  |  4294829983 |
|      75 | 0x0D92      |        3474 |
|      76 | 0x47AC      |       18348 |
|      77 | 0x76E1C     |      486940 |
|      78 | 0xFFFC93B2  |  4294742962 |
|      79 | 0x00C2      |         194 |
|      80 | 0x388A9     |      231593 |
|      81 | 0x57E9E     |      360094 |
|      82 | 0xFFFD59FC  |  4294793724 |
|      83 | 0x0726      |        1830 |
|      84 | 0x872C0     |      553664 |
|      85 | 0x7FEA3     |      523939 |
|      86 | 0xFFFF6AC3  |  4294929091 |
|      87 | 0x0A65      |        2661 |
|      88 | 0x83D55     |      539989 |
|      89 | 0xFFF733F6  |  4294390774 |
|      90 | 0xFFF2A593  |  4294092179 |
|      91 | 0xFFFF548C  |  4294923404 |
|      92 | 0xFFFF442C  |  4294919212 |
|      93 | 0x0201      |         513 |
|      94 | 0xFFF478D5  |  4294211797 |
|      95 | 0x89AEB     |      563947 |
|      96 | 0xFFFE4A5D  |  4294855261 |
|      97 | 0x0DEF      |        3567 |
|      98 | 0x1E173     |      123251 |
|      99 | 0xB8221     |      754209 |
|     100 | 0xFFFD5FA4  |  4294795172 |
|     101 | 0x01B8      |         440 |
|     102 | 0xFFF81ECC  |  4294450892 |
|     103 | 0xFFF3BE05  |  4294163973 |
|     104 | 0x5E8E      |       24206 |
|     105 | 0x01B5      |         437 |
|     106 | 0x012C      |         300 |
|     107 | 0x0080      |         128 |
|     108 | 0xFFF690A7  |  4294348967 |
|     109 | 0xFFF62CE4  |  4294323428 |
|     110 | 0xFFFF9B33  |  4294941491 |
|     111 | 0x0EB1      |        3761 |
|     112 | 0xFFFAEE7D  |  4294635133 |
|     113 | 0xFFF941C6  |  4294525382 |
|     114 | 0xFFFE8CB1  |  4294872241 |
|     115 | 0x0EB0      |        3760 |
|     116 | 0xFFFFCF50  |  4294954832 |
|     117 | 0xFFF61B47  |  4294318919 |
|     118 | 0xFFFD07BB  |  4294772667 |
|     119 | 0x0EBA      |        3770 |
|     120 | 0x4EF35     |      323381 |
|     121 | 0xFFF93A6F  |  4294523503 |
|     122 | 0xFFFE5868  |  4294858856 |
|     123 | 0x0EA0      |        3744 |
|     124 | 0x92763     |      599907 |
|     125 | 0xFFF5AB97  |  4294290327 |
|     126 | 0xFFFFA837  |  4294944823 |
|     127 | 0x0EB3      |        3763 |
|     128 | 0x00A8      |         168 |
|     129 | 0x30D7B     |      200059 |
|     130 | 0xFFFFAA3A  |  4294945338 |
|     131 | 0xFFFFFF06  |  4294967046 |
|     132 | 0x0411      |        1041 |
|     133 | 0x1F77      |        8055 |
|     134 | 0x1F76      |        8054 |
|     135 | 0x1F98      |        8088 |
|     136 | 0x0078      |         120 |
|     137 | 0x7EF41     |      520001 |
|     138 | 0x76202     |      483842 |
|     139 | 0x7EF61     |      520033 |
|     140 | 0x7F00F     |      520207 |
|     141 | 0x0400      |        1024 |
|     142 | 0x0230      |         560 |
|     143 | 0x0096      |         150 |
|     144 | 0x005A      |          90 |
|     145 | 0x1E23      |        7715 |
|     146 | 0x0077      |         119 |
|     147 | 0x007C      |         124 |
|     148 | 0x0081      |         129 |
|     149 | 0x0086      |         134 |
|     150 | 0x008B      |         139 |
|     151 | 0x006C      |         108 |
|     152 | 0x002D      |          45 |
|     153 | 0x00D7      |         215 |

## String References

- **7714**: Enter the battlefield? [Enter./Decline.]
- **7715**: Leave the battlefield? [Run away./Stay.]
- **7717**: You cannot enter the battlefield at present. Please wait a little longer.
- **7725**: You are cleared to enter the battlefield, but you cannot while party members are engaged in combat.
- **7726**: You are cleared to enter the battlefield, but you cannot while party members are engaged in combat.
- **7727**: You are cleared to enter the battlefield, but you cannot while party members are engaged in combat.
- **7728**: You are cleared to enter the battlefield, but you cannot while party members are engaged in combat.
- **7764**: You do not meet the requirements to enter the battlefield. Access is denied.
- **8053**: Skip the event? [Yes./No.]
- **8054**: Battlefield clear time: $3 second[/s]!
- **8055**: Battlefield clear time: $3 minute[/s], $2 second[/s]!
- **8073**: Only $3 [member/members] have clearance to enter the battlefield. This room has reached its maximum capacity.
- **8080**: Select difficulty. [Very difficult. (Level: ???)/Difficult. (Level: ???)/Normal. (Level: $18)/Easy. (Level: $17)/Very Easy. (Level: $16)/Leave.]
- **8088**: You have broken the clear time record for "[The Wyrm God/$26The Wyrm God/]"!
- **8092**: Which battlefield will you enter? [None./The Wyrm God./$26The Wyrm God / / / / / / / / / / / / / / / / / / / / / / / / / / / / / ]

## Events

### Event 65535

#### Metadata

| Field        | Value   |
|--------------|---------|
| Entrypoint   | 0x0000  |
| Data Size    | 1 bytes |
| Instructions | 1       |

```
      00 01 02 03 04 05 06 07  08 09 0A 0B 0C 0D 0E 0F
      -- -- -- -- -- -- -- --  -- -- -- -- -- -- -- --
0000: 00                                                .               
```

#### Opcodes

```
  0: 0x0000 [0x00] END_REQSTACK()
```

### Event 65534

#### Metadata

| Field        | Value   |
|--------------|---------|
| Entrypoint   | 0x0001  |
| Data Size    | 1 bytes |
| Instructions | 1       |

```
      00 01 02 03 04 05 06 07  08 09 0A 0B 0C 0D 0E 0F
      -- -- -- -- -- -- -- --  -- -- -- -- -- -- -- --
0000:    00                                              .              
```

#### Opcodes

```
  0: 0x0001 [0x00] END_REQSTACK()
```

### Event 65535.1

#### Metadata

| Field        | Value   |
|--------------|---------|
| Entrypoint   | 0x0002  |
| Data Size    | 6 bytes |
| Instructions | 2       |

```
      00 01 02 03 04 05 06 07  08 09 0A 0B 0C 0D 0E 0F
      -- -- -- -- -- -- -- --  -- -- -- -- -- -- -- --
0000:       03 02 10 07 7F 00                             ......        
```

#### Opcodes

```
  0: 0x0002 [0x03] Work_Zone[2] = Entity->Race
  1: 0x0007 [0x00] END_REQSTACK()
```

### Event 65535.2

#### Metadata

| Field        | Value   |
|--------------|---------|
| Entrypoint   | 0x0008  |
| Data Size    | 6 bytes |
| Instructions | 2       |

```
      00 01 02 03 04 05 06 07  08 09 0A 0B 0C 0D 0E 0F
      -- -- -- -- -- -- -- --  -- -- -- -- -- -- -- --
0000:                          03 02 10 0B 7F 00                ......  
```

#### Opcodes

```
  0: 0x0008 [0x03] Work_Zone[2] = (Entity->Render.Flags01 >> 25) & 1
  1: 0x000D [0x00] END_REQSTACK()
```

### Event 65535.3

#### Metadata

| Field        | Value    |
|--------------|----------|
| Entrypoint   | 0x000E   |
| Data Size    | 37 bytes |
| Instructions | 5        |

```
      00 01 02 03 04 05 06 07  08 09 0A 0B 0C 0D 0E 0F
      -- -- -- -- -- -- -- --  -- -- -- -- -- -- -- --
0000:                                            03 00                ..
0010: 00 07 7F 1A 58 00 66 01  00 F8 FF FF 7F F8 FF FF  ....X.f.........
0020: 7F 73 68 61 30 53 F8 FF  FF 7F F8 FF FF 7F 73 68  .sha0S........sh
0030: 61 30 00                                          a0.             
```

#### Opcodes

```
  0: 0x000E [0x03] ExtData[1]->WorkLocal[0] = Entity->Race
  1: 0x0013 [0x1A] CALL_SUBROUTINE(address=0x0058)
  2: 0x0016 [0x66] LOAD_EXT_SCHEDULER_MAIN: Load scheduler "sha0" with entities [EventEntity, EventEntity], work=ExtData[1]->WorkLocal[1]
  3: 0x0025 [0x53] WAIT_SCHEDULER_TASK: Wait for scheduler "sha0" with entities [EventEntity, EventEntity]
  4: 0x0032 [0x00] END_REQSTACK()
```

### Event 65535.4

#### Metadata

| Field        | Value     |
|--------------|-----------|
| Entrypoint   | 0x0033    |
| Data Size    | 185 bytes |
| Instructions | 13        |

```
      00 01 02 03 04 05 06 07  08 09 0A 0B 0C 0D 0E 0F
      -- -- -- -- -- -- -- --  -- -- -- -- -- -- -- --
0030:          03 00 00 07 7F  1A 58 00 66 01 00 F8 FF     ......X.f....
0040: FF 7F F8 FF FF 7F 73 68  61 31 53 F8 FF FF 7F F8  ......sha1S.....
0050: FF FF 7F 73 68 61 31 00  03 01 00 00 00 02 01 00  ...sha1.........
0060: 00 80 05 6D 00 08 01 00  01 80 01 72 00 08 01 00  ...m.......r....
0070: 02 80 14 01 00 03 80 07  01 00 04 80 1B 03 01 00  ................
0080: 00 00 02 01 00 00 80 05  92 00 08 01 00 01 80 01  ................
0090: 97 00 08 01 00 02 80 14  01 00 03 80 07 01 00 05  ................
00A0: 80 1B 03 01 00 00 00 02  01 00 00 80 05 B7 00 08  ................
00B0: 01 00 01 80 01 BC 00 08  01 00 02 80 14 01 00 03  ................
00C0: 80 07 01 00 06 80 1B 03  01 00 00 00 02 01 00 00  ................
00D0: 80 05 DC 00 08 01 00 01  80 01 E1 00 08 01 00 02  ................
00E0: 80 14 01 00 03 80 07 01  00 07 80 1B              ............    
```

#### Opcodes

```
  0: 0x0033 [0x03] ExtData[1]->WorkLocal[0] = Entity->Race
  1: 0x0038 [0x1A] CALL_SUBROUTINE(address=0x0058)
  2: 0x003B [0x66] LOAD_EXT_SCHEDULER_MAIN: Load scheduler "sha1" with entities [EventEntity, EventEntity], work=ExtData[1]->WorkLocal[1]
  3: 0x004A [0x53] WAIT_SCHEDULER_TASK: Wait for scheduler "sha1" with entities [EventEntity, EventEntity]
  4: 0x0057 [0x00] END_REQSTACK()

SUBROUTINE_0058:
  5: 0x0058 [0x03] ExtData[1]->WorkLocal[1] = ExtData[1]->WorkLocal[0]
  6: 0x005D [0x02] IF !(ExtData[1]->WorkLocal[1] > 5*) GOTO 0x006D
  7: 0x0065 [0x08] ExtData[1]->WorkLocal[1] -= 1*
  8: 0x006A [0x01] GOTO 0x0072
  9: 0x006D [0x08] ExtData[1]->WorkLocal[1] -= 2*

SUBROUTINE_0072:
 10: 0x0072 [0x14] ExtData[1]->WorkLocal[1] *= 10*
 11: 0x0077 [0x07] ExtData[1]->WorkLocal[1] += 9*
 12: 0x007C [0x1B] RETURN
```

#### Data or dead code:

```
# Dead code (unreachable instructions):
     0x007D [0x03] ExtData[1]->WorkLocal[1] = ExtData[1]->WorkLocal[0]
     0x0082 [0x02] IF !(ExtData[1]->WorkLocal[1] > 5*) GOTO 0x0092
     0x008A [0x08] ExtData[1]->WorkLocal[1] -= 1*
     0x008F [0x01] GOTO 0x0097
     0x0092 [0x08] ExtData[1]->WorkLocal[1] -= 2*
     0x0097 [0x14] ExtData[1]->WorkLocal[1] *= 10*
     0x009C [0x07] ExtData[1]->WorkLocal[1] += 70*
     0x00A1 [0x1B] RETURN
     0x00A2 [0x03] ExtData[1]->WorkLocal[1] = ExtData[1]->WorkLocal[0]
     0x00A7 [0x02] IF !(ExtData[1]->WorkLocal[1] > 5*) GOTO 0x00B7
     0x00AF [0x08] ExtData[1]->WorkLocal[1] -= 1*
     0x00B4 [0x01] GOTO 0x00BC
     0x00B7 [0x08] ExtData[1]->WorkLocal[1] -= 2*
     0x00BC [0x14] ExtData[1]->WorkLocal[1] *= 10*
     0x00C1 [0x07] ExtData[1]->WorkLocal[1] += 140*
     0x00C6 [0x1B] RETURN
     0x00C7 [0x03] ExtData[1]->WorkLocal[1] = ExtData[1]->WorkLocal[0]
     0x00CC [0x02] IF !(ExtData[1]->WorkLocal[1] > 5*) GOTO 0x00DC
     0x00D4 [0x08] ExtData[1]->WorkLocal[1] -= 1*
     0x00D9 [0x01] GOTO 0x00E1
     0x00DC [0x08] ExtData[1]->WorkLocal[1] -= 2*
     0x00E1 [0x14] ExtData[1]->WorkLocal[1] *= 10*
     0x00E6 [0x07] ExtData[1]->WorkLocal[1] += 210*
     0x00EB [0x1B] RETURN
```

### Event 65535.5

#### Metadata

| Field        | Value    |
|--------------|----------|
| Entrypoint   | 0x00EC   |
| Data Size    | 24 bytes |
| Instructions | 4        |

```
      00 01 02 03 04 05 06 07  08 09 0A 0B 0C 0D 0E 0F
      -- -- -- -- -- -- -- --  -- -- -- -- -- -- -- --
00E0:                                      03 00 00 07              ....
00F0: 7F 1A 58 00 66 01 00 F8  FF FF 7F F8 FF FF 7F 74  ..X.f..........t
0100: 6C 6B 30 00                                       lk0.            
```

#### Opcodes

```
  0: 0x00EC [0x03] ExtData[1]->WorkLocal[0] = Entity->Race
  1: 0x00F1 [0x1A] CALL_SUBROUTINE(address=0x0058)
  2: 0x00F4 [0x66] LOAD_EXT_SCHEDULER_MAIN: Load scheduler "tlk0" with entities [EventEntity, EventEntity], work=ExtData[1]->WorkLocal[1]
  3: 0x0103 [0x00] END_REQSTACK()
```

### Event 65535.6

#### Metadata

| Field        | Value    |
|--------------|----------|
| Entrypoint   | 0x0104   |
| Data Size    | 24 bytes |
| Instructions | 4        |

```
      00 01 02 03 04 05 06 07  08 09 0A 0B 0C 0D 0E 0F
      -- -- -- -- -- -- -- --  -- -- -- -- -- -- -- --
0100:             03 00 00 07  7F 1A 58 00 66 01 00 F8      ......X.f...
0110: FF FF 7F F8 FF FF 7F 74  6C 6B 31 00              .......tlk1.    
```

#### Opcodes

```
  0: 0x0104 [0x03] ExtData[1]->WorkLocal[0] = Entity->Race
  1: 0x0109 [0x1A] CALL_SUBROUTINE(address=0x0058)
  2: 0x010C [0x66] LOAD_EXT_SCHEDULER_MAIN: Load scheduler "tlk1" with entities [EventEntity, EventEntity], work=ExtData[1]->WorkLocal[1]
  3: 0x011B [0x00] END_REQSTACK()
```

### Event 65535.7

#### Metadata

| Field        | Value    |
|--------------|----------|
| Entrypoint   | 0x011C   |
| Data Size    | 37 bytes |
| Instructions | 5        |

```
      00 01 02 03 04 05 06 07  08 09 0A 0B 0C 0D 0E 0F
      -- -- -- -- -- -- -- --  -- -- -- -- -- -- -- --
0110:                                      03 00 00 07              ....
0120: 7F 1A 58 00 66 01 00 F8  FF FF 7F F8 FF FF 7F 73  ..X.f..........s
0130: 69 74 30 53 F8 FF FF 7F  F8 FF FF 7F 73 69 74 30  it0S........sit0
0140: 00                                                .               
```

#### Opcodes

```
  0: 0x011C [0x03] ExtData[1]->WorkLocal[0] = Entity->Race
  1: 0x0121 [0x1A] CALL_SUBROUTINE(address=0x0058)
  2: 0x0124 [0x66] LOAD_EXT_SCHEDULER_MAIN: Load scheduler "sit0" with entities [EventEntity, EventEntity], work=ExtData[1]->WorkLocal[1]
  3: 0x0133 [0x53] WAIT_SCHEDULER_TASK: Wait for scheduler "sit0" with entities [EventEntity, EventEntity]
  4: 0x0140 [0x00] END_REQSTACK()
```

### Event 65535.8

#### Metadata

| Field        | Value    |
|--------------|----------|
| Entrypoint   | 0x0141   |
| Data Size    | 37 bytes |
| Instructions | 5        |

```
      00 01 02 03 04 05 06 07  08 09 0A 0B 0C 0D 0E 0F
      -- -- -- -- -- -- -- --  -- -- -- -- -- -- -- --
0140:    03 00 00 07 7F 1A 58  00 66 01 00 F8 FF FF 7F   ......X.f......
0150: F8 FF FF 7F 73 69 74 31  53 F8 FF FF 7F F8 FF FF  ....sit1S.......
0160: 7F 73 69 74 31 00                                 .sit1.          
```

#### Opcodes

```
  0: 0x0141 [0x03] ExtData[1]->WorkLocal[0] = Entity->Race
  1: 0x0146 [0x1A] CALL_SUBROUTINE(address=0x0058)
  2: 0x0149 [0x66] LOAD_EXT_SCHEDULER_MAIN: Load scheduler "sit1" with entities [EventEntity, EventEntity], work=ExtData[1]->WorkLocal[1]
  3: 0x0158 [0x53] WAIT_SCHEDULER_TASK: Wait for scheduler "sit1" with entities [EventEntity, EventEntity]
  4: 0x0165 [0x00] END_REQSTACK()
```

### Event 65535.9

#### Metadata

| Field        | Value    |
|--------------|----------|
| Entrypoint   | 0x0166   |
| Data Size    | 42 bytes |
| Instructions | 6        |

```
      00 01 02 03 04 05 06 07  08 09 0A 0B 0C 0D 0E 0F
      -- -- -- -- -- -- -- --  -- -- -- -- -- -- -- --
0160:                   03 00  00 07 7F 1A 58 00 66 01        ......X.f.
0170: 00 F8 FF FF 7F F8 FF FF  7F 74 6C 6B 30 1C 08 80  .........tlk0...
0180: 66 01 00 F8 FF FF 7F F8  FF FF 7F 74 6C 6B 31 00  f..........tlk1.
```

#### Opcodes

```
  0: 0x0166 [0x03] ExtData[1]->WorkLocal[0] = Entity->Race
  1: 0x016B [0x1A] CALL_SUBROUTINE(address=0x0058)
  2: 0x016E [0x66] LOAD_EXT_SCHEDULER_MAIN: Load scheduler "tlk0" with entities [EventEntity, EventEntity], work=ExtData[1]->WorkLocal[1]
  3: 0x017D [0x1C] WAIT(60* ticks)
  4: 0x0180 [0x66] LOAD_EXT_SCHEDULER_MAIN: Load scheduler "tlk1" with entities [EventEntity, EventEntity], work=ExtData[1]->WorkLocal[1]
  5: 0x018F [0x00] END_REQSTACK()
```

### Event 65535.10

#### Metadata

| Field        | Value    |
|--------------|----------|
| Entrypoint   | 0x0190   |
| Data Size    | 23 bytes |
| Instructions | 7        |

```
      00 01 02 03 04 05 06 07  08 09 0A 0B 0C 0D 0E 0F
      -- -- -- -- -- -- -- --  -- -- -- -- -- -- -- --
0190: 7B F8 FF FF 7F 1C 09 80  32 0A 80 1F 00 0B 80 0C  {.......2.......
01A0: 80 0D 80 1F 01 6F 00                              .....o.         
```

#### Opcodes

```
  0: 0x0190 [0x7B] EventEntity stops talking
  1: 0x0195 [0x1C] WAIT(30* ticks)
  2: 0x0198 [0x32] ExtData[1]->MainSpeed = 11* * 0.1
  3: 0x019B [0x1F] MOVE_ENTITY: EventEntity moves to X=539.744*, Z=-592.892*, Y=-499.999*
  4: 0x01A3 [0x1F] MOVE_ENTITY: Update entity position (mode=1)
  5: 0x01A5 [0x6F] WAIT_FRAME_DELAY: Yield until WaitTime reaches zero
  6: 0x01A6 [0x00] END_REQSTACK()
```

### Event 65535.11

#### Metadata

| Field        | Value   |
|--------------|---------|
| Entrypoint   | 0x01A7  |
| Data Size    | 7 bytes |
| Instructions | 3       |

```
      00 01 02 03 04 05 06 07  08 09 0A 0B 0C 0D 0E 0F
      -- -- -- -- -- -- -- --  -- -- -- -- -- -- -- --
01A0:                      AB  03 AC 01 01 80 00               .......  
```

#### Opcodes

```
  0: 0x01A7 [0xAB] EventEntity->Render.Flags0 ^= 0x20000 // Toggle bit 17
  1: 0x01A9 [0xAC] EventEntity->StatusEvent = 1*
  2: 0x01AD [0x00] END_REQSTACK()
```

### Event 65535.12

#### Metadata

| Field        | Value   |
|--------------|---------|
| Entrypoint   | 0x01AE  |
| Data Size    | 7 bytes |
| Instructions | 3       |

```
      00 01 02 03 04 05 06 07  08 09 0A 0B 0C 0D 0E 0F
      -- -- -- -- -- -- -- --  -- -- -- -- -- -- -- --
01A0:                                            AC 01                ..
01B0: 0E 80 AB 04 00                                    .....           
```

#### Opcodes

```
  0: 0x01AE [0xAC] EventEntity->StatusEvent = 0*
  1: 0x01B2 [0xAB] EventEntity->Render.Flags0 |= 0x40000 // Set bit 18
  2: 0x01B4 [0x00] END_REQSTACK()
```

### Event 65535.13

#### Metadata

| Field        | Value    |
|--------------|----------|
| Entrypoint   | 0x01B5   |
| Data Size    | 16 bytes |
| Instructions | 3        |

```
      00 01 02 03 04 05 06 07  08 09 0A 0B 0C 0D 0E 0F
      -- -- -- -- -- -- -- --  -- -- -- -- -- -- -- --
01B0:                92 01 F0  FF FF 7F 37 0F 80 10 80       ......7....
01C0: 0D 80 11 80 00                                    .....           
```

#### Opcodes

```
  0: 0x01B5 [0x92] LocalPlayer->Render.Flags3 ^= 0x01
  1: 0x01BB [0x37] UPDATE_EVENT_POSITION_AND_DIR: x=540.031*, z=-572.016*, y=-499.999*, direction=270.0°*
  2: 0x01C4 [0x00] END_REQSTACK()
```

### Event 65535.14

#### Metadata

| Field        | Value    |
|--------------|----------|
| Entrypoint   | 0x01C5   |
| Data Size    | 41 bytes |
| Instructions | 5        |

```
      00 01 02 03 04 05 06 07  08 09 0A 0B 0C 0D 0E 0F
      -- -- -- -- -- -- -- --  -- -- -- -- -- -- -- --
01C0:                BB 12 80  F0 FF FF 7F 11 F0 0F 01       ...........
01D0: 6D 61 69 6E 0E 80 1C 13  80 45 14 80 F0 FF FF 7F  main.....E......
01E0: F0 FF FF 7F 66 64 6F 31  0E 80 1C 08 80 00        ....fdo1......  
```

#### Opcodes

```
  0: 0x01C5 [0xBB] LOAD_EVENT_SCHEDULER_ALT: Load scheduler "main" with entities [LocalPlayer, Cavernous Maw (ID: 17821713/0x010FF011)], work=[148*, 0*]
  1: 0x01D6 [0x1C] WAIT(240* ticks)
  2: 0x01D9 [0x45] LOAD_SCHEDULED_TASK: Load scheduler "fdo1" with entities [LocalPlayer, LocalPlayer], work=[200*, 0*]
  3: 0x01EA [0x1C] WAIT(60* ticks)
  4: 0x01ED [0x00] END_REQSTACK()
```

### Event 32000

#### Metadata

| Field        | Value      |
|--------------|------------|
| Entrypoint   | 0x01EE     |
| Data Size    | 2162 bytes |
| Instructions | 286        |

```
      00 01 02 03 04 05 06 07  08 09 0A 0B 0C 0D 0E 0F
      -- -- -- -- -- -- -- --  -- -- -- -- -- -- -- --
01E0:                                            20 01                 .
01F0: 79 00 F0 FF FF 7F F0 FF  FF 7F 03 04 00 02 10 03  y...............
0200: 05 00 03 10 03 07 00 04  10 03 08 00 05 10 03 11  ................
0210: 00 06 10 03 12 00 07 10  03 13 00 08 10 41 0E 80  .............A..
0220: 15 80 09 10 09 00 41 16  80 17 80 09 10 06 10 06  ......A.........
0230: 03 00 02 09 00 0E 80 00  2E 03 03 0A 00 18 80 0F  ................
0240: 0A 00 08 00 10 0A 00 01  80 24 19 80 0E 80 0A 00  .........$......
0250: 25 02 00 10 0E 80 00 5F  02 01 45 0A 01 2E 03 03  %......_..E.....
0260: 05 00 00 10 0C 05 00 06  17 00 3E 11 00 05 00 0A  ..........>.....
0270: 03 06 11 00 06 0A 00 3E  13 00 05 00 81 02 01 88  .......>........
0280: 02 3C 0A 00 0E 80 01 80  3E 12 00 05 00 92 02 01  .<......>.......
0290: 99 02 3C 0A 00 01 80 01  80 1A 82 13 24 1A 80 00  ..<.........$...
02A0: 80 0A 00 25 02 00 10 0E  80 00 B4 02 03 11 00 01  ...%............
02B0: 80 01 07 03 02 00 10 01  80 00 C4 02 03 11 00 02  ................
02C0: 80 01 07 03 02 00 10 02  80 00 D4 02 03 11 00 1B  ................
02D0: 80 01 07 03 02 00 10 1B  80 00 E4 02 03 11 00 1C  ................
02E0: 80 01 07 03 02 00 10 1C  80 00 F4 02 03 11 00 00  ................
02F0: 80 01 07 03 02 00 10 00  80 00 02 03 01 45 0A 01  .............E..
0300: 07 03 03 11 00 1B 80 01  2E 03 06 11 00 1A 5F 0A  .............._.
0310: 02 17 00 01 80 00 2E 03  24 1D 80 01 80 0E 80 25  ........$......%
0320: 02 00 10 01 80 00 2E 03  01 45 0A 01 2E 03 42 03  .........E....B.
0330: 01 10 1E 80 43 00 43 01  06 01 10 45 14 80 F0 FF  ....C.C....E....
0340: FF 7F F0 FF FF 7F 66 64  6F 31 0E 80 55 14 80 F0  ......fdo1..U...
0350: FF FF 7F F0 FF FF 7F 66  64 6F 31 3B F0 FF FF 7F  .......fdo1;....
0360: 20 10 21 10 22 10 38 1F  80 02 09 00 01 80 00 88   .!.".8.........
0370: 03 03 02 00 01 80 03 06  00 05 00 03 04 00 0E 80  ................
0380: 03 1D 00 0E 80 01 79 07  03 02 00 01 80 02 02 00  ......y.........
0390: 1B 80 05 0E 0A 02 0E 80  01 80 00 A2 03 03 02 00  ................
03A0: 07 00 40 0E 80 1B 80 01  10 02 00 40 1C 80 20 80  ..@........@.. .
03B0: 01 10 05 00 40 04 80 0A  80 01 10 11 00 06 02 10  ....@...........
03C0: 06 03 10 06 04 10 02 02  00 01 80 80 E5 03 03 0B  ................
03D0: 00 21 80 03 0C 00 22 80  03 0D 00 0E 80 03 0E 00  .!....".........
03E0: 11 80 01 42 04 02 02 00  02 80 80 04 04 03 0B 00  ...B............
03F0: 23 80 03 0C 00 22 80 03  0D 00 24 80 03 0E 00 11  #...."....$.....
0400: 80 01 42 04 02 02 00 1B  80 80 23 04 03 0B 00 21  ..B.......#....!
0410: 80 03 0C 00 25 80 03 0D  00 26 80 03 0E 00 11 80  ....%....&......
0420: 01 42 04 02 02 00 1C 80  80 42 04 03 0B 00 0E 80  .B.......B......
0430: 03 0C 00 0E 80 03 0D 00  0E 80 03 0E 00 0E 80 01  ................
0440: 42 04 47 00 0B 00 0C 00  0D 00 0E 00 47 01 03 06  B.G.........G...
0450: 00 03 10 03 04 00 04 10  03 1B 00 05 10 03 0F 00  ................
0460: 06 10 03 10 00 07 10 03  1D 00 09 10 02 02 10 01  ................
0470: 80 80 77 04 01 FB 09 02  02 10 1C 80 80 C1 04 02  ..w.............
0480: 02 00 01 80 80 8E 04 48  27 80 23 01 BB 04 02 02  .......H'.#.....
0490: 00 02 80 80 9D 04 48 28  80 23 01 BB 04 02 02 00  ......H(.#......
04A0: 1B 80 80 AC 04 48 29 80  23 01 BB 04 02 02 00 1C  .....H).#.......
04B0: 80 80 BB 04 48 2A 80 23  01 BB 04 01 12 0A 01 FB  ....H*.#........
04C0: 09 02 02 10 00 80 80 D3  04 48 2B 80 23 01 12 0A  .........H+.#...
04D0: 01 FB 09 02 02 10 2C 80  80 D5 06 02 06 00 0E 80  ......,.........
04E0: 80 EB 04 03 05 10 2C 80  01 CB 06 02 06 00 01 80  ......,.........
04F0: 80 FB 04 03 05 10 2C 80  01 CB 06 02 06 00 02 80  ......,.........
0500: 80 0B 05 03 05 10 0E 80  01 CB 06 02 06 00 1B 80  ................
0510: 80 1B 05 03 05 10 0E 80  01 CB 06 02 06 00 1C 80  ................
0520: 80 2B 05 03 05 10 0E 80  01 CB 06 02 06 00 00 80  .+..............
0530: 80 3B 05 03 05 10 0E 80  01 CB 06 02 06 00 2C 80  .;............,.
0540: 80 4B 05 03 05 10 0E 80  01 CB 06 02 06 00 2D 80  .K............-.
0550: 80 5B 05 03 05 10 0E 80  01 CB 06 02 06 00 20 80  .[............ .
0560: 80 6B 05 03 05 10 0E 80  01 CB 06 02 06 00 04 80  .k..............
0570: 80 7B 05 03 05 10 0E 80  01 CB 06 02 06 00 03 80  .{..............
0580: 80 8B 05 03 05 10 0E 80  01 CB 06 02 06 00 0A 80  ................
0590: 80 9B 05 03 05 10 0E 80  01 CB 06 02 06 00 2E 80  ................
05A0: 80 AB 05 03 05 10 0E 80  01 CB 06 02 06 00 2F 80  ............../.
05B0: 80 BB 05 03 05 10 0E 80  01 CB 06 02 06 00 30 80  ..............0.
05C0: 80 CB 05 03 05 10 0E 80  01 CB 06 02 06 00 15 80  ................
05D0: 80 DB 05 03 05 10 0E 80  01 CB 06 02 06 00 16 80  ................
05E0: 80 EB 05 03 05 10 0E 80  01 CB 06 02 06 00 31 80  ..............1.
05F0: 80 FB 05 03 05 10 0E 80  01 CB 06 02 06 00 32 80  ..............2.
0600: 80 0B 06 03 05 10 0E 80  01 CB 06 02 06 00 1F 80  ................
0610: 80 1B 06 03 05 10 0E 80  01 CB 06 02 06 00 33 80  ..............3.
0620: 80 2B 06 03 05 10 0E 80  01 CB 06 02 06 00 34 80  .+............4.
0630: 80 3B 06 03 05 10 0E 80  01 CB 06 02 06 00 35 80  .;............5.
0640: 80 4B 06 03 05 10 0E 80  01 CB 06 02 06 00 36 80  .K............6.
0650: 80 5B 06 03 05 10 0E 80  01 CB 06 02 06 00 37 80  .[............7.
0660: 80 6B 06 03 05 10 0E 80  01 CB 06 02 06 00 38 80  .k............8.
0670: 80 7B 06 03 05 10 0E 80  01 CB 06 02 06 00 39 80  .{............9.
0680: 80 8B 06 03 05 10 0E 80  01 CB 06 02 06 00 3A 80  ..............:.
0690: 80 9B 06 03 05 10 0E 80  01 CB 06 02 06 00 3B 80  ..............;.
06A0: 80 AB 06 03 05 10 0E 80  01 CB 06 02 06 00 3C 80  ..............<.
06B0: 80 BB 06 03 05 10 0E 80  01 CB 06 02 06 00 09 80  ................
06C0: 80 CB 06 03 05 10 0E 80  01 CB 06 48 3D 80 23 01  ...........H=.#.
06D0: 12 0A 01 FB 09 02 02 10  1B 80 80 E3 06 01 88 03  ................
06E0: 01 FB 09 02 02 10 02 80  80 FB 09 02 0F 00 0E 80  ................
06F0: 01 2F 07 03 05 10 1B 00  02 1B 00 0E 80 02 17 07  ./..............
0700: 02 1B 00 08 80 04 17 07  3F 04 10 05 10 08 80 15  ........?.......
0710: 05 10 08 80 01 17 07 02  0F 00 01 80 05 22 07 01  ............."..
0720: 2F 07 03 06 10 0F 00 0C  06 10 03 07 10 0F 00 03  /...............
0730: 05 00 06 00 03 15 00 3E  80 07 15 00 05 00 02 04  .......>........
0740: 00 15 00 00 4E 07 03 04  00 01 80 01 53 07 03 04  ....N.......S...
0750: 00 0E 80 02 04 00 0E 80  00 79 07 02 10 00 01 80  .........y......
0760: 00 79 07 24 3F 80 01 80  0E 80 25 02 00 10 0E 80  .y.$?.....%.....
0770: 00 79 07 05 04 00 01 79  07 06 16 00 02 06 00 0E  .y.....y........
0780: 80 80 8C 07 03 16 00 0E  80 01 71 09 02 06 00 01  ..........q.....
0790: 80 80 9C 07 03 16 00 0E  80 01 71 09 02 06 00 02  ..........q.....
07A0: 80 80 AC 07 03 16 00 0E  80 01 71 09 02 06 00 1B  ..........q.....
07B0: 80 80 BC 07 03 16 00 0E  80 01 71 09 02 06 00 1C  ..........q.....
07C0: 80 80 CC 07 03 16 00 0E  80 01 71 09 02 06 00 00  ..........q.....
07D0: 80 80 DC 07 03 16 00 0E  80 01 71 09 02 06 00 2C  ..........q....,
07E0: 80 80 EC 07 03 16 00 0E  80 01 71 09 02 06 00 2D  ..........q....-
07F0: 80 80 FC 07 03 16 00 0E  80 01 71 09 02 06 00 20  ..........q.... 
0800: 80 80 0C 08 03 16 00 0E  80 01 71 09 02 06 00 04  ..........q.....
0810: 80 80 1C 08 03 16 00 0E  80 01 71 09 02 06 00 03  ..........q.....
0820: 80 80 2C 08 03 16 00 0E  80 01 71 09 02 06 00 0A  ..,.......q.....
0830: 80 80 3C 08 03 16 00 0E  80 01 71 09 02 06 00 2E  ..<.......q.....
0840: 80 80 4C 08 03 16 00 0E  80 01 71 09 02 06 00 2F  ..L.......q..../
0850: 80 80 5C 08 03 16 00 0E  80 01 71 09 02 06 00 30  ..\.......q....0
0860: 80 80 6C 08 03 16 00 0E  80 01 71 09 02 06 00 15  ..l.......q.....
0870: 80 80 7C 08 03 16 00 0E  80 01 71 09 02 06 00 16  ..|.......q.....
0880: 80 80 8C 08 03 16 00 0E  80 01 71 09 02 06 00 31  ..........q....1
0890: 80 80 9C 08 03 16 00 0E  80 01 71 09 02 06 00 32  ..........q....2
08A0: 80 80 AC 08 03 16 00 0E  80 01 71 09 02 06 00 1F  ..........q.....
08B0: 80 80 BC 08 03 16 00 0E  80 01 71 09 02 06 00 33  ..........q....3
08C0: 80 80 CC 08 03 16 00 0E  80 01 71 09 02 06 00 34  ..........q....4
08D0: 80 80 DC 08 03 16 00 0E  80 01 71 09 02 06 00 35  ..........q....5
08E0: 80 80 EC 08 03 16 00 0E  80 01 71 09 02 06 00 36  ..........q....6
08F0: 80 80 FC 08 03 16 00 0E  80 01 71 09 02 06 00 37  ..........q....7
0900: 80 80 0C 09 03 16 00 0E  80 01 71 09 02 06 00 38  ..........q....8
0910: 80 80 1C 09 03 16 00 0E  80 01 71 09 02 06 00 39  ..........q....9
0920: 80 80 2C 09 03 16 00 0E  80 01 71 09 02 06 00 3A  ..,.......q....:
0930: 80 80 3C 09 03 16 00 0E  80 01 71 09 02 06 00 3B  ..<.......q....;
0940: 80 80 4C 09 03 16 00 0E  80 01 71 09 02 06 00 3C  ..L.......q....<
0950: 80 80 5C 09 03 16 00 0E  80 01 71 09 02 06 00 09  ..\.......q.....
0960: 80 80 6C 09 03 16 00 0E  80 01 71 09 03 16 00 0E  ..l.......q.....
0970: 80 02 04 00 01 80 00 8C  09 5C 00 40 80 5C 01 40  .........\.@.\.@
0980: 80 5C 02 40 80 5C 03 40  80 01 A4 09 02 16 00 0E  .\.@.\.@........
0990: 80 00 A4 09 5C 00 40 80  5C 01 40 80 5C 02 40 80  ....\.@.\.@.\.@.
09A0: 5C 03 40 80 02 04 00 0E  80 00 B2 09 1A 8E 11 01  \.@.............
09B0: EB 09 6C F0 FF FF 7F 0E  80 01 80 62 02 80 F0 FF  ..l........b....
09C0: FF 7F F0 FF FF 7F 6D 61  69 6E 0E 80 45 14 80 F0  ......main..E...
09D0: FF FF 7F F0 FF FF 7F 6F  76 6C 31 0E 80 46 02 14  .......ovl1..F..
09E0: 00 02 14 00 0E 80 00 EB  09 46 00 03 01 10 3E 80  .........F....>.
09F0: 07 01 10 05 00 01 12 0A  01 FB 09 0B 02 00 02 0E  ................
0A00: 80 01 80 00 0B 0A 03 02  00 1C 80 01 8D 03 48 41  ..............HA
0A10: 80 23 45 42 80 F0 FF FF  7F F0 FF FF 7F 77 68 69  .#EB.........whi
0A20: 31 0E 80 45 14 80 F0 FF  FF 7F F0 FF FF 7F 62 6C  1..E..........bl
0A30: 6F 66 0E 80 45 14 80 F0  FF FF 7F F0 FF FF 7F 66  of..E..........f
0A40: 64 69 30 0E 80 02 09 00  01 80 00 5D 0A 5C 00 0E  di0........].\..
0A50: 80 5C 01 0E 80 5C 02 40  80 5C 03 40 80 21 00 1B  .\...\.@.\.@.!..
```

#### Opcodes

```
  0: 0x01EE [0x20] SET_CLI_EVENT_UC_FLAG: Lock player control
  1: 0x01F0 [0x79] LocalPlayer looks at LocalPlayer (Basic look)
  2: 0x01FA [0x03] ExtData[1]->WorkLocal[4] = Work_Zone[2]
  3: 0x01FF [0x03] ExtData[1]->WorkLocal[5] = Work_Zone[3]
  4: 0x0204 [0x03] ExtData[1]->WorkLocal[7] = Work_Zone[4]
  5: 0x0209 [0x03] ExtData[1]->WorkLocal[8] = Work_Zone[5]
  6: 0x020E [0x03] ExtData[1]->WorkLocal[17] = Work_Zone[6]
  7: 0x0213 [0x03] ExtData[1]->WorkLocal[18] = Work_Zone[7]
  8: 0x0218 [0x03] ExtData[1]->WorkLocal[19] = Work_Zone[8]
  9: 0x021D [0x41] ExtData[1]->WorkLocal[9] = Work_Zone[9] (bits 0*-15*)
 10: 0x0226 [0x41] Work_Zone[6] = Work_Zone[9] (bits 16*-31*)
 11: 0x022F [0x06] ExtData[1]->WorkLocal[3] = 0
 12: 0x0232 [0x02] IF !(ExtData[1]->WorkLocal[9] == 0*) GOTO 0x032E
 13: 0x023A [0x03] ExtData[1]->WorkLocal[10] = 4294967295*
 14: 0x023F [0x0F] ExtData[1]->WorkLocal[10] ^= ExtData[1]->WorkLocal[8]
 15: 0x0244 [0x10] ExtData[1]->WorkLocal[10] <<= 1*
 16: 0x0249 [0x24] CREATE_DIALOG(message_id=8092*, default_option=0*, option_flags=ExtData[1]->WorkLocal[10])
    → "Which battlefield will you enter? [None./The Wyrm God./$26The Wyrm God / / / / / / / / / / / / / / / / / / / / / / / / / / / / / ]"
 17: 0x0250 [0x25] WAIT_DIALOG_SELECT()
 18: 0x0251 [0x02] IF !(Work_Zone[0] == 0*) GOTO 0x025F
 19: 0x0259 [0x01] GOTO 0x0A45

SUBROUTINE_0288:
 20: 0x0288 [0x3E] IF !(ExtData[1]->WorkLocal[18] bit ExtData[1]->WorkLocal[5]) GOTO 0x0292
 21: 0x028F [0x01] GOTO 0x0299
 22: 0x0292 [0x3C] SET_BIT_FLAG_CONDITIONAL(target_work_offset=ExtData[1]->WorkLocal[10], bit_index_work_offset=1*, condition_work_offset=1*)

SUBROUTINE_0299:
 23: 0x0299 [0x1A] CALL_SUBROUTINE(address=0x1382)
 24: 0x029C [0x24] CREATE_DIALOG(message_id=8080*, default_option=5*, option_flags=ExtData[1]->WorkLocal[10])
    → "Select difficulty. [Very difficult. (Level: ???)/Difficult. (Level: ???)/Normal. (Level: $18)/Easy. (Level: $17)/Very Easy. (Level: $16)/Leave.]"
 25: 0x02A3 [0x25] WAIT_DIALOG_SELECT()
 26: 0x02A4 [0x02] IF !(Work_Zone[0] == 0*) GOTO 0x02B4
 27: 0x02AC [0x03] ExtData[1]->WorkLocal[17] = 1*
 28: 0x02B1 [0x01] GOTO 0x0307
 29: 0x02B4 [0x02] IF !(Work_Zone[0] == 1*) GOTO 0x02C4
 30: 0x02BC [0x03] ExtData[1]->WorkLocal[17] = 2*
 31: 0x02C1 [0x01] GOTO 0x0307
 32: 0x02C4 [0x02] IF !(Work_Zone[0] == 2*) GOTO 0x02D4
 33: 0x02CC [0x03] ExtData[1]->WorkLocal[17] = 3*
 34: 0x02D1 [0x01] GOTO 0x0307
 35: 0x02D4 [0x02] IF !(Work_Zone[0] == 3*) GOTO 0x02E4
 36: 0x02DC [0x03] ExtData[1]->WorkLocal[17] = 4*
 37: 0x02E1 [0x01] GOTO 0x0307
 38: 0x02E4 [0x02] IF !(Work_Zone[0] == 4*) GOTO 0x02F4
 39: 0x02EC [0x03] ExtData[1]->WorkLocal[17] = 5*
 40: 0x02F1 [0x01] GOTO 0x0307
 41: 0x02F4 [0x02] IF !(Work_Zone[0] == 5*) GOTO 0x0302
 42: 0x02FC [0x01] GOTO 0x0A45

SUBROUTINE_0307:
 43: 0x0307 [0x01] GOTO 0x032E
 44: 0x030A [0x06] ExtData[1]->WorkLocal[17] = 0
 45: 0x030D [0x1A] CALL_SUBROUTINE(address=0x0A5F)
 46: 0x0310 [0x02] IF !(ExtData[1]->WorkLocal[23] == 1*) GOTO 0x032E
 47: 0x0318 [0x24] CREATE_DIALOG(message_id=7714*, default_option=1*, option_flags=0*)
    → "Enter the battlefield? [Enter./Decline.]"
 48: 0x031F [0x25] WAIT_DIALOG_SELECT()
 49: 0x0320 [0x02] IF !(Work_Zone[0] == 1*) GOTO 0x032E
 50: 0x0328 [0x01] GOTO 0x0A45

SUBROUTINE_032E:
 51: 0x032E [0x42] SET_CLI_EVENT_CANCEL_DATA()
 52: 0x032F [0x03] Work_Zone[1] = 255*
 53: 0x0334 [0x43] SEND_EVENT_UPDATE: Send pending tag to server (packet 0x005B)
 54: 0x0336 [0x43] SEND_EVENT_UPDATE: Check pending flag (skip if not pending)
 55: 0x0338 [0x06] Work_Zone[1] = 0
 56: 0x033B [0x45] LOAD_SCHEDULED_TASK: Load scheduler "fdo1" with entities [LocalPlayer, LocalPlayer], work=[200*, 0*]
 57: 0x034C [0x55] WAIT_LOAD_SCHEDULER: Wait for scheduler "fdo1" with entities [LocalPlayer, LocalPlayer], work=200*
 58: 0x035B [0x3B] GET_ENTITY_POSITION(entity=LocalPlayer, x_destination=Work_Zone[32], y_destination=Work_Zone[33], z_destination=Work_Zone[34])
 59: 0x0366 [0x38] SET_CLIENT_EVENT_MODE(mode=19*)
 60: 0x0369 [0x02] IF !(ExtData[1]->WorkLocal[9] == 1*) GOTO 0x0388
 61: 0x0371 [0x03] ExtData[1]->WorkLocal[2] = 1*
 62: 0x0376 [0x03] ExtData[1]->WorkLocal[6] = ExtData[1]->WorkLocal[5]
 63: 0x037B [0x03] ExtData[1]->WorkLocal[4] = 0*
 64: 0x0380 [0x03] ExtData[1]->WorkLocal[29] = 0*
 65: 0x0385 [0x01] GOTO 0x0779

SUBROUTINE_0388:
 66: 0x0388 [0x03] ExtData[1]->WorkLocal[2] = 1*

SUBROUTINE_038D:
 67: 0x038D [0x02] IF !(ExtData[1]->WorkLocal[2] > 3*) GOTO 0x0A0E
 68: 0x0395 [0x02] IF !(0* == 1*) GOTO 0x03A2
 69: 0x039D [0x03] ExtData[1]->WorkLocal[2] = ExtData[1]->WorkLocal[7]
 70: 0x03A2 [0x40] SET_BIT_WORK_RANGE(start_bit=0*, end_bit=3*, target=Work_Zone[1], source=ExtData[1]->WorkLocal[2])
 71: 0x03AB [0x40] SET_BIT_WORK_RANGE(start_bit=4*, end_bit=8*, target=Work_Zone[1], source=ExtData[1]->WorkLocal[5])
 72: 0x03B4 [0x40] SET_BIT_WORK_RANGE(start_bit=9*, end_bit=11*, target=Work_Zone[1], source=ExtData[1]->WorkLocal[17])
 73: 0x03BD [0x06] Work_Zone[2] = 0
 74: 0x03C0 [0x06] Work_Zone[3] = 0
 75: 0x03C3 [0x06] Work_Zone[4] = 0
 76: 0x03C6 [0x02] IF !(ExtData[1]->WorkLocal[2] == 1*) GOTO 0x03E5
 77: 0x03CE [0x03] ExtData[1]->WorkLocal[11] = 4294487296*
 78: 0x03D3 [0x03] ExtData[1]->WorkLocal[12] = 488000*
 79: 0x03D8 [0x03] ExtData[1]->WorkLocal[13] = 0*
 80: 0x03DD [0x03] ExtData[1]->WorkLocal[14] = 3072*
 81: 0x03E2 [0x01] GOTO 0x0442
 82: 0x03E5 [0x02] IF !(ExtData[1]->WorkLocal[2] == 2*) GOTO 0x0404
 83: 0x03ED [0x03] ExtData[1]->WorkLocal[11] = 520000*
 84: 0x03F2 [0x03] ExtData[1]->WorkLocal[12] = 488000*
 85: 0x03F7 [0x03] ExtData[1]->WorkLocal[13] = 4294467296*
 86: 0x03FC [0x03] ExtData[1]->WorkLocal[14] = 3072*
 87: 0x0401 [0x01] GOTO 0x0442
 88: 0x0404 [0x02] IF !(ExtData[1]->WorkLocal[2] == 3*) GOTO 0x0423
 89: 0x040C [0x03] ExtData[1]->WorkLocal[11] = 4294487296*
 90: 0x0411 [0x03] ExtData[1]->WorkLocal[12] = 4294455296*
 91: 0x0416 [0x03] ExtData[1]->WorkLocal[13] = 4293967296*
 92: 0x041B [0x03] ExtData[1]->WorkLocal[14] = 3072*
 93: 0x0420 [0x01] GOTO 0x0442
 94: 0x0423 [0x02] IF !(ExtData[1]->WorkLocal[2] == 4*) GOTO 0x0442
 95: 0x042B [0x03] ExtData[1]->WorkLocal[11] = 0*
 96: 0x0430 [0x03] ExtData[1]->WorkLocal[12] = 0*
 97: 0x0435 [0x03] ExtData[1]->WorkLocal[13] = 0*
 98: 0x043A [0x03] ExtData[1]->WorkLocal[14] = 0*
 99: 0x043F [0x01] GOTO 0x0442

SUBROUTINE_0442:
100: 0x0442 [0x47] UPDATE_PLAYER_POS(ExtData[1]->WorkLocal[11], ExtData[1]->WorkLocal[12], ExtData[1]->WorkLocal[13], yaw=ExtData[1]->WorkLocal[14])
101: 0x044C [0x47] WAIT_PLAYER_POS_UPDATE
102: 0x044E [0x03] ExtData[1]->WorkLocal[6] = Work_Zone[3]
103: 0x0453 [0x03] ExtData[1]->WorkLocal[4] = Work_Zone[4]
104: 0x0458 [0x03] ExtData[1]->WorkLocal[27] = Work_Zone[5]
105: 0x045D [0x03] ExtData[1]->WorkLocal[15] = Work_Zone[6]
106: 0x0462 [0x03] ExtData[1]->WorkLocal[16] = Work_Zone[7]
107: 0x0467 [0x03] ExtData[1]->WorkLocal[29] = Work_Zone[9]
108: 0x046C [0x02] IF !(Work_Zone[2] == 1*) GOTO 0x0477
109: 0x0474 [0x01] GOTO 0x09FB
110: 0x0477 [0x02] IF !(Work_Zone[2] == 4*) GOTO 0x04C1
111: 0x047F [0x02] IF !(ExtData[1]->WorkLocal[2] == 1*) GOTO 0x048E
112: 0x0487 [0x48] [System] [7725*]:
    → "You are cleared to enter the battlefield, but you cannot while party members are engaged in combat."
113: 0x048A [0x23] WAIT_FOR_DIALOG_INTERACTION
114: 0x048B [0x01] GOTO 0x04BB
115: 0x048E [0x02] IF !(ExtData[1]->WorkLocal[2] == 2*) GOTO 0x049D
116: 0x0496 [0x48] [System] [7726*]:
    → "You are cleared to enter the battlefield, but you cannot while party members are engaged in combat."
117: 0x0499 [0x23] WAIT_FOR_DIALOG_INTERACTION
118: 0x049A [0x01] GOTO 0x04BB
119: 0x049D [0x02] IF !(ExtData[1]->WorkLocal[2] == 3*) GOTO 0x04AC
120: 0x04A5 [0x48] [System] [7727*]:
    → "You are cleared to enter the battlefield, but you cannot while party members are engaged in combat."
121: 0x04A8 [0x23] WAIT_FOR_DIALOG_INTERACTION
122: 0x04A9 [0x01] GOTO 0x04BB
123: 0x04AC [0x02] IF !(ExtData[1]->WorkLocal[2] == 4*) GOTO 0x04BB
124: 0x04B4 [0x48] [System] [7728*]:
    → "You are cleared to enter the battlefield, but you cannot while party members are engaged in combat."
125: 0x04B7 [0x23] WAIT_FOR_DIALOG_INTERACTION
126: 0x04B8 [0x01] GOTO 0x04BB

SUBROUTINE_04BB:
127: 0x04BB [0x01] GOTO 0x0A12

SUBROUTINE_06CB:
128: 0x06CB [0x48] [System] [8073*]:
    → "Only $3 [member/members] have clearance to enter the battlefield. This room has reached its maximum capacity."
129: 0x06CE [0x23] WAIT_FOR_DIALOG_INTERACTION
130: 0x06CF [0x01] GOTO 0x0A12

SUBROUTINE_0717:
131: 0x0717 [0x02] IF !(ExtData[1]->WorkLocal[15] > 1*) GOTO 0x0722
132: 0x071F [0x01] GOTO 0x072F
133: 0x0722 [0x03] Work_Zone[6] = ExtData[1]->WorkLocal[15]
134: 0x0727 [0x0C] Work_Zone[6]--
135: 0x072A [0x03] Work_Zone[7] = ExtData[1]->WorkLocal[15]

SUBROUTINE_072F:
136: 0x072F [0x03] ExtData[1]->WorkLocal[5] = ExtData[1]->WorkLocal[6]
137: 0x0734 [0x03] ExtData[1]->WorkLocal[21] = 100*
138: 0x0739 [0x07] ExtData[1]->WorkLocal[21] += ExtData[1]->WorkLocal[5]
139: 0x073E [0x02] IF !(ExtData[1]->WorkLocal[4] == ExtData[1]->WorkLocal[21]) GOTO 0x074E
140: 0x0746 [0x03] ExtData[1]->WorkLocal[4] = 1*
141: 0x074B [0x01] GOTO 0x0753
142: 0x074E [0x03] ExtData[1]->WorkLocal[4] = 0*

SUBROUTINE_0753:
143: 0x0753 [0x02] IF !(ExtData[1]->WorkLocal[4] == 0*) GOTO 0x0779
144: 0x075B [0x02] IF !(ExtData[1]->WorkLocal[16] == 1*) GOTO 0x0779
145: 0x0763 [0x24] CREATE_DIALOG(message_id=8053*, default_option=1*, option_flags=0*)
    → "Skip the event? [Yes./No.]"
146: 0x076A [0x25] WAIT_DIALOG_SELECT()
147: 0x076B [0x02] IF !(Work_Zone[0] == 0*) GOTO 0x0779
148: 0x0773 [0x05] ExtData[1]->WorkLocal[4] = 1
149: 0x0776 [0x01] GOTO 0x0779

SUBROUTINE_0779:
150: 0x0779 [0x06] ExtData[1]->WorkLocal[22] = 0
151: 0x077C [0x02] IF !(ExtData[1]->WorkLocal[6] == 0*) GOTO 0x078C
152: 0x0784 [0x03] ExtData[1]->WorkLocal[22] = 0*
153: 0x0789 [0x01] GOTO 0x0971
154: 0x078C [0x02] IF !(ExtData[1]->WorkLocal[6] == 1*) GOTO 0x079C
155: 0x0794 [0x03] ExtData[1]->WorkLocal[22] = 0*
156: 0x0799 [0x01] GOTO 0x0971
157: 0x079C [0x02] IF !(ExtData[1]->WorkLocal[6] == 2*) GOTO 0x07AC
158: 0x07A4 [0x03] ExtData[1]->WorkLocal[22] = 0*
159: 0x07A9 [0x01] GOTO 0x0971
160: 0x07AC [0x02] IF !(ExtData[1]->WorkLocal[6] == 3*) GOTO 0x07BC
161: 0x07B4 [0x03] ExtData[1]->WorkLocal[22] = 0*
162: 0x07B9 [0x01] GOTO 0x0971
163: 0x07BC [0x02] IF !(ExtData[1]->WorkLocal[6] == 4*) GOTO 0x07CC
164: 0x07C4 [0x03] ExtData[1]->WorkLocal[22] = 0*
165: 0x07C9 [0x01] GOTO 0x0971
166: 0x07CC [0x02] IF !(ExtData[1]->WorkLocal[6] == 5*) GOTO 0x07DC
167: 0x07D4 [0x03] ExtData[1]->WorkLocal[22] = 0*
168: 0x07D9 [0x01] GOTO 0x0971
169: 0x07DC [0x02] IF !(ExtData[1]->WorkLocal[6] == 6*) GOTO 0x07EC
170: 0x07E4 [0x03] ExtData[1]->WorkLocal[22] = 0*
171: 0x07E9 [0x01] GOTO 0x0971
172: 0x07EC [0x02] IF !(ExtData[1]->WorkLocal[6] == 7*) GOTO 0x07FC
173: 0x07F4 [0x03] ExtData[1]->WorkLocal[22] = 0*
174: 0x07F9 [0x01] GOTO 0x0971
175: 0x07FC [0x02] IF !(ExtData[1]->WorkLocal[6] == 8*) GOTO 0x080C
176: 0x0804 [0x03] ExtData[1]->WorkLocal[22] = 0*
177: 0x0809 [0x01] GOTO 0x0971
178: 0x080C [0x02] IF !(ExtData[1]->WorkLocal[6] == 9*) GOTO 0x081C
179: 0x0814 [0x03] ExtData[1]->WorkLocal[22] = 0*
180: 0x0819 [0x01] GOTO 0x0971
181: 0x081C [0x02] IF !(ExtData[1]->WorkLocal[6] == 10*) GOTO 0x082C
182: 0x0824 [0x03] ExtData[1]->WorkLocal[22] = 0*
183: 0x0829 [0x01] GOTO 0x0971
184: 0x082C [0x02] IF !(ExtData[1]->WorkLocal[6] == 11*) GOTO 0x083C
185: 0x0834 [0x03] ExtData[1]->WorkLocal[22] = 0*
186: 0x0839 [0x01] GOTO 0x0971
187: 0x083C [0x02] IF !(ExtData[1]->WorkLocal[6] == 12*) GOTO 0x084C
188: 0x0844 [0x03] ExtData[1]->WorkLocal[22] = 0*
189: 0x0849 [0x01] GOTO 0x0971
190: 0x084C [0x02] IF !(ExtData[1]->WorkLocal[6] == 13*) GOTO 0x085C
191: 0x0854 [0x03] ExtData[1]->WorkLocal[22] = 0*
192: 0x0859 [0x01] GOTO 0x0971
193: 0x085C [0x02] IF !(ExtData[1]->WorkLocal[6] == 14*) GOTO 0x086C
194: 0x0864 [0x03] ExtData[1]->WorkLocal[22] = 0*
195: 0x0869 [0x01] GOTO 0x0971
196: 0x086C [0x02] IF !(ExtData[1]->WorkLocal[6] == 15*) GOTO 0x087C
197: 0x0874 [0x03] ExtData[1]->WorkLocal[22] = 0*
198: 0x0879 [0x01] GOTO 0x0971
199: 0x087C [0x02] IF !(ExtData[1]->WorkLocal[6] == 16*) GOTO 0x088C
200: 0x0884 [0x03] ExtData[1]->WorkLocal[22] = 0*
201: 0x0889 [0x01] GOTO 0x0971
202: 0x088C [0x02] IF !(ExtData[1]->WorkLocal[6] == 17*) GOTO 0x089C
203: 0x0894 [0x03] ExtData[1]->WorkLocal[22] = 0*
204: 0x0899 [0x01] GOTO 0x0971
205: 0x089C [0x02] IF !(ExtData[1]->WorkLocal[6] == 18*) GOTO 0x08AC
206: 0x08A4 [0x03] ExtData[1]->WorkLocal[22] = 0*
207: 0x08A9 [0x01] GOTO 0x0971
208: 0x08AC [0x02] IF !(ExtData[1]->WorkLocal[6] == 19*) GOTO 0x08BC
209: 0x08B4 [0x03] ExtData[1]->WorkLocal[22] = 0*
210: 0x08B9 [0x01] GOTO 0x0971
211: 0x08BC [0x02] IF !(ExtData[1]->WorkLocal[6] == 20*) GOTO 0x08CC
212: 0x08C4 [0x03] ExtData[1]->WorkLocal[22] = 0*
213: 0x08C9 [0x01] GOTO 0x0971
214: 0x08CC [0x02] IF !(ExtData[1]->WorkLocal[6] == 21*) GOTO 0x08DC
215: 0x08D4 [0x03] ExtData[1]->WorkLocal[22] = 0*
216: 0x08D9 [0x01] GOTO 0x0971
217: 0x08DC [0x02] IF !(ExtData[1]->WorkLocal[6] == 22*) GOTO 0x08EC
218: 0x08E4 [0x03] ExtData[1]->WorkLocal[22] = 0*
219: 0x08E9 [0x01] GOTO 0x0971
220: 0x08EC [0x02] IF !(ExtData[1]->WorkLocal[6] == 23*) GOTO 0x08FC
221: 0x08F4 [0x03] ExtData[1]->WorkLocal[22] = 0*
222: 0x08F9 [0x01] GOTO 0x0971
223: 0x08FC [0x02] IF !(ExtData[1]->WorkLocal[6] == 24*) GOTO 0x090C
224: 0x0904 [0x03] ExtData[1]->WorkLocal[22] = 0*
225: 0x0909 [0x01] GOTO 0x0971
226: 0x090C [0x02] IF !(ExtData[1]->WorkLocal[6] == 25*) GOTO 0x091C
227: 0x0914 [0x03] ExtData[1]->WorkLocal[22] = 0*
228: 0x0919 [0x01] GOTO 0x0971
229: 0x091C [0x02] IF !(ExtData[1]->WorkLocal[6] == 26*) GOTO 0x092C
230: 0x0924 [0x03] ExtData[1]->WorkLocal[22] = 0*
231: 0x0929 [0x01] GOTO 0x0971
232: 0x092C [0x02] IF !(ExtData[1]->WorkLocal[6] == 27*) GOTO 0x093C
233: 0x0934 [0x03] ExtData[1]->WorkLocal[22] = 0*
234: 0x0939 [0x01] GOTO 0x0971
235: 0x093C [0x02] IF !(ExtData[1]->WorkLocal[6] == 28*) GOTO 0x094C
236: 0x0944 [0x03] ExtData[1]->WorkLocal[22] = 0*
237: 0x0949 [0x01] GOTO 0x0971
238: 0x094C [0x02] IF !(ExtData[1]->WorkLocal[6] == 29*) GOTO 0x095C
239: 0x0954 [0x03] ExtData[1]->WorkLocal[22] = 0*
240: 0x0959 [0x01] GOTO 0x0971
241: 0x095C [0x02] IF !(ExtData[1]->WorkLocal[6] == 30*) GOTO 0x096C
242: 0x0964 [0x03] ExtData[1]->WorkLocal[22] = 0*
243: 0x0969 [0x01] GOTO 0x0971
244: 0x096C [0x03] ExtData[1]->WorkLocal[22] = 0*

SUBROUTINE_0971:
245: 0x0971 [0x02] IF !(ExtData[1]->WorkLocal[4] == 1*) GOTO 0x098C
246: 0x0979 [0x5C] MUSIC_CONTROL: Set Idle (Day) music to song 53*
247: 0x097D [0x5C] MUSIC_CONTROL: Set Idle (Night) music to song 53*
248: 0x0981 [0x5C] MUSIC_CONTROL: Set Combat (Solo) music to song 53*
249: 0x0985 [0x5C] MUSIC_CONTROL: Set Combat (Party) music to song 53*
250: 0x0989 [0x01] GOTO 0x09A4
251: 0x098C [0x02] IF !(ExtData[1]->WorkLocal[22] == 0*) GOTO 0x09A4
252: 0x0994 [0x5C] MUSIC_CONTROL: Set Idle (Day) music to song 53*
253: 0x0998 [0x5C] MUSIC_CONTROL: Set Idle (Night) music to song 53*
254: 0x099C [0x5C] MUSIC_CONTROL: Set Combat (Solo) music to song 53*
255: 0x09A0 [0x5C] MUSIC_CONTROL: Set Combat (Party) music to song 53*

SUBROUTINE_09A4:
256: 0x09A4 [0x02] IF !(ExtData[1]->WorkLocal[4] == 0*) GOTO 0x09B2
257: 0x09AC [0x1A] CALL_SUBROUTINE(address=0x118E)
258: 0x09AF [0x01] GOTO 0x09EB
259: 0x09B2 [0x6C] FADE_ENTITY_COLOR(entity_id=LocalPlayer, end_alpha=0*, fade_time=1*)
260: 0x09BB [0x62] LOAD_EVENT_SCHEDULER: Load scheduler "main" with entities [LocalPlayer, LocalPlayer], work=[2*, 0*]
261: 0x09CC [0x45] LOAD_SCHEDULED_TASK: Load scheduler "ovl1" with entities [LocalPlayer, LocalPlayer], work=[200*, 0*]
262: 0x09DD [0x46] CAMERA_CONTROL: Query status
263: 0x09DF [0x14] 0x0200 *= ExtData[1]->WorkLocal[20]
264: 0x09E4 [0x0E] 0x80 |= 0x09EB
265: 0x09E9 [0x46] CAMERA_CONTROL: Restore default settings

SUBROUTINE_09EB:
266: 0x09EB [0x03] Work_Zone[1] = 100*
267: 0x09F0 [0x07] Work_Zone[1] += ExtData[1]->WorkLocal[5]
268: 0x09F5 [0x01] GOTO 0x0A12

SUBROUTINE_09FB:
269: 0x09FB [0x0B] ExtData[1]->WorkLocal[2]++
270: 0x09FE [0x02] IF !(0* == 1*) GOTO 0x0A0B
271: 0x0A06 [0x03] ExtData[1]->WorkLocal[2] = 4*
272: 0x0A0B [0x01] GOTO 0x038D
273: 0x0A0E [0x48] [System] [7717*]:
    → "You cannot enter the battlefield at present. Please wait a little longer."
274: 0x0A11 [0x23] WAIT_FOR_DIALOG_INTERACTION

SUBROUTINE_0A12:
275: 0x0A12 [0x45] LOAD_SCHEDULED_TASK: Load scheduler "whi1" with entities [LocalPlayer, LocalPlayer], work=[201*, 0*]
276: 0x0A23 [0x45] LOAD_SCHEDULED_TASK: Load scheduler "blof" with entities [LocalPlayer, LocalPlayer], work=[200*, 0*]
277: 0x0A34 [0x45] LOAD_SCHEDULED_TASK: Load scheduler "fdi0" with entities [LocalPlayer, LocalPlayer], work=[200*, 0*]

SUBROUTINE_0A45:
278: 0x0A45 [0x02] IF !(ExtData[1]->WorkLocal[9] == 1*) GOTO 0x0A5D
279: 0x0A4D [0x5C] MUSIC_CONTROL: Set Idle (Day) music to song 0*
280: 0x0A51 [0x5C] MUSIC_CONTROL: Set Idle (Night) music to song 0*
281: 0x0A55 [0x5C] MUSIC_CONTROL: Set Combat (Solo) music to song 53*
282: 0x0A59 [0x5C] MUSIC_CONTROL: Set Combat (Party) music to song 53*
283: 0x0A5D [0x21] END_EVENT
284: 0x0A5E [0x00] END_REQSTACK()

SUBROUTINE_0A5F:
285: 0x0A5F [0x1B] RETURN
```

#### Data or dead code:

```
# Dead code (unreachable instructions):
     0x025C [0x01] GOTO 0x032E
# Dead code (unreachable instructions):
     0x02FF [0x01] GOTO 0x0307
# Dead code (unreachable instructions):
     0x032B [0x01] GOTO 0x032E
# Dead code (unreachable instructions):
     0x04BE [0x01] GOTO 0x09FB
     0x04D0 [0x01] GOTO 0x09FB
# Dead code (unreachable instructions):
     0x06D2 [0x01] GOTO 0x09FB
     0x06E0 [0x01] GOTO 0x09FB
# Dead code (unreachable instructions):
     0x09F8 [0x01] GOTO 0x09FB
```

### Event 32002

#### Metadata

| Field        | Value     |
|--------------|-----------|
| Entrypoint   | 0x0A60    |
| Data Size    | 494 bytes |
| Instructions | 83        |

```
      00 01 02 03 04 05 06 07  08 09 0A 0B 0C 0D 0E 0F
      -- -- -- -- -- -- -- --  -- -- -- -- -- -- -- --
0A60: 03 07 00 06 10 03 22 00  07 10 03 21 00 08 10 20  ......"....!... 
0A70: 01 42 3B F0 FF FF 7F 20  10 21 10 22 10 3A F0 FF  .B;.... .!.".:..
0A80: FF 7F 23 10 45 14 80 F0  FF FF 7F F0 FF FF 7F 66  ..#.E..........f
0A90: 64 6F 31 0E 80 55 14 80  F0 FF FF 7F F0 FF FF 7F  do1..U..........
0AA0: 66 64 6F 31 02 0E 80 01  80 00 0B 0B 02 07 00 01  fdo1............
0AB0: 80 80 C3 0A 47 00 0E 80  0E 80 0E 80 0E 80 47 01  ....G.........G.
0AC0: 01 08 0B 02 07 00 02 80  80 DA 0A 47 00 0E 80 0E  ...........G....
0AD0: 80 0E 80 0E 80 47 01 01  08 0B 02 07 00 1B 80 80  .....G..........
0AE0: F1 0A 47 00 0E 80 0E 80  0E 80 0E 80 47 01 01 08  ..G.........G...
0AF0: 0B 02 07 00 1C 80 80 08  0B 47 00 0E 80 0E 80 0E  .........G......
0B00: 80 0E 80 47 01 01 08 0B  01 14 0C 02 21 00 43 80  ...G........!.C.
0B10: 80 95 0B 02 22 00 0E 80  80 2A 0B 47 00 44 80 45  ...."....*.G.D.E
0B20: 80 46 80 47 80 47 01 01  92 0B 02 22 00 01 80 80  .F.G.G....."....
0B30: 41 0B 47 00 48 80 49 80  4A 80 4B 80 47 01 01 92  A.G.H.I.J.K.G...
0B40: 0B 02 22 00 02 80 80 58  0B 47 00 4C 80 4D 80 4E  .."....X.G.L.M.N
0B50: 80 4F 80 47 01 01 92 0B  02 22 00 1B 80 80 6F 0B  .O.G....."....o.
0B60: 47 00 50 80 51 80 52 80  53 80 47 01 01 92 0B 02  G.P.Q.R.S.G.....
0B70: 22 00 1C 80 80 86 0B 47  00 54 80 55 80 56 80 57  "......G.T.U.V.W
0B80: 80 47 01 01 92 0B 47 00  58 80 59 80 24 80 11 80  .G....G.X.Y.$...
0B90: 47 01 01 14 0C 02 21 00  2C 80 80 08 0C 02 22 00  G.....!.,.....".
0BA0: 01 80 80 B4 0B 47 00 5A  80 5B 80 5C 80 5D 80 47  .....G.Z.[.\.].G
0BB0: 01 01 05 0C 02 22 00 02  80 80 CB 0B 47 00 5E 80  ....."......G.^.
0BC0: 5F 80 60 80 61 80 47 01  01 05 0C 02 22 00 1B 80  _.`.a.G....."...
0BD0: 80 E2 0B 47 00 62 80 63  80 64 80 65 80 47 01 01  ...G.b.c.d.e.G..
0BE0: 05 0C 02 22 00 1C 80 80  F9 0B 47 00 66 80 67 80  ..."......G.f.g.
0BF0: 68 80 69 80 47 01 01 05  0C 47 00 58 80 59 80 24  h.i.G....G.X.Y.$
0C00: 80 11 80 47 01 01 14 0C  47 00 58 80 59 80 24 80  ...G....G.X.Y.$.
0C10: 11 80 47 01 38 1F 80 1A  6E 13 45 42 80 F0 FF FF  ..G.8...n.EB....
0C20: 7F F0 FF FF 7F 77 68 69  31 0E 80 45 14 80 F0 FF  .....whi1..E....
0C30: FF 7F F0 FF FF 7F 62 6C  6F 66 0E 80 5C 00 0E 80  ......blof..\...
0C40: 5C 01 0E 80 5C 02 40 80  5C 03 40 80 21 00        \...\.@.\.@.!.  
```

#### Opcodes

```
  0: 0x0A60 [0x03] ExtData[1]->WorkLocal[7] = Work_Zone[6]
  1: 0x0A65 [0x03] ExtData[1]->WorkLocal[34] = Work_Zone[7]
  2: 0x0A6A [0x03] ExtData[1]->WorkLocal[33] = Work_Zone[8]
  3: 0x0A6F [0x20] SET_CLI_EVENT_UC_FLAG: Lock player control
  4: 0x0A71 [0x42] SET_CLI_EVENT_CANCEL_DATA()
  5: 0x0A72 [0x3B] GET_ENTITY_POSITION(entity=LocalPlayer, x_destination=Work_Zone[32], y_destination=Work_Zone[33], z_destination=Work_Zone[34])
  6: 0x0A7D [0x3A] CONVERT_YAW_TO_BYTE(entity=LocalPlayer, result_destination=Work_Zone[35])
  7: 0x0A84 [0x45] LOAD_SCHEDULED_TASK: Load scheduler "fdo1" with entities [LocalPlayer, LocalPlayer], work=[200*, 0*]
  8: 0x0A95 [0x55] WAIT_LOAD_SCHEDULER: Wait for scheduler "fdo1" with entities [LocalPlayer, LocalPlayer], work=200*
  9: 0x0AA4 [0x02] IF !(0* == 1*) GOTO 0x0B0B
 10: 0x0AAC [0x02] IF !(ExtData[1]->WorkLocal[7] == 1*) GOTO 0x0AC3
 11: 0x0AB4 [0x47] UPDATE_PLAYER_POS(0.000*, 0.000*, 0.000*, yaw=0.0°*)
 12: 0x0ABE [0x47] WAIT_PLAYER_POS_UPDATE
 13: 0x0AC0 [0x01] GOTO 0x0B08
 14: 0x0AC3 [0x02] IF !(ExtData[1]->WorkLocal[7] == 2*) GOTO 0x0ADA
 15: 0x0ACB [0x47] UPDATE_PLAYER_POS(0.000*, 0.000*, 0.000*, yaw=0.0°*)
 16: 0x0AD5 [0x47] WAIT_PLAYER_POS_UPDATE
 17: 0x0AD7 [0x01] GOTO 0x0B08
 18: 0x0ADA [0x02] IF !(ExtData[1]->WorkLocal[7] == 3*) GOTO 0x0AF1
 19: 0x0AE2 [0x47] UPDATE_PLAYER_POS(0.000*, 0.000*, 0.000*, yaw=0.0°*)
 20: 0x0AEC [0x47] WAIT_PLAYER_POS_UPDATE
 21: 0x0AEE [0x01] GOTO 0x0B08
 22: 0x0AF1 [0x02] IF !(ExtData[1]->WorkLocal[7] == 4*) GOTO 0x0B08
 23: 0x0AF9 [0x47] UPDATE_PLAYER_POS(0.000*, 0.000*, 0.000*, yaw=0.0°*)
 24: 0x0B03 [0x47] WAIT_PLAYER_POS_UPDATE
 25: 0x0B05 [0x01] GOTO 0x0B08

SUBROUTINE_0B08:
 26: 0x0B08 [0x01] GOTO 0x0C14
 27: 0x0B0B [0x02] IF !(ExtData[1]->WorkLocal[33] == 180*) GOTO 0x0B95
 28: 0x0B13 [0x02] IF !(ExtData[1]->WorkLocal[34] == 0*) GOTO 0x0B2A
 29: 0x0B1B [0x47] UPDATE_PLAYER_POS(-605.141*, 479.929*, -22.681*, yaw=87.2°*)
 30: 0x0B25 [0x47] WAIT_PLAYER_POS_UPDATE
 31: 0x0B27 [0x01] GOTO 0x0B92
 32: 0x0B2A [0x02] IF !(ExtData[1]->WorkLocal[34] == 1*) GOTO 0x0B41
 33: 0x0B32 [0x47] UPDATE_PLAYER_POS(-262.589*, 377.857*, -137.313*, yaw=305.3°*)
 34: 0x0B3C [0x47] WAIT_PLAYER_POS_UPDATE
 35: 0x0B3E [0x01] GOTO 0x0B92
 36: 0x0B41 [0x02] IF !(ExtData[1]->WorkLocal[34] == 2*) GOTO 0x0B58
 37: 0x0B49 [0x47] UPDATE_PLAYER_POS(18.348*, 486.940*, -224.334*, yaw=17.1°*)
 38: 0x0B53 [0x47] WAIT_PLAYER_POS_UPDATE
 39: 0x0B55 [0x01] GOTO 0x0B92
 40: 0x0B58 [0x02] IF !(ExtData[1]->WorkLocal[34] == 3*) GOTO 0x0B6F
 41: 0x0B60 [0x47] UPDATE_PLAYER_POS(231.593*, 360.094*, -173.572*, yaw=160.8°*)
 42: 0x0B6A [0x47] WAIT_PLAYER_POS_UPDATE
 43: 0x0B6C [0x01] GOTO 0x0B92
 44: 0x0B6F [0x02] IF !(ExtData[1]->WorkLocal[34] == 4*) GOTO 0x0B86
 45: 0x0B77 [0x47] UPDATE_PLAYER_POS(553.664*, 523.939*, -38.205*, yaw=233.9°*)
 46: 0x0B81 [0x47] WAIT_PLAYER_POS_UPDATE
 47: 0x0B83 [0x01] GOTO 0x0B92
 48: 0x0B86 [0x47] UPDATE_PLAYER_POS(539.989*, -576.522*, -500.000*, yaw=270.0°*)
 49: 0x0B90 [0x47] WAIT_PLAYER_POS_UPDATE

SUBROUTINE_0B92:
 50: 0x0B92 [0x01] GOTO 0x0C14
 51: 0x0B95 [0x02] IF !(ExtData[1]->WorkLocal[33] == 6*) GOTO 0x0C08
 52: 0x0B9D [0x02] IF !(ExtData[1]->WorkLocal[34] == 1*) GOTO 0x0BB4
 53: 0x0BA5 [0x47] UPDATE_PLAYER_POS(-875.117*, -43.892*, -48.084*, yaw=45.1°*)
 54: 0x0BAF [0x47] WAIT_PLAYER_POS_UPDATE
 55: 0x0BB1 [0x01] GOTO 0x0C05
 56: 0x0BB4 [0x02] IF !(ExtData[1]->WorkLocal[34] == 2*) GOTO 0x0BCB
 57: 0x0BBC [0x47] UPDATE_PLAYER_POS(-755.499*, 563.947*, -112.035*, yaw=313.5°*)
 58: 0x0BC6 [0x47] WAIT_PLAYER_POS_UPDATE
 59: 0x0BC8 [0x01] GOTO 0x0C05
 60: 0x0BCB [0x02] IF !(ExtData[1]->WorkLocal[34] == 3*) GOTO 0x0BE2
 61: 0x0BD3 [0x47] UPDATE_PLAYER_POS(123.251*, 754.209*, -172.124*, yaw=38.7°*)
 62: 0x0BDD [0x47] WAIT_PLAYER_POS_UPDATE
 63: 0x0BDF [0x01] GOTO 0x0C05
 64: 0x0BE2 [0x02] IF !(ExtData[1]->WorkLocal[34] == 4*) GOTO 0x0BF9
 65: 0x0BEA [0x47] UPDATE_PLAYER_POS(-516.404*, -803.323*, 24.206*, yaw=38.4°*)
 66: 0x0BF4 [0x47] WAIT_PLAYER_POS_UPDATE
 67: 0x0BF6 [0x01] GOTO 0x0C05
 68: 0x0BF9 [0x47] UPDATE_PLAYER_POS(539.989*, -576.522*, -500.000*, yaw=270.0°*)
 69: 0x0C03 [0x47] WAIT_PLAYER_POS_UPDATE

SUBROUTINE_0C05:
 70: 0x0C05 [0x01] GOTO 0x0C14
 71: 0x0C08 [0x47] UPDATE_PLAYER_POS(539.989*, -576.522*, -500.000*, yaw=270.0°*)
 72: 0x0C12 [0x47] WAIT_PLAYER_POS_UPDATE

SUBROUTINE_0C14:
 73: 0x0C14 [0x38] SET_CLIENT_EVENT_MODE(mode=19*)
 74: 0x0C17 [0x1A] CALL_SUBROUTINE(address=0x136E)
 75: 0x0C1A [0x45] LOAD_SCHEDULED_TASK: Load scheduler "whi1" with entities [LocalPlayer, LocalPlayer], work=[201*, 0*]
 76: 0x0C2B [0x45] LOAD_SCHEDULED_TASK: Load scheduler "blof" with entities [LocalPlayer, LocalPlayer], work=[200*, 0*]
 77: 0x0C3C [0x5C] MUSIC_CONTROL: Set Idle (Day) music to song 0*
 78: 0x0C40 [0x5C] MUSIC_CONTROL: Set Idle (Night) music to song 0*
 79: 0x0C44 [0x5C] MUSIC_CONTROL: Set Combat (Solo) music to song 53*
 80: 0x0C48 [0x5C] MUSIC_CONTROL: Set Combat (Party) music to song 53*
 81: 0x0C4C [0x21] END_EVENT
 82: 0x0C4D [0x00] END_REQSTACK()
```

### Event 32001

#### Metadata

| Field        | Value     |
|--------------|-----------|
| Entrypoint   | 0x0C4E    |
| Data Size    | 819 bytes |
| Instructions | 137       |

```
      00 01 02 03 04 05 06 07  08 09 0A 0B 0C 0D 0E 0F
      -- -- -- -- -- -- -- --  -- -- -- -- -- -- -- --
0C40:                                            79 00                y.
0C50: F0 FF FF 7F F0 FF FF 7F  03 22 00 02 10 03 1B 00  ........."......
0C60: 03 10 03 1C 00 05 10 03  21 00 06 10 03 1A 00 07  ........!.......
0C70: 10 03 18 00 08 10 03 1D  00 09 10 20 01 42 3B F0  ........... .B;.
0C80: FF FF 7F 20 10 21 10 22  10 3A F0 FF FF 7F 23 10  ... .!.".:....#.
0C90: 02 21 00 43 80 01 9B 0C  1C 6A 80 45 42 80 F0 FF  .!.C.....j.EB...
0CA0: FF 7F F0 FF FF 7F 77 68  69 31 0E 80 45 14 80 F0  ......whi1..E...
0CB0: FF FF 7F F0 FF FF 7F 62  6C 6F 66 0E 80 45 14 80  .......blof..E..
0CC0: F0 FF FF 7F F0 FF FF 7F  66 64 6F 31 0E 80 55 14  ........fdo1..U.
0CD0: 80 F0 FF FF 7F F0 FF FF  7F 66 64 6F 31 6C F0 FF  .........fdo1l..
0CE0: FF 7F 6B 80 01 80 06 01  10 02 18 00 0E 80 03 F4  ..k.............
0CF0: 0C 01 B8 0D 02 21 00 43  80 80 7E 0D 02 22 00 0E  .....!.C..~.."..
0D00: 80 80 13 0D 47 00 6C 80  6D 80 6E 80 6F 80 47 01  ....G.l.m.n.o.G.
0D10: 01 7B 0D 02 22 00 01 80  80 2A 0D 47 00 70 80 71  .{.."....*.G.p.q
0D20: 80 72 80 73 80 47 01 01  7B 0D 02 22 00 02 80 80  .r.s.G..{.."....
0D30: 41 0D 47 00 74 80 75 80  76 80 77 80 47 01 01 7B  A.G.t.u.v.w.G..{
0D40: 0D 02 22 00 1B 80 80 58  0D 47 00 78 80 79 80 7A  .."....X.G.x.y.z
0D50: 80 7B 80 47 01 01 7B 0D  02 22 00 1C 80 80 6F 0D  .{.G..{.."....o.
0D60: 47 00 7C 80 7D 80 7E 80  7F 80 47 01 01 7B 0D 47  G.|.}.~...G..{.G
0D70: 00 58 80 59 80 24 80 11  80 47 01 01 B8 0D 02 21  .X.Y.$...G.....!
0D80: 00 80 80 80 AC 0D 02 1A  00 0E 80 80 9D 0D 47 00  ..............G.
0D90: 58 80 59 80 24 80 11 80  47 01 01 A9 0D 47 00 81  X.Y.$...G....G..
0DA0: 80 82 80 83 80 84 80 47  01 01 B8 0D 47 00 58 80  .......G....G.X.
0DB0: 59 80 24 80 11 80 47 01  38 1F 80 02 18 00 02 80  Y.$...G.8.......
0DC0: 00 C6 0D 01 E1 0D 02 18  00 01 80 00 91 0E 1C 15  ................
0DD0: 80 24 3F 80 01 80 0E 80  25 02 00 10 0E 80 00 91  .$?.....%.......
0DE0: 0E 02 21 00 43 80 00 4D  0E 02 22 00 0E 80 80 FB  ..!.C..M..".....
0DF0: 0D 36 6C 80 6D 80 6E 80  01 4A 0E 02 22 00 01 80  .6l.m.n..J.."...
0E00: 80 0D 0E 36 70 80 71 80  72 80 01 4A 0E 02 22 00  ...6p.q.r..J..".
0E10: 02 80 80 1F 0E 36 74 80  75 80 76 80 01 4A 0E 02  .....6t.u.v..J..
0E20: 22 00 1B 80 80 31 0E 36  78 80 79 80 7A 80 01 4A  "....1.6x.y.z..J
0E30: 0E 02 22 00 1C 80 80 43  0E 36 7C 80 7D 80 7E 80  .."....C.6|.}.~.
0E40: 01 4A 0E 36 58 80 59 80  24 80 01 56 0E 37 58 80  .J.6X.Y.$..V.7X.
0E50: 59 80 24 80 11 80 80 F0  FF FF 7F 62 02 80 F0 FF  Y.$........b....
0E60: FF 7F F0 FF FF 7F 6D 61  69 6E 0E 80 45 14 80 F0  ......main..E...
0E70: FF FF 7F F0 FF FF 7F 66  64 69 32 0E 80 46 02 14  .......fdi2..F..
0E80: 00 02 14 00 0E 80 00 8B  0E 46 00 01 B8 0E 01 91  .........F......
0E90: 0E 02 18 00 18 80 04 AA  0E 5C 00 40 80 5C 01 40  .........\.@.\.@
0EA0: 80 5C 02 40 80 5C 03 40  80 9A 1A F9 12 02 18 00  .\.@.\.@........
0EB0: 0E 80 03 B8 0E 01 19 0F  03 05 10 1C 00 02 05 10  ................
0EC0: 0E 80 02 19 0F 02 05 10  08 80 04 E0 0E 3F 04 10  .............?..
0ED0: 05 10 08 80 15 05 10 08  80 48 85 80 23 01 E4 0E  .........H..#...
0EE0: 48 86 80 23 02 1C 00 1B  00 05 F8 0E 03 07 10 1A  H..#............
0EF0: 00 48 87 80 23 01 19 0F  02 1B 00 08 80 04 14 0F  .H..#...........
0F00: 03 05 10 1B 00 3F 04 10  05 10 08 80 15 05 10 08  .....?..........
0F10: 80 01 19 0F 03 05 10 1B  00 02 19 00 0E 80 00 31  ...............1
0F20: 0F 5C 00 0E 80 5C 01 0E  80 5C 02 40 80 5C 03 40  .\...\...\.@.\.@
0F30: 80 02 18 00 0E 80 03 5A  0F 45 14 80 F0 FF FF 7F  .......Z.E......
0F40: F0 FF FF 7F 66 64 69 32  0E 80 5C 00 0E 80 5C 01  ....fdi2..\...\.
0F50: 0E 80 5C 02 40 80 5C 03  40 80 06 19 00 45 42 80  ..\.@.\.@....EB.
0F60: F0 FF FF 7F F0 FF FF 7F  77 68 69 31 0E 80 45 14  ........whi1..E.
0F70: 80 F0 FF FF 7F F0 FF FF  7F 62 6C 6F 66 0E 80 21  .........blof..!
0F80: 00                                                .               
```

#### Opcodes

```
  0: 0x0C4E [0x79] LocalPlayer looks at LocalPlayer (Basic look)
  1: 0x0C58 [0x03] ExtData[1]->WorkLocal[34] = Work_Zone[2]
  2: 0x0C5D [0x03] ExtData[1]->WorkLocal[27] = Work_Zone[3]
  3: 0x0C62 [0x03] ExtData[1]->WorkLocal[28] = Work_Zone[5]
  4: 0x0C67 [0x03] ExtData[1]->WorkLocal[33] = Work_Zone[6]
  5: 0x0C6C [0x03] ExtData[1]->WorkLocal[26] = Work_Zone[7]
  6: 0x0C71 [0x03] ExtData[1]->WorkLocal[24] = Work_Zone[8]
  7: 0x0C76 [0x03] ExtData[1]->WorkLocal[29] = Work_Zone[9]
  8: 0x0C7B [0x20] SET_CLI_EVENT_UC_FLAG: Lock player control
  9: 0x0C7D [0x42] SET_CLI_EVENT_CANCEL_DATA()
 10: 0x0C7E [0x3B] GET_ENTITY_POSITION(entity=LocalPlayer, x_destination=Work_Zone[32], y_destination=Work_Zone[33], z_destination=Work_Zone[34])
 11: 0x0C89 [0x3A] CONVERT_YAW_TO_BYTE(entity=LocalPlayer, result_destination=Work_Zone[35])
 12: 0x0C90 [0x02] IF !(ExtData[1]->WorkLocal[33] == 180*) GOTO 0x0C9B
 13: 0x0C98 [0x1C] WAIT(300* ticks)
 14: 0x0C9B [0x45] LOAD_SCHEDULED_TASK: Load scheduler "whi1" with entities [LocalPlayer, LocalPlayer], work=[201*, 0*]
 15: 0x0CAC [0x45] LOAD_SCHEDULED_TASK: Load scheduler "blof" with entities [LocalPlayer, LocalPlayer], work=[200*, 0*]
 16: 0x0CBD [0x45] LOAD_SCHEDULED_TASK: Load scheduler "fdo1" with entities [LocalPlayer, LocalPlayer], work=[200*, 0*]
 17: 0x0CCE [0x55] WAIT_LOAD_SCHEDULER: Wait for scheduler "fdo1" with entities [LocalPlayer, LocalPlayer], work=200*
 18: 0x0CDD [0x6C] FADE_ENTITY_COLOR(entity_id=LocalPlayer, end_alpha=128*, fade_time=1*)
 19: 0x0CE6 [0x06] Work_Zone[1] = 0
 20: 0x0CE9 [0x02] IF !(ExtData[1]->WorkLocal[24] >= 0*) GOTO 0x0CF4
 21: 0x0CF1 [0x01] GOTO 0x0DB8
 22: 0x0CF4 [0x02] IF !(ExtData[1]->WorkLocal[33] == 180*) GOTO 0x0D7E
 23: 0x0CFC [0x02] IF !(ExtData[1]->WorkLocal[34] == 0*) GOTO 0x0D13
 24: 0x0D04 [0x47] UPDATE_PLAYER_POS(-618.329*, -643.868*, -25.805*, yaw=330.5°*)
 25: 0x0D0E [0x47] WAIT_PLAYER_POS_UPDATE
 26: 0x0D10 [0x01] GOTO 0x0D7B
 27: 0x0D13 [0x02] IF !(ExtData[1]->WorkLocal[34] == 1*) GOTO 0x0D2A
 28: 0x0D1B [0x47] UPDATE_PLAYER_POS(-332.163*, -441.914*, -95.055*, yaw=330.5°*)
 29: 0x0D25 [0x47] WAIT_PLAYER_POS_UPDATE
 30: 0x0D27 [0x01] GOTO 0x0D7B
 31: 0x0D2A [0x02] IF !(ExtData[1]->WorkLocal[34] == 2*) GOTO 0x0D41
 32: 0x0D32 [0x47] UPDATE_PLAYER_POS(-12.464*, -648.377*, -194.629*, yaw=331.3°*)
 33: 0x0D3C [0x47] WAIT_PLAYER_POS_UPDATE
 34: 0x0D3E [0x01] GOTO 0x0D7B
 35: 0x0D41 [0x02] IF !(ExtData[1]->WorkLocal[34] == 3*) GOTO 0x0D58
 36: 0x0D49 [0x47] UPDATE_PLAYER_POS(323.381*, -443.793*, -108.440*, yaw=329.1°*)
 37: 0x0D53 [0x47] WAIT_PLAYER_POS_UPDATE
 38: 0x0D55 [0x01] GOTO 0x0D7B
 39: 0x0D58 [0x02] IF !(ExtData[1]->WorkLocal[34] == 4*) GOTO 0x0D6F
 40: 0x0D60 [0x47] UPDATE_PLAYER_POS(599.907*, -676.969*, -22.473*, yaw=330.7°*)
 41: 0x0D6A [0x47] WAIT_PLAYER_POS_UPDATE
 42: 0x0D6C [0x01] GOTO 0x0D7B
 43: 0x0D6F [0x47] UPDATE_PLAYER_POS(539.989*, -576.522*, -500.000*, yaw=270.0°*)
 44: 0x0D79 [0x47] WAIT_PLAYER_POS_UPDATE

SUBROUTINE_0D7B:
 45: 0x0D7B [0x01] GOTO 0x0DB8
 46: 0x0D7E [0x02] IF !(ExtData[1]->WorkLocal[33] == 168*) GOTO 0x0DAC
 47: 0x0D86 [0x02] IF !(ExtData[1]->WorkLocal[26] == 0*) GOTO 0x0D9D
 48: 0x0D8E [0x47] UPDATE_PLAYER_POS(539.989*, -576.522*, -500.000*, yaw=270.0°*)
 49: 0x0D98 [0x47] WAIT_PLAYER_POS_UPDATE
 50: 0x0D9A [0x01] GOTO 0x0DA9
 51: 0x0D9D [0x47] UPDATE_PLAYER_POS(200.059*, -21.958*, -0.250*, yaw=91.5°*)
 52: 0x0DA7 [0x47] WAIT_PLAYER_POS_UPDATE

SUBROUTINE_0DA9:
 53: 0x0DA9 [0x01] GOTO 0x0DB8
 54: 0x0DAC [0x47] UPDATE_PLAYER_POS(539.989*, -576.522*, -500.000*, yaw=270.0°*)
 55: 0x0DB6 [0x47] WAIT_PLAYER_POS_UPDATE

SUBROUTINE_0DB8:
 56: 0x0DB8 [0x38] SET_CLIENT_EVENT_MODE(mode=19*)
 57: 0x0DBB [0x02] IF !(ExtData[1]->WorkLocal[24] == 2*) GOTO 0x0DC6
 58: 0x0DC3 [0x01] GOTO 0x0DE1
 59: 0x0DC6 [0x02] IF !(ExtData[1]->WorkLocal[24] == 1*) GOTO 0x0E91
 60: 0x0DCE [0x1C] WAIT(15* ticks)
 61: 0x0DD1 [0x24] CREATE_DIALOG(message_id=8053*, default_option=1*, option_flags=0*)
    → "Skip the event? [Yes./No.]"
 62: 0x0DD8 [0x25] WAIT_DIALOG_SELECT()
 63: 0x0DD9 [0x02] IF !(Work_Zone[0] == 0*) GOTO 0x0E91

SUBROUTINE_0DE1:
 64: 0x0DE1 [0x02] IF !(ExtData[1]->WorkLocal[33] == 180*) GOTO 0x0E4D
 65: 0x0DE9 [0x02] IF !(ExtData[1]->WorkLocal[34] == 0*) GOTO 0x0DFB
 66: 0x0DF1 [0x36] SET_ENTITY_EVENT_POSITION(pos_x=-618.329*, pos_z=-643.868*, pos_y=-25.805*)
 67: 0x0DF8 [0x01] GOTO 0x0E4A
 68: 0x0DFB [0x02] IF !(ExtData[1]->WorkLocal[34] == 1*) GOTO 0x0E0D
 69: 0x0E03 [0x36] SET_ENTITY_EVENT_POSITION(pos_x=-332.163*, pos_z=-441.914*, pos_y=-95.055*)
 70: 0x0E0A [0x01] GOTO 0x0E4A
 71: 0x0E0D [0x02] IF !(ExtData[1]->WorkLocal[34] == 2*) GOTO 0x0E1F
 72: 0x0E15 [0x36] SET_ENTITY_EVENT_POSITION(pos_x=-12.464*, pos_z=-648.377*, pos_y=-194.629*)
 73: 0x0E1C [0x01] GOTO 0x0E4A
 74: 0x0E1F [0x02] IF !(ExtData[1]->WorkLocal[34] == 3*) GOTO 0x0E31
 75: 0x0E27 [0x36] SET_ENTITY_EVENT_POSITION(pos_x=323.381*, pos_z=-443.793*, pos_y=-108.440*)
 76: 0x0E2E [0x01] GOTO 0x0E4A
 77: 0x0E31 [0x02] IF !(ExtData[1]->WorkLocal[34] == 4*) GOTO 0x0E43
 78: 0x0E39 [0x36] SET_ENTITY_EVENT_POSITION(pos_x=599.907*, pos_z=-676.969*, pos_y=-22.473*)
 79: 0x0E40 [0x01] GOTO 0x0E4A
 80: 0x0E43 [0x36] SET_ENTITY_EVENT_POSITION(pos_x=539.989*, pos_z=-576.522*, pos_y=-500.000*)

SUBROUTINE_0E4A:
 81: 0x0E4A [0x01] GOTO 0x0E56
 82: 0x0E4D [0x37] UPDATE_EVENT_POSITION_AND_DIR: x=539.989*, z=-576.522*, y=-500.000*, direction=270.0°*

SUBROUTINE_0E56:
 83: 0x0E56 [0x80] LOAD_WAIT(entity=LocalPlayer)
 84: 0x0E5B [0x62] LOAD_EVENT_SCHEDULER: Load scheduler "main" with entities [LocalPlayer, LocalPlayer], work=[2*, 0*]
 85: 0x0E6C [0x45] LOAD_SCHEDULED_TASK: Load scheduler "fdi2" with entities [LocalPlayer, LocalPlayer], work=[200*, 0*]
 86: 0x0E7D [0x46] CAMERA_CONTROL: Query status
 87: 0x0E7F [0x14] 0x0200 *= ExtData[1]->WorkLocal[20]
 88: 0x0E84 [0x0E] 0x80 |= 0x0E8B
 89: 0x0E89 [0x46] CAMERA_CONTROL: Restore default settings
 90: 0x0E8B [0x01] GOTO 0x0EB8

SUBROUTINE_0E91:
 91: 0x0E91 [0x02] IF !(ExtData[1]->WorkLocal[24] < 4294967295*) GOTO 0x0EAA
 92: 0x0E99 [0x5C] MUSIC_CONTROL: Set Idle (Day) music to song 53*
 93: 0x0E9D [0x5C] MUSIC_CONTROL: Set Idle (Night) music to song 53*
 94: 0x0EA1 [0x5C] MUSIC_CONTROL: Set Combat (Solo) music to song 53*
 95: 0x0EA5 [0x5C] MUSIC_CONTROL: Set Combat (Party) music to song 53*
 96: 0x0EA9 [0x9A] WAIT_MUSIC_SERVER()
 97: 0x0EAA [0x1A] CALL_SUBROUTINE(address=0x12F9)
 98: 0x0EAD [0x02] IF !(ExtData[1]->WorkLocal[24] >= 0*) GOTO 0x0EB8
 99: 0x0EB5 [0x01] GOTO 0x0F19

SUBROUTINE_0EB8:
100: 0x0EB8 [0x03] Work_Zone[5] = ExtData[1]->WorkLocal[28]
101: 0x0EBD [0x02] IF !(Work_Zone[5] <= 0*) GOTO 0x0F19
102: 0x0EC5 [0x02] IF !(Work_Zone[5] < 60*) GOTO 0x0EE0
103: 0x0ECD [0x3F] Work_Zone[4] = Work_Zone[5] % 60*
104: 0x0ED4 [0x15] Work_Zone[5] /= 60*
105: 0x0ED9 [0x48] [System] [8055*]:
    → "Battlefield clear time: $3 minute[/s], $2 second[/s]!"
106: 0x0EDC [0x23] WAIT_FOR_DIALOG_INTERACTION
107: 0x0EDD [0x01] GOTO 0x0EE4
108: 0x0EE0 [0x48] [System] [8054*]:
    → "Battlefield clear time: $3 second[/s]!"
109: 0x0EE3 [0x23] WAIT_FOR_DIALOG_INTERACTION

SUBROUTINE_0EE4:
110: 0x0EE4 [0x02] IF !(ExtData[1]->WorkLocal[28] > ExtData[1]->WorkLocal[27]) GOTO 0x0EF8
111: 0x0EEC [0x03] Work_Zone[7] = ExtData[1]->WorkLocal[26]
112: 0x0EF1 [0x48] [System] [8088*]:
    → "You have broken the clear time record for "[The Wyrm God/$26The Wyrm God/]"!"
113: 0x0EF4 [0x23] WAIT_FOR_DIALOG_INTERACTION
114: 0x0EF5 [0x01] GOTO 0x0F19
115: 0x0EF8 [0x02] IF !(ExtData[1]->WorkLocal[27] < 60*) GOTO 0x0F14
116: 0x0F00 [0x03] Work_Zone[5] = ExtData[1]->WorkLocal[27]
117: 0x0F05 [0x3F] Work_Zone[4] = Work_Zone[5] % 60*
118: 0x0F0C [0x15] Work_Zone[5] /= 60*
119: 0x0F11 [0x01] GOTO 0x0F19
120: 0x0F14 [0x03] Work_Zone[5] = ExtData[1]->WorkLocal[27]

SUBROUTINE_0F19:
121: 0x0F19 [0x02] IF !(ExtData[1]->WorkLocal[25] == 0*) GOTO 0x0F31
122: 0x0F21 [0x5C] MUSIC_CONTROL: Set Idle (Day) music to song 0*
123: 0x0F25 [0x5C] MUSIC_CONTROL: Set Idle (Night) music to song 0*
124: 0x0F29 [0x5C] MUSIC_CONTROL: Set Combat (Solo) music to song 53*
125: 0x0F2D [0x5C] MUSIC_CONTROL: Set Combat (Party) music to song 53*
126: 0x0F31 [0x02] IF !(ExtData[1]->WorkLocal[24] >= 0*) GOTO 0x0F5A
127: 0x0F39 [0x45] LOAD_SCHEDULED_TASK: Load scheduler "fdi2" with entities [LocalPlayer, LocalPlayer], work=[200*, 0*]
128: 0x0F4A [0x5C] MUSIC_CONTROL: Set Idle (Day) music to song 0*
129: 0x0F4E [0x5C] MUSIC_CONTROL: Set Idle (Night) music to song 0*
130: 0x0F52 [0x5C] MUSIC_CONTROL: Set Combat (Solo) music to song 53*
131: 0x0F56 [0x5C] MUSIC_CONTROL: Set Combat (Party) music to song 53*
132: 0x0F5A [0x06] ExtData[1]->WorkLocal[25] = 0
133: 0x0F5D [0x45] LOAD_SCHEDULED_TASK: Load scheduler "whi1" with entities [LocalPlayer, LocalPlayer], work=[201*, 0*]
134: 0x0F6E [0x45] LOAD_SCHEDULED_TASK: Load scheduler "blof" with entities [LocalPlayer, LocalPlayer], work=[200*, 0*]
135: 0x0F7F [0x21] END_EVENT
136: 0x0F80 [0x00] END_REQSTACK()
```

#### Data or dead code:

```
# Dead code (unreachable instructions):
     0x0E8E [0x01] GOTO 0x0E91
```

### Event 32003

#### Metadata

| Field        | Value     |
|--------------|-----------|
| Entrypoint   | 0x0F81    |
| Data Size    | 435 bytes |
| Instructions | 77        |

```
      00 01 02 03 04 05 06 07  08 09 0A 0B 0C 0D 0E 0F
      -- -- -- -- -- -- -- --  -- -- -- -- -- -- -- --
0F80:    06 1E 00 06 1F 00 03  22 00 06 10 03 21 00 07   ......."....!..
0F90: 10 03 20 00 08 10 06 01  10 1A 4A 13 02 1E 00 01  .. .......J.....
0FA0: 80 00 32 11 42 03 01 10  02 80 43 00 43 01 03 01  ..2.B.....C.C...
0FB0: 10 1B 80 43 00 43 01 1A  61 13 02 1F 00 01 80 00  ...C.C..a.......
0FC0: 32 11 45 14 80 F0 FF FF  7F F0 FF FF 7F 66 64 6F  2.E..........fdo
0FD0: 31 0E 80 55 14 80 F0 FF  FF 7F F0 FF FF 7F 66 64  1..U..........fd
0FE0: 6F 31 03 01 10 1C 80 02  21 00 43 80 80 71 10 02  o1......!.C..q..
0FF0: 22 00 0E 80 80 06 10 47  00 44 80 45 80 46 80 47  "......G.D.E.F.G
1000: 80 47 01 01 6E 10 02 22  00 01 80 80 1D 10 47 00  .G..n.."......G.
1010: 48 80 49 80 4A 80 4B 80  47 01 01 6E 10 02 22 00  H.I.J.K.G..n..".
1020: 02 80 80 34 10 47 00 4C  80 4D 80 4E 80 4F 80 47  ...4.G.L.M.N.O.G
1030: 01 01 6E 10 02 22 00 1B  80 80 4B 10 47 00 50 80  ..n.."....K.G.P.
1040: 51 80 52 80 53 80 47 01  01 6E 10 02 22 00 1C 80  Q.R.S.G..n.."...
1050: 80 62 10 47 00 54 80 55  80 56 80 57 80 47 01 01  .b.G.T.U.V.W.G..
1060: 6E 10 47 00 58 80 59 80  24 80 11 80 47 01 01 F0  n.G.X.Y.$...G...
1070: 10 02 21 00 2C 80 80 E4  10 02 20 00 01 80 80 90  ..!.,..... .....
1080: 10 47 00 5A 80 5B 80 5C  80 5D 80 47 01 01 E1 10  .G.Z.[.\.].G....
1090: 02 20 00 02 80 80 A7 10  47 00 5E 80 5F 80 60 80  . ......G.^._.`.
10A0: 61 80 47 01 01 E1 10 02  20 00 1B 80 80 BE 10 47  a.G..... ......G
10B0: 00 62 80 63 80 64 80 65  80 47 01 01 E1 10 02 20  .b.c.d.e.G..... 
10C0: 00 1C 80 80 D5 10 47 00  66 80 67 80 68 80 69 80  ......G.f.g.h.i.
10D0: 47 01 01 E1 10 47 00 58  80 59 80 24 80 11 80 47  G....G.X.Y.$...G
10E0: 01 01 F0 10 47 00 58 80  59 80 24 80 11 80 47 01  ....G.X.Y.$...G.
10F0: 38 1F 80 79 00 F0 FF FF  7F F0 FF FF 7F 1A 65 13  8..y..........e.
1100: 45 42 80 F0 FF FF 7F F0  FF FF 7F 77 68 69 31 0E  EB.........whi1.
1110: 80 45 14 80 F0 FF FF 7F  F0 FF FF 7F 62 6C 6F 66  .E..........blof
1120: 0E 80 5C 00 0E 80 5C 01  0E 80 5C 02 40 80 5C 03  ..\...\...\.@.\.
1130: 40 80 21 00                                       @.!.            
```

#### Opcodes

```
  0: 0x0F81 [0x06] ExtData[1]->WorkLocal[30] = 0
  1: 0x0F84 [0x06] ExtData[1]->WorkLocal[31] = 0
  2: 0x0F87 [0x03] ExtData[1]->WorkLocal[34] = Work_Zone[6]
  3: 0x0F8C [0x03] ExtData[1]->WorkLocal[33] = Work_Zone[7]
  4: 0x0F91 [0x03] ExtData[1]->WorkLocal[32] = Work_Zone[8]
  5: 0x0F96 [0x06] Work_Zone[1] = 0
  6: 0x0F99 [0x1A] CALL_SUBROUTINE(address=0x134A)
  7: 0x0F9C [0x02] IF !(ExtData[1]->WorkLocal[30] == 1*) GOTO 0x1132
  8: 0x0FA4 [0x42] SET_CLI_EVENT_CANCEL_DATA()
  9: 0x0FA5 [0x03] Work_Zone[1] = 2*
 10: 0x0FAA [0x43] SEND_EVENT_UPDATE: Send pending tag to server (packet 0x005B)
 11: 0x0FAC [0x43] SEND_EVENT_UPDATE: Check pending flag (skip if not pending)
 12: 0x0FAE [0x03] Work_Zone[1] = 3*
 13: 0x0FB3 [0x43] SEND_EVENT_UPDATE: Send pending tag to server (packet 0x005B)
 14: 0x0FB5 [0x43] SEND_EVENT_UPDATE: Check pending flag (skip if not pending)
 15: 0x0FB7 [0x1A] CALL_SUBROUTINE(address=0x1361)
 16: 0x0FBA [0x02] IF !(ExtData[1]->WorkLocal[31] == 1*) GOTO 0x1132
 17: 0x0FC2 [0x45] LOAD_SCHEDULED_TASK: Load scheduler "fdo1" with entities [LocalPlayer, LocalPlayer], work=[200*, 0*]
 18: 0x0FD3 [0x55] WAIT_LOAD_SCHEDULER: Wait for scheduler "fdo1" with entities [LocalPlayer, LocalPlayer], work=200*
 19: 0x0FE2 [0x03] Work_Zone[1] = 4*
 20: 0x0FE7 [0x02] IF !(ExtData[1]->WorkLocal[33] == 180*) GOTO 0x1071
 21: 0x0FEF [0x02] IF !(ExtData[1]->WorkLocal[34] == 0*) GOTO 0x1006
 22: 0x0FF7 [0x47] UPDATE_PLAYER_POS(-605.141*, 479.929*, -22.681*, yaw=87.2°*)
 23: 0x1001 [0x47] WAIT_PLAYER_POS_UPDATE
 24: 0x1003 [0x01] GOTO 0x106E
 25: 0x1006 [0x02] IF !(ExtData[1]->WorkLocal[34] == 1*) GOTO 0x101D
 26: 0x100E [0x47] UPDATE_PLAYER_POS(-262.589*, 377.857*, -137.313*, yaw=305.3°*)
 27: 0x1018 [0x47] WAIT_PLAYER_POS_UPDATE
 28: 0x101A [0x01] GOTO 0x106E
 29: 0x101D [0x02] IF !(ExtData[1]->WorkLocal[34] == 2*) GOTO 0x1034
 30: 0x1025 [0x47] UPDATE_PLAYER_POS(18.348*, 486.940*, -224.334*, yaw=17.1°*)
 31: 0x102F [0x47] WAIT_PLAYER_POS_UPDATE
 32: 0x1031 [0x01] GOTO 0x106E
 33: 0x1034 [0x02] IF !(ExtData[1]->WorkLocal[34] == 3*) GOTO 0x104B
 34: 0x103C [0x47] UPDATE_PLAYER_POS(231.593*, 360.094*, -173.572*, yaw=160.8°*)
 35: 0x1046 [0x47] WAIT_PLAYER_POS_UPDATE
 36: 0x1048 [0x01] GOTO 0x106E
 37: 0x104B [0x02] IF !(ExtData[1]->WorkLocal[34] == 4*) GOTO 0x1062
 38: 0x1053 [0x47] UPDATE_PLAYER_POS(553.664*, 523.939*, -38.205*, yaw=233.9°*)
 39: 0x105D [0x47] WAIT_PLAYER_POS_UPDATE
 40: 0x105F [0x01] GOTO 0x106E
 41: 0x1062 [0x47] UPDATE_PLAYER_POS(539.989*, -576.522*, -500.000*, yaw=270.0°*)
 42: 0x106C [0x47] WAIT_PLAYER_POS_UPDATE

SUBROUTINE_106E:
 43: 0x106E [0x01] GOTO 0x10F0
 44: 0x1071 [0x02] IF !(ExtData[1]->WorkLocal[33] == 6*) GOTO 0x10E4
 45: 0x1079 [0x02] IF !(ExtData[1]->WorkLocal[32] == 1*) GOTO 0x1090
 46: 0x1081 [0x47] UPDATE_PLAYER_POS(-875.117*, -43.892*, -48.084*, yaw=45.1°*)
 47: 0x108B [0x47] WAIT_PLAYER_POS_UPDATE
 48: 0x108D [0x01] GOTO 0x10E1
 49: 0x1090 [0x02] IF !(ExtData[1]->WorkLocal[32] == 2*) GOTO 0x10A7
 50: 0x1098 [0x47] UPDATE_PLAYER_POS(-755.499*, 563.947*, -112.035*, yaw=313.5°*)
 51: 0x10A2 [0x47] WAIT_PLAYER_POS_UPDATE
 52: 0x10A4 [0x01] GOTO 0x10E1
 53: 0x10A7 [0x02] IF !(ExtData[1]->WorkLocal[32] == 3*) GOTO 0x10BE
 54: 0x10AF [0x47] UPDATE_PLAYER_POS(123.251*, 754.209*, -172.124*, yaw=38.7°*)
 55: 0x10B9 [0x47] WAIT_PLAYER_POS_UPDATE
 56: 0x10BB [0x01] GOTO 0x10E1
 57: 0x10BE [0x02] IF !(ExtData[1]->WorkLocal[32] == 4*) GOTO 0x10D5
 58: 0x10C6 [0x47] UPDATE_PLAYER_POS(-516.404*, -803.323*, 24.206*, yaw=38.4°*)
 59: 0x10D0 [0x47] WAIT_PLAYER_POS_UPDATE
 60: 0x10D2 [0x01] GOTO 0x10E1
 61: 0x10D5 [0x47] UPDATE_PLAYER_POS(539.989*, -576.522*, -500.000*, yaw=270.0°*)
 62: 0x10DF [0x47] WAIT_PLAYER_POS_UPDATE

SUBROUTINE_10E1:
 63: 0x10E1 [0x01] GOTO 0x10F0
 64: 0x10E4 [0x47] UPDATE_PLAYER_POS(539.989*, -576.522*, -500.000*, yaw=270.0°*)
 65: 0x10EE [0x47] WAIT_PLAYER_POS_UPDATE

SUBROUTINE_10F0:
 66: 0x10F0 [0x38] SET_CLIENT_EVENT_MODE(mode=19*)
 67: 0x10F3 [0x79] LocalPlayer looks at LocalPlayer (Basic look)
 68: 0x10FD [0x1A] CALL_SUBROUTINE(address=0x1365)
 69: 0x1100 [0x45] LOAD_SCHEDULED_TASK: Load scheduler "whi1" with entities [LocalPlayer, LocalPlayer], work=[201*, 0*]
 70: 0x1111 [0x45] LOAD_SCHEDULED_TASK: Load scheduler "blof" with entities [LocalPlayer, LocalPlayer], work=[200*, 0*]
 71: 0x1122 [0x5C] MUSIC_CONTROL: Set Idle (Day) music to song 0*
 72: 0x1126 [0x5C] MUSIC_CONTROL: Set Idle (Night) music to song 0*
 73: 0x112A [0x5C] MUSIC_CONTROL: Set Combat (Solo) music to song 53*
 74: 0x112E [0x5C] MUSIC_CONTROL: Set Combat (Party) music to song 53*
 75: 0x1132 [0x21] END_EVENT
 76: 0x1133 [0x00] END_REQSTACK()
```

### Event 32004

#### Metadata

| Field        | Value      |
|--------------|------------|
| Entrypoint   | 0x1134     |
| Data Size    | 1438 bytes |
| Instructions | 14         |

```
      00 01 02 03 04 05 06 07  08 09 0A 0B 0C 0D 0E 0F
      -- -- -- -- -- -- -- --  -- -- -- -- -- -- -- --
1130:             03 23 00 02  10 03 24 00 03 10 03 20      .#....$.... 
1140: 00 04 10 03 25 00 05 10  42 38 3A 80 02 25 00 0E  ....%...B8:..%..
1150: 80 00 57 11 1C 88 80 02  20 00 0E 80 80 62 11 01  ..W..... ....b..
1160: 62 11 45 14 80 F0 FF FF  7F F0 FF FF 7F 66 64 69  b.E..........fdi
1170: 32 0E 80 46 00 21 00 24  1D 80 01 80 0E 80 25 02  2..F.!.$......%.
1180: 00 10 0E 80 00 8D 11 05  03 00 01 8D 11 1B 79 00  ..............y.
1190: F0 FF FF 7F F0 FF FF 7F  42 46 01 02 05 00 0E 80  ........BF......
11A0: 80 F5 12 1A 69 14 1A 06  14 29 10 1E F0 0F 01 04  ....i....)......
11B0: 6C F0 FF FF 7F 6B 80 01  80 92 00 F0 FF FF 7F 92  l....k..........
11C0: 01 1E F0 0F 01 94 01 F0  FF FF 7F 94 01 1E F0 0F  ................
11D0: 01 BA F0 FF FF 7F 89 80  8A 80 24 80 11 80 BA 1E  ..........$.....
11E0: F0 0F 01 8B 80 8C 80 24  80 8D 80 29 10 1E F0 0F  .......$...)....
11F0: 01 0A 80 F0 FF FF 7F 80  1E F0 0F 01 80 14 F0 0F  ................
1200: 01 5C 00 40 80 5C 01 40  80 5C 02 40 80 5C 03 40  .\.@.\.@.\.@.\.@
1210: 80 9A 45 8E 80 F0 FF FF  7F F0 FF FF 7F 33 38 35  ..E..........385
1220: 32 0E 80 1A 48 14 1C 43  80 52 8E 80 F0 FF FF 7F  2...H..C.R......
1230: F0 FF FF 7F 33 38 35 32  45 8E 80 F0 FF FF 7F F0  ....3852E.......
1240: FF FF 7F 33 38 35 33 0E  80 1C 07 80 52 8E 80 F0  ...3853.....R...
1250: FF FF 7F F0 FF FF 7F 33  38 35 33 45 8E 80 F0 FF  .......3853E....
1260: FF 7F F0 FF FF 7F 33 38  35 34 0E 80 1C 8F 80 52  ......3854.....R
1270: 8E 80 F0 FF FF 7F F0 FF  FF 7F 33 38 35 34 45 8E  ..........3854E.
1280: 80 F0 FF FF 7F F0 FF FF  7F 33 38 35 36 0E 80 1C  .........3856...
1290: 07 80 27 10 F0 FF FF 7F  0C 52 8E 80 F0 FF FF 7F  ..'......R......
12A0: F0 FF FF 7F 33 38 35 36  45 8E 80 F0 FF FF 7F F0  ....3856E.......
12B0: FF FF 7F 33 38 35 35 0E  80 1C 90 80 1A 7A 15 1C  ...3855......z..
12C0: 08 80 52 8E 80 F0 FF FF  7F F0 FF FF 7F 33 38 35  ..R..........385
12D0: 35 45 8E 80 F0 FF FF 7F  F0 FF FF 7F 30 62 6C 66  5E..........0blf
12E0: 0E 80 1A 27 14 1A 48 14  27 10 F0 FF FF 7F 0D 1C  ...'..H.'.......
12F0: 08 80 01 F5 12 78 46 00  1B 02 1A 00 0E 80 80 07  .....xF.........
1300: 13 1A 0D 13 01 0A 13 1A  0D 13 46 00 1B 45 14 80  ..........F..E..
1310: F0 FF FF 7F F0 FF FF 7F  66 64 69 32 0E 80 02 18  ........fdi2....
1320: 00 18 80 01 37 13 62 02  80 F0 FF FF 7F F0 FF FF  ....7.b.........
1330: 7F 6D 61 69 6E 0E 80 1C  09 80 55 14 80 F0 FF FF  .main.....U.....
1340: 7F F0 FF FF 7F 66 64 69  32 1B 24 91 80 01 80 0E  .....fdi2.$.....
1350: 80 25 02 00 10 0E 80 00  60 13 05 1E 00 01 60 13  .%......`.....`.
1360: 1B 05 1F 00 1B 1A 27 14  1A 01 15 46 00 1B 1A E5  ......'....F....
1370: 13 46 01 37 58 80 59 80  24 80 11 80 1A 01 15 46  .F.7X.Y.$......F
1380: 00 1B 02 05 00 0E 80 80  8D 13 01 B1 13 02 05 00  ................
1390: 01 80 80 B1 13 03 08 17  92 80 03 09 17 93 80 03  ................
13A0: 0A 17 94 80 03 0B 17 95  80 03 0C 17 96 80 01 B1  ................
13B0: 13 1B 45 97 80 F0 FF FF  7F F0 FF FF 7F 62 61 63  ..E..........bac
13C0: 6B 0E 80 1B 45 14 80 F0  FF FF 7F F0 FF FF 7F 66  k...E..........f
13D0: 64 69 30 0E 80 55 14 80  F0 FF FF 7F F0 FF FF 7F  di0..U..........
13E0: 66 64 69 30 1B 45 14 80  F0 FF FF 7F F0 FF FF 7F  fdi0.E..........
13F0: 66 64 6F 30 0E 80 55 14  80 F0 FF FF 7F F0 FF FF  fdo0..U.........
1400: 7F 66 64 6F 30 1B 45 14  80 F0 FF FF 7F F0 FF FF  .fdo0.E.........
1410: 7F 66 64 69 31 0E 80 55  14 80 F0 FF FF 7F F0 FF  .fdi1..U........
1420: FF 7F 66 64 69 31 1B 45  14 80 F0 FF FF 7F F0 FF  ..fdi1.E........
1430: FF 7F 66 64 6F 31 0E 80  55 14 80 F0 FF FF 7F F0  ..fdo1..U.......
1440: FF FF 7F 66 64 6F 31 1B  45 42 80 F0 FF FF 7F F0  ...fdo1.EB......
1450: FF FF 7F 77 68 69 31 0E  80 55 42 80 F0 FF FF 7F  ...whi1..UB.....
1460: F0 FF FF 7F 77 68 69 31  1B 45 42 80 F0 FF FF 7F  ....whi1.EB.....
1470: F0 FF FF 7F 77 68 6F 31  0E 80 55 42 80 F0 FF FF  ....who1..UB....
1480: 7F F0 FF FF 7F 77 68 6F  31 1B 45 42 80 F0 FF FF  .....who1.EB....
1490: 7F F0 FF FF 7F 77 68 6F  32 0E 80 55 42 80 F0 FF  .....who2..UB...
14A0: FF 7F F0 FF FF 7F 77 68  6F 32 1B 45 42 80 F0 FF  ......who2.EB...
14B0: FF 7F F0 FF FF 7F 77 68  6F 33 0E 80 55 42 80 F0  ......who3..UB..
14C0: FF FF 7F F0 FF FF 7F 77  68 6F 33 1B 62 01 80 F0  .......who3.b...
14D0: FF FF 7F F0 FF FF 7F 6D  61 69 6E 0E 80 1C 98 80  .......main.....
14E0: 45 14 80 F0 FF FF 7F F0  FF FF 7F 66 64 6F 31 0E  E..........fdo1.
14F0: 80 55 14 80 F0 FF FF 7F  F0 FF FF 7F 66 64 6F 31  .U..........fdo1
1500: 1B 45 14 80 F0 FF FF 7F  F0 FF FF 7F 66 64 69 31  .E..........fdi1
1510: 0E 80 62 02 80 F0 FF FF  7F F0 FF FF 7F 6D 61 69  ..b..........mai
1520: 6E 0E 80 1C 09 80 55 14  80 F0 FF FF 7F F0 FF FF  n.....U.........
1530: 7F 66 64 69 31 1B 45 14  80 F0 FF FF 7F F0 FF FF  .fdi1.E.........
1540: 7F 62 6C 6F 6E 0E 80 45  42 80 F0 FF FF 7F F0 FF  .blon..EB.......
1550: FF 7F 62 6C 6F 6E 0E 80  1B 45 42 80 F0 FF FF 7F  ..blon...EB.....
1560: F0 FF FF 7F 77 68 69 30  0E 80 55 42 80 F0 FF FF  ....whi0..UB....
1570: 7F F0 FF FF 7F 77 68 69  30 1B 45 42 80 F0 FF FF  .....whi0.EB....
1580: 7F F0 FF FF 7F 77 68 6F  30 0E 80 55 42 80 F0 FF  .....who0..UB...
1590: FF 7F F0 FF FF 7F 77 68  6F 30 1B 45 99 80 F0 FF  ......who0.E....
15A0: FF 7F F0 FF FF 7F 65 66  6F 6E 0E 80 55 99 80 F0  ......efon..U...
15B0: FF FF 7F F0 FF FF 7F 65  66 6F 6E 1B 45 14 80 F0  .......efon.E...
15C0: FF FF 7F F0 FF FF 7F 66  64 69 73 0E 80 1B 45 14  .......fdis...E.
15D0: 80 F0 FF FF 7F F0 FF FF  7F 66 64 6F 73 0E 80 55  .........fdos..U
15E0: 14 80 F0 FF FF 7F F0 FF  FF 7F 66 64 6F 73 1B 45  ..........fdos.E
15F0: 14 80 F0 FF FF 7F F0 FF  FF 7F 66 64 69 66 0E 80  ..........fdif..
1600: 1B 45 14 80 F0 FF FF 7F  F0 FF FF 7F 66 64 6F 66  .E..........fdof
1610: 0E 80 55 14 80 F0 FF FF  7F F0 FF FF 7F 66 64 6F  ..U..........fdo
1620: 66 1B 45 14 80 F0 FF FF  7F F0 FF FF 7F 66 64 69  f.E..........fdi
1630: 70 0E 80 1B 45 14 80 F0  FF FF 7F F0 FF FF 7F 66  p...E..........f
1640: 64 6F 70 0E 80 55 14 80  F0 FF FF 7F F0 FF FF 7F  dop..U..........
1650: 66 64 6F 70 1B 02 02 00  01 80 80 74 16 03 0B 00  fdop.......t....
1660: 21 80 03 0C 00 22 80 03  0D 00 0E 80 03 0E 00 11  !...."..........
1670: 80 01 D1 16 02 02 00 02  80 80 93 16 03 0B 00 23  ...............#
1680: 80 03 0C 00 22 80 03 0D  00 24 80 03 0E 00 11 80  ...."....$......
1690: 01 D1 16 02 02 00 1B 80  80 B2 16 03 0B 00 21 80  ..............!.
16A0: 03 0C 00 25 80 03 0D 00  26 80 03 0E 00 11 80 01  ...%....&.......
16B0: D1 16 02 02 00 1C 80 80  D1 16 03 0B 00 0E 80 03  ................
16C0: 0C 00 0E 80 03 0D 00 0E  80 03 0E 00 0E 80 01 D1  ................
16D0: 16 1B                                             ..              
```

#### Opcodes

```
  0: 0x1134 [0x03] ExtData[1]->WorkLocal[35] = Work_Zone[2]
  1: 0x1139 [0x03] ExtData[1]->WorkLocal[36] = Work_Zone[3]
  2: 0x113E [0x03] ExtData[1]->WorkLocal[32] = Work_Zone[4]
  3: 0x1143 [0x03] ExtData[1]->WorkLocal[37] = Work_Zone[5]
  4: 0x1148 [0x42] SET_CLI_EVENT_CANCEL_DATA()
  5: 0x1149 [0x38] SET_CLIENT_EVENT_MODE(mode=27*)
  6: 0x114C [0x02] IF !(ExtData[1]->WorkLocal[37] == 0*) GOTO 0x1157
  7: 0x1154 [0x1C] WAIT(120* ticks)
  8: 0x1157 [0x02] IF !(ExtData[1]->WorkLocal[32] == 0*) GOTO 0x1162
  9: 0x115F [0x01] GOTO 0x1162

SUBROUTINE_1162:
 10: 0x1162 [0x45] LOAD_SCHEDULED_TASK: Load scheduler "fdi2" with entities [LocalPlayer, LocalPlayer], work=[200*, 0*]
 11: 0x1173 [0x46] CAMERA_CONTROL: Restore default settings
 12: 0x1175 [0x21] END_EVENT
 13: 0x1176 [0x00] END_REQSTACK()
```

#### Data or dead code:

```
# Dead code (unreachable instructions):
     0x1177 [0x24] CREATE_DIALOG(message_id=7714*, default_option=1*, option_flags=0*)
    → "Enter the battlefield? [Enter./Decline.]"
     0x117E [0x25] WAIT_DIALOG_SELECT()
     0x117F [0x02] IF !(Work_Zone[0] == 0*) GOTO 0x118D
     0x1187 [0x05] ExtData[1]->WorkLocal[3] = 1
     0x118A [0x01] GOTO 0x118D
     0x118D [0x1B] RETURN
     0x118E [0x79] LocalPlayer looks at LocalPlayer (Basic look)
     0x1198 [0x42] SET_CLI_EVENT_CANCEL_DATA()
     0x1199 [0x46] CAMERA_CONTROL: Disable user control
     0x119B [0x02] IF !(ExtData[1]->WorkLocal[5] == 0*) GOTO 0x12F5
     0x11A3 [0x1A] CALL_SUBROUTINE(address=0x1469)
     0x11A6 [0x1A] CALL_SUBROUTINE(address=0x1406)
     0x11A9 [0x29] REQ_SET_WAIT(priority=0x10, entity_id=Unnamed NPC (ID: 17821726/0x010FF01E), tag_num=0x04)
     0x11B0 [0x6C] FADE_ENTITY_COLOR(entity_id=LocalPlayer, end_alpha=128*, fade_time=1*)
     0x11B9 [0x92] LocalPlayer->Render.Flags3 = Flags3  // No change (flag=0)
     0x11BF [0x92] Unnamed NPC (ID: 17821726/0x010FF01E)->Render.Flags3 ^= 0x01
     0x11C5 [0x94] LocalPlayer->Render.Flags3 ^= 0x01
     0x11CB [0x94] Unnamed NPC (ID: 17821726/0x010FF01E)->Render.Flags3 ^= 0x01
     0x11D1 [0xBA] SET_ENTITY_POSITION(entity_id=LocalPlayer, pos_x=520.001*, pos_z=483.842*, pos_y=-500.000*, direction=270.0°*)
     0x11DE [0xBA] SET_ENTITY_POSITION(entity_id=Unnamed NPC (ID: 17821726/0x010FF01E), pos_x=520.033*, pos_z=520.207*, pos_y=-500.000*, direction=90.0°*)
     0x11EB [0x29] REQ_SET_WAIT(priority=0x10, entity_id=Unnamed NPC (ID: 17821726/0x010FF01E), tag_num=0x0A)
     0x11F2 [0x80] LOAD_WAIT(entity=LocalPlayer)
     0x11F7 [0x80] LOAD_WAIT(entity=Unnamed NPC (ID: 17821726/0x010FF01E))
     0x11FC [0x80] LOAD_WAIT(entity=Transcendental Radiance (ID: 17821716/0x010FF014))
     0x1201 [0x5C] MUSIC_CONTROL: Set Idle (Day) music to song 53*
     0x1205 [0x5C] MUSIC_CONTROL: Set Idle (Night) music to song 53*
     0x1209 [0x5C] MUSIC_CONTROL: Set Combat (Solo) music to song 53*
     0x120D [0x5C] MUSIC_CONTROL: Set Combat (Party) music to song 53*
     0x1211 [0x9A] WAIT_MUSIC_SERVER()
     0x1212 [0x45] LOAD_SCHEDULED_TASK: Load scheduler "3852" with entities [LocalPlayer, LocalPlayer], work=[560*, 0*]
     0x1223 [0x1A] CALL_SUBROUTINE(address=0x1448)
     0x1226 [0x1C] WAIT(180* ticks)
     0x1229 [0x52] END_LOAD_SCHEDULER: End scheduler "3852" with entities [LocalPlayer, LocalPlayer], work=560*
     0x1238 [0x45] LOAD_SCHEDULED_TASK: Load scheduler "3853" with entities [LocalPlayer, LocalPlayer], work=[560*, 0*]
     0x1249 [0x1C] WAIT(210* ticks)
     0x124C [0x52] END_LOAD_SCHEDULER: End scheduler "3853" with entities [LocalPlayer, LocalPlayer], work=560*
     0x125B [0x45] LOAD_SCHEDULED_TASK: Load scheduler "3854" with entities [LocalPlayer, LocalPlayer], work=[560*, 0*]
     0x126C [0x1C] WAIT(150* ticks)
     0x126F [0x52] END_LOAD_SCHEDULER: End scheduler "3854" with entities [LocalPlayer, LocalPlayer], work=560*
     0x127E [0x45] LOAD_SCHEDULED_TASK: Load scheduler "3856" with entities [LocalPlayer, LocalPlayer], work=[560*, 0*]
     0x128F [0x1C] WAIT(210* ticks)
     0x1292 [0x27] REQ_SET(priority=0x10, entity_id=LocalPlayer, tag_num=0x0C)
     0x1299 [0x52] END_LOAD_SCHEDULER: End scheduler "3856" with entities [LocalPlayer, LocalPlayer], work=560*
     0x12A8 [0x45] LOAD_SCHEDULED_TASK: Load scheduler "3855" with entities [LocalPlayer, LocalPlayer], work=[560*, 0*]
     0x12B9 [0x1C] WAIT(90* ticks)
     0x12BC [0x1A] CALL_SUBROUTINE(address=0x157A)
     0x12BF [0x1C] WAIT(60* ticks)
     0x12C2 [0x52] END_LOAD_SCHEDULER: End scheduler "3855" with entities [LocalPlayer, LocalPlayer], work=560*
     0x12D1 [0x45] LOAD_SCHEDULED_TASK: Load scheduler "0blf" with entities [LocalPlayer, LocalPlayer], work=[560*, 0*]
     0x12E2 [0x1A] CALL_SUBROUTINE(address=0x1427)
     0x12E5 [0x1A] CALL_SUBROUTINE(address=0x1448)
     0x12E8 [0x27] REQ_SET(priority=0x10, entity_id=LocalPlayer, tag_num=0x0D)
     0x12EF [0x1C] WAIT(60* ticks)
     0x12F2 [0x01] GOTO 0x12F5
     0x12F5 [0x78] ENABLE_GAME_TIMER_RESET_WEATHER()
     0x12F6 [0x46] CAMERA_CONTROL: Restore default settings
     0x12F8 [0x1B] RETURN
     0x12F9 [0x02] IF !(ExtData[1]->WorkLocal[26] == 0*) GOTO 0x1307
     0x1301 [0x1A] CALL_SUBROUTINE(address=0x130D)
     0x1304 [0x01] GOTO 0x130A
     0x1307 [0x1A] CALL_SUBROUTINE(address=0x130D)
     0x130A [0x46] CAMERA_CONTROL: Restore default settings
     0x130C [0x1B] RETURN
     0x130D [0x45] LOAD_SCHEDULED_TASK: Load scheduler "fdi2" with entities [LocalPlayer, LocalPlayer], work=[200*, 0*]
     0x131E [0x02] IF !(ExtData[1]->WorkLocal[24] == 4294967295*) GOTO 0x1337
     0x1326 [0x62] LOAD_EVENT_SCHEDULER: Load scheduler "main" with entities [LocalPlayer, LocalPlayer], work=[2*, 0*]
     0x1337 [0x1C] WAIT(30* ticks)
     0x133A [0x55] WAIT_LOAD_SCHEDULER: Wait for scheduler "fdi2" with entities [LocalPlayer, LocalPlayer], work=200*
     0x1349 [0x1B] RETURN
     0x134A [0x24] CREATE_DIALOG(message_id=7715*, default_option=1*, option_flags=0*)
    → "Leave the battlefield? [Run away./Stay.]"
     0x1351 [0x25] WAIT_DIALOG_SELECT()
     0x1352 [0x02] IF !(Work_Zone[0] == 0*) GOTO 0x1360
     0x135A [0x05] ExtData[1]->WorkLocal[30] = 1
     0x135D [0x01] GOTO 0x1360
     0x1360 [0x1B] RETURN
     0x1361 [0x05] ExtData[1]->WorkLocal[31] = 1
     0x1364 [0x1B] RETURN
     0x1365 [0x1A] CALL_SUBROUTINE(address=0x1427)
     0x1368 [0x1A] CALL_SUBROUTINE(address=0x1501)
     0x136B [0x46] CAMERA_CONTROL: Restore default settings
     0x136D [0x1B] RETURN
     0x136E [0x1A] CALL_SUBROUTINE(address=0x13E5)
     0x1371 [0x46] CAMERA_CONTROL: Disable user control
     0x1373 [0x37] UPDATE_EVENT_POSITION_AND_DIR: x=539.989*, z=-576.522*, y=-500.000*, direction=270.0°*
     0x137C [0x1A] CALL_SUBROUTINE(address=0x1501)
     0x137F [0x46] CAMERA_CONTROL: Restore default settings
     0x1381 [0x1B] RETURN
     0x1382 [0x02] IF !(ExtData[1]->WorkLocal[5] == 0*) GOTO 0x138D
     0x138A [0x01] GOTO 0x13B1
     0x138D [0x02] IF !(ExtData[1]->WorkLocal[5] == 1*) GOTO 0x13B1
     0x1395 [0x03] Work_Zone_1700[8] = 119*
     0x139A [0x03] Work_Zone_1700[9] = 124*
     0x139F [0x03] Work_Zone_1700[10] = 129*
     0x13A4 [0x03] Work_Zone_1700[11] = 134*
     0x13A9 [0x03] Work_Zone_1700[12] = 139*
     0x13AE [0x01] GOTO 0x13B1
     0x13B1 [0x1B] RETURN
     0x13B2 [0x45] LOAD_SCHEDULED_TASK: Load scheduler "back" with entities [LocalPlayer, LocalPlayer], work=[108*, 0*]
     0x13C3 [0x1B] RETURN
     0x13C4 [0x45] LOAD_SCHEDULED_TASK: Load scheduler "fdi0" with entities [LocalPlayer, LocalPlayer], work=[200*, 0*]
     0x13D5 [0x55] WAIT_LOAD_SCHEDULER: Wait for scheduler "fdi0" with entities [LocalPlayer, LocalPlayer], work=200*
     0x13E4 [0x1B] RETURN
     0x13E5 [0x45] LOAD_SCHEDULED_TASK: Load scheduler "fdo0" with entities [LocalPlayer, LocalPlayer], work=[200*, 0*]
     0x13F6 [0x55] WAIT_LOAD_SCHEDULER: Wait for scheduler "fdo0" with entities [LocalPlayer, LocalPlayer], work=200*
     0x1405 [0x1B] RETURN
     0x1406 [0x45] LOAD_SCHEDULED_TASK: Load scheduler "fdi1" with entities [LocalPlayer, LocalPlayer], work=[200*, 0*]
     0x1417 [0x55] WAIT_LOAD_SCHEDULER: Wait for scheduler "fdi1" with entities [LocalPlayer, LocalPlayer], work=200*
     0x1426 [0x1B] RETURN
     0x1427 [0x45] LOAD_SCHEDULED_TASK: Load scheduler "fdo1" with entities [LocalPlayer, LocalPlayer], work=[200*, 0*]
     0x1438 [0x55] WAIT_LOAD_SCHEDULER: Wait for scheduler "fdo1" with entities [LocalPlayer, LocalPlayer], work=200*
     0x1447 [0x1B] RETURN
     0x1448 [0x45] LOAD_SCHEDULED_TASK: Load scheduler "whi1" with entities [LocalPlayer, LocalPlayer], work=[201*, 0*]
     0x1459 [0x55] WAIT_LOAD_SCHEDULER: Wait for scheduler "whi1" with entities [LocalPlayer, LocalPlayer], work=201*
     0x1468 [0x1B] RETURN
     0x1469 [0x45] LOAD_SCHEDULED_TASK: Load scheduler "who1" with entities [LocalPlayer, LocalPlayer], work=[201*, 0*]
     0x147A [0x55] WAIT_LOAD_SCHEDULER: Wait for scheduler "who1" with entities [LocalPlayer, LocalPlayer], work=201*
     0x1489 [0x1B] RETURN
     0x148A [0x45] LOAD_SCHEDULED_TASK: Load scheduler "who2" with entities [LocalPlayer, LocalPlayer], work=[201*, 0*]
     0x149B [0x55] WAIT_LOAD_SCHEDULER: Wait for scheduler "who2" with entities [LocalPlayer, LocalPlayer], work=201*
     0x14AA [0x1B] RETURN
     0x14AB [0x45] LOAD_SCHEDULED_TASK: Load scheduler "who3" with entities [LocalPlayer, LocalPlayer], work=[201*, 0*]
     0x14BC [0x55] WAIT_LOAD_SCHEDULER: Wait for scheduler "who3" with entities [LocalPlayer, LocalPlayer], work=201*
     0x14CB [0x1B] RETURN
     0x14CC [0x62] LOAD_EVENT_SCHEDULER: Load scheduler "main" with entities [LocalPlayer, LocalPlayer], work=[1*, 0*]
     0x14DD [0x1C] WAIT(45* ticks)
     0x14E0 [0x45] LOAD_SCHEDULED_TASK: Load scheduler "fdo1" with entities [LocalPlayer, LocalPlayer], work=[200*, 0*]
     0x14F1 [0x55] WAIT_LOAD_SCHEDULER: Wait for scheduler "fdo1" with entities [LocalPlayer, LocalPlayer], work=200*
     0x1500 [0x1B] RETURN
     0x1501 [0x45] LOAD_SCHEDULED_TASK: Load scheduler "fdi1" with entities [LocalPlayer, LocalPlayer], work=[200*, 0*]
     0x1512 [0x62] LOAD_EVENT_SCHEDULER: Load scheduler "main" with entities [LocalPlayer, LocalPlayer], work=[2*, 0*]
     0x1523 [0x1C] WAIT(30* ticks)
     0x1526 [0x55] WAIT_LOAD_SCHEDULER: Wait for scheduler "fdi1" with entities [LocalPlayer, LocalPlayer], work=200*
     0x1535 [0x1B] RETURN
     0x1536 [0x45] LOAD_SCHEDULED_TASK: Load scheduler "blon" with entities [LocalPlayer, LocalPlayer], work=[200*, 0*]
     0x1547 [0x45] LOAD_SCHEDULED_TASK: Load scheduler "blon" with entities [LocalPlayer, LocalPlayer], work=[201*, 0*]
     0x1558 [0x1B] RETURN
     0x1559 [0x45] LOAD_SCHEDULED_TASK: Load scheduler "whi0" with entities [LocalPlayer, LocalPlayer], work=[201*, 0*]
     0x156A [0x55] WAIT_LOAD_SCHEDULER: Wait for scheduler "whi0" with entities [LocalPlayer, LocalPlayer], work=201*
     0x1579 [0x1B] RETURN
     0x157A [0x45] LOAD_SCHEDULED_TASK: Load scheduler "who0" with entities [LocalPlayer, LocalPlayer], work=[201*, 0*]
     0x158B [0x55] WAIT_LOAD_SCHEDULER: Wait for scheduler "who0" with entities [LocalPlayer, LocalPlayer], work=201*
     0x159A [0x1B] RETURN
     0x159B [0x45] LOAD_SCHEDULED_TASK: Load scheduler "efon" with entities [LocalPlayer, LocalPlayer], work=[215*, 0*]
     0x15AC [0x55] WAIT_LOAD_SCHEDULER: Wait for scheduler "efon" with entities [LocalPlayer, LocalPlayer], work=215*
     0x15BB [0x1B] RETURN
     0x15BC [0x45] LOAD_SCHEDULED_TASK: Load scheduler "fdis" with entities [LocalPlayer, LocalPlayer], work=[200*, 0*]
     0x15CD [0x1B] RETURN
     0x15CE [0x45] LOAD_SCHEDULED_TASK: Load scheduler "fdos" with entities [LocalPlayer, LocalPlayer], work=[200*, 0*]
     0x15DF [0x55] WAIT_LOAD_SCHEDULER: Wait for scheduler "fdos" with entities [LocalPlayer, LocalPlayer], work=200*
     0x15EE [0x1B] RETURN
     0x15EF [0x45] LOAD_SCHEDULED_TASK: Load scheduler "fdif" with entities [LocalPlayer, LocalPlayer], work=[200*, 0*]
     0x1600 [0x1B] RETURN
     0x1601 [0x45] LOAD_SCHEDULED_TASK: Load scheduler "fdof" with entities [LocalPlayer, LocalPlayer], work=[200*, 0*]
     0x1612 [0x55] WAIT_LOAD_SCHEDULER: Wait for scheduler "fdof" with entities [LocalPlayer, LocalPlayer], work=200*
     0x1621 [0x1B] RETURN
     0x1622 [0x45] LOAD_SCHEDULED_TASK: Load scheduler "fdip" with entities [LocalPlayer, LocalPlayer], work=[200*, 0*]
     0x1633 [0x1B] RETURN
     0x1634 [0x45] LOAD_SCHEDULED_TASK: Load scheduler "fdop" with entities [LocalPlayer, LocalPlayer], work=[200*, 0*]
     0x1645 [0x55] WAIT_LOAD_SCHEDULER: Wait for scheduler "fdop" with entities [LocalPlayer, LocalPlayer], work=200*
     0x1654 [0x1B] RETURN
     0x1655 [0x02] IF !(ExtData[1]->WorkLocal[2] == 1*) GOTO 0x1674
     0x165D [0x03] ExtData[1]->WorkLocal[11] = 4294487296*
     0x1662 [0x03] ExtData[1]->WorkLocal[12] = 488000*
     0x1667 [0x03] ExtData[1]->WorkLocal[13] = 0*
     0x166C [0x03] ExtData[1]->WorkLocal[14] = 3072*
     0x1671 [0x01] GOTO 0x16D1
     0x1674 [0x02] IF !(ExtData[1]->WorkLocal[2] == 2*) GOTO 0x1693
     0x167C [0x03] ExtData[1]->WorkLocal[11] = 520000*
     0x1681 [0x03] ExtData[1]->WorkLocal[12] = 488000*
     0x1686 [0x03] ExtData[1]->WorkLocal[13] = 4294467296*
     0x168B [0x03] ExtData[1]->WorkLocal[14] = 3072*
     0x1690 [0x01] GOTO 0x16D1
     0x1693 [0x02] IF !(ExtData[1]->WorkLocal[2] == 3*) GOTO 0x16B2
