# Event 43

## Metadata

| Field           | Value    |
|-----------------|----------|
| Event Index     | 45/66    |
| Offset          | 0x1090   |
| Data Size       | 51 bytes |
| Calculated Size | 51 bytes |
| Instructions    | 17       |

```
      00 01 02 03 04 05 06 07  08 09 0A 0B 0C 0D 0E 0F
      -- -- -- -- -- -- -- --  -- -- -- -- -- -- -- --
1090: 20 01 48 86 80 23 24 00  80 01 80 02 80 25 02 00   .H..#$......%..
10A0: 10 02 80 00 B4 10 42 43  00 43 01 48 8C 80 1C 88  ......BC.C.H....
10B0: 80 01 BF 10 02 00 10 01  80 00 BF 10 01 BF 10 20  ............... 
10C0: 00 21 00                                          .!.             
```

## Opcodes

```
  0: 0x1090 [0x20] SET_CLI_EVENT_UC_FLAG: Lock player control
  1: 0x1092 [0x48] [System] [7329*]:
    → "\u00072Wel...ome, \u0001\u0005\u0012\u0002\u0000\u0000\u0000.\u00073\u007F1\u0000\u0007"
  2: 0x1095 [0x23] WAIT_FOR_DIALOG_INTERACTION
  3: 0x1096 [0x24] CREATE_DIALOG(message_id=7327*, default_option=1*, option_flags=0*)
    → "Use the portal?\u0007\u000BYes.\u0007No.\u007F1\u0000\u0007"
  4: 0x109D [0x25] WAIT_DIALOG_SELECT()
  5: 0x109E [0x02] IF !(Work_Zone[0] == 0*) GOTO 0x10B4
  6: 0x10A6 [0x42] SET_CLI_EVENT_CANCEL_DATA()
  7: 0x10A7 [0x43] SEND_EVENT_UPDATE: Send pending tag to server (packet 0x005B)
  8: 0x10A9 [0x43] SEND_EVENT_UPDATE: Check pending flag (skip if not pending)
  9: 0x10AB [0x48] [System] [7333*]:
    → "\u00072Requi...ments not ...et. Unab... to regi...er d...ta\u00073\u0000\u0007"
 10: 0x10AE [0x1C] WAIT(60* ticks)
 11: 0x10B1 [0x01] GOTO 0x10BF

SUBROUTINE_10B4:
 12: 0x10B4 [0x02] IF !(Work_Zone[0] == 1*) GOTO 0x10BF
 13: 0x10BC [0x01] GOTO 0x10BF

SUBROUTINE_10BF:
 14: 0x10BF [0x20] SET_CLI_EVENT_UC_FLAG: Unlock player control
 15: 0x10C1 [0x21] END_EVENT
 16: 0x10C2 [0x00] END_REQSTACK()
```
