# 17240499 - Guardian

## Common Data

| Field            | Value                   |
|------------------|-------------------------|
| Zone             | Cape Teriggan (ID: 113) |
| Block Size       | 152 bytes               |
| Total Events     | 4                       |
| References Count | 12                      |

## List of Events

| Event ID                 | Entrypoint   |   Size |   Instructions |
|--------------------------|--------------|--------|----------------|
| [202](#event-202)        | 0x0000       |     33 |              6 |
| [65535](#event-65535)    | 0x0021       |     10 |              2 |
| [65535.1](#event-655351) | 0x002B       |     27 |              7 |

## DAT References (imed_data)

|   Index | Hex Value   |   Dec Value |
|---------|-------------|-------------|
|       0 | 0x0000      |           0 |
|       1 | 0x0001      |           1 |
|       2 | 0xFFFE5CBD  |  4294859965 |
|       3 | 0x6E248     |      451144 |
|       4 | 0xFFFFE0C0  |  4294959296 |
|       5 | 0x09B7      |        2487 |
|       6 | 0x0048      |          72 |
|       7 | 0x0078      |         120 |
|       8 | 0x000A      |          10 |
|       9 | 0xFFFE5370  |  4294857584 |
|      10 | 0x6E648     |      452168 |
|      11 | 0xFFFFE223  |  4294959651 |

## Events

### Event 202

#### Metadata

| Field        | Value    |
|--------------|----------|
| Entrypoint   | 0x0000   |
| Data Size    | 33 bytes |
| Instructions | 6        |

```
      00 01 02 03 04 05 06 07  08 09 0A 0B 0C 0D 0E 0F
      -- -- -- -- -- -- -- --  -- -- -- -- -- -- -- --
0000: 92 01 B3 11 07 01 22 00  2F 00 F8 FF FF 7F 6C F8  ......"./.....l.
0010: FF FF 7F 00 80 01 80 37  02 80 03 80 04 80 05 80  .......7........
0020: 00                                                .               
```

#### Opcodes

```
  0: 0x0000 [0x92] Guardian (ID: 17240499/0x010711B3)->Render.Flags3 ^= 0x01
  1: 0x0006 [0x22] ENTITY_HIDE_FLAG(enabled=0x00)
  2: 0x0008 [0x2F] EventEntity->Render.Flags0 &= ~0x80000 // Bit 19
  3: 0x000E [0x6C] FADE_ENTITY_COLOR(entity_id=EventEntity, end_alpha=0*, fade_time=1*)
  4: 0x0017 [0x37] UPDATE_EVENT_POSITION_AND_DIR: x=-107.331*, z=451.144*, y=-8.000*, direction=218.6°*
  5: 0x0020 [0x00] END_REQSTACK()
```

### Event 65535

#### Metadata

| Field        | Value    |
|--------------|----------|
| Entrypoint   | 0x0021   |
| Data Size    | 10 bytes |
| Instructions | 2        |

```
      00 01 02 03 04 05 06 07  08 09 0A 0B 0C 0D 0E 0F
      -- -- -- -- -- -- -- --  -- -- -- -- -- -- -- --
0020:    6C F8 FF FF 7F 06 80  07 80 00                  l.........     
```

#### Opcodes

```
  0: 0x0021 [0x6C] FADE_ENTITY_COLOR(entity_id=EventEntity, end_alpha=72*, fade_time=120*)
  1: 0x002A [0x00] END_REQSTACK()
```

### Event 65535.1

#### Metadata

| Field        | Value    |
|--------------|----------|
| Entrypoint   | 0x002B   |
| Data Size    | 27 bytes |
| Instructions | 7        |

```
      00 01 02 03 04 05 06 07  08 09 0A 0B 0C 0D 0E 0F
      -- -- -- -- -- -- -- --  -- -- -- -- -- -- -- --
0020:                                   61 00 32 08 80             a.2..
0030: 1F 00 09 80 0A 80 0B 80  1F 01 6F 79 00 F8 FF FF  ..........oy....
0040: 7F F0 FF FF 7F 00                                 ......          
```

#### Opcodes

```
  0: 0x002B [0x61] EventEntity->Render.Flags2 &= ~0x00000001
  1: 0x002D [0x32] ExtData[1]->MainSpeed = 10* * 0.1
  2: 0x0030 [0x1F] MOVE_ENTITY: EventEntity moves to X=-109.712*, Z=452.168*, Y=-7.645*
  3: 0x0038 [0x1F] MOVE_ENTITY: Update entity position (mode=1)
  4: 0x003A [0x6F] WAIT_FRAME_DELAY: Yield until WaitTime reaches zero
  5: 0x003B [0x79] EventEntity looks at LocalPlayer (Basic look)
  6: 0x0045 [0x00] END_REQSTACK()
```
