# Event 10002

## Metadata

| Field           | Value    |
|-----------------|----------|
| Event Index     | 28/45    |
| Offset          | 0x00FE   |
| Data Size       | 81 bytes |
| Calculated Size | 81 bytes |
| Instructions    | 11       |

```
      00 01 02 03 04 05 06 07  08 09 0A 0B 0C 0D 0E 0F
      -- -- -- -- -- -- -- --  -- -- -- -- -- -- -- --
00F0:                                            42 46                BF
0100: 01 45 3B 80 F0 FF FF 7F  F0 FF FF 7F 66 64 69 32  .E;.........fdi2
0110: 3C 80 45 3D 80 F8 FF FF  7F F8 FF FF 7F 73 30 30  <.E=.........s00
0120: 32 3E 80 1C 3F 80 45 3B  80 F0 FF FF 7F F0 FF FF  2>..?.E;........
0130: 7F 66 64 6F 31 3C 80 1C  40 80 46 00 45 3B 80 F0  .fdo1<..@.F.E;..
0140: FF FF 7F F0 FF FF 7F 66  64 69 31 3C 80 21 00     .......fdi1<.!. 
```

## Opcodes

```
  0: 0x00FE [0x42] SET_CLI_EVENT_CANCEL_DATA()
  1: 0x00FF [0x46] CAMERA_CONTROL: Disable user control
  2: 0x0101 [0x45] LOAD_SCHEDULED_TASK(work_offset1=200*, entity1=LocalPlayer, entity2=LocalPlayer, scheduler_id="fdi2", work_offset2=0*)
  3: 0x0112 [0x45] LOAD_SCHEDULED_TASK(work_offset1=218*, entity1=EventEntity, entity2=EventEntity, scheduler_id="s002", work_offset2=600*)
  4: 0x0123 [0x1C] WAIT(540* ticks)
  5: 0x0126 [0x45] LOAD_SCHEDULED_TASK(work_offset1=200*, entity1=LocalPlayer, entity2=LocalPlayer, scheduler_id="fdo1", work_offset2=0*)
  6: 0x0137 [0x1C] WAIT(60* ticks)
  7: 0x013A [0x46] CAMERA_CONTROL: Restore default settings
  8: 0x013C [0x45] LOAD_SCHEDULED_TASK(work_offset1=200*, entity1=LocalPlayer, entity2=LocalPlayer, scheduler_id="fdi1", work_offset2=0*)
  9: 0x014D [0x21] END_EVENT
 10: 0x014E [0x00] END_REQSTACK()
```
