# Event 65535

## Metadata

| Field           | Value    |
|-----------------|----------|
| Event Index     | 40/45    |
| Offset          | 0x0266   |
| Data Size       | 70 bytes |
| Calculated Size | 70 bytes |
| Instructions    | 11       |

```
      00 01 02 03 04 05 06 07  08 09 0A 0B 0C 0D 0E 0F
      -- -- -- -- -- -- -- --  -- -- -- -- -- -- -- --
0260:                   02 09  10 5A 80 00 7A 02 37 72        ...Z..z.7r
0270: 80 73 80 74 80 75 80 01  AB 02 02 09 10 76 80 00  .s.t.u.......v..
0280: 8E 02 37 72 80 73 80 74  80 75 80 01 AB 02 02 09  ..7r.s.t.u......
0290: 10 77 80 00 A2 02 37 78  80 79 80 74 80 75 80 01  .w....7x.y.t.u..
02A0: AB 02 37 7A 80 79 80 74  80 75 80 00              ..7z.y.t.u..    
```

## Opcodes

```
  0: 0x0266 [0x02] IF !(Work_Zone[9] == 5*) GOTO 0x027A
  1: 0x026E [0x37] UPDATE_EVENT_POSITION_AND_DIR: x=28.100*, z=-173.760*, y=-11.500*, direction=16.8째*
  2: 0x0277 [0x01] GOTO 0x02AB
  3: 0x027A [0x02] IF !(Work_Zone[9] == 6*) GOTO 0x028E
  4: 0x0282 [0x37] UPDATE_EVENT_POSITION_AND_DIR: x=28.100*, z=-173.760*, y=-11.500*, direction=16.8째*
  5: 0x028B [0x01] GOTO 0x02AB
  6: 0x028E [0x02] IF !(Work_Zone[9] == 8*) GOTO 0x02A2
  7: 0x0296 [0x37] UPDATE_EVENT_POSITION_AND_DIR: x=27.700*, z=-174.374*, y=-11.500*, direction=16.8째*
  8: 0x029F [0x01] GOTO 0x02AB
  9: 0x02A2 [0x37] UPDATE_EVENT_POSITION_AND_DIR: x=27.892*, z=-174.374*, y=-11.500*, direction=16.8째*

SUBROUTINE_02AB:
 10: 0x02AB [0x00] END_REQSTACK()
```
