# Event 10011

## Metadata

| Field           | Value    |
|-----------------|----------|
| Event Index     | 4/14     |
| Offset          | 0x02ED   |
| Data Size       | 64 bytes |
| Calculated Size | 64 bytes |
| Instructions    | 12       |

```
      00 01 02 03 04 05 06 07  08 09 0A 0B 0C 0D 0E 0F
      -- -- -- -- -- -- -- --  -- -- -- -- -- -- -- --
02E0:                                         20 01 42                .B
02F0: 62 05 80 F0 FF FF 7F F0  FF FF 7F 6D 61 69 6E 01  b..........main.
0300: 80 1C 25 80 47 00 2B 80  27 80 28 80 29 80 47 01  ..%.G.+.'.(.).G.
0310: 62 06 80 F0 FF FF 7F F0  FF FF 7F 6D 61 69 6E 01  b..........main.
0320: 80 1C 25 80 20 00 03 01  10 2C 80 21 00           ..%. ....,.!.   
```

## Opcodes

```
  0: 0x02ED [0x20] SET_CLI_EVENT_UC_FLAG: Lock player control
  1: 0x02EF [0x42] SET_CLI_EVENT_CANCEL_DATA()
  2: 0x02F0 [0x62] LOAD_EVENT_SCHEDULER (arg=5012): Load scheduler "main" with entities [LocalPlayer, LocalPlayer], work=[1*, 0*]
  3: 0x0301 [0x1C] WAIT(180* ticks)
  4: 0x0304 [0x47] UPDATE_PLAYER_POS(180.000*, 265.000*, 12.367*, yaw=90.0°*)
  5: 0x030E [0x47] WAIT_PLAYER_POS_UPDATE
  6: 0x0310 [0x62] LOAD_EVENT_SCHEDULER (arg=5012): Load scheduler "main" with entities [LocalPlayer, LocalPlayer], work=[2*, 0*]
  7: 0x0321 [0x1C] WAIT(180* ticks)
  8: 0x0324 [0x20] SET_CLI_EVENT_UC_FLAG: Unlock player control
  9: 0x0326 [0x03] Work_Zone[1] = 1001*
 10: 0x032B [0x21] END_EVENT
 11: 0x032C [0x00] END_REQSTACK()
```
