# Event 10018

## Metadata

| Field           | Value    |
|-----------------|----------|
| Event Index     | 11/14    |
| Offset          | 0x04AD   |
| Data Size       | 64 bytes |
| Calculated Size | 64 bytes |
| Instructions    | 12       |

```
      00 01 02 03 04 05 06 07  08 09 0A 0B 0C 0D 0E 0F
      -- -- -- -- -- -- -- --  -- -- -- -- -- -- -- --
04A0:                                         20 01 42                .B
04B0: 62 05 80 F0 FF FF 7F F0  FF FF 7F 6D 61 69 6E 01  b..........main.
04C0: 80 1C 25 80 47 00 2B 80  3B 80 35 80 29 80 47 01  ..%.G.+.;.5.).G.
04D0: 62 06 80 F0 FF FF 7F F0  FF FF 7F 6D 61 69 6E 01  b..........main.
04E0: 80 1C 25 80 20 00 03 01  10 3D 80 21 00           ..%. ....=.!.   
```

## Opcodes

```
  0: 0x04AD [0x20] SET_CLI_EVENT_UC_FLAG: Lock player control
  1: 0x04AF [0x42] SET_CLI_EVENT_CANCEL_DATA()
  2: 0x04B0 [0x62] LOAD_EVENT_SCHEDULER (arg=5012): Load scheduler "main" with entities [LocalPlayer, LocalPlayer], work=[1*, 0*]
  3: 0x04C1 [0x1C] WAIT(180* ticks)
  4: 0x04C4 [0x47] UPDATE_PLAYER_POS(180.000*, -255.000*, 12.000*, yaw=90.0°*)
  5: 0x04CE [0x47] WAIT_PLAYER_POS_UPDATE
  6: 0x04D0 [0x62] LOAD_EVENT_SCHEDULER (arg=5012): Load scheduler "main" with entities [LocalPlayer, LocalPlayer], work=[2*, 0*]
  7: 0x04E1 [0x1C] WAIT(180* ticks)
  8: 0x04E4 [0x20] SET_CLI_EVENT_UC_FLAG: Unlock player control
  9: 0x04E6 [0x03] Work_Zone[1] = 1008*
 10: 0x04EB [0x21] END_EVENT
 11: 0x04EC [0x00] END_REQSTACK()
```
