# Event 10016

## Metadata

| Field           | Value    |
|-----------------|----------|
| Event Index     | 9/14     |
| Offset          | 0x042D   |
| Data Size       | 64 bytes |
| Calculated Size | 64 bytes |
| Instructions    | 12       |

```
      00 01 02 03 04 05 06 07  08 09 0A 0B 0C 0D 0E 0F
      -- -- -- -- -- -- -- --  -- -- -- -- -- -- -- --
0420:                                         20 01 42                .B
0430: 62 05 80 F0 FF FF 7F F0  FF FF 7F 6D 61 69 6E 01  b..........main.
0440: 80 1C 25 80 47 00 2B 80  39 80 35 80 2F 80 47 01  ..%.G.+.9.5./.G.
0450: 62 06 80 F0 FF FF 7F F0  FF FF 7F 6D 61 69 6E 01  b..........main.
0460: 80 1C 25 80 20 00 03 01  10 3A 80 21 00           ..%. ....:.!.   
```

## Opcodes

```
  0: 0x042D [0x20] SET_CLI_EVENT_UC_FLAG: Lock player control
  1: 0x042F [0x42] SET_CLI_EVENT_CANCEL_DATA()
  2: 0x0430 [0x62] LOAD_EVENT_SCHEDULER (arg=5012): Load scheduler "main" with entities [LocalPlayer, LocalPlayer], work=[1*, 0*]
  3: 0x0441 [0x1C] WAIT(180* ticks)
  4: 0x0444 [0x47] UPDATE_PLAYER_POS(180.000*, 333.000*, 12.000*, yaw=270.0°*)
  5: 0x044E [0x47] WAIT_PLAYER_POS_UPDATE
  6: 0x0450 [0x62] LOAD_EVENT_SCHEDULER (arg=5012): Load scheduler "main" with entities [LocalPlayer, LocalPlayer], work=[2*, 0*]
  7: 0x0461 [0x1C] WAIT(180* ticks)
  8: 0x0464 [0x20] SET_CLI_EVENT_UC_FLAG: Unlock player control
  9: 0x0466 [0x03] Work_Zone[1] = 1006*
 10: 0x046B [0x21] END_EVENT
 11: 0x046C [0x00] END_REQSTACK()
```
