# Event 10015

## Metadata

| Field           | Value    |
|-----------------|----------|
| Event Index     | 8/14     |
| Offset          | 0x03ED   |
| Data Size       | 64 bytes |
| Calculated Size | 64 bytes |
| Instructions    | 12       |

```
      00 01 02 03 04 05 06 07  08 09 0A 0B 0C 0D 0E 0F
      -- -- -- -- -- -- -- --  -- -- -- -- -- -- -- --
03E0:                                         20 01 42                .B
03F0: 62 05 80 F0 FF FF 7F F0  FF FF 7F 6D 61 69 6E 01  b..........main.
0400: 80 1C 25 80 47 00 26 80  37 80 35 80 2F 80 47 01  ..%.G.&.7.5./.G.
0410: 62 06 80 F0 FF FF 7F F0  FF FF 7F 6D 61 69 6E 01  b..........main.
0420: 80 1C 25 80 20 00 03 01  10 38 80 21 00           ..%. ....8.!.   
```

## Opcodes

```
  0: 0x03ED [0x20] SET_CLI_EVENT_UC_FLAG: Lock player control
  1: 0x03EF [0x42] SET_CLI_EVENT_CANCEL_DATA()
  2: 0x03F0 [0x62] LOAD_EVENT_SCHEDULER (arg=5012): Load scheduler "main" with entities [LocalPlayer, LocalPlayer], work=[1*, 0*]
  3: 0x0401 [0x1C] WAIT(180* ticks)
  4: 0x0404 [0x47] UPDATE_PLAYER_POS(-220.000*, 332.000*, 12.000*, yaw=270.0°*)
  5: 0x040E [0x47] WAIT_PLAYER_POS_UPDATE
  6: 0x0410 [0x62] LOAD_EVENT_SCHEDULER (arg=5012): Load scheduler "main" with entities [LocalPlayer, LocalPlayer], work=[2*, 0*]
  7: 0x0421 [0x1C] WAIT(180* ticks)
  8: 0x0424 [0x20] SET_CLI_EVENT_UC_FLAG: Unlock player control
  9: 0x0426 [0x03] Work_Zone[1] = 1005*
 10: 0x042B [0x21] END_EVENT
 11: 0x042C [0x00] END_REQSTACK()
```
