# Event 10014

## Metadata

| Field           | Value    |
|-----------------|----------|
| Event Index     | 7/14     |
| Offset          | 0x03AD   |
| Data Size       | 64 bytes |
| Calculated Size | 64 bytes |
| Instructions    | 12       |

```
      00 01 02 03 04 05 06 07  08 09 0A 0B 0C 0D 0E 0F
      -- -- -- -- -- -- -- --  -- -- -- -- -- -- -- --
03A0:                                         20 01 42                .B
03B0: 62 05 80 F0 FF FF 7F F0  FF FF 7F 6D 61 69 6E 01  b..........main.
03C0: 80 1C 25 80 47 00 33 80  34 80 35 80 29 80 47 01  ..%.G.3.4.5.).G.
03D0: 62 06 80 F0 FF FF 7F F0  FF FF 7F 6D 61 69 6E 01  b..........main.
03E0: 80 1C 25 80 20 00 03 01  10 36 80 21 00           ..%. ....6.!.   
```

## Opcodes

```
  0: 0x03AD [0x20] SET_CLI_EVENT_UC_FLAG: Lock player control
  1: 0x03AF [0x42] SET_CLI_EVENT_CANCEL_DATA()
  2: 0x03B0 [0x62] LOAD_EVENT_SCHEDULER (arg=5012): Load scheduler "main" with entities [LocalPlayer, LocalPlayer], work=[1*, 0*]
  3: 0x03C1 [0x1C] WAIT(180* ticks)
  4: 0x03C4 [0x47] UPDATE_PLAYER_POS(-20.000*, 68.000*, 12.000*, yaw=90.0°*)
  5: 0x03CE [0x47] WAIT_PLAYER_POS_UPDATE
  6: 0x03D0 [0x62] LOAD_EVENT_SCHEDULER (arg=5012): Load scheduler "main" with entities [LocalPlayer, LocalPlayer], work=[2*, 0*]
  7: 0x03E1 [0x1C] WAIT(180* ticks)
  8: 0x03E4 [0x20] SET_CLI_EVENT_UC_FLAG: Unlock player control
  9: 0x03E6 [0x03] Work_Zone[1] = 1004*
 10: 0x03EB [0x21] END_EVENT
 11: 0x03EC [0x00] END_REQSTACK()
```
