# Event 65535

## Metadata

| Field           | Value    |
|-----------------|----------|
| Event Index     | 7/7      |
| Offset          | 0x007A   |
| Data Size       | 79 bytes |
| Calculated Size | 79 bytes |
| Instructions    | 7        |

```
      00 01 02 03 04 05 06 07  08 09 0A 0B 0C 0D 0E 0F
      -- -- -- -- -- -- -- --  -- -- -- -- -- -- -- --
0070:                                2C F8 FF FF 7F F8            ,.....
0080: FF FF 7F 73 70 31 30 53  F8 FF FF 7F F8 FF FF 7F  ...sp10S........
0090: 73 70 31 30 2C F8 FF FF  7F F8 FF FF 7F 73 70 30  sp10,........sp0
00A0: 30 53 F8 FF FF 7F F8 FF  FF 7F 73 70 30 30 2C F8  0S........sp00,.
00B0: FF FF 7F F8 FF FF 7F 73  70 32 30 53 F8 FF FF 7F  .......sp20S....
00C0: F8 FF FF 7F 73 70 32 30  00                       ....sp20.       
```

## Opcodes

```
  0: 0x007A [0x2C] CREATE_SCHEDULER_TASK: Create scheduler "sp10" with entities [EventEntity, EventEntity]
  1: 0x0087 [0x53] WAIT_SCHEDULER_TASK: Wait for scheduler "sp10" with entities [EventEntity, EventEntity]
  2: 0x0094 [0x2C] CREATE_SCHEDULER_TASK: Create scheduler "sp00" with entities [EventEntity, EventEntity]
  3: 0x00A1 [0x53] WAIT_SCHEDULER_TASK: Wait for scheduler "sp00" with entities [EventEntity, EventEntity]
  4: 0x00AE [0x2C] CREATE_SCHEDULER_TASK: Create scheduler "sp20" with entities [EventEntity, EventEntity]
  5: 0x00BB [0x53] WAIT_SCHEDULER_TASK: Wait for scheduler "sp20" with entities [EventEntity, EventEntity]
  6: 0x00C8 [0x00] END_REQSTACK()
```
