# Event 123

## Metadata

| Field           | Value    |
|-----------------|----------|
| Event Index     | 32/52    |
| Offset          | 0x02D2   |
| Data Size       | 33 bytes |
| Calculated Size | 33 bytes |
| Instructions    | 12       |

```
      00 01 02 03 04 05 06 07  08 09 0A 0B 0C 0D 0E 0F
      -- -- -- -- -- -- -- --  -- -- -- -- -- -- -- --
02D0:       1E F0 FF FF 7F 6F  70 29 08 0E 00 0F 01 01    .....op)......
02E0: 1D 28 80 23 1D 29 80 23  29 08 0E 00 0F 01 0B 20  .(.#.).#)...... 
02F0: 00 21 00                                          .!.             
```

## Opcodes

```
  0: 0x02D2 [0x1E] EventEntity looks at LocalPlayer and starts talking
  1: 0x02D7 [0x6F] WAIT_FRAME_DELAY: Yield until WaitTime reaches zero
  2: 0x02D8 [0x70] WAIT_ENTITY_RENDER_FLAG: Wait while EventEntity->Render.Flags3 bit 2 is set (cancel turn if not)
  3: 0x02D9 [0x29] REQ_SET_WAIT(priority=0x08, entity_id=Puo Rhen (ID: 17760270/0x010F000E), tag_num=0x01)
  4: 0x02E0 [0x1D] PRINT_EVENT_MESSAGE(message_id=3446*)
    → "Hey, do you think I look like the type who rrreads much?\u007F1\u0000\u0007"
  5: 0x02E3 [0x23] WAIT_FOR_DIALOG_INTERACTION
  6: 0x02E4 [0x1D] PRINT_EVENT_MESSAGE(message_id=3447*)
    → "Because if I do look like that to you, you'd be betterrr off going to an optometrist than the Optistery!\u007F1\u0000\u0007"
  7: 0x02E7 [0x23] WAIT_FOR_DIALOG_INTERACTION
  8: 0x02E8 [0x29] REQ_SET_WAIT(priority=0x08, entity_id=Puo Rhen (ID: 17760270/0x010F000E), tag_num=0x0B)
  9: 0x02EF [0x20] SET_CLI_EVENT_UC_FLAG: Unlock player control
 10: 0x02F1 [0x21] END_EVENT
 11: 0x02F2 [0x00] END_REQSTACK()
```
