# Event 165

## Metadata

| Field           | Value    |
|-----------------|----------|
| Event Index     | 38/52    |
| Offset          | 0x0398   |
| Data Size       | 33 bytes |
| Calculated Size | 33 bytes |
| Instructions    | 12       |

```
      00 01 02 03 04 05 06 07  08 09 0A 0B 0C 0D 0E 0F
      -- -- -- -- -- -- -- --  -- -- -- -- -- -- -- --
0390:                          1E F0 FF FF 7F 6F 70 29          .....op)
03A0: 08 0E 00 0F 01 01 1D 34  80 23 1D 35 80 23 29 08  .......4.#.5.#).
03B0: 0E 00 0F 01 0B 20 00 21  00                       ..... .!.       
```

## Opcodes

```
  0: 0x0398 [0x1E] EventEntity looks at LocalPlayer and starts talking
  1: 0x039D [0x6F] WAIT_FRAME_DELAY: Yield until WaitTime reaches zero
  2: 0x039E [0x70] WAIT_ENTITY_RENDER_FLAG: Wait while EventEntity->Render.Flags3 bit 2 is set (cancel turn if not)
  3: 0x039F [0x29] REQ_SET_WAIT(priority=0x08, entity_id=Puo Rhen (ID: 17760270/0x010F000E), tag_num=0x01)
  4: 0x03A6 [0x1D] PRINT_EVENT_MESSAGE(message_id=3527*)
    → "I thought something was brrrewing, then suddenly Heavens Towerrr goes and orderrrs us to stop issuing missions to adventurrrers...\u007F1\u0000\u0007"
  5: 0x03A9 [0x23] WAIT_FOR_DIALOG_INTERACTION
  6: 0x03AA [0x1D] PRINT_EVENT_MESSAGE(message_id=3528*)
    → "I've never hearrrd of such a crrrisis before. Grrr... What in Windurrrst is going on?\u007F1\u0000\u0007"
  7: 0x03AD [0x23] WAIT_FOR_DIALOG_INTERACTION
  8: 0x03AE [0x29] REQ_SET_WAIT(priority=0x08, entity_id=Puo Rhen (ID: 17760270/0x010F000E), tag_num=0x0B)
  9: 0x03B5 [0x20] SET_CLI_EVENT_UC_FLAG: Unlock player control
 10: 0x03B7 [0x21] END_EVENT
 11: 0x03B8 [0x00] END_REQSTACK()
```
