# Event 477

## Metadata

| Field           | Value    |
|-----------------|----------|
| Event Index     | 46/52    |
| Offset          | 0x04DC   |
| Data Size       | 33 bytes |
| Calculated Size | 33 bytes |
| Instructions    | 12       |

```
      00 01 02 03 04 05 06 07  08 09 0A 0B 0C 0D 0E 0F
      -- -- -- -- -- -- -- --  -- -- -- -- -- -- -- --
04D0:                                      1E F0 FF FF              ....
04E0: 7F 6F 70 29 08 0E 00 0F  01 01 1D 45 80 23 1D 46  .op).......E.#.F
04F0: 80 23 29 08 0E 00 0F 01  02 20 00 21 00           .#)...... .!.   
```

## Opcodes

```
  0: 0x04DC [0x1E] EventEntity looks at LocalPlayer and starts talking
  1: 0x04E1 [0x6F] WAIT_FRAME_DELAY: Yield until WaitTime reaches zero
  2: 0x04E2 [0x70] WAIT_ENTITY_RENDER_FLAG: Wait while EventEntity->Render.Flags3 bit 2 is set (cancel turn if not)
  3: 0x04E3 [0x29] REQ_SET_WAIT(priority=0x08, entity_id=Puo Rhen (ID: 17760270/0x010F000E), tag_num=0x01)
  4: 0x04EA [0x1D] PRINT_EVENT_MESSAGE(message_id=12343*)
    → "It's not widely known, but the Rrrhinostery and the Mithra go back a long way.\u007F1\u0000\u0007"
  5: 0x04ED [0x23] WAIT_FOR_DIALOG_INTERACTION
  6: 0x04EE [0x1D] PRINT_EVENT_MESSAGE(message_id=12344*)
    → "The rrresearchers bring back seeds from plants found near the southern Mithran village. You know, the original seeds used to grow fluoro-flora.\u007F1\u0000\u0007"
  7: 0x04F1 [0x23] WAIT_FOR_DIALOG_INTERACTION
  8: 0x04F2 [0x29] REQ_SET_WAIT(priority=0x08, entity_id=Puo Rhen (ID: 17760270/0x010F000E), tag_num=0x02)
  9: 0x04F9 [0x20] SET_CLI_EVENT_UC_FLAG: Unlock player control
 10: 0x04FB [0x21] END_EVENT
 11: 0x04FC [0x00] END_REQSTACK()
```
