# Event 65535

## Metadata

| Field           | Value    |
|-----------------|----------|
| Event Index     | 5/94     |
| Offset          | 0x0024   |
| Data Size       | 42 bytes |
| Calculated Size | 42 bytes |
| Instructions    | 10       |

```
      00 01 02 03 04 05 06 07  08 09 0A 0B 0C 0D 0E 0F
      -- -- -- -- -- -- -- --  -- -- -- -- -- -- -- --
0020:             32 05 80 1F  00 08 80 09 80 0A 80 1F      2...........
0030: 01 1F 00 0B 80 0C 80 0D  80 1F 01 1F 00 0E 80 0F  ................
0040: 80 0D 80 1F 01 1E 2B D0  0E 01 1C 10 80 00        ......+.......  
```

## Opcodes

```
  0: 0x0024 [0x32] ExtData[1]->MainSpeed = 13* * 0.1
  1: 0x0027 [0x1F] MOVE_ENTITY: EventEntity moves to X=-16.249*, Z=-4.488*, Y=-10.750*
  2: 0x002F [0x1F] MOVE_ENTITY: Update entity position (mode=1)
  3: 0x0031 [0x1F] MOVE_ENTITY: EventEntity moves to X=-15.346*, Z=-3.444*, Y=-10.988*
  4: 0x0039 [0x1F] MOVE_ENTITY: Update entity position (mode=1)
  5: 0x003B [0x1F] MOVE_ENTITY: EventEntity moves to X=-15.185*, Z=-2.130*, Y=-10.988*
  6: 0x0043 [0x1F] MOVE_ENTITY: Update entity position (mode=1)
  7: 0x0045 [0x1E] EventEntity looks at Cid (ID: 17748011/0x010ED02B) and starts talking
  8: 0x004A [0x1C] WAIT(60* ticks)
  9: 0x004D [0x00] END_REQSTACK()
```
