# Event 872

## Metadata

| Field           | Value    |
|-----------------|----------|
| Event Index     | 62/94    |
| Offset          | 0x03E5   |
| Data Size       | 33 bytes |
| Calculated Size | 33 bytes |
| Instructions    | 12       |

```
      00 01 02 03 04 05 06 07  08 09 0A 0B 0C 0D 0E 0F
      -- -- -- -- -- -- -- --  -- -- -- -- -- -- -- --
03E0:                1E F0 FF  FF 7F 6F 70 29 08 2C D0       .....op).,.
03F0: 0E 01 1B 1D 42 80 23 1D  43 80 23 29 08 2C D0 0E  ....B.#.C.#).,..
0400: 01 1C 20 00 21 00                                 .. .!.          
```

## Opcodes

```
  0: 0x03E5 [0x1E] EventEntity looks at LocalPlayer and starts talking
  1: 0x03EA [0x6F] WAIT_FRAME_DELAY: Yield until WaitTime reaches zero
  2: 0x03EB [0x70] WAIT_ENTITY_RENDER_FLAG: Wait while EventEntity->Render.Flags3 bit 2 is set (cancel turn if not)
  3: 0x03EC [0x29] REQ_SET_WAIT(priority=0x08, entity_id=Raibaht (ID: 17748012/0x010ED02C), tag_num=0x1B)
  4: 0x03F3 [0x1D] PRINT_EVENT_MESSAGE(message_id=9951*)
    → "The adventurer we seek has been ordered to travel to Delkfutt's Tower and defeat a monster known as Orna.\u007F1\u0000\u0007"
  5: 0x03F6 [0x23] WAIT_FOR_DIALOG_INTERACTION
  6: 0x03F7 [0x1D] PRINT_EVENT_MESSAGE(message_id=9952*)
    → "Find that man and have him tell you where he hid the \u0001\u00053\u0002\u0001\u0000\u0000.\u007F1\u0000\u0007"
  7: 0x03FA [0x23] WAIT_FOR_DIALOG_INTERACTION
  8: 0x03FB [0x29] REQ_SET_WAIT(priority=0x08, entity_id=Raibaht (ID: 17748012/0x010ED02C), tag_num=0x1C)
  9: 0x0402 [0x20] SET_CLI_EVENT_UC_FLAG: Unlock player control
 10: 0x0404 [0x21] END_EVENT
 11: 0x0405 [0x00] END_REQSTACK()
```
