# Event 256

## Metadata

| Field           | Value    |
|-----------------|----------|
| Event Index     | 27/32    |
| Offset          | 0x0CAA   |
| Data Size       | 67 bytes |
| Calculated Size | 67 bytes |
| Instructions    | 17       |

```
      00 01 02 03 04 05 06 07  08 09 0A 0B 0C 0D 0E 0F
      -- -- -- -- -- -- -- --  -- -- -- -- -- -- -- --
0CA0:                                20 01 24 41 80 12             .$A..
0CB0: 80 03 80 25 02 00 10 03  80 00 DE 0C 42 43 00 43  ...%........BC.C
0CC0: 01 29 01 F0 FF FF 7F 1D  47 00 3E 80 3F 80 03 80  .)......G.>.?...
0CD0: 40 80 47 01 29 01 F0 FF  FF 7F 1E 01 E9 0C 02 00  @.G.)...........
0CE0: 10 12 80 00 E9 0C 01 E9  0C 20 00 21 00           ......... .!.   
```

## Opcodes

```
  0: 0x0CAA [0x20] SET_CLI_EVENT_UC_FLAG: Lock player control
  1: 0x0CAC [0x24] CREATE_DIALOG(message_id=9494*, default_option=1*, option_flags=0*)
    → "Use the device?\u0007\u000BYes.\u0007No.\u007F1\u0000\u0007"
  2: 0x0CB3 [0x25] WAIT_DIALOG_SELECT()
  3: 0x0CB4 [0x02] IF !(Work_Zone[0] == 0*) GOTO 0x0CDE
  4: 0x0CBC [0x42] SET_CLI_EVENT_CANCEL_DATA()
  5: 0x0CBD [0x43] SEND_EVENT_UPDATE: Send pending tag to server (packet 0x005B)
  6: 0x0CBF [0x43] SEND_EVENT_UPDATE: Check pending flag (skip if not pending)
  7: 0x0CC1 [0x29] REQ_SET_WAIT(priority=0x01, entity_id=LocalPlayer, tag_num=0x1D)
  8: 0x0CC8 [0x47] UPDATE_PLAYER_POS(-326.000*, -293.000*, 0.000*, yaw=90.0°*)
  9: 0x0CD2 [0x47] WAIT_PLAYER_POS_UPDATE
 10: 0x0CD4 [0x29] REQ_SET_WAIT(priority=0x01, entity_id=LocalPlayer, tag_num=0x1E)
 11: 0x0CDB [0x01] GOTO 0x0CE9

SUBROUTINE_0CDE:
 12: 0x0CDE [0x02] IF !(Work_Zone[0] == 1*) GOTO 0x0CE9
 13: 0x0CE6 [0x01] GOTO 0x0CE9

SUBROUTINE_0CE9:
 14: 0x0CE9 [0x20] SET_CLI_EVENT_UC_FLAG: Unlock player control
 15: 0x0CEB [0x21] END_EVENT
 16: 0x0CEC [0x00] END_REQSTACK()
```
