# Event 258

## Metadata

| Field           | Value    |
|-----------------|----------|
| Event Index     | 29/32    |
| Offset          | 0x0D30   |
| Data Size       | 67 bytes |
| Calculated Size | 67 bytes |
| Instructions    | 17       |

```
      00 01 02 03 04 05 06 07  08 09 0A 0B 0C 0D 0E 0F
      -- -- -- -- -- -- -- --  -- -- -- -- -- -- -- --
0D30: 20 01 24 41 80 12 80 03  80 25 02 00 10 03 80 00   .$A.....%......
0D40: 64 0D 42 43 00 43 01 29  01 F0 FF FF 7F 1D 47 00  d.BC.C.)......G.
0D50: 4A 80 4B 80 03 80 40 80  47 01 29 01 F0 FF FF 7F  J.K...@.G.).....
0D60: 1E 01 6F 0D 02 00 10 12  80 00 6F 0D 01 6F 0D 20  ..o.......o..o. 
0D70: 00 21 00                                          .!.             
```

## Opcodes

```
  0: 0x0D30 [0x20] SET_CLI_EVENT_UC_FLAG: Lock player control
  1: 0x0D32 [0x24] CREATE_DIALOG(message_id=9494*, default_option=1*, option_flags=0*)
    → "Use the device?\u0007\u000BYes.\u0007No.\u007F1\u0000\u0007"
  2: 0x0D39 [0x25] WAIT_DIALOG_SELECT()
  3: 0x0D3A [0x02] IF !(Work_Zone[0] == 0*) GOTO 0x0D64
  4: 0x0D42 [0x42] SET_CLI_EVENT_CANCEL_DATA()
  5: 0x0D43 [0x43] SEND_EVENT_UPDATE: Send pending tag to server (packet 0x005B)
  6: 0x0D45 [0x43] SEND_EVENT_UPDATE: Check pending flag (skip if not pending)
  7: 0x0D47 [0x29] REQ_SET_WAIT(priority=0x01, entity_id=LocalPlayer, tag_num=0x1D)
  8: 0x0D4E [0x47] UPDATE_PLAYER_POS(-164.000*, -373.000*, 0.000*, yaw=90.0°*)
  9: 0x0D58 [0x47] WAIT_PLAYER_POS_UPDATE
 10: 0x0D5A [0x29] REQ_SET_WAIT(priority=0x01, entity_id=LocalPlayer, tag_num=0x1E)
 11: 0x0D61 [0x01] GOTO 0x0D6F

SUBROUTINE_0D64:
 12: 0x0D64 [0x02] IF !(Work_Zone[0] == 1*) GOTO 0x0D6F
 13: 0x0D6C [0x01] GOTO 0x0D6F

SUBROUTINE_0D6F:
 14: 0x0D6F [0x20] SET_CLI_EVENT_UC_FLAG: Unlock player control
 15: 0x0D71 [0x21] END_EVENT
 16: 0x0D72 [0x00] END_REQSTACK()
```
