# Event 65535

## Metadata

| Field           | Value    |
|-----------------|----------|
| Event Index     | 5/32     |
| Offset          | 0x0046   |
| Data Size       | 51 bytes |
| Calculated Size | 51 bytes |
| Instructions    | 11       |

```
      00 01 02 03 04 05 06 07  08 09 0A 0B 0C 0D 0E 0F
      -- -- -- -- -- -- -- --  -- -- -- -- -- -- -- --
0040:                   4B F0  FF FF 7F 06 80 1C 07 80        K.........
0050: 6E F0 FF FF 7F 08 80 99  F0 FF FF 7F 1C 09 80 4B  n..............K
0060: F0 FF FF 7F 0A 80 1C 07  80 6E F0 FF FF 7F 08 80  .........n......
0070: 99 F0 FF FF 7F 1C 09 80  00                       .........       
```

## Opcodes

```
  0: 0x0046 [0x4B] UPDATE_ENTITY_YAW(entity=LocalPlayer, yaw=4.5°*)
  1: 0x004D [0x1C] WAIT(30* ticks)
  2: 0x0050 [0x6E] LocalPlayer uses emote 8*
  3: 0x0057 [0x99] Wait for LocalPlayer animation to complete
  4: 0x005C [0x1C] WAIT(180* ticks)
  5: 0x005F [0x4B] UPDATE_ENTITY_YAW(entity=LocalPlayer, yaw=5.7°*)
  6: 0x0066 [0x1C] WAIT(30* ticks)
  7: 0x0069 [0x6E] LocalPlayer uses emote 8*
  8: 0x0070 [0x99] Wait for LocalPlayer animation to complete
  9: 0x0075 [0x1C] WAIT(180* ticks)
 10: 0x0078 [0x00] END_REQSTACK()
```
