# Event 47

## Metadata

| Field           | Value    |
|-----------------|----------|
| Event Index     | 10/14    |
| Offset          | 0x008D   |
| Data Size       | 29 bytes |
| Calculated Size | 29 bytes |
| Instructions    | 10       |

```
      00 01 02 03 04 05 06 07  08 09 0A 0B 0C 0D 0E 0F
      -- -- -- -- -- -- -- --  -- -- -- -- -- -- -- --
0080:                                         1E F0 FF               ...
0090: FF 7F 6F 70 29 08 2B 00  0F 01 01 1D 04 80 23 29  ..op).+.......#)
00A0: 08 2B 00 0F 01 07 20 00  21 00                    .+.... .!.      
```

## Opcodes

```
  0: 0x008D [0x1E] EventEntity looks at LocalPlayer and starts talking
  1: 0x0092 [0x6F] WAIT_FRAME_DELAY: Yield until WaitTime reaches zero
  2: 0x0093 [0x70] WAIT_ENTITY_RENDER_FLAG: Wait while EventEntity->Render.Flags3 bit 2 is set (cancel turn if not)
  3: 0x0094 [0x29] REQ_SET_WAIT(priority=0x08, entity_id=Ada (ID: 17760299/0x010F002B), tag_num=0x01)
  4: 0x009B [0x1D] PRINT_EVENT_MESSAGE(message_id=3224*)
    → "Oh, you have some business with Consul Melek? Then please head into her office through that door there.\u007F1\u0000\u0007"
  5: 0x009E [0x23] WAIT_FOR_DIALOG_INTERACTION
  6: 0x009F [0x29] REQ_SET_WAIT(priority=0x08, entity_id=Ada (ID: 17760299/0x010F002B), tag_num=0x07)
  7: 0x00A6 [0x20] SET_CLI_EVENT_UC_FLAG: Unlock player control
  8: 0x00A8 [0x21] END_EVENT
  9: 0x00A9 [0x00] END_REQSTACK()
```
