# Event 65535

## Metadata

| Field           | Value    |
|-----------------|----------|
| Event Index     | 17/18    |
| Offset          | 0x00C6   |
| Data Size       | 51 bytes |
| Calculated Size | 51 bytes |
| Instructions    | 10       |

```
      00 01 02 03 04 05 06 07  08 09 0A 0B 0C 0D 0E 0F
      -- -- -- -- -- -- -- --  -- -- -- -- -- -- -- --
00C0:                   37 1B  80 1C 80 1A 80 1D 80 1C        7.........
00D0: 01 80 1F 00 1B 80 1E 80  1F 80 1F 01 6F 1C 12 80  ............o...
00E0: 81 00 4C 81 0B 01 5B 13  80 4C 81 0B 01 4C 81 0B  ..L...[..L...L..
00F0: 01 63 6F 6E 30 1C 14 80  00                       .con0....       
```

## Opcodes

```
  0: 0x00C6 [0x37] UPDATE_EVENT_POSITION_AND_DIR: x=0.020*, z=-75.461*, y=-33.700*, direction=269.3°*
  1: 0x00CF [0x1C] WAIT(1* ticks)
  2: 0x00D2 [0x1F] MOVE_ENTITY: EventEntity moves to X=0.020*, Z=-62.922*, Y=-33.801*
  3: 0x00DA [0x1F] MOVE_ENTITY: Update entity position (mode=1)
  4: 0x00DC [0x6F] WAIT_FRAME_DELAY: Yield until WaitTime reaches zero
  5: 0x00DD [0x1C] WAIT(15* ticks)
  6: 0x00E0 [0x81] SET_ENTITY_BLINKING(blink_flag=0x00, entity=Nag'molada (ID: 17531212/0x010B814C))
  7: 0x00E6 [0x5B] LOAD_EXT_SCHEDULER: Load scheduler "con0" with entities [Nag'molada (ID: 17531212/0x010B814C), Nag'molada (ID: 17531212/0x010B814C)], work=466*
  8: 0x00F5 [0x1C] WAIT(30* ticks)
  9: 0x00F8 [0x00] END_REQSTACK()
```
