# Event 65535

## Metadata

| Field           | Value    |
|-----------------|----------|
| Event Index     | 9/10     |
| Offset          | 0x0024   |
| Data Size       | 67 bytes |
| Calculated Size | 67 bytes |
| Instructions    | 7        |

```
      00 01 02 03 04 05 06 07  08 09 0A 0B 0C 0D 0E 0F
      -- -- -- -- -- -- -- --  -- -- -- -- -- -- -- --
0020:             48 07 80 66  08 80 89 62 03 01 89 62      H..f...b...b
0030: 03 01 64 61 69 30 9F 09  80 89 62 03 01 89 62 03  ..dai0....b...b.
0040: 01 6D 61 69 6E 06 80 53  89 62 03 01 89 62 03 01  .main..S.b...b..
0050: 64 61 69 30 48 0A 80 66  08 80 89 62 03 01 89 62  dai0H..f...b...b
0060: 03 01 64 61 69 31 00                              ..dai1.         
```

## Opcodes

```
  0: 0x0024 [0x48] [System] [8420*]:
    → "\u001FPYadhiwa readies Dice Roll.\u0000\u0007"
  1: 0x0027 [0x66] LOAD_EXT_SCHEDULER_MAIN(work_offset=31*, entity1=Yadhiwa (ID: 16999049/0x01036289), entity2=Yadhiwa (ID: 16999049/0x01036289), action="dai0")
  2: 0x0036 [0x9F] LOAD_SCHEDULED_TASK_ALT: Load scheduler "main" with entities [Yadhiwa (ID: 16999049/0x01036289), Yadhiwa (ID: 16999049/0x01036289)], work=[228*, 0*]
  3: 0x0047 [0x53] WAIT_SCHEDULER_TASK(entity1=Yadhiwa (ID: 16999049/0x01036289), entity2=Yadhiwa (ID: 16999049/0x01036289), action_id="dai0")
  4: 0x0054 [0x48] [System] [8421*]:
    → "\u001FyYadhiwa rolls a 777!\u0000\u0007"
  5: 0x0057 [0x66] LOAD_EXT_SCHEDULER_MAIN(work_offset=31*, entity1=Yadhiwa (ID: 16999049/0x01036289), entity2=Yadhiwa (ID: 16999049/0x01036289), action="dai1")
  6: 0x0066 [0x00] END_REQSTACK()
```
