# Event 537

## Metadata

| Field           | Value     |
|-----------------|-----------|
| Event Index     | 2/2       |
| Offset          | 0x0001    |
| Data Size       | 734 bytes |
| Calculated Size | 734 bytes |
| Instructions    | 14        |

```
      00 01 02 03 04 05 06 07  08 09 0A 0B 0C 0D 0E 0F
      -- -- -- -- -- -- -- --  -- -- -- -- -- -- -- --
0000:    1E F0 FF FF 7F 6F 70  5B 00 80 F8 FF FF 7F F8   .....op[.......
0010: FF FF 7F 74 6C 6B 30 1D  01 80 23 5B 00 80 F8 FF  ...tlk0...#[....
0020: FF 7F F8 FF FF 7F 74 6C  6B 31 5B 00 80 F8 FF FF  ......tlk1[.....
0030: 7F F8 FF FF 7F 74 68 6B  31 1D 02 80 23 5B 00 80  .....thk1...#[..
0040: F8 FF FF 7F F8 FF FF 7F  74 68 6B 32 21 00 45 03  ........thk2!.E.
0050: 80 F0 FF FF 7F F0 FF FF  7F 66 64 69 30 04 80 55  .........fdi0..U
0060: 03 80 F0 FF FF 7F F0 FF  FF 7F 66 64 69 30 1B 45  ..........fdi0.E
0070: 03 80 F0 FF FF 7F F0 FF  FF 7F 66 64 6F 30 04 80  ..........fdo0..
0080: 55 03 80 F0 FF FF 7F F0  FF FF 7F 66 64 6F 30 1B  U..........fdo0.
0090: 45 03 80 F0 FF FF 7F F0  FF FF 7F 66 64 69 31 04  E..........fdi1.
00A0: 80 55 03 80 F0 FF FF 7F  F0 FF FF 7F 66 64 69 31  .U..........fdi1
00B0: 1B 45 03 80 F0 FF FF 7F  F0 FF FF 7F 66 64 6F 31  .E..........fdo1
00C0: 04 80 55 03 80 F0 FF FF  7F F0 FF FF 7F 66 64 6F  ..U..........fdo
00D0: 31 1B 45 05 80 F0 FF FF  7F F0 FF FF 7F 77 68 69  1.E..........whi
00E0: 31 04 80 55 05 80 F0 FF  FF 7F F0 FF FF 7F 77 68  1..U..........wh
00F0: 69 31 1B 45 05 80 F0 FF  FF 7F F0 FF FF 7F 77 68  i1.E..........wh
0100: 6F 31 04 80 55 05 80 F0  FF FF 7F F0 FF FF 7F 77  o1..U..........w
0110: 68 6F 31 1B 45 05 80 F0  FF FF 7F F0 FF FF 7F 77  ho1.E..........w
0120: 68 6F 32 04 80 55 05 80  F0 FF FF 7F F0 FF FF 7F  ho2..U..........
0130: 77 68 6F 32 1B 45 05 80  F0 FF FF 7F F0 FF FF 7F  who2.E..........
0140: 77 68 6F 33 04 80 55 05  80 F0 FF FF 7F F0 FF FF  who3..U.........
0150: 7F 77 68 6F 33 1B 62 06  80 F0 FF FF 7F F0 FF FF  .who3.b.........
0160: 7F 6D 61 69 6E 04 80 1C  07 80 45 03 80 F0 FF FF  .main.....E.....
0170: 7F F0 FF FF 7F 66 64 6F  31 04 80 55 03 80 F0 FF  .....fdo1..U....
0180: FF 7F F0 FF FF 7F 66 64  6F 31 1B 45 03 80 F0 FF  ......fdo1.E....
0190: FF 7F F0 FF FF 7F 66 64  69 31 04 80 62 08 80 F0  ......fdi1..b...
01A0: FF FF 7F F0 FF FF 7F 6D  61 69 6E 04 80 1C 09 80  .......main.....
01B0: 55 03 80 F0 FF FF 7F F0  FF FF 7F 66 64 69 31 1B  U..........fdi1.
01C0: 45 03 80 F0 FF FF 7F F0  FF FF 7F 62 6C 6F 6E 04  E..........blon.
01D0: 80 45 05 80 F0 FF FF 7F  F0 FF FF 7F 62 6C 6F 6E  .E..........blon
01E0: 04 80 1B 45 05 80 F0 FF  FF 7F F0 FF FF 7F 77 68  ...E..........wh
01F0: 69 30 04 80 55 05 80 F0  FF FF 7F F0 FF FF 7F 77  i0..U..........w
0200: 68 69 30 1B 45 05 80 F0  FF FF 7F F0 FF FF 7F 77  hi0.E..........w
0210: 68 6F 30 04 80 55 05 80  F0 FF FF 7F F0 FF FF 7F  ho0..U..........
0220: 77 68 6F 30 1B 45 0A 80  F0 FF FF 7F F0 FF FF 7F  who0.E..........
0230: 65 66 6F 6E 04 80 55 0A  80 F0 FF FF 7F F0 FF FF  efon..U.........
0240: 7F 65 66 6F 6E 1B 45 03  80 F0 FF FF 7F F0 FF FF  .efon.E.........
0250: 7F 66 64 69 73 04 80 1B  45 03 80 F0 FF FF 7F F0  .fdis...E.......
0260: FF FF 7F 66 64 6F 73 04  80 55 03 80 F0 FF FF 7F  ...fdos..U......
0270: F0 FF FF 7F 66 64 6F 73  1B 45 03 80 F0 FF FF 7F  ....fdos.E......
0280: F0 FF FF 7F 66 64 69 66  04 80 1B 45 03 80 F0 FF  ....fdif...E....
0290: FF 7F F0 FF FF 7F 66 64  6F 66 04 80 55 03 80 F0  ......fdof..U...
02A0: FF FF 7F F0 FF FF 7F 66  64 6F 66 1B 45 03 80 F0  .......fdof.E...
02B0: FF FF 7F F0 FF FF 7F 66  64 69 70 04 80 1B 45 03  .......fdip...E.
02C0: 80 F0 FF FF 7F F0 FF FF  7F 66 64 6F 70 04 80 55  .........fdop..U
02D0: 03 80 F0 FF FF 7F F0 FF  FF 7F 66 64 6F 70 1B     ..........fdop. 
```

## Opcodes

```
  0: 0x0001 [0x1E] EventEntity looks at LocalPlayer and starts talking
  1: 0x0006 [0x6F] WAIT_FRAME_DELAY: Yield until WaitTime reaches zero
  2: 0x0007 [0x70] WAIT_ENTITY_RENDER_FLAG: Wait while EventEntity->Render.Flags3 bit 2 is set (cancel turn if not)
  3: 0x0008 [0x5B] LOAD_EXT_SCHEDULER(work_offset=75*, entity1=EventEntity, entity2=EventEntity, action="tlk0")
  4: 0x0017 [0x1D] PRINT_EVENT_MESSAGE(message_id=10501*)
    → "Listenlistenlisten!\u0007I saw a black beastie hopping from roof to roof!\u007F1\u0000\u0007"
  5: 0x001A [0x23] WAIT_FOR_DIALOG_INTERACTION
  6: 0x001B [0x5B] LOAD_EXT_SCHEDULER(work_offset=75*, entity1=EventEntity, entity2=EventEntity, action="tlk1")
  7: 0x002A [0x5B] LOAD_EXT_SCHEDULER(work_offset=75*, entity1=EventEntity, entity2=EventEntity, action="thk1")
  8: 0x0039 [0x1D] PRINT_EVENT_MESSAGE(message_id=10502*)
    → "I wanna catch it and talk to it!\u0007Do you think monsters can talk? What would they say if they could? Do you think they even like Humes?\u007F1\u0000\u0007"
  9: 0x003C [0x23] WAIT_FOR_DIALOG_INTERACTION
 10: 0x003D [0x5B] LOAD_EXT_SCHEDULER(work_offset=75*, entity1=EventEntity, entity2=EventEntity, action="thk2")
 11: 0x004C [0x21] END_EVENT
 12: 0x004D [0x00] END_REQSTACK()
```

## Data or dead code:

```
# Data Section: 0x004E (657 bytes)
     0x004E: 45 03 80 F0 FF FF 7F F0 FF FF 7F 66 64 69 30 04
     0x005E: 80 55 03 80 F0 FF FF 7F F0 FF FF 7F 66 64 69 30
     0x006E: 1B 45 03 80 F0 FF FF 7F F0 FF FF 7F 66 64 6F 30
     0x007E: 04 80 55 03 80 F0 FF FF 7F F0 FF FF 7F 66 64 6F
     0x008E: 30 1B 45 03 80 F0 FF FF 7F F0 FF FF 7F 66 64 69
     0x009E: 31 04 80 55 03 80 F0 FF FF 7F F0 FF FF 7F 66 64
     0x00AE: 69 31 1B 45 03 80 F0 FF FF 7F F0 FF FF 7F 66 64
     0x00BE: 6F 31 04 80 55 03 80 F0 FF FF 7F F0 FF FF 7F 66
     0x00CE: 64 6F 31 1B 45 05 80 F0 FF FF 7F F0 FF FF 7F 77
     0x00DE: 68 69 31 04 80 55 05 80 F0 FF FF 7F F0 FF FF 7F
     0x00EE: 77 68 69 31 1B 45 05 80 F0 FF FF 7F F0 FF FF 7F
     0x00FE: 77 68 6F 31 04 80 55 05 80 F0 FF FF 7F F0 FF FF
     0x010E: 7F 77 68 6F 31 1B 45 05 80 F0 FF FF 7F F0 FF FF
     0x011E: 7F 77 68 6F 32 04 80 55 05 80 F0 FF FF 7F F0 FF
     0x012E: FF 7F 77 68 6F 32 1B 45 05 80 F0 FF FF 7F F0 FF
     0x013E: FF 7F 77 68 6F 33 04 80 55 05 80 F0 FF FF 7F F0
     0x014E: FF FF 7F 77 68 6F 33 1B 62 06 80 F0 FF FF 7F F0
     0x015E: FF FF 7F 6D 61 69 6E 04 80 1C 07 80 45 03 80 F0
     0x016E: FF FF 7F F0 FF FF 7F 66 64 6F 31 04 80 55 03 80
     0x017E: F0 FF FF 7F F0 FF FF 7F 66 64 6F 31 1B 45 03 80
     0x018E: F0 FF FF 7F F0 FF FF 7F 66 64 69 31 04 80 62 08
     0x019E: 80 F0 FF FF 7F F0 FF FF 7F 6D 61 69 6E 04 80 1C
     0x01AE: 09 80 55 03 80 F0 FF FF 7F F0 FF FF 7F 66 64 69
     0x01BE: 31 1B 45 03 80 F0 FF FF 7F F0 FF FF 7F 62 6C 6F
     0x01CE: 6E 04 80 45 05 80 F0 FF FF 7F F0 FF FF 7F 62 6C
     0x01DE: 6F 6E 04 80 1B 45 05 80 F0 FF FF 7F F0 FF FF 7F
     0x01EE: 77 68 69 30 04 80 55 05 80 F0 FF FF 7F F0 FF FF
     0x01FE: 7F 77 68 69 30 1B 45 05 80 F0 FF FF 7F F0 FF FF
     0x020E: 7F 77 68 6F 30 04 80 55 05 80 F0 FF FF 7F F0 FF
     0x021E: FF 7F 77 68 6F 30 1B 45 0A 80 F0 FF FF 7F F0 FF
     0x022E: FF 7F 65 66 6F 6E 04 80 55 0A 80 F0 FF FF 7F F0
     0x023E: FF FF 7F 65 66 6F 6E 1B 45 03 80 F0 FF FF 7F F0
     0x024E: FF FF 7F 66 64 69 73 04 80 1B 45 03 80 F0 FF FF
     0x025E: 7F F0 FF FF 7F 66 64 6F 73 04 80 55 03 80 F0 FF
     0x026E: FF 7F F0 FF FF 7F 66 64 6F 73 1B 45 03 80 F0 FF
     0x027E: FF 7F F0 FF FF 7F 66 64 69 66 04 80 1B 45 03 80
     0x028E: F0 FF FF 7F F0 FF FF 7F 66 64 6F 66 04 80 55 03
     0x029E: 80 F0 FF FF 7F F0 FF FF 7F 66 64 6F 66 1B 45 03
     0x02AE: 80 F0 FF FF 7F F0 FF FF 7F 66 64 69 70 04 80 1B
     0x02BE: 45 03 80 F0 FF FF 7F F0 FF FF 7F 66 64 6F 70 04
     0x02CE: 80 55 03 80 F0 FF FF 7F F0 FF FF 7F 66 64 6F 70
     0x02DE: 1B
```