# Event 284

## Metadata

| Field           | Value    |
|-----------------|----------|
| Event Index     | 38/65    |
| Offset          | 0x068D   |
| Data Size       | 33 bytes |
| Calculated Size | 33 bytes |
| Instructions    | 12       |

```
      00 01 02 03 04 05 06 07  08 09 0A 0B 0C 0D 0E 0F
      -- -- -- -- -- -- -- --  -- -- -- -- -- -- -- --
0680:                                         1E F0 FF               ...
0690: FF 7F 6F 70 29 0B 88 C0  0E 01 01 1D 36 80 23 1D  ..op).......6.#.
06A0: 37 80 23 29 0B 88 C0 0E  01 02 20 00 21 00        7.#)...... .!.  
```

## Opcodes

```
  0: 0x068D [0x1E] EventEntity looks at LocalPlayer and starts talking
  1: 0x0692 [0x6F] WAIT_FRAME_DELAY: Yield until WaitTime reaches zero
  2: 0x0693 [0x70] WAIT_ENTITY_RENDER_FLAG: Wait while EventEntity->Render.Flags3 bit 2 is set (cancel turn if not)
  3: 0x0694 [0x29] REQ_SET_WAIT(priority=0x0B, entity_id=Juroro (ID: 17744008/0x010EC088), tag_num=0x01)
  4: 0x069B [0x1D] PRINT_EVENT_MESSAGE(message_id=8631*)
    → "What? You want another \u0001\u00053\u0002\u0001\u0000\u0000?\u007F1\u0000\u0007"
  5: 0x069E [0x23] WAIT_FOR_DIALOG_INTERACTION
  6: 0x069F [0x1D] PRINT_EVENT_MESSAGE(message_id=8632*)
    → "Oh, all right... But be careful-wareful with this one! These things don't grow on star trees, you know.\u007F1\u0000\u0007"
  7: 0x06A2 [0x23] WAIT_FOR_DIALOG_INTERACTION
  8: 0x06A3 [0x29] REQ_SET_WAIT(priority=0x0B, entity_id=Juroro (ID: 17744008/0x010EC088), tag_num=0x02)
  9: 0x06AA [0x20] SET_CLI_EVENT_UC_FLAG: Unlock player control
 10: 0x06AC [0x21] END_EVENT
 11: 0x06AD [0x00] END_REQSTACK()
```
