# Event 65535

## Metadata

| Field           | Value    |
|-----------------|----------|
| Event Index     | 28/47    |
| Offset          | 0x0158   |
| Data Size       | 59 bytes |
| Calculated Size | 59 bytes |
| Instructions    | 12       |

```
      00 01 02 03 04 05 06 07  08 09 0A 0B 0C 0D 0E 0F
      -- -- -- -- -- -- -- --  -- -- -- -- -- -- -- --
0150:                          59 04 F8 FF FF 7F 27 80          Y.....'.
0160: 1F 00 28 80 29 80 11 80  1F 01 1F 00 2A 80 2B 80  ..(.).......*.+.
0170: 11 80 1F 01 1F 00 2C 80  2D 80 11 80 1F 01 1F 00  ......,.-.......
0180: 2E 80 2F 80 11 80 1F 01  6F 4A F8 FF FF 7F 00 E3  ../.....oJ......
0190: 05 01 00                                          ...             
```

## Opcodes

```
  0: 0x0158 [0x59] UPDATE_ENTITY_DATA: Set EventEntity main speed = 11* * 0.1
  1: 0x0160 [0x1F] MOVE_ENTITY: EventEntity moves to X=305.946*, Z=39.219*, Y=-3.500*
  2: 0x0168 [0x1F] MOVE_ENTITY: Update entity position (mode=1)
  3: 0x016A [0x1F] MOVE_ENTITY: EventEntity moves to X=305.425*, Z=40.893*, Y=-3.500*
  4: 0x0172 [0x1F] MOVE_ENTITY: Update entity position (mode=1)
  5: 0x0174 [0x1F] MOVE_ENTITY: EventEntity moves to X=306.760*, Z=42.864*, Y=-3.500*
  6: 0x017C [0x1F] MOVE_ENTITY: Update entity position (mode=1)
  7: 0x017E [0x1F] MOVE_ENTITY: EventEntity moves to X=306.465*, Z=43.464*, Y=-3.500*
  8: 0x0186 [0x1F] MOVE_ENTITY: Update entity position (mode=1)
  9: 0x0188 [0x6F] WAIT_FRAME_DELAY: Yield until WaitTime reaches zero
 10: 0x0189 [0x4A] EventEntity looks at 03 (ID: 17163008/0x0105E300)
 11: 0x0192 [0x00] END_REQSTACK()
```
