# Event 65535

## Metadata

| Field           | Value    |
|-----------------|----------|
| Event Index     | 38/47    |
| Offset          | 0x031B   |
| Data Size       | 60 bytes |
| Calculated Size | 60 bytes |
| Instructions    | 13       |

```
      00 01 02 03 04 05 06 07  08 09 0A 0B 0C 0D 0E 0F
      -- -- -- -- -- -- -- --  -- -- -- -- -- -- -- --
0310:                                   59 04 F8 FF FF             Y....
0320: 7F 20 80 1F 00 58 80 59  80 5A 80 1F 01 1F 00 5B  . ...X.Y.Z.....[
0330: 80 5C 80 5A 80 1F 01 1F  00 5D 80 5E 80 5A 80 1F  .\.Z.....].^.Z..
0340: 01 1F 00 5F 80 60 80 5A  80 1F 01 1F 00 61 80 62  ..._.`.Z.....a.b
0350: 80 63 80 1F 01 6F 00                              .c...o.         
```

## Opcodes

```
  0: 0x031B [0x59] UPDATE_ENTITY_DATA: Set EventEntity main speed = 13* * 0.1
  1: 0x0323 [0x1F] MOVE_ENTITY: EventEntity moves to X=-34.913*, Z=97.041*, Y=-5.000*
  2: 0x032B [0x1F] MOVE_ENTITY: Update entity position (mode=1)
  3: 0x032D [0x1F] MOVE_ENTITY: EventEntity moves to X=-36.843*, Z=100.526*, Y=-5.000*
  4: 0x0335 [0x1F] MOVE_ENTITY: Update entity position (mode=1)
  5: 0x0337 [0x1F] MOVE_ENTITY: EventEntity moves to X=-38.413*, Z=104.758*, Y=-5.000*
  6: 0x033F [0x1F] MOVE_ENTITY: Update entity position (mode=1)
  7: 0x0341 [0x1F] MOVE_ENTITY: EventEntity moves to X=-39.062*, Z=107.483*, Y=-5.000*
  8: 0x0349 [0x1F] MOVE_ENTITY: Update entity position (mode=1)
  9: 0x034B [0x1F] MOVE_ENTITY: EventEntity moves to X=-40.133*, Z=167.579*, Y=-5.023*
 10: 0x0353 [0x1F] MOVE_ENTITY: Update entity position (mode=1)
 11: 0x0355 [0x6F] WAIT_FRAME_DELAY: Yield until WaitTime reaches zero
 12: 0x0356 [0x00] END_REQSTACK()
```
