# Event 65535

## Metadata

| Field           | Value    |
|-----------------|----------|
| Event Index     | 14/23    |
| Offset          | 0x0166   |
| Data Size       | 50 bytes |
| Calculated Size | 50 bytes |
| Instructions    | 12       |

```
      00 01 02 03 04 05 06 07  08 09 0A 0B 0C 0D 0E 0F
      -- -- -- -- -- -- -- --  -- -- -- -- -- -- -- --
0160:                   32 05  80 1F 00 2B 80 2C 80 2D        2....+.,.-
0170: 80 1F 01 1C 2E 80 1F 00  2F 80 30 80 31 80 1F 01  ......../.0.1...
0180: 1C 2E 80 1F 00 12 80 13  80 14 80 1F 01 4B 96 A0  .............K..
0190: 0E 01 32 80 1C 2E 80 00                           ..2.....        
```

## Opcodes

```
  0: 0x0166 [0x32] ExtData[1]->MainSpeed = 10* * 0.1
  1: 0x0169 [0x1F] MOVE_ENTITY: EventEntity moves to X=-600.221*, Z=588.558*, Y=0.369*
  2: 0x0171 [0x1F] MOVE_ENTITY: Update entity position (mode=1)
  3: 0x0173 [0x1C] WAIT(60* ticks)
  4: 0x0176 [0x1F] MOVE_ENTITY: EventEntity moves to X=-602.144*, Z=586.825*, Y=0.376*
  5: 0x017E [0x1F] MOVE_ENTITY: Update entity position (mode=1)
  6: 0x0180 [0x1C] WAIT(60* ticks)
  7: 0x0183 [0x1F] MOVE_ENTITY: EventEntity moves to X=-600.128*, Z=585.578*, Y=0.628*
  8: 0x018B [0x1F] MOVE_ENTITY: Update entity position (mode=1)
  9: 0x018D [0x4B] UPDATE_ENTITY_YAW(entity=Unnamed NPC (ID: 17735830/0x010EA096), yaw=11.79°*)
 10: 0x0194 [0x1C] WAIT(60* ticks)
 11: 0x0197 [0x00] END_REQSTACK()
```
