# Event 65535

## Metadata

| Field           | Value    |
|-----------------|----------|
| Event Index     | 15/23    |
| Offset          | 0x0198   |
| Data Size       | 50 bytes |
| Calculated Size | 50 bytes |
| Instructions    | 12       |

```
      00 01 02 03 04 05 06 07  08 09 0A 0B 0C 0D 0E 0F
      -- -- -- -- -- -- -- --  -- -- -- -- -- -- -- --
0190:                          32 11 80 1F 00 33 80 34          2....3.4
01A0: 80 35 80 1F 01 1C 2E 80  1F 00 2F 80 30 80 31 80  .5......../.0.1.
01B0: 1F 01 1C 2E 80 1F 00 12  80 13 80 14 80 1F 01 4B  ...............K
01C0: 96 A0 0E 01 32 80 1C 2E  80 00                    ....2.....      
```

## Opcodes

```
  0: 0x0198 [0x32] ExtData[1]->MainSpeed = 19* * 0.1
  1: 0x019B [0x1F] MOVE_ENTITY: EventEntity moves to X=-599.892*, Z=588.477*, Y=0.373*
  2: 0x01A3 [0x1F] MOVE_ENTITY: Update entity position (mode=1)
  3: 0x01A5 [0x1C] WAIT(60* ticks)
  4: 0x01A8 [0x1F] MOVE_ENTITY: EventEntity moves to X=-602.144*, Z=586.825*, Y=0.376*
  5: 0x01B0 [0x1F] MOVE_ENTITY: Update entity position (mode=1)
  6: 0x01B2 [0x1C] WAIT(60* ticks)
  7: 0x01B5 [0x1F] MOVE_ENTITY: EventEntity moves to X=-600.128*, Z=585.578*, Y=0.628*
  8: 0x01BD [0x1F] MOVE_ENTITY: Update entity position (mode=1)
  9: 0x01BF [0x4B] UPDATE_ENTITY_YAW(entity=Unnamed NPC (ID: 17735830/0x010EA096), yaw=11.8°*)
 10: 0x01C6 [0x1C] WAIT(60* ticks)
 11: 0x01C9 [0x00] END_REQSTACK()
```
