# Event 65535

## Metadata

| Field           | Value    |
|-----------------|----------|
| Event Index     | 20/23    |
| Offset          | 0x025C   |
| Data Size       | 51 bytes |
| Calculated Size | 51 bytes |
| Instructions    | 11       |

```
      00 01 02 03 04 05 06 07  08 09 0A 0B 0C 0D 0E 0F
      -- -- -- -- -- -- -- --  -- -- -- -- -- -- -- --
0250:                                      32 36 80 1F              26..
0260: 00 47 80 48 80 36 80 1F  01 1F 00 49 80 4A 80 4B  .G.H.6.....I.J.K
0270: 80 1F 01 1F 00 4C 80 4D  80 4E 80 1F 01 1E 91 A0  .....L.M.N......
0280: 0E 01 1C 22 80 4A 91 A0  0E 01 96 A0 0E 01 00     ...".J......... 
```

## Opcodes

```
  0: 0x025C [0x32] ExtData[1]->MainSpeed = 57* * 0.1
  1: 0x025F [0x1F] MOVE_ENTITY: EventEntity moves to X=-604.257*, Z=586.573*, Y=0.057*
  2: 0x0267 [0x1F] MOVE_ENTITY: Update entity position (mode=1)
  3: 0x0269 [0x1F] MOVE_ENTITY: EventEntity moves to X=-603.318*, Z=588.527*, Y=0.196*
  4: 0x0271 [0x1F] MOVE_ENTITY: Update entity position (mode=1)
  5: 0x0273 [0x1F] MOVE_ENTITY: EventEntity moves to X=-601.495*, Z=586.040*, Y=0.496*
  6: 0x027B [0x1F] MOVE_ENTITY: Update entity position (mode=1)
  7: 0x027D [0x1E] EventEntity looks at Unnamed NPC (ID: 17735825/0x010EA091) and starts talking
  8: 0x0282 [0x1C] WAIT(30* ticks)
  9: 0x0285 [0x4A] Unnamed NPC (ID: 17735825/0x010EA091) looks at Unnamed NPC (ID: 17735830/0x010EA096)
 10: 0x028E [0x00] END_REQSTACK()
```
