# Event 65535

## Metadata

| Field           | Value    |
|-----------------|----------|
| Event Index     | 24/32    |
| Offset          | 0x0169   |
| Data Size       | 49 bytes |
| Calculated Size | 49 bytes |
| Instructions    | 9        |

```
      00 01 02 03 04 05 06 07  08 09 0A 0B 0C 0D 0E 0F
      -- -- -- -- -- -- -- --  -- -- -- -- -- -- -- --
0160:                             1C 2A 80 4A 14 F0 0E           .*.J...
0170: 01 18 F0 0E 01 1C 2B 80  4A 14 F0 0E 01 18 F0 0E  ......+.J.......
0180: 01 1C 2B 80 4A 14 F0 0E  01 18 F0 0E 01 1C 2B 80  ..+.J.........+.
0190: 4A 14 F0 0E 01 18 F0 0E  01 00                    J.........      
```

## Opcodes

```
  0: 0x0169 [0x1C] WAIT(10* ticks)
  1: 0x016C [0x4A] Gomada-Vulmada (ID: 17756180/0x010EF014) looks at Nanaa Mihgo (ID: 17756184/0x010EF018)
  2: 0x0175 [0x1C] WAIT(100* ticks)
  3: 0x0178 [0x4A] Gomada-Vulmada (ID: 17756180/0x010EF014) looks at Nanaa Mihgo (ID: 17756184/0x010EF018)
  4: 0x0181 [0x1C] WAIT(100* ticks)
  5: 0x0184 [0x4A] Gomada-Vulmada (ID: 17756180/0x010EF014) looks at Nanaa Mihgo (ID: 17756184/0x010EF018)
  6: 0x018D [0x1C] WAIT(100* ticks)
  7: 0x0190 [0x4A] Gomada-Vulmada (ID: 17756180/0x010EF014) looks at Nanaa Mihgo (ID: 17756184/0x010EF018)
  8: 0x0199 [0x00] END_REQSTACK()
```
