# Event 205

## Metadata

| Field           | Value    |
|-----------------|----------|
| Event Index     | 17/22    |
| Offset          | 0x0137   |
| Data Size       | 33 bytes |
| Calculated Size | 33 bytes |
| Instructions    | 12       |

```
      00 01 02 03 04 05 06 07  08 09 0A 0B 0C 0D 0E 0F
      -- -- -- -- -- -- -- --  -- -- -- -- -- -- -- --
0130:                      1E  F0 FF FF 7F 6F 70 29 08         .....op).
0140: 27 20 0F 01 01 1D 0C 80  23 1D 0D 80 23 29 08 27  ' ......#...#).'
0150: 20 0F 01 02 20 00 21 00                            ... .!.        
```

## Opcodes

```
  0: 0x0137 [0x1E] EventEntity looks at LocalPlayer and starts talking
  1: 0x013C [0x6F] WAIT_FRAME_DELAY: Yield until WaitTime reaches zero
  2: 0x013D [0x70] WAIT_ENTITY_RENDER_FLAG: Wait while EventEntity->Render.Flags3 bit 2 is set (cancel turn if not)
  3: 0x013E [0x29] REQ_SET_WAIT(priority=0x08, entity_id=Aeshushu (ID: 17768487/0x010F2027), tag_num=0x01)
  4: 0x0145 [0x1D] PRINT_EVENT_MESSAGE(message_id=456*)
    → "Hey, hey, hey! Did you already-wetty go see the Star Sibyl?\u007F1\u0000\u0007"
  5: 0x0148 [0x23] WAIT_FOR_DIALOG_INTERACTION
  6: 0x0149 [0x1D] PRINT_EVENT_MESSAGE(message_id=457*)
    → "We ladies-in-waiting have a bet going that you will be called up as a member-wember of the group that goes after the Shadow Lord.\u007F1\u0000\u0007"
  7: 0x014C [0x23] WAIT_FOR_DIALOG_INTERACTION
  8: 0x014D [0x29] REQ_SET_WAIT(priority=0x08, entity_id=Aeshushu (ID: 17768487/0x010F2027), tag_num=0x02)
  9: 0x0154 [0x20] SET_CLI_EVENT_UC_FLAG: Unlock player control
 10: 0x0156 [0x21] END_EVENT
 11: 0x0157 [0x00] END_REQSTACK()
```
