# Event 328

## Metadata

| Field           | Value    |
|-----------------|----------|
| Event Index     | 5/7      |
| Offset          | 0x0021   |
| Data Size       | 33 bytes |
| Calculated Size | 33 bytes |
| Instructions    | 12       |

```
      00 01 02 03 04 05 06 07  08 09 0A 0B 0C 0D 0E 0F
      -- -- -- -- -- -- -- --  -- -- -- -- -- -- -- --
0020:    1E F0 FF FF 7F 6F 70  29 0B 5C F0 0E 01 01 1D   .....op).\.....
0030: 02 80 23 1D 03 80 23 29  0B 5C F0 0E 01 02 20 00  ..#...#).\.... .
0040: 21 00                                             !.              
```

## Opcodes

```
  0: 0x0021 [0x1E] EventEntity looks at LocalPlayer and starts talking
  1: 0x0026 [0x6F] WAIT_FRAME_DELAY: Yield until WaitTime reaches zero
  2: 0x0027 [0x70] WAIT_ENTITY_RENDER_FLAG: Wait while EventEntity->Render.Flags3 bit 2 is set (cancel turn if not)
  3: 0x0028 [0x29] REQ_SET_WAIT(priority=0x0B, entity_id=Lala Gohma (ID: 17756252/0x010EF05C), tag_num=0x01)
  4: 0x002F [0x1D] PRINT_EVENT_MESSAGE(message_id=7950*)
    → "Not only the Star Sibyl lives in Heavens Towerrr. Her ladies-in-waiting and the Mithra Sibyl Guards also serrrve her there.\u007F1\u0000\u0007"
  5: 0x0032 [0x23] WAIT_FOR_DIALOG_INTERACTION
  6: 0x0033 [0x1D] PRINT_EVENT_MESSAGE(message_id=7951*)
    → "Out of all the guards protecting the Star Sibyl, Semih Lafihna is the most powerrrful. And why shouldn't she be? She is the only Mithra worrrthy enough to accept our chieftainness's bow.\u007F1\u0000\u0007"
  7: 0x0036 [0x23] WAIT_FOR_DIALOG_INTERACTION
  8: 0x0037 [0x29] REQ_SET_WAIT(priority=0x0B, entity_id=Lala Gohma (ID: 17756252/0x010EF05C), tag_num=0x02)
  9: 0x003E [0x20] SET_CLI_EVENT_UC_FLAG: Unlock player control
 10: 0x0040 [0x21] END_EVENT
 11: 0x0041 [0x00] END_REQSTACK()
```
