# Event 10249

## Metadata

| Field           | Value    |
|-----------------|----------|
| Event Index     | 49/72    |
| Offset          | 0x06C4   |
| Data Size       | 34 bytes |
| Calculated Size | 34 bytes |
| Instructions    | 11       |

```
      00 01 02 03 04 05 06 07  08 09 0A 0B 0C 0D 0E 0F
      -- -- -- -- -- -- -- --  -- -- -- -- -- -- -- --
06C0:             42 1E F0 FF  FF 7F 6F 70 1D 42 80 23      B.....op.B.#
06D0: 66 00 80 F8 FF FF 7F F8  FF FF 7F 70 61 73 30 1C  f..........pas0.
06E0: 25 80 20 00 21 00                                 %. .!.          
```

## Opcodes

```
  0: 0x06C4 [0x42] SET_CLI_EVENT_CANCEL_DATA()
  1: 0x06C5 [0x1E] EventEntity looks at LocalPlayer and starts talking
  2: 0x06CA [0x6F] WAIT_FRAME_DELAY: Yield until WaitTime reaches zero
  3: 0x06CB [0x70] WAIT_ENTITY_RENDER_FLAG: Wait while EventEntity->Render.Flags3 bit 2 is set (cancel turn if not)
  4: 0x06CC [0x1D] PRINT_EVENT_MESSAGE(message_id=15563*)
    → "I heard from my colleague that he obtained a rather unusual cipher. Perhaps you should see this through to its conclusion?\u007F1\u0000\u0007"
  5: 0x06CF [0x23] WAIT_FOR_DIALOG_INTERACTION
  6: 0x06D0 [0x66] LOAD_EXT_SCHEDULER_MAIN: Load scheduler "pas0" with entities [EventEntity, EventEntity], work=0*
  7: 0x06DF [0x1C] WAIT(90* ticks)
  8: 0x06E2 [0x20] SET_CLI_EVENT_UC_FLAG: Unlock player control
  9: 0x06E4 [0x21] END_EVENT
 10: 0x06E5 [0x00] END_REQSTACK()
```
