# Event 10247

## Metadata

| Field           | Value    |
|-----------------|----------|
| Event Index     | 47/72    |
| Offset          | 0x0682   |
| Data Size       | 33 bytes |
| Calculated Size | 33 bytes |
| Instructions    | 10       |

```
      00 01 02 03 04 05 06 07  08 09 0A 0B 0C 0D 0E 0F
      -- -- -- -- -- -- -- --  -- -- -- -- -- -- -- --
0680:       1E F0 FF FF 7F 6F  70 66 00 80 F8 FF FF 7F    .....opf......
0690: F8 FF FF 7F 74 6C 6B 31  1D 41 80 23 1C 09 80 20  ....tlk1.A.#... 
06A0: 00 21 00                                          .!.             
```

## Opcodes

```
  0: 0x0682 [0x1E] EventEntity looks at LocalPlayer and starts talking
  1: 0x0687 [0x6F] WAIT_FRAME_DELAY: Yield until WaitTime reaches zero
  2: 0x0688 [0x70] WAIT_ENTITY_RENDER_FLAG: Wait while EventEntity->Render.Flags3 bit 2 is set (cancel turn if not)
  3: 0x0689 [0x66] LOAD_EXT_SCHEDULER_MAIN: Load scheduler "tlk1" with entities [EventEntity, EventEntity], work=0*
  4: 0x0698 [0x1D] PRINT_EVENT_MESSAGE(message_id=15562*)
    → "You learn more about Trust magic, and I get further along in my research. That's what I call a \u00072win-win.\u00073\u007F1\u0000\u0007"
  5: 0x069B [0x23] WAIT_FOR_DIALOG_INTERACTION
  6: 0x069C [0x1C] WAIT(60* ticks)
  7: 0x069F [0x20] SET_CLI_EVENT_UC_FLAG: Unlock player control
  8: 0x06A1 [0x21] END_EVENT
  9: 0x06A2 [0x00] END_REQSTACK()
```
