# Event 10251

## Metadata

| Field           | Value    |
|-----------------|----------|
| Event Index     | 51/72    |
| Offset          | 0x0723   |
| Data Size       | 56 bytes |
| Calculated Size | 56 bytes |
| Instructions    | 15       |

```
      00 01 02 03 04 05 06 07  08 09 0A 0B 0C 0D 0E 0F
      -- -- -- -- -- -- -- --  -- -- -- -- -- -- -- --
0720:          42 1E F0 FF FF  7F 6F 70 1D 46 80 23 66     B.....op.F.#f
0730: 00 80 F8 FF FF 7F F8 FF  FF 7F 70 61 73 30 1C 25  ..........pas0.%
0740: 80 66 00 80 F8 FF FF 7F  F8 FF FF 7F 74 6C 6B 31  .f..........tlk1
0750: 1D 47 80 23 1C 09 80 20  00 21 00                 .G.#... .!.     
```

## Opcodes

```
  0: 0x0723 [0x42] SET_CLI_EVENT_CANCEL_DATA()
  1: 0x0724 [0x1E] EventEntity looks at LocalPlayer and starts talking
  2: 0x0729 [0x6F] WAIT_FRAME_DELAY: Yield until WaitTime reaches zero
  3: 0x072A [0x70] WAIT_ENTITY_RENDER_FLAG: Wait while EventEntity->Render.Flags3 bit 2 is set (cancel turn if not)
  4: 0x072B [0x1D] PRINT_EVENT_MESSAGE(message_id=15568*)
    → "Hello again. I've finished making the necessary preparations. This is the data I'm searching for this time.\u007F1\u0000\u0007"
  5: 0x072E [0x23] WAIT_FOR_DIALOG_INTERACTION
  6: 0x072F [0x66] LOAD_EXT_SCHEDULER_MAIN: Load scheduler "pas0" with entities [EventEntity, EventEntity], work=0*
  7: 0x073E [0x1C] WAIT(90* ticks)
  8: 0x0741 [0x66] LOAD_EXT_SCHEDULER_MAIN: Load scheduler "tlk1" with entities [EventEntity, EventEntity], work=0*
  9: 0x0750 [0x1D] PRINT_EVENT_MESSAGE(message_id=15569*)
    → "Thanks again for your help.\u007F1\u0000\u0007"
 10: 0x0753 [0x23] WAIT_FOR_DIALOG_INTERACTION
 11: 0x0754 [0x1C] WAIT(60* ticks)
 12: 0x0757 [0x20] SET_CLI_EVENT_UC_FLAG: Unlock player control
 13: 0x0759 [0x21] END_EVENT
 14: 0x075A [0x00] END_REQSTACK()
```
