# Event 10261

## Metadata

| Field           | Value    |
|-----------------|----------|
| Event Index     | 61/72    |
| Offset          | 0x08D5   |
| Data Size       | 56 bytes |
| Calculated Size | 56 bytes |
| Instructions    | 15       |

```
      00 01 02 03 04 05 06 07  08 09 0A 0B 0C 0D 0E 0F
      -- -- -- -- -- -- -- --  -- -- -- -- -- -- -- --
08D0:                42 1E F0  FF FF 7F 6F 70 1D 46 80       B.....op.F.
08E0: 23 66 00 80 F8 FF FF 7F  F8 FF FF 7F 70 61 73 30  #f..........pas0
08F0: 1C 25 80 66 00 80 F8 FF  FF 7F F8 FF FF 7F 74 6C  .%.f..........tl
0900: 6B 31 1D 47 80 23 1C 09  80 20 00 21 00           k1.G.#... .!.   
```

## Opcodes

```
  0: 0x08D5 [0x42] SET_CLI_EVENT_CANCEL_DATA()
  1: 0x08D6 [0x1E] EventEntity looks at LocalPlayer and starts talking
  2: 0x08DB [0x6F] WAIT_FRAME_DELAY: Yield until WaitTime reaches zero
  3: 0x08DC [0x70] WAIT_ENTITY_RENDER_FLAG: Wait while EventEntity->Render.Flags3 bit 2 is set (cancel turn if not)
  4: 0x08DD [0x1D] PRINT_EVENT_MESSAGE(message_id=15568*)
    → "Hello again. I've finished making the necessary preparations. This is the data I'm searching for this time.\u007F1\u0000\u0007"
  5: 0x08E0 [0x23] WAIT_FOR_DIALOG_INTERACTION
  6: 0x08E1 [0x66] LOAD_EXT_SCHEDULER_MAIN(work_offset=0*, entity1=EventEntity, entity2=EventEntity, action="pas0")
  7: 0x08F0 [0x1C] WAIT(90* ticks)
  8: 0x08F3 [0x66] LOAD_EXT_SCHEDULER_MAIN(work_offset=0*, entity1=EventEntity, entity2=EventEntity, action="tlk1")
  9: 0x0902 [0x1D] PRINT_EVENT_MESSAGE(message_id=15569*)
    → "Thanks again for your help.\u007F1\u0000\u0007"
 10: 0x0905 [0x23] WAIT_FOR_DIALOG_INTERACTION
 11: 0x0906 [0x1C] WAIT(60* ticks)
 12: 0x0909 [0x20] SET_CLI_EVENT_UC_FLAG: Unlock player control
 13: 0x090B [0x21] END_EVENT
 14: 0x090C [0x00] END_REQSTACK()
```
