# Event 100

## Metadata

| Field           | Value    |
|-----------------|----------|
| Event Index     | 7/23     |
| Offset          | 0x0099   |
| Data Size       | 55 bytes |
| Calculated Size | 55 bytes |
| Instructions    | 11       |

```
      00 01 02 03 04 05 06 07  08 09 0A 0B 0C 0D 0E 0F
      -- -- -- -- -- -- -- --  -- -- -- -- -- -- -- --
0090:                             20 01 42 43 00 43 01            .BC.C.
00A0: 45 00 80 F0 FF FF 7F F0  FF FF 7F 66 64 6F 31 01  E..........fdo1.
00B0: 80 1C 02 80 29 01 FC B1  04 01 01 45 00 80 F0 FF  ....)......E....
00C0: FF 7F F0 FF FF 7F 66 64  69 31 01 80 20 00 21 00  ......fdi1.. .!.
```

## Opcodes

```
  0: 0x0099 [0x20] SET_CLI_EVENT_UC_FLAG: Lock player control
  1: 0x009B [0x42] SET_CLI_EVENT_CANCEL_DATA()
  2: 0x009C [0x43] SEND_EVENT_UPDATE: Send pending tag to server (packet 0x005B)
  3: 0x009E [0x43] SEND_EVENT_UPDATE: Check pending flag (skip if not pending)
  4: 0x00A0 [0x45] LOAD_SCHEDULED_TASK: Load scheduler "fdo1" with entities [LocalPlayer, LocalPlayer], work=[200*, 0*]
  5: 0x00B1 [0x1C] WAIT(60* ticks)
  6: 0x00B4 [0x29] REQ_SET_WAIT(priority=0x01, entity_id=Weather (ID: 17084924/0x0104B1FC), tag_num=0x01)
  7: 0x00BB [0x45] LOAD_SCHEDULED_TASK: Load scheduler "fdi1" with entities [LocalPlayer, LocalPlayer], work=[200*, 0*]
  8: 0x00CC [0x20] SET_CLI_EVENT_UC_FLAG: Unlock player control
  9: 0x00CE [0x21] END_EVENT
 10: 0x00CF [0x00] END_REQSTACK()
```
