# Event 5

## Metadata

| Field           | Value    |
|-----------------|----------|
| Event Index     | 10/23    |
| Offset          | 0x0173   |
| Data Size       | 84 bytes |
| Calculated Size | 84 bytes |
| Instructions    | 12       |

```
      00 01 02 03 04 05 06 07  08 09 0A 0B 0C 0D 0E 0F
      -- -- -- -- -- -- -- --  -- -- -- -- -- -- -- --
0170:          42 9F 05 80 F8  FF FF 7F F8 FF FF 7F 6D     B...........m
0180: 61 69 6E 01 80 1C 04 80  45 00 80 F0 FF FF 7F F0  ain.....E.......
0190: FF FF 7F 66 64 6F 31 01  80 1C 02 80 43 00 43 01  ...fdo1.....C.C.
01A0: 45 00 80 F0 FF FF 7F F0  FF FF 7F 66 64 69 31 01  E..........fdi1.
01B0: 80 9F 06 80 F8 FF FF 7F  F8 FF FF 7F 6D 61 69 6E  ............main
01C0: 01 80 1C 09 80 21 00                              .....!.         
```

## Opcodes

```
  0: 0x0173 [0x42] SET_CLI_EVENT_CANCEL_DATA()
  1: 0x0174 [0x9F] LOAD_SCHEDULED_TASK_ALT: Load scheduler "main" with entities [EventEntity, EventEntity], work=[202*, 0*]
  2: 0x0185 [0x1C] WAIT(140* ticks)
  3: 0x0188 [0x45] LOAD_SCHEDULED_TASK: Load scheduler "fdo1" with entities [LocalPlayer, LocalPlayer], work=[200*, 0*]
  4: 0x0199 [0x1C] WAIT(60* ticks)
  5: 0x019C [0x43] SEND_EVENT_UPDATE: Send pending tag to server (packet 0x005B)
  6: 0x019E [0x43] SEND_EVENT_UPDATE: Check pending flag (skip if not pending)
  7: 0x01A0 [0x45] LOAD_SCHEDULED_TASK: Load scheduler "fdi1" with entities [LocalPlayer, LocalPlayer], work=[200*, 0*]
  8: 0x01B1 [0x9F] LOAD_SCHEDULED_TASK_ALT: Load scheduler "main" with entities [EventEntity, EventEntity], work=[231*, 0*]
  9: 0x01C2 [0x1C] WAIT(120* ticks)
 10: 0x01C5 [0x21] END_EVENT
 11: 0x01C6 [0x00] END_REQSTACK()
```
