# Event 487

## Metadata

| Field           | Value    |
|-----------------|----------|
| Event Index     | 7/10     |
| Offset          | 0x0200   |
| Data Size       | 32 bytes |
| Calculated Size | 32 bytes |
| Instructions    | 11       |

```
      00 01 02 03 04 05 06 07  08 09 0A 0B 0C 0D 0E 0F
      -- -- -- -- -- -- -- --  -- -- -- -- -- -- -- --
0200: 03 41 10 00 80 42 1E F0  FF FF 7F 02 02 10 03 10  .A...B..........
0210: 00 1A 02 1D 1D 80 23 01  1E 02 1D 1E 80 23 21 00  ......#......#!.
```

## Opcodes

```
  0: 0x0200 [0x03] Work_Zone[65] = 1*
  1: 0x0205 [0x42] SET_CLI_EVENT_CANCEL_DATA()
  2: 0x0206 [0x1E] EventEntity looks at LocalPlayer and starts talking
  3: 0x020B [0x02] IF !(Work_Zone[2] == Work_Zone[3]) GOTO 0x021A
  4: 0x0213 [0x1D] PRINT_EVENT_MESSAGE(message_id=9045*)
    → "Ah, \u0008.\u0007We have been holding on to the prize from your last race until you had room enough in your gobbiebag to carry it back to your Mog House.\u007F1\u0000\u0007"
  5: 0x0216 [0x23] WAIT_FOR_DIALOG_INTERACTION
  6: 0x0217 [0x01] GOTO 0x021E

SUBROUTINE_021A:
  7: 0x021A [0x1D] PRINT_EVENT_MESSAGE(message_id=9046*)
    → "Might you be \u0008?\u0007Excellent. VCS headquarters was informed that you would be stopping by our branch, and sent this package containing the prize from your last race.\u007F1\u0000\u0007"
  8: 0x021D [0x23] WAIT_FOR_DIALOG_INTERACTION
  9: 0x021E [0x21] END_EVENT
 10: 0x021F [0x00] END_REQSTACK()
```
