# Event 32

## Metadata

| Field           | Value    |
|-----------------|----------|
| Event Index     | 2/2      |
| Offset          | 0x0001   |
| Data Size       | 54 bytes |
| Calculated Size | 54 bytes |
| Instructions    | 11       |

```
      00 01 02 03 04 05 06 07  08 09 0A 0B 0C 0D 0E 0F
      -- -- -- -- -- -- -- --  -- -- -- -- -- -- -- --
0000:    2C 03 10 0F 01 03 10  0F 01 63 61 62 6B 24 00   ,........cabk$.
0010: 80 01 80 01 80 25 02 00  10 01 80 00 28 00 29 09  .....%......(.).
0020: F0 FF FF 7F 0F 01 33 00  02 00 10 02 80 00 33 00  ......3.......3.
0030: 01 33 00 20 00 21 00                              .3. .!.         
```

## Opcodes

```
  0: 0x0001 [0x2C] CREATE_SCHEDULER_TASK: Create scheduler "cabk" for entities [warp02 (ID: 17764355/0x010F1003), warp02 (ID: 17764355/0x010F1003)]
  1: 0x000E [0x24] CREATE_DIALOG(message_id=6717*, default_option=0*, option_flags=0*)
    → "rank\u0007\u000B1\u00072\u00073\u00074\u00075\u00076\u00077\u00078\u00079\u000710\u007F1\u0000\u0007"
  2: 0x0015 [0x25] WAIT_DIALOG_SELECT()
  3: 0x0016 [0x02] IF !(Work_Zone[0] == 0*) GOTO 0x0028
  4: 0x001E [0x29] REQ_SET_WAIT(priority=0x09, entity_id=LocalPlayer, tag_num=0x0F)
  5: 0x0025 [0x01] GOTO 0x0033

SUBROUTINE_0028:
  6: 0x0028 [0x02] IF !(Work_Zone[0] == 1*) GOTO 0x0033
  7: 0x0030 [0x01] GOTO 0x0033

SUBROUTINE_0033:
  8: 0x0033 [0x20] SET_CLI_EVENT_UC_FLAG: Unlock player control
  9: 0x0035 [0x21] END_EVENT
 10: 0x0036 [0x00] END_REQSTACK()
```
