# Event 65535

## Metadata

| Field           | Value    |
|-----------------|----------|
| Event Index     | 18/37    |
| Offset          | 0x0378   |
| Data Size       | 69 bytes |
| Calculated Size | 69 bytes |
| Instructions    | 15       |

```
      00 01 02 03 04 05 06 07  08 09 0A 0B 0C 0D 0E 0F
      -- -- -- -- -- -- -- --  -- -- -- -- -- -- -- --
0370:                          1C 53 80 59 04 94 E2 05          .S.Y....
0380: 01 54 80 1F 00 55 80 56  80 57 80 1F 01 1F 00 58  .T...U.V.W.....X
0390: 80 59 80 57 80 1F 01 59  04 F8 FF FF 7F 5A 80 1F  .Y.W...Y.....Z..
03A0: 00 5B 80 5C 80 57 80 1F  01 1F 00 5D 80 5E 80 14  .[.\.W.....].^..
03B0: 80 1F 01 6F 22 01 2F 01  F8 FF FF 7F 00           ...o"./......   
```

## Opcodes

```
  0: 0x0378 [0x1C] WAIT(360* ticks)
  1: 0x037B [0x59] UPDATE_ENTITY_DATA: Set 02 (ID: 17162900/0x0105E294) main speed = 15* * 0.1
  2: 0x0383 [0x1F] MOVE_ENTITY: EventEntity moves to X=-26.970*, Z=63.607*, Y=-3.500*
  3: 0x038B [0x1F] MOVE_ENTITY: Update entity position (mode=1)
  4: 0x038D [0x1F] MOVE_ENTITY: EventEntity moves to X=-25.762*, Z=63.002*, Y=-3.500*
  5: 0x0395 [0x1F] MOVE_ENTITY: Update entity position (mode=1)
  6: 0x0397 [0x59] UPDATE_ENTITY_DATA: Set EventEntity main speed = 40* * 0.1
  7: 0x039F [0x1F] MOVE_ENTITY: EventEntity moves to X=-47.406*, Z=58.894*, Y=-3.500*
  8: 0x03A7 [0x1F] MOVE_ENTITY: Update entity position (mode=1)
  9: 0x03A9 [0x1F] MOVE_ENTITY: EventEntity moves to X=-56.954*, Z=53.463*, Y=-3.499*
 10: 0x03B1 [0x1F] MOVE_ENTITY: Update entity position (mode=1)
 11: 0x03B3 [0x6F] WAIT_FRAME_DELAY: Yield until WaitTime reaches zero
 12: 0x03B4 [0x22] ENTITY_HIDE_FLAG(enabled=0x01)
 13: 0x03B6 [0x2F] EventEntity->Render.Flags0 |= 0x80000 // Bit 19
 14: 0x03BC [0x00] END_REQSTACK()
```
