# 0x7FFFFFF0 - Zone Events

## Common Data

| Field            | Value                    |
|------------------|--------------------------|
| Zone             | Promyvion - Dem (ID: 18) |
| Block Size       | 4964 bytes               |
| Total Events     | 24                       |
| References Count | 45                       |

## List of Events

| Event ID              | Entrypoint   |   Size |   Instructions |
|-----------------------|--------------|--------|----------------|
| [65535](#event-65535) | 0x0000       |      1 |              1 |
| [65534](#event-65534) | 0x0001       |      1 |              1 |
| [30](#event-30)       | 0x0002       |    190 |             27 |
| [31](#event-31)       | 0x00C0       |    195 |             28 |
| [32](#event-32)       | 0x0183       |    195 |             28 |
| [33](#event-33)       | 0x0246       |    195 |             28 |
| [34](#event-34)       | 0x0309       |    190 |             27 |
| [35](#event-35)       | 0x03C7       |    190 |             27 |
| [36](#event-36)       | 0x0485       |    190 |             27 |
| [37](#event-37)       | 0x0543       |    190 |             27 |
| [38](#event-38)       | 0x0601       |    193 |             27 |
| [39](#event-39)       | 0x06C2       |    193 |             27 |
| [40](#event-40)       | 0x0783       |    193 |             27 |
| [41](#event-41)       | 0x0844       |    188 |             26 |
| [42](#event-42)       | 0x0900       |    188 |             26 |
| [43](#event-43)       | 0x09BC       |    188 |             26 |
| [44](#event-44)       | 0x0A78       |    188 |             26 |
| [45](#event-45)       | 0x0B34       |    188 |             26 |
| [46](#event-46)       | 0x0BF0       |     53 |             15 |
| [47](#event-47)       | 0x0C25       |     41 |              5 |
| [48](#event-48)       | 0x0C4E       |     38 |              4 |
| [50](#event-50)       | 0x0C74       |    494 |             58 |
| [51](#event-51)       | 0x0E62       |    494 |             58 |
| [52](#event-52)       | 0x1050       |    494 |             58 |

## DAT References (imed_data)

|   Index | Hex Value   |   Dec Value |
|---------|-------------|-------------|
|       0 | 0x1C3B      |        7227 |
|       1 | 0x0001      |           1 |
|       2 | 0x0000      |           0 |
|       3 | 0x0049      |          73 |
|       4 | 0x008C      |         140 |
|       5 | 0x00C8      |         200 |
|       6 | 0x00C9      |         201 |
|       7 | 0x00A0      |         160 |
|       8 | 0x010E      |         270 |
|       9 | 0x003C      |          60 |
|      10 | 0xFFFD3F93  |  4294786963 |
|      11 | 0xFFFF505B  |  4294922331 |
|      12 | 0x0229      |         553 |
|      13 | 0x417FE     |      268286 |
|      14 | 0x6815F     |      426335 |
|      15 | 0x060A      |        1546 |
|      16 | 0x6A40      |       27200 |
|      17 | 0xFFFAAE0E  |  4294618638 |
|      18 | 0x0A1E      |        2590 |
|      19 | 0xFFFD25FD  |  4294780413 |
|      20 | 0x7297E     |      469374 |
|      21 | 0x021E      |         542 |
|      22 | 0x1C3C      |        7228 |
|      23 | 0x2D623     |      185891 |
|      24 | 0xFFFF3395  |  4294914965 |
|      25 | 0x0809      |        2057 |
|      26 | 0x1C3D      |        7229 |
|      27 | 0x004A      |          74 |
|      28 | 0x00AA      |         170 |
|      29 | 0x012C      |         300 |
|      30 | 0x0012      |          18 |
|      31 | 0x1C46      |        7238 |
|      32 | 0x0154      |         340 |
|      33 | 0x0078      |         120 |
|      34 | 0x1C47      |        7239 |
|      35 | 0x1C48      |        7240 |
|      36 | 0x1C49      |        7241 |
|      37 | 0x00B4      |         180 |
|      38 | 0x001E      |          30 |
|      39 | 0x1C4A      |        7242 |
|      40 | 0x1C4B      |        7243 |
|      41 | 0x1C4C      |        7244 |
|      42 | 0x1C4D      |        7245 |
|      43 | 0x1C4E      |        7246 |
|      44 | 0x1C4F      |        7247 |

## String References

- **7227**: Enter the memory stream? [Yes./No.]
- **7228**: Return through the memory stream? [Yes./No.]
- **7229**: Leave Promyvion? [Yes./No.]
- **7238**: ...Come, <Player>...
- **7239**: ...It is...time...
- **7240**: ...Return...
- **7241**: ...to the darkness......
- **7242**: ...Wheels are...in motion...
- **7243**: ...Darkness......calls...
- **7244**: ...Heed...your destiny......
- **7245**: ...Why...do you struggle...?
- **7246**: ...Face...the darkness...
- **7247**: ...Face...your inner...self......

## Events

### Event 65535

#### Metadata

| Field        | Value   |
|--------------|---------|
| Entrypoint   | 0x0000  |
| Data Size    | 1 bytes |
| Instructions | 1       |

```
      00 01 02 03 04 05 06 07  08 09 0A 0B 0C 0D 0E 0F
      -- -- -- -- -- -- -- --  -- -- -- -- -- -- -- --
0000: 00                                                .               
```

#### Opcodes

```
  0: 0x0000 [0x00] END_REQSTACK()
```

### Event 65534

#### Metadata

| Field        | Value   |
|--------------|---------|
| Entrypoint   | 0x0001  |
| Data Size    | 1 bytes |
| Instructions | 1       |

```
      00 01 02 03 04 05 06 07  08 09 0A 0B 0C 0D 0E 0F
      -- -- -- -- -- -- -- --  -- -- -- -- -- -- -- --
0000:    00                                              .              
```

#### Opcodes

```
  0: 0x0001 [0x00] END_REQSTACK()
```

### Event 30

#### Metadata

| Field        | Value     |
|--------------|-----------|
| Entrypoint   | 0x0002    |
| Data Size    | 190 bytes |
| Instructions | 27        |

```
      00 01 02 03 04 05 06 07  08 09 0A 0B 0C 0D 0E 0F
      -- -- -- -- -- -- -- --  -- -- -- -- -- -- -- --
0000:       20 01 24 00 80 01  80 02 80 25 02 00 10 02     .$......%....
0010: 80 00 B1 00 42 43 00 43  01 9F 03 80 F0 FF FF 7F  ....BC.C........
0020: F0 FF FF 7F 6D 61 69 6E  02 80 1C 04 80 45 05 80  ....main.....E..
0030: F0 FF FF 7F F0 FF FF 7F  6F 76 6C 31 02 80 45 05  ........ovl1..E.
0040: 80 F0 FF FF 7F F0 FF FF  7F 62 6C 6F 6E 02 80 45  .........blon..E
0050: 06 80 F0 FF FF 7F F0 FF  FF 7F 62 6C 6F 6E 02 80  ..........blon..
0060: 45 07 80 F8 FF FF 7F F8  FF FF 7F 77 31 38 31 02  E..........w181.
0070: 80 1C 08 80 45 05 80 F0  FF FF 7F F0 FF FF 7F 66  ....E..........f
0080: 64 6F 31 02 80 1C 09 80  45 05 80 F0 FF FF 7F F0  do1.....E.......
0090: FF FF 7F 62 6C 6F 66 02  80 46 00 47 00 0A 80 0B  ...blof..F.G....
00A0: 80 02 80 0C 80 47 01 29  01 F0 FF FF 7F 14 01 BC  .....G.)........
00B0: 00 02 00 10 01 80 00 BC  00 01 BC 00 20 00 21 00  ............ .!.
```

#### Opcodes

```
  0: 0x0002 [0x20] SET_CLI_EVENT_UC_FLAG: Lock player control
  1: 0x0004 [0x24] CREATE_DIALOG(message_id=7227*, default_option=1*, option_flags=0*)
    → "Enter the memory stream? [Yes./No.]"
  2: 0x000B [0x25] WAIT_DIALOG_SELECT()
  3: 0x000C [0x02] IF !(Work_Zone[0] == 0*) GOTO 0x00B1
  4: 0x0014 [0x42] SET_CLI_EVENT_CANCEL_DATA()
  5: 0x0015 [0x43] SEND_EVENT_UPDATE: Send pending tag to server (packet 0x005B)
  6: 0x0017 [0x43] SEND_EVENT_UPDATE: Check pending flag (skip if not pending)
  7: 0x0019 [0x9F] LOAD_SCHEDULED_TASK_ALT: Load scheduler "main" with entities [LocalPlayer, LocalPlayer], work=[73*, 0*]
  8: 0x002A [0x1C] WAIT(140* ticks)
  9: 0x002D [0x45] LOAD_SCHEDULED_TASK: Load scheduler "ovl1" with entities [LocalPlayer, LocalPlayer], work=[200*, 0*]
 10: 0x003E [0x45] LOAD_SCHEDULED_TASK: Load scheduler "blon" with entities [LocalPlayer, LocalPlayer], work=[200*, 0*]
 11: 0x004F [0x45] LOAD_SCHEDULED_TASK: Load scheduler "blon" with entities [LocalPlayer, LocalPlayer], work=[201*, 0*]
 12: 0x0060 [0x45] LOAD_SCHEDULED_TASK: Load scheduler "w181" with entities [EventEntity, EventEntity], work=[160*, 0*]
 13: 0x0071 [0x1C] WAIT(270* ticks)
 14: 0x0074 [0x45] LOAD_SCHEDULED_TASK: Load scheduler "fdo1" with entities [LocalPlayer, LocalPlayer], work=[200*, 0*]
 15: 0x0085 [0x1C] WAIT(60* ticks)
 16: 0x0088 [0x45] LOAD_SCHEDULED_TASK: Load scheduler "blof" with entities [LocalPlayer, LocalPlayer], work=[200*, 0*]
 17: 0x0099 [0x46] CAMERA_CONTROL: Restore default settings
 18: 0x009B [0x47] UPDATE_PLAYER_POS(-180.333*, -44.965*, 0.000*, yaw=48.6°*)
 19: 0x00A5 [0x47] WAIT_PLAYER_POS_UPDATE
 20: 0x00A7 [0x29] REQ_SET_WAIT(priority=0x01, entity_id=LocalPlayer, tag_num=0x14)
 21: 0x00AE [0x01] GOTO 0x00BC
 22: 0x00B1 [0x02] IF !(Work_Zone[0] == 1*) GOTO 0x00BC
 23: 0x00B9 [0x01] GOTO 0x00BC

SUBROUTINE_00BC:
 24: 0x00BC [0x20] SET_CLI_EVENT_UC_FLAG: Unlock player control
 25: 0x00BE [0x21] END_EVENT
 26: 0x00BF [0x00] END_REQSTACK()
```

### Event 31

#### Metadata

| Field        | Value     |
|--------------|-----------|
| Entrypoint   | 0x00C0    |
| Data Size    | 195 bytes |
| Instructions | 28        |

```
      00 01 02 03 04 05 06 07  08 09 0A 0B 0C 0D 0E 0F
      -- -- -- -- -- -- -- --  -- -- -- -- -- -- -- --
00C0: 20 01 24 00 80 01 80 02  80 25 02 00 10 02 80 00   .$......%......
00D0: 74 01 42 43 00 43 01 9F  03 80 F0 FF FF 7F F0 FF  t.BC.C..........
00E0: FF 7F 6D 61 69 6E 02 80  1C 04 80 45 05 80 F0 FF  ..main.....E....
00F0: FF 7F F0 FF FF 7F 6F 76  6C 31 02 80 45 05 80 F0  ......ovl1..E...
0100: FF FF 7F F0 FF FF 7F 62  6C 6F 6E 02 80 45 06 80  .......blon..E..
0110: F0 FF FF 7F F0 FF FF 7F  62 6C 6F 6E 02 80 45 07  ........blon..E.
0120: 80 F8 FF FF 7F F8 FF FF  7F 77 31 38 32 02 80 1C  .........w182...
0130: 08 80 45 05 80 F0 FF FF  7F F0 FF FF 7F 66 64 6F  ..E..........fdo
0140: 31 02 80 1C 09 80 45 05  80 F0 FF FF 7F F0 FF FF  1.....E.........
0150: 7F 62 6C 6F 66 02 80 03  01 10 01 80 46 00 47 00  .blof.......F.G.
0160: 0D 80 0E 80 02 80 0F 80  47 01 29 01 F0 FF FF 7F  ........G.).....
0170: 14 01 7F 01 02 00 10 01  80 00 7F 01 01 7F 01 20  ............... 
0180: 00 21 00                                          .!.             
```

#### Opcodes

```
  0: 0x00C0 [0x20] SET_CLI_EVENT_UC_FLAG: Lock player control
  1: 0x00C2 [0x24] CREATE_DIALOG(message_id=7227*, default_option=1*, option_flags=0*)
    → "Enter the memory stream? [Yes./No.]"
  2: 0x00C9 [0x25] WAIT_DIALOG_SELECT()
  3: 0x00CA [0x02] IF !(Work_Zone[0] == 0*) GOTO 0x0174
  4: 0x00D2 [0x42] SET_CLI_EVENT_CANCEL_DATA()
  5: 0x00D3 [0x43] SEND_EVENT_UPDATE: Send pending tag to server (packet 0x005B)
  6: 0x00D5 [0x43] SEND_EVENT_UPDATE: Check pending flag (skip if not pending)
  7: 0x00D7 [0x9F] LOAD_SCHEDULED_TASK_ALT: Load scheduler "main" with entities [LocalPlayer, LocalPlayer], work=[73*, 0*]
  8: 0x00E8 [0x1C] WAIT(140* ticks)
  9: 0x00EB [0x45] LOAD_SCHEDULED_TASK: Load scheduler "ovl1" with entities [LocalPlayer, LocalPlayer], work=[200*, 0*]
 10: 0x00FC [0x45] LOAD_SCHEDULED_TASK: Load scheduler "blon" with entities [LocalPlayer, LocalPlayer], work=[200*, 0*]
 11: 0x010D [0x45] LOAD_SCHEDULED_TASK: Load scheduler "blon" with entities [LocalPlayer, LocalPlayer], work=[201*, 0*]
 12: 0x011E [0x45] LOAD_SCHEDULED_TASK: Load scheduler "w182" with entities [EventEntity, EventEntity], work=[160*, 0*]
 13: 0x012F [0x1C] WAIT(270* ticks)
 14: 0x0132 [0x45] LOAD_SCHEDULED_TASK: Load scheduler "fdo1" with entities [LocalPlayer, LocalPlayer], work=[200*, 0*]
 15: 0x0143 [0x1C] WAIT(60* ticks)
 16: 0x0146 [0x45] LOAD_SCHEDULED_TASK: Load scheduler "blof" with entities [LocalPlayer, LocalPlayer], work=[200*, 0*]
 17: 0x0157 [0x03] Work_Zone[1] = 1*
 18: 0x015C [0x46] CAMERA_CONTROL: Restore default settings
 19: 0x015E [0x47] UPDATE_PLAYER_POS(268.286*, 426.335*, 0.000*, yaw=135.9°*)
 20: 0x0168 [0x47] WAIT_PLAYER_POS_UPDATE
 21: 0x016A [0x29] REQ_SET_WAIT(priority=0x01, entity_id=LocalPlayer, tag_num=0x14)
 22: 0x0171 [0x01] GOTO 0x017F
 23: 0x0174 [0x02] IF !(Work_Zone[0] == 1*) GOTO 0x017F
 24: 0x017C [0x01] GOTO 0x017F

SUBROUTINE_017F:
 25: 0x017F [0x20] SET_CLI_EVENT_UC_FLAG: Unlock player control
 26: 0x0181 [0x21] END_EVENT
 27: 0x0182 [0x00] END_REQSTACK()
```

### Event 32

#### Metadata

| Field        | Value     |
|--------------|-----------|
| Entrypoint   | 0x0183    |
| Data Size    | 195 bytes |
| Instructions | 28        |

```
      00 01 02 03 04 05 06 07  08 09 0A 0B 0C 0D 0E 0F
      -- -- -- -- -- -- -- --  -- -- -- -- -- -- -- --
0180:          20 01 24 00 80  01 80 02 80 25 02 00 10      .$......%...
0190: 02 80 00 37 02 42 43 00  43 01 9F 03 80 F0 FF FF  ...7.BC.C.......
01A0: 7F F0 FF FF 7F 6D 61 69  6E 02 80 1C 04 80 45 05  .....main.....E.
01B0: 80 F0 FF FF 7F F0 FF FF  7F 6F 76 6C 31 02 80 45  .........ovl1..E
01C0: 05 80 F0 FF FF 7F F0 FF  FF 7F 62 6C 6F 6E 02 80  ..........blon..
01D0: 45 06 80 F0 FF FF 7F F0  FF FF 7F 62 6C 6F 6E 02  E..........blon.
01E0: 80 45 07 80 F8 FF FF 7F  F8 FF FF 7F 77 31 38 33  .E..........w183
01F0: 02 80 1C 08 80 45 05 80  F0 FF FF 7F F0 FF FF 7F  .....E..........
0200: 66 64 6F 31 02 80 1C 09  80 45 05 80 F0 FF FF 7F  fdo1.....E......
0210: F0 FF FF 7F 62 6C 6F 66  02 80 03 01 10 01 80 46  ....blof.......F
0220: 00 47 00 0D 80 0E 80 02  80 0F 80 47 01 29 01 F0  .G.........G.)..
0230: FF FF 7F 14 01 42 02 02  00 10 01 80 00 42 02 01  .....B.......B..
0240: 42 02 20 00 21 00                                 B. .!.          
```

#### Opcodes

```
  0: 0x0183 [0x20] SET_CLI_EVENT_UC_FLAG: Lock player control
  1: 0x0185 [0x24] CREATE_DIALOG(message_id=7227*, default_option=1*, option_flags=0*)
    → "Enter the memory stream? [Yes./No.]"
  2: 0x018C [0x25] WAIT_DIALOG_SELECT()
  3: 0x018D [0x02] IF !(Work_Zone[0] == 0*) GOTO 0x0237
  4: 0x0195 [0x42] SET_CLI_EVENT_CANCEL_DATA()
  5: 0x0196 [0x43] SEND_EVENT_UPDATE: Send pending tag to server (packet 0x005B)
  6: 0x0198 [0x43] SEND_EVENT_UPDATE: Check pending flag (skip if not pending)
  7: 0x019A [0x9F] LOAD_SCHEDULED_TASK_ALT: Load scheduler "main" with entities [LocalPlayer, LocalPlayer], work=[73*, 0*]
  8: 0x01AB [0x1C] WAIT(140* ticks)
  9: 0x01AE [0x45] LOAD_SCHEDULED_TASK: Load scheduler "ovl1" with entities [LocalPlayer, LocalPlayer], work=[200*, 0*]
 10: 0x01BF [0x45] LOAD_SCHEDULED_TASK: Load scheduler "blon" with entities [LocalPlayer, LocalPlayer], work=[200*, 0*]
 11: 0x01D0 [0x45] LOAD_SCHEDULED_TASK: Load scheduler "blon" with entities [LocalPlayer, LocalPlayer], work=[201*, 0*]
 12: 0x01E1 [0x45] LOAD_SCHEDULED_TASK: Load scheduler "w183" with entities [EventEntity, EventEntity], work=[160*, 0*]
 13: 0x01F2 [0x1C] WAIT(270* ticks)
 14: 0x01F5 [0x45] LOAD_SCHEDULED_TASK: Load scheduler "fdo1" with entities [LocalPlayer, LocalPlayer], work=[200*, 0*]
 15: 0x0206 [0x1C] WAIT(60* ticks)
 16: 0x0209 [0x45] LOAD_SCHEDULED_TASK: Load scheduler "blof" with entities [LocalPlayer, LocalPlayer], work=[200*, 0*]
 17: 0x021A [0x03] Work_Zone[1] = 1*
 18: 0x021F [0x46] CAMERA_CONTROL: Restore default settings
 19: 0x0221 [0x47] UPDATE_PLAYER_POS(268.286*, 426.335*, 0.000*, yaw=135.9°*)
 20: 0x022B [0x47] WAIT_PLAYER_POS_UPDATE
 21: 0x022D [0x29] REQ_SET_WAIT(priority=0x01, entity_id=LocalPlayer, tag_num=0x14)
 22: 0x0234 [0x01] GOTO 0x0242
 23: 0x0237 [0x02] IF !(Work_Zone[0] == 1*) GOTO 0x0242
 24: 0x023F [0x01] GOTO 0x0242

SUBROUTINE_0242:
 25: 0x0242 [0x20] SET_CLI_EVENT_UC_FLAG: Unlock player control
 26: 0x0244 [0x21] END_EVENT
 27: 0x0245 [0x00] END_REQSTACK()
```

### Event 33

#### Metadata

| Field        | Value     |
|--------------|-----------|
| Entrypoint   | 0x0246    |
| Data Size    | 195 bytes |
| Instructions | 28        |

```
      00 01 02 03 04 05 06 07  08 09 0A 0B 0C 0D 0E 0F
      -- -- -- -- -- -- -- --  -- -- -- -- -- -- -- --
0240:                   20 01  24 00 80 01 80 02 80 25         .$......%
0250: 02 00 10 02 80 00 FA 02  42 43 00 43 01 9F 03 80  ........BC.C....
0260: F0 FF FF 7F F0 FF FF 7F  6D 61 69 6E 02 80 1C 04  ........main....
0270: 80 45 05 80 F0 FF FF 7F  F0 FF FF 7F 6F 76 6C 31  .E..........ovl1
0280: 02 80 45 05 80 F0 FF FF  7F F0 FF FF 7F 62 6C 6F  ..E..........blo
0290: 6E 02 80 45 06 80 F0 FF  FF 7F F0 FF FF 7F 62 6C  n..E..........bl
02A0: 6F 6E 02 80 45 07 80 F8  FF FF 7F F8 FF FF 7F 77  on..E..........w
02B0: 31 38 34 02 80 1C 08 80  45 05 80 F0 FF FF 7F F0  184.....E.......
02C0: FF FF 7F 66 64 6F 31 02  80 1C 09 80 45 05 80 F0  ...fdo1.....E...
02D0: FF FF 7F F0 FF FF 7F 62  6C 6F 66 02 80 03 01 10  .......blof.....
02E0: 01 80 46 00 47 00 0D 80  0E 80 02 80 0F 80 47 01  ..F.G.........G.
02F0: 29 01 F0 FF FF 7F 14 01  05 03 02 00 10 01 80 00  )...............
0300: 05 03 01 05 03 20 00 21  00                       ..... .!.       
```

#### Opcodes

```
  0: 0x0246 [0x20] SET_CLI_EVENT_UC_FLAG: Lock player control
  1: 0x0248 [0x24] CREATE_DIALOG(message_id=7227*, default_option=1*, option_flags=0*)
    → "Enter the memory stream? [Yes./No.]"
  2: 0x024F [0x25] WAIT_DIALOG_SELECT()
  3: 0x0250 [0x02] IF !(Work_Zone[0] == 0*) GOTO 0x02FA
  4: 0x0258 [0x42] SET_CLI_EVENT_CANCEL_DATA()
  5: 0x0259 [0x43] SEND_EVENT_UPDATE: Send pending tag to server (packet 0x005B)
  6: 0x025B [0x43] SEND_EVENT_UPDATE: Check pending flag (skip if not pending)
  7: 0x025D [0x9F] LOAD_SCHEDULED_TASK_ALT: Load scheduler "main" with entities [LocalPlayer, LocalPlayer], work=[73*, 0*]
  8: 0x026E [0x1C] WAIT(140* ticks)
  9: 0x0271 [0x45] LOAD_SCHEDULED_TASK: Load scheduler "ovl1" with entities [LocalPlayer, LocalPlayer], work=[200*, 0*]
 10: 0x0282 [0x45] LOAD_SCHEDULED_TASK: Load scheduler "blon" with entities [LocalPlayer, LocalPlayer], work=[200*, 0*]
 11: 0x0293 [0x45] LOAD_SCHEDULED_TASK: Load scheduler "blon" with entities [LocalPlayer, LocalPlayer], work=[201*, 0*]
 12: 0x02A4 [0x45] LOAD_SCHEDULED_TASK: Load scheduler "w184" with entities [EventEntity, EventEntity], work=[160*, 0*]
 13: 0x02B5 [0x1C] WAIT(270* ticks)
 14: 0x02B8 [0x45] LOAD_SCHEDULED_TASK: Load scheduler "fdo1" with entities [LocalPlayer, LocalPlayer], work=[200*, 0*]
 15: 0x02C9 [0x1C] WAIT(60* ticks)
 16: 0x02CC [0x45] LOAD_SCHEDULED_TASK: Load scheduler "blof" with entities [LocalPlayer, LocalPlayer], work=[200*, 0*]
 17: 0x02DD [0x03] Work_Zone[1] = 1*
 18: 0x02E2 [0x46] CAMERA_CONTROL: Restore default settings
 19: 0x02E4 [0x47] UPDATE_PLAYER_POS(268.286*, 426.335*, 0.000*, yaw=135.9°*)
 20: 0x02EE [0x47] WAIT_PLAYER_POS_UPDATE
 21: 0x02F0 [0x29] REQ_SET_WAIT(priority=0x01, entity_id=LocalPlayer, tag_num=0x14)
 22: 0x02F7 [0x01] GOTO 0x0305
 23: 0x02FA [0x02] IF !(Work_Zone[0] == 1*) GOTO 0x0305
 24: 0x0302 [0x01] GOTO 0x0305

SUBROUTINE_0305:
 25: 0x0305 [0x20] SET_CLI_EVENT_UC_FLAG: Unlock player control
 26: 0x0307 [0x21] END_EVENT
 27: 0x0308 [0x00] END_REQSTACK()
```

### Event 34

#### Metadata

| Field        | Value     |
|--------------|-----------|
| Entrypoint   | 0x0309    |
| Data Size    | 190 bytes |
| Instructions | 27        |

```
      00 01 02 03 04 05 06 07  08 09 0A 0B 0C 0D 0E 0F
      -- -- -- -- -- -- -- --  -- -- -- -- -- -- -- --
0300:                             20 01 24 00 80 01 80            .$....
0310: 02 80 25 02 00 10 02 80  00 B8 03 42 43 00 43 01  ..%........BC.C.
0320: 9F 03 80 F0 FF FF 7F F0  FF FF 7F 6D 61 69 6E 02  ...........main.
0330: 80 1C 04 80 45 05 80 F0  FF FF 7F F0 FF FF 7F 6F  ....E..........o
0340: 76 6C 31 02 80 45 05 80  F0 FF FF 7F F0 FF FF 7F  vl1..E..........
0350: 62 6C 6F 6E 02 80 45 06  80 F0 FF FF 7F F0 FF FF  blon..E.........
0360: 7F 62 6C 6F 6E 02 80 45  07 80 F8 FF FF 7F F8 FF  .blon..E........
0370: FF 7F 77 31 38 35 02 80  1C 08 80 45 05 80 F0 FF  ..w185.....E....
0380: FF 7F F0 FF FF 7F 66 64  6F 31 02 80 1C 09 80 45  ......fdo1.....E
0390: 05 80 F0 FF FF 7F F0 FF  FF 7F 62 6C 6F 66 02 80  ..........blof..
03A0: 46 00 47 00 10 80 11 80  02 80 12 80 47 01 29 01  F.G.........G.).
03B0: F0 FF FF 7F 14 01 C3 03  02 00 10 01 80 00 C3 03  ................
03C0: 01 C3 03 20 00 21 00                              ... .!.         
```

#### Opcodes

```
  0: 0x0309 [0x20] SET_CLI_EVENT_UC_FLAG: Lock player control
  1: 0x030B [0x24] CREATE_DIALOG(message_id=7227*, default_option=1*, option_flags=0*)
    → "Enter the memory stream? [Yes./No.]"
  2: 0x0312 [0x25] WAIT_DIALOG_SELECT()
  3: 0x0313 [0x02] IF !(Work_Zone[0] == 0*) GOTO 0x03B8
  4: 0x031B [0x42] SET_CLI_EVENT_CANCEL_DATA()
  5: 0x031C [0x43] SEND_EVENT_UPDATE: Send pending tag to server (packet 0x005B)
  6: 0x031E [0x43] SEND_EVENT_UPDATE: Check pending flag (skip if not pending)
  7: 0x0320 [0x9F] LOAD_SCHEDULED_TASK_ALT: Load scheduler "main" with entities [LocalPlayer, LocalPlayer], work=[73*, 0*]
  8: 0x0331 [0x1C] WAIT(140* ticks)
  9: 0x0334 [0x45] LOAD_SCHEDULED_TASK: Load scheduler "ovl1" with entities [LocalPlayer, LocalPlayer], work=[200*, 0*]
 10: 0x0345 [0x45] LOAD_SCHEDULED_TASK: Load scheduler "blon" with entities [LocalPlayer, LocalPlayer], work=[200*, 0*]
 11: 0x0356 [0x45] LOAD_SCHEDULED_TASK: Load scheduler "blon" with entities [LocalPlayer, LocalPlayer], work=[201*, 0*]
 12: 0x0367 [0x45] LOAD_SCHEDULED_TASK: Load scheduler "w185" with entities [EventEntity, EventEntity], work=[160*, 0*]
 13: 0x0378 [0x1C] WAIT(270* ticks)
 14: 0x037B [0x45] LOAD_SCHEDULED_TASK: Load scheduler "fdo1" with entities [LocalPlayer, LocalPlayer], work=[200*, 0*]
 15: 0x038C [0x1C] WAIT(60* ticks)
 16: 0x038F [0x45] LOAD_SCHEDULED_TASK: Load scheduler "blof" with entities [LocalPlayer, LocalPlayer], work=[200*, 0*]
 17: 0x03A0 [0x46] CAMERA_CONTROL: Restore default settings
 18: 0x03A2 [0x47] UPDATE_PLAYER_POS(27.200*, -348.658*, 0.000*, yaw=227.6°*)
 19: 0x03AC [0x47] WAIT_PLAYER_POS_UPDATE
 20: 0x03AE [0x29] REQ_SET_WAIT(priority=0x01, entity_id=LocalPlayer, tag_num=0x14)
 21: 0x03B5 [0x01] GOTO 0x03C3
 22: 0x03B8 [0x02] IF !(Work_Zone[0] == 1*) GOTO 0x03C3
 23: 0x03C0 [0x01] GOTO 0x03C3

SUBROUTINE_03C3:
 24: 0x03C3 [0x20] SET_CLI_EVENT_UC_FLAG: Unlock player control
 25: 0x03C5 [0x21] END_EVENT
 26: 0x03C6 [0x00] END_REQSTACK()
```

### Event 35

#### Metadata

| Field        | Value     |
|--------------|-----------|
| Entrypoint   | 0x03C7    |
| Data Size    | 190 bytes |
| Instructions | 27        |

```
      00 01 02 03 04 05 06 07  08 09 0A 0B 0C 0D 0E 0F
      -- -- -- -- -- -- -- --  -- -- -- -- -- -- -- --
03C0:                      20  01 24 00 80 01 80 02 80          .$......
03D0: 25 02 00 10 02 80 00 76  04 42 43 00 43 01 9F 03  %......v.BC.C...
03E0: 80 F0 FF FF 7F F0 FF FF  7F 6D 61 69 6E 02 80 1C  .........main...
03F0: 04 80 45 05 80 F0 FF FF  7F F0 FF FF 7F 6F 76 6C  ..E..........ovl
0400: 31 02 80 45 05 80 F0 FF  FF 7F F0 FF FF 7F 62 6C  1..E..........bl
0410: 6F 6E 02 80 45 06 80 F0  FF FF 7F F0 FF FF 7F 62  on..E..........b
0420: 6C 6F 6E 02 80 45 07 80  F8 FF FF 7F F8 FF FF 7F  lon..E..........
0430: 77 31 38 36 02 80 1C 08  80 45 05 80 F0 FF FF 7F  w186.....E......
0440: F0 FF FF 7F 66 64 6F 31  02 80 1C 09 80 45 05 80  ....fdo1.....E..
0450: F0 FF FF 7F F0 FF FF 7F  62 6C 6F 66 02 80 46 00  ........blof..F.
0460: 47 00 13 80 14 80 02 80  15 80 47 01 29 01 F0 FF  G.........G.)...
0470: FF 7F 14 01 81 04 02 00  10 01 80 00 81 04 01 81  ................
0480: 04 20 00 21 00                                    . .!.           
```

#### Opcodes

```
  0: 0x03C7 [0x20] SET_CLI_EVENT_UC_FLAG: Lock player control
  1: 0x03C9 [0x24] CREATE_DIALOG(message_id=7227*, default_option=1*, option_flags=0*)
    → "Enter the memory stream? [Yes./No.]"
  2: 0x03D0 [0x25] WAIT_DIALOG_SELECT()
  3: 0x03D1 [0x02] IF !(Work_Zone[0] == 0*) GOTO 0x0476
  4: 0x03D9 [0x42] SET_CLI_EVENT_CANCEL_DATA()
  5: 0x03DA [0x43] SEND_EVENT_UPDATE: Send pending tag to server (packet 0x005B)
  6: 0x03DC [0x43] SEND_EVENT_UPDATE: Check pending flag (skip if not pending)
  7: 0x03DE [0x9F] LOAD_SCHEDULED_TASK_ALT: Load scheduler "main" with entities [LocalPlayer, LocalPlayer], work=[73*, 0*]
  8: 0x03EF [0x1C] WAIT(140* ticks)
  9: 0x03F2 [0x45] LOAD_SCHEDULED_TASK: Load scheduler "ovl1" with entities [LocalPlayer, LocalPlayer], work=[200*, 0*]
 10: 0x0403 [0x45] LOAD_SCHEDULED_TASK: Load scheduler "blon" with entities [LocalPlayer, LocalPlayer], work=[200*, 0*]
 11: 0x0414 [0x45] LOAD_SCHEDULED_TASK: Load scheduler "blon" with entities [LocalPlayer, LocalPlayer], work=[201*, 0*]
 12: 0x0425 [0x45] LOAD_SCHEDULED_TASK: Load scheduler "w186" with entities [EventEntity, EventEntity], work=[160*, 0*]
 13: 0x0436 [0x1C] WAIT(270* ticks)
 14: 0x0439 [0x45] LOAD_SCHEDULED_TASK: Load scheduler "fdo1" with entities [LocalPlayer, LocalPlayer], work=[200*, 0*]
 15: 0x044A [0x1C] WAIT(60* ticks)
 16: 0x044D [0x45] LOAD_SCHEDULED_TASK: Load scheduler "blof" with entities [LocalPlayer, LocalPlayer], work=[200*, 0*]
 17: 0x045E [0x46] CAMERA_CONTROL: Restore default settings
 18: 0x0460 [0x47] UPDATE_PLAYER_POS(-186.883*, 469.374*, 0.000*, yaw=47.6°*)
 19: 0x046A [0x47] WAIT_PLAYER_POS_UPDATE
 20: 0x046C [0x29] REQ_SET_WAIT(priority=0x01, entity_id=LocalPlayer, tag_num=0x14)
 21: 0x0473 [0x01] GOTO 0x0481
 22: 0x0476 [0x02] IF !(Work_Zone[0] == 1*) GOTO 0x0481
 23: 0x047E [0x01] GOTO 0x0481

SUBROUTINE_0481:
 24: 0x0481 [0x20] SET_CLI_EVENT_UC_FLAG: Unlock player control
 25: 0x0483 [0x21] END_EVENT
 26: 0x0484 [0x00] END_REQSTACK()
```

### Event 36

#### Metadata

| Field        | Value     |
|--------------|-----------|
| Entrypoint   | 0x0485    |
| Data Size    | 190 bytes |
| Instructions | 27        |

```
      00 01 02 03 04 05 06 07  08 09 0A 0B 0C 0D 0E 0F
      -- -- -- -- -- -- -- --  -- -- -- -- -- -- -- --
0480:                20 01 24  00 80 01 80 02 80 25 02        .$......%.
0490: 00 10 02 80 00 34 05 42  43 00 43 01 9F 03 80 F0  .....4.BC.C.....
04A0: FF FF 7F F0 FF FF 7F 6D  61 69 6E 02 80 1C 04 80  .......main.....
04B0: 45 05 80 F0 FF FF 7F F0  FF FF 7F 6F 76 6C 31 02  E..........ovl1.
04C0: 80 45 05 80 F0 FF FF 7F  F0 FF FF 7F 62 6C 6F 6E  .E..........blon
04D0: 02 80 45 06 80 F0 FF FF  7F F0 FF FF 7F 62 6C 6F  ..E..........blo
04E0: 6E 02 80 45 07 80 F8 FF  FF 7F F8 FF FF 7F 77 31  n..E..........w1
04F0: 38 37 02 80 1C 08 80 45  05 80 F0 FF FF 7F F0 FF  87.....E........
0500: FF 7F 66 64 6F 31 02 80  1C 09 80 45 05 80 F0 FF  ..fdo1.....E....
0510: FF 7F F0 FF FF 7F 62 6C  6F 66 02 80 46 00 47 00  ......blof..F.G.
0520: 13 80 14 80 02 80 15 80  47 01 29 01 F0 FF FF 7F  ........G.).....
0530: 14 01 3F 05 02 00 10 01  80 00 3F 05 01 3F 05 20  ..?.......?..?. 
0540: 00 21 00                                          .!.             
```

#### Opcodes

```
  0: 0x0485 [0x20] SET_CLI_EVENT_UC_FLAG: Lock player control
  1: 0x0487 [0x24] CREATE_DIALOG(message_id=7227*, default_option=1*, option_flags=0*)
    → "Enter the memory stream? [Yes./No.]"
  2: 0x048E [0x25] WAIT_DIALOG_SELECT()
  3: 0x048F [0x02] IF !(Work_Zone[0] == 0*) GOTO 0x0534
  4: 0x0497 [0x42] SET_CLI_EVENT_CANCEL_DATA()
  5: 0x0498 [0x43] SEND_EVENT_UPDATE: Send pending tag to server (packet 0x005B)
  6: 0x049A [0x43] SEND_EVENT_UPDATE: Check pending flag (skip if not pending)
  7: 0x049C [0x9F] LOAD_SCHEDULED_TASK_ALT: Load scheduler "main" with entities [LocalPlayer, LocalPlayer], work=[73*, 0*]
  8: 0x04AD [0x1C] WAIT(140* ticks)
  9: 0x04B0 [0x45] LOAD_SCHEDULED_TASK: Load scheduler "ovl1" with entities [LocalPlayer, LocalPlayer], work=[200*, 0*]
 10: 0x04C1 [0x45] LOAD_SCHEDULED_TASK: Load scheduler "blon" with entities [LocalPlayer, LocalPlayer], work=[200*, 0*]
 11: 0x04D2 [0x45] LOAD_SCHEDULED_TASK: Load scheduler "blon" with entities [LocalPlayer, LocalPlayer], work=[201*, 0*]
 12: 0x04E3 [0x45] LOAD_SCHEDULED_TASK: Load scheduler "w187" with entities [EventEntity, EventEntity], work=[160*, 0*]
 13: 0x04F4 [0x1C] WAIT(270* ticks)
 14: 0x04F7 [0x45] LOAD_SCHEDULED_TASK: Load scheduler "fdo1" with entities [LocalPlayer, LocalPlayer], work=[200*, 0*]
 15: 0x0508 [0x1C] WAIT(60* ticks)
 16: 0x050B [0x45] LOAD_SCHEDULED_TASK: Load scheduler "blof" with entities [LocalPlayer, LocalPlayer], work=[200*, 0*]
 17: 0x051C [0x46] CAMERA_CONTROL: Restore default settings
 18: 0x051E [0x47] UPDATE_PLAYER_POS(-186.883*, 469.374*, 0.000*, yaw=47.6°*)
 19: 0x0528 [0x47] WAIT_PLAYER_POS_UPDATE
 20: 0x052A [0x29] REQ_SET_WAIT(priority=0x01, entity_id=LocalPlayer, tag_num=0x14)
 21: 0x0531 [0x01] GOTO 0x053F
 22: 0x0534 [0x02] IF !(Work_Zone[0] == 1*) GOTO 0x053F
 23: 0x053C [0x01] GOTO 0x053F

SUBROUTINE_053F:
 24: 0x053F [0x20] SET_CLI_EVENT_UC_FLAG: Unlock player control
 25: 0x0541 [0x21] END_EVENT
 26: 0x0542 [0x00] END_REQSTACK()
```

### Event 37

#### Metadata

| Field        | Value     |
|--------------|-----------|
| Entrypoint   | 0x0543    |
| Data Size    | 190 bytes |
| Instructions | 27        |

```
      00 01 02 03 04 05 06 07  08 09 0A 0B 0C 0D 0E 0F
      -- -- -- -- -- -- -- --  -- -- -- -- -- -- -- --
0540:          20 01 24 00 80  01 80 02 80 25 02 00 10      .$......%...
0550: 02 80 00 F2 05 42 43 00  43 01 9F 03 80 F0 FF FF  .....BC.C.......
0560: 7F F0 FF FF 7F 6D 61 69  6E 02 80 1C 04 80 45 05  .....main.....E.
0570: 80 F0 FF FF 7F F0 FF FF  7F 6F 76 6C 31 02 80 45  .........ovl1..E
0580: 05 80 F0 FF FF 7F F0 FF  FF 7F 62 6C 6F 6E 02 80  ..........blon..
0590: 45 06 80 F0 FF FF 7F F0  FF FF 7F 62 6C 6F 6E 02  E..........blon.
05A0: 80 45 07 80 F8 FF FF 7F  F8 FF FF 7F 77 31 38 38  .E..........w188
05B0: 02 80 1C 08 80 45 05 80  F0 FF FF 7F F0 FF FF 7F  .....E..........
05C0: 66 64 6F 31 02 80 1C 09  80 45 05 80 F0 FF FF 7F  fdo1.....E......
05D0: F0 FF FF 7F 62 6C 6F 66  02 80 46 00 47 00 10 80  ....blof..F.G...
05E0: 11 80 02 80 12 80 47 01  29 01 F0 FF FF 7F 14 01  ......G.).......
05F0: FD 05 02 00 10 01 80 00  FD 05 01 FD 05 20 00 21  ............. .!
0600: 00                                                .               
```

#### Opcodes

```
  0: 0x0543 [0x20] SET_CLI_EVENT_UC_FLAG: Lock player control
  1: 0x0545 [0x24] CREATE_DIALOG(message_id=7227*, default_option=1*, option_flags=0*)
    → "Enter the memory stream? [Yes./No.]"
  2: 0x054C [0x25] WAIT_DIALOG_SELECT()
  3: 0x054D [0x02] IF !(Work_Zone[0] == 0*) GOTO 0x05F2
  4: 0x0555 [0x42] SET_CLI_EVENT_CANCEL_DATA()
  5: 0x0556 [0x43] SEND_EVENT_UPDATE: Send pending tag to server (packet 0x005B)
  6: 0x0558 [0x43] SEND_EVENT_UPDATE: Check pending flag (skip if not pending)
  7: 0x055A [0x9F] LOAD_SCHEDULED_TASK_ALT: Load scheduler "main" with entities [LocalPlayer, LocalPlayer], work=[73*, 0*]
  8: 0x056B [0x1C] WAIT(140* ticks)
  9: 0x056E [0x45] LOAD_SCHEDULED_TASK: Load scheduler "ovl1" with entities [LocalPlayer, LocalPlayer], work=[200*, 0*]
 10: 0x057F [0x45] LOAD_SCHEDULED_TASK: Load scheduler "blon" with entities [LocalPlayer, LocalPlayer], work=[200*, 0*]
 11: 0x0590 [0x45] LOAD_SCHEDULED_TASK: Load scheduler "blon" with entities [LocalPlayer, LocalPlayer], work=[201*, 0*]
 12: 0x05A1 [0x45] LOAD_SCHEDULED_TASK: Load scheduler "w188" with entities [EventEntity, EventEntity], work=[160*, 0*]
 13: 0x05B2 [0x1C] WAIT(270* ticks)
 14: 0x05B5 [0x45] LOAD_SCHEDULED_TASK: Load scheduler "fdo1" with entities [LocalPlayer, LocalPlayer], work=[200*, 0*]
 15: 0x05C6 [0x1C] WAIT(60* ticks)
 16: 0x05C9 [0x45] LOAD_SCHEDULED_TASK: Load scheduler "blof" with entities [LocalPlayer, LocalPlayer], work=[200*, 0*]
 17: 0x05DA [0x46] CAMERA_CONTROL: Restore default settings
 18: 0x05DC [0x47] UPDATE_PLAYER_POS(27.200*, -348.658*, 0.000*, yaw=227.6°*)
 19: 0x05E6 [0x47] WAIT_PLAYER_POS_UPDATE
 20: 0x05E8 [0x29] REQ_SET_WAIT(priority=0x01, entity_id=LocalPlayer, tag_num=0x14)
 21: 0x05EF [0x01] GOTO 0x05FD
 22: 0x05F2 [0x02] IF !(Work_Zone[0] == 1*) GOTO 0x05FD
 23: 0x05FA [0x01] GOTO 0x05FD

SUBROUTINE_05FD:
 24: 0x05FD [0x20] SET_CLI_EVENT_UC_FLAG: Unlock player control
 25: 0x05FF [0x21] END_EVENT
 26: 0x0600 [0x00] END_REQSTACK()
```

### Event 38

#### Metadata

| Field        | Value     |
|--------------|-----------|
| Entrypoint   | 0x0601    |
| Data Size    | 193 bytes |
| Instructions | 27        |

```
      00 01 02 03 04 05 06 07  08 09 0A 0B 0C 0D 0E 0F
      -- -- -- -- -- -- -- --  -- -- -- -- -- -- -- --
0600:    24 00 80 01 80 02 80  25 02 00 10 02 80 00 B3   $......%.......
0610: 06 42 43 00 43 01 9F 03  80 F0 FF FF 7F F0 FF FF  .BC.C...........
0620: 7F 6D 61 69 6E 02 80 1C  04 80 45 05 80 F0 FF FF  .main.....E.....
0630: 7F F0 FF FF 7F 6F 76 6C  31 02 80 45 05 80 F0 FF  .....ovl1..E....
0640: FF 7F F0 FF FF 7F 62 6C  6F 6E 02 80 45 06 80 F0  ......blon..E...
0650: FF FF 7F F0 FF FF 7F 62  6C 6F 6E 02 80 45 07 80  .......blon..E..
0660: F8 FF FF 7F F8 FF FF 7F  77 31 38 39 02 80 1C 08  ........w189....
0670: 80 45 05 80 F0 FF FF 7F  F0 FF FF 7F 66 64 6F 31  .E..........fdo1
0680: 02 80 1C 09 80 45 05 80  F0 FF FF 7F F0 FF FF 7F  .....E..........
0690: 62 6C 6F 66 02 80 03 01  10 01 80 46 00 47 00 0D  blof.......F.G..
06A0: 80 0E 80 02 80 0F 80 47  01 29 01 F0 FF FF 7F 14  .......G.)......
06B0: 01 BE 06 02 00 10 01 80  00 BE 06 01 BE 06 20 00  .............. .
06C0: 21 00                                             !.              
```

#### Opcodes

```
  0: 0x0601 [0x24] CREATE_DIALOG(message_id=7227*, default_option=1*, option_flags=0*)
    → "Enter the memory stream? [Yes./No.]"
  1: 0x0608 [0x25] WAIT_DIALOG_SELECT()
  2: 0x0609 [0x02] IF !(Work_Zone[0] == 0*) GOTO 0x06B3
  3: 0x0611 [0x42] SET_CLI_EVENT_CANCEL_DATA()
  4: 0x0612 [0x43] SEND_EVENT_UPDATE: Send pending tag to server (packet 0x005B)
  5: 0x0614 [0x43] SEND_EVENT_UPDATE: Check pending flag (skip if not pending)
  6: 0x0616 [0x9F] LOAD_SCHEDULED_TASK_ALT: Load scheduler "main" with entities [LocalPlayer, LocalPlayer], work=[73*, 0*]
  7: 0x0627 [0x1C] WAIT(140* ticks)
  8: 0x062A [0x45] LOAD_SCHEDULED_TASK: Load scheduler "ovl1" with entities [LocalPlayer, LocalPlayer], work=[200*, 0*]
  9: 0x063B [0x45] LOAD_SCHEDULED_TASK: Load scheduler "blon" with entities [LocalPlayer, LocalPlayer], work=[200*, 0*]
 10: 0x064C [0x45] LOAD_SCHEDULED_TASK: Load scheduler "blon" with entities [LocalPlayer, LocalPlayer], work=[201*, 0*]
 11: 0x065D [0x45] LOAD_SCHEDULED_TASK: Load scheduler "w189" with entities [EventEntity, EventEntity], work=[160*, 0*]
 12: 0x066E [0x1C] WAIT(270* ticks)
 13: 0x0671 [0x45] LOAD_SCHEDULED_TASK: Load scheduler "fdo1" with entities [LocalPlayer, LocalPlayer], work=[200*, 0*]
 14: 0x0682 [0x1C] WAIT(60* ticks)
 15: 0x0685 [0x45] LOAD_SCHEDULED_TASK: Load scheduler "blof" with entities [LocalPlayer, LocalPlayer], work=[200*, 0*]
 16: 0x0696 [0x03] Work_Zone[1] = 1*
 17: 0x069B [0x46] CAMERA_CONTROL: Restore default settings
 18: 0x069D [0x47] UPDATE_PLAYER_POS(268.286*, 426.335*, 0.000*, yaw=135.9°*)
 19: 0x06A7 [0x47] WAIT_PLAYER_POS_UPDATE
 20: 0x06A9 [0x29] REQ_SET_WAIT(priority=0x01, entity_id=LocalPlayer, tag_num=0x14)
 21: 0x06B0 [0x01] GOTO 0x06BE
 22: 0x06B3 [0x02] IF !(Work_Zone[0] == 1*) GOTO 0x06BE
 23: 0x06BB [0x01] GOTO 0x06BE

SUBROUTINE_06BE:
 24: 0x06BE [0x20] SET_CLI_EVENT_UC_FLAG: Unlock player control
 25: 0x06C0 [0x21] END_EVENT
 26: 0x06C1 [0x00] END_REQSTACK()
```

### Event 39

#### Metadata

| Field        | Value     |
|--------------|-----------|
| Entrypoint   | 0x06C2    |
| Data Size    | 193 bytes |
| Instructions | 27        |

```
      00 01 02 03 04 05 06 07  08 09 0A 0B 0C 0D 0E 0F
      -- -- -- -- -- -- -- --  -- -- -- -- -- -- -- --
06C0:       24 00 80 01 80 02  80 25 02 00 10 02 80 00    $......%......
06D0: 74 07 42 43 00 43 01 9F  03 80 F0 FF FF 7F F0 FF  t.BC.C..........
06E0: FF 7F 6D 61 69 6E 02 80  1C 04 80 45 05 80 F0 FF  ..main.....E....
06F0: FF 7F F0 FF FF 7F 6F 76  6C 31 02 80 45 05 80 F0  ......ovl1..E...
0700: FF FF 7F F0 FF FF 7F 62  6C 6F 6E 02 80 45 06 80  .......blon..E..
0710: F0 FF FF 7F F0 FF FF 7F  62 6C 6F 6E 02 80 45 07  ........blon..E.
0720: 80 F8 FF FF 7F F8 FF FF  7F 77 31 38 61 02 80 1C  .........w18a...
0730: 08 80 45 05 80 F0 FF FF  7F F0 FF FF 7F 66 64 6F  ..E..........fdo
0740: 31 02 80 1C 09 80 45 05  80 F0 FF FF 7F F0 FF FF  1.....E.........
0750: 7F 62 6C 6F 66 02 80 03  01 10 01 80 46 00 47 00  .blof.......F.G.
0760: 0D 80 0E 80 02 80 0F 80  47 01 29 01 F0 FF FF 7F  ........G.).....
0770: 14 01 7F 07 02 00 10 01  80 00 7F 07 01 7F 07 20  ............... 
0780: 00 21 00                                          .!.             
```

#### Opcodes

```
  0: 0x06C2 [0x24] CREATE_DIALOG(message_id=7227*, default_option=1*, option_flags=0*)
    → "Enter the memory stream? [Yes./No.]"
  1: 0x06C9 [0x25] WAIT_DIALOG_SELECT()
  2: 0x06CA [0x02] IF !(Work_Zone[0] == 0*) GOTO 0x0774
  3: 0x06D2 [0x42] SET_CLI_EVENT_CANCEL_DATA()
  4: 0x06D3 [0x43] SEND_EVENT_UPDATE: Send pending tag to server (packet 0x005B)
  5: 0x06D5 [0x43] SEND_EVENT_UPDATE: Check pending flag (skip if not pending)
  6: 0x06D7 [0x9F] LOAD_SCHEDULED_TASK_ALT: Load scheduler "main" with entities [LocalPlayer, LocalPlayer], work=[73*, 0*]
  7: 0x06E8 [0x1C] WAIT(140* ticks)
  8: 0x06EB [0x45] LOAD_SCHEDULED_TASK: Load scheduler "ovl1" with entities [LocalPlayer, LocalPlayer], work=[200*, 0*]
  9: 0x06FC [0x45] LOAD_SCHEDULED_TASK: Load scheduler "blon" with entities [LocalPlayer, LocalPlayer], work=[200*, 0*]
 10: 0x070D [0x45] LOAD_SCHEDULED_TASK: Load scheduler "blon" with entities [LocalPlayer, LocalPlayer], work=[201*, 0*]
 11: 0x071E [0x45] LOAD_SCHEDULED_TASK: Load scheduler "w18a" with entities [EventEntity, EventEntity], work=[160*, 0*]
 12: 0x072F [0x1C] WAIT(270* ticks)
 13: 0x0732 [0x45] LOAD_SCHEDULED_TASK: Load scheduler "fdo1" with entities [LocalPlayer, LocalPlayer], work=[200*, 0*]
 14: 0x0743 [0x1C] WAIT(60* ticks)
 15: 0x0746 [0x45] LOAD_SCHEDULED_TASK: Load scheduler "blof" with entities [LocalPlayer, LocalPlayer], work=[200*, 0*]
 16: 0x0757 [0x03] Work_Zone[1] = 1*
 17: 0x075C [0x46] CAMERA_CONTROL: Restore default settings
 18: 0x075E [0x47] UPDATE_PLAYER_POS(268.286*, 426.335*, 0.000*, yaw=135.9°*)
 19: 0x0768 [0x47] WAIT_PLAYER_POS_UPDATE
 20: 0x076A [0x29] REQ_SET_WAIT(priority=0x01, entity_id=LocalPlayer, tag_num=0x14)
 21: 0x0771 [0x01] GOTO 0x077F
 22: 0x0774 [0x02] IF !(Work_Zone[0] == 1*) GOTO 0x077F
 23: 0x077C [0x01] GOTO 0x077F

SUBROUTINE_077F:
 24: 0x077F [0x20] SET_CLI_EVENT_UC_FLAG: Unlock player control
 25: 0x0781 [0x21] END_EVENT
 26: 0x0782 [0x00] END_REQSTACK()
```

### Event 40

#### Metadata

| Field        | Value     |
|--------------|-----------|
| Entrypoint   | 0x0783    |
| Data Size    | 193 bytes |
| Instructions | 27        |

```
      00 01 02 03 04 05 06 07  08 09 0A 0B 0C 0D 0E 0F
      -- -- -- -- -- -- -- --  -- -- -- -- -- -- -- --
0780:          24 00 80 01 80  02 80 25 02 00 10 02 80     $......%.....
0790: 00 35 08 42 43 00 43 01  9F 03 80 F0 FF FF 7F F0  .5.BC.C.........
07A0: FF FF 7F 6D 61 69 6E 02  80 1C 04 80 45 05 80 F0  ...main.....E...
07B0: FF FF 7F F0 FF FF 7F 6F  76 6C 31 02 80 45 05 80  .......ovl1..E..
07C0: F0 FF FF 7F F0 FF FF 7F  62 6C 6F 6E 02 80 45 06  ........blon..E.
07D0: 80 F0 FF FF 7F F0 FF FF  7F 62 6C 6F 6E 02 80 45  .........blon..E
07E0: 07 80 F8 FF FF 7F F8 FF  FF 7F 77 31 38 62 02 80  ..........w18b..
07F0: 1C 08 80 45 05 80 F0 FF  FF 7F F0 FF FF 7F 66 64  ...E..........fd
0800: 6F 31 02 80 1C 09 80 45  05 80 F0 FF FF 7F F0 FF  o1.....E........
0810: FF 7F 62 6C 6F 66 02 80  03 01 10 01 80 46 00 47  ..blof.......F.G
0820: 00 0D 80 0E 80 02 80 0F  80 47 01 29 01 F0 FF FF  .........G.)....
0830: 7F 14 01 40 08 02 00 10  01 80 00 40 08 01 40 08  ...@.......@..@.
0840: 20 00 21 00                                        .!.            
```

#### Opcodes

```
  0: 0x0783 [0x24] CREATE_DIALOG(message_id=7227*, default_option=1*, option_flags=0*)
    → "Enter the memory stream? [Yes./No.]"
  1: 0x078A [0x25] WAIT_DIALOG_SELECT()
  2: 0x078B [0x02] IF !(Work_Zone[0] == 0*) GOTO 0x0835
  3: 0x0793 [0x42] SET_CLI_EVENT_CANCEL_DATA()
  4: 0x0794 [0x43] SEND_EVENT_UPDATE: Send pending tag to server (packet 0x005B)
  5: 0x0796 [0x43] SEND_EVENT_UPDATE: Check pending flag (skip if not pending)
  6: 0x0798 [0x9F] LOAD_SCHEDULED_TASK_ALT: Load scheduler "main" with entities [LocalPlayer, LocalPlayer], work=[73*, 0*]
  7: 0x07A9 [0x1C] WAIT(140* ticks)
  8: 0x07AC [0x45] LOAD_SCHEDULED_TASK: Load scheduler "ovl1" with entities [LocalPlayer, LocalPlayer], work=[200*, 0*]
  9: 0x07BD [0x45] LOAD_SCHEDULED_TASK: Load scheduler "blon" with entities [LocalPlayer, LocalPlayer], work=[200*, 0*]
 10: 0x07CE [0x45] LOAD_SCHEDULED_TASK: Load scheduler "blon" with entities [LocalPlayer, LocalPlayer], work=[201*, 0*]
 11: 0x07DF [0x45] LOAD_SCHEDULED_TASK: Load scheduler "w18b" with entities [EventEntity, EventEntity], work=[160*, 0*]
 12: 0x07F0 [0x1C] WAIT(270* ticks)
 13: 0x07F3 [0x45] LOAD_SCHEDULED_TASK: Load scheduler "fdo1" with entities [LocalPlayer, LocalPlayer], work=[200*, 0*]
 14: 0x0804 [0x1C] WAIT(60* ticks)
 15: 0x0807 [0x45] LOAD_SCHEDULED_TASK: Load scheduler "blof" with entities [LocalPlayer, LocalPlayer], work=[200*, 0*]
 16: 0x0818 [0x03] Work_Zone[1] = 1*
 17: 0x081D [0x46] CAMERA_CONTROL: Restore default settings
 18: 0x081F [0x47] UPDATE_PLAYER_POS(268.286*, 426.335*, 0.000*, yaw=135.9°*)
 19: 0x0829 [0x47] WAIT_PLAYER_POS_UPDATE
 20: 0x082B [0x29] REQ_SET_WAIT(priority=0x01, entity_id=LocalPlayer, tag_num=0x14)
 21: 0x0832 [0x01] GOTO 0x0840
 22: 0x0835 [0x02] IF !(Work_Zone[0] == 1*) GOTO 0x0840
 23: 0x083D [0x01] GOTO 0x0840

SUBROUTINE_0840:
 24: 0x0840 [0x20] SET_CLI_EVENT_UC_FLAG: Unlock player control
 25: 0x0842 [0x21] END_EVENT
 26: 0x0843 [0x00] END_REQSTACK()
```

### Event 41

#### Metadata

| Field        | Value     |
|--------------|-----------|
| Entrypoint   | 0x0844    |
| Data Size    | 188 bytes |
| Instructions | 26        |

```
      00 01 02 03 04 05 06 07  08 09 0A 0B 0C 0D 0E 0F
      -- -- -- -- -- -- -- --  -- -- -- -- -- -- -- --
0840:             24 16 80 01  80 02 80 25 02 00 10 02      $......%....
0850: 80 00 F1 08 42 43 00 43  01 9F 03 80 F0 FF FF 7F  ....BC.C........
0860: F0 FF FF 7F 6D 61 69 6E  02 80 1C 04 80 45 05 80  ....main.....E..
0870: F0 FF FF 7F F0 FF FF 7F  6F 76 6C 31 02 80 45 05  ........ovl1..E.
0880: 80 F0 FF FF 7F F0 FF FF  7F 62 6C 6F 6E 02 80 45  .........blon..E
0890: 06 80 F0 FF FF 7F F0 FF  FF 7F 62 6C 6F 6E 02 80  ..........blon..
08A0: 45 07 80 F8 FF FF 7F F8  FF FF 7F 77 31 38 63 02  E..........w18c.
08B0: 80 1C 08 80 45 05 80 F0  FF FF 7F F0 FF FF 7F 66  ....E..........f
08C0: 64 6F 31 02 80 1C 09 80  45 05 80 F0 FF FF 7F F0  do1.....E.......
08D0: FF FF 7F 62 6C 6F 66 02  80 46 00 47 00 17 80 18  ...blof..F.G....
08E0: 80 02 80 19 80 47 01 29  01 F0 FF FF 7F 14 01 FC  .....G.)........
08F0: 08 02 00 10 01 80 00 FC  08 01 FC 08 20 00 21 00  ............ .!.
```

#### Opcodes

```
  0: 0x0844 [0x24] CREATE_DIALOG(message_id=7228*, default_option=1*, option_flags=0*)
    → "Return through the memory stream? [Yes./No.]"
  1: 0x084B [0x25] WAIT_DIALOG_SELECT()
  2: 0x084C [0x02] IF !(Work_Zone[0] == 0*) GOTO 0x08F1
  3: 0x0854 [0x42] SET_CLI_EVENT_CANCEL_DATA()
  4: 0x0855 [0x43] SEND_EVENT_UPDATE: Send pending tag to server (packet 0x005B)
  5: 0x0857 [0x43] SEND_EVENT_UPDATE: Check pending flag (skip if not pending)
  6: 0x0859 [0x9F] LOAD_SCHEDULED_TASK_ALT: Load scheduler "main" with entities [LocalPlayer, LocalPlayer], work=[73*, 0*]
  7: 0x086A [0x1C] WAIT(140* ticks)
  8: 0x086D [0x45] LOAD_SCHEDULED_TASK: Load scheduler "ovl1" with entities [LocalPlayer, LocalPlayer], work=[200*, 0*]
  9: 0x087E [0x45] LOAD_SCHEDULED_TASK: Load scheduler "blon" with entities [LocalPlayer, LocalPlayer], work=[200*, 0*]
 10: 0x088F [0x45] LOAD_SCHEDULED_TASK: Load scheduler "blon" with entities [LocalPlayer, LocalPlayer], work=[201*, 0*]
 11: 0x08A0 [0x45] LOAD_SCHEDULED_TASK: Load scheduler "w18c" with entities [EventEntity, EventEntity], work=[160*, 0*]
 12: 0x08B1 [0x1C] WAIT(270* ticks)
 13: 0x08B4 [0x45] LOAD_SCHEDULED_TASK: Load scheduler "fdo1" with entities [LocalPlayer, LocalPlayer], work=[200*, 0*]
 14: 0x08C5 [0x1C] WAIT(60* ticks)
 15: 0x08C8 [0x45] LOAD_SCHEDULED_TASK: Load scheduler "blof" with entities [LocalPlayer, LocalPlayer], work=[200*, 0*]
 16: 0x08D9 [0x46] CAMERA_CONTROL: Restore default settings
 17: 0x08DB [0x47] UPDATE_PLAYER_POS(185.891*, -52.331*, 0.000*, yaw=180.8°*)
 18: 0x08E5 [0x47] WAIT_PLAYER_POS_UPDATE
 19: 0x08E7 [0x29] REQ_SET_WAIT(priority=0x01, entity_id=LocalPlayer, tag_num=0x14)
 20: 0x08EE [0x01] GOTO 0x08FC
 21: 0x08F1 [0x02] IF !(Work_Zone[0] == 1*) GOTO 0x08FC
 22: 0x08F9 [0x01] GOTO 0x08FC

SUBROUTINE_08FC:
 23: 0x08FC [0x20] SET_CLI_EVENT_UC_FLAG: Unlock player control
 24: 0x08FE [0x21] END_EVENT
 25: 0x08FF [0x00] END_REQSTACK()
```

### Event 42

#### Metadata

| Field        | Value     |
|--------------|-----------|
| Entrypoint   | 0x0900    |
| Data Size    | 188 bytes |
| Instructions | 26        |

```
      00 01 02 03 04 05 06 07  08 09 0A 0B 0C 0D 0E 0F
      -- -- -- -- -- -- -- --  -- -- -- -- -- -- -- --
0900: 24 16 80 01 80 02 80 25  02 00 10 02 80 00 AD 09  $......%........
0910: 42 43 00 43 01 9F 03 80  F0 FF FF 7F F0 FF FF 7F  BC.C............
0920: 6D 61 69 6E 02 80 1C 04  80 45 05 80 F0 FF FF 7F  main.....E......
0930: F0 FF FF 7F 6F 76 6C 31  02 80 45 05 80 F0 FF FF  ....ovl1..E.....
0940: 7F F0 FF FF 7F 62 6C 6F  6E 02 80 45 06 80 F0 FF  .....blon..E....
0950: FF 7F F0 FF FF 7F 62 6C  6F 6E 02 80 45 07 80 F8  ......blon..E...
0960: FF FF 7F F8 FF FF 7F 77  31 38 64 02 80 1C 08 80  .......w18d.....
0970: 45 05 80 F0 FF FF 7F F0  FF FF 7F 66 64 6F 31 02  E..........fdo1.
0980: 80 1C 09 80 45 05 80 F0  FF FF 7F F0 FF FF 7F 62  ....E..........b
0990: 6C 6F 66 02 80 46 00 47  00 0A 80 0B 80 02 80 0C  lof..F.G........
09A0: 80 47 01 29 01 F0 FF FF  7F 14 01 B8 09 02 00 10  .G.)............
09B0: 01 80 00 B8 09 01 B8 09  20 00 21 00              ........ .!.    
```

#### Opcodes

```
  0: 0x0900 [0x24] CREATE_DIALOG(message_id=7228*, default_option=1*, option_flags=0*)
    → "Return through the memory stream? [Yes./No.]"
  1: 0x0907 [0x25] WAIT_DIALOG_SELECT()
  2: 0x0908 [0x02] IF !(Work_Zone[0] == 0*) GOTO 0x09AD
  3: 0x0910 [0x42] SET_CLI_EVENT_CANCEL_DATA()
  4: 0x0911 [0x43] SEND_EVENT_UPDATE: Send pending tag to server (packet 0x005B)
  5: 0x0913 [0x43] SEND_EVENT_UPDATE: Check pending flag (skip if not pending)
  6: 0x0915 [0x9F] LOAD_SCHEDULED_TASK_ALT: Load scheduler "main" with entities [LocalPlayer, LocalPlayer], work=[73*, 0*]
  7: 0x0926 [0x1C] WAIT(140* ticks)
  8: 0x0929 [0x45] LOAD_SCHEDULED_TASK: Load scheduler "ovl1" with entities [LocalPlayer, LocalPlayer], work=[200*, 0*]
  9: 0x093A [0x45] LOAD_SCHEDULED_TASK: Load scheduler "blon" with entities [LocalPlayer, LocalPlayer], work=[200*, 0*]
 10: 0x094B [0x45] LOAD_SCHEDULED_TASK: Load scheduler "blon" with entities [LocalPlayer, LocalPlayer], work=[201*, 0*]
 11: 0x095C [0x45] LOAD_SCHEDULED_TASK: Load scheduler "w18d" with entities [EventEntity, EventEntity], work=[160*, 0*]
 12: 0x096D [0x1C] WAIT(270* ticks)
 13: 0x0970 [0x45] LOAD_SCHEDULED_TASK: Load scheduler "fdo1" with entities [LocalPlayer, LocalPlayer], work=[200*, 0*]
 14: 0x0981 [0x1C] WAIT(60* ticks)
 15: 0x0984 [0x45] LOAD_SCHEDULED_TASK: Load scheduler "blof" with entities [LocalPlayer, LocalPlayer], work=[200*, 0*]
 16: 0x0995 [0x46] CAMERA_CONTROL: Restore default settings
 17: 0x0997 [0x47] UPDATE_PLAYER_POS(-180.333*, -44.965*, 0.000*, yaw=48.6°*)
 18: 0x09A1 [0x47] WAIT_PLAYER_POS_UPDATE
 19: 0x09A3 [0x29] REQ_SET_WAIT(priority=0x01, entity_id=LocalPlayer, tag_num=0x14)
 20: 0x09AA [0x01] GOTO 0x09B8
 21: 0x09AD [0x02] IF !(Work_Zone[0] == 1*) GOTO 0x09B8
 22: 0x09B5 [0x01] GOTO 0x09B8

SUBROUTINE_09B8:
 23: 0x09B8 [0x20] SET_CLI_EVENT_UC_FLAG: Unlock player control
 24: 0x09BA [0x21] END_EVENT
 25: 0x09BB [0x00] END_REQSTACK()
```

### Event 43

#### Metadata

| Field        | Value     |
|--------------|-----------|
| Entrypoint   | 0x09BC    |
| Data Size    | 188 bytes |
| Instructions | 26        |

```
      00 01 02 03 04 05 06 07  08 09 0A 0B 0C 0D 0E 0F
      -- -- -- -- -- -- -- --  -- -- -- -- -- -- -- --
09B0:                                      24 16 80 01              $...
09C0: 80 02 80 25 02 00 10 02  80 00 69 0A 42 43 00 43  ...%......i.BC.C
09D0: 01 9F 03 80 F0 FF FF 7F  F0 FF FF 7F 6D 61 69 6E  ............main
09E0: 02 80 1C 04 80 45 05 80  F0 FF FF 7F F0 FF FF 7F  .....E..........
09F0: 6F 76 6C 31 02 80 45 05  80 F0 FF FF 7F F0 FF FF  ovl1..E.........
0A00: 7F 62 6C 6F 6E 02 80 45  06 80 F0 FF FF 7F F0 FF  .blon..E........
0A10: FF 7F 62 6C 6F 6E 02 80  45 07 80 F8 FF FF 7F F8  ..blon..E.......
0A20: FF FF 7F 77 31 38 65 02  80 1C 08 80 45 05 80 F0  ...w18e.....E...
0A30: FF FF 7F F0 FF FF 7F 66  64 6F 31 02 80 1C 09 80  .......fdo1.....
0A40: 45 05 80 F0 FF FF 7F F0  FF FF 7F 62 6C 6F 66 02  E..........blof.
0A50: 80 46 00 47 00 0A 80 0B  80 02 80 0C 80 47 01 29  .F.G.........G.)
0A60: 01 F0 FF FF 7F 14 01 74  0A 02 00 10 01 80 00 74  .......t.......t
0A70: 0A 01 74 0A 20 00 21 00                           ..t. .!.        
```

#### Opcodes

```
  0: 0x09BC [0x24] CREATE_DIALOG(message_id=7228*, default_option=1*, option_flags=0*)
    → "Return through the memory stream? [Yes./No.]"
  1: 0x09C3 [0x25] WAIT_DIALOG_SELECT()
  2: 0x09C4 [0x02] IF !(Work_Zone[0] == 0*) GOTO 0x0A69
  3: 0x09CC [0x42] SET_CLI_EVENT_CANCEL_DATA()
  4: 0x09CD [0x43] SEND_EVENT_UPDATE: Send pending tag to server (packet 0x005B)
  5: 0x09CF [0x43] SEND_EVENT_UPDATE: Check pending flag (skip if not pending)
  6: 0x09D1 [0x9F] LOAD_SCHEDULED_TASK_ALT: Load scheduler "main" with entities [LocalPlayer, LocalPlayer], work=[73*, 0*]
  7: 0x09E2 [0x1C] WAIT(140* ticks)
  8: 0x09E5 [0x45] LOAD_SCHEDULED_TASK: Load scheduler "ovl1" with entities [LocalPlayer, LocalPlayer], work=[200*, 0*]
  9: 0x09F6 [0x45] LOAD_SCHEDULED_TASK: Load scheduler "blon" with entities [LocalPlayer, LocalPlayer], work=[200*, 0*]
 10: 0x0A07 [0x45] LOAD_SCHEDULED_TASK: Load scheduler "blon" with entities [LocalPlayer, LocalPlayer], work=[201*, 0*]
 11: 0x0A18 [0x45] LOAD_SCHEDULED_TASK: Load scheduler "w18e" with entities [EventEntity, EventEntity], work=[160*, 0*]
 12: 0x0A29 [0x1C] WAIT(270* ticks)
 13: 0x0A2C [0x45] LOAD_SCHEDULED_TASK: Load scheduler "fdo1" with entities [LocalPlayer, LocalPlayer], work=[200*, 0*]
 14: 0x0A3D [0x1C] WAIT(60* ticks)
 15: 0x0A40 [0x45] LOAD_SCHEDULED_TASK: Load scheduler "blof" with entities [LocalPlayer, LocalPlayer], work=[200*, 0*]
 16: 0x0A51 [0x46] CAMERA_CONTROL: Restore default settings
 17: 0x0A53 [0x47] UPDATE_PLAYER_POS(-180.333*, -44.965*, 0.000*, yaw=48.6°*)
 18: 0x0A5D [0x47] WAIT_PLAYER_POS_UPDATE
 19: 0x0A5F [0x29] REQ_SET_WAIT(priority=0x01, entity_id=LocalPlayer, tag_num=0x14)
 20: 0x0A66 [0x01] GOTO 0x0A74
 21: 0x0A69 [0x02] IF !(Work_Zone[0] == 1*) GOTO 0x0A74
 22: 0x0A71 [0x01] GOTO 0x0A74

SUBROUTINE_0A74:
 23: 0x0A74 [0x20] SET_CLI_EVENT_UC_FLAG: Unlock player control
 24: 0x0A76 [0x21] END_EVENT
 25: 0x0A77 [0x00] END_REQSTACK()
```

### Event 44

#### Metadata

| Field        | Value     |
|--------------|-----------|
| Entrypoint   | 0x0A78    |
| Data Size    | 188 bytes |
| Instructions | 26        |

```
      00 01 02 03 04 05 06 07  08 09 0A 0B 0C 0D 0E 0F
      -- -- -- -- -- -- -- --  -- -- -- -- -- -- -- --
0A70:                          24 16 80 01 80 02 80 25          $......%
0A80: 02 00 10 02 80 00 25 0B  42 43 00 43 01 9F 03 80  ......%.BC.C....
0A90: F0 FF FF 7F F0 FF FF 7F  6D 61 69 6E 02 80 1C 04  ........main....
0AA0: 80 45 05 80 F0 FF FF 7F  F0 FF FF 7F 6F 76 6C 31  .E..........ovl1
0AB0: 02 80 45 05 80 F0 FF FF  7F F0 FF FF 7F 62 6C 6F  ..E..........blo
0AC0: 6E 02 80 45 06 80 F0 FF  FF 7F F0 FF FF 7F 62 6C  n..E..........bl
0AD0: 6F 6E 02 80 45 07 80 F8  FF FF 7F F8 FF FF 7F 77  on..E..........w
0AE0: 31 38 66 02 80 1C 08 80  45 05 80 F0 FF FF 7F F0  18f.....E.......
0AF0: FF FF 7F 66 64 6F 31 02  80 1C 09 80 45 05 80 F0  ...fdo1.....E...
0B00: FF FF 7F F0 FF FF 7F 62  6C 6F 66 02 80 46 00 47  .......blof..F.G
0B10: 00 10 80 11 80 02 80 12  80 47 01 29 01 F0 FF FF  .........G.)....
0B20: 7F 14 01 30 0B 02 00 10  01 80 00 30 0B 01 30 0B  ...0.......0..0.
0B30: 20 00 21 00                                        .!.            
```

#### Opcodes

```
  0: 0x0A78 [0x24] CREATE_DIALOG(message_id=7228*, default_option=1*, option_flags=0*)
    → "Return through the memory stream? [Yes./No.]"
  1: 0x0A7F [0x25] WAIT_DIALOG_SELECT()
  2: 0x0A80 [0x02] IF !(Work_Zone[0] == 0*) GOTO 0x0B25
  3: 0x0A88 [0x42] SET_CLI_EVENT_CANCEL_DATA()
  4: 0x0A89 [0x43] SEND_EVENT_UPDATE: Send pending tag to server (packet 0x005B)
  5: 0x0A8B [0x43] SEND_EVENT_UPDATE: Check pending flag (skip if not pending)
  6: 0x0A8D [0x9F] LOAD_SCHEDULED_TASK_ALT: Load scheduler "main" with entities [LocalPlayer, LocalPlayer], work=[73*, 0*]
  7: 0x0A9E [0x1C] WAIT(140* ticks)
  8: 0x0AA1 [0x45] LOAD_SCHEDULED_TASK: Load scheduler "ovl1" with entities [LocalPlayer, LocalPlayer], work=[200*, 0*]
  9: 0x0AB2 [0x45] LOAD_SCHEDULED_TASK: Load scheduler "blon" with entities [LocalPlayer, LocalPlayer], work=[200*, 0*]
 10: 0x0AC3 [0x45] LOAD_SCHEDULED_TASK: Load scheduler "blon" with entities [LocalPlayer, LocalPlayer], work=[201*, 0*]
 11: 0x0AD4 [0x45] LOAD_SCHEDULED_TASK: Load scheduler "w18f" with entities [EventEntity, EventEntity], work=[160*, 0*]
 12: 0x0AE5 [0x1C] WAIT(270* ticks)
 13: 0x0AE8 [0x45] LOAD_SCHEDULED_TASK: Load scheduler "fdo1" with entities [LocalPlayer, LocalPlayer], work=[200*, 0*]
 14: 0x0AF9 [0x1C] WAIT(60* ticks)
 15: 0x0AFC [0x45] LOAD_SCHEDULED_TASK: Load scheduler "blof" with entities [LocalPlayer, LocalPlayer], work=[200*, 0*]
 16: 0x0B0D [0x46] CAMERA_CONTROL: Restore default settings
 17: 0x0B0F [0x47] UPDATE_PLAYER_POS(27.200*, -348.658*, 0.000*, yaw=227.6°*)
 18: 0x0B19 [0x47] WAIT_PLAYER_POS_UPDATE
 19: 0x0B1B [0x29] REQ_SET_WAIT(priority=0x01, entity_id=LocalPlayer, tag_num=0x14)
 20: 0x0B22 [0x01] GOTO 0x0B30
 21: 0x0B25 [0x02] IF !(Work_Zone[0] == 1*) GOTO 0x0B30
 22: 0x0B2D [0x01] GOTO 0x0B30

SUBROUTINE_0B30:
 23: 0x0B30 [0x20] SET_CLI_EVENT_UC_FLAG: Unlock player control
 24: 0x0B32 [0x21] END_EVENT
 25: 0x0B33 [0x00] END_REQSTACK()
```

### Event 45

#### Metadata

| Field        | Value     |
|--------------|-----------|
| Entrypoint   | 0x0B34    |
| Data Size    | 188 bytes |
| Instructions | 26        |

```
      00 01 02 03 04 05 06 07  08 09 0A 0B 0C 0D 0E 0F
      -- -- -- -- -- -- -- --  -- -- -- -- -- -- -- --
0B30:             24 16 80 01  80 02 80 25 02 00 10 02      $......%....
0B40: 80 00 E1 0B 42 43 00 43  01 9F 03 80 F0 FF FF 7F  ....BC.C........
0B50: F0 FF FF 7F 6D 61 69 6E  02 80 1C 04 80 45 05 80  ....main.....E..
0B60: F0 FF FF 7F F0 FF FF 7F  6F 76 6C 31 02 80 45 05  ........ovl1..E.
0B70: 80 F0 FF FF 7F F0 FF FF  7F 62 6C 6F 6E 02 80 45  .........blon..E
0B80: 06 80 F0 FF FF 7F F0 FF  FF 7F 62 6C 6F 6E 02 80  ..........blon..
0B90: 45 07 80 F8 FF FF 7F F8  FF FF 7F 77 31 38 67 02  E..........w18g.
0BA0: 80 1C 08 80 45 05 80 F0  FF FF 7F F0 FF FF 7F 66  ....E..........f
0BB0: 64 6F 31 02 80 1C 09 80  45 05 80 F0 FF FF 7F F0  do1.....E.......
0BC0: FF FF 7F 62 6C 6F 66 02  80 46 00 47 00 13 80 14  ...blof..F.G....
0BD0: 80 02 80 15 80 47 01 29  01 F0 FF FF 7F 14 01 EC  .....G.)........
0BE0: 0B 02 00 10 01 80 00 EC  0B 01 EC 0B 20 00 21 00  ............ .!.
```

#### Opcodes

```
  0: 0x0B34 [0x24] CREATE_DIALOG(message_id=7228*, default_option=1*, option_flags=0*)
    → "Return through the memory stream? [Yes./No.]"
  1: 0x0B3B [0x25] WAIT_DIALOG_SELECT()
  2: 0x0B3C [0x02] IF !(Work_Zone[0] == 0*) GOTO 0x0BE1
  3: 0x0B44 [0x42] SET_CLI_EVENT_CANCEL_DATA()
  4: 0x0B45 [0x43] SEND_EVENT_UPDATE: Send pending tag to server (packet 0x005B)
  5: 0x0B47 [0x43] SEND_EVENT_UPDATE: Check pending flag (skip if not pending)
  6: 0x0B49 [0x9F] LOAD_SCHEDULED_TASK_ALT: Load scheduler "main" with entities [LocalPlayer, LocalPlayer], work=[73*, 0*]
  7: 0x0B5A [0x1C] WAIT(140* ticks)
  8: 0x0B5D [0x45] LOAD_SCHEDULED_TASK: Load scheduler "ovl1" with entities [LocalPlayer, LocalPlayer], work=[200*, 0*]
  9: 0x0B6E [0x45] LOAD_SCHEDULED_TASK: Load scheduler "blon" with entities [LocalPlayer, LocalPlayer], work=[200*, 0*]
 10: 0x0B7F [0x45] LOAD_SCHEDULED_TASK: Load scheduler "blon" with entities [LocalPlayer, LocalPlayer], work=[201*, 0*]
 11: 0x0B90 [0x45] LOAD_SCHEDULED_TASK: Load scheduler "w18g" with entities [EventEntity, EventEntity], work=[160*, 0*]
 12: 0x0BA1 [0x1C] WAIT(270* ticks)
 13: 0x0BA4 [0x45] LOAD_SCHEDULED_TASK: Load scheduler "fdo1" with entities [LocalPlayer, LocalPlayer], work=[200*, 0*]
 14: 0x0BB5 [0x1C] WAIT(60* ticks)
 15: 0x0BB8 [0x45] LOAD_SCHEDULED_TASK: Load scheduler "blof" with entities [LocalPlayer, LocalPlayer], work=[200*, 0*]
 16: 0x0BC9 [0x46] CAMERA_CONTROL: Restore default settings
 17: 0x0BCB [0x47] UPDATE_PLAYER_POS(-186.883*, 469.374*, 0.000*, yaw=47.6°*)
 18: 0x0BD5 [0x47] WAIT_PLAYER_POS_UPDATE
 19: 0x0BD7 [0x29] REQ_SET_WAIT(priority=0x01, entity_id=LocalPlayer, tag_num=0x14)
 20: 0x0BDE [0x01] GOTO 0x0BEC
 21: 0x0BE1 [0x02] IF !(Work_Zone[0] == 1*) GOTO 0x0BEC
 22: 0x0BE9 [0x01] GOTO 0x0BEC

SUBROUTINE_0BEC:
 23: 0x0BEC [0x20] SET_CLI_EVENT_UC_FLAG: Unlock player control
 24: 0x0BEE [0x21] END_EVENT
 25: 0x0BEF [0x00] END_REQSTACK()
```

### Event 46

#### Metadata

| Field        | Value    |
|--------------|----------|
| Entrypoint   | 0x0BF0   |
| Data Size    | 53 bytes |
| Instructions | 15       |

```
      00 01 02 03 04 05 06 07  08 09 0A 0B 0C 0D 0E 0F
      -- -- -- -- -- -- -- --  -- -- -- -- -- -- -- --
0BF0: 20 01 24 1A 80 01 80 02  80 25 02 00 10 02 80 00   .$......%......
0C00: 16 0C 42 43 00 43 01 03  01 10 01 80 29 01 F0 FF  ..BC.C......)...
0C10: FF 7F 13 01 21 0C 02 00  10 01 80 00 21 0C 01 21  ....!.......!..!
0C20: 0C 20 00 21 00                                    . .!.           
```

#### Opcodes

```
  0: 0x0BF0 [0x20] SET_CLI_EVENT_UC_FLAG: Lock player control
  1: 0x0BF2 [0x24] CREATE_DIALOG(message_id=7229*, default_option=1*, option_flags=0*)
    → "Leave Promyvion? [Yes./No.]"
  2: 0x0BF9 [0x25] WAIT_DIALOG_SELECT()
  3: 0x0BFA [0x02] IF !(Work_Zone[0] == 0*) GOTO 0x0C16
  4: 0x0C02 [0x42] SET_CLI_EVENT_CANCEL_DATA()
  5: 0x0C03 [0x43] SEND_EVENT_UPDATE: Send pending tag to server (packet 0x005B)
  6: 0x0C05 [0x43] SEND_EVENT_UPDATE: Check pending flag (skip if not pending)
  7: 0x0C07 [0x03] Work_Zone[1] = 1*
  8: 0x0C0C [0x29] REQ_SET_WAIT(priority=0x01, entity_id=LocalPlayer, tag_num=0x13)
  9: 0x0C13 [0x01] GOTO 0x0C21
 10: 0x0C16 [0x02] IF !(Work_Zone[0] == 1*) GOTO 0x0C21
 11: 0x0C1E [0x01] GOTO 0x0C21

SUBROUTINE_0C21:
 12: 0x0C21 [0x20] SET_CLI_EVENT_UC_FLAG: Unlock player control
 13: 0x0C23 [0x21] END_EVENT
 14: 0x0C24 [0x00] END_REQSTACK()
```

### Event 47

#### Metadata

| Field        | Value    |
|--------------|----------|
| Entrypoint   | 0x0C25   |
| Data Size    | 41 bytes |
| Instructions | 5        |

```
      00 01 02 03 04 05 06 07  08 09 0A 0B 0C 0D 0E 0F
      -- -- -- -- -- -- -- --  -- -- -- -- -- -- -- --
0C20:                9F 03 80  F0 FF FF 7F F0 FF FF 7F       ...........
0C30: 6D 61 69 6E 02 80 1C 04  80 45 05 80 F0 FF FF 7F  main.....E......
0C40: F0 FF FF 7F 66 64 6F 31  02 80 1C 09 80 00        ....fdo1......  
```

#### Opcodes

```
  0: 0x0C25 [0x9F] LOAD_SCHEDULED_TASK_ALT: Load scheduler "main" with entities [LocalPlayer, LocalPlayer], work=[73*, 0*]
  1: 0x0C36 [0x1C] WAIT(140* ticks)
  2: 0x0C39 [0x45] LOAD_SCHEDULED_TASK: Load scheduler "fdo1" with entities [LocalPlayer, LocalPlayer], work=[200*, 0*]
  3: 0x0C4A [0x1C] WAIT(60* ticks)
  4: 0x0C4D [0x00] END_REQSTACK()
```

### Event 48

#### Metadata

| Field        | Value    |
|--------------|----------|
| Entrypoint   | 0x0C4E   |
| Data Size    | 38 bytes |
| Instructions | 4        |

```
      00 01 02 03 04 05 06 07  08 09 0A 0B 0C 0D 0E 0F
      -- -- -- -- -- -- -- --  -- -- -- -- -- -- -- --
0C40:                                            45 05                E.
0C50: 80 F0 FF FF 7F F0 FF FF  7F 66 64 69 31 02 80 9F  .........fdi1...
0C60: 1B 80 F0 FF FF 7F F0 FF  FF 7F 6D 61 69 6E 02 80  ..........main..
0C70: 1C 1C 80 00                                       ....            
```

#### Opcodes

```
  0: 0x0C4E [0x45] LOAD_SCHEDULED_TASK: Load scheduler "fdi1" with entities [LocalPlayer, LocalPlayer], work=[200*, 0*]
  1: 0x0C5F [0x9F] LOAD_SCHEDULED_TASK_ALT: Load scheduler "main" with entities [LocalPlayer, LocalPlayer], work=[74*, 0*]
  2: 0x0C70 [0x1C] WAIT(170* ticks)
  3: 0x0C73 [0x00] END_REQSTACK()
```

### Event 50

#### Metadata

| Field        | Value     |
|--------------|-----------|
| Entrypoint   | 0x0C74    |
| Data Size    | 494 bytes |
| Instructions | 58        |

```
      00 01 02 03 04 05 06 07  08 09 0A 0B 0C 0D 0E 0F
      -- -- -- -- -- -- -- --  -- -- -- -- -- -- -- --
0C70:             20 01 46 01  42 45 05 80 F0 FF FF 7F       .F.BE......
0C80: F0 FF FF 7F 66 64 6F 31  02 80 1C 1D 80 38 1E 80  ....fdo1.....8..
0C90: 45 05 80 F0 FF FF 7F F0  FF FF 7F 62 6C 6F 6E 02  E..........blon.
0CA0: 80 45 06 80 F0 FF FF 7F  F0 FF FF 7F 62 6C 6F 6E  .E..........blon
0CB0: 02 80 48 1F 80 1C 1D 80  45 05 80 F0 FF FF 7F F0  ..H.....E.......
0CC0: FF FF 7F 66 64 69 31 02  80 45 07 80 F8 FF FF 7F  ...fdi1..E......
0CD0: F8 FF FF 7F 31 38 73 31  02 80 1C 20 80 45 05 80  ....18s1... .E..
0CE0: F0 FF FF 7F F0 FF FF 7F  66 64 6F 31 02 80 1C 09  ........fdo1....
0CF0: 80 52 07 80 F8 FF FF 7F  F8 FF FF 7F 31 38 73 31  .R..........18s1
0D00: 1C 21 80 48 22 80 1C 21  80 45 05 80 F0 FF FF 7F  .!.H"..!.E......
0D10: F0 FF FF 7F 66 64 69 31  02 80 45 07 80 F8 FF FF  ....fdi1..E.....
0D20: 7F F8 FF FF 7F 31 38 73  32 02 80 1C 20 80 45 05  .....18s2... .E.
0D30: 80 F0 FF FF 7F F0 FF FF  7F 66 64 6F 31 02 80 1C  .........fdo1...
0D40: 09 80 52 07 80 F8 FF FF  7F F8 FF FF 7F 31 38 73  ..R..........18s
0D50: 32 1C 21 80 48 23 80 1C  21 80 45 05 80 F0 FF FF  2.!.H#..!.E.....
0D60: 7F F0 FF FF 7F 66 64 69  31 02 80 45 07 80 F8 FF  .....fdi1..E....
0D70: FF 7F F8 FF FF 7F 31 38  73 33 02 80 1C 20 80 45  ......18s3... .E
0D80: 05 80 F0 FF FF 7F F0 FF  FF 7F 66 64 6F 31 02 80  ..........fdo1..
0D90: 1C 09 80 52 07 80 F8 FF  FF 7F F8 FF FF 7F 31 38  ...R..........18
0DA0: 73 33 1C 21 80 48 24 80  1C 25 80 22 00 4E 00 F8  s3.!.H$..%.".N..
0DB0: FF FF 7F 80 F8 FF FF 7F  1C 09 80 45 05 80 F0 FF  ...........E....
0DC0: FF 7F F0 FF FF 7F 62 6C  6F 66 02 80 2C F0 FF FF  ......blof..,...
0DD0: 7F F0 FF FF 7F 72 65 73  31 53 F0 FF FF 7F F0 FF  .....res1S......
0DE0: FF 7F 72 65 73 31 45 07  80 F8 FF FF 7F F8 FF FF  ..res1E.........
0DF0: 7F 31 38 73 34 02 80 45  05 80 F0 FF FF 7F F0 FF  .18s4..E........
0E00: FF 7F 66 64 69 31 02 80  1C 21 80 2C F0 FF FF 7F  ..fdi1...!.,....
0E10: F0 FF FF 7F 72 65 73 32  53 F0 FF FF 7F F0 FF FF  ....res2S.......
0E20: 7F 72 65 73 32 1C 26 80  45 05 80 F0 FF FF 7F F0  .res2.&.E.......
0E30: FF FF 7F 66 64 6F 31 02  80 1C 09 80 52 07 80 F8  ...fdo1.....R...
0E40: FF FF 7F F8 FF FF 7F 31  38 73 34 45 05 80 F0 FF  .......18s4E....
0E50: FF 7F F0 FF FF 7F 66 64  69 31 02 80 46 00 20 00  ......fdi1..F. .
0E60: 21 00                                             !.              
```

#### Opcodes

```
  0: 0x0C74 [0x20] SET_CLI_EVENT_UC_FLAG: Lock player control
  1: 0x0C76 [0x46] CAMERA_CONTROL: Disable user control
  2: 0x0C78 [0x42] SET_CLI_EVENT_CANCEL_DATA()
  3: 0x0C79 [0x45] LOAD_SCHEDULED_TASK: Load scheduler "fdo1" with entities [LocalPlayer, LocalPlayer], work=[200*, 0*]
  4: 0x0C8A [0x1C] WAIT(300* ticks)
  5: 0x0C8D [0x38] SET_CLIENT_EVENT_MODE(mode=18*)
  6: 0x0C90 [0x45] LOAD_SCHEDULED_TASK: Load scheduler "blon" with entities [LocalPlayer, LocalPlayer], work=[200*, 0*]
  7: 0x0CA1 [0x45] LOAD_SCHEDULED_TASK: Load scheduler "blon" with entities [LocalPlayer, LocalPlayer], work=[201*, 0*]
  8: 0x0CB2 [0x48] [System] [7238*]:
    → "...Come, <Player>..."
  9: 0x0CB5 [0x1C] WAIT(300* ticks)
 10: 0x0CB8 [0x45] LOAD_SCHEDULED_TASK: Load scheduler "fdi1" with entities [LocalPlayer, LocalPlayer], work=[200*, 0*]
 11: 0x0CC9 [0x45] LOAD_SCHEDULED_TASK: Load scheduler "18s1" with entities [EventEntity, EventEntity], work=[160*, 0*]
 12: 0x0CDA [0x1C] WAIT(340* ticks)
 13: 0x0CDD [0x45] LOAD_SCHEDULED_TASK: Load scheduler "fdo1" with entities [LocalPlayer, LocalPlayer], work=[200*, 0*]
 14: 0x0CEE [0x1C] WAIT(60* ticks)
 15: 0x0CF1 [0x52] END_LOAD_SCHEDULER: End scheduler "18s1" with entities [EventEntity, EventEntity], work=160*
 16: 0x0D00 [0x1C] WAIT(120* ticks)
 17: 0x0D03 [0x48] [System] [7239*]:
    → "...It is...time..."
 18: 0x0D06 [0x1C] WAIT(120* ticks)
 19: 0x0D09 [0x45] LOAD_SCHEDULED_TASK: Load scheduler "fdi1" with entities [LocalPlayer, LocalPlayer], work=[200*, 0*]
 20: 0x0D1A [0x45] LOAD_SCHEDULED_TASK: Load scheduler "18s2" with entities [EventEntity, EventEntity], work=[160*, 0*]
 21: 0x0D2B [0x1C] WAIT(340* ticks)
 22: 0x0D2E [0x45] LOAD_SCHEDULED_TASK: Load scheduler "fdo1" with entities [LocalPlayer, LocalPlayer], work=[200*, 0*]
 23: 0x0D3F [0x1C] WAIT(60* ticks)
 24: 0x0D42 [0x52] END_LOAD_SCHEDULER: End scheduler "18s2" with entities [EventEntity, EventEntity], work=160*
 25: 0x0D51 [0x1C] WAIT(120* ticks)
 26: 0x0D54 [0x48] [System] [7240*]:
    → "...Return..."
 27: 0x0D57 [0x1C] WAIT(120* ticks)
 28: 0x0D5A [0x45] LOAD_SCHEDULED_TASK: Load scheduler "fdi1" with entities [LocalPlayer, LocalPlayer], work=[200*, 0*]
 29: 0x0D6B [0x45] LOAD_SCHEDULED_TASK: Load scheduler "18s3" with entities [EventEntity, EventEntity], work=[160*, 0*]
 30: 0x0D7C [0x1C] WAIT(340* ticks)
 31: 0x0D7F [0x45] LOAD_SCHEDULED_TASK: Load scheduler "fdo1" with entities [LocalPlayer, LocalPlayer], work=[200*, 0*]
 32: 0x0D90 [0x1C] WAIT(60* ticks)
 33: 0x0D93 [0x52] END_LOAD_SCHEDULER: End scheduler "18s3" with entities [EventEntity, EventEntity], work=160*
 34: 0x0DA2 [0x1C] WAIT(120* ticks)
 35: 0x0DA5 [0x48] [System] [7241*]:
    → "...to the darkness......"
 36: 0x0DA8 [0x1C] WAIT(180* ticks)
 37: 0x0DAB [0x22] ENTITY_HIDE_FLAG(enabled=0x00)
 38: 0x0DAD [0x4E] SET_ENTITY_HIDE_FLAG: Show EventEntity
 39: 0x0DB3 [0x80] LOAD_WAIT(entity=EventEntity)
 40: 0x0DB8 [0x1C] WAIT(60* ticks)
 41: 0x0DBB [0x45] LOAD_SCHEDULED_TASK: Load scheduler "blof" with entities [LocalPlayer, LocalPlayer], work=[200*, 0*]
 42: 0x0DCC [0x2C] CREATE_SCHEDULER_TASK: Create scheduler "res1" with entities [LocalPlayer, LocalPlayer]
 43: 0x0DD9 [0x53] WAIT_SCHEDULER_TASK: Wait for scheduler "res1" with entities [LocalPlayer, LocalPlayer]
 44: 0x0DE6 [0x45] LOAD_SCHEDULED_TASK: Load scheduler "18s4" with entities [EventEntity, EventEntity], work=[160*, 0*]
 45: 0x0DF7 [0x45] LOAD_SCHEDULED_TASK: Load scheduler "fdi1" with entities [LocalPlayer, LocalPlayer], work=[200*, 0*]
 46: 0x0E08 [0x1C] WAIT(120* ticks)
 47: 0x0E0B [0x2C] CREATE_SCHEDULER_TASK: Create scheduler "res2" with entities [LocalPlayer, LocalPlayer]
 48: 0x0E18 [0x53] WAIT_SCHEDULER_TASK: Wait for scheduler "res2" with entities [LocalPlayer, LocalPlayer]
 49: 0x0E25 [0x1C] WAIT(30* ticks)
 50: 0x0E28 [0x45] LOAD_SCHEDULED_TASK: Load scheduler "fdo1" with entities [LocalPlayer, LocalPlayer], work=[200*, 0*]
 51: 0x0E39 [0x1C] WAIT(60* ticks)
 52: 0x0E3C [0x52] END_LOAD_SCHEDULER: End scheduler "18s4" with entities [EventEntity, EventEntity], work=160*
 53: 0x0E4B [0x45] LOAD_SCHEDULED_TASK: Load scheduler "fdi1" with entities [LocalPlayer, LocalPlayer], work=[200*, 0*]
 54: 0x0E5C [0x46] CAMERA_CONTROL: Restore default settings
 55: 0x0E5E [0x20] SET_CLI_EVENT_UC_FLAG: Unlock player control
 56: 0x0E60 [0x21] END_EVENT
 57: 0x0E61 [0x00] END_REQSTACK()
```

### Event 51

#### Metadata

| Field        | Value     |
|--------------|-----------|
| Entrypoint   | 0x0E62    |
| Data Size    | 494 bytes |
| Instructions | 58        |

```
      00 01 02 03 04 05 06 07  08 09 0A 0B 0C 0D 0E 0F
      -- -- -- -- -- -- -- --  -- -- -- -- -- -- -- --
0E60:       20 01 46 01 42 45  05 80 F0 FF FF 7F F0 FF     .F.BE........
0E70: FF 7F 66 64 6F 31 02 80  1C 1D 80 38 1E 80 45 05  ..fdo1.....8..E.
0E80: 80 F0 FF FF 7F F0 FF FF  7F 62 6C 6F 6E 02 80 45  .........blon..E
0E90: 06 80 F0 FF FF 7F F0 FF  FF 7F 62 6C 6F 6E 02 80  ..........blon..
0EA0: 48 1F 80 1C 1D 80 45 05  80 F0 FF FF 7F F0 FF FF  H.....E.........
0EB0: 7F 66 64 69 31 02 80 45  07 80 F8 FF FF 7F F8 FF  .fdi1..E........
0EC0: FF 7F 31 38 73 31 02 80  1C 20 80 45 05 80 F0 FF  ..18s1... .E....
0ED0: FF 7F F0 FF FF 7F 66 64  6F 31 02 80 1C 09 80 52  ......fdo1.....R
0EE0: 07 80 F8 FF FF 7F F8 FF  FF 7F 31 38 73 31 1C 21  ..........18s1.!
0EF0: 80 48 27 80 1C 21 80 45  05 80 F0 FF FF 7F F0 FF  .H'..!.E........
0F00: FF 7F 66 64 69 31 02 80  45 07 80 F8 FF FF 7F F8  ..fdi1..E.......
0F10: FF FF 7F 31 38 73 32 02  80 1C 20 80 45 05 80 F0  ...18s2... .E...
0F20: FF FF 7F F0 FF FF 7F 66  64 6F 31 02 80 1C 09 80  .......fdo1.....
0F30: 52 07 80 F8 FF FF 7F F8  FF FF 7F 31 38 73 32 1C  R..........18s2.
0F40: 21 80 48 28 80 1C 21 80  45 05 80 F0 FF FF 7F F0  !.H(..!.E.......
0F50: FF FF 7F 66 64 69 31 02  80 45 07 80 F8 FF FF 7F  ...fdi1..E......
0F60: F8 FF FF 7F 31 38 73 33  02 80 1C 20 80 45 05 80  ....18s3... .E..
0F70: F0 FF FF 7F F0 FF FF 7F  66 64 6F 31 02 80 1C 09  ........fdo1....
0F80: 80 52 07 80 F8 FF FF 7F  F8 FF FF 7F 31 38 73 33  .R..........18s3
0F90: 1C 21 80 48 29 80 1C 25  80 22 00 4E 00 F8 FF FF  .!.H)..%.".N....
0FA0: 7F 80 F8 FF FF 7F 1C 09  80 45 05 80 F0 FF FF 7F  .........E......
0FB0: F0 FF FF 7F 62 6C 6F 66  02 80 2C F0 FF FF 7F F0  ....blof..,.....
0FC0: FF FF 7F 72 65 73 31 53  F0 FF FF 7F F0 FF FF 7F  ...res1S........
0FD0: 72 65 73 31 45 07 80 F8  FF FF 7F F8 FF FF 7F 31  res1E..........1
0FE0: 38 73 34 02 80 45 05 80  F0 FF FF 7F F0 FF FF 7F  8s4..E..........
0FF0: 66 64 69 31 02 80 1C 21  80 2C F0 FF FF 7F F0 FF  fdi1...!.,......
1000: FF 7F 72 65 73 32 53 F0  FF FF 7F F0 FF FF 7F 72  ..res2S........r
1010: 65 73 32 1C 26 80 45 05  80 F0 FF FF 7F F0 FF FF  es2.&.E.........
1020: 7F 66 64 6F 31 02 80 1C  09 80 52 07 80 F8 FF FF  .fdo1.....R.....
1030: 7F F8 FF FF 7F 31 38 73  34 45 05 80 F0 FF FF 7F  .....18s4E......
1040: F0 FF FF 7F 66 64 69 31  02 80 46 00 20 00 21 00  ....fdi1..F. .!.
```

#### Opcodes

```
  0: 0x0E62 [0x20] SET_CLI_EVENT_UC_FLAG: Lock player control
  1: 0x0E64 [0x46] CAMERA_CONTROL: Disable user control
  2: 0x0E66 [0x42] SET_CLI_EVENT_CANCEL_DATA()
  3: 0x0E67 [0x45] LOAD_SCHEDULED_TASK: Load scheduler "fdo1" with entities [LocalPlayer, LocalPlayer], work=[200*, 0*]
  4: 0x0E78 [0x1C] WAIT(300* ticks)
  5: 0x0E7B [0x38] SET_CLIENT_EVENT_MODE(mode=18*)
  6: 0x0E7E [0x45] LOAD_SCHEDULED_TASK: Load scheduler "blon" with entities [LocalPlayer, LocalPlayer], work=[200*, 0*]
  7: 0x0E8F [0x45] LOAD_SCHEDULED_TASK: Load scheduler "blon" with entities [LocalPlayer, LocalPlayer], work=[201*, 0*]
  8: 0x0EA0 [0x48] [System] [7238*]:
    → "...Come, <Player>..."
  9: 0x0EA3 [0x1C] WAIT(300* ticks)
 10: 0x0EA6 [0x45] LOAD_SCHEDULED_TASK: Load scheduler "fdi1" with entities [LocalPlayer, LocalPlayer], work=[200*, 0*]
 11: 0x0EB7 [0x45] LOAD_SCHEDULED_TASK: Load scheduler "18s1" with entities [EventEntity, EventEntity], work=[160*, 0*]
 12: 0x0EC8 [0x1C] WAIT(340* ticks)
 13: 0x0ECB [0x45] LOAD_SCHEDULED_TASK: Load scheduler "fdo1" with entities [LocalPlayer, LocalPlayer], work=[200*, 0*]
 14: 0x0EDC [0x1C] WAIT(60* ticks)
 15: 0x0EDF [0x52] END_LOAD_SCHEDULER: End scheduler "18s1" with entities [EventEntity, EventEntity], work=160*
 16: 0x0EEE [0x1C] WAIT(120* ticks)
 17: 0x0EF1 [0x48] [System] [7242*]:
    → "...Wheels are...in motion..."
 18: 0x0EF4 [0x1C] WAIT(120* ticks)
 19: 0x0EF7 [0x45] LOAD_SCHEDULED_TASK: Load scheduler "fdi1" with entities [LocalPlayer, LocalPlayer], work=[200*, 0*]
 20: 0x0F08 [0x45] LOAD_SCHEDULED_TASK: Load scheduler "18s2" with entities [EventEntity, EventEntity], work=[160*, 0*]
 21: 0x0F19 [0x1C] WAIT(340* ticks)
 22: 0x0F1C [0x45] LOAD_SCHEDULED_TASK: Load scheduler "fdo1" with entities [LocalPlayer, LocalPlayer], work=[200*, 0*]
 23: 0x0F2D [0x1C] WAIT(60* ticks)
 24: 0x0F30 [0x52] END_LOAD_SCHEDULER: End scheduler "18s2" with entities [EventEntity, EventEntity], work=160*
 25: 0x0F3F [0x1C] WAIT(120* ticks)
 26: 0x0F42 [0x48] [System] [7243*]:
    → "...Darkness......calls..."
 27: 0x0F45 [0x1C] WAIT(120* ticks)
 28: 0x0F48 [0x45] LOAD_SCHEDULED_TASK: Load scheduler "fdi1" with entities [LocalPlayer, LocalPlayer], work=[200*, 0*]
 29: 0x0F59 [0x45] LOAD_SCHEDULED_TASK: Load scheduler "18s3" with entities [EventEntity, EventEntity], work=[160*, 0*]
 30: 0x0F6A [0x1C] WAIT(340* ticks)
 31: 0x0F6D [0x45] LOAD_SCHEDULED_TASK: Load scheduler "fdo1" with entities [LocalPlayer, LocalPlayer], work=[200*, 0*]
 32: 0x0F7E [0x1C] WAIT(60* ticks)
 33: 0x0F81 [0x52] END_LOAD_SCHEDULER: End scheduler "18s3" with entities [EventEntity, EventEntity], work=160*
 34: 0x0F90 [0x1C] WAIT(120* ticks)
 35: 0x0F93 [0x48] [System] [7244*]:
    → "...Heed...your destiny......"
 36: 0x0F96 [0x1C] WAIT(180* ticks)
 37: 0x0F99 [0x22] ENTITY_HIDE_FLAG(enabled=0x00)
 38: 0x0F9B [0x4E] SET_ENTITY_HIDE_FLAG: Show EventEntity
 39: 0x0FA1 [0x80] LOAD_WAIT(entity=EventEntity)
 40: 0x0FA6 [0x1C] WAIT(60* ticks)
 41: 0x0FA9 [0x45] LOAD_SCHEDULED_TASK: Load scheduler "blof" with entities [LocalPlayer, LocalPlayer], work=[200*, 0*]
 42: 0x0FBA [0x2C] CREATE_SCHEDULER_TASK: Create scheduler "res1" with entities [LocalPlayer, LocalPlayer]
 43: 0x0FC7 [0x53] WAIT_SCHEDULER_TASK: Wait for scheduler "res1" with entities [LocalPlayer, LocalPlayer]
 44: 0x0FD4 [0x45] LOAD_SCHEDULED_TASK: Load scheduler "18s4" with entities [EventEntity, EventEntity], work=[160*, 0*]
 45: 0x0FE5 [0x45] LOAD_SCHEDULED_TASK: Load scheduler "fdi1" with entities [LocalPlayer, LocalPlayer], work=[200*, 0*]
 46: 0x0FF6 [0x1C] WAIT(120* ticks)
 47: 0x0FF9 [0x2C] CREATE_SCHEDULER_TASK: Create scheduler "res2" with entities [LocalPlayer, LocalPlayer]
 48: 0x1006 [0x53] WAIT_SCHEDULER_TASK: Wait for scheduler "res2" with entities [LocalPlayer, LocalPlayer]
 49: 0x1013 [0x1C] WAIT(30* ticks)
 50: 0x1016 [0x45] LOAD_SCHEDULED_TASK: Load scheduler "fdo1" with entities [LocalPlayer, LocalPlayer], work=[200*, 0*]
 51: 0x1027 [0x1C] WAIT(60* ticks)
 52: 0x102A [0x52] END_LOAD_SCHEDULER: End scheduler "18s4" with entities [EventEntity, EventEntity], work=160*
 53: 0x1039 [0x45] LOAD_SCHEDULED_TASK: Load scheduler "fdi1" with entities [LocalPlayer, LocalPlayer], work=[200*, 0*]
 54: 0x104A [0x46] CAMERA_CONTROL: Restore default settings
 55: 0x104C [0x20] SET_CLI_EVENT_UC_FLAG: Unlock player control
 56: 0x104E [0x21] END_EVENT
 57: 0x104F [0x00] END_REQSTACK()
```

### Event 52

#### Metadata

| Field        | Value     |
|--------------|-----------|
| Entrypoint   | 0x1050    |
| Data Size    | 494 bytes |
| Instructions | 58        |

```
      00 01 02 03 04 05 06 07  08 09 0A 0B 0C 0D 0E 0F
      -- -- -- -- -- -- -- --  -- -- -- -- -- -- -- --
1050: 20 01 46 01 42 45 05 80  F0 FF FF 7F F0 FF FF 7F   .F.BE..........
1060: 66 64 6F 31 02 80 1C 1D  80 38 1E 80 45 05 80 F0  fdo1.....8..E...
1070: FF FF 7F F0 FF FF 7F 62  6C 6F 6E 02 80 45 06 80  .......blon..E..
1080: F0 FF FF 7F F0 FF FF 7F  62 6C 6F 6E 02 80 48 1F  ........blon..H.
1090: 80 1C 1D 80 45 05 80 F0  FF FF 7F F0 FF FF 7F 66  ....E..........f
10A0: 64 69 31 02 80 45 07 80  F8 FF FF 7F F8 FF FF 7F  di1..E..........
10B0: 31 38 73 31 02 80 1C 20  80 45 05 80 F0 FF FF 7F  18s1... .E......
10C0: F0 FF FF 7F 66 64 6F 31  02 80 1C 09 80 52 07 80  ....fdo1.....R..
10D0: F8 FF FF 7F F8 FF FF 7F  31 38 73 31 1C 21 80 48  ........18s1.!.H
10E0: 2A 80 1C 21 80 45 05 80  F0 FF FF 7F F0 FF FF 7F  *..!.E..........
10F0: 66 64 69 31 02 80 45 07  80 F8 FF FF 7F F8 FF FF  fdi1..E.........
1100: 7F 31 38 73 32 02 80 1C  20 80 45 05 80 F0 FF FF  .18s2... .E.....
1110: 7F F0 FF FF 7F 66 64 6F  31 02 80 1C 09 80 52 07  .....fdo1.....R.
1120: 80 F8 FF FF 7F F8 FF FF  7F 31 38 73 32 1C 21 80  .........18s2.!.
1130: 48 2B 80 1C 21 80 45 05  80 F0 FF FF 7F F0 FF FF  H+..!.E.........
1140: 7F 66 64 69 31 02 80 45  07 80 F8 FF FF 7F F8 FF  .fdi1..E........
1150: FF 7F 31 38 73 33 02 80  1C 20 80 45 05 80 F0 FF  ..18s3... .E....
1160: FF 7F F0 FF FF 7F 66 64  6F 31 02 80 1C 09 80 52  ......fdo1.....R
1170: 07 80 F8 FF FF 7F F8 FF  FF 7F 31 38 73 33 1C 21  ..........18s3.!
1180: 80 48 2C 80 1C 25 80 22  00 4E 00 F8 FF FF 7F 80  .H,..%.".N......
1190: F8 FF FF 7F 1C 09 80 45  05 80 F0 FF FF 7F F0 FF  .......E........
11A0: FF 7F 62 6C 6F 66 02 80  2C F0 FF FF 7F F0 FF FF  ..blof..,.......
11B0: 7F 72 65 73 31 53 F0 FF  FF 7F F0 FF FF 7F 72 65  .res1S........re
11C0: 73 31 45 07 80 F8 FF FF  7F F8 FF FF 7F 31 38 73  s1E..........18s
11D0: 34 02 80 45 05 80 F0 FF  FF 7F F0 FF FF 7F 66 64  4..E..........fd
11E0: 69 31 02 80 1C 21 80 2C  F0 FF FF 7F F0 FF FF 7F  i1...!.,........
11F0: 72 65 73 32 53 F0 FF FF  7F F0 FF FF 7F 72 65 73  res2S........res
1200: 32 1C 26 80 45 05 80 F0  FF FF 7F F0 FF FF 7F 66  2.&.E..........f
1210: 64 6F 31 02 80 1C 09 80  52 07 80 F8 FF FF 7F F8  do1.....R.......
1220: FF FF 7F 31 38 73 34 45  05 80 F0 FF FF 7F F0 FF  ...18s4E........
1230: FF 7F 66 64 69 31 02 80  46 00 20 00 21 00        ..fdi1..F. .!.  
```

#### Opcodes

```
  0: 0x1050 [0x20] SET_CLI_EVENT_UC_FLAG: Lock player control
  1: 0x1052 [0x46] CAMERA_CONTROL: Disable user control
  2: 0x1054 [0x42] SET_CLI_EVENT_CANCEL_DATA()
  3: 0x1055 [0x45] LOAD_SCHEDULED_TASK: Load scheduler "fdo1" with entities [LocalPlayer, LocalPlayer], work=[200*, 0*]
  4: 0x1066 [0x1C] WAIT(300* ticks)
  5: 0x1069 [0x38] SET_CLIENT_EVENT_MODE(mode=18*)
  6: 0x106C [0x45] LOAD_SCHEDULED_TASK: Load scheduler "blon" with entities [LocalPlayer, LocalPlayer], work=[200*, 0*]
  7: 0x107D [0x45] LOAD_SCHEDULED_TASK: Load scheduler "blon" with entities [LocalPlayer, LocalPlayer], work=[201*, 0*]
  8: 0x108E [0x48] [System] [7238*]:
    → "...Come, <Player>..."
  9: 0x1091 [0x1C] WAIT(300* ticks)
 10: 0x1094 [0x45] LOAD_SCHEDULED_TASK: Load scheduler "fdi1" with entities [LocalPlayer, LocalPlayer], work=[200*, 0*]
 11: 0x10A5 [0x45] LOAD_SCHEDULED_TASK: Load scheduler "18s1" with entities [EventEntity, EventEntity], work=[160*, 0*]
 12: 0x10B6 [0x1C] WAIT(340* ticks)
 13: 0x10B9 [0x45] LOAD_SCHEDULED_TASK: Load scheduler "fdo1" with entities [LocalPlayer, LocalPlayer], work=[200*, 0*]
 14: 0x10CA [0x1C] WAIT(60* ticks)
 15: 0x10CD [0x52] END_LOAD_SCHEDULER: End scheduler "18s1" with entities [EventEntity, EventEntity], work=160*
 16: 0x10DC [0x1C] WAIT(120* ticks)
 17: 0x10DF [0x48] [System] [7245*]:
    → "...Why...do you struggle...?"
 18: 0x10E2 [0x1C] WAIT(120* ticks)
 19: 0x10E5 [0x45] LOAD_SCHEDULED_TASK: Load scheduler "fdi1" with entities [LocalPlayer, LocalPlayer], work=[200*, 0*]
 20: 0x10F6 [0x45] LOAD_SCHEDULED_TASK: Load scheduler "18s2" with entities [EventEntity, EventEntity], work=[160*, 0*]
 21: 0x1107 [0x1C] WAIT(340* ticks)
 22: 0x110A [0x45] LOAD_SCHEDULED_TASK: Load scheduler "fdo1" with entities [LocalPlayer, LocalPlayer], work=[200*, 0*]
 23: 0x111B [0x1C] WAIT(60* ticks)
 24: 0x111E [0x52] END_LOAD_SCHEDULER: End scheduler "18s2" with entities [EventEntity, EventEntity], work=160*
 25: 0x112D [0x1C] WAIT(120* ticks)
 26: 0x1130 [0x48] [System] [7246*]:
    → "...Face...the darkness..."
 27: 0x1133 [0x1C] WAIT(120* ticks)
 28: 0x1136 [0x45] LOAD_SCHEDULED_TASK: Load scheduler "fdi1" with entities [LocalPlayer, LocalPlayer], work=[200*, 0*]
 29: 0x1147 [0x45] LOAD_SCHEDULED_TASK: Load scheduler "18s3" with entities [EventEntity, EventEntity], work=[160*, 0*]
 30: 0x1158 [0x1C] WAIT(340* ticks)
 31: 0x115B [0x45] LOAD_SCHEDULED_TASK: Load scheduler "fdo1" with entities [LocalPlayer, LocalPlayer], work=[200*, 0*]
 32: 0x116C [0x1C] WAIT(60* ticks)
 33: 0x116F [0x52] END_LOAD_SCHEDULER: End scheduler "18s3" with entities [EventEntity, EventEntity], work=160*
 34: 0x117E [0x1C] WAIT(120* ticks)
 35: 0x1181 [0x48] [System] [7247*]:
    → "...Face...your inner...self......"
 36: 0x1184 [0x1C] WAIT(180* ticks)
 37: 0x1187 [0x22] ENTITY_HIDE_FLAG(enabled=0x00)
 38: 0x1189 [0x4E] SET_ENTITY_HIDE_FLAG: Show EventEntity
 39: 0x118F [0x80] LOAD_WAIT(entity=EventEntity)
 40: 0x1194 [0x1C] WAIT(60* ticks)
 41: 0x1197 [0x45] LOAD_SCHEDULED_TASK: Load scheduler "blof" with entities [LocalPlayer, LocalPlayer], work=[200*, 0*]
 42: 0x11A8 [0x2C] CREATE_SCHEDULER_TASK: Create scheduler "res1" with entities [LocalPlayer, LocalPlayer]
 43: 0x11B5 [0x53] WAIT_SCHEDULER_TASK: Wait for scheduler "res1" with entities [LocalPlayer, LocalPlayer]
 44: 0x11C2 [0x45] LOAD_SCHEDULED_TASK: Load scheduler "18s4" with entities [EventEntity, EventEntity], work=[160*, 0*]
 45: 0x11D3 [0x45] LOAD_SCHEDULED_TASK: Load scheduler "fdi1" with entities [LocalPlayer, LocalPlayer], work=[200*, 0*]
 46: 0x11E4 [0x1C] WAIT(120* ticks)
 47: 0x11E7 [0x2C] CREATE_SCHEDULER_TASK: Create scheduler "res2" with entities [LocalPlayer, LocalPlayer]
 48: 0x11F4 [0x53] WAIT_SCHEDULER_TASK: Wait for scheduler "res2" with entities [LocalPlayer, LocalPlayer]
 49: 0x1201 [0x1C] WAIT(30* ticks)
 50: 0x1204 [0x45] LOAD_SCHEDULED_TASK: Load scheduler "fdo1" with entities [LocalPlayer, LocalPlayer], work=[200*, 0*]
 51: 0x1215 [0x1C] WAIT(60* ticks)
 52: 0x1218 [0x52] END_LOAD_SCHEDULER: End scheduler "18s4" with entities [EventEntity, EventEntity], work=160*
 53: 0x1227 [0x45] LOAD_SCHEDULED_TASK: Load scheduler "fdi1" with entities [LocalPlayer, LocalPlayer], work=[200*, 0*]
 54: 0x1238 [0x46] CAMERA_CONTROL: Restore default settings
 55: 0x123A [0x20] SET_CLI_EVENT_UC_FLAG: Unlock player control
 56: 0x123C [0x21] END_EVENT
 57: 0x123D [0x00] END_REQSTACK()
```
