# Event 7011

## Metadata

| Field           | Value    |
|-----------------|----------|
| Event Index     | 5/9      |
| Offset          | 0x03AF   |
| Data Size       | 54 bytes |
| Calculated Size | 54 bytes |
| Instructions    | 14       |

```
      00 01 02 03 04 05 06 07  08 09 0A 0B 0C 0D 0E 0F
      -- -- -- -- -- -- -- --  -- -- -- -- -- -- -- --
03A0:                                               42                 B
03B0: 1A 98 04 1E F0 FF FF 7F  03 06 10 02 10 15 06 10  ................
03C0: 1F 80 03 07 10 02 10 3F  07 10 07 10 1F 80 2B 8F  .......?......+.
03D0: 52 07 01 29 80 23 2B 8F  52 07 01 31 80 23 03 01  R..).#+.R..1.#..
03E0: 10 28 80 21 00                                    .(.!.           
```

## Opcodes

```
  0: 0x03AF [0x42] SET_CLI_EVENT_CANCEL_DATA()
  1: 0x03B0 [0x1A] CALL_SUBROUTINE(address=0x0498)
  2: 0x03B3 [0x1E] EventEntity looks at LocalPlayer and starts talking
  3: 0x03B8 [0x03] Work_Zone[6] = Work_Zone[2]
  4: 0x03BD [0x15] Work_Zone[6] /= 60*
  5: 0x03C2 [0x03] Work_Zone[7] = Work_Zone[2]
  6: 0x03C7 [0x3F] Work_Zone[7] = Work_Zone[7] % 60*
  7: 0x03CE [0x2B] Yvantoine (ID: 17257103/0x0107528F) [10987*]:
    → "Welcome back! Let's check your time, shall we?\u0007You cleared the course in 
\u0004 minute\u007F\u0012\u0004[/s] 
\u0005 second\u007F\u0012\u0005[/s].\u007F1\u0000\u0007"
  8: 0x03D5 [0x23] WAIT_FOR_DIALOG_INTERACTION
  9: 0x03D6 [0x2B] Yvantoine (ID: 17257103/0x0107528F) [10993*]:
    → "Oh no! I'm afraid your time falls short of qualification!\u0007As much as I want to give you a passing grade, headquarters wouldn't let me hear the end of it.\u0000\u0007"
 10: 0x03DD [0x23] WAIT_FOR_DIALOG_INTERACTION
 11: 0x03DE [0x03] Work_Zone[1] = 5*
 12: 0x03E3 [0x21] END_EVENT
 13: 0x03E4 [0x00] END_REQSTACK()
```
