# 17576444

## Common Data

| Field            | Value                            |
|------------------|----------------------------------|
| Zone             | The Eldieme Necropolis (ID: 195) |
| Block Size       | 1172 bytes                       |
| Total Events     | 4                                |
| References Count | 33                               |

## List of Events

| Event ID              | Entrypoint   |   Size |   Instructions |
|-----------------------|--------------|--------|----------------|
| [65535](#event-65535) | 0x0000       |    658 |             62 |
| [150](#event-150)     | 0x0292       |     10 |              6 |
| [152](#event-152)     | 0x029C       |     27 |             10 |
| [151](#event-151)     | 0x02B7       |    310 |             83 |

## DAT References (imed_data)

|   Index | Hex Value   |   Dec Value |
|---------|-------------|-------------|
|       0 | 0x00C8      |         200 |
|       1 | 0x0000      |           0 |
|       2 | 0x00C9      |         201 |
|       3 | 0x0001      |           1 |
|       4 | 0x002D      |          45 |
|       5 | 0x0002      |           2 |
|       6 | 0x001E      |          30 |
|       7 | 0x00D7      |         215 |
|       8 | 0x1CA4      |        7332 |
|       9 | 0x2D6D      |       11629 |
|      10 | 0x0063      |          99 |
|      11 | 0x2D70      |       11632 |
|      12 | 0x2D71      |       11633 |
|      13 | 0x2D65      |       11621 |
|      14 | 0x2D66      |       11622 |
|      15 | 0x0003      |           3 |
|      16 | 0x2D68      |       11624 |
|      17 | 0x2D69      |       11625 |
|      18 | 0x2D6A      |       11626 |
|      19 | 0x2D6B      |       11627 |
|      20 | 0x2D6C      |       11628 |
|      21 | 0x2D76      |       11638 |
|      22 | 0x2D77      |       11639 |
|      23 | 0x2D78      |       11640 |
|      24 | 0x2D79      |       11641 |
|      25 | 0x2D7A      |       11642 |
|      26 | 0x2D7B      |       11643 |
|      27 | 0x2D7C      |       11644 |
|      28 | 0x005A      |          90 |
|      29 | 0x2D73      |       11635 |
|      30 | 0x2D6E      |       11630 |
|      31 | 0x2D6F      |       11631 |
|      32 | 0x2D67      |       11623 |

## String References

- **7332**: The voice of a young woman rings in your head.
- **11621**: "Rune cipher...tication...uired."
- **11622**: "[./Ig.../Ge...s/...bra/Te/...por/U.../Lu.../...ebrae]..."
- **11623**: "Unabl...res...error. Term...func...ty."
- **11624**: "Auth......succ...ful."
- **11625**: "Pers...ector $2 crea...in Rune Containment Mode. Now boo...g."
- **11626**: "B...comple... ...acce...Per...Sec...$2."
- **11627**: "He...<Player>."
- **11628**: "You h...1 unhe....message. Rela...eard mess...telepa..."
- **11629**: "All mess......heard."
- **11630**: "Recor...rd messa...rune st..."
- **11631**: "...inating Rune...ainment Mo...r succ......ording."
- **11632**: "This ter......ently in Sa...ode and......not be util..."
- **11633**: "Emerg......ge playb...servi......e unl...ith th...ropria...une cipher."
- **11635**: A cumbrous silence descends as the echoes of that mysterious internal voice fade away.

## Events

### Event 65535

#### Metadata

| Field        | Value     |
|--------------|-----------|
| Entrypoint   | 0x0000    |
| Data Size    | 658 bytes |
| Instructions | 1         |

```
      00 01 02 03 04 05 06 07  08 09 0A 0B 0C 0D 0E 0F
      -- -- -- -- -- -- -- --  -- -- -- -- -- -- -- --
0000: 00 45 00 80 F0 FF FF 7F  F0 FF FF 7F 66 64 69 30  .E..........fdi0
0010: 01 80 55 00 80 F0 FF FF  7F F0 FF FF 7F 66 64 69  ..U..........fdi
0020: 30 1B 45 00 80 F0 FF FF  7F F0 FF FF 7F 66 64 6F  0.E..........fdo
0030: 30 01 80 55 00 80 F0 FF  FF 7F F0 FF FF 7F 66 64  0..U..........fd
0040: 6F 30 1B 45 00 80 F0 FF  FF 7F F0 FF FF 7F 66 64  o0.E..........fd
0050: 69 31 01 80 55 00 80 F0  FF FF 7F F0 FF FF 7F 66  i1..U..........f
0060: 64 69 31 1B 45 00 80 F0  FF FF 7F F0 FF FF 7F 66  di1.E..........f
0070: 64 6F 31 01 80 55 00 80  F0 FF FF 7F F0 FF FF 7F  do1..U..........
0080: 66 64 6F 31 1B 45 02 80  F0 FF FF 7F F0 FF FF 7F  fdo1.E..........
0090: 77 68 69 31 01 80 55 02  80 F0 FF FF 7F F0 FF FF  whi1..U.........
00A0: 7F 77 68 69 31 1B 45 02  80 F0 FF FF 7F F0 FF FF  .whi1.E.........
00B0: 7F 77 68 6F 31 01 80 55  02 80 F0 FF FF 7F F0 FF  .who1..U........
00C0: FF 7F 77 68 6F 31 1B 45  02 80 F0 FF FF 7F F0 FF  ..who1.E........
00D0: FF 7F 77 68 6F 32 01 80  55 02 80 F0 FF FF 7F F0  ..who2..U.......
00E0: FF FF 7F 77 68 6F 32 1B  45 02 80 F0 FF FF 7F F0  ...who2.E.......
00F0: FF FF 7F 77 68 6F 33 01  80 55 02 80 F0 FF FF 7F  ...who3..U......
0100: F0 FF FF 7F 77 68 6F 33  1B 62 03 80 F0 FF FF 7F  ....who3.b......
0110: F0 FF FF 7F 6D 61 69 6E  01 80 1C 04 80 45 00 80  ....main.....E..
0120: F0 FF FF 7F F0 FF FF 7F  66 64 6F 31 01 80 55 00  ........fdo1..U.
0130: 80 F0 FF FF 7F F0 FF FF  7F 66 64 6F 31 1B 45 00  .........fdo1.E.
0140: 80 F0 FF FF 7F F0 FF FF  7F 66 64 69 31 01 80 62  .........fdi1..b
0150: 05 80 F0 FF FF 7F F0 FF  FF 7F 6D 61 69 6E 01 80  ..........main..
0160: 1C 06 80 55 00 80 F0 FF  FF 7F F0 FF FF 7F 66 64  ...U..........fd
0170: 69 31 1B 45 00 80 F0 FF  FF 7F F0 FF FF 7F 62 6C  i1.E..........bl
0180: 6F 6E 01 80 45 02 80 F0  FF FF 7F F0 FF FF 7F 62  on..E..........b
0190: 6C 6F 6E 01 80 1B 45 02  80 F0 FF FF 7F F0 FF FF  lon...E.........
01A0: 7F 77 68 69 30 01 80 55  02 80 F0 FF FF 7F F0 FF  .whi0..U........
01B0: FF 7F 77 68 69 30 1B 45  02 80 F0 FF FF 7F F0 FF  ..whi0.E........
01C0: FF 7F 77 68 6F 30 01 80  55 02 80 F0 FF FF 7F F0  ..who0..U.......
01D0: FF FF 7F 77 68 6F 30 1B  45 07 80 F0 FF FF 7F F0  ...who0.E.......
01E0: FF FF 7F 65 66 6F 6E 01  80 55 07 80 F0 FF FF 7F  ...efon..U......
01F0: F0 FF FF 7F 65 66 6F 6E  1B 45 00 80 F0 FF FF 7F  ....efon.E......
0200: F0 FF FF 7F 66 64 69 73  01 80 1B 45 00 80 F0 FF  ....fdis...E....
0210: FF 7F F0 FF FF 7F 66 64  6F 73 01 80 55 00 80 F0  ......fdos..U...
0220: FF FF 7F F0 FF FF 7F 66  64 6F 73 1B 45 00 80 F0  .......fdos.E...
0230: FF FF 7F F0 FF FF 7F 66  64 69 66 01 80 1B 45 00  .......fdif...E.
0240: 80 F0 FF FF 7F F0 FF FF  7F 66 64 6F 66 01 80 55  .........fdof..U
0250: 00 80 F0 FF FF 7F F0 FF  FF 7F 66 64 6F 66 1B 45  ..........fdof.E
0260: 00 80 F0 FF FF 7F F0 FF  FF 7F 66 64 69 70 01 80  ..........fdip..
0270: 1B 45 00 80 F0 FF FF 7F  F0 FF FF 7F 66 64 6F 70  .E..........fdop
0280: 01 80 55 00 80 F0 FF FF  7F F0 FF FF 7F 66 64 6F  ..U..........fdo
0290: 70 1B                                             p.              
```

#### Opcodes

```
  0: 0x0000 [0x00] END_REQSTACK()
```

#### Data or dead code:

```
# Dead code (unreachable instructions):
     0x0001 [0x45] LOAD_SCHEDULED_TASK: Load scheduler "fdi0" with entities [LocalPlayer, LocalPlayer], work=[200*, 0*]
     0x0012 [0x55] WAIT_LOAD_SCHEDULER: Wait for scheduler "fdi0" with entities [LocalPlayer, LocalPlayer], work=200*
     0x0021 [0x1B] RETURN
     0x0022 [0x45] LOAD_SCHEDULED_TASK: Load scheduler "fdo0" with entities [LocalPlayer, LocalPlayer], work=[200*, 0*]
     0x0033 [0x55] WAIT_LOAD_SCHEDULER: Wait for scheduler "fdo0" with entities [LocalPlayer, LocalPlayer], work=200*
     0x0042 [0x1B] RETURN
     0x0043 [0x45] LOAD_SCHEDULED_TASK: Load scheduler "fdi1" with entities [LocalPlayer, LocalPlayer], work=[200*, 0*]
     0x0054 [0x55] WAIT_LOAD_SCHEDULER: Wait for scheduler "fdi1" with entities [LocalPlayer, LocalPlayer], work=200*
     0x0063 [0x1B] RETURN
     0x0064 [0x45] LOAD_SCHEDULED_TASK: Load scheduler "fdo1" with entities [LocalPlayer, LocalPlayer], work=[200*, 0*]
     0x0075 [0x55] WAIT_LOAD_SCHEDULER: Wait for scheduler "fdo1" with entities [LocalPlayer, LocalPlayer], work=200*
     0x0084 [0x1B] RETURN
     0x0085 [0x45] LOAD_SCHEDULED_TASK: Load scheduler "whi1" with entities [LocalPlayer, LocalPlayer], work=[201*, 0*]
     0x0096 [0x55] WAIT_LOAD_SCHEDULER: Wait for scheduler "whi1" with entities [LocalPlayer, LocalPlayer], work=201*
     0x00A5 [0x1B] RETURN
     0x00A6 [0x45] LOAD_SCHEDULED_TASK: Load scheduler "who1" with entities [LocalPlayer, LocalPlayer], work=[201*, 0*]
     0x00B7 [0x55] WAIT_LOAD_SCHEDULER: Wait for scheduler "who1" with entities [LocalPlayer, LocalPlayer], work=201*
     0x00C6 [0x1B] RETURN
     0x00C7 [0x45] LOAD_SCHEDULED_TASK: Load scheduler "who2" with entities [LocalPlayer, LocalPlayer], work=[201*, 0*]
     0x00D8 [0x55] WAIT_LOAD_SCHEDULER: Wait for scheduler "who2" with entities [LocalPlayer, LocalPlayer], work=201*
     0x00E7 [0x1B] RETURN
     0x00E8 [0x45] LOAD_SCHEDULED_TASK: Load scheduler "who3" with entities [LocalPlayer, LocalPlayer], work=[201*, 0*]
     0x00F9 [0x55] WAIT_LOAD_SCHEDULER: Wait for scheduler "who3" with entities [LocalPlayer, LocalPlayer], work=201*
     0x0108 [0x1B] RETURN
     0x0109 [0x62] LOAD_EVENT_SCHEDULER: Load scheduler "main" with entities [LocalPlayer, LocalPlayer], work=[1*, 0*]
     0x011A [0x1C] WAIT(45* ticks)
     0x011D [0x45] LOAD_SCHEDULED_TASK: Load scheduler "fdo1" with entities [LocalPlayer, LocalPlayer], work=[200*, 0*]
     0x012E [0x55] WAIT_LOAD_SCHEDULER: Wait for scheduler "fdo1" with entities [LocalPlayer, LocalPlayer], work=200*
     0x013D [0x1B] RETURN
     0x013E [0x45] LOAD_SCHEDULED_TASK: Load scheduler "fdi1" with entities [LocalPlayer, LocalPlayer], work=[200*, 0*]
     0x014F [0x62] LOAD_EVENT_SCHEDULER: Load scheduler "main" with entities [LocalPlayer, LocalPlayer], work=[2*, 0*]
     0x0160 [0x1C] WAIT(30* ticks)
     0x0163 [0x55] WAIT_LOAD_SCHEDULER: Wait for scheduler "fdi1" with entities [LocalPlayer, LocalPlayer], work=200*
     0x0172 [0x1B] RETURN
     0x0173 [0x45] LOAD_SCHEDULED_TASK: Load scheduler "blon" with entities [LocalPlayer, LocalPlayer], work=[200*, 0*]
     0x0184 [0x45] LOAD_SCHEDULED_TASK: Load scheduler "blon" with entities [LocalPlayer, LocalPlayer], work=[201*, 0*]
     0x0195 [0x1B] RETURN
     0x0196 [0x45] LOAD_SCHEDULED_TASK: Load scheduler "whi0" with entities [LocalPlayer, LocalPlayer], work=[201*, 0*]
     0x01A7 [0x55] WAIT_LOAD_SCHEDULER: Wait for scheduler "whi0" with entities [LocalPlayer, LocalPlayer], work=201*
     0x01B6 [0x1B] RETURN
     0x01B7 [0x45] LOAD_SCHEDULED_TASK: Load scheduler "who0" with entities [LocalPlayer, LocalPlayer], work=[201*, 0*]
     0x01C8 [0x55] WAIT_LOAD_SCHEDULER: Wait for scheduler "who0" with entities [LocalPlayer, LocalPlayer], work=201*
     0x01D7 [0x1B] RETURN
     0x01D8 [0x45] LOAD_SCHEDULED_TASK: Load scheduler "efon" with entities [LocalPlayer, LocalPlayer], work=[215*, 0*]
     0x01E9 [0x55] WAIT_LOAD_SCHEDULER: Wait for scheduler "efon" with entities [LocalPlayer, LocalPlayer], work=215*
     0x01F8 [0x1B] RETURN
     0x01F9 [0x45] LOAD_SCHEDULED_TASK: Load scheduler "fdis" with entities [LocalPlayer, LocalPlayer], work=[200*, 0*]
     0x020A [0x1B] RETURN
     0x020B [0x45] LOAD_SCHEDULED_TASK: Load scheduler "fdos" with entities [LocalPlayer, LocalPlayer], work=[200*, 0*]
     0x021C [0x55] WAIT_LOAD_SCHEDULER: Wait for scheduler "fdos" with entities [LocalPlayer, LocalPlayer], work=200*
     0x022B [0x1B] RETURN
     0x022C [0x45] LOAD_SCHEDULED_TASK: Load scheduler "fdif" with entities [LocalPlayer, LocalPlayer], work=[200*, 0*]
     0x023D [0x1B] RETURN
     0x023E [0x45] LOAD_SCHEDULED_TASK: Load scheduler "fdof" with entities [LocalPlayer, LocalPlayer], work=[200*, 0*]
     0x024F [0x55] WAIT_LOAD_SCHEDULER: Wait for scheduler "fdof" with entities [LocalPlayer, LocalPlayer], work=200*
     0x025E [0x1B] RETURN
     0x025F [0x45] LOAD_SCHEDULED_TASK: Load scheduler "fdip" with entities [LocalPlayer, LocalPlayer], work=[200*, 0*]
     0x0270 [0x1B] RETURN
     0x0271 [0x45] LOAD_SCHEDULED_TASK: Load scheduler "fdop" with entities [LocalPlayer, LocalPlayer], work=[200*, 0*]
     0x0282 [0x55] WAIT_LOAD_SCHEDULER: Wait for scheduler "fdop" with entities [LocalPlayer, LocalPlayer], work=200*
     0x0291 [0x1B] RETURN
```

### Event 150

#### Metadata

| Field        | Value    |
|--------------|----------|
| Entrypoint   | 0x0292   |
| Data Size    | 10 bytes |
| Instructions | 6        |

```
      00 01 02 03 04 05 06 07  08 09 0A 0B 0C 0D 0E 0F
      -- -- -- -- -- -- -- --  -- -- -- -- -- -- -- --
0290:       48 08 80 23 48 09  80 23 21 00                H..#H..#!.    
```

#### Opcodes

```
  0: 0x0292 [0x48] [System] [7332*]:
    → "The voice of a young woman rings in your head."
  1: 0x0295 [0x23] WAIT_FOR_DIALOG_INTERACTION
  2: 0x0296 [0x48] [System] [11629*]:
    → ""All mess......heard.""
  3: 0x0299 [0x23] WAIT_FOR_DIALOG_INTERACTION
  4: 0x029A [0x21] END_EVENT
  5: 0x029B [0x00] END_REQSTACK()
```

### Event 152

#### Metadata

| Field        | Value    |
|--------------|----------|
| Entrypoint   | 0x029C   |
| Data Size    | 27 bytes |
| Instructions | 10       |

```
      00 01 02 03 04 05 06 07  08 09 0A 0B 0C 0D 0E 0F
      -- -- -- -- -- -- -- --  -- -- -- -- -- -- -- --
0290:                                      03 00 00 02              ....
02A0: 10 48 08 80 23 02 00 00  0A 80 00 B1 02 48 0B 80  .H..#........H..
02B0: 23 48 0C 80 23 21 00                              #H..#!.         
```

#### Opcodes

```
  0: 0x029C [0x03] ExtData[1]->WorkLocal[0] = Work_Zone[2]
  1: 0x02A1 [0x48] [System] [7332*]:
    → "The voice of a young woman rings in your head."
  2: 0x02A4 [0x23] WAIT_FOR_DIALOG_INTERACTION
  3: 0x02A5 [0x02] IF !(ExtData[1]->WorkLocal[0] == 99*) GOTO 0x02B1
  4: 0x02AD [0x48] [System] [11632*]:
    → ""This ter......ently in Sa...ode and......not be util...""
  5: 0x02B0 [0x23] WAIT_FOR_DIALOG_INTERACTION
  6: 0x02B1 [0x48] [System] [11633*]:
    → ""Emerg......ge playb...servi......e unl...ith th...ropria...une cipher.""
  7: 0x02B4 [0x23] WAIT_FOR_DIALOG_INTERACTION
  8: 0x02B5 [0x21] END_EVENT
  9: 0x02B6 [0x00] END_REQSTACK()
```

### Event 151

#### Metadata

| Field        | Value     |
|--------------|-----------|
| Entrypoint   | 0x02B7    |
| Data Size    | 310 bytes |
| Instructions | 83        |

```
      00 01 02 03 04 05 06 07  08 09 0A 0B 0C 0D 0E 0F
      -- -- -- -- -- -- -- --  -- -- -- -- -- -- -- --
02B0:                      42  4A F0 FF FF 7F 00 32 0C         BJ.....2.
02C0: 01 03 01 00 02 10 03 02  00 05 10 03 03 00 04 10  ................
02D0: 03 04 00 03 10 03 05 00  06 10 06 06 00 48 08 80  .............H..
02E0: 23 48 0D 80 23 02 02 00  01 80 00 F0 02 01 04 03  #H..#...........
02F0: 03 02 10 02 00 48 0E 80  23 02 02 00 03 80 00 04  .....H..#.......
0300: 03 0B 06 00 02 03 00 01  80 00 0F 03 01 23 03 03  .............#..
0310: 02 10 03 00 48 0E 80 23  02 03 00 03 80 00 23 03  ....H..#......#.
0320: 0B 06 00 02 04 00 01 80  00 2E 03 01 42 03 03 02  ............B...
0330: 10 04 00 48 0E 80 23 02  04 00 03 80 00 42 03 0B  ...H..#......B..
0340: 06 00 02 05 00 01 80 00  4D 03 01 61 03 03 02 10  ........M..a....
0350: 05 00 48 0E 80 23 02 05  00 03 80 00 61 03 0B 06  ..H..#......a...
0360: 00 06 01 10 02 06 00 0F  80 04 E7 03 48 10 80 23  ............H..#
0370: 03 04 10 01 00 48 11 80  23 48 12 80 23 48 13 80  .....H..#H..#H..
0380: 23 48 14 80 23 29 10 FD  31 0C 01 09 29 10 F0 FF  #H..#)..1...)...
0390: FF 7F 02 2B FD 31 0C 01  15 80 23 2B FD 31 0C 01  ...+.1....#+.1..
03A0: 16 80 23 2B FD 31 0C 01  17 80 23 2B FD 31 0C 01  ..#+.1....#+.1..
03B0: 18 80 23 2B FD 31 0C 01  19 80 23 2B FD 31 0C 01  ..#+.1....#+.1..
03C0: 1A 80 23 2B FD 31 0C 01  1B 80 23 1C 1C 80 48 1D  ..#+.1....#...H.
03D0: 80 23 29 10 F0 FF FF 7F  03 48 1E 80 23 48 1F 80  .#)......H..#H..
03E0: 23 05 01 10 01 EB 03 48  20 80 23 21 00           #......H .#!.   
```

#### Opcodes

```
  0: 0x02B7 [0x42] SET_CLI_EVENT_CANCEL_DATA()
  1: 0x02B8 [0x4A] LocalPlayer looks at Hazy Rune (ID: 17576448/0x010C3200)
  2: 0x02C1 [0x03] ExtData[1]->WorkLocal[1] = Work_Zone[2]
  3: 0x02C6 [0x03] ExtData[1]->WorkLocal[2] = Work_Zone[5]
  4: 0x02CB [0x03] ExtData[1]->WorkLocal[3] = Work_Zone[4]
  5: 0x02D0 [0x03] ExtData[1]->WorkLocal[4] = Work_Zone[3]
  6: 0x02D5 [0x03] ExtData[1]->WorkLocal[5] = Work_Zone[6]
  7: 0x02DA [0x06] ExtData[1]->WorkLocal[6] = 0
  8: 0x02DD [0x48] [System] [7332*]:
    → "The voice of a young woman rings in your head."
  9: 0x02E0 [0x23] WAIT_FOR_DIALOG_INTERACTION
 10: 0x02E1 [0x48] [System] [11621*]:
    → ""Rune cipher...tication...uired.""
 11: 0x02E4 [0x23] WAIT_FOR_DIALOG_INTERACTION
 12: 0x02E5 [0x02] IF !(ExtData[1]->WorkLocal[2] == 0*) GOTO 0x02F0
 13: 0x02ED [0x01] GOTO 0x0304
 14: 0x02F0 [0x03] Work_Zone[2] = ExtData[1]->WorkLocal[2]
 15: 0x02F5 [0x48] [System] [11622*]:
    → ""[./Ig.../Ge...s/...bra/Te/...por/U.../Lu.../...ebrae]...""
 16: 0x02F8 [0x23] WAIT_FOR_DIALOG_INTERACTION
 17: 0x02F9 [0x02] IF !(ExtData[1]->WorkLocal[2] == 1*) GOTO 0x0304
 18: 0x0301 [0x0B] ExtData[1]->WorkLocal[6]++

SUBROUTINE_0304:
 19: 0x0304 [0x02] IF !(ExtData[1]->WorkLocal[3] == 0*) GOTO 0x030F
 20: 0x030C [0x01] GOTO 0x0323
 21: 0x030F [0x03] Work_Zone[2] = ExtData[1]->WorkLocal[3]
 22: 0x0314 [0x48] [System] [11622*]:
    → ""[./Ig.../Ge...s/...bra/Te/...por/U.../Lu.../...ebrae]...""
 23: 0x0317 [0x23] WAIT_FOR_DIALOG_INTERACTION
 24: 0x0318 [0x02] IF !(ExtData[1]->WorkLocal[3] == 1*) GOTO 0x0323
 25: 0x0320 [0x0B] ExtData[1]->WorkLocal[6]++

SUBROUTINE_0323:
 26: 0x0323 [0x02] IF !(ExtData[1]->WorkLocal[4] == 0*) GOTO 0x032E
 27: 0x032B [0x01] GOTO 0x0342
 28: 0x032E [0x03] Work_Zone[2] = ExtData[1]->WorkLocal[4]
 29: 0x0333 [0x48] [System] [11622*]:
    → ""[./Ig.../Ge...s/...bra/Te/...por/U.../Lu.../...ebrae]...""
 30: 0x0336 [0x23] WAIT_FOR_DIALOG_INTERACTION
 31: 0x0337 [0x02] IF !(ExtData[1]->WorkLocal[4] == 1*) GOTO 0x0342
 32: 0x033F [0x0B] ExtData[1]->WorkLocal[6]++

SUBROUTINE_0342:
 33: 0x0342 [0x02] IF !(ExtData[1]->WorkLocal[5] == 0*) GOTO 0x034D
 34: 0x034A [0x01] GOTO 0x0361
 35: 0x034D [0x03] Work_Zone[2] = ExtData[1]->WorkLocal[5]
 36: 0x0352 [0x48] [System] [11622*]:
    → ""[./Ig.../Ge...s/...bra/Te/...por/U.../Lu.../...ebrae]...""
 37: 0x0355 [0x23] WAIT_FOR_DIALOG_INTERACTION
 38: 0x0356 [0x02] IF !(ExtData[1]->WorkLocal[5] == 1*) GOTO 0x0361
 39: 0x035E [0x0B] ExtData[1]->WorkLocal[6]++

SUBROUTINE_0361:
 40: 0x0361 [0x06] Work_Zone[1] = 0
 41: 0x0364 [0x02] IF !(ExtData[1]->WorkLocal[6] < 3*) GOTO 0x03E7
 42: 0x036C [0x48] [System] [11624*]:
    → ""Auth......succ...ful.""
 43: 0x036F [0x23] WAIT_FOR_DIALOG_INTERACTION
 44: 0x0370 [0x03] Work_Zone[4] = ExtData[1]->WorkLocal[1]
 45: 0x0375 [0x48] [System] [11625*]:
    → ""Pers...ector $2 crea...in Rune Containment Mode. Now boo...g.""
 46: 0x0378 [0x23] WAIT_FOR_DIALOG_INTERACTION
 47: 0x0379 [0x48] [System] [11626*]:
    → ""B...comple... ...acce...Per...Sec...$2.""
 48: 0x037C [0x23] WAIT_FOR_DIALOG_INTERACTION
 49: 0x037D [0x48] [System] [11627*]:
    → ""He...<Player>.""
 50: 0x0380 [0x23] WAIT_FOR_DIALOG_INTERACTION
 51: 0x0381 [0x48] [System] [11628*]:
    → ""You h...1 unhe....message. Rela...eard mess...telepa...""
 52: 0x0384 [0x23] WAIT_FOR_DIALOG_INTERACTION
 53: 0x0385 [0x29] REQ_SET_WAIT(priority=0x10, entity_id=Unnamed NPC (ID: 17576445/0x010C31FD), tag_num=0x09)
 54: 0x038C [0x29] REQ_SET_WAIT(priority=0x10, entity_id=LocalPlayer, tag_num=0x02)
 55: 0x0393 [0x2B] Unnamed NPC (ID: 17576445/0x010C31FD) [11638*]:
    → "My name is Sverdhried. It's quite possible that not a soul will ever hear these words of mine, but I record them nonetheless in hopes that a future runeist will come across this device."
 56: 0x039A [0x23] WAIT_FOR_DIALOG_INTERACTION
 57: 0x039B [0x2B] Unnamed NPC (ID: 17576445/0x010C31FD) [11639*]:
    → "Much to my surprise, some ancient civilization seems to have erected tombs underneath the rolling foothills that exemplify this region."
 58: 0x03A2 [0x23] WAIT_FOR_DIALOG_INTERACTION
 59: 0x03A3 [0x2B] Unnamed NPC (ID: 17576445/0x010C31FD) [11640*]:
    → "The resolute door that guards the entrance caused me to question the importance of entering after battling with it for what seemed like hours, but in the end, curiosity triumphed over physical pain."
 60: 0x03AA [0x23] WAIT_FOR_DIALOG_INTERACTION
 61: 0x03AB [0x2B] Unnamed NPC (ID: 17576445/0x010C31FD) [11641*]:
    → ""Perhaps I'll just place the tip of my boot inside," I thought to myself as I took my first step into the gaping maw before me, then found myself fiddling with another of these mysterious machinations when I'd come to my senses."
 62: 0x03B2 [0x23] WAIT_FOR_DIALOG_INTERACTION
 63: 0x03B3 [0x2B] Unnamed NPC (ID: 17576445/0x010C31FD) [11642*]:
    → "I quickly learned that this particular recording instrument resonates with Ignis, melter of ice and singer of flesh."
 64: 0x03BA [0x23] WAIT_FOR_DIALOG_INTERACTION
 65: 0x03BB [0x2B] Unnamed NPC (ID: 17576445/0x010C31FD) [11643*]:
    → "Ah, yes...Ignis. The rune of the flame. One could certainly rationalize the relationship of Ignis to this location by saying the flames of passion that burn bright within the spirits of those who now lay buried here must endeavor to release Father Time's frozen grip upon this mausoleum."
 66: 0x03C2 [0x23] WAIT_FOR_DIALOG_INTERACTION
 67: 0x03C3 [0x2B] Unnamed NPC (ID: 17576445/0x010C31FD) [11644*]:
    → "However, I posit that Ignis's flickering flames are relics from ancient rituals where the dead were seen off to the afterlife with gigantic bonfires."
 68: 0x03CA [0x23] WAIT_FOR_DIALOG_INTERACTION
 69: 0x03CB [0x1C] WAIT(90* ticks)
 70: 0x03CE [0x48] [System] [11635*]:
    → "A cumbrous silence descends as the echoes of that mysterious internal voice fade away."
 71: 0x03D1 [0x23] WAIT_FOR_DIALOG_INTERACTION
 72: 0x03D2 [0x29] REQ_SET_WAIT(priority=0x10, entity_id=LocalPlayer, tag_num=0x03)
 73: 0x03D9 [0x48] [System] [11630*]:
    → ""Recor...rd messa...rune st...""
 74: 0x03DC [0x23] WAIT_FOR_DIALOG_INTERACTION
 75: 0x03DD [0x48] [System] [11631*]:
    → ""...inating Rune...ainment Mo...r succ......ording.""
 76: 0x03E0 [0x23] WAIT_FOR_DIALOG_INTERACTION
 77: 0x03E1 [0x05] Work_Zone[1] = 1
 78: 0x03E4 [0x01] GOTO 0x03EB
 79: 0x03E7 [0x48] [System] [11623*]:
    → ""Unabl...res...error. Term...func...ty.""
 80: 0x03EA [0x23] WAIT_FOR_DIALOG_INTERACTION

SUBROUTINE_03EB:
 81: 0x03EB [0x21] END_EVENT
 82: 0x03EC [0x00] END_REQSTACK()
```
