# 17576400

## Common Data

| Field            | Value                            |
|------------------|----------------------------------|
| Zone             | The Eldieme Necropolis (ID: 195) |
| Block Size       | 136 bytes                        |
| Total Events     | 6                                |
| References Count | 7                                |

## List of Events

| Event ID                 | Entrypoint   |   Size |   Instructions |
|--------------------------|--------------|--------|----------------|
| [65535](#event-65535)    | 0x0000       |      1 |              1 |
| [46](#event-46)          | 0x0001       |      1 |              1 |
| [65535.1](#event-655351) | 0x0002       |     15 |              4 |
| [65535.2](#event-655352) | 0x0011       |     10 |              2 |
| [65535.3](#event-655353) | 0x001B       |     29 |              3 |
| [65535.4](#event-655354) | 0x0038       |     10 |              2 |

## DAT References (imed_data)

|   Index | Hex Value   |   Dec Value |
|---------|-------------|-------------|
|       0 | 0x000D      |          13 |
|       1 | 0xFFF99606  |  4294546950 |
|       2 | 0x7ACE4     |      503012 |
|       3 | 0x1B58      |        7000 |
|       4 | 0x0000      |           0 |
|       5 | 0x0040      |          64 |
|       6 | 0x0080      |         128 |

## Events

### Event 65535

#### Metadata

| Field        | Value   |
|--------------|---------|
| Entrypoint   | 0x0000  |
| Data Size    | 1 bytes |
| Instructions | 1       |

```
      00 01 02 03 04 05 06 07  08 09 0A 0B 0C 0D 0E 0F
      -- -- -- -- -- -- -- --  -- -- -- -- -- -- -- --
0000: 00                                                .               
```

#### Opcodes

```
  0: 0x0000 [0x00] END_REQSTACK()
```

### Event 46

#### Metadata

| Field        | Value   |
|--------------|---------|
| Entrypoint   | 0x0001  |
| Data Size    | 1 bytes |
| Instructions | 1       |

```
      00 01 02 03 04 05 06 07  08 09 0A 0B 0C 0D 0E 0F
      -- -- -- -- -- -- -- --  -- -- -- -- -- -- -- --
0000:    00                                              .              
```

#### Opcodes

```
  0: 0x0001 [0x00] END_REQSTACK()
```

### Event 65535.1

#### Metadata

| Field        | Value    |
|--------------|----------|
| Entrypoint   | 0x0002   |
| Data Size    | 15 bytes |
| Instructions | 4        |

```
      00 01 02 03 04 05 06 07  08 09 0A 0B 0C 0D 0E 0F
      -- -- -- -- -- -- -- --  -- -- -- -- -- -- -- --
0000:       32 00 80 33 01 37  01 80 02 80 03 80 04 80    2..3.7........
0010: 00                                                .               
```

#### Opcodes

```
  0: 0x0002 [0x32] ExtData[1]->MainSpeed = 13* * 0.1
  1: 0x0005 [0x33] EventEntity->Render.Flags0 |= 0x200000 // Bit 21 (flag=0x01)
  2: 0x0007 [0x37] UPDATE_EVENT_POSITION_AND_DIR: x=-420.346*, z=503.012*, y=7.000*, direction=0.0°*
  3: 0x0010 [0x00] END_REQSTACK()
```

### Event 65535.2

#### Metadata

| Field        | Value    |
|--------------|----------|
| Entrypoint   | 0x0011   |
| Data Size    | 10 bytes |
| Instructions | 2        |

```
      00 01 02 03 04 05 06 07  08 09 0A 0B 0C 0D 0E 0F
      -- -- -- -- -- -- -- --  -- -- -- -- -- -- -- --
0010:    6C D0 31 0C 01 05 80  06 80 00                  l.1.......     
```

#### Opcodes

```
  0: 0x0011 [0x6C] FADE_ENTITY_COLOR(entity_id=Unnamed NPC (ID: 17576400/0x010C31D0), end_alpha=64*, fade_time=128*)
  1: 0x001A [0x00] END_REQSTACK()
```

### Event 65535.3

#### Metadata

| Field        | Value    |
|--------------|----------|
| Entrypoint   | 0x001B   |
| Data Size    | 29 bytes |
| Instructions | 3        |

```
      00 01 02 03 04 05 06 07  08 09 0A 0B 0C 0D 0E 0F
      -- -- -- -- -- -- -- --  -- -- -- -- -- -- -- --
0010:                                   66 04 80 F8 FF             f....
0020: FF 7F F8 FF FF 7F 70 61  73 30 53 F8 FF FF 7F F8  ......pas0S.....
0030: FF FF 7F 70 61 73 30 00                           ...pas0.        
```

#### Opcodes

```
  0: 0x001B [0x66] LOAD_EXT_SCHEDULER_MAIN: Load scheduler "pas0" with entities [EventEntity, EventEntity], work=0*
  1: 0x002A [0x53] WAIT_SCHEDULER_TASK: Wait for scheduler "pas0" with entities [EventEntity, EventEntity]
  2: 0x0037 [0x00] END_REQSTACK()
```

### Event 65535.4

#### Metadata

| Field        | Value    |
|--------------|----------|
| Entrypoint   | 0x0038   |
| Data Size    | 10 bytes |
| Instructions | 2        |

```
      00 01 02 03 04 05 06 07  08 09 0A 0B 0C 0D 0E 0F
      -- -- -- -- -- -- -- --  -- -- -- -- -- -- -- --
0030:                          6C D0 31 0C 01 04 80 05          l.1.....
0040: 80 00                                             ..              
```

#### Opcodes

```
  0: 0x0038 [0x6C] FADE_ENTITY_COLOR(entity_id=Unnamed NPC (ID: 17576400/0x010C31D0), end_alpha=0*, fade_time=64*)
  1: 0x0041 [0x00] END_REQSTACK()
```
