# 17576360 - Balpah

## Common Data

| Field            | Value                            |
|------------------|----------------------------------|
| Zone             | The Eldieme Necropolis (ID: 195) |
| Block Size       | 556 bytes                        |
| Total Events     | 19                               |
| References Count | 30                               |

## List of Events

| Event ID                   | Entrypoint   |   Size |   Instructions |
|----------------------------|--------------|--------|----------------|
| [65535](#event-65535)      | 0x0000       |      1 |              1 |
| [45](#event-45)            | 0x0001       |     22 |              4 |
| [65535.1](#event-655351)   | 0x0017       |     19 |              3 |
| [65535.2](#event-655352)   | 0x002A       |     22 |              4 |
| [65535.3](#event-655353)   | 0x0040       |     10 |              2 |
| [65535.4](#event-655354)   | 0x004A       |     22 |              8 |
| [65535.5](#event-655355)   | 0x0060       |     19 |              3 |
| [65535.6](#event-655356)   | 0x0073       |     19 |              3 |
| [65535.7](#event-655357)   | 0x0086       |      9 |              3 |
| [65535.8](#event-655358)   | 0x008F       |     19 |              3 |
| [65535.9](#event-655359)   | 0x00A2       |      9 |              3 |
| [65535.10](#event-6553510) | 0x00AB       |     19 |              3 |
| [65535.11](#event-6553511) | 0x00BE       |     19 |              3 |
| [65535.12](#event-6553512) | 0x00D1       |     29 |              3 |
| [65535.13](#event-6553513) | 0x00EE       |     17 |              3 |
| [65535.14](#event-6553514) | 0x00FF       |     27 |              3 |
| [65535.15](#event-6553515) | 0x011A       |     12 |              4 |
| [65535.16](#event-6553516) | 0x0126       |     31 |              8 |
| [65535.17](#event-6553517) | 0x0145       |     17 |              5 |

## DAT References (imed_data)

|   Index | Hex Value   |   Dec Value |
|---------|-------------|-------------|
|       0 | 0x000D      |          13 |
|       1 | 0x0000      |           0 |
|       2 | 0xFFF9A055  |  4294549589 |
|       3 | 0x7A0EE     |      499950 |
|       4 | 0x1F40      |        8000 |
|       5 | 0x081F      |        2079 |
|       6 | 0x0060      |          96 |
|       7 | 0x0080      |         128 |
|       8 | 0xFFFF1D74  |  4294909300 |
|       9 | 0x1EA95     |      125589 |
|      10 | 0x02BA      |         698 |
|      11 | 0x000A      |          10 |
|      12 | 0xFFFECF3E  |  4294889278 |
|      13 | 0x22BC7     |      142279 |
|      14 | 0x0AB6      |        2742 |
|      15 | 0xFFFEAEBF  |  4294880959 |
|      16 | 0x26263     |      156259 |
|      17 | 0x003D      |          61 |
|      18 | 0x003C      |          60 |
|      19 | 0x001E      |          30 |
|      20 | 0xFFF98AEF  |  4294544111 |
|      21 | 0x7A0EB     |      499947 |
|      22 | 0x1F3F      |        7999 |
|      23 | 0xFFF9738F  |  4294538127 |
|      24 | 0x7A050     |      499792 |
|      25 | 0x000F      |          15 |
|      26 | 0x0DA0      |        3488 |
|      27 | 0x0800      |        2048 |
|      28 | 0xFFF94D95  |  4294528405 |
|      29 | 0x7A0F5     |      499957 |

## Events

### Event 65535

#### Metadata

| Field        | Value   |
|--------------|---------|
| Entrypoint   | 0x0000  |
| Data Size    | 1 bytes |
| Instructions | 1       |

```
      00 01 02 03 04 05 06 07  08 09 0A 0B 0C 0D 0E 0F
      -- -- -- -- -- -- -- --  -- -- -- -- -- -- -- --
0000: 00                                                .               
```

#### Opcodes

```
  0: 0x0000 [0x00] END_REQSTACK()
```

### Event 45

#### Metadata

| Field        | Value    |
|--------------|----------|
| Entrypoint   | 0x0001   |
| Data Size    | 22 bytes |
| Instructions | 4        |

```
      00 01 02 03 04 05 06 07  08 09 0A 0B 0C 0D 0E 0F
      -- -- -- -- -- -- -- --  -- -- -- -- -- -- -- --
0000:    32 00 80 6C F8 FF FF  7F 01 80 01 80 37 02 80   2..l........7..
0010: 03 80 04 80 05 80 00                              .......         
```

#### Opcodes

```
  0: 0x0001 [0x32] ExtData[1]->MainSpeed = 13* * 0.1
  1: 0x0004 [0x6C] FADE_ENTITY_COLOR(entity_id=EventEntity, end_alpha=0*, fade_time=0*)
  2: 0x000D [0x37] UPDATE_EVENT_POSITION_AND_DIR: x=-417.707*, z=499.950*, y=8.000*, direction=182.7°*
  3: 0x0016 [0x00] END_REQSTACK()
```

### Event 65535.1

#### Metadata

| Field        | Value    |
|--------------|----------|
| Entrypoint   | 0x0017   |
| Data Size    | 19 bytes |
| Instructions | 3        |

```
      00 01 02 03 04 05 06 07  08 09 0A 0B 0C 0D 0E 0F
      -- -- -- -- -- -- -- --  -- -- -- -- -- -- -- --
0010:                      6C  F8 FF FF 7F 06 80 01 80         l........
0020: 37 02 80 03 80 04 80 05  80 00                    7.........      
```

#### Opcodes

```
  0: 0x0017 [0x6C] FADE_ENTITY_COLOR(entity_id=EventEntity, end_alpha=96*, fade_time=0*)
  1: 0x0020 [0x37] UPDATE_EVENT_POSITION_AND_DIR: x=-417.707*, z=499.950*, y=8.000*, direction=182.7°*
  2: 0x0029 [0x00] END_REQSTACK()
```

### Event 65535.2

#### Metadata

| Field        | Value    |
|--------------|----------|
| Entrypoint   | 0x002A   |
| Data Size    | 22 bytes |
| Instructions | 4        |

```
      00 01 02 03 04 05 06 07  08 09 0A 0B 0C 0D 0E 0F
      -- -- -- -- -- -- -- --  -- -- -- -- -- -- -- --
0020:                                6C F8 FF FF 7F 07            l.....
0030: 80 01 80 37 08 80 09 80  01 80 0A 80 1C 0B 80 00  ...7............
```

#### Opcodes

```
  0: 0x002A [0x6C] FADE_ENTITY_COLOR(entity_id=EventEntity, end_alpha=128*, fade_time=0*)
  1: 0x0033 [0x37] UPDATE_EVENT_POSITION_AND_DIR: x=-57.996*, z=125.589*, y=0.000*, direction=61.3°*
  2: 0x003C [0x1C] WAIT(10* ticks)
  3: 0x003F [0x00] END_REQSTACK()
```

### Event 65535.3

#### Metadata

| Field        | Value    |
|--------------|----------|
| Entrypoint   | 0x0040   |
| Data Size    | 10 bytes |
| Instructions | 2        |

```
      00 01 02 03 04 05 06 07  08 09 0A 0B 0C 0D 0E 0F
      -- -- -- -- -- -- -- --  -- -- -- -- -- -- -- --
0040: 37 0C 80 0D 80 01 80 0E  80 00                    7.........      
```

#### Opcodes

```
  0: 0x0040 [0x37] UPDATE_EVENT_POSITION_AND_DIR: x=-78.018*, z=142.279*, y=0.000*, direction=241.0°*
  1: 0x0049 [0x00] END_REQSTACK()
```

### Event 65535.4

#### Metadata

| Field        | Value    |
|--------------|----------|
| Entrypoint   | 0x004A   |
| Data Size    | 22 bytes |
| Instructions | 8        |

```
      00 01 02 03 04 05 06 07  08 09 0A 0B 0C 0D 0E 0F
      -- -- -- -- -- -- -- --  -- -- -- -- -- -- -- --
0040:                                32 00 80 1F 00 0F            2.....
0050: 80 10 80 01 80 1F 01 6F  1E A9 31 0C 01 6F 70 00  .......o..1..op.
```

#### Opcodes

```
  0: 0x004A [0x32] ExtData[1]->MainSpeed = 13* * 0.1
  1: 0x004D [0x1F] MOVE_ENTITY: EventEntity moves to X=-86.337*, Z=156.259*, Y=0.000*
  2: 0x0055 [0x1F] MOVE_ENTITY: Update entity position (mode=1)
  3: 0x0057 [0x6F] WAIT_FRAME_DELAY: Yield until WaitTime reaches zero
  4: 0x0058 [0x1E] EventEntity looks at Tebhi (ID: 17576361/0x010C31A9) and starts talking
  5: 0x005D [0x6F] WAIT_FRAME_DELAY: Yield until WaitTime reaches zero
  6: 0x005E [0x70] WAIT_ENTITY_RENDER_FLAG: Wait while EventEntity->Render.Flags3 bit 2 is set (cancel turn if not)
  7: 0x005F [0x00] END_REQSTACK()
```

### Event 65535.5

#### Metadata

| Field        | Value    |
|--------------|----------|
| Entrypoint   | 0x0060   |
| Data Size    | 19 bytes |
| Instructions | 3        |

```
      00 01 02 03 04 05 06 07  08 09 0A 0B 0C 0D 0E 0F
      -- -- -- -- -- -- -- --  -- -- -- -- -- -- -- --
0060: 66 11 80 F8 FF FF 7F F8  FF FF 7F 73 6C 32 30 1C  f..........sl20.
0070: 12 80 00                                          ...             
```

#### Opcodes

```
  0: 0x0060 [0x66] LOAD_EXT_SCHEDULER_MAIN: Load scheduler "sl20" with entities [EventEntity, EventEntity], work=61*
  1: 0x006F [0x1C] WAIT(60* ticks)
  2: 0x0072 [0x00] END_REQSTACK()
```

### Event 65535.6

#### Metadata

| Field        | Value    |
|--------------|----------|
| Entrypoint   | 0x0073   |
| Data Size    | 19 bytes |
| Instructions | 3        |

```
      00 01 02 03 04 05 06 07  08 09 0A 0B 0C 0D 0E 0F
      -- -- -- -- -- -- -- --  -- -- -- -- -- -- -- --
0070:          66 12 80 F8 FF  FF 7F F8 FF FF 7F 74 6C     f..........tl
0080: 6B 30 1C 13 80 00                                 k0....          
```

#### Opcodes

```
  0: 0x0073 [0x66] LOAD_EXT_SCHEDULER_MAIN: Load scheduler "tlk0" with entities [EventEntity, EventEntity], work=60*
  1: 0x0082 [0x1C] WAIT(30* ticks)
  2: 0x0085 [0x00] END_REQSTACK()
```

### Event 65535.7

#### Metadata

| Field        | Value   |
|--------------|---------|
| Entrypoint   | 0x0086  |
| Data Size    | 9 bytes |
| Instructions | 3       |

```
      00 01 02 03 04 05 06 07  08 09 0A 0B 0C 0D 0E 0F
      -- -- -- -- -- -- -- --  -- -- -- -- -- -- -- --
0080:                   5E 69  64 6C 30 1C 12 80 00           ^idl0.... 
```

#### Opcodes

```
  0: 0x0086 [0x5E] EventEntity goes idle (kills current action) (animation: "idl0")
  1: 0x008B [0x1C] WAIT(60* ticks)
  2: 0x008E [0x00] END_REQSTACK()
```

### Event 65535.8

#### Metadata

| Field        | Value    |
|--------------|----------|
| Entrypoint   | 0x008F   |
| Data Size    | 19 bytes |
| Instructions | 3        |

```
      00 01 02 03 04 05 06 07  08 09 0A 0B 0C 0D 0E 0F
      -- -- -- -- -- -- -- --  -- -- -- -- -- -- -- --
0080:                                               66                 f
0090: 12 80 F8 FF FF 7F F8 FF  FF 7F 61 6E 67 30 1C 13  ..........ang0..
00A0: 80 00                                             ..              
```

#### Opcodes

```
  0: 0x008F [0x66] LOAD_EXT_SCHEDULER_MAIN: Load scheduler "ang0" with entities [EventEntity, EventEntity], work=60*
  1: 0x009E [0x1C] WAIT(30* ticks)
  2: 0x00A1 [0x00] END_REQSTACK()
```

### Event 65535.9

#### Metadata

| Field        | Value   |
|--------------|---------|
| Entrypoint   | 0x00A2  |
| Data Size    | 9 bytes |
| Instructions | 3       |

```
      00 01 02 03 04 05 06 07  08 09 0A 0B 0C 0D 0E 0F
      -- -- -- -- -- -- -- --  -- -- -- -- -- -- -- --
00A0:       5E 69 64 6C 30 1C  12 80 00                   ^idl0....     
```

#### Opcodes

```
  0: 0x00A2 [0x5E] EventEntity goes idle (kills current action) (animation: "idl0")
  1: 0x00A7 [0x1C] WAIT(60* ticks)
  2: 0x00AA [0x00] END_REQSTACK()
```

### Event 65535.10

#### Metadata

| Field        | Value    |
|--------------|----------|
| Entrypoint   | 0x00AB   |
| Data Size    | 19 bytes |
| Instructions | 3        |

```
      00 01 02 03 04 05 06 07  08 09 0A 0B 0C 0D 0E 0F
      -- -- -- -- -- -- -- --  -- -- -- -- -- -- -- --
00A0:                                   66 12 80 F8 FF             f....
00B0: FF 7F F8 FF FF 7F 74 68  6B 31 1C 12 80 00        ......thk1....  
```

#### Opcodes

```
  0: 0x00AB [0x66] LOAD_EXT_SCHEDULER_MAIN: Load scheduler "thk1" with entities [EventEntity, EventEntity], work=60*
  1: 0x00BA [0x1C] WAIT(60* ticks)
  2: 0x00BD [0x00] END_REQSTACK()
```

### Event 65535.11

#### Metadata

| Field        | Value    |
|--------------|----------|
| Entrypoint   | 0x00BE   |
| Data Size    | 19 bytes |
| Instructions | 3        |

```
      00 01 02 03 04 05 06 07  08 09 0A 0B 0C 0D 0E 0F
      -- -- -- -- -- -- -- --  -- -- -- -- -- -- -- --
00B0:                                            66 12                f.
00C0: 80 F8 FF FF 7F F8 FF FF  7F 74 68 6B 32 1C 12 80  .........thk2...
00D0: 00                                                .               
```

#### Opcodes

```
  0: 0x00BE [0x66] LOAD_EXT_SCHEDULER_MAIN: Load scheduler "thk2" with entities [EventEntity, EventEntity], work=60*
  1: 0x00CD [0x1C] WAIT(60* ticks)
  2: 0x00D0 [0x00] END_REQSTACK()
```

### Event 65535.12

#### Metadata

| Field        | Value    |
|--------------|----------|
| Entrypoint   | 0x00D1   |
| Data Size    | 29 bytes |
| Instructions | 3        |

```
      00 01 02 03 04 05 06 07  08 09 0A 0B 0C 0D 0E 0F
      -- -- -- -- -- -- -- --  -- -- -- -- -- -- -- --
00D0:    66 12 80 F8 FF FF 7F  F8 FF FF 7F 70 61 73 30   f..........pas0
00E0: 53 F8 FF FF 7F F8 FF FF  7F 70 61 73 30 00        S........pas0.  
```

#### Opcodes

```
  0: 0x00D1 [0x66] LOAD_EXT_SCHEDULER_MAIN: Load scheduler "pas0" with entities [EventEntity, EventEntity], work=60*
  1: 0x00E0 [0x53] WAIT_SCHEDULER_TASK: Wait for scheduler "pas0" with entities [EventEntity, EventEntity]
  2: 0x00ED [0x00] END_REQSTACK()
```

### Event 65535.13

#### Metadata

| Field        | Value    |
|--------------|----------|
| Entrypoint   | 0x00EE   |
| Data Size    | 17 bytes |
| Instructions | 3        |

```
      00 01 02 03 04 05 06 07  08 09 0A 0B 0C 0D 0E 0F
      -- -- -- -- -- -- -- --  -- -- -- -- -- -- -- --
00E0:                                            2C F8                ,.
00F0: FF FF 7F F8 FF FF 7F 72  65 73 30 1C 12 80 00     .......res0.... 
```

#### Opcodes

```
  0: 0x00EE [0x2C] CREATE_SCHEDULER_TASK: Create scheduler "res0" with entities [EventEntity, EventEntity]
  1: 0x00FB [0x1C] WAIT(60* ticks)
  2: 0x00FE [0x00] END_REQSTACK()
```

### Event 65535.14

#### Metadata

| Field        | Value    |
|--------------|----------|
| Entrypoint   | 0x00FF   |
| Data Size    | 27 bytes |
| Instructions | 3        |

```
      00 01 02 03 04 05 06 07  08 09 0A 0B 0C 0D 0E 0F
      -- -- -- -- -- -- -- --  -- -- -- -- -- -- -- --
00F0:                                               2C                 ,
0100: F8 FF FF 7F F8 FF FF 7F  72 65 73 32 53 F8 FF FF  ........res2S...
0110: 7F F8 FF FF 7F 72 65 73  32 00                    .....res2.      
```

#### Opcodes

```
  0: 0x00FF [0x2C] CREATE_SCHEDULER_TASK: Create scheduler "res2" with entities [EventEntity, EventEntity]
  1: 0x010C [0x53] WAIT_SCHEDULER_TASK: Wait for scheduler "res2" with entities [EventEntity, EventEntity]
  2: 0x0119 [0x00] END_REQSTACK()
```

### Event 65535.15

#### Metadata

| Field        | Value    |
|--------------|----------|
| Entrypoint   | 0x011A   |
| Data Size    | 12 bytes |
| Instructions | 4        |

```
      00 01 02 03 04 05 06 07  08 09 0A 0B 0C 0D 0E 0F
      -- -- -- -- -- -- -- --  -- -- -- -- -- -- -- --
0110:                                1F 00 14 80 15 80            ......
0120: 16 80 1F 01 6F 00                                 ....o.          
```

#### Opcodes

```
  0: 0x011A [0x1F] MOVE_ENTITY: EventEntity moves to X=-423.185*, Z=499.947*, Y=7.999*
  1: 0x0122 [0x1F] MOVE_ENTITY: Update entity position (mode=1)
  2: 0x0124 [0x6F] WAIT_FRAME_DELAY: Yield until WaitTime reaches zero
  3: 0x0125 [0x00] END_REQSTACK()
```

### Event 65535.16

#### Metadata

| Field        | Value    |
|--------------|----------|
| Entrypoint   | 0x0126   |
| Data Size    | 31 bytes |
| Instructions | 8        |

```
      00 01 02 03 04 05 06 07  08 09 0A 0B 0C 0D 0E 0F
      -- -- -- -- -- -- -- --  -- -- -- -- -- -- -- --
0120:                   1F 00  17 80 18 80 16 80 1F 01        ..........
0130: 6F 1C 19 80 79 00 F8 FF  FF 7F F0 FF FF 7F 39 1A  o...y.........9.
0140: 80 1C 12 80 00                                    .....           
```

#### Opcodes

```
  0: 0x0126 [0x1F] MOVE_ENTITY: EventEntity moves to X=-429.169*, Z=499.792*, Y=7.999*
  1: 0x012E [0x1F] MOVE_ENTITY: Update entity position (mode=1)
  2: 0x0130 [0x6F] WAIT_FRAME_DELAY: Yield until WaitTime reaches zero
  3: 0x0131 [0x1C] WAIT(15* ticks)
  4: 0x0134 [0x79] EventEntity looks at LocalPlayer (Basic look)
  5: 0x013E [0x39] SET_ENTITY_DIRECTION(direction=19.2°*)
  6: 0x0141 [0x1C] WAIT(60* ticks)
  7: 0x0144 [0x00] END_REQSTACK()
```

### Event 65535.17

#### Metadata

| Field        | Value    |
|--------------|----------|
| Entrypoint   | 0x0145   |
| Data Size    | 17 bytes |
| Instructions | 5        |

```
      00 01 02 03 04 05 06 07  08 09 0A 0B 0C 0D 0E 0F
      -- -- -- -- -- -- -- --  -- -- -- -- -- -- -- --
0140:                39 1B 80  1C 12 80 1F 00 1C 80 1D       9..........
0150: 80 16 80 1F 01 00                                 ......          
```

#### Opcodes

```
  0: 0x0145 [0x39] SET_ENTITY_DIRECTION(direction=11.2°*)
  1: 0x0148 [0x1C] WAIT(60* ticks)
  2: 0x014B [0x1F] MOVE_ENTITY: EventEntity moves to X=-438.891*, Z=499.957*, Y=7.999*
  3: 0x0153 [0x1F] MOVE_ENTITY: Update entity position (mode=1)
  4: 0x0155 [0x00] END_REQSTACK()
```
