# 17576378 - 16

## Common Data

| Field            | Value                            |
|------------------|----------------------------------|
| Zone             | The Eldieme Necropolis (ID: 195) |
| Block Size       | 64 bytes                         |
| Total Events     | 2                                |
| References Count | 4                                |

## List of Events

| Event ID              | Entrypoint   |   Size |   Instructions |
|-----------------------|--------------|--------|----------------|
| [65535](#event-65535) | 0x0000       |      1 |              1 |
| [45](#event-45)       | 0x0001       |     21 |              4 |

## DAT References (imed_data)

|   Index | Hex Value   |   Dec Value |
|---------|-------------|-------------|
|       0 | 0xFFFF2DFC  |  4294913532 |
|       1 | 0x1E743     |      124739 |
|       2 | 0x0000      |           0 |
|       3 | 0x07A9      |        1961 |

## Events

### Event 65535

#### Metadata

| Field        | Value   |
|--------------|---------|
| Entrypoint   | 0x0000  |
| Data Size    | 1 bytes |
| Instructions | 1       |

```
      00 01 02 03 04 05 06 07  08 09 0A 0B 0C 0D 0E 0F
      -- -- -- -- -- -- -- --  -- -- -- -- -- -- -- --
0000: 00                                                .               
```

#### Opcodes

```
  0: 0x0000 [0x00] END_REQSTACK()
```

### Event 45

#### Metadata

| Field        | Value    |
|--------------|----------|
| Entrypoint   | 0x0001   |
| Data Size    | 21 bytes |
| Instructions | 4        |

```
      00 01 02 03 04 05 06 07  08 09 0A 0B 0C 0D 0E 0F
      -- -- -- -- -- -- -- --  -- -- -- -- -- -- -- --
0000:    37 00 80 01 80 02 80  03 80 92 01 F8 FF FF 7F   7..............
0010: 5E 69 64 31 30 00                                 ^id10.          
```

#### Opcodes

```
  0: 0x0001 [0x37] UPDATE_EVENT_POSITION_AND_DIR: x=-53.764*, z=124.739*, y=0.000*, direction=172.3°*
  1: 0x000A [0x92] EventEntity->Render.Flags3 ^= 0x01
  2: 0x0010 [0x5E] EventEntity goes idle (kills current action) (animation: "id10")
  3: 0x0015 [0x00] END_REQSTACK()
```
