# 17576361 - Tebhi

## Common Data

| Field            | Value                            |
|------------------|----------------------------------|
| Zone             | The Eldieme Necropolis (ID: 195) |
| Block Size       | 716 bytes                        |
| Total Events     | 15                               |
| References Count | 40                               |

## List of Events

| Event ID                   | Entrypoint   |   Size |   Instructions |
|----------------------------|--------------|--------|----------------|
| [65535](#event-65535)      | 0x0000       |      1 |              1 |
| [45](#event-45)            | 0x0001       |     25 |              4 |
| [65535.1](#event-655351)   | 0x001A       |     19 |              3 |
| [65535.2](#event-655352)   | 0x002D       |     14 |              4 |
| [65535.3](#event-655353)   | 0x003B       |     11 |              3 |
| [65535.4](#event-655354)   | 0x0046       |     38 |              9 |
| [65535.5](#event-655355)   | 0x006C       |     19 |              5 |
| [65535.6](#event-655356)   | 0x007F       |     16 |              4 |
| [65535.7](#event-655357)   | 0x008F       |     11 |              3 |
| [65535.8](#event-655358)   | 0x009A       |     17 |              3 |
| [65535.9](#event-655359)   | 0x00AB       |     10 |              2 |
| [65535.10](#event-6553510) | 0x00B5       |    127 |             19 |
| [65535.11](#event-6553511) | 0x0134       |     16 |              2 |
| [65535.12](#event-6553512) | 0x0144       |     10 |              2 |
| [65535.13](#event-6553513) | 0x014E       |    143 |             31 |

## DAT References (imed_data)

|   Index | Hex Value   |   Dec Value |
|---------|-------------|-------------|
|       0 | 0x0000      |           0 |
|       1 | 0xFFF97969  |  4294539625 |
|       2 | 0x7A120     |      500000 |
|       3 | 0x1F3F      |        7999 |
|       4 | 0x0FFF      |        4095 |
|       5 | 0x0060      |          96 |
|       6 | 0xFFF99ABF  |  4294548159 |
|       7 | 0x0FFB      |        4091 |
|       8 | 0x000D      |          13 |
|       9 | 0xFFF98BED  |  4294544365 |
|      10 | 0x1000      |        4096 |
|      11 | 0x0800      |        2048 |
|      12 | 0x0080      |         128 |
|      13 | 0x0001      |           1 |
|      14 | 0xFFF9812E  |  4294541614 |
|      15 | 0x7A162     |      500066 |
|      16 | 0xFFF96FA6  |  4294537126 |
|      17 | 0x7A484     |      500868 |
|      18 | 0xFFF94D73  |  4294528371 |
|      19 | 0x7A6C6     |      501446 |
|      20 | 0xFFFF2540  |  4294911296 |
|      21 | 0x1E9EB     |      125419 |
|      22 | 0xFFFF2173  |  4294910323 |
|      23 | 0x1ED35     |      126261 |
|      24 | 0x0240      |         576 |
|      25 | 0x00FD      |         253 |
|      26 | 0x003C      |          60 |
|      27 | 0x00D2      |         210 |
|      28 | 0xFFFECD4E  |  4294888782 |
|      29 | 0x235A2     |      144802 |
|      30 | 0x0ADD      |        2781 |
|      31 | 0x0028      |          40 |
|      32 | 0xFFFEBD07  |  4294884615 |
|      33 | 0x23F4A     |      147274 |
|      34 | 0x0050      |          80 |
|      35 | 0xFFFEBFB9  |  4294885305 |
|      36 | 0x2554A     |      152906 |
|      37 | 0xFFFEA582  |  4294878594 |
|      38 | 0x25F77     |      155511 |
|      39 | 0x0014      |          20 |

## Events

### Event 65535

#### Metadata

| Field        | Value   |
|--------------|---------|
| Entrypoint   | 0x0000  |
| Data Size    | 1 bytes |
| Instructions | 1       |

```
      00 01 02 03 04 05 06 07  08 09 0A 0B 0C 0D 0E 0F
      -- -- -- -- -- -- -- --  -- -- -- -- -- -- -- --
0000: 00                                                .               
```

#### Opcodes

```
  0: 0x0000 [0x00] END_REQSTACK()
```

### Event 45

#### Metadata

| Field        | Value    |
|--------------|----------|
| Entrypoint   | 0x0001   |
| Data Size    | 25 bytes |
| Instructions | 4        |

```
      00 01 02 03 04 05 06 07  08 09 0A 0B 0C 0D 0E 0F
      -- -- -- -- -- -- -- --  -- -- -- -- -- -- -- --
0000:    6C F8 FF FF 7F 00 80  00 80 37 01 80 02 80 03   l........7.....
0010: 80 04 80 92 01 F8 FF FF  7F 00                    ..........      
```

#### Opcodes

```
  0: 0x0001 [0x6C] FADE_ENTITY_COLOR(entity_id=EventEntity, end_alpha=0*, fade_time=0*)
  1: 0x000A [0x37] UPDATE_EVENT_POSITION_AND_DIR: x=-427.671*, z=500.000*, y=7.999*, direction=359.9째*
  2: 0x0013 [0x92] EventEntity->Render.Flags3 ^= 0x01
  3: 0x0019 [0x00] END_REQSTACK()
```

### Event 65535.1

#### Metadata

| Field        | Value    |
|--------------|----------|
| Entrypoint   | 0x001A   |
| Data Size    | 19 bytes |
| Instructions | 3        |

```
      00 01 02 03 04 05 06 07  08 09 0A 0B 0C 0D 0E 0F
      -- -- -- -- -- -- -- --  -- -- -- -- -- -- -- --
0010:                                6C F8 FF FF 7F 05            l.....
0020: 80 00 80 37 06 80 02 80  03 80 07 80 00           ...7.........   
```

#### Opcodes

```
  0: 0x001A [0x6C] FADE_ENTITY_COLOR(entity_id=EventEntity, end_alpha=96*, fade_time=0*)
  1: 0x0023 [0x37] UPDATE_EVENT_POSITION_AND_DIR: x=-419.137*, z=500.000*, y=7.999*, direction=359.5째*
  2: 0x002C [0x00] END_REQSTACK()
```

### Event 65535.2

#### Metadata

| Field        | Value    |
|--------------|----------|
| Entrypoint   | 0x002D   |
| Data Size    | 14 bytes |
| Instructions | 4        |

```
      00 01 02 03 04 05 06 07  08 09 0A 0B 0C 0D 0E 0F
      -- -- -- -- -- -- -- --  -- -- -- -- -- -- -- --
0020:                                         32 08 80               2..
0030: 1F 00 09 80 02 80 03 80  1F 01 00                 ...........     
```

#### Opcodes

```
  0: 0x002D [0x32] ExtData[1]->MainSpeed = 13* * 0.1
  1: 0x0030 [0x1F] MOVE_ENTITY: EventEntity moves to X=-422.931*, Z=500.000*, Y=7.999*
  2: 0x0038 [0x1F] MOVE_ENTITY: Update entity position (mode=1)
  3: 0x003A [0x00] END_REQSTACK()
```

### Event 65535.3

#### Metadata

| Field        | Value    |
|--------------|----------|
| Entrypoint   | 0x003B   |
| Data Size    | 11 bytes |
| Instructions | 3        |

```
      00 01 02 03 04 05 06 07  08 09 0A 0B 0C 0D 0E 0F
      -- -- -- -- -- -- -- --  -- -- -- -- -- -- -- --
0030:                                   1F 00 06 80 02             .....
0040: 80 03 80 1F 01 00                                 ......          
```

#### Opcodes

```
  0: 0x003B [0x1F] MOVE_ENTITY: EventEntity moves to X=-419.137*, Z=500.000*, Y=7.999*
  1: 0x0043 [0x1F] MOVE_ENTITY: Update entity position (mode=1)
  2: 0x0045 [0x00] END_REQSTACK()
```

### Event 65535.4

#### Metadata

| Field        | Value    |
|--------------|----------|
| Entrypoint   | 0x0046   |
| Data Size    | 38 bytes |
| Instructions | 9        |

```
      00 01 02 03 04 05 06 07  08 09 0A 0B 0C 0D 0E 0F
      -- -- -- -- -- -- -- --  -- -- -- -- -- -- -- --
0040:                   5E 77  6C 6B 30 03 00 00 0A 80        ^wlk0.....
0050: 02 00 00 0B 80 04 66 00  39 00 00 08 00 00 0C 80  ......f.9.......
0060: 1C 0D 80 01 50 00 5E 69  64 6C 30 00              ....P.^idl0.    
```

#### Opcodes

```
  0: 0x0046 [0x5E] EventEntity goes idle (kills current action) (animation: "wlk0")
  1: 0x004B [0x03] ExtData[1]->WorkLocal[0] = 4096*
  2: 0x0050 [0x02] IF !(ExtData[1]->WorkLocal[0] < 2048*) GOTO 0x0066
  3: 0x0058 [0x39] SET_ENTITY_DIRECTION(direction=ExtData[1]->WorkLocal[0])
  4: 0x005B [0x08] ExtData[1]->WorkLocal[0] -= 128*
  5: 0x0060 [0x1C] WAIT(1* ticks)
  6: 0x0063 [0x01] GOTO 0x0050
  7: 0x0066 [0x5E] EventEntity goes idle (kills current action) (animation: "idl0")
  8: 0x006B [0x00] END_REQSTACK()
```

### Event 65535.5

#### Metadata

| Field        | Value    |
|--------------|----------|
| Entrypoint   | 0x006C   |
| Data Size    | 19 bytes |
| Instructions | 5        |

```
      00 01 02 03 04 05 06 07  08 09 0A 0B 0C 0D 0E 0F
      -- -- -- -- -- -- -- --  -- -- -- -- -- -- -- --
0060:                                      32 08 80 1F              2...
0070: 00 0E 80 0F 80 03 80 1F  01 1E A8 31 0C 01 00     ...........1... 
```

#### Opcodes

```
  0: 0x006C [0x32] ExtData[1]->MainSpeed = 13* * 0.1
  1: 0x006F [0x1F] MOVE_ENTITY: EventEntity moves to X=-425.682*, Z=500.066*, Y=7.999*
  2: 0x0077 [0x1F] MOVE_ENTITY: Update entity position (mode=1)
  3: 0x0079 [0x1E] EventEntity looks at Balpah (ID: 17576360/0x010C31A8) and starts talking
  4: 0x007E [0x00] END_REQSTACK()
```

### Event 65535.6

#### Metadata

| Field        | Value    |
|--------------|----------|
| Entrypoint   | 0x007F   |
| Data Size    | 16 bytes |
| Instructions | 4        |

```
      00 01 02 03 04 05 06 07  08 09 0A 0B 0C 0D 0E 0F
      -- -- -- -- -- -- -- --  -- -- -- -- -- -- -- --
0070:                                               1F                 .
0080: 00 10 80 11 80 03 80 1F  01 1E F0 FF FF 7F 00     ............... 
```

#### Opcodes

```
  0: 0x007F [0x1F] MOVE_ENTITY: EventEntity moves to X=-430.170*, Z=500.868*, Y=7.999*
  1: 0x0087 [0x1F] MOVE_ENTITY: Update entity position (mode=1)
  2: 0x0089 [0x1E] EventEntity looks at LocalPlayer and starts talking
  3: 0x008E [0x00] END_REQSTACK()
```

### Event 65535.7

#### Metadata

| Field        | Value    |
|--------------|----------|
| Entrypoint   | 0x008F   |
| Data Size    | 11 bytes |
| Instructions | 3        |

```
      00 01 02 03 04 05 06 07  08 09 0A 0B 0C 0D 0E 0F
      -- -- -- -- -- -- -- --  -- -- -- -- -- -- -- --
0080:                                               1F                 .
0090: 00 12 80 13 80 03 80 1F  01 00                    ..........      
```

#### Opcodes

```
  0: 0x008F [0x1F] MOVE_ENTITY: EventEntity moves to X=-438.925*, Z=501.446*, Y=7.999*
  1: 0x0097 [0x1F] MOVE_ENTITY: Update entity position (mode=1)
  2: 0x0099 [0x00] END_REQSTACK()
```

### Event 65535.8

#### Metadata

| Field        | Value    |
|--------------|----------|
| Entrypoint   | 0x009A   |
| Data Size    | 17 bytes |
| Instructions | 3        |

```
      00 01 02 03 04 05 06 07  08 09 0A 0B 0C 0D 0E 0F
      -- -- -- -- -- -- -- --  -- -- -- -- -- -- -- --
0090:                                6C F8 FF FF 7F 0C            l.....
00A0: 80 00 80 36 14 80 15 80  00 80 00                 ...6.......     
```

#### Opcodes

```
  0: 0x009A [0x6C] FADE_ENTITY_COLOR(entity_id=EventEntity, end_alpha=128*, fade_time=0*)
  1: 0x00A3 [0x36] SET_ENTITY_EVENT_POSITION(pos_x=-56.000*, pos_z=125.419*, pos_y=0.000*)
  2: 0x00AA [0x00] END_REQSTACK()
```

### Event 65535.9

#### Metadata

| Field        | Value    |
|--------------|----------|
| Entrypoint   | 0x00AB   |
| Data Size    | 10 bytes |
| Instructions | 2        |

```
      00 01 02 03 04 05 06 07  08 09 0A 0B 0C 0D 0E 0F
      -- -- -- -- -- -- -- --  -- -- -- -- -- -- -- --
00A0:                                   37 16 80 17 80             7....
00B0: 00 80 18 80 00                                    .....           
```

#### Opcodes

```
  0: 0x00AB [0x37] UPDATE_EVENT_POSITION_AND_DIR: x=-56.973*, z=126.261*, y=0.000*, direction=50.6째*
  1: 0x00B4 [0x00] END_REQSTACK()
```

### Event 65535.10

#### Metadata

| Field        | Value     |
|--------------|-----------|
| Entrypoint   | 0x00B5    |
| Data Size    | 127 bytes |
| Instructions | 19        |

```
      00 01 02 03 04 05 06 07  08 09 0A 0B 0C 0D 0E 0F
      -- -- -- -- -- -- -- --  -- -- -- -- -- -- -- --
00B0:                5B 19 80  F8 FF FF 7F F8 FF FF 7F       [..........
00C0: 62 6F 77 30 1C 1A 80 27  03 AA 31 0C 01 02 27 03  bow0...'..1...'.
00D0: AB 31 0C 01 02 27 03 AC  31 0C 01 02 27 03 AD 31  .1...'..1...'..1
00E0: 0C 01 02 27 03 AE 31 0C  01 02 27 03 AF 31 0C 01  ...'..1...'..1..
00F0: 02 27 03 B0 31 0C 01 02  27 03 B1 31 0C 01 02 27  .'..1...'..1...'
0100: 03 C2 31 0C 01 02 27 03  C3 31 0C 01 02 27 03 C4  ..1...'..1...'..
0110: 31 0C 01 02 27 03 C5 31  0C 01 02 27 03 C7 31 0C  1...'..1...'..1.
0120: 01 02 27 03 C9 31 0C 01  02 27 03 CA 31 0C 01 02  ..'..1...'..1...
0130: 1C 1B 80 00                                       ....            
```

#### Opcodes

```
  0: 0x00B5 [0x5B] LOAD_EXT_SCHEDULER: Load scheduler "bow0" with entities [EventEntity, EventEntity], work=253*
  1: 0x00C4 [0x1C] WAIT(60* ticks)
  2: 0x00C7 [0x27] REQ_SET(priority=0x03, entity_id=00 (ID: 17576362/0x010C31AA), tag_num=0x02)
  3: 0x00CE [0x27] REQ_SET(priority=0x03, entity_id=01 (ID: 17576363/0x010C31AB), tag_num=0x02)
  4: 0x00D5 [0x27] REQ_SET(priority=0x03, entity_id=02 (ID: 17576364/0x010C31AC), tag_num=0x02)
  5: 0x00DC [0x27] REQ_SET(priority=0x03, entity_id=03 (ID: 17576365/0x010C31AD), tag_num=0x02)
  6: 0x00E3 [0x27] REQ_SET(priority=0x03, entity_id=04 (ID: 17576366/0x010C31AE), tag_num=0x02)
  7: 0x00EA [0x27] REQ_SET(priority=0x03, entity_id=05 (ID: 17576367/0x010C31AF), tag_num=0x02)
  8: 0x00F1 [0x27] REQ_SET(priority=0x03, entity_id=06 (ID: 17576368/0x010C31B0), tag_num=0x02)
  9: 0x00F8 [0x27] REQ_SET(priority=0x03, entity_id=07 (ID: 17576369/0x010C31B1), tag_num=0x02)
 10: 0x00FF [0x27] REQ_SET(priority=0x03, entity_id=24 (ID: 17576386/0x010C31C2), tag_num=0x02)
 11: 0x0106 [0x27] REQ_SET(priority=0x03, entity_id=25 (ID: 17576387/0x010C31C3), tag_num=0x02)
 12: 0x010D [0x27] REQ_SET(priority=0x03, entity_id=26 (ID: 17576388/0x010C31C4), tag_num=0x02)
 13: 0x0114 [0x27] REQ_SET(priority=0x03, entity_id=27 (ID: 17576389/0x010C31C5), tag_num=0x02)
 14: 0x011B [0x27] REQ_SET(priority=0x03, entity_id=29 (ID: 17576391/0x010C31C7), tag_num=0x02)
 15: 0x0122 [0x27] REQ_SET(priority=0x03, entity_id=31 (ID: 17576393/0x010C31C9), tag_num=0x02)
 16: 0x0129 [0x27] REQ_SET(priority=0x03, entity_id=32 (ID: 17576394/0x010C31CA), tag_num=0x02)
 17: 0x0130 [0x1C] WAIT(210* ticks)
 18: 0x0133 [0x00] END_REQSTACK()
```

### Event 65535.11

#### Metadata

| Field        | Value    |
|--------------|----------|
| Entrypoint   | 0x0134   |
| Data Size    | 16 bytes |
| Instructions | 2        |

```
      00 01 02 03 04 05 06 07  08 09 0A 0B 0C 0D 0E 0F
      -- -- -- -- -- -- -- --  -- -- -- -- -- -- -- --
0130:             5B 19 80 F8  FF FF 7F F8 FF FF 7F 67      [..........g
0140: 65 69 30 00                                       ei0.            
```

#### Opcodes

```
  0: 0x0134 [0x5B] LOAD_EXT_SCHEDULER: Load scheduler "gei0" with entities [EventEntity, EventEntity], work=253*
  1: 0x0143 [0x00] END_REQSTACK()
```

### Event 65535.12

#### Metadata

| Field        | Value    |
|--------------|----------|
| Entrypoint   | 0x0144   |
| Data Size    | 10 bytes |
| Instructions | 2        |

```
      00 01 02 03 04 05 06 07  08 09 0A 0B 0C 0D 0E 0F
      -- -- -- -- -- -- -- --  -- -- -- -- -- -- -- --
0140:             37 1C 80 1D  80 00 80 1E 80 00            7.........  
```

#### Opcodes

```
  0: 0x0144 [0x37] UPDATE_EVENT_POSITION_AND_DIR: x=-78.514*, z=144.802*, y=0.000*, direction=244.4째*
  1: 0x014D [0x00] END_REQSTACK()
```

### Event 65535.13

#### Metadata

| Field        | Value     |
|--------------|-----------|
| Entrypoint   | 0x014E    |
| Data Size    | 143 bytes |
| Instructions | 31        |

```
      00 01 02 03 04 05 06 07  08 09 0A 0B 0C 0D 0E 0F
      -- -- -- -- -- -- -- --  -- -- -- -- -- -- -- --
0140:                                            32 1F                2.
0150: 80 1F 00 20 80 21 80 00  80 1F 01 06 01 00 02 01  ... .!..........
0160: 00 22 80 05 74 01 1E A8  31 0C 01 0B 01 00 1C 0D  ."..t...1.......
0170: 80 01 5E 01 1F 00 23 80  24 80 00 80 1F 01 06 01  ..^...#.$.......
0180: 00 02 01 00 22 80 05 97  01 1E A8 31 0C 01 0B 01  ...."......1....
0190: 00 1C 0D 80 01 81 01 1F  00 25 80 26 80 00 80 1F  .........%.&....
01A0: 01 06 01 00 02 01 00 22  80 05 BA 01 1E A8 31 0C  ......."......1.
01B0: 01 0B 01 00 1C 0D 80 01  A4 01 2A 04 A8 31 0C 01  ..........*..1..
01C0: 3B A8 31 0C 01 02 00 03  00 04 00 31 00 02 00 03  ;.1........1....
01D0: 00 04 00 27 80 31 01 1E  A8 31 0C 01 00           ...'.1...1...   
```

#### Opcodes

```
  0: 0x014E [0x32] ExtData[1]->MainSpeed = 40* * 0.1
  1: 0x0151 [0x1F] MOVE_ENTITY: EventEntity moves to X=-82.681*, Z=147.274*, Y=0.000*
  2: 0x0159 [0x1F] MOVE_ENTITY: Update entity position (mode=1)
  3: 0x015B [0x06] ExtData[1]->WorkLocal[1] = 0
  4: 0x015E [0x02] IF !(ExtData[1]->WorkLocal[1] > 80*) GOTO 0x0174
  5: 0x0166 [0x1E] EventEntity looks at Balpah (ID: 17576360/0x010C31A8) and starts talking
  6: 0x016B [0x0B] ExtData[1]->WorkLocal[1]++
  7: 0x016E [0x1C] WAIT(1* ticks)
  8: 0x0171 [0x01] GOTO 0x015E
  9: 0x0174 [0x1F] MOVE_ENTITY: EventEntity moves to X=-81.991*, Z=152.906*, Y=0.000*
 10: 0x017C [0x1F] MOVE_ENTITY: Update entity position (mode=1)
 11: 0x017E [0x06] ExtData[1]->WorkLocal[1] = 0

SUBROUTINE_0181:
 12: 0x0181 [0x02] IF !(ExtData[1]->WorkLocal[1] > 80*) GOTO 0x0197
 13: 0x0189 [0x1E] EventEntity looks at Balpah (ID: 17576360/0x010C31A8) and starts talking
 14: 0x018E [0x0B] ExtData[1]->WorkLocal[1]++
 15: 0x0191 [0x1C] WAIT(1* ticks)
 16: 0x0194 [0x01] GOTO 0x0181
 17: 0x0197 [0x1F] MOVE_ENTITY: EventEntity moves to X=-88.702*, Z=155.511*, Y=0.000*
 18: 0x019F [0x1F] MOVE_ENTITY: Update entity position (mode=1)
 19: 0x01A1 [0x06] ExtData[1]->WorkLocal[1] = 0

SUBROUTINE_01A4:
 20: 0x01A4 [0x02] IF !(ExtData[1]->WorkLocal[1] > 80*) GOTO 0x01BA
 21: 0x01AC [0x1E] EventEntity looks at Balpah (ID: 17576360/0x010C31A8) and starts talking
 22: 0x01B1 [0x0B] ExtData[1]->WorkLocal[1]++
 23: 0x01B4 [0x1C] WAIT(1* ticks)
 24: 0x01B7 [0x01] GOTO 0x01A4
 25: 0x01BA [0x2A] GET_REQ_LEVEL(level=4, entity_id=Balpah (ID: 17576360/0x010C31A8))
 26: 0x01C0 [0x3B] GET_ENTITY_POSITION(entity=Balpah (ID: 17576360/0x010C31A8), x_destination=ExtData[1]->WorkLocal[2], y_destination=ExtData[1]->WorkLocal[3], z_destination=ExtData[1]->WorkLocal[4])
 27: 0x01CB [0x31] UPDATE_ENTITY_POSITION: Set EventEntity goal position to X=ExtData[1]->WorkLocal[2], Z=ExtData[1]->WorkLocal[3], Y=ExtData[1]->WorkLocal[4], Time=20*
 28: 0x01D5 [0x31] UPDATE_ENTITY_POSITION: Move EventEntity towards goal position
 29: 0x01D7 [0x1E] EventEntity looks at Balpah (ID: 17576360/0x010C31A8) and starts talking
 30: 0x01DC [0x00] END_REQSTACK()
```
