# 17576359

## Common Data

| Field            | Value                            |
|------------------|----------------------------------|
| Zone             | The Eldieme Necropolis (ID: 195) |
| Block Size       | 104 bytes                        |
| Total Events     | 2                                |
| References Count | 6                                |

## List of Events

| Event ID              | Entrypoint   |   Size |   Instructions |
|-----------------------|--------------|--------|----------------|
| [65535](#event-65535) | 0x0000       |      1 |              1 |
| [50](#event-50)       | 0x0001       |     55 |             13 |

## DAT References (imed_data)

|   Index | Hex Value   |   Dec Value |
|---------|-------------|-------------|
|       0 | 0x00AF      |         175 |
|       1 | 0x1D05      |        7429 |
|       2 | 0x1D06      |        7430 |
|       3 | 0x0001      |           1 |
|       4 | 0x0000      |           0 |
|       5 | 0x40000000  |  1073741824 |

## String References

- **7429**: This flame seems to be burning a little brighter than the others.
- **7430**: Hold the $3 over the flame? [Yes./No.]

## Events

### Event 65535

#### Metadata

| Field        | Value   |
|--------------|---------|
| Entrypoint   | 0x0000  |
| Data Size    | 1 bytes |
| Instructions | 1       |

```
      00 01 02 03 04 05 06 07  08 09 0A 0B 0C 0D 0E 0F
      -- -- -- -- -- -- -- --  -- -- -- -- -- -- -- --
0000: 00                                                .               
```

#### Opcodes

```
  0: 0x0000 [0x00] END_REQSTACK()
```

### Event 50

#### Metadata

| Field        | Value    |
|--------------|----------|
| Entrypoint   | 0x0001   |
| Data Size    | 55 bytes |
| Instructions | 13       |

```
      00 01 02 03 04 05 06 07  08 09 0A 0B 0C 0D 0E 0F
      -- -- -- -- -- -- -- --  -- -- -- -- -- -- -- --
0000:    03 09 10 00 80 48 01  80 23 4A F0 FF FF 7F F8   .....H..#J.....
0010: FF FF 7F 24 02 80 03 80  04 80 25 02 00 10 04 80  ...$......%.....
0020: 00 26 00 01 36 00 02 00  10 03 80 00 36 00 03 01  .&..6.......6...
0030: 10 05 80 01 36 00 21 00                           ....6.!.        
```

#### Opcodes

```
  0: 0x0001 [0x03] Work_Zone[9] = 175*
  1: 0x0006 [0x48] [System] [7429*]:
    → "This flame seems to be burning a little brighter than the others."
  2: 0x0009 [0x23] WAIT_FOR_DIALOG_INTERACTION
  3: 0x000A [0x4A] LocalPlayer looks at EventEntity
  4: 0x0013 [0x24] CREATE_DIALOG(message_id=7430*, default_option=1*, option_flags=0*)
    → "Hold the $3 over the flame? [Yes./No.]"
  5: 0x001A [0x25] WAIT_DIALOG_SELECT()
  6: 0x001B [0x02] IF !(Work_Zone[0] == 0*) GOTO 0x0026
  7: 0x0023 [0x01] GOTO 0x0036
  8: 0x0026 [0x02] IF !(Work_Zone[0] == 1*) GOTO 0x0036
  9: 0x002E [0x03] Work_Zone[1] = 1073741824*
 10: 0x0033 [0x01] GOTO 0x0036

SUBROUTINE_0036:
 11: 0x0036 [0x21] END_EVENT
 12: 0x0037 [0x00] END_REQSTACK()
```
