# 0x7FFFFFF0 - Zone Events

## Common Data

| Field            | Value                            |
|------------------|----------------------------------|
| Zone             | The Eldieme Necropolis (ID: 195) |
| Block Size       | 4908 bytes                       |
| Total Events     | 21                               |
| References Count | 97                               |

## List of Events

| Event ID                   | Entrypoint   |   Size |   Instructions |
|----------------------------|--------------|--------|----------------|
| [65535](#event-65535)      | 0x0000       |      1 |              1 |
| [65534](#event-65534)      | 0x0001       |      1 |              1 |
| [65535.1](#event-655351)   | 0x0002       |     37 |              5 |
| [65535.2](#event-655352)   | 0x0027       |    185 |             37 |
| [44](#event-44)            | 0x00E0       |     89 |             17 |
| [45](#event-45)            | 0x0139       |   3277 |            425 |
| [65535.3](#event-655353)   | 0x0E06       |     10 |              2 |
| [65535.4](#event-655354)   | 0x0E10       |     10 |              2 |
| [65535.5](#event-655355)   | 0x0E1A       |     10 |              2 |
| [65535.6](#event-655356)   | 0x0E24       |     10 |              2 |
| [65535.7](#event-655357)   | 0x0E2E       |     14 |              4 |
| [65535.8](#event-655358)   | 0x0E3C       |      6 |              2 |
| [65535.9](#event-655359)   | 0x0E42       |      6 |              2 |
| [65535.10](#event-6553510) | 0x0E48       |      6 |              2 |
| [65535.11](#event-6553511) | 0x0E4E       |      6 |              2 |
| [65535.12](#event-6553512) | 0x0E54       |      6 |              2 |
| [4](#event-4)              | 0x0E5A       |    548 |             66 |
| [51](#event-51)            | 0x107E       |    148 |             20 |
| [65535.13](#event-6553513) | 0x1112       |     26 |              6 |
| [65535.14](#event-6553514) | 0x112C       |     10 |              2 |
| [65535.15](#event-6553515) | 0x1136       |     14 |              4 |

## DAT References (imed_data)

|   Index | Hex Value   |   Dec Value |
|---------|-------------|-------------|
|       0 | 0x0005      |           5 |
|       1 | 0x0001      |           1 |
|       2 | 0x0002      |           2 |
|       3 | 0x000A      |          10 |
|       4 | 0x0009      |           9 |
|       5 | 0x0046      |          70 |
|       6 | 0x008C      |         140 |
|       7 | 0x00D2      |         210 |
|       8 | 0x0030      |          48 |
|       9 | 0x1CDB      |        7387 |
|      10 | 0x0000      |           0 |
|      11 | 0x0003      |           3 |
|      12 | 0x00C9      |         201 |
|      13 | 0x00C8      |         200 |
|      14 | 0x009D      |         157 |
|      15 | 0x0013      |          19 |
|      16 | 0xFFF98A65  |  4294543973 |
|      17 | 0x7A12D     |      500013 |
|      18 | 0x1F40      |        8000 |
|      19 | 0x0FFB      |        4091 |
|      20 | 0x00CF      |         207 |
|      21 | 0x0060      |          96 |
|      22 | 0x012C      |         300 |
|      23 | 0x1D08      |        7432 |
|      24 | 0x1D09      |        7433 |
|      25 | 0x1D0A      |        7434 |
|      26 | 0x000F      |          15 |
|      27 | 0x1D0B      |        7435 |
|      28 | 0x001E      |          30 |
|      29 | 0x01C2      |         450 |
|      30 | 0x1D0C      |        7436 |
|      31 | 0x1D0D      |        7437 |
|      32 | 0xFFF989CF  |  4294543823 |
|      33 | 0x79CF5     |      498933 |
|      34 | 0x1F3F      |        7999 |
|      35 | 0x0FBB      |        4027 |
|      36 | 0x003C      |          60 |
|      37 | 0x1D0E      |        7438 |
|      38 | 0x005A      |          90 |
|      39 | 0x1D0F      |        7439 |
|      40 | 0x00F4      |         244 |
|      41 | 0x007C      |         124 |
|      42 | 0x000C      |          12 |
|      43 | 0x1D10      |        7440 |
|      44 | 0x1D11      |        7441 |
|      45 | 0x0012      |          18 |
|      46 | 0x1D12      |        7442 |
|      47 | 0x00C3      |         195 |
|      48 | 0x1D13      |        7443 |
|      49 | 0x0078      |         120 |
|      50 | 0x1D14      |        7444 |
|      51 | 0x1D15      |        7445 |
|      52 | 0x1D16      |        7446 |
|      53 | 0x1D17      |        7447 |
|      54 | 0xFFF99B20  |  4294548256 |
|      55 | 0x7AC67     |      502887 |
|      56 | 0x0800      |        2048 |
|      57 | 0x668B6     |      420022 |
|      58 | 0xFFFE2AA5  |  4294847141 |
|      59 | 0xFFFF2541  |  4294911297 |
|      60 | 0x0BFC      |        3068 |
|      61 | 0x2C19F     |      180639 |
|      62 | 0xFFFF2627  |  4294911527 |
|      63 | 0xFFFF8301  |  4294935297 |
|      64 | 0x09DC      |        2524 |
|      65 | 0x2801F     |      163871 |
|      66 | 0xFFFEA749  |  4294879049 |
|      67 | 0xFFFF939B  |  4294939547 |
|      68 | 0x00E9      |         233 |
|      69 | 0x000D      |          13 |
|      70 | 0xFFFE36F8  |  4294850296 |
|      71 | 0x00A1      |         161 |
|      72 | 0x007F      |         127 |
|      73 | 0x0010      |          16 |
|      74 | 0x0064      |         100 |
|      75 | 0x1D1F      |        7455 |
|      76 | 0x66856     |      419926 |
|      77 | 0xFFFE361A  |  4294850074 |
|      78 | 0xFFFF2540  |  4294911296 |
|      79 | 0x0B6B      |        2923 |
|      80 | 0x00B4      |         180 |
|      81 | 0x1D30      |        7472 |
|      82 | 0xFFFBEC15  |  4294700053 |
|      83 | 0x2B0F4     |      176372 |
|      84 | 0xFFFFF2BE  |  4294963902 |
|      85 | 0x0288      |         648 |
|      86 | 0xFFFBFD5A  |  4294704474 |
|      87 | 0x29FEE     |      172014 |
|      88 | 0xFFFFF850  |  4294965328 |
|      89 | 0xFFFC0BF4  |  4294708212 |
|      90 | 0x26BEC     |      158700 |
|      91 | 0x0080      |         128 |
|      92 | 0x0447      |        1095 |
|      93 | 0x0028      |          40 |
|      94 | 0xFFFC0C09  |  4294708233 |
|      95 | 0x2474C     |      149324 |
|      96 | 0xFFFFFFCC  |  4294967244 |

## String References

- **7387**: Light your $3? [Yes./No.]

## Events

### Event 65535

#### Metadata

| Field        | Value   |
|--------------|---------|
| Entrypoint   | 0x0000  |
| Data Size    | 1 bytes |
| Instructions | 1       |

```
      00 01 02 03 04 05 06 07  08 09 0A 0B 0C 0D 0E 0F
      -- -- -- -- -- -- -- --  -- -- -- -- -- -- -- --
0000: 00                                                .               
```

#### Opcodes

```
  0: 0x0000 [0x00] END_REQSTACK()
```

### Event 65534

#### Metadata

| Field        | Value   |
|--------------|---------|
| Entrypoint   | 0x0001  |
| Data Size    | 1 bytes |
| Instructions | 1       |

```
      00 01 02 03 04 05 06 07  08 09 0A 0B 0C 0D 0E 0F
      -- -- -- -- -- -- -- --  -- -- -- -- -- -- -- --
0000:    00                                              .              
```

#### Opcodes

```
  0: 0x0001 [0x00] END_REQSTACK()
```

### Event 65535.1

#### Metadata

| Field        | Value    |
|--------------|----------|
| Entrypoint   | 0x0002   |
| Data Size    | 37 bytes |
| Instructions | 5        |

```
      00 01 02 03 04 05 06 07  08 09 0A 0B 0C 0D 0E 0F
      -- -- -- -- -- -- -- --  -- -- -- -- -- -- -- --
0000:       03 00 00 07 7F 1A  4C 00 66 01 00 F8 FF FF    ......L.f.....
0010: 7F F8 FF FF 7F 73 68 61  30 53 F8 FF FF 7F F8 FF  .....sha0S......
0020: FF 7F 73 68 61 30 00                              ..sha0.         
```

#### Opcodes

```
  0: 0x0002 [0x03] ExtData[1]->WorkLocal[0] = Entity->Race
  1: 0x0007 [0x1A] CALL_SUBROUTINE(address=0x004C)
  2: 0x000A [0x66] LOAD_EXT_SCHEDULER_MAIN: Load scheduler "sha0" with entities [EventEntity, EventEntity], work=ExtData[1]->WorkLocal[1]
  3: 0x0019 [0x53] WAIT_SCHEDULER_TASK: Wait for scheduler "sha0" with entities [EventEntity, EventEntity]
  4: 0x0026 [0x00] END_REQSTACK()
```

### Event 65535.2

#### Metadata

| Field        | Value     |
|--------------|-----------|
| Entrypoint   | 0x0027    |
| Data Size    | 185 bytes |
| Instructions | 13        |

```
      00 01 02 03 04 05 06 07  08 09 0A 0B 0C 0D 0E 0F
      -- -- -- -- -- -- -- --  -- -- -- -- -- -- -- --
0020:                      03  00 00 07 7F 1A 4C 00 66         ......L.f
0030: 01 00 F8 FF FF 7F F8 FF  FF 7F 73 68 61 31 53 F8  ..........sha1S.
0040: FF FF 7F F8 FF FF 7F 73  68 61 31 00 03 01 00 00  .......sha1.....
0050: 00 02 01 00 00 80 05 61  00 08 01 00 01 80 01 66  .......a.......f
0060: 00 08 01 00 02 80 14 01  00 03 80 07 01 00 04 80  ................
0070: 1B 03 01 00 00 00 02 01  00 00 80 05 86 00 08 01  ................
0080: 00 01 80 01 8B 00 08 01  00 02 80 14 01 00 03 80  ................
0090: 07 01 00 05 80 1B 03 01  00 00 00 02 01 00 00 80  ................
00A0: 05 AB 00 08 01 00 01 80  01 B0 00 08 01 00 02 80  ................
00B0: 14 01 00 03 80 07 01 00  06 80 1B 03 01 00 00 00  ................
00C0: 02 01 00 00 80 05 D0 00  08 01 00 01 80 01 D5 00  ................
00D0: 08 01 00 02 80 14 01 00  03 80 07 01 00 07 80 1B  ................
```

#### Opcodes

```
  0: 0x0027 [0x03] ExtData[1]->WorkLocal[0] = Entity->Race
  1: 0x002C [0x1A] CALL_SUBROUTINE(address=0x004C)
  2: 0x002F [0x66] LOAD_EXT_SCHEDULER_MAIN: Load scheduler "sha1" with entities [EventEntity, EventEntity], work=ExtData[1]->WorkLocal[1]
  3: 0x003E [0x53] WAIT_SCHEDULER_TASK: Wait for scheduler "sha1" with entities [EventEntity, EventEntity]
  4: 0x004B [0x00] END_REQSTACK()

SUBROUTINE_004C:
  5: 0x004C [0x03] ExtData[1]->WorkLocal[1] = ExtData[1]->WorkLocal[0]
  6: 0x0051 [0x02] IF !(ExtData[1]->WorkLocal[1] > 5*) GOTO 0x0061
  7: 0x0059 [0x08] ExtData[1]->WorkLocal[1] -= 1*
  8: 0x005E [0x01] GOTO 0x0066
  9: 0x0061 [0x08] ExtData[1]->WorkLocal[1] -= 2*

SUBROUTINE_0066:
 10: 0x0066 [0x14] ExtData[1]->WorkLocal[1] *= 10*
 11: 0x006B [0x07] ExtData[1]->WorkLocal[1] += 9*
 12: 0x0070 [0x1B] RETURN
```

#### Data or dead code:

```
# Dead code (unreachable instructions):
     0x0071 [0x03] ExtData[1]->WorkLocal[1] = ExtData[1]->WorkLocal[0]
     0x0076 [0x02] IF !(ExtData[1]->WorkLocal[1] > 5*) GOTO 0x0086
     0x007E [0x08] ExtData[1]->WorkLocal[1] -= 1*
     0x0083 [0x01] GOTO 0x008B
     0x0086 [0x08] ExtData[1]->WorkLocal[1] -= 2*
     0x008B [0x14] ExtData[1]->WorkLocal[1] *= 10*
     0x0090 [0x07] ExtData[1]->WorkLocal[1] += 70*
     0x0095 [0x1B] RETURN
     0x0096 [0x03] ExtData[1]->WorkLocal[1] = ExtData[1]->WorkLocal[0]
     0x009B [0x02] IF !(ExtData[1]->WorkLocal[1] > 5*) GOTO 0x00AB
     0x00A3 [0x08] ExtData[1]->WorkLocal[1] -= 1*
     0x00A8 [0x01] GOTO 0x00B0
     0x00AB [0x08] ExtData[1]->WorkLocal[1] -= 2*
     0x00B0 [0x14] ExtData[1]->WorkLocal[1] *= 10*
     0x00B5 [0x07] ExtData[1]->WorkLocal[1] += 140*
     0x00BA [0x1B] RETURN
     0x00BB [0x03] ExtData[1]->WorkLocal[1] = ExtData[1]->WorkLocal[0]
     0x00C0 [0x02] IF !(ExtData[1]->WorkLocal[1] > 5*) GOTO 0x00D0
     0x00C8 [0x08] ExtData[1]->WorkLocal[1] -= 1*
     0x00CD [0x01] GOTO 0x00D5
     0x00D0 [0x08] ExtData[1]->WorkLocal[1] -= 2*
     0x00D5 [0x14] ExtData[1]->WorkLocal[1] *= 10*
     0x00DA [0x07] ExtData[1]->WorkLocal[1] += 210*
     0x00DF [0x1B] RETURN
```

### Event 44

#### Metadata

| Field        | Value    |
|--------------|----------|
| Entrypoint   | 0x00E0   |
| Data Size    | 89 bytes |
| Instructions | 17       |

```
      00 01 02 03 04 05 06 07  08 09 0A 0B 0C 0D 0E 0F
      -- -- -- -- -- -- -- --  -- -- -- -- -- -- -- --
00E0: 03 02 00 02 10 03 03 00  03 10 03 09 10 08 80 24  ...............$
00F0: 09 80 01 80 0A 80 25 02  00 10 0A 80 00 27 01 02  ......%......'..
0100: 02 00 0B 80 00 24 01 02  03 00 0B 80 00 24 01 43  .....$.......$.C
0110: 00 43 01 45 0C 80 F0 FF  FF 7F F0 FF FF 7F 71 73  .C.E..........qs
0120: 74 63 0A 80 01 32 01 02  00 10 01 80 00 32 01 01  tc...2.......2..
0130: 32 01 03 01 10 00 10 21  00                       2......!.       
```

#### Opcodes

```
  0: 0x00E0 [0x03] ExtData[1]->WorkLocal[2] = Work_Zone[2]
  1: 0x00E5 [0x03] ExtData[1]->WorkLocal[3] = Work_Zone[3]
  2: 0x00EA [0x03] Work_Zone[9] = 48*
  3: 0x00EF [0x24] CREATE_DIALOG(message_id=7387*, default_option=1*, option_flags=0*)
    → "Light your $3? [Yes./No.]"
  4: 0x00F6 [0x25] WAIT_DIALOG_SELECT()
  5: 0x00F7 [0x02] IF !(Work_Zone[0] == 0*) GOTO 0x0127
  6: 0x00FF [0x02] IF !(ExtData[1]->WorkLocal[2] == 3*) GOTO 0x0124
  7: 0x0107 [0x02] IF !(ExtData[1]->WorkLocal[3] == 3*) GOTO 0x0124
  8: 0x010F [0x43] SEND_EVENT_UPDATE: Send pending tag to server (packet 0x005B)
  9: 0x0111 [0x43] SEND_EVENT_UPDATE: Check pending flag (skip if not pending)
 10: 0x0113 [0x45] LOAD_SCHEDULED_TASK: Load scheduler "qstc" with entities [LocalPlayer, LocalPlayer], work=[201*, 0*]
 11: 0x0124 [0x01] GOTO 0x0132
 12: 0x0127 [0x02] IF !(Work_Zone[0] == 1*) GOTO 0x0132
 13: 0x012F [0x01] GOTO 0x0132

SUBROUTINE_0132:
 14: 0x0132 [0x03] Work_Zone[1] = Work_Zone[0]
 15: 0x0137 [0x21] END_EVENT
 16: 0x0138 [0x00] END_REQSTACK()
```

### Event 45

#### Metadata

| Field        | Value      |
|--------------|------------|
| Entrypoint   | 0x0139     |
| Data Size    | 3277 bytes |
| Instructions | 425        |

```
      00 01 02 03 04 05 06 07  08 09 0A 0B 0C 0D 0E 0F
      -- -- -- -- -- -- -- --  -- -- -- -- -- -- -- --
0130:                             20 01 46 01 42 45 0D            .F.BE.
0140: 80 F0 FF FF 7F F0 FF FF  7F 66 64 6F 31 0A 80 55  .........fdo1..U
0150: 0D 80 F0 FF FF 7F F0 FF  FF 7F 66 64 6F 31 5C 00  ..........fdo1\.
0160: 0E 80 5C 01 0E 80 38 0F  80 37 10 80 11 80 12 80  ..\...8..7......
0170: 13 80 4E 00 A8 31 0C 01  2F 00 A8 31 0C 01 2F 00  ..N..1../..1../.
0180: A9 31 0C 01 80 A8 31 0C  01 1E A8 31 0C 01 29 03  .1....1....1..).
0190: A8 31 0C 01 0B 45 14 80  F0 FF FF 7F F0 FF FF 7F  .1...E..........
01A0: 78 30 30 30 0A 80 55 14  80 F0 FF FF 7F F0 FF FF  x000..U.........
01B0: 7F 78 30 30 30 45 0D 80  F0 FF FF 7F F0 FF FF 7F  .x000E..........
01C0: 66 64 69 31 0A 80 55 0D  80 F0 FF FF 7F F0 FF FF  fdi1..U.........
01D0: 7F 66 64 69 31 45 14 80  F0 FF FF 7F F0 FF FF 7F  .fdi1E..........
01E0: 78 30 30 61 0A 80 6C A8  31 0C 01 15 80 16 80 2B  x00a..l.1......+
01F0: A8 31 0C 01 17 80 23 27  04 A8 31 0C 01 0C 55 14  .1....#'..1...U.
0200: 80 F0 FF FF 7F F0 FF FF  7F 78 30 30 61 2B A8 31  .........x00a+.1
0210: 0C 01 18 80 23 2A 04 A8  31 0C 01 27 03 A8 31 0C  ....#*..1..'..1.
0220: 01 07 2B A8 31 0C 01 19  80 23 27 04 A8 31 0C 01  ..+.1....#'..1..
0230: 08 1C 1A 80 45 14 80 F0  FF FF 7F F0 FF FF 7F 78  ....E..........x
0240: 30 30 31 0A 80 2A 04 A8  31 0C 01 2B A8 31 0C 01  001..*..1..+.1..
0250: 1B 80 23 55 14 80 F0 FF  FF 7F F0 FF FF 7F 78 30  ..#U..........x0
0260: 30 31 2C F0 FF FF 7F F0  FF FF 7F 6C 63 30 31 1C  01,........lc01.
0270: 1C 80 45 14 80 F0 FF FF  7F F0 FF FF 7F 78 30 30  ..E..........x00
0280: 33 0A 80 1C 1D 80 55 14  80 F0 FF FF 7F F0 FF FF  3.....U.........
0290: 7F 78 30 30 33 45 14 80  F0 FF FF 7F F0 FF FF 7F  .x003E..........
02A0: 78 30 30 32 0A 80 55 14  80 F0 FF FF 7F F0 FF FF  x002..U.........
02B0: 7F 78 30 30 32 5E 69 64  6C 30 2B A8 31 0C 01 1E  .x002^idl0+.1...
02C0: 80 23 45 14 80 F0 FF FF  7F F0 FF FF 7F 78 30 30  .#E..........x00
02D0: 34 0A 80 55 14 80 F0 FF  FF 7F F0 FF FF 7F 78 30  4..U..........x0
02E0: 30 34 79 00 A8 31 0C 01  A9 31 0C 01 5C 00 0A 80  04y..1...1..\...
02F0: 5C 01 0A 80 2B A8 31 0C  01 1F 80 23 37 20 80 21  \...+.1....#7 .!
0300: 80 22 80 23 80 45 14 80  F0 FF FF 7F F0 FF FF 7F  .".#.E..........
0310: 78 30 30 35 0A 80 4E 00  A9 31 0C 01 4A F0 FF FF  x005..N..1..J...
0320: 7F A9 31 0C 01 27 03 A9  31 0C 01 03 27 03 99 31  ..1..'..1...'..1
0330: 0C 01 04 1C 1A 80 62 0B  80 A9 31 0C 01 A9 31 0C  ......b...1...1.
0340: 01 6D 61 69 6E 0A 80 4A  F0 FF FF 7F A9 31 0C 01  .main..J.....1..
0350: 1C 24 80 4A F0 FF FF 7F  A9 31 0C 01 2A 03 A9 31  .$.J.....1..*..1
0360: 0C 01 4A F0 FF FF 7F A9  31 0C 01 55 14 80 F0 FF  ..J.....1..U....
0370: FF 7F F0 FF FF 7F 78 30  30 35 2B A8 31 0C 01 25  ......x005+.1..%
0380: 80 23 4A F0 FF FF 7F A8  31 0C 01 27 03 A9 31 0C  .#J.....1..'..1.
0390: 01 04 1C 26 80 27 03 A8  31 0C 01 0E 1C 1C 80 45  ...&.'..1......E
03A0: 14 80 F0 FF FF 7F F0 FF  FF 7F 78 30 30 36 0A 80  ..........x006..
03B0: 55 14 80 F0 FF FF 7F F0  FF FF 7F 78 30 30 36 2A  U..........x006*
03C0: 03 A9 31 0C 01 2B A8 31  0C 01 27 80 23 7B A8 31  ..1..+.1..'.#{.1
03D0: 0C 01 45 0D 80 F0 FF FF  7F F0 FF FF 7F 66 64 6F  ..E..........fdo
03E0: 31 0A 80 55 0D 80 F0 FF  FF 7F F0 FF FF 7F 66 64  1..U..........fd
03F0: 6F 31 34 28 80 5C 00 29  80 5C 01 29 80 29 03 A8  o14(.\.).\.).)..
0400: 31 0C 01 0E 4E 00 AA 31  0C 01 4E 00 AB 31 0C 01  1...N..1..N..1..
0410: 4E 00 AC 31 0C 01 4E 00  AD 31 0C 01 4E 00 AE 31  N..1..N..1..N..1
0420: 0C 01 4E 00 AF 31 0C 01  4E 00 B0 31 0C 01 4E 00  ..N..1..N..1..N.
0430: B1 31 0C 01 4E 00 B2 31  0C 01 4E 00 B3 31 0C 01  .1..N..1..N..1..
0440: 4E 00 B4 31 0C 01 4E 00  B5 31 0C 01 4E 00 B6 31  N..1..N..1..N..1
0450: 0C 01 4E 00 B7 31 0C 01  4E 00 B8 31 0C 01 4E 00  ..N..1..N..1..N.
0460: B9 31 0C 01 4E 00 BA 31  0C 01 4E 00 BB 31 0C 01  .1..N..1..N..1..
0470: 4E 00 BC 31 0C 01 4E 00  BD 31 0C 01 4E 00 BE 31  N..1..N..1..N..1
0480: 0C 01 4E 00 BF 31 0C 01  4E 00 C0 31 0C 01 4E 00  ..N..1..N..1..N.
0490: C1 31 0C 01 4E 00 C2 31  0C 01 4E 00 C3 31 0C 01  .1..N..1..N..1..
04A0: 4E 00 C4 31 0C 01 4E 00  C5 31 0C 01 4E 00 C6 31  N..1..N..1..N..1
04B0: 0C 01 4E 00 C7 31 0C 01  4E 00 C8 31 0C 01 4E 00  ..N..1..N..1..N.
04C0: C9 31 0C 01 4E 00 CA 31  0C 01 2F 00 AA 31 0C 01  .1..N..1../..1..
04D0: 2F 00 AB 31 0C 01 2F 00  AC 31 0C 01 2F 00 AD 31  /..1../..1../..1
04E0: 0C 01 2F 00 AE 31 0C 01  2F 00 AF 31 0C 01 2F 00  ../..1../..1../.
04F0: B0 31 0C 01 2F 00 B1 31  0C 01 2F 00 B2 31 0C 01  .1../..1../..1..
0500: 2F 00 B3 31 0C 01 2F 00  B4 31 0C 01 2F 00 B5 31  /..1../..1../..1
0510: 0C 01 2F 00 B6 31 0C 01  2F 00 B7 31 0C 01 2F 00  ../..1../..1../.
0520: B8 31 0C 01 2F 00 B9 31  0C 01 2F 00 BA 31 0C 01  .1../..1../..1..
0530: 2F 00 BB 31 0C 01 2F 00  BC 31 0C 01 2F 00 BD 31  /..1../..1../..1
0540: 0C 01 2F 00 BE 31 0C 01  2F 00 BF 31 0C 01 2F 00  ../..1../..1../.
0550: C0 31 0C 01 2F 00 C1 31  0C 01 2F 00 C2 31 0C 01  .1../..1../..1..
0560: 2F 00 C3 31 0C 01 2F 00  C4 31 0C 01 2F 00 C5 31  /..1../..1../..1
0570: 0C 01 2F 00 C6 31 0C 01  2F 00 C7 31 0C 01 2F 00  ../..1../..1../.
0580: C8 31 0C 01 2F 00 C9 31  0C 01 2F 00 CA 31 0C 01  .1../..1../..1..
0590: 79 00 AA 31 0C 01 A8 31  0C 01 79 00 AB 31 0C 01  y..1...1..y..1..
05A0: A8 31 0C 01 79 00 AC 31  0C 01 A8 31 0C 01 79 00  .1..y..1...1..y.
05B0: AD 31 0C 01 A8 31 0C 01  79 00 AE 31 0C 01 A8 31  .1...1..y..1...1
05C0: 0C 01 79 00 AF 31 0C 01  A8 31 0C 01 79 00 B0 31  ..y..1...1..y..1
05D0: 0C 01 A8 31 0C 01 79 00  B1 31 0C 01 A8 31 0C 01  ...1..y..1...1..
05E0: 79 00 B2 31 0C 01 A8 31  0C 01 79 00 B3 31 0C 01  y..1...1..y..1..
05F0: A8 31 0C 01 79 00 B4 31  0C 01 A8 31 0C 01 79 00  .1..y..1...1..y.
0600: B5 31 0C 01 A8 31 0C 01  79 00 B6 31 0C 01 A8 31  .1...1..y..1...1
0610: 0C 01 79 00 B7 31 0C 01  A8 31 0C 01 79 00 B8 31  ..y..1...1..y..1
0620: 0C 01 A8 31 0C 01 79 00  B9 31 0C 01 A8 31 0C 01  ...1..y..1...1..
0630: 79 00 BA 31 0C 01 A8 31  0C 01 79 00 BB 31 0C 01  y..1...1..y..1..
0640: A8 31 0C 01 79 00 BC 31  0C 01 A8 31 0C 01 79 00  .1..y..1...1..y.
0650: BD 31 0C 01 A8 31 0C 01  79 00 BE 31 0C 01 A8 31  .1...1..y..1...1
0660: 0C 01 79 00 BF 31 0C 01  A8 31 0C 01 79 00 C0 31  ..y..1...1..y..1
0670: 0C 01 A8 31 0C 01 79 00  C1 31 0C 01 A8 31 0C 01  ...1..y..1...1..
0680: 79 00 C2 31 0C 01 A8 31  0C 01 79 00 C3 31 0C 01  y..1...1..y..1..
0690: A8 31 0C 01 79 00 C4 31  0C 01 A8 31 0C 01 79 00  .1..y..1...1..y.
06A0: C5 31 0C 01 A8 31 0C 01  79 00 C6 31 0C 01 A8 31  .1...1..y..1...1
06B0: 0C 01 79 00 C7 31 0C 01  A8 31 0C 01 79 00 C8 31  ..y..1...1..y..1
06C0: 0C 01 A8 31 0C 01 79 00  C9 31 0C 01 A8 31 0C 01  ...1..y..1...1..
06D0: 79 00 CA 31 0C 01 A8 31  0C 01 80 AA 31 0C 01 80  y..1...1....1...
06E0: AB 31 0C 01 80 AC 31 0C  01 80 AD 31 0C 01 80 AE  .1....1....1....
06F0: 31 0C 01 80 AF 31 0C 01  80 B0 31 0C 01 80 B1 31  1....1....1....1
0700: 0C 01 80 B2 31 0C 01 80  B3 31 0C 01 80 B4 31 0C  ....1....1....1.
0710: 01 80 B5 31 0C 01 80 B6  31 0C 01 80 B7 31 0C 01  ...1....1....1..
0720: 80 B8 31 0C 01 80 B9 31  0C 01 80 BA 31 0C 01 80  ..1....1....1...
0730: BB 31 0C 01 80 BC 31 0C  01 80 BD 31 0C 01 80 BE  .1....1....1....
0740: 31 0C 01 80 BF 31 0C 01  80 C0 31 0C 01 80 C1 31  1....1....1....1
0750: 0C 01 80 C2 31 0C 01 80  C3 31 0C 01 80 C4 31 0C  ....1....1....1.
0760: 01 80 C5 31 0C 01 80 C6  31 0C 01 80 C7 31 0C 01  ...1....1....1..
0770: 80 C8 31 0C 01 80 C9 31  0C 01 80 CA 31 0C 01 80  ..1....1....1...
0780: A8 31 0C 01 7C 00 A8 31  0C 01 29 03 A8 31 0C 01  .1..|..1..)..1..
0790: 03 29 03 A9 31 0C 01 09  4A A9 31 0C 01 A8 31 0C  .)..1...J.1...1.
07A0: 01 6F 76 A9 31 0C 01 27  04 A9 31 0C 01 0C 45 14  .ov.1..'..1...E.
07B0: 80 F0 FF FF 7F F0 FF FF  7F 77 30 30 33 0A 80 55  .........w003..U
07C0: 14 80 F0 FF FF 7F F0 FF  FF 7F 77 30 30 33 77 2A  ..........w003w*
07D0: 80 0A 80 1C 24 80 29 04  A8 31 0C 01 0E 45 0D 80  ....$.)..1...E..
07E0: F0 FF FF 7F F0 FF FF 7F  66 64 69 31 0A 80 55 0D  ........fdi1..U.
07F0: 80 F0 FF FF 7F F0 FF FF  7F 66 64 69 31 45 14 80  .........fdi1E..
0800: F0 FF FF 7F F0 FF FF 7F  77 30 30 30 0A 80 2B A8  ........w000..+.
0810: 31 0C 01 2B 80 23 55 14  80 F0 FF FF 7F F0 FF FF  1..+.#U.........
0820: 7F 77 30 30 30 1C 26 80  45 0D 80 F0 FF FF 7F F0  .w000.&.E.......
0830: FF FF 7F 66 64 6F 31 0A  80 55 0D 80 F0 FF FF 7F  ...fdo1..U......
0840: F0 FF FF 7F 66 64 6F 31  6B 69 64 6C 30 A9 31 0C  ....fdo1kidl0.1.
0850: 01 29 03 A9 31 0C 01 0A  29 03 A8 31 0C 01 0F 1C  .)..1...)..1....
0860: 00 80 45 14 80 F0 FF FF  7F F0 FF FF 7F 77 30 30  ..E..........w00
0870: 31 0A 80 1C 00 80 45 0D  80 F0 FF FF 7F F0 FF FF  1.....E.........
0880: 7F 66 64 69 31 0A 80 55  0D 80 F0 FF FF 7F F0 FF  .fdi1..U........
0890: FF 7F 66 64 69 31 2B A8  31 0C 01 2C 80 23 55 14  ..fdi1+.1..,.#U.
08A0: 80 F0 FF FF 7F F0 FF FF  7F 77 30 30 31 45 14 80  .........w001E..
08B0: F0 FF FF 7F F0 FF FF 7F  77 30 30 34 0A 80 55 14  ........w004..U.
08C0: 80 F0 FF FF 7F F0 FF FF  7F 77 30 30 34 27 03 A8  .........w004'..
08D0: 31 0C 01 06 1C 26 80 45  14 80 F0 FF FF 7F F0 FF  1....&.E........
08E0: FF 7F 77 30 30 35 0A 80  55 14 80 F0 FF FF 7F F0  ..w005..U.......
08F0: FF FF 7F 77 30 30 35 4A  AA 31 0C 01 A9 31 0C 01  ...w005J.1...1..
0900: 4A AB 31 0C 01 A9 31 0C  01 4A AC 31 0C 01 A9 31  J.1...1..J.1...1
0910: 0C 01 4A AD 31 0C 01 A9  31 0C 01 4A AE 31 0C 01  ..J.1...1..J.1..
0920: A9 31 0C 01 4A AF 31 0C  01 A9 31 0C 01 4A B0 31  .1..J.1...1..J.1
0930: 0C 01 A9 31 0C 01 4A B1  31 0C 01 A9 31 0C 01 4A  ...1..J.1...1..J
0940: B2 31 0C 01 A9 31 0C 01  4A B3 31 0C 01 A9 31 0C  .1...1..J.1...1.
0950: 01 4A B4 31 0C 01 A9 31  0C 01 4A B5 31 0C 01 A9  .J.1...1..J.1...
0960: 31 0C 01 4A B6 31 0C 01  A9 31 0C 01 4A B7 31 0C  1..J.1...1..J.1.
0970: 01 A9 31 0C 01 4A B8 31  0C 01 A9 31 0C 01 4A B9  ..1..J.1...1..J.
0980: 31 0C 01 A9 31 0C 01 4A  BA 31 0C 01 A9 31 0C 01  1...1..J.1...1..
0990: 4A BB 31 0C 01 A9 31 0C  01 4A BC 31 0C 01 A9 31  J.1...1..J.1...1
09A0: 0C 01 4A BD 31 0C 01 A9  31 0C 01 4A BE 31 0C 01  ..J.1...1..J.1..
09B0: A9 31 0C 01 4A BF 31 0C  01 A9 31 0C 01 4A C0 31  .1..J.1...1..J.1
09C0: 0C 01 A9 31 0C 01 4A C1  31 0C 01 A9 31 0C 01 4A  ...1..J.1...1..J
09D0: C2 31 0C 01 A9 31 0C 01  4A C3 31 0C 01 A9 31 0C  .1...1..J.1...1.
09E0: 01 4A C4 31 0C 01 A9 31  0C 01 4A C5 31 0C 01 A9  .J.1...1..J.1...
09F0: 31 0C 01 4A C6 31 0C 01  A9 31 0C 01 4A C7 31 0C  1..J.1...1..J.1.
0A00: 01 A9 31 0C 01 4A C8 31  0C 01 A9 31 0C 01 4A C9  ..1..J.1...1..J.
0A10: 31 0C 01 A9 31 0C 01 4A  CA 31 0C 01 A9 31 0C 01  1...1..J.1...1..
0A20: 29 03 A9 31 0C 01 0B 1C  24 80 2A 03 A8 31 0C 01  )..1....$.*..1..
0A30: 7C 01 A8 31 0C 01 55 14  80 F0 FF FF 7F F0 FF FF  |..1..U.........
0A40: 7F 77 30 30 31 45 0D 80  F0 FF FF 7F F0 FF FF 7F  .w001E..........
0A50: 66 64 6F 31 0A 80 55 0D  80 F0 FF FF 7F F0 FF FF  fdo1..U.........
0A60: 7F 66 64 6F 31 2F 01 AA  31 0C 01 2F 01 AB 31 0C  .fdo1/..1../..1.
0A70: 01 2F 01 AC 31 0C 01 2F  01 AD 31 0C 01 2F 01 AE  ./..1../..1../..
0A80: 31 0C 01 2F 01 AF 31 0C  01 2F 01 B0 31 0C 01 2F  1../..1../..1../
0A90: 01 B1 31 0C 01 2F 01 B2  31 0C 01 2F 01 B3 31 0C  ..1../..1../..1.
0AA0: 01 2F 01 B4 31 0C 01 2F  01 B5 31 0C 01 2F 01 B6  ./..1../..1../..
0AB0: 31 0C 01 2F 01 B7 31 0C  01 2F 01 B8 31 0C 01 2F  1../..1../..1../
0AC0: 01 B9 31 0C 01 2F 01 BA  31 0C 01 2F 01 BB 31 0C  ..1../..1../..1.
0AD0: 01 2F 01 BC 31 0C 01 2F  01 BD 31 0C 01 2F 01 BE  ./..1../..1../..
0AE0: 31 0C 01 2F 01 BF 31 0C  01 2F 01 C0 31 0C 01 2F  1../..1../..1../
0AF0: 01 C1 31 0C 01 2F 01 C2  31 0C 01 2F 01 C3 31 0C  ..1../..1../..1.
0B00: 01 2F 01 C4 31 0C 01 2F  01 C5 31 0C 01 2F 01 C6  ./..1../..1../..
0B10: 31 0C 01 2F 01 C7 31 0C  01 2F 01 C8 31 0C 01 2F  1../..1../..1../
0B20: 01 C9 31 0C 01 2F 01 CA  31 0C 01 45 14 80 F0 FF  ..1../..1..E....
0B30: FF 7F F0 FF FF 7F 77 30  30 32 0A 80 77 2D 80 0A  ......w002..w-..
0B40: 80 79 00 A8 31 0C 01 A9  31 0C 01 29 03 A8 31 0C  .y..1...1..)..1.
0B50: 01 04 29 03 A9 31 0C 01  0D 27 04 A8 31 0C 01 05  ..)..1...'..1...
0B60: 27 04 A9 31 0C 01 0E 1C  03 80 45 0D 80 F0 FF FF  '..1......E.....
0B70: 7F F0 FF FF 7F 66 64 69  31 0A 80 55 0D 80 F0 FF  .....fdi1..U....
0B80: FF 7F F0 FF FF 7F 66 64  69 31 2B A8 31 0C 01 2E  ......fdi1+.1...
0B90: 80 23 2A 04 A9 31 0C 01  1C 24 80 45 0D 80 F0 FF  .#*..1...$.E....
0BA0: FF 7F F0 FF FF 7F 66 64  6F 32 0A 80 55 0D 80 F0  ......fdo2..U...
0BB0: FF FF 7F F0 FF FF 7F 66  64 6F 32 78 35 2F 80 78  .......fdo2x5/.x
0BC0: 29 03 A8 31 0C 01 02 29  03 A9 31 0C 01 02 37 20  )..1...)..1...7 
0BD0: 80 21 80 22 80 23 80 80  A8 31 0C 01 80 A9 31 0C  .!.".#...1....1.
0BE0: 01 79 00 A8 31 0C 01 A9  31 0C 01 45 14 80 F0 FF  .y..1...1..E....
0BF0: FF 7F F0 FF FF 7F 78 30  30 37 0A 80 55 14 80 F0  ......x007..U...
0C00: FF FF 7F F0 FF FF 7F 78  30 30 37 80 A8 31 0C 01  .......x007..1..
0C10: 29 04 A8 31 0C 01 0E 45  0D 80 F0 FF FF 7F F0 FF  )..1...E........
0C20: FF 7F 66 64 69 31 0A 80  55 0D 80 F0 FF FF 7F F0  ..fdi1..U.......
0C30: FF FF 7F 66 64 69 31 2B  A8 31 0C 01 30 80 23 29  ...fdi1+.1..0.#)
0C40: 03 A9 31 0C 01 05 27 04  A9 31 0C 01 06 1C 24 80  ..1...'..1....$.
0C50: 29 03 A8 31 0C 01 0F 1C  03 80 27 04 A8 31 0C 01  )..1......'..1..
0C60: 10 1C 31 80 45 14 80 F0  FF FF 7F F0 FF FF 7F 78  ..1.E..........x
0C70: 30 30 38 0A 80 55 14 80  F0 FF FF 7F F0 FF FF 7F  008..U..........
0C80: 78 30 30 38 2A 04 A8 31  0C 01 4A F0 FF FF 7F A8  x008*..1..J.....
0C90: 31 0C 01 1C 1C 80 4A A8  31 0C 01 F0 FF FF 7F 6F  1.....J.1......o
0CA0: 76 A8 31 0C 01 45 14 80  F0 FF FF 7F F0 FF FF 7F  v.1..E..........
0CB0: 78 30 30 62 0A 80 27 04  A8 31 0C 01 0D 2B A8 31  x00b..'..1...+.1
0CC0: 0C 01 32 80 23 2A 04 A8  31 0C 01 2B A8 31 0C 01  ..2.#*..1..+.1..
0CD0: 33 80 23 55 14 80 F0 FF  FF 7F F0 FF FF 7F 78 30  3.#U..........x0
0CE0: 30 62 27 04 A8 31 0C 01  11 1C 1C 80 27 04 A9 31  0b'..1......'..1
0CF0: 0C 01 07 1C 31 80 45 14  80 F0 FF FF 7F F0 FF FF  ....1.E.........
0D00: 7F 78 30 30 39 0A 80 55  14 80 F0 FF FF 7F F0 FF  .x009..U........
0D10: FF 7F 78 30 30 39 2A 04  A8 31 0C 01 2B A8 31 0C  ..x009*..1..+.1.
0D20: 01 34 80 23 45 14 80 F0  FF FF 7F F0 FF FF 7F 78  .4.#E..........x
0D30: 30 30 63 0A 80 79 00 A8  31 0C 01 A9 31 0C 01 1C  00c..y..1...1...
0D40: 24 80 4A A9 31 0C 01 A8  31 0C 01 2B A8 31 0C 01  $.J.1...1..+.1..
0D50: 35 80 23 55 14 80 F0 FF  FF 7F F0 FF FF 7F 78 30  5.#U..........x0
0D60: 30 63 1C 24 80 27 04 A8  31 0C 01 12 1C 24 80 27  0c.$.'..1....$.'
0D70: 04 A9 31 0C 01 08 1C 1C  80 27 03 98 31 0C 01 03  ..1......'..1...
0D80: 29 03 99 31 0C 01 03 1C  31 80 62 0B 80 A8 31 0C  )..1....1.b...1.
0D90: 01 A8 31 0C 01 6D 61 69  6E 0A 80 62 0B 80 A9 31  ..1..main..b...1
0DA0: 0C 01 A9 31 0C 01 6D 61  69 6E 0A 80 45 0D 80 F0  ...1..main..E...
0DB0: FF FF 7F F0 FF FF 7F 66  64 6F 32 0A 80 55 0D 80  .......fdo2..U..
0DC0: F0 FF FF 7F F0 FF FF 7F  66 64 6F 32 4E 01 A8 31  ........fdo2N..1
0DD0: 0C 01 4E 01 A9 31 0C 01  5C 00 0A 80 5C 01 0A 80  ..N..1..\...\...
0DE0: 46 00 45 0D 80 F0 FF FF  7F F0 FF FF 7F 66 64 69  F.E..........fdi
0DF0: 32 0A 80 45 0C 80 F0 FF  FF 7F F0 FF FF 7F 71 73  2..E..........qs
0E00: 74 63 0A 80 21 00                                 tc..!.          
```

#### Opcodes

```
  0: 0x0139 [0x20] SET_CLI_EVENT_UC_FLAG: Lock player control
  1: 0x013B [0x46] CAMERA_CONTROL: Disable user control
  2: 0x013D [0x42] SET_CLI_EVENT_CANCEL_DATA()
  3: 0x013E [0x45] LOAD_SCHEDULED_TASK: Load scheduler "fdo1" with entities [LocalPlayer, LocalPlayer], work=[200*, 0*]
  4: 0x014F [0x55] WAIT_LOAD_SCHEDULER: Wait for scheduler "fdo1" with entities [LocalPlayer, LocalPlayer], work=200*
  5: 0x015E [0x5C] MUSIC_CONTROL: Set Idle (Day) music to song 157*
  6: 0x0162 [0x5C] MUSIC_CONTROL: Set Idle (Night) music to song 157*
  7: 0x0166 [0x38] SET_CLIENT_EVENT_MODE(mode=19*)
  8: 0x0169 [0x37] UPDATE_EVENT_POSITION_AND_DIR: x=-423.323*, z=500.013*, y=8.000*, direction=359.5°*
  9: 0x0172 [0x4E] SET_ENTITY_HIDE_FLAG: Show Balpah (ID: 17576360/0x010C31A8)
 10: 0x0178 [0x2F] Balpah (ID: 17576360/0x010C31A8)->Render.Flags0 &= ~0x80000 // Bit 19
 11: 0x017E [0x2F] Tebhi (ID: 17576361/0x010C31A9)->Render.Flags0 &= ~0x80000 // Bit 19
 12: 0x0184 [0x80] LOAD_WAIT(entity=Balpah (ID: 17576360/0x010C31A8))
 13: 0x0189 [0x1E] EventEntity looks at Balpah (ID: 17576360/0x010C31A8) and starts talking
 14: 0x018E [0x29] REQ_SET_WAIT(priority=0x03, entity_id=Balpah (ID: 17576360/0x010C31A8), tag_num=0x0B)
 15: 0x0195 [0x45] LOAD_SCHEDULED_TASK: Load scheduler "x000" with entities [LocalPlayer, LocalPlayer], work=[207*, 0*]
 16: 0x01A6 [0x55] WAIT_LOAD_SCHEDULER: Wait for scheduler "x000" with entities [LocalPlayer, LocalPlayer], work=207*
 17: 0x01B5 [0x45] LOAD_SCHEDULED_TASK: Load scheduler "fdi1" with entities [LocalPlayer, LocalPlayer], work=[200*, 0*]
 18: 0x01C6 [0x55] WAIT_LOAD_SCHEDULER: Wait for scheduler "fdi1" with entities [LocalPlayer, LocalPlayer], work=200*
 19: 0x01D5 [0x45] LOAD_SCHEDULED_TASK: Load scheduler "x00a" with entities [LocalPlayer, LocalPlayer], work=[207*, 0*]
 20: 0x01E6 [0x6C] FADE_ENTITY_COLOR(entity_id=Balpah (ID: 17576360/0x010C31A8), end_alpha=96*, fade_time=300*)
 21: 0x01EF [0x2B] Balpah (ID: 17576360/0x010C31A8) [7432*]:
    → "I see you made it this far. I was waiting."
 22: 0x01F6 [0x23] WAIT_FOR_DIALOG_INTERACTION
 23: 0x01F7 [0x27] REQ_SET(priority=0x04, entity_id=Balpah (ID: 17576360/0x010C31A8), tag_num=0x0C)
 24: 0x01FE [0x55] WAIT_LOAD_SCHEDULER: Wait for scheduler "x00a" with entities [LocalPlayer, LocalPlayer], work=207*
 25: 0x020D [0x2B] Balpah (ID: 17576360/0x010C31A8) [7433*]:
    → "People will often sacrifice other living beings to save themselves. Look at yourself. You are no exception."
 26: 0x0214 [0x23] WAIT_FOR_DIALOG_INTERACTION
 27: 0x0215 [0x2A] GET_REQ_LEVEL(level=4, entity_id=Balpah (ID: 17576360/0x010C31A8))
 28: 0x021B [0x27] REQ_SET(priority=0x03, entity_id=Balpah (ID: 17576360/0x010C31A8), tag_num=0x07)
 29: 0x0222 [0x2B] Balpah (ID: 17576360/0x010C31A8) [7434*]:
    → "However there is still time. We must call forth the power of the beasts to put an end to the foolish acts of men."
 30: 0x0229 [0x23] WAIT_FOR_DIALOG_INTERACTION
 31: 0x022A [0x27] REQ_SET(priority=0x04, entity_id=Balpah (ID: 17576360/0x010C31A8), tag_num=0x08)
 32: 0x0231 [0x1C] WAIT(15* ticks)
 33: 0x0234 [0x45] LOAD_SCHEDULED_TASK: Load scheduler "x001" with entities [LocalPlayer, LocalPlayer], work=[207*, 0*]
 34: 0x0245 [0x2A] GET_REQ_LEVEL(level=4, entity_id=Balpah (ID: 17576360/0x010C31A8))
 35: 0x024B [0x2B] Balpah (ID: 17576360/0x010C31A8) [7435*]:
    → "Now, let us get our revenge on those who built this world of deceit at the expense of others."
 36: 0x0252 [0x23] WAIT_FOR_DIALOG_INTERACTION
 37: 0x0253 [0x55] WAIT_LOAD_SCHEDULER: Wait for scheduler "x001" with entities [LocalPlayer, LocalPlayer], work=207*
 38: 0x0262 [0x2C] CREATE_SCHEDULER_TASK: Create scheduler "lc01" with entities [LocalPlayer, LocalPlayer]
 39: 0x026F [0x1C] WAIT(30* ticks)
 40: 0x0272 [0x45] LOAD_SCHEDULED_TASK: Load scheduler "x003" with entities [LocalPlayer, LocalPlayer], work=[207*, 0*]
 41: 0x0283 [0x1C] WAIT(450* ticks)
 42: 0x0286 [0x55] WAIT_LOAD_SCHEDULER: Wait for scheduler "x003" with entities [LocalPlayer, LocalPlayer], work=207*
 43: 0x0295 [0x45] LOAD_SCHEDULED_TASK: Load scheduler "x002" with entities [LocalPlayer, LocalPlayer], work=[207*, 0*]
 44: 0x02A6 [0x55] WAIT_LOAD_SCHEDULER: Wait for scheduler "x002" with entities [LocalPlayer, LocalPlayer], work=207*
 45: 0x02B5 [0x5E] EventEntity goes idle (kills current action) (animation: "idl0")
 46: 0x02BA [0x2B] Balpah (ID: 17576360/0x010C31A8) [7436*]:
    → "Hah. That sound brings back memories...but that is not enough to ease my pain. Come, now, and be my eternal servant."
 47: 0x02C1 [0x23] WAIT_FOR_DIALOG_INTERACTION
 48: 0x02C2 [0x45] LOAD_SCHEDULED_TASK: Load scheduler "x004" with entities [LocalPlayer, LocalPlayer], work=[207*, 0*]
 49: 0x02D3 [0x55] WAIT_LOAD_SCHEDULER: Wait for scheduler "x004" with entities [LocalPlayer, LocalPlayer], work=207*
 50: 0x02E2 [0x79] Balpah (ID: 17576360/0x010C31A8) looks at Tebhi (ID: 17576361/0x010C31A9) (Basic look)
 51: 0x02EC [0x5C] MUSIC_CONTROL: Set Idle (Day) music to song 0*
 52: 0x02F0 [0x5C] MUSIC_CONTROL: Set Idle (Night) music to song 0*
 53: 0x02F4 [0x2B] Balpah (ID: 17576360/0x010C31A8) [7437*]:
    → "What!? You..."
 54: 0x02FB [0x23] WAIT_FOR_DIALOG_INTERACTION
 55: 0x02FC [0x37] UPDATE_EVENT_POSITION_AND_DIR: x=-423.473*, z=498.933*, y=7.999*, direction=353.9°*
 56: 0x0305 [0x45] LOAD_SCHEDULED_TASK: Load scheduler "x005" with entities [LocalPlayer, LocalPlayer], work=[207*, 0*]
 57: 0x0316 [0x4E] SET_ENTITY_HIDE_FLAG: Show Tebhi (ID: 17576361/0x010C31A9)
 58: 0x031C [0x4A] LocalPlayer looks at Tebhi (ID: 17576361/0x010C31A9)
 59: 0x0325 [0x27] REQ_SET(priority=0x03, entity_id=Tebhi (ID: 17576361/0x010C31A9), tag_num=0x03)
 60: 0x032C [0x27] REQ_SET(priority=0x03, entity_id=Brazier (ID: 17576345/0x010C3199), tag_num=0x04)
 61: 0x0333 [0x1C] WAIT(15* ticks)
 62: 0x0336 [0x62] LOAD_EVENT_SCHEDULER: Load scheduler "main" with entities [Tebhi (ID: 17576361/0x010C31A9), Tebhi (ID: 17576361/0x010C31A9)], work=[3*, 0*]
 63: 0x0347 [0x4A] LocalPlayer looks at Tebhi (ID: 17576361/0x010C31A9)
 64: 0x0350 [0x1C] WAIT(60* ticks)
 65: 0x0353 [0x4A] LocalPlayer looks at Tebhi (ID: 17576361/0x010C31A9)
 66: 0x035C [0x2A] GET_REQ_LEVEL(level=3, entity_id=Tebhi (ID: 17576361/0x010C31A9))
 67: 0x0362 [0x4A] LocalPlayer looks at Tebhi (ID: 17576361/0x010C31A9)
 68: 0x036B [0x55] WAIT_LOAD_SCHEDULER: Wait for scheduler "x005" with entities [LocalPlayer, LocalPlayer], work=207*
 69: 0x037A [0x2B] Balpah (ID: 17576360/0x010C31A8) [7438*]:
    → "Tebhi! Why are you here?"
 70: 0x0381 [0x23] WAIT_FOR_DIALOG_INTERACTION
 71: 0x0382 [0x4A] LocalPlayer looks at Balpah (ID: 17576360/0x010C31A8)
 72: 0x038B [0x27] REQ_SET(priority=0x03, entity_id=Tebhi (ID: 17576361/0x010C31A9), tag_num=0x04)
 73: 0x0392 [0x1C] WAIT(90* ticks)
 74: 0x0395 [0x27] REQ_SET(priority=0x03, entity_id=Balpah (ID: 17576360/0x010C31A8), tag_num=0x0E)
 75: 0x039C [0x1C] WAIT(30* ticks)
 76: 0x039F [0x45] LOAD_SCHEDULED_TASK: Load scheduler "x006" with entities [LocalPlayer, LocalPlayer], work=[207*, 0*]
 77: 0x03B0 [0x55] WAIT_LOAD_SCHEDULER: Wait for scheduler "x006" with entities [LocalPlayer, LocalPlayer], work=207*
 78: 0x03BF [0x2A] GET_REQ_LEVEL(level=3, entity_id=Tebhi (ID: 17576361/0x010C31A9))
 79: 0x03C5 [0x2B] Balpah (ID: 17576360/0x010C31A8) [7439*]:
    → "You...you searched for me all this time, while I did nothing to try and find you."
 80: 0x03CC [0x23] WAIT_FOR_DIALOG_INTERACTION
 81: 0x03CD [0x7B] Balpah (ID: 17576360/0x010C31A8) stops talking
 82: 0x03D2 [0x45] LOAD_SCHEDULED_TASK: Load scheduler "fdo1" with entities [LocalPlayer, LocalPlayer], work=[200*, 0*]
 83: 0x03E3 [0x55] WAIT_LOAD_SCHEDULER: Wait for scheduler "fdo1" with entities [LocalPlayer, LocalPlayer], work=200*
 84: 0x03F2 [0x34] LOAD_UNLOAD_ZONE(zone_id=244*)
 85: 0x03F5 [0x5C] MUSIC_CONTROL: Set Idle (Day) music to song 124*
 86: 0x03F9 [0x5C] MUSIC_CONTROL: Set Idle (Night) music to song 124*
 87: 0x03FD [0x29] REQ_SET_WAIT(priority=0x03, entity_id=Balpah (ID: 17576360/0x010C31A8), tag_num=0x0E)
 88: 0x0404 [0x4E] SET_ENTITY_HIDE_FLAG: Show 00 (ID: 17576362/0x010C31AA)
 89: 0x040A [0x4E] SET_ENTITY_HIDE_FLAG: Show 01 (ID: 17576363/0x010C31AB)
 90: 0x0410 [0x4E] SET_ENTITY_HIDE_FLAG: Show 02 (ID: 17576364/0x010C31AC)
 91: 0x0416 [0x4E] SET_ENTITY_HIDE_FLAG: Show 03 (ID: 17576365/0x010C31AD)
 92: 0x041C [0x4E] SET_ENTITY_HIDE_FLAG: Show 04 (ID: 17576366/0x010C31AE)
 93: 0x0422 [0x4E] SET_ENTITY_HIDE_FLAG: Show 05 (ID: 17576367/0x010C31AF)
 94: 0x0428 [0x4E] SET_ENTITY_HIDE_FLAG: Show 06 (ID: 17576368/0x010C31B0)
 95: 0x042E [0x4E] SET_ENTITY_HIDE_FLAG: Show 07 (ID: 17576369/0x010C31B1)
 96: 0x0434 [0x4E] SET_ENTITY_HIDE_FLAG: Show 08 (ID: 17576370/0x010C31B2)
 97: 0x043A [0x4E] SET_ENTITY_HIDE_FLAG: Show 09 (ID: 17576371/0x010C31B3)
 98: 0x0440 [0x4E] SET_ENTITY_HIDE_FLAG: Show 10 (ID: 17576372/0x010C31B4)
 99: 0x0446 [0x4E] SET_ENTITY_HIDE_FLAG: Show 11 (ID: 17576373/0x010C31B5)
100: 0x044C [0x4E] SET_ENTITY_HIDE_FLAG: Show 12 (ID: 17576374/0x010C31B6)
101: 0x0452 [0x4E] SET_ENTITY_HIDE_FLAG: Show 13 (ID: 17576375/0x010C31B7)
102: 0x0458 [0x4E] SET_ENTITY_HIDE_FLAG: Show 14 (ID: 17576376/0x010C31B8)
103: 0x045E [0x4E] SET_ENTITY_HIDE_FLAG: Show 15 (ID: 17576377/0x010C31B9)
104: 0x0464 [0x4E] SET_ENTITY_HIDE_FLAG: Show 16 (ID: 17576378/0x010C31BA)
105: 0x046A [0x4E] SET_ENTITY_HIDE_FLAG: Show 17 (ID: 17576379/0x010C31BB)
106: 0x0470 [0x4E] SET_ENTITY_HIDE_FLAG: Show 18 (ID: 17576380/0x010C31BC)
107: 0x0476 [0x4E] SET_ENTITY_HIDE_FLAG: Show 19 (ID: 17576381/0x010C31BD)
108: 0x047C [0x4E] SET_ENTITY_HIDE_FLAG: Show 20 (ID: 17576382/0x010C31BE)
109: 0x0482 [0x4E] SET_ENTITY_HIDE_FLAG: Show 21 (ID: 17576383/0x010C31BF)
110: 0x0488 [0x4E] SET_ENTITY_HIDE_FLAG: Show 22 (ID: 17576384/0x010C31C0)
111: 0x048E [0x4E] SET_ENTITY_HIDE_FLAG: Show 23 (ID: 17576385/0x010C31C1)
112: 0x0494 [0x4E] SET_ENTITY_HIDE_FLAG: Show 24 (ID: 17576386/0x010C31C2)
113: 0x049A [0x4E] SET_ENTITY_HIDE_FLAG: Show 25 (ID: 17576387/0x010C31C3)
114: 0x04A0 [0x4E] SET_ENTITY_HIDE_FLAG: Show 26 (ID: 17576388/0x010C31C4)
115: 0x04A6 [0x4E] SET_ENTITY_HIDE_FLAG: Show 27 (ID: 17576389/0x010C31C5)
116: 0x04AC [0x4E] SET_ENTITY_HIDE_FLAG: Show 28 (ID: 17576390/0x010C31C6)
117: 0x04B2 [0x4E] SET_ENTITY_HIDE_FLAG: Show 29 (ID: 17576391/0x010C31C7)
118: 0x04B8 [0x4E] SET_ENTITY_HIDE_FLAG: Show 30 (ID: 17576392/0x010C31C8)
119: 0x04BE [0x4E] SET_ENTITY_HIDE_FLAG: Show 31 (ID: 17576393/0x010C31C9)
120: 0x04C4 [0x4E] SET_ENTITY_HIDE_FLAG: Show 32 (ID: 17576394/0x010C31CA)
121: 0x04CA [0x2F] 00 (ID: 17576362/0x010C31AA)->Render.Flags0 &= ~0x80000 // Bit 19
122: 0x04D0 [0x2F] 01 (ID: 17576363/0x010C31AB)->Render.Flags0 &= ~0x80000 // Bit 19
123: 0x04D6 [0x2F] 02 (ID: 17576364/0x010C31AC)->Render.Flags0 &= ~0x80000 // Bit 19
124: 0x04DC [0x2F] 03 (ID: 17576365/0x010C31AD)->Render.Flags0 &= ~0x80000 // Bit 19
125: 0x04E2 [0x2F] 04 (ID: 17576366/0x010C31AE)->Render.Flags0 &= ~0x80000 // Bit 19
126: 0x04E8 [0x2F] 05 (ID: 17576367/0x010C31AF)->Render.Flags0 &= ~0x80000 // Bit 19
127: 0x04EE [0x2F] 06 (ID: 17576368/0x010C31B0)->Render.Flags0 &= ~0x80000 // Bit 19
128: 0x04F4 [0x2F] 07 (ID: 17576369/0x010C31B1)->Render.Flags0 &= ~0x80000 // Bit 19
129: 0x04FA [0x2F] 08 (ID: 17576370/0x010C31B2)->Render.Flags0 &= ~0x80000 // Bit 19
130: 0x0500 [0x2F] 09 (ID: 17576371/0x010C31B3)->Render.Flags0 &= ~0x80000 // Bit 19
131: 0x0506 [0x2F] 10 (ID: 17576372/0x010C31B4)->Render.Flags0 &= ~0x80000 // Bit 19
132: 0x050C [0x2F] 11 (ID: 17576373/0x010C31B5)->Render.Flags0 &= ~0x80000 // Bit 19
133: 0x0512 [0x2F] 12 (ID: 17576374/0x010C31B6)->Render.Flags0 &= ~0x80000 // Bit 19
134: 0x0518 [0x2F] 13 (ID: 17576375/0x010C31B7)->Render.Flags0 &= ~0x80000 // Bit 19
135: 0x051E [0x2F] 14 (ID: 17576376/0x010C31B8)->Render.Flags0 &= ~0x80000 // Bit 19
136: 0x0524 [0x2F] 15 (ID: 17576377/0x010C31B9)->Render.Flags0 &= ~0x80000 // Bit 19
137: 0x052A [0x2F] 16 (ID: 17576378/0x010C31BA)->Render.Flags0 &= ~0x80000 // Bit 19
138: 0x0530 [0x2F] 17 (ID: 17576379/0x010C31BB)->Render.Flags0 &= ~0x80000 // Bit 19
139: 0x0536 [0x2F] 18 (ID: 17576380/0x010C31BC)->Render.Flags0 &= ~0x80000 // Bit 19
140: 0x053C [0x2F] 19 (ID: 17576381/0x010C31BD)->Render.Flags0 &= ~0x80000 // Bit 19
141: 0x0542 [0x2F] 20 (ID: 17576382/0x010C31BE)->Render.Flags0 &= ~0x80000 // Bit 19
142: 0x0548 [0x2F] 21 (ID: 17576383/0x010C31BF)->Render.Flags0 &= ~0x80000 // Bit 19
143: 0x054E [0x2F] 22 (ID: 17576384/0x010C31C0)->Render.Flags0 &= ~0x80000 // Bit 19
144: 0x0554 [0x2F] 23 (ID: 17576385/0x010C31C1)->Render.Flags0 &= ~0x80000 // Bit 19
145: 0x055A [0x2F] 24 (ID: 17576386/0x010C31C2)->Render.Flags0 &= ~0x80000 // Bit 19
146: 0x0560 [0x2F] 25 (ID: 17576387/0x010C31C3)->Render.Flags0 &= ~0x80000 // Bit 19
147: 0x0566 [0x2F] 26 (ID: 17576388/0x010C31C4)->Render.Flags0 &= ~0x80000 // Bit 19
148: 0x056C [0x2F] 27 (ID: 17576389/0x010C31C5)->Render.Flags0 &= ~0x80000 // Bit 19
149: 0x0572 [0x2F] 28 (ID: 17576390/0x010C31C6)->Render.Flags0 &= ~0x80000 // Bit 19
150: 0x0578 [0x2F] 29 (ID: 17576391/0x010C31C7)->Render.Flags0 &= ~0x80000 // Bit 19
151: 0x057E [0x2F] 30 (ID: 17576392/0x010C31C8)->Render.Flags0 &= ~0x80000 // Bit 19
152: 0x0584 [0x2F] 31 (ID: 17576393/0x010C31C9)->Render.Flags0 &= ~0x80000 // Bit 19
153: 0x058A [0x2F] 32 (ID: 17576394/0x010C31CA)->Render.Flags0 &= ~0x80000 // Bit 19
154: 0x0590 [0x79] 00 (ID: 17576362/0x010C31AA) looks at Balpah (ID: 17576360/0x010C31A8) (Basic look)
155: 0x059A [0x79] 01 (ID: 17576363/0x010C31AB) looks at Balpah (ID: 17576360/0x010C31A8) (Basic look)
156: 0x05A4 [0x79] 02 (ID: 17576364/0x010C31AC) looks at Balpah (ID: 17576360/0x010C31A8) (Basic look)
157: 0x05AE [0x79] 03 (ID: 17576365/0x010C31AD) looks at Balpah (ID: 17576360/0x010C31A8) (Basic look)
158: 0x05B8 [0x79] 04 (ID: 17576366/0x010C31AE) looks at Balpah (ID: 17576360/0x010C31A8) (Basic look)
159: 0x05C2 [0x79] 05 (ID: 17576367/0x010C31AF) looks at Balpah (ID: 17576360/0x010C31A8) (Basic look)
160: 0x05CC [0x79] 06 (ID: 17576368/0x010C31B0) looks at Balpah (ID: 17576360/0x010C31A8) (Basic look)
161: 0x05D6 [0x79] 07 (ID: 17576369/0x010C31B1) looks at Balpah (ID: 17576360/0x010C31A8) (Basic look)
162: 0x05E0 [0x79] 08 (ID: 17576370/0x010C31B2) looks at Balpah (ID: 17576360/0x010C31A8) (Basic look)
163: 0x05EA [0x79] 09 (ID: 17576371/0x010C31B3) looks at Balpah (ID: 17576360/0x010C31A8) (Basic look)
164: 0x05F4 [0x79] 10 (ID: 17576372/0x010C31B4) looks at Balpah (ID: 17576360/0x010C31A8) (Basic look)
165: 0x05FE [0x79] 11 (ID: 17576373/0x010C31B5) looks at Balpah (ID: 17576360/0x010C31A8) (Basic look)
166: 0x0608 [0x79] 12 (ID: 17576374/0x010C31B6) looks at Balpah (ID: 17576360/0x010C31A8) (Basic look)
167: 0x0612 [0x79] 13 (ID: 17576375/0x010C31B7) looks at Balpah (ID: 17576360/0x010C31A8) (Basic look)
168: 0x061C [0x79] 14 (ID: 17576376/0x010C31B8) looks at Balpah (ID: 17576360/0x010C31A8) (Basic look)
169: 0x0626 [0x79] 15 (ID: 17576377/0x010C31B9) looks at Balpah (ID: 17576360/0x010C31A8) (Basic look)
170: 0x0630 [0x79] 16 (ID: 17576378/0x010C31BA) looks at Balpah (ID: 17576360/0x010C31A8) (Basic look)
171: 0x063A [0x79] 17 (ID: 17576379/0x010C31BB) looks at Balpah (ID: 17576360/0x010C31A8) (Basic look)
172: 0x0644 [0x79] 18 (ID: 17576380/0x010C31BC) looks at Balpah (ID: 17576360/0x010C31A8) (Basic look)
173: 0x064E [0x79] 19 (ID: 17576381/0x010C31BD) looks at Balpah (ID: 17576360/0x010C31A8) (Basic look)
174: 0x0658 [0x79] 20 (ID: 17576382/0x010C31BE) looks at Balpah (ID: 17576360/0x010C31A8) (Basic look)
175: 0x0662 [0x79] 21 (ID: 17576383/0x010C31BF) looks at Balpah (ID: 17576360/0x010C31A8) (Basic look)
176: 0x066C [0x79] 22 (ID: 17576384/0x010C31C0) looks at Balpah (ID: 17576360/0x010C31A8) (Basic look)
177: 0x0676 [0x79] 23 (ID: 17576385/0x010C31C1) looks at Balpah (ID: 17576360/0x010C31A8) (Basic look)
178: 0x0680 [0x79] 24 (ID: 17576386/0x010C31C2) looks at Balpah (ID: 17576360/0x010C31A8) (Basic look)
179: 0x068A [0x79] 25 (ID: 17576387/0x010C31C3) looks at Balpah (ID: 17576360/0x010C31A8) (Basic look)
180: 0x0694 [0x79] 26 (ID: 17576388/0x010C31C4) looks at Balpah (ID: 17576360/0x010C31A8) (Basic look)
181: 0x069E [0x79] 27 (ID: 17576389/0x010C31C5) looks at Balpah (ID: 17576360/0x010C31A8) (Basic look)
182: 0x06A8 [0x79] 28 (ID: 17576390/0x010C31C6) looks at Balpah (ID: 17576360/0x010C31A8) (Basic look)
183: 0x06B2 [0x79] 29 (ID: 17576391/0x010C31C7) looks at Balpah (ID: 17576360/0x010C31A8) (Basic look)
184: 0x06BC [0x79] 30 (ID: 17576392/0x010C31C8) looks at Balpah (ID: 17576360/0x010C31A8) (Basic look)
185: 0x06C6 [0x79] 31 (ID: 17576393/0x010C31C9) looks at Balpah (ID: 17576360/0x010C31A8) (Basic look)
186: 0x06D0 [0x79] 32 (ID: 17576394/0x010C31CA) looks at Balpah (ID: 17576360/0x010C31A8) (Basic look)
187: 0x06DA [0x80] LOAD_WAIT(entity=00 (ID: 17576362/0x010C31AA))
188: 0x06DF [0x80] LOAD_WAIT(entity=01 (ID: 17576363/0x010C31AB))
189: 0x06E4 [0x80] LOAD_WAIT(entity=02 (ID: 17576364/0x010C31AC))
190: 0x06E9 [0x80] LOAD_WAIT(entity=03 (ID: 17576365/0x010C31AD))
191: 0x06EE [0x80] LOAD_WAIT(entity=04 (ID: 17576366/0x010C31AE))
192: 0x06F3 [0x80] LOAD_WAIT(entity=05 (ID: 17576367/0x010C31AF))
193: 0x06F8 [0x80] LOAD_WAIT(entity=06 (ID: 17576368/0x010C31B0))
194: 0x06FD [0x80] LOAD_WAIT(entity=07 (ID: 17576369/0x010C31B1))
195: 0x0702 [0x80] LOAD_WAIT(entity=08 (ID: 17576370/0x010C31B2))
196: 0x0707 [0x80] LOAD_WAIT(entity=09 (ID: 17576371/0x010C31B3))
197: 0x070C [0x80] LOAD_WAIT(entity=10 (ID: 17576372/0x010C31B4))
198: 0x0711 [0x80] LOAD_WAIT(entity=11 (ID: 17576373/0x010C31B5))
199: 0x0716 [0x80] LOAD_WAIT(entity=12 (ID: 17576374/0x010C31B6))
200: 0x071B [0x80] LOAD_WAIT(entity=13 (ID: 17576375/0x010C31B7))
201: 0x0720 [0x80] LOAD_WAIT(entity=14 (ID: 17576376/0x010C31B8))
202: 0x0725 [0x80] LOAD_WAIT(entity=15 (ID: 17576377/0x010C31B9))
203: 0x072A [0x80] LOAD_WAIT(entity=16 (ID: 17576378/0x010C31BA))
204: 0x072F [0x80] LOAD_WAIT(entity=17 (ID: 17576379/0x010C31BB))
205: 0x0734 [0x80] LOAD_WAIT(entity=18 (ID: 17576380/0x010C31BC))
206: 0x0739 [0x80] LOAD_WAIT(entity=19 (ID: 17576381/0x010C31BD))
207: 0x073E [0x80] LOAD_WAIT(entity=20 (ID: 17576382/0x010C31BE))
208: 0x0743 [0x80] LOAD_WAIT(entity=21 (ID: 17576383/0x010C31BF))
209: 0x0748 [0x80] LOAD_WAIT(entity=22 (ID: 17576384/0x010C31C0))
210: 0x074D [0x80] LOAD_WAIT(entity=23 (ID: 17576385/0x010C31C1))
211: 0x0752 [0x80] LOAD_WAIT(entity=24 (ID: 17576386/0x010C31C2))
212: 0x0757 [0x80] LOAD_WAIT(entity=25 (ID: 17576387/0x010C31C3))
213: 0x075C [0x80] LOAD_WAIT(entity=26 (ID: 17576388/0x010C31C4))
214: 0x0761 [0x80] LOAD_WAIT(entity=27 (ID: 17576389/0x010C31C5))
215: 0x0766 [0x80] LOAD_WAIT(entity=28 (ID: 17576390/0x010C31C6))
216: 0x076B [0x80] LOAD_WAIT(entity=29 (ID: 17576391/0x010C31C7))
217: 0x0770 [0x80] LOAD_WAIT(entity=30 (ID: 17576392/0x010C31C8))
218: 0x0775 [0x80] LOAD_WAIT(entity=31 (ID: 17576393/0x010C31C9))
219: 0x077A [0x80] LOAD_WAIT(entity=32 (ID: 17576394/0x010C31CA))
220: 0x077F [0x80] LOAD_WAIT(entity=Balpah (ID: 17576360/0x010C31A8))
221: 0x0784 [0x7C] Balpah (ID: 17576360/0x010C31A8)->Render.Flags2 |= 0x00
222: 0x078A [0x29] REQ_SET_WAIT(priority=0x03, entity_id=Balpah (ID: 17576360/0x010C31A8), tag_num=0x03)
223: 0x0791 [0x29] REQ_SET_WAIT(priority=0x03, entity_id=Tebhi (ID: 17576361/0x010C31A9), tag_num=0x09)
224: 0x0798 [0x4A] Tebhi (ID: 17576361/0x010C31A9) looks at Balpah (ID: 17576360/0x010C31A8)
225: 0x07A1 [0x6F] WAIT_FRAME_DELAY: Yield until WaitTime reaches zero
226: 0x07A2 [0x76] CHECK_ENTITY_RENDER_FLAGS: Wait until Tebhi (ID: 17576361/0x010C31A9) Render.Flags0 and Render.Flags3 conditions are met
227: 0x07A7 [0x27] REQ_SET(priority=0x04, entity_id=Tebhi (ID: 17576361/0x010C31A9), tag_num=0x0C)
228: 0x07AE [0x45] LOAD_SCHEDULED_TASK: Load scheduler "w003" with entities [LocalPlayer, LocalPlayer], work=[207*, 0*]
229: 0x07BF [0x55] WAIT_LOAD_SCHEDULER: Wait for scheduler "w003" with entities [LocalPlayer, LocalPlayer], work=207*
230: 0x07CE [0x77] SET_EVENT_TIME_WEATHER(hour=12*, weather=0*)
231: 0x07D3 [0x1C] WAIT(60* ticks)
232: 0x07D6 [0x29] REQ_SET_WAIT(priority=0x04, entity_id=Balpah (ID: 17576360/0x010C31A8), tag_num=0x0E)
233: 0x07DD [0x45] LOAD_SCHEDULED_TASK: Load scheduler "fdi1" with entities [LocalPlayer, LocalPlayer], work=[200*, 0*]
234: 0x07EE [0x55] WAIT_LOAD_SCHEDULER: Wait for scheduler "fdi1" with entities [LocalPlayer, LocalPlayer], work=200*
235: 0x07FD [0x45] LOAD_SCHEDULED_TASK: Load scheduler "w000" with entities [LocalPlayer, LocalPlayer], work=[207*, 0*]
236: 0x080E [0x2B] Balpah (ID: 17576360/0x010C31A8) [7440*]:
    → "We traveled the world together, people welcoming us warmly wherever we went. They would laugh and cheer at our show..."
237: 0x0815 [0x23] WAIT_FOR_DIALOG_INTERACTION
238: 0x0816 [0x55] WAIT_LOAD_SCHEDULER: Wait for scheduler "w000" with entities [LocalPlayer, LocalPlayer], work=207*
239: 0x0825 [0x1C] WAIT(90* ticks)
240: 0x0828 [0x45] LOAD_SCHEDULED_TASK: Load scheduler "fdo1" with entities [LocalPlayer, LocalPlayer], work=[200*, 0*]
241: 0x0839 [0x55] WAIT_LOAD_SCHEDULER: Wait for scheduler "fdo1" with entities [LocalPlayer, LocalPlayer], work=200*
242: 0x0848 [0x6B] STOP_AND_IDLE: Tebhi (ID: 17576361/0x010C31A9) stops current action and resets to idle (animation="idl0")
243: 0x0851 [0x29] REQ_SET_WAIT(priority=0x03, entity_id=Tebhi (ID: 17576361/0x010C31A9), tag_num=0x0A)
244: 0x0858 [0x29] REQ_SET_WAIT(priority=0x03, entity_id=Balpah (ID: 17576360/0x010C31A8), tag_num=0x0F)
245: 0x085F [0x1C] WAIT(5* ticks)
246: 0x0862 [0x45] LOAD_SCHEDULED_TASK: Load scheduler "w001" with entities [LocalPlayer, LocalPlayer], work=[207*, 0*]
247: 0x0873 [0x1C] WAIT(5* ticks)
248: 0x0876 [0x45] LOAD_SCHEDULED_TASK: Load scheduler "fdi1" with entities [LocalPlayer, LocalPlayer], work=[200*, 0*]
249: 0x0887 [0x55] WAIT_LOAD_SCHEDULER: Wait for scheduler "fdi1" with entities [LocalPlayer, LocalPlayer], work=200*
250: 0x0896 [0x2B] Balpah (ID: 17576360/0x010C31A8) [7441*]:
    → "Their smiling faces did not lie. They truly liked us, and it was only at those times that I felt joy. I had forgotten that laughter, and was controlled by my rage."
251: 0x089D [0x23] WAIT_FOR_DIALOG_INTERACTION
252: 0x089E [0x55] WAIT_LOAD_SCHEDULER: Wait for scheduler "w001" with entities [LocalPlayer, LocalPlayer], work=207*
253: 0x08AD [0x45] LOAD_SCHEDULED_TASK: Load scheduler "w004" with entities [LocalPlayer, LocalPlayer], work=[207*, 0*]
254: 0x08BE [0x55] WAIT_LOAD_SCHEDULER: Wait for scheduler "w004" with entities [LocalPlayer, LocalPlayer], work=207*
255: 0x08CD [0x27] REQ_SET(priority=0x03, entity_id=Balpah (ID: 17576360/0x010C31A8), tag_num=0x06)
256: 0x08D4 [0x1C] WAIT(90* ticks)
257: 0x08D7 [0x45] LOAD_SCHEDULED_TASK: Load scheduler "w005" with entities [LocalPlayer, LocalPlayer], work=[207*, 0*]
258: 0x08E8 [0x55] WAIT_LOAD_SCHEDULER: Wait for scheduler "w005" with entities [LocalPlayer, LocalPlayer], work=207*
259: 0x08F7 [0x4A] 00 (ID: 17576362/0x010C31AA) looks at Tebhi (ID: 17576361/0x010C31A9)
260: 0x0900 [0x4A] 01 (ID: 17576363/0x010C31AB) looks at Tebhi (ID: 17576361/0x010C31A9)
261: 0x0909 [0x4A] 02 (ID: 17576364/0x010C31AC) looks at Tebhi (ID: 17576361/0x010C31A9)
262: 0x0912 [0x4A] 03 (ID: 17576365/0x010C31AD) looks at Tebhi (ID: 17576361/0x010C31A9)
263: 0x091B [0x4A] 04 (ID: 17576366/0x010C31AE) looks at Tebhi (ID: 17576361/0x010C31A9)
264: 0x0924 [0x4A] 05 (ID: 17576367/0x010C31AF) looks at Tebhi (ID: 17576361/0x010C31A9)
265: 0x092D [0x4A] 06 (ID: 17576368/0x010C31B0) looks at Tebhi (ID: 17576361/0x010C31A9)
266: 0x0936 [0x4A] 07 (ID: 17576369/0x010C31B1) looks at Tebhi (ID: 17576361/0x010C31A9)
267: 0x093F [0x4A] 08 (ID: 17576370/0x010C31B2) looks at Tebhi (ID: 17576361/0x010C31A9)
268: 0x0948 [0x4A] 09 (ID: 17576371/0x010C31B3) looks at Tebhi (ID: 17576361/0x010C31A9)
269: 0x0951 [0x4A] 10 (ID: 17576372/0x010C31B4) looks at Tebhi (ID: 17576361/0x010C31A9)
270: 0x095A [0x4A] 11 (ID: 17576373/0x010C31B5) looks at Tebhi (ID: 17576361/0x010C31A9)
271: 0x0963 [0x4A] 12 (ID: 17576374/0x010C31B6) looks at Tebhi (ID: 17576361/0x010C31A9)
272: 0x096C [0x4A] 13 (ID: 17576375/0x010C31B7) looks at Tebhi (ID: 17576361/0x010C31A9)
273: 0x0975 [0x4A] 14 (ID: 17576376/0x010C31B8) looks at Tebhi (ID: 17576361/0x010C31A9)
274: 0x097E [0x4A] 15 (ID: 17576377/0x010C31B9) looks at Tebhi (ID: 17576361/0x010C31A9)
275: 0x0987 [0x4A] 16 (ID: 17576378/0x010C31BA) looks at Tebhi (ID: 17576361/0x010C31A9)
276: 0x0990 [0x4A] 17 (ID: 17576379/0x010C31BB) looks at Tebhi (ID: 17576361/0x010C31A9)
277: 0x0999 [0x4A] 18 (ID: 17576380/0x010C31BC) looks at Tebhi (ID: 17576361/0x010C31A9)
278: 0x09A2 [0x4A] 19 (ID: 17576381/0x010C31BD) looks at Tebhi (ID: 17576361/0x010C31A9)
279: 0x09AB [0x4A] 20 (ID: 17576382/0x010C31BE) looks at Tebhi (ID: 17576361/0x010C31A9)
280: 0x09B4 [0x4A] 21 (ID: 17576383/0x010C31BF) looks at Tebhi (ID: 17576361/0x010C31A9)
281: 0x09BD [0x4A] 22 (ID: 17576384/0x010C31C0) looks at Tebhi (ID: 17576361/0x010C31A9)
282: 0x09C6 [0x4A] 23 (ID: 17576385/0x010C31C1) looks at Tebhi (ID: 17576361/0x010C31A9)
283: 0x09CF [0x4A] 24 (ID: 17576386/0x010C31C2) looks at Tebhi (ID: 17576361/0x010C31A9)
284: 0x09D8 [0x4A] 25 (ID: 17576387/0x010C31C3) looks at Tebhi (ID: 17576361/0x010C31A9)
285: 0x09E1 [0x4A] 26 (ID: 17576388/0x010C31C4) looks at Tebhi (ID: 17576361/0x010C31A9)
286: 0x09EA [0x4A] 27 (ID: 17576389/0x010C31C5) looks at Tebhi (ID: 17576361/0x010C31A9)
287: 0x09F3 [0x4A] 28 (ID: 17576390/0x010C31C6) looks at Tebhi (ID: 17576361/0x010C31A9)
288: 0x09FC [0x4A] 29 (ID: 17576391/0x010C31C7) looks at Tebhi (ID: 17576361/0x010C31A9)
289: 0x0A05 [0x4A] 30 (ID: 17576392/0x010C31C8) looks at Tebhi (ID: 17576361/0x010C31A9)
290: 0x0A0E [0x4A] 31 (ID: 17576393/0x010C31C9) looks at Tebhi (ID: 17576361/0x010C31A9)
291: 0x0A17 [0x4A] 32 (ID: 17576394/0x010C31CA) looks at Tebhi (ID: 17576361/0x010C31A9)
292: 0x0A20 [0x29] REQ_SET_WAIT(priority=0x03, entity_id=Tebhi (ID: 17576361/0x010C31A9), tag_num=0x0B)
293: 0x0A27 [0x1C] WAIT(60* ticks)
294: 0x0A2A [0x2A] GET_REQ_LEVEL(level=3, entity_id=Balpah (ID: 17576360/0x010C31A8))
295: 0x0A30 [0x7C] Balpah (ID: 17576360/0x010C31A8)->Render.Flags2 |= 0x01
296: 0x0A36 [0x55] WAIT_LOAD_SCHEDULER: Wait for scheduler "w001" with entities [LocalPlayer, LocalPlayer], work=207*
297: 0x0A45 [0x45] LOAD_SCHEDULED_TASK: Load scheduler "fdo1" with entities [LocalPlayer, LocalPlayer], work=[200*, 0*]
298: 0x0A56 [0x55] WAIT_LOAD_SCHEDULER: Wait for scheduler "fdo1" with entities [LocalPlayer, LocalPlayer], work=200*
299: 0x0A65 [0x2F] 00 (ID: 17576362/0x010C31AA)->Render.Flags0 |= 0x80000 // Bit 19
300: 0x0A6B [0x2F] 01 (ID: 17576363/0x010C31AB)->Render.Flags0 |= 0x80000 // Bit 19
301: 0x0A71 [0x2F] 02 (ID: 17576364/0x010C31AC)->Render.Flags0 |= 0x80000 // Bit 19
302: 0x0A77 [0x2F] 03 (ID: 17576365/0x010C31AD)->Render.Flags0 |= 0x80000 // Bit 19
303: 0x0A7D [0x2F] 04 (ID: 17576366/0x010C31AE)->Render.Flags0 |= 0x80000 // Bit 19
304: 0x0A83 [0x2F] 05 (ID: 17576367/0x010C31AF)->Render.Flags0 |= 0x80000 // Bit 19
305: 0x0A89 [0x2F] 06 (ID: 17576368/0x010C31B0)->Render.Flags0 |= 0x80000 // Bit 19
306: 0x0A8F [0x2F] 07 (ID: 17576369/0x010C31B1)->Render.Flags0 |= 0x80000 // Bit 19
307: 0x0A95 [0x2F] 08 (ID: 17576370/0x010C31B2)->Render.Flags0 |= 0x80000 // Bit 19
308: 0x0A9B [0x2F] 09 (ID: 17576371/0x010C31B3)->Render.Flags0 |= 0x80000 // Bit 19
309: 0x0AA1 [0x2F] 10 (ID: 17576372/0x010C31B4)->Render.Flags0 |= 0x80000 // Bit 19
310: 0x0AA7 [0x2F] 11 (ID: 17576373/0x010C31B5)->Render.Flags0 |= 0x80000 // Bit 19
311: 0x0AAD [0x2F] 12 (ID: 17576374/0x010C31B6)->Render.Flags0 |= 0x80000 // Bit 19
312: 0x0AB3 [0x2F] 13 (ID: 17576375/0x010C31B7)->Render.Flags0 |= 0x80000 // Bit 19
313: 0x0AB9 [0x2F] 14 (ID: 17576376/0x010C31B8)->Render.Flags0 |= 0x80000 // Bit 19
314: 0x0ABF [0x2F] 15 (ID: 17576377/0x010C31B9)->Render.Flags0 |= 0x80000 // Bit 19
315: 0x0AC5 [0x2F] 16 (ID: 17576378/0x010C31BA)->Render.Flags0 |= 0x80000 // Bit 19
316: 0x0ACB [0x2F] 17 (ID: 17576379/0x010C31BB)->Render.Flags0 |= 0x80000 // Bit 19
317: 0x0AD1 [0x2F] 18 (ID: 17576380/0x010C31BC)->Render.Flags0 |= 0x80000 // Bit 19
318: 0x0AD7 [0x2F] 19 (ID: 17576381/0x010C31BD)->Render.Flags0 |= 0x80000 // Bit 19
319: 0x0ADD [0x2F] 20 (ID: 17576382/0x010C31BE)->Render.Flags0 |= 0x80000 // Bit 19
320: 0x0AE3 [0x2F] 21 (ID: 17576383/0x010C31BF)->Render.Flags0 |= 0x80000 // Bit 19
321: 0x0AE9 [0x2F] 22 (ID: 17576384/0x010C31C0)->Render.Flags0 |= 0x80000 // Bit 19
322: 0x0AEF [0x2F] 23 (ID: 17576385/0x010C31C1)->Render.Flags0 |= 0x80000 // Bit 19
323: 0x0AF5 [0x2F] 24 (ID: 17576386/0x010C31C2)->Render.Flags0 |= 0x80000 // Bit 19
324: 0x0AFB [0x2F] 25 (ID: 17576387/0x010C31C3)->Render.Flags0 |= 0x80000 // Bit 19
325: 0x0B01 [0x2F] 26 (ID: 17576388/0x010C31C4)->Render.Flags0 |= 0x80000 // Bit 19
326: 0x0B07 [0x2F] 27 (ID: 17576389/0x010C31C5)->Render.Flags0 |= 0x80000 // Bit 19
327: 0x0B0D [0x2F] 28 (ID: 17576390/0x010C31C6)->Render.Flags0 |= 0x80000 // Bit 19
328: 0x0B13 [0x2F] 29 (ID: 17576391/0x010C31C7)->Render.Flags0 |= 0x80000 // Bit 19
329: 0x0B19 [0x2F] 30 (ID: 17576392/0x010C31C8)->Render.Flags0 |= 0x80000 // Bit 19
330: 0x0B1F [0x2F] 31 (ID: 17576393/0x010C31C9)->Render.Flags0 |= 0x80000 // Bit 19
331: 0x0B25 [0x2F] 32 (ID: 17576394/0x010C31CA)->Render.Flags0 |= 0x80000 // Bit 19
332: 0x0B2B [0x45] LOAD_SCHEDULED_TASK: Load scheduler "w002" with entities [LocalPlayer, LocalPlayer], work=[207*, 0*]
333: 0x0B3C [0x77] SET_EVENT_TIME_WEATHER(hour=18*, weather=0*)
334: 0x0B41 [0x79] Balpah (ID: 17576360/0x010C31A8) looks at Tebhi (ID: 17576361/0x010C31A9) (Basic look)
335: 0x0B4B [0x29] REQ_SET_WAIT(priority=0x03, entity_id=Balpah (ID: 17576360/0x010C31A8), tag_num=0x04)
336: 0x0B52 [0x29] REQ_SET_WAIT(priority=0x03, entity_id=Tebhi (ID: 17576361/0x010C31A9), tag_num=0x0D)
337: 0x0B59 [0x27] REQ_SET(priority=0x04, entity_id=Balpah (ID: 17576360/0x010C31A8), tag_num=0x05)
338: 0x0B60 [0x27] REQ_SET(priority=0x04, entity_id=Tebhi (ID: 17576361/0x010C31A9), tag_num=0x0E)
339: 0x0B67 [0x1C] WAIT(10* ticks)
340: 0x0B6A [0x45] LOAD_SCHEDULED_TASK: Load scheduler "fdi1" with entities [LocalPlayer, LocalPlayer], work=[200*, 0*]
341: 0x0B7B [0x55] WAIT_LOAD_SCHEDULER: Wait for scheduler "fdi1" with entities [LocalPlayer, LocalPlayer], work=200*
342: 0x0B8A [0x2B] Balpah (ID: 17576360/0x010C31A8) [7442*]:
    → "As long as you are by my side, I need nothing else... I can feel the warmth of those days past return to my bosom."
343: 0x0B91 [0x23] WAIT_FOR_DIALOG_INTERACTION
344: 0x0B92 [0x2A] GET_REQ_LEVEL(level=4, entity_id=Tebhi (ID: 17576361/0x010C31A9))
345: 0x0B98 [0x1C] WAIT(60* ticks)
346: 0x0B9B [0x45] LOAD_SCHEDULED_TASK: Load scheduler "fdo2" with entities [LocalPlayer, LocalPlayer], work=[200*, 0*]
347: 0x0BAC [0x55] WAIT_LOAD_SCHEDULER: Wait for scheduler "fdo2" with entities [LocalPlayer, LocalPlayer], work=200*
348: 0x0BBB [0x78] ENABLE_GAME_TIMER_RESET_WEATHER()
349: 0x0BBC [0x35] LOAD_ZONE_NO_CLOSE(zone_id=195*)
350: 0x0BBF [0x78] ENABLE_GAME_TIMER_RESET_WEATHER()
351: 0x0BC0 [0x29] REQ_SET_WAIT(priority=0x03, entity_id=Balpah (ID: 17576360/0x010C31A8), tag_num=0x02)
352: 0x0BC7 [0x29] REQ_SET_WAIT(priority=0x03, entity_id=Tebhi (ID: 17576361/0x010C31A9), tag_num=0x02)
353: 0x0BCE [0x37] UPDATE_EVENT_POSITION_AND_DIR: x=-423.473*, z=498.933*, y=7.999*, direction=353.9°*
354: 0x0BD7 [0x80] LOAD_WAIT(entity=Balpah (ID: 17576360/0x010C31A8))
355: 0x0BDC [0x80] LOAD_WAIT(entity=Tebhi (ID: 17576361/0x010C31A9))
356: 0x0BE1 [0x79] Balpah (ID: 17576360/0x010C31A8) looks at Tebhi (ID: 17576361/0x010C31A9) (Basic look)
357: 0x0BEB [0x45] LOAD_SCHEDULED_TASK: Load scheduler "x007" with entities [LocalPlayer, LocalPlayer], work=[207*, 0*]
358: 0x0BFC [0x55] WAIT_LOAD_SCHEDULER: Wait for scheduler "x007" with entities [LocalPlayer, LocalPlayer], work=207*
359: 0x0C0B [0x80] LOAD_WAIT(entity=Balpah (ID: 17576360/0x010C31A8))
360: 0x0C10 [0x29] REQ_SET_WAIT(priority=0x04, entity_id=Balpah (ID: 17576360/0x010C31A8), tag_num=0x0E)
361: 0x0C17 [0x45] LOAD_SCHEDULED_TASK: Load scheduler "fdi1" with entities [LocalPlayer, LocalPlayer], work=[200*, 0*]
362: 0x0C28 [0x55] WAIT_LOAD_SCHEDULER: Wait for scheduler "fdi1" with entities [LocalPlayer, LocalPlayer], work=200*
363: 0x0C37 [0x2B] Balpah (ID: 17576360/0x010C31A8) [7443*]:
    → "I was a fool. I forgot what was truly important to me--what I truly needed."
364: 0x0C3E [0x23] WAIT_FOR_DIALOG_INTERACTION
365: 0x0C3F [0x29] REQ_SET_WAIT(priority=0x03, entity_id=Tebhi (ID: 17576361/0x010C31A9), tag_num=0x05)
366: 0x0C46 [0x27] REQ_SET(priority=0x04, entity_id=Tebhi (ID: 17576361/0x010C31A9), tag_num=0x06)
367: 0x0C4D [0x1C] WAIT(60* ticks)
368: 0x0C50 [0x29] REQ_SET_WAIT(priority=0x03, entity_id=Balpah (ID: 17576360/0x010C31A8), tag_num=0x0F)
369: 0x0C57 [0x1C] WAIT(10* ticks)
370: 0x0C5A [0x27] REQ_SET(priority=0x04, entity_id=Balpah (ID: 17576360/0x010C31A8), tag_num=0x10)
371: 0x0C61 [0x1C] WAIT(120* ticks)
372: 0x0C64 [0x45] LOAD_SCHEDULED_TASK: Load scheduler "x008" with entities [LocalPlayer, LocalPlayer], work=[207*, 0*]
373: 0x0C75 [0x55] WAIT_LOAD_SCHEDULER: Wait for scheduler "x008" with entities [LocalPlayer, LocalPlayer], work=207*
374: 0x0C84 [0x2A] GET_REQ_LEVEL(level=4, entity_id=Balpah (ID: 17576360/0x010C31A8))
375: 0x0C8A [0x4A] LocalPlayer looks at Balpah (ID: 17576360/0x010C31A8)
376: 0x0C93 [0x1C] WAIT(30* ticks)
377: 0x0C96 [0x4A] Balpah (ID: 17576360/0x010C31A8) looks at LocalPlayer
378: 0x0C9F [0x6F] WAIT_FRAME_DELAY: Yield until WaitTime reaches zero
379: 0x0CA0 [0x76] CHECK_ENTITY_RENDER_FLAGS: Wait until Balpah (ID: 17576360/0x010C31A8) Render.Flags0 and Render.Flags3 conditions are met
380: 0x0CA5 [0x45] LOAD_SCHEDULED_TASK: Load scheduler "x00b" with entities [LocalPlayer, LocalPlayer], work=[207*, 0*]
381: 0x0CB6 [0x27] REQ_SET(priority=0x04, entity_id=Balpah (ID: 17576360/0x010C31A8), tag_num=0x0D)
382: 0x0CBD [0x2B] Balpah (ID: 17576360/0x010C31A8) [7444*]:
    → "I no longer have any use for this. I give it to you."
383: 0x0CC4 [0x23] WAIT_FOR_DIALOG_INTERACTION
384: 0x0CC5 [0x2A] GET_REQ_LEVEL(level=4, entity_id=Balpah (ID: 17576360/0x010C31A8))
385: 0x0CCB [0x2B] Balpah (ID: 17576360/0x010C31A8) [7445*]:
    → "Me? I think it is time I set off on a long, long journey."
386: 0x0CD2 [0x23] WAIT_FOR_DIALOG_INTERACTION
387: 0x0CD3 [0x55] WAIT_LOAD_SCHEDULER: Wait for scheduler "x00b" with entities [LocalPlayer, LocalPlayer], work=207*
388: 0x0CE2 [0x27] REQ_SET(priority=0x04, entity_id=Balpah (ID: 17576360/0x010C31A8), tag_num=0x11)
389: 0x0CE9 [0x1C] WAIT(30* ticks)
390: 0x0CEC [0x27] REQ_SET(priority=0x04, entity_id=Tebhi (ID: 17576361/0x010C31A9), tag_num=0x07)
391: 0x0CF3 [0x1C] WAIT(120* ticks)
392: 0x0CF6 [0x45] LOAD_SCHEDULED_TASK: Load scheduler "x009" with entities [LocalPlayer, LocalPlayer], work=[207*, 0*]
393: 0x0D07 [0x55] WAIT_LOAD_SCHEDULER: Wait for scheduler "x009" with entities [LocalPlayer, LocalPlayer], work=207*
394: 0x0D16 [0x2A] GET_REQ_LEVEL(level=4, entity_id=Balpah (ID: 17576360/0x010C31A8))
395: 0x0D1C [0x2B] Balpah (ID: 17576360/0x010C31A8) [7446*]:
    → "I thank you again for reuniting me with Tebhi. I will never forget your kindness."
396: 0x0D23 [0x23] WAIT_FOR_DIALOG_INTERACTION
397: 0x0D24 [0x45] LOAD_SCHEDULED_TASK: Load scheduler "x00c" with entities [LocalPlayer, LocalPlayer], work=[207*, 0*]
398: 0x0D35 [0x79] Balpah (ID: 17576360/0x010C31A8) looks at Tebhi (ID: 17576361/0x010C31A9) (Basic look)
399: 0x0D3F [0x1C] WAIT(60* ticks)
400: 0x0D42 [0x4A] Tebhi (ID: 17576361/0x010C31A9) looks at Balpah (ID: 17576360/0x010C31A8)
401: 0x0D4B [0x2B] Balpah (ID: 17576360/0x010C31A8) [7447*]:
    → "Let us go. The world awaits..."
402: 0x0D52 [0x23] WAIT_FOR_DIALOG_INTERACTION
403: 0x0D53 [0x55] WAIT_LOAD_SCHEDULER: Wait for scheduler "x00c" with entities [LocalPlayer, LocalPlayer], work=207*
404: 0x0D62 [0x1C] WAIT(60* ticks)
405: 0x0D65 [0x27] REQ_SET(priority=0x04, entity_id=Balpah (ID: 17576360/0x010C31A8), tag_num=0x12)
406: 0x0D6C [0x1C] WAIT(60* ticks)
407: 0x0D6F [0x27] REQ_SET(priority=0x04, entity_id=Tebhi (ID: 17576361/0x010C31A9), tag_num=0x08)
408: 0x0D76 [0x1C] WAIT(30* ticks)
409: 0x0D79 [0x27] REQ_SET(priority=0x03, entity_id=Brazier (ID: 17576344/0x010C3198), tag_num=0x03)
410: 0x0D80 [0x29] REQ_SET_WAIT(priority=0x03, entity_id=Brazier (ID: 17576345/0x010C3199), tag_num=0x03)
411: 0x0D87 [0x1C] WAIT(120* ticks)
412: 0x0D8A [0x62] LOAD_EVENT_SCHEDULER: Load scheduler "main" with entities [Balpah (ID: 17576360/0x010C31A8), Balpah (ID: 17576360/0x010C31A8)], work=[3*, 0*]
413: 0x0D9B [0x62] LOAD_EVENT_SCHEDULER: Load scheduler "main" with entities [Tebhi (ID: 17576361/0x010C31A9), Tebhi (ID: 17576361/0x010C31A9)], work=[3*, 0*]
414: 0x0DAC [0x45] LOAD_SCHEDULED_TASK: Load scheduler "fdo2" with entities [LocalPlayer, LocalPlayer], work=[200*, 0*]
415: 0x0DBD [0x55] WAIT_LOAD_SCHEDULER: Wait for scheduler "fdo2" with entities [LocalPlayer, LocalPlayer], work=200*
416: 0x0DCC [0x4E] SET_ENTITY_HIDE_FLAG: Hide Balpah (ID: 17576360/0x010C31A8)
417: 0x0DD2 [0x4E] SET_ENTITY_HIDE_FLAG: Hide Tebhi (ID: 17576361/0x010C31A9)
418: 0x0DD8 [0x5C] MUSIC_CONTROL: Set Idle (Day) music to song 0*
419: 0x0DDC [0x5C] MUSIC_CONTROL: Set Idle (Night) music to song 0*
420: 0x0DE0 [0x46] CAMERA_CONTROL: Restore default settings
421: 0x0DE2 [0x45] LOAD_SCHEDULED_TASK: Load scheduler "fdi2" with entities [LocalPlayer, LocalPlayer], work=[200*, 0*]
422: 0x0DF3 [0x45] LOAD_SCHEDULED_TASK: Load scheduler "qstc" with entities [LocalPlayer, LocalPlayer], work=[201*, 0*]
423: 0x0E04 [0x21] END_EVENT
424: 0x0E05 [0x00] END_REQSTACK()
```

### Event 65535.3

#### Metadata

| Field        | Value    |
|--------------|----------|
| Entrypoint   | 0x0E06   |
| Data Size    | 10 bytes |
| Instructions | 2        |

```
      00 01 02 03 04 05 06 07  08 09 0A 0B 0C 0D 0E 0F
      -- -- -- -- -- -- -- --  -- -- -- -- -- -- -- --
0E00:                   37 36  80 37 80 12 80 38 80 00        76.7...8..
```

#### Opcodes

```
  0: 0x0E06 [0x37] UPDATE_EVENT_POSITION_AND_DIR: x=-419.040*, z=502.887*, y=8.000*, direction=180.0°*
  1: 0x0E0F [0x00] END_REQSTACK()
```

### Event 65535.4

#### Metadata

| Field        | Value    |
|--------------|----------|
| Entrypoint   | 0x0E10   |
| Data Size    | 10 bytes |
| Instructions | 2        |

```
      00 01 02 03 04 05 06 07  08 09 0A 0B 0C 0D 0E 0F
      -- -- -- -- -- -- -- --  -- -- -- -- -- -- -- --
0E10: 37 39 80 3A 80 3B 80 3C  80 00                    79.:.;.<..      
```

#### Opcodes

```
  0: 0x0E10 [0x37] UPDATE_EVENT_POSITION_AND_DIR: x=420.022*, z=-120.155*, y=-55.999*, direction=269.6°*
  1: 0x0E19 [0x00] END_REQSTACK()
```

### Event 65535.5

#### Metadata

| Field        | Value    |
|--------------|----------|
| Entrypoint   | 0x0E1A   |
| Data Size    | 10 bytes |
| Instructions | 2        |

```
      00 01 02 03 04 05 06 07  08 09 0A 0B 0C 0D 0E 0F
      -- -- -- -- -- -- -- --  -- -- -- -- -- -- -- --
0E10:                                37 3D 80 3E 80 3F            7=.>.?
0E20: 80 40 80 00                                       .@..            
```

#### Opcodes

```
  0: 0x0E1A [0x37] UPDATE_EVENT_POSITION_AND_DIR: x=180.639*, z=-55.769*, y=-31.999*, direction=221.8°*
  1: 0x0E23 [0x00] END_REQSTACK()
```

### Event 65535.6

#### Metadata

| Field        | Value    |
|--------------|----------|
| Entrypoint   | 0x0E24   |
| Data Size    | 10 bytes |
| Instructions | 2        |

```
      00 01 02 03 04 05 06 07  08 09 0A 0B 0C 0D 0E 0F
      -- -- -- -- -- -- -- --  -- -- -- -- -- -- -- --
0E20:             37 41 80 42  80 43 80 44 80 00            7A.B.C.D..  
```

#### Opcodes

```
  0: 0x0E24 [0x37] UPDATE_EVENT_POSITION_AND_DIR: x=163.871*, z=-88.247*, y=-27.749*, direction=20.5°*
  1: 0x0E2D [0x00] END_REQSTACK()
```

### Event 65535.7

#### Metadata

| Field        | Value    |
|--------------|----------|
| Entrypoint   | 0x0E2E   |
| Data Size    | 14 bytes |
| Instructions | 4        |

```
      00 01 02 03 04 05 06 07  08 09 0A 0B 0C 0D 0E 0F
      -- -- -- -- -- -- -- --  -- -- -- -- -- -- -- --
0E20:                                            32 45                2E
0E30: 80 1F 00 39 80 46 80 3B  80 1F 01 00              ...9.F.;....    
```

#### Opcodes

```
  0: 0x0E2E [0x32] ExtData[1]->MainSpeed = 13* * 0.1
  1: 0x0E31 [0x1F] MOVE_ENTITY: EventEntity moves to X=420.022*, Z=-117.000*, Y=-55.999*
  2: 0x0E39 [0x1F] MOVE_ENTITY: Update entity position (mode=1)
  3: 0x0E3B [0x00] END_REQSTACK()
```

### Event 65535.8

#### Metadata

| Field        | Value   |
|--------------|---------|
| Entrypoint   | 0x0E3C  |
| Data Size    | 6 bytes |
| Instructions | 2       |

```
      00 01 02 03 04 05 06 07  08 09 0A 0B 0C 0D 0E 0F
      -- -- -- -- -- -- -- --  -- -- -- -- -- -- -- --
0E30:                                      03 02 10 0B              ....
0E40: 7F 00                                             ..              
```

#### Opcodes

```
  0: 0x0E3C [0x03] Work_Zone[2] = (Entity->Render.Flags01 >> 25) & 1
  1: 0x0E41 [0x00] END_REQSTACK()
```

### Event 65535.9

#### Metadata

| Field        | Value   |
|--------------|---------|
| Entrypoint   | 0x0E42  |
| Data Size    | 6 bytes |
| Instructions | 2       |

```
      00 01 02 03 04 05 06 07  08 09 0A 0B 0C 0D 0E 0F
      -- -- -- -- -- -- -- --  -- -- -- -- -- -- -- --
0E40:       03 02 10 07 7F 00                             ......        
```

#### Opcodes

```
  0: 0x0E42 [0x03] Work_Zone[2] = Entity->Race
  1: 0x0E47 [0x00] END_REQSTACK()
```

### Event 65535.10

#### Metadata

| Field        | Value   |
|--------------|---------|
| Entrypoint   | 0x0E48  |
| Data Size    | 6 bytes |
| Instructions | 2       |

```
      00 01 02 03 04 05 06 07  08 09 0A 0B 0C 0D 0E 0F
      -- -- -- -- -- -- -- --  -- -- -- -- -- -- -- --
0E40:                          03 09 10 07 7F 00                ......  
```

#### Opcodes

```
  0: 0x0E48 [0x03] Work_Zone[9] = Entity->Race
  1: 0x0E4D [0x00] END_REQSTACK()
```

### Event 65535.11

#### Metadata

| Field        | Value   |
|--------------|---------|
| Entrypoint   | 0x0E4E  |
| Data Size    | 6 bytes |
| Instructions | 2       |

```
      00 01 02 03 04 05 06 07  08 09 0A 0B 0C 0D 0E 0F
      -- -- -- -- -- -- -- --  -- -- -- -- -- -- -- --
0E40:                                            03 09                ..
0E50: 10 06 7F 00                                       ....            
```

#### Opcodes

```
  0: 0x0E4E [0x03] Work_Zone[9] = Entity->JobId (if LocalPlayer)
  1: 0x0E53 [0x00] END_REQSTACK()
```

### Event 65535.12

#### Metadata

| Field        | Value   |
|--------------|---------|
| Entrypoint   | 0x0E54  |
| Data Size    | 6 bytes |
| Instructions | 2       |

```
      00 01 02 03 04 05 06 07  08 09 0A 0B 0C 0D 0E 0F
      -- -- -- -- -- -- -- --  -- -- -- -- -- -- -- --
0E50:             03 08 10 06  7F 00                        ......      
```

#### Opcodes

```
  0: 0x0E54 [0x03] Work_Zone[8] = Entity->JobId (if LocalPlayer)
  1: 0x0E59 [0x00] END_REQSTACK()
```

### Event 4

#### Metadata

| Field        | Value     |
|--------------|-----------|
| Entrypoint   | 0x0E5A    |
| Data Size    | 548 bytes |
| Instructions | 66        |

```
      00 01 02 03 04 05 06 07  08 09 0A 0B 0C 0D 0E 0F
      -- -- -- -- -- -- -- --  -- -- -- -- -- -- -- --
0E50:                                42 46 01 1C 24 80            BF..$.
0E60: 5C 00 47 80 5C 01 47 80  5D 48 80 01 80 4E 00 F0  \.G.\.G.]H...N..
0E70: FF FF 7F 80 F0 FF FF 7F  38 0F 80 29 0B F0 FF FF  ........8..)....
0E80: 7F 07 29 0B D1 31 0C 01  07 4E 00 D1 31 0C 01 80  ..)..1...N..1...
0E90: D1 31 0C 01 4E 01 D1 31  0C 01 27 0B F0 FF FF 7F  .1..N..1..'.....
0EA0: 0A 45 49 80 F0 FF FF 7F  F0 FF FF 7F 73 30 35 33  .EI.........s053
0EB0: 0A 80 45 0D 80 F8 FF FF  7F F8 FF FF 7F 66 64 69  ..E..........fdi
0EC0: 31 0A 80 1C 24 80 79 00  D1 31 0C 01 F0 FF FF 7F  1...$.y..1......
0ED0: 1C 4A 80 52 49 80 F0 FF  FF 7F F0 FF FF 7F 73 30  .J.RI.........s0
0EE0: 35 33 45 49 80 F0 FF FF  7F F0 FF FF 7F 73 30 35  53EI.........s05
0EF0: 34 0A 80 27 0B D1 31 0C  01 09 2A 0B F0 FF FF 7F  4..'..1...*.....
0F00: 4A F0 FF FF 7F D1 31 0C  01 2A 0B D1 31 0C 01 29  J.....1..*..1..)
0F10: 0B D1 31 0C 01 0A 7B D1  31 0C 01 52 49 80 F0 FF  ..1...{.1..RI...
0F20: FF 7F F0 FF FF 7F 73 30  35 34 45 49 80 F0 FF FF  ......s054EI....
0F30: 7F F0 FF FF 7F 73 30 35  35 0A 80 27 0B D1 31 0C  .....s055..'..1.
0F40: 01 08 2B D1 31 0C 01 4B  80 23 2A 0B D1 31 0C 01  ..+.1..K.#*..1..
0F50: 52 49 80 F0 FF FF 7F F0  FF FF 7F 73 30 35 35 45  RI.........s055E
0F60: 0D 80 F8 FF FF 7F F8 FF  FF 7F 66 64 6F 31 0A 80  ..........fdo1..
0F70: 1C 26 80 45 49 80 F0 FF  FF 7F F0 FF FF 7F 73 30  .&.EI.........s0
0F80: 35 36 0A 80 45 0D 80 F8  FF FF 7F F8 FF FF 7F 66  56..E..........f
0F90: 64 69 31 0A 80 4A D1 31  0C 01 F0 FF FF 7F 6F 76  di1..J.1......ov
0FA0: D1 31 0C 01 29 0B D1 31  0C 01 0C 52 49 80 F0 FF  .1..)..1...RI...
0FB0: FF 7F F0 FF FF 7F 73 30  35 36 45 0D 80 F0 FF FF  ......s056E.....
0FC0: 7F F0 FF FF 7F 6F 76 6C  31 0A 80 45 49 80 F0 FF  .....ovl1..EI...
0FD0: FF 7F F0 FF FF 7F 73 30  35 37 0A 80 29 0B D1 31  ......s057..)..1
0FE0: 0C 01 0D 45 0D 80 F8 FF  FF 7F F8 FF FF 7F 66 64  ...E..........fd
0FF0: 6F 31 0A 80 1C 26 80 52  49 80 F0 FF FF 7F F0 FF  o1...&.RI.......
1000: FF 7F 73 30 35 37 45 49  80 F0 FF FF 7F F0 FF FF  ..s057EI........
1010: 7F 73 30 35 38 0A 80 45  0D 80 F8 FF FF 7F F8 FF  .s058..E........
1020: FF 7F 66 64 69 31 0A 80  29 0B D1 31 0C 01 14 5D  ..fdi1..)..1...]
1030: 0A 80 0D 80 45 0D 80 F8  FF FF 7F F8 FF FF 7F 66  ....E..........f
1040: 64 6F 31 0A 80 1C 0D 80  5C 00 0A 80 5C 01 0A 80  do1.....\...\...
1050: 5D 48 80 01 80 52 49 80  F0 FF FF 7F F0 FF FF 7F  ]H...RI.........
1060: 73 30 35 38 46 00 1C 0D  80 45 0D 80 F8 FF FF 7F  s058F....E......
1070: F8 FF FF 7F 66 64 69 31  0A 80 20 00 21 00        ....fdi1.. .!.  
```

#### Opcodes

```
  0: 0x0E5A [0x42] SET_CLI_EVENT_CANCEL_DATA()
  1: 0x0E5B [0x46] CAMERA_CONTROL: Disable user control
  2: 0x0E5D [0x1C] WAIT(60* ticks)
  3: 0x0E60 [0x5C] MUSIC_CONTROL: Set Idle (Day) music to song 161*
  4: 0x0E64 [0x5C] MUSIC_CONTROL: Set Idle (Night) music to song 161*
  5: 0x0E68 [0x5D] SET_MUSIC_VOLUME(volume=127*, fade_time=1*)
  6: 0x0E6D [0x4E] SET_ENTITY_HIDE_FLAG: Show LocalPlayer
  7: 0x0E73 [0x80] LOAD_WAIT(entity=LocalPlayer)
  8: 0x0E78 [0x38] SET_CLIENT_EVENT_MODE(mode=19*)
  9: 0x0E7B [0x29] REQ_SET_WAIT(priority=0x0B, entity_id=LocalPlayer, tag_num=0x07)
 10: 0x0E82 [0x29] REQ_SET_WAIT(priority=0x0B, entity_id=Shikaree M (ID: 17576401/0x010C31D1), tag_num=0x07)
 11: 0x0E89 [0x4E] SET_ENTITY_HIDE_FLAG: Show Shikaree M (ID: 17576401/0x010C31D1)
 12: 0x0E8F [0x80] LOAD_WAIT(entity=Shikaree M (ID: 17576401/0x010C31D1))
 13: 0x0E94 [0x4E] SET_ENTITY_HIDE_FLAG: Hide Shikaree M (ID: 17576401/0x010C31D1)
 14: 0x0E9A [0x27] REQ_SET(priority=0x0B, entity_id=LocalPlayer, tag_num=0x0A)
 15: 0x0EA1 [0x45] LOAD_SCHEDULED_TASK: Load scheduler "s053" with entities [LocalPlayer, LocalPlayer], work=[16*, 0*]
 16: 0x0EB2 [0x45] LOAD_SCHEDULED_TASK: Load scheduler "fdi1" with entities [EventEntity, EventEntity], work=[200*, 0*]
 17: 0x0EC3 [0x1C] WAIT(60* ticks)
 18: 0x0EC6 [0x79] Shikaree M (ID: 17576401/0x010C31D1) looks at LocalPlayer (Basic look)
 19: 0x0ED0 [0x1C] WAIT(100* ticks)
 20: 0x0ED3 [0x52] END_LOAD_SCHEDULER: End scheduler "s053" with entities [LocalPlayer, LocalPlayer], work=16*
 21: 0x0EE2 [0x45] LOAD_SCHEDULED_TASK: Load scheduler "s054" with entities [LocalPlayer, LocalPlayer], work=[16*, 0*]
 22: 0x0EF3 [0x27] REQ_SET(priority=0x0B, entity_id=Shikaree M (ID: 17576401/0x010C31D1), tag_num=0x09)
 23: 0x0EFA [0x2A] GET_REQ_LEVEL(level=11, entity_id=LocalPlayer)
 24: 0x0F00 [0x4A] LocalPlayer looks at Shikaree M (ID: 17576401/0x010C31D1)
 25: 0x0F09 [0x2A] GET_REQ_LEVEL(level=11, entity_id=Shikaree M (ID: 17576401/0x010C31D1))
 26: 0x0F0F [0x29] REQ_SET_WAIT(priority=0x0B, entity_id=Shikaree M (ID: 17576401/0x010C31D1), tag_num=0x0A)
 27: 0x0F16 [0x7B] Shikaree M (ID: 17576401/0x010C31D1) stops talking
 28: 0x0F1B [0x52] END_LOAD_SCHEDULER: End scheduler "s054" with entities [LocalPlayer, LocalPlayer], work=16*
 29: 0x0F2A [0x45] LOAD_SCHEDULED_TASK: Load scheduler "s055" with entities [LocalPlayer, LocalPlayer], work=[16*, 0*]
 30: 0x0F3B [0x27] REQ_SET(priority=0x0B, entity_id=Shikaree M (ID: 17576401/0x010C31D1), tag_num=0x08)
 31: 0x0F42 [0x2B] Shikaree M (ID: 17576401/0x010C31D1) [7455*]:
    → "Even if you tried, it would be a futile effort. You cannot get away from a Mithran Tracker."
 32: 0x0F49 [0x23] WAIT_FOR_DIALOG_INTERACTION
 33: 0x0F4A [0x2A] GET_REQ_LEVEL(level=11, entity_id=Shikaree M (ID: 17576401/0x010C31D1))
 34: 0x0F50 [0x52] END_LOAD_SCHEDULER: End scheduler "s055" with entities [LocalPlayer, LocalPlayer], work=16*
 35: 0x0F5F [0x45] LOAD_SCHEDULED_TASK: Load scheduler "fdo1" with entities [EventEntity, EventEntity], work=[200*, 0*]
 36: 0x0F70 [0x1C] WAIT(90* ticks)
 37: 0x0F73 [0x45] LOAD_SCHEDULED_TASK: Load scheduler "s056" with entities [LocalPlayer, LocalPlayer], work=[16*, 0*]
 38: 0x0F84 [0x45] LOAD_SCHEDULED_TASK: Load scheduler "fdi1" with entities [EventEntity, EventEntity], work=[200*, 0*]
 39: 0x0F95 [0x4A] Shikaree M (ID: 17576401/0x010C31D1) looks at LocalPlayer
 40: 0x0F9E [0x6F] WAIT_FRAME_DELAY: Yield until WaitTime reaches zero
 41: 0x0F9F [0x76] CHECK_ENTITY_RENDER_FLAGS: Wait until Shikaree M (ID: 17576401/0x010C31D1) Render.Flags0 and Render.Flags3 conditions are met
 42: 0x0FA4 [0x29] REQ_SET_WAIT(priority=0x0B, entity_id=Shikaree M (ID: 17576401/0x010C31D1), tag_num=0x0C)
 43: 0x0FAB [0x52] END_LOAD_SCHEDULER: End scheduler "s056" with entities [LocalPlayer, LocalPlayer], work=16*
 44: 0x0FBA [0x45] LOAD_SCHEDULED_TASK: Load scheduler "ovl1" with entities [LocalPlayer, LocalPlayer], work=[200*, 0*]
 45: 0x0FCB [0x45] LOAD_SCHEDULED_TASK: Load scheduler "s057" with entities [LocalPlayer, LocalPlayer], work=[16*, 0*]
 46: 0x0FDC [0x29] REQ_SET_WAIT(priority=0x0B, entity_id=Shikaree M (ID: 17576401/0x010C31D1), tag_num=0x0D)
 47: 0x0FE3 [0x45] LOAD_SCHEDULED_TASK: Load scheduler "fdo1" with entities [EventEntity, EventEntity], work=[200*, 0*]
 48: 0x0FF4 [0x1C] WAIT(90* ticks)
 49: 0x0FF7 [0x52] END_LOAD_SCHEDULER: End scheduler "s057" with entities [LocalPlayer, LocalPlayer], work=16*
 50: 0x1006 [0x45] LOAD_SCHEDULED_TASK: Load scheduler "s058" with entities [LocalPlayer, LocalPlayer], work=[16*, 0*]
 51: 0x1017 [0x45] LOAD_SCHEDULED_TASK: Load scheduler "fdi1" with entities [EventEntity, EventEntity], work=[200*, 0*]
 52: 0x1028 [0x29] REQ_SET_WAIT(priority=0x0B, entity_id=Shikaree M (ID: 17576401/0x010C31D1), tag_num=0x14)
 53: 0x102F [0x5D] SET_MUSIC_VOLUME(volume=0*, fade_time=200*)
 54: 0x1034 [0x45] LOAD_SCHEDULED_TASK: Load scheduler "fdo1" with entities [EventEntity, EventEntity], work=[200*, 0*]
 55: 0x1045 [0x1C] WAIT(200* ticks)
 56: 0x1048 [0x5C] MUSIC_CONTROL: Set Idle (Day) music to song 0*
 57: 0x104C [0x5C] MUSIC_CONTROL: Set Idle (Night) music to song 0*
 58: 0x1050 [0x5D] SET_MUSIC_VOLUME(volume=127*, fade_time=1*)
 59: 0x1055 [0x52] END_LOAD_SCHEDULER: End scheduler "s058" with entities [LocalPlayer, LocalPlayer], work=16*
 60: 0x1064 [0x46] CAMERA_CONTROL: Restore default settings
 61: 0x1066 [0x1C] WAIT(200* ticks)
 62: 0x1069 [0x45] LOAD_SCHEDULED_TASK: Load scheduler "fdi1" with entities [EventEntity, EventEntity], work=[200*, 0*]
 63: 0x107A [0x20] SET_CLI_EVENT_UC_FLAG: Unlock player control
 64: 0x107C [0x21] END_EVENT
 65: 0x107D [0x00] END_REQSTACK()
```

### Event 51

#### Metadata

| Field        | Value     |
|--------------|-----------|
| Entrypoint   | 0x107E    |
| Data Size    | 148 bytes |
| Instructions | 20        |

```
      00 01 02 03 04 05 06 07  08 09 0A 0B 0C 0D 0E 0F
      -- -- -- -- -- -- -- --  -- -- -- -- -- -- -- --
1070:                                            42 20                B 
1080: 01 46 01 45 02 80 F0 FF  FF 7F F0 FF FF 7F 73 30  .F.E..........s0
1090: 34 30 0A 80 4E 00 D6 31  0C 01 22 00 37 4C 80 4D  40..N..1..".7L.M
10A0: 80 4E 80 4F 80 38 0F 80  45 0D 80 F0 FF FF 7F F0  .N.O.8..E.......
10B0: FF FF 7F 66 64 69 31 0A  80 1C 50 80 79 00 D6 31  ...fdi1...P.y..1
10C0: 0C 01 F0 FF FF 7F 2B D6  31 0C 01 51 80 23 45 0D  ......+.1..Q.#E.
10D0: 80 F0 FF FF 7F F0 FF FF  7F 66 64 6F 32 0A 80 55  .........fdo2..U
10E0: 0D 80 F0 FF FF 7F F0 FF  FF 7F 66 64 6F 32 46 00  ..........fdo2F.
10F0: 52 02 80 F0 FF FF 7F F0  FF FF 7F 73 30 34 30 45  R..........s040E
1100: 0D 80 F0 FF FF 7F F0 FF  FF 7F 66 64 69 31 0A 80  ..........fdi1..
1110: 21 00                                             !.              
```

#### Opcodes

```
  0: 0x107E [0x42] SET_CLI_EVENT_CANCEL_DATA()
  1: 0x107F [0x20] SET_CLI_EVENT_UC_FLAG: Lock player control
  2: 0x1081 [0x46] CAMERA_CONTROL: Disable user control
  3: 0x1083 [0x45] LOAD_SCHEDULED_TASK: Load scheduler "s040" with entities [LocalPlayer, LocalPlayer], work=[2*, 0*]
  4: 0x1094 [0x4E] SET_ENTITY_HIDE_FLAG: Show Cannau (ID: 17576406/0x010C31D6)
  5: 0x109A [0x22] ENTITY_HIDE_FLAG(enabled=0x00)
  6: 0x109C [0x37] UPDATE_EVENT_POSITION_AND_DIR: x=419.926*, z=-117.222*, y=-56.000*, direction=256.9°*
  7: 0x10A5 [0x38] SET_CLIENT_EVENT_MODE(mode=19*)
  8: 0x10A8 [0x45] LOAD_SCHEDULED_TASK: Load scheduler "fdi1" with entities [LocalPlayer, LocalPlayer], work=[200*, 0*]
  9: 0x10B9 [0x1C] WAIT(180* ticks)
 10: 0x10BC [0x79] Cannau (ID: 17576406/0x010C31D6) looks at LocalPlayer (Basic look)
 11: 0x10C6 [0x2B] Cannau (ID: 17576406/0x010C31D6) [7472*]:
    → "<Sigh> So father has sent another adventurer to babysit me... I grant you permission to accompany me, but I request that you stay out of my way."
 12: 0x10CD [0x23] WAIT_FOR_DIALOG_INTERACTION
 13: 0x10CE [0x45] LOAD_SCHEDULED_TASK: Load scheduler "fdo2" with entities [LocalPlayer, LocalPlayer], work=[200*, 0*]
 14: 0x10DF [0x55] WAIT_LOAD_SCHEDULER: Wait for scheduler "fdo2" with entities [LocalPlayer, LocalPlayer], work=200*
 15: 0x10EE [0x46] CAMERA_CONTROL: Restore default settings
 16: 0x10F0 [0x52] END_LOAD_SCHEDULER: End scheduler "s040" with entities [LocalPlayer, LocalPlayer], work=2*
 17: 0x10FF [0x45] LOAD_SCHEDULED_TASK: Load scheduler "fdi1" with entities [LocalPlayer, LocalPlayer], work=[200*, 0*]
 18: 0x1110 [0x21] END_EVENT
 19: 0x1111 [0x00] END_REQSTACK()
```

### Event 65535.13

#### Metadata

| Field        | Value    |
|--------------|----------|
| Entrypoint   | 0x1112   |
| Data Size    | 26 bytes |
| Instructions | 6        |

```
      00 01 02 03 04 05 06 07  08 09 0A 0B 0C 0D 0E 0F
      -- -- -- -- -- -- -- --  -- -- -- -- -- -- -- --
1110:       37 52 80 53 80 54  80 55 80 1C 01 80 32 45    7R.S.T.U....2E
1120: 80 1F 00 56 80 57 80 58  80 1F 01 00              ...V.W.X....    
```

#### Opcodes

```
  0: 0x1112 [0x37] UPDATE_EVENT_POSITION_AND_DIR: x=-267.243*, z=176.372*, y=-3.394*, direction=57.0°*
  1: 0x111B [0x1C] WAIT(1* ticks)
  2: 0x111E [0x32] ExtData[1]->MainSpeed = 13* * 0.1
  3: 0x1121 [0x1F] MOVE_ENTITY: EventEntity moves to X=-262.822*, Z=172.014*, Y=-1.968*
  4: 0x1129 [0x1F] MOVE_ENTITY: Update entity position (mode=1)
  5: 0x112B [0x00] END_REQSTACK()
```

### Event 65535.14

#### Metadata

| Field        | Value    |
|--------------|----------|
| Entrypoint   | 0x112C   |
| Data Size    | 10 bytes |
| Instructions | 2        |

```
      00 01 02 03 04 05 06 07  08 09 0A 0B 0C 0D 0E 0F
      -- -- -- -- -- -- -- --  -- -- -- -- -- -- -- --
1120:                                      37 59 80 5A              7Y.Z
1130: 80 5B 80 5C 80 00                                 .[.\..          
```

#### Opcodes

```
  0: 0x112C [0x37] UPDATE_EVENT_POSITION_AND_DIR: x=-259.084*, z=158.700*, y=0.128*, direction=96.2°*
  1: 0x1135 [0x00] END_REQSTACK()
```

### Event 65535.15

#### Metadata

| Field        | Value    |
|--------------|----------|
| Entrypoint   | 0x1136   |
| Data Size    | 14 bytes |
| Instructions | 4        |

```
      00 01 02 03 04 05 06 07  08 09 0A 0B 0C 0D 0E 0F
      -- -- -- -- -- -- -- --  -- -- -- -- -- -- -- --
1130:                   32 5D  80 1F 00 5E 80 5F 80 60        2]...^._.`
1140: 80 1F 01 00                                       ....            
```

#### Opcodes

```
  0: 0x1136 [0x32] ExtData[1]->MainSpeed = 40* * 0.1
  1: 0x1139 [0x1F] MOVE_ENTITY: EventEntity moves to X=-259.063*, Z=149.324*, Y=-0.052*
  2: 0x1141 [0x1F] MOVE_ENTITY: Update entity position (mode=1)
  3: 0x1143 [0x00] END_REQSTACK()
```
