# 17449535 - Vailanice

## Common Data

| Field            | Value                          |
|------------------|--------------------------------|
| Zone             | Garlaige Citadel [S] (ID: 164) |
| Block Size       | 856 bytes                      |
| Total Events     | 26                             |
| References Count | 42                             |

## List of Events

| Event ID                   | Entrypoint   |   Size |   Instructions |
|----------------------------|--------------|--------|----------------|
| [65535](#event-65535)      | 0x0000       |      1 |              1 |
| [31](#event-31)            | 0x0001       |      1 |              1 |
| [32](#event-32)            | 0x0002       |      1 |              1 |
| [33](#event-33)            | 0x0003       |      1 |              1 |
| [65535.1](#event-655351)   | 0x0004       |     35 |              9 |
| [65535.2](#event-655352)   | 0x0027       |     35 |              9 |
| [65535.3](#event-655353)   | 0x004A       |     10 |              2 |
| [65535.4](#event-655354)   | 0x0054       |     10 |              2 |
| [65535.5](#event-655355)   | 0x005E       |     37 |              5 |
| [65535.6](#event-655356)   | 0x0083       |     37 |              5 |
| [65535.7](#event-655357)   | 0x00A8       |      5 |              2 |
| [65535.8](#event-655358)   | 0x00AD       |      5 |              2 |
| [65535.9](#event-655359)   | 0x00B2       |      3 |              2 |
| [65535.10](#event-6553510) | 0x00B5       |      3 |              2 |
| [65535.11](#event-6553511) | 0x00B8       |     21 |              2 |
| [65535.12](#event-6553512) | 0x00CD       |    169 |             34 |
| [65535.13](#event-6553513) | 0x0176       |     19 |              4 |
| [65535.14](#event-6553514) | 0x0189       |     19 |              4 |
| [65535.15](#event-6553515) | 0x019C       |     19 |              4 |
| [65535.16](#event-6553516) | 0x01AF       |     19 |              4 |
| [65535.17](#event-6553517) | 0x01C2       |     19 |              4 |
| [65535.18](#event-6553518) | 0x01D5       |     19 |              4 |
| [65535.19](#event-6553519) | 0x01E8       |     19 |              4 |
| [65535.20](#event-6553520) | 0x01FB       |     19 |              4 |
| [65535.21](#event-6553521) | 0x020E       |     20 |              5 |
| [65535.22](#event-6553522) | 0x0222       |     20 |              5 |

## DAT References (imed_data)

|   Index | Hex Value   |   Dec Value |
|---------|-------------|-------------|
|       0 | 0x0028      |          40 |
|       1 | 0x000D      |          13 |
|       2 | 0x0000      |           0 |
|       3 | 0x0001      |           1 |
|       4 | 0x0080      |         128 |
|       5 | 0x0064      |         100 |
|       6 | 0x005F      |          95 |
|       7 | 0x0003      |           3 |
|       8 | 0x0038      |          56 |
|       9 | 0x00DD      |         221 |
|      10 | 0x000C      |          12 |
|      11 | 0x010F      |         271 |
|      12 | 0x001B      |          27 |
|      13 | 0x0005      |           5 |
|      14 | 0x0002      |           2 |
|      15 | 0x000A      |          10 |
|      16 | 0x0009      |           9 |
|      17 | 0x0046      |          70 |
|      18 | 0x008C      |         140 |
|      19 | 0x00D2      |         210 |
|      20 | 0x000B      |          11 |
|      21 | 0xFFFE5492  |  4294857874 |
|      22 | 0x2C0D6     |      180438 |
|      23 | 0xFFFFFFB2  |  4294967218 |
|      24 | 0xFFFE52FD  |  4294857469 |
|      25 | 0x2DC4C     |      187468 |
|      26 | 0xFFFE51F9  |  4294857209 |
|      27 | 0x2DB0A     |      187146 |
|      28 | 0xFFFE5AF1  |  4294859505 |
|      29 | 0x2EB2E     |      191278 |
|      30 | 0xFFFE53D3  |  4294857683 |
|      31 | 0x2D8D3     |      186579 |
|      32 | 0xFFFE520F  |  4294857231 |
|      33 | 0x2BF4A     |      180042 |
|      34 | 0xFFFE71EF  |  4294865391 |
|      35 | 0x002A      |          42 |
|      36 | 0xFFFE5683  |  4294858371 |
|      37 | 0x2BFCB     |      180171 |
|      38 | 0xFFFE5A75  |  4294859381 |
|      39 | 0x2E869     |      190569 |
|      40 | 0xFFFE5242  |  4294857282 |
|      41 | 0x2BFFE     |      180222 |

## Events

### Event 65535

#### Metadata

| Field        | Value   |
|--------------|---------|
| Entrypoint   | 0x0000  |
| Data Size    | 1 bytes |
| Instructions | 1       |

```
      00 01 02 03 04 05 06 07  08 09 0A 0B 0C 0D 0E 0F
      -- -- -- -- -- -- -- --  -- -- -- -- -- -- -- --
0000: 00                                                .               
```

#### Opcodes

```
  0: 0x0000 [0x00] END_REQSTACK()
```

### Event 31

#### Metadata

| Field        | Value   |
|--------------|---------|
| Entrypoint   | 0x0001  |
| Data Size    | 1 bytes |
| Instructions | 1       |

```
      00 01 02 03 04 05 06 07  08 09 0A 0B 0C 0D 0E 0F
      -- -- -- -- -- -- -- --  -- -- -- -- -- -- -- --
0000:    00                                              .              
```

#### Opcodes

```
  0: 0x0001 [0x00] END_REQSTACK()
```

### Event 32

#### Metadata

| Field        | Value   |
|--------------|---------|
| Entrypoint   | 0x0002  |
| Data Size    | 1 bytes |
| Instructions | 1       |

```
      00 01 02 03 04 05 06 07  08 09 0A 0B 0C 0D 0E 0F
      -- -- -- -- -- -- -- --  -- -- -- -- -- -- -- --
0000:       00                                            .             
```

#### Opcodes

```
  0: 0x0002 [0x00] END_REQSTACK()
```

### Event 33

#### Metadata

| Field        | Value   |
|--------------|---------|
| Entrypoint   | 0x0003  |
| Data Size    | 1 bytes |
| Instructions | 1       |

```
      00 01 02 03 04 05 06 07  08 09 0A 0B 0C 0D 0E 0F
      -- -- -- -- -- -- -- --  -- -- -- -- -- -- -- --
0000:          00                                          .            
```

#### Opcodes

```
  0: 0x0003 [0x00] END_REQSTACK()
```

### Event 65535.1

#### Metadata

| Field        | Value    |
|--------------|----------|
| Entrypoint   | 0x0004   |
| Data Size    | 35 bytes |
| Instructions | 9        |

```
      00 01 02 03 04 05 06 07  08 09 0A 0B 0C 0D 0E 0F
      -- -- -- -- -- -- -- --  -- -- -- -- -- -- -- --
0000:             03 00 00 25  10 03 02 00 27 10 03 01      ...%....'...
0010: 00 26 10 03 03 00 28 10  32 00 80 1F 00 00 00 02  .&....(.2.......
0020: 00 01 00 1F 01 6F 00                              .....o.         
```

#### Opcodes

```
  0: 0x0004 [0x03] ExtData[1]->WorkLocal[0] = Work_Zone[37]
  1: 0x0009 [0x03] ExtData[1]->WorkLocal[2] = Work_Zone[39]
  2: 0x000E [0x03] ExtData[1]->WorkLocal[1] = Work_Zone[38]
  3: 0x0013 [0x03] ExtData[1]->WorkLocal[3] = Work_Zone[40]
  4: 0x0018 [0x32] ExtData[1]->MainSpeed = 40* * 0.1
  5: 0x001B [0x1F] MOVE_ENTITY: EventEntity moves to X=ExtData[1]->WorkLocal[0], Z=ExtData[1]->WorkLocal[2], Y=ExtData[1]->WorkLocal[1]
  6: 0x0023 [0x1F] MOVE_ENTITY: Update entity position (mode=1)
  7: 0x0025 [0x6F] WAIT_FRAME_DELAY: Yield until WaitTime reaches zero
  8: 0x0026 [0x00] END_REQSTACK()
```

### Event 65535.2

#### Metadata

| Field        | Value    |
|--------------|----------|
| Entrypoint   | 0x0027   |
| Data Size    | 35 bytes |
| Instructions | 9        |

```
      00 01 02 03 04 05 06 07  08 09 0A 0B 0C 0D 0E 0F
      -- -- -- -- -- -- -- --  -- -- -- -- -- -- -- --
0020:                      03  00 00 25 10 03 02 00 27         ...%....'
0030: 10 03 01 00 26 10 03 03  00 28 10 32 01 80 1F 00  ....&....(.2....
0040: 00 00 02 00 01 00 1F 01  6F 00                    ........o.      
```

#### Opcodes

```
  0: 0x0027 [0x03] ExtData[1]->WorkLocal[0] = Work_Zone[37]
  1: 0x002C [0x03] ExtData[1]->WorkLocal[2] = Work_Zone[39]
  2: 0x0031 [0x03] ExtData[1]->WorkLocal[1] = Work_Zone[38]
  3: 0x0036 [0x03] ExtData[1]->WorkLocal[3] = Work_Zone[40]
  4: 0x003B [0x32] ExtData[1]->MainSpeed = 13* * 0.1
  5: 0x003E [0x1F] MOVE_ENTITY: EventEntity moves to X=ExtData[1]->WorkLocal[0], Z=ExtData[1]->WorkLocal[2], Y=ExtData[1]->WorkLocal[1]
  6: 0x0046 [0x1F] MOVE_ENTITY: Update entity position (mode=1)
  7: 0x0048 [0x6F] WAIT_FRAME_DELAY: Yield until WaitTime reaches zero
  8: 0x0049 [0x00] END_REQSTACK()
```

### Event 65535.3

#### Metadata

| Field        | Value    |
|--------------|----------|
| Entrypoint   | 0x004A   |
| Data Size    | 10 bytes |
| Instructions | 2        |

```
      00 01 02 03 04 05 06 07  08 09 0A 0B 0C 0D 0E 0F
      -- -- -- -- -- -- -- --  -- -- -- -- -- -- -- --
0040:                                6C F8 FF FF 7F 02            l.....
0050: 80 03 80 00                                       ....            
```

#### Opcodes

```
  0: 0x004A [0x6C] FADE_ENTITY_COLOR(entity_id=EventEntity, end_alpha=0*, fade_time=1*)
  1: 0x0053 [0x00] END_REQSTACK()
```

### Event 65535.4

#### Metadata

| Field        | Value    |
|--------------|----------|
| Entrypoint   | 0x0054   |
| Data Size    | 10 bytes |
| Instructions | 2        |

```
      00 01 02 03 04 05 06 07  08 09 0A 0B 0C 0D 0E 0F
      -- -- -- -- -- -- -- --  -- -- -- -- -- -- -- --
0050:             6C F8 FF FF  7F 04 80 03 80 00            l.........  
```

#### Opcodes

```
  0: 0x0054 [0x6C] FADE_ENTITY_COLOR(entity_id=EventEntity, end_alpha=128*, fade_time=1*)
  1: 0x005D [0x00] END_REQSTACK()
```

### Event 65535.5

#### Metadata

| Field        | Value    |
|--------------|----------|
| Entrypoint   | 0x005E   |
| Data Size    | 37 bytes |
| Instructions | 5        |

```
      00 01 02 03 04 05 06 07  08 09 0A 0B 0C 0D 0E 0F
      -- -- -- -- -- -- -- --  -- -- -- -- -- -- -- --
0050:                                            03 04                ..
0060: 00 07 7F 1A E2 00 66 05  00 F8 FF FF 7F F8 FF FF  ......f.........
0070: 7F 73 68 61 30 53 F8 FF  FF 7F F8 FF FF 7F 73 68  .sha0S........sh
0080: 61 30 00                                          a0.             
```

#### Opcodes

```
  0: 0x005E [0x03] ExtData[1]->WorkLocal[4] = Entity->Race
  1: 0x0063 [0x1A] CALL_SUBROUTINE(address=0x00E2)
  2: 0x0066 [0x66] LOAD_EXT_SCHEDULER_MAIN: Load scheduler "sha0" with entities [EventEntity, EventEntity], work=ExtData[1]->WorkLocal[5]
  3: 0x0075 [0x53] WAIT_SCHEDULER_TASK: Wait for scheduler "sha0" with entities [EventEntity, EventEntity]
  4: 0x0082 [0x00] END_REQSTACK()
```

### Event 65535.6

#### Metadata

| Field        | Value    |
|--------------|----------|
| Entrypoint   | 0x0083   |
| Data Size    | 37 bytes |
| Instructions | 5        |

```
      00 01 02 03 04 05 06 07  08 09 0A 0B 0C 0D 0E 0F
      -- -- -- -- -- -- -- --  -- -- -- -- -- -- -- --
0080:          03 04 00 07 7F  1A E2 00 66 05 00 F8 FF     ........f....
0090: FF 7F F8 FF FF 7F 73 68  61 31 53 F8 FF FF 7F F8  ......sha1S.....
00A0: FF FF 7F 73 68 61 31 00                           ...sha1.        
```

#### Opcodes

```
  0: 0x0083 [0x03] ExtData[1]->WorkLocal[4] = Entity->Race
  1: 0x0088 [0x1A] CALL_SUBROUTINE(address=0x00E2)
  2: 0x008B [0x66] LOAD_EXT_SCHEDULER_MAIN: Load scheduler "sha1" with entities [EventEntity, EventEntity], work=ExtData[1]->WorkLocal[5]
  3: 0x009A [0x53] WAIT_SCHEDULER_TASK: Wait for scheduler "sha1" with entities [EventEntity, EventEntity]
  4: 0x00A7 [0x00] END_REQSTACK()
```

### Event 65535.7

#### Metadata

| Field        | Value   |
|--------------|---------|
| Entrypoint   | 0x00A8  |
| Data Size    | 5 bytes |
| Instructions | 2       |

```
      00 01 02 03 04 05 06 07  08 09 0A 0B 0C 0D 0E 0F
      -- -- -- -- -- -- -- --  -- -- -- -- -- -- -- --
00A0:                          B6 0F 05 80 00                   .....   
```

#### Opcodes

```
  0: 0x00A8 [0xB6] ENTITY_APPEARANCE_HANDLER(case=Model size, value=100*)
  1: 0x00AC [0x00] END_REQSTACK()
```

### Event 65535.8

#### Metadata

| Field        | Value   |
|--------------|---------|
| Entrypoint   | 0x00AD  |
| Data Size    | 5 bytes |
| Instructions | 2       |

```
      00 01 02 03 04 05 06 07  08 09 0A 0B 0C 0D 0E 0F
      -- -- -- -- -- -- -- --  -- -- -- -- -- -- -- --
00A0:                                         B6 0F 06               ...
00B0: 80 00                                             ..              
```

#### Opcodes

```
  0: 0x00AD [0xB6] ENTITY_APPEARANCE_HANDLER(case=Model size, value=95*)
  1: 0x00B1 [0x00] END_REQSTACK()
```

### Event 65535.9

#### Metadata

| Field        | Value   |
|--------------|---------|
| Entrypoint   | 0x00B2  |
| Data Size    | 3 bytes |
| Instructions | 2       |

```
      00 01 02 03 04 05 06 07  08 09 0A 0B 0C 0D 0E 0F
      -- -- -- -- -- -- -- --  -- -- -- -- -- -- -- --
00B0:       33 01 00                                      3..           
```

#### Opcodes

```
  0: 0x00B2 [0x33] EventEntity->Render.Flags0 |= 0x200000 // Bit 21 (flag=0x01)
  1: 0x00B4 [0x00] END_REQSTACK()
```

### Event 65535.10

#### Metadata

| Field        | Value   |
|--------------|---------|
| Entrypoint   | 0x00B5  |
| Data Size    | 3 bytes |
| Instructions | 2       |

```
      00 01 02 03 04 05 06 07  08 09 0A 0B 0C 0D 0E 0F
      -- -- -- -- -- -- -- --  -- -- -- -- -- -- -- --
00B0:                33 00 00                                3..        
```

#### Opcodes

```
  0: 0x00B5 [0x33] EventEntity->Render.Flags0 &= ~ 0x200000 // Bit 21 (flag=0x00)
  1: 0x00B7 [0x00] END_REQSTACK()
```

### Event 65535.11

#### Metadata

| Field        | Value    |
|--------------|----------|
| Entrypoint   | 0x00B8   |
| Data Size    | 21 bytes |
| Instructions | 2        |

```
      00 01 02 03 04 05 06 07  08 09 0A 0B 0C 0D 0E 0F
      -- -- -- -- -- -- -- --  -- -- -- -- -- -- -- --
00B0:                          B6 0B 07 80 01 80 08 80          ........
00C0: 09 80 0A 80 0A 80 0A 80  0B 80 0C 80 00           .............   
```

#### Opcodes

```
  0: 0x00B8 [0xB6] ENTITY_APPEARANCE_HANDLER(case=Full entity look, race=3*, hair=13*, head=56*, body=221*, hands=12*, legs=12*, feet=12*, main=271*, sub=27*)
  1: 0x00CC [0x00] END_REQSTACK()
```

### Event 65535.12

#### Metadata

| Field        | Value     |
|--------------|-----------|
| Entrypoint   | 0x00CD    |
| Data Size    | 169 bytes |
| Instructions | 2         |

```
      00 01 02 03 04 05 06 07  08 09 0A 0B 0C 0D 0E 0F
      -- -- -- -- -- -- -- --  -- -- -- -- -- -- -- --
00C0:                                         B6 0B 07               ...
00D0: 80 01 80 08 80 09 80 0A  80 0A 80 0A 80 02 80 02  ................
00E0: 80 00 03 05 00 04 00 02  05 00 0D 80 05 F7 00 08  ................
00F0: 05 00 03 80 01 FC 00 08  05 00 0E 80 14 05 00 0F  ................
0100: 80 07 05 00 10 80 1B 03  05 00 04 00 02 05 00 0D  ................
0110: 80 05 1C 01 08 05 00 03  80 01 21 01 08 05 00 0E  ..........!.....
0120: 80 14 05 00 0F 80 07 05  00 11 80 1B 03 05 00 04  ................
0130: 00 02 05 00 0D 80 05 41  01 08 05 00 03 80 01 46  .......A.......F
0140: 01 08 05 00 0E 80 14 05  00 0F 80 07 05 00 12 80  ................
0150: 1B 03 05 00 04 00 02 05  00 0D 80 05 66 01 08 05  ............f...
0160: 00 03 80 01 6B 01 08 05  00 0E 80 14 05 00 0F 80  ....k...........
0170: 07 05 00 13 80 1B                                 ......          
```

#### Opcodes

```
  0: 0x00CD [0xB6] ENTITY_APPEARANCE_HANDLER(case=Full entity look, race=3*, hair=13*, head=56*, body=221*, hands=12*, legs=12*, feet=12*, main=0*, sub=0*)
  1: 0x00E1 [0x00] END_REQSTACK()
```

#### Data or dead code:

```
# Dead code (unreachable instructions):
     0x00E2 [0x03] ExtData[1]->WorkLocal[5] = ExtData[1]->WorkLocal[4]
     0x00E7 [0x02] IF !(ExtData[1]->WorkLocal[5] > 5*) GOTO 0x00F7
     0x00EF [0x08] ExtData[1]->WorkLocal[5] -= 1*
     0x00F4 [0x01] GOTO 0x00FC
     0x00F7 [0x08] ExtData[1]->WorkLocal[5] -= 2*
     0x00FC [0x14] ExtData[1]->WorkLocal[5] *= 10*
     0x0101 [0x07] ExtData[1]->WorkLocal[5] += 9*
     0x0106 [0x1B] RETURN
     0x0107 [0x03] ExtData[1]->WorkLocal[5] = ExtData[1]->WorkLocal[4]
     0x010C [0x02] IF !(ExtData[1]->WorkLocal[5] > 5*) GOTO 0x011C
     0x0114 [0x08] ExtData[1]->WorkLocal[5] -= 1*
     0x0119 [0x01] GOTO 0x0121
     0x011C [0x08] ExtData[1]->WorkLocal[5] -= 2*
     0x0121 [0x14] ExtData[1]->WorkLocal[5] *= 10*
     0x0126 [0x07] ExtData[1]->WorkLocal[5] += 70*
     0x012B [0x1B] RETURN
     0x012C [0x03] ExtData[1]->WorkLocal[5] = ExtData[1]->WorkLocal[4]
     0x0131 [0x02] IF !(ExtData[1]->WorkLocal[5] > 5*) GOTO 0x0141
     0x0139 [0x08] ExtData[1]->WorkLocal[5] -= 1*
     0x013E [0x01] GOTO 0x0146
     0x0141 [0x08] ExtData[1]->WorkLocal[5] -= 2*
     0x0146 [0x14] ExtData[1]->WorkLocal[5] *= 10*
     0x014B [0x07] ExtData[1]->WorkLocal[5] += 140*
     0x0150 [0x1B] RETURN
     0x0151 [0x03] ExtData[1]->WorkLocal[5] = ExtData[1]->WorkLocal[4]
     0x0156 [0x02] IF !(ExtData[1]->WorkLocal[5] > 5*) GOTO 0x0166
     0x015E [0x08] ExtData[1]->WorkLocal[5] -= 1*
     0x0163 [0x01] GOTO 0x016B
     0x0166 [0x08] ExtData[1]->WorkLocal[5] -= 2*
     0x016B [0x14] ExtData[1]->WorkLocal[5] *= 10*
     0x0170 [0x07] ExtData[1]->WorkLocal[5] += 210*
     0x0175 [0x1B] RETURN
```

### Event 65535.13

#### Metadata

| Field        | Value    |
|--------------|----------|
| Entrypoint   | 0x0176   |
| Data Size    | 19 bytes |
| Instructions | 4        |

```
      00 01 02 03 04 05 06 07  08 09 0A 0B 0C 0D 0E 0F
      -- -- -- -- -- -- -- --  -- -- -- -- -- -- -- --
0170:                   59 04  3F 42 0A 01 14 80 1F 00        Y.?B......
0180: 15 80 16 80 17 80 1F 01  00                       .........       
```

#### Opcodes

```
  0: 0x0176 [0x59] UPDATE_ENTITY_DATA: Set Vailanice (ID: 17449535/0x010A423F) main speed = 11* * 0.1
  1: 0x017E [0x1F] MOVE_ENTITY: EventEntity moves to X=-109.422*, Z=180.438*, Y=-0.078*
  2: 0x0186 [0x1F] MOVE_ENTITY: Update entity position (mode=1)
  3: 0x0188 [0x00] END_REQSTACK()
```

### Event 65535.14

#### Metadata

| Field        | Value    |
|--------------|----------|
| Entrypoint   | 0x0189   |
| Data Size    | 19 bytes |
| Instructions | 4        |

```
      00 01 02 03 04 05 06 07  08 09 0A 0B 0C 0D 0E 0F
      -- -- -- -- -- -- -- --  -- -- -- -- -- -- -- --
0180:                             59 04 3F 42 0A 01 0A           Y.?B...
0190: 80 1F 00 18 80 19 80 02  80 1F 01 00              ............    
```

#### Opcodes

```
  0: 0x0189 [0x59] UPDATE_ENTITY_DATA: Set Vailanice (ID: 17449535/0x010A423F) main speed = 12* * 0.1
  1: 0x0191 [0x1F] MOVE_ENTITY: EventEntity moves to X=-109.827*, Z=187.468*, Y=0.000*
  2: 0x0199 [0x1F] MOVE_ENTITY: Update entity position (mode=1)
  3: 0x019B [0x00] END_REQSTACK()
```

### Event 65535.15

#### Metadata

| Field        | Value    |
|--------------|----------|
| Entrypoint   | 0x019C   |
| Data Size    | 19 bytes |
| Instructions | 4        |

```
      00 01 02 03 04 05 06 07  08 09 0A 0B 0C 0D 0E 0F
      -- -- -- -- -- -- -- --  -- -- -- -- -- -- -- --
0190:                                      59 04 3F 42              Y.?B
01A0: 0A 01 01 80 1F 00 1A 80  1B 80 02 80 1F 01 00     ............... 
```

#### Opcodes

```
  0: 0x019C [0x59] UPDATE_ENTITY_DATA: Set Vailanice (ID: 17449535/0x010A423F) main speed = 13* * 0.1
  1: 0x01A4 [0x1F] MOVE_ENTITY: EventEntity moves to X=-110.087*, Z=187.146*, Y=0.000*
  2: 0x01AC [0x1F] MOVE_ENTITY: Update entity position (mode=1)
  3: 0x01AE [0x00] END_REQSTACK()
```

### Event 65535.16

#### Metadata

| Field        | Value    |
|--------------|----------|
| Entrypoint   | 0x01AF   |
| Data Size    | 19 bytes |
| Instructions | 4        |

```
      00 01 02 03 04 05 06 07  08 09 0A 0B 0C 0D 0E 0F
      -- -- -- -- -- -- -- --  -- -- -- -- -- -- -- --
01A0:                                               59                 Y
01B0: 04 3F 42 0A 01 01 80 1F  00 1C 80 1D 80 02 80 1F  .?B.............
01C0: 01 00                                             ..              
```

#### Opcodes

```
  0: 0x01AF [0x59] UPDATE_ENTITY_DATA: Set Vailanice (ID: 17449535/0x010A423F) main speed = 13* * 0.1
  1: 0x01B7 [0x1F] MOVE_ENTITY: EventEntity moves to X=-107.791*, Z=191.278*, Y=0.000*
  2: 0x01BF [0x1F] MOVE_ENTITY: Update entity position (mode=1)
  3: 0x01C1 [0x00] END_REQSTACK()
```

### Event 65535.17

#### Metadata

| Field        | Value    |
|--------------|----------|
| Entrypoint   | 0x01C2   |
| Data Size    | 19 bytes |
| Instructions | 4        |

```
      00 01 02 03 04 05 06 07  08 09 0A 0B 0C 0D 0E 0F
      -- -- -- -- -- -- -- --  -- -- -- -- -- -- -- --
01C0:       59 04 3F 42 0A 01  00 80 1F 00 1E 80 1F 80    Y.?B..........
01D0: 02 80 1F 01 00                                    .....           
```

#### Opcodes

```
  0: 0x01C2 [0x59] UPDATE_ENTITY_DATA: Set Vailanice (ID: 17449535/0x010A423F) main speed = 40* * 0.1
  1: 0x01CA [0x1F] MOVE_ENTITY: EventEntity moves to X=-109.613*, Z=186.579*, Y=0.000*
  2: 0x01D2 [0x1F] MOVE_ENTITY: Update entity position (mode=1)
  3: 0x01D4 [0x00] END_REQSTACK()
```

### Event 65535.18

#### Metadata

| Field        | Value    |
|--------------|----------|
| Entrypoint   | 0x01D5   |
| Data Size    | 19 bytes |
| Instructions | 4        |

```
      00 01 02 03 04 05 06 07  08 09 0A 0B 0C 0D 0E 0F
      -- -- -- -- -- -- -- --  -- -- -- -- -- -- -- --
01D0:                59 04 3F  42 0A 01 00 80 1F 00 20       Y.?B...... 
01E0: 80 21 80 17 80 1F 01 00                           .!......        
```

#### Opcodes

```
  0: 0x01D5 [0x59] UPDATE_ENTITY_DATA: Set Vailanice (ID: 17449535/0x010A423F) main speed = 40* * 0.1
  1: 0x01DD [0x1F] MOVE_ENTITY: EventEntity moves to X=-110.065*, Z=180.042*, Y=-0.078*
  2: 0x01E5 [0x1F] MOVE_ENTITY: Update entity position (mode=1)
  3: 0x01E7 [0x00] END_REQSTACK()
```

### Event 65535.19

#### Metadata

| Field        | Value    |
|--------------|----------|
| Entrypoint   | 0x01E8   |
| Data Size    | 19 bytes |
| Instructions | 4        |

```
      00 01 02 03 04 05 06 07  08 09 0A 0B 0C 0D 0E 0F
      -- -- -- -- -- -- -- --  -- -- -- -- -- -- -- --
01E0:                          59 04 3F 42 0A 01 00 80          Y.?B....
01F0: 1F 00 22 80 21 80 17 80  1F 01 00                 ..".!......     
```

#### Opcodes

```
  0: 0x01E8 [0x59] UPDATE_ENTITY_DATA: Set Vailanice (ID: 17449535/0x010A423F) main speed = 40* * 0.1
  1: 0x01F0 [0x1F] MOVE_ENTITY: EventEntity moves to X=-101.905*, Z=180.042*, Y=-0.078*
  2: 0x01F8 [0x1F] MOVE_ENTITY: Update entity position (mode=1)
  3: 0x01FA [0x00] END_REQSTACK()
```

### Event 65535.20

#### Metadata

| Field        | Value    |
|--------------|----------|
| Entrypoint   | 0x01FB   |
| Data Size    | 19 bytes |
| Instructions | 4        |

```
      00 01 02 03 04 05 06 07  08 09 0A 0B 0C 0D 0E 0F
      -- -- -- -- -- -- -- --  -- -- -- -- -- -- -- --
01F0:                                   59 04 3F 42 0A             Y.?B.
0200: 01 23 80 1F 00 24 80 25  80 17 80 1F 01 00        .#...$.%......  
```

#### Opcodes

```
  0: 0x01FB [0x59] UPDATE_ENTITY_DATA: Set Vailanice (ID: 17449535/0x010A423F) main speed = 42* * 0.1
  1: 0x0203 [0x1F] MOVE_ENTITY: EventEntity moves to X=-108.925*, Z=180.171*, Y=-0.078*
  2: 0x020B [0x1F] MOVE_ENTITY: Update entity position (mode=1)
  3: 0x020D [0x00] END_REQSTACK()
```

### Event 65535.21

#### Metadata

| Field        | Value    |
|--------------|----------|
| Entrypoint   | 0x020E   |
| Data Size    | 20 bytes |
| Instructions | 5        |

```
      00 01 02 03 04 05 06 07  08 09 0A 0B 0C 0D 0E 0F
      -- -- -- -- -- -- -- --  -- -- -- -- -- -- -- --
0200:                                            59 04                Y.
0210: 3F 42 0A 01 23 80 1F 00  26 80 27 80 02 80 1F 01  ?B..#...&.'.....
0220: 6F 00                                             o.              
```

#### Opcodes

```
  0: 0x020E [0x59] UPDATE_ENTITY_DATA: Set Vailanice (ID: 17449535/0x010A423F) main speed = 42* * 0.1
  1: 0x0216 [0x1F] MOVE_ENTITY: EventEntity moves to X=-107.915*, Z=190.569*, Y=0.000*
  2: 0x021E [0x1F] MOVE_ENTITY: Update entity position (mode=1)
  3: 0x0220 [0x6F] WAIT_FRAME_DELAY: Yield until WaitTime reaches zero
  4: 0x0221 [0x00] END_REQSTACK()
```

### Event 65535.22

#### Metadata

| Field        | Value    |
|--------------|----------|
| Entrypoint   | 0x0222   |
| Data Size    | 20 bytes |
| Instructions | 5        |

```
      00 01 02 03 04 05 06 07  08 09 0A 0B 0C 0D 0E 0F
      -- -- -- -- -- -- -- --  -- -- -- -- -- -- -- --
0220:       59 04 3F 42 0A 01  01 80 1F 00 28 80 29 80    Y.?B......(.).
0230: 17 80 1F 01 6F 00                                 ....o.          
```

#### Opcodes

```
  0: 0x0222 [0x59] UPDATE_ENTITY_DATA: Set Vailanice (ID: 17449535/0x010A423F) main speed = 13* * 0.1
  1: 0x022A [0x1F] MOVE_ENTITY: EventEntity moves to X=-110.014*, Z=180.222*, Y=-0.078*
  2: 0x0232 [0x1F] MOVE_ENTITY: Update entity position (mode=1)
  3: 0x0234 [0x6F] WAIT_FRAME_DELAY: Yield until WaitTime reaches zero
  4: 0x0235 [0x00] END_REQSTACK()
```
