# 17449494

## Common Data

| Field            | Value                          |
|------------------|--------------------------------|
| Zone             | Garlaige Citadel [S] (ID: 164) |
| Block Size       | 932 bytes                      |
| Total Events     | 7                              |
| References Count | 37                             |

## List of Events

| Event ID              | Entrypoint   |   Size |   Instructions |
|-----------------------|--------------|--------|----------------|
| [65535](#event-65535) | 0x0000       |      1 |              1 |
| [4](#event-4)         | 0x0001       |     19 |              5 |
| [6](#event-6)         | 0x0014       |    315 |             55 |
| [8](#event-8)         | 0x014F       |     55 |              9 |
| [9](#event-9)         | 0x0186       |    269 |             43 |
| [5](#event-5)         | 0x0293       |      6 |              4 |
| [7](#event-7)         | 0x0299       |     75 |             11 |

## DAT References (imed_data)

|   Index | Hex Value   |   Dec Value |
|---------|-------------|-------------|
|       0 | 0x1DFB      |        7675 |
|       1 | 0x001D      |          29 |
|       2 | 0x1DE0      |        7648 |
|       3 | 0x0757      |        1879 |
|       4 | 0x1DE1      |        7649 |
|       5 | 0x1DE2      |        7650 |
|       6 | 0x0000      |           0 |
|       7 | 0x0001      |           1 |
|       8 | 0x1DE4      |        7652 |
|       9 | 0x1DE3      |        7651 |
|      10 | 0x0BB8      |        3000 |
|      11 | 0x1DE5      |        7653 |
|      12 | 0x1DE6      |        7654 |
|      13 | 0x1DE7      |        7655 |
|      14 | 0x1DE8      |        7656 |
|      15 | 0x1DE9      |        7657 |
|      16 | 0x03B5      |         949 |
|      17 | 0x1DEA      |        7658 |
|      18 | 0x1DEB      |        7659 |
|      19 | 0x1DEC      |        7660 |
|      20 | 0x1DED      |        7661 |
|      21 | 0x1DEE      |        7662 |
|      22 | 0x1DF0      |        7664 |
|      23 | 0x1DF1      |        7665 |
|      24 | 0x1DF2      |        7666 |
|      25 | 0x1DF3      |        7667 |
|      26 | 0x1DF4      |        7668 |
|      27 | 0x003C      |          60 |
|      28 | 0x1DF5      |        7669 |
|      29 | 0x1DF6      |        7670 |
|      30 | 0x1DF7      |        7671 |
|      31 | 0x1DF8      |        7672 |
|      32 | 0x1DF9      |        7673 |
|      33 | 0x00C9      |         201 |
|      34 | 0x1DFC      |        7676 |
|      35 | 0x1DEF      |        7663 |
|      36 | 0x00C8      |         200 |

## String References

- **7650**: Is he right? [Yes, that's exactly what I want./Actually, no.]
- **7663**: A sign reading "Keep Away From Fire!" is affixed to the case.
- **7669**: Rarcasmeault tears the "Keep Away From Fire!" sign from the case.
- **7672**: A crude map is drawn on the backside of the sign.
- **7676**: A number of cases are lined up on the table here.

## Events

### Event 65535

#### Metadata

| Field        | Value   |
|--------------|---------|
| Entrypoint   | 0x0000  |
| Data Size    | 1 bytes |
| Instructions | 1       |

```
      00 01 02 03 04 05 06 07  08 09 0A 0B 0C 0D 0E 0F
      -- -- -- -- -- -- -- --  -- -- -- -- -- -- -- --
0000: 00                                                .               
```

#### Opcodes

```
  0: 0x0000 [0x00] END_REQSTACK()
```

### Event 4

#### Metadata

| Field        | Value    |
|--------------|----------|
| Entrypoint   | 0x0001   |
| Data Size    | 19 bytes |
| Instructions | 5        |

```
      00 01 02 03 04 05 06 07  08 09 0A 0B 0C 0D 0E 0F
      -- -- -- -- -- -- -- --  -- -- -- -- -- -- -- --
0000:    4A 14 42 0A 01 F0 FF  FF 7F 2B 14 42 0A 01 00   J.B......+.B...
0010: 80 23 21 00                                       .#!.            
```

#### Opcodes

```
  0: 0x0001 [0x4A] Rarcasmeault (ID: 17449492/0x010A4214) looks at LocalPlayer
  1: 0x000A [0x2B] Rarcasmeault (ID: 17449492/0x010A4214) [7675*]:
    → "No unauthorized personnel are permit--Oh, it's you again..."
  2: 0x0011 [0x23] WAIT_FOR_DIALOG_INTERACTION
  3: 0x0012 [0x21] END_EVENT
  4: 0x0013 [0x00] END_REQSTACK()
```

### Event 6

#### Metadata

| Field        | Value     |
|--------------|-----------|
| Entrypoint   | 0x0014    |
| Data Size    | 315 bytes |
| Instructions | 54        |

```
      00 01 02 03 04 05 06 07  08 09 0A 0B 0C 0D 0E 0F
      -- -- -- -- -- -- -- --  -- -- -- -- -- -- -- --
0010:             42 4A 14 42  0A 01 F0 FF FF 7F 66 01      BJ.B......f.
0020: 80 14 42 0A 01 14 42 0A  01 74 6C 6B 30 2B 14 42  ..B...B..tlk0+.B
0030: 0A 01 02 80 23 03 02 10  03 80 2B 14 42 0A 01 04  ....#.....+.B...
0040: 80 23 24 05 80 06 80 06  80 25 02 00 10 06 80 00  .#$......%......
0050: 71 00 03 01 10 07 80 2B  14 42 0A 01 08 80 23 66  q......+.B....#f
0060: 01 80 14 42 0A 01 14 42  0A 01 74 6C 6B 31 01 96  ...B...B..tlk1..
0070: 00 02 00 10 07 80 00 96  00 2B 14 42 0A 01 09 80  .........+.B....
0080: 23 66 01 80 14 42 0A 01  14 42 0A 01 74 6C 6B 31  #f...B...B..tlk1
0090: 01 4D 01 01 96 00 4B 14  42 0A 01 0A 80 6F 76 14  .M....K.B....ov.
00A0: 42 0A 01 2B 14 42 0A 01  0B 80 23 2B 14 42 0A 01  B..+.B....#+.B..
00B0: 0C 80 23 66 01 80 14 42  0A 01 14 42 0A 01 74 68  ..#f...B...B..th
00C0: 6B 31 2B 14 42 0A 01 0D  80 23 66 01 80 14 42 0A  k1+.B....#f...B.
00D0: 01 14 42 0A 01 74 68 6B  32 66 01 80 14 42 0A 01  ..B..thk2f...B..
00E0: 14 42 0A 01 74 6C 6B 30  4A 14 42 0A 01 F0 FF FF  .B..tlk0J.B.....
00F0: 7F 6F 76 14 42 0A 01 2B  14 42 0A 01 0E 80 23 2B  .ov.B..+.B....#+
0100: 14 42 0A 01 0F 80 23 03  02 10 10 80 2B 14 42 0A  .B....#.....+.B.
0110: 01 11 80 23 2B 14 42 0A  01 12 80 23 03 02 10 10  ...#+.B....#....
0120: 80 2B 14 42 0A 01 13 80  23 66 01 80 14 42 0A 01  .+.B....#f...B..
0130: 14 42 0A 01 74 6C 6B 31  2B 14 42 0A 01 14 80 23  .B..tlk1+.B....#
0140: 53 14 42 0A 01 14 42 0A  01 74 6C 6B 31 21 00     S.B...B..tlk1!. 
```

#### Opcodes

```
  0: 0x0014 [0x42] SET_CLI_EVENT_CANCEL_DATA()
  1: 0x0015 [0x4A] Rarcasmeault (ID: 17449492/0x010A4214) looks at LocalPlayer
  2: 0x001E [0x66] LOAD_EXT_SCHEDULER_MAIN: Load scheduler "tlk0" with entities [Rarcasmeault (ID: 17449492/0x010A4214), Rarcasmeault (ID: 17449492/0x010A4214)], work=29*
  3: 0x002D [0x2B] Rarcasmeault (ID: 17449492/0x010A4214) [7648*]:
    → "What? Ya want something?"
  4: 0x0034 [0x23] WAIT_FOR_DIALOG_INTERACTION
  5: 0x0035 [0x03] Work_Zone[2] = 1879*
  6: 0x003A [0x2B] Rarcasmeault (ID: 17449492/0x010A4214) [7649*]:
    → "Lemme guess, you wanna get your hands on $6. Am I right?"
  7: 0x0041 [0x23] WAIT_FOR_DIALOG_INTERACTION
  8: 0x0042 [0x24] CREATE_DIALOG(message_id=7650*, default_option=0*, option_flags=0*)
    → "Is he right? [Yes, that's exactly what I want./Actually, no.]"
  9: 0x0049 [0x25] WAIT_DIALOG_SELECT()
 10: 0x004A [0x02] IF !(Work_Zone[0] == 0*) GOTO 0x0071
 11: 0x0052 [0x03] Work_Zone[1] = 1*
 12: 0x0057 [0x2B] Rarcasmeault (ID: 17449492/0x010A4214) [7652*]:
    → "Fine, I'll see what I can do. Gimme a minute."
 13: 0x005E [0x23] WAIT_FOR_DIALOG_INTERACTION
 14: 0x005F [0x66] LOAD_EXT_SCHEDULER_MAIN: Load scheduler "tlk1" with entities [Rarcasmeault (ID: 17449492/0x010A4214), Rarcasmeault (ID: 17449492/0x010A4214)], work=29*
 15: 0x006E [0x01] GOTO 0x0096
 16: 0x0071 [0x02] IF !(Work_Zone[0] == 1*) GOTO 0x0096
 17: 0x0079 [0x2B] Rarcasmeault (ID: 17449492/0x010A4214) [7651*]:
    → "Well then, stop bothering me! You got no idea what it's like to be this busy."
 18: 0x0080 [0x23] WAIT_FOR_DIALOG_INTERACTION
 19: 0x0081 [0x66] LOAD_EXT_SCHEDULER_MAIN: Load scheduler "tlk1" with entities [Rarcasmeault (ID: 17449492/0x010A4214), Rarcasmeault (ID: 17449492/0x010A4214)], work=29*
 20: 0x0090 [0x01] GOTO 0x014D

SUBROUTINE_0096:
 21: 0x0096 [0x4B] UPDATE_ENTITY_YAW(entity=Rarcasmeault (ID: 17449492/0x010A4214), yaw=16.5°*)
 22: 0x009D [0x6F] WAIT_FRAME_DELAY: Yield until WaitTime reaches zero
 23: 0x009E [0x76] CHECK_ENTITY_RENDER_FLAGS: Wait until Rarcasmeault (ID: 17449492/0x010A4214) Render.Flags0 and Render.Flags3 conditions are met
 24: 0x00A3 [0x2B] Rarcasmeault (ID: 17449492/0x010A4214) [7653*]:
    → "...Hm?"
 25: 0x00AA [0x23] WAIT_FOR_DIALOG_INTERACTION
 26: 0x00AB [0x2B] Rarcasmeault (ID: 17449492/0x010A4214) [7654*]:
    → "That figures. Looks like we're plumb outta maps."
 27: 0x00B2 [0x23] WAIT_FOR_DIALOG_INTERACTION
 28: 0x00B3 [0x66] LOAD_EXT_SCHEDULER_MAIN: Load scheduler "thk1" with entities [Rarcasmeault (ID: 17449492/0x010A4214), Rarcasmeault (ID: 17449492/0x010A4214)], work=29*
 29: 0x00C2 [0x2B] Rarcasmeault (ID: 17449492/0x010A4214) [7655*]:
    → "Of all the times..."
 30: 0x00C9 [0x23] WAIT_FOR_DIALOG_INTERACTION
 31: 0x00CA [0x66] LOAD_EXT_SCHEDULER_MAIN: Load scheduler "thk2" with entities [Rarcasmeault (ID: 17449492/0x010A4214), Rarcasmeault (ID: 17449492/0x010A4214)], work=29*
 32: 0x00D9 [0x66] LOAD_EXT_SCHEDULER_MAIN: Load scheduler "tlk0" with entities [Rarcasmeault (ID: 17449492/0x010A4214), Rarcasmeault (ID: 17449492/0x010A4214)], work=29*
 33: 0x00E8 [0x4A] Rarcasmeault (ID: 17449492/0x010A4214) looks at LocalPlayer
 34: 0x00F1 [0x6F] WAIT_FRAME_DELAY: Yield until WaitTime reaches zero
 35: 0x00F2 [0x76] CHECK_ENTITY_RENDER_FLAGS: Wait until Rarcasmeault (ID: 17449492/0x010A4214) Render.Flags0 and Render.Flags3 conditions are met
 36: 0x00F7 [0x2B] Rarcasmeault (ID: 17449492/0x010A4214) [7656*]:
    → "Well, since you're here, I may as well get some use outta ya."
 37: 0x00FE [0x23] WAIT_FOR_DIALOG_INTERACTION
 38: 0x00FF [0x2B] Rarcasmeault (ID: 17449492/0x010A4214) [7657*]:
    → "Oh, don't gimme that look. Get over yourself. I'll go and get ya your map while you're keeping busy."
 39: 0x0106 [0x23] WAIT_FOR_DIALOG_INTERACTION
 40: 0x0107 [0x03] Work_Zone[2] = 949*
 41: 0x010C [0x2B] Rarcasmeault (ID: 17449492/0x010A4214) [7658*]:
    → "Ya see, a while ago I made the mistake of putting $6 in the Firesand Storeroom."
 42: 0x0113 [0x23] WAIT_FOR_DIALOG_INTERACTION
 43: 0x0114 [0x2B] Rarcasmeault (ID: 17449492/0x010A4214) [7659*]:
    → "I mean, come on. "Firesand" and "Firepower." How am I not supposed to get those mixed up?"
 44: 0x011B [0x23] WAIT_FOR_DIALOG_INTERACTION
 45: 0x011C [0x03] Work_Zone[2] = 949*
 46: 0x0121 [0x2B] Rarcasmeault (ID: 17449492/0x010A4214) [7660*]:
    → "So look, just go get that and bring it back here for me. And that's it."
 47: 0x0128 [0x23] WAIT_FOR_DIALOG_INTERACTION
 48: 0x0129 [0x66] LOAD_EXT_SCHEDULER_MAIN: Load scheduler "tlk1" with entities [Rarcasmeault (ID: 17449492/0x010A4214), Rarcasmeault (ID: 17449492/0x010A4214)], work=29*
 49: 0x0138 [0x2B] Rarcasmeault (ID: 17449492/0x010A4214) [7661*]:
    → "...What? I said that's it. Go fetch me the $3 out of the Firesand Storeroom."
 50: 0x013F [0x23] WAIT_FOR_DIALOG_INTERACTION
 51: 0x0140 [0x53] WAIT_SCHEDULER_TASK: Wait for scheduler "tlk1" with entities [Rarcasmeault (ID: 17449492/0x010A4214), Rarcasmeault (ID: 17449492/0x010A4214)]

SUBROUTINE_014D:
 52: 0x014D [0x21] END_EVENT
 53: 0x014E [0x00] END_REQSTACK()
```

#### Data or dead code:

```
# Dead code (unreachable instructions):
     0x0093 [0x01] GOTO 0x0096
```

### Event 8

#### Metadata

| Field        | Value    |
|--------------|----------|
| Entrypoint   | 0x014F   |
| Data Size    | 55 bytes |
| Instructions | 9        |

```
      00 01 02 03 04 05 06 07  08 09 0A 0B 0C 0D 0E 0F
      -- -- -- -- -- -- -- --  -- -- -- -- -- -- -- --
0140:                                               42                 B
0150: 4A 14 42 0A 01 F0 FF FF  7F 03 02 10 10 80 66 01  J.B...........f.
0160: 80 14 42 0A 01 14 42 0A  01 74 6C 6B 30 2B 14 42  ..B...B..tlk0+.B
0170: 0A 01 15 80 23 66 01 80  14 42 0A 01 14 42 0A 01  ....#f...B...B..
0180: 74 6C 6B 31 21 00                                 tlk1!.          
```

#### Opcodes

```
  0: 0x014F [0x42] SET_CLI_EVENT_CANCEL_DATA()
  1: 0x0150 [0x4A] Rarcasmeault (ID: 17449492/0x010A4214) looks at LocalPlayer
  2: 0x0159 [0x03] Work_Zone[2] = 949*
  3: 0x015E [0x66] LOAD_EXT_SCHEDULER_MAIN: Load scheduler "tlk0" with entities [Rarcasmeault (ID: 17449492/0x010A4214), Rarcasmeault (ID: 17449492/0x010A4214)], work=29*
  4: 0x016D [0x2B] Rarcasmeault (ID: 17449492/0x010A4214) [7662*]:
    → "You get your hands on that $3 from the Firesand Storeroom yet? I'll have your map ready by the time you bring it back."
  5: 0x0174 [0x23] WAIT_FOR_DIALOG_INTERACTION
  6: 0x0175 [0x66] LOAD_EXT_SCHEDULER_MAIN: Load scheduler "tlk1" with entities [Rarcasmeault (ID: 17449492/0x010A4214), Rarcasmeault (ID: 17449492/0x010A4214)], work=29*
  7: 0x0184 [0x21] END_EVENT
  8: 0x0185 [0x00] END_REQSTACK()
```

### Event 9

#### Metadata

| Field        | Value     |
|--------------|-----------|
| Entrypoint   | 0x0186    |
| Data Size    | 269 bytes |
| Instructions | 43        |

```
      00 01 02 03 04 05 06 07  08 09 0A 0B 0C 0D 0E 0F
      -- -- -- -- -- -- -- --  -- -- -- -- -- -- -- --
0180:                   42 4A  14 42 0A 01 F0 FF FF 7F        BJ.B......
0190: 66 01 80 14 42 0A 01 14  42 0A 01 74 6C 6B 30 03  f...B...B..tlk0.
01A0: 02 10 10 80 2B 14 42 0A  01 16 80 23 66 01 80 14  ....+.B....#f...
01B0: 42 0A 01 14 42 0A 01 74  6C 6B 31 2B 14 42 0A 01  B...B..tlk1+.B..
01C0: 17 80 23 66 01 80 14 42  0A 01 14 42 0A 01 74 68  ..#f...B...B..th
01D0: 6B 31 2B 14 42 0A 01 18  80 23 2B 14 42 0A 01 19  k1+.B....#+.B...
01E0: 80 23 66 01 80 14 42 0A  01 14 42 0A 01 74 68 6B  .#f...B...B..thk
01F0: 32 2B 14 42 0A 01 1A 80  23 66 01 80 14 42 0A 01  2+.B....#f...B..
0200: 14 42 0A 01 74 6C 6B 31  4B 14 42 0A 01 0A 80 6F  .B..tlk1K.B....o
0210: 76 14 42 0A 01 66 01 80  14 42 0A 01 14 42 0A 01  v.B..f...B...B..
0220: 73 68 61 30 1C 1B 80 48  1C 80 1C 1B 80 66 01 80  sha0...H.....f..
0230: 14 42 0A 01 14 42 0A 01  73 68 61 31 1C 1B 80 4A  .B...B..sha1...J
0240: 14 42 0A 01 F0 FF FF 7F  6F 76 14 42 0A 01 66 01  .B......ov.B..f.
0250: 80 14 42 0A 01 14 42 0A  01 74 6C 6B 30 2B 14 42  ..B...B..tlk0+.B
0260: 0A 01 1D 80 23 03 02 10  03 80 2B 14 42 0A 01 1E  ....#.....+.B...
0270: 80 23 48 1F 80 1C 1B 80  2B 14 42 0A 01 20 80 23  .#H.....+.B.. .#
0280: 45 21 80 F8 FF FF 7F F8  FF FF 7F 71 73 74 63 06  E!.........qstc.
0290: 80 21 00                                          .!.             
```

#### Opcodes

```
  0: 0x0186 [0x42] SET_CLI_EVENT_CANCEL_DATA()
  1: 0x0187 [0x4A] Rarcasmeault (ID: 17449492/0x010A4214) looks at LocalPlayer
  2: 0x0190 [0x66] LOAD_EXT_SCHEDULER_MAIN: Load scheduler "tlk0" with entities [Rarcasmeault (ID: 17449492/0x010A4214), Rarcasmeault (ID: 17449492/0x010A4214)], work=29*
  3: 0x019F [0x03] Work_Zone[2] = 949*
  4: 0x01A4 [0x2B] Rarcasmeault (ID: 17449492/0x010A4214) [7664*]:
    → "Hey, that's the stuff! The $3, just like I asked. You're alright...for an adventurer."
  5: 0x01AB [0x23] WAIT_FOR_DIALOG_INTERACTION
  6: 0x01AC [0x66] LOAD_EXT_SCHEDULER_MAIN: Load scheduler "tlk1" with entities [Rarcasmeault (ID: 17449492/0x010A4214), Rarcasmeault (ID: 17449492/0x010A4214)], work=29*
  7: 0x01BB [0x2B] Rarcasmeault (ID: 17449492/0x010A4214) [7665*]:
    → "..."
  8: 0x01C2 [0x23] WAIT_FOR_DIALOG_INTERACTION
  9: 0x01C3 [0x66] LOAD_EXT_SCHEDULER_MAIN: Load scheduler "thk1" with entities [Rarcasmeault (ID: 17449492/0x010A4214), Rarcasmeault (ID: 17449492/0x010A4214)], work=29*
 10: 0x01D2 [0x2B] Rarcasmeault (ID: 17449492/0x010A4214) [7666*]:
    → "I know I asked you to help me, but truth be told..."
 11: 0x01D9 [0x23] WAIT_FOR_DIALOG_INTERACTION
 12: 0x01DA [0x2B] Rarcasmeault (ID: 17449492/0x010A4214) [7667*]:
    → "I checked everywhere I could think of and just couldn't find you a map."
 13: 0x01E1 [0x23] WAIT_FOR_DIALOG_INTERACTION
 14: 0x01E2 [0x66] LOAD_EXT_SCHEDULER_MAIN: Load scheduler "thk2" with entities [Rarcasmeault (ID: 17449492/0x010A4214), Rarcasmeault (ID: 17449492/0x010A4214)], work=29*
 15: 0x01F1 [0x2B] Rarcasmeault (ID: 17449492/0x010A4214) [7668*]:
    → "...Oh, wait!"
 16: 0x01F8 [0x23] WAIT_FOR_DIALOG_INTERACTION
 17: 0x01F9 [0x66] LOAD_EXT_SCHEDULER_MAIN: Load scheduler "tlk1" with entities [Rarcasmeault (ID: 17449492/0x010A4214), Rarcasmeault (ID: 17449492/0x010A4214)], work=29*
 18: 0x0208 [0x4B] UPDATE_ENTITY_YAW(entity=Rarcasmeault (ID: 17449492/0x010A4214), yaw=16.5°*)
 19: 0x020F [0x6F] WAIT_FRAME_DELAY: Yield until WaitTime reaches zero
 20: 0x0210 [0x76] CHECK_ENTITY_RENDER_FLAGS: Wait until Rarcasmeault (ID: 17449492/0x010A4214) Render.Flags0 and Render.Flags3 conditions are met
 21: 0x0215 [0x66] LOAD_EXT_SCHEDULER_MAIN: Load scheduler "sha0" with entities [Rarcasmeault (ID: 17449492/0x010A4214), Rarcasmeault (ID: 17449492/0x010A4214)], work=29*
 22: 0x0224 [0x1C] WAIT(60* ticks)
 23: 0x0227 [0x48] [System] [7669*]:
    → "Rarcasmeault tears the "Keep Away From Fire!" sign from the case."
 24: 0x022A [0x1C] WAIT(60* ticks)
 25: 0x022D [0x66] LOAD_EXT_SCHEDULER_MAIN: Load scheduler "sha1" with entities [Rarcasmeault (ID: 17449492/0x010A4214), Rarcasmeault (ID: 17449492/0x010A4214)], work=29*
 26: 0x023C [0x1C] WAIT(60* ticks)
 27: 0x023F [0x4A] Rarcasmeault (ID: 17449492/0x010A4214) looks at LocalPlayer
 28: 0x0248 [0x6F] WAIT_FRAME_DELAY: Yield until WaitTime reaches zero
 29: 0x0249 [0x76] CHECK_ENTITY_RENDER_FLAGS: Wait until Rarcasmeault (ID: 17449492/0x010A4214) Render.Flags0 and Render.Flags3 conditions are met
 30: 0x024E [0x66] LOAD_EXT_SCHEDULER_MAIN: Load scheduler "tlk0" with entities [Rarcasmeault (ID: 17449492/0x010A4214), Rarcasmeault (ID: 17449492/0x010A4214)], work=29*
 31: 0x025D [0x2B] Rarcasmeault (ID: 17449492/0x010A4214) [7670*]:
    → "...Found one."
 32: 0x0264 [0x23] WAIT_FOR_DIALOG_INTERACTION
 33: 0x0265 [0x03] Work_Zone[2] = 1879*
 34: 0x026A [0x2B] Rarcasmeault (ID: 17449492/0x010A4214) [7671*]:
    → "Heh, guess I had one after all. Here you go, your very own $3."
 35: 0x0271 [0x23] WAIT_FOR_DIALOG_INTERACTION
 36: 0x0272 [0x48] [System] [7672*]:
    → "A crude map is drawn on the backside of the sign."
 37: 0x0275 [0x1C] WAIT(60* ticks)
 38: 0x0278 [0x2B] Rarcasmeault (ID: 17449492/0x010A4214) [7673*]:
    → "Heh, who woulda thought, eh? It was here the whole time. Guess I just forgot sticking it on there. Well, say "thank you.""
 39: 0x027F [0x23] WAIT_FOR_DIALOG_INTERACTION
 40: 0x0280 [0x45] LOAD_SCHEDULED_TASK: Load scheduler "qstc" with entities [EventEntity, EventEntity], work=[201*, 0*]
 41: 0x0291 [0x21] END_EVENT
 42: 0x0292 [0x00] END_REQSTACK()
```

### Event 5

#### Metadata

| Field        | Value   |
|--------------|---------|
| Entrypoint   | 0x0293  |
| Data Size    | 6 bytes |
| Instructions | 4       |

```
      00 01 02 03 04 05 06 07  08 09 0A 0B 0C 0D 0E 0F
      -- -- -- -- -- -- -- --  -- -- -- -- -- -- -- --
0290:          48 22 80 23 21  00                          H".#!.       
```

#### Opcodes

```
  0: 0x0293 [0x48] [System] [7676*]:
    → "A number of cases are lined up on the table here."
  1: 0x0296 [0x23] WAIT_FOR_DIALOG_INTERACTION
  2: 0x0297 [0x21] END_EVENT
  3: 0x0298 [0x00] END_REQSTACK()
```

### Event 7

#### Metadata

| Field        | Value    |
|--------------|----------|
| Entrypoint   | 0x0299   |
| Data Size    | 75 bytes |
| Instructions | 5        |

```
      00 01 02 03 04 05 06 07  08 09 0A 0B 0C 0D 0E 0F
      -- -- -- -- -- -- -- --  -- -- -- -- -- -- -- --
0290:                             42 48 23 80 1C 1B 80           BH#....
02A0: 21 00 45 24 80 F8 FF FF  7F F8 FF FF 7F 66 64 6F  !.E$.........fdo
02B0: 31 06 80 55 24 80 F8 FF  FF 7F F8 FF FF 7F 66 64  1..U$.........fd
02C0: 6F 31 1B 45 24 80 F8 FF  FF 7F F8 FF FF 7F 66 64  o1.E$.........fd
02D0: 69 32 06 80 55 24 80 F8  FF FF 7F F8 FF FF 7F 66  i2..U$.........f
02E0: 64 69 32 1B                                       di2.            
```

#### Opcodes

```
  0: 0x0299 [0x42] SET_CLI_EVENT_CANCEL_DATA()
  1: 0x029A [0x48] [System] [7663*]:
    → "A sign reading "Keep Away From Fire!" is affixed to the case."
  2: 0x029D [0x1C] WAIT(60* ticks)
  3: 0x02A0 [0x21] END_EVENT
  4: 0x02A1 [0x00] END_REQSTACK()
```

#### Data or dead code:

```
# Dead code (unreachable instructions):
     0x02A2 [0x45] LOAD_SCHEDULED_TASK: Load scheduler "fdo1" with entities [EventEntity, EventEntity], work=[200*, 0*]
     0x02B3 [0x55] WAIT_LOAD_SCHEDULER: Wait for scheduler "fdo1" with entities [EventEntity, EventEntity], work=200*
     0x02C2 [0x1B] RETURN
     0x02C3 [0x45] LOAD_SCHEDULED_TASK: Load scheduler "fdi2" with entities [EventEntity, EventEntity], work=[200*, 0*]
     0x02D4 [0x55] WAIT_LOAD_SCHEDULER: Wait for scheduler "fdi2" with entities [EventEntity, EventEntity], work=200*
     0x02E3 [0x1B] RETURN
```
