# 17449560

## Common Data

| Field            | Value                          |
|------------------|--------------------------------|
| Zone             | Garlaige Citadel [S] (ID: 164) |
| Block Size       | 204 bytes                      |
| Total Events     | 4                              |
| References Count | 9                              |

## List of Events

| Event ID                 | Entrypoint   |   Size |   Instructions |
|--------------------------|--------------|--------|----------------|
| [65535](#event-65535)    | 0x0000       |      1 |              1 |
| [31](#event-31)          | 0x0001       |      1 |              1 |
| [65535.1](#event-655351) | 0x0002       |     60 |             10 |
| [65535.2](#event-655352) | 0x003E       |     72 |              8 |

## DAT References (imed_data)

|   Index | Hex Value   |   Dec Value |
|---------|-------------|-------------|
|       0 | 0x0032      |          50 |
|       1 | 0x04B7      |        1207 |
|       2 | 0xFFFED861  |  4294891617 |
|       3 | 0x2C2E2     |      180962 |
|       4 | 0xFFFFFFB2  |  4294967218 |
|       5 | 0x07DA      |        2010 |
|       6 | 0x0004      |           4 |
|       7 | 0x00D2      |         210 |
|       8 | 0x001D      |          29 |

## Events

### Event 65535

#### Metadata

| Field        | Value   |
|--------------|---------|
| Entrypoint   | 0x0000  |
| Data Size    | 1 bytes |
| Instructions | 1       |

```
      00 01 02 03 04 05 06 07  08 09 0A 0B 0C 0D 0E 0F
      -- -- -- -- -- -- -- --  -- -- -- -- -- -- -- --
0000: 00                                                .               
```

#### Opcodes

```
  0: 0x0000 [0x00] END_REQSTACK()
```

### Event 31

#### Metadata

| Field        | Value   |
|--------------|---------|
| Entrypoint   | 0x0001  |
| Data Size    | 1 bytes |
| Instructions | 1       |

```
      00 01 02 03 04 05 06 07  08 09 0A 0B 0C 0D 0E 0F
      -- -- -- -- -- -- -- --  -- -- -- -- -- -- -- --
0000:    00                                              .              
```

#### Opcodes

```
  0: 0x0001 [0x00] END_REQSTACK()
```

### Event 65535.1

#### Metadata

| Field        | Value    |
|--------------|----------|
| Entrypoint   | 0x0002   |
| Data Size    | 60 bytes |
| Instructions | 10       |

```
      00 01 02 03 04 05 06 07  08 09 0A 0B 0C 0D 0E 0F
      -- -- -- -- -- -- -- --  -- -- -- -- -- -- -- --
0000:       59 01 1A 42 0A 01  00 80 4B 1A 42 0A 01 01    Y..B....K.B...
0010: 80 7B 1A 42 0A 01 6F 76  1A 42 0A 01 29 10 1A 42  .{.B..ov.B..)..B
0020: 0A 01 17 29 10 1A 42 0A  01 18 7A 00 1A 42 0A 01  ...)..B...z..B..
0030: BA 1A 42 0A 01 02 80 03  80 04 80 05 80 00        ..B...........  
```

#### Opcodes

```
  0: 0x0002 [0x59] UPDATE_ENTITY_DATA: Set Diordinne (ID: 17449498/0x010A421A) turn speed = 50*
  1: 0x000A [0x4B] UPDATE_ENTITY_YAW(entity=Diordinne (ID: 17449498/0x010A421A), yaw=6.6°*)
  2: 0x0011 [0x7B] Diordinne (ID: 17449498/0x010A421A) stops talking
  3: 0x0016 [0x6F] WAIT_FRAME_DELAY: Yield until WaitTime reaches zero
  4: 0x0017 [0x76] CHECK_ENTITY_RENDER_FLAGS: Wait until Diordinne (ID: 17449498/0x010A421A) Render.Flags0 and Render.Flags3 conditions are met
  5: 0x001C [0x29] REQ_SET_WAIT(priority=0x10, entity_id=Diordinne (ID: 17449498/0x010A421A), tag_num=0x17)
  6: 0x0023 [0x29] REQ_SET_WAIT(priority=0x10, entity_id=Diordinne (ID: 17449498/0x010A421A), tag_num=0x18)
  7: 0x002A [0x7A] VM_CONTROL: Reset VM for Diordinne (ID: 17449498/0x010A421A)
  8: 0x0030 [0xBA] SET_ENTITY_POSITION(entity_id=Diordinne (ID: 17449498/0x010A421A), pos_x=-75.679*, pos_z=180.962*, pos_y=-0.078*, direction=176.7°*)
  9: 0x003D [0x00] END_REQSTACK()
```

### Event 65535.2

#### Metadata

| Field        | Value    |
|--------------|----------|
| Entrypoint   | 0x003E   |
| Data Size    | 72 bytes |
| Instructions | 8        |

```
      00 01 02 03 04 05 06 07  08 09 0A 0B 0C 0D 0E 0F
      -- -- -- -- -- -- -- --  -- -- -- -- -- -- -- --
0030:                                            6E 3F                n?
0040: 42 0A 01 06 80 99 3F 42  0A 01 1C 07 80 66 08 80  B.....?B.....f..
0050: 3F 42 0A 01 3F 42 0A 01  74 6C 6B 30 53 3F 42 0A  ?B..?B..tlk0S?B.
0060: 01 3F 42 0A 01 74 6C 6B  30 66 08 80 3F 42 0A 01  .?B..tlk0f..?B..
0070: 3F 42 0A 01 74 6C 6B 31  53 3F 42 0A 01 3F 42 0A  ?B..tlk1S?B..?B.
0080: 01 74 6C 6B 31 00                                 .tlk1.          
```

#### Opcodes

```
  0: 0x003E [0x6E] Vailanice (ID: 17449535/0x010A423F) uses emote 4*
  1: 0x0045 [0x99] Wait for Vailanice (ID: 17449535/0x010A423F) animation to complete
  2: 0x004A [0x1C] WAIT(210* ticks)
  3: 0x004D [0x66] LOAD_EXT_SCHEDULER_MAIN: Load scheduler "tlk0" with entities [Vailanice (ID: 17449535/0x010A423F), Vailanice (ID: 17449535/0x010A423F)], work=29*
  4: 0x005C [0x53] WAIT_SCHEDULER_TASK: Wait for scheduler "tlk0" with entities [Vailanice (ID: 17449535/0x010A423F), Vailanice (ID: 17449535/0x010A423F)]
  5: 0x0069 [0x66] LOAD_EXT_SCHEDULER_MAIN: Load scheduler "tlk1" with entities [Vailanice (ID: 17449535/0x010A423F), Vailanice (ID: 17449535/0x010A423F)], work=29*
  6: 0x0078 [0x53] WAIT_SCHEDULER_TASK: Wait for scheduler "tlk1" with entities [Vailanice (ID: 17449535/0x010A423F), Vailanice (ID: 17449535/0x010A423F)]
  7: 0x0085 [0x00] END_REQSTACK()
```
