# 17449559

## Common Data

| Field            | Value                          |
|------------------|--------------------------------|
| Zone             | Garlaige Citadel [S] (ID: 164) |
| Block Size       | 604 bytes                      |
| Total Events     | 7                              |
| References Count | 19                             |

## List of Events

| Event ID                 | Entrypoint   |   Size |   Instructions |
|--------------------------|--------------|--------|----------------|
| [65535](#event-65535)    | 0x0000       |      1 |              1 |
| [31](#event-31)          | 0x0001       |      1 |              1 |
| [65535.1](#event-655351) | 0x0002       |    108 |             21 |
| [65535.2](#event-655352) | 0x006E       |     57 |              8 |
| [65535.3](#event-655353) | 0x00A7       |     98 |             19 |
| [65535.4](#event-655354) | 0x0109       |     60 |             10 |
| [65535.5](#event-655355) | 0x0145       |    157 |             27 |

## DAT References (imed_data)

|   Index | Hex Value   |   Dec Value |
|---------|-------------|-------------|
|       0 | 0x0002      |           2 |
|       1 | 0x00B4      |         180 |
|       2 | 0x003C      |          60 |
|       3 | 0x0CB2      |        3250 |
|       4 | 0x0000      |           0 |
|       5 | 0x03E8      |        1000 |
|       6 | 0x04F8      |        1272 |
|       7 | 0x0834      |        2100 |
|       8 | 0x041A      |        1050 |
|       9 | 0x0014      |          20 |
|      10 | 0x0046      |          70 |
|      11 | 0x0497      |        1175 |
|      12 | 0xFFFED861  |  4294891617 |
|      13 | 0x2C2E2     |      180962 |
|      14 | 0xFFFFFFB2  |  4294967218 |
|      15 | 0x07DA      |        2010 |
|      16 | 0x0050      |          80 |
|      17 | 0x000F      |          15 |
|      18 | 0x000A      |          10 |

## Events

### Event 65535

#### Metadata

| Field        | Value   |
|--------------|---------|
| Entrypoint   | 0x0000  |
| Data Size    | 1 bytes |
| Instructions | 1       |

```
      00 01 02 03 04 05 06 07  08 09 0A 0B 0C 0D 0E 0F
      -- -- -- -- -- -- -- --  -- -- -- -- -- -- -- --
0000: 00                                                .               
```

#### Opcodes

```
  0: 0x0000 [0x00] END_REQSTACK()
```

### Event 31

#### Metadata

| Field        | Value   |
|--------------|---------|
| Entrypoint   | 0x0001  |
| Data Size    | 1 bytes |
| Instructions | 1       |

```
      00 01 02 03 04 05 06 07  08 09 0A 0B 0C 0D 0E 0F
      -- -- -- -- -- -- -- --  -- -- -- -- -- -- -- --
0000:    00                                              .              
```

#### Opcodes

```
  0: 0x0001 [0x00] END_REQSTACK()
```

### Event 65535.1

#### Metadata

| Field        | Value     |
|--------------|-----------|
| Entrypoint   | 0x0002    |
| Data Size    | 108 bytes |
| Instructions | 21        |

```
      00 01 02 03 04 05 06 07  08 09 0A 0B 0C 0D 0E 0F
      -- -- -- -- -- -- -- --  -- -- -- -- -- -- -- --
0000:       6E 1A 42 0A 01 00  80 99 1A 42 0A 01 1C 01    n.B......B....
0010: 80 59 01 1A 42 0A 01 02  80 4B 1A 42 0A 01 03 80  .Y..B....K.B....
0020: 7B 1A 42 0A 01 6F 76 1A  42 0A 01 29 10 1A 42 0A  {.B..ov.B..)..B.
0030: 01 12 59 01 1A 42 0A 01  02 80 4B 1A 42 0A 01 04  ..Y..B....K.B...
0040: 80 7B 1A 42 0A 01 6F 76  1A 42 0A 01 29 10 1A 42  .{.B..ov.B..)..B
0050: 0A 01 13 59 01 1A 42 0A  01 02 80 4B 1A 42 0A 01  ...Y..B....K.B..
0060: 05 80 7B 1A 42 0A 01 6F  76 1A 42 0A 01 00        ..{.B..ov.B...  
```

#### Opcodes

```
  0: 0x0002 [0x6E] Diordinne (ID: 17449498/0x010A421A) uses emote 2*
  1: 0x0009 [0x99] Wait for Diordinne (ID: 17449498/0x010A421A) animation to complete
  2: 0x000E [0x1C] WAIT(180* ticks)
  3: 0x0011 [0x59] UPDATE_ENTITY_DATA: Set Diordinne (ID: 17449498/0x010A421A) turn speed = 60*
  4: 0x0019 [0x4B] UPDATE_ENTITY_YAW(entity=Diordinne (ID: 17449498/0x010A421A), yaw=17.9°*)
  5: 0x0020 [0x7B] Diordinne (ID: 17449498/0x010A421A) stops talking
  6: 0x0025 [0x6F] WAIT_FRAME_DELAY: Yield until WaitTime reaches zero
  7: 0x0026 [0x76] CHECK_ENTITY_RENDER_FLAGS: Wait until Diordinne (ID: 17449498/0x010A421A) Render.Flags0 and Render.Flags3 conditions are met
  8: 0x002B [0x29] REQ_SET_WAIT(priority=0x10, entity_id=Diordinne (ID: 17449498/0x010A421A), tag_num=0x12)
  9: 0x0032 [0x59] UPDATE_ENTITY_DATA: Set Diordinne (ID: 17449498/0x010A421A) turn speed = 60*
 10: 0x003A [0x4B] UPDATE_ENTITY_YAW(entity=Diordinne (ID: 17449498/0x010A421A), yaw=0.0°*)
 11: 0x0041 [0x7B] Diordinne (ID: 17449498/0x010A421A) stops talking
 12: 0x0046 [0x6F] WAIT_FRAME_DELAY: Yield until WaitTime reaches zero
 13: 0x0047 [0x76] CHECK_ENTITY_RENDER_FLAGS: Wait until Diordinne (ID: 17449498/0x010A421A) Render.Flags0 and Render.Flags3 conditions are met
 14: 0x004C [0x29] REQ_SET_WAIT(priority=0x10, entity_id=Diordinne (ID: 17449498/0x010A421A), tag_num=0x13)
 15: 0x0053 [0x59] UPDATE_ENTITY_DATA: Set Diordinne (ID: 17449498/0x010A421A) turn speed = 60*
 16: 0x005B [0x4B] UPDATE_ENTITY_YAW(entity=Diordinne (ID: 17449498/0x010A421A), yaw=5.5°*)
 17: 0x0062 [0x7B] Diordinne (ID: 17449498/0x010A421A) stops talking
 18: 0x0067 [0x6F] WAIT_FRAME_DELAY: Yield until WaitTime reaches zero
 19: 0x0068 [0x76] CHECK_ENTITY_RENDER_FLAGS: Wait until Diordinne (ID: 17449498/0x010A421A) Render.Flags0 and Render.Flags3 conditions are met
 20: 0x006D [0x00] END_REQSTACK()
```

### Event 65535.2

#### Metadata

| Field        | Value    |
|--------------|----------|
| Entrypoint   | 0x006E   |
| Data Size    | 57 bytes |
| Instructions | 8        |

```
      00 01 02 03 04 05 06 07  08 09 0A 0B 0C 0D 0E 0F
      -- -- -- -- -- -- -- --  -- -- -- -- -- -- -- --
0060:                                            5B 06                [.
0070: 80 3C 42 0A 01 3C 42 0A  01 74 6C 73 31 53 3C 42  .<B..<B..tls1S<B
0080: 0A 01 3C 42 0A 01 74 6C  73 31 59 01 3C 42 0A 01  ..<B..tls1Y.<B..
0090: 02 80 4A 3C 42 0A 01 3F  42 0A 01 7B 3C 42 0A 01  ..J<B..?B..{<B..
00A0: 6F 76 3C 42 0A 01 00                              ov<B...         
```

#### Opcodes

```
  0: 0x006E [0x5B] LOAD_EXT_SCHEDULER: Load scheduler "tls1" with entities [Rahal (ID: 17449532/0x010A423C), Rahal (ID: 17449532/0x010A423C)], work=1272*
  1: 0x007D [0x53] WAIT_SCHEDULER_TASK: Wait for scheduler "tls1" with entities [Rahal (ID: 17449532/0x010A423C), Rahal (ID: 17449532/0x010A423C)]
  2: 0x008A [0x59] UPDATE_ENTITY_DATA: Set Rahal (ID: 17449532/0x010A423C) turn speed = 60*
  3: 0x0092 [0x4A] Rahal (ID: 17449532/0x010A423C) looks at Vailanice (ID: 17449535/0x010A423F)
  4: 0x009B [0x7B] Rahal (ID: 17449532/0x010A423C) stops talking
  5: 0x00A0 [0x6F] WAIT_FRAME_DELAY: Yield until WaitTime reaches zero
  6: 0x00A1 [0x76] CHECK_ENTITY_RENDER_FLAGS: Wait until Rahal (ID: 17449532/0x010A423C) Render.Flags0 and Render.Flags3 conditions are met
  7: 0x00A6 [0x00] END_REQSTACK()
```

### Event 65535.3

#### Metadata

| Field        | Value    |
|--------------|----------|
| Entrypoint   | 0x00A7   |
| Data Size    | 98 bytes |
| Instructions | 19       |

```
      00 01 02 03 04 05 06 07  08 09 0A 0B 0C 0D 0E 0F
      -- -- -- -- -- -- -- --  -- -- -- -- -- -- -- --
00A0:                      59  01 1A 42 0A 01 02 80 4B         Y..B....K
00B0: 1A 42 0A 01 07 80 7B 1A  42 0A 01 6F 76 1A 42 0A  .B....{.B..ov.B.
00C0: 01 29 10 1A 42 0A 01 14  59 01 1A 42 0A 01 02 80  .)..B...Y..B....
00D0: 4B 1A 42 0A 01 08 80 7B  1A 42 0A 01 6F 76 1A 42  K.B....{.B..ov.B
00E0: 0A 01 29 10 1A 42 0A 01  15 59 01 1A 42 0A 01 02  ..)..B...Y..B...
00F0: 80 4A 1A 42 0A 01 3C 42  0A 01 7B 1A 42 0A 01 6F  .J.B..<B..{.B..o
0100: 76 1A 42 0A 01 1C 09 80  00                       v.B......       
```

#### Opcodes

```
  0: 0x00A7 [0x59] UPDATE_ENTITY_DATA: Set Diordinne (ID: 17449498/0x010A421A) turn speed = 60*
  1: 0x00AF [0x4B] UPDATE_ENTITY_YAW(entity=Diordinne (ID: 17449498/0x010A421A), yaw=11.5°*)
  2: 0x00B6 [0x7B] Diordinne (ID: 17449498/0x010A421A) stops talking
  3: 0x00BB [0x6F] WAIT_FRAME_DELAY: Yield until WaitTime reaches zero
  4: 0x00BC [0x76] CHECK_ENTITY_RENDER_FLAGS: Wait until Diordinne (ID: 17449498/0x010A421A) Render.Flags0 and Render.Flags3 conditions are met
  5: 0x00C1 [0x29] REQ_SET_WAIT(priority=0x10, entity_id=Diordinne (ID: 17449498/0x010A421A), tag_num=0x14)
  6: 0x00C8 [0x59] UPDATE_ENTITY_DATA: Set Diordinne (ID: 17449498/0x010A421A) turn speed = 60*
  7: 0x00D0 [0x4B] UPDATE_ENTITY_YAW(entity=Diordinne (ID: 17449498/0x010A421A), yaw=5.8°*)
  8: 0x00D7 [0x7B] Diordinne (ID: 17449498/0x010A421A) stops talking
  9: 0x00DC [0x6F] WAIT_FRAME_DELAY: Yield until WaitTime reaches zero
 10: 0x00DD [0x76] CHECK_ENTITY_RENDER_FLAGS: Wait until Diordinne (ID: 17449498/0x010A421A) Render.Flags0 and Render.Flags3 conditions are met
 11: 0x00E2 [0x29] REQ_SET_WAIT(priority=0x10, entity_id=Diordinne (ID: 17449498/0x010A421A), tag_num=0x15)
 12: 0x00E9 [0x59] UPDATE_ENTITY_DATA: Set Diordinne (ID: 17449498/0x010A421A) turn speed = 60*
 13: 0x00F1 [0x4A] Diordinne (ID: 17449498/0x010A421A) looks at Rahal (ID: 17449532/0x010A423C)
 14: 0x00FA [0x7B] Diordinne (ID: 17449498/0x010A421A) stops talking
 15: 0x00FF [0x6F] WAIT_FRAME_DELAY: Yield until WaitTime reaches zero
 16: 0x0100 [0x76] CHECK_ENTITY_RENDER_FLAGS: Wait until Diordinne (ID: 17449498/0x010A421A) Render.Flags0 and Render.Flags3 conditions are met
 17: 0x0105 [0x1C] WAIT(20* ticks)
 18: 0x0108 [0x00] END_REQSTACK()
```

### Event 65535.4

#### Metadata

| Field        | Value    |
|--------------|----------|
| Entrypoint   | 0x0109   |
| Data Size    | 60 bytes |
| Instructions | 10       |

```
      00 01 02 03 04 05 06 07  08 09 0A 0B 0C 0D 0E 0F
      -- -- -- -- -- -- -- --  -- -- -- -- -- -- -- --
0100:                             59 01 40 42 0A 01 0A           Y.@B...
0110: 80 4B 40 42 0A 01 0B 80  7B 40 42 0A 01 6F 76 40  .K@B....{@B..ov@
0120: 42 0A 01 29 10 40 42 0A  01 08 29 10 40 42 0A 01  B..).@B...).@B..
0130: 09 7A 00 40 42 0A 01 BA  40 42 0A 01 0C 80 0D 80  .z.@B...@B......
0140: 0E 80 0F 80 00                                    .....           
```

#### Opcodes

```
  0: 0x0109 [0x59] UPDATE_ENTITY_DATA: Set Thianond (ID: 17449536/0x010A4240) turn speed = 70*
  1: 0x0111 [0x4B] UPDATE_ENTITY_YAW(entity=Thianond (ID: 17449536/0x010A4240), yaw=6.5°*)
  2: 0x0118 [0x7B] Thianond (ID: 17449536/0x010A4240) stops talking
  3: 0x011D [0x6F] WAIT_FRAME_DELAY: Yield until WaitTime reaches zero
  4: 0x011E [0x76] CHECK_ENTITY_RENDER_FLAGS: Wait until Thianond (ID: 17449536/0x010A4240) Render.Flags0 and Render.Flags3 conditions are met
  5: 0x0123 [0x29] REQ_SET_WAIT(priority=0x10, entity_id=Thianond (ID: 17449536/0x010A4240), tag_num=0x08)
  6: 0x012A [0x29] REQ_SET_WAIT(priority=0x10, entity_id=Thianond (ID: 17449536/0x010A4240), tag_num=0x09)
  7: 0x0131 [0x7A] VM_CONTROL: Reset VM for Thianond (ID: 17449536/0x010A4240)
  8: 0x0137 [0xBA] SET_ENTITY_POSITION(entity_id=Thianond (ID: 17449536/0x010A4240), pos_x=-75.679*, pos_z=180.962*, pos_y=-0.078*, direction=176.7°*)
  9: 0x0144 [0x00] END_REQSTACK()
```

### Event 65535.5

#### Metadata

| Field        | Value     |
|--------------|-----------|
| Entrypoint   | 0x0145    |
| Data Size    | 157 bytes |
| Instructions | 27        |

```
      00 01 02 03 04 05 06 07  08 09 0A 0B 0C 0D 0E 0F
      -- -- -- -- -- -- -- --  -- -- -- -- -- -- -- --
0140:                59 01 3E  42 0A 01 10 80 4A 3E 42       Y.>B....J>B
0150: 0A 01 40 42 0A 01 7B 3E  42 0A 01 1C 11 80 59 01  ..@B..{>B.....Y.
0160: 3C 42 0A 01 0A 80 4A 3C  42 0A 01 40 42 0A 01 7B  <B....J<B..@B..{
0170: 3C 42 0A 01 1C 12 80 59  01 3D 42 0A 01 0A 80 4A  <B.....Y.=B....J
0180: 3D 42 0A 01 40 42 0A 01  7B 3D 42 0A 01 6F 76 3E  =B..@B..{=B..ov>
0190: 42 0A 01 59 01 3E 42 0A  01 10 80 4A 3E 42 0A 01  B..Y.>B....J>B..
01A0: 40 42 0A 01 7B 3E 42 0A  01 6F 76 3C 42 0A 01 59  @B..{>B..ov<B..Y
01B0: 01 3C 42 0A 01 0A 80 4A  3C 42 0A 01 40 42 0A 01  .<B....J<B..@B..
01C0: 7B 3C 42 0A 01 6F 76 3D  42 0A 01 59 01 3D 42 0A  {<B..ov=B..Y.=B.
01D0: 01 0A 80 4A 3D 42 0A 01  40 42 0A 01 7B 3D 42 0A  ...J=B..@B..{=B.
01E0: 01 00                                             ..              
```

#### Opcodes

```
  0: 0x0145 [0x59] UPDATE_ENTITY_DATA: Set Machegue (ID: 17449534/0x010A423E) turn speed = 80*
  1: 0x014D [0x4A] Machegue (ID: 17449534/0x010A423E) looks at Thianond (ID: 17449536/0x010A4240)
  2: 0x0156 [0x7B] Machegue (ID: 17449534/0x010A423E) stops talking
  3: 0x015B [0x1C] WAIT(15* ticks)
  4: 0x015E [0x59] UPDATE_ENTITY_DATA: Set Rahal (ID: 17449532/0x010A423C) turn speed = 70*
  5: 0x0166 [0x4A] Rahal (ID: 17449532/0x010A423C) looks at Thianond (ID: 17449536/0x010A4240)
  6: 0x016F [0x7B] Rahal (ID: 17449532/0x010A423C) stops talking
  7: 0x0174 [0x1C] WAIT(10* ticks)
  8: 0x0177 [0x59] UPDATE_ENTITY_DATA: Set Cyranuce (ID: 17449533/0x010A423D) turn speed = 70*
  9: 0x017F [0x4A] Cyranuce (ID: 17449533/0x010A423D) looks at Thianond (ID: 17449536/0x010A4240)
 10: 0x0188 [0x7B] Cyranuce (ID: 17449533/0x010A423D) stops talking
 11: 0x018D [0x6F] WAIT_FRAME_DELAY: Yield until WaitTime reaches zero
 12: 0x018E [0x76] CHECK_ENTITY_RENDER_FLAGS: Wait until Machegue (ID: 17449534/0x010A423E) Render.Flags0 and Render.Flags3 conditions are met
 13: 0x0193 [0x59] UPDATE_ENTITY_DATA: Set Machegue (ID: 17449534/0x010A423E) turn speed = 80*
 14: 0x019B [0x4A] Machegue (ID: 17449534/0x010A423E) looks at Thianond (ID: 17449536/0x010A4240)
 15: 0x01A4 [0x7B] Machegue (ID: 17449534/0x010A423E) stops talking
 16: 0x01A9 [0x6F] WAIT_FRAME_DELAY: Yield until WaitTime reaches zero
 17: 0x01AA [0x76] CHECK_ENTITY_RENDER_FLAGS: Wait until Rahal (ID: 17449532/0x010A423C) Render.Flags0 and Render.Flags3 conditions are met
 18: 0x01AF [0x59] UPDATE_ENTITY_DATA: Set Rahal (ID: 17449532/0x010A423C) turn speed = 70*
 19: 0x01B7 [0x4A] Rahal (ID: 17449532/0x010A423C) looks at Thianond (ID: 17449536/0x010A4240)
 20: 0x01C0 [0x7B] Rahal (ID: 17449532/0x010A423C) stops talking
 21: 0x01C5 [0x6F] WAIT_FRAME_DELAY: Yield until WaitTime reaches zero
 22: 0x01C6 [0x76] CHECK_ENTITY_RENDER_FLAGS: Wait until Cyranuce (ID: 17449533/0x010A423D) Render.Flags0 and Render.Flags3 conditions are met
 23: 0x01CB [0x59] UPDATE_ENTITY_DATA: Set Cyranuce (ID: 17449533/0x010A423D) turn speed = 70*
 24: 0x01D3 [0x4A] Cyranuce (ID: 17449533/0x010A423D) looks at Thianond (ID: 17449536/0x010A4240)
 25: 0x01DC [0x7B] Cyranuce (ID: 17449533/0x010A423D) stops talking
 26: 0x01E1 [0x00] END_REQSTACK()
```
