# 17449532 - Rahal

## Common Data

| Field            | Value                          |
|------------------|--------------------------------|
| Zone             | Garlaige Citadel [S] (ID: 164) |
| Block Size       | 560 bytes                      |
| Total Events     | 19                             |
| References Count | 32                             |

## List of Events

| Event ID                   | Entrypoint   |   Size |   Instructions |
|----------------------------|--------------|--------|----------------|
| [65535](#event-65535)      | 0x0000       |      1 |              1 |
| [31](#event-31)            | 0x0001       |      1 |              1 |
| [32](#event-32)            | 0x0002       |      1 |              1 |
| [33](#event-33)            | 0x0003       |      1 |              1 |
| [65535.1](#event-655351)   | 0x0004       |     35 |              9 |
| [65535.2](#event-655352)   | 0x0027       |     35 |              9 |
| [65535.3](#event-655353)   | 0x004A       |     10 |              2 |
| [65535.4](#event-655354)   | 0x0054       |     10 |              2 |
| [65535.5](#event-655355)   | 0x005E       |      3 |              2 |
| [65535.6](#event-655356)   | 0x0061       |      3 |              2 |
| [65535.7](#event-655357)   | 0x0064       |     26 |              8 |
| [65535.8](#event-655358)   | 0x007E       |     19 |              4 |
| [65535.9](#event-655359)   | 0x0091       |     19 |              4 |
| [65535.10](#event-6553510) | 0x00A4       |     19 |              4 |
| [65535.11](#event-6553511) | 0x00B7       |     19 |              4 |
| [65535.12](#event-6553512) | 0x00CA       |     80 |             11 |
| [65535.13](#event-6553513) | 0x011A       |     19 |              4 |
| [65535.14](#event-6553514) | 0x012D       |     19 |              4 |
| [65535.15](#event-6553515) | 0x0140       |     19 |              4 |

## DAT References (imed_data)

|   Index | Hex Value   |   Dec Value |
|---------|-------------|-------------|
|       0 | 0x0028      |          40 |
|       1 | 0x000D      |          13 |
|       2 | 0x0000      |           0 |
|       3 | 0x0001      |           1 |
|       4 | 0x0080      |         128 |
|       5 | 0xFFFF7F62  |  4294934370 |
|       6 | 0xFFFBE584  |  4294698372 |
|       7 | 0xFFFFFE7C  |  4294966908 |
|       8 | 0xFFFF2FF0  |  4294914032 |
|       9 | 0xFFFBA4FF  |  4294681855 |
|      10 | 0xFFFFFC4A  |  4294966346 |
|      11 | 0xFFFEACF7  |  4294880503 |
|      12 | 0x2BF4A     |      180042 |
|      13 | 0xFFFFFFB2  |  4294967218 |
|      14 | 0xFFFE7A38  |  4294867512 |
|      15 | 0xFFFE4F22  |  4294856482 |
|      16 | 0x2E6B0     |      190128 |
|      17 | 0x0025      |          37 |
|      18 | 0xFFFE53A3  |  4294857635 |
|      19 | 0x2C1F9     |      180729 |
|      20 | 0x092D      |        2349 |
|      21 | 0x00A0      |         160 |
|      22 | 0x0050      |          80 |
|      23 | 0x04F8      |        1272 |
|      24 | 0x006C      |         108 |
|      25 | 0xFFFE5C4A  |  4294859850 |
|      26 | 0x2C340     |      181056 |
|      27 | 0xFFFE5442  |  4294857794 |
|      28 | 0x2EBC3     |      191427 |
|      29 | 0x0026      |          38 |
|      30 | 0xFFFE5584  |  4294858116 |
|      31 | 0x2E06C     |      188524 |

## Events

### Event 65535

#### Metadata

| Field        | Value   |
|--------------|---------|
| Entrypoint   | 0x0000  |
| Data Size    | 1 bytes |
| Instructions | 1       |

```
      00 01 02 03 04 05 06 07  08 09 0A 0B 0C 0D 0E 0F
      -- -- -- -- -- -- -- --  -- -- -- -- -- -- -- --
0000: 00                                                .               
```

#### Opcodes

```
  0: 0x0000 [0x00] END_REQSTACK()
```

### Event 31

#### Metadata

| Field        | Value   |
|--------------|---------|
| Entrypoint   | 0x0001  |
| Data Size    | 1 bytes |
| Instructions | 1       |

```
      00 01 02 03 04 05 06 07  08 09 0A 0B 0C 0D 0E 0F
      -- -- -- -- -- -- -- --  -- -- -- -- -- -- -- --
0000:    00                                              .              
```

#### Opcodes

```
  0: 0x0001 [0x00] END_REQSTACK()
```

### Event 32

#### Metadata

| Field        | Value   |
|--------------|---------|
| Entrypoint   | 0x0002  |
| Data Size    | 1 bytes |
| Instructions | 1       |

```
      00 01 02 03 04 05 06 07  08 09 0A 0B 0C 0D 0E 0F
      -- -- -- -- -- -- -- --  -- -- -- -- -- -- -- --
0000:       00                                            .             
```

#### Opcodes

```
  0: 0x0002 [0x00] END_REQSTACK()
```

### Event 33

#### Metadata

| Field        | Value   |
|--------------|---------|
| Entrypoint   | 0x0003  |
| Data Size    | 1 bytes |
| Instructions | 1       |

```
      00 01 02 03 04 05 06 07  08 09 0A 0B 0C 0D 0E 0F
      -- -- -- -- -- -- -- --  -- -- -- -- -- -- -- --
0000:          00                                          .            
```

#### Opcodes

```
  0: 0x0003 [0x00] END_REQSTACK()
```

### Event 65535.1

#### Metadata

| Field        | Value    |
|--------------|----------|
| Entrypoint   | 0x0004   |
| Data Size    | 35 bytes |
| Instructions | 9        |

```
      00 01 02 03 04 05 06 07  08 09 0A 0B 0C 0D 0E 0F
      -- -- -- -- -- -- -- --  -- -- -- -- -- -- -- --
0000:             03 00 00 25  10 03 02 00 27 10 03 01      ...%....'...
0010: 00 26 10 03 03 00 28 10  32 00 80 1F 00 00 00 02  .&....(.2.......
0020: 00 01 00 1F 01 6F 00                              .....o.         
```

#### Opcodes

```
  0: 0x0004 [0x03] ExtData[1]->WorkLocal[0] = Work_Zone[37]
  1: 0x0009 [0x03] ExtData[1]->WorkLocal[2] = Work_Zone[39]
  2: 0x000E [0x03] ExtData[1]->WorkLocal[1] = Work_Zone[38]
  3: 0x0013 [0x03] ExtData[1]->WorkLocal[3] = Work_Zone[40]
  4: 0x0018 [0x32] ExtData[1]->MainSpeed = 40* * 0.1
  5: 0x001B [0x1F] MOVE_ENTITY: EventEntity moves to X=ExtData[1]->WorkLocal[0], Z=ExtData[1]->WorkLocal[2], Y=ExtData[1]->WorkLocal[1]
  6: 0x0023 [0x1F] MOVE_ENTITY: Update entity position (mode=1)
  7: 0x0025 [0x6F] WAIT_FRAME_DELAY: Yield until WaitTime reaches zero
  8: 0x0026 [0x00] END_REQSTACK()
```

### Event 65535.2

#### Metadata

| Field        | Value    |
|--------------|----------|
| Entrypoint   | 0x0027   |
| Data Size    | 35 bytes |
| Instructions | 9        |

```
      00 01 02 03 04 05 06 07  08 09 0A 0B 0C 0D 0E 0F
      -- -- -- -- -- -- -- --  -- -- -- -- -- -- -- --
0020:                      03  00 00 25 10 03 02 00 27         ...%....'
0030: 10 03 01 00 26 10 03 03  00 28 10 32 01 80 1F 00  ....&....(.2....
0040: 00 00 02 00 01 00 1F 01  6F 00                    ........o.      
```

#### Opcodes

```
  0: 0x0027 [0x03] ExtData[1]->WorkLocal[0] = Work_Zone[37]
  1: 0x002C [0x03] ExtData[1]->WorkLocal[2] = Work_Zone[39]
  2: 0x0031 [0x03] ExtData[1]->WorkLocal[1] = Work_Zone[38]
  3: 0x0036 [0x03] ExtData[1]->WorkLocal[3] = Work_Zone[40]
  4: 0x003B [0x32] ExtData[1]->MainSpeed = 13* * 0.1
  5: 0x003E [0x1F] MOVE_ENTITY: EventEntity moves to X=ExtData[1]->WorkLocal[0], Z=ExtData[1]->WorkLocal[2], Y=ExtData[1]->WorkLocal[1]
  6: 0x0046 [0x1F] MOVE_ENTITY: Update entity position (mode=1)
  7: 0x0048 [0x6F] WAIT_FRAME_DELAY: Yield until WaitTime reaches zero
  8: 0x0049 [0x00] END_REQSTACK()
```

### Event 65535.3

#### Metadata

| Field        | Value    |
|--------------|----------|
| Entrypoint   | 0x004A   |
| Data Size    | 10 bytes |
| Instructions | 2        |

```
      00 01 02 03 04 05 06 07  08 09 0A 0B 0C 0D 0E 0F
      -- -- -- -- -- -- -- --  -- -- -- -- -- -- -- --
0040:                                6C F8 FF FF 7F 02            l.....
0050: 80 03 80 00                                       ....            
```

#### Opcodes

```
  0: 0x004A [0x6C] FADE_ENTITY_COLOR(entity_id=EventEntity, end_alpha=0*, fade_time=1*)
  1: 0x0053 [0x00] END_REQSTACK()
```

### Event 65535.4

#### Metadata

| Field        | Value    |
|--------------|----------|
| Entrypoint   | 0x0054   |
| Data Size    | 10 bytes |
| Instructions | 2        |

```
      00 01 02 03 04 05 06 07  08 09 0A 0B 0C 0D 0E 0F
      -- -- -- -- -- -- -- --  -- -- -- -- -- -- -- --
0050:             6C F8 FF FF  7F 04 80 03 80 00            l.........  
```

#### Opcodes

```
  0: 0x0054 [0x6C] FADE_ENTITY_COLOR(entity_id=EventEntity, end_alpha=128*, fade_time=1*)
  1: 0x005D [0x00] END_REQSTACK()
```

### Event 65535.5

#### Metadata

| Field        | Value   |
|--------------|---------|
| Entrypoint   | 0x005E  |
| Data Size    | 3 bytes |
| Instructions | 2       |

```
      00 01 02 03 04 05 06 07  08 09 0A 0B 0C 0D 0E 0F
      -- -- -- -- -- -- -- --  -- -- -- -- -- -- -- --
0050:                                            33 01                3.
0060: 00                                                .               
```

#### Opcodes

```
  0: 0x005E [0x33] EventEntity->Render.Flags0 |= 0x200000 // Bit 21 (flag=0x01)
  1: 0x0060 [0x00] END_REQSTACK()
```

### Event 65535.6

#### Metadata

| Field        | Value   |
|--------------|---------|
| Entrypoint   | 0x0061  |
| Data Size    | 3 bytes |
| Instructions | 2       |

```
      00 01 02 03 04 05 06 07  08 09 0A 0B 0C 0D 0E 0F
      -- -- -- -- -- -- -- --  -- -- -- -- -- -- -- --
0060:    33 00 00                                        3..            
```

#### Opcodes

```
  0: 0x0061 [0x33] EventEntity->Render.Flags0 &= ~ 0x200000 // Bit 21 (flag=0x00)
  1: 0x0063 [0x00] END_REQSTACK()
```

### Event 65535.7

#### Metadata

| Field        | Value    |
|--------------|----------|
| Entrypoint   | 0x0064   |
| Data Size    | 26 bytes |
| Instructions | 8        |

```
      00 01 02 03 04 05 06 07  08 09 0A 0B 0C 0D 0E 0F
      -- -- -- -- -- -- -- --  -- -- -- -- -- -- -- --
0060:             32 00 80 1F  00 05 80 06 80 07 80 1F      2...........
0070: 01 6F 1F 00 08 80 09 80  0A 80 1F 01 6F 00        .o..........o.  
```

#### Opcodes

```
  0: 0x0064 [0x32] ExtData[1]->MainSpeed = 40* * 0.1
  1: 0x0067 [0x1F] MOVE_ENTITY: EventEntity moves to X=-32.926*, Z=-268.924*, Y=-0.388*
  2: 0x006F [0x1F] MOVE_ENTITY: Update entity position (mode=1)
  3: 0x0071 [0x6F] WAIT_FRAME_DELAY: Yield until WaitTime reaches zero
  4: 0x0072 [0x1F] MOVE_ENTITY: EventEntity moves to X=-53.264*, Z=-285.441*, Y=-0.950*
  5: 0x007A [0x1F] MOVE_ENTITY: Update entity position (mode=1)
  6: 0x007C [0x6F] WAIT_FRAME_DELAY: Yield until WaitTime reaches zero
  7: 0x007D [0x00] END_REQSTACK()
```

### Event 65535.8

#### Metadata

| Field        | Value    |
|--------------|----------|
| Entrypoint   | 0x007E   |
| Data Size    | 19 bytes |
| Instructions | 4        |

```
      00 01 02 03 04 05 06 07  08 09 0A 0B 0C 0D 0E 0F
      -- -- -- -- -- -- -- --  -- -- -- -- -- -- -- --
0070:                                            59 04                Y.
0080: 3C 42 0A 01 00 80 1F 00  0B 80 0C 80 0D 80 1F 01  <B..............
0090: 00                                                .               
```

#### Opcodes

```
  0: 0x007E [0x59] UPDATE_ENTITY_DATA: Set Rahal (ID: 17449532/0x010A423C) main speed = 40* * 0.1
  1: 0x0086 [0x1F] MOVE_ENTITY: EventEntity moves to X=-86.793*, Z=180.042*, Y=-0.078*
  2: 0x008E [0x1F] MOVE_ENTITY: Update entity position (mode=1)
  3: 0x0090 [0x00] END_REQSTACK()
```

### Event 65535.9

#### Metadata

| Field        | Value    |
|--------------|----------|
| Entrypoint   | 0x0091   |
| Data Size    | 19 bytes |
| Instructions | 4        |

```
      00 01 02 03 04 05 06 07  08 09 0A 0B 0C 0D 0E 0F
      -- -- -- -- -- -- -- --  -- -- -- -- -- -- -- --
0090:    59 04 3C 42 0A 01 00  80 1F 00 0E 80 0C 80 0D   Y.<B...........
00A0: 80 1F 01 00                                       ....            
```

#### Opcodes

```
  0: 0x0091 [0x59] UPDATE_ENTITY_DATA: Set Rahal (ID: 17449532/0x010A423C) main speed = 40* * 0.1
  1: 0x0099 [0x1F] MOVE_ENTITY: EventEntity moves to X=-99.784*, Z=180.042*, Y=-0.078*
  2: 0x00A1 [0x1F] MOVE_ENTITY: Update entity position (mode=1)
  3: 0x00A3 [0x00] END_REQSTACK()
```

### Event 65535.10

#### Metadata

| Field        | Value    |
|--------------|----------|
| Entrypoint   | 0x00A4   |
| Data Size    | 19 bytes |
| Instructions | 4        |

```
      00 01 02 03 04 05 06 07  08 09 0A 0B 0C 0D 0E 0F
      -- -- -- -- -- -- -- --  -- -- -- -- -- -- -- --
00A0:             59 04 3C 42  0A 01 00 80 1F 00 0F 80      Y.<B........
00B0: 10 80 02 80 1F 01 00                              .......         
```

#### Opcodes

```
  0: 0x00A4 [0x59] UPDATE_ENTITY_DATA: Set Rahal (ID: 17449532/0x010A423C) main speed = 40* * 0.1
  1: 0x00AC [0x1F] MOVE_ENTITY: EventEntity moves to X=-110.814*, Z=190.128*, Y=0.000*
  2: 0x00B4 [0x1F] MOVE_ENTITY: Update entity position (mode=1)
  3: 0x00B6 [0x00] END_REQSTACK()
```

### Event 65535.11

#### Metadata

| Field        | Value    |
|--------------|----------|
| Entrypoint   | 0x00B7   |
| Data Size    | 19 bytes |
| Instructions | 4        |

```
      00 01 02 03 04 05 06 07  08 09 0A 0B 0C 0D 0E 0F
      -- -- -- -- -- -- -- --  -- -- -- -- -- -- -- --
00B0:                      59  04 3C 42 0A 01 11 80 1F         Y.<B.....
00C0: 00 12 80 13 80 0D 80 1F  01 00                    ..........      
```

#### Opcodes

```
  0: 0x00B7 [0x59] UPDATE_ENTITY_DATA: Set Rahal (ID: 17449532/0x010A423C) main speed = 37* * 0.1
  1: 0x00BF [0x1F] MOVE_ENTITY: EventEntity moves to X=-109.661*, Z=180.729*, Y=-0.078*
  2: 0x00C7 [0x1F] MOVE_ENTITY: Update entity position (mode=1)
  3: 0x00C9 [0x00] END_REQSTACK()
```

### Event 65535.12

#### Metadata

| Field        | Value    |
|--------------|----------|
| Entrypoint   | 0x00CA   |
| Data Size    | 80 bytes |
| Instructions | 11       |

```
      00 01 02 03 04 05 06 07  08 09 0A 0B 0C 0D 0E 0F
      -- -- -- -- -- -- -- --  -- -- -- -- -- -- -- --
00C0:                                5B 14 80 3C 42 0A            [..<B.
00D0: 01 3C 42 0A 01 79 65 73  30 1C 15 80 59 01 3C 42  .<B..yes0...Y.<B
00E0: 0A 01 16 80 4A 3C 42 0A  01 F0 FF FF 7F 7B 3C 42  ....J<B......{<B
00F0: 0A 01 6F 76 3C 42 0A 01  5B 17 80 3C 42 0A 01 3C  ..ov<B..[..<B..<
0100: 42 0A 01 74 6C 61 30 1C  18 80 5B 17 80 3C 42 0A  B..tla0...[..<B.
0110: 01 3C 42 0A 01 74 6C 61  31 00                    .<B..tla1.      
```

#### Opcodes

```
  0: 0x00CA [0x5B] LOAD_EXT_SCHEDULER: Load scheduler "yes0" with entities [Rahal (ID: 17449532/0x010A423C), Rahal (ID: 17449532/0x010A423C)], work=2349*
  1: 0x00D9 [0x1C] WAIT(160* ticks)
  2: 0x00DC [0x59] UPDATE_ENTITY_DATA: Set Rahal (ID: 17449532/0x010A423C) turn speed = 80*
  3: 0x00E4 [0x4A] Rahal (ID: 17449532/0x010A423C) looks at LocalPlayer
  4: 0x00ED [0x7B] Rahal (ID: 17449532/0x010A423C) stops talking
  5: 0x00F2 [0x6F] WAIT_FRAME_DELAY: Yield until WaitTime reaches zero
  6: 0x00F3 [0x76] CHECK_ENTITY_RENDER_FLAGS: Wait until Rahal (ID: 17449532/0x010A423C) Render.Flags0 and Render.Flags3 conditions are met
  7: 0x00F8 [0x5B] LOAD_EXT_SCHEDULER: Load scheduler "tla0" with entities [Rahal (ID: 17449532/0x010A423C), Rahal (ID: 17449532/0x010A423C)], work=1272*
  8: 0x0107 [0x1C] WAIT(108* ticks)
  9: 0x010A [0x5B] LOAD_EXT_SCHEDULER: Load scheduler "tla1" with entities [Rahal (ID: 17449532/0x010A423C), Rahal (ID: 17449532/0x010A423C)], work=1272*
 10: 0x0119 [0x00] END_REQSTACK()
```

### Event 65535.13

#### Metadata

| Field        | Value    |
|--------------|----------|
| Entrypoint   | 0x011A   |
| Data Size    | 19 bytes |
| Instructions | 4        |

```
      00 01 02 03 04 05 06 07  08 09 0A 0B 0C 0D 0E 0F
      -- -- -- -- -- -- -- --  -- -- -- -- -- -- -- --
0110:                                59 04 3C 42 0A 01            Y.<B..
0120: 00 80 1F 00 19 80 1A 80  0D 80 1F 01 00           .............   
```

#### Opcodes

```
  0: 0x011A [0x59] UPDATE_ENTITY_DATA: Set Rahal (ID: 17449532/0x010A423C) main speed = 40* * 0.1
  1: 0x0122 [0x1F] MOVE_ENTITY: EventEntity moves to X=-107.446*, Z=181.056*, Y=-0.078*
  2: 0x012A [0x1F] MOVE_ENTITY: Update entity position (mode=1)
  3: 0x012C [0x00] END_REQSTACK()
```

### Event 65535.14

#### Metadata

| Field        | Value    |
|--------------|----------|
| Entrypoint   | 0x012D   |
| Data Size    | 19 bytes |
| Instructions | 4        |

```
      00 01 02 03 04 05 06 07  08 09 0A 0B 0C 0D 0E 0F
      -- -- -- -- -- -- -- --  -- -- -- -- -- -- -- --
0120:                                         59 04 3C               Y.<
0130: 42 0A 01 00 80 1F 00 1B  80 1C 80 02 80 1F 01 00  B...............
```

#### Opcodes

```
  0: 0x012D [0x59] UPDATE_ENTITY_DATA: Set Rahal (ID: 17449532/0x010A423C) main speed = 40* * 0.1
  1: 0x0135 [0x1F] MOVE_ENTITY: EventEntity moves to X=-109.502*, Z=191.427*, Y=0.000*
  2: 0x013D [0x1F] MOVE_ENTITY: Update entity position (mode=1)
  3: 0x013F [0x00] END_REQSTACK()
```

### Event 65535.15

#### Metadata

| Field        | Value    |
|--------------|----------|
| Entrypoint   | 0x0140   |
| Data Size    | 19 bytes |
| Instructions | 4        |

```
      00 01 02 03 04 05 06 07  08 09 0A 0B 0C 0D 0E 0F
      -- -- -- -- -- -- -- --  -- -- -- -- -- -- -- --
0140: 59 04 3C 42 0A 01 1D 80  1F 00 1E 80 1F 80 02 80  Y.<B............
0150: 1F 01 00                                          ...             
```

#### Opcodes

```
  0: 0x0140 [0x59] UPDATE_ENTITY_DATA: Set Rahal (ID: 17449532/0x010A423C) main speed = 38* * 0.1
  1: 0x0148 [0x1F] MOVE_ENTITY: EventEntity moves to X=-109.180*, Z=188.524*, Y=0.000*
  2: 0x0150 [0x1F] MOVE_ENTITY: Update entity position (mode=1)
  3: 0x0152 [0x00] END_REQSTACK()
```
