# 17449498 - Diordinne

## Common Data

| Field            | Value                          |
|------------------|--------------------------------|
| Zone             | Garlaige Citadel [S] (ID: 164) |
| Block Size       | 888 bytes                      |
| Total Events     | 26                             |
| References Count | 39                             |

## List of Events

| Event ID                   | Entrypoint   |   Size |   Instructions |
|----------------------------|--------------|--------|----------------|
| [65535](#event-65535)      | 0x0000       |      1 |              1 |
| [14](#event-14)            | 0x0001       |     21 |              7 |
| [34](#event-34)            | 0x0016       |     56 |             10 |
| [35](#event-35)            | 0x004E       |     56 |             10 |
| [36](#event-36)            | 0x0086       |     56 |             10 |
| [37](#event-37)            | 0x00BE       |     55 |              9 |
| [38](#event-38)            | 0x00F5       |      6 |              4 |
| [31](#event-31)            | 0x00FB       |      1 |              1 |
| [32](#event-32)            | 0x00FC       |      1 |              1 |
| [33](#event-33)            | 0x00FD       |      1 |              1 |
| [65535.1](#event-655351)   | 0x00FE       |     35 |              9 |
| [65535.2](#event-655352)   | 0x0121       |     35 |              9 |
| [65535.3](#event-655353)   | 0x0144       |     21 |              2 |
| [65535.4](#event-655354)   | 0x0159       |     21 |              2 |
| [65535.5](#event-655355)   | 0x016E       |     13 |              3 |
| [65535.6](#event-655356)   | 0x017B       |     13 |              3 |
| [65535.7](#event-655357)   | 0x0188       |     15 |              5 |
| [65535.8](#event-655358)   | 0x0197       |     50 |             10 |
| [65535.9](#event-655359)   | 0x01C9       |     19 |              4 |
| [65535.10](#event-6553510) | 0x01DC       |     19 |              4 |
| [65535.11](#event-6553511) | 0x01EF       |     19 |              4 |
| [65535.12](#event-6553512) | 0x0202       |     19 |              4 |
| [65535.13](#event-6553513) | 0x0215       |     19 |              4 |
| [65535.14](#event-6553514) | 0x0228       |     19 |              4 |
| [65535.15](#event-6553515) | 0x023B       |     19 |              4 |
| [65535.16](#event-6553516) | 0x024E       |     19 |              4 |

## DAT References (imed_data)

|   Index | Hex Value   |   Dec Value |
|---------|-------------|-------------|
|       0 | 0x1E05      |        7685 |
|       1 | 0x001D      |          29 |
|       2 | 0x1E69      |        7785 |
|       3 | 0x1E6B      |        7787 |
|       4 | 0x1E6C      |        7788 |
|       5 | 0x1E68      |        7784 |
|       6 | 0x1EE5      |        7909 |
|       7 | 0x0028      |          40 |
|       8 | 0x000D      |          13 |
|       9 | 0x0003      |           3 |
|      10 | 0x0009      |           9 |
|      11 | 0x000C      |          12 |
|      12 | 0x00FB      |         251 |
|      13 | 0x001B      |          27 |
|      14 | 0x0038      |          56 |
|      15 | 0x010E      |         270 |
|      16 | 0x002B      |          43 |
|      17 | 0x0002      |           2 |
|      18 | 0xFFFFF3D5  |  4294964181 |
|      19 | 0xFFFBA96F  |  4294682991 |
|      20 | 0x00B9      |         185 |
|      21 | 0x0516      |        1302 |
|      22 | 0x000E      |          14 |
|      23 | 0xFFFE5B8B  |  4294859659 |
|      24 | 0x300C9     |      196809 |
|      25 | 0x0000      |           0 |
|      26 | 0xFFFE618C  |  4294861196 |
|      27 | 0xFFFE5AF7  |  4294859511 |
|      28 | 0x2F481     |      193665 |
|      29 | 0xFFFE56A6  |  4294858406 |
|      30 | 0x2EE57     |      192087 |
|      31 | 0x0026      |          38 |
|      32 | 0xFFFE520F  |  4294857231 |
|      33 | 0x2C32F     |      181039 |
|      34 | 0xFFFFFFB2  |  4294967218 |
|      35 | 0xFFFE71EF  |  4294865391 |
|      36 | 0x2BF4A     |      180042 |
|      37 | 0xFFFE5A75  |  4294859381 |
|      38 | 0x2F0FB     |      192763 |

## String References

- **7685**: After careful deliberation, our military strategists have discerned that the Beastman Confederate's main target is Jeuno. Not that any of us think they will be undertaking any form of structured offensive...
- **7909**: San d'Oria Nation Quest 6: Follow B.

## Events

### Event 65535

#### Metadata

| Field        | Value   |
|--------------|---------|
| Entrypoint   | 0x0000  |
| Data Size    | 1 bytes |
| Instructions | 1       |

```
      00 01 02 03 04 05 06 07  08 09 0A 0B 0C 0D 0E 0F
      -- -- -- -- -- -- -- --  -- -- -- -- -- -- -- --
0000: 00                                                .               
```

#### Opcodes

```
  0: 0x0000 [0x00] END_REQSTACK()
```

### Event 14

#### Metadata

| Field        | Value    |
|--------------|----------|
| Entrypoint   | 0x0001   |
| Data Size    | 21 bytes |
| Instructions | 7        |

```
      00 01 02 03 04 05 06 07  08 09 0A 0B 0C 0D 0E 0F
      -- -- -- -- -- -- -- --  -- -- -- -- -- -- -- --
0000:    4A F8 FF FF 7F F0 FF  FF 7F 6F 76 F8 FF FF 7F   J........ov....
0010: 1D 00 80 23 21 00                                 ...#!.          
```

#### Opcodes

```
  0: 0x0001 [0x4A] EventEntity looks at LocalPlayer
  1: 0x000A [0x6F] WAIT_FRAME_DELAY: Yield until WaitTime reaches zero
  2: 0x000B [0x76] CHECK_ENTITY_RENDER_FLAGS: Wait until EventEntity Render.Flags0 and Render.Flags3 conditions are met
  3: 0x0010 [0x1D] PRINT_EVENT_MESSAGE(message_id=7685*)
    → "After careful deliberation, our military strategists have discerned that the Beastman Confederate's main target is Jeuno. Not that any of us think they will be undertaking any form of structured offensive..."
  4: 0x0013 [0x23] WAIT_FOR_DIALOG_INTERACTION
  5: 0x0014 [0x21] END_EVENT
  6: 0x0015 [0x00] END_REQSTACK()
```

### Event 34

#### Metadata

| Field        | Value    |
|--------------|----------|
| Entrypoint   | 0x0016   |
| Data Size    | 56 bytes |
| Instructions | 10       |

```
      00 01 02 03 04 05 06 07  08 09 0A 0B 0C 0D 0E 0F
      -- -- -- -- -- -- -- --  -- -- -- -- -- -- -- --
0010:                   42 4A  1A 42 0A 01 F0 FF FF 7F        BJ.B......
0020: 6F 76 1A 42 0A 01 66 01  80 F8 FF FF 7F F8 FF FF  ov.B..f.........
0030: 7F 74 6C 6B 30 2B 1A 42  0A 01 02 80 23 66 01 80  .tlk0+.B....#f..
0040: F8 FF FF 7F F8 FF FF 7F  74 6C 6B 31 21 00        ........tlk1!.  
```

#### Opcodes

```
  0: 0x0016 [0x42] SET_CLI_EVENT_CANCEL_DATA()
  1: 0x0017 [0x4A] Diordinne (ID: 17449498/0x010A421A) looks at LocalPlayer
  2: 0x0020 [0x6F] WAIT_FRAME_DELAY: Yield until WaitTime reaches zero
  3: 0x0021 [0x76] CHECK_ENTITY_RENDER_FLAGS: Wait until Diordinne (ID: 17449498/0x010A421A) Render.Flags0 and Render.Flags3 conditions are met
  4: 0x0026 [0x66] LOAD_EXT_SCHEDULER_MAIN: Load scheduler "tlk0" with entities [EventEntity, EventEntity], work=29*
  5: 0x0035 [0x2B] Diordinne (ID: 17449498/0x010A421A) [7785*]:
    → "Other units should be in possession of a spare key. I will have one brought here presently, so come and collect it from me in a short while."
  6: 0x003C [0x23] WAIT_FOR_DIALOG_INTERACTION
  7: 0x003D [0x66] LOAD_EXT_SCHEDULER_MAIN: Load scheduler "tlk1" with entities [EventEntity, EventEntity], work=29*
  8: 0x004C [0x21] END_EVENT
  9: 0x004D [0x00] END_REQSTACK()
```

### Event 35

#### Metadata

| Field        | Value    |
|--------------|----------|
| Entrypoint   | 0x004E   |
| Data Size    | 56 bytes |
| Instructions | 10       |

```
      00 01 02 03 04 05 06 07  08 09 0A 0B 0C 0D 0E 0F
      -- -- -- -- -- -- -- --  -- -- -- -- -- -- -- --
0040:                                            42 4A                BJ
0050: 1A 42 0A 01 F0 FF FF 7F  6F 76 1A 42 0A 01 66 01  .B......ov.B..f.
0060: 80 F8 FF FF 7F F8 FF FF  7F 74 6C 6B 30 2B 1A 42  .........tlk0+.B
0070: 0A 01 03 80 23 66 01 80  F8 FF FF 7F F8 FF FF 7F  ....#f..........
0080: 74 6C 6B 31 21 00                                 tlk1!.          
```

#### Opcodes

```
  0: 0x004E [0x42] SET_CLI_EVENT_CANCEL_DATA()
  1: 0x004F [0x4A] Diordinne (ID: 17449498/0x010A421A) looks at LocalPlayer
  2: 0x0058 [0x6F] WAIT_FRAME_DELAY: Yield until WaitTime reaches zero
  3: 0x0059 [0x76] CHECK_ENTITY_RENDER_FLAGS: Wait until Diordinne (ID: 17449498/0x010A421A) Render.Flags0 and Render.Flags3 conditions are met
  4: 0x005E [0x66] LOAD_EXT_SCHEDULER_MAIN: Load scheduler "tlk0" with entities [EventEntity, EventEntity], work=29*
  5: 0x006D [0x2B] Diordinne (ID: 17449498/0x010A421A) [7787*]:
    → "The spare key, you say? The intruders have cut off many of the passageways within the citadel, so it will take some time yet. Have patience."
  6: 0x0074 [0x23] WAIT_FOR_DIALOG_INTERACTION
  7: 0x0075 [0x66] LOAD_EXT_SCHEDULER_MAIN: Load scheduler "tlk1" with entities [EventEntity, EventEntity], work=29*
  8: 0x0084 [0x21] END_EVENT
  9: 0x0085 [0x00] END_REQSTACK()
```

### Event 36

#### Metadata

| Field        | Value    |
|--------------|----------|
| Entrypoint   | 0x0086   |
| Data Size    | 56 bytes |
| Instructions | 10       |

```
      00 01 02 03 04 05 06 07  08 09 0A 0B 0C 0D 0E 0F
      -- -- -- -- -- -- -- --  -- -- -- -- -- -- -- --
0080:                   42 4A  1A 42 0A 01 F0 FF FF 7F        BJ.B......
0090: 6F 76 1A 42 0A 01 66 01  80 F8 FF FF 7F F8 FF FF  ov.B..f.........
00A0: 7F 74 6C 6B 30 2B 1A 42  0A 01 04 80 23 66 01 80  .tlk0+.B....#f..
00B0: F8 FF FF 7F F8 FF FF 7F  74 6C 6B 31 21 00        ........tlk1!.  
```

#### Opcodes

```
  0: 0x0086 [0x42] SET_CLI_EVENT_CANCEL_DATA()
  1: 0x0087 [0x4A] Diordinne (ID: 17449498/0x010A421A) looks at LocalPlayer
  2: 0x0090 [0x6F] WAIT_FRAME_DELAY: Yield until WaitTime reaches zero
  3: 0x0091 [0x76] CHECK_ENTITY_RENDER_FLAGS: Wait until Diordinne (ID: 17449498/0x010A421A) Render.Flags0 and Render.Flags3 conditions are met
  4: 0x0096 [0x66] LOAD_EXT_SCHEDULER_MAIN: Load scheduler "tlk0" with entities [EventEntity, EventEntity], work=29*
  5: 0x00A5 [0x2B] Diordinne (ID: 17449498/0x010A421A) [7788*]:
    → "Take this spare key to the number eight shelter. Be careful not to misplace it again."
  6: 0x00AC [0x23] WAIT_FOR_DIALOG_INTERACTION
  7: 0x00AD [0x66] LOAD_EXT_SCHEDULER_MAIN: Load scheduler "tlk1" with entities [EventEntity, EventEntity], work=29*
  8: 0x00BC [0x21] END_EVENT
  9: 0x00BD [0x00] END_REQSTACK()
```

### Event 37

#### Metadata

| Field        | Value    |
|--------------|----------|
| Entrypoint   | 0x00BE   |
| Data Size    | 55 bytes |
| Instructions | 9        |

```
      00 01 02 03 04 05 06 07  08 09 0A 0B 0C 0D 0E 0F
      -- -- -- -- -- -- -- --  -- -- -- -- -- -- -- --
00B0:                                            4A 1A                J.
00C0: 42 0A 01 F0 FF FF 7F 6F  76 1A 42 0A 01 66 01 80  B......ov.B..f..
00D0: F8 FF FF 7F F8 FF FF 7F  74 6C 6B 30 2B 1A 42 0A  ........tlk0+.B.
00E0: 01 05 80 23 66 01 80 F8  FF FF 7F F8 FF FF 7F 74  ...#f..........t
00F0: 6C 6B 31 21 00                                    lk1!.           
```

#### Opcodes

```
  0: 0x00BE [0x4A] Diordinne (ID: 17449498/0x010A421A) looks at LocalPlayer
  1: 0x00C7 [0x6F] WAIT_FRAME_DELAY: Yield until WaitTime reaches zero
  2: 0x00C8 [0x76] CHECK_ENTITY_RENDER_FLAGS: Wait until Diordinne (ID: 17449498/0x010A421A) Render.Flags0 and Render.Flags3 conditions are met
  3: 0x00CD [0x66] LOAD_EXT_SCHEDULER_MAIN: Load scheduler "tlk0" with entities [EventEntity, EventEntity], work=29*
  4: 0x00DC [0x2B] Diordinne (ID: 17449498/0x010A421A) [7784*]:
    → "The number eight shelter is accessible via a secret entrance at H-9 on your map."
  5: 0x00E3 [0x23] WAIT_FOR_DIALOG_INTERACTION
  6: 0x00E4 [0x66] LOAD_EXT_SCHEDULER_MAIN: Load scheduler "tlk1" with entities [EventEntity, EventEntity], work=29*
  7: 0x00F3 [0x21] END_EVENT
  8: 0x00F4 [0x00] END_REQSTACK()
```

### Event 38

#### Metadata

| Field        | Value   |
|--------------|---------|
| Entrypoint   | 0x00F5  |
| Data Size    | 6 bytes |
| Instructions | 4       |

```
      00 01 02 03 04 05 06 07  08 09 0A 0B 0C 0D 0E 0F
      -- -- -- -- -- -- -- --  -- -- -- -- -- -- -- --
00F0:                48 06 80  23 21 00                      H..#!.     
```

#### Opcodes

```
  0: 0x00F5 [0x48] [System] [7909*]:
    → "San d'Oria Nation Quest 6: Follow B."
  1: 0x00F8 [0x23] WAIT_FOR_DIALOG_INTERACTION
  2: 0x00F9 [0x21] END_EVENT
  3: 0x00FA [0x00] END_REQSTACK()
```

### Event 31

#### Metadata

| Field        | Value   |
|--------------|---------|
| Entrypoint   | 0x00FB  |
| Data Size    | 1 bytes |
| Instructions | 1       |

```
      00 01 02 03 04 05 06 07  08 09 0A 0B 0C 0D 0E 0F
      -- -- -- -- -- -- -- --  -- -- -- -- -- -- -- --
00F0:                                   00                         .    
```

#### Opcodes

```
  0: 0x00FB [0x00] END_REQSTACK()
```

### Event 32

#### Metadata

| Field        | Value   |
|--------------|---------|
| Entrypoint   | 0x00FC  |
| Data Size    | 1 bytes |
| Instructions | 1       |

```
      00 01 02 03 04 05 06 07  08 09 0A 0B 0C 0D 0E 0F
      -- -- -- -- -- -- -- --  -- -- -- -- -- -- -- --
00F0:                                      00                       .   
```

#### Opcodes

```
  0: 0x00FC [0x00] END_REQSTACK()
```

### Event 33

#### Metadata

| Field        | Value   |
|--------------|---------|
| Entrypoint   | 0x00FD  |
| Data Size    | 1 bytes |
| Instructions | 1       |

```
      00 01 02 03 04 05 06 07  08 09 0A 0B 0C 0D 0E 0F
      -- -- -- -- -- -- -- --  -- -- -- -- -- -- -- --
00F0:                                         00                     .  
```

#### Opcodes

```
  0: 0x00FD [0x00] END_REQSTACK()
```

### Event 65535.1

#### Metadata

| Field        | Value    |
|--------------|----------|
| Entrypoint   | 0x00FE   |
| Data Size    | 35 bytes |
| Instructions | 9        |

```
      00 01 02 03 04 05 06 07  08 09 0A 0B 0C 0D 0E 0F
      -- -- -- -- -- -- -- --  -- -- -- -- -- -- -- --
00F0:                                            03 00                ..
0100: 00 25 10 03 02 00 27 10  03 01 00 26 10 03 03 00  .%....'....&....
0110: 28 10 32 07 80 1F 00 00  00 02 00 01 00 1F 01 6F  (.2............o
0120: 00                                                .               
```

#### Opcodes

```
  0: 0x00FE [0x03] ExtData[1]->WorkLocal[0] = Work_Zone[37]
  1: 0x0103 [0x03] ExtData[1]->WorkLocal[2] = Work_Zone[39]
  2: 0x0108 [0x03] ExtData[1]->WorkLocal[1] = Work_Zone[38]
  3: 0x010D [0x03] ExtData[1]->WorkLocal[3] = Work_Zone[40]
  4: 0x0112 [0x32] ExtData[1]->MainSpeed = 40* * 0.1
  5: 0x0115 [0x1F] MOVE_ENTITY: EventEntity moves to X=ExtData[1]->WorkLocal[0], Z=ExtData[1]->WorkLocal[2], Y=ExtData[1]->WorkLocal[1]
  6: 0x011D [0x1F] MOVE_ENTITY: Update entity position (mode=1)
  7: 0x011F [0x6F] WAIT_FRAME_DELAY: Yield until WaitTime reaches zero
  8: 0x0120 [0x00] END_REQSTACK()
```

### Event 65535.2

#### Metadata

| Field        | Value    |
|--------------|----------|
| Entrypoint   | 0x0121   |
| Data Size    | 35 bytes |
| Instructions | 9        |

```
      00 01 02 03 04 05 06 07  08 09 0A 0B 0C 0D 0E 0F
      -- -- -- -- -- -- -- --  -- -- -- -- -- -- -- --
0120:    03 00 00 25 10 03 02  00 27 10 03 01 00 26 10   ...%....'....&.
0130: 03 03 00 28 10 32 08 80  1F 00 00 00 02 00 01 00  ...(.2..........
0140: 1F 01 6F 00                                       ..o.            
```

#### Opcodes

```
  0: 0x0121 [0x03] ExtData[1]->WorkLocal[0] = Work_Zone[37]
  1: 0x0126 [0x03] ExtData[1]->WorkLocal[2] = Work_Zone[39]
  2: 0x012B [0x03] ExtData[1]->WorkLocal[1] = Work_Zone[38]
  3: 0x0130 [0x03] ExtData[1]->WorkLocal[3] = Work_Zone[40]
  4: 0x0135 [0x32] ExtData[1]->MainSpeed = 13* * 0.1
  5: 0x0138 [0x1F] MOVE_ENTITY: EventEntity moves to X=ExtData[1]->WorkLocal[0], Z=ExtData[1]->WorkLocal[2], Y=ExtData[1]->WorkLocal[1]
  6: 0x0140 [0x1F] MOVE_ENTITY: Update entity position (mode=1)
  7: 0x0142 [0x6F] WAIT_FRAME_DELAY: Yield until WaitTime reaches zero
  8: 0x0143 [0x00] END_REQSTACK()
```

### Event 65535.3

#### Metadata

| Field        | Value    |
|--------------|----------|
| Entrypoint   | 0x0144   |
| Data Size    | 21 bytes |
| Instructions | 2        |

```
      00 01 02 03 04 05 06 07  08 09 0A 0B 0C 0D 0E 0F
      -- -- -- -- -- -- -- --  -- -- -- -- -- -- -- --
0140:             B6 0B 09 80  0A 80 0B 80 0B 80 0B 80      ............
0150: 0B 80 0B 80 0C 80 0D 80  00                       .........       
```

#### Opcodes

```
  0: 0x0144 [0xB6] ENTITY_APPEARANCE_HANDLER(case=Full entity look, race=3*, hair=9*, head=12*, body=12*, hands=12*, legs=12*, feet=12*, main=251*, sub=27*)
  1: 0x0158 [0x00] END_REQSTACK()
```

### Event 65535.4

#### Metadata

| Field        | Value    |
|--------------|----------|
| Entrypoint   | 0x0159   |
| Data Size    | 21 bytes |
| Instructions | 2        |

```
      00 01 02 03 04 05 06 07  08 09 0A 0B 0C 0D 0E 0F
      -- -- -- -- -- -- -- --  -- -- -- -- -- -- -- --
0150:                             B6 0B 09 80 0A 80 0E           .......
0160: 80 0B 80 0B 80 0B 80 0B  80 0F 80 0D 80 00        ..............  
```

#### Opcodes

```
  0: 0x0159 [0xB6] ENTITY_APPEARANCE_HANDLER(case=Full entity look, race=3*, hair=9*, head=56*, body=12*, hands=12*, legs=12*, feet=12*, main=270*, sub=27*)
  1: 0x016D [0x00] END_REQSTACK()
```

### Event 65535.5

#### Metadata

| Field        | Value    |
|--------------|----------|
| Entrypoint   | 0x016E   |
| Data Size    | 13 bytes |
| Instructions | 3        |

```
      00 01 02 03 04 05 06 07  08 09 0A 0B 0C 0D 0E 0F
      -- -- -- -- -- -- -- --  -- -- -- -- -- -- -- --
0160:                                            6E F8                n.
0170: FF FF 7F 10 80 99 F8 FF  FF 7F 00                 ...........     
```

#### Opcodes

```
  0: 0x016E [0x6E] EventEntity uses emote 43*
  1: 0x0175 [0x99] Wait for EventEntity animation to complete
  2: 0x017A [0x00] END_REQSTACK()
```

### Event 65535.6

#### Metadata

| Field        | Value    |
|--------------|----------|
| Entrypoint   | 0x017B   |
| Data Size    | 13 bytes |
| Instructions | 3        |

```
      00 01 02 03 04 05 06 07  08 09 0A 0B 0C 0D 0E 0F
      -- -- -- -- -- -- -- --  -- -- -- -- -- -- -- --
0170:                                   6E F8 FF FF 7F             n....
0180: 11 80 99 F8 FF FF 7F 00                           ........        
```

#### Opcodes

```
  0: 0x017B [0x6E] EventEntity uses emote 2*
  1: 0x0182 [0x99] Wait for EventEntity animation to complete
  2: 0x0187 [0x00] END_REQSTACK()
```

### Event 65535.7

#### Metadata

| Field        | Value    |
|--------------|----------|
| Entrypoint   | 0x0188   |
| Data Size    | 15 bytes |
| Instructions | 5        |

```
      00 01 02 03 04 05 06 07  08 09 0A 0B 0C 0D 0E 0F
      -- -- -- -- -- -- -- --  -- -- -- -- -- -- -- --
0180:                          32 07 80 1F 00 12 80 13          2.......
0190: 80 14 80 1F 01 6F 00                              .....o.         
```

#### Opcodes

```
  0: 0x0188 [0x32] ExtData[1]->MainSpeed = 40* * 0.1
  1: 0x018B [0x1F] MOVE_ENTITY: EventEntity moves to X=-3.115*, Z=-284.305*, Y=0.185*
  2: 0x0193 [0x1F] MOVE_ENTITY: Update entity position (mode=1)
  3: 0x0195 [0x6F] WAIT_FRAME_DELAY: Yield until WaitTime reaches zero
  4: 0x0196 [0x00] END_REQSTACK()
```

### Event 65535.8

#### Metadata

| Field        | Value    |
|--------------|----------|
| Entrypoint   | 0x0197   |
| Data Size    | 50 bytes |
| Instructions | 10       |

```
      00 01 02 03 04 05 06 07  08 09 0A 0B 0C 0D 0E 0F
      -- -- -- -- -- -- -- --  -- -- -- -- -- -- -- --
0190:                      32  07 80 1F 00 12 80 13 80         2........
01A0: 14 80 1F 01 6F 4A 1A 42  0A 01 4A 42 0A 01 7B 1A  ....oJ.B..JB..{.
01B0: 42 0A 01 6F 76 1A 42 0A  01 5B 15 80 1A 42 0A 01  B..ov.B..[...B..
01C0: 1A 42 0A 01 6C 62 74 30  00                       .B..lbt0.       
```

#### Opcodes

```
  0: 0x0197 [0x32] ExtData[1]->MainSpeed = 40* * 0.1
  1: 0x019A [0x1F] MOVE_ENTITY: EventEntity moves to X=-3.115*, Z=-284.305*, Y=0.185*
  2: 0x01A2 [0x1F] MOVE_ENTITY: Update entity position (mode=1)
  3: 0x01A4 [0x6F] WAIT_FRAME_DELAY: Yield until WaitTime reaches zero
  4: 0x01A5 [0x4A] Diordinne (ID: 17449498/0x010A421A) looks at B (ID: 17449546/0x010A424A)
  5: 0x01AE [0x7B] Diordinne (ID: 17449498/0x010A421A) stops talking
  6: 0x01B3 [0x6F] WAIT_FRAME_DELAY: Yield until WaitTime reaches zero
  7: 0x01B4 [0x76] CHECK_ENTITY_RENDER_FLAGS: Wait until Diordinne (ID: 17449498/0x010A421A) Render.Flags0 and Render.Flags3 conditions are met
  8: 0x01B9 [0x5B] LOAD_EXT_SCHEDULER: Load scheduler "lbt0" with entities [Diordinne (ID: 17449498/0x010A421A), Diordinne (ID: 17449498/0x010A421A)], work=1302*
  9: 0x01C8 [0x00] END_REQSTACK()
```

### Event 65535.9

#### Metadata

| Field        | Value    |
|--------------|----------|
| Entrypoint   | 0x01C9   |
| Data Size    | 19 bytes |
| Instructions | 4        |

```
      00 01 02 03 04 05 06 07  08 09 0A 0B 0C 0D 0E 0F
      -- -- -- -- -- -- -- --  -- -- -- -- -- -- -- --
01C0:                             59 04 1A 42 0A 01 16           Y..B...
01D0: 80 1F 00 17 80 18 80 19  80 1F 01 00              ............    
```

#### Opcodes

```
  0: 0x01C9 [0x59] UPDATE_ENTITY_DATA: Set Diordinne (ID: 17449498/0x010A421A) main speed = 14* * 0.1
  1: 0x01D1 [0x1F] MOVE_ENTITY: EventEntity moves to X=-107.637*, Z=196.809*, Y=0.000*
  2: 0x01D9 [0x1F] MOVE_ENTITY: Update entity position (mode=1)
  3: 0x01DB [0x00] END_REQSTACK()
```

### Event 65535.10

#### Metadata

| Field        | Value    |
|--------------|----------|
| Entrypoint   | 0x01DC   |
| Data Size    | 19 bytes |
| Instructions | 4        |

```
      00 01 02 03 04 05 06 07  08 09 0A 0B 0C 0D 0E 0F
      -- -- -- -- -- -- -- --  -- -- -- -- -- -- -- --
01D0:                                      59 04 1A 42              Y..B
01E0: 0A 01 16 80 1F 00 1A 80  18 80 19 80 1F 01 00     ............... 
```

#### Opcodes

```
  0: 0x01DC [0x59] UPDATE_ENTITY_DATA: Set Diordinne (ID: 17449498/0x010A421A) main speed = 14* * 0.1
  1: 0x01E4 [0x1F] MOVE_ENTITY: EventEntity moves to X=-106.100*, Z=196.809*, Y=0.000*
  2: 0x01EC [0x1F] MOVE_ENTITY: Update entity position (mode=1)
  3: 0x01EE [0x00] END_REQSTACK()
```

### Event 65535.11

#### Metadata

| Field        | Value    |
|--------------|----------|
| Entrypoint   | 0x01EF   |
| Data Size    | 19 bytes |
| Instructions | 4        |

```
      00 01 02 03 04 05 06 07  08 09 0A 0B 0C 0D 0E 0F
      -- -- -- -- -- -- -- --  -- -- -- -- -- -- -- --
01E0:                                               59                 Y
01F0: 04 1A 42 0A 01 16 80 1F  00 17 80 18 80 19 80 1F  ..B.............
0200: 01 00                                             ..              
```

#### Opcodes

```
  0: 0x01EF [0x59] UPDATE_ENTITY_DATA: Set Diordinne (ID: 17449498/0x010A421A) main speed = 14* * 0.1
  1: 0x01F7 [0x1F] MOVE_ENTITY: EventEntity moves to X=-107.637*, Z=196.809*, Y=0.000*
  2: 0x01FF [0x1F] MOVE_ENTITY: Update entity position (mode=1)
  3: 0x0201 [0x00] END_REQSTACK()
```

### Event 65535.12

#### Metadata

| Field        | Value    |
|--------------|----------|
| Entrypoint   | 0x0202   |
| Data Size    | 19 bytes |
| Instructions | 4        |

```
      00 01 02 03 04 05 06 07  08 09 0A 0B 0C 0D 0E 0F
      -- -- -- -- -- -- -- --  -- -- -- -- -- -- -- --
0200:       59 04 1A 42 0A 01  16 80 1F 00 1B 80 1C 80    Y..B..........
0210: 19 80 1F 01 00                                    .....           
```

#### Opcodes

```
  0: 0x0202 [0x59] UPDATE_ENTITY_DATA: Set Diordinne (ID: 17449498/0x010A421A) main speed = 14* * 0.1
  1: 0x020A [0x1F] MOVE_ENTITY: EventEntity moves to X=-107.785*, Z=193.665*, Y=0.000*
  2: 0x0212 [0x1F] MOVE_ENTITY: Update entity position (mode=1)
  3: 0x0214 [0x00] END_REQSTACK()
```

### Event 65535.13

#### Metadata

| Field        | Value    |
|--------------|----------|
| Entrypoint   | 0x0215   |
| Data Size    | 19 bytes |
| Instructions | 4        |

```
      00 01 02 03 04 05 06 07  08 09 0A 0B 0C 0D 0E 0F
      -- -- -- -- -- -- -- --  -- -- -- -- -- -- -- --
0210:                59 04 1A  42 0A 01 08 80 1F 00 1D       Y..B.......
0220: 80 1E 80 19 80 1F 01 00                           ........        
```

#### Opcodes

```
  0: 0x0215 [0x59] UPDATE_ENTITY_DATA: Set Diordinne (ID: 17449498/0x010A421A) main speed = 13* * 0.1
  1: 0x021D [0x1F] MOVE_ENTITY: EventEntity moves to X=-108.890*, Z=192.087*, Y=0.000*
  2: 0x0225 [0x1F] MOVE_ENTITY: Update entity position (mode=1)
  3: 0x0227 [0x00] END_REQSTACK()
```

### Event 65535.14

#### Metadata

| Field        | Value    |
|--------------|----------|
| Entrypoint   | 0x0228   |
| Data Size    | 19 bytes |
| Instructions | 4        |

```
      00 01 02 03 04 05 06 07  08 09 0A 0B 0C 0D 0E 0F
      -- -- -- -- -- -- -- --  -- -- -- -- -- -- -- --
0220:                          59 04 1A 42 0A 01 1F 80          Y..B....
0230: 1F 00 20 80 21 80 22 80  1F 01 00                 .. .!."....     
```

#### Opcodes

```
  0: 0x0228 [0x59] UPDATE_ENTITY_DATA: Set Diordinne (ID: 17449498/0x010A421A) main speed = 38* * 0.1
  1: 0x0230 [0x1F] MOVE_ENTITY: EventEntity moves to X=-110.065*, Z=181.039*, Y=-0.078*
  2: 0x0238 [0x1F] MOVE_ENTITY: Update entity position (mode=1)
  3: 0x023A [0x00] END_REQSTACK()
```

### Event 65535.15

#### Metadata

| Field        | Value    |
|--------------|----------|
| Entrypoint   | 0x023B   |
| Data Size    | 19 bytes |
| Instructions | 4        |

```
      00 01 02 03 04 05 06 07  08 09 0A 0B 0C 0D 0E 0F
      -- -- -- -- -- -- -- --  -- -- -- -- -- -- -- --
0230:                                   59 04 1A 42 0A             Y..B.
0240: 01 1F 80 1F 00 23 80 24  80 22 80 1F 01 00        .....#.$."....  
```

#### Opcodes

```
  0: 0x023B [0x59] UPDATE_ENTITY_DATA: Set Diordinne (ID: 17449498/0x010A421A) main speed = 38* * 0.1
  1: 0x0243 [0x1F] MOVE_ENTITY: EventEntity moves to X=-101.905*, Z=180.042*, Y=-0.078*
  2: 0x024B [0x1F] MOVE_ENTITY: Update entity position (mode=1)
  3: 0x024D [0x00] END_REQSTACK()
```

### Event 65535.16

#### Metadata

| Field        | Value    |
|--------------|----------|
| Entrypoint   | 0x024E   |
| Data Size    | 19 bytes |
| Instructions | 4        |

```
      00 01 02 03 04 05 06 07  08 09 0A 0B 0C 0D 0E 0F
      -- -- -- -- -- -- -- --  -- -- -- -- -- -- -- --
0240:                                            59 04                Y.
0250: 1A 42 0A 01 08 80 1F 00  25 80 26 80 19 80 1F 01  .B......%.&.....
0260: 00                                                .               
```

#### Opcodes

```
  0: 0x024E [0x59] UPDATE_ENTITY_DATA: Set Diordinne (ID: 17449498/0x010A421A) main speed = 13* * 0.1
  1: 0x0256 [0x1F] MOVE_ENTITY: EventEntity moves to X=-107.915*, Z=192.763*, Y=0.000*
  2: 0x025E [0x1F] MOVE_ENTITY: Update entity position (mode=1)
  3: 0x0260 [0x00] END_REQSTACK()
```
