# 17228368

## Common Data

| Field            | Value                       |
|------------------|-----------------------------|
| Zone             | Rolanberry Fields (ID: 110) |
| Block Size       | 28080 bytes                 |
| Total Events     | 5                           |
| References Count | 319                         |

## List of Events

| Event ID              | Entrypoint   |   Size |   Instructions |
|-----------------------|--------------|--------|----------------|
| [65535](#event-65535) | 0x0000       |      1 |              1 |
| [500](#event-500)     | 0x0001       |   7959 |            874 |
| [501](#event-501)     | 0x1F18       |   6572 |            773 |
| [18](#event-18)       | 0x38C4       |   4736 |            561 |
| [19](#event-19)       | 0x4B44       |   7499 |            857 |

## DAT References (imed_data)

|   Index | Hex Value   |   Dec Value |
|---------|-------------|-------------|
|       0 | 0x0013      |          19 |
|       1 | 0x0000      |           0 |
|       2 | 0xFFFF3D35  |  4294917429 |
|       3 | 0x6A9F5     |      436725 |
|       4 | 0x0123      |         291 |
|       5 | 0x0FDB      |        4059 |
|       6 | 0xFFFF4FA5  |  4294922149 |
|       7 | 0x6AAB7     |      436919 |
|       8 | 0x0038      |          56 |
|       9 | 0x0800      |        2048 |
|      10 | 0x0001      |           1 |
|      11 | 0xFFFCF72A  |  4294768426 |
|      12 | 0x58263     |      361059 |
|      13 | 0x1F3F      |        7999 |
|      14 | 0x0607      |        1543 |
|      15 | 0xFFFCEB00  |  4294765312 |
|      16 | 0x5767D     |      358013 |
|      17 | 0x0E10      |        3600 |
|      18 | 0x0002      |           2 |
|      19 | 0x5A2F6     |      369398 |
|      20 | 0xFFFC8A8F  |  4294740623 |
|      21 | 0x22EF      |        8943 |
|      22 | 0x0DF3      |        3571 |
|      23 | 0x5AE02     |      372226 |
|      24 | 0xFFFC9644  |  4294743620 |
|      25 | 0x2417      |        9239 |
|      26 | 0x05FA      |        1530 |
|      27 | 0x0072      |         114 |
|      28 | 0x0076      |         118 |
|      29 | 0x009E      |         158 |
|      30 | 0x000F      |          15 |
|      31 | 0x017A      |         378 |
|      32 | 0x0078      |         120 |
|      33 | 0x1D56      |        7510 |
|      34 | 0x1D57      |        7511 |
|      35 | 0x001E      |          30 |
|      36 | 0x005A      |          90 |
|      37 | 0x00D7      |         215 |
|      38 | 0x00C9      |         201 |
|      39 | 0x00B4      |         180 |
|      40 | 0x0098      |         152 |
|      41 | 0x0258      |         600 |
|      42 | 0x0096      |         150 |
|      43 | 0x007F      |         127 |
|      44 | 0x1D58      |        7512 |
|      45 | 0x0099      |         153 |
|      46 | 0x0003      |           3 |
|      47 | 0x0004      |           4 |
|      48 | 0x0005      |           5 |
|      49 | 0x0006      |           6 |
|      50 | 0x0007      |           7 |
|      51 | 0x0008      |           8 |
|      52 | 0x003C      |          60 |
|      53 | 0x00C8      |         200 |
|      54 | 0x00FA      |         250 |
|      55 | 0x0097      |         151 |
|      56 | 0x00F0      |         240 |
|      57 | 0x012C      |         300 |
|      58 | 0x004B      |          75 |
|      59 | 0x1D59      |        7513 |
|      60 | 0x002D      |          45 |
|      61 | 0x00B6      |         182 |
|      62 | 0x00FF      |         255 |
|      63 | 0xFFF97C2B  |  4294540331 |
|      64 | 0xFFFC6547  |  4294731079 |
|      65 | 0x4E1F      |       19999 |
|      66 | 0x0DB7      |        3511 |
|      67 | 0xFFF97B7A  |  4294540154 |
|      68 | 0xFFFC642A  |  4294730794 |
|      69 | 0x0BDB      |        3035 |
|      70 | 0x051D      |        1309 |
|      71 | 0x009B      |         155 |
|      72 | 0x009C      |         156 |
|      73 | 0x1D9A      |        7578 |
|      74 | 0x0028      |          40 |
|      75 | 0x0200      |         512 |
|      76 | 0x01E0      |         480 |
|      77 | 0x1D5B      |        7515 |
|      78 | 0x1D5C      |        7516 |
|      79 | 0x1D5D      |        7517 |
|      80 | 0x1D5E      |        7518 |
|      81 | 0x1D5F      |        7519 |
|      82 | 0x1D60      |        7520 |
|      83 | 0x0010      |          16 |
|      84 | 0x0050      |          80 |
|      85 | 0x1D61      |        7521 |
|      86 | 0x008C      |         140 |
|      87 | 0x014A      |         330 |
|      88 | 0x0168      |         360 |
|      89 | 0x1D62      |        7522 |
|      90 | 0x1D63      |        7523 |
|      91 | 0x1D64      |        7524 |
|      92 | 0x0179      |         377 |
|      93 | 0x0069      |         105 |
|      94 | 0x006E      |         110 |
|      95 | 0xFFFF31B9  |  4294914489 |
|      96 | 0x6AA5E     |      436830 |
|      97 | 0x01DC      |         476 |
|      98 | 0x0FE0      |        4064 |
|      99 | 0xFFFCFBC1  |  4294769601 |
|     100 | 0x587B3     |      362419 |
|     101 | 0x060A      |        1546 |
|     102 | 0x59FE4     |      368612 |
|     103 | 0xFFFC8753  |  4294739795 |
|     104 | 0x2279      |        8825 |
|     105 | 0x0E08      |        3592 |
|     106 | 0xFFF99F71  |  4294549361 |
|     107 | 0xFFFCBB88  |  4294753160 |
|     108 | 0x0F08      |        3848 |
|     109 | 0xFFF99763  |  4294547299 |
|     110 | 0xFFFCE383  |  4294763395 |
|     111 | 0x0400      |        1024 |
|     112 | 0xFFF99BBE  |  4294548414 |
|     113 | 0xFFFCC9B2  |  4294756786 |
|     114 | 0x0B7F      |        2943 |
|     115 | 0x051F      |        1311 |
|     116 | 0x0521      |        1313 |
|     117 | 0x017B      |         379 |
|     118 | 0x1D67      |        7527 |
|     119 | 0x1D69      |        7529 |
|     120 | 0x1D6A      |        7530 |
|     121 | 0x051E      |        1310 |
|     122 | 0x1D6B      |        7531 |
|     123 | 0x1D6C      |        7532 |
|     124 | 0x0029      |          41 |
|     125 | 0x1D6D      |        7533 |
|     126 | 0x0582      |        1410 |
|     127 | 0x1D6E      |        7534 |
|     128 | 0x1D6F      |        7535 |
|     129 | 0x1D70      |        7536 |
|     130 | 0x1D71      |        7537 |
|     131 | 0x1D72      |        7538 |
|     132 | 0x0016      |          22 |
|     133 | 0x1D73      |        7539 |
|     134 | 0x1D74      |        7540 |
|     135 | 0x1D75      |        7541 |
|     136 | 0x1D76      |        7542 |
|     137 | 0x0520      |        1312 |
|     138 | 0x1D77      |        7543 |
|     139 | 0x1D78      |        7544 |
|     140 | 0x1D79      |        7545 |
|     141 | 0x1D7A      |        7546 |
|     142 | 0x1D7B      |        7547 |
|     143 | 0x1D7C      |        7548 |
|     144 | 0x1D7D      |        7549 |
|     145 | 0x1D7E      |        7550 |
|     146 | 0x1D7F      |        7551 |
|     147 | 0x1D80      |        7552 |
|     148 | 0x1D81      |        7553 |
|     149 | 0x1D82      |        7554 |
|     150 | 0x1D83      |        7555 |
|     151 | 0x1D84      |        7556 |
|     152 | 0x1D85      |        7557 |
|     153 | 0x1D86      |        7558 |
|     154 | 0x1D87      |        7559 |
|     155 | 0x1D88      |        7560 |
|     156 | 0x1D89      |        7561 |
|     157 | 0x1D8A      |        7562 |
|     158 | 0x1D8B      |        7563 |
|     159 | 0x1D8C      |        7564 |
|     160 | 0x1D8D      |        7565 |
|     161 | 0x1D8E      |        7566 |
|     162 | 0x1D8F      |        7567 |
|     163 | 0x1D90      |        7568 |
|     164 | 0x1D91      |        7569 |
|     165 | 0x0014      |          20 |
|     166 | 0x1D92      |        7570 |
|     167 | 0x0522      |        1314 |
|     168 | 0x010E      |         270 |
|     169 | 0x1D93      |        7571 |
|     170 | 0x1D94      |        7572 |
|     171 | 0x1D95      |        7573 |
|     172 | 0x1D96      |        7574 |
|     173 | 0x1D97      |        7575 |
|     174 | 0x1D98      |        7576 |
|     175 | 0x02FC      |         764 |
|     176 | 0x3012      |       12306 |
|     177 | 0x3013      |       12307 |
|     178 | 0x3014      |       12308 |
|     179 | 0x3015      |       12309 |
|     180 | 0x3016      |       12310 |
|     181 | 0x09AA      |        2474 |
|     182 | 0x00A0      |         160 |
|     183 | 0x3017      |       12311 |
|     184 | 0x3018      |       12312 |
|     185 | 0x3019      |       12313 |
|     186 | 0x001B      |          27 |
|     187 | 0xFFF98579  |  4294542713 |
|     188 | 0xFFFC997A  |  4294744442 |
|     189 | 0x0BC2      |        3010 |
|     190 | 0xFFF9852E  |  4294542638 |
|     191 | 0xFFFCAA18  |  4294748696 |
|     192 | 0x03E9      |        1001 |
|     193 | 0x0064      |         100 |
|     194 | 0x301A      |       12314 |
|     195 | 0x301B      |       12315 |
|     196 | 0x301C      |       12316 |
|     197 | 0x301D      |       12317 |
|     198 | 0x301E      |       12318 |
|     199 | 0x301F      |       12319 |
|     200 | 0x3020      |       12320 |
|     201 | 0x3021      |       12321 |
|     202 | 0x3022      |       12322 |
|     203 | 0x3023      |       12323 |
|     204 | 0x03E8      |        1000 |
|     205 | 0x3024      |       12324 |
|     206 | 0x000A      |          10 |
|     207 | 0x3025      |       12325 |
|     208 | 0x3026      |       12326 |
|     209 | 0x0584      |        1412 |
|     210 | 0x3029      |       12329 |
|     211 | 0x302A      |       12330 |
|     212 | 0x302B      |       12331 |
|     213 | 0x302C      |       12332 |
|     214 | 0x302D      |       12333 |
|     215 | 0x302E      |       12334 |
|     216 | 0x302F      |       12335 |
|     217 | 0x3030      |       12336 |
|     218 | 0x3031      |       12337 |
|     219 | 0x3032      |       12338 |
|     220 | 0x3027      |       12327 |
|     221 | 0x3028      |       12328 |
|     222 | 0x3033      |       12339 |
|     223 | 0x3034      |       12340 |
|     224 | 0x3035      |       12341 |
|     225 | 0x3036      |       12342 |
|     226 | 0x3037      |       12343 |
|     227 | 0x3038      |       12344 |
|     228 | 0x3039      |       12345 |
|     229 | 0x303B      |       12347 |
|     230 | 0x303A      |       12346 |
|     231 | 0x303C      |       12348 |
|     232 | 0x303D      |       12349 |
|     233 | 0x303E      |       12350 |
|     234 | 0x303F      |       12351 |
|     235 | 0x3040      |       12352 |
|     236 | 0x3041      |       12353 |
|     237 | 0x3042      |       12354 |
|     238 | 0x3043      |       12355 |
|     239 | 0x3044      |       12356 |
|     240 | 0x3045      |       12357 |
|     241 | 0xFFF98CE8  |  4294544616 |
|     242 | 0xFFFCAC8D  |  4294749325 |
|     243 | 0x4A37      |       18999 |
|     244 | 0xFFF984CA  |  4294542538 |
|     245 | 0xFFFCA9B4  |  4294748596 |
|     246 | 0x496F      |       18799 |
|     247 | 0xFFF98504  |  4294542596 |
|     248 | 0x4CF3      |       19699 |
|     249 | 0xFFFCA982  |  4294748546 |
|     250 | 0x4A69      |       19049 |
|     251 | 0x0F26      |        3878 |
|     252 | 0x02FD      |         765 |
|     253 | 0x0854      |        2132 |
|     254 | 0x3049      |       12361 |
|     255 | 0x304A      |       12362 |
|     256 | 0x304B      |       12363 |
|     257 | 0x0856      |        2134 |
|     258 | 0x304C      |       12364 |
|     259 | 0x304D      |       12365 |
|     260 | 0x304E      |       12366 |
|     261 | 0x304F      |       12367 |
|     262 | 0x3050      |       12368 |
|     263 | 0x3051      |       12369 |
|     264 | 0x0857      |        2135 |
|     265 | 0x085B      |        2139 |
|     266 | 0x3052      |       12370 |
|     267 | 0x3053      |       12371 |
|     268 | 0x3054      |       12372 |
|     269 | 0x3055      |       12373 |
|     270 | 0x00D5      |         213 |
|     271 | 0xFFFEA070  |  4294877296 |
|     272 | 0x0024      |          36 |
|     273 | 0x3056      |       12374 |
|     274 | 0x3057      |       12375 |
|     275 | 0xFFFFFF52  |  4294967122 |
|     276 | 0x0514      |        1300 |
|     277 | 0x3058      |       12376 |
|     278 | 0x0855      |        2133 |
|     279 | 0x3059      |       12377 |
|     280 | 0x305A      |       12378 |
|     281 | 0x305B      |       12379 |
|     282 | 0x305C      |       12380 |
|     283 | 0x0850      |        2128 |
|     284 | 0x305D      |       12381 |
|     285 | 0x0046      |          70 |
|     286 | 0x305E      |       12382 |
|     287 | 0x305F      |       12383 |
|     288 | 0x3060      |       12384 |
|     289 | 0x3061      |       12385 |
|     290 | 0x3062      |       12386 |
|     291 | 0x3063      |       12387 |
|     292 | 0x00BE      |         190 |
|     293 | 0x3065      |       12389 |
|     294 | 0x3066      |       12390 |
|     295 | 0x3067      |       12391 |
|     296 | 0x3068      |       12392 |
|     297 | 0x3069      |       12393 |
|     298 | 0x306A      |       12394 |
|     299 | 0x306B      |       12395 |
|     300 | 0x306C      |       12396 |
|     301 | 0x306D      |       12397 |
|     302 | 0x306E      |       12398 |
|     303 | 0x306F      |       12399 |
|     304 | 0x0067      |         103 |
|     305 | 0x3070      |       12400 |
|     306 | 0x0F3A      |        3898 |
|     307 | 0x0075      |         117 |
|     308 | 0x3074      |       12404 |
|     309 | 0x3075      |       12405 |
|     310 | 0x0033      |          51 |
|     311 | 0x3076      |       12406 |
|     312 | 0x3078      |       12408 |
|     313 | 0x3079      |       12409 |
|     314 | 0x307A      |       12410 |
|     315 | 0x307E      |       12414 |
|     316 | 0x307F      |       12415 |
|     317 | 0x3082      |       12418 |
|     318 | 0x3083      |       12419 |

## String References

- **7510**: The vines covering the cavernous maw shudder violently.
- **7511**: The mottled surface of the cavernous maw shudders violently.
- **7513**: <Player> is engulfed by the cavernous maw!
- **7515**: A disembodied metallic voice drifts towards you...
- **7521**: <Player> is thrown out into the void!
- **7527**: A disembodied metallic voice drifts towards you...
- **7537**: Do you see how blue? [Oh yes, completely blue./You seem black and white to me...]
- **7550**: The regal feline peers intently at <Player>.
- **7562**: Are you up to the task? [I'll do it!/It's not my time...]
- **7578**: @@
- **12326**: Why are you here? [I need Iroha to be accepted./No real reason.]
- **12335**: Well? [Of course I'm upset!/Isn't there anything we can do?/I...suppose not.]
- **12369**: Have you had odd dreams? [Not dreams, but visions.../Not really.]
- **12382**: How do you respond? [I'll think of something./I need your help./...]

## Events

### Event 65535

#### Metadata

| Field        | Value   |
|--------------|---------|
| Entrypoint   | 0x0000  |
| Data Size    | 1 bytes |
| Instructions | 1       |

```
      00 01 02 03 04 05 06 07  08 09 0A 0B 0C 0D 0E 0F
      -- -- -- -- -- -- -- --  -- -- -- -- -- -- -- --
0000: 00                                                .               
```

#### Opcodes

```
  0: 0x0000 [0x00] END_REQSTACK()
```

### Event 500

#### Metadata

| Field        | Value      |
|--------------|------------|
| Entrypoint   | 0x0001     |
| Data Size    | 7959 bytes |
| Instructions | 874        |

```
      00 01 02 03 04 05 06 07  08 09 0A 0B 0C 0D 0E 0F
      -- -- -- -- -- -- -- --  -- -- -- -- -- -- -- --
0000:    42 1A 61 66 03 00 00  02 10 03 01 00 09 10 46   B.af..........F
0010: 01 29 10 F0 FF FF 7F 2B  03 02 00 02 10 38 00 80  .).....+.....8..
0020: 27 10 51 E2 06 01 02 92  01 4D E2 06 01 92 01 51  '.Q......M.....Q
0030: E2 06 01 94 01 F0 FF FF  7F 94 01 4D E2 06 01 94  ...........M....
0040: 01 51 E2 06 01 02 00 00  01 80 80 6A 00 BA F0 FF  .Q.........j....
0050: FF 7F 02 80 03 80 04 80  05 80 BA 51 E2 06 01 06  ...........Q....
0060: 80 07 80 08 80 09 80 01  B4 00 02 00 00 0A 80 80  ................
0070: 8F 00 BA F0 FF FF 7F 0B  80 0C 80 0D 80 0E 80 BA  ................
0080: 51 E2 06 01 0F 80 10 80  0D 80 11 80 01 B4 00 02  Q...............
0090: 00 00 12 80 80 B4 00 BA  F0 FF FF 7F 13 80 14 80  ................
00A0: 15 80 16 80 BA 51 E2 06  01 17 80 18 80 19 80 1A  .....Q..........
00B0: 80 01 B4 00 80 F0 FF FF  7F 80 4D E2 06 01 80 51  ..........M....Q
00C0: E2 06 01 02 00 00 01 80  80 D6 00 5C 00 1B 80 5C  ...........\...\
00D0: 01 1B 80 01 FC 00 02 00  00 0A 80 80 E9 00 5C 00  ..............\.
00E0: 1C 80 5C 01 1C 80 01 FC  00 02 00 00 12 80 80 FC  ..\.............
00F0: 00 5C 00 1D 80 5C 01 1D  80 01 FC 00 9A 1C 1E 80  .\...\..........
0100: 2C 51 E2 06 01 51 E2 06  01 65 66 6F 66 2C 51 E2  ,Q...Q...efof,Q.
0110: 06 01 51 E2 06 01 65 66  6B 6C 02 00 00 01 80 80  ..Q...efkl......
0120: 6C 01 27 10 F0 FF FF 7F  06 45 1F 80 F0 FF FF 7F  l.'......E......
0130: F0 FF FF 7F 6E 6F 30 30  01 80 1A 40 66 2A 10 F0  ....no00...@f*..
0140: FF FF 7F 55 1F 80 F0 FF  FF 7F F0 FF FF 7F 6E 6F  ...U..........no
0150: 30 30 45 1F 80 F0 FF FF  7F F0 FF FF 7F 6E 6F 30  00E..........no0
0160: 32 01 80 1C 20 80 48 21  80 01 10 02 02 00 00 0A  2... .H!........
0170: 80 80 BE 01 27 10 F0 FF  FF 7F 05 45 1F 80 F0 FF  ....'......E....
0180: FF 7F F0 FF FF 7F 72 6F  30 30 01 80 1A 40 66 2A  ......ro00...@f*
0190: 10 F0 FF FF 7F 55 1F 80  F0 FF FF 7F F0 FF FF 7F  .....U..........
01A0: 72 6F 30 30 45 1F 80 F0  FF FF 7F F0 FF FF 7F 72  ro00E..........r
01B0: 6F 30 32 01 80 1C 20 80  48 21 80 01 10 02 02 00  o02... .H!......
01C0: 00 12 80 80 10 02 27 10  F0 FF FF 7F 07 45 1F 80  ......'......E..
01D0: F0 FF FF 7F F0 FF FF 7F  61 6C 30 31 01 80 1A 40  ........al01...@
01E0: 66 2A 10 F0 FF FF 7F 55  1F 80 F0 FF FF 7F F0 FF  f*.....U........
01F0: FF 7F 61 6C 30 31 45 1F  80 F0 FF FF 7F F0 FF FF  ..al01E.........
0200: 7F 61 6C 30 32 01 80 1C  20 80 48 22 80 01 10 02  .al02... .H"....
0210: 1C 20 80 02 00 00 01 80  80 48 02 27 10 F0 FF FF  . .......H.'....
0220: 7F 09 1C 23 80 52 1F 80  F0 FF FF 7F F0 FF FF 7F  ...#.R..........
0230: 6E 6F 30 32 45 1F 80 F0  FF FF 7F F0 FF FF 7F 6E  no02E..........n
0240: 6F 30 33 01 80 01 B2 02  02 00 00 0A 80 80 7D 02  o03...........}.
0250: 27 10 F0 FF FF 7F 08 1C  23 80 52 1F 80 F0 FF FF  '.......#.R.....
0260: 7F F0 FF FF 7F 72 6F 30  32 45 1F 80 F0 FF FF 7F  .....ro02E......
0270: F0 FF FF 7F 72 6F 30 33  01 80 01 B2 02 02 00 00  ....ro03........
0280: 12 80 80 B2 02 27 10 F0  FF FF 7F 0A 1C 23 80 52  .....'.......#.R
0290: 1F 80 F0 FF FF 7F F0 FF  FF 7F 61 6C 30 32 45 1F  ..........al02E.
02A0: 80 F0 FF FF 7F F0 FF FF  7F 61 6C 30 33 01 80 01  .........al03...
02B0: B2 02 5D 01 80 20 80 1C  24 80 1A B4 67 27 10 4D  ..].. ..$...g'.M
02C0: E2 06 01 07 27 10 51 E2  06 01 0B 2C 51 E2 06 01  ....'.Q....,Q...
02D0: 51 E2 06 01 65 66 6F 6E  1C 1E 80 45 25 80 F0 FF  Q...efon...E%...
02E0: FF 7F F0 FF FF 7F 65 66  6F 6E 01 80 45 26 80 F0  ......efon..E&..
02F0: FF FF 7F F0 FF FF 7F 77  68 69 30 01 80 2A 10 F0  .......whi0..*..
0300: FF FF 7F 02 00 00 01 80  80 5D 03 55 1F 80 F0 FF  .........].U....
0310: FF 7F F0 FF FF 7F 6E 6F  30 33 45 1F 80 F0 FF FF  ......no03E.....
0320: 7F F0 FF FF 7F 6E 6F 30  34 01 80 4A F0 FF FF 7F  .....no04..J....
0330: 51 E2 06 01 6F 76 F0 FF  FF 7F 55 1F 80 F0 FF FF  Q...ov....U.....
0340: 7F F0 FF FF 7F 6E 6F 30  34 45 1F 80 F0 FF FF 7F  .....no04E......
0350: F0 FF FF 7F 6E 6F 30 35  01 80 01 11 04 02 00 00  ....no05........
0360: 0A 80 80 B7 03 55 1F 80  F0 FF FF 7F F0 FF FF 7F  .....U..........
0370: 72 6F 30 33 45 1F 80 F0  FF FF 7F F0 FF FF 7F 72  ro03E..........r
0380: 6F 30 34 01 80 4A F0 FF  FF 7F 51 E2 06 01 6F 76  o04..J....Q...ov
0390: F0 FF FF 7F 55 1F 80 F0  FF FF 7F F0 FF FF 7F 72  ....U..........r
03A0: 6F 30 34 45 1F 80 F0 FF  FF 7F F0 FF FF 7F 72 6F  o04E..........ro
03B0: 30 35 01 80 01 11 04 02  00 00 12 80 80 11 04 55  05.............U
03C0: 1F 80 F0 FF FF 7F F0 FF  FF 7F 61 6C 30 33 45 1F  ..........al03E.
03D0: 80 F0 FF FF 7F F0 FF FF  7F 61 6C 30 34 01 80 4A  .........al04..J
03E0: F0 FF FF 7F 51 E2 06 01  6F 76 F0 FF FF 7F 55 1F  ....Q...ov....U.
03F0: 80 F0 FF FF 7F F0 FF FF  7F 61 6C 30 34 45 1F 80  .........al04E..
0400: F0 FF FF 7F F0 FF FF 7F  61 6C 30 35 01 80 01 11  ........al05....
0410: 04 45 1F 80 51 E2 06 01  F0 FF FF 7F 36 31 31 35  .E..Q.......6115
0420: 01 80 27 10 F0 FF FF 7F  0C 1C 27 80 02 00 00 01  ..'.......'.....
0430: 80 80 57 04 52 1F 80 F0  FF FF 7F F0 FF FF 7F 6E  ..W.R..........n
0440: 6F 30 35 45 1F 80 F0 FF  FF 7F F0 FF FF 7F 6E 6F  o05E..........no
0450: 30 38 01 80 01 AD 04 02  00 00 0A 80 80 82 04 52  08.............R
0460: 1F 80 F0 FF FF 7F F0 FF  FF 7F 72 6F 30 35 45 1F  ..........ro05E.
0470: 80 F0 FF FF 7F F0 FF FF  7F 72 6F 30 38 01 80 01  .........ro08...
0480: AD 04 02 00 00 12 80 80  AD 04 52 1F 80 F0 FF FF  ..........R.....
0490: 7F F0 FF FF 7F 61 6C 30  35 45 1F 80 F0 FF FF 7F  .....al05E......
04A0: F0 FF FF 7F 61 6C 30 38  01 80 01 AD 04 45 1F 80  ....al08.....E..
04B0: 51 E2 06 01 F0 FF FF 7F  36 31 32 35 01 80 2C 51  Q.......6125..,Q
04C0: E2 06 01 51 E2 06 01 65  66 6B 6C BB 28 80 51 E2  ...Q...efkl.(.Q.
04D0: 06 01 F0 FF FF 7F 73 74  30 31 01 80 03 02 10 29  ......st01.....)
04E0: 80 27 10 4E E2 06 01 01  1C 2A 80 9F 2B 80 F8 FF  .'.N.....*..+...
04F0: FF 7F F8 FF FF 7F 73 74  72 30 01 80 1C 23 80 2B  ......str0...#.+
0500: 51 E2 06 01 2C 80 1C 27  80 02 00 00 01 80 80 34  Q...,..'.......4
0510: 05 52 1F 80 F0 FF FF 7F  F0 FF FF 7F 6E 6F 30 38  .R..........no08
0520: 45 1F 80 F0 FF FF 7F F0  FF FF 7F 6E 6F 31 37 01  E..........no17.
0530: 80 01 8A 05 02 00 00 0A  80 80 5F 05 52 1F 80 F0  .........._.R...
0540: FF FF 7F F0 FF FF 7F 72  6F 30 38 45 1F 80 F0 FF  .......ro08E....
0550: FF 7F F0 FF FF 7F 72 6F  31 37 01 80 01 8A 05 02  ......ro17......
0560: 00 00 12 80 80 8A 05 52  1F 80 F0 FF FF 7F F0 FF  .......R........
0570: FF 7F 61 6C 30 38 45 1F  80 F0 FF FF 7F F0 FF FF  ..al08E.........
0580: 7F 61 6C 31 37 01 80 01  8A 05 45 1F 80 51 E2 06  .al17.....E..Q..
0590: 01 F0 FF FF 7F 31 30 34  35 01 80 45 1F 80 51 E2  .....1045..E..Q.
05A0: 06 01 F0 FF FF 7F 36 30  30 36 01 80 2A 10 4E E2  ......6006..*.N.
05B0: 06 01 02 00 00 01 80 80  DD 05 52 1F 80 F0 FF FF  ..........R.....
05C0: 7F F0 FF FF 7F 6E 6F 31  37 45 1F 80 F0 FF FF 7F  .....no17E......
05D0: F0 FF FF 7F 6E 6F 30 39  01 80 01 33 06 02 00 00  ....no09...3....
05E0: 0A 80 80 08 06 52 1F 80  F0 FF FF 7F F0 FF FF 7F  .....R..........
05F0: 72 6F 31 37 45 1F 80 F0  FF FF 7F F0 FF FF 7F 72  ro17E..........r
0600: 6F 30 39 01 80 01 33 06  02 00 00 12 80 80 33 06  o09...3.......3.
0610: 52 1F 80 F0 FF FF 7F F0  FF FF 7F 61 6C 31 37 45  R..........al17E
0620: 1F 80 F0 FF FF 7F F0 FF  FF 7F 61 6C 30 39 01 80  ..........al09..
0630: 01 33 06 45 1F 80 51 E2  06 01 F0 FF FF 7F 6B 31  .3.E..Q.......k1
0640: 32 35 01 80 BB 2D 80 F0  FF FF 7F 51 E2 06 01 73  25...-.....Q...s
0650: 74 30 31 01 80 27 10 F0  FF FF 7F 0D 1C 20 80 02  t01..'....... ..
0660: 00 00 01 80 80 71 08 52  1F 80 F0 FF FF 7F F0 FF  .....q.R........
0670: FF 7F 6E 6F 30 39 02 02  00 0A 80 80 B5 06 45 1F  ..no09........E.
0680: 80 F0 FF FF 7F F0 FF FF  7F 6E 68 6D 32 01 80 1C  .........nhm2...
0690: 24 80 52 1F 80 F0 FF FF  7F F0 FF FF 7F 6E 68 6D  $.R..........nhm
06A0: 32 45 1F 80 F0 FF FF 7F  F0 FF FF 7F 6E 68 6D 30  2E..........nhm0
06B0: 01 80 01 6E 08 02 02 00  12 80 80 F4 06 45 1F 80  ...n.........E..
06C0: F0 FF FF 7F F0 FF FF 7F  6E 68 66 32 01 80 1C 24  ........nhf2...$
06D0: 80 52 1F 80 F0 FF FF 7F  F0 FF FF 7F 6E 68 66 32  .R..........nhf2
06E0: 45 1F 80 F0 FF FF 7F F0  FF FF 7F 6E 68 66 30 01  E..........nhf0.
06F0: 80 01 6E 08 02 02 00 2E  80 80 33 07 45 1F 80 F0  ..n.......3.E...
0700: FF FF 7F F0 FF FF 7F 6E  65 6D 32 01 80 1C 24 80  .......nem2...$.
0710: 52 1F 80 F0 FF FF 7F F0  FF FF 7F 6E 65 6D 32 45  R..........nem2E
0720: 1F 80 F0 FF FF 7F F0 FF  FF 7F 6E 65 6D 30 01 80  ..........nem0..
0730: 01 6E 08 02 02 00 2F 80  80 72 07 45 1F 80 F0 FF  .n..../..r.E....
0740: FF 7F F0 FF FF 7F 6E 65  66 32 01 80 1C 24 80 52  ......nef2...$.R
0750: 1F 80 F0 FF FF 7F F0 FF  FF 7F 6E 65 66 32 45 1F  ..........nef2E.
0760: 80 F0 FF FF 7F F0 FF FF  7F 6E 65 66 30 01 80 01  .........nef0...
0770: 6E 08 02 02 00 30 80 80  B1 07 45 1F 80 F0 FF FF  n....0....E.....
0780: 7F F0 FF FF 7F 6E 74 72  32 01 80 1C 24 80 52 1F  .....ntr2...$.R.
0790: 80 F0 FF FF 7F F0 FF FF  7F 6E 74 72 32 45 1F 80  .........ntr2E..
07A0: F0 FF FF 7F F0 FF FF 7F  6E 74 72 30 01 80 01 6E  ........ntr0...n
07B0: 08 02 02 00 31 80 80 F0  07 45 1F 80 F0 FF FF 7F  ....1....E......
07C0: F0 FF FF 7F 6E 74 72 32  01 80 1C 24 80 52 1F 80  ....ntr2...$.R..
07D0: F0 FF FF 7F F0 FF FF 7F  6E 74 72 32 45 1F 80 F0  ........ntr2E...
07E0: FF FF 7F F0 FF FF 7F 6E  74 72 30 01 80 01 6E 08  .......ntr0...n.
07F0: 02 02 00 32 80 80 2F 08  45 1F 80 F0 FF FF 7F F0  ...2../.E.......
0800: FF FF 7F 6E 6D 74 32 01  80 1C 24 80 52 1F 80 F0  ...nmt2...$.R...
0810: FF FF 7F F0 FF FF 7F 6E  6D 74 32 45 1F 80 F0 FF  .......nmt2E....
0820: FF 7F F0 FF FF 7F 6E 6D  74 30 01 80 01 6E 08 02  ......nmt0...n..
0830: 02 00 33 80 80 6E 08 45  1F 80 F0 FF FF 7F F0 FF  ..3..n.E........
0840: FF 7F 6E 67 6C 32 01 80  1C 24 80 52 1F 80 F0 FF  ..ngl2...$.R....
0850: FF 7F F0 FF FF 7F 6E 67  6C 32 45 1F 80 F0 FF FF  ......ngl2E.....
0860: 7F F0 FF FF 7F 6E 67 6C  30 01 80 01 6E 08 01 95  .....ngl0...n...
0870: 0C 02 00 00 0A 80 80 83  0A 52 1F 80 F0 FF FF 7F  .........R......
0880: F0 FF FF 7F 72 6F 30 39  02 02 00 0A 80 80 C7 08  ....ro09........
0890: 45 1F 80 F0 FF FF 7F F0  FF FF 7F 72 68 6D 32 01  E..........rhm2.
08A0: 80 1C 24 80 52 1F 80 F0  FF FF 7F F0 FF FF 7F 72  ..$.R..........r
08B0: 68 6D 32 45 1F 80 F0 FF  FF 7F F0 FF FF 7F 72 68  hm2E..........rh
08C0: 6D 30 01 80 01 80 0A 02  02 00 12 80 80 06 09 45  m0.............E
08D0: 1F 80 F0 FF FF 7F F0 FF  FF 7F 72 68 66 32 01 80  ..........rhf2..
08E0: 1C 24 80 52 1F 80 F0 FF  FF 7F F0 FF FF 7F 72 68  .$.R..........rh
08F0: 66 32 45 1F 80 F0 FF FF  7F F0 FF FF 7F 72 68 66  f2E..........rhf
0900: 30 01 80 01 80 0A 02 02  00 2E 80 80 45 09 45 1F  0...........E.E.
0910: 80 F0 FF FF 7F F0 FF FF  7F 72 65 6D 32 01 80 1C  .........rem2...
0920: 24 80 52 1F 80 F0 FF FF  7F F0 FF FF 7F 72 65 6D  $.R..........rem
0930: 32 45 1F 80 F0 FF FF 7F  F0 FF FF 7F 72 65 6D 30  2E..........rem0
0940: 01 80 01 80 0A 02 02 00  2F 80 80 84 09 45 1F 80  ......../....E..
0950: F0 FF FF 7F F0 FF FF 7F  72 65 66 32 01 80 1C 24  ........ref2...$
0960: 80 52 1F 80 F0 FF FF 7F  F0 FF FF 7F 72 65 66 32  .R..........ref2
0970: 45 1F 80 F0 FF FF 7F F0  FF FF 7F 72 65 66 30 01  E..........ref0.
0980: 80 01 80 0A 02 02 00 30  80 80 C3 09 45 1F 80 F0  .......0....E...
0990: FF FF 7F F0 FF FF 7F 72  74 72 32 01 80 1C 24 80  .......rtr2...$.
09A0: 52 1F 80 F0 FF FF 7F F0  FF FF 7F 72 74 72 32 45  R..........rtr2E
09B0: 1F 80 F0 FF FF 7F F0 FF  FF 7F 72 74 72 30 01 80  ..........rtr0..
09C0: 01 80 0A 02 02 00 31 80  80 02 0A 45 1F 80 F0 FF  ......1....E....
09D0: FF 7F F0 FF FF 7F 72 74  72 32 01 80 1C 24 80 52  ......rtr2...$.R
09E0: 1F 80 F0 FF FF 7F F0 FF  FF 7F 72 74 72 32 45 1F  ..........rtr2E.
09F0: 80 F0 FF FF 7F F0 FF FF  7F 72 74 72 30 01 80 01  .........rtr0...
0A00: 80 0A 02 02 00 32 80 80  41 0A 45 1F 80 F0 FF FF  .....2..A.E.....
0A10: 7F F0 FF FF 7F 72 6D 74  32 01 80 1C 24 80 52 1F  .....rmt2...$.R.
0A20: 80 F0 FF FF 7F F0 FF FF  7F 72 6D 74 32 45 1F 80  .........rmt2E..
0A30: F0 FF FF 7F F0 FF FF 7F  72 6D 74 30 01 80 01 80  ........rmt0....
0A40: 0A 02 02 00 33 80 80 80  0A 45 1F 80 F0 FF FF 7F  ....3....E......
0A50: F0 FF FF 7F 72 67 6C 32  01 80 1C 24 80 52 1F 80  ....rgl2...$.R..
0A60: F0 FF FF 7F F0 FF FF 7F  72 67 6C 32 45 1F 80 F0  ........rgl2E...
0A70: FF FF 7F F0 FF FF 7F 72  67 6C 30 01 80 01 80 0A  .......rgl0.....
0A80: 01 95 0C 02 00 00 12 80  80 95 0C 52 1F 80 F0 FF  ...........R....
0A90: FF 7F F0 FF FF 7F 61 6C  30 39 02 02 00 0A 80 80  ......al09......
0AA0: D9 0A 45 1F 80 F0 FF FF  7F F0 FF FF 7F 61 68 6D  ..E..........ahm
0AB0: 32 01 80 1C 24 80 52 1F  80 F0 FF FF 7F F0 FF FF  2...$.R.........
0AC0: 7F 61 68 6D 32 45 1F 80  F0 FF FF 7F F0 FF FF 7F  .ahm2E..........
0AD0: 61 68 6D 30 01 80 01 92  0C 02 02 00 12 80 80 18  ahm0............
0AE0: 0B 45 1F 80 F0 FF FF 7F  F0 FF FF 7F 61 68 66 32  .E..........ahf2
0AF0: 01 80 1C 24 80 52 1F 80  F0 FF FF 7F F0 FF FF 7F  ...$.R..........
0B00: 61 68 66 32 45 1F 80 F0  FF FF 7F F0 FF FF 7F 61  ahf2E..........a
0B10: 68 66 30 01 80 01 92 0C  02 02 00 2E 80 80 57 0B  hf0...........W.
0B20: 45 1F 80 F0 FF FF 7F F0  FF FF 7F 61 65 6D 32 01  E..........aem2.
0B30: 80 1C 24 80 52 1F 80 F0  FF FF 7F F0 FF FF 7F 61  ..$.R..........a
0B40: 65 6D 32 45 1F 80 F0 FF  FF 7F F0 FF FF 7F 61 65  em2E..........ae
0B50: 6D 30 01 80 01 92 0C 02  02 00 2F 80 80 96 0B 45  m0......../....E
0B60: 1F 80 F0 FF FF 7F F0 FF  FF 7F 61 65 66 32 01 80  ..........aef2..
0B70: 1C 24 80 52 1F 80 F0 FF  FF 7F F0 FF FF 7F 61 65  .$.R..........ae
0B80: 66 32 45 1F 80 F0 FF FF  7F F0 FF FF 7F 61 65 66  f2E..........aef
0B90: 30 01 80 01 92 0C 02 02  00 30 80 80 D5 0B 45 1F  0........0....E.
0BA0: 80 F0 FF FF 7F F0 FF FF  7F 61 74 72 32 01 80 1C  .........atr2...
0BB0: 24 80 52 1F 80 F0 FF FF  7F F0 FF FF 7F 61 74 72  $.R..........atr
0BC0: 32 45 1F 80 F0 FF FF 7F  F0 FF FF 7F 61 74 72 30  2E..........atr0
0BD0: 01 80 01 92 0C 02 02 00  31 80 80 14 0C 45 1F 80  ........1....E..
0BE0: F0 FF FF 7F F0 FF FF 7F  61 74 72 32 01 80 1C 24  ........atr2...$
0BF0: 80 52 1F 80 F0 FF FF 7F  F0 FF FF 7F 61 74 72 32  .R..........atr2
0C00: 45 1F 80 F0 FF FF 7F F0  FF FF 7F 61 74 72 30 01  E..........atr0.
0C10: 80 01 92 0C 02 02 00 32  80 80 53 0C 45 1F 80 F0  .......2..S.E...
0C20: FF FF 7F F0 FF FF 7F 61  6D 74 32 01 80 1C 24 80  .......amt2...$.
0C30: 52 1F 80 F0 FF FF 7F F0  FF FF 7F 61 6D 74 32 45  R..........amt2E
0C40: 1F 80 F0 FF FF 7F F0 FF  FF 7F 61 6D 74 30 01 80  ..........amt0..
0C50: 01 92 0C 02 02 00 33 80  80 92 0C 45 1F 80 F0 FF  ......3....E....
0C60: FF 7F F0 FF FF 7F 61 67  6C 32 01 80 1C 24 80 52  ......agl2...$.R
0C70: 1F 80 F0 FF FF 7F F0 FF  FF 7F 61 67 6C 32 45 1F  ..........agl2E.
0C80: 80 F0 FF FF 7F F0 FF FF  7F 61 67 6C 30 01 80 01  .........agl0...
0C90: 92 0C 01 95 0C 45 1F 80  F0 FF FF 7F F0 FF FF 7F  .....E..........
0CA0: 36 31 30 32 01 80 2A 10  F0 FF FF 7F 1C 34 80 02  6102..*......4..
0CB0: 00 00 01 80 80 9B 0D 02  02 00 0A 80 80 D1 0C 52  ...............R
0CC0: 1F 80 F0 FF FF 7F F0 FF  FF 7F 72 68 6D 30 01 87  ..........rhm0..
0CD0: 0D 02 02 00 12 80 80 EB  0C 52 1F 80 F0 FF FF 7F  .........R......
0CE0: F0 FF FF 7F 72 68 66 30  01 87 0D 02 02 00 2E 80  ....rhf0........
0CF0: 80 05 0D 52 1F 80 F0 FF  FF 7F F0 FF FF 7F 72 65  ...R..........re
0D00: 6D 30 01 87 0D 02 02 00  2F 80 80 1F 0D 52 1F 80  m0....../....R..
0D10: F0 FF FF 7F F0 FF FF 7F  72 65 66 30 01 87 0D 02  ........ref0....
0D20: 02 00 30 80 80 39 0D 52  1F 80 F0 FF FF 7F F0 FF  ..0..9.R........
0D30: FF 7F 72 74 72 30 01 87  0D 02 02 00 31 80 80 53  ..rtr0......1..S
0D40: 0D 52 1F 80 F0 FF FF 7F  F0 FF FF 7F 72 74 72 30  .R..........rtr0
0D50: 01 87 0D 02 02 00 32 80  80 6D 0D 52 1F 80 F0 FF  ......2..m.R....
0D60: FF 7F F0 FF FF 7F 72 6D  74 30 01 87 0D 02 02 00  ......rmt0......
0D70: 33 80 80 87 0D 52 1F 80  F0 FF FF 7F F0 FF FF 7F  3....R..........
0D80: 72 67 6C 30 01 87 0D 45  1F 80 F0 FF FF 7F F0 FF  rgl0...E........
0D90: FF 7F 6E 6F 31 30 01 80  01 73 0F 02 00 00 0A 80  ..no10...s......
0DA0: 80 87 0E 02 02 00 0A 80  80 BD 0D 52 1F 80 F0 FF  ...........R....
0DB0: FF 7F F0 FF FF 7F 72 68  6D 30 01 73 0E 02 02 00  ......rhm0.s....
0DC0: 12 80 80 D7 0D 52 1F 80  F0 FF FF 7F F0 FF FF 7F  .....R..........
0DD0: 72 68 66 30 01 73 0E 02  02 00 2E 80 80 F1 0D 52  rhf0.s.........R
0DE0: 1F 80 F0 FF FF 7F F0 FF  FF 7F 72 65 6D 30 01 73  ..........rem0.s
0DF0: 0E 02 02 00 2F 80 80 0B  0E 52 1F 80 F0 FF FF 7F  ..../....R......
0E00: F0 FF FF 7F 72 65 66 30  01 73 0E 02 02 00 30 80  ....ref0.s....0.
0E10: 80 25 0E 52 1F 80 F0 FF  FF 7F F0 FF FF 7F 72 74  .%.R..........rt
0E20: 72 30 01 73 0E 02 02 00  31 80 80 3F 0E 52 1F 80  r0.s....1..?.R..
0E30: F0 FF FF 7F F0 FF FF 7F  72 74 72 30 01 73 0E 02  ........rtr0.s..
0E40: 02 00 32 80 80 59 0E 52  1F 80 F0 FF FF 7F F0 FF  ..2..Y.R........
0E50: FF 7F 72 6D 74 30 01 73  0E 02 02 00 33 80 80 73  ..rmt0.s....3..s
0E60: 0E 52 1F 80 F0 FF FF 7F  F0 FF FF 7F 72 67 6C 30  .R..........rgl0
0E70: 01 73 0E 45 1F 80 F0 FF  FF 7F F0 FF FF 7F 72 6F  .s.E..........ro
0E80: 31 30 01 80 01 73 0F 02  00 00 12 80 80 73 0F 02  10...s.......s..
0E90: 02 00 0A 80 80 A9 0E 52  1F 80 F0 FF FF 7F F0 FF  .......R........
0EA0: FF 7F 61 68 6D 30 01 5F  0F 02 02 00 12 80 80 C3  ..ahm0._........
0EB0: 0E 52 1F 80 F0 FF FF 7F  F0 FF FF 7F 61 68 66 30  .R..........ahf0
0EC0: 01 5F 0F 02 02 00 2E 80  80 DD 0E 52 1F 80 F0 FF  ._.........R....
0ED0: FF 7F F0 FF FF 7F 61 65  6D 30 01 5F 0F 02 02 00  ......aem0._....
0EE0: 2F 80 80 F7 0E 52 1F 80  F0 FF FF 7F F0 FF FF 7F  /....R..........
0EF0: 61 65 66 30 01 5F 0F 02  02 00 30 80 80 11 0F 52  aef0._....0....R
0F00: 1F 80 F0 FF FF 7F F0 FF  FF 7F 61 74 72 30 01 5F  ..........atr0._
0F10: 0F 02 02 00 31 80 80 2B  0F 52 1F 80 F0 FF FF 7F  ....1..+.R......
0F20: F0 FF FF 7F 61 74 72 30  01 5F 0F 02 02 00 32 80  ....atr0._....2.
0F30: 80 45 0F 52 1F 80 F0 FF  FF 7F F0 FF FF 7F 61 6D  .E.R..........am
0F40: 74 30 01 5F 0F 02 02 00  33 80 80 5F 0F 52 1F 80  t0._....3.._.R..
0F50: F0 FF FF 7F F0 FF FF 7F  61 67 6C 30 01 5F 0F 45  ........agl0._.E
0F60: 1F 80 F0 FF FF 7F F0 FF  FF 7F 61 6C 31 30 01 80  ..........al10..
0F70: 01 73 0F 1C 34 80 45 1F  80 51 E2 06 01 F0 FF FF  .s..4.E..Q......
0F80: 7F 6B 30 34 35 01 80 45  35 80 F0 FF FF 7F F0 FF  .k045..E5.......
0F90: FF 7F 66 64 69 30 01 80  1A B4 67 45 1F 80 F0 FF  ..fdi0....gE....
0FA0: FF 7F F0 FF FF 7F 6B 30  32 37 01 80 9F 2B 80 F8  ......k027...+..
0FB0: FF FF 7F F8 FF FF 7F 6B  69 6C 6C 01 80 BB 28 80  .......kill...(.
0FC0: 51 E2 06 01 F0 FF FF 7F  6B 69 6C 61 01 80 BB 2D  Q.......kila...-
0FD0: 80 F0 FF FF 7F 51 E2 06  01 6B 69 6C 61 01 80 27  .....Q...kila..'
0FE0: 10 4D E2 06 01 06 4E 01  51 E2 06 01 2C 51 E2 06  .M....N.Q...,Q..
0FF0: 01 51 E2 06 01 65 66 6B  6C 7B F0 FF FF 7F 6B 69  .Q...efkl{....ki
1000: 64 6C 30 F0 FF FF 7F 1C  1E 80 92 01 F0 FF FF 7F  dl0.............
1010: 02 00 00 01 80 80 3B 10  52 1F 80 F0 FF FF 7F F0  ......;.R.......
1020: FF FF 7F 6E 6F 31 30 45  1F 80 F0 FF FF 7F F0 FF  ...no10E........
1030: FF 7F 6E 6F 31 31 01 80  01 91 10 02 00 00 0A 80  ..no11..........
1040: 80 66 10 52 1F 80 F0 FF  FF 7F F0 FF FF 7F 72 6F  .f.R..........ro
1050: 31 30 45 1F 80 F0 FF FF  7F F0 FF FF 7F 72 6F 31  10E..........ro1
1060: 31 01 80 01 91 10 02 00  00 12 80 80 91 10 52 1F  1.............R.
1070: 80 F0 FF FF 7F F0 FF FF  7F 61 6C 31 30 45 1F 80  .........al10E..
1080: F0 FF FF 7F F0 FF FF 7F  61 6C 31 31 01 80 01 91  ........al11....
1090: 10 1A 82 66 1C 20 80 02  00 00 01 80 80 91 11 52  ...f. .........R
10A0: 1F 80 F0 FF FF 7F F0 FF  FF 7F 6E 6F 31 31 02 02  ..........no11..
10B0: 00 0A 80 80 CA 10 45 1F  80 F0 FF FF 7F F0 FF FF  ......E.........
10C0: 7F 6E 68 6D 31 01 80 01  8E 11 02 02 00 12 80 80  .nhm1...........
10D0: E6 10 45 1F 80 F0 FF FF  7F F0 FF FF 7F 6E 68 66  ..E..........nhf
10E0: 31 01 80 01 8E 11 02 02  00 2E 80 80 02 11 45 1F  1.............E.
10F0: 80 F0 FF FF 7F F0 FF FF  7F 6E 65 6D 31 01 80 01  .........nem1...
1100: 8E 11 02 02 00 2F 80 80  1E 11 45 1F 80 F0 FF FF  ...../....E.....
1110: 7F F0 FF FF 7F 6E 65 66  31 01 80 01 8E 11 02 02  .....nef1.......
1120: 00 30 80 80 3A 11 45 1F  80 F0 FF FF 7F F0 FF FF  .0..:.E.........
1130: 7F 6E 74 72 31 01 80 01  8E 11 02 02 00 31 80 80  .ntr1........1..
1140: 56 11 45 1F 80 F0 FF FF  7F F0 FF FF 7F 6E 74 72  V.E..........ntr
1150: 31 01 80 01 8E 11 02 02  00 32 80 80 72 11 45 1F  1........2..r.E.
1160: 80 F0 FF FF 7F F0 FF FF  7F 6E 6D 74 31 01 80 01  .........nmt1...
1170: 8E 11 02 02 00 33 80 80  8E 11 45 1F 80 F0 FF FF  .....3....E.....
1180: 7F F0 FF FF 7F 6E 67 6C  31 01 80 01 8E 11 01 85  .....ngl1.......
1190: 13 02 00 00 0A 80 80 8B  12 52 1F 80 F0 FF FF 7F  .........R......
11A0: F0 FF FF 7F 72 6F 31 31  02 02 00 0A 80 80 C4 11  ....ro11........
11B0: 45 1F 80 F0 FF FF 7F F0  FF FF 7F 72 68 6D 31 01  E..........rhm1.
11C0: 80 01 88 12 02 02 00 12  80 80 E0 11 45 1F 80 F0  ............E...
11D0: FF FF 7F F0 FF FF 7F 72  68 66 31 01 80 01 88 12  .......rhf1.....
11E0: 02 02 00 2E 80 80 FC 11  45 1F 80 F0 FF FF 7F F0  ........E.......
11F0: FF FF 7F 72 65 6D 31 01  80 01 88 12 02 02 00 2F  ...rem1......../
1200: 80 80 18 12 45 1F 80 F0  FF FF 7F F0 FF FF 7F 72  ....E..........r
1210: 65 66 31 01 80 01 88 12  02 02 00 30 80 80 34 12  ef1........0..4.
1220: 45 1F 80 F0 FF FF 7F F0  FF FF 7F 72 74 72 31 01  E..........rtr1.
1230: 80 01 88 12 02 02 00 31  80 80 50 12 45 1F 80 F0  .......1..P.E...
1240: FF FF 7F F0 FF FF 7F 72  74 72 31 01 80 01 88 12  .......rtr1.....
1250: 02 02 00 32 80 80 6C 12  45 1F 80 F0 FF FF 7F F0  ...2..l.E.......
1260: FF FF 7F 72 6D 74 31 01  80 01 88 12 02 02 00 33  ...rmt1........3
1270: 80 80 88 12 45 1F 80 F0  FF FF 7F F0 FF FF 7F 72  ....E..........r
1280: 67 6C 31 01 80 01 88 12  01 85 13 02 00 00 12 80  gl1.............
1290: 80 85 13 52 1F 80 F0 FF  FF 7F F0 FF FF 7F 61 6C  ...R..........al
12A0: 31 31 02 02 00 0A 80 80  BE 12 45 1F 80 F0 FF FF  11........E.....
12B0: 7F F0 FF FF 7F 61 68 6D  31 01 80 01 82 13 02 02  .....ahm1.......
12C0: 00 12 80 80 DA 12 45 1F  80 F0 FF FF 7F F0 FF FF  ......E.........
12D0: 7F 61 68 66 31 01 80 01  82 13 02 02 00 2E 80 80  .ahf1...........
12E0: F6 12 45 1F 80 F0 FF FF  7F F0 FF FF 7F 61 65 6D  ..E..........aem
12F0: 31 01 80 01 82 13 02 02  00 2F 80 80 12 13 45 1F  1......../....E.
1300: 80 F0 FF FF 7F F0 FF FF  7F 61 65 66 31 01 80 01  .........aef1...
1310: 82 13 02 02 00 30 80 80  2E 13 45 1F 80 F0 FF FF  .....0....E.....
1320: 7F F0 FF FF 7F 61 74 72  31 01 80 01 82 13 02 02  .....atr1.......
1330: 00 31 80 80 4A 13 45 1F  80 F0 FF FF 7F F0 FF FF  .1..J.E.........
1340: 7F 61 74 72 31 01 80 01  82 13 02 02 00 32 80 80  .atr1........2..
1350: 66 13 45 1F 80 F0 FF FF  7F F0 FF FF 7F 61 6D 74  f.E..........amt
1360: 31 01 80 01 82 13 02 02  00 33 80 80 82 13 45 1F  1........3....E.
1370: 80 F0 FF FF 7F F0 FF FF  7F 61 67 6C 31 01 80 01  .........agl1...
1380: 82 13 01 85 13 5C 00 36  80 5C 01 36 80 9A 1C 34  .....\.6.\.6...4
1390: 80 BB 37 80 F0 FF FF 7F  4D E2 06 01 73 74 30 31  ..7.....M...st01
13A0: 01 80 27 10 F0 FF FF 7F  0B 45 1F 80 F0 FF FF 7F  ..'......E......
13B0: F0 FF FF 7F 6B 69 72 61  01 80 1C 38 80 02 00 00  ....kira...8....
13C0: 01 80 80 A9 14 02 02 00  0A 80 80 DF 13 52 1F 80  .............R..
13D0: F0 FF FF 7F F0 FF FF 7F  6E 68 6D 31 01 95 14 02  ........nhm1....
13E0: 02 00 12 80 80 F9 13 52  1F 80 F0 FF FF 7F F0 FF  .......R........
13F0: FF 7F 6E 68 66 31 01 95  14 02 02 00 2E 80 80 13  ..nhf1..........
1400: 14 52 1F 80 F0 FF FF 7F  F0 FF FF 7F 6E 65 6D 31  .R..........nem1
1410: 01 95 14 02 02 00 2F 80  80 2D 14 52 1F 80 F0 FF  ....../..-.R....
1420: FF 7F F0 FF FF 7F 6E 65  66 31 01 95 14 02 02 00  ......nef1......
1430: 30 80 80 47 14 52 1F 80  F0 FF FF 7F F0 FF FF 7F  0..G.R..........
1440: 6E 74 72 31 01 95 14 02  02 00 31 80 80 61 14 52  ntr1......1..a.R
1450: 1F 80 F0 FF FF 7F F0 FF  FF 7F 6E 74 72 31 01 95  ..........ntr1..
1460: 14 02 02 00 32 80 80 7B  14 52 1F 80 F0 FF FF 7F  ....2..{.R......
1470: F0 FF FF 7F 6E 6D 74 31  01 95 14 02 02 00 33 80  ....nmt1......3.
1480: 80 95 14 52 1F 80 F0 FF  FF 7F F0 FF FF 7F 6E 67  ...R..........ng
1490: 6C 31 01 95 14 45 1F 80  F0 FF FF 7F F0 FF FF 7F  l1...E..........
14A0: 6E 6F 31 32 01 80 01 81  16 02 00 00 0A 80 80 95  no12............
14B0: 15 02 02 00 0A 80 80 CB  14 52 1F 80 F0 FF FF 7F  .........R......
14C0: F0 FF FF 7F 72 68 6D 31  01 81 15 02 02 00 12 80  ....rhm1........
14D0: 80 E5 14 52 1F 80 F0 FF  FF 7F F0 FF FF 7F 72 68  ...R..........rh
14E0: 66 31 01 81 15 02 02 00  2E 80 80 FF 14 52 1F 80  f1...........R..
14F0: F0 FF FF 7F F0 FF FF 7F  72 65 6D 31 01 81 15 02  ........rem1....
1500: 02 00 2F 80 80 19 15 52  1F 80 F0 FF FF 7F F0 FF  ../....R........
1510: FF 7F 72 65 66 31 01 81  15 02 02 00 30 80 80 33  ..ref1......0..3
1520: 15 52 1F 80 F0 FF FF 7F  F0 FF FF 7F 72 74 72 31  .R..........rtr1
1530: 01 81 15 02 02 00 31 80  80 4D 15 52 1F 80 F0 FF  ......1..M.R....
1540: FF 7F F0 FF FF 7F 72 74  72 31 01 81 15 02 02 00  ......rtr1......
1550: 32 80 80 67 15 52 1F 80  F0 FF FF 7F F0 FF FF 7F  2..g.R..........
1560: 72 6D 74 31 01 81 15 02  02 00 33 80 80 81 15 52  rmt1......3....R
1570: 1F 80 F0 FF FF 7F F0 FF  FF 7F 72 67 6C 31 01 81  ..........rgl1..
1580: 15 45 1F 80 F0 FF FF 7F  F0 FF FF 7F 72 6F 31 32  .E..........ro12
1590: 01 80 01 81 16 02 00 00  12 80 80 81 16 02 02 00  ................
15A0: 0A 80 80 B7 15 52 1F 80  F0 FF FF 7F F0 FF FF 7F  .....R..........
15B0: 61 68 6D 31 01 6D 16 02  02 00 12 80 80 D1 15 52  ahm1.m.........R
15C0: 1F 80 F0 FF FF 7F F0 FF  FF 7F 61 68 66 31 01 6D  ..........ahf1.m
15D0: 16 02 02 00 2E 80 80 EB  15 52 1F 80 F0 FF FF 7F  .........R......
15E0: F0 FF FF 7F 61 65 6D 31  01 6D 16 02 02 00 2F 80  ....aem1.m..../.
15F0: 80 05 16 52 1F 80 F0 FF  FF 7F F0 FF FF 7F 61 65  ...R..........ae
1600: 66 31 01 6D 16 02 02 00  30 80 80 1F 16 52 1F 80  f1.m....0....R..
1610: F0 FF FF 7F F0 FF FF 7F  61 74 72 31 01 6D 16 02  ........atr1.m..
1620: 02 00 31 80 80 39 16 52  1F 80 F0 FF FF 7F F0 FF  ..1..9.R........
1630: FF 7F 61 74 72 31 01 6D  16 02 02 00 32 80 80 53  ..atr1.m....2..S
1640: 16 52 1F 80 F0 FF FF 7F  F0 FF FF 7F 61 6D 74 31  .R..........amt1
1650: 01 6D 16 02 02 00 33 80  80 6D 16 52 1F 80 F0 FF  .m....3..m.R....
1660: FF 7F F0 FF FF 7F 61 67  6C 31 01 6D 16 45 1F 80  ......agl1.m.E..
1670: F0 FF FF 7F F0 FF FF 7F  61 6C 31 32 01 80 01 81  ........al12....
1680: 16 1C 20 80 2A 10 F0 FF  FF 7F BB 37 80 F0 FF FF  .. .*......7....
1690: 7F 4D E2 06 01 73 74 30  32 01 80 45 1F 80 4D E2  .M...st02..E..M.
16A0: 06 01 F0 FF FF 7F 36 31  31 32 01 80 1C 38 80 02  ......6112...8..
16B0: 00 00 01 80 80 FD 16 52  1F 80 F0 FF FF 7F F0 FF  .......R........
16C0: FF 7F 6E 6F 31 32 45 1F  80 F0 FF FF 7F F0 FF FF  ..no12E.........
16D0: 7F 6E 6F 31 33 01 80 1C  20 80 52 1F 80 F0 FF FF  .no13... .R.....
16E0: 7F F0 FF FF 7F 6E 6F 31  33 45 1F 80 F0 FF FF 7F  .....no13E......
16F0: F0 FF FF 7F 6E 6F 32 34  01 80 01 99 17 02 00 00  ....no24........
1700: 0A 80 80 4B 17 52 1F 80  F0 FF FF 7F F0 FF FF 7F  ...K.R..........
1710: 72 6F 31 32 45 1F 80 F0  FF FF 7F F0 FF FF 7F 72  ro12E..........r
1720: 6F 31 33 01 80 1C 20 80  52 1F 80 F0 FF FF 7F F0  o13... .R.......
1730: FF FF 7F 72 6F 31 33 45  1F 80 F0 FF FF 7F F0 FF  ...ro13E........
1740: FF 7F 72 6F 32 34 01 80  01 99 17 02 00 00 12 80  ..ro24..........
1750: 80 99 17 52 1F 80 F0 FF  FF 7F F0 FF FF 7F 61 6C  ...R..........al
1760: 31 32 45 1F 80 F0 FF FF  7F F0 FF FF 7F 61 6C 31  12E..........al1
1770: 33 01 80 1C 20 80 52 1F  80 F0 FF FF 7F F0 FF FF  3... .R.........
1780: 7F 61 6C 31 33 45 1F 80  F0 FF FF 7F F0 FF FF 7F  .al13E..........
1790: 61 6C 32 34 01 80 01 99  17 45 1F 80 4D E2 06 01  al24.....E..M...
17A0: F0 FF FF 7F 6B 31 31 32  01 80 5D 01 80 39 80 BB  ....k112..]..9..
17B0: 37 80 F0 FF FF 7F 4D E2  06 01 73 74 30 33 01 80  7.....M...st03..
17C0: 1C 24 80 02 00 00 01 80  80 11 18 52 1F 80 F0 FF  .$.........R....
17D0: FF 7F F0 FF FF 7F 6E 6F  32 34 45 1F 80 F0 FF FF  ......no24E.....
17E0: 7F F0 FF FF 7F 6E 6F 31  34 01 80 1C 3A 80 52 1F  .....no14...:.R.
17F0: 80 F0 FF FF 7F F0 FF FF  7F 6E 6F 31 34 45 1F 80  .........no14E..
1800: F0 FF FF 7F F0 FF FF 7F  6E 6F 31 35 01 80 01 AD  ........no15....
1810: 18 02 00 00 0A 80 80 5F  18 52 1F 80 F0 FF FF 7F  ......._.R......
1820: F0 FF FF 7F 72 6F 32 34  45 1F 80 F0 FF FF 7F F0  ....ro24E.......
1830: FF FF 7F 72 6F 31 34 01  80 1C 3A 80 52 1F 80 F0  ...ro14...:.R...
1840: FF FF 7F F0 FF FF 7F 72  6F 31 34 45 1F 80 F0 FF  .......ro14E....
1850: FF 7F F0 FF FF 7F 72 6F  31 35 01 80 01 AD 18 02  ......ro15......
1860: 00 00 12 80 80 AD 18 52  1F 80 F0 FF FF 7F F0 FF  .......R........
1870: FF 7F 61 6C 32 34 45 1F  80 F0 FF FF 7F F0 FF FF  ..al24E.........
1880: 7F 61 6C 31 34 01 80 1C  3A 80 52 1F 80 F0 FF FF  .al14...:.R.....
1890: 7F F0 FF FF 7F 61 6C 31  34 45 1F 80 F0 FF FF 7F  .....al14E......
18A0: F0 FF FF 7F 61 6C 31 35  01 80 01 AD 18 1C 20 80  ....al15...... .
18B0: 48 3B 80 1C 34 80 1A A3  66 1C 3C 80 52 1F 80 F0  H;..4...f.<.R...
18C0: FF FF 7F F0 FF FF 7F 6E  6F 31 35 52 1F 80 F0 FF  .......no15R....
18D0: FF 7F F0 FF FF 7F 72 6F  31 35 52 1F 80 F0 FF FF  ......ro15R.....
18E0: 7F F0 FF FF 7F 61 6C 31  35 45 1F 80 F0 FF FF 7F  .....al15E......
18F0: F0 FF FF 7F 30 62 6C 66  01 80 1C 1E 80 34 3D 80  ....0blf.....4=.
1900: 77 3E 80 00 80 1C 23 80  AB 09 2D F0 FF FF 7F F0  w>....#...-.....
1910: FF FF 7F 73 74 61 31 2D  F0 FF FF 7F F0 FF FF 7F  ...sta1-........
1920: 73 74 61 32 2D F0 FF FF  7F F0 FF FF 7F 73 74 61  sta2-........sta
1930: 33 2D F0 FF FF 7F F0 FF  FF 7F 73 74 61 34 27 10  3-........sta4'.
1940: 52 E2 06 01 02 27 10 54  E2 06 01 02 92 00 F0 FF  R....'.T........
1950: FF 7F 92 01 52 E2 06 01  94 01 F0 FF FF 7F 94 01  ....R...........
1960: 52 E2 06 01 94 01 54 E2  06 01 BA F0 FF FF 7F 3F  R.....T........?
1970: 80 40 80 41 80 42 80 BA  52 E2 06 01 43 80 44 80  .@.A.B..R...C.D.
1980: 41 80 45 80 29 10 54 E2  06 01 09 80 F0 FF FF 7F  A.E.).T.........
1990: 80 52 E2 06 01 80 54 E2  06 01 81 00 52 E2 06 01  .R....T.....R...
19A0: 1C 23 80 29 10 F0 FF FF  7F 27 5B 46 80 52 E2 06  .#.).....'[F.R..
19B0: 01 52 E2 06 01 65 31 30  30 BB 47 80 52 E2 06 01  .R...e100.G.R...
19C0: 52 E2 06 01 00 FE FE FE  01 80 BB 48 80 54 E2 06  R..........H.T..
19D0: 01 54 E2 06 01 00 FE FE  FE 01 80 1A 61 66 45 26  .T..........afE&
19E0: 80 F0 FF FF 7F F0 FF FF  7F 77 68 69 31 01 80 48  .........whi1..H
19F0: 49 80 23 5C 00 4A 80 5C  01 4A 80 9A 1C 1E 80 45  I.#\.J.\.J.....E
1A00: 1F 80 F0 FF FF 7F F0 FF  FF 7F 65 63 30 30 01 80  ..........ec00..
1A10: 45 35 80 F8 FF FF 7F F8  FF FF 7F 66 64 69 32 01  E5.........fdi2.
1A20: 80 55 1F 80 F0 FF FF 7F  F0 FF FF 7F 65 63 30 30  .U..........ec00
1A30: 45 1F 80 F0 FF FF 7F F0  FF FF 7F 65 63 30 31 01  E..........ec01.
1A40: 80 29 10 F0 FF FF 7F 28  55 1F 80 F0 FF FF 7F F0  .).....(U.......
1A50: FF FF 7F 65 63 30 31 45  1F 80 F0 FF FF 7F F0 FF  ...ec01E........
1A60: FF 7F 65 63 30 32 01 80  29 10 F0 FF FF 7F 0E 1C  ..ec02..).......
1A70: 1E 80 79 00 F0 FF FF 7F  54 E2 06 01 1C 3C 80 52  ..y.....T....<.R
1A80: 1F 80 F0 FF FF 7F F0 FF  FF 7F 65 63 30 32 45 1F  ..........ec02E.
1A90: 80 F0 FF FF 7F F0 FF FF  7F 65 63 32 35 01 80 1C  .........ec25...
1AA0: 27 80 52 1F 80 F0 FF FF  7F F0 FF FF 7F 65 63 32  '.R..........ec2
1AB0: 35 45 1F 80 F0 FF FF 7F  F0 FF FF 7F 65 63 32 36  5E..........ec26
1AC0: 01 80 79 02 F0 FF FF 7F  4B 80 01 80 1C 27 80 52  ..y.....K....'.R
1AD0: 1F 80 F0 FF FF 7F F0 FF  FF 7F 65 63 32 36 45 1F  ..........ec26E.
1AE0: 80 F0 FF FF 7F F0 FF FF  7F 65 63 30 33 01 80 1C  .........ec03...
1AF0: 4C 80 52 1F 80 F0 FF FF  7F F0 FF FF 7F 65 63 30  L.R..........ec0
1B00: 33 45 1F 80 F0 FF FF 7F  F0 FF FF 7F 65 63 30 34  3E..........ec04
1B10: 01 80 1C 34 80 1C 27 80  48 4D 80 1C 34 80 52 1F  ...4..'.HM..4.R.
1B20: 80 F0 FF FF 7F F0 FF FF  7F 65 63 30 34 45 1F 80  .........ec04E..
1B30: F0 FF FF 7F F0 FF FF 7F  65 63 30 35 01 80 1C 34  ........ec05...4
1B40: 80 7B F0 FF FF 7F 27 10  4F E2 06 01 03 2B 4E E2  .{....'.O....+N.
1B50: 06 01 4E 80 23 2A 10 4F  E2 06 01 52 1F 80 F0 FF  ..N.#*.O...R....
1B60: FF 7F F0 FF FF 7F 65 63  30 35 45 1F 80 F0 FF FF  ......ec05E.....
1B70: 7F F0 FF FF 7F 65 63 30  36 01 80 1C 34 80 4A F0  .....ec06...4.J.
1B80: FF FF 7F 52 E2 06 01 6F  76 F0 FF FF 7F 27 10 4F  ...R...ov....'.O
1B90: E2 06 01 03 2B 4E E2 06  01 4F 80 23 2A 10 4F E2  ....+N...O.#*.O.
1BA0: 06 01 52 1F 80 F0 FF FF  7F F0 FF FF 7F 65 63 30  ..R..........ec0
1BB0: 36 45 1F 80 F0 FF FF 7F  F0 FF FF 7F 65 63 30 37  6E..........ec07
1BC0: 01 80 1C 34 80 27 10 4F  E2 06 01 03 2B 4E E2 06  ...4.'.O....+N..
1BD0: 01 50 80 23 2A 10 4F E2  06 01 52 1F 80 F0 FF FF  .P.#*.O...R.....
1BE0: 7F F0 FF FF 7F 65 63 30  37 45 1F 80 F0 FF FF 7F  .....ec07E......
1BF0: F0 FF FF 7F 65 63 30 38  01 80 1C 34 80 27 10 4F  ....ec08...4.'.O
1C00: E2 06 01 03 2B 4E E2 06  01 51 80 23 2A 10 4F E2  ....+N...Q.#*.O.
1C10: 06 01 52 1F 80 F0 FF FF  7F F0 FF FF 7F 65 63 30  ..R..........ec0
1C20: 38 45 1F 80 F0 FF FF 7F  F0 FF FF 7F 65 63 30 39  8E..........ec09
1C30: 01 80 92 01 F0 FF FF 7F  BB 47 80 52 E2 06 01 52  .........G.R...R
1C40: E2 06 01 73 74 30 31 01  80 45 1F 80 52 E2 06 01  ...st01..E..R...
1C50: F0 FF FF 7F 34 30 34 39  01 80 2B 4E E2 06 01 52  ....4049..+N...R
1C60: 80 1C 34 80 6E F0 FF FF  7F 53 80 99 F0 FF FF 7F  ..4.n....S......
1C70: 1C 38 80 52 1F 80 F0 FF  FF 7F F0 FF FF 7F 65 63  .8.R..........ec
1C80: 30 39 45 1F 80 F0 FF FF  7F F0 FF FF 7F 65 63 31  09E..........ec1
1C90: 32 01 80 27 10 F0 FF FF  7F 0F 1C 54 80 52 1F 80  2..'.......T.R..
1CA0: F0 FF FF 7F F0 FF FF 7F  65 63 31 32 45 1F 80 F0  ........ec12E...
1CB0: FF FF 7F F0 FF FF 7F 65  63 31 33 01 80 2A 10 F0  .......ec13..*..
1CC0: FF FF 7F 27 10 F0 FF FF  7F 10 1C 27 80 52 1F 80  ...'.......'.R..
1CD0: F0 FF FF 7F F0 FF FF 7F  65 63 31 33 45 1F 80 F0  ........ec13E...
1CE0: FF FF 7F F0 FF FF 7F 65  63 31 35 01 80 48 55 80  .......ec15..HU.
1CF0: 1C 20 80 52 1F 80 F0 FF  FF 7F F0 FF FF 7F 65 63  . .R..........ec
1D00: 31 35 45 1F 80 F0 FF FF  7F F0 FF FF 7F 65 63 31  15E..........ec1
1D10: 36 01 80 BB 48 80 54 E2  06 01 54 E2 06 01 73 74  6...H.T...T...st
1D20: 30 31 01 80 27 10 F0 FF  FF 7F 11 1C 4A 80 52 1F  01..'.......J.R.
1D30: 80 F0 FF FF 7F F0 FF FF  7F 65 63 31 36 45 1F 80  .........ec16E..
1D40: F0 FF FF 7F F0 FF FF 7F  65 63 31 37 01 80 1C 56  ........ec17...V
1D50: 80 27 10 4F E2 06 01 05  BB 48 80 54 E2 06 01 54  .'.O.....H.T...T
1D60: E2 06 01 73 74 30 32 01  80 45 1F 80 F0 FF FF 7F  ...st02..E......
1D70: F0 FF FF 7F 30 73 70 6C  01 80 1C 57 80 52 1F 80  ....0spl...W.R..
1D80: F0 FF FF 7F F0 FF FF 7F  65 63 31 37 45 1F 80 F0  ........ec17E...
1D90: FF FF 7F F0 FF FF 7F 65  63 31 33 01 80 45 1F 80  .......ec13..E..
1DA0: 52 E2 06 01 F0 FF FF 7F  36 31 33 32 01 80 1C 34  R.......6132...4
1DB0: 80 BB 47 80 52 E2 06 01  52 E2 06 01 73 74 30 32  ..G.R...R...st02
1DC0: 01 80 03 02 10 58 80 27  10 4E E2 06 01 01 1C 34  .....X.'.N.....4
1DD0: 80 52 1F 80 F0 FF FF 7F  F0 FF FF 7F 65 63 31 33  .R..........ec13
1DE0: 45 1F 80 F0 FF FF 7F F0  FF FF 7F 65 63 32 32 01  E..........ec22.
1DF0: 80 1C 27 80 52 1F 80 F0  FF FF 7F F0 FF FF 7F 65  ..'.R..........e
1E00: 63 32 32 45 1F 80 F0 FF  FF 7F F0 FF FF 7F 65 63  c22E..........ec
1E10: 31 39 01 80 2A 10 4E E2  06 01 5B 46 80 52 E2 06  19..*.N...[F.R..
1E20: 01 52 E2 06 01 65 31 30  32 1C 3C 80 2B 52 E2 06  .R...e102.<.+R..
1E30: 01 59 80 23 2B 52 E2 06  01 5A 80 23 52 1F 80 F0  .Y.#+R...Z.#R...
1E40: FF FF 7F F0 FF FF 7F 65  63 31 39 45 1F 80 F0 FF  .......ec19E....
1E50: FF 7F F0 FF FF 7F 65 63  32 30 01 80 1C 3C 80 2B  ......ec20...<.+
1E60: 52 E2 06 01 5B 80 23 1A  61 66 1C 23 80 52 5C 80  R...[.#.af.#.R\.
1E70: F0 FF FF 7F F0 FF FF 7F  65 63 32 30 45 5C 80 F0  ........ec20E\..
1E80: FF FF 7F F0 FF FF 7F 30  62 6C 66 01 80 02 00 00  .......0blf.....
1E90: 01 80 80 9B 1E 35 5D 80  01 B7 1E 02 00 00 0A 80  .....5].........
1EA0: 80 A9 1E 35 5E 80 01 B7  1E 02 00 00 12 80 80 B7  ...5^...........
1EB0: 1E 35 20 80 01 B7 1E 78  1C 0A 80 AB 0A 02 01 00  .5 ....x........
1EC0: 01 80 00 C9 1E 30 01 16  1F 02 00 00 01 80 80 DC  .....0..........
1ED0: 1E 5C 00 1B 80 5C 01 1B  80 01 02 1F 02 00 00 0A  .\...\..........
1EE0: 80 80 EF 1E 5C 00 1C 80  5C 01 1C 80 01 02 1F 02  ....\...\.......
1EF0: 00 00 12 80 80 02 1F 5C  00 1D 80 5C 01 1D 80 01  .......\...\....
1F00: 02 1F 9A 46 00 45 35 80  F0 FF FF 7F F0 FF FF 7F  ...F.E5.........
1F10: 66 64 69 32 01 80 21 00                           fdi2..!.        
```

#### Opcodes

```
  0: 0x0001 [0x42] SET_CLI_EVENT_CANCEL_DATA()
  1: 0x0002 [0x1A] CALL_SUBROUTINE(address=0x6661)
  2: 0x0005 [0x03] ExtData[1]->WorkLocal[0] = Work_Zone[2]
  3: 0x000A [0x03] ExtData[1]->WorkLocal[1] = Work_Zone[9]
  4: 0x000F [0x46] CAMERA_CONTROL: Disable user control
  5: 0x0011 [0x29] REQ_SET_WAIT(priority=0x10, entity_id=LocalPlayer, tag_num=0x2B)
  6: 0x0018 [0x03] ExtData[1]->WorkLocal[2] = Work_Zone[2]
  7: 0x001D [0x38] SET_CLIENT_EVENT_MODE(mode=19*)
  8: 0x0020 [0x27] REQ_SET(priority=0x10, entity_id=Cavernous Maw (ID: 17228369/0x0106E251), tag_num=0x02)
  9: 0x0027 [0x92] Cavernous Maw (ID: 17228365/0x0106E24D)->Render.Flags3 ^= 0x01
 10: 0x002D [0x92] Cavernous Maw (ID: 17228369/0x0106E251)->Render.Flags3 ^= 0x01
 11: 0x0033 [0x94] LocalPlayer->Render.Flags3 ^= 0x01
 12: 0x0039 [0x94] Cavernous Maw (ID: 17228365/0x0106E24D)->Render.Flags3 ^= 0x01
 13: 0x003F [0x94] Cavernous Maw (ID: 17228369/0x0106E251)->Render.Flags3 ^= 0x01
 14: 0x0045 [0x02] IF !(ExtData[1]->WorkLocal[0] == 0*) GOTO 0x006A
 15: 0x004D [0xBA] SET_ENTITY_POSITION(entity_id=LocalPlayer, pos_x=-49.867*, pos_z=436.725*, pos_y=0.291*, direction=356.7*)
 16: 0x005A [0xBA] SET_ENTITY_POSITION(entity_id=Cavernous Maw (ID: 17228369/0x0106E251), pos_x=-45.147*, pos_z=436.919*, pos_y=0.056*, direction=180.0*)
 17: 0x0067 [0x01] GOTO 0x00B4
 18: 0x006A [0x02] IF !(ExtData[1]->WorkLocal[0] == 1*) GOTO 0x008F
 19: 0x0072 [0xBA] SET_ENTITY_POSITION(entity_id=LocalPlayer, pos_x=-198.870*, pos_z=361.059*, pos_y=7.999*, direction=135.6*)
 20: 0x007F [0xBA] SET_ENTITY_POSITION(entity_id=Cavernous Maw (ID: 17228369/0x0106E251), pos_x=-201.984*, pos_z=358.013*, pos_y=7.999*, direction=316.4*)
 21: 0x008C [0x01] GOTO 0x00B4
 22: 0x008F [0x02] IF !(ExtData[1]->WorkLocal[0] == 2*) GOTO 0x00B4
 23: 0x0097 [0xBA] SET_ENTITY_POSITION(entity_id=LocalPlayer, pos_x=369.398*, pos_z=-226.673*, pos_y=8.943*, direction=313.8*)
 24: 0x00A4 [0xBA] SET_ENTITY_POSITION(entity_id=Cavernous Maw (ID: 17228369/0x0106E251), pos_x=372.226*, pos_z=-223.676*, pos_y=9.239*, direction=134.5*)
 25: 0x00B1 [0x01] GOTO 0x00B4

SUBROUTINE_00B4:
 26: 0x00B4 [0x80] LOAD_WAIT(entity=LocalPlayer)
 27: 0x00B9 [0x80] LOAD_WAIT(entity=Cavernous Maw (ID: 17228365/0x0106E24D))
 28: 0x00BE [0x80] LOAD_WAIT(entity=Cavernous Maw (ID: 17228369/0x0106E251))
 29: 0x00C3 [0x02] IF !(ExtData[1]->WorkLocal[0] == 0*) GOTO 0x00D6
 30: 0x00CB [0x5C] MUSIC_CONTROL: Set Idle (Day) music to song 114*
 31: 0x00CF [0x5C] MUSIC_CONTROL: Set Idle (Night) music to song 114*
 32: 0x00D3 [0x01] GOTO 0x00FC
 33: 0x00D6 [0x02] IF !(ExtData[1]->WorkLocal[0] == 1*) GOTO 0x00E9
 34: 0x00DE [0x5C] MUSIC_CONTROL: Set Idle (Day) music to song 118*
 35: 0x00E2 [0x5C] MUSIC_CONTROL: Set Idle (Night) music to song 118*
 36: 0x00E6 [0x01] GOTO 0x00FC
 37: 0x00E9 [0x02] IF !(ExtData[1]->WorkLocal[0] == 2*) GOTO 0x00FC
 38: 0x00F1 [0x5C] MUSIC_CONTROL: Set Idle (Day) music to song 158*
 39: 0x00F5 [0x5C] MUSIC_CONTROL: Set Idle (Night) music to song 158*
 40: 0x00F9 [0x01] GOTO 0x00FC

SUBROUTINE_00FC:
 41: 0x00FC [0x9A] WAIT_MUSIC_SERVER()
 42: 0x00FD [0x1C] WAIT(15* ticks)
 43: 0x0100 [0x2C] CREATE_SCHEDULER_TASK: Create scheduler "efof" with entities [Cavernous Maw (ID: 17228369/0x0106E251), Cavernous Maw (ID: 17228369/0x0106E251)]
 44: 0x010D [0x2C] CREATE_SCHEDULER_TASK: Create scheduler "efkl" with entities [Cavernous Maw (ID: 17228369/0x0106E251), Cavernous Maw (ID: 17228369/0x0106E251)]
 45: 0x011A [0x02] IF !(ExtData[1]->WorkLocal[0] == 0*) GOTO 0x016C
 46: 0x0122 [0x27] REQ_SET(priority=0x10, entity_id=LocalPlayer, tag_num=0x06)
 47: 0x0129 [0x45] LOAD_SCHEDULED_TASK: Load scheduler "no00" with entities [LocalPlayer, LocalPlayer], work=[378*, 0*]
 48: 0x013A [0x1A] CALL_SUBROUTINE(address=0x6640)
 49: 0x013D [0x2A] GET_REQ_LEVEL(level=16, entity_id=LocalPlayer)
 50: 0x0143 [0x55] WAIT_LOAD_SCHEDULER: Wait for scheduler "no00" with entities [LocalPlayer, LocalPlayer], work=378*
 51: 0x0152 [0x45] LOAD_SCHEDULED_TASK: Load scheduler "no02" with entities [LocalPlayer, LocalPlayer], work=[378*, 0*]
 52: 0x0163 [0x1C] WAIT(120* ticks)
 53: 0x0166 [0x48] [System] [7510*]:
     "The vines covering the cavernous maw shudder violently."
 54: 0x0169 [0x01] GOTO 0x0210
 55: 0x016C [0x02] IF !(ExtData[1]->WorkLocal[0] == 1*) GOTO 0x01BE
 56: 0x0174 [0x27] REQ_SET(priority=0x10, entity_id=LocalPlayer, tag_num=0x05)
 57: 0x017B [0x45] LOAD_SCHEDULED_TASK: Load scheduler "ro00" with entities [LocalPlayer, LocalPlayer], work=[378*, 0*]
 58: 0x018C [0x1A] CALL_SUBROUTINE(address=0x6640)
 59: 0x018F [0x2A] GET_REQ_LEVEL(level=16, entity_id=LocalPlayer)
 60: 0x0195 [0x55] WAIT_LOAD_SCHEDULER: Wait for scheduler "ro00" with entities [LocalPlayer, LocalPlayer], work=378*
 61: 0x01A4 [0x45] LOAD_SCHEDULED_TASK: Load scheduler "ro02" with entities [LocalPlayer, LocalPlayer], work=[378*, 0*]
 62: 0x01B5 [0x1C] WAIT(120* ticks)
 63: 0x01B8 [0x48] [System] [7510*]:
     "The vines covering the cavernous maw shudder violently."
 64: 0x01BB [0x01] GOTO 0x0210
 65: 0x01BE [0x02] IF !(ExtData[1]->WorkLocal[0] == 2*) GOTO 0x0210
 66: 0x01C6 [0x27] REQ_SET(priority=0x10, entity_id=LocalPlayer, tag_num=0x07)
 67: 0x01CD [0x45] LOAD_SCHEDULED_TASK: Load scheduler "al01" with entities [LocalPlayer, LocalPlayer], work=[378*, 0*]
 68: 0x01DE [0x1A] CALL_SUBROUTINE(address=0x6640)
 69: 0x01E1 [0x2A] GET_REQ_LEVEL(level=16, entity_id=LocalPlayer)
 70: 0x01E7 [0x55] WAIT_LOAD_SCHEDULER: Wait for scheduler "al01" with entities [LocalPlayer, LocalPlayer], work=378*
 71: 0x01F6 [0x45] LOAD_SCHEDULED_TASK: Load scheduler "al02" with entities [LocalPlayer, LocalPlayer], work=[378*, 0*]
 72: 0x0207 [0x1C] WAIT(120* ticks)
 73: 0x020A [0x48] [System] [7511*]:
     "The mottled surface of the cavernous maw shudders violently."
 74: 0x020D [0x01] GOTO 0x0210

SUBROUTINE_0210:
 75: 0x0210 [0x1C] WAIT(120* ticks)
 76: 0x0213 [0x02] IF !(ExtData[1]->WorkLocal[0] == 0*) GOTO 0x0248
 77: 0x021B [0x27] REQ_SET(priority=0x10, entity_id=LocalPlayer, tag_num=0x09)
 78: 0x0222 [0x1C] WAIT(30* ticks)
 79: 0x0225 [0x52] END_LOAD_SCHEDULER: End scheduler "no02" with entities [LocalPlayer, LocalPlayer], work=378*
 80: 0x0234 [0x45] LOAD_SCHEDULED_TASK: Load scheduler "no03" with entities [LocalPlayer, LocalPlayer], work=[378*, 0*]
 81: 0x0245 [0x01] GOTO 0x02B2
 82: 0x0248 [0x02] IF !(ExtData[1]->WorkLocal[0] == 1*) GOTO 0x027D
 83: 0x0250 [0x27] REQ_SET(priority=0x10, entity_id=LocalPlayer, tag_num=0x08)
 84: 0x0257 [0x1C] WAIT(30* ticks)
 85: 0x025A [0x52] END_LOAD_SCHEDULER: End scheduler "ro02" with entities [LocalPlayer, LocalPlayer], work=378*
 86: 0x0269 [0x45] LOAD_SCHEDULED_TASK: Load scheduler "ro03" with entities [LocalPlayer, LocalPlayer], work=[378*, 0*]
 87: 0x027A [0x01] GOTO 0x02B2
 88: 0x027D [0x02] IF !(ExtData[1]->WorkLocal[0] == 2*) GOTO 0x02B2
 89: 0x0285 [0x27] REQ_SET(priority=0x10, entity_id=LocalPlayer, tag_num=0x0A)
 90: 0x028C [0x1C] WAIT(30* ticks)
 91: 0x028F [0x52] END_LOAD_SCHEDULER: End scheduler "al02" with entities [LocalPlayer, LocalPlayer], work=378*
 92: 0x029E [0x45] LOAD_SCHEDULED_TASK: Load scheduler "al03" with entities [LocalPlayer, LocalPlayer], work=[378*, 0*]
 93: 0x02AF [0x01] GOTO 0x02B2

SUBROUTINE_02B2:
 94: 0x02B2 [0x5D] SET_MUSIC_VOLUME(volume=0*, fade_time=120*)
 95: 0x02B7 [0x1C] WAIT(90* ticks)
 96: 0x02BA [0x1A] CALL_SUBROUTINE(address=0x67B4)
 97: 0x02BD [0x27] REQ_SET(priority=0x10, entity_id=Cavernous Maw (ID: 17228365/0x0106E24D), tag_num=0x07)
 98: 0x02C4 [0x27] REQ_SET(priority=0x10, entity_id=Cavernous Maw (ID: 17228369/0x0106E251), tag_num=0x0B)
 99: 0x02CB [0x2C] CREATE_SCHEDULER_TASK: Create scheduler "efon" with entities [Cavernous Maw (ID: 17228369/0x0106E251), Cavernous Maw (ID: 17228369/0x0106E251)]
100: 0x02D8 [0x1C] WAIT(15* ticks)
101: 0x02DB [0x45] LOAD_SCHEDULED_TASK: Load scheduler "efon" with entities [LocalPlayer, LocalPlayer], work=[215*, 0*]
102: 0x02EC [0x45] LOAD_SCHEDULED_TASK: Load scheduler "whi0" with entities [LocalPlayer, LocalPlayer], work=[201*, 0*]
103: 0x02FD [0x2A] GET_REQ_LEVEL(level=16, entity_id=LocalPlayer)
104: 0x0303 [0x02] IF !(ExtData[1]->WorkLocal[0] == 0*) GOTO 0x035D
105: 0x030B [0x55] WAIT_LOAD_SCHEDULER: Wait for scheduler "no03" with entities [LocalPlayer, LocalPlayer], work=378*
106: 0x031A [0x45] LOAD_SCHEDULED_TASK: Load scheduler "no04" with entities [LocalPlayer, LocalPlayer], work=[378*, 0*]
107: 0x032B [0x4A] LocalPlayer looks at Cavernous Maw (ID: 17228369/0x0106E251)
108: 0x0334 [0x6F] WAIT_FRAME_DELAY: Yield until WaitTime reaches zero
109: 0x0335 [0x76] CHECK_ENTITY_RENDER_FLAGS: Wait until LocalPlayer Render.Flags0 and Render.Flags3 conditions are met
110: 0x033A [0x55] WAIT_LOAD_SCHEDULER: Wait for scheduler "no04" with entities [LocalPlayer, LocalPlayer], work=378*
111: 0x0349 [0x45] LOAD_SCHEDULED_TASK: Load scheduler "no05" with entities [LocalPlayer, LocalPlayer], work=[378*, 0*]
112: 0x035A [0x01] GOTO 0x0411
113: 0x035D [0x02] IF !(ExtData[1]->WorkLocal[0] == 1*) GOTO 0x03B7
114: 0x0365 [0x55] WAIT_LOAD_SCHEDULER: Wait for scheduler "ro03" with entities [LocalPlayer, LocalPlayer], work=378*
115: 0x0374 [0x45] LOAD_SCHEDULED_TASK: Load scheduler "ro04" with entities [LocalPlayer, LocalPlayer], work=[378*, 0*]
116: 0x0385 [0x4A] LocalPlayer looks at Cavernous Maw (ID: 17228369/0x0106E251)
117: 0x038E [0x6F] WAIT_FRAME_DELAY: Yield until WaitTime reaches zero
118: 0x038F [0x76] CHECK_ENTITY_RENDER_FLAGS: Wait until LocalPlayer Render.Flags0 and Render.Flags3 conditions are met
119: 0x0394 [0x55] WAIT_LOAD_SCHEDULER: Wait for scheduler "ro04" with entities [LocalPlayer, LocalPlayer], work=378*
120: 0x03A3 [0x45] LOAD_SCHEDULED_TASK: Load scheduler "ro05" with entities [LocalPlayer, LocalPlayer], work=[378*, 0*]
121: 0x03B4 [0x01] GOTO 0x0411
122: 0x03B7 [0x02] IF !(ExtData[1]->WorkLocal[0] == 2*) GOTO 0x0411
123: 0x03BF [0x55] WAIT_LOAD_SCHEDULER: Wait for scheduler "al03" with entities [LocalPlayer, LocalPlayer], work=378*
124: 0x03CE [0x45] LOAD_SCHEDULED_TASK: Load scheduler "al04" with entities [LocalPlayer, LocalPlayer], work=[378*, 0*]
125: 0x03DF [0x4A] LocalPlayer looks at Cavernous Maw (ID: 17228369/0x0106E251)
126: 0x03E8 [0x6F] WAIT_FRAME_DELAY: Yield until WaitTime reaches zero
127: 0x03E9 [0x76] CHECK_ENTITY_RENDER_FLAGS: Wait until LocalPlayer Render.Flags0 and Render.Flags3 conditions are met
128: 0x03EE [0x55] WAIT_LOAD_SCHEDULER: Wait for scheduler "al04" with entities [LocalPlayer, LocalPlayer], work=378*
129: 0x03FD [0x45] LOAD_SCHEDULED_TASK: Load scheduler "al05" with entities [LocalPlayer, LocalPlayer], work=[378*, 0*]
130: 0x040E [0x01] GOTO 0x0411

SUBROUTINE_0411:
131: 0x0411 [0x45] LOAD_SCHEDULED_TASK: Load scheduler "6115" with entities [Cavernous Maw (ID: 17228369/0x0106E251), LocalPlayer], work=[378*, 0*]
132: 0x0422 [0x27] REQ_SET(priority=0x10, entity_id=LocalPlayer, tag_num=0x0C)
133: 0x0429 [0x1C] WAIT(180* ticks)
134: 0x042C [0x02] IF !(ExtData[1]->WorkLocal[0] == 0*) GOTO 0x0457
135: 0x0434 [0x52] END_LOAD_SCHEDULER: End scheduler "no05" with entities [LocalPlayer, LocalPlayer], work=378*
136: 0x0443 [0x45] LOAD_SCHEDULED_TASK: Load scheduler "no08" with entities [LocalPlayer, LocalPlayer], work=[378*, 0*]
137: 0x0454 [0x01] GOTO 0x04AD
138: 0x0457 [0x02] IF !(ExtData[1]->WorkLocal[0] == 1*) GOTO 0x0482
139: 0x045F [0x52] END_LOAD_SCHEDULER: End scheduler "ro05" with entities [LocalPlayer, LocalPlayer], work=378*
140: 0x046E [0x45] LOAD_SCHEDULED_TASK: Load scheduler "ro08" with entities [LocalPlayer, LocalPlayer], work=[378*, 0*]
141: 0x047F [0x01] GOTO 0x04AD
142: 0x0482 [0x02] IF !(ExtData[1]->WorkLocal[0] == 2*) GOTO 0x04AD
143: 0x048A [0x52] END_LOAD_SCHEDULER: End scheduler "al05" with entities [LocalPlayer, LocalPlayer], work=378*
144: 0x0499 [0x45] LOAD_SCHEDULED_TASK: Load scheduler "al08" with entities [LocalPlayer, LocalPlayer], work=[378*, 0*]
145: 0x04AA [0x01] GOTO 0x04AD

SUBROUTINE_04AD:
146: 0x04AD [0x45] LOAD_SCHEDULED_TASK: Load scheduler "6125" with entities [Cavernous Maw (ID: 17228369/0x0106E251), LocalPlayer], work=[378*, 0*]
147: 0x04BE [0x2C] CREATE_SCHEDULER_TASK: Create scheduler "efkl" with entities [Cavernous Maw (ID: 17228369/0x0106E251), Cavernous Maw (ID: 17228369/0x0106E251)]
148: 0x04CB [0xBB] LOAD_EVENT_SCHEDULER_ALT: Load scheduler "st01" with entities [Cavernous Maw (ID: 17228369/0x0106E251), LocalPlayer], work=[152*, 0*]
149: 0x04DC [0x03] Work_Zone[2] = 600*
150: 0x04E1 [0x27] REQ_SET(priority=0x10, entity_id=??? (ID: 17228366/0x0106E24E), tag_num=0x01)
151: 0x04E8 [0x1C] WAIT(150* ticks)
152: 0x04EB [0x9F] LOAD_SCHEDULED_TASK_ALT: Load scheduler "str0" with entities [EventEntity, EventEntity], work=[127*, 0*]
153: 0x04FC [0x1C] WAIT(30* ticks)
154: 0x04FF [0x2B] Cavernous Maw (ID: 17228369/0x0106E251) [7512*]:
     "GraAaAaaaAAgh!"
155: 0x0506 [0x1C] WAIT(180* ticks)
156: 0x0509 [0x02] IF !(ExtData[1]->WorkLocal[0] == 0*) GOTO 0x0534
157: 0x0511 [0x52] END_LOAD_SCHEDULER: End scheduler "no08" with entities [LocalPlayer, LocalPlayer], work=378*
158: 0x0520 [0x45] LOAD_SCHEDULED_TASK: Load scheduler "no17" with entities [LocalPlayer, LocalPlayer], work=[378*, 0*]
159: 0x0531 [0x01] GOTO 0x058A
160: 0x0534 [0x02] IF !(ExtData[1]->WorkLocal[0] == 1*) GOTO 0x055F
161: 0x053C [0x52] END_LOAD_SCHEDULER: End scheduler "ro08" with entities [LocalPlayer, LocalPlayer], work=378*
162: 0x054B [0x45] LOAD_SCHEDULED_TASK: Load scheduler "ro17" with entities [LocalPlayer, LocalPlayer], work=[378*, 0*]
163: 0x055C [0x01] GOTO 0x058A
164: 0x055F [0x02] IF !(ExtData[1]->WorkLocal[0] == 2*) GOTO 0x058A
165: 0x0567 [0x52] END_LOAD_SCHEDULER: End scheduler "al08" with entities [LocalPlayer, LocalPlayer], work=378*
166: 0x0576 [0x45] LOAD_SCHEDULED_TASK: Load scheduler "al17" with entities [LocalPlayer, LocalPlayer], work=[378*, 0*]
167: 0x0587 [0x01] GOTO 0x058A

SUBROUTINE_058A:
168: 0x058A [0x45] LOAD_SCHEDULED_TASK: Load scheduler "1045" with entities [Cavernous Maw (ID: 17228369/0x0106E251), LocalPlayer], work=[378*, 0*]
169: 0x059B [0x45] LOAD_SCHEDULED_TASK: Load scheduler "6006" with entities [Cavernous Maw (ID: 17228369/0x0106E251), LocalPlayer], work=[378*, 0*]
170: 0x05AC [0x2A] GET_REQ_LEVEL(level=16, entity_id=??? (ID: 17228366/0x0106E24E))
171: 0x05B2 [0x02] IF !(ExtData[1]->WorkLocal[0] == 0*) GOTO 0x05DD
172: 0x05BA [0x52] END_LOAD_SCHEDULER: End scheduler "no17" with entities [LocalPlayer, LocalPlayer], work=378*
173: 0x05C9 [0x45] LOAD_SCHEDULED_TASK: Load scheduler "no09" with entities [LocalPlayer, LocalPlayer], work=[378*, 0*]
174: 0x05DA [0x01] GOTO 0x0633
175: 0x05DD [0x02] IF !(ExtData[1]->WorkLocal[0] == 1*) GOTO 0x0608
176: 0x05E5 [0x52] END_LOAD_SCHEDULER: End scheduler "ro17" with entities [LocalPlayer, LocalPlayer], work=378*
177: 0x05F4 [0x45] LOAD_SCHEDULED_TASK: Load scheduler "ro09" with entities [LocalPlayer, LocalPlayer], work=[378*, 0*]
178: 0x0605 [0x01] GOTO 0x0633
179: 0x0608 [0x02] IF !(ExtData[1]->WorkLocal[0] == 2*) GOTO 0x0633
180: 0x0610 [0x52] END_LOAD_SCHEDULER: End scheduler "al17" with entities [LocalPlayer, LocalPlayer], work=378*
181: 0x061F [0x45] LOAD_SCHEDULED_TASK: Load scheduler "al09" with entities [LocalPlayer, LocalPlayer], work=[378*, 0*]
182: 0x0630 [0x01] GOTO 0x0633

SUBROUTINE_0633:
183: 0x0633 [0x45] LOAD_SCHEDULED_TASK: Load scheduler "k125" with entities [Cavernous Maw (ID: 17228369/0x0106E251), LocalPlayer], work=[378*, 0*]
184: 0x0644 [0xBB] LOAD_EVENT_SCHEDULER_ALT: Load scheduler "st01" with entities [LocalPlayer, Cavernous Maw (ID: 17228369/0x0106E251)], work=[153*, 0*]
185: 0x0655 [0x27] REQ_SET(priority=0x10, entity_id=LocalPlayer, tag_num=0x0D)
186: 0x065C [0x1C] WAIT(120* ticks)
187: 0x065F [0x02] IF !(ExtData[1]->WorkLocal[0] == 0*) GOTO 0x0871
188: 0x0667 [0x52] END_LOAD_SCHEDULER: End scheduler "no09" with entities [LocalPlayer, LocalPlayer], work=378*
189: 0x0676 [0x02] IF !(ExtData[1]->WorkLocal[2] == 1*) GOTO 0x06B5
190: 0x067E [0x45] LOAD_SCHEDULED_TASK: Load scheduler "nhm2" with entities [LocalPlayer, LocalPlayer], work=[378*, 0*]
191: 0x068F [0x1C] WAIT(90* ticks)
192: 0x0692 [0x52] END_LOAD_SCHEDULER: End scheduler "nhm2" with entities [LocalPlayer, LocalPlayer], work=378*
193: 0x06A1 [0x45] LOAD_SCHEDULED_TASK: Load scheduler "nhm0" with entities [LocalPlayer, LocalPlayer], work=[378*, 0*]
194: 0x06B2 [0x01] GOTO 0x086E
195: 0x06B5 [0x02] IF !(ExtData[1]->WorkLocal[2] == 2*) GOTO 0x06F4
196: 0x06BD [0x45] LOAD_SCHEDULED_TASK: Load scheduler "nhf2" with entities [LocalPlayer, LocalPlayer], work=[378*, 0*]
197: 0x06CE [0x1C] WAIT(90* ticks)
198: 0x06D1 [0x52] END_LOAD_SCHEDULER: End scheduler "nhf2" with entities [LocalPlayer, LocalPlayer], work=378*
199: 0x06E0 [0x45] LOAD_SCHEDULED_TASK: Load scheduler "nhf0" with entities [LocalPlayer, LocalPlayer], work=[378*, 0*]
200: 0x06F1 [0x01] GOTO 0x086E
201: 0x06F4 [0x02] IF !(ExtData[1]->WorkLocal[2] == 3*) GOTO 0x0733
202: 0x06FC [0x45] LOAD_SCHEDULED_TASK: Load scheduler "nem2" with entities [LocalPlayer, LocalPlayer], work=[378*, 0*]
203: 0x070D [0x1C] WAIT(90* ticks)
204: 0x0710 [0x52] END_LOAD_SCHEDULER: End scheduler "nem2" with entities [LocalPlayer, LocalPlayer], work=378*
205: 0x071F [0x45] LOAD_SCHEDULED_TASK: Load scheduler "nem0" with entities [LocalPlayer, LocalPlayer], work=[378*, 0*]
206: 0x0730 [0x01] GOTO 0x086E
207: 0x0733 [0x02] IF !(ExtData[1]->WorkLocal[2] == 4*) GOTO 0x0772
208: 0x073B [0x45] LOAD_SCHEDULED_TASK: Load scheduler "nef2" with entities [LocalPlayer, LocalPlayer], work=[378*, 0*]
209: 0x074C [0x1C] WAIT(90* ticks)
210: 0x074F [0x52] END_LOAD_SCHEDULER: End scheduler "nef2" with entities [LocalPlayer, LocalPlayer], work=378*
211: 0x075E [0x45] LOAD_SCHEDULED_TASK: Load scheduler "nef0" with entities [LocalPlayer, LocalPlayer], work=[378*, 0*]
212: 0x076F [0x01] GOTO 0x086E
213: 0x0772 [0x02] IF !(ExtData[1]->WorkLocal[2] == 5*) GOTO 0x07B1
214: 0x077A [0x45] LOAD_SCHEDULED_TASK: Load scheduler "ntr2" with entities [LocalPlayer, LocalPlayer], work=[378*, 0*]
215: 0x078B [0x1C] WAIT(90* ticks)
216: 0x078E [0x52] END_LOAD_SCHEDULER: End scheduler "ntr2" with entities [LocalPlayer, LocalPlayer], work=378*
217: 0x079D [0x45] LOAD_SCHEDULED_TASK: Load scheduler "ntr0" with entities [LocalPlayer, LocalPlayer], work=[378*, 0*]
218: 0x07AE [0x01] GOTO 0x086E
219: 0x07B1 [0x02] IF !(ExtData[1]->WorkLocal[2] == 6*) GOTO 0x07F0
220: 0x07B9 [0x45] LOAD_SCHEDULED_TASK: Load scheduler "ntr2" with entities [LocalPlayer, LocalPlayer], work=[378*, 0*]
221: 0x07CA [0x1C] WAIT(90* ticks)
222: 0x07CD [0x52] END_LOAD_SCHEDULER: End scheduler "ntr2" with entities [LocalPlayer, LocalPlayer], work=378*
223: 0x07DC [0x45] LOAD_SCHEDULED_TASK: Load scheduler "ntr0" with entities [LocalPlayer, LocalPlayer], work=[378*, 0*]
224: 0x07ED [0x01] GOTO 0x086E
225: 0x07F0 [0x02] IF !(ExtData[1]->WorkLocal[2] == 7*) GOTO 0x082F
226: 0x07F8 [0x45] LOAD_SCHEDULED_TASK: Load scheduler "nmt2" with entities [LocalPlayer, LocalPlayer], work=[378*, 0*]
227: 0x0809 [0x1C] WAIT(90* ticks)
228: 0x080C [0x52] END_LOAD_SCHEDULER: End scheduler "nmt2" with entities [LocalPlayer, LocalPlayer], work=378*
229: 0x081B [0x45] LOAD_SCHEDULED_TASK: Load scheduler "nmt0" with entities [LocalPlayer, LocalPlayer], work=[378*, 0*]
230: 0x082C [0x01] GOTO 0x086E
231: 0x082F [0x02] IF !(ExtData[1]->WorkLocal[2] == 8*) GOTO 0x086E
232: 0x0837 [0x45] LOAD_SCHEDULED_TASK: Load scheduler "ngl2" with entities [LocalPlayer, LocalPlayer], work=[378*, 0*]
233: 0x0848 [0x1C] WAIT(90* ticks)
234: 0x084B [0x52] END_LOAD_SCHEDULER: End scheduler "ngl2" with entities [LocalPlayer, LocalPlayer], work=378*
235: 0x085A [0x45] LOAD_SCHEDULED_TASK: Load scheduler "ngl0" with entities [LocalPlayer, LocalPlayer], work=[378*, 0*]
236: 0x086B [0x01] GOTO 0x086E

SUBROUTINE_086E:
237: 0x086E [0x01] GOTO 0x0C95
238: 0x0871 [0x02] IF !(ExtData[1]->WorkLocal[0] == 1*) GOTO 0x0A83
239: 0x0879 [0x52] END_LOAD_SCHEDULER: End scheduler "ro09" with entities [LocalPlayer, LocalPlayer], work=378*
240: 0x0888 [0x02] IF !(ExtData[1]->WorkLocal[2] == 1*) GOTO 0x08C7
241: 0x0890 [0x45] LOAD_SCHEDULED_TASK: Load scheduler "rhm2" with entities [LocalPlayer, LocalPlayer], work=[378*, 0*]
242: 0x08A1 [0x1C] WAIT(90* ticks)
243: 0x08A4 [0x52] END_LOAD_SCHEDULER: End scheduler "rhm2" with entities [LocalPlayer, LocalPlayer], work=378*
244: 0x08B3 [0x45] LOAD_SCHEDULED_TASK: Load scheduler "rhm0" with entities [LocalPlayer, LocalPlayer], work=[378*, 0*]
245: 0x08C4 [0x01] GOTO 0x0A80
246: 0x08C7 [0x02] IF !(ExtData[1]->WorkLocal[2] == 2*) GOTO 0x0906
247: 0x08CF [0x45] LOAD_SCHEDULED_TASK: Load scheduler "rhf2" with entities [LocalPlayer, LocalPlayer], work=[378*, 0*]
248: 0x08E0 [0x1C] WAIT(90* ticks)
249: 0x08E3 [0x52] END_LOAD_SCHEDULER: End scheduler "rhf2" with entities [LocalPlayer, LocalPlayer], work=378*
250: 0x08F2 [0x45] LOAD_SCHEDULED_TASK: Load scheduler "rhf0" with entities [LocalPlayer, LocalPlayer], work=[378*, 0*]
251: 0x0903 [0x01] GOTO 0x0A80
252: 0x0906 [0x02] IF !(ExtData[1]->WorkLocal[2] == 3*) GOTO 0x0945
253: 0x090E [0x45] LOAD_SCHEDULED_TASK: Load scheduler "rem2" with entities [LocalPlayer, LocalPlayer], work=[378*, 0*]
254: 0x091F [0x1C] WAIT(90* ticks)
255: 0x0922 [0x52] END_LOAD_SCHEDULER: End scheduler "rem2" with entities [LocalPlayer, LocalPlayer], work=378*
256: 0x0931 [0x45] LOAD_SCHEDULED_TASK: Load scheduler "rem0" with entities [LocalPlayer, LocalPlayer], work=[378*, 0*]
257: 0x0942 [0x01] GOTO 0x0A80
258: 0x0945 [0x02] IF !(ExtData[1]->WorkLocal[2] == 4*) GOTO 0x0984
259: 0x094D [0x45] LOAD_SCHEDULED_TASK: Load scheduler "ref2" with entities [LocalPlayer, LocalPlayer], work=[378*, 0*]
260: 0x095E [0x1C] WAIT(90* ticks)
261: 0x0961 [0x52] END_LOAD_SCHEDULER: End scheduler "ref2" with entities [LocalPlayer, LocalPlayer], work=378*
262: 0x0970 [0x45] LOAD_SCHEDULED_TASK: Load scheduler "ref0" with entities [LocalPlayer, LocalPlayer], work=[378*, 0*]
263: 0x0981 [0x01] GOTO 0x0A80
264: 0x0984 [0x02] IF !(ExtData[1]->WorkLocal[2] == 5*) GOTO 0x09C3
265: 0x098C [0x45] LOAD_SCHEDULED_TASK: Load scheduler "rtr2" with entities [LocalPlayer, LocalPlayer], work=[378*, 0*]
266: 0x099D [0x1C] WAIT(90* ticks)
267: 0x09A0 [0x52] END_LOAD_SCHEDULER: End scheduler "rtr2" with entities [LocalPlayer, LocalPlayer], work=378*
268: 0x09AF [0x45] LOAD_SCHEDULED_TASK: Load scheduler "rtr0" with entities [LocalPlayer, LocalPlayer], work=[378*, 0*]
269: 0x09C0 [0x01] GOTO 0x0A80
270: 0x09C3 [0x02] IF !(ExtData[1]->WorkLocal[2] == 6*) GOTO 0x0A02
271: 0x09CB [0x45] LOAD_SCHEDULED_TASK: Load scheduler "rtr2" with entities [LocalPlayer, LocalPlayer], work=[378*, 0*]
272: 0x09DC [0x1C] WAIT(90* ticks)
273: 0x09DF [0x52] END_LOAD_SCHEDULER: End scheduler "rtr2" with entities [LocalPlayer, LocalPlayer], work=378*
274: 0x09EE [0x45] LOAD_SCHEDULED_TASK: Load scheduler "rtr0" with entities [LocalPlayer, LocalPlayer], work=[378*, 0*]
275: 0x09FF [0x01] GOTO 0x0A80
276: 0x0A02 [0x02] IF !(ExtData[1]->WorkLocal[2] == 7*) GOTO 0x0A41
277: 0x0A0A [0x45] LOAD_SCHEDULED_TASK: Load scheduler "rmt2" with entities [LocalPlayer, LocalPlayer], work=[378*, 0*]
278: 0x0A1B [0x1C] WAIT(90* ticks)
279: 0x0A1E [0x52] END_LOAD_SCHEDULER: End scheduler "rmt2" with entities [LocalPlayer, LocalPlayer], work=378*
280: 0x0A2D [0x45] LOAD_SCHEDULED_TASK: Load scheduler "rmt0" with entities [LocalPlayer, LocalPlayer], work=[378*, 0*]
281: 0x0A3E [0x01] GOTO 0x0A80
282: 0x0A41 [0x02] IF !(ExtData[1]->WorkLocal[2] == 8*) GOTO 0x0A80
283: 0x0A49 [0x45] LOAD_SCHEDULED_TASK: Load scheduler "rgl2" with entities [LocalPlayer, LocalPlayer], work=[378*, 0*]
284: 0x0A5A [0x1C] WAIT(90* ticks)
285: 0x0A5D [0x52] END_LOAD_SCHEDULER: End scheduler "rgl2" with entities [LocalPlayer, LocalPlayer], work=378*
286: 0x0A6C [0x45] LOAD_SCHEDULED_TASK: Load scheduler "rgl0" with entities [LocalPlayer, LocalPlayer], work=[378*, 0*]
287: 0x0A7D [0x01] GOTO 0x0A80

SUBROUTINE_0A80:
288: 0x0A80 [0x01] GOTO 0x0C95
289: 0x0A83 [0x02] IF !(ExtData[1]->WorkLocal[0] == 2*) GOTO 0x0C95
290: 0x0A8B [0x52] END_LOAD_SCHEDULER: End scheduler "al09" with entities [LocalPlayer, LocalPlayer], work=378*
291: 0x0A9A [0x02] IF !(ExtData[1]->WorkLocal[2] == 1*) GOTO 0x0AD9
292: 0x0AA2 [0x45] LOAD_SCHEDULED_TASK: Load scheduler "ahm2" with entities [LocalPlayer, LocalPlayer], work=[378*, 0*]
293: 0x0AB3 [0x1C] WAIT(90* ticks)
294: 0x0AB6 [0x52] END_LOAD_SCHEDULER: End scheduler "ahm2" with entities [LocalPlayer, LocalPlayer], work=378*
295: 0x0AC5 [0x45] LOAD_SCHEDULED_TASK: Load scheduler "ahm0" with entities [LocalPlayer, LocalPlayer], work=[378*, 0*]
296: 0x0AD6 [0x01] GOTO 0x0C92
297: 0x0AD9 [0x02] IF !(ExtData[1]->WorkLocal[2] == 2*) GOTO 0x0B18
298: 0x0AE1 [0x45] LOAD_SCHEDULED_TASK: Load scheduler "ahf2" with entities [LocalPlayer, LocalPlayer], work=[378*, 0*]
299: 0x0AF2 [0x1C] WAIT(90* ticks)
300: 0x0AF5 [0x52] END_LOAD_SCHEDULER: End scheduler "ahf2" with entities [LocalPlayer, LocalPlayer], work=378*
301: 0x0B04 [0x45] LOAD_SCHEDULED_TASK: Load scheduler "ahf0" with entities [LocalPlayer, LocalPlayer], work=[378*, 0*]
302: 0x0B15 [0x01] GOTO 0x0C92
303: 0x0B18 [0x02] IF !(ExtData[1]->WorkLocal[2] == 3*) GOTO 0x0B57
304: 0x0B20 [0x45] LOAD_SCHEDULED_TASK: Load scheduler "aem2" with entities [LocalPlayer, LocalPlayer], work=[378*, 0*]
305: 0x0B31 [0x1C] WAIT(90* ticks)
306: 0x0B34 [0x52] END_LOAD_SCHEDULER: End scheduler "aem2" with entities [LocalPlayer, LocalPlayer], work=378*
307: 0x0B43 [0x45] LOAD_SCHEDULED_TASK: Load scheduler "aem0" with entities [LocalPlayer, LocalPlayer], work=[378*, 0*]
308: 0x0B54 [0x01] GOTO 0x0C92
309: 0x0B57 [0x02] IF !(ExtData[1]->WorkLocal[2] == 4*) GOTO 0x0B96
310: 0x0B5F [0x45] LOAD_SCHEDULED_TASK: Load scheduler "aef2" with entities [LocalPlayer, LocalPlayer], work=[378*, 0*]
311: 0x0B70 [0x1C] WAIT(90* ticks)
312: 0x0B73 [0x52] END_LOAD_SCHEDULER: End scheduler "aef2" with entities [LocalPlayer, LocalPlayer], work=378*
313: 0x0B82 [0x45] LOAD_SCHEDULED_TASK: Load scheduler "aef0" with entities [LocalPlayer, LocalPlayer], work=[378*, 0*]
314: 0x0B93 [0x01] GOTO 0x0C92
315: 0x0B96 [0x02] IF !(ExtData[1]->WorkLocal[2] == 5*) GOTO 0x0BD5
316: 0x0B9E [0x45] LOAD_SCHEDULED_TASK: Load scheduler "atr2" with entities [LocalPlayer, LocalPlayer], work=[378*, 0*]
317: 0x0BAF [0x1C] WAIT(90* ticks)
318: 0x0BB2 [0x52] END_LOAD_SCHEDULER: End scheduler "atr2" with entities [LocalPlayer, LocalPlayer], work=378*
319: 0x0BC1 [0x45] LOAD_SCHEDULED_TASK: Load scheduler "atr0" with entities [LocalPlayer, LocalPlayer], work=[378*, 0*]
320: 0x0BD2 [0x01] GOTO 0x0C92
321: 0x0BD5 [0x02] IF !(ExtData[1]->WorkLocal[2] == 6*) GOTO 0x0C14
322: 0x0BDD [0x45] LOAD_SCHEDULED_TASK: Load scheduler "atr2" with entities [LocalPlayer, LocalPlayer], work=[378*, 0*]
323: 0x0BEE [0x1C] WAIT(90* ticks)
324: 0x0BF1 [0x52] END_LOAD_SCHEDULER: End scheduler "atr2" with entities [LocalPlayer, LocalPlayer], work=378*
325: 0x0C00 [0x45] LOAD_SCHEDULED_TASK: Load scheduler "atr0" with entities [LocalPlayer, LocalPlayer], work=[378*, 0*]
326: 0x0C11 [0x01] GOTO 0x0C92
327: 0x0C14 [0x02] IF !(ExtData[1]->WorkLocal[2] == 7*) GOTO 0x0C53
328: 0x0C1C [0x45] LOAD_SCHEDULED_TASK: Load scheduler "amt2" with entities [LocalPlayer, LocalPlayer], work=[378*, 0*]
329: 0x0C2D [0x1C] WAIT(90* ticks)
330: 0x0C30 [0x52] END_LOAD_SCHEDULER: End scheduler "amt2" with entities [LocalPlayer, LocalPlayer], work=378*
331: 0x0C3F [0x45] LOAD_SCHEDULED_TASK: Load scheduler "amt0" with entities [LocalPlayer, LocalPlayer], work=[378*, 0*]
332: 0x0C50 [0x01] GOTO 0x0C92
333: 0x0C53 [0x02] IF !(ExtData[1]->WorkLocal[2] == 8*) GOTO 0x0C92
334: 0x0C5B [0x45] LOAD_SCHEDULED_TASK: Load scheduler "agl2" with entities [LocalPlayer, LocalPlayer], work=[378*, 0*]
335: 0x0C6C [0x1C] WAIT(90* ticks)
336: 0x0C6F [0x52] END_LOAD_SCHEDULER: End scheduler "agl2" with entities [LocalPlayer, LocalPlayer], work=378*
337: 0x0C7E [0x45] LOAD_SCHEDULED_TASK: Load scheduler "agl0" with entities [LocalPlayer, LocalPlayer], work=[378*, 0*]
338: 0x0C8F [0x01] GOTO 0x0C92

SUBROUTINE_0C92:
339: 0x0C92 [0x01] GOTO 0x0C95

SUBROUTINE_0C95:
340: 0x0C95 [0x45] LOAD_SCHEDULED_TASK: Load scheduler "6102" with entities [LocalPlayer, LocalPlayer], work=[378*, 0*]
341: 0x0CA6 [0x2A] GET_REQ_LEVEL(level=16, entity_id=LocalPlayer)
342: 0x0CAC [0x1C] WAIT(60* ticks)
343: 0x0CAF [0x02] IF !(ExtData[1]->WorkLocal[0] == 0*) GOTO 0x0D9B
344: 0x0CB7 [0x02] IF !(ExtData[1]->WorkLocal[2] == 1*) GOTO 0x0CD1
345: 0x0CBF [0x52] END_LOAD_SCHEDULER: End scheduler "rhm0" with entities [LocalPlayer, LocalPlayer], work=378*
346: 0x0CCE [0x01] GOTO 0x0D87
347: 0x0CD1 [0x02] IF !(ExtData[1]->WorkLocal[2] == 2*) GOTO 0x0CEB
348: 0x0CD9 [0x52] END_LOAD_SCHEDULER: End scheduler "rhf0" with entities [LocalPlayer, LocalPlayer], work=378*
349: 0x0CE8 [0x01] GOTO 0x0D87
350: 0x0CEB [0x02] IF !(ExtData[1]->WorkLocal[2] == 3*) GOTO 0x0D05
351: 0x0CF3 [0x52] END_LOAD_SCHEDULER: End scheduler "rem0" with entities [LocalPlayer, LocalPlayer], work=378*
352: 0x0D02 [0x01] GOTO 0x0D87
353: 0x0D05 [0x02] IF !(ExtData[1]->WorkLocal[2] == 4*) GOTO 0x0D1F
354: 0x0D0D [0x52] END_LOAD_SCHEDULER: End scheduler "ref0" with entities [LocalPlayer, LocalPlayer], work=378*
355: 0x0D1C [0x01] GOTO 0x0D87
356: 0x0D1F [0x02] IF !(ExtData[1]->WorkLocal[2] == 5*) GOTO 0x0D39
357: 0x0D27 [0x52] END_LOAD_SCHEDULER: End scheduler "rtr0" with entities [LocalPlayer, LocalPlayer], work=378*
358: 0x0D36 [0x01] GOTO 0x0D87
359: 0x0D39 [0x02] IF !(ExtData[1]->WorkLocal[2] == 6*) GOTO 0x0D53
360: 0x0D41 [0x52] END_LOAD_SCHEDULER: End scheduler "rtr0" with entities [LocalPlayer, LocalPlayer], work=378*
361: 0x0D50 [0x01] GOTO 0x0D87
362: 0x0D53 [0x02] IF !(ExtData[1]->WorkLocal[2] == 7*) GOTO 0x0D6D
363: 0x0D5B [0x52] END_LOAD_SCHEDULER: End scheduler "rmt0" with entities [LocalPlayer, LocalPlayer], work=378*
364: 0x0D6A [0x01] GOTO 0x0D87
365: 0x0D6D [0x02] IF !(ExtData[1]->WorkLocal[2] == 8*) GOTO 0x0D87
366: 0x0D75 [0x52] END_LOAD_SCHEDULER: End scheduler "rgl0" with entities [LocalPlayer, LocalPlayer], work=378*
367: 0x0D84 [0x01] GOTO 0x0D87

SUBROUTINE_0D87:
368: 0x0D87 [0x45] LOAD_SCHEDULED_TASK: Load scheduler "no10" with entities [LocalPlayer, LocalPlayer], work=[378*, 0*]
369: 0x0D98 [0x01] GOTO 0x0F73
370: 0x0D9B [0x02] IF !(ExtData[1]->WorkLocal[0] == 1*) GOTO 0x0E87
371: 0x0DA3 [0x02] IF !(ExtData[1]->WorkLocal[2] == 1*) GOTO 0x0DBD
372: 0x0DAB [0x52] END_LOAD_SCHEDULER: End scheduler "rhm0" with entities [LocalPlayer, LocalPlayer], work=378*
373: 0x0DBA [0x01] GOTO 0x0E73
374: 0x0DBD [0x02] IF !(ExtData[1]->WorkLocal[2] == 2*) GOTO 0x0DD7
375: 0x0DC5 [0x52] END_LOAD_SCHEDULER: End scheduler "rhf0" with entities [LocalPlayer, LocalPlayer], work=378*
376: 0x0DD4 [0x01] GOTO 0x0E73
377: 0x0DD7 [0x02] IF !(ExtData[1]->WorkLocal[2] == 3*) GOTO 0x0DF1
378: 0x0DDF [0x52] END_LOAD_SCHEDULER: End scheduler "rem0" with entities [LocalPlayer, LocalPlayer], work=378*
379: 0x0DEE [0x01] GOTO 0x0E73
380: 0x0DF1 [0x02] IF !(ExtData[1]->WorkLocal[2] == 4*) GOTO 0x0E0B
381: 0x0DF9 [0x52] END_LOAD_SCHEDULER: End scheduler "ref0" with entities [LocalPlayer, LocalPlayer], work=378*
382: 0x0E08 [0x01] GOTO 0x0E73
383: 0x0E0B [0x02] IF !(ExtData[1]->WorkLocal[2] == 5*) GOTO 0x0E25
384: 0x0E13 [0x52] END_LOAD_SCHEDULER: End scheduler "rtr0" with entities [LocalPlayer, LocalPlayer], work=378*
385: 0x0E22 [0x01] GOTO 0x0E73
386: 0x0E25 [0x02] IF !(ExtData[1]->WorkLocal[2] == 6*) GOTO 0x0E3F
387: 0x0E2D [0x52] END_LOAD_SCHEDULER: End scheduler "rtr0" with entities [LocalPlayer, LocalPlayer], work=378*
388: 0x0E3C [0x01] GOTO 0x0E73
389: 0x0E3F [0x02] IF !(ExtData[1]->WorkLocal[2] == 7*) GOTO 0x0E59
390: 0x0E47 [0x52] END_LOAD_SCHEDULER: End scheduler "rmt0" with entities [LocalPlayer, LocalPlayer], work=378*
391: 0x0E56 [0x01] GOTO 0x0E73
392: 0x0E59 [0x02] IF !(ExtData[1]->WorkLocal[2] == 8*) GOTO 0x0E73
393: 0x0E61 [0x52] END_LOAD_SCHEDULER: End scheduler "rgl0" with entities [LocalPlayer, LocalPlayer], work=378*
394: 0x0E70 [0x01] GOTO 0x0E73

SUBROUTINE_0E73:
395: 0x0E73 [0x45] LOAD_SCHEDULED_TASK: Load scheduler "ro10" with entities [LocalPlayer, LocalPlayer], work=[378*, 0*]
396: 0x0E84 [0x01] GOTO 0x0F73
397: 0x0E87 [0x02] IF !(ExtData[1]->WorkLocal[0] == 2*) GOTO 0x0F73
398: 0x0E8F [0x02] IF !(ExtData[1]->WorkLocal[2] == 1*) GOTO 0x0EA9
399: 0x0E97 [0x52] END_LOAD_SCHEDULER: End scheduler "ahm0" with entities [LocalPlayer, LocalPlayer], work=378*
400: 0x0EA6 [0x01] GOTO 0x0F5F
401: 0x0EA9 [0x02] IF !(ExtData[1]->WorkLocal[2] == 2*) GOTO 0x0EC3
402: 0x0EB1 [0x52] END_LOAD_SCHEDULER: End scheduler "ahf0" with entities [LocalPlayer, LocalPlayer], work=378*
403: 0x0EC0 [0x01] GOTO 0x0F5F
404: 0x0EC3 [0x02] IF !(ExtData[1]->WorkLocal[2] == 3*) GOTO 0x0EDD
405: 0x0ECB [0x52] END_LOAD_SCHEDULER: End scheduler "aem0" with entities [LocalPlayer, LocalPlayer], work=378*
406: 0x0EDA [0x01] GOTO 0x0F5F
407: 0x0EDD [0x02] IF !(ExtData[1]->WorkLocal[2] == 4*) GOTO 0x0EF7
408: 0x0EE5 [0x52] END_LOAD_SCHEDULER: End scheduler "aef0" with entities [LocalPlayer, LocalPlayer], work=378*
409: 0x0EF4 [0x01] GOTO 0x0F5F
410: 0x0EF7 [0x02] IF !(ExtData[1]->WorkLocal[2] == 5*) GOTO 0x0F11
411: 0x0EFF [0x52] END_LOAD_SCHEDULER: End scheduler "atr0" with entities [LocalPlayer, LocalPlayer], work=378*
412: 0x0F0E [0x01] GOTO 0x0F5F
413: 0x0F11 [0x02] IF !(ExtData[1]->WorkLocal[2] == 6*) GOTO 0x0F2B
414: 0x0F19 [0x52] END_LOAD_SCHEDULER: End scheduler "atr0" with entities [LocalPlayer, LocalPlayer], work=378*
415: 0x0F28 [0x01] GOTO 0x0F5F
416: 0x0F2B [0x02] IF !(ExtData[1]->WorkLocal[2] == 7*) GOTO 0x0F45
417: 0x0F33 [0x52] END_LOAD_SCHEDULER: End scheduler "amt0" with entities [LocalPlayer, LocalPlayer], work=378*
418: 0x0F42 [0x01] GOTO 0x0F5F
419: 0x0F45 [0x02] IF !(ExtData[1]->WorkLocal[2] == 8*) GOTO 0x0F5F
420: 0x0F4D [0x52] END_LOAD_SCHEDULER: End scheduler "agl0" with entities [LocalPlayer, LocalPlayer], work=378*
421: 0x0F5C [0x01] GOTO 0x0F5F

SUBROUTINE_0F5F:
422: 0x0F5F [0x45] LOAD_SCHEDULED_TASK: Load scheduler "al10" with entities [LocalPlayer, LocalPlayer], work=[378*, 0*]
423: 0x0F70 [0x01] GOTO 0x0F73

SUBROUTINE_0F73:
424: 0x0F73 [0x1C] WAIT(60* ticks)
425: 0x0F76 [0x45] LOAD_SCHEDULED_TASK: Load scheduler "k045" with entities [Cavernous Maw (ID: 17228369/0x0106E251), LocalPlayer], work=[378*, 0*]
426: 0x0F87 [0x45] LOAD_SCHEDULED_TASK: Load scheduler "fdi0" with entities [LocalPlayer, LocalPlayer], work=[200*, 0*]
427: 0x0F98 [0x1A] CALL_SUBROUTINE(address=0x67B4)
428: 0x0F9B [0x45] LOAD_SCHEDULED_TASK: Load scheduler "k027" with entities [LocalPlayer, LocalPlayer], work=[378*, 0*]
429: 0x0FAC [0x9F] LOAD_SCHEDULED_TASK_ALT: Load scheduler "kill" with entities [EventEntity, EventEntity], work=[127*, 0*]
430: 0x0FBD [0xBB] LOAD_EVENT_SCHEDULER_ALT: Load scheduler "kila" with entities [Cavernous Maw (ID: 17228369/0x0106E251), LocalPlayer], work=[152*, 0*]
431: 0x0FCE [0xBB] LOAD_EVENT_SCHEDULER_ALT: Load scheduler "kila" with entities [LocalPlayer, Cavernous Maw (ID: 17228369/0x0106E251)], work=[153*, 0*]
432: 0x0FDF [0x27] REQ_SET(priority=0x10, entity_id=Cavernous Maw (ID: 17228365/0x0106E24D), tag_num=0x06)
433: 0x0FE6 [0x4E] SET_ENTITY_HIDE_FLAG: Hide Cavernous Maw (ID: 17228369/0x0106E251)
434: 0x0FEC [0x2C] CREATE_SCHEDULER_TASK: Create scheduler "efkl" with entities [Cavernous Maw (ID: 17228369/0x0106E251), Cavernous Maw (ID: 17228369/0x0106E251)]
435: 0x0FF9 [0x7B] LocalPlayer stops talking
436: 0x0FFE [0x6B] STOP_AND_IDLE: LocalPlayer stops current action and resets to idle (animation="idl0")
437: 0x1007 [0x1C] WAIT(15* ticks)
438: 0x100A [0x92] LocalPlayer->Render.Flags3 ^= 0x01
439: 0x1010 [0x02] IF !(ExtData[1]->WorkLocal[0] == 0*) GOTO 0x103B
440: 0x1018 [0x52] END_LOAD_SCHEDULER: End scheduler "no10" with entities [LocalPlayer, LocalPlayer], work=378*
441: 0x1027 [0x45] LOAD_SCHEDULED_TASK: Load scheduler "no11" with entities [LocalPlayer, LocalPlayer], work=[378*, 0*]
442: 0x1038 [0x01] GOTO 0x1091
443: 0x103B [0x02] IF !(ExtData[1]->WorkLocal[0] == 1*) GOTO 0x1066
444: 0x1043 [0x52] END_LOAD_SCHEDULER: End scheduler "ro10" with entities [LocalPlayer, LocalPlayer], work=378*
445: 0x1052 [0x45] LOAD_SCHEDULED_TASK: Load scheduler "ro11" with entities [LocalPlayer, LocalPlayer], work=[378*, 0*]
446: 0x1063 [0x01] GOTO 0x1091
447: 0x1066 [0x02] IF !(ExtData[1]->WorkLocal[0] == 2*) GOTO 0x1091
448: 0x106E [0x52] END_LOAD_SCHEDULER: End scheduler "al10" with entities [LocalPlayer, LocalPlayer], work=378*
449: 0x107D [0x45] LOAD_SCHEDULED_TASK: Load scheduler "al11" with entities [LocalPlayer, LocalPlayer], work=[378*, 0*]
450: 0x108E [0x01] GOTO 0x1091

SUBROUTINE_1091:
451: 0x1091 [0x1A] CALL_SUBROUTINE(address=0x6682)
452: 0x1094 [0x1C] WAIT(120* ticks)
453: 0x1097 [0x02] IF !(ExtData[1]->WorkLocal[0] == 0*) GOTO 0x1191
454: 0x109F [0x52] END_LOAD_SCHEDULER: End scheduler "no11" with entities [LocalPlayer, LocalPlayer], work=378*
455: 0x10AE [0x02] IF !(ExtData[1]->WorkLocal[2] == 1*) GOTO 0x10CA
456: 0x10B6 [0x45] LOAD_SCHEDULED_TASK: Load scheduler "nhm1" with entities [LocalPlayer, LocalPlayer], work=[378*, 0*]
457: 0x10C7 [0x01] GOTO 0x118E
458: 0x10CA [0x02] IF !(ExtData[1]->WorkLocal[2] == 2*) GOTO 0x10E6
459: 0x10D2 [0x45] LOAD_SCHEDULED_TASK: Load scheduler "nhf1" with entities [LocalPlayer, LocalPlayer], work=[378*, 0*]
460: 0x10E3 [0x01] GOTO 0x118E
461: 0x10E6 [0x02] IF !(ExtData[1]->WorkLocal[2] == 3*) GOTO 0x1102
462: 0x10EE [0x45] LOAD_SCHEDULED_TASK: Load scheduler "nem1" with entities [LocalPlayer, LocalPlayer], work=[378*, 0*]
463: 0x10FF [0x01] GOTO 0x118E
464: 0x1102 [0x02] IF !(ExtData[1]->WorkLocal[2] == 4*) GOTO 0x111E
465: 0x110A [0x45] LOAD_SCHEDULED_TASK: Load scheduler "nef1" with entities [LocalPlayer, LocalPlayer], work=[378*, 0*]
466: 0x111B [0x01] GOTO 0x118E
467: 0x111E [0x02] IF !(ExtData[1]->WorkLocal[2] == 5*) GOTO 0x113A
468: 0x1126 [0x45] LOAD_SCHEDULED_TASK: Load scheduler "ntr1" with entities [LocalPlayer, LocalPlayer], work=[378*, 0*]
469: 0x1137 [0x01] GOTO 0x118E
470: 0x113A [0x02] IF !(ExtData[1]->WorkLocal[2] == 6*) GOTO 0x1156
471: 0x1142 [0x45] LOAD_SCHEDULED_TASK: Load scheduler "ntr1" with entities [LocalPlayer, LocalPlayer], work=[378*, 0*]
472: 0x1153 [0x01] GOTO 0x118E
473: 0x1156 [0x02] IF !(ExtData[1]->WorkLocal[2] == 7*) GOTO 0x1172
474: 0x115E [0x45] LOAD_SCHEDULED_TASK: Load scheduler "nmt1" with entities [LocalPlayer, LocalPlayer], work=[378*, 0*]
475: 0x116F [0x01] GOTO 0x118E
476: 0x1172 [0x02] IF !(ExtData[1]->WorkLocal[2] == 8*) GOTO 0x118E
477: 0x117A [0x45] LOAD_SCHEDULED_TASK: Load scheduler "ngl1" with entities [LocalPlayer, LocalPlayer], work=[378*, 0*]
478: 0x118B [0x01] GOTO 0x118E

SUBROUTINE_118E:
479: 0x118E [0x01] GOTO 0x1385
480: 0x1191 [0x02] IF !(ExtData[1]->WorkLocal[0] == 1*) GOTO 0x128B
481: 0x1199 [0x52] END_LOAD_SCHEDULER: End scheduler "ro11" with entities [LocalPlayer, LocalPlayer], work=378*
482: 0x11A8 [0x02] IF !(ExtData[1]->WorkLocal[2] == 1*) GOTO 0x11C4
483: 0x11B0 [0x45] LOAD_SCHEDULED_TASK: Load scheduler "rhm1" with entities [LocalPlayer, LocalPlayer], work=[378*, 0*]
484: 0x11C1 [0x01] GOTO 0x1288
485: 0x11C4 [0x02] IF !(ExtData[1]->WorkLocal[2] == 2*) GOTO 0x11E0
486: 0x11CC [0x45] LOAD_SCHEDULED_TASK: Load scheduler "rhf1" with entities [LocalPlayer, LocalPlayer], work=[378*, 0*]
487: 0x11DD [0x01] GOTO 0x1288
488: 0x11E0 [0x02] IF !(ExtData[1]->WorkLocal[2] == 3*) GOTO 0x11FC
489: 0x11E8 [0x45] LOAD_SCHEDULED_TASK: Load scheduler "rem1" with entities [LocalPlayer, LocalPlayer], work=[378*, 0*]
490: 0x11F9 [0x01] GOTO 0x1288
491: 0x11FC [0x02] IF !(ExtData[1]->WorkLocal[2] == 4*) GOTO 0x1218
492: 0x1204 [0x45] LOAD_SCHEDULED_TASK: Load scheduler "ref1" with entities [LocalPlayer, LocalPlayer], work=[378*, 0*]
493: 0x1215 [0x01] GOTO 0x1288
494: 0x1218 [0x02] IF !(ExtData[1]->WorkLocal[2] == 5*) GOTO 0x1234
495: 0x1220 [0x45] LOAD_SCHEDULED_TASK: Load scheduler "rtr1" with entities [LocalPlayer, LocalPlayer], work=[378*, 0*]
496: 0x1231 [0x01] GOTO 0x1288
497: 0x1234 [0x02] IF !(ExtData[1]->WorkLocal[2] == 6*) GOTO 0x1250
498: 0x123C [0x45] LOAD_SCHEDULED_TASK: Load scheduler "rtr1" with entities [LocalPlayer, LocalPlayer], work=[378*, 0*]
499: 0x124D [0x01] GOTO 0x1288
500: 0x1250 [0x02] IF !(ExtData[1]->WorkLocal[2] == 7*) GOTO 0x126C
501: 0x1258 [0x45] LOAD_SCHEDULED_TASK: Load scheduler "rmt1" with entities [LocalPlayer, LocalPlayer], work=[378*, 0*]
502: 0x1269 [0x01] GOTO 0x1288
503: 0x126C [0x02] IF !(ExtData[1]->WorkLocal[2] == 8*) GOTO 0x1288
504: 0x1274 [0x45] LOAD_SCHEDULED_TASK: Load scheduler "rgl1" with entities [LocalPlayer, LocalPlayer], work=[378*, 0*]
505: 0x1285 [0x01] GOTO 0x1288

SUBROUTINE_1288:
506: 0x1288 [0x01] GOTO 0x1385
507: 0x128B [0x02] IF !(ExtData[1]->WorkLocal[0] == 2*) GOTO 0x1385
508: 0x1293 [0x52] END_LOAD_SCHEDULER: End scheduler "al11" with entities [LocalPlayer, LocalPlayer], work=378*
509: 0x12A2 [0x02] IF !(ExtData[1]->WorkLocal[2] == 1*) GOTO 0x12BE
510: 0x12AA [0x45] LOAD_SCHEDULED_TASK: Load scheduler "ahm1" with entities [LocalPlayer, LocalPlayer], work=[378*, 0*]
511: 0x12BB [0x01] GOTO 0x1382
512: 0x12BE [0x02] IF !(ExtData[1]->WorkLocal[2] == 2*) GOTO 0x12DA
513: 0x12C6 [0x45] LOAD_SCHEDULED_TASK: Load scheduler "ahf1" with entities [LocalPlayer, LocalPlayer], work=[378*, 0*]
514: 0x12D7 [0x01] GOTO 0x1382
515: 0x12DA [0x02] IF !(ExtData[1]->WorkLocal[2] == 3*) GOTO 0x12F6
516: 0x12E2 [0x45] LOAD_SCHEDULED_TASK: Load scheduler "aem1" with entities [LocalPlayer, LocalPlayer], work=[378*, 0*]
517: 0x12F3 [0x01] GOTO 0x1382
518: 0x12F6 [0x02] IF !(ExtData[1]->WorkLocal[2] == 4*) GOTO 0x1312
519: 0x12FE [0x45] LOAD_SCHEDULED_TASK: Load scheduler "aef1" with entities [LocalPlayer, LocalPlayer], work=[378*, 0*]
520: 0x130F [0x01] GOTO 0x1382
521: 0x1312 [0x02] IF !(ExtData[1]->WorkLocal[2] == 5*) GOTO 0x132E
522: 0x131A [0x45] LOAD_SCHEDULED_TASK: Load scheduler "atr1" with entities [LocalPlayer, LocalPlayer], work=[378*, 0*]
523: 0x132B [0x01] GOTO 0x1382
524: 0x132E [0x02] IF !(ExtData[1]->WorkLocal[2] == 6*) GOTO 0x134A
525: 0x1336 [0x45] LOAD_SCHEDULED_TASK: Load scheduler "atr1" with entities [LocalPlayer, LocalPlayer], work=[378*, 0*]
526: 0x1347 [0x01] GOTO 0x1382
527: 0x134A [0x02] IF !(ExtData[1]->WorkLocal[2] == 7*) GOTO 0x1366
528: 0x1352 [0x45] LOAD_SCHEDULED_TASK: Load scheduler "amt1" with entities [LocalPlayer, LocalPlayer], work=[378*, 0*]
529: 0x1363 [0x01] GOTO 0x1382
530: 0x1366 [0x02] IF !(ExtData[1]->WorkLocal[2] == 8*) GOTO 0x1382
531: 0x136E [0x45] LOAD_SCHEDULED_TASK: Load scheduler "agl1" with entities [LocalPlayer, LocalPlayer], work=[378*, 0*]
532: 0x137F [0x01] GOTO 0x1382

SUBROUTINE_1382:
533: 0x1382 [0x01] GOTO 0x1385

SUBROUTINE_1385:
534: 0x1385 [0x5C] MUSIC_CONTROL: Set Idle (Day) music to song 250*
535: 0x1389 [0x5C] MUSIC_CONTROL: Set Idle (Night) music to song 250*
536: 0x138D [0x9A] WAIT_MUSIC_SERVER()
537: 0x138E [0x1C] WAIT(60* ticks)
538: 0x1391 [0xBB] LOAD_EVENT_SCHEDULER_ALT: Load scheduler "st01" with entities [LocalPlayer, Cavernous Maw (ID: 17228365/0x0106E24D)], work=[151*, 0*]
539: 0x13A2 [0x27] REQ_SET(priority=0x10, entity_id=LocalPlayer, tag_num=0x0B)
540: 0x13A9 [0x45] LOAD_SCHEDULED_TASK: Load scheduler "kira" with entities [LocalPlayer, LocalPlayer], work=[378*, 0*]
541: 0x13BA [0x1C] WAIT(240* ticks)
542: 0x13BD [0x02] IF !(ExtData[1]->WorkLocal[0] == 0*) GOTO 0x14A9
543: 0x13C5 [0x02] IF !(ExtData[1]->WorkLocal[2] == 1*) GOTO 0x13DF
544: 0x13CD [0x52] END_LOAD_SCHEDULER: End scheduler "nhm1" with entities [LocalPlayer, LocalPlayer], work=378*
545: 0x13DC [0x01] GOTO 0x1495
546: 0x13DF [0x02] IF !(ExtData[1]->WorkLocal[2] == 2*) GOTO 0x13F9
547: 0x13E7 [0x52] END_LOAD_SCHEDULER: End scheduler "nhf1" with entities [LocalPlayer, LocalPlayer], work=378*
548: 0x13F6 [0x01] GOTO 0x1495
549: 0x13F9 [0x02] IF !(ExtData[1]->WorkLocal[2] == 3*) GOTO 0x1413
550: 0x1401 [0x52] END_LOAD_SCHEDULER: End scheduler "nem1" with entities [LocalPlayer, LocalPlayer], work=378*
551: 0x1410 [0x01] GOTO 0x1495
552: 0x1413 [0x02] IF !(ExtData[1]->WorkLocal[2] == 4*) GOTO 0x142D
553: 0x141B [0x52] END_LOAD_SCHEDULER: End scheduler "nef1" with entities [LocalPlayer, LocalPlayer], work=378*
554: 0x142A [0x01] GOTO 0x1495
555: 0x142D [0x02] IF !(ExtData[1]->WorkLocal[2] == 5*) GOTO 0x1447
556: 0x1435 [0x52] END_LOAD_SCHEDULER: End scheduler "ntr1" with entities [LocalPlayer, LocalPlayer], work=378*
557: 0x1444 [0x01] GOTO 0x1495
558: 0x1447 [0x02] IF !(ExtData[1]->WorkLocal[2] == 6*) GOTO 0x1461
559: 0x144F [0x52] END_LOAD_SCHEDULER: End scheduler "ntr1" with entities [LocalPlayer, LocalPlayer], work=378*
560: 0x145E [0x01] GOTO 0x1495
561: 0x1461 [0x02] IF !(ExtData[1]->WorkLocal[2] == 7*) GOTO 0x147B
562: 0x1469 [0x52] END_LOAD_SCHEDULER: End scheduler "nmt1" with entities [LocalPlayer, LocalPlayer], work=378*
563: 0x1478 [0x01] GOTO 0x1495
564: 0x147B [0x02] IF !(ExtData[1]->WorkLocal[2] == 8*) GOTO 0x1495
565: 0x1483 [0x52] END_LOAD_SCHEDULER: End scheduler "ngl1" with entities [LocalPlayer, LocalPlayer], work=378*
566: 0x1492 [0x01] GOTO 0x1495

SUBROUTINE_1495:
567: 0x1495 [0x45] LOAD_SCHEDULED_TASK: Load scheduler "no12" with entities [LocalPlayer, LocalPlayer], work=[378*, 0*]
568: 0x14A6 [0x01] GOTO 0x1681
569: 0x14A9 [0x02] IF !(ExtData[1]->WorkLocal[0] == 1*) GOTO 0x1595
570: 0x14B1 [0x02] IF !(ExtData[1]->WorkLocal[2] == 1*) GOTO 0x14CB
571: 0x14B9 [0x52] END_LOAD_SCHEDULER: End scheduler "rhm1" with entities [LocalPlayer, LocalPlayer], work=378*
572: 0x14C8 [0x01] GOTO 0x1581
573: 0x14CB [0x02] IF !(ExtData[1]->WorkLocal[2] == 2*) GOTO 0x14E5
574: 0x14D3 [0x52] END_LOAD_SCHEDULER: End scheduler "rhf1" with entities [LocalPlayer, LocalPlayer], work=378*
575: 0x14E2 [0x01] GOTO 0x1581
576: 0x14E5 [0x02] IF !(ExtData[1]->WorkLocal[2] == 3*) GOTO 0x14FF
577: 0x14ED [0x52] END_LOAD_SCHEDULER: End scheduler "rem1" with entities [LocalPlayer, LocalPlayer], work=378*
578: 0x14FC [0x01] GOTO 0x1581
579: 0x14FF [0x02] IF !(ExtData[1]->WorkLocal[2] == 4*) GOTO 0x1519
580: 0x1507 [0x52] END_LOAD_SCHEDULER: End scheduler "ref1" with entities [LocalPlayer, LocalPlayer], work=378*
581: 0x1516 [0x01] GOTO 0x1581
582: 0x1519 [0x02] IF !(ExtData[1]->WorkLocal[2] == 5*) GOTO 0x1533
583: 0x1521 [0x52] END_LOAD_SCHEDULER: End scheduler "rtr1" with entities [LocalPlayer, LocalPlayer], work=378*
584: 0x1530 [0x01] GOTO 0x1581
585: 0x1533 [0x02] IF !(ExtData[1]->WorkLocal[2] == 6*) GOTO 0x154D
586: 0x153B [0x52] END_LOAD_SCHEDULER: End scheduler "rtr1" with entities [LocalPlayer, LocalPlayer], work=378*
587: 0x154A [0x01] GOTO 0x1581
588: 0x154D [0x02] IF !(ExtData[1]->WorkLocal[2] == 7*) GOTO 0x1567
589: 0x1555 [0x52] END_LOAD_SCHEDULER: End scheduler "rmt1" with entities [LocalPlayer, LocalPlayer], work=378*
590: 0x1564 [0x01] GOTO 0x1581
591: 0x1567 [0x02] IF !(ExtData[1]->WorkLocal[2] == 8*) GOTO 0x1581
592: 0x156F [0x52] END_LOAD_SCHEDULER: End scheduler "rgl1" with entities [LocalPlayer, LocalPlayer], work=378*
593: 0x157E [0x01] GOTO 0x1581

SUBROUTINE_1581:
594: 0x1581 [0x45] LOAD_SCHEDULED_TASK: Load scheduler "ro12" with entities [LocalPlayer, LocalPlayer], work=[378*, 0*]
595: 0x1592 [0x01] GOTO 0x1681
596: 0x1595 [0x02] IF !(ExtData[1]->WorkLocal[0] == 2*) GOTO 0x1681
597: 0x159D [0x02] IF !(ExtData[1]->WorkLocal[2] == 1*) GOTO 0x15B7
598: 0x15A5 [0x52] END_LOAD_SCHEDULER: End scheduler "ahm1" with entities [LocalPlayer, LocalPlayer], work=378*
599: 0x15B4 [0x01] GOTO 0x166D
600: 0x15B7 [0x02] IF !(ExtData[1]->WorkLocal[2] == 2*) GOTO 0x15D1
601: 0x15BF [0x52] END_LOAD_SCHEDULER: End scheduler "ahf1" with entities [LocalPlayer, LocalPlayer], work=378*
602: 0x15CE [0x01] GOTO 0x166D
603: 0x15D1 [0x02] IF !(ExtData[1]->WorkLocal[2] == 3*) GOTO 0x15EB
604: 0x15D9 [0x52] END_LOAD_SCHEDULER: End scheduler "aem1" with entities [LocalPlayer, LocalPlayer], work=378*
605: 0x15E8 [0x01] GOTO 0x166D
606: 0x15EB [0x02] IF !(ExtData[1]->WorkLocal[2] == 4*) GOTO 0x1605
607: 0x15F3 [0x52] END_LOAD_SCHEDULER: End scheduler "aef1" with entities [LocalPlayer, LocalPlayer], work=378*
608: 0x1602 [0x01] GOTO 0x166D
609: 0x1605 [0x02] IF !(ExtData[1]->WorkLocal[2] == 5*) GOTO 0x161F
610: 0x160D [0x52] END_LOAD_SCHEDULER: End scheduler "atr1" with entities [LocalPlayer, LocalPlayer], work=378*
611: 0x161C [0x01] GOTO 0x166D
612: 0x161F [0x02] IF !(ExtData[1]->WorkLocal[2] == 6*) GOTO 0x1639
