# 0x7FFFFFF0 - Zone Events

## Common Data

| Field            | Value                       |
|------------------|-----------------------------|
| Zone             | Rolanberry Fields (ID: 110) |
| Block Size       | 3540 bytes                  |
| Total Events     | 51                          |
| References Count | 114                         |

## List of Events

| Event ID                   | Entrypoint   |   Size |   Instructions |
|----------------------------|--------------|--------|----------------|
| [65535](#event-65535)      | 0x0000       |      1 |              1 |
| [65534](#event-65534)      | 0x0001       |      1 |              1 |
| [65535.1](#event-655351)   | 0x0002       |     16 |              3 |
| [65535.2](#event-655352)   | 0x0012       |     41 |              5 |
| [901](#event-901)          | 0x003B       |    370 |             49 |
| [65535.3](#event-655353)   | 0x01AD       |     31 |              8 |
| [65535.4](#event-655354)   | 0x01CC       |     31 |              8 |
| [65535.5](#event-655355)   | 0x01EB       |     31 |              8 |
| [65535.6](#event-655356)   | 0x020A       |     15 |              5 |
| [65535.7](#event-655357)   | 0x0219       |     15 |              5 |
| [65535.8](#event-655358)   | 0x0228       |     15 |              5 |
| [65535.9](#event-655359)   | 0x0237       |     27 |              5 |
| [65535.10](#event-6553510) | 0x0252       |     29 |              5 |
| [65535.11](#event-6553511) | 0x026F       |     27 |              5 |
| [65535.12](#event-6553512) | 0x028A       |     15 |              5 |
| [65535.13](#event-6553513) | 0x0299       |     27 |              5 |
| [65535.14](#event-6553514) | 0x02B4       |     35 |              6 |
| [65535.15](#event-6553515) | 0x02D7       |     27 |              5 |
| [65535.16](#event-6553516) | 0x02F2       |     14 |              4 |
| [65535.17](#event-6553517) | 0x0300       |     14 |              4 |
| [65535.18](#event-6553518) | 0x030E       |     14 |              4 |
| [65535.19](#event-6553519) | 0x031C       |     14 |              4 |
| [65535.20](#event-6553520) | 0x032A       |     14 |              4 |
| [65535.21](#event-6553521) | 0x0338       |     14 |              4 |
| [65535.22](#event-6553522) | 0x0346       |     14 |              4 |
| [65535.23](#event-6553523) | 0x0354       |     28 |              6 |
| [65535.24](#event-6553524) | 0x0370       |     16 |              3 |
| [65535.25](#event-6553525) | 0x0380       |     16 |              3 |
| [65535.26](#event-6553526) | 0x0390       |     38 |              5 |
| [65535.27](#event-6553527) | 0x03B6       |     38 |              5 |
| [65535.28](#event-6553528) | 0x03DC       |     38 |              5 |
| [65535.29](#event-6553529) | 0x0402       |    209 |             25 |
| [65535.30](#event-6553530) | 0x04D3       |    209 |             25 |
| [65535.31](#event-6553531) | 0x05A4       |    209 |             25 |
| [65535.32](#event-6553532) | 0x0675       |    209 |             25 |
| [65535.33](#event-6553533) | 0x0746       |    209 |             25 |
| [65535.34](#event-6553534) | 0x0817       |     48 |              9 |
| [65535.35](#event-6553535) | 0x0847       |     11 |              3 |
| [65535.36](#event-6553536) | 0x0852       |     16 |              4 |
| [65535.37](#event-6553537) | 0x0862       |     37 |              5 |
| [65535.38](#event-6553538) | 0x0887       |     37 |              5 |
| [65535.39](#event-6553539) | 0x08AC       |     24 |              4 |
| [65535.40](#event-6553540) | 0x08C4       |    172 |             36 |
| [65535.41](#event-6553541) | 0x0970       |      6 |              2 |
| [65535.42](#event-6553542) | 0x0976       |      6 |              2 |
| [8003](#event-8003)        | 0x097C       |     68 |              9 |
| [65535.43](#event-6553543) | 0x09C0       |      5 |              2 |
| [65535.44](#event-6553544) | 0x09C5       |      5 |              2 |
| [65535.45](#event-6553545) | 0x09CA       |      5 |              2 |
| [65535.46](#event-6553546) | 0x09CF       |      5 |              2 |
| [65535.47](#event-6553547) | 0x09D4       |    345 |             33 |

## DAT References (imed_data)

|   Index | Hex Value   |   Dec Value |
|---------|-------------|-------------|
|       0 | 0xFFFCF600  |  4294768128 |
|       1 | 0x57FC2     |      360386 |
|       2 | 0x1F40      |        8000 |
|       3 | 0x0636      |        1590 |
|       4 | 0x0093      |         147 |
|       5 | 0x0000      |           0 |
|       6 | 0x00F0      |         240 |
|       7 | 0x00C8      |         200 |
|       8 | 0x003C      |          60 |
|       9 | 0x0013      |          19 |
|      10 | 0x0090      |         144 |
|      11 | 0x33A17     |      211479 |
|      12 | 0x744D3     |      476371 |
|      13 | 0x5FAA      |       24490 |
|      14 | 0x0D21      |        3361 |
|      15 | 0x0005      |           5 |
|      16 | 0x1D30      |        7472 |
|      17 | 0x001E      |          30 |
|      18 | 0x1D31      |        7473 |
|      19 | 0x1D32      |        7474 |
|      20 | 0x1D36      |        7478 |
|      21 | 0x1D33      |        7475 |
|      22 | 0x00C9      |         201 |
|      23 | 0x000B      |          11 |
|      24 | 0xFFFCF255  |  4294767189 |
|      25 | 0x57DA0     |      359840 |
|      26 | 0x1F3F      |        7999 |
|      27 | 0xFFFF44A9  |  4294919337 |
|      28 | 0x6AA40     |      436800 |
|      29 | 0x00C4      |         196 |
|      30 | 0x5A76E     |      370542 |
|      31 | 0xFFFC8EA4  |  4294741668 |
|      32 | 0x238D      |        9101 |
|      33 | 0xFFFCFBC1  |  4294769601 |
|      34 | 0x587B3     |      362419 |
|      35 | 0xFFFF31B9  |  4294914489 |
|      36 | 0x6AA5E     |      436830 |
|      37 | 0x01DC      |         476 |
|      38 | 0x59FE4     |      368612 |
|      39 | 0xFFFC8753  |  4294739795 |
|      40 | 0x2279      |        8825 |
|      41 | 0x012C      |         300 |
|      42 | 0x000A      |          10 |
|      43 | 0xFFF97BFD  |  4294540285 |
|      44 | 0xFFFC5BE4  |  4294728676 |
|      45 | 0x4E1F      |       19999 |
|      46 | 0xFFF97779  |  4294539129 |
|      47 | 0xFFFC360E  |  4294718990 |
|      48 | 0x0C1B      |        3099 |
|      49 | 0x000D      |          13 |
|      50 | 0x8DB92     |      580498 |
|      51 | 0xFFFCA9CB  |  4294748619 |
|      52 | 0x8C9F      |       35999 |
|      53 | 0x8D5BB     |      579003 |
|      54 | 0xFFFC9A22  |  4294744610 |
|      55 | 0x8D55A     |      578906 |
|      56 | 0xFFFC4448  |  4294722632 |
|      57 | 0x85CA      |       34250 |
|      58 | 0x87EAE     |      556718 |
|      59 | 0xFFFA6B61  |  4294601569 |
|      60 | 0xFFFB86AA  |  4294674090 |
|      61 | 0xFFF8B006  |  4294488070 |
|      62 | 0x8E17B     |      582011 |
|      63 | 0xFFFCC75C  |  4294756188 |
|      64 | 0x8D9B5     |      580021 |
|      65 | 0xFFFC8498  |  4294739096 |
|      66 | 0x0007      |           7 |
|      67 | 0x005A      |          90 |
|      68 | 0x0001      |           1 |
|      69 | 0x0080      |         128 |
|      70 | 0x0008      |           8 |
|      71 | 0x0091      |         145 |
|      72 | 0x004F      |          79 |
|      73 | 0x004C      |          76 |
|      74 | 0x0106      |         262 |
|      75 | 0x0040      |          64 |
|      76 | 0x0018      |          24 |
|      77 | 0x0050      |          80 |
|      78 | 0x0004      |           4 |
|      79 | 0x0060      |          96 |
|      80 | 0x0046      |          70 |
|      81 | 0x0002      |           2 |
|      82 | 0x0003      |           3 |
|      83 | 0x0064      |         100 |
|      84 | 0x006E      |         110 |
|      85 | 0x0006      |           6 |
|      86 | 0x0078      |         120 |
|      87 | 0x0082      |         130 |
|      88 | 0x0049      |          73 |
|      89 | 0x0053      |          83 |
|      90 | 0x005D      |          93 |
|      91 | 0x0067      |         103 |
|      92 | 0x0071      |         113 |
|      93 | 0x007B      |         123 |
|      94 | 0x0085      |         133 |
|      95 | 0xFFFFFC18  |  4294966296 |
|      96 | 0x0BB8      |        3000 |
|      97 | 0x81434     |      529460 |
|      98 | 0xFFFA4FCB  |  4294594507 |
|      99 | 0x0F39      |        3897 |
|     100 | 0xFFFB6FF7  |  4294668279 |
|     101 | 0xFFF8B223  |  4294488611 |
|     102 | 0x0014      |          20 |
|     103 | 0x0009      |           9 |
|     104 | 0x008C      |         140 |
|     105 | 0x00D2      |         210 |
|     106 | 0x0057      |          87 |
|     107 | 0x008D      |         141 |
|     108 | 0x0F26      |        3878 |
|     109 | 0x0097      |         151 |
|     110 | 0x00A1      |         161 |
|     111 | 0x00AB      |         171 |
|     112 | 0x00B5      |         181 |
|     113 | 0x00BF      |         191 |

## Events

### Event 65535

#### Metadata

| Field        | Value   |
|--------------|---------|
| Entrypoint   | 0x0000  |
| Data Size    | 1 bytes |
| Instructions | 1       |

```
      00 01 02 03 04 05 06 07  08 09 0A 0B 0C 0D 0E 0F
      -- -- -- -- -- -- -- --  -- -- -- -- -- -- -- --
0000: 00                                                .               
```

#### Opcodes

```
  0: 0x0000 [0x00] END_REQSTACK()
```

### Event 65534

#### Metadata

| Field        | Value   |
|--------------|---------|
| Entrypoint   | 0x0001  |
| Data Size    | 1 bytes |
| Instructions | 1       |

```
      00 01 02 03 04 05 06 07  08 09 0A 0B 0C 0D 0E 0F
      -- -- -- -- -- -- -- --  -- -- -- -- -- -- -- --
0000:    00                                              .              
```

#### Opcodes

```
  0: 0x0001 [0x00] END_REQSTACK()
```

### Event 65535.1

#### Metadata

| Field        | Value    |
|--------------|----------|
| Entrypoint   | 0x0002   |
| Data Size    | 16 bytes |
| Instructions | 3        |

```
      00 01 02 03 04 05 06 07  08 09 0A 0B 0C 0D 0E 0F
      -- -- -- -- -- -- -- --  -- -- -- -- -- -- -- --
0000:       92 01 F0 FF FF 7F  37 00 80 01 80 02 80 03    ......7.......
0010: 80 00                                             ..              
```

#### Opcodes

```
  0: 0x0002 [0x92] LocalPlayer->Render.Flags3 ^= 0x01
  1: 0x0008 [0x37] UPDATE_EVENT_POSITION_AND_DIR: x=-199.168*, z=360.386*, y=8.000*, direction=139.7°*
  2: 0x0011 [0x00] END_REQSTACK()
```

### Event 65535.2

#### Metadata

| Field        | Value    |
|--------------|----------|
| Entrypoint   | 0x0012   |
| Data Size    | 41 bytes |
| Instructions | 5        |

```
      00 01 02 03 04 05 06 07  08 09 0A 0B 0C 0D 0E 0F
      -- -- -- -- -- -- -- --  -- -- -- -- -- -- -- --
0010:       BB 04 80 F0 FF FF  7F 4C E2 06 01 6D 61 69    .......L...mai
0020: 6E 05 80 1C 06 80 45 07  80 F0 FF FF 7F F0 FF FF  n.....E.........
0030: 7F 66 64 6F 31 05 80 1C  08 80 00                 .fdo1......     
```

#### Opcodes

```
  0: 0x0012 [0xBB] LOAD_EVENT_SCHEDULER_ALT: Load scheduler "main" with entities [LocalPlayer, Cavernous Maw (ID: 17228364/0x0106E24C)], work=[147*, 0*]
  1: 0x0023 [0x1C] WAIT(240* ticks)
  2: 0x0026 [0x45] LOAD_SCHEDULED_TASK: Load scheduler "fdo1" with entities [LocalPlayer, LocalPlayer], work=[200*, 0*]
  3: 0x0037 [0x1C] WAIT(60* ticks)
  4: 0x003A [0x00] END_REQSTACK()
```

### Event 901

#### Metadata

| Field        | Value     |
|--------------|-----------|
| Entrypoint   | 0x003B    |
| Data Size    | 370 bytes |
| Instructions | 49        |

```
      00 01 02 03 04 05 06 07  08 09 0A 0B 0C 0D 0E 0F
      -- -- -- -- -- -- -- --  -- -- -- -- -- -- -- --
0030:                                   42 46 01 03 00             BF...
0040: 00 05 10 45 07 80 F8 FF  FF 7F F8 FF FF 7F 66 64  ...E..........fd
0050: 6F 30 05 80 55 07 80 F8  FF FF 7F F8 FF FF 7F 66  o0..U..........f
0060: 64 6F 30 4E 00 4A E2 06  01 4E 00 4B E2 06 01 38  do0N.J...N.K...8
0070: 09 80 79 00 F0 FF FF 7F  4A E2 06 01 03 05 10 02  ..y.....J.......
0080: 10 03 06 10 02 10 03 07  10 02 10 15 05 10 0A 80  ................
0090: 15 06 10 08 80 3F 07 10  07 10 08 80 37 0B 80 0C  .....?......7...
00A0: 80 0D 80 0E 80 45 0F 80  F8 FF FF 7F F8 FF FF 7F  .....E..........
00B0: 73 30 30 34 05 80 4A 4A  E2 06 01 F0 FF FF 7F 45  s004..JJ.......E
00C0: 07 80 F8 FF FF 7F F8 FF  FF 7F 66 64 69 31 05 80  ..........fdi1..
00D0: 2B 4A E2 06 01 10 80 23  66 11 80 4A E2 06 01 4A  +J.....#f..J...J
00E0: E2 06 01 74 6C 6B 30 2B  4A E2 06 01 12 80 23 02  ...tlk0+J.....#.
00F0: 04 10 05 80 01 41 01 66  11 80 4A E2 06 01 4A E2  .....A.f..J...J.
0100: 06 01 74 6C 6B 31 03 05  10 04 10 03 06 10 04 10  ..tlk1..........
0110: 03 07 10 04 10 15 05 10  0A 80 15 06 10 08 80 3F  ...............?
0120: 07 10 07 10 08 80 02 00  00 05 80 00 39 01 2B 4A  ............9.+J
0130: E2 06 01 13 80 23 01 41  01 2B 4A E2 06 01 14 80  .....#.A.+J.....
0140: 23 66 11 80 4A E2 06 01  4A E2 06 01 70 61 73 30  #f..J...J...pas0
0150: 2B 4A E2 06 01 15 80 23  52 0F 80 F8 FF FF 7F F8  +J.....#R.......
0160: FF FF 7F 73 30 30 34 45  07 80 F8 FF FF 7F F8 FF  ...s004E........
0170: FF 7F 66 64 6F 31 05 80  55 07 80 F8 FF FF 7F F8  ..fdo1..U.......
0180: FF FF 7F 66 64 6F 31 46  00 45 16 80 F0 FF FF 7F  ...fdo1F.E......
0190: F0 FF FF 7F 71 73 74 63  05 80 45 07 80 F8 FF FF  ....qstc..E.....
01A0: 7F F8 FF FF 7F 66 64 69  32 05 80 21 00           .....fdi2..!.   
```

#### Opcodes

```
  0: 0x003B [0x42] SET_CLI_EVENT_CANCEL_DATA()
  1: 0x003C [0x46] CAMERA_CONTROL: Disable user control
  2: 0x003E [0x03] ExtData[1]->WorkLocal[0] = Work_Zone[5]
  3: 0x0043 [0x45] LOAD_SCHEDULED_TASK: Load scheduler "fdo0" with entities [EventEntity, EventEntity], work=[200*, 0*]
  4: 0x0054 [0x55] WAIT_LOAD_SCHEDULER: Wait for scheduler "fdo0" with entities [EventEntity, EventEntity], work=200*
  5: 0x0063 [0x4E] SET_ENTITY_HIDE_FLAG: Show Audee (ID: 17228362/0x0106E24A)
  6: 0x0069 [0x4E] SET_ENTITY_HIDE_FLAG: Show Unnamed NPC (ID: 17228363/0x0106E24B)
  7: 0x006F [0x38] SET_CLIENT_EVENT_MODE(mode=19*)
  8: 0x0072 [0x79] LocalPlayer looks at Audee (ID: 17228362/0x0106E24A) (Basic look)
  9: 0x007C [0x03] Work_Zone[5] = Work_Zone[2]
 10: 0x0081 [0x03] Work_Zone[6] = Work_Zone[2]
 11: 0x0086 [0x03] Work_Zone[7] = Work_Zone[2]
 12: 0x008B [0x15] Work_Zone[5] /= 144*
 13: 0x0090 [0x15] Work_Zone[6] /= 60*
 14: 0x0095 [0x3F] Work_Zone[7] = Work_Zone[7] % 60*
 15: 0x009C [0x37] UPDATE_EVENT_POSITION_AND_DIR: x=211.479*, z=476.371*, y=24.490*, direction=295.4°*
 16: 0x00A5 [0x45] LOAD_SCHEDULED_TASK: Load scheduler "s004" with entities [EventEntity, EventEntity], work=[5*, 0*]
 17: 0x00B6 [0x4A] Audee (ID: 17228362/0x0106E24A) looks at LocalPlayer
 18: 0x00BF [0x45] LOAD_SCHEDULED_TASK: Load scheduler "fdi1" with entities [EventEntity, EventEntity], work=[200*, 0*]
 19: 0x00D0 [0x2B] Audee (ID: 17228362/0x0106E24A) [7472*]:
    → "You've helped our poor girl find her way home! I don't know how to thank you!"
 20: 0x00D7 [0x23] WAIT_FOR_DIALOG_INTERACTION
 21: 0x00D8 [0x66] LOAD_EXT_SCHEDULER_MAIN: Load scheduler "tlk0" with entities [Audee (ID: 17228362/0x0106E24A), Audee (ID: 17228362/0x0106E24A)], work=30*
 22: 0x00E7 [0x2B] Audee (ID: 17228362/0x0106E24A) [7473*]:
    → "And to think you made it here in a mere $3 [hour/hours] ($4 [minute/minutes] and $5 [second/seconds] Earth time)!"
 23: 0x00EE [0x23] WAIT_FOR_DIALOG_INTERACTION
 24: 0x00EF [0x02] IF !(Work_Zone[4] == 0*) GOTO 0x0141
 25: 0x00F7 [0x66] LOAD_EXT_SCHEDULER_MAIN: Load scheduler "tlk1" with entities [Audee (ID: 17228362/0x0106E24A), Audee (ID: 17228362/0x0106E24A)], work=30*
 26: 0x0106 [0x03] Work_Zone[5] = Work_Zone[4]
 27: 0x010B [0x03] Work_Zone[6] = Work_Zone[4]
 28: 0x0110 [0x03] Work_Zone[7] = Work_Zone[4]
 29: 0x0115 [0x15] Work_Zone[5] /= 144*
 30: 0x011A [0x15] Work_Zone[6] /= 60*
 31: 0x011F [0x3F] Work_Zone[7] = Work_Zone[7] % 60*
 32: 0x0126 [0x02] IF !(ExtData[1]->WorkLocal[0] == 0*) GOTO 0x0139
 33: 0x012E [0x2B] Audee (ID: 17228362/0x0106E24A) [7474*]:
    → "Oh, and by the way, the fastest adventurer to date has been %0. That talented rider traversed the same course as you in $3 [hour/hours] ($4 [minute/minutes] and $5 [second/seconds] Earth time)!"
 34: 0x0135 [0x23] WAIT_FOR_DIALOG_INTERACTION
 35: 0x0136 [0x01] GOTO 0x0141
 36: 0x0139 [0x2B] Audee (ID: 17228362/0x0106E24A) [7478*]:
    → "Oh, and by the way, the fastest adventurer to date has been...you! Your remarkable record of $3 [hour/hours] ($4 [minute/minutes] and $5 [second/seconds] Earth time) still stands strong!"
 37: 0x0140 [0x23] WAIT_FOR_DIALOG_INTERACTION

SUBROUTINE_0141:
 38: 0x0141 [0x66] LOAD_EXT_SCHEDULER_MAIN: Load scheduler "pas0" with entities [Audee (ID: 17228362/0x0106E24A), Audee (ID: 17228362/0x0106E24A)], work=30*
 39: 0x0150 [0x2B] Audee (ID: 17228362/0x0106E24A) [7475*]:
    → "Anyway, please take this as a token of our appreciation. And stop by again sometime. We may have more work for you!"
 40: 0x0157 [0x23] WAIT_FOR_DIALOG_INTERACTION
 41: 0x0158 [0x52] END_LOAD_SCHEDULER: End scheduler "s004" with entities [EventEntity, EventEntity], work=5*
 42: 0x0167 [0x45] LOAD_SCHEDULED_TASK: Load scheduler "fdo1" with entities [EventEntity, EventEntity], work=[200*, 0*]
 43: 0x0178 [0x55] WAIT_LOAD_SCHEDULER: Wait for scheduler "fdo1" with entities [EventEntity, EventEntity], work=200*
 44: 0x0187 [0x46] CAMERA_CONTROL: Restore default settings
 45: 0x0189 [0x45] LOAD_SCHEDULED_TASK: Load scheduler "qstc" with entities [LocalPlayer, LocalPlayer], work=[201*, 0*]
 46: 0x019A [0x45] LOAD_SCHEDULED_TASK: Load scheduler "fdi2" with entities [EventEntity, EventEntity], work=[200*, 0*]
 47: 0x01AB [0x21] END_EVENT
 48: 0x01AC [0x00] END_REQSTACK()
```

### Event 65535.3

#### Metadata

| Field        | Value    |
|--------------|----------|
| Entrypoint   | 0x01AD   |
| Data Size    | 31 bytes |
| Instructions | 8        |

```
      00 01 02 03 04 05 06 07  08 09 0A 0B 0C 0D 0E 0F
      -- -- -- -- -- -- -- --  -- -- -- -- -- -- -- --
01A0:                                         32 17 80               2..
01B0: 1F 00 18 80 19 80 1A 80  1F 01 6F 1C 11 80 79 00  ..........o...y.
01C0: F8 FF FF 7F 4C E2 06 01  1C 08 80 00              ....L.......    
```

#### Opcodes

```
  0: 0x01AD [0x32] ExtData[1]->MainSpeed = 11* * 0.1
  1: 0x01B0 [0x1F] MOVE_ENTITY: EventEntity moves to X=-200.107*, Z=359.840*, Y=7.999*
  2: 0x01B8 [0x1F] MOVE_ENTITY: Update entity position (mode=1)
  3: 0x01BA [0x6F] WAIT_FRAME_DELAY: Yield until WaitTime reaches zero
  4: 0x01BB [0x1C] WAIT(30* ticks)
  5: 0x01BE [0x79] EventEntity looks at Cavernous Maw (ID: 17228364/0x0106E24C) (Basic look)
  6: 0x01C8 [0x1C] WAIT(60* ticks)
  7: 0x01CB [0x00] END_REQSTACK()
```

### Event 65535.4

#### Metadata

| Field        | Value    |
|--------------|----------|
| Entrypoint   | 0x01CC   |
| Data Size    | 31 bytes |
| Instructions | 8        |

```
      00 01 02 03 04 05 06 07  08 09 0A 0B 0C 0D 0E 0F
      -- -- -- -- -- -- -- --  -- -- -- -- -- -- -- --
01C0:                                      32 17 80 1F              2...
01D0: 00 1B 80 1C 80 1D 80 1F  01 6F 1C 11 80 79 00 F8  .........o...y..
01E0: FF FF 7F 4C E2 06 01 1C  08 80 00                 ...L.......     
```

#### Opcodes

```
  0: 0x01CC [0x32] ExtData[1]->MainSpeed = 11* * 0.1
  1: 0x01CF [0x1F] MOVE_ENTITY: EventEntity moves to X=-47.959*, Z=436.800*, Y=0.196*
  2: 0x01D7 [0x1F] MOVE_ENTITY: Update entity position (mode=1)
  3: 0x01D9 [0x6F] WAIT_FRAME_DELAY: Yield until WaitTime reaches zero
  4: 0x01DA [0x1C] WAIT(30* ticks)
  5: 0x01DD [0x79] EventEntity looks at Cavernous Maw (ID: 17228364/0x0106E24C) (Basic look)
  6: 0x01E7 [0x1C] WAIT(60* ticks)
  7: 0x01EA [0x00] END_REQSTACK()
```

### Event 65535.5

#### Metadata

| Field        | Value    |
|--------------|----------|
| Entrypoint   | 0x01EB   |
| Data Size    | 31 bytes |
| Instructions | 8        |

```
      00 01 02 03 04 05 06 07  08 09 0A 0B 0C 0D 0E 0F
      -- -- -- -- -- -- -- --  -- -- -- -- -- -- -- --
01E0:                                   32 17 80 1F 00             2....
01F0: 1E 80 1F 80 20 80 1F 01  6F 1C 11 80 79 00 F8 FF  .... ...o...y...
0200: FF 7F 4C E2 06 01 1C 08  80 00                    ..L.......      
```

#### Opcodes

```
  0: 0x01EB [0x32] ExtData[1]->MainSpeed = 11* * 0.1
  1: 0x01EE [0x1F] MOVE_ENTITY: EventEntity moves to X=370.542*, Z=-225.628*, Y=9.101*
  2: 0x01F6 [0x1F] MOVE_ENTITY: Update entity position (mode=1)
  3: 0x01F8 [0x6F] WAIT_FRAME_DELAY: Yield until WaitTime reaches zero
  4: 0x01F9 [0x1C] WAIT(30* ticks)
  5: 0x01FC [0x79] EventEntity looks at Cavernous Maw (ID: 17228364/0x0106E24C) (Basic look)
  6: 0x0206 [0x1C] WAIT(60* ticks)
  7: 0x0209 [0x00] END_REQSTACK()
```

### Event 65535.6

#### Metadata

| Field        | Value    |
|--------------|----------|
| Entrypoint   | 0x020A   |
| Data Size    | 15 bytes |
| Instructions | 5        |

```
      00 01 02 03 04 05 06 07  08 09 0A 0B 0C 0D 0E 0F
      -- -- -- -- -- -- -- --  -- -- -- -- -- -- -- --
0200:                                32 17 80 1F 00 21            2....!
0210: 80 22 80 1A 80 1F 01 6F  00                       .".....o.       
```

#### Opcodes

```
  0: 0x020A [0x32] ExtData[1]->MainSpeed = 11* * 0.1
  1: 0x020D [0x1F] MOVE_ENTITY: EventEntity moves to X=-197.695*, Z=362.419*, Y=7.999*
  2: 0x0215 [0x1F] MOVE_ENTITY: Update entity position (mode=1)
  3: 0x0217 [0x6F] WAIT_FRAME_DELAY: Yield until WaitTime reaches zero
  4: 0x0218 [0x00] END_REQSTACK()
```

### Event 65535.7

#### Metadata

| Field        | Value    |
|--------------|----------|
| Entrypoint   | 0x0219   |
| Data Size    | 15 bytes |
| Instructions | 5        |

```
      00 01 02 03 04 05 06 07  08 09 0A 0B 0C 0D 0E 0F
      -- -- -- -- -- -- -- --  -- -- -- -- -- -- -- --
0210:                             32 17 80 1F 00 23 80           2....#.
0220: 24 80 25 80 1F 01 6F 00                           $.%...o.        
```

#### Opcodes

```
  0: 0x0219 [0x32] ExtData[1]->MainSpeed = 11* * 0.1
  1: 0x021C [0x1F] MOVE_ENTITY: EventEntity moves to X=-52.807*, Z=436.830*, Y=0.476*
  2: 0x0224 [0x1F] MOVE_ENTITY: Update entity position (mode=1)
  3: 0x0226 [0x6F] WAIT_FRAME_DELAY: Yield until WaitTime reaches zero
  4: 0x0227 [0x00] END_REQSTACK()
```

### Event 65535.8

#### Metadata

| Field        | Value    |
|--------------|----------|
| Entrypoint   | 0x0228   |
| Data Size    | 15 bytes |
| Instructions | 5        |

```
      00 01 02 03 04 05 06 07  08 09 0A 0B 0C 0D 0E 0F
      -- -- -- -- -- -- -- --  -- -- -- -- -- -- -- --
0220:                          32 17 80 1F 00 26 80 27          2....&.'
0230: 80 28 80 1F 01 6F 00                              .(...o.         
```

#### Opcodes

```
  0: 0x0228 [0x32] ExtData[1]->MainSpeed = 11* * 0.1
  1: 0x022B [0x1F] MOVE_ENTITY: EventEntity moves to X=368.612*, Z=-227.501*, Y=8.825*
  2: 0x0233 [0x1F] MOVE_ENTITY: Update entity position (mode=1)
  3: 0x0235 [0x6F] WAIT_FRAME_DELAY: Yield until WaitTime reaches zero
  4: 0x0236 [0x00] END_REQSTACK()
```

### Event 65535.9

#### Metadata

| Field        | Value    |
|--------------|----------|
| Entrypoint   | 0x0237   |
| Data Size    | 27 bytes |
| Instructions | 5        |

```
      00 01 02 03 04 05 06 07  08 09 0A 0B 0C 0D 0E 0F
      -- -- -- -- -- -- -- --  -- -- -- -- -- -- -- --
0230:                      03  03 00 07 7F 1A 01 09 66         ........f
0240: 04 00 F8 FF FF 7F F8 FF  FF 7F 61 74 30 30 1C 06  ..........at00..
0250: 80 00                                             ..              
```

#### Opcodes

```
  0: 0x0237 [0x03] ExtData[1]->WorkLocal[3] = Entity->Race
  1: 0x023C [0x1A] CALL_SUBROUTINE(address=0x0901)
  2: 0x023F [0x66] LOAD_EXT_SCHEDULER_MAIN: Load scheduler "at00" with entities [EventEntity, EventEntity], work=ExtData[1]->WorkLocal[4]
  3: 0x024E [0x1C] WAIT(240* ticks)
  4: 0x0251 [0x00] END_REQSTACK()
```

### Event 65535.10

#### Metadata

| Field        | Value    |
|--------------|----------|
| Entrypoint   | 0x0252   |
| Data Size    | 29 bytes |
| Instructions | 5        |

```
      00 01 02 03 04 05 06 07  08 09 0A 0B 0C 0D 0E 0F
      -- -- -- -- -- -- -- --  -- -- -- -- -- -- -- --
0250:       7B F8 FF FF 7F 03  03 00 07 7F 1A 01 09 66    {............f
0260: 04 00 F8 FF FF 7F F8 FF  FF 7F 61 74 70 30 00     ..........atp0. 
```

#### Opcodes

```
  0: 0x0252 [0x7B] EventEntity stops talking
  1: 0x0257 [0x03] ExtData[1]->WorkLocal[3] = Entity->Race
  2: 0x025C [0x1A] CALL_SUBROUTINE(address=0x0901)
  3: 0x025F [0x66] LOAD_EXT_SCHEDULER_MAIN: Load scheduler "atp0" with entities [EventEntity, EventEntity], work=ExtData[1]->WorkLocal[4]
  4: 0x026E [0x00] END_REQSTACK()
```

### Event 65535.11

#### Metadata

| Field        | Value    |
|--------------|----------|
| Entrypoint   | 0x026F   |
| Data Size    | 27 bytes |
| Instructions | 5        |

```
      00 01 02 03 04 05 06 07  08 09 0A 0B 0C 0D 0E 0F
      -- -- -- -- -- -- -- --  -- -- -- -- -- -- -- --
0260:                                               03                 .
0270: 03 00 07 7F 1A 01 09 66  04 00 F8 FF FF 7F F8 FF  .......f........
0280: FF 7F 61 74 70 31 1C 29  80 00                    ..atp1.)..      
```

#### Opcodes

```
  0: 0x026F [0x03] ExtData[1]->WorkLocal[3] = Entity->Race
  1: 0x0274 [0x1A] CALL_SUBROUTINE(address=0x0901)
  2: 0x0277 [0x66] LOAD_EXT_SCHEDULER_MAIN: Load scheduler "atp1" with entities [EventEntity, EventEntity], work=ExtData[1]->WorkLocal[4]
  3: 0x0286 [0x1C] WAIT(300* ticks)
  4: 0x0289 [0x00] END_REQSTACK()
```

### Event 65535.12

#### Metadata

| Field        | Value    |
|--------------|----------|
| Entrypoint   | 0x028A   |
| Data Size    | 15 bytes |
| Instructions | 5        |

```
      00 01 02 03 04 05 06 07  08 09 0A 0B 0C 0D 0E 0F
      -- -- -- -- -- -- -- --  -- -- -- -- -- -- -- --
0280:                                32 2A 80 1F 00 2B            2*...+
0290: 80 2C 80 2D 80 1F 01 6F  00                       .,.-...o.       
```

#### Opcodes

```
  0: 0x028A [0x32] ExtData[1]->MainSpeed = 10* * 0.1
  1: 0x028D [0x1F] MOVE_ENTITY: EventEntity moves to X=-427.011*, Z=-238.620*, Y=19.999*
  2: 0x0295 [0x1F] MOVE_ENTITY: Update entity position (mode=1)
  3: 0x0297 [0x6F] WAIT_FRAME_DELAY: Yield until WaitTime reaches zero
  4: 0x0298 [0x00] END_REQSTACK()
```

### Event 65535.13

#### Metadata

| Field        | Value    |
|--------------|----------|
| Entrypoint   | 0x0299   |
| Data Size    | 27 bytes |
| Instructions | 5        |

```
      00 01 02 03 04 05 06 07  08 09 0A 0B 0C 0D 0E 0F
      -- -- -- -- -- -- -- --  -- -- -- -- -- -- -- --
0290:                             03 03 00 07 7F 1A 01           .......
02A0: 09 66 04 00 F8 FF FF 7F  F8 FF FF 7F 65 63 30 30  .f..........ec00
02B0: 1C 11 80 00                                       ....            
```

#### Opcodes

```
  0: 0x0299 [0x03] ExtData[1]->WorkLocal[3] = Entity->Race
  1: 0x029E [0x1A] CALL_SUBROUTINE(address=0x0901)
  2: 0x02A1 [0x66] LOAD_EXT_SCHEDULER_MAIN: Load scheduler "ec00" with entities [EventEntity, EventEntity], work=ExtData[1]->WorkLocal[4]
  3: 0x02B0 [0x1C] WAIT(30* ticks)
  4: 0x02B3 [0x00] END_REQSTACK()
```

### Event 65535.14

#### Metadata

| Field        | Value    |
|--------------|----------|
| Entrypoint   | 0x02B4   |
| Data Size    | 35 bytes |
| Instructions | 6        |

```
      00 01 02 03 04 05 06 07  08 09 0A 0B 0C 0D 0E 0F
      -- -- -- -- -- -- -- --  -- -- -- -- -- -- -- --
02B0:             33 01 37 2E  80 2F 80 2D 80 30 80 03      3.7../.-.0..
02C0: 03 00 07 7F 1A 01 09 66  04 00 F8 FF FF 7F F8 FF  .......f........
02D0: FF 7F 65 63 61 30 00                              ..eca0.         
```

#### Opcodes

```
  0: 0x02B4 [0x33] EventEntity->Render.Flags0 |= 0x200000 // Bit 21 (flag=0x01)
  1: 0x02B6 [0x37] UPDATE_EVENT_POSITION_AND_DIR: x=-428.167*, z=-248.306*, y=19.999*, direction=272.4°*
  2: 0x02BF [0x03] ExtData[1]->WorkLocal[3] = Entity->Race
  3: 0x02C4 [0x1A] CALL_SUBROUTINE(address=0x0901)
  4: 0x02C7 [0x66] LOAD_EXT_SCHEDULER_MAIN: Load scheduler "eca0" with entities [EventEntity, EventEntity], work=ExtData[1]->WorkLocal[4]
  5: 0x02D6 [0x00] END_REQSTACK()
```

### Event 65535.15

#### Metadata

| Field        | Value    |
|--------------|----------|
| Entrypoint   | 0x02D7   |
| Data Size    | 27 bytes |
| Instructions | 5        |

```
      00 01 02 03 04 05 06 07  08 09 0A 0B 0C 0D 0E 0F
      -- -- -- -- -- -- -- --  -- -- -- -- -- -- -- --
02D0:                      03  03 00 07 7F 1A 01 09 66         ........f
02E0: 04 00 F8 FF FF 7F F8 FF  FF 7F 65 63 61 31 1C 08  ..........eca1..
02F0: 80 00                                             ..              
```

#### Opcodes

```
  0: 0x02D7 [0x03] ExtData[1]->WorkLocal[3] = Entity->Race
  1: 0x02DC [0x1A] CALL_SUBROUTINE(address=0x0901)
  2: 0x02DF [0x66] LOAD_EXT_SCHEDULER_MAIN: Load scheduler "eca1" with entities [EventEntity, EventEntity], work=ExtData[1]->WorkLocal[4]
  3: 0x02EE [0x1C] WAIT(60* ticks)
  4: 0x02F1 [0x00] END_REQSTACK()
```

### Event 65535.16

#### Metadata

| Field        | Value    |
|--------------|----------|
| Entrypoint   | 0x02F2   |
| Data Size    | 14 bytes |
| Instructions | 4        |

```
      00 01 02 03 04 05 06 07  08 09 0A 0B 0C 0D 0E 0F
      -- -- -- -- -- -- -- --  -- -- -- -- -- -- -- --
02F0:       32 31 80 1F 00 32  80 33 80 34 80 1F 01 00    21...2.3.4....
```

#### Opcodes

```
  0: 0x02F2 [0x32] ExtData[1]->MainSpeed = 13* * 0.1
  1: 0x02F5 [0x1F] MOVE_ENTITY: EventEntity moves to X=580.498*, Z=-218.677*, Y=35.999*
  2: 0x02FD [0x1F] MOVE_ENTITY: Update entity position (mode=1)
  3: 0x02FF [0x00] END_REQSTACK()
```

### Event 65535.17

#### Metadata

| Field        | Value    |
|--------------|----------|
| Entrypoint   | 0x0300   |
| Data Size    | 14 bytes |
| Instructions | 4        |

```
      00 01 02 03 04 05 06 07  08 09 0A 0B 0C 0D 0E 0F
      -- -- -- -- -- -- -- --  -- -- -- -- -- -- -- --
0300: 32 31 80 1F 00 35 80 36  80 34 80 1F 01 00        21...5.6.4....  
```

#### Opcodes

```
  0: 0x0300 [0x32] ExtData[1]->MainSpeed = 13* * 0.1
  1: 0x0303 [0x1F] MOVE_ENTITY: EventEntity moves to X=579.003*, Z=-222.686*, Y=35.999*
  2: 0x030B [0x1F] MOVE_ENTITY: Update entity position (mode=1)
  3: 0x030D [0x00] END_REQSTACK()
```

### Event 65535.18

#### Metadata

| Field        | Value    |
|--------------|----------|
| Entrypoint   | 0x030E   |
| Data Size    | 14 bytes |
| Instructions | 4        |

```
      00 01 02 03 04 05 06 07  08 09 0A 0B 0C 0D 0E 0F
      -- -- -- -- -- -- -- --  -- -- -- -- -- -- -- --
0300:                                            32 31                21
0310: 80 1F 00 37 80 38 80 39  80 1F 01 00              ...7.8.9....    
```

#### Opcodes

```
  0: 0x030E [0x32] ExtData[1]->MainSpeed = 13* * 0.1
  1: 0x0311 [0x1F] MOVE_ENTITY: EventEntity moves to X=578.906*, Z=-244.664*, Y=34.250*
  2: 0x0319 [0x1F] MOVE_ENTITY: Update entity position (mode=1)
  3: 0x031B [0x00] END_REQSTACK()
```

### Event 65535.19

#### Metadata

| Field        | Value    |
|--------------|----------|
| Entrypoint   | 0x031C   |
| Data Size    | 14 bytes |
| Instructions | 4        |

```
      00 01 02 03 04 05 06 07  08 09 0A 0B 0C 0D 0E 0F
      -- -- -- -- -- -- -- --  -- -- -- -- -- -- -- --
0310:                                      32 31 80 1F              21..
0320: 00 3A 80 3B 80 05 80 1F  01 00                    .:.;......      
```

#### Opcodes

```
  0: 0x031C [0x32] ExtData[1]->MainSpeed = 13* * 0.1
  1: 0x031F [0x1F] MOVE_ENTITY: EventEntity moves to X=556.718*, Z=-365.727*, Y=0.000*
  2: 0x0327 [0x1F] MOVE_ENTITY: Update entity position (mode=1)
  3: 0x0329 [0x00] END_REQSTACK()
```

### Event 65535.20

#### Metadata

| Field        | Value    |
|--------------|----------|
| Entrypoint   | 0x032A   |
| Data Size    | 14 bytes |
| Instructions | 4        |

```
      00 01 02 03 04 05 06 07  08 09 0A 0B 0C 0D 0E 0F
      -- -- -- -- -- -- -- --  -- -- -- -- -- -- -- --
0320:                                32 2A 80 1F 00 3C            2*...<
0330: 80 3D 80 05 80 1F 01 00                           .=......        
```

#### Opcodes

```
  0: 0x032A [0x32] ExtData[1]->MainSpeed = 10* * 0.1
  1: 0x032D [0x1F] MOVE_ENTITY: EventEntity moves to X=-293.206*, Z=-479.226*, Y=0.000*
  2: 0x0335 [0x1F] MOVE_ENTITY: Update entity position (mode=1)
  3: 0x0337 [0x00] END_REQSTACK()
```

### Event 65535.21

#### Metadata

| Field        | Value    |
|--------------|----------|
| Entrypoint   | 0x0338   |
| Data Size    | 14 bytes |
| Instructions | 4        |

```
      00 01 02 03 04 05 06 07  08 09 0A 0B 0C 0D 0E 0F
      -- -- -- -- -- -- -- --  -- -- -- -- -- -- -- --
0330:                          32 31 80 1F 00 3E 80 3F          21...>.?
0340: 80 34 80 1F 01 00                                 .4....          
```

#### Opcodes

```
  0: 0x0338 [0x32] ExtData[1]->MainSpeed = 13* * 0.1
  1: 0x033B [0x1F] MOVE_ENTITY: EventEntity moves to X=582.011*, Z=-211.108*, Y=35.999*
  2: 0x0343 [0x1F] MOVE_ENTITY: Update entity position (mode=1)
  3: 0x0345 [0x00] END_REQSTACK()
```

### Event 65535.22

#### Metadata

| Field        | Value    |
|--------------|----------|
| Entrypoint   | 0x0346   |
| Data Size    | 14 bytes |
| Instructions | 4        |

```
      00 01 02 03 04 05 06 07  08 09 0A 0B 0C 0D 0E 0F
      -- -- -- -- -- -- -- --  -- -- -- -- -- -- -- --
0340:                   32 31  80 1F 00 40 80 41 80 34        21...@.A.4
0350: 80 1F 01 00                                       ....            
```

#### Opcodes

```
  0: 0x0346 [0x32] ExtData[1]->MainSpeed = 13* * 0.1
  1: 0x0349 [0x1F] MOVE_ENTITY: EventEntity moves to X=580.021*, Z=-228.200*, Y=35.999*
  2: 0x0351 [0x1F] MOVE_ENTITY: Update entity position (mode=1)
  3: 0x0353 [0x00] END_REQSTACK()
```

### Event 65535.23

#### Metadata

| Field        | Value    |
|--------------|----------|
| Entrypoint   | 0x0354   |
| Data Size    | 28 bytes |
| Instructions | 6        |

```
      00 01 02 03 04 05 06 07  08 09 0A 0B 0C 0D 0E 0F
      -- -- -- -- -- -- -- --  -- -- -- -- -- -- -- --
0350:             6E F0 FF FF  7F 42 80 99 F0 FF FF 7F      n....B......
0360: 1C 43 80 6E F0 FF FF 7F  2A 80 99 F0 FF FF 7F 00  .C.n....*.......
```

#### Opcodes

```
  0: 0x0354 [0x6E] LocalPlayer uses emote 7*
  1: 0x035B [0x99] Wait for LocalPlayer animation to complete
  2: 0x0360 [0x1C] WAIT(90* ticks)
  3: 0x0363 [0x6E] LocalPlayer uses emote 10*
  4: 0x036A [0x99] Wait for LocalPlayer animation to complete
  5: 0x036F [0x00] END_REQSTACK()
```

### Event 65535.24

#### Metadata

| Field        | Value    |
|--------------|----------|
| Entrypoint   | 0x0370   |
| Data Size    | 16 bytes |
| Instructions | 3        |

```
      00 01 02 03 04 05 06 07  08 09 0A 0B 0C 0D 0E 0F
      -- -- -- -- -- -- -- --  -- -- -- -- -- -- -- --
0370: 6C F0 FF FF 7F 05 80 44  80 92 01 F0 FF FF 7F 00  l......D........
```

#### Opcodes

```
  0: 0x0370 [0x6C] FADE_ENTITY_COLOR(entity_id=LocalPlayer, end_alpha=0*, fade_time=1*)
  1: 0x0379 [0x92] LocalPlayer->Render.Flags3 ^= 0x01
  2: 0x037F [0x00] END_REQSTACK()
```

### Event 65535.25

#### Metadata

| Field        | Value    |
|--------------|----------|
| Entrypoint   | 0x0380   |
| Data Size    | 16 bytes |
| Instructions | 3        |

```
      00 01 02 03 04 05 06 07  08 09 0A 0B 0C 0D 0E 0F
      -- -- -- -- -- -- -- --  -- -- -- -- -- -- -- --
0380: 6C F0 FF FF 7F 45 80 44  80 92 00 F0 FF FF 7F 00  l....E.D........
```

#### Opcodes

```
  0: 0x0380 [0x6C] FADE_ENTITY_COLOR(entity_id=LocalPlayer, end_alpha=128*, fade_time=1*)
  1: 0x0389 [0x92] LocalPlayer->Render.Flags3 = Flags3  // No change (flag=0)
  2: 0x038F [0x00] END_REQSTACK()
```

### Event 65535.26

#### Metadata

| Field        | Value    |
|--------------|----------|
| Entrypoint   | 0x0390   |
| Data Size    | 38 bytes |
| Instructions | 5        |

```
      00 01 02 03 04 05 06 07  08 09 0A 0B 0C 0D 0E 0F
      -- -- -- -- -- -- -- --  -- -- -- -- -- -- -- --
0390: 22 00 2F 00 F8 FF FF 7F  B6 0B 46 80 05 80 47 80  "./.......F...G.
03A0: 48 80 49 80 49 80 49 80  16 80 4A 80 6C F8 FF FF  H.I.I.I...J.l...
03B0: 7F 4B 80 44 80 00                                 .K.D..          
```

#### Opcodes

```
  0: 0x0390 [0x22] ENTITY_HIDE_FLAG(enabled=0x00)
  1: 0x0392 [0x2F] EventEntity->Render.Flags0 &= ~0x80000 // Bit 19
  2: 0x0398 [0xB6] ENTITY_APPEARANCE_HANDLER(case=Full entity look, race=8*, hair=0*, head=145*, body=79*, hands=76*, legs=76*, feet=76*, main=201*, sub=262*)
  3: 0x03AC [0x6C] FADE_ENTITY_COLOR(entity_id=EventEntity, end_alpha=64*, fade_time=1*)
  4: 0x03B5 [0x00] END_REQSTACK()
```

### Event 65535.27

#### Metadata

| Field        | Value    |
|--------------|----------|
| Entrypoint   | 0x03B6   |
| Data Size    | 38 bytes |
| Instructions | 5        |

```
      00 01 02 03 04 05 06 07  08 09 0A 0B 0C 0D 0E 0F
      -- -- -- -- -- -- -- --  -- -- -- -- -- -- -- --
03B0:                   22 00  2F 00 F8 FF FF 7F B6 0B        "./.......
03C0: 44 80 05 80 47 80 48 80  49 80 49 80 49 80 16 80  D...G.H.I.I.I...
03D0: 4C 80 6C F8 FF FF 7F 4D  80 44 80 00              L.l....M.D..    
```

#### Opcodes

```
  0: 0x03B6 [0x22] ENTITY_HIDE_FLAG(enabled=0x00)
  1: 0x03B8 [0x2F] EventEntity->Render.Flags0 &= ~0x80000 // Bit 19
  2: 0x03BE [0xB6] ENTITY_APPEARANCE_HANDLER(case=Full entity look, race=1*, hair=0*, head=145*, body=79*, hands=76*, legs=76*, feet=76*, main=201*, sub=24*)
  3: 0x03D2 [0x6C] FADE_ENTITY_COLOR(entity_id=EventEntity, end_alpha=80*, fade_time=1*)
  4: 0x03DB [0x00] END_REQSTACK()
```

### Event 65535.28

#### Metadata

| Field        | Value    |
|--------------|----------|
| Entrypoint   | 0x03DC   |
| Data Size    | 38 bytes |
| Instructions | 5        |

```
      00 01 02 03 04 05 06 07  08 09 0A 0B 0C 0D 0E 0F
      -- -- -- -- -- -- -- --  -- -- -- -- -- -- -- --
03D0:                                      22 00 2F 00              "./.
03E0: F8 FF FF 7F B6 0B 4E 80  05 80 47 80 48 80 49 80  ......N...G.H.I.
03F0: 49 80 49 80 16 80 4C 80  6C F8 FF FF 7F 4F 80 44  I.I...L.l....O.D
0400: 80 00                                             ..              
```

#### Opcodes

```
  0: 0x03DC [0x22] ENTITY_HIDE_FLAG(enabled=0x00)
  1: 0x03DE [0x2F] EventEntity->Render.Flags0 &= ~0x80000 // Bit 19
  2: 0x03E4 [0xB6] ENTITY_APPEARANCE_HANDLER(case=Full entity look, race=4*, hair=0*, head=145*, body=79*, hands=76*, legs=76*, feet=76*, main=201*, sub=24*)
  3: 0x03F8 [0x6C] FADE_ENTITY_COLOR(entity_id=EventEntity, end_alpha=96*, fade_time=1*)
  4: 0x0401 [0x00] END_REQSTACK()
```

### Event 65535.29

#### Metadata

| Field        | Value     |
|--------------|-----------|
| Entrypoint   | 0x0402    |
| Data Size    | 209 bytes |
| Instructions | 25        |

```
      00 01 02 03 04 05 06 07  08 09 0A 0B 0C 0D 0E 0F
      -- -- -- -- -- -- -- --  -- -- -- -- -- -- -- --
0400:       02 02 10 44 80 80  1C 04 66 50 80 F0 FF FF    ...D....fP....
0410: 7F F0 FF FF 7F 65 63 61  30 01 D2 04 02 02 10 51  .....eca0......Q
0420: 80 80 36 04 66 4D 80 F0  FF FF 7F F0 FF FF 7F 65  ..6.fM.........e
0430: 63 61 30 01 D2 04 02 02  10 52 80 80 50 04 66 43  ca0......R..P.fC
0440: 80 F0 FF FF 7F F0 FF FF  7F 65 63 61 30 01 D2 04  .........eca0...
0450: 02 02 10 4E 80 80 6A 04  66 53 80 F0 FF FF 7F F0  ...N..j.fS......
0460: FF FF 7F 65 63 61 30 01  D2 04 02 02 10 0F 80 80  ...eca0.........
0470: 84 04 66 54 80 F0 FF FF  7F F0 FF FF 7F 65 63 61  ..fT.........eca
0480: 30 01 D2 04 02 02 10 55  80 80 9E 04 66 54 80 F0  0......U....fT..
0490: FF FF 7F F0 FF FF 7F 65  63 61 30 01 D2 04 02 02  .......eca0.....
04A0: 10 42 80 80 B8 04 66 56  80 F0 FF FF 7F F0 FF FF  .B....fV........
04B0: 7F 65 63 61 30 01 D2 04  02 02 10 46 80 80 D2 04  .eca0......F....
04C0: 66 57 80 F0 FF FF 7F F0  FF FF 7F 65 63 61 30 01  fW.........eca0.
04D0: D2 04 00                                          ...             
```

#### Opcodes

```
  0: 0x0402 [0x02] IF !(Work_Zone[2] == 1*) GOTO 0x041C
  1: 0x040A [0x66] LOAD_EXT_SCHEDULER_MAIN: Load scheduler "eca0" with entities [LocalPlayer, LocalPlayer], work=70*
  2: 0x0419 [0x01] GOTO 0x04D2
  3: 0x041C [0x02] IF !(Work_Zone[2] == 2*) GOTO 0x0436
  4: 0x0424 [0x66] LOAD_EXT_SCHEDULER_MAIN: Load scheduler "eca0" with entities [LocalPlayer, LocalPlayer], work=80*
  5: 0x0433 [0x01] GOTO 0x04D2
  6: 0x0436 [0x02] IF !(Work_Zone[2] == 3*) GOTO 0x0450
  7: 0x043E [0x66] LOAD_EXT_SCHEDULER_MAIN: Load scheduler "eca0" with entities [LocalPlayer, LocalPlayer], work=90*
  8: 0x044D [0x01] GOTO 0x04D2
  9: 0x0450 [0x02] IF !(Work_Zone[2] == 4*) GOTO 0x046A
 10: 0x0458 [0x66] LOAD_EXT_SCHEDULER_MAIN: Load scheduler "eca0" with entities [LocalPlayer, LocalPlayer], work=100*
 11: 0x0467 [0x01] GOTO 0x04D2
 12: 0x046A [0x02] IF !(Work_Zone[2] == 5*) GOTO 0x0484
 13: 0x0472 [0x66] LOAD_EXT_SCHEDULER_MAIN: Load scheduler "eca0" with entities [LocalPlayer, LocalPlayer], work=110*
 14: 0x0481 [0x01] GOTO 0x04D2
 15: 0x0484 [0x02] IF !(Work_Zone[2] == 6*) GOTO 0x049E
 16: 0x048C [0x66] LOAD_EXT_SCHEDULER_MAIN: Load scheduler "eca0" with entities [LocalPlayer, LocalPlayer], work=110*
 17: 0x049B [0x01] GOTO 0x04D2
 18: 0x049E [0x02] IF !(Work_Zone[2] == 7*) GOTO 0x04B8
 19: 0x04A6 [0x66] LOAD_EXT_SCHEDULER_MAIN: Load scheduler "eca0" with entities [LocalPlayer, LocalPlayer], work=120*
 20: 0x04B5 [0x01] GOTO 0x04D2
 21: 0x04B8 [0x02] IF !(Work_Zone[2] == 8*) GOTO 0x04D2
 22: 0x04C0 [0x66] LOAD_EXT_SCHEDULER_MAIN: Load scheduler "eca0" with entities [LocalPlayer, LocalPlayer], work=130*
 23: 0x04CF [0x01] GOTO 0x04D2

SUBROUTINE_04D2:
 24: 0x04D2 [0x00] END_REQSTACK()
```

### Event 65535.30

#### Metadata

| Field        | Value     |
|--------------|-----------|
| Entrypoint   | 0x04D3    |
| Data Size    | 209 bytes |
| Instructions | 25        |

```
      00 01 02 03 04 05 06 07  08 09 0A 0B 0C 0D 0E 0F
      -- -- -- -- -- -- -- --  -- -- -- -- -- -- -- --
04D0:          02 02 10 44 80  80 ED 04 66 50 80 F0 FF     ...D....fP...
04E0: FF 7F F0 FF FF 7F 61 74  70 30 01 A3 05 02 02 10  ......atp0......
04F0: 51 80 80 07 05 66 4D 80  F0 FF FF 7F F0 FF FF 7F  Q....fM.........
0500: 61 74 70 30 01 A3 05 02  02 10 52 80 80 21 05 66  atp0......R..!.f
0510: 43 80 F0 FF FF 7F F0 FF  FF 7F 61 74 70 30 01 A3  C.........atp0..
0520: 05 02 02 10 4E 80 80 3B  05 66 53 80 F0 FF FF 7F  ....N..;.fS.....
0530: F0 FF FF 7F 61 74 70 30  01 A3 05 02 02 10 0F 80  ....atp0........
0540: 80 55 05 66 54 80 F0 FF  FF 7F F0 FF FF 7F 61 74  .U.fT.........at
0550: 70 30 01 A3 05 02 02 10  55 80 80 6F 05 66 54 80  p0......U..o.fT.
0560: F0 FF FF 7F F0 FF FF 7F  61 74 70 30 01 A3 05 02  ........atp0....
0570: 02 10 42 80 80 89 05 66  56 80 F0 FF FF 7F F0 FF  ..B....fV.......
0580: FF 7F 61 74 70 30 01 A3  05 02 02 10 46 80 80 A3  ..atp0......F...
0590: 05 66 57 80 F0 FF FF 7F  F0 FF FF 7F 61 74 70 30  .fW.........atp0
05A0: 01 A3 05 00                                       ....            
```

#### Opcodes

```
  0: 0x04D3 [0x02] IF !(Work_Zone[2] == 1*) GOTO 0x04ED
  1: 0x04DB [0x66] LOAD_EXT_SCHEDULER_MAIN: Load scheduler "atp0" with entities [LocalPlayer, LocalPlayer], work=70*
  2: 0x04EA [0x01] GOTO 0x05A3
  3: 0x04ED [0x02] IF !(Work_Zone[2] == 2*) GOTO 0x0507
  4: 0x04F5 [0x66] LOAD_EXT_SCHEDULER_MAIN: Load scheduler "atp0" with entities [LocalPlayer, LocalPlayer], work=80*
  5: 0x0504 [0x01] GOTO 0x05A3
  6: 0x0507 [0x02] IF !(Work_Zone[2] == 3*) GOTO 0x0521
  7: 0x050F [0x66] LOAD_EXT_SCHEDULER_MAIN: Load scheduler "atp0" with entities [LocalPlayer, LocalPlayer], work=90*
  8: 0x051E [0x01] GOTO 0x05A3
  9: 0x0521 [0x02] IF !(Work_Zone[2] == 4*) GOTO 0x053B
 10: 0x0529 [0x66] LOAD_EXT_SCHEDULER_MAIN: Load scheduler "atp0" with entities [LocalPlayer, LocalPlayer], work=100*
 11: 0x0538 [0x01] GOTO 0x05A3
 12: 0x053B [0x02] IF !(Work_Zone[2] == 5*) GOTO 0x0555
 13: 0x0543 [0x66] LOAD_EXT_SCHEDULER_MAIN: Load scheduler "atp0" with entities [LocalPlayer, LocalPlayer], work=110*
 14: 0x0552 [0x01] GOTO 0x05A3
 15: 0x0555 [0x02] IF !(Work_Zone[2] == 6*) GOTO 0x056F
 16: 0x055D [0x66] LOAD_EXT_SCHEDULER_MAIN: Load scheduler "atp0" with entities [LocalPlayer, LocalPlayer], work=110*
 17: 0x056C [0x01] GOTO 0x05A3
 18: 0x056F [0x02] IF !(Work_Zone[2] == 7*) GOTO 0x0589
 19: 0x0577 [0x66] LOAD_EXT_SCHEDULER_MAIN: Load scheduler "atp0" with entities [LocalPlayer, LocalPlayer], work=120*
 20: 0x0586 [0x01] GOTO 0x05A3
 21: 0x0589 [0x02] IF !(Work_Zone[2] == 8*) GOTO 0x05A3
 22: 0x0591 [0x66] LOAD_EXT_SCHEDULER_MAIN: Load scheduler "atp0" with entities [LocalPlayer, LocalPlayer], work=130*
 23: 0x05A0 [0x01] GOTO 0x05A3

SUBROUTINE_05A3:
 24: 0x05A3 [0x00] END_REQSTACK()
```

### Event 65535.31

#### Metadata

| Field        | Value     |
|--------------|-----------|
| Entrypoint   | 0x05A4    |
| Data Size    | 209 bytes |
| Instructions | 25        |

```
      00 01 02 03 04 05 06 07  08 09 0A 0B 0C 0D 0E 0F
      -- -- -- -- -- -- -- --  -- -- -- -- -- -- -- --
05A0:             02 02 10 44  80 80 BE 05 66 58 80 F0      ...D....fX..
05B0: FF FF 7F F0 FF FF 7F 64  61 6B 30 01 74 06 02 02  .......dak0.t...
05C0: 10 51 80 80 D8 05 66 59  80 F0 FF FF 7F F0 FF FF  .Q....fY........
05D0: 7F 64 61 6B 30 01 74 06  02 02 10 52 80 80 F2 05  .dak0.t....R....
05E0: 66 5A 80 F0 FF FF 7F F0  FF FF 7F 64 61 6B 30 01  fZ.........dak0.
05F0: 74 06 02 02 10 4E 80 80  0C 06 66 5B 80 F0 FF FF  t....N....f[....
0600: 7F F0 FF FF 7F 64 61 6B  30 01 74 06 02 02 10 0F  .....dak0.t.....
0610: 80 80 26 06 66 5C 80 F0  FF FF 7F F0 FF FF 7F 64  ..&.f\.........d
0620: 61 6B 30 01 74 06 02 02  10 55 80 80 40 06 66 5C  ak0.t....U..@.f\
0630: 80 F0 FF FF 7F F0 FF FF  7F 64 61 6B 30 01 74 06  .........dak0.t.
0640: 02 02 10 42 80 80 5A 06  66 5D 80 F0 FF FF 7F F0  ...B..Z.f]......
0650: FF FF 7F 64 61 6B 30 01  74 06 02 02 10 46 80 80  ...dak0.t....F..
0660: 74 06 66 5E 80 F0 FF FF  7F F0 FF FF 7F 64 61 6B  t.f^.........dak
0670: 30 01 74 06 00                                    0.t..           
```

#### Opcodes

```
  0: 0x05A4 [0x02] IF !(Work_Zone[2] == 1*) GOTO 0x05BE
  1: 0x05AC [0x66] LOAD_EXT_SCHEDULER_MAIN: Load scheduler "dak0" with entities [LocalPlayer, LocalPlayer], work=73*
  2: 0x05BB [0x01] GOTO 0x0674
  3: 0x05BE [0x02] IF !(Work_Zone[2] == 2*) GOTO 0x05D8
  4: 0x05C6 [0x66] LOAD_EXT_SCHEDULER_MAIN: Load scheduler "dak0" with entities [LocalPlayer, LocalPlayer], work=83*
  5: 0x05D5 [0x01] GOTO 0x0674
  6: 0x05D8 [0x02] IF !(Work_Zone[2] == 3*) GOTO 0x05F2
  7: 0x05E0 [0x66] LOAD_EXT_SCHEDULER_MAIN: Load scheduler "dak0" with entities [LocalPlayer, LocalPlayer], work=93*
  8: 0x05EF [0x01] GOTO 0x0674
  9: 0x05F2 [0x02] IF !(Work_Zone[2] == 4*) GOTO 0x060C
 10: 0x05FA [0x66] LOAD_EXT_SCHEDULER_MAIN: Load scheduler "dak0" with entities [LocalPlayer, LocalPlayer], work=103*
 11: 0x0609 [0x01] GOTO 0x0674
 12: 0x060C [0x02] IF !(Work_Zone[2] == 5*) GOTO 0x0626
 13: 0x0614 [0x66] LOAD_EXT_SCHEDULER_MAIN: Load scheduler "dak0" with entities [LocalPlayer, LocalPlayer], work=113*
 14: 0x0623 [0x01] GOTO 0x0674
 15: 0x0626 [0x02] IF !(Work_Zone[2] == 6*) GOTO 0x0640
 16: 0x062E [0x66] LOAD_EXT_SCHEDULER_MAIN: Load scheduler "dak0" with entities [LocalPlayer, LocalPlayer], work=113*
 17: 0x063D [0x01] GOTO 0x0674
 18: 0x0640 [0x02] IF !(Work_Zone[2] == 7*) GOTO 0x065A
 19: 0x0648 [0x66] LOAD_EXT_SCHEDULER_MAIN: Load scheduler "dak0" with entities [LocalPlayer, LocalPlayer], work=123*
 20: 0x0657 [0x01] GOTO 0x0674
 21: 0x065A [0x02] IF !(Work_Zone[2] == 8*) GOTO 0x0674
 22: 0x0662 [0x66] LOAD_EXT_SCHEDULER_MAIN: Load scheduler "dak0" with entities [LocalPlayer, LocalPlayer], work=133*
 23: 0x0671 [0x01] GOTO 0x0674

SUBROUTINE_0674:
 24: 0x0674 [0x00] END_REQSTACK()
```

### Event 65535.32

#### Metadata

| Field        | Value     |
|--------------|-----------|
| Entrypoint   | 0x0675    |
| Data Size    | 209 bytes |
| Instructions | 25        |

```
      00 01 02 03 04 05 06 07  08 09 0A 0B 0C 0D 0E 0F
      -- -- -- -- -- -- -- --  -- -- -- -- -- -- -- --
0670:                02 02 10  44 80 80 8F 06 66 58 80       ...D....fX.
0680: F0 FF FF 7F F0 FF FF 7F  64 61 6B 31 01 45 07 02  ........dak1.E..
0690: 02 10 51 80 80 A9 06 66  59 80 F0 FF FF 7F F0 FF  ..Q....fY.......
06A0: FF 7F 64 61 6B 31 01 45  07 02 02 10 52 80 80 C3  ..dak1.E....R...
06B0: 06 66 5A 80 F0 FF FF 7F  F0 FF FF 7F 64 61 6B 31  .fZ.........dak1
06C0: 01 45 07 02 02 10 4E 80  80 DD 06 66 5B 80 F0 FF  .E....N....f[...
06D0: FF 7F F0 FF FF 7F 64 61  6B 31 01 45 07 02 02 10  ......dak1.E....
06E0: 0F 80 80 F7 06 66 5C 80  F0 FF FF 7F F0 FF FF 7F  .....f\.........
06F0: 64 61 6B 31 01 45 07 02  02 10 55 80 80 11 07 66  dak1.E....U....f
0700: 5C 80 F0 FF FF 7F F0 FF  FF 7F 64 61 6B 31 01 45  \.........dak1.E
0710: 07 02 02 10 42 80 80 2B  07 66 5D 80 F0 FF FF 7F  ....B..+.f].....
0720: F0 FF FF 7F 64 61 6B 31  01 45 07 02 02 10 46 80  ....dak1.E....F.
0730: 80 45 07 66 5E 80 F0 FF  FF 7F F0 FF FF 7F 64 61  .E.f^.........da
0740: 6B 31 01 45 07 00                                 k1.E..          
```

#### Opcodes

```
  0: 0x0675 [0x02] IF !(Work_Zone[2] == 1*) GOTO 0x068F
  1: 0x067D [0x66] LOAD_EXT_SCHEDULER_MAIN: Load scheduler "dak1" with entities [LocalPlayer, LocalPlayer], work=73*
  2: 0x068C [0x01] GOTO 0x0745
  3: 0x068F [0x02] IF !(Work_Zone[2] == 2*) GOTO 0x06A9
  4: 0x0697 [0x66] LOAD_EXT_SCHEDULER_MAIN: Load scheduler "dak1" with entities [LocalPlayer, LocalPlayer], work=83*
  5: 0x06A6 [0x01] GOTO 0x0745
  6: 0x06A9 [0x02] IF !(Work_Zone[2] == 3*) GOTO 0x06C3
  7: 0x06B1 [0x66] LOAD_EXT_SCHEDULER_MAIN: Load scheduler "dak1" with entities [LocalPlayer, LocalPlayer], work=93*
  8: 0x06C0 [0x01] GOTO 0x0745
  9: 0x06C3 [0x02] IF !(Work_Zone[2] == 4*) GOTO 0x06DD
 10: 0x06CB [0x66] LOAD_EXT_SCHEDULER_MAIN: Load scheduler "dak1" with entities [LocalPlayer, LocalPlayer], work=103*
 11: 0x06DA [0x01] GOTO 0x0745
 12: 0x06DD [0x02] IF !(Work_Zone[2] == 5*) GOTO 0x06F7
 13: 0x06E5 [0x66] LOAD_EXT_SCHEDULER_MAIN: Load scheduler "dak1" with entities [LocalPlayer, LocalPlayer], work=113*
 14: 0x06F4 [0x01] GOTO 0x0745
 15: 0x06F7 [0x02] IF !(Work_Zone[2] == 6*) GOTO 0x0711
 16: 0x06FF [0x66] LOAD_EXT_SCHEDULER_MAIN: Load scheduler "dak1" with entities [LocalPlayer, LocalPlayer], work=113*
 17: 0x070E [0x01] GOTO 0x0745
 18: 0x0711 [0x02] IF !(Work_Zone[2] == 7*) GOTO 0x072B
 19: 0x0719 [0x66] LOAD_EXT_SCHEDULER_MAIN: Load scheduler "dak1" with entities [LocalPlayer, LocalPlayer], work=123*
 20: 0x0728 [0x01] GOTO 0x0745
 21: 0x072B [0x02] IF !(Work_Zone[2] == 8*) GOTO 0x0745
 22: 0x0733 [0x66] LOAD_EXT_SCHEDULER_MAIN: Load scheduler "dak1" with entities [LocalPlayer, LocalPlayer], work=133*
 23: 0x0742 [0x01] GOTO 0x0745

SUBROUTINE_0745:
 24: 0x0745 [0x00] END_REQSTACK()
```

### Event 65535.33

#### Metadata

| Field        | Value     |
|--------------|-----------|
| Entrypoint   | 0x0746    |
| Data Size    | 209 bytes |
| Instructions | 25        |

```
      00 01 02 03 04 05 06 07  08 09 0A 0B 0C 0D 0E 0F
      -- -- -- -- -- -- -- --  -- -- -- -- -- -- -- --
0740:                   02 02  10 44 80 80 60 07 66 58        ...D..`.fX
0750: 80 F0 FF FF 7F F0 FF FF  7F 64 61 6B 32 01 16 08  .........dak2...
0760: 02 02 10 51 80 80 7A 07  66 59 80 F0 FF FF 7F F0  ...Q..z.fY......
0770: FF FF 7F 64 61 6B 32 01  16 08 02 02 10 52 80 80  ...dak2......R..
0780: 94 07 66 5A 80 F0 FF FF  7F F0 FF FF 7F 64 61 6B  ..fZ.........dak
0790: 32 01 16 08 02 02 10 4E  80 80 AE 07 66 5B 80 F0  2......N....f[..
07A0: FF FF 7F F0 FF FF 7F 64  61 6B 32 01 16 08 02 02  .......dak2.....
07B0: 10 0F 80 80 C8 07 66 5C  80 F0 FF FF 7F F0 FF FF  ......f\........
07C0: 7F 64 61 6B 32 01 16 08  02 02 10 55 80 80 E2 07  .dak2......U....
07D0: 66 5C 80 F0 FF FF 7F F0  FF FF 7F 64 61 6B 32 01  f\.........dak2.
07E0: 16 08 02 02 10 42 80 80  FC 07 66 5D 80 F0 FF FF  .....B....f]....
07F0: 7F F0 FF FF 7F 64 61 6B  32 01 16 08 02 02 10 46  .....dak2......F
0800: 80 80 16 08 66 5E 80 F0  FF FF 7F F0 FF FF 7F 64  ....f^.........d
0810: 61 6B 32 01 16 08 00                              ak2....         
```

#### Opcodes

```
  0: 0x0746 [0x02] IF !(Work_Zone[2] == 1*) GOTO 0x0760
  1: 0x074E [0x66] LOAD_EXT_SCHEDULER_MAIN: Load scheduler "dak2" with entities [LocalPlayer, LocalPlayer], work=73*
  2: 0x075D [0x01] GOTO 0x0816
  3: 0x0760 [0x02] IF !(Work_Zone[2] == 2*) GOTO 0x077A
  4: 0x0768 [0x66] LOAD_EXT_SCHEDULER_MAIN: Load scheduler "dak2" with entities [LocalPlayer, LocalPlayer], work=83*
  5: 0x0777 [0x01] GOTO 0x0816
  6: 0x077A [0x02] IF !(Work_Zone[2] == 3*) GOTO 0x0794
  7: 0x0782 [0x66] LOAD_EXT_SCHEDULER_MAIN: Load scheduler "dak2" with entities [LocalPlayer, LocalPlayer], work=93*
  8: 0x0791 [0x01] GOTO 0x0816
  9: 0x0794 [0x02] IF !(Work_Zone[2] == 4*) GOTO 0x07AE
 10: 0x079C [0x66] LOAD_EXT_SCHEDULER_MAIN: Load scheduler "dak2" with entities [LocalPlayer, LocalPlayer], work=103*
 11: 0x07AB [0x01] GOTO 0x0816
 12: 0x07AE [0x02] IF !(Work_Zone[2] == 5*) GOTO 0x07C8
 13: 0x07B6 [0x66] LOAD_EXT_SCHEDULER_MAIN: Load scheduler "dak2" with entities [LocalPlayer, LocalPlayer], work=113*
 14: 0x07C5 [0x01] GOTO 0x0816
 15: 0x07C8 [0x02] IF !(Work_Zone[2] == 6*) GOTO 0x07E2
 16: 0x07D0 [0x66] LOAD_EXT_SCHEDULER_MAIN: Load scheduler "dak2" with entities [LocalPlayer, LocalPlayer], work=113*
 17: 0x07DF [0x01] GOTO 0x0816
 18: 0x07E2 [0x02] IF !(Work_Zone[2] == 7*) GOTO 0x07FC
 19: 0x07EA [0x66] LOAD_EXT_SCHEDULER_MAIN: Load scheduler "dak2" with entities [LocalPlayer, LocalPlayer], work=123*
 20: 0x07F9 [0x01] GOTO 0x0816
 21: 0x07FC [0x02] IF !(Work_Zone[2] == 8*) GOTO 0x0816
 22: 0x0804 [0x66] LOAD_EXT_SCHEDULER_MAIN: Load scheduler "dak2" with entities [LocalPlayer, LocalPlayer], work=133*
 23: 0x0813 [0x01] GOTO 0x0816

SUBROUTINE_0816:
 24: 0x0816 [0x00] END_REQSTACK()
```

### Event 65535.34

#### Metadata

| Field        | Value    |
|--------------|----------|
| Entrypoint   | 0x0817   |
| Data Size    | 48 bytes |
| Instructions | 9        |

```
      00 01 02 03 04 05 06 07  08 09 0A 0B 0C 0D 0E 0F
      -- -- -- -- -- -- -- --  -- -- -- -- -- -- -- --
0810:                      03  01 00 5F 80 03 02 00 60         ..._....`
0820: 80 02 02 00 05 80 04 46  08 BA F0 FF FF 7F 61 80  .......F......a.
0830: 62 80 01 00 63 80 08 02  00 2A 80 07 01 00 53 80  b...c....*....S.
0840: 1C 44 80 01 21 08 00                              .D..!..         
```

#### Opcodes

```
  0: 0x0817 [0x03] ExtData[1]->WorkLocal[1] = 4294966296*
  1: 0x081C [0x03] ExtData[1]->WorkLocal[2] = 3000*
  2: 0x0821 [0x02] IF !(ExtData[1]->WorkLocal[2] < 0*) GOTO 0x0846
  3: 0x0829 [0xBA] SET_ENTITY_POSITION(entity_id=LocalPlayer, pos_x=529.460*, pos_z=-372.789*, pos_y=ExtData[1]->WorkLocal[1], direction=342.5°*)
  4: 0x0836 [0x08] ExtData[1]->WorkLocal[2] -= 10*
  5: 0x083B [0x07] ExtData[1]->WorkLocal[1] += 100*
  6: 0x0840 [0x1C] WAIT(1* ticks)
  7: 0x0843 [0x01] GOTO 0x0821
  8: 0x0846 [0x00] END_REQSTACK()
```

### Event 65535.35

#### Metadata

| Field        | Value    |
|--------------|----------|
| Entrypoint   | 0x0847   |
| Data Size    | 11 bytes |
| Instructions | 3        |

```
      00 01 02 03 04 05 06 07  08 09 0A 0B 0C 0D 0E 0F
      -- -- -- -- -- -- -- --  -- -- -- -- -- -- -- --
0840:                      1F  00 64 80 65 80 05 80 1F         ..d.e....
0850: 01 00                                             ..              
```

#### Opcodes

```
  0: 0x0847 [0x1F] MOVE_ENTITY: EventEntity moves to X=-299.017*, Z=-478.685*, Y=0.000*
  1: 0x084F [0x1F] MOVE_ENTITY: Update entity position (mode=1)
  2: 0x0851 [0x00] END_REQSTACK()
```

### Event 65535.36

#### Metadata

| Field        | Value    |
|--------------|----------|
| Entrypoint   | 0x0852   |
| Data Size    | 16 bytes |
| Instructions | 4        |

```
      00 01 02 03 04 05 06 07  08 09 0A 0B 0C 0D 0E 0F
      -- -- -- -- -- -- -- --  -- -- -- -- -- -- -- --
0850:       1C 43 80 6E F0 FF  FF 7F 66 80 99 F0 FF FF    .C.n....f.....
0860: 7F 00                                             ..              
```

#### Opcodes

```
  0: 0x0852 [0x1C] WAIT(90* ticks)
  1: 0x0855 [0x6E] LocalPlayer uses emote 20*
  2: 0x085C [0x99] Wait for LocalPlayer animation to complete
  3: 0x0861 [0x00] END_REQSTACK()
```

### Event 65535.37

#### Metadata

| Field        | Value    |
|--------------|----------|
| Entrypoint   | 0x0862   |
| Data Size    | 37 bytes |
| Instructions | 5        |

```
      00 01 02 03 04 05 06 07  08 09 0A 0B 0C 0D 0E 0F
      -- -- -- -- -- -- -- --  -- -- -- -- -- -- -- --
0860:       03 03 00 07 7F 1A  DC 08 66 04 00 F8 FF FF    ........f.....
0870: 7F F8 FF FF 7F 73 68 61  30 53 F8 FF FF 7F F8 FF  .....sha0S......
0880: FF 7F 73 68 61 30 00                              ..sha0.         
```

#### Opcodes

```
  0: 0x0862 [0x03] ExtData[1]->WorkLocal[3] = Entity->Race
  1: 0x0867 [0x1A] CALL_SUBROUTINE(address=0x08DC)
  2: 0x086A [0x66] LOAD_EXT_SCHEDULER_MAIN: Load scheduler "sha0" with entities [EventEntity, EventEntity], work=ExtData[1]->WorkLocal[4]
  3: 0x0879 [0x53] WAIT_SCHEDULER_TASK: Wait for scheduler "sha0" with entities [EventEntity, EventEntity]
  4: 0x0886 [0x00] END_REQSTACK()
```

### Event 65535.38

#### Metadata

| Field        | Value    |
|--------------|----------|
| Entrypoint   | 0x0887   |
| Data Size    | 37 bytes |
| Instructions | 5        |

```
      00 01 02 03 04 05 06 07  08 09 0A 0B 0C 0D 0E 0F
      -- -- -- -- -- -- -- --  -- -- -- -- -- -- -- --
0880:                      03  03 00 07 7F 1A DC 08 66         ........f
0890: 04 00 F8 FF FF 7F F8 FF  FF 7F 73 68 61 31 53 F8  ..........sha1S.
08A0: FF FF 7F F8 FF FF 7F 73  68 61 31 00              .......sha1.    
```

#### Opcodes

```
  0: 0x0887 [0x03] ExtData[1]->WorkLocal[3] = Entity->Race
  1: 0x088C [0x1A] CALL_SUBROUTINE(address=0x08DC)
  2: 0x088F [0x66] LOAD_EXT_SCHEDULER_MAIN: Load scheduler "sha1" with entities [EventEntity, EventEntity], work=ExtData[1]->WorkLocal[4]
  3: 0x089E [0x53] WAIT_SCHEDULER_TASK: Wait for scheduler "sha1" with entities [EventEntity, EventEntity]
  4: 0x08AB [0x00] END_REQSTACK()
```

### Event 65535.39

#### Metadata

| Field        | Value    |
|--------------|----------|
| Entrypoint   | 0x08AC   |
| Data Size    | 24 bytes |
| Instructions | 4        |

```
      00 01 02 03 04 05 06 07  08 09 0A 0B 0C 0D 0E 0F
      -- -- -- -- -- -- -- --  -- -- -- -- -- -- -- --
08A0:                                      03 03 00 07              ....
08B0: 7F 1A DC 08 66 04 00 F8  FF FF 7F F8 FF FF 7F 74  ....f..........t
08C0: 6C 6B 30 00                                       lk0.            
```

#### Opcodes

```
  0: 0x08AC [0x03] ExtData[1]->WorkLocal[3] = Entity->Race
  1: 0x08B1 [0x1A] CALL_SUBROUTINE(address=0x08DC)
  2: 0x08B4 [0x66] LOAD_EXT_SCHEDULER_MAIN: Load scheduler "tlk0" with entities [EventEntity, EventEntity], work=ExtData[1]->WorkLocal[4]
  3: 0x08C3 [0x00] END_REQSTACK()
```

### Event 65535.40

#### Metadata

| Field        | Value     |
|--------------|-----------|
| Entrypoint   | 0x08C4    |
| Data Size    | 172 bytes |
| Instructions | 12        |

```
      00 01 02 03 04 05 06 07  08 09 0A 0B 0C 0D 0E 0F
      -- -- -- -- -- -- -- --  -- -- -- -- -- -- -- --
08C0:             03 03 00 07  7F 1A DC 08 66 04 00 F8      ........f...
08D0: FF FF 7F F8 FF FF 7F 74  6C 6B 31 00 03 04 00 03  .......tlk1.....
08E0: 00 02 04 00 0F 80 05 F1  08 08 04 00 44 80 01 F6  ............D...
08F0: 08 08 04 00 51 80 14 04  00 2A 80 07 04 00 67 80  ....Q....*....g.
0900: 1B 03 04 00 03 00 02 04  00 0F 80 05 16 09 08 04  ................
0910: 00 44 80 01 1B 09 08 04  00 51 80 14 04 00 2A 80  .D.......Q....*.
0920: 07 04 00 50 80 1B 03 04  00 03 00 02 04 00 0F 80  ...P............
0930: 05 3B 09 08 04 00 44 80  01 40 09 08 04 00 51 80  .;....D..@....Q.
0940: 14 04 00 2A 80 07 04 00  68 80 1B 03 04 00 03 00  ...*....h.......
0950: 02 04 00 0F 80 05 60 09  08 04 00 44 80 01 65 09  ......`....D..e.
0960: 08 04 00 51 80 14 04 00  2A 80 07 04 00 69 80 1B  ...Q....*....i..
```

#### Opcodes

```
  0: 0x08C4 [0x03] ExtData[1]->WorkLocal[3] = Entity->Race
  1: 0x08C9 [0x1A] CALL_SUBROUTINE(address=0x08DC)
  2: 0x08CC [0x66] LOAD_EXT_SCHEDULER_MAIN: Load scheduler "tlk1" with entities [EventEntity, EventEntity], work=ExtData[1]->WorkLocal[4]
  3: 0x08DB [0x00] END_REQSTACK()

SUBROUTINE_08DC:
  4: 0x08DC [0x03] ExtData[1]->WorkLocal[4] = ExtData[1]->WorkLocal[3]
  5: 0x08E1 [0x02] IF !(ExtData[1]->WorkLocal[4] > 5*) GOTO 0x08F1
  6: 0x08E9 [0x08] ExtData[1]->WorkLocal[4] -= 1*
  7: 0x08EE [0x01] GOTO 0x08F6
  8: 0x08F1 [0x08] ExtData[1]->WorkLocal[4] -= 2*

SUBROUTINE_08F6:
  9: 0x08F6 [0x14] ExtData[1]->WorkLocal[4] *= 10*
 10: 0x08FB [0x07] ExtData[1]->WorkLocal[4] += 9*
 11: 0x0900 [0x1B] RETURN
```

#### Data or dead code:

```
# Dead code (unreachable instructions):
     0x0901 [0x03] ExtData[1]->WorkLocal[4] = ExtData[1]->WorkLocal[3]
     0x0906 [0x02] IF !(ExtData[1]->WorkLocal[4] > 5*) GOTO 0x0916
     0x090E [0x08] ExtData[1]->WorkLocal[4] -= 1*
     0x0913 [0x01] GOTO 0x091B
     0x0916 [0x08] ExtData[1]->WorkLocal[4] -= 2*
     0x091B [0x14] ExtData[1]->WorkLocal[4] *= 10*
     0x0920 [0x07] ExtData[1]->WorkLocal[4] += 70*
     0x0925 [0x1B] RETURN
     0x0926 [0x03] ExtData[1]->WorkLocal[4] = ExtData[1]->WorkLocal[3]
     0x092B [0x02] IF !(ExtData[1]->WorkLocal[4] > 5*) GOTO 0x093B
     0x0933 [0x08] ExtData[1]->WorkLocal[4] -= 1*
     0x0938 [0x01] GOTO 0x0940
     0x093B [0x08] ExtData[1]->WorkLocal[4] -= 2*
     0x0940 [0x14] ExtData[1]->WorkLocal[4] *= 10*
     0x0945 [0x07] ExtData[1]->WorkLocal[4] += 140*
     0x094A [0x1B] RETURN
     0x094B [0x03] ExtData[1]->WorkLocal[4] = ExtData[1]->WorkLocal[3]
     0x0950 [0x02] IF !(ExtData[1]->WorkLocal[4] > 5*) GOTO 0x0960
     0x0958 [0x08] ExtData[1]->WorkLocal[4] -= 1*
     0x095D [0x01] GOTO 0x0965
     0x0960 [0x08] ExtData[1]->WorkLocal[4] -= 2*
     0x0965 [0x14] ExtData[1]->WorkLocal[4] *= 10*
     0x096A [0x07] ExtData[1]->WorkLocal[4] += 210*
     0x096F [0x1B] RETURN
```

### Event 65535.41

#### Metadata

| Field        | Value   |
|--------------|---------|
| Entrypoint   | 0x0970  |
| Data Size    | 6 bytes |
| Instructions | 2       |

```
      00 01 02 03 04 05 06 07  08 09 0A 0B 0C 0D 0E 0F
      -- -- -- -- -- -- -- --  -- -- -- -- -- -- -- --
0970: 03 02 10 07 7F 00                                 ......          
```

#### Opcodes

```
  0: 0x0970 [0x03] Work_Zone[2] = Entity->Race
  1: 0x0975 [0x00] END_REQSTACK()
```

### Event 65535.42

#### Metadata

| Field        | Value   |
|--------------|---------|
| Entrypoint   | 0x0976  |
| Data Size    | 6 bytes |
| Instructions | 2       |

```
      00 01 02 03 04 05 06 07  08 09 0A 0B 0C 0D 0E 0F
      -- -- -- -- -- -- -- --  -- -- -- -- -- -- -- --
0970:                   03 02  10 0B 7F 00                    ......    
```

#### Opcodes

```
  0: 0x0976 [0x03] Work_Zone[2] = (Entity->Render.Flags01 >> 25) & 1
  1: 0x097B [0x00] END_REQSTACK()
```

### Event 8003

#### Metadata

| Field        | Value    |
|--------------|----------|
| Entrypoint   | 0x097C   |
| Data Size    | 68 bytes |
| Instructions | 9        |

```
      00 01 02 03 04 05 06 07  08 09 0A 0B 0C 0D 0E 0F
      -- -- -- -- -- -- -- --  -- -- -- -- -- -- -- --
0970:                                      42 45 07 80              BE..
0980: F0 FF FF 7F F0 FF FF 7F  66 64 6F 31 05 80 02 03  ........fdo1....
0990: 10 05 80 00 AA 09 62 44  80 F0 FF FF 7F F0 FF FF  ......bD........
09A0: 7F 6D 61 69 6E 05 80 1C  43 80 1C 08 80 45 16 80  .main...C....E..
09B0: F0 FF FF 7F F0 FF FF 7F  77 68 69 31 05 80 21 00  ........whi1..!.
```

#### Opcodes

```
  0: 0x097C [0x42] SET_CLI_EVENT_CANCEL_DATA()
  1: 0x097D [0x45] LOAD_SCHEDULED_TASK: Load scheduler "fdo1" with entities [LocalPlayer, LocalPlayer], work=[200*, 0*]
  2: 0x098E [0x02] IF !(Work_Zone[3] == 0*) GOTO 0x09AA
  3: 0x0996 [0x62] LOAD_EVENT_SCHEDULER: Load scheduler "main" with entities [LocalPlayer, LocalPlayer], work=[1*, 0*]
  4: 0x09A7 [0x1C] WAIT(90* ticks)
  5: 0x09AA [0x1C] WAIT(60* ticks)
  6: 0x09AD [0x45] LOAD_SCHEDULED_TASK: Load scheduler "whi1" with entities [LocalPlayer, LocalPlayer], work=[201*, 0*]
  7: 0x09BE [0x21] END_EVENT
  8: 0x09BF [0x00] END_REQSTACK()
```

### Event 65535.43

#### Metadata

| Field        | Value   |
|--------------|---------|
| Entrypoint   | 0x09C0  |
| Data Size    | 5 bytes |
| Instructions | 2       |

```
      00 01 02 03 04 05 06 07  08 09 0A 0B 0C 0D 0E 0F
      -- -- -- -- -- -- -- --  -- -- -- -- -- -- -- --
09C0: B6 0F 6A 80 00                                    ..j..           
```

#### Opcodes

```
  0: 0x09C0 [0xB6] ENTITY_APPEARANCE_HANDLER(case=Model size, value=87*)
  1: 0x09C4 [0x00] END_REQSTACK()
```

### Event 65535.44

#### Metadata

| Field        | Value   |
|--------------|---------|
| Entrypoint   | 0x09C5  |
| Data Size    | 5 bytes |
| Instructions | 2       |

```
      00 01 02 03 04 05 06 07  08 09 0A 0B 0C 0D 0E 0F
      -- -- -- -- -- -- -- --  -- -- -- -- -- -- -- --
09C0:                B6 0F 5A  80 00                         ..Z..      
```

#### Opcodes

```
  0: 0x09C5 [0xB6] ENTITY_APPEARANCE_HANDLER(case=Model size, value=93*)
  1: 0x09C9 [0x00] END_REQSTACK()
```

### Event 65535.45

#### Metadata

| Field        | Value   |
|--------------|---------|
| Entrypoint   | 0x09CA  |
| Data Size    | 5 bytes |
| Instructions | 2       |

```
      00 01 02 03 04 05 06 07  08 09 0A 0B 0C 0D 0E 0F
      -- -- -- -- -- -- -- --  -- -- -- -- -- -- -- --
09C0:                                B6 0F 4F 80 00               ..O.. 
```

#### Opcodes

```
  0: 0x09CA [0xB6] ENTITY_APPEARANCE_HANDLER(case=Model size, value=96*)
  1: 0x09CE [0x00] END_REQSTACK()
```

### Event 65535.46

#### Metadata

| Field        | Value   |
|--------------|---------|
| Entrypoint   | 0x09CF  |
| Data Size    | 5 bytes |
| Instructions | 2       |

```
      00 01 02 03 04 05 06 07  08 09 0A 0B 0C 0D 0E 0F
      -- -- -- -- -- -- -- --  -- -- -- -- -- -- -- --
09C0:                                               B6                 .
09D0: 0F 53 80 00                                       .S..            
```

#### Opcodes

```
  0: 0x09CF [0xB6] ENTITY_APPEARANCE_HANDLER(case=Model size, value=100*)
  1: 0x09D3 [0x00] END_REQSTACK()
```

### Event 65535.47

#### Metadata

| Field        | Value     |
|--------------|-----------|
| Entrypoint   | 0x09D4    |
| Data Size    | 345 bytes |
| Instructions | 33        |

```
      00 01 02 03 04 05 06 07  08 09 0A 0B 0C 0D 0E 0F
      -- -- -- -- -- -- -- --  -- -- -- -- -- -- -- --
09D0:             02 87 7F 44  80 80 FF 09 5F 04 6B 80      ...D...._.k.
09E0: F0 FF FF 7F F0 FF FF 7F  6B 69 7A 6D 5F 03 6C 80  ........kizm_.l.
09F0: 8C E2 06 01 8C E2 06 01  68 6D 6D 6D 01 2C 0B 02  ........hmmm.,..
0A00: 87 7F 51 80 80 2A 0A 5F  04 6D 80 F0 FF FF 7F F0  ..Q..*._.m......
0A10: FF FF 7F 6B 69 7A 6D 5F  03 6C 80 8C E2 06 01 8C  ...kizm_.l......
0A20: E2 06 01 68 66 6D 6D 01  2C 0B 02 87 7F 52 80 80  ...hfmm.,....R..
0A30: 55 0A 5F 04 6E 80 F0 FF  FF 7F F0 FF FF 7F 6B 69  U._.n.........ki
0A40: 7A 6D 5F 03 6C 80 8C E2  06 01 8C E2 06 01 65 6D  zm_.l.........em
0A50: 6D 6D 01 2C 0B 02 87 7F  4E 80 80 80 0A 5F 04 6F  mm.,....N...._.o
0A60: 80 F0 FF FF 7F F0 FF FF  7F 6B 69 7A 6D 5F 03 6C  .........kizm_.l
0A70: 80 8C E2 06 01 8C E2 06  01 65 66 6D 6D 01 2C 0B  .........efmm.,.
0A80: 02 87 7F 0F 80 80 AB 0A  5F 04 70 80 F0 FF FF 7F  ........_.p.....
0A90: F0 FF FF 7F 6B 69 7A 6D  5F 03 6C 80 8C E2 06 01  ....kizm_.l.....
0AA0: 8C E2 06 01 74 6D 61 6D  01 2C 0B 02 87 7F 55 80  ....tmam.,....U.
0AB0: 80 D6 0A 5F 04 70 80 F0  FF FF 7F F0 FF FF 7F 6B  ..._.p.........k
0AC0: 69 7A 6D 5F 03 6C 80 8C  E2 06 01 8C E2 06 01 74  izm_.l.........t
0AD0: 6D 61 6D 01 2C 0B 02 87  7F 42 80 80 01 0B 5F 04  mam.,....B...._.
0AE0: 71 80 F0 FF FF 7F F0 FF  FF 7F 6B 69 7A 6D 5F 03  q.........kizm_.
0AF0: 6C 80 8C E2 06 01 8C E2  06 01 6D 6D 61 6D 01 2C  l.........mmam.,
0B00: 0B 02 87 7F 46 80 80 2C  0B 5F 04 16 80 F0 FF FF  ....F..,._......
0B10: 7F F0 FF FF 7F 6B 69 7A  6D 5F 03 6C 80 8C E2 06  .....kizm_.l....
0B20: 01 8C E2 06 01 67 6D 61  6D 01 2C 0B 00           .....gmam.,..   
```

#### Opcodes

```
  0: 0x09D4 [0x02] IF !(LocalPlayer->Race == 1*) GOTO 0x09FF
  1: 0x09DC [0x5F] MULTI_HANDLER_COMPLEX(mode=0x04 - Load ext scheduler (OpCode 0x5B mode 1), ref=141*, entity1=LocalPlayer, entity2=LocalPlayer, string="kizm")
  2: 0x09EC [0x5F] MULTI_HANDLER_COMPLEX(mode=0x03 - Load ext scheduler (OpCode 0x5B mode 0), ref=3878*, entity1=Unnamed NPC (ID: 17228428/0x0106E28C), entity2=Unnamed NPC (ID: 17228428/0x0106E28C), string="hmmm")
  3: 0x09FC [0x01] GOTO 0x0B2C
  4: 0x09FF [0x02] IF !(LocalPlayer->Race == 2*) GOTO 0x0A2A
  5: 0x0A07 [0x5F] MULTI_HANDLER_COMPLEX(mode=0x04 - Load ext scheduler (OpCode 0x5B mode 1), ref=151*, entity1=LocalPlayer, entity2=LocalPlayer, string="kizm")
  6: 0x0A17 [0x5F] MULTI_HANDLER_COMPLEX(mode=0x03 - Load ext scheduler (OpCode 0x5B mode 0), ref=3878*, entity1=Unnamed NPC (ID: 17228428/0x0106E28C), entity2=Unnamed NPC (ID: 17228428/0x0106E28C), string="hfmm")
  7: 0x0A27 [0x01] GOTO 0x0B2C
  8: 0x0A2A [0x02] IF !(LocalPlayer->Race == 3*) GOTO 0x0A55
  9: 0x0A32 [0x5F] MULTI_HANDLER_COMPLEX(mode=0x04 - Load ext scheduler (OpCode 0x5B mode 1), ref=161*, entity1=LocalPlayer, entity2=LocalPlayer, string="kizm")
 10: 0x0A42 [0x5F] MULTI_HANDLER_COMPLEX(mode=0x03 - Load ext scheduler (OpCode 0x5B mode 0), ref=3878*, entity1=Unnamed NPC (ID: 17228428/0x0106E28C), entity2=Unnamed NPC (ID: 17228428/0x0106E28C), string="emmm")
 11: 0x0A52 [0x01] GOTO 0x0B2C
 12: 0x0A55 [0x02] IF !(LocalPlayer->Race == 4*) GOTO 0x0A80
 13: 0x0A5D [0x5F] MULTI_HANDLER_COMPLEX(mode=0x04 - Load ext scheduler (OpCode 0x5B mode 1), ref=171*, entity1=LocalPlayer, entity2=LocalPlayer, string="kizm")
 14: 0x0A6D [0x5F] MULTI_HANDLER_COMPLEX(mode=0x03 - Load ext scheduler (OpCode 0x5B mode 0), ref=3878*, entity1=Unnamed NPC (ID: 17228428/0x0106E28C), entity2=Unnamed NPC (ID: 17228428/0x0106E28C), string="efmm")
 15: 0x0A7D [0x01] GOTO 0x0B2C
 16: 0x0A80 [0x02] IF !(LocalPlayer->Race == 5*) GOTO 0x0AAB
 17: 0x0A88 [0x5F] MULTI_HANDLER_COMPLEX(mode=0x04 - Load ext scheduler (OpCode 0x5B mode 1), ref=181*, entity1=LocalPlayer, entity2=LocalPlayer, string="kizm")
 18: 0x0A98 [0x5F] MULTI_HANDLER_COMPLEX(mode=0x03 - Load ext scheduler (OpCode 0x5B mode 0), ref=3878*, entity1=Unnamed NPC (ID: 17228428/0x0106E28C), entity2=Unnamed NPC (ID: 17228428/0x0106E28C), string="tmam")
 19: 0x0AA8 [0x01] GOTO 0x0B2C
 20: 0x0AAB [0x02] IF !(LocalPlayer->Race == 6*) GOTO 0x0AD6
 21: 0x0AB3 [0x5F] MULTI_HANDLER_COMPLEX(mode=0x04 - Load ext scheduler (OpCode 0x5B mode 1), ref=181*, entity1=LocalPlayer, entity2=LocalPlayer, string="kizm")
 22: 0x0AC3 [0x5F] MULTI_HANDLER_COMPLEX(mode=0x03 - Load ext scheduler (OpCode 0x5B mode 0), ref=3878*, entity1=Unnamed NPC (ID: 17228428/0x0106E28C), entity2=Unnamed NPC (ID: 17228428/0x0106E28C), string="tmam")
 23: 0x0AD3 [0x01] GOTO 0x0B2C
 24: 0x0AD6 [0x02] IF !(LocalPlayer->Race == 7*) GOTO 0x0B01
 25: 0x0ADE [0x5F] MULTI_HANDLER_COMPLEX(mode=0x04 - Load ext scheduler (OpCode 0x5B mode 1), ref=191*, entity1=LocalPlayer, entity2=LocalPlayer, string="kizm")
 26: 0x0AEE [0x5F] MULTI_HANDLER_COMPLEX(mode=0x03 - Load ext scheduler (OpCode 0x5B mode 0), ref=3878*, entity1=Unnamed NPC (ID: 17228428/0x0106E28C), entity2=Unnamed NPC (ID: 17228428/0x0106E28C), string="mmam")
 27: 0x0AFE [0x01] GOTO 0x0B2C
 28: 0x0B01 [0x02] IF !(LocalPlayer->Race == 8*) GOTO 0x0B2C
 29: 0x0B09 [0x5F] MULTI_HANDLER_COMPLEX(mode=0x04 - Load ext scheduler (OpCode 0x5B mode 1), ref=201*, entity1=LocalPlayer, entity2=LocalPlayer, string="kizm")
 30: 0x0B19 [0x5F] MULTI_HANDLER_COMPLEX(mode=0x03 - Load ext scheduler (OpCode 0x5B mode 0), ref=3878*, entity1=Unnamed NPC (ID: 17228428/0x0106E28C), entity2=Unnamed NPC (ID: 17228428/0x0106E28C), string="gmam")
 31: 0x0B29 [0x01] GOTO 0x0B2C

SUBROUTINE_0B2C:
 32: 0x0B2C [0x00] END_REQSTACK()
```
