# Event 65535

## Metadata

| Field           | Value    |
|-----------------|----------|
| Event Index     | 4/6      |
| Offset          | 0x0032   |
| Data Size       | 58 bytes |
| Calculated Size | 58 bytes |
| Instructions    | 18       |

```
      00 01 02 03 04 05 06 07  08 09 0A 0B 0C 0D 0E 0F
      -- -- -- -- -- -- -- --  -- -- -- -- -- -- -- --
0030:       37 07 80 08 80 09  80 0A 80 1C 0B 80 39 0C    7...........9.
0040: 80 1C 01 80 39 0A 80 1C  0B 80 39 0D 80 1C 01 80  ....9.....9.....
0050: 39 0A 80 1C 0B 80 39 0C  80 1C 01 80 39 0A 80 1C  9.....9.....9...
0060: 0B 80 39 0D 80 1C 01 80  39 0A 80 00              ..9.....9...    
```

## Opcodes

```
  0: 0x0032 [0x37] UPDATE_EVENT_POSITION_AND_DIR: x=-10.679*, z=8.006*, y=-0.199*, direction=339.2°*
  1: 0x003B [0x1C] WAIT(60* ticks)
  2: 0x003E [0x39] SET_ENTITY_DIRECTION(direction=20.1°*)
  3: 0x0041 [0x1C] WAIT(30* ticks)
  4: 0x0044 [0x39] SET_ENTITY_DIRECTION(direction=21.2°*)
  5: 0x0047 [0x1C] WAIT(60* ticks)
  6: 0x004A [0x39] SET_ENTITY_DIRECTION(direction=22.3°*)
  7: 0x004D [0x1C] WAIT(30* ticks)
  8: 0x0050 [0x39] SET_ENTITY_DIRECTION(direction=21.2°*)
  9: 0x0053 [0x1C] WAIT(60* ticks)
 10: 0x0056 [0x39] SET_ENTITY_DIRECTION(direction=20.1°*)
 11: 0x0059 [0x1C] WAIT(30* ticks)
 12: 0x005C [0x39] SET_ENTITY_DIRECTION(direction=21.2°*)
 13: 0x005F [0x1C] WAIT(60* ticks)
 14: 0x0062 [0x39] SET_ENTITY_DIRECTION(direction=22.3°*)
 15: 0x0065 [0x1C] WAIT(30* ticks)
 16: 0x0068 [0x39] SET_ENTITY_DIRECTION(direction=21.2°*)
 17: 0x006B [0x00] END_REQSTACK()
```
