# Event 65535

## Metadata

| Field           | Value    |
|-----------------|----------|
| Event Index     | 6/8      |
| Offset          | 0x002C   |
| Data Size       | 72 bytes |
| Calculated Size | 72 bytes |
| Instructions    | 11       |

```
      00 01 02 03 04 05 06 07  08 09 0A 0B 0C 0D 0E 0F
      -- -- -- -- -- -- -- --  -- -- -- -- -- -- -- --
0020:                                      3A F8 FF FF              :...
0030: 7F 01 00 03 00 00 00 80  02 00 00 06 80 01 53 00  ..............S.
0040: 07 00 00 07 80 08 01 00  07 80 39 01 00 1C 01 80  ..........9.....
0050: 01 38 00 45 08 80 F0 FF  FF 7F F0 FF FF 7F 68 6F  .8.E..........ho
0060: 75 31 00 80 5B 09 80 ED  80 00 01 ED 80 00 01 68  u1..[..........h
0070: 6F 75 31 00                                       ou1.            
```

## Opcodes

```
  0: 0x002C [0x3A] CONVERT_YAW_TO_BYTE(entity=EventEntity, result_destination=ExtData[1]->WorkLocal[1])
  1: 0x0033 [0x03] ExtData[1]->WorkLocal[0] = 0*
  2: 0x0038 [0x02] IF !(ExtData[1]->WorkLocal[0] == 1000*) GOTO 0x0053
  3: 0x0040 [0x07] ExtData[1]->WorkLocal[0] += 10*
  4: 0x0045 [0x08] ExtData[1]->WorkLocal[1] -= 10*
  5: 0x004A [0x39] SET_ENTITY_DIRECTION(direction=0.0°)
  6: 0x004D [0x1C] WAIT(1* ticks)
  7: 0x0050 [0x01] GOTO 0x0038

SUBROUTINE_0053:
  8: 0x0053 [0x45] LOAD_SCHEDULED_TASK(work_offset1=176*, entity1=LocalPlayer, entity2=LocalPlayer, scheduler_id="hou1", work_offset2=0*)
  9: 0x0064 [0x5B] LOAD_EXT_SCHEDULER(work_offset=653*, entity1=Unnamed NPC (ID: 16810221/0x010080ED), entity2=Unnamed NPC (ID: 16810221/0x010080ED), action="hou1")
 10: 0x0073 [0x00] END_REQSTACK()
```
