# Event 65535

## Metadata

| Field           | Value    |
|-----------------|----------|
| Event Index     | 7/8      |
| Offset          | 0x0074   |
| Data Size       | 78 bytes |
| Calculated Size | 78 bytes |
| Instructions    | 13       |

```
      00 01 02 03 04 05 06 07  08 09 0A 0B 0C 0D 0E 0F
      -- -- -- -- -- -- -- --  -- -- -- -- -- -- -- --
0070:             3A F8 FF FF  7F 01 00 03 00 00 00 80      :...........
0080: 02 00 00 06 80 01 9B 00  07 00 00 0A 80 07 01 00  ................
0090: 0A 80 39 01 00 1C 01 80  01 80 00 1C 0B 80 5B 0C  ..9...........[.
00A0: 80 ED 80 00 01 ED 80 00  01 73 74 64 30 1C 0D 80  .........std0...
00B0: 45 08 80 F0 FF FF 7F F0  FF FF 7F 68 6F 75 30 00  E..........hou0.
00C0: 80 00                                             ..              
```

## Opcodes

```
  0: 0x0074 [0x3A] CONVERT_YAW_TO_BYTE(entity=EventEntity, result_destination=ExtData[1]->WorkLocal[1])
  1: 0x007B [0x03] ExtData[1]->WorkLocal[0] = 0*
  2: 0x0080 [0x02] IF !(ExtData[1]->WorkLocal[0] == 1000*) GOTO 0x009B
  3: 0x0088 [0x07] ExtData[1]->WorkLocal[0] += 20*
  4: 0x008D [0x07] ExtData[1]->WorkLocal[1] += 20*
  5: 0x0092 [0x39] SET_ENTITY_DIRECTION(direction=0.0°)
  6: 0x0095 [0x1C] WAIT(1* ticks)
  7: 0x0098 [0x01] GOTO 0x0080
  8: 0x009B [0x1C] WAIT(15* ticks)
  9: 0x009E [0x5B] LOAD_EXT_SCHEDULER: Load scheduler "std0" with entities [Unnamed NPC (ID: 16810221/0x010080ED), Unnamed NPC (ID: 16810221/0x010080ED)], work=654*
 10: 0x00AD [0x1C] WAIT(30* ticks)
 11: 0x00B0 [0x45] LOAD_SCHEDULED_TASK: Load scheduler "hou0" with entities [LocalPlayer, LocalPlayer], work=[176*, 0*]
 12: 0x00C1 [0x00] END_REQSTACK()
```
