# Event 65535

## Metadata

| Field           | Value    |
|-----------------|----------|
| Event Index     | 12/21    |
| Offset          | 0x0088   |
| Data Size       | 87 bytes |
| Calculated Size | 87 bytes |
| Instructions    | 10       |

```
      00 01 02 03 04 05 06 07  08 09 0A 0B 0C 0D 0E 0F
      -- -- -- -- -- -- -- --  -- -- -- -- -- -- -- --
0080:                          29 0A 3D F2 04 01 02 79          ).=....y
0090: 00 3F F2 04 01 3D F2 04  01 32 0C 80 1F 00 1F 80  .?...=...2......
00A0: 20 80 21 80 1F 01 66 22  80 3F F2 04 01 3F F2 04   .!...f".?...?..
00B0: 01 73 68 61 30 53 F8 FF  FF 7F F8 FF FF 7F 73 68  .sha0S........sh
00C0: 61 30 66 22 80 3F F2 04  01 3F F2 04 01 73 69 72  a0f".?...?...sir
00D0: 30 53 F8 FF FF 7F F8 FF  FF 7F 73 69 72 30 00     0S........sir0. 
```

## Opcodes

```
  0: 0x0088 [0x29] REQ_SET_WAIT(priority=0x0A, entity_id=??? (ID: 17101373/0x0104F23D), tag_num=0x02)
  1: 0x008F [0x79] Yafahb (ID: 17101375/0x0104F23F) looks at ??? (ID: 17101373/0x0104F23D) (Basic look)
  2: 0x0099 [0x32] ExtData[1]->MainSpeed = 40* * 0.1
  3: 0x009C [0x1F] MOVE_ENTITY: EventEntity moves to X=134.571*, Z=-632.518*, Y=1.160*
  4: 0x00A4 [0x1F] MOVE_ENTITY: Update entity position (mode=1)
  5: 0x00A6 [0x66] LOAD_EXT_SCHEDULER_MAIN: Load scheduler "sha0" with entities [Yafahb (ID: 17101375/0x0104F23F), Yafahb (ID: 17101375/0x0104F23F)], work=9*
  6: 0x00B5 [0x53] WAIT_SCHEDULER_TASK: Wait for scheduler "sha0" with entities [EventEntity, EventEntity]
  7: 0x00C2 [0x66] LOAD_EXT_SCHEDULER_MAIN: Load scheduler "sir0" with entities [Yafahb (ID: 17101375/0x0104F23F), Yafahb (ID: 17101375/0x0104F23F)], work=9*
  8: 0x00D1 [0x53] WAIT_SCHEDULER_TASK: Wait for scheduler "sir0" with entities [EventEntity, EventEntity]
  9: 0x00DE [0x00] END_REQSTACK()
```
