# Event 65535

## Metadata

| Field           | Value    |
|-----------------|----------|
| Event Index     | 3/11     |
| Offset          | 0x000C   |
| Data Size       | 51 bytes |
| Calculated Size | 51 bytes |
| Instructions    | 10       |

```
      00 01 02 03 04 05 06 07  08 09 0A 0B 0C 0D 0E 0F
      -- -- -- -- -- -- -- --  -- -- -- -- -- -- -- --
0000:                                      06 00 00 02              ....
0010: 00 00 02 80 00 3E 00 C4  01 02 80 F8 FF FF 7F D4  .....>..........
0020: A1 10 01 13 02 10 03 80  07 02 10 04 80 1C 02 10  ................
0030: 02 20 10 01 80 00 3B 00  05 00 00 01 0F 00 00     . ....;........ 
```

## Opcodes

```
  0: 0x000C [0x06] ExtData[1]->WorkLocal[0] = 0
  1: 0x000F [0x02] IF !(ExtData[1]->WorkLocal[0] == 0*) GOTO 0x003E
  2: 0x0017 [0xC4] SCHEDULE_MAGIC_CASTING_ALT (arg=17): EventEntity casts magic 0* on Unnamed NPC (ID: 17867220/0x0110A1D4)
  3: 0x0023 [0x13] Work_Zone[2] = rand() % 140*
  4: 0x0028 [0x07] Work_Zone[2] += 180*
  5: 0x002D [0x1C] WAIT(Work_Zone[2] ticks)
  6: 0x0030 [0x02] IF !(Work_Zone[32] == 1*) GOTO 0x003B
  7: 0x0038 [0x05] ExtData[1]->WorkLocal[0] = 1
  8: 0x003B [0x01] GOTO 0x000F

SUBROUTINE_003E:
  9: 0x003E [0x00] END_REQSTACK()
```
