# Event 65535

## Metadata

| Field           | Value    |
|-----------------|----------|
| Event Index     | 4/4      |
| Offset          | 0x0013   |
| Data Size       | 64 bytes |
| Calculated Size | 64 bytes |
| Instructions    | 14       |

```
      00 01 02 03 04 05 06 07  08 09 0A 0B 0C 0D 0E 0F
      -- -- -- -- -- -- -- --  -- -- -- -- -- -- -- --
0010:          32 05 80 1F 00  06 80 07 80 08 80 1F 01     2............
0020: 1F 00 09 80 0A 80 0B 80  1F 01 1F 00 0C 80 0D 80  ................
0030: 0E 80 1F 01 1F 00 0F 80  10 80 11 80 1F 01 1F 00  ................
0040: 12 80 13 80 14 80 1F 01  1F 00 15 80 16 80 14 80  ................
0050: 1F 01 00                                          ...             
```

## Opcodes

```
  0: 0x0013 [0x32] ExtData[1]->MainSpeed = 37* * 0.1
  1: 0x0016 [0x1F] MOVE_ENTITY: EventEntity moves to X=-8.403*, Z=126.041*, Y=-16.000*
  2: 0x001E [0x1F] MOVE_ENTITY: Update entity position (mode=1)
  3: 0x0020 [0x1F] MOVE_ENTITY: EventEntity moves to X=-7.326*, Z=125.998*, Y=-15.999*
  4: 0x0028 [0x1F] MOVE_ENTITY: Update entity position (mode=1)
  5: 0x002A [0x1F] MOVE_ENTITY: EventEntity moves to X=-4.863*, Z=126.546*, Y=-16.250*
  6: 0x0032 [0x1F] MOVE_ENTITY: Update entity position (mode=1)
  7: 0x0034 [0x1F] MOVE_ENTITY: EventEntity moves to X=-3.781*, Z=125.781*, Y=-16.249*
  8: 0x003C [0x1F] MOVE_ENTITY: Update entity position (mode=1)
  9: 0x003E [0x1F] MOVE_ENTITY: EventEntity moves to X=-1.679*, Z=128.364*, Y=-16.749*
 10: 0x0046 [0x1F] MOVE_ENTITY: Update entity position (mode=1)
 11: 0x0048 [0x1F] MOVE_ENTITY: EventEntity moves to X=1.342*, Z=147.356*, Y=-16.749*
 12: 0x0050 [0x1F] MOVE_ENTITY: Update entity position (mode=1)
 13: 0x0052 [0x00] END_REQSTACK()
```
