# Event 65535

## Metadata

| Field           | Value    |
|-----------------|----------|
| Event Index     | 19/27    |
| Offset          | 0x0039   |
| Data Size       | 64 bytes |
| Calculated Size | 64 bytes |
| Instructions    | 8        |

```
      00 01 02 03 04 05 06 07  08 09 0A 0B 0C 0D 0E 0F
      -- -- -- -- -- -- -- --  -- -- -- -- -- -- -- --
0030:                             6C 64 22 03 01 03 80           ld"....
0040: 01 80 6C 65 22 03 01 03  80 01 80 6C 66 22 03 01  ..le"......lf"..
0050: 03 80 01 80 6C 67 22 03  01 03 80 01 80 6C D9 20  ....lg"......l. 
0060: 03 01 03 80 01 80 6C CB  20 03 01 03 80 01 80 6C  ......l. ......l
0070: F0 FF FF 7F 03 80 01 80  00                       .........       
```

## Opcodes

```
  0: 0x0039 [0x6C] FADE_ENTITY_COLOR(entity_id=01 (ID: 16982628/0x01032264), end_alpha=0*, fade_time=1*)
  1: 0x0042 [0x6C] FADE_ENTITY_COLOR(entity_id=02 (ID: 16982629/0x01032265), end_alpha=0*, fade_time=1*)
  2: 0x004B [0x6C] FADE_ENTITY_COLOR(entity_id=03 (ID: 16982630/0x01032266), end_alpha=0*, fade_time=1*)
  3: 0x0054 [0x6C] FADE_ENTITY_COLOR(entity_id=04 (ID: 16982631/0x01032267), end_alpha=0*, fade_time=1*)
  4: 0x005D [0x6C] FADE_ENTITY_COLOR(entity_id=Luzaf (ID: 16982233/0x010320D9), end_alpha=0*, fade_time=1*)
  5: 0x0066 [0x6C] FADE_ENTITY_COLOR(entity_id=Nashmeira (ID: 16982219/0x010320CB), end_alpha=0*, fade_time=1*)
  6: 0x006F [0x6C] FADE_ENTITY_COLOR(entity_id=LocalPlayer, end_alpha=0*, fade_time=1*)
  7: 0x0078 [0x00] END_REQSTACK()
```
