# Event 65535

## Metadata

| Field           | Value    |
|-----------------|----------|
| Event Index     | 4/12     |
| Offset          | 0x000D   |
| Data Size       | 51 bytes |
| Calculated Size | 51 bytes |
| Instructions    | 10       |

```
      00 01 02 03 04 05 06 07  08 09 0A 0B 0C 0D 0E 0F
      -- -- -- -- -- -- -- --  -- -- -- -- -- -- -- --
0000:                                         06 00 00               ...
0010: 02 00 00 01 80 00 3F 00  C4 01 01 80 74 D1 10 01  ......?.....t...
0020: 6E D1 10 01 13 02 10 02  80 07 02 10 03 80 1C 02  n...............
0030: 10 02 20 10 04 80 00 3C  00 05 00 00 01 10 00 00  .. ....<........
```

## Opcodes

```
  0: 0x000D [0x06] ExtData[1]->WorkLocal[0] = 0
  1: 0x0010 [0x02] IF !(ExtData[1]->WorkLocal[0] == 0*) GOTO 0x003F
  2: 0x0018 [0xC4] SCHEDULE_MAGIC_CASTING_ALT (arg=17): Unnamed NPC (ID: 17879412/0x0110D174) casts magic 0* on Unnamed NPC (ID: 17879406/0x0110D16E)
  3: 0x0024 [0x13] Work_Zone[2] = rand() % 140*
  4: 0x0029 [0x07] Work_Zone[2] += 150*
  5: 0x002E [0x1C] WAIT(Work_Zone[2] ticks)
  6: 0x0031 [0x02] IF !(Work_Zone[32] == 1*) GOTO 0x003C
  7: 0x0039 [0x05] ExtData[1]->WorkLocal[0] = 1
  8: 0x003C [0x01] GOTO 0x0010
  9: 0x003F [0x00] END_REQSTACK()
```
