# Event 65535

## Metadata

| Field           | Value    |
|-----------------|----------|
| Event Index     | 6/7      |
| Offset          | 0x008A   |
| Data Size       | 78 bytes |
| Calculated Size | 78 bytes |
| Instructions    | 6        |

```
      00 01 02 03 04 05 06 07  08 09 0A 0B 0C 0D 0E 0F
      -- -- -- -- -- -- -- --  -- -- -- -- -- -- -- --
0080:                                55 00 80 F0 FF FF            U.....
0090: 7F F0 FF FF 7F 73 67 35  38 45 00 80 F0 FF FF 7F  .....sg58E......
00A0: F0 FF FF 7F 73 67 35 36  01 80 66 06 80 01 51 0A  ....sg56..f...Q.
00B0: 01 01 51 0A 01 64 6B 75  30 53 01 51 0A 01 01 51  ..Q..dku0S.Q...Q
00C0: 0A 01 64 6B 75 30 45 00  80 F0 FF FF 7F F0 FF FF  ..dku0E.........
00D0: 7F 73 67 36 35 01 80 00                           .sg65...        
```

## Opcodes

```
  0: 0x008A [0x55] WAIT_LOAD_SCHEDULER: Wait for scheduler "sg58" with entities [LocalPlayer, LocalPlayer], work=65*
  1: 0x0099 [0x45] LOAD_SCHEDULED_TASK: Load scheduler "sg56" with entities [LocalPlayer, LocalPlayer], work=[65*, 0*]
  2: 0x00AA [0x66] LOAD_EXT_SCHEDULER_MAIN: Load scheduler "dku0" with entities [Cornelia (ID: 17453313/0x010A5101), Cornelia (ID: 17453313/0x010A5101)], work=12*
  3: 0x00B9 [0x53] WAIT_SCHEDULER_TASK: Wait for scheduler "dku0" with entities [Cornelia (ID: 17453313/0x010A5101), Cornelia (ID: 17453313/0x010A5101)]
  4: 0x00C6 [0x45] LOAD_SCHEDULED_TASK: Load scheduler "sg65" with entities [LocalPlayer, LocalPlayer], work=[65*, 0*]
  5: 0x00D7 [0x00] END_REQSTACK()
```
