# Event 65535

## Metadata

| Field           | Value    |
|-----------------|----------|
| Event Index     | 16/20    |
| Offset          | 0x0084   |
| Data Size       | 60 bytes |
| Calculated Size | 60 bytes |
| Instructions    | 13       |

```
      00 01 02 03 04 05 06 07  08 09 0A 0B 0C 0D 0E 0F
      -- -- -- -- -- -- -- --  -- -- -- -- -- -- -- --
0080:             59 04 F8 FF  FF 7F 0D 80 1F 00 0E 80      Y...........
0090: 0F 80 0C 80 1F 01 1F 00  10 80 11 80 12 80 1F 01  ................
00A0: 1F 00 13 80 14 80 15 80  1F 01 1F 00 16 80 17 80  ................
00B0: 0C 80 1F 01 1F 00 18 80  19 80 0C 80 1F 01 6F 00  ..............o.
```

## Opcodes

```
  0: 0x0084 [0x59] UPDATE_ENTITY_DATA: Set EventEntity main speed = 13* * 0.1
  1: 0x008C [0x1F] MOVE_ENTITY: EventEntity moves to X=-195.601*, Z=-18.088*, Y=0.249*
  2: 0x0094 [0x1F] MOVE_ENTITY: Update entity position (mode=1)
  3: 0x0096 [0x1F] MOVE_ENTITY: EventEntity moves to X=-194.000*, Z=-17.781*, Y=0.245*
  4: 0x009E [0x1F] MOVE_ENTITY: Update entity position (mode=1)
  5: 0x00A0 [0x1F] MOVE_ENTITY: EventEntity moves to X=-193.082*, Z=-15.212*, Y=0.241*
  6: 0x00A8 [0x1F] MOVE_ENTITY: Update entity position (mode=1)
  7: 0x00AA [0x1F] MOVE_ENTITY: EventEntity moves to X=-193.494*, Z=-13.987*, Y=0.249*
  8: 0x00B2 [0x1F] MOVE_ENTITY: Update entity position (mode=1)
  9: 0x00B4 [0x1F] MOVE_ENTITY: EventEntity moves to X=-193.648*, Z=-14.235*, Y=0.249*
 10: 0x00BC [0x1F] MOVE_ENTITY: Update entity position (mode=1)
 11: 0x00BE [0x6F] WAIT_FRAME_DELAY: Yield until WaitTime reaches zero
 12: 0x00BF [0x00] END_REQSTACK()
```
