# Event 106

## Metadata

| Field           | Value    |
|-----------------|----------|
| Event Index     | 9/42     |
| Offset          | 0x0063   |
| Data Size       | 33 bytes |
| Calculated Size | 33 bytes |
| Instructions    | 12       |

```
      00 01 02 03 04 05 06 07  08 09 0A 0B 0C 0D 0E 0F
      -- -- -- -- -- -- -- --  -- -- -- -- -- -- -- --
0060:          1E F0 FF FF 7F  6F 70 29 08 11 10 0F 01     .....op).....
0070: 01 1D 02 80 23 1D 03 80  23 29 08 11 10 0F 01 07  ....#...#)......
0080: 20 00 21 00                                        .!.            
```

## Opcodes

```
  0: 0x0063 [0x1E] EventEntity looks at LocalPlayer and starts talking
  1: 0x0068 [0x6F] WAIT_FRAME_DELAY: Yield until WaitTime reaches zero
  2: 0x0069 [0x70] WAIT_ENTITY_RENDER_FLAG: Wait while EventEntity->Render.Flags3 bit 2 is set (cancel turn if not)
  3: 0x006A [0x29] REQ_SET_WAIT(priority=0x08, entity_id=Tih Pikeh (ID: 17764369/0x010F1011), tag_num=0x01)
  4: 0x0071 [0x1D] PRINT_EVENT_MESSAGE(message_id=7657*)
    → "How arrre you\u0001`?\u0007I'm fine, as always...I think.\u007F1\u0000\u0007"
  5: 0x0074 [0x23] WAIT_FOR_DIALOG_INTERACTION
  6: 0x0075 [0x1D] PRINT_EVENT_MESSAGE(message_id=7658*)
    → "We've been having a spot of trouble because of those Yagudo beastmen, but Captain Rakoh Buuma's on hand, so things are underrr control...I think.\u007F1\u0000\u0007"
  7: 0x0078 [0x23] WAIT_FOR_DIALOG_INTERACTION
  8: 0x0079 [0x29] REQ_SET_WAIT(priority=0x08, entity_id=Tih Pikeh (ID: 17764369/0x010F1011), tag_num=0x07)
  9: 0x0080 [0x20] SET_CLI_EVENT_UC_FLAG: Unlock player control
 10: 0x0082 [0x21] END_EVENT
 11: 0x0083 [0x00] END_REQSTACK()
```
