# Event 108

## Metadata

| Field           | Value    |
|-----------------|----------|
| Event Index     | 10/42    |
| Offset          | 0x0084   |
| Data Size       | 29 bytes |
| Calculated Size | 29 bytes |
| Instructions    | 10       |

```
      00 01 02 03 04 05 06 07  08 09 0A 0B 0C 0D 0E 0F
      -- -- -- -- -- -- -- --  -- -- -- -- -- -- -- --
0080:             1E F0 FF FF  7F 6F 70 29 08 11 10 0F      .....op)....
0090: 01 01 1D 04 80 23 29 08  11 10 0F 01 07 20 00 21  .....#)...... .!
00A0: 00                                                .               
```

## Opcodes

```
  0: 0x0084 [0x1E] EventEntity looks at LocalPlayer and starts talking
  1: 0x0089 [0x6F] WAIT_FRAME_DELAY: Yield until WaitTime reaches zero
  2: 0x008A [0x70] WAIT_ENTITY_RENDER_FLAG: Wait while EventEntity->Render.Flags3 bit 2 is set (cancel turn if not)
  3: 0x008B [0x29] REQ_SET_WAIT(priority=0x08, entity_id=Tih Pikeh (ID: 17764369/0x010F1011), tag_num=0x01)
  4: 0x0092 [0x1D] PRINT_EVENT_MESSAGE(message_id=7660*)
    → "He\u0001`y, you seem to be from another country...I think. If you'rrre looking for the Consulate of \u000C\u0002[San d'Oria/Bastok], then it's \u000C\u0002[in this area/west of here]...\u000C\u0002[across the Bomingo Round/in Port Windurst].\u007F1\u0000\u0007"
  5: 0x0095 [0x23] WAIT_FOR_DIALOG_INTERACTION
  6: 0x0096 [0x29] REQ_SET_WAIT(priority=0x08, entity_id=Tih Pikeh (ID: 17764369/0x010F1011), tag_num=0x07)
  7: 0x009D [0x20] SET_CLI_EVENT_UC_FLAG: Unlock player control
  8: 0x009F [0x21] END_EVENT
  9: 0x00A0 [0x00] END_REQSTACK()
```
