# Event 215

## Metadata

| Field           | Value    |
|-----------------|----------|
| Event Index     | 31/42    |
| Offset          | 0x02C6   |
| Data Size       | 33 bytes |
| Calculated Size | 33 bytes |
| Instructions    | 12       |

```
      00 01 02 03 04 05 06 07  08 09 0A 0B 0C 0D 0E 0F
      -- -- -- -- -- -- -- --  -- -- -- -- -- -- -- --
02C0:                   1E F0  FF FF 7F 6F 70 29 08 11        .....op)..
02D0: 10 0F 01 01 1D 24 80 23  1D 25 80 23 29 08 11 10  .....$.#.%.#)...
02E0: 0F 01 07 20 00 21 00                              ... .!.         
```

## Opcodes

```
  0: 0x02C6 [0x1E] EventEntity looks at LocalPlayer and starts talking
  1: 0x02CB [0x6F] WAIT_FRAME_DELAY: Yield until WaitTime reaches zero
  2: 0x02CC [0x70] WAIT_ENTITY_RENDER_FLAG: Wait while EventEntity->Render.Flags3 bit 2 is set (cancel turn if not)
  3: 0x02CD [0x29] REQ_SET_WAIT(priority=0x08, entity_id=Tih Pikeh (ID: 17764369/0x010F1011), tag_num=0x01)
  4: 0x02D4 [0x1D] PRINT_EVENT_MESSAGE(message_id=7926*)
    → "The ministerrr of the Orastery just went out through that gate, y'know?\u007F1\u0000\u0007"
  5: 0x02D7 [0x23] WAIT_FOR_DIALOG_INTERACTION
  6: 0x02D8 [0x1D] PRINT_EVENT_MESSAGE(message_id=7927*)
    → "Maybe it has something to do with that starrr emblem letter from Heavens Tower...I think? I wonderrr what is written in those letters?\u007F1\u0000\u0007"
  7: 0x02DB [0x23] WAIT_FOR_DIALOG_INTERACTION
  8: 0x02DC [0x29] REQ_SET_WAIT(priority=0x08, entity_id=Tih Pikeh (ID: 17764369/0x010F1011), tag_num=0x07)
  9: 0x02E3 [0x20] SET_CLI_EVENT_UC_FLAG: Unlock player control
 10: 0x02E5 [0x21] END_EVENT
 11: 0x02E6 [0x00] END_REQSTACK()
```
