# Event 631

## Metadata

| Field           | Value    |
|-----------------|----------|
| Event Index     | 40/42    |
| Offset          | 0x0409   |
| Data Size       | 33 bytes |
| Calculated Size | 33 bytes |
| Instructions    | 12       |

```
      00 01 02 03 04 05 06 07  08 09 0A 0B 0C 0D 0E 0F
      -- -- -- -- -- -- -- --  -- -- -- -- -- -- -- --
0400:                             1E F0 FF FF 7F 6F 70           .....op
0410: 29 08 11 10 0F 01 01 1D  37 80 23 1D 38 80 23 29  ).......7.#.8.#)
0420: 08 11 10 0F 01 02 20 00  21 00                    ...... .!.      
```

## Opcodes

```
  0: 0x0409 [0x1E] EventEntity looks at LocalPlayer and starts talking
  1: 0x040E [0x6F] WAIT_FRAME_DELAY: Yield until WaitTime reaches zero
  2: 0x040F [0x70] WAIT_ENTITY_RENDER_FLAG: Wait while EventEntity->Render.Flags3 bit 2 is set (cancel turn if not)
  3: 0x0410 [0x29] REQ_SET_WAIT(priority=0x08, entity_id=Tih Pikeh (ID: 17764369/0x010F1011), tag_num=0x01)
  4: 0x0417 [0x1D] PRINT_EVENT_MESSAGE(message_id=9644*)
    → "I just saw Ajido-Marujido leaving the Manustery in, like, full view...\u007F1\u0000\u0007"
  5: 0x041A [0x23] WAIT_FOR_DIALOG_INTERACTION
  6: 0x041B [0x1D] PRINT_EVENT_MESSAGE(message_id=9645*)
    → "Should he be, y'know, walking around outside and stuff? Shouldn't he be using, like, some sorta invisibility spell thingy?\u007F1\u0000\u0007"
  7: 0x041E [0x23] WAIT_FOR_DIALOG_INTERACTION
  8: 0x041F [0x29] REQ_SET_WAIT(priority=0x08, entity_id=Tih Pikeh (ID: 17764369/0x010F1011), tag_num=0x02)
  9: 0x0426 [0x20] SET_CLI_EVENT_UC_FLAG: Unlock player control
 10: 0x0428 [0x21] END_EVENT
 11: 0x0429 [0x00] END_REQSTACK()
```
