# Event 65535

## Metadata

| Field           | Value    |
|-----------------|----------|
| Event Index     | 9/13     |
| Offset          | 0x0146   |
| Data Size       | 55 bytes |
| Calculated Size | 55 bytes |
| Instructions    | 10       |

```
      00 01 02 03 04 05 06 07  08 09 0A 0B 0C 0D 0E 0F
      -- -- -- -- -- -- -- --  -- -- -- -- -- -- -- --
0140:                   4E 00  E3 02 06 01 4E 00 E4 02        N.....N...
0150: 06 01 4E 00 E5 02 06 01  4E 00 E6 02 06 01 4E 00  ..N.....N.....N.
0160: E7 02 06 01 4E 00 EA 02  06 01 4E 00 EB 02 06 01  ....N.....N.....
0170: 4E 00 EC 02 06 01 4E 00  ED 02 06 01 00           N.....N......   
```

## Opcodes

```
  0: 0x0146 [0x4E] SET_ENTITY_HIDE_FLAG: Show 01 (ID: 17171171/0x010602E3)
  1: 0x014C [0x4E] SET_ENTITY_HIDE_FLAG: Show 02 (ID: 17171172/0x010602E4)
  2: 0x0152 [0x4E] SET_ENTITY_HIDE_FLAG: Show 03 (ID: 17171173/0x010602E5)
  3: 0x0158 [0x4E] SET_ENTITY_HIDE_FLAG: Show 04 (ID: 17171174/0x010602E6)
  4: 0x015E [0x4E] SET_ENTITY_HIDE_FLAG: Show 05 (ID: 17171175/0x010602E7)
  5: 0x0164 [0x4E] SET_ENTITY_HIDE_FLAG: Show 10 (ID: 17171178/0x010602EA)
  6: 0x016A [0x4E] SET_ENTITY_HIDE_FLAG: Show 11 (ID: 17171179/0x010602EB)
  7: 0x0170 [0x4E] SET_ENTITY_HIDE_FLAG: Show 12 (ID: 17171180/0x010602EC)
  8: 0x0176 [0x4E] SET_ENTITY_HIDE_FLAG: Show 13 (ID: 17171181/0x010602ED)
  9: 0x017C [0x00] END_REQSTACK()
```
