# Event 65535

## Metadata

| Field           | Value    |
|-----------------|----------|
| Event Index     | 8/13     |
| Offset          | 0x010F   |
| Data Size       | 55 bytes |
| Calculated Size | 55 bytes |
| Instructions    | 10       |

```
      00 01 02 03 04 05 06 07  08 09 0A 0B 0C 0D 0E 0F
      -- -- -- -- -- -- -- --  -- -- -- -- -- -- -- --
0100:                                               4E                 N
0110: 01 E3 02 06 01 4E 01 E4  02 06 01 4E 01 E5 02 06  .....N.....N....
0120: 01 4E 01 E6 02 06 01 4E  01 E7 02 06 01 4E 01 EA  .N.....N.....N..
0130: 02 06 01 4E 01 EB 02 06  01 4E 01 EC 02 06 01 4E  ...N.....N.....N
0140: 01 ED 02 06 01 00                                 ......          
```

## Opcodes

```
  0: 0x010F [0x4E] SET_ENTITY_HIDE_FLAG: Hide 01 (ID: 17171171/0x010602E3)
  1: 0x0115 [0x4E] SET_ENTITY_HIDE_FLAG: Hide 02 (ID: 17171172/0x010602E4)
  2: 0x011B [0x4E] SET_ENTITY_HIDE_FLAG: Hide 03 (ID: 17171173/0x010602E5)
  3: 0x0121 [0x4E] SET_ENTITY_HIDE_FLAG: Hide 04 (ID: 17171174/0x010602E6)
  4: 0x0127 [0x4E] SET_ENTITY_HIDE_FLAG: Hide 05 (ID: 17171175/0x010602E7)
  5: 0x012D [0x4E] SET_ENTITY_HIDE_FLAG: Hide 10 (ID: 17171178/0x010602EA)
  6: 0x0133 [0x4E] SET_ENTITY_HIDE_FLAG: Hide 11 (ID: 17171179/0x010602EB)
  7: 0x0139 [0x4E] SET_ENTITY_HIDE_FLAG: Hide 12 (ID: 17171180/0x010602EC)
  8: 0x013F [0x4E] SET_ENTITY_HIDE_FLAG: Hide 13 (ID: 17171181/0x010602ED)
  9: 0x0145 [0x00] END_REQSTACK()
```
