# Event 65535

## Metadata

| Field           | Value    |
|-----------------|----------|
| Event Index     | 47/170   |
| Offset          | 0x215B   |
| Data Size       | 39 bytes |
| Calculated Size | 39 bytes |
| Instructions    | 11       |

```
      00 01 02 03 04 05 06 07  08 09 0A 0B 0C 0D 0E 0F
      -- -- -- -- -- -- -- --  -- -- -- -- -- -- -- --
2150:                                   32 34 80 1F 00             24...
2160: 03 80 2B 81 11 81 1F 01  33 01 5A 00 03 80 2C 81  ..+.....3.Z...,.
2170: 17 81 5A 01 33 00 1F 00  03 80 2E 81 17 81 1F 01  ..Z.3...........
2180: 6F 00                                             o.              
```

## Opcodes

```
  0: 0x215B [0x32] ExtData[1]->MainSpeed = 13* * 0.1
  1: 0x215E [0x1F] MOVE_ENTITY: EventEntity moves to X=0.000*, Z=27.619*, Y=-1.500*
  2: 0x2166 [0x1F] MOVE_ENTITY: Update entity position (mode=1)
  3: 0x2168 [0x33] EventEntity->Render.Flags0 |= 0x200000 // Bit 21 (flag=0x01)
  4: 0x216A [0x5A] UPDATE_EVENT_POSITION: Set EventEntity MovePosition to X=0.000*, Z=30.926*, Y=-2.999*
  5: 0x2172 [0x5A] UPDATE_EVENT_POSITION: Move EventEntity incrementally towards MovePosition
  6: 0x2174 [0x33] EventEntity->Render.Flags0 &= ~ 0x200000 // Bit 21 (flag=0x00)
  7: 0x2176 [0x1F] MOVE_ENTITY: EventEntity moves to X=0.000*, Z=36.838*, Y=-2.999*
  8: 0x217E [0x1F] MOVE_ENTITY: Update entity position (mode=1)
  9: 0x2180 [0x6F] WAIT_FRAME_DELAY: Yield until WaitTime reaches zero
 10: 0x2181 [0x00] END_REQSTACK()
```
