# Event 65535

## Metadata

| Field           | Value    |
|-----------------|----------|
| Event Index     | 88/170   |
| Offset          | 0x2F9C   |
| Data Size       | 38 bytes |
| Calculated Size | 38 bytes |
| Instructions    | 10       |

```
      00 01 02 03 04 05 06 07  08 09 0A 0B 0C 0D 0E 0F
      -- -- -- -- -- -- -- --  -- -- -- -- -- -- -- --
2F90:                                      32 34 80 1F              24..
2FA0: 00 03 80 8A 81 17 81 1F  01 33 01 5A 00 03 80 8B  .........3.Z....
2FB0: 81 11 81 5A 01 33 00 1F  00 03 80 8C 81 11 81 1F  ...Z.3..........
2FC0: 01 00                                             ..              
```

## Opcodes

```
  0: 0x2F9C [0x32] ExtData[1]->MainSpeed = 13* * 0.1
  1: 0x2F9F [0x1F] MOVE_ENTITY: EventEntity moves to X=0.000*, Z=31.131*, Y=-2.999*
  2: 0x2FA7 [0x1F] MOVE_ENTITY: Update entity position (mode=1)
  3: 0x2FA9 [0x33] EventEntity->Render.Flags0 |= 0x200000 // Bit 21 (flag=0x01)
  4: 0x2FAB [0x5A] UPDATE_EVENT_POSITION: Set EventEntity MovePosition to X=0.000*, Z=27.793*, Y=-1.500*
  5: 0x2FB3 [0x5A] UPDATE_EVENT_POSITION: Move EventEntity incrementally towards MovePosition
  6: 0x2FB5 [0x33] EventEntity->Render.Flags0 &= ~ 0x200000 // Bit 21 (flag=0x00)
  7: 0x2FB7 [0x1F] MOVE_ENTITY: EventEntity moves to X=0.000*, Z=18.967*, Y=-1.500*
  8: 0x2FBF [0x1F] MOVE_ENTITY: Update entity position (mode=1)
  9: 0x2FC1 [0x00] END_REQSTACK()
```
