# Event 65535

## Metadata

| Field           | Value    |
|-----------------|----------|
| Event Index     | 62/170   |
| Offset          | 0x2D6C   |
| Data Size       | 56 bytes |
| Calculated Size | 56 bytes |
| Instructions    | 13       |

```
      00 01 02 03 04 05 06 07  08 09 0A 0B 0C 0D 0E 0F
      -- -- -- -- -- -- -- --  -- -- -- -- -- -- -- --
2D60:                                      79 00 F0 FF              y...
2D70: FF 7F F0 FF FF 7F 32 34  80 37 63 81 64 81 65 81  ......24.7c.d.e.
2D80: 66 81 1F 00 67 81 68 81  65 81 1F 01 1F 00 69 81  f...g.h.e.....i.
2D90: 6A 81 65 81 1F 01 6F 39  6B 81 1C 13 80 39 6C 81  j.e...o9k....9l.
2DA0: 1C 13 80 00                                       ....            
```

## Opcodes

```
  0: 0x2D6C [0x79] LocalPlayer looks at LocalPlayer (Basic look)
  1: 0x2D76 [0x32] ExtData[1]->MainSpeed = 13* * 0.1
  2: 0x2D79 [0x37] UPDATE_EVENT_POSITION_AND_DIR: x=-85.062*, z=75.000*, y=0.398*, direction=218.2°*
  3: 0x2D82 [0x1F] MOVE_ENTITY: EventEntity moves to X=-88.739*, Z=77.773*, Y=0.398*
  4: 0x2D8A [0x1F] MOVE_ENTITY: Update entity position (mode=1)
  5: 0x2D8C [0x1F] MOVE_ENTITY: EventEntity moves to X=-97.664*, Z=75.832*, Y=0.398*
  6: 0x2D94 [0x1F] MOVE_ENTITY: Update entity position (mode=1)
  7: 0x2D96 [0x6F] WAIT_FRAME_DELAY: Yield until WaitTime reaches zero
  8: 0x2D97 [0x39] SET_ENTITY_DIRECTION(direction=15.2°*)
  9: 0x2D9A [0x1C] WAIT(60* ticks)
 10: 0x2D9D [0x39] SET_ENTITY_DIRECTION(direction=5.0°*)
 11: 0x2DA0 [0x1C] WAIT(60* ticks)
 12: 0x2DA3 [0x00] END_REQSTACK()
```
