# Event 37

## Metadata

| Field           | Value    |
|-----------------|----------|
| Event Index     | 5/7      |
| Offset          | 0x00C0   |
| Data Size       | 30 bytes |
| Calculated Size | 30 bytes |
| Instructions    | 12       |

```
      00 01 02 03 04 05 06 07  08 09 0A 0B 0C 0D 0E 0F
      -- -- -- -- -- -- -- --  -- -- -- -- -- -- -- --
00C0: 42 4A F0 FF FF 7F D1 C1  0C 01 6F 76 F0 FF FF 7F  BJ........ov....
00D0: 48 11 80 23 48 13 80 23  48 1A 80 23 21 00        H..#H..#H..#!.  
```

## Opcodes

```
  0: 0x00C0 [0x42] SET_CLI_EVENT_CANCEL_DATA()
  1: 0x00C1 [0x4A] LocalPlayer looks at Strange Apparatus (ID: 17613265/0x010CC1D1)
  2: 0x00CA [0x6F] WAIT_FRAME_DELAY: Yield until WaitTime reaches zero
  3: 0x00CB [0x76] CHECK_ENTITY_RENDER_FLAGS: Wait until LocalPlayer Render.Flags0 and Render.Flags3 conditions are met
  4: 0x00D0 [0x48] [System] [7482*]:
    → "The voice of a young woman rings in your head.\u007F1\u0000\u0007"
  5: 0x00D3 [0x23] WAIT_FOR_DIALOG_INTERACTION
  6: 0x00D4 [0x48] [System] [10822*]:
    → "\u00072Greetings, \u000C\u0007[/Doctor/Administrator] \u0008.\u00073\u007F1\u0000\u0007"
  7: 0x00D7 [0x23] WAIT_FOR_DIALOG_INTERACTION
  8: 0x00D8 [0x48] [System] [10829*]:
    → "\u00072You can use \u0001\u0001\u0001 \u0001\u0005$\u0002\u0001\u0000\u0000...\u0001\u0001\u0001 \u0001\u0005$\u0002\u0002\u0000\u0000 to initialize...\u0001\u00053\u0002\u0000\u0000\u0000.\u00073\u007F1\u0000\u0007"
  9: 0x00DB [0x23] WAIT_FOR_DIALOG_INTERACTION
 10: 0x00DC [0x21] END_EVENT
 11: 0x00DD [0x00] END_REQSTACK()
```
