# Event 38

## Metadata

| Field           | Value    |
|-----------------|----------|
| Event Index     | 6/7      |
| Offset          | 0x00DE   |
| Data Size       | 30 bytes |
| Calculated Size | 30 bytes |
| Instructions    | 12       |

```
      00 01 02 03 04 05 06 07  08 09 0A 0B 0C 0D 0E 0F
      -- -- -- -- -- -- -- --  -- -- -- -- -- -- -- --
00D0:                                            42 4A                BJ
00E0: F0 FF FF 7F D1 C1 0C 01  6F 76 F0 FF FF 7F 48 11  ........ov....H.
00F0: 80 23 48 13 80 23 48 1E  80 23 21 00              .#H..#H..#!.    
```

## Opcodes

```
  0: 0x00DE [0x42] SET_CLI_EVENT_CANCEL_DATA()
  1: 0x00DF [0x4A] LocalPlayer looks at Strange Apparatus (ID: 17613265/0x010CC1D1)
  2: 0x00E8 [0x6F] WAIT_FRAME_DELAY: Yield until WaitTime reaches zero
  3: 0x00E9 [0x76] CHECK_ENTITY_RENDER_FLAGS: Wait until LocalPlayer Render.Flags0 and Render.Flags3 conditions are met
  4: 0x00EE [0x48] [System] [7482*]:
    → "The voice of a young woman rings in your head.\u007F1\u0000\u0007"
  5: 0x00F1 [0x23] WAIT_FOR_DIALOG_INTERACTION
  6: 0x00F2 [0x48] [System] [10822*]:
    → "\u00072Greetings, \u000C\u0007[/Doctor/Administrator] \u0008.\u00073\u007F1\u0000\u0007"
  7: 0x00F5 [0x23] WAIT_FOR_DIALOG_INTERACTION
  8: 0x00F6 [0x48] [System] [10833*]:
    → "\u00072Activating...\u0001\u00053\u0002\u0000\u0000\u0000 requires...
\u0001 cryst...cluster...\u00073\u007F1\u0000\u0007"
  9: 0x00F9 [0x23] WAIT_FOR_DIALOG_INTERACTION
 10: 0x00FA [0x21] END_EVENT
 11: 0x00FB [0x00] END_REQSTACK()
```
