# Event 39

## Metadata

| Field           | Value    |
|-----------------|----------|
| Event Index     | 7/7      |
| Offset          | 0x00FC   |
| Data Size       | 34 bytes |
| Calculated Size | 34 bytes |
| Instructions    | 14       |

```
      00 01 02 03 04 05 06 07  08 09 0A 0B 0C 0D 0E 0F
      -- -- -- -- -- -- -- --  -- -- -- -- -- -- -- --
00F0:                                      42 4A F0 FF              BJ..
0100: FF 7F D1 C1 0C 01 6F 76  F0 FF FF 7F 48 1F 80 23  ......ov....H..#
0110: 48 20 80 23 48 21 80 23  48 22 80 23 21 00        H .#H!.#H".#!.  
```

## Opcodes

```
  0: 0x00FC [0x42] SET_CLI_EVENT_CANCEL_DATA()
  1: 0x00FD [0x4A] LocalPlayer looks at Strange Apparatus (ID: 17613265/0x010CC1D1)
  2: 0x0106 [0x6F] WAIT_FRAME_DELAY: Yield until WaitTime reaches zero
  3: 0x0107 [0x76] CHECK_ENTITY_RENDER_FLAGS: Wait until LocalPlayer Render.Flags0 and Render.Flags3 conditions are met
  4: 0x010C [0x48] [System] [10834*]:
    → "\u00072Cry...al cluster insertion...confirmed.\u00073\u007F1\u0000\u0007"
  5: 0x010F [0x23] WAIT_FOR_DIALOG_INTERACTION
  6: 0x0110 [0x48] [System] [10835*]:
    → "\u00072Energ...charg...complete. Transitioning to...activation...hase.\u00073\u007F1\u0000\u0007"
  7: 0x0113 [0x23] WAIT_FOR_DIALOG_INTERACTION
  8: 0x0114 [0x48] [System] [10836*]:
    → "\u00072...10%\u007F6\u0001\u0007\u0001@...35%\u007F6\u0001\u0007\u0001@...55%\u007F6\u0001\u0007\u0001@...85%\u007F6\u0001\u0007\u0001@...95%\u00073\u007F6\u0001\u0000\u0007"
  9: 0x0117 [0x23] WAIT_FOR_DIALOG_INTERACTION
 10: 0x0118 [0x48] [System] [10837*]:
    → "\u00072...complete. Please proceed with the unit connection phas...\u00073\u007F1\u0000\u0007"
 11: 0x011B [0x23] WAIT_FOR_DIALOG_INTERACTION
 12: 0x011C [0x21] END_EVENT
 13: 0x011D [0x00] END_REQSTACK()
```
