# Event 65535

## Metadata

| Field           | Value    |
|-----------------|----------|
| Event Index     | 18/35    |
| Offset          | 0x00A4   |
| Data Size       | 59 bytes |
| Calculated Size | 59 bytes |
| Instructions    | 7        |

```
      00 01 02 03 04 05 06 07  08 09 0A 0B 0C 0D 0E 0F
      -- -- -- -- -- -- -- --  -- -- -- -- -- -- -- --
00A0:             1C 07 80 5B  09 80 5C 40 02 01 5C 40      ...[..\@..\@
00B0: 02 01 6C 73 30 30 1C 0A  80 5B 0B 80 5E 40 02 01  ..ls00...[..^@..
00C0: 5E 40 02 01 61 74 73 30  5B 0C 80 5D 40 02 01 5D  ^@..ats0[..]@..]
00D0: 40 02 01 61 74 73 30 27  10 F0 FF FF 7F 0B 00     @..ats0'....... 
```

## Opcodes

```
  0: 0x00A4 [0x1C] WAIT(20* ticks)
  1: 0x00A7 [0x5B] LOAD_EXT_SCHEDULER(work_offset=661*, entity1=Tenzen (ID: 16924764/0x0102405C), entity2=Tenzen (ID: 16924764/0x0102405C), action="ls00")
  2: 0x00B6 [0x1C] WAIT(25* ticks)
  3: 0x00B9 [0x5B] LOAD_EXT_SCHEDULER(work_offset=665*, entity1=Shikaree Z (ID: 16924766/0x0102405E), entity2=Shikaree Z (ID: 16924766/0x0102405E), action="ats0")
  4: 0x00C8 [0x5B] LOAD_EXT_SCHEDULER(work_offset=493*, entity1=Jabbos (ID: 16924765/0x0102405D), entity2=Jabbos (ID: 16924765/0x0102405D), action="ats0")
  5: 0x00D7 [0x27] REQ_SET(priority=0x10, entity_id=LocalPlayer, tag_num=0x0B)
  6: 0x00DE [0x00] END_REQSTACK()
```
