# Event 221

## Metadata

| Field           | Value    |
|-----------------|----------|
| Event Index     | 88/164   |
| Offset          | 0x06E5   |
| Data Size       | 40 bytes |
| Calculated Size | 40 bytes |
| Instructions    | 11       |

```
      00 01 02 03 04 05 06 07  08 09 0A 0B 0C 0D 0E 0F
      -- -- -- -- -- -- -- --  -- -- -- -- -- -- -- --
06E0:                29 08 1C  F0 0E 01 03 1D 2E 80 23       ).........#
06F0: 1D 2F 80 23 29 08 1C F0  0E 01 04 29 08 1C F0 0E  ./.#)......)....
0700: 01 05 29 08 1C F0 0E 01  06 20 00 21 00           ..)...... .!.   
```

## Opcodes

```
  0: 0x06E5 [0x29] REQ_SET_WAIT(priority=0x08, entity_id=Yoran-Oran (ID: 17756188/0x010EF01C), tag_num=0x03)
  1: 0x06EC [0x1D] PRINT_EVENT_MESSAGE(message_id=7591*)
    → "\u00072...There are many-ethy a place which now is land,\u0007That was in antiquity submerged-ethy under the sea and sand.\u00073\u007F1\u0000\u0007"
  2: 0x06EF [0x23] WAIT_FOR_DIALOG_INTERACTION
  3: 0x06F0 [0x1D] PRINT_EVENT_MESSAGE(message_id=7592*)
    → "\u00072A prime example of such a place-ethy is the \u001E\u0005Maze of Shakhrami\u001E\u0001. You can find-ethy an array of fossilized sea life in the rocks there-ethy...\u00073\u007F1\u0000\u0007"
  4: 0x06F3 [0x23] WAIT_FOR_DIALOG_INTERACTION
  5: 0x06F4 [0x29] REQ_SET_WAIT(priority=0x08, entity_id=Yoran-Oran (ID: 17756188/0x010EF01C), tag_num=0x04)
  6: 0x06FB [0x29] REQ_SET_WAIT(priority=0x08, entity_id=Yoran-Oran (ID: 17756188/0x010EF01C), tag_num=0x05)
  7: 0x0702 [0x29] REQ_SET_WAIT(priority=0x08, entity_id=Yoran-Oran (ID: 17756188/0x010EF01C), tag_num=0x06)
  8: 0x0709 [0x20] SET_CLI_EVENT_UC_FLAG: Unlock player control
  9: 0x070B [0x21] END_EVENT
 10: 0x070C [0x00] END_REQSTACK()
```
