# Event 256

## Metadata

| Field           | Value    |
|-----------------|----------|
| Event Index     | 86/164   |
| Offset          | 0x069F   |
| Data Size       | 33 bytes |
| Calculated Size | 33 bytes |
| Instructions    | 13       |

```
      00 01 02 03 04 05 06 07  08 09 0A 0B 0C 0D 0E 0F
      -- -- -- -- -- -- -- --  -- -- -- -- -- -- -- --
0690:                                               42                 B
06A0: 20 01 1E F0 FF FF 7F 6F  70 29 08 1C F0 0E 01 01   ......op)......
06B0: 1D 2A 80 23 29 08 1C F0  0E 01 02 2E 20 00 21 00  .*.#)....... .!.
```

## Opcodes

```
  0: 0x069F [0x42] SET_CLI_EVENT_CANCEL_DATA()
  1: 0x06A0 [0x20] SET_CLI_EVENT_UC_FLAG: Lock player control
  2: 0x06A2 [0x1E] EventEntity looks at LocalPlayer and starts talking
  3: 0x06A7 [0x6F] WAIT_FRAME_DELAY: Yield until WaitTime reaches zero
  4: 0x06A8 [0x70] WAIT_ENTITY_RENDER_FLAG: Wait while EventEntity->Render.Flags3 bit 2 is set (cancel turn if not)
  5: 0x06A9 [0x29] REQ_SET_WAIT(priority=0x08, entity_id=Yoran-Oran (ID: 17756188/0x010EF01C), tag_num=0x01)
  6: 0x06B0 [0x1D] PRINT_EVENT_MESSAGE(message_id=7689*)
    → "If mandragoras drop-ethy something that looks as if it could aid-ethy me in my research, then please be sure to bring-ethy it back here to me.\u007F1\u0000\u0007"
  7: 0x06B3 [0x23] WAIT_FOR_DIALOG_INTERACTION
  8: 0x06B4 [0x29] REQ_SET_WAIT(priority=0x08, entity_id=Yoran-Oran (ID: 17756188/0x010EF01C), tag_num=0x02)
  9: 0x06BB [0x2E] SET_CLI_EVENT_CANCEL_FLAGS()
 10: 0x06BC [0x20] SET_CLI_EVENT_UC_FLAG: Unlock player control
 11: 0x06BE [0x21] END_EVENT
 12: 0x06BF [0x00] END_REQSTACK()
```
