# 17350951 - Hut Door

## Common Data

| Field            | Value                     |
|------------------|---------------------------|
| Zone             | Ghelsba Outpost (ID: 140) |
| Block Size       | 580 bytes                 |
| Total Events     | 4                         |
| References Count | 21                        |

## List of Events

| Event ID              | Entrypoint   |   Size |   Instructions |
|-----------------------|--------------|--------|----------------|
| [65535](#event-65535) | 0x0000       |      1 |              1 |
| [32000](#event-32000) | 0x0001       |      1 |              1 |
| [2](#event-2)         | 0x0002       |      6 |              4 |
| [3](#event-3)         | 0x0008       |    455 |             55 |

## DAT References (imed_data)

|   Index | Hex Value   |   Dec Value |
|---------|-------------|-------------|
|       0 | 0x1E36      |        7734 |
|       1 | 0x1E39      |        7737 |
|       2 | 0x0003      |           3 |
|       3 | 0x0129      |         297 |
|       4 | 0x004C      |          76 |
|       5 | 0x0028      |          40 |
|       6 | 0x0000      |           0 |
|       7 | 0x002D      |          45 |
|       8 | 0x005A      |          90 |
|       9 | 0x1E47      |        7751 |
|      10 | 0x1E48      |        7752 |
|      11 | 0x1E49      |        7753 |
|      12 | 0x1E4A      |        7754 |
|      13 | 0x1E4B      |        7755 |
|      14 | 0x000F      |          15 |
|      15 | 0x0001      |           1 |
|      16 | 0xFFFD9C8B  |  4294810763 |
|      17 | 0x13867     |       79975 |
|      18 | 0xFFFFD8F0  |  4294957296 |
|      19 | 0x0F61      |        3937 |
|      20 | 0x00C8      |         200 |

## String References

- **7734**: This looks like an Orcish dwelling. The door is firmly shut.
- **7737**: You open the door.

## Events

### Event 65535

#### Metadata

| Field        | Value   |
|--------------|---------|
| Entrypoint   | 0x0000  |
| Data Size    | 1 bytes |
| Instructions | 1       |

```
      00 01 02 03 04 05 06 07  08 09 0A 0B 0C 0D 0E 0F
      -- -- -- -- -- -- -- --  -- -- -- -- -- -- -- --
0000: 00                                                .               
```

#### Opcodes

```
  0: 0x0000 [0x00] END_REQSTACK()
```

### Event 32000

#### Metadata

| Field        | Value   |
|--------------|---------|
| Entrypoint   | 0x0001  |
| Data Size    | 1 bytes |
| Instructions | 1       |

```
      00 01 02 03 04 05 06 07  08 09 0A 0B 0C 0D 0E 0F
      -- -- -- -- -- -- -- --  -- -- -- -- -- -- -- --
0000:    00                                              .              
```

#### Opcodes

```
  0: 0x0001 [0x00] END_REQSTACK()
```

### Event 2

#### Metadata

| Field        | Value   |
|--------------|---------|
| Entrypoint   | 0x0002  |
| Data Size    | 6 bytes |
| Instructions | 4       |

```
      00 01 02 03 04 05 06 07  08 09 0A 0B 0C 0D 0E 0F
      -- -- -- -- -- -- -- --  -- -- -- -- -- -- -- --
0000:       48 00 80 23 21 00                             H..#!.        
```

#### Opcodes

```
  0: 0x0002 [0x48] [System] [7734*]:
    → "This looks like an Orcish dwelling. The door is firmly shut."
  1: 0x0005 [0x23] WAIT_FOR_DIALOG_INTERACTION
  2: 0x0006 [0x21] END_EVENT
  3: 0x0007 [0x00] END_REQSTACK()
```

### Event 3

#### Metadata

| Field        | Value     |
|--------------|-----------|
| Entrypoint   | 0x0008    |
| Data Size    | 455 bytes |
| Instructions | 55        |

```
      00 01 02 03 04 05 06 07  08 09 0A 0B 0C 0D 0E 0F
      -- -- -- -- -- -- -- --  -- -- -- -- -- -- -- --
0000:                          42 46 01 48 01 80 23 1A          BF.H..#.
0010: AE 01 38 02 80 5B 03 80  31 C1 08 01 31 C1 08 01  ..8..[..1...1...
0020: 00 FE FE FE 29 10 F0 FF  FF 7F 09 5B 04 80 2F C1  ....)......[../.
0030: 08 01 2F C1 08 01 63 72  79 30 5B 04 80 30 C1 08  ../...cry0[..0..
0040: 01 30 C1 08 01 73 69 74  30 53 30 C1 08 01 30 C1  .0...sit0S0...0.
0050: 08 01 73 69 74 30 45 05  80 F0 FF FF 7F F0 FF FF  ..sit0E.........
0060: 7F 73 67 30 31 06 80 1A  8D 01 1C 07 80 45 05 80  .sg01........E..
0070: F0 FF FF 7F F0 FF FF 7F  73 67 31 32 06 80 1C 08  ........sg12....
0080: 80 45 05 80 F0 FF FF 7F  F0 FF FF 7F 73 67 30 36  .E..........sg06
0090: 06 80 29 10 F0 FF FF 7F  0A 27 10 30 C1 08 01 03  ..)......'.0....
00A0: 5B 03 80 31 C1 08 01 31  C1 08 01 74 6C 6B 30 2B  [..1...1...tlk0+
00B0: 31 C1 08 01 09 80 23 52  05 80 F0 FF FF 7F F0 FF  1.....#R........
00C0: FF 7F 73 67 30 36 45 05  80 F0 FF FF 7F F0 FF FF  ..sg06E.........
00D0: 7F 73 67 31 33 06 80 5B  03 80 31 C1 08 01 31 C1  .sg13..[..1...1.
00E0: 08 01 74 68 6B 31 2B 31  C1 08 01 0A 80 23 2B 31  ..thk1+1.....#+1
00F0: C1 08 01 0B 80 23 2B 31  C1 08 01 0C 80 23 5B 03  .....#+1.....#[.
0100: 80 31 C1 08 01 31 C1 08  01 74 68 6B 32 53 31 C1  .1...1...thk2S1.
0110: 08 01 31 C1 08 01 74 68  6B 32 45 05 80 F0 FF FF  ..1...thk2E.....
0120: 7F F0 FF FF 7F 73 67 31  34 06 80 5B 03 80 31 C1  .....sg14..[..1.
0130: 08 01 31 C1 08 01 74 6C  6B 30 79 00 30 C1 08 01  ..1...tlk0y.0...
0140: F0 FF FF 7F 2B 31 C1 08  01 0D 80 23 1A AE 01 1C  ....+1.....#....
0150: 0E 80 02 08 10 0F 80 01  66 01 47 00 10 80 11 80  ........f.G.....
0160: 12 80 13 80 47 01 45 05  80 F0 FF FF 7F F0 FF FF  ....G.E.........
0170: 7F 73 67 30 38 06 80 1A  8D 01 55 05 80 F0 FF FF  .sg08.....U.....
0180: 7F F0 FF FF 7F 73 67 30  38 46 00 21 00 45 14 80  .....sg08F.!.E..
0190: F0 FF FF 7F F0 FF FF 7F  66 64 69 31 06 80 55 14  ........fdi1..U.
01A0: 80 F0 FF FF 7F F0 FF FF  7F 66 64 69 31 1B 45 14  .........fdi1.E.
01B0: 80 F0 FF FF 7F F0 FF FF  7F 66 64 6F 31 06 80 55  .........fdo1..U
01C0: 14 80 F0 FF FF 7F F0 FF  FF 7F 66 64 6F 31 1B     ..........fdo1. 
```

#### Opcodes

```
  0: 0x0008 [0x42] SET_CLI_EVENT_CANCEL_DATA()
  1: 0x0009 [0x46] CAMERA_CONTROL: Disable user control
  2: 0x000B [0x48] [System] [7737*]:
    → "You open the door."
  3: 0x000E [0x23] WAIT_FOR_DIALOG_INTERACTION
  4: 0x000F [0x1A] CALL_SUBROUTINE(address=0x01AE)
  5: 0x0012 [0x38] SET_CLIENT_EVENT_MODE(mode=3*)
  6: 0x0015 [0x5B] LOAD_EXT_SCHEDULER: Load scheduler 0xFEFEFE00 with entities [Vaseradoul (ID: 17350961/0x0108C131), Vaseradoul (ID: 17350961/0x0108C131)], work=297*
  7: 0x0024 [0x29] REQ_SET_WAIT(priority=0x10, entity_id=LocalPlayer, tag_num=0x09)
  8: 0x002B [0x5B] LOAD_EXT_SCHEDULER: Load scheduler "cry0" with entities [Albere (ID: 17350959/0x0108C12F), Albere (ID: 17350959/0x0108C12F)], work=76*
  9: 0x003A [0x5B] LOAD_EXT_SCHEDULER: Load scheduler "sit0" with entities [Beautefier (ID: 17350960/0x0108C130), Beautefier (ID: 17350960/0x0108C130)], work=76*
 10: 0x0049 [0x53] WAIT_SCHEDULER_TASK: Wait for scheduler "sit0" with entities [Beautefier (ID: 17350960/0x0108C130), Beautefier (ID: 17350960/0x0108C130)]
 11: 0x0056 [0x45] LOAD_SCHEDULED_TASK: Load scheduler "sg01" with entities [LocalPlayer, LocalPlayer], work=[40*, 0*]
 12: 0x0067 [0x1A] CALL_SUBROUTINE(address=0x018D)
 13: 0x006A [0x1C] WAIT(45* ticks)
 14: 0x006D [0x45] LOAD_SCHEDULED_TASK: Load scheduler "sg12" with entities [LocalPlayer, LocalPlayer], work=[40*, 0*]
 15: 0x007E [0x1C] WAIT(90* ticks)
 16: 0x0081 [0x45] LOAD_SCHEDULED_TASK: Load scheduler "sg06" with entities [LocalPlayer, LocalPlayer], work=[40*, 0*]
 17: 0x0092 [0x29] REQ_SET_WAIT(priority=0x10, entity_id=LocalPlayer, tag_num=0x0A)
 18: 0x0099 [0x27] REQ_SET(priority=0x10, entity_id=Beautefier (ID: 17350960/0x0108C130), tag_num=0x03)
 19: 0x00A0 [0x5B] LOAD_EXT_SCHEDULER: Load scheduler "tlk0" with entities [Vaseradoul (ID: 17350961/0x0108C131), Vaseradoul (ID: 17350961/0x0108C131)], work=297*
 20: 0x00AF [0x2B] Vaseradoul (ID: 17350961/0x0108C131) [7751*]:
    → "Th-thank you!"
 21: 0x00B6 [0x23] WAIT_FOR_DIALOG_INTERACTION
 22: 0x00B7 [0x52] END_LOAD_SCHEDULER: End scheduler "sg06" with entities [LocalPlayer, LocalPlayer], work=40*
 23: 0x00C6 [0x45] LOAD_SCHEDULED_TASK: Load scheduler "sg13" with entities [LocalPlayer, LocalPlayer], work=[40*, 0*]
 24: 0x00D7 [0x5B] LOAD_EXT_SCHEDULER: Load scheduler "thk1" with entities [Vaseradoul (ID: 17350961/0x0108C131), Vaseradoul (ID: 17350961/0x0108C131)], work=297*
 25: 0x00E6 [0x2B] Vaseradoul (ID: 17350961/0x0108C131) [7752*]:
    → "But, I wonder what that Orc meant..."
 26: 0x00ED [0x23] WAIT_FOR_DIALOG_INTERACTION
 27: 0x00EE [0x2B] Vaseradoul (ID: 17350961/0x0108C131) [7753*]:
    → "Could it be true...that a new leader has united the hordes?"
 28: 0x00F5 [0x23] WAIT_FOR_DIALOG_INTERACTION
 29: 0x00F6 [0x2B] Vaseradoul (ID: 17350961/0x0108C131) [7754*]:
    → "Do the beastmen really wish to war with us again?"
 30: 0x00FD [0x23] WAIT_FOR_DIALOG_INTERACTION
 31: 0x00FE [0x5B] LOAD_EXT_SCHEDULER: Load scheduler "thk2" with entities [Vaseradoul (ID: 17350961/0x0108C131), Vaseradoul (ID: 17350961/0x0108C131)], work=297*
 32: 0x010D [0x53] WAIT_SCHEDULER_TASK: Wait for scheduler "thk2" with entities [Vaseradoul (ID: 17350961/0x0108C131), Vaseradoul (ID: 17350961/0x0108C131)]
 33: 0x011A [0x45] LOAD_SCHEDULED_TASK: Load scheduler "sg14" with entities [LocalPlayer, LocalPlayer], work=[40*, 0*]
 34: 0x012B [0x5B] LOAD_EXT_SCHEDULER: Load scheduler "tlk0" with entities [Vaseradoul (ID: 17350961/0x0108C131), Vaseradoul (ID: 17350961/0x0108C131)], work=297*
 35: 0x013A [0x79] Beautefier (ID: 17350960/0x0108C130) looks at LocalPlayer (Basic look)
 36: 0x0144 [0x2B] Vaseradoul (ID: 17350961/0x0108C131) [7755*]:
    → "I will return to the chateau with these two. Be careful, friend."
 37: 0x014B [0x23] WAIT_FOR_DIALOG_INTERACTION
 38: 0x014C [0x1A] CALL_SUBROUTINE(address=0x01AE)
 39: 0x014F [0x1C] WAIT(15* ticks)
 40: 0x0152 [0x02] IF !(Work_Zone[8] == 1*) GOTO 0x0166
 41: 0x015A [0x47] UPDATE_PLAYER_POS(-156.533*, 79.975*, -10.000*, yaw=346.0°*)
 42: 0x0164 [0x47] WAIT_PLAYER_POS_UPDATE
 43: 0x0166 [0x45] LOAD_SCHEDULED_TASK: Load scheduler "sg08" with entities [LocalPlayer, LocalPlayer], work=[40*, 0*]
 44: 0x0177 [0x1A] CALL_SUBROUTINE(address=0x018D)
 45: 0x017A [0x55] WAIT_LOAD_SCHEDULER: Wait for scheduler "sg08" with entities [LocalPlayer, LocalPlayer], work=40*
 46: 0x0189 [0x46] CAMERA_CONTROL: Restore default settings
 47: 0x018B [0x21] END_EVENT
 48: 0x018C [0x00] END_REQSTACK()

SUBROUTINE_018D:
 49: 0x018D [0x45] LOAD_SCHEDULED_TASK: Load scheduler "fdi1" with entities [LocalPlayer, LocalPlayer], work=[200*, 0*]
 50: 0x019E [0x55] WAIT_LOAD_SCHEDULER: Wait for scheduler "fdi1" with entities [LocalPlayer, LocalPlayer], work=200*
 51: 0x01AD [0x1B] RETURN

SUBROUTINE_01AE:
 52: 0x01AE [0x45] LOAD_SCHEDULED_TASK: Load scheduler "fdo1" with entities [LocalPlayer, LocalPlayer], work=[200*, 0*]
 53: 0x01BF [0x55] WAIT_LOAD_SCHEDULER: Wait for scheduler "fdo1" with entities [LocalPlayer, LocalPlayer], work=200*
 54: 0x01CE [0x1B] RETURN
```
