# 17350963 - Rahal

## Common Data

| Field            | Value                     |
|------------------|---------------------------|
| Zone             | Ghelsba Outpost (ID: 140) |
| Block Size       | 676 bytes                 |
| Total Events     | 14                        |
| References Count | 40                        |

## List of Events

| Event ID                   | Entrypoint   |   Size |   Instructions |
|----------------------------|--------------|--------|----------------|
| [65535](#event-65535)      | 0x0000       |      1 |              1 |
| [32000](#event-32000)      | 0x0001       |     10 |              2 |
| [32001](#event-32001)      | 0x000B       |     10 |              2 |
| [65535.1](#event-655351)   | 0x0015       |     27 |              6 |
| [65535.2](#event-655352)   | 0x0030       |     23 |              7 |
| [65535.3](#event-655353)   | 0x0047       |     10 |              2 |
| [65535.4](#event-655354)   | 0x0051       |     15 |              5 |
| [65535.5](#event-655355)   | 0x0060       |     38 |              4 |
| [65535.6](#event-655356)   | 0x0086       |     12 |              4 |
| [65535.7](#event-655357)   | 0x0092       |     37 |              5 |
| [65535.8](#event-655358)   | 0x00B7       |    185 |             37 |
| [65535.9](#event-655359)   | 0x0170       |     15 |              5 |
| [65535.10](#event-6553510) | 0x017F       |     29 |              3 |
| [65535.11](#event-6553511) | 0x019C       |     29 |              3 |

## DAT References (imed_data)

|   Index | Hex Value   |   Dec Value |
|---------|-------------|-------------|
|       0 | 0xFFFD9A91  |  4294810257 |
|       1 | 0x13F4B     |       81739 |
|       2 | 0xFFFFD8F0  |  4294957296 |
|       3 | 0x0673      |        1651 |
|       4 | 0xFFFD37B5  |  4294784949 |
|       5 | 0xDA4F      |       55887 |
|       6 | 0xFFFFD6F5  |  4294956789 |
|       7 | 0x0600      |        1536 |
|       8 | 0x0050      |          80 |
|       9 | 0x0028      |          40 |
|      10 | 0xFFFD8A11  |  4294806033 |
|      11 | 0x135FB     |       79355 |
|      12 | 0xFFFFD417  |  4294956055 |
|      13 | 0x000D      |          13 |
|      14 | 0xFFFD7F31  |  4294803249 |
|      15 | 0x130D1     |       78033 |
|      16 | 0xFFFFD268  |  4294955624 |
|      17 | 0x074C      |        1868 |
|      18 | 0xFFFD73EE  |  4294800366 |
|      19 | 0x12D06     |       77062 |
|      20 | 0x0737      |        1847 |
|      21 | 0xFFFD6EFF  |  4294799103 |
|      22 | 0x12BD4     |       76756 |
|      23 | 0x0000      |           0 |
|      24 | 0xFFFD2D53  |  4294782291 |
|      25 | 0xD08D      |       53389 |
|      26 | 0xFFFFD684  |  4294956676 |
|      27 | 0x0003      |           3 |
|      28 | 0x0005      |           5 |
|      29 | 0x0001      |           1 |
|      30 | 0x0002      |           2 |
|      31 | 0x000A      |          10 |
|      32 | 0x0009      |           9 |
|      33 | 0x0046      |          70 |
|      34 | 0x008C      |         140 |
|      35 | 0x00D2      |         210 |
|      36 | 0xFFFD2968  |  4294781288 |
|      37 | 0xCBF0      |       52208 |
|      38 | 0xFFFFD71D  |  4294956829 |
|      39 | 0x0018      |          24 |

## Events

### Event 65535

#### Metadata

| Field        | Value   |
|--------------|---------|
| Entrypoint   | 0x0000  |
| Data Size    | 1 bytes |
| Instructions | 1       |

```
      00 01 02 03 04 05 06 07  08 09 0A 0B 0C 0D 0E 0F
      -- -- -- -- -- -- -- --  -- -- -- -- -- -- -- --
0000: 00                                                .               
```

#### Opcodes

```
  0: 0x0000 [0x00] END_REQSTACK()
```

### Event 32000

#### Metadata

| Field        | Value    |
|--------------|----------|
| Entrypoint   | 0x0001   |
| Data Size    | 10 bytes |
| Instructions | 2        |

```
      00 01 02 03 04 05 06 07  08 09 0A 0B 0C 0D 0E 0F
      -- -- -- -- -- -- -- --  -- -- -- -- -- -- -- --
0000:    37 00 80 01 80 02 80  03 80 00                  7.........     
```

#### Opcodes

```
  0: 0x0001 [0x37] UPDATE_EVENT_POSITION_AND_DIR: x=-157.039*, z=81.739*, y=-10.000*, direction=145.1째*
  1: 0x000A [0x00] END_REQSTACK()
```

### Event 32001

#### Metadata

| Field        | Value    |
|--------------|----------|
| Entrypoint   | 0x000B   |
| Data Size    | 10 bytes |
| Instructions | 2        |

```
      00 01 02 03 04 05 06 07  08 09 0A 0B 0C 0D 0E 0F
      -- -- -- -- -- -- -- --  -- -- -- -- -- -- -- --
0000:                                   37 04 80 05 80             7....
0010: 06 80 07 80 00                                    .....           
```

#### Opcodes

```
  0: 0x000B [0x37] UPDATE_EVENT_POSITION_AND_DIR: x=-182.347*, z=55.887*, y=-10.507*, direction=135.0째*
  1: 0x0014 [0x00] END_REQSTACK()
```

### Event 65535.1

#### Metadata

| Field        | Value    |
|--------------|----------|
| Entrypoint   | 0x0015   |
| Data Size    | 27 bytes |
| Instructions | 6        |

```
      00 01 02 03 04 05 06 07  08 09 0A 0B 0C 0D 0E 0F
      -- -- -- -- -- -- -- --  -- -- -- -- -- -- -- --
0010:                1C 08 80  32 09 80 79 00 F8 FF FF       ...2..y....
0020: 7F F0 FF FF 7F 1F 00 0A  80 0B 80 0C 80 1F 01 00  ................
```

#### Opcodes

```
  0: 0x0015 [0x1C] WAIT(80* ticks)
  1: 0x0018 [0x32] ExtData[1]->MainSpeed = 40* * 0.1
  2: 0x001B [0x79] EventEntity looks at LocalPlayer (Basic look)
  3: 0x0025 [0x1F] MOVE_ENTITY: EventEntity moves to X=-161.263*, Z=79.355*, Y=-11.241*
  4: 0x002D [0x1F] MOVE_ENTITY: Update entity position (mode=1)
  5: 0x002F [0x00] END_REQSTACK()
```

### Event 65535.2

#### Metadata

| Field        | Value    |
|--------------|----------|
| Entrypoint   | 0x0030   |
| Data Size    | 23 bytes |
| Instructions | 7        |

```
      00 01 02 03 04 05 06 07  08 09 0A 0B 0C 0D 0E 0F
      -- -- -- -- -- -- -- --  -- -- -- -- -- -- -- --
0030: 7B F8 FF FF 7F 32 0D 80  1F 00 0E 80 0F 80 10 80  {....2..........
0040: 1F 01 6F 39 11 80 00                              ..o9...         
```

#### Opcodes

```
  0: 0x0030 [0x7B] EventEntity stops talking
  1: 0x0035 [0x32] ExtData[1]->MainSpeed = 13* * 0.1
  2: 0x0038 [0x1F] MOVE_ENTITY: EventEntity moves to X=-164.047*, Z=78.033*, Y=-11.672*
  3: 0x0040 [0x1F] MOVE_ENTITY: Update entity position (mode=1)
  4: 0x0042 [0x6F] WAIT_FRAME_DELAY: Yield until WaitTime reaches zero
  5: 0x0043 [0x39] SET_ENTITY_DIRECTION(direction=10.3째*)
  6: 0x0046 [0x00] END_REQSTACK()
```

### Event 65535.3

#### Metadata

| Field        | Value    |
|--------------|----------|
| Entrypoint   | 0x0047   |
| Data Size    | 10 bytes |
| Instructions | 2        |

```
      00 01 02 03 04 05 06 07  08 09 0A 0B 0C 0D 0E 0F
      -- -- -- -- -- -- -- --  -- -- -- -- -- -- -- --
0040:                      37  12 80 13 80 10 80 14 80         7........
0050: 00                                                .               
```

#### Opcodes

```
  0: 0x0047 [0x37] UPDATE_EVENT_POSITION_AND_DIR: x=-166.930*, z=77.062*, y=-11.672*, direction=162.3째*
  1: 0x0050 [0x00] END_REQSTACK()
```

### Event 65535.4

#### Metadata

| Field        | Value    |
|--------------|----------|
| Entrypoint   | 0x0051   |
| Data Size    | 15 bytes |
| Instructions | 5        |

```
      00 01 02 03 04 05 06 07  08 09 0A 0B 0C 0D 0E 0F
      -- -- -- -- -- -- -- --  -- -- -- -- -- -- -- --
0050:    32 0D 80 1F 00 15 80  16 80 10 80 1F 01 6F 00   2............o.
```

#### Opcodes

```
  0: 0x0051 [0x32] ExtData[1]->MainSpeed = 13* * 0.1
  1: 0x0054 [0x1F] MOVE_ENTITY: EventEntity moves to X=-168.193*, Z=76.756*, Y=-11.672*
  2: 0x005C [0x1F] MOVE_ENTITY: Update entity position (mode=1)
  3: 0x005E [0x6F] WAIT_FRAME_DELAY: Yield until WaitTime reaches zero
  4: 0x005F [0x00] END_REQSTACK()
```

### Event 65535.5

#### Metadata

| Field        | Value    |
|--------------|----------|
| Entrypoint   | 0x0060   |
| Data Size    | 38 bytes |
| Instructions | 4        |

```
      00 01 02 03 04 05 06 07  08 09 0A 0B 0C 0D 0E 0F
      -- -- -- -- -- -- -- --  -- -- -- -- -- -- -- --
0060: 7B F8 FF FF 7F 45 09 80  F0 FF FF 7F F0 FF FF 7F  {....E..........
0070: 73 33 30 33 17 80 5B 0D  80 F8 FF FF 7F F8 FF FF  s303..[.........
0080: 7F 64 6D 67 31 00                                 .dmg1.          
```

#### Opcodes

```
  0: 0x0060 [0x7B] EventEntity stops talking
  1: 0x0065 [0x45] LOAD_SCHEDULED_TASK: Load scheduler "s303" with entities [LocalPlayer, LocalPlayer], work=[40*, 0*]
  2: 0x0076 [0x5B] LOAD_EXT_SCHEDULER: Load scheduler "dmg1" with entities [EventEntity, EventEntity], work=13*
  3: 0x0085 [0x00] END_REQSTACK()
```

### Event 65535.6

#### Metadata

| Field        | Value    |
|--------------|----------|
| Entrypoint   | 0x0086   |
| Data Size    | 12 bytes |
| Instructions | 4        |

```
      00 01 02 03 04 05 06 07  08 09 0A 0B 0C 0D 0E 0F
      -- -- -- -- -- -- -- --  -- -- -- -- -- -- -- --
0080:                   1F 00  18 80 19 80 1A 80 1F 01        ..........
0090: 6F 00                                             o.              
```

#### Opcodes

```
  0: 0x0086 [0x1F] MOVE_ENTITY: EventEntity moves to X=-185.005*, Z=53.389*, Y=-10.620*
  1: 0x008E [0x1F] MOVE_ENTITY: Update entity position (mode=1)
  2: 0x0090 [0x6F] WAIT_FRAME_DELAY: Yield until WaitTime reaches zero
  3: 0x0091 [0x00] END_REQSTACK()
```

### Event 65535.7

#### Metadata

| Field        | Value    |
|--------------|----------|
| Entrypoint   | 0x0092   |
| Data Size    | 37 bytes |
| Instructions | 5        |

```
      00 01 02 03 04 05 06 07  08 09 0A 0B 0C 0D 0E 0F
      -- -- -- -- -- -- -- --  -- -- -- -- -- -- -- --
0090:       03 00 00 1B 80 1A  DC 00 66 01 00 F8 FF FF    ........f.....
00A0: 7F F8 FF FF 7F 73 68 61  30 53 F8 FF FF 7F F8 FF  .....sha0S......
00B0: FF 7F 73 68 61 30 00                              ..sha0.         
```

#### Opcodes

```
  0: 0x0092 [0x03] ExtData[1]->WorkLocal[0] = 3*
  1: 0x0097 [0x1A] CALL_SUBROUTINE(address=0x00DC)
  2: 0x009A [0x66] LOAD_EXT_SCHEDULER_MAIN: Load scheduler "sha0" with entities [EventEntity, EventEntity], work=ExtData[1]->WorkLocal[1]
  3: 0x00A9 [0x53] WAIT_SCHEDULER_TASK: Wait for scheduler "sha0" with entities [EventEntity, EventEntity]
  4: 0x00B6 [0x00] END_REQSTACK()
```

### Event 65535.8

#### Metadata

| Field        | Value     |
|--------------|-----------|
| Entrypoint   | 0x00B7    |
| Data Size    | 185 bytes |
| Instructions | 13        |

```
      00 01 02 03 04 05 06 07  08 09 0A 0B 0C 0D 0E 0F
      -- -- -- -- -- -- -- --  -- -- -- -- -- -- -- --
00B0:                      03  00 00 1B 80 1A DC 00 66         ........f
00C0: 01 00 F8 FF FF 7F F8 FF  FF 7F 73 68 61 31 53 F8  ..........sha1S.
00D0: FF FF 7F F8 FF FF 7F 73  68 61 31 00 03 01 00 00  .......sha1.....
00E0: 00 02 01 00 1C 80 05 F1  00 08 01 00 1D 80 01 F6  ................
00F0: 00 08 01 00 1E 80 14 01  00 1F 80 07 01 00 20 80  .............. .
0100: 1B 03 01 00 00 00 02 01  00 1C 80 05 16 01 08 01  ................
0110: 00 1D 80 01 1B 01 08 01  00 1E 80 14 01 00 1F 80  ................
0120: 07 01 00 21 80 1B 03 01  00 00 00 02 01 00 1C 80  ...!............
0130: 05 3B 01 08 01 00 1D 80  01 40 01 08 01 00 1E 80  .;.......@......
0140: 14 01 00 1F 80 07 01 00  22 80 1B 03 01 00 00 00  ........".......
0150: 02 01 00 1C 80 05 60 01  08 01 00 1D 80 01 65 01  ......`.......e.
0160: 08 01 00 1E 80 14 01 00  1F 80 07 01 00 23 80 1B  .............#..
```

#### Opcodes

```
  0: 0x00B7 [0x03] ExtData[1]->WorkLocal[0] = 3*
  1: 0x00BC [0x1A] CALL_SUBROUTINE(address=0x00DC)
  2: 0x00BF [0x66] LOAD_EXT_SCHEDULER_MAIN: Load scheduler "sha1" with entities [EventEntity, EventEntity], work=ExtData[1]->WorkLocal[1]
  3: 0x00CE [0x53] WAIT_SCHEDULER_TASK: Wait for scheduler "sha1" with entities [EventEntity, EventEntity]
  4: 0x00DB [0x00] END_REQSTACK()

SUBROUTINE_00DC:
  5: 0x00DC [0x03] ExtData[1]->WorkLocal[1] = ExtData[1]->WorkLocal[0]
  6: 0x00E1 [0x02] IF !(ExtData[1]->WorkLocal[1] > 5*) GOTO 0x00F1
  7: 0x00E9 [0x08] ExtData[1]->WorkLocal[1] -= 1*
  8: 0x00EE [0x01] GOTO 0x00F6
  9: 0x00F1 [0x08] ExtData[1]->WorkLocal[1] -= 2*

SUBROUTINE_00F6:
 10: 0x00F6 [0x14] ExtData[1]->WorkLocal[1] *= 10*
 11: 0x00FB [0x07] ExtData[1]->WorkLocal[1] += 9*
 12: 0x0100 [0x1B] RETURN
```

#### Data or dead code:

```
# Dead code (unreachable instructions):
     0x0101 [0x03] ExtData[1]->WorkLocal[1] = ExtData[1]->WorkLocal[0]
     0x0106 [0x02] IF !(ExtData[1]->WorkLocal[1] > 5*) GOTO 0x0116
     0x010E [0x08] ExtData[1]->WorkLocal[1] -= 1*
     0x0113 [0x01] GOTO 0x011B
     0x0116 [0x08] ExtData[1]->WorkLocal[1] -= 2*
     0x011B [0x14] ExtData[1]->WorkLocal[1] *= 10*
     0x0120 [0x07] ExtData[1]->WorkLocal[1] += 70*
     0x0125 [0x1B] RETURN
     0x0126 [0x03] ExtData[1]->WorkLocal[1] = ExtData[1]->WorkLocal[0]
     0x012B [0x02] IF !(ExtData[1]->WorkLocal[1] > 5*) GOTO 0x013B
     0x0133 [0x08] ExtData[1]->WorkLocal[1] -= 1*
     0x0138 [0x01] GOTO 0x0140
     0x013B [0x08] ExtData[1]->WorkLocal[1] -= 2*
     0x0140 [0x14] ExtData[1]->WorkLocal[1] *= 10*
     0x0145 [0x07] ExtData[1]->WorkLocal[1] += 140*
     0x014A [0x1B] RETURN
     0x014B [0x03] ExtData[1]->WorkLocal[1] = ExtData[1]->WorkLocal[0]
     0x0150 [0x02] IF !(ExtData[1]->WorkLocal[1] > 5*) GOTO 0x0160
     0x0158 [0x08] ExtData[1]->WorkLocal[1] -= 1*
     0x015D [0x01] GOTO 0x0165
     0x0160 [0x08] ExtData[1]->WorkLocal[1] -= 2*
     0x0165 [0x14] ExtData[1]->WorkLocal[1] *= 10*
     0x016A [0x07] ExtData[1]->WorkLocal[1] += 210*
     0x016F [0x1B] RETURN
```

### Event 65535.9

#### Metadata

| Field        | Value    |
|--------------|----------|
| Entrypoint   | 0x0170   |
| Data Size    | 15 bytes |
| Instructions | 5        |

```
      00 01 02 03 04 05 06 07  08 09 0A 0B 0C 0D 0E 0F
      -- -- -- -- -- -- -- --  -- -- -- -- -- -- -- --
0170: 32 09 80 1F 00 24 80 25  80 26 80 1F 01 6F 00     2....$.%.&...o. 
```

#### Opcodes

```
  0: 0x0170 [0x32] ExtData[1]->MainSpeed = 40* * 0.1
  1: 0x0173 [0x1F] MOVE_ENTITY: EventEntity moves to X=-186.008*, Z=52.208*, Y=-10.467*
  2: 0x017B [0x1F] MOVE_ENTITY: Update entity position (mode=1)
  3: 0x017D [0x6F] WAIT_FRAME_DELAY: Yield until WaitTime reaches zero
  4: 0x017E [0x00] END_REQSTACK()
```

### Event 65535.10

#### Metadata

| Field        | Value    |
|--------------|----------|
| Entrypoint   | 0x017F   |
| Data Size    | 29 bytes |
| Instructions | 3        |

```
      00 01 02 03 04 05 06 07  08 09 0A 0B 0C 0D 0E 0F
      -- -- -- -- -- -- -- --  -- -- -- -- -- -- -- --
0170:                                               66                 f
0180: 27 80 F8 FF FF 7F F8 FF  FF 7F 31 72 64 79 53 F8  '.........1rdyS.
0190: FF FF 7F F8 FF FF 7F 31  72 64 79 00              .......1rdy.    
```

#### Opcodes

```
  0: 0x017F [0x66] LOAD_EXT_SCHEDULER_MAIN: Load scheduler "1rdy" with entities [EventEntity, EventEntity], work=24*
  1: 0x018E [0x53] WAIT_SCHEDULER_TASK: Wait for scheduler "1rdy" with entities [EventEntity, EventEntity]
  2: 0x019B [0x00] END_REQSTACK()
```

### Event 65535.11

#### Metadata

| Field        | Value    |
|--------------|----------|
| Entrypoint   | 0x019C   |
| Data Size    | 29 bytes |
| Instructions | 3        |

```
      00 01 02 03 04 05 06 07  08 09 0A 0B 0C 0D 0E 0F
      -- -- -- -- -- -- -- --  -- -- -- -- -- -- -- --
0190:                                      66 27 80 F8              f'..
01A0: FF FF 7F F8 FF FF 7F 31  72 74 6E 53 F8 FF FF 7F  .......1rtnS....
01B0: F8 FF FF 7F 31 72 74 6E  00                       ....1rtn.       
```

#### Opcodes

```
  0: 0x019C [0x66] LOAD_EXT_SCHEDULER_MAIN: Load scheduler "1rtn" with entities [EventEntity, EventEntity], work=24*
  1: 0x01AB [0x53] WAIT_SCHEDULER_TASK: Wait for scheduler "1rtn" with entities [EventEntity, EventEntity]
  2: 0x01B8 [0x00] END_REQSTACK()
```
