# 17350988

## Common Data

| Field            | Value                     |
|------------------|---------------------------|
| Zone             | Ghelsba Outpost (ID: 140) |
| Block Size       | 196 bytes                 |
| Total Events     | 6                         |
| References Count | 18                        |

## List of Events

| Event ID                 | Entrypoint   |   Size |   Instructions |
|--------------------------|--------------|--------|----------------|
| [65535](#event-65535)    | 0x0000       |      1 |              1 |
| [32000](#event-32000)    | 0x0001       |     10 |              2 |
| [65535.1](#event-655351) | 0x000B       |     31 |              9 |
| [32004](#event-32004)    | 0x002A       |     10 |              2 |
| [65535.2](#event-655352) | 0x0034       |     14 |              4 |
| [65535.3](#event-655353) | 0x0042       |     15 |              5 |

## DAT References (imed_data)

|   Index | Hex Value   |   Dec Value |
|---------|-------------|-------------|
|       0 | 0xFFFD1C6A  |  4294777962 |
|       1 | 0xBC3D      |       48189 |
|       2 | 0xFFFFD8D4  |  4294957268 |
|       3 | 0x0640      |        1600 |
|       4 | 0x000D      |          13 |
|       5 | 0xFFFD1981  |  4294777217 |
|       6 | 0xB455      |       46165 |
|       7 | 0xFFFFD8A2  |  4294957218 |
|       8 | 0x000F      |          15 |
|       9 | 0x0032      |          50 |
|      10 | 0x0E22      |        3618 |
|      11 | 0xFFFD0EE0  |  4294774496 |
|      12 | 0xA765      |       42853 |
|      13 | 0xFFFFD8F0  |  4294957296 |
|      14 | 0x0096      |         150 |
|      15 | 0xFFFD1587  |  4294776199 |
|      16 | 0xAFA2      |       44962 |
|      17 | 0xFFFFD8CD  |  4294957261 |

## Events

### Event 65535

#### Metadata

| Field        | Value   |
|--------------|---------|
| Entrypoint   | 0x0000  |
| Data Size    | 1 bytes |
| Instructions | 1       |

```
      00 01 02 03 04 05 06 07  08 09 0A 0B 0C 0D 0E 0F
      -- -- -- -- -- -- -- --  -- -- -- -- -- -- -- --
0000: 00                                                .               
```

#### Opcodes

```
  0: 0x0000 [0x00] END_REQSTACK()
```

### Event 32000

#### Metadata

| Field        | Value    |
|--------------|----------|
| Entrypoint   | 0x0001   |
| Data Size    | 10 bytes |
| Instructions | 2        |

```
      00 01 02 03 04 05 06 07  08 09 0A 0B 0C 0D 0E 0F
      -- -- -- -- -- -- -- --  -- -- -- -- -- -- -- --
0000:    37 00 80 01 80 02 80  03 80 00                  7.........     
```

#### Opcodes

```
  0: 0x0001 [0x37] UPDATE_EVENT_POSITION_AND_DIR: x=-189.334*, z=48.189*, y=-10.028*, direction=140.6°*
  1: 0x000A [0x00] END_REQSTACK()
```

### Event 65535.1

#### Metadata

| Field        | Value    |
|--------------|----------|
| Entrypoint   | 0x000B   |
| Data Size    | 31 bytes |
| Instructions | 9        |

```
      00 01 02 03 04 05 06 07  08 09 0A 0B 0C 0D 0E 0F
      -- -- -- -- -- -- -- --  -- -- -- -- -- -- -- --
0000:                                   32 04 80 1F 00             2....
0010: 05 80 06 80 07 80 1F 01  6F 1C 08 80 5E 61 74 31  ........o...^at1
0020: 30 1C 09 80 5E 62 74 6C  30 00                    0...^btl0.      
```

#### Opcodes

```
  0: 0x000B [0x32] ExtData[1]->MainSpeed = 13* * 0.1
  1: 0x000E [0x1F] MOVE_ENTITY: EventEntity moves to X=-190.079*, Z=46.165*, Y=-10.078*
  2: 0x0016 [0x1F] MOVE_ENTITY: Update entity position (mode=1)
  3: 0x0018 [0x6F] WAIT_FRAME_DELAY: Yield until WaitTime reaches zero
  4: 0x0019 [0x1C] WAIT(15* ticks)
  5: 0x001C [0x5E] EventEntity goes idle (kills current action) (animation: "at10")
  6: 0x0021 [0x1C] WAIT(50* ticks)
  7: 0x0024 [0x5E] EventEntity goes idle (kills current action) (animation: "btl0")
  8: 0x0029 [0x00] END_REQSTACK()
```

### Event 32004

#### Metadata

| Field        | Value    |
|--------------|----------|
| Entrypoint   | 0x002A   |
| Data Size    | 10 bytes |
| Instructions | 2        |

```
      00 01 02 03 04 05 06 07  08 09 0A 0B 0C 0D 0E 0F
      -- -- -- -- -- -- -- --  -- -- -- -- -- -- -- --
0020:                                37 00 80 01 80 02            7.....
0030: 80 0A 80 00                                       ....            
```

#### Opcodes

```
  0: 0x002A [0x37] UPDATE_EVENT_POSITION_AND_DIR: x=-189.334*, z=48.189*, y=-10.028*, direction=318.0°*
  1: 0x0033 [0x00] END_REQSTACK()
```

### Event 65535.2

#### Metadata

| Field        | Value    |
|--------------|----------|
| Entrypoint   | 0x0034   |
| Data Size    | 14 bytes |
| Instructions | 4        |

```
      00 01 02 03 04 05 06 07  08 09 0A 0B 0C 0D 0E 0F
      -- -- -- -- -- -- -- --  -- -- -- -- -- -- -- --
0030:             1F 00 0B 80  0C 80 0D 80 1F 01 1C 0E      ............
0040: 80 00                                             ..              
```

#### Opcodes

```
  0: 0x0034 [0x1F] MOVE_ENTITY: EventEntity moves to X=-192.800*, Z=42.853*, Y=-10.000*
  1: 0x003C [0x1F] MOVE_ENTITY: Update entity position (mode=1)
  2: 0x003E [0x1C] WAIT(150* ticks)
  3: 0x0041 [0x00] END_REQSTACK()
```

### Event 65535.3

#### Metadata

| Field        | Value    |
|--------------|----------|
| Entrypoint   | 0x0042   |
| Data Size    | 15 bytes |
| Instructions | 5        |

```
      00 01 02 03 04 05 06 07  08 09 0A 0B 0C 0D 0E 0F
      -- -- -- -- -- -- -- --  -- -- -- -- -- -- -- --
0040:       32 04 80 1F 00 0F  80 10 80 11 80 1F 01 6F    2............o
0050: 00                                                .               
```

#### Opcodes

```
  0: 0x0042 [0x32] ExtData[1]->MainSpeed = 13* * 0.1
  1: 0x0045 [0x1F] MOVE_ENTITY: EventEntity moves to X=-191.097*, Z=44.962*, Y=-10.035*
  2: 0x004D [0x1F] MOVE_ENTITY: Update entity position (mode=1)
  3: 0x004F [0x6F] WAIT_FRAME_DELAY: Yield until WaitTime reaches zero
  4: 0x0050 [0x00] END_REQSTACK()
```
