# 17350962 - Cyranuce

## Common Data

| Field            | Value                     |
|------------------|---------------------------|
| Zone             | Ghelsba Outpost (ID: 140) |
| Block Size       | 688 bytes                 |
| Total Events     | 8                         |
| References Count | 31                        |

## List of Events

| Event ID                 | Entrypoint   |   Size |   Instructions |
|--------------------------|--------------|--------|----------------|
| [65535](#event-65535)    | 0x0000       |      1 |              1 |
| [32000](#event-32000)    | 0x0001       |     10 |              2 |
| [32001](#event-32001)    | 0x000B       |     16 |              3 |
| [65535.1](#event-655351) | 0x001B       |    182 |             16 |
| [65535.2](#event-655352) | 0x00D1       |     50 |              6 |
| [65535.3](#event-655353) | 0x0103       |    211 |             39 |
| [65535.4](#event-655354) | 0x01D6       |     16 |              2 |
| [65535.5](#event-655355) | 0x01E6       |     27 |              3 |

## DAT References (imed_data)

|   Index | Hex Value   |   Dec Value |
|---------|-------------|-------------|
|       0 | 0xFFFD6801  |  4294797313 |
|       1 | 0x12A32     |       76338 |
|       2 | 0xFFFFD268  |  4294955624 |
|       3 | 0x0761      |        1889 |
|       4 | 0xFFFD2A9B  |  4294781595 |
|       5 | 0xCF60      |       53088 |
|       6 | 0xFFFFD6CA  |  4294956746 |
|       7 | 0x0B32      |        2866 |
|       8 | 0x00C8      |         200 |
|       9 | 0x0000      |           0 |
|      10 | 0x0018      |          24 |
|      11 | 0x000A      |          10 |
|      12 | 0x0028      |          40 |
|      13 | 0x0014      |          20 |
|      14 | 0x001E      |          30 |
|      15 | 0x0096      |         150 |
|      16 | 0xFFFD2BAB  |  4294781867 |
|      17 | 0xBD7E      |       48510 |
|      18 | 0xFFFFD868  |  4294957160 |
|      19 | 0x0644      |        1604 |
|      20 | 0x0080      |         128 |
|      21 | 0x0003      |           3 |
|      22 | 0x00D2      |         210 |
|      23 | 0x00B4      |         180 |
|      24 | 0x0005      |           5 |
|      25 | 0x0001      |           1 |
|      26 | 0x0002      |           2 |
|      27 | 0x0009      |           9 |
|      28 | 0x0046      |          70 |
|      29 | 0x008C      |         140 |
|      30 | 0x000E      |          14 |

## Events

### Event 65535

#### Metadata

| Field        | Value   |
|--------------|---------|
| Entrypoint   | 0x0000  |
| Data Size    | 1 bytes |
| Instructions | 1       |

```
      00 01 02 03 04 05 06 07  08 09 0A 0B 0C 0D 0E 0F
      -- -- -- -- -- -- -- --  -- -- -- -- -- -- -- --
0000: 00                                                .               
```

#### Opcodes

```
  0: 0x0000 [0x00] END_REQSTACK()
```

### Event 32000

#### Metadata

| Field        | Value    |
|--------------|----------|
| Entrypoint   | 0x0001   |
| Data Size    | 10 bytes |
| Instructions | 2        |

```
      00 01 02 03 04 05 06 07  08 09 0A 0B 0C 0D 0E 0F
      -- -- -- -- -- -- -- --  -- -- -- -- -- -- -- --
0000:    37 00 80 01 80 02 80  03 80 00                  7.........     
```

#### Opcodes

```
  0: 0x0001 [0x37] UPDATE_EVENT_POSITION_AND_DIR: x=-169.983*, z=76.338*, y=-11.672*, direction=166.0°*
  1: 0x000A [0x00] END_REQSTACK()
```

### Event 32001

#### Metadata

| Field        | Value    |
|--------------|----------|
| Entrypoint   | 0x000B   |
| Data Size    | 16 bytes |
| Instructions | 3        |

```
      00 01 02 03 04 05 06 07  08 09 0A 0B 0C 0D 0E 0F
      -- -- -- -- -- -- -- --  -- -- -- -- -- -- -- --
0000:                                   92 01 F8 FF FF             .....
0010: 7F 37 04 80 05 80 06 80  07 80 00                 .7.........     
```

#### Opcodes

```
  0: 0x000B [0x92] EventEntity->Render.Flags3 ^= 0x01
  1: 0x0011 [0x37] UPDATE_EVENT_POSITION_AND_DIR: x=-185.701*, z=53.088*, y=-10.550*, direction=251.9°*
  2: 0x001A [0x00] END_REQSTACK()
```

### Event 65535.1

#### Metadata

| Field        | Value     |
|--------------|-----------|
| Entrypoint   | 0x001B    |
| Data Size    | 182 bytes |
| Instructions | 16        |

```
      00 01 02 03 04 05 06 07  08 09 0A 0B 0C 0D 0E 0F
      -- -- -- -- -- -- -- --  -- -- -- -- -- -- -- --
0010:                                   45 08 80 34 C1             E..4.
0020: 08 01 34 C1 08 01 00 FE  FE FE 09 80 66 0A 80 F8  ..4.........f...
0030: FF FF 7F F8 FF FF 7F 31  72 64 79 1C 0B 80 45 0C  .......1rdy...E.
0040: 80 F0 FF FF 7F F0 FF FF  7F 72 30 30 36 09 80 55  .........r006..U
0050: 0C 80 F0 FF FF 7F F0 FF  FF 7F 72 30 30 36 1C 0D  ..........r006..
0060: 80 45 0C 80 F0 FF FF 7F  F0 FF FF 7F 72 30 30 35  .E..........r005
0070: 09 80 45 08 80 34 C1 08  01 34 C1 08 01 62 6C 6F  ..E..4...4...blo
0080: 6E 09 80 66 0A 80 F8 FF  FF 7F F8 FF FF 7F 31 73  n..f..........1s
0090: 6C 68 1C 0C 80 27 03 33  C1 08 01 07 45 0C 80 F0  lh...'.3....E...
00A0: FF FF 7F F0 FF FF 7F 73  33 30 32 09 80 55 0C 80  .......s302..U..
00B0: F0 FF FF 7F F0 FF FF 7F  72 30 30 35 45 08 80 34  ........r005E..4
00C0: C1 08 01 34 C1 08 01 62  6C 6F 66 09 80 1C 0E 80  ...4...blof.....
00D0: 00                                                .               
```

#### Opcodes

```
  0: 0x001B [0x45] LOAD_SCHEDULED_TASK: Load scheduler 0xFEFEFE00 with entities [Unnamed NPC (ID: 17350964/0x0108C134), Unnamed NPC (ID: 17350964/0x0108C134)], work=[200*, 0*]
  1: 0x002C [0x66] LOAD_EXT_SCHEDULER_MAIN: Load scheduler "1rdy" with entities [EventEntity, EventEntity], work=24*
  2: 0x003B [0x1C] WAIT(10* ticks)
  3: 0x003E [0x45] LOAD_SCHEDULED_TASK: Load scheduler "r006" with entities [LocalPlayer, LocalPlayer], work=[40*, 0*]
  4: 0x004F [0x55] WAIT_LOAD_SCHEDULER: Wait for scheduler "r006" with entities [LocalPlayer, LocalPlayer], work=40*
  5: 0x005E [0x1C] WAIT(20* ticks)
  6: 0x0061 [0x45] LOAD_SCHEDULED_TASK: Load scheduler "r005" with entities [LocalPlayer, LocalPlayer], work=[40*, 0*]
  7: 0x0072 [0x45] LOAD_SCHEDULED_TASK: Load scheduler "blon" with entities [Unnamed NPC (ID: 17350964/0x0108C134), Unnamed NPC (ID: 17350964/0x0108C134)], work=[200*, 0*]
  8: 0x0083 [0x66] LOAD_EXT_SCHEDULER_MAIN: Load scheduler "1slh" with entities [EventEntity, EventEntity], work=24*
  9: 0x0092 [0x1C] WAIT(40* ticks)
 10: 0x0095 [0x27] REQ_SET(priority=0x03, entity_id=Rahal (ID: 17350963/0x0108C133), tag_num=0x07)
 11: 0x009C [0x45] LOAD_SCHEDULED_TASK: Load scheduler "s302" with entities [LocalPlayer, LocalPlayer], work=[40*, 0*]
 12: 0x00AD [0x55] WAIT_LOAD_SCHEDULER: Wait for scheduler "r005" with entities [LocalPlayer, LocalPlayer], work=40*
 13: 0x00BC [0x45] LOAD_SCHEDULED_TASK: Load scheduler "blof" with entities [Unnamed NPC (ID: 17350964/0x0108C134), Unnamed NPC (ID: 17350964/0x0108C134)], work=[200*, 0*]
 14: 0x00CD [0x1C] WAIT(30* ticks)
 15: 0x00D0 [0x00] END_REQSTACK()
```

### Event 65535.2

#### Metadata

| Field        | Value    |
|--------------|----------|
| Entrypoint   | 0x00D1   |
| Data Size    | 50 bytes |
| Instructions | 6        |

```
      00 01 02 03 04 05 06 07  08 09 0A 0B 0C 0D 0E 0F
      -- -- -- -- -- -- -- --  -- -- -- -- -- -- -- --
00D0:    66 0A 80 F8 FF FF 7F  F8 FF FF 7F 31 72 74 6E   f..........1rtn
00E0: 53 F8 FF FF 7F F8 FF FF  7F 31 72 74 6E 1C 0F 80  S........1rtn...
00F0: 37 10 80 11 80 12 80 13  80 6C F8 FF FF 7F 14 80  7........l......
0100: 09 80 00                                          ...             
```

#### Opcodes

```
  0: 0x00D1 [0x66] LOAD_EXT_SCHEDULER_MAIN: Load scheduler "1rtn" with entities [EventEntity, EventEntity], work=24*
  1: 0x00E0 [0x53] WAIT_SCHEDULER_TASK: Wait for scheduler "1rtn" with entities [EventEntity, EventEntity]
  2: 0x00ED [0x1C] WAIT(150* ticks)
  3: 0x00F0 [0x37] UPDATE_EVENT_POSITION_AND_DIR: x=-185.429*, z=48.510*, y=-10.136*, direction=141.0°*
  4: 0x00F9 [0x6C] FADE_ENTITY_COLOR(entity_id=EventEntity, end_alpha=128*, fade_time=0*)
  5: 0x0102 [0x00] END_REQSTACK()
```

### Event 65535.3

#### Metadata

| Field        | Value     |
|--------------|-----------|
| Entrypoint   | 0x0103    |
| Data Size    | 211 bytes |
| Instructions | 15        |

```
      00 01 02 03 04 05 06 07  08 09 0A 0B 0C 0D 0E 0F
      -- -- -- -- -- -- -- --  -- -- -- -- -- -- -- --
0100:          03 00 00 15 80  1A 42 01 66 01 00 F8 FF     ......B.f....
0110: FF 7F F8 FF FF 7F 73 69  72 30 53 F8 FF FF 7F F8  ......sir0S.....
0120: FF FF 7F 73 69 72 30 45  16 80 F0 FF FF 7F F0 FF  ...sir0E........
0130: FF 7F 68 69 64 65 09 80  6C F8 FF FF 7F 09 80 17  ..hide..l.......
0140: 80 00 03 01 00 00 00 02  01 00 18 80 05 57 01 08  .............W..
0150: 01 00 19 80 01 5C 01 08  01 00 1A 80 14 01 00 0B  .....\..........
0160: 80 07 01 00 1B 80 1B 03  01 00 00 00 02 01 00 18  ................
0170: 80 05 7C 01 08 01 00 19  80 01 81 01 08 01 00 1A  ..|.............
0180: 80 14 01 00 0B 80 07 01  00 1C 80 1B 03 01 00 00  ................
0190: 00 02 01 00 18 80 05 A1  01 08 01 00 19 80 01 A6  ................
01A0: 01 08 01 00 1A 80 14 01  00 0B 80 07 01 00 1D 80  ................
01B0: 1B 03 01 00 00 00 02 01  00 18 80 05 C6 01 08 01  ................
01C0: 00 19 80 01 CB 01 08 01  00 1A 80 14 01 00 0B 80  ................
01D0: 07 01 00 16 80 1B                                 ......          
```

#### Opcodes

```
  0: 0x0103 [0x03] ExtData[1]->WorkLocal[0] = 3*
  1: 0x0108 [0x1A] CALL_SUBROUTINE(address=0x0142)
  2: 0x010B [0x66] LOAD_EXT_SCHEDULER_MAIN: Load scheduler "sir0" with entities [EventEntity, EventEntity], work=ExtData[1]->WorkLocal[1]
  3: 0x011A [0x53] WAIT_SCHEDULER_TASK: Wait for scheduler "sir0" with entities [EventEntity, EventEntity]
  4: 0x0127 [0x45] LOAD_SCHEDULED_TASK: Load scheduler "hide" with entities [LocalPlayer, LocalPlayer], work=[210*, 0*]
  5: 0x0138 [0x6C] FADE_ENTITY_COLOR(entity_id=EventEntity, end_alpha=0*, fade_time=180*)
  6: 0x0141 [0x00] END_REQSTACK()

SUBROUTINE_0142:
  7: 0x0142 [0x03] ExtData[1]->WorkLocal[1] = ExtData[1]->WorkLocal[0]
  8: 0x0147 [0x02] IF !(ExtData[1]->WorkLocal[1] > 5*) GOTO 0x0157
  9: 0x014F [0x08] ExtData[1]->WorkLocal[1] -= 1*
 10: 0x0154 [0x01] GOTO 0x015C
 11: 0x0157 [0x08] ExtData[1]->WorkLocal[1] -= 2*

SUBROUTINE_015C:
 12: 0x015C [0x14] ExtData[1]->WorkLocal[1] *= 10*
 13: 0x0161 [0x07] ExtData[1]->WorkLocal[1] += 9*
 14: 0x0166 [0x1B] RETURN
```

#### Data or dead code:

```
# Dead code (unreachable instructions):
     0x0167 [0x03] ExtData[1]->WorkLocal[1] = ExtData[1]->WorkLocal[0]
     0x016C [0x02] IF !(ExtData[1]->WorkLocal[1] > 5*) GOTO 0x017C
     0x0174 [0x08] ExtData[1]->WorkLocal[1] -= 1*
     0x0179 [0x01] GOTO 0x0181
     0x017C [0x08] ExtData[1]->WorkLocal[1] -= 2*
     0x0181 [0x14] ExtData[1]->WorkLocal[1] *= 10*
     0x0186 [0x07] ExtData[1]->WorkLocal[1] += 70*
     0x018B [0x1B] RETURN
     0x018C [0x03] ExtData[1]->WorkLocal[1] = ExtData[1]->WorkLocal[0]
     0x0191 [0x02] IF !(ExtData[1]->WorkLocal[1] > 5*) GOTO 0x01A1
     0x0199 [0x08] ExtData[1]->WorkLocal[1] -= 1*
     0x019E [0x01] GOTO 0x01A6
     0x01A1 [0x08] ExtData[1]->WorkLocal[1] -= 2*
     0x01A6 [0x14] ExtData[1]->WorkLocal[1] *= 10*
     0x01AB [0x07] ExtData[1]->WorkLocal[1] += 140*
     0x01B0 [0x1B] RETURN
     0x01B1 [0x03] ExtData[1]->WorkLocal[1] = ExtData[1]->WorkLocal[0]
     0x01B6 [0x02] IF !(ExtData[1]->WorkLocal[1] > 5*) GOTO 0x01C6
     0x01BE [0x08] ExtData[1]->WorkLocal[1] -= 1*
     0x01C3 [0x01] GOTO 0x01CB
     0x01C6 [0x08] ExtData[1]->WorkLocal[1] -= 2*
     0x01CB [0x14] ExtData[1]->WorkLocal[1] *= 10*
     0x01D0 [0x07] ExtData[1]->WorkLocal[1] += 210*
     0x01D5 [0x1B] RETURN
```

### Event 65535.4

#### Metadata

| Field        | Value    |
|--------------|----------|
| Entrypoint   | 0x01D6   |
| Data Size    | 16 bytes |
| Instructions | 2        |

```
      00 01 02 03 04 05 06 07  08 09 0A 0B 0C 0D 0E 0F
      -- -- -- -- -- -- -- --  -- -- -- -- -- -- -- --
01D0:                   5B 1E  80 F8 FF FF 7F F8 FF FF        [.........
01E0: 7F 64 77 6E 30 00                                 .dwn0.          
```

#### Opcodes

```
  0: 0x01D6 [0x5B] LOAD_EXT_SCHEDULER: Load scheduler "dwn0" with entities [EventEntity, EventEntity], work=14*
  1: 0x01E5 [0x00] END_REQSTACK()
```

### Event 65535.5

#### Metadata

| Field        | Value    |
|--------------|----------|
| Entrypoint   | 0x01E6   |
| Data Size    | 27 bytes |
| Instructions | 3        |

```
      00 01 02 03 04 05 06 07  08 09 0A 0B 0C 0D 0E 0F
      -- -- -- -- -- -- -- --  -- -- -- -- -- -- -- --
01E0:                   45 16  80 F0 FF FF 7F F0 FF FF        E.........
01F0: 7F 68 69 64 65 09 80 6C  F8 FF FF 7F 09 80 17 80  .hide..l........
0200: 00                                                .               
```

#### Opcodes

```
  0: 0x01E6 [0x45] LOAD_SCHEDULED_TASK: Load scheduler "hide" with entities [LocalPlayer, LocalPlayer], work=[210*, 0*]
  1: 0x01F7 [0x6C] FADE_ENTITY_COLOR(entity_id=EventEntity, end_alpha=0*, fade_time=180*)
  2: 0x0200 [0x00] END_REQSTACK()
```
