# 17350996 - Excenmille

## Common Data

| Field            | Value                     |
|------------------|---------------------------|
| Zone             | Ghelsba Outpost (ID: 140) |
| Block Size       | 248 bytes                 |
| Total Events     | 11                        |
| References Count | 11                        |

## List of Events

| Event ID                 | Entrypoint   |   Size |   Instructions |
|--------------------------|--------------|--------|----------------|
| [65535](#event-65535)    | 0x0000       |      1 |              1 |
| [65535.1](#event-655351) | 0x0001       |      1 |              1 |
| [65535.2](#event-655352) | 0x0002       |     18 |              4 |
| [65535.3](#event-655353) | 0x0014       |     10 |              2 |
| [65535.4](#event-655354) | 0x001E       |      9 |              3 |
| [65535.5](#event-655355) | 0x0027       |      9 |              3 |
| [65535.6](#event-655356) | 0x0030       |     10 |              2 |
| [65535.7](#event-655357) | 0x003A       |     10 |              2 |
| [57](#event-57)          | 0x0044       |      1 |              1 |
| [65535.8](#event-655358) | 0x0045       |     14 |              4 |
| [65535.9](#event-655359) | 0x0053       |     61 |             11 |

## DAT References (imed_data)

|   Index | Hex Value   |   Dec Value |
|---------|-------------|-------------|
|       0 | 0x0000      |           0 |
|       1 | 0x0001      |           1 |
|       2 | 0x0080      |         128 |
|       3 | 0x0028      |          40 |
|       4 | 0x359B      |       13723 |
|       5 | 0x9E5B      |       40539 |
|       6 | 0x381E      |       14366 |
|       7 | 0xBC97      |       48279 |
|       8 | 0xFFFFFF59  |  4294967129 |
|       9 | 0x0513      |        1299 |
|      10 | 0x04F9      |        1273 |

## Events

### Event 65535

#### Metadata

| Field        | Value   |
|--------------|---------|
| Entrypoint   | 0x0000  |
| Data Size    | 1 bytes |
| Instructions | 1       |

```
      00 01 02 03 04 05 06 07  08 09 0A 0B 0C 0D 0E 0F
      -- -- -- -- -- -- -- --  -- -- -- -- -- -- -- --
0000: 00                                                .               
```

#### Opcodes

```
  0: 0x0000 [0x00] END_REQSTACK()
```

### Event 65535.1

#### Metadata

| Field        | Value   |
|--------------|---------|
| Entrypoint   | 0x0001  |
| Data Size    | 1 bytes |
| Instructions | 1       |

```
      00 01 02 03 04 05 06 07  08 09 0A 0B 0C 0D 0E 0F
      -- -- -- -- -- -- -- --  -- -- -- -- -- -- -- --
0000:    00                                              .              
```

#### Opcodes

```
  0: 0x0001 [0x00] END_REQSTACK()
```

### Event 65535.2

#### Metadata

| Field        | Value    |
|--------------|----------|
| Entrypoint   | 0x0002   |
| Data Size    | 18 bytes |
| Instructions | 4        |

```
      00 01 02 03 04 05 06 07  08 09 0A 0B 0C 0D 0E 0F
      -- -- -- -- -- -- -- --  -- -- -- -- -- -- -- --
0000:       22 00 2F 00 F8 FF  FF 7F 6C F8 FF FF 7F 00    "./.....l.....
0010: 80 01 80 00                                       ....            
```

#### Opcodes

```
  0: 0x0002 [0x22] ENTITY_HIDE_FLAG(enabled=0x00)
  1: 0x0004 [0x2F] EventEntity->Render.Flags0 &= ~0x80000 // Bit 19
  2: 0x000A [0x6C] FADE_ENTITY_COLOR(entity_id=EventEntity, end_alpha=0*, fade_time=1*)
  3: 0x0013 [0x00] END_REQSTACK()
```

### Event 65535.3

#### Metadata

| Field        | Value    |
|--------------|----------|
| Entrypoint   | 0x0014   |
| Data Size    | 10 bytes |
| Instructions | 2        |

```
      00 01 02 03 04 05 06 07  08 09 0A 0B 0C 0D 0E 0F
      -- -- -- -- -- -- -- --  -- -- -- -- -- -- -- --
0010:             6C F8 FF FF  7F 02 80 01 80 00            l.........  
```

#### Opcodes

```
  0: 0x0014 [0x6C] FADE_ENTITY_COLOR(entity_id=EventEntity, end_alpha=128*, fade_time=1*)
  1: 0x001D [0x00] END_REQSTACK()
```

### Event 65535.4

#### Metadata

| Field        | Value   |
|--------------|---------|
| Entrypoint   | 0x001E  |
| Data Size    | 9 bytes |
| Instructions | 3       |

```
      00 01 02 03 04 05 06 07  08 09 0A 0B 0C 0D 0E 0F
      -- -- -- -- -- -- -- --  -- -- -- -- -- -- -- --
0010:                                            22 00                ".
0020: 2F 00 F8 FF FF 7F 00                              /......         
```

#### Opcodes

```
  0: 0x001E [0x22] ENTITY_HIDE_FLAG(enabled=0x00)
  1: 0x0020 [0x2F] EventEntity->Render.Flags0 &= ~0x80000 // Bit 19
  2: 0x0026 [0x00] END_REQSTACK()
```

### Event 65535.5

#### Metadata

| Field        | Value   |
|--------------|---------|
| Entrypoint   | 0x0027  |
| Data Size    | 9 bytes |
| Instructions | 3       |

```
      00 01 02 03 04 05 06 07  08 09 0A 0B 0C 0D 0E 0F
      -- -- -- -- -- -- -- --  -- -- -- -- -- -- -- --
0020:                      22  01 2F 01 F8 FF FF 7F 00         "./......
```

#### Opcodes

```
  0: 0x0027 [0x22] ENTITY_HIDE_FLAG(enabled=0x01)
  1: 0x0029 [0x2F] EventEntity->Render.Flags0 |= 0x80000 // Bit 19
  2: 0x002F [0x00] END_REQSTACK()
```

### Event 65535.6

#### Metadata

| Field        | Value    |
|--------------|----------|
| Entrypoint   | 0x0030   |
| Data Size    | 10 bytes |
| Instructions | 2        |

```
      00 01 02 03 04 05 06 07  08 09 0A 0B 0C 0D 0E 0F
      -- -- -- -- -- -- -- --  -- -- -- -- -- -- -- --
0030: 6C F8 FF FF 7F 00 80 01  80 00                    l.........      
```

#### Opcodes

```
  0: 0x0030 [0x6C] FADE_ENTITY_COLOR(entity_id=EventEntity, end_alpha=0*, fade_time=1*)
  1: 0x0039 [0x00] END_REQSTACK()
```

### Event 65535.7

#### Metadata

| Field        | Value    |
|--------------|----------|
| Entrypoint   | 0x003A   |
| Data Size    | 10 bytes |
| Instructions | 2        |

```
      00 01 02 03 04 05 06 07  08 09 0A 0B 0C 0D 0E 0F
      -- -- -- -- -- -- -- --  -- -- -- -- -- -- -- --
0030:                                6C F8 FF FF 7F 02            l.....
0040: 80 01 80 00                                       ....            
```

#### Opcodes

```
  0: 0x003A [0x6C] FADE_ENTITY_COLOR(entity_id=EventEntity, end_alpha=128*, fade_time=1*)
  1: 0x0043 [0x00] END_REQSTACK()
```

### Event 57

#### Metadata

| Field        | Value   |
|--------------|---------|
| Entrypoint   | 0x0044  |
| Data Size    | 1 bytes |
| Instructions | 1       |

```
      00 01 02 03 04 05 06 07  08 09 0A 0B 0C 0D 0E 0F
      -- -- -- -- -- -- -- --  -- -- -- -- -- -- -- --
0040:             00                                        .           
```

#### Opcodes

```
  0: 0x0044 [0x00] END_REQSTACK()
```

### Event 65535.8

#### Metadata

| Field        | Value    |
|--------------|----------|
| Entrypoint   | 0x0045   |
| Data Size    | 14 bytes |
| Instructions | 4        |

```
      00 01 02 03 04 05 06 07  08 09 0A 0B 0C 0D 0E 0F
      -- -- -- -- -- -- -- --  -- -- -- -- -- -- -- --
0040:                32 03 80  1F 00 04 80 05 80 00 80       2..........
0050: 1F 01 00                                          ...             
```

#### Opcodes

```
  0: 0x0045 [0x32] ExtData[1]->MainSpeed = 40* * 0.1
  1: 0x0048 [0x1F] MOVE_ENTITY: EventEntity moves to X=13.723*, Z=40.539*, Y=0.000*
  2: 0x0050 [0x1F] MOVE_ENTITY: Update entity position (mode=1)
  3: 0x0052 [0x00] END_REQSTACK()
```

### Event 65535.9

#### Metadata

| Field        | Value    |
|--------------|----------|
| Entrypoint   | 0x0053   |
| Data Size    | 61 bytes |
| Instructions | 11       |

```
      00 01 02 03 04 05 06 07  08 09 0A 0B 0C 0D 0E 0F
      -- -- -- -- -- -- -- --  -- -- -- -- -- -- -- --
0050:          32 03 80 1F 00  06 80 07 80 08 80 1F 01     2............
0060: 6F 1E 58 C1 08 01 6F 76  54 C1 08 01 7B 54 C1 08  o.X...ovT...{T..
0070: 01 5B 09 80 54 C1 08 01  54 C1 08 01 66 61 30 30  .[..T...T...fa00
0080: 5B 0A 80 54 C1 08 01 54  C1 08 01 74 68 61 30 00  [..T...T...tha0.
```

#### Opcodes

```
  0: 0x0053 [0x32] ExtData[1]->MainSpeed = 40* * 0.1
  1: 0x0056 [0x1F] MOVE_ENTITY: EventEntity moves to X=14.366*, Z=48.279*, Y=-0.167*
  2: 0x005E [0x1F] MOVE_ENTITY: Update entity position (mode=1)
  3: 0x0060 [0x6F] WAIT_FRAME_DELAY: Yield until WaitTime reaches zero
  4: 0x0061 [0x1E] EventEntity looks at Lharant (ID: 17351000/0x0108C158) and starts talking
  5: 0x0066 [0x6F] WAIT_FRAME_DELAY: Yield until WaitTime reaches zero
  6: 0x0067 [0x76] CHECK_ENTITY_RENDER_FLAGS: Wait until Excenmille (ID: 17350996/0x0108C154) Render.Flags0 and Render.Flags3 conditions are met
  7: 0x006C [0x7B] Excenmille (ID: 17350996/0x0108C154) stops talking
  8: 0x0071 [0x5B] LOAD_EXT_SCHEDULER: Load scheduler "fa00" with entities [Excenmille (ID: 17350996/0x0108C154), Excenmille (ID: 17350996/0x0108C154)], work=1299*
  9: 0x0080 [0x5B] LOAD_EXT_SCHEDULER: Load scheduler "tha0" with entities [Excenmille (ID: 17350996/0x0108C154), Excenmille (ID: 17350996/0x0108C154)], work=1273*
 10: 0x008F [0x00] END_REQSTACK()
```
