# 17350958

## Common Data

| Field            | Value                     |
|------------------|---------------------------|
| Zone             | Ghelsba Outpost (ID: 140) |
| Block Size       | 164 bytes                 |
| Total Events     | 3                         |
| References Count | 8                         |

## List of Events

| Event ID                 | Entrypoint   |   Size |   Instructions |
|--------------------------|--------------|--------|----------------|
| [65535](#event-65535)    | 0x0000       |      1 |              1 |
| [32000](#event-32000)    | 0x0001       |     16 |              3 |
| [65535.1](#event-655351) | 0x0011       |     84 |              8 |

## DAT References (imed_data)

|   Index | Hex Value   |   Dec Value |
|---------|-------------|-------------|
|       0 | 0xFFFD2BAB  |  4294781867 |
|       1 | 0xBD7E      |       48510 |
|       2 | 0xFFFFD868  |  4294957160 |
|       3 | 0x0644      |        1604 |
|       4 | 0x003C      |          60 |
|       5 | 0x0028      |          40 |
|       6 | 0x0000      |           0 |
|       7 | 0x00C8      |         200 |

## Events

### Event 65535

#### Metadata

| Field        | Value   |
|--------------|---------|
| Entrypoint   | 0x0000  |
| Data Size    | 1 bytes |
| Instructions | 1       |

```
      00 01 02 03 04 05 06 07  08 09 0A 0B 0C 0D 0E 0F
      -- -- -- -- -- -- -- --  -- -- -- -- -- -- -- --
0000: 00                                                .               
```

#### Opcodes

```
  0: 0x0000 [0x00] END_REQSTACK()
```

### Event 32000

#### Metadata

| Field        | Value    |
|--------------|----------|
| Entrypoint   | 0x0001   |
| Data Size    | 16 bytes |
| Instructions | 3        |

```
      00 01 02 03 04 05 06 07  08 09 0A 0B 0C 0D 0E 0F
      -- -- -- -- -- -- -- --  -- -- -- -- -- -- -- --
0000:    92 01 F8 FF FF 7F 37  00 80 01 80 02 80 03 80   ......7........
0010: 00                                                .               
```

#### Opcodes

```
  0: 0x0001 [0x92] EventEntity->Render.Flags3 ^= 0x01
  1: 0x0007 [0x37] UPDATE_EVENT_POSITION_AND_DIR: x=-185.429*, z=48.510*, y=-10.136*, direction=141.0°*
  2: 0x0010 [0x00] END_REQSTACK()
```

### Event 65535.1

#### Metadata

| Field        | Value    |
|--------------|----------|
| Entrypoint   | 0x0011   |
| Data Size    | 84 bytes |
| Instructions | 8        |

```
      00 01 02 03 04 05 06 07  08 09 0A 0B 0C 0D 0E 0F
      -- -- -- -- -- -- -- --  -- -- -- -- -- -- -- --
0010:    1C 04 80 2C F8 FF FF  7F F8 FF FF 7F 73 68 6F   ...,........sho
0020: 74 45 05 80 33 C1 08 01  33 C1 08 01 63 72 79 30  tE..3...3...cry0
0030: 06 80 1C 04 80 45 07 80  F0 FF FF 7F F0 FF FF 7F  .....E..........
0040: 62 6C 6F 6E 06 80 53 F8  FF FF 7F F8 FF FF 7F 73  blon..S........s
0050: 68 6F 74 45 07 80 F0 FF  FF 7F F0 FF FF 7F 62 6C  hotE..........bl
0060: 6F 66 06 80 00                                    of...           
```

#### Opcodes

```
  0: 0x0011 [0x1C] WAIT(60* ticks)
  1: 0x0014 [0x2C] CREATE_SCHEDULER_TASK: Create scheduler "shot" with entities [EventEntity, EventEntity]
  2: 0x0021 [0x45] LOAD_SCHEDULED_TASK: Load scheduler "cry0" with entities [Rahal (ID: 17350963/0x0108C133), Rahal (ID: 17350963/0x0108C133)], work=[40*, 0*]
  3: 0x0032 [0x1C] WAIT(60* ticks)
  4: 0x0035 [0x45] LOAD_SCHEDULED_TASK: Load scheduler "blon" with entities [LocalPlayer, LocalPlayer], work=[200*, 0*]
  5: 0x0046 [0x53] WAIT_SCHEDULER_TASK: Wait for scheduler "shot" with entities [EventEntity, EventEntity]
  6: 0x0053 [0x45] LOAD_SCHEDULED_TASK: Load scheduler "blof" with entities [LocalPlayer, LocalPlayer], work=[200*, 0*]
  7: 0x0064 [0x00] END_REQSTACK()
```
