# 17350964

## Common Data

| Field            | Value                     |
|------------------|---------------------------|
| Zone             | Ghelsba Outpost (ID: 140) |
| Block Size       | 324 bytes                 |
| Total Events     | 8                         |
| References Count | 33                        |

## List of Events

| Event ID                 | Entrypoint   |   Size |   Instructions |
|--------------------------|--------------|--------|----------------|
| [65535](#event-65535)    | 0x0000       |      1 |              1 |
| [32000](#event-32000)    | 0x0001       |     10 |              2 |
| [32001](#event-32001)    | 0x000B       |     10 |              2 |
| [65535.1](#event-655351) | 0x0015       |     17 |              5 |
| [65535.2](#event-655352) | 0x0026       |     21 |              7 |
| [65535.3](#event-655353) | 0x003B       |     10 |              2 |
| [65535.4](#event-655354) | 0x0045       |     32 |             10 |
| [65535.5](#event-655355) | 0x0065       |     43 |              9 |

## DAT References (imed_data)

|   Index | Hex Value   |   Dec Value |
|---------|-------------|-------------|
|       0 | 0xFFFD9F3B  |  4294811451 |
|       1 | 0x140A2     |       82082 |
|       2 | 0xFFFFD8F0  |  4294957296 |
|       3 | 0x0608      |        1544 |
|       4 | 0xFFFD37B5  |  4294784949 |
|       5 | 0xDA4F      |       55887 |
|       6 | 0xFFFFD6F5  |  4294956789 |
|       7 | 0x0600      |        1536 |
|       8 | 0x005A      |          90 |
|       9 | 0x0028      |          40 |
|      10 | 0xFFFD8EB7  |  4294807223 |
|      11 | 0x1378D     |       79757 |
|      12 | 0xFFFFD63E  |  4294956606 |
|      13 | 0x003C      |          60 |
|      14 | 0x000D      |          13 |
|      15 | 0xFFFD83D2  |  4294804434 |
|      16 | 0x131D5     |       78293 |
|      17 | 0xFFFFD268  |  4294955624 |
|      18 | 0x074C      |        1868 |
|      19 | 0xFFFD734D  |  4294800205 |
|      20 | 0x134C5     |       79045 |
|      21 | 0x0657      |        1623 |
|      22 | 0x001E      |          30 |
|      23 | 0xFFFD2FD3  |  4294782931 |
|      24 | 0xC91A      |       51482 |
|      25 | 0xFFFFD6CF  |  4294956751 |
|      26 | 0xFFFD2521  |  4294780193 |
|      27 | 0xC3AC      |       50092 |
|      28 | 0xFFFFD7C8  |  4294957000 |
|      29 | 0xFFFD28C4  |  4294781124 |
|      30 | 0xBF34      |       48948 |
|      31 | 0xFFFFD80C  |  4294957068 |
|      32 | 0x0AC1      |        2753 |

## Events

### Event 65535

#### Metadata

| Field        | Value   |
|--------------|---------|
| Entrypoint   | 0x0000  |
| Data Size    | 1 bytes |
| Instructions | 1       |

```
      00 01 02 03 04 05 06 07  08 09 0A 0B 0C 0D 0E 0F
      -- -- -- -- -- -- -- --  -- -- -- -- -- -- -- --
0000: 00                                                .               
```

#### Opcodes

```
  0: 0x0000 [0x00] END_REQSTACK()
```

### Event 32000

#### Metadata

| Field        | Value    |
|--------------|----------|
| Entrypoint   | 0x0001   |
| Data Size    | 10 bytes |
| Instructions | 2        |

```
      00 01 02 03 04 05 06 07  08 09 0A 0B 0C 0D 0E 0F
      -- -- -- -- -- -- -- --  -- -- -- -- -- -- -- --
0000:    37 00 80 01 80 02 80  03 80 00                  7.........     
```

#### Opcodes

```
  0: 0x0001 [0x37] UPDATE_EVENT_POSITION_AND_DIR: x=-155.845*, z=82.082*, y=-10.000*, direction=135.7°*
  1: 0x000A [0x00] END_REQSTACK()
```

### Event 32001

#### Metadata

| Field        | Value    |
|--------------|----------|
| Entrypoint   | 0x000B   |
| Data Size    | 10 bytes |
| Instructions | 2        |

```
      00 01 02 03 04 05 06 07  08 09 0A 0B 0C 0D 0E 0F
      -- -- -- -- -- -- -- --  -- -- -- -- -- -- -- --
0000:                                   37 04 80 05 80             7....
0010: 06 80 07 80 00                                    .....           
```

#### Opcodes

```
  0: 0x000B [0x37] UPDATE_EVENT_POSITION_AND_DIR: x=-182.347*, z=55.887*, y=-10.507*, direction=135.0°*
  1: 0x0014 [0x00] END_REQSTACK()
```

### Event 65535.1

#### Metadata

| Field        | Value    |
|--------------|----------|
| Entrypoint   | 0x0015   |
| Data Size    | 17 bytes |
| Instructions | 5        |

```
      00 01 02 03 04 05 06 07  08 09 0A 0B 0C 0D 0E 0F
      -- -- -- -- -- -- -- --  -- -- -- -- -- -- -- --
0010:                1C 08 80  32 09 80 1F 00 0A 80 0B       ...2.......
0020: 80 0C 80 1F 01 00                                 ......          
```

#### Opcodes

```
  0: 0x0015 [0x1C] WAIT(90* ticks)
  1: 0x0018 [0x32] ExtData[1]->MainSpeed = 40* * 0.1
  2: 0x001B [0x1F] MOVE_ENTITY: EventEntity moves to X=-160.073*, Z=79.757*, Y=-10.690*
  3: 0x0023 [0x1F] MOVE_ENTITY: Update entity position (mode=1)
  4: 0x0025 [0x00] END_REQSTACK()
```

### Event 65535.2

#### Metadata

| Field        | Value    |
|--------------|----------|
| Entrypoint   | 0x0026   |
| Data Size    | 21 bytes |
| Instructions | 7        |

```
      00 01 02 03 04 05 06 07  08 09 0A 0B 0C 0D 0E 0F
      -- -- -- -- -- -- -- --  -- -- -- -- -- -- -- --
0020:                   1C 0D  80 32 0E 80 1F 00 0F 80        ...2......
0030: 10 80 11 80 1F 01 6F 39  12 80 00                 ......o9...     
```

#### Opcodes

```
  0: 0x0026 [0x1C] WAIT(60* ticks)
  1: 0x0029 [0x32] ExtData[1]->MainSpeed = 13* * 0.1
  2: 0x002C [0x1F] MOVE_ENTITY: EventEntity moves to X=-162.862*, Z=78.293*, Y=-11.672*
  3: 0x0034 [0x1F] MOVE_ENTITY: Update entity position (mode=1)
  4: 0x0036 [0x6F] WAIT_FRAME_DELAY: Yield until WaitTime reaches zero
  5: 0x0037 [0x39] SET_ENTITY_DIRECTION(direction=10.3°*)
  6: 0x003A [0x00] END_REQSTACK()
```

### Event 65535.3

#### Metadata

| Field        | Value    |
|--------------|----------|
| Entrypoint   | 0x003B   |
| Data Size    | 10 bytes |
| Instructions | 2        |

```
      00 01 02 03 04 05 06 07  08 09 0A 0B 0C 0D 0E 0F
      -- -- -- -- -- -- -- --  -- -- -- -- -- -- -- --
0030:                                   37 13 80 14 80             7....
0040: 11 80 15 80 00                                    .....           
```

#### Opcodes

```
  0: 0x003B [0x37] UPDATE_EVENT_POSITION_AND_DIR: x=-167.091*, z=79.045*, y=-11.672*, direction=142.6°*
  1: 0x0044 [0x00] END_REQSTACK()
```

### Event 65535.4

#### Metadata

| Field        | Value    |
|--------------|----------|
| Entrypoint   | 0x0045   |
| Data Size    | 32 bytes |
| Instructions | 10       |

```
      00 01 02 03 04 05 06 07  08 09 0A 0B 0C 0D 0E 0F
      -- -- -- -- -- -- -- --  -- -- -- -- -- -- -- --
0040:                1C 16 80  1F 00 17 80 18 80 19 80       ...........
0050: 1F 01 1F 00 1A 80 1B 80  1C 80 1F 01 6F 1E 32 C1  ............o.2.
0060: 08 01 6F 70 00                                    ..op.           
```

#### Opcodes

```
  0: 0x0045 [0x1C] WAIT(30* ticks)
  1: 0x0048 [0x1F] MOVE_ENTITY: EventEntity moves to X=-184.365*, Z=51.482*, Y=-10.545*
  2: 0x0050 [0x1F] MOVE_ENTITY: Update entity position (mode=1)
  3: 0x0052 [0x1F] MOVE_ENTITY: EventEntity moves to X=-187.103*, Z=50.092*, Y=-10.296*
  4: 0x005A [0x1F] MOVE_ENTITY: Update entity position (mode=1)
  5: 0x005C [0x6F] WAIT_FRAME_DELAY: Yield until WaitTime reaches zero
  6: 0x005D [0x1E] EventEntity looks at Cyranuce (ID: 17350962/0x0108C132) and starts talking
  7: 0x0062 [0x6F] WAIT_FRAME_DELAY: Yield until WaitTime reaches zero
  8: 0x0063 [0x70] WAIT_ENTITY_RENDER_FLAG: Wait while EventEntity->Render.Flags3 bit 2 is set (cancel turn if not)
  9: 0x0064 [0x00] END_REQSTACK()
```

### Event 65535.5

#### Metadata

| Field        | Value    |
|--------------|----------|
| Entrypoint   | 0x0065   |
| Data Size    | 43 bytes |
| Instructions | 9        |

```
      00 01 02 03 04 05 06 07  08 09 0A 0B 0C 0D 0E 0F
      -- -- -- -- -- -- -- --  -- -- -- -- -- -- -- --
0060:                37 1D 80  1E 80 1F 80 20 80 32 0E       7...... .2.
0070: 80 3B F0 FF FF 7F 00 00  01 00 02 00 31 00 00 00  .;..........1...
0080: 01 00 02 00 08 80 31 01  1E F0 FF FF 7F 6F 70 00  ......1......op.
```

#### Opcodes

```
  0: 0x0065 [0x37] UPDATE_EVENT_POSITION_AND_DIR: x=-186.172*, z=48.948*, y=-10.228*, direction=242.0°*
  1: 0x006E [0x32] ExtData[1]->MainSpeed = 13* * 0.1
  2: 0x0071 [0x3B] GET_ENTITY_POSITION(entity=LocalPlayer, x_destination=ExtData[1]->WorkLocal[0], y_destination=ExtData[1]->WorkLocal[1], z_destination=ExtData[1]->WorkLocal[2])
  3: 0x007C [0x31] UPDATE_ENTITY_POSITION: Set EventEntity goal position to X=ExtData[1]->WorkLocal[0], Z=ExtData[1]->WorkLocal[1], Y=ExtData[1]->WorkLocal[2], Time=90*
  4: 0x0086 [0x31] UPDATE_ENTITY_POSITION: Move EventEntity towards goal position
  5: 0x0088 [0x1E] EventEntity looks at LocalPlayer and starts talking
  6: 0x008D [0x6F] WAIT_FRAME_DELAY: Yield until WaitTime reaches zero
  7: 0x008E [0x70] WAIT_ENTITY_RENDER_FLAG: Wait while EventEntity->Render.Flags3 bit 2 is set (cancel turn if not)
  8: 0x008F [0x00] END_REQSTACK()
```
