# Event 65535

## Metadata

| Field           | Value    |
|-----------------|----------|
| Event Index     | 17/75    |
| Offset          | 0x00C5   |
| Data Size       | 33 bytes |
| Calculated Size | 33 bytes |
| Instructions    | 7        |

```
      00 01 02 03 04 05 06 07  08 09 0A 0B 0C 0D 0E 0F
      -- -- -- -- -- -- -- --  -- -- -- -- -- -- -- --
00C0:                32 1F 80  1F 00 20 80 21 80 22 80       2.... .!.".
00D0: 1F 01 6F 1C 23 80 5B 24  80 A4 42 04 01 A4 42 04  ..o.#.[$..B...B.
00E0: 01 67 73 63 30 00                                 .gsc0.          
```

## Opcodes

```
  0: 0x00C5 [0x32] ExtData[1]->MainSpeed = 13* * 0.1
  1: 0x00C8 [0x1F] MOVE_ENTITY: EventEntity moves to X=-307.608*, Z=-41.476*, Y=36.852*
  2: 0x00D0 [0x1F] MOVE_ENTITY: Update entity position (mode=1)
  3: 0x00D2 [0x6F] WAIT_FRAME_DELAY: Yield until WaitTime reaches zero
  4: 0x00D3 [0x1C] WAIT(3* ticks)
  5: 0x00D6 [0x5B] LOAD_EXT_SCHEDULER: Load scheduler "gsc0" with entities [Gogoroon (ID: 17056420/0x010442A4), Gogoroon (ID: 17056420/0x010442A4)], work=990*
  6: 0x00E5 [0x00] END_REQSTACK()
```
