# 17670747

## Common Data

| Field            | Value                      |
|------------------|----------------------------|
| Zone             | Abyssea - Altepa (ID: 218) |
| Block Size       | 388 bytes                  |
| Total Events     | 2                          |
| References Count | 19                         |

## List of Events

| Event ID              | Entrypoint   |   Size |   Instructions |
|-----------------------|--------------|--------|----------------|
| [65535](#event-65535) | 0x0000       |      1 |              1 |
| [277](#event-277)     | 0x0001       |    286 |             58 |

## DAT References (imed_data)

|   Index | Hex Value   |   Dec Value |
|---------|-------------|-------------|
|       0 | 0x1FCC      |        8140 |
|       1 | 0x06E1      |        1761 |
|       2 | 0x1FCD      |        8141 |
|       3 | 0x1FCE      |        8142 |
|       4 | 0x1FCF      |        8143 |
|       5 | 0x1FD0      |        8144 |
|       6 | 0x1FD1      |        8145 |
|       7 | 0x1FD2      |        8146 |
|       8 | 0x0064      |         100 |
|       9 | 0x1FD3      |        8147 |
|      10 | 0x1FD4      |        8148 |
|      11 | 0x1FD5      |        8149 |
|      12 | 0x1FD6      |        8150 |
|      13 | 0x1FD7      |        8151 |
|      14 | 0x0078      |         120 |
|      15 | 0x0028      |          40 |
|      16 | 0x0003      |           3 |
|      17 | 0x0000      |           0 |
|      18 | 0x003C      |          60 |

## String References

- **8140**: Daddy! Oh, Daddy! Look what I found!

## Events

### Event 65535

#### Metadata

| Field        | Value   |
|--------------|---------|
| Entrypoint   | 0x0000  |
| Data Size    | 1 bytes |
| Instructions | 1       |

```
      00 01 02 03 04 05 06 07  08 09 0A 0B 0C 0D 0E 0F
      -- -- -- -- -- -- -- --  -- -- -- -- -- -- -- --
0000: 00                                                .               
```

#### Opcodes

```
  0: 0x0000 [0x00] END_REQSTACK()
```

### Event 277

#### Metadata

| Field        | Value     |
|--------------|-----------|
| Entrypoint   | 0x0001    |
| Data Size    | 286 bytes |
| Instructions | 58        |

```
      00 01 02 03 04 05 06 07  08 09 0A 0B 0C 0D 0E 0F
      -- -- -- -- -- -- -- --  -- -- -- -- -- -- -- --
0000:    7B F0 FF FF 7F 20 01  42 4E 00 5D A2 0D 01 4E   {.... .BN.]...N
0010: 00 5C A2 0D 01 80 5D A2  0D 01 80 5C A2 0D 01 29  .\....]....\...)
0020: 10 F0 FF FF 7F 06 03 00  00 02 10 1D 00 80 23 27  ..............#'
0030: 10 5D A2 0D 01 02 27 10  5C A2 0D 01 02 2A 10 5D  .]....'.\....*.]
0040: A2 0D 01 2A 10 5C A2 0D  01 4A F0 FF FF 7F 5D A2  ...*.\...J....].
0050: 0D 01 03 03 10 01 80 03  02 10 00 00 2B 5D A2 0D  ............+]..
0060: 01 02 80 23 2B 5D A2 0D  01 03 80 23 4A 5C A2 0D  ...#+].....#J\..
0070: 01 5D A2 0D 01 2B 5C A2  0D 01 04 80 23 4A 5D A2  .]...+\.....#J].
0080: 0D 01 5C A2 0D 01 2B 5D  A2 0D 01 05 80 23 2B 5C  ..\...+].....#+\
0090: A2 0D 01 06 80 23 2B 5C  A2 0D 01 07 80 23 27 10  .....#+\.....#'.
00A0: 5C A2 0D 01 03 1C 08 80  2B 5D A2 0D 01 09 80 23  \.......+].....#
00B0: 4A 5D A2 0D 01 F0 FF FF  7F 6F 76 5D A2 0D 01 03  J].......ov]....
00C0: 02 10 00 00 2B 5D A2 0D  01 0A 80 23 2B 5D A2 0D  ....+].....#+]..
00D0: 01 0B 80 23 2B 5D A2 0D  01 0C 80 23 03 02 10 00  ...#+].....#....
00E0: 00 2B 5D A2 0D 01 0D 80  1C 0E 80 29 10 5D A2 0D  .+]........).]..
00F0: 01 03 1C 0F 80 62 10 80  F8 FF FF 7F F8 FF FF 7F  .....b..........
0100: 6D 61 69 6E 11 80 53 F8  FF FF 7F F8 FF FF 7F 6D  main..S........m
0110: 61 69 6E 1C 12 80 23 4E  01 5D A2 0D 01 21 00     ain...#N.]...!. 
```

#### Opcodes

```
  0: 0x0001 [0x7B] LocalPlayer stops talking
  1: 0x0006 [0x20] SET_CLI_EVENT_UC_FLAG: Lock player control
  2: 0x0008 [0x42] SET_CLI_EVENT_CANCEL_DATA()
  3: 0x0009 [0x4E] SET_ENTITY_HIDE_FLAG: Show Enu (ID: 17670749/0x010DA25D)
  4: 0x000F [0x4E] SET_ENTITY_HIDE_FLAG: Show Zacc (ID: 17670748/0x010DA25C)
  5: 0x0015 [0x80] LOAD_WAIT(entity=Enu (ID: 17670749/0x010DA25D))
  6: 0x001A [0x80] LOAD_WAIT(entity=Zacc (ID: 17670748/0x010DA25C))
  7: 0x001F [0x29] REQ_SET_WAIT(priority=0x10, entity_id=LocalPlayer, tag_num=0x06)
  8: 0x0026 [0x03] ExtData[1]->WorkLocal[0] = Work_Zone[2]
  9: 0x002B [0x1D] PRINT_EVENT_MESSAGE(message_id=8140*)
    → "Daddy! Oh, Daddy! Look what I found!"
 10: 0x002E [0x23] WAIT_FOR_DIALOG_INTERACTION
 11: 0x002F [0x27] REQ_SET(priority=0x10, entity_id=Enu (ID: 17670749/0x010DA25D), tag_num=0x02)
 12: 0x0036 [0x27] REQ_SET(priority=0x10, entity_id=Zacc (ID: 17670748/0x010DA25C), tag_num=0x02)
 13: 0x003D [0x2A] GET_REQ_LEVEL(level=16, entity_id=Enu (ID: 17670749/0x010DA25D))
 14: 0x0043 [0x2A] GET_REQ_LEVEL(level=16, entity_id=Zacc (ID: 17670748/0x010DA25C))
 15: 0x0049 [0x4A] LocalPlayer looks at Enu (ID: 17670749/0x010DA25D)
 16: 0x0052 [0x03] Work_Zone[3] = 1761*
 17: 0x0057 [0x03] Work_Zone[2] = ExtData[1]->WorkLocal[0]
 18: 0x005C [0x2B] Enu (ID: 17670749/0x010DA25D) [8141*]:
    → "My $3! Did you bring this here just for me? I've been looking for it eeeeeeverywhere!"
 19: 0x0063 [0x23] WAIT_FOR_DIALOG_INTERACTION
 20: 0x0064 [0x2B] Enu (ID: 17670749/0x010DA25D) [8142*]:
    → "This pendant is my favoritest thing in the whole wide world! It was a present from my Mommy, you see..."
 21: 0x006B [0x23] WAIT_FOR_DIALOG_INTERACTION
 22: 0x006C [0x4A] Zacc (ID: 17670748/0x010DA25C) looks at Enu (ID: 17670749/0x010DA25D)
 23: 0x0075 [0x2B] Zacc (ID: 17670748/0x010DA25C) [8143*]:
    → "Don't forget to say "thank you" to the nice [man/woman], Enu. And with that, we'd best be on our way..."
 24: 0x007C [0x23] WAIT_FOR_DIALOG_INTERACTION
 25: 0x007D [0x4A] Enu (ID: 17670749/0x010DA25D) looks at Zacc (ID: 17670748/0x010DA25C)
 26: 0x0086 [0x2B] Enu (ID: 17670749/0x010DA25D) [8144*]:
    → "Where are we going, Daddy? Is Mommy coming with us?"
 27: 0x008D [0x23] WAIT_FOR_DIALOG_INTERACTION
 28: 0x008E [0x2B] Zacc (ID: 17670748/0x010DA25C) [8145*]:
    → "Your mother still has things to do here. She can't come with us yet."
 29: 0x0095 [0x23] WAIT_FOR_DIALOG_INTERACTION
 30: 0x0096 [0x2B] Zacc (ID: 17670748/0x010DA25C) [8146*]:
    → "Now say goodbye to the nice [man/woman]..."
 31: 0x009D [0x23] WAIT_FOR_DIALOG_INTERACTION
 32: 0x009E [0x27] REQ_SET(priority=0x10, entity_id=Zacc (ID: 17670748/0x010DA25C), tag_num=0x03)
 33: 0x00A5 [0x1C] WAIT(100* ticks)
 34: 0x00A8 [0x2B] Enu (ID: 17670749/0x010DA25D) [8147*]:
    → "..."
 35: 0x00AF [0x23] WAIT_FOR_DIALOG_INTERACTION
 36: 0x00B0 [0x4A] Enu (ID: 17670749/0x010DA25D) looks at LocalPlayer
 37: 0x00B9 [0x6F] WAIT_FRAME_DELAY: Yield until WaitTime reaches zero
 38: 0x00BA [0x76] CHECK_ENTITY_RENDER_FLAGS: Wait until Enu (ID: 17670749/0x010DA25D) Render.Flags0 and Render.Flags3 conditions are met
 39: 0x00BF [0x03] Work_Zone[2] = ExtData[1]->WorkLocal[0]
 40: 0x00C4 [0x2B] Enu (ID: 17670749/0x010DA25D) [8148*]:
    → "Wait! [Mister/Lady], you know my mommy, right? Can you tell her something for me?"
 41: 0x00CB [0x23] WAIT_FOR_DIALOG_INTERACTION
 42: 0x00CC [0x2B] Enu (ID: 17670749/0x010DA25D) [8149*]:
    → "I said that this $3 is my favoritest thing in the whole wide world, but that's not true. 'Cause you see, my real favoritest thing is...my daddy's and mommy's smiles."
 43: 0x00D3 [0x23] WAIT_FOR_DIALOG_INTERACTION
 44: 0x00D4 [0x2B] Enu (ID: 17670749/0x010DA25D) [8150*]:
    → "I wish Mommy could come with us. But Daddy says she can't, so... Tell her that we'll always be watching over her. And tell her to keep smiling...for us..."
 45: 0x00DB [0x23] WAIT_FOR_DIALOG_INTERACTION
 46: 0x00DC [0x03] Work_Zone[2] = ExtData[1]->WorkLocal[0]
 47: 0x00E1 [0x2B] Enu (ID: 17670749/0x010DA25D) [8151*]:
    → "I'm sorry... We have to...<sniff>...go now. Bye-bye, [mister/lady]...and thank...you..."
 48: 0x00E8 [0x1C] WAIT(120* ticks)
 49: 0x00EB [0x29] REQ_SET_WAIT(priority=0x10, entity_id=Enu (ID: 17670749/0x010DA25D), tag_num=0x03)
 50: 0x00F2 [0x1C] WAIT(40* ticks)
 51: 0x00F5 [0x62] LOAD_EVENT_SCHEDULER: Load scheduler "main" with entities [EventEntity, EventEntity], work=[3*, 0*]
 52: 0x0106 [0x53] WAIT_SCHEDULER_TASK: Wait for scheduler "main" with entities [EventEntity, EventEntity]
 53: 0x0113 [0x1C] WAIT(60* ticks)
 54: 0x0116 [0x23] WAIT_FOR_DIALOG_INTERACTION
 55: 0x0117 [0x4E] SET_ENTITY_HIDE_FLAG: Hide Enu (ID: 17670749/0x010DA25D)
 56: 0x011D [0x21] END_EVENT
 57: 0x011E [0x00] END_REQSTACK()
```
