# 17670762 - Excenmille

## Common Data

| Field            | Value                      |
|------------------|----------------------------|
| Zone             | Abyssea - Altepa (ID: 218) |
| Block Size       | 712 bytes                  |
| Total Events     | 9                          |
| References Count | 47                         |

## List of Events

| Event ID              | Entrypoint   |   Size |   Instructions |
|-----------------------|--------------|--------|----------------|
| [65535](#event-65535) | 0x0000       |      1 |              1 |
| [302](#event-302)     | 0x0001       |     81 |             28 |
| [303](#event-303)     | 0x0052       |     18 |              8 |
| [304](#event-304)     | 0x0064       |     65 |             19 |
| [305](#event-305)     | 0x00A5       |     18 |              8 |
| [306](#event-306)     | 0x00B7       |    111 |             34 |
| [307](#event-307)     | 0x0126       |     18 |              8 |
| [308](#event-308)     | 0x0138       |     38 |             11 |
| [352](#event-352)     | 0x015E       |    119 |             38 |

## DAT References (imed_data)

|   Index | Hex Value   |   Dec Value |
|---------|-------------|-------------|
|       0 | 0x0014      |          20 |
|       1 | 0x1FFD      |        8189 |
|       2 | 0x1FFE      |        8190 |
|       3 | 0x1FFF      |        8191 |
|       4 | 0x2000      |        8192 |
|       5 | 0x0000      |           0 |
|       6 | 0x0001      |           1 |
|       7 | 0x2002      |        8194 |
|       8 | 0x2003      |        8195 |
|       9 | 0x2004      |        8196 |
|      10 | 0x2001      |        8193 |
|      11 | 0x0002      |           2 |
|      12 | 0x2005      |        8197 |
|      13 | 0x2006      |        8198 |
|      14 | 0x2007      |        8199 |
|      15 | 0x2008      |        8200 |
|      16 | 0x2009      |        8201 |
|      17 | 0x00C9      |         201 |
|      18 | 0x200A      |        8202 |
|      19 | 0x200B      |        8203 |
|      20 | 0x200C      |        8204 |
|      21 | 0x200D      |        8205 |
|      22 | 0x200E      |        8206 |
|      23 | 0x200F      |        8207 |
|      24 | 0x2010      |        8208 |
|      25 | 0x2011      |        8209 |
|      26 | 0x2012      |        8210 |
|      27 | 0x2014      |        8212 |
|      28 | 0x2013      |        8211 |
|      29 | 0x2015      |        8213 |
|      30 | 0x2016      |        8214 |
|      31 | 0x2017      |        8215 |
|      32 | 0x0019      |          25 |
|      33 | 0x2079      |        8313 |
|      34 | 0x207A      |        8314 |
|      35 | 0x0032      |          50 |
|      36 | 0x207B      |        8315 |
|      37 | 0x207C      |        8316 |
|      38 | 0x004B      |          75 |
|      39 | 0x207D      |        8317 |
|      40 | 0x207F      |        8319 |
|      41 | 0x207E      |        8318 |
|      42 | 0x0064      |         100 |
|      43 | 0x2080      |        8320 |
|      44 | 0x2081      |        8321 |
|      45 | 0x2082      |        8322 |
|      46 | 0x2083      |        8323 |

## String References

- **8189**: Hail, stranger.
- **8190**: Spare me the self-introduction, for your name is of no import. In this Goddess-forsaken realm, 'tis only one's blade and strength of will that count for anything.
- **8191**: If you intend to live to see the morrow, you must be ever ready to battle to the death at a moment's notice. Can you look me in the eye and say that you have not a mote of hesitance in your heart?
- **8192**: Ready to do battle? [I am./More or less...?]
- **8193**: Hah! Such half-hearted resolve will lead you only to an early grave. Best run back behind the ward with the tots and greybeards.
- **8194**: Brave words. I pray for your sake that they are not empty ones.
- **8195**: A hideous beast called the waugyl prowls the northern reaches of this wasteland, rending limb from limb any fool who dares venture too close to its lair.
- **8196**: You are to slay him and bring back proof of your deed, or die in the trying. This shall be the test of your resolve. Now go!
- **8197**: A rare one you are, to back up words with deeds. Consider me impressed. I would ask your name.
- **8198**: <Player>...? Wait. Could you be...?
- **8199**: ...
- **8200**: Pray forgive my rudeness. Well met, <Player>. Excenmille M Aurchiat raises a toast to your honor and courage.
- **8201**: I would present you with this as well. May your resolve--and your sword arm--never falter.
- **8202**: Were it merely sufficient to defend oneself against the hordes, 'twould be no great task.
- **8203**: But no, it is also our duty to protect the weak and infirm. This is the most daunting task of all.
- **8204**: Hail, <Player>. How fare you since our last meeting?
- **8205**: How fare you? [Quite well./...]
- **8206**: It heartens me to see that your resolve has not faltered.
- **8207**: Should ever you feel doubt creeping into your heart, brandish your blade until the doubt is no more. These words of wisdom were imparted to me as a child.
- **8208**: At any rate, you have arrived at the right time. We've just caught wind that the fearsome waugyl is terrorizing the northern reaches once more.
- **8209**: How about it, <Player>? I know that you look to test your strength, and that strength will not be tested by ordinary foes.
- **8210**: Slay the beast? [I will./Another day.]
- **8211**: Strange. This is not the <Player> I know. If you rediscover your resolve, you need only speak with me.
- **8212**: Bring proof of your triumph and I shall reward you in kind. Go forth, <Player>.
- **8213**: The fearsome waugyl has returned to his old stomping grounds at the cliffs northward of here.
- **8214**: Your courage and abilities have not diminished in the least, I see.
- **8215**: You've earned this. Yet the beast will not lie dormant forever. Return here if you wish to test your sword arm again.
- **8313**: No matter how overwhelming the odds, there is no battle that cannot be won.
- **8314**: We fight for our land! For our future! Show the vile fiends no quarter!
- **8315**: The enemy presence is strong here. The fiends are confident, as well they should be.
- **8316**: Yet, this overconfidence will be their downfall. Strike at the heart of the foe with all your might!
- **8317**: The battle has drawn even. The crucial turning point is at hand.
- **8318**: Now, more than ever, our resolve must not falter. May your blade be true!
- **8319**: Now, more than ever, our resolve must not falter. May your blade be true, <Player>!
- **8320**: Haha! We have the fiends right where we want them!
- **8321**: They may thrash and writhe, but they only delay their inevitable demise. Let us put them out of their misery!
- **8322**: Well fought, friend! Those monsters will think twice before showing their foul faces before us again!
- **8323**: Still, we must remain chary. To grow overconfident would be to commit the same fatal error our foe did.

## Events

### Event 65535

#### Metadata

| Field        | Value   |
|--------------|---------|
| Entrypoint   | 0x0000  |
| Data Size    | 1 bytes |
| Instructions | 1       |

```
      00 01 02 03 04 05 06 07  08 09 0A 0B 0C 0D 0E 0F
      -- -- -- -- -- -- -- --  -- -- -- -- -- -- -- --
0000: 00                                                .               
```

#### Opcodes

```
  0: 0x0000 [0x00] END_REQSTACK()
```

### Event 302

#### Metadata

| Field        | Value    |
|--------------|----------|
| Entrypoint   | 0x0001   |
| Data Size    | 81 bytes |
| Instructions | 28       |

```
      00 01 02 03 04 05 06 07  08 09 0A 0B 0C 0D 0E 0F
      -- -- -- -- -- -- -- --  -- -- -- -- -- -- -- --
0000:    42 20 01 1E F0 FF FF  7F 1C 00 80 1D 01 80 23   B ............#
0010: 1D 02 80 23 1D 03 80 23  24 04 80 05 80 05 80 25  ...#...#$......%
0020: 02 00 10 05 80 00 3C 00  03 01 10 06 80 1D 07 80  ......<.........
0030: 23 1D 08 80 23 1D 09 80  23 01 50 00 02 00 10 06  #...#...#.P.....
0040: 80 00 50 00 1D 0A 80 23  03 01 10 0B 80 01 50 00  ..P....#......P.
0050: 21 00                                             !.              
```

#### Opcodes

```
  0: 0x0001 [0x42] SET_CLI_EVENT_CANCEL_DATA()
  1: 0x0002 [0x20] SET_CLI_EVENT_UC_FLAG: Lock player control
  2: 0x0004 [0x1E] EventEntity looks at LocalPlayer and starts talking
  3: 0x0009 [0x1C] WAIT(20* ticks)
  4: 0x000C [0x1D] PRINT_EVENT_MESSAGE(message_id=8189*)
    → "Hail, stranger."
  5: 0x000F [0x23] WAIT_FOR_DIALOG_INTERACTION
  6: 0x0010 [0x1D] PRINT_EVENT_MESSAGE(message_id=8190*)
    → "Spare me the self-introduction, for your name is of no import. In this Goddess-forsaken realm, 'tis only one's blade and strength of will that count for anything."
  7: 0x0013 [0x23] WAIT_FOR_DIALOG_INTERACTION
  8: 0x0014 [0x1D] PRINT_EVENT_MESSAGE(message_id=8191*)
    → "If you intend to live to see the morrow, you must be ever ready to battle to the death at a moment's notice. Can you look me in the eye and say that you have not a mote of hesitance in your heart?"
  9: 0x0017 [0x23] WAIT_FOR_DIALOG_INTERACTION
 10: 0x0018 [0x24] CREATE_DIALOG(message_id=8192*, default_option=0*, option_flags=0*)
    → "Ready to do battle? [I am./More or less...?]"
 11: 0x001F [0x25] WAIT_DIALOG_SELECT()
 12: 0x0020 [0x02] IF !(Work_Zone[0] == 0*) GOTO 0x003C
 13: 0x0028 [0x03] Work_Zone[1] = 1*
 14: 0x002D [0x1D] PRINT_EVENT_MESSAGE(message_id=8194*)
    → "Brave words. I pray for your sake that they are not empty ones."
 15: 0x0030 [0x23] WAIT_FOR_DIALOG_INTERACTION
 16: 0x0031 [0x1D] PRINT_EVENT_MESSAGE(message_id=8195*)
    → "A hideous beast called the waugyl prowls the northern reaches of this wasteland, rending limb from limb any fool who dares venture too close to its lair."
 17: 0x0034 [0x23] WAIT_FOR_DIALOG_INTERACTION
 18: 0x0035 [0x1D] PRINT_EVENT_MESSAGE(message_id=8196*)
    → "You are to slay him and bring back proof of your deed, or die in the trying. This shall be the test of your resolve. Now go!"
 19: 0x0038 [0x23] WAIT_FOR_DIALOG_INTERACTION
 20: 0x0039 [0x01] GOTO 0x0050
 21: 0x003C [0x02] IF !(Work_Zone[0] == 1*) GOTO 0x0050
 22: 0x0044 [0x1D] PRINT_EVENT_MESSAGE(message_id=8193*)
    → "Hah! Such half-hearted resolve will lead you only to an early grave. Best run back behind the ward with the tots and greybeards."
 23: 0x0047 [0x23] WAIT_FOR_DIALOG_INTERACTION
 24: 0x0048 [0x03] Work_Zone[1] = 2*
 25: 0x004D [0x01] GOTO 0x0050

SUBROUTINE_0050:
 26: 0x0050 [0x21] END_EVENT
 27: 0x0051 [0x00] END_REQSTACK()
```

### Event 303

#### Metadata

| Field        | Value    |
|--------------|----------|
| Entrypoint   | 0x0052   |
| Data Size    | 18 bytes |
| Instructions | 8        |

```
      00 01 02 03 04 05 06 07  08 09 0A 0B 0C 0D 0E 0F
      -- -- -- -- -- -- -- --  -- -- -- -- -- -- -- --
0050:       1E F0 FF FF 7F 1C  00 80 1D 08 80 23 1D 09    ...........#..
0060: 80 23 21 00                                       .#!.            
```

#### Opcodes

```
  0: 0x0052 [0x1E] EventEntity looks at LocalPlayer and starts talking
  1: 0x0057 [0x1C] WAIT(20* ticks)
  2: 0x005A [0x1D] PRINT_EVENT_MESSAGE(message_id=8195*)
    → "A hideous beast called the waugyl prowls the northern reaches of this wasteland, rending limb from limb any fool who dares venture too close to its lair."
  3: 0x005D [0x23] WAIT_FOR_DIALOG_INTERACTION
  4: 0x005E [0x1D] PRINT_EVENT_MESSAGE(message_id=8196*)
    → "You are to slay him and bring back proof of your deed, or die in the trying. This shall be the test of your resolve. Now go!"
  5: 0x0061 [0x23] WAIT_FOR_DIALOG_INTERACTION
  6: 0x0062 [0x21] END_EVENT
  7: 0x0063 [0x00] END_REQSTACK()
```

### Event 304

#### Metadata

| Field        | Value    |
|--------------|----------|
| Entrypoint   | 0x0064   |
| Data Size    | 65 bytes |
| Instructions | 19       |

```
      00 01 02 03 04 05 06 07  08 09 0A 0B 0C 0D 0E 0F
      -- -- -- -- -- -- -- --  -- -- -- -- -- -- -- --
0060:             20 01 42 1E  F0 FF FF 7F 1C 00 80 1D       .B.........
0070: 0C 80 23 29 10 F0 FF FF  7F 09 02 02 10 06 80 00  ..#)............
0080: 86 00 1D 0D 80 23 1D 0E  80 23 1D 0F 80 23 1D 10  .....#...#...#..
0090: 80 23 45 11 80 F0 FF FF  7F F0 FF FF 7F 71 73 74  .#E..........qst
00A0: 63 05 80 21 00                                    c..!.           
```

#### Opcodes

```
  0: 0x0064 [0x20] SET_CLI_EVENT_UC_FLAG: Lock player control
  1: 0x0066 [0x42] SET_CLI_EVENT_CANCEL_DATA()
  2: 0x0067 [0x1E] EventEntity looks at LocalPlayer and starts talking
  3: 0x006C [0x1C] WAIT(20* ticks)
  4: 0x006F [0x1D] PRINT_EVENT_MESSAGE(message_id=8197*)
    → "A rare one you are, to back up words with deeds. Consider me impressed. I would ask your name."
  5: 0x0072 [0x23] WAIT_FOR_DIALOG_INTERACTION
  6: 0x0073 [0x29] REQ_SET_WAIT(priority=0x10, entity_id=LocalPlayer, tag_num=0x09)
  7: 0x007A [0x02] IF !(Work_Zone[2] == 1*) GOTO 0x0086
  8: 0x0082 [0x1D] PRINT_EVENT_MESSAGE(message_id=8198*)
    → "<Player>...? Wait. Could you be...?"
  9: 0x0085 [0x23] WAIT_FOR_DIALOG_INTERACTION
 10: 0x0086 [0x1D] PRINT_EVENT_MESSAGE(message_id=8199*)
    → "..."
 11: 0x0089 [0x23] WAIT_FOR_DIALOG_INTERACTION
 12: 0x008A [0x1D] PRINT_EVENT_MESSAGE(message_id=8200*)
    → "Pray forgive my rudeness. Well met, <Player>. Excenmille M Aurchiat raises a toast to your honor and courage."
 13: 0x008D [0x23] WAIT_FOR_DIALOG_INTERACTION
 14: 0x008E [0x1D] PRINT_EVENT_MESSAGE(message_id=8201*)
    → "I would present you with this as well. May your resolve--and your sword arm--never falter."
 15: 0x0091 [0x23] WAIT_FOR_DIALOG_INTERACTION
 16: 0x0092 [0x45] LOAD_SCHEDULED_TASK: Load scheduler "qstc" with entities [LocalPlayer, LocalPlayer], work=[201*, 0*]
 17: 0x00A3 [0x21] END_EVENT
 18: 0x00A4 [0x00] END_REQSTACK()
```

### Event 305

#### Metadata

| Field        | Value    |
|--------------|----------|
| Entrypoint   | 0x00A5   |
| Data Size    | 18 bytes |
| Instructions | 8        |

```
      00 01 02 03 04 05 06 07  08 09 0A 0B 0C 0D 0E 0F
      -- -- -- -- -- -- -- --  -- -- -- -- -- -- -- --
00A0:                1E F0 FF  FF 7F 1C 00 80 1D 12 80       ...........
00B0: 23 1D 13 80 23 21 00                              #...#!.         
```

#### Opcodes

```
  0: 0x00A5 [0x1E] EventEntity looks at LocalPlayer and starts talking
  1: 0x00AA [0x1C] WAIT(20* ticks)
  2: 0x00AD [0x1D] PRINT_EVENT_MESSAGE(message_id=8202*)
    → "Were it merely sufficient to defend oneself against the hordes, 'twould be no great task."
  3: 0x00B0 [0x23] WAIT_FOR_DIALOG_INTERACTION
  4: 0x00B1 [0x1D] PRINT_EVENT_MESSAGE(message_id=8203*)
    → "But no, it is also our duty to protect the weak and infirm. This is the most daunting task of all."
  5: 0x00B4 [0x23] WAIT_FOR_DIALOG_INTERACTION
  6: 0x00B5 [0x21] END_EVENT
  7: 0x00B6 [0x00] END_REQSTACK()
```

### Event 306

#### Metadata

| Field        | Value     |
|--------------|-----------|
| Entrypoint   | 0x00B7    |
| Data Size    | 111 bytes |
| Instructions | 34        |

```
      00 01 02 03 04 05 06 07  08 09 0A 0B 0C 0D 0E 0F
      -- -- -- -- -- -- -- --  -- -- -- -- -- -- -- --
00B0:                      42  20 01 1E F0 FF FF 7F 1C         B .......
00C0: 00 80 1D 14 80 23 24 15  80 05 80 05 80 25 02 00  .....#$......%..
00D0: 10 05 80 00 DD 00 1D 16  80 23 01 EC 00 02 00 10  .........#......
00E0: 06 80 00 EC 00 1D 17 80  23 01 EC 00 1D 18 80 23  ........#......#
00F0: 1D 19 80 23 24 1A 80 05  80 05 80 25 02 00 10 05  ...#$......%....
0100: 80 00 10 01 03 01 10 06  80 1D 1B 80 23 01 24 01  ............#.$.
0110: 02 00 10 06 80 00 24 01  03 01 10 0B 80 1D 1C 80  ......$.........
0120: 23 01 24 01 21 00                                 #.$.!.          
```

#### Opcodes

```
  0: 0x00B7 [0x42] SET_CLI_EVENT_CANCEL_DATA()
  1: 0x00B8 [0x20] SET_CLI_EVENT_UC_FLAG: Lock player control
  2: 0x00BA [0x1E] EventEntity looks at LocalPlayer and starts talking
  3: 0x00BF [0x1C] WAIT(20* ticks)
  4: 0x00C2 [0x1D] PRINT_EVENT_MESSAGE(message_id=8204*)
    → "Hail, <Player>. How fare you since our last meeting?"
  5: 0x00C5 [0x23] WAIT_FOR_DIALOG_INTERACTION
  6: 0x00C6 [0x24] CREATE_DIALOG(message_id=8205*, default_option=0*, option_flags=0*)
    → "How fare you? [Quite well./...]"
  7: 0x00CD [0x25] WAIT_DIALOG_SELECT()
  8: 0x00CE [0x02] IF !(Work_Zone[0] == 0*) GOTO 0x00DD
  9: 0x00D6 [0x1D] PRINT_EVENT_MESSAGE(message_id=8206*)
    → "It heartens me to see that your resolve has not faltered."
 10: 0x00D9 [0x23] WAIT_FOR_DIALOG_INTERACTION
 11: 0x00DA [0x01] GOTO 0x00EC
 12: 0x00DD [0x02] IF !(Work_Zone[0] == 1*) GOTO 0x00EC
 13: 0x00E5 [0x1D] PRINT_EVENT_MESSAGE(message_id=8207*)
    → "Should ever you feel doubt creeping into your heart, brandish your blade until the doubt is no more. These words of wisdom were imparted to me as a child."
 14: 0x00E8 [0x23] WAIT_FOR_DIALOG_INTERACTION
 15: 0x00E9 [0x01] GOTO 0x00EC

SUBROUTINE_00EC:
 16: 0x00EC [0x1D] PRINT_EVENT_MESSAGE(message_id=8208*)
    → "At any rate, you have arrived at the right time. We've just caught wind that the fearsome waugyl is terrorizing the northern reaches once more."
 17: 0x00EF [0x23] WAIT_FOR_DIALOG_INTERACTION
 18: 0x00F0 [0x1D] PRINT_EVENT_MESSAGE(message_id=8209*)
    → "How about it, <Player>? I know that you look to test your strength, and that strength will not be tested by ordinary foes."
 19: 0x00F3 [0x23] WAIT_FOR_DIALOG_INTERACTION
 20: 0x00F4 [0x24] CREATE_DIALOG(message_id=8210*, default_option=0*, option_flags=0*)
    → "Slay the beast? [I will./Another day.]"
 21: 0x00FB [0x25] WAIT_DIALOG_SELECT()
 22: 0x00FC [0x02] IF !(Work_Zone[0] == 0*) GOTO 0x0110
 23: 0x0104 [0x03] Work_Zone[1] = 1*
 24: 0x0109 [0x1D] PRINT_EVENT_MESSAGE(message_id=8212*)
    → "Bring proof of your triumph and I shall reward you in kind. Go forth, <Player>."
 25: 0x010C [0x23] WAIT_FOR_DIALOG_INTERACTION
 26: 0x010D [0x01] GOTO 0x0124
 27: 0x0110 [0x02] IF !(Work_Zone[0] == 1*) GOTO 0x0124
 28: 0x0118 [0x03] Work_Zone[1] = 2*
 29: 0x011D [0x1D] PRINT_EVENT_MESSAGE(message_id=8211*)
    → "Strange. This is not the <Player> I know. If you rediscover your resolve, you need only speak with me."
 30: 0x0120 [0x23] WAIT_FOR_DIALOG_INTERACTION
 31: 0x0121 [0x01] GOTO 0x0124

SUBROUTINE_0124:
 32: 0x0124 [0x21] END_EVENT
 33: 0x0125 [0x00] END_REQSTACK()
```

### Event 307

#### Metadata

| Field        | Value    |
|--------------|----------|
| Entrypoint   | 0x0126   |
| Data Size    | 18 bytes |
| Instructions | 8        |

```
      00 01 02 03 04 05 06 07  08 09 0A 0B 0C 0D 0E 0F
      -- -- -- -- -- -- -- --  -- -- -- -- -- -- -- --
0120:                   1E F0  FF FF 7F 1C 00 80 1D 1D        ..........
0130: 80 23 1D 1B 80 23 21 00                           .#...#!.        
```

#### Opcodes

```
  0: 0x0126 [0x1E] EventEntity looks at LocalPlayer and starts talking
  1: 0x012B [0x1C] WAIT(20* ticks)
  2: 0x012E [0x1D] PRINT_EVENT_MESSAGE(message_id=8213*)
    → "The fearsome waugyl has returned to his old stomping grounds at the cliffs northward of here."
  3: 0x0131 [0x23] WAIT_FOR_DIALOG_INTERACTION
  4: 0x0132 [0x1D] PRINT_EVENT_MESSAGE(message_id=8212*)
    → "Bring proof of your triumph and I shall reward you in kind. Go forth, <Player>."
  5: 0x0135 [0x23] WAIT_FOR_DIALOG_INTERACTION
  6: 0x0136 [0x21] END_EVENT
  7: 0x0137 [0x00] END_REQSTACK()
```

### Event 308

#### Metadata

| Field        | Value    |
|--------------|----------|
| Entrypoint   | 0x0138   |
| Data Size    | 38 bytes |
| Instructions | 11       |

```
      00 01 02 03 04 05 06 07  08 09 0A 0B 0C 0D 0E 0F
      -- -- -- -- -- -- -- --  -- -- -- -- -- -- -- --
0130:                          42 20 01 1E F0 FF FF 7F          B ......
0140: 1C 00 80 1D 1E 80 23 1D  1F 80 23 45 11 80 F0 FF  ......#...#E....
0150: FF 7F F0 FF FF 7F 71 73  74 63 05 80 21 00        ......qstc..!.  
```

#### Opcodes

```
  0: 0x0138 [0x42] SET_CLI_EVENT_CANCEL_DATA()
  1: 0x0139 [0x20] SET_CLI_EVENT_UC_FLAG: Lock player control
  2: 0x013B [0x1E] EventEntity looks at LocalPlayer and starts talking
  3: 0x0140 [0x1C] WAIT(20* ticks)
  4: 0x0143 [0x1D] PRINT_EVENT_MESSAGE(message_id=8214*)
    → "Your courage and abilities have not diminished in the least, I see."
  5: 0x0146 [0x23] WAIT_FOR_DIALOG_INTERACTION
  6: 0x0147 [0x1D] PRINT_EVENT_MESSAGE(message_id=8215*)
    → "You've earned this. Yet the beast will not lie dormant forever. Return here if you wish to test your sword arm again."
  7: 0x014A [0x23] WAIT_FOR_DIALOG_INTERACTION
  8: 0x014B [0x45] LOAD_SCHEDULED_TASK: Load scheduler "qstc" with entities [LocalPlayer, LocalPlayer], work=[201*, 0*]
  9: 0x015C [0x21] END_EVENT
 10: 0x015D [0x00] END_REQSTACK()
```

### Event 352

#### Metadata

| Field        | Value     |
|--------------|-----------|
| Entrypoint   | 0x015E    |
| Data Size    | 119 bytes |
| Instructions | 38        |

```
      00 01 02 03 04 05 06 07  08 09 0A 0B 0C 0D 0E 0F
      -- -- -- -- -- -- -- --  -- -- -- -- -- -- -- --
0150:                                            1E F0                ..
0160: FF FF 7F 1C 00 80 03 00  00 02 10 03 01 00 09 10  ................
0170: 02 00 00 20 80 03 83 01  1D 21 80 23 1D 22 80 23  ... .....!.#.".#
0180: 01 D3 01 02 00 00 23 80  03 96 01 1D 24 80 23 1D  ......#.....$.#.
0190: 25 80 23 01 D3 01 02 00  00 26 80 03 B8 01 1D 27  %.#......&.....'
01A0: 80 23 02 01 00 06 80 00  B1 01 1D 28 80 23 01 B5  .#.........(.#..
01B0: 01 1D 29 80 23 01 D3 01  02 00 00 2A 80 03 CB 01  ..).#......*....
01C0: 1D 2B 80 23 1D 2C 80 23  01 D3 01 1D 2D 80 23 1D  .+.#.,.#....-.#.
01D0: 2E 80 23 21 00                                    ..#!.           
```

#### Opcodes

```
  0: 0x015E [0x1E] EventEntity looks at LocalPlayer and starts talking
  1: 0x0163 [0x1C] WAIT(20* ticks)
  2: 0x0166 [0x03] ExtData[1]->WorkLocal[0] = Work_Zone[2]
  3: 0x016B [0x03] ExtData[1]->WorkLocal[1] = Work_Zone[9]
  4: 0x0170 [0x02] IF !(ExtData[1]->WorkLocal[0] >= 25*) GOTO 0x0183
  5: 0x0178 [0x1D] PRINT_EVENT_MESSAGE(message_id=8313*)
    → "No matter how overwhelming the odds, there is no battle that cannot be won."
  6: 0x017B [0x23] WAIT_FOR_DIALOG_INTERACTION
  7: 0x017C [0x1D] PRINT_EVENT_MESSAGE(message_id=8314*)
    → "We fight for our land! For our future! Show the vile fiends no quarter!"
  8: 0x017F [0x23] WAIT_FOR_DIALOG_INTERACTION
  9: 0x0180 [0x01] GOTO 0x01D3
 10: 0x0183 [0x02] IF !(ExtData[1]->WorkLocal[0] >= 50*) GOTO 0x0196
 11: 0x018B [0x1D] PRINT_EVENT_MESSAGE(message_id=8315*)
    → "The enemy presence is strong here. The fiends are confident, as well they should be."
 12: 0x018E [0x23] WAIT_FOR_DIALOG_INTERACTION
 13: 0x018F [0x1D] PRINT_EVENT_MESSAGE(message_id=8316*)
    → "Yet, this overconfidence will be their downfall. Strike at the heart of the foe with all your might!"
 14: 0x0192 [0x23] WAIT_FOR_DIALOG_INTERACTION
 15: 0x0193 [0x01] GOTO 0x01D3
 16: 0x0196 [0x02] IF !(ExtData[1]->WorkLocal[0] >= 75*) GOTO 0x01B8
 17: 0x019E [0x1D] PRINT_EVENT_MESSAGE(message_id=8317*)
    → "The battle has drawn even. The crucial turning point is at hand."
 18: 0x01A1 [0x23] WAIT_FOR_DIALOG_INTERACTION
 19: 0x01A2 [0x02] IF !(ExtData[1]->WorkLocal[1] == 1*) GOTO 0x01B1
 20: 0x01AA [0x1D] PRINT_EVENT_MESSAGE(message_id=8319*)
    → "Now, more than ever, our resolve must not falter. May your blade be true, <Player>!"
 21: 0x01AD [0x23] WAIT_FOR_DIALOG_INTERACTION
 22: 0x01AE [0x01] GOTO 0x01B5
 23: 0x01B1 [0x1D] PRINT_EVENT_MESSAGE(message_id=8318*)
    → "Now, more than ever, our resolve must not falter. May your blade be true!"
 24: 0x01B4 [0x23] WAIT_FOR_DIALOG_INTERACTION

SUBROUTINE_01B5:
 25: 0x01B5 [0x01] GOTO 0x01D3
 26: 0x01B8 [0x02] IF !(ExtData[1]->WorkLocal[0] >= 100*) GOTO 0x01CB
 27: 0x01C0 [0x1D] PRINT_EVENT_MESSAGE(message_id=8320*)
    → "Haha! We have the fiends right where we want them!"
 28: 0x01C3 [0x23] WAIT_FOR_DIALOG_INTERACTION
 29: 0x01C4 [0x1D] PRINT_EVENT_MESSAGE(message_id=8321*)
    → "They may thrash and writhe, but they only delay their inevitable demise. Let us put them out of their misery!"
 30: 0x01C7 [0x23] WAIT_FOR_DIALOG_INTERACTION
 31: 0x01C8 [0x01] GOTO 0x01D3
 32: 0x01CB [0x1D] PRINT_EVENT_MESSAGE(message_id=8322*)
    → "Well fought, friend! Those monsters will think twice before showing their foul faces before us again!"
 33: 0x01CE [0x23] WAIT_FOR_DIALOG_INTERACTION
 34: 0x01CF [0x1D] PRINT_EVENT_MESSAGE(message_id=8323*)
    → "Still, we must remain chary. To grow overconfident would be to commit the same fatal error our foe did."
 35: 0x01D2 [0x23] WAIT_FOR_DIALOG_INTERACTION

SUBROUTINE_01D3:
 36: 0x01D3 [0x21] END_EVENT
 37: 0x01D4 [0x00] END_REQSTACK()
```
