# 17670748 - Zacc

## Common Data

| Field            | Value                      |
|------------------|----------------------------|
| Zone             | Abyssea - Altepa (ID: 218) |
| Block Size       | 124 bytes                  |
| Total Events     | 4                          |
| References Count | 9                          |

## List of Events

| Event ID                 | Entrypoint   |   Size |   Instructions |
|--------------------------|--------------|--------|----------------|
| [65535](#event-65535)    | 0x0000       |      1 |              1 |
| [277](#event-277)        | 0x0001       |      1 |              1 |
| [65535.1](#event-655351) | 0x0002       |     39 |              7 |
| [65535.2](#event-655352) | 0x0029       |     12 |              3 |

## DAT References (imed_data)

|   Index | Hex Value   |   Dec Value |
|---------|-------------|-------------|
|       0 | 0x0000      |           0 |
|       1 | 0x0001      |           1 |
|       2 | 0xFFF409EA  |  4294183402 |
|       3 | 0xFFF6B75E  |  4294358878 |
|       4 | 0xFFFFAB58  |  4294945624 |
|       5 | 0x0369      |         873 |
|       6 | 0x0046      |          70 |
|       7 | 0x0078      |         120 |
|       8 | 0x00B4      |         180 |

## Events

### Event 65535

#### Metadata

| Field        | Value   |
|--------------|---------|
| Entrypoint   | 0x0000  |
| Data Size    | 1 bytes |
| Instructions | 1       |

```
      00 01 02 03 04 05 06 07  08 09 0A 0B 0C 0D 0E 0F
      -- -- -- -- -- -- -- --  -- -- -- -- -- -- -- --
0000: 00                                                .               
```

#### Opcodes

```
  0: 0x0000 [0x00] END_REQSTACK()
```

### Event 277

#### Metadata

| Field        | Value   |
|--------------|---------|
| Entrypoint   | 0x0001  |
| Data Size    | 1 bytes |
| Instructions | 1       |

```
      00 01 02 03 04 05 06 07  08 09 0A 0B 0C 0D 0E 0F
      -- -- -- -- -- -- -- --  -- -- -- -- -- -- -- --
0000:    00                                              .              
```

#### Opcodes

```
  0: 0x0001 [0x00] END_REQSTACK()
```

### Event 65535.1

#### Metadata

| Field        | Value    |
|--------------|----------|
| Entrypoint   | 0x0002   |
| Data Size    | 39 bytes |
| Instructions | 7        |

```
      00 01 02 03 04 05 06 07  08 09 0A 0B 0C 0D 0E 0F
      -- -- -- -- -- -- -- --  -- -- -- -- -- -- -- --
0000:       6C F8 FF FF 7F 00  80 01 80 1C 01 80 37 02    l...........7.
0010: 80 03 80 04 80 05 80 1C  01 80 6C F8 FF FF 7F 06  ..........l.....
0020: 80 07 80 1E F0 FF FF 7F  00                       .........       
```

#### Opcodes

```
  0: 0x0002 [0x6C] FADE_ENTITY_COLOR(entity_id=EventEntity, end_alpha=0*, fade_time=1*)
  1: 0x000B [0x1C] WAIT(1* ticks)
  2: 0x000E [0x37] UPDATE_EVENT_POSITION_AND_DIR: x=-783.894*, z=-608.418*, y=-21.672*, direction=76.7°*
  3: 0x0017 [0x1C] WAIT(1* ticks)
  4: 0x001A [0x6C] FADE_ENTITY_COLOR(entity_id=EventEntity, end_alpha=70*, fade_time=120*)
  5: 0x0023 [0x1E] EventEntity looks at LocalPlayer and starts talking
  6: 0x0028 [0x00] END_REQSTACK()
```

### Event 65535.2

#### Metadata

| Field        | Value    |
|--------------|----------|
| Entrypoint   | 0x0029   |
| Data Size    | 12 bytes |
| Instructions | 3        |

```
      00 01 02 03 04 05 06 07  08 09 0A 0B 0C 0D 0E 0F
      -- -- -- -- -- -- -- --  -- -- -- -- -- -- -- --
0020:                             6C F8 FF FF 7F 00 80           l......
0030: 08 80 22 01 00                                    .."..           
```

#### Opcodes

```
  0: 0x0029 [0x6C] FADE_ENTITY_COLOR(entity_id=EventEntity, end_alpha=0*, fade_time=180*)
  1: 0x0032 [0x22] ENTITY_HIDE_FLAG(enabled=0x01)
  2: 0x0034 [0x00] END_REQSTACK()
```
