# 17670756 - Chemioue

## Common Data

| Field            | Value                      |
|------------------|----------------------------|
| Zone             | Abyssea - Altepa (ID: 218) |
| Block Size       | 228 bytes                  |
| Total Events     | 3                          |
| References Count | 13                         |

## List of Events

| Event ID              | Entrypoint   |   Size |   Instructions |
|-----------------------|--------------|--------|----------------|
| [65535](#event-65535) | 0x0000       |      1 |              1 |
| [323](#event-323)     | 0x0001       |     14 |              6 |
| [320](#event-320)     | 0x000F       |    132 |             38 |

## DAT References (imed_data)

|   Index | Hex Value   |   Dec Value |
|---------|-------------|-------------|
|       0 | 0x0014      |          20 |
|       1 | 0x1F8E      |        8078 |
|       2 | 0x1F86      |        8070 |
|       3 | 0x0000      |           0 |
|       4 | 0x1F87      |        8071 |
|       5 | 0x0001      |           1 |
|       6 | 0x1F88      |        8072 |
|       7 | 0x0002      |           2 |
|       8 | 0x1F89      |        8073 |
|       9 | 0x1F8A      |        8074 |
|      10 | 0x1F8B      |        8075 |
|      11 | 0x1F8C      |        8076 |
|      12 | 0x1F8D      |        8077 |

## String References

- **8070**: My report? I fear I've been too busy...<yawn>...fighting off the hordes to put my findings into writing. You seem like you have some free time on your hands, so why don't I just share them with you now?
- **8071**: The fiend that attacked us was [colored most extravagantly/rather subdued in hue/of a dreadfully garish hue/glistening black].
- **8072**: The fiend that attacked us [was a pointy-looking thing/was a rather rotund critter/had an angular-looking body/was a curious flat creature].
- **8073**: The fiend that attacked us [descended from upon high/came from the water/popped out from a shadowy crag/burst forth from the sand].
- **8074**: Ah yes, and one of my unfortunate colleagues was wounded in the attack. She was complaining of terrible [chest pains/dizziness/headaches/ringing in her ears].
- **8075**: I'm afraid that's...<yawn>...all I was able to discern. Did you need anything else?
- **8076**: Hear the report again? [No need./Yes, please.]
- **8077**: Excellent! Pass that along to Chumimi, along with my most sincere...<yawn>...apologies. Now, if you'll excuse me, I have to... Zzzzzz...
- **8078**: The hordes strike with such ferocity, it is all I can do to hold my ground. <Sigh>... Will I never see my colleagues again?

## Events

### Event 65535

#### Metadata

| Field        | Value   |
|--------------|---------|
| Entrypoint   | 0x0000  |
| Data Size    | 1 bytes |
| Instructions | 1       |

```
      00 01 02 03 04 05 06 07  08 09 0A 0B 0C 0D 0E 0F
      -- -- -- -- -- -- -- --  -- -- -- -- -- -- -- --
0000: 00                                                .               
```

#### Opcodes

```
  0: 0x0000 [0x00] END_REQSTACK()
```

### Event 323

#### Metadata

| Field        | Value    |
|--------------|----------|
| Entrypoint   | 0x0001   |
| Data Size    | 14 bytes |
| Instructions | 6        |

```
      00 01 02 03 04 05 06 07  08 09 0A 0B 0C 0D 0E 0F
      -- -- -- -- -- -- -- --  -- -- -- -- -- -- -- --
0000:    1E F0 FF FF 7F 1C 00  80 1D 01 80 23 21 00      ...........#!. 
```

#### Opcodes

```
  0: 0x0001 [0x1E] EventEntity looks at LocalPlayer and starts talking
  1: 0x0006 [0x1C] WAIT(20* ticks)
  2: 0x0009 [0x1D] PRINT_EVENT_MESSAGE(message_id=8078*)
    → "The hordes strike with such ferocity, it is all I can do to hold my ground. <Sigh>... Will I never see my colleagues again?"
  3: 0x000C [0x23] WAIT_FOR_DIALOG_INTERACTION
  4: 0x000D [0x21] END_EVENT
  5: 0x000E [0x00] END_REQSTACK()
```

### Event 320

#### Metadata

| Field        | Value     |
|--------------|-----------|
| Entrypoint   | 0x000F    |
| Data Size    | 132 bytes |
| Instructions | 37        |

```
      00 01 02 03 04 05 06 07  08 09 0A 0B 0C 0D 0E 0F
      -- -- -- -- -- -- -- --  -- -- -- -- -- -- -- --
0000:                                               03                 .
0010: 00 00 02 10 03 01 00 03  10 03 02 00 04 10 20 01  .............. .
0020: 42 1E F0 FF FF 7F 1C 00  80 1D 02 80 23 03 02 10  B...........#...
0030: 02 00 02 01 00 03 80 80  41 00 1D 04 80 23 01 5F  ........A....#._
0040: 00 02 01 00 05 80 80 50  00 1D 06 80 23 01 5F 00  .......P....#._.
0050: 02 01 00 07 80 80 5F 00  1D 08 80 23 01 5F 00 03  ......_....#._..
0060: 02 10 00 00 1D 09 80 23  1D 0A 80 23 24 0B 80 03  .......#...#$...
0070: 80 03 80 25 02 00 10 03  80 00 7F 00 01 8D 00 02  ...%............
0080: 00 10 05 80 00 8D 00 01  2D 00 01 8D 00 1D 0C 80  ........-.......
0090: 23 21 00                                          #!.             
```

#### Opcodes

```
  0: 0x000F [0x03] ExtData[1]->WorkLocal[0] = Work_Zone[2]
  1: 0x0014 [0x03] ExtData[1]->WorkLocal[1] = Work_Zone[3]
  2: 0x0019 [0x03] ExtData[1]->WorkLocal[2] = Work_Zone[4]
  3: 0x001E [0x20] SET_CLI_EVENT_UC_FLAG: Lock player control
  4: 0x0020 [0x42] SET_CLI_EVENT_CANCEL_DATA()
  5: 0x0021 [0x1E] EventEntity looks at LocalPlayer and starts talking
  6: 0x0026 [0x1C] WAIT(20* ticks)
  7: 0x0029 [0x1D] PRINT_EVENT_MESSAGE(message_id=8070*)
    → "My report? I fear I've been too busy...<yawn>...fighting off the hordes to put my findings into writing. You seem like you have some free time on your hands, so why don't I just share them with you now?"
  8: 0x002C [0x23] WAIT_FOR_DIALOG_INTERACTION
  9: 0x002D [0x03] Work_Zone[2] = ExtData[1]->WorkLocal[2]
 10: 0x0032 [0x02] IF !(ExtData[1]->WorkLocal[1] == 0*) GOTO 0x0041
 11: 0x003A [0x1D] PRINT_EVENT_MESSAGE(message_id=8071*)
    → "The fiend that attacked us was [colored most extravagantly/rather subdued in hue/of a dreadfully garish hue/glistening black]."
 12: 0x003D [0x23] WAIT_FOR_DIALOG_INTERACTION
 13: 0x003E [0x01] GOTO 0x005F
 14: 0x0041 [0x02] IF !(ExtData[1]->WorkLocal[1] == 1*) GOTO 0x0050
 15: 0x0049 [0x1D] PRINT_EVENT_MESSAGE(message_id=8072*)
    → "The fiend that attacked us [was a pointy-looking thing/was a rather rotund critter/had an angular-looking body/was a curious flat creature]."
 16: 0x004C [0x23] WAIT_FOR_DIALOG_INTERACTION
 17: 0x004D [0x01] GOTO 0x005F
 18: 0x0050 [0x02] IF !(ExtData[1]->WorkLocal[1] == 2*) GOTO 0x005F
 19: 0x0058 [0x1D] PRINT_EVENT_MESSAGE(message_id=8073*)
    → "The fiend that attacked us [descended from upon high/came from the water/popped out from a shadowy crag/burst forth from the sand]."
 20: 0x005B [0x23] WAIT_FOR_DIALOG_INTERACTION
 21: 0x005C [0x01] GOTO 0x005F

SUBROUTINE_005F:
 22: 0x005F [0x03] Work_Zone[2] = ExtData[1]->WorkLocal[0]
 23: 0x0064 [0x1D] PRINT_EVENT_MESSAGE(message_id=8074*)
    → "Ah yes, and one of my unfortunate colleagues was wounded in the attack. She was complaining of terrible [chest pains/dizziness/headaches/ringing in her ears]."
 24: 0x0067 [0x23] WAIT_FOR_DIALOG_INTERACTION
 25: 0x0068 [0x1D] PRINT_EVENT_MESSAGE(message_id=8075*)
    → "I'm afraid that's...<yawn>...all I was able to discern. Did you need anything else?"
 26: 0x006B [0x23] WAIT_FOR_DIALOG_INTERACTION
 27: 0x006C [0x24] CREATE_DIALOG(message_id=8076*, default_option=0*, option_flags=0*)
    → "Hear the report again? [No need./Yes, please.]"
 28: 0x0073 [0x25] WAIT_DIALOG_SELECT()
 29: 0x0074 [0x02] IF !(Work_Zone[0] == 0*) GOTO 0x007F
 30: 0x007C [0x01] GOTO 0x008D
 31: 0x007F [0x02] IF !(Work_Zone[0] == 1*) GOTO 0x008D
 32: 0x0087 [0x01] GOTO 0x002D

SUBROUTINE_008D:
 33: 0x008D [0x1D] PRINT_EVENT_MESSAGE(message_id=8077*)
    → "Excellent! Pass that along to Chumimi, along with my most sincere...<yawn>...apologies. Now, if you'll excuse me, I have to... Zzzzzz..."
 34: 0x0090 [0x23] WAIT_FOR_DIALOG_INTERACTION
 35: 0x0091 [0x21] END_EVENT
 36: 0x0092 [0x00] END_REQSTACK()
```

#### Data or dead code:

```
# Dead code (unreachable instructions):
     0x008A [0x01] GOTO 0x008D
```
