# 17670763 - Volker

## Common Data

| Field            | Value                      |
|------------------|----------------------------|
| Zone             | Abyssea - Altepa (ID: 218) |
| Block Size       | 216 bytes                  |
| Total Events     | 3                          |
| References Count | 17                         |

## List of Events

| Event ID              | Entrypoint   |   Size |   Instructions |
|-----------------------|--------------|--------|----------------|
| [65535](#event-65535) | 0x0000       |      1 |              1 |
| [348](#event-348)     | 0x0001       |     18 |              8 |
| [354](#event-354)     | 0x0013       |     99 |             33 |

## DAT References (imed_data)

|   Index | Hex Value   |   Dec Value |
|---------|-------------|-------------|
|       0 | 0x0014      |          20 |
|       1 | 0x2091      |        8337 |
|       2 | 0x2092      |        8338 |
|       3 | 0x0019      |          25 |
|       4 | 0x2093      |        8339 |
|       5 | 0x2094      |        8340 |
|       6 | 0x0032      |          50 |
|       7 | 0x2095      |        8341 |
|       8 | 0x2096      |        8342 |
|       9 | 0x004B      |          75 |
|      10 | 0x2097      |        8343 |
|      11 | 0x2098      |        8344 |
|      12 | 0x0064      |         100 |
|      13 | 0x2099      |        8345 |
|      14 | 0x209A      |        8346 |
|      15 | 0x209B      |        8347 |
|      16 | 0x209C      |        8348 |

## String References

- **8337**: I am Volker, formerly of the Mythril Musketeers. Now, I command a ragtag regiment here in the desert, far from my former comrades who for all I know may be long dead.
- **8338**: But I have found new comrades here, and we fight the most crucial battle of all--that for our kind's very survival. Fight with us, friend, and together we will take back our future.
- **8339**: Numbers, position...our enemy holds every advantage.
- **8340**: But never shall we yield. Show the enemy that we have only begun to fight!
- **8341**: We are at a disadvantage, but we have seen far worse.
- **8342**: Keep fighting as you have. It is only a matter of time before we turn the tide.
- **8343**: Haha! Our foe underestimated us, and now they suffer the consequences! The Resistance holds the upper hand at last!
- **8344**: But be wary. The enemy we confront is far more dangerous than any beastman. I fear we've not seen the full extent of their unearthly powers yet.
- **8345**: Good work, friend! We're on the verge of overwhelming our enemy completely.
- **8346**: This is our chance to strike the final blow! Today we take back this land, and with it our future!
- **8347**: Brilliant fighting! We've wiped the enemy clean off the map!
- **8348**: Take pride in this day, my friend. But do not rest easy. In this shattered world, the next threat to our existence is ever lurking in the shadows.

## Events

### Event 65535

#### Metadata

| Field        | Value   |
|--------------|---------|
| Entrypoint   | 0x0000  |
| Data Size    | 1 bytes |
| Instructions | 1       |

```
      00 01 02 03 04 05 06 07  08 09 0A 0B 0C 0D 0E 0F
      -- -- -- -- -- -- -- --  -- -- -- -- -- -- -- --
0000: 00                                                .               
```

#### Opcodes

```
  0: 0x0000 [0x00] END_REQSTACK()
```

### Event 348

#### Metadata

| Field        | Value    |
|--------------|----------|
| Entrypoint   | 0x0001   |
| Data Size    | 18 bytes |
| Instructions | 8        |

```
      00 01 02 03 04 05 06 07  08 09 0A 0B 0C 0D 0E 0F
      -- -- -- -- -- -- -- --  -- -- -- -- -- -- -- --
0000:    1E F0 FF FF 7F 1C 00  80 1D 01 80 23 1D 02 80   ...........#...
0010: 23 21 00                                          #!.             
```

#### Opcodes

```
  0: 0x0001 [0x1E] EventEntity looks at LocalPlayer and starts talking
  1: 0x0006 [0x1C] WAIT(20* ticks)
  2: 0x0009 [0x1D] PRINT_EVENT_MESSAGE(message_id=8337*)
    → "I am Volker, formerly of the Mythril Musketeers. Now, I command a ragtag regiment here in the desert, far from my former comrades who for all I know may be long dead."
  3: 0x000C [0x23] WAIT_FOR_DIALOG_INTERACTION
  4: 0x000D [0x1D] PRINT_EVENT_MESSAGE(message_id=8338*)
    → "But I have found new comrades here, and we fight the most crucial battle of all--that for our kind's very survival. Fight with us, friend, and together we will take back our future."
  5: 0x0010 [0x23] WAIT_FOR_DIALOG_INTERACTION
  6: 0x0011 [0x21] END_EVENT
  7: 0x0012 [0x00] END_REQSTACK()
```

### Event 354

#### Metadata

| Field        | Value    |
|--------------|----------|
| Entrypoint   | 0x0013   |
| Data Size    | 99 bytes |
| Instructions | 33       |

```
      00 01 02 03 04 05 06 07  08 09 0A 0B 0C 0D 0E 0F
      -- -- -- -- -- -- -- --  -- -- -- -- -- -- -- --
0010:          1E F0 FF FF 7F  1C 00 80 03 00 00 02 10     .............
0020: 02 00 00 03 80 03 33 00  1D 04 80 23 1D 05 80 23  ......3....#...#
0030: 01 74 00 02 00 00 06 80  03 46 00 1D 07 80 23 1D  .t.......F....#.
0040: 08 80 23 01 74 00 02 00  00 09 80 03 59 00 1D 0A  ..#.t.......Y...
0050: 80 23 1D 0B 80 23 01 74  00 02 00 00 0C 80 03 6C  .#...#.t.......l
0060: 00 1D 0D 80 23 1D 0E 80  23 01 74 00 1D 0F 80 23  ....#...#.t....#
0070: 1D 10 80 23 21 00                                 ...#!.          
```

#### Opcodes

```
  0: 0x0013 [0x1E] EventEntity looks at LocalPlayer and starts talking
  1: 0x0018 [0x1C] WAIT(20* ticks)
  2: 0x001B [0x03] ExtData[1]->WorkLocal[0] = Work_Zone[2]
  3: 0x0020 [0x02] IF !(ExtData[1]->WorkLocal[0] >= 25*) GOTO 0x0033
  4: 0x0028 [0x1D] PRINT_EVENT_MESSAGE(message_id=8339*)
    → "Numbers, position...our enemy holds every advantage."
  5: 0x002B [0x23] WAIT_FOR_DIALOG_INTERACTION
  6: 0x002C [0x1D] PRINT_EVENT_MESSAGE(message_id=8340*)
    → "But never shall we yield. Show the enemy that we have only begun to fight!"
  7: 0x002F [0x23] WAIT_FOR_DIALOG_INTERACTION
  8: 0x0030 [0x01] GOTO 0x0074
  9: 0x0033 [0x02] IF !(ExtData[1]->WorkLocal[0] >= 50*) GOTO 0x0046
 10: 0x003B [0x1D] PRINT_EVENT_MESSAGE(message_id=8341*)
    → "We are at a disadvantage, but we have seen far worse."
 11: 0x003E [0x23] WAIT_FOR_DIALOG_INTERACTION
 12: 0x003F [0x1D] PRINT_EVENT_MESSAGE(message_id=8342*)
    → "Keep fighting as you have. It is only a matter of time before we turn the tide."
 13: 0x0042 [0x23] WAIT_FOR_DIALOG_INTERACTION
 14: 0x0043 [0x01] GOTO 0x0074
 15: 0x0046 [0x02] IF !(ExtData[1]->WorkLocal[0] >= 75*) GOTO 0x0059
 16: 0x004E [0x1D] PRINT_EVENT_MESSAGE(message_id=8343*)
    → "Haha! Our foe underestimated us, and now they suffer the consequences! The Resistance holds the upper hand at last!"
 17: 0x0051 [0x23] WAIT_FOR_DIALOG_INTERACTION
 18: 0x0052 [0x1D] PRINT_EVENT_MESSAGE(message_id=8344*)
    → "But be wary. The enemy we confront is far more dangerous than any beastman. I fear we've not seen the full extent of their unearthly powers yet."
 19: 0x0055 [0x23] WAIT_FOR_DIALOG_INTERACTION
 20: 0x0056 [0x01] GOTO 0x0074
 21: 0x0059 [0x02] IF !(ExtData[1]->WorkLocal[0] >= 100*) GOTO 0x006C
 22: 0x0061 [0x1D] PRINT_EVENT_MESSAGE(message_id=8345*)
    → "Good work, friend! We're on the verge of overwhelming our enemy completely."
 23: 0x0064 [0x23] WAIT_FOR_DIALOG_INTERACTION
 24: 0x0065 [0x1D] PRINT_EVENT_MESSAGE(message_id=8346*)
    → "This is our chance to strike the final blow! Today we take back this land, and with it our future!"
 25: 0x0068 [0x23] WAIT_FOR_DIALOG_INTERACTION
 26: 0x0069 [0x01] GOTO 0x0074
 27: 0x006C [0x1D] PRINT_EVENT_MESSAGE(message_id=8347*)
    → "Brilliant fighting! We've wiped the enemy clean off the map!"
 28: 0x006F [0x23] WAIT_FOR_DIALOG_INTERACTION
 29: 0x0070 [0x1D] PRINT_EVENT_MESSAGE(message_id=8348*)
    → "Take pride in this day, my friend. But do not rest easy. In this shattered world, the next threat to our existence is ever lurking in the shadows."
 30: 0x0073 [0x23] WAIT_FOR_DIALOG_INTERACTION

SUBROUTINE_0074:
 31: 0x0074 [0x21] END_EVENT
 32: 0x0075 [0x00] END_REQSTACK()
```
