# 17670780 - Dominion Sergeant

## Common Data

| Field            | Value                      |
|------------------|----------------------------|
| Zone             | Abyssea - Altepa (ID: 218) |
| Block Size       | 1304 bytes                 |
| Total Events     | 2                          |
| References Count | 45                         |

## List of Events

| Event ID              | Entrypoint   |   Size |   Instructions |
|-----------------------|--------------|--------|----------------|
| [65535](#event-65535) | 0x0000       |      1 |              1 |
| [502](#event-502)     | 0x0001       |   1098 |            246 |

## DAT References (imed_data)

|   Index | Hex Value   |   Dec Value |
|---------|-------------|-------------|
|       0 | 0x0002      |           2 |
|       1 | 0x0000      |           0 |
|       2 | 0x0001      |           1 |
|       3 | 0x0003      |           3 |
|       4 | 0x20AC      |        8364 |
|       5 | 0x20AD      |        8365 |
|       6 | 0x20AE      |        8366 |
|       7 | 0x0004      |           4 |
|       8 | 0x0007      |           7 |
|       9 | 0x20AF      |        8367 |
|      10 | 0x20B0      |        8368 |
|      11 | 0x022F      |         559 |
|      12 | 0x28B5      |       10421 |
|      13 | 0x0006      |           6 |
|      14 | 0x28B0      |       10416 |
|      15 | 0x28B1      |       10417 |
|      16 | 0x28B2      |       10418 |
|      17 | 0x0005      |           5 |
|      18 | 0x24B0      |        9392 |
|      19 | 0x28E8      |       10472 |
|      20 | 0x28EC      |       10476 |
|      21 | 0x28EB      |       10475 |
|      22 | 0x28ED      |       10477 |
|      23 | 0x0008      |           8 |
|      24 | 0x28E9      |       10473 |
|      25 | 0x0009      |           9 |
|      26 | 0x28EA      |       10474 |
|      27 | 0x28EF      |       10479 |
|      28 | 0x28F0      |       10480 |
|      29 | 0x28F1      |       10481 |
|      30 | 0x28F2      |       10482 |
|      31 | 0x28F3      |       10483 |
|      32 | 0x28F4      |       10484 |
|      33 | 0x28F5      |       10485 |
|      34 | 0x28F6      |       10486 |
|      35 | 0x28F7      |       10487 |
|      36 | 0x28F8      |       10488 |
|      37 | 0x28F9      |       10489 |
|      38 | 0x28FA      |       10490 |
|      39 | 0x28FB      |       10491 |
|      40 | 0x000F      |          15 |
|      41 | 0x0010      |          16 |
|      42 | 0x0017      |          23 |
|      43 | 0x0018      |          24 |
|      44 | 0x001F      |          31 |

## String References

- **8364**: Greetings, friend. I am charged with recruiting able-bodied warriors for Dominion Ops under Captain [Excenmille/Nanaa Mihgo/Volker]'s jurisdiction. If my soft-spoken nature doesn't strike you as particularly sergeant-like, it is because I'm still new to my role. But I digress. You've come to lend your sword arm to the cause, I trust?
- **8365**: What would you like to do? [About turn and leave./Partake in Dominion Ops./Review current objective./Cancel current objective./Learn about Dominion Ops./View current morale benefits.]
- **8366**: Undertake which objective? [None for now./No.1 (Influence: $0%)/No.2 (Influence: $1%)/No.3 (Influence: $2%)/No.4 (Influence: $3%)/No.5 (Influence: $4%)/No.6 (Influence: $5%)/No.7 (Influence: $6%)/No.8 (Influence: $7%)/No.9 (Influence: $8%)/No.10 (Influence: $9%)/No.11 (Influence: $10%)/No.12 (Influence: $11%)/No.13 (Influence: $12%)/No.14 (Influence: $13%)]
- **8367**: This objective requires that you vanquish the following:
- **10416**: Difficulty: [$26$25$25$25$25/$26$26$25$25$25/$26$26$26$25$25/$26$26$26$26$25/$26$26$26$26$26]
- **10417**: Undertake this objective? [Yes./No.]
- **10418**: Excellent! I will immediately see to the tedious but necessary paperwork. After all, we sergeants are nothing if not organized. In the meantime, I wish you the best of luck out in the field!
- **10472**: That is all.
- **10473**: As our sphere of influence expands, so too will spirit rise among our troops. In turn, this boost in morale leads to an overall improvement in the performance of our forces, granting us various advantages against the enemy.
- **10474**: Current morale benefits: [Finish viewing./MP/HP bonus: Lv.$0/Attribute bonus: Lv.$1/Increased EXP yield: Lv.$2/Increased cruor yield: Lv.$3/Increased pyxis discovery: Lv.$4/High-grade pyxis discovery: Lv.$5/Increased treasure yield: Lv.$6/None.]
- **10475**: Are you certain? [Yes./No.]
- **10476**: Cancel your current Dominion Ops? [Yes./No.]
- **10477**: Ah, it appears you have returned from a successful mission! Well done, soldier!
- **10479**: What will you ask about? [Nothing right now./Dominion Ops./Sphere of influence./Completing an objective.]
- **10480**: Dominion Ops is the name given to Resistance operations whose objective is the suppression of the monster population.
- **10481**: Besides the detachment encamped here, two others can be found operating in the area. If you wish to partake in Dominion Ops, you may do so by speaking with either me or a fellow sergeant.
- **10482**: Likewise, you may report back to any one of us upon the successful completion of your objective, at which time you will be issued your reward for assistance rendered.
- **10483**: As long as he or she is in the same area, any sergeant is authorized to attend to your needs. Keep this in mind, and you won't waste precious time hopping between encampments.
- **10484**: Each Dominion Ops successfully completed slightly expands our sphere of influence over the Abyssean hordes.
- **10485**: Needless to say, our ultimate goal is complete and utter domination. Every individual effort counts!
- **10486**: Bear in mind, however, that the enemy will not be taking any of this sitting down. Do not be surprised if an especially fearsome fiend emerges in an attempt to thwart our efforts.
- **10487**: And unfortunately for us, the Abyssean fiends are confoundingly fertile. Their numbers will literally explode if left unchecked, in turn causing our hard-won sphere of influence to diminish.
- **10488**: As the sphere of influence directly influences troop morale, it is imperative that we do not slacken our efforts. We earnestly ask for your cooperation in keeping the area safe for all survivors.
- **10489**: To cancel an objective in progress, you must seek out one of the sergeants in the area.
- **10490**: The same applies if you wish to review your progress or report your success. In the case of the latter, you will also be issued your reward, which includes Dominion Notes, for assistance rendered.
- **10491**: Any notes you have earned may be taken to a Dominion tactician and redeemed for useful equipment and items.

## Events

### Event 65535

#### Metadata

| Field        | Value   |
|--------------|---------|
| Entrypoint   | 0x0000  |
| Data Size    | 1 bytes |
| Instructions | 1       |

```
      00 01 02 03 04 05 06 07  08 09 0A 0B 0C 0D 0E 0F
      -- -- -- -- -- -- -- --  -- -- -- -- -- -- -- --
0000: 00                                                .               
```

#### Opcodes

```
  0: 0x0000 [0x00] END_REQSTACK()
```

### Event 502

#### Metadata

| Field        | Value      |
|--------------|------------|
| Entrypoint   | 0x0001     |
| Data Size    | 1098 bytes |
| Instructions | 246        |

```
      00 01 02 03 04 05 06 07  08 09 0A 0B 0C 0D 0E 0F
      -- -- -- -- -- -- -- --  -- -- -- -- -- -- -- --
0000:    03 00 00 00 80 1E F0  FF FF 7F 02 09 10 01 80   ...............
0010: 80 19 00 1A 4A 00 01 48  00 02 09 10 02 80 80 27  ....J..H.......'
0020: 00 1A F3 01 01 48 00 02  09 10 00 80 80 3A 00 03  .....H.......:..
0030: 09 00 08 10 1A FE 02 01  48 00 02 09 10 03 80 80  ........H.......
0040: 48 00 1A F3 01 01 48 00  21 00 03 02 00 01 80 03  H.....H.!.......
0050: 03 00 01 80 3C 02 00 00  80 02 80 3C 02 00 03 80  ....<......<....
0060: 02 80 03 04 00 06 10 1A  CC 03 03 09 00 08 10 03  ................
0070: 07 00 09 10 03 02 10 00  00 1D 04 80 23 05 05 00  ............#...
0080: 02 05 00 01 80 01 F2 01  24 05 80 02 80 02 00 25  ........$......%
0090: 02 00 10 01 80 00 9E 00  06 05 00 01 EF 01 02 00  ................
00A0: 10 02 80 00 BD 01 05 06  00 02 06 00 01 80 01 BA  ................
00B0: 01 03 02 10 0D 00 03 03  10 0E 00 03 04 10 0F 00  ................
00C0: 03 05 10 10 00 03 06 10  11 00 03 07 10 12 00 03  ................
00D0: 08 10 13 00 03 09 10 14  00 03 00 17 15 00 03 01  ................
00E0: 17 16 00 03 02 17 17 00  03 03 17 18 00 03 04 17  ................
00F0: 19 00 03 05 17 1A 00 24  06 80 02 80 04 00 25 02  .......$......%.
0100: 00 10 01 80 00 0D 01 06  06 00 01 0D 01 02 00 10  ................
0110: 01 80 02 B7 01 40 01 80  03 80 01 10 00 80 40 07  .....@........@.
0120: 80 08 80 01 10 00 10 03  01 00 00 10 43 00 43 01  ............C.C.
0130: 02 09 10 01 80 01 B7 01  1D 09 80 23 03 08 00 0A  ...........#....
0140: 80 07 08 00 09 10 48 08  00 23 03 08 00 09 10 08  ......H..#......
0150: 08 00 0B 80 07 08 00 0C  80 48 08 00 23 40 01 80  .........H..#@..
0160: 03 80 01 10 0D 80 40 07  80 08 80 01 10 01 00 43  ......@........C
0170: 00 43 01 48 0E 80 23 24  0F 80 02 80 01 80 25 02  .C.H..#$......%.
0180: 00 10 01 80 00 A7 01 42  1D 10 80 23 06 05 00 06  .......B...#....
0190: 06 00 40 01 80 03 80 01  10 00 80 40 07 80 08 80  ..@........@....
01A0: 01 10 01 00 01 B7 01 02  00 10 02 80 00 B7 01 03  ................
01B0: 01 10 01 80 01 B7 01 01  A9 00 01 EF 01 02 00 10  ................
01C0: 00 80 00 C8 01 01 EF 01  02 00 10 03 80 00 D3 01  ................
01D0: 01 EF 01 02 00 10 07 80  00 E1 01 1A 56 03 01 EF  ............V...
01E0: 01 02 00 10 11 80 00 EF  01 1A 0D 03 01 EF 01 01  ................
01F0: 80 00 1B 03 07 00 02 10  03 0B 00 03 10 03 0C 00  ................
0200: 04 10 03 09 00 08 10 06  02 00 3C 02 00 02 80 02  ..........<.....
0210: 80 03 02 10 00 00 1D 04  80 23 05 05 00 02 05 00  .........#......
0220: 01 80 01 FD 02 24 05 80  00 80 02 00 25 02 00 10  .....$......%...
0230: 01 80 00 3B 02 06 05 00  01 FA 02 02 00 10 02 80  ...;............
0240: 00 46 02 01 FA 02 02 00  10 00 80 00 80 02 03 02  .F..............
0250: 10 0B 00 03 06 10 0C 00  03 08 00 12 80 07 08 00  ................
0260: 07 00 48 08 00 23 03 08  00 0C 80 07 08 00 07 00  ..H..#..........
0270: 08 08 00 0B 80 48 08 00  23 48 13 80 23 01 FA 02  .....H..#H..#...
0280: 02 00 10 03 80 00 DE 02  24 14 80 02 80 01 80 25  ........$......%
0290: 02 00 10 01 80 00 CB 02  40 01 80 03 80 01 10 03  ........@.......
02A0: 80 24 15 80 02 80 01 80  25 02 00 10 01 80 00 B8  .$......%.......
02B0: 02 42 06 05 00 01 C8 02  02 00 10 02 80 00 C8 02  .B..............
02C0: 03 01 10 01 80 01 C8 02  01 DB 02 02 00 10 02 80  ................
02D0: 00 DB 02 03 01 10 01 80  01 DB 02 01 FA 02 02 00  ................
02E0: 10 07 80 00 EC 02 1A 56  03 01 FA 02 02 00 10 11  .......V........
02F0: 80 00 FA 02 1A 0D 03 01  FA 02 01 1D 02 1B 42 1D  ..............B.
0300: 16 80 23 40 01 80 03 80  01 10 17 80 1B 1D 18 80  ..#@............
0310: 23 03 01 10 01 80 40 01  80 03 80 01 10 19 80 43  #.....@........C
0320: 00 43 01 06 06 00 02 06  00 01 80 00 55 03 24 1A  .C..........U.$.
0330: 80 01 80 09 10 25 02 00  10 01 80 00 44 03 05 06  .....%......D...
0340: 00 01 52 03 02 00 10 17  80 00 52 03 05 06 00 01  ..R.......R.....
0350: 52 03 01 26 03 1B 06 06  00 02 06 00 01 80 00 CB  R..&............
0360: 03 24 1B 80 01 80 01 80  25 02 00 10 01 80 00 77  .$......%......w
0370: 03 05 06 00 01 C8 03 02  00 10 02 80 00 92 03 1D  ................
0380: 1C 80 23 1D 1D 80 23 1D  1E 80 23 1D 1F 80 23 01  ..#...#...#...#.
0390: C8 03 02 00 10 00 80 00  B1 03 1D 20 80 23 1D 21  ........... .#.!
03A0: 80 23 1D 22 80 23 1D 23  80 23 1D 24 80 23 01 C8  .#.".#.#.#.$.#..
03B0: 03 02 00 10 03 80 00 C8  03 1D 25 80 23 1D 26 80  ..........%.#.&.
03C0: 23 1D 27 80 23 01 C8 03  01 59 03 1B 41 01 80 08  #.'.#....Y..A...
03D0: 80 02 10 0D 00 41 17 80  28 80 02 10 0E 00 41 29  .....A..(.....A)
03E0: 80 2A 80 02 10 0F 00 41  2B 80 2C 80 02 10 10 00  .*.....A+.,.....
03F0: 41 01 80 08 80 03 10 11  00 41 17 80 28 80 03 10  A........A..(...
0400: 12 00 41 29 80 2A 80 03  10 13 00 41 2B 80 2C 80  ..A).*.....A+.,.
0410: 03 10 14 00 41 01 80 08  80 04 10 15 00 41 17 80  ....A........A..
0420: 28 80 04 10 16 00 41 29  80 2A 80 04 10 17 00 41  (.....A).*.....A
0430: 2B 80 2C 80 04 10 18 00  41 01 80 08 80 05 10 19  +.,.....A.......
0440: 00 41 17 80 28 80 05 10  1A 00 1B                 .A..(......     
```

#### Opcodes

```
  0: 0x0001 [0x03] ExtData[1]->WorkLocal[0] = 2*
  1: 0x0006 [0x1E] EventEntity looks at LocalPlayer and starts talking
  2: 0x000B [0x02] IF !(Work_Zone[9] == 0*) GOTO 0x0019
  3: 0x0013 [0x1A] CALL_SUBROUTINE(address=0x004A)
  4: 0x0016 [0x01] GOTO 0x0048
  5: 0x0019 [0x02] IF !(Work_Zone[9] == 1*) GOTO 0x0027
  6: 0x0021 [0x1A] CALL_SUBROUTINE(address=0x01F3)
  7: 0x0024 [0x01] GOTO 0x0048
  8: 0x0027 [0x02] IF !(Work_Zone[9] == 2*) GOTO 0x003A
  9: 0x002F [0x03] ExtData[1]->WorkLocal[9] = Work_Zone[8]
 10: 0x0034 [0x1A] CALL_SUBROUTINE(address=0x02FE)
 11: 0x0037 [0x01] GOTO 0x0048
 12: 0x003A [0x02] IF !(Work_Zone[9] == 3*) GOTO 0x0048
 13: 0x0042 [0x1A] CALL_SUBROUTINE(address=0x01F3)
 14: 0x0045 [0x01] GOTO 0x0048

SUBROUTINE_0048:
 15: 0x0048 [0x21] END_EVENT
 16: 0x0049 [0x00] END_REQSTACK()

SUBROUTINE_004A:
 17: 0x004A [0x03] ExtData[1]->WorkLocal[2] = 0*
 18: 0x004F [0x03] ExtData[1]->WorkLocal[3] = 0*
 19: 0x0054 [0x3C] SET_BIT_FLAG_CONDITIONAL(target_work_offset=ExtData[1]->WorkLocal[2], bit_index_work_offset=2*, condition_work_offset=1*)
 20: 0x005B [0x3C] SET_BIT_FLAG_CONDITIONAL(target_work_offset=ExtData[1]->WorkLocal[2], bit_index_work_offset=3*, condition_work_offset=1*)
 21: 0x0062 [0x03] ExtData[1]->WorkLocal[4] = Work_Zone[6]
 22: 0x0067 [0x1A] CALL_SUBROUTINE(address=0x03CC)
 23: 0x006A [0x03] ExtData[1]->WorkLocal[9] = Work_Zone[8]
 24: 0x006F [0x03] ExtData[1]->WorkLocal[7] = Work_Zone[9]
 25: 0x0074 [0x03] Work_Zone[2] = ExtData[1]->WorkLocal[0]
 26: 0x0079 [0x1D] PRINT_EVENT_MESSAGE(message_id=8364*)
    → "Greetings, friend. I am charged with recruiting able-bodied warriors for Dominion Ops under Captain [Excenmille/Nanaa Mihgo/Volker]'s jurisdiction. If my soft-spoken nature doesn't strike you as particularly sergeant-like, it is because I'm still new to my role. But I digress. You've come to lend your sword arm to the cause, I trust?"
 27: 0x007C [0x23] WAIT_FOR_DIALOG_INTERACTION
 28: 0x007D [0x05] ExtData[1]->WorkLocal[5] = 1

SUBROUTINE_0080:
 29: 0x0080 [0x02] IF !(ExtData[1]->WorkLocal[5] == 0*) GOTO 0x01F2
 30: 0x0088 [0x24] CREATE_DIALOG(message_id=8365*, default_option=1*, option_flags=ExtData[1]->WorkLocal[2])
    → "What would you like to do? [About turn and leave./Partake in Dominion Ops./Review current objective./Cancel current objective./Learn about Dominion Ops./View current morale benefits.]"
 31: 0x008F [0x25] WAIT_DIALOG_SELECT()
 32: 0x0090 [0x02] IF !(Work_Zone[0] == 0*) GOTO 0x009E
 33: 0x0098 [0x06] ExtData[1]->WorkLocal[5] = 0
 34: 0x009B [0x01] GOTO 0x01EF
 35: 0x009E [0x02] IF !(Work_Zone[0] == 1*) GOTO 0x01BD
 36: 0x00A6 [0x05] ExtData[1]->WorkLocal[6] = 1

SUBROUTINE_00A9:
 37: 0x00A9 [0x02] IF !(ExtData[1]->WorkLocal[6] == 0*) GOTO 0x01BA
 38: 0x00B1 [0x03] Work_Zone[2] = ExtData[1]->WorkLocal[13]
 39: 0x00B6 [0x03] Work_Zone[3] = ExtData[1]->WorkLocal[14]
 40: 0x00BB [0x03] Work_Zone[4] = ExtData[1]->WorkLocal[15]
 41: 0x00C0 [0x03] Work_Zone[5] = ExtData[1]->WorkLocal[16]
 42: 0x00C5 [0x03] Work_Zone[6] = ExtData[1]->WorkLocal[17]
 43: 0x00CA [0x03] Work_Zone[7] = ExtData[1]->WorkLocal[18]
 44: 0x00CF [0x03] Work_Zone[8] = ExtData[1]->WorkLocal[19]
 45: 0x00D4 [0x03] Work_Zone[9] = ExtData[1]->WorkLocal[20]
 46: 0x00D9 [0x03] Work_Zone_1700[0] = ExtData[1]->WorkLocal[21]
 47: 0x00DE [0x03] Work_Zone_1700[1] = ExtData[1]->WorkLocal[22]
 48: 0x00E3 [0x03] Work_Zone_1700[2] = ExtData[1]->WorkLocal[23]
 49: 0x00E8 [0x03] Work_Zone_1700[3] = ExtData[1]->WorkLocal[24]
 50: 0x00ED [0x03] Work_Zone_1700[4] = ExtData[1]->WorkLocal[25]
 51: 0x00F2 [0x03] Work_Zone_1700[5] = ExtData[1]->WorkLocal[26]
 52: 0x00F7 [0x24] CREATE_DIALOG(message_id=8366*, default_option=1*, option_flags=ExtData[1]->WorkLocal[4])
    → "Undertake which objective? [None for now./No.1 (Influence: $0%)/No.2 (Influence: $1%)/No.3 (Influence: $2%)/No.4 (Influence: $3%)/No.5 (Influence: $4%)/No.6 (Influence: $5%)/No.7 (Influence: $6%)/No.8 (Influence: $7%)/No.9 (Influence: $8%)/No.10 (Influence: $9%)/No.11 (Influence: $10%)/No.12 (Influence: $11%)/No.13 (Influence: $12%)/No.14 (Influence: $13%)]"
 53: 0x00FE [0x25] WAIT_DIALOG_SELECT()
 54: 0x00FF [0x02] IF !(Work_Zone[0] == 0*) GOTO 0x010D
 55: 0x0107 [0x06] ExtData[1]->WorkLocal[6] = 0
 56: 0x010A [0x01] GOTO 0x010D

SUBROUTINE_010D:
 57: 0x010D [0x02] IF !(Work_Zone[0] <= 0*) GOTO 0x01B7
 58: 0x0115 [0x40] SET_BIT_WORK_RANGE(start_bit=0*, end_bit=3*, target=Work_Zone[1], source=2*)
 59: 0x011E [0x40] SET_BIT_WORK_RANGE(start_bit=4*, end_bit=7*, target=Work_Zone[1], source=Work_Zone[0])
 60: 0x0127 [0x03] ExtData[1]->WorkLocal[1] = Work_Zone[0]
 61: 0x012C [0x43] SEND_EVENT_UPDATE: Send pending tag to server (packet 0x005B)
 62: 0x012E [0x43] SEND_EVENT_UPDATE: Check pending flag (skip if not pending)
 63: 0x0130 [0x02] IF !(Work_Zone[9] == 0*) GOTO 0x01B7
 64: 0x0138 [0x1D] PRINT_EVENT_MESSAGE(message_id=8367*)
    → "This objective requires that you vanquish the following:"
 65: 0x013B [0x23] WAIT_FOR_DIALOG_INTERACTION
 66: 0x013C [0x03] ExtData[1]->WorkLocal[8] = 8368*
 67: 0x0141 [0x07] ExtData[1]->WorkLocal[8] += Work_Zone[9]
 68: 0x0146 [0x48] [System] [ExtData[1]->WorkLocal[8]]:
    → "This area is currently affected by the Super Kupower: "Myriad Mystery Boxes"!"
 69: 0x0149 [0x23] WAIT_FOR_DIALOG_INTERACTION
 70: 0x014A [0x03] ExtData[1]->WorkLocal[8] = Work_Zone[9]
 71: 0x014F [0x08] ExtData[1]->WorkLocal[8] -= 559*
 72: 0x0154 [0x07] ExtData[1]->WorkLocal[8] += 10421*
 73: 0x0159 [0x48] [System] [ExtData[1]->WorkLocal[8]]:
    → "This area is currently affected by the Super Kupower: "Myriad Mystery Boxes"!"
 74: 0x015C [0x23] WAIT_FOR_DIALOG_INTERACTION
 75: 0x015D [0x40] SET_BIT_WORK_RANGE(start_bit=0*, end_bit=3*, target=Work_Zone[1], source=6*)
 76: 0x0166 [0x40] SET_BIT_WORK_RANGE(start_bit=4*, end_bit=7*, target=Work_Zone[1], source=ExtData[1]->WorkLocal[1])
 77: 0x016F [0x43] SEND_EVENT_UPDATE: Send pending tag to server (packet 0x005B)
 78: 0x0171 [0x43] SEND_EVENT_UPDATE: Check pending flag (skip if not pending)
 79: 0x0173 [0x48] [System] [10416*]:
    → "Difficulty: [$26$25$25$25$25/$26$26$25$25$25/$26$26$26$25$25/$26$26$26$26$25/$26$26$26$26$26]"
 80: 0x0176 [0x23] WAIT_FOR_DIALOG_INTERACTION
 81: 0x0177 [0x24] CREATE_DIALOG(message_id=10417*, default_option=1*, option_flags=0*)
    → "Undertake this objective? [Yes./No.]"
 82: 0x017E [0x25] WAIT_DIALOG_SELECT()
 83: 0x017F [0x02] IF !(Work_Zone[0] == 0*) GOTO 0x01A7
 84: 0x0187 [0x42] SET_CLI_EVENT_CANCEL_DATA()
 85: 0x0188 [0x1D] PRINT_EVENT_MESSAGE(message_id=10418*)
    → "Excellent! I will immediately see to the tedious but necessary paperwork. After all, we sergeants are nothing if not organized. In the meantime, I wish you the best of luck out in the field!"
 86: 0x018B [0x23] WAIT_FOR_DIALOG_INTERACTION
 87: 0x018C [0x06] ExtData[1]->WorkLocal[5] = 0
 88: 0x018F [0x06] ExtData[1]->WorkLocal[6] = 0
 89: 0x0192 [0x40] SET_BIT_WORK_RANGE(start_bit=0*, end_bit=3*, target=Work_Zone[1], source=2*)
 90: 0x019B [0x40] SET_BIT_WORK_RANGE(start_bit=4*, end_bit=7*, target=Work_Zone[1], source=ExtData[1]->WorkLocal[1])
 91: 0x01A4 [0x01] GOTO 0x01B7
 92: 0x01A7 [0x02] IF !(Work_Zone[0] == 1*) GOTO 0x01B7
 93: 0x01AF [0x03] Work_Zone[1] = 0*
 94: 0x01B4 [0x01] GOTO 0x01B7

SUBROUTINE_01B7:
 95: 0x01B7 [0x01] GOTO 0x00A9
 96: 0x01BA [0x01] GOTO 0x01EF
 97: 0x01BD [0x02] IF !(Work_Zone[0] == 2*) GOTO 0x01C8
 98: 0x01C5 [0x01] GOTO 0x01EF
 99: 0x01C8 [0x02] IF !(Work_Zone[0] == 3*) GOTO 0x01D3
100: 0x01D0 [0x01] GOTO 0x01EF
101: 0x01D3 [0x02] IF !(Work_Zone[0] == 4*) GOTO 0x01E1
102: 0x01DB [0x1A] CALL_SUBROUTINE(address=0x0356)
103: 0x01DE [0x01] GOTO 0x01EF
104: 0x01E1 [0x02] IF !(Work_Zone[0] == 5*) GOTO 0x01EF
105: 0x01E9 [0x1A] CALL_SUBROUTINE(address=0x030D)
106: 0x01EC [0x01] GOTO 0x01EF

SUBROUTINE_01EF:
107: 0x01EF [0x01] GOTO 0x0080
108: 0x01F2 [0x1B] RETURN

SUBROUTINE_01F3:
109: 0x01F3 [0x03] ExtData[1]->WorkLocal[7] = Work_Zone[2]
110: 0x01F8 [0x03] ExtData[1]->WorkLocal[11] = Work_Zone[3]
111: 0x01FD [0x03] ExtData[1]->WorkLocal[12] = Work_Zone[4]
112: 0x0202 [0x03] ExtData[1]->WorkLocal[9] = Work_Zone[8]
113: 0x0207 [0x06] ExtData[1]->WorkLocal[2] = 0
114: 0x020A [0x3C] SET_BIT_FLAG_CONDITIONAL(target_work_offset=ExtData[1]->WorkLocal[2], bit_index_work_offset=1*, condition_work_offset=1*)
115: 0x0211 [0x03] Work_Zone[2] = ExtData[1]->WorkLocal[0]
116: 0x0216 [0x1D] PRINT_EVENT_MESSAGE(message_id=8364*)
    → "Greetings, friend. I am charged with recruiting able-bodied warriors for Dominion Ops under Captain [Excenmille/Nanaa Mihgo/Volker]'s jurisdiction. If my soft-spoken nature doesn't strike you as particularly sergeant-like, it is because I'm still new to my role. But I digress. You've come to lend your sword arm to the cause, I trust?"
117: 0x0219 [0x23] WAIT_FOR_DIALOG_INTERACTION
118: 0x021A [0x05] ExtData[1]->WorkLocal[5] = 1

SUBROUTINE_021D:
119: 0x021D [0x02] IF !(ExtData[1]->WorkLocal[5] == 0*) GOTO 0x02FD
120: 0x0225 [0x24] CREATE_DIALOG(message_id=8365*, default_option=2*, option_flags=ExtData[1]->WorkLocal[2])
    → "What would you like to do? [About turn and leave./Partake in Dominion Ops./Review current objective./Cancel current objective./Learn about Dominion Ops./View current morale benefits.]"
121: 0x022C [0x25] WAIT_DIALOG_SELECT()
122: 0x022D [0x02] IF !(Work_Zone[0] == 0*) GOTO 0x023B
123: 0x0235 [0x06] ExtData[1]->WorkLocal[5] = 0
124: 0x0238 [0x01] GOTO 0x02FA
125: 0x023B [0x02] IF !(Work_Zone[0] == 1*) GOTO 0x0246
126: 0x0243 [0x01] GOTO 0x02FA
127: 0x0246 [0x02] IF !(Work_Zone[0] == 2*) GOTO 0x0280
128: 0x024E [0x03] Work_Zone[2] = ExtData[1]->WorkLocal[11]
129: 0x0253 [0x03] Work_Zone[6] = ExtData[1]->WorkLocal[12]
130: 0x0258 [0x03] ExtData[1]->WorkLocal[8] = 9392*
131: 0x025D [0x07] ExtData[1]->WorkLocal[8] += ExtData[1]->WorkLocal[7]
132: 0x0262 [0x48] [System] [ExtData[1]->WorkLocal[8]]:
    → "This area is currently affected by the Super Kupower: "Myriad Mystery Boxes"!"
133: 0x0265 [0x23] WAIT_FOR_DIALOG_INTERACTION
134: 0x0266 [0x03] ExtData[1]->WorkLocal[8] = 10421*
135: 0x026B [0x07] ExtData[1]->WorkLocal[8] += ExtData[1]->WorkLocal[7]
136: 0x0270 [0x08] ExtData[1]->WorkLocal[8] -= 559*
137: 0x0275 [0x48] [System] [ExtData[1]->WorkLocal[8]]:
    → "This area is currently affected by the Super Kupower: "Myriad Mystery Boxes"!"
138: 0x0278 [0x23] WAIT_FOR_DIALOG_INTERACTION
139: 0x0279 [0x48] [System] [10472*]:
    → "That is all."
140: 0x027C [0x23] WAIT_FOR_DIALOG_INTERACTION
141: 0x027D [0x01] GOTO 0x02FA
142: 0x0280 [0x02] IF !(Work_Zone[0] == 3*) GOTO 0x02DE
143: 0x0288 [0x24] CREATE_DIALOG(message_id=10476*, default_option=1*, option_flags=0*)
    → "Cancel your current Dominion Ops? [Yes./No.]"
144: 0x028F [0x25] WAIT_DIALOG_SELECT()
145: 0x0290 [0x02] IF !(Work_Zone[0] == 0*) GOTO 0x02CB
146: 0x0298 [0x40] SET_BIT_WORK_RANGE(start_bit=0*, end_bit=3*, target=Work_Zone[1], source=3*)
147: 0x02A1 [0x24] CREATE_DIALOG(message_id=10475*, default_option=1*, option_flags=0*)
    → "Are you certain? [Yes./No.]"
148: 0x02A8 [0x25] WAIT_DIALOG_SELECT()
149: 0x02A9 [0x02] IF !(Work_Zone[0] == 0*) GOTO 0x02B8
150: 0x02B1 [0x42] SET_CLI_EVENT_CANCEL_DATA()
151: 0x02B2 [0x06] ExtData[1]->WorkLocal[5] = 0
152: 0x02B5 [0x01] GOTO 0x02C8
153: 0x02B8 [0x02] IF !(Work_Zone[0] == 1*) GOTO 0x02C8
154: 0x02C0 [0x03] Work_Zone[1] = 0*
155: 0x02C5 [0x01] GOTO 0x02C8

SUBROUTINE_02C8:
156: 0x02C8 [0x01] GOTO 0x02DB
157: 0x02CB [0x02] IF !(Work_Zone[0] == 1*) GOTO 0x02DB
158: 0x02D3 [0x03] Work_Zone[1] = 0*
159: 0x02D8 [0x01] GOTO 0x02DB

SUBROUTINE_02DB:
160: 0x02DB [0x01] GOTO 0x02FA
161: 0x02DE [0x02] IF !(Work_Zone[0] == 4*) GOTO 0x02EC
162: 0x02E6 [0x1A] CALL_SUBROUTINE(address=0x0356)
163: 0x02E9 [0x01] GOTO 0x02FA
164: 0x02EC [0x02] IF !(Work_Zone[0] == 5*) GOTO 0x02FA
165: 0x02F4 [0x1A] CALL_SUBROUTINE(address=0x030D)
166: 0x02F7 [0x01] GOTO 0x02FA

SUBROUTINE_02FA:
167: 0x02FA [0x01] GOTO 0x021D
168: 0x02FD [0x1B] RETURN

SUBROUTINE_02FE:
169: 0x02FE [0x42] SET_CLI_EVENT_CANCEL_DATA()
170: 0x02FF [0x1D] PRINT_EVENT_MESSAGE(message_id=10477*)
    → "Ah, it appears you have returned from a successful mission! Well done, soldier!"
171: 0x0302 [0x23] WAIT_FOR_DIALOG_INTERACTION
172: 0x0303 [0x40] SET_BIT_WORK_RANGE(start_bit=0*, end_bit=3*, target=Work_Zone[1], source=8*)
173: 0x030C [0x1B] RETURN

SUBROUTINE_030D:
174: 0x030D [0x1D] PRINT_EVENT_MESSAGE(message_id=10473*)
    → "As our sphere of influence expands, so too will spirit rise among our troops. In turn, this boost in morale leads to an overall improvement in the performance of our forces, granting us various advantages against the enemy."
175: 0x0310 [0x23] WAIT_FOR_DIALOG_INTERACTION
176: 0x0311 [0x03] Work_Zone[1] = 0*
177: 0x0316 [0x40] SET_BIT_WORK_RANGE(start_bit=0*, end_bit=3*, target=Work_Zone[1], source=9*)
178: 0x031F [0x43] SEND_EVENT_UPDATE: Send pending tag to server (packet 0x005B)
179: 0x0321 [0x43] SEND_EVENT_UPDATE: Check pending flag (skip if not pending)
180: 0x0323 [0x06] ExtData[1]->WorkLocal[6] = 0

SUBROUTINE_0326:
181: 0x0326 [0x02] IF !(ExtData[1]->WorkLocal[6] == 0*) GOTO 0x0355
182: 0x032E [0x24] CREATE_DIALOG(message_id=10474*, default_option=0*, option_flags=Work_Zone[9])
    → "Current morale benefits: [Finish viewing./MP/HP bonus: Lv.$0/Attribute bonus: Lv.$1/Increased EXP yield: Lv.$2/Increased cruor yield: Lv.$3/Increased pyxis discovery: Lv.$4/High-grade pyxis discovery: Lv.$5/Increased treasure yield: Lv.$6/None.]"
183: 0x0335 [0x25] WAIT_DIALOG_SELECT()
184: 0x0336 [0x02] IF !(Work_Zone[0] == 0*) GOTO 0x0344
185: 0x033E [0x05] ExtData[1]->WorkLocal[6] = 1
186: 0x0341 [0x01] GOTO 0x0352
187: 0x0344 [0x02] IF !(Work_Zone[0] == 8*) GOTO 0x0352
188: 0x034C [0x05] ExtData[1]->WorkLocal[6] = 1
189: 0x034F [0x01] GOTO 0x0352

SUBROUTINE_0352:
190: 0x0352 [0x01] GOTO 0x0326
191: 0x0355 [0x1B] RETURN

SUBROUTINE_0356:
192: 0x0356 [0x06] ExtData[1]->WorkLocal[6] = 0

SUBROUTINE_0359:
193: 0x0359 [0x02] IF !(ExtData[1]->WorkLocal[6] == 0*) GOTO 0x03CB
194: 0x0361 [0x24] CREATE_DIALOG(message_id=10479*, default_option=0*, option_flags=0*)
    → "What will you ask about? [Nothing right now./Dominion Ops./Sphere of influence./Completing an objective.]"
195: 0x0368 [0x25] WAIT_DIALOG_SELECT()
196: 0x0369 [0x02] IF !(Work_Zone[0] == 0*) GOTO 0x0377
197: 0x0371 [0x05] ExtData[1]->WorkLocal[6] = 1
198: 0x0374 [0x01] GOTO 0x03C8
199: 0x0377 [0x02] IF !(Work_Zone[0] == 1*) GOTO 0x0392
200: 0x037F [0x1D] PRINT_EVENT_MESSAGE(message_id=10480*)
    → "Dominion Ops is the name given to Resistance operations whose objective is the suppression of the monster population."
201: 0x0382 [0x23] WAIT_FOR_DIALOG_INTERACTION
202: 0x0383 [0x1D] PRINT_EVENT_MESSAGE(message_id=10481*)
    → "Besides the detachment encamped here, two others can be found operating in the area. If you wish to partake in Dominion Ops, you may do so by speaking with either me or a fellow sergeant."
203: 0x0386 [0x23] WAIT_FOR_DIALOG_INTERACTION
204: 0x0387 [0x1D] PRINT_EVENT_MESSAGE(message_id=10482*)
    → "Likewise, you may report back to any one of us upon the successful completion of your objective, at which time you will be issued your reward for assistance rendered."
205: 0x038A [0x23] WAIT_FOR_DIALOG_INTERACTION
206: 0x038B [0x1D] PRINT_EVENT_MESSAGE(message_id=10483*)
    → "As long as he or she is in the same area, any sergeant is authorized to attend to your needs. Keep this in mind, and you won't waste precious time hopping between encampments."
207: 0x038E [0x23] WAIT_FOR_DIALOG_INTERACTION
208: 0x038F [0x01] GOTO 0x03C8
209: 0x0392 [0x02] IF !(Work_Zone[0] == 2*) GOTO 0x03B1
210: 0x039A [0x1D] PRINT_EVENT_MESSAGE(message_id=10484*)
    → "Each Dominion Ops successfully completed slightly expands our sphere of influence over the Abyssean hordes."
211: 0x039D [0x23] WAIT_FOR_DIALOG_INTERACTION
212: 0x039E [0x1D] PRINT_EVENT_MESSAGE(message_id=10485*)
    → "Needless to say, our ultimate goal is complete and utter domination. Every individual effort counts!"
213: 0x03A1 [0x23] WAIT_FOR_DIALOG_INTERACTION
214: 0x03A2 [0x1D] PRINT_EVENT_MESSAGE(message_id=10486*)
    → "Bear in mind, however, that the enemy will not be taking any of this sitting down. Do not be surprised if an especially fearsome fiend emerges in an attempt to thwart our efforts."
215: 0x03A5 [0x23] WAIT_FOR_DIALOG_INTERACTION
216: 0x03A6 [0x1D] PRINT_EVENT_MESSAGE(message_id=10487*)
    → "And unfortunately for us, the Abyssean fiends are confoundingly fertile. Their numbers will literally explode if left unchecked, in turn causing our hard-won sphere of influence to diminish."
217: 0x03A9 [0x23] WAIT_FOR_DIALOG_INTERACTION
218: 0x03AA [0x1D] PRINT_EVENT_MESSAGE(message_id=10488*)
    → "As the sphere of influence directly influences troop morale, it is imperative that we do not slacken our efforts. We earnestly ask for your cooperation in keeping the area safe for all survivors."
219: 0x03AD [0x23] WAIT_FOR_DIALOG_INTERACTION
220: 0x03AE [0x01] GOTO 0x03C8
221: 0x03B1 [0x02] IF !(Work_Zone[0] == 3*) GOTO 0x03C8
222: 0x03B9 [0x1D] PRINT_EVENT_MESSAGE(message_id=10489*)
    → "To cancel an objective in progress, you must seek out one of the sergeants in the area."
223: 0x03BC [0x23] WAIT_FOR_DIALOG_INTERACTION
224: 0x03BD [0x1D] PRINT_EVENT_MESSAGE(message_id=10490*)
    → "The same applies if you wish to review your progress or report your success. In the case of the latter, you will also be issued your reward, which includes Dominion Notes, for assistance rendered."
225: 0x03C0 [0x23] WAIT_FOR_DIALOG_INTERACTION
226: 0x03C1 [0x1D] PRINT_EVENT_MESSAGE(message_id=10491*)
    → "Any notes you have earned may be taken to a Dominion tactician and redeemed for useful equipment and items."
227: 0x03C4 [0x23] WAIT_FOR_DIALOG_INTERACTION
228: 0x03C5 [0x01] GOTO 0x03C8

SUBROUTINE_03C8:
229: 0x03C8 [0x01] GOTO 0x0359
230: 0x03CB [0x1B] RETURN

SUBROUTINE_03CC:
231: 0x03CC [0x41] ExtData[1]->WorkLocal[13] = Work_Zone[2] (bits 0*-7*)
232: 0x03D5 [0x41] ExtData[1]->WorkLocal[14] = Work_Zone[2] (bits 8*-15*)
233: 0x03DE [0x41] ExtData[1]->WorkLocal[15] = Work_Zone[2] (bits 16*-23*)
234: 0x03E7 [0x41] ExtData[1]->WorkLocal[16] = Work_Zone[2] (bits 24*-31*)
235: 0x03F0 [0x41] ExtData[1]->WorkLocal[17] = Work_Zone[3] (bits 0*-7*)
236: 0x03F9 [0x41] ExtData[1]->WorkLocal[18] = Work_Zone[3] (bits 8*-15*)
237: 0x0402 [0x41] ExtData[1]->WorkLocal[19] = Work_Zone[3] (bits 16*-23*)
238: 0x040B [0x41] ExtData[1]->WorkLocal[20] = Work_Zone[3] (bits 24*-31*)
239: 0x0414 [0x41] ExtData[1]->WorkLocal[21] = Work_Zone[4] (bits 0*-7*)
240: 0x041D [0x41] ExtData[1]->WorkLocal[22] = Work_Zone[4] (bits 8*-15*)
241: 0x0426 [0x41] ExtData[1]->WorkLocal[23] = Work_Zone[4] (bits 16*-23*)
242: 0x042F [0x41] ExtData[1]->WorkLocal[24] = Work_Zone[4] (bits 24*-31*)
243: 0x0438 [0x41] ExtData[1]->WorkLocal[25] = Work_Zone[5] (bits 0*-7*)
244: 0x0441 [0x41] ExtData[1]->WorkLocal[26] = Work_Zone[5] (bits 8*-15*)
245: 0x044A [0x1B] RETURN
```
