# 17670750 - Titus

## Common Data

| Field            | Value                      |
|------------------|----------------------------|
| Zone             | Abyssea - Altepa (ID: 218) |
| Block Size       | 376 bytes                  |
| Total Events     | 6                          |
| References Count | 23                         |

## List of Events

| Event ID              | Entrypoint   |   Size |   Instructions |
|-----------------------|--------------|--------|----------------|
| [65535](#event-65535) | 0x0000       |      1 |              1 |
| [309](#event-309)     | 0x0001       |     23 |              9 |
| [310](#event-310)     | 0x0018       |    118 |             37 |
| [311](#event-311)     | 0x008E       |     68 |             20 |
| [312](#event-312)     | 0x00D2       |     19 |              7 |
| [314](#event-314)     | 0x00E5       |     14 |              6 |

## DAT References (imed_data)

|   Index | Hex Value   |   Dec Value |
|---------|-------------|-------------|
|       0 | 0x027B      |         635 |
|       1 | 0x1F6C      |        8044 |
|       2 | 0x0014      |          20 |
|       3 | 0x1F6D      |        8045 |
|       4 | 0x1F6E      |        8046 |
|       5 | 0x06E5      |        1765 |
|       6 | 0x000C      |          12 |
|       7 | 0x1F6F      |        8047 |
|       8 | 0x0078      |         120 |
|       9 | 0x1F70      |        8048 |
|      10 | 0x0016      |          22 |
|      11 | 0x1F71      |        8049 |
|      12 | 0x1F72      |        8050 |
|      13 | 0x06E6      |        1766 |
|      14 | 0x1F73      |        8051 |
|      15 | 0x1F74      |        8052 |
|      16 | 0x0000      |           0 |
|      17 | 0x0001      |           1 |
|      18 | 0x1F76      |        8054 |
|      19 | 0x0002      |           2 |
|      20 | 0x1F75      |        8053 |
|      21 | 0x1F77      |        8055 |
|      22 | 0x1F7D      |        8061 |

## String References

- **8044**: Oh, for shame! My massive brain burgeons ever forth with inspiration, yet I lack for the key reagent I need to share my genius with the world! Will this desolate realm be deprived of the wonders of Titus forever more? Perish the thought!
- **8045**: You there! I don't suppose you'd happen to have $0 upon your person? I--nay, the legions of fans awaiting my latest invention--would be forever in your debt!
- **8046**: Yes, this is it! Indubitably, unmistakably so! Now step back and watch a true genius in action!
- **8047**: Smooth synthesis! Titus synthesizes $1 $5!
- **8048**: Brilliant! Simply brilliant! I never cease to amaze myself. Now to pack it up like so, hand it to you, and...there, we're all set! Off you go, now! Chop chop!
- **8049**: What's that? You're not the courier [boy/girl]? Oh, forgive me. Your callused hands and decidedly rustic bearing led me to believe otherwise.
- **8050**: Well, this won't do at all. After all, what good is my genius if it is not made available for one and all to appreciate?
- **8051**: That settles it. You may not have been the courier when you came here, but you are now, by Titus's decree! You are to deliver my masterpiece to the physician Chumimi at the northern encampment, and do so posthaste.
- **8052**: Accept the job? [My honor to serve!/Not today.]
- **8053**: I do not quite understand. The esteemed Titus offers you the chance to share his genius with the world, and you would...<gasp>...refuse!?
- **8054**: Splendid! Not only will my creation benefit those in need, but I will not be required to risk my infinitely valuable life in the process. Everybody wins! Now, off you go.
- **8055**: Have you delivered the $3 to Chumimi at the northern encampment yet? Hurry, my good [man/woman]! The world awaits my genius!
- **8061**: You're still alive--and much more importantly, so am I! What's more, my ingenious creation has been delivered to those who need it most. We may not have a sun in the sky, but this is a shining day for science, my friend!

## Events

### Event 65535

#### Metadata

| Field        | Value   |
|--------------|---------|
| Entrypoint   | 0x0000  |
| Data Size    | 1 bytes |
| Instructions | 1       |

```
      00 01 02 03 04 05 06 07  08 09 0A 0B 0C 0D 0E 0F
      -- -- -- -- -- -- -- --  -- -- -- -- -- -- -- --
0000: 00                                                .               
```

#### Opcodes

```
  0: 0x0000 [0x00] END_REQSTACK()
```

### Event 309

#### Metadata

| Field        | Value    |
|--------------|----------|
| Entrypoint   | 0x0001   |
| Data Size    | 23 bytes |
| Instructions | 9        |

```
      00 01 02 03 04 05 06 07  08 09 0A 0B 0C 0D 0E 0F
      -- -- -- -- -- -- -- --  -- -- -- -- -- -- -- --
0000:    03 02 10 00 80 1D 01  80 23 1E F0 FF FF 7F 1C   ........#......
0010: 02 80 1D 03 80 23 21 00                           .....#!.        
```

#### Opcodes

```
  0: 0x0001 [0x03] Work_Zone[2] = 635*
  1: 0x0006 [0x1D] PRINT_EVENT_MESSAGE(message_id=8044*)
    → "Oh, for shame! My massive brain burgeons ever forth with inspiration, yet I lack for the key reagent I need to share my genius with the world! Will this desolate realm be deprived of the wonders of Titus forever more? Perish the thought!"
  2: 0x0009 [0x23] WAIT_FOR_DIALOG_INTERACTION
  3: 0x000A [0x1E] EventEntity looks at LocalPlayer and starts talking
  4: 0x000F [0x1C] WAIT(20* ticks)
  5: 0x0012 [0x1D] PRINT_EVENT_MESSAGE(message_id=8045*)
    → "You there! I don't suppose you'd happen to have $0 upon your person? I--nay, the legions of fans awaiting my latest invention--would be forever in your debt!"
  6: 0x0015 [0x23] WAIT_FOR_DIALOG_INTERACTION
  7: 0x0016 [0x21] END_EVENT
  8: 0x0017 [0x00] END_REQSTACK()
```

### Event 310

#### Metadata

| Field        | Value     |
|--------------|-----------|
| Entrypoint   | 0x0018    |
| Data Size    | 118 bytes |
| Instructions | 37        |

```
      00 01 02 03 04 05 06 07  08 09 0A 0B 0C 0D 0E 0F
      -- -- -- -- -- -- -- --  -- -- -- -- -- -- -- --
0010:                          20 01 42 1E F0 FF FF 7F           .B.....
0020: 1C 02 80 1D 04 80 23 03  02 10 05 80 03 03 10 06  ......#.........
0030: 80 48 07 80 1C 08 80 1D  09 80 23 6E F0 FF FF 7F  .H........#n....
0040: 0A 80 99 F0 FF FF 7F 1C  08 80 1D 0B 80 23 1D 0C  .............#..
0050: 80 23 03 02 10 0D 80 1D  0E 80 23 24 0F 80 10 80  .#........#$....
0060: 10 80 25 02 00 10 10 80  00 78 00 42 03 01 10 11  ..%......x.B....
0070: 80 1D 12 80 23 01 8C 00  02 00 10 11 80 00 8C 00  ....#...........
0080: 03 01 10 13 80 1D 14 80  23 01 8C 00 21 00        ........#...!.  
```

#### Opcodes

```
  0: 0x0018 [0x20] SET_CLI_EVENT_UC_FLAG: Lock player control
  1: 0x001A [0x42] SET_CLI_EVENT_CANCEL_DATA()
  2: 0x001B [0x1E] EventEntity looks at LocalPlayer and starts talking
  3: 0x0020 [0x1C] WAIT(20* ticks)
  4: 0x0023 [0x1D] PRINT_EVENT_MESSAGE(message_id=8046*)
    → "Yes, this is it! Indubitably, unmistakably so! Now step back and watch a true genius in action!"
  5: 0x0026 [0x23] WAIT_FOR_DIALOG_INTERACTION
  6: 0x0027 [0x03] Work_Zone[2] = 1765*
  7: 0x002C [0x03] Work_Zone[3] = 12*
  8: 0x0031 [0x48] [System] [8047*]:
    → "Smooth synthesis! Titus synthesizes $1 $5!"
  9: 0x0034 [0x1C] WAIT(120* ticks)
 10: 0x0037 [0x1D] PRINT_EVENT_MESSAGE(message_id=8048*)
    → "Brilliant! Simply brilliant! I never cease to amaze myself. Now to pack it up like so, hand it to you, and...there, we're all set! Off you go, now! Chop chop!"
 11: 0x003A [0x23] WAIT_FOR_DIALOG_INTERACTION
 12: 0x003B [0x6E] LocalPlayer uses emote 22*
 13: 0x0042 [0x99] Wait for LocalPlayer animation to complete
 14: 0x0047 [0x1C] WAIT(120* ticks)
 15: 0x004A [0x1D] PRINT_EVENT_MESSAGE(message_id=8049*)
    → "What's that? You're not the courier [boy/girl]? Oh, forgive me. Your callused hands and decidedly rustic bearing led me to believe otherwise."
 16: 0x004D [0x23] WAIT_FOR_DIALOG_INTERACTION
 17: 0x004E [0x1D] PRINT_EVENT_MESSAGE(message_id=8050*)
    → "Well, this won't do at all. After all, what good is my genius if it is not made available for one and all to appreciate?"
 18: 0x0051 [0x23] WAIT_FOR_DIALOG_INTERACTION
 19: 0x0052 [0x03] Work_Zone[2] = 1766*
 20: 0x0057 [0x1D] PRINT_EVENT_MESSAGE(message_id=8051*)
    → "That settles it. You may not have been the courier when you came here, but you are now, by Titus's decree! You are to deliver my masterpiece to the physician Chumimi at the northern encampment, and do so posthaste."
 21: 0x005A [0x23] WAIT_FOR_DIALOG_INTERACTION
 22: 0x005B [0x24] CREATE_DIALOG(message_id=8052*, default_option=0*, option_flags=0*)
    → "Accept the job? [My honor to serve!/Not today.]"
 23: 0x0062 [0x25] WAIT_DIALOG_SELECT()
 24: 0x0063 [0x02] IF !(Work_Zone[0] == 0*) GOTO 0x0078
 25: 0x006B [0x42] SET_CLI_EVENT_CANCEL_DATA()
 26: 0x006C [0x03] Work_Zone[1] = 1*
 27: 0x0071 [0x1D] PRINT_EVENT_MESSAGE(message_id=8054*)
    → "Splendid! Not only will my creation benefit those in need, but I will not be required to risk my infinitely valuable life in the process. Everybody wins! Now, off you go."
 28: 0x0074 [0x23] WAIT_FOR_DIALOG_INTERACTION
 29: 0x0075 [0x01] GOTO 0x008C
 30: 0x0078 [0x02] IF !(Work_Zone[0] == 1*) GOTO 0x008C
 31: 0x0080 [0x03] Work_Zone[1] = 2*
 32: 0x0085 [0x1D] PRINT_EVENT_MESSAGE(message_id=8053*)
    → "I do not quite understand. The esteemed Titus offers you the chance to share his genius with the world, and you would...<gasp>...refuse!?"
 33: 0x0088 [0x23] WAIT_FOR_DIALOG_INTERACTION
 34: 0x0089 [0x01] GOTO 0x008C

SUBROUTINE_008C:
 35: 0x008C [0x21] END_EVENT
 36: 0x008D [0x00] END_REQSTACK()
```

### Event 311

#### Metadata

| Field        | Value    |
|--------------|----------|
| Entrypoint   | 0x008E   |
| Data Size    | 68 bytes |
| Instructions | 20       |

```
      00 01 02 03 04 05 06 07  08 09 0A 0B 0C 0D 0E 0F
      -- -- -- -- -- -- -- --  -- -- -- -- -- -- -- --
0080:                                            1E F0                ..
0090: FF FF 7F 1C 02 80 03 02  10 0D 80 1D 0E 80 23 24  ..............#$
00A0: 0F 80 10 80 10 80 25 02  00 10 10 80 00 BC 00 42  ......%........B
00B0: 03 01 10 11 80 1D 12 80  23 01 D0 00 02 00 10 11  ........#.......
00C0: 80 00 D0 00 03 01 10 13  80 1D 14 80 23 01 D0 00  ............#...
00D0: 21 00                                             !.              
```

#### Opcodes

```
  0: 0x008E [0x1E] EventEntity looks at LocalPlayer and starts talking
  1: 0x0093 [0x1C] WAIT(20* ticks)
  2: 0x0096 [0x03] Work_Zone[2] = 1766*
  3: 0x009B [0x1D] PRINT_EVENT_MESSAGE(message_id=8051*)
    → "That settles it. You may not have been the courier when you came here, but you are now, by Titus's decree! You are to deliver my masterpiece to the physician Chumimi at the northern encampment, and do so posthaste."
  4: 0x009E [0x23] WAIT_FOR_DIALOG_INTERACTION
  5: 0x009F [0x24] CREATE_DIALOG(message_id=8052*, default_option=0*, option_flags=0*)
    → "Accept the job? [My honor to serve!/Not today.]"
  6: 0x00A6 [0x25] WAIT_DIALOG_SELECT()
  7: 0x00A7 [0x02] IF !(Work_Zone[0] == 0*) GOTO 0x00BC
  8: 0x00AF [0x42] SET_CLI_EVENT_CANCEL_DATA()
  9: 0x00B0 [0x03] Work_Zone[1] = 1*
 10: 0x00B5 [0x1D] PRINT_EVENT_MESSAGE(message_id=8054*)
    → "Splendid! Not only will my creation benefit those in need, but I will not be required to risk my infinitely valuable life in the process. Everybody wins! Now, off you go."
 11: 0x00B8 [0x23] WAIT_FOR_DIALOG_INTERACTION
 12: 0x00B9 [0x01] GOTO 0x00D0
 13: 0x00BC [0x02] IF !(Work_Zone[0] == 1*) GOTO 0x00D0
 14: 0x00C4 [0x03] Work_Zone[1] = 2*
 15: 0x00C9 [0x1D] PRINT_EVENT_MESSAGE(message_id=8053*)
    → "I do not quite understand. The esteemed Titus offers you the chance to share his genius with the world, and you would...<gasp>...refuse!?"
 16: 0x00CC [0x23] WAIT_FOR_DIALOG_INTERACTION
 17: 0x00CD [0x01] GOTO 0x00D0

SUBROUTINE_00D0:
 18: 0x00D0 [0x21] END_EVENT
 19: 0x00D1 [0x00] END_REQSTACK()
```

### Event 312

#### Metadata

| Field        | Value    |
|--------------|----------|
| Entrypoint   | 0x00D2   |
| Data Size    | 19 bytes |
| Instructions | 7        |

```
      00 01 02 03 04 05 06 07  08 09 0A 0B 0C 0D 0E 0F
      -- -- -- -- -- -- -- --  -- -- -- -- -- -- -- --
00D0:       1E F0 FF FF 7F 1C  02 80 03 02 10 0D 80 1D    ..............
00E0: 15 80 23 21 00                                    ..#!.           
```

#### Opcodes

```
  0: 0x00D2 [0x1E] EventEntity looks at LocalPlayer and starts talking
  1: 0x00D7 [0x1C] WAIT(20* ticks)
  2: 0x00DA [0x03] Work_Zone[2] = 1766*
  3: 0x00DF [0x1D] PRINT_EVENT_MESSAGE(message_id=8055*)
    → "Have you delivered the $3 to Chumimi at the northern encampment yet? Hurry, my good [man/woman]! The world awaits my genius!"
  4: 0x00E2 [0x23] WAIT_FOR_DIALOG_INTERACTION
  5: 0x00E3 [0x21] END_EVENT
  6: 0x00E4 [0x00] END_REQSTACK()
```

### Event 314

#### Metadata

| Field        | Value    |
|--------------|----------|
| Entrypoint   | 0x00E5   |
| Data Size    | 14 bytes |
| Instructions | 6        |

```
      00 01 02 03 04 05 06 07  08 09 0A 0B 0C 0D 0E 0F
      -- -- -- -- -- -- -- --  -- -- -- -- -- -- -- --
00E0:                1E F0 FF  FF 7F 1C 02 80 1D 16 80       ...........
00F0: 23 21 00                                          #!.             
```

#### Opcodes

```
  0: 0x00E5 [0x1E] EventEntity looks at LocalPlayer and starts talking
  1: 0x00EA [0x1C] WAIT(20* ticks)
  2: 0x00ED [0x1D] PRINT_EVENT_MESSAGE(message_id=8061*)
    → "You're still alive--and much more importantly, so am I! What's more, my ingenious creation has been delivered to those who need it most. We may not have a sun in the sky, but this is a shining day for science, my friend!"
  3: 0x00F0 [0x23] WAIT_FOR_DIALOG_INTERACTION
  4: 0x00F1 [0x21] END_EVENT
  5: 0x00F2 [0x00] END_REQSTACK()
```
