# Event 65535

## Metadata

| Field           | Value    |
|-----------------|----------|
| Event Index     | 64/81    |
| Offset          | 0x0642   |
| Data Size       | 53 bytes |
| Calculated Size | 53 bytes |
| Instructions    | 11       |

```
      00 01 02 03 04 05 06 07  08 09 0A 0B 0C 0D 0E 0F
      -- -- -- -- -- -- -- --  -- -- -- -- -- -- -- --
0640:       32 24 80 1F 00 9E  80 9F 80 A0 80 1F 01 1F    2$............
0650: 00 A1 80 A2 80 A3 80 1F  01 1F 00 A4 80 A5 80 A6  ................
0660: 80 1F 01 1F 00 A7 80 A8  80 A9 80 1F 01 4A F0 FF  .............J..
0670: FF 7F D6 92 08 01 00                              .......         
```

## Opcodes

```
  0: 0x0642 [0x32] ExtData[1]->MainSpeed = 40* * 0.1
  1: 0x0645 [0x1F] MOVE_ENTITY: EventEntity moves to X=544.682*, Z=-280.474*, Y=0.728*
  2: 0x064D [0x1F] MOVE_ENTITY: Update entity position (mode=1)
  3: 0x064F [0x1F] MOVE_ENTITY: EventEntity moves to X=539.612*, Z=-280.922*, Y=0.979*
  4: 0x0657 [0x1F] MOVE_ENTITY: Update entity position (mode=1)
  5: 0x0659 [0x1F] MOVE_ENTITY: EventEntity moves to X=533.379*, Z=-278.591*, Y=0.533*
  6: 0x0661 [0x1F] MOVE_ENTITY: Update entity position (mode=1)
  7: 0x0663 [0x1F] MOVE_ENTITY: EventEntity moves to X=528.935*, Z=-274.093*, Y=0.244*
  8: 0x066B [0x1F] MOVE_ENTITY: Update entity position (mode=1)
  9: 0x066D [0x4A] LocalPlayer looks at Excenmille (ID: 17339094/0x010892D6)
 10: 0x0676 [0x00] END_REQSTACK()
```
