# Event 65535

## Metadata

| Field           | Value    |
|-----------------|----------|
| Event Index     | 76/81    |
| Offset          | 0x07FE   |
| Data Size       | 59 bytes |
| Calculated Size | 59 bytes |
| Instructions    | 12       |

```
      00 01 02 03 04 05 06 07  08 09 0A 0B 0C 0D 0E 0F
      -- -- -- -- -- -- -- --  -- -- -- -- -- -- -- --
07F0:                                            59 04                Y.
0800: F8 FF FF 7F 1C 80 1F 00  DF 80 E0 80 E1 80 1F 01  ................
0810: 1F 00 E2 80 E3 80 E4 80  1F 01 1F 00 E5 80 E6 80  ................
0820: E7 80 1F 01 1F 00 EB 80  EC 80 ED 80 1F 01 6F 4A  ..............oJ
0830: F8 FF FF 7F 5A 93 08 01  00                       ....Z....       
```

## Opcodes

```
  0: 0x07FE [0x59] UPDATE_ENTITY_DATA: Set EventEntity main speed = 39* * 0.1
  1: 0x0806 [0x1F] MOVE_ENTITY: EventEntity moves to X=-155.318*, Z=-46.044*, Y=-23.866*
  2: 0x080E [0x1F] MOVE_ENTITY: Update entity position (mode=1)
  3: 0x0810 [0x1F] MOVE_ENTITY: EventEntity moves to X=-160.604*, Z=-45.539*, Y=-23.921*
  4: 0x0818 [0x1F] MOVE_ENTITY: Update entity position (mode=1)
  5: 0x081A [0x1F] MOVE_ENTITY: EventEntity moves to X=-164.150*, Z=-45.190*, Y=-23.850*
  6: 0x0822 [0x1F] MOVE_ENTITY: Update entity position (mode=1)
  7: 0x0824 [0x1F] MOVE_ENTITY: EventEntity moves to X=-166.957*, Z=-42.021*, Y=-23.294*
  8: 0x082C [0x1F] MOVE_ENTITY: Update entity position (mode=1)
  9: 0x082E [0x6F] WAIT_FRAME_DELAY: Yield until WaitTime reaches zero
 10: 0x082F [0x4A] EventEntity looks at Ragelise (ID: 17339226/0x0108935A)
 11: 0x0838 [0x00] END_REQSTACK()
```
