# Event 65535

## Metadata

| Field           | Value    |
|-----------------|----------|
| Event Index     | 75/81    |
| Offset          | 0x07C3   |
| Data Size       | 59 bytes |
| Calculated Size | 59 bytes |
| Instructions    | 12       |

```
      00 01 02 03 04 05 06 07  08 09 0A 0B 0C 0D 0E 0F
      -- -- -- -- -- -- -- --  -- -- -- -- -- -- -- --
07C0:          59 04 F8 FF FF  7F 1C 80 1F 00 DF 80 E0     Y............
07D0: 80 E1 80 1F 01 1F 00 E2  80 E3 80 E4 80 1F 01 1F  ................
07E0: 00 E5 80 E6 80 E7 80 1F  01 1F 00 E8 80 E9 80 EA  ................
07F0: 80 1F 01 6F 4A F8 FF FF  7F 5A 93 08 01 00        ...oJ....Z....  
```

## Opcodes

```
  0: 0x07C3 [0x59] UPDATE_ENTITY_DATA: Set EventEntity main speed = 39* * 0.1
  1: 0x07CB [0x1F] MOVE_ENTITY: EventEntity moves to X=-155.318*, Z=-46.044*, Y=-23.866*
  2: 0x07D3 [0x1F] MOVE_ENTITY: Update entity position (mode=1)
  3: 0x07D5 [0x1F] MOVE_ENTITY: EventEntity moves to X=-160.604*, Z=-45.539*, Y=-23.921*
  4: 0x07DD [0x1F] MOVE_ENTITY: Update entity position (mode=1)
  5: 0x07DF [0x1F] MOVE_ENTITY: EventEntity moves to X=-164.150*, Z=-45.190*, Y=-23.850*
  6: 0x07E7 [0x1F] MOVE_ENTITY: Update entity position (mode=1)
  7: 0x07E9 [0x1F] MOVE_ENTITY: EventEntity moves to X=-167.491*, Z=-42.081*, Y=-23.199*
  8: 0x07F1 [0x1F] MOVE_ENTITY: Update entity position (mode=1)
  9: 0x07F3 [0x6F] WAIT_FRAME_DELAY: Yield until WaitTime reaches zero
 10: 0x07F4 [0x4A] EventEntity looks at Ragelise (ID: 17339226/0x0108935A)
 11: 0x07FD [0x00] END_REQSTACK()
```
