# Event 368

## Metadata

| Field           | Value    |
|-----------------|----------|
| Event Index     | 4/7      |
| Offset          | 0x023F   |
| Data Size       | 56 bytes |
| Calculated Size | 56 bytes |
| Instructions    | 10       |

```
      00 01 02 03 04 05 06 07  08 09 0A 0B 0C 0D 0E 0F
      -- -- -- -- -- -- -- --  -- -- -- -- -- -- -- --
0230:                                               1E                 .
0240: F0 FF FF 7F 6F 70 5B 01  80 F8 FF FF 7F F8 FF FF  ....op[.........
0250: 7F 74 6C 6B 30 1D 12 80  23 5B 01 80 F8 FF FF 7F  .tlk0...#[......
0260: F8 FF FF 7F 74 6C 6B 32  53 F8 FF FF 7F F8 FF FF  ....tlk2S.......
0270: 7F 74 6C 6B 32 21 00                              .tlk2!.         
```

## Opcodes

```
  0: 0x023F [0x1E] EventEntity looks at LocalPlayer and starts talking
  1: 0x0244 [0x6F] WAIT_FRAME_DELAY: Yield until WaitTime reaches zero
  2: 0x0245 [0x70] WAIT_ENTITY_RENDER_FLAG: Wait while EventEntity->Render.Flags3 bit 2 is set (cancel turn if not)
  3: 0x0246 [0x5B] LOAD_EXT_SCHEDULER(work_offset=359*, entity1=EventEntity, entity2=EventEntity, action="tlk0")
  4: 0x0255 [0x1D] PRINT_EVENT_MESSAGE(message_id=8009*)
    → "Anyhow, you'll find four signposts scattered through the canyon.\u0007Slap one of these on each of 'em, and rrreport to us when the job is done.\u007F1\u0000\u0007"
  5: 0x0258 [0x23] WAIT_FOR_DIALOG_INTERACTION
  6: 0x0259 [0x5B] LOAD_EXT_SCHEDULER(work_offset=359*, entity1=EventEntity, entity2=EventEntity, action="tlk2")
  7: 0x0268 [0x53] WAIT_SCHEDULER_TASK(entity1=EventEntity, entity2=EventEntity, action_id="tlk2")
  8: 0x0275 [0x21] END_EVENT
  9: 0x0276 [0x00] END_REQSTACK()
```
