# Event 65535

## Metadata

| Field           | Value    |
|-----------------|----------|
| Event Index     | 5/12     |
| Offset          | 0x0078   |
| Data Size       | 46 bytes |
| Calculated Size | 46 bytes |
| Instructions    | 11       |

```
      00 01 02 03 04 05 06 07  08 09 0A 0B 0C 0D 0E 0F
      -- -- -- -- -- -- -- --  -- -- -- -- -- -- -- --
0070:                          24 06 80 01 80 01 80 25          $......%
0080: 02 00 10 01 80 00 97 00  29 09 F0 FF FF 7F 2A 03  ........).....*.
0090: 01 10 07 80 01 A2 00 02  00 10 02 80 00 A2 00 01  ................
00A0: A2 00 20 00 21 00                                 .. .!.          
```

## Opcodes

```
  0: 0x0078 [0x24] CREATE_DIALOG(message_id=10978*, default_option=0*, option_flags=0*)
    → "Which event?\u0007\u000Bfs001:\u0007Been out of zone at least once.\u0007Reset quest flags only.\u007F1\u0000\u0007"
  1: 0x007F [0x25] WAIT_DIALOG_SELECT()
  2: 0x0080 [0x02] IF !(Work_Zone[0] == 0*) GOTO 0x0097
  3: 0x0088 [0x29] REQ_SET_WAIT(priority=0x09, entity_id=LocalPlayer, tag_num=0x2A)
  4: 0x008F [0x03] Work_Zone[1] = 11*
  5: 0x0094 [0x01] GOTO 0x00A2
  6: 0x0097 [0x02] IF !(Work_Zone[0] == 1*) GOTO 0x00A2
  7: 0x009F [0x01] GOTO 0x00A2

SUBROUTINE_00A2:
  8: 0x00A2 [0x20] SET_CLI_EVENT_UC_FLAG: Unlock player control
  9: 0x00A4 [0x21] END_EVENT
 10: 0x00A5 [0x00] END_REQSTACK()
```
