# Event 44

## Metadata

| Field           | Value     |
|-----------------|-----------|
| Event Index     | 40/40     |
| Offset          | 0x0857    |
| Data Size       | 135 bytes |
| Calculated Size | 135 bytes |
| Instructions    | 10        |

```
      00 01 02 03 04 05 06 07  08 09 0A 0B 0C 0D 0E 0F
      -- -- -- -- -- -- -- --  -- -- -- -- -- -- -- --
0850:                      42  5D 01 80 0F 80 02 05 10         B].......
0860: 01 80 00 6E 08 A8 00 04  10 82 80 1C 8C 80 89 04  ...n............
0870: 10 8B 04 10 05 10 02 10  03 10 3F 3F 3F 00 00 00  ..........???...
0880: 00 00 00 00 00 00 00 00  00 00 45 24 80 F8 FF FF  ..........E$....
0890: 7F F8 FF FF 7F 63 68 63  6F 01 80 48 8D 80 23 02  .....chco..H..#.
08A0: 06 10 82 80 00 BC 08 45  25 80 F8 FF FF 7F F8 FF  .......E%.......
08B0: FF 7F 6E 61 6B 31 01 80  48 8E 80 23 02 07 10 8F  ..nak1..H..#....
08C0: 80 00 D9 08 45 25 80 F8  FF FF 7F F8 FF FF 7F 6E  ....E%.........n
08D0: 61 6B 32 01 80 48 90 80  23 1C 82 80 21 00        ak2..H..#...!.  
```

## Opcodes

```
  0: 0x0857 [0x42] SET_CLI_EVENT_CANCEL_DATA()
  1: 0x0858 [0x5D] SET_MUSIC_VOLUME(volume=0*, fade_time=60*)
  2: 0x085D [0x02] IF !(Work_Zone[5] == 0*) GOTO 0x086E
  3: 0x0865 [0xA8] MAP_MARKER_CONTROL: Reset/unlock markers (no map display), zone=Work_Zone[4], marker=1*
  4: 0x086B [0x1C] WAIT(15* ticks)
  5: 0x086E [0x89] OPEN_MAP(map_id=0x00001004)
  6: 0x0871 [0x8B] SET_EVENT_MARK: Add/update map marker on map Work_Zone[4] at (4.1, 4.1), index=Work_Zone[5], name=(no name)
  7: 0x087A [0x3F] 0x3F3F = ExtData[1]->WorkLocal[0] % ExtData[1]->WorkLocal[0]
  8: 0x0881 [0x00] END_REQSTACK()
```

## Data or dead code:

```
# Data Section: 0x0882 (92 bytes)
     0x0882: 00 00 00 00 00 00 00 00 45 24 80 F8 FF FF 7F F8
     0x0892: FF FF 7F 63 68 63 6F 01 80 48 8D 80 23 02 06 10
     0x08A2: 82 80 00 BC 08 45 25 80 F8 FF FF 7F F8 FF FF 7F
     0x08B2: 6E 61 6B 31 01 80 48 8E 80 23 02 07 10 8F 80 00
     0x08C2: D9 08 45 25 80 F8 FF FF 7F F8 FF FF 7F 6E 61 6B
     0x08D2: 32 01 80 48 90 80 23 1C 82 80 21 00
```