# Event 44

## Metadata

| Field           | Value     |
|-----------------|-----------|
| Event Index     | 40/40     |
| Offset          | 0x0857    |
| Data Size       | 135 bytes |
| Calculated Size | 135 bytes |
| Instructions    | 9         |

```
      00 01 02 03 04 05 06 07  08 09 0A 0B 0C 0D 0E 0F
      -- -- -- -- -- -- -- --  -- -- -- -- -- -- -- --
0850:                      42  5D 01 80 0F 80 02 05 10         B].......
0860: 01 80 00 6E 08 A8 00 04  10 82 80 1C 8C 80 89 04  ...n............
0870: 10 8B 04 10 05 10 02 10  03 10 3F 3F 3F 00 00 00  ..........???...
0880: 00 00 00 00 00 00 00 00  00 00 45 24 80 F8 FF FF  ..........E$....
0890: 7F F8 FF FF 7F 63 68 63  6F 01 80 48 8D 80 23 02  .....chco..H..#.
08A0: 06 10 82 80 00 BC 08 45  25 80 F8 FF FF 7F F8 FF  .......E%.......
08B0: FF 7F 6E 61 6B 31 01 80  48 8E 80 23 02 07 10 8F  ..nak1..H..#....
08C0: 80 00 D9 08 45 25 80 F8  FF FF 7F F8 FF FF 7F 6E  ....E%.........n
08D0: 61 6B 32 01 80 48 90 80  23 1C 82 80 21 00        ak2..H..#...!.  
```

## Opcodes

```
  0: 0x0857 [0x42] SET_CLI_EVENT_CANCEL_DATA()
  1: 0x0858 [0x5D] SET_MUSIC_VOLUME(volume=0*, fade_time=60*)
  2: 0x085D [0x02] IF !(Work_Zone[5] == 0*) GOTO 0x086E
  3: 0x0865 [0xA8] MAP_MARKER_CONTROL: Reset/unlock markers (no map display), zone=Work_Zone[4], marker=1*
  4: 0x086B [0x1C] WAIT(15* ticks)
  5: 0x086E [0x89] OPEN_MAP(map_id=0x00001004)
  6: 0x0871 [0x8B] SET_EVENT_MARK: Add/update map marker on map Work_Zone[4] at (Work_Zone[2], Work_Zone[3]), index=Work_Zone[5], name=(no name)
  7: 0x087A [0x3F] 0x3F3F = ExtData[1]->WorkLocal[0] % ExtData[1]->WorkLocal[0]
  8: 0x0881 [0x00] END_REQSTACK()
```

## Data or dead code:

```
# Dead code (unreachable instructions):
     0x0882 [0x00] END_REQSTACK()
     0x0883 [0x00] END_REQSTACK()
     0x0884 [0x00] END_REQSTACK()
     0x0885 [0x00] END_REQSTACK()
     0x0886 [0x00] END_REQSTACK()
     0x0887 [0x00] END_REQSTACK()
     0x0888 [0x00] END_REQSTACK()
     0x0889 [0x00] END_REQSTACK()
     0x088A [0x45] LOAD_SCHEDULED_TASK: Load scheduler "chco" with entities [EventEntity, EventEntity], work=[201*, 0*]
     0x089B [0x48] [System] [8075*]:
    → "There is treasure somewhere in the vicinity of this marker...\u007F1\u0000\u0007"
     0x089E [0x23] WAIT_FOR_DIALOG_INTERACTION
     0x089F [0x02] IF !(Work_Zone[6] == 1*) GOTO 0x08BC
     0x08A7 [0x45] LOAD_SCHEDULED_TASK: Load scheduler "nak1" with entities [EventEntity, EventEntity], work=[144*, 0*]
     0x08B8 [0x48] [System] [8087*]:
    → "Your chocobo seems especially sharp today!\u007F1\u0000\u0007"
     0x08BB [0x23] WAIT_FOR_DIALOG_INTERACTION
     0x08BC [0x02] IF !(Work_Zone[7] == 99*) GOTO 0x08D9
     0x08C4 [0x45] LOAD_SCHEDULED_TASK: Load scheduler "nak2" with entities [EventEntity, EventEntity], work=[144*, 0*]
     0x08D5 [0x48] [System] [8088*]:
    → "Your chocobo seems especially energetic today!\u007F1\u0000\u0007"
     0x08D8 [0x23] WAIT_FOR_DIALOG_INTERACTION
     0x08D9 [0x1C] WAIT(1* ticks)
     0x08DC [0x21] END_EVENT
     0x08DD [0x00] END_REQSTACK()
```