# Event 65535

## Metadata

| Field           | Value    |
|-----------------|----------|
| Event Index     | 39/71    |
| Offset          | 0x037F   |
| Data Size       | 57 bytes |
| Calculated Size | 57 bytes |
| Instructions    | 7        |

```
      00 01 02 03 04 05 06 07  08 09 0A 0B 0C 0D 0E 0F
      -- -- -- -- -- -- -- --  -- -- -- -- -- -- -- --
0370:                                               81                 .
0380: 00 F8 FF FF 7F 7C 00 F8  FF FF 7F 5F 05 24 80 F8  .....|....._.$..
0390: FF FF 7F F8 FF FF 7F 79  67 6F 30 25 80 5F 07 F8  .......ygo0%._..
03A0: FF FF 7F F8 FF FF 7F 79  67 6F 30 81 01 F8 FF FF  .......ygo0.....
03B0: 7F 7C 01 F8 FF FF 7F 00                           .|......        
```

## Opcodes

```
  0: 0x037F [0x81] SET_ENTITY_BLINKING(blink_flag=0x00, entity=EventEntity)
  1: 0x0385 [0x7C] EventEntity->Render.Flags2 |= 0x00
  2: 0x038B [0x5F] MULTI_HANDLER_COMPLEX(mode=0x05 - Load ext scheduler with flag (OpCode 0x5B mode 0, flag 1), ref=References[36], entity1=EventEntity, entity2=EventEntity, string="ygo0", extra=References[37])
  3: 0x039D [0x5F] MULTI_HANDLER_COMPLEX(mode=0x07 - Wait scheduler task (OpCode 0x53))
  4: 0x03AB [0x81] SET_ENTITY_BLINKING(blink_flag=0x01, entity=EventEntity)
  5: 0x03B1 [0x7C] EventEntity->Render.Flags2 |= 0x01
  6: 0x03B7 [0x00] END_REQSTACK()
```
