# Event 235

## Metadata

| Field           | Value    |
|-----------------|----------|
| Event Index     | 4/4      |
| Offset          | 0x030F   |
| Data Size       | 50 bytes |
| Calculated Size | 50 bytes |
| Instructions    | 14       |

```
      00 01 02 03 04 05 06 07  08 09 0A 0B 0C 0D 0E 0F
      -- -- -- -- -- -- -- --  -- -- -- -- -- -- -- --
0300:                                               02                 .
0310: 02 10 01 80 80 2B 03 1E  F0 FF FF 7F 1C 00 80 03  .....+..........
0320: 02 10 04 80 1D 02 80 23  01 3F 03 02 02 10 04 80  .......#.?......
0330: 80 3F 03 03 02 10 13 80  1D 02 80 23 01 3F 03 21  .?.........#.?.!
0340: 00                                                .               
```

## Opcodes

```
  0: 0x030F [0x02] IF !(Work_Zone[2] == 0*) GOTO 0x032B
  1: 0x0317 [0x1E] EventEntity looks at LocalPlayer and starts talking
  2: 0x031C [0x1C] WAIT(30* ticks)
  3: 0x031F [0x03] Work_Zone[2] = 1*
  4: 0x0324 [0x1D] PRINT_EVENT_MESSAGE(message_id=8062*)
    → "\u000C\u0000[Kweh.../Kweh!/Kwe\u0001`h.\u0001t/Kwehhh!/Kwe\u0001`h.]\u007F1\u0000\u0007"
  5: 0x0327 [0x23] WAIT_FOR_DIALOG_INTERACTION
  6: 0x0328 [0x01] GOTO 0x033F

SUBROUTINE_032B:
  7: 0x032B [0x02] IF !(Work_Zone[2] == 1*) GOTO 0x033F
  8: 0x0333 [0x03] Work_Zone[2] = 2*
  9: 0x0338 [0x1D] PRINT_EVENT_MESSAGE(message_id=8062*)
    → "\u000C\u0000[Kweh.../Kweh!/Kwe\u0001`h.\u0001t/Kwehhh!/Kwe\u0001`h.]\u007F1\u0000\u0007"
 10: 0x033B [0x23] WAIT_FOR_DIALOG_INTERACTION
 11: 0x033C [0x01] GOTO 0x033F

SUBROUTINE_033F:
 12: 0x033F [0x21] END_EVENT
 13: 0x0340 [0x00] END_REQSTACK()
```
