# Event 65535

## Metadata

| Field           | Value    |
|-----------------|----------|
| Event Index     | 4/11     |
| Offset          | 0x001A   |
| Data Size       | 45 bytes |
| Calculated Size | 45 bytes |
| Instructions    | 13       |

```
      00 01 02 03 04 05 06 07  08 09 0A 0B 0C 0D 0E 0F
      -- -- -- -- -- -- -- --  -- -- -- -- -- -- -- --
0010:                                1C 05 80 32 00 80            ...2..
0020: 1F 00 06 80 07 80 03 80  1F 01 1F 00 08 80 09 80  ................
0030: 03 80 1F 01 1F 00 0A 80  0B 80 03 80 1F 01 6F 1E  ..............o.
0040: F0 FF FF 7F 6F 70 00                              ....op.         
```

## Opcodes

```
  0: 0x001A [0x1C] WAIT(60* ticks)
  1: 0x001D [0x32] ExtData[1]->MainSpeed = 13* * 0.1
  2: 0x0020 [0x1F] MOVE_ENTITY: EventEntity moves to X=-34.783*, Z=-74.196*, Y=8.999*
  3: 0x0028 [0x1F] MOVE_ENTITY: Update entity position (mode=1)
  4: 0x002A [0x1F] MOVE_ENTITY: EventEntity moves to X=-34.829*, Z=-71.629*, Y=8.999*
  5: 0x0032 [0x1F] MOVE_ENTITY: Update entity position (mode=1)
  6: 0x0034 [0x1F] MOVE_ENTITY: EventEntity moves to X=-32.218*, Z=-71.577*, Y=8.999*
  7: 0x003C [0x1F] MOVE_ENTITY: Update entity position (mode=1)
  8: 0x003E [0x6F] WAIT_FRAME_DELAY: Yield until WaitTime reaches zero
  9: 0x003F [0x1E] EventEntity looks at LocalPlayer and starts talking
 10: 0x0044 [0x6F] WAIT_FRAME_DELAY: Yield until WaitTime reaches zero
 11: 0x0045 [0x70] WAIT_ENTITY_RENDER_FLAG: Wait while EventEntity->Render.Flags3 bit 2 is set (cancel turn if not)
 12: 0x0046 [0x00] END_REQSTACK()
```
