# Event 104

## Metadata

| Field           | Value    |
|-----------------|----------|
| Event Index     | 4/4      |
| Offset          | 0x014C   |
| Data Size       | 64 bytes |
| Calculated Size | 64 bytes |
| Instructions    | 11       |

```
      00 01 02 03 04 05 06 07  08 09 0A 0B 0C 0D 0E 0F
      -- -- -- -- -- -- -- --  -- -- -- -- -- -- -- --
0140:                                      42 20 01 79              B .y
0150: 00 F8 FF FF 7F F0 FF FF  7F 66 00 80 F8 FF FF 7F  .........f......
0160: F8 FF FF 7F 67 6B 72 30  53 F8 FF FF 7F F8 FF FF  ....gkr0S.......
0170: 7F 67 6B 72 30 1D 13 80  23 66 00 80 F8 FF FF 7F  .gkr0...#f......
0180: F8 FF FF 7F 67 6B 72 31  20 00 21 00              ....gkr1 .!.    
```

## Opcodes

```
  0: 0x014C [0x42] SET_CLI_EVENT_CANCEL_DATA()
  1: 0x014D [0x20] SET_CLI_EVENT_UC_FLAG: Lock player control
  2: 0x014F [0x79] EventEntity looks at LocalPlayer (Basic look)
  3: 0x0159 [0x66] LOAD_EXT_SCHEDULER_MAIN: Load scheduler "gkr0" with entities [EventEntity, EventEntity], work=40*
  4: 0x0168 [0x53] WAIT_SCHEDULER_TASK: Wait for scheduler "gkr0" with entities [EventEntity, EventEntity]
  5: 0x0175 [0x1D] PRINT_EVENT_MESSAGE(message_id=7984*)
    → "I-I'm terribly s-sorry...\u0007I s-seem to be out of m-magic.\u0007M-maybe you can h-help me out another t-time...?\u007F1\u0000\u0007"
  6: 0x0178 [0x23] WAIT_FOR_DIALOG_INTERACTION
  7: 0x0179 [0x66] LOAD_EXT_SCHEDULER_MAIN: Load scheduler "gkr1" with entities [EventEntity, EventEntity], work=40*
  8: 0x0188 [0x20] SET_CLI_EVENT_UC_FLAG: Unlock player control
  9: 0x018A [0x21] END_EVENT
 10: 0x018B [0x00] END_REQSTACK()
```
