# Event 207

## Metadata

| Field           | Value    |
|-----------------|----------|
| Event Index     | 3/4      |
| Offset          | 0x0118   |
| Data Size       | 52 bytes |
| Calculated Size | 52 bytes |
| Instructions    | 13       |

```
      00 01 02 03 04 05 06 07  08 09 0A 0B 0C 0D 0E 0F
      -- -- -- -- -- -- -- --  -- -- -- -- -- -- -- --
0110:                          43 00 43 01 20 01 42 03          C.C. .B.
0120: 01 10 05 80 1E F0 FF FF  7F 6F 70 1D 12 80 66 00  .........op...f.
0130: 80 F8 FF FF 7F F8 FF FF  7F 70 61 73 30 53 F8 FF  .........pas0S..
0140: FF 7F F8 FF FF 7F 70 61  73 30 21 00              ......pas0!.    
```

## Opcodes

```
  0: 0x0118 [0x43] SEND_EVENT_UPDATE: Send pending tag to server (packet 0x005B)
  1: 0x011A [0x43] SEND_EVENT_UPDATE: Check pending flag (skip if not pending)
  2: 0x011C [0x20] SET_CLI_EVENT_UC_FLAG: Lock player control
  3: 0x011E [0x42] SET_CLI_EVENT_CANCEL_DATA()
  4: 0x011F [0x03] Work_Zone[1] = 1*
  5: 0x0124 [0x1E] EventEntity looks at LocalPlayer and starts talking
  6: 0x0129 [0x6F] WAIT_FRAME_DELAY: Yield until WaitTime reaches zero
  7: 0x012A [0x70] WAIT_ENTITY_RENDER_FLAG: Wait while EventEntity->Render.Flags3 bit 2 is set (cancel turn if not)
  8: 0x012B [0x1D] PRINT_EVENT_MESSAGE(message_id=7667*)
    → "You saved me earlier! Thank you very much! You can have this...for free!\u0000\u0007"
  9: 0x012E [0x66] LOAD_EXT_SCHEDULER_MAIN: Load scheduler "pas0" with entities [EventEntity, EventEntity], work=40*
 10: 0x013D [0x53] WAIT_SCHEDULER_TASK: Wait for scheduler "pas0" with entities [EventEntity, EventEntity]
 11: 0x014A [0x21] END_EVENT
 12: 0x014B [0x00] END_REQSTACK()
```
