# Event 928

## Metadata

| Field           | Value    |
|-----------------|----------|
| Event Index     | 3/3      |
| Offset          | 0x09B8   |
| Data Size       | 51 bytes |
| Calculated Size | 51 bytes |
| Instructions    | 15       |

```
      00 01 02 03 04 05 06 07  08 09 0A 0B 0C 0D 0E 0F
      -- -- -- -- -- -- -- --  -- -- -- -- -- -- -- --
09B0:                          42 4B F0 FF FF 7F 02 10          BK......
09C0: 6F 76 F0 FF FF 7F 1C 06  80 27 10 F0 FF FF 7F 23  ov.......'.....#
09D0: 1C 28 80 48 19 80 1C 33  80 48 27 80 1C 26 80 27  .(.H...3.H'..&.'
09E0: 10 F0 FF FF 7F 24 1C 26  80 21 00                 .....$.&.!.     
```

## Opcodes

```
  0: 0x09B8 [0x42] SET_CLI_EVENT_CANCEL_DATA()
  1: 0x09B9 [0x4B] UPDATE_ENTITY_YAW(entity=LocalPlayer, yaw=22.51°)
  2: 0x09C0 [0x6F] WAIT_FRAME_DELAY: Yield until WaitTime reaches zero
  3: 0x09C1 [0x76] CHECK_ENTITY_RENDER_FLAGS: Wait until LocalPlayer Render.Flags0 and Render.Flags3 conditions are met
  4: 0x09C6 [0x1C] WAIT(30* ticks)
  5: 0x09C9 [0x27] REQ_SET(priority=0x10, entity_id=LocalPlayer, tag_num=0x23)
  6: 0x09D0 [0x1C] WAIT(120* ticks)
  7: 0x09D3 [0x48] [System] [11923*]:
    → "A strange force fills your soul.\u0000\u0007"
  8: 0x09D6 [0x1C] WAIT(300* ticks)
  9: 0x09D9 [0x48] [System] [11924*]:
    → "You begin to glow with an inner warmth!\u0000\u0007"
 10: 0x09DC [0x1C] WAIT(90* ticks)
 11: 0x09DF [0x27] REQ_SET(priority=0x10, entity_id=LocalPlayer, tag_num=0x24)
 12: 0x09E6 [0x1C] WAIT(90* ticks)
 13: 0x09E9 [0x21] END_EVENT
 14: 0x09EA [0x00] END_REQSTACK()
```
