# Event 65535

## Metadata

| Field           | Value    |
|-----------------|----------|
| Event Index     | 4/7      |
| Offset          | 0x0017   |
| Data Size       | 46 bytes |
| Calculated Size | 46 bytes |
| Instructions    | 10       |

```
      00 01 02 03 04 05 06 07  08 09 0A 0B 0C 0D 0E 0F
      -- -- -- -- -- -- -- --  -- -- -- -- -- -- -- --
0010:                      4E  00 03 31 04 01 1E EF 30         N..1....0
0020: 04 01 32 04 80 61 00 1F  00 05 80 06 80 07 80 1F  ..2..a..........
0030: 01 6F 1C 08 80 5B 09 80  EB 30 04 01 EB 30 04 01  .o...[...0...0..
0040: 77 61 72 30 00                                    war0.           
```

## Opcodes

```
  0: 0x0017 [0x4E] SET_ENTITY_HIDE_FLAG: Show Unnamed NPC (ID: 17051907/0x01043103)
  1: 0x001D [0x1E] EventEntity looks at Rishfee (ID: 17051887/0x010430EF) and starts talking
  2: 0x0022 [0x32] ExtData[1]->MainSpeed = 40* * 0.1
  3: 0x0025 [0x61] EventEntity->Render.Flags2 &= ~0x00000001
  4: 0x0027 [0x1F] MOVE_ENTITY: EventEntity moves to X=247.844*, Z=234.739*, Y=-30.812*
  5: 0x002F [0x1F] MOVE_ENTITY: Update entity position (mode=1)
  6: 0x0031 [0x6F] WAIT_FRAME_DELAY: Yield until WaitTime reaches zero
  7: 0x0032 [0x1C] WAIT(5* ticks)
  8: 0x0035 [0x5B] LOAD_EXT_SCHEDULER: Load scheduler "war0" with entities [Unnamed NPC (ID: 17051883/0x010430EB), Unnamed NPC (ID: 17051883/0x010430EB)], work=827*
  9: 0x0044 [0x00] END_REQSTACK()
```
