# Event 65535

## Metadata

| Field           | Value    |
|-----------------|----------|
| Event Index     | 22/26    |
| Offset          | 0x0152   |
| Data Size       | 54 bytes |
| Calculated Size | 54 bytes |
| Instructions    | 10       |

```
      00 01 02 03 04 05 06 07  08 09 0A 0B 0C 0D 0E 0F
      -- -- -- -- -- -- -- --  -- -- -- -- -- -- -- --
0150:       32 01 80 1F 00 05  80 06 80 04 80 1F 01 6F    2............o
0160: 1F 00 07 80 08 80 04 80  1F 01 6F 5B 00 80 F8 FF  ..........o[....
0170: FF 7F F8 FF FF 7F 62 69  6B 30 53 F8 FF FF 7F F8  ......bik0S.....
0180: FF FF 7F 62 69 6B 30 00                           ...bik0.        
```

## Opcodes

```
  0: 0x0152 [0x32] ExtData[1]->MainSpeed = 40* * 0.1
  1: 0x0155 [0x1F] MOVE_ENTITY: EventEntity moves to X=-38.127*, Z=35.342*, Y=1.349*
  2: 0x015D [0x1F] MOVE_ENTITY: Update entity position (mode=1)
  3: 0x015F [0x6F] WAIT_FRAME_DELAY: Yield until WaitTime reaches zero
  4: 0x0160 [0x1F] MOVE_ENTITY: EventEntity moves to X=-38.835*, Z=36.649*, Y=1.349*
  5: 0x0168 [0x1F] MOVE_ENTITY: Update entity position (mode=1)
  6: 0x016A [0x6F] WAIT_FRAME_DELAY: Yield until WaitTime reaches zero
  7: 0x016B [0x5B] LOAD_EXT_SCHEDULER: Load scheduler "bik0" with entities [EventEntity, EventEntity], work=2161*
  8: 0x017A [0x53] WAIT_SCHEDULER_TASK: Wait for scheduler "bik0" with entities [EventEntity, EventEntity]
  9: 0x0187 [0x00] END_REQSTACK()
```
