# Event 145

## Metadata

| Field           | Value    |
|-----------------|----------|
| Event Index     | 18/63    |
| Offset          | 0x006F   |
| Data Size       | 19 bytes |
| Calculated Size | 19 bytes |
| Instructions    | 9        |

```
      00 01 02 03 04 05 06 07  08 09 0A 0B 0C 0D 0E 0F
      -- -- -- -- -- -- -- --  -- -- -- -- -- -- -- --
0060:                                               1E                 .
0070: F0 FF FF 7F 1D 0F 80 23  1D 10 80 23 1D 11 80 23  .......#...#...#
0080: 21 00                                             !.              
```

## Opcodes

```
  0: 0x006F [0x1E] EventEntity looks at LocalPlayer and starts talking
  1: 0x0074 [0x1D] PRINT_EVENT_MESSAGE(message_id=7739*)
    → "Did you know that one of the street performers who used to come here was a beastmaster. Everyone loved his Opo-opo!\u007F1\u0000\u0007"
  2: 0x0077 [0x23] WAIT_FOR_DIALOG_INTERACTION
  3: 0x0078 [0x1D] PRINT_EVENT_MESSAGE(message_id=7740*)
    → "Somehow he made his Opo-opo do all kinds of things. I wish I could command this chocobo like that!\u007F1\u0000\u0007"
  4: 0x007B [0x23] WAIT_FOR_DIALOG_INTERACTION
  5: 0x007C [0x1D] PRINT_EVENT_MESSAGE(message_id=7741*)
    → "Anyway, his Opo-opo loved his spiffy collar. I think that the little bugger was named Tebhi.\u007F1\u0000\u0007"
  6: 0x007F [0x23] WAIT_FOR_DIALOG_INTERACTION
  7: 0x0080 [0x21] END_EVENT
  8: 0x0081 [0x00] END_REQSTACK()
```
