# Event 65535

## Metadata

| Field           | Value    |
|-----------------|----------|
| Event Index     | 55/63    |
| Offset          | 0x028E   |
| Data Size       | 54 bytes |
| Calculated Size | 54 bytes |
| Instructions    | 12       |

```
      00 01 02 03 04 05 06 07  08 09 0A 0B 0C 0D 0E 0F
      -- -- -- -- -- -- -- --  -- -- -- -- -- -- -- --
0280:                                            1C 33                .3
0290: 80 03 2D 10 34 80 32 01  80 1F 00 35 80 36 80 17  ..-.4.2....5.6..
02A0: 80 1F 01 1F 00 37 80 38  80 17 80 1F 01 1F 00 39  .....7.8.......9
02B0: 80 3A 80 17 80 1F 01 03  26 10 34 80 4B 0D 40 0F  .:......&.4.K.@.
02C0: 01 3B 80 00                                       .;..            
```

## Opcodes

```
  0: 0x028E [0x1C] WAIT(900* ticks)
  1: 0x0291 [0x03] Work_Zone[45] = 1*
  2: 0x0296 [0x32] ExtData[1]->MainSpeed = 40* * 0.1
  3: 0x0299 [0x1F] MOVE_ENTITY: EventEntity moves to X=-58.524*, Z=102.593*, Y=0.000*
  4: 0x02A1 [0x1F] MOVE_ENTITY: Update entity position (mode=1)
  5: 0x02A3 [0x1F] MOVE_ENTITY: EventEntity moves to X=-60.360*, Z=101.623*, Y=0.000*
  6: 0x02AB [0x1F] MOVE_ENTITY: Update entity position (mode=1)
  7: 0x02AD [0x1F] MOVE_ENTITY: EventEntity moves to X=-60.123*, Z=100.970*, Y=0.000*
  8: 0x02B5 [0x1F] MOVE_ENTITY: Update entity position (mode=1)
  9: 0x02B7 [0x03] Work_Zone[38] = 1*
 10: 0x02BC [0x4B] UPDATE_ENTITY_YAW(entity=Osker (ID: 17776653/0x010F400D), yaw=3.5°*)
 11: 0x02C3 [0x00] END_REQSTACK()
```
