# Event 65535

## Metadata

| Field           | Value    |
|-----------------|----------|
| Event Index     | 5/8      |
| Offset          | 0x0039   |
| Data Size       | 81 bytes |
| Calculated Size | 81 bytes |
| Instructions    | 4        |

```
      00 01 02 03 04 05 06 07  08 09 0A 0B 0C 0D 0E 0F
      -- -- -- -- -- -- -- --  -- -- -- -- -- -- -- --
0030:                             1F 00 06 80 07 80 08           .......
0040: 80 1F 01 22 01 00 3B F8  FF FF 7F 01 00 02 00 03  ..."..;.........
0050: 00 3A F8 FF FF 7F 04 00  17 05 00 04 00 00 00 16  .:..............
0060: 06 00 04 00 00 00 07 01  00 05 00 07 02 00 06 00  ................
0070: 1B 17 05 00 04 00 00 00  16 06 00 04 00 00 00 07  ................
0080: 01 00 05 00 07 02 00 06  00 1B                    ..........      
```

## Opcodes

```
  0: 0x0039 [0x1F] MOVE_ENTITY: EventEntity moves to X=-43.111*, Z=-38.852*, Y=-4.000*
  1: 0x0041 [0x1F] MOVE_ENTITY: Update entity position (mode=1)
  2: 0x0043 [0x22] ENTITY_HIDE_FLAG(enabled=0x01)
  3: 0x0045 [0x00] END_REQSTACK()
```

## Data or dead code:

```
# Dead code (unreachable instructions):
     0x0046 [0x3B] GET_ENTITY_POSITION(entity=EventEntity, x_destination=ExtData[1]->WorkLocal[1], y_destination=ExtData[1]->WorkLocal[2], z_destination=ExtData[1]->WorkLocal[3])
     0x0051 [0x3A] CONVERT_YAW_TO_BYTE(entity=EventEntity, result_destination=ExtData[1]->WorkLocal[4])
     0x0058 [0x17] ExtData[1]->WorkLocal[5] = cos(ExtData[1]->WorkLocal[4]) * ExtData[1]->WorkLocal[0]
     0x005F [0x16] ExtData[1]->WorkLocal[6] = sin(ExtData[1]->WorkLocal[4]) * ExtData[1]->WorkLocal[0]
     0x0066 [0x07] ExtData[1]->WorkLocal[1] += ExtData[1]->WorkLocal[5]
     0x006B [0x07] ExtData[1]->WorkLocal[2] += ExtData[1]->WorkLocal[6]
     0x0070 [0x1B] RETURN
     0x0071 [0x17] ExtData[1]->WorkLocal[5] = cos(ExtData[1]->WorkLocal[4]) * ExtData[1]->WorkLocal[0]
     0x0078 [0x16] ExtData[1]->WorkLocal[6] = sin(ExtData[1]->WorkLocal[4]) * ExtData[1]->WorkLocal[0]
     0x007F [0x07] ExtData[1]->WorkLocal[1] += ExtData[1]->WorkLocal[5]
     0x0084 [0x07] ExtData[1]->WorkLocal[2] += ExtData[1]->WorkLocal[6]
     0x0089 [0x1B] RETURN
```