# Event 65535

## Metadata

| Field           | Value    |
|-----------------|----------|
| Event Index     | 5/8      |
| Offset          | 0x0039   |
| Data Size       | 81 bytes |
| Calculated Size | 81 bytes |
| Instructions    | 5        |

```
      00 01 02 03 04 05 06 07  08 09 0A 0B 0C 0D 0E 0F
      -- -- -- -- -- -- -- --  -- -- -- -- -- -- -- --
0030:                             1F 00 06 80 07 80 08           .......
0040: 80 1F 01 22 01 00 3B F8  FF FF 7F 01 00 02 00 03  ..."..;.........
0050: 00 3A F8 FF FF 7F 04 00  17 05 00 04 00 00 00 16  .:..............
0060: 06 00 04 00 00 00 07 01  00 05 00 07 02 00 06 00  ................
0070: 1B 17 05 00 04 00 00 00  16 06 00 04 00 00 00 07  ................
0080: 01 00 05 00 07 02 00 06  00 1B                    ..........      
```

## Opcodes

```
  0: 0x0039 [0x1F] MOVE_ENTITY: EventEntity moves to X=-43.111*, Z=-38.852*, Y=-4.000*
  1: 0x0041 [0x1F] MOVE_ENTITY: Update entity position (mode=1)
  2: 0x0043 [0x22] ENTITY_HIDE_FLAG(enabled=0x01)
  3: 0x0045 [0x00] END_REQSTACK()
```

## Data or dead code:

```
# Data Section: 0x0046 (68 bytes)
     0x0046: 3B F8 FF FF 7F 01 00 02 00 03 00 3A F8 FF FF 7F
     0x0056: 04 00 17 05 00 04 00 00 00 16 06 00 04 00 00 00
     0x0066: 07 01 00 05 00 07 02 00 06 00 1B 17 05 00 04 00
     0x0076: 00 00 16 06 00 04 00 00 00 07 01 00 05 00 07 02
     0x0086: 00 06 00 1B
```