# Event 65535

## Metadata

| Field           | Value    |
|-----------------|----------|
| Event Index     | 82/88    |
| Offset          | 0x0560   |
| Data Size       | 57 bytes |
| Calculated Size | 57 bytes |
| Instructions    | 13       |

```
      00 01 02 03 04 05 06 07  08 09 0A 0B 0C 0D 0E 0F
      -- -- -- -- -- -- -- --  -- -- -- -- -- -- -- --
0560: 32 32 80 5A 00 50 80 51  80 52 80 5A 01 5A 00 53  22.Z.P.Q.R.Z.Z.S
0570: 80 54 80 55 80 5A 01 5A  00 56 80 57 80 58 80 5A  .T.U.Z.Z.V.W.X.Z
0580: 01 1F 00 59 80 5A 80 5B  80 1F 01 4B F8 FF FF 7F  ...Y.Z.[...K....
0590: 5C 80 6F 76 F8 FF FF 7F  00                       \.ov.....       
```

## Opcodes

```
  0: 0x0560 [0x32] ExtData[1]->MainSpeed = 40* * 0.1
  1: 0x0563 [0x5A] UPDATE_EVENT_POSITION: Set EventEntity MovePosition to X=-406.446*, Z=-441.220*, Y=6.149*
  2: 0x056B [0x5A] UPDATE_EVENT_POSITION: Move EventEntity incrementally towards MovePosition
  3: 0x056D [0x5A] UPDATE_EVENT_POSITION: Set EventEntity MovePosition to X=-399.178*, Z=-440.847*, Y=9.486*
  4: 0x0575 [0x5A] UPDATE_EVENT_POSITION: Move EventEntity incrementally towards MovePosition
  5: 0x0577 [0x5A] UPDATE_EVENT_POSITION: Set EventEntity MovePosition to X=-375.671*, Z=-439.705*, Y=14.920*
  6: 0x057F [0x5A] UPDATE_EVENT_POSITION: Move EventEntity incrementally towards MovePosition
  7: 0x0581 [0x1F] MOVE_ENTITY: EventEntity moves to X=-368.745*, Z=-445.637*, Y=14.824*
  8: 0x0589 [0x1F] MOVE_ENTITY: Update entity position (mode=1)
  9: 0x058B [0x4B] UPDATE_ENTITY_YAW(entity=EventEntity, yaw=16.5°*)
 10: 0x0592 [0x6F] WAIT_FRAME_DELAY: Yield until WaitTime reaches zero
 11: 0x0593 [0x76] CHECK_ENTITY_RENDER_FLAGS: Wait until EventEntity Render.Flags0 and Render.Flags3 conditions are met
 12: 0x0598 [0x00] END_REQSTACK()
```
