# Event 65535

## Metadata

| Field           | Value    |
|-----------------|----------|
| Event Index     | 59/61    |
| Offset          | 0x04F3   |
| Data Size       | 69 bytes |
| Calculated Size | 69 bytes |
| Instructions    | 12       |

```
      00 01 02 03 04 05 06 07  08 09 0A 0B 0C 0D 0E 0F
      -- -- -- -- -- -- -- --  -- -- -- -- -- -- -- --
04F0:          32 10 80 AD 02  11 80 F8 FF FF 7F F8 FF     2............
0500: FF 7F 1C 12 80 39 13 80  C5 2F 80 F8 FF FF 7F F8  .....9.../......
0510: FF FF 7F 73 30 30 32 0D  80 1F 00 14 80 15 80 16  ...s002.........
0520: 80 1F 01 1F 00 53 80 54  80 16 80 1F 01 1F 00 55  .....S.T.......U
0530: 80 56 80 0D 80 1F 01 00                           .V......        
```

## Opcodes

```
  0: 0x04F3 [0x32] ExtData[1]->MainSpeed = 200* * 0.1
  1: 0x04F6 [0xAD] DUAL_ENTITY_SCHEDULER: Execute sub-case 2 with entities [EventEntity, EventEntity], param=9*
  2: 0x0502 [0x1C] WAIT(90* ticks)
  3: 0x0505 [0x39] SET_ENTITY_DIRECTION(direction=23592956.5°*)
  4: 0x0508 [0xC5] LOAD_SCHEDULED_TASK_ALT3: Load scheduler 0x800D3230 for entities [EventEntity, EventEntity], work=5*, param=12403
  5: 0x0519 [0x1F] MOVE_ENTITY: EventEntity moves to X=101.230*, Z=-108.600*, Y=2.250*
  6: 0x0521 [0x1F] MOVE_ENTITY: Update entity position (mode=1)
  7: 0x0523 [0x1F] MOVE_ENTITY: EventEntity moves to X=101.680*, Z=-106.480*, Y=2.250*
  8: 0x052B [0x1F] MOVE_ENTITY: Update entity position (mode=1)
  9: 0x052D [0x1F] MOVE_ENTITY: EventEntity moves to X=81.900*, Z=-85.330*, Y=0.000*
 10: 0x0535 [0x1F] MOVE_ENTITY: Update entity position (mode=1)
 11: 0x0537 [0x00] END_REQSTACK()
```
