# 17600581 - Ildy-Goldy

## Common Data

| Field            | Value                       |
|------------------|-----------------------------|
| Zone             | Cloister of Gales (ID: 201) |
| Block Size       | 896 bytes                   |
| Total Events     | 45                          |
| References Count | 23                          |

## List of Events

| Event ID                   | Entrypoint   |   Size |   Instructions |
|----------------------------|--------------|--------|----------------|
| [65535](#event-65535)      | 0x0000       |      1 |              1 |
| [65535.1](#event-655351)   | 0x0001       |     16 |              2 |
| [65535.2](#event-655352)   | 0x0011       |     22 |              4 |
| [65535.3](#event-655353)   | 0x0027       |     16 |              2 |
| [65535.4](#event-655354)   | 0x0037       |     14 |              2 |
| [65535.5](#event-655355)   | 0x0045       |     16 |              2 |
| [65535.6](#event-655356)   | 0x0055       |     14 |              2 |
| [65535.7](#event-655357)   | 0x0063       |     16 |              2 |
| [65535.8](#event-655358)   | 0x0073       |     14 |              2 |
| [65535.9](#event-655359)   | 0x0081       |     16 |              2 |
| [65535.10](#event-6553510) | 0x0091       |     14 |              2 |
| [65535.11](#event-6553511) | 0x009F       |     16 |              2 |
| [65535.12](#event-6553512) | 0x00AF       |     14 |              2 |
| [65535.13](#event-6553513) | 0x00BD       |     16 |              2 |
| [65535.14](#event-6553514) | 0x00CD       |     14 |              2 |
| [65535.15](#event-6553515) | 0x00DB       |     16 |              2 |
| [65535.16](#event-6553516) | 0x00EB       |     14 |              2 |
| [65535.17](#event-6553517) | 0x00F9       |     16 |              2 |
| [65535.18](#event-6553518) | 0x0109       |     14 |              2 |
| [65535.19](#event-6553519) | 0x0117       |     16 |              2 |
| [65535.20](#event-6553520) | 0x0127       |     22 |              4 |
| [65535.21](#event-6553521) | 0x013D       |     16 |              2 |
| [65535.22](#event-6553522) | 0x014D       |     22 |              4 |
| [65535.23](#event-6553523) | 0x0163       |     16 |              2 |
| [65535.24](#event-6553524) | 0x0173       |     14 |              2 |
| [65535.25](#event-6553525) | 0x0181       |     16 |              2 |
| [65535.26](#event-6553526) | 0x0191       |     14 |              2 |
| [65535.27](#event-6553527) | 0x019F       |     16 |              2 |
| [65535.28](#event-6553528) | 0x01AF       |     14 |              2 |
| [65535.29](#event-6553529) | 0x01BD       |     16 |              2 |
| [65535.30](#event-6553530) | 0x01CD       |     14 |              2 |
| [65535.31](#event-6553531) | 0x01DB       |     16 |              2 |
| [65535.32](#event-6553532) | 0x01EB       |     14 |              2 |
| [32000](#event-32000)      | 0x01F9       |      1 |              1 |
| [32001](#event-32001)      | 0x01FA       |      1 |              1 |
| [65535.33](#event-6553533) | 0x01FB       |      1 |              1 |
| [65535.34](#event-6553534) | 0x01FC       |      1 |              1 |
| [65535.35](#event-6553535) | 0x01FD       |      5 |              3 |
| [65535.36](#event-6553536) | 0x0202       |      5 |              3 |
| [65535.37](#event-6553537) | 0x0207       |      5 |              3 |
| [65535.38](#event-6553538) | 0x020C       |     16 |              3 |
| [65535.39](#event-6553539) | 0x021C       |     10 |              2 |
| [65535.40](#event-6553540) | 0x0226       |     14 |              4 |
| [65535.41](#event-6553541) | 0x0234       |     14 |              4 |
| [65535.42](#event-6553542) | 0x0242       |     29 |              3 |

## DAT References (imed_data)

|   Index | Hex Value   |   Dec Value |
|---------|-------------|-------------|
|       0 | 0x0028      |          40 |
|       1 | 0x003C      |          60 |
|       2 | 0x002A      |          42 |
|       3 | 0x0029      |          41 |
|       4 | 0x000F      |          15 |
|       5 | 0x1E27      |        7719 |
|       6 | 0x1E2D      |        7725 |
|       7 | 0x1E3F      |        7743 |
|       8 | 0x64D2      |       25810 |
|       9 | 0x7AFD      |       31485 |
|      10 | 0xFFFFB80F  |  4294948879 |
|      11 | 0x06FE      |        1790 |
|      12 | 0x5CE3      |       23779 |
|      13 | 0x5A89      |       23177 |
|      14 | 0xFFFFB4EF  |  4294948079 |
|      15 | 0x0B2B      |        2859 |
|      16 | 0x5952      |       22866 |
|      17 | 0x7ACE      |       31438 |
|      18 | 0xFFFFB8EA  |  4294949098 |
|      19 | 0x5488      |       21640 |
|      20 | 0x6FC9      |       28617 |
|      21 | 0xFFFFB8C7  |  4294949063 |
|      22 | 0x002E      |          46 |

## String References

- **7719**: I vas only pretending-vending to be under your control, Uran-Mafran. The only vay a non-vizard like myself could triumph against you vas to get in under your guard.
- **7725**: I have no more desire to vield magical power.
- **7743**: ...Uran-Mafran... I von't give up either. I vill stop you...

## Events

### Event 65535

#### Metadata

| Field        | Value   |
|--------------|---------|
| Entrypoint   | 0x0000  |
| Data Size    | 1 bytes |
| Instructions | 1       |

```
      00 01 02 03 04 05 06 07  08 09 0A 0B 0C 0D 0E 0F
      -- -- -- -- -- -- -- --  -- -- -- -- -- -- -- --
0000: 00                                                .               
```

#### Opcodes

```
  0: 0x0000 [0x00] END_REQSTACK()
```

### Event 65535.1

#### Metadata

| Field        | Value    |
|--------------|----------|
| Entrypoint   | 0x0001   |
| Data Size    | 16 bytes |
| Instructions | 2        |

```
      00 01 02 03 04 05 06 07  08 09 0A 0B 0C 0D 0E 0F
      -- -- -- -- -- -- -- --  -- -- -- -- -- -- -- --
0000:    66 00 80 F8 FF FF 7F  F8 FF FF 7F 74 6C 6B 30   f..........tlk0
0010: 00                                                .               
```

#### Opcodes

```
  0: 0x0001 [0x66] LOAD_EXT_SCHEDULER_MAIN: Load scheduler "tlk0" with entities [EventEntity, EventEntity], work=40*
  1: 0x0010 [0x00] END_REQSTACK()
```

### Event 65535.2

#### Metadata

| Field        | Value    |
|--------------|----------|
| Entrypoint   | 0x0011   |
| Data Size    | 22 bytes |
| Instructions | 4        |

```
      00 01 02 03 04 05 06 07  08 09 0A 0B 0C 0D 0E 0F
      -- -- -- -- -- -- -- --  -- -- -- -- -- -- -- --
0010:    53 F8 FF FF 7F F8 FF  FF 7F 74 6C 6B 30 5E 69   S........tlk0^i
0020: 64 6C 30 1C 01 80 00                              dl0....         
```

#### Opcodes

```
  0: 0x0011 [0x53] WAIT_SCHEDULER_TASK: Wait for scheduler "tlk0" with entities [EventEntity, EventEntity]
  1: 0x001E [0x5E] EventEntity goes idle (kills current action) (animation: "idl0")
  2: 0x0023 [0x1C] WAIT(60* ticks)
  3: 0x0026 [0x00] END_REQSTACK()
```

### Event 65535.3

#### Metadata

| Field        | Value    |
|--------------|----------|
| Entrypoint   | 0x0027   |
| Data Size    | 16 bytes |
| Instructions | 2        |

```
      00 01 02 03 04 05 06 07  08 09 0A 0B 0C 0D 0E 0F
      -- -- -- -- -- -- -- --  -- -- -- -- -- -- -- --
0020:                      66  00 80 F8 FF FF 7F F8 FF         f........
0030: FF 7F 74 68 6B 31 00                              ..thk1.         
```

#### Opcodes

```
  0: 0x0027 [0x66] LOAD_EXT_SCHEDULER_MAIN: Load scheduler "thk1" with entities [EventEntity, EventEntity], work=40*
  1: 0x0036 [0x00] END_REQSTACK()
```

### Event 65535.4

#### Metadata

| Field        | Value    |
|--------------|----------|
| Entrypoint   | 0x0037   |
| Data Size    | 14 bytes |
| Instructions | 2        |

```
      00 01 02 03 04 05 06 07  08 09 0A 0B 0C 0D 0E 0F
      -- -- -- -- -- -- -- --  -- -- -- -- -- -- -- --
0030:                      53  F8 FF FF 7F F8 FF FF 7F         S........
0040: 74 68 6B 31 00                                    thk1.           
```

#### Opcodes

```
  0: 0x0037 [0x53] WAIT_SCHEDULER_TASK: Wait for scheduler "thk1" with entities [EventEntity, EventEntity]
  1: 0x0044 [0x00] END_REQSTACK()
```

### Event 65535.5

#### Metadata

| Field        | Value    |
|--------------|----------|
| Entrypoint   | 0x0045   |
| Data Size    | 16 bytes |
| Instructions | 2        |

```
      00 01 02 03 04 05 06 07  08 09 0A 0B 0C 0D 0E 0F
      -- -- -- -- -- -- -- --  -- -- -- -- -- -- -- --
0040:                66 00 80  F8 FF FF 7F F8 FF FF 7F       f..........
0050: 74 68 6B 32 00                                    thk2.           
```

#### Opcodes

```
  0: 0x0045 [0x66] LOAD_EXT_SCHEDULER_MAIN: Load scheduler "thk2" with entities [EventEntity, EventEntity], work=40*
  1: 0x0054 [0x00] END_REQSTACK()
```

### Event 65535.6

#### Metadata

| Field        | Value    |
|--------------|----------|
| Entrypoint   | 0x0055   |
| Data Size    | 14 bytes |
| Instructions | 2        |

```
      00 01 02 03 04 05 06 07  08 09 0A 0B 0C 0D 0E 0F
      -- -- -- -- -- -- -- --  -- -- -- -- -- -- -- --
0050:                53 F8 FF  FF 7F F8 FF FF 7F 74 68       S........th
0060: 6B 32 00                                          k2.             
```

#### Opcodes

```
  0: 0x0055 [0x53] WAIT_SCHEDULER_TASK: Wait for scheduler "thk2" with entities [EventEntity, EventEntity]
  1: 0x0062 [0x00] END_REQSTACK()
```

### Event 65535.7

#### Metadata

| Field        | Value    |
|--------------|----------|
| Entrypoint   | 0x0063   |
| Data Size    | 16 bytes |
| Instructions | 2        |

```
      00 01 02 03 04 05 06 07  08 09 0A 0B 0C 0D 0E 0F
      -- -- -- -- -- -- -- --  -- -- -- -- -- -- -- --
0060:          66 00 80 F8 FF  FF 7F F8 FF FF 7F 70 6F     f..........po
0070: 69 30 00                                          i0.             
```

#### Opcodes

```
  0: 0x0063 [0x66] LOAD_EXT_SCHEDULER_MAIN: Load scheduler "poi0" with entities [EventEntity, EventEntity], work=40*
  1: 0x0072 [0x00] END_REQSTACK()
```

### Event 65535.8

#### Metadata

| Field        | Value    |
|--------------|----------|
| Entrypoint   | 0x0073   |
| Data Size    | 14 bytes |
| Instructions | 2        |

```
      00 01 02 03 04 05 06 07  08 09 0A 0B 0C 0D 0E 0F
      -- -- -- -- -- -- -- --  -- -- -- -- -- -- -- --
0070:          53 F8 FF FF 7F  F8 FF FF 7F 70 6F 69 30     S........poi0
0080: 00                                                .               
```

#### Opcodes

```
  0: 0x0073 [0x53] WAIT_SCHEDULER_TASK: Wait for scheduler "poi0" with entities [EventEntity, EventEntity]
  1: 0x0080 [0x00] END_REQSTACK()
```

### Event 65535.9

#### Metadata

| Field        | Value    |
|--------------|----------|
| Entrypoint   | 0x0081   |
| Data Size    | 16 bytes |
| Instructions | 2        |

```
      00 01 02 03 04 05 06 07  08 09 0A 0B 0C 0D 0E 0F
      -- -- -- -- -- -- -- --  -- -- -- -- -- -- -- --
0080:    66 00 80 F8 FF FF 7F  F8 FF FF 7F 69 72 6F 30   f..........iro0
0090: 00                                                .               
```

#### Opcodes

```
  0: 0x0081 [0x66] LOAD_EXT_SCHEDULER_MAIN: Load scheduler "iro0" with entities [EventEntity, EventEntity], work=40*
  1: 0x0090 [0x00] END_REQSTACK()
```

### Event 65535.10

#### Metadata

| Field        | Value    |
|--------------|----------|
| Entrypoint   | 0x0091   |
| Data Size    | 14 bytes |
| Instructions | 2        |

```
      00 01 02 03 04 05 06 07  08 09 0A 0B 0C 0D 0E 0F
      -- -- -- -- -- -- -- --  -- -- -- -- -- -- -- --
0090:    53 F8 FF FF 7F F8 FF  FF 7F 69 72 6F 30 00      S........iro0. 
```

#### Opcodes

```
  0: 0x0091 [0x53] WAIT_SCHEDULER_TASK: Wait for scheduler "iro0" with entities [EventEntity, EventEntity]
  1: 0x009E [0x00] END_REQSTACK()
```

### Event 65535.11

#### Metadata

| Field        | Value    |
|--------------|----------|
| Entrypoint   | 0x009F   |
| Data Size    | 16 bytes |
| Instructions | 2        |

```
      00 01 02 03 04 05 06 07  08 09 0A 0B 0C 0D 0E 0F
      -- -- -- -- -- -- -- --  -- -- -- -- -- -- -- --
0090:                                               66                 f
00A0: 00 80 F8 FF FF 7F F8 FF  FF 7F 64 69 73 30 00     ..........dis0. 
```

#### Opcodes

```
  0: 0x009F [0x66] LOAD_EXT_SCHEDULER_MAIN: Load scheduler "dis0" with entities [EventEntity, EventEntity], work=40*
  1: 0x00AE [0x00] END_REQSTACK()
```

### Event 65535.12

#### Metadata

| Field        | Value    |
|--------------|----------|
| Entrypoint   | 0x00AF   |
| Data Size    | 14 bytes |
| Instructions | 2        |

```
      00 01 02 03 04 05 06 07  08 09 0A 0B 0C 0D 0E 0F
      -- -- -- -- -- -- -- --  -- -- -- -- -- -- -- --
00A0:                                               53                 S
00B0: F8 FF FF 7F F8 FF FF 7F  64 69 73 30 00           ........dis0.   
```

#### Opcodes

```
  0: 0x00AF [0x53] WAIT_SCHEDULER_TASK: Wait for scheduler "dis0" with entities [EventEntity, EventEntity]
  1: 0x00BC [0x00] END_REQSTACK()
```

### Event 65535.13

#### Metadata

| Field        | Value    |
|--------------|----------|
| Entrypoint   | 0x00BD   |
| Data Size    | 16 bytes |
| Instructions | 2        |

```
      00 01 02 03 04 05 06 07  08 09 0A 0B 0C 0D 0E 0F
      -- -- -- -- -- -- -- --  -- -- -- -- -- -- -- --
00B0:                                         66 02 80               f..
00C0: F8 FF FF 7F F8 FF FF 7F  74 65 68 30 00           ........teh0.   
```

#### Opcodes

```
  0: 0x00BD [0x66] LOAD_EXT_SCHEDULER_MAIN: Load scheduler "teh0" with entities [EventEntity, EventEntity], work=42*
  1: 0x00CC [0x00] END_REQSTACK()
```

### Event 65535.14

#### Metadata

| Field        | Value    |
|--------------|----------|
| Entrypoint   | 0x00CD   |
| Data Size    | 14 bytes |
| Instructions | 2        |

```
      00 01 02 03 04 05 06 07  08 09 0A 0B 0C 0D 0E 0F
      -- -- -- -- -- -- -- --  -- -- -- -- -- -- -- --
00C0:                                         53 F8 FF               S..
00D0: FF 7F F8 FF FF 7F 74 65  68 30 00                 ......teh0.     
```

#### Opcodes

```
  0: 0x00CD [0x53] WAIT_SCHEDULER_TASK: Wait for scheduler "teh0" with entities [EventEntity, EventEntity]
  1: 0x00DA [0x00] END_REQSTACK()
```

### Event 65535.15

#### Metadata

| Field        | Value    |
|--------------|----------|
| Entrypoint   | 0x00DB   |
| Data Size    | 16 bytes |
| Instructions | 2        |

```
      00 01 02 03 04 05 06 07  08 09 0A 0B 0C 0D 0E 0F
      -- -- -- -- -- -- -- --  -- -- -- -- -- -- -- --
00D0:                                   66 02 80 F8 FF             f....
00E0: FF 7F F8 FF FF 7F 74 65  68 31 00                 ......teh1.     
```

#### Opcodes

```
  0: 0x00DB [0x66] LOAD_EXT_SCHEDULER_MAIN: Load scheduler "teh1" with entities [EventEntity, EventEntity], work=42*
  1: 0x00EA [0x00] END_REQSTACK()
```

### Event 65535.16

#### Metadata

| Field        | Value    |
|--------------|----------|
| Entrypoint   | 0x00EB   |
| Data Size    | 14 bytes |
| Instructions | 2        |

```
      00 01 02 03 04 05 06 07  08 09 0A 0B 0C 0D 0E 0F
      -- -- -- -- -- -- -- --  -- -- -- -- -- -- -- --
00E0:                                   53 F8 FF FF 7F             S....
00F0: F8 FF FF 7F 74 65 68 31  00                       ....teh1.       
```

#### Opcodes

```
  0: 0x00EB [0x53] WAIT_SCHEDULER_TASK: Wait for scheduler "teh1" with entities [EventEntity, EventEntity]
  1: 0x00F8 [0x00] END_REQSTACK()
```

### Event 65535.17

#### Metadata

| Field        | Value    |
|--------------|----------|
| Entrypoint   | 0x00F9   |
| Data Size    | 16 bytes |
| Instructions | 2        |

```
      00 01 02 03 04 05 06 07  08 09 0A 0B 0C 0D 0E 0F
      -- -- -- -- -- -- -- --  -- -- -- -- -- -- -- --
00F0:                             66 03 80 F8 FF FF 7F           f......
0100: F8 FF FF 7F 73 68 6B 30  00                       ....shk0.       
```

#### Opcodes

```
  0: 0x00F9 [0x66] LOAD_EXT_SCHEDULER_MAIN: Load scheduler "shk0" with entities [EventEntity, EventEntity], work=41*
  1: 0x0108 [0x00] END_REQSTACK()
```

### Event 65535.18

#### Metadata

| Field        | Value    |
|--------------|----------|
| Entrypoint   | 0x0109   |
| Data Size    | 14 bytes |
| Instructions | 2        |

```
      00 01 02 03 04 05 06 07  08 09 0A 0B 0C 0D 0E 0F
      -- -- -- -- -- -- -- --  -- -- -- -- -- -- -- --
0100:                             53 F8 FF FF 7F F8 FF           S......
0110: FF 7F 73 68 6B 30 00                              ..shk0.         
```

#### Opcodes

```
  0: 0x0109 [0x53] WAIT_SCHEDULER_TASK: Wait for scheduler "shk0" with entities [EventEntity, EventEntity]
  1: 0x0116 [0x00] END_REQSTACK()
```

### Event 65535.19

#### Metadata

| Field        | Value    |
|--------------|----------|
| Entrypoint   | 0x0117   |
| Data Size    | 16 bytes |
| Instructions | 2        |

```
      00 01 02 03 04 05 06 07  08 09 0A 0B 0C 0D 0E 0F
      -- -- -- -- -- -- -- --  -- -- -- -- -- -- -- --
0110:                      66  00 80 F8 FF FF 7F F8 FF         f........
0120: FF 7F 7A 69 74 30 00                              ..zit0.         
```

#### Opcodes

```
  0: 0x0117 [0x66] LOAD_EXT_SCHEDULER_MAIN: Load scheduler "zit0" with entities [EventEntity, EventEntity], work=40*
  1: 0x0126 [0x00] END_REQSTACK()
```

### Event 65535.20

#### Metadata

| Field        | Value    |
|--------------|----------|
| Entrypoint   | 0x0127   |
| Data Size    | 22 bytes |
| Instructions | 4        |

```
      00 01 02 03 04 05 06 07  08 09 0A 0B 0C 0D 0E 0F
      -- -- -- -- -- -- -- --  -- -- -- -- -- -- -- --
0120:                      53  F8 FF FF 7F F8 FF FF 7F         S........
0130: 7A 69 74 30 5E 69 64 6C  30 1C 01 80 00           zit0^idl0....   
```

#### Opcodes

```
  0: 0x0127 [0x53] WAIT_SCHEDULER_TASK: Wait for scheduler "zit0" with entities [EventEntity, EventEntity]
  1: 0x0134 [0x5E] EventEntity goes idle (kills current action) (animation: "idl0")
  2: 0x0139 [0x1C] WAIT(60* ticks)
  3: 0x013C [0x00] END_REQSTACK()
```

### Event 65535.21

#### Metadata

| Field        | Value    |
|--------------|----------|
| Entrypoint   | 0x013D   |
| Data Size    | 16 bytes |
| Instructions | 2        |

```
      00 01 02 03 04 05 06 07  08 09 0A 0B 0C 0D 0E 0F
      -- -- -- -- -- -- -- --  -- -- -- -- -- -- -- --
0130:                                         66 00 80               f..
0140: F8 FF FF 7F F8 FF FF 7F  67 6B 72 30 00           ........gkr0.   
```

#### Opcodes

```
  0: 0x013D [0x66] LOAD_EXT_SCHEDULER_MAIN: Load scheduler "gkr0" with entities [EventEntity, EventEntity], work=40*
  1: 0x014C [0x00] END_REQSTACK()
```

### Event 65535.22

#### Metadata

| Field        | Value    |
|--------------|----------|
| Entrypoint   | 0x014D   |
| Data Size    | 22 bytes |
| Instructions | 4        |

```
      00 01 02 03 04 05 06 07  08 09 0A 0B 0C 0D 0E 0F
      -- -- -- -- -- -- -- --  -- -- -- -- -- -- -- --
0140:                                         53 F8 FF               S..
0150: FF 7F F8 FF FF 7F 67 6B  72 30 5E 69 64 6C 30 1C  ......gkr0^idl0.
0160: 01 80 00                                          ...             
```

#### Opcodes

```
  0: 0x014D [0x53] WAIT_SCHEDULER_TASK: Wait for scheduler "gkr0" with entities [EventEntity, EventEntity]
  1: 0x015A [0x5E] EventEntity goes idle (kills current action) (animation: "idl0")
  2: 0x015F [0x1C] WAIT(60* ticks)
  3: 0x0162 [0x00] END_REQSTACK()
```

### Event 65535.23

#### Metadata

| Field        | Value    |
|--------------|----------|
| Entrypoint   | 0x0163   |
| Data Size    | 16 bytes |
| Instructions | 2        |

```
      00 01 02 03 04 05 06 07  08 09 0A 0B 0C 0D 0E 0F
      -- -- -- -- -- -- -- --  -- -- -- -- -- -- -- --
0160:          66 02 80 F8 FF  FF 7F F8 FF FF 7F 6D 73     f..........ms
0170: 75 30 00                                          u0.             
```

#### Opcodes

```
  0: 0x0163 [0x66] LOAD_EXT_SCHEDULER_MAIN: Load scheduler "msu0" with entities [EventEntity, EventEntity], work=42*
  1: 0x0172 [0x00] END_REQSTACK()
```

### Event 65535.24

#### Metadata

| Field        | Value    |
|--------------|----------|
| Entrypoint   | 0x0173   |
| Data Size    | 14 bytes |
| Instructions | 2        |

```
      00 01 02 03 04 05 06 07  08 09 0A 0B 0C 0D 0E 0F
      -- -- -- -- -- -- -- --  -- -- -- -- -- -- -- --
0170:          53 F8 FF FF 7F  F8 FF FF 7F 6D 73 75 30     S........msu0
0180: 00                                                .               
```

#### Opcodes

```
  0: 0x0173 [0x53] WAIT_SCHEDULER_TASK: Wait for scheduler "msu0" with entities [EventEntity, EventEntity]
  1: 0x0180 [0x00] END_REQSTACK()
```

### Event 65535.25

#### Metadata

| Field        | Value    |
|--------------|----------|
| Entrypoint   | 0x0181   |
| Data Size    | 16 bytes |
| Instructions | 2        |

```
      00 01 02 03 04 05 06 07  08 09 0A 0B 0C 0D 0E 0F
      -- -- -- -- -- -- -- --  -- -- -- -- -- -- -- --
0180:    66 02 80 F8 FF FF 7F  F8 FF FF 7F 6D 73 75 31   f..........msu1
0190: 00                                                .               
```

#### Opcodes

```
  0: 0x0181 [0x66] LOAD_EXT_SCHEDULER_MAIN: Load scheduler "msu1" with entities [EventEntity, EventEntity], work=42*
  1: 0x0190 [0x00] END_REQSTACK()
```

### Event 65535.26

#### Metadata

| Field        | Value    |
|--------------|----------|
| Entrypoint   | 0x0191   |
| Data Size    | 14 bytes |
| Instructions | 2        |

```
      00 01 02 03 04 05 06 07  08 09 0A 0B 0C 0D 0E 0F
      -- -- -- -- -- -- -- --  -- -- -- -- -- -- -- --
0190:    53 F8 FF FF 7F F8 FF  FF 7F 6D 73 75 31 00      S........msu1. 
```

#### Opcodes

```
  0: 0x0191 [0x53] WAIT_SCHEDULER_TASK: Wait for scheduler "msu1" with entities [EventEntity, EventEntity]
  1: 0x019E [0x00] END_REQSTACK()
```

### Event 65535.27

#### Metadata

| Field        | Value    |
|--------------|----------|
| Entrypoint   | 0x019F   |
| Data Size    | 16 bytes |
| Instructions | 2        |

```
      00 01 02 03 04 05 06 07  08 09 0A 0B 0C 0D 0E 0F
      -- -- -- -- -- -- -- --  -- -- -- -- -- -- -- --
0190:                                               66                 f
01A0: 00 80 F8 FF FF 7F F8 FF  FF 7F 73 79 75 30 00     ..........syu0. 
```

#### Opcodes

```
  0: 0x019F [0x66] LOAD_EXT_SCHEDULER_MAIN: Load scheduler "syu0" with entities [EventEntity, EventEntity], work=40*
  1: 0x01AE [0x00] END_REQSTACK()
```

### Event 65535.28

#### Metadata

| Field        | Value    |
|--------------|----------|
| Entrypoint   | 0x01AF   |
| Data Size    | 14 bytes |
| Instructions | 2        |

```
      00 01 02 03 04 05 06 07  08 09 0A 0B 0C 0D 0E 0F
      -- -- -- -- -- -- -- --  -- -- -- -- -- -- -- --
01A0:                                               53                 S
01B0: F8 FF FF 7F F8 FF FF 7F  73 79 75 30 00           ........syu0.   
```

#### Opcodes

```
  0: 0x01AF [0x53] WAIT_SCHEDULER_TASK: Wait for scheduler "syu0" with entities [EventEntity, EventEntity]
  1: 0x01BC [0x00] END_REQSTACK()
```

### Event 65535.29

#### Metadata

| Field        | Value    |
|--------------|----------|
| Entrypoint   | 0x01BD   |
| Data Size    | 16 bytes |
| Instructions | 2        |

```
      00 01 02 03 04 05 06 07  08 09 0A 0B 0C 0D 0E 0F
      -- -- -- -- -- -- -- --  -- -- -- -- -- -- -- --
01B0:                                         66 00 80               f..
01C0: F8 FF FF 7F F8 FF FF 7F  70 61 73 30 00           ........pas0.   
```

#### Opcodes

```
  0: 0x01BD [0x66] LOAD_EXT_SCHEDULER_MAIN: Load scheduler "pas0" with entities [EventEntity, EventEntity], work=40*
  1: 0x01CC [0x00] END_REQSTACK()
```

### Event 65535.30

#### Metadata

| Field        | Value    |
|--------------|----------|
| Entrypoint   | 0x01CD   |
| Data Size    | 14 bytes |
| Instructions | 2        |

```
      00 01 02 03 04 05 06 07  08 09 0A 0B 0C 0D 0E 0F
      -- -- -- -- -- -- -- --  -- -- -- -- -- -- -- --
01C0:                                         53 F8 FF               S..
01D0: FF 7F F8 FF FF 7F 70 61  73 30 00                 ......pas0.     
```

#### Opcodes

```
  0: 0x01CD [0x53] WAIT_SCHEDULER_TASK: Wait for scheduler "pas0" with entities [EventEntity, EventEntity]
  1: 0x01DA [0x00] END_REQSTACK()
```

### Event 65535.31

#### Metadata

| Field        | Value    |
|--------------|----------|
| Entrypoint   | 0x01DB   |
| Data Size    | 16 bytes |
| Instructions | 2        |

```
      00 01 02 03 04 05 06 07  08 09 0A 0B 0C 0D 0E 0F
      -- -- -- -- -- -- -- --  -- -- -- -- -- -- -- --
01D0:                                   66 04 80 F8 FF             f....
01E0: FF 7F F8 FF FF 7F 66 72  61 30 00                 ......fra0.     
```

#### Opcodes

```
  0: 0x01DB [0x66] LOAD_EXT_SCHEDULER_MAIN: Load scheduler "fra0" with entities [EventEntity, EventEntity], work=15*
  1: 0x01EA [0x00] END_REQSTACK()
```

### Event 65535.32

#### Metadata

| Field        | Value    |
|--------------|----------|
| Entrypoint   | 0x01EB   |
| Data Size    | 14 bytes |
| Instructions | 2        |

```
      00 01 02 03 04 05 06 07  08 09 0A 0B 0C 0D 0E 0F
      -- -- -- -- -- -- -- --  -- -- -- -- -- -- -- --
01E0:                                   53 F8 FF FF 7F             S....
01F0: F8 FF FF 7F 66 72 61 30  00                       ....fra0.       
```

#### Opcodes

```
  0: 0x01EB [0x53] WAIT_SCHEDULER_TASK: Wait for scheduler "fra0" with entities [EventEntity, EventEntity]
  1: 0x01F8 [0x00] END_REQSTACK()
```

### Event 32000

#### Metadata

| Field        | Value   |
|--------------|---------|
| Entrypoint   | 0x01F9  |
| Data Size    | 1 bytes |
| Instructions | 1       |

```
      00 01 02 03 04 05 06 07  08 09 0A 0B 0C 0D 0E 0F
      -- -- -- -- -- -- -- --  -- -- -- -- -- -- -- --
01F0:                             00                             .      
```

#### Opcodes

```
  0: 0x01F9 [0x00] END_REQSTACK()
```

### Event 32001

#### Metadata

| Field        | Value   |
|--------------|---------|
| Entrypoint   | 0x01FA  |
| Data Size    | 1 bytes |
| Instructions | 1       |

```
      00 01 02 03 04 05 06 07  08 09 0A 0B 0C 0D 0E 0F
      -- -- -- -- -- -- -- --  -- -- -- -- -- -- -- --
01F0:                                00                           .     
```

#### Opcodes

```
  0: 0x01FA [0x00] END_REQSTACK()
```

### Event 65535.33

#### Metadata

| Field        | Value   |
|--------------|---------|
| Entrypoint   | 0x01FB  |
| Data Size    | 1 bytes |
| Instructions | 1       |

```
      00 01 02 03 04 05 06 07  08 09 0A 0B 0C 0D 0E 0F
      -- -- -- -- -- -- -- --  -- -- -- -- -- -- -- --
01F0:                                   00                         .    
```

#### Opcodes

```
  0: 0x01FB [0x00] END_REQSTACK()
```

### Event 65535.34

#### Metadata

| Field        | Value   |
|--------------|---------|
| Entrypoint   | 0x01FC  |
| Data Size    | 1 bytes |
| Instructions | 1       |

```
      00 01 02 03 04 05 06 07  08 09 0A 0B 0C 0D 0E 0F
      -- -- -- -- -- -- -- --  -- -- -- -- -- -- -- --
01F0:                                      00                       .   
```

#### Opcodes

```
  0: 0x01FC [0x00] END_REQSTACK()
```

### Event 65535.35

#### Metadata

| Field        | Value   |
|--------------|---------|
| Entrypoint   | 0x01FD  |
| Data Size    | 5 bytes |
| Instructions | 3       |

```
      00 01 02 03 04 05 06 07  08 09 0A 0B 0C 0D 0E 0F
      -- -- -- -- -- -- -- --  -- -- -- -- -- -- -- --
01F0:                                         1D 05 80               ...
0200: 23 00                                             #.              
```

#### Opcodes

```
  0: 0x01FD [0x1D] PRINT_EVENT_MESSAGE(message_id=7719*)
    → "I vas only pretending-vending to be under your control, Uran-Mafran. The only vay a non-vizard like myself could triumph against you vas to get in under your guard."
  1: 0x0200 [0x23] WAIT_FOR_DIALOG_INTERACTION
  2: 0x0201 [0x00] END_REQSTACK()
```

### Event 65535.36

#### Metadata

| Field        | Value   |
|--------------|---------|
| Entrypoint   | 0x0202  |
| Data Size    | 5 bytes |
| Instructions | 3       |

```
      00 01 02 03 04 05 06 07  08 09 0A 0B 0C 0D 0E 0F
      -- -- -- -- -- -- -- --  -- -- -- -- -- -- -- --
0200:       1D 06 80 23 00                                ...#.         
```

#### Opcodes

```
  0: 0x0202 [0x1D] PRINT_EVENT_MESSAGE(message_id=7725*)
    → "I have no more desire to vield magical power."
  1: 0x0205 [0x23] WAIT_FOR_DIALOG_INTERACTION
  2: 0x0206 [0x00] END_REQSTACK()
```

### Event 65535.37

#### Metadata

| Field        | Value   |
|--------------|---------|
| Entrypoint   | 0x0207  |
| Data Size    | 5 bytes |
| Instructions | 3       |

```
      00 01 02 03 04 05 06 07  08 09 0A 0B 0C 0D 0E 0F
      -- -- -- -- -- -- -- --  -- -- -- -- -- -- -- --
0200:                      1D  07 80 23 00                     ...#.    
```

#### Opcodes

```
  0: 0x0207 [0x1D] PRINT_EVENT_MESSAGE(message_id=7743*)
    → "...Uran-Mafran... I von't give up either. I vill stop you..."
  1: 0x020A [0x23] WAIT_FOR_DIALOG_INTERACTION
  2: 0x020B [0x00] END_REQSTACK()
```

### Event 65535.38

#### Metadata

| Field        | Value    |
|--------------|----------|
| Entrypoint   | 0x020C   |
| Data Size    | 16 bytes |
| Instructions | 3        |

```
      00 01 02 03 04 05 06 07  08 09 0A 0B 0C 0D 0E 0F
      -- -- -- -- -- -- -- --  -- -- -- -- -- -- -- --
0200:                                      92 01 F8 FF              ....
0210: FF 7F 37 08 80 09 80 0A  80 0B 80 00              ..7.........    
```

#### Opcodes

```
  0: 0x020C [0x92] EventEntity->Render.Flags3 ^= 0x01
  1: 0x0212 [0x37] UPDATE_EVENT_POSITION_AND_DIR: x=25.810*, z=31.485*, y=-18.417*, direction=157.3°*
  2: 0x021B [0x00] END_REQSTACK()
```

### Event 65535.39

#### Metadata

| Field        | Value    |
|--------------|----------|
| Entrypoint   | 0x021C   |
| Data Size    | 10 bytes |
| Instructions | 2        |

```
      00 01 02 03 04 05 06 07  08 09 0A 0B 0C 0D 0E 0F
      -- -- -- -- -- -- -- --  -- -- -- -- -- -- -- --
0210:                                      37 0C 80 0D              7...
0220: 80 0E 80 0F 80 00                                 ......          
```

#### Opcodes

```
  0: 0x021C [0x37] UPDATE_EVENT_POSITION_AND_DIR: x=23.779*, z=23.177*, y=-19.217*, direction=251.3°*
  1: 0x0225 [0x00] END_REQSTACK()
```

### Event 65535.40

#### Metadata

| Field        | Value    |
|--------------|----------|
| Entrypoint   | 0x0226   |
| Data Size    | 14 bytes |
| Instructions | 4        |

```
      00 01 02 03 04 05 06 07  08 09 0A 0B 0C 0D 0E 0F
      -- -- -- -- -- -- -- --  -- -- -- -- -- -- -- --
0220:                   32 00  80 1F 00 10 80 11 80 12        2.........
0230: 80 1F 01 00                                       ....            
```

#### Opcodes

```
  0: 0x0226 [0x32] ExtData[1]->MainSpeed = 40* * 0.1
  1: 0x0229 [0x1F] MOVE_ENTITY: EventEntity moves to X=22.866*, Z=31.438*, Y=-18.198*
  2: 0x0231 [0x1F] MOVE_ENTITY: Update entity position (mode=1)
  3: 0x0233 [0x00] END_REQSTACK()
```

### Event 65535.41

#### Metadata

| Field        | Value    |
|--------------|----------|
| Entrypoint   | 0x0234   |
| Data Size    | 14 bytes |
| Instructions | 4        |

```
      00 01 02 03 04 05 06 07  08 09 0A 0B 0C 0D 0E 0F
      -- -- -- -- -- -- -- --  -- -- -- -- -- -- -- --
0230:             32 00 80 5A  00 13 80 14 80 15 80 5A      2..Z.......Z
0240: 01 00                                             ..              
```

#### Opcodes

```
  0: 0x0234 [0x32] ExtData[1]->MainSpeed = 40* * 0.1
  1: 0x0237 [0x5A] UPDATE_EVENT_POSITION: Set EventEntity MovePosition to X=21.640*, Z=28.617*, Y=-18.233*
  2: 0x023F [0x5A] UPDATE_EVENT_POSITION: Move EventEntity incrementally towards MovePosition
  3: 0x0241 [0x00] END_REQSTACK()
```

### Event 65535.42

#### Metadata

| Field        | Value    |
|--------------|----------|
| Entrypoint   | 0x0242   |
| Data Size    | 29 bytes |
| Instructions | 3        |

```
      00 01 02 03 04 05 06 07  08 09 0A 0B 0C 0D 0E 0F
      -- -- -- -- -- -- -- --  -- -- -- -- -- -- -- --
0240:       66 16 80 F8 FF FF  7F F8 FF FF 7F 6D 64 71    f..........mdq
0250: 31 53 F8 FF FF 7F F8 FF  FF 7F 6D 64 71 31 00     1S........mdq1. 
```

#### Opcodes

```
  0: 0x0242 [0x66] LOAD_EXT_SCHEDULER_MAIN: Load scheduler "mdq1" with entities [EventEntity, EventEntity], work=46*
  1: 0x0251 [0x53] WAIT_SCHEDULER_TASK: Wait for scheduler "mdq1" with entities [EventEntity, EventEntity]
  2: 0x025E [0x00] END_REQSTACK()
```
