# 17600584 - EV_GARUDA

## Common Data

| Field            | Value                       |
|------------------|-----------------------------|
| Zone             | Cloister of Gales (ID: 201) |
| Block Size       | 188 bytes                   |
| Total Events     | 6                           |
| References Count | 0                           |

## List of Events

| Event ID                 | Entrypoint   |   Size |   Instructions |
|--------------------------|--------------|--------|----------------|
| [65535](#event-65535)    | 0x0000       |      1 |              1 |
| [32000](#event-32000)    | 0x0001       |      7 |              2 |
| [65535.1](#event-655351) | 0x0008       |      7 |              2 |
| [65535.2](#event-655352) | 0x000F       |     27 |              3 |
| [65535.3](#event-655353) | 0x002A       |    105 |              9 |
| [65535.4](#event-655354) | 0x0093       |      1 |              1 |

## Events

### Event 65535

#### Metadata

| Field        | Value   |
|--------------|---------|
| Entrypoint   | 0x0000  |
| Data Size    | 1 bytes |
| Instructions | 1       |

```
      00 01 02 03 04 05 06 07  08 09 0A 0B 0C 0D 0E 0F
      -- -- -- -- -- -- -- --  -- -- -- -- -- -- -- --
0000: 00                                                .               
```

#### Opcodes

```
  0: 0x0000 [0x00] END_REQSTACK()
```

### Event 32000

#### Metadata

| Field        | Value   |
|--------------|---------|
| Entrypoint   | 0x0001  |
| Data Size    | 7 bytes |
| Instructions | 2       |

```
      00 01 02 03 04 05 06 07  08 09 0A 0B 0C 0D 0E 0F
      -- -- -- -- -- -- -- --  -- -- -- -- -- -- -- --
0000:    92 01 F8 FF FF 7F 00                            .......        
```

#### Opcodes

```
  0: 0x0001 [0x92] EventEntity->Render.Flags3 ^= 0x01
  1: 0x0007 [0x00] END_REQSTACK()
```

### Event 65535.1

#### Metadata

| Field        | Value   |
|--------------|---------|
| Entrypoint   | 0x0008  |
| Data Size    | 7 bytes |
| Instructions | 2       |

```
      00 01 02 03 04 05 06 07  08 09 0A 0B 0C 0D 0E 0F
      -- -- -- -- -- -- -- --  -- -- -- -- -- -- -- --
0000:                          92 01 F8 FF FF 7F 00             ....... 
```

#### Opcodes

```
  0: 0x0008 [0x92] EventEntity->Render.Flags3 ^= 0x01
  1: 0x000E [0x00] END_REQSTACK()
```

### Event 65535.2

#### Metadata

| Field        | Value    |
|--------------|----------|
| Entrypoint   | 0x000F   |
| Data Size    | 27 bytes |
| Instructions | 3        |

```
      00 01 02 03 04 05 06 07  08 09 0A 0B 0C 0D 0E 0F
      -- -- -- -- -- -- -- --  -- -- -- -- -- -- -- --
0000:                                               2C                 ,
0010: F8 FF FF 7F F8 FF FF 7F  67 75 72 64 53 F8 FF FF  ........gurdS...
0020: 7F F8 FF FF 7F 67 75 72  64 00                    .....gurd.      
```

#### Opcodes

```
  0: 0x000F [0x2C] CREATE_SCHEDULER_TASK: Create scheduler "gurd" with entities [EventEntity, EventEntity]
  1: 0x001C [0x53] WAIT_SCHEDULER_TASK: Wait for scheduler "gurd" with entities [EventEntity, EventEntity]
  2: 0x0029 [0x00] END_REQSTACK()
```

### Event 65535.3

#### Metadata

| Field        | Value     |
|--------------|-----------|
| Entrypoint   | 0x002A    |
| Data Size    | 105 bytes |
| Instructions | 9         |

```
      00 01 02 03 04 05 06 07  08 09 0A 0B 0C 0D 0E 0F
      -- -- -- -- -- -- -- --  -- -- -- -- -- -- -- --
0020:                                2C F8 FF FF 7F F8            ,.....
0030: FF FF 7F 67 75 72 64 53  F8 FF FF 7F F8 FF FF 7F  ...gurdS........
0040: 67 75 72 64 2C F8 FF FF  7F F8 FF FF 7F 67 75 72  gurd,........gur
0050: 64 53 F8 FF FF 7F F8 FF  FF 7F 67 75 72 64 2C F8  dS........gurd,.
0060: FF FF 7F F8 FF FF 7F 67  75 72 64 53 F8 FF FF 7F  .......gurdS....
0070: F8 FF FF 7F 67 75 72 64  2C 45 90 0C 01 F8 FF FF  ....gurd,E......
0080: 7F 64 61 6D 67 53 45 90  0C 01 F8 FF FF 7F 64 61  .damgSE.......da
0090: 6D 67 00                                          mg.             
```

#### Opcodes

```
  0: 0x002A [0x2C] CREATE_SCHEDULER_TASK: Create scheduler "gurd" with entities [EventEntity, EventEntity]
  1: 0x0037 [0x53] WAIT_SCHEDULER_TASK: Wait for scheduler "gurd" with entities [EventEntity, EventEntity]
  2: 0x0044 [0x2C] CREATE_SCHEDULER_TASK: Create scheduler "gurd" with entities [EventEntity, EventEntity]
  3: 0x0051 [0x53] WAIT_SCHEDULER_TASK: Wait for scheduler "gurd" with entities [EventEntity, EventEntity]
  4: 0x005E [0x2C] CREATE_SCHEDULER_TASK: Create scheduler "gurd" with entities [EventEntity, EventEntity]
  5: 0x006B [0x53] WAIT_SCHEDULER_TASK: Wait for scheduler "gurd" with entities [EventEntity, EventEntity]
  6: 0x0078 [0x2C] CREATE_SCHEDULER_TASK: Create scheduler "damg" with entities [Ildy-Goldy (ID: 17600581/0x010C9045), EventEntity]
  7: 0x0085 [0x53] WAIT_SCHEDULER_TASK: Wait for scheduler "damg" with entities [Ildy-Goldy (ID: 17600581/0x010C9045), EventEntity]
  8: 0x0092 [0x00] END_REQSTACK()
```

### Event 65535.4

#### Metadata

| Field        | Value   |
|--------------|---------|
| Entrypoint   | 0x0093  |
| Data Size    | 1 bytes |
| Instructions | 1       |

```
      00 01 02 03 04 05 06 07  08 09 0A 0B 0C 0D 0E 0F
      -- -- -- -- -- -- -- --  -- -- -- -- -- -- -- --
0090:          00                                          .            
```

#### Opcodes

```
  0: 0x0093 [0x00] END_REQSTACK()
```
