# Event 196

## Metadata

| Field           | Value    |
|-----------------|----------|
| Event Index     | 10/13    |
| Offset          | 0x0096   |
| Data Size       | 29 bytes |
| Calculated Size | 29 bytes |
| Instructions    | 10       |

```
      00 01 02 03 04 05 06 07  08 09 0A 0B 0C 0D 0E 0F
      -- -- -- -- -- -- -- --  -- -- -- -- -- -- -- --
0090:                   1E F0  FF FF 7F 6F 70 29 0B 4E        .....op).N
00A0: F0 0E 01 01 1D 06 80 23  29 0B 4E F0 0E 01 02 20  .......#).N.... 
00B0: 00 21 00                                          .!.             
```

## Opcodes

```
  0: 0x0096 [0x1E] EventEntity looks at LocalPlayer and starts talking
  1: 0x009B [0x6F] WAIT_FRAME_DELAY: Yield until WaitTime reaches zero
  2: 0x009C [0x70] WAIT_ENTITY_RENDER_FLAG: Wait while EventEntity->Render.Flags3 bit 2 is set (cancel turn if not)
  3: 0x009D [0x29] REQ_SET_WAIT(priority=0x0B, entity_id=Dabaide-Obaide (ID: 17756238/0x010EF04E), tag_num=0x01)
  4: 0x00A4 [0x1D] PRINT_EVENT_MESSAGE(message_id=7535*)
    → "Gee... That Professor Koru-Moru sure is a strange one. But what's even strangery-wangery is that they made him Principal of the School of Magic.\u007F1\u0000\u0007"
  5: 0x00A7 [0x23] WAIT_FOR_DIALOG_INTERACTION
  6: 0x00A8 [0x29] REQ_SET_WAIT(priority=0x0B, entity_id=Dabaide-Obaide (ID: 17756238/0x010EF04E), tag_num=0x02)
  7: 0x00AF [0x20] SET_CLI_EVENT_UC_FLAG: Unlock player control
  8: 0x00B1 [0x21] END_EVENT
  9: 0x00B2 [0x00] END_REQSTACK()
```
