# Event 881

## Metadata

| Field           | Value    |
|-----------------|----------|
| Event Index     | 3/11     |
| Offset          | 0x0033   |
| Data Size       | 50 bytes |
| Calculated Size | 50 bytes |
| Instructions    | 11       |

```
      00 01 02 03 04 05 06 07  08 09 0A 0B 0C 0D 0E 0F
      -- -- -- -- -- -- -- --  -- -- -- -- -- -- -- --
0030:          1E F0 FF FF 7F  1C 00 80 66 01 80 F8 FF     ........f....
0040: FF 7F F8 FF FF 7F 74 6C  6B 30 02 8B 7F 02 80 00  ......tlk0......
0050: 5A 00 03 02 10 02 80 01  5F 00 03 02 10 03 80 1D  Z......._.......
0060: 05 80 23 21 00                                    ..#!.           
```

## Opcodes

```
  0: 0x0033 [0x1E] EventEntity looks at LocalPlayer and starts talking
  1: 0x0038 [0x1C] WAIT(30* ticks)
  2: 0x003B [0x66] LOAD_EXT_SCHEDULER_MAIN: Load scheduler "tlk0" with entities [EventEntity, EventEntity], work=29*
  3: 0x004A [0x02] IF !((LocalPlayer->Render.Flags01 >> 25) & 1 == 0*) GOTO 0x005A
  4: 0x0052 [0x03] Work_Zone[2] = 0*
  5: 0x0057 [0x01] GOTO 0x005F

SUBROUTINE_005A:
  6: 0x005A [0x03] Work_Zone[2] = 1*
  7: 0x005F [0x1D] PRINT_EVENT_MESSAGE(message_id=18251*)
    → "I am elated that my lambent glow is apparent to thee. Visit my kinsman who dwelleth in the Pashhow Marshlands anon if thou yearnest for an experience like none other.\u007F1\u0000\u0007"
  8: 0x0062 [0x23] WAIT_FOR_DIALOG_INTERACTION
  9: 0x0063 [0x21] END_EVENT
 10: 0x0064 [0x00] END_REQSTACK()
```
