# Event 65535

## Metadata

| Field           | Value    |
|-----------------|----------|
| Event Index     | 109/152  |
| Offset          | 0x066D   |
| Data Size       | 51 bytes |
| Calculated Size | 51 bytes |
| Instructions    | 12       |

```
      00 01 02 03 04 05 06 07  08 09 0A 0B 0C 0D 0E 0F
      -- -- -- -- -- -- -- --  -- -- -- -- -- -- -- --
0660:                                         32 7E 80               2~.
0670: 1F 00 7F 80 80 80 5F 80  1F 01 79 00 F8 FF FF 7F  ......_...y.....
0680: 1D 20 0F 01 1F 00 81 80  82 80 63 80 1F 01 1F 00  . ........c.....
0690: 83 80 84 80 63 80 1F 01  1E 1D 20 0F 01 6F 70 00  ....c..... ..op.
```

## Opcodes

```
  0: 0x066D [0x32] ExtData[1]->MainSpeed = 40* * 0.1
  1: 0x0670 [0x1F] MOVE_ENTITY: EventEntity moves to X=-0.834*, Z=62.196*, Y=-60.524*
  2: 0x0678 [0x1F] MOVE_ENTITY: Update entity position (mode=1)
  3: 0x067A [0x79] EventEntity looks at Star Sibyl (ID: 17768477/0x010F201D) (Basic look)
  4: 0x0684 [0x1F] MOVE_ENTITY: EventEntity moves to X=-3.856*, Z=62.209*, Y=-60.500*
  5: 0x068C [0x1F] MOVE_ENTITY: Update entity position (mode=1)
  6: 0x068E [0x1F] MOVE_ENTITY: EventEntity moves to X=-6.456*, Z=60.915*, Y=-60.500*
  7: 0x0696 [0x1F] MOVE_ENTITY: Update entity position (mode=1)
  8: 0x0698 [0x1E] EventEntity looks at Star Sibyl (ID: 17768477/0x010F201D) and starts talking
  9: 0x069D [0x6F] WAIT_FRAME_DELAY: Yield until WaitTime reaches zero
 10: 0x069E [0x70] WAIT_ENTITY_RENDER_FLAG: Wait while EventEntity->Render.Flags3 bit 2 is set (cancel turn if not)
 11: 0x069F [0x00] END_REQSTACK()
```
