# Event 65535

## Metadata

| Field           | Value    |
|-----------------|----------|
| Event Index     | 51/152   |
| Offset          | 0x034D   |
| Data Size       | 37 bytes |
| Calculated Size | 37 bytes |
| Instructions    | 9        |

```
      00 01 02 03 04 05 06 07  08 09 0A 0B 0C 0D 0E 0F
      -- -- -- -- -- -- -- --  -- -- -- -- -- -- -- --
0340:                                         1D 1E 80               ...
0350: 23 29 08 16 20 0F 01 1F  1D 1F 80 23 29 08 16 20  #).. ......#).. 
0360: 0F 01 20 29 08 16 20 0F  01 21 29 08 16 20 0F 01  .. ).. ..!).. ..
0370: 22 00                                             ".              
```

## Opcodes

```
  0: 0x034D [0x1D] PRINT_EVENT_MESSAGE(message_id=111*)
    → "Kupipi. Process this adventurer's mission paperrrs.\u007F1\u0000\u0007"
  1: 0x0350 [0x23] WAIT_FOR_DIALOG_INTERACTION
  2: 0x0351 [0x29] REQ_SET_WAIT(priority=0x08, entity_id=Semih Lafihna (ID: 17768470/0x010F2016), tag_num=0x1F)
  3: 0x0358 [0x1D] PRINT_EVENT_MESSAGE(message_id=112*)
    → "Relay \u007F\u0005[his/her] orders to \u007F\u0005[him/her] and give \u007F\u0005[him/her] \u0001\u00056\u0002\u0003\u0000\u0000.\u007F1\u0000\u0007"
  4: 0x035B [0x23] WAIT_FOR_DIALOG_INTERACTION
  5: 0x035C [0x29] REQ_SET_WAIT(priority=0x08, entity_id=Semih Lafihna (ID: 17768470/0x010F2016), tag_num=0x20)
  6: 0x0363 [0x29] REQ_SET_WAIT(priority=0x08, entity_id=Semih Lafihna (ID: 17768470/0x010F2016), tag_num=0x21)
  7: 0x036A [0x29] REQ_SET_WAIT(priority=0x08, entity_id=Semih Lafihna (ID: 17768470/0x010F2016), tag_num=0x22)
  8: 0x0371 [0x00] END_REQSTACK()
```
