# Event 557

## Metadata

| Field           | Value    |
|-----------------|----------|
| Event Index     | 10/24    |
| Offset          | 0x011B   |
| Data Size       | 44 bytes |
| Calculated Size | 44 bytes |
| Instructions    | 12       |

```
      00 01 02 03 04 05 06 07  08 09 0A 0B 0C 0D 0E 0F
      -- -- -- -- -- -- -- --  -- -- -- -- -- -- -- --
0110:                                   42 1E F0 FF FF             B....
0120: 7F 1C 00 80 03 02 10 17  80 1D 19 80 23 5B 03 80  ............#[..
0130: 41 21 03 01 41 21 03 01  74 6C 6B 30 03 02 10 1A  A!..A!..tlk0....
0140: 80 1D 1B 80 23 21 00                              ....#!.         
```

## Opcodes

```
  0: 0x011B [0x42] SET_CLI_EVENT_CANCEL_DATA()
  1: 0x011C [0x1E] EventEntity looks at LocalPlayer and starts talking
  2: 0x0121 [0x1C] WAIT(30* ticks)
  3: 0x0124 [0x03] Work_Zone[2] = 557*
  4: 0x0129 [0x1D] PRINT_EVENT_MESSAGE(message_id=5140*)
    → "Why, this be a genuine \u0001\u0005#\u0002\u0000\u0000\u0000!\u007F1\u0000\u0007"
  5: 0x012C [0x23] WAIT_FOR_DIALOG_INTERACTION
  6: 0x012D [0x5B] LOAD_EXT_SCHEDULER(work_offset=60*, entity1=Balakaf (ID: 16982337/0x01032141), entity2=Balakaf (ID: 16982337/0x01032141), action="tlk0")
  7: 0x013C [0x03] Work_Zone[2] = 773*
  8: 0x0141 [0x1D] PRINT_EVENT_MESSAGE(message_id=5141*)
    → "I've had a heck of a time getting my hands on these lately.\u0007It'll take a mite, but ye should be able t' use the \u0001\u00053\u0002\u0000\u0000\u0000 with this.\u007F1\u0000\u0007"
  9: 0x0144 [0x23] WAIT_FOR_DIALOG_INTERACTION
 10: 0x0145 [0x21] END_EVENT
 11: 0x0146 [0x00] END_REQSTACK()
```
