# Event 558

## Metadata

| Field           | Value    |
|-----------------|----------|
| Event Index     | 11/24    |
| Offset          | 0x0147   |
| Data Size       | 38 bytes |
| Calculated Size | 38 bytes |
| Instructions    | 10       |

```
      00 01 02 03 04 05 06 07  08 09 0A 0B 0C 0D 0E 0F
      -- -- -- -- -- -- -- --  -- -- -- -- -- -- -- --
0140:                      1E  F0 FF FF 7F 1C 00 80 03         .........
0150: 02 10 1A 80 5B 03 80 41  21 03 01 41 21 03 01 74  ....[..A!..A!..t
0160: 6C 6B 30 1D 1C 80 23 1D  1D 80 23 21 00           lk0...#...#!.   
```

## Opcodes

```
  0: 0x0147 [0x1E] EventEntity looks at LocalPlayer and starts talking
  1: 0x014C [0x1C] WAIT(30* ticks)
  2: 0x014F [0x03] Work_Zone[2] = 773*
  3: 0x0154 [0x5B] LOAD_EXT_SCHEDULER: Load scheduler "tlk0" with entities [Balakaf (ID: 16982337/0x01032141), Balakaf (ID: 16982337/0x01032141)], work=60*
  4: 0x0163 [0x1D] PRINT_EVENT_MESSAGE(message_id=5142*)
    → "I had t' dismantle the \u0001\u00053\u0002\u0000\u0000\u0000 for the time being. It'll take a mite until it's up and working again, so if ye could just check back with me later.\u007F1\u0000\u0007"
  5: 0x0166 [0x23] WAIT_FOR_DIALOG_INTERACTION
  6: 0x0167 [0x1D] PRINT_EVENT_MESSAGE(message_id=5143*)
    → "It'd be nice if I didn't have to take the fandangled thing apart every time t' change the lens, but there be no use in complaining.\u007F1\u0000\u0007"
  7: 0x016A [0x23] WAIT_FOR_DIALOG_INTERACTION
  8: 0x016B [0x21] END_EVENT
  9: 0x016C [0x00] END_REQSTACK()
```
