# Event 559

## Metadata

| Field           | Value    |
|-----------------|----------|
| Event Index     | 16/24    |
| Offset          | 0x0284   |
| Data Size       | 48 bytes |
| Calculated Size | 48 bytes |
| Instructions    | 10       |

```
      00 01 02 03 04 05 06 07  08 09 0A 0B 0C 0D 0E 0F
      -- -- -- -- -- -- -- --  -- -- -- -- -- -- -- --
0280:             1E F0 FF FF  7F 1C 00 80 5B 03 80 41      ........[..A
0290: 21 03 01 41 21 03 01 74  6C 6B 30 1D 27 80 23 1D  !..A!..tlk0.'.#.
02A0: 28 80 23 5B 03 80 41 21  03 01 41 21 03 01 74 6C  (.#[..A!..A!..tl
02B0: 6B 31 21 00                                       k1!.            
```

## Opcodes

```
  0: 0x0284 [0x1E] EventEntity looks at LocalPlayer and starts talking
  1: 0x0289 [0x1C] WAIT(30* ticks)
  2: 0x028C [0x5B] LOAD_EXT_SCHEDULER: Load scheduler "tlk0" with entities [Balakaf (ID: 16982337/0x01032141), Balakaf (ID: 16982337/0x01032141)], work=60*
  3: 0x029B [0x1D] PRINT_EVENT_MESSAGE(message_id=5172*)
    → "Someday ye'll enjoy reminiscing as much as I do, so be sure to visit as many places as ye can while ye've still got life in yer bones.\u007F1\u0000\u0007"
  4: 0x029E [0x23] WAIT_FOR_DIALOG_INTERACTION
  5: 0x029F [0x1D] PRINT_EVENT_MESSAGE(message_id=5173*)
    → "Make sure ye burn each image right onto yer heart, ye hear me?\u007F1\u0000\u0007"
  6: 0x02A2 [0x23] WAIT_FOR_DIALOG_INTERACTION
  7: 0x02A3 [0x5B] LOAD_EXT_SCHEDULER: Load scheduler "tlk1" with entities [Balakaf (ID: 16982337/0x01032141), Balakaf (ID: 16982337/0x01032141)], work=60*
  8: 0x02B2 [0x21] END_EVENT
  9: 0x02B3 [0x00] END_REQSTACK()
```
