# 17060102 - Nareema

## Common Data

| Field            | Value                     |
|------------------|---------------------------|
| Zone             | Leujaoam Sanctum (ID: 69) |
| Block Size       | 276 bytes                 |
| Total Events     | 6                         |
| References Count | 13                        |

## List of Events

| Event ID              | Entrypoint   |   Size |   Instructions |
|-----------------------|--------------|--------|----------------|
| [65535](#event-65535) | 0x0000       |      1 |              1 |
| [105](#event-105)     | 0x0001       |     26 |              8 |
| [107](#event-107)     | 0x001B       |     26 |              8 |
| [108](#event-108)     | 0x0035       |     26 |              8 |
| [109](#event-109)     | 0x004F       |     26 |              8 |
| [106](#event-106)     | 0x0069       |     79 |             23 |

## DAT References (imed_data)

|   Index | Hex Value   |   Dec Value |
|---------|-------------|-------------|
|       0 | 0x001E      |          30 |
|       1 | 0x000F      |          15 |
|       2 | 0x0078      |         120 |
|       3 | 0x0003      |           3 |
|       4 | 0x0004      |           4 |
|       5 | 0x1DE3      |        7651 |
|       6 | 0x0000      |           0 |
|       7 | 0x1DE4      |        7652 |
|       8 | 0x0001      |           1 |
|       9 | 0x1DE5      |        7653 |
|      10 | 0x0002      |           2 |
|      11 | 0x1DE6      |        7654 |
|      12 | 0x1DE7      |        7655 |

## String References

- **7651**: How...were the grafts? [They were fantastic!/Great!/They were okay.../Awful!]
- **7652**: Oh...that's good to know... No, no, it's not good... This will only spread the agony...
- **7653**: That's good... You and I...have much in common...but that...frightens me.
- **7654**: Oh...I'm sorry... It's my fault...I did poorly... Please leave now...
- **7655**: That's too bad... No, no...that's good...one less thing to worry about...

## Events

### Event 65535

#### Metadata

| Field        | Value   |
|--------------|---------|
| Entrypoint   | 0x0000  |
| Data Size    | 1 bytes |
| Instructions | 1       |

```
      00 01 02 03 04 05 06 07  08 09 0A 0B 0C 0D 0E 0F
      -- -- -- -- -- -- -- --  -- -- -- -- -- -- -- --
0000: 00                                                .               
```

#### Opcodes

```
  0: 0x0000 [0x00] END_REQSTACK()
```

### Event 105

#### Metadata

| Field        | Value    |
|--------------|----------|
| Entrypoint   | 0x0001   |
| Data Size    | 26 bytes |
| Instructions | 8        |

```
      00 01 02 03 04 05 06 07  08 09 0A 0B 0C 0D 0E 0F
      -- -- -- -- -- -- -- --  -- -- -- -- -- -- -- --
0000:    42 1E F0 FF FF 7F 1C  00 80 6E F8 FF FF 7F 01   B........n.....
0010: 80 99 F8 FF FF 7F 1C 02  80 21 00                 .........!.     
```

#### Opcodes

```
  0: 0x0001 [0x42] SET_CLI_EVENT_CANCEL_DATA()
  1: 0x0002 [0x1E] EventEntity looks at LocalPlayer and starts talking
  2: 0x0007 [0x1C] WAIT(30* ticks)
  3: 0x000A [0x6E] EventEntity uses emote 15*
  4: 0x0011 [0x99] Wait for EventEntity animation to complete
  5: 0x0016 [0x1C] WAIT(120* ticks)
  6: 0x0019 [0x21] END_EVENT
  7: 0x001A [0x00] END_REQSTACK()
```

### Event 107

#### Metadata

| Field        | Value    |
|--------------|----------|
| Entrypoint   | 0x001B   |
| Data Size    | 26 bytes |
| Instructions | 8        |

```
      00 01 02 03 04 05 06 07  08 09 0A 0B 0C 0D 0E 0F
      -- -- -- -- -- -- -- --  -- -- -- -- -- -- -- --
0010:                                   42 1E F0 FF FF             B....
0020: 7F 1C 03 80 6E F8 FF FF  7F 04 80 99 F8 FF FF 7F  ....n...........
0030: 1C 02 80 21 00                                    ...!.           
```

#### Opcodes

```
  0: 0x001B [0x42] SET_CLI_EVENT_CANCEL_DATA()
  1: 0x001C [0x1E] EventEntity looks at LocalPlayer and starts talking
  2: 0x0021 [0x1C] WAIT(3* ticks)
  3: 0x0024 [0x6E] EventEntity uses emote 4*
  4: 0x002B [0x99] Wait for EventEntity animation to complete
  5: 0x0030 [0x1C] WAIT(120* ticks)
  6: 0x0033 [0x21] END_EVENT
  7: 0x0034 [0x00] END_REQSTACK()
```

### Event 108

#### Metadata

| Field        | Value    |
|--------------|----------|
| Entrypoint   | 0x0035   |
| Data Size    | 26 bytes |
| Instructions | 8        |

```
      00 01 02 03 04 05 06 07  08 09 0A 0B 0C 0D 0E 0F
      -- -- -- -- -- -- -- --  -- -- -- -- -- -- -- --
0030:                42 1E F0  FF FF 7F 1C 00 80 6E F8       B........n.
0040: FF FF 7F 01 80 99 F8 FF  FF 7F 1C 02 80 21 00     .............!. 
```

#### Opcodes

```
  0: 0x0035 [0x42] SET_CLI_EVENT_CANCEL_DATA()
  1: 0x0036 [0x1E] EventEntity looks at LocalPlayer and starts talking
  2: 0x003B [0x1C] WAIT(30* ticks)
  3: 0x003E [0x6E] EventEntity uses emote 15*
  4: 0x0045 [0x99] Wait for EventEntity animation to complete
  5: 0x004A [0x1C] WAIT(120* ticks)
  6: 0x004D [0x21] END_EVENT
  7: 0x004E [0x00] END_REQSTACK()
```

### Event 109

#### Metadata

| Field        | Value    |
|--------------|----------|
| Entrypoint   | 0x004F   |
| Data Size    | 26 bytes |
| Instructions | 8        |

```
      00 01 02 03 04 05 06 07  08 09 0A 0B 0C 0D 0E 0F
      -- -- -- -- -- -- -- --  -- -- -- -- -- -- -- --
0040:                                               42                 B
0050: 1E F0 FF FF 7F 1C 00 80  6E F8 FF FF 7F 04 80 99  ........n.......
0060: F8 FF FF 7F 1C 02 80 21  00                       .......!.       
```

#### Opcodes

```
  0: 0x004F [0x42] SET_CLI_EVENT_CANCEL_DATA()
  1: 0x0050 [0x1E] EventEntity looks at LocalPlayer and starts talking
  2: 0x0055 [0x1C] WAIT(30* ticks)
  3: 0x0058 [0x6E] EventEntity uses emote 4*
  4: 0x005F [0x99] Wait for EventEntity animation to complete
  5: 0x0064 [0x1C] WAIT(120* ticks)
  6: 0x0067 [0x21] END_EVENT
  7: 0x0068 [0x00] END_REQSTACK()
```

### Event 106

#### Metadata

| Field        | Value    |
|--------------|----------|
| Entrypoint   | 0x0069   |
| Data Size    | 79 bytes |
| Instructions | 23       |

```
      00 01 02 03 04 05 06 07  08 09 0A 0B 0C 0D 0E 0F
      -- -- -- -- -- -- -- --  -- -- -- -- -- -- -- --
0060:                             42 1E F0 FF FF 7F 1C           B......
0070: 00 80 24 05 80 06 80 06  80 25 02 00 10 06 80 00  ..$......%......
0080: 89 00 1D 07 80 23 01 B6  00 02 00 10 08 80 00 98  .....#..........
0090: 00 1D 09 80 23 01 B6 00  02 00 10 0A 80 00 A7 00  ....#...........
00A0: 1D 0B 80 23 01 B6 00 02  00 10 03 80 00 B6 00 1D  ...#............
00B0: 0C 80 23 01 B6 00 21 00                           ..#...!.        
```

#### Opcodes

```
  0: 0x0069 [0x42] SET_CLI_EVENT_CANCEL_DATA()
  1: 0x006A [0x1E] EventEntity looks at LocalPlayer and starts talking
  2: 0x006F [0x1C] WAIT(30* ticks)
  3: 0x0072 [0x24] CREATE_DIALOG(message_id=7651*, default_option=0*, option_flags=0*)
    → "How...were the grafts? [They were fantastic!/Great!/They were okay.../Awful!]"
  4: 0x0079 [0x25] WAIT_DIALOG_SELECT()
  5: 0x007A [0x02] IF !(Work_Zone[0] == 0*) GOTO 0x0089
  6: 0x0082 [0x1D] PRINT_EVENT_MESSAGE(message_id=7652*)
    → "Oh...that's good to know... No, no, it's not good... This will only spread the agony..."
  7: 0x0085 [0x23] WAIT_FOR_DIALOG_INTERACTION
  8: 0x0086 [0x01] GOTO 0x00B6
  9: 0x0089 [0x02] IF !(Work_Zone[0] == 1*) GOTO 0x0098
 10: 0x0091 [0x1D] PRINT_EVENT_MESSAGE(message_id=7653*)
    → "That's good... You and I...have much in common...but that...frightens me."
 11: 0x0094 [0x23] WAIT_FOR_DIALOG_INTERACTION
 12: 0x0095 [0x01] GOTO 0x00B6
 13: 0x0098 [0x02] IF !(Work_Zone[0] == 2*) GOTO 0x00A7
 14: 0x00A0 [0x1D] PRINT_EVENT_MESSAGE(message_id=7654*)
    → "Oh...I'm sorry... It's my fault...I did poorly... Please leave now..."
 15: 0x00A3 [0x23] WAIT_FOR_DIALOG_INTERACTION
 16: 0x00A4 [0x01] GOTO 0x00B6
 17: 0x00A7 [0x02] IF !(Work_Zone[0] == 3*) GOTO 0x00B6
 18: 0x00AF [0x1D] PRINT_EVENT_MESSAGE(message_id=7655*)
    → "That's too bad... No, no...that's good...one less thing to worry about..."
 19: 0x00B2 [0x23] WAIT_FOR_DIALOG_INTERACTION
 20: 0x00B3 [0x01] GOTO 0x00B6

SUBROUTINE_00B6:
 21: 0x00B6 [0x21] END_EVENT
 22: 0x00B7 [0x00] END_REQSTACK()
```
