# 17060101 - Kuihlud

## Common Data

| Field            | Value                     |
|------------------|---------------------------|
| Zone             | Leujaoam Sanctum (ID: 69) |
| Block Size       | 64 bytes                  |
| Total Events     | 2                         |
| References Count | 3                         |

## List of Events

| Event ID              | Entrypoint   |   Size |   Instructions |
|-----------------------|--------------|--------|----------------|
| [65535](#event-65535) | 0x0000       |      1 |              1 |
| [104](#event-104)     | 0x0001       |     26 |              8 |

## DAT References (imed_data)

|   Index | Hex Value   |   Dec Value |
|---------|-------------|-------------|
|       0 | 0x001E      |          30 |
|       1 | 0x000D      |          13 |
|       2 | 0x00B4      |         180 |

## Events

### Event 65535

#### Metadata

| Field        | Value   |
|--------------|---------|
| Entrypoint   | 0x0000  |
| Data Size    | 1 bytes |
| Instructions | 1       |

```
      00 01 02 03 04 05 06 07  08 09 0A 0B 0C 0D 0E 0F
      -- -- -- -- -- -- -- --  -- -- -- -- -- -- -- --
0000: 00                                                .               
```

#### Opcodes

```
  0: 0x0000 [0x00] END_REQSTACK()
```

### Event 104

#### Metadata

| Field        | Value    |
|--------------|----------|
| Entrypoint   | 0x0001   |
| Data Size    | 26 bytes |
| Instructions | 8        |

```
      00 01 02 03 04 05 06 07  08 09 0A 0B 0C 0D 0E 0F
      -- -- -- -- -- -- -- --  -- -- -- -- -- -- -- --
0000:    42 1E F0 FF FF 7F 1C  00 80 6E F8 FF FF 7F 01   B........n.....
0010: 80 99 F8 FF FF 7F 1C 02  80 21 00                 .........!.     
```

#### Opcodes

```
  0: 0x0001 [0x42] SET_CLI_EVENT_CANCEL_DATA()
  1: 0x0002 [0x1E] EventEntity looks at LocalPlayer and starts talking
  2: 0x0007 [0x1C] WAIT(30* ticks)
  3: 0x000A [0x6E] EventEntity uses emote 13*
  4: 0x0011 [0x99] Wait for EventEntity animation to complete
  5: 0x0016 [0x1C] WAIT(180* ticks)
  6: 0x0019 [0x21] END_EVENT
  7: 0x001A [0x00] END_REQSTACK()
```
