# Event 65535

## Metadata

| Field           | Value    |
|-----------------|----------|
| Event Index     | 8/8      |
| Offset          | 0x007D   |
| Data Size       | 69 bytes |
| Calculated Size | 69 bytes |
| Instructions    | 7        |

```
      00 01 02 03 04 05 06 07  08 09 0A 0B 0C 0D 0E 0F
      -- -- -- -- -- -- -- --  -- -- -- -- -- -- -- --
0070:                                         5B 08 80               [..
0080: F8 FF FF 7F F8 FF FF 7F  64 65 6C 30 1C 09 80 62  ........del0...b
0090: 0A 80 F8 FF FF 7F F8 FF  FF 7F 6D 61 69 6E 04 80  ..........main..
00A0: 1C 0B 80 45 0C 80 24 31  0B 01 24 31 0B 01 7A 73  ...E..$1..$1..zs
00B0: 65 36 04 80 53 F8 FF FF  7F F8 FF FF 7F 64 65 6C  e6..S........del
00C0: 30 00                                             0.              
```

## Opcodes

```
  0: 0x007D [0x5B] LOAD_EXT_SCHEDULER(work_offset=603*, entity1=EventEntity, entity2=EventEntity, action="del0")
  1: 0x008C [0x1C] WAIT(13* ticks)
  2: 0x008F [0x62] LOAD_EVENT_SCHEDULER (arg=5012): Load scheduler "main" with entities [EventEntity, EventEntity], work=[84*, 0*]
  3: 0x00A0 [0x1C] WAIT(47* ticks)
  4: 0x00A3 [0x45] LOAD_SCHEDULED_TASK(work_offset1=79*, entity1=Lion (ID: 17510692/0x010B3124), entity2=Lion (ID: 17510692/0x010B3124), scheduler_id="zse6", work_offset2=0*)
  5: 0x00B4 [0x53] WAIT_SCHEDULER_TASK(entity1=EventEntity, entity2=EventEntity, action_id="del0")
  6: 0x00C1 [0x00] END_REQSTACK()
```
