# Event 65535

## Metadata

| Field           | Value    |
|-----------------|----------|
| Event Index     | 9/36     |
| Offset          | 0x0055   |
| Data Size       | 28 bytes |
| Calculated Size | 28 bytes |
| Instructions    | 7        |

```
      00 01 02 03 04 05 06 07  08 09 0A 0B 0C 0D 0E 0F
      -- -- -- -- -- -- -- --  -- -- -- -- -- -- -- --
0050:                02 00 00  11 80 00 6B 00 13 01 00       ......k....
0060: 12 80 39 01 00 1C 13 80  01 55 00 1E 98 00 02 01  ..9......U......
0070: 00                                                .               
```

## Opcodes

```
  0: 0x0055 [0x02] IF !(ExtData[1]->WorkLocal[0] == 0*) GOTO 0x006B
  1: 0x005D [0x13] ExtData[1]->WorkLocal[1] = rand() % 4095*
  2: 0x0062 [0x39] SET_ENTITY_DIRECTION(direction=0.0°)
  3: 0x0065 [0x1C] WAIT(120* ticks)
  4: 0x0068 [0x01] GOTO 0x0055
  5: 0x006B [0x1E] EventEntity looks at Unnamed NPC (ID: 16908440/0x01020098) and starts talking
  6: 0x0070 [0x00] END_REQSTACK()
```
