# Event 4891

## Metadata

| Field           | Value     |
|-----------------|-----------|
| Event Index     | 7/7       |
| Offset          | 0x0020    |
| Data Size       | 913 bytes |
| Calculated Size | 913 bytes |
| Instructions    | 38        |

```
      00 01 02 03 04 05 06 07  08 09 0A 0B 0C 0D 0E 0F
      -- -- -- -- -- -- -- --  -- -- -- -- -- -- -- --
0020: 1A 37 03 21 00 03 00 00  06 10 1E F0 FF FF 7F 6F  .7.!...........o
0030: 70 02 00 00 01 80 00 59  00 2C F8 FF FF 7F F8 FF  p......Y.,......
0040: FF 7F 74 6C 6B 30 1D 02  80 23 1D 03 80 23 1D 04  ..tlk0...#...#..
0050: 80 23 1D 05 80 23 01 66  01 02 00 00 06 80 00 81  .#...#.f........
0060: 00 2C F8 FF FF 7F F8 FF  FF 7F 74 6C 6B 30 1D 07  .,........tlk0..
0070: 80 23 1D 08 80 23 1D 09  80 23 1D 0A 80 23 01 66  .#...#...#...#.f
0080: 01 02 00 00 0B 80 00 A9  00 2C F8 FF FF 7F F8 FF  .........,......
0090: FF 7F 74 6C 6B 30 1D 0C  80 23 1D 0D 80 23 1D 0E  ..tlk0...#...#..
00A0: 80 23 1D 0F 80 23 01 66  01 02 00 00 10 80 00 D1  .#...#.f........
00B0: 00 2C F8 FF FF 7F F8 FF  FF 7F 74 6C 6B 30 1D 11  .,........tlk0..
00C0: 80 23 1D 12 80 23 1D 13  80 23 1D 14 80 23 01 66  .#...#...#...#.f
00D0: 01 02 00 00 15 80 00 F9  00 2C F8 FF FF 7F F8 FF  .........,......
00E0: FF 7F 74 6C 6B 30 1D 16  80 23 1D 17 80 23 1D 18  ..tlk0...#...#..
00F0: 80 23 1D 19 80 23 01 66  01 02 00 00 1A 80 00 21  .#...#.f.......!
0100: 01 2C F8 FF FF 7F F8 FF  FF 7F 74 6C 6B 30 1D 1B  .,........tlk0..
0110: 80 23 1D 1C 80 23 1D 1D  80 23 1D 1E 80 23 01 66  .#...#...#...#.f
0120: 01 02 00 00 1F 80 00 49  01 2C F8 FF FF 7F F8 FF  .......I.,......
0130: FF 7F 74 6C 6B 30 1D 20  80 23 1D 21 80 23 1D 22  ..tlk0. .#.!.#."
0140: 80 23 1D 23 80 23 01 66  01 2C F8 FF FF 7F F8 FF  .#.#.#.f.,......
0150: FF 7F 74 6C 6B 30 1D 24  80 23 1D 25 80 23 1D 26  ..tlk0.$.#.%.#.&
0160: 80 23 1D 27 80 23 1B 03  00 00 06 10 1E F0 FF FF  .#.'.#..........
0170: 7F 6F 70 02 00 00 01 80  00 86 01 1D 04 80 23 1D  .op...........#.
0180: 05 80 23 01 00 02 02 00  00 06 80 00 99 01 1D 09  ..#.............
0190: 80 23 1D 0A 80 23 01 00  02 02 00 00 0B 80 00 AC  .#...#..........
01A0: 01 1D 0E 80 23 1D 0F 80  23 01 00 02 02 00 00 10  ....#...#.......
01B0: 80 00 BF 01 1D 13 80 23  1D 14 80 23 01 00 02 02  .......#...#....
01C0: 00 00 15 80 00 D2 01 1D  18 80 23 1D 19 80 23 01  ..........#...#.
01D0: 00 02 02 00 00 1A 80 00  E5 01 1D 1D 80 23 1D 1E  .............#..
01E0: 80 23 01 00 02 02 00 00  1F 80 00 F8 01 1D 22 80  .#............".
01F0: 23 1D 23 80 23 01 00 02  1D 26 80 23 1D 27 80 23  #.#.#....&.#.'.#
0200: 1B 03 00 00 06 10 42 1E  F0 FF FF 7F 6F 70 02 00  ......B.....op..
0210: 00 01 80 00 1D 02 1D 28  80 23 01 7B 02 02 00 00  .......(.#.{....
0220: 06 80 00 2C 02 1D 29 80  23 01 7B 02 02 00 00 0B  ...,..).#.{.....
0230: 80 00 3B 02 1D 2A 80 23  01 7B 02 02 00 00 10 80  ..;..*.#.{......
0240: 00 4A 02 1D 2B 80 23 01  7B 02 02 00 00 15 80 00  .J..+.#.{.......
0250: 59 02 1D 2C 80 23 01 7B  02 02 00 00 1A 80 00 68  Y..,.#.{.......h
0260: 02 1D 2D 80 23 01 7B 02  02 00 00 1F 80 00 77 02  ..-.#.{.......w.
0270: 1D 2E 80 23 01 7B 02 1D  2F 80 23 1B 03 00 00 06  ...#.{../.#.....
0280: 10 42 1E F0 FF FF 7F 6F  70 02 00 00 01 80 00 A0  .B.....op.......
0290: 02 1D 30 80 23 1D 31 80  23 1D 32 80 23 01 36 03  ..0.#.1.#.2.#.6.
02A0: 02 00 00 06 80 00 B7 02  1D 33 80 23 1D 34 80 23  .........3.#.4.#
02B0: 1D 35 80 23 01 36 03 02  00 00 0B 80 00 CE 02 1D  .5.#.6..........
02C0: 36 80 23 1D 37 80 23 1D  38 80 23 01 36 03 02 00  6.#.7.#.8.#.6...
02D0: 00 10 80 00 E5 02 1D 39  80 23 1D 3A 80 23 1D 3B  .......9.#.:.#.;
02E0: 80 23 01 36 03 02 00 00  15 80 00 FC 02 1D 3C 80  .#.6..........<.
02F0: 23 1D 3D 80 23 1D 3E 80  23 01 36 03 02 00 00 1A  #.=.#.>.#.6.....
0300: 80 00 13 03 1D 3F 80 23  1D 40 80 23 1D 41 80 23  .....?.#.@.#.A.#
0310: 01 36 03 02 00 00 1F 80  00 2A 03 1D 42 80 23 1D  .6.......*..B.#.
0320: 43 80 23 1D 44 80 23 01  36 03 1D 45 80 23 1D 46  C.#.D.#.6..E.#.F
0330: 80 23 1D 47 80 23 1B 03  00 00 06 10 1E F0 FF FF  .#.G.#..........
0340: 7F 6F 70 02 00 00 01 80  00 52 03 1D 32 80 23 01  .op......R..2.#.
0350: B0 03 02 00 00 06 80 00  61 03 1D 35 80 23 01 B0  ........a..5.#..
0360: 03 02 00 00 0B 80 00 70  03 1D 38 80 23 01 B0 03  .......p..8.#...
0370: 02 00 00 10 80 00 7F 03  1D 3B 80 23 01 B0 03 02  .........;.#....
0380: 00 00 15 80 00 8E 03 1D  3E 80 23 01 B0 03 02 00  ........>.#.....
0390: 00 1A 80 00 9D 03 1D 41  80 23 01 B0 03 02 00 00  .......A.#......
03A0: 1F 80 00 AC 03 1D 44 80  23 01 B0 03 1D 47 80 23  ......D.#....G.#
03B0: 1B                                                .               
```

## Opcodes

```
  0: 0x0020 [0x1A] CALL_SUBROUTINE(address=0x0337)
  1: 0x0023 [0x21] END_EVENT
  2: 0x0024 [0x00] END_REQSTACK()

SUBROUTINE_0337:
  3: 0x0337 [0x03] ExtData[1]->WorkLocal[0] = Work_Zone[6]
  4: 0x033C [0x1E] EventEntity looks at LocalPlayer and starts talking
  5: 0x0341 [0x6F] WAIT_FRAME_DELAY: Yield until WaitTime reaches zero
  6: 0x0342 [0x70] WAIT_ENTITY_RENDER_FLAG: Wait while EventEntity->Render.Flags3 bit 2 is set (cancel turn if not)
  7: 0x0343 [0x02] IF !(ExtData[1]->WorkLocal[0] == 1*) GOTO 0x0352
  8: 0x034B [0x1D] PRINT_EVENT_MESSAGE(message_id=14032*)
    → "And please thank \u001C\u0000 the next time you see that good samaritan.\u0007The person who said, \u00072'Tis better to give than receive\u00073 probably never had a gift drought as long as mine. I feel fantastic!\u007F1\u0000\u0007"
  9: 0x034E [0x23] WAIT_FOR_DIALOG_INTERACTION
 10: 0x034F [0x01] GOTO 0x03B0
 11: 0x0352 [0x02] IF !(ExtData[1]->WorkLocal[0] == 2*) GOTO 0x0361
 12: 0x035A [0x1D] PRINT_EVENT_MESSAGE(message_id=14035*)
    → "I'm actually quite fed up with these ridiculous baubles, but I'm not one for losing face.\u0007If you should see \u001C\u0000 again, please give my regards and say I found the gift rather...quaint.\u007F1\u0000\u0007"
 13: 0x035D [0x23] WAIT_FOR_DIALOG_INTERACTION
 14: 0x035E [0x01] GOTO 0x03B0
 15: 0x0361 [0x02] IF !(ExtData[1]->WorkLocal[0] == 3*) GOTO 0x0370
 16: 0x0369 [0x1D] PRINT_EVENT_MESSAGE(message_id=14038*)
    → "Would you be so kind as to tell \u001C\u0000 that I truly appreciate the gift?\u0007I am also thoroughly impressed with your selfless nature, adventurer.\u007F1\u0000\u0007"
 17: 0x036C [0x23] WAIT_FOR_DIALOG_INTERACTION
 18: 0x036D [0x01] GOTO 0x03B0
 19: 0x0370 [0x02] IF !(ExtData[1]->WorkLocal[0] == 4*) GOTO 0x037F
 20: 0x0378 [0x1D] PRINT_EVENT_MESSAGE(message_id=14041*)
    → "The finite words of us mere mortals may not be sufficient to convey the depths of my gratitude, but I earnestly hope \u001C\u0000 would appreciate a succinct \u00072Thank you.\u00073\u007F1\u0000\u0007"
 21: 0x037B [0x23] WAIT_FOR_DIALOG_INTERACTION
 22: 0x037C [0x01] GOTO 0x03B0
 23: 0x037F [0x02] IF !(ExtData[1]->WorkLocal[0] == 5*) GOTO 0x038E
 24: 0x0387 [0x1D] PRINT_EVENT_MESSAGE(message_id=14044*)
    → "Well then, I suppose some thanks are in order. But if I find out that this was just some elaborataru scheme to make me lower my guard, I'm going to boppy-wop you both in the noggin!\u007F1\u0000\u0007"
 25: 0x038A [0x23] WAIT_FOR_DIALOG_INTERACTION
 26: 0x038B [0x01] GOTO 0x03B0
 27: 0x038E [0x02] IF !(ExtData[1]->WorkLocal[0] == 6*) GOTO 0x039D
 28: 0x0396 [0x1D] PRINT_EVENT_MESSAGE(message_id=14047*)
    → "No, thataru wouldn't be right. Besides, it might not be edible.\u0007Anyway, please be sure to thank \u001C\u0000 for pudding the icing on such a delectable Starcake Chocolation.\u0007Ugh, I'm just terrible!\u007F1\u0000\u0007"
 29: 0x0399 [0x23] WAIT_FOR_DIALOG_INTERACTION
 30: 0x039A [0x01] GOTO 0x03B0
 31: 0x039D [0x02] IF !(ExtData[1]->WorkLocal[0] == 7*) GOTO 0x03AC
 32: 0x03A5 [0x1D] PRINT_EVENT_MESSAGE(message_id=14053*)
    → "Don't get the wrrrong idea! It's not like I enjoy the gift or anything!\u0007Just run back to \u001C\u0000 and drop dead! This conversation never happened!\u007F1\u0000\u0007"
 33: 0x03A8 [0x23] WAIT_FOR_DIALOG_INTERACTION
 34: 0x03A9 [0x01] GOTO 0x03B0
 35: 0x03AC [0x1D] PRINT_EVENT_MESSAGE(message_id=14050*)
    → "I best start looking for something to give in return. In the meantime, please tell \u001C\u0000 how happy I am to have received this.\u0007And maybe next year I'll remember before it's too late. <Sigh>...One can only hope.\u007F1\u0000\u0007"
 36: 0x03AF [0x23] WAIT_FOR_DIALOG_INTERACTION
 37: 0x03B0 [0x1B] RETURN
```

## Data or dead code:

```
# Dead code (unreachable instructions):
     0x0025 [0x03] ExtData[1]->WorkLocal[0] = Work_Zone[6]
     0x002A [0x1E] EventEntity looks at LocalPlayer and starts talking
     0x002F [0x6F] WAIT_FRAME_DELAY: Yield until WaitTime reaches zero
     0x0030 [0x70] WAIT_ENTITY_RENDER_FLAG: Wait while EventEntity->Render.Flags3 bit 2 is set (cancel turn if not)
     0x0031 [0x02] IF !(ExtData[1]->WorkLocal[0] == 1*) GOTO 0x0059
     0x0039 [0x2C] CREATE_SCHEDULER_TASK: Create scheduler "tlk0" with entities [EventEntity, EventEntity]
     0x0046 [0x1D] PRINT_EVENT_MESSAGE(message_id=13990*)
    → "What? But how...?\u0007If that's truly from \u001C\u0000, that must mean...you stole it and you're ransoming it back to me!\u0007If you think for one moment that I'd pay scum like you, you'd best think twice!\u007F1\u0000\u0007"
     0x0049 [0x23] WAIT_FOR_DIALOG_INTERACTION
     0x004A [0x1D] PRINT_EVENT_MESSAGE(message_id=13991*)
    → "Oh, I see. My apologies.\u0007How silly of me. Everyone knows how mischievous Goblins get during the Starlight Celebration season. I read somewhere that it's got something to do with the moon and the tides or whatnot.\u007F1\u0000\u0007"
     0x004D [0x23] WAIT_FOR_DIALOG_INTERACTION
     0x004E [0x1D] PRINT_EVENT_MESSAGE(message_id=13992*)
    → "Anyway, sorry to trouble you, but could you deliver this in my stead?\u0007I may look like a strapping young lad, but I have this illness that prevents me from doing the same task twice in one day. Quite troublesome, really.\u007F1\u0000\u0007"
     0x0051 [0x23] WAIT_FOR_DIALOG_INTERACTION
     0x0052 [0x1D] PRINT_EVENT_MESSAGE(message_id=13993*)
    → "Also, could you do me a favor and report back to me after you're done?\u0007I didn't want to spend the extra gil for delivery confirmation with times as tough as they are, you know?\u007F1\u0000\u0007"
     0x0055 [0x23] WAIT_FOR_DIALOG_INTERACTION
     0x0056 [0x01] GOTO 0x0166
     0x0059 [0x02] IF !(ExtData[1]->WorkLocal[0] == 2*) GOTO 0x0081
     0x0061 [0x2C] CREATE_SCHEDULER_TASK: Create scheduler "tlk0" with entities [EventEntity, EventEntity]
     0x006E [0x1D] PRINT_EVENT_MESSAGE(message_id=13995*)
    → "Waaah, a cutthroat! Take anything you want, just not my lucky chocobo hose, please! I...\u0007Wait, isn't that the gift I sent \u001C\u0000? You didn't steal that too, did you!?\u007F1\u0000\u0007"
     0x0071 [0x23] WAIT_FOR_DIALOG_INTERACTION
     0x0072 [0x1D] PRINT_EVENT_MESSAGE(message_id=13996*)
    → "What!? You...valiantly wrested it from the clutches of a greedy Goblin so you could return it to me?\u0007I just knew my \u007F\u0005[handsome champion/fair handmaiden] in resplendent regalia would come some day!\u007F1\u0000\u0007"
     0x0075 [0x23] WAIT_FOR_DIALOG_INTERACTION
     0x0076 [0x1D] PRINT_EVENT_MESSAGE(message_id=13997*)
    → "I'm sure you've been through quite a few trials and tribulations just getting this back to me, your fair lady. However, my hands are tied at the moment and I can't take this present to \u001C\u0000.\u0007Therefore, I command you, my loyal follower, to act as my liaison and deliver it unscathed. I have no doubt that you'll succeed, since a \u007F\u0005[knight/handmaiden] will do anything to serve and protect \u007F\u0005[his/her] mistress.\u007F1\u0000\u0007"
     0x0079 [0x23] WAIT_FOR_DIALOG_INTERACTION
     0x007A [0x1D] PRINT_EVENT_MESSAGE(message_id=13998*)
    → "And please don't forget to check in with me after the delivery is made. Every \u007F\u0005[champion/handmaiden] knows that's the \u007F\u0005[chivalrous/proper] thing to do.\u007F1\u0000\u0007"
     0x007D [0x23] WAIT_FOR_DIALOG_INTERACTION
     0x007E [0x01] GOTO 0x0166
     0x0081 [0x02] IF !(ExtData[1]->WorkLocal[0] == 3*) GOTO 0x00A9
     0x0089 [0x2C] CREATE_SCHEDULER_TASK: Create scheduler "tlk0" with entities [EventEntity, EventEntity]
     0x0096 [0x1D] PRINT_EVENT_MESSAGE(message_id=14000*)
    → "I beg your pardon, but I cannot help but notice that this is the parcel I sent to \u001C\u0000. How might you have come by it?\u007F1\u0000\u0007"
     0x0099 [0x23] WAIT_FOR_DIALOG_INTERACTION
     0x009A [0x1D] PRINT_EVENT_MESSAGE(message_id=14001*)
    → "Ah, I see. Those Goblin rapscallions still show a complete and utter disregard for social graces, would you not agree?\u0007At any rate, you seem to possess a rather strong sense of justice, and for that I am most grateful.\u007F1\u0000\u0007"
     0x009D [0x23] WAIT_FOR_DIALOG_INTERACTION
     0x009E [0x1D] PRINT_EVENT_MESSAGE(message_id=14002*)
    → "Could you also find it within your heart to see that this package reaches \u001C\u0000 safely? I may be a man of humble means, but you will certainly have my eternal gratitude and undying admiration.\u007F1\u0000\u0007"
     0x00A1 [0x23] WAIT_FOR_DIALOG_INTERACTION
     0x00A2 [0x1D] PRINT_EVENT_MESSAGE(message_id=14003*)
    → "Oh my. This utterly slipped my addled mind.\u0007I am truly sorry, but I fear I must heap one more request upon your already burdened back. Could you please report back to me after you've made the delivery?\u0007It would undoubtedly lessen the anxiety weighing down my fragile heart.\u007F1\u0000\u0007"
     0x00A5 [0x23] WAIT_FOR_DIALOG_INTERACTION
     0x00A6 [0x01] GOTO 0x0166
     0x00A9 [0x02] IF !(ExtData[1]->WorkLocal[0] == 4*) GOTO 0x00D1
     0x00B1 [0x2C] CREATE_SCHEDULER_TASK: Create scheduler "tlk0" with entities [EventEntity, EventEntity]
     0x00BE [0x1D] PRINT_EVENT_MESSAGE(message_id=14005*)
    → "What doth bring thee 'fore these rheumy eyes, orbs that pierce the soul and a stranger's guise?\u0007Harken, thou hast \u001C\u0000's present, from whom hast thou received such consent?\u007F1\u0000\u0007"
     0x00C1 [0x23] WAIT_FOR_DIALOG_INTERACTION
     0x00C2 [0x1D] PRINT_EVENT_MESSAGE(message_id=14006*)
    → "'Tis an entertaining tale with which thy jowls doth flail,\u0007A tale of Goblins run amok, and wretched me bereft of luck.\u0007Still, thanks are in store for completing this chore with a dearth of gore.\u007F1\u0000\u0007"
     0x00C5 [0x23] WAIT_FOR_DIALOG_INTERACTION
     0x00C6 [0x1D] PRINT_EVENT_MESSAGE(message_id=14007*)
    → "While these next words may conjure a storm, I cannot assist thee in any form.\u0007Thus, I entreat thee to heed the call...deliver this gift to \u001C\u0000 once and for all!\u007F1\u0000\u0007"
     0x00C9 [0x23] WAIT_FOR_DIALOG_INTERACTION
     0x00CA [0x1D] PRINT_EVENT_MESSAGE(message_id=14008*)
    → "'Fore I finish this lengthy tirade, one last request must be made.\u0007Once the gift hath changed hands, return at once for further plans.\u007F1\u0000\u0007"
     0x00CD [0x23] WAIT_FOR_DIALOG_INTERACTION
     0x00CE [0x01] GOTO 0x0166
     0x00D1 [0x02] IF !(ExtData[1]->WorkLocal[0] == 5*) GOTO 0x00F9
     0x00D9 [0x2C] CREATE_SCHEDULER_TASK: Create scheduler "tlk0" with entities [EventEntity, EventEntity]
     0x00E6 [0x1D] PRINT_EVENT_MESSAGE(message_id=14010*)
    → "Wh-wh-what have you got there? It looks awfully-wafully like the gift I gave to \u001C\u0000.\u0007Did something happen? P-p-please don't tell me that \u001C\u0000 passy-wassed away!\u007F1\u0000\u0007"
     0x00E9 [0x23] WAIT_FOR_DIALOG_INTERACTION
     0x00EA [0x1D] PRINT_EVENT_MESSAGE(message_id=14011*)
    → "...It was just a G-g-goblin prank?\u0007Sorry to overreactaru. I had a t-t-traumatic experience last Starlight Devastation--er, Celebration! So now I always feary-wear the worst.\u0007By the way, th-th-thank you for getting my gift back.\u007F1\u0000\u0007"
     0x00ED [0x23] WAIT_FOR_DIALOG_INTERACTION
     0x00EE [0x1D] PRINT_EVENT_MESSAGE(message_id=14012*)
    → "As you can guess, m-m-my comfort zone is rather itty-bitty. I know you must be expired--tired! But can you please helpy-welp me and deliver my present to \u001C\u0000?\u007F1\u0000\u0007"
     0x00F1 [0x23] WAIT_FOR_DIALOG_INTERACTION
     0x00F2 [0x1D] PRINT_EVENT_MESSAGE(message_id=14013*)
    → "After you pass on--the gift! Pass the gift on! Then c-c-could you report back to me?\u0007I truly-wuly want to know how \u001C\u0000 reacts.\u007F1\u0000\u0007"
     0x00F5 [0x23] WAIT_FOR_DIALOG_INTERACTION
     0x00F6 [0x01] GOTO 0x0166
     0x00F9 [0x02] IF !(ExtData[1]->WorkLocal[0] == 6*) GOTO 0x0121
     0x0101 [0x2C] CREATE_SCHEDULER_TASK: Create scheduler "tlk0" with entities [EventEntity, EventEntity]
     0x010E [0x1D] PRINT_EVENT_MESSAGE(message_id=14015*)
    → "So many nasty-wasty things happened to me today, I'm just too moody-woody to listen to your blather!\u0007Begone before I--wait, isn't that my present to \u001C\u0000?\u007F1\u0000\u0007"
     0x0111 [0x23] WAIT_FOR_DIALOG_INTERACTION
     0x0112 [0x1D] PRINT_EVENT_MESSAGE(message_id=14016*)
    → "Ugh, quit barking like a bog dog, \u007F\u0005[brother-wother/sister-wister]! I don't give a ham and cheese about giddy Goblins or lazy moogles.\u007F1\u0000\u0007"
     0x0115 [0x23] WAIT_FOR_DIALOG_INTERACTION
     0x0116 [0x1D] PRINT_EVENT_MESSAGE(message_id=14017*)
    → "You think you're so great because you saved my present from some baddie-waddies? Bah humbug-wumbug!\u0007If you're gonna stick your nosey-wose in others' business, then you bettaru finish what you started!\u0007You'll be taking that gift on over to \u001C\u0000, I tell you what!\u007F1\u0000\u0007"
     0x0119 [0x23] WAIT_FOR_DIALOG_INTERACTION
     0x011A [0x1D] PRINT_EVENT_MESSAGE(message_id=14018*)
    → "And don't think for a minute-winute that I'm going to let you get away with ruining my day! Report back here for a tongue-lashing when you're done!\u0007Now get going before I gutaru you right here and now!\u007F1\u0000\u0007"
     0x011D [0x23] WAIT_FOR_DIALOG_INTERACTION
     0x011E [0x01] GOTO 0x0166
     0x0121 [0x02] IF !(ExtData[1]->WorkLocal[0] == 7*) GOTO 0x0149
     0x0129 [0x2C] CREATE_SCHEDULER_TASK: Create scheduler "tlk0" with entities [EventEntity, EventEntity]
     0x0136 [0x1D] PRINT_EVENT_MESSAGE(message_id=14025*)
    → "What have we here? A cat burrrglar?\u0007How dare you despoil the innocent people of our fair nation!\u007F1\u0000\u0007"
     0x0139 [0x23] WAIT_FOR_DIALOG_INTERACTION
     0x013A [0x1D] PRINT_EVENT_MESSAGE(message_id=14026*)
    → "What am I talking about?\u0007That's the prrresent I sent \u001C\u0000! How could you have it if you didn't steal it!?\u007F1\u0000\u0007"
     0x013D [0x23] WAIT_FOR_DIALOG_INTERACTION
     0x013E [0x1D] PRINT_EVENT_MESSAGE(message_id=14027*)
    → "Oh, I see. You're a defender of justice too.\u0007Good job negotiating with those Goblin scum. I just hope that rrrepeating that story to everyone you've saved hasn't got you hacking up hairballs.\u007F1\u0000\u0007"
     0x0141 [0x23] WAIT_FOR_DIALOG_INTERACTION
     0x0142 [0x1D] PRINT_EVENT_MESSAGE(message_id=14028*)
    → "But enough tail wagging. I have some prey I need to take care of, so could you rrredeliver that gift to \u001C\u0000 and report back to me when you're done?\u007F1\u0000\u0007"
     0x0145 [0x23] WAIT_FOR_DIALOG_INTERACTION
     0x0146 [0x01] GOTO 0x0166
     0x0149 [0x2C] CREATE_SCHEDULER_TASK: Create scheduler "tlk0" with entities [EventEntity, EventEntity]
     0x0156 [0x1D] PRINT_EVENT_MESSAGE(message_id=14020*)
    → "Hey, I sent that to \u001C\u0000. Why do you have it?\u007F1\u0000\u0007"
     0x0159 [0x23] WAIT_FOR_DIALOG_INTERACTION
     0x015A [0x1D] PRINT_EVENT_MESSAGE(message_id=14021*)
    → "Hmmm. Stolen by Gobbies, huh?\u0007Thanks for getting it back.\u007F1\u0000\u0007"
     0x015D [0x23] WAIT_FOR_DIALOG_INTERACTION
     0x015E [0x1D] PRINT_EVENT_MESSAGE(message_id=14022*)
    → "Sorry to burden you, but could you bring it to \u001C\u0000 again for me?\u007F1\u0000\u0007"
     0x0161 [0x23] WAIT_FOR_DIALOG_INTERACTION
     0x0162 [0x1D] PRINT_EVENT_MESSAGE(message_id=14023*)
    → "Also, I'd like it if you could please fill me in when you're done.\u007F1\u0000\u0007"
     0x0165 [0x23] WAIT_FOR_DIALOG_INTERACTION
     0x0166 [0x1B] RETURN
     0x0167 [0x03] ExtData[1]->WorkLocal[0] = Work_Zone[6]
     0x016C [0x1E] EventEntity looks at LocalPlayer and starts talking
     0x0171 [0x6F] WAIT_FRAME_DELAY: Yield until WaitTime reaches zero
     0x0172 [0x70] WAIT_ENTITY_RENDER_FLAG: Wait while EventEntity->Render.Flags3 bit 2 is set (cancel turn if not)
     0x0173 [0x02] IF !(ExtData[1]->WorkLocal[0] == 1*) GOTO 0x0186
     0x017B [0x1D] PRINT_EVENT_MESSAGE(message_id=13992*)
    → "Anyway, sorry to trouble you, but could you deliver this in my stead?\u0007I may look like a strapping young lad, but I have this illness that prevents me from doing the same task twice in one day. Quite troublesome, really.\u007F1\u0000\u0007"
     0x017E [0x23] WAIT_FOR_DIALOG_INTERACTION
     0x017F [0x1D] PRINT_EVENT_MESSAGE(message_id=13993*)
    → "Also, could you do me a favor and report back to me after you're done?\u0007I didn't want to spend the extra gil for delivery confirmation with times as tough as they are, you know?\u007F1\u0000\u0007"
     0x0182 [0x23] WAIT_FOR_DIALOG_INTERACTION
     0x0183 [0x01] GOTO 0x0200
     0x0186 [0x02] IF !(ExtData[1]->WorkLocal[0] == 2*) GOTO 0x0199
     0x018E [0x1D] PRINT_EVENT_MESSAGE(message_id=13997*)
    → "I'm sure you've been through quite a few trials and tribulations just getting this back to me, your fair lady. However, my hands are tied at the moment and I can't take this present to \u001C\u0000.\u0007Therefore, I command you, my loyal follower, to act as my liaison and deliver it unscathed. I have no doubt that you'll succeed, since a \u007F\u0005[knight/handmaiden] will do anything to serve and protect \u007F\u0005[his/her] mistress.\u007F1\u0000\u0007"
     0x0191 [0x23] WAIT_FOR_DIALOG_INTERACTION
     0x0192 [0x1D] PRINT_EVENT_MESSAGE(message_id=13998*)
    → "And please don't forget to check in with me after the delivery is made. Every \u007F\u0005[champion/handmaiden] knows that's the \u007F\u0005[chivalrous/proper] thing to do.\u007F1\u0000\u0007"
     0x0195 [0x23] WAIT_FOR_DIALOG_INTERACTION
     0x0196 [0x01] GOTO 0x0200
     0x0199 [0x02] IF !(ExtData[1]->WorkLocal[0] == 3*) GOTO 0x01AC
     0x01A1 [0x1D] PRINT_EVENT_MESSAGE(message_id=14002*)
    → "Could you also find it within your heart to see that this package reaches \u001C\u0000 safely? I may be a man of humble means, but you will certainly have my eternal gratitude and undying admiration.\u007F1\u0000\u0007"
     0x01A4 [0x23] WAIT_FOR_DIALOG_INTERACTION
     0x01A5 [0x1D] PRINT_EVENT_MESSAGE(message_id=14003*)
    → "Oh my. This utterly slipped my addled mind.\u0007I am truly sorry, but I fear I must heap one more request upon your already burdened back. Could you please report back to me after you've made the delivery?\u0007It would undoubtedly lessen the anxiety weighing down my fragile heart.\u007F1\u0000\u0007"
     0x01A8 [0x23] WAIT_FOR_DIALOG_INTERACTION
     0x01A9 [0x01] GOTO 0x0200
     0x01AC [0x02] IF !(ExtData[1]->WorkLocal[0] == 4*) GOTO 0x01BF
     0x01B4 [0x1D] PRINT_EVENT_MESSAGE(message_id=14007*)
    → "While these next words may conjure a storm, I cannot assist thee in any form.\u0007Thus, I entreat thee to heed the call...deliver this gift to \u001C\u0000 once and for all!\u007F1\u0000\u0007"
     0x01B7 [0x23] WAIT_FOR_DIALOG_INTERACTION
     0x01B8 [0x1D] PRINT_EVENT_MESSAGE(message_id=14008*)
    → "'Fore I finish this lengthy tirade, one last request must be made.\u0007Once the gift hath changed hands, return at once for further plans.\u007F1\u0000\u0007"
     0x01BB [0x23] WAIT_FOR_DIALOG_INTERACTION
     0x01BC [0x01] GOTO 0x0200
     0x01BF [0x02] IF !(ExtData[1]->WorkLocal[0] == 5*) GOTO 0x01D2
     0x01C7 [0x1D] PRINT_EVENT_MESSAGE(message_id=14012*)
    → "As you can guess, m-m-my comfort zone is rather itty-bitty. I know you must be expired--tired! But can you please helpy-welp me and deliver my present to \u001C\u0000?\u007F1\u0000\u0007"
     0x01CA [0x23] WAIT_FOR_DIALOG_INTERACTION
     0x01CB [0x1D] PRINT_EVENT_MESSAGE(message_id=14013*)
    → "After you pass on--the gift! Pass the gift on! Then c-c-could you report back to me?\u0007I truly-wuly want to know how \u001C\u0000 reacts.\u007F1\u0000\u0007"
     0x01CE [0x23] WAIT_FOR_DIALOG_INTERACTION
     0x01CF [0x01] GOTO 0x0200
     0x01D2 [0x02] IF !(ExtData[1]->WorkLocal[0] == 6*) GOTO 0x01E5
     0x01DA [0x1D] PRINT_EVENT_MESSAGE(message_id=14017*)
    → "You think you're so great because you saved my present from some baddie-waddies? Bah humbug-wumbug!\u0007If you're gonna stick your nosey-wose in others' business, then you bettaru finish what you started!\u0007You'll be taking that gift on over to \u001C\u0000, I tell you what!\u007F1\u0000\u0007"
     0x01DD [0x23] WAIT_FOR_DIALOG_INTERACTION
     0x01DE [0x1D] PRINT_EVENT_MESSAGE(message_id=14018*)
    → "And don't think for a minute-winute that I'm going to let you get away with ruining my day! Report back here for a tongue-lashing when you're done!\u0007Now get going before I gutaru you right here and now!\u007F1\u0000\u0007"
     0x01E1 [0x23] WAIT_FOR_DIALOG_INTERACTION
     0x01E2 [0x01] GOTO 0x0200
     0x01E5 [0x02] IF !(ExtData[1]->WorkLocal[0] == 7*) GOTO 0x01F8
     0x01ED [0x1D] PRINT_EVENT_MESSAGE(message_id=14027*)
    → "Oh, I see. You're a defender of justice too.\u0007Good job negotiating with those Goblin scum. I just hope that rrrepeating that story to everyone you've saved hasn't got you hacking up hairballs.\u007F1\u0000\u0007"
     0x01F0 [0x23] WAIT_FOR_DIALOG_INTERACTION
     0x01F1 [0x1D] PRINT_EVENT_MESSAGE(message_id=14028*)
    → "But enough tail wagging. I have some prey I need to take care of, so could you rrredeliver that gift to \u001C\u0000 and report back to me when you're done?\u007F1\u0000\u0007"
     0x01F4 [0x23] WAIT_FOR_DIALOG_INTERACTION
     0x01F5 [0x01] GOTO 0x0200
     0x01F8 [0x1D] PRINT_EVENT_MESSAGE(message_id=14022*)
    → "Sorry to burden you, but could you bring it to \u001C\u0000 again for me?\u007F1\u0000\u0007"
     0x01FB [0x23] WAIT_FOR_DIALOG_INTERACTION
     0x01FC [0x1D] PRINT_EVENT_MESSAGE(message_id=14023*)
    → "Also, I'd like it if you could please fill me in when you're done.\u007F1\u0000\u0007"
     0x01FF [0x23] WAIT_FOR_DIALOG_INTERACTION
     0x0200 [0x1B] RETURN
     0x0201 [0x03] ExtData[1]->WorkLocal[0] = Work_Zone[6]
     0x0206 [0x42] SET_CLI_EVENT_CANCEL_DATA()
     0x0207 [0x1E] EventEntity looks at LocalPlayer and starts talking
     0x020C [0x6F] WAIT_FRAME_DELAY: Yield until WaitTime reaches zero
     0x020D [0x70] WAIT_ENTITY_RENDER_FLAG: Wait while EventEntity->Render.Flags3 bit 2 is set (cancel turn if not)
     0x020E [0x02] IF !(ExtData[1]->WorkLocal[0] == 1*) GOTO 0x021D
     0x0216 [0x1D] PRINT_EVENT_MESSAGE(message_id=13994*)
    → "I take it you delivered my present safe and sound?\u0007Oh, and it was well received, too? Ha, you didn't need to tell me that, for my gifts are always a hit.\u0007I guess I should thank you though, seeing as how you played a tiny part in my Starlight Celebration success.\u007F1\u0000\u0007"
     0x0219 [0x23] WAIT_FOR_DIALOG_INTERACTION
     0x021A [0x01] GOTO 0x027B
     0x021D [0x02] IF !(ExtData[1]->WorkLocal[0] == 2*) GOTO 0x022C
     0x0225 [0x1D] PRINT_EVENT_MESSAGE(message_id=13999*)
    → "How fared your journey, my \u007F\u0005[courageous champion/humble handmaiden]?\u0007Oh, I simply knew I could place my complete trust in you! You've not only made your fair lady quite proud, but saved the Starlight Celebration from those covetous beastmen! Oh, joyous day!\u007F1\u0000\u0007"
     0x0228 [0x23] WAIT_FOR_DIALOG_INTERACTION
     0x0229 [0x01] GOTO 0x027B
     0x022C [0x02] IF !(ExtData[1]->WorkLocal[0] == 3*) GOTO 0x023B
     0x0234 [0x1D] PRINT_EVENT_MESSAGE(message_id=14004*)
    → "Goddess be good, you have returned! And with favorable tidings, no?\u0007Splendid. Absolutely splendid. Thanks to you, I feel as if I could burst into a Starlight carol at any moment. Fa-la-la-la\u0001`\u0001t.\u007F1\u0000\u0007"
     0x0237 [0x23] WAIT_FOR_DIALOG_INTERACTION
     0x0238 [0x01] GOTO 0x027B
     0x023B [0x02] IF !(ExtData[1]->WorkLocal[0] == 4*) GOTO 0x024A
     0x0243 [0x1D] PRINT_EVENT_MESSAGE(message_id=14009*)
    → "Thou hast safely returned from thy trial? Upon us both doth Altana smile!\u0007To thee, the savior of the Starlight Celebration, I do give heartfelt acclamations!\u007F1\u0000\u0007"
     0x0246 [0x23] WAIT_FOR_DIALOG_INTERACTION
     0x0247 [0x01] GOTO 0x027B
     0x024A [0x02] IF !(ExtData[1]->WorkLocal[0] == 5*) GOTO 0x0259
     0x0252 [0x1D] PRINT_EVENT_MESSAGE(message_id=14014*)
    → "Ah, you're back!\u0007It's \u001C\u0000's most perished, er, cherished possession, you say? Wh-wh-what lofty-wofty praise!\u0007I can't thank you enough for your c-c-contributions, adventurer.\u007F1\u0000\u0007"
     0x0255 [0x23] WAIT_FOR_DIALOG_INTERACTION
     0x0256 [0x01] GOTO 0x027B
     0x0259 [0x02] IF !(ExtData[1]->WorkLocal[0] == 6*) GOTO 0x0268
     0x0261 [0x1D] PRINT_EVENT_MESSAGE(message_id=14019*)
    → "Hmph, so you're stupid as well as rude? Are you so subservient that you'd actually come backy-wack for a beating?\u0007Get out of my face! You disgustaru me. Oh, and Merry Starlight!\u007F1\u0000\u0007"
     0x0264 [0x23] WAIT_FOR_DIALOG_INTERACTION
     0x0265 [0x01] GOTO 0x027B
     0x0268 [0x02] IF !(ExtData[1]->WorkLocal[0] == 7*) GOTO 0x0277
     0x0270 [0x1D] PRINT_EVENT_MESSAGE(message_id=14029*)
    → "What timing! I've just rrreturned from my own mission.\u0007Whew, good thing \u001C\u0000 liked it! That little trinket was as high priced as the hair on a cat's back!\u0007Anyway, thanks for your help. If your fur ever gets rubbed the wrong way, give me a sign and I'll come rrroaring to the rescue!\u007F1\u0000\u0007"
     0x0273 [0x23] WAIT_FOR_DIALOG_INTERACTION
     0x0274 [0x01] GOTO 0x027B
     0x0277 [0x1D] PRINT_EVENT_MESSAGE(message_id=14024*)
    → "I see you've returned.\u0007Mmm...that's good news indeed. Thank you for the kindness you've shown me and my friend.\u007F1\u0000\u0007"
     0x027A [0x23] WAIT_FOR_DIALOG_INTERACTION
     0x027B [0x1B] RETURN
     0x027C [0x03] ExtData[1]->WorkLocal[0] = Work_Zone[6]
     0x0281 [0x42] SET_CLI_EVENT_CANCEL_DATA()
     0x0282 [0x1E] EventEntity looks at LocalPlayer and starts talking
     0x0287 [0x6F] WAIT_FRAME_DELAY: Yield until WaitTime reaches zero
     0x0288 [0x70] WAIT_ENTITY_RENDER_FLAG: Wait while EventEntity->Render.Flags3 bit 2 is set (cancel turn if not)
     0x0289 [0x02] IF !(ExtData[1]->WorkLocal[0] == 1*) GOTO 0x02A0
     0x0291 [0x1D] PRINT_EVENT_MESSAGE(message_id=14030*)
    → "A present...from \u001C\u0000? Oh, glorious day!\u0007This is for all those times I never got a present and kept telling myself next year will be the one.\u007F1\u0000\u0007"
     0x0294 [0x23] WAIT_FOR_DIALOG_INTERACTION
     0x0295 [0x1D] PRINT_EVENT_MESSAGE(message_id=14031*)
    → "I'm at a loss for what to say! I'm just overwhelmed with a waterfall of emotion!\u0007Thank you so much!\u007F1\u0000\u0007"
     0x0298 [0x23] WAIT_FOR_DIALOG_INTERACTION
     0x0299 [0x1D] PRINT_EVENT_MESSAGE(message_id=14032*)
    → "And please thank \u001C\u0000 the next time you see that good samaritan.\u0007The person who said, \u00072'Tis better to give than receive\u00073 probably never had a gift drought as long as mine. I feel fantastic!\u007F1\u0000\u0007"
     0x029C [0x23] WAIT_FOR_DIALOG_INTERACTION
     0x029D [0x01] GOTO 0x0336
     0x02A0 [0x02] IF !(ExtData[1]->WorkLocal[0] == 2*) GOTO 0x02B7
     0x02A8 [0x1D] PRINT_EVENT_MESSAGE(message_id=14033*)
    → "Oh, is that...a present? From \u001C\u0000, you say?\u007F1\u0000\u0007"
     0x02AB [0x23] WAIT_FOR_DIALOG_INTERACTION
     0x02AC [0x1D] PRINT_EVENT_MESSAGE(message_id=14034*)
    → "Ugh, it figures. Did it come with a card that says something pathetic like \u00072I've died a thousand deaths drowning in the depths of your eyes\u00073?\u0007That scoundrel has been stalking me ever since we happened to meet one day on a boat to Buburimu Peninsula.\u007F1\u0000\u0007"
     0x02AF [0x23] WAIT_FOR_DIALOG_INTERACTION
     0x02B0 [0x1D] PRINT_EVENT_MESSAGE(message_id=14035*)
    → "I'm actually quite fed up with these ridiculous baubles, but I'm not one for losing face.\u0007If you should see \u001C\u0000 again, please give my regards and say I found the gift rather...quaint.\u007F1\u0000\u0007"
     0x02B3 [0x23] WAIT_FOR_DIALOG_INTERACTION
     0x02B4 [0x01] GOTO 0x0336
     0x02B7 [0x02] IF !(ExtData[1]->WorkLocal[0] == 3*) GOTO 0x02CE
     0x02BF [0x1D] PRINT_EVENT_MESSAGE(message_id=14036*)
    → "What's this? A present addressed to me from \u001C\u0000?\u007F1\u0000\u0007"
     0x02C2 [0x23] WAIT_FOR_DIALOG_INTERACTION
     0x02C3 [0x1D] PRINT_EVENT_MESSAGE(message_id=14037*)
    → "How unexpectedly charming and thoughtful. This has certainly brightened what was about to be a gloomy Starlight Celebration.\u007F1\u0000\u0007"
     0x02C6 [0x23] WAIT_FOR_DIALOG_INTERACTION
     0x02C7 [0x1D] PRINT_EVENT_MESSAGE(message_id=14038*)
    → "Would you be so kind as to tell \u001C\u0000 that I truly appreciate the gift?\u0007I am also thoroughly impressed with your selfless nature, adventurer.\u007F1\u0000\u0007"
     0x02CA [0x23] WAIT_FOR_DIALOG_INTERACTION
     0x02CB [0x01] GOTO 0x0336
     0x02CE [0x02] IF !(ExtData[1]->WorkLocal[0] == 4*) GOTO 0x02E5
     0x02D6 [0x1D] PRINT_EVENT_MESSAGE(message_id=14039*)
    → "Could it be...? Indeed, it is benevolence manifest, emanating from the humble home of one \u001C\u0000?\u007F1\u0000\u0007"
     0x02D9 [0x23] WAIT_FOR_DIALOG_INTERACTION
     0x02DA [0x1D] PRINT_EVENT_MESSAGE(message_id=14040*)
    → "What a decidedly pleasant surprise. I am simply beside myself with an unbridled, childish glee that has not washed over me in ever so long.\u0007I swear that I am on the brink of giggling like I used to when I was still knee-high to a Taru.\u007F1\u0000\u0007"
     0x02DD [0x23] WAIT_FOR_DIALOG_INTERACTION
     0x02DE [0x1D] PRINT_EVENT_MESSAGE(message_id=14041*)
    → "The finite words of us mere mortals may not be sufficient to convey the depths of my gratitude, but I earnestly hope \u001C\u0000 would appreciate a succinct \u00072Thank you.\u00073\u007F1\u0000\u0007"
     0x02E1 [0x23] WAIT_FOR_DIALOG_INTERACTION
     0x02E2 [0x01] GOTO 0x0336
     0x02E5 [0x02] IF !(ExtData[1]->WorkLocal[0] == 5*) GOTO 0x02FC
     0x02ED [0x1D] PRINT_EVENT_MESSAGE(message_id=14042*)
    → "A present from...\u001C\u0000? This isn't one of those tricky-wicky flimflams, is it?\u007F1\u0000\u0007"
     0x02F0 [0x23] WAIT_FOR_DIALOG_INTERACTION
     0x02F1 [0x1D] PRINT_EVENT_MESSAGE(message_id=14043*)
    → "Of course I'll take it! I'm not one to look a gift horse in the mouth, even if it's from my mortaru enemy!\u0007Maybe \u001C\u0000 has turned over a new leaf since we last met...\u007F1\u0000\u0007"
     0x02F4 [0x23] WAIT_FOR_DIALOG_INTERACTION
     0x02F5 [0x1D] PRINT_EVENT_MESSAGE(message_id=14044*)
    → "Well then, I suppose some thanks are in order. But if I find out that this was just some elaborataru scheme to make me lower my guard, I'm going to boppy-wop you both in the noggin!\u007F1\u0000\u0007"
     0x02F8 [0x23] WAIT_FOR_DIALOG_INTERACTION
     0x02F9 [0x01] GOTO 0x0336
     0x02FC [0x02] IF !(ExtData[1]->WorkLocal[0] == 6*) GOTO 0x0313
     0x0304 [0x1D] PRINT_EVENT_MESSAGE(message_id=14045*)
    → "Oooh, a gift from \u001C\u0000?\u0007What jolly-wolly tidings you've brought, adventurer.\u007F1\u0000\u0007"
     0x0307 [0x23] WAIT_FOR_DIALOG_INTERACTION
     0x0308 [0x1D] PRINT_EVENT_MESSAGE(message_id=14046*)
    → "I wonder what's inside... Could it be a scrum-diddly-umptious cake?\u0007But I've already gotten so roly-poly during the holiday season! Maybe I should just send it back! \u007F1\u0000\u0007"
     0x030B [0x23] WAIT_FOR_DIALOG_INTERACTION
     0x030C [0x1D] PRINT_EVENT_MESSAGE(message_id=14047*)
    → "No, thataru wouldn't be right. Besides, it might not be edible.\u0007Anyway, please be sure to thank \u001C\u0000 for pudding the icing on such a delectable Starcake Chocolation.\u0007Ugh, I'm just terrible!\u007F1\u0000\u0007"
     0x030F [0x23] WAIT_FOR_DIALOG_INTERACTION
     0x0310 [0x01] GOTO 0x0336
     0x0313 [0x02] IF !(ExtData[1]->WorkLocal[0] == 7*) GOTO 0x032A
     0x031B [0x1D] PRINT_EVENT_MESSAGE(message_id=14051*)
    → "A present for me? \u0007I'm a lone lioness, and I don't need to share my kills with anyone!\u007F1\u0000\u0007"
     0x031E [0x23] WAIT_FOR_DIALOG_INTERACTION
     0x031F [0x1D] PRINT_EVENT_MESSAGE(message_id=14052*)
    → "What? \u001C\u0000 wanted me to have this? Well, I guess I could take it...\u007F1\u0000\u0007"
     0x0322 [0x23] WAIT_FOR_DIALOG_INTERACTION
     0x0323 [0x1D] PRINT_EVENT_MESSAGE(message_id=14053*)
    → "Don't get the wrrrong idea! It's not like I enjoy the gift or anything!\u0007Just run back to \u001C\u0000 and drop dead! This conversation never happened!\u007F1\u0000\u0007"
     0x0326 [0x23] WAIT_FOR_DIALOG_INTERACTION
     0x0327 [0x01] GOTO 0x0336
     0x032A [0x1D] PRINT_EVENT_MESSAGE(message_id=14048*)
    → "Why would \u001C\u0000 be sending me a gift? It's not like there's anything special going on.\u007F1\u0000\u0007"
     0x032D [0x23] WAIT_FOR_DIALOG_INTERACTION
     0x032E [0x1D] PRINT_EVENT_MESSAGE(message_id=14049*)
    → "The Starlight Celebration, you say? So that explains the light shows and festive atmosphere around here lately.\u0007My head just hasn't been the same since I fell off that chocobo last month.\u007F1\u0000\u0007"
     0x0331 [0x23] WAIT_FOR_DIALOG_INTERACTION
     0x0332 [0x1D] PRINT_EVENT_MESSAGE(message_id=14050*)
    → "I best start looking for something to give in return. In the meantime, please tell \u001C\u0000 how happy I am to have received this.\u0007And maybe next year I'll remember before it's too late. <Sigh>...One can only hope.\u007F1\u0000\u0007"
     0x0335 [0x23] WAIT_FOR_DIALOG_INTERACTION
     0x0336 [0x1B] RETURN
```