# Event 65535

## Metadata

| Field           | Value    |
|-----------------|----------|
| Event Index     | 11/16    |
| Offset          | 0x0078   |
| Data Size       | 46 bytes |
| Calculated Size | 46 bytes |
| Instructions    | 8        |

```
      00 01 02 03 04 05 06 07  08 09 0A 0B 0C 0D 0E 0F
      -- -- -- -- -- -- -- --  -- -- -- -- -- -- -- --
0070:                          81 00 F8 FF FF 7F 7C 00          ......|.
0080: F8 FF FF 7F 1C 0C 80 5B  0D 80 F8 FF FF 7F F8 FF  .......[........
0090: FF 7F 79 65 73 30 1C 0E  80 81 01 F8 FF FF 7F 7C  ..yes0.........|
00A0: 01 F8 FF FF 7F 00                                 ......          
```

## Opcodes

```
  0: 0x0078 [0x81] SET_ENTITY_BLINKING(blink_flag=0x00, entity=EventEntity)
  1: 0x007E [0x7C] EventEntity->Render.Flags2 |= 0x00
  2: 0x0084 [0x1C] WAIT(15* ticks)
  3: 0x0087 [0x5B] LOAD_EXT_SCHEDULER: Load scheduler "yes0" with entities [EventEntity, EventEntity], work=2756*
  4: 0x0096 [0x1C] WAIT(30* ticks)
  5: 0x0099 [0x81] SET_ENTITY_BLINKING(blink_flag=0x01, entity=EventEntity)
  6: 0x009F [0x7C] EventEntity->Render.Flags2 |= 0x01
  7: 0x00A5 [0x00] END_REQSTACK()
```
