# Event 65535

## Metadata

| Field           | Value    |
|-----------------|----------|
| Event Index     | 4/10     |
| Offset          | 0x0010   |
| Data Size       | 30 bytes |
| Calculated Size | 30 bytes |
| Instructions    | 9        |

```
      00 01 02 03 04 05 06 07  08 09 0A 0B 0C 0D 0E 0F
      -- -- -- -- -- -- -- --  -- -- -- -- -- -- -- --
0010: 61 01 32 03 80 1F 00 04  80 05 80 06 80 1F 01 6F  a.2............o
0020: 4B F8 FF FF 7F 07 80 6F  76 F8 FF FF 7F 00        K......ov.....  
```

## Opcodes

```
  0: 0x0010 [0x61] EventEntity->Render.Flags2 |= 0x00000001
  1: 0x0012 [0x32] ExtData[1]->MainSpeed = 42* * 0.1
  2: 0x0015 [0x1F] MOVE_ENTITY: EventEntity moves to X=-76.114*, Z=-882.282*, Y=-0.006*
  3: 0x001D [0x1F] MOVE_ENTITY: Update entity position (mode=1)
  4: 0x001F [0x6F] WAIT_FRAME_DELAY: Yield until WaitTime reaches zero
  5: 0x0020 [0x4B] UPDATE_ENTITY_YAW(entity=EventEntity, yaw=3.35°*)
  6: 0x0027 [0x6F] WAIT_FRAME_DELAY: Yield until WaitTime reaches zero
  7: 0x0028 [0x76] CHECK_ENTITY_RENDER_FLAGS: Wait until EventEntity Render.Flags0 and Render.Flags3 conditions are met
  8: 0x002D [0x00] END_REQSTACK()
```
