# Event 727

## Metadata

| Field           | Value    |
|-----------------|----------|
| Event Index     | 13/25    |
| Offset          | 0x00DB   |
| Data Size       | 53 bytes |
| Calculated Size | 53 bytes |
| Instructions    | 11       |

```
      00 01 02 03 04 05 06 07  08 09 0A 0B 0C 0D 0E 0F
      -- -- -- -- -- -- -- --  -- -- -- -- -- -- -- --
00D0:                                   42 03 09 10 00             B....
00E0: 80 1E F0 FF FF 7F 1D 0F  80 23 5B 03 80 C4 60 0E  .........#[...`.
00F0: 01 C4 60 0E 01 70 61 73  30 1D 10 80 23 45 11 80  ..`..pas0...#E..
0100: F0 FF FF 7F F0 FF FF 7F  71 73 74 63 12 80 21 00  ........qstc..!.
```

## Opcodes

```
  0: 0x00DB [0x42] SET_CLI_EVENT_CANCEL_DATA()
  1: 0x00DC [0x03] Work_Zone[9] = 621*
  2: 0x00E1 [0x1E] EventEntity looks at LocalPlayer and starts talking
  3: 0x00E6 [0x1D] PRINT_EVENT_MESSAGE(message_id=9761*)
    → "Why, this is \u0001\u00053\u0002\u0007\u0000\u0000! I never imagined that I would once again be blessed with the opportunity to garnish my dishes with this succulent spice.\u007F1\u0000\u0007"
  4: 0x00E9 [0x23] WAIT_FOR_DIALOG_INTERACTION
  5: 0x00EA [0x5B] LOAD_EXT_SCHEDULER: Load scheduler "pas0" with entities [Rouva (ID: 17719492/0x010E60C4), Rouva (ID: 17719492/0x010E60C4)], work=35*
  6: 0x00F9 [0x1D] PRINT_EVENT_MESSAGE(message_id=9762*)
    → "As I am but a simple maidservant, I have little to offer you in return.\u0007Please accept this as a token of my gratitude.\u007F1\u0000\u0007"
  7: 0x00FC [0x23] WAIT_FOR_DIALOG_INTERACTION
  8: 0x00FD [0x45] LOAD_SCHEDULED_TASK: Load scheduler "qstc" with entities [LocalPlayer, LocalPlayer], work=[201*, 0*]
  9: 0x010E [0x21] END_EVENT
 10: 0x010F [0x00] END_REQSTACK()
```
