# Event 1075

## Metadata

| Field           | Value    |
|-----------------|----------|
| Event Index     | 8/9      |
| Offset          | 0x19EC   |
| Data Size       | 38 bytes |
| Calculated Size | 38 bytes |
| Instructions    | 9        |

```
      00 01 02 03 04 05 06 07  08 09 0A 0B 0C 0D 0E 0F
      -- -- -- -- -- -- -- --  -- -- -- -- -- -- -- --
19E0:                                      4A ED E1 0E              J...
19F0: 01 F0 FF FF 7F 02 02 10  5A 80 00 08 1A 2B ED E1  ........Z....+..
1A00: 0E 01 7E 80 23 01 10 1A  2B ED E1 0E 01 7F 80 23  ..~.#...+......#
1A10: 21 00                                             !.              
```

## Opcodes

```
  0: 0x19EC [0x4A] Spriggan Graverobber (ID: 17752557/0x010EE1ED) looks at LocalPlayer
  1: 0x19F5 [0x02] IF !(Work_Zone[2] == 1*) GOTO 0x1A08
  2: 0x19FD [0x2B] Spriggan Graverobber (ID: 17752557/0x010EE1ED) [16883*]:
    → "Give shiny rock! Shiiiny. Shiiiiiiny!\u007F1\u0000\u0007"
  3: 0x1A04 [0x23] WAIT_FOR_DIALOG_INTERACTION
  4: 0x1A05 [0x01] GOTO 0x1A10
  5: 0x1A08 [0x2B] Spriggan Graverobber (ID: 17752557/0x010EE1ED) [16882*]:
    → "Here where?\u007F1\u0000\u0007"
  6: 0x1A0F [0x23] WAIT_FOR_DIALOG_INTERACTION

SUBROUTINE_1A10:
  7: 0x1A10 [0x21] END_EVENT
  8: 0x1A11 [0x00] END_REQSTACK()
```
