# Event 65535

## Metadata

| Field           | Value    |
|-----------------|----------|
| Event Index     | 6/15     |
| Offset          | 0x0017   |
| Data Size       | 55 bytes |
| Calculated Size | 55 bytes |
| Instructions    | 10       |

```
      00 01 02 03 04 05 06 07  08 09 0A 0B 0C 0D 0E 0F
      -- -- -- -- -- -- -- --  -- -- -- -- -- -- -- --
0010:                      41  00 80 01 80 42 10 00 00         A....B...
0020: 02 00 00 00 80 01 46 00  B6 00 00 00 02 00 00 02  ......F.........
0030: 80 00 43 00 AB 0D 2C F8  FF FF 7F F8 FF FF 7F 6B  ..C...,........k
0040: 69 6C 6C 01 4A 00 B6 00  03 80 32 04 80 00        ill.J.....2...  
```

## Opcodes

```
  0: 0x0017 [0x41] ExtData[1]->WorkLocal[0] = Work_Zone[66] (bits 0*-15*)
  1: 0x0020 [0x02] IF !(ExtData[1]->WorkLocal[0] == 0*) GOTO 0x0046
  2: 0x0028 [0xB6] ENTITY_APPEARANCE_HANDLER(case=Hair style, value=0)
  3: 0x002C [0x02] IF !(ExtData[1]->WorkLocal[0] == 341*) GOTO 0x0043
  4: 0x0034 [0xAB] EventEntity->Render.Flags4 |= 0x01 // Set bit 0
  5: 0x0036 [0x2C] CREATE_SCHEDULER_TASK: Create scheduler "kill" with entities [EventEntity, EventEntity]
  6: 0x0043 [0x01] GOTO 0x004A
  7: 0x0046 [0xB6] ENTITY_APPEARANCE_HANDLER(case=Hair style, value=53*)

SUBROUTINE_004A:
  8: 0x004A [0x32] ExtData[1]->MainSpeed = 80* * 0.1
  9: 0x004D [0x00] END_REQSTACK()
```
