# Event 10259

## Metadata

| Field           | Value    |
|-----------------|----------|
| Event Index     | 14/18    |
| Offset          | 0x08A4   |
| Data Size       | 43 bytes |
| Calculated Size | 43 bytes |
| Instructions    | 12       |

```
      00 01 02 03 04 05 06 07  08 09 0A 0B 0C 0D 0E 0F
      -- -- -- -- -- -- -- --  -- -- -- -- -- -- -- --
08A0:             1E F0 FF FF  7F 4A F0 FF FF 7F F8 FF      .....J......
08B0: FF 7F 6F 70 66 00 80 F8  FF FF 7F F8 FF FF 7F 74  ..opf..........t
08C0: 6C 6B 30 1D B2 80 23 1D  B3 80 23 20 00 21 00     lk0...#...# .!. 
```

## Opcodes

```
  0: 0x08A4 [0x1E] EventEntity looks at LocalPlayer and starts talking
  1: 0x08A9 [0x4A] LocalPlayer looks at EventEntity
  2: 0x08B2 [0x6F] WAIT_FRAME_DELAY: Yield until WaitTime reaches zero
  3: 0x08B3 [0x70] WAIT_ENTITY_RENDER_FLAG: Wait while EventEntity->Render.Flags3 bit 2 is set (cancel turn if not)
  4: 0x08B4 [0x66] LOAD_EXT_SCHEDULER_MAIN: Load scheduler "tlk0" with entities [EventEntity, EventEntity], work=0*
  5: 0x08C3 [0x1D] PRINT_EVENT_MESSAGE(message_id=14045*)
    → "...and trust you will continue to meet the terms of our deal.\u007F1\u0000\u0007"
  6: 0x08C6 [0x23] WAIT_FOR_DIALOG_INTERACTION
  7: 0x08C7 [0x1D] PRINT_EVENT_MESSAGE(message_id=14046*)
    → "Keep at it.\u007F1\u0000\u0007"
  8: 0x08CA [0x23] WAIT_FOR_DIALOG_INTERACTION
  9: 0x08CB [0x20] SET_CLI_EVENT_UC_FLAG: Unlock player control
 10: 0x08CD [0x21] END_EVENT
 11: 0x08CE [0x00] END_REQSTACK()
```
