# Event 10257

## Metadata

| Field           | Value    |
|-----------------|----------|
| Event Index     | 12/18    |
| Offset          | 0x0786   |
| Data Size       | 43 bytes |
| Calculated Size | 43 bytes |
| Instructions    | 12       |

```
      00 01 02 03 04 05 06 07  08 09 0A 0B 0C 0D 0E 0F
      -- -- -- -- -- -- -- --  -- -- -- -- -- -- -- --
0780:                   1E F0  FF FF 7F 4A F0 FF FF 7F        .....J....
0790: F8 FF FF 7F 6F 70 66 00  80 F8 FF FF 7F F8 FF FF  ....opf.........
07A0: 7F 74 6C 6B 30 1D 9C 80  23 1D 9D 80 23 20 00 21  .tlk0...#...# .!
07B0: 00                                                .               
```

## Opcodes

```
  0: 0x0786 [0x1E] EventEntity looks at LocalPlayer and starts talking
  1: 0x078B [0x4A] LocalPlayer looks at EventEntity
  2: 0x0794 [0x6F] WAIT_FRAME_DELAY: Yield until WaitTime reaches zero
  3: 0x0795 [0x70] WAIT_ENTITY_RENDER_FLAG: Wait while EventEntity->Render.Flags3 bit 2 is set (cancel turn if not)
  4: 0x0796 [0x66] LOAD_EXT_SCHEDULER_MAIN: Load scheduler "tlk0" with entities [EventEntity, EventEntity], work=0*
  5: 0x07A5 [0x1D] PRINT_EVENT_MESSAGE(message_id=14024*)
    → "This is our watershed moment. We must defeat Garazu-Horeizu and his minions.\u007F1\u0000\u0007"
  6: 0x07A8 [0x23] WAIT_FOR_DIALOG_INTERACTION
  7: 0x07A9 [0x1D] PRINT_EVENT_MESSAGE(message_id=14025*)
    → "Best of luck to us all.\u007F1\u0000\u0007"
  8: 0x07AC [0x23] WAIT_FOR_DIALOG_INTERACTION
  9: 0x07AD [0x20] SET_CLI_EVENT_UC_FLAG: Unlock player control
 10: 0x07AF [0x21] END_EVENT
 11: 0x07B0 [0x00] END_REQSTACK()
```
