# Event 120

## Metadata

| Field           | Value    |
|-----------------|----------|
| Event Index     | 10/13    |
| Offset          | 0x00BC   |
| Data Size       | 36 bytes |
| Calculated Size | 36 bytes |
| Instructions    | 10       |

```
      00 01 02 03 04 05 06 07  08 09 0A 0B 0C 0D 0E 0F
      -- -- -- -- -- -- -- --  -- -- -- -- -- -- -- --
00B0:                                      1E F0 FF FF              ....
00C0: 7F 6F 76 F8 FF FF 7F 5B  11 80 F8 FF FF 7F F8 FF  .ov....[........
00D0: FF 7F 74 68 6B 31 1D 14  80 23 1D 15 80 23 21 00  ..thk1...#...#!.
```

## Opcodes

```
  0: 0x00BC [0x1E] EventEntity looks at LocalPlayer and starts talking
  1: 0x00C1 [0x6F] WAIT_FRAME_DELAY: Yield until WaitTime reaches zero
  2: 0x00C2 [0x76] CHECK_ENTITY_RENDER_FLAGS: Wait until EventEntity Render.Flags0 and Render.Flags3 conditions are met
  3: 0x00C7 [0x5B] LOAD_EXT_SCHEDULER(work_offset=60*, entity1=EventEntity, entity2=EventEntity, action="thk1")
  4: 0x00D6 [0x1D] PRINT_EVENT_MESSAGE(message_id=7037*)
    → "Come to think of it, Narihira doesn't stop by anymore. I suppose he's been feeling better ever since Galmut took over as clockmaster.\u007F1\u0000\u0007"
  5: 0x00D9 [0x23] WAIT_FOR_DIALOG_INTERACTION
  6: 0x00DA [0x1D] PRINT_EVENT_MESSAGE(message_id=7038*)
    → "It would be tough at his age. But not a day goes by without hearing its glorious ring now that Galmut is on the job.\u007F1\u0000\u0007"
  7: 0x00DD [0x23] WAIT_FOR_DIALOG_INTERACTION
  8: 0x00DE [0x21] END_EVENT
  9: 0x00DF [0x00] END_REQSTACK()
```
