# Event 181

## Metadata

| Field           | Value    |
|-----------------|----------|
| Event Index     | 12/13    |
| Offset          | 0x010F   |
| Data Size       | 35 bytes |
| Calculated Size | 35 bytes |
| Instructions    | 10       |

```
      00 01 02 03 04 05 06 07  08 09 0A 0B 0C 0D 0E 0F
      -- -- -- -- -- -- -- --  -- -- -- -- -- -- -- --
0100:                                               20                  
0110: 01 42 1E F0 FF FF 7F 6F  76 F8 FF FF 7F 5B 11 80  .B.....ov....[..
0120: F8 FF FF 7F F8 FF FF 7F  74 6C 6B 30 1D 1B 80 23  ........tlk0...#
0130: 21 00                                             !.              
```

## Opcodes

```
  0: 0x010F [0x20] SET_CLI_EVENT_UC_FLAG: Lock player control
  1: 0x0111 [0x42] SET_CLI_EVENT_CANCEL_DATA()
  2: 0x0112 [0x1E] EventEntity looks at LocalPlayer and starts talking
  3: 0x0117 [0x6F] WAIT_FRAME_DELAY: Yield until WaitTime reaches zero
  4: 0x0118 [0x76] CHECK_ENTITY_RENDER_FLAGS: Wait until EventEntity Render.Flags0 and Render.Flags3 conditions are met
  5: 0x011D [0x5B] LOAD_EXT_SCHEDULER(work_offset=60*, entity1=EventEntity, entity2=EventEntity, action="tlk0")
  6: 0x012C [0x1D] PRINT_EVENT_MESSAGE(message_id=7042*)
    → "So the clock tower's safe? Well, bless my buttons! I bet Narihira's happy as a goat!\u007F1\u0000\u0007"
  7: 0x012F [0x23] WAIT_FOR_DIALOG_INTERACTION
  8: 0x0130 [0x21] END_EVENT
  9: 0x0131 [0x00] END_REQSTACK()
```
