# Event 88

## Metadata

| Field           | Value    |
|-----------------|----------|
| Event Index     | 9/13     |
| Offset          | 0x0098   |
| Data Size       | 36 bytes |
| Calculated Size | 36 bytes |
| Instructions    | 10       |

```
      00 01 02 03 04 05 06 07  08 09 0A 0B 0C 0D 0E 0F
      -- -- -- -- -- -- -- --  -- -- -- -- -- -- -- --
0090:                          1E F0 FF FF 7F 6F 76 F8          .....ov.
00A0: FF FF 7F 5B 11 80 F8 FF  FF 7F F8 FF FF 7F 74 6C  ...[..........tl
00B0: 6B 30 1D 12 80 23 1D 13  80 23 21 00              k0...#...#!.    
```

## Opcodes

```
  0: 0x0098 [0x1E] EventEntity looks at LocalPlayer and starts talking
  1: 0x009D [0x6F] WAIT_FRAME_DELAY: Yield until WaitTime reaches zero
  2: 0x009E [0x76] CHECK_ENTITY_RENDER_FLAGS: Wait until EventEntity Render.Flags0 and Render.Flags3 conditions are met
  3: 0x00A3 [0x5B] LOAD_EXT_SCHEDULER: Load scheduler "tlk0" with entities [EventEntity, EventEntity], work=60*
  4: 0x00B2 [0x1D] PRINT_EVENT_MESSAGE(message_id=7035*)
    → "Monberaux's a fine lad. Aye, I wish every doctor was more like him. Why, today I'm fit as a fiddle, but I stopped by all the same.\u007F1\u0000\u0007"
  5: 0x00B5 [0x23] WAIT_FOR_DIALOG_INTERACTION
  6: 0x00B6 [0x1D] PRINT_EVENT_MESSAGE(message_id=7036*)
    → "That doctor, bless his heart, always greets us with a smile. The ladies like him so much, they've put a fan club together.\u007F1\u0000\u0007"
  7: 0x00B9 [0x23] WAIT_FOR_DIALOG_INTERACTION
  8: 0x00BA [0x21] END_EVENT
  9: 0x00BB [0x00] END_REQSTACK()
```
