# Event 40

## Metadata

| Field           | Value    |
|-----------------|----------|
| Event Index     | 5/6      |
| Offset          | 0x2FFF   |
| Data Size       | 59 bytes |
| Calculated Size | 59 bytes |
| Instructions    | 12       |

```
      00 01 02 03 04 05 06 07  08 09 0A 0B 0C 0D 0E 0F
      -- -- -- -- -- -- -- --  -- -- -- -- -- -- -- --
2FF0:                                               42                 B
3000: 1A 5A 33 46 01 38 48 80  4E 00 F0 FF FF 7F 1C BC  .Z3F.8H.N.......
3010: 80 1C BF 80 46 00 45 03  80 F0 FF FF 7F F0 FF FF  ....F.E.........
3020: 7F 66 64 69 32 00 80 45  93 81 F8 FF FF 7F F8 FF  .fdi2..E........
3030: FF 7F 71 73 74 63 00 80  21 00                    ..qstc..!.      
```

## Opcodes

```
  0: 0x2FFF [0x42] SET_CLI_EVENT_CANCEL_DATA()
  1: 0x3000 [0x1A] CALL_SUBROUTINE(address=0x335A)
  2: 0x3003 [0x46] CAMERA_CONTROL: Disable user control
  3: 0x3005 [0x38] SET_CLIENT_EVENT_MODE(mode=19*)
  4: 0x3008 [0x4E] SET_ENTITY_HIDE_FLAG: Show LocalPlayer
  5: 0x300E [0x1C] WAIT(60* ticks)
  6: 0x3011 [0x1C] WAIT(30* ticks)
  7: 0x3014 [0x46] CAMERA_CONTROL: Restore default settings
  8: 0x3016 [0x45] LOAD_SCHEDULED_TASK(work_offset1=200*, entity1=LocalPlayer, entity2=LocalPlayer, scheduler_id="fdi2", work_offset2=0*)
  9: 0x3027 [0x45] LOAD_SCHEDULED_TASK(work_offset1=201*, entity1=EventEntity, entity2=EventEntity, scheduler_id="qstc", work_offset2=0*)
 10: 0x3038 [0x21] END_EVENT
 11: 0x3039 [0x00] END_REQSTACK()
```
