# Event 65535

## Metadata

| Field           | Value     |
|-----------------|-----------|
| Event Index     | 18/81     |
| Offset          | 0x1544    |
| Data Size       | 105 bytes |
| Calculated Size | 105 bytes |
| Instructions    | 9         |

```
      00 01 02 03 04 05 06 07  08 09 0A 0B 0C 0D 0E 0F
      -- -- -- -- -- -- -- --  -- -- -- -- -- -- -- --
1540:             2C F0 FF FF  7F F0 FF FF 7F 67 75 72      ,........gur
1550: 64 53 F0 FF FF 7F F0 FF  FF 7F 67 75 72 64 2C F8  dS........gurd,.
1560: FF FF 7F F0 FF FF 7F 64  61 6D 67 53 F8 FF FF 7F  .......damgS....
1570: F0 FF FF 7F 64 61 6D 67  2C F0 FF FF 7F F0 FF FF  ....damg,.......
1580: 7F 64 65 61 64 53 F0 FF  FF 7F F0 FF FF 7F 64 65  .deadS........de
1590: 61 64 2C F0 FF FF 7F F0  FF FF 7F 63 6F 72 70 53  ad,........corpS
15A0: F0 FF FF 7F F0 FF FF 7F  63 6F 72 70 00           ........corp.   
```

## Opcodes

```
  0: 0x1544 [0x2C] CREATE_SCHEDULER_TASK: Create scheduler "gurd" with entities [LocalPlayer, LocalPlayer]
  1: 0x1551 [0x53] WAIT_SCHEDULER_TASK: Wait for scheduler "gurd" with entities [LocalPlayer, LocalPlayer]
  2: 0x155E [0x2C] CREATE_SCHEDULER_TASK: Create scheduler "damg" with entities [EventEntity, LocalPlayer]
  3: 0x156B [0x53] WAIT_SCHEDULER_TASK: Wait for scheduler "damg" with entities [EventEntity, LocalPlayer]
  4: 0x1578 [0x2C] CREATE_SCHEDULER_TASK: Create scheduler "dead" with entities [LocalPlayer, LocalPlayer]
  5: 0x1585 [0x53] WAIT_SCHEDULER_TASK: Wait for scheduler "dead" with entities [LocalPlayer, LocalPlayer]
  6: 0x1592 [0x2C] CREATE_SCHEDULER_TASK: Create scheduler "corp" with entities [LocalPlayer, LocalPlayer]
  7: 0x159F [0x53] WAIT_SCHEDULER_TASK: Wait for scheduler "corp" with entities [LocalPlayer, LocalPlayer]
  8: 0x15AC [0x00] END_REQSTACK()
```
