# Event 355

## Metadata

| Field           | Value    |
|-----------------|----------|
| Event Index     | 2/10     |
| Offset          | 0x0292   |
| Data Size       | 54 bytes |
| Calculated Size | 54 bytes |
| Instructions    | 12       |

```
      00 01 02 03 04 05 06 07  08 09 0A 0B 0C 0D 0E 0F
      -- -- -- -- -- -- -- --  -- -- -- -- -- -- -- --
0290:       4A F0 FF FF 7F 8A  90 0F 01 1C 08 80 4A 8A    J...........J.
02A0: 90 0F 01 F0 FF FF 7F 2B  8A 90 0F 01 09 80 23 6E  .......+......#n
02B0: 8A 90 0F 01 01 80 99 8A  90 0F 01 2B 8A 90 0F 01  ...........+....
02C0: 0A 80 23 1C 0B 80 21 00                           ..#...!.        
```

## Opcodes

```
  0: 0x0292 [0x4A] LocalPlayer looks at Zurko-Bazurko (ID: 17797258/0x010F908A)
  1: 0x029B [0x1C] WAIT(20* ticks)
  2: 0x029E [0x4A] Zurko-Bazurko (ID: 17797258/0x010F908A) looks at LocalPlayer
  3: 0x02A7 [0x2B] Zurko-Bazurko (ID: 17797258/0x010F908A) [7910*]:
    → "The Zurk's minions have informed him that you're to brave the gauntletaru and tread a path toward enlightenment by undergoing the Trial of Reason.\u007F1\u0000\u0007"
  4: 0x02AE [0x23] WAIT_FOR_DIALOG_INTERACTION
  5: 0x02AF [0x6E] Zurko-Bazurko (ID: 17797258/0x010F908A) uses emote 0*
  6: 0x02B6 [0x99] Wait for Zurko-Bazurko (ID: 17797258/0x010F908A) animation to complete
  7: 0x02BB [0x2B] Zurko-Bazurko (ID: 17797258/0x010F908A) [7911*]:
    → "Pride goes before the fally-wall, they say, so let not hubris's grip tighten upon your soul. Otherwise, it shall drag you slowly netherward, into the depths of anonymity.\u007F1\u0000\u0007"
  8: 0x02C2 [0x23] WAIT_FOR_DIALOG_INTERACTION
  9: 0x02C3 [0x1C] WAIT(60* ticks)
 10: 0x02C6 [0x21] END_EVENT
 11: 0x02C7 [0x00] END_REQSTACK()
```
