# Event 360

## Metadata

| Field           | Value    |
|-----------------|----------|
| Event Index     | 7/10     |
| Offset          | 0x0409   |
| Data Size       | 39 bytes |
| Calculated Size | 39 bytes |
| Instructions    | 9        |

```
      00 01 02 03 04 05 06 07  08 09 0A 0B 0C 0D 0E 0F
      -- -- -- -- -- -- -- --  -- -- -- -- -- -- -- --
0400:                             4A F0 FF FF 7F 8A 90           J......
0410: 0F 01 1C 08 80 4A 8A 90  0F 01 F0 FF FF 7F 2B 8A  .....J........+.
0420: 90 0F 01 1C 80 23 2B 8A  90 0F 01 1D 80 23 21 00  .....#+......#!.
```

## Opcodes

```
  0: 0x0409 [0x4A] LocalPlayer looks at Zurko-Bazurko (ID: 17797258/0x010F908A)
  1: 0x0412 [0x1C] WAIT(20* ticks)
  2: 0x0415 [0x4A] Zurko-Bazurko (ID: 17797258/0x010F908A) looks at LocalPlayer
  3: 0x041E [0x2B] Zurko-Bazurko (ID: 17797258/0x010F908A) [7924*]:
    → "\u0008! You live!\u007F1\u0000\u0007"
  4: 0x0425 [0x23] WAIT_FOR_DIALOG_INTERACTION
  5: 0x0426 [0x2B] Zurko-Bazurko (ID: 17797258/0x010F908A) [7925*]:
    → "The Zurk...bows to your superior-werior talents.\u007F1\u0000\u0007"
  6: 0x042D [0x23] WAIT_FOR_DIALOG_INTERACTION
  7: 0x042E [0x21] END_EVENT
  8: 0x042F [0x00] END_REQSTACK()
```
