# Event 65535

## Metadata

| Field           | Value    |
|-----------------|----------|
| Event Index     | 22/26    |
| Offset          | 0x0105   |
| Data Size       | 45 bytes |
| Calculated Size | 45 bytes |
| Instructions    | 9        |

```
      00 01 02 03 04 05 06 07  08 09 0A 0B 0C 0D 0E 0F
      -- -- -- -- -- -- -- --  -- -- -- -- -- -- -- --
0100:                32 07 80  1F 00 27 80 28 80 0E 80       2....'.(...
0110: 1F 01 66 22 80 F8 FF FF  7F F8 FF FF 7F 75 72 65  ..f".........ure
0120: 30 1C 29 80 32 07 80 1F  00 2A 80 2B 80 0E 80 1F  0.).2....*.+....
0130: 01 00                                             ..              
```

## Opcodes

```
  0: 0x0105 [0x32] ExtData[1]->MainSpeed = 13* * 0.1
  1: 0x0108 [0x1F] MOVE_ENTITY: EventEntity moves to X=-88.937*, Z=2.075*, Y=0.000*
  2: 0x0110 [0x1F] MOVE_ENTITY: Update entity position (mode=1)
  3: 0x0112 [0x66] LOAD_EXT_SCHEDULER_MAIN: Load scheduler "ure0" with entities [EventEntity, EventEntity], work=8*
  4: 0x0121 [0x1C] WAIT(120* ticks)
  5: 0x0124 [0x32] ExtData[1]->MainSpeed = 13* * 0.1
  6: 0x0127 [0x1F] MOVE_ENTITY: EventEntity moves to X=-88.419*, Z=-1.287*, Y=0.000*
  7: 0x012F [0x1F] MOVE_ENTITY: Update entity position (mode=1)
  8: 0x0131 [0x00] END_REQSTACK()
```
