# 17051860

## Common Data

| Field            | Value                   |
|------------------|-------------------------|
| Zone             | Jade Sepulcher (ID: 67) |
| Block Size       | 352 bytes               |
| Total Events     | 17                      |
| References Count | 13                      |

## List of Events

| Event ID                   | Entrypoint   |   Size |   Instructions |
|----------------------------|--------------|--------|----------------|
| [65535](#event-65535)      | 0x0000       |      1 |              1 |
| [2](#event-2)              | 0x0001       |      1 |              1 |
| [32000](#event-32000)      | 0x0002       |      1 |              1 |
| [32001](#event-32001)      | 0x0003       |      1 |              1 |
| [65535.1](#event-655351)   | 0x0004       |     16 |              4 |
| [65535.2](#event-655352)   | 0x0014       |     16 |              4 |
| [65535.3](#event-655353)   | 0x0024       |     38 |              4 |
| [4](#event-4)              | 0x004A       |      1 |              1 |
| [65535.4](#event-655354)   | 0x004B       |     10 |              2 |
| [65535.5](#event-655355)   | 0x0055       |     10 |              2 |
| [65535.6](#event-655356)   | 0x005F       |     10 |              2 |
| [65535.7](#event-655357)   | 0x0069       |     21 |              3 |
| [65535.8](#event-655358)   | 0x007E       |     18 |              2 |
| [65535.9](#event-655359)   | 0x0090       |     41 |              5 |
| [65535.10](#event-6553510) | 0x00B9       |     10 |              2 |
| [65535.11](#event-6553511) | 0x00C3       |     10 |              2 |
| [65535.12](#event-6553512) | 0x00CD       |     10 |              2 |

## DAT References (imed_data)

|   Index | Hex Value   |   Dec Value |
|---------|-------------|-------------|
|       0 | 0x0138      |         312 |
|       1 | 0x0170      |         368 |
|       2 | 0x0078      |         120 |
|       3 | 0x0102      |         258 |
|       4 | 0x0000      |           0 |
|       5 | 0x00DC      |         220 |
|       6 | 0x0080      |         128 |
|       7 | 0x001E      |          30 |
|       8 | 0x0001      |           1 |
|       9 | 0x003C      |          60 |
|      10 | 0x007F      |         127 |
|      11 | 0x014A      |         330 |
|      12 | 0x005A      |          90 |

## Events

### Event 65535

#### Metadata

| Field        | Value   |
|--------------|---------|
| Entrypoint   | 0x0000  |
| Data Size    | 1 bytes |
| Instructions | 1       |

```
      00 01 02 03 04 05 06 07  08 09 0A 0B 0C 0D 0E 0F
      -- -- -- -- -- -- -- --  -- -- -- -- -- -- -- --
0000: 00                                                .               
```

#### Opcodes

```
  0: 0x0000 [0x00] END_REQSTACK()
```

### Event 2

#### Metadata

| Field        | Value   |
|--------------|---------|
| Entrypoint   | 0x0001  |
| Data Size    | 1 bytes |
| Instructions | 1       |

```
      00 01 02 03 04 05 06 07  08 09 0A 0B 0C 0D 0E 0F
      -- -- -- -- -- -- -- --  -- -- -- -- -- -- -- --
0000:    00                                              .              
```

#### Opcodes

```
  0: 0x0001 [0x00] END_REQSTACK()
```

### Event 32000

#### Metadata

| Field        | Value   |
|--------------|---------|
| Entrypoint   | 0x0002  |
| Data Size    | 1 bytes |
| Instructions | 1       |

```
      00 01 02 03 04 05 06 07  08 09 0A 0B 0C 0D 0E 0F
      -- -- -- -- -- -- -- --  -- -- -- -- -- -- -- --
0000:       00                                            .             
```

#### Opcodes

```
  0: 0x0002 [0x00] END_REQSTACK()
```

### Event 32001

#### Metadata

| Field        | Value   |
|--------------|---------|
| Entrypoint   | 0x0003  |
| Data Size    | 1 bytes |
| Instructions | 1       |

```
      00 01 02 03 04 05 06 07  08 09 0A 0B 0C 0D 0E 0F
      -- -- -- -- -- -- -- --  -- -- -- -- -- -- -- --
0000:          00                                          .            
```

#### Opcodes

```
  0: 0x0003 [0x00] END_REQSTACK()
```

### Event 65535.1

#### Metadata

| Field        | Value    |
|--------------|----------|
| Entrypoint   | 0x0004   |
| Data Size    | 16 bytes |
| Instructions | 4        |

```
      00 01 02 03 04 05 06 07  08 09 0A 0B 0C 0D 0E 0F
      -- -- -- -- -- -- -- --  -- -- -- -- -- -- -- --
0000:             81 00 D5 30  04 01 1C 00 80 81 01 D5      ...0........
0010: 30 04 01 00                                       0...            
```

#### Opcodes

```
  0: 0x0004 [0x81] SET_ENTITY_BLINKING(blink_flag=0x00, entity=Raubahn (ID: 17051861/0x010430D5))
  1: 0x000A [0x1C] WAIT(312* ticks)
  2: 0x000D [0x81] SET_ENTITY_BLINKING(blink_flag=0x01, entity=Raubahn (ID: 17051861/0x010430D5))
  3: 0x0013 [0x00] END_REQSTACK()
```

### Event 65535.2

#### Metadata

| Field        | Value    |
|--------------|----------|
| Entrypoint   | 0x0014   |
| Data Size    | 16 bytes |
| Instructions | 4        |

```
      00 01 02 03 04 05 06 07  08 09 0A 0B 0C 0D 0E 0F
      -- -- -- -- -- -- -- --  -- -- -- -- -- -- -- --
0010:             81 00 D5 30  04 01 1C 01 80 81 01 D5      ...0........
0020: 30 04 01 00                                       0...            
```

#### Opcodes

```
  0: 0x0014 [0x81] SET_ENTITY_BLINKING(blink_flag=0x00, entity=Raubahn (ID: 17051861/0x010430D5))
  1: 0x001A [0x1C] WAIT(368* ticks)
  2: 0x001D [0x81] SET_ENTITY_BLINKING(blink_flag=0x01, entity=Raubahn (ID: 17051861/0x010430D5))
  3: 0x0023 [0x00] END_REQSTACK()
```

### Event 65535.3

#### Metadata

| Field        | Value    |
|--------------|----------|
| Entrypoint   | 0x0024   |
| Data Size    | 38 bytes |
| Instructions | 4        |

```
      00 01 02 03 04 05 06 07  08 09 0A 0B 0C 0D 0E 0F
      -- -- -- -- -- -- -- --  -- -- -- -- -- -- -- --
0020:             1C 02 80 45  03 80 F0 FF FF 7F F0 FF      ...E........
0030: FF 7F 6B 69 72 61 04 80  9F 05 80 D5 30 04 01 D5  ..kira......0...
0040: 30 04 01 73 74 72 30 04  80 00                    0..str0...      
```

#### Opcodes

```
  0: 0x0024 [0x1C] WAIT(120* ticks)
  1: 0x0027 [0x45] LOAD_SCHEDULED_TASK: Load scheduler "kira" with entities [LocalPlayer, LocalPlayer], work=[258*, 0*]
  2: 0x0038 [0x9F] LOAD_SCHEDULED_TASK_ALT: Load scheduler "str0" with entities [Raubahn (ID: 17051861/0x010430D5), Raubahn (ID: 17051861/0x010430D5)], work=[220*, 0*]
  3: 0x0049 [0x00] END_REQSTACK()
```

### Event 4

#### Metadata

| Field        | Value   |
|--------------|---------|
| Entrypoint   | 0x004A  |
| Data Size    | 1 bytes |
| Instructions | 1       |

```
      00 01 02 03 04 05 06 07  08 09 0A 0B 0C 0D 0E 0F
      -- -- -- -- -- -- -- --  -- -- -- -- -- -- -- --
0040:                                00                           .     
```

#### Opcodes

```
  0: 0x004A [0x00] END_REQSTACK()
```

### Event 65535.4

#### Metadata

| Field        | Value    |
|--------------|----------|
| Entrypoint   | 0x004B   |
| Data Size    | 10 bytes |
| Instructions | 2        |

```
      00 01 02 03 04 05 06 07  08 09 0A 0B 0C 0D 0E 0F
      -- -- -- -- -- -- -- --  -- -- -- -- -- -- -- --
0040:                                   6C ED 30 04 01             l.0..
0050: 06 80 07 80 00                                    .....           
```

#### Opcodes

```
  0: 0x004B [0x6C] FADE_ENTITY_COLOR(entity_id=Ovjang (ID: 17051885/0x010430ED), end_alpha=128*, fade_time=30*)
  1: 0x0054 [0x00] END_REQSTACK()
```

### Event 65535.5

#### Metadata

| Field        | Value    |
|--------------|----------|
| Entrypoint   | 0x0055   |
| Data Size    | 10 bytes |
| Instructions | 2        |

```
      00 01 02 03 04 05 06 07  08 09 0A 0B 0C 0D 0E 0F
      -- -- -- -- -- -- -- --  -- -- -- -- -- -- -- --
0050:                6C ED 30  04 01 04 80 08 80 00          l.0....... 
```

#### Opcodes

```
  0: 0x0055 [0x6C] FADE_ENTITY_COLOR(entity_id=Ovjang (ID: 17051885/0x010430ED), end_alpha=0*, fade_time=1*)
  1: 0x005E [0x00] END_REQSTACK()
```

### Event 65535.6

#### Metadata

| Field        | Value    |
|--------------|----------|
| Entrypoint   | 0x005F   |
| Data Size    | 10 bytes |
| Instructions | 2        |

```
      00 01 02 03 04 05 06 07  08 09 0A 0B 0C 0D 0E 0F
      -- -- -- -- -- -- -- --  -- -- -- -- -- -- -- --
0050:                                               6C                 l
0060: F0 FF FF 7F 06 80 07 80  00                       .........       
```

#### Opcodes

```
  0: 0x005F [0x6C] FADE_ENTITY_COLOR(entity_id=LocalPlayer, end_alpha=128*, fade_time=30*)
  1: 0x0068 [0x00] END_REQSTACK()
```

### Event 65535.7

#### Metadata

| Field        | Value    |
|--------------|----------|
| Entrypoint   | 0x0069   |
| Data Size    | 21 bytes |
| Instructions | 3        |

```
      00 01 02 03 04 05 06 07  08 09 0A 0B 0C 0D 0E 0F
      -- -- -- -- -- -- -- --  -- -- -- -- -- -- -- --
0060:                             1C 09 80 9F 0A 80 F8           .......
0070: FF FF 7F F8 FF FF 7F 73  74 72 30 04 80 00        .......str0...  
```

#### Opcodes

```
  0: 0x0069 [0x1C] WAIT(60* ticks)
  1: 0x006C [0x9F] LOAD_SCHEDULED_TASK_ALT: Load scheduler "str0" with entities [EventEntity, EventEntity], work=[127*, 0*]
  2: 0x007D [0x00] END_REQSTACK()
```

### Event 65535.8

#### Metadata

| Field        | Value    |
|--------------|----------|
| Entrypoint   | 0x007E   |
| Data Size    | 18 bytes |
| Instructions | 2        |

```
      00 01 02 03 04 05 06 07  08 09 0A 0B 0C 0D 0E 0F
      -- -- -- -- -- -- -- --  -- -- -- -- -- -- -- --
0070:                                            9F 0A                ..
0080: 80 F8 FF FF 7F F8 FF FF  7F 6B 69 6C 6C 04 80 00  .........kill...
```

#### Opcodes

```
  0: 0x007E [0x9F] LOAD_SCHEDULED_TASK_ALT: Load scheduler "kill" with entities [EventEntity, EventEntity], work=[127*, 0*]
  1: 0x008F [0x00] END_REQSTACK()
```

### Event 65535.9

#### Metadata

| Field        | Value    |
|--------------|----------|
| Entrypoint   | 0x0090   |
| Data Size    | 41 bytes |
| Instructions | 5        |

```
      00 01 02 03 04 05 06 07  08 09 0A 0B 0C 0D 0E 0F
      -- -- -- -- -- -- -- --  -- -- -- -- -- -- -- --
0090: 1C 0B 80 9F 0A 80 F8 FF  FF 7F F8 FF FF 7F 73 74  ..............st
00A0: 72 30 04 80 1C 0C 80 9F  0A 80 F8 FF FF 7F F8 FF  r0..............
00B0: FF 7F 6B 69 6C 6C 04 80  00                       ..kill...       
```

#### Opcodes

```
  0: 0x0090 [0x1C] WAIT(330* ticks)
  1: 0x0093 [0x9F] LOAD_SCHEDULED_TASK_ALT: Load scheduler "str0" with entities [EventEntity, EventEntity], work=[127*, 0*]
  2: 0x00A4 [0x1C] WAIT(90* ticks)
  3: 0x00A7 [0x9F] LOAD_SCHEDULED_TASK_ALT: Load scheduler "kill" with entities [EventEntity, EventEntity], work=[127*, 0*]
  4: 0x00B8 [0x00] END_REQSTACK()
```

### Event 65535.10

#### Metadata

| Field        | Value    |
|--------------|----------|
| Entrypoint   | 0x00B9   |
| Data Size    | 10 bytes |
| Instructions | 2        |

```
      00 01 02 03 04 05 06 07  08 09 0A 0B 0C 0D 0E 0F
      -- -- -- -- -- -- -- --  -- -- -- -- -- -- -- --
00B0:                             6C EE 30 04 01 06 80           l.0....
00C0: 07 80 00                                          ...             
```

#### Opcodes

```
  0: 0x00B9 [0x6C] FADE_ENTITY_COLOR(entity_id=Mnejing (ID: 17051886/0x010430EE), end_alpha=128*, fade_time=30*)
  1: 0x00C2 [0x00] END_REQSTACK()
```

### Event 65535.11

#### Metadata

| Field        | Value    |
|--------------|----------|
| Entrypoint   | 0x00C3   |
| Data Size    | 10 bytes |
| Instructions | 2        |

```
      00 01 02 03 04 05 06 07  08 09 0A 0B 0C 0D 0E 0F
      -- -- -- -- -- -- -- --  -- -- -- -- -- -- -- --
00C0:          6C F2 30 04 01  06 80 07 80 00              l.0.......   
```

#### Opcodes

```
  0: 0x00C3 [0x6C] FADE_ENTITY_COLOR(entity_id=Gaheel Ja (ID: 17051890/0x010430F2), end_alpha=128*, fade_time=30*)
  1: 0x00CC [0x00] END_REQSTACK()
```

### Event 65535.12

#### Metadata

| Field        | Value    |
|--------------|----------|
| Entrypoint   | 0x00CD   |
| Data Size    | 10 bytes |
| Instructions | 2        |

```
      00 01 02 03 04 05 06 07  08 09 0A 0B 0C 0D 0E 0F
      -- -- -- -- -- -- -- --  -- -- -- -- -- -- -- --
00C0:                                         6C F2 30               l.0
00D0: 04 01 04 80 08 80 00                              .......         
```

#### Opcodes

```
  0: 0x00CD [0x6C] FADE_ENTITY_COLOR(entity_id=Gaheel Ja (ID: 17051890/0x010430F2), end_alpha=0*, fade_time=1*)
  1: 0x00D6 [0x00] END_REQSTACK()
```
