# 17051907

## Common Data

| Field            | Value                   |
|------------------|-------------------------|
| Zone             | Jade Sepulcher (ID: 67) |
| Block Size       | 216 bytes               |
| Total Events     | 7                       |
| References Count | 15                      |

## List of Events

| Event ID                 | Entrypoint   |   Size |   Instructions |
|--------------------------|--------------|--------|----------------|
| [65535](#event-65535)    | 0x0000       |      1 |              1 |
| [32001](#event-32001)    | 0x0001       |      1 |              1 |
| [65535.1](#event-655351) | 0x0002       |     21 |              4 |
| [65535.2](#event-655352) | 0x0017       |     46 |             10 |
| [65535.3](#event-655353) | 0x0045       |     36 |              9 |
| [65535.4](#event-655354) | 0x0069       |      1 |              1 |
| [65535.5](#event-655355) | 0x006A       |      3 |              2 |

## DAT References (imed_data)

|   Index | Hex Value   |   Dec Value |
|---------|-------------|-------------|
|       0 | 0x3C251     |      246353 |
|       1 | 0x390EE     |      233710 |
|       2 | 0xFFFF878C  |  4294936460 |
|       3 | 0x0186      |         390 |
|       4 | 0x0028      |          40 |
|       5 | 0x3C824     |      247844 |
|       6 | 0x394F3     |      234739 |
|       7 | 0xFFFF87A4  |  4294936484 |
|       8 | 0x0005      |           5 |
|       9 | 0x033B      |         827 |
|      10 | 0x3C712     |      247570 |
|      11 | 0x388C7     |      231623 |
|      12 | 0xFFFF88D8  |  4294936792 |
|      13 | 0x0187      |         391 |
|      14 | 0x000B      |          11 |

## Events

### Event 65535

#### Metadata

| Field        | Value   |
|--------------|---------|
| Entrypoint   | 0x0000  |
| Data Size    | 1 bytes |
| Instructions | 1       |

```
      00 01 02 03 04 05 06 07  08 09 0A 0B 0C 0D 0E 0F
      -- -- -- -- -- -- -- --  -- -- -- -- -- -- -- --
0000: 00                                                .               
```

#### Opcodes

```
  0: 0x0000 [0x00] END_REQSTACK()
```

### Event 32001

#### Metadata

| Field        | Value   |
|--------------|---------|
| Entrypoint   | 0x0001  |
| Data Size    | 1 bytes |
| Instructions | 1       |

```
      00 01 02 03 04 05 06 07  08 09 0A 0B 0C 0D 0E 0F
      -- -- -- -- -- -- -- --  -- -- -- -- -- -- -- --
0000:    00                                              .              
```

#### Opcodes

```
  0: 0x0001 [0x00] END_REQSTACK()
```

### Event 65535.1

#### Metadata

| Field        | Value    |
|--------------|----------|
| Entrypoint   | 0x0002   |
| Data Size    | 21 bytes |
| Instructions | 4        |

```
      00 01 02 03 04 05 06 07  08 09 0A 0B 0C 0D 0E 0F
      -- -- -- -- -- -- -- --  -- -- -- -- -- -- -- --
0000:       37 00 80 01 80 02  80 03 80 1E D3 30 04 01    7..........0..
0010: 4E 00 03 31 04 01 00                              N..1...         
```

#### Opcodes

```
  0: 0x0002 [0x37] UPDATE_EVENT_POSITION_AND_DIR: x=246.353*, z=233.710*, y=-30.836*, direction=34.3°*
  1: 0x000B [0x1E] EventEntity looks at ??? (ID: 17051859/0x010430D3) and starts talking
  2: 0x0010 [0x4E] SET_ENTITY_HIDE_FLAG: Show Unnamed NPC (ID: 17051907/0x01043103)
  3: 0x0016 [0x00] END_REQSTACK()
```

### Event 65535.2

#### Metadata

| Field        | Value    |
|--------------|----------|
| Entrypoint   | 0x0017   |
| Data Size    | 46 bytes |
| Instructions | 10       |

```
      00 01 02 03 04 05 06 07  08 09 0A 0B 0C 0D 0E 0F
      -- -- -- -- -- -- -- --  -- -- -- -- -- -- -- --
0010:                      4E  00 03 31 04 01 1E EF 30         N..1....0
0020: 04 01 32 04 80 61 00 1F  00 05 80 06 80 07 80 1F  ..2..a..........
0030: 01 6F 1C 08 80 5B 09 80  EB 30 04 01 EB 30 04 01  .o...[...0...0..
0040: 77 61 72 30 00                                    war0.           
```

#### Opcodes

```
  0: 0x0017 [0x4E] SET_ENTITY_HIDE_FLAG: Show Unnamed NPC (ID: 17051907/0x01043103)
  1: 0x001D [0x1E] EventEntity looks at Rishfee (ID: 17051887/0x010430EF) and starts talking
  2: 0x0022 [0x32] ExtData[1]->MainSpeed = 40* * 0.1
  3: 0x0025 [0x61] EventEntity->Render.Flags2 &= ~0x00000001
  4: 0x0027 [0x1F] MOVE_ENTITY: EventEntity moves to X=247.844*, Z=234.739*, Y=-30.812*
  5: 0x002F [0x1F] MOVE_ENTITY: Update entity position (mode=1)
  6: 0x0031 [0x6F] WAIT_FRAME_DELAY: Yield until WaitTime reaches zero
  7: 0x0032 [0x1C] WAIT(5* ticks)
  8: 0x0035 [0x5B] LOAD_EXT_SCHEDULER: Load scheduler "war0" with entities [Unnamed NPC (ID: 17051883/0x010430EB), Unnamed NPC (ID: 17051883/0x010430EB)], work=827*
  9: 0x0044 [0x00] END_REQSTACK()
```

### Event 65535.3

#### Metadata

| Field        | Value    |
|--------------|----------|
| Entrypoint   | 0x0045   |
| Data Size    | 36 bytes |
| Instructions | 9        |

```
      00 01 02 03 04 05 06 07  08 09 0A 0B 0C 0D 0E 0F
      -- -- -- -- -- -- -- --  -- -- -- -- -- -- -- --
0040:                1E D3 30  04 01 37 0A 80 0B 80 0C       ..0..7.....
0050: 80 0D 80 32 0E 80 61 01  1F 00 00 80 01 80 02 80  ...2..a.........
0060: 1F 01 6F 1E D3 30 04 01  00                       ..o..0...       
```

#### Opcodes

```
  0: 0x0045 [0x1E] EventEntity looks at ??? (ID: 17051859/0x010430D3) and starts talking
  1: 0x004A [0x37] UPDATE_EVENT_POSITION_AND_DIR: x=247.570*, z=231.623*, y=-30.504*, direction=34.4°*
  2: 0x0053 [0x32] ExtData[1]->MainSpeed = 11* * 0.1
  3: 0x0056 [0x61] EventEntity->Render.Flags2 |= 0x00000001
  4: 0x0058 [0x1F] MOVE_ENTITY: EventEntity moves to X=246.353*, Z=233.710*, Y=-30.836*
  5: 0x0060 [0x1F] MOVE_ENTITY: Update entity position (mode=1)
  6: 0x0062 [0x6F] WAIT_FRAME_DELAY: Yield until WaitTime reaches zero
  7: 0x0063 [0x1E] EventEntity looks at ??? (ID: 17051859/0x010430D3) and starts talking
  8: 0x0068 [0x00] END_REQSTACK()
```

### Event 65535.4

#### Metadata

| Field        | Value   |
|--------------|---------|
| Entrypoint   | 0x0069  |
| Data Size    | 1 bytes |
| Instructions | 1       |

```
      00 01 02 03 04 05 06 07  08 09 0A 0B 0C 0D 0E 0F
      -- -- -- -- -- -- -- --  -- -- -- -- -- -- -- --
0060:                             00                             .      
```

#### Opcodes

```
  0: 0x0069 [0x00] END_REQSTACK()
```

### Event 65535.5

#### Metadata

| Field        | Value   |
|--------------|---------|
| Entrypoint   | 0x006A  |
| Data Size    | 3 bytes |
| Instructions | 2       |

```
      00 01 02 03 04 05 06 07  08 09 0A 0B 0C 0D 0E 0F
      -- -- -- -- -- -- -- --  -- -- -- -- -- -- -- --
0060:                                61 01 00                     a..   
```

#### Opcodes

```
  0: 0x006A [0x61] EventEntity->Render.Flags2 |= 0x00000001
  1: 0x006C [0x00] END_REQSTACK()
```
