# 17051908

## Common Data

| Field            | Value                   |
|------------------|-------------------------|
| Zone             | Jade Sepulcher (ID: 67) |
| Block Size       | 136 bytes               |
| Total Events     | 6                       |
| References Count | 9                       |

## List of Events

| Event ID                 | Entrypoint   |   Size |   Instructions |
|--------------------------|--------------|--------|----------------|
| [65535](#event-65535)    | 0x0000       |      1 |              1 |
| [32001](#event-32001)    | 0x0001       |      1 |              1 |
| [65535.1](#event-655351) | 0x0002       |     21 |              4 |
| [65535.2](#event-655352) | 0x0017       |     31 |              9 |
| [65535.3](#event-655353) | 0x0036       |      1 |              1 |
| [65535.4](#event-655354) | 0x0037       |      3 |              2 |

## DAT References (imed_data)

|   Index | Hex Value   |   Dec Value |
|---------|-------------|-------------|
|       0 | 0x3C4E6     |      247014 |
|       1 | 0x3B7D1     |      243665 |
|       2 | 0xFFFF86DB  |  4294936283 |
|       3 | 0x01FE      |         510 |
|       4 | 0x0028      |          40 |
|       5 | 0x3CF37     |      249655 |
|       6 | 0x394BF     |      234687 |
|       7 | 0xFFFF88A6  |  4294936742 |
|       8 | 0x0005      |           5 |

## Events

### Event 65535

#### Metadata

| Field        | Value   |
|--------------|---------|
| Entrypoint   | 0x0000  |
| Data Size    | 1 bytes |
| Instructions | 1       |

```
      00 01 02 03 04 05 06 07  08 09 0A 0B 0C 0D 0E 0F
      -- -- -- -- -- -- -- --  -- -- -- -- -- -- -- --
0000: 00                                                .               
```

#### Opcodes

```
  0: 0x0000 [0x00] END_REQSTACK()
```

### Event 32001

#### Metadata

| Field        | Value   |
|--------------|---------|
| Entrypoint   | 0x0001  |
| Data Size    | 1 bytes |
| Instructions | 1       |

```
      00 01 02 03 04 05 06 07  08 09 0A 0B 0C 0D 0E 0F
      -- -- -- -- -- -- -- --  -- -- -- -- -- -- -- --
0000:    00                                              .              
```

#### Opcodes

```
  0: 0x0001 [0x00] END_REQSTACK()
```

### Event 65535.1

#### Metadata

| Field        | Value    |
|--------------|----------|
| Entrypoint   | 0x0002   |
| Data Size    | 21 bytes |
| Instructions | 4        |

```
      00 01 02 03 04 05 06 07  08 09 0A 0B 0C 0D 0E 0F
      -- -- -- -- -- -- -- --  -- -- -- -- -- -- -- --
0000:       37 00 80 01 80 02  80 03 80 1E D3 30 04 01    7..........0..
0010: 4E 00 04 31 04 01 00                              N..1...         
```

#### Opcodes

```
  0: 0x0002 [0x37] UPDATE_EVENT_POSITION_AND_DIR: x=247.014*, z=243.665*, y=-31.013*, direction=44.8°*
  1: 0x000B [0x1E] EventEntity looks at ??? (ID: 17051859/0x010430D3) and starts talking
  2: 0x0010 [0x4E] SET_ENTITY_HIDE_FLAG: Show Unnamed NPC (ID: 17051908/0x01043104)
  3: 0x0016 [0x00] END_REQSTACK()
```

### Event 65535.2

#### Metadata

| Field        | Value    |
|--------------|----------|
| Entrypoint   | 0x0017   |
| Data Size    | 31 bytes |
| Instructions | 9        |

```
      00 01 02 03 04 05 06 07  08 09 0A 0B 0C 0D 0E 0F
      -- -- -- -- -- -- -- --  -- -- -- -- -- -- -- --
0010:                      4E  00 04 31 04 01 1E EF 30         N..1....0
0020: 04 01 32 04 80 61 00 1F  00 05 80 06 80 07 80 1F  ..2..a..........
0030: 01 6F 1C 08 80 00                                 .o....          
```

#### Opcodes

```
  0: 0x0017 [0x4E] SET_ENTITY_HIDE_FLAG: Show Unnamed NPC (ID: 17051908/0x01043104)
  1: 0x001D [0x1E] EventEntity looks at Rishfee (ID: 17051887/0x010430EF) and starts talking
  2: 0x0022 [0x32] ExtData[1]->MainSpeed = 40* * 0.1
  3: 0x0025 [0x61] EventEntity->Render.Flags2 &= ~0x00000001
  4: 0x0027 [0x1F] MOVE_ENTITY: EventEntity moves to X=249.655*, Z=234.687*, Y=-30.554*
  5: 0x002F [0x1F] MOVE_ENTITY: Update entity position (mode=1)
  6: 0x0031 [0x6F] WAIT_FRAME_DELAY: Yield until WaitTime reaches zero
  7: 0x0032 [0x1C] WAIT(5* ticks)
  8: 0x0035 [0x00] END_REQSTACK()
```

### Event 65535.3

#### Metadata

| Field        | Value   |
|--------------|---------|
| Entrypoint   | 0x0036  |
| Data Size    | 1 bytes |
| Instructions | 1       |

```
      00 01 02 03 04 05 06 07  08 09 0A 0B 0C 0D 0E 0F
      -- -- -- -- -- -- -- --  -- -- -- -- -- -- -- --
0030:                   00                                    .         
```

#### Opcodes

```
  0: 0x0036 [0x00] END_REQSTACK()
```

### Event 65535.4

#### Metadata

| Field        | Value   |
|--------------|---------|
| Entrypoint   | 0x0037  |
| Data Size    | 3 bytes |
| Instructions | 2       |

```
      00 01 02 03 04 05 06 07  08 09 0A 0B 0C 0D 0E 0F
      -- -- -- -- -- -- -- --  -- -- -- -- -- -- -- --
0030:                      61  01 00                           a..      
```

#### Opcodes

```
  0: 0x0037 [0x61] EventEntity->Render.Flags2 |= 0x00000001
  1: 0x0039 [0x00] END_REQSTACK()
```
