# 17051911

## Common Data

| Field            | Value                   |
|------------------|-------------------------|
| Zone             | Jade Sepulcher (ID: 67) |
| Block Size       | 200 bytes               |
| Total Events     | 7                       |
| References Count | 16                      |

## List of Events

| Event ID                 | Entrypoint   |   Size |   Instructions |
|--------------------------|--------------|--------|----------------|
| [65535](#event-65535)    | 0x0000       |      1 |              1 |
| [32001](#event-32001)    | 0x0001       |      1 |              1 |
| [65535.1](#event-655351) | 0x0002       |     21 |              4 |
| [65535.2](#event-655352) | 0x0017       |     31 |              9 |
| [65535.3](#event-655353) | 0x0036       |     36 |              9 |
| [65535.4](#event-655354) | 0x005A       |      1 |              1 |
| [65535.5](#event-655355) | 0x005B       |      1 |              1 |

## DAT References (imed_data)

|   Index | Hex Value   |   Dec Value |
|---------|-------------|-------------|
|       0 | 0x3A1D1     |      238033 |
|       1 | 0x3A06B     |      237675 |
|       2 | 0xFFFF84F5  |  4294935797 |
|       3 | 0x0186      |         390 |
|       4 | 0x0028      |          40 |
|       5 | 0x3C91E     |      248094 |
|       6 | 0x38AC6     |      232134 |
|       7 | 0xFFFF88D9  |  4294936793 |
|       8 | 0x0005      |           5 |
|       9 | 0x39504     |      234756 |
|      10 | 0x3A7FE     |      239614 |
|      11 | 0xFFFF865D  |  4294936157 |
|      12 | 0x0064      |         100 |
|      13 | 0x000B      |          11 |
|      14 | 0x3A0C0     |      237760 |
|      15 | 0x3A62D     |      239149 |

## Events

### Event 65535

#### Metadata

| Field        | Value   |
|--------------|---------|
| Entrypoint   | 0x0000  |
| Data Size    | 1 bytes |
| Instructions | 1       |

```
      00 01 02 03 04 05 06 07  08 09 0A 0B 0C 0D 0E 0F
      -- -- -- -- -- -- -- --  -- -- -- -- -- -- -- --
0000: 00                                                .               
```

#### Opcodes

```
  0: 0x0000 [0x00] END_REQSTACK()
```

### Event 32001

#### Metadata

| Field        | Value   |
|--------------|---------|
| Entrypoint   | 0x0001  |
| Data Size    | 1 bytes |
| Instructions | 1       |

```
      00 01 02 03 04 05 06 07  08 09 0A 0B 0C 0D 0E 0F
      -- -- -- -- -- -- -- --  -- -- -- -- -- -- -- --
0000:    00                                              .              
```

#### Opcodes

```
  0: 0x0001 [0x00] END_REQSTACK()
```

### Event 65535.1

#### Metadata

| Field        | Value    |
|--------------|----------|
| Entrypoint   | 0x0002   |
| Data Size    | 21 bytes |
| Instructions | 4        |

```
      00 01 02 03 04 05 06 07  08 09 0A 0B 0C 0D 0E 0F
      -- -- -- -- -- -- -- --  -- -- -- -- -- -- -- --
0000:       4E 00 07 31 04 01  37 00 80 01 80 02 80 03    N..1..7.......
0010: 80 1E D3 30 04 01 00                              ...0...         
```

#### Opcodes

```
  0: 0x0002 [0x4E] SET_ENTITY_HIDE_FLAG: Show Unnamed NPC (ID: 17051911/0x01043107)
  1: 0x0008 [0x37] UPDATE_EVENT_POSITION_AND_DIR: x=238.033*, z=237.675*, y=-31.499*, direction=34.3°*
  2: 0x0011 [0x1E] EventEntity looks at ??? (ID: 17051859/0x010430D3) and starts talking
  3: 0x0016 [0x00] END_REQSTACK()
```

### Event 65535.2

#### Metadata

| Field        | Value    |
|--------------|----------|
| Entrypoint   | 0x0017   |
| Data Size    | 31 bytes |
| Instructions | 9        |

```
      00 01 02 03 04 05 06 07  08 09 0A 0B 0C 0D 0E 0F
      -- -- -- -- -- -- -- --  -- -- -- -- -- -- -- --
0010:                      4E  00 07 31 04 01 1E EF 30         N..1....0
0020: 04 01 32 04 80 61 00 1F  00 05 80 06 80 07 80 1F  ..2..a..........
0030: 01 6F 1C 08 80 00                                 .o....          
```

#### Opcodes

```
  0: 0x0017 [0x4E] SET_ENTITY_HIDE_FLAG: Show Unnamed NPC (ID: 17051911/0x01043107)
  1: 0x001D [0x1E] EventEntity looks at Rishfee (ID: 17051887/0x010430EF) and starts talking
  2: 0x0022 [0x32] ExtData[1]->MainSpeed = 40* * 0.1
  3: 0x0025 [0x61] EventEntity->Render.Flags2 &= ~0x00000001
  4: 0x0027 [0x1F] MOVE_ENTITY: EventEntity moves to X=248.094*, Z=232.134*, Y=-30.503*
  5: 0x002F [0x1F] MOVE_ENTITY: Update entity position (mode=1)
  6: 0x0031 [0x6F] WAIT_FRAME_DELAY: Yield until WaitTime reaches zero
  7: 0x0032 [0x1C] WAIT(5* ticks)
  8: 0x0035 [0x00] END_REQSTACK()
```

### Event 65535.3

#### Metadata

| Field        | Value    |
|--------------|----------|
| Entrypoint   | 0x0036   |
| Data Size    | 36 bytes |
| Instructions | 9        |

```
      00 01 02 03 04 05 06 07  08 09 0A 0B 0C 0D 0E 0F
      -- -- -- -- -- -- -- --  -- -- -- -- -- -- -- --
0030:                   1E D3  30 04 01 37 09 80 0A 80        ..0..7....
0040: 0B 80 0C 80 32 0D 80 61  01 1F 00 0E 80 0F 80 02  ....2..a........
0050: 80 1F 01 6F 1E D3 30 04  01 00                    ...o..0...      
```

#### Opcodes

```
  0: 0x0036 [0x1E] EventEntity looks at ??? (ID: 17051859/0x010430D3) and starts talking
  1: 0x003B [0x37] UPDATE_EVENT_POSITION_AND_DIR: x=234.756*, z=239.614*, y=-31.139*, direction=8.8°*
  2: 0x0044 [0x32] ExtData[1]->MainSpeed = 11* * 0.1
  3: 0x0047 [0x61] EventEntity->Render.Flags2 |= 0x00000001
  4: 0x0049 [0x1F] MOVE_ENTITY: EventEntity moves to X=237.760*, Z=239.149*, Y=-31.499*
  5: 0x0051 [0x1F] MOVE_ENTITY: Update entity position (mode=1)
  6: 0x0053 [0x6F] WAIT_FRAME_DELAY: Yield until WaitTime reaches zero
  7: 0x0054 [0x1E] EventEntity looks at ??? (ID: 17051859/0x010430D3) and starts talking
  8: 0x0059 [0x00] END_REQSTACK()
```

### Event 65535.4

#### Metadata

| Field        | Value   |
|--------------|---------|
| Entrypoint   | 0x005A  |
| Data Size    | 1 bytes |
| Instructions | 1       |

```
      00 01 02 03 04 05 06 07  08 09 0A 0B 0C 0D 0E 0F
      -- -- -- -- -- -- -- --  -- -- -- -- -- -- -- --
0050:                                00                           .     
```

#### Opcodes

```
  0: 0x005A [0x00] END_REQSTACK()
```

### Event 65535.5

#### Metadata

| Field        | Value   |
|--------------|---------|
| Entrypoint   | 0x005B  |
| Data Size    | 1 bytes |
| Instructions | 1       |

```
      00 01 02 03 04 05 06 07  08 09 0A 0B 0C 0D 0E 0F
      -- -- -- -- -- -- -- --  -- -- -- -- -- -- -- --
0050:                                   00                         .    
```

#### Opcodes

```
  0: 0x005B [0x00] END_REQSTACK()
```
