# 17051883

## Common Data

| Field            | Value                   |
|------------------|-------------------------|
| Zone             | Jade Sepulcher (ID: 67) |
| Block Size       | 220 bytes               |
| Total Events     | 9                       |
| References Count | 16                      |

## List of Events

| Event ID                 | Entrypoint   |   Size |   Instructions |
|--------------------------|--------------|--------|----------------|
| [65535](#event-65535)    | 0x0000       |      1 |              1 |
| [32001](#event-32001)    | 0x0001       |      1 |              1 |
| [65535.1](#event-655351) | 0x0002       |     16 |              5 |
| [65535.2](#event-655352) | 0x0012       |     30 |              4 |
| [65535.3](#event-655353) | 0x0030       |     32 |              7 |
| [65535.4](#event-655354) | 0x0050       |     16 |              5 |
| [65535.5](#event-655355) | 0x0060       |      3 |              2 |
| [65535.6](#event-655356) | 0x0063       |      3 |              2 |
| [7](#event-7)            | 0x0066       |      1 |              1 |

## DAT References (imed_data)

|   Index | Hex Value   |   Dec Value |
|---------|-------------|-------------|
|       0 | 0x0028      |          40 |
|       1 | 0x5178D     |      333709 |
|       2 | 0xFFFDEE40  |  4294831680 |
|       3 | 0xFFFFE9C8  |  4294961608 |
|       4 | 0x3B425     |      242725 |
|       5 | 0x3AD65     |      240997 |
|       6 | 0xFFFF8559  |  4294935897 |
|       7 | 0x0187      |         391 |
|       8 | 0x033B      |         827 |
|       9 | 0x37AB5     |      228021 |
|      10 | 0x3D0FC     |      250108 |
|      11 | 0xFFFF86F9  |  4294936313 |
|      12 | 0x0008      |           8 |
|      13 | 0x3BC60     |      244832 |
|      14 | 0x3A032     |      237618 |
|      15 | 0xFFFF866B  |  4294936171 |

## Events

### Event 65535

#### Metadata

| Field        | Value   |
|--------------|---------|
| Entrypoint   | 0x0000  |
| Data Size    | 1 bytes |
| Instructions | 1       |

```
      00 01 02 03 04 05 06 07  08 09 0A 0B 0C 0D 0E 0F
      -- -- -- -- -- -- -- --  -- -- -- -- -- -- -- --
0000: 00                                                .               
```

#### Opcodes

```
  0: 0x0000 [0x00] END_REQSTACK()
```

### Event 32001

#### Metadata

| Field        | Value   |
|--------------|---------|
| Entrypoint   | 0x0001  |
| Data Size    | 1 bytes |
| Instructions | 1       |

```
      00 01 02 03 04 05 06 07  08 09 0A 0B 0C 0D 0E 0F
      -- -- -- -- -- -- -- --  -- -- -- -- -- -- -- --
0000:    00                                              .              
```

#### Opcodes

```
  0: 0x0001 [0x00] END_REQSTACK()
```

### Event 65535.1

#### Metadata

| Field        | Value    |
|--------------|----------|
| Entrypoint   | 0x0002   |
| Data Size    | 16 bytes |
| Instructions | 5        |

```
      00 01 02 03 04 05 06 07  08 09 0A 0B 0C 0D 0E 0F
      -- -- -- -- -- -- -- --  -- -- -- -- -- -- -- --
0000:       32 00 80 61 00 1F  00 01 80 02 80 03 80 1F    2..a..........
0010: 01 00                                             ..              
```

#### Opcodes

```
  0: 0x0002 [0x32] ExtData[1]->MainSpeed = 40* * 0.1
  1: 0x0005 [0x61] EventEntity->Render.Flags2 &= ~0x00000001
  2: 0x0007 [0x1F] MOVE_ENTITY: EventEntity moves to X=333.709*, Z=-135.616*, Y=-5.688*
  3: 0x000F [0x1F] MOVE_ENTITY: Update entity position (mode=1)
  4: 0x0011 [0x00] END_REQSTACK()
```

### Event 65535.2

#### Metadata

| Field        | Value    |
|--------------|----------|
| Entrypoint   | 0x0012   |
| Data Size    | 30 bytes |
| Instructions | 4        |

```
      00 01 02 03 04 05 06 07  08 09 0A 0B 0C 0D 0E 0F
      -- -- -- -- -- -- -- --  -- -- -- -- -- -- -- --
0010:       37 04 80 05 80 06  80 07 80 5B 08 80 EB 30    7........[...0
0020: 04 01 EB 30 04 01 6D 6E  6B 30 1E D3 30 04 01 00  ...0..mnk0..0...
```

#### Opcodes

```
  0: 0x0012 [0x37] UPDATE_EVENT_POSITION_AND_DIR: x=242.725*, z=240.997*, y=-31.399*, direction=34.4°*
  1: 0x001B [0x5B] LOAD_EXT_SCHEDULER: Load scheduler "mnk0" with entities [Unnamed NPC (ID: 17051883/0x010430EB), Unnamed NPC (ID: 17051883/0x010430EB)], work=827*
  2: 0x002A [0x1E] EventEntity looks at ??? (ID: 17051859/0x010430D3) and starts talking
  3: 0x002F [0x00] END_REQSTACK()
```

### Event 65535.3

#### Metadata

| Field        | Value    |
|--------------|----------|
| Entrypoint   | 0x0030   |
| Data Size    | 32 bytes |
| Instructions | 7        |

```
      00 01 02 03 04 05 06 07  08 09 0A 0B 0C 0D 0E 0F
      -- -- -- -- -- -- -- --  -- -- -- -- -- -- -- --
0030: 32 00 80 61 00 1F 00 09  80 0A 80 0B 80 1F 01 6F  2..a...........o
0040: 5B 08 80 EB 30 04 01 EB  30 04 01 77 61 72 30 00  [...0...0..war0.
```

#### Opcodes

```
  0: 0x0030 [0x32] ExtData[1]->MainSpeed = 40* * 0.1
  1: 0x0033 [0x61] EventEntity->Render.Flags2 &= ~0x00000001
  2: 0x0035 [0x1F] MOVE_ENTITY: EventEntity moves to X=228.021*, Z=250.108*, Y=-30.983*
  3: 0x003D [0x1F] MOVE_ENTITY: Update entity position (mode=1)
  4: 0x003F [0x6F] WAIT_FRAME_DELAY: Yield until WaitTime reaches zero
  5: 0x0040 [0x5B] LOAD_EXT_SCHEDULER: Load scheduler "war0" with entities [Unnamed NPC (ID: 17051883/0x010430EB), Unnamed NPC (ID: 17051883/0x010430EB)], work=827*
  6: 0x004F [0x00] END_REQSTACK()
```

### Event 65535.4

#### Metadata

| Field        | Value    |
|--------------|----------|
| Entrypoint   | 0x0050   |
| Data Size    | 16 bytes |
| Instructions | 5        |

```
      00 01 02 03 04 05 06 07  08 09 0A 0B 0C 0D 0E 0F
      -- -- -- -- -- -- -- --  -- -- -- -- -- -- -- --
0050: 32 0C 80 61 01 1F 00 0D  80 0E 80 0F 80 1F 01 00  2..a............
```

#### Opcodes

```
  0: 0x0050 [0x32] ExtData[1]->MainSpeed = 8* * 0.1
  1: 0x0053 [0x61] EventEntity->Render.Flags2 |= 0x00000001
  2: 0x0055 [0x1F] MOVE_ENTITY: EventEntity moves to X=244.832*, Z=237.618*, Y=-31.125*
  3: 0x005D [0x1F] MOVE_ENTITY: Update entity position (mode=1)
  4: 0x005F [0x00] END_REQSTACK()
```

### Event 65535.5

#### Metadata

| Field        | Value   |
|--------------|---------|
| Entrypoint   | 0x0060  |
| Data Size    | 3 bytes |
| Instructions | 2       |

```
      00 01 02 03 04 05 06 07  08 09 0A 0B 0C 0D 0E 0F
      -- -- -- -- -- -- -- --  -- -- -- -- -- -- -- --
0060: 61 00 00                                          a..             
```

#### Opcodes

```
  0: 0x0060 [0x61] EventEntity->Render.Flags2 &= ~0x00000001
  1: 0x0062 [0x00] END_REQSTACK()
```

### Event 65535.6

#### Metadata

| Field        | Value   |
|--------------|---------|
| Entrypoint   | 0x0063  |
| Data Size    | 3 bytes |
| Instructions | 2       |

```
      00 01 02 03 04 05 06 07  08 09 0A 0B 0C 0D 0E 0F
      -- -- -- -- -- -- -- --  -- -- -- -- -- -- -- --
0060:          61 01 00                                    a..          
```

#### Opcodes

```
  0: 0x0063 [0x61] EventEntity->Render.Flags2 |= 0x00000001
  1: 0x0065 [0x00] END_REQSTACK()
```

### Event 7

#### Metadata

| Field        | Value   |
|--------------|---------|
| Entrypoint   | 0x0066  |
| Data Size    | 1 bytes |
| Instructions | 1       |

```
      00 01 02 03 04 05 06 07  08 09 0A 0B 0C 0D 0E 0F
      -- -- -- -- -- -- -- --  -- -- -- -- -- -- -- --
0060:                   00                                    .         
```

#### Opcodes

```
  0: 0x0066 [0x00] END_REQSTACK()
```
