# 17051857

## Common Data

| Field            | Value                   |
|------------------|-------------------------|
| Zone             | Jade Sepulcher (ID: 67) |
| Block Size       | 11704 bytes             |
| Total Events     | 4                       |
| References Count | 221                     |

## List of Events

| Event ID              | Entrypoint   |   Size |   Instructions |
|-----------------------|--------------|--------|----------------|
| [65535](#event-65535) | 0x0000       |      1 |              1 |
| [2](#event-2)         | 0x0001       |    300 |             45 |
| [4](#event-4)         | 0x012D       |   9112 |            952 |
| [6](#event-6)         | 0x24C5       |   1373 |            164 |

## DAT References (imed_data)

|   Index | Hex Value   |   Dec Value |
|---------|-------------|-------------|
|       0 | 0x0013      |          19 |
|       1 | 0x000F      |          15 |
|       2 | 0x0345      |         837 |
|       3 | 0x0111      |         273 |
|       4 | 0x0000      |           0 |
|       5 | 0x091B      |        2331 |
|       6 | 0x1E1B      |        7707 |
|       7 | 0x0007      |           7 |
|       8 | 0x002D      |          45 |
|       9 | 0x005A      |          90 |
|      10 | 0x001E      |          30 |
|      11 | 0x00C8      |         200 |
|      12 | 0x03CC      |         972 |
|      13 | 0x03CE      |         974 |
|      14 | 0x03D2      |         978 |
|      15 | 0x03CF      |         975 |
|      16 | 0x03B7      |         951 |
|      17 | 0x03ED      |        1005 |
|      18 | 0x03AF      |         943 |
|      19 | 0x03C1      |         961 |
|      20 | 0x03B6      |         950 |
|      21 | 0x040E      |        1038 |
|      22 | 0x040F      |        1039 |
|      23 | 0x0410      |        1040 |
|      24 | 0x0411      |        1041 |
|      25 | 0x03EE      |        1006 |
|      26 | 0x03EF      |        1007 |
|      27 | 0x03F0      |        1008 |
|      28 | 0x0414      |        1044 |
|      29 | 0x00AD      |         173 |
|      30 | 0x0116      |         278 |
|      31 | 0x01A4      |         420 |
|      32 | 0x1E9B      |        7835 |
|      33 | 0x1E9C      |        7836 |
|      34 | 0x1E9D      |        7837 |
|      35 | 0x1E9E      |        7838 |
|      36 | 0x1E9F      |        7839 |
|      37 | 0x1EA0      |        7840 |
|      38 | 0x1F7A      |        8058 |
|      39 | 0x1EA1      |        7841 |
|      40 | 0x1EA2      |        7842 |
|      41 | 0x0330      |         816 |
|      42 | 0x1EA3      |        7843 |
|      43 | 0x1EA4      |        7844 |
|      44 | 0x1EA5      |        7845 |
|      45 | 0x1EA6      |        7846 |
|      46 | 0x00EE      |         238 |
|      47 | 0x0014      |          20 |
|      48 | 0x1EA7      |        7847 |
|      49 | 0x1EA8      |        7848 |
|      50 | 0x1EA9      |        7849 |
|      51 | 0x1EAA      |        7850 |
|      52 | 0x1EAB      |        7851 |
|      53 | 0x1EAC      |        7852 |
|      54 | 0x1EAD      |        7853 |
|      55 | 0x1EAE      |        7854 |
|      56 | 0x1EAF      |        7855 |
|      57 | 0x1EB0      |        7856 |
|      58 | 0x1EB1      |        7857 |
|      59 | 0x0383      |         899 |
|      60 | 0x1EB2      |        7858 |
|      61 | 0x1EB3      |        7859 |
|      62 | 0x1EB4      |        7860 |
|      63 | 0x1EB5      |        7861 |
|      64 | 0x1EB6      |        7862 |
|      65 | 0x1EB7      |        7863 |
|      66 | 0x1EB8      |        7864 |
|      67 | 0x0078      |         120 |
|      68 | 0x1EB9      |        7865 |
|      69 | 0x1EBA      |        7866 |
|      70 | 0x0094      |         148 |
|      71 | 0x1EBB      |        7867 |
|      72 | 0x1EBC      |        7868 |
|      73 | 0x1EBD      |        7869 |
|      74 | 0x1EBE      |        7870 |
|      75 | 0x1EBF      |        7871 |
|      76 | 0x1EC0      |        7872 |
|      77 | 0x03D6      |         982 |
|      78 | 0x1EC1      |        7873 |
|      79 | 0x1EC2      |        7874 |
|      80 | 0x033C      |         828 |
|      81 | 0x1EC3      |        7875 |
|      82 | 0x1EC4      |        7876 |
|      83 | 0x00FE      |         254 |
|      84 | 0x1EC5      |        7877 |
|      85 | 0x1EC6      |        7878 |
|      86 | 0x1EC7      |        7879 |
|      87 | 0x1EC8      |        7880 |
|      88 | 0x1EC9      |        7881 |
|      89 | 0x1ECA      |        7882 |
|      90 | 0x1ECB      |        7883 |
|      91 | 0x1ECC      |        7884 |
|      92 | 0x1ECD      |        7885 |
|      93 | 0x1ECE      |        7886 |
|      94 | 0x1ECF      |        7887 |
|      95 | 0x1ED0      |        7888 |
|      96 | 0x1ED1      |        7889 |
|      97 | 0x1ED2      |        7890 |
|      98 | 0x0318      |         792 |
|      99 | 0x1ED3      |        7891 |
|     100 | 0x1ED4      |        7892 |
|     101 | 0x1ED5      |        7893 |
|     102 | 0x1ED6      |        7894 |
|     103 | 0x1ED7      |        7895 |
|     104 | 0x1ED8      |        7896 |
|     105 | 0x1ED9      |        7897 |
|     106 | 0x1EDA      |        7898 |
|     107 | 0x1EDB      |        7899 |
|     108 | 0x1EDC      |        7900 |
|     109 | 0x1EDD      |        7901 |
|     110 | 0x1EDE      |        7902 |
|     111 | 0x1EDF      |        7903 |
|     112 | 0x1EE0      |        7904 |
|     113 | 0x1EE1      |        7905 |
|     114 | 0x1EE2      |        7906 |
|     115 | 0x1EE3      |        7907 |
|     116 | 0x1EE4      |        7908 |
|     117 | 0x1EE5      |        7909 |
|     118 | 0x1EE6      |        7910 |
|     119 | 0x1EE7      |        7911 |
|     120 | 0x1EE8      |        7912 |
|     121 | 0x1EE9      |        7913 |
|     122 | 0x1EEA      |        7914 |
|     123 | 0x1EEB      |        7915 |
|     124 | 0x1EEC      |        7916 |
|     125 | 0x1EED      |        7917 |
|     126 | 0x1EEE      |        7918 |
|     127 | 0x1EEF      |        7919 |
|     128 | 0x1EF0      |        7920 |
|     129 | 0x1EF1      |        7921 |
|     130 | 0x1EF2      |        7922 |
|     131 | 0x003C      |          60 |
|     132 | 0x03CD      |         973 |
|     133 | 0x0154      |         340 |
|     134 | 0x00AA      |         170 |
|     135 | 0x00A3      |         163 |
|     136 | 0x1EF3      |        7923 |
|     137 | 0x1EF4      |        7924 |
|     138 | 0x0016      |          22 |
|     139 | 0x1EF5      |        7925 |
|     140 | 0x0140      |         320 |
|     141 | 0x1EF6      |        7926 |
|     142 | 0x012C      |         300 |
|     143 | 0x003E      |          62 |
|     144 | 0x003D      |          61 |
|     145 | 0x035F      |         863 |
|     146 | 0x03B2      |         946 |
|     147 | 0x03A5      |         933 |
|     148 | 0x00A1      |         161 |
|     149 | 0x1EF7      |        7927 |
|     150 | 0x1EF8      |        7928 |
|     151 | 0x1EF9      |        7929 |
|     152 | 0x1EFA      |        7930 |
|     153 | 0x1EFB      |        7931 |
|     154 | 0x1EFC      |        7932 |
|     155 | 0x0001      |           1 |
|     156 | 0x1EFD      |        7933 |
|     157 | 0x1EFE      |        7934 |
|     158 | 0x1EFF      |        7935 |
|     159 | 0x00AC      |         172 |
|     160 | 0x1F00      |        7936 |
|     161 | 0x1F01      |        7937 |
|     162 | 0x1F02      |        7938 |
|     163 | 0x1F03      |        7939 |
|     164 | 0x1F04      |        7940 |
|     165 | 0x1F05      |        7941 |
|     166 | 0x1F06      |        7942 |
|     167 | 0x1F07      |        7943 |
|     168 | 0x1F09      |        7945 |
|     169 | 0x1F0A      |        7946 |
|     170 | 0x1F0B      |        7947 |
|     171 | 0x1F0C      |        7948 |
|     172 | 0x03AC      |         940 |
|     173 | 0x01F0      |         496 |
|     174 | 0x1F0D      |        7949 |
|     175 | 0x008F      |         143 |
|     176 | 0x0006      |           6 |
|     177 | 0x0096      |         150 |
|     178 | 0x010E      |         270 |
|     179 | 0x002E      |          46 |
|     180 | 0x1F10      |        7952 |
|     181 | 0x00B4      |         180 |
|     182 | 0x009B      |         155 |
|     183 | 0x03D9      |         985 |
|     184 | 0x0087      |         135 |
|     185 | 0x1F11      |        7953 |
|     186 | 0x0204      |         516 |
|     187 | 0x00F0      |         240 |
|     188 | 0x1F12      |        7954 |
|     189 | 0x03DA      |         986 |
|     190 | 0x003F      |          63 |
|     191 | 0x03C2      |         962 |
|     192 | 0x1F13      |        7955 |
|     193 | 0x1F14      |        7956 |
|     194 | 0x007C      |         124 |
|     195 | 0x1F15      |        7957 |
|     196 | 0x03DB      |         987 |
|     197 | 0x0134      |         308 |
|     198 | 0x1F16      |        7958 |
|     199 | 0x1F17      |        7959 |
|     200 | 0x00D2      |         210 |
|     201 | 0x1F19      |        7961 |
|     202 | 0x3A285     |      238213 |
|     203 | 0x3ABAA     |      240554 |
|     204 | 0xFFFF84F4  |  4294935796 |
|     205 | 0x0E2C      |        3628 |
|     206 | 0x1E2A      |        7722 |
|     207 | 0x1E2B      |        7723 |
|     208 | 0x1E2C      |        7724 |
|     209 | 0x1E2D      |        7725 |
|     210 | 0x1E2E      |        7726 |
|     211 | 0x00AE      |         174 |
|     212 | 0x0009      |           9 |
|     213 | 0x1E2F      |        7727 |
|     214 | 0x1E30      |        7728 |
|     215 | 0x1E31      |        7729 |
|     216 | 0x1E32      |        7730 |
|     217 | 0x1E33      |        7731 |
|     218 | 0x00C9      |         201 |
|     219 | 0x0002      |           2 |
|     220 | 0x00D7      |         215 |

## String References

- **8058**: @@

## Events

### Event 65535

#### Metadata

| Field        | Value   |
|--------------|---------|
| Entrypoint   | 0x0000  |
| Data Size    | 1 bytes |
| Instructions | 1       |

```
      00 01 02 03 04 05 06 07  08 09 0A 0B 0C 0D 0E 0F
      -- -- -- -- -- -- -- --  -- -- -- -- -- -- -- --
0000: 00                                                .               
```

#### Opcodes

```
  0: 0x0000 [0x00] END_REQSTACK()
```

### Event 2

#### Metadata

| Field        | Value     |
|--------------|-----------|
| Entrypoint   | 0x0001    |
| Data Size    | 300 bytes |
| Instructions | 45        |

```
      00 01 02 03 04 05 06 07  08 09 0A 0B 0C 0D 0E 0F
      -- -- -- -- -- -- -- --  -- -- -- -- -- -- -- --
0000:    42 1A F4 27 46 01 38  00 80 79 00 F0 FF FF 7F   B..'F.8..y.....
0010: F0 FF FF 7F 4E 00 F0 FF  FF 7F 29 10 D5 30 04 01  ....N.....)..0..
0020: 04 92 01 D5 30 04 01 94  01 F0 FF FF 7F 94 01 D5  ....0...........
0030: 30 04 01 29 10 F0 FF FF  7F 07 29 10 D5 30 04 01  0..)......)..0..
0040: 0E 80 F0 FF FF 7F 80 D5  30 04 01 1C 01 80 4A F0  ........0.....J.
0050: FF FF 7F D5 30 04 01 5B  02 80 D5 30 04 01 D5 30  ....0..[...0...0
0060: 04 01 73 74 61 6C 53 D5  30 04 01 D5 30 04 01 73  ..stalS.0...0..s
0070: 74 61 6C 45 03 80 F0 FF  FF 7F F0 FF FF 7F 67 61  talE..........ga
0080: 30 30 04 80 1C 01 80 1A  D3 27 55 03 80 F0 FF FF  00.......'U.....
0090: 7F F0 FF FF 7F 67 61 30  30 45 03 80 F0 FF FF 7F  .....ga00E......
00A0: F0 FF FF 7F 67 61 30 31  04 80 03 02 10 05 80 2B  ....ga01.......+
00B0: D5 30 04 01 06 80 23 6E  F0 FF FF 7F 07 80 99 F0  .0....#n........
00C0: FF FF 7F 99 F0 FF FF 7F  1C 08 80 27 10 D5 30 04  ...........'..0.
00D0: 01 0F 1C 01 80 52 03 80  F0 FF FF 7F F0 FF FF 7F  .....R..........
00E0: 67 61 30 31 45 03 80 F0  FF FF 7F F0 FF FF 7F 67  ga01E..........g
00F0: 61 30 32 04 80 1C 09 80  1A F4 27 1C 0A 80 45 03  a02.......'...E.
0100: 80 F0 FF FF 7F F0 FF FF  7F 67 61 30 32 04 80 5C  .........ga02..\
0110: 00 04 80 5C 01 04 80 9A  46 00 45 0B 80 F0 FF FF  ...\....F.E.....
0120: 7F F0 FF FF 7F 66 64 69  32 04 80 21 00           .....fdi2..!.   
```

#### Opcodes

```
  0: 0x0001 [0x42] SET_CLI_EVENT_CANCEL_DATA()
  1: 0x0002 [0x1A] CALL_SUBROUTINE(address=0x27F4)
  2: 0x0005 [0x46] CAMERA_CONTROL: Disable user control
  3: 0x0007 [0x38] SET_CLIENT_EVENT_MODE(mode=19*)
  4: 0x000A [0x79] LocalPlayer looks at LocalPlayer (Basic look)
  5: 0x0014 [0x4E] SET_ENTITY_HIDE_FLAG: Show LocalPlayer
  6: 0x001A [0x29] REQ_SET_WAIT(priority=0x10, entity_id=Raubahn (ID: 17051861/0x010430D5), tag_num=0x04)
  7: 0x0021 [0x92] Raubahn (ID: 17051861/0x010430D5)->Render.Flags3 ^= 0x01
  8: 0x0027 [0x94] LocalPlayer->Render.Flags3 ^= 0x01
  9: 0x002D [0x94] Raubahn (ID: 17051861/0x010430D5)->Render.Flags3 ^= 0x01
 10: 0x0033 [0x29] REQ_SET_WAIT(priority=0x10, entity_id=LocalPlayer, tag_num=0x07)
 11: 0x003A [0x29] REQ_SET_WAIT(priority=0x10, entity_id=Raubahn (ID: 17051861/0x010430D5), tag_num=0x0E)
 12: 0x0041 [0x80] LOAD_WAIT(entity=LocalPlayer)
 13: 0x0046 [0x80] LOAD_WAIT(entity=Raubahn (ID: 17051861/0x010430D5))
 14: 0x004B [0x1C] WAIT(15* ticks)
 15: 0x004E [0x4A] LocalPlayer looks at Raubahn (ID: 17051861/0x010430D5)
 16: 0x0057 [0x5B] LOAD_EXT_SCHEDULER: Load scheduler "stal" with entities [Raubahn (ID: 17051861/0x010430D5), Raubahn (ID: 17051861/0x010430D5)], work=837*
 17: 0x0066 [0x53] WAIT_SCHEDULER_TASK: Wait for scheduler "stal" with entities [Raubahn (ID: 17051861/0x010430D5), Raubahn (ID: 17051861/0x010430D5)]
 18: 0x0073 [0x45] LOAD_SCHEDULED_TASK: Load scheduler "ga00" with entities [LocalPlayer, LocalPlayer], work=[273*, 0*]
 19: 0x0084 [0x1C] WAIT(15* ticks)
 20: 0x0087 [0x1A] CALL_SUBROUTINE(address=0x27D3)
 21: 0x008A [0x55] WAIT_LOAD_SCHEDULER: Wait for scheduler "ga00" with entities [LocalPlayer, LocalPlayer], work=273*
 22: 0x0099 [0x45] LOAD_SCHEDULED_TASK: Load scheduler "ga01" with entities [LocalPlayer, LocalPlayer], work=[273*, 0*]
 23: 0x00AA [0x03] Work_Zone[2] = 2331*
 24: 0x00AF [0x2B] Raubahn (ID: 17051861/0x010430D5) [7707*]:
    → "I will enter first. Use the $0 and follow when you are ready."
 25: 0x00B6 [0x23] WAIT_FOR_DIALOG_INTERACTION
 26: 0x00B7 [0x6E] LocalPlayer uses emote 7*
 27: 0x00BE [0x99] Wait for LocalPlayer animation to complete
 28: 0x00C3 [0x99] Wait for LocalPlayer animation to complete
 29: 0x00C8 [0x1C] WAIT(45* ticks)
 30: 0x00CB [0x27] REQ_SET(priority=0x10, entity_id=Raubahn (ID: 17051861/0x010430D5), tag_num=0x0F)
 31: 0x00D2 [0x1C] WAIT(15* ticks)
 32: 0x00D5 [0x52] END_LOAD_SCHEDULER: End scheduler "ga01" with entities [LocalPlayer, LocalPlayer], work=273*
 33: 0x00E4 [0x45] LOAD_SCHEDULED_TASK: Load scheduler "ga02" with entities [LocalPlayer, LocalPlayer], work=[273*, 0*]
 34: 0x00F5 [0x1C] WAIT(90* ticks)
 35: 0x00F8 [0x1A] CALL_SUBROUTINE(address=0x27F4)
 36: 0x00FB [0x1C] WAIT(30* ticks)
 37: 0x00FE [0x45] LOAD_SCHEDULED_TASK: Load scheduler "ga02" with entities [LocalPlayer, LocalPlayer], work=[273*, 0*]
 38: 0x010F [0x5C] MUSIC_CONTROL: Set Idle (Day) music to song 0*
 39: 0x0113 [0x5C] MUSIC_CONTROL: Set Idle (Night) music to song 0*
 40: 0x0117 [0x9A] WAIT_MUSIC_SERVER()
 41: 0x0118 [0x46] CAMERA_CONTROL: Restore default settings
 42: 0x011A [0x45] LOAD_SCHEDULED_TASK: Load scheduler "fdi2" with entities [LocalPlayer, LocalPlayer], work=[200*, 0*]
 43: 0x012B [0x21] END_EVENT
 44: 0x012C [0x00] END_REQSTACK()
```

### Event 4

#### Metadata

| Field        | Value      |
|--------------|------------|
| Entrypoint   | 0x012D     |
| Data Size    | 9112 bytes |
| Instructions | 952        |

```
      00 01 02 03 04 05 06 07  08 09 0A 0B 0C 0D 0E 0F
      -- -- -- -- -- -- -- --  -- -- -- -- -- -- -- --
0120:                                         42 1A F4               B..
0130: 27 46 01 38 00 80 79 00  F0 FF FF 7F F0 FF FF 7F  'F.8..y.........
0140: 27 10 EC 30 04 01 04 27  10 ED 30 04 01 04 27 10  '..0...'..0...'.
0150: FB 30 04 01 02 27 10 EE  30 04 01 04 27 10 EF 30  .0...'..0...'..0
0160: 04 01 04 27 10 F0 30 04  01 04 27 10 F1 30 04 01  ...'..0...'..0..
0170: 04 27 10 F2 30 04 01 04  27 10 F3 30 04 01 04 27  .'..0...'..0...'
0180: 10 F4 30 04 01 04 27 10  F5 30 04 01 04 27 10 FA  ..0...'..0...'..
0190: 30 04 01 04 27 10 1A 31  04 01 02 92 01 EC 30 04  0...'..1......0.
01A0: 01 92 01 ED 30 04 01 92  01 FB 30 04 01 92 01 EE  ....0.....0.....
01B0: 30 04 01 92 01 EF 30 04  01 92 01 F0 30 04 01 92  0.....0.....0...
01C0: 01 F1 30 04 01 92 01 F2  30 04 01 92 01 F3 30 04  ..0.....0.....0.
01D0: 01 92 01 F4 30 04 01 92  01 F5 30 04 01 92 01 FA  ....0.....0.....
01E0: 30 04 01 92 01 1A 31 04  01 94 01 F0 FF FF 7F 94  0.....1.........
01F0: 01 EC 30 04 01 94 01 ED  30 04 01 94 01 FB 30 04  ..0.....0.....0.
0200: 01 94 01 EE 30 04 01 94  01 EF 30 04 01 94 01 F0  ....0.....0.....
0210: 30 04 01 94 01 F1 30 04  01 94 01 F2 30 04 01 94  0.....0.....0...
0220: 01 F3 30 04 01 94 01 F4  30 04 01 94 01 F5 30 04  ..0.....0.....0.
0230: 01 94 01 FA 30 04 01 94  01 1A 31 04 01 29 10 F0  ....0.....1..)..
0240: FF FF 7F 0C 29 10 EC 30  04 01 0C 29 10 ED 30 04  ....)..0...)..0.
0250: 01 0C 29 10 FB 30 04 01  09 29 10 EE 30 04 01 0C  ..)..0...)..0...
0260: 29 10 EF 30 04 01 0D 29  10 F0 30 04 01 09 29 10  )..0...)..0...).
0270: F1 30 04 01 09 29 10 F2  30 04 01 0B 29 10 F3 30  .0...)..0...)..0
0280: 04 01 09 29 10 F4 30 04  01 09 29 10 F5 30 04 01  ...)..0...)..0..
0290: 09 29 10 FA 30 04 01 0C  29 10 1A 31 04 01 0A 80  .)..0...)..1....
02A0: F0 FF FF 7F 80 EC 30 04  01 80 ED 30 04 01 80 FB  ......0....0....
02B0: 30 04 01 80 EE 30 04 01  80 EF 30 04 01 80 F0 30  0....0....0....0
02C0: 04 01 80 F1 30 04 01 80  F2 30 04 01 80 F3 30 04  ....0....0....0.
02D0: 01 80 F4 30 04 01 80 F5  30 04 01 80 FA 30 04 01  ...0....0....0..
02E0: 80 1A 31 04 01 1C 01 80  5B 0C 80 F0 30 04 01 F0  ..1.....[...0...
02F0: 30 04 01 68 69 30 30 5B  0D 80 F4 30 04 01 F4 30  0..hi00[...0...0
0300: 04 01 68 69 30 30 5B 0E  80 F5 30 04 01 F5 30 04  ..hi00[...0...0.
0310: 01 68 69 30 30 5B 0F 80  F2 30 04 01 F2 30 04 01  .hi00[...0...0..
0320: 72 79 30 30 5B 10 80 ED  30 04 01 ED 30 04 01 72  ry00[...0...0..r
0330: 79 30 30 5B 11 80 FA 30  04 01 FA 30 04 01 68 69  y00[...0...0..hi
0340: 61 30 5B 12 80 EC 30 04  01 EC 30 04 01 68 69 30  a0[...0...0..hi0
0350: 30 5B 13 80 EF 30 04 01  EF 30 04 01 68 69 30 30  0[...0...0..hi00
0360: 5B 14 80 EE 30 04 01 EE  30 04 01 68 69 30 30 5B  [...0...0..hi00[
0370: 15 80 1A 31 04 01 1A 31  04 01 68 69 6C 32 29 10  ...1...1..hil2).
0380: F0 FF FF 7F 14 5B 15 80  F2 30 04 01 F2 30 04 01  .....[...0...0..
0390: 00 FE FE FE 5B 16 80 F2  30 04 01 F2 30 04 01 00  ....[...0...0...
03A0: FE FE FE 5B 17 80 F2 30  04 01 F2 30 04 01 00 FE  ...[...0...0....
03B0: FE FE 5B 18 80 F2 30 04  01 F2 30 04 01 00 FE FE  ..[...0...0.....
03C0: FE 5B 19 80 FA 30 04 01  FA 30 04 01 00 FE FE FE  .[...0...0......
03D0: 5B 1A 80 FA 30 04 01 FA  30 04 01 00 FE FE FE 5B  [...0...0......[
03E0: 1B 80 FA 30 04 01 FA 30  04 01 00 FE FE FE 5B 1C  ...0...0......[.
03F0: 80 FA 30 04 01 FA 30 04  01 00 FE FE FE 5B 15 80  ..0...0......[..
0400: 1A 31 04 01 1A 31 04 01  00 FE FE FE 5B 16 80 1A  .1...1......[...
0410: 31 04 01 1A 31 04 01 00  FE FE FE 5B 17 80 1A 31  1...1......[...1
0420: 04 01 1A 31 04 01 00 FE  FE FE 5B 18 80 1A 31 04  ...1......[...1.
0430: 01 1A 31 04 01 00 FE FE  FE 5C 00 1D 80 5C 01 1D  ..1......\...\..
0440: 80 9A 45 1E 80 F0 FF FF  7F F0 FF FF 7F 68 69 30  ..E..........hi0
0450: 30 04 80 1C 01 80 1A D3  27 1A C4 24 1C 1F 80 7C  0.......'..$...|
0460: 00 EF 30 04 01 2B EF 30  04 01 20 80 23 7C 01 EF  ..0..+.0.. .#|..
0470: 30 04 01 52 1E 80 F0 FF  FF 7F F0 FF FF 7F 68 69  0..R..........hi
0480: 30 30 45 1E 80 F0 FF FF  7F F0 FF FF 7F 68 69 30  00E..........hi0
0490: 33 04 80 1C 08 80 2B EF  30 04 01 21 80 23 52 1E  3.....+.0..!.#R.
04A0: 80 F0 FF FF 7F F0 FF FF  7F 68 69 30 33 45 1E 80  .........hi03E..
04B0: F0 FF FF 7F F0 FF FF 7F  68 69 30 34 04 80 2B EC  ........hi04..+.
04C0: 30 04 01 22 80 23 2B EF  30 04 01 23 80 23 52 1E  0..".#+.0..#.#R.
04D0: 80 F0 FF FF 7F F0 FF FF  7F 68 69 30 34 45 1E 80  .........hi04E..
04E0: F0 FF FF 7F F0 FF FF 7F  68 69 30 35 04 80 2B EE  ........hi05..+.
04F0: 30 04 01 24 80 23 52 1E  80 F0 FF FF 7F F0 FF FF  0..$.#R.........
0500: 7F 68 69 30 35 45 1E 80  F0 FF FF 7F F0 FF FF 7F  .hi05E..........
0510: 68 69 30 36 04 80 2B EF  30 04 01 25 80 23 1A F4  hi06..+.0..%.#..
0520: 27 1C 0A 80 52 1E 80 F0  FF FF 7F F0 FF FF 7F 68  '...R..........h
0530: 69 30 36 45 1E 80 F0 FF  FF 7F F0 FF FF 7F 30 62  i06E..........0b
0540: 6C 66 04 80 48 26 80 23  45 1E 80 F0 FF FF 7F F0  lf..H&.#E.......
0550: FF FF 7F 68 69 30 37 04  80 1C 01 80 1A D3 27 55  ...hi07.......'U
0560: 1E 80 F0 FF FF 7F F0 FF  FF 7F 68 69 30 37 45 1E  ..........hi07E.
0570: 80 F0 FF FF 7F F0 FF FF  7F 30 74 30 30 04 80 55  .........0t00..U
0580: 1E 80 F0 FF FF 7F F0 FF  FF 7F 30 74 30 30 45 1E  ..........0t00E.
0590: 80 F0 FF FF 7F F0 FF FF  7F 68 69 30 38 04 80 2B  .........hi08..+
05A0: F5 30 04 01 27 80 23 52  1E 80 F0 FF FF 7F F0 FF  .0..'.#R........
05B0: FF 7F 68 69 30 38 45 1E  80 F0 FF FF 7F F0 FF FF  ..hi08E.........
05C0: 7F 68 69 30 39 04 80 5B  0D 80 F4 30 04 01 F4 30  .hi09..[...0...0
05D0: 04 01 68 69 30 31 2B F4  30 04 01 28 80 23 5B 0D  ..hi01+.0..(.#[.
05E0: 80 F4 30 04 01 F4 30 04  01 68 69 30 32 52 1E 80  ..0...0..hi02R..
05F0: F0 FF FF 7F F0 FF FF 7F  68 69 30 39 45 1E 80 F0  ........hi09E...
0600: FF FF 7F F0 FF FF 7F 68  69 31 30 04 80 5B 29 80  .......hi10..[).
0610: F3 30 04 01 F3 30 04 01  74 68 6B 30 2B F3 30 04  .0...0..thk0+.0.
0620: 01 2A 80 23 2B F3 30 04  01 2B 80 23 5B 29 80 F3  .*.#+.0..+.#[)..
0630: 30 04 01 F3 30 04 01 74  68 6B 31 1C 01 80 52 1E  0...0..thk1...R.
0640: 80 F0 FF FF 7F F0 FF FF  7F 68 69 31 30 45 1E 80  .........hi10E..
0650: F0 FF FF 7F F0 FF FF 7F  68 69 31 31 04 80 2B F3  ........hi11..+.
0660: 30 04 01 2C 80 23 5B 0F  80 F2 30 04 01 F2 30 04  0..,.#[...0...0.
0670: 01 72 79 30 31 5B 10 80  ED 30 04 01 ED 30 04 01  .ry01[...0...0..
0680: 72 79 30 31 45 1E 80 F0  FF FF 7F F0 FF FF 7F 30  ry01E..........0
0690: 30 73 65 04 80 1C 0A 80  52 1E 80 F0 FF FF 7F F0  0se.....R.......
06A0: FF FF 7F 68 69 31 31 45  1E 80 F0 FF FF 7F F0 FF  ...hi11E........
06B0: FF 7F 68 69 31 32 04 80  5B 13 80 EF 30 04 01 EF  ..hi12..[...0...
06C0: 30 04 01 00 FE FE FE 5B  12 80 EC 30 04 01 EC 30  0......[...0...0
06D0: 04 01 00 FE FE FE 2B F2  30 04 01 2D 80 23 53 ED  ......+.0..-.#S.
06E0: 30 04 01 ED 30 04 01 72  79 30 31 5B 13 80 EF 30  0...0..ry01[...0
06F0: 04 01 EF 30 04 01 68 69  30 31 5B 12 80 EC 30 04  ...0..hi01[...0.
0700: 01 EC 30 04 01 68 69 30  31 03 02 10 2E 80 27 10  ..0..hi01.....'.
0710: D3 30 04 01 08 52 1E 80  F0 FF FF 7F F0 FF FF 7F  .0...R..........
0720: 68 69 31 32 45 1E 80 F0  FF FF 7F F0 FF FF 7F 68  hi12E..........h
0730: 69 31 33 04 80 1C 2F 80  7C 00 EC 30 04 01 2B EC  i13.../.|..0..+.
0740: 30 04 01 30 80 23 2A 10  D3 30 04 01 7C 01 EC 30  0..0.#*..0..|..0
0750: 04 01 52 1E 80 F0 FF FF  7F F0 FF FF 7F 68 69 31  ..R..........hi1
0760: 33 45 1E 80 F0 FF FF 7F  F0 FF FF 7F 68 69 31 35  3E..........hi15
0770: 04 80 2B EE 30 04 01 31  80 23 53 EC 30 04 01 EC  ..+.0..1.#S.0...
0780: 30 04 01 68 69 30 31 52  1E 80 F0 FF FF 7F F0 FF  0..hi01R........
0790: FF 7F 68 69 31 35 45 1E  80 F0 FF FF 7F F0 FF FF  ..hi15E.........
07A0: 7F 68 69 31 36 04 80 2B  F2 30 04 01 32 80 23 52  .hi16..+.0..2.#R
07B0: 1E 80 F0 FF FF 7F F0 FF  FF 7F 68 69 31 36 45 1E  ..........hi16E.
07C0: 80 F0 FF FF 7F F0 FF FF  7F 68 69 31 37 04 80 5B  .........hi17..[
07D0: 0F 80 F2 30 04 01 F2 30  04 01 72 79 30 30 5B 10  ...0...0..ry00[.
07E0: 80 ED 30 04 01 ED 30 04  01 72 79 30 30 5B 0C 80  ..0...0..ry00[..
07F0: F0 30 04 01 F0 30 04 01  68 69 30 31 2B D3 30 04  .0...0..hi01+.0.
0800: 01 33 80 23 52 1E 80 F0  FF FF 7F F0 FF FF 7F 68  .3.#R..........h
0810: 69 31 37 45 1E 80 F0 FF  FF 7F F0 FF FF 7F 68 69  i17E..........hi
0820: 31 38 04 80 2B F2 30 04  01 34 80 23 5B 0C 80 F0  18..+.0..4.#[...
0830: 30 04 01 F0 30 04 01 68  69 30 32 52 1E 80 F0 FF  0...0..hi02R....
0840: FF 7F F0 FF FF 7F 68 69  31 38 45 1E 80 F0 FF FF  ......hi18E.....
0850: 7F F0 FF FF 7F 68 69 31  39 04 80 1C 0A 80 27 10  .....hi19.....'.
0860: F0 FF FF 7F 15 2B D3 30  04 01 35 80 23 52 1E 80  .....+.0..5.#R..
0870: F0 FF FF 7F F0 FF FF 7F  68 69 31 39 45 1E 80 F0  ........hi19E...
0880: FF FF 7F F0 FF FF 7F 68  69 32 30 04 80 2B F5 30  .......hi20..+.0
0890: 04 01 36 80 23 52 1E 80  F0 FF FF 7F F0 FF FF 7F  ..6.#R..........
08A0: 68 69 32 30 45 1E 80 F0  FF FF 7F F0 FF FF 7F 68  hi20E..........h
08B0: 69 32 31 04 80 5B 0E 80  F5 30 04 01 F5 30 04 01  i21..[...0...0..
08C0: 68 69 30 31 1C 08 80 2B  F5 30 04 01 37 80 23 52  hi01...+.0..7.#R
08D0: 1E 80 F0 FF FF 7F F0 FF  FF 7F 68 69 32 31 45 1E  ..........hi21E.
08E0: 80 F0 FF FF 7F F0 FF FF  7F 68 69 32 32 04 80 2B  .........hi22..+
08F0: F5 30 04 01 38 80 23 2B  F1 30 04 01 39 80 23 5B  .0..8.#+.0..9.#[
0900: 29 80 F3 30 04 01 F3 30  04 01 6F 73 62 30 1C 01  )..0...0..osb0..
0910: 80 52 1E 80 F0 FF FF 7F  F0 FF FF 7F 68 69 32 32  .R..........hi22
0920: 45 1E 80 F0 FF FF 7F F0  FF FF 7F 68 69 32 33 04  E..........hi23.
0930: 80 5B 0E 80 F5 30 04 01  F5 30 04 01 68 69 30 32  .[...0...0..hi02
0940: 2B F5 30 04 01 3A 80 23  52 1E 80 F0 FF FF 7F F0  +.0..:.#R.......
0950: FF FF 7F 68 69 32 33 45  1E 80 F0 FF FF 7F F0 FF  ...hi23E........
0960: FF 7F 68 69 32 34 04 80  5B 3B 80 F1 30 04 01 F1  ..hi24..[;..0...
0970: 30 04 01 74 6C 66 30 2B  F1 30 04 01 3C 80 23 2B  0..tlf0+.0..<.#+
0980: F1 30 04 01 3D 80 23 5B  3B 80 F1 30 04 01 F1 30  .0..=.#[;..0...0
0990: 04 01 74 6C 66 31 52 1E  80 F0 FF FF 7F F0 FF FF  ..tlf1R.........
09A0: 7F 68 69 32 34 45 1E 80  F0 FF FF 7F F0 FF FF 7F  .hi24E..........
09B0: 68 69 32 35 04 80 2B F3  30 04 01 3E 80 23 52 1E  hi25..+.0..>.#R.
09C0: 80 F0 FF FF 7F F0 FF FF  7F 68 69 32 35 45 1E 80  .........hi25E..
09D0: F0 FF FF 7F F0 FF FF 7F  68 69 32 36 04 80 5B 3B  ........hi26..[;
09E0: 80 F1 30 04 01 F1 30 04  01 74 6C 6D 30 2B F1 30  ..0...0..tlm0+.0
09F0: 04 01 3F 80 23 2B F1 30  04 01 40 80 23 5B 3B 80  ..?.#+.0..@.#[;.
0A00: F1 30 04 01 F1 30 04 01  74 6C 6D 31 52 1E 80 F0  .0...0..tlm1R...
0A10: FF FF 7F F0 FF FF 7F 68  69 32 36 45 1E 80 F0 FF  .......hi26E....
0A20: FF 7F F0 FF FF 7F 68 69  32 37 04 80 2B F3 30 04  ......hi27..+.0.
0A30: 01 41 80 23 52 1E 80 F0  FF FF 7F F0 FF FF 7F 68  .A.#R..........h
0A40: 69 32 37 45 1E 80 F0 FF  FF 7F F0 FF FF 7F 68 69  i27E..........hi
0A50: 32 38 04 80 5B 3B 80 F1  30 04 01 F1 30 04 01 74  28..[;..0...0..t
0A60: 6C 66 30 2B F1 30 04 01  42 80 23 5B 3B 80 F1 30  lf0+.0..B.#[;..0
0A70: 04 01 F1 30 04 01 74 6C  66 31 52 1E 80 F0 FF FF  ...0..tlf1R.....
0A80: 7F F0 FF FF 7F 68 69 32  38 45 1E 80 F0 FF FF 7F  .....hi28E......
0A90: F0 FF FF 7F 68 69 32 39  04 80 5B 0E 80 F5 30 04  ....hi29..[...0.
0AA0: 01 F5 30 04 01 68 69 30  30 5B 29 80 F3 30 04 01  ..0..hi00[)..0..
0AB0: F3 30 04 01 6F 73 62 31  5B 0C 80 F0 30 04 01 F0  .0..osb1[...0...
0AC0: 30 04 01 68 69 30 31 5D  04 80 43 80 2B F0 30 04  0..hi01]..C.+.0.
0AD0: 01 44 80 23 5B 0C 80 F0  30 04 01 F0 30 04 01 68  .D.#[...0...0..h
0AE0: 69 30 32 2B F0 30 04 01  45 80 23 5C 00 46 80 5C  i02+.0..E.#\.F.\
0AF0: 01 46 80 9A 53 F0 30 04  01 F0 30 04 01 68 69 30  .F..S.0...0..hi0
0B00: 32 5B 0C 80 F0 30 04 01  F0 30 04 01 68 69 30 33  2[...0...0..hi03
0B10: 52 1E 80 F0 FF FF 7F F0  FF FF 7F 68 69 32 39 45  R..........hi29E
0B20: 1E 80 F0 FF FF 7F F0 FF  FF 7F 68 69 33 30 04 80  ..........hi30..
0B30: 2B F0 30 04 01 47 80 23  2B F0 30 04 01 48 80 23  +.0..G.#+.0..H.#
0B40: 5B 0C 80 F0 30 04 01 F0  30 04 01 68 69 30 35 52  [...0...0..hi05R
0B50: 1E 80 F0 FF FF 7F F0 FF  FF 7F 68 69 33 30 45 1E  ..........hi30E.
0B60: 80 F0 FF FF 7F F0 FF FF  7F 68 69 33 31 04 80 5B  .........hi31..[
0B70: 3B 80 F1 30 04 01 F1 30  04 01 74 6C 66 30 2B F1  ;..0...0..tlf0+.
0B80: 30 04 01 49 80 23 2B F1  30 04 01 4A 80 23 5B 3B  0..I.#+.0..J.#[;
0B90: 80 F1 30 04 01 F1 30 04  01 74 6C 66 31 52 1E 80  ..0...0..tlf1R..
0BA0: F0 FF FF 7F F0 FF FF 7F  68 69 33 31 45 1E 80 F0  ........hi31E...
0BB0: FF FF 7F F0 FF FF 7F 68  69 33 32 04 80 5B 0C 80  .......hi32..[..
0BC0: F0 30 04 01 F0 30 04 01  68 69 30 34 2B F0 30 04  .0...0..hi04+.0.
0BD0: 01 4B 80 23 53 F0 30 04  01 F0 30 04 01 68 69 30  .K.#S.0...0..hi0
0BE0: 34 5B 0C 80 F0 30 04 01  F0 30 04 01 68 69 30 31  4[...0...0..hi01
0BF0: 2B F0 30 04 01 4C 80 23  52 1E 80 F0 FF FF 7F F0  +.0..L.#R.......
0C00: FF FF 7F 68 69 33 32 45  1E 80 F0 FF FF 7F F0 FF  ...hi32E........
0C10: FF 7F 68 69 33 33 04 80  6B 69 64 6C 30 F0 30 04  ..hi33..kidl0.0.
0C20: 01 5B 4D 80 F1 30 04 01  F1 30 04 01 74 6C 66 32  .[M..0...0..tlf2
0C30: 2B F1 30 04 01 4E 80 23  5B 4D 80 F1 30 04 01 F1  +.0..N.#[M..0...
0C40: 30 04 01 74 6C 6D 32 2B  F1 30 04 01 4F 80 23 5B  0..tlm2+.0..O.#[
0C50: 4D 80 F1 30 04 01 F1 30  04 01 74 66 6D 65 52 1E  M..0...0..tfmeR.
0C60: 80 F0 FF FF 7F F0 FF FF  7F 68 69 33 33 45 1E 80  .........hi33E..
0C70: F0 FF FF 7F F0 FF FF 7F  68 69 33 34 04 80 5B 50  ........hi34..[P
0C80: 80 F3 30 04 01 F3 30 04  01 68 69 30 30 2B F3 30  ..0...0..hi00+.0
0C90: 04 01 51 80 23 2B F3 30  04 01 52 80 23 52 1E 80  ..Q.#+.0..R.#R..
0CA0: F0 FF FF 7F F0 FF FF 7F  68 69 33 34 45 1E 80 F0  ........hi34E...
0CB0: FF FF 7F F0 FF FF 7F 68  69 33 35 04 80 5B 50 80  .......hi35..[P.
0CC0: F3 30 04 01 F3 30 04 01  68 69 30 31 5B 53 80 F0  .0...0..hi01[S..
0CD0: 30 04 01 F0 30 04 01 74  68 6B 30 1C 0A 80 2B F0  0...0..thk0...+.
0CE0: 30 04 01 54 80 23 52 1E  80 F0 FF FF 7F F0 FF FF  0..T.#R.........
0CF0: 7F 68 69 33 35 45 1E 80  F0 FF FF 7F F0 FF FF 7F  .hi35E..........
0D00: 68 69 33 36 04 80 2B F0  30 04 01 55 80 23 52 1E  hi36..+.0..U.#R.
0D10: 80 F0 FF FF 7F F0 FF FF  7F 68 69 33 36 45 1E 80  .........hi36E..
0D20: F0 FF FF 7F F0 FF FF 7F  68 69 33 37 04 80 2B F5  ........hi37..+.
0D30: 30 04 01 56 80 23 5B 53  80 F0 30 04 01 F0 30 04  0..V.#[S..0...0.
0D40: 01 74 68 6B 31 1C 01 80  2B F0 30 04 01 57 80 23  .thk1...+.0..W.#
0D50: 52 1E 80 F0 FF FF 7F F0  FF FF 7F 68 69 33 37 45  R..........hi37E
0D60: 1E 80 F0 FF FF 7F F0 FF  FF 7F 68 69 33 38 04 80  ..........hi38..
0D70: 5B 0C 80 F0 30 04 01 F0  30 04 01 68 69 30 30 5B  [...0...0..hi00[
0D80: 4D 80 F1 30 04 01 F1 30  04 01 74 6C 6D 32 2B F1  M..0...0..tlm2+.
0D90: 30 04 01 58 80 23 5B 4D  80 F1 30 04 01 F1 30 04  0..X.#[M..0...0.
0DA0: 01 74 6C 66 32 2B F1 30  04 01 59 80 23 5B 4D 80  .tlf2+.0..Y.#[M.
0DB0: F1 30 04 01 F1 30 04 01  74 66 6D 65 52 1E 80 F0  .0...0..tfmeR...
0DC0: FF FF 7F F0 FF FF 7F 68  69 33 38 45 1E 80 F0 FF  .......hi38E....
0DD0: FF 7F F0 FF FF 7F 68 69  33 39 04 80 5B 0C 80 F0  ......hi39..[...
0DE0: 30 04 01 F0 30 04 01 68  69 70 30 2B F0 30 04 01  0...0..hip0+.0..
0DF0: 5A 80 23 5B 0C 80 F0 30  04 01 F0 30 04 01 68 69  Z.#[...0...0..hi
0E00: 70 31 52 1E 80 F0 FF FF  7F F0 FF FF 7F 68 69 33  p1R..........hi3
0E10: 39 45 1E 80 F0 FF FF 7F  F0 FF FF 7F 68 69 34 30  9E..........hi40
0E20: 04 80 6B 69 64 6C 30 F0  30 04 01 5B 0F 80 F2 30  ..kidl0.0..[...0
0E30: 04 01 F2 30 04 01 72 79  30 31 5B 10 80 ED 30 04  ...0..ry01[...0.
0E40: 01 ED 30 04 01 72 79 30  31 45 1E 80 F0 FF FF 7F  ..0..ry01E......
0E50: F0 FF FF 7F 30 30 73 65  04 80 1C 08 80 2B F2 30  ....00se.....+.0
0E60: 04 01 5B 80 23 52 1E 80  F0 FF FF 7F F0 FF FF 7F  ..[.#R..........
0E70: 68 69 34 30 45 1E 80 F0  FF FF 7F F0 FF FF 7F 68  hi40E..........h
0E80: 69 34 31 04 80 2B F0 30  04 01 5C 80 23 5B 53 80  i41..+.0..\.#[S.
0E90: F0 30 04 01 F0 30 04 01  74 68 6B 30 1C 0A 80 52  .0...0..thk0...R
0EA0: 1E 80 F0 FF FF 7F F0 FF  FF 7F 68 69 34 31 45 1E  ..........hi41E.
0EB0: 80 F0 FF FF 7F F0 FF FF  7F 68 69 34 32 04 80 2B  .........hi42..+
0EC0: F0 30 04 01 5D 80 23 2B  F0 30 04 01 5E 80 23 52  .0..].#+.0..^.#R
0ED0: 1E 80 F0 FF FF 7F F0 FF  FF 7F 68 69 34 32 45 1E  ..........hi42E.
0EE0: 80 F0 FF FF 7F F0 FF FF  7F 68 69 34 33 04 80 5B  .........hi43..[
0EF0: 4D 80 F1 30 04 01 F1 30  04 01 74 6C 66 32 2B F1  M..0...0..tlf2+.
0F00: 30 04 01 5F 80 23 5B 4D  80 F1 30 04 01 F1 30 04  0.._.#[M..0...0.
0F10: 01 74 6C 6D 32 2B F1 30  04 01 60 80 23 5B 4D 80  .tlm2+.0..`.#[M.
0F20: F1 30 04 01 F1 30 04 01  74 66 6D 65 52 1E 80 F0  .0...0..tfmeR...
0F30: FF FF 7F F0 FF FF 7F 68  69 34 33 45 1E 80 F0 FF  .......hi43E....
0F40: FF 7F F0 FF FF 7F 68 69  34 34 04 80 5B 53 80 F0  ......hi44..[S..
0F50: 30 04 01 F0 30 04 01 74  68 6B 31 1C 2F 80 2B F0  0...0..thk1./.+.
0F60: 30 04 01 61 80 23 52 1E  80 F0 FF FF 7F F0 FF FF  0..a.#R.........
0F70: 7F 68 69 34 34 45 1E 80  F0 FF FF 7F F0 FF FF 7F  .hi44E..........
0F80: 68 69 34 35 04 80 5B 0F  80 F2 30 04 01 F2 30 04  hi45..[...0...0.
0F90: 01 72 79 30 30 5B 10 80  ED 30 04 01 ED 30 04 01  .ry00[...0...0..
0FA0: 72 79 30 30 5B 62 80 F0  30 04 01 F0 30 04 01 74  ry00[b..0...0..t
0FB0: 6C 6B 30 2B F0 30 04 01  63 80 23 2B F0 30 04 01  lk0+.0..c.#+.0..
0FC0: 64 80 23 5B 62 80 F0 30  04 01 F0 30 04 01 74 6C  d.#[b..0...0..tl
0FD0: 6B 31 52 1E 80 F0 FF FF  7F F0 FF FF 7F 68 69 34  k1R..........hi4
0FE0: 35 45 1E 80 F0 FF FF 7F  F0 FF FF 7F 68 69 34 36  5E..........hi46
0FF0: 04 80 5B 0D 80 F4 30 04  01 F4 30 04 01 68 69 30  ..[...0...0..hi0
1000: 31 2B F4 30 04 01 65 80  23 5B 0D 80 F4 30 04 01  1+.0..e.#[...0..
1010: F4 30 04 01 68 69 30 32  52 1E 80 F0 FF FF 7F F0  .0..hi02R.......
1020: FF FF 7F 68 69 34 36 45  1E 80 F0 FF FF 7F F0 FF  ...hi46E........
1030: FF 7F 68 69 34 37 04 80  5B 29 80 F3 30 04 01 F3  ..hi47..[)..0...
1040: 30 04 01 6F 73 61 30 2B  F3 30 04 01 66 80 23 2B  0..osa0+.0..f.#+
1050: F3 30 04 01 67 80 23 52  1E 80 F0 FF FF 7F F0 FF  .0..g.#R........
1060: FF 7F 68 69 34 37 45 1E  80 F0 FF FF 7F F0 FF FF  ..hi47E.........
1070: 7F 68 69 34 38 04 80 2B  F3 30 04 01 68 80 23 52  .hi48..+.0..h.#R
1080: 1E 80 F0 FF FF 7F F0 FF  FF 7F 68 69 34 38 45 1E  ..........hi48E.
1090: 80 F0 FF FF 7F F0 FF FF  7F 68 69 34 39 04 80 5B  .........hi49..[
10A0: 62 80 F0 30 04 01 F0 30  04 01 74 6C 62 30 2B F0  b..0...0..tlb0+.
10B0: 30 04 01 69 80 23 5B 62  80 F0 30 04 01 F0 30 04  0..i.#[b..0...0.
10C0: 01 74 6C 62 31 5B 29 80  F3 30 04 01 F3 30 04 01  .tlb1[)..0...0..
10D0: 6F 73 62 30 2B F3 30 04  01 6A 80 23 52 1E 80 F0  osb0+.0..j.#R...
10E0: FF FF 7F F0 FF FF 7F 68  69 34 39 45 1E 80 F0 FF  .......hi49E....
10F0: FF 7F F0 FF FF 7F 68 69  35 30 04 80 27 10 F0 30  ......hi50..'..0
1100: 04 01 0A 2B F3 30 04 01  6B 80 23 2B F3 30 04 01  ...+.0..k.#+.0..
1110: 6C 80 23 52 1E 80 F0 FF  FF 7F F0 FF FF 7F 68 69  l.#R..........hi
1120: 35 30 45 1E 80 F0 FF FF  7F F0 FF FF 7F 68 69 35  50E..........hi5
1130: 31 04 80 5B 3B 80 F1 30  04 01 F1 30 04 01 74 6C  1..[;..0...0..tl
1140: 66 30 2B F1 30 04 01 6D  80 23 5B 3B 80 F1 30 04  f0+.0..m.#[;..0.
1150: 01 F1 30 04 01 74 6C 66  31 2B F1 30 04 01 6E 80  ..0..tlf1+.0..n.
1160: 23 5B 4D 80 F1 30 04 01  F1 30 04 01 74 6C 6D 32  #[M..0...0..tlm2
1170: 2B F1 30 04 01 6F 80 23  5B 4D 80 F1 30 04 01 F1  +.0..o.#[M..0...
1180: 30 04 01 74 66 6D 65 5B  0C 80 F0 30 04 01 F0 30  0..tfme[...0...0
1190: 04 01 68 69 30 30 52 1E  80 F0 FF FF 7F F0 FF FF  ..hi00R.........
11A0: 7F 68 69 35 31 45 1E 80  F0 FF FF 7F F0 FF FF 7F  .hi51E..........
11B0: 68 69 35 32 04 80 2B F3  30 04 01 70 80 23 2B F3  hi52..+.0..p.#+.
11C0: 30 04 01 71 80 23 52 1E  80 F0 FF FF 7F F0 FF FF  0..q.#R.........
11D0: 7F 68 69 35 32 45 1E 80  F0 FF FF 7F F0 FF FF 7F  .hi52E..........
11E0: 68 69 35 33 04 80 5B 0C  80 F0 30 04 01 F0 30 04  hi53..[...0...0.
11F0: 01 68 69 30 31 2B F0 30  04 01 72 80 23 5B 0C 80  .hi01+.0..r.#[..
1200: F0 30 04 01 F0 30 04 01  68 69 30 32 2B F0 30 04  .0...0..hi02+.0.
1210: 01 73 80 23 53 F0 30 04  01 F0 30 04 01 68 69 30  .s.#S.0...0..hi0
1220: 32 52 1E 80 F0 FF FF 7F  F0 FF FF 7F 68 69 35 33  2R..........hi53
1230: 45 1E 80 F0 FF FF 7F F0  FF FF 7F 68 69 35 34 04  E..........hi54.
1240: 80 5B 29 80 F3 30 04 01  F3 30 04 01 6F 73 62 31  .[)..0...0..osb1
1250: 5B 0C 80 F0 30 04 01 F0  30 04 01 68 69 30 33 2B  [...0...0..hi03+
1260: F0 30 04 01 74 80 23 2B  F0 30 04 01 75 80 23 52  .0..t.#+.0..u.#R
1270: 1E 80 F0 FF FF 7F F0 FF  FF 7F 68 69 35 34 45 1E  ..........hi54E.
1280: 80 F0 FF FF 7F F0 FF FF  7F 68 69 35 35 04 80 5B  .........hi55..[
1290: 0C 80 F0 30 04 01 F0 30  04 01 68 69 30 34 1C 0A  ...0...0..hi04..
12A0: 80 2B F0 30 04 01 76 80  23 52 1E 80 F0 FF FF 7F  .+.0..v.#R......
12B0: F0 FF FF 7F 68 69 35 35  45 1E 80 F0 FF FF 7F F0  ....hi55E.......
12C0: FF FF 7F 68 69 35 36 04  80 27 10 F0 30 04 01 0B  ...hi56..'..0...
12D0: 5B 3B 80 F1 30 04 01 F1  30 04 01 74 6C 6D 30 2B  [;..0...0..tlm0+
12E0: F1 30 04 01 3F 80 23 5B  0C 80 F0 30 04 01 F0 30  .0..?.#[...0...0
12F0: 04 01 68 69 30 30 2B F1  30 04 01 77 80 23 5B 3B  ..hi00+.0..w.#[;
1300: 80 F1 30 04 01 F1 30 04  01 74 6C 6D 31 52 1E 80  ..0...0..tlm1R..
1310: F0 FF FF 7F F0 FF FF 7F  68 69 35 36 45 1E 80 F0  ........hi56E...
1320: FF FF 7F F0 FF FF 7F 68  69 35 37 04 80 5B 0C 80  .......hi57..[..
1330: F0 30 04 01 F0 30 04 01  68 69 70 30 2B F0 30 04  .0...0..hip0+.0.
1340: 01 78 80 23 5B 0C 80 F0  30 04 01 F0 30 04 01 68  .x.#[...0...0..h
1350: 69 70 31 52 1E 80 F0 FF  FF 7F F0 FF FF 7F 68 69  ip1R..........hi
1360: 35 37 45 1E 80 F0 FF FF  7F F0 FF FF 7F 68 69 35  57E..........hi5
1370: 38 04 80 6B 69 64 6C 30  F0 30 04 01 5B 50 80 F3  8..kidl0.0..[P..
1380: 30 04 01 F3 30 04 01 68  69 30 30 2B F3 30 04 01  0...0..hi00+.0..
1390: 79 80 23 5B 50 80 F3 30  04 01 F3 30 04 01 68 69  y.#[P..0...0..hi
13A0: 30 31 52 1E 80 F0 FF FF  7F F0 FF FF 7F 68 69 35  01R..........hi5
13B0: 38 45 1E 80 F0 FF FF 7F  F0 FF FF 7F 68 69 35 39  8E..........hi59
13C0: 04 80 1C 0A 80 5B 62 80  F0 30 04 01 F0 30 04 01  .....[b..0...0..
13D0: 74 6C 62 30 2B F0 30 04  01 7A 80 23 5B 62 80 F0  tlb0+.0..z.#[b..
13E0: 30 04 01 F0 30 04 01 74  6C 62 31 52 1E 80 F0 FF  0...0..tlb1R....
13F0: FF 7F F0 FF FF 7F 68 69  35 39 45 1E 80 F0 FF FF  ......hi59E.....
1400: 7F F0 FF FF 7F 68 69 36  30 04 80 5B 12 80 EC 30  .....hi60..[...0
1410: 04 01 EC 30 04 01 68 69  30 30 5B 13 80 EF 30 04  ...0..hi00[...0.
1420: 01 EF 30 04 01 68 69 30  30 5B 0C 80 F0 30 04 01  ..0..hi00[...0..
1430: F0 30 04 01 68 69 30 30  5B 4D 80 F1 30 04 01 F1  .0..hi00[M..0...
1440: 30 04 01 74 6C 66 32 2B  F1 30 04 01 7B 80 23 5B  0..tlf2+.0..{.#[
1450: 4D 80 F1 30 04 01 F1 30  04 01 74 6C 6D 32 2B F1  M..0...0..tlm2+.
1460: 30 04 01 7C 80 23 52 1E  80 F0 FF FF 7F F0 FF FF  0..|.#R.........
1470: 7F 68 69 36 30 45 1E 80  F0 FF FF 7F F0 FF FF 7F  .hi60E..........
1480: 68 69 36 31 04 80 5B 3B  80 F1 30 04 01 F1 30 04  hi61..[;..0...0.
1490: 01 74 6C 66 30 2B F1 30  04 01 7D 80 23 5D 04 80  .tlf0+.0..}.#]..
14A0: 43 80 5B 3B 80 F1 30 04  01 F1 30 04 01 74 6C 66  C.[;..0...0..tlf
14B0: 31 2B F1 30 04 01 7E 80  23 52 1E 80 F0 FF FF 7F  1+.0..~.#R......
14C0: F0 FF FF 7F 68 69 36 31  45 1E 80 F0 FF FF 7F F0  ....hi61E.......
14D0: FF FF 7F 68 69 36 32 04  80 1C 0A 80 5B 0C 80 F0  ...hi62.....[...
14E0: 30 04 01 F0 30 04 01 68  69 30 31 2B F0 30 04 01  0...0..hi01+.0..
14F0: 7F 80 23 52 1E 80 F0 FF  FF 7F F0 FF FF 7F 68 69  ..#R..........hi
1500: 36 32 45 1E 80 F0 FF FF  7F F0 FF FF 7F 68 69 36  62E..........hi6
1510: 33 04 80 6B 69 64 6C 30  F0 30 04 01 5B 4D 80 F1  3..kidl0.0..[M..
1520: 30 04 01 F1 30 04 01 74  6C 66 32 2B F1 30 04 01  0...0..tlf2+.0..
1530: 80 80 23 2B F1 30 04 01  81 80 23 5B 3B 80 F1 30  ..#+.0....#[;..0
1540: 04 01 F1 30 04 01 74 6C  6D 30 52 1E 80 F0 FF FF  ...0..tlm0R.....
1550: 7F F0 FF FF 7F 68 69 36  33 45 1E 80 F0 FF FF 7F  .....hi63E......
1560: F0 FF FF 7F 68 69 36 34  04 80 2B F1 30 04 01 82  ....hi64..+.0...
1570: 80 23 5B 3B 80 F1 30 04  01 F1 30 04 01 74 6C 6D  .#[;..0...0..tlm
1580: 31 27 10 F0 FF FF 7F 0F  52 1E 80 F0 FF FF 7F F0  1'......R.......
1590: FF FF 7F 68 69 36 34 45  1E 80 F0 FF FF 7F F0 FF  ...hi64E........
15A0: FF 7F 68 69 36 35 04 80  1C 83 80 5B 84 80 F0 30  ..hi65.....[...0
15B0: 04 01 F0 30 04 01 68 69  30 36 03 02 10 85 80 27  ...0..hi06.....'
15C0: 10 D3 30 04 01 08 1C 09  80 52 1E 80 F0 FF FF 7F  ..0......R......
15D0: F0 FF FF 7F 68 69 36 35  45 1E 80 F0 FF FF 7F F0  ....hi65E.......
15E0: FF FF 7F 68 69 36 36 04  80 45 1E 80 F0 FF FF 7F  ...hi66..E......
15F0: F0 FF FF 7F 30 33 73 65  04 80 1C 86 80 52 1E 80  ....03se.....R..
1600: F0 FF FF 7F F0 FF FF 7F  68 69 36 36 45 1E 80 F0  ........hi66E...
1610: FF FF 7F F0 FF FF 7F 68  69 36 37 04 80 5C 00 87  .......hi67..\..
1620: 80 5C 01 87 80 2B F0 30  04 01 88 80 23 9A 2B F0  .\...+.0....#.+.
1630: 30 04 01 89 80 23 52 1E  80 F0 FF FF 7F F0 FF FF  0....#R.........
1640: 7F 68 69 36 37 45 1E 80  F0 FF FF 7F F0 FF FF 7F  .hi67E..........
1650: 68 69 36 38 04 80 6E F0  FF FF 7F 8A 80 99 F0 FF  hi68..n.........
1660: FF 7F 99 F0 FF FF 7F 2B  F0 30 04 01 8B 80 23 2A  .......+.0....#*
1670: 10 D3 30 04 01 52 1E 80  F0 FF FF 7F F0 FF FF 7F  ..0..R..........
1680: 68 69 36 38 45 1E 80 F0  FF FF 7F F0 FF FF 7F 68  hi68E..........h
1690: 69 36 39 04 80 5B 84 80  F0 30 04 01 F0 30 04 01  i69..[...0...0..
16A0: 68 69 30 37 03 02 10 8C  80 27 10 D3 30 04 01 08  hi07.....'..0...
16B0: 2B F0 30 04 01 8D 80 2A  10 D3 30 04 01 52 1E 80  +.0....*..0..R..
16C0: F0 FF FF 7F F0 FF FF 7F  68 69 36 39 45 1E 80 F0  ........hi69E...
16D0: FF FF 7F F0 FF FF 7F 68  69 37 30 04 80 5B 84 80  .......hi70..[..
16E0: F0 30 04 01 F0 30 04 01  68 69 30 38 1C 09 80 52  .0...0..hi08...R
16F0: 1E 80 F0 FF FF 7F F0 FF  FF 7F 68 69 37 30 45 1E  ..........hi70E.
1700: 80 F0 FF FF 7F F0 FF FF  7F 68 69 37 31 04 80 1C  .........hi71...
1710: 83 80 9F 53 80 F0 30 04  01 F0 30 04 01 6D 61 69  ...S..0...0..mai
1720: 6E 04 80 45 1E 80 F0 FF  FF 7F F0 FF FF 7F 30 34  n..E..........04
1730: 73 65 04 80 5D 04 80 8E  80 1C 83 80 1A F4 27 1C  se..].........'.
1740: 0A 80 27 10 F0 30 04 01  05 27 10 F0 FF FF 7F 0D  ..'..0...'......
1750: 29 10 EC 30 04 01 0D 29  10 EE 30 04 01 0D 29 10  )..0...)..0...).
1760: EF 30 04 01 0E BB 8F 80  FA 30 04 01 FA 30 04 01  .0.......0...0..
1770: 00 FE FE FE 04 80 BB 90  80 FA 30 04 01 FA 30 04  ..........0...0.
1780: 01 00 FE FE FE 04 80 5B  91 80 EF 30 04 01 EF 30  .......[...0...0
1790: 04 01 61 73 74 6C 5B 92  80 EC 30 04 01 EC 30 04  ..astl[...0...0.
17A0: 01 68 69 30 32 5B 93 80  EE 30 04 01 EE 30 04 01  .hi02[...0...0..
17B0: 68 69 30 31 1C 01 80 5C  00 94 80 5C 01 94 80 9A  hi01...\...\....
17C0: 52 1E 80 F0 FF FF 7F F0  FF FF 7F 68 69 37 31 45  R..........hi71E
17D0: 1E 80 F0 FF FF 7F F0 FF  FF 7F 6B 79 30 30 04 80  ..........ky00..
17E0: 45 0B 80 F0 FF FF 7F F0  FF FF 7F 66 64 69 32 04  E..........fdi2.
17F0: 80 55 1E 80 F0 FF FF 7F  F0 FF FF 7F 6B 79 30 30  .U..........ky00
1800: 45 1E 80 F0 FF FF 7F F0  FF FF 7F 6B 79 30 32 04  E..........ky02.
1810: 80 2B EE 30 04 01 95 80  23 5B 93 80 EE 30 04 01  .+.0....#[...0..
1820: EE 30 04 01 68 69 30 32  2B EE 30 04 01 96 80 23  .0..hi02+.0....#
1830: 52 1E 80 F0 FF FF 7F F0  FF FF 7F 6B 79 30 32 45  R..........ky02E
1840: 1E 80 F0 FF FF 7F F0 FF  FF 7F 6B 79 30 33 04 80  ..........ky03..
1850: 2B EC 30 04 01 97 80 23  2B EC 30 04 01 98 80 23  +.0....#+.0....#
1860: 52 1E 80 F0 FF FF 7F F0  FF FF 7F 6B 79 30 33 45  R..........ky03E
1870: 1E 80 F0 FF FF 7F F0 FF  FF 7F 6B 79 30 34 04 80  ..........ky04..
1880: 5B 92 80 EC 30 04 01 EC  30 04 01 68 69 30 33 2B  [...0...0..hi03+
1890: EC 30 04 01 99 80 23 5B  0F 80 F2 30 04 01 F2 30  .0....#[...0...0
18A0: 04 01 72 79 30 31 5B 10  80 ED 30 04 01 ED 30 04  ..ry01[...0...0.
18B0: 01 72 79 30 31 45 1E 80  F0 FF FF 7F F0 FF FF 7F  .ry01E..........
18C0: 30 30 73 65 04 80 52 1E  80 F0 FF FF 7F F0 FF FF  00se..R.........
18D0: 7F 6B 79 30 34 45 1E 80  F0 FF FF 7F F0 FF FF 7F  .ky04E..........
18E0: 6B 79 30 35 04 80 2B F2  30 04 01 9A 80 23 5B 92  ky05..+.0....#[.
18F0: 80 EC 30 04 01 EC 30 04  01 68 69 30 34 1C 2F 80  ..0...0..hi04./.
1900: 52 1E 80 F0 FF FF 7F F0  FF FF 7F 6B 79 30 35 45  R..........ky05E
1910: 1E 80 F0 FF FF 7F F0 FF  FF 7F 6B 79 30 36 04 80  ..........ky06..
1920: AE 03 EC 30 04 01 9B 80  2B EC 30 04 01 9C 80 23  ...0....+.0....#
1930: 2B EC 30 04 01 9D 80 23  AE 04 EC 30 04 01 00 00  +.0....#...0....
1940: 52 1E 80 F0 FF FF 7F F0  FF FF 7F 6B 79 30 36 45  R..........ky06E
1950: 1E 80 F0 FF FF 7F F0 FF  FF 7F 6B 79 30 37 04 80  ..........ky07..
1960: 2B EE 30 04 01 9E 80 23  5B 92 80 EC 30 04 01 EC  +.0....#[...0...
1970: 30 04 01 68 69 30 35 5B  93 80 EE 30 04 01 EE 30  0..hi05[...0...0
1980: 04 01 68 69 30 33 03 02  10 9F 80 27 10 D3 30 04  ..hi03.....'..0.
1990: 01 08 52 1E 80 F0 FF FF  7F F0 FF FF 7F 6B 79 30  ..R..........ky0
19A0: 37 45 1E 80 F0 FF FF 7F  F0 FF FF 7F 6B 79 30 38  7E..........ky08
19B0: 04 80 2B EC 30 04 01 A0  80 23 2A 10 D3 30 04 01  ..+.0....#*..0..
19C0: 52 1E 80 F0 FF FF 7F F0  FF FF 7F 6B 79 30 38 45  R..........ky08E
19D0: 1E 80 F0 FF FF 7F F0 FF  FF 7F 6B 79 30 39 04 80  ..........ky09..
19E0: 5B 93 80 EE 30 04 01 EE  30 04 01 68 69 30 34 1C  [...0...0..hi04.
19F0: 83 80 2B EE 30 04 01 A1  80 23 52 1E 80 F0 FF FF  ..+.0....#R.....
1A00: 7F F0 FF FF 7F 6B 79 30  39 45 1E 80 F0 FF FF 7F  .....ky09E......
1A10: F0 FF FF 7F 6B 79 31 30  04 80 2B F2 30 04 01 A2  ....ky10..+.0...
1A20: 80 23 2B F2 30 04 01 A3  80 23 52 1E 80 F0 FF FF  .#+.0....#R.....
1A30: 7F F0 FF FF 7F 6B 79 31  30 45 1E 80 F0 FF FF 7F  .....ky10E......
1A40: F0 FF FF 7F 6B 79 31 31  04 80 5B 0F 80 F2 30 04  ....ky11..[...0.
1A50: 01 F2 30 04 01 72 79 30  32 5B 10 80 ED 30 04 01  ..0..ry02[...0..
1A60: ED 30 04 01 72 79 30 32  1C 0A 80 2B F2 30 04 01  .0..ry02...+.0..
1A70: A4 80 1C 83 80 2B F2 30  04 01 A5 80 23 5B 3B 80  .....+.0....#[;.
1A80: F1 30 04 01 F1 30 04 01  61 67 72 30 1C 0A 80 52  .0...0..agr0...R
1A90: 1E 80 F0 FF FF 7F F0 FF  FF 7F 6B 79 31 31 45 1E  ..........ky11E.
1AA0: 80 F0 FF FF 7F F0 FF FF  7F 6B 79 31 32 04 80 5D  .........ky12..]
1AB0: 04 80 8E 80 1C 0A 80 2B  F1 30 04 01 A6 80 23 5B  .......+.0....#[
1AC0: 0F 80 F2 30 04 01 F2 30  04 01 72 79 30 33 5B 10  ...0...0..ry03[.
1AD0: 80 ED 30 04 01 ED 30 04  01 72 79 30 33 45 1E 80  ..0...0..ry03E..
1AE0: F0 FF FF 7F F0 FF FF 7F  30 31 73 65 04 80 1C 2F  ........01se.../
1AF0: 80 52 1E 80 F0 FF FF 7F  F0 FF FF 7F 6B 79 31 32  .R..........ky12
1B00: 45 1E 80 F0 FF FF 7F F0  FF FF 7F 6B 79 31 33 04  E..........ky13.
1B10: 80 1C 2F 80 2B F2 30 04  01 A7 80 23 52 1E 80 F0  ../.+.0....#R...
1B20: FF FF 7F F0 FF FF 7F 6B  79 31 33 45 1E 80 F0 FF  .......ky13E....
1B30: FF 7F F0 FF FF 7F 6B 79  31 34 04 80 2B F2 30 04  ......ky14..+.0.
1B40: 01 A8 80 23 2B F1 30 04  01 A9 80 23 52 1E 80 F0  ...#+.0....#R...
1B50: FF FF 7F F0 FF FF 7F 6B  79 31 34 45 1E 80 F0 FF  .......ky14E....
1B60: FF 7F F0 FF FF 7F 6B 79  31 35 04 80 5B 3B 80 F1  ......ky15..[;..
1B70: 30 04 01 F1 30 04 01 61  67 72 31 2B F1 30 04 01  0...0..agr1+.0..
1B80: AA 80 23 5B 0F 80 F2 30  04 01 F2 30 04 01 72 79  ..#[...0...0..ry
1B90: 61 32 5B 10 80 ED 30 04  01 ED 30 04 01 72 79 30  a2[...0...0..ry0
1BA0: 32 1C 0A 80 52 1E 80 F0  FF FF 7F F0 FF FF 7F 6B  2...R..........k
1BB0: 79 31 35 45 1E 80 F0 FF  FF 7F F0 FF FF 7F 6B 79  y15E..........ky
1BC0: 31 36 04 80 2B F2 30 04  01 AB 80 23 5B AC 80 F1  16..+.0....#[...
1BD0: 30 04 01 F1 30 04 01 74  61 69 30 03 02 10 AD 80  0...0..tai0.....
1BE0: 27 10 D3 30 04 01 08 1C  01 80 52 1E 80 F0 FF FF  '..0......R.....
1BF0: 7F F0 FF FF 7F 6B 79 31  36 45 1E 80 F0 FF FF 7F  .....ky16E......
1C00: F0 FF FF 7F 6B 79 31 37  04 80 5B 0F 80 F2 30 04  ....ky17..[...0.
1C10: 01 F2 30 04 01 72 79 30  30 5B 10 80 ED 30 04 01  ..0..ry00[...0..
1C20: ED 30 04 01 72 79 30 30  1C 01 80 2B F1 30 04 01  .0..ry00...+.0..
1C30: AE 80 1C 8E 80 5B 91 80  EF 30 04 01 EF 30 04 01  .....[...0...0..
1C40: 79 72 65 30 2A 10 D3 30  04 01 4E 01 F1 30 04 01  yre0*..0..N..0..
1C50: 5C 00 AF 80 5C 01 AF 80  9A 52 1E 80 F0 FF FF 7F  \...\....R......
1C60: F0 FF FF 7F 6B 79 31 37  45 1E 80 F0 FF FF 7F F0  ....ky17E.......
1C70: FF FF 7F 30 77 70 30 04  80 5B 29 80 F3 30 04 01  ...0wp0..[)..0..
1C80: F3 30 04 01 74 68 6B 30  BB B0 80 F3 30 04 01 F3  .0..thk0....0...
1C90: 30 04 01 6D 61 69 6E 04  80 1C 09 80 5B 0E 80 F5  0..main.....[...
1CA0: 30 04 01 F5 30 04 01 68  69 30 31 BB B0 80 F5 30  0...0..hi01....0
1CB0: 04 01 F5 30 04 01 6D 61  69 6E 04 80 1C 09 80 5B  ...0..main.....[
1CC0: 0D 80 F4 30 04 01 F4 30  04 01 68 69 30 31 BB B0  ...0...0..hi01..
1CD0: 80 F4 30 04 01 F4 30 04  01 6D 61 69 6E 04 80 1C  ..0...0..main...
1CE0: 83 80 5B 0F 80 F2 30 04  01 F2 30 04 01 72 79 30  ..[...0...0..ry0
1CF0: 34 5B 10 80 ED 30 04 01  ED 30 04 01 72 79 30 34  4[...0...0..ry04
1D00: 1C 83 80 52 1E 80 F0 FF  FF 7F F0 FF FF 7F 30 77  ...R..........0w
1D10: 70 30 45 1E 80 F0 FF FF  7F F0 FF FF 7F 30 73 30  p0E..........0s0
1D20: 30 04 80 45 1E 80 F0 FF  FF 7F F2 30 04 01 30 32  0..E.......0..02
1D30: 73 65 04 80 27 10 EF 30  04 01 11 27 10 D4 30 04  se..'..0...'..0.
1D40: 01 0B 1C B1 80 52 1E 80  F0 FF FF 7F F0 FF FF 7F  .....R..........
1D50: 30 73 30 30 45 1E 80 F0  FF FF 7F F0 FF FF 7F 30  0s00E..........0
1D60: 73 30 31 04 80 5B 0F 80  F2 30 04 01 F2 30 04 01  s01..[...0...0..
1D70: 72 79 30 30 5B 10 80 ED  30 04 01 ED 30 04 01 72  ry00[...0...0..r
1D80: 79 30 30 1C 08 80 BB 90  80 FA 30 04 01 FA 30 04  y00.......0...0.
1D90: 01 6D 61 69 6E 04 80 5B  11 80 FA 30 04 01 FA 30  .main..[...0...0
1DA0: 04 01 68 69 61 31 1C 01  80 27 10 D4 30 04 01 0C  ..hia1...'..0...
1DB0: 1C 09 80 52 1E 80 F0 FF  FF 7F F0 FF FF 7F 30 73  ...R..........0s
1DC0: 30 31 45 1E 80 F0 FF FF  7F F0 FF FF 7F 30 73 30  01E..........0s0
1DD0: 32 04 80 1C B2 80 5B 0F  80 F2 30 04 01 F2 30 04  2.....[...0...0.
1DE0: 01 72 79 30 35 5B 10 80  ED 30 04 01 ED 30 04 01  .ry05[...0...0..
1DF0: 72 79 30 35 03 02 10 B3  80 27 10 D3 30 04 01 08  ry05.....'..0...
1E00: 52 1E 80 F0 FF FF 7F F0  FF FF 7F 30 73 30 32 45  R..........0s02E
1E10: 1E 80 F0 FF FF 7F F0 FF  FF 7F 30 73 30 33 04 80  ..........0s03..
1E20: 2A 10 D3 30 04 01 5B 10  80 FB 30 04 01 FB 30 04  *..0..[...0...0.
1E30: 01 72 79 30 36 5B 92 80  EC 30 04 01 EC 30 04 01  .ry06[...0...0..
1E40: 68 69 61 35 5B 93 80 EE  30 04 01 EE 30 04 01 68  hia5[...0...0..h
1E50: 69 61 34 1C 08 80 52 1E  80 F0 FF FF 7F F0 FF FF  ia4...R.........
1E60: 7F 30 73 30 33 45 1E 80  F0 FF FF 7F F0 FF FF 7F  .0s03E..........
1E70: 30 73 30 35 04 80 27 10  D4 30 04 01 09 27 10 1B  0s05..'..0...'..
1E80: 31 04 01 02 27 10 ED 30  04 01 0D 2B EC 30 04 01  1...'..0...+.0..
1E90: B4 80 1C B5 80 52 1E 80  F0 FF FF 7F F0 FF FF 7F  .....R..........
1EA0: 30 73 30 35 45 1E 80 F0  FF FF 7F F0 FF FF 7F 30  0s05E..........0
1EB0: 73 30 36 04 80 27 10 D4  30 04 01 10 27 10 1B 31  s06..'..0...'..1
1EC0: 04 01 04 27 10 EC 30 04  01 0F 27 10 EE 30 04 01  ...'..0...'..0..
1ED0: 0E 5B 15 80 1A 31 04 01  1A 31 04 01 68 69 30 30  .[...1...1..hi00
1EE0: 5B 19 80 FA 30 04 01 FA  30 04 01 68 69 30 30 03  [...0...0..hi00.
1EF0: 02 10 B6 80 27 10 D3 30  04 01 08 1C 01 80 5B 93  ....'..0......[.
1F00: 80 EE 30 04 01 EE 30 04  01 68 69 30 35 5B B7 80  ..0...0..hi05[..
1F10: EC 30 04 01 EC 30 04 01  68 69 30 36 2A 10 D3 30  .0...0..hi06*..0
1F20: 04 01 5B 10 80 ED 30 04  01 ED 30 04 01 72 79 30  ..[...0...0..ry0
1F30: 37 03 02 10 B8 80 27 10  D3 30 04 01 08 27 10 D4  7.....'..0...'..
1F40: 30 04 01 08 1C 01 80 27  10 1B 31 04 01 03 52 1E  0......'..1...R.
1F50: 80 F0 FF FF 7F F0 FF FF  7F 30 73 30 36 45 1E 80  .........0s06E..
1F60: F0 FF FF 7F F0 FF FF 7F  30 73 30 38 04 80 5B 15  ........0s08..[.
1F70: 80 1A 31 04 01 1A 31 04  01 68 69 30 31 5B 19 80  ..1...1..hi01[..
1F80: FA 30 04 01 FA 30 04 01  68 69 30 31 2A 10 D3 30  .0...0..hi01*..0
1F90: 04 01 52 1E 80 F0 FF FF  7F F0 FF FF 7F 30 73 30  ..R..........0s0
1FA0: 38 45 1E 80 F0 FF FF 7F  F0 FF FF 7F 30 73 31 30  8E..........0s10
1FB0: 04 80 81 00 EC 30 04 01  7C 00 EC 30 04 01 5B B7  .....0..|..0..[.
1FC0: 80 EC 30 04 01 EC 30 04  01 68 69 30 37 1C 08 80  ..0...0..hi07...
1FD0: 2B EC 30 04 01 B9 80 55  1E 80 F0 FF FF 7F F0 FF  +.0....U........
1FE0: FF 7F 30 73 31 30 1C 83  80 45 1E 80 F0 FF FF 7F  ..0s10...E......
1FF0: F0 FF FF 7F 30 73 31 31  04 80 1C 09 80 52 1E 80  ....0s11.....R..
2000: F0 FF FF 7F F0 FF FF 7F  30 73 31 31 45 1E 80 F0  ........0s11E...
2010: FF FF 7F F0 FF FF 7F 30  73 31 32 04 80 5B 16 80  .......0s12..[..
2020: 1A 31 04 01 1A 31 04 01  68 69 30 32 5B 1A 80 FA  .1...1..hi02[...
2030: 30 04 01 FA 30 04 01 68  69 30 32 03 02 10 BA 80  0...0..hi02.....
2040: 27 10 D3 30 04 01 08 27  10 D4 30 04 01 0D BB 8F  '..0...'..0.....
2050: 80 FA 30 04 01 FA 30 04  01 6D 61 69 6E 04 80 27  ..0...0..main..'
2060: 10 EE 30 04 01 0F 27 10  ED 30 04 01 0E 27 10 EC  ..0...'..0...'..
2070: 30 04 01 10 1C BB 80 81  01 EC 30 04 01 7C 01 EC  0.........0..|..
2080: 30 04 01 5B B7 80 EC 30  04 01 EC 30 04 01 68 69  0..[...0...0..hi
2090: 30 38 2A 10 D3 30 04 01  5B B7 80 EC 30 04 01 EC  08*..0..[...0...
20A0: 30 04 01 68 69 30 39 55  1E 80 F0 FF FF 7F F0 FF  0..hi09U........
20B0: FF 7F 30 73 31 32 45 1E  80 F0 FF FF 7F F0 FF FF  ..0s12E.........
20C0: 7F 30 73 31 37 04 80 5B  16 80 1A 31 04 01 1A 31  .0s17..[...1...1
20D0: 04 01 68 69 74 30 5B 1A  80 FA 30 04 01 FA 30 04  ..hit0[...0...0.
20E0: 01 68 69 74 30 BB 8F 80  FA 30 04 01 FA 30 04 01  .hit0....0...0..
20F0: 6B 69 6C 6C 04 80 1C 0A  80 52 1E 80 F0 FF FF 7F  kill.....R......
2100: F0 FF FF 7F 30 73 31 37  45 1E 80 F0 FF FF 7F F0  ....0s17E.......
2110: FF FF 7F 30 73 31 38 04  80 27 10 EC 30 04 01 0E  ...0s18..'..0...
2120: 27 10 EF 30 04 01 0F 2B  D3 30 04 01 BC 80 1C 0A  '..0...+.0......
2130: 80 1A 36 28 1C 0A 80 29  10 F2 30 04 01 0C 2A 10  ..6(...)..0...*.
2140: EF 30 04 01 80 EF 30 04  01 27 10 D4 30 04 01 0F  .0....0..'..0...
2150: 4E 01 1A 31 04 01 5B 17  80 F2 30 04 01 F2 30 04  N..1..[...0...0.
2160: 01 68 69 30 33 5B 1B 80  FA 30 04 01 FA 30 04 01  .hi03[...0...0..
2170: 68 69 30 33 7C 00 EC 30  04 01 81 00 EC 30 04 01  hi03|..0.....0..
2180: 5B BD 80 EC 30 04 01 EC  30 04 01 77 6B 65 30 03  [...0...0..wke0.
2190: 02 10 1F 80 27 10 D3 30  04 01 08 BB BE 80 EC 30  ....'..0.......0
21A0: 04 01 EC 30 04 01 6D 61  69 6E 04 80 52 1E 80 F0  ...0..main..R...
21B0: FF FF 7F F0 FF FF 7F 30  73 31 38 45 1E 80 F0 FF  .......0s18E....
21C0: FF 7F F0 FF FF 7F 65 6E  30 30 04 80 1C 8E 80 52  ......en00.....R
21D0: 1E 80 F0 FF FF 7F F0 FF  FF 7F 65 6E 30 30 45 1E  ..........en00E.
21E0: 80 F0 FF FF 7F F0 FF FF  7F 65 6E 30 31 04 80 2A  .........en01..*
21F0: 10 D3 30 04 01 5B 17 80  F2 30 04 01 F2 30 04 01  ..0..[...0...0..
2200: 68 69 30 34 5B 1B 80 FA  30 04 01 FA 30 04 01 68  hi04[...0...0..h
2210: 69 30 34 5B BF 80 EF 30  04 01 EF 30 04 01 68 69  i04[...0...0..hi
2220: 61 30 52 1E 80 F0 FF FF  7F F0 FF FF 7F 65 6E 30  a0R..........en0
2230: 31 45 1E 80 F0 FF FF 7F  F0 FF FF 7F 65 6E 30 32  1E..........en02
2240: 04 80 1C B1 80 52 1E 80  F0 FF FF 7F F0 FF FF 7F  .....R..........
2250: 65 6E 30 32 45 1E 80 F0  FF FF 7F F0 FF FF 7F 65  en02E..........e
2260: 6E 30 33 04 80 5B BD 80  EC 30 04 01 EC 30 04 01  n03..[...0...0..
2270: 77 6B 65 31 81 01 EC 30  04 01 1C B1 80 52 1E 80  wke1...0.....R..
2280: F0 FF FF 7F F0 FF FF 7F  65 6E 30 33 45 1E 80 F0  ........en03E...
2290: FF FF 7F F0 FF FF 7F 65  6E 30 34 04 80 5B BD 80  .......en04..[..
22A0: EC 30 04 01 EC 30 04 01  77 6B 61 31 7C 00 EC 30  .0...0..wka1|..0
22B0: 04 01 81 00 EC 30 04 01  2B EC 30 04 01 C0 80 23  .....0..+.0....#
22C0: 5B 17 80 F2 30 04 01 F2  30 04 01 68 69 30 35 5B  [...0...0..hi05[
22D0: 1B 80 FA 30 04 01 FA 30  04 01 68 69 30 35 52 1E  ...0...0..hi05R.
22E0: 80 F0 FF FF 7F F0 FF FF  7F 65 6E 30 34 45 1E 80  .........en04E..
22F0: F0 FF FF 7F F0 FF FF 7F  65 6E 30 37 04 80 27 10  ........en07..'.
2300: EE 30 04 01 11 1C 2F 80  2B F2 30 04 01 C1 80 23  .0..../.+.0....#
2310: 7C 01 EC 30 04 01 81 01  EC 30 04 01 5B BD 80 EC  |..0.....0..[...
2320: 30 04 01 EC 30 04 01 77  6B 65 32 52 1E 80 F0 FF  0...0..wke2R....
2330: FF 7F F0 FF FF 7F 65 6E  30 37 45 1E 80 F0 FF FF  ......en07E.....
2340: 7F F0 FF FF 7F 65 6E 30  35 04 80 1C 0A 80 5B BF  .....en05.....[.
2350: 80 EF 30 04 01 EF 30 04  01 68 69 61 31 03 02 10  ..0...0..hia1...
2360: C2 80 27 10 D3 30 04 01  08 1C 83 80 2B EF 30 04  ..'..0......+.0.
2370: 01 C3 80 23 2A 10 D3 30  04 01 52 1E 80 F0 FF FF  ...#*..0..R.....
2380: 7F F0 FF FF 7F 65 6E 30  35 45 1E 80 F0 FF FF 7F  .....en05E......
2390: F0 FF FF 7F 65 6E 30 38  04 80 53 EC 30 04 01 EC  ....en08..S.0...
23A0: 30 04 01 77 6B 65 32 5B  C4 80 EC 30 04 01 EC 30  0..wke2[...0...0
23B0: 04 01 77 6B 65 33 03 02  10 C5 80 27 10 D3 30 04  ..wke3.....'..0.
23C0: 01 08 2B EC 30 04 01 C6  80 23 2A 10 D3 30 04 01  ..+.0....#*..0..
23D0: 27 10 D4 30 04 01 0E 27  10 EE 30 04 01 12 52 1E  '..0...'..0...R.
23E0: 80 F0 FF FF 7F F0 FF FF  7F 65 6E 30 38 45 1E 80  .........en08E..
23F0: F0 FF FF 7F F0 FF FF 7F  65 6E 30 39 04 80 2B EF  ........en09..+.
2400: 30 04 01 C7 80 23 52 1E  80 F0 FF FF 7F F0 FF FF  0....#R.........
2410: 7F 65 6E 30 39 45 1E 80  F0 FF FF 7F F0 FF FF 7F  .en09E..........
2420: 65 6E 31 30 04 80 81 00  EC 30 04 01 5B C4 80 EC  en10.....0..[...
2430: 30 04 01 EC 30 04 01 77  6B 65 34 1C C8 80 52 1E  0...0..wke4...R.
2440: 80 F0 FF FF 7F F0 FF FF  7F 65 6E 31 30 45 1E 80  .........en10E..
2450: F0 FF FF 7F F0 FF FF 7F  65 6E 31 32 04 80 2B EE  ........en12..+.
2460: 30 04 01 C9 80 1C 09 80  27 10 EE 30 04 01 13 1C  0.......'..0....
2470: 83 80 1A F4 27 1C 0A 80  81 01 EC 30 04 01 52 1E  ....'......0..R.
2480: 80 F0 FF FF 7F F0 FF FF  7F 65 6E 31 32 45 1E 80  .........en12E..
2490: F0 FF FF 7F F0 FF FF 7F  30 62 6C 66 04 80 5C 00  ........0blf..\.
24A0: 04 80 5C 01 04 80 5C 02  AF 80 5C 03 AF 80 9A 46  ..\...\...\....F
24B0: 00 45 0B 80 F0 FF FF 7F  F0 FF FF 7F 66 64 69 32  .E..........fdi2
24C0: 04 80 21 00 1B                                    ..!..           
```

#### Opcodes

```
  0: 0x012D [0x42] SET_CLI_EVENT_CANCEL_DATA()
  1: 0x012E [0x1A] CALL_SUBROUTINE(address=0x27F4)
  2: 0x0131 [0x46] CAMERA_CONTROL: Disable user control
  3: 0x0133 [0x38] SET_CLIENT_EVENT_MODE(mode=19*)
  4: 0x0136 [0x79] LocalPlayer looks at LocalPlayer (Basic look)
  5: 0x0140 [0x27] REQ_SET(priority=0x10, entity_id=Aphmau (ID: 17051884/0x010430EC), tag_num=0x04)
  6: 0x0147 [0x27] REQ_SET(priority=0x10, entity_id=Ovjang (ID: 17051885/0x010430ED), tag_num=0x04)
  7: 0x014E [0x27] REQ_SET(priority=0x10, entity_id=Ovjang (ID: 17051899/0x010430FB), tag_num=0x02)
  8: 0x0155 [0x27] REQ_SET(priority=0x10, entity_id=Mnejing (ID: 17051886/0x010430EE), tag_num=0x04)
  9: 0x015C [0x27] REQ_SET(priority=0x10, entity_id=Rishfee (ID: 17051887/0x010430EF), tag_num=0x04)
 10: 0x0163 [0x27] REQ_SET(priority=0x10, entity_id=Gessho (ID: 17051888/0x010430F0), tag_num=0x04)
 11: 0x016A [0x27] REQ_SET(priority=0x10, entity_id=Gulool Ja Ja (ID: 17051889/0x010430F1), tag_num=0x04)
 12: 0x0171 [0x27] REQ_SET(priority=0x10, entity_id=Gaheel Ja (ID: 17051890/0x010430F2), tag_num=0x04)
 13: 0x0178 [0x27] REQ_SET(priority=0x10, entity_id=Molaal Ja (ID: 17051891/0x010430F3), tag_num=0x04)
 14: 0x017F [0x27] REQ_SET(priority=0x10, entity_id=Bakool Ja (ID: 17051892/0x010430F4), tag_num=0x04)
 15: 0x0186 [0x27] REQ_SET(priority=0x10, entity_id=Ratol Ja (ID: 17051893/0x010430F5), tag_num=0x04)
 16: 0x018D [0x27] REQ_SET(priority=0x10, entity_id=Unnamed NPC (ID: 17051898/0x010430FA), tag_num=0x04)
 17: 0x0194 [0x27] REQ_SET(priority=0x10, entity_id=Gaheel Ja (ID: 17051930/0x0104311A), tag_num=0x02)
 18: 0x019B [0x92] Aphmau (ID: 17051884/0x010430EC)->Render.Flags3 ^= 0x01
 19: 0x01A1 [0x92] Ovjang (ID: 17051885/0x010430ED)->Render.Flags3 ^= 0x01
 20: 0x01A7 [0x92] Ovjang (ID: 17051899/0x010430FB)->Render.Flags3 ^= 0x01
 21: 0x01AD [0x92] Mnejing (ID: 17051886/0x010430EE)->Render.Flags3 ^= 0x01
 22: 0x01B3 [0x92] Rishfee (ID: 17051887/0x010430EF)->Render.Flags3 ^= 0x01
 23: 0x01B9 [0x92] Gessho (ID: 17051888/0x010430F0)->Render.Flags3 ^= 0x01
 24: 0x01BF [0x92] Gulool Ja Ja (ID: 17051889/0x010430F1)->Render.Flags3 ^= 0x01
 25: 0x01C5 [0x92] Gaheel Ja (ID: 17051890/0x010430F2)->Render.Flags3 ^= 0x01
 26: 0x01CB [0x92] Molaal Ja (ID: 17051891/0x010430F3)->Render.Flags3 ^= 0x01
 27: 0x01D1 [0x92] Bakool Ja (ID: 17051892/0x010430F4)->Render.Flags3 ^= 0x01
 28: 0x01D7 [0x92] Ratol Ja (ID: 17051893/0x010430F5)->Render.Flags3 ^= 0x01
 29: 0x01DD [0x92] Unnamed NPC (ID: 17051898/0x010430FA)->Render.Flags3 ^= 0x01
 30: 0x01E3 [0x92] Gaheel Ja (ID: 17051930/0x0104311A)->Render.Flags3 ^= 0x01
 31: 0x01E9 [0x94] LocalPlayer->Render.Flags3 ^= 0x01
 32: 0x01EF [0x94] Aphmau (ID: 17051884/0x010430EC)->Render.Flags3 ^= 0x01
 33: 0x01F5 [0x94] Ovjang (ID: 17051885/0x010430ED)->Render.Flags3 ^= 0x01
 34: 0x01FB [0x94] Ovjang (ID: 17051899/0x010430FB)->Render.Flags3 ^= 0x01
 35: 0x0201 [0x94] Mnejing (ID: 17051886/0x010430EE)->Render.Flags3 ^= 0x01
 36: 0x0207 [0x94] Rishfee (ID: 17051887/0x010430EF)->Render.Flags3 ^= 0x01
 37: 0x020D [0x94] Gessho (ID: 17051888/0x010430F0)->Render.Flags3 ^= 0x01
 38: 0x0213 [0x94] Gulool Ja Ja (ID: 17051889/0x010430F1)->Render.Flags3 ^= 0x01
 39: 0x0219 [0x94] Gaheel Ja (ID: 17051890/0x010430F2)->Render.Flags3 ^= 0x01
 40: 0x021F [0x94] Molaal Ja (ID: 17051891/0x010430F3)->Render.Flags3 ^= 0x01
 41: 0x0225 [0x94] Bakool Ja (ID: 17051892/0x010430F4)->Render.Flags3 ^= 0x01
 42: 0x022B [0x94] Ratol Ja (ID: 17051893/0x010430F5)->Render.Flags3 ^= 0x01
 43: 0x0231 [0x94] Unnamed NPC (ID: 17051898/0x010430FA)->Render.Flags3 ^= 0x01
 44: 0x0237 [0x94] Gaheel Ja (ID: 17051930/0x0104311A)->Render.Flags3 ^= 0x01
 45: 0x023D [0x29] REQ_SET_WAIT(priority=0x10, entity_id=LocalPlayer, tag_num=0x0C)
 46: 0x0244 [0x29] REQ_SET_WAIT(priority=0x10, entity_id=Aphmau (ID: 17051884/0x010430EC), tag_num=0x0C)
 47: 0x024B [0x29] REQ_SET_WAIT(priority=0x10, entity_id=Ovjang (ID: 17051885/0x010430ED), tag_num=0x0C)
 48: 0x0252 [0x29] REQ_SET_WAIT(priority=0x10, entity_id=Ovjang (ID: 17051899/0x010430FB), tag_num=0x09)
 49: 0x0259 [0x29] REQ_SET_WAIT(priority=0x10, entity_id=Mnejing (ID: 17051886/0x010430EE), tag_num=0x0C)
 50: 0x0260 [0x29] REQ_SET_WAIT(priority=0x10, entity_id=Rishfee (ID: 17051887/0x010430EF), tag_num=0x0D)
 51: 0x0267 [0x29] REQ_SET_WAIT(priority=0x10, entity_id=Gessho (ID: 17051888/0x010430F0), tag_num=0x09)
 52: 0x026E [0x29] REQ_SET_WAIT(priority=0x10, entity_id=Gulool Ja Ja (ID: 17051889/0x010430F1), tag_num=0x09)
 53: 0x0275 [0x29] REQ_SET_WAIT(priority=0x10, entity_id=Gaheel Ja (ID: 17051890/0x010430F2), tag_num=0x0B)
 54: 0x027C [0x29] REQ_SET_WAIT(priority=0x10, entity_id=Molaal Ja (ID: 17051891/0x010430F3), tag_num=0x09)
 55: 0x0283 [0x29] REQ_SET_WAIT(priority=0x10, entity_id=Bakool Ja (ID: 17051892/0x010430F4), tag_num=0x09)
 56: 0x028A [0x29] REQ_SET_WAIT(priority=0x10, entity_id=Ratol Ja (ID: 17051893/0x010430F5), tag_num=0x09)
 57: 0x0291 [0x29] REQ_SET_WAIT(priority=0x10, entity_id=Unnamed NPC (ID: 17051898/0x010430FA), tag_num=0x0C)
 58: 0x0298 [0x29] REQ_SET_WAIT(priority=0x10, entity_id=Gaheel Ja (ID: 17051930/0x0104311A), tag_num=0x0A)
 59: 0x029F [0x80] LOAD_WAIT(entity=LocalPlayer)
 60: 0x02A4 [0x80] LOAD_WAIT(entity=Aphmau (ID: 17051884/0x010430EC))
 61: 0x02A9 [0x80] LOAD_WAIT(entity=Ovjang (ID: 17051885/0x010430ED))
 62: 0x02AE [0x80] LOAD_WAIT(entity=Ovjang (ID: 17051899/0x010430FB))
 63: 0x02B3 [0x80] LOAD_WAIT(entity=Mnejing (ID: 17051886/0x010430EE))
 64: 0x02B8 [0x80] LOAD_WAIT(entity=Rishfee (ID: 17051887/0x010430EF))
 65: 0x02BD [0x80] LOAD_WAIT(entity=Gessho (ID: 17051888/0x010430F0))
 66: 0x02C2 [0x80] LOAD_WAIT(entity=Gulool Ja Ja (ID: 17051889/0x010430F1))
 67: 0x02C7 [0x80] LOAD_WAIT(entity=Gaheel Ja (ID: 17051890/0x010430F2))
 68: 0x02CC [0x80] LOAD_WAIT(entity=Molaal Ja (ID: 17051891/0x010430F3))
 69: 0x02D1 [0x80] LOAD_WAIT(entity=Bakool Ja (ID: 17051892/0x010430F4))
 70: 0x02D6 [0x80] LOAD_WAIT(entity=Ratol Ja (ID: 17051893/0x010430F5))
 71: 0x02DB [0x80] LOAD_WAIT(entity=Unnamed NPC (ID: 17051898/0x010430FA))
 72: 0x02E0 [0x80] LOAD_WAIT(entity=Gaheel Ja (ID: 17051930/0x0104311A))
 73: 0x02E5 [0x1C] WAIT(15* ticks)
 74: 0x02E8 [0x5B] LOAD_EXT_SCHEDULER: Load scheduler "hi00" with entities [Gessho (ID: 17051888/0x010430F0), Gessho (ID: 17051888/0x010430F0)], work=972*
 75: 0x02F7 [0x5B] LOAD_EXT_SCHEDULER: Load scheduler "hi00" with entities [Bakool Ja (ID: 17051892/0x010430F4), Bakool Ja (ID: 17051892/0x010430F4)], work=974*
 76: 0x0306 [0x5B] LOAD_EXT_SCHEDULER: Load scheduler "hi00" with entities [Ratol Ja (ID: 17051893/0x010430F5), Ratol Ja (ID: 17051893/0x010430F5)], work=978*
 77: 0x0315 [0x5B] LOAD_EXT_SCHEDULER: Load scheduler "ry00" with entities [Gaheel Ja (ID: 17051890/0x010430F2), Gaheel Ja (ID: 17051890/0x010430F2)], work=975*
 78: 0x0324 [0x5B] LOAD_EXT_SCHEDULER: Load scheduler "ry00" with entities [Ovjang (ID: 17051885/0x010430ED), Ovjang (ID: 17051885/0x010430ED)], work=951*
 79: 0x0333 [0x5B] LOAD_EXT_SCHEDULER: Load scheduler "hia0" with entities [Unnamed NPC (ID: 17051898/0x010430FA), Unnamed NPC (ID: 17051898/0x010430FA)], work=1005*
 80: 0x0342 [0x5B] LOAD_EXT_SCHEDULER: Load scheduler "hi00" with entities [Aphmau (ID: 17051884/0x010430EC), Aphmau (ID: 17051884/0x010430EC)], work=943*
 81: 0x0351 [0x5B] LOAD_EXT_SCHEDULER: Load scheduler "hi00" with entities [Rishfee (ID: 17051887/0x010430EF), Rishfee (ID: 17051887/0x010430EF)], work=961*
 82: 0x0360 [0x5B] LOAD_EXT_SCHEDULER: Load scheduler "hi00" with entities [Mnejing (ID: 17051886/0x010430EE), Mnejing (ID: 17051886/0x010430EE)], work=950*
 83: 0x036F [0x5B] LOAD_EXT_SCHEDULER: Load scheduler "hil2" with entities [Gaheel Ja (ID: 17051930/0x0104311A), Gaheel Ja (ID: 17051930/0x0104311A)], work=1038*
 84: 0x037E [0x29] REQ_SET_WAIT(priority=0x10, entity_id=LocalPlayer, tag_num=0x14)
 85: 0x0385 [0x5B] LOAD_EXT_SCHEDULER: Load scheduler 0xFEFEFE00 with entities [Gaheel Ja (ID: 17051890/0x010430F2), Gaheel Ja (ID: 17051890/0x010430F2)], work=1038*
 86: 0x0394 [0x5B] LOAD_EXT_SCHEDULER: Load scheduler 0xFEFEFE00 with entities [Gaheel Ja (ID: 17051890/0x010430F2), Gaheel Ja (ID: 17051890/0x010430F2)], work=1039*
 87: 0x03A3 [0x5B] LOAD_EXT_SCHEDULER: Load scheduler 0xFEFEFE00 with entities [Gaheel Ja (ID: 17051890/0x010430F2), Gaheel Ja (ID: 17051890/0x010430F2)], work=1040*
 88: 0x03B2 [0x5B] LOAD_EXT_SCHEDULER: Load scheduler 0xFEFEFE00 with entities [Gaheel Ja (ID: 17051890/0x010430F2), Gaheel Ja (ID: 17051890/0x010430F2)], work=1041*
 89: 0x03C1 [0x5B] LOAD_EXT_SCHEDULER: Load scheduler 0xFEFEFE00 with entities [Unnamed NPC (ID: 17051898/0x010430FA), Unnamed NPC (ID: 17051898/0x010430FA)], work=1006*
 90: 0x03D0 [0x5B] LOAD_EXT_SCHEDULER: Load scheduler 0xFEFEFE00 with entities [Unnamed NPC (ID: 17051898/0x010430FA), Unnamed NPC (ID: 17051898/0x010430FA)], work=1007*
 91: 0x03DF [0x5B] LOAD_EXT_SCHEDULER: Load scheduler 0xFEFEFE00 with entities [Unnamed NPC (ID: 17051898/0x010430FA), Unnamed NPC (ID: 17051898/0x010430FA)], work=1008*
 92: 0x03EE [0x5B] LOAD_EXT_SCHEDULER: Load scheduler 0xFEFEFE00 with entities [Unnamed NPC (ID: 17051898/0x010430FA), Unnamed NPC (ID: 17051898/0x010430FA)], work=1044*
 93: 0x03FD [0x5B] LOAD_EXT_SCHEDULER: Load scheduler 0xFEFEFE00 with entities [Gaheel Ja (ID: 17051930/0x0104311A), Gaheel Ja (ID: 17051930/0x0104311A)], work=1038*
 94: 0x040C [0x5B] LOAD_EXT_SCHEDULER: Load scheduler 0xFEFEFE00 with entities [Gaheel Ja (ID: 17051930/0x0104311A), Gaheel Ja (ID: 17051930/0x0104311A)], work=1039*
 95: 0x041B [0x5B] LOAD_EXT_SCHEDULER: Load scheduler 0xFEFEFE00 with entities [Gaheel Ja (ID: 17051930/0x0104311A), Gaheel Ja (ID: 17051930/0x0104311A)], work=1040*
 96: 0x042A [0x5B] LOAD_EXT_SCHEDULER: Load scheduler 0xFEFEFE00 with entities [Gaheel Ja (ID: 17051930/0x0104311A), Gaheel Ja (ID: 17051930/0x0104311A)], work=1041*
 97: 0x0439 [0x5C] MUSIC_CONTROL: Set Idle (Day) music to song 173*
 98: 0x043D [0x5C] MUSIC_CONTROL: Set Idle (Night) music to song 173*
 99: 0x0441 [0x9A] WAIT_MUSIC_SERVER()
100: 0x0442 [0x45] LOAD_SCHEDULED_TASK: Load scheduler "hi00" with entities [LocalPlayer, LocalPlayer], work=[278*, 0*]
101: 0x0453 [0x1C] WAIT(15* ticks)
102: 0x0456 [0x1A] CALL_SUBROUTINE(address=0x27D3)
103: 0x0459 [0x1A] CALL_SUBROUTINE(address=0x24C4)
104: 0x045C [0x1C] WAIT(420* ticks)
105: 0x045F [0x7C] Rishfee (ID: 17051887/0x010430EF)->Render.Flags2 |= 0x00
106: 0x0465 [0x2B] Rishfee (ID: 17051887/0x010430EF) [7835*]:
    → "!"
107: 0x046C [0x23] WAIT_FOR_DIALOG_INTERACTION
108: 0x046D [0x7C] Rishfee (ID: 17051887/0x010430EF)->Render.Flags2 |= 0x01
109: 0x0473 [0x52] END_LOAD_SCHEDULER: End scheduler "hi00" with entities [LocalPlayer, LocalPlayer], work=278*
110: 0x0482 [0x45] LOAD_SCHEDULED_TASK: Load scheduler "hi03" with entities [LocalPlayer, LocalPlayer], work=[278*, 0*]
111: 0x0493 [0x1C] WAIT(45* ticks)
112: 0x0496 [0x2B] Rishfee (ID: 17051887/0x010430EF) [7836*]:
    → "Wait... I can hear Mamool Ja talking up ahead..."
113: 0x049D [0x23] WAIT_FOR_DIALOG_INTERACTION
114: 0x049E [0x52] END_LOAD_SCHEDULER: End scheduler "hi03" with entities [LocalPlayer, LocalPlayer], work=278*
115: 0x04AD [0x45] LOAD_SCHEDULED_TASK: Load scheduler "hi04" with entities [LocalPlayer, LocalPlayer], work=[278*, 0*]
116: 0x04BE [0x2B] Aphmau (ID: 17051884/0x010430EC) [7837*]:
    → "Can you understand what they're saying?"
117: 0x04C5 [0x23] WAIT_FOR_DIALOG_INTERACTION
118: 0x04C6 [0x2B] Rishfee (ID: 17051887/0x010430EF) [7838*]:
    → "I know a little of their language..."
119: 0x04CD [0x23] WAIT_FOR_DIALOG_INTERACTION
120: 0x04CE [0x52] END_LOAD_SCHEDULER: End scheduler "hi04" with entities [LocalPlayer, LocalPlayer], work=278*
121: 0x04DD [0x45] LOAD_SCHEDULED_TASK: Load scheduler "hi05" with entities [LocalPlayer, LocalPlayer], work=[278*, 0*]
122: 0x04EE [0x2B] Mnejing (ID: 17051886/0x010430EE) [7839*]:
    → "Translate for us."
123: 0x04F5 [0x23] WAIT_FOR_DIALOG_INTERACTION
124: 0x04F6 [0x52] END_LOAD_SCHEDULER: End scheduler "hi05" with entities [LocalPlayer, LocalPlayer], work=278*
125: 0x0505 [0x45] LOAD_SCHEDULED_TASK: Load scheduler "hi06" with entities [LocalPlayer, LocalPlayer], work=[278*, 0*]
126: 0x0516 [0x2B] Rishfee (ID: 17051887/0x010430EF) [7840*]:
    → ""Doubt, there is not... For what we have long searched, it must be.""
127: 0x051D [0x23] WAIT_FOR_DIALOG_INTERACTION
128: 0x051E [0x1A] CALL_SUBROUTINE(address=0x27F4)
129: 0x0521 [0x1C] WAIT(30* ticks)
130: 0x0524 [0x52] END_LOAD_SCHEDULER: End scheduler "hi06" with entities [LocalPlayer, LocalPlayer], work=278*
131: 0x0533 [0x45] LOAD_SCHEDULED_TASK: Load scheduler "0blf" with entities [LocalPlayer, LocalPlayer], work=[278*, 0*]
132: 0x0544 [0x48] [System] [8058*]:
    → "@@"
133: 0x0547 [0x23] WAIT_FOR_DIALOG_INTERACTION
134: 0x0548 [0x45] LOAD_SCHEDULED_TASK: Load scheduler "hi07" with entities [LocalPlayer, LocalPlayer], work=[278*, 0*]
135: 0x0559 [0x1C] WAIT(15* ticks)
136: 0x055C [0x1A] CALL_SUBROUTINE(address=0x27D3)
137: 0x055F [0x55] WAIT_LOAD_SCHEDULER: Wait for scheduler "hi07" with entities [LocalPlayer, LocalPlayer], work=278*
138: 0x056E [0x45] LOAD_SCHEDULED_TASK: Load scheduler "0t00" with entities [LocalPlayer, LocalPlayer], work=[278*, 0*]
139: 0x057F [0x55] WAIT_LOAD_SCHEDULER: Wait for scheduler "0t00" with entities [LocalPlayer, LocalPlayer], work=278*
140: 0x058E [0x45] LOAD_SCHEDULED_TASK: Load scheduler "hi08" with entities [LocalPlayer, LocalPlayer], work=[278*, 0*]
141: 0x059F [0x2B] Ratol Ja (ID: 17051893/0x010430F5) [7841*]:
    → "Meant to threaten us, is this toy?"
142: 0x05A6 [0x23] WAIT_FOR_DIALOG_INTERACTION
143: 0x05A7 [0x52] END_LOAD_SCHEDULER: End scheduler "hi08" with entities [LocalPlayer, LocalPlayer], work=278*
144: 0x05B6 [0x45] LOAD_SCHEDULED_TASK: Load scheduler "hi09" with entities [LocalPlayer, LocalPlayer], work=[278*, 0*]
145: 0x05C7 [0x5B] LOAD_EXT_SCHEDULER: Load scheduler "hi01" with entities [Bakool Ja (ID: 17051892/0x010430F4), Bakool Ja (ID: 17051892/0x010430F4)], work=974*
146: 0x05D6 [0x2B] Bakool Ja (ID: 17051892/0x010430F4) [7842*]:
    → "Hmph... Dangerous, it does not seem..."
147: 0x05DD [0x23] WAIT_FOR_DIALOG_INTERACTION
148: 0x05DE [0x5B] LOAD_EXT_SCHEDULER: Load scheduler "hi02" with entities [Bakool Ja (ID: 17051892/0x010430F4), Bakool Ja (ID: 17051892/0x010430F4)], work=974*
149: 0x05ED [0x52] END_LOAD_SCHEDULER: End scheduler "hi09" with entities [LocalPlayer, LocalPlayer], work=278*
150: 0x05FC [0x45] LOAD_SCHEDULED_TASK: Load scheduler "hi10" with entities [LocalPlayer, LocalPlayer], work=[278*, 0*]
151: 0x060D [0x5B] LOAD_EXT_SCHEDULER: Load scheduler "thk0" with entities [Molaal Ja (ID: 17051891/0x010430F3), Molaal Ja (ID: 17051891/0x010430F3)], work=816*
152: 0x061C [0x2B] Molaal Ja (ID: 17051891/0x010430F3) [7843*]:
    → "Hsss...hsss..."
153: 0x0623 [0x23] WAIT_FOR_DIALOG_INTERACTION
154: 0x0624 [0x2B] Molaal Ja (ID: 17051891/0x010430F3) [7844*]:
    → "The intention of the Aht Urhgan leaders, that is."
155: 0x062B [0x23] WAIT_FOR_DIALOG_INTERACTION
156: 0x062C [0x5B] LOAD_EXT_SCHEDULER: Load scheduler "thk1" with entities [Molaal Ja (ID: 17051891/0x010430F3), Molaal Ja (ID: 17051891/0x010430F3)], work=816*
157: 0x063B [0x1C] WAIT(15* ticks)
158: 0x063E [0x52] END_LOAD_SCHEDULER: End scheduler "hi10" with entities [LocalPlayer, LocalPlayer], work=278*
159: 0x064D [0x45] LOAD_SCHEDULED_TASK: Load scheduler "hi11" with entities [LocalPlayer, LocalPlayer], work=[278*, 0*]
160: 0x065E [0x2B] Molaal Ja (ID: 17051891/0x010430F3) [7845*]:
    → "The cunning tricks and devious plans they have used against us, forgotten have you?"
161: 0x0665 [0x23] WAIT_FOR_DIALOG_INTERACTION
162: 0x0666 [0x5B] LOAD_EXT_SCHEDULER: Load scheduler "ry01" with entities [Gaheel Ja (ID: 17051890/0x010430F2), Gaheel Ja (ID: 17051890/0x010430F2)], work=975*
163: 0x0675 [0x5B] LOAD_EXT_SCHEDULER: Load scheduler "ry01" with entities [Ovjang (ID: 17051885/0x010430ED), Ovjang (ID: 17051885/0x010430ED)], work=951*
164: 0x0684 [0x45] LOAD_SCHEDULED_TASK: Load scheduler "00se" with entities [LocalPlayer, LocalPlayer], work=[278*, 0*]
165: 0x0695 [0x1C] WAIT(30* ticks)
166: 0x0698 [0x52] END_LOAD_SCHEDULER: End scheduler "hi11" with entities [LocalPlayer, LocalPlayer], work=278*
167: 0x06A7 [0x45] LOAD_SCHEDULED_TASK: Load scheduler "hi12" with entities [LocalPlayer, LocalPlayer], work=[278*, 0*]
168: 0x06B8 [0x5B] LOAD_EXT_SCHEDULER: Load scheduler 0xFEFEFE00 with entities [Rishfee (ID: 17051887/0x010430EF), Rishfee (ID: 17051887/0x010430EF)], work=961*
169: 0x06C7 [0x5B] LOAD_EXT_SCHEDULER: Load scheduler 0xFEFEFE00 with entities [Aphmau (ID: 17051884/0x010430EC), Aphmau (ID: 17051884/0x010430EC)], work=943*
170: 0x06D6 [0x2B] Gaheel Ja (ID: 17051890/0x010430F2) [7846*]:
    → "Even so. To fear in this frail contraption, what is there?"
171: 0x06DD [0x23] WAIT_FOR_DIALOG_INTERACTION
172: 0x06DE [0x53] WAIT_SCHEDULER_TASK: Wait for scheduler "ry01" with entities [Ovjang (ID: 17051885/0x010430ED), Ovjang (ID: 17051885/0x010430ED)]
173: 0x06EB [0x5B] LOAD_EXT_SCHEDULER: Load scheduler "hi01" with entities [Rishfee (ID: 17051887/0x010430EF), Rishfee (ID: 17051887/0x010430EF)], work=961*
174: 0x06FA [0x5B] LOAD_EXT_SCHEDULER: Load scheduler "hi01" with entities [Aphmau (ID: 17051884/0x010430EC), Aphmau (ID: 17051884/0x010430EC)], work=943*
175: 0x0709 [0x03] Work_Zone[2] = 238*
176: 0x070E [0x27] REQ_SET(priority=0x10, entity_id=??? (ID: 17051859/0x010430D3), tag_num=0x08)
177: 0x0715 [0x52] END_LOAD_SCHEDULER: End scheduler "hi12" with entities [LocalPlayer, LocalPlayer], work=278*
178: 0x0724 [0x45] LOAD_SCHEDULED_TASK: Load scheduler "hi13" with entities [LocalPlayer, LocalPlayer], work=[278*, 0*]
179: 0x0735 [0x1C] WAIT(20* ticks)
180: 0x0738 [0x7C] Aphmau (ID: 17051884/0x010430EC)->Render.Flags2 |= 0x00
181: 0x073E [0x2B] Aphmau (ID: 17051884/0x010430EC) [7847*]:
    → "!!!"
182: 0x0745 [0x23] WAIT_FOR_DIALOG_INTERACTION
183: 0x0746 [0x2A] GET_REQ_LEVEL(level=16, entity_id=??? (ID: 17051859/0x010430D3))
184: 0x074C [0x7C] Aphmau (ID: 17051884/0x010430EC)->Render.Flags2 |= 0x01
185: 0x0752 [0x52] END_LOAD_SCHEDULER: End scheduler "hi13" with entities [LocalPlayer, LocalPlayer], work=278*
186: 0x0761 [0x45] LOAD_SCHEDULED_TASK: Load scheduler "hi15" with entities [LocalPlayer, LocalPlayer], work=[278*, 0*]
187: 0x0772 [0x2B] Mnejing (ID: 17051886/0x010430EE) [7848*]:
    → "(Ovjang.)"
188: 0x0779 [0x23] WAIT_FOR_DIALOG_INTERACTION
189: 0x077A [0x53] WAIT_SCHEDULER_TASK: Wait for scheduler "hi01" with entities [Aphmau (ID: 17051884/0x010430EC), Aphmau (ID: 17051884/0x010430EC)]
190: 0x0787 [0x52] END_LOAD_SCHEDULER: End scheduler "hi15" with entities [LocalPlayer, LocalPlayer], work=278*
191: 0x0796 [0x45] LOAD_SCHEDULED_TASK: Load scheduler "hi16" with entities [LocalPlayer, LocalPlayer], work=[278*, 0*]
192: 0x07A7 [0x2B] Gaheel Ja (ID: 17051890/0x010430F2) [7849*]:
    → "Facts, we have not. Disassemble this gadget, we must."
193: 0x07AE [0x23] WAIT_FOR_DIALOG_INTERACTION
194: 0x07AF [0x52] END_LOAD_SCHEDULER: End scheduler "hi16" with entities [LocalPlayer, LocalPlayer], work=278*
195: 0x07BE [0x45] LOAD_SCHEDULED_TASK: Load scheduler "hi17" with entities [LocalPlayer, LocalPlayer], work=[278*, 0*]
196: 0x07CF [0x5B] LOAD_EXT_SCHEDULER: Load scheduler "ry00" with entities [Gaheel Ja (ID: 17051890/0x010430F2), Gaheel Ja (ID: 17051890/0x010430F2)], work=975*
197: 0x07DE [0x5B] LOAD_EXT_SCHEDULER: Load scheduler "ry00" with entities [Ovjang (ID: 17051885/0x010430ED), Ovjang (ID: 17051885/0x010430ED)], work=951*
198: 0x07ED [0x5B] LOAD_EXT_SCHEDULER: Load scheduler "hi01" with entities [Gessho (ID: 17051888/0x010430F0), Gessho (ID: 17051888/0x010430F0)], work=972*
199: 0x07FC [0x2B] ??? (ID: 17051859/0x010430D3) [7850*]:
    → "That will not be necessary, Lancelord. Not if its secrets are already known."
200: 0x0803 [0x23] WAIT_FOR_DIALOG_INTERACTION
201: 0x0804 [0x52] END_LOAD_SCHEDULER: End scheduler "hi17" with entities [LocalPlayer, LocalPlayer], work=278*
202: 0x0813 [0x45] LOAD_SCHEDULED_TASK: Load scheduler "hi18" with entities [LocalPlayer, LocalPlayer], work=[278*, 0*]
203: 0x0824 [0x2B] Gaheel Ja (ID: 17051890/0x010430F2) [7851*]:
    → "Know these secrets, do you imply?"
204: 0x082B [0x23] WAIT_FOR_DIALOG_INTERACTION
205: 0x082C [0x5B] LOAD_EXT_SCHEDULER: Load scheduler "hi02" with entities [Gessho (ID: 17051888/0x010430F0), Gessho (ID: 17051888/0x010430F0)], work=972*
206: 0x083B [0x52] END_LOAD_SCHEDULER: End scheduler "hi18" with entities [LocalPlayer, LocalPlayer], work=278*
207: 0x084A [0x45] LOAD_SCHEDULED_TASK: Load scheduler "hi19" with entities [LocalPlayer, LocalPlayer], work=[278*, 0*]
208: 0x085B [0x1C] WAIT(30* ticks)
209: 0x085E [0x27] REQ_SET(priority=0x10, entity_id=LocalPlayer, tag_num=0x15)
210: 0x0865 [0x2B] ??? (ID: 17051859/0x010430D3) [7852*]:
    → "I believe I do."
211: 0x086C [0x23] WAIT_FOR_DIALOG_INTERACTION
212: 0x086D [0x52] END_LOAD_SCHEDULER: End scheduler "hi19" with entities [LocalPlayer, LocalPlayer], work=278*
213: 0x087C [0x45] LOAD_SCHEDULED_TASK: Load scheduler "hi20" with entities [LocalPlayer, LocalPlayer], work=[278*, 0*]
214: 0x088D [0x2B] Ratol Ja (ID: 17051893/0x010430F5) [7853*]:
    → "Hmm..."
215: 0x0894 [0x23] WAIT_FOR_DIALOG_INTERACTION
216: 0x0895 [0x52] END_LOAD_SCHEDULER: End scheduler "hi20" with entities [LocalPlayer, LocalPlayer], work=278*
217: 0x08A4 [0x45] LOAD_SCHEDULED_TASK: Load scheduler "hi21" with entities [LocalPlayer, LocalPlayer], work=[278*, 0*]
218: 0x08B5 [0x5B] LOAD_EXT_SCHEDULER: Load scheduler "hi01" with entities [Ratol Ja (ID: 17051893/0x010430F5), Ratol Ja (ID: 17051893/0x010430F5)], work=978*
219: 0x08C4 [0x1C] WAIT(45* ticks)
220: 0x08C7 [0x2B] Ratol Ja (ID: 17051893/0x010430F5) [7854*]:
    → "To deceive us, you attempt."
221: 0x08CE [0x23] WAIT_FOR_DIALOG_INTERACTION
222: 0x08CF [0x52] END_LOAD_SCHEDULER: End scheduler "hi21" with entities [LocalPlayer, LocalPlayer], work=278*
223: 0x08DE [0x45] LOAD_SCHEDULED_TASK: Load scheduler "hi22" with entities [LocalPlayer, LocalPlayer], work=[278*, 0*]
224: 0x08EF [0x2B] Ratol Ja (ID: 17051893/0x010430F5) [7855*]:
    → "Allow this charade, we will not. Stay silent, outsider, you shall."
225: 0x08F6 [0x23] WAIT_FOR_DIALOG_INTERACTION
226: 0x08F7 [0x2B] Gulool Ja Ja (ID: 17051889/0x010430F1) [7856*]:
    → "Grrrrrr..."
227: 0x08FE [0x23] WAIT_FOR_DIALOG_INTERACTION
228: 0x08FF [0x5B] LOAD_EXT_SCHEDULER: Load scheduler "osb0" with entities [Molaal Ja (ID: 17051891/0x010430F3), Molaal Ja (ID: 17051891/0x010430F3)], work=816*
229: 0x090E [0x1C] WAIT(15* ticks)
230: 0x0911 [0x52] END_LOAD_SCHEDULER: End scheduler "hi22" with entities [LocalPlayer, LocalPlayer], work=278*
231: 0x0920 [0x45] LOAD_SCHEDULED_TASK: Load scheduler "hi23" with entities [LocalPlayer, LocalPlayer], work=[278*, 0*]
232: 0x0931 [0x5B] LOAD_EXT_SCHEDULER: Load scheduler "hi02" with entities [Ratol Ja (ID: 17051893/0x010430F5), Ratol Ja (ID: 17051893/0x010430F5)], work=978*
233: 0x0940 [0x2B] Ratol Ja (ID: 17051893/0x010430F5) [7857*]:
    → "!"
234: 0x0947 [0x23] WAIT_FOR_DIALOG_INTERACTION
235: 0x0948 [0x52] END_LOAD_SCHEDULER: End scheduler "hi23" with entities [LocalPlayer, LocalPlayer], work=278*
236: 0x0957 [0x45] LOAD_SCHEDULED_TASK: Load scheduler "hi24" with entities [LocalPlayer, LocalPlayer], work=[278*, 0*]
237: 0x0968 [0x5B] LOAD_EXT_SCHEDULER: Load scheduler "tlf0" with entities [Gulool Ja Ja (ID: 17051889/0x010430F1), Gulool Ja Ja (ID: 17051889/0x010430F1)], work=899*
238: 0x0977 [0x2B] Gulool Ja Ja (ID: 17051889/0x010430F1) [7858*]:
    → "Over, this is not."
239: 0x097E [0x23] WAIT_FOR_DIALOG_INTERACTION
240: 0x097F [0x2B] Gulool Ja Ja (ID: 17051889/0x010430F1) [7859*]:
    → "In the outsider's opinion, we are interested."
241: 0x0986 [0x23] WAIT_FOR_DIALOG_INTERACTION
242: 0x0987 [0x5B] LOAD_EXT_SCHEDULER: Load scheduler "tlf1" with entities [Gulool Ja Ja (ID: 17051889/0x010430F1), Gulool Ja Ja (ID: 17051889/0x010430F1)], work=899*
243: 0x0996 [0x52] END_LOAD_SCHEDULER: End scheduler "hi24" with entities [LocalPlayer, LocalPlayer], work=278*
244: 0x09A5 [0x45] LOAD_SCHEDULED_TASK: Load scheduler "hi25" with entities [LocalPlayer, LocalPlayer], work=[278*, 0*]
245: 0x09B6 [0x2B] Molaal Ja (ID: 17051891/0x010430F3) [7860*]:
    → "Autarch..."
246: 0x09BD [0x23] WAIT_FOR_DIALOG_INTERACTION
247: 0x09BE [0x52] END_LOAD_SCHEDULER: End scheduler "hi25" with entities [LocalPlayer, LocalPlayer], work=278*
248: 0x09CD [0x45] LOAD_SCHEDULED_TASK: Load scheduler "hi26" with entities [LocalPlayer, LocalPlayer], work=[278*, 0*]
249: 0x09DE [0x5B] LOAD_EXT_SCHEDULER: Load scheduler "tlm0" with entities [Gulool Ja Ja (ID: 17051889/0x010430F1), Gulool Ja Ja (ID: 17051889/0x010430F1)], work=899*
250: 0x09ED [0x2B] Gulool Ja Ja (ID: 17051889/0x010430F1) [7861*]:
    → "<Snarl>..."
251: 0x09F4 [0x23] WAIT_FOR_DIALOG_INTERACTION
252: 0x09F5 [0x2B] Gulool Ja Ja (ID: 17051889/0x010430F1) [7862*]:
    → "Bicker for a hundred years, we could. Or instead hear something useful, we may."
253: 0x09FC [0x23] WAIT_FOR_DIALOG_INTERACTION
254: 0x09FD [0x5B] LOAD_EXT_SCHEDULER: Load scheduler "tlm1" with entities [Gulool Ja Ja (ID: 17051889/0x010430F1), Gulool Ja Ja (ID: 17051889/0x010430F1)], work=899*
255: 0x0A0C [0x52] END_LOAD_SCHEDULER: End scheduler "hi26" with entities [LocalPlayer, LocalPlayer], work=278*
256: 0x0A1B [0x45] LOAD_SCHEDULED_TASK: Load scheduler "hi27" with entities [LocalPlayer, LocalPlayer], work=[278*, 0*]
257: 0x0A2C [0x2B] Molaal Ja (ID: 17051891/0x010430F3) [7863*]:
    → "Yes, Autarch..."
258: 0x0A33 [0x23] WAIT_FOR_DIALOG_INTERACTION
259: 0x0A34 [0x52] END_LOAD_SCHEDULER: End scheduler "hi27" with entities [LocalPlayer, LocalPlayer], work=278*
260: 0x0A43 [0x45] LOAD_SCHEDULED_TASK: Load scheduler "hi28" with entities [LocalPlayer, LocalPlayer], work=[278*, 0*]
261: 0x0A54 [0x5B] LOAD_EXT_SCHEDULER: Load scheduler "tlf0" with entities [Gulool Ja Ja (ID: 17051889/0x010430F1), Gulool Ja Ja (ID: 17051889/0x010430F1)], work=899*
262: 0x0A63 [0x2B] Gulool Ja Ja (ID: 17051889/0x010430F1) [7864*]:
    → "Kindred to the brethren of the shining scale, what say you?"
263: 0x0A6A [0x23] WAIT_FOR_DIALOG_INTERACTION
264: 0x0A6B [0x5B] LOAD_EXT_SCHEDULER: Load scheduler "tlf1" with entities [Gulool Ja Ja (ID: 17051889/0x010430F1), Gulool Ja Ja (ID: 17051889/0x010430F1)], work=899*
265: 0x0A7A [0x52] END_LOAD_SCHEDULER: End scheduler "hi28" with entities [LocalPlayer, LocalPlayer], work=278*
266: 0x0A89 [0x45] LOAD_SCHEDULED_TASK: Load scheduler "hi29" with entities [LocalPlayer, LocalPlayer], work=[278*, 0*]
267: 0x0A9A [0x5B] LOAD_EXT_SCHEDULER: Load scheduler "hi00" with entities [Ratol Ja (ID: 17051893/0x010430F5), Ratol Ja (ID: 17051893/0x010430F5)], work=978*
268: 0x0AA9 [0x5B] LOAD_EXT_SCHEDULER: Load scheduler "osb1" with entities [Molaal Ja (ID: 17051891/0x010430F3), Molaal Ja (ID: 17051891/0x010430F3)], work=816*
269: 0x0AB8 [0x5B] LOAD_EXT_SCHEDULER: Load scheduler "hi01" with entities [Gessho (ID: 17051888/0x010430F0), Gessho (ID: 17051888/0x010430F0)], work=972*
270: 0x0AC7 [0x5D] SET_MUSIC_VOLUME(volume=0*, fade_time=120*)
271: 0x0ACC [0x2B] Gessho (ID: 17051888/0x010430F0) [7865*]:
    → "My lord."
272: 0x0AD3 [0x23] WAIT_FOR_DIALOG_INTERACTION
273: 0x0AD4 [0x5B] LOAD_EXT_SCHEDULER: Load scheduler "hi02" with entities [Gessho (ID: 17051888/0x010430F0), Gessho (ID: 17051888/0x010430F0)], work=972*
274: 0x0AE3 [0x2B] Gessho (ID: 17051888/0x010430F0) [7866*]:
    → "If I may..."
275: 0x0AEA [0x23] WAIT_FOR_DIALOG_INTERACTION
276: 0x0AEB [0x5C] MUSIC_CONTROL: Set Idle (Day) music to song 148*
277: 0x0AEF [0x5C] MUSIC_CONTROL: Set Idle (Night) music to song 148*
278: 0x0AF3 [0x9A] WAIT_MUSIC_SERVER()
279: 0x0AF4 [0x53] WAIT_SCHEDULER_TASK: Wait for scheduler "hi02" with entities [Gessho (ID: 17051888/0x010430F0), Gessho (ID: 17051888/0x010430F0)]
280: 0x0B01 [0x5B] LOAD_EXT_SCHEDULER: Load scheduler "hi03" with entities [Gessho (ID: 17051888/0x010430F0), Gessho (ID: 17051888/0x010430F0)], work=972*
281: 0x0B10 [0x52] END_LOAD_SCHEDULER: End scheduler "hi29" with entities [LocalPlayer, LocalPlayer], work=278*
282: 0x0B1F [0x45] LOAD_SCHEDULED_TASK: Load scheduler "hi30" with entities [LocalPlayer, LocalPlayer], work=[278*, 0*]
283: 0x0B30 [0x2B] Gessho (ID: 17051888/0x010430F0) [7867*]:
    → "This is nothing more than a simple puppet."
284: 0x0B37 [0x23] WAIT_FOR_DIALOG_INTERACTION
285: 0x0B38 [0x2B] Gessho (ID: 17051888/0x010430F0) [7868*]:
    → "It is a mechanical creation that belonged to Jalzahn, the former Emperor of Aht Urhgan."
286: 0x0B3F [0x23] WAIT_FOR_DIALOG_INTERACTION
287: 0x0B40 [0x5B] LOAD_EXT_SCHEDULER: Load scheduler "hi05" with entities [Gessho (ID: 17051888/0x010430F0), Gessho (ID: 17051888/0x010430F0)], work=972*
288: 0x0B4F [0x52] END_LOAD_SCHEDULER: End scheduler "hi30" with entities [LocalPlayer, LocalPlayer], work=278*
289: 0x0B5E [0x45] LOAD_SCHEDULED_TASK: Load scheduler "hi31" with entities [LocalPlayer, LocalPlayer], work=[278*, 0*]
290: 0x0B6F [0x5B] LOAD_EXT_SCHEDULER: Load scheduler "tlf0" with entities [Gulool Ja Ja (ID: 17051889/0x010430F1), Gulool Ja Ja (ID: 17051889/0x010430F1)], work=899*
291: 0x0B7E [0x2B] Gulool Ja Ja (ID: 17051889/0x010430F1) [7869*]:
    → "Grrrrrr!"
292: 0x0B85 [0x23] WAIT_FOR_DIALOG_INTERACTION
293: 0x0B86 [0x2B] Gulool Ja Ja (ID: 17051889/0x010430F1) [7870*]:
    → "Jalzahn!"
294: 0x0B8D [0x23] WAIT_FOR_DIALOG_INTERACTION
295: 0x0B8E [0x5B] LOAD_EXT_SCHEDULER: Load scheduler "tlf1" with entities [Gulool Ja Ja (ID: 17051889/0x010430F1), Gulool Ja Ja (ID: 17051889/0x010430F1)], work=899*
296: 0x0B9D [0x52] END_LOAD_SCHEDULER: End scheduler "hi31" with entities [LocalPlayer, LocalPlayer], work=278*
297: 0x0BAC [0x45] LOAD_SCHEDULED_TASK: Load scheduler "hi32" with entities [LocalPlayer, LocalPlayer], work=[278*, 0*]
298: 0x0BBD [0x5B] LOAD_EXT_SCHEDULER: Load scheduler "hi04" with entities [Gessho (ID: 17051888/0x010430F0), Gessho (ID: 17051888/0x010430F0)], work=972*
299: 0x0BCC [0x2B] Gessho (ID: 17051888/0x010430F0) [7871*]:
    → "Yes, my lord."
300: 0x0BD3 [0x23] WAIT_FOR_DIALOG_INTERACTION
301: 0x0BD4 [0x53] WAIT_SCHEDULER_TASK: Wait for scheduler "hi04" with entities [Gessho (ID: 17051888/0x010430F0), Gessho (ID: 17051888/0x010430F0)]
302: 0x0BE1 [0x5B] LOAD_EXT_SCHEDULER: Load scheduler "hi01" with entities [Gessho (ID: 17051888/0x010430F0), Gessho (ID: 17051888/0x010430F0)], work=972*
303: 0x0BF0 [0x2B] Gessho (ID: 17051888/0x010430F0) [7872*]:
    → "It was the first "automaton" in existence--a personal project of Jalzahn's."
304: 0x0BF7 [0x23] WAIT_FOR_DIALOG_INTERACTION
305: 0x0BF8 [0x52] END_LOAD_SCHEDULER: End scheduler "hi32" with entities [LocalPlayer, LocalPlayer], work=278*
306: 0x0C07 [0x45] LOAD_SCHEDULED_TASK: Load scheduler "hi33" with entities [LocalPlayer, LocalPlayer], work=[278*, 0*]
307: 0x0C18 [0x6B] STOP_AND_IDLE: Gessho (ID: 17051888/0x010430F0) stops current action and resets to idle (animation="idl0")
308: 0x0C21 [0x5B] LOAD_EXT_SCHEDULER: Load scheduler "tlf2" with entities [Gulool Ja Ja (ID: 17051889/0x010430F1), Gulool Ja Ja (ID: 17051889/0x010430F1)], work=982*
309: 0x0C30 [0x2B] Gulool Ja Ja (ID: 17051889/0x010430F1) [7873*]:
    → "An invention of our old enemy Jalzahn..."
310: 0x0C37 [0x23] WAIT_FOR_DIALOG_INTERACTION
311: 0x0C38 [0x5B] LOAD_EXT_SCHEDULER: Load scheduler "tlm2" with entities [Gulool Ja Ja (ID: 17051889/0x010430F1), Gulool Ja Ja (ID: 17051889/0x010430F1)], work=982*
312: 0x0C47 [0x2B] Gulool Ja Ja (ID: 17051889/0x010430F1) [7874*]:
    → "Ignore this, we cannot."
313: 0x0C4E [0x23] WAIT_FOR_DIALOG_INTERACTION
314: 0x0C4F [0x5B] LOAD_EXT_SCHEDULER: Load scheduler "tfme" with entities [Gulool Ja Ja (ID: 17051889/0x010430F1), Gulool Ja Ja (ID: 17051889/0x010430F1)], work=982*
315: 0x0C5E [0x52] END_LOAD_SCHEDULER: End scheduler "hi33" with entities [LocalPlayer, LocalPlayer], work=278*
316: 0x0C6D [0x45] LOAD_SCHEDULED_TASK: Load scheduler "hi34" with entities [LocalPlayer, LocalPlayer], work=[278*, 0*]
317: 0x0C7E [0x5B] LOAD_EXT_SCHEDULER: Load scheduler "hi00" with entities [Molaal Ja (ID: 17051891/0x010430F3), Molaal Ja (ID: 17051891/0x010430F3)], work=828*
318: 0x0C8D [0x2B] Molaal Ja (ID: 17051891/0x010430F3) [7875*]:
    → "Even if so, this is... Destroy us, how can it?"
319: 0x0C94 [0x23] WAIT_FOR_DIALOG_INTERACTION
320: 0x0C95 [0x2B] Molaal Ja (ID: 17051891/0x010430F3) [7876*]:
    → "Broken many of these puppets, we have."
321: 0x0C9C [0x23] WAIT_FOR_DIALOG_INTERACTION
322: 0x0C9D [0x52] END_LOAD_SCHEDULER: End scheduler "hi34" with entities [LocalPlayer, LocalPlayer], work=278*
323: 0x0CAC [0x45] LOAD_SCHEDULED_TASK: Load scheduler "hi35" with entities [LocalPlayer, LocalPlayer], work=[278*, 0*]
324: 0x0CBD [0x5B] LOAD_EXT_SCHEDULER: Load scheduler "hi01" with entities [Molaal Ja (ID: 17051891/0x010430F3), Molaal Ja (ID: 17051891/0x010430F3)], work=828*
325: 0x0CCC [0x5B] LOAD_EXT_SCHEDULER: Load scheduler "thk0" with entities [Gessho (ID: 17051888/0x010430F0), Gessho (ID: 17051888/0x010430F0)], work=254*
326: 0x0CDB [0x1C] WAIT(30* ticks)
327: 0x0CDE [0x2B] Gessho (ID: 17051888/0x010430F0) [7877*]:
    → "Allow me to explain..."
328: 0x0CE5 [0x23] WAIT_FOR_DIALOG_INTERACTION
329: 0x0CE6 [0x52] END_LOAD_SCHEDULER: End scheduler "hi35" with entities [LocalPlayer, LocalPlayer], work=278*
330: 0x0CF5 [0x45] LOAD_SCHEDULED_TASK: Load scheduler "hi36" with entities [LocalPlayer, LocalPlayer], work=[278*, 0*]
331: 0x0D06 [0x2B] Gessho (ID: 17051888/0x010430F0) [7878*]:
    → "I have learned some very interesting facts from my observations around the palace."
332: 0x0D0D [0x23] WAIT_FOR_DIALOG_INTERACTION
333: 0x0D0E [0x52] END_LOAD_SCHEDULER: End scheduler "hi36" with entities [LocalPlayer, LocalPlayer], work=278*
334: 0x0D1D [0x45] LOAD_SCHEDULED_TASK: Load scheduler "hi37" with entities [LocalPlayer, LocalPlayer], work=[278*, 0*]
335: 0x0D2E [0x2B] Ratol Ja (ID: 17051893/0x010430F5) [7879*]:
    → "Interesting facts?"
336: 0x0D35 [0x23] WAIT_FOR_DIALOG_INTERACTION
337: 0x0D36 [0x5B] LOAD_EXT_SCHEDULER: Load scheduler "thk1" with entities [Gessho (ID: 17051888/0x010430F0), Gessho (ID: 17051888/0x010430F0)], work=254*
338: 0x0D45 [0x1C] WAIT(15* ticks)
339: 0x0D48 [0x2B] Gessho (ID: 17051888/0x010430F0) [7880*]:
    → "A craftsman known as Ghatsad often passes through the Imperial Whitegate."
340: 0x0D4F [0x23] WAIT_FOR_DIALOG_INTERACTION
341: 0x0D50 [0x52] END_LOAD_SCHEDULER: End scheduler "hi37" with entities [LocalPlayer, LocalPlayer], work=278*
342: 0x0D5F [0x45] LOAD_SCHEDULED_TASK: Load scheduler "hi38" with entities [LocalPlayer, LocalPlayer], work=[278*, 0*]
343: 0x0D70 [0x5B] LOAD_EXT_SCHEDULER: Load scheduler "hi00" with entities [Gessho (ID: 17051888/0x010430F0), Gessho (ID: 17051888/0x010430F0)], work=972*
344: 0x0D7F [0x5B] LOAD_EXT_SCHEDULER: Load scheduler "tlm2" with entities [Gulool Ja Ja (ID: 17051889/0x010430F1), Gulool Ja Ja (ID: 17051889/0x010430F1)], work=982*
345: 0x0D8E [0x2B] Gulool Ja Ja (ID: 17051889/0x010430F1) [7881*]:
    → "Ghatsad? Heard that name, have we?"
346: 0x0D95 [0x23] WAIT_FOR_DIALOG_INTERACTION
347: 0x0D96 [0x5B] LOAD_EXT_SCHEDULER: Load scheduler "tlf2" with entities [Gulool Ja Ja (ID: 17051889/0x010430F1), Gulool Ja Ja (ID: 17051889/0x010430F1)], work=982*
348: 0x0DA5 [0x2B] Gulool Ja Ja (ID: 17051889/0x010430F1) [7882*]:
    → "Heard that name, we have."
349: 0x0DAC [0x23] WAIT_FOR_DIALOG_INTERACTION
350: 0x0DAD [0x5B] LOAD_EXT_SCHEDULER: Load scheduler "tfme" with entities [Gulool Ja Ja (ID: 17051889/0x010430F1), Gulool Ja Ja (ID: 17051889/0x010430F1)], work=982*
351: 0x0DBC [0x52] END_LOAD_SCHEDULER: End scheduler "hi38" with entities [LocalPlayer, LocalPlayer], work=278*
352: 0x0DCB [0x45] LOAD_SCHEDULED_TASK: Load scheduler "hi39" with entities [LocalPlayer, LocalPlayer], work=[278*, 0*]
353: 0x0DDC [0x5B] LOAD_EXT_SCHEDULER: Load scheduler "hip0" with entities [Gessho (ID: 17051888/0x010430F0), Gessho (ID: 17051888/0x010430F0)], work=972*
354: 0x0DEB [0x2B] Gessho (ID: 17051888/0x010430F0) [7883*]:
    → "I would not be surprised. Especially if he was the craftsman who led the development of automatons..."
355: 0x0DF2 [0x23] WAIT_FOR_DIALOG_INTERACTION
356: 0x0DF3 [0x5B] LOAD_EXT_SCHEDULER: Load scheduler "hip1" with entities [Gessho (ID: 17051888/0x010430F0), Gessho (ID: 17051888/0x010430F0)], work=972*
357: 0x0E02 [0x52] END_LOAD_SCHEDULER: End scheduler "hi39" with entities [LocalPlayer, LocalPlayer], work=278*
358: 0x0E11 [0x45] LOAD_SCHEDULED_TASK: Load scheduler "hi40" with entities [LocalPlayer, LocalPlayer], work=[278*, 0*]
359: 0x0E22 [0x6B] STOP_AND_IDLE: Gessho (ID: 17051888/0x010430F0) stops current action and resets to idle (animation="idl0")
360: 0x0E2B [0x5B] LOAD_EXT_SCHEDULER: Load scheduler "ry01" with entities [Gaheel Ja (ID: 17051890/0x010430F2), Gaheel Ja (ID: 17051890/0x010430F2)], work=975*
361: 0x0E3A [0x5B] LOAD_EXT_SCHEDULER: Load scheduler "ry01" with entities [Ovjang (ID: 17051885/0x010430ED), Ovjang (ID: 17051885/0x010430ED)], work=951*
362: 0x0E49 [0x45] LOAD_SCHEDULED_TASK: Load scheduler "00se" with entities [LocalPlayer, LocalPlayer], work=[278*, 0*]
363: 0x0E5A [0x1C] WAIT(45* ticks)
364: 0x0E5D [0x2B] Gaheel Ja (ID: 17051890/0x010430F2) [7884*]:
    → "Then this..."
365: 0x0E64 [0x23] WAIT_FOR_DIALOG_INTERACTION
366: 0x0E65 [0x52] END_LOAD_SCHEDULER: End scheduler "hi40" with entities [LocalPlayer, LocalPlayer], work=278*
367: 0x0E74 [0x45] LOAD_SCHEDULED_TASK: Load scheduler "hi41" with entities [LocalPlayer, LocalPlayer], work=[278*, 0*]
368: 0x0E85 [0x2B] Gessho (ID: 17051888/0x010430F0) [7885*]:
    → "Yes. This is likely his creation."
369: 0x0E8C [0x23] WAIT_FOR_DIALOG_INTERACTION
370: 0x0E8D [0x5B] LOAD_EXT_SCHEDULER: Load scheduler "thk0" with entities [Gessho (ID: 17051888/0x010430F0), Gessho (ID: 17051888/0x010430F0)], work=254*
371: 0x0E9C [0x1C] WAIT(30* ticks)
372: 0x0E9F [0x52] END_LOAD_SCHEDULER: End scheduler "hi41" with entities [LocalPlayer, LocalPlayer], work=278*
373: 0x0EAE [0x45] LOAD_SCHEDULED_TASK: Load scheduler "hi42" with entities [LocalPlayer, LocalPlayer], work=[278*, 0*]
374: 0x0EBF [0x2B] Gessho (ID: 17051888/0x010430F0) [7886*]:
    → "There is more. This man is also the head alchemist for the Aht Urhgan Archaeological Research Institute."
375: 0x0EC6 [0x23] WAIT_FOR_DIALOG_INTERACTION
376: 0x0EC7 [0x2B] Gessho (ID: 17051888/0x010430F0) [7887*]:
    → "An organization that is currently investigating the Ruins of Alzadaal."
377: 0x0ECE [0x23] WAIT_FOR_DIALOG_INTERACTION
378: 0x0ECF [0x52] END_LOAD_SCHEDULER: End scheduler "hi42" with entities [LocalPlayer, LocalPlayer], work=278*
379: 0x0EDE [0x45] LOAD_SCHEDULED_TASK: Load scheduler "hi43" with entities [LocalPlayer, LocalPlayer], work=[278*, 0*]
380: 0x0EEF [0x5B] LOAD_EXT_SCHEDULER: Load scheduler "tlf2" with entities [Gulool Ja Ja (ID: 17051889/0x010430F1), Gulool Ja Ja (ID: 17051889/0x010430F1)], work=982*
381: 0x0EFE [0x2B] Gulool Ja Ja (ID: 17051889/0x010430F1) [7888*]:
    → "This Ghatsad... Both craftsman and alchemist, he is..."
382: 0x0F05 [0x23] WAIT_FOR_DIALOG_INTERACTION
383: 0x0F06 [0x5B] LOAD_EXT_SCHEDULER: Load scheduler "tlm2" with entities [Gulool Ja Ja (ID: 17051889/0x010430F1), Gulool Ja Ja (ID: 17051889/0x010430F1)], work=982*
384: 0x0F15 [0x2B] Gulool Ja Ja (ID: 17051889/0x010430F1) [7889*]:
    → "And historian, as well..."
385: 0x0F1C [0x23] WAIT_FOR_DIALOG_INTERACTION
386: 0x0F1D [0x5B] LOAD_EXT_SCHEDULER: Load scheduler "tfme" with entities [Gulool Ja Ja (ID: 17051889/0x010430F1), Gulool Ja Ja (ID: 17051889/0x010430F1)], work=982*
387: 0x0F2C [0x52] END_LOAD_SCHEDULER: End scheduler "hi43" with entities [LocalPlayer, LocalPlayer], work=278*
388: 0x0F3B [0x45] LOAD_SCHEDULED_TASK: Load scheduler "hi44" with entities [LocalPlayer, LocalPlayer], work=[278*, 0*]
389: 0x0F4C [0x5B] LOAD_EXT_SCHEDULER: Load scheduler "thk1" with entities [Gessho (ID: 17051888/0x010430F0), Gessho (ID: 17051888/0x010430F0)], work=254*
390: 0x0F5B [0x1C] WAIT(20* ticks)
391: 0x0F5E [0x2B] Gessho (ID: 17051888/0x010430F0) [7890*]:
    → "So it appears. What is even more intriguing are the Empire's activities of fifty years ago..."
392: 0x0F65 [0x23] WAIT_FOR_DIALOG_INTERACTION
393: 0x0F66 [0x52] END_LOAD_SCHEDULER: End scheduler "hi44" with entities [LocalPlayer, LocalPlayer], work=278*
394: 0x0F75 [0x45] LOAD_SCHEDULED_TASK: Load scheduler "hi45" with entities [LocalPlayer, LocalPlayer], work=[278*, 0*]
395: 0x0F86 [0x5B] LOAD_EXT_SCHEDULER: Load scheduler "ry00" with entities [Gaheel Ja (ID: 17051890/0x010430F2), Gaheel Ja (ID: 17051890/0x010430F2)], work=975*
396: 0x0F95 [0x5B] LOAD_EXT_SCHEDULER: Load scheduler "ry00" with entities [Ovjang (ID: 17051885/0x010430ED), Ovjang (ID: 17051885/0x010430ED)], work=951*
397: 0x0FA4 [0x5B] LOAD_EXT_SCHEDULER: Load scheduler "tlk0" with entities [Gessho (ID: 17051888/0x010430F0), Gessho (ID: 17051888/0x010430F0)], work=792*
398: 0x0FB3 [0x2B] Gessho (ID: 17051888/0x010430F0) [7891*]:
    → "Even before the invention of automatons, the scholars of the Empire were conducting large-scale investigations of the ruins."
399: 0x0FBA [0x23] WAIT_FOR_DIALOG_INTERACTION
400: 0x0FBB [0x2B] Gessho (ID: 17051888/0x010430F0) [7892*]:
    → "Rumors say that ancient Alzadaal technology gleaned from these archaeological sites was used in the construction of the modern mechanical puppets."
401: 0x0FC2 [0x23] WAIT_FOR_DIALOG_INTERACTION
402: 0x0FC3 [0x5B] LOAD_EXT_SCHEDULER: Load scheduler "tlk1" with entities [Gessho (ID: 17051888/0x010430F0), Gessho (ID: 17051888/0x010430F0)], work=792*
403: 0x0FD2 [0x52] END_LOAD_SCHEDULER: End scheduler "hi45" with entities [LocalPlayer, LocalPlayer], work=278*
404: 0x0FE1 [0x45] LOAD_SCHEDULED_TASK: Load scheduler "hi46" with entities [LocalPlayer, LocalPlayer], work=[278*, 0*]
405: 0x0FF2 [0x5B] LOAD_EXT_SCHEDULER: Load scheduler "hi01" with entities [Bakool Ja (ID: 17051892/0x010430F4), Bakool Ja (ID: 17051892/0x010430F4)], work=974*
406: 0x1001 [0x2B] Bakool Ja (ID: 17051892/0x010430F4) [7893*]:
    → "Created, are these automatons. To search the ruins, why do they continue?"
407: 0x1008 [0x23] WAIT_FOR_DIALOG_INTERACTION
408: 0x1009 [0x5B] LOAD_EXT_SCHEDULER: Load scheduler "hi02" with entities [Bakool Ja (ID: 17051892/0x010430F4), Bakool Ja (ID: 17051892/0x010430F4)], work=974*
409: 0x1018 [0x52] END_LOAD_SCHEDULER: End scheduler "hi46" with entities [LocalPlayer, LocalPlayer], work=278*
410: 0x1027 [0x45] LOAD_SCHEDULED_TASK: Load scheduler "hi47" with entities [LocalPlayer, LocalPlayer], work=[278*, 0*]
411: 0x1038 [0x5B] LOAD_EXT_SCHEDULER: Load scheduler "osa0" with entities [Molaal Ja (ID: 17051891/0x010430F3), Molaal Ja (ID: 17051891/0x010430F3)], work=816*
412: 0x1047 [0x2B] Molaal Ja (ID: 17051891/0x010430F3) [7894*]:
    → "!"
413: 0x104E [0x23] WAIT_FOR_DIALOG_INTERACTION
414: 0x104F [0x2B] Molaal Ja (ID: 17051891/0x010430F3) [7895*]:
    → "No... Accept this as truth, I cannot!"
