# 17051882

## Common Data

| Field            | Value                   |
|------------------|-------------------------|
| Zone             | Jade Sepulcher (ID: 67) |
| Block Size       | 224 bytes               |
| Total Events     | 8                       |
| References Count | 17                      |

## List of Events

| Event ID                 | Entrypoint   |   Size |   Instructions |
|--------------------------|--------------|--------|----------------|
| [65535](#event-65535)    | 0x0000       |      1 |              1 |
| [65535.1](#event-655351) | 0x0001       |     30 |              4 |
| [65535.2](#event-655352) | 0x001F       |     35 |              8 |
| [32001](#event-32001)    | 0x0042       |      1 |              1 |
| [65535.3](#event-655353) | 0x0043       |     16 |              5 |
| [65535.4](#event-655354) | 0x0053       |     16 |              5 |
| [65535.5](#event-655355) | 0x0063       |      3 |              2 |
| [65535.6](#event-655356) | 0x0066       |      3 |              2 |

## DAT References (imed_data)

|   Index | Hex Value   |   Dec Value |
|---------|-------------|-------------|
|       0 | 0x3B516     |      242966 |
|       1 | 0x38DFE     |      232958 |
|       2 | 0xFFFF86E7  |  4294936295 |
|       3 | 0x0C8D      |        3213 |
|       4 | 0x033C      |         828 |
|       5 | 0x0028      |          40 |
|       6 | 0x37208     |      225800 |
|       7 | 0x3D676     |      251510 |
|       8 | 0xFFFF86DC  |  4294936284 |
|       9 | 0x0003      |           3 |
|      10 | 0x5269E     |      337566 |
|      11 | 0xFFFDDE08  |  4294827528 |
|      12 | 0xFFFFE76E  |  4294961006 |
|      13 | 0x0008      |           8 |
|      14 | 0x3BC60     |      244832 |
|      15 | 0x3A032     |      237618 |
|      16 | 0xFFFF866B  |  4294936171 |

## Events

### Event 65535

#### Metadata

| Field        | Value   |
|--------------|---------|
| Entrypoint   | 0x0000  |
| Data Size    | 1 bytes |
| Instructions | 1       |

```
      00 01 02 03 04 05 06 07  08 09 0A 0B 0C 0D 0E 0F
      -- -- -- -- -- -- -- --  -- -- -- -- -- -- -- --
0000: 00                                                .               
```

#### Opcodes

```
  0: 0x0000 [0x00] END_REQSTACK()
```

### Event 65535.1

#### Metadata

| Field        | Value    |
|--------------|----------|
| Entrypoint   | 0x0001   |
| Data Size    | 30 bytes |
| Instructions | 4        |

```
      00 01 02 03 04 05 06 07  08 09 0A 0B 0C 0D 0E 0F
      -- -- -- -- -- -- -- --  -- -- -- -- -- -- -- --
0000:    37 00 80 01 80 02 80  03 80 5B 04 80 EA 30 04   7........[...0.
0010: 01 EA 30 04 01 77 6E 64  30 1E D3 30 04 01 00     ..0..wnd0..0... 
```

#### Opcodes

```
  0: 0x0001 [0x37] UPDATE_EVENT_POSITION_AND_DIR: x=242.966*, z=232.958*, y=-31.001*, direction=282.4°*
  1: 0x000A [0x5B] LOAD_EXT_SCHEDULER: Load scheduler "wnd0" with entities [Unnamed NPC (ID: 17051882/0x010430EA), Unnamed NPC (ID: 17051882/0x010430EA)], work=828*
  2: 0x0019 [0x1E] EventEntity looks at ??? (ID: 17051859/0x010430D3) and starts talking
  3: 0x001E [0x00] END_REQSTACK()
```

### Event 65535.2

#### Metadata

| Field        | Value    |
|--------------|----------|
| Entrypoint   | 0x001F   |
| Data Size    | 35 bytes |
| Instructions | 8        |

```
      00 01 02 03 04 05 06 07  08 09 0A 0B 0C 0D 0E 0F
      -- -- -- -- -- -- -- --  -- -- -- -- -- -- -- --
0010:                                               32                 2
0020: 05 80 61 00 1F 00 06 80  07 80 08 80 1F 01 6F 1C  ..a...........o.
0030: 09 80 5B 04 80 EA 30 04  01 EA 30 04 01 77 6E 64  ..[...0...0..wnd
0040: 30 00                                             0.              
```

#### Opcodes

```
  0: 0x001F [0x32] ExtData[1]->MainSpeed = 40* * 0.1
  1: 0x0022 [0x61] EventEntity->Render.Flags2 &= ~0x00000001
  2: 0x0024 [0x1F] MOVE_ENTITY: EventEntity moves to X=225.800*, Z=251.510*, Y=-31.012*
  3: 0x002C [0x1F] MOVE_ENTITY: Update entity position (mode=1)
  4: 0x002E [0x6F] WAIT_FRAME_DELAY: Yield until WaitTime reaches zero
  5: 0x002F [0x1C] WAIT(3* ticks)
  6: 0x0032 [0x5B] LOAD_EXT_SCHEDULER: Load scheduler "wnd0" with entities [Unnamed NPC (ID: 17051882/0x010430EA), Unnamed NPC (ID: 17051882/0x010430EA)], work=828*
  7: 0x0041 [0x00] END_REQSTACK()
```

### Event 32001

#### Metadata

| Field        | Value   |
|--------------|---------|
| Entrypoint   | 0x0042  |
| Data Size    | 1 bytes |
| Instructions | 1       |

```
      00 01 02 03 04 05 06 07  08 09 0A 0B 0C 0D 0E 0F
      -- -- -- -- -- -- -- --  -- -- -- -- -- -- -- --
0040:       00                                            .             
```

#### Opcodes

```
  0: 0x0042 [0x00] END_REQSTACK()
```

### Event 65535.3

#### Metadata

| Field        | Value    |
|--------------|----------|
| Entrypoint   | 0x0043   |
| Data Size    | 16 bytes |
| Instructions | 5        |

```
      00 01 02 03 04 05 06 07  08 09 0A 0B 0C 0D 0E 0F
      -- -- -- -- -- -- -- --  -- -- -- -- -- -- -- --
0040:          32 05 80 61 00  1F 00 0A 80 0B 80 0C 80     2..a.........
0050: 1F 01 00                                          ...             
```

#### Opcodes

```
  0: 0x0043 [0x32] ExtData[1]->MainSpeed = 40* * 0.1
  1: 0x0046 [0x61] EventEntity->Render.Flags2 &= ~0x00000001
  2: 0x0048 [0x1F] MOVE_ENTITY: EventEntity moves to X=337.566*, Z=-139.768*, Y=-6.290*
  3: 0x0050 [0x1F] MOVE_ENTITY: Update entity position (mode=1)
  4: 0x0052 [0x00] END_REQSTACK()
```

### Event 65535.4

#### Metadata

| Field        | Value    |
|--------------|----------|
| Entrypoint   | 0x0053   |
| Data Size    | 16 bytes |
| Instructions | 5        |

```
      00 01 02 03 04 05 06 07  08 09 0A 0B 0C 0D 0E 0F
      -- -- -- -- -- -- -- --  -- -- -- -- -- -- -- --
0050:          32 0D 80 61 01  1F 00 0E 80 0F 80 10 80     2..a.........
0060: 1F 01 00                                          ...             
```

#### Opcodes

```
  0: 0x0053 [0x32] ExtData[1]->MainSpeed = 8* * 0.1
  1: 0x0056 [0x61] EventEntity->Render.Flags2 |= 0x00000001
  2: 0x0058 [0x1F] MOVE_ENTITY: EventEntity moves to X=244.832*, Z=237.618*, Y=-31.125*
  3: 0x0060 [0x1F] MOVE_ENTITY: Update entity position (mode=1)
  4: 0x0062 [0x00] END_REQSTACK()
```

### Event 65535.5

#### Metadata

| Field        | Value   |
|--------------|---------|
| Entrypoint   | 0x0063  |
| Data Size    | 3 bytes |
| Instructions | 2       |

```
      00 01 02 03 04 05 06 07  08 09 0A 0B 0C 0D 0E 0F
      -- -- -- -- -- -- -- --  -- -- -- -- -- -- -- --
0060:          61 00 00                                    a..          
```

#### Opcodes

```
  0: 0x0063 [0x61] EventEntity->Render.Flags2 &= ~0x00000001
  1: 0x0065 [0x00] END_REQSTACK()
```

### Event 65535.6

#### Metadata

| Field        | Value   |
|--------------|---------|
| Entrypoint   | 0x0066  |
| Data Size    | 3 bytes |
| Instructions | 2       |

```
      00 01 02 03 04 05 06 07  08 09 0A 0B 0C 0D 0E 0F
      -- -- -- -- -- -- -- --  -- -- -- -- -- -- -- --
0060:                   61 01  00                             a..       
```

#### Opcodes

```
  0: 0x0066 [0x61] EventEntity->Render.Flags2 |= 0x00000001
  1: 0x0068 [0x00] END_REQSTACK()
```
