# 17051903

## Common Data

| Field            | Value                   |
|------------------|-------------------------|
| Zone             | Jade Sepulcher (ID: 67) |
| Block Size       | 232 bytes               |
| Total Events     | 7                       |
| References Count | 19                      |

## List of Events

| Event ID                 | Entrypoint   |   Size |   Instructions |
|--------------------------|--------------|--------|----------------|
| [65535](#event-65535)    | 0x0000       |      1 |              1 |
| [32001](#event-32001)    | 0x0001       |      1 |              1 |
| [65535.1](#event-655351) | 0x0002       |     28 |              4 |
| [65535.2](#event-655352) | 0x001E       |     26 |              8 |
| [65535.3](#event-655353) | 0x0038       |     54 |             11 |
| [65535.4](#event-655354) | 0x006E       |      1 |              1 |
| [65535.5](#event-655355) | 0x006F       |      1 |              1 |

## DAT References (imed_data)

|   Index | Hex Value   |   Dec Value |
|---------|-------------|-------------|
|       0 | 0x0080      |         128 |
|       1 | 0x003C      |          60 |
|       2 | 0x002D      |          45 |
|       3 | 0x033B      |         827 |
|       4 | 0x0028      |          40 |
|       5 | 0x3C08B     |      245899 |
|       6 | 0x3B047     |      241735 |
|       7 | 0xFFFF867D  |  4294936189 |
|       8 | 0x0005      |           5 |
|       9 | 0x3AB64     |      240484 |
|      10 | 0x39FEB     |      237547 |
|      11 | 0xFFFF8531  |  4294935857 |
|      12 | 0x0187      |         391 |
|      13 | 0x000B      |          11 |
|      14 | 0x3AED9     |      241369 |
|      15 | 0x3A09D     |      237725 |
|      16 | 0xFFFF84F4  |  4294935796 |
|      17 | 0x0003      |           3 |
|      18 | 0x033C      |         828 |

## Events

### Event 65535

#### Metadata

| Field        | Value   |
|--------------|---------|
| Entrypoint   | 0x0000  |
| Data Size    | 1 bytes |
| Instructions | 1       |

```
      00 01 02 03 04 05 06 07  08 09 0A 0B 0C 0D 0E 0F
      -- -- -- -- -- -- -- --  -- -- -- -- -- -- -- --
0000: 00                                                .               
```

#### Opcodes

```
  0: 0x0000 [0x00] END_REQSTACK()
```

### Event 32001

#### Metadata

| Field        | Value   |
|--------------|---------|
| Entrypoint   | 0x0001  |
| Data Size    | 1 bytes |
| Instructions | 1       |

```
      00 01 02 03 04 05 06 07  08 09 0A 0B 0C 0D 0E 0F
      -- -- -- -- -- -- -- --  -- -- -- -- -- -- -- --
0000:    00                                              .              
```

#### Opcodes

```
  0: 0x0001 [0x00] END_REQSTACK()
```

### Event 65535.1

#### Metadata

| Field        | Value    |
|--------------|----------|
| Entrypoint   | 0x0002   |
| Data Size    | 28 bytes |
| Instructions | 4        |

```
      00 01 02 03 04 05 06 07  08 09 0A 0B 0C 0D 0E 0F
      -- -- -- -- -- -- -- --  -- -- -- -- -- -- -- --
0000:       6C FF 30 04 01 00  80 01 80 1C 02 80 5B 03    l.0.........[.
0010: 80 FF 30 04 01 FF 30 04  01 73 72 64 30 00        ..0...0..srd0.  
```

#### Opcodes

```
  0: 0x0002 [0x6C] FADE_ENTITY_COLOR(entity_id=Unnamed NPC (ID: 17051903/0x010430FF), end_alpha=128*, fade_time=60*)
  1: 0x000B [0x1C] WAIT(45* ticks)
  2: 0x000E [0x5B] LOAD_EXT_SCHEDULER: Load scheduler "srd0" with entities [Unnamed NPC (ID: 17051903/0x010430FF), Unnamed NPC (ID: 17051903/0x010430FF)], work=827*
  3: 0x001D [0x00] END_REQSTACK()
```

### Event 65535.2

#### Metadata

| Field        | Value    |
|--------------|----------|
| Entrypoint   | 0x001E   |
| Data Size    | 26 bytes |
| Instructions | 8        |

```
      00 01 02 03 04 05 06 07  08 09 0A 0B 0C 0D 0E 0F
      -- -- -- -- -- -- -- --  -- -- -- -- -- -- -- --
0010:                                            4E 00                N.
0020: FF 30 04 01 32 04 80 61  00 1F 00 05 80 06 80 07  .0..2..a........
0030: 80 1F 01 6F 1C 08 80 00                           ...o....        
```

#### Opcodes

```
  0: 0x001E [0x4E] SET_ENTITY_HIDE_FLAG: Show Unnamed NPC (ID: 17051903/0x010430FF)
  1: 0x0024 [0x32] ExtData[1]->MainSpeed = 40* * 0.1
  2: 0x0027 [0x61] EventEntity->Render.Flags2 &= ~0x00000001
  3: 0x0029 [0x1F] MOVE_ENTITY: EventEntity moves to X=245.899*, Z=241.735*, Y=-31.107*
  4: 0x0031 [0x1F] MOVE_ENTITY: Update entity position (mode=1)
  5: 0x0033 [0x6F] WAIT_FRAME_DELAY: Yield until WaitTime reaches zero
  6: 0x0034 [0x1C] WAIT(5* ticks)
  7: 0x0037 [0x00] END_REQSTACK()
```

### Event 65535.3

#### Metadata

| Field        | Value    |
|--------------|----------|
| Entrypoint   | 0x0038   |
| Data Size    | 54 bytes |
| Instructions | 11       |

```
      00 01 02 03 04 05 06 07  08 09 0A 0B 0C 0D 0E 0F
      -- -- -- -- -- -- -- --  -- -- -- -- -- -- -- --
0030:                          1E D3 30 04 01 37 09 80          ..0..7..
0040: 0A 80 0B 80 0C 80 32 0D  80 61 01 1F 00 0E 80 0F  ......2..a......
0050: 80 10 80 1F 01 6F 1E D3  30 04 01 1C 11 80 5B 12  .....o..0.....[.
0060: 80 00 31 04 01 00 31 04  01 77 6E 64 30 00        ..1...1..wnd0.  
```

#### Opcodes

```
  0: 0x0038 [0x1E] EventEntity looks at ??? (ID: 17051859/0x010430D3) and starts talking
  1: 0x003D [0x37] UPDATE_EVENT_POSITION_AND_DIR: x=240.484*, z=237.547*, y=-31.439*, direction=34.4°*
  2: 0x0046 [0x32] ExtData[1]->MainSpeed = 11* * 0.1
  3: 0x0049 [0x61] EventEntity->Render.Flags2 |= 0x00000001
  4: 0x004B [0x1F] MOVE_ENTITY: EventEntity moves to X=241.369*, Z=237.725*, Y=-31.500*
  5: 0x0053 [0x1F] MOVE_ENTITY: Update entity position (mode=1)
  6: 0x0055 [0x6F] WAIT_FRAME_DELAY: Yield until WaitTime reaches zero
  7: 0x0056 [0x1E] EventEntity looks at ??? (ID: 17051859/0x010430D3) and starts talking
  8: 0x005B [0x1C] WAIT(3* ticks)
  9: 0x005E [0x5B] LOAD_EXT_SCHEDULER: Load scheduler "wnd0" with entities [Unnamed NPC (ID: 17051904/0x01043100), Unnamed NPC (ID: 17051904/0x01043100)], work=828*
 10: 0x006D [0x00] END_REQSTACK()
```

### Event 65535.4

#### Metadata

| Field        | Value   |
|--------------|---------|
| Entrypoint   | 0x006E  |
| Data Size    | 1 bytes |
| Instructions | 1       |

```
      00 01 02 03 04 05 06 07  08 09 0A 0B 0C 0D 0E 0F
      -- -- -- -- -- -- -- --  -- -- -- -- -- -- -- --
0060:                                            00                   . 
```

#### Opcodes

```
  0: 0x006E [0x00] END_REQSTACK()
```

### Event 65535.5

#### Metadata

| Field        | Value   |
|--------------|---------|
| Entrypoint   | 0x006F  |
| Data Size    | 1 bytes |
| Instructions | 1       |

```
      00 01 02 03 04 05 06 07  08 09 0A 0B 0C 0D 0E 0F
      -- -- -- -- -- -- -- --  -- -- -- -- -- -- -- --
0060:                                               00                 .
```

#### Opcodes

```
  0: 0x006F [0x00] END_REQSTACK()
```
