# 17051902

## Common Data

| Field            | Value                   |
|------------------|-------------------------|
| Zone             | Jade Sepulcher (ID: 67) |
| Block Size       | 144 bytes               |
| Total Events     | 6                       |
| References Count | 9                       |

## List of Events

| Event ID                 | Entrypoint   |   Size |   Instructions |
|--------------------------|--------------|--------|----------------|
| [65535](#event-65535)    | 0x0000       |      1 |              1 |
| [32001](#event-32001)    | 0x0001       |      1 |              1 |
| [65535.1](#event-655351) | 0x0002       |     28 |              4 |
| [65535.2](#event-655352) | 0x001E       |     31 |              9 |
| [65535.3](#event-655353) | 0x003D       |      1 |              1 |
| [65535.4](#event-655354) | 0x003E       |      3 |              2 |

## DAT References (imed_data)

|   Index | Hex Value   |   Dec Value |
|---------|-------------|-------------|
|       0 | 0x0080      |         128 |
|       1 | 0x003C      |          60 |
|       2 | 0x002D      |          45 |
|       3 | 0x033B      |         827 |
|       4 | 0x0028      |          40 |
|       5 | 0x3BE42     |      245314 |
|       6 | 0x3A6BD     |      239293 |
|       7 | 0xFFFF8660  |  4294936160 |
|       8 | 0x0005      |           5 |

## Events

### Event 65535

#### Metadata

| Field        | Value   |
|--------------|---------|
| Entrypoint   | 0x0000  |
| Data Size    | 1 bytes |
| Instructions | 1       |

```
      00 01 02 03 04 05 06 07  08 09 0A 0B 0C 0D 0E 0F
      -- -- -- -- -- -- -- --  -- -- -- -- -- -- -- --
0000: 00                                                .               
```

#### Opcodes

```
  0: 0x0000 [0x00] END_REQSTACK()
```

### Event 32001

#### Metadata

| Field        | Value   |
|--------------|---------|
| Entrypoint   | 0x0001  |
| Data Size    | 1 bytes |
| Instructions | 1       |

```
      00 01 02 03 04 05 06 07  08 09 0A 0B 0C 0D 0E 0F
      -- -- -- -- -- -- -- --  -- -- -- -- -- -- -- --
0000:    00                                              .              
```

#### Opcodes

```
  0: 0x0001 [0x00] END_REQSTACK()
```

### Event 65535.1

#### Metadata

| Field        | Value    |
|--------------|----------|
| Entrypoint   | 0x0002   |
| Data Size    | 28 bytes |
| Instructions | 4        |

```
      00 01 02 03 04 05 06 07  08 09 0A 0B 0C 0D 0E 0F
      -- -- -- -- -- -- -- --  -- -- -- -- -- -- -- --
0000:       6C FE 30 04 01 00  80 01 80 1C 02 80 5B 03    l.0.........[.
0010: 80 FE 30 04 01 FE 30 04  01 73 72 64 30 00        ..0...0..srd0.  
```

#### Opcodes

```
  0: 0x0002 [0x6C] FADE_ENTITY_COLOR(entity_id=Unnamed NPC (ID: 17051902/0x010430FE), end_alpha=128*, fade_time=60*)
  1: 0x000B [0x1C] WAIT(45* ticks)
  2: 0x000E [0x5B] LOAD_EXT_SCHEDULER: Load scheduler "srd0" with entities [Unnamed NPC (ID: 17051902/0x010430FE), Unnamed NPC (ID: 17051902/0x010430FE)], work=827*
  3: 0x001D [0x00] END_REQSTACK()
```

### Event 65535.2

#### Metadata

| Field        | Value    |
|--------------|----------|
| Entrypoint   | 0x001E   |
| Data Size    | 31 bytes |
| Instructions | 9        |

```
      00 01 02 03 04 05 06 07  08 09 0A 0B 0C 0D 0E 0F
      -- -- -- -- -- -- -- --  -- -- -- -- -- -- -- --
0010:                                            4E 00                N.
0020: FE 30 04 01 32 04 80 61  00 1F 00 05 80 06 80 07  .0..2..a........
0030: 80 1F 01 6F 1E EF 30 04  01 1C 08 80 00           ...o..0......   
```

#### Opcodes

```
  0: 0x001E [0x4E] SET_ENTITY_HIDE_FLAG: Show Unnamed NPC (ID: 17051902/0x010430FE)
  1: 0x0024 [0x32] ExtData[1]->MainSpeed = 40* * 0.1
  2: 0x0027 [0x61] EventEntity->Render.Flags2 &= ~0x00000001
  3: 0x0029 [0x1F] MOVE_ENTITY: EventEntity moves to X=245.314*, Z=239.293*, Y=-31.136*
  4: 0x0031 [0x1F] MOVE_ENTITY: Update entity position (mode=1)
  5: 0x0033 [0x6F] WAIT_FRAME_DELAY: Yield until WaitTime reaches zero
  6: 0x0034 [0x1E] EventEntity looks at Rishfee (ID: 17051887/0x010430EF) and starts talking
  7: 0x0039 [0x1C] WAIT(5* ticks)
  8: 0x003C [0x00] END_REQSTACK()
```

### Event 65535.3

#### Metadata

| Field        | Value   |
|--------------|---------|
| Entrypoint   | 0x003D  |
| Data Size    | 1 bytes |
| Instructions | 1       |

```
      00 01 02 03 04 05 06 07  08 09 0A 0B 0C 0D 0E 0F
      -- -- -- -- -- -- -- --  -- -- -- -- -- -- -- --
0030:                                         00                     .  
```

#### Opcodes

```
  0: 0x003D [0x00] END_REQSTACK()
```

### Event 65535.4

#### Metadata

| Field        | Value   |
|--------------|---------|
| Entrypoint   | 0x003E  |
| Data Size    | 3 bytes |
| Instructions | 2       |

```
      00 01 02 03 04 05 06 07  08 09 0A 0B 0C 0D 0E 0F
      -- -- -- -- -- -- -- --  -- -- -- -- -- -- -- --
0030:                                            61 01                a.
0040: 00                                                .               
```

#### Opcodes

```
  0: 0x003E [0x61] EventEntity->Render.Flags2 |= 0x00000001
  1: 0x0040 [0x00] END_REQSTACK()
```
