# 17051905

## Common Data

| Field            | Value                   |
|------------------|-------------------------|
| Zone             | Jade Sepulcher (ID: 67) |
| Block Size       | 136 bytes               |
| Total Events     | 6                       |
| References Count | 9                       |

## List of Events

| Event ID                 | Entrypoint   |   Size |   Instructions |
|--------------------------|--------------|--------|----------------|
| [65535](#event-65535)    | 0x0000       |      1 |              1 |
| [32001](#event-32001)    | 0x0001       |      1 |              1 |
| [65535.1](#event-655351) | 0x0002       |     28 |              4 |
| [65535.2](#event-655352) | 0x001E       |     26 |              8 |
| [65535.3](#event-655353) | 0x0038       |      1 |              1 |
| [65535.4](#event-655354) | 0x0039       |      3 |              2 |

## DAT References (imed_data)

|   Index | Hex Value   |   Dec Value |
|---------|-------------|-------------|
|       0 | 0x033B      |         827 |
|       1 | 0x002D      |          45 |
|       2 | 0x0080      |         128 |
|       3 | 0x003C      |          60 |
|       4 | 0x0028      |          40 |
|       5 | 0x3C031     |      245809 |
|       6 | 0x3B489     |      242825 |
|       7 | 0xFFFF86A1  |  4294936225 |
|       8 | 0x0005      |           5 |

## Events

### Event 65535

#### Metadata

| Field        | Value   |
|--------------|---------|
| Entrypoint   | 0x0000  |
| Data Size    | 1 bytes |
| Instructions | 1       |

```
      00 01 02 03 04 05 06 07  08 09 0A 0B 0C 0D 0E 0F
      -- -- -- -- -- -- -- --  -- -- -- -- -- -- -- --
0000: 00                                                .               
```

#### Opcodes

```
  0: 0x0000 [0x00] END_REQSTACK()
```

### Event 32001

#### Metadata

| Field        | Value   |
|--------------|---------|
| Entrypoint   | 0x0001  |
| Data Size    | 1 bytes |
| Instructions | 1       |

```
      00 01 02 03 04 05 06 07  08 09 0A 0B 0C 0D 0E 0F
      -- -- -- -- -- -- -- --  -- -- -- -- -- -- -- --
0000:    00                                              .              
```

#### Opcodes

```
  0: 0x0001 [0x00] END_REQSTACK()
```

### Event 65535.1

#### Metadata

| Field        | Value    |
|--------------|----------|
| Entrypoint   | 0x0002   |
| Data Size    | 28 bytes |
| Instructions | 4        |

```
      00 01 02 03 04 05 06 07  08 09 0A 0B 0C 0D 0E 0F
      -- -- -- -- -- -- -- --  -- -- -- -- -- -- -- --
0000:       5B 00 80 01 31 04  01 01 31 04 01 73 72 64    [...1...1..srd
0010: 30 1C 01 80 6C 01 31 04  01 02 80 03 80 00        0...l.1.......  
```

#### Opcodes

```
  0: 0x0002 [0x5B] LOAD_EXT_SCHEDULER: Load scheduler "srd0" with entities [Unnamed NPC (ID: 17051905/0x01043101), Unnamed NPC (ID: 17051905/0x01043101)], work=827*
  1: 0x0011 [0x1C] WAIT(45* ticks)
  2: 0x0014 [0x6C] FADE_ENTITY_COLOR(entity_id=Unnamed NPC (ID: 17051905/0x01043101), end_alpha=128*, fade_time=60*)
  3: 0x001D [0x00] END_REQSTACK()
```

### Event 65535.2

#### Metadata

| Field        | Value    |
|--------------|----------|
| Entrypoint   | 0x001E   |
| Data Size    | 26 bytes |
| Instructions | 8        |

```
      00 01 02 03 04 05 06 07  08 09 0A 0B 0C 0D 0E 0F
      -- -- -- -- -- -- -- --  -- -- -- -- -- -- -- --
0010:                                            4E 00                N.
0020: 01 31 04 01 32 04 80 61  00 1F 00 05 80 06 80 07  .1..2..a........
0030: 80 1F 01 6F 1C 08 80 00                           ...o....        
```

#### Opcodes

```
  0: 0x001E [0x4E] SET_ENTITY_HIDE_FLAG: Show Unnamed NPC (ID: 17051905/0x01043101)
  1: 0x0024 [0x32] ExtData[1]->MainSpeed = 40* * 0.1
  2: 0x0027 [0x61] EventEntity->Render.Flags2 &= ~0x00000001
  3: 0x0029 [0x1F] MOVE_ENTITY: EventEntity moves to X=245.809*, Z=242.825*, Y=-31.071*
  4: 0x0031 [0x1F] MOVE_ENTITY: Update entity position (mode=1)
  5: 0x0033 [0x6F] WAIT_FRAME_DELAY: Yield until WaitTime reaches zero
  6: 0x0034 [0x1C] WAIT(5* ticks)
  7: 0x0037 [0x00] END_REQSTACK()
```

### Event 65535.3

#### Metadata

| Field        | Value   |
|--------------|---------|
| Entrypoint   | 0x0038  |
| Data Size    | 1 bytes |
| Instructions | 1       |

```
      00 01 02 03 04 05 06 07  08 09 0A 0B 0C 0D 0E 0F
      -- -- -- -- -- -- -- --  -- -- -- -- -- -- -- --
0030:                          00                               .       
```

#### Opcodes

```
  0: 0x0038 [0x00] END_REQSTACK()
```

### Event 65535.4

#### Metadata

| Field        | Value   |
|--------------|---------|
| Entrypoint   | 0x0039  |
| Data Size    | 3 bytes |
| Instructions | 2       |

```
      00 01 02 03 04 05 06 07  08 09 0A 0B 0C 0D 0E 0F
      -- -- -- -- -- -- -- --  -- -- -- -- -- -- -- --
0030:                             61 01 00                       a..    
```

#### Opcodes

```
  0: 0x0039 [0x61] EventEntity->Render.Flags2 |= 0x00000001
  1: 0x003B [0x00] END_REQSTACK()
```
