# 17051910

## Common Data

| Field            | Value                   |
|------------------|-------------------------|
| Zone             | Jade Sepulcher (ID: 67) |
| Block Size       | 164 bytes               |
| Total Events     | 7                       |
| References Count | 12                      |

## List of Events

| Event ID                 | Entrypoint   |   Size |   Instructions |
|--------------------------|--------------|--------|----------------|
| [65535](#event-65535)    | 0x0000       |      1 |              1 |
| [32001](#event-32001)    | 0x0001       |      1 |              1 |
| [65535.1](#event-655351) | 0x0002       |     21 |              4 |
| [65535.2](#event-655352) | 0x0017       |     28 |              8 |
| [65535.3](#event-655353) | 0x0033       |     16 |              5 |
| [65535.4](#event-655354) | 0x0043       |      1 |              1 |
| [65535.5](#event-655355) | 0x0044       |      1 |              1 |

## DAT References (imed_data)

|   Index | Hex Value   |   Dec Value |
|---------|-------------|-------------|
|       0 | 0x3B372     |      242546 |
|       1 | 0x3C092     |      245906 |
|       2 | 0xFFFF8698  |  4294936216 |
|       3 | 0x0187      |         391 |
|       4 | 0x0028      |          40 |
|       5 | 0x3C112     |      246034 |
|       6 | 0x38C07     |      232455 |
|       7 | 0xFFFF881B  |  4294936603 |
|       8 | 0x0008      |           8 |
|       9 | 0x3BC60     |      244832 |
|      10 | 0x3A032     |      237618 |
|      11 | 0xFFFF866B  |  4294936171 |

## Events

### Event 65535

#### Metadata

| Field        | Value   |
|--------------|---------|
| Entrypoint   | 0x0000  |
| Data Size    | 1 bytes |
| Instructions | 1       |

```
      00 01 02 03 04 05 06 07  08 09 0A 0B 0C 0D 0E 0F
      -- -- -- -- -- -- -- --  -- -- -- -- -- -- -- --
0000: 00                                                .               
```

#### Opcodes

```
  0: 0x0000 [0x00] END_REQSTACK()
```

### Event 32001

#### Metadata

| Field        | Value   |
|--------------|---------|
| Entrypoint   | 0x0001  |
| Data Size    | 1 bytes |
| Instructions | 1       |

```
      00 01 02 03 04 05 06 07  08 09 0A 0B 0C 0D 0E 0F
      -- -- -- -- -- -- -- --  -- -- -- -- -- -- -- --
0000:    00                                              .              
```

#### Opcodes

```
  0: 0x0001 [0x00] END_REQSTACK()
```

### Event 65535.1

#### Metadata

| Field        | Value    |
|--------------|----------|
| Entrypoint   | 0x0002   |
| Data Size    | 21 bytes |
| Instructions | 4        |

```
      00 01 02 03 04 05 06 07  08 09 0A 0B 0C 0D 0E 0F
      -- -- -- -- -- -- -- --  -- -- -- -- -- -- -- --
0000:       4E 00 06 31 04 01  37 00 80 01 80 02 80 03    N..1..7.......
0010: 80 1E D3 30 04 01 00                              ...0...         
```

#### Opcodes

```
  0: 0x0002 [0x4E] SET_ENTITY_HIDE_FLAG: Show Unnamed NPC (ID: 17051910/0x01043106)
  1: 0x0008 [0x37] UPDATE_EVENT_POSITION_AND_DIR: x=242.546*, z=245.906*, y=-31.080*, direction=34.4°*
  2: 0x0011 [0x1E] EventEntity looks at ??? (ID: 17051859/0x010430D3) and starts talking
  3: 0x0016 [0x00] END_REQSTACK()
```

### Event 65535.2

#### Metadata

| Field        | Value    |
|--------------|----------|
| Entrypoint   | 0x0017   |
| Data Size    | 28 bytes |
| Instructions | 8        |

```
      00 01 02 03 04 05 06 07  08 09 0A 0B 0C 0D 0E 0F
      -- -- -- -- -- -- -- --  -- -- -- -- -- -- -- --
0010:                      4E  00 06 31 04 01 1E EF 30         N..1....0
0020: 04 01 32 04 80 61 00 1F  00 05 80 06 80 07 80 1F  ..2..a..........
0030: 01 6F 00                                          .o.             
```

#### Opcodes

```
  0: 0x0017 [0x4E] SET_ENTITY_HIDE_FLAG: Show Unnamed NPC (ID: 17051910/0x01043106)
  1: 0x001D [0x1E] EventEntity looks at Rishfee (ID: 17051887/0x010430EF) and starts talking
  2: 0x0022 [0x32] ExtData[1]->MainSpeed = 40* * 0.1
  3: 0x0025 [0x61] EventEntity->Render.Flags2 &= ~0x00000001
  4: 0x0027 [0x1F] MOVE_ENTITY: EventEntity moves to X=246.034*, Z=232.455*, Y=-30.693*
  5: 0x002F [0x1F] MOVE_ENTITY: Update entity position (mode=1)
  6: 0x0031 [0x6F] WAIT_FRAME_DELAY: Yield until WaitTime reaches zero
  7: 0x0032 [0x00] END_REQSTACK()
```

### Event 65535.3

#### Metadata

| Field        | Value    |
|--------------|----------|
| Entrypoint   | 0x0033   |
| Data Size    | 16 bytes |
| Instructions | 5        |

```
      00 01 02 03 04 05 06 07  08 09 0A 0B 0C 0D 0E 0F
      -- -- -- -- -- -- -- --  -- -- -- -- -- -- -- --
0030:          32 08 80 61 01  1F 00 09 80 0A 80 0B 80     2..a.........
0040: 1F 01 00                                          ...             
```

#### Opcodes

```
  0: 0x0033 [0x32] ExtData[1]->MainSpeed = 8* * 0.1
  1: 0x0036 [0x61] EventEntity->Render.Flags2 |= 0x00000001
  2: 0x0038 [0x1F] MOVE_ENTITY: EventEntity moves to X=244.832*, Z=237.618*, Y=-31.125*
  3: 0x0040 [0x1F] MOVE_ENTITY: Update entity position (mode=1)
  4: 0x0042 [0x00] END_REQSTACK()
```

### Event 65535.4

#### Metadata

| Field        | Value   |
|--------------|---------|
| Entrypoint   | 0x0043  |
| Data Size    | 1 bytes |
| Instructions | 1       |

```
      00 01 02 03 04 05 06 07  08 09 0A 0B 0C 0D 0E 0F
      -- -- -- -- -- -- -- --  -- -- -- -- -- -- -- --
0040:          00                                          .            
```

#### Opcodes

```
  0: 0x0043 [0x00] END_REQSTACK()
```

### Event 65535.5

#### Metadata

| Field        | Value   |
|--------------|---------|
| Entrypoint   | 0x0044  |
| Data Size    | 1 bytes |
| Instructions | 1       |

```
      00 01 02 03 04 05 06 07  08 09 0A 0B 0C 0D 0E 0F
      -- -- -- -- -- -- -- --  -- -- -- -- -- -- -- --
0040:             00                                        .           
```

#### Opcodes

```
  0: 0x0044 [0x00] END_REQSTACK()
```
