# 17051901

## Common Data

| Field            | Value                   |
|------------------|-------------------------|
| Zone             | Jade Sepulcher (ID: 67) |
| Block Size       | 1000 bytes              |
| Total Events     | 4                       |
| References Count | 65                      |

## List of Events

| Event ID                 | Entrypoint   |   Size |   Instructions |
|--------------------------|--------------|--------|----------------|
| [65535](#event-65535)    | 0x0000       |      1 |              1 |
| [32001](#event-32001)    | 0x0001       |      1 |              1 |
| [65535.1](#event-655351) | 0x0002       |    115 |             12 |
| [65535.2](#event-655352) | 0x0075       |    589 |             59 |

## DAT References (imed_data)

|   Index | Hex Value   |   Dec Value |
|---------|-------------|-------------|
|       0 | 0x3A1B3     |      238003 |
|       1 | 0x387B9     |      231353 |
|       2 | 0xFFFF875C  |  4294936412 |
|       3 | 0x0186      |         390 |
|       4 | 0x39ECE     |      237262 |
|       5 | 0x39A4F     |      236111 |
|       6 | 0xFFFF8659  |  4294936153 |
|       7 | 0x0F5F      |        3935 |
|       8 | 0x39FB3     |      237491 |
|       9 | 0x38153     |      229715 |
|      10 | 0xFFFF8877  |  4294936695 |
|      11 | 0x0187      |         391 |
|      12 | 0x033B      |         827 |
|      13 | 0x033C      |         828 |
|      14 | 0x3CFE4     |      249828 |
|      15 | 0x3B2A7     |      242343 |
|      16 | 0xFFFF8847  |  4294936647 |
|      17 | 0x0180      |         384 |
|      18 | 0x3DAD1     |      252625 |
|      19 | 0x3B23A     |      242234 |
|      20 | 0xFFFF88BB  |  4294936763 |
|      21 | 0x0759      |        1881 |
|      22 | 0x3CE2C     |      249388 |
|      23 | 0x3A6F5     |      239349 |
|      24 | 0xFFFF87F0  |  4294936560 |
|      25 | 0x0764      |        1892 |
|      26 | 0x3D3EC     |      250860 |
|      27 | 0x3A0B4     |      237748 |
|      28 | 0xFFFF88A2  |  4294936738 |
|      29 | 0x3DF41     |      253761 |
|      30 | 0x3A721     |      239393 |
|      31 | 0xFFFF8882  |  4294936706 |
|      32 | 0x0185      |         389 |
|      33 | 0x3AE2D     |      241197 |
|      34 | 0x3903C     |      233532 |
|      35 | 0xFFFF869A  |  4294936218 |
|      36 | 0x3B9CB     |      244171 |
|      37 | 0x38821     |      231457 |
|      38 | 0xFFFF8791  |  4294936465 |
|      39 | 0x3CE0A     |      249354 |
|      40 | 0x380A4     |      229540 |
|      41 | 0xFFFF8776  |  4294936438 |
|      42 | 0x019B      |         411 |
|      43 | 0x3D3BF     |      250815 |
|      44 | 0x393AA     |      234410 |
|      45 | 0xFFFF88B8  |  4294936760 |
|      46 | 0x3DAA2     |      252578 |
|      47 | 0x389F0     |      231920 |
|      48 | 0xFFFF86D8  |  4294936280 |
|      49 | 0x016B      |         363 |
|      50 | 0x3A8C9     |      239817 |
|      51 | 0x38D33     |      232755 |
|      52 | 0xFFFF86C1  |  4294936257 |
|      53 | 0x3E000     |      253952 |
|      54 | 0x3C049     |      245833 |
|      55 | 0xFFFF870C  |  4294936332 |
|      56 | 0x014C      |         332 |
|      57 | 0x3CA24     |      248356 |
|      58 | 0x3CE0F     |      249359 |
|      59 | 0xFFFF88C1  |  4294936769 |
|      60 | 0x014E      |         334 |
|      61 | 0x3D85C     |      251996 |
|      62 | 0x3CE2B     |      249387 |
|      63 | 0xFFFF86F9  |  4294936313 |
|      64 | 0x01DE      |         478 |

## Events

### Event 65535

#### Metadata

| Field        | Value   |
|--------------|---------|
| Entrypoint   | 0x0000  |
| Data Size    | 1 bytes |
| Instructions | 1       |

```
      00 01 02 03 04 05 06 07  08 09 0A 0B 0C 0D 0E 0F
      -- -- -- -- -- -- -- --  -- -- -- -- -- -- -- --
0000: 00                                                .               
```

#### Opcodes

```
  0: 0x0000 [0x00] END_REQSTACK()
```

### Event 32001

#### Metadata

| Field        | Value   |
|--------------|---------|
| Entrypoint   | 0x0001  |
| Data Size    | 1 bytes |
| Instructions | 1       |

```
      00 01 02 03 04 05 06 07  08 09 0A 0B 0C 0D 0E 0F
      -- -- -- -- -- -- -- --  -- -- -- -- -- -- -- --
0000:    00                                              .              
```

#### Opcodes

```
  0: 0x0001 [0x00] END_REQSTACK()
```

### Event 65535.1

#### Metadata

| Field        | Value     |
|--------------|-----------|
| Entrypoint   | 0x0002    |
| Data Size    | 115 bytes |
| Instructions | 12        |

```
      00 01 02 03 04 05 06 07  08 09 0A 0B 0C 0D 0E 0F
      -- -- -- -- -- -- -- --  -- -- -- -- -- -- -- --
0000:       4E 00 17 31 04 01  4E 00 18 31 04 01 4E 00    N..1..N..1..N.
0010: 19 31 04 01 BA 17 31 04  01 00 80 01 80 02 80 03  .1....1.........
0020: 80 BA 18 31 04 01 04 80  05 80 06 80 07 80 BA 19  ...1............
0030: 31 04 01 08 80 09 80 0A  80 0B 80 4A 17 31 04 01  1..........J.1..
0040: D3 30 04 01 4A 18 31 04  01 D3 30 04 01 4A 19 31  .0..J.1...0..J.1
0050: 04 01 D3 30 04 01 5B 0C  80 17 31 04 01 17 31 04  ...0..[...1...1.
0060: 01 6D 6E 6B 30 5B 0D 80  18 31 04 01 18 31 04 01  .mnk0[...1...1..
0070: 77 6E 64 30 00                                    wnd0.           
```

#### Opcodes

```
  0: 0x0002 [0x4E] SET_ENTITY_HIDE_FLAG: Show Unnamed NPC (ID: 17051927/0x01043117)
  1: 0x0008 [0x4E] SET_ENTITY_HIDE_FLAG: Show Unnamed NPC (ID: 17051928/0x01043118)
  2: 0x000E [0x4E] SET_ENTITY_HIDE_FLAG: Show Unnamed NPC (ID: 17051929/0x01043119)
  3: 0x0014 [0xBA] SET_ENTITY_POSITION(entity_id=Unnamed NPC (ID: 17051927/0x01043117), pos_x=238.003*, pos_z=231.353*, pos_y=-30.884*, direction=34.3°*)
  4: 0x0021 [0xBA] SET_ENTITY_POSITION(entity_id=Unnamed NPC (ID: 17051928/0x01043118), pos_x=237.262*, pos_z=236.111*, pos_y=-31.143*, direction=345.8°*)
  5: 0x002E [0xBA] SET_ENTITY_POSITION(entity_id=Unnamed NPC (ID: 17051929/0x01043119), pos_x=237.491*, pos_z=229.715*, pos_y=-30.601*, direction=34.4°*)
  6: 0x003B [0x4A] Unnamed NPC (ID: 17051927/0x01043117) looks at ??? (ID: 17051859/0x010430D3)
  7: 0x0044 [0x4A] Unnamed NPC (ID: 17051928/0x01043118) looks at ??? (ID: 17051859/0x010430D3)
  8: 0x004D [0x4A] Unnamed NPC (ID: 17051929/0x01043119) looks at ??? (ID: 17051859/0x010430D3)
  9: 0x0056 [0x5B] LOAD_EXT_SCHEDULER: Load scheduler "mnk0" with entities [Unnamed NPC (ID: 17051927/0x01043117), Unnamed NPC (ID: 17051927/0x01043117)], work=827*
 10: 0x0065 [0x5B] LOAD_EXT_SCHEDULER: Load scheduler "wnd0" with entities [Unnamed NPC (ID: 17051928/0x01043118), Unnamed NPC (ID: 17051928/0x01043118)], work=828*
 11: 0x0074 [0x00] END_REQSTACK()
```

### Event 65535.2

#### Metadata

| Field        | Value     |
|--------------|-----------|
| Entrypoint   | 0x0075    |
| Data Size    | 589 bytes |
| Instructions | 59        |

```
      00 01 02 03 04 05 06 07  08 09 0A 0B 0C 0D 0E 0F
      -- -- -- -- -- -- -- --  -- -- -- -- -- -- -- --
0070:                4E 00 0B  31 04 01 4E 00 0C 31 04       N..1..N..1.
0080: 01 4E 00 0D 31 04 01 4E  00 0E 31 04 01 4E 00 0F  .N..1..N..1..N..
0090: 31 04 01 4E 00 10 31 04  01 4E 00 11 31 04 01 4E  1..N..1..N..1..N
00A0: 00 12 31 04 01 4E 00 13  31 04 01 4E 00 14 31 04  ..1..N..1..N..1.
00B0: 01 4E 00 15 31 04 01 4E  00 16 31 04 01 2F 00 0B  .N..1..N..1../..
00C0: 31 04 01 2F 00 0C 31 04  01 2F 00 0D 31 04 01 2F  1../..1../..1../
00D0: 00 0E 31 04 01 2F 00 0F  31 04 01 2F 00 10 31 04  ..1../..1../..1.
00E0: 01 BA 08 31 04 01 0E 80  0F 80 10 80 11 80 BA 09  ...1............
00F0: 31 04 01 12 80 13 80 14  80 15 80 BA 0A 31 04 01  1............1..
0100: 16 80 17 80 18 80 19 80  BA 0B 31 04 01 1A 80 1B  ..........1.....
0110: 80 1C 80 0B 80 BA 0C 31  04 01 1D 80 1E 80 1F 80  .......1........
0120: 20 80 BA 0D 31 04 01 1D  80 1E 80 1F 80 20 80 BA   ...1........ ..
0130: 0E 31 04 01 21 80 22 80  23 80 03 80 BA 0F 31 04  .1..!.".#.....1.
0140: 01 24 80 25 80 26 80 0B  80 BA 10 31 04 01 27 80  .$.%.&.....1..'.
0150: 28 80 29 80 2A 80 BA 11  31 04 01 2B 80 2C 80 2D  (.).*...1..+.,.-
0160: 80 03 80 BA 12 31 04 01  2E 80 2F 80 30 80 31 80  .....1..../.0.1.
0170: BA 13 31 04 01 32 80 33  80 34 80 03 80 BA 14 31  ..1..2.3.4.....1
0180: 04 01 35 80 36 80 37 80  38 80 BA 15 31 04 01 39  ..5.6.7.8...1..9
0190: 80 3A 80 3B 80 3C 80 BA  16 31 04 01 3D 80 3E 80  .:.;.<...1..=.>.
01A0: 3F 80 40 80 4A 08 31 04  01 D3 30 04 01 4A 09 31  ?.@.J.1...0..J.1
01B0: 04 01 D3 30 04 01 4A 0A  31 04 01 D3 30 04 01 4A  ...0..J.1...0..J
01C0: 0B 31 04 01 D3 30 04 01  4A 0C 31 04 01 D3 30 04  .1...0..J.1...0.
01D0: 01 4A 0D 31 04 01 D3 30  04 01 4A 0E 31 04 01 D3  .J.1...0..J.1...
01E0: 30 04 01 4A 0F 31 04 01  D3 30 04 01 4A 10 31 04  0..J.1...0..J.1.
01F0: 01 D3 30 04 01 4A 11 31  04 01 D3 30 04 01 4A 12  ..0..J.1...0..J.
0200: 31 04 01 D3 30 04 01 4A  13 31 04 01 D3 30 04 01  1...0..J.1...0..
0210: 4A 14 31 04 01 D3 30 04  01 4A 15 31 04 01 D3 30  J.1...0..J.1...0
0220: 04 01 4A 16 31 04 01 D3  30 04 01 5B 0C 80 08 31  ..J.1...0..[...1
0230: 04 01 08 31 04 01 6D 6E  6B 30 5B 0D 80 09 31 04  ...1..mnk0[...1.
0240: 01 09 31 04 01 77 6E 64  30 5B 0C 80 0B 31 04 01  ..1..wnd0[...1..
0250: 0B 31 04 01 6D 6E 6B 30  5B 0D 80 0C 31 04 01 0C  .1..mnk0[...1...
0260: 31 04 01 77 6E 64 30 5B  0C 80 0E 31 04 01 0E 31  1..wnd0[...1...1
0270: 04 01 6D 6E 6B 30 5B 0D  80 0F 31 04 01 0F 31 04  ..mnk0[...1...1.
0280: 01 77 6E 64 30 5B 0C 80  11 31 04 01 11 31 04 01  .wnd0[...1...1..
0290: 6D 6E 6B 30 5B 0D 80 12  31 04 01 12 31 04 01 77  mnk0[...1...1..w
02A0: 6E 64 30 5B 0C 80 14 31  04 01 14 31 04 01 6D 6E  nd0[...1...1..mn
02B0: 6B 30 5B 0D 80 15 31 04  01 15 31 04 01 77 6E 64  k0[...1...1..wnd
02C0: 30 00                                             0.              
```

#### Opcodes

```
  0: 0x0075 [0x4E] SET_ENTITY_HIDE_FLAG: Show Unnamed NPC (ID: 17051915/0x0104310B)
  1: 0x007B [0x4E] SET_ENTITY_HIDE_FLAG: Show Unnamed NPC (ID: 17051916/0x0104310C)
  2: 0x0081 [0x4E] SET_ENTITY_HIDE_FLAG: Show Unnamed NPC (ID: 17051917/0x0104310D)
  3: 0x0087 [0x4E] SET_ENTITY_HIDE_FLAG: Show Unnamed NPC (ID: 17051918/0x0104310E)
  4: 0x008D [0x4E] SET_ENTITY_HIDE_FLAG: Show Unnamed NPC (ID: 17051919/0x0104310F)
  5: 0x0093 [0x4E] SET_ENTITY_HIDE_FLAG: Show Unnamed NPC (ID: 17051920/0x01043110)
  6: 0x0099 [0x4E] SET_ENTITY_HIDE_FLAG: Show Unnamed NPC (ID: 17051921/0x01043111)
  7: 0x009F [0x4E] SET_ENTITY_HIDE_FLAG: Show Unnamed NPC (ID: 17051922/0x01043112)
  8: 0x00A5 [0x4E] SET_ENTITY_HIDE_FLAG: Show Unnamed NPC (ID: 17051923/0x01043113)
  9: 0x00AB [0x4E] SET_ENTITY_HIDE_FLAG: Show Unnamed NPC (ID: 17051924/0x01043114)
 10: 0x00B1 [0x4E] SET_ENTITY_HIDE_FLAG: Show Unnamed NPC (ID: 17051925/0x01043115)
 11: 0x00B7 [0x4E] SET_ENTITY_HIDE_FLAG: Show Unnamed NPC (ID: 17051926/0x01043116)
 12: 0x00BD [0x2F] Unnamed NPC (ID: 17051915/0x0104310B)->Render.Flags0 &= ~0x80000 // Bit 19
 13: 0x00C3 [0x2F] Unnamed NPC (ID: 17051916/0x0104310C)->Render.Flags0 &= ~0x80000 // Bit 19
 14: 0x00C9 [0x2F] Unnamed NPC (ID: 17051917/0x0104310D)->Render.Flags0 &= ~0x80000 // Bit 19
 15: 0x00CF [0x2F] Unnamed NPC (ID: 17051918/0x0104310E)->Render.Flags0 &= ~0x80000 // Bit 19
 16: 0x00D5 [0x2F] Unnamed NPC (ID: 17051919/0x0104310F)->Render.Flags0 &= ~0x80000 // Bit 19
 17: 0x00DB [0x2F] Unnamed NPC (ID: 17051920/0x01043110)->Render.Flags0 &= ~0x80000 // Bit 19
 18: 0x00E1 [0xBA] SET_ENTITY_POSITION(entity_id=Unnamed NPC (ID: 17051912/0x01043108), pos_x=249.828*, pos_z=242.343*, pos_y=-30.649*, direction=33.7°*)
 19: 0x00EE [0xBA] SET_ENTITY_POSITION(entity_id=Unnamed NPC (ID: 17051913/0x01043109), pos_x=252.625*, pos_z=242.234*, pos_y=-30.533*, direction=165.3°*)
 20: 0x00FB [0xBA] SET_ENTITY_POSITION(entity_id=Unnamed NPC (ID: 17051914/0x0104310A), pos_x=249.388*, pos_z=239.349*, pos_y=-30.736*, direction=166.3°*)
 21: 0x0108 [0xBA] SET_ENTITY_POSITION(entity_id=Unnamed NPC (ID: 17051915/0x0104310B), pos_x=250.860*, pos_z=237.748*, pos_y=-30.558*, direction=34.4°*)
 22: 0x0115 [0xBA] SET_ENTITY_POSITION(entity_id=Unnamed NPC (ID: 17051916/0x0104310C), pos_x=253.761*, pos_z=239.393*, pos_y=-30.590*, direction=34.2°*)
 23: 0x0122 [0xBA] SET_ENTITY_POSITION(entity_id=Unnamed NPC (ID: 17051917/0x0104310D), pos_x=253.761*, pos_z=239.393*, pos_y=-30.590*, direction=34.2°*)
 24: 0x012F [0xBA] SET_ENTITY_POSITION(entity_id=Unnamed NPC (ID: 17051918/0x0104310E), pos_x=241.197*, pos_z=233.532*, pos_y=-31.078*, direction=34.3°*)
 25: 0x013C [0xBA] SET_ENTITY_POSITION(entity_id=Unnamed NPC (ID: 17051919/0x0104310F), pos_x=244.171*, pos_z=231.457*, pos_y=-30.831*, direction=34.4°*)
 26: 0x0149 [0xBA] SET_ENTITY_POSITION(entity_id=Unnamed NPC (ID: 17051920/0x01043110), pos_x=249.354*, pos_z=229.540*, pos_y=-30.858*, direction=36.1°*)
 27: 0x0156 [0xBA] SET_ENTITY_POSITION(entity_id=Unnamed NPC (ID: 17051921/0x01043111), pos_x=250.815*, pos_z=234.410*, pos_y=-30.536*, direction=34.3°*)
 28: 0x0163 [0xBA] SET_ENTITY_POSITION(entity_id=Unnamed NPC (ID: 17051922/0x01043112), pos_x=252.578*, pos_z=231.920*, pos_y=-31.016*, direction=31.9°*)
 29: 0x0170 [0xBA] SET_ENTITY_POSITION(entity_id=Unnamed NPC (ID: 17051923/0x01043113), pos_x=239.817*, pos_z=232.755*, pos_y=-31.039*, direction=34.3°*)
 30: 0x017D [0xBA] SET_ENTITY_POSITION(entity_id=Unnamed NPC (ID: 17051924/0x01043114), pos_x=253.952*, pos_z=245.833*, pos_y=-30.964*, direction=29.2°*)
 31: 0x018A [0xBA] SET_ENTITY_POSITION(entity_id=Unnamed NPC (ID: 17051925/0x01043115), pos_x=248.356*, pos_z=249.359*, pos_y=-30.527*, direction=29.4°*)
 32: 0x0197 [0xBA] SET_ENTITY_POSITION(entity_id=Unnamed NPC (ID: 17051926/0x01043116), pos_x=251.996*, pos_z=249.387*, pos_y=-30.983*, direction=42.0°*)
 33: 0x01A4 [0x4A] Unnamed NPC (ID: 17051912/0x01043108) looks at ??? (ID: 17051859/0x010430D3)
 34: 0x01AD [0x4A] Unnamed NPC (ID: 17051913/0x01043109) looks at ??? (ID: 17051859/0x010430D3)
 35: 0x01B6 [0x4A] Unnamed NPC (ID: 17051914/0x0104310A) looks at ??? (ID: 17051859/0x010430D3)
 36: 0x01BF [0x4A] Unnamed NPC (ID: 17051915/0x0104310B) looks at ??? (ID: 17051859/0x010430D3)
 37: 0x01C8 [0x4A] Unnamed NPC (ID: 17051916/0x0104310C) looks at ??? (ID: 17051859/0x010430D3)
 38: 0x01D1 [0x4A] Unnamed NPC (ID: 17051917/0x0104310D) looks at ??? (ID: 17051859/0x010430D3)
 39: 0x01DA [0x4A] Unnamed NPC (ID: 17051918/0x0104310E) looks at ??? (ID: 17051859/0x010430D3)
 40: 0x01E3 [0x4A] Unnamed NPC (ID: 17051919/0x0104310F) looks at ??? (ID: 17051859/0x010430D3)
 41: 0x01EC [0x4A] Unnamed NPC (ID: 17051920/0x01043110) looks at ??? (ID: 17051859/0x010430D3)
 42: 0x01F5 [0x4A] Unnamed NPC (ID: 17051921/0x01043111) looks at ??? (ID: 17051859/0x010430D3)
 43: 0x01FE [0x4A] Unnamed NPC (ID: 17051922/0x01043112) looks at ??? (ID: 17051859/0x010430D3)
 44: 0x0207 [0x4A] Unnamed NPC (ID: 17051923/0x01043113) looks at ??? (ID: 17051859/0x010430D3)
 45: 0x0210 [0x4A] Unnamed NPC (ID: 17051924/0x01043114) looks at ??? (ID: 17051859/0x010430D3)
 46: 0x0219 [0x4A] Unnamed NPC (ID: 17051925/0x01043115) looks at ??? (ID: 17051859/0x010430D3)
 47: 0x0222 [0x4A] Unnamed NPC (ID: 17051926/0x01043116) looks at ??? (ID: 17051859/0x010430D3)
 48: 0x022B [0x5B] LOAD_EXT_SCHEDULER: Load scheduler "mnk0" with entities [Unnamed NPC (ID: 17051912/0x01043108), Unnamed NPC (ID: 17051912/0x01043108)], work=827*
 49: 0x023A [0x5B] LOAD_EXT_SCHEDULER: Load scheduler "wnd0" with entities [Unnamed NPC (ID: 17051913/0x01043109), Unnamed NPC (ID: 17051913/0x01043109)], work=828*
 50: 0x0249 [0x5B] LOAD_EXT_SCHEDULER: Load scheduler "mnk0" with entities [Unnamed NPC (ID: 17051915/0x0104310B), Unnamed NPC (ID: 17051915/0x0104310B)], work=827*
 51: 0x0258 [0x5B] LOAD_EXT_SCHEDULER: Load scheduler "wnd0" with entities [Unnamed NPC (ID: 17051916/0x0104310C), Unnamed NPC (ID: 17051916/0x0104310C)], work=828*
 52: 0x0267 [0x5B] LOAD_EXT_SCHEDULER: Load scheduler "mnk0" with entities [Unnamed NPC (ID: 17051918/0x0104310E), Unnamed NPC (ID: 17051918/0x0104310E)], work=827*
 53: 0x0276 [0x5B] LOAD_EXT_SCHEDULER: Load scheduler "wnd0" with entities [Unnamed NPC (ID: 17051919/0x0104310F), Unnamed NPC (ID: 17051919/0x0104310F)], work=828*
 54: 0x0285 [0x5B] LOAD_EXT_SCHEDULER: Load scheduler "mnk0" with entities [Unnamed NPC (ID: 17051921/0x01043111), Unnamed NPC (ID: 17051921/0x01043111)], work=827*
 55: 0x0294 [0x5B] LOAD_EXT_SCHEDULER: Load scheduler "wnd0" with entities [Unnamed NPC (ID: 17051922/0x01043112), Unnamed NPC (ID: 17051922/0x01043112)], work=828*
 56: 0x02A3 [0x5B] LOAD_EXT_SCHEDULER: Load scheduler "mnk0" with entities [Unnamed NPC (ID: 17051924/0x01043114), Unnamed NPC (ID: 17051924/0x01043114)], work=827*
 57: 0x02B2 [0x5B] LOAD_EXT_SCHEDULER: Load scheduler "wnd0" with entities [Unnamed NPC (ID: 17051925/0x01043115), Unnamed NPC (ID: 17051925/0x01043115)], work=828*
 58: 0x02C1 [0x00] END_REQSTACK()
```
