# 17051906

## Common Data

| Field            | Value                   |
|------------------|-------------------------|
| Zone             | Jade Sepulcher (ID: 67) |
| Block Size       | 152 bytes               |
| Total Events     | 6                       |
| References Count | 10                      |

## List of Events

| Event ID                 | Entrypoint   |   Size |   Instructions |
|--------------------------|--------------|--------|----------------|
| [65535](#event-65535)    | 0x0000       |      1 |              1 |
| [32001](#event-32001)    | 0x0001       |      1 |              1 |
| [65535.1](#event-655351) | 0x0002       |     32 |              5 |
| [65535.2](#event-655352) | 0x0022       |     31 |              9 |
| [65535.3](#event-655353) | 0x0041       |      1 |              1 |
| [65535.4](#event-655354) | 0x0042       |      3 |              2 |

## DAT References (imed_data)

|   Index | Hex Value   |   Dec Value |
|---------|-------------|-------------|
|       0 | 0x3B23A     |      242234 |
|       1 | 0x396AD     |      235181 |
|       2 | 0xFFFF8648  |  4294936136 |
|       3 | 0x0186      |         390 |
|       4 | 0x033B      |         827 |
|       5 | 0x0028      |          40 |
|       6 | 0x3C48B     |      246923 |
|       7 | 0x3B568     |      243048 |
|       8 | 0xFFFF86E5  |  4294936293 |
|       9 | 0x0005      |           5 |

## Events

### Event 65535

#### Metadata

| Field        | Value   |
|--------------|---------|
| Entrypoint   | 0x0000  |
| Data Size    | 1 bytes |
| Instructions | 1       |

```
      00 01 02 03 04 05 06 07  08 09 0A 0B 0C 0D 0E 0F
      -- -- -- -- -- -- -- --  -- -- -- -- -- -- -- --
0000: 00                                                .               
```

#### Opcodes

```
  0: 0x0000 [0x00] END_REQSTACK()
```

### Event 32001

#### Metadata

| Field        | Value   |
|--------------|---------|
| Entrypoint   | 0x0001  |
| Data Size    | 1 bytes |
| Instructions | 1       |

```
      00 01 02 03 04 05 06 07  08 09 0A 0B 0C 0D 0E 0F
      -- -- -- -- -- -- -- --  -- -- -- -- -- -- -- --
0000:    00                                              .              
```

#### Opcodes

```
  0: 0x0001 [0x00] END_REQSTACK()
```

### Event 65535.1

#### Metadata

| Field        | Value    |
|--------------|----------|
| Entrypoint   | 0x0002   |
| Data Size    | 32 bytes |
| Instructions | 5        |

```
      00 01 02 03 04 05 06 07  08 09 0A 0B 0C 0D 0E 0F
      -- -- -- -- -- -- -- --  -- -- -- -- -- -- -- --
0000:       37 00 80 01 80 02  80 03 80 1E D3 30 04 01    7..........0..
0010: 61 00 5B 04 80 02 31 04  01 02 31 04 01 73 72 64  a.[...1...1..srd
0020: 30 00                                             0.              
```

#### Opcodes

```
  0: 0x0002 [0x37] UPDATE_EVENT_POSITION_AND_DIR: x=242.234*, z=235.181*, y=-31.160*, direction=34.3°*
  1: 0x000B [0x1E] EventEntity looks at ??? (ID: 17051859/0x010430D3) and starts talking
  2: 0x0010 [0x61] EventEntity->Render.Flags2 &= ~0x00000001
  3: 0x0012 [0x5B] LOAD_EXT_SCHEDULER: Load scheduler "srd0" with entities [Unnamed NPC (ID: 17051906/0x01043102), Unnamed NPC (ID: 17051906/0x01043102)], work=827*
  4: 0x0021 [0x00] END_REQSTACK()
```

### Event 65535.2

#### Metadata

| Field        | Value    |
|--------------|----------|
| Entrypoint   | 0x0022   |
| Data Size    | 31 bytes |
| Instructions | 9        |

```
      00 01 02 03 04 05 06 07  08 09 0A 0B 0C 0D 0E 0F
      -- -- -- -- -- -- -- --  -- -- -- -- -- -- -- --
0020:       4E 00 02 31 04 01  1E EF 30 04 01 32 05 80    N..1....0..2..
0030: 61 00 1F 00 06 80 07 80  08 80 1F 01 6F 1C 09 80  a...........o...
0040: 00                                                .               
```

#### Opcodes

```
  0: 0x0022 [0x4E] SET_ENTITY_HIDE_FLAG: Show Unnamed NPC (ID: 17051906/0x01043102)
  1: 0x0028 [0x1E] EventEntity looks at Rishfee (ID: 17051887/0x010430EF) and starts talking
  2: 0x002D [0x32] ExtData[1]->MainSpeed = 40* * 0.1
  3: 0x0030 [0x61] EventEntity->Render.Flags2 &= ~0x00000001
  4: 0x0032 [0x1F] MOVE_ENTITY: EventEntity moves to X=246.923*, Z=243.048*, Y=-31.003*
  5: 0x003A [0x1F] MOVE_ENTITY: Update entity position (mode=1)
  6: 0x003C [0x6F] WAIT_FRAME_DELAY: Yield until WaitTime reaches zero
  7: 0x003D [0x1C] WAIT(5* ticks)
  8: 0x0040 [0x00] END_REQSTACK()
```

### Event 65535.3

#### Metadata

| Field        | Value   |
|--------------|---------|
| Entrypoint   | 0x0041  |
| Data Size    | 1 bytes |
| Instructions | 1       |

```
      00 01 02 03 04 05 06 07  08 09 0A 0B 0C 0D 0E 0F
      -- -- -- -- -- -- -- --  -- -- -- -- -- -- -- --
0040:    00                                              .              
```

#### Opcodes

```
  0: 0x0041 [0x00] END_REQSTACK()
```

### Event 65535.4

#### Metadata

| Field        | Value   |
|--------------|---------|
| Entrypoint   | 0x0042  |
| Data Size    | 3 bytes |
| Instructions | 2       |

```
      00 01 02 03 04 05 06 07  08 09 0A 0B 0C 0D 0E 0F
      -- -- -- -- -- -- -- --  -- -- -- -- -- -- -- --
0040:       61 01 00                                      a..           
```

#### Opcodes

```
  0: 0x0042 [0x61] EventEntity->Render.Flags2 |= 0x00000001
  1: 0x0044 [0x00] END_REQSTACK()
```
