# 17051933

## Common Data

| Field            | Value                   |
|------------------|-------------------------|
| Zone             | Jade Sepulcher (ID: 67) |
| Block Size       | 8148 bytes              |
| Total Events     | 5                       |
| References Count | 194                     |

## List of Events

| Event ID                 | Entrypoint   |   Size |   Instructions |
|--------------------------|--------------|--------|----------------|
| [65535](#event-65535)    | 0x0000       |    658 |             62 |
| [7](#event-7)            | 0x0292       |   6665 |            772 |
| [32001](#event-32001)    | 0x1C9B       |      1 |              1 |
| [65535.1](#event-655351) | 0x1C9C       |      5 |              2 |
| [65535.2](#event-655352) | 0x1CA1       |      5 |              2 |

## DAT References (imed_data)

|   Index | Hex Value   |   Dec Value |
|---------|-------------|-------------|
|       0 | 0x00C8      |         200 |
|       1 | 0x0000      |           0 |
|       2 | 0x00C9      |         201 |
|       3 | 0x0001      |           1 |
|       4 | 0x002D      |          45 |
|       5 | 0x0002      |           2 |
|       6 | 0x001E      |          30 |
|       7 | 0x00D7      |         215 |
|       8 | 0x012C      |         300 |
|       9 | 0x0093      |         147 |
|      10 | 0x493E0     |      300000 |
|      11 | 0xFFFD2394  |  4294779796 |
|      12 | 0xFFFFFC74  |  4294966388 |
|      13 | 0x03FF      |        1023 |
|      14 | 0x37C28     |      228392 |
|      15 | 0x3D053     |      249939 |
|      16 | 0xFFFF871A  |  4294936346 |
|      17 | 0x0200      |         512 |
|      18 | 0x38273     |      230003 |
|      19 | 0x3D70F     |      251663 |
|      20 | 0xFFFF86DC  |  4294936284 |
|      21 | 0x3857E     |      230782 |
|      22 | 0x3CD84     |      249220 |
|      23 | 0xFFFF8892  |  4294936722 |
|      24 | 0x3B625     |      243237 |
|      25 | 0x39BD3     |      236499 |
|      26 | 0xFFFF8661  |  4294936161 |
|      27 | 0x01D2      |         466 |
|      28 | 0x3D08A     |      249994 |
|      29 | 0x38299     |      230041 |
|      30 | 0xFFFF6C7D  |  4294929533 |
|      31 | 0x0A00      |        2560 |
|      32 | 0x3DCA0     |      253088 |
|      33 | 0x3BEF4     |      245492 |
|      34 | 0x06F9      |        1785 |
|      35 | 0x394B9     |      234681 |
|      36 | 0x3763B     |      226875 |
|      37 | 0x0D47      |        3399 |
|      38 | 0x3A947     |      239943 |
|      39 | 0x3E0A6     |      254118 |
|      40 | 0x03EF      |        1007 |
|      41 | 0x3A4B5     |      238773 |
|      42 | 0x389AA     |      231850 |
|      43 | 0xFFFF86EF  |  4294936303 |
|      44 | 0x0DD8      |        3544 |
|      45 | 0x3B401     |      242689 |
|      46 | 0x37A04     |      227844 |
|      47 | 0xFFFF88D1  |  4294936785 |
|      48 | 0x0C1E      |        3102 |
|      49 | 0x3CA87     |      248455 |
|      50 | 0x3A9C9     |      240073 |
|      51 | 0xFFFF8732  |  4294936370 |
|      52 | 0x0679      |        1657 |
|      53 | 0x3CB6C     |      248684 |
|      54 | 0x38869     |      231529 |
|      55 | 0xFFFF88C6  |  4294936774 |
|      56 | 0x0A16      |        2582 |
|      57 | 0x3D807     |      251911 |
|      58 | 0x39D6A     |      236906 |
|      59 | 0xFFFF88D7  |  4294936791 |
|      60 | 0x0798      |        1944 |
|      61 | 0xFFFD0260  |  4294771296 |
|      62 | 0xFFFFFEAA  |  4294966954 |
|      63 | 0x0C68      |        3176 |
|      64 | 0x033C      |         828 |
|      65 | 0x033B      |         827 |
|      66 | 0x03D2      |         978 |
|      67 | 0x03ED      |        1005 |
|      68 | 0x0094      |         148 |
|      69 | 0x035E      |         862 |
|      70 | 0x0078      |         120 |
|      71 | 0x1F7B      |        8059 |
|      72 | 0x0014      |          20 |
|      73 | 0x0005      |           5 |
|      74 | 0x0003      |           3 |
|      75 | 0x0004      |           4 |
|      76 | 0x0006      |           6 |
|      77 | 0x0008      |           8 |
|      78 | 0x000F      |          15 |
|      79 | 0x1F7C      |        8060 |
|      80 | 0x1F7D      |        8061 |
|      81 | 0x1F7E      |        8062 |
|      82 | 0x1F7F      |        8063 |
|      83 | 0x003C      |          60 |
|      84 | 0x00B4      |         180 |
|      85 | 0x1F7A      |        8058 |
|      86 | 0x008F      |         143 |
|      87 | 0x02B2      |         690 |
|      88 | 0x00FD      |         253 |
|      89 | 0x0041      |          65 |
|      90 | 0x00A7      |         167 |
|      91 | 0x00F0      |         240 |
|      92 | 0x1F80      |        8064 |
|      93 | 0x0034      |          52 |
|      94 | 0x1F81      |        8065 |
|      95 | 0x1F82      |        8066 |
|      96 | 0x1F83      |        8067 |
|      97 | 0x1F84      |        8068 |
|      98 | 0x1F85      |        8069 |
|      99 | 0x1F86      |        8070 |
|     100 | 0x00E7      |         231 |
|     101 | 0x3896D     |      231789 |
|     102 | 0x3CAD2     |      248530 |
|     103 | 0xFFFF88C9  |  4294936777 |
|     104 | 0x01DF      |         479 |
|     105 | 0x3831B     |      230171 |
|     106 | 0x3D423     |      250915 |
|     107 | 0xFFFF872D  |  4294936365 |
|     108 | 0x01F4      |         500 |
|     109 | 0x1F87      |        8071 |
|     110 | 0x0350      |         848 |
|     111 | 0x1F88      |        8072 |
|     112 | 0x1F89      |        8073 |
|     113 | 0x1F8A      |        8074 |
|     114 | 0x1F8B      |        8075 |
|     115 | 0x0096      |         150 |
|     116 | 0x1F8C      |        8076 |
|     117 | 0x1F8D      |        8077 |
|     118 | 0x1F8E      |        8078 |
|     119 | 0x0080      |         128 |
|     120 | 0x38E99     |      233113 |
|     121 | 0x3BE7E     |      245374 |
|     122 | 0xFFFF871E  |  4294936350 |
|     123 | 0x3949B     |      234651 |
|     124 | 0x3C3E4     |      246756 |
|     125 | 0xFFFF871D  |  4294936349 |
|     126 | 0x394DB     |      234715 |
|     127 | 0x3BE4F     |      245327 |
|     128 | 0xFFFF86FF  |  4294936319 |
|     129 | 0x004F      |          79 |
|     130 | 0x3A2CA     |      238282 |
|     131 | 0x3B814     |      243732 |
|     132 | 0xFFFF860C  |  4294936076 |
|     133 | 0x0016      |          22 |
|     134 | 0x0015      |          21 |
|     135 | 0x1F8F      |        8079 |
|     136 | 0x1F90      |        8080 |
|     137 | 0x0028      |          40 |
|     138 | 0x1F91      |        8081 |
|     139 | 0x1F92      |        8082 |
|     140 | 0x001B      |          27 |
|     141 | 0x03E7      |         999 |
|     142 | 0x0090      |         144 |
|     143 | 0x00D2      |         210 |
|     144 | 0x004A      |          74 |
|     145 | 0x001D      |          29 |
|     146 | 0x004B      |          75 |
|     147 | 0x0092      |         146 |
|     148 | 0xFFFF8317  |  4294935319 |
|     149 | 0x00D5      |         213 |
|     150 | 0x3944D     |      234573 |
|     151 | 0x3C3AF     |      246703 |
|     152 | 0xFFFF8720  |  4294936352 |
|     153 | 0x02BC      |         700 |
|     154 | 0x1F93      |        8083 |
|     155 | 0x0050      |          80 |
|     156 | 0x01B9      |         441 |
|     157 | 0x38639     |      230969 |
|     158 | 0x3DAA7     |      252583 |
|     159 | 0xFFFF86C5  |  4294936261 |
|     160 | 0x054E      |        1358 |
|     161 | 0x00D6      |         214 |
|     162 | 0x1F94      |        8084 |
|     163 | 0x37F3D     |      229181 |
|     164 | 0x3CE17     |      249367 |
|     165 | 0xFFFF86F3  |  4294936307 |
|     166 | 0x0067      |         103 |
|     167 | 0x00D0      |         208 |
|     168 | 0x1F95      |        8085 |
|     169 | 0x005A      |          90 |
|     170 | 0x0330      |         816 |
|     171 | 0x0065      |         101 |
|     172 | 0x0029      |          41 |
|     173 | 0x1F96      |        8086 |
|     174 | 0x1F97      |        8087 |
|     175 | 0x0048      |          72 |
|     176 | 0x1F98      |        8088 |
|     177 | 0x3B54A     |      243018 |
|     178 | 0x3B946     |      244038 |
|     179 | 0xFFFF8683  |  4294936195 |
|     180 | 0x0851      |        2129 |
|     181 | 0x1F99      |        8089 |
|     182 | 0x1F9A      |        8090 |
|     183 | 0x000A      |          10 |
|     184 | 0x002E      |          46 |
|     185 | 0x1F9B      |        8091 |
|     186 | 0x1F9C      |        8092 |
|     187 | 0x1F9D      |        8093 |
|     188 | 0x1F9E      |        8094 |
|     189 | 0x001A      |          26 |
|     190 | 0x1F9F      |        8095 |
|     191 | 0x1FA0      |        8096 |
|     192 | 0x1FA1      |        8097 |
|     193 | 0x1FA2      |        8098 |

## String References

- **8058**: @@

## Events

### Event 65535

#### Metadata

| Field        | Value     |
|--------------|-----------|
| Entrypoint   | 0x0000    |
| Data Size    | 658 bytes |
| Instructions | 1         |

```
      00 01 02 03 04 05 06 07  08 09 0A 0B 0C 0D 0E 0F
      -- -- -- -- -- -- -- --  -- -- -- -- -- -- -- --
0000: 00 45 00 80 F0 FF FF 7F  F0 FF FF 7F 66 64 69 30  .E..........fdi0
0010: 01 80 55 00 80 F0 FF FF  7F F0 FF FF 7F 66 64 69  ..U..........fdi
0020: 30 1B 45 00 80 F0 FF FF  7F F0 FF FF 7F 66 64 6F  0.E..........fdo
0030: 30 01 80 55 00 80 F0 FF  FF 7F F0 FF FF 7F 66 64  0..U..........fd
0040: 6F 30 1B 45 00 80 F0 FF  FF 7F F0 FF FF 7F 66 64  o0.E..........fd
0050: 69 31 01 80 55 00 80 F0  FF FF 7F F0 FF FF 7F 66  i1..U..........f
0060: 64 69 31 1B 45 00 80 F0  FF FF 7F F0 FF FF 7F 66  di1.E..........f
0070: 64 6F 31 01 80 55 00 80  F0 FF FF 7F F0 FF FF 7F  do1..U..........
0080: 66 64 6F 31 1B 45 02 80  F0 FF FF 7F F0 FF FF 7F  fdo1.E..........
0090: 77 68 69 31 01 80 55 02  80 F0 FF FF 7F F0 FF FF  whi1..U.........
00A0: 7F 77 68 69 31 1B 45 02  80 F0 FF FF 7F F0 FF FF  .whi1.E.........
00B0: 7F 77 68 6F 31 01 80 55  02 80 F0 FF FF 7F F0 FF  .who1..U........
00C0: FF 7F 77 68 6F 31 1B 45  02 80 F0 FF FF 7F F0 FF  ..who1.E........
00D0: FF 7F 77 68 6F 32 01 80  55 02 80 F0 FF FF 7F F0  ..who2..U.......
00E0: FF FF 7F 77 68 6F 32 1B  45 02 80 F0 FF FF 7F F0  ...who2.E.......
00F0: FF FF 7F 77 68 6F 33 01  80 55 02 80 F0 FF FF 7F  ...who3..U......
0100: F0 FF FF 7F 77 68 6F 33  1B 62 03 80 F0 FF FF 7F  ....who3.b......
0110: F0 FF FF 7F 6D 61 69 6E  01 80 1C 04 80 45 00 80  ....main.....E..
0120: F0 FF FF 7F F0 FF FF 7F  66 64 6F 31 01 80 55 00  ........fdo1..U.
0130: 80 F0 FF FF 7F F0 FF FF  7F 66 64 6F 31 1B 45 00  .........fdo1.E.
0140: 80 F0 FF FF 7F F0 FF FF  7F 66 64 69 31 01 80 62  .........fdi1..b
0150: 05 80 F0 FF FF 7F F0 FF  FF 7F 6D 61 69 6E 01 80  ..........main..
0160: 1C 06 80 55 00 80 F0 FF  FF 7F F0 FF FF 7F 66 64  ...U..........fd
0170: 69 31 1B 45 00 80 F0 FF  FF 7F F0 FF FF 7F 62 6C  i1.E..........bl
0180: 6F 6E 01 80 45 02 80 F0  FF FF 7F F0 FF FF 7F 62  on..E..........b
0190: 6C 6F 6E 01 80 1B 45 02  80 F0 FF FF 7F F0 FF FF  lon...E.........
01A0: 7F 77 68 69 30 01 80 55  02 80 F0 FF FF 7F F0 FF  .whi0..U........
01B0: FF 7F 77 68 69 30 1B 45  02 80 F0 FF FF 7F F0 FF  ..whi0.E........
01C0: FF 7F 77 68 6F 30 01 80  55 02 80 F0 FF FF 7F F0  ..who0..U.......
01D0: FF FF 7F 77 68 6F 30 1B  45 07 80 F0 FF FF 7F F0  ...who0.E.......
01E0: FF FF 7F 65 66 6F 6E 01  80 55 07 80 F0 FF FF 7F  ...efon..U......
01F0: F0 FF FF 7F 65 66 6F 6E  1B 45 00 80 F0 FF FF 7F  ....efon.E......
0200: F0 FF FF 7F 66 64 69 73  01 80 1B 45 00 80 F0 FF  ....fdis...E....
0210: FF 7F F0 FF FF 7F 66 64  6F 73 01 80 55 00 80 F0  ......fdos..U...
0220: FF FF 7F F0 FF FF 7F 66  64 6F 73 1B 45 00 80 F0  .......fdos.E...
0230: FF FF 7F F0 FF FF 7F 66  64 69 66 01 80 1B 45 00  .......fdif...E.
0240: 80 F0 FF FF 7F F0 FF FF  7F 66 64 6F 66 01 80 55  .........fdof..U
0250: 00 80 F0 FF FF 7F F0 FF  FF 7F 66 64 6F 66 1B 45  ..........fdof.E
0260: 00 80 F0 FF FF 7F F0 FF  FF 7F 66 64 69 70 01 80  ..........fdip..
0270: 1B 45 00 80 F0 FF FF 7F  F0 FF FF 7F 66 64 6F 70  .E..........fdop
0280: 01 80 55 00 80 F0 FF FF  7F F0 FF FF 7F 66 64 6F  ..U..........fdo
0290: 70 1B                                             p.              
```

#### Opcodes

```
  0: 0x0000 [0x00] END_REQSTACK()
```

#### Data or dead code:

```
# Dead code (unreachable instructions):
     0x0001 [0x45] LOAD_SCHEDULED_TASK: Load scheduler "fdi0" with entities [LocalPlayer, LocalPlayer], work=[200*, 0*]
     0x0012 [0x55] WAIT_LOAD_SCHEDULER: Wait for scheduler "fdi0" with entities [LocalPlayer, LocalPlayer], work=200*
     0x0021 [0x1B] RETURN
     0x0022 [0x45] LOAD_SCHEDULED_TASK: Load scheduler "fdo0" with entities [LocalPlayer, LocalPlayer], work=[200*, 0*]
     0x0033 [0x55] WAIT_LOAD_SCHEDULER: Wait for scheduler "fdo0" with entities [LocalPlayer, LocalPlayer], work=200*
     0x0042 [0x1B] RETURN
     0x0043 [0x45] LOAD_SCHEDULED_TASK: Load scheduler "fdi1" with entities [LocalPlayer, LocalPlayer], work=[200*, 0*]
     0x0054 [0x55] WAIT_LOAD_SCHEDULER: Wait for scheduler "fdi1" with entities [LocalPlayer, LocalPlayer], work=200*
     0x0063 [0x1B] RETURN
     0x0064 [0x45] LOAD_SCHEDULED_TASK: Load scheduler "fdo1" with entities [LocalPlayer, LocalPlayer], work=[200*, 0*]
     0x0075 [0x55] WAIT_LOAD_SCHEDULER: Wait for scheduler "fdo1" with entities [LocalPlayer, LocalPlayer], work=200*
     0x0084 [0x1B] RETURN
     0x0085 [0x45] LOAD_SCHEDULED_TASK: Load scheduler "whi1" with entities [LocalPlayer, LocalPlayer], work=[201*, 0*]
     0x0096 [0x55] WAIT_LOAD_SCHEDULER: Wait for scheduler "whi1" with entities [LocalPlayer, LocalPlayer], work=201*
     0x00A5 [0x1B] RETURN
     0x00A6 [0x45] LOAD_SCHEDULED_TASK: Load scheduler "who1" with entities [LocalPlayer, LocalPlayer], work=[201*, 0*]
     0x00B7 [0x55] WAIT_LOAD_SCHEDULER: Wait for scheduler "who1" with entities [LocalPlayer, LocalPlayer], work=201*
     0x00C6 [0x1B] RETURN
     0x00C7 [0x45] LOAD_SCHEDULED_TASK: Load scheduler "who2" with entities [LocalPlayer, LocalPlayer], work=[201*, 0*]
     0x00D8 [0x55] WAIT_LOAD_SCHEDULER: Wait for scheduler "who2" with entities [LocalPlayer, LocalPlayer], work=201*
     0x00E7 [0x1B] RETURN
     0x00E8 [0x45] LOAD_SCHEDULED_TASK: Load scheduler "who3" with entities [LocalPlayer, LocalPlayer], work=[201*, 0*]
     0x00F9 [0x55] WAIT_LOAD_SCHEDULER: Wait for scheduler "who3" with entities [LocalPlayer, LocalPlayer], work=201*
     0x0108 [0x1B] RETURN
     0x0109 [0x62] LOAD_EVENT_SCHEDULER: Load scheduler "main" with entities [LocalPlayer, LocalPlayer], work=[1*, 0*]
     0x011A [0x1C] WAIT(45* ticks)
     0x011D [0x45] LOAD_SCHEDULED_TASK: Load scheduler "fdo1" with entities [LocalPlayer, LocalPlayer], work=[200*, 0*]
     0x012E [0x55] WAIT_LOAD_SCHEDULER: Wait for scheduler "fdo1" with entities [LocalPlayer, LocalPlayer], work=200*
     0x013D [0x1B] RETURN
     0x013E [0x45] LOAD_SCHEDULED_TASK: Load scheduler "fdi1" with entities [LocalPlayer, LocalPlayer], work=[200*, 0*]
     0x014F [0x62] LOAD_EVENT_SCHEDULER: Load scheduler "main" with entities [LocalPlayer, LocalPlayer], work=[2*, 0*]
     0x0160 [0x1C] WAIT(30* ticks)
     0x0163 [0x55] WAIT_LOAD_SCHEDULER: Wait for scheduler "fdi1" with entities [LocalPlayer, LocalPlayer], work=200*
     0x0172 [0x1B] RETURN
     0x0173 [0x45] LOAD_SCHEDULED_TASK: Load scheduler "blon" with entities [LocalPlayer, LocalPlayer], work=[200*, 0*]
     0x0184 [0x45] LOAD_SCHEDULED_TASK: Load scheduler "blon" with entities [LocalPlayer, LocalPlayer], work=[201*, 0*]
     0x0195 [0x1B] RETURN
     0x0196 [0x45] LOAD_SCHEDULED_TASK: Load scheduler "whi0" with entities [LocalPlayer, LocalPlayer], work=[201*, 0*]
     0x01A7 [0x55] WAIT_LOAD_SCHEDULER: Wait for scheduler "whi0" with entities [LocalPlayer, LocalPlayer], work=201*
     0x01B6 [0x1B] RETURN
     0x01B7 [0x45] LOAD_SCHEDULED_TASK: Load scheduler "who0" with entities [LocalPlayer, LocalPlayer], work=[201*, 0*]
     0x01C8 [0x55] WAIT_LOAD_SCHEDULER: Wait for scheduler "who0" with entities [LocalPlayer, LocalPlayer], work=201*
     0x01D7 [0x1B] RETURN
     0x01D8 [0x45] LOAD_SCHEDULED_TASK: Load scheduler "efon" with entities [LocalPlayer, LocalPlayer], work=[215*, 0*]
     0x01E9 [0x55] WAIT_LOAD_SCHEDULER: Wait for scheduler "efon" with entities [LocalPlayer, LocalPlayer], work=215*
     0x01F8 [0x1B] RETURN
     0x01F9 [0x45] LOAD_SCHEDULED_TASK: Load scheduler "fdis" with entities [LocalPlayer, LocalPlayer], work=[200*, 0*]
     0x020A [0x1B] RETURN
     0x020B [0x45] LOAD_SCHEDULED_TASK: Load scheduler "fdos" with entities [LocalPlayer, LocalPlayer], work=[200*, 0*]
     0x021C [0x55] WAIT_LOAD_SCHEDULER: Wait for scheduler "fdos" with entities [LocalPlayer, LocalPlayer], work=200*
     0x022B [0x1B] RETURN
     0x022C [0x45] LOAD_SCHEDULED_TASK: Load scheduler "fdif" with entities [LocalPlayer, LocalPlayer], work=[200*, 0*]
     0x023D [0x1B] RETURN
     0x023E [0x45] LOAD_SCHEDULED_TASK: Load scheduler "fdof" with entities [LocalPlayer, LocalPlayer], work=[200*, 0*]
     0x024F [0x55] WAIT_LOAD_SCHEDULER: Wait for scheduler "fdof" with entities [LocalPlayer, LocalPlayer], work=200*
     0x025E [0x1B] RETURN
     0x025F [0x45] LOAD_SCHEDULED_TASK: Load scheduler "fdip" with entities [LocalPlayer, LocalPlayer], work=[200*, 0*]
     0x0270 [0x1B] RETURN
     0x0271 [0x45] LOAD_SCHEDULED_TASK: Load scheduler "fdop" with entities [LocalPlayer, LocalPlayer], work=[200*, 0*]
     0x0282 [0x55] WAIT_LOAD_SCHEDULER: Wait for scheduler "fdop" with entities [LocalPlayer, LocalPlayer], work=200*
     0x0291 [0x1B] RETURN
```

### Event 7

#### Metadata

| Field        | Value      |
|--------------|------------|
| Entrypoint   | 0x0292     |
| Data Size    | 6665 bytes |
| Instructions | 772        |

```
      00 01 02 03 04 05 06 07  08 09 0A 0B 0C 0D 0E 0F
      -- -- -- -- -- -- -- --  -- -- -- -- -- -- -- --
0290:       42 5D 01 80 08 80  1A 64 00 46 01 38 09 80    B].....d.F.8..
02A0: 2F 00 1E 31 04 01 2F 00  1F 31 04 01 2F 00 20 31  /..1../..1../. 1
02B0: 04 01 2F 00 EF 30 04 01  2F 00 22 31 04 01 2F 00  ../..0../."1../.
02C0: 23 31 04 01 2F 00 24 31  04 01 2F 00 25 31 04 01  #1../.$1../.%1..
02D0: 2F 00 26 31 04 01 2F 00  FA 30 04 01 2F 00 D6 30  /.&1../..0../..0
02E0: 04 01 2F 00 D7 30 04 01  2F 00 E2 30 04 01 2F 00  ../..0../..0../.
02F0: E3 30 04 01 2F 00 EB 30  04 01 4E 00 1E 31 04 01  .0../..0..N..1..
0300: 4E 00 1F 31 04 01 4E 00  20 31 04 01 4E 00 EF 30  N..1..N. 1..N..0
0310: 04 01 4E 00 22 31 04 01  4E 00 23 31 04 01 4E 00  ..N."1..N.#1..N.
0320: 24 31 04 01 4E 00 25 31  04 01 4E 00 26 31 04 01  $1..N.%1..N.&1..
0330: 4E 00 FA 30 04 01 4E 00  D6 30 04 01 4E 00 D7 30  N..0..N..0..N..0
0340: 04 01 4E 00 E2 30 04 01  4E 00 E3 30 04 01 4E 00  ..N..0..N..0..N.
0350: EB 30 04 01 94 01 1E 31  04 01 94 01 1F 31 04 01  .0.....1.....1..
0360: 94 01 20 31 04 01 94 01  EF 30 04 01 94 01 22 31  .. 1.....0...."1
0370: 04 01 94 01 23 31 04 01  94 01 24 31 04 01 94 01  ....#1....$1....
0380: 25 31 04 01 94 01 26 31  04 01 94 01 FA 30 04 01  %1....&1.....0..
0390: 94 01 D6 30 04 01 94 01  D7 30 04 01 94 01 E2 30  ...0.....0.....0
03A0: 04 01 94 01 E3 30 04 01  94 01 EB 30 04 01 94 01  .....0.....0....
03B0: F0 FF FF 7F BA 1E 31 04  01 0A 80 0B 80 0C 80 0D  ......1.........
03C0: 80 BA 1F 31 04 01 0E 80  0F 80 10 80 11 80 BA 20  ...1........... 
03D0: 31 04 01 12 80 13 80 14  80 11 80 BA EF 30 04 01  1............0..
03E0: 15 80 16 80 17 80 11 80  BA 22 31 04 01 18 80 19  ........."1.....
03F0: 80 1A 80 1B 80 BA 23 31  04 01 1C 80 1D 80 1E 80  ......#1........
0400: 1F 80 BA 24 31 04 01 20  80 21 80 1E 80 22 80 BA  ...$1.. .!..."..
0410: 25 31 04 01 23 80 24 80  1E 80 25 80 BA 26 31 04  %1..#.$...%..&1.
0420: 01 26 80 27 80 1E 80 28  80 BA D6 30 04 01 29 80  .&.'...(...0..).
0430: 2A 80 2B 80 2C 80 BA D7  30 04 01 2D 80 2E 80 2F  *.+.,...0..-.../
0440: 80 30 80 BA E2 30 04 01  31 80 32 80 33 80 34 80  .0...0..1.2.3.4.
0450: BA E3 30 04 01 35 80 36  80 37 80 38 80 BA EB 30  ..0..5.6.7.8...0
0460: 04 01 39 80 3A 80 3B 80  3C 80 BA F0 FF FF 7F 0A  ..9.:.;.<.......
0470: 80 3D 80 3E 80 0D 80 22  00 36 01 80 01 80 01 80  .=.>...".6......
0480: B6 00 3F 80 29 10 EF 30  04 01 14 29 10 FA 30 04  ..?.)..0...)..0.
0490: 01 0B 6C 1F 31 04 01 01  80 03 80 6C 20 31 04 01  ..l.1......l 1..
04A0: 01 80 03 80 6C EF 30 04  01 01 80 03 80 80 1E 31  ....l.0........1
04B0: 04 01 80 1F 31 04 01 80  20 31 04 01 80 EF 30 04  ....1... 1....0.
04C0: 01 80 22 31 04 01 80 23  31 04 01 80 24 31 04 01  .."1...#1...$1..
04D0: 80 25 31 04 01 80 26 31  04 01 80 FA 30 04 01 80  .%1...&1....0...
04E0: D6 30 04 01 80 D7 30 04  01 80 E2 30 04 01 80 E3  .0....0....0....
04F0: 30 04 01 80 EB 30 04 01  80 F0 FF FF 7F 5B 40 80  0....0.......[@.
0500: 23 31 04 01 23 31 04 01  77 6E 64 30 5B 41 80 25  #1..#1..wnd0[A.%
0510: 31 04 01 25 31 04 01 6D  6E 6B 30 5B 41 80 24 31  1..%1..mnk0[A.$1
0520: 04 01 24 31 04 01 73 72  64 30 5B 42 80 26 31 04  ..$1..srd0[B.&1.
0530: 01 26 31 04 01 68 69 30  31 5B 43 80 FA 30 04 01  .&1..hi01[C..0..
0540: FA 30 04 01 68 69 61 30  5B 41 80 D6 30 04 01 D6  .0..hia0[A..0...
0550: 30 04 01 6D 6E 6B 30 2C  D6 30 04 01 D6 30 04 01  0..mnk0,.0...0..
0560: 63 6F 72 70 2C E2 30 04  01 E2 30 04 01 63 6F 72  corp,.0...0..cor
0570: 70 2C D7 30 04 01 D7 30  04 01 63 6F 72 70 5B 40  p,.0...0..corp[@
0580: 80 E3 30 04 01 E3 30 04  01 77 6E 64 30 5B 41 80  ..0...0..wnd0[A.
0590: EB 30 04 01 EB 30 04 01  6D 6E 6B 30 5C 00 44 80  .0...0..mnk0\.D.
05A0: 5C 01 44 80 5C 02 44 80  5C 03 44 80 9A 79 00 1E  \.D.\.D.\.D..y..
05B0: 31 04 01 F0 FF FF 7F 27  10 1E 31 04 01 18 45 45  1......'..1...EE
05C0: 80 F8 FF FF 7F F8 FF FF  7F 73 30 30 30 01 80 1A  .........s000...
05D0: 43 00 1C 46 80 2B 1E 31  04 01 47 80 2A 10 1E 31  C..F.+.1..G.*..1
05E0: 04 01 23 1C 48 80 4A F0  FF FF 7F 1E 31 04 01 1C  ..#.H.J.....1...
05F0: 49 80 52 45 80 F8 FF FF  7F F8 FF FF 7F 73 30 30  I.RE.........s00
0600: 30 02 87 7F 4A 80 80 1D  06 45 45 80 F8 FF FF 7F  0...J....EE.....
0610: F8 FF FF 7F 73 67 30 31  01 80 01 9E 06 02 87 7F  ....sg01........
0620: 4B 80 80 39 06 45 45 80  F8 FF FF 7F F8 FF FF 7F  K..9.EE.........
0630: 73 67 30 31 01 80 01 9E  06 02 87 7F 49 80 80 55  sg01........I..U
0640: 06 45 45 80 F8 FF FF 7F  F8 FF FF 7F 73 74 30 31  .EE.........st01
0650: 01 80 01 9E 06 02 87 7F  4C 80 80 71 06 45 45 80  ........L..q.EE.
0660: F8 FF FF 7F F8 FF FF 7F  73 74 30 31 01 80 01 9E  ........st01....
0670: 06 02 87 7F 4D 80 80 8D  06 45 45 80 F8 FF FF 7F  ....M....EE.....
0680: F8 FF FF 7F 73 67 30 31  01 80 01 9E 06 45 45 80  ....sg01.....EE.
0690: F8 FF FF 7F F8 FF FF 7F  73 30 30 31 01 80 6F 76  ........s001..ov
06A0: F0 FF FF 7F 1C 4E 80 27  10 1E 31 04 01 01 2B 1E  .....N.'..1...+.
06B0: 31 04 01 4F 80 23 2B 1E  31 04 01 50 80 2A 10 1E  1..O.#+.1..P.*..
06C0: 31 04 01 23 27 10 1E 31  04 01 03 02 87 7F 4A 80  1..#'..1......J.
06D0: 80 E5 06 52 45 80 F8 FF  FF 7F F8 FF FF 7F 73 67  ...RE.........sg
06E0: 30 31 01 5C 07 02 87 7F  4B 80 80 FF 06 52 45 80  01.\....K....RE.
06F0: F8 FF FF 7F F8 FF FF 7F  73 67 30 31 01 5C 07 02  ........sg01.\..
0700: 87 7F 49 80 80 19 07 52  45 80 F8 FF FF 7F F8 FF  ..I....RE.......
0710: FF 7F 73 74 30 31 01 5C  07 02 87 7F 4C 80 80 33  ..st01.\....L..3
0720: 07 52 45 80 F8 FF FF 7F  F8 FF FF 7F 73 74 30 31  .RE.........st01
0730: 01 5C 07 02 87 7F 4D 80  80 4D 07 52 45 80 F8 FF  .\....M..M.RE...
0740: FF 7F F8 FF FF 7F 73 67  30 31 01 5C 07 52 45 80  ......sg01.\.RE.
0750: F8 FF FF 7F F8 FF FF 7F  73 30 30 31 45 45 80 F8  ........s001EE..
0760: FF FF 7F F8 FF FF 7F 73  30 30 32 01 80 2A 10 1E  .......s002..*..
0770: 31 04 01 2B 1E 31 04 01  51 80 23 2B 1E 31 04 01  1..+.1..Q.#+.1..
0780: 52 80 1C 46 80 23 7B 1E  31 04 01 27 10 1E 31 04  R..F.#{.1..'..1.
0790: 01 19 1C 06 80 52 45 80  F8 FF FF 7F F8 FF FF 7F  .....RE.........
07A0: 73 30 30 32 45 45 80 F8  FF FF 7F F8 FF FF 7F 73  s002EE.........s
07B0: 30 30 33 01 80 1C 4E 80  7B F0 FF FF 7F 27 10 F0  003...N.{....'..
07C0: FF FF 7F 17 1C 53 80 27  10 CB 30 04 01 02 1C 46  .....S.'..0....F
07D0: 80 1A 64 00 1C 54 80 5D  01 80 08 80 27 10 CB 30  ..d..T.]....'..0
07E0: 04 01 03 7A 00 1E 31 04  01 7A 00 F0 FF FF 7F 48  ...z..1..z.....H
07F0: 55 80 1C 46 80 5C 00 56  80 5C 01 56 80 5C 02 56  U..F.\.V.\.V.\.V
0800: 80 5C 03 56 80 9A 52 45  80 F8 FF FF 7F F8 FF FF  .\.V..RE........
0810: 7F 73 30 30 33 45 45 80  F8 FF FF 7F F8 FF FF 7F  .s003EE.........
0820: 73 30 30 34 01 80 1A 43  00 1C 57 80 52 45 80 F8  s004...C..W.RE..
0830: FF FF 7F F8 FF FF 7F 73  30 30 34 45 45 80 F8 FF  .......s004EE...
0840: FF 7F F8 FF FF 7F 73 30  30 35 01 80 45 45 80 F8  ......s005..EE..
0850: FF FF 7F F8 FF FF 7F 35  30 31 35 01 80 81 00 22  .......5015...."
0860: 31 04 01 2C 22 31 04 01  22 31 04 01 63 61 62 6B  1..,"1.."1..cabk
0870: 1C 08 80 45 45 80 F8 FF  FF 7F F8 FF FF 7F 73 74  ...EE.........st
0880: 6F 70 01 80 73 58 80 F8  FF FF 7F EB 30 04 01 2C  op..sX......0..,
0890: 22 31 04 01 22 31 04 01  73 68 62 6B 53 22 31 04  "1.."1..shbkS"1.
08A0: 01 22 31 04 01 73 68 62  6B 1C 53 80 C5 59 80 EB  ."1..shbk.S..Y..
08B0: 30 04 01 EB 30 04 01 7A  7A 6F 6E 01 80 1C 46 80  0...0..zzon...F.
08C0: 52 45 80 F8 FF FF 7F F8  FF FF 7F 73 30 30 35 45  RE.........s005E
08D0: 45 80 F8 FF FF 7F F8 FF  FF 7F 73 30 30 36 01 80  E.........s006..
08E0: 2C 22 31 04 01 22 31 04  01 63 61 62 6B 1C 54 80  ,"1.."1..cabk.T.
08F0: 73 5A 80 F8 FF FF 7F E3  30 04 01 2C 22 31 04 01  sZ......0..,"1..
0900: 22 31 04 01 73 68 62 6B  53 22 31 04 01 22 31 04  "1..shbkS"1.."1.
0910: 01 73 68 62 6B 52 45 80  F8 FF FF 7F F8 FF FF 7F  .shbkRE.........
0920: 73 30 30 36 45 45 80 F8  FF FF 7F F8 FF FF 7F 73  s006EE.........s
0930: 30 30 37 01 80 1C 54 80  2C E3 30 04 01 E3 30 04  007...T.,.0...0.
0940: 01 64 65 61 64 1C 53 80  52 45 80 F8 FF FF 7F F8  .dead.S.RE......
0950: FF FF 7F 73 30 30 37 45  45 80 F8 FF FF 7F F8 FF  ...s007EE.......
0960: FF 7F 73 30 30 38 01 80  1C 5B 80 52 45 80 F8 FF  ..s008...[.RE...
0970: FF 7F F8 FF FF 7F 73 30  30 38 45 45 80 F8 FF FF  ......s008EE....
0980: 7F F8 FF FF 7F 73 30 30  39 01 80 2C 22 31 04 01  .....s009..,"1..
0990: 22 31 04 01 63 61 62 6B  1C 46 80 73 5A 80 F8 FF  "1..cabk.F.sZ...
09A0: FF 7F 23 31 04 01 2C 22  31 04 01 22 31 04 01 73  ..#1..,"1.."1..s
09B0: 68 62 6B 53 22 31 04 01  22 31 04 01 73 68 62 6B  hbkS"1.."1..shbk
09C0: 79 00 22 31 04 01 23 31  04 01 52 45 80 F8 FF FF  y."1..#1..RE....
09D0: 7F F8 FF FF 7F 73 30 30  39 45 45 80 F8 FF FF 7F  .....s009EE.....
09E0: F8 FF FF 7F 73 30 31 30  01 80 1C 54 80 29 10 22  ....s010...T.)."
09F0: 31 04 01 21 52 45 80 F8  FF FF 7F F8 FF FF 7F 73  1..!RE.........s
0A00: 30 31 30 45 45 80 F8 FF  FF 7F F8 FF FF 7F 73 30  010EE.........s0
0A10: 31 31 01 80 6B 69 64 6C  30 23 31 04 01 2B 22 31  11..kidl0#1..+"1
0A20: 04 01 5C 80 1C 46 80 23  B6 00 5D 80 52 45 80 F8  ..\..F.#..].RE..
0A30: FF FF 7F F8 FF FF 7F 73  30 31 31 45 45 80 F8 FF  .......s011EE...
0A40: FF 7F F8 FF FF 7F 73 30  31 32 01 80 2B 23 31 04  ......s012..+#1.
0A50: 01 5E 80 23 2B 23 31 04  01 5F 80 23 52 45 80 F8  .^.#+#1.._.#RE..
0A60: FF FF 7F F8 FF FF 7F 73  30 31 32 45 45 80 F8 FF  .......s012EE...
0A70: FF 7F F8 FF FF 7F 73 30  31 33 01 80 2B 22 31 04  ......s013..+"1.
0A80: 01 60 80 1C 46 80 23 5B  40 80 23 31 04 01 23 31  .`..F.#[@.#1..#1
0A90: 04 01 68 69 30 30 1C 06  80 52 45 80 F8 FF FF 7F  ..hi00...RE.....
0AA0: F8 FF FF 7F 73 30 31 33  45 45 80 F8 FF FF 7F F8  ....s013EE......
0AB0: FF FF 7F 73 30 31 34 01  80 2B 23 31 04 01 61 80  ...s014..+#1..a.
0AC0: 23 2B 23 31 04 01 62 80  1C 46 80 23 5B 40 80 23  #+#1..b..F.#[@.#
0AD0: 31 04 01 23 31 04 01 68  69 30 31 52 45 80 F8 FF  1..#1..hi01RE...
0AE0: FF 7F F8 FF FF 7F 73 30  31 34 45 45 80 F8 FF FF  ......s014EE....
0AF0: 7F F8 FF FF 7F 73 30 31  35 01 80 2B 22 31 04 01  .....s015..+"1..
0B00: 63 80 1C 46 80 23 5C 00  64 80 5C 01 64 80 5C 02  c..F.#\.d.\.d.\.
0B10: 64 80 5C 03 64 80 9A BA  1E 31 04 01 65 80 66 80  d.\.d....1..e.f.
0B20: 67 80 68 80 BA F0 FF FF  7F 69 80 6A 80 6B 80 6C  g.h......i.j.k.l
0B30: 80 27 10 1E 31 04 01 1A  1C 4E 80 27 10 F0 FF FF  .'..1....N.'....
0B40: 7F 18 52 45 80 F8 FF FF  7F F8 FF FF 7F 73 30 31  ..RE.........s01
0B50: 35 45 45 80 F8 FF FF 7F  F8 FF FF 7F 73 30 31 36  5EE.........s016
0B60: 01 80 2A 10 1E 31 04 01  81 01 22 31 04 01 7B 22  ..*..1...."1..{"
0B70: 31 04 01 4A 22 31 04 01  1E 31 04 01 6F 76 22 31  1..J"1...1..ov"1
0B80: 04 01 1C 53 80 79 00 22  31 04 01 F0 FF FF 7F 52  ...S.y."1......R
0B90: 45 80 F8 FF FF 7F F8 FF  FF 7F 73 30 31 36 02 87  E.........s016..
0BA0: 7F 49 80 80 BA 0B 45 45  80 F8 FF FF 7F F8 FF FF  .I....EE........
0BB0: 7F 73 74 31 38 01 80 01  E7 0B 02 87 7F 4C 80 80  .st18........L..
0BC0: D6 0B 45 45 80 F8 FF FF  7F F8 FF FF 7F 73 74 31  ..EE.........st1
0BD0: 38 01 80 01 E7 0B 45 45  80 F8 FF FF 7F F8 FF FF  8.....EE........
0BE0: 7F 73 30 31 38 01 80 2B  22 31 04 01 6D 80 23 1C  .s018..+"1..m.#.
0BF0: 46 80 02 87 7F 49 80 80  0C 0C 52 45 80 F8 FF FF  F....I....RE....
0C00: 7F F8 FF FF 7F 73 74 31  38 01 35 0C 02 87 7F 4C  .....st18.5....L
0C10: 80 80 26 0C 52 45 80 F8  FF FF 7F F8 FF FF 7F 73  ..&.RE.........s
0C20: 74 31 38 01 35 0C 52 45  80 F8 FF FF 7F F8 FF FF  t18.5.RE........
0C30: 7F 73 30 31 38 45 45 80  F8 FF FF 7F F8 FF FF 7F  .s018EE.........
0C40: 73 30 31 39 01 80 5B 6E  80 1E 31 04 01 1E 31 04  s019..[n..1...1.
0C50: 01 61 6B 62 30 2B 1E 31  04 01 6F 80 1C 06 80 79  .akb0+.1..o....y
0C60: 00 22 31 04 01 1E 31 04  01 53 1E 31 04 01 1E 31  ."1...1..S.1...1
0C70: 04 01 61 6B 62 30 23 79  00 1E 31 04 01 22 31 04  ..akb0#y..1.."1.
0C80: 01 79 00 F0 FF FF 7F 22  31 04 01 7B 22 31 04 01  .y....."1..{"1..
0C90: 27 10 22 31 04 01 31 2B  22 31 04 01 70 80 1C 06  '."1..1+"1..p...
0CA0: 80 52 45 80 F8 FF FF 7F  F8 FF FF 7F 73 30 31 39  .RE.........s019
0CB0: 45 45 80 F8 FF FF 7F F8  FF FF 7F 73 30 32 30 01  EE.........s020.
0CC0: 80 2A 10 22 31 04 01 23  52 45 80 F8 FF FF 7F F8  .*."1..#RE......
0CD0: FF FF 7F 73 30 32 30 45  45 80 F8 FF FF 7F F8 FF  ...s020EE.......
0CE0: FF 7F 73 30 32 31 01 80  1C 4E 80 4A 22 31 04 01  ..s021...N.J"1..
0CF0: 1E 31 04 01 6F 76 22 31  04 01 27 10 22 31 04 01  .1..ov"1..'."1..
0D00: 05 2B 22 31 04 01 71 80  29 10 22 31 04 01 06 23  .+"1..q.)."1...#
0D10: 27 10 22 31 04 01 07 7B  F0 FF FF 7F 79 00 1E 31  '."1...{....y..1
0D20: 04 01 23 31 04 01 52 45  80 F8 FF FF 7F F8 FF FF  ..#1..RE........
0D30: 7F 73 30 32 31 45 45 80  F8 FF FF 7F F8 FF FF 7F  .s021EE.........
0D40: 73 30 32 32 01 80 1C 54  80 52 45 80 F8 FF FF 7F  s022...T.RE.....
0D50: F8 FF FF 7F 73 30 32 32  45 45 80 F8 FF FF 7F F8  ....s022EE......
0D60: FF FF 7F 73 30 32 33 01  80 2B 1E 31 04 01 72 80  ...s023..+.1..r.
0D70: 1C 73 80 23 4A 22 31 04  01 1E 31 04 01 52 45 80  .s.#J"1...1..RE.
0D80: F8 FF FF 7F F8 FF FF 7F  73 30 32 33 45 45 80 F8  ........s023EE..
0D90: FF FF 7F F8 FF FF 7F 73  30 32 34 01 80 6F 76 22  .......s024..ov"
0DA0: 31 04 01 27 10 22 31 04  01 05 2B 22 31 04 01 74  1..'."1...+"1..t
0DB0: 80 1C 53 80 79 00 1E 31  04 01 22 31 04 01 1C 06  ..S.y..1.."1....
0DC0: 80 79 00 F0 FF FF 7F 22  31 04 01 23 2B 22 31 04  .y....."1..#+"1.
0DD0: 01 75 80 29 10 22 31 04  01 06 23 27 10 22 31 04  .u.)."1...#'."1.
0DE0: 01 07 7B 1E 31 04 01 52  45 80 F8 FF FF 7F F8 FF  ..{.1..RE.......
0DF0: FF 7F 73 30 32 34 45 45  80 F8 FF FF 7F F8 FF FF  ..s024EE........
0E00: 7F 73 30 32 35 01 80 27  10 1E 31 04 01 07 1C 5B  .s025..'..1....[
0E10: 80 27 10 1E 31 04 01 09  29 10 1E 31 04 01 0A 4B  .'..1...)..1...K
0E20: 1E 31 04 01 1F 80 2B 1E  31 04 01 76 80 23 1C 53  .1....+.1..v.#.S
0E30: 80 5C 00 01 80 5C 01 01  80 5C 02 01 80 5C 03 01  .\...\...\...\..
0E40: 80 9A 27 10 1F 31 04 01  49 27 10 20 31 04 01 39  ..'..1..I'. 1..9
0E50: 27 10 EF 30 04 01 17 1C  4E 80 6C 1F 31 04 01 77  '..0....N.l.1..w
0E60: 80 03 80 6C 20 31 04 01  77 80 03 80 6C EF 30 04  ...l 1..w...l.0.
0E70: 01 77 80 03 80 52 45 80  F8 FF FF 7F F8 FF FF 7F  .w...RE.........
0E80: 73 30 32 35 45 45 80 F8  FF FF 7F F8 FF FF 7F 73  s025EE.........s
0E90: 30 32 36 01 80 1C 08 80  1A 64 00 7A 00 1F 31 04  026......d.z..1.
0EA0: 01 7A 00 20 31 04 01 7A  00 EF 30 04 01 BA 1F 31  .z. 1..z..0....1
0EB0: 04 01 78 80 79 80 7A 80  11 80 BA 20 31 04 01 7B  ..x.y.z.... 1..{
0EC0: 80 7C 80 7D 80 11 80 BA  EF 30 04 01 7E 80 7F 80  .|.}.....0..~...
0ED0: 80 80 11 80 79 00 1F 31  04 01 1E 31 04 01 79 00  ....y..1...1..y.
0EE0: 20 31 04 01 1E 31 04 01  66 81 80 EF 30 04 01 EF   1...1..f...0...
0EF0: 30 04 01 6B 6F 75 61 59  05 F0 FF FF 7F 01 BA F0  0..kouaY........
0F00: FF FF 7F 82 80 83 80 84  80 1F 80 48 55 80 1C 46  ...........HU..F
0F10: 80 D5 85 80 EF 30 04 01  EF 30 04 01 73 74 72 30  .....0...0..str0
0F20: 01 80 52 45 80 F8 FF FF  7F F8 FF FF 7F 73 30 32  ..RE.........s02
0F30: 36 45 45 80 F8 FF FF 7F  F8 FF FF 7F 73 30 32 37  6EE.........s027
0F40: 01 80 1A 43 00 6E F0 FF  FF 7F 86 80 99 F0 FF FF  ...C.n..........
0F50: 7F 1C 54 80 52 45 80 F8  FF FF 7F F8 FF FF 7F 73  ..T.RE.........s
0F60: 30 32 37 45 45 80 F8 FF  FF 7F F8 FF FF 7F 73 30  027EE.........s0
0F70: 32 38 01 80 1C 73 80 6A  08 80 03 80 03 80 52 45  28...s.j......RE
0F80: 80 F8 FF FF 7F F8 FF FF  7F 73 30 32 38 45 45 80  .........s028EE.
0F90: F8 FF FF 7F F8 FF FF 7F  73 30 32 39 01 80 27 10  ........s029..'.
0FA0: 20 31 04 01 2F 2B 20 31  04 01 87 80 29 10 20 31   1../+ 1....). 1
0FB0: 04 01 30 23 27 10 20 31  04 01 31 52 45 80 F8 FF  ..0#'. 1..1RE...
0FC0: FF 7F F8 FF FF 7F 73 30  32 39 45 45 80 F8 FF FF  ......s029EE....
0FD0: 7F F8 FF FF 7F 73 30 33  30 01 80 27 10 1F 31 04  .....s030..'..1.
0FE0: 01 01 2B 1F 31 04 01 88  80 1C 46 80 23 66 89 80  ..+.1.....F.#f..
0FF0: 1F 31 04 01 1F 31 04 01  74 6C 6B 31 52 45 80 F8  .1...1..tlk1RE..
1000: FF FF 7F F8 FF FF 7F 73  30 33 30 45 45 80 F8 FF  .......s030EE...
1010: FF 7F F8 FF FF 7F 73 30  33 31 01 80 6E 20 31 04  ......s031..n 1.
1020: 01 4C 80 99 20 31 04 01  2B 20 31 04 01 8A 80 1C  .L.. 1..+ 1.....
1030: 73 80 23 52 45 80 F8 FF  FF 7F F8 FF FF 7F 73 30  s.#RE.........s0
1040: 33 31 45 45 80 F8 FF FF  7F F8 FF FF 7F 73 30 33  31EE.........s03
1050: 32 01 80 27 10 1E 31 04  01 01 2B 1E 31 04 01 8B  2..'..1...+.1...
1060: 80 29 10 1E 31 04 01 02  23 27 10 1E 31 04 01 03  .)..1...#'..1...
1070: 79 00 1F 31 04 01 EF 30  04 01 79 00 20 31 04 01  y..1...0..y. 1..
1080: EF 30 04 01 5C 00 8C 80  5C 01 8C 80 5C 02 8C 80  .0..\...\...\...
1090: 5C 03 8C 80 9A 66 4A 80  EF 30 04 01 EF 30 04 01  \....fJ..0...0..
10A0: 74 61 74 30 6A 8D 80 03  80 03 80 52 45 80 F8 FF  tat0j......RE...
10B0: FF 7F F8 FF FF 7F 73 30  33 32 45 45 80 F8 FF FF  ......s032EE....
10C0: 7F F8 FF FF 7F 62 6C 6F  6E 01 80 45 45 80 F8 FF  .....blon..EE...
10D0: FF 7F F8 FF FF 7F 73 61  33 32 01 80 45 45 80 F8  ......sa32..EE..
10E0: FF FF 7F F8 FF FF 7F 36  30 37 31 01 80 1C 53 80  .......6071...S.
10F0: 66 8E 80 EF 30 04 01 EF  30 04 01 75 6B 75 30 BB  f...0...0..uku0.
1100: 8F 80 EF 30 04 01 EF 30  04 01 73 74 30 32 01 80  ...0...0..st02..
1110: BB 90 80 EF 30 04 01 EF  30 04 01 6D 61 69 6E 01  ....0...0..main.
1120: 80 1C 53 80 7B 1F 31 04  01 7B 20 31 04 01 6E 1F  ..S.{.1..{ 1..n.
1130: 31 04 01 91 80 99 1F 31  04 01 6E 20 31 04 01 86  1......1..n 1...
1140: 80 99 20 31 04 01 1C 53  80 CD 92 80 EF 30 04 01  .. 1...S.....0..
1150: EF 30 04 01 00 FE FE FE  01 80 1A B7 01 66 93 80  .0...........f..
1160: EF 30 04 01 EF 30 04 01  66 79 75 30 6B 69 64 6C  .0...0..fyu0kidl
1170: 30 EF 30 04 01 59 05 EF  30 04 01 01 BA EF 30 04  0.0..Y..0.....0.
1180: 01 7E 80 7F 80 94 80 11  80 1C 53 80 66 95 80 EF  .~........S.f...
1190: 30 04 01 EF 30 04 01 66  79 75 33 7A 00 1F 31 04  0...0..fyu3z..1.
11A0: 01 7A 00 20 31 04 01 BA  20 31 04 01 96 80 97 80  .z. 1... 1......
11B0: 98 80 99 80 52 45 80 F8  FF FF 7F F8 FF FF 7F 73  ....RE.........s
11C0: 61 33 32 45 45 80 F8 FF  FF 7F F8 FF FF 7F 73 30  a32EE.........s0
11D0: 33 33 01 80 1A 96 01 D5  85 80 EF 30 04 01 EF 30  33.........0...0
11E0: 04 01 6B 69 6C 6C 01 80  CD 92 80 EF 30 04 01 EF  ..kill......0...
11F0: 30 04 01 73 30 30 32 01  80 2B EF 30 04 01 9A 80  0..s002..+.0....
1200: 1C 06 80 66 9B 80 20 31  04 01 20 31 04 01 65 63  ...f.. 1.. 1..ec
1210: 30 31 5B 9C 80 1F 31 04  01 1F 31 04 01 66 75 6B  01[...1...1..fuk
1220: 31 1C 53 80 7A 00 20 31  04 01 BA 20 31 04 01 9D  1.S.z. 1... 1...
1230: 80 9E 80 9F 80 01 80 5B  A0 80 20 31 04 01 20 31  .......[.. 1.. 1
1240: 04 01 64 77 6E 30 1C 53  80 23 52 45 80 F8 FF FF  ..dwn0.S.#RE....
1250: 7F F8 FF FF 7F 73 30 33  33 45 45 80 F8 FF FF 7F  .....s033EE.....
1260: F8 FF FF 7F 73 61 33 34  01 80 27 10 EF 30 04 01  ....sa34..'..0..
1270: 18 66 93 80 EF 30 04 01  EF 30 04 01 66 79 75 30  .f...0...0..fyu0
1280: 1C 54 80 52 45 80 F8 FF  FF 7F F8 FF FF 7F 73 61  .T.RE.........sa
1290: 33 34 45 45 80 F8 FF FF  7F F8 FF FF 7F 62 6C 6F  34EE.........blo
12A0: 66 01 80 45 45 80 F8 FF  FF 7F F8 FF FF 7F 73 30  f..EE.........s0
12B0: 33 34 01 80 66 A1 80 EF  30 04 01 EF 30 04 01 6D  34..f...0...0..m
12C0: 61 65 30 79 00 1E 31 04  01 EF 30 04 01 79 00 F0  ae0y..1...0..y..
12D0: FF FF 7F EF 30 04 01 5B  40 80 23 31 04 01 23 31  ....0..[@.#1..#1
12E0: 04 01 68 69 30 30 2B 23  31 04 01 A2 80 1C 46 80  ..hi00+#1.....F.
12F0: 23 5B 40 80 23 31 04 01  23 31 04 01 68 69 30 31  #[@.#1..#1..hi01
1300: 2C 1F 31 04 01 1F 31 04  01 63 6F 72 70 BA 1F 31  ,.1...1..corp..1
1310: 04 01 A3 80 A4 80 A5 80  11 80 52 45 80 F8 FF FF  ..........RE....
1320: 7F F8 FF FF 7F 73 30 33  34 45 45 80 F8 FF FF 7F  .....s034EE.....
1330: F8 FF FF 7F 73 62 33 34  01 80 27 10 1F 31 04 01  ....sb34..'..1..
1340: 39 29 10 1F 31 04 01 3A  52 45 80 F8 FF FF 7F F8  9)..1..:RE......
1350: FF FF 7F 73 62 33 34 45  45 80 F8 FF FF 7F F8 FF  ...sb34EE.......
1360: FF 7F 73 63 33 34 01 80  5B A0 80 20 31 04 01 20  ..sc34..[.. 1.. 
1370: 31 04 01 64 77 6E 31 1C  54 80 52 45 80 F8 FF FF  1..dwn1.T.RE....
1380: 7F F8 FF FF 7F 73 63 33  34 45 45 80 F8 FF FF 7F  .....sc34EE.....
1390: F8 FF FF 7F 73 30 33 35  01 80 66 A1 80 EF 30 04  ....s035..f...0.
13A0: 01 EF 30 04 01 6D 61 65  31 1C 46 80 CD 8C 80 EF  ..0..mae1.F.....
13B0: 30 04 01 EF 30 04 01 73  30 30 30 01 80 1C 8F 80  0...0..s000.....
13C0: 52 45 80 F8 FF FF 7F F8  FF FF 7F 73 30 33 35 45  RE.........s035E
13D0: 45 80 F8 FF FF 7F F8 FF  FF 7F 73 30 33 36 01 80  E.........s036..
13E0: 81 00 EF 30 04 01 45 45  80 F8 FF FF 7F F8 FF FF  ...0..EE........
13F0: 7F 36 31 37 32 01 80 CD  A6 80 F8 FF FF 7F F8 FF  .6172...........
1400: FF 7F 6D 65 6D 31 01 80  9F A7 80 F8 FF FF 7F F8  ..mem1..........
1410: FF FF 7F 6D 61 69 6E 01  80 1C 54 80 CD A6 80 F8  ...main...T.....
1420: FF FF 7F F8 FF FF 7F 6B  6C 6D 30 01 80 CD 8C 80  .......klm0.....
1430: EF 30 04 01 EF 30 04 01  6B 69 6C 6C 01 80 81 01  .0...0..kill....
1440: EF 30 04 01 52 45 80 F8  FF FF 7F F8 FF FF 7F 73  .0..RE.........s
1450: 30 33 36 45 45 80 F8 FF  FF 7F F8 FF FF 7F 73 30  036EE.........s0
1460: 33 37 01 80 7C 00 1E 31  04 01 2B 1E 31 04 01 A8  37..|..1..+.1...
1470: 80 23 7C 01 1E 31 04 01  1C A9 80 52 45 80 F8 FF  .#|..1.....RE...
1480: FF 7F F8 FF FF 7F 73 30  33 37 45 45 80 F8 FF FF  ......s037EE....
1490: 7F F8 FF FF 7F 73 30 33  38 01 80 5B AA 80 23 31  .....s038..[..#1
14A0: 04 01 23 31 04 01 6F 73  61 30 BB AB 80 EF 30 04  ..#1..osa0....0.
14B0: 01 EF 30 04 01 73 30 30  32 01 80 66 AC 80 1F 31  ..0..s002..f...1
14C0: 04 01 1F 31 04 01 73 68  6B 30 2B 1F 31 04 01 AD  ...1..shk0+.1...
14D0: 80 23 1C A9 80 52 45 80  F8 FF FF 7F F8 FF FF 7F  .#...RE.........
14E0: 73 30 33 38 45 45 80 F8  FF FF 7F F8 FF FF 7F 73  s038EE.........s
14F0: 30 33 39 01 80 2B 23 31  04 01 AE 80 1C 73 80 23  039..+#1.....s.#
1500: 5B AA 80 23 31 04 01 23  31 04 01 6F 73 61 31 66  [..#1..#1..osa1f
1510: 95 80 EF 30 04 01 EF 30  04 01 66 79 75 33 52 45  ...0...0..fyu3RE
1520: 80 F8 FF FF 7F F8 FF FF  7F 73 30 33 39 45 45 80  .........s039EE.
1530: F8 FF FF 7F F8 FF FF 7F  73 61 34 30 01 80 45 45  ........sa40..EE
1540: 80 F8 FF FF 7F F8 FF FF  7F 36 31 38 33 01 80 1C  .........6183...
1550: 54 80 66 AF 80 EF 30 04  01 EF 30 04 01 6B 61 6B  T.f...0...0..kak
1560: 31 59 05 EF 30 04 01 00  BA EF 30 04 01 7E 80 7F  1Y..0.....0..~..
1570: 80 80 80 11 80 52 45 80  F8 FF FF 7F F8 FF FF 7F  .....RE.........
1580: 73 61 34 30 45 45 80 F8  FF FF 7F F8 FF FF 7F 73  sa40EE.........s
1590: 30 34 30 01 80 1C 06 80  2C EF 30 04 01 EF 30 04  040.....,.0...0.
15A0: 01 64 65 61 64 1C 46 80  52 45 80 F8 FF FF 7F F8  .dead.F.RE......
15B0: FF FF 7F 73 30 34 30 45  45 80 F8 FF FF 7F F8 FF  ...s040EE.......
15C0: FF 7F 73 30 34 31 01 80  1C 5B 80 52 45 80 F8 FF  ..s041...[.RE...
15D0: FF 7F F8 FF FF 7F 73 30  34 31 45 45 80 F8 FF FF  ......s041EE....
15E0: 7F F8 FF FF 7F 73 30 34  32 01 80 5B A0 80 20 31  .....s042..[.. 1
15F0: 04 01 20 31 04 01 64 77  74 30 2B 20 31 04 01 B0  .. 1..dwt0+ 1...
1600: 80 53 20 31 04 01 20 31  04 01 64 77 74 30 23 5B  .S 1.. 1..dwt0#[
1610: A0 80 20 31 04 01 20 31  04 01 64 77 74 31 BA 22  .. 1.. 1..dwt1."
1620: 31 04 01 B1 80 B2 80 B3  80 B4 80 79 00 22 31 04  1..........y."1.
1630: 01 EF 30 04 01 27 10 22  31 04 01 32 52 45 80 F8  ..0..'."1..2RE..
1640: FF FF 7F F8 FF FF 7F 73  30 34 32 45 45 80 F8 FF  .......s042EE...
1650: FF 7F F8 FF FF 7F 73 30  34 33 01 80 2A 10 22 31  ......s043..*."1
1660: 04 01 4A 22 31 04 01 EF  30 04 01 52 45 80 F8 FF  ..J"1...0..RE...
1670: FF 7F F8 FF FF 7F 73 30  34 33 45 45 80 F8 FF FF  ......s043EE....
1680: 7F F8 FF FF 7F 73 30 34  34 01 80 2B 22 31 04 01  .....s044..+"1..
1690: B5 80 23 4A 22 31 04 01  1E 31 04 01 52 45 80 F8  ..#J"1...1..RE..
16A0: FF FF 7F F8 FF FF 7F 73  30 34 34 45 45 80 F8 FF  .......s044EE...
16B0: FF 7F F8 FF FF 7F 73 30  34 35 01 80 6F 76 22 31  ......s045..ov"1
16C0: 04 01 27 10 22 31 04 01  05 23 2B 22 31 04 01 B6  ..'."1...#+"1...
16D0: 80 1C 06 80 79 00 1E 31  04 01 22 31 04 01 1C B7  ....y..1.."1....
16E0: 80 79 00 F0 FF FF 7F 22  31 04 01 29 10 22 31 04  .y....."1..)."1.
16F0: 01 06 23 27 10 22 31 04  01 07 1C 06 80 4A 22 31  ..#'."1......J"1
1700: 04 01 F0 FF FF 7F 52 45  80 F8 FF FF 7F F8 FF FF  ......RE........
1710: 7F 73 30 34 35 02 87 7F  4A 80 80 31 17 45 45 80  .s045...J..1.EE.
1720: F8 FF FF 7F F8 FF FF 7F  73 67 34 36 01 80 01 B2  ........sg46....
1730: 17 02 87 7F 4B 80 80 4D  17 45 45 80 F8 FF FF 7F  ....K..M.EE.....
1740: F8 FF FF 7F 73 67 34 36  01 80 01 B2 17 02 87 7F  ....sg46........
1750: 49 80 80 69 17 45 45 80  F8 FF FF 7F F8 FF FF 7F  I..i.EE.........
1760: 73 74 34 36 01 80 01 B2  17 02 87 7F 4C 80 80 85  st46........L...
1770: 17 45 45 80 F8 FF FF 7F  F8 FF FF 7F 73 74 34 36  .EE.........st46
1780: 01 80 01 B2 17 02 87 7F  4D 80 80 A1 17 45 45 80  ........M....EE.
1790: F8 FF FF 7F F8 FF FF 7F  73 67 34 36 01 80 01 B2  ........sg46....
17A0: 17 45 45 80 F8 FF FF 7F  F8 FF FF 7F 73 30 34 36  .EE.........s046
17B0: 01 80 9F 4E 80 22 31 04  01 22 31 04 01 00 FE FE  ...N."1.."1.....
17C0: FE 01 80 66 B8 80 22 31  04 01 22 31 04 01 00 FE  ...f.."1.."1....
17D0: FE FE 27 10 22 31 04 01  2A 2B 22 31 04 01 B9 80  ..'."1..*+"1....
17E0: 23 2B 22 31 04 01 BA 80  23 2B 22 31 04 01 BB 80  #+"1....#+"1....
17F0: 29 10 22 31 04 01 2B 23  27 10 22 31 04 01 2C 29  )."1..+#'."1..,)
1800: 10 22 31 04 01 2D 7B 22  31 04 01 4A 22 31 04 01  ."1..-{"1..J"1..
1810: EF 30 04 01 7B 22 31 04  01 6F 76 22 31 04 01 1C  .0..{"1..ov"1...
1820: 4E 80 02 87 7F 4A 80 80  3C 18 52 45 80 F8 FF FF  N....J..<.RE....
1830: 7F F8 FF FF 7F 73 67 34  36 01 B3 18 02 87 7F 4B  .....sg46......K
1840: 80 80 56 18 52 45 80 F8  FF FF 7F F8 FF FF 7F 73  ..V.RE.........s
1850: 67 34 36 01 B3 18 02 87  7F 49 80 80 70 18 52 45  g46......I..p.RE
1860: 80 F8 FF FF 7F F8 FF FF  7F 73 74 34 36 01 B3 18  .........st46...
1870: 02 87 7F 4C 80 80 8A 18  52 45 80 F8 FF FF 7F F8  ...L....RE......
1880: FF FF 7F 73 74 34 36 01  B3 18 02 87 7F 4D 80 80  ...st46......M..
1890: A4 18 52 45 80 F8 FF FF  7F F8 FF FF 7F 73 67 34  ..RE.........sg4
18A0: 36 01 B3 18 52 45 80 F8  FF FF 7F F8 FF FF 7F 73  6...RE.........s
18B0: 30 34 36 45 45 80 F8 FF  FF 7F F8 FF FF 7F 73 30  046EE.........s0
18C0: 34 37 01 80 27 10 22 31  04 01 1B 1C 46 80 CD 5B  47..'."1....F..[
18D0: 80 EF 30 04 01 EF 30 04  01 64 6F 6B 75 01 80 9F  ..0...0..doku...
18E0: 4E 80 22 31 04 01 22 31  04 01 6D 61 69 6E 01 80  N."1.."1..main..
18F0: 1C 5B 80 4A 1E 31 04 01  F0 FF FF 7F 1C 48 80 7B  .[.J.1.......H.{
1900: F0 FF FF 7F 52 45 80 F8  FF FF 7F F8 FF FF 7F 73  ....RE.........s
1910: 30 34 37 02 87 7F 4A 80  80 2F 19 45 45 80 F8 FF  047...J../.EE...
1920: FF 7F F8 FF FF 7F 73 67  34 38 01 80 01 B0 19 02  ......sg48......
1930: 87 7F 4B 80 80 4B 19 45  45 80 F8 FF FF 7F F8 FF  ..K..K.EE.......
1940: FF 7F 73 67 34 38 01 80  01 B0 19 02 87 7F 49 80  ..sg48........I.
1950: 80 67 19 45 45 80 F8 FF  FF 7F F8 FF FF 7F 73 74  .g.EE.........st
1960: 34 38 01 80 01 B0 19 02  87 7F 4C 80 80 83 19 45  48........L....E
1970: 45 80 F8 FF FF 7F F8 FF  FF 7F 73 74 34 38 01 80  E.........st48..
1980: 01 B0 19 02 87 7F 4D 80  80 9F 19 45 45 80 F8 FF  ......M....EE...
1990: FF 7F F8 FF FF 7F 73 67  34 38 01 80 01 B0 19 45  ......sg48.....E
19A0: 45 80 F8 FF FF 7F F8 FF  FF 7F 73 30 34 38 01 80  E.........s048..
19B0: 5B 42 80 26 31 04 01 26  31 04 01 68 69 30 30 6F  [B.&1..&1..hi00o
19C0: 76 1E 31 04 01 27 10 1E  31 04 01 01 2B 1E 31 04  v.1..'..1...+.1.
19D0: 01 BC 80 1C 06 80 4A F0  FF FF 7F 1E 31 04 01 1C  ......J.....1...
19E0: 46 80 29 10 1E 31 04 01  02 23 27 10 1E 31 04 01  F.)..1...#'..1..
19F0: 03 5C 00 BD 80 5C 01 BD  80 5C 02 BD 80 5C 03 BD  .\...\...\...\..
1A00: 80 9A 02 87 7F 4A 80 80  1C 1A 52 45 80 F8 FF FF  .....J....RE....
1A10: 7F F8 FF FF 7F 73 67 34  38 01 93 1A 02 87 7F 4B  .....sg48......K
1A20: 80 80 36 1A 52 45 80 F8  FF FF 7F F8 FF FF 7F 73  ..6.RE.........s
1A30: 67 34 38 01 93 1A 02 87  7F 49 80 80 50 1A 52 45  g48......I..P.RE
1A40: 80 F8 FF FF 7F F8 FF FF  7F 73 74 34 38 01 93 1A  .........st48...
1A50: 02 87 7F 4C 80 80 6A 1A  52 45 80 F8 FF FF 7F F8  ...L..j.RE......
1A60: FF FF 7F 73 74 34 38 01  93 1A 02 87 7F 4D 80 80  ...st48......M..
1A70: 84 1A 52 45 80 F8 FF FF  7F F8 FF FF 7F 73 67 34  ..RE.........sg4
1A80: 38 01 93 1A 52 45 80 F8  FF FF 7F F8 FF FF 7F 73  8...RE.........s
1A90: 30 34 38 45 45 80 F8 FF  FF 7F F8 FF FF 7F 73 30  048EE.........s0
1AA0: 34 39 01 80 5B 42 80 26  31 04 01 26 31 04 01 68  49..[B.&1..&1..h
1AB0: 69 30 31 1C 06 80 45 45  80 F8 FF FF 7F F8 FF FF  i01...EE........
1AC0: 7F 32 30 30 31 01 80 53  26 31 04 01 26 31 04 01  .2001..S&1..&1..
1AD0: 68 69 30 31 4A 1E 31 04  01 23 31 04 01 4A F0 FF  hi01J.1..#1..J..
1AE0: FF 7F 23 31 04 01 5B 40  80 23 31 04 01 23 31 04  ..#1..[@.#1..#1.
1AF0: 01 77 6E 64 30 52 45 80  F8 FF FF 7F F8 FF FF 7F  .wnd0RE.........
1B00: 73 30 34 39 45 45 80 F8  FF FF 7F F8 FF FF 7F 73  s049EE.........s
1B10: 30 35 30 01 80 5B 41 80  24 31 04 01 24 31 04 01  050..[A.$1..$1..
1B20: 77 61 72 30 1C 06 80 45  45 80 F8 FF FF 7F F8 FF  war0...EE.......
1B30: FF 7F 35 30 30 32 01 80  53 24 31 04 01 24 31 04  ..5002..S$1..$1.
1B40: 01 77 61 72 30 52 45 80  F8 FF FF 7F F8 FF FF 7F  .war0RE.........
1B50: 73 30 35 30 45 45 80 F8  FF FF 7F F8 FF FF 7F 73  s050EE.........s
1B60: 30 35 31 01 80 5B 41 80  25 31 04 01 25 31 04 01  051..[A.%1..%1..
1B70: 77 61 72 30 1C 06 80 45  45 80 F8 FF FF 7F F8 FF  war0...EE.......
1B80: FF 7F 35 30 30 33 01 80  53 25 31 04 01 25 31 04  ..5003..S%1..%1.
1B90: 01 77 61 72 30 52 45 80  F8 FF FF 7F F8 FF FF 7F  .war0RE.........
1BA0: 73 30 35 31 45 45 80 F8  FF FF 7F F8 FF FF 7F 73  s051EE.........s
1BB0: 30 35 32 01 80 2B 23 31  04 01 BE 80 23 2B 23 31  052..+#1....#+#1
1BC0: 04 01 BF 80 23 2B 23 31  04 01 C0 80 53 23 31 04  ....#+#1....S#1.
1BD0: 01 23 31 04 01 77 6E 64  30 23 52 45 80 F8 FF FF  .#1..wnd0#RE....
1BE0: 7F F8 FF FF 7F 73 30 35  32 45 45 80 F8 FF FF 7F  .....s052EE.....
1BF0: F8 FF FF 7F 73 30 35 33  01 80 2B 23 31 04 01 C1  ....s053..+#1...
1C00: 80 1C 53 80 45 45 80 F8  FF FF 7F F8 FF FF 7F 35  ..S.EE.........5
1C10: 30 30 31 01 80 5B 40 80  23 31 04 01 23 31 04 01  001..[@.#1..#1..
1C20: 77 61 72 30 1C 53 80 23  5D 01 80 08 80 1A A6 00  war0.S.#].......
1C30: 1A 64 00 45 45 80 F8 FF  FF 7F F8 FF FF 7F 73 30  .d.EE.........s0
1C40: 35 33 01 80 1C 46 80 59  05 F0 FF FF 7F 00 22 01  53...F.Y......".
1C50: 9F 4E 80 22 31 04 01 22  31 04 01 6B 69 6C 6C 01  .N."1.."1..kill.
1C60: 80 27 10 EF 30 04 01 16  5C 00 01 80 5C 01 01 80  .'..0...\...\...
1C70: 5C 02 56 80 5C 03 56 80  9A 1C 4E 80 AB 11 01 80  \.V.\.V...N.....
1C80: 1C 03 80 1A 85 00 46 00  45 00 80 F8 FF FF 7F F8  ......F.E.......
1C90: FF FF 7F 66 64 69 32 01  80 21 00                 ...fdi2..!.     
```

#### Opcodes

```
  0: 0x0292 [0x42] SET_CLI_EVENT_CANCEL_DATA()
  1: 0x0293 [0x5D] SET_MUSIC_VOLUME(volume=0*, fade_time=300*)
  2: 0x0298 [0x1A] CALL_SUBROUTINE(address=0x0064)
  3: 0x029B [0x46] CAMERA_CONTROL: Disable user control
  4: 0x029D [0x38] SET_CLIENT_EVENT_MODE(mode=147*)
  5: 0x02A0 [0x2F] Ghatsad (ID: 17051934/0x0104311E)->Render.Flags0 &= ~0x80000 // Bit 19
  6: 0x02A6 [0x2F] Abda-Lurabda (ID: 17051935/0x0104311F)->Render.Flags0 &= ~0x80000 // Bit 19
  7: 0x02AC [0x2F] Tateeya (ID: 17051936/0x01043120)->Render.Flags0 &= ~0x80000 // Bit 19
  8: 0x02B2 [0x2F] Rishfee (ID: 17051887/0x010430EF)->Render.Flags0 &= ~0x80000 // Bit 19
  9: 0x02B8 [0x2F] Uran-Mafran (ID: 17051938/0x01043122)->Render.Flags0 &= ~0x80000 // Bit 19
 10: 0x02BE [0x2F] Sikool Ja (ID: 17051939/0x01043123)->Render.Flags0 &= ~0x80000 // Bit 19
 11: 0x02C4 [0x2F] Pomaal Ja (ID: 17051940/0x01043124)->Render.Flags0 &= ~0x80000 // Bit 19
 12: 0x02CA [0x2F] Hageel Ja (ID: 17051941/0x01043125)->Render.Flags0 &= ~0x80000 // Bit 19
 13: 0x02D0 [0x2F] Mufaal Ja (ID: 17051942/0x01043126)->Render.Flags0 &= ~0x80000 // Bit 19
 14: 0x02D6 [0x2F] Unnamed NPC (ID: 17051898/0x010430FA)->Render.Flags0 &= ~0x80000 // Bit 19
 15: 0x02DC [0x2F] Unnamed NPC (ID: 17051862/0x010430D6)->Render.Flags0 &= ~0x80000 // Bit 19
 16: 0x02E2 [0x2F] Unnamed NPC (ID: 17051863/0x010430D7)->Render.Flags0 &= ~0x80000 // Bit 19
 17: 0x02E8 [0x2F] Unnamed NPC (ID: 17051874/0x010430E2)->Render.Flags0 &= ~0x80000 // Bit 19
 18: 0x02EE [0x2F] Unnamed NPC (ID: 17051875/0x010430E3)->Render.Flags0 &= ~0x80000 // Bit 19
 19: 0x02F4 [0x2F] Unnamed NPC (ID: 17051883/0x010430EB)->Render.Flags0 &= ~0x80000 // Bit 19
 20: 0x02FA [0x4E] SET_ENTITY_HIDE_FLAG: Show Ghatsad (ID: 17051934/0x0104311E)
 21: 0x0300 [0x4E] SET_ENTITY_HIDE_FLAG: Show Abda-Lurabda (ID: 17051935/0x0104311F)
 22: 0x0306 [0x4E] SET_ENTITY_HIDE_FLAG: Show Tateeya (ID: 17051936/0x01043120)
 23: 0x030C [0x4E] SET_ENTITY_HIDE_FLAG: Show Rishfee (ID: 17051887/0x010430EF)
 24: 0x0312 [0x4E] SET_ENTITY_HIDE_FLAG: Show Uran-Mafran (ID: 17051938/0x01043122)
 25: 0x0318 [0x4E] SET_ENTITY_HIDE_FLAG: Show Sikool Ja (ID: 17051939/0x01043123)
 26: 0x031E [0x4E] SET_ENTITY_HIDE_FLAG: Show Pomaal Ja (ID: 17051940/0x01043124)
 27: 0x0324 [0x4E] SET_ENTITY_HIDE_FLAG: Show Hageel Ja (ID: 17051941/0x01043125)
 28: 0x032A [0x4E] SET_ENTITY_HIDE_FLAG: Show Mufaal Ja (ID: 17051942/0x01043126)
 29: 0x0330 [0x4E] SET_ENTITY_HIDE_FLAG: Show Unnamed NPC (ID: 17051898/0x010430FA)
 30: 0x0336 [0x4E] SET_ENTITY_HIDE_FLAG: Show Unnamed NPC (ID: 17051862/0x010430D6)
 31: 0x033C [0x4E] SET_ENTITY_HIDE_FLAG: Show Unnamed NPC (ID: 17051863/0x010430D7)
 32: 0x0342 [0x4E] SET_ENTITY_HIDE_FLAG: Show Unnamed NPC (ID: 17051874/0x010430E2)
 33: 0x0348 [0x4E] SET_ENTITY_HIDE_FLAG: Show Unnamed NPC (ID: 17051875/0x010430E3)
 34: 0x034E [0x4E] SET_ENTITY_HIDE_FLAG: Show Unnamed NPC (ID: 17051883/0x010430EB)
 35: 0x0354 [0x94] Ghatsad (ID: 17051934/0x0104311E)->Render.Flags3 ^= 0x01
 36: 0x035A [0x94] Abda-Lurabda (ID: 17051935/0x0104311F)->Render.Flags3 ^= 0x01
 37: 0x0360 [0x94] Tateeya (ID: 17051936/0x01043120)->Render.Flags3 ^= 0x01
 38: 0x0366 [0x94] Rishfee (ID: 17051887/0x010430EF)->Render.Flags3 ^= 0x01
 39: 0x036C [0x94] Uran-Mafran (ID: 17051938/0x01043122)->Render.Flags3 ^= 0x01
 40: 0x0372 [0x94] Sikool Ja (ID: 17051939/0x01043123)->Render.Flags3 ^= 0x01
 41: 0x0378 [0x94] Pomaal Ja (ID: 17051940/0x01043124)->Render.Flags3 ^= 0x01
 42: 0x037E [0x94] Hageel Ja (ID: 17051941/0x01043125)->Render.Flags3 ^= 0x01
 43: 0x0384 [0x94] Mufaal Ja (ID: 17051942/0x01043126)->Render.Flags3 ^= 0x01
 44: 0x038A [0x94] Unnamed NPC (ID: 17051898/0x010430FA)->Render.Flags3 ^= 0x01
 45: 0x0390 [0x94] Unnamed NPC (ID: 17051862/0x010430D6)->Render.Flags3 ^= 0x01
 46: 0x0396 [0x94] Unnamed NPC (ID: 17051863/0x010430D7)->Render.Flags3 ^= 0x01
 47: 0x039C [0x94] Unnamed NPC (ID: 17051874/0x010430E2)->Render.Flags3 ^= 0x01
 48: 0x03A2 [0x94] Unnamed NPC (ID: 17051875/0x010430E3)->Render.Flags3 ^= 0x01
 49: 0x03A8 [0x94] Unnamed NPC (ID: 17051883/0x010430EB)->Render.Flags3 ^= 0x01
 50: 0x03AE [0x94] LocalPlayer->Render.Flags3 ^= 0x01
 51: 0x03B4 [0xBA] SET_ENTITY_POSITION(entity_id=Ghatsad (ID: 17051934/0x0104311E), pos_x=300.000*, pos_z=-187.500*, pos_y=-0.908*, direction=89.9*)
 52: 0x03C1 [0xBA] SET_ENTITY_POSITION(entity_id=Abda-Lurabda (ID: 17051935/0x0104311F), pos_x=228.392*, pos_z=249.939*, pos_y=-30.950*, direction=45.0*)
 53: 0x03CE [0xBA] SET_ENTITY_POSITION(entity_id=Tateeya (ID: 17051936/0x01043120), pos_x=230.003*, pos_z=251.663*, pos_y=-31.012*, direction=45.0*)
 54: 0x03DB [0xBA] SET_ENTITY_POSITION(entity_id=Rishfee (ID: 17051887/0x010430EF), pos_x=230.782*, pos_z=249.220*, pos_y=-30.574*, direction=45.0*)
 55: 0x03E8 [0xBA] SET_ENTITY_POSITION(entity_id=Uran-Mafran (ID: 17051938/0x01043122), pos_x=243.237*, pos_z=236.499*, pos_y=-31.135*, direction=41.0*)
 56: 0x03F5 [0xBA] SET_ENTITY_POSITION(entity_id=Sikool Ja (ID: 17051939/0x01043123), pos_x=249.994*, pos_z=230.041*, pos_y=-37.763*, direction=225.0*)
 57: 0x0402 [0xBA] SET_ENTITY_POSITION(entity_id=Pomaal Ja (ID: 17051940/0x01043124), pos_x=253.088*, pos_z=245.492*, pos_y=-37.763*, direction=156.9*)
 58: 0x040F [0xBA] SET_ENTITY_POSITION(entity_id=Hageel Ja (ID: 17051941/0x01043125), pos_x=234.681*, pos_z=226.875*, pos_y=-37.763*, direction=298.7*)
 59: 0x041C [0xBA] SET_ENTITY_POSITION(entity_id=Mufaal Ja (ID: 17051942/0x01043126), pos_x=239.943*, pos_z=254.118*, pos_y=-37.763*, direction=88.5*)
 60: 0x0429 [0xBA] SET_ENTITY_POSITION(entity_id=Unnamed NPC (ID: 17051862/0x010430D6), pos_x=238.773*, pos_z=231.850*, pos_y=-30.993*, direction=311.5*)
 61: 0x0436 [0xBA] SET_ENTITY_POSITION(entity_id=Unnamed NPC (ID: 17051863/0x010430D7), pos_x=242.689*, pos_z=227.844*, pos_y=-30.511*, direction=272.6*)
 62: 0x0443 [0xBA] SET_ENTITY_POSITION(entity_id=Unnamed NPC (ID: 17051874/0x010430E2), pos_x=248.455*, pos_z=240.073*, pos_y=-30.926*, direction=145.6*)
 63: 0x0450 [0xBA] SET_ENTITY_POSITION(entity_id=Unnamed NPC (ID: 17051875/0x010430E3), pos_x=248.684*, pos_z=231.529*, pos_y=-30.522*, direction=226.9*)
 64: 0x045D [0xBA] SET_ENTITY_POSITION(entity_id=Unnamed NPC (ID: 17051883/0x010430EB), pos_x=251.911*, pos_z=236.906*, pos_y=-30.505*, direction=170.9*)
 65: 0x046A [0xBA] SET_ENTITY_POSITION(entity_id=LocalPlayer, pos_x=300.000*, pos_z=-196.000*, pos_y=-0.342*, direction=89.9*)
 66: 0x0477 [0x22] ENTITY_HIDE_FLAG(enabled=0x00)
 67: 0x0479 [0x36] SET_ENTITY_EVENT_POSITION(pos_x=0.000*, pos_z=0.000*, pos_y=0.000*)
 68: 0x0480 [0xB6] ENTITY_APPEARANCE_HANDLER(case=Hair style, value=3176*)
 69: 0x0484 [0x29] REQ_SET_WAIT(priority=0x10, entity_id=Rishfee (ID: 17051887/0x010430EF), tag_num=0x14)
 70: 0x048B [0x29] REQ_SET_WAIT(priority=0x10, entity_id=Unnamed NPC (ID: 17051898/0x010430FA), tag_num=0x0B)
 71: 0x0492 [0x6C] FADE_ENTITY_COLOR(entity_id=Abda-Lurabda (ID: 17051935/0x0104311F), end_alpha=0*, fade_time=1*)
 72: 0x049B [0x6C] FADE_ENTITY_COLOR(entity_id=Tateeya (ID: 17051936/0x01043120), end_alpha=0*, fade_time=1*)
 73: 0x04A4 [0x6C] FADE_ENTITY_COLOR(entity_id=Rishfee (ID: 17051887/0x010430EF), end_alpha=0*, fade_time=1*)
 74: 0x04AD [0x80] LOAD_WAIT(entity=Ghatsad (ID: 17051934/0x0104311E))
 75: 0x04B2 [0x80] LOAD_WAIT(entity=Abda-Lurabda (ID: 17051935/0x0104311F))
 76: 0x04B7 [0x80] LOAD_WAIT(entity=Tateeya (ID: 17051936/0x01043120))
 77: 0x04BC [0x80] LOAD_WAIT(entity=Rishfee (ID: 17051887/0x010430EF))
 78: 0x04C1 [0x80] LOAD_WAIT(entity=Uran-Mafran (ID: 17051938/0x01043122))
 79: 0x04C6 [0x80] LOAD_WAIT(entity=Sikool Ja (ID: 17051939/0x01043123))
 80: 0x04CB [0x80] LOAD_WAIT(entity=Pomaal Ja (ID: 17051940/0x01043124))
 81: 0x04D0 [0x80] LOAD_WAIT(entity=Hageel Ja (ID: 17051941/0x01043125))
 82: 0x04D5 [0x80] LOAD_WAIT(entity=Mufaal Ja (ID: 17051942/0x01043126))
 83: 0x04DA [0x80] LOAD_WAIT(entity=Unnamed NPC (ID: 17051898/0x010430FA))
 84: 0x04DF [0x80] LOAD_WAIT(entity=Unnamed NPC (ID: 17051862/0x010430D6))
 85: 0x04E4 [0x80] LOAD_WAIT(entity=Unnamed NPC (ID: 17051863/0x010430D7))
 86: 0x04E9 [0x80] LOAD_WAIT(entity=Unnamed NPC (ID: 17051874/0x010430E2))
 87: 0x04EE [0x80] LOAD_WAIT(entity=Unnamed NPC (ID: 17051875/0x010430E3))
 88: 0x04F3 [0x80] LOAD_WAIT(entity=Unnamed NPC (ID: 17051883/0x010430EB))
 89: 0x04F8 [0x80] LOAD_WAIT(entity=LocalPlayer)
 90: 0x04FD [0x5B] LOAD_EXT_SCHEDULER: Load scheduler "wnd0" with entities [Sikool Ja (ID: 17051939/0x01043123), Sikool Ja (ID: 17051939/0x01043123)], work=828*
 91: 0x050C [0x5B] LOAD_EXT_SCHEDULER: Load scheduler "mnk0" with entities [Hageel Ja (ID: 17051941/0x01043125), Hageel Ja (ID: 17051941/0x01043125)], work=827*
 92: 0x051B [0x5B] LOAD_EXT_SCHEDULER: Load scheduler "srd0" with entities [Pomaal Ja (ID: 17051940/0x01043124), Pomaal Ja (ID: 17051940/0x01043124)], work=827*
 93: 0x052A [0x5B] LOAD_EXT_SCHEDULER: Load scheduler "hi01" with entities [Mufaal Ja (ID: 17051942/0x01043126), Mufaal Ja (ID: 17051942/0x01043126)], work=978*
 94: 0x0539 [0x5B] LOAD_EXT_SCHEDULER: Load scheduler "hia0" with entities [Unnamed NPC (ID: 17051898/0x010430FA), Unnamed NPC (ID: 17051898/0x010430FA)], work=1005*
 95: 0x0548 [0x5B] LOAD_EXT_SCHEDULER: Load scheduler "mnk0" with entities [Unnamed NPC (ID: 17051862/0x010430D6), Unnamed NPC (ID: 17051862/0x010430D6)], work=827*
 96: 0x0557 [0x2C] CREATE_SCHEDULER_TASK: Create scheduler "corp" with entities [Unnamed NPC (ID: 17051862/0x010430D6), Unnamed NPC (ID: 17051862/0x010430D6)]
 97: 0x0564 [0x2C] CREATE_SCHEDULER_TASK: Create scheduler "corp" with entities [Unnamed NPC (ID: 17051874/0x010430E2), Unnamed NPC (ID: 17051874/0x010430E2)]
 98: 0x0571 [0x2C] CREATE_SCHEDULER_TASK: Create scheduler "corp" with entities [Unnamed NPC (ID: 17051863/0x010430D7), Unnamed NPC (ID: 17051863/0x010430D7)]
 99: 0x057E [0x5B] LOAD_EXT_SCHEDULER: Load scheduler "wnd0" with entities [Unnamed NPC (ID: 17051875/0x010430E3), Unnamed NPC (ID: 17051875/0x010430E3)], work=828*
100: 0x058D [0x5B] LOAD_EXT_SCHEDULER: Load scheduler "mnk0" with entities [Unnamed NPC (ID: 17051883/0x010430EB), Unnamed NPC (ID: 17051883/0x010430EB)], work=827*
101: 0x059C [0x5C] MUSIC_CONTROL: Set Idle (Day) music to song 148*
102: 0x05A0 [0x5C] MUSIC_CONTROL: Set Idle (Night) music to song 148*
103: 0x05A4 [0x5C] MUSIC_CONTROL: Set Combat (Solo) music to song 148*
104: 0x05A8 [0x5C] MUSIC_CONTROL: Set Combat (Party) music to song 148*
105: 0x05AC [0x9A] WAIT_MUSIC_SERVER()
106: 0x05AD [0x79] Ghatsad (ID: 17051934/0x0104311E) looks at LocalPlayer (Basic look)
107: 0x05B7 [0x27] REQ_SET(priority=0x10, entity_id=Ghatsad (ID: 17051934/0x0104311E), tag_num=0x18)
108: 0x05BE [0x45] LOAD_SCHEDULED_TASK: Load scheduler "s000" with entities [EventEntity, EventEntity], work=[862*, 0*]
109: 0x05CF [0x1A] CALL_SUBROUTINE(address=0x0043)
110: 0x05D2 [0x1C] WAIT(120* ticks)
111: 0x05D5 [0x2B] Ghatsad (ID: 17051934/0x0104311E) [8059*]:
     "Have you been waiting long, <Player>?"
112: 0x05DC [0x2A] GET_REQ_LEVEL(level=16, entity_id=Ghatsad (ID: 17051934/0x0104311E))
113: 0x05E2 [0x23] WAIT_FOR_DIALOG_INTERACTION
114: 0x05E3 [0x1C] WAIT(20* ticks)
115: 0x05E6 [0x4A] LocalPlayer looks at Ghatsad (ID: 17051934/0x0104311E)
116: 0x05EF [0x1C] WAIT(5* ticks)
117: 0x05F2 [0x52] END_LOAD_SCHEDULER: End scheduler "s000" with entities [EventEntity, EventEntity], work=862*
118: 0x0601 [0x02] IF !(LocalPlayer->Race == 3*) GOTO 0x061D
119: 0x0609 [0x45] LOAD_SCHEDULED_TASK: Load scheduler "sg01" with entities [EventEntity, EventEntity], work=[862*, 0*]
120: 0x061A [0x01] GOTO 0x069E
121: 0x061D [0x02] IF !(LocalPlayer->Race == 4*) GOTO 0x0639
122: 0x0625 [0x45] LOAD_SCHEDULED_TASK: Load scheduler "sg01" with entities [EventEntity, EventEntity], work=[862*, 0*]
123: 0x0636 [0x01] GOTO 0x069E
124: 0x0639 [0x02] IF !(LocalPlayer->Race == 5*) GOTO 0x0655
125: 0x0641 [0x45] LOAD_SCHEDULED_TASK: Load scheduler "st01" with entities [EventEntity, EventEntity], work=[862*, 0*]
126: 0x0652 [0x01] GOTO 0x069E
127: 0x0655 [0x02] IF !(LocalPlayer->Race == 6*) GOTO 0x0671
128: 0x065D [0x45] LOAD_SCHEDULED_TASK: Load scheduler "st01" with entities [EventEntity, EventEntity], work=[862*, 0*]
129: 0x066E [0x01] GOTO 0x069E
130: 0x0671 [0x02] IF !(LocalPlayer->Race == 8*) GOTO 0x068D
131: 0x0679 [0x45] LOAD_SCHEDULED_TASK: Load scheduler "sg01" with entities [EventEntity, EventEntity], work=[862*, 0*]
132: 0x068A [0x01] GOTO 0x069E
133: 0x068D [0x45] LOAD_SCHEDULED_TASK: Load scheduler "s001" with entities [EventEntity, EventEntity], work=[862*, 0*]

SUBROUTINE_069E:
134: 0x069E [0x6F] WAIT_FRAME_DELAY: Yield until WaitTime reaches zero
135: 0x069F [0x76] CHECK_ENTITY_RENDER_FLAGS: Wait until LocalPlayer Render.Flags0 and Render.Flags3 conditions are met
136: 0x06A4 [0x1C] WAIT(15* ticks)
137: 0x06A7 [0x27] REQ_SET(priority=0x10, entity_id=Ghatsad (ID: 17051934/0x0104311E), tag_num=0x01)
138: 0x06AE [0x2B] Ghatsad (ID: 17051934/0x0104311E) [8060*]:
     "Tateeya and Abda-Lurabda were making quite the fuss as I was trying to leave."
139: 0x06B5 [0x23] WAIT_FOR_DIALOG_INTERACTION
140: 0x06B6 [0x2B] Ghatsad (ID: 17051934/0x0104311E) [8061*]:
     "If they complete the important mission I assigned them, we'll be meeting up with them later."
141: 0x06BD [0x2A] GET_REQ_LEVEL(level=16, entity_id=Ghatsad (ID: 17051934/0x0104311E))
142: 0x06C3 [0x23] WAIT_FOR_DIALOG_INTERACTION
143: 0x06C4 [0x27] REQ_SET(priority=0x10, entity_id=Ghatsad (ID: 17051934/0x0104311E), tag_num=0x03)
144: 0x06CB [0x02] IF !(LocalPlayer->Race == 3*) GOTO 0x06E5
145: 0x06D3 [0x52] END_LOAD_SCHEDULER: End scheduler "sg01" with entities [EventEntity, EventEntity], work=862*
146: 0x06E2 [0x01] GOTO 0x075C
147: 0x06E5 [0x02] IF !(LocalPlayer->Race == 4*) GOTO 0x06FF
148: 0x06ED [0x52] END_LOAD_SCHEDULER: End scheduler "sg01" with entities [EventEntity, EventEntity], work=862*
149: 0x06FC [0x01] GOTO 0x075C
150: 0x06FF [0x02] IF !(LocalPlayer->Race == 5*) GOTO 0x0719
151: 0x0707 [0x52] END_LOAD_SCHEDULER: End scheduler "st01" with entities [EventEntity, EventEntity], work=862*
152: 0x0716 [0x01] GOTO 0x075C
153: 0x0719 [0x02] IF !(LocalPlayer->Race == 6*) GOTO 0x0733
154: 0x0721 [0x52] END_LOAD_SCHEDULER: End scheduler "st01" with entities [EventEntity, EventEntity], work=862*
155: 0x0730 [0x01] GOTO 0x075C
156: 0x0733 [0x02] IF !(LocalPlayer->Race == 8*) GOTO 0x074D
157: 0x073B [0x52] END_LOAD_SCHEDULER: End scheduler "sg01" with entities [EventEntity, EventEntity], work=862*
158: 0x074A [0x01] GOTO 0x075C
159: 0x074D [0x52] END_LOAD_SCHEDULER: End scheduler "s001" with entities [EventEntity, EventEntity], work=862*

SUBROUTINE_075C:
160: 0x075C [0x45] LOAD_SCHEDULED_TASK: Load scheduler "s002" with entities [EventEntity, EventEntity], work=[862*, 0*]
161: 0x076D [0x2A] GET_REQ_LEVEL(level=16, entity_id=Ghatsad (ID: 17051934/0x0104311E))
162: 0x0773 [0x2B] Ghatsad (ID: 17051934/0x0104311E) [8062*]:
     "At any rate, we have no idea what lies ahead. We'll be walking right into the Mamool Ja's clutches."
163: 0x077A [0x23] WAIT_FOR_DIALOG_INTERACTION
164: 0x077B [0x2B] Ghatsad (ID: 17051934/0x0104311E) [8063*]:
     "I'm counting on you to watch my back. We must keep our guard up at all times."
165: 0x0782 [0x1C] WAIT(120* ticks)
166: 0x0785 [0x23] WAIT_FOR_DIALOG_INTERACTION
167: 0x0786 [0x7B] Ghatsad (ID: 17051934/0x0104311E) stops talking
168: 0x078B [0x27] REQ_SET(priority=0x10, entity_id=Ghatsad (ID: 17051934/0x0104311E), tag_num=0x19)
169: 0x0792 [0x1C] WAIT(30* ticks)
170: 0x0795 [0x52] END_LOAD_SCHEDULER: End scheduler "s002" with entities [EventEntity, EventEntity], work=862*
171: 0x07A4 [0x45] LOAD_SCHEDULED_TASK: Load scheduler "s003" with entities [EventEntity, EventEntity], work=[862*, 0*]
172: 0x07B5 [0x1C] WAIT(15* ticks)
173: 0x07B8 [0x7B] LocalPlayer stops talking
174: 0x07BD [0x27] REQ_SET(priority=0x10, entity_id=LocalPlayer, tag_num=0x17)
175: 0x07C4 [0x1C] WAIT(60* ticks)
176: 0x07C7 [0x27] REQ_SET(priority=0x10, entity_id=Ornamental Door (ID: 17051851/0x010430CB), tag_num=0x02)
177: 0x07CE [0x1C] WAIT(120* ticks)
178: 0x07D1 [0x1A] CALL_SUBROUTINE(address=0x0064)
179: 0x07D4 [0x1C] WAIT(180* ticks)
180: 0x07D7 [0x5D] SET_MUSIC_VOLUME(volume=0*, fade_time=300*)
181: 0x07DC [0x27] REQ_SET(priority=0x10, entity_id=Ornamental Door (ID: 17051851/0x010430CB), tag_num=0x03)
182: 0x07E3 [0x7A] VM_CONTROL: Reset VM for Ghatsad (ID: 17051934/0x0104311E)
183: 0x07E9 [0x7A] VM_CONTROL: Reset VM for LocalPlayer
184: 0x07EF [0x48] [System] [8058*]:
     "@@"
185: 0x07F2 [0x1C] WAIT(120* ticks)
186: 0x07F5 [0x5C] MUSIC_CONTROL: Set Idle (Day) music to song 143*
187: 0x07F9 [0x5C] MUSIC_CONTROL: Set Idle (Night) music to song 143*
188: 0x07FD [0x5C] MUSIC_CONTROL: Set Combat (Solo) music to song 143*
189: 0x0801 [0x5C] MUSIC_CONTROL: Set Combat (Party) music to song 143*
190: 0x0805 [0x9A] WAIT_MUSIC_SERVER()
191: 0x0806 [0x52] END_LOAD_SCHEDULER: End scheduler "s003" with entities [EventEntity, EventEntity], work=862*
192: 0x0815 [0x45] LOAD_SCHEDULED_TASK: Load scheduler "s004" with entities [EventEntity, EventEntity], work=[862*, 0*]
193: 0x0826 [0x1A] CALL_SUBROUTINE(address=0x0043)
194: 0x0829 [0x1C] WAIT(690* ticks)
195: 0x082C [0x52] END_LOAD_SCHEDULER: End scheduler "s004" with entities [EventEntity, EventEntity], work=862*
196: 0x083B [0x45] LOAD_SCHEDULED_TASK: Load scheduler "s005" with entities [EventEntity, EventEntity], work=[862*, 0*]
197: 0x084C [0x45] LOAD_SCHEDULED_TASK: Load scheduler "5015" with entities [EventEntity, EventEntity], work=[862*, 0*]
198: 0x085D [0x81] SET_ENTITY_BLINKING(blink_flag=0x00, entity=Uran-Mafran (ID: 17051938/0x01043122))
199: 0x0863 [0x2C] CREATE_SCHEDULER_TASK: Create scheduler "cabk" with entities [Uran-Mafran (ID: 17051938/0x01043122), Uran-Mafran (ID: 17051938/0x01043122)]
200: 0x0870 [0x1C] WAIT(300* ticks)
201: 0x0873 [0x45] LOAD_SCHEDULED_TASK: Load scheduler "stop" with entities [EventEntity, EventEntity], work=[862*, 0*]
202: 0x0884 [0x73] EventEntity casts magic 253* on Unnamed NPC (ID: 17051883/0x010430EB)
203: 0x088F [0x2C] CREATE_SCHEDULER_TASK: Create scheduler "shbk" with entities [Uran-Mafran (ID: 17051938/0x01043122), Uran-Mafran (ID: 17051938/0x01043122)]
204: 0x089C [0x53] WAIT_SCHEDULER_TASK: Wait for scheduler "shbk" with entities [Uran-Mafran (ID: 17051938/0x01043122), Uran-Mafran (ID: 17051938/0x01043122)]
205: 0x08A9 [0x1C] WAIT(60* ticks)
206: 0x08AC [0xC5] LOAD_SCHEDULED_TASK_ALT3: Load scheduler 0x80016E6F for entities [Unnamed NPC (ID: 17051883/0x010430EB), Unnamed NPC (ID: 17051883/0x010430EB)], work=65*, param=31354
207: 0x08BD [0x1C] WAIT(120* ticks)
208: 0x08C0 [0x52] END_LOAD_SCHEDULER: End scheduler "s005" with entities [EventEntity, EventEntity], work=862*
209: 0x08CF [0x45] LOAD_SCHEDULED_TASK: Load scheduler "s006" with entities [EventEntity, EventEntity], work=[862*, 0*]
210: 0x08E0 [0x2C] CREATE_SCHEDULER_TASK: Create scheduler "cabk" with entities [Uran-Mafran (ID: 17051938/0x01043122), Uran-Mafran (ID: 17051938/0x01043122)]
211: 0x08ED [0x1C] WAIT(180* ticks)
212: 0x08F0 [0x73] EventEntity casts magic 167* on Unnamed NPC (ID: 17051875/0x010430E3)
213: 0x08FB [0x2C] CREATE_SCHEDULER_TASK: Create scheduler "shbk" with entities [Uran-Mafran (ID: 17051938/0x01043122), Uran-Mafran (ID: 17051938/0x01043122)]
214: 0x0908 [0x53] WAIT_SCHEDULER_TASK: Wait for scheduler "shbk" with entities [Uran-Mafran (ID: 17051938/0x01043122), Uran-Mafran (ID: 17051938/0x01043122)]
215: 0x0915 [0x52] END_LOAD_SCHEDULER: End scheduler "s006" with entities [EventEntity, EventEntity], work=862*
216: 0x0924 [0x45] LOAD_SCHEDULED_TASK: Load scheduler "s007" with entities [EventEntity, EventEntity], work=[862*, 0*]
217: 0x0935 [0x1C] WAIT(180* ticks)
218: 0x0938 [0x2C] CREATE_SCHEDULER_TASK: Create scheduler "dead" with entities [Unnamed NPC (ID: 17051875/0x010430E3), Unnamed NPC (ID: 17051875/0x010430E3)]
219: 0x0945 [0x1C] WAIT(60* ticks)
220: 0x0948 [0x52] END_LOAD_SCHEDULER: End scheduler "s007" with entities [EventEntity, EventEntity], work=862*
221: 0x0957 [0x45] LOAD_SCHEDULED_TASK: Load scheduler "s008" with entities [EventEntity, EventEntity], work=[862*, 0*]
222: 0x0968 [0x1C] WAIT(240* ticks)
223: 0x096B [0x52] END_LOAD_SCHEDULER: End scheduler "s008" with entities [EventEntity, EventEntity], work=862*
224: 0x097A [0x45] LOAD_SCHEDULED_TASK: Load scheduler "s009" with entities [EventEntity, EventEntity], work=[862*, 0*]
225: 0x098B [0x2C] CREATE_SCHEDULER_TASK: Create scheduler "cabk" with entities [Uran-Mafran (ID: 17051938/0x01043122), Uran-Mafran (ID: 17051938/0x01043122)]
226: 0x0998 [0x1C] WAIT(120* ticks)
227: 0x099B [0x73] EventEntity casts magic 167* on Sikool Ja (ID: 17051939/0x01043123)
228: 0x09A6 [0x2C] CREATE_SCHEDULER_TASK: Create scheduler "shbk" with entities [Uran-Mafran (ID: 17051938/0x01043122), Uran-Mafran (ID: 17051938/0x01043122)]
229: 0x09B3 [0x53] WAIT_SCHEDULER_TASK: Wait for scheduler "shbk" with entities [Uran-Mafran (ID: 17051938/0x01043122), Uran-Mafran (ID: 17051938/0x01043122)]
230: 0x09C0 [0x79] Uran-Mafran (ID: 17051938/0x01043122) looks at Sikool Ja (ID: 17051939/0x01043123) (Basic look)
231: 0x09CA [0x52] END_LOAD_SCHEDULER: End scheduler "s009" with entities [EventEntity, EventEntity], work=862*
232: 0x09D9 [0x45] LOAD_SCHEDULED_TASK: Load scheduler "s010" with entities [EventEntity, EventEntity], work=[862*, 0*]
233: 0x09EA [0x1C] WAIT(180* ticks)
234: 0x09ED [0x29] REQ_SET_WAIT(priority=0x10, entity_id=Uran-Mafran (ID: 17051938/0x01043122), tag_num=0x21)
235: 0x09F4 [0x52] END_LOAD_SCHEDULER: End scheduler "s010" with entities [EventEntity, EventEntity], work=862*
236: 0x0A03 [0x45] LOAD_SCHEDULED_TASK: Load scheduler "s011" with entities [EventEntity, EventEntity], work=[862*, 0*]
237: 0x0A14 [0x6B] STOP_AND_IDLE: Sikool Ja (ID: 17051939/0x01043123) stops current action and resets to idle (animation="idl0")
238: 0x0A1D [0x2B] Uran-Mafran (ID: 17051938/0x01043122) [8064*]:
     "<Sigh> They just won't go down... Could it be the power of the staff?"
239: 0x0A24 [0x1C] WAIT(120* ticks)
240: 0x0A27 [0x23] WAIT_FOR_DIALOG_INTERACTION
241: 0x0A28 [0xB6] ENTITY_APPEARANCE_HANDLER(case=Hair style, value=52*)
242: 0x0A2C [0x52] END_LOAD_SCHEDULER: End scheduler "s011" with entities [EventEntity, EventEntity], work=862*
243: 0x0A3B [0x45] LOAD_SCHEDULED_TASK: Load scheduler "s012" with entities [EventEntity, EventEntity], work=[862*, 0*]
244: 0x0A4C [0x2B] Sikool Ja (ID: 17051939/0x01043123) [8065*]:
     "Grrr... Such mysterious arts, you wield."
245: 0x0A53 [0x23] WAIT_FOR_DIALOG_INTERACTION
246: 0x0A54 [0x2B] Sikool Ja (ID: 17051939/0x01043123) [8066*]:
     "From the Middle Lands, you come... Seek the staff, what reason do you?"
247: 0x0A5B [0x23] WAIT_FOR_DIALOG_INTERACTION
248: 0x0A5C [0x52] END_LOAD_SCHEDULER: End scheduler "s012" with entities [EventEntity, EventEntity], work=862*
249: 0x0A6B [0x45] LOAD_SCHEDULED_TASK: Load scheduler "s013" with entities [EventEntity, EventEntity], work=[862*, 0*]
250: 0x0A7C [0x2B] Uran-Mafran (ID: 17051938/0x01043122) [8067*]:
     "Hmph. I need it if I am to resurrect my m-m-master."
251: 0x0A83 [0x1C] WAIT(120* ticks)
252: 0x0A86 [0x23] WAIT_FOR_DIALOG_INTERACTION
253: 0x0A87 [0x5B] LOAD_EXT_SCHEDULER: Load scheduler "hi00" with entities [Sikool Ja (ID: 17051939/0x01043123), Sikool Ja (ID: 17051939/0x01043123)], work=828*
254: 0x0A96 [0x1C] WAIT(30* ticks)
255: 0x0A99 [0x52] END_LOAD_SCHEDULER: End scheduler "s013" with entities [EventEntity, EventEntity], work=862*
256: 0x0AA8 [0x45] LOAD_SCHEDULED_TASK: Load scheduler "s014" with entities [EventEntity, EventEntity], work=[862*, 0*]
257: 0x0AB9 [0x2B] Sikool Ja (ID: 17051939/0x01043123) [8068*]:
     "Used wrongly, destroy the Empire along with this entire region, it can."
258: 0x0AC0 [0x23] WAIT_FOR_DIALOG_INTERACTION
259: 0x0AC1 [0x2B] Sikool Ja (ID: 17051939/0x01043123) [8069*]:
     "Tried to resurrect Falak, the Immortals did. Inviting chaos upon the land, they tried."
260: 0x0AC8 [0x1C] WAIT(120* ticks)
261: 0x0ACB [0x23] WAIT_FOR_DIALOG_INTERACTION
262: 0x0ACC [0x5B] LOAD_EXT_SCHEDULER: Load scheduler "hi01" with entities [Sikool Ja (ID: 17051939/0x01043123), Sikool Ja (ID: 17051939/0x01043123)], work=828*
263: 0x0ADB [0x52] END_LOAD_SCHEDULER: End scheduler "s014" with entities [EventEntity, EventEntity], work=862*
264: 0x0AEA [0x45] LOAD_SCHEDULED_TASK: Load scheduler "s015" with entities [EventEntity, EventEntity], work=[862*, 0*]
265: 0x0AFB [0x2B] Uran-Mafran (ID: 17051938/0x01043122) [8070*]:
     "I don't know anything about that. Besides, this land has faced imminent destruction m-m-multiple times in the past."
266: 0x0B02 [0x1C] WAIT(120* ticks)
267: 0x0B05 [0x23] WAIT_FOR_DIALOG_INTERACTION
268: 0x0B06 [0x5C] MUSIC_CONTROL: Set Idle (Day) music to song 231*
269: 0x0B0A [0x5C] MUSIC_CONTROL: Set Idle (Night) music to song 231*
270: 0x0B0E [0x5C] MUSIC_CONTROL: Set Combat (Solo) music to song 231*
271: 0x0B12 [0x5C] MUSIC_CONTROL: Set Combat (Party) music to song 231*
272: 0x0B16 [0x9A] WAIT_MUSIC_SERVER()
273: 0x0B17 [0xBA] SET_ENTITY_POSITION(entity_id=Ghatsad (ID: 17051934/0x0104311E), pos_x=231.789*, pos_z=248.530*, pos_y=-30.519*, direction=42.1*)
274: 0x0B24 [0xBA] SET_ENTITY_POSITION(entity_id=LocalPlayer, pos_x=230.171*, pos_z=250.915*, pos_y=-30.931*, direction=43.9*)
275: 0x0B31 [0x27] REQ_SET(priority=0x10, entity_id=Ghatsad (ID: 17051934/0x0104311E), tag_num=0x1A)
276: 0x0B38 [0x1C] WAIT(15* ticks)
277: 0x0B3B [0x27] REQ_SET(priority=0x10, entity_id=LocalPlayer, tag_num=0x18)
278: 0x0B42 [0x52] END_LOAD_SCHEDULER: End scheduler "s015" with entities [EventEntity, EventEntity], work=862*
279: 0x0B51 [0x45] LOAD_SCHEDULED_TASK: Load scheduler "s016" with entities [EventEntity, EventEntity], work=[862*, 0*]
280: 0x0B62 [0x2A] GET_REQ_LEVEL(level=16, entity_id=Ghatsad (ID: 17051934/0x0104311E))
281: 0x0B68 [0x81] SET_ENTITY_BLINKING(blink_flag=0x01, entity=Uran-Mafran (ID: 17051938/0x01043122))
282: 0x0B6E [0x7B] Uran-Mafran (ID: 17051938/0x01043122) stops talking
283: 0x0B73 [0x4A] Uran-Mafran (ID: 17051938/0x01043122) looks at Ghatsad (ID: 17051934/0x0104311E)
284: 0x0B7C [0x6F] WAIT_FRAME_DELAY: Yield until WaitTime reaches zero
285: 0x0B7D [0x76] CHECK_ENTITY_RENDER_FLAGS: Wait until Uran-Mafran (ID: 17051938/0x01043122) Render.Flags0 and Render.Flags3 conditions are met
286: 0x0B82 [0x1C] WAIT(60* ticks)
287: 0x0B85 [0x79] Uran-Mafran (ID: 17051938/0x01043122) looks at LocalPlayer (Basic look)
288: 0x0B8F [0x52] END_LOAD_SCHEDULER: End scheduler "s016" with entities [EventEntity, EventEntity], work=862*
289: 0x0B9E [0x02] IF !(LocalPlayer->Race == 5*) GOTO 0x0BBA
290: 0x0BA6 [0x45] LOAD_SCHEDULED_TASK: Load scheduler "st18" with entities [EventEntity, EventEntity], work=[862*, 0*]
291: 0x0BB7 [0x01] GOTO 0x0BE7
292: 0x0BBA [0x02] IF !(LocalPlayer->Race == 6*) GOTO 0x0BD6
293: 0x0BC2 [0x45] LOAD_SCHEDULED_TASK: Load scheduler "st18" with entities [EventEntity, EventEntity], work=[862*, 0*]
294: 0x0BD3 [0x01] GOTO 0x0BE7
295: 0x0BD6 [0x45] LOAD_SCHEDULED_TASK: Load scheduler "s018" with entities [EventEntity, EventEntity], work=[862*, 0*]

SUBROUTINE_0BE7:
296: 0x0BE7 [0x2B] Uran-Mafran (ID: 17051938/0x01043122) [8071*]:
     "I remember you... I wasn't expecting to m-m-meet you here, of all people."
297: 0x0BEE [0x23] WAIT_FOR_DIALOG_INTERACTION
298: 0x0BEF [0x1C] WAIT(120* ticks)
299: 0x0BF2 [0x02] IF !(LocalPlayer->Race == 5*) GOTO 0x0C0C
300: 0x0BFA [0x52] END_LOAD_SCHEDULER: End scheduler "st18" with entities [EventEntity, EventEntity], work=862*
301: 0x0C09 [0x01] GOTO 0x0C35
302: 0x0C0C [0x02] IF !(LocalPlayer->Race == 6*) GOTO 0x0C26
303: 0x0C14 [0x52] END_LOAD_SCHEDULER: End scheduler "st18" with entities [EventEntity, EventEntity], work=862*
304: 0x0C23 [0x01] GOTO 0x0C35
305: 0x0C26 [0x52] END_LOAD_SCHEDULER: End scheduler "s018" with entities [EventEntity, EventEntity], work=862*

SUBROUTINE_0C35:
306: 0x0C35 [0x45] LOAD_SCHEDULED_TASK: Load scheduler "s019" with entities [EventEntity, EventEntity], work=[862*, 0*]
307: 0x0C46 [0x5B] LOAD_EXT_SCHEDULER: Load scheduler "akb0" with entities [Ghatsad (ID: 17051934/0x0104311E), Ghatsad (ID: 17051934/0x0104311E)], work=848*
308: 0x0C55 [0x2B] Ghatsad (ID: 17051934/0x0104311E) [8072*]:
     "We meet at last. I am Ghatsad from the Automaton Workshop."
309: 0x0C5C [0x1C] WAIT(30* ticks)
310: 0x0C5F [0x79] Uran-Mafran (ID: 17051938/0x01043122) looks at Ghatsad (ID: 17051934/0x0104311E) (Basic look)
311: 0x0C69 [0x53] WAIT_SCHEDULER_TASK: Wait for scheduler "akb0" with entities [Ghatsad (ID: 17051934/0x0104311E), Ghatsad (ID: 17051934/0x0104311E)]
312: 0x0C76 [0x23] WAIT_FOR_DIALOG_INTERACTION
313: 0x0C77 [0x79] Ghatsad (ID: 17051934/0x0104311E) looks at Uran-Mafran (ID: 17051938/0x01043122) (Basic look)
314: 0x0C81 [0x79] LocalPlayer looks at Uran-Mafran (ID: 17051938/0x01043122) (Basic look)
315: 0x0C8B [0x7B] Uran-Mafran (ID: 17051938/0x01043122) stops talking
316: 0x0C90 [0x27] REQ_SET(priority=0x10, entity_id=Uran-Mafran (ID: 17051938/0x01043122), tag_num=0x31)
317: 0x0C97 [0x2B] Uran-Mafran (ID: 17051938/0x01043122) [8073*]:
     "I'm honored that the head of the A.A.R.I. came all this way to greet m-m-me personally."
318: 0x0C9E [0x1C] WAIT(30* ticks)
319: 0x0CA1 [0x52] END_LOAD_SCHEDULER: End scheduler "s019" with entities [EventEntity, EventEntity], work=862*
320: 0x0CB0 [0x45] LOAD_SCHEDULED_TASK: Load scheduler "s020" with entities [EventEntity, EventEntity], work=[862*, 0*]
321: 0x0CC1 [0x2A] GET_REQ_LEVEL(level=16, entity_id=Uran-Mafran (ID: 17051938/0x01043122))
322: 0x0CC7 [0x23] WAIT_FOR_DIALOG_INTERACTION
323: 0x0CC8 [0x52] END_LOAD_SCHEDULER: End scheduler "s020" with entities [EventEntity, EventEntity], work=862*
324: 0x0CD7 [0x45] LOAD_SCHEDULED_TASK: Load scheduler "s021" with entities [EventEntity, EventEntity], work=[862*, 0*]
325: 0x0CE8 [0x1C] WAIT(15* ticks)
326: 0x0CEB [0x4A] Uran-Mafran (ID: 17051938/0x01043122) looks at Ghatsad (ID: 17051934/0x0104311E)
327: 0x0CF4 [0x6F] WAIT_FRAME_DELAY: Yield until WaitTime reaches zero
328: 0x0CF5 [0x76] CHECK_ENTITY_RENDER_FLAGS: Wait until Uran-Mafran (ID: 17051938/0x01043122) Render.Flags0 and Render.Flags3 conditions are met
329: 0x0CFA [0x27] REQ_SET(priority=0x10, entity_id=Uran-Mafran (ID: 17051938/0x01043122), tag_num=0x05)
330: 0x0D01 [0x2B] Uran-Mafran (ID: 17051938/0x01043122) [8074*]:
     "You see that M-M-Mamool Ja over there? That is the Olduum staff in its hands."
331: 0x0D08 [0x29] REQ_SET_WAIT(priority=0x10, entity_id=Uran-Mafran (ID: 17051938/0x01043122), tag_num=0x06)
332: 0x0D0F [0x23] WAIT_FOR_DIALOG_INTERACTION
333: 0x0D10 [0x27] REQ_SET(priority=0x10, entity_id=Uran-Mafran (ID: 17051938/0x01043122), tag_num=0x07)
334: 0x0D17 [0x7B] LocalPlayer stops talking
335: 0x0D1C [0x79] Ghatsad (ID: 17051934/0x0104311E) looks at Sikool Ja (ID: 17051939/0x01043123) (Basic look)
336: 0x0D26 [0x52] END_LOAD_SCHEDULER: End scheduler "s021" with entities [EventEntity, EventEntity], work=862*
337: 0x0D35 [0x45] LOAD_SCHEDULED_TASK: Load scheduler "s022" with entities [EventEntity, EventEntity], work=[862*, 0*]
338: 0x0D46 [0x1C] WAIT(180* ticks)
339: 0x0D49 [0x52] END_LOAD_SCHEDULER: End scheduler "s022" with entities [EventEntity, EventEntity], work=862*
340: 0x0D58 [0x45] LOAD_SCHEDULED_TASK: Load scheduler "s023" with entities [EventEntity, EventEntity], work=[862*, 0*]
341: 0x0D69 [0x2B] Ghatsad (ID: 17051934/0x0104311E) [8075*]:
     "So that's the staff... Yes, I can see the lightning coursing through it."
342: 0x0D70 [0x1C] WAIT(150* ticks)
343: 0x0D73 [0x23] WAIT_FOR_DIALOG_INTERACTION
344: 0x0D74 [0x4A] Uran-Mafran (ID: 17051938/0x01043122) looks at Ghatsad (ID: 17051934/0x0104311E)
345: 0x0D7D [0x52] END_LOAD_SCHEDULER: End scheduler "s023" with entities [EventEntity, EventEntity], work=862*
346: 0x0D8C [0x45] LOAD_SCHEDULED_TASK: Load scheduler "s024" with entities [EventEntity, EventEntity], work=[862*, 0*]
347: 0x0D9D [0x6F] WAIT_FRAME_DELAY: Yield until WaitTime reaches zero
348: 0x0D9E [0x76] CHECK_ENTITY_RENDER_FLAGS: Wait until Uran-Mafran (ID: 17051938/0x01043122) Render.Flags0 and Render.Flags3 conditions are met
349: 0x0DA3 [0x27] REQ_SET(priority=0x10, entity_id=Uran-Mafran (ID: 17051938/0x01043122), tag_num=0x05)
350: 0x0DAA [0x2B] Uran-Mafran (ID: 17051938/0x01043122) [8076*]:
     "It will be ours before too long."
351: 0x0DB1 [0x1C] WAIT(60* ticks)
352: 0x0DB4 [0x79] Ghatsad (ID: 17051934/0x0104311E) looks at Uran-Mafran (ID: 17051938/0x01043122) (Basic look)
353: 0x0DBE [0x1C] WAIT(30* ticks)
354: 0x0DC1 [0x79] LocalPlayer looks at Uran-Mafran (ID: 17051938/0x01043122) (Basic look)
355: 0x0DCB [0x23] WAIT_FOR_DIALOG_INTERACTION
356: 0x0DCC [0x2B] Uran-Mafran (ID: 17051938/0x01043122) [8077*]:
     "So, do we have an agreement regarding the proposal I m-m-made earlier?"
357: 0x0DD3 [0x29] REQ_SET_WAIT(priority=0x10, entity_id=Uran-Mafran (ID: 17051938/0x01043122), tag_num=0x06)
358: 0x0DDA [0x23] WAIT_FOR_DIALOG_INTERACTION
359: 0x0DDB [0x27] REQ_SET(priority=0x10, entity_id=Uran-Mafran (ID: 17051938/0x01043122), tag_num=0x07)
360: 0x0DE2 [0x7B] Ghatsad (ID: 17051934/0x0104311E) stops talking
361: 0x0DE7 [0x52] END_LOAD_SCHEDULER: End scheduler "s024" with entities [EventEntity, EventEntity], work=862*
362: 0x0DF6 [0x45] LOAD_SCHEDULED_TASK: Load scheduler "s025" with entities [EventEntity, EventEntity], work=[862*, 0*]
363: 0x0E07 [0x27] REQ_SET(priority=0x10, entity_id=Ghatsad (ID: 17051934/0x0104311E), tag_num=0x07)
364: 0x0E0E [0x1C] WAIT(240* ticks)
365: 0x0E11 [0x27] REQ_SET(priority=0x10, entity_id=Ghatsad (ID: 17051934/0x0104311E), tag_num=0x09)
366: 0x0E18 [0x29] REQ_SET_WAIT(priority=0x10, entity_id=Ghatsad (ID: 17051934/0x0104311E), tag_num=0x0A)
367: 0x0E1F [0x4B] UPDATE_ENTITY_YAW(entity=Ghatsad (ID: 17051934/0x0104311E), yaw=14.1*)
368: 0x0E26 [0x2B] Ghatsad (ID: 17051934/0x0104311E) [8078*]:
     "Over here!"
369: 0x0E2D [0x23] WAIT_FOR_DIALOG_INTERACTION
370: 0x0E2E [0x1C] WAIT(60* ticks)
371: 0x0E31 [0x5C] MUSIC_CONTROL: Set Idle (Day) music to song 0*
372: 0x0E35 [0x5C] MUSIC_CONTROL: Set Idle (Night) music to song 0*
373: 0x0E39 [0x5C] MUSIC_CONTROL: Set Combat (Solo) music to song 0*
374: 0x0E3D [0x5C] MUSIC_CONTROL: Set Combat (Party) music to song 0*
375: 0x0E41 [0x9A] WAIT_MUSIC_SERVER()
376: 0x0E42 [0x27] REQ_SET(priority=0x10, entity_id=Abda-Lurabda (ID: 17051935/0x0104311F), tag_num=0x49)
377: 0x0E49 [0x27] REQ_SET(priority=0x10, entity_id=Tateeya (ID: 17051936/0x01043120), tag_num=0x39)
378: 0x0E50 [0x27] REQ_SET(priority=0x10, entity_id=Rishfee (ID: 17051887/0x010430EF), tag_num=0x17)
379: 0x0E57 [0x1C] WAIT(15* ticks)
380: 0x0E5A [0x6C] FADE_ENTITY_COLOR(entity_id=Abda-Lurabda (ID: 17051935/0x0104311F), end_alpha=128*, fade_time=1*)
381: 0x0E63 [0x6C] FADE_ENTITY_COLOR(entity_id=Tateeya (ID: 17051936/0x01043120), end_alpha=128*, fade_time=1*)
382: 0x0E6C [0x6C] FADE_ENTITY_COLOR(entity_id=Rishfee (ID: 17051887/0x010430EF), end_alpha=128*, fade_time=1*)
383: 0x0E75 [0x52] END_LOAD_SCHEDULER: End scheduler "s025" with entities [EventEntity, EventEntity], work=862*
384: 0x0E84 [0x45] LOAD_SCHEDULED_TASK: Load scheduler "s026" with entities [EventEntity, EventEntity], work=[862*, 0*]
385: 0x0E95 [0x1C] WAIT(300* ticks)
386: 0x0E98 [0x1A] CALL_SUBROUTINE(address=0x0064)
387: 0x0E9B [0x7A] VM_CONTROL: Reset VM for Abda-Lurabda (ID: 17051935/0x0104311F)
388: 0x0EA1 [0x7A] VM_CONTROL: Reset VM for Tateeya (ID: 17051936/0x01043120)
389: 0x0EA7 [0x7A] VM_CONTROL: Reset VM for Rishfee (ID: 17051887/0x010430EF)
390: 0x0EAD [0xBA] SET_ENTITY_POSITION(entity_id=Abda-Lurabda (ID: 17051935/0x0104311F), pos_x=233.113*, pos_z=245.374*, pos_y=-30.946*, direction=45.0*)
391: 0x0EBA [0xBA] SET_ENTITY_POSITION(entity_id=Tateeya (ID: 17051936/0x01043120), pos_x=234.651*, pos_z=246.756*, pos_y=-30.947*, direction=45.0*)
392: 0x0EC7 [0xBA] SET_ENTITY_POSITION(entity_id=Rishfee (ID: 17051887/0x010430EF), pos_x=234.715*, pos_z=245.327*, pos_y=-30.977*, direction=45.0*)
393: 0x0ED4 [0x79] Abda-Lurabda (ID: 17051935/0x0104311F) looks at Ghatsad (ID: 17051934/0x0104311E) (Basic look)
394: 0x0EDE [0x79] Tateeya (ID: 17051936/0x01043120) looks at Ghatsad (ID: 17051934/0x0104311E) (Basic look)
395: 0x0EE8 [0x66] LOAD_EXT_SCHEDULER_MAIN: Load scheduler "koua" with entities [Rishfee (ID: 17051887/0x010430EF), Rishfee (ID: 17051887/0x010430EF)], work=79*
396: 0x0EF7 [0x59] UPDATE_ENTITY_DATA: LocalPlayer->Render.Flags0 |= 0x200000
397: 0x0EFE [0xBA] SET_ENTITY_POSITION(entity_id=LocalPlayer, pos_x=238.282*, pos_z=243.732*, pos_y=-31.220*, direction=225.0*)
398: 0x0F0B [0x48] [System] [8058*]:
     "@@"
399: 0x0F0E [0x1C] WAIT(120* ticks)
400: 0x0F11 [0xD5] LOAD_EVENT_SCHEDULER_ALT8: Load scheduler "st" with entities [Rishfee (ID: 17051887/0x010430EF), Rishfee (ID: 17051887/0x010430EF)], work=ExtData[1]->WorkLocal[1]
401: 0x0F22 [0x52] END_LOAD_SCHEDULER: End scheduler "s026" with entities [EventEntity, EventEntity], work=862*
402: 0x0F31 [0x45] LOAD_SCHEDULED_TASK: Load scheduler "s027" with entities [EventEntity, EventEntity], work=[862*, 0*]
403: 0x0F42 [0x1A] CALL_SUBROUTINE(address=0x0043)
404: 0x0F45 [0x6E] LocalPlayer uses emote 21*
405: 0x0F4C [0x99] Wait for LocalPlayer animation to complete
406: 0x0F51 [0x1C] WAIT(180* ticks)
407: 0x0F54 [0x52] END_LOAD_SCHEDULER: End scheduler "s027" with entities [EventEntity, EventEntity], work=862*
408: 0x0F63 [0x45] LOAD_SCHEDULED_TASK: Load scheduler "s028" with entities [EventEntity, EventEntity], work=[862*, 0*]
409: 0x0F74 [0x1C] WAIT(150* ticks)
410: 0x0F77 [0x6A] CHANGE_SOUND_VOLUME: Set (Effects)* volume to 300*, fade_time=1*
411: 0x0F7E [0x52] END_LOAD_SCHEDULER: End scheduler "s028" with entities [EventEntity, EventEntity], work=862*
412: 0x0F8D [0x45] LOAD_SCHEDULED_TASK: Load scheduler "s029" with entities [EventEntity, EventEntity], work=[862*, 0*]
413: 0x0F9E [0x27] REQ_SET(priority=0x10, entity_id=Tateeya (ID: 17051936/0x01043120), tag_num=0x2F)
414: 0x0FA5 [0x2B] Tateeya (ID: 17051936/0x01043120) [8079*]:
     "We did just as you asked, boss!"
415: 0x0FAC [0x29] REQ_SET_WAIT(priority=0x10, entity_id=Tateeya (ID: 17051936/0x01043120), tag_num=0x30)
416: 0x0FB3 [0x23] WAIT_FOR_DIALOG_INTERACTION
417: 0x0FB4 [0x27] REQ_SET(priority=0x10, entity_id=Tateeya (ID: 17051936/0x01043120), tag_num=0x31)
418: 0x0FBB [0x52] END_LOAD_SCHEDULER: End scheduler "s029" with entities [EventEntity, EventEntity], work=862*
419: 0x0FCA [0x45] LOAD_SCHEDULED_TASK: Load scheduler "s030" with entities [EventEntity, EventEntity], work=[862*, 0*]
420: 0x0FDB [0x27] REQ_SET(priority=0x10, entity_id=Abda-Lurabda (ID: 17051935/0x0104311F), tag_num=0x01)
421: 0x0FE2 [0x2B] Abda-Lurabda (ID: 17051935/0x0104311F) [8080*]:
     "Are you sure about this?"
422: 0x0FE9 [0x1C] WAIT(120* ticks)
423: 0x0FEC [0x23] WAIT_FOR_DIALOG_INTERACTION
424: 0x0FED [0x66] LOAD_EXT_SCHEDULER_MAIN: Load scheduler "tlk1" with entities [Abda-Lurabda (ID: 17051935/0x0104311F), Abda-Lurabda (ID: 17051935/0x0104311F)], work=40*
425: 0x0FFC [0x52] END_LOAD_SCHEDULER: End scheduler "s030" with entities [EventEntity, EventEntity], work=862*
426: 0x100B [0x45] LOAD_SCHEDULED_TASK: Load scheduler "s031" with entities [EventEntity, EventEntity], work=[862*, 0*]
427: 0x101C [0x6E] Tateeya (ID: 17051936/0x01043120) uses emote 6*
428: 0x1023 [0x99] Wait for Tateeya (ID: 17051936/0x01043120) animation to complete
429: 0x1028 [0x2B] Tateeya (ID: 17051936/0x01043120) [8081*]:
     "Master Rishfee here didn't even try to escape."
430: 0x102F [0x1C] WAIT(150* ticks)
431: 0x1032 [0x23] WAIT_FOR_DIALOG_INTERACTION
432: 0x1033 [0x52] END_LOAD_SCHEDULER: End scheduler "s031" with entities [EventEntity, EventEntity], work=862*
433: 0x1042 [0x45] LOAD_SCHEDULED_TASK: Load scheduler "s032" with entities [EventEntity, EventEntity], work=[862*, 0*]
434: 0x1053 [0x27] REQ_SET(priority=0x10, entity_id=Ghatsad (ID: 17051934/0x0104311E), tag_num=0x01)
435: 0x105A [0x2B] Ghatsad (ID: 17051934/0x0104311E) [8082*]:
     "That's because he wishes to obtain the Olduum staff for himself."
436: 0x1061 [0x29] REQ_SET_WAIT(priority=0x10, entity_id=Ghatsad (ID: 17051934/0x0104311E), tag_num=0x02)
437: 0x1068 [0x23] WAIT_FOR_DIALOG_INTERACTION
438: 0x1069 [0x27] REQ_SET(priority=0x10, entity_id=Ghatsad (ID: 17051934/0x0104311E), tag_num=0x03)
439: 0x1070 [0x79] Abda-Lurabda (ID: 17051935/0x0104311F) looks at Rishfee (ID: 17051887/0x010430EF) (Basic look)
440: 0x107A [0x79] Tateeya (ID: 17051936/0x01043120) looks at Rishfee (ID: 17051887/0x010430EF) (Basic look)
441: 0x1084 [0x5C] MUSIC_CONTROL: Set Idle (Day) music to song 27*
442: 0x1088 [0x5C] MUSIC_CONTROL: Set Idle (Night) music to song 27*
443: 0x108C [0x5C] MUSIC_CONTROL: Set Combat (Solo) music to song 27*
444: 0x1090 [0x5C] MUSIC_CONTROL: Set Combat (Party) music to song 27*
445: 0x1094 [0x9A] WAIT_MUSIC_SERVER()
446: 0x1095 [0x66] LOAD_EXT_SCHEDULER_MAIN: Load scheduler "tat0" with entities [Rishfee (ID: 17051887/0x010430EF), Rishfee (ID: 17051887/0x010430EF)], work=3*
447: 0x10A4 [0x6A] CHANGE_SOUND_VOLUME: Set (Effects)* volume to 999*, fade_time=1*
448: 0x10AB [0x52] END_LOAD_SCHEDULER: End scheduler "s032" with entities [EventEntity, EventEntity], work=862*
449: 0x10BA [0x45] LOAD_SCHEDULED_TASK: Load scheduler "blon" with entities [EventEntity, EventEntity], work=[862*, 0*]
450: 0x10CB [0x45] LOAD_SCHEDULED_TASK: Load scheduler "sa32" with entities [EventEntity, EventEntity], work=[862*, 0*]
451: 0x10DC [0x45] LOAD_SCHEDULED_TASK: Load scheduler "6071" with entities [EventEntity, EventEntity], work=[862*, 0*]
452: 0x10ED [0x1C] WAIT(60* ticks)
453: 0x10F0 [0x66] LOAD_EXT_SCHEDULER_MAIN: Load scheduler "uku0" with entities [Rishfee (ID: 17051887/0x010430EF), Rishfee (ID: 17051887/0x010430EF)], work=144*
454: 0x10FF [0xBB] LOAD_EVENT_SCHEDULER_ALT: Load scheduler "st02" with entities [Rishfee (ID: 17051887/0x010430EF), Rishfee (ID: 17051887/0x010430EF)], work=[210*, 0*]
455: 0x1110 [0xBB] LOAD_EVENT_SCHEDULER_ALT: Load scheduler "main" with entities [Rishfee (ID: 17051887/0x010430EF), Rishfee (ID: 17051887/0x010430EF)], work=[74*, 0*]
456: 0x1121 [0x1C] WAIT(60* ticks)
457: 0x1124 [0x7B] Abda-Lurabda (ID: 17051935/0x0104311F) stops talking
458: 0x1129 [0x7B] Tateeya (ID: 17051936/0x01043120) stops talking
459: 0x112E [0x6E] Abda-Lurabda (ID: 17051935/0x0104311F) uses emote 29*
460: 0x1135 [0x99] Wait for Abda-Lurabda (ID: 17051935/0x0104311F) animation to complete
461: 0x113A [0x6E] Tateeya (ID: 17051936/0x01043120) uses emote 21*
462: 0x1141 [0x99] Wait for Tateeya (ID: 17051936/0x01043120) animation to complete
463: 0x1146 [0x1C] WAIT(60* ticks)
464: 0x1149 [0xCD] LOAD_SCHEDULED_TASK_ALT4: Load scheduler 0xFEFEFE00 with entities [Rishfee (ID: 17051887/0x010430EF), Rishfee (ID: 17051887/0x010430EF)], work=[75*, 0*]
465: 0x115A [0x1A] CALL_SUBROUTINE(address=0x01B7)
466: 0x115D [0x66] LOAD_EXT_SCHEDULER_MAIN: Load scheduler "fyu0" with entities [Rishfee (ID: 17051887/0x010430EF), Rishfee (ID: 17051887/0x010430EF)], work=146*
467: 0x116C [0x6B] STOP_AND_IDLE: Rishfee (ID: 17051887/0x010430EF) stops current action and resets to idle (animation="idl0")
468: 0x1175 [0x59] UPDATE_ENTITY_DATA: Rishfee (ID: 17051887/0x010430EF)->Render.Flags0 |= 0x200000
469: 0x117C [0xBA] SET_ENTITY_POSITION(entity_id=Rishfee (ID: 17051887/0x010430EF), pos_x=234.715*, pos_z=245.327*, pos_y=-31.977*, direction=45.0*)
470: 0x1189 [0x1C] WAIT(60* ticks)
471: 0x118C [0x66] LOAD_EXT_SCHEDULER_MAIN: Load scheduler "fyu3" with entities [Rishfee (ID: 17051887/0x010430EF), Rishfee (ID: 17051887/0x010430EF)], work=213*
472: 0x119B [0x7A] VM_CONTROL: Reset VM for Abda-Lurabda (ID: 17051935/0x0104311F)
473: 0x11A1 [0x7A] VM_CONTROL: Reset VM for Tateeya (ID: 17051936/0x01043120)
474: 0x11A7 [0xBA] SET_ENTITY_POSITION(entity_id=Tateeya (ID: 17051936/0x01043120), pos_x=234.573*, pos_z=246.703*, pos_y=-30.944*, direction=61.5*)
475: 0x11B4 [0x52] END_LOAD_SCHEDULER: End scheduler "sa32" with entities [EventEntity, EventEntity], work=862*
476: 0x11C3 [0x45] LOAD_SCHEDULED_TASK: Load scheduler "s033" with entities [EventEntity, EventEntity], work=[862*, 0*]
477: 0x11D4 [0x1A] CALL_SUBROUTINE(address=0x0196)
478: 0x11D7 [0xD5] LOAD_EVENT_SCHEDULER_ALT8: Load scheduler "ki" with entities [Rishfee (ID: 17051887/0x010430EF), Rishfee (ID: 17051887/0x010430EF)], work=ExtData[1]->WorkLocal[1]
479: 0x11E8 [0xCD] LOAD_SCHEDULED_TASK_ALT4: Load scheduler "s002" with entities [Rishfee (ID: 17051887/0x010430EF), Rishfee (ID: 17051887/0x010430EF)], work=[75*, 0*]
480: 0x11F9 [0x2B] Rishfee (ID: 17051887/0x010430EF) [8083*]:
     "Hraaaaaah!"
481: 0x1200 [0x1C] WAIT(30* ticks)
482: 0x1203 [0x66] LOAD_EXT_SCHEDULER_MAIN: Load scheduler "ec01" with entities [Tateeya (ID: 17051936/0x01043120), Tateeya (ID: 17051936/0x01043120)], work=80*
483: 0x1212 [0x5B] LOAD_EXT_SCHEDULER: Load scheduler "fuk1" with entities [Abda-Lurabda (ID: 17051935/0x0104311F), Abda-Lurabda (ID: 17051935/0x0104311F)], work=441*
484: 0x1221 [0x1C] WAIT(60* ticks)
485: 0x1224 [0x7A] VM_CONTROL: Reset VM for Tateeya (ID: 17051936/0x01043120)
486: 0x122A [0xBA] SET_ENTITY_POSITION(entity_id=Tateeya (ID: 17051936/0x01043120), pos_x=230.969*, pos_z=252.583*, pos_y=-31.035*, direction=0.0*)
487: 0x1237 [0x5B] LOAD_EXT_SCHEDULER: Load scheduler "dwn0" with entities [Tateeya (ID: 17051936/0x01043120), Tateeya (ID: 17051936/0x01043120)], work=1358*
488: 0x1246 [0x1C] WAIT(60* ticks)
489: 0x1249 [0x23] WAIT_FOR_DIALOG_INTERACTION
490: 0x124A [0x52] END_LOAD_SCHEDULER: End scheduler "s033" with entities [EventEntity, EventEntity], work=862*
491: 0x1259 [0x45] LOAD_SCHEDULED_TASK: Load scheduler "sa34" with entities [EventEntity, EventEntity], work=[862*, 0*]
492: 0x126A [0x27] REQ_SET(priority=0x10, entity_id=Rishfee (ID: 17051887/0x010430EF), tag_num=0x18)
493: 0x1271 [0x66] LOAD_EXT_SCHEDULER_MAIN: Load scheduler "fyu0" with entities [Rishfee (ID: 17051887/0x010430EF), Rishfee (ID: 17051887/0x010430EF)], work=146*
494: 0x1280 [0x1C] WAIT(180* ticks)
495: 0x1283 [0x52] END_LOAD_SCHEDULER: End scheduler "sa34" with entities [EventEntity, EventEntity], work=862*
496: 0x1292 [0x45] LOAD_SCHEDULED_TASK: Load scheduler "blof" with entities [EventEntity, EventEntity], work=[862*, 0*]
497: 0x12A3 [0x45] LOAD_SCHEDULED_TASK: Load scheduler "s034" with entities [EventEntity, EventEntity], work=[862*, 0*]
498: 0x12B4 [0x66] LOAD_EXT_SCHEDULER_MAIN: Load scheduler "mae0" with entities [Rishfee (ID: 17051887/0x010430EF), Rishfee (ID: 17051887/0x010430EF)], work=214*
499: 0x12C3 [0x79] Ghatsad (ID: 17051934/0x0104311E) looks at Rishfee (ID: 17051887/0x010430EF) (Basic look)
500: 0x12CD [0x79] LocalPlayer looks at Rishfee (ID: 17051887/0x010430EF) (Basic look)
501: 0x12D7 [0x5B] LOAD_EXT_SCHEDULER: Load scheduler "hi00" with entities [Sikool Ja (ID: 17051939/0x01043123), Sikool Ja (ID: 17051939/0x01043123)], work=828*
502: 0x12E6 [0x2B] Sikool Ja (ID: 17051939/0x01043123) [8084*]:
     "Grrr! Impossible! An Immortal, is that man!?"
503: 0x12ED [0x1C] WAIT(120* ticks)
504: 0x12F0 [0x23] WAIT_FOR_DIALOG_INTERACTION
505: 0x12F1 [0x5B] LOAD_EXT_SCHEDULER: Load scheduler "hi01" with entities [Sikool Ja (ID: 17051939/0x01043123), Sikool Ja (ID: 17051939/0x01043123)], work=828*
506: 0x1300 [0x2C] CREATE_SCHEDULER_TASK: Create scheduler "corp" with entities [Abda-Lurabda (ID: 17051935/0x0104311F), Abda-Lurabda (ID: 17051935/0x0104311F)]
507: 0x130D [0xBA] SET_ENTITY_POSITION(entity_id=Abda-Lurabda (ID: 17051935/0x0104311F), pos_x=229.181*, pos_z=249.367*, pos_y=-30.989*, direction=45.0*)
508: 0x131A [0x52] END_LOAD_SCHEDULER: End scheduler "s034" with entities [EventEntity, EventEntity], work=862*
509: 0x1329 [0x45] LOAD_SCHEDULED_TASK: Load scheduler "sb34" with entities [EventEntity, EventEntity], work=[862*, 0*]
510: 0x133A [0x27] REQ_SET(priority=0x10, entity_id=Abda-Lurabda (ID: 17051935/0x0104311F), tag_num=0x39)
511: 0x1341 [0x29] REQ_SET_WAIT(priority=0x10, entity_id=Abda-Lurabda (ID: 17051935/0x0104311F), tag_num=0x3A)
512: 0x1348 [0x52] END_LOAD_SCHEDULER: End scheduler "sb34" with entities [EventEntity, EventEntity], work=862*
513: 0x1357 [0x45] LOAD_SCHEDULED_TASK: Load scheduler "sc34" with entities [EventEntity, EventEntity], work=[862*, 0*]
514: 0x1368 [0x5B] LOAD_EXT_SCHEDULER: Load scheduler "dwn1" with entities [Tateeya (ID: 17051936/0x01043120), Tateeya (ID: 17051936/0x01043120)], work=1358*
515: 0x1377 [0x1C] WAIT(180* ticks)
516: 0x137A [0x52] END_LOAD_SCHEDULER: End scheduler "sc34" with entities [EventEntity, EventEntity], work=862*
517: 0x1389 [0x45] LOAD_SCHEDULED_TASK: Load scheduler "s035" with entities [EventEntity, EventEntity], work=[862*, 0*]
518: 0x139A [0x66] LOAD_EXT_SCHEDULER_MAIN: Load scheduler "mae1" with entities [Rishfee (ID: 17051887/0x010430EF), Rishfee (ID: 17051887/0x010430EF)], work=214*
519: 0x13A9 [0x1C] WAIT(120* ticks)
520: 0x13AC [0xCD] LOAD_SCHEDULED_TASK_ALT4: Load scheduler "s000" with entities [Rishfee (ID: 17051887/0x010430EF), Rishfee (ID: 17051887/0x010430EF)], work=[27*, 0*]
521: 0x13BD [0x1C] WAIT(210* ticks)
522: 0x13C0 [0x52] END_LOAD_SCHEDULER: End scheduler "s035" with entities [EventEntity, EventEntity], work=862*
523: 0x13CF [0x45] LOAD_SCHEDULED_TASK: Load scheduler "s036" with entities [EventEntity, EventEntity], work=[862*, 0*]
524: 0x13E0 [0x81] SET_ENTITY_BLINKING(blink_flag=0x00, entity=Rishfee (ID: 17051887/0x010430EF))
525: 0x13E6 [0x45] LOAD_SCHEDULED_TASK: Load scheduler "6172" with entities [EventEntity, EventEntity], work=[862*, 0*]
526: 0x13F7 [0xCD] LOAD_SCHEDULED_TASK_ALT4: Load scheduler "mem1" with entities [EventEntity, EventEntity], work=[103*, 0*]
527: 0x1408 [0x9F] LOAD_SCHEDULED_TASK_ALT: Load scheduler "main" with entities [EventEntity, EventEntity], work=[208*, 0*]
528: 0x1419 [0x1C] WAIT(180* ticks)
529: 0x141C [0xCD] LOAD_SCHEDULED_TASK_ALT4: Load scheduler "klm0" with entities [EventEntity, EventEntity], work=[103*, 0*]
530: 0x142D [0xCD] LOAD_SCHEDULED_TASK_ALT4: Load scheduler "kill" with entities [Rishfee (ID: 17051887/0x010430EF), Rishfee (ID: 17051887/0x010430EF)], work=[27*, 0*]
531: 0x143E [0x81] SET_ENTITY_BLINKING(blink_flag=0x01, entity=Rishfee (ID: 17051887/0x010430EF))
532: 0x1444 [0x52] END_LOAD_SCHEDULER: End scheduler "s036" with entities [EventEntity, EventEntity], work=862*
533: 0x1453 [0x45] LOAD_SCHEDULED_TASK: Load scheduler "s037" with entities [EventEntity, EventEntity], work=[862*, 0*]
534: 0x1464 [0x7C] Ghatsad (ID: 17051934/0x0104311E)->Render.Flags2 |= 0x00
535: 0x146A [0x2B] Ghatsad (ID: 17051934/0x0104311E) [8085*]:
     "Huh!?"
536: 0x1471 [0x23] WAIT_FOR_DIALOG_INTERACTION
537: 0x1472 [0x7C] Ghatsad (ID: 17051934/0x0104311E)->Render.Flags2 |= 0x01
538: 0x1478 [0x1C] WAIT(90* ticks)
539: 0x147B [0x52] END_LOAD_SCHEDULER: End scheduler "s037" with entities [EventEntity, EventEntity], work=862*
540: 0x148A [0x45] LOAD_SCHEDULED_TASK: Load scheduler "s038" with entities [EventEntity, EventEntity], work=[862*, 0*]
541: 0x149B [0x5B] LOAD_EXT_SCHEDULER: Load scheduler "osa0" with entities [Sikool Ja (ID: 17051939/0x01043123), Sikool Ja (ID: 17051939/0x01043123)], work=816*
542: 0x14AA [0xBB] LOAD_EVENT_SCHEDULER_ALT: Load scheduler "s002" with entities [Rishfee (ID: 17051887/0x010430EF), Rishfee (ID: 17051887/0x010430EF)], work=[101*, 0*]
543: 0x14BB [0x66] LOAD_EXT_SCHEDULER_MAIN: Load scheduler "shk0" with entities [Abda-Lurabda (ID: 17051935/0x0104311F), Abda-Lurabda (ID: 17051935/0x0104311F)], work=41*
544: 0x14CA [0x2B] Abda-Lurabda (ID: 17051935/0x0104311F) [8086*]:
     "Yikes!"
545: 0x14D1 [0x23] WAIT_FOR_DIALOG_INTERACTION
546: 0x14D2 [0x1C] WAIT(90* ticks)
547: 0x14D5 [0x52] END_LOAD_SCHEDULER: End scheduler "s038" with entities [EventEntity, EventEntity], work=862*
548: 0x14E4 [0x45] LOAD_SCHEDULED_TASK: Load scheduler "s039" with entities [EventEntity, EventEntity], work=[862*, 0*]
