# 17051866 - Wahboud

## Common Data

| Field            | Value                   |
|------------------|-------------------------|
| Zone             | Jade Sepulcher (ID: 67) |
| Block Size       | 428 bytes               |
| Total Events     | 13                      |
| References Count | 41                      |

## List of Events

| Event ID                   | Entrypoint   |   Size |   Instructions |
|----------------------------|--------------|--------|----------------|
| [65535](#event-65535)      | 0x0000       |      1 |              1 |
| [3](#event-3)              | 0x0001       |      1 |              1 |
| [65535.1](#event-655351)   | 0x0002       |     15 |              3 |
| [65535.2](#event-655352)   | 0x0011       |     24 |              3 |
| [65535.3](#event-655353)   | 0x0029       |     22 |              3 |
| [32001](#event-32001)      | 0x003F       |      1 |              1 |
| [65535.4](#event-655354)   | 0x0040       |     15 |              3 |
| [65535.5](#event-655355)   | 0x004F       |     19 |              5 |
| [65535.6](#event-655356)   | 0x0062       |     32 |              8 |
| [65535.7](#event-655357)   | 0x0082       |     19 |              5 |
| [65535.8](#event-655358)   | 0x0095       |     15 |              3 |
| [65535.9](#event-655359)   | 0x00A4       |     15 |              3 |
| [65535.10](#event-6553510) | 0x00B3       |     15 |              3 |

## DAT References (imed_data)

|   Index | Hex Value   |   Dec Value |
|---------|-------------|-------------|
|       0 | 0xFFFFB6E6  |  4294948582 |
|       1 | 0xFFFC973C  |  4294743868 |
|       2 | 0x13C9      |        5065 |
|       3 | 0x00ED      |         237 |
|       4 | 0x0000      |           0 |
|       5 | 0x0003      |           3 |
|       6 | 0x0005      |           5 |
|       7 | 0x000F      |          15 |
|       8 | 0x010E      |         270 |
|       9 | 0x0001      |           1 |
|      10 | 0x0010      |          16 |
|      11 | 0x3761C     |      226844 |
|      12 | 0x3D24D     |      250445 |
|      13 | 0xFFFF86B1  |  4294936241 |
|      14 | 0x023F      |         575 |
|      15 | 0x0028      |          40 |
|      16 | 0x383B0     |      230320 |
|      17 | 0x3C789     |      247689 |
|      18 | 0xFFFF88CA  |  4294936778 |
|      19 | 0x3A471     |      238705 |
|      20 | 0x3B6D5     |      243413 |
|      21 | 0xFFFF85C1  |  4294936001 |
|      22 | 0x3AB1B     |      240411 |
|      23 | 0x3ADE9     |      241129 |
|      24 | 0xFFFF84F4  |  4294935796 |
|      25 | 0x003C      |          60 |
|      26 | 0x3A756     |      239446 |
|      27 | 0x39B21     |      236321 |
|      28 | 0xFFFF85E8  |  4294936040 |
|      29 | 0xFFFF95A1  |  4294940065 |
|      30 | 0x6C39      |       27705 |
|      31 | 0xFFFFE891  |  4294961297 |
|      32 | 0x016B      |         363 |
|      33 | 0x3A766     |      239462 |
|      34 | 0x39F00     |      237312 |
|      35 | 0xFFFF8553  |  4294935891 |
|      36 | 0x0575      |        1397 |
|      37 | 0x39DC2     |      236994 |
|      38 | 0x3A777     |      239479 |
|      39 | 0xFFFF8583  |  4294935939 |
|      40 | 0x0929      |        2345 |

## Events

### Event 65535

#### Metadata

| Field        | Value   |
|--------------|---------|
| Entrypoint   | 0x0000  |
| Data Size    | 1 bytes |
| Instructions | 1       |

```
      00 01 02 03 04 05 06 07  08 09 0A 0B 0C 0D 0E 0F
      -- -- -- -- -- -- -- --  -- -- -- -- -- -- -- --
0000: 00                                                .               
```

#### Opcodes

```
  0: 0x0000 [0x00] END_REQSTACK()
```

### Event 3

#### Metadata

| Field        | Value   |
|--------------|---------|
| Entrypoint   | 0x0001  |
| Data Size    | 1 bytes |
| Instructions | 1       |

```
      00 01 02 03 04 05 06 07  08 09 0A 0B 0C 0D 0E 0F
      -- -- -- -- -- -- -- --  -- -- -- -- -- -- -- --
0000:    00                                              .              
```

#### Opcodes

```
  0: 0x0001 [0x00] END_REQSTACK()
```

### Event 65535.1

#### Metadata

| Field        | Value    |
|--------------|----------|
| Entrypoint   | 0x0002   |
| Data Size    | 15 bytes |
| Instructions | 3        |

```
      00 01 02 03 04 05 06 07  08 09 0A 0B 0C 0D 0E 0F
      -- -- -- -- -- -- -- --  -- -- -- -- -- -- -- --
0000:       37 00 80 01 80 02  80 03 80 80 F8 FF FF 7F    7.............
0010: 00                                                .               
```

#### Opcodes

```
  0: 0x0002 [0x37] UPDATE_EVENT_POSITION_AND_DIR: x=-18.714*, z=-223.428*, y=5.065*, direction=20.8°*
  1: 0x000B [0x80] LOAD_WAIT(entity=EventEntity)
  2: 0x0010 [0x00] END_REQSTACK()
```

### Event 65535.2

#### Metadata

| Field        | Value    |
|--------------|----------|
| Entrypoint   | 0x0011   |
| Data Size    | 24 bytes |
| Instructions | 3        |

```
      00 01 02 03 04 05 06 07  08 09 0A 0B 0C 0D 0E 0F
      -- -- -- -- -- -- -- --  -- -- -- -- -- -- -- --
0010:    95 04 80 B6 0B 05 80  06 80 04 80 07 80 07 80   ...............
0020: 07 80 07 80 08 80 04 80  00                       .........       
```

#### Opcodes

```
  0: 0x0011 [0x95] SETUP_EVENT_NPC: Prepare NPC for event (Render.Flags3 = 0*)
  1: 0x0014 [0xB6] ENTITY_APPEARANCE_HANDLER(case=Full entity look, race=3*, hair=5*, head=0*, body=15*, hands=15*, legs=15*, feet=15*, main=270*, sub=0*)
  2: 0x0028 [0x00] END_REQSTACK()
```

### Event 65535.3

#### Metadata

| Field        | Value    |
|--------------|----------|
| Entrypoint   | 0x0029   |
| Data Size    | 22 bytes |
| Instructions | 3        |

```
      00 01 02 03 04 05 06 07  08 09 0A 0B 0C 0D 0E 0F
      -- -- -- -- -- -- -- --  -- -- -- -- -- -- -- --
0020:                             96 B6 0B 09 80 04 80           .......
0030: 04 80 0A 80 0A 80 0A 80  0A 80 04 80 04 80 00     ............... 
```

#### Opcodes

```
  0: 0x0029 [0x96] UNSET_EVENT_NPC: Restore NPC after event (removes event NPC status)
  1: 0x002A [0xB6] ENTITY_APPEARANCE_HANDLER(case=Full entity look, race=1*, hair=0*, head=0*, body=16*, hands=16*, legs=16*, feet=16*, main=0*, sub=0*)
  2: 0x003E [0x00] END_REQSTACK()
```

### Event 32001

#### Metadata

| Field        | Value   |
|--------------|---------|
| Entrypoint   | 0x003F  |
| Data Size    | 1 bytes |
| Instructions | 1       |

```
      00 01 02 03 04 05 06 07  08 09 0A 0B 0C 0D 0E 0F
      -- -- -- -- -- -- -- --  -- -- -- -- -- -- -- --
0030:                                               00                 .
```

#### Opcodes

```
  0: 0x003F [0x00] END_REQSTACK()
```

### Event 65535.4

#### Metadata

| Field        | Value    |
|--------------|----------|
| Entrypoint   | 0x0040   |
| Data Size    | 15 bytes |
| Instructions | 3        |

```
      00 01 02 03 04 05 06 07  08 09 0A 0B 0C 0D 0E 0F
      -- -- -- -- -- -- -- --  -- -- -- -- -- -- -- --
0040: 37 0B 80 0C 80 0D 80 0E  80 80 F8 FF FF 7F 00     7.............. 
```

#### Opcodes

```
  0: 0x0040 [0x37] UPDATE_EVENT_POSITION_AND_DIR: x=226.844*, z=250.445*, y=-31.055*, direction=50.5°*
  1: 0x0049 [0x80] LOAD_WAIT(entity=EventEntity)
  2: 0x004E [0x00] END_REQSTACK()
```

### Event 65535.5

#### Metadata

| Field        | Value    |
|--------------|----------|
| Entrypoint   | 0x004F   |
| Data Size    | 19 bytes |
| Instructions | 5        |

```
      00 01 02 03 04 05 06 07  08 09 0A 0B 0C 0D 0E 0F
      -- -- -- -- -- -- -- --  -- -- -- -- -- -- -- --
0040:                                               32                 2
0050: 0F 80 1F 00 10 80 11 80  12 80 1F 01 1E E0 30 04  ..............0.
0060: 01 00                                             ..              
```

#### Opcodes

```
  0: 0x004F [0x32] ExtData[1]->MainSpeed = 40* * 0.1
  1: 0x0052 [0x1F] MOVE_ENTITY: EventEntity moves to X=230.320*, Z=247.689*, Y=-30.518*
  2: 0x005A [0x1F] MOVE_ENTITY: Update entity position (mode=1)
  3: 0x005C [0x1E] EventEntity looks at Mishhar (ID: 17051872/0x010430E0) and starts talking
  4: 0x0061 [0x00] END_REQSTACK()
```

### Event 65535.6

#### Metadata

| Field        | Value    |
|--------------|----------|
| Entrypoint   | 0x0062   |
| Data Size    | 32 bytes |
| Instructions | 8        |

```
      00 01 02 03 04 05 06 07  08 09 0A 0B 0C 0D 0E 0F
      -- -- -- -- -- -- -- --  -- -- -- -- -- -- -- --
0060:       32 0F 80 1F 00 13  80 14 80 15 80 1F 01 1F    2.............
0070: 00 16 80 17 80 18 80 1F  01 1E E0 30 04 01 1C 19  ...........0....
0080: 80 00                                             ..              
```

#### Opcodes

```
  0: 0x0062 [0x32] ExtData[1]->MainSpeed = 40* * 0.1
  1: 0x0065 [0x1F] MOVE_ENTITY: EventEntity moves to X=238.705*, Z=243.413*, Y=-31.295*
  2: 0x006D [0x1F] MOVE_ENTITY: Update entity position (mode=1)
  3: 0x006F [0x1F] MOVE_ENTITY: EventEntity moves to X=240.411*, Z=241.129*, Y=-31.500*
  4: 0x0077 [0x1F] MOVE_ENTITY: Update entity position (mode=1)
  5: 0x0079 [0x1E] EventEntity looks at Mishhar (ID: 17051872/0x010430E0) and starts talking
  6: 0x007E [0x1C] WAIT(60* ticks)
  7: 0x0081 [0x00] END_REQSTACK()
```

### Event 65535.7

#### Metadata

| Field        | Value    |
|--------------|----------|
| Entrypoint   | 0x0082   |
| Data Size    | 19 bytes |
| Instructions | 5        |

```
      00 01 02 03 04 05 06 07  08 09 0A 0B 0C 0D 0E 0F
      -- -- -- -- -- -- -- --  -- -- -- -- -- -- -- --
0080:       32 0F 80 1F 00 1A  80 1B 80 1C 80 1F 01 1E    2.............
0090: DB 30 04 01 00                                    .0...           
```

#### Opcodes

```
  0: 0x0082 [0x32] ExtData[1]->MainSpeed = 40* * 0.1
  1: 0x0085 [0x1F] MOVE_ENTITY: EventEntity moves to X=239.446*, Z=236.321*, Y=-31.256*
  2: 0x008D [0x1F] MOVE_ENTITY: Update entity position (mode=1)
  3: 0x008F [0x1E] EventEntity looks at Harbuhl (ID: 17051867/0x010430DB) and starts talking
  4: 0x0094 [0x00] END_REQSTACK()
```

### Event 65535.8

#### Metadata

| Field        | Value    |
|--------------|----------|
| Entrypoint   | 0x0095   |
| Data Size    | 15 bytes |
| Instructions | 3        |

```
      00 01 02 03 04 05 06 07  08 09 0A 0B 0C 0D 0E 0F
      -- -- -- -- -- -- -- --  -- -- -- -- -- -- -- --
0090:                37 1D 80  1E 80 1F 80 20 80 80 F8       7...... ...
00A0: FF FF 7F 00                                       ....            
```

#### Opcodes

```
  0: 0x0095 [0x37] UPDATE_EVENT_POSITION_AND_DIR: x=-27.231*, z=27.705*, y=-5.999*, direction=31.9°*
  1: 0x009E [0x80] LOAD_WAIT(entity=EventEntity)
  2: 0x00A3 [0x00] END_REQSTACK()
```

### Event 65535.9

#### Metadata

| Field        | Value    |
|--------------|----------|
| Entrypoint   | 0x00A4   |
| Data Size    | 15 bytes |
| Instructions | 3        |

```
      00 01 02 03 04 05 06 07  08 09 0A 0B 0C 0D 0E 0F
      -- -- -- -- -- -- -- --  -- -- -- -- -- -- -- --
00A0:             37 21 80 22  80 23 80 24 80 80 F8 FF      7!.".#.$....
00B0: FF 7F 00                                          ...             
```

#### Opcodes

```
  0: 0x00A4 [0x37] UPDATE_EVENT_POSITION_AND_DIR: x=239.462*, z=237.312*, y=-31.405*, direction=122.8°*
  1: 0x00AD [0x80] LOAD_WAIT(entity=EventEntity)
  2: 0x00B2 [0x00] END_REQSTACK()
```

### Event 65535.10

#### Metadata

| Field        | Value    |
|--------------|----------|
| Entrypoint   | 0x00B3   |
| Data Size    | 15 bytes |
| Instructions | 3        |

```
      00 01 02 03 04 05 06 07  08 09 0A 0B 0C 0D 0E 0F
      -- -- -- -- -- -- -- --  -- -- -- -- -- -- -- --
00B0:          37 25 80 26 80  27 80 28 80 80 F8 FF FF     7%.&.'.(.....
00C0: 7F 00                                             ..              
```

#### Opcodes

```
  0: 0x00B3 [0x37] UPDATE_EVENT_POSITION_AND_DIR: x=236.994*, z=239.479*, y=-31.357*, direction=206.1°*
  1: 0x00BC [0x80] LOAD_WAIT(entity=EventEntity)
  2: 0x00C1 [0x00] END_REQSTACK()
```
