# 17051909

## Common Data

| Field            | Value                   |
|------------------|-------------------------|
| Zone             | Jade Sepulcher (ID: 67) |
| Block Size       | 196 bytes               |
| Total Events     | 7                       |
| References Count | 14                      |

## List of Events

| Event ID                 | Entrypoint   |   Size |   Instructions |
|--------------------------|--------------|--------|----------------|
| [65535](#event-65535)    | 0x0000       |      1 |              1 |
| [32001](#event-32001)    | 0x0001       |      1 |              1 |
| [65535.1](#event-655351) | 0x0002       |     21 |              4 |
| [65535.2](#event-655352) | 0x0017       |     31 |              9 |
| [65535.3](#event-655353) | 0x0036       |     36 |              9 |
| [65535.4](#event-655354) | 0x005A       |      1 |              1 |
| [65535.5](#event-655355) | 0x005B       |      3 |              2 |

## DAT References (imed_data)

|   Index | Hex Value   |   Dec Value |
|---------|-------------|-------------|
|       0 | 0x3C925     |      248101 |
|       1 | 0x398CE     |      235726 |
|       2 | 0xFFFF86F3  |  4294936307 |
|       3 | 0x0187      |         391 |
|       4 | 0x0028      |          40 |
|       5 | 0x3C3A8     |      246696 |
|       6 | 0x39283     |      234115 |
|       7 | 0xFFFF8776  |  4294936438 |
|       8 | 0x0005      |           5 |
|       9 | 0x3D6B1     |      251569 |
|      10 | 0x38F5F     |      233311 |
|      11 | 0xFFFF8856  |  4294936662 |
|      12 | 0x0186      |         390 |
|      13 | 0x000B      |          11 |

## Events

### Event 65535

#### Metadata

| Field        | Value   |
|--------------|---------|
| Entrypoint   | 0x0000  |
| Data Size    | 1 bytes |
| Instructions | 1       |

```
      00 01 02 03 04 05 06 07  08 09 0A 0B 0C 0D 0E 0F
      -- -- -- -- -- -- -- --  -- -- -- -- -- -- -- --
0000: 00                                                .               
```

#### Opcodes

```
  0: 0x0000 [0x00] END_REQSTACK()
```

### Event 32001

#### Metadata

| Field        | Value   |
|--------------|---------|
| Entrypoint   | 0x0001  |
| Data Size    | 1 bytes |
| Instructions | 1       |

```
      00 01 02 03 04 05 06 07  08 09 0A 0B 0C 0D 0E 0F
      -- -- -- -- -- -- -- --  -- -- -- -- -- -- -- --
0000:    00                                              .              
```

#### Opcodes

```
  0: 0x0001 [0x00] END_REQSTACK()
```

### Event 65535.1

#### Metadata

| Field        | Value    |
|--------------|----------|
| Entrypoint   | 0x0002   |
| Data Size    | 21 bytes |
| Instructions | 4        |

```
      00 01 02 03 04 05 06 07  08 09 0A 0B 0C 0D 0E 0F
      -- -- -- -- -- -- -- --  -- -- -- -- -- -- -- --
0000:       37 00 80 01 80 02  80 03 80 1E D3 30 04 01    7..........0..
0010: 4E 00 05 31 04 01 00                              N..1...         
```

#### Opcodes

```
  0: 0x0002 [0x37] UPDATE_EVENT_POSITION_AND_DIR: x=248.101*, z=235.726*, y=-30.989*, direction=34.4°*
  1: 0x000B [0x1E] EventEntity looks at ??? (ID: 17051859/0x010430D3) and starts talking
  2: 0x0010 [0x4E] SET_ENTITY_HIDE_FLAG: Show Unnamed NPC (ID: 17051909/0x01043105)
  3: 0x0016 [0x00] END_REQSTACK()
```

### Event 65535.2

#### Metadata

| Field        | Value    |
|--------------|----------|
| Entrypoint   | 0x0017   |
| Data Size    | 31 bytes |
| Instructions | 9        |

```
      00 01 02 03 04 05 06 07  08 09 0A 0B 0C 0D 0E 0F
      -- -- -- -- -- -- -- --  -- -- -- -- -- -- -- --
0010:                      4E  00 05 31 04 01 1E EF 30         N..1....0
0020: 04 01 32 04 80 61 00 1F  00 05 80 06 80 07 80 1F  ..2..a..........
0030: 01 6F 1C 08 80 00                                 .o....          
```

#### Opcodes

```
  0: 0x0017 [0x4E] SET_ENTITY_HIDE_FLAG: Show Unnamed NPC (ID: 17051909/0x01043105)
  1: 0x001D [0x1E] EventEntity looks at Rishfee (ID: 17051887/0x010430EF) and starts talking
  2: 0x0022 [0x32] ExtData[1]->MainSpeed = 40* * 0.1
  3: 0x0025 [0x61] EventEntity->Render.Flags2 &= ~0x00000001
  4: 0x0027 [0x1F] MOVE_ENTITY: EventEntity moves to X=246.696*, Z=234.115*, Y=-30.858*
  5: 0x002F [0x1F] MOVE_ENTITY: Update entity position (mode=1)
  6: 0x0031 [0x6F] WAIT_FRAME_DELAY: Yield until WaitTime reaches zero
  7: 0x0032 [0x1C] WAIT(5* ticks)
  8: 0x0035 [0x00] END_REQSTACK()
```

### Event 65535.3

#### Metadata

| Field        | Value    |
|--------------|----------|
| Entrypoint   | 0x0036   |
| Data Size    | 36 bytes |
| Instructions | 9        |

```
      00 01 02 03 04 05 06 07  08 09 0A 0B 0C 0D 0E 0F
      -- -- -- -- -- -- -- --  -- -- -- -- -- -- -- --
0030:                   1E D3  30 04 01 37 09 80 0A 80        ..0..7....
0040: 0B 80 0C 80 32 0D 80 61  01 1F 00 00 80 01 80 02  ....2..a........
0050: 80 1F 01 6F 1E D3 30 04  01 00                    ...o..0...      
```

#### Opcodes

```
  0: 0x0036 [0x1E] EventEntity looks at ??? (ID: 17051859/0x010430D3) and starts talking
  1: 0x003B [0x37] UPDATE_EVENT_POSITION_AND_DIR: x=251.569*, z=233.311*, y=-30.634*, direction=34.3°*
  2: 0x0044 [0x32] ExtData[1]->MainSpeed = 11* * 0.1
  3: 0x0047 [0x61] EventEntity->Render.Flags2 |= 0x00000001
  4: 0x0049 [0x1F] MOVE_ENTITY: EventEntity moves to X=248.101*, Z=235.726*, Y=-30.989*
  5: 0x0051 [0x1F] MOVE_ENTITY: Update entity position (mode=1)
  6: 0x0053 [0x6F] WAIT_FRAME_DELAY: Yield until WaitTime reaches zero
  7: 0x0054 [0x1E] EventEntity looks at ??? (ID: 17051859/0x010430D3) and starts talking
  8: 0x0059 [0x00] END_REQSTACK()
```

### Event 65535.4

#### Metadata

| Field        | Value   |
|--------------|---------|
| Entrypoint   | 0x005A  |
| Data Size    | 1 bytes |
| Instructions | 1       |

```
      00 01 02 03 04 05 06 07  08 09 0A 0B 0C 0D 0E 0F
      -- -- -- -- -- -- -- --  -- -- -- -- -- -- -- --
0050:                                00                           .     
```

#### Opcodes

```
  0: 0x005A [0x00] END_REQSTACK()
```

### Event 65535.5

#### Metadata

| Field        | Value   |
|--------------|---------|
| Entrypoint   | 0x005B  |
| Data Size    | 3 bytes |
| Instructions | 2       |

```
      00 01 02 03 04 05 06 07  08 09 0A 0B 0C 0D 0E 0F
      -- -- -- -- -- -- -- --  -- -- -- -- -- -- -- --
0050:                                   61 01 00                   a..  
```

#### Opcodes

```
  0: 0x005B [0x61] EventEntity->Render.Flags2 |= 0x00000001
  1: 0x005D [0x00] END_REQSTACK()
```
