# 0x7FFFFFF0 - Zone Events

## Common Data

| Field            | Value                   |
|------------------|-------------------------|
| Zone             | Jade Sepulcher (ID: 67) |
| Block Size       | 31704 bytes             |
| Total Events     | 29                      |
| References Count | 820                     |

## List of Events

| Event ID                   | Entrypoint   |   Size |   Instructions |
|----------------------------|--------------|--------|----------------|
| [65535](#event-65535)      | 0x0000       |      1 |              1 |
| [65534](#event-65534)      | 0x0001       |      1 |              1 |
| [32000](#event-32000)      | 0x0002       |   2116 |            412 |
| [32002](#event-32002)      | 0x0846       |    494 |             83 |
| [32001](#event-32001)      | 0x0A34       |   1049 |            182 |
| [32003](#event-32003)      | 0x0E4D       |    435 |             77 |
| [32004](#event-32004)      | 0x1000       |  23365 |           2770 |
| [65535.1](#event-655351)   | 0x6B45       |     10 |              2 |
| [65535.2](#event-655352)   | 0x6B4F       |     14 |              4 |
| [65535.3](#event-655353)   | 0x6B5D       |      1 |              1 |
| [65535.4](#event-655354)   | 0x6B5E       |     19 |              5 |
| [65535.5](#event-655355)   | 0x6B71       |     19 |              5 |
| [65535.6](#event-655356)   | 0x6B84       |     10 |              2 |
| [65535.7](#event-655357)   | 0x6B8E       |     15 |              3 |
| [65535.8](#event-655358)   | 0x6B9D       |     10 |              2 |
| [65535.9](#event-655359)   | 0x6BA7       |     29 |              7 |
| [65535.10](#event-6553510) | 0x6BC4       |      7 |              3 |
| [65535.11](#event-6553511) | 0x6BCB       |      7 |              3 |
| [65535.12](#event-6553512) | 0x6BD2       |      6 |              2 |
| [65535.13](#event-6553513) | 0x6BD8       |     36 |              4 |
| [65535.14](#event-6553514) | 0x6BFC       |     37 |              5 |
| [65535.15](#event-6553515) | 0x6C21       |    185 |             37 |
| [65535.16](#event-6553516) | 0x6CDA       |    353 |             41 |
| [65535.17](#event-6553517) | 0x6E3B       |     14 |              4 |
| [65535.18](#event-6553518) | 0x6E49       |     24 |              6 |
| [65535.19](#event-6553519) | 0x6E61       |     14 |              4 |
| [65535.20](#event-6553520) | 0x6E6F       |      7 |              3 |
| [65535.21](#event-6553521) | 0x6E76       |      7 |              3 |
| [65535.22](#event-6553522) | 0x6E7D       |      4 |              2 |

## DAT References (imed_data)

|   Index | Hex Value   |   Dec Value |
|---------|-------------|-------------|
|       0 | 0x0000      |           0 |
|       1 | 0x000F      |          15 |
|       2 | 0x0010      |          16 |
|       3 | 0x001F      |          31 |
|       4 | 0xFFFFFFFF  |  4294967295 |
|       5 | 0x0001      |           1 |
|       6 | 0x1E1A      |        7706 |
|       7 | 0x1E0D      |        7693 |
|       8 | 0x0005      |           5 |
|       9 | 0x0002      |           2 |
|      10 | 0x0003      |           3 |
|      11 | 0x0004      |           4 |
|      12 | 0x1C9F      |        7327 |
|      13 | 0x00FF      |         255 |
|      14 | 0x00C8      |         200 |
|      15 | 0x0013      |          19 |
|      16 | 0x0008      |           8 |
|      17 | 0x0009      |           9 |
|      18 | 0x000B      |          11 |
|      19 | 0x1CAA      |        7338 |
|      20 | 0x1CAB      |        7339 |
|      21 | 0x1CAC      |        7340 |
|      22 | 0x1CAD      |        7341 |
|      23 | 0x1CD1      |        7377 |
|      24 | 0x0006      |           6 |
|      25 | 0x0007      |           7 |
|      26 | 0x0012      |          18 |
|      27 | 0x000A      |          10 |
|      28 | 0x000C      |          12 |
|      29 | 0x000D      |          13 |
|      30 | 0x000E      |          14 |
|      31 | 0x0011      |          17 |
|      32 | 0x0014      |          20 |
|      33 | 0x0015      |          21 |
|      34 | 0x0016      |          22 |
|      35 | 0x0017      |          23 |
|      36 | 0x0018      |          24 |
|      37 | 0x0019      |          25 |
|      38 | 0x001A      |          26 |
|      39 | 0x001B      |          27 |
|      40 | 0x001C      |          28 |
|      41 | 0x001D      |          29 |
|      42 | 0x001E      |          30 |
|      43 | 0x1E06      |        7686 |
|      44 | 0x1E0B      |        7691 |
|      45 | 0x1E0A      |        7690 |
|      46 | 0x003C      |          60 |
|      47 | 0x1E18      |        7704 |
|      48 | 0x1E17      |        7703 |
|      49 | 0x0064      |         100 |
|      50 | 0x1DF2      |        7666 |
|      51 | 0x008F      |         143 |
|      52 | 0x1CA2      |        7330 |
|      53 | 0x00C9      |         201 |
|      54 | 0x00B4      |         180 |
|      55 | 0xFFF6C42B  |  4294362155 |
|      56 | 0x752B9     |      479929 |
|      57 | 0xFFFFA767  |  4294944615 |
|      58 | 0x03E0      |         992 |
|      59 | 0xFFFBFE43  |  4294704707 |
|      60 | 0x5C401     |      377857 |
|      61 | 0xFFFDE79F  |  4294829983 |
|      62 | 0x0D92      |        3474 |
|      63 | 0x47AC      |       18348 |
|      64 | 0x76E1C     |      486940 |
|      65 | 0xFFFC93B2  |  4294742962 |
|      66 | 0x00C2      |         194 |
|      67 | 0x388A9     |      231593 |
|      68 | 0x57E9E     |      360094 |
|      69 | 0xFFFD59FC  |  4294793724 |
|      70 | 0x0726      |        1830 |
|      71 | 0x872C0     |      553664 |
|      72 | 0x7FEA3     |      523939 |
|      73 | 0xFFFF6AC3  |  4294929091 |
|      74 | 0x0A65      |        2661 |
|      75 | 0x493D8     |      299992 |
|      76 | 0xFFFD0491  |  4294771857 |
|      77 | 0xFFFFFE6E  |  4294966894 |
|      78 | 0x0C00      |        3072 |
|      79 | 0xFFF2A593  |  4294092179 |
|      80 | 0xFFFF548C  |  4294923404 |
|      81 | 0xFFFF442C  |  4294919212 |
|      82 | 0x0201      |         513 |
|      83 | 0xFFF478D5  |  4294211797 |
|      84 | 0x89AEB     |      563947 |
|      85 | 0xFFFE4A5D  |  4294855261 |
|      86 | 0x0DEF      |        3567 |
|      87 | 0x1E173     |      123251 |
|      88 | 0xB8221     |      754209 |
|      89 | 0xFFFD5FA4  |  4294795172 |
|      90 | 0x01B8      |         440 |
|      91 | 0xFFF81ECC  |  4294450892 |
|      92 | 0xFFF3BE05  |  4294163973 |
|      93 | 0x5E8E      |       24206 |
|      94 | 0x01B5      |         437 |
|      95 | 0x012C      |         300 |
|      96 | 0x0080      |         128 |
|      97 | 0xFFF690A7  |  4294348967 |
|      98 | 0xFFF62CE4  |  4294323428 |
|      99 | 0xFFFF9B33  |  4294941491 |
|     100 | 0x0EB1      |        3761 |
|     101 | 0xFFFAEE7D  |  4294635133 |
|     102 | 0xFFF941C6  |  4294525382 |
|     103 | 0xFFFE8CB1  |  4294872241 |
|     104 | 0x0EB0      |        3760 |
|     105 | 0xFFFFCF50  |  4294954832 |
|     106 | 0xFFF61B47  |  4294318919 |
|     107 | 0xFFFD07BB  |  4294772667 |
|     108 | 0x0EBA      |        3770 |
|     109 | 0x4EF35     |      323381 |
|     110 | 0xFFF93A6F  |  4294523503 |
|     111 | 0xFFFE5868  |  4294858856 |
|     112 | 0x0EA0      |        3744 |
|     113 | 0x92763     |      599907 |
|     114 | 0xFFF5AB97  |  4294290327 |
|     115 | 0xFFFFA837  |  4294944823 |
|     116 | 0x0EB3      |        3763 |
|     117 | 0x3F7C1     |      260033 |
|     118 | 0xFFFC6601  |  4294731265 |
|     119 | 0x213F      |        8511 |
|     120 | 0x00A8      |         168 |
|     121 | 0x30D7B     |      200059 |
|     122 | 0xFFFFAA3A  |  4294945338 |
|     123 | 0xFFFFFF06  |  4294967046 |
|     124 | 0x0411      |        1041 |
|     125 | 0x00CA      |         202 |
|     126 | 0x837EC     |      538604 |
|     127 | 0x7A88C     |      501900 |
|     128 | 0xFFFFC98A  |  4294953354 |
|     129 | 0x0CBC      |        3260 |
|     130 | 0x00CB      |         203 |
|     131 | 0x870F5     |      553205 |
|     132 | 0x8FF41     |      589633 |
|     133 | 0xFFFFFFEB  |  4294967275 |
|     134 | 0x0587      |        1415 |
|     135 | 0x00D3      |         211 |
|     136 | 0x8AF88     |      569224 |
|     137 | 0x85E6E     |      548462 |
|     138 | 0x8FE5      |       36837 |
|     139 | 0x02A1      |         673 |
|     140 | 0x0024      |          36 |
|     141 | 0x1DF4      |        7668 |
|     142 | 0x1DF3      |        7667 |
|     143 | 0x1E16      |        7702 |
|     144 | 0x1DF6      |        7670 |
|     145 | 0x1DF5      |        7669 |
|     146 | 0x493F7     |      300023 |
|     147 | 0xFFFCFB5A  |  4294769498 |
|     148 | 0xFFFFFF1C  |  4294967068 |
|     149 | 0x0400      |        1024 |
|     150 | 0x00D9      |         217 |
|     151 | 0x492F9     |      299769 |
|     152 | 0xFFFCE352  |  4294763346 |
|     153 | 0x02D4      |         724 |
|     154 | 0x357AC     |      219052 |
|     155 | 0x42EF2     |      274162 |
|     156 | 0xFFFF86CC  |  4294936268 |
|     157 | 0x0422      |        1058 |
|     158 | 0xFFFFAEC9  |  4294946505 |
|     159 | 0x8952      |       35154 |
|     160 | 0x22DB      |        8923 |
|     161 | 0x044F      |        1103 |
|     162 | 0xFFFC0443  |  4294706243 |
|     163 | 0xFFFCD9E1  |  4294760929 |
|     164 | 0xBF55      |       48981 |
|     165 | 0x0449      |        1097 |
|     166 | 0x3790B     |      227595 |
|     167 | 0x3D820     |      251936 |
|     168 | 0xFFFF86F8  |  4294936312 |
|     169 | 0x01FB      |         507 |
|     170 | 0x00B9      |         185 |
|     171 | 0x0345      |         837 |
|     172 | 0x0111      |         273 |
|     173 | 0x1E1C      |        7708 |
|     174 | 0x1E1D      |        7709 |
|     175 | 0x035F      |         863 |
|     176 | 0x1E1E      |        7710 |
|     177 | 0x1E1F      |        7711 |
|     178 | 0x1E21      |        7713 |
|     179 | 0x1E22      |        7714 |
|     180 | 0x1E20      |        7712 |
|     181 | 0x1E23      |        7715 |
|     182 | 0x1E24      |        7716 |
|     183 | 0x1E25      |        7717 |
|     184 | 0x1E26      |        7718 |
|     185 | 0x1E27      |        7719 |
|     186 | 0x1E28      |        7720 |
|     187 | 0x1E29      |        7721 |
|     188 | 0x0069      |         105 |
|     189 | 0x00C5      |         197 |
|     190 | 0x1E65      |        7781 |
|     191 | 0x1E66      |        7782 |
|     192 | 0x1E67      |        7783 |
|     193 | 0x1E68      |        7784 |
|     194 | 0x1E69      |        7785 |
|     195 | 0x032F      |         815 |
|     196 | 0x1E6A      |        7786 |
|     197 | 0x00E3      |         227 |
|     198 | 0x1E6B      |        7787 |
|     199 | 0x37C50     |      228432 |
|     200 | 0x3D650     |      251472 |
|     201 | 0xFFFF86E9  |  4294936297 |
|     202 | 0x01E0      |         480 |
|     203 | 0x033B      |         827 |
|     204 | 0x38FC6     |      233414 |
|     205 | 0x3BB13     |      244499 |
|     206 | 0xFFFF86FB  |  4294936315 |
|     207 | 0x00CE      |         206 |
|     208 | 0x1E7C      |        7804 |
|     209 | 0x005A      |          90 |
|     210 | 0x1E7D      |        7805 |
|     211 | 0x033C      |         828 |
|     212 | 0x0078      |         120 |
|     213 | 0x3AF05     |      241413 |
|     214 | 0x3C5BD     |      247229 |
|     215 | 0xFFFF86C0  |  4294936256 |
|     216 | 0x0480      |        1152 |
|     217 | 0x0414      |        1044 |
|     218 | 0x03C3      |         963 |
|     219 | 0x0116      |         278 |
|     220 | 0x0040      |          64 |
|     221 | 0x1F1A      |        7962 |
|     222 | 0x1F1B      |        7963 |
|     223 | 0x0893      |        2195 |
|     224 | 0x396B6     |      235190 |
|     225 | 0x3BD5F     |      245087 |
|     226 | 0xFFFF86E3  |  4294936291 |
|     227 | 0x016F      |         367 |
|     228 | 0x37CDB     |      228571 |
|     229 | 0x3CFD3     |      249811 |
|     230 | 0xFFFF8728  |  4294936360 |
|     231 | 0x0190      |         400 |
|     232 | 0x386B4     |      231092 |
|     233 | 0x3D7C7     |      251847 |
|     234 | 0xFFFF872C  |  4294936364 |
|     235 | 0x0233      |         563 |
|     236 | 0x3B9BB     |      244155 |
|     237 | 0x3A8C8     |      239816 |
|     238 | 0xFFFF8627  |  4294936103 |
|     239 | 0x3CDE9     |      249321 |
|     240 | 0x3D6EC     |      251628 |
|     241 | 0xFFFF872F  |  4294936367 |
|     242 | 0x04C0      |        1216 |
|     243 | 0x3D242     |      250434 |
|     244 | 0x3D1C4     |      250308 |
|     245 | 0xFFFF8738  |  4294936376 |
|     246 | 0x0798      |        1944 |
|     247 | 0x3C043     |      245827 |
|     248 | 0x39739     |      235321 |
|     249 | 0x0A35      |        2613 |
|     250 | 0x3D4A0     |      251040 |
|     251 | 0x3BD7B     |      245115 |
|     252 | 0xFFFF88D7  |  4294936791 |
|     253 | 0x09AD      |        2477 |
|     254 | 0x3B538     |      243000 |
|     255 | 0x37F39     |      229177 |
|     256 | 0xFFFF88A2  |  4294936738 |
|     257 | 0x07E5      |        2021 |
|     258 | 0x38BAE     |      232366 |
|     259 | 0x3859D     |      230813 |
|     260 | 0xFFFF88D1  |  4294936785 |
|     261 | 0x01A0      |         416 |
|     262 | 0x37CC1     |      228545 |
|     263 | 0x3D4E0     |      251104 |
|     264 | 0xFFFF86F6  |  4294936310 |
|     265 | 0x01C2      |         450 |
|     266 | 0x393F5     |      234485 |
|     267 | 0x3D377     |      250743 |
|     268 | 0xFFFF88D5  |  4294936789 |
|     269 | 0x0254      |         596 |
|     270 | 0x3AA1E     |      240158 |
|     271 | 0x3D904     |      252164 |
|     272 | 0xFFFF88D3  |  4294936787 |
|     273 | 0x0434      |        1076 |
|     274 | 0x37B66     |      228198 |
|     275 | 0x3B21F     |      242207 |
|     276 | 0x0058      |          88 |
|     277 | 0x38863     |      231523 |
|     278 | 0x3CC9F     |      248991 |
|     279 | 0xFFFF88BC  |  4294936764 |
|     280 | 0x00B1      |         177 |
|     281 | 0x382B8     |      230072 |
|     282 | 0x3D394     |      250772 |
|     283 | 0xFFFF8732  |  4294936370 |
|     284 | 0x00C6      |         198 |
|     285 | 0x37AA5     |      228005 |
|     286 | 0x3D303     |      250627 |
|     287 | 0xFFFF86FF  |  4294936319 |
|     288 | 0x0114      |         276 |
|     289 | 0x3AE78     |      241272 |
|     290 | 0x3A8E9     |      239849 |
|     291 | 0xFFFF84F5  |  4294935797 |
|     292 | 0x0113      |         275 |
|     293 | 0x3BC10     |      244752 |
|     294 | 0x3A1BE     |      238014 |
|     295 | 0xFFFF8739  |  4294936377 |
|     296 | 0x0984      |        2436 |
|     297 | 0x3B84C     |      243788 |
|     298 | 0x3AC83     |      240771 |
|     299 | 0xFFFF868A  |  4294936202 |
|     300 | 0x0029      |          41 |
|     301 | 0x3ADB6     |      241078 |
|     302 | 0x38EF2     |      233202 |
|     303 | 0xFFFF86AB  |  4294936235 |
|     304 | 0x0DB7      |        3511 |
|     305 | 0x03C2      |         962 |
|     306 | 0x0352      |         850 |
|     307 | 0xFFFFFFE2  |  4294967266 |
|     308 | 0xFFFFFC59  |  4294966361 |
|     309 | 0x00D2      |         210 |
|     310 | 0x1FA3      |        8099 |
|     311 | 0x0096      |         150 |
|     312 | 0x1FA4      |        8100 |
|     313 | 0x1FA5      |        8101 |
|     314 | 0x0045      |          69 |
|     315 | 0x0079      |         121 |
|     316 | 0x0168      |         360 |
|     317 | 0x1FA6      |        8102 |
|     318 | 0x1FA7      |        8103 |
|     319 | 0x1FA8      |        8104 |
|     320 | 0x1FA9      |        8105 |
|     321 | 0x1FAA      |        8106 |
|     322 | 0x1FAB      |        8107 |
|     323 | 0x1FAC      |        8108 |
|     324 | 0x054E      |        1358 |
|     325 | 0x39A12     |      236050 |
|     326 | 0x3C259     |      246361 |
|     327 | 0xFFFF86E6  |  4294936294 |
|     328 | 0x0246      |         582 |
|     329 | 0x1FAD      |        8109 |
|     330 | 0x1FAE      |        8110 |
|     331 | 0x01A4      |         420 |
|     332 | 0x37F6E     |      229230 |
|     333 | 0x3BE49     |      245321 |
|     334 | 0xFFFF88D6  |  4294936790 |
|     335 | 0x0145      |         325 |
|     336 | 0x379EA     |      227818 |
|     337 | 0x3A5DE     |      239070 |
|     338 | 0xFFFF88D2  |  4294936786 |
|     339 | 0x0F7D      |        3965 |
|     340 | 0x004A      |          74 |
|     341 | 0x39DCA     |      237002 |
|     342 | 0xFFFF88D0  |  4294936784 |
|     343 | 0x030F      |         783 |
|     344 | 0x1FAF      |        8111 |
|     345 | 0x1FB0      |        8112 |
|     346 | 0x1FB1      |        8113 |
|     347 | 0x03E7      |         999 |
|     348 | 0x1FB2      |        8114 |
|     349 | 0x1FB3      |        8115 |
|     350 | 0x1FB4      |        8116 |
|     351 | 0x1FB5      |        8117 |
|     352 | 0x1FB6      |        8118 |
|     353 | 0x1FB7      |        8119 |
|     354 | 0x1FB8      |        8120 |
|     355 | 0x1FB9      |        8121 |
|     356 | 0x1FBA      |        8122 |
|     357 | 0x1FBB      |        8123 |
|     358 | 0x1FBC      |        8124 |
|     359 | 0x1F7A      |        8058 |
|     360 | 0x3B51E     |      242974 |
|     361 | 0x3A7FD     |      239613 |
|     362 | 0xFFFF857D  |  4294935933 |
|     363 | 0x01C9      |         457 |
|     364 | 0x0911      |        2321 |
|     365 | 0x3B34B     |      242507 |
|     366 | 0x3A615     |      239125 |
|     367 | 0xFFFF8343  |  4294935363 |
|     368 | 0x00B2      |         178 |
|     369 | 0x3B9A9     |      244137 |
|     370 | 0xFFFF85F4  |  4294936052 |
|     371 | 0x0094      |         148 |
|     372 | 0x0082      |         130 |
|     373 | 0x0360      |         864 |
|     374 | 0x1FBD      |        8125 |
|     375 | 0x1FBE      |        8126 |
|     376 | 0x0918      |        2328 |
|     377 | 0x3B1BA     |      242106 |
|     378 | 0x3AC73     |      240755 |
|     379 | 0x07F4      |        2036 |
|     380 | 0x00E9      |         233 |
|     381 | 0x3B9AB     |      244139 |
|     382 | 0x0A32      |        2610 |
|     383 | 0x1FBF      |        8127 |
|     384 | 0x1FC0      |        8128 |
|     385 | 0x1FC1      |        8129 |
|     386 | 0x05AA      |        1450 |
|     387 | 0x1FC2      |        8130 |
|     388 | 0x1FC3      |        8131 |
|     389 | 0x39C69     |      236649 |
|     390 | 0x3BA72     |      244338 |
|     391 | 0xFFFF84BF  |  4294935743 |
|     392 | 0x069D      |        1693 |
|     393 | 0x39AFB     |      236283 |
|     394 | 0x3BC17     |      244759 |
|     395 | 0xFFFF86D9  |  4294936281 |
|     396 | 0x3932A     |      234282 |
|     397 | 0x3B59A     |      243098 |
|     398 | 0xFFFF86BA  |  4294936250 |
|     399 | 0x0626      |        1574 |
|     400 | 0x09B9      |        2489 |
|     401 | 0x1FC4      |        8132 |
|     402 | 0x38C71     |      232561 |
|     403 | 0x3AB2D     |      240429 |
|     404 | 0xFFFF86CB  |  4294936267 |
|     405 | 0x0913      |        2323 |
|     406 | 0x0070      |         112 |
|     407 | 0x39E34     |      237108 |
|     408 | 0x3C52B     |      247083 |
|     409 | 0xFFFF86E5  |  4294936293 |
|     410 | 0x0CBF      |        3263 |
|     411 | 0x3951D     |      234781 |
|     412 | 0x3B622     |      243234 |
|     413 | 0xFFFF86C1  |  4294936257 |
|     414 | 0x39B8E     |      236430 |
|     415 | 0x3D984     |      252292 |
|     416 | 0xFFFF88C8  |  4294936776 |
|     417 | 0x0D24      |        3364 |
|     418 | 0x00B3      |         179 |
|     419 | 0x0095      |         149 |
|     420 | 0x1FC5      |        8133 |
|     421 | 0x1FC6      |        8134 |
|     422 | 0x1FC7      |        8135 |
|     423 | 0x00E7      |         231 |
|     424 | 0x1FC8      |        8136 |
|     425 | 0x3A6F8     |      239352 |
|     426 | 0x3B4E9     |      242921 |
|     427 | 0xFFFF8575  |  4294935925 |
|     428 | 0x0691      |        1681 |
|     429 | 0x1FC9      |        8137 |
|     430 | 0x1FCA      |        8138 |
|     431 | 0x3A833     |      239667 |
|     432 | 0x3B5D4     |      243156 |
|     433 | 0xFFFF8598  |  4294935960 |
|     434 | 0x3B5A5     |      243109 |
|     435 | 0x3A590     |      238992 |
|     436 | 0xFFFF8591  |  4294935953 |
|     437 | 0x094F      |        2383 |
|     438 | 0x00D5      |         213 |
|     439 | 0xFFFFFE0C  |  4294966796 |
|     440 | 0x3B526     |      242982 |
|     441 | 0x39D26     |      236838 |
|     442 | 0xFFFF8626  |  4294936102 |
|     443 | 0x0BA9      |        2985 |
|     444 | 0x08A3      |        2211 |
|     445 | 0x3C0EA     |      245994 |
|     446 | 0x3A1D9     |      238041 |
|     447 | 0xFFFF867B  |  4294936187 |
|     448 | 0x0963      |        2403 |
|     449 | 0x00A7      |         167 |
|     450 | 0xFFFFFFA6  |  4294967206 |
|     451 | 0x0511      |        1297 |
|     452 | 0x1FCB      |        8139 |
|     453 | 0x3B20E     |      242190 |
|     454 | 0x3A763     |      239459 |
|     455 | 0xFFFF84C3  |  4294935747 |
|     456 | 0x08EE      |        2286 |
|     457 | 0x1FCC      |        8140 |
|     458 | 0x00F0      |         240 |
|     459 | 0x3C6C7     |      247495 |
|     460 | 0x3C073     |      245875 |
|     461 | 0xFFFF87F1  |  4294936561 |
|     462 | 0x05B2      |        1458 |
|     463 | 0x01ED      |         493 |
|     464 | 0x1FCD      |        8141 |
|     465 | 0x0028      |          40 |
|     466 | 0x1FCE      |        8142 |
|     467 | 0x1FCF      |        8143 |
|     468 | 0x1FD0      |        8144 |
|     469 | 0x002D      |          45 |
|     470 | 0x00D1      |         209 |
|     471 | 0x1FD1      |        8145 |
|     472 | 0x1FD2      |        8146 |
|     473 | 0x1FD3      |        8147 |
|     474 | 0x1FD4      |        8148 |
|     475 | 0x3BBFD     |      244733 |
|     476 | 0x3B965     |      244069 |
|     477 | 0xFFFF8AD0  |  4294937296 |
|     478 | 0x1FD5      |        8149 |
|     479 | 0x1FD6      |        8150 |
|     480 | 0x0046      |          70 |
|     481 | 0x003E      |          62 |
|     482 | 0x008D      |         141 |
|     483 | 0x3DF74     |      253812 |
|     484 | 0x3E080     |      254080 |
|     485 | 0xFFFF86F3  |  4294936307 |
|     486 | 0x0E10      |        3600 |
|     487 | 0x39C30     |      236592 |
|     488 | 0x3BF92     |      245650 |
|     489 | 0xFFFF86CA  |  4294936266 |
|     490 | 0x024C      |         588 |
|     491 | 0x1FD7      |        8151 |
|     492 | 0x1FD8      |        8152 |
|     493 | 0x01B0      |         432 |
|     494 | 0x1FD9      |        8153 |
|     495 | 0x1FDA      |        8154 |
|     496 | 0x1FDB      |        8155 |
|     497 | 0x1FDC      |        8156 |
|     498 | 0x1FDD      |        8157 |
|     499 | 0x1FDE      |        8158 |
|     500 | 0x1FDF      |        8159 |
|     501 | 0x0055      |          85 |
|     502 | 0x0186      |         390 |
|     503 | 0x3BC3D     |      244797 |
|     504 | 0x3B128     |      241960 |
|     505 | 0xFFFF863F  |  4294936127 |
|     506 | 0x00CD      |         205 |
|     507 | 0x007A      |         122 |
|     508 | 0x00C4      |         196 |
|     509 | 0x1E6C      |        7788 |
|     510 | 0x1E6D      |        7789 |
|     511 | 0x1E6E      |        7790 |
|     512 | 0x1E6F      |        7791 |
|     513 | 0x1E7E      |        7806 |
|     514 | 0x1E7F      |        7807 |
|     515 | 0x1E80      |        7808 |
|     516 | 0x1E70      |        7792 |
|     517 | 0x1E71      |        7793 |
|     518 | 0x1E72      |        7794 |
|     519 | 0x1E73      |        7795 |
|     520 | 0x0032      |          50 |
|     521 | 0x00D7      |         215 |
|     522 | 0x1E74      |        7796 |
|     523 | 0x1E75      |        7797 |
|     524 | 0x1E76      |        7798 |
|     525 | 0x1E77      |        7799 |
|     526 | 0x1E78      |        7800 |
|     527 | 0x0043      |          67 |
|     528 | 0x1E79      |        7801 |
|     529 | 0x1E7A      |        7802 |
|     530 | 0x1E7B      |        7803 |
|     531 | 0x3E29A     |      254618 |
|     532 | 0x39DC8     |      237000 |
|     533 | 0xFFFF8764  |  4294936420 |
|     534 | 0x0820      |        2080 |
|     535 | 0x3E088     |      254088 |
|     536 | 0x39E86     |      237190 |
|     537 | 0xFFFF87A6  |  4294936486 |
|     538 | 0x3BD09     |      245001 |
|     539 | 0x3A024     |      237604 |
|     540 | 0xFFFF8674  |  4294936180 |
|     541 | 0x0F28      |        3880 |
|     542 | 0x3CF42     |      249666 |
|     543 | 0x38387     |      230279 |
|     544 | 0xFFFF6C7F  |  4294929535 |
|     545 | 0x0C80      |        3200 |
|     546 | 0x3D437     |      250935 |
|     547 | 0x39552     |      234834 |
|     548 | 0xFFFF7820  |  4294932512 |
|     549 | 0x0ED8      |        3800 |
|     550 | 0x39805     |      235525 |
|     551 | 0x3B5BC     |      243132 |
|     552 | 0xFFFF86A5  |  4294936229 |
|     553 | 0x0514      |        1300 |
|     554 | 0x52C1B     |      338971 |
|     555 | 0xFFFDBBD4  |  4294818772 |
|     556 | 0xFFFFDCE2  |  4294958306 |
|     557 | 0x0AC1      |        2753 |
|     558 | 0x52F2E     |      339758 |
|     559 | 0xFFFDAC80  |  4294814848 |
|     560 | 0xFFFFD702  |  4294956802 |
|     561 | 0x0A8B      |        2699 |
|     562 | 0x532EF     |      340719 |
|     563 | 0xFFFDB446  |  4294816838 |
|     564 | 0xFFFFDA3C  |  4294957628 |
|     565 | 0x0AF8      |        2808 |
|     566 | 0x537A0     |      341920 |
|     567 | 0xFFFDBA75  |  4294818421 |
|     568 | 0xFFFFDC54  |  4294958164 |
|     569 | 0x0AFB      |        2811 |
|     570 | 0x53294     |      340628 |
|     571 | 0xFFFDBF7F  |  4294819711 |
|     572 | 0xFFFFDE70  |  4294958704 |
|     573 | 0x0B1B      |        2843 |
|     574 | 0x03E5      |         997 |
|     575 | 0x03DC      |         988 |
|     576 | 0x03F1      |        1009 |
|     577 | 0x03A9      |         937 |
|     578 | 0x03D7      |         983 |
|     579 | 0x03FE      |        1022 |
|     580 | 0x03D8      |         984 |
|     581 | 0x03FF      |        1023 |
|     582 | 0x0406      |        1030 |
|     583 | 0x03F5      |        1013 |
|     584 | 0x0132      |         306 |
|     585 | 0x1F1C      |        7964 |
|     586 | 0x1F1E      |        7966 |
|     587 | 0x1F1D      |        7965 |
|     588 | 0x0090      |         144 |
|     589 | 0x0050      |          80 |
|     590 | 0x005F      |          95 |
|     591 | 0x1F20      |        7968 |
|     592 | 0x1F1F      |        7967 |
|     593 | 0x1F21      |        7969 |
|     594 | 0x1F22      |        7970 |
|     595 | 0x1F23      |        7971 |
|     596 | 0x03DD      |         989 |
|     597 | 0x00AF      |         175 |
|     598 | 0x1F24      |        7972 |
|     599 | 0x1F25      |        7973 |
|     600 | 0xFFFF8774  |  4294936436 |
|     601 | 0x03F4      |        1012 |
|     602 | 0x3E2C3     |      254659 |
|     603 | 0x39E06     |      237062 |
|     604 | 0xFFFF87BF  |  4294936511 |
|     605 | 0x1F26      |        7974 |
|     606 | 0x1F27      |        7975 |
|     607 | 0x1F28      |        7976 |
|     608 | 0x1F29      |        7977 |
|     609 | 0x1F2A      |        7978 |
|     610 | 0x1F2B      |        7979 |
|     611 | 0x1F2C      |        7980 |
|     612 | 0x1F2D      |        7981 |
|     613 | 0x00AA      |         170 |
|     614 | 0x3D57A     |      251258 |
|     615 | 0x384F7     |      230647 |
|     616 | 0xFFFF6E73  |  4294930035 |
|     617 | 0x1F2E      |        7982 |
|     618 | 0x03F6      |        1014 |
|     619 | 0x03E3      |         995 |
|     620 | 0x1F30      |        7984 |
|     621 | 0x00AC      |         172 |
|     622 | 0x1F31      |        7985 |
|     623 | 0x1F32      |        7986 |
|     624 | 0x1F34      |        7988 |
|     625 | 0x1F35      |        7989 |
|     626 | 0x1F36      |        7990 |
|     627 | 0x1F37      |        7991 |
|     628 | 0x0421      |        1057 |
|     629 | 0x1F38      |        7992 |
|     630 | 0x1F39      |        7993 |
|     631 | 0x3D983     |      252291 |
|     632 | 0x38E96     |      233110 |
|     633 | 0xFFFF6E85  |  4294930053 |
|     634 | 0x1F3A      |        7994 |
|     635 | 0x1F3B      |        7995 |
|     636 | 0x1F3C      |        7996 |
|     637 | 0x1F3E      |        7998 |
|     638 | 0x0022      |          34 |
|     639 | 0x0023      |          35 |
|     640 | 0x3CE4F     |      249423 |
|     641 | 0x37E02     |      228866 |
|     642 | 0x3DA51     |      252497 |
|     643 | 0x38CBA     |      232634 |
|     644 | 0xFFFF6E87  |  4294930055 |
|     645 | 0x0BB8      |        3000 |
|     646 | 0x03E4      |         996 |
|     647 | 0x00BE      |         190 |
|     648 | 0x0041      |          65 |
|     649 | 0x00EB      |         235 |
|     650 | 0x1F41      |        8001 |
|     651 | 0x0073      |         115 |
|     652 | 0x1F42      |        8002 |
|     653 | 0x008C      |         140 |
|     654 | 0x03A8      |         936 |
|     655 | 0x3A0B4     |      237748 |
|     656 | 0x3B943     |      244035 |
|     657 | 0xFFFF8622  |  4294936098 |
|     658 | 0x0187      |         391 |
|     659 | 0x3BD70     |      245104 |
|     660 | 0x3A4BA     |      238778 |
|     661 | 0xFFFF8656  |  4294936150 |
|     662 | 0x1F43      |        8003 |
|     663 | 0x1F44      |        8004 |
|     664 | 0x1F45      |        8005 |
|     665 | 0x03E6      |         998 |
|     666 | 0x1F46      |        8006 |
|     667 | 0x1F47      |        8007 |
|     668 | 0x1F48      |        8008 |
|     669 | 0x1F49      |        8009 |
|     670 | 0x1F4A      |        8010 |
|     671 | 0x1F4B      |        8011 |
|     672 | 0x1F4C      |        8012 |
|     673 | 0x1F4E      |        8014 |
|     674 | 0x1F4D      |        8013 |
|     675 | 0x1F4F      |        8015 |
|     676 | 0x1F50      |        8016 |
|     677 | 0x39377     |      234359 |
|     678 | 0x372B8     |      225976 |
|     679 | 0x3BC60     |      244832 |
|     680 | 0x3A032     |      237618 |
|     681 | 0xFFFF866B  |  4294936171 |
|     682 | 0x03D4      |         980 |
|     683 | 0x1F51      |        8017 |
|     684 | 0x1F52      |        8018 |
|     685 | 0x1F53      |        8019 |
|     686 | 0x1F54      |        8020 |
|     687 | 0x1F55      |        8021 |
|     688 | 0x37804     |      227332 |
|     689 | 0x3DF69     |      253801 |
|     690 | 0xFFFF870A  |  4294936330 |
|     691 | 0x0362      |         866 |
|     692 | 0x37627     |      226855 |
|     693 | 0x3E327     |      254759 |
|     694 | 0xFFFF8682  |  4294936194 |
|     695 | 0x0363      |         867 |
|     696 | 0x36483     |      222339 |
|     697 | 0x40582     |      263554 |
|     698 | 0xFFFF86BF  |  4294936255 |
|     699 | 0x0303      |         771 |
|     700 | 0x3691B     |      223515 |
|     701 | 0x3F49A     |      259226 |
|     702 | 0xFFFF86B0  |  4294936240 |
|     703 | 0x02CC      |         716 |
|     704 | 0x36CB8     |      224440 |
|     705 | 0x3E9C4     |      256452 |
|     706 | 0xFFFF86B7  |  4294936247 |
|     707 | 0x007F      |         127 |
|     708 | 0x3D11D     |      250141 |
|     709 | 0x3CA1B     |      248347 |
|     710 | 0xFFFF888E  |  4294936718 |
|     711 | 0x01F4      |         500 |
|     712 | 0x3D07E     |      249982 |
|     713 | 0x3D31B     |      250651 |
|     714 | 0xFFFF8748  |  4294936392 |
|     715 | 0x3D447     |      250951 |
|     716 | 0x3D0E2     |      250082 |
|     717 | 0xFFFF871B  |  4294936347 |
|     718 | 0x3D542     |      251202 |
|     719 | 0x3DB25     |      252709 |
|     720 | 0xFFFF8708  |  4294936328 |
|     721 | 0x3D98B     |      252299 |
|     722 | 0x3D7FF     |      251903 |
|     723 | 0xFFFF870B  |  4294936331 |
|     724 | 0x3D515     |      251157 |
|     725 | 0x383DD     |      230365 |
|     726 | 0xFFFF873D  |  4294936381 |
|     727 | 0x0A8C      |        2700 |
|     728 | 0x3D9E3     |      252387 |
|     729 | 0x385D3     |      230867 |
|     730 | 0xFFFF86D7  |  4294936279 |
|     731 | 0x3D26D     |      250477 |
|     732 | 0x37D4C     |      228684 |
|     733 | 0xFFFF86ED  |  4294936301 |
|     734 | 0x3D8D4     |      252116 |
|     735 | 0x37B08     |      228104 |
|     736 | 0xFFFF86F7  |  4294936311 |
|     737 | 0x3DC2F     |      252975 |
|     738 | 0x37D76     |      228726 |
|     739 | 0xFFFF870C  |  4294936332 |
|     740 | 0x3E155     |      254293 |
|     741 | 0x3C7F6     |      247798 |
|     742 | 0x06A4      |        1700 |
|     743 | 0x3E741     |      255809 |
|     744 | 0x3C02B     |      245803 |
|     745 | 0x3E066     |      254054 |
|     746 | 0x3C0DB     |      245979 |
|     747 | 0x3B23A     |      242234 |
|     748 | 0x396AD     |      235181 |
|     749 | 0xFFFF8648  |  4294936136 |
|     750 | 0x3B8DB     |      243931 |
|     751 | 0x3B5FD     |      243197 |
|     752 | 0xFFFF868B  |  4294936203 |
|     753 | 0x3AED9     |      241369 |
|     754 | 0x3A09D     |      237725 |
|     755 | 0xFFFF84F4  |  4294935796 |
|     756 | 0x019B      |         411 |
|     757 | 0x3A8C0     |      239808 |
|     758 | 0x3A7BD     |      239549 |
|     759 | 0x3B012     |      241682 |
|     760 | 0x3B540     |      243008 |
|     761 | 0xFFFF8583  |  4294935939 |
|     762 | 0x3A706     |      239366 |
|     763 | 0x3AFDA     |      241626 |
|     764 | 0x0188      |         392 |
|     765 | 0x02D0      |         720 |
|     766 | 0x03D5      |         981 |
|     767 | 0x003B      |          59 |
|     768 | 0x006E      |         110 |
|     769 | 0x1CA0      |        7328 |
|     770 | 0x35B39     |      219961 |
|     771 | 0x43E9E     |      278174 |
|     772 | 0xFFFF8698  |  4294936216 |
|     773 | 0x35B26     |      219942 |
|     774 | 0x450D2     |      282834 |
|     775 | 0xFFFF861F  |  4294936095 |
|     776 | 0x0071      |         113 |
|     777 | 0x0074      |         116 |
|     778 | 0x0077      |         119 |
|     779 | 0x007B      |         123 |
|     780 | 0x0087      |         135 |
|     781 | 0x006C      |         108 |
|     782 | 0x4954B     |      300363 |
|     783 | 0xFFFD3F67  |  4294786919 |
|     784 | 0xFFFFFCAF  |  4294966447 |
|     785 | 0x04C1      |        1217 |
|     786 | 0x386C3     |      231107 |
|     787 | 0x3CA3C     |      248380 |
|     788 | 0xFFFF88C6  |  4294936774 |
|     789 | 0x3A45C     |      238684 |
|     790 | 0x3AE47     |      241223 |
|     791 | 0x369FD     |      223741 |
|     792 | 0x3F6B5     |      259765 |
|     793 | 0xFFFF8690  |  4294936208 |
|     794 | 0x0348      |         840 |
|     795 | 0x391C1     |      233921 |
|     796 | 0x3B94C     |      244044 |
|     797 | 0xFFFF86E8  |  4294936296 |
|     798 | 0x01BD      |         445 |
|     799 | 0x37056     |      225366 |
|     800 | 0x3E8D5     |      256213 |
|     801 | 0xFFFF8695  |  4294936213 |
|     802 | 0x021B      |         539 |
|     803 | 0x377DA     |      227290 |
|     804 | 0x3DF79     |      253817 |
|     805 | 0xFFFF870E  |  4294936334 |
|     806 | 0x0118      |         280 |
|     807 | 0x009F      |         159 |
|     808 | 0x00A9      |         169 |
|     809 | 0x00BD      |         189 |
|     810 | 0x00C7      |         199 |
|     811 | 0x4955F     |      300383 |
|     812 | 0xFFFCE442  |  4294763586 |
|     813 | 0x0280      |         640 |
|     814 | 0x3A2CA     |      238282 |
|     815 | 0x3B814     |      243732 |
|     816 | 0xFFFF85EE  |  4294936046 |
|     817 | 0x3A769     |      239465 |
|     818 | 0x39E70     |      237168 |
|     819 | 0xFFFF8567  |  4294935911 |

## String References

- **7327**: Enter the battlefield? [Enter./Decline.]
- **7328**: Leave the battlefield? [Run away./Stay.]
- **7330**: You cannot enter the battlefield at present. Please wait a little longer.
- **7338**: You are cleared to enter the battlefield, but you cannot while party members are engaged in combat.
- **7339**: You are cleared to enter the battlefield, but you cannot while party members are engaged in combat.
- **7340**: You are cleared to enter the battlefield, but you cannot while party members are engaged in combat.
- **7341**: You are cleared to enter the battlefield, but you cannot while party members are engaged in combat.
- **7377**: You do not meet the requirements to enter the battlefield. Access is denied.
- **7666**: Skip the event? [Yes./No.]
- **7667**: Battlefield clear time: $3 second[/s]!
- **7668**: Battlefield clear time: $3 minute[/s], $2 second[/s]!
- **7669**: The current battlefield clear time record is $3 second[/s].
- **7670**: The current battlefield clear time record is $3 minute[/s] $2 second[/s].
- **7686**: Only $3 [member/members] have clearance to enter the battlefield. This room has reached its maximum capacity.
- **7690**: That record is held by $5 adventurers, including %0!
- **7691**: That record is held by %0!
- **7693**: Select difficulty. [Very difficult. (Level: ???)/Difficult. (Level: ???)/Normal. (Level: $18)/Easy. (Level: $17)/Very Easy. (Level: $16)/Leave.]
- **7702**: You have broken the clear time record for "[Making a Mockery/Shadows of the Mind/The Beast Within/Moment of Truth/Puppet in Peril/$26Puppet in Peril/Tateeya's Worries/An Imperial Heist]"!
- **7703**: The current battlefield clear time record for "[Making a Mockery/Shadows of the Mind/The Beast Within/Moment of Truth/Puppet in Peril/$26Puppet in Peril/Tateeya's Worries/An Imperial Heist]" is $3 second[/s].
- **7704**: The current battlefield clear time record for "[Making a Mockery/Shadows of the Mind/The Beast Within/Moment of Truth/Puppet in Peril/$26Puppet in Peril/Tateeya's Worries/An Imperial Heist]" is $3 minute[/s] $2 second[/s].
- **7706**: Which battlefield will you enter? [None./Making a Mockery./Shadows of the Mind./The Beast Within./Moment of Truth./Puppet in Peril./$26Puppet in Peril./Tateeya's Worries./An Imperial Heist./@/@/@/@/@/@/@/@/@/@/@/@/@/@/@/@/@/@/@/@/@/@/@]
- **8058**: @@

## Events

### Event 65535

#### Metadata

| Field        | Value   |
|--------------|---------|
| Entrypoint   | 0x0000  |
| Data Size    | 1 bytes |
| Instructions | 1       |

```
      00 01 02 03 04 05 06 07  08 09 0A 0B 0C 0D 0E 0F
      -- -- -- -- -- -- -- --  -- -- -- -- -- -- -- --
0000: 00                                                .               
```

#### Opcodes

```
  0: 0x0000 [0x00] END_REQSTACK()
```

### Event 65534

#### Metadata

| Field        | Value   |
|--------------|---------|
| Entrypoint   | 0x0001  |
| Data Size    | 1 bytes |
| Instructions | 1       |

```
      00 01 02 03 04 05 06 07  08 09 0A 0B 0C 0D 0E 0F
      -- -- -- -- -- -- -- --  -- -- -- -- -- -- -- --
0000:    00                                              .              
```

#### Opcodes

```
  0: 0x0001 [0x00] END_REQSTACK()
```

### Event 32000

#### Metadata

| Field        | Value      |
|--------------|------------|
| Entrypoint   | 0x0002     |
| Data Size    | 2116 bytes |
| Instructions | 279        |

```
      00 01 02 03 04 05 06 07  08 09 0A 0B 0C 0D 0E 0F
      -- -- -- -- -- -- -- --  -- -- -- -- -- -- -- --
0000:       20 01 79 00 F0 FF  FF 7F F0 FF FF 7F 03 02     .y...........
0010: 00 02 10 03 03 00 03 10  03 05 00 04 10 03 06 00  ................
0020: 05 10 03 0F 00 06 10 03  10 00 07 10 03 11 00 08  ................
0030: 10 41 00 80 01 80 09 10  07 00 41 02 80 03 80 09  .A........A.....
0040: 10 06 10 06 01 00 02 07  00 00 80 00 45 01 03 08  ............E...
0050: 00 04 80 0F 08 00 06 00  10 08 00 05 80 24 06 80  .............$..
0060: 00 80 08 00 25 02 00 10  00 80 00 73 00 01 2B 08  ....%......s..+.
0070: 01 45 01 03 03 00 00 10  0C 03 00 06 16 00 06 13  .E..............
0080: 00 3E 0F 00 03 00 21 01  06 0F 00 06 08 00 3E 11  .>....!.......>.
0090: 00 03 00 98 00 01 9F 00  3C 08 00 00 80 05 80 3E  ........<......>
00A0: 10 00 03 00 A9 00 01 B0  00 3C 08 00 05 80 05 80  .........<......
00B0: 1A C8 67 24 07 80 08 80  08 00 25 02 00 10 00 80  ..g$......%.....
00C0: 00 CB 00 03 0F 00 05 80  01 1E 01 02 00 10 05 80  ................
00D0: 00 DB 00 03 0F 00 09 80  01 1E 01 02 00 10 09 80  ................
00E0: 00 EB 00 03 0F 00 0A 80  01 1E 01 02 00 10 0A 80  ................
00F0: 00 FB 00 03 0F 00 0B 80  01 1E 01 02 00 10 0B 80  ................
0100: 00 0B 01 03 0F 00 08 80  01 1E 01 02 00 10 08 80  ................
0110: 00 19 01 01 2B 08 01 1E  01 03 0F 00 0A 80 01 45  ....+..........E
0120: 01 06 0F 00 1A 45 08 02  16 00 05 80 00 45 01 24  .....E.......E.$
0130: 0C 80 05 80 00 80 25 02  00 10 05 80 00 45 01 01  ......%......E..
0140: 2B 08 01 45 01 42 03 01  10 0D 80 43 00 43 01 06  +..E.B.....C.C..
0150: 01 10 45 0E 80 F0 FF FF  7F F0 FF FF 7F 66 64 6F  ..E..........fdo
0160: 31 00 80 55 0E 80 F0 FF  FF 7F F0 FF FF 7F 66 64  1..U..........fd
0170: 6F 31 3B F0 FF FF 7F 20  10 21 10 22 10 38 0F 80  o1;.... .!.".8..
0180: 02 07 00 05 80 00 9F 01  03 00 00 05 80 03 04 00  ................
0190: 03 00 03 02 00 00 80 03  1C 00 00 80 01 5F 05 03  ............._..
01A0: 00 00 05 80 02 00 00 0A  80 05 F4 07 02 00 80 05  ................
01B0: 80 00 B9 01 03 00 00 05  00 40 00 80 0A 80 01 10  .........@......
01C0: 00 00 40 0B 80 10 80 01  10 03 00 40 11 80 12 80  ..@........@....
01D0: 01 10 0F 00 06 02 10 06  03 10 06 04 10 1A C8 6A  ...............j
01E0: 47 00 09 00 0A 00 0B 00  0C 00 47 01 03 04 00 03  G.........G.....
01F0: 10 03 02 00 04 10 03 1A  00 05 10 03 0D 00 06 10  ................
0200: 03 0E 00 07 10 03 1C 00  09 10 02 02 10 05 80 80  ................
0210: 15 02 01 E1 07 02 02 10  0B 80 80 5F 02 02 00 00  ..........._....
0220: 05 80 80 2C 02 48 13 80  23 01 59 02 02 00 00 09  ...,.H..#.Y.....
0230: 80 80 3B 02 48 14 80 23  01 59 02 02 00 00 0A 80  ..;.H..#.Y......
0240: 80 4A 02 48 15 80 23 01  59 02 02 00 00 0B 80 80  .J.H..#.Y.......
0250: 59 02 48 16 80 23 01 59  02 01 F8 07 01 E1 07 02  Y.H..#.Y........
0260: 02 10 08 80 80 71 02 48  17 80 23 01 F8 07 01 E1  .....q.H..#.....
0270: 07 02 02 10 18 80 80 73  04 02 04 00 00 80 80 89  .......s........
0280: 02 03 05 10 18 80 01 69  04 02 04 00 05 80 80 99  .......i........
0290: 02 03 05 10 18 80 01 69  04 02 04 00 09 80 80 A9  .......i........
02A0: 02 03 05 10 05 80 01 69  04 02 04 00 0A 80 80 B9  .......i........
02B0: 02 03 05 10 18 80 01 69  04 02 04 00 0B 80 80 C9  .......i........
02C0: 02 03 05 10 18 80 01 69  04 02 04 00 08 80 80 D9  .......i........
02D0: 02 03 05 10 18 80 01 69  04 02 04 00 18 80 80 E9  .......i........
02E0: 02 03 05 10 18 80 01 69  04 02 04 00 19 80 80 F9  .......i........
02F0: 02 03 05 10 1A 80 01 69  04 02 04 00 10 80 80 09  .......i........
0300: 03 03 05 10 00 80 01 69  04 02 04 00 11 80 80 19  .......i........
0310: 03 03 05 10 00 80 01 69  04 02 04 00 1B 80 80 29  .......i.......)
0320: 03 03 05 10 00 80 01 69  04 02 04 00 12 80 80 39  .......i.......9
0330: 03 03 05 10 00 80 01 69  04 02 04 00 1C 80 80 49  .......i.......I
0340: 03 03 05 10 00 80 01 69  04 02 04 00 1D 80 80 59  .......i.......Y
0350: 03 03 05 10 00 80 01 69  04 02 04 00 1E 80 80 69  .......i.......i
0360: 03 03 05 10 00 80 01 69  04 02 04 00 01 80 80 79  .......i.......y
0370: 03 03 05 10 00 80 01 69  04 02 04 00 02 80 80 89  .......i........
0380: 03 03 05 10 00 80 01 69  04 02 04 00 1F 80 80 99  .......i........
0390: 03 03 05 10 00 80 01 69  04 02 04 00 1A 80 80 A9  .......i........
03A0: 03 03 05 10 00 80 01 69  04 02 04 00 0F 80 80 B9  .......i........
03B0: 03 03 05 10 00 80 01 69  04 02 04 00 20 80 80 C9  .......i.... ...
03C0: 03 03 05 10 00 80 01 69  04 02 04 00 21 80 80 D9  .......i....!...
03D0: 03 03 05 10 00 80 01 69  04 02 04 00 22 80 80 E9  .......i...."...
03E0: 03 03 05 10 00 80 01 69  04 02 04 00 23 80 80 F9  .......i....#...
03F0: 03 03 05 10 00 80 01 69  04 02 04 00 24 80 80 09  .......i....$...
0400: 04 03 05 10 00 80 01 69  04 02 04 00 25 80 80 19  .......i....%...
0410: 04 03 05 10 00 80 01 69  04 02 04 00 26 80 80 29  .......i....&..)
0420: 04 03 05 10 00 80 01 69  04 02 04 00 27 80 80 39  .......i....'..9
0430: 04 03 05 10 00 80 01 69  04 02 04 00 28 80 80 49  .......i....(..I
0440: 04 03 05 10 00 80 01 69  04 02 04 00 29 80 80 59  .......i....)..Y
0450: 04 03 05 10 00 80 01 69  04 02 04 00 2A 80 80 69  .......i....*..i
0460: 04 03 05 10 00 80 01 69  04 48 2B 80 23 01 F8 07  .......i.H+.#...
0470: 01 E1 07 02 02 10 0A 80  80 81 04 01 9F 01 01 E1  ................
0480: 07 02 02 10 09 80 80 E1  07 02 0D 00 00 80 01 15  ................
0490: 05 02 13 00 00 80 01 C9  04 03 05 10 1A 00 02 1A  ................
04A0: 00 00 80 02 A6 04 02 0D  00 05 80 05 B5 04 48 2C  ..............H,
04B0: 80 23 01 C6 04 03 06 10  0D 00 0C 06 10 03 07 10  .#..............
04C0: 0D 00 48 2D 80 23 01 15  05 03 05 10 1A 00 02 1A  ..H-.#..........
04D0: 00 00 80 02 F5 04 02 1A  00 2E 80 04 F1 04 3F 04  ..............?.
04E0: 10 05 10 2E 80 15 05 10  2E 80 48 2F 80 23 01 F5  ..........H/.#..
04F0: 04 48 30 80 23 02 0D 00  05 80 05 04 05 48 2C 80  .H0.#........H,.
0500: 23 01 15 05 03 06 10 0D  00 0C 06 10 03 07 10 0D  #...............
0510: 00 48 2D 80 23 03 03 00  04 00 03 14 00 31 80 07  .H-.#........1..
0520: 14 00 03 00 02 02 00 14  00 00 34 05 03 02 00 05  ..........4.....
0530: 80 01 39 05 03 02 00 00  80 02 02 00 00 80 00 5F  ..9............_
0540: 05 02 0E 00 05 80 00 5F  05 24 32 80 05 80 00 80  ......._.$2.....
0550: 25 02 00 10 00 80 00 5F  05 05 02 00 01 5F 05 06  %......_....._..
0560: 15 00 02 04 00 00 80 80  72 05 03 15 00 00 80 01  ........r.......
0570: 57 07 02 04 00 05 80 80  82 05 03 15 00 00 80 01  W...............
0580: 57 07 02 04 00 09 80 80  92 05 03 15 00 05 80 01  W...............
0590: 57 07 02 04 00 0A 80 80  A2 05 03 15 00 00 80 01  W...............
05A0: 57 07 02 04 00 0B 80 80  B2 05 03 15 00 00 80 01  W...............
05B0: 57 07 02 04 00 08 80 80  C2 05 03 15 00 00 80 01  W...............
05C0: 57 07 02 04 00 18 80 80  D2 05 03 15 00 00 80 01  W...............
05D0: 57 07 02 04 00 19 80 80  E2 05 03 15 00 00 80 01  W...............
05E0: 57 07 02 04 00 10 80 80  F2 05 03 15 00 00 80 01  W...............
05F0: 57 07 02 04 00 11 80 80  02 06 03 15 00 00 80 01  W...............
0600: 57 07 02 04 00 1B 80 80  12 06 03 15 00 00 80 01  W...............
0610: 57 07 02 04 00 12 80 80  22 06 03 15 00 00 80 01  W.......".......
0620: 57 07 02 04 00 1C 80 80  32 06 03 15 00 00 80 01  W.......2.......
0630: 57 07 02 04 00 1D 80 80  42 06 03 15 00 00 80 01  W.......B.......
0640: 57 07 02 04 00 1E 80 80  52 06 03 15 00 00 80 01  W.......R.......
0650: 57 07 02 04 00 01 80 80  62 06 03 15 00 00 80 01  W.......b.......
0660: 57 07 02 04 00 02 80 80  72 06 03 15 00 00 80 01  W.......r.......
0670: 57 07 02 04 00 1F 80 80  82 06 03 15 00 00 80 01  W...............
0680: 57 07 02 04 00 1A 80 80  92 06 03 15 00 00 80 01  W...............
0690: 57 07 02 04 00 0F 80 80  A2 06 03 15 00 00 80 01  W...............
06A0: 57 07 02 04 00 20 80 80  B2 06 03 15 00 00 80 01  W.... ..........
06B0: 57 07 02 04 00 21 80 80  C2 06 03 15 00 00 80 01  W....!..........
06C0: 57 07 02 04 00 22 80 80  D2 06 03 15 00 00 80 01  W...."..........
06D0: 57 07 02 04 00 23 80 80  E2 06 03 15 00 00 80 01  W....#..........
06E0: 57 07 02 04 00 24 80 80  F2 06 03 15 00 00 80 01  W....$..........
06F0: 57 07 02 04 00 25 80 80  02 07 03 15 00 00 80 01  W....%..........
0700: 57 07 02 04 00 26 80 80  12 07 03 15 00 00 80 01  W....&..........
0710: 57 07 02 04 00 27 80 80  22 07 03 15 00 00 80 01  W....'..".......
0720: 57 07 02 04 00 28 80 80  32 07 03 15 00 00 80 01  W....(..2.......
0730: 57 07 02 04 00 29 80 80  42 07 03 15 00 00 80 01  W....)..B.......
0740: 57 07 02 04 00 2A 80 80  52 07 03 15 00 00 80 01  W....*..R.......
0750: 57 07 03 15 00 00 80 02  02 00 05 80 00 72 07 5C  W............r.\
0760: 00 33 80 5C 01 33 80 5C  02 33 80 5C 03 33 80 01  .3.\.3.\.3.\.3..
0770: 8A 07 02 15 00 00 80 00  8A 07 5C 00 33 80 5C 01  ..........\.3.\.
0780: 33 80 5C 02 33 80 5C 03  33 80 02 02 00 00 80 00  3.\.3.\.3.......
0790: 98 07 1A 19 10 01 D1 07  6C F0 FF FF 7F 00 80 05  ........l.......
07A0: 80 62 09 80 F0 FF FF 7F  F0 FF FF 7F 6D 61 69 6E  .b..........main
07B0: 00 80 45 0E 80 F0 FF FF  7F F0 FF FF 7F 6F 76 6C  ..E..........ovl
07C0: 31 00 80 46 02 12 00 02  12 00 00 80 00 D1 07 46  1..F...........F
07D0: 00 03 01 10 31 80 07 01  10 03 00 01 F8 07 01 E1  ....1...........
07E0: 07 0B 00 00 02 00 80 05  80 00 F1 07 03 00 00 0B  ................
07F0: 80 01 A4 01 48 34 80 23  45 35 80 F0 FF FF 7F F0  ....H4.#E5......
0800: FF FF 7F 77 68 69 31 00  80 45 0E 80 F0 FF FF 7F  ...whi1..E......
0810: F0 FF FF 7F 62 6C 6F 66  00 80 45 0E 80 F0 FF FF  ....blof..E.....
0820: 7F F0 FF FF 7F 66 64 69  30 00 80 02 07 00 05 80  .....fdi0.......
0830: 00 43 08 5C 00 00 80 5C  01 00 80 5C 02 33 80 5C  .C.\...\...\.3.\
0840: 03 33 80 21 00 1B                                 .3.!..          
```

#### Opcodes

```
  0: 0x0002 [0x20] SET_CLI_EVENT_UC_FLAG: Lock player control
  1: 0x0004 [0x79] LocalPlayer looks at LocalPlayer (Basic look)
  2: 0x000E [0x03] ExtData[1]->WorkLocal[2] = Work_Zone[2]
  3: 0x0013 [0x03] ExtData[1]->WorkLocal[3] = Work_Zone[3]
  4: 0x0018 [0x03] ExtData[1]->WorkLocal[5] = Work_Zone[4]
  5: 0x001D [0x03] ExtData[1]->WorkLocal[6] = Work_Zone[5]
  6: 0x0022 [0x03] ExtData[1]->WorkLocal[15] = Work_Zone[6]
  7: 0x0027 [0x03] ExtData[1]->WorkLocal[16] = Work_Zone[7]
  8: 0x002C [0x03] ExtData[1]->WorkLocal[17] = Work_Zone[8]
  9: 0x0031 [0x41] ExtData[1]->WorkLocal[7] = Work_Zone[9] (bits 0*-15*)
 10: 0x003A [0x41] Work_Zone[6] = Work_Zone[9] (bits 16*-31*)
 11: 0x0043 [0x06] ExtData[1]->WorkLocal[1] = 0
 12: 0x0046 [0x02] IF !(ExtData[1]->WorkLocal[7] == 0*) GOTO 0x0145
 13: 0x004E [0x03] ExtData[1]->WorkLocal[8] = 4294967295*
 14: 0x0053 [0x0F] ExtData[1]->WorkLocal[8] ^= ExtData[1]->WorkLocal[6]
 15: 0x0058 [0x10] ExtData[1]->WorkLocal[8] <<= 1*
 16: 0x005D [0x24] CREATE_DIALOG(message_id=7706*, default_option=0*, option_flags=ExtData[1]->WorkLocal[8])
    → "Which battlefield will you enter? [None./Making a Mockery./Shadows of the Mind./The Beast Within./Moment of Truth./Puppet in Peril./$26Puppet in Peril./Tateeya's Worries./An Imperial Heist./@/@/@/@/@/@/@/@/@/@/@/@/@/@/@/@/@/@/@/@/@/@/@]"
 17: 0x0064 [0x25] WAIT_DIALOG_SELECT()
 18: 0x0065 [0x02] IF !(Work_Zone[0] == 0*) GOTO 0x0073
 19: 0x006D [0x01] GOTO 0x082B

SUBROUTINE_009F:
 20: 0x009F [0x3E] IF !(ExtData[1]->WorkLocal[16] bit ExtData[1]->WorkLocal[3]) GOTO 0x00A9
 21: 0x00A6 [0x01] GOTO 0x00B0
 22: 0x00A9 [0x3C] SET_BIT_FLAG_CONDITIONAL(target_work_offset=ExtData[1]->WorkLocal[8], bit_index_work_offset=1*, condition_work_offset=1*)

SUBROUTINE_00B0:
 23: 0x00B0 [0x1A] CALL_SUBROUTINE(address=0x67C8)
 24: 0x00B3 [0x24] CREATE_DIALOG(message_id=7693*, default_option=5*, option_flags=ExtData[1]->WorkLocal[8])
    → "Select difficulty. [Very difficult. (Level: ???)/Difficult. (Level: ???)/Normal. (Level: $18)/Easy. (Level: $17)/Very Easy. (Level: $16)/Leave.]"
 25: 0x00BA [0x25] WAIT_DIALOG_SELECT()
 26: 0x00BB [0x02] IF !(Work_Zone[0] == 0*) GOTO 0x00CB
 27: 0x00C3 [0x03] ExtData[1]->WorkLocal[15] = 1*
 28: 0x00C8 [0x01] GOTO 0x011E
 29: 0x00CB [0x02] IF !(Work_Zone[0] == 1*) GOTO 0x00DB
 30: 0x00D3 [0x03] ExtData[1]->WorkLocal[15] = 2*
 31: 0x00D8 [0x01] GOTO 0x011E
 32: 0x00DB [0x02] IF !(Work_Zone[0] == 2*) GOTO 0x00EB
 33: 0x00E3 [0x03] ExtData[1]->WorkLocal[15] = 3*
 34: 0x00E8 [0x01] GOTO 0x011E
 35: 0x00EB [0x02] IF !(Work_Zone[0] == 3*) GOTO 0x00FB
 36: 0x00F3 [0x03] ExtData[1]->WorkLocal[15] = 4*
 37: 0x00F8 [0x01] GOTO 0x011E
 38: 0x00FB [0x02] IF !(Work_Zone[0] == 4*) GOTO 0x010B
 39: 0x0103 [0x03] ExtData[1]->WorkLocal[15] = 5*
 40: 0x0108 [0x01] GOTO 0x011E
 41: 0x010B [0x02] IF !(Work_Zone[0] == 5*) GOTO 0x0119
 42: 0x0113 [0x01] GOTO 0x082B

SUBROUTINE_011E:
 43: 0x011E [0x01] GOTO 0x0145
 44: 0x0121 [0x06] ExtData[1]->WorkLocal[15] = 0
 45: 0x0124 [0x1A] CALL_SUBROUTINE(address=0x0845)
 46: 0x0127 [0x02] IF !(ExtData[1]->WorkLocal[22] == 1*) GOTO 0x0145
 47: 0x012F [0x24] CREATE_DIALOG(message_id=7327*, default_option=1*, option_flags=0*)
    → "Enter the battlefield? [Enter./Decline.]"
 48: 0x0136 [0x25] WAIT_DIALOG_SELECT()
 49: 0x0137 [0x02] IF !(Work_Zone[0] == 1*) GOTO 0x0145
 50: 0x013F [0x01] GOTO 0x082B

SUBROUTINE_0145:
 51: 0x0145 [0x42] SET_CLI_EVENT_CANCEL_DATA()
 52: 0x0146 [0x03] Work_Zone[1] = 255*
 53: 0x014B [0x43] SEND_EVENT_UPDATE: Send pending tag to server (packet 0x005B)
 54: 0x014D [0x43] SEND_EVENT_UPDATE: Check pending flag (skip if not pending)
 55: 0x014F [0x06] Work_Zone[1] = 0
 56: 0x0152 [0x45] LOAD_SCHEDULED_TASK: Load scheduler "fdo1" with entities [LocalPlayer, LocalPlayer], work=[200*, 0*]
 57: 0x0163 [0x55] WAIT_LOAD_SCHEDULER: Wait for scheduler "fdo1" with entities [LocalPlayer, LocalPlayer], work=200*
 58: 0x0172 [0x3B] GET_ENTITY_POSITION(entity=LocalPlayer, x_destination=Work_Zone[32], y_destination=Work_Zone[33], z_destination=Work_Zone[34])
 59: 0x017D [0x38] SET_CLIENT_EVENT_MODE(mode=19*)
 60: 0x0180 [0x02] IF !(ExtData[1]->WorkLocal[7] == 1*) GOTO 0x019F
 61: 0x0188 [0x03] ExtData[1]->WorkLocal[0] = 1*
 62: 0x018D [0x03] ExtData[1]->WorkLocal[4] = ExtData[1]->WorkLocal[3]
 63: 0x0192 [0x03] ExtData[1]->WorkLocal[2] = 0*
 64: 0x0197 [0x03] ExtData[1]->WorkLocal[28] = 0*
 65: 0x019C [0x01] GOTO 0x055F

SUBROUTINE_019F:
 66: 0x019F [0x03] ExtData[1]->WorkLocal[0] = 1*

SUBROUTINE_01A4:
 67: 0x01A4 [0x02] IF !(ExtData[1]->WorkLocal[0] > 3*) GOTO 0x07F4
 68: 0x01AC [0x02] IF !(0* == 1*) GOTO 0x01B9
 69: 0x01B4 [0x03] ExtData[1]->WorkLocal[0] = ExtData[1]->WorkLocal[5]
 70: 0x01B9 [0x40] SET_BIT_WORK_RANGE(start_bit=0*, end_bit=3*, target=Work_Zone[1], source=ExtData[1]->WorkLocal[0])
 71: 0x01C2 [0x40] SET_BIT_WORK_RANGE(start_bit=4*, end_bit=8*, target=Work_Zone[1], source=ExtData[1]->WorkLocal[3])
 72: 0x01CB [0x40] SET_BIT_WORK_RANGE(start_bit=9*, end_bit=11*, target=Work_Zone[1], source=ExtData[1]->WorkLocal[15])
 73: 0x01D4 [0x06] Work_Zone[2] = 0
 74: 0x01D7 [0x06] Work_Zone[3] = 0
 75: 0x01DA [0x06] Work_Zone[4] = 0
 76: 0x01DD [0x1A] CALL_SUBROUTINE(address=0x6AC8)
 77: 0x01E0 [0x47] UPDATE_PLAYER_POS(ExtData[1]->WorkLocal[9], ExtData[1]->WorkLocal[10], ExtData[1]->WorkLocal[11], yaw=ExtData[1]->WorkLocal[12])
 78: 0x01EA [0x47] WAIT_PLAYER_POS_UPDATE
 79: 0x01EC [0x03] ExtData[1]->WorkLocal[4] = Work_Zone[3]
 80: 0x01F1 [0x03] ExtData[1]->WorkLocal[2] = Work_Zone[4]
 81: 0x01F6 [0x03] ExtData[1]->WorkLocal[26] = Work_Zone[5]
 82: 0x01FB [0x03] ExtData[1]->WorkLocal[13] = Work_Zone[6]
 83: 0x0200 [0x03] ExtData[1]->WorkLocal[14] = Work_Zone[7]
 84: 0x0205 [0x03] ExtData[1]->WorkLocal[28] = Work_Zone[9]
 85: 0x020A [0x02] IF !(Work_Zone[2] == 1*) GOTO 0x0215
 86: 0x0212 [0x01] GOTO 0x07E1
 87: 0x0215 [0x02] IF !(Work_Zone[2] == 4*) GOTO 0x025F
 88: 0x021D [0x02] IF !(ExtData[1]->WorkLocal[0] == 1*) GOTO 0x022C
 89: 0x0225 [0x48] [System] [7338*]:
    → "You are cleared to enter the battlefield, but you cannot while party members are engaged in combat."
 90: 0x0228 [0x23] WAIT_FOR_DIALOG_INTERACTION
 91: 0x0229 [0x01] GOTO 0x0259
 92: 0x022C [0x02] IF !(ExtData[1]->WorkLocal[0] == 2*) GOTO 0x023B
 93: 0x0234 [0x48] [System] [7339*]:
    → "You are cleared to enter the battlefield, but you cannot while party members are engaged in combat."
 94: 0x0237 [0x23] WAIT_FOR_DIALOG_INTERACTION
 95: 0x0238 [0x01] GOTO 0x0259
 96: 0x023B [0x02] IF !(ExtData[1]->WorkLocal[0] == 3*) GOTO 0x024A
 97: 0x0243 [0x48] [System] [7340*]:
    → "You are cleared to enter the battlefield, but you cannot while party members are engaged in combat."
 98: 0x0246 [0x23] WAIT_FOR_DIALOG_INTERACTION
 99: 0x0247 [0x01] GOTO 0x0259
100: 0x024A [0x02] IF !(ExtData[1]->WorkLocal[0] == 4*) GOTO 0x0259
101: 0x0252 [0x48] [System] [7341*]:
    → "You are cleared to enter the battlefield, but you cannot while party members are engaged in combat."
102: 0x0255 [0x23] WAIT_FOR_DIALOG_INTERACTION
103: 0x0256 [0x01] GOTO 0x0259

SUBROUTINE_0259:
104: 0x0259 [0x01] GOTO 0x07F8

SUBROUTINE_0469:
105: 0x0469 [0x48] [System] [7686*]:
    → "Only $3 [member/members] have clearance to enter the battlefield. This room has reached its maximum capacity."
106: 0x046C [0x23] WAIT_FOR_DIALOG_INTERACTION
107: 0x046D [0x01] GOTO 0x07F8

SUBROUTINE_04C6:
108: 0x04C6 [0x01] GOTO 0x0515
109: 0x04C9 [0x03] Work_Zone[5] = ExtData[1]->WorkLocal[26]
110: 0x04CE [0x02] IF !(ExtData[1]->WorkLocal[26] <= 0*) GOTO 0x04F5
111: 0x04D6 [0x02] IF !(ExtData[1]->WorkLocal[26] < 60*) GOTO 0x04F1
112: 0x04DE [0x3F] Work_Zone[4] = Work_Zone[5] % 60*
113: 0x04E5 [0x15] Work_Zone[5] /= 60*
114: 0x04EA [0x48] [System] [7704*]:
    → "The current battlefield clear time record for "[Making a Mockery/Shadows of the Mind/The Beast Within/Moment of Truth/Puppet in Peril/$26Puppet in Peril/Tateeya's Worries/An Imperial Heist]" is $3 minute[/s] $2 second[/s]."
115: 0x04ED [0x23] WAIT_FOR_DIALOG_INTERACTION
116: 0x04EE [0x01] GOTO 0x04F5
117: 0x04F1 [0x48] [System] [7703*]:
    → "The current battlefield clear time record for "[Making a Mockery/Shadows of the Mind/The Beast Within/Moment of Truth/Puppet in Peril/$26Puppet in Peril/Tateeya's Worries/An Imperial Heist]" is $3 second[/s]."
118: 0x04F4 [0x23] WAIT_FOR_DIALOG_INTERACTION

SUBROUTINE_04F5:
119: 0x04F5 [0x02] IF !(ExtData[1]->WorkLocal[13] > 1*) GOTO 0x0504
120: 0x04FD [0x48] [System] [7691*]:
    → "That record is held by %0!"
121: 0x0500 [0x23] WAIT_FOR_DIALOG_INTERACTION
122: 0x0501 [0x01] GOTO 0x0515
123: 0x0504 [0x03] Work_Zone[6] = ExtData[1]->WorkLocal[13]
124: 0x0509 [0x0C] Work_Zone[6]--
125: 0x050C [0x03] Work_Zone[7] = ExtData[1]->WorkLocal[13]
126: 0x0511 [0x48] [System] [7690*]:
    → "That record is held by $5 adventurers, including %0!"
127: 0x0514 [0x23] WAIT_FOR_DIALOG_INTERACTION

SUBROUTINE_0515:
128: 0x0515 [0x03] ExtData[1]->WorkLocal[3] = ExtData[1]->WorkLocal[4]
129: 0x051A [0x03] ExtData[1]->WorkLocal[20] = 100*
130: 0x051F [0x07] ExtData[1]->WorkLocal[20] += ExtData[1]->WorkLocal[3]
131: 0x0524 [0x02] IF !(ExtData[1]->WorkLocal[2] == ExtData[1]->WorkLocal[20]) GOTO 0x0534
132: 0x052C [0x03] ExtData[1]->WorkLocal[2] = 1*
133: 0x0531 [0x01] GOTO 0x0539
134: 0x0534 [0x03] ExtData[1]->WorkLocal[2] = 0*

SUBROUTINE_0539:
135: 0x0539 [0x02] IF !(ExtData[1]->WorkLocal[2] == 0*) GOTO 0x055F
136: 0x0541 [0x02] IF !(ExtData[1]->WorkLocal[14] == 1*) GOTO 0x055F
137: 0x0549 [0x24] CREATE_DIALOG(message_id=7666*, default_option=1*, option_flags=0*)
    → "Skip the event? [Yes./No.]"
138: 0x0550 [0x25] WAIT_DIALOG_SELECT()
139: 0x0551 [0x02] IF !(Work_Zone[0] == 0*) GOTO 0x055F
140: 0x0559 [0x05] ExtData[1]->WorkLocal[2] = 1
141: 0x055C [0x01] GOTO 0x055F

SUBROUTINE_055F:
142: 0x055F [0x06] ExtData[1]->WorkLocal[21] = 0
143: 0x0562 [0x02] IF !(ExtData[1]->WorkLocal[4] == 0*) GOTO 0x0572
144: 0x056A [0x03] ExtData[1]->WorkLocal[21] = 0*
145: 0x056F [0x01] GOTO 0x0757
146: 0x0572 [0x02] IF !(ExtData[1]->WorkLocal[4] == 1*) GOTO 0x0582
147: 0x057A [0x03] ExtData[1]->WorkLocal[21] = 0*
148: 0x057F [0x01] GOTO 0x0757
149: 0x0582 [0x02] IF !(ExtData[1]->WorkLocal[4] == 2*) GOTO 0x0592
150: 0x058A [0x03] ExtData[1]->WorkLocal[21] = 1*
151: 0x058F [0x01] GOTO 0x0757
152: 0x0592 [0x02] IF !(ExtData[1]->WorkLocal[4] == 3*) GOTO 0x05A2
153: 0x059A [0x03] ExtData[1]->WorkLocal[21] = 0*
154: 0x059F [0x01] GOTO 0x0757
155: 0x05A2 [0x02] IF !(ExtData[1]->WorkLocal[4] == 4*) GOTO 0x05B2
156: 0x05AA [0x03] ExtData[1]->WorkLocal[21] = 0*
157: 0x05AF [0x01] GOTO 0x0757
158: 0x05B2 [0x02] IF !(ExtData[1]->WorkLocal[4] == 5*) GOTO 0x05C2
159: 0x05BA [0x03] ExtData[1]->WorkLocal[21] = 0*
160: 0x05BF [0x01] GOTO 0x0757
161: 0x05C2 [0x02] IF !(ExtData[1]->WorkLocal[4] == 6*) GOTO 0x05D2
162: 0x05CA [0x03] ExtData[1]->WorkLocal[21] = 0*
163: 0x05CF [0x01] GOTO 0x0757
164: 0x05D2 [0x02] IF !(ExtData[1]->WorkLocal[4] == 7*) GOTO 0x05E2
165: 0x05DA [0x03] ExtData[1]->WorkLocal[21] = 0*
166: 0x05DF [0x01] GOTO 0x0757
167: 0x05E2 [0x02] IF !(ExtData[1]->WorkLocal[4] == 8*) GOTO 0x05F2
168: 0x05EA [0x03] ExtData[1]->WorkLocal[21] = 0*
169: 0x05EF [0x01] GOTO 0x0757
170: 0x05F2 [0x02] IF !(ExtData[1]->WorkLocal[4] == 9*) GOTO 0x0602
171: 0x05FA [0x03] ExtData[1]->WorkLocal[21] = 0*
172: 0x05FF [0x01] GOTO 0x0757
173: 0x0602 [0x02] IF !(ExtData[1]->WorkLocal[4] == 10*) GOTO 0x0612
174: 0x060A [0x03] ExtData[1]->WorkLocal[21] = 0*
175: 0x060F [0x01] GOTO 0x0757
176: 0x0612 [0x02] IF !(ExtData[1]->WorkLocal[4] == 11*) GOTO 0x0622
177: 0x061A [0x03] ExtData[1]->WorkLocal[21] = 0*
178: 0x061F [0x01] GOTO 0x0757
179: 0x0622 [0x02] IF !(ExtData[1]->WorkLocal[4] == 12*) GOTO 0x0632
180: 0x062A [0x03] ExtData[1]->WorkLocal[21] = 0*
181: 0x062F [0x01] GOTO 0x0757
182: 0x0632 [0x02] IF !(ExtData[1]->WorkLocal[4] == 13*) GOTO 0x0642
183: 0x063A [0x03] ExtData[1]->WorkLocal[21] = 0*
184: 0x063F [0x01] GOTO 0x0757
185: 0x0642 [0x02] IF !(ExtData[1]->WorkLocal[4] == 14*) GOTO 0x0652
186: 0x064A [0x03] ExtData[1]->WorkLocal[21] = 0*
187: 0x064F [0x01] GOTO 0x0757
188: 0x0652 [0x02] IF !(ExtData[1]->WorkLocal[4] == 15*) GOTO 0x0662
189: 0x065A [0x03] ExtData[1]->WorkLocal[21] = 0*
190: 0x065F [0x01] GOTO 0x0757
191: 0x0662 [0x02] IF !(ExtData[1]->WorkLocal[4] == 16*) GOTO 0x0672
192: 0x066A [0x03] ExtData[1]->WorkLocal[21] = 0*
193: 0x066F [0x01] GOTO 0x0757
194: 0x0672 [0x02] IF !(ExtData[1]->WorkLocal[4] == 17*) GOTO 0x0682
195: 0x067A [0x03] ExtData[1]->WorkLocal[21] = 0*
196: 0x067F [0x01] GOTO 0x0757
197: 0x0682 [0x02] IF !(ExtData[1]->WorkLocal[4] == 18*) GOTO 0x0692
198: 0x068A [0x03] ExtData[1]->WorkLocal[21] = 0*
199: 0x068F [0x01] GOTO 0x0757
200: 0x0692 [0x02] IF !(ExtData[1]->WorkLocal[4] == 19*) GOTO 0x06A2
201: 0x069A [0x03] ExtData[1]->WorkLocal[21] = 0*
202: 0x069F [0x01] GOTO 0x0757
203: 0x06A2 [0x02] IF !(ExtData[1]->WorkLocal[4] == 20*) GOTO 0x06B2
204: 0x06AA [0x03] ExtData[1]->WorkLocal[21] = 0*
205: 0x06AF [0x01] GOTO 0x0757
206: 0x06B2 [0x02] IF !(ExtData[1]->WorkLocal[4] == 21*) GOTO 0x06C2
207: 0x06BA [0x03] ExtData[1]->WorkLocal[21] = 0*
208: 0x06BF [0x01] GOTO 0x0757
209: 0x06C2 [0x02] IF !(ExtData[1]->WorkLocal[4] == 22*) GOTO 0x06D2
210: 0x06CA [0x03] ExtData[1]->WorkLocal[21] = 0*
211: 0x06CF [0x01] GOTO 0x0757
212: 0x06D2 [0x02] IF !(ExtData[1]->WorkLocal[4] == 23*) GOTO 0x06E2
213: 0x06DA [0x03] ExtData[1]->WorkLocal[21] = 0*
214: 0x06DF [0x01] GOTO 0x0757
215: 0x06E2 [0x02] IF !(ExtData[1]->WorkLocal[4] == 24*) GOTO 0x06F2
216: 0x06EA [0x03] ExtData[1]->WorkLocal[21] = 0*
217: 0x06EF [0x01] GOTO 0x0757
218: 0x06F2 [0x02] IF !(ExtData[1]->WorkLocal[4] == 25*) GOTO 0x0702
219: 0x06FA [0x03] ExtData[1]->WorkLocal[21] = 0*
220: 0x06FF [0x01] GOTO 0x0757
221: 0x0702 [0x02] IF !(ExtData[1]->WorkLocal[4] == 26*) GOTO 0x0712
222: 0x070A [0x03] ExtData[1]->WorkLocal[21] = 0*
223: 0x070F [0x01] GOTO 0x0757
224: 0x0712 [0x02] IF !(ExtData[1]->WorkLocal[4] == 27*) GOTO 0x0722
225: 0x071A [0x03] ExtData[1]->WorkLocal[21] = 0*
226: 0x071F [0x01] GOTO 0x0757
227: 0x0722 [0x02] IF !(ExtData[1]->WorkLocal[4] == 28*) GOTO 0x0732
228: 0x072A [0x03] ExtData[1]->WorkLocal[21] = 0*
229: 0x072F [0x01] GOTO 0x0757
230: 0x0732 [0x02] IF !(ExtData[1]->WorkLocal[4] == 29*) GOTO 0x0742
231: 0x073A [0x03] ExtData[1]->WorkLocal[21] = 0*
232: 0x073F [0x01] GOTO 0x0757
233: 0x0742 [0x02] IF !(ExtData[1]->WorkLocal[4] == 30*) GOTO 0x0752
234: 0x074A [0x03] ExtData[1]->WorkLocal[21] = 0*
235: 0x074F [0x01] GOTO 0x0757
236: 0x0752 [0x03] ExtData[1]->WorkLocal[21] = 0*

SUBROUTINE_0757:
237: 0x0757 [0x02] IF !(ExtData[1]->WorkLocal[2] == 1*) GOTO 0x0772
238: 0x075F [0x5C] MUSIC_CONTROL: Set Idle (Day) music to song 143*
239: 0x0763 [0x5C] MUSIC_CONTROL: Set Idle (Night) music to song 143*
240: 0x0767 [0x5C] MUSIC_CONTROL: Set Combat (Solo) music to song 143*
241: 0x076B [0x5C] MUSIC_CONTROL: Set Combat (Party) music to song 143*
242: 0x076F [0x01] GOTO 0x078A
243: 0x0772 [0x02] IF !(ExtData[1]->WorkLocal[21] == 0*) GOTO 0x078A
244: 0x077A [0x5C] MUSIC_CONTROL: Set Idle (Day) music to song 143*
245: 0x077E [0x5C] MUSIC_CONTROL: Set Idle (Night) music to song 143*
246: 0x0782 [0x5C] MUSIC_CONTROL: Set Combat (Solo) music to song 143*
247: 0x0786 [0x5C] MUSIC_CONTROL: Set Combat (Party) music to song 143*

SUBROUTINE_078A:
248: 0x078A [0x02] IF !(ExtData[1]->WorkLocal[2] == 0*) GOTO 0x0798
249: 0x0792 [0x1A] CALL_SUBROUTINE(address=0x1019)
250: 0x0795 [0x01] GOTO 0x07D1
251: 0x0798 [0x6C] FADE_ENTITY_COLOR(entity_id=LocalPlayer, end_alpha=0*, fade_time=1*)
252: 0x07A1 [0x62] LOAD_EVENT_SCHEDULER: Load scheduler "main" with entities [LocalPlayer, LocalPlayer], work=[2*, 0*]
253: 0x07B2 [0x45] LOAD_SCHEDULED_TASK: Load scheduler "ovl1" with entities [LocalPlayer, LocalPlayer], work=[200*, 0*]
254: 0x07C3 [0x46] CAMERA_CONTROL: Query status
255: 0x07C5 [0x12] 0x0200 = rand()
256: 0x07C8 [0x12] ExtData[1]->WorkLocal[0] = rand()
257: 0x07CB [0x80] LOAD_WAIT(entity=Unknown NPC (ID: 1174917376/0x4607D100))
258: 0x07D0 [0x00] END_REQSTACK()

SUBROUTINE_07D1:
259: 0x07D1 [0x03] Work_Zone[1] = 100*
260: 0x07D6 [0x07] Work_Zone[1] += ExtData[1]->WorkLocal[3]
261: 0x07DB [0x01] GOTO 0x07F8

SUBROUTINE_07E1:
262: 0x07E1 [0x0B] ExtData[1]->WorkLocal[0]++
263: 0x07E4 [0x02] IF !(0* == 1*) GOTO 0x07F1
264: 0x07EC [0x03] ExtData[1]->WorkLocal[0] = 4*
265: 0x07F1 [0x01] GOTO 0x01A4
266: 0x07F4 [0x48] [System] [7330*]:
    → "You cannot enter the battlefield at present. Please wait a little longer."
267: 0x07F7 [0x23] WAIT_FOR_DIALOG_INTERACTION

SUBROUTINE_07F8:
268: 0x07F8 [0x45] LOAD_SCHEDULED_TASK: Load scheduler "whi1" with entities [LocalPlayer, LocalPlayer], work=[201*, 0*]
269: 0x0809 [0x45] LOAD_SCHEDULED_TASK: Load scheduler "blof" with entities [LocalPlayer, LocalPlayer], work=[200*, 0*]
270: 0x081A [0x45] LOAD_SCHEDULED_TASK: Load scheduler "fdi0" with entities [LocalPlayer, LocalPlayer], work=[200*, 0*]

SUBROUTINE_082B:
271: 0x082B [0x02] IF !(ExtData[1]->WorkLocal[7] == 1*) GOTO 0x0843
272: 0x0833 [0x5C] MUSIC_CONTROL: Set Idle (Day) music to song 0*
273: 0x0837 [0x5C] MUSIC_CONTROL: Set Idle (Night) music to song 0*
274: 0x083B [0x5C] MUSIC_CONTROL: Set Combat (Solo) music to song 143*
275: 0x083F [0x5C] MUSIC_CONTROL: Set Combat (Party) music to song 143*
276: 0x0843 [0x21] END_EVENT
277: 0x0844 [0x00] END_REQSTACK()

SUBROUTINE_0845:
278: 0x0845 [0x1B] RETURN
```

#### Data or dead code:

```
# Dead code (unreachable instructions):
     0x0070 [0x01] GOTO 0x0145
# Dead code (unreachable instructions):
     0x0116 [0x01] GOTO 0x011E
# Dead code (unreachable instructions):
     0x0142 [0x01] GOTO 0x0145
# Dead code (unreachable instructions):
     0x025C [0x01] GOTO 0x07E1
     0x026E [0x01] GOTO 0x07E1
# Dead code (unreachable instructions):
     0x0470 [0x01] GOTO 0x07E1
     0x047E [0x01] GOTO 0x07E1
# Dead code (unreachable instructions):
     0x07DE [0x01] GOTO 0x07E1
```

### Event 32002

#### Metadata

| Field        | Value     |
|--------------|-----------|
| Entrypoint   | 0x0846    |
| Data Size    | 494 bytes |
| Instructions | 83        |

```
      00 01 02 03 04 05 06 07  08 09 0A 0B 0C 0D 0E 0F
      -- -- -- -- -- -- -- --  -- -- -- -- -- -- -- --
0840:                   03 05  00 06 10 03 21 00 07 10        ......!...
0850: 03 20 00 08 10 20 01 42  3B F0 FF FF 7F 20 10 21  . ... .B;.... .!
0860: 10 22 10 3A F0 FF FF 7F  23 10 45 0E 80 F0 FF FF  .".:....#.E.....
0870: 7F F0 FF FF 7F 66 64 6F  31 00 80 55 0E 80 F0 FF  .....fdo1..U....
0880: FF 7F F0 FF FF 7F 66 64  6F 31 02 00 80 05 80 00  ......fdo1......
0890: F1 08 02 05 00 05 80 80  A9 08 47 00 00 80 00 80  ..........G.....
08A0: 00 80 00 80 47 01 01 EE  08 02 05 00 09 80 80 C0  ....G...........
08B0: 08 47 00 00 80 00 80 00  80 00 80 47 01 01 EE 08  .G.........G....
08C0: 02 05 00 0A 80 80 D7 08  47 00 00 80 00 80 00 80  ........G.......
08D0: 00 80 47 01 01 EE 08 02  05 00 0B 80 80 EE 08 47  ..G............G
08E0: 00 00 80 00 80 00 80 00  80 47 01 01 EE 08 01 FA  .........G......
08F0: 09 02 20 00 36 80 80 7B  09 02 21 00 00 80 80 10  .. .6..{..!.....
0900: 09 47 00 37 80 38 80 39  80 3A 80 47 01 01 78 09  .G.7.8.9.:.G..x.
0910: 02 21 00 05 80 80 27 09  47 00 3B 80 3C 80 3D 80  .!....'.G.;.<.=.
0920: 3E 80 47 01 01 78 09 02  21 00 09 80 80 3E 09 47  >.G..x..!....>.G
0930: 00 3F 80 40 80 41 80 42  80 47 01 01 78 09 02 21  .?.@.A.B.G..x..!
0940: 00 0A 80 80 55 09 47 00  43 80 44 80 45 80 46 80  ....U.G.C.D.E.F.
0950: 47 01 01 78 09 02 21 00  0B 80 80 6C 09 47 00 47  G..x..!....l.G.G
0960: 80 48 80 49 80 4A 80 47  01 01 78 09 47 00 4B 80  .H.I.J.G..x.G.K.
0970: 4C 80 4D 80 4E 80 47 01  01 FA 09 02 20 00 18 80  L.M.N.G..... ...
0980: 80 EE 09 02 21 00 05 80  80 9A 09 47 00 4F 80 50  ....!......G.O.P
0990: 80 51 80 52 80 47 01 01  EB 09 02 21 00 09 80 80  .Q.R.G.....!....
09A0: B1 09 47 00 53 80 54 80  55 80 56 80 47 01 01 EB  ..G.S.T.U.V.G...
09B0: 09 02 21 00 0A 80 80 C8  09 47 00 57 80 58 80 59  ..!......G.W.X.Y
09C0: 80 5A 80 47 01 01 EB 09  02 21 00 0B 80 80 DF 09  .Z.G.....!......
09D0: 47 00 5B 80 5C 80 5D 80  5E 80 47 01 01 EB 09 47  G.[.\.].^.G....G
09E0: 00 4B 80 4C 80 4D 80 4E  80 47 01 01 FA 09 47 00  .K.L.M.N.G....G.
09F0: 4B 80 4C 80 4D 80 4E 80  47 01 38 0F 80 1A 74 67  K.L.M.N.G.8...tg
0A00: 45 35 80 F0 FF FF 7F F0  FF FF 7F 77 68 69 31 00  E5.........whi1.
0A10: 80 45 0E 80 F0 FF FF 7F  F0 FF FF 7F 62 6C 6F 66  .E..........blof
0A20: 00 80 5C 00 00 80 5C 01  00 80 5C 02 33 80 5C 03  ..\...\...\.3.\.
0A30: 33 80 21 00                                       3.!.            
```

#### Opcodes

```
  0: 0x0846 [0x03] ExtData[1]->WorkLocal[5] = Work_Zone[6]
  1: 0x084B [0x03] ExtData[1]->WorkLocal[33] = Work_Zone[7]
  2: 0x0850 [0x03] ExtData[1]->WorkLocal[32] = Work_Zone[8]
  3: 0x0855 [0x20] SET_CLI_EVENT_UC_FLAG: Lock player control
  4: 0x0857 [0x42] SET_CLI_EVENT_CANCEL_DATA()
  5: 0x0858 [0x3B] GET_ENTITY_POSITION(entity=LocalPlayer, x_destination=Work_Zone[32], y_destination=Work_Zone[33], z_destination=Work_Zone[34])
  6: 0x0863 [0x3A] CONVERT_YAW_TO_BYTE(entity=LocalPlayer, result_destination=Work_Zone[35])
  7: 0x086A [0x45] LOAD_SCHEDULED_TASK: Load scheduler "fdo1" with entities [LocalPlayer, LocalPlayer], work=[200*, 0*]
  8: 0x087B [0x55] WAIT_LOAD_SCHEDULER: Wait for scheduler "fdo1" with entities [LocalPlayer, LocalPlayer], work=200*
  9: 0x088A [0x02] IF !(0* == 1*) GOTO 0x08F1
 10: 0x0892 [0x02] IF !(ExtData[1]->WorkLocal[5] == 1*) GOTO 0x08A9
 11: 0x089A [0x47] UPDATE_PLAYER_POS(0.000*, 0.000*, 0.000*, yaw=0.0°*)
 12: 0x08A4 [0x47] WAIT_PLAYER_POS_UPDATE
 13: 0x08A6 [0x01] GOTO 0x08EE
 14: 0x08A9 [0x02] IF !(ExtData[1]->WorkLocal[5] == 2*) GOTO 0x08C0
 15: 0x08B1 [0x47] UPDATE_PLAYER_POS(0.000*, 0.000*, 0.000*, yaw=0.0°*)
 16: 0x08BB [0x47] WAIT_PLAYER_POS_UPDATE
 17: 0x08BD [0x01] GOTO 0x08EE
 18: 0x08C0 [0x02] IF !(ExtData[1]->WorkLocal[5] == 3*) GOTO 0x08D7
 19: 0x08C8 [0x47] UPDATE_PLAYER_POS(0.000*, 0.000*, 0.000*, yaw=0.0°*)
 20: 0x08D2 [0x47] WAIT_PLAYER_POS_UPDATE
 21: 0x08D4 [0x01] GOTO 0x08EE
 22: 0x08D7 [0x02] IF !(ExtData[1]->WorkLocal[5] == 4*) GOTO 0x08EE
 23: 0x08DF [0x47] UPDATE_PLAYER_POS(0.000*, 0.000*, 0.000*, yaw=0.0°*)
 24: 0x08E9 [0x47] WAIT_PLAYER_POS_UPDATE
 25: 0x08EB [0x01] GOTO 0x08EE

SUBROUTINE_08EE:
 26: 0x08EE [0x01] GOTO 0x09FA
 27: 0x08F1 [0x02] IF !(ExtData[1]->WorkLocal[32] == 180*) GOTO 0x097B
 28: 0x08F9 [0x02] IF !(ExtData[1]->WorkLocal[33] == 0*) GOTO 0x0910
 29: 0x0901 [0x47] UPDATE_PLAYER_POS(-605.141*, 479.929*, -22.681*, yaw=87.2°*)
 30: 0x090B [0x47] WAIT_PLAYER_POS_UPDATE
 31: 0x090D [0x01] GOTO 0x0978
 32: 0x0910 [0x02] IF !(ExtData[1]->WorkLocal[33] == 1*) GOTO 0x0927
 33: 0x0918 [0x47] UPDATE_PLAYER_POS(-262.589*, 377.857*, -137.313*, yaw=305.3°*)
 34: 0x0922 [0x47] WAIT_PLAYER_POS_UPDATE
 35: 0x0924 [0x01] GOTO 0x0978
 36: 0x0927 [0x02] IF !(ExtData[1]->WorkLocal[33] == 2*) GOTO 0x093E
 37: 0x092F [0x47] UPDATE_PLAYER_POS(18.348*, 486.940*, -224.334*, yaw=17.1°*)
 38: 0x0939 [0x47] WAIT_PLAYER_POS_UPDATE
 39: 0x093B [0x01] GOTO 0x0978
 40: 0x093E [0x02] IF !(ExtData[1]->WorkLocal[33] == 3*) GOTO 0x0955
 41: 0x0946 [0x47] UPDATE_PLAYER_POS(231.593*, 360.094*, -173.572*, yaw=160.8°*)
 42: 0x0950 [0x47] WAIT_PLAYER_POS_UPDATE
 43: 0x0952 [0x01] GOTO 0x0978
 44: 0x0955 [0x02] IF !(ExtData[1]->WorkLocal[33] == 4*) GOTO 0x096C
 45: 0x095D [0x47] UPDATE_PLAYER_POS(553.664*, 523.939*, -38.205*, yaw=233.9°*)
 46: 0x0967 [0x47] WAIT_PLAYER_POS_UPDATE
 47: 0x0969 [0x01] GOTO 0x0978
 48: 0x096C [0x47] UPDATE_PLAYER_POS(299.992*, -195.439*, -0.402*, yaw=270.0°*)
 49: 0x0976 [0x47] WAIT_PLAYER_POS_UPDATE

SUBROUTINE_0978:
 50: 0x0978 [0x01] GOTO 0x09FA
 51: 0x097B [0x02] IF !(ExtData[1]->WorkLocal[32] == 6*) GOTO 0x09EE
 52: 0x0983 [0x02] IF !(ExtData[1]->WorkLocal[33] == 1*) GOTO 0x099A
 53: 0x098B [0x47] UPDATE_PLAYER_POS(-875.117*, -43.892*, -48.084*, yaw=45.1°*)
 54: 0x0995 [0x47] WAIT_PLAYER_POS_UPDATE
 55: 0x0997 [0x01] GOTO 0x09EB
 56: 0x099A [0x02] IF !(ExtData[1]->WorkLocal[33] == 2*) GOTO 0x09B1
 57: 0x09A2 [0x47] UPDATE_PLAYER_POS(-755.499*, 563.947*, -112.035*, yaw=313.5°*)
 58: 0x09AC [0x47] WAIT_PLAYER_POS_UPDATE
 59: 0x09AE [0x01] GOTO 0x09EB
 60: 0x09B1 [0x02] IF !(ExtData[1]->WorkLocal[33] == 3*) GOTO 0x09C8
 61: 0x09B9 [0x47] UPDATE_PLAYER_POS(123.251*, 754.209*, -172.124*, yaw=38.7°*)
 62: 0x09C3 [0x47] WAIT_PLAYER_POS_UPDATE
 63: 0x09C5 [0x01] GOTO 0x09EB
 64: 0x09C8 [0x02] IF !(ExtData[1]->WorkLocal[33] == 4*) GOTO 0x09DF
 65: 0x09D0 [0x47] UPDATE_PLAYER_POS(-516.404*, -803.323*, 24.206*, yaw=38.4°*)
 66: 0x09DA [0x47] WAIT_PLAYER_POS_UPDATE
 67: 0x09DC [0x01] GOTO 0x09EB
 68: 0x09DF [0x47] UPDATE_PLAYER_POS(299.992*, -195.439*, -0.402*, yaw=270.0°*)
 69: 0x09E9 [0x47] WAIT_PLAYER_POS_UPDATE

SUBROUTINE_09EB:
 70: 0x09EB [0x01] GOTO 0x09FA
 71: 0x09EE [0x47] UPDATE_PLAYER_POS(299.992*, -195.439*, -0.402*, yaw=270.0°*)
 72: 0x09F8 [0x47] WAIT_PLAYER_POS_UPDATE

SUBROUTINE_09FA:
 73: 0x09FA [0x38] SET_CLIENT_EVENT_MODE(mode=19*)
 74: 0x09FD [0x1A] CALL_SUBROUTINE(address=0x6774)
 75: 0x0A00 [0x45] LOAD_SCHEDULED_TASK: Load scheduler "whi1" with entities [LocalPlayer, LocalPlayer], work=[201*, 0*]
 76: 0x0A11 [0x45] LOAD_SCHEDULED_TASK: Load scheduler "blof" with entities [LocalPlayer, LocalPlayer], work=[200*, 0*]
 77: 0x0A22 [0x5C] MUSIC_CONTROL: Set Idle (Day) music to song 0*
 78: 0x0A26 [0x5C] MUSIC_CONTROL: Set Idle (Night) music to song 0*
 79: 0x0A2A [0x5C] MUSIC_CONTROL: Set Combat (Solo) music to song 143*
 80: 0x0A2E [0x5C] MUSIC_CONTROL: Set Combat (Party) music to song 143*
 81: 0x0A32 [0x21] END_EVENT
 82: 0x0A33 [0x00] END_REQSTACK()
```

### Event 32001

#### Metadata

| Field        | Value      |
|--------------|------------|
| Entrypoint   | 0x0A34     |
| Data Size    | 1049 bytes |
| Instructions | 180        |

```
      00 01 02 03 04 05 06 07  08 09 0A 0B 0C 0D 0E 0F
      -- -- -- -- -- -- -- --  -- -- -- -- -- -- -- --
0A30:             79 00 F0 FF  FF 7F F0 FF FF 7F 03 21      y..........!
0A40: 00 02 10 03 1A 00 03 10  03 1B 00 05 10 03 20 00  .............. .
0A50: 06 10 03 19 00 07 10 03  17 00 08 10 02 17 00 0A  ................
0A60: 80 04 69 0A 03 17 00 00  80 02 19 00 19 80 80 79  ..i............y
0A70: 0A 03 17 00 09 80 01 79  0A 03 1C 00 09 10 20 01  .......y...... .
0A80: 42 3B F0 FF FF 7F 20 10  21 10 22 10 3A F0 FF FF  B;.... .!.".:...
0A90: 7F 23 10 02 20 00 36 80  01 9E 0A 1C 5F 80 45 35  .#.. .6....._.E5
0AA0: 80 F0 FF FF 7F F0 FF FF  7F 77 68 69 31 00 80 45  .........whi1..E
0AB0: 0E 80 F0 FF FF 7F F0 FF  FF 7F 62 6C 6F 66 00 80  ..........blof..
0AC0: 45 0E 80 F0 FF FF 7F F0  FF FF 7F 66 64 6F 31 00  E..........fdo1.
0AD0: 80 55 0E 80 F0 FF FF 7F  F0 FF FF 7F 66 64 6F 31  .U..........fdo1
0AE0: 6C F0 FF FF 7F 60 80 05  80 06 01 10 02 17 00 00  l....`..........
0AF0: 80 03 F7 0A 01 45 0C 02  20 00 36 80 80 81 0B 02  .....E.. .6.....
0B00: 21 00 00 80 80 16 0B 47  00 61 80 62 80 63 80 64  !......G.a.b.c.d
0B10: 80 47 01 01 7E 0B 02 21  00 05 80 80 2D 0B 47 00  .G..~..!....-.G.
0B20: 65 80 66 80 67 80 68 80  47 01 01 7E 0B 02 21 00  e.f.g.h.G..~..!.
0B30: 09 80 80 44 0B 47 00 69  80 6A 80 6B 80 6C 80 47  ...D.G.i.j.k.l.G
0B40: 01 01 7E 0B 02 21 00 0A  80 80 5B 0B 47 00 6D 80  ..~..!....[.G.m.
0B50: 6E 80 6F 80 70 80 47 01  01 7E 0B 02 21 00 0B 80  n.o.p.G..~..!...
0B60: 80 72 0B 47 00 71 80 72  80 73 80 74 80 47 01 01  .r.G.q.r.s.t.G..
0B70: 7E 0B 47 00 75 80 76 80  77 80 4E 80 47 01 01 45  ~.G.u.v.w.N.G..E
0B80: 0C 02 20 00 78 80 80 AF  0B 02 19 00 00 80 80 A0  .. .x...........
0B90: 0B 47 00 75 80 76 80 77  80 4E 80 47 01 01 AC 0B  .G.u.v.w.N.G....
0BA0: 47 00 79 80 7A 80 7B 80  7C 80 47 01 01 45 0C 02  G.y.z.{.|.G..E..
0BB0: 20 00 7D 80 80 DD 0B 02  19 00 0B 80 80 CE 0B 47   .}............G
0BC0: 00 7E 80 7F 80 80 80 81  80 47 01 01 DA 0B 47 00  .~.......G....G.
0BD0: 75 80 76 80 77 80 4E 80  47 01 01 45 0C 02 20 00  u.v.w.N.G..E.. .
0BE0: 82 80 80 0B 0C 02 19 00  0B 80 80 FC 0B 47 00 83  .............G..
0BF0: 80 84 80 85 80 86 80 47  01 01 08 0C 47 00 75 80  .......G....G.u.
0C00: 76 80 77 80 4E 80 47 01  01 45 0C 02 20 00 87 80  v.w.N.G..E.. ...
0C10: 80 39 0C 02 19 00 0A 80  80 2A 0C 47 00 88 80 89  .9.......*.G....
0C20: 80 8A 80 8B 80 47 01 01  36 0C 47 00 75 80 76 80  .....G..6.G.u.v.
0C30: 77 80 4E 80 47 01 01 45  0C 47 00 75 80 76 80 77  w.N.G..E.G.u.v.w
0C40: 80 4E 80 47 01 38 0F 80  02 17 00 09 80 00 53 0C  .N.G.8........S.
0C50: 01 6E 0C 02 17 00 05 80  00 1E 0D 1C 01 80 24 32  .n............$2
0C60: 80 05 80 00 80 25 02 00  10 00 80 00 1E 0D 02 20  .....%......... 
0C70: 00 36 80 00 DA 0C 02 21  00 00 80 80 88 0C 36 61  .6.....!......6a
0C80: 80 62 80 63 80 01 D7 0C  02 21 00 05 80 80 9A 0C  .b.c.....!......
0C90: 36 65 80 66 80 67 80 01  D7 0C 02 21 00 09 80 80  6e.f.g.....!....
0CA0: AC 0C 36 69 80 6A 80 6B  80 01 D7 0C 02 21 00 0A  ..6i.j.k.....!..
0CB0: 80 80 BE 0C 36 6D 80 6E  80 6F 80 01 D7 0C 02 21  ....6m.n.o.....!
0CC0: 00 0B 80 80 D0 0C 36 71  80 72 80 73 80 01 D7 0C  ......6q.r.s....
0CD0: 36 75 80 76 80 77 80 01  E3 0C 37 75 80 76 80 77  6u.v.w....7u.v.w
0CE0: 80 4E 80 80 F0 FF FF 7F  62 09 80 F0 FF FF 7F F0  .N......b.......
0CF0: FF FF 7F 6D 61 69 6E 00  80 45 0E 80 F0 FF FF 7F  ...main..E......
0D00: F0 FF FF 7F 66 64 69 32  00 80 46 02 12 00 02 12  ....fdi2..F.....
0D10: 00 00 80 00 18 0D 46 00  01 45 0D 01 1E 0D 02 17  ......F..E......
0D20: 00 04 80 04 37 0D 5C 00  33 80 5C 01 33 80 5C 02  ....7.\.3.\.3.\.
0D30: 33 80 5C 03 33 80 9A 1A  E9 1C 02 17 00 00 80 03  3.\.3...........
0D40: 45 0D 01 E5 0D 02 20 00  8C 80 80 50 0D 01 50 0D  E..... ....P..P.
0D50: 02 20 00 1F 80 80 5B 0D  01 E5 0D 02 20 00 0F 80  . ....[..... ...
0D60: 80 66 0D 01 E5 0D 02 20  00 21 80 80 71 0D 01 E5  .f..... .!..q...
0D70: 0D 02 20 00 23 80 80 7C  0D 01 E5 0D 03 05 10 1B  .. .#..|........
0D80: 00 02 05 10 00 80 02 E5  0D 02 05 10 2E 80 04 A4  ................
0D90: 0D 3F 04 10 05 10 2E 80  15 05 10 2E 80 48 8D 80  .?...........H..
0DA0: 23 01 A8 0D 48 8E 80 23  02 1B 00 1A 00 05 BC 0D  #...H..#........
0DB0: 03 07 10 19 00 48 8F 80  23 01 E5 0D 02 1A 00 2E  .....H..#.......
0DC0: 80 04 DC 0D 03 05 10 1A  00 3F 04 10 05 10 2E 80  .........?......
0DD0: 15 05 10 2E 80 48 90 80  23 01 E5 0D 03 05 10 1A  .....H..#.......
0DE0: 00 48 91 80 23 02 18 00  00 80 00 FD 0D 5C 00 00  .H..#........\..
0DF0: 80 5C 01 00 80 5C 02 33  80 5C 03 33 80 02 17 00  .\...\.3.\.3....
0E00: 00 80 03 26 0E 45 0E 80  F0 FF FF 7F F0 FF FF 7F  ...&.E..........
0E10: 66 64 69 32 00 80 5C 00  00 80 5C 01 00 80 5C 02  fdi2..\...\...\.
0E20: 33 80 5C 03 33 80 06 18  00 45 35 80 F0 FF FF 7F  3.\.3....E5.....
0E30: F0 FF FF 7F 77 68 69 31  00 80 45 0E 80 F0 FF FF  ....whi1..E.....
0E40: 7F F0 FF FF 7F 62 6C 6F  66 00 80 21 00           .....blof..!.   
```

#### Opcodes

```
  0: 0x0A34 [0x79] LocalPlayer looks at LocalPlayer (Basic look)
  1: 0x0A3E [0x03] ExtData[1]->WorkLocal[33] = Work_Zone[2]
  2: 0x0A43 [0x03] ExtData[1]->WorkLocal[26] = Work_Zone[3]
  3: 0x0A48 [0x03] ExtData[1]->WorkLocal[27] = Work_Zone[5]
  4: 0x0A4D [0x03] ExtData[1]->WorkLocal[32] = Work_Zone[6]
  5: 0x0A52 [0x03] ExtData[1]->WorkLocal[25] = Work_Zone[7]
  6: 0x0A57 [0x03] ExtData[1]->WorkLocal[23] = Work_Zone[8]
  7: 0x0A5C [0x02] IF !(ExtData[1]->WorkLocal[23] < 3*) GOTO 0x0A69
  8: 0x0A64 [0x03] ExtData[1]->WorkLocal[23] = 0*
  9: 0x0A69 [0x02] IF !(ExtData[1]->WorkLocal[25] == 7*) GOTO 0x0A79
 10: 0x0A71 [0x03] ExtData[1]->WorkLocal[23] = 2*
 11: 0x0A76 [0x01] GOTO 0x0A79

SUBROUTINE_0A79:
 12: 0x0A79 [0x03] ExtData[1]->WorkLocal[28] = Work_Zone[9]
 13: 0x0A7E [0x20] SET_CLI_EVENT_UC_FLAG: Lock player control
 14: 0x0A80 [0x42] SET_CLI_EVENT_CANCEL_DATA()
 15: 0x0A81 [0x3B] GET_ENTITY_POSITION(entity=LocalPlayer, x_destination=Work_Zone[32], y_destination=Work_Zone[33], z_destination=Work_Zone[34])
 16: 0x0A8C [0x3A] CONVERT_YAW_TO_BYTE(entity=LocalPlayer, result_destination=Work_Zone[35])
 17: 0x0A93 [0x02] IF !(ExtData[1]->WorkLocal[32] == 180*) GOTO 0x0A9E
 18: 0x0A9B [0x1C] WAIT(300* ticks)
 19: 0x0A9E [0x45] LOAD_SCHEDULED_TASK: Load scheduler "whi1" with entities [LocalPlayer, LocalPlayer], work=[201*, 0*]
 20: 0x0AAF [0x45] LOAD_SCHEDULED_TASK: Load scheduler "blof" with entities [LocalPlayer, LocalPlayer], work=[200*, 0*]
 21: 0x0AC0 [0x45] LOAD_SCHEDULED_TASK: Load scheduler "fdo1" with entities [LocalPlayer, LocalPlayer], work=[200*, 0*]
 22: 0x0AD1 [0x55] WAIT_LOAD_SCHEDULER: Wait for scheduler "fdo1" with entities [LocalPlayer, LocalPlayer], work=200*
 23: 0x0AE0 [0x6C] FADE_ENTITY_COLOR(entity_id=LocalPlayer, end_alpha=128*, fade_time=1*)
 24: 0x0AE9 [0x06] Work_Zone[1] = 0
 25: 0x0AEC [0x02] IF !(ExtData[1]->WorkLocal[23] >= 0*) GOTO 0x0AF7
 26: 0x0AF4 [0x01] GOTO 0x0C45
 27: 0x0AF7 [0x02] IF !(ExtData[1]->WorkLocal[32] == 180*) GOTO 0x0B81
 28: 0x0AFF [0x02] IF !(ExtData[1]->WorkLocal[33] == 0*) GOTO 0x0B16
 29: 0x0B07 [0x47] UPDATE_PLAYER_POS(-618.329*, -643.868*, -25.805*, yaw=330.5°*)
 30: 0x0B11 [0x47] WAIT_PLAYER_POS_UPDATE
 31: 0x0B13 [0x01] GOTO 0x0B7E
 32: 0x0B16 [0x02] IF !(ExtData[1]->WorkLocal[33] == 1*) GOTO 0x0B2D
 33: 0x0B1E [0x47] UPDATE_PLAYER_POS(-332.163*, -441.914*, -95.055*, yaw=330.5°*)
 34: 0x0B28 [0x47] WAIT_PLAYER_POS_UPDATE
 35: 0x0B2A [0x01] GOTO 0x0B7E
 36: 0x0B2D [0x02] IF !(ExtData[1]->WorkLocal[33] == 2*) GOTO 0x0B44
 37: 0x0B35 [0x47] UPDATE_PLAYER_POS(-12.464*, -648.377*, -194.629*, yaw=331.3°*)
 38: 0x0B3F [0x47] WAIT_PLAYER_POS_UPDATE
 39: 0x0B41 [0x01] GOTO 0x0B7E
 40: 0x0B44 [0x02] IF !(ExtData[1]->WorkLocal[33] == 3*) GOTO 0x0B5B
 41: 0x0B4C [0x47] UPDATE_PLAYER_POS(323.381*, -443.793*, -108.440*, yaw=329.1°*)
 42: 0x0B56 [0x47] WAIT_PLAYER_POS_UPDATE
 43: 0x0B58 [0x01] GOTO 0x0B7E
 44: 0x0B5B [0x02] IF !(ExtData[1]->WorkLocal[33] == 4*) GOTO 0x0B72
 45: 0x0B63 [0x47] UPDATE_PLAYER_POS(599.907*, -676.969*, -22.473*, yaw=330.7°*)
 46: 0x0B6D [0x47] WAIT_PLAYER_POS_UPDATE
 47: 0x0B6F [0x01] GOTO 0x0B7E
 48: 0x0B72 [0x47] UPDATE_PLAYER_POS(260.033*, -236.031*, 8.511*, yaw=270.0°*)
 49: 0x0B7C [0x47] WAIT_PLAYER_POS_UPDATE

SUBROUTINE_0B7E:
 50: 0x0B7E [0x01] GOTO 0x0C45
 51: 0x0B81 [0x02] IF !(ExtData[1]->WorkLocal[32] == 168*) GOTO 0x0BAF
 52: 0x0B89 [0x02] IF !(ExtData[1]->WorkLocal[25] == 0*) GOTO 0x0BA0
 53: 0x0B91 [0x47] UPDATE_PLAYER_POS(260.033*, -236.031*, 8.511*, yaw=270.0°*)
 54: 0x0B9B [0x47] WAIT_PLAYER_POS_UPDATE
 55: 0x0B9D [0x01] GOTO 0x0BAC
 56: 0x0BA0 [0x47] UPDATE_PLAYER_POS(200.059*, -21.958*, -0.250*, yaw=91.5°*)
 57: 0x0BAA [0x47] WAIT_PLAYER_POS_UPDATE

SUBROUTINE_0BAC:
 58: 0x0BAC [0x01] GOTO 0x0C45
 59: 0x0BAF [0x02] IF !(ExtData[1]->WorkLocal[32] == 202*) GOTO 0x0BDD
 60: 0x0BB7 [0x02] IF !(ExtData[1]->WorkLocal[25] == 4*) GOTO 0x0BCE
 61: 0x0BBF [0x47] UPDATE_PLAYER_POS(538.604*, 501.900*, -13.942*, yaw=286.5°*)
 62: 0x0BC9 [0x47] WAIT_PLAYER_POS_UPDATE
 63: 0x0BCB [0x01] GOTO 0x0BDA
 64: 0x0BCE [0x47] UPDATE_PLAYER_POS(260.033*, -236.031*, 8.511*, yaw=270.0°*)
 65: 0x0BD8 [0x47] WAIT_PLAYER_POS_UPDATE

SUBROUTINE_0BDA:
 66: 0x0BDA [0x01] GOTO 0x0C45
 67: 0x0BDD [0x02] IF !(ExtData[1]->WorkLocal[32] == 203*) GOTO 0x0C0B
 68: 0x0BE5 [0x02] IF !(ExtData[1]->WorkLocal[25] == 4*) GOTO 0x0BFC
 69: 0x0BED [0x47] UPDATE_PLAYER_POS(553.205*, 589.633*, -0.021*, yaw=124.4°*)
 70: 0x0BF7 [0x47] WAIT_PLAYER_POS_UPDATE
 71: 0x0BF9 [0x01] GOTO 0x0C08
 72: 0x0BFC [0x47] UPDATE_PLAYER_POS(260.033*, -236.031*, 8.511*, yaw=270.0°*)
 73: 0x0C06 [0x47] WAIT_PLAYER_POS_UPDATE

SUBROUTINE_0C08:
 74: 0x0C08 [0x01] GOTO 0x0C45
 75: 0x0C0B [0x02] IF !(ExtData[1]->WorkLocal[32] == 211*) GOTO 0x0C39
 76: 0x0C13 [0x02] IF !(ExtData[1]->WorkLocal[25] == 3*) GOTO 0x0C2A
 77: 0x0C1B [0x47] UPDATE_PLAYER_POS(569.224*, 548.462*, 36.837*, yaw=59.1°*)
 78: 0x0C25 [0x47] WAIT_PLAYER_POS_UPDATE
 79: 0x0C27 [0x01] GOTO 0x0C36
 80: 0x0C2A [0x47] UPDATE_PLAYER_POS(260.033*, -236.031*, 8.511*, yaw=270.0°*)
 81: 0x0C34 [0x47] WAIT_PLAYER_POS_UPDATE

SUBROUTINE_0C36:
 82: 0x0C36 [0x01] GOTO 0x0C45
 83: 0x0C39 [0x47] UPDATE_PLAYER_POS(260.033*, -236.031*, 8.511*, yaw=270.0°*)
 84: 0x0C43 [0x47] WAIT_PLAYER_POS_UPDATE

SUBROUTINE_0C45:
 85: 0x0C45 [0x38] SET_CLIENT_EVENT_MODE(mode=19*)
 86: 0x0C48 [0x02] IF !(ExtData[1]->WorkLocal[23] == 2*) GOTO 0x0C53
 87: 0x0C50 [0x01] GOTO 0x0C6E
 88: 0x0C53 [0x02] IF !(ExtData[1]->WorkLocal[23] == 1*) GOTO 0x0D1E
 89: 0x0C5B [0x1C] WAIT(15* ticks)
 90: 0x0C5E [0x24] CREATE_DIALOG(message_id=7666*, default_option=1*, option_flags=0*)
    → "Skip the event? [Yes./No.]"
 91: 0x0C65 [0x25] WAIT_DIALOG_SELECT()
 92: 0x0C66 [0x02] IF !(Work_Zone[0] == 0*) GOTO 0x0D1E

SUBROUTINE_0C6E:
 93: 0x0C6E [0x02] IF !(ExtData[1]->WorkLocal[32] == 180*) GOTO 0x0CDA
 94: 0x0C76 [0x02] IF !(ExtData[1]->WorkLocal[33] == 0*) GOTO 0x0C88
 95: 0x0C7E [0x36] SET_ENTITY_EVENT_POSITION(pos_x=-618.329*, pos_z=-643.868*, pos_y=-25.805*)
 96: 0x0C85 [0x01] GOTO 0x0CD7
 97: 0x0C88 [0x02] IF !(ExtData[1]->WorkLocal[33] == 1*) GOTO 0x0C9A
 98: 0x0C90 [0x36] SET_ENTITY_EVENT_POSITION(pos_x=-332.163*, pos_z=-441.914*, pos_y=-95.055*)
 99: 0x0C97 [0x01] GOTO 0x0CD7
100: 0x0C9A [0x02] IF !(ExtData[1]->WorkLocal[33] == 2*) GOTO 0x0CAC
101: 0x0CA2 [0x36] SET_ENTITY_EVENT_POSITION(pos_x=-12.464*, pos_z=-648.377*, pos_y=-194.629*)
102: 0x0CA9 [0x01] GOTO 0x0CD7
103: 0x0CAC [0x02] IF !(ExtData[1]->WorkLocal[33] == 3*) GOTO 0x0CBE
104: 0x0CB4 [0x36] SET_ENTITY_EVENT_POSITION(pos_x=323.381*, pos_z=-443.793*, pos_y=-108.440*)
105: 0x0CBB [0x01] GOTO 0x0CD7
106: 0x0CBE [0x02] IF !(ExtData[1]->WorkLocal[33] == 4*) GOTO 0x0CD0
107: 0x0CC6 [0x36] SET_ENTITY_EVENT_POSITION(pos_x=599.907*, pos_z=-676.969*, pos_y=-22.473*)
108: 0x0CCD [0x01] GOTO 0x0CD7
109: 0x0CD0 [0x36] SET_ENTITY_EVENT_POSITION(pos_x=260.033*, pos_z=-236.031*, pos_y=8.511*)

SUBROUTINE_0CD7:
110: 0x0CD7 [0x01] GOTO 0x0CE3
111: 0x0CDA [0x37] UPDATE_EVENT_POSITION_AND_DIR: x=260.033*, z=-236.031*, y=8.511*, direction=270.0°*

SUBROUTINE_0CE3:
112: 0x0CE3 [0x80] LOAD_WAIT(entity=LocalPlayer)
113: 0x0CE8 [0x62] LOAD_EVENT_SCHEDULER: Load scheduler "main" with entities [LocalPlayer, LocalPlayer], work=[2*, 0*]
114: 0x0CF9 [0x45] LOAD_SCHEDULED_TASK: Load scheduler "fdi2" with entities [LocalPlayer, LocalPlayer], work=[200*, 0*]
115: 0x0D0A [0x46] CAMERA_CONTROL: Query status
116: 0x0D0C [0x12] 0x0200 = rand()
117: 0x0D0F [0x12] ExtData[1]->WorkLocal[0] = rand()
118: 0x0D12 [0x80] LOAD_WAIT(entity=Unknown NPC (ID: 1175263232/0x460D1800))
119: 0x0D17 [0x00] END_REQSTACK()

SUBROUTINE_0D1E:
120: 0x0D1E [0x02] IF !(ExtData[1]->WorkLocal[23] < 4294967295*) GOTO 0x0D37
121: 0x0D26 [0x5C] MUSIC_CONTROL: Set Idle (Day) music to song 143*
122: 0x0D2A [0x5C] MUSIC_CONTROL: Set Idle (Night) music to song 143*
123: 0x0D2E [0x5C] MUSIC_CONTROL: Set Combat (Solo) music to song 143*
124: 0x0D32 [0x5C] MUSIC_CONTROL: Set Combat (Party) music to song 143*
125: 0x0D36 [0x9A] WAIT_MUSIC_SERVER()
126: 0x0D37 [0x1A] CALL_SUBROUTINE(address=0x1CE9)
127: 0x0D3A [0x02] IF !(ExtData[1]->WorkLocal[23] >= 0*) GOTO 0x0D45
128: 0x0D42 [0x01] GOTO 0x0DE5

SUBROUTINE_0D45:
129: 0x0D45 [0x02] IF !(ExtData[1]->WorkLocal[32] == 36*) GOTO 0x0D50
130: 0x0D4D [0x01] GOTO 0x0D50

SUBROUTINE_0D50:
131: 0x0D50 [0x02] IF !(ExtData[1]->WorkLocal[32] == 17*) GOTO 0x0D5B
132: 0x0D58 [0x01] GOTO 0x0DE5
133: 0x0D5B [0x02] IF !(ExtData[1]->WorkLocal[32] == 19*) GOTO 0x0D66
134: 0x0D63 [0x01] GOTO 0x0DE5
135: 0x0D66 [0x02] IF !(ExtData[1]->WorkLocal[32] == 21*) GOTO 0x0D71
136: 0x0D6E [0x01] GOTO 0x0DE5
137: 0x0D71 [0x02] IF !(ExtData[1]->WorkLocal[32] == 23*) GOTO 0x0D7C
138: 0x0D79 [0x01] GOTO 0x0DE5
139: 0x0D7C [0x03] Work_Zone[5] = ExtData[1]->WorkLocal[27]
140: 0x0D81 [0x02] IF !(Work_Zone[5] <= 0*) GOTO 0x0DE5
141: 0x0D89 [0x02] IF !(Work_Zone[5] < 60*) GOTO 0x0DA4
142: 0x0D91 [0x3F] Work_Zone[4] = Work_Zone[5] % 60*
143: 0x0D98 [0x15] Work_Zone[5] /= 60*
144: 0x0D9D [0x48] [System] [7668*]:
    → "Battlefield clear time: $3 minute[/s], $2 second[/s]!"
145: 0x0DA0 [0x23] WAIT_FOR_DIALOG_INTERACTION
146: 0x0DA1 [0x01] GOTO 0x0DA8
147: 0x0DA4 [0x48] [System] [7667*]:
    → "Battlefield clear time: $3 second[/s]!"
148: 0x0DA7 [0x23] WAIT_FOR_DIALOG_INTERACTION

SUBROUTINE_0DA8:
149: 0x0DA8 [0x02] IF !(ExtData[1]->WorkLocal[27] > ExtData[1]->WorkLocal[26]) GOTO 0x0DBC
150: 0x0DB0 [0x03] Work_Zone[7] = ExtData[1]->WorkLocal[25]
151: 0x0DB5 [0x48] [System] [7702*]:
    → "You have broken the clear time record for "[Making a Mockery/Shadows of the Mind/The Beast Within/Moment of Truth/Puppet in Peril/$26Puppet in Peril/Tateeya's Worries/An Imperial Heist]"!"
152: 0x0DB8 [0x23] WAIT_FOR_DIALOG_INTERACTION
153: 0x0DB9 [0x01] GOTO 0x0DE5
154: 0x0DBC [0x02] IF !(ExtData[1]->WorkLocal[26] < 60*) GOTO 0x0DDC
155: 0x0DC4 [0x03] Work_Zone[5] = ExtData[1]->WorkLocal[26]
156: 0x0DC9 [0x3F] Work_Zone[4] = Work_Zone[5] % 60*
157: 0x0DD0 [0x15] Work_Zone[5] /= 60*
158: 0x0DD5 [0x48] [System] [7670*]:
    → "The current battlefield clear time record is $3 minute[/s] $2 second[/s]."
159: 0x0DD8 [0x23] WAIT_FOR_DIALOG_INTERACTION
160: 0x0DD9 [0x01] GOTO 0x0DE5
161: 0x0DDC [0x03] Work_Zone[5] = ExtData[1]->WorkLocal[26]
162: 0x0DE1 [0x48] [System] [7669*]:
    → "The current battlefield clear time record is $3 second[/s]."
163: 0x0DE4 [0x23] WAIT_FOR_DIALOG_INTERACTION

SUBROUTINE_0DE5:
164: 0x0DE5 [0x02] IF !(ExtData[1]->WorkLocal[24] == 0*) GOTO 0x0DFD
165: 0x0DED [0x5C] MUSIC_CONTROL: Set Idle (Day) music to song 0*
166: 0x0DF1 [0x5C] MUSIC_CONTROL: Set Idle (Night) music to song 0*
167: 0x0DF5 [0x5C] MUSIC_CONTROL: Set Combat (Solo) music to song 143*
168: 0x0DF9 [0x5C] MUSIC_CONTROL: Set Combat (Party) music to song 143*
169: 0x0DFD [0x02] IF !(ExtData[1]->WorkLocal[23] >= 0*) GOTO 0x0E26
170: 0x0E05 [0x45] LOAD_SCHEDULED_TASK: Load scheduler "fdi2" with entities [LocalPlayer, LocalPlayer], work=[200*, 0*]
171: 0x0E16 [0x5C] MUSIC_CONTROL: Set Idle (Day) music to song 0*
172: 0x0E1A [0x5C] MUSIC_CONTROL: Set Idle (Night) music to song 0*
173: 0x0E1E [0x5C] MUSIC_CONTROL: Set Combat (Solo) music to song 143*
174: 0x0E22 [0x5C] MUSIC_CONTROL: Set Combat (Party) music to song 143*
175: 0x0E26 [0x06] ExtData[1]->WorkLocal[24] = 0
176: 0x0E29 [0x45] LOAD_SCHEDULED_TASK: Load scheduler "whi1" with entities [LocalPlayer, LocalPlayer], work=[201*, 0*]
177: 0x0E3A [0x45] LOAD_SCHEDULED_TASK: Load scheduler "blof" with entities [LocalPlayer, LocalPlayer], work=[200*, 0*]
178: 0x0E4B [0x21] END_EVENT
179: 0x0E4C [0x00] END_REQSTACK()
```

#### Data or dead code:

```
# Dead code (unreachable instructions):
     0x0D18 [0x01] GOTO 0x0D45
     0x0D1B [0x01] GOTO 0x0D1E
```

### Event 32003

#### Metadata

| Field        | Value     |
|--------------|-----------|
| Entrypoint   | 0x0E4D    |
| Data Size    | 435 bytes |
| Instructions | 77        |

```
      00 01 02 03 04 05 06 07  08 09 0A 0B 0C 0D 0E 0F
      -- -- -- -- -- -- -- --  -- -- -- -- -- -- -- --
0E40:                                         06 1D 00               ...
0E50: 06 1E 00 03 21 00 06 10  03 20 00 07 10 03 1F 00  ....!.... ......
0E60: 08 10 06 01 10 1A C1 66  02 1D 00 05 80 00 FE 0F  .......f........
0E70: 42 03 01 10 09 80 43 00  43 01 03 01 10 0A 80 43  B.....C.C......C
0E80: 00 43 01 1A D8 66 02 1E  00 05 80 00 FE 0F 45 0E  .C...f........E.
0E90: 80 F0 FF FF 7F F0 FF FF  7F 66 64 6F 31 00 80 55  .........fdo1..U
0EA0: 0E 80 F0 FF FF 7F F0 FF  FF 7F 66 64 6F 31 03 01  ..........fdo1..
0EB0: 10 0B 80 02 20 00 36 80  80 3D 0F 02 21 00 00 80  .... .6..=..!...
0EC0: 80 D2 0E 47 00 37 80 38  80 39 80 3A 80 47 01 01  ...G.7.8.9.:.G..
0ED0: 3A 0F 02 21 00 05 80 80  E9 0E 47 00 3B 80 3C 80  :..!......G.;.<.
0EE0: 3D 80 3E 80 47 01 01 3A  0F 02 21 00 09 80 80 00  =.>.G..:..!.....
0EF0: 0F 47 00 3F 80 40 80 41  80 42 80 47 01 01 3A 0F  .G.?.@.A.B.G..:.
0F00: 02 21 00 0A 80 80 17 0F  47 00 43 80 44 80 45 80  .!......G.C.D.E.
0F10: 46 80 47 01 01 3A 0F 02  21 00 0B 80 80 2E 0F 47  F.G..:..!......G
0F20: 00 47 80 48 80 49 80 4A  80 47 01 01 3A 0F 47 00  .G.H.I.J.G..:.G.
0F30: 4B 80 4C 80 4D 80 4E 80  47 01 01 BC 0F 02 20 00  K.L.M.N.G..... .
0F40: 18 80 80 B0 0F 02 1F 00  05 80 80 5C 0F 47 00 4F  ...........\.G.O
0F50: 80 50 80 51 80 52 80 47  01 01 AD 0F 02 1F 00 09  .P.Q.R.G........
0F60: 80 80 73 0F 47 00 53 80  54 80 55 80 56 80 47 01  ..s.G.S.T.U.V.G.
0F70: 01 AD 0F 02 1F 00 0A 80  80 8A 0F 47 00 57 80 58  ...........G.W.X
0F80: 80 59 80 5A 80 47 01 01  AD 0F 02 1F 00 0B 80 80  .Y.Z.G..........
0F90: A1 0F 47 00 5B 80 5C 80  5D 80 5E 80 47 01 01 AD  ..G.[.\.].^.G...
0FA0: 0F 47 00 4B 80 4C 80 4D  80 4E 80 47 01 01 BC 0F  .G.K.L.M.N.G....
0FB0: 47 00 4B 80 4C 80 4D 80  4E 80 47 01 38 0F 80 79  G.K.L.M.N.G.8..y
0FC0: 00 F0 FF FF 7F F0 FF FF  7F 1A DC 66 45 35 80 F0  ...........fE5..
0FD0: FF FF 7F F0 FF FF 7F 77  68 69 31 00 80 45 0E 80  .......whi1..E..
0FE0: F0 FF FF 7F F0 FF FF 7F  62 6C 6F 66 00 80 5C 00  ........blof..\.
0FF0: 00 80 5C 01 00 80 5C 02  33 80 5C 03 33 80 21 00  ..\...\.3.\.3.!.
```

#### Opcodes

```
  0: 0x0E4D [0x06] ExtData[1]->WorkLocal[29] = 0
  1: 0x0E50 [0x06] ExtData[1]->WorkLocal[30] = 0
  2: 0x0E53 [0x03] ExtData[1]->WorkLocal[33] = Work_Zone[6]
  3: 0x0E58 [0x03] ExtData[1]->WorkLocal[32] = Work_Zone[7]
  4: 0x0E5D [0x03] ExtData[1]->WorkLocal[31] = Work_Zone[8]
  5: 0x0E62 [0x06] Work_Zone[1] = 0
  6: 0x0E65 [0x1A] CALL_SUBROUTINE(address=0x66C1)
  7: 0x0E68 [0x02] IF !(ExtData[1]->WorkLocal[29] == 1*) GOTO 0x0FFE
  8: 0x0E70 [0x42] SET_CLI_EVENT_CANCEL_DATA()
  9: 0x0E71 [0x03] Work_Zone[1] = 2*
 10: 0x0E76 [0x43] SEND_EVENT_UPDATE: Send pending tag to server (packet 0x005B)
 11: 0x0E78 [0x43] SEND_EVENT_UPDATE: Check pending flag (skip if not pending)
 12: 0x0E7A [0x03] Work_Zone[1] = 3*
 13: 0x0E7F [0x43] SEND_EVENT_UPDATE: Send pending tag to server (packet 0x005B)
 14: 0x0E81 [0x43] SEND_EVENT_UPDATE: Check pending flag (skip if not pending)
 15: 0x0E83 [0x1A] CALL_SUBROUTINE(address=0x66D8)
 16: 0x0E86 [0x02] IF !(ExtData[1]->WorkLocal[30] == 1*) GOTO 0x0FFE
 17: 0x0E8E [0x45] LOAD_SCHEDULED_TASK: Load scheduler "fdo1" with entities [LocalPlayer, LocalPlayer], work=[200*, 0*]
 18: 0x0E9F [0x55] WAIT_LOAD_SCHEDULER: Wait for scheduler "fdo1" with entities [LocalPlayer, LocalPlayer], work=200*
 19: 0x0EAE [0x03] Work_Zone[1] = 4*
 20: 0x0EB3 [0x02] IF !(ExtData[1]->WorkLocal[32] == 180*) GOTO 0x0F3D
 21: 0x0EBB [0x02] IF !(ExtData[1]->WorkLocal[33] == 0*) GOTO 0x0ED2
 22: 0x0EC3 [0x47] UPDATE_PLAYER_POS(-605.141*, 479.929*, -22.681*, yaw=87.2°*)
 23: 0x0ECD [0x47] WAIT_PLAYER_POS_UPDATE
 24: 0x0ECF [0x01] GOTO 0x0F3A
 25: 0x0ED2 [0x02] IF !(ExtData[1]->WorkLocal[33] == 1*) GOTO 0x0EE9
 26: 0x0EDA [0x47] UPDATE_PLAYER_POS(-262.589*, 377.857*, -137.313*, yaw=305.3°*)
 27: 0x0EE4 [0x47] WAIT_PLAYER_POS_UPDATE
 28: 0x0EE6 [0x01] GOTO 0x0F3A
 29: 0x0EE9 [0x02] IF !(ExtData[1]->WorkLocal[33] == 2*) GOTO 0x0F00
 30: 0x0EF1 [0x47] UPDATE_PLAYER_POS(18.348*, 486.940*, -224.334*, yaw=17.1°*)
 31: 0x0EFB [0x47] WAIT_PLAYER_POS_UPDATE
 32: 0x0EFD [0x01] GOTO 0x0F3A
 33: 0x0F00 [0x02] IF !(ExtData[1]->WorkLocal[33] == 3*) GOTO 0x0F17
 34: 0x0F08 [0x47] UPDATE_PLAYER_POS(231.593*, 360.094*, -173.572*, yaw=160.8°*)
 35: 0x0F12 [0x47] WAIT_PLAYER_POS_UPDATE
 36: 0x0F14 [0x01] GOTO 0x0F3A
 37: 0x0F17 [0x02] IF !(ExtData[1]->WorkLocal[33] == 4*) GOTO 0x0F2E
 38: 0x0F1F [0x47] UPDATE_PLAYER_POS(553.664*, 523.939*, -38.205*, yaw=233.9°*)
 39: 0x0F29 [0x47] WAIT_PLAYER_POS_UPDATE
 40: 0x0F2B [0x01] GOTO 0x0F3A
 41: 0x0F2E [0x47] UPDATE_PLAYER_POS(299.992*, -195.439*, -0.402*, yaw=270.0°*)
 42: 0x0F38 [0x47] WAIT_PLAYER_POS_UPDATE

SUBROUTINE_0F3A:
 43: 0x0F3A [0x01] GOTO 0x0FBC
 44: 0x0F3D [0x02] IF !(ExtData[1]->WorkLocal[32] == 6*) GOTO 0x0FB0
 45: 0x0F45 [0x02] IF !(ExtData[1]->WorkLocal[31] == 1*) GOTO 0x0F5C
 46: 0x0F4D [0x47] UPDATE_PLAYER_POS(-875.117*, -43.892*, -48.084*, yaw=45.1°*)
 47: 0x0F57 [0x47] WAIT_PLAYER_POS_UPDATE
 48: 0x0F59 [0x01] GOTO 0x0FAD
 49: 0x0F5C [0x02] IF !(ExtData[1]->WorkLocal[31] == 2*) GOTO 0x0F73
 50: 0x0F64 [0x47] UPDATE_PLAYER_POS(-755.499*, 563.947*, -112.035*, yaw=313.5°*)
 51: 0x0F6E [0x47] WAIT_PLAYER_POS_UPDATE
 52: 0x0F70 [0x01] GOTO 0x0FAD
 53: 0x0F73 [0x02] IF !(ExtData[1]->WorkLocal[31] == 3*) GOTO 0x0F8A
 54: 0x0F7B [0x47] UPDATE_PLAYER_POS(123.251*, 754.209*, -172.124*, yaw=38.7°*)
 55: 0x0F85 [0x47] WAIT_PLAYER_POS_UPDATE
 56: 0x0F87 [0x01] GOTO 0x0FAD
 57: 0x0F8A [0x02] IF !(ExtData[1]->WorkLocal[31] == 4*) GOTO 0x0FA1
 58: 0x0F92 [0x47] UPDATE_PLAYER_POS(-516.404*, -803.323*, 24.206*, yaw=38.4°*)
 59: 0x0F9C [0x47] WAIT_PLAYER_POS_UPDATE
 60: 0x0F9E [0x01] GOTO 0x0FAD
 61: 0x0FA1 [0x47] UPDATE_PLAYER_POS(299.992*, -195.439*, -0.402*, yaw=270.0°*)
 62: 0x0FAB [0x47] WAIT_PLAYER_POS_UPDATE

SUBROUTINE_0FAD:
 63: 0x0FAD [0x01] GOTO 0x0FBC
 64: 0x0FB0 [0x47] UPDATE_PLAYER_POS(299.992*, -195.439*, -0.402*, yaw=270.0°*)
 65: 0x0FBA [0x47] WAIT_PLAYER_POS_UPDATE

SUBROUTINE_0FBC:
 66: 0x0FBC [0x38] SET_CLIENT_EVENT_MODE(mode=19*)
 67: 0x0FBF [0x79] LocalPlayer looks at LocalPlayer (Basic look)
 68: 0x0FC9 [0x1A] CALL_SUBROUTINE(address=0x66DC)
 69: 0x0FCC [0x45] LOAD_SCHEDULED_TASK: Load scheduler "whi1" with entities [LocalPlayer, LocalPlayer], work=[201*, 0*]
 70: 0x0FDD [0x45] LOAD_SCHEDULED_TASK: Load scheduler "blof" with entities [LocalPlayer, LocalPlayer], work=[200*, 0*]
 71: 0x0FEE [0x5C] MUSIC_CONTROL: Set Idle (Day) music to song 0*
 72: 0x0FF2 [0x5C] MUSIC_CONTROL: Set Idle (Night) music to song 0*
 73: 0x0FF6 [0x5C] MUSIC_CONTROL: Set Combat (Solo) music to song 143*
 74: 0x0FFA [0x5C] MUSIC_CONTROL: Set Combat (Party) music to song 143*
 75: 0x0FFE [0x21] END_EVENT
 76: 0x0FFF [0x00] END_REQSTACK()
```

### Event 32004

#### Metadata

| Field        | Value       |
|--------------|-------------|
| Entrypoint   | 0x1000      |
| Data Size    | 23365 bytes |
| Instructions | 2           |

```
      00 01 02 03 04 05 06 07  08 09 0A 0B 0C 0D 0E 0F
      -- -- -- -- -- -- -- --  -- -- -- -- -- -- -- --
1000: 21 00 24 0C 80 05 80 00  80 25 02 00 10 00 80 00  !.$......%......
1010: 18 10 05 01 00 01 18 10  1B 79 00 F0 FF FF 7F F0  .........y......
1020: FF FF 7F 42 46 01 02 03  00 09 80 80 34 10 1A 98  ...BF.......4...
1030: 11 01 73 11 02 03 00 0A  80 80 42 10 1A 37 14 01  ..s.......B..7..
1040: 73 11 02 03 00 0B 80 80  50 10 1A C1 1A 01 73 11  s.......P.....s.
1050: 02 03 00 18 80 80 7B 10  45 0E 80 F0 FF FF 7F F0  ......{.E.......
1060: FF FF 7F 66 64 6F 31 00  80 55 0E 80 F0 FF FF 7F  ...fdo1..U......
1070: F0 FF FF 7F 66 64 6F 31  01 73 11 02 03 00 03 80  ....fdo1.s......
1080: 80 86 10 01 73 11 37 92  80 93 80 94 80 95 80 1C  ....s.7.........
1090: 05 80 45 96 80 F0 FF FF  7F F0 FF FF 7F 7A 36 37  ..E..........z67
10A0: 61 00 80 45 0E 80 F0 FF  FF 7F F0 FF FF 7F 66 64  a..E..........fd
10B0: 69 31 00 80 27 03 CB 30  04 01 02 1C 2E 80 32 1D  i1..'..0......2.
10C0: 80 27 04 CB 30 04 01 04  1F 00 97 80 98 80 99 80  .'..0...........
10D0: 1F 01 27 05 CB 30 04 01  03 45 0E 80 F0 FF FF 7F  ..'..0...E......
10E0: F0 FF FF 7F 66 64 6F 31  00 80 55 0E 80 F0 FF FF  ....fdo1..U.....
10F0: 7F F0 FF FF 7F 66 64 6F  31 78 02 00 00 05 80 80  .....fdo1x......
1100: 0E 11 37 9A 80 9B 80 9C  80 9D 80 01 4A 11 02 00  ..7.........J...
1110: 00 09 80 80 22 11 37 9E  80 9F 80 A0 80 A1 80 01  ....".7.........
1120: 4A 11 02 00 00 0A 80 80  36 11 37 A2 80 A3 80 A4  J.......6.7.....
1130: 80 A5 80 01 4A 11 02 00  00 0B 80 80 4A 11 37 00  ....J.......J.7.
1140: 80 00 80 00 80 00 80 01  4A 11 6C F0 FF FF 7F 60  ........J.l....`
