# Event 240

## Metadata

| Field           | Value    |
|-----------------|----------|
| Event Index     | 3/4      |
| Offset          | 0x00A4   |
| Data Size       | 37 bytes |
| Calculated Size | 37 bytes |
| Instructions    | 11       |

```
      00 01 02 03 04 05 06 07  08 09 0A 0B 0C 0D 0E 0F
      -- -- -- -- -- -- -- --  -- -- -- -- -- -- -- --
00A0:             1E F0 FF FF  7F 1C 01 80 66 03 80 F8      ........f...
00B0: FF FF 7F F8 FF FF 7F 74  6C 6B 30 1D 10 80 23 1D  .......tlk0...#.
00C0: 11 80 23 1D 0F 80 23 21  00                       ..#...#!.       
```

## Opcodes

```
  0: 0x00A4 [0x1E] EventEntity looks at LocalPlayer and starts talking
  1: 0x00A9 [0x1C] WAIT(30* ticks)
  2: 0x00AC [0x66] LOAD_EXT_SCHEDULER_MAIN: Load scheduler "tlk0" with entities [EventEntity, EventEntity], work=40*
  3: 0x00BB [0x1D] PRINT_EVENT_MESSAGE(message_id=8174*)
    → "Your lucky item is \u0001\u0001\u0001 \u0001\u0005$\u0002\u0000\u0000\u0000!\u007F1\u0000\u0007"
  4: 0x00BE [0x23] WAIT_FOR_DIALOG_INTERACTION
  5: 0x00BF [0x1D] PRINT_EVENT_MESSAGE(message_id=8175*)
    → "And your lucky spot is \u000C\u0001[a place abundant in water/someplace dark and cramped/a narrow pathway]!\u007F1\u0000\u0007"
  6: 0x00C2 [0x23] WAIT_FOR_DIALOG_INTERACTION
  7: 0x00C3 [0x1D] PRINT_EVENT_MESSAGE(message_id=8173*)
    → "With the specified lucky item in hand, seek out your designated lucky spot.\u0007In so doing, good fortune will surely visitaru you!\u007F1\u0000\u0007"
  8: 0x00C6 [0x23] WAIT_FOR_DIALOG_INTERACTION
  9: 0x00C7 [0x21] END_EVENT
 10: 0x00C8 [0x00] END_REQSTACK()
```
