# Event 161

## Metadata

| Field           | Value    |
|-----------------|----------|
| Event Index     | 24/104   |
| Offset          | 0x0250   |
| Data Size       | 31 bytes |
| Calculated Size | 31 bytes |
| Instructions    | 10       |

```
      00 01 02 03 04 05 06 07  08 09 0A 0B 0C 0D 0E 0F
      -- -- -- -- -- -- -- --  -- -- -- -- -- -- -- --
0250: 20 01 4A 07 50 0F 01 F0  FF FF 7F 6F 70 2B 07 50   .J.P......op+.P
0260: 0F 01 3E 80 23 2B 07 50  0F 01 3F 80 23 21 00     ..>.#+.P..?.#!. 
```

## Opcodes

```
  0: 0x0250 [0x20] SET_CLI_EVENT_UC_FLAG: Lock player control
  1: 0x0252 [0x4A] Aldo (ID: 17780743/0x010F5007) looks at LocalPlayer
  2: 0x025B [0x6F] WAIT_FRAME_DELAY: Yield until WaitTime reaches zero
  3: 0x025C [0x70] WAIT_ENTITY_RENDER_FLAG: Wait while EventEntity->Render.Flags3 bit 2 is set (cancel turn if not)
  4: 0x025D [0x2B] Aldo (ID: 17780743/0x010F5007) [7194*]:
    → "Magicite is found deep inside Castle Oztroja, Davoi, and Beadeaux. Those places are thick with murderous beastmen, and their traps are cunning.\u007F1\u0000\u0007"
  5: 0x0264 [0x23] WAIT_FOR_DIALOG_INTERACTION
  6: 0x0265 [0x2B] Aldo (ID: 17780743/0x010F5007) [7195*]:
    → "There's not a rumor that doesn't find its way to Jeuno. I bet you can find what you need from other adventurers. May your strength never falter!\u007F1\u0000\u0007"
  7: 0x026C [0x23] WAIT_FOR_DIALOG_INTERACTION
  8: 0x026D [0x21] END_EVENT
  9: 0x026E [0x00] END_REQSTACK()
```
