# Event 19

## Metadata

| Field           | Value    |
|-----------------|----------|
| Event Index     | 23/104   |
| Offset          | 0x0239   |
| Data Size       | 23 bytes |
| Calculated Size | 23 bytes |
| Instructions    | 8        |

```
      00 01 02 03 04 05 06 07  08 09 0A 0B 0C 0D 0E 0F
      -- -- -- -- -- -- -- --  -- -- -- -- -- -- -- --
0230:                             20 01 4A 07 50 0F 01            .J.P..
0240: F0 FF FF 7F 6F 70 2B 07  50 0F 01 3D 80 23 21 00  ....op+.P..=.#!.
```

## Opcodes

```
  0: 0x0239 [0x20] SET_CLI_EVENT_UC_FLAG: Lock player control
  1: 0x023B [0x4A] Aldo (ID: 17780743/0x010F5007) looks at LocalPlayer
  2: 0x0244 [0x6F] WAIT_FRAME_DELAY: Yield until WaitTime reaches zero
  3: 0x0245 [0x70] WAIT_ENTITY_RENDER_FLAG: Wait while EventEntity->Render.Flags3 bit 2 is set (cancel turn if not)
  4: 0x0246 [0x2B] Aldo (ID: 17780743/0x010F5007) [7166*]:
    → "Hi. I'm Aldo, head of Tenshodo. We deal in things you can't buy anywhere else. Take your time and have a look around.\u007F1\u0000\u0007"
  5: 0x024D [0x23] WAIT_FOR_DIALOG_INTERACTION
  6: 0x024E [0x21] END_EVENT
  7: 0x024F [0x00] END_REQSTACK()
```
