# Event 877

## Metadata

| Field           | Value    |
|-----------------|----------|
| Event Index     | 14/14    |
| Offset          | 0x0126   |
| Data Size       | 37 bytes |
| Calculated Size | 37 bytes |
| Instructions    | 11       |

```
      00 01 02 03 04 05 06 07  08 09 0A 0B 0C 0D 0E 0F
      -- -- -- -- -- -- -- --  -- -- -- -- -- -- -- --
0120:                   1E F0  FF FF 7F 1C 1C 80 1D 21        .........!
0130: 80 23 5B 13 80 28 21 03  01 28 21 03 01 74 6C 6B  .#[..(!..(!..tlk
0140: 30 1D 22 80 23 1D 23 80  23 21 00                 0.".#.#.#!.     
```

## Opcodes

```
  0: 0x0126 [0x1E] EventEntity looks at LocalPlayer and starts talking
  1: 0x012B [0x1C] WAIT(30* ticks)
  2: 0x012E [0x1D] PRINT_EVENT_MESSAGE(message_id=7351*)
    → "Every time Mom chased him, that Qiqirn would hide behind one of those huge poles down on Balrahn Way.\u007F1\u0000\u0007"
  3: 0x0131 [0x23] WAIT_FOR_DIALOG_INTERACTION
  4: 0x0132 [0x5B] LOAD_EXT_SCHEDULER(work_offset=75*, entity1=Hadahda (ID: 16982312/0x01032128), entity2=Hadahda (ID: 16982312/0x01032128), action="tlk0")
  5: 0x0141 [0x1D] PRINT_EVENT_MESSAGE(message_id=7352*)
    → "Then when he saw her coming, he'd just go around to the other side of the pole! But he wasn't expecting both me and my mom to come last time! Heh heh heh!\u007F1\u0000\u0007"
  6: 0x0144 [0x23] WAIT_FOR_DIALOG_INTERACTION
  7: 0x0145 [0x1D] PRINT_EVENT_MESSAGE(message_id=7353*)
    → "Now I don't have to worry about anybody eating my snacks! I wonder what Mom'll give me today!\u007F1\u0000\u0007"
  8: 0x0148 [0x23] WAIT_FOR_DIALOG_INTERACTION
  9: 0x0149 [0x21] END_EVENT
 10: 0x014A [0x00] END_REQSTACK()
```
