# Event 65535

## Metadata

| Field           | Value    |
|-----------------|----------|
| Event Index     | 27/27    |
| Offset          | 0x01CC   |
| Data Size       | 48 bytes |
| Calculated Size | 48 bytes |
| Instructions    | 10       |

```
      00 01 02 03 04 05 06 07  08 09 0A 0B 0C 0D 0E 0F
      -- -- -- -- -- -- -- --  -- -- -- -- -- -- -- --
01C0:                                      B6 00 3D 80              ..=.
01D0: B4 00 00 00 4B 41 4E 49  30 31 00 00 00 00 00 00  ....KANI01......
01E0: 00 00 00 00 B5 00 00 00  96 A5 00 33 00 94 00 F8  ...........3....
01F0: FF FF 7F 22 01 2F 01 F8  FF FF 7F 00              ..."./......    
```

## Opcodes

```
  0: 0x01CC [0xB6] ENTITY_APPEARANCE_HANDLER(case=Hair style, value=356*)
  1: 0x01D0 [0xB4] UI_WINDOW_STRING_HANDLER(case=0x00 - Copy string from opcode, work_offset=ExtData[1]->WorkLocal[0], string="KANI01")
  2: 0x01E4 [0xB5] SET_EVENT_ENTITY_NAME: Change EventEntity name to ExtData[1]->WorkLocal[0]
  3: 0x01E8 [0x96] UNSET_EVENT_NPC: Restore NPC after event (removes event NPC status)
  4: 0x01E9 [0xA5] EventEntity->Flags3.BallistaTeam &= ~0x08  // Clear bit 3 of BallistaTeam
  5: 0x01EB [0x33] EventEntity->Render.Flags0 &= ~ 0x200000 // Bit 21 (flag=0x00)
  6: 0x01ED [0x94] EventEntity->Render.Flags3 = Flags3  // No change (flag=0)
  7: 0x01F3 [0x22] ENTITY_HIDE_FLAG(enabled=0x01)
  8: 0x01F5 [0x2F] EventEntity->Render.Flags0 |= 0x80000 // Bit 19
  9: 0x01FB [0x00] END_REQSTACK()
```
