# Event 65535

## Metadata

| Field           | Value    |
|-----------------|----------|
| Event Index     | 4/27     |
| Offset          | 0x0012   |
| Data Size       | 50 bytes |
| Calculated Size | 50 bytes |
| Instructions    | 7        |

```
      00 01 02 03 04 05 06 07  08 09 0A 0B 0C 0D 0E 0F
      -- -- -- -- -- -- -- --  -- -- -- -- -- -- -- --
0010:       22 00 CD 04 80 F8  FF FF 7F F8 FF FF 7F 73    "............s
0020: 30 30 30 05 80 32 06 80  CD 04 80 F8 FF FF 7F F8  000..2..........
0030: FF FF 7F 73 30 30 30 05  80 1F 00 07 80 08 80 09  ...s000.........
0040: 80 1F 01 00                                       ....            
```

## Opcodes

```
  0: 0x0012 [0x22] ENTITY_HIDE_FLAG(enabled=0x00)
  1: 0x0014 [0xCD] LOAD_SCHEDULED_TASK_ALT4(work_offset=145*, entity1=EventEntity, entity2=EventEntity, action="s000", work_offset2=0*)
  2: 0x0025 [0x32] ExtData[1]->MainSpeed = 40* * 0.1
  3: 0x0028 [0xCD] LOAD_SCHEDULED_TASK_ALT4(work_offset=145*, entity1=EventEntity, entity2=EventEntity, action="s000", work_offset2=0*)
  4: 0x0039 [0x1F] MOVE_ENTITY: EventEntity moves to X=10.716*, Z=-21.875*, Y=1.499*
  5: 0x0041 [0x1F] MOVE_ENTITY: Update entity position (mode=1)
  6: 0x0043 [0x00] END_REQSTACK()
```
