# Event 65535

## Metadata

| Field           | Value    |
|-----------------|----------|
| Event Index     | 19/27    |
| Offset          | 0x0137   |
| Data Size       | 33 bytes |
| Calculated Size | 33 bytes |
| Instructions    | 8        |

```
      00 01 02 03 04 05 06 07  08 09 0A 0B 0C 0D 0E 0F
      -- -- -- -- -- -- -- --  -- -- -- -- -- -- -- --
0130:                      32  06 80 1F 00 31 80 32 80         2....1.2.
0140: 33 80 1F 01 1E 5B 80 11  01 6F 70 C4 01 05 80 F8  3....[...op.....
0150: FF FF 7F 5B 80 11 01 00                           ...[....        
```

## Opcodes

```
  0: 0x0137 [0x32] ExtData[1]->MainSpeed = 40* * 0.1
  1: 0x013A [0x1F] MOVE_ENTITY: EventEntity moves to X=-7.475*, Z=4.576*, Y=0.477*
  2: 0x0142 [0x1F] MOVE_ENTITY: Update entity position (mode=1)
  3: 0x0144 [0x1E] EventEntity looks at Chacharoon (ID: 17924187/0x0111805B) and starts talking
  4: 0x0149 [0x6F] WAIT_FRAME_DELAY: Yield until WaitTime reaches zero
  5: 0x014A [0x70] WAIT_ENTITY_RENDER_FLAG: Wait while EventEntity->Render.Flags3 bit 2 is set (cancel turn if not)
  6: 0x014B [0xC4] SCHEDULE_MAGIC_CASTING_ALT (arg=17): EventEntity casts magic 0* on Chacharoon (ID: 17924187/0x0111805B)
  7: 0x0157 [0x00] END_REQSTACK()
```
