# Event 213

## Metadata

| Field           | Value    |
|-----------------|----------|
| Event Index     | 5/7      |
| Offset          | 0x0443   |
| Data Size       | 69 bytes |
| Calculated Size | 69 bytes |
| Instructions    | 11       |

```
      00 01 02 03 04 05 06 07  08 09 0A 0B 0C 0D 0E 0F
      -- -- -- -- -- -- -- --  -- -- -- -- -- -- -- --
0440:          1E F0 FF FF 7F  6F 70 66 01 80 F8 FF FF     .....opf.....
0450: 7F F8 FF FF 7F 74 68 6B  31 53 F8 FF FF 7F F8 FF  .....thk1S......
0460: FF 7F 74 68 6B 31 1D 02  80 23 66 01 80 F8 FF FF  ..thk1...#f.....
0470: 7F F8 FF FF 7F 74 68 6B  32 53 F8 FF FF 7F F8 FF  .....thk2S......
0480: FF 7F 74 68 6B 32 21 00                           ..thk2!.        
```

## Opcodes

```
  0: 0x0443 [0x1E] EventEntity looks at LocalPlayer and starts talking
  1: 0x0448 [0x6F] WAIT_FRAME_DELAY: Yield until WaitTime reaches zero
  2: 0x0449 [0x70] WAIT_ENTITY_RENDER_FLAG: Wait while EventEntity->Render.Flags3 bit 2 is set (cancel turn if not)
  3: 0x044A [0x66] LOAD_EXT_SCHEDULER_MAIN(work_offset=29*, entity1=EventEntity, entity2=EventEntity, action="thk1")
  4: 0x0459 [0x53] WAIT_SCHEDULER_TASK(entity1=EventEntity, entity2=EventEntity, action_id="thk1")
  5: 0x0466 [0x1D] PRINT_EVENT_MESSAGE(message_id=10724*)
    → "<Sigh>\u0007I wonder if I'll ever have the chance to catch the \u00072big one\u00073 before I cross that final river to Paradise...\u007F1\u0000\u0007"
  6: 0x0469 [0x23] WAIT_FOR_DIALOG_INTERACTION
  7: 0x046A [0x66] LOAD_EXT_SCHEDULER_MAIN(work_offset=29*, entity1=EventEntity, entity2=EventEntity, action="thk2")
  8: 0x0479 [0x53] WAIT_SCHEDULER_TASK(entity1=EventEntity, entity2=EventEntity, action_id="thk2")
  9: 0x0486 [0x21] END_EVENT
 10: 0x0487 [0x00] END_REQSTACK()
```
