# Event 65535

## Metadata

| Field           | Value    |
|-----------------|----------|
| Event Index     | 7/7      |
| Offset          | 0x0051   |
| Data Size       | 61 bytes |
| Calculated Size | 61 bytes |
| Instructions    | 13       |

```
      00 01 02 03 04 05 06 07  08 09 0A 0B 0C 0D 0E 0F
      -- -- -- -- -- -- -- --  -- -- -- -- -- -- -- --
0050:    1F 00 0E 80 0F 80 10  80 1F 01 1F 00 11 80 12   ...............
0060: 80 13 80 1F 01 1F 00 14  80 15 80 16 80 1F 01 1F  ................
0070: 00 17 80 18 80 19 80 1F  01 1F 00 1A 80 1B 80 19  ................
0080: 80 1F 01 1F 00 1C 80 1D  80 1E 80 1F 01 00        ..............  
```

## Opcodes

```
  0: 0x0051 [0x1F] MOVE_ENTITY: EventEntity moves to X=-267.689*, Z=36.290*, Y=-18.423*
  1: 0x0059 [0x1F] MOVE_ENTITY: Update entity position (mode=1)
  2: 0x005B [0x1F] MOVE_ENTITY: EventEntity moves to X=-266.076*, Z=28.375*, Y=-18.104*
  3: 0x0063 [0x1F] MOVE_ENTITY: Update entity position (mode=1)
  4: 0x0065 [0x1F] MOVE_ENTITY: EventEntity moves to X=-265.044*, Z=22.153*, Y=-17.832*
  5: 0x006D [0x1F] MOVE_ENTITY: Update entity position (mode=1)
  6: 0x006F [0x1F] MOVE_ENTITY: EventEntity moves to X=-265.043*, Z=18.769*, Y=-17.000*
  7: 0x0077 [0x1F] MOVE_ENTITY: Update entity position (mode=1)
  8: 0x0079 [0x1F] MOVE_ENTITY: EventEntity moves to X=-264.172*, Z=17.235*, Y=-17.000*
  9: 0x0081 [0x1F] MOVE_ENTITY: Update entity position (mode=1)
 10: 0x0083 [0x1F] MOVE_ENTITY: EventEntity moves to X=-261.526*, Z=14.066*, Y=-16.871*
 11: 0x008B [0x1F] MOVE_ENTITY: Update entity position (mode=1)
 12: 0x008D [0x00] END_REQSTACK()
```
