# Event 70

## Metadata

| Field           | Value    |
|-----------------|----------|
| Event Index     | 9/17     |
| Offset          | 0x006E   |
| Data Size       | 30 bytes |
| Calculated Size | 30 bytes |
| Instructions    | 11       |

```
      00 01 02 03 04 05 06 07  08 09 0A 0B 0C 0D 0E 0F
      -- -- -- -- -- -- -- --  -- -- -- -- -- -- -- --
0060:                                            42 1E                B.
0070: F0 FF FF 7F 6F 70 29 0B  32 F0 0E 01 01 1D 07 80  ....op).2.......
0080: 23 29 0B 32 F0 0E 01 02  20 00 21 00              #).2.... .!.    
```

## Opcodes

```
  0: 0x006E [0x42] SET_CLI_EVENT_CANCEL_DATA()
  1: 0x006F [0x1E] EventEntity looks at LocalPlayer and starts talking
  2: 0x0074 [0x6F] WAIT_FRAME_DELAY: Yield until WaitTime reaches zero
  3: 0x0075 [0x70] WAIT_ENTITY_RENDER_FLAG: Wait while EventEntity->Render.Flags3 bit 2 is set (cancel turn if not)
  4: 0x0076 [0x29] REQ_SET_WAIT(priority=0x0B, entity_id=Zayhi-Bauhi (ID: 17756210/0x010EF032), tag_num=0x01)
  5: 0x007D [0x1D] PRINT_EVENT_MESSAGE(message_id=7252*)
    → "Ack...<cough!?>\u0007What's... A-hrmmm!\u0007this...? A-hrr-hrr-hrr-hrrmmm...!\u007F1\u0000\u0007"
  6: 0x0080 [0x23] WAIT_FOR_DIALOG_INTERACTION
  7: 0x0081 [0x29] REQ_SET_WAIT(priority=0x0B, entity_id=Zayhi-Bauhi (ID: 17756210/0x010EF032), tag_num=0x02)
  8: 0x0088 [0x20] SET_CLI_EVENT_UC_FLAG: Unlock player control
  9: 0x008A [0x21] END_EVENT
 10: 0x008B [0x00] END_REQSTACK()
```
