# Event 65535

## Metadata

| Field           | Value    |
|-----------------|----------|
| Event Index     | 4/4      |
| Offset          | 0x0021   |
| Data Size       | 88 bytes |
| Calculated Size | 88 bytes |
| Instructions    | 8        |

```
      00 01 02 03 04 05 06 07  08 09 0A 0B 0C 0D 0E 0F
      -- -- -- -- -- -- -- --  -- -- -- -- -- -- -- --
0020:    45 00 80 F0 FF FF 7F  F0 FF FF 7F 6B 31 38 32   E..........k182
0030: 01 80 2D F8 FF FF 7F F8  FF FF 7F 6B 69 6C 36 2D  ..-........kil6-
0040: F8 FF FF 7F F8 FF FF 7F  6B 63 69 31 2D F8 FF FF  ........kci1-...
0050: 7F F8 FF FF 7F 6B 63 69  32 2D F8 FF FF 7F F8 FF  .....kci2-......
0060: FF 7F 6B 63 69 33 2D F8  FF FF 7F F8 FF FF 7F 6B  ..kci3-........k
0070: 63 69 34 77 02 80 03 80  00                       ci4w.....       
```

## Opcodes

```
  0: 0x0021 [0x45] LOAD_SCHEDULED_TASK(work_offset1=177*, entity1=LocalPlayer, entity2=LocalPlayer, scheduler_id="k182", work_offset2=0*)
  1: 0x0032 [0x2D] CREATE_ZONE_SCHEDULER_TASK(entity1=EventEntity, entity2=EventEntity, zone_action="kil6")
  2: 0x003F [0x2D] CREATE_ZONE_SCHEDULER_TASK(entity1=EventEntity, entity2=EventEntity, zone_action="kci1")
  3: 0x004C [0x2D] CREATE_ZONE_SCHEDULER_TASK(entity1=EventEntity, entity2=EventEntity, zone_action="kci2")
  4: 0x0059 [0x2D] CREATE_ZONE_SCHEDULER_TASK(entity1=EventEntity, entity2=EventEntity, zone_action="kci3")
  5: 0x0066 [0x2D] CREATE_ZONE_SCHEDULER_TASK(entity1=EventEntity, entity2=EventEntity, zone_action="kci4")
  6: 0x0073 [0x77] SET_EVENT_TIME_WEATHER(hour=12*, weather=1*)
  7: 0x0078 [0x00] END_REQSTACK()
```
