# Event 65535

## Metadata

| Field           | Value    |
|-----------------|----------|
| Event Index     | 25/65    |
| Offset          | 0x0374   |
| Data Size       | 76 bytes |
| Calculated Size | 76 bytes |
| Instructions    | 12       |

```
      00 01 02 03 04 05 06 07  08 09 0A 0B 0C 0D 0E 0F
      -- -- -- -- -- -- -- --  -- -- -- -- -- -- -- --
0370:             32 31 80 1F  00 57 80 58 80 55 80 1F      21...W.X.U..
0380: 01 37 59 80 5A 80 5B 80  5C 80 80 F8 FF FF 7F 1C  .7Y.Z.[.\.......
0390: 50 80 52 5D 80 F0 FF FF  7F F0 FF FF 7F 73 31 36  P.R].........s16
03A0: 38 45 5D 80 F0 FF FF 7F  F0 FF FF 7F 73 31 36 39  8E].........s169
03B0: 0A 80 32 31 80 1F 00 5E  80 5F 80 5B 80 1F 01 00  ..21...^._.[....
```

## Opcodes

```
  0: 0x0374 [0x32] ExtData[1]->MainSpeed = 57* * 0.1
  1: 0x0377 [0x1F] MOVE_ENTITY: EventEntity moves to X=-5.177*, Z=-25.878*, Y=1.699*
  2: 0x037F [0x1F] MOVE_ENTITY: Update entity position (mode=1)
  3: 0x0381 [0x37] UPDATE_EVENT_POSITION_AND_DIR: x=-133.885*, z=14.388*, y=-1.999*, direction=185.9°*
  4: 0x038A [0x80] LOAD_WAIT(entity=EventEntity)
  5: 0x038F [0x1C] WAIT(60* ticks)
  6: 0x0392 [0x52] END_LOAD_SCHEDULER: End scheduler "s168" with entities [LocalPlayer, LocalPlayer], work=254*
  7: 0x03A1 [0x45] LOAD_SCHEDULED_TASK(work_offset1=254*, entity1=LocalPlayer, entity2=LocalPlayer, scheduler_id="s169", work_offset2=0*)
  8: 0x03B2 [0x32] ExtData[1]->MainSpeed = 57* * 0.1
  9: 0x03B5 [0x1F] MOVE_ENTITY: EventEntity moves to X=-138.474*, Z=15.145*, Y=-1.999*
 10: 0x03BD [0x1F] MOVE_ENTITY: Update entity position (mode=1)
 11: 0x03BF [0x00] END_REQSTACK()
```
