# Event 65535

## Metadata

| Field           | Value    |
|-----------------|----------|
| Event Index     | 30/65    |
| Offset          | 0x0422   |
| Data Size       | 65 bytes |
| Calculated Size | 65 bytes |
| Instructions    | 11       |

```
      00 01 02 03 04 05 06 07  08 09 0A 0B 0C 0D 0E 0F
      -- -- -- -- -- -- -- --  -- -- -- -- -- -- -- --
0420:       32 29 80 1F 00 6B  80 6C 80 6D 80 1F 01 4B    2)...k.l.m...K
0430: 13 61 0E 01 6E 80 1C 50  80 1E F0 FF FF 7F 1C 15  .a..n..P........
0440: 80 5B 4B 80 13 61 0E 01  13 61 0E 01 6B 75 65 30  .[K..a...a..kue0
0450: 1C 50 80 5B 24 80 13 61  0E 01 13 61 0E 01 31 30  .P.[$..a...a..10
0460: 30 39 00                                          09.             
```

## Opcodes

```
  0: 0x0422 [0x32] ExtData[1]->MainSpeed = 19* * 0.1
  1: 0x0425 [0x1F] MOVE_ENTITY: EventEntity moves to X=-382.005*, Z=138.144*, Y=-35.867*
  2: 0x042D [0x1F] MOVE_ENTITY: Update entity position (mode=1)
  3: 0x042F [0x4B] UPDATE_ENTITY_YAW(entity=Unnamed NPC (ID: 17719571/0x010E6113), yaw=17.10°*)
  4: 0x0436 [0x1C] WAIT(60* ticks)
  5: 0x0439 [0x1E] EventEntity looks at LocalPlayer and starts talking
  6: 0x043E [0x1C] WAIT(30* ticks)
  7: 0x0441 [0x5B] LOAD_EXT_SCHEDULER(work_offset=875*, entity1=Unnamed NPC (ID: 17719571/0x010E6113), entity2=Unnamed NPC (ID: 17719571/0x010E6113), action="kue0")
  8: 0x0450 [0x1C] WAIT(60* ticks)
  9: 0x0453 [0x5B] LOAD_EXT_SCHEDULER(work_offset=224*, entity1=Unnamed NPC (ID: 17719571/0x010E6113), entity2=Unnamed NPC (ID: 17719571/0x010E6113), action="1009")
 10: 0x0462 [0x00] END_REQSTACK()
```
