# Event 65535

## Metadata

| Field           | Value    |
|-----------------|----------|
| Event Index     | 54/65    |
| Offset          | 0x077E   |
| Data Size       | 66 bytes |
| Calculated Size | 66 bytes |
| Instructions    | 16       |

```
      00 01 02 03 04 05 06 07  08 09 0A 0B 0C 0D 0E 0F
      -- -- -- -- -- -- -- --  -- -- -- -- -- -- -- --
0770:                                            32 29                2)
0780: 80 1F 00 C4 80 C5 80 C6  80 1F 01 1C 15 80 1F 00  ................
0790: C7 80 C8 80 C9 80 1F 01  1C 15 80 1F 00 CA 80 CB  ................
07A0: 80 CC 80 1F 01 1C 15 80  1F 00 CD 80 CE 80 CF 80  ................
07B0: 1F 01 1C 15 80 1F 00 C0  80 C1 80 C2 80 1F 01 00  ................
```

## Opcodes

```
  0: 0x077E [0x32] ExtData[1]->MainSpeed = 19* * 0.1
  1: 0x0781 [0x1F] MOVE_ENTITY: EventEntity moves to X=-601.910*, Z=587.743*, Y=0.274*
  2: 0x0789 [0x1F] MOVE_ENTITY: Update entity position (mode=1)
  3: 0x078B [0x1C] WAIT(30* ticks)
  4: 0x078E [0x1F] MOVE_ENTITY: EventEntity moves to X=-600.199*, Z=588.994*, Y=0.347*
  5: 0x0796 [0x1F] MOVE_ENTITY: Update entity position (mode=1)
  6: 0x0798 [0x1C] WAIT(30* ticks)
  7: 0x079B [0x1F] MOVE_ENTITY: EventEntity moves to X=-599.211*, Z=586.089*, Y=0.586*
  8: 0x07A3 [0x1F] MOVE_ENTITY: Update entity position (mode=1)
  9: 0x07A5 [0x1C] WAIT(30* ticks)
 10: 0x07A8 [0x1F] MOVE_ENTITY: EventEntity moves to X=-599.391*, Z=583.375*, Y=0.830*
 11: 0x07B0 [0x1F] MOVE_ENTITY: Update entity position (mode=1)
 12: 0x07B2 [0x1C] WAIT(30* ticks)
 13: 0x07B5 [0x1F] MOVE_ENTITY: EventEntity moves to X=-600.128*, Z=585.578*, Y=0.628*
 14: 0x07BD [0x1F] MOVE_ENTITY: Update entity position (mode=1)
 15: 0x07BF [0x00] END_REQSTACK()
```
