# Event 65535

## Metadata

| Field           | Value    |
|-----------------|----------|
| Event Index     | 57/65    |
| Offset          | 0x081C   |
| Data Size       | 50 bytes |
| Calculated Size | 50 bytes |
| Instructions    | 12       |

```
      00 01 02 03 04 05 06 07  08 09 0A 0B 0C 0D 0E 0F
      -- -- -- -- -- -- -- --  -- -- -- -- -- -- -- --
0810:                                      32 17 80 1F              2...
0820: 00 D5 80 D6 80 D7 80 1F  01 1C 50 80 1F 00 D8 80  ..........P.....
0830: D9 80 DA 80 1F 01 1C 50  80 1F 00 C0 80 C1 80 C2  .......P........
0840: 80 1F 01 4B 13 61 0E 01  DB 80 1C 50 80 00        ...K.a.....P..  
```

## Opcodes

```
  0: 0x081C [0x32] ExtData[1]->MainSpeed = 10* * 0.1
  1: 0x081F [0x1F] MOVE_ENTITY: EventEntity moves to X=-600.221*, Z=588.558*, Y=0.369*
  2: 0x0827 [0x1F] MOVE_ENTITY: Update entity position (mode=1)
  3: 0x0829 [0x1C] WAIT(60* ticks)
  4: 0x082C [0x1F] MOVE_ENTITY: EventEntity moves to X=-602.144*, Z=586.825*, Y=0.376*
  5: 0x0834 [0x1F] MOVE_ENTITY: Update entity position (mode=1)
  6: 0x0836 [0x1C] WAIT(60* ticks)
  7: 0x0839 [0x1F] MOVE_ENTITY: EventEntity moves to X=-600.128*, Z=585.578*, Y=0.628*
  8: 0x0841 [0x1F] MOVE_ENTITY: Update entity position (mode=1)
  9: 0x0843 [0x4B] UPDATE_ENTITY_YAW(entity=Unnamed NPC (ID: 17719571/0x010E6113), yaw=11.79°*)
 10: 0x084A [0x1C] WAIT(60* ticks)
 11: 0x084D [0x00] END_REQSTACK()
```
