# Event 65535

## Metadata

| Field           | Value    |
|-----------------|----------|
| Event Index     | 32/65    |
| Offset          | 0x0472   |
| Data Size       | 58 bytes |
| Calculated Size | 58 bytes |
| Instructions    | 10       |

```
      00 01 02 03 04 05 06 07  08 09 0A 0B 0C 0D 0E 0F
      -- -- -- -- -- -- -- --  -- -- -- -- -- -- -- --
0470:       32 29 80 1F 00 73  80 74 80 75 80 1F 01 1C    2)...s.t.u....
0480: 15 80 1E F0 FF FF 7F 1C  15 80 5B 4B 80 13 61 0E  ..........[K..a.
0490: 01 13 61 0E 01 6B 75 65  30 1C 50 80 5B 24 80 13  ..a..kue0.P.[$..
04A0: 61 0E 01 13 61 0E 01 31  30 30 39 00              a...a..1009.    
```

## Opcodes

```
  0: 0x0472 [0x32] ExtData[1]->MainSpeed = 19* * 0.1
  1: 0x0475 [0x1F] MOVE_ENTITY: EventEntity moves to X=-673.836*, Z=455.338*, Y=16.635*
  2: 0x047D [0x1F] MOVE_ENTITY: Update entity position (mode=1)
  3: 0x047F [0x1C] WAIT(30* ticks)
  4: 0x0482 [0x1E] EventEntity looks at LocalPlayer and starts talking
  5: 0x0487 [0x1C] WAIT(30* ticks)
  6: 0x048A [0x5B] LOAD_EXT_SCHEDULER(work_offset=875*, entity1=Unnamed NPC (ID: 17719571/0x010E6113), entity2=Unnamed NPC (ID: 17719571/0x010E6113), action="kue0")
  7: 0x0499 [0x1C] WAIT(60* ticks)
  8: 0x049C [0x5B] LOAD_EXT_SCHEDULER(work_offset=224*, entity1=Unnamed NPC (ID: 17719571/0x010E6113), entity2=Unnamed NPC (ID: 17719571/0x010E6113), action="1009")
  9: 0x04AB [0x00] END_REQSTACK()
```
