# Event 65535

## Metadata

| Field           | Value    |
|-----------------|----------|
| Event Index     | 58/65    |
| Offset          | 0x084E   |
| Data Size       | 50 bytes |
| Calculated Size | 50 bytes |
| Instructions    | 12       |

```
      00 01 02 03 04 05 06 07  08 09 0A 0B 0C 0D 0E 0F
      -- -- -- -- -- -- -- --  -- -- -- -- -- -- -- --
0840:                                            32 29                2)
0850: 80 1F 00 DC 80 DD 80 DE  80 1F 01 1C 50 80 1F 00  ............P...
0860: D8 80 D9 80 DA 80 1F 01  1C 50 80 1F 00 C0 80 C1  .........P......
0870: 80 C2 80 1F 01 4B 13 61  0E 01 DB 80 1C 50 80 00  .....K.a.....P..
```

## Opcodes

```
  0: 0x084E [0x32] ExtData[1]->MainSpeed = 19* * 0.1
  1: 0x0851 [0x1F] MOVE_ENTITY: EventEntity moves to X=-599.892*, Z=588.477*, Y=0.373*
  2: 0x0859 [0x1F] MOVE_ENTITY: Update entity position (mode=1)
  3: 0x085B [0x1C] WAIT(60* ticks)
  4: 0x085E [0x1F] MOVE_ENTITY: EventEntity moves to X=-602.144*, Z=586.825*, Y=0.376*
  5: 0x0866 [0x1F] MOVE_ENTITY: Update entity position (mode=1)
  6: 0x0868 [0x1C] WAIT(60* ticks)
  7: 0x086B [0x1F] MOVE_ENTITY: EventEntity moves to X=-600.128*, Z=585.578*, Y=0.628*
  8: 0x0873 [0x1F] MOVE_ENTITY: Update entity position (mode=1)
  9: 0x0875 [0x4B] UPDATE_ENTITY_YAW(entity=Unnamed NPC (ID: 17719571/0x010E6113), yaw=11.8°*)
 10: 0x087C [0x1C] WAIT(60* ticks)
 11: 0x087F [0x00] END_REQSTACK()
```
