# Event 65535

## Metadata

| Field           | Value    |
|-----------------|----------|
| Event Index     | 59/65    |
| Offset          | 0x0880   |
| Data Size       | 67 bytes |
| Calculated Size | 67 bytes |
| Instructions    | 15       |

```
      00 01 02 03 04 05 06 07  08 09 0A 0B 0C 0D 0E 0F
      -- -- -- -- -- -- -- --  -- -- -- -- -- -- -- --
0880: 32 31 80 1F 00 DF 80 E0  80 E1 80 1F 01 4B 13 61  21...........K.a
0890: 0E 01 E2 80 1C 50 80 1F  00 E3 80 E4 80 E5 80 1F  .....P..........
08A0: 01 4B 13 61 0E 01 E6 80  1C E7 80 1F 00 E8 80 E9  .K.a............
08B0: 80 EA 80 1F 01 1C 15 80  4B 13 61 0E 01 EB 80 1C  ........K.a.....
08C0: 50 80 00                                          P..             
```

## Opcodes

```
  0: 0x0880 [0x32] ExtData[1]->MainSpeed = 57* * 0.1
  1: 0x0883 [0x1F] MOVE_ENTITY: EventEntity moves to X=-599.295*, Z=590.678*, Y=0.264*
  2: 0x088B [0x1F] MOVE_ENTITY: Update entity position (mode=1)
  3: 0x088D [0x4B] UPDATE_ENTITY_YAW(entity=Unnamed NPC (ID: 17719571/0x010E6113), yaw=5.27°*)
  4: 0x0894 [0x1C] WAIT(60* ticks)
  5: 0x0897 [0x1F] MOVE_ENTITY: EventEntity moves to X=-604.353*, Z=586.292*, Y=0.138*
  6: 0x089F [0x1F] MOVE_ENTITY: Update entity position (mode=1)
  7: 0x08A1 [0x4B] UPDATE_ENTITY_YAW(entity=Unnamed NPC (ID: 17719571/0x010E6113), yaw=0.20°*)
  8: 0x08A8 [0x1C] WAIT(240* ticks)
  9: 0x08AB [0x1F] MOVE_ENTITY: EventEntity moves to X=-600.328*, Z=582.410*, Y=0.802*
 10: 0x08B3 [0x1F] MOVE_ENTITY: Update entity position (mode=1)
 11: 0x08B5 [0x1C] WAIT(30* ticks)
 12: 0x08B8 [0x4B] UPDATE_ENTITY_YAW(entity=Unnamed NPC (ID: 17719571/0x010E6113), yaw=16.63°*)
 13: 0x08BF [0x1C] WAIT(60* ticks)
 14: 0x08C2 [0x00] END_REQSTACK()
```
