# Event 65535

## Metadata

| Field           | Value    |
|-----------------|----------|
| Event Index     | 28/65    |
| Offset          | 0x03D8   |
| Data Size       | 64 bytes |
| Calculated Size | 64 bytes |
| Instructions    | 10       |

```
      00 01 02 03 04 05 06 07  08 09 0A 0B 0C 0D 0E 0F
      -- -- -- -- -- -- -- --  -- -- -- -- -- -- -- --
03D0:                          32 17 80 5A 00 64 80 65          2..Z.d.e
03E0: 80 66 80 5A 01 4A F0 FF  FF 7F 13 61 0E 01 1E F0  .f.Z.J.....a....
03F0: FF FF 7F 1C 15 80 5B 1B  80 13 61 0E 01 13 61 0E  ......[...a...a.
0400: 01 68 69 30 37 1C 1A 80  5B 24 80 13 61 0E 01 13  .hi07...[$..a...
0410: 61 0E 01 31 30 30 35 00                           a..1005.        
```

## Opcodes

```
  0: 0x03D8 [0x32] ExtData[1]->MainSpeed = 10* * 0.1
  1: 0x03DB [0x5A] UPDATE_EVENT_POSITION: Set EventEntity MovePosition to X=-226.999*, Z=323.999*, Y=-59.643*
  2: 0x03E3 [0x5A] UPDATE_EVENT_POSITION: Move EventEntity incrementally towards MovePosition
  3: 0x03E5 [0x4A] LocalPlayer looks at Unnamed NPC (ID: 17719571/0x010E6113)
  4: 0x03EE [0x1E] EventEntity looks at LocalPlayer and starts talking
  5: 0x03F3 [0x1C] WAIT(30* ticks)
  6: 0x03F6 [0x5B] LOAD_EXT_SCHEDULER(work_offset=872*, entity1=Unnamed NPC (ID: 17719571/0x010E6113), entity2=Unnamed NPC (ID: 17719571/0x010E6113), action="hi07")
  7: 0x0405 [0x1C] WAIT(5* ticks)
  8: 0x0408 [0x5B] LOAD_EXT_SCHEDULER(work_offset=224*, entity1=Unnamed NPC (ID: 17719571/0x010E6113), entity2=Unnamed NPC (ID: 17719571/0x010E6113), action="1005")
  9: 0x0417 [0x00] END_REQSTACK()
```
