# Event 65535

## Metadata

| Field           | Value    |
|-----------------|----------|
| Event Index     | 48/65    |
| Offset          | 0x06CD   |
| Data Size       | 48 bytes |
| Calculated Size | 48 bytes |
| Instructions    | 11       |

```
      00 01 02 03 04 05 06 07  08 09 0A 0B 0C 0D 0E 0F
      -- -- -- -- -- -- -- --  -- -- -- -- -- -- -- --
06C0:                                         02 04 00               ...
06D0: B6 80 01 FC 06 32 17 80  1F 00 B7 80 B8 80 B9 80  .....2..........
06E0: 1F 01 1C 50 80 1F 00 BA  80 BB 80 BC 80 1F 01 1F  ...P............
06F0: 00 BD 80 BE 80 BF 80 1F  01 01 CD 06 00           .............   
```

## Opcodes

```
  0: 0x06CD [0x02] IF !(ExtData[1]->WorkLocal[4] == 1*) GOTO 0x06FC
  1: 0x06D5 [0x32] ExtData[1]->MainSpeed = 10* * 0.1
  2: 0x06D8 [0x1F] MOVE_ENTITY: EventEntity moves to X=-604.743*, Z=600.818*, Y=0.035*
  3: 0x06E0 [0x1F] MOVE_ENTITY: Update entity position (mode=1)
  4: 0x06E2 [0x1C] WAIT(60* ticks)
  5: 0x06E5 [0x1F] MOVE_ENTITY: EventEntity moves to X=-608.317*, Z=600.631*, Y=0.214*
  6: 0x06ED [0x1F] MOVE_ENTITY: Update entity position (mode=1)
  7: 0x06EF [0x1F] MOVE_ENTITY: EventEntity moves to X=-606.086*, Z=601.808*, Y=0.102*
  8: 0x06F7 [0x1F] MOVE_ENTITY: Update entity position (mode=1)
  9: 0x06F9 [0x01] GOTO 0x06CD

SUBROUTINE_06FC:
 10: 0x06FC [0x00] END_REQSTACK()
```
