# Event 101

## Metadata

| Field           | Value    |
|-----------------|----------|
| Event Index     | 19/32    |
| Offset          | 0x0101   |
| Data Size       | 33 bytes |
| Calculated Size | 33 bytes |
| Instructions    | 12       |

```
      00 01 02 03 04 05 06 07  08 09 0A 0B 0C 0D 0E 0F
      -- -- -- -- -- -- -- --  -- -- -- -- -- -- -- --
0100:    1E F0 FF FF 7F 6F 70  29 08 2A A0 0F 01 01 1D   .....op).*.....
0110: 03 80 23 1D 04 80 23 29  08 2A A0 0F 01 02 20 00  ..#...#).*.... .
0120: 21 00                                             !.              
```

## Opcodes

```
  0: 0x0101 [0x1E] EventEntity looks at LocalPlayer and starts talking
  1: 0x0106 [0x6F] WAIT_FRAME_DELAY: Yield until WaitTime reaches zero
  2: 0x0107 [0x70] WAIT_ENTITY_RENDER_FLAG: Wait while EventEntity->Render.Flags3 bit 2 is set (cancel turn if not)
  3: 0x0108 [0x29] REQ_SET_WAIT(priority=0x08, entity_id=Soun Abralah (ID: 17801258/0x010FA02A), tag_num=0x01)
  4: 0x010F [0x1D] PRINT_EVENT_MESSAGE(message_id=10070*)
    → "When we Mithra establish a new settlement, we call forth the powerrr of the guardian of that land, and craft a special bow.\u007F1\u0000\u0007"
  5: 0x0112 [0x23] WAIT_FOR_DIALOG_INTERACTION
  6: 0x0113 [0x1D] PRINT_EVENT_MESSAGE(message_id=10071*)
    → "That bow is kept by the chieftainness as a symbol of the bond between us and the land we have chosen. The Thalassa Bow that Jakoh Wahcondalo carries is Kazham's bond with Elshimo.\u007F1\u0000\u0007"
  7: 0x0116 [0x23] WAIT_FOR_DIALOG_INTERACTION
  8: 0x0117 [0x29] REQ_SET_WAIT(priority=0x08, entity_id=Soun Abralah (ID: 17801258/0x010FA02A), tag_num=0x02)
  9: 0x011E [0x20] SET_CLI_EVENT_UC_FLAG: Unlock player control
 10: 0x0120 [0x21] END_EVENT
 11: 0x0121 [0x00] END_REQSTACK()
```
