# Event 104

## Metadata

| Field           | Value    |
|-----------------|----------|
| Event Index     | 28/32    |
| Offset          | 0x020D   |
| Data Size       | 36 bytes |
| Calculated Size | 36 bytes |
| Instructions    | 9        |

```
      00 01 02 03 04 05 06 07  08 09 0A 0B 0C 0D 0E 0F
      -- -- -- -- -- -- -- --  -- -- -- -- -- -- -- --
0200:                                         42 1E F0               B..
0210: FF FF 7F 6F 70 29 0B 2A  A0 0F 01 1C 45 17 80 F0  ...op).*....E...
0220: FF FF 7F F0 FF FF 7F 71  73 74 63 07 80 20 00 21  .......qstc.. .!
0230: 00                                                .               
```

## Opcodes

```
  0: 0x020D [0x42] SET_CLI_EVENT_CANCEL_DATA()
  1: 0x020E [0x1E] EventEntity looks at LocalPlayer and starts talking
  2: 0x0213 [0x6F] WAIT_FRAME_DELAY: Yield until WaitTime reaches zero
  3: 0x0214 [0x70] WAIT_ENTITY_RENDER_FLAG: Wait while EventEntity->Render.Flags3 bit 2 is set (cancel turn if not)
  4: 0x0215 [0x29] REQ_SET_WAIT(priority=0x0B, entity_id=Soun Abralah (ID: 17801258/0x010FA02A), tag_num=0x1C)
  5: 0x021C [0x45] LOAD_SCHEDULED_TASK: Load scheduler "qstc" with entities [LocalPlayer, LocalPlayer], work=[201*, 0*]
  6: 0x022D [0x20] SET_CLI_EVENT_UC_FLAG: Unlock player control
  7: 0x022F [0x21] END_EVENT
  8: 0x0230 [0x00] END_REQSTACK()
```
