# Event 65535

## Metadata

| Field           | Value    |
|-----------------|----------|
| Event Index     | 22/32    |
| Offset          | 0x0181   |
| Data Size       | 37 bytes |
| Calculated Size | 37 bytes |
| Instructions    | 9        |

```
      00 01 02 03 04 05 06 07  08 09 0A 0B 0C 0D 0E 0F
      -- -- -- -- -- -- -- --  -- -- -- -- -- -- -- --
0180:    29 08 2A A0 0F 01 03  1D 0A 80 23 29 08 2A A0   ).*.......#).*.
0190: 0F 01 04 29 08 2A A0 0F  01 05 1D 0B 80 23 29 08  ...).*.......#).
01A0: 2A A0 0F 01 06 00                                 *.....          
```

## Opcodes

```
  0: 0x0181 [0x29] REQ_SET_WAIT(priority=0x08, entity_id=Soun Abralah (ID: 17801258/0x010FA02A), tag_num=0x03)
  1: 0x0188 [0x1D] PRINT_EVENT_MESSAGE(message_id=10074*)
    → "Wait a minute. You wouldn't happen to be one of those adventurerrrs from the mainlands, would you?\u007F1\u0000\u0007"
  2: 0x018B [0x23] WAIT_FOR_DIALOG_INTERACTION
  3: 0x018C [0x29] REQ_SET_WAIT(priority=0x08, entity_id=Soun Abralah (ID: 17801258/0x010FA02A), tag_num=0x04)
  4: 0x0193 [0x29] REQ_SET_WAIT(priority=0x08, entity_id=Soun Abralah (ID: 17801258/0x010FA02A), tag_num=0x05)
  5: 0x019A [0x1D] PRINT_EVENT_MESSAGE(message_id=10075*)
    → "I heard that if the prrrice was right, your type would go anywhere, do anything. So, \u007F\u0005[Mister/Miss] Adventurerrr, are your serrrvices for hire?\u007F1\u0000\u0007"
  6: 0x019D [0x23] WAIT_FOR_DIALOG_INTERACTION
  7: 0x019E [0x29] REQ_SET_WAIT(priority=0x08, entity_id=Soun Abralah (ID: 17801258/0x010FA02A), tag_num=0x06)
  8: 0x01A5 [0x00] END_REQSTACK()
```
