# Event 183

## Metadata

| Field           | Value    |
|-----------------|----------|
| Event Index     | 12/39    |
| Offset          | 0x64E5   |
| Data Size       | 56 bytes |
| Calculated Size | 56 bytes |
| Instructions    | 12       |

```
      00 01 02 03 04 05 06 07  08 09 0A 0B 0C 0D 0E 0F
      -- -- -- -- -- -- -- --  -- -- -- -- -- -- -- --
64E0:                4A 92 20  03 01 F0 FF FF 7F 6F 76       J. ......ov
64F0: 92 20 03 01 02 02 10 8E  81 04 1B 65 02 02 10 8F  . .........e....
6500: 81 05 1B 65 2B 92 20 03  01 95 81 23 29 0F 92 20  ...e+. ....#).. 
6510: 03 01 07 2B 92 20 03 01  96 81 23 21 00           ...+. ....#!.   
```

## Opcodes

```
  0: 0x64E5 [0x4A] Abda-Lurabda (ID: 16982162/0x01032092) looks at LocalPlayer
  1: 0x64EE [0x6F] WAIT_FRAME_DELAY: Yield until WaitTime reaches zero
  2: 0x64EF [0x76] CHECK_ENTITY_RENDER_FLAGS: Wait until Abda-Lurabda (ID: 16982162/0x01032092) Render.Flags0 and Render.Flags3 conditions are met
  3: 0x64F4 [0x02] IF !(Work_Zone[2] < 312*) GOTO 0x651B
  4: 0x64FC [0x02] IF !(Work_Zone[2] > 324*) GOTO 0x651B
  5: 0x6504 [0x2B] Abda-Lurabda (ID: 16982162/0x01032092) [15991*]:
    → "How can this Falak still be alive after being separated into nine pieces?\u007F1\u0000\u0007"
  6: 0x650B [0x23] WAIT_FOR_DIALOG_INTERACTION
  7: 0x650C [0x29] REQ_SET_WAIT(priority=0x0F, entity_id=Abda-Lurabda (ID: 16982162/0x01032092), tag_num=0x07)
  8: 0x6513 [0x2B] Abda-Lurabda (ID: 16982162/0x01032092) [15992*]:
    → "I know! Maybe it was an automaton?\u0007Being cut into pieces is no problem for one of them!\u007F1\u0000\u0007"
  9: 0x651A [0x23] WAIT_FOR_DIALOG_INTERACTION
 10: 0x651B [0x21] END_EVENT
 11: 0x651C [0x00] END_REQSTACK()
```
