# Event 199

## Metadata

| Field           | Value    |
|-----------------|----------|
| Event Index     | 28/39    |
| Offset          | 0xA7ED   |
| Data Size       | 54 bytes |
| Calculated Size | 54 bytes |
| Instructions    | 10       |

```
      00 01 02 03 04 05 06 07  08 09 0A 0B 0C 0D 0E 0F
      -- -- -- -- -- -- -- --  -- -- -- -- -- -- -- --
A7E0:                                         42 4A 5E               BJ^
A7F0: 20 03 01 F0 FF FF 7F 6F  76 5E 20 03 01 66 01 80   ......ov^ ..f..
A800: 5E 20 03 01 5E 20 03 01  70 61 73 30 2B 5E 20 03  ^ ..^ ..pas0+^ .
A810: 01 BC 82 23 53 5E 20 03  01 5E 20 03 01 70 61 73  ...#S^ ..^ ..pas
A820: 30 21 00                                          0!.             
```

## Opcodes

```
  0: 0xA7ED [0x42] SET_CLI_EVENT_CANCEL_DATA()
  1: 0xA7EE [0x4A] Arzizah (ID: 16982110/0x0103205E) looks at LocalPlayer
  2: 0xA7F7 [0x6F] WAIT_FRAME_DELAY: Yield until WaitTime reaches zero
  3: 0xA7F8 [0x76] CHECK_ENTITY_RENDER_FLAGS: Wait until Arzizah (ID: 16982110/0x0103205E) Render.Flags0 and Render.Flags3 conditions are met
  4: 0xA7FD [0x66] LOAD_EXT_SCHEDULER_MAIN(work_offset=0*, entity1=Arzizah (ID: 16982110/0x0103205E), entity2=Arzizah (ID: 16982110/0x0103205E), action="pas0")
  5: 0xA80C [0x2B] Arzizah (ID: 16982110/0x0103205E) [16210*]:
    → "Wait, Master Ghatsad wished for you to have this.\u007F1\u0000\u0007"
  6: 0xA813 [0x23] WAIT_FOR_DIALOG_INTERACTION
  7: 0xA814 [0x53] WAIT_SCHEDULER_TASK(entity1=Arzizah (ID: 16982110/0x0103205E), entity2=Arzizah (ID: 16982110/0x0103205E), action_id="pas0")
  8: 0xA821 [0x21] END_EVENT
  9: 0xA822 [0x00] END_REQSTACK()
```
