# Event 215

## Metadata

| Field           | Value    |
|-----------------|----------|
| Event Index     | 38/39    |
| Offset          | 0xD5C7   |
| Data Size       | 54 bytes |
| Calculated Size | 54 bytes |
| Instructions    | 12       |

```
      00 01 02 03 04 05 06 07  08 09 0A 0B 0C 0D 0E 0F
      -- -- -- -- -- -- -- --  -- -- -- -- -- -- -- --
D5C0:                      4A  92 20 03 01 F0 FF FF 7F         J. ......
D5D0: 6F 76 92 20 03 01 29 0F  92 20 03 01 09 2B 92 20  ov. ..).. ...+. 
D5E0: 03 01 79 83 23 29 0F 92  20 03 01 0A 29 0F 92 20  ..y.#).. ...).. 
D5F0: 03 01 0B 2B 92 20 03 01  7A 83 23 21 00           ...+. ..z.#!.   
```

## Opcodes

```
  0: 0xD5C7 [0x4A] Abda-Lurabda (ID: 16982162/0x01032092) looks at LocalPlayer
  1: 0xD5D0 [0x6F] WAIT_FRAME_DELAY: Yield until WaitTime reaches zero
  2: 0xD5D1 [0x76] CHECK_ENTITY_RENDER_FLAGS: Wait until Abda-Lurabda (ID: 16982162/0x01032092) Render.Flags0 and Render.Flags3 conditions are met
  3: 0xD5D6 [0x29] REQ_SET_WAIT(priority=0x0F, entity_id=Abda-Lurabda (ID: 16982162/0x01032092), tag_num=0x09)
  4: 0xD5DD [0x2B] Abda-Lurabda (ID: 16982162/0x01032092) [16324*]:
    → "Truth be told, I have no idea what you're talking about, \u0008.\u007F1\u0000\u0007"
  5: 0xD5E4 [0x23] WAIT_FOR_DIALOG_INTERACTION
  6: 0xD5E5 [0x29] REQ_SET_WAIT(priority=0x0F, entity_id=Abda-Lurabda (ID: 16982162/0x01032092), tag_num=0x0A)
  7: 0xD5EC [0x29] REQ_SET_WAIT(priority=0x0F, entity_id=Abda-Lurabda (ID: 16982162/0x01032092), tag_num=0x0B)
  8: 0xD5F3 [0x2B] Abda-Lurabda (ID: 16982162/0x01032092) [16325*]:
    → "I was too freaked out by that doll to pay attention.\u007F1\u0000\u0007"
  9: 0xD5FA [0x23] WAIT_FOR_DIALOG_INTERACTION
 10: 0xD5FB [0x21] END_EVENT
 11: 0xD5FC [0x00] END_REQSTACK()
```
