# 17371593 - Uu Zhoumo

## Common Data

| Field            | Value             |
|------------------|-------------------|
| Zone             | Giddeus (ID: 145) |
| Block Size       | 156 bytes         |
| Total Events     | 6                 |
| References Count | 9                 |

## List of Events

| Event ID              | Entrypoint   |   Size |   Instructions |
|-----------------------|--------------|--------|----------------|
| [65535](#event-65535) | 0x0000       |      1 |              1 |
| [40](#event-40)       | 0x0001       |     24 |             12 |
| [41](#event-41)       | 0x0019       |     18 |              9 |
| [42](#event-42)       | 0x002B       |     12 |              6 |
| [43](#event-43)       | 0x0037       |     11 |              5 |
| [44](#event-44)       | 0x0042       |     11 |              5 |

## DAT References (imed_data)

|   Index | Hex Value   |   Dec Value |
|---------|-------------|-------------|
|       0 | 0x1CC4      |        7364 |
|       1 | 0x1CC5      |        7365 |
|       2 | 0x1CC6      |        7366 |
|       3 | 0x1CC7      |        7367 |
|       4 | 0x1CC9      |        7369 |
|       5 | 0x1CCA      |        7370 |
|       6 | 0x1CCB      |        7371 |
|       7 | 0x1CC8      |        7368 |
|       8 | 0x1CC3      |        7363 |

## String References

- **7363**: Me be keeper of treasure chamber. Hoot! Me be differing from brethren in not liking to fight. Smoothskin have no business here! Should leave now!
- **7364**: What be this? Hoot! This blunt blade is useless!
- **7365**: Never do! Hoot! No, never do! You be bringing weapon more fitting for Uu Zhoumo!
- **7366**: What kind of weapon be more fitting? Hoot! A weapon like Eyy Mon the Ironbreaker be using! Hoot! That be more fitting for likes of me!
- **7367**: You think so too? Hoot! Then you be go bringing me one now!
- **7368**: No weapon yet? No weapon yet? Me be wanting weapon like Eyy Mon the Ironbreaker be using! Hoot!
- **7369**: Hoot! That be it! Look at it shine! Hoot! This truly be a weapon fitting for me!
- **7370**: Deal done. Deal done. Hoot! Now you be leaving!
- **7371**: Good. Good. Hoot! It is as we be asking for! Now you be going!

## Events

### Event 65535

#### Metadata

| Field        | Value   |
|--------------|---------|
| Entrypoint   | 0x0000  |
| Data Size    | 1 bytes |
| Instructions | 1       |

```
      00 01 02 03 04 05 06 07  08 09 0A 0B 0C 0D 0E 0F
      -- -- -- -- -- -- -- --  -- -- -- -- -- -- -- --
0000: 00                                                .               
```

#### Opcodes

```
  0: 0x0000 [0x00] END_REQSTACK()
```

### Event 40

#### Metadata

| Field        | Value    |
|--------------|----------|
| Entrypoint   | 0x0001   |
| Data Size    | 24 bytes |
| Instructions | 12       |

```
      00 01 02 03 04 05 06 07  08 09 0A 0B 0C 0D 0E 0F
      -- -- -- -- -- -- -- --  -- -- -- -- -- -- -- --
0000:    42 1E F0 FF FF 7F 1D  00 80 23 1D 01 80 23 1D   B........#...#.
0010: 02 80 23 1D 03 80 23 21  00                       ..#...#!.       
```

#### Opcodes

```
  0: 0x0001 [0x42] SET_CLI_EVENT_CANCEL_DATA()
  1: 0x0002 [0x1E] EventEntity looks at LocalPlayer and starts talking
  2: 0x0007 [0x1D] PRINT_EVENT_MESSAGE(message_id=7364*)
    → "What be this? Hoot! This blunt blade is useless!"
  3: 0x000A [0x23] WAIT_FOR_DIALOG_INTERACTION
  4: 0x000B [0x1D] PRINT_EVENT_MESSAGE(message_id=7365*)
    → "Never do! Hoot! No, never do! You be bringing weapon more fitting for Uu Zhoumo!"
  5: 0x000E [0x23] WAIT_FOR_DIALOG_INTERACTION
  6: 0x000F [0x1D] PRINT_EVENT_MESSAGE(message_id=7366*)
    → "What kind of weapon be more fitting? Hoot! A weapon like Eyy Mon the Ironbreaker be using! Hoot! That be more fitting for likes of me!"
  7: 0x0012 [0x23] WAIT_FOR_DIALOG_INTERACTION
  8: 0x0013 [0x1D] PRINT_EVENT_MESSAGE(message_id=7367*)
    → "You think so too? Hoot! Then you be go bringing me one now!"
  9: 0x0016 [0x23] WAIT_FOR_DIALOG_INTERACTION
 10: 0x0017 [0x21] END_EVENT
 11: 0x0018 [0x00] END_REQSTACK()
```

### Event 41

#### Metadata

| Field        | Value    |
|--------------|----------|
| Entrypoint   | 0x0019   |
| Data Size    | 18 bytes |
| Instructions | 9        |

```
      00 01 02 03 04 05 06 07  08 09 0A 0B 0C 0D 0E 0F
      -- -- -- -- -- -- -- --  -- -- -- -- -- -- -- --
0010:                             42 1E F0 FF FF 7F 1D           B......
0020: 04 80 23 1D 05 80 23 20  00 21 00                 ..#...# .!.     
```

#### Opcodes

```
  0: 0x0019 [0x42] SET_CLI_EVENT_CANCEL_DATA()
  1: 0x001A [0x1E] EventEntity looks at LocalPlayer and starts talking
  2: 0x001F [0x1D] PRINT_EVENT_MESSAGE(message_id=7369*)
    → "Hoot! That be it! Look at it shine! Hoot! This truly be a weapon fitting for me!"
  3: 0x0022 [0x23] WAIT_FOR_DIALOG_INTERACTION
  4: 0x0023 [0x1D] PRINT_EVENT_MESSAGE(message_id=7370*)
    → "Deal done. Deal done. Hoot! Now you be leaving!"
  5: 0x0026 [0x23] WAIT_FOR_DIALOG_INTERACTION
  6: 0x0027 [0x20] SET_CLI_EVENT_UC_FLAG: Unlock player control
  7: 0x0029 [0x21] END_EVENT
  8: 0x002A [0x00] END_REQSTACK()
```

### Event 42

#### Metadata

| Field        | Value    |
|--------------|----------|
| Entrypoint   | 0x002B   |
| Data Size    | 12 bytes |
| Instructions | 6        |

```
      00 01 02 03 04 05 06 07  08 09 0A 0B 0C 0D 0E 0F
      -- -- -- -- -- -- -- --  -- -- -- -- -- -- -- --
0020:                                   42 1E F0 FF FF             B....
0030: 7F 1D 06 80 23 21 00                              ....#!.         
```

#### Opcodes

```
  0: 0x002B [0x42] SET_CLI_EVENT_CANCEL_DATA()
  1: 0x002C [0x1E] EventEntity looks at LocalPlayer and starts talking
  2: 0x0031 [0x1D] PRINT_EVENT_MESSAGE(message_id=7371*)
    → "Good. Good. Hoot! It is as we be asking for! Now you be going!"
  3: 0x0034 [0x23] WAIT_FOR_DIALOG_INTERACTION
  4: 0x0035 [0x21] END_EVENT
  5: 0x0036 [0x00] END_REQSTACK()
```

### Event 43

#### Metadata

| Field        | Value    |
|--------------|----------|
| Entrypoint   | 0x0037   |
| Data Size    | 11 bytes |
| Instructions | 5        |

```
      00 01 02 03 04 05 06 07  08 09 0A 0B 0C 0D 0E 0F
      -- -- -- -- -- -- -- --  -- -- -- -- -- -- -- --
0030:                      1E  F0 FF FF 7F 1D 07 80 23         ........#
0040: 21 00                                             !.              
```

#### Opcodes

```
  0: 0x0037 [0x1E] EventEntity looks at LocalPlayer and starts talking
  1: 0x003C [0x1D] PRINT_EVENT_MESSAGE(message_id=7368*)
    → "No weapon yet? No weapon yet? Me be wanting weapon like Eyy Mon the Ironbreaker be using! Hoot!"
  2: 0x003F [0x23] WAIT_FOR_DIALOG_INTERACTION
  3: 0x0040 [0x21] END_EVENT
  4: 0x0041 [0x00] END_REQSTACK()
```

### Event 44

#### Metadata

| Field        | Value    |
|--------------|----------|
| Entrypoint   | 0x0042   |
| Data Size    | 11 bytes |
| Instructions | 5        |

```
      00 01 02 03 04 05 06 07  08 09 0A 0B 0C 0D 0E 0F
      -- -- -- -- -- -- -- --  -- -- -- -- -- -- -- --
0040:       1E F0 FF FF 7F 1D  08 80 23 21 00             ........#!.   
```

#### Opcodes

```
  0: 0x0042 [0x1E] EventEntity looks at LocalPlayer and starts talking
  1: 0x0047 [0x1D] PRINT_EVENT_MESSAGE(message_id=7363*)
    → "Me be keeper of treasure chamber. Hoot! Me be differing from brethren in not liking to fight. Smoothskin have no business here! Should leave now!"
  2: 0x004A [0x23] WAIT_FOR_DIALOG_INTERACTION
  3: 0x004B [0x21] END_EVENT
  4: 0x004C [0x00] END_REQSTACK()
```
