# 17371594 - Quu Bokye

## Common Data

| Field            | Value             |
|------------------|-------------------|
| Zone             | Giddeus (ID: 145) |
| Block Size       | 304 bytes         |
| Total Events     | 10                |
| References Count | 18                |

## List of Events

| Event ID              | Entrypoint   |   Size |   Instructions |
|-----------------------|--------------|--------|----------------|
| [65535](#event-65535) | 0x0000       |      1 |              1 |
| [56](#event-56)       | 0x0001       |     11 |              5 |
| [57](#event-57)       | 0x000C       |     16 |              6 |
| [58](#event-58)       | 0x001C       |     19 |              8 |
| [59](#event-59)       | 0x002F       |     16 |              6 |
| [61](#event-61)       | 0x003F       |     24 |             10 |
| [62](#event-62)       | 0x0057       |     15 |              7 |
| [63](#event-63)       | 0x0066       |     25 |             11 |
| [64](#event-64)       | 0x007F       |     26 |             10 |
| [65](#event-65)       | 0x0099       |     21 |              9 |

## DAT References (imed_data)

|   Index | Hex Value   |   Dec Value |
|---------|-------------|-------------|
|       0 | 0x1CAE      |        7342 |
|       1 | 0x02EE      |         750 |
|       2 | 0x1CAF      |        7343 |
|       3 | 0x1CB0      |        7344 |
|       4 | 0x1CB1      |        7345 |
|       5 | 0x115D      |        4445 |
|       6 | 0x1CCF      |        7375 |
|       7 | 0x1CD0      |        7376 |
|       8 | 0x1CD1      |        7377 |
|       9 | 0x1CD3      |        7379 |
|      10 | 0x1CD4      |        7380 |
|      11 | 0x1CD2      |        7378 |
|      12 | 0x03CB      |         971 |
|      13 | 0x1CB2      |        7346 |
|      14 | 0x02ED      |         749 |
|      15 | 0x1CB3      |        7347 |
|      16 | 0x1CB4      |        7348 |
|      17 | 0x1CB5      |        7349 |

## String References

- **7342**: These "books" you smoothskins read, I am finding them very interesting. Book-book-book!
- **7343**: Squawk? You are wanting this book? You are giving me $0, and I give book.
- **7344**: Ack-ack-ack! %! Here, you are taking book.
- **7345**: Books good, but $0 are better! Ack-ack-ack!
- **7346**: Ack-ack-ack! Why smoothskin here? Squawk? You are searching for $3?
- **7347**: I am having that book. You are giving me $1, and I give book.
- **7348**: Ack-ack-ack! $1! Here, you are taking book.
- **7349**: Strange smoothskin wanting old book. Ack-ack-ack!
- **7375**: You want to be seeing Vaa Huja the Erudite? Funny smoothskin you are. Ack-ack-ack!
- **7376**: What you say, "it takes one to know one?" The one you are seeking, strange he is. Hates the $1. Just the smell is ruffling his feathers.
- **7377**: The $1? Me, I am more than happy to be taking!
- **7378**: Squawk!? The $1, my favorite it be! For smoothskin, you are pretty smart.
- **7379**: Ack-ack-ack! For you I am telling. Vaa Huja the Erudite is reading book in hole, far south.
- **7380**: But way he is, by sneaking or creeping, you not getting close to him, I know.

## Events

### Event 65535

#### Metadata

| Field        | Value   |
|--------------|---------|
| Entrypoint   | 0x0000  |
| Data Size    | 1 bytes |
| Instructions | 1       |

```
      00 01 02 03 04 05 06 07  08 09 0A 0B 0C 0D 0E 0F
      -- -- -- -- -- -- -- --  -- -- -- -- -- -- -- --
0000: 00                                                .               
```

#### Opcodes

```
  0: 0x0000 [0x00] END_REQSTACK()
```

### Event 56

#### Metadata

| Field        | Value    |
|--------------|----------|
| Entrypoint   | 0x0001   |
| Data Size    | 11 bytes |
| Instructions | 5        |

```
      00 01 02 03 04 05 06 07  08 09 0A 0B 0C 0D 0E 0F
      -- -- -- -- -- -- -- --  -- -- -- -- -- -- -- --
0000:    1E F0 FF FF 7F 1D 00  80 23 21 00               ........#!.    
```

#### Opcodes

```
  0: 0x0001 [0x1E] EventEntity looks at LocalPlayer and starts talking
  1: 0x0006 [0x1D] PRINT_EVENT_MESSAGE(message_id=7342*)
    → "These "books" you smoothskins read, I am finding them very interesting. Book-book-book!"
  2: 0x0009 [0x23] WAIT_FOR_DIALOG_INTERACTION
  3: 0x000A [0x21] END_EVENT
  4: 0x000B [0x00] END_REQSTACK()
```

### Event 57

#### Metadata

| Field        | Value    |
|--------------|----------|
| Entrypoint   | 0x000C   |
| Data Size    | 16 bytes |
| Instructions | 6        |

```
      00 01 02 03 04 05 06 07  08 09 0A 0B 0C 0D 0E 0F
      -- -- -- -- -- -- -- --  -- -- -- -- -- -- -- --
0000:                                      1E F0 FF FF              ....
0010: 7F 03 02 10 01 80 1D 02  80 23 21 00              .........#!.    
```

#### Opcodes

```
  0: 0x000C [0x1E] EventEntity looks at LocalPlayer and starts talking
  1: 0x0011 [0x03] Work_Zone[2] = 750*
  2: 0x0016 [0x1D] PRINT_EVENT_MESSAGE(message_id=7343*)
    → "Squawk? You are wanting this book? You are giving me $0, and I give book."
  3: 0x0019 [0x23] WAIT_FOR_DIALOG_INTERACTION
  4: 0x001A [0x21] END_EVENT
  5: 0x001B [0x00] END_REQSTACK()
```

### Event 58

#### Metadata

| Field        | Value    |
|--------------|----------|
| Entrypoint   | 0x001C   |
| Data Size    | 19 bytes |
| Instructions | 8        |

```
      00 01 02 03 04 05 06 07  08 09 0A 0B 0C 0D 0E 0F
      -- -- -- -- -- -- -- --  -- -- -- -- -- -- -- --
0010:                                      42 1E F0 FF              B...
0020: FF 7F 03 02 10 01 80 1D  03 80 23 20 00 21 00     ..........# .!. 
```

#### Opcodes

```
  0: 0x001C [0x42] SET_CLI_EVENT_CANCEL_DATA()
  1: 0x001D [0x1E] EventEntity looks at LocalPlayer and starts talking
  2: 0x0022 [0x03] Work_Zone[2] = 750*
  3: 0x0027 [0x1D] PRINT_EVENT_MESSAGE(message_id=7344*)
    → "Ack-ack-ack! %! Here, you are taking book."
  4: 0x002A [0x23] WAIT_FOR_DIALOG_INTERACTION
  5: 0x002B [0x20] SET_CLI_EVENT_UC_FLAG: Unlock player control
  6: 0x002D [0x21] END_EVENT
  7: 0x002E [0x00] END_REQSTACK()
```

### Event 59

#### Metadata

| Field        | Value    |
|--------------|----------|
| Entrypoint   | 0x002F   |
| Data Size    | 16 bytes |
| Instructions | 6        |

```
      00 01 02 03 04 05 06 07  08 09 0A 0B 0C 0D 0E 0F
      -- -- -- -- -- -- -- --  -- -- -- -- -- -- -- --
0020:                                               1E                 .
0030: F0 FF FF 7F 03 02 10 01  80 1D 04 80 23 21 00     ............#!. 
```

#### Opcodes

```
  0: 0x002F [0x1E] EventEntity looks at LocalPlayer and starts talking
  1: 0x0034 [0x03] Work_Zone[2] = 750*
  2: 0x0039 [0x1D] PRINT_EVENT_MESSAGE(message_id=7345*)
    → "Books good, but $0 are better! Ack-ack-ack!"
  3: 0x003C [0x23] WAIT_FOR_DIALOG_INTERACTION
  4: 0x003D [0x21] END_EVENT
  5: 0x003E [0x00] END_REQSTACK()
```

### Event 61

#### Metadata

| Field        | Value    |
|--------------|----------|
| Entrypoint   | 0x003F   |
| Data Size    | 24 bytes |
| Instructions | 10       |

```
      00 01 02 03 04 05 06 07  08 09 0A 0B 0C 0D 0E 0F
      -- -- -- -- -- -- -- --  -- -- -- -- -- -- -- --
0030:                                               1E                 .
0040: F0 FF FF 7F 03 03 10 05  80 1D 06 80 23 1D 07 80  ............#...
0050: 23 1D 08 80 23 21 00                              #...#!.         
```

#### Opcodes

```
  0: 0x003F [0x1E] EventEntity looks at LocalPlayer and starts talking
  1: 0x0044 [0x03] Work_Zone[3] = 4445*
  2: 0x0049 [0x1D] PRINT_EVENT_MESSAGE(message_id=7375*)
    → "You want to be seeing Vaa Huja the Erudite? Funny smoothskin you are. Ack-ack-ack!"
  3: 0x004C [0x23] WAIT_FOR_DIALOG_INTERACTION
  4: 0x004D [0x1D] PRINT_EVENT_MESSAGE(message_id=7376*)
    → "What you say, "it takes one to know one?" The one you are seeking, strange he is. Hates the $1. Just the smell is ruffling his feathers."
  5: 0x0050 [0x23] WAIT_FOR_DIALOG_INTERACTION
  6: 0x0051 [0x1D] PRINT_EVENT_MESSAGE(message_id=7377*)
    → "The $1? Me, I am more than happy to be taking!"
  7: 0x0054 [0x23] WAIT_FOR_DIALOG_INTERACTION
  8: 0x0055 [0x21] END_EVENT
  9: 0x0056 [0x00] END_REQSTACK()
```

### Event 62

#### Metadata

| Field        | Value    |
|--------------|----------|
| Entrypoint   | 0x0057   |
| Data Size    | 15 bytes |
| Instructions | 7        |

```
      00 01 02 03 04 05 06 07  08 09 0A 0B 0C 0D 0E 0F
      -- -- -- -- -- -- -- --  -- -- -- -- -- -- -- --
0050:                      1E  F0 FF FF 7F 1D 09 80 23         ........#
0060: 1D 0A 80 23 21 00                                 ...#!.          
```

#### Opcodes

```
  0: 0x0057 [0x1E] EventEntity looks at LocalPlayer and starts talking
  1: 0x005C [0x1D] PRINT_EVENT_MESSAGE(message_id=7379*)
    → "Ack-ack-ack! For you I am telling. Vaa Huja the Erudite is reading book in hole, far south."
  2: 0x005F [0x23] WAIT_FOR_DIALOG_INTERACTION
  3: 0x0060 [0x1D] PRINT_EVENT_MESSAGE(message_id=7380*)
    → "But way he is, by sneaking or creeping, you not getting close to him, I know."
  4: 0x0063 [0x23] WAIT_FOR_DIALOG_INTERACTION
  5: 0x0064 [0x21] END_EVENT
  6: 0x0065 [0x00] END_REQSTACK()
```

### Event 63

#### Metadata

| Field        | Value    |
|--------------|----------|
| Entrypoint   | 0x0066   |
| Data Size    | 25 bytes |
| Instructions | 11       |

```
      00 01 02 03 04 05 06 07  08 09 0A 0B 0C 0D 0E 0F
      -- -- -- -- -- -- -- --  -- -- -- -- -- -- -- --
0060:                   42 1E  F0 FF FF 7F 03 03 10 05        B.........
0070: 80 1D 0B 80 23 1D 09 80  23 1D 0A 80 23 21 00     ....#...#...#!. 
```

#### Opcodes

```
  0: 0x0066 [0x42] SET_CLI_EVENT_CANCEL_DATA()
  1: 0x0067 [0x1E] EventEntity looks at LocalPlayer and starts talking
  2: 0x006C [0x03] Work_Zone[3] = 4445*
  3: 0x0071 [0x1D] PRINT_EVENT_MESSAGE(message_id=7378*)
    → "Squawk!? The $1, my favorite it be! For smoothskin, you are pretty smart."
  4: 0x0074 [0x23] WAIT_FOR_DIALOG_INTERACTION
  5: 0x0075 [0x1D] PRINT_EVENT_MESSAGE(message_id=7379*)
    → "Ack-ack-ack! For you I am telling. Vaa Huja the Erudite is reading book in hole, far south."
  6: 0x0078 [0x23] WAIT_FOR_DIALOG_INTERACTION
  7: 0x0079 [0x1D] PRINT_EVENT_MESSAGE(message_id=7380*)
    → "But way he is, by sneaking or creeping, you not getting close to him, I know."
  8: 0x007C [0x23] WAIT_FOR_DIALOG_INTERACTION
  9: 0x007D [0x21] END_EVENT
 10: 0x007E [0x00] END_REQSTACK()
```

### Event 64

#### Metadata

| Field        | Value    |
|--------------|----------|
| Entrypoint   | 0x007F   |
| Data Size    | 26 bytes |
| Instructions | 10       |

```
      00 01 02 03 04 05 06 07  08 09 0A 0B 0C 0D 0E 0F
      -- -- -- -- -- -- -- --  -- -- -- -- -- -- -- --
0070:                                               42                 B
0080: 1E F0 FF FF 7F 03 02 10  0C 80 1D 0D 80 23 03 03  .............#..
0090: 10 0E 80 1D 0F 80 23 21  00                       ......#!.       
```

#### Opcodes

```
  0: 0x007F [0x42] SET_CLI_EVENT_CANCEL_DATA()
  1: 0x0080 [0x1E] EventEntity looks at LocalPlayer and starts talking
  2: 0x0085 [0x03] Work_Zone[2] = 971*
  3: 0x008A [0x1D] PRINT_EVENT_MESSAGE(message_id=7346*)
    → "Ack-ack-ack! Why smoothskin here? Squawk? You are searching for $3?"
  4: 0x008D [0x23] WAIT_FOR_DIALOG_INTERACTION
  5: 0x008E [0x03] Work_Zone[3] = 749*
  6: 0x0093 [0x1D] PRINT_EVENT_MESSAGE(message_id=7347*)
    → "I am having that book. You are giving me $1, and I give book."
  7: 0x0096 [0x23] WAIT_FOR_DIALOG_INTERACTION
  8: 0x0097 [0x21] END_EVENT
  9: 0x0098 [0x00] END_REQSTACK()
```

### Event 65

#### Metadata

| Field        | Value    |
|--------------|----------|
| Entrypoint   | 0x0099   |
| Data Size    | 21 bytes |
| Instructions | 9        |

```
      00 01 02 03 04 05 06 07  08 09 0A 0B 0C 0D 0E 0F
      -- -- -- -- -- -- -- --  -- -- -- -- -- -- -- --
0090:                             42 1E F0 FF FF 7F 03           B......
00A0: 03 10 0E 80 1D 10 80 23  1D 11 80 23 21 00        .......#...#!.  
```

#### Opcodes

```
  0: 0x0099 [0x42] SET_CLI_EVENT_CANCEL_DATA()
  1: 0x009A [0x1E] EventEntity looks at LocalPlayer and starts talking
  2: 0x009F [0x03] Work_Zone[3] = 749*
  3: 0x00A4 [0x1D] PRINT_EVENT_MESSAGE(message_id=7348*)
    → "Ack-ack-ack! $1! Here, you are taking book."
  4: 0x00A7 [0x23] WAIT_FOR_DIALOG_INTERACTION
  5: 0x00A8 [0x1D] PRINT_EVENT_MESSAGE(message_id=7349*)
    → "Strange smoothskin wanting old book. Ack-ack-ack!"
  6: 0x00AB [0x23] WAIT_FOR_DIALOG_INTERACTION
  7: 0x00AC [0x21] END_EVENT
  8: 0x00AD [0x00] END_REQSTACK()
```
