# 17269228 - DIRECTOR

## Common Data

| Field            | Value                          |
|------------------|--------------------------------|
| Zone             | Sauromugue Champaign (ID: 120) |
| Block Size       | 228 bytes                      |
| Total Events     | 5                              |
| References Count | 8                              |

## List of Events

| Event ID                 | Entrypoint   |   Size |   Instructions |
|--------------------------|--------------|--------|----------------|
| [65535](#event-65535)    | 0x0000       |      1 |              1 |
| [1](#event-1)            | 0x0001       |     48 |             11 |
| [65535.1](#event-655351) | 0x0031       |     27 |              6 |
| [65535.2](#event-655352) | 0x004C       |     55 |             11 |
| [65535.3](#event-655353) | 0x0083       |     27 |              6 |

## DAT References (imed_data)

|   Index | Hex Value   |   Dec Value |
|---------|-------------|-------------|
|       0 | 0x1C53      |        7251 |
|       1 | 0x0000      |           0 |
|       2 | 0x0001      |           1 |
|       3 | 0x1C55      |        7253 |
|       4 | 0x1C56      |        7254 |
|       5 | 0x000B      |          11 |
|       6 | 0x000C      |          12 |
|       7 | 0x1C54      |        7252 |

## String References

- **7251**: WHAT YOU WANT TO DO? [ EVENT./WARP.]
- **7252**: TO WHERE? [BONEY GRAVEYARD!]
- **7253**: WHAT QUEST? ["S/HE THAT BARES ONE'S FANGS"!]
- **7254**: AND SO...? [TAKE FANG RIGHT AWAY!/START QUEST OVER.]

## Events

### Event 65535

#### Metadata

| Field        | Value   |
|--------------|---------|
| Entrypoint   | 0x0000  |
| Data Size    | 1 bytes |
| Instructions | 1       |

```
      00 01 02 03 04 05 06 07  08 09 0A 0B 0C 0D 0E 0F
      -- -- -- -- -- -- -- --  -- -- -- -- -- -- -- --
0000: 00                                                .               
```

#### Opcodes

```
  0: 0x0000 [0x00] END_REQSTACK()
```

### Event 1

#### Metadata

| Field        | Value    |
|--------------|----------|
| Entrypoint   | 0x0001   |
| Data Size    | 48 bytes |
| Instructions | 11       |

```
      00 01 02 03 04 05 06 07  08 09 0A 0B 0C 0D 0E 0F
      -- -- -- -- -- -- -- --  -- -- -- -- -- -- -- --
0000:    24 00 80 01 80 01 80  25 02 00 10 01 80 00 1B   $......%.......
0010: 00 29 0D EC 81 07 01 02  01 2D 00 02 00 10 02 80  .).......-......
0020: 00 2D 00 29 0D EC 81 07  01 04 01 2D 00 20 00 21  .-.).......-. .!
0030: 00                                                .               
```

#### Opcodes

```
  0: 0x0001 [0x24] CREATE_DIALOG(message_id=7251*, default_option=0*, option_flags=0*)
    → "WHAT YOU WANT TO DO? [ EVENT./WARP.]"
  1: 0x0008 [0x25] WAIT_DIALOG_SELECT()
  2: 0x0009 [0x02] IF !(Work_Zone[0] == 0*) GOTO 0x001B
  3: 0x0011 [0x29] REQ_SET_WAIT(priority=0x0D, entity_id=DIRECTOR (ID: 17269228/0x010781EC), tag_num=0x02)
  4: 0x0018 [0x01] GOTO 0x002D
  5: 0x001B [0x02] IF !(Work_Zone[0] == 1*) GOTO 0x002D
  6: 0x0023 [0x29] REQ_SET_WAIT(priority=0x0D, entity_id=DIRECTOR (ID: 17269228/0x010781EC), tag_num=0x04)
  7: 0x002A [0x01] GOTO 0x002D

SUBROUTINE_002D:
  8: 0x002D [0x20] SET_CLI_EVENT_UC_FLAG: Unlock player control
  9: 0x002F [0x21] END_EVENT
 10: 0x0030 [0x00] END_REQSTACK()
```

### Event 65535.1

#### Metadata

| Field        | Value    |
|--------------|----------|
| Entrypoint   | 0x0031   |
| Data Size    | 27 bytes |
| Instructions | 6        |

```
      00 01 02 03 04 05 06 07  08 09 0A 0B 0C 0D 0E 0F
      -- -- -- -- -- -- -- --  -- -- -- -- -- -- -- --
0030:    24 03 80 01 80 01 80  25 02 00 10 01 80 00 4B   $......%......K
0040: 00 29 0B EC 81 07 01 03  01 4B 00 00              .).......K..    
```

#### Opcodes

```
  0: 0x0031 [0x24] CREATE_DIALOG(message_id=7253*, default_option=0*, option_flags=0*)
    → "WHAT QUEST? ["S/HE THAT BARES ONE'S FANGS"!]"
  1: 0x0038 [0x25] WAIT_DIALOG_SELECT()
  2: 0x0039 [0x02] IF !(Work_Zone[0] == 0*) GOTO 0x004B
  3: 0x0041 [0x29] REQ_SET_WAIT(priority=0x0B, entity_id=DIRECTOR (ID: 17269228/0x010781EC), tag_num=0x03)
  4: 0x0048 [0x01] GOTO 0x004B

SUBROUTINE_004B:
  5: 0x004B [0x00] END_REQSTACK()
```

### Event 65535.2

#### Metadata

| Field        | Value    |
|--------------|----------|
| Entrypoint   | 0x004C   |
| Data Size    | 55 bytes |
| Instructions | 11       |

```
      00 01 02 03 04 05 06 07  08 09 0A 0B 0C 0D 0E 0F
      -- -- -- -- -- -- -- --  -- -- -- -- -- -- -- --
0040:                                      24 04 80 01              $...
0050: 80 01 80 25 02 00 10 01  80 00 6B 00 29 0A F0 FF  ...%......k.)...
0060: FF 7F 02 03 01 10 05 80  01 82 00 02 00 10 02 80  ................
0070: 00 82 00 29 0A F0 FF FF  7F 02 03 01 10 06 80 01  ...)............
0080: 82 00 00                                          ...             
```

#### Opcodes

```
  0: 0x004C [0x24] CREATE_DIALOG(message_id=7254*, default_option=0*, option_flags=0*)
    → "AND SO...? [TAKE FANG RIGHT AWAY!/START QUEST OVER.]"
  1: 0x0053 [0x25] WAIT_DIALOG_SELECT()
  2: 0x0054 [0x02] IF !(Work_Zone[0] == 0*) GOTO 0x006B
  3: 0x005C [0x29] REQ_SET_WAIT(priority=0x0A, entity_id=LocalPlayer, tag_num=0x02)
  4: 0x0063 [0x03] Work_Zone[1] = 11*
  5: 0x0068 [0x01] GOTO 0x0082
  6: 0x006B [0x02] IF !(Work_Zone[0] == 1*) GOTO 0x0082
  7: 0x0073 [0x29] REQ_SET_WAIT(priority=0x0A, entity_id=LocalPlayer, tag_num=0x02)
  8: 0x007A [0x03] Work_Zone[1] = 12*
  9: 0x007F [0x01] GOTO 0x0082

SUBROUTINE_0082:
 10: 0x0082 [0x00] END_REQSTACK()
```

### Event 65535.3

#### Metadata

| Field        | Value    |
|--------------|----------|
| Entrypoint   | 0x0083   |
| Data Size    | 27 bytes |
| Instructions | 6        |

```
      00 01 02 03 04 05 06 07  08 09 0A 0B 0C 0D 0E 0F
      -- -- -- -- -- -- -- --  -- -- -- -- -- -- -- --
0080:          24 07 80 01 80  01 80 25 02 00 10 01 80     $......%.....
0090: 00 9D 00 29 0B F0 FF FF  7F 02 01 9D 00 00        ...)..........  
```

#### Opcodes

```
  0: 0x0083 [0x24] CREATE_DIALOG(message_id=7252*, default_option=0*, option_flags=0*)
    → "TO WHERE? [BONEY GRAVEYARD!]"
  1: 0x008A [0x25] WAIT_DIALOG_SELECT()
  2: 0x008B [0x02] IF !(Work_Zone[0] == 0*) GOTO 0x009D
  3: 0x0093 [0x29] REQ_SET_WAIT(priority=0x0B, entity_id=LocalPlayer, tag_num=0x02)
  4: 0x009A [0x01] GOTO 0x009D

SUBROUTINE_009D:
  5: 0x009D [0x00] END_REQSTACK()
```
