# 17269251 - Burrow Researcher

## Common Data

| Field            | Value                          |
|------------------|--------------------------------|
| Zone             | Sauromugue Champaign (ID: 120) |
| Block Size       | 10996 bytes                    |
| Total Events     | 8                              |
| References Count | 374                            |

## List of Events

| Event ID              | Entrypoint   |   Size |   Instructions |
|-----------------------|--------------|--------|----------------|
| [65535](#event-65535) | 0x0000       |      1 |              1 |
| [5500](#event-5500)   | 0x0001       |   4550 |           1089 |
| [5501](#event-5501)   | 0x11C7       |   3824 |            874 |
| [5506](#event-5506)   | 0x20B7       |    149 |             40 |
| [5508](#event-5508)   | 0x214C       |     11 |              5 |
| [5509](#event-5509)   | 0x2157       |     11 |              5 |
| [5510](#event-5510)   | 0x2162       |     15 |              7 |
| [5511](#event-5511)   | 0x2171       |    891 |            209 |

## DAT References (imed_data)

|   Index | Hex Value   |   Dec Value |
|---------|-------------|-------------|
|       0 | 0x0000      |           0 |
|       1 | 0x0002      |           2 |
|       2 | 0x0003      |           3 |
|       3 | 0x000F      |          15 |
|       4 | 0x0010      |          16 |
|       5 | 0x001F      |          31 |
|       6 | 0x0001      |           1 |
|       7 | 0x2FD1      |       12241 |
|       8 | 0x2FD2      |       12242 |
|       9 | 0x000D      |          13 |
|      10 | 0x2FD3      |       12243 |
|      11 | 0x2FD4      |       12244 |
|      12 | 0x2FD5      |       12245 |
|      13 | 0x2FD6      |       12246 |
|      14 | 0x0862      |        2146 |
|      15 | 0x0861      |        2145 |
|      16 | 0x2FD7      |       12247 |
|      17 | 0x2FD8      |       12248 |
|      18 | 0x2FD9      |       12249 |
|      19 | 0x2FDA      |       12250 |
|      20 | 0x2FDB      |       12251 |
|      21 | 0x1733      |        5939 |
|      22 | 0x2FDC      |       12252 |
|      23 | 0x2FDD      |       12253 |
|      24 | 0x2FDE      |       12254 |
|      25 | 0x2FDF      |       12255 |
|      26 | 0x2FE1      |       12257 |
|      27 | 0x2FE2      |       12258 |
|      28 | 0x2FE3      |       12259 |
|      29 | 0x2FE4      |       12260 |
|      30 | 0x2FE5      |       12261 |
|      31 | 0x2FE6      |       12262 |
|      32 | 0x0014      |          20 |
|      33 | 0x2FE0      |       12256 |
|      34 | 0x000B      |          11 |
|      35 | 0x0006      |           6 |
|      36 | 0xFFFFF041  |  4294963265 |
|      37 | 0xFFFFF04F  |  4294963279 |
|      38 | 0x000C      |          12 |
|      39 | 0x2FE8      |       12264 |
|      40 | 0x2FE7      |       12263 |
|      41 | 0x0007      |           7 |
|      42 | 0x0005      |           5 |
|      43 | 0x0017      |          23 |
|      44 | 0x0004      |           4 |
|      45 | 0x0008      |           8 |
|      46 | 0x0009      |           9 |
|      47 | 0x000A      |          10 |
|      48 | 0x40000000  |  1073741824 |
|      49 | 0x001D      |          29 |
|      50 | 0x001E      |          30 |
|      51 | 0x2FE9      |       12265 |
|      52 | 0x2FEA      |       12266 |
|      53 | 0x2FEB      |       12267 |
|      54 | 0x2FEC      |       12268 |
|      55 | 0x2FED      |       12269 |
|      56 | 0x2FEF      |       12271 |
|      57 | 0x2FF0      |       12272 |
|      58 | 0x2FF1      |       12273 |
|      59 | 0x2FF2      |       12274 |
|      60 | 0x2FF3      |       12275 |
|      61 | 0x2FF4      |       12276 |
|      62 | 0x2FF5      |       12277 |
|      63 | 0x2FF6      |       12278 |
|      64 | 0x2FF7      |       12279 |
|      65 | 0x2FF8      |       12280 |
|      66 | 0x2FF9      |       12281 |
|      67 | 0x2FFB      |       12283 |
|      68 | 0x2FFA      |       12282 |
|      69 | 0x2FFC      |       12284 |
|      70 | 0x2FFE      |       12286 |
|      71 | 0x2FFF      |       12287 |
|      72 | 0x3000      |       12288 |
|      73 | 0x3001      |       12289 |
|      74 | 0x3002      |       12290 |
|      75 | 0x3003      |       12291 |
|      76 | 0x3004      |       12292 |
|      77 | 0x3005      |       12293 |
|      78 | 0x3006      |       12294 |
|      79 | 0x3007      |       12295 |
|      80 | 0x3008      |       12296 |
|      81 | 0x3009      |       12297 |
|      82 | 0x300A      |       12298 |
|      83 | 0x1732      |        5938 |
|      84 | 0x300B      |       12299 |
|      85 | 0x300C      |       12300 |
|      86 | 0x300D      |       12301 |
|      87 | 0x300E      |       12302 |
|      88 | 0x300F      |       12303 |
|      89 | 0x3010      |       12304 |
|      90 | 0x3011      |       12305 |
|      91 | 0x3012      |       12306 |
|      92 | 0x3013      |       12307 |
|      93 | 0x3014      |       12308 |
|      94 | 0x3015      |       12309 |
|      95 | 0x3016      |       12310 |
|      96 | 0x3017      |       12311 |
|      97 | 0x3018      |       12312 |
|      98 | 0x3019      |       12313 |
|      99 | 0x301A      |       12314 |
|     100 | 0x301B      |       12315 |
|     101 | 0x301C      |       12316 |
|     102 | 0x301D      |       12317 |
|     103 | 0x301E      |       12318 |
|     104 | 0x301F      |       12319 |
|     105 | 0x3020      |       12320 |
|     106 | 0x3021      |       12321 |
|     107 | 0x3022      |       12322 |
|     108 | 0x3023      |       12323 |
|     109 | 0x3024      |       12324 |
|     110 | 0x3025      |       12325 |
|     111 | 0x3026      |       12326 |
|     112 | 0x3027      |       12327 |
|     113 | 0x3028      |       12328 |
|     114 | 0x3029      |       12329 |
|     115 | 0x302A      |       12330 |
|     116 | 0x302B      |       12331 |
|     117 | 0x302C      |       12332 |
|     118 | 0x302D      |       12333 |
|     119 | 0x302E      |       12334 |
|     120 | 0x302F      |       12335 |
|     121 | 0x3030      |       12336 |
|     122 | 0x3031      |       12337 |
|     123 | 0x3032      |       12338 |
|     124 | 0x3033      |       12339 |
|     125 | 0x3034      |       12340 |
|     126 | 0x3035      |       12341 |
|     127 | 0x3036      |       12342 |
|     128 | 0x3037      |       12343 |
|     129 | 0x3038      |       12344 |
|     130 | 0x3039      |       12345 |
|     131 | 0x303A      |       12346 |
|     132 | 0x303B      |       12347 |
|     133 | 0x303C      |       12348 |
|     134 | 0x303D      |       12349 |
|     135 | 0x303E      |       12350 |
|     136 | 0x303F      |       12351 |
|     137 | 0x3040      |       12352 |
|     138 | 0x3041      |       12353 |
|     139 | 0x3042      |       12354 |
|     140 | 0x3044      |       12356 |
|     141 | 0x3046      |       12358 |
|     142 | 0x007A      |         122 |
|     143 | 0x0104      |         260 |
|     144 | 0x00C8      |         200 |
|     145 | 0x003C      |          60 |
|     146 | 0xFFFFFFFE  |  4294967294 |
|     147 | 0x304F      |       12367 |
|     148 | 0x3048      |       12360 |
|     149 | 0x3047      |       12359 |
|     150 | 0x0F23      |        3875 |
|     151 | 0x0F24      |        3876 |
|     152 | 0x0F25      |        3877 |
|     153 | 0x0F26      |        3878 |
|     154 | 0x0F27      |        3879 |
|     155 | 0x3049      |       12361 |
|     156 | 0x07D0      |        2000 |
|     157 | 0x304A      |       12362 |
|     158 | 0x304B      |       12363 |
|     159 | 0x3050      |       12368 |
|     160 | 0x3051      |       12369 |
|     161 | 0x3052      |       12370 |
|     162 | 0x3053      |       12371 |
|     163 | 0x3054      |       12372 |
|     164 | 0x0015      |          21 |
|     165 | 0x0013      |          19 |
|     166 | 0x000E      |          14 |
|     167 | 0x3055      |       12373 |
|     168 | 0x0012      |          18 |
|     169 | 0xFFFFFFFF  |  4294967295 |
|     170 | 0x3056      |       12374 |
|     171 | 0x03E8      |        1000 |
|     172 | 0x1388      |        5000 |
|     173 | 0x2710      |       10000 |
|     174 | 0x305A      |       12378 |
|     175 | 0x305B      |       12379 |
|     176 | 0x3059      |       12377 |
|     177 | 0x3062      |       12386 |
|     178 | 0x3063      |       12387 |
|     179 | 0x3064      |       12388 |
|     180 | 0x304C      |       12364 |
|     181 | 0x305E      |       12382 |
|     182 | 0x305F      |       12383 |
|     183 | 0x3060      |       12384 |
|     184 | 0x3061      |       12385 |
|     185 | 0x0011      |          17 |
|     186 | 0x0863      |        2147 |
|     187 | 0x0864      |        2148 |
|     188 | 0x0865      |        2149 |
|     189 | 0x0866      |        2150 |
|     190 | 0x0867      |        2151 |
|     191 | 0x27100     |      160000 |
|     192 | 0x2BF20     |      180000 |
|     193 | 0x30D40     |      200000 |
|     194 | 0x35B60     |      220000 |
|     195 | 0x3A980     |      240000 |
|     196 | 0x0895      |        2197 |
|     197 | 0x0896      |        2198 |
|     198 | 0x0897      |        2199 |
|     199 | 0x493E0     |      300000 |
|     200 | 0x61A80     |      400000 |
|     201 | 0x7A120     |      500000 |
|     202 | 0x11940     |       72000 |
|     203 | 0x0258      |         600 |
|     204 | 0x0E10      |        3600 |
|     205 | 0x3068      |       12392 |
|     206 | 0x3067      |       12391 |
|     207 | 0x3066      |       12390 |
|     208 | 0x3057      |       12375 |
|     209 | 0x3058      |       12376 |
|     210 | 0x306A      |       12394 |
|     211 | 0x3069      |       12393 |
|     212 | 0x3070      |       12400 |
|     213 | 0x3071      |       12401 |
|     214 | 0x307A      |       12410 |
|     215 | 0x001A      |          26 |
|     216 | 0x3072      |       12402 |
|     217 | 0x3073      |       12403 |
|     218 | 0x3074      |       12404 |
|     219 | 0x3075      |       12405 |
|     220 | 0x3076      |       12406 |
|     221 | 0x0018      |          24 |
|     222 | 0x3077      |       12407 |
|     223 | 0x307F      |       12415 |
|     224 | 0x30AA      |       12458 |
|     225 | 0x30B7      |       12471 |
|     226 | 0x30B6      |       12470 |
|     227 | 0x30BB      |       12475 |
|     228 | 0x307B      |       12411 |
|     229 | 0x307C      |       12412 |
|     230 | 0x307D      |       12413 |
|     231 | 0x307E      |       12414 |
|     232 | 0x3080      |       12416 |
|     233 | 0x3081      |       12417 |
|     234 | 0x3082      |       12418 |
|     235 | 0x3083      |       12419 |
|     236 | 0x3084      |       12420 |
|     237 | 0x3085      |       12421 |
|     238 | 0x3086      |       12422 |
|     239 | 0x3087      |       12423 |
|     240 | 0x3088      |       12424 |
|     241 | 0x3089      |       12425 |
|     242 | 0x308A      |       12426 |
|     243 | 0x308B      |       12427 |
|     244 | 0x308C      |       12428 |
|     245 | 0x0016      |          22 |
|     246 | 0x308D      |       12429 |
|     247 | 0x308E      |       12430 |
|     248 | 0x308F      |       12431 |
|     249 | 0x0019      |          25 |
|     250 | 0x001B      |          27 |
|     251 | 0x3090      |       12432 |
|     252 | 0x001C      |          28 |
|     253 | 0x3091      |       12433 |
|     254 | 0x3092      |       12434 |
|     255 | 0x3093      |       12435 |
|     256 | 0x0020      |          32 |
|     257 | 0x3094      |       12436 |
|     258 | 0x0021      |          33 |
|     259 | 0x3095      |       12437 |
|     260 | 0x0022      |          34 |
|     261 | 0x3096      |       12438 |
|     262 | 0x0023      |          35 |
|     263 | 0x3097      |       12439 |
|     264 | 0x0024      |          36 |
|     265 | 0x0025      |          37 |
|     266 | 0x3098      |       12440 |
|     267 | 0x0026      |          38 |
|     268 | 0x3099      |       12441 |
|     269 | 0x0027      |          39 |
|     270 | 0x309A      |       12442 |
|     271 | 0x0028      |          40 |
|     272 | 0x309B      |       12443 |
|     273 | 0x0029      |          41 |
|     274 | 0x002A      |          42 |
|     275 | 0x309C      |       12444 |
|     276 | 0x309D      |       12445 |
|     277 | 0x309E      |       12446 |
|     278 | 0x309F      |       12447 |
|     279 | 0x30A0      |       12448 |
|     280 | 0x30A1      |       12449 |
|     281 | 0x30A2      |       12450 |
|     282 | 0x30A3      |       12451 |
|     283 | 0x30A4      |       12452 |
|     284 | 0x30A5      |       12453 |
|     285 | 0x30A6      |       12454 |
|     286 | 0x30A7      |       12455 |
|     287 | 0x30A8      |       12456 |
|     288 | 0x30A9      |       12457 |
|     289 | 0x30AB      |       12459 |
|     290 | 0x30AC      |       12460 |
|     291 | 0x30AD      |       12461 |
|     292 | 0x30AE      |       12462 |
|     293 | 0x30AF      |       12463 |
|     294 | 0x30B0      |       12464 |
|     295 | 0x30B1      |       12465 |
|     296 | 0x30B2      |       12466 |
|     297 | 0x30B3      |       12467 |
|     298 | 0x30B4      |       12468 |
|     299 | 0x30C0      |       12480 |
|     300 | 0x30C1      |       12481 |
|     301 | 0x30BC      |       12476 |
|     302 | 0x30BF      |       12479 |
|     303 | 0x30BD      |       12477 |
|     304 | 0x30BE      |       12478 |
|     305 | 0x2FCA      |       12234 |
|     306 | 0x30C2      |       12482 |
|     307 | 0x306C      |       12396 |
|     308 | 0x306D      |       12397 |
|     309 | 0x306E      |       12398 |
|     310 | 0x002D      |          45 |
|     311 | 0x0F21      |        3873 |
|     312 | 0x0F34      |        3892 |
|     313 | 0x1055      |        4181 |
|     314 | 0x1056      |        4182 |
|     315 | 0x4826      |       18470 |
|     316 | 0x4827      |       18471 |
|     317 | 0x2A2F      |       10799 |
|     318 | 0x2838      |       10296 |
|     319 | 0x283A      |       10298 |
|     320 | 0x4986      |       18822 |
|     321 | 0x283B      |       10299 |
|     322 | 0x2B36      |       11062 |
|     323 | 0x2AFD      |       11005 |
|     324 | 0x2AFE      |       11006 |
|     325 | 0x2A58      |       10840 |
|     326 | 0x4987      |       18823 |
|     327 | 0x2B37      |       11063 |
|     328 | 0x2A59      |       10841 |
|     329 | 0x289B      |       10395 |
|     330 | 0x2854      |       10324 |
|     331 | 0x2883      |       10371 |
|     332 | 0x6DA6      |       28070 |
|     333 | 0x28CD      |       10445 |
|     334 | 0x2B00      |       11008 |
|     335 | 0x282C      |       10284 |
|     336 | 0x282D      |       10285 |
|     337 | 0x282E      |       10286 |
|     338 | 0x2855      |       10325 |
|     339 | 0x2AFF      |       11007 |
|     340 | 0x289D      |       10397 |
|     341 | 0x535D      |       21341 |
|     342 | 0x6F72      |       28530 |
|     343 | 0x2B04      |       11012 |
|     344 | 0x535C      |       21340 |
|     345 | 0x2A5C      |       10844 |
|     346 | 0x4989      |       18825 |
|     347 | 0x6F73      |       28531 |
|     348 | 0x289E      |       10398 |
|     349 | 0x52FD      |       21245 |
|     350 | 0x535E      |       21342 |
|     351 | 0x6F74      |       28532 |
|     352 | 0x2A5D      |       10845 |
|     353 | 0x2831      |       10289 |
|     354 | 0x2A5E      |       10846 |
|     355 | 0x2B05      |       11013 |
|     356 | 0x2832      |       10290 |
|     357 | 0x2833      |       10291 |
|     358 | 0x2834      |       10292 |
|     359 | 0x4E20      |       20000 |
|     360 | 0x61A8      |       25000 |
|     361 | 0x7530      |       30000 |
|     362 | 0xC350      |       50000 |
|     363 | 0x9C40      |       40000 |
|     364 | 0x186A0     |      100000 |
|     365 | 0x13880     |       80000 |
|     366 | 0x11170     |       70000 |
|     367 | 0x55F0      |       22000 |
|     368 | 0x5DC0      |       24000 |
|     369 | 0x6590      |       26000 |
|     370 | 0xEA60      |       60000 |
|     371 | 0x15F90     |       90000 |
|     372 | 0x1D4C0     |      120000 |
|     373 | 0x249F0     |      150000 |

## String References

- **12234**: Hmmm. Sorry, but I don't think you have what it takes to survive these underground caverns.
- **12241**: Oho, I knew it was a good idea to prepare this grimoire. Here, it should help with your research.
- **12242**: It looks like you can't carry any more. Try emptying some articles out and return when you have the room.
- **12243**: Hahaha, you look like you've just been thrown from a chocobo! No need to be scared. I'll explain the process as best I can, but feel free to ask if I've missed something.
- **12244**: Let's see if I can do this. First, form a party of one to six people. Next, trade your grimoire to the Burrow Researcher in charge of the burrows you're investigating.
- **12245**: If the need arises, I can always transport you there.
- **12246**: Alright, here goes nothing. First, form a party of one to six people. Next, trade your grimoire to me.
- **12247**: [You'll receive/I'll give you/I'll give you] $6 and $6 once you hand it over. After that's done, you're ready to go spelunking...unless you're the party leader.
- **12248**: Then you'll have to talk to [the Burrow Researcher/me/me] again to decide which expedition to undertake.
- **12249**: I must warn you, though, that some expeditions require everyone to make a unanimous decision.
- **12250**: Once your party's expedition has been chosen, it's time to go spelunking.
- **12251**: Have your party leader talk to the Meeble guarding the burrow entrance. He'll escort you to the right research site.
- **12252**: After you've finished an expedition, use $1 to return aboveground and report to [the Burrow Researcher in charge or me/me/me] to get your grimoire back.
- **12253**: Now for a word about grimoires. They impart various benefits depending on what expeditions you've completed.
- **12254**: It's dangerous down there, so be sure to make use of your grimoire.
- **12255**: Finally, while there are many types of grimoires, they all share the same attributes. Feel free to change them out depending on your companions and the research assignment at hand.
- **12256**: You must be the explorer my compatriot in Jeuno was talking about. What brings you here?
- **12257**: Well, well, look who it is. What do you need this time?
- **12258**: Finally! I've been waiting for you this whole time.
- **12259**: We thought we had a bead on the Meebles' habitat, but it turns out we were dead wrong. There's another set of caverns in the vicinity of Batallia Downs!
- **12260**: I can't understand how it remained buried for so long. Reports abound that the Moblins have expanded their base of operations and are employing Meebles for "nefarious deeds" once again.
- **12261**: Now it's up to us, the Meeble Burrows Exploration Committee, to unearth heaping amounts of knowledge for our glorious archives! Oh, and maybe to save the day, too.
- **12262**: How, you ask? By collecting as much information as possible through new expeditions and finally getting to the bottom of this Moblin nuisance! We're always in need of proven researchers like yourself, should you wish to join in the action.
- **12265**: Any questions? [No, not right now./How does this whole research thing work?/I...descend into underground caves!?/What are these grimoires about?/How do I begin an expedition?/What goes on after an expedition?/What dastardly foes lurk down below?/Any rhyme or reason to these burrows?/What are research marks?/Can you tell me about the Meebles?/What is grimoire engraving?/Could you tell me about wizened worms?/Palimpsests? Huh?]
- **12266**: You adventurers can help us collect data by embarking on certain expeditions belowground. The goals and activities for each journey you undertake will vary, so this won't be just some routine experiment.
- **12267**: Although these subterranean caverns may appear simplistic from the outside, their twisting corridors disorient even the Moblins. Be careful.
- **12268**: Of course, you'll have to prove your problem-solving skills during more forgiving operations before we let you tackle the truly scary stuff.
- **12269**: Each expedition has a total of three goals for you to achieve. Complete just one goal or up to all three--the choice is yours. However, it should go without saying that the more goals you achieve, the better the reward.
- **12271**: Grimoires are types of magical books that ancient sorcerers brandished in battle long, long ago. Now that they've been unearthed again, we can use them for our benefit.
- **12272**: What's the point of adapting them for use in the burrows? Why, to record the feats of explorers like you. Without them, it would be much harder to complete expeditions.
- **12273**: Like I said, they're no picture books for children. They grant powerful effects for each expedition you finish.
- **12274**: These boons pack a punch from the get-go, but completing expeditions also allows you to increase their potency twice! See, I'm sure these grimoires will prove useful in your studies of the Meebles' tunnels.
- **12275**: Just to warn you beforehand, though, boons that affect Auto-Reraise and spoils cannot have their potency increased.
- **12276**: Another catch is that only the effects of your leader's tome may be bestowed upon your party for normal expeditions. Hopefully that should be all the firepower you need, though.
- **12277**: At the moment we only have $0 types of grimoires available, but we do plan on adding to that number eventually.
- **12278**: When you want to start a new expedition, just hand over your grimoire to the Burrow Researcher in charge of the burrows you're investigating.
- **12279**: When you want to start a new expedition, just hand over your grimoire to me.
- **12280**: Once you do that, [he'll/I'll/I'll] dole out $6 and $6.
- **12281**: Those're the only supplies you'll need to start spelunking, but not so fast. You first have to decide what expedition you'll undertake.
- **12282**: I'll help you make the necessary preparations for that based on your grimoire's records.
- **12283**: It may seem like a lot to handle, but there's no need to start shaking in your boots. The Burrow Researcher in charge of the burrows you're investigating will help you make all the necessary preparations for that based on your grimoire's records.
- **12284**: Only then can your party leader declare which journey you and your companions shall embark upon.
- **12286**: Oh, and before I forget--for particularly grueling endeavors, everyone must sign up individually. The higher-ups like to think of it as "exonerating the committee from responsibility" or something I don't understand.
- **12287**: After signing up, you'll <cough> almost <cough> be ready to set off. The thing is...Meebles[/, like that one over there,/, like that one over there,] roam the mouth of the burrows.
- **12288**: They don't trust anyone but the Moblins, so you'll have to dance like Moblins, prance like Moblins, and even romance like Moblins to gain access to the caves.
- **12289**: ...Actually, you'll only need to stink like Moblins. I can give you $6 in exchange for a grimoire to make sure you smell the part.
- **12290**: Don't worry, this method is tried and true. Meebles have very bad eyesight, so they mostly use their sense of smell to determine who's who.
- **12291**: That sense of smell, however, is unrivaled. Even if you're the only one who isn't carrying $6, they'll sniff you out in an instant.
- **12292**: In fact, the only reason I haven't been turned into Galka gristle after standing here so long is because I keep one on me at all times.
- **12293**: Once the $3 does its thing and the Meebles take you down into their burrows, you're free to experiment all you want.
- **12294**: ...Oh, but if you ever let enthusiasm get the best of you and forget your objectives, just use $6 to remind yourself.
- **12295**: There should be Speleological Handbooks secretly placed by our members all over the burrows.
- **12296**: Holding your $3 up to one should do the trick.
- **12297**: They can also serve as a way to record your underground activities.
- **12298**: Once you finish an expedition, any information you record will have to be reflected in your grimoire.
- **12299**: You'll be given $1 after completing an expedition.
- **12300**: One puff on your $1 will allow your whole posse to climb back aboveground.
- **12301**: After making your escape, there's only one thing left to do. Pay a visit to either the appropriate Burrow Researcher or me and show him your $3.
- **12302**: After making your escape, you can show your $3 to me.
- **12303**: [One of us will/I'll/I'll] reference the data you've collected and catalog it in your grimoire.
- **12304**: If you ever need to escape before completing an expedition, though, you can always use $3 instead.
- **12305**: Sadly, using $3 allows only its bearer to come up for air. Don't forget to show your $3 once you exit, even if you've bowed out midway through.
- **12306**: There's nothing wrong with leaving in the middle of an expedition. You'll never be penalized for it, as we wouldn't want to weaken your adventuring spirit.
- **12307**: Oh, and if you've been wondering how to get ahold of one of these $3, you'll get one from the Meeble guarding the entrance.
- **12308**: Some scary, twisted fiends roam the depths of these caverns...at least that's what our scouts who come back alive tell me. Of course, you'll likely come face-to-face with these nightmares, too.
- **12309**: Why? Well, because you'll be tasked with culling one of them after completing the first four expeditions in a course. That's why.
- **12310**: Whether you choose to accept such a dangerous mission is all up to you. However, keep this in mind.
- **12311**: Accepting such an assignment means you'll never get back any grimoires we're holding for you.
- **12312**: That's right. We'll need to archive all the precious data you've collected. Jeuno wasn't built in a day, and the same goes for our analysis of Meeble Burrows.
- **12313**: Oh, I almost forgot. For extremely harrowing journeys such as these, everyone must sign up individually.
- **12314**: This way we can be absolutely sure that everyone's prepared for the task at hand. We wouldn't want people without enough experience getting hurt down there.
- **12315**: In return for your cooperation (or to make sure you truly survive), I'll bestow on your whole party the boons everyone has received up until now.
- **12316**: This way you'll all be at your best to face the worst...in the name of science!
- **12317**: This may seem obvious, but you can't just mull around all you want down there.
- **12318**: Even if you can use $6 to confuse the Meebles, they aren't stupid enough to ignore you forever.
- **12319**: That's why we've set a $2-minute limit per expedition (Earth time). We want to limit the number of casualties to as few as possible. Safety first, that's our motto.
- **12320**: You should also know that we only give out one $3 every $1 [hour/minute][/s] (Earth time).
- **12321**: We do want you to be the best researcher you can be, though... How about we give you $3 $5 as a first-time offer? That way you can learn the ropes faster.
- **12322**: It took us a while to realize, but the health of our explorers started failing after they'd carry multiple pouches for long periods of time.
- **12323**: On the bright side, I'm bound by the Meeble Burrows Exploration Committee code to keep up to $3 of them for you. Don't ask why the pouches don't affect me. And if you make a joke about my mother being a Moblin...
- **12324**: I may be haler and heartier than the average Galka, but there's only so much of that stench I can take. If you need more pouches than I can carry, you'd better get yourself a pherobarrier box.
- **12325**: Mind if I change to a fairer smelling subject now?
- **12326**: In the event that the spirits haunting these caverns disallow one of your brethren entry, just return aboveground within three minutes without completing any objectives. You'll be refunded your $3 at no cost!
- **12327**: How nice of the committee, right? Now you don't have to burst a blood vessel if something happens during your descent.
- **12328**: We may have many limits and regulations, but we're not heartless. We also dole out "research marks" to those who help us learn about Meeble Burrows.
- **12329**: How do you get them? It's simple. The more you accomplish down there, the more marks you receive. You can also turn in marks for certain items and equipment.
- **12330**: There's no need to be a forlorn funguar, either. The more fellow researchers on your expedition, the more marks you reap. "The more the merrier" has never rung more true!
- **12331**: Our results suggest that Meebles are rather docile creatures, with little if any culture to speak of. They shouldn't pose much of a threat.
- **12332**: They're easily manipulated, though, and the Moblins have taken advantage of that. They put the Meebles to work in caverns all over the realm.
- **12333**: Meeble Burrows may be a quaint name, but what sort of fiends lurk amongst these dank caverns? Why are the Moblins making Meebles do their dirty work? And how large are these underground tunnels anyway? Maybe we haven't learned as much about the Meebles and their habitat as we thought...
- **12334**: Wait...if you don't mind crawling through caves and dirtying your own hands for a good cause, how about joining in the exploration? We could use another pair of eyes down there. Just talk to me when you decide you'd like to help the scientific community.
- **12335**: I'm sure I don't have to lecture you on receiving certain boons from your grimoire depending on the expeditions you've completed.
- **12336**: But you do remember that boons from one grimoire can't be applied to another, right?
- **12337**: Even worse, you build a relationship with your grimoire only to have it stolen away from you by some unfeeling bookworms right before you set off to slay the most fearsome of monsters!
- **12338**: Well, even if you don't remember, those days are long gone! That's the wonderful thing about science--it progresses!
- **12339**: We've identified unique arcane essences that are released with the completion of some goals and imbue the ink of our pens as we record your exploits.
- **12340**: Using these essences, we can reconstruct the boons you've received from your grimoire records. Let me explain.
- **12341**: If you had completed Adjunct Expedition #1, we could inscribe the boons from that expedition onto a blank grimoire.
- **12342**: Of course the boon would be the same as the one granted from completing that expedition...except for the fact that we can only inscribe level one boons into grimoires. Sorry, but the process is not yet perfect.
- **12343**: Want to know what else isn't perfect? These inscriptions aren't free. It's sad, but grimoires and pheromone sacks don't sprout from the ground, you know!
- **12344**: Meebles use their long sniffers to snuff up odds and ends from the burrow floor.
- **12345**: According to our latest scouting report, they dredged up some things called... Give me a minute here...
- **12346**: Palimpsests? I may not have the biggest brain this side of the Sea of Shu'Meyo, but I do know that these papers are some powerful stuff.
- **12347**: The MBEC now also gives away wizened worms to adventurers who complete objectives.
- **12348**: Meebles love their wizened worms, and how. Quite a non sequitur I pulled on you, right?
- **12349**: Except it's not! Give the Meebles that guard the burrow entrances some of those water-starved wrigglers and they'll give you stuff in return...possibly even some parades...sorry, palisades...uh, palimpsests.
- **12350**: Ridiculous name, I know. I can barely say it. These palimpsests are types of magical paper that temporarily aid everyone in your troop.
- **12351**: All you need to do is trade it to the grimoire inside the caverns and you're good to go.
- **12352**: I haven't been able to use it myself yet, so this might not be true. Still, a friend of a friend told me that while each piece of parchment has three possible effects, you can only choose one!
- **12353**: Don't worry, he assures me that you can choose your desired effect through the wonders of that grimoire down there.
- **12354**: If you want the beat-'em-up power of all three effects, though, you'll need to gather three pieces of parchment.
- **12356**: So, you want to head to the caverns? Alright, I'll make sure you reach Sauromugue Champaign safely...when you're ready, that is.
- **12358**: Well, are you ready? [Ready as ever./Not quite yet.]
- **12359**: In the market for a grimoire, eh? What'll it be?
- **12360**: In the market for a grimoire, eh? Just so you know, we've finally got some new volumes in stock. Maybe that'll change your decision?
- **12361**: Which grimoire do you want? [None at the moment./#./$1./$2./$3./$4.]
- **12362**: I'll accept either $0 research mark[/s] or $1 gil for that. So, how'll you pay?
- **12363**: How will you pay? [I don't want anything anymore./In research marks. (Marks: $2)/In gil. (Current gil: $3)]
- **12364**: Uh, you don't have enough [research marks/gil] to buy this...
- **12367**: Our coffers are empty. We don't have anything available for [exchange/purchase].
- **12368**: Oh, so you want to abandon your current expedition?
- **12369**: ...But then all the discoveries you've made during it will be discarded. Is that alright with you?
- **12370**: Have your grimoire returned? [Yes./No.]
- **12371**: Fine, but you'll have to give me back your $3.
- **12372**: Turning in your research marks, I see. Very well. What'll it be?
- **12373**: What goods are you looking for? [Dispensables./Sauromugue Champaign rewards./Batallia Downs rewards./Pherobarrier box./None, thanks.]
- **12374**: What goods are you looking for? [Adjunct rewards./Assistant rewards./Instructor rewards./Ast. Researcher rewards./Researcher rewards./Researcher Em. rewards./Total completion rewards./None, thanks.]
- **12375**: Redeem research marks? (Marks: $0) [$1 ($2 marks)./$3 ($4 marks)./$5 ($6 marks)./$7 ($8 marks)./$9 ($10 marks)./$11 ($12 marks)./$13 ($14 marks)./$15 ($16 marks)./$17 ($18 marks)./Previous page./Next page./Not now.]
- **12376**: $0? Well then, you'll need to redeem $1 research mark[/s] for that.
- **12377**: Redeem research marks? (Marks: $2) [Yes./Never mind.]
- **12378**: Redeem research marks? (Marks: $0) [Paper pherobarrier box. ($1 marks)/Wooden pherobarrier box. ($2 marks)/Leather pherobarrier box. ($3 marks)/No.]
- **12379**: A [paper/wooden/leather] pherobarrier box is going to run you $1 marks. Is that okay with you?
- **12382**: The committee also sells certain key items to adventurers who've completed all expeditions in every rank! So...what'll it be?
- **12383**: What will you purchase? (Gil: $0) [$3 ($6 gil)./$3 ($7 gil)./$3 ($8 gil)./$3 ($9 gil)./$3 ($10 gil)./$3 ($14 gil)./$3 ($15 gil)./$3 ($16 gil)./Nothing.]
- **12384**: You do know the $3 is the emblem of valiance for [Adjunct/Assistant/Instructor/Associate Researcher/Researcher] expeditions based in [Sauromugue Champaign/Batallia Downs], right? Are you sure that's the one you want?
- **12385**: Purchase the $3? [Yes./No.]
- **12386**: Inscribe which feats? (GilF$1) [Adjunct #1 ($2 gil)./Adjunct #2 ($3 gil)./Adjunct #3 ($4 gil)./Adjunct #4 ($5 gil)./Assistant #1 ($2 gil)./Assistant #2 ($3 gil)./Assistant #3 ($4 gil)./Assistant #4 ($5 gil)./Instructor #1 ($2 gil)./Instructor #2 ($3 gil)./Instructor #3 ($4 gil)./Instructor #4 ($5 gil)./Associate Researcher #1 ($2 gil)./Associate Researcher #2 ($3 gil)./Associate Researcher #3 ($4 gil)./Associate Researcher #4 ($5 gil)./Researcher #1 ($2 gil)./Researcher #2 ($3 gil)./Researcher #3 ($4 gil)./Researcher #4 ($5 gil)./Never mind.]
- **12387**: So, you want the feats of [Adjunct/Assistant/Instructor/Associate Researcher/Researcher] Expedition [#1/#2/#3/#4] inscribed in your $0? That'll run you $3 gil, but are you fine with that?
- **12388**: Inscribe said feats? (Gil: $0) [Yes!/Nope.]
- **12390**: We've got $1 $3 on hand.
- **12391**: We've got $1 $5 on hand.
- **12392**: We don't have a single $3 on hand, but we should in $1 [hour/minute/minute][/s] (Earth time). Sorry, but you'll have to wait until then to get one.
- **12393**: A grimoire, huh? Well then, here's $6 and $6 in exchange.
- **12394**: A grimoire, huh? It seems you have $6 already, so here's just the $3.
- **12396**: What? You've already given us a grimoire, and one's the limit.
- **12397**: Slow down, you're moving too fast. If you want to change to a different one, you've got to withdraw the one we're already keeping.
- **12398**: I like your gumption, but you've exceeded the authorized time underground. Remember, safety first. Come back in $1 [hour/minute][/s] (Earth time) and we'll let you descend into the depths again.
- **12400**: What rank shall you choose? [Adjunct./Assistant./Instructor./Associate Researcher./Researcher./Researcher Emeritus./None, on second thought.]
- **12401**: Which expedition, then? [[Adjunct/Assistant/Instructor/Associate Researcher/Researcher] #1[./ (Complete).]/[Adjunct/Assistant/Instructor/Associate Researcher/Researcher] #2[./ (Complete).]/[Adjunct/Assistant/Instructor/Associate Researcher/Researcher] #3[./ (Complete).]/[Adjunct/Assistant/Instructor/Associate Researcher/Researcher] #4[./ (Complete).]/[Adjunct/Assistant/Instructor/Associate Researcher/Researcher] #5[./ (Complete).]/None.]
- **12402**: You're absolutely sure you want to attempt [Adjunct/Assistant/Instructor/Associate Researcher/Researcher] Expedition #[1/2/3/4]?
- **12403**: [Adjunct/Assistant/Instructor/Associate Researcher/Researcher/The Researcher Emeritus] Expedition[ #5?/!?] Due to the highly dangerous nature of this assignment, everyone in your troop must speak with me to undertake it.
- **12404**: Agreeing to set off on one of these expeditions means the committee gets to keep any of your grimoires we have on hand. It's for the greater good, I promise.
- **12405**: Don't fret. In return for your cooperation, I'll grant your troop every effect from all grimoires currently registered with me.
- **12406**: How does that sound? [Great! It's a deal./Terrible, that's how.]
- **12407**: Fight the good fight...for the sake of discovery!
- **12410**: The details regarding [Adjunct/Assistant/Instructor/Associate Researcher/Researcher/the Researcher Emeritus] Expedition[ #1/ #2/ #3/ #4/ #5/] are as follows:
- **12411**: Boon bestowed: Increased HP Goal 1: Vanquish $0 [enemy/enemies]. Goal 2: Vanquish $1 [enemy/enemies]. Goal 3: Vanquish all enemies.
- **12412**: Boon bestowed: Increased accuracy Goal 1: Vanquish the Pugnacious Eft. Goal 2: Vanquish the Pugnacious Eft and all Feeble Efts. Goal 3: Vanquish all enemies.
- **12413**: Boon bestowed: Increased DEX and AGI Goal 1: Examine $0 ??? target[/s]. Goal 2: Examine $1 ??? target[/s]. Goal 3: Examine $2 ??? target[/s] without being detected.
- **12414**: Boon bestowed: Enhanced magic defense Goal 1: Extinguish $0 Subterranean Safepoint[/s]. Goal 2: Extinguish $1 Subterranean Safepoint[/s]. Goal 3: Extinguish $2 Subterranean Safepoint[/s].
- **12415**: Boon bestowed: None Goal: ???
- **12416**: Boon bestowed: Increased MP Goal 1: Vanquish $0 [enemy/enemies]. Goal 2: Vanquish $1 [enemy/enemies]. Goal 3: Vanquish all enemies.
- **12417**: Boon bestowed: Increased evasion Goal 1: Arrive at the Goal with at least $0 party member[/s]. Goal 2: Arrive at the Goal with all party members. Goal 3: Ensure all party members arrive at the Goal undetected.
- **12418**: Boon bestowed: Increased STR and VIT Goal 1: Vanquish $0 [enemy/enemies]. Goal 2: Vanquish $1 [enemy/enemies]. Goal 3: Vanquish $2 [enemy/enemies], but leave the Snarling Meebles alone!
- **12419**: Boon bestowed: Treasure Hunter bonus Goal 1: Acquire and feed $0 $0$3 to Ollek. Goal 2: Acquire and feed $1 $0$3 to Ollek. Goal 3: Acquire and feed $2 $0$3 to Ollek.
- **12420**: Boon bestowed: Increased movement speed Goal 1: Ensure one party member arrives at the Goal within $0 minute[/s]. Goal 2: Ensure all party members arrive at the Goal within $1 minute[/s]. Goal 3: Ensure all party members arrive at the Goal within $2 minute[/s].
- **12421**: Boon bestowed: Increased attack and ranged attack Goal 1: Alternately vanquish $0 Varanefts and Tectochuks. Goal 2: Alternately vanquish $1 Varanefts and Tectochuks. Goal 3: Alternately vanquish $2 Varanefts and Tectochuks.
- **12422**: Boon bestowed: Increased INT, MND, CHR Goal 1: Withstand the enemy's assault for $0 minute[/s]. Goal 2: Withstand the enemy's assault for $1 minute[/s]. Goal 3: Withstand the enemy's assault for $2 minute[/s] without a single KO.
- **12423**: Boons bestowed: Magic attack bonus, increased magic accuracy Goal 1: Vanquish $0 [enemy/enemies]. Goal 2: Vanquish $1 [enemy/enemies]. Goal 3: Vanquish all enemies.
- **12424**: Boon bestowed: Auto-Reraise Goal 1: Vanquish $0 [enemy/enemies]. Goal 2: Vanquish $1 [enemy/enemies]. Goal 3: Vanquish all enemies.
- **12425**: Boon bestowed: Enhanced defense Goal 1: Ensure one person in the party arrives at Point 1. Goal 2: Ensure everyone in the party gets from Point 1 to Point 2. Goal 3: Ensure everyone in the party gets from Point 1 to Point 3 without a single KO.
- **12426**: Boon bestowed: Increased double attack Goal 1: Vanquish $0 [enemy/enemies]. Goal 2: Vanquish $1 [enemy/enemies]. Goal 3: Vanquish all enemies.
- **12427**: Boon bestowed: Enhanced Treasure Hunter ability Goal 1: Open $0 treasure chest[/s]. Goal 2: Open $1 treasure chest[/s]. Goal 3: Open all treasure chests.
- **12428**: Boon bestowed: Refresh Goal 1: Vanquish $0 [enemy/enemies]. Goal 2: Vanquish $1 [enemy/enemies]. Goal 3: Vanquish $2 [enemy/enemies].
- **12429**: Boon bestowed: Regain Goal 1: Simultaneously vanquish $0 Hirudinids and Stagdellas, in pairs. Goal 2: Simultaneously vanquish $1 Hirudinids and Stagdellas, in pairs. Goal 3: Simultaneously vanquish $2 Hirudinids and Stagdellas, in pairs.
- **12430**: Boon bestowed: Increased ranged accuracy Goal 1: Vanquish $0 [enemy/enemies]. Goal 2: Vanquish $1 [enemy/enemies]. Goal 3: Vanquish all enemies.
- **12431**: Boon bestowed: Bonus to spoils Goal 1: Vanquish $0 notorious monster[/s]. Goal 2: Vanquish $1 notorious monster[/s]. Goal 3: Vanquish all enemies.
- **12432**: Boon bestowed: Increased HP Goal 1: Vanquish $0 Limber Lynx[/es]. Goal 2: Vanquish $1 Limber Lynx[/es]. Goal 3: Vanquish $2 Limber Lynx[/es].
- **12433**: Boon bestowed: Auto-Reraise Goal 1: Examine $0 ??? target[/s] and vanquish at least 1 Mafic Marolith. Goal 2: Examine $1 ??? target[/s] and vanquish at least 2 Mafic Maroliths. Goal 3: Examine $2 ??? target[/s] and vanquish at least 4 Mafic Maroliths.
- **12434**: Boons bestowed: Increased DEX and AGI Goal 1: Vanquish $0 enem[y/ies] in a row without being detected. Goal 2: Vanquish $1 enem[y/ies] in a row without being detected. Goal 3: Vanquish $2 enem[y/ies] in a row without being detected.
- **12435**: Boon bestowed: Enhanced Treasure Hunter ability Goal 1: Vanquish $0 enem[y/ies]. Goal 2: Vanquish $1 enem[y/ies]. Goal 3: Vanquish all enemies.
- **12436**: Boon bestowed: Increased MP Goal 1: Rescue $0 Meeble[/s] under attack. Goal 2: Rescue $1 Meeble[/s] under attack. Goal 3: Rescue $2 Meeble[/s] under attack.
- **12437**: Boon bestowed: Refresh Goal 1: Extinguish $0 Subterranean Leohtfaet[/s]. Goal 2: Extinguish $1 Subterranean Leohtfaet[/s]. Goal 3: Extinguish $2 Subterranean Leohtfaet[/s]. This goal will be failed if even one Meeble Horticulturist is vanquished.
- **12438**: Boons bestowed: Increased STR and VIT Goal 1: Acquire $3 and bring $0 to Kobcha. Goal 2: Acquire $3 and bring $1 to Kobcha. Goal 3: Without being caught, acquire $3 and bring $2 to Kobcha.
- **12439**: Boon bestowed: Enhanced Treasure Hunter ability Goal 1: Vanquish $0 enem[y/ies]. Goal 2: Vanquish $1 enem[y/ies]. Goal 3: Vanquish all enemies.
- **12440**: Boon bestowed: Increased movement speed Goal 1: Examine $0 Point[/s] in ascending numerical order. Goal 2: Examine $1 Point[/s] in ascending numerical order. Goal 3: Examine $2 Point[/s] in ascending numerical order.
- **12441**: Boon bestowed: Regain Goal 1: Defend the Burrows Depthmarker for $0 minute[/s]. Goal 2: Defend the Burrows Depthmarker for $1 minute[/s]. Goal 3: Defend the Burrows Depthmarker for $2 minute[/s].
- **12442**: Boons bestowed: Increased INT, MND, and CHR Goal 1: Cause $0 enem[y/ies] to self-destruct. Goal 2: Cause $1 enem[y/ies] to self-destruct. Goal 3: Cause $2 enem[y/ies], including at least $3 Sulphurous Djinn[/s], to self-destruct.
- **12443**: Boon bestowed: Bonus to spoils Goal 1: Collect $0 elaborate part[/s]. Goal 2: Collect $1 elaborate part[/s]. Goal 3: Collect $2 elaborate part[/s].
- **12444**: Swarms of vicious fiends have been impeding our scientific discoveries! Therefore, we'd like for you to utterly obliterate as many of them as possible...in the name of knowledge!
- **12445**: This expedition involves collecting data at certain Points deep within the caverns...stealthily. Don't get found by anything there, or you'll come back empty-handed.
- **12446**: Like moths to flame, the beasts in these caves are attracted to Subterranean Safepoint fire. Extinguish the torches to disperse the hordes...but not too fast. Extinguish multiple ones at once and you'll attract unwelcome guests.
- **12447**: "Endeavor to find the most expeditious route from the specified points to increase research productivity." Wow, you'd think whoever made this objective could be a little more direct. Anyway, you may not need this advice, but try not to get found by any enemies along the way.
- **12448**: Swarms of vicious fiends have been impeding our scientific discoveries! Therefore, we'd like for you to utterly obliterate as many of them as possible...without injuring any Snarling Meebles, for they're the subject of our research at the moment.
- **12449**: For the cost of just a few $3 an expedition, you too can help save the lives of starving Meebles. Please, think of the Meebles and do the right thing.
- **12450**: This expedition aims to improve research efficiency by having you find the shortest route from point myeh to point gah. Oh, those names aren't the product of apathy on my part. I'm subtly hinting that the routes change depending on the time of day you enter. Whoops, so much for subtlety.
- **12451**: Those Varanefts and Tectochuks are enigmas wrapped in riddles encased in gobs of mystery. Yummy, yummy mystery. This expedition tasks you with unwrapping and sucking every last drop of mystery out of their behavior.
- **12452**: We'd like you to develop an intimate relationship with certain subjects down there. The catch is that they're not very friendly, so you'll need to endure some of their blows first. Go unconscious, though, and it'll be harder to collect the right data.
- **12453**: Ready for a little reconnaissance? We need someone to clear the way for "big boys" to do "real researcher's work." Pompous jerks. Anyway, this sounds obvious, but try not to get knocked out, okay?
- **12454**: Treasure for everyone! The MBEC has unearthed lots of chests down belowground! Experience has proven that some of those chests are just monsters lying in wait, though...so we've decided to send adventurers down there first.
- **12455**: Swarms of vicious fiends have been impeding our scientific discoveries! Therefore, we'd like for you to utterly obliterate as many of them as possible...which may require you to go for a swim!
- **12456**: "Even filthy bloodsuckers like Hirudinids and Stagdellas can offer scientific insights," my tail! We've tried everything and haven't found a single piece of data worthy of analysis, so...uh...try slaying them at the same time? I don't know.
- **12457**: "Just when we thought it was okay to implement the scientific method again, our fellow researchers get attacked by notarizing monarchs!" Wait a minute! When I find the dolt who wrote this report...
- **12458**: You've researched the rest, so now it's time to take on the best! Brave close encounters with the burrows' most feral fiends to receive glory, gil, and [girls/guys]! ...Wait, we don't have the funds for those last two.
- **12459**: The goal of this expedition is to compile data regarding certain points within the burrows. The area is crawling with annoying Mafic Maroliths, though. We know that they possess a hive mentality, so as long as you take some down, the others should get the point.
- **12460**: Ever feel like you're being watched? I do all the time. My superiors tell me that our activities are being monitored by enemies...though not by the evil rarab in my closet, as I'd suggested. But what do they know!? Try and beat them at their own game and best them without getting detected. Then maybe I can get some sleep at night.
- **12461**: The Meebles we were observing have been attacked! Oh, the Galkanity! The Elvaanity! The...I'm so flustered I can't think! Please save them! Without their cute little snouts and endearing gruff talk, what else is left in the world to enjoy!?
- **12462**: Like moths to flame, the beasts in these caves are attracted to Subterranean Leohtfaet fire. Extinguish the torches to disperse the hordes...but not the Meebles. Spare the Meebles at all costs.
- **12463**: Those adorable Meebles are at it again, collecting $3 like they were real miners. Indulge them in their harmless fantasy and try finding $3 at mining points throughout the caves. Pretty please?
- **12464**: Swarms of vicious fiends have been impeding our scientific discoveries! Therefore, we'd like for you to utterly obliterate as many of them as possible.
- **12465**: The goal of this expedition is to compile data regarding certain points within the burrows. For this one, they've even been pre-numbered for you! All you need to do is examine them in order from youngest to oldest. What, that's not how you say it? You mustn't be from around here.
- **12466**: Those dastardly little buggers are breaking our Burrows Depthmarker! Show them that science always shines brightest by defending the Burrows Depthmarker for as long as possible!
- **12467**: On this expedition, you'll have to make as many hot-tempered bombs as possible self-destruct. Sounds like your best bet is to insult their cooking. Thanks, I'll be here for all eternity.
- **12468**: Moblins are supposedly gathering certain "elaborate parts" from treasure chests and fallen fiends. We don't know exactly what manner of confounding contraption they intend to contrive, but bring us enough parts and we'll <ahem> "piece it together."
- **12470**: # boons: [Cancel./Adjunct Expedition #1...[Lv.1/Lv.2/Lv.3]./Adjunct Expedition #2...[Lv.1/Lv.2/Lv.3]./Adjunct Expedition #3...[Lv.1/Lv.2/Lv.3]./Adjunct Expedition #4...[Lv.1/Lv.2/Lv.3]./Assistant Expedition #1...[Lv.1/Lv.2/Lv.3]./Assistant Expedition #2...[Lv.1/Lv.2/Lv.3]./Assistant Expedition #3...[Lv.1/Lv.2/Lv.3]./Assistant Expedition #4...[Lv.1/Lv.2/Lv.3]./Instructor Expedition #1...[Lv.1/Lv.2/Lv.3]./Instructor Expedition #2...[Lv.1/Lv.2/Lv.3]./Instructor Expedition #3...[Lv.1/Lv.2/Lv.3]./Instructor Expedition #4...[Lv.1/Lv.2/Lv.3]./Assoc. Researcher Expedition #1...[Lv.1/Lv.2/Lv.3]./Assoc. Researcher Expedition #2...[Lv.1/Lv.2/Lv.3]./Assoc. Researcher Expedition #3...[Lv.1/Lv.2/Lv.3]./Assoc. Researcher Expedition #4...[Lv.1/Lv.2/Lv.3]./Researcher Expedition #1...[Lv.1/Lv.2/Lv.3]./Researcher Expedition #2...[Lv.1/Lv.2/Lv.3]./Researcher Expedition #3...[Lv.1/Lv.2/Lv.3]./Researcher Expedition #4...[Lv.1/Lv.2/Lv.3].]
- **12471**: Um...it looks like the grimoire you gave me is completely blank.
- **12475**: Expedition Specifics: [Cancel./Adjunct #1...[Incomplete/Goal 1/Goal 2/Goal 3]./Adjunct #2...[Incomplete/Goal 1/Goal 2/Goal 3]./Adjunct #3...[Incomplete/Goal 1/Goal 2/Goal 3]./Adjunct #4...[Incomplete/Goal 1/Goal 2/Goal 3]./Assistant #1...[Incomplete/Goal 1/Goal 2/Goal 3]./Assistant #2...[Incomplete/Goal 1/Goal 2/Goal 3]./Assistant #3...[Incomplete/Goal 1/Goal 2/Goal 3]./Assistant #4...[Incomplete/Goal 1/Goal 2/Goal 3]./Instructor #1...[Incomplete/Goal 1/Goal 2/Goal 3]./Instructor #2...[Incomplete/Goal 1/Goal 2/Goal 3]./Instructor #3...[Incomplete/Goal 1/Goal 2/Goal 3]./Instructor #4...[Incomplete/Goal 1/Goal 2/Goal 3]./Associate Researcher #1...[Incomplete/Goal 1/Goal 2/Goal 3]./Associate Researcher #2...[Incomplete/Goal 1/Goal 2/Goal 3]./Associate Researcher #3...[Incomplete/Goal 1/Goal 2/Goal 3]./Associate Researcher #4...[Incomplete/Goal 1/Goal 2/Goal 3]./Researcher #1...[Incomplete/Goal 1/Goal 2/Goal 3]./Researcher #2...[Incomplete/Goal 1/Goal 2/Goal 3]./Researcher #3...[Incomplete/Goal 1/Goal 2/Goal 3]./Researcher #4...[Incomplete/Goal 1/Goal 2/Goal 3].]
- **12476**: Good job. Now it's time to record your latest discoveries in your $3.
- **12477**: It looks like you've completed $0 goal[/s] on this last expedition. Now that everything's been recorded, you can have your grimoire back.
- **12478**: You've completed all three goals!? Great! You're a credit to the Exploration Committee, <Player>, and more than worthy of your grimoire.
- **12479**: Well, you may not have met any goals this time, but failures are the building blocks of success. Good luck next time!
- **12480**: It must have been really hairy down there, huh? Oh, and as I explained before, we'll be needing that grimoire of yours for analysis.
- **12481**: Here's a new grimoire we've prepared for you. Go on, take it.
- **12482**: I'm part of the Meeble Burrows Exploration Committee, but I'm not allowed to say anything else about our operations right now. If you'd like to learn more, try talking with the Burrow Investigator in Upper Jeuno.

## Events

### Event 65535

#### Metadata

| Field        | Value   |
|--------------|---------|
| Entrypoint   | 0x0000  |
| Data Size    | 1 bytes |
| Instructions | 1       |

```
      00 01 02 03 04 05 06 07  08 09 0A 0B 0C 0D 0E 0F
      -- -- -- -- -- -- -- --  -- -- -- -- -- -- -- --
0000: 00                                                .               
```

#### Opcodes

```
  0: 0x0000 [0x00] END_REQSTACK()
```

### Event 5500

#### Metadata

| Field        | Value      |
|--------------|------------|
| Entrypoint   | 0x0001     |
| Data Size    | 4550 bytes |
| Instructions | 1056       |

```
      00 01 02 03 04 05 06 07  08 09 0A 0B 0C 0D 0E 0F
      -- -- -- -- -- -- -- --  -- -- -- -- -- -- -- --
0000:    1E F0 FF FF 7F 06 02  00 06 03 00 06 04 00 06   ...............
0010: 05 00 06 06 00 06 07 00  06 42 00 06 08 00 06 09  .........B......
0020: 00 06 0A 00 06 0D 00 06  40 00 06 41 00 41 00 80  ........@..A.A..
0030: 01 80 02 10 00 00 41 02  80 02 80 02 10 43 00 03  ......A......C..
0040: 40 00 03 10 03 02 00 04  10 03 03 00 05 10 41 00  @.............A.
0050: 80 03 80 06 10 04 00 41  04 80 05 80 06 10 05 00  .......A........
0060: 03 06 00 07 10 41 00 80  03 80 08 10 07 00 41 04  .....A........A.
0070: 80 05 80 08 10 42 00 03  0D 00 09 10 02 00 00 06  .....B..........
0080: 80 00 09 01 42 1D 07 80  23 03 01 10 06 80 43 00  ....B...#.....C.
0090: 43 01 03 08 00 03 10 02  08 00 00 80 02 AD 00 1D  C...............
00A0: 08 80 23 03 01 10 09 80  21 00 01 05 01 1D 0A 80  ..#.....!.......
00B0: 23 03 00 00 01 80 02 07  00 00 80 00 C9 00 1D 0B  #...............
00C0: 80 23 1D 0C 80 23 01 CD  00 1D 0D 80 23 03 02 10  .#...#......#...
00D0: 07 00 03 03 10 0E 80 03  04 10 0F 80 1D 10 80 23  ...............#
00E0: 1D 11 80 23 1D 12 80 23  1D 13 80 23 1D 14 80 23  ...#...#...#...#
00F0: 03 03 10 15 80 1D 16 80  23 1D 17 80 23 1D 18 80  ........#...#...
0100: 23 1D 19 80 23 2E 01 DC  01 02 07 00 00 80 80 51  #...#..........Q
0110: 01 02 42 00 00 80 00 20  01 1D 1A 80 23 01 4E 01  ..B.... ....#.N.
0120: 02 43 00 00 80 00 4A 01  42 1D 1B 80 23 1D 1C 80  .C....J.B...#...
0130: 23 1D 1D 80 23 1D 1E 80  23 1D 1F 80 23 03 01 10  #...#...#...#...
0140: 20 80 43 00 43 01 2E 01  4E 01 1D 1A 80 23 01 DC   .C.C...N....#..
0150: 01 02 07 00 06 80 80 B3  01 02 00 00 01 80 00 73  ...............s
0160: 01 42 1D 21 80 23 03 01  10 22 80 43 00 43 01 2E  .B.!.#...".C.C..
0170: 01 B0 01 02 42 00 00 80  00 82 01 1D 1A 80 23 01  ....B.........#.
0180: B0 01 02 43 00 00 80 00  AC 01 42 1D 1B 80 23 1D  ...C......B...#.
0190: 1C 80 23 1D 1D 80 23 1D  1E 80 23 1D 1F 80 23 03  ..#...#...#...#.
01A0: 01 10 20 80 43 00 43 01  2E 01 B0 01 1D 1A 80 23  .. .C.C........#
01B0: 01 DC 01 02 07 00 01 80  80 DC 01 02 00 00 01 80  ................
01C0: 00 D5 01 42 1D 21 80 23  03 01 10 22 80 43 00 43  ...B.!.#...".C.C
01D0: 01 2E 01 D9 01 1D 1A 80  23 01 DC 01 1A 89 19 3C  ........#......<
01E0: 0B 00 23 80 06 80 3E 06  00 23 80 04 02 03 0B 00  ..#...>..#......
01F0: 24 80 02 40 00 00 80 02  01 02 3D 0B 00 23 80 06  $..@......=..#..
0200: 80 01 09 02 03 0B 00 25  80 3E 06 00 23 80 27 02  .......%.>..#.'.
0210: 3E 06 00 26 80 1F 02 03  14 00 27 80 01 24 02 03  >..&......'..$..
0220: 14 00 28 80 01 2C 02 03  14 00 28 80 3C 0B 00 29  ..(..,....(.<..)
0230: 80 06 80 41 06 80 2A 80  06 00 15 00 41 04 80 2B  ...A..*.....A..+
0240: 80 06 00 16 00 02 07 00  06 80 80 6A 02 02 16 00  ...........j....
0250: 05 80 04 67 02 02 15 00  05 80 00 60 02 01 67 02  ...g.......`..g.
0260: 3D 0B 00 29 80 06 80 01  8F 02 02 07 00 01 80 80  =..)............
0270: 8F 02 02 16 00 29 80 04  8C 02 02 15 00 29 80 00  .....).......)..
0280: 85 02 01 8C 02 3D 0B 00  29 80 06 80 01 8F 02 1A  .....=..).......
0290: 58 19 1A 52 0D 02 0C 00  00 80 00 A4 02 3C 0B 00  X..R.........<..
02A0: 23 80 06 80 06 09 00 02  09 00 00 80 00 A4 03 03  #...............
02B0: 02 10 0E 80 02 07 00 00  80 00 BF 02 01 EC 02 03  ................
02C0: 03 10 04 00 02 03 10 00  80 02 CF 02 0C 03 10 03  ................
02D0: 04 10 05 00 02 04 10 00  80 02 DF 02 0C 04 10 02  ................
02E0: 04 10 2A 80 00 EC 02 03  03 10 2A 80 24 14 00 00  ..*.......*.$...
02F0: 80 0B 00 25 02 00 10 00  80 80 02 03 1A DA 06 01  ...%............
0300: A1 03 02 00 10 06 80 80  10 03 1A 8D 12 01 A1 03  ................
0310: 02 00 10 01 80 80 1E 03  1A 97 08 01 A1 03 02 00  ................
0320: 10 02 80 80 2C 03 1A 92  15 01 A1 03 02 00 10 2C  ....,..........,
0330: 80 80 3A 03 1A 1E 0F 01  A1 03 02 00 10 2A 80 80  ..:..........*..
0340: 48 03 1A E4 08 01 A1 03  02 00 10 23 80 80 56 03  H..........#..V.
0350: 1A 79 0B 01 A1 03 02 00  10 29 80 80 64 03 1A AB  .y.......)..d...
0360: 0D 01 A1 03 02 00 10 2D  80 80 72 03 1A 7B 07 01  .......-..r..{..
0370: A1 03 02 00 10 2E 80 80  80 03 1A D0 03 01 A1 03  ................
0380: 02 00 10 2F 80 80 8E 03  1A 3C 16 01 A1 03 02 00  .../.....<......
0390: 10 22 80 80 A1 03 03 01  10 30 80 05 09 00 01 A1  .".......0......
03A0: 03 01 A7 02 21 00 03 44  00 2F 80 3E 06 00 31 80  ....!..D./.>..1.
03B0: B7 03 07 44 00 06 80 3E  06 00 32 80 C3 03 07 44  ...D...>..2....D
03C0: 00 01 80 3E 06 00 05 80  CF 03 07 44 00 02 80 1B  ...>.......D....
03D0: 06 0A 00 06 0C 00 02 0A  00 00 80 00 D9 06 24 33  ..............$3
03E0: 80 0C 00 00 80 25 02 00  10 00 80 00 F7 03 05 0A  .....%..........
03F0: 00 06 0C 00 01 D1 06 02  00 10 06 80 00 51 04 02  .............Q..
0400: 07 00 00 80 00 12 04 1D  0B 80 23 1D 0C 80 23 01  ..........#...#.
0410: 16 04 1D 0D 80 23 03 02  10 07 00 03 03 10 0E 80  .....#..........
0420: 03 04 10 0F 80 1D 10 80  23 1D 11 80 23 1D 12 80  ........#...#...
0430: 23 1D 13 80 23 1D 14 80  23 03 03 10 15 80 1D 16  #...#...#.......
0440: 80 23 1D 17 80 23 1D 18  80 23 1D 19 80 23 01 D1  .#...#...#...#..
0450: 06 02 00 10 01 80 00 6C  04 1D 34 80 23 1D 35 80  .......l..4.#.5.
0460: 23 1D 36 80 23 1D 37 80  23 01 D1 06 02 00 10 02  #.6.#.7.#.......
0470: 80 00 A0 04 1D 38 80 23  1D 39 80 23 1D 3A 80 23  .....8.#.9.#.:.#
0480: 1D 3B 80 23 1D 3C 80 23  1D 3D 80 23 02 00 00 01  .;.#.<.#.=.#....
0490: 80 05 9D 04 03 02 10 01  80 1D 3E 80 23 01 D1 06  ..........>.#...
04A0: 02 00 10 2C 80 00 2B 05  03 02 10 07 00 03 03 10  ...,..+.........
04B0: 0E 80 03 04 10 0F 80 02  07 00 00 80 00 C6 04 1D  ................
04C0: 3F 80 23 01 CA 04 1D 40  80 23 1D 41 80 23 1D 42  ?.#....@.#.A.#.B
04D0: 80 23 02 07 00 00 80 00  E1 04 1D 43 80 23 01 E5  .#.........C.#..
04E0: 04 1D 44 80 23 1D 45 80  23 1D 46 80 23 1D 47 80  ..D.#.E.#.F.#.G.
04F0: 23 1D 48 80 23 1D 49 80  23 1D 4A 80 23 1D 4B 80  #.H.#.I.#.J.#.K.
0500: 23 02 07 00 00 80 00 0C  05 01 10 05 1D 4C 80 23  #............L.#
0510: 1D 4D 80 23 1D 4E 80 23  1D 4F 80 23 1D 50 80 23  .M.#.N.#.O.#.P.#
0520: 1D 51 80 23 1D 52 80 23  01 D1 06 02 00 10 2A 80  .Q.#.R.#......*.
0530: 00 7E 05 03 02 10 07 00  03 03 10 15 80 03 04 10  .~..............
0540: 0F 80 03 05 10 53 80 03  06 10 0E 80 1D 54 80 23  .....S.......T.#
0550: 1D 55 80 23 02 07 00 00  80 00 63 05 1D 56 80 23  .U.#......c..V.#
0560: 01 67 05 1D 57 80 23 1D  58 80 23 1D 59 80 23 1D  .g..W.#.X.#.Y.#.
0570: 5A 80 23 1D 5B 80 23 1D  5C 80 23 01 D1 06 02 00  Z.#.[.#.\.#.....
0580: 10 23 80 00 AD 05 1D 5D  80 23 1D 5E 80 23 1D 5F  .#.....].#.^.#._
0590: 80 23 1D 60 80 23 1D 61  80 23 1D 62 80 23 1D 63  .#.`.#.a.#.b.#.c
05A0: 80 23 1D 64 80 23 1D 65  80 23 01 D1 06 02 00 10  .#.d.#.e.#......
05B0: 29 80 00 2E 06 3E 06 00  03 80 D3 05 03 02 10 0E  )....>..........
05C0: 80 03 03 10 2F 80 03 04  10 03 80 03 05 10 06 80  ..../...........
05D0: 01 E7 05 03 02 10 0E 80  03 03 10 20 80 03 04 10  ........... ....
05E0: 03 80 03 05 10 00 80 1D  66 80 23 1D 67 80 23 1D  ........f.#.g.#.
05F0: 68 80 23 1D 69 80 23 03  05 10 2F 80 1D 6A 80 23  h.#.i.#.../..j.#
0600: 1D 6B 80 23 1A A6 03 03  05 10 44 00 1D 6C 80 23  .k.#......D..l.#
0610: 02 44 00 04 80 00 1B 06  01 1F 06 1D 6D 80 23 1D  .D..........m.#.
0620: 6E 80 23 1D 6F 80 23 1D  70 80 23 01 D1 06 02 00  n.#.o.#.p.#.....
0630: 10 2D 80 00 45 06 1D 71  80 23 1D 72 80 23 1D 73  .-..E..q.#.r.#.s
0640: 80 23 01 D1 06 02 00 10  2E 80 00 60 06 1D 74 80  .#.........`..t.
0650: 23 1D 75 80 23 1D 76 80  23 1D 77 80 23 01 D1 06  #.u.#.v.#.w.#...
0660: 02 00 10 2F 80 00 8F 06  1D 78 80 23 1D 79 80 23  .../.....x.#.y.#
0670: 1D 7A 80 23 1D 7B 80 23  1D 7C 80 23 1D 7D 80 23  .z.#.{.#.|.#.}.#
0680: 1D 7E 80 23 1D 7F 80 23  1D 80 80 23 01 D1 06 02  .~.#...#...#....
0690: 00 10 22 80 00 B2 06 1D  81 80 23 1D 82 80 23 1D  ..".......#...#.
06A0: 83 80 23 1D 84 80 23 1D  85 80 23 1D 86 80 23 01  ..#...#...#...#.
06B0: D1 06 02 00 10 26 80 00  D1 06 1D 87 80 23 1D 88  .....&.......#..
06C0: 80 23 1D 89 80 23 1D 8A  80 23 1D 8B 80 23 01 D1  .#...#...#...#..
06D0: 06 03 0C 00 00 10 01 D6  03 1B 1D 8C 80 23 24 8D  .............#$.
06E0: 80 06 80 00 80 25 02 00  10 00 80 00 2A 07 42 40  .....%......*.B@
06F0: 00 80 03 80 01 10 01 80  40 04 80 05 80 01 10 00  ........@.......
0700: 80 05 09 00 73 8E 80 F8  FF FF 7F F0 FF FF 7F 1C  ....s...........
0710: 8F 80 45 90 80 F0 FF FF  7F F0 FF FF 7F 66 64 6F  ..E..........fdo
0720: 31 00 80 1C 91 80 30 01  36 07 02 00 10 06 80 00  1.....0.6.......
0730: 36 07 1B 01 36 07 20 00  1B 45 90 80 F8 FF FF 7F  6...6. ..E......
0740: F8 FF FF 7F 66 64 69 31  00 80 55 90 80 F8 FF FF  ....fdi1..U.....
0750: 7F F8 FF FF 7F 66 64 69  31 1B 45 90 80 F8 FF FF  .....fdi1.E.....
0760: 7F F8 FF FF 7F 66 64 6F  31 00 80 55 90 80 F8 FF  .....fdo1..U....
0770: FF 7F F8 FF FF 7F 66 64  6F 31 1B 06 0E 00 06 0F  ......fdo1......
0780: 00 06 10 00 06 11 00 06  3C 00 03 01 10 02 80 43  ........<......C
0790: 00 43 01 03 0E 00 04 10  03 0F 00 05 10 03 10 00  .C..............
07A0: 06 10 03 01 00 07 10 03  3C 00 08 10 02 0F 00 92  ........<.......
07B0: 80 00 BE 07 03 02 10 06  80 1D 93 80 23 1B 02 01  ............#...
07C0: 00 00 00 02 E1 07 02 0E  00 00 80 02 DA 07 1D 94  ................
07D0: 80 23 03 00 00 01 00 01  DE 07 1D 95 80 23 01 E5  .#...........#..
07E0: 07 1D 95 80 23 06 19 00  03 02 10 96 80 03 03 10  ....#...........
07F0: 97 80 03 04 10 98 80 03  05 10 99 80 03 06 10 9A  ................
0800: 80 24 9B 80 00 80 0F 00  25 02 00 10 00 80 00 15  .$......%.......
0810: 08 1B 01 15 08 03 11 00  00 10 9D 00 BC 24 19 00  .............$..
0820: 11 00 93 19 00 03 02 10  90 80 03 03 10 9C 80 1D  ................
0830: 9D 80 23 93 00 80 03 04  10 10 00 03 05 10 3C 00  ..#...........<.
0840: 24 9E 80 00 80 00 80 25  02 00 10 00 80 00 54 08  $......%......T.
0850: 1B 01 96 08 02 00 10 06  80 00 75 08 42 40 00 80  ..........u.B@..
0860: 03 80 01 10 2C 80 40 04  80 05 80 01 10 11 00 05  ....,.@.........
0870: 09 00 01 96 08 02 00 10  01 80 00 96 08 42 40 00  .............B@.
0880: 80 03 80 01 10 2A 80 40  04 80 05 80 01 10 11 00  .....*.@........
0890: 05 09 00 01 96 08 1B 1D  9F 80 23 3E 06 00 26 80  ..........#>..&.
08A0: A6 08 1D A0 80 23 24 A1  80 06 80 00 80 25 02 00  .....#$......%..
08B0: 10 00 80 00 D8 08 42 03  02 10 0F 80 1D A2 80 23  ......B........#
08C0: 40 00 80 03 80 01 10 23  80 40 04 80 05 80 01 10  @......#.@......
08D0: 00 80 05 09 00 01 E3 08  02 00 10 06 80 00 E3 08  ................
08E0: 01 E3 08 1B 1D A3 80 23  06 18 00 02 18 00 00 80  .......#........
08F0: 00 FF 09 06 1B 00 02 07  00 06 80 80 35 09 3D 1B  ............5.=.
0900: 00 06 80 06 80 3C 1B 00  01 80 06 80 41 04 80 A4  .....<......A...
0910: 80 06 00 3D 00 02 3D 00  00 80 00 24 09 3C 1B 00  ...=..=....$.<..
0920: 06 80 06 80 3E 06 00 09  80 32 09 3D 1B 00 06 80  ....>....2.=....
0930: 06 80 01 74 09 02 07 00  01 80 80 74 09 3D 1B 00  ...t.......t.=..
0940: 01 80 06 80 3C 1B 00 06  80 06 80 41 04 80 A5 80  ....<......A....
0950: 06 00 3D 00 02 3D 00 00  80 00 63 09 3C 1B 00 01  ..=..=....c.<...
0960: 80 06 80 3E 06 00 A6 80  71 09 3D 1B 00 01 80 06  ...>....q.=.....
0970: 80 01 74 09 41 31 80 05  80 06 00 08 00 02 08 00  ..t.A1..........
0980: 29 80 00 8C 09 3C 1B 00  02 80 06 80 24 A7 80 00  )....<......$...
0990: 80 1B 00 25 02 00 10 2C  80 00 A2 09 05 18 00 01  ...%...,........
09A0: A2 09 03 0C 00 00 10 02  18 00 00 80 00 FC 09 02  ................
09B0: 0C 00 00 80 80 D2 09 03  1C 00 00 80 9D 00 7C 21  ..............|!
09C0: 45 00 00 80 9D 00 9C 21  46 00 00 80 1A 28 10 01  E......!F....(..
09D0: FC 09 02 0C 00 06 80 80  E0 09 1A 00 0A 01 FC 09  ................
09E0: 02 0C 00 01 80 80 EE 09  1A 00 0A 01 FC 09 02 0C  ................
09F0: 00 02 80 80 FC 09 1A AB  0A 01 FC 09 01 EB 08 1B  ................
0A00: 06 17 00 02 17 00 00 80  00 AA 0A 06 1B 00 02 07  ................
0A10: 00 06 80 80 39 0A 41 04  80 2B 80 06 00 16 00 40  ....9.A..+.....@
0A20: 00 80 2A 80 1B 00 16 00  3E 06 00 09 80 36 0A 3C  ..*.....>....6.<
0A30: 1B 00 23 80 06 80 01 72  0A 02 07 00 01 80 80 72  ..#....r.......r
0A40: 0A 41 04 80 A8 80 06 00  16 00 40 00 80 01 80 1B  .A........@.....
0A50: 00 16 00 3E 06 00 A5 80  61 0A 3C 1B 00 2A 80 06  ...>....a.<..*..
0A60: 80 3E 06 00 A6 80 6F 0A  3C 1B 00 23 80 06 80 01  .>....o.<..#....
0A70: 72 0A 0F 1B 00 A9 80 3D  1B 00 29 80 06 80 24 AA  r......=..)...$.
0A80: 80 00 80 1B 00 25 02 00  10 29 80 00 94 0A 05 17  .....%...)......
0A90: 00 01 94 0A 03 1C 00 00  10 02 17 00 00 80 00 A7  ................
0AA0: 0A 1A D0 10 1A 28 10 01  03 0A 1B 06 17 00 02 17  .....(..........
0AB0: 00 00 80 00 78 0B 41 31  80 05 80 06 00 1B 00 3D  ....x.A1.......=
0AC0: 1B 00 02 80 06 80 03 02  10 0D 00 03 03 10 AB 80  ................
0AD0: 03 04 10 AC 80 03 05 10  AD 80 24 AE 80 00 80 1B  ..........$.....
0AE0: 00 25 02 00 10 00 80 00  F2 0A 03 03 10 AB 80 01  .%..............
0AF0: 20 0B 02 00 10 06 80 00  02 0B 03 03 10 AC 80 01   ...............
0B00: 20 0B 02 00 10 01 80 00  12 0B 03 03 10 AD 80 01   ...............
0B10: 20 0B 02 00 10 02 80 00  20 0B 05 17 00 01 20 0B   ....... ..... .
0B20: 03 0C 00 00 10 02 17 00  00 80 00 75 0B 03 02 10  ...........u....
0B30: 0C 00 03 04 10 0D 00 1D  AF 80 23 24 B0 80 06 80  ..........#$....
0B40: 00 80 25 02 00 10 00 80  00 6A 0B 42 40 00 80 03  ..%......j.B@...
0B50: 80 01 10 A5 80 40 04 80  05 80 01 10 0C 00 05 09  .....@..........
0B60: 00 05 17 00 05 18 00 01  75 0B 02 00 10 06 80 00  ........u.......
0B70: 75 0B 01 75 0B 01 AE 0A  1B 1A 58 19 1A 52 0D 06  u..u......X..R..
0B80: 0C 00 3D 1B 00 20 80 06  80 03 01 10 04 80 43 00  ..=.. ........C.
0B90: 43 01 03 3C 00 08 10 06  0C 17 06 0D 17 06 0E 17  C..<............
0BA0: 06 0F 17 06 10 17 06 11  17 02 41 00 06 80 80 B9  ..........A.....
0BB0: 0B 03 0C 17 96 80 01 F9  0B 02 41 00 01 80 80 C9  ..........A.....
0BC0: 0B 03 0C 17 97 80 01 F9  0B 02 41 00 02 80 80 D9  ..........A.....
0BD0: 0B 03 0C 17 98 80 01 F9  0B 02 41 00 2C 80 80 E9  ..........A.,...
0BE0: 0B 03 0C 17 99 80 01 F9  0B 02 41 00 2A 80 80 F9  ..........A.*...
0BF0: 0B 03 0C 17 9A 80 01 F9  0B 03 0D 17 3C 00 06 08  ............<...
0C00: 00 02 07 00 06 80 80 11  0C 03 08 00 00 80 01 21  ...............!
0C10: 0C 02 07 00 01 80 80 21  0C 03 08 00 2C 80 01 21  .......!....,..!
0C20: 0C 9D 00 DC 24 0E 17 08  00 0B 08 00 9D 00 DC 24  ....$..........$
0C30: 0F 17 08 00 0B 08 00 9D  00 DC 24 10 17 08 00 0B  ..........$.....
0C40: 08 00 9D 00 DC 24 11 17  08 00 06 1F 00 02 1F 00  .....$..........
0C50: 00 80 00 51 0D 03 02 10  0C 17 03 03 10 0D 17 03  ...Q............
0C60: 04 10 0E 17 03 05 10 0F  17 03 06 10 10 17 03 07  ................
0C70: 10 11 17 24 B1 80 0C 00  1B 00 25 02 00 10 20 80  ...$......%... .
0C80: 00 89 0C 05 1F 00 01 89  0C 03 0C 00 00 10 02 1F  ................
0C90: 00 00 80 00 4E 0D 03 1D  00 0C 00 15 1D 00 2C 80  ....N.........,.
0CA0: 03 1E 00 0C 00 3F 1E 00  1E 00 2C 80 03 02 10 0C  .....?....,.....
0CB0: 17 03 03 10 1D 00 03 04  10 1E 00 02 1E 00 00 80  ................
0CC0: 80 CB 0C 03 05 10 0E 17  01 FB 0C 02 1E 00 06 80  ................
0CD0: 80 DB 0C 03 05 10 0F 17  01 FB 0C 02 1E 00 01 80  ................
0CE0: 80 EB 0C 03 05 10 10 17  01 FB 0C 02 1E 00 02 80  ................
0CF0: 80 FB 0C 03 05 10 11 17  01 FB 0C 1D B2 80 23 03  ..............#.
0D00: 02 10 0D 17 24 B3 80 06  80 00 80 25 02 00 10 00  ....$......%....
0D10: 80 00 43 0D 02 05 10 0D  17 05 37 0D 40 00 80 03  ..C.......7.@...
0D20: 80 01 10 A8 80 40 04 80  05 80 01 10 0C 00 05 1F  .....@..........
0D30: 00 05 09 00 01 40 0D 03  02 10 06 80 1D B4 80 23  .....@.........#
0D40: 01 4E 0D 02 00 10 06 80  00 4E 0D 01 4E 0D 01 4D  .N.......N..N..M
0D50: 0C 1B 03 1B 00 40 00 0F  1B 00 A9 80 40 4D 00 05  .....@......@M..
0D60: 80 1B 00 A9 80 06 3F 00  06 0C 00 02 3F 00 4D 00  ......?.....?.M.
0D70: 03 AA 0D 3E 1B 00 3F 00  7D 0D 01 A4 0D 06 08 00  ...>..?.}.......
0D80: 9D 00 EC 21 08 00 3F 00  02 08 00 00 80 02 9A 0D  ...!..?.........
0D90: 3C 1B 00 3F 00 06 80 01  A4 0D 3D 1B 00 3F 00 06  <..?......=..?..
0DA0: 80 0B 0C 00 0B 3F 00 01  6B 0D 1B 1D B5 80 23 06  .....?..k.....#.
0DB0: 1F 00 03 01 10 04 80 43  00 43 01 03 3C 00 08 10  .......C.C..<...
0DC0: 06 1F 00 02 1F 00 00 80  00 CC 0E 1A CD 0E 06 1B  ................
0DD0: 00 41 06 80 2A 80 06 00  1B 00 02 07 00 06 80 80  .A..*...........
0DE0: FA 0D 3C 1B 00 2A 80 06  80 3C 1B 00 23 80 06 80  ..<..*...<..#...
0DF0: 3C 1B 00 29 80 06 80 01  2D 0E 02 07 00 01 80 80  <..)....-.......
0E00: 2D 0E 10 1B 00 2A 80 3C  1B 00 00 80 06 80 3C 1B  -....*.<......<.
0E10: 00 06 80 06 80 3C 1B 00  01 80 06 80 3C 1B 00 02  .....<......<...
0E20: 80 06 80 3C 1B 00 2C 80  06 80 01 2D 0E 03 02 10  ...<..,....-....
0E30: 3C 00 24 B6 80 00 80 1B  00 25 02 00 10 2D 80 00  <.$......%...-..
0E40: 48 0E 05 1F 00 01 48 0E  03 3D 00 00 10 02 1F 00  H.....H..=......
0E50: 00 80 00 C9 0E 03 47 00  3D 00 0B 47 00 9D 00 5C  ......G.=..G...\
0E60: 24 02 10 47 00 03 03 10  3D 00 02 07 00 06 80 80  $..G....=.......
0E70: 7A 0E 03 04 10 00 80 01  8F 0E 02 07 00 01 80 80  z...............
0E80: 8F 0E 08 03 10 2A 80 03  04 10 06 80 01 8F 0E 1D  .....*..........
0E90: B7 80 23 24 B8 80 06 80  00 80 25 02 00 10 00 80  ..#$......%.....
0EA0: 00 BE 0E 40 00 80 03 80  01 10 B9 80 40 04 80 05  ...@........@...
0EB0: 80 01 10 47 00 05 1F 00  05 09 00 01 C9 0E 02 00  ...G............
0EC0: 10 06 80 00 C9 0E 01 C9  0E 01 C3 0D 1B 03 03 10  ................
0ED0: BA 80 03 04 10 BB 80 03  05 10 BC 80 03 06 10 BD  ................
0EE0: 80 03 07 10 BE 80 03 08  10 BF 80 03 09 10 C0 80  ................
0EF0: 03 00 17 C1 80 03 01 17  C2 80 03 02 17 C3 80 03  ................
0F00: 03 17 C4 80 03 04 17 C5  80 03 05 17 C6 80 03 06  ................
0F10: 17 C7 80 03 07 17 C8 80  03 08 17 C9 80 1B 40 00  ..............@.
0F20: 80 03 80 01 10 2D 80 40  04 80 05 80 01 10 00 80  .....-.@........
0F30: 06 12 00 06 13 00 43 00  43 01 03 12 00 03 10 03  ......C.C.......
0F40: 13 00 04 10 03 06 00 05  10 02 06 10 00 80 00 59  ...............Y
0F50: 0F 03 3D 00 CA 80 01 5E  0F 03 3D 00 CB 80 03 08  ..=....^..=.....
0F60: 00 13 00 08 08 00 12 00  15 08 00 3D 00 1A A6 03  ...........=....
0F70: 02 08 00 44 00 02 7D 0F  03 08 00 44 00 3E 06 00  ...D..}....D.>..
0F80: 00 80 87 0F 0C 08 00 02  08 00 00 80 05 0A 10 03  ................
0F90: 08 00 12 00 07 08 00 3D  00 3E 06 00 00 80 A5 0F  .......=.>......
0FA0: 07 08 00 3D 00 08 08 00  13 00 15 08 00 CC 80 02  ...=............
0FB0: 08 00 00 80 00 F4 0F 03  08 00 12 00 07 08 00 3D  ...............=
0FC0: 00 3E 06 00 00 80 CD 0F  07 08 00 3D 00 08 08 00  .>.........=....
0FD0: 13 00 15 08 00 91 80 02  08 00 00 80 00 EC 0F 03  ................
0FE0: 08 00 06 80 03 04 10 01  80 01 F1 0F 03 04 10 06  ................
0FF0: 80 01 F9 0F 03 04 10 00  80 03 03 10 08 00 03 02  ................
1000: 10 0E 80 1D CD 80 23 01  27 10 03 02 10 0E 80 03  ......#.'.......
1010: 03 10 08 00 02 08 00 06  80 02 23 10 1D CE 80 23  ..........#....#
1020: 01 27 10 1D CF 80 23 1B  06 1F 00 02 1F 00 00 80  .'....#.........
1030: 00 CF 10 1A 0C 11 03 02  10 0D 00 24 D0 80 00 80  ...........$....
1040: 1B 00 25 02 00 10 22 80  00 51 10 05 1F 00 01 51  ..%..."..Q.....Q
1050: 10 03 08 00 00 10 02 1F  00 00 80 00 CC 10 06 02  ................
1060: 10 07 08 00 45 00 9D 00  9C 23 19 00 08 00 9D 00  ....E....#......
1070: FC 23 1A 00 08 00 93 19  00 03 02 10 19 00 03 03  .#..............
1080: 10 1A 00 03 04 10 0D 00  1D D1 80 23 93 00 80 24  ...........#...$
1090: B0 80 06 80 00 80 25 02  00 10 00 80 00 C1 10 42  ......%........B
10A0: 40 00 80 03 80 01 10 29  80 40 04 80 05 80 01 10  @......).@......
10B0: 08 00 05 09 00 05 1F 00  05 17 00 05 18 00 01 CC  ................
10C0: 10 02 00 10 06 80 00 CC  10 01 CC 10 01 2B 10 1B  .............+..
10D0: 06 45 00 06 46 00 03 47  00 1C 00 02 07 00 06 80  .E..F..G........
10E0: 80 EB 10 07 47 00 06 80  01 FB 10 02 07 00 01 80  ....G...........
10F0: 80 FB 10 07 47 00 2D 80  01 FB 10 9D 00 7C 21 45  ....G.-......|!E
1100: 00 47 00 9D 00 9C 21 46  00 47 00 1B 06 39 00 06  .G....!F.G...9..
1110: 3A 00 06 3B 00 03 39 00  45 00 03 3A 00 46 00 1A  :..;..9.E..:.F..
1120: 6E 11 02 39 00 3A 00 05  5C 11 06 08 00 9D 00 9C  n..9.:..\.......
1130: 23 08 00 39 00 9D 05 BC  21 08 00 3B 00 0B 3B 00  #..9....!..;..;.
1140: 06 08 00 9D 00 FC 23 08  00 39 00 9D 05 BC 21 08  ......#..9....!.
1150: 00 3B 00 0B 3B 00 0B 39  00 01 22 11 1A 88 11 3C  .;..;..9.."....<
1160: 1B 00 2E 80 06 80 3C 1B  00 2F 80 06 80 1B 06 08  ......<../......
1170: 00 02 08 00 A8 80 03 87  11 9D 05 BC 21 00 80 08  ............!...
1180: 00 0B 08 00 01 71 11 1B  06 39 00 06 08 00 06 47  .....q...9.....G
1190: 00 06 1B 00 02 39 00 2E  80 03 C6 11 03 47 00 39  .....9.......G.9
11A0: 00 14 47 00 01 80 0B 47  00 9D 00 BC 21 08 00 47  ..G....G....!..G
11B0: 00 02 08 00 00 80 00 C0  11 3C 1B 00 39 00 06 80  .........<..9...
11C0: 0B 39 00 01 94 11 1B                              .9.....         
```

#### Opcodes

```
  0: 0x0001 [0x1E] EventEntity looks at LocalPlayer and starts talking
  1: 0x0006 [0x06] ExtData[1]->WorkLocal[2] = 0
  2: 0x0009 [0x06] ExtData[1]->WorkLocal[3] = 0
  3: 0x000C [0x06] ExtData[1]->WorkLocal[4] = 0
  4: 0x000F [0x06] ExtData[1]->WorkLocal[5] = 0
  5: 0x0012 [0x06] ExtData[1]->WorkLocal[6] = 0
  6: 0x0015 [0x06] ExtData[1]->WorkLocal[7] = 0
  7: 0x0018 [0x06] ExtData[1]->WorkLocal[66] = 0
  8: 0x001B [0x06] ExtData[1]->WorkLocal[8] = 0
  9: 0x001E [0x06] ExtData[1]->WorkLocal[9] = 0
 10: 0x0021 [0x06] ExtData[1]->WorkLocal[10] = 0
 11: 0x0024 [0x06] ExtData[1]->WorkLocal[13] = 0
 12: 0x0027 [0x06] ExtData[1]->WorkLocal[64] = 0
 13: 0x002A [0x06] ExtData[1]->WorkLocal[65] = 0
 14: 0x002D [0x41] ExtData[1]->WorkLocal[0] = Work_Zone[2] (bits 0*-2*)
 15: 0x0036 [0x41] ExtData[1]->WorkLocal[67] = Work_Zone[2] (bits 3*-3*)
 16: 0x003F [0x03] ExtData[1]->WorkLocal[64] = Work_Zone[3]
 17: 0x0044 [0x03] ExtData[1]->WorkLocal[2] = Work_Zone[4]
 18: 0x0049 [0x03] ExtData[1]->WorkLocal[3] = Work_Zone[5]
 19: 0x004E [0x41] ExtData[1]->WorkLocal[4] = Work_Zone[6] (bits 0*-15*)
 20: 0x0057 [0x41] ExtData[1]->WorkLocal[5] = Work_Zone[6] (bits 16*-31*)
 21: 0x0060 [0x03] ExtData[1]->WorkLocal[6] = Work_Zone[7]
 22: 0x0065 [0x41] ExtData[1]->WorkLocal[7] = Work_Zone[8] (bits 0*-15*)
 23: 0x006E [0x41] ExtData[1]->WorkLocal[66] = Work_Zone[8] (bits 16*-31*)
 24: 0x0077 [0x03] ExtData[1]->WorkLocal[13] = Work_Zone[9]
 25: 0x007C [0x02] IF !(ExtData[1]->WorkLocal[0] == 1*) GOTO 0x0109
 26: 0x0084 [0x42] SET_CLI_EVENT_CANCEL_DATA()
 27: 0x0085 [0x1D] PRINT_EVENT_MESSAGE(message_id=12241*)
     "Oho, I knew it was a good idea to prepare this grimoire. Here, it should help with your research."
 28: 0x0088 [0x23] WAIT_FOR_DIALOG_INTERACTION
 29: 0x0089 [0x03] Work_Zone[1] = 1*
 30: 0x008E [0x43] SEND_EVENT_UPDATE: Send pending tag to server (packet 0x005B)
 31: 0x0090 [0x43] SEND_EVENT_UPDATE: Check pending flag (skip if not pending)
 32: 0x0092 [0x03] ExtData[1]->WorkLocal[8] = Work_Zone[3]
 33: 0x0097 [0x02] IF !(ExtData[1]->WorkLocal[8] <= 0*) GOTO 0x00AD
 34: 0x009F [0x1D] PRINT_EVENT_MESSAGE(message_id=12242*)
     "It looks like you can't carry any more. Try emptying some articles out and return when you have the room."
 35: 0x00A2 [0x23] WAIT_FOR_DIALOG_INTERACTION
 36: 0x00A3 [0x03] Work_Zone[1] = 13*
 37: 0x00A8 [0x21] END_EVENT
 38: 0x00A9 [0x00] END_REQSTACK()

SUBROUTINE_00CD:
 39: 0x00CD [0x03] Work_Zone[2] = ExtData[1]->WorkLocal[7]
 40: 0x00D2 [0x03] Work_Zone[3] = 2146*
 41: 0x00D7 [0x03] Work_Zone[4] = 2145*
 42: 0x00DC [0x1D] PRINT_EVENT_MESSAGE(message_id=12247*)
     "[You'll receive/I'll give you/I'll give you] $6 and $6 once you hand it over. After that's done, you're ready to go spelunking...unless you're the party leader."
 43: 0x00DF [0x23] WAIT_FOR_DIALOG_INTERACTION
 44: 0x00E0 [0x1D] PRINT_EVENT_MESSAGE(message_id=12248*)
     "Then you'll have to talk to [the Burrow Researcher/me/me] again to decide which expedition to undertake."
 45: 0x00E3 [0x23] WAIT_FOR_DIALOG_INTERACTION
 46: 0x00E4 [0x1D] PRINT_EVENT_MESSAGE(message_id=12249*)
     "I must warn you, though, that some expeditions require everyone to make a unanimous decision."
 47: 0x00E7 [0x23] WAIT_FOR_DIALOG_INTERACTION
 48: 0x00E8 [0x1D] PRINT_EVENT_MESSAGE(message_id=12250*)
     "Once your party's expedition has been chosen, it's time to go spelunking."
 49: 0x00EB [0x23] WAIT_FOR_DIALOG_INTERACTION
 50: 0x00EC [0x1D] PRINT_EVENT_MESSAGE(message_id=12251*)
     "Have your party leader talk to the Meeble guarding the burrow entrance. He'll escort you to the right research site."
 51: 0x00EF [0x23] WAIT_FOR_DIALOG_INTERACTION
 52: 0x00F0 [0x03] Work_Zone[3] = 5939*
 53: 0x00F5 [0x1D] PRINT_EVENT_MESSAGE(message_id=12252*)
     "After you've finished an expedition, use $1 to return aboveground and report to [the Burrow Researcher in charge or me/me/me] to get your grimoire back."
 54: 0x00F8 [0x23] WAIT_FOR_DIALOG_INTERACTION
 55: 0x00F9 [0x1D] PRINT_EVENT_MESSAGE(message_id=12253*)
     "Now for a word about grimoires. They impart various benefits depending on what expeditions you've completed."
 56: 0x00FC [0x23] WAIT_FOR_DIALOG_INTERACTION
 57: 0x00FD [0x1D] PRINT_EVENT_MESSAGE(message_id=12254*)
     "It's dangerous down there, so be sure to make use of your grimoire."
 58: 0x0100 [0x23] WAIT_FOR_DIALOG_INTERACTION
 59: 0x0101 [0x1D] PRINT_EVENT_MESSAGE(message_id=12255*)
     "Finally, while there are many types of grimoires, they all share the same attributes. Feel free to change them out depending on your companions and the research assignment at hand."
 60: 0x0104 [0x23] WAIT_FOR_DIALOG_INTERACTION

SUBROUTINE_0105:
 61: 0x0105 [0x2E] SET_CLI_EVENT_CANCEL_FLAGS()
 62: 0x0106 [0x01] GOTO 0x01DC
 63: 0x0109 [0x02] IF !(ExtData[1]->WorkLocal[7] == 0*) GOTO 0x0151
 64: 0x0111 [0x02] IF !(ExtData[1]->WorkLocal[66] == 0*) GOTO 0x0120
 65: 0x0119 [0x1D] PRINT_EVENT_MESSAGE(message_id=12257*)
     "Well, well, look who it is. What do you need this time?"
 66: 0x011C [0x23] WAIT_FOR_DIALOG_INTERACTION
 67: 0x011D [0x01] GOTO 0x014E
 68: 0x0120 [0x02] IF !(ExtData[1]->WorkLocal[67] == 0*) GOTO 0x014A
 69: 0x0128 [0x42] SET_CLI_EVENT_CANCEL_DATA()
 70: 0x0129 [0x1D] PRINT_EVENT_MESSAGE(message_id=12258*)
     "Finally! I've been waiting for you this whole time."
 71: 0x012C [0x23] WAIT_FOR_DIALOG_INTERACTION
 72: 0x012D [0x1D] PRINT_EVENT_MESSAGE(message_id=12259*)
     "We thought we had a bead on the Meebles' habitat, but it turns out we were dead wrong. There's another set of caverns in the vicinity of Batallia Downs!"
 73: 0x0130 [0x23] WAIT_FOR_DIALOG_INTERACTION
 74: 0x0131 [0x1D] PRINT_EVENT_MESSAGE(message_id=12260*)
     "I can't understand how it remained buried for so long. Reports abound that the Moblins have expanded their base of operations and are employing Meebles for "nefarious deeds" once again."
 75: 0x0134 [0x23] WAIT_FOR_DIALOG_INTERACTION
 76: 0x0135 [0x1D] PRINT_EVENT_MESSAGE(message_id=12261*)
     "Now it's up to us, the Meeble Burrows Exploration Committee, to unearth heaping amounts of knowledge for our glorious archives! Oh, and maybe to save the day, too."
 77: 0x0138 [0x23] WAIT_FOR_DIALOG_INTERACTION
 78: 0x0139 [0x1D] PRINT_EVENT_MESSAGE(message_id=12262*)
     "How, you ask? By collecting as much information as possible through new expeditions and finally getting to the bottom of this Moblin nuisance! We're always in need of proven researchers like yourself, should you wish to join in the action."
 79: 0x013C [0x23] WAIT_FOR_DIALOG_INTERACTION
 80: 0x013D [0x03] Work_Zone[1] = 20*
 81: 0x0142 [0x43] SEND_EVENT_UPDATE: Send pending tag to server (packet 0x005B)
 82: 0x0144 [0x43] SEND_EVENT_UPDATE: Check pending flag (skip if not pending)
 83: 0x0146 [0x2E] SET_CLI_EVENT_CANCEL_FLAGS()
 84: 0x0147 [0x01] GOTO 0x014E
 85: 0x014A [0x1D] PRINT_EVENT_MESSAGE(message_id=12257*)
     "Well, well, look who it is. What do you need this time?"
 86: 0x014D [0x23] WAIT_FOR_DIALOG_INTERACTION

SUBROUTINE_014E:
 87: 0x014E [0x01] GOTO 0x01DC
 88: 0x0151 [0x02] IF !(ExtData[1]->WorkLocal[7] == 1*) GOTO 0x01B3
 89: 0x0159 [0x02] IF !(ExtData[1]->WorkLocal[0] == 2*) GOTO 0x0173
 90: 0x0161 [0x42] SET_CLI_EVENT_CANCEL_DATA()
 91: 0x0162 [0x1D] PRINT_EVENT_MESSAGE(message_id=12256*)
     "You must be the explorer my compatriot in Jeuno was talking about. What brings you here?"
 92: 0x0165 [0x23] WAIT_FOR_DIALOG_INTERACTION
 93: 0x0166 [0x03] Work_Zone[1] = 11*
 94: 0x016B [0x43] SEND_EVENT_UPDATE: Send pending tag to server (packet 0x005B)
 95: 0x016D [0x43] SEND_EVENT_UPDATE: Check pending flag (skip if not pending)
 96: 0x016F [0x2E] SET_CLI_EVENT_CANCEL_FLAGS()
 97: 0x0170 [0x01] GOTO 0x01B0
 98: 0x0173 [0x02] IF !(ExtData[1]->WorkLocal[66] == 0*) GOTO 0x0182
 99: 0x017B [0x1D] PRINT_EVENT_MESSAGE(message_id=12257*)
     "Well, well, look who it is. What do you need this time?"
100: 0x017E [0x23] WAIT_FOR_DIALOG_INTERACTION
101: 0x017F [0x01] GOTO 0x01B0
102: 0x0182 [0x02] IF !(ExtData[1]->WorkLocal[67] == 0*) GOTO 0x01AC
103: 0x018A [0x42] SET_CLI_EVENT_CANCEL_DATA()
104: 0x018B [0x1D] PRINT_EVENT_MESSAGE(message_id=12258*)
     "Finally! I've been waiting for you this whole time."
105: 0x018E [0x23] WAIT_FOR_DIALOG_INTERACTION
106: 0x018F [0x1D] PRINT_EVENT_MESSAGE(message_id=12259*)
     "We thought we had a bead on the Meebles' habitat, but it turns out we were dead wrong. There's another set of caverns in the vicinity of Batallia Downs!"
107: 0x0192 [0x23] WAIT_FOR_DIALOG_INTERACTION
108: 0x0193 [0x1D] PRINT_EVENT_MESSAGE(message_id=12260*)
     "I can't understand how it remained buried for so long. Reports abound that the Moblins have expanded their base of operations and are employing Meebles for "nefarious deeds" once again."
109: 0x0196 [0x23] WAIT_FOR_DIALOG_INTERACTION
110: 0x0197 [0x1D] PRINT_EVENT_MESSAGE(message_id=12261*)
     "Now it's up to us, the Meeble Burrows Exploration Committee, to unearth heaping amounts of knowledge for our glorious archives! Oh, and maybe to save the day, too."
111: 0x019A [0x23] WAIT_FOR_DIALOG_INTERACTION
112: 0x019B [0x1D] PRINT_EVENT_MESSAGE(message_id=12262*)
     "How, you ask? By collecting as much information as possible through new expeditions and finally getting to the bottom of this Moblin nuisance! We're always in need of proven researchers like yourself, should you wish to join in the action."
113: 0x019E [0x23] WAIT_FOR_DIALOG_INTERACTION
114: 0x019F [0x03] Work_Zone[1] = 20*
115: 0x01A4 [0x43] SEND_EVENT_UPDATE: Send pending tag to server (packet 0x005B)
116: 0x01A6 [0x43] SEND_EVENT_UPDATE: Check pending flag (skip if not pending)
117: 0x01A8 [0x2E] SET_CLI_EVENT_CANCEL_FLAGS()
118: 0x01A9 [0x01] GOTO 0x01B0
119: 0x01AC [0x1D] PRINT_EVENT_MESSAGE(message_id=12257*)
     "Well, well, look who it is. What do you need this time?"
120: 0x01AF [0x23] WAIT_FOR_DIALOG_INTERACTION

SUBROUTINE_01B0:
121: 0x01B0 [0x01] GOTO 0x01DC
122: 0x01B3 [0x02] IF !(ExtData[1]->WorkLocal[7] == 2*) GOTO 0x01DC
123: 0x01BB [0x02] IF !(ExtData[1]->WorkLocal[0] == 2*) GOTO 0x01D5
124: 0x01C3 [0x42] SET_CLI_EVENT_CANCEL_DATA()
125: 0x01C4 [0x1D] PRINT_EVENT_MESSAGE(message_id=12256*)
     "You must be the explorer my compatriot in Jeuno was talking about. What brings you here?"
126: 0x01C7 [0x23] WAIT_FOR_DIALOG_INTERACTION
127: 0x01C8 [0x03] Work_Zone[1] = 11*
128: 0x01CD [0x43] SEND_EVENT_UPDATE: Send pending tag to server (packet 0x005B)
129: 0x01CF [0x43] SEND_EVENT_UPDATE: Check pending flag (skip if not pending)
130: 0x01D1 [0x2E] SET_CLI_EVENT_CANCEL_FLAGS()
131: 0x01D2 [0x01] GOTO 0x01D9
132: 0x01D5 [0x1D] PRINT_EVENT_MESSAGE(message_id=12257*)
     "Well, well, look who it is. What do you need this time?"
133: 0x01D8 [0x23] WAIT_FOR_DIALOG_INTERACTION

SUBROUTINE_01D9:
134: 0x01D9 [0x01] GOTO 0x01DC

SUBROUTINE_01DC:
135: 0x01DC [0x1A] CALL_SUBROUTINE(address=0x1989)
136: 0x01DF [0x3C] SET_BIT_FLAG_CONDITIONAL(target_work_offset=ExtData[1]->WorkLocal[11], bit_index_work_offset=6*, condition_work_offset=1*)
137: 0x01E6 [0x3E] IF !(ExtData[1]->WorkLocal[6] bit 6*) GOTO 0x0204
138: 0x01ED [0x03] ExtData[1]->WorkLocal[11] = 4294963265*
139: 0x01F2 [0x02] IF !(ExtData[1]->WorkLocal[64] <= 0*) GOTO 0x0201
140: 0x01FA [0x3D] CLEAR_BIT_FLAG_CONDITIONAL(target_work_offset=ExtData[1]->WorkLocal[11], bit_index_work_offset=6*, condition_work_offset=1*)
141: 0x0201 [0x01] GOTO 0x0209
142: 0x0204 [0x03] ExtData[1]->WorkLocal[11] = 4294963279*

SUBROUTINE_0209:
143: 0x0209 [0x3E] IF !(ExtData[1]->WorkLocal[6] bit 6*) GOTO 0x0227
144: 0x0210 [0x3E] IF !(ExtData[1]->WorkLocal[6] bit 12*) GOTO 0x021F
145: 0x0217 [0x03] ExtData[1]->WorkLocal[20] = 12264*
146: 0x021C [0x01] GOTO 0x0224
147: 0x021F [0x03] ExtData[1]->WorkLocal[20] = 12263*

SUBROUTINE_0224:
148: 0x0224 [0x01] GOTO 0x022C
149: 0x0227 [0x03] ExtData[1]->WorkLocal[20] = 12263*

SUBROUTINE_022C:
150: 0x022C [0x3C] SET_BIT_FLAG_CONDITIONAL(target_work_offset=ExtData[1]->WorkLocal[11], bit_index_work_offset=7*, condition_work_offset=1*)
151: 0x0233 [0x41] ExtData[1]->WorkLocal[21] = ExtData[1]->WorkLocal[6] (bits 1*-5*)
152: 0x023C [0x41] ExtData[1]->WorkLocal[22] = ExtData[1]->WorkLocal[6] (bits 16*-23*)
153: 0x0245 [0x02] IF !(ExtData[1]->WorkLocal[7] == 1*) GOTO 0x026A
154: 0x024D [0x02] IF !(ExtData[1]->WorkLocal[22] < 31*) GOTO 0x0267
155: 0x0255 [0x02] IF !(ExtData[1]->WorkLocal[21] == 31*) GOTO 0x0260
156: 0x025D [0x01] GOTO 0x0267
157: 0x0260 [0x3D] CLEAR_BIT_FLAG_CONDITIONAL(target_work_offset=ExtData[1]->WorkLocal[11], bit_index_work_offset=7*, condition_work_offset=1*)

SUBROUTINE_0267:
158: 0x0267 [0x01] GOTO 0x028F
159: 0x026A [0x02] IF !(ExtData[1]->WorkLocal[7] == 2*) GOTO 0x028F
160: 0x0272 [0x02] IF !(ExtData[1]->WorkLocal[22] < 7*) GOTO 0x028C
161: 0x027A [0x02] IF !(ExtData[1]->WorkLocal[21] == 7*) GOTO 0x0285
162: 0x0282 [0x01] GOTO 0x028C
163: 0x0285 [0x3D] CLEAR_BIT_FLAG_CONDITIONAL(target_work_offset=ExtData[1]->WorkLocal[11], bit_index_work_offset=7*, condition_work_offset=1*)

SUBROUTINE_028C:
164: 0x028C [0x01] GOTO 0x028F

SUBROUTINE_028F:
165: 0x028F [0x1A] CALL_SUBROUTINE(address=0x1958)
166: 0x0292 [0x1A] CALL_SUBROUTINE(address=0x0D52)
167: 0x0295 [0x02] IF !(ExtData[1]->WorkLocal[12] == 0*) GOTO 0x02A4
168: 0x029D [0x3C] SET_BIT_FLAG_CONDITIONAL(target_work_offset=ExtData[1]->WorkLocal[11], bit_index_work_offset=6*, condition_work_offset=1*)
169: 0x02A4 [0x06] ExtData[1]->WorkLocal[9] = 0

SUBROUTINE_02A7:
170: 0x02A7 [0x02] IF !(ExtData[1]->WorkLocal[9] == 0*) GOTO 0x03A4
171: 0x02AF [0x03] Work_Zone[2] = 2146*
172: 0x02B4 [0x02] IF !(ExtData[1]->WorkLocal[7] == 0*) GOTO 0x02BF
173: 0x02BC [0x01] GOTO 0x02EC
174: 0x02BF [0x03] Work_Zone[3] = ExtData[1]->WorkLocal[4]
175: 0x02C4 [0x02] IF !(Work_Zone[3] <= 0*) GOTO 0x02CF
176: 0x02CC [0x0C] Work_Zone[3]--
177: 0x02CF [0x03] Work_Zone[4] = ExtData[1]->WorkLocal[5]
178: 0x02D4 [0x02] IF !(Work_Zone[4] <= 0*) GOTO 0x02DF
179: 0x02DC [0x0C] Work_Zone[4]--
180: 0x02DF [0x02] IF !(Work_Zone[4] == 5*) GOTO 0x02EC
181: 0x02E7 [0x03] Work_Zone[3] = 5*

SUBROUTINE_02EC:
182: 0x02EC [0x24] CREATE_DIALOG(message_id=ExtData[1]->WorkLocal[20], default_option=0*, option_flags=ExtData[1]->WorkLocal[11])
183: 0x02F3 [0x25] WAIT_DIALOG_SELECT()
184: 0x02F4 [0x02] IF !(Work_Zone[0] == 0*) GOTO 0x0302
185: 0x02FC [0x1A] CALL_SUBROUTINE(address=0x06DA)
186: 0x02FF [0x01] GOTO 0x03A1
187: 0x0302 [0x02] IF !(Work_Zone[0] == 1*) GOTO 0x0310
188: 0x030A [0x1A] CALL_SUBROUTINE(address=0x128D)
189: 0x030D [0x01] GOTO 0x03A1
190: 0x0310 [0x02] IF !(Work_Zone[0] == 2*) GOTO 0x031E
191: 0x0318 [0x1A] CALL_SUBROUTINE(address=0x0897)
192: 0x031B [0x01] GOTO 0x03A1
193: 0x031E [0x02] IF !(Work_Zone[0] == 3*) GOTO 0x032C
194: 0x0326 [0x1A] CALL_SUBROUTINE(address=0x1592)
195: 0x0329 [0x01] GOTO 0x03A1
196: 0x032C [0x02] IF !(Work_Zone[0] == 4*) GOTO 0x033A
197: 0x0334 [0x1A] CALL_SUBROUTINE(address=0x0F1E)
198: 0x0337 [0x01] GOTO 0x03A1
199: 0x033A [0x02] IF !(Work_Zone[0] == 5*) GOTO 0x0348
200: 0x0342 [0x1A] CALL_SUBROUTINE(address=0x08E4)
201: 0x0345 [0x01] GOTO 0x03A1
202: 0x0348 [0x02] IF !(Work_Zone[0] == 6*) GOTO 0x0356
203: 0x0350 [0x1A] CALL_SUBROUTINE(address=0x0B79)
204: 0x0353 [0x01] GOTO 0x03A1
205: 0x0356 [0x02] IF !(Work_Zone[0] == 7*) GOTO 0x0364
206: 0x035E [0x1A] CALL_SUBROUTINE(address=0x0DAB)
207: 0x0361 [0x01] GOTO 0x03A1
208: 0x0364 [0x02] IF !(Work_Zone[0] == 8*) GOTO 0x0372
209: 0x036C [0x1A] CALL_SUBROUTINE(address=0x077B)
210: 0x036F [0x01] GOTO 0x03A1
211: 0x0372 [0x02] IF !(Work_Zone[0] == 9*) GOTO 0x0380
212: 0x037A [0x1A] CALL_SUBROUTINE(address=0x03D0)
213: 0x037D [0x01] GOTO 0x03A1
214: 0x0380 [0x02] IF !(Work_Zone[0] == 10*) GOTO 0x038E
215: 0x0388 [0x1A] CALL_SUBROUTINE(address=0x163C)
216: 0x038B [0x01] GOTO 0x03A1
217: 0x038E [0x02] IF !(Work_Zone[0] == 11*) GOTO 0x03A1
218: 0x0396 [0x03] Work_Zone[1] = 1073741824*
219: 0x039B [0x05] ExtData[1]->WorkLocal[9] = 1
220: 0x039E [0x01] GOTO 0x03A1

SUBROUTINE_03A1:
221: 0x03A1 [0x01] GOTO 0x02A7
222: 0x03A4 [0x21] END_EVENT
223: 0x03A5 [0x00] END_REQSTACK()

SUBROUTINE_03A6:
224: 0x03A6 [0x03] ExtData[1]->WorkLocal[68] = 10*
225: 0x03AB [0x3E] IF !(ExtData[1]->WorkLocal[6] bit 29*) GOTO 0x03B7
226: 0x03B2 [0x07] ExtData[1]->WorkLocal[68] += 1*
227: 0x03B7 [0x3E] IF !(ExtData[1]->WorkLocal[6] bit 30*) GOTO 0x03C3
228: 0x03BE [0x07] ExtData[1]->WorkLocal[68] += 2*
229: 0x03C3 [0x3E] IF !(ExtData[1]->WorkLocal[6] bit 31*) GOTO 0x03CF
230: 0x03CA [0x07] ExtData[1]->WorkLocal[68] += 3*
231: 0x03CF [0x1B] RETURN

SUBROUTINE_03D0:
232: 0x03D0 [0x06] ExtData[1]->WorkLocal[10] = 0
233: 0x03D3 [0x06] ExtData[1]->WorkLocal[12] = 0

SUBROUTINE_03D6:
234: 0x03D6 [0x02] IF !(ExtData[1]->WorkLocal[10] == 0*) GOTO 0x06D9
235: 0x03DE [0x24] CREATE_DIALOG(message_id=12265*, default_option=ExtData[1]->WorkLocal[12], option_flags=0*)
     "Any questions? [No, not right now./How does this whole research thing work?/I...descend into underground caves!?/What are these grimoires about?/How do I begin an expedition?/What goes on after an expedition?/What dastardly foes lurk down below?/Any rhyme or reason to these burrows?/What are research marks?/Can you tell me about the Meebles?/What is grimoire engraving?/Could you tell me about wizened worms?/Palimpsests? Huh?]"
236: 0x03E5 [0x25] WAIT_DIALOG_SELECT()
237: 0x03E6 [0x02] IF !(Work_Zone[0] == 0*) GOTO 0x03F7
238: 0x03EE [0x05] ExtData[1]->WorkLocal[10] = 1
239: 0x03F1 [0x06] ExtData[1]->WorkLocal[12] = 0
240: 0x03F4 [0x01] GOTO 0x06D1
241: 0x03F7 [0x02] IF !(Work_Zone[0] == 1*) GOTO 0x0451
242: 0x03FF [0x02] IF !(ExtData[1]->WorkLocal[7] == 0*) GOTO 0x0412
243: 0x0407 [0x1D] PRINT_EVENT_MESSAGE(message_id=12244*)
     "Let's see if I can do this. First, form a party of one to six people. Next, trade your grimoire to the Burrow Researcher in charge of the burrows you're investigating."
244: 0x040A [0x23] WAIT_FOR_DIALOG_INTERACTION
245: 0x040B [0x1D] PRINT_EVENT_MESSAGE(message_id=12245*)
     "If the need arises, I can always transport you there."
246: 0x040E [0x23] WAIT_FOR_DIALOG_INTERACTION
247: 0x040F [0x01] GOTO 0x0416
248: 0x0412 [0x1D] PRINT_EVENT_MESSAGE(message_id=12246*)
     "Alright, here goes nothing. First, form a party of one to six people. Next, trade your grimoire to me."
249: 0x0415 [0x23] WAIT_FOR_DIALOG_INTERACTION

SUBROUTINE_0416:
250: 0x0416 [0x03] Work_Zone[2] = ExtData[1]->WorkLocal[7]
251: 0x041B [0x03] Work_Zone[3] = 2146*
252: 0x0420 [0x03] Work_Zone[4] = 2145*
253: 0x0425 [0x1D] PRINT_EVENT_MESSAGE(message_id=12247*)
     "[You'll receive/I'll give you/I'll give you] $6 and $6 once you hand it over. After that's done, you're ready to go spelunking...unless you're the party leader."
254: 0x0428 [0x23] WAIT_FOR_DIALOG_INTERACTION
255: 0x0429 [0x1D] PRINT_EVENT_MESSAGE(message_id=12248*)
     "Then you'll have to talk to [the Burrow Researcher/me/me] again to decide which expedition to undertake."
256: 0x042C [0x23] WAIT_FOR_DIALOG_INTERACTION
257: 0x042D [0x1D] PRINT_EVENT_MESSAGE(message_id=12249*)
     "I must warn you, though, that some expeditions require everyone to make a unanimous decision."
258: 0x0430 [0x23] WAIT_FOR_DIALOG_INTERACTION
259: 0x0431 [0x1D] PRINT_EVENT_MESSAGE(message_id=12250*)
     "Once your party's expedition has been chosen, it's time to go spelunking."
260: 0x0434 [0x23] WAIT_FOR_DIALOG_INTERACTION
261: 0x0435 [0x1D] PRINT_EVENT_MESSAGE(message_id=12251*)
     "Have your party leader talk to the Meeble guarding the burrow entrance. He'll escort you to the right research site."
262: 0x0438 [0x23] WAIT_FOR_DIALOG_INTERACTION
263: 0x0439 [0x03] Work_Zone[3] = 5939*
264: 0x043E [0x1D] PRINT_EVENT_MESSAGE(message_id=12252*)
     "After you've finished an expedition, use $1 to return aboveground and report to [the Burrow Researcher in charge or me/me/me] to get your grimoire back."
265: 0x0441 [0x23] WAIT_FOR_DIALOG_INTERACTION
266: 0x0442 [0x1D] PRINT_EVENT_MESSAGE(message_id=12253*)
     "Now for a word about grimoires. They impart various benefits depending on what expeditions you've completed."
267: 0x0445 [0x23] WAIT_FOR_DIALOG_INTERACTION
268: 0x0446 [0x1D] PRINT_EVENT_MESSAGE(message_id=12254*)
     "It's dangerous down there, so be sure to make use of your grimoire."
269: 0x0449 [0x23] WAIT_FOR_DIALOG_INTERACTION
270: 0x044A [0x1D] PRINT_EVENT_MESSAGE(message_id=12255*)
     "Finally, while there are many types of grimoires, they all share the same attributes. Feel free to change them out depending on your companions and the research assignment at hand."
271: 0x044D [0x23] WAIT_FOR_DIALOG_INTERACTION
272: 0x044E [0x01] GOTO 0x06D1
273: 0x0451 [0x02] IF !(Work_Zone[0] == 2*) GOTO 0x046C
274: 0x0459 [0x1D] PRINT_EVENT_MESSAGE(message_id=12266*)
     "You adventurers can help us collect data by embarking on certain expeditions belowground. The goals and activities for each journey you undertake will vary, so this won't be just some routine experiment."
275: 0x045C [0x23] WAIT_FOR_DIALOG_INTERACTION
276: 0x045D [0x1D] PRINT_EVENT_MESSAGE(message_id=12267*)
     "Although these subterranean caverns may appear simplistic from the outside, their twisting corridors disorient even the Moblins. Be careful."
277: 0x0460 [0x23] WAIT_FOR_DIALOG_INTERACTION
278: 0x0461 [0x1D] PRINT_EVENT_MESSAGE(message_id=12268*)
     "Of course, you'll have to prove your problem-solving skills during more forgiving operations before we let you tackle the truly scary stuff."
279: 0x0464 [0x23] WAIT_FOR_DIALOG_INTERACTION
280: 0x0465 [0x1D] PRINT_EVENT_MESSAGE(message_id=12269*)
     "Each expedition has a total of three goals for you to achieve. Complete just one goal or up to all three--the choice is yours. However, it should go without saying that the more goals you achieve, the better the reward."
281: 0x0468 [0x23] WAIT_FOR_DIALOG_INTERACTION
282: 0x0469 [0x01] GOTO 0x06D1
283: 0x046C [0x02] IF !(Work_Zone[0] == 3*) GOTO 0x04A0
284: 0x0474 [0x1D] PRINT_EVENT_MESSAGE(message_id=12271*)
     "Grimoires are types of magical books that ancient sorcerers brandished in battle long, long ago. Now that they've been unearthed again, we can use them for our benefit."
285: 0x0477 [0x23] WAIT_FOR_DIALOG_INTERACTION
286: 0x0478 [0x1D] PRINT_EVENT_MESSAGE(message_id=12272*)
     "What's the point of adapting them for use in the burrows? Why, to record the feats of explorers like you. Without them, it would be much harder to complete expeditions."
287: 0x047B [0x23] WAIT_FOR_DIALOG_INTERACTION
288: 0x047C [0x1D] PRINT_EVENT_MESSAGE(message_id=12273*)
     "Like I said, they're no picture books for children. They grant powerful effects for each expedition you finish."
289: 0x047F [0x23] WAIT_FOR_DIALOG_INTERACTION
290: 0x0480 [0x1D] PRINT_EVENT_MESSAGE(message_id=12274*)
     "These boons pack a punch from the get-go, but completing expeditions also allows you to increase their potency twice! See, I'm sure these grimoires will prove useful in your studies of the Meebles' tunnels."
291: 0x0483 [0x23] WAIT_FOR_DIALOG_INTERACTION
292: 0x0484 [0x1D] PRINT_EVENT_MESSAGE(message_id=12275*)
     "Just to warn you beforehand, though, boons that affect Auto-Reraise and spoils cannot have their potency increased."
293: 0x0487 [0x23] WAIT_FOR_DIALOG_INTERACTION
294: 0x0488 [0x1D] PRINT_EVENT_MESSAGE(message_id=12276*)
     "Another catch is that only the effects of your leader's tome may be bestowed upon your party for normal expeditions. Hopefully that should be all the firepower you need, though."
295: 0x048B [0x23] WAIT_FOR_DIALOG_INTERACTION
296: 0x048C [0x02] IF !(ExtData[1]->WorkLocal[0] > 2*) GOTO 0x049D
297: 0x0494 [0x03] Work_Zone[2] = 2*
298: 0x0499 [0x1D] PRINT_EVENT_MESSAGE(message_id=12277*)
     "At the moment we only have $0 types of grimoires available, but we do plan on adding to that number eventually."
299: 0x049C [0x23] WAIT_FOR_DIALOG_INTERACTION
300: 0x049D [0x01] GOTO 0x06D1
301: 0x04A0 [0x02] IF !(Work_Zone[0] == 4*) GOTO 0x052B
302: 0x04A8 [0x03] Work_Zone[2] = ExtData[1]->WorkLocal[7]
303: 0x04AD [0x03] Work_Zone[3] = 2146*
304: 0x04B2 [0x03] Work_Zone[4] = 2145*
305: 0x04B7 [0x02] IF !(ExtData[1]->WorkLocal[7] == 0*) GOTO 0x04C6
306: 0x04BF [0x1D] PRINT_EVENT_MESSAGE(message_id=12278*)
     "When you want to start a new expedition, just hand over your grimoire to the Burrow Researcher in charge of the burrows you're investigating."
307: 0x04C2 [0x23] WAIT_FOR_DIALOG_INTERACTION
308: 0x04C3 [0x01] GOTO 0x04CA
