# 17269254

## Common Data

| Field            | Value                          |
|------------------|--------------------------------|
| Zone             | Sauromugue Champaign (ID: 120) |
| Block Size       | 132 bytes                      |
| Total Events     | 6                              |
| References Count | 5                              |

## List of Events

| Event ID                 | Entrypoint   |   Size |   Instructions |
|--------------------------|--------------|--------|----------------|
| [65535](#event-65535)    | 0x0000       |      1 |              1 |
| [500](#event-500)        | 0x0001       |      1 |              1 |
| [501](#event-501)        | 0x0002       |      1 |              1 |
| [65535.1](#event-655351) | 0x0003       |     41 |              5 |
| [65535.2](#event-655352) | 0x002C       |     18 |              2 |
| [65535.3](#event-655353) | 0x003E       |     10 |              2 |

## DAT References (imed_data)

|   Index | Hex Value   |   Dec Value |
|---------|-------------|-------------|
|       0 | 0x017A      |         378 |
|       1 | 0x0000      |           0 |
|       2 | 0x002D      |          45 |
|       3 | 0x000F      |          15 |
|       4 | 0x005A      |          90 |

## Events

### Event 65535

#### Metadata

| Field        | Value   |
|--------------|---------|
| Entrypoint   | 0x0000  |
| Data Size    | 1 bytes |
| Instructions | 1       |

```
      00 01 02 03 04 05 06 07  08 09 0A 0B 0C 0D 0E 0F
      -- -- -- -- -- -- -- --  -- -- -- -- -- -- -- --
0000: 00                                                .               
```

#### Opcodes

```
  0: 0x0000 [0x00] END_REQSTACK()
```

### Event 500

#### Metadata

| Field        | Value   |
|--------------|---------|
| Entrypoint   | 0x0001  |
| Data Size    | 1 bytes |
| Instructions | 1       |

```
      00 01 02 03 04 05 06 07  08 09 0A 0B 0C 0D 0E 0F
      -- -- -- -- -- -- -- --  -- -- -- -- -- -- -- --
0000:    00                                              .              
```

#### Opcodes

```
  0: 0x0001 [0x00] END_REQSTACK()
```

### Event 501

#### Metadata

| Field        | Value   |
|--------------|---------|
| Entrypoint   | 0x0002  |
| Data Size    | 1 bytes |
| Instructions | 1       |

```
      00 01 02 03 04 05 06 07  08 09 0A 0B 0C 0D 0E 0F
      -- -- -- -- -- -- -- --  -- -- -- -- -- -- -- --
0000:       00                                            .             
```

#### Opcodes

```
  0: 0x0002 [0x00] END_REQSTACK()
```

### Event 65535.1

#### Metadata

| Field        | Value    |
|--------------|----------|
| Entrypoint   | 0x0003   |
| Data Size    | 41 bytes |
| Instructions | 5        |

```
      00 01 02 03 04 05 06 07  08 09 0A 0B 0C 0D 0E 0F
      -- -- -- -- -- -- -- --  -- -- -- -- -- -- -- --
0000:          45 00 80 09 82  07 01 F0 FF FF 7F 63 74     E..........ct
0010: 6F 6E 01 80 1C 02 80 45  00 80 09 82 07 01 F0 FF  on.....E........
0020: FF 7F 63 74 6F 66 01 80  1C 03 80 00              ..ctof......    
```

#### Opcodes

```
  0: 0x0003 [0x45] LOAD_SCHEDULED_TASK: Load scheduler "cton" with entities [Regal Feline (ID: 17269257/0x01078209), LocalPlayer], work=[378*, 0*]
  1: 0x0014 [0x1C] WAIT(45* ticks)
  2: 0x0017 [0x45] LOAD_SCHEDULED_TASK: Load scheduler "ctof" with entities [Regal Feline (ID: 17269257/0x01078209), LocalPlayer], work=[378*, 0*]
  3: 0x0028 [0x1C] WAIT(15* ticks)
  4: 0x002B [0x00] END_REQSTACK()
```

### Event 65535.2

#### Metadata

| Field        | Value    |
|--------------|----------|
| Entrypoint   | 0x002C   |
| Data Size    | 18 bytes |
| Instructions | 2        |

```
      00 01 02 03 04 05 06 07  08 09 0A 0B 0C 0D 0E 0F
      -- -- -- -- -- -- -- --  -- -- -- -- -- -- -- --
0020:                                      45 00 80 09              E...
0030: 82 07 01 F0 FF FF 7F 63  74 6F 6E 01 80 00        .......cton...  
```

#### Opcodes

```
  0: 0x002C [0x45] LOAD_SCHEDULED_TASK: Load scheduler "cton" with entities [Regal Feline (ID: 17269257/0x01078209), LocalPlayer], work=[378*, 0*]
  1: 0x003D [0x00] END_REQSTACK()
```

### Event 65535.3

#### Metadata

| Field        | Value    |
|--------------|----------|
| Entrypoint   | 0x003E   |
| Data Size    | 10 bytes |
| Instructions | 2        |

```
      00 01 02 03 04 05 06 07  08 09 0A 0B 0C 0D 0E 0F
      -- -- -- -- -- -- -- --  -- -- -- -- -- -- -- --
0030:                                            6C F0                l.
0040: FF FF 7F 01 80 04 80 00                           ........        
```

#### Opcodes

```
  0: 0x003E [0x6C] FADE_ENTITY_COLOR(entity_id=LocalPlayer, end_alpha=0*, fade_time=90*)
  1: 0x0047 [0x00] END_REQSTACK()
```
