# 17269252 - Utrig

## Common Data

| Field            | Value                          |
|------------------|--------------------------------|
| Zone             | Sauromugue Champaign (ID: 120) |
| Block Size       | 2372 bytes                     |
| Total Events     | 2                              |
| References Count | 126                            |

## List of Events

| Event ID              | Entrypoint   |   Size |   Instructions |
|-----------------------|--------------|--------|----------------|
| [65535](#event-65535) | 0x0000       |      1 |              1 |
| [5514](#event-5514)   | 0x0001       |   1842 |            270 |

## DAT References (imed_data)

|   Index | Hex Value   |   Dec Value |
|---------|-------------|-------------|
|       0 | 0x0000      |           0 |
|       1 | 0x30CA      |       12490 |
|       2 | 0x40000000  |  1073741824 |
|       3 | 0x30CB      |       12491 |
|       4 | 0x30CD      |       12493 |
|       5 | 0x0001      |           1 |
|       6 | 0x0002      |           2 |
|       7 | 0x30CF      |       12495 |
|       8 | 0x30D0      |       12496 |
|       9 | 0x0010      |          16 |
|      10 | 0x30D1      |       12497 |
|      11 | 0x0005      |           5 |
|      12 | 0x0004      |           4 |
|      13 | 0x0008      |           8 |
|      14 | 0x0003      |           3 |
|      15 | 0xFFFFFFFF  |  4294967295 |
|      16 | 0x000A      |          10 |
|      17 | 0x30CE      |       12494 |
|      18 | 0x001F      |          31 |
|      19 | 0x30D9      |       12505 |
|      20 | 0x000F      |          15 |
|      21 | 0x30D6      |       12502 |
|      22 | 0x30D8      |       12504 |
|      23 | 0x30D3      |       12499 |
|      24 | 0x30D4      |       12500 |
|      25 | 0x30D5      |       12501 |
|      26 | 0x1024      |        4132 |
|      27 | 0x0384      |         900 |
|      28 | 0x02BF      |         703 |
|      29 | 0x168A      |        5770 |
|      30 | 0x167D      |        5757 |
|      31 | 0x1486      |        5254 |
|      32 | 0x05AF      |        1455 |
|      33 | 0x103B      |        4155 |
|      34 | 0x1097      |        4247 |
|      35 | 0x02BC      |         700 |
|      36 | 0x02AE      |         686 |
|      37 | 0x1035      |        4149 |
|      38 | 0x05AC      |        1452 |
|      39 | 0x3BD8      |       15320 |
|      40 | 0x1030      |        4144 |
|      41 | 0x6FED      |       28653 |
|      42 | 0x221F      |        8735 |
|      43 | 0x034C      |         844 |
|      44 | 0x0345      |         837 |
|      45 | 0x0456      |        1110 |
|      46 | 0x0344      |         836 |
|      47 | 0x051F      |        1311 |
|      48 | 0x10B0      |        4272 |
|      49 | 0x173A      |        5946 |
|      50 | 0x0F83      |        3971 |
|      51 | 0x0DB5      |        3509 |
|      52 | 0x0013      |          19 |
|      53 | 0x0027      |          39 |
|      54 | 0x003B      |          59 |
|      55 | 0x004F      |          79 |
|      56 | 0x0063      |          99 |
|      57 | 0x0F32      |        3890 |
|      58 | 0x0F31      |        3889 |
|      59 | 0x0F30      |        3888 |
|      60 | 0x0F33      |        3891 |
|      61 | 0x0FE0      |        4064 |
|      62 | 0x0FE1      |        4065 |
|      63 | 0x0FE2      |        4066 |
|      64 | 0x0FE3      |        4067 |
|      65 | 0x09B8      |        2488 |
|      66 | 0x05A9      |        1449 |
|      67 | 0x0D0E      |        3342 |
|      68 | 0x0D0C      |        3340 |
|      69 | 0x0D10      |        3344 |
|      70 | 0x173B      |        5947 |
|      71 | 0x0018      |          24 |
|      72 | 0x0031      |          49 |
|      73 | 0x004A      |          74 |
|      74 | 0x2A5F      |       10847 |
|      75 | 0x1739      |        5945 |
|      76 | 0x4AEB      |       19179 |
|      77 | 0x28D0      |       10448 |
|      78 | 0x2A60      |       10848 |
|      79 | 0x0520      |        1312 |
|      80 | 0x0337      |         823 |
|      81 | 0x49C8      |       18888 |
|      82 | 0x2B02      |       11010 |
|      83 | 0x2A61      |       10849 |
|      84 | 0x0CF4      |        3316 |
|      85 | 0x05B0      |        1456 |
|      86 | 0x4885      |       18565 |
|      87 | 0x2830      |       10288 |
|      88 | 0x2A62      |       10850 |
|      89 | 0x0FE4      |        4068 |
|      90 | 0x03AE      |         942 |
|      91 | 0x13ED      |        5101 |
|      92 | 0x12F3      |        4851 |
|      93 | 0x0AF2      |        2802 |
|      94 | 0x2A63      |       10851 |
|      95 | 0x0E01      |        3585 |
|      96 | 0x2A64      |       10852 |
|      97 | 0x0DAA      |        3498 |
|      98 | 0x0E61      |        3681 |
|      99 | 0x0DAB      |        3499 |
|     100 | 0x0A0C      |        2572 |
|     101 | 0x0103      |         259 |
|     102 | 0x0129      |         297 |
|     103 | 0x012A      |         298 |
|     104 | 0x012B      |         299 |
|     105 | 0x00C2      |         194 |
|     106 | 0x00C3      |         195 |
|     107 | 0x00C5      |         197 |
|     108 | 0x00C7      |         199 |
|     109 | 0x0053      |          83 |
|     110 | 0x005B      |          91 |
|     111 | 0x005F      |          95 |
|     112 | 0x0061      |          97 |
|     113 | 0x284B      |       10315 |
|     114 | 0x4873      |       18547 |
|     115 | 0x05AA      |        1450 |
|     116 | 0x2966      |       10598 |
|     117 | 0x4B66      |       19302 |
|     118 | 0x0CF8      |        3320 |
|     119 | 0x05AD      |        1453 |
|     120 | 0x28CC      |       10444 |
|     121 | 0x43D3      |       17363 |
|     122 | 0x0022      |          34 |
|     123 | 0x0054      |          84 |
|     124 | 0x002C      |          44 |
|     125 | 0x0045      |          69 |

## String References

- **12490**: Mee head no bee on straight. Mus' bee these ol' rumblin's in mee tumblin'... Gotta ge' mee sum worms er such...
- **12491**: <Sniff> <sniff>... 'Ey, mee can smell 't a malm 'way. Ye got a wizened worm, oy!
- **12493**: Trade your worm for an item? [You bet!/Show me the items!/Never mind.]
- **12494**: Which will you exchange? [Forget it./$0 Tunnel Worm[/s] ($1 remaining)./$2 Morion Worm[/s] ($3 remaining)./$4 Phantom Worm[/s] ($5 remaining).]
- **12495**: uTunnel WormL$1$P15(vLp$7$P15i View which items? [Go back./Tunnel Worm items./Morion Worm items./Phantom Worm items.]
- **12496**: [#./$1./$2./$3./$4./$5./$6./$7./$8./$9./$10./$11./$12./$13./$14./$15./I've seen enough.]
- **12497**: #.
- **12499**: 'Ey! Yee gots too much stuff on yee. Mee can't give yee yer reword! Come back when yee gots moor space, oy!
- **12500**: <Sniff> <sniff>... Toohoo! Yee gots sum moor! Mee can smell 'em! How's 'bout it? Jus' one moor nibble?
- **12501**: Give him some more? [Sure. I'm not using them./Not with that attitude!]
- **12502**: Yee bee comin' again soon, yes? Mee bee waitin' fer yee to brin' sum moor worms, hear?
- **12504**: A twist in the aether prevents you from receiving your just reward.
- **12505**: You do not have enough [Wizened Tunnel Worms/Wizened Morion Worms/Wizened Phantom Worms]

## Events

### Event 65535

#### Metadata

| Field        | Value   |
|--------------|---------|
| Entrypoint   | 0x0000  |
| Data Size    | 1 bytes |
| Instructions | 1       |

```
      00 01 02 03 04 05 06 07  08 09 0A 0B 0C 0D 0E 0F
      -- -- -- -- -- -- -- --  -- -- -- -- -- -- -- --
0000: 00                                                .               
```

#### Opcodes

```
  0: 0x0000 [0x00] END_REQSTACK()
```

### Event 5514

#### Metadata

| Field        | Value      |
|--------------|------------|
| Entrypoint   | 0x0001     |
| Data Size    | 1842 bytes |
| Instructions | 269        |

```
      00 01 02 03 04 05 06 07  08 09 0A 0B 0C 0D 0E 0F
      -- -- -- -- -- -- -- --  -- -- -- -- -- -- -- --
0000:    1E F0 FF FF 7F 06 00  00 06 01 00 06 02 00 06   ...............
0010: 0C 00 06 0D 00 03 00 00  03 10 03 01 00 04 10 03  ................
0020: 02 00 05 10 03 0C 00 06  10 03 0D 00 07 10 1A 78  ...............x
0030: 04 02 05 00 00 80 00 44  00 1D 01 80 23 03 01 10  .......D....#...
0040: 02 80 21 00 1D 03 80 23  06 06 00 05 09 00 06 08  ..!....#........
0050: 00 06 0B 00 02 06 00 00  80 00 91 00 24 04 80 0B  ............$...
0060: 00 00 80 25 02 00 10 00  80 00 72 00 1A 19 03 01  ...%......r.....
0070: 8E 00 02 00 10 05 80 00  80 00 1A 93 00 01 8E 00  ................
0080: 02 00 10 06 80 00 8E 00  05 06 00 01 8E 00 01 54  ...............T
0090: 00 21 00 06 0E 00 06 0F  00 02 0E 00 00 80 00 CA  .!..............
00A0: 00 24 07 80 0F 00 00 80  25 02 00 10 00 80 00 B7  .$......%.......
00B0: 00 05 0E 00 01 B7 00 03  0F 00 00 10 02 0E 00 00  ................
00C0: 80 00 C7 00 1A CB 00 01  99 00 1B 06 10 00 06 11  ................
00D0: 00 02 10 00 00 80 00 1C  01 1A 1D 01 24 08 80 11  ............$...
00E0: 00 04 00 25 02 00 10 09  80 00 F2 00 05 10 00 01  ...%............
00F0: F2 00 03 11 00 00 10 02  10 00 00 80 00 19 01 06  ................
0100: 1B 00 9D 00 D3 04 1B 00  11 00 93 1B 00 03 02 10  ................
0110: 1B 00 48 0A 80 23 93 00  80 01 D1 00 1B 1A FF 02  ..H..#..........
0120: 06 16 00 06 17 00 06 18  00 06 19 00 06 1A 00 02  ................
0130: 0F 00 05 80 80 53 01 03  17 00 0B 80 03 18 00 0C  .....S..........
0140: 80 03 19 00 0B 80 03 1A  00 0B 80 03 14 00 00 80  ................
0150: 01 9B 01 02 0F 00 06 80  80 77 01 03 17 00 0B 80  .........w......
0160: 03 18 00 0C 80 03 19 00  0B 80 03 1A 00 0B 80 03  ................
0170: 14 00 0D 80 01 9B 01 02  0F 00 0E 80 80 9B 01 03  ................
0180: 17 00 0B 80 03 18 00 0C  80 03 19 00 0B 80 03 1A  ................
0190: 00 0B 80 03 14 00 09 80  01 9B 01 02 0D 00 05 80  ................
01A0: 00 A9 01 0C 19 00 0C 1A  00 06 13 00 06 15 00 03  ................
01B0: 15 00 17 00 02 13 00 15  00 03 FD 01 03 12 00 14  ................
01C0: 00 07 12 00 13 00 02 0C  00 00 80 80 D9 01 9D 00  ................
01D0: F3 04 1B 00 12 00 01 EC  01 02 0C 00 05 80 80 EC  ................
01E0: 01 9D 00 23 05 1B 00 12  00 01 EC 01 9D 05 D3 04  ...#............
01F0: 1B 00 16 00 0B 16 00 0B  13 00 01 B4 01 06 13 00  ................
0200: 06 15 00 03 15 00 18 00  02 13 00 15 00 03 51 02  ..............Q.
0210: 03 12 00 14 00 07 12 00  13 00 02 0C 00 00 80 80  ................
0220: 2D 02 9D 00 83 05 1B 00  12 00 01 40 02 02 0C 00  -..........@....
0230: 05 80 80 40 02 9D 00 B3  05 1B 00 12 00 01 40 02  ...@..........@.
0240: 9D 05 D3 04 1B 00 16 00  0B 16 00 0B 13 00 01 08  ................
0250: 02 06 13 00 06 15 00 02  0C 00 00 80 80 67 02 03  .............g..
0260: 15 00 19 00 01 77 02 02  0C 00 05 80 80 77 02 03  .....w.......w..
0270: 15 00 19 00 01 77 02 02  13 00 15 00 03 C0 02 03  .....w..........
0280: 12 00 14 00 07 12 00 13  00 02 0C 00 00 80 80 9C  ................
0290: 02 9D 00 13 06 1B 00 12  00 01 AF 02 02 0C 00 05  ................
02A0: 80 80 AF 02 9D 00 43 06  1B 00 12 00 01 AF 02 9D  ......C.........
02B0: 05 D3 04 1B 00 16 00 0B  16 00 0B 13 00 01 77 02  ..............w.
02C0: 03 04 00 0F 80 3D 04 00  09 80 05 80 06 13 00 02  .....=..........
02D0: 13 00 09 80 03 FE 02 9D  00 D3 04 1B 00 13 00 02  ................
02E0: 1B 00 00 80 00 F1 02 3C  04 00 13 00 05 80 01 F8  .......<........
02F0: 02 3D 04 00 13 00 05 80  0B 13 00 01 CF 02 1B 06  .=..............
0300: 13 00 02 13 00 09 80 03  18 03 9D 05 D3 04 00 80  ................
0310: 13 00 0B 13 00 01 02 03  1B 06 1C 00 06 08 00 02  ................
0320: 1C 00 00 80 00 77 04 1A  78 04 06 01 10 03 02 10  .....w..x.......
0330: 10 80 03 04 10 0B 80 03  06 10 05 80 03 03 10 00  ................
0340: 00 03 05 10 01 00 03 07  10 02 00 24 11 80 08 00  ...........$....
0350: 00 80 25 02 00 10 00 80  00 61 03 05 1C 00 01 9D  ..%......a......
0360: 03 02 00 10 05 80 00 75  03 40 09 80 12 80 01 10  .......u.@......
0370: 05 80 01 9D 03 02 00 10  06 80 00 89 03 40 09 80  .............@..
0380: 12 80 01 10 06 80 01 9D  03 02 00 10 0E 80 00 9D  ................
0390: 03 40 09 80 12 80 01 10  0E 80 01 9D 03 02 1C 00  .@..............
03A0: 00 80 00 74 04 03 08 00  00 10 3E 03 00 08 00 C0  ...t......>.....
03B0: 03 03 02 10 08 00 0C 02  10 48 13 80 23 01 74 04  .........H..#.t.
03C0: 40 00 80 14 80 01 10 05  80 43 00 43 01 03 00 00  @........C.C....
03D0: 03 10 03 01 00 04 10 03  02 00 05 10 03 0A 00 09  ................
03E0: 10 02 0A 00 05 80 80 06  04 1A 78 04 02 05 00 00  ..........x.....
03F0: 80 00 03 04 1D 15 80 23  05 06 00 05 1C 00 03 01  .......#........
0400: 10 06 80 01 3A 04 02 0A  00 06 80 80 20 04 48 16  ....:....... .H.
0410: 80 23 05 06 00 05 1C 00  03 01 10 02 80 01 3A 04  .#............:.
0420: 02 0A 00 0E 80 80 3A 04  1D 17 80 23 05 06 00 05  ......:....#....
0430: 1C 00 03 01 10 02 80 01  3A 04 02 1C 00 00 80 00  ........:.......
0440: 74 04 1D 18 80 23 24 19  80 09 00 00 80 25 02 00  t....#$......%..
0450: 10 00 80 00 59 04 01 6F  04 02 00 10 05 80 00 6F  ....Y..o.......o
0460: 04 05 06 00 05 1C 00 03  01 10 06 80 01 6F 04 03  .............o..
0470: 09 00 00 10 01 1F 03 1B  06 05 00 06 03 00 02 00  ................
0480: 00 10 80 04 93 04 05 05  00 3D 03 00 05 80 05 80  .........=......
0490: 01 9A 04 3C 03 00 05 80  05 80 02 01 00 0B 80 04  ...<............
04A0: AF 04 05 05 00 3D 03 00  06 80 05 80 01 B6 04 3C  .....=.........<
04B0: 03 00 06 80 05 80 02 02  00 05 80 04 CB 04 05 05  ................
04C0: 00 3D 03 00 0E 80 05 80  01 D2 04 3C 03 00 0E 80  .=.........<....
04D0: 05 80 1B 02 10 03 10 04  10 05 10 06 10 07 10 08  ................
04E0: 10 09 10 00 17 01 17 02  17 03 17 04 17 05 17 06  ................
04F0: 17 07 17 1A 80 1B 80 1C  80 1D 80 1E 80 00 80 00  ................
0500: 80 00 80 1F 80 20 80 21  80 22 80 23 80 00 80 00  ..... .!.".#....
0510: 80 00 80 24 80 25 80 26  80 27 80 28 80 00 80 00  ...$.%.&.'.(....
0520: 80 00 80 29 80 2A 80 22  80 1D 80 1E 80 00 80 00  ...).*."........
0530: 80 00 80 2B 80 2C 80 2D  80 2E 80 2F 80 00 80 00  ...+.,.-.../....
0540: 80 00 80 24 80 30 80 31  80 32 80 33 80 00 80 00  ...$.0.1.2.3....
0550: 80 00 80 34 80 35 80 36  80 37 80 38 80 00 80 00  ...4.5.6.7.8....
0560: 80 00 80 34 80 35 80 36  80 37 80 38 80 00 80 00  ...4.5.6.7.8....
0570: 80 00 80 34 80 35 80 36  80 37 80 38 80 00 80 00  ...4.5.6.7.8....
0580: 80 00 80 39 80 3A 80 3B  80 3C 80 00 80 00 80 00  ...9.:.;.<......
0590: 80 00 80 39 80 3A 80 3B  80 3C 80 00 80 00 80 00  ...9.:.;.<......
05A0: 80 00 80 39 80 3A 80 3B  80 3C 80 00 80 00 80 00  ...9.:.;.<......
05B0: 80 00 80 3D 80 3E 80 3F  80 40 80 00 80 00 80 00  ...=.>.?.@......
05C0: 80 00 80 41 80 20 80 26  80 42 80 00 80 00 80 00  ...A. .&.B......
05D0: 80 00 80 43 80 44 80 45  80 46 80 00 80 00 80 00  ...C.D.E.F......
05E0: 80 00 80 47 80 48 80 49  80 38 80 00 80 00 80 00  ...G.H.I.8......
05F0: 80 00 80 47 80 48 80 49  80 38 80 00 80 00 80 00  ...G.H.I.8......
0600: 80 00 80 47 80 48 80 49  80 38 80 00 80 00 80 00  ...G.H.I.8......
0610: 80 00 80 4A 80 4B 80 42  80 4C 80 4D 80 00 80 00  ...J.K.B.L.M....
0620: 80 00 80 4E 80 4F 80 50  80 51 80 52 80 00 80 00  ...N.O.P.Q.R....
0630: 80 00 80 53 80 54 80 55  80 56 80 57 80 00 80 00  ...S.T.U.V.W....
0640: 80 00 80 58 80 59 80 5A  80 5B 80 5C 80 00 80 00  ...X.Y.Z.[.\....
0650: 80 00 80 5D 80 5E 80 5F  80 5B 80 5C 80 00 80 00  ...].^._.[.\....
0660: 80 00 80 60 80 61 80 62  80 63 80 64 80 00 80 00  ...`.a.b.c.d....
0670: 80 00 80 36 80 65 80 66  80 67 80 68 80 00 80 00  ...6.e.f.g.h....
0680: 80 00 80 38 80 69 80 6A  80 6B 80 6C 80 00 80 00  ...8.i.j.k.l....
0690: 80 00 80 6D 80 6E 80 6F  80 70 80 38 80 00 80 00  ...m.n.o.p.8....
06A0: 80 00 80 58 80 4B 80 5A  80 71 80 72 80 00 80 00  ...X.K.Z.q.r....
06B0: 80 00 80 5E 80 30 80 73  80 74 80 75 80 00 80 00  ...^.0.s.t.u....
06C0: 80 00 80 60 80 76 80 77  80 78 80 79 80 00 80 00  ...`.v.w.x.y....
06D0: 80 00 80 36 80 65 80 66  80 67 80 68 80 00 80 00  ...6.e.f.g.h....
06E0: 80 00 80 38 80 69 80 6A  80 6B 80 6C 80 00 80 00  ...8.i.j.k.l....
06F0: 80 00 80 6D 80 6E 80 6F  80 70 80 38 80 00 80 00  ...m.n.o.p.8....
0700: 80 00 80 7A 80 7B 80 38  80 00 80 00 80 00 80 00  ...z.{.8........
0710: 80 00 80 35 80 37 80 38  80 00 80 00 80 00 80 00  ...5.7.8........
0720: 80 00 80 7C 80 7D 80 38  80 00 80 00 80 00 80 00  ...|.}.8........
0730: 80 00 80                                          ...             
```

#### Opcodes

```
  0: 0x0001 [0x1E] EventEntity looks at LocalPlayer and starts talking
  1: 0x0006 [0x06] ExtData[1]->WorkLocal[0] = 0
  2: 0x0009 [0x06] ExtData[1]->WorkLocal[1] = 0
  3: 0x000C [0x06] ExtData[1]->WorkLocal[2] = 0
  4: 0x000F [0x06] ExtData[1]->WorkLocal[12] = 0
  5: 0x0012 [0x06] ExtData[1]->WorkLocal[13] = 0
  6: 0x0015 [0x03] ExtData[1]->WorkLocal[0] = Work_Zone[3]
  7: 0x001A [0x03] ExtData[1]->WorkLocal[1] = Work_Zone[4]
  8: 0x001F [0x03] ExtData[1]->WorkLocal[2] = Work_Zone[5]
  9: 0x0024 [0x03] ExtData[1]->WorkLocal[12] = Work_Zone[6]
 10: 0x0029 [0x03] ExtData[1]->WorkLocal[13] = Work_Zone[7]
 11: 0x002E [0x1A] CALL_SUBROUTINE(address=0x0478)
 12: 0x0031 [0x02] IF !(ExtData[1]->WorkLocal[5] == 0*) GOTO 0x0044
 13: 0x0039 [0x1D] PRINT_EVENT_MESSAGE(message_id=12490*)
    → "Mee head no bee on straight. Mus' bee these ol' rumblin's in mee tumblin'... Gotta ge' mee sum worms er such..."
 14: 0x003C [0x23] WAIT_FOR_DIALOG_INTERACTION
 15: 0x003D [0x03] Work_Zone[1] = 1073741824*
 16: 0x0042 [0x21] END_EVENT
 17: 0x0043 [0x00] END_REQSTACK()
 18: 0x0044 [0x1D] PRINT_EVENT_MESSAGE(message_id=12491*)
    → "<Sniff> <sniff>... 'Ey, mee can smell 't a malm 'way. Ye got a wizened worm, oy!"
 19: 0x0047 [0x23] WAIT_FOR_DIALOG_INTERACTION
 20: 0x0048 [0x06] ExtData[1]->WorkLocal[6] = 0
 21: 0x004B [0x05] ExtData[1]->WorkLocal[9] = 1
 22: 0x004E [0x06] ExtData[1]->WorkLocal[8] = 0
 23: 0x0051 [0x06] ExtData[1]->WorkLocal[11] = 0

SUBROUTINE_0054:
 24: 0x0054 [0x02] IF !(ExtData[1]->WorkLocal[6] == 0*) GOTO 0x0091
 25: 0x005C [0x24] CREATE_DIALOG(message_id=12493*, default_option=ExtData[1]->WorkLocal[11], option_flags=0*)
    → "Trade your worm for an item? [You bet!/Show me the items!/Never mind.]"
 26: 0x0063 [0x25] WAIT_DIALOG_SELECT()
 27: 0x0064 [0x02] IF !(Work_Zone[0] == 0*) GOTO 0x0072
 28: 0x006C [0x1A] CALL_SUBROUTINE(address=0x0319)
 29: 0x006F [0x01] GOTO 0x008E
 30: 0x0072 [0x02] IF !(Work_Zone[0] == 1*) GOTO 0x0080
 31: 0x007A [0x1A] CALL_SUBROUTINE(address=0x0093)
 32: 0x007D [0x01] GOTO 0x008E
 33: 0x0080 [0x02] IF !(Work_Zone[0] == 2*) GOTO 0x008E
 34: 0x0088 [0x05] ExtData[1]->WorkLocal[6] = 1
 35: 0x008B [0x01] GOTO 0x008E

SUBROUTINE_008E:
 36: 0x008E [0x01] GOTO 0x0054
 37: 0x0091 [0x21] END_EVENT
 38: 0x0092 [0x00] END_REQSTACK()

SUBROUTINE_0093:
 39: 0x0093 [0x06] ExtData[1]->WorkLocal[14] = 0
 40: 0x0096 [0x06] ExtData[1]->WorkLocal[15] = 0

SUBROUTINE_0099:
 41: 0x0099 [0x02] IF !(ExtData[1]->WorkLocal[14] == 0*) GOTO 0x00CA
 42: 0x00A1 [0x24] CREATE_DIALOG(message_id=12495*, default_option=ExtData[1]->WorkLocal[15], option_flags=0*)
    → "uTunnel WormL$1$P15(vLp$7$P15i View which items? [Go back./Tunnel Worm items./Morion Worm items./Phantom Worm items.]"
 43: 0x00A8 [0x25] WAIT_DIALOG_SELECT()
 44: 0x00A9 [0x02] IF !(Work_Zone[0] == 0*) GOTO 0x00B7
 45: 0x00B1 [0x05] ExtData[1]->WorkLocal[14] = 1
 46: 0x00B4 [0x01] GOTO 0x00B7

SUBROUTINE_00B7:
 47: 0x00B7 [0x03] ExtData[1]->WorkLocal[15] = Work_Zone[0]
 48: 0x00BC [0x02] IF !(ExtData[1]->WorkLocal[14] == 0*) GOTO 0x00C7
 49: 0x00C4 [0x1A] CALL_SUBROUTINE(address=0x00CB)
 50: 0x00C7 [0x01] GOTO 0x0099
 51: 0x00CA [0x1B] RETURN

SUBROUTINE_00CB:
 52: 0x00CB [0x06] ExtData[1]->WorkLocal[16] = 0
 53: 0x00CE [0x06] ExtData[1]->WorkLocal[17] = 0

SUBROUTINE_00D1:
 54: 0x00D1 [0x02] IF !(ExtData[1]->WorkLocal[16] == 0*) GOTO 0x011C
 55: 0x00D9 [0x1A] CALL_SUBROUTINE(address=0x011D)
 56: 0x00DC [0x24] CREATE_DIALOG(message_id=12496*, default_option=ExtData[1]->WorkLocal[17], option_flags=ExtData[1]->WorkLocal[4])
    → "[#./$1./$2./$3./$4./$5./$6./$7./$8./$9./$10./$11./$12./$13./$14./$15./I've seen enough.]"
 57: 0x00E3 [0x25] WAIT_DIALOG_SELECT()
 58: 0x00E4 [0x02] IF !(Work_Zone[0] == 16*) GOTO 0x00F2
 59: 0x00EC [0x05] ExtData[1]->WorkLocal[16] = 1
 60: 0x00EF [0x01] GOTO 0x00F2

SUBROUTINE_00F2:
 61: 0x00F2 [0x03] ExtData[1]->WorkLocal[17] = Work_Zone[0]
 62: 0x00F7 [0x02] IF !(ExtData[1]->WorkLocal[16] == 0*) GOTO 0x0119
 63: 0x00FF [0x06] ExtData[1]->WorkLocal[27] = 0
 64: 0x0102 [0x9D] ExtData[1]->WorkLocal[27] = 0x04D3[ExtData[1]->WorkLocal[17]] // Read WORD
 65: 0x010A [0x93] DISPLAY_ITEM_INFO(item_id=ExtData[1]->WorkLocal[27])
 66: 0x010D [0x03] Work_Zone[2] = ExtData[1]->WorkLocal[27]
 67: 0x0112 [0x48] [System] [12497*]:
    → "#."
 68: 0x0115 [0x23] WAIT_FOR_DIALOG_INTERACTION
 69: 0x0116 [0x93] DISPLAY_ITEM_INFO(item_id=0*)
 70: 0x0119 [0x01] GOTO 0x00D1
 71: 0x011C [0x1B] RETURN

SUBROUTINE_011D:
 72: 0x011D [0x1A] CALL_SUBROUTINE(address=0x02FF)
 73: 0x0120 [0x06] ExtData[1]->WorkLocal[22] = 0
 74: 0x0123 [0x06] ExtData[1]->WorkLocal[23] = 0
 75: 0x0126 [0x06] ExtData[1]->WorkLocal[24] = 0
 76: 0x0129 [0x06] ExtData[1]->WorkLocal[25] = 0
 77: 0x012C [0x06] ExtData[1]->WorkLocal[26] = 0
 78: 0x012F [0x02] IF !(ExtData[1]->WorkLocal[15] == 1*) GOTO 0x0153
 79: 0x0137 [0x03] ExtData[1]->WorkLocal[23] = 5*
 80: 0x013C [0x03] ExtData[1]->WorkLocal[24] = 4*
 81: 0x0141 [0x03] ExtData[1]->WorkLocal[25] = 5*
 82: 0x0146 [0x03] ExtData[1]->WorkLocal[26] = 5*
 83: 0x014B [0x03] ExtData[1]->WorkLocal[20] = 0*
 84: 0x0150 [0x01] GOTO 0x019B
 85: 0x0153 [0x02] IF !(ExtData[1]->WorkLocal[15] == 2*) GOTO 0x0177
 86: 0x015B [0x03] ExtData[1]->WorkLocal[23] = 5*
 87: 0x0160 [0x03] ExtData[1]->WorkLocal[24] = 4*
 88: 0x0165 [0x03] ExtData[1]->WorkLocal[25] = 5*
 89: 0x016A [0x03] ExtData[1]->WorkLocal[26] = 5*
 90: 0x016F [0x03] ExtData[1]->WorkLocal[20] = 8*
 91: 0x0174 [0x01] GOTO 0x019B
 92: 0x0177 [0x02] IF !(ExtData[1]->WorkLocal[15] == 3*) GOTO 0x019B
 93: 0x017F [0x03] ExtData[1]->WorkLocal[23] = 5*
 94: 0x0184 [0x03] ExtData[1]->WorkLocal[24] = 4*
 95: 0x0189 [0x03] ExtData[1]->WorkLocal[25] = 5*
 96: 0x018E [0x03] ExtData[1]->WorkLocal[26] = 5*
 97: 0x0193 [0x03] ExtData[1]->WorkLocal[20] = 16*
 98: 0x0198 [0x01] GOTO 0x019B

SUBROUTINE_019B:
 99: 0x019B [0x02] IF !(ExtData[1]->WorkLocal[13] == 1*) GOTO 0x01A9
100: 0x01A3 [0x0C] ExtData[1]->WorkLocal[25]--
101: 0x01A6 [0x0C] ExtData[1]->WorkLocal[26]--
102: 0x01A9 [0x06] ExtData[1]->WorkLocal[19] = 0
103: 0x01AC [0x06] ExtData[1]->WorkLocal[21] = 0
104: 0x01AF [0x03] ExtData[1]->WorkLocal[21] = ExtData[1]->WorkLocal[23]

SUBROUTINE_01B4:
105: 0x01B4 [0x02] IF !(ExtData[1]->WorkLocal[19] >= ExtData[1]->WorkLocal[21]) GOTO 0x01FD
106: 0x01BC [0x03] ExtData[1]->WorkLocal[18] = ExtData[1]->WorkLocal[20]
107: 0x01C1 [0x07] ExtData[1]->WorkLocal[18] += ExtData[1]->WorkLocal[19]
108: 0x01C6 [0x02] IF !(ExtData[1]->WorkLocal[12] == 0*) GOTO 0x01D9
109: 0x01CE [0x9D] ExtData[1]->WorkLocal[27] = 0x04F3[ExtData[1]->WorkLocal[18]] // Read WORD
110: 0x01D6 [0x01] GOTO 0x01EC
111: 0x01D9 [0x02] IF !(ExtData[1]->WorkLocal[12] == 1*) GOTO 0x01EC
112: 0x01E1 [0x9D] ExtData[1]->WorkLocal[27] = 0x0523[ExtData[1]->WorkLocal[18]] // Read WORD
113: 0x01E9 [0x01] GOTO 0x01EC

SUBROUTINE_01EC:
114: 0x01EC [0x9D] 0x04D3[ExtData[1]->WorkLocal[22] * 2] = ExtData[1]->WorkLocal[27] // Write WORD
115: 0x01F4 [0x0B] ExtData[1]->WorkLocal[22]++
116: 0x01F7 [0x0B] ExtData[1]->WorkLocal[19]++
117: 0x01FA [0x01] GOTO 0x01B4
118: 0x01FD [0x06] ExtData[1]->WorkLocal[19] = 0
119: 0x0200 [0x06] ExtData[1]->WorkLocal[21] = 0
120: 0x0203 [0x03] ExtData[1]->WorkLocal[21] = ExtData[1]->WorkLocal[24]

SUBROUTINE_0208:
121: 0x0208 [0x02] IF !(ExtData[1]->WorkLocal[19] >= ExtData[1]->WorkLocal[21]) GOTO 0x0251
122: 0x0210 [0x03] ExtData[1]->WorkLocal[18] = ExtData[1]->WorkLocal[20]
123: 0x0215 [0x07] ExtData[1]->WorkLocal[18] += ExtData[1]->WorkLocal[19]
124: 0x021A [0x02] IF !(ExtData[1]->WorkLocal[12] == 0*) GOTO 0x022D
125: 0x0222 [0x9D] ExtData[1]->WorkLocal[27] = 0x0583[ExtData[1]->WorkLocal[18]] // Read WORD
126: 0x022A [0x01] GOTO 0x0240
127: 0x022D [0x02] IF !(ExtData[1]->WorkLocal[12] == 1*) GOTO 0x0240
128: 0x0235 [0x9D] ExtData[1]->WorkLocal[27] = 0x05B3[ExtData[1]->WorkLocal[18]] // Read WORD
129: 0x023D [0x01] GOTO 0x0240

SUBROUTINE_0240:
130: 0x0240 [0x9D] 0x04D3[ExtData[1]->WorkLocal[22] * 2] = ExtData[1]->WorkLocal[27] // Write WORD
131: 0x0248 [0x0B] ExtData[1]->WorkLocal[22]++
132: 0x024B [0x0B] ExtData[1]->WorkLocal[19]++
133: 0x024E [0x01] GOTO 0x0208
134: 0x0251 [0x06] ExtData[1]->WorkLocal[19] = 0
135: 0x0254 [0x06] ExtData[1]->WorkLocal[21] = 0
136: 0x0257 [0x02] IF !(ExtData[1]->WorkLocal[12] == 0*) GOTO 0x0267
137: 0x025F [0x03] ExtData[1]->WorkLocal[21] = ExtData[1]->WorkLocal[25]
138: 0x0264 [0x01] GOTO 0x0277
139: 0x0267 [0x02] IF !(ExtData[1]->WorkLocal[12] == 1*) GOTO 0x0277
140: 0x026F [0x03] ExtData[1]->WorkLocal[21] = ExtData[1]->WorkLocal[25]
141: 0x0274 [0x01] GOTO 0x0277

SUBROUTINE_0277:
142: 0x0277 [0x02] IF !(ExtData[1]->WorkLocal[19] >= ExtData[1]->WorkLocal[21]) GOTO 0x02C0
143: 0x027F [0x03] ExtData[1]->WorkLocal[18] = ExtData[1]->WorkLocal[20]
144: 0x0284 [0x07] ExtData[1]->WorkLocal[18] += ExtData[1]->WorkLocal[19]
145: 0x0289 [0x02] IF !(ExtData[1]->WorkLocal[12] == 0*) GOTO 0x029C
146: 0x0291 [0x9D] ExtData[1]->WorkLocal[27] = 0x0613[ExtData[1]->WorkLocal[18]] // Read WORD
147: 0x0299 [0x01] GOTO 0x02AF
148: 0x029C [0x02] IF !(ExtData[1]->WorkLocal[12] == 1*) GOTO 0x02AF
149: 0x02A4 [0x9D] ExtData[1]->WorkLocal[27] = 0x0643[ExtData[1]->WorkLocal[18]] // Read WORD
150: 0x02AC [0x01] GOTO 0x02AF

SUBROUTINE_02AF:
151: 0x02AF [0x9D] 0x04D3[ExtData[1]->WorkLocal[22] * 2] = ExtData[1]->WorkLocal[27] // Write WORD
152: 0x02B7 [0x0B] ExtData[1]->WorkLocal[22]++
153: 0x02BA [0x0B] ExtData[1]->WorkLocal[19]++
154: 0x02BD [0x01] GOTO 0x0277
155: 0x02C0 [0x03] ExtData[1]->WorkLocal[4] = 4294967295*
156: 0x02C5 [0x3D] CLEAR_BIT_FLAG_CONDITIONAL(target_work_offset=ExtData[1]->WorkLocal[4], bit_index_work_offset=16*, condition_work_offset=1*)
157: 0x02CC [0x06] ExtData[1]->WorkLocal[19] = 0

SUBROUTINE_02CF:
158: 0x02CF [0x02] IF !(ExtData[1]->WorkLocal[19] >= 16*) GOTO 0x02FE
159: 0x02D7 [0x9D] ExtData[1]->WorkLocal[27] = 0x04D3[ExtData[1]->WorkLocal[19]] // Read WORD
160: 0x02DF [0x02] IF !(ExtData[1]->WorkLocal[27] == 0*) GOTO 0x02F1
161: 0x02E7 [0x3C] SET_BIT_FLAG_CONDITIONAL(target_work_offset=ExtData[1]->WorkLocal[4], bit_index_work_offset=ExtData[1]->WorkLocal[19], condition_work_offset=1*)
162: 0x02EE [0x01] GOTO 0x02F8
163: 0x02F1 [0x3D] CLEAR_BIT_FLAG_CONDITIONAL(target_work_offset=ExtData[1]->WorkLocal[4], bit_index_work_offset=ExtData[1]->WorkLocal[19], condition_work_offset=1*)

SUBROUTINE_02F8:
164: 0x02F8 [0x0B] ExtData[1]->WorkLocal[19]++
165: 0x02FB [0x01] GOTO 0x02CF
166: 0x02FE [0x1B] RETURN

SUBROUTINE_02FF:
167: 0x02FF [0x06] ExtData[1]->WorkLocal[19] = 0

SUBROUTINE_0302:
168: 0x0302 [0x02] IF !(ExtData[1]->WorkLocal[19] >= 16*) GOTO 0x0318
169: 0x030A [0x9D] 0x04D3[ExtData[1]->WorkLocal[19] * 2] = 0* // Write WORD
170: 0x0312 [0x0B] ExtData[1]->WorkLocal[19]++
171: 0x0315 [0x01] GOTO 0x0302
172: 0x0318 [0x1B] RETURN

SUBROUTINE_0319:
173: 0x0319 [0x06] ExtData[1]->WorkLocal[28] = 0
174: 0x031C [0x06] ExtData[1]->WorkLocal[8] = 0

SUBROUTINE_031F:
175: 0x031F [0x02] IF !(ExtData[1]->WorkLocal[28] == 0*) GOTO 0x0477
176: 0x0327 [0x1A] CALL_SUBROUTINE(address=0x0478)
177: 0x032A [0x06] Work_Zone[1] = 0
178: 0x032D [0x03] Work_Zone[2] = 10*
179: 0x0332 [0x03] Work_Zone[4] = 5*
180: 0x0337 [0x03] Work_Zone[6] = 1*
181: 0x033C [0x03] Work_Zone[3] = ExtData[1]->WorkLocal[0]
182: 0x0341 [0x03] Work_Zone[5] = ExtData[1]->WorkLocal[1]
183: 0x0346 [0x03] Work_Zone[7] = ExtData[1]->WorkLocal[2]
184: 0x034B [0x24] CREATE_DIALOG(message_id=12494*, default_option=ExtData[1]->WorkLocal[8], option_flags=0*)
    → "Which will you exchange? [Forget it./$0 Tunnel Worm[/s] ($1 remaining)./$2 Morion Worm[/s] ($3 remaining)./$4 Phantom Worm[/s] ($5 remaining).]"
185: 0x0352 [0x25] WAIT_DIALOG_SELECT()
186: 0x0353 [0x02] IF !(Work_Zone[0] == 0*) GOTO 0x0361
187: 0x035B [0x05] ExtData[1]->WorkLocal[28] = 1
188: 0x035E [0x01] GOTO 0x039D
189: 0x0361 [0x02] IF !(Work_Zone[0] == 1*) GOTO 0x0375
190: 0x0369 [0x40] SET_BIT_WORK_RANGE(start_bit=16*, end_bit=31*, target=Work_Zone[1], source=1*)
191: 0x0372 [0x01] GOTO 0x039D
192: 0x0375 [0x02] IF !(Work_Zone[0] == 2*) GOTO 0x0389
193: 0x037D [0x40] SET_BIT_WORK_RANGE(start_bit=16*, end_bit=31*, target=Work_Zone[1], source=2*)
194: 0x0386 [0x01] GOTO 0x039D
195: 0x0389 [0x02] IF !(Work_Zone[0] == 3*) GOTO 0x039D
196: 0x0391 [0x40] SET_BIT_WORK_RANGE(start_bit=16*, end_bit=31*, target=Work_Zone[1], source=3*)
197: 0x039A [0x01] GOTO 0x039D

SUBROUTINE_039D:
198: 0x039D [0x02] IF !(ExtData[1]->WorkLocal[28] == 0*) GOTO 0x0474
199: 0x03A5 [0x03] ExtData[1]->WorkLocal[8] = Work_Zone[0]
200: 0x03AA [0x3E] IF !(ExtData[1]->WorkLocal[3] bit ExtData[1]->WorkLocal[8]) GOTO 0x03C0
201: 0x03B1 [0x03] Work_Zone[2] = ExtData[1]->WorkLocal[8]
202: 0x03B6 [0x0C] Work_Zone[2]--
203: 0x03B9 [0x48] [System] [12505*]:
    → "You do not have enough [Wizened Tunnel Worms/Wizened Morion Worms/Wizened Phantom Worms]"
204: 0x03BC [0x23] WAIT_FOR_DIALOG_INTERACTION
205: 0x03BD [0x01] GOTO 0x0474
206: 0x03C0 [0x40] SET_BIT_WORK_RANGE(start_bit=0*, end_bit=15*, target=Work_Zone[1], source=1*)
207: 0x03C9 [0x43] SEND_EVENT_UPDATE: Send pending tag to server (packet 0x005B)
208: 0x03CB [0x43] SEND_EVENT_UPDATE: Check pending flag (skip if not pending)
209: 0x03CD [0x03] ExtData[1]->WorkLocal[0] = Work_Zone[3]
210: 0x03D2 [0x03] ExtData[1]->WorkLocal[1] = Work_Zone[4]
211: 0x03D7 [0x03] ExtData[1]->WorkLocal[2] = Work_Zone[5]
212: 0x03DC [0x03] ExtData[1]->WorkLocal[10] = Work_Zone[9]
213: 0x03E1 [0x02] IF !(ExtData[1]->WorkLocal[10] == 1*) GOTO 0x0406
214: 0x03E9 [0x1A] CALL_SUBROUTINE(address=0x0478)
215: 0x03EC [0x02] IF !(ExtData[1]->WorkLocal[5] == 0*) GOTO 0x0403
216: 0x03F4 [0x1D] PRINT_EVENT_MESSAGE(message_id=12502*)
    → "Yee bee comin' again soon, yes? Mee bee waitin' fer yee to brin' sum moor worms, hear?"
217: 0x03F7 [0x23] WAIT_FOR_DIALOG_INTERACTION
218: 0x03F8 [0x05] ExtData[1]->WorkLocal[6] = 1
219: 0x03FB [0x05] ExtData[1]->WorkLocal[28] = 1
220: 0x03FE [0x03] Work_Zone[1] = 2*
221: 0x0403 [0x01] GOTO 0x043A
222: 0x0406 [0x02] IF !(ExtData[1]->WorkLocal[10] == 2*) GOTO 0x0420
223: 0x040E [0x48] [System] [12504*]:
    → "A twist in the aether prevents you from receiving your just reward."
224: 0x0411 [0x23] WAIT_FOR_DIALOG_INTERACTION
225: 0x0412 [0x05] ExtData[1]->WorkLocal[6] = 1
226: 0x0415 [0x05] ExtData[1]->WorkLocal[28] = 1
227: 0x0418 [0x03] Work_Zone[1] = 1073741824*
228: 0x041D [0x01] GOTO 0x043A
229: 0x0420 [0x02] IF !(ExtData[1]->WorkLocal[10] == 3*) GOTO 0x043A
230: 0x0428 [0x1D] PRINT_EVENT_MESSAGE(message_id=12499*)
    → "'Ey! Yee gots too much stuff on yee. Mee can't give yee yer reword! Come back when yee gots moor space, oy!"
231: 0x042B [0x23] WAIT_FOR_DIALOG_INTERACTION
232: 0x042C [0x05] ExtData[1]->WorkLocal[6] = 1
233: 0x042F [0x05] ExtData[1]->WorkLocal[28] = 1
234: 0x0432 [0x03] Work_Zone[1] = 1073741824*
235: 0x0437 [0x01] GOTO 0x043A

SUBROUTINE_043A:
236: 0x043A [0x02] IF !(ExtData[1]->WorkLocal[28] == 0*) GOTO 0x0474
237: 0x0442 [0x1D] PRINT_EVENT_MESSAGE(message_id=12500*)
    → "<Sniff> <sniff>... Toohoo! Yee gots sum moor! Mee can smell 'em! How's 'bout it? Jus' one moor nibble?"
238: 0x0445 [0x23] WAIT_FOR_DIALOG_INTERACTION
239: 0x0446 [0x24] CREATE_DIALOG(message_id=12501*, default_option=ExtData[1]->WorkLocal[9], option_flags=0*)
    → "Give him some more? [Sure. I'm not using them./Not with that attitude!]"
240: 0x044D [0x25] WAIT_DIALOG_SELECT()
241: 0x044E [0x02] IF !(Work_Zone[0] == 0*) GOTO 0x0459
242: 0x0456 [0x01] GOTO 0x046F
243: 0x0459 [0x02] IF !(Work_Zone[0] == 1*) GOTO 0x046F
244: 0x0461 [0x05] ExtData[1]->WorkLocal[6] = 1
245: 0x0464 [0x05] ExtData[1]->WorkLocal[28] = 1
246: 0x0467 [0x03] Work_Zone[1] = 2*
247: 0x046C [0x01] GOTO 0x046F

SUBROUTINE_046F:
248: 0x046F [0x03] ExtData[1]->WorkLocal[9] = Work_Zone[0]

SUBROUTINE_0474:
249: 0x0474 [0x01] GOTO 0x031F
250: 0x0477 [0x1B] RETURN

SUBROUTINE_0478:
251: 0x0478 [0x06] ExtData[1]->WorkLocal[5] = 0
252: 0x047B [0x06] ExtData[1]->WorkLocal[3] = 0
253: 0x047E [0x02] IF !(ExtData[1]->WorkLocal[0] < 10*) GOTO 0x0493
254: 0x0486 [0x05] ExtData[1]->WorkLocal[5] = 1
255: 0x0489 [0x3D] CLEAR_BIT_FLAG_CONDITIONAL(target_work_offset=ExtData[1]->WorkLocal[3], bit_index_work_offset=1*, condition_work_offset=1*)
256: 0x0490 [0x01] GOTO 0x049A
257: 0x0493 [0x3C] SET_BIT_FLAG_CONDITIONAL(target_work_offset=ExtData[1]->WorkLocal[3], bit_index_work_offset=1*, condition_work_offset=1*)

SUBROUTINE_049A:
258: 0x049A [0x02] IF !(ExtData[1]->WorkLocal[1] < 5*) GOTO 0x04AF
259: 0x04A2 [0x05] ExtData[1]->WorkLocal[5] = 1
260: 0x04A5 [0x3D] CLEAR_BIT_FLAG_CONDITIONAL(target_work_offset=ExtData[1]->WorkLocal[3], bit_index_work_offset=2*, condition_work_offset=1*)
261: 0x04AC [0x01] GOTO 0x04B6
262: 0x04AF [0x3C] SET_BIT_FLAG_CONDITIONAL(target_work_offset=ExtData[1]->WorkLocal[3], bit_index_work_offset=2*, condition_work_offset=1*)

SUBROUTINE_04B6:
263: 0x04B6 [0x02] IF !(ExtData[1]->WorkLocal[2] < 1*) GOTO 0x04CB
264: 0x04BE [0x05] ExtData[1]->WorkLocal[5] = 1
265: 0x04C1 [0x3D] CLEAR_BIT_FLAG_CONDITIONAL(target_work_offset=ExtData[1]->WorkLocal[3], bit_index_work_offset=3*, condition_work_offset=1*)
266: 0x04C8 [0x01] GOTO 0x04D2
267: 0x04CB [0x3C] SET_BIT_FLAG_CONDITIONAL(target_work_offset=ExtData[1]->WorkLocal[3], bit_index_work_offset=3*, condition_work_offset=1*)

SUBROUTINE_04D2:
268: 0x04D2 [0x1B] RETURN
```

#### Data or dead code:

```
# Data Section: 0x04D3 (608 bytes)
     0x04D3: 02 10 03 10 04 10 05 10 06 10 07 10 08 10 09 10
     0x04E3: 00 17 01 17 02 17 03 17 04 17 05 17 06 17 07 17
     0x04F3: 1A 80 1B 80 1C 80 1D 80 1E 80 00 80 00 80 00 80
     0x0503: 1F 80 20 80 21 80 22 80 23 80 00 80 00 80 00 80
     0x0513: 24 80 25 80 26 80 27 80 28 80 00 80 00 80 00 80
     0x0523: 29 80 2A 80 22 80 1D 80 1E 80 00 80 00 80 00 80
     0x0533: 2B 80 2C 80 2D 80 2E 80 2F 80 00 80 00 80 00 80
     0x0543: 24 80 30 80 31 80 32 80 33 80 00 80 00 80 00 80
     0x0553: 34 80 35 80 36 80 37 80 38 80 00 80 00 80 00 80
     0x0563: 34 80 35 80 36 80 37 80 38 80 00 80 00 80 00 80
     0x0573: 34 80 35 80 36 80 37 80 38 80 00 80 00 80 00 80
     0x0583: 39 80 3A 80 3B 80 3C 80 00 80 00 80 00 80 00 80
     0x0593: 39 80 3A 80 3B 80 3C 80 00 80 00 80 00 80 00 80
     0x05A3: 39 80 3A 80 3B 80 3C 80 00 80 00 80 00 80 00 80
     0x05B3: 3D 80 3E 80 3F 80 40 80 00 80 00 80 00 80 00 80
     0x05C3: 41 80 20 80 26 80 42 80 00 80 00 80 00 80 00 80
     0x05D3: 43 80 44 80 45 80 46 80 00 80 00 80 00 80 00 80
     0x05E3: 47 80 48 80 49 80 38 80 00 80 00 80 00 80 00 80
     0x05F3: 47 80 48 80 49 80 38 80 00 80 00 80 00 80 00 80
     0x0603: 47 80 48 80 49 80 38 80 00 80 00 80 00 80 00 80
     0x0613: 4A 80 4B 80 42 80 4C 80 4D 80 00 80 00 80 00 80
     0x0623: 4E 80 4F 80 50 80 51 80 52 80 00 80 00 80 00 80
     0x0633: 53 80 54 80 55 80 56 80 57 80 00 80 00 80 00 80
     0x0643: 58 80 59 80 5A 80 5B 80 5C 80 00 80 00 80 00 80
     0x0653: 5D 80 5E 80 5F 80 5B 80 5C 80 00 80 00 80 00 80
     0x0663: 60 80 61 80 62 80 63 80 64 80 00 80 00 80 00 80
     0x0673: 36 80 65 80 66 80 67 80 68 80 00 80 00 80 00 80
     0x0683: 38 80 69 80 6A 80 6B 80 6C 80 00 80 00 80 00 80
     0x0693: 6D 80 6E 80 6F 80 70 80 38 80 00 80 00 80 00 80
     0x06A3: 58 80 4B 80 5A 80 71 80 72 80 00 80 00 80 00 80
     0x06B3: 5E 80 30 80 73 80 74 80 75 80 00 80 00 80 00 80
     0x06C3: 60 80 76 80 77 80 78 80 79 80 00 80 00 80 00 80
     0x06D3: 36 80 65 80 66 80 67 80 68 80 00 80 00 80 00 80
     0x06E3: 38 80 69 80 6A 80 6B 80 6C 80 00 80 00 80 00 80
     0x06F3: 6D 80 6E 80 6F 80 70 80 38 80 00 80 00 80 00 80
     0x0703: 7A 80 7B 80 38 80 00 80 00 80 00 80 00 80 00 80
     0x0713: 35 80 37 80 38 80 00 80 00 80 00 80 00 80 00 80
     0x0723: 7C 80 7D 80 38 80 00 80 00 80 00 80 00 80 00 80
```
