# 0x7FFFFFF0 - Zone Events

## Common Data

| Field            | Value                          |
|------------------|--------------------------------|
| Zone             | Sauromugue Champaign (ID: 120) |
| Block Size       | 3788 bytes                     |
| Total Events     | 58                             |
| References Count | 126                            |

## List of Events

| Event ID                   | Entrypoint   |   Size |   Instructions |
|----------------------------|--------------|--------|----------------|
| [65535](#event-65535)      | 0x0000       |      1 |              1 |
| [65534](#event-65534)      | 0x0001       |      1 |              1 |
| [65535.1](#event-655351)   | 0x0002       |     13 |              3 |
| [65535.2](#event-655352)   | 0x000F       |      6 |              2 |
| [65535.3](#event-655353)   | 0x0015       |      6 |              2 |
| [65535.4](#event-655354)   | 0x001B       |      6 |              2 |
| [65535.5](#event-655355)   | 0x0021       |      6 |              2 |
| [65535.6](#event-655356)   | 0x0027       |     36 |              4 |
| [65535.7](#event-655357)   | 0x004B       |     40 |              6 |
| [65535.8](#event-655358)   | 0x0073       |     16 |              3 |
| [65535.9](#event-655359)   | 0x0083       |     41 |              5 |
| [901](#event-901)          | 0x00AC       |    370 |             49 |
| [65535.10](#event-6553510) | 0x021E       |     31 |              8 |
| [65535.11](#event-6553511) | 0x023D       |     31 |              8 |
| [65535.12](#event-6553512) | 0x025C       |     31 |              8 |
| [65535.13](#event-6553513) | 0x027B       |     15 |              5 |
| [65535.14](#event-6553514) | 0x028A       |     15 |              5 |
| [65535.15](#event-6553515) | 0x0299       |     15 |              5 |
| [65535.16](#event-6553516) | 0x02A8       |     27 |              5 |
| [65535.17](#event-6553517) | 0x02C3       |     29 |              5 |
| [65535.18](#event-6553518) | 0x02E0       |     27 |              5 |
| [65535.19](#event-6553519) | 0x02FB       |     15 |              5 |
| [65535.20](#event-6553520) | 0x030A       |     27 |              5 |
| [65535.21](#event-6553521) | 0x0325       |     35 |              6 |
| [65535.22](#event-6553522) | 0x0348       |     27 |              5 |
| [65535.23](#event-6553523) | 0x0363       |     14 |              4 |
| [65535.24](#event-6553524) | 0x0371       |     14 |              4 |
| [65535.25](#event-6553525) | 0x037F       |     14 |              4 |
| [65535.26](#event-6553526) | 0x038D       |     14 |              4 |
| [65535.27](#event-6553527) | 0x039B       |     14 |              4 |
| [65535.28](#event-6553528) | 0x03A9       |     14 |              4 |
| [65535.29](#event-6553529) | 0x03B7       |     14 |              4 |
| [65535.30](#event-6553530) | 0x03C5       |     28 |              6 |
| [65535.31](#event-6553531) | 0x03E1       |     16 |              3 |
| [65535.32](#event-6553532) | 0x03F1       |     16 |              3 |
| [65535.33](#event-6553533) | 0x0401       |     38 |              5 |
| [65535.34](#event-6553534) | 0x0427       |     38 |              5 |
| [65535.35](#event-6553535) | 0x044D       |     38 |              5 |
| [65535.36](#event-6553536) | 0x0473       |    209 |             25 |
| [65535.37](#event-6553537) | 0x0544       |    209 |             25 |
| [65535.38](#event-6553538) | 0x0615       |    209 |             25 |
| [65535.39](#event-6553539) | 0x06E6       |    209 |             25 |
| [65535.40](#event-6553540) | 0x07B7       |    209 |             25 |
| [65535.41](#event-6553541) | 0x0888       |     48 |              9 |
| [65535.42](#event-6553542) | 0x08B8       |     11 |              3 |
| [65535.43](#event-6553543) | 0x08C3       |     16 |              4 |
| [65535.44](#event-6553544) | 0x08D3       |     37 |              5 |
| [65535.45](#event-6553545) | 0x08F8       |     37 |              5 |
| [65535.46](#event-6553546) | 0x091D       |     24 |              4 |
| [65535.47](#event-6553547) | 0x0935       |    172 |             36 |
| [65535.48](#event-6553548) | 0x09E1       |      6 |              2 |
| [65535.49](#event-6553549) | 0x09E7       |      6 |              2 |
| [65535.50](#event-6553550) | 0x09ED       |      5 |              2 |
| [65535.51](#event-6553551) | 0x09F2       |      5 |              2 |
| [65535.52](#event-6553552) | 0x09F7       |      5 |              2 |
| [65535.53](#event-6553553) | 0x09FC       |      5 |              2 |
| [65535.54](#event-6553554) | 0x0A01       |    345 |             33 |
| [5505](#event-5505)        | 0x0B5A       |    128 |             14 |

## DAT References (imed_data)

|   Index | Hex Value   |   Dec Value |
|---------|-------------|-------------|
|       0 | 0xA2D3F     |      666943 |
|       1 | 0xFFFA321E  |  4294586910 |
|       2 | 0xFFFFDF1C  |  4294958876 |
|       3 | 0x0603      |        1539 |
|       4 | 0x316A4     |      202404 |
|       5 | 0x33308     |      209672 |
|       6 | 0x0505      |        1285 |
|       7 | 0x04A1      |        1185 |
|       8 | 0x000D      |          13 |
|       9 | 0x3175D     |      202589 |
|      10 | 0x32B96     |      207766 |
|      11 | 0x5A461     |      369761 |
|      12 | 0xFFFC8C39  |  4294741049 |
|      13 | 0x2329      |        9001 |
|      14 | 0x0DF4      |        3572 |
|      15 | 0x0093      |         147 |
|      16 | 0x0000      |           0 |
|      17 | 0x00F0      |         240 |
|      18 | 0x00C8      |         200 |
|      19 | 0x003C      |          60 |
|      20 | 0x0013      |          19 |
|      21 | 0x0090      |         144 |
|      22 | 0xFFF8E8F4  |  4294502644 |
|      23 | 0x53CA5     |      343205 |
|      24 | 0x0165      |         357 |
|      25 | 0x08CD      |        2253 |
|      26 | 0x0005      |           5 |
|      27 | 0x1DF0      |        7664 |
|      28 | 0x001E      |          30 |
|      29 | 0x1DF1      |        7665 |
|      30 | 0x1DF2      |        7666 |
|      31 | 0x1DF6      |        7670 |
|      32 | 0x1DF3      |        7667 |
|      33 | 0x00C9      |         201 |
|      34 | 0x000B      |          11 |
|      35 | 0xFFFCF255  |  4294767189 |
|      36 | 0x57DA0     |      359840 |
|      37 | 0x1F3F      |        7999 |
|      38 | 0xFFFF44A9  |  4294919337 |
|      39 | 0x6AA40     |      436800 |
|      40 | 0x00C4      |         196 |
|      41 | 0x5A76E     |      370542 |
|      42 | 0xFFFC8EA4  |  4294741668 |
|      43 | 0x238D      |        9101 |
|      44 | 0xFFFCFBC1  |  4294769601 |
|      45 | 0x587B3     |      362419 |
|      46 | 0xFFFF31B9  |  4294914489 |
|      47 | 0x6AA5E     |      436830 |
|      48 | 0x01DC      |         476 |
|      49 | 0x59FE4     |      368612 |
|      50 | 0xFFFC8753  |  4294739795 |
|      51 | 0x2279      |        8825 |
|      52 | 0x012C      |         300 |
|      53 | 0x000A      |          10 |
|      54 | 0xFFF97BFD  |  4294540285 |
|      55 | 0xFFFC5BE4  |  4294728676 |
|      56 | 0x4E1F      |       19999 |
|      57 | 0xFFF97779  |  4294539129 |
|      58 | 0xFFFC360E  |  4294718990 |
|      59 | 0x0C1B      |        3099 |
|      60 | 0x8DB92     |      580498 |
|      61 | 0xFFFCA9CB  |  4294748619 |
|      62 | 0x8C9F      |       35999 |
|      63 | 0x8D5BB     |      579003 |
|      64 | 0xFFFC9A22  |  4294744610 |
|      65 | 0x8D55A     |      578906 |
|      66 | 0xFFFC4448  |  4294722632 |
|      67 | 0x85CA      |       34250 |
|      68 | 0x87EAE     |      556718 |
|      69 | 0xFFFA6B61  |  4294601569 |
|      70 | 0xFFFB86AA  |  4294674090 |
|      71 | 0xFFF8B006  |  4294488070 |
|      72 | 0x8E17B     |      582011 |
|      73 | 0xFFFCC75C  |  4294756188 |
|      74 | 0x8D9B5     |      580021 |
|      75 | 0xFFFC8498  |  4294739096 |
|      76 | 0x0007      |           7 |
|      77 | 0x005A      |          90 |
|      78 | 0x0001      |           1 |
|      79 | 0x0080      |         128 |
|      80 | 0x0008      |           8 |
|      81 | 0x0091      |         145 |
|      82 | 0x004F      |          79 |
|      83 | 0x004C      |          76 |
|      84 | 0x0106      |         262 |
|      85 | 0x0040      |          64 |
|      86 | 0x0018      |          24 |
|      87 | 0x0050      |          80 |
|      88 | 0x0004      |           4 |
|      89 | 0x0060      |          96 |
|      90 | 0x0046      |          70 |
|      91 | 0x0002      |           2 |
|      92 | 0x0003      |           3 |
|      93 | 0x0064      |         100 |
|      94 | 0x006E      |         110 |
|      95 | 0x0006      |           6 |
|      96 | 0x0078      |         120 |
|      97 | 0x0082      |         130 |
|      98 | 0x0049      |          73 |
|      99 | 0x0053      |          83 |
|     100 | 0x005D      |          93 |
|     101 | 0x0067      |         103 |
|     102 | 0x0071      |         113 |
|     103 | 0x007B      |         123 |
|     104 | 0x0085      |         133 |
|     105 | 0xFFFFFC18  |  4294966296 |
|     106 | 0x0BB8      |        3000 |
|     107 | 0x81434     |      529460 |
|     108 | 0xFFFA4FCB  |  4294594507 |
|     109 | 0x0F39      |        3897 |
|     110 | 0xFFFB6FF7  |  4294668279 |
|     111 | 0xFFF8B223  |  4294488611 |
|     112 | 0x0014      |          20 |
|     113 | 0x0009      |           9 |
|     114 | 0x008C      |         140 |
|     115 | 0x00D2      |         210 |
|     116 | 0x0057      |          87 |
|     117 | 0x008D      |         141 |
|     118 | 0x0F26      |        3878 |
|     119 | 0x0097      |         151 |
|     120 | 0x00A1      |         161 |
|     121 | 0x00AB      |         171 |
|     122 | 0x00B5      |         181 |
|     123 | 0x00BF      |         191 |
|     124 | 0x002D      |          45 |
|     125 | 0x000F      |          15 |

## Events

### Event 65535

#### Metadata

| Field        | Value   |
|--------------|---------|
| Entrypoint   | 0x0000  |
| Data Size    | 1 bytes |
| Instructions | 1       |

```
      00 01 02 03 04 05 06 07  08 09 0A 0B 0C 0D 0E 0F
      -- -- -- -- -- -- -- --  -- -- -- -- -- -- -- --
0000: 00                                                .               
```

#### Opcodes

```
  0: 0x0000 [0x00] END_REQSTACK()
```

### Event 65534

#### Metadata

| Field        | Value   |
|--------------|---------|
| Entrypoint   | 0x0001  |
| Data Size    | 1 bytes |
| Instructions | 1       |

```
      00 01 02 03 04 05 06 07  08 09 0A 0B 0C 0D 0E 0F
      -- -- -- -- -- -- -- --  -- -- -- -- -- -- -- --
0000:    00                                              .              
```

#### Opcodes

```
  0: 0x0001 [0x00] END_REQSTACK()
```

### Event 65535.1

#### Metadata

| Field        | Value    |
|--------------|----------|
| Entrypoint   | 0x0002   |
| Data Size    | 13 bytes |
| Instructions | 3        |

```
      00 01 02 03 04 05 06 07  08 09 0A 0B 0C 0D 0E 0F
      -- -- -- -- -- -- -- --  -- -- -- -- -- -- -- --
0000:       47 00 00 80 01 80  02 80 03 80 47 01 00       G.........G.. 
```

#### Opcodes

```
  0: 0x0002 [0x47] UPDATE_PLAYER_POS(666.943*, -380.386*, -8.420*, yaw=135.3°*)
  1: 0x000C [0x47] WAIT_PLAYER_POS_UPDATE
  2: 0x000E [0x00] END_REQSTACK()
```

### Event 65535.2

#### Metadata

| Field        | Value   |
|--------------|---------|
| Entrypoint   | 0x000F  |
| Data Size    | 6 bytes |
| Instructions | 2       |

```
      00 01 02 03 04 05 06 07  08 09 0A 0B 0C 0D 0E 0F
      -- -- -- -- -- -- -- --  -- -- -- -- -- -- -- --
0000:                                               03                 .
0010: 02 10 0B 7F 00                                    .....           
```

#### Opcodes

```
  0: 0x000F [0x03] Work_Zone[2] = (Entity->Render.Flags01 >> 25) & 1
  1: 0x0014 [0x00] END_REQSTACK()
```

### Event 65535.3

#### Metadata

| Field        | Value   |
|--------------|---------|
| Entrypoint   | 0x0015  |
| Data Size    | 6 bytes |
| Instructions | 2       |

```
      00 01 02 03 04 05 06 07  08 09 0A 0B 0C 0D 0E 0F
      -- -- -- -- -- -- -- --  -- -- -- -- -- -- -- --
0010:                03 02 10  07 7F 00                      ......     
```

#### Opcodes

```
  0: 0x0015 [0x03] Work_Zone[2] = Entity->Race
  1: 0x001A [0x00] END_REQSTACK()
```

### Event 65535.4

#### Metadata

| Field        | Value   |
|--------------|---------|
| Entrypoint   | 0x001B  |
| Data Size    | 6 bytes |
| Instructions | 2       |

```
      00 01 02 03 04 05 06 07  08 09 0A 0B 0C 0D 0E 0F
      -- -- -- -- -- -- -- --  -- -- -- -- -- -- -- --
0010:                                   03 09 10 07 7F             .....
0020: 00                                                .               
```

#### Opcodes

```
  0: 0x001B [0x03] Work_Zone[9] = Entity->Race
  1: 0x0020 [0x00] END_REQSTACK()
```

### Event 65535.5

#### Metadata

| Field        | Value   |
|--------------|---------|
| Entrypoint   | 0x0021  |
| Data Size    | 6 bytes |
| Instructions | 2       |

```
      00 01 02 03 04 05 06 07  08 09 0A 0B 0C 0D 0E 0F
      -- -- -- -- -- -- -- --  -- -- -- -- -- -- -- --
0020:    03 09 10 06 7F 00                               ......         
```

#### Opcodes

```
  0: 0x0021 [0x03] Work_Zone[9] = Entity->JobId (if LocalPlayer)
  1: 0x0026 [0x00] END_REQSTACK()
```

### Event 65535.6

#### Metadata

| Field        | Value    |
|--------------|----------|
| Entrypoint   | 0x0027   |
| Data Size    | 36 bytes |
| Instructions | 4        |

```
      00 01 02 03 04 05 06 07  08 09 0A 0B 0C 0D 0E 0F
      -- -- -- -- -- -- -- --  -- -- -- -- -- -- -- --
0020:                      37  04 80 05 80 06 80 07 80         7........
0030: 2C F0 FF FF 7F F0 FF FF  7F 72 65 73 30 53 F8 FF  ,........res0S..
0040: FF 7F F8 FF FF 7F 72 65  73 30 00                 ......res0.     
```

#### Opcodes

```
  0: 0x0027 [0x37] UPDATE_EVENT_POSITION_AND_DIR: x=202.404*, z=209.672*, y=1.285*, direction=104.1°*
  1: 0x0030 [0x2C] CREATE_SCHEDULER_TASK: Create scheduler "res0" with entities [LocalPlayer, LocalPlayer]
  2: 0x003D [0x53] WAIT_SCHEDULER_TASK: Wait for scheduler "res0" with entities [EventEntity, EventEntity]
  3: 0x004A [0x00] END_REQSTACK()
```

### Event 65535.7

#### Metadata

| Field        | Value    |
|--------------|----------|
| Entrypoint   | 0x004B   |
| Data Size    | 40 bytes |
| Instructions | 6        |

```
      00 01 02 03 04 05 06 07  08 09 0A 0B 0C 0D 0E 0F
      -- -- -- -- -- -- -- --  -- -- -- -- -- -- -- --
0040:                                   2C F0 FF FF 7F             ,....
0050: F0 FF FF 7F 72 65 73 32  53 F8 FF FF 7F F8 FF FF  ....res2S.......
0060: 7F 72 65 73 32 32 08 80  1F 00 09 80 0A 80 06 80  .res22..........
0070: 1F 01 00                                          ...             
```

#### Opcodes

```
  0: 0x004B [0x2C] CREATE_SCHEDULER_TASK: Create scheduler "res2" with entities [LocalPlayer, LocalPlayer]
  1: 0x0058 [0x53] WAIT_SCHEDULER_TASK: Wait for scheduler "res2" with entities [EventEntity, EventEntity]
  2: 0x0065 [0x32] ExtData[1]->MainSpeed = 13* * 0.1
  3: 0x0068 [0x1F] MOVE_ENTITY: EventEntity moves to X=202.589*, Z=207.766*, Y=1.285*
  4: 0x0070 [0x1F] MOVE_ENTITY: Update entity position (mode=1)
  5: 0x0072 [0x00] END_REQSTACK()
```

### Event 65535.8

#### Metadata

| Field        | Value    |
|--------------|----------|
| Entrypoint   | 0x0073   |
| Data Size    | 16 bytes |
| Instructions | 3        |

```
      00 01 02 03 04 05 06 07  08 09 0A 0B 0C 0D 0E 0F
      -- -- -- -- -- -- -- --  -- -- -- -- -- -- -- --
0070:          92 01 F0 FF FF  7F 37 0B 80 0C 80 0D 80     ......7......
0080: 0E 80 00                                          ...             
```

#### Opcodes

```
  0: 0x0073 [0x92] LocalPlayer->Render.Flags3 ^= 0x01
  1: 0x0079 [0x37] UPDATE_EVENT_POSITION_AND_DIR: x=369.761*, z=-226.247*, y=9.001*, direction=313.9°*
  2: 0x0082 [0x00] END_REQSTACK()
```

### Event 65535.9

#### Metadata

| Field        | Value    |
|--------------|----------|
| Entrypoint   | 0x0083   |
| Data Size    | 41 bytes |
| Instructions | 5        |

```
      00 01 02 03 04 05 06 07  08 09 0A 0B 0C 0D 0E 0F
      -- -- -- -- -- -- -- --  -- -- -- -- -- -- -- --
0080:          BB 0F 80 F0 FF  FF 7F FD 81 07 01 6D 61     ...........ma
0090: 69 6E 10 80 1C 11 80 45  12 80 F0 FF FF 7F F0 FF  in.....E........
00A0: FF 7F 66 64 6F 31 10 80  1C 13 80 00              ..fdo1......    
```

#### Opcodes

```
  0: 0x0083 [0xBB] LOAD_EVENT_SCHEDULER_ALT: Load scheduler "main" with entities [LocalPlayer, Cavernous Maw (ID: 17269245/0x010781FD)], work=[147*, 0*]
  1: 0x0094 [0x1C] WAIT(240* ticks)
  2: 0x0097 [0x45] LOAD_SCHEDULED_TASK: Load scheduler "fdo1" with entities [LocalPlayer, LocalPlayer], work=[200*, 0*]
  3: 0x00A8 [0x1C] WAIT(60* ticks)
  4: 0x00AB [0x00] END_REQSTACK()
```

### Event 901

#### Metadata

| Field        | Value     |
|--------------|-----------|
| Entrypoint   | 0x00AC    |
| Data Size    | 370 bytes |
| Instructions | 49        |

```
      00 01 02 03 04 05 06 07  08 09 0A 0B 0C 0D 0E 0F
      -- -- -- -- -- -- -- --  -- -- -- -- -- -- -- --
00A0:                                      42 46 01 03              BF..
00B0: 00 00 05 10 45 12 80 F8  FF FF 7F F8 FF FF 7F 66  ....E..........f
00C0: 64 6F 30 10 80 55 12 80  F8 FF FF 7F F8 FF FF 7F  do0..U..........
00D0: 66 64 6F 30 4E 00 FB 81  07 01 4E 00 FC 81 07 01  fdo0N.....N.....
00E0: 38 14 80 79 00 F0 FF FF  7F FB 81 07 01 03 05 10  8..y............
00F0: 02 10 03 06 10 02 10 03  07 10 02 10 15 05 10 15  ................
0100: 80 15 06 10 13 80 3F 07  10 07 10 13 80 37 16 80  ......?......7..
0110: 17 80 18 80 19 80 45 1A  80 F8 FF FF 7F F8 FF FF  ......E.........
0120: 7F 73 30 30 35 10 80 4A  FB 81 07 01 F0 FF FF 7F  .s005..J........
0130: 45 12 80 F8 FF FF 7F F8  FF FF 7F 66 64 69 31 10  E..........fdi1.
0140: 80 2B FB 81 07 01 1B 80  23 66 1C 80 FB 81 07 01  .+......#f......
0150: FB 81 07 01 74 6C 6B 30  2B FB 81 07 01 1D 80 23  ....tlk0+......#
0160: 02 04 10 10 80 01 B2 01  66 1C 80 FB 81 07 01 FB  ........f.......
0170: 81 07 01 74 6C 6B 31 03  05 10 04 10 03 06 10 04  ...tlk1.........
0180: 10 03 07 10 04 10 15 05  10 15 80 15 06 10 13 80  ................
0190: 3F 07 10 07 10 13 80 02  00 00 10 80 00 AA 01 2B  ?..............+
01A0: FB 81 07 01 1E 80 23 01  B2 01 2B FB 81 07 01 1F  ......#...+.....
01B0: 80 23 66 1C 80 FB 81 07  01 FB 81 07 01 70 61 73  .#f..........pas
01C0: 30 2B FB 81 07 01 20 80  23 52 1A 80 F8 FF FF 7F  0+.... .#R......
01D0: F8 FF FF 7F 73 30 30 35  45 12 80 F8 FF FF 7F F8  ....s005E.......
01E0: FF FF 7F 66 64 6F 31 10  80 55 12 80 F8 FF FF 7F  ...fdo1..U......
01F0: F8 FF FF 7F 66 64 6F 31  46 00 45 21 80 F0 FF FF  ....fdo1F.E!....
0200: 7F F0 FF FF 7F 71 73 74  63 10 80 45 12 80 F8 FF  .....qstc..E....
0210: FF 7F F8 FF FF 7F 66 64  69 32 10 80 21 00        ......fdi2..!.  
```

#### Opcodes

```
  0: 0x00AC [0x42] SET_CLI_EVENT_CANCEL_DATA()
  1: 0x00AD [0x46] CAMERA_CONTROL: Disable user control
  2: 0x00AF [0x03] ExtData[1]->WorkLocal[0] = Work_Zone[5]
  3: 0x00B4 [0x45] LOAD_SCHEDULED_TASK: Load scheduler "fdo0" with entities [EventEntity, EventEntity], work=[200*, 0*]
  4: 0x00C5 [0x55] WAIT_LOAD_SCHEDULER: Wait for scheduler "fdo0" with entities [EventEntity, EventEntity], work=200*
  5: 0x00D4 [0x4E] SET_ENTITY_HIDE_FLAG: Show Narsha (ID: 17269243/0x010781FB)
  6: 0x00DA [0x4E] SET_ENTITY_HIDE_FLAG: Show Unnamed NPC (ID: 17269244/0x010781FC)
  7: 0x00E0 [0x38] SET_CLIENT_EVENT_MODE(mode=19*)
  8: 0x00E3 [0x79] LocalPlayer looks at Narsha (ID: 17269243/0x010781FB) (Basic look)
  9: 0x00ED [0x03] Work_Zone[5] = Work_Zone[2]
 10: 0x00F2 [0x03] Work_Zone[6] = Work_Zone[2]
 11: 0x00F7 [0x03] Work_Zone[7] = Work_Zone[2]
 12: 0x00FC [0x15] Work_Zone[5] /= 144*
 13: 0x0101 [0x15] Work_Zone[6] /= 60*
 14: 0x0106 [0x3F] Work_Zone[7] = Work_Zone[7] % 60*
 15: 0x010D [0x37] UPDATE_EVENT_POSITION_AND_DIR: x=-464.652*, z=343.205*, y=0.357*, direction=198.0°*
 16: 0x0116 [0x45] LOAD_SCHEDULED_TASK: Load scheduler "s005" with entities [EventEntity, EventEntity], work=[5*, 0*]
 17: 0x0127 [0x4A] Narsha (ID: 17269243/0x010781FB) looks at LocalPlayer
 18: 0x0130 [0x45] LOAD_SCHEDULED_TASK: Load scheduler "fdi1" with entities [EventEntity, EventEntity], work=[200*, 0*]
 19: 0x0141 [0x2B] Narsha (ID: 17269243/0x010781FB) [7664*]:
    → "You've helped our poor girl find her way home! I don't know how to thank you!"
 20: 0x0148 [0x23] WAIT_FOR_DIALOG_INTERACTION
 21: 0x0149 [0x66] LOAD_EXT_SCHEDULER_MAIN: Load scheduler "tlk0" with entities [Narsha (ID: 17269243/0x010781FB), Narsha (ID: 17269243/0x010781FB)], work=30*
 22: 0x0158 [0x2B] Narsha (ID: 17269243/0x010781FB) [7665*]:
    → "And to think you made it here in a mere $3 [hour/hours] ($4 [minute/minutes] and $5 [second/seconds] Earth time)!"
 23: 0x015F [0x23] WAIT_FOR_DIALOG_INTERACTION
 24: 0x0160 [0x02] IF !(Work_Zone[4] == 0*) GOTO 0x01B2
 25: 0x0168 [0x66] LOAD_EXT_SCHEDULER_MAIN: Load scheduler "tlk1" with entities [Narsha (ID: 17269243/0x010781FB), Narsha (ID: 17269243/0x010781FB)], work=30*
 26: 0x0177 [0x03] Work_Zone[5] = Work_Zone[4]
 27: 0x017C [0x03] Work_Zone[6] = Work_Zone[4]
 28: 0x0181 [0x03] Work_Zone[7] = Work_Zone[4]
 29: 0x0186 [0x15] Work_Zone[5] /= 144*
 30: 0x018B [0x15] Work_Zone[6] /= 60*
 31: 0x0190 [0x3F] Work_Zone[7] = Work_Zone[7] % 60*
 32: 0x0197 [0x02] IF !(ExtData[1]->WorkLocal[0] == 0*) GOTO 0x01AA
 33: 0x019F [0x2B] Narsha (ID: 17269243/0x010781FB) [7666*]:
    → "Oh, and by the way, the fastest adventurer to date has been %0. That talented rider traversed the same course as you in $3 [hour/hours] ($4 [minute/minutes] and $5 [second/seconds] Earth time)!"
 34: 0x01A6 [0x23] WAIT_FOR_DIALOG_INTERACTION
 35: 0x01A7 [0x01] GOTO 0x01B2
 36: 0x01AA [0x2B] Narsha (ID: 17269243/0x010781FB) [7670*]:
    → "Oh, and by the way, the fastest adventurer to date has been...you! Your remarkable record of $3 [hour/hours] ($4 [minute/minutes] and $5 [second/seconds] Earth time) still stands strong!"
 37: 0x01B1 [0x23] WAIT_FOR_DIALOG_INTERACTION

SUBROUTINE_01B2:
 38: 0x01B2 [0x66] LOAD_EXT_SCHEDULER_MAIN: Load scheduler "pas0" with entities [Narsha (ID: 17269243/0x010781FB), Narsha (ID: 17269243/0x010781FB)], work=30*
 39: 0x01C1 [0x2B] Narsha (ID: 17269243/0x010781FB) [7667*]:
    → "Anyway, please take this as a token of our appreciation. And stop by again sometime. We may have more work for you!"
 40: 0x01C8 [0x23] WAIT_FOR_DIALOG_INTERACTION
 41: 0x01C9 [0x52] END_LOAD_SCHEDULER: End scheduler "s005" with entities [EventEntity, EventEntity], work=5*
 42: 0x01D8 [0x45] LOAD_SCHEDULED_TASK: Load scheduler "fdo1" with entities [EventEntity, EventEntity], work=[200*, 0*]
 43: 0x01E9 [0x55] WAIT_LOAD_SCHEDULER: Wait for scheduler "fdo1" with entities [EventEntity, EventEntity], work=200*
 44: 0x01F8 [0x46] CAMERA_CONTROL: Restore default settings
 45: 0x01FA [0x45] LOAD_SCHEDULED_TASK: Load scheduler "qstc" with entities [LocalPlayer, LocalPlayer], work=[201*, 0*]
 46: 0x020B [0x45] LOAD_SCHEDULED_TASK: Load scheduler "fdi2" with entities [EventEntity, EventEntity], work=[200*, 0*]
 47: 0x021C [0x21] END_EVENT
 48: 0x021D [0x00] END_REQSTACK()
```

### Event 65535.10

#### Metadata

| Field        | Value    |
|--------------|----------|
| Entrypoint   | 0x021E   |
| Data Size    | 31 bytes |
| Instructions | 8        |

```
      00 01 02 03 04 05 06 07  08 09 0A 0B 0C 0D 0E 0F
      -- -- -- -- -- -- -- --  -- -- -- -- -- -- -- --
0210:                                            32 22                2"
0220: 80 1F 00 23 80 24 80 25  80 1F 01 6F 1C 1C 80 79  ...#.$.%...o...y
0230: 00 F8 FF FF 7F FD 81 07  01 1C 13 80 00           .............   
```

#### Opcodes

```
  0: 0x021E [0x32] ExtData[1]->MainSpeed = 11* * 0.1
  1: 0x0221 [0x1F] MOVE_ENTITY: EventEntity moves to X=-200.107*, Z=359.840*, Y=7.999*
  2: 0x0229 [0x1F] MOVE_ENTITY: Update entity position (mode=1)
  3: 0x022B [0x6F] WAIT_FRAME_DELAY: Yield until WaitTime reaches zero
  4: 0x022C [0x1C] WAIT(30* ticks)
  5: 0x022F [0x79] EventEntity looks at Cavernous Maw (ID: 17269245/0x010781FD) (Basic look)
  6: 0x0239 [0x1C] WAIT(60* ticks)
  7: 0x023C [0x00] END_REQSTACK()
```

### Event 65535.11

#### Metadata

| Field        | Value    |
|--------------|----------|
| Entrypoint   | 0x023D   |
| Data Size    | 31 bytes |
| Instructions | 8        |

```
      00 01 02 03 04 05 06 07  08 09 0A 0B 0C 0D 0E 0F
      -- -- -- -- -- -- -- --  -- -- -- -- -- -- -- --
0230:                                         32 22 80               2".
0240: 1F 00 26 80 27 80 28 80  1F 01 6F 1C 1C 80 79 00  ..&.'.(...o...y.
0250: F8 FF FF 7F FD 81 07 01  1C 13 80 00              ............    
```

#### Opcodes

```
  0: 0x023D [0x32] ExtData[1]->MainSpeed = 11* * 0.1
  1: 0x0240 [0x1F] MOVE_ENTITY: EventEntity moves to X=-47.959*, Z=436.800*, Y=0.196*
  2: 0x0248 [0x1F] MOVE_ENTITY: Update entity position (mode=1)
  3: 0x024A [0x6F] WAIT_FRAME_DELAY: Yield until WaitTime reaches zero
  4: 0x024B [0x1C] WAIT(30* ticks)
  5: 0x024E [0x79] EventEntity looks at Cavernous Maw (ID: 17269245/0x010781FD) (Basic look)
  6: 0x0258 [0x1C] WAIT(60* ticks)
  7: 0x025B [0x00] END_REQSTACK()
```

### Event 65535.12

#### Metadata

| Field        | Value    |
|--------------|----------|
| Entrypoint   | 0x025C   |
| Data Size    | 31 bytes |
| Instructions | 8        |

```
      00 01 02 03 04 05 06 07  08 09 0A 0B 0C 0D 0E 0F
      -- -- -- -- -- -- -- --  -- -- -- -- -- -- -- --
0250:                                      32 22 80 1F              2"..
0260: 00 29 80 2A 80 2B 80 1F  01 6F 1C 1C 80 79 00 F8  .).*.+...o...y..
0270: FF FF 7F FD 81 07 01 1C  13 80 00                 ...........     
```

#### Opcodes

```
  0: 0x025C [0x32] ExtData[1]->MainSpeed = 11* * 0.1
  1: 0x025F [0x1F] MOVE_ENTITY: EventEntity moves to X=370.542*, Z=-225.628*, Y=9.101*
  2: 0x0267 [0x1F] MOVE_ENTITY: Update entity position (mode=1)
  3: 0x0269 [0x6F] WAIT_FRAME_DELAY: Yield until WaitTime reaches zero
  4: 0x026A [0x1C] WAIT(30* ticks)
  5: 0x026D [0x79] EventEntity looks at Cavernous Maw (ID: 17269245/0x010781FD) (Basic look)
  6: 0x0277 [0x1C] WAIT(60* ticks)
  7: 0x027A [0x00] END_REQSTACK()
```

### Event 65535.13

#### Metadata

| Field        | Value    |
|--------------|----------|
| Entrypoint   | 0x027B   |
| Data Size    | 15 bytes |
| Instructions | 5        |

```
      00 01 02 03 04 05 06 07  08 09 0A 0B 0C 0D 0E 0F
      -- -- -- -- -- -- -- --  -- -- -- -- -- -- -- --
0270:                                   32 22 80 1F 00             2"...
0280: 2C 80 2D 80 25 80 1F 01  6F 00                    ,.-.%...o.      
```

#### Opcodes

```
  0: 0x027B [0x32] ExtData[1]->MainSpeed = 11* * 0.1
  1: 0x027E [0x1F] MOVE_ENTITY: EventEntity moves to X=-197.695*, Z=362.419*, Y=7.999*
  2: 0x0286 [0x1F] MOVE_ENTITY: Update entity position (mode=1)
  3: 0x0288 [0x6F] WAIT_FRAME_DELAY: Yield until WaitTime reaches zero
  4: 0x0289 [0x00] END_REQSTACK()
```

### Event 65535.14

#### Metadata

| Field        | Value    |
|--------------|----------|
| Entrypoint   | 0x028A   |
| Data Size    | 15 bytes |
| Instructions | 5        |

```
      00 01 02 03 04 05 06 07  08 09 0A 0B 0C 0D 0E 0F
      -- -- -- -- -- -- -- --  -- -- -- -- -- -- -- --
0280:                                32 22 80 1F 00 2E            2"....
0290: 80 2F 80 30 80 1F 01 6F  00                       ./.0...o.       
```

#### Opcodes

```
  0: 0x028A [0x32] ExtData[1]->MainSpeed = 11* * 0.1
  1: 0x028D [0x1F] MOVE_ENTITY: EventEntity moves to X=-52.807*, Z=436.830*, Y=0.476*
  2: 0x0295 [0x1F] MOVE_ENTITY: Update entity position (mode=1)
  3: 0x0297 [0x6F] WAIT_FRAME_DELAY: Yield until WaitTime reaches zero
  4: 0x0298 [0x00] END_REQSTACK()
```

### Event 65535.15

#### Metadata

| Field        | Value    |
|--------------|----------|
| Entrypoint   | 0x0299   |
| Data Size    | 15 bytes |
| Instructions | 5        |

```
      00 01 02 03 04 05 06 07  08 09 0A 0B 0C 0D 0E 0F
      -- -- -- -- -- -- -- --  -- -- -- -- -- -- -- --
0290:                             32 22 80 1F 00 31 80           2"...1.
02A0: 32 80 33 80 1F 01 6F 00                           2.3...o.        
```

#### Opcodes

```
  0: 0x0299 [0x32] ExtData[1]->MainSpeed = 11* * 0.1
  1: 0x029C [0x1F] MOVE_ENTITY: EventEntity moves to X=368.612*, Z=-227.501*, Y=8.825*
  2: 0x02A4 [0x1F] MOVE_ENTITY: Update entity position (mode=1)
  3: 0x02A6 [0x6F] WAIT_FRAME_DELAY: Yield until WaitTime reaches zero
  4: 0x02A7 [0x00] END_REQSTACK()
```

### Event 65535.16

#### Metadata

| Field        | Value    |
|--------------|----------|
| Entrypoint   | 0x02A8   |
| Data Size    | 27 bytes |
| Instructions | 5        |

```
      00 01 02 03 04 05 06 07  08 09 0A 0B 0C 0D 0E 0F
      -- -- -- -- -- -- -- --  -- -- -- -- -- -- -- --
02A0:                          03 03 00 07 7F 1A 72 09          ......r.
02B0: 66 04 00 F8 FF FF 7F F8  FF FF 7F 61 74 30 30 1C  f..........at00.
02C0: 11 80 00                                          ...             
```

#### Opcodes

```
  0: 0x02A8 [0x03] ExtData[1]->WorkLocal[3] = Entity->Race
  1: 0x02AD [0x1A] CALL_SUBROUTINE(address=0x0972)
  2: 0x02B0 [0x66] LOAD_EXT_SCHEDULER_MAIN: Load scheduler "at00" with entities [EventEntity, EventEntity], work=ExtData[1]->WorkLocal[4]
  3: 0x02BF [0x1C] WAIT(240* ticks)
  4: 0x02C2 [0x00] END_REQSTACK()
```

### Event 65535.17

#### Metadata

| Field        | Value    |
|--------------|----------|
| Entrypoint   | 0x02C3   |
| Data Size    | 29 bytes |
| Instructions | 5        |

```
      00 01 02 03 04 05 06 07  08 09 0A 0B 0C 0D 0E 0F
      -- -- -- -- -- -- -- --  -- -- -- -- -- -- -- --
02C0:          7B F8 FF FF 7F  03 03 00 07 7F 1A 72 09     {..........r.
02D0: 66 04 00 F8 FF FF 7F F8  FF FF 7F 61 74 70 30 00  f..........atp0.
```

#### Opcodes

```
  0: 0x02C3 [0x7B] EventEntity stops talking
  1: 0x02C8 [0x03] ExtData[1]->WorkLocal[3] = Entity->Race
  2: 0x02CD [0x1A] CALL_SUBROUTINE(address=0x0972)
  3: 0x02D0 [0x66] LOAD_EXT_SCHEDULER_MAIN: Load scheduler "atp0" with entities [EventEntity, EventEntity], work=ExtData[1]->WorkLocal[4]
  4: 0x02DF [0x00] END_REQSTACK()
```

### Event 65535.18

#### Metadata

| Field        | Value    |
|--------------|----------|
| Entrypoint   | 0x02E0   |
| Data Size    | 27 bytes |
| Instructions | 5        |

```
      00 01 02 03 04 05 06 07  08 09 0A 0B 0C 0D 0E 0F
      -- -- -- -- -- -- -- --  -- -- -- -- -- -- -- --
02E0: 03 03 00 07 7F 1A 72 09  66 04 00 F8 FF FF 7F F8  ......r.f.......
02F0: FF FF 7F 61 74 70 31 1C  34 80 00                 ...atp1.4..     
```

#### Opcodes

```
  0: 0x02E0 [0x03] ExtData[1]->WorkLocal[3] = Entity->Race
  1: 0x02E5 [0x1A] CALL_SUBROUTINE(address=0x0972)
  2: 0x02E8 [0x66] LOAD_EXT_SCHEDULER_MAIN: Load scheduler "atp1" with entities [EventEntity, EventEntity], work=ExtData[1]->WorkLocal[4]
  3: 0x02F7 [0x1C] WAIT(300* ticks)
  4: 0x02FA [0x00] END_REQSTACK()
```

### Event 65535.19

#### Metadata

| Field        | Value    |
|--------------|----------|
| Entrypoint   | 0x02FB   |
| Data Size    | 15 bytes |
| Instructions | 5        |

```
      00 01 02 03 04 05 06 07  08 09 0A 0B 0C 0D 0E 0F
      -- -- -- -- -- -- -- --  -- -- -- -- -- -- -- --
02F0:                                   32 35 80 1F 00             25...
0300: 36 80 37 80 38 80 1F 01  6F 00                    6.7.8...o.      
```

#### Opcodes

```
  0: 0x02FB [0x32] ExtData[1]->MainSpeed = 10* * 0.1
  1: 0x02FE [0x1F] MOVE_ENTITY: EventEntity moves to X=-427.011*, Z=-238.620*, Y=19.999*
  2: 0x0306 [0x1F] MOVE_ENTITY: Update entity position (mode=1)
  3: 0x0308 [0x6F] WAIT_FRAME_DELAY: Yield until WaitTime reaches zero
  4: 0x0309 [0x00] END_REQSTACK()
```

### Event 65535.20

#### Metadata

| Field        | Value    |
|--------------|----------|
| Entrypoint   | 0x030A   |
| Data Size    | 27 bytes |
| Instructions | 5        |

```
      00 01 02 03 04 05 06 07  08 09 0A 0B 0C 0D 0E 0F
      -- -- -- -- -- -- -- --  -- -- -- -- -- -- -- --
0300:                                03 03 00 07 7F 1A            ......
0310: 72 09 66 04 00 F8 FF FF  7F F8 FF FF 7F 65 63 30  r.f..........ec0
0320: 30 1C 1C 80 00                                    0....           
```

#### Opcodes

```
  0: 0x030A [0x03] ExtData[1]->WorkLocal[3] = Entity->Race
  1: 0x030F [0x1A] CALL_SUBROUTINE(address=0x0972)
  2: 0x0312 [0x66] LOAD_EXT_SCHEDULER_MAIN: Load scheduler "ec00" with entities [EventEntity, EventEntity], work=ExtData[1]->WorkLocal[4]
  3: 0x0321 [0x1C] WAIT(30* ticks)
  4: 0x0324 [0x00] END_REQSTACK()
```

### Event 65535.21

#### Metadata

| Field        | Value    |
|--------------|----------|
| Entrypoint   | 0x0325   |
| Data Size    | 35 bytes |
| Instructions | 6        |

```
      00 01 02 03 04 05 06 07  08 09 0A 0B 0C 0D 0E 0F
      -- -- -- -- -- -- -- --  -- -- -- -- -- -- -- --
0320:                33 01 37  39 80 3A 80 38 80 3B 80       3.79.:.8.;.
0330: 03 03 00 07 7F 1A 72 09  66 04 00 F8 FF FF 7F F8  ......r.f.......
0340: FF FF 7F 65 63 61 30 00                           ...eca0.        
```

#### Opcodes

```
  0: 0x0325 [0x33] EventEntity->Render.Flags0 |= 0x200000 // Bit 21 (flag=0x01)
  1: 0x0327 [0x37] UPDATE_EVENT_POSITION_AND_DIR: x=-428.167*, z=-248.306*, y=19.999*, direction=272.4°*
  2: 0x0330 [0x03] ExtData[1]->WorkLocal[3] = Entity->Race
  3: 0x0335 [0x1A] CALL_SUBROUTINE(address=0x0972)
  4: 0x0338 [0x66] LOAD_EXT_SCHEDULER_MAIN: Load scheduler "eca0" with entities [EventEntity, EventEntity], work=ExtData[1]->WorkLocal[4]
  5: 0x0347 [0x00] END_REQSTACK()
```

### Event 65535.22

#### Metadata

| Field        | Value    |
|--------------|----------|
| Entrypoint   | 0x0348   |
| Data Size    | 27 bytes |
| Instructions | 5        |

```
      00 01 02 03 04 05 06 07  08 09 0A 0B 0C 0D 0E 0F
      -- -- -- -- -- -- -- --  -- -- -- -- -- -- -- --
0340:                          03 03 00 07 7F 1A 72 09          ......r.
0350: 66 04 00 F8 FF FF 7F F8  FF FF 7F 65 63 61 31 1C  f..........eca1.
0360: 13 80 00                                          ...             
```

#### Opcodes

```
  0: 0x0348 [0x03] ExtData[1]->WorkLocal[3] = Entity->Race
  1: 0x034D [0x1A] CALL_SUBROUTINE(address=0x0972)
  2: 0x0350 [0x66] LOAD_EXT_SCHEDULER_MAIN: Load scheduler "eca1" with entities [EventEntity, EventEntity], work=ExtData[1]->WorkLocal[4]
  3: 0x035F [0x1C] WAIT(60* ticks)
  4: 0x0362 [0x00] END_REQSTACK()
```

### Event 65535.23

#### Metadata

| Field        | Value    |
|--------------|----------|
| Entrypoint   | 0x0363   |
| Data Size    | 14 bytes |
| Instructions | 4        |

```
      00 01 02 03 04 05 06 07  08 09 0A 0B 0C 0D 0E 0F
      -- -- -- -- -- -- -- --  -- -- -- -- -- -- -- --
0360:          32 08 80 1F 00  3C 80 3D 80 3E 80 1F 01     2....<.=.>...
0370: 00                                                .               
```

#### Opcodes

```
  0: 0x0363 [0x32] ExtData[1]->MainSpeed = 13* * 0.1
  1: 0x0366 [0x1F] MOVE_ENTITY: EventEntity moves to X=580.498*, Z=-218.677*, Y=35.999*
  2: 0x036E [0x1F] MOVE_ENTITY: Update entity position (mode=1)
  3: 0x0370 [0x00] END_REQSTACK()
```

### Event 65535.24

#### Metadata

| Field        | Value    |
|--------------|----------|
| Entrypoint   | 0x0371   |
| Data Size    | 14 bytes |
| Instructions | 4        |

```
      00 01 02 03 04 05 06 07  08 09 0A 0B 0C 0D 0E 0F
      -- -- -- -- -- -- -- --  -- -- -- -- -- -- -- --
0370:    32 08 80 1F 00 3F 80  40 80 3E 80 1F 01 00      2....?.@.>.... 
```

#### Opcodes

```
  0: 0x0371 [0x32] ExtData[1]->MainSpeed = 13* * 0.1
  1: 0x0374 [0x1F] MOVE_ENTITY: EventEntity moves to X=579.003*, Z=-222.686*, Y=35.999*
  2: 0x037C [0x1F] MOVE_ENTITY: Update entity position (mode=1)
  3: 0x037E [0x00] END_REQSTACK()
```

### Event 65535.25

#### Metadata

| Field        | Value    |
|--------------|----------|
| Entrypoint   | 0x037F   |
| Data Size    | 14 bytes |
| Instructions | 4        |

```
      00 01 02 03 04 05 06 07  08 09 0A 0B 0C 0D 0E 0F
      -- -- -- -- -- -- -- --  -- -- -- -- -- -- -- --
0370:                                               32                 2
0380: 08 80 1F 00 41 80 42 80  43 80 1F 01 00           ....A.B.C....   
```

#### Opcodes

```
  0: 0x037F [0x32] ExtData[1]->MainSpeed = 13* * 0.1
  1: 0x0382 [0x1F] MOVE_ENTITY: EventEntity moves to X=578.906*, Z=-244.664*, Y=34.250*
  2: 0x038A [0x1F] MOVE_ENTITY: Update entity position (mode=1)
  3: 0x038C [0x00] END_REQSTACK()
```

### Event 65535.26

#### Metadata

| Field        | Value    |
|--------------|----------|
| Entrypoint   | 0x038D   |
| Data Size    | 14 bytes |
| Instructions | 4        |

```
      00 01 02 03 04 05 06 07  08 09 0A 0B 0C 0D 0E 0F
      -- -- -- -- -- -- -- --  -- -- -- -- -- -- -- --
0380:                                         32 08 80               2..
0390: 1F 00 44 80 45 80 10 80  1F 01 00                 ..D.E......     
```

#### Opcodes

```
  0: 0x038D [0x32] ExtData[1]->MainSpeed = 13* * 0.1
  1: 0x0390 [0x1F] MOVE_ENTITY: EventEntity moves to X=556.718*, Z=-365.727*, Y=0.000*
  2: 0x0398 [0x1F] MOVE_ENTITY: Update entity position (mode=1)
  3: 0x039A [0x00] END_REQSTACK()
```

### Event 65535.27

#### Metadata

| Field        | Value    |
|--------------|----------|
| Entrypoint   | 0x039B   |
| Data Size    | 14 bytes |
| Instructions | 4        |

```
      00 01 02 03 04 05 06 07  08 09 0A 0B 0C 0D 0E 0F
      -- -- -- -- -- -- -- --  -- -- -- -- -- -- -- --
0390:                                   32 35 80 1F 00             25...
03A0: 46 80 47 80 10 80 1F 01  00                       F.G......       
```

#### Opcodes

```
  0: 0x039B [0x32] ExtData[1]->MainSpeed = 10* * 0.1
  1: 0x039E [0x1F] MOVE_ENTITY: EventEntity moves to X=-293.206*, Z=-479.226*, Y=0.000*
  2: 0x03A6 [0x1F] MOVE_ENTITY: Update entity position (mode=1)
  3: 0x03A8 [0x00] END_REQSTACK()
```

### Event 65535.28

#### Metadata

| Field        | Value    |
|--------------|----------|
| Entrypoint   | 0x03A9   |
| Data Size    | 14 bytes |
| Instructions | 4        |

```
      00 01 02 03 04 05 06 07  08 09 0A 0B 0C 0D 0E 0F
      -- -- -- -- -- -- -- --  -- -- -- -- -- -- -- --
03A0:                             32 08 80 1F 00 48 80           2....H.
03B0: 49 80 3E 80 1F 01 00                              I.>....         
```

#### Opcodes

```
  0: 0x03A9 [0x32] ExtData[1]->MainSpeed = 13* * 0.1
  1: 0x03AC [0x1F] MOVE_ENTITY: EventEntity moves to X=582.011*, Z=-211.108*, Y=35.999*
  2: 0x03B4 [0x1F] MOVE_ENTITY: Update entity position (mode=1)
  3: 0x03B6 [0x00] END_REQSTACK()
```

### Event 65535.29

#### Metadata

| Field        | Value    |
|--------------|----------|
| Entrypoint   | 0x03B7   |
| Data Size    | 14 bytes |
| Instructions | 4        |

```
      00 01 02 03 04 05 06 07  08 09 0A 0B 0C 0D 0E 0F
      -- -- -- -- -- -- -- --  -- -- -- -- -- -- -- --
03B0:                      32  08 80 1F 00 4A 80 4B 80         2....J.K.
03C0: 3E 80 1F 01 00                                    >....           
```

#### Opcodes

```
  0: 0x03B7 [0x32] ExtData[1]->MainSpeed = 13* * 0.1
  1: 0x03BA [0x1F] MOVE_ENTITY: EventEntity moves to X=580.021*, Z=-228.200*, Y=35.999*
  2: 0x03C2 [0x1F] MOVE_ENTITY: Update entity position (mode=1)
  3: 0x03C4 [0x00] END_REQSTACK()
```

### Event 65535.30

#### Metadata

| Field        | Value    |
|--------------|----------|
| Entrypoint   | 0x03C5   |
| Data Size    | 28 bytes |
| Instructions | 6        |

```
      00 01 02 03 04 05 06 07  08 09 0A 0B 0C 0D 0E 0F
      -- -- -- -- -- -- -- --  -- -- -- -- -- -- -- --
03C0:                6E F0 FF  FF 7F 4C 80 99 F0 FF FF       n....L.....
03D0: 7F 1C 4D 80 6E F0 FF FF  7F 35 80 99 F0 FF FF 7F  ..M.n....5......
03E0: 00                                                .               
```

#### Opcodes

```
  0: 0x03C5 [0x6E] LocalPlayer uses emote 7*
  1: 0x03CC [0x99] Wait for LocalPlayer animation to complete
  2: 0x03D1 [0x1C] WAIT(90* ticks)
  3: 0x03D4 [0x6E] LocalPlayer uses emote 10*
  4: 0x03DB [0x99] Wait for LocalPlayer animation to complete
  5: 0x03E0 [0x00] END_REQSTACK()
```

### Event 65535.31

#### Metadata

| Field        | Value    |
|--------------|----------|
| Entrypoint   | 0x03E1   |
| Data Size    | 16 bytes |
| Instructions | 3        |

```
      00 01 02 03 04 05 06 07  08 09 0A 0B 0C 0D 0E 0F
      -- -- -- -- -- -- -- --  -- -- -- -- -- -- -- --
03E0:    6C F0 FF FF 7F 10 80  4E 80 92 01 F0 FF FF 7F   l......N.......
03F0: 00                                                .               
```

#### Opcodes

```
  0: 0x03E1 [0x6C] FADE_ENTITY_COLOR(entity_id=LocalPlayer, end_alpha=0*, fade_time=1*)
  1: 0x03EA [0x92] LocalPlayer->Render.Flags3 ^= 0x01
  2: 0x03F0 [0x00] END_REQSTACK()
```

### Event 65535.32

#### Metadata

| Field        | Value    |
|--------------|----------|
| Entrypoint   | 0x03F1   |
| Data Size    | 16 bytes |
| Instructions | 3        |

```
      00 01 02 03 04 05 06 07  08 09 0A 0B 0C 0D 0E 0F
      -- -- -- -- -- -- -- --  -- -- -- -- -- -- -- --
03F0:    6C F0 FF FF 7F 4F 80  4E 80 92 00 F0 FF FF 7F   l....O.N.......
0400: 00                                                .               
```

#### Opcodes

```
  0: 0x03F1 [0x6C] FADE_ENTITY_COLOR(entity_id=LocalPlayer, end_alpha=128*, fade_time=1*)
  1: 0x03FA [0x92] LocalPlayer->Render.Flags3 = Flags3  // No change (flag=0)
  2: 0x0400 [0x00] END_REQSTACK()
```

### Event 65535.33

#### Metadata

| Field        | Value    |
|--------------|----------|
| Entrypoint   | 0x0401   |
| Data Size    | 38 bytes |
| Instructions | 5        |

```
      00 01 02 03 04 05 06 07  08 09 0A 0B 0C 0D 0E 0F
      -- -- -- -- -- -- -- --  -- -- -- -- -- -- -- --
0400:    22 00 2F 00 F8 FF FF  7F B6 0B 50 80 10 80 51   "./.......P...Q
0410: 80 52 80 53 80 53 80 53  80 21 80 54 80 6C F8 FF  .R.S.S.S.!.T.l..
0420: FF 7F 55 80 4E 80 00                              ..U.N..         
```

#### Opcodes

```
  0: 0x0401 [0x22] ENTITY_HIDE_FLAG(enabled=0x00)
  1: 0x0403 [0x2F] EventEntity->Render.Flags0 &= ~0x80000 // Bit 19
  2: 0x0409 [0xB6] ENTITY_APPEARANCE_HANDLER(case=Full entity look, race=8*, hair=0*, head=145*, body=79*, hands=76*, legs=76*, feet=76*, main=201*, sub=262*)
  3: 0x041D [0x6C] FADE_ENTITY_COLOR(entity_id=EventEntity, end_alpha=64*, fade_time=1*)
  4: 0x0426 [0x00] END_REQSTACK()
```

### Event 65535.34

#### Metadata

| Field        | Value    |
|--------------|----------|
| Entrypoint   | 0x0427   |
| Data Size    | 38 bytes |
| Instructions | 5        |

```
      00 01 02 03 04 05 06 07  08 09 0A 0B 0C 0D 0E 0F
      -- -- -- -- -- -- -- --  -- -- -- -- -- -- -- --
0420:                      22  00 2F 00 F8 FF FF 7F B6         "./......
0430: 0B 4E 80 10 80 51 80 52  80 53 80 53 80 53 80 21  .N...Q.R.S.S.S.!
0440: 80 56 80 6C F8 FF FF 7F  57 80 4E 80 00           .V.l....W.N..   
```

#### Opcodes

```
  0: 0x0427 [0x22] ENTITY_HIDE_FLAG(enabled=0x00)
  1: 0x0429 [0x2F] EventEntity->Render.Flags0 &= ~0x80000 // Bit 19
  2: 0x042F [0xB6] ENTITY_APPEARANCE_HANDLER(case=Full entity look, race=1*, hair=0*, head=145*, body=79*, hands=76*, legs=76*, feet=76*, main=201*, sub=24*)
  3: 0x0443 [0x6C] FADE_ENTITY_COLOR(entity_id=EventEntity, end_alpha=80*, fade_time=1*)
  4: 0x044C [0x00] END_REQSTACK()
```

### Event 65535.35

#### Metadata

| Field        | Value    |
|--------------|----------|
| Entrypoint   | 0x044D   |
| Data Size    | 38 bytes |
| Instructions | 5        |

```
      00 01 02 03 04 05 06 07  08 09 0A 0B 0C 0D 0E 0F
      -- -- -- -- -- -- -- --  -- -- -- -- -- -- -- --
0440:                                         22 00 2F               "./
0450: 00 F8 FF FF 7F B6 0B 58  80 10 80 51 80 52 80 53  .......X...Q.R.S
0460: 80 53 80 53 80 21 80 56  80 6C F8 FF FF 7F 59 80  .S.S.!.V.l....Y.
0470: 4E 80 00                                          N..             
```

#### Opcodes

```
  0: 0x044D [0x22] ENTITY_HIDE_FLAG(enabled=0x00)
  1: 0x044F [0x2F] EventEntity->Render.Flags0 &= ~0x80000 // Bit 19
  2: 0x0455 [0xB6] ENTITY_APPEARANCE_HANDLER(case=Full entity look, race=4*, hair=0*, head=145*, body=79*, hands=76*, legs=76*, feet=76*, main=201*, sub=24*)
  3: 0x0469 [0x6C] FADE_ENTITY_COLOR(entity_id=EventEntity, end_alpha=96*, fade_time=1*)
  4: 0x0472 [0x00] END_REQSTACK()
```

### Event 65535.36

#### Metadata

| Field        | Value     |
|--------------|-----------|
| Entrypoint   | 0x0473    |
| Data Size    | 209 bytes |
| Instructions | 25        |

```
      00 01 02 03 04 05 06 07  08 09 0A 0B 0C 0D 0E 0F
      -- -- -- -- -- -- -- --  -- -- -- -- -- -- -- --
0470:          02 02 10 4E 80  80 8D 04 66 5A 80 F0 FF     ...N....fZ...
0480: FF 7F F0 FF FF 7F 65 63  61 30 01 43 05 02 02 10  ......eca0.C....
0490: 5B 80 80 A7 04 66 57 80  F0 FF FF 7F F0 FF FF 7F  [....fW.........
04A0: 65 63 61 30 01 43 05 02  02 10 5C 80 80 C1 04 66  eca0.C....\....f
04B0: 4D 80 F0 FF FF 7F F0 FF  FF 7F 65 63 61 30 01 43  M.........eca0.C
04C0: 05 02 02 10 58 80 80 DB  04 66 5D 80 F0 FF FF 7F  ....X....f].....
04D0: F0 FF FF 7F 65 63 61 30  01 43 05 02 02 10 1A 80  ....eca0.C......
04E0: 80 F5 04 66 5E 80 F0 FF  FF 7F F0 FF FF 7F 65 63  ...f^.........ec
04F0: 61 30 01 43 05 02 02 10  5F 80 80 0F 05 66 5E 80  a0.C...._....f^.
0500: F0 FF FF 7F F0 FF FF 7F  65 63 61 30 01 43 05 02  ........eca0.C..
0510: 02 10 4C 80 80 29 05 66  60 80 F0 FF FF 7F F0 FF  ..L..).f`.......
0520: FF 7F 65 63 61 30 01 43  05 02 02 10 50 80 80 43  ..eca0.C....P..C
0530: 05 66 61 80 F0 FF FF 7F  F0 FF FF 7F 65 63 61 30  .fa.........eca0
0540: 01 43 05 00                                       .C..            
```

#### Opcodes

```
  0: 0x0473 [0x02] IF !(Work_Zone[2] == 1*) GOTO 0x048D
  1: 0x047B [0x66] LOAD_EXT_SCHEDULER_MAIN: Load scheduler "eca0" with entities [LocalPlayer, LocalPlayer], work=70*
  2: 0x048A [0x01] GOTO 0x0543
  3: 0x048D [0x02] IF !(Work_Zone[2] == 2*) GOTO 0x04A7
  4: 0x0495 [0x66] LOAD_EXT_SCHEDULER_MAIN: Load scheduler "eca0" with entities [LocalPlayer, LocalPlayer], work=80*
  5: 0x04A4 [0x01] GOTO 0x0543
  6: 0x04A7 [0x02] IF !(Work_Zone[2] == 3*) GOTO 0x04C1
  7: 0x04AF [0x66] LOAD_EXT_SCHEDULER_MAIN: Load scheduler "eca0" with entities [LocalPlayer, LocalPlayer], work=90*
  8: 0x04BE [0x01] GOTO 0x0543
  9: 0x04C1 [0x02] IF !(Work_Zone[2] == 4*) GOTO 0x04DB
 10: 0x04C9 [0x66] LOAD_EXT_SCHEDULER_MAIN: Load scheduler "eca0" with entities [LocalPlayer, LocalPlayer], work=100*
 11: 0x04D8 [0x01] GOTO 0x0543
 12: 0x04DB [0x02] IF !(Work_Zone[2] == 5*) GOTO 0x04F5
 13: 0x04E3 [0x66] LOAD_EXT_SCHEDULER_MAIN: Load scheduler "eca0" with entities [LocalPlayer, LocalPlayer], work=110*
 14: 0x04F2 [0x01] GOTO 0x0543
 15: 0x04F5 [0x02] IF !(Work_Zone[2] == 6*) GOTO 0x050F
 16: 0x04FD [0x66] LOAD_EXT_SCHEDULER_MAIN: Load scheduler "eca0" with entities [LocalPlayer, LocalPlayer], work=110*
 17: 0x050C [0x01] GOTO 0x0543
 18: 0x050F [0x02] IF !(Work_Zone[2] == 7*) GOTO 0x0529
 19: 0x0517 [0x66] LOAD_EXT_SCHEDULER_MAIN: Load scheduler "eca0" with entities [LocalPlayer, LocalPlayer], work=120*
 20: 0x0526 [0x01] GOTO 0x0543
 21: 0x0529 [0x02] IF !(Work_Zone[2] == 8*) GOTO 0x0543
 22: 0x0531 [0x66] LOAD_EXT_SCHEDULER_MAIN: Load scheduler "eca0" with entities [LocalPlayer, LocalPlayer], work=130*
 23: 0x0540 [0x01] GOTO 0x0543

SUBROUTINE_0543:
 24: 0x0543 [0x00] END_REQSTACK()
```

### Event 65535.37

#### Metadata

| Field        | Value     |
|--------------|-----------|
| Entrypoint   | 0x0544    |
| Data Size    | 209 bytes |
| Instructions | 25        |

```
      00 01 02 03 04 05 06 07  08 09 0A 0B 0C 0D 0E 0F
      -- -- -- -- -- -- -- --  -- -- -- -- -- -- -- --
0540:             02 02 10 4E  80 80 5E 05 66 5A 80 F0      ...N..^.fZ..
0550: FF FF 7F F0 FF FF 7F 61  74 70 30 01 14 06 02 02  .......atp0.....
0560: 10 5B 80 80 78 05 66 57  80 F0 FF FF 7F F0 FF FF  .[..x.fW........
0570: 7F 61 74 70 30 01 14 06  02 02 10 5C 80 80 92 05  .atp0......\....
0580: 66 4D 80 F0 FF FF 7F F0  FF FF 7F 61 74 70 30 01  fM.........atp0.
0590: 14 06 02 02 10 58 80 80  AC 05 66 5D 80 F0 FF FF  .....X....f]....
05A0: 7F F0 FF FF 7F 61 74 70  30 01 14 06 02 02 10 1A  .....atp0.......
05B0: 80 80 C6 05 66 5E 80 F0  FF FF 7F F0 FF FF 7F 61  ....f^.........a
05C0: 74 70 30 01 14 06 02 02  10 5F 80 80 E0 05 66 5E  tp0......_....f^
05D0: 80 F0 FF FF 7F F0 FF FF  7F 61 74 70 30 01 14 06  .........atp0...
05E0: 02 02 10 4C 80 80 FA 05  66 60 80 F0 FF FF 7F F0  ...L....f`......
05F0: FF FF 7F 61 74 70 30 01  14 06 02 02 10 50 80 80  ...atp0......P..
0600: 14 06 66 61 80 F0 FF FF  7F F0 FF FF 7F 61 74 70  ..fa.........atp
0610: 30 01 14 06 00                                    0....           
```

#### Opcodes

```
  0: 0x0544 [0x02] IF !(Work_Zone[2] == 1*) GOTO 0x055E
  1: 0x054C [0x66] LOAD_EXT_SCHEDULER_MAIN: Load scheduler "atp0" with entities [LocalPlayer, LocalPlayer], work=70*
  2: 0x055B [0x01] GOTO 0x0614
  3: 0x055E [0x02] IF !(Work_Zone[2] == 2*) GOTO 0x0578
  4: 0x0566 [0x66] LOAD_EXT_SCHEDULER_MAIN: Load scheduler "atp0" with entities [LocalPlayer, LocalPlayer], work=80*
  5: 0x0575 [0x01] GOTO 0x0614
  6: 0x0578 [0x02] IF !(Work_Zone[2] == 3*) GOTO 0x0592
  7: 0x0580 [0x66] LOAD_EXT_SCHEDULER_MAIN: Load scheduler "atp0" with entities [LocalPlayer, LocalPlayer], work=90*
  8: 0x058F [0x01] GOTO 0x0614
  9: 0x0592 [0x02] IF !(Work_Zone[2] == 4*) GOTO 0x05AC
 10: 0x059A [0x66] LOAD_EXT_SCHEDULER_MAIN: Load scheduler "atp0" with entities [LocalPlayer, LocalPlayer], work=100*
 11: 0x05A9 [0x01] GOTO 0x0614
 12: 0x05AC [0x02] IF !(Work_Zone[2] == 5*) GOTO 0x05C6
 13: 0x05B4 [0x66] LOAD_EXT_SCHEDULER_MAIN: Load scheduler "atp0" with entities [LocalPlayer, LocalPlayer], work=110*
 14: 0x05C3 [0x01] GOTO 0x0614
 15: 0x05C6 [0x02] IF !(Work_Zone[2] == 6*) GOTO 0x05E0
 16: 0x05CE [0x66] LOAD_EXT_SCHEDULER_MAIN: Load scheduler "atp0" with entities [LocalPlayer, LocalPlayer], work=110*
 17: 0x05DD [0x01] GOTO 0x0614
 18: 0x05E0 [0x02] IF !(Work_Zone[2] == 7*) GOTO 0x05FA
 19: 0x05E8 [0x66] LOAD_EXT_SCHEDULER_MAIN: Load scheduler "atp0" with entities [LocalPlayer, LocalPlayer], work=120*
 20: 0x05F7 [0x01] GOTO 0x0614
 21: 0x05FA [0x02] IF !(Work_Zone[2] == 8*) GOTO 0x0614
 22: 0x0602 [0x66] LOAD_EXT_SCHEDULER_MAIN: Load scheduler "atp0" with entities [LocalPlayer, LocalPlayer], work=130*
 23: 0x0611 [0x01] GOTO 0x0614

SUBROUTINE_0614:
 24: 0x0614 [0x00] END_REQSTACK()
```

### Event 65535.38

#### Metadata

| Field        | Value     |
|--------------|-----------|
| Entrypoint   | 0x0615    |
| Data Size    | 209 bytes |
| Instructions | 25        |

```
      00 01 02 03 04 05 06 07  08 09 0A 0B 0C 0D 0E 0F
      -- -- -- -- -- -- -- --  -- -- -- -- -- -- -- --
0610:                02 02 10  4E 80 80 2F 06 66 62 80       ...N../.fb.
0620: F0 FF FF 7F F0 FF FF 7F  64 61 6B 30 01 E5 06 02  ........dak0....
0630: 02 10 5B 80 80 49 06 66  63 80 F0 FF FF 7F F0 FF  ..[..I.fc.......
0640: FF 7F 64 61 6B 30 01 E5  06 02 02 10 5C 80 80 63  ..dak0......\..c
0650: 06 66 64 80 F0 FF FF 7F  F0 FF FF 7F 64 61 6B 30  .fd.........dak0
0660: 01 E5 06 02 02 10 58 80  80 7D 06 66 65 80 F0 FF  ......X..}.fe...
0670: FF 7F F0 FF FF 7F 64 61  6B 30 01 E5 06 02 02 10  ......dak0......
0680: 1A 80 80 97 06 66 66 80  F0 FF FF 7F F0 FF FF 7F  .....ff.........
0690: 64 61 6B 30 01 E5 06 02  02 10 5F 80 80 B1 06 66  dak0......_....f
06A0: 66 80 F0 FF FF 7F F0 FF  FF 7F 64 61 6B 30 01 E5  f.........dak0..
06B0: 06 02 02 10 4C 80 80 CB  06 66 67 80 F0 FF FF 7F  ....L....fg.....
06C0: F0 FF FF 7F 64 61 6B 30  01 E5 06 02 02 10 50 80  ....dak0......P.
06D0: 80 E5 06 66 68 80 F0 FF  FF 7F F0 FF FF 7F 64 61  ...fh.........da
06E0: 6B 30 01 E5 06 00                                 k0....          
```

#### Opcodes

```
  0: 0x0615 [0x02] IF !(Work_Zone[2] == 1*) GOTO 0x062F
  1: 0x061D [0x66] LOAD_EXT_SCHEDULER_MAIN: Load scheduler "dak0" with entities [LocalPlayer, LocalPlayer], work=73*
  2: 0x062C [0x01] GOTO 0x06E5
  3: 0x062F [0x02] IF !(Work_Zone[2] == 2*) GOTO 0x0649
  4: 0x0637 [0x66] LOAD_EXT_SCHEDULER_MAIN: Load scheduler "dak0" with entities [LocalPlayer, LocalPlayer], work=83*
  5: 0x0646 [0x01] GOTO 0x06E5
  6: 0x0649 [0x02] IF !(Work_Zone[2] == 3*) GOTO 0x0663
  7: 0x0651 [0x66] LOAD_EXT_SCHEDULER_MAIN: Load scheduler "dak0" with entities [LocalPlayer, LocalPlayer], work=93*
  8: 0x0660 [0x01] GOTO 0x06E5
  9: 0x0663 [0x02] IF !(Work_Zone[2] == 4*) GOTO 0x067D
 10: 0x066B [0x66] LOAD_EXT_SCHEDULER_MAIN: Load scheduler "dak0" with entities [LocalPlayer, LocalPlayer], work=103*
 11: 0x067A [0x01] GOTO 0x06E5
 12: 0x067D [0x02] IF !(Work_Zone[2] == 5*) GOTO 0x0697
 13: 0x0685 [0x66] LOAD_EXT_SCHEDULER_MAIN: Load scheduler "dak0" with entities [LocalPlayer, LocalPlayer], work=113*
 14: 0x0694 [0x01] GOTO 0x06E5
 15: 0x0697 [0x02] IF !(Work_Zone[2] == 6*) GOTO 0x06B1
 16: 0x069F [0x66] LOAD_EXT_SCHEDULER_MAIN: Load scheduler "dak0" with entities [LocalPlayer, LocalPlayer], work=113*
 17: 0x06AE [0x01] GOTO 0x06E5
 18: 0x06B1 [0x02] IF !(Work_Zone[2] == 7*) GOTO 0x06CB
 19: 0x06B9 [0x66] LOAD_EXT_SCHEDULER_MAIN: Load scheduler "dak0" with entities [LocalPlayer, LocalPlayer], work=123*
 20: 0x06C8 [0x01] GOTO 0x06E5
 21: 0x06CB [0x02] IF !(Work_Zone[2] == 8*) GOTO 0x06E5
 22: 0x06D3 [0x66] LOAD_EXT_SCHEDULER_MAIN: Load scheduler "dak0" with entities [LocalPlayer, LocalPlayer], work=133*
 23: 0x06E2 [0x01] GOTO 0x06E5

SUBROUTINE_06E5:
 24: 0x06E5 [0x00] END_REQSTACK()
```

### Event 65535.39

#### Metadata

| Field        | Value     |
|--------------|-----------|
| Entrypoint   | 0x06E6    |
| Data Size    | 209 bytes |
| Instructions | 25        |

```
      00 01 02 03 04 05 06 07  08 09 0A 0B 0C 0D 0E 0F
      -- -- -- -- -- -- -- --  -- -- -- -- -- -- -- --
06E0:                   02 02  10 4E 80 80 00 07 66 62        ...N....fb
06F0: 80 F0 FF FF 7F F0 FF FF  7F 64 61 6B 31 01 B6 07  .........dak1...
0700: 02 02 10 5B 80 80 1A 07  66 63 80 F0 FF FF 7F F0  ...[....fc......
0710: FF FF 7F 64 61 6B 31 01  B6 07 02 02 10 5C 80 80  ...dak1......\..
0720: 34 07 66 64 80 F0 FF FF  7F F0 FF FF 7F 64 61 6B  4.fd.........dak
0730: 31 01 B6 07 02 02 10 58  80 80 4E 07 66 65 80 F0  1......X..N.fe..
0740: FF FF 7F F0 FF FF 7F 64  61 6B 31 01 B6 07 02 02  .......dak1.....
0750: 10 1A 80 80 68 07 66 66  80 F0 FF FF 7F F0 FF FF  ....h.ff........
0760: 7F 64 61 6B 31 01 B6 07  02 02 10 5F 80 80 82 07  .dak1......_....
0770: 66 66 80 F0 FF FF 7F F0  FF FF 7F 64 61 6B 31 01  ff.........dak1.
0780: B6 07 02 02 10 4C 80 80  9C 07 66 67 80 F0 FF FF  .....L....fg....
0790: 7F F0 FF FF 7F 64 61 6B  31 01 B6 07 02 02 10 50  .....dak1......P
07A0: 80 80 B6 07 66 68 80 F0  FF FF 7F F0 FF FF 7F 64  ....fh.........d
07B0: 61 6B 31 01 B6 07 00                              ak1....         
```

#### Opcodes

```
  0: 0x06E6 [0x02] IF !(Work_Zone[2] == 1*) GOTO 0x0700
  1: 0x06EE [0x66] LOAD_EXT_SCHEDULER_MAIN: Load scheduler "dak1" with entities [LocalPlayer, LocalPlayer], work=73*
  2: 0x06FD [0x01] GOTO 0x07B6
  3: 0x0700 [0x02] IF !(Work_Zone[2] == 2*) GOTO 0x071A
  4: 0x0708 [0x66] LOAD_EXT_SCHEDULER_MAIN: Load scheduler "dak1" with entities [LocalPlayer, LocalPlayer], work=83*
  5: 0x0717 [0x01] GOTO 0x07B6
  6: 0x071A [0x02] IF !(Work_Zone[2] == 3*) GOTO 0x0734
  7: 0x0722 [0x66] LOAD_EXT_SCHEDULER_MAIN: Load scheduler "dak1" with entities [LocalPlayer, LocalPlayer], work=93*
  8: 0x0731 [0x01] GOTO 0x07B6
  9: 0x0734 [0x02] IF !(Work_Zone[2] == 4*) GOTO 0x074E
 10: 0x073C [0x66] LOAD_EXT_SCHEDULER_MAIN: Load scheduler "dak1" with entities [LocalPlayer, LocalPlayer], work=103*
 11: 0x074B [0x01] GOTO 0x07B6
 12: 0x074E [0x02] IF !(Work_Zone[2] == 5*) GOTO 0x0768
 13: 0x0756 [0x66] LOAD_EXT_SCHEDULER_MAIN: Load scheduler "dak1" with entities [LocalPlayer, LocalPlayer], work=113*
 14: 0x0765 [0x01] GOTO 0x07B6
 15: 0x0768 [0x02] IF !(Work_Zone[2] == 6*) GOTO 0x0782
 16: 0x0770 [0x66] LOAD_EXT_SCHEDULER_MAIN: Load scheduler "dak1" with entities [LocalPlayer, LocalPlayer], work=113*
 17: 0x077F [0x01] GOTO 0x07B6
 18: 0x0782 [0x02] IF !(Work_Zone[2] == 7*) GOTO 0x079C
 19: 0x078A [0x66] LOAD_EXT_SCHEDULER_MAIN: Load scheduler "dak1" with entities [LocalPlayer, LocalPlayer], work=123*
 20: 0x0799 [0x01] GOTO 0x07B6
 21: 0x079C [0x02] IF !(Work_Zone[2] == 8*) GOTO 0x07B6
 22: 0x07A4 [0x66] LOAD_EXT_SCHEDULER_MAIN: Load scheduler "dak1" with entities [LocalPlayer, LocalPlayer], work=133*
 23: 0x07B3 [0x01] GOTO 0x07B6

SUBROUTINE_07B6:
 24: 0x07B6 [0x00] END_REQSTACK()
```

### Event 65535.40

#### Metadata

| Field        | Value     |
|--------------|-----------|
| Entrypoint   | 0x07B7    |
| Data Size    | 209 bytes |
| Instructions | 25        |

```
      00 01 02 03 04 05 06 07  08 09 0A 0B 0C 0D 0E 0F
      -- -- -- -- -- -- -- --  -- -- -- -- -- -- -- --
07B0:                      02  02 10 4E 80 80 D1 07 66         ...N....f
07C0: 62 80 F0 FF FF 7F F0 FF  FF 7F 64 61 6B 32 01 87  b.........dak2..
07D0: 08 02 02 10 5B 80 80 EB  07 66 63 80 F0 FF FF 7F  ....[....fc.....
07E0: F0 FF FF 7F 64 61 6B 32  01 87 08 02 02 10 5C 80  ....dak2......\.
07F0: 80 05 08 66 64 80 F0 FF  FF 7F F0 FF FF 7F 64 61  ...fd.........da
0800: 6B 32 01 87 08 02 02 10  58 80 80 1F 08 66 65 80  k2......X....fe.
0810: F0 FF FF 7F F0 FF FF 7F  64 61 6B 32 01 87 08 02  ........dak2....
0820: 02 10 1A 80 80 39 08 66  66 80 F0 FF FF 7F F0 FF  .....9.ff.......
0830: FF 7F 64 61 6B 32 01 87  08 02 02 10 5F 80 80 53  ..dak2......_..S
0840: 08 66 66 80 F0 FF FF 7F  F0 FF FF 7F 64 61 6B 32  .ff.........dak2
0850: 01 87 08 02 02 10 4C 80  80 6D 08 66 67 80 F0 FF  ......L..m.fg...
0860: FF 7F F0 FF FF 7F 64 61  6B 32 01 87 08 02 02 10  ......dak2......
0870: 50 80 80 87 08 66 68 80  F0 FF FF 7F F0 FF FF 7F  P....fh.........
0880: 64 61 6B 32 01 87 08 00                           dak2....        
```

#### Opcodes

```
  0: 0x07B7 [0x02] IF !(Work_Zone[2] == 1*) GOTO 0x07D1
  1: 0x07BF [0x66] LOAD_EXT_SCHEDULER_MAIN: Load scheduler "dak2" with entities [LocalPlayer, LocalPlayer], work=73*
  2: 0x07CE [0x01] GOTO 0x0887
  3: 0x07D1 [0x02] IF !(Work_Zone[2] == 2*) GOTO 0x07EB
  4: 0x07D9 [0x66] LOAD_EXT_SCHEDULER_MAIN: Load scheduler "dak2" with entities [LocalPlayer, LocalPlayer], work=83*
  5: 0x07E8 [0x01] GOTO 0x0887
  6: 0x07EB [0x02] IF !(Work_Zone[2] == 3*) GOTO 0x0805
  7: 0x07F3 [0x66] LOAD_EXT_SCHEDULER_MAIN: Load scheduler "dak2" with entities [LocalPlayer, LocalPlayer], work=93*
  8: 0x0802 [0x01] GOTO 0x0887
  9: 0x0805 [0x02] IF !(Work_Zone[2] == 4*) GOTO 0x081F
 10: 0x080D [0x66] LOAD_EXT_SCHEDULER_MAIN: Load scheduler "dak2" with entities [LocalPlayer, LocalPlayer], work=103*
 11: 0x081C [0x01] GOTO 0x0887
 12: 0x081F [0x02] IF !(Work_Zone[2] == 5*) GOTO 0x0839
 13: 0x0827 [0x66] LOAD_EXT_SCHEDULER_MAIN: Load scheduler "dak2" with entities [LocalPlayer, LocalPlayer], work=113*
 14: 0x0836 [0x01] GOTO 0x0887
 15: 0x0839 [0x02] IF !(Work_Zone[2] == 6*) GOTO 0x0853
 16: 0x0841 [0x66] LOAD_EXT_SCHEDULER_MAIN: Load scheduler "dak2" with entities [LocalPlayer, LocalPlayer], work=113*
 17: 0x0850 [0x01] GOTO 0x0887
 18: 0x0853 [0x02] IF !(Work_Zone[2] == 7*) GOTO 0x086D
 19: 0x085B [0x66] LOAD_EXT_SCHEDULER_MAIN: Load scheduler "dak2" with entities [LocalPlayer, LocalPlayer], work=123*
 20: 0x086A [0x01] GOTO 0x0887
 21: 0x086D [0x02] IF !(Work_Zone[2] == 8*) GOTO 0x0887
 22: 0x0875 [0x66] LOAD_EXT_SCHEDULER_MAIN: Load scheduler "dak2" with entities [LocalPlayer, LocalPlayer], work=133*
 23: 0x0884 [0x01] GOTO 0x0887

SUBROUTINE_0887:
 24: 0x0887 [0x00] END_REQSTACK()
```

### Event 65535.41

#### Metadata

| Field        | Value    |
|--------------|----------|
| Entrypoint   | 0x0888   |
| Data Size    | 48 bytes |
| Instructions | 9        |

```
      00 01 02 03 04 05 06 07  08 09 0A 0B 0C 0D 0E 0F
      -- -- -- -- -- -- -- --  -- -- -- -- -- -- -- --
0880:                          03 01 00 69 80 03 02 00          ...i....
0890: 6A 80 02 02 00 10 80 04  B7 08 BA F0 FF FF 7F 6B  j..............k
08A0: 80 6C 80 01 00 6D 80 08  02 00 35 80 07 01 00 5D  .l...m....5....]
08B0: 80 1C 4E 80 01 92 08 00                           ..N.....        
```

#### Opcodes

```
  0: 0x0888 [0x03] ExtData[1]->WorkLocal[1] = 4294966296*
  1: 0x088D [0x03] ExtData[1]->WorkLocal[2] = 3000*
  2: 0x0892 [0x02] IF !(ExtData[1]->WorkLocal[2] < 0*) GOTO 0x08B7
  3: 0x089A [0xBA] SET_ENTITY_POSITION(entity_id=LocalPlayer, pos_x=529.460*, pos_z=-372.789*, pos_y=ExtData[1]->WorkLocal[1], direction=342.5°*)
  4: 0x08A7 [0x08] ExtData[1]->WorkLocal[2] -= 10*
  5: 0x08AC [0x07] ExtData[1]->WorkLocal[1] += 100*
  6: 0x08B1 [0x1C] WAIT(1* ticks)
  7: 0x08B4 [0x01] GOTO 0x0892
  8: 0x08B7 [0x00] END_REQSTACK()
```

### Event 65535.42

#### Metadata

| Field        | Value    |
|--------------|----------|
| Entrypoint   | 0x08B8   |
| Data Size    | 11 bytes |
| Instructions | 3        |

```
      00 01 02 03 04 05 06 07  08 09 0A 0B 0C 0D 0E 0F
      -- -- -- -- -- -- -- --  -- -- -- -- -- -- -- --
08B0:                          1F 00 6E 80 6F 80 10 80          ..n.o...
08C0: 1F 01 00                                          ...             
```

#### Opcodes

```
  0: 0x08B8 [0x1F] MOVE_ENTITY: EventEntity moves to X=-299.017*, Z=-478.685*, Y=0.000*
  1: 0x08C0 [0x1F] MOVE_ENTITY: Update entity position (mode=1)
  2: 0x08C2 [0x00] END_REQSTACK()
```

### Event 65535.43

#### Metadata

| Field        | Value    |
|--------------|----------|
| Entrypoint   | 0x08C3   |
| Data Size    | 16 bytes |
| Instructions | 4        |

```
      00 01 02 03 04 05 06 07  08 09 0A 0B 0C 0D 0E 0F
      -- -- -- -- -- -- -- --  -- -- -- -- -- -- -- --
08C0:          1C 4D 80 6E F0  FF FF 7F 70 80 99 F0 FF     .M.n....p....
08D0: FF 7F 00                                          ...             
```

#### Opcodes

```
  0: 0x08C3 [0x1C] WAIT(90* ticks)
  1: 0x08C6 [0x6E] LocalPlayer uses emote 20*
  2: 0x08CD [0x99] Wait for LocalPlayer animation to complete
  3: 0x08D2 [0x00] END_REQSTACK()
```

### Event 65535.44

#### Metadata

| Field        | Value    |
|--------------|----------|
| Entrypoint   | 0x08D3   |
| Data Size    | 37 bytes |
| Instructions | 5        |

```
      00 01 02 03 04 05 06 07  08 09 0A 0B 0C 0D 0E 0F
      -- -- -- -- -- -- -- --  -- -- -- -- -- -- -- --
08D0:          03 03 00 07 7F  1A 4D 09 66 04 00 F8 FF     ......M.f....
08E0: FF 7F F8 FF FF 7F 73 68  61 30 53 F8 FF FF 7F F8  ......sha0S.....
08F0: FF FF 7F 73 68 61 30 00                           ...sha0.        
```

#### Opcodes

```
  0: 0x08D3 [0x03] ExtData[1]->WorkLocal[3] = Entity->Race
  1: 0x08D8 [0x1A] CALL_SUBROUTINE(address=0x094D)
  2: 0x08DB [0x66] LOAD_EXT_SCHEDULER_MAIN: Load scheduler "sha0" with entities [EventEntity, EventEntity], work=ExtData[1]->WorkLocal[4]
  3: 0x08EA [0x53] WAIT_SCHEDULER_TASK: Wait for scheduler "sha0" with entities [EventEntity, EventEntity]
  4: 0x08F7 [0x00] END_REQSTACK()
```

### Event 65535.45

#### Metadata

| Field        | Value    |
|--------------|----------|
| Entrypoint   | 0x08F8   |
| Data Size    | 37 bytes |
| Instructions | 5        |

```
      00 01 02 03 04 05 06 07  08 09 0A 0B 0C 0D 0E 0F
      -- -- -- -- -- -- -- --  -- -- -- -- -- -- -- --
08F0:                          03 03 00 07 7F 1A 4D 09          ......M.
0900: 66 04 00 F8 FF FF 7F F8  FF FF 7F 73 68 61 31 53  f..........sha1S
0910: F8 FF FF 7F F8 FF FF 7F  73 68 61 31 00           ........sha1.   
```

#### Opcodes

```
  0: 0x08F8 [0x03] ExtData[1]->WorkLocal[3] = Entity->Race
  1: 0x08FD [0x1A] CALL_SUBROUTINE(address=0x094D)
  2: 0x0900 [0x66] LOAD_EXT_SCHEDULER_MAIN: Load scheduler "sha1" with entities [EventEntity, EventEntity], work=ExtData[1]->WorkLocal[4]
  3: 0x090F [0x53] WAIT_SCHEDULER_TASK: Wait for scheduler "sha1" with entities [EventEntity, EventEntity]
  4: 0x091C [0x00] END_REQSTACK()
```

### Event 65535.46

#### Metadata

| Field        | Value    |
|--------------|----------|
| Entrypoint   | 0x091D   |
| Data Size    | 24 bytes |
| Instructions | 4        |

```
      00 01 02 03 04 05 06 07  08 09 0A 0B 0C 0D 0E 0F
      -- -- -- -- -- -- -- --  -- -- -- -- -- -- -- --
0910:                                         03 03 00               ...
0920: 07 7F 1A 4D 09 66 04 00  F8 FF FF 7F F8 FF FF 7F  ...M.f..........
0930: 74 6C 6B 30 00                                    tlk0.           
```

#### Opcodes

```
  0: 0x091D [0x03] ExtData[1]->WorkLocal[3] = Entity->Race
  1: 0x0922 [0x1A] CALL_SUBROUTINE(address=0x094D)
  2: 0x0925 [0x66] LOAD_EXT_SCHEDULER_MAIN: Load scheduler "tlk0" with entities [EventEntity, EventEntity], work=ExtData[1]->WorkLocal[4]
  3: 0x0934 [0x00] END_REQSTACK()
```

### Event 65535.47

#### Metadata

| Field        | Value     |
|--------------|-----------|
| Entrypoint   | 0x0935    |
| Data Size    | 172 bytes |
| Instructions | 12        |

```
      00 01 02 03 04 05 06 07  08 09 0A 0B 0C 0D 0E 0F
      -- -- -- -- -- -- -- --  -- -- -- -- -- -- -- --
0930:                03 03 00  07 7F 1A 4D 09 66 04 00       ......M.f..
0940: F8 FF FF 7F F8 FF FF 7F  74 6C 6B 31 00 03 04 00  ........tlk1....
0950: 03 00 02 04 00 1A 80 05  62 09 08 04 00 4E 80 01  ........b....N..
0960: 67 09 08 04 00 5B 80 14  04 00 35 80 07 04 00 71  g....[....5....q
0970: 80 1B 03 04 00 03 00 02  04 00 1A 80 05 87 09 08  ................
0980: 04 00 4E 80 01 8C 09 08  04 00 5B 80 14 04 00 35  ..N.......[....5
0990: 80 07 04 00 5A 80 1B 03  04 00 03 00 02 04 00 1A  ....Z...........
09A0: 80 05 AC 09 08 04 00 4E  80 01 B1 09 08 04 00 5B  .......N.......[
09B0: 80 14 04 00 35 80 07 04  00 72 80 1B 03 04 00 03  ....5....r......
09C0: 00 02 04 00 1A 80 05 D1  09 08 04 00 4E 80 01 D6  ............N...
09D0: 09 08 04 00 5B 80 14 04  00 35 80 07 04 00 73 80  ....[....5....s.
09E0: 1B                                                .               
```

#### Opcodes

```
  0: 0x0935 [0x03] ExtData[1]->WorkLocal[3] = Entity->Race
  1: 0x093A [0x1A] CALL_SUBROUTINE(address=0x094D)
  2: 0x093D [0x66] LOAD_EXT_SCHEDULER_MAIN: Load scheduler "tlk1" with entities [EventEntity, EventEntity], work=ExtData[1]->WorkLocal[4]
  3: 0x094C [0x00] END_REQSTACK()

SUBROUTINE_094D:
  4: 0x094D [0x03] ExtData[1]->WorkLocal[4] = ExtData[1]->WorkLocal[3]
  5: 0x0952 [0x02] IF !(ExtData[1]->WorkLocal[4] > 5*) GOTO 0x0962
  6: 0x095A [0x08] ExtData[1]->WorkLocal[4] -= 1*
  7: 0x095F [0x01] GOTO 0x0967
  8: 0x0962 [0x08] ExtData[1]->WorkLocal[4] -= 2*

SUBROUTINE_0967:
  9: 0x0967 [0x14] ExtData[1]->WorkLocal[4] *= 10*
 10: 0x096C [0x07] ExtData[1]->WorkLocal[4] += 9*
 11: 0x0971 [0x1B] RETURN
```

#### Data or dead code:

```
# Dead code (unreachable instructions):
     0x0972 [0x03] ExtData[1]->WorkLocal[4] = ExtData[1]->WorkLocal[3]
     0x0977 [0x02] IF !(ExtData[1]->WorkLocal[4] > 5*) GOTO 0x0987
     0x097F [0x08] ExtData[1]->WorkLocal[4] -= 1*
     0x0984 [0x01] GOTO 0x098C
     0x0987 [0x08] ExtData[1]->WorkLocal[4] -= 2*
     0x098C [0x14] ExtData[1]->WorkLocal[4] *= 10*
     0x0991 [0x07] ExtData[1]->WorkLocal[4] += 70*
     0x0996 [0x1B] RETURN
     0x0997 [0x03] ExtData[1]->WorkLocal[4] = ExtData[1]->WorkLocal[3]
     0x099C [0x02] IF !(ExtData[1]->WorkLocal[4] > 5*) GOTO 0x09AC
     0x09A4 [0x08] ExtData[1]->WorkLocal[4] -= 1*
     0x09A9 [0x01] GOTO 0x09B1
     0x09AC [0x08] ExtData[1]->WorkLocal[4] -= 2*
     0x09B1 [0x14] ExtData[1]->WorkLocal[4] *= 10*
     0x09B6 [0x07] ExtData[1]->WorkLocal[4] += 140*
     0x09BB [0x1B] RETURN
     0x09BC [0x03] ExtData[1]->WorkLocal[4] = ExtData[1]->WorkLocal[3]
     0x09C1 [0x02] IF !(ExtData[1]->WorkLocal[4] > 5*) GOTO 0x09D1
     0x09C9 [0x08] ExtData[1]->WorkLocal[4] -= 1*
     0x09CE [0x01] GOTO 0x09D6
     0x09D1 [0x08] ExtData[1]->WorkLocal[4] -= 2*
     0x09D6 [0x14] ExtData[1]->WorkLocal[4] *= 10*
     0x09DB [0x07] ExtData[1]->WorkLocal[4] += 210*
     0x09E0 [0x1B] RETURN
```

### Event 65535.48

#### Metadata

| Field        | Value   |
|--------------|---------|
| Entrypoint   | 0x09E1  |
| Data Size    | 6 bytes |
| Instructions | 2       |

```
      00 01 02 03 04 05 06 07  08 09 0A 0B 0C 0D 0E 0F
      -- -- -- -- -- -- -- --  -- -- -- -- -- -- -- --
09E0:    03 02 10 07 7F 00                               ......         
```

#### Opcodes

```
  0: 0x09E1 [0x03] Work_Zone[2] = Entity->Race
  1: 0x09E6 [0x00] END_REQSTACK()
```

### Event 65535.49

#### Metadata

| Field        | Value   |
|--------------|---------|
| Entrypoint   | 0x09E7  |
| Data Size    | 6 bytes |
| Instructions | 2       |

```
      00 01 02 03 04 05 06 07  08 09 0A 0B 0C 0D 0E 0F
      -- -- -- -- -- -- -- --  -- -- -- -- -- -- -- --
09E0:                      03  02 10 0B 7F 00                  ......   
```

#### Opcodes

```
  0: 0x09E7 [0x03] Work_Zone[2] = (Entity->Render.Flags01 >> 25) & 1
  1: 0x09EC [0x00] END_REQSTACK()
```

### Event 65535.50

#### Metadata

| Field        | Value   |
|--------------|---------|
| Entrypoint   | 0x09ED  |
| Data Size    | 5 bytes |
| Instructions | 2       |

```
      00 01 02 03 04 05 06 07  08 09 0A 0B 0C 0D 0E 0F
      -- -- -- -- -- -- -- --  -- -- -- -- -- -- -- --
09E0:                                         B6 0F 74               ..t
09F0: 80 00                                             ..              
```

#### Opcodes

```
  0: 0x09ED [0xB6] ENTITY_APPEARANCE_HANDLER(case=Model size, value=87*)
  1: 0x09F1 [0x00] END_REQSTACK()
```

### Event 65535.51

#### Metadata

| Field        | Value   |
|--------------|---------|
| Entrypoint   | 0x09F2  |
| Data Size    | 5 bytes |
| Instructions | 2       |

```
      00 01 02 03 04 05 06 07  08 09 0A 0B 0C 0D 0E 0F
      -- -- -- -- -- -- -- --  -- -- -- -- -- -- -- --
09F0:       B6 0F 64 80 00                                ..d..         
```

#### Opcodes

```
  0: 0x09F2 [0xB6] ENTITY_APPEARANCE_HANDLER(case=Model size, value=93*)
  1: 0x09F6 [0x00] END_REQSTACK()
```

### Event 65535.52

#### Metadata

| Field        | Value   |
|--------------|---------|
| Entrypoint   | 0x09F7  |
| Data Size    | 5 bytes |
| Instructions | 2       |

```
      00 01 02 03 04 05 06 07  08 09 0A 0B 0C 0D 0E 0F
      -- -- -- -- -- -- -- --  -- -- -- -- -- -- -- --
09F0:                      B6  0F 59 80 00                     ..Y..    
```

#### Opcodes

```
  0: 0x09F7 [0xB6] ENTITY_APPEARANCE_HANDLER(case=Model size, value=96*)
  1: 0x09FB [0x00] END_REQSTACK()
```

### Event 65535.53

#### Metadata

| Field        | Value   |
|--------------|---------|
| Entrypoint   | 0x09FC  |
| Data Size    | 5 bytes |
| Instructions | 2       |

```
      00 01 02 03 04 05 06 07  08 09 0A 0B 0C 0D 0E 0F
      -- -- -- -- -- -- -- --  -- -- -- -- -- -- -- --
09F0:                                      B6 0F 5D 80              ..].
0A00: 00                                                .               
```

#### Opcodes

```
  0: 0x09FC [0xB6] ENTITY_APPEARANCE_HANDLER(case=Model size, value=100*)
  1: 0x0A00 [0x00] END_REQSTACK()
```

### Event 65535.54

#### Metadata

| Field        | Value     |
|--------------|-----------|
| Entrypoint   | 0x0A01    |
| Data Size    | 345 bytes |
| Instructions | 33        |

```
      00 01 02 03 04 05 06 07  08 09 0A 0B 0C 0D 0E 0F
      -- -- -- -- -- -- -- --  -- -- -- -- -- -- -- --
0A00:    02 87 7F 4E 80 80 2C  0A 5F 04 75 80 F0 FF FF   ...N..,._.u....
0A10: 7F F0 FF FF 7F 6B 69 7A  6D 5F 03 76 80 3E 82 07  .....kizm_.v.>..
0A20: 01 3E 82 07 01 68 6D 6D  6D 01 59 0B 02 87 7F 5B  .>...hmmm.Y....[
0A30: 80 80 57 0A 5F 04 77 80  F0 FF FF 7F F0 FF FF 7F  ..W._.w.........
0A40: 6B 69 7A 6D 5F 03 76 80  3E 82 07 01 3E 82 07 01  kizm_.v.>...>...
0A50: 68 66 6D 6D 01 59 0B 02  87 7F 5C 80 80 82 0A 5F  hfmm.Y....\...._
0A60: 04 78 80 F0 FF FF 7F F0  FF FF 7F 6B 69 7A 6D 5F  .x.........kizm_
0A70: 03 76 80 3E 82 07 01 3E  82 07 01 65 6D 6D 6D 01  .v.>...>...emmm.
0A80: 59 0B 02 87 7F 58 80 80  AD 0A 5F 04 79 80 F0 FF  Y....X...._.y...
0A90: FF 7F F0 FF FF 7F 6B 69  7A 6D 5F 03 76 80 3E 82  ......kizm_.v.>.
0AA0: 07 01 3E 82 07 01 65 66  6D 6D 01 59 0B 02 87 7F  ..>...efmm.Y....
0AB0: 1A 80 80 D8 0A 5F 04 7A  80 F0 FF FF 7F F0 FF FF  ....._.z........
0AC0: 7F 6B 69 7A 6D 5F 03 76  80 3E 82 07 01 3E 82 07  .kizm_.v.>...>..
0AD0: 01 74 6D 61 6D 01 59 0B  02 87 7F 5F 80 80 03 0B  .tmam.Y...._....
0AE0: 5F 04 7A 80 F0 FF FF 7F  F0 FF FF 7F 6B 69 7A 6D  _.z.........kizm
0AF0: 5F 03 76 80 3E 82 07 01  3E 82 07 01 74 6D 61 6D  _.v.>...>...tmam
0B00: 01 59 0B 02 87 7F 4C 80  80 2E 0B 5F 04 7B 80 F0  .Y....L...._.{..
0B10: FF FF 7F F0 FF FF 7F 6B  69 7A 6D 5F 03 76 80 3E  .......kizm_.v.>
0B20: 82 07 01 3E 82 07 01 6D  6D 61 6D 01 59 0B 02 87  ...>...mmam.Y...
0B30: 7F 50 80 80 59 0B 5F 04  21 80 F0 FF FF 7F F0 FF  .P..Y._.!.......
0B40: FF 7F 6B 69 7A 6D 5F 03  76 80 3E 82 07 01 3E 82  ..kizm_.v.>...>.
0B50: 07 01 67 6D 61 6D 01 59  0B 00                    ..gmam.Y..      
```

#### Opcodes

```
  0: 0x0A01 [0x02] IF !(LocalPlayer->Race == 1*) GOTO 0x0A2C
  1: 0x0A09 [0x5F] MULTI_HANDLER_COMPLEX(mode=0x04 - Load ext scheduler (OpCode 0x5B mode 1), ref=141*, entity1=LocalPlayer, entity2=LocalPlayer, string="kizm")
  2: 0x0A19 [0x5F] MULTI_HANDLER_COMPLEX(mode=0x03 - Load ext scheduler (OpCode 0x5B mode 0), ref=3878*, entity1=Unnamed NPC (ID: 17269310/0x0107823E), entity2=Unnamed NPC (ID: 17269310/0x0107823E), string="hmmm")
  3: 0x0A29 [0x01] GOTO 0x0B59
  4: 0x0A2C [0x02] IF !(LocalPlayer->Race == 2*) GOTO 0x0A57
  5: 0x0A34 [0x5F] MULTI_HANDLER_COMPLEX(mode=0x04 - Load ext scheduler (OpCode 0x5B mode 1), ref=151*, entity1=LocalPlayer, entity2=LocalPlayer, string="kizm")
  6: 0x0A44 [0x5F] MULTI_HANDLER_COMPLEX(mode=0x03 - Load ext scheduler (OpCode 0x5B mode 0), ref=3878*, entity1=Unnamed NPC (ID: 17269310/0x0107823E), entity2=Unnamed NPC (ID: 17269310/0x0107823E), string="hfmm")
  7: 0x0A54 [0x01] GOTO 0x0B59
  8: 0x0A57 [0x02] IF !(LocalPlayer->Race == 3*) GOTO 0x0A82
  9: 0x0A5F [0x5F] MULTI_HANDLER_COMPLEX(mode=0x04 - Load ext scheduler (OpCode 0x5B mode 1), ref=161*, entity1=LocalPlayer, entity2=LocalPlayer, string="kizm")
 10: 0x0A6F [0x5F] MULTI_HANDLER_COMPLEX(mode=0x03 - Load ext scheduler (OpCode 0x5B mode 0), ref=3878*, entity1=Unnamed NPC (ID: 17269310/0x0107823E), entity2=Unnamed NPC (ID: 17269310/0x0107823E), string="emmm")
 11: 0x0A7F [0x01] GOTO 0x0B59
 12: 0x0A82 [0x02] IF !(LocalPlayer->Race == 4*) GOTO 0x0AAD
 13: 0x0A8A [0x5F] MULTI_HANDLER_COMPLEX(mode=0x04 - Load ext scheduler (OpCode 0x5B mode 1), ref=171*, entity1=LocalPlayer, entity2=LocalPlayer, string="kizm")
 14: 0x0A9A [0x5F] MULTI_HANDLER_COMPLEX(mode=0x03 - Load ext scheduler (OpCode 0x5B mode 0), ref=3878*, entity1=Unnamed NPC (ID: 17269310/0x0107823E), entity2=Unnamed NPC (ID: 17269310/0x0107823E), string="efmm")
 15: 0x0AAA [0x01] GOTO 0x0B59
 16: 0x0AAD [0x02] IF !(LocalPlayer->Race == 5*) GOTO 0x0AD8
 17: 0x0AB5 [0x5F] MULTI_HANDLER_COMPLEX(mode=0x04 - Load ext scheduler (OpCode 0x5B mode 1), ref=181*, entity1=LocalPlayer, entity2=LocalPlayer, string="kizm")
 18: 0x0AC5 [0x5F] MULTI_HANDLER_COMPLEX(mode=0x03 - Load ext scheduler (OpCode 0x5B mode 0), ref=3878*, entity1=Unnamed NPC (ID: 17269310/0x0107823E), entity2=Unnamed NPC (ID: 17269310/0x0107823E), string="tmam")
 19: 0x0AD5 [0x01] GOTO 0x0B59
 20: 0x0AD8 [0x02] IF !(LocalPlayer->Race == 6*) GOTO 0x0B03
 21: 0x0AE0 [0x5F] MULTI_HANDLER_COMPLEX(mode=0x04 - Load ext scheduler (OpCode 0x5B mode 1), ref=181*, entity1=LocalPlayer, entity2=LocalPlayer, string="kizm")
 22: 0x0AF0 [0x5F] MULTI_HANDLER_COMPLEX(mode=0x03 - Load ext scheduler (OpCode 0x5B mode 0), ref=3878*, entity1=Unnamed NPC (ID: 17269310/0x0107823E), entity2=Unnamed NPC (ID: 17269310/0x0107823E), string="tmam")
 23: 0x0B00 [0x01] GOTO 0x0B59
 24: 0x0B03 [0x02] IF !(LocalPlayer->Race == 7*) GOTO 0x0B2E
 25: 0x0B0B [0x5F] MULTI_HANDLER_COMPLEX(mode=0x04 - Load ext scheduler (OpCode 0x5B mode 1), ref=191*, entity1=LocalPlayer, entity2=LocalPlayer, string="kizm")
 26: 0x0B1B [0x5F] MULTI_HANDLER_COMPLEX(mode=0x03 - Load ext scheduler (OpCode 0x5B mode 0), ref=3878*, entity1=Unnamed NPC (ID: 17269310/0x0107823E), entity2=Unnamed NPC (ID: 17269310/0x0107823E), string="mmam")
 27: 0x0B2B [0x01] GOTO 0x0B59
 28: 0x0B2E [0x02] IF !(LocalPlayer->Race == 8*) GOTO 0x0B59
 29: 0x0B36 [0x5F] MULTI_HANDLER_COMPLEX(mode=0x04 - Load ext scheduler (OpCode 0x5B mode 1), ref=201*, entity1=LocalPlayer, entity2=LocalPlayer, string="kizm")
 30: 0x0B46 [0x5F] MULTI_HANDLER_COMPLEX(mode=0x03 - Load ext scheduler (OpCode 0x5B mode 0), ref=3878*, entity1=Unnamed NPC (ID: 17269310/0x0107823E), entity2=Unnamed NPC (ID: 17269310/0x0107823E), string="gmam")
 31: 0x0B56 [0x01] GOTO 0x0B59

SUBROUTINE_0B59:
 32: 0x0B59 [0x00] END_REQSTACK()
```

### Event 5505

#### Metadata

| Field        | Value     |
|--------------|-----------|
| Entrypoint   | 0x0B5A    |
| Data Size    | 128 bytes |
| Instructions | 14        |

```
      00 01 02 03 04 05 06 07  08 09 0A 0B 0C 0D 0E 0F
      -- -- -- -- -- -- -- --  -- -- -- -- -- -- -- --
0B50:                                42 45 12 80 F0 FF            BE....
0B60: FF 7F F0 FF FF 7F 66 64  6F 31 10 80 62 4E 80 F0  ......fdo1..bN..
0B70: FF FF 7F F0 FF FF 7F 6D  61 69 6E 10 80 1C 4D 80  .......main...M.
0B80: 45 21 80 F0 FF FF 7F F0  FF FF 7F 77 68 6F 31 10  E!.........who1.
0B90: 80 55 21 80 F0 FF FF 7F  F0 FF FF 7F 77 68 6F 31  .U!.........who1
0BA0: 1C 7C 80 45 12 80 F0 FF  FF 7F F0 FF FF 7F 66 64  .|.E..........fd
0BB0: 6F 31 10 80 55 12 80 F0  FF FF 7F F0 FF FF 7F 66  o1..U..........f
0BC0: 64 6F 31 45 21 80 F0 FF  FF 7F F0 FF FF 7F 77 68  do1E!.........wh
0BD0: 69 31 10 80 1C 7D 80 30  21 00                    i1...}.0!.      
```

#### Opcodes

```
  0: 0x0B5A [0x42] SET_CLI_EVENT_CANCEL_DATA()
  1: 0x0B5B [0x45] LOAD_SCHEDULED_TASK: Load scheduler "fdo1" with entities [LocalPlayer, LocalPlayer], work=[200*, 0*]
  2: 0x0B6C [0x62] LOAD_EVENT_SCHEDULER: Load scheduler "main" with entities [LocalPlayer, LocalPlayer], work=[1*, 0*]
  3: 0x0B7D [0x1C] WAIT(90* ticks)
  4: 0x0B80 [0x45] LOAD_SCHEDULED_TASK: Load scheduler "who1" with entities [LocalPlayer, LocalPlayer], work=[201*, 0*]
  5: 0x0B91 [0x55] WAIT_LOAD_SCHEDULER: Wait for scheduler "who1" with entities [LocalPlayer, LocalPlayer], work=201*
  6: 0x0BA0 [0x1C] WAIT(45* ticks)
  7: 0x0BA3 [0x45] LOAD_SCHEDULED_TASK: Load scheduler "fdo1" with entities [LocalPlayer, LocalPlayer], work=[200*, 0*]
  8: 0x0BB4 [0x55] WAIT_LOAD_SCHEDULER: Wait for scheduler "fdo1" with entities [LocalPlayer, LocalPlayer], work=200*
  9: 0x0BC3 [0x45] LOAD_SCHEDULED_TASK: Load scheduler "whi1" with entities [LocalPlayer, LocalPlayer], work=[201*, 0*]
 10: 0x0BD4 [0x1C] WAIT(15* ticks)
 11: 0x0BD7 [0x30] SET_UCOFF_CONTINUE_ZERO()
 12: 0x0BD8 [0x21] END_EVENT
 13: 0x0BD9 [0x00] END_REQSTACK()
```
