# Event 20

## Metadata

| Field           | Value    |
|-----------------|----------|
| Event Index     | 7/8      |
| Offset          | 0x0062   |
| Data Size       | 30 bytes |
| Calculated Size | 30 bytes |
| Instructions    | 10       |

```
      00 01 02 03 04 05 06 07  08 09 0A 0B 0C 0D 0E 0F
      -- -- -- -- -- -- -- --  -- -- -- -- -- -- -- --
0060:       1E F0 FF FF 7F 03  02 10 08 80 03 03 10 09    ..............
0070: 80 03 04 10 0A 80 1D 0D  80 23 1D 0C 80 23 21 00  .........#...#!.
```

## Opcodes

```
  0: 0x0062 [0x1E] EventEntity looks at LocalPlayer and starts talking
  1: 0x0067 [0x03] Work_Zone[2] = 3541*
  2: 0x006C [0x03] Work_Zone[3] = 3542*
  3: 0x0071 [0x03] Work_Zone[4] = 3543*
  4: 0x0076 [0x1D] PRINT_EVENT_MESSAGE(message_id=14064*)
    → "Bring me \u0001\u0001\u0001 \u0001\u0005$\u0002\u0000\u0000\u0000, \u0001\u0001\u0001 \u0001\u0005$\u0002\u0001\u0000\u0000, and \u0001\u0001\u0001 \u0001\u0005$\u0002\u0002\u0000\u0000 and I'll give ye somethin' that should serve ye well.\u007F1\u0000\u0007"
  5: 0x0079 [0x23] WAIT_FOR_DIALOG_INTERACTION
  6: 0x007A [0x1D] PRINT_EVENT_MESSAGE(message_id=14063*)
    → "Don't ye give me that face.\u0007It's trainin'--it ain't supposed to be easy!\u007F1\u0000\u0007"
  7: 0x007D [0x23] WAIT_FOR_DIALOG_INTERACTION
  8: 0x007E [0x21] END_EVENT
  9: 0x007F [0x00] END_REQSTACK()
```
