# Event 258

## Metadata

| Field           | Value    |
|-----------------|----------|
| Event Index     | 4/8      |
| Offset          | 0x0017   |
| Data Size       | 35 bytes |
| Calculated Size | 35 bytes |
| Instructions    | 10       |

```
      00 01 02 03 04 05 06 07  08 09 0A 0B 0C 0D 0E 0F
      -- -- -- -- -- -- -- --  -- -- -- -- -- -- -- --
0010:                      42  20 01 1E F0 FF FF 7F 1D         B .......
0020: 02 80 23 1D 03 80 23 45  04 80 F0 FF FF 7F F0 FF  ..#...#E........
0030: FF 7F 71 73 74 63 05 80  21 00                    ..qstc..!.      
```

## Opcodes

```
  0: 0x0017 [0x42] SET_CLI_EVENT_CANCEL_DATA()
  1: 0x0018 [0x20] SET_CLI_EVENT_UC_FLAG: Lock player control
  2: 0x001A [0x1E] EventEntity looks at LocalPlayer and starts talking
  3: 0x001F [0x1D] PRINT_EVENT_MESSAGE(message_id=7662*)
    → "Yes, that is the secret ingredient! Ah, but it's not what you think--I don't eat this, as some seem to think.\u007F1\u0000\u0007"
  4: 0x0022 [0x23] WAIT_FOR_DIALOG_INTERACTION
  5: 0x0023 [0x1D] PRINT_EVENT_MESSAGE(message_id=7663*)
    → "I keep it in a pocket close to my heart to remind myself of my own mortality.\u0007That is my secret. Hmm... Maybe you're still a little too young to understand.\u007F1\u0000\u0007"
  6: 0x0026 [0x23] WAIT_FOR_DIALOG_INTERACTION
  7: 0x0027 [0x45] LOAD_SCHEDULED_TASK: Load scheduler "qstc" with entities [LocalPlayer, LocalPlayer], work=[201*, 0*]
  8: 0x0038 [0x21] END_EVENT
  9: 0x0039 [0x00] END_REQSTACK()
```
