# Event 934

## Metadata

| Field           | Value    |
|-----------------|----------|
| Event Index     | 3/3      |
| Offset          | 0x006B   |
| Data Size       | 52 bytes |
| Calculated Size | 52 bytes |
| Instructions    | 12       |

```
      00 01 02 03 04 05 06 07  08 09 0A 0B 0C 0D 0E 0F
      -- -- -- -- -- -- -- --  -- -- -- -- -- -- -- --
0060:                                   42 48 0C 80 1E             BH...
0070: F0 FF FF 7F 1C 0D 80 66  0E 80 F8 FF FF 7F F8 FF  .......f........
0080: FF 7F 6E 67 74 30 1D 0F  80 23 1D 10 80 23 66 0E  ..ngt0...#...#f.
0090: 80 F8 FF FF 7F F8 FF FF  7F 6E 67 74 31 21 00     .........ngt1!. 
```

## Opcodes

```
  0: 0x006B [0x42] SET_CLI_EVENT_CANCEL_DATA()
  1: 0x006C [0x48] [System] [10683*]:
    → "\u001F\u000F\u0008's badge flashes brightly.\u007F1\u0000\u0007"
  2: 0x006F [0x1E] EventEntity looks at LocalPlayer and starts talking
  3: 0x0074 [0x1C] WAIT(60* ticks)
  4: 0x0077 [0x66] LOAD_EXT_SCHEDULER_MAIN(work_offset=11*, entity1=EventEntity, entity2=EventEntity, action="ngt0")
  5: 0x0086 [0x1D] PRINT_EVENT_MESSAGE(message_id=10689*)
    → "I'm sure that everywhere stars can be seen gleaming in the night sky, there are legends related to them.\u007F1\u0000\u0007"
  6: 0x0089 [0x23] WAIT_FOR_DIALOG_INTERACTION
  7: 0x008A [0x1D] PRINT_EVENT_MESSAGE(message_id=10690*)
    → "I wonder what kind of stories are told in faraway lands...\u007F1\u0000\u0007"
  8: 0x008D [0x23] WAIT_FOR_DIALOG_INTERACTION
  9: 0x008E [0x66] LOAD_EXT_SCHEDULER_MAIN(work_offset=11*, entity1=EventEntity, entity2=EventEntity, action="ngt1")
 10: 0x009D [0x21] END_EVENT
 11: 0x009E [0x00] END_REQSTACK()
```
