# 16924761 - Prishe

## Common Data

| Field            | Value                     |
|------------------|---------------------------|
| Zone             | Empyreal Paradox (ID: 36) |
| Block Size       | 700 bytes                 |
| Total Events     | 35                        |
| References Count | 50                        |

## List of Events

| Event ID                   | Entrypoint   |   Size |   Instructions |
|----------------------------|--------------|--------|----------------|
| [65535](#event-65535)      | 0x0000       |      1 |              1 |
| [1](#event-1)              | 0x0001       |      1 |              1 |
| [65535.1](#event-655351)   | 0x0002       |     18 |              4 |
| [65535.2](#event-655352)   | 0x0014       |     10 |              2 |
| [65535.3](#event-655353)   | 0x001E       |      9 |              3 |
| [65535.4](#event-655354)   | 0x0027       |      9 |              3 |
| [65535.5](#event-655355)   | 0x0030       |     10 |              2 |
| [65535.6](#event-655356)   | 0x003A       |     10 |              2 |
| [2](#event-2)              | 0x0044       |      1 |              1 |
| [32000](#event-32000)      | 0x0045       |      1 |              1 |
| [32004](#event-32004)      | 0x0046       |      1 |              1 |
| [6](#event-6)              | 0x0047       |      1 |              1 |
| [7](#event-7)              | 0x0048       |      1 |              1 |
| [65535.7](#event-655357)   | 0x0049       |     10 |              2 |
| [65535.8](#event-655358)   | 0x0053       |     10 |              2 |
| [65535.9](#event-655359)   | 0x005D       |     10 |              2 |
| [65535.10](#event-6553510) | 0x0067       |     25 |              6 |
| [65535.11](#event-6553511) | 0x0080       |     15 |              3 |
| [65535.12](#event-6553512) | 0x008F       |     15 |              5 |
| [65535.13](#event-6553513) | 0x009E       |     10 |              2 |
| [65535.14](#event-6553514) | 0x00A8       |     14 |              2 |
| [65535.15](#event-6553515) | 0x00B6       |     14 |              2 |
| [65535.16](#event-6553516) | 0x00C4       |      3 |              2 |
| [65535.17](#event-6553517) | 0x00C7       |      3 |              2 |
| [65535.18](#event-6553518) | 0x00CA       |     10 |              2 |
| [4](#event-4)              | 0x00D4       |      1 |              1 |
| [65535.19](#event-6553519) | 0x00D5       |     20 |              4 |
| [65535.20](#event-6553520) | 0x00E9       |     10 |              2 |
| [65535.21](#event-6553521) | 0x00F3       |     15 |              5 |
| [65535.22](#event-6553522) | 0x0102       |     15 |              3 |
| [65535.23](#event-6553523) | 0x0111       |     15 |              5 |
| [65535.24](#event-6553524) | 0x0120       |     10 |              2 |
| [65535.25](#event-6553525) | 0x012A       |     20 |              4 |
| [65535.26](#event-6553526) | 0x013E       |     15 |              3 |
| [65535.27](#event-6553527) | 0x014D       |     10 |              2 |

## DAT References (imed_data)

|   Index | Hex Value   |   Dec Value |
|---------|-------------|-------------|
|       0 | 0x0000      |           0 |
|       1 | 0x0001      |           1 |
|       2 | 0x0080      |         128 |
|       3 | 0xFFF8109E  |  4294447262 |
|       4 | 0x799FA     |      498170 |
|       5 | 0xFFFE2B40  |  4294847296 |
|       6 | 0x0BFC      |        3068 |
|       7 | 0xFFF81D58  |  4294450520 |
|       8 | 0x7AC83     |      502915 |
|       9 | 0xFFFE2B41  |  4294847297 |
|      10 | 0x0CAA      |        3242 |
|      11 | 0xFFF824FE  |  4294452478 |
|      12 | 0x7DC9C     |      515228 |
|      13 | 0x0963      |        2403 |
|      14 | 0x0036      |          54 |
|      15 | 0xFFF826CF  |  4294452943 |
|      16 | 0x7CBAA     |      510890 |
|      17 | 0xFFF83009  |  4294455305 |
|      18 | 0x7BAF9     |      506617 |
|      19 | 0x0B78      |        2936 |
|      20 | 0xFFF80D8E  |  4294446478 |
|      21 | 0x7FFA3     |      524195 |
|      22 | 0xFFF8108F  |  4294447247 |
|      23 | 0x7E781     |      518017 |
|      24 | 0xFFF801CA  |  4294443466 |
|      25 | 0x7E39D     |      517021 |
|      26 | 0x0D72      |        3442 |
|      27 | 0xFFF810DF  |  4294447327 |
|      28 | 0x7AA3B     |      502331 |
|      29 | 0x0C02      |        3074 |
|      30 | 0xFFF8134A  |  4294447946 |
|      31 | 0x7FFCE     |      524238 |
|      32 | 0x03BD      |         957 |
|      33 | 0x000A      |          10 |
|      34 | 0xFFF812A5  |  4294447781 |
|      35 | 0x7F23B     |      520763 |
|      36 | 0xFFF813BA  |  4294448058 |
|      37 | 0x803E7     |      525287 |
|      38 | 0x0D63      |        3427 |
|      39 | 0x000B      |          11 |
|      40 | 0xFFF81403  |  4294448131 |
|      41 | 0x814B6     |      529590 |
|      42 | 0xFFF818AA  |  4294449322 |
|      43 | 0x8120A     |      528906 |
|      44 | 0x03BF      |         959 |
|      45 | 0xFFF81834  |  4294449204 |
|      46 | 0x81AD3     |      531155 |
|      47 | 0x0F32      |        3890 |
|      48 | 0xFFF80FC7  |  4294447047 |
|      49 | 0x7E2A9     |      516777 |

## Events

### Event 65535

#### Metadata

| Field        | Value   |
|--------------|---------|
| Entrypoint   | 0x0000  |
| Data Size    | 1 bytes |
| Instructions | 1       |

```
      00 01 02 03 04 05 06 07  08 09 0A 0B 0C 0D 0E 0F
      -- -- -- -- -- -- -- --  -- -- -- -- -- -- -- --
0000: 00                                                .               
```

#### Opcodes

```
  0: 0x0000 [0x00] END_REQSTACK()
```

### Event 1

#### Metadata

| Field        | Value   |
|--------------|---------|
| Entrypoint   | 0x0001  |
| Data Size    | 1 bytes |
| Instructions | 1       |

```
      00 01 02 03 04 05 06 07  08 09 0A 0B 0C 0D 0E 0F
      -- -- -- -- -- -- -- --  -- -- -- -- -- -- -- --
0000:    00                                              .              
```

#### Opcodes

```
  0: 0x0001 [0x00] END_REQSTACK()
```

### Event 65535.1

#### Metadata

| Field        | Value    |
|--------------|----------|
| Entrypoint   | 0x0002   |
| Data Size    | 18 bytes |
| Instructions | 4        |

```
      00 01 02 03 04 05 06 07  08 09 0A 0B 0C 0D 0E 0F
      -- -- -- -- -- -- -- --  -- -- -- -- -- -- -- --
0000:       22 00 2F 00 F8 FF  FF 7F 6C F8 FF FF 7F 00    "./.....l.....
0010: 80 01 80 00                                       ....            
```

#### Opcodes

```
  0: 0x0002 [0x22] ENTITY_HIDE_FLAG(enabled=0x00)
  1: 0x0004 [0x2F] EventEntity->Render.Flags0 &= ~0x80000 // Bit 19
  2: 0x000A [0x6C] FADE_ENTITY_COLOR(entity_id=EventEntity, end_alpha=0*, fade_time=1*)
  3: 0x0013 [0x00] END_REQSTACK()
```

### Event 65535.2

#### Metadata

| Field        | Value    |
|--------------|----------|
| Entrypoint   | 0x0014   |
| Data Size    | 10 bytes |
| Instructions | 2        |

```
      00 01 02 03 04 05 06 07  08 09 0A 0B 0C 0D 0E 0F
      -- -- -- -- -- -- -- --  -- -- -- -- -- -- -- --
0010:             6C F8 FF FF  7F 02 80 01 80 00            l.........  
```

#### Opcodes

```
  0: 0x0014 [0x6C] FADE_ENTITY_COLOR(entity_id=EventEntity, end_alpha=128*, fade_time=1*)
  1: 0x001D [0x00] END_REQSTACK()
```

### Event 65535.3

#### Metadata

| Field        | Value   |
|--------------|---------|
| Entrypoint   | 0x001E  |
| Data Size    | 9 bytes |
| Instructions | 3       |

```
      00 01 02 03 04 05 06 07  08 09 0A 0B 0C 0D 0E 0F
      -- -- -- -- -- -- -- --  -- -- -- -- -- -- -- --
0010:                                            22 00                ".
0020: 2F 00 F8 FF FF 7F 00                              /......         
```

#### Opcodes

```
  0: 0x001E [0x22] ENTITY_HIDE_FLAG(enabled=0x00)
  1: 0x0020 [0x2F] EventEntity->Render.Flags0 &= ~0x80000 // Bit 19
  2: 0x0026 [0x00] END_REQSTACK()
```

### Event 65535.4

#### Metadata

| Field        | Value   |
|--------------|---------|
| Entrypoint   | 0x0027  |
| Data Size    | 9 bytes |
| Instructions | 3       |

```
      00 01 02 03 04 05 06 07  08 09 0A 0B 0C 0D 0E 0F
      -- -- -- -- -- -- -- --  -- -- -- -- -- -- -- --
0020:                      22  01 2F 01 F8 FF FF 7F 00         "./......
```

#### Opcodes

```
  0: 0x0027 [0x22] ENTITY_HIDE_FLAG(enabled=0x01)
  1: 0x0029 [0x2F] EventEntity->Render.Flags0 |= 0x80000 // Bit 19
  2: 0x002F [0x00] END_REQSTACK()
```

### Event 65535.5

#### Metadata

| Field        | Value    |
|--------------|----------|
| Entrypoint   | 0x0030   |
| Data Size    | 10 bytes |
| Instructions | 2        |

```
      00 01 02 03 04 05 06 07  08 09 0A 0B 0C 0D 0E 0F
      -- -- -- -- -- -- -- --  -- -- -- -- -- -- -- --
0030: 6C F8 FF FF 7F 00 80 01  80 00                    l.........      
```

#### Opcodes

```
  0: 0x0030 [0x6C] FADE_ENTITY_COLOR(entity_id=EventEntity, end_alpha=0*, fade_time=1*)
  1: 0x0039 [0x00] END_REQSTACK()
```

### Event 65535.6

#### Metadata

| Field        | Value    |
|--------------|----------|
| Entrypoint   | 0x003A   |
| Data Size    | 10 bytes |
| Instructions | 2        |

```
      00 01 02 03 04 05 06 07  08 09 0A 0B 0C 0D 0E 0F
      -- -- -- -- -- -- -- --  -- -- -- -- -- -- -- --
0030:                                6C F8 FF FF 7F 02            l.....
0040: 80 01 80 00                                       ....            
```

#### Opcodes

```
  0: 0x003A [0x6C] FADE_ENTITY_COLOR(entity_id=EventEntity, end_alpha=128*, fade_time=1*)
  1: 0x0043 [0x00] END_REQSTACK()
```

### Event 2

#### Metadata

| Field        | Value   |
|--------------|---------|
| Entrypoint   | 0x0044  |
| Data Size    | 1 bytes |
| Instructions | 1       |

```
      00 01 02 03 04 05 06 07  08 09 0A 0B 0C 0D 0E 0F
      -- -- -- -- -- -- -- --  -- -- -- -- -- -- -- --
0040:             00                                        .           
```

#### Opcodes

```
  0: 0x0044 [0x00] END_REQSTACK()
```

### Event 32000

#### Metadata

| Field        | Value   |
|--------------|---------|
| Entrypoint   | 0x0045  |
| Data Size    | 1 bytes |
| Instructions | 1       |

```
      00 01 02 03 04 05 06 07  08 09 0A 0B 0C 0D 0E 0F
      -- -- -- -- -- -- -- --  -- -- -- -- -- -- -- --
0040:                00                                      .          
```

#### Opcodes

```
  0: 0x0045 [0x00] END_REQSTACK()
```

### Event 32004

#### Metadata

| Field        | Value   |
|--------------|---------|
| Entrypoint   | 0x0046  |
| Data Size    | 1 bytes |
| Instructions | 1       |

```
      00 01 02 03 04 05 06 07  08 09 0A 0B 0C 0D 0E 0F
      -- -- -- -- -- -- -- --  -- -- -- -- -- -- -- --
0040:                   00                                    .         
```

#### Opcodes

```
  0: 0x0046 [0x00] END_REQSTACK()
```

### Event 6

#### Metadata

| Field        | Value   |
|--------------|---------|
| Entrypoint   | 0x0047  |
| Data Size    | 1 bytes |
| Instructions | 1       |

```
      00 01 02 03 04 05 06 07  08 09 0A 0B 0C 0D 0E 0F
      -- -- -- -- -- -- -- --  -- -- -- -- -- -- -- --
0040:                      00                                  .        
```

#### Opcodes

```
  0: 0x0047 [0x00] END_REQSTACK()
```

### Event 7

#### Metadata

| Field        | Value   |
|--------------|---------|
| Entrypoint   | 0x0048  |
| Data Size    | 1 bytes |
| Instructions | 1       |

```
      00 01 02 03 04 05 06 07  08 09 0A 0B 0C 0D 0E 0F
      -- -- -- -- -- -- -- --  -- -- -- -- -- -- -- --
0040:                          00                               .       
```

#### Opcodes

```
  0: 0x0048 [0x00] END_REQSTACK()
```

### Event 65535.7

#### Metadata

| Field        | Value    |
|--------------|----------|
| Entrypoint   | 0x0049   |
| Data Size    | 10 bytes |
| Instructions | 2        |

```
      00 01 02 03 04 05 06 07  08 09 0A 0B 0C 0D 0E 0F
      -- -- -- -- -- -- -- --  -- -- -- -- -- -- -- --
0040:                             37 03 80 04 80 05 80           7......
0050: 06 80 00                                          ...             
```

#### Opcodes

```
  0: 0x0049 [0x37] UPDATE_EVENT_POSITION_AND_DIR: x=-520.034*, z=498.170*, y=-120.000*, direction=269.6°*
  1: 0x0052 [0x00] END_REQSTACK()
```

### Event 65535.8

#### Metadata

| Field        | Value    |
|--------------|----------|
| Entrypoint   | 0x0053   |
| Data Size    | 10 bytes |
| Instructions | 2        |

```
      00 01 02 03 04 05 06 07  08 09 0A 0B 0C 0D 0E 0F
      -- -- -- -- -- -- -- --  -- -- -- -- -- -- -- --
0050:          37 07 80 08 80  09 80 0A 80 00              7.........   
```

#### Opcodes

```
  0: 0x0053 [0x37] UPDATE_EVENT_POSITION_AND_DIR: x=-516.776*, z=502.915*, y=-119.999*, direction=284.9°*
  1: 0x005C [0x00] END_REQSTACK()
```

### Event 65535.9

#### Metadata

| Field        | Value    |
|--------------|----------|
| Entrypoint   | 0x005D   |
| Data Size    | 10 bytes |
| Instructions | 2        |

```
      00 01 02 03 04 05 06 07  08 09 0A 0B 0C 0D 0E 0F
      -- -- -- -- -- -- -- --  -- -- -- -- -- -- -- --
0050:                                         37 0B 80               7..
0060: 0C 80 05 80 0D 80 00                              .......         
```

#### Opcodes

```
  0: 0x005D [0x37] UPDATE_EVENT_POSITION_AND_DIR: x=-514.818*, z=515.228*, y=-120.000*, direction=211.2°*
  1: 0x0066 [0x00] END_REQSTACK()
```

### Event 65535.10

#### Metadata

| Field        | Value    |
|--------------|----------|
| Entrypoint   | 0x0067   |
| Data Size    | 25 bytes |
| Instructions | 6        |

```
      00 01 02 03 04 05 06 07  08 09 0A 0B 0C 0D 0E 0F
      -- -- -- -- -- -- -- --  -- -- -- -- -- -- -- --
0060:                      79  00 F8 FF FF 7F 5A 40 02         y.....Z@.
0070: 01 32 0E 80 1F 00 0F 80  10 80 09 80 1F 01 6F 00  .2............o.
```

#### Opcodes

```
  0: 0x0067 [0x79] EventEntity looks at Selh'teus (ID: 16924762/0x0102405A) (Basic look)
  1: 0x0071 [0x32] ExtData[1]->MainSpeed = 54* * 0.1
  2: 0x0074 [0x1F] MOVE_ENTITY: EventEntity moves to X=-514.353*, Z=510.890*, Y=-119.999*
  3: 0x007C [0x1F] MOVE_ENTITY: Update entity position (mode=1)
  4: 0x007E [0x6F] WAIT_FRAME_DELAY: Yield until WaitTime reaches zero
  5: 0x007F [0x00] END_REQSTACK()
```

### Event 65535.11

#### Metadata

| Field        | Value    |
|--------------|----------|
| Entrypoint   | 0x0080   |
| Data Size    | 15 bytes |
| Instructions | 3        |

```
      00 01 02 03 04 05 06 07  08 09 0A 0B 0C 0D 0E 0F
      -- -- -- -- -- -- -- --  -- -- -- -- -- -- -- --
0080: 5E 69 64 6C 30 37 11 80  12 80 05 80 13 80 00     ^idl07......... 
```

#### Opcodes

```
  0: 0x0080 [0x5E] EventEntity goes idle (kills current action) (animation: "idl0")
  1: 0x0085 [0x37] UPDATE_EVENT_POSITION_AND_DIR: x=-511.991*, z=506.617*, y=-120.000*, direction=258.0°*
  2: 0x008E [0x00] END_REQSTACK()
```

### Event 65535.12

#### Metadata

| Field        | Value    |
|--------------|----------|
| Entrypoint   | 0x008F   |
| Data Size    | 15 bytes |
| Instructions | 5        |

```
      00 01 02 03 04 05 06 07  08 09 0A 0B 0C 0D 0E 0F
      -- -- -- -- -- -- -- --  -- -- -- -- -- -- -- --
0080:                                               32                 2
0090: 0E 80 1F 00 14 80 15 80  05 80 1F 01 6F 00        ............o.  
```

#### Opcodes

```
  0: 0x008F [0x32] ExtData[1]->MainSpeed = 54* * 0.1
  1: 0x0092 [0x1F] MOVE_ENTITY: EventEntity moves to X=-520.818*, Z=524.195*, Y=-120.000*
  2: 0x009A [0x1F] MOVE_ENTITY: Update entity position (mode=1)
  3: 0x009C [0x6F] WAIT_FRAME_DELAY: Yield until WaitTime reaches zero
  4: 0x009D [0x00] END_REQSTACK()
```

### Event 65535.13

#### Metadata

| Field        | Value    |
|--------------|----------|
| Entrypoint   | 0x009E   |
| Data Size    | 10 bytes |
| Instructions | 2        |

```
      00 01 02 03 04 05 06 07  08 09 0A 0B 0C 0D 0E 0F
      -- -- -- -- -- -- -- --  -- -- -- -- -- -- -- --
0090:                                            37 16                7.
00A0: 80 17 80 09 80 0D 80 00                           ........        
```

#### Opcodes

```
  0: 0x009E [0x37] UPDATE_EVENT_POSITION_AND_DIR: x=-520.049*, z=518.017*, y=-119.999*, direction=211.2°*
  1: 0x00A7 [0x00] END_REQSTACK()
```

### Event 65535.14

#### Metadata

| Field        | Value    |
|--------------|----------|
| Entrypoint   | 0x00A8   |
| Data Size    | 14 bytes |
| Instructions | 2        |

```
      00 01 02 03 04 05 06 07  08 09 0A 0B 0C 0D 0E 0F
      -- -- -- -- -- -- -- --  -- -- -- -- -- -- -- --
00A0:                          2C F8 FF FF 7F F8 FF FF          ,.......
00B0: 7F 77 6F 6E 32 00                                 .won2.          
```

#### Opcodes

```
  0: 0x00A8 [0x2C] CREATE_SCHEDULER_TASK: Create scheduler "won2" with entities [EventEntity, EventEntity]
  1: 0x00B5 [0x00] END_REQSTACK()
```

### Event 65535.15

#### Metadata

| Field        | Value    |
|--------------|----------|
| Entrypoint   | 0x00B6   |
| Data Size    | 14 bytes |
| Instructions | 2        |

```
      00 01 02 03 04 05 06 07  08 09 0A 0B 0C 0D 0E 0F
      -- -- -- -- -- -- -- --  -- -- -- -- -- -- -- --
00B0:                   2C F8  FF FF 7F F8 FF FF 7F 77        ,........w
00C0: 6F 66 32 00                                       of2.            
```

#### Opcodes

```
  0: 0x00B6 [0x2C] CREATE_SCHEDULER_TASK: Create scheduler "wof2" with entities [EventEntity, EventEntity]
  1: 0x00C3 [0x00] END_REQSTACK()
```

### Event 65535.16

#### Metadata

| Field        | Value   |
|--------------|---------|
| Entrypoint   | 0x00C4  |
| Data Size    | 3 bytes |
| Instructions | 2       |

```
      00 01 02 03 04 05 06 07  08 09 0A 0B 0C 0D 0E 0F
      -- -- -- -- -- -- -- --  -- -- -- -- -- -- -- --
00C0:             AB 08 00                                  ...         
```

#### Opcodes

```
  0: 0x00C4 [0xAB] EventEntity->Render.Flags2 |= 0x02 // Set bit 1
  1: 0x00C6 [0x00] END_REQSTACK()
```

### Event 65535.17

#### Metadata

| Field        | Value   |
|--------------|---------|
| Entrypoint   | 0x00C7  |
| Data Size    | 3 bytes |
| Instructions | 2       |

```
      00 01 02 03 04 05 06 07  08 09 0A 0B 0C 0D 0E 0F
      -- -- -- -- -- -- -- --  -- -- -- -- -- -- -- --
00C0:                      AB  07 00                           ...      
```

#### Opcodes

```
  0: 0x00C7 [0xAB] EventEntity->Render.Flags2 |= 0x01 // Set bit 0
  1: 0x00C9 [0x00] END_REQSTACK()
```

### Event 65535.18

#### Metadata

| Field        | Value    |
|--------------|----------|
| Entrypoint   | 0x00CA   |
| Data Size    | 10 bytes |
| Instructions | 2        |

```
      00 01 02 03 04 05 06 07  08 09 0A 0B 0C 0D 0E 0F
      -- -- -- -- -- -- -- --  -- -- -- -- -- -- -- --
00C0:                                37 18 80 19 80 05            7.....
00D0: 80 1A 80 00                                       ....            
```

#### Opcodes

```
  0: 0x00CA [0x37] UPDATE_EVENT_POSITION_AND_DIR: x=-523.830*, z=517.021*, y=-120.000*, direction=302.5°*
  1: 0x00D3 [0x00] END_REQSTACK()
```

### Event 4

#### Metadata

| Field        | Value   |
|--------------|---------|
| Entrypoint   | 0x00D4  |
| Data Size    | 1 bytes |
| Instructions | 1       |

```
      00 01 02 03 04 05 06 07  08 09 0A 0B 0C 0D 0E 0F
      -- -- -- -- -- -- -- --  -- -- -- -- -- -- -- --
00D0:             00                                        .           
```

#### Opcodes

```
  0: 0x00D4 [0x00] END_REQSTACK()
```

### Event 65535.19

#### Metadata

| Field        | Value    |
|--------------|----------|
| Entrypoint   | 0x00D5   |
| Data Size    | 20 bytes |
| Instructions | 4        |

```
      00 01 02 03 04 05 06 07  08 09 0A 0B 0C 0D 0E 0F
      -- -- -- -- -- -- -- --  -- -- -- -- -- -- -- --
00D0:                7B F8 FF  FF 7F 5E 69 64 6C 30 37       {....^idl07
00E0: 1B 80 1C 80 09 80 1D 80  00                       .........       
```

#### Opcodes

```
  0: 0x00D5 [0x7B] EventEntity stops talking
  1: 0x00DA [0x5E] EventEntity goes idle (kills current action) (animation: "idl0")
  2: 0x00DF [0x37] UPDATE_EVENT_POSITION_AND_DIR: x=-519.969*, z=502.331*, y=-119.999*, direction=270.2°*
  3: 0x00E8 [0x00] END_REQSTACK()
```

### Event 65535.20

#### Metadata

| Field        | Value    |
|--------------|----------|
| Entrypoint   | 0x00E9   |
| Data Size    | 10 bytes |
| Instructions | 2        |

```
      00 01 02 03 04 05 06 07  08 09 0A 0B 0C 0D 0E 0F
      -- -- -- -- -- -- -- --  -- -- -- -- -- -- -- --
00E0:                             37 1E 80 1F 80 05 80           7......
00F0: 20 80 00                                           ..             
```

#### Opcodes

```
  0: 0x00E9 [0x37] UPDATE_EVENT_POSITION_AND_DIR: x=-519.350*, z=524.238*, y=-120.000*, direction=84.1°*
  1: 0x00F2 [0x00] END_REQSTACK()
```

### Event 65535.21

#### Metadata

| Field        | Value    |
|--------------|----------|
| Entrypoint   | 0x00F3   |
| Data Size    | 15 bytes |
| Instructions | 5        |

```
      00 01 02 03 04 05 06 07  08 09 0A 0B 0C 0D 0E 0F
      -- -- -- -- -- -- -- --  -- -- -- -- -- -- -- --
00F0:          32 21 80 1F 00  22 80 23 80 05 80 1F 01     2!...".#.....
0100: 6F 00                                             o.              
```

#### Opcodes

```
  0: 0x00F3 [0x32] ExtData[1]->MainSpeed = 10* * 0.1
  1: 0x00F6 [0x1F] MOVE_ENTITY: EventEntity moves to X=-519.515*, Z=520.763*, Y=-120.000*
  2: 0x00FE [0x1F] MOVE_ENTITY: Update entity position (mode=1)
  3: 0x0100 [0x6F] WAIT_FRAME_DELAY: Yield until WaitTime reaches zero
  4: 0x0101 [0x00] END_REQSTACK()
```

### Event 65535.22

#### Metadata

| Field        | Value    |
|--------------|----------|
| Entrypoint   | 0x0102   |
| Data Size    | 15 bytes |
| Instructions | 3        |

```
      00 01 02 03 04 05 06 07  08 09 0A 0B 0C 0D 0E 0F
      -- -- -- -- -- -- -- --  -- -- -- -- -- -- -- --
0100:       37 24 80 25 80 05  80 26 80 5E 69 64 6C 30    7$.%...&.^idl0
0110: 00                                                .               
```

#### Opcodes

```
  0: 0x0102 [0x37] UPDATE_EVENT_POSITION_AND_DIR: x=-519.238*, z=525.287*, y=-120.000*, direction=301.2°*
  1: 0x010B [0x5E] EventEntity goes idle (kills current action) (animation: "idl0")
  2: 0x0110 [0x00] END_REQSTACK()
```

### Event 65535.23

#### Metadata

| Field        | Value    |
|--------------|----------|
| Entrypoint   | 0x0111   |
| Data Size    | 15 bytes |
| Instructions | 5        |

```
      00 01 02 03 04 05 06 07  08 09 0A 0B 0C 0D 0E 0F
      -- -- -- -- -- -- -- --  -- -- -- -- -- -- -- --
0110:    32 27 80 1F 00 28 80  29 80 05 80 1F 01 6F 00   2'...(.).....o.
```

#### Opcodes

```
  0: 0x0111 [0x32] ExtData[1]->MainSpeed = 11* * 0.1
  1: 0x0114 [0x1F] MOVE_ENTITY: EventEntity moves to X=-519.165*, Z=529.590*, Y=-120.000*
  2: 0x011C [0x1F] MOVE_ENTITY: Update entity position (mode=1)
  3: 0x011E [0x6F] WAIT_FRAME_DELAY: Yield until WaitTime reaches zero
  4: 0x011F [0x00] END_REQSTACK()
```

### Event 65535.24

#### Metadata

| Field        | Value    |
|--------------|----------|
| Entrypoint   | 0x0120   |
| Data Size    | 10 bytes |
| Instructions | 2        |

```
      00 01 02 03 04 05 06 07  08 09 0A 0B 0C 0D 0E 0F
      -- -- -- -- -- -- -- --  -- -- -- -- -- -- -- --
0120: 37 2A 80 2B 80 09 80 2C  80 00                    7*.+...,..      
```

#### Opcodes

```
  0: 0x0120 [0x37] UPDATE_EVENT_POSITION_AND_DIR: x=-517.974*, z=528.906*, y=-119.999*, direction=84.3°*
  1: 0x0129 [0x00] END_REQSTACK()
```

### Event 65535.25

#### Metadata

| Field        | Value    |
|--------------|----------|
| Entrypoint   | 0x012A   |
| Data Size    | 20 bytes |
| Instructions | 4        |

```
      00 01 02 03 04 05 06 07  08 09 0A 0B 0C 0D 0E 0F
      -- -- -- -- -- -- -- --  -- -- -- -- -- -- -- --
0120:                                37 2D 80 2E 80 09            7-....
0130: 80 2F 80 5E 69 64 6C 30  1E F0 FF FF 7F 00        ./.^idl0......  
```

#### Opcodes

```
  0: 0x012A [0x37] UPDATE_EVENT_POSITION_AND_DIR: x=-518.092*, z=531.155*, y=-119.999*, direction=341.9°*
  1: 0x0133 [0x5E] EventEntity goes idle (kills current action) (animation: "idl0")
  2: 0x0138 [0x1E] EventEntity looks at LocalPlayer and starts talking
  3: 0x013D [0x00] END_REQSTACK()
```

### Event 65535.26

#### Metadata

| Field        | Value    |
|--------------|----------|
| Entrypoint   | 0x013E   |
| Data Size    | 15 bytes |
| Instructions | 3        |

```
      00 01 02 03 04 05 06 07  08 09 0A 0B 0C 0D 0E 0F
      -- -- -- -- -- -- -- --  -- -- -- -- -- -- -- --
0130:                                            5E 69                ^i
0140: 64 6C 30 4A 59 40 02 01  68 40 02 01 00           dl0JY@..h@...   
```

#### Opcodes

```
  0: 0x013E [0x5E] EventEntity goes idle (kills current action) (animation: "idl0")
  1: 0x0143 [0x4A] Prishe (ID: 16924761/0x01024059) looks at Mildaurion (ID: 16924776/0x01024068)
  2: 0x014C [0x00] END_REQSTACK()
```

### Event 65535.27

#### Metadata

| Field        | Value    |
|--------------|----------|
| Entrypoint   | 0x014D   |
| Data Size    | 10 bytes |
| Instructions | 2        |

```
      00 01 02 03 04 05 06 07  08 09 0A 0B 0C 0D 0E 0F
      -- -- -- -- -- -- -- --  -- -- -- -- -- -- -- --
0140:                                         37 30 80               70.
0150: 31 80 09 80 1D 80 00                              1......         
```

#### Opcodes

```
  0: 0x014D [0x37] UPDATE_EVENT_POSITION_AND_DIR: x=-520.249*, z=516.777*, y=-119.999*, direction=270.2°*
  1: 0x0156 [0x00] END_REQSTACK()
```
