# 16924804

## Common Data

| Field            | Value                     |
|------------------|---------------------------|
| Zone             | Empyreal Paradox (ID: 36) |
| Block Size       | 740 bytes                 |
| Total Events     | 15                        |
| References Count | 26                        |

## List of Events

| Event ID                   | Entrypoint   |   Size |   Instructions |
|----------------------------|--------------|--------|----------------|
| [65535](#event-65535)      | 0x0000       |      1 |              1 |
| [9](#event-9)              | 0x0001       |      1 |              1 |
| [10](#event-10)            | 0x0002       |      1 |              1 |
| [65535.1](#event-655351)   | 0x0003       |     10 |              2 |
| [65535.2](#event-655352)   | 0x000D       |     10 |              2 |
| [65535.3](#event-655353)   | 0x0017       |     10 |              2 |
| [65535.4](#event-655354)   | 0x0021       |     21 |              2 |
| [65535.5](#event-655355)   | 0x0036       |     21 |              2 |
| [14](#event-14)            | 0x004B       |      1 |              1 |
| [65535.6](#event-655356)   | 0x004C       |     16 |              5 |
| [65535.7](#event-655357)   | 0x005C       |    256 |             26 |
| [65535.8](#event-655358)   | 0x015C       |     24 |              4 |
| [65535.9](#event-655359)   | 0x0174       |    172 |             36 |
| [65535.10](#event-6553510) | 0x0220       |      7 |              3 |
| [65535.11](#event-6553511) | 0x0227       |      9 |              4 |

## DAT References (imed_data)

|   Index | Hex Value   |   Dec Value |
|---------|-------------|-------------|
|       0 | 0x0000      |           0 |
|       1 | 0x0001      |           1 |
|       2 | 0x0080      |         128 |
|       3 | 0x003C      |          60 |
|       4 | 0x0184      |         388 |
|       5 | 0x00E6      |         230 |
|       6 | 0x0140      |         320 |
|       7 | 0x0006      |           6 |
|       8 | 0x000D      |          13 |
|       9 | 0xFFF7F04C  |  4294438988 |
|      10 | 0x7B76B     |      505707 |
|      11 | 0xFFEDB080  |  4293767296 |
|      12 | 0x014A      |         330 |
|      13 | 0x00B9      |         185 |
|      14 | 0x0002      |           2 |
|      15 | 0x0003      |           3 |
|      16 | 0x0004      |           4 |
|      17 | 0x0005      |           5 |
|      18 | 0x0007      |           7 |
|      19 | 0x0008      |           8 |
|      20 | 0x000A      |          10 |
|      21 | 0x0009      |           9 |
|      22 | 0x0046      |          70 |
|      23 | 0x008C      |         140 |
|      24 | 0x00D2      |         210 |
|      25 | 0x0042      |          66 |

## Events

### Event 65535

#### Metadata

| Field        | Value   |
|--------------|---------|
| Entrypoint   | 0x0000  |
| Data Size    | 1 bytes |
| Instructions | 1       |

```
      00 01 02 03 04 05 06 07  08 09 0A 0B 0C 0D 0E 0F
      -- -- -- -- -- -- -- --  -- -- -- -- -- -- -- --
0000: 00                                                .               
```

#### Opcodes

```
  0: 0x0000 [0x00] END_REQSTACK()
```

### Event 9

#### Metadata

| Field        | Value   |
|--------------|---------|
| Entrypoint   | 0x0001  |
| Data Size    | 1 bytes |
| Instructions | 1       |

```
      00 01 02 03 04 05 06 07  08 09 0A 0B 0C 0D 0E 0F
      -- -- -- -- -- -- -- --  -- -- -- -- -- -- -- --
0000:    00                                              .              
```

#### Opcodes

```
  0: 0x0001 [0x00] END_REQSTACK()
```

### Event 10

#### Metadata

| Field        | Value   |
|--------------|---------|
| Entrypoint   | 0x0002  |
| Data Size    | 1 bytes |
| Instructions | 1       |

```
      00 01 02 03 04 05 06 07  08 09 0A 0B 0C 0D 0E 0F
      -- -- -- -- -- -- -- --  -- -- -- -- -- -- -- --
0000:       00                                            .             
```

#### Opcodes

```
  0: 0x0002 [0x00] END_REQSTACK()
```

### Event 65535.1

#### Metadata

| Field        | Value    |
|--------------|----------|
| Entrypoint   | 0x0003   |
| Data Size    | 10 bytes |
| Instructions | 2        |

```
      00 01 02 03 04 05 06 07  08 09 0A 0B 0C 0D 0E 0F
      -- -- -- -- -- -- -- --  -- -- -- -- -- -- -- --
0000:          6C F8 FF FF 7F  00 80 01 80 00              l.........   
```

#### Opcodes

```
  0: 0x0003 [0x6C] FADE_ENTITY_COLOR(entity_id=EventEntity, end_alpha=0*, fade_time=1*)
  1: 0x000C [0x00] END_REQSTACK()
```

### Event 65535.2

#### Metadata

| Field        | Value    |
|--------------|----------|
| Entrypoint   | 0x000D   |
| Data Size    | 10 bytes |
| Instructions | 2        |

```
      00 01 02 03 04 05 06 07  08 09 0A 0B 0C 0D 0E 0F
      -- -- -- -- -- -- -- --  -- -- -- -- -- -- -- --
0000:                                         6C F8 FF               l..
0010: FF 7F 02 80 03 80 00                              .......         
```

#### Opcodes

```
  0: 0x000D [0x6C] FADE_ENTITY_COLOR(entity_id=EventEntity, end_alpha=128*, fade_time=60*)
  1: 0x0016 [0x00] END_REQSTACK()
```

### Event 65535.3

#### Metadata

| Field        | Value    |
|--------------|----------|
| Entrypoint   | 0x0017   |
| Data Size    | 10 bytes |
| Instructions | 2        |

```
      00 01 02 03 04 05 06 07  08 09 0A 0B 0C 0D 0E 0F
      -- -- -- -- -- -- -- --  -- -- -- -- -- -- -- --
0010:                      6C  F8 FF FF 7F 00 80 03 80         l........
0020: 00                                                .               
```

#### Opcodes

```
  0: 0x0017 [0x6C] FADE_ENTITY_COLOR(entity_id=EventEntity, end_alpha=0*, fade_time=60*)
  1: 0x0020 [0x00] END_REQSTACK()
```

### Event 65535.4

#### Metadata

| Field        | Value    |
|--------------|----------|
| Entrypoint   | 0x0021   |
| Data Size    | 21 bytes |
| Instructions | 2        |

```
      00 01 02 03 04 05 06 07  08 09 0A 0B 0C 0D 0E 0F
      -- -- -- -- -- -- -- --  -- -- -- -- -- -- -- --
0020:    B6 0B 01 80 00 80 04  80 05 80 05 80 05 80 05   ...............
0030: 80 06 80 00 80 00                                 ......          
```

#### Opcodes

```
  0: 0x0021 [0xB6] ENTITY_APPEARANCE_HANDLER(case=Full entity look, race=1*, hair=0*, head=388*, body=230*, hands=230*, legs=230*, feet=230*, main=320*, sub=0*)
  1: 0x0035 [0x00] END_REQSTACK()
```

### Event 65535.5

#### Metadata

| Field        | Value    |
|--------------|----------|
| Entrypoint   | 0x0036   |
| Data Size    | 21 bytes |
| Instructions | 2        |

```
      00 01 02 03 04 05 06 07  08 09 0A 0B 0C 0D 0E 0F
      -- -- -- -- -- -- -- --  -- -- -- -- -- -- -- --
0030:                   B6 0B  07 80 07 80 04 80 05 80        ..........
0040: 05 80 05 80 05 80 00 80  00 80 00                 ...........     
```

#### Opcodes

```
  0: 0x0036 [0xB6] ENTITY_APPEARANCE_HANDLER(case=Full entity look, race=6*, hair=6*, head=388*, body=230*, hands=230*, legs=230*, feet=230*, main=0*, sub=0*)
  1: 0x004A [0x00] END_REQSTACK()
```

### Event 14

#### Metadata

| Field        | Value   |
|--------------|---------|
| Entrypoint   | 0x004B  |
| Data Size    | 1 bytes |
| Instructions | 1       |

```
      00 01 02 03 04 05 06 07  08 09 0A 0B 0C 0D 0E 0F
      -- -- -- -- -- -- -- --  -- -- -- -- -- -- -- --
0040:                                   00                         .    
```

#### Opcodes

```
  0: 0x004B [0x00] END_REQSTACK()
```

### Event 65535.6

#### Metadata

| Field        | Value    |
|--------------|----------|
| Entrypoint   | 0x004C   |
| Data Size    | 16 bytes |
| Instructions | 5        |

```
      00 01 02 03 04 05 06 07  08 09 0A 0B 0C 0D 0E 0F
      -- -- -- -- -- -- -- --  -- -- -- -- -- -- -- --
0040:                                      61 00 32 08              a.2.
0050: 80 1F 00 09 80 0A 80 0B  80 1F 01 00              ............    
```

#### Opcodes

```
  0: 0x004C [0x61] EventEntity->Render.Flags2 &= ~0x00000001
  1: 0x004E [0x32] ExtData[1]->MainSpeed = 13* * 0.1
  2: 0x0051 [0x1F] MOVE_ENTITY: EventEntity moves to X=-528.308*, Z=505.707*, Y=-1200.000*
  3: 0x0059 [0x1F] MOVE_ENTITY: Update entity position (mode=1)
  4: 0x005B [0x00] END_REQSTACK()
```

### Event 65535.7

#### Metadata

| Field        | Value     |
|--------------|-----------|
| Entrypoint   | 0x005C    |
| Data Size    | 256 bytes |
| Instructions | 26        |

```
      00 01 02 03 04 05 06 07  08 09 0A 0B 0C 0D 0E 0F
      -- -- -- -- -- -- -- --  -- -- -- -- -- -- -- --
0050:                                      29 10 F0 FF              )...
0060: FF 7F 0D 02 02 10 01 80  80 82 00 B6 0B 01 80 03  ................
0070: 10 00 80 0C 80 0D 80 05  80 05 80 00 80 00 80 01  ................
0080: 5B 01 02 02 10 0E 80 80  A1 00 B6 0B 0E 80 03 10  [...............
0090: 00 80 0C 80 0D 80 05 80  05 80 00 80 00 80 01 5B  ...............[
00A0: 01 02 02 10 0F 80 80 C0  00 B6 0B 0F 80 03 10 00  ................
00B0: 80 0C 80 0D 80 05 80 05  80 00 80 00 80 01 5B 01  ..............[.
00C0: 02 02 10 10 80 80 DF 00  B6 0B 10 80 03 10 00 80  ................
00D0: 0C 80 0D 80 05 80 05 80  00 80 00 80 01 5B 01 02  .............[..
00E0: 02 10 11 80 80 FE 00 B6  0B 11 80 03 10 00 80 0C  ................
00F0: 80 0D 80 05 80 05 80 00  80 00 80 01 5B 01 02 02  ............[...
0100: 10 07 80 80 1D 01 B6 0B  07 80 03 10 00 80 0C 80  ................
0110: 0D 80 05 80 05 80 00 80  00 80 01 5B 01 02 02 10  ...........[....
0120: 12 80 80 3C 01 B6 0B 12  80 03 10 00 80 0C 80 0D  ...<............
0130: 80 05 80 05 80 00 80 00  80 01 5B 01 02 02 10 13  ..........[.....
0140: 80 80 5B 01 B6 0B 13 80  03 10 00 80 0C 80 0D 80  ..[.............
0150: 05 80 05 80 00 80 00 80  01 5B 01 00              .........[..    
```

#### Opcodes

```
  0: 0x005C [0x29] REQ_SET_WAIT(priority=0x10, entity_id=LocalPlayer, tag_num=0x0D)
  1: 0x0063 [0x02] IF !(Work_Zone[2] == 1*) GOTO 0x0082
  2: 0x006B [0xB6] ENTITY_APPEARANCE_HANDLER(case=Full entity look, race=1*, hair=Work_Zone[3], head=0*, body=330*, hands=185*, legs=230*, feet=230*, main=0*, sub=0*)
  3: 0x007F [0x01] GOTO 0x015B
  4: 0x0082 [0x02] IF !(Work_Zone[2] == 2*) GOTO 0x00A1
  5: 0x008A [0xB6] ENTITY_APPEARANCE_HANDLER(case=Full entity look, race=2*, hair=Work_Zone[3], head=0*, body=330*, hands=185*, legs=230*, feet=230*, main=0*, sub=0*)
  6: 0x009E [0x01] GOTO 0x015B
  7: 0x00A1 [0x02] IF !(Work_Zone[2] == 3*) GOTO 0x00C0
  8: 0x00A9 [0xB6] ENTITY_APPEARANCE_HANDLER(case=Full entity look, race=3*, hair=Work_Zone[3], head=0*, body=330*, hands=185*, legs=230*, feet=230*, main=0*, sub=0*)
  9: 0x00BD [0x01] GOTO 0x015B
 10: 0x00C0 [0x02] IF !(Work_Zone[2] == 4*) GOTO 0x00DF
 11: 0x00C8 [0xB6] ENTITY_APPEARANCE_HANDLER(case=Full entity look, race=4*, hair=Work_Zone[3], head=0*, body=330*, hands=185*, legs=230*, feet=230*, main=0*, sub=0*)
 12: 0x00DC [0x01] GOTO 0x015B
 13: 0x00DF [0x02] IF !(Work_Zone[2] == 5*) GOTO 0x00FE
 14: 0x00E7 [0xB6] ENTITY_APPEARANCE_HANDLER(case=Full entity look, race=5*, hair=Work_Zone[3], head=0*, body=330*, hands=185*, legs=230*, feet=230*, main=0*, sub=0*)
 15: 0x00FB [0x01] GOTO 0x015B
 16: 0x00FE [0x02] IF !(Work_Zone[2] == 6*) GOTO 0x011D
 17: 0x0106 [0xB6] ENTITY_APPEARANCE_HANDLER(case=Full entity look, race=6*, hair=Work_Zone[3], head=0*, body=330*, hands=185*, legs=230*, feet=230*, main=0*, sub=0*)
 18: 0x011A [0x01] GOTO 0x015B
 19: 0x011D [0x02] IF !(Work_Zone[2] == 7*) GOTO 0x013C
 20: 0x0125 [0xB6] ENTITY_APPEARANCE_HANDLER(case=Full entity look, race=7*, hair=Work_Zone[3], head=0*, body=330*, hands=185*, legs=230*, feet=230*, main=0*, sub=0*)
 21: 0x0139 [0x01] GOTO 0x015B
 22: 0x013C [0x02] IF !(Work_Zone[2] == 8*) GOTO 0x015B
 23: 0x0144 [0xB6] ENTITY_APPEARANCE_HANDLER(case=Full entity look, race=8*, hair=Work_Zone[3], head=0*, body=330*, hands=185*, legs=230*, feet=230*, main=0*, sub=0*)
 24: 0x0158 [0x01] GOTO 0x015B

SUBROUTINE_015B:
 25: 0x015B [0x00] END_REQSTACK()
```

### Event 65535.8

#### Metadata

| Field        | Value    |
|--------------|----------|
| Entrypoint   | 0x015C   |
| Data Size    | 24 bytes |
| Instructions | 4        |

```
      00 01 02 03 04 05 06 07  08 09 0A 0B 0C 0D 0E 0F
      -- -- -- -- -- -- -- --  -- -- -- -- -- -- -- --
0150:                                      03 00 00 07              ....
0160: 7F 1A 8C 01 66 01 00 F8  FF FF 7F F8 FF FF 7F 74  ....f..........t
0170: 6C 6B 30 00                                       lk0.            
```

#### Opcodes

```
  0: 0x015C [0x03] ExtData[1]->WorkLocal[0] = Entity->Race
  1: 0x0161 [0x1A] CALL_SUBROUTINE(address=0x018C)
  2: 0x0164 [0x66] LOAD_EXT_SCHEDULER_MAIN: Load scheduler "tlk0" with entities [EventEntity, EventEntity], work=ExtData[1]->WorkLocal[1]
  3: 0x0173 [0x00] END_REQSTACK()
```

### Event 65535.9

#### Metadata

| Field        | Value     |
|--------------|-----------|
| Entrypoint   | 0x0174    |
| Data Size    | 172 bytes |
| Instructions | 12        |

```
      00 01 02 03 04 05 06 07  08 09 0A 0B 0C 0D 0E 0F
      -- -- -- -- -- -- -- --  -- -- -- -- -- -- -- --
0170:             03 00 00 07  7F 1A 8C 01 66 01 00 F8      ........f...
0180: FF FF 7F F8 FF FF 7F 74  6C 6B 31 00 03 01 00 00  .......tlk1.....
0190: 00 02 01 00 11 80 05 A1  01 08 01 00 01 80 01 A6  ................
01A0: 01 08 01 00 0E 80 14 01  00 14 80 07 01 00 15 80  ................
01B0: 1B 03 01 00 00 00 02 01  00 11 80 05 C6 01 08 01  ................
01C0: 00 01 80 01 CB 01 08 01  00 0E 80 14 01 00 14 80  ................
01D0: 07 01 00 16 80 1B 03 01  00 00 00 02 01 00 11 80  ................
01E0: 05 EB 01 08 01 00 01 80  01 F0 01 08 01 00 0E 80  ................
01F0: 14 01 00 14 80 07 01 00  17 80 1B 03 01 00 00 00  ................
0200: 02 01 00 11 80 05 10 02  08 01 00 01 80 01 15 02  ................
0210: 08 01 00 0E 80 14 01 00  14 80 07 01 00 18 80 1B  ................
```

#### Opcodes

```
  0: 0x0174 [0x03] ExtData[1]->WorkLocal[0] = Entity->Race
  1: 0x0179 [0x1A] CALL_SUBROUTINE(address=0x018C)
  2: 0x017C [0x66] LOAD_EXT_SCHEDULER_MAIN: Load scheduler "tlk1" with entities [EventEntity, EventEntity], work=ExtData[1]->WorkLocal[1]
  3: 0x018B [0x00] END_REQSTACK()

SUBROUTINE_018C:
  4: 0x018C [0x03] ExtData[1]->WorkLocal[1] = ExtData[1]->WorkLocal[0]
  5: 0x0191 [0x02] IF !(ExtData[1]->WorkLocal[1] > 5*) GOTO 0x01A1
  6: 0x0199 [0x08] ExtData[1]->WorkLocal[1] -= 1*
  7: 0x019E [0x01] GOTO 0x01A6
  8: 0x01A1 [0x08] ExtData[1]->WorkLocal[1] -= 2*

SUBROUTINE_01A6:
  9: 0x01A6 [0x14] ExtData[1]->WorkLocal[1] *= 10*
 10: 0x01AB [0x07] ExtData[1]->WorkLocal[1] += 9*
 11: 0x01B0 [0x1B] RETURN
```

#### Data or dead code:

```
# Dead code (unreachable instructions):
     0x01B1 [0x03] ExtData[1]->WorkLocal[1] = ExtData[1]->WorkLocal[0]
     0x01B6 [0x02] IF !(ExtData[1]->WorkLocal[1] > 5*) GOTO 0x01C6
     0x01BE [0x08] ExtData[1]->WorkLocal[1] -= 1*
     0x01C3 [0x01] GOTO 0x01CB
     0x01C6 [0x08] ExtData[1]->WorkLocal[1] -= 2*
     0x01CB [0x14] ExtData[1]->WorkLocal[1] *= 10*
     0x01D0 [0x07] ExtData[1]->WorkLocal[1] += 70*
     0x01D5 [0x1B] RETURN
     0x01D6 [0x03] ExtData[1]->WorkLocal[1] = ExtData[1]->WorkLocal[0]
     0x01DB [0x02] IF !(ExtData[1]->WorkLocal[1] > 5*) GOTO 0x01EB
     0x01E3 [0x08] ExtData[1]->WorkLocal[1] -= 1*
     0x01E8 [0x01] GOTO 0x01F0
     0x01EB [0x08] ExtData[1]->WorkLocal[1] -= 2*
     0x01F0 [0x14] ExtData[1]->WorkLocal[1] *= 10*
     0x01F5 [0x07] ExtData[1]->WorkLocal[1] += 140*
     0x01FA [0x1B] RETURN
     0x01FB [0x03] ExtData[1]->WorkLocal[1] = ExtData[1]->WorkLocal[0]
     0x0200 [0x02] IF !(ExtData[1]->WorkLocal[1] > 5*) GOTO 0x0210
     0x0208 [0x08] ExtData[1]->WorkLocal[1] -= 1*
     0x020D [0x01] GOTO 0x0215
     0x0210 [0x08] ExtData[1]->WorkLocal[1] -= 2*
     0x0215 [0x14] ExtData[1]->WorkLocal[1] *= 10*
     0x021A [0x07] ExtData[1]->WorkLocal[1] += 210*
     0x021F [0x1B] RETURN
```

### Event 65535.10

#### Metadata

| Field        | Value   |
|--------------|---------|
| Entrypoint   | 0x0220  |
| Data Size    | 7 bytes |
| Instructions | 3       |

```
      00 01 02 03 04 05 06 07  08 09 0A 0B 0C 0D 0E 0F
      -- -- -- -- -- -- -- --  -- -- -- -- -- -- -- --
0220: AB 03 AC 01 19 80 00                              .......         
```

#### Opcodes

```
  0: 0x0220 [0xAB] EventEntity->Render.Flags0 ^= 0x20000 // Toggle bit 17
  1: 0x0222 [0xAC] EventEntity->StatusEvent = 66*
  2: 0x0226 [0x00] END_REQSTACK()
```

### Event 65535.11

#### Metadata

| Field        | Value   |
|--------------|---------|
| Entrypoint   | 0x0227  |
| Data Size    | 9 bytes |
| Instructions | 4       |

```
      00 01 02 03 04 05 06 07  08 09 0A 0B 0C 0D 0E 0F
      -- -- -- -- -- -- -- --  -- -- -- -- -- -- -- --
0220:                      61  00 AC 01 00 80 AB 04 00         a........
```

#### Opcodes

```
  0: 0x0227 [0x61] EventEntity->Render.Flags2 &= ~0x00000001
  1: 0x0229 [0xAC] EventEntity->StatusEvent = 0*
  2: 0x022D [0xAB] EventEntity->Render.Flags0 |= 0x40000 // Set bit 18
  3: 0x022F [0x00] END_REQSTACK()
```
