# 16924800

## Common Data

| Field            | Value                     |
|------------------|---------------------------|
| Zone             | Empyreal Paradox (ID: 36) |
| Block Size       | 14700 bytes               |
| Total Events     | 3                         |
| References Count | 248                       |

## List of Events

| Event ID              | Entrypoint   |   Size |   Instructions |
|-----------------------|--------------|--------|----------------|
| [65535](#event-65535) | 0x0000       |      1 |              1 |
| [14](#event-14)       | 0x0001       |   8927 |           1182 |
| [17](#event-17)       | 0x22E0       |   4752 |            597 |

## DAT References (imed_data)

|   Index | Hex Value   |   Dec Value |
|---------|-------------|-------------|
|       0 | 0x0001      |           1 |
|       1 | 0x0000      |           0 |
|       2 | 0x0078      |         120 |
|       3 | 0x001B      |          27 |
|       4 | 0x0005      |           5 |
|       5 | 0x0006      |           6 |
|       6 | 0x0007      |           7 |
|       7 | 0x0008      |           8 |
|       8 | 0xFFF81D5B  |  4294450523 |
|       9 | 0x7E456     |      517206 |
|      10 | 0xFFFE2B40  |  4294847296 |
|      11 | 0x0D5C      |        3420 |
|      12 | 0xFFF80B28  |  4294445864 |
|      13 | 0x7C8E7     |      510183 |
|      14 | 0x0D5D      |        3421 |
|      15 | 0xFFF80264  |  4294443620 |
|      16 | 0x7C198     |      508312 |
|      17 | 0xFFEDB080  |  4293767296 |
|      18 | 0x04FD      |        1277 |
|      19 | 0x00BB      |         187 |
|      20 | 0x001E      |          30 |
|      21 | 0x00E4      |         228 |
|      22 | 0x0318      |         792 |
|      23 | 0x0096      |         150 |
|      24 | 0x003C      |          60 |
|      25 | 0x1EDB      |        7899 |
|      26 | 0x005A      |          90 |
|      27 | 0x1EDC      |        7900 |
|      28 | 0x0002      |           2 |
|      29 | 0x1EDD      |        7901 |
|      30 | 0x0003      |           3 |
|      31 | 0x0004      |           4 |
|      32 | 0x1EDE      |        7902 |
|      33 | 0xFFF80911  |  4294445329 |
|      34 | 0x7C95B     |      510299 |
|      35 | 0x0D5E      |        3422 |
|      36 | 0x00D4      |         212 |
|      37 | 0x00DE      |         222 |
|      38 | 0x00E8      |         232 |
|      39 | 0x00F2      |         242 |
|      40 | 0x00FC      |         252 |
|      41 | 0x0106      |         262 |
|      42 | 0x0110      |         272 |
|      43 | 0x00D5      |         213 |
|      44 | 0x1E19      |        7705 |
|      45 | 0x1EDF      |        7903 |
|      46 | 0x1EE0      |        7904 |
|      47 | 0x1EE1      |        7905 |
|      48 | 0xFFFFFF5B  |  4294967131 |
|      49 | 0x03E8      |        1000 |
|      50 | 0x1EE2      |        7906 |
|      51 | 0x1EE3      |        7907 |
|      52 | 0x04CB      |        1227 |
|      53 | 0x0F40      |        3904 |
|      54 | 0x0F48      |        3912 |
|      55 | 0x0066      |         102 |
|      56 | 0x1EE4      |        7908 |
|      57 | 0x0F14      |        3860 |
|      58 | 0x1EE5      |        7909 |
|      59 | 0x1EE6      |        7910 |
|      60 | 0x1EE7      |        7911 |
|      61 | 0x1EE8      |        7912 |
|      62 | 0x0064      |         100 |
|      63 | 0x00C8      |         200 |
|      64 | 0x008C      |         140 |
|      65 | 0x00A0      |         160 |
|      66 | 0x00AA      |         170 |
|      67 | 0x00B4      |         180 |
|      68 | 0x00BE      |         190 |
|      69 | 0x1EE9      |        7913 |
|      70 | 0x0300      |         768 |
|      71 | 0x1EEA      |        7914 |
|      72 | 0x1EEB      |        7915 |
|      73 | 0xFFFE2758  |  4294846296 |
|      74 | 0x052B      |        1323 |
|      75 | 0x1EEC      |        7916 |
|      76 | 0x1EED      |        7917 |
|      77 | 0x1EEE      |        7918 |
|      78 | 0x00DF      |         223 |
|      79 | 0x00E9      |         233 |
|      80 | 0x00F3      |         243 |
|      81 | 0x00FD      |         253 |
|      82 | 0x0107      |         263 |
|      83 | 0x0111      |         273 |
|      84 | 0x1EEF      |        7919 |
|      85 | 0x0032      |          50 |
|      86 | 0x0514      |        1300 |
|      87 | 0x1EF0      |        7920 |
|      88 | 0x1EF1      |        7921 |
|      89 | 0x00CC      |         204 |
|      90 | 0x00F0      |         240 |
|      91 | 0x0140      |         320 |
|      92 | 0xFFFE17B8  |  4294842296 |
|      93 | 0xFFFE15C4  |  4294841796 |
|      94 | 0x00FB      |         251 |
|      95 | 0x1EF2      |        7922 |
|      96 | 0x01E0      |         480 |
|      97 | 0x012C      |         300 |
|      98 | 0x02DE      |         734 |
|      99 | 0x00FF      |         255 |
|     100 | 0x3F7FE     |      260094 |
|     101 | 0x19D85     |      105861 |
|     102 | 0xFFFEAC29  |  4294880297 |
|     103 | 0x0404      |        1028 |
|     104 | 0x0211      |         529 |
|     105 | 0x0FB9      |        4025 |
|     106 | 0x7A120     |      500000 |
|     107 | 0x0B77      |        2935 |
|     108 | 0x03F5      |        1013 |
|     109 | 0x274E      |       10062 |
|     110 | 0x0444      |        1092 |
|     111 | 0xFFFFF5A9  |  4294964649 |
|     112 | 0x22DE      |        8926 |
|     113 | 0x7A0BC     |      499900 |
|     114 | 0x032E      |         814 |
|     115 | 0x00A7      |         167 |
|     116 | 0x0030      |          48 |
|     117 | 0x1EF3      |        7923 |
|     118 | 0x1EF4      |        7924 |
|     119 | 0x1EF5      |        7925 |
|     120 | 0x1EF6      |        7926 |
|     121 | 0x1EF7      |        7927 |
|     122 | 0x1EF8      |        7928 |
|     123 | 0x1EF9      |        7929 |
|     124 | 0x1EFA      |        7930 |
|     125 | 0x1EFB      |        7931 |
|     126 | 0xFFFFFF56  |  4294967126 |
|     127 | 0x1EFC      |        7932 |
|     128 | 0x1EFD      |        7933 |
|     129 | 0x1EFE      |        7934 |
|     130 | 0xFFFFFDEE  |  4294966766 |
|     131 | 0x2678      |        9848 |
|     132 | 0x038F      |         911 |
|     133 | 0x0091      |         145 |
|     134 | 0x0059      |          89 |
|     135 | 0x1EFF      |        7935 |
|     136 | 0x1F00      |        7936 |
|     137 | 0x1F01      |        7937 |
|     138 | 0xFFFFFF51  |  4294967121 |
|     139 | 0x1F02      |        7938 |
|     140 | 0x1F03      |        7939 |
|     141 | 0xFFFFFF50  |  4294967120 |
|     142 | 0x1F04      |        7940 |
|     143 | 0x1F05      |        7941 |
|     144 | 0x08D4      |        2260 |
|     145 | 0x0778      |        1912 |
|     146 | 0x7A508     |      501000 |
|     147 | 0x0400      |        1024 |
|     148 | 0xFFFFF888  |  4294965384 |
|     149 | 0x0C00      |        3072 |
|     150 | 0x0FA0      |        4000 |
|     151 | 0xFFFFFBB4  |  4294966196 |
|     152 | 0x0800      |        2048 |
|     153 | 0xFFFFFA24  |  4294965796 |
|     154 | 0xFFFFFC18  |  4294966296 |
|     155 | 0x7A8F0     |      502000 |
|     156 | 0x7B890     |      506000 |
|     157 | 0x0013      |          19 |
|     158 | 0x1F06      |        7942 |
|     159 | 0xFFFFF63C  |  4294964796 |
|     160 | 0x0014      |          20 |
|     161 | 0x1F07      |        7943 |
|     162 | 0xFFFFF830  |  4294965296 |
|     163 | 0x1F08      |        7944 |
|     164 | 0x0708      |        1800 |
|     165 | 0xFFFFFB94  |  4294966164 |
|     166 | 0x29D5      |       10709 |
|     167 | 0x7A4A4     |      500900 |
|     168 | 0x1F09      |        7945 |
|     169 | 0x1F0A      |        7946 |
|     170 | 0x000F      |          15 |
|     171 | 0x04D7      |        1239 |
|     172 | 0x0963      |        2403 |
|     173 | 0x1F0B      |        7947 |
|     174 | 0x1F0C      |        7948 |
|     175 | 0x1F0D      |        7949 |
|     176 | 0x1F0E      |        7950 |
|     177 | 0x1F0F      |        7951 |
|     178 | 0x1F10      |        7952 |
|     179 | 0x1F11      |        7953 |
|     180 | 0xFFFFFE00  |  4294966784 |
|     181 | 0xFFFFFD00  |  4294966528 |
|     182 | 0x1F12      |        7954 |
|     183 | 0x1F13      |        7955 |
|     184 | 0x1F14      |        7956 |
|     185 | 0x002F      |          47 |
|     186 | 0x0F68      |        3944 |
|     187 | 0x1F15      |        7957 |
|     188 | 0x1F16      |        7958 |
|     189 | 0x0024      |          36 |
|     190 | 0xFFFE29B0  |  4294846896 |
|     191 | 0xFFFE2BA4  |  4294847396 |
|     192 | 0x1F17      |        7959 |
|     193 | 0x1F18      |        7960 |
|     194 | 0x1F19      |        7961 |
|     195 | 0x00CD      |         205 |
|     196 | 0x0113      |         275 |
|     197 | 0x0314      |         788 |
|     198 | 0xFFFE13D0  |  4294841296 |
|     199 | 0xFFF8124B  |  4294447691 |
|     200 | 0x7CBFA     |      510970 |
|     201 | 0x7D3CA     |      512970 |
|     202 | 0xFFFE0AD4  |  4294838996 |
|     203 | 0x00EE      |         238 |
|     204 | 0x0F6D      |        3949 |
|     205 | 0x00E5      |         229 |
|     206 | 0x0319      |         793 |
|     207 | 0x1F1E      |        7966 |
|     208 | 0x0050      |          80 |
|     209 | 0x0168      |         360 |
|     210 | 0xFFFFFFCE  |  4294967246 |
|     211 | 0xFFFFFFB5  |  4294967221 |
|     212 | 0x1F1F      |        7967 |
|     213 | 0x1F20      |        7968 |
|     214 | 0x005D      |          93 |
|     215 | 0xFFFFFF4E  |  4294967118 |
|     216 | 0xFFFFFCC5  |  4294966469 |
|     217 | 0x24F7      |        9463 |
|     218 | 0x79D6A     |      499050 |
|     219 | 0x00D6      |         214 |
|     220 | 0x00E0      |         224 |
|     221 | 0x00EA      |         234 |
|     222 | 0x00F4      |         244 |
|     223 | 0x00FE      |         254 |
|     224 | 0x0108      |         264 |
|     225 | 0x0112      |         274 |
|     226 | 0x1F21      |        7969 |
|     227 | 0x1F22      |        7970 |
|     228 | 0x1F23      |        7971 |
|     229 | 0x1F24      |        7972 |
|     230 | 0x1F25      |        7973 |
|     231 | 0x1F26      |        7974 |
|     232 | 0x1F27      |        7975 |
|     233 | 0x1F28      |        7976 |
|     234 | 0x1F29      |        7977 |
|     235 | 0x1F2A      |        7978 |
|     236 | 0x1F2B      |        7979 |
|     237 | 0x1F2C      |        7980 |
|     238 | 0x1F2D      |        7981 |
|     239 | 0x1F2E      |        7982 |
|     240 | 0x02D0      |         720 |
|     241 | 0x1F2F      |        7983 |
|     242 | 0x1F30      |        7984 |
|     243 | 0x1F31      |        7985 |
|     244 | 0x03E7      |         999 |
|     245 | 0x00C9      |         201 |
|     246 | 0x002D      |          45 |
|     247 | 0x00D7      |         215 |

## String References

- **7705**: 
- **7920**: What is your decision? [Commence the Reckoning./Stand idly by.]
- **7955**: Now what? [Commence the Reckoning./Sit idly by.]
- **7967**: And so thou hast brought a raging storm back to Vana'diel.
- **7968**: It twists and churns, time borne upon its back.
- **7983**: ...No...
- **7984**: What is...?
- **7985**: That tiny...

## Events

### Event 65535

#### Metadata

| Field        | Value   |
|--------------|---------|
| Entrypoint   | 0x0000  |
| Data Size    | 1 bytes |
| Instructions | 1       |

```
      00 01 02 03 04 05 06 07  08 09 0A 0B 0C 0D 0E 0F
      -- -- -- -- -- -- -- --  -- -- -- -- -- -- -- --
0000: 00                                                .               
```

#### Opcodes

```
  0: 0x0000 [0x00] END_REQSTACK()
```

### Event 14

#### Metadata

| Field        | Value      |
|--------------|------------|
| Entrypoint   | 0x0001     |
| Data Size    | 8927 bytes |
| Instructions | 1180       |

```
      00 01 02 03 04 05 06 07  08 09 0A 0B 0C 0D 0E 0F
      -- -- -- -- -- -- -- --  -- -- -- -- -- -- -- --
0000:    42 03 01 10 00 80 43  00 43 01 03 01 00 03 10   B.....C.C......
0010: 5D 01 80 02 80 1A 42 33  46 01 38 03 80 2F 00 83  ].....B3F.8../..
0020: 40 02 01 2F 00 84 40 02  01 4E 00 83 40 02 01 4E  @../..@..N..@..N
0030: 00 84 40 02 01 4E 00 F0  FF FF 7F 29 05 83 40 02  ..@..N.....)..@.
0040: 01 10 94 01 83 40 02 01  94 01 84 40 02 01 94 01  .....@.....@....
0050: F0 FF FF 7F 92 01 83 40  02 01 03 03 10 01 00 29  .......@.......)
0060: 05 83 40 02 01 12 29 05  84 40 02 01 0A 02 87 7F  ..@...)..@......
0070: 04 80 80 7F 00 27 05 F0  FF FF 7F 23 01 BC 00 02  .....'.....#....
0080: 87 7F 05 80 80 91 00 27  05 F0 FF FF 7F 23 01 BC  .......'.....#..
0090: 00 02 87 7F 06 80 80 A3  00 27 05 F0 FF FF 7F 24  .........'.....$
00A0: 01 BC 00 02 87 7F 07 80  80 B5 00 27 05 F0 FF FF  ...........'....
00B0: 7F 25 01 BC 00 27 05 F0  FF FF 7F 26 59 05 84 40  .%...'.....&Y..@
00C0: 02 01 01 BA 83 40 02 01  08 80 09 80 0A 80 0B 80  .....@..........
00D0: BA F0 FF FF 7F 0C 80 0D  80 0A 80 0E 80 BA 84 40  ...............@
00E0: 02 01 0F 80 10 80 11 80  12 80 80 83 40 02 01 80  ............@...
00F0: F0 FF FF 7F 80 84 40 02  01 D0 13 80 83 40 02 01  ......@......@..
0100: 83 40 02 01 73 30 30 30  01 80 1C 14 80 5C 00 15  .@..s000.....\..
0110: 80 5C 01 15 80 9A 45 16  80 F8 FF FF 7F F8 FF FF  .\....E.........
0120: 7F 73 30 35 36 01 80 1A  21 33 1C 17 80 52 16 80  .s056...!3...R..
0130: F8 FF FF 7F F8 FF FF 7F  73 30 35 36 02 87 7F 04  ........s056....
0140: 80 80 58 01 45 16 80 F8  FF FF 7F F8 FF FF 7F 73  ..X.E..........s
0150: 30 35 38 01 80 01 85 01  02 87 7F 05 80 80 74 01  058...........t.
0160: 45 16 80 F8 FF FF 7F F8  FF FF 7F 73 30 35 38 01  E..........s058.
0170: 80 01 85 01 45 16 80 F8  FF FF 7F F8 FF FF 7F 73  ....E..........s
0180: 30 35 37 01 80 1C 18 80  2B 83 40 02 01 19 80 1C  057.....+.@.....
0190: 1A 80 23 52 16 80 F8 FF  FF 7F F8 FF FF 7F 73 30  ..#R..........s0
01A0: 35 37 52 16 80 F8 FF FF  7F F8 FF FF 7F 73 30 35  57R..........s05
01B0: 38 45 16 80 F8 FF FF 7F  F8 FF FF 7F 73 30 35 39  8E..........s059
01C0: 01 80 2B 83 40 02 01 1B  80 1C 02 80 23 52 16 80  ..+.@.......#R..
01D0: F8 FF FF 7F F8 FF FF 7F  73 30 35 39 02 87 7F 1C  ........s059....
01E0: 80 80 F8 01 45 16 80 F8  FF FF 7F F8 FF FF 7F 73  ....E..........s
01F0: 30 36 33 01 80 01 79 02  02 87 7F 04 80 80 14 02  063...y.........
0200: 45 16 80 F8 FF FF 7F F8  FF FF 7F 73 30 36 34 01  E..........s064.
0210: 80 01 79 02 02 87 7F 05  80 80 30 02 45 16 80 F8  ..y.......0.E...
0220: FF FF 7F F8 FF FF 7F 73  30 36 34 01 80 01 79 02  .......s064...y.
0230: 02 87 7F 06 80 80 4C 02  45 16 80 F8 FF FF 7F F8  ......L.E.......
0240: FF FF 7F 73 30 36 33 01  80 01 79 02 02 87 7F 07  ...s063...y.....
0250: 80 80 68 02 45 16 80 F8  FF FF 7F F8 FF FF 7F 73  ..h.E..........s
0260: 30 36 36 01 80 01 79 02  45 16 80 F8 FF FF 7F F8  066...y.E.......
0270: FF FF 7F 73 30 36 30 01  80 2B 83 40 02 01 1D 80  ...s060..+.@....
0280: 1C 02 80 23 52 16 80 F8  FF FF 7F F8 FF FF 7F 73  ...#R..........s
0290: 30 36 30 52 16 80 F8 FF  FF 7F F8 FF FF 7F 73 30  060R..........s0
02A0: 36 33 52 16 80 F8 FF FF  7F F8 FF FF 7F 73 30 36  63R..........s06
02B0: 34 52 16 80 F8 FF FF 7F  F8 FF FF 7F 73 30 36 36  4R..........s066
02C0: 02 87 7F 1E 80 80 DC 02  45 16 80 F8 FF FF 7F F8  ........E.......
02D0: FF FF 7F 73 30 36 37 01  80 01 5D 03 02 87 7F 1F  ...s067...].....
02E0: 80 80 F8 02 45 16 80 F8  FF FF 7F F8 FF FF 7F 73  ....E..........s
02F0: 30 36 37 01 80 01 5D 03  02 87 7F 04 80 80 14 03  067...].........
0300: 45 16 80 F8 FF FF 7F F8  FF FF 7F 73 30 36 38 01  E..........s068.
0310: 80 01 5D 03 02 87 7F 05  80 80 30 03 45 16 80 F8  ..].......0.E...
0320: FF FF 7F F8 FF FF 7F 73  30 36 38 01 80 01 5D 03  .......s068...].
0330: 02 87 7F 07 80 80 4C 03  45 16 80 F8 FF FF 7F F8  ......L.E.......
0340: FF FF 7F 73 30 36 37 01  80 01 5D 03 45 16 80 F8  ...s067...].E...
0350: FF FF 7F F8 FF FF 7F 73  30 36 35 01 80 2B 83 40  .......s065..+.@
0360: 02 01 20 80 1C 02 80 23  1A 42 33 1C 14 80 D0 13  .. ....#.B3.....
0370: 80 83 40 02 01 83 40 02  01 6B 6C 6C 61 01 80 52  ..@...@..klla..R
0380: 16 80 F8 FF FF 7F F8 FF  FF 7F 73 30 36 35 52 16  ..........s065R.
0390: 80 F8 FF FF 7F F8 FF FF  7F 73 30 36 37 52 16 80  .........s067R..
03A0: F8 FF FF 7F F8 FF FF 7F  73 30 36 38 59 05 83 40  ........s068Y..@
03B0: 02 01 01 BA 83 40 02 01  21 80 22 80 11 80 23 80  .....@..!."...#.
03C0: 80 83 40 02 01 1C 14 80  02 87 7F 00 80 80 E2 03  ..@.............
03D0: 66 24 80 84 40 02 01 84  40 02 01 77 6C 6B 31 01  f$..@...@..wlk1.
03E0: 98 04 02 87 7F 1C 80 80  FC 03 66 25 80 84 40 02  ..........f%..@.
03F0: 01 84 40 02 01 77 6C 6B  31 01 98 04 02 87 7F 1E  ..@..wlk1.......
0400: 80 80 16 04 66 26 80 84  40 02 01 84 40 02 01 77  ....f&..@...@..w
0410: 6C 6B 31 01 98 04 02 87  7F 1F 80 80 30 04 66 27  lk1.........0.f'
0420: 80 84 40 02 01 84 40 02  01 77 6C 6B 31 01 98 04  ..@...@..wlk1...
0430: 02 87 7F 04 80 80 4A 04  66 28 80 84 40 02 01 84  ......J.f(..@...
0440: 40 02 01 77 6C 6B 31 01  98 04 02 87 7F 05 80 80  @..wlk1.........
0450: 64 04 66 28 80 84 40 02  01 84 40 02 01 77 6C 6B  d.f(..@...@..wlk
0460: 31 01 98 04 02 87 7F 06  80 80 7E 04 66 29 80 84  1.........~.f)..
0470: 40 02 01 84 40 02 01 77  6C 6B 31 01 98 04 02 87  @...@..wlk1.....
0480: 7F 07 80 80 98 04 66 2A  80 84 40 02 01 84 40 02  ......f*..@...@.
0490: 01 77 6C 6B 31 01 98 04  02 87 7F 00 80 80 B2 04  .wlk1...........
04A0: 66 24 80 83 40 02 01 83  40 02 01 77 6C 6B 31 01  f$..@...@..wlk1.
04B0: 68 05 02 87 7F 1C 80 80  CC 04 66 25 80 83 40 02  h.........f%..@.
04C0: 01 83 40 02 01 77 6C 6B  31 01 68 05 02 87 7F 1E  ..@..wlk1.h.....
04D0: 80 80 E6 04 66 26 80 83  40 02 01 83 40 02 01 77  ....f&..@...@..w
04E0: 6C 6B 31 01 68 05 02 87  7F 1F 80 80 00 05 66 27  lk1.h.........f'
04F0: 80 83 40 02 01 83 40 02  01 77 6C 6B 31 01 68 05  ..@...@..wlk1.h.
0500: 02 87 7F 04 80 80 1A 05  66 28 80 83 40 02 01 83  ........f(..@...
0510: 40 02 01 77 6C 6B 31 01  68 05 02 87 7F 05 80 80  @..wlk1.h.......
0520: 34 05 66 28 80 83 40 02  01 83 40 02 01 77 6C 6B  4.f(..@...@..wlk
0530: 31 01 68 05 02 87 7F 06  80 80 4E 05 66 29 80 83  1.h.......N.f)..
0540: 40 02 01 83 40 02 01 77  6C 6B 31 01 68 05 02 87  @...@..wlk1.h...
0550: 7F 07 80 80 68 05 66 2A  80 83 40 02 01 83 40 02  ....h.f*..@...@.
0560: 01 77 6C 6B 31 01 68 05  C5 2B 80 84 40 02 01 84  .wlk1.h..+..@...
0570: 40 02 01 73 30 30 31 01  80 C5 2B 80 83 40 02 01  @..s001...+..@..
0580: 83 40 02 01 73 30 30 31  01 80 48 2C 80 23 7C 00  .@..s001..H,.#|.
0590: 83 40 02 01 45 16 80 F8  FF FF 7F F8 FF FF 7F 73  .@..E..........s
05A0: 30 36 39 01 80 1A 21 33  1C 18 80 2B 83 40 02 01  069...!3...+.@..
05B0: 2D 80 1C 02 80 23 52 16  80 F8 FF FF 7F F8 FF FF  -....#R.........
05C0: 7F 73 30 36 39 02 87 7F  04 80 80 E1 05 45 16 80  .s069........E..
05D0: F8 FF FF 7F F8 FF FF 7F  73 30 37 31 01 80 01 0E  ........s071....
05E0: 06 02 87 7F 05 80 80 FD  05 45 16 80 F8 FF FF 7F  .........E......
05F0: F8 FF FF 7F 73 30 37 31  01 80 01 0E 06 45 16 80  ....s071.....E..
0600: F8 FF FF 7F F8 FF FF 7F  73 30 37 30 01 80 2B 83  ........s070..+.
0610: 40 02 01 2E 80 1C 02 80  23 52 16 80 F8 FF FF 7F  @.......#R......
0620: F8 FF FF 7F 73 30 37 30  52 16 80 F8 FF FF 7F F8  ....s070R.......
0630: FF FF 7F 73 30 37 31 02  87 7F 04 80 80 53 06 45  ...s071......S.E
0640: 16 80 F8 FF FF 7F F8 FF  FF 7F 73 30 37 33 01 80  ..........s073..
0650: 01 80 06 02 87 7F 05 80  80 6F 06 45 16 80 F8 FF  .........o.E....
0660: FF 7F F8 FF FF 7F 73 30  37 33 01 80 01 80 06 45  ......s073.....E
0670: 16 80 F8 FF FF 7F F8 FF  FF 7F 73 30 37 32 01 80  ..........s072..
0680: 2B 83 40 02 01 2F 80 23  1A 42 33 1C 14 80 48 2C  +.@../.#.B3...H,
0690: 80 23 52 16 80 F8 FF FF  7F F8 FF FF 7F 73 30 37  .#R..........s07
06A0: 32 52 16 80 F8 FF FF 7F  F8 FF FF 7F 73 30 37 33  2R..........s073
06B0: C5 2B 80 83 40 02 01 83  40 02 01 6B 69 6C 31 01  .+..@...@..kil1.
06C0: 80 6B 69 64 6C 30 84 40  02 01 6B 69 64 6C 30 83  .kidl0.@..kidl0.
06D0: 40 02 01 BA 83 40 02 01  08 80 09 80 0A 80 0B 80  @....@..........
06E0: 80 83 40 02 01 4A 83 40  02 01 F0 FF FF 7F 4A F0  ..@..J.@......J.
06F0: FF FF 7F 83 40 02 01 1A  E9 34 89 30 80 1C 18 80  ....@....4.0....
0700: B4 14 31 80 31 80 31 80  01 80 00 80 1A D7 34 2B  ..1.1.1.......4+
0710: 83 40 02 01 32 80 1C 1A  80 23 2B 83 40 02 01 33  .@..2....#+.@..3
0720: 80 1C 1A 80 23 1A E9 34  8A B4 15 1A D7 34 2F 00  ....#..4.....4/.
0730: 81 40 02 01 4E 00 81 40  02 01 92 01 81 40 02 01  .@..N..@.....@..
0740: 94 01 81 40 02 01 59 05  81 40 02 01 01 BA 81 40  ...@..Y..@.....@
0750: 02 01 21 80 22 80 11 80  34 80 BA 84 40 02 01 0F  ..!."...4...@...
0760: 80 10 80 11 80 0B 80 80  81 40 02 01 80 84 40 02  .........@....@.
0770: 01 4A 81 40 02 01 84 40  02 01 7B 81 40 02 01 1C  .J.@...@..{.@...
0780: 14 80 27 05 84 40 02 01  0D 1C 02 80 81 00 81 40  ..'..@.........@
0790: 02 01 7C 00 81 40 02 01  5B 35 80 81 40 02 01 81  ..|..@..[5..@...
07A0: 40 02 01 66 6E 30 30 5B  36 80 81 40 02 01 81 40  @..fn00[6..@...@
07B0: 02 01 73 65 69 30 D0 37  80 84 40 02 01 84 40 02  ..sei0.7..@...@.
07C0: 01 6B 79 75 30 01 80 C5  2B 80 81 40 02 01 81 40  .kyu0...+..@...@
07D0: 02 01 73 30 30 31 01 80  C5 2B 80 84 40 02 01 84  ..s001...+..@...
07E0: 40 02 01 6B 69 6C 31 01  80 1C 14 80 45 16 80 F8  @..kil1.....E...
07F0: FF FF 7F F8 FF FF 7F 73  30 37 34 01 80 1A 21 33  .......s074...!3
0800: 2B 83 40 02 01 38 80 1C  1A 80 23 27 05 84 40 02  +.@..8....#'..@.
0810: 01 0E 1C 02 80 52 16 80  F8 FF FF 7F F8 FF FF 7F  .....R..........
0820: 73 30 37 34 02 87 7F 04  80 80 40 08 45 16 80 F8  s074......@.E...
0830: FF FF 7F F8 FF FF 7F 73  30 37 36 01 80 01 89 08  .......s076.....
0840: 02 87 7F 05 80 80 5C 08  45 16 80 F8 FF FF 7F F8  ......\.E.......
0850: FF FF 7F 73 30 37 36 01  80 01 89 08 02 87 7F 07  ...s076.........
0860: 80 80 78 08 45 16 80 F8  FF FF 7F F8 FF FF 7F 73  ..x.E..........s
0870: 30 39 32 01 80 01 89 08  45 16 80 F8 FF FF 7F F8  092.....E.......
0880: FF FF 7F 73 30 37 35 01  80 27 05 84 40 02 01 09  ...s075..'..@...
0890: 1C 02 80 1A 42 33 1C 14  80 7A 00 84 40 02 01 52  ....B3...z..@..R
08A0: 16 80 F8 FF FF 7F F8 FF  FF 7F 73 30 37 35 52 16  ..........s075R.
08B0: 80 F8 FF FF 7F F8 FF FF  7F 73 30 37 36 52 16 80  .........s076R..
08C0: F8 FF FF 7F F8 FF FF 7F  73 30 39 32 C5 2B 80 84  ........s092.+..
08D0: 40 02 01 84 40 02 01 6B  69 6C 31 01 80 C5 2B 80  @...@..kil1...+.
08E0: 81 40 02 01 81 40 02 01  6B 69 6C 31 01 80 D0 37  .@...@..kil1...7
08F0: 80 84 40 02 01 84 40 02  01 6B 6C 6B 79 01 80 27  ..@...@..klky..'
0900: 05 84 40 02 01 07 4E 01  84 40 02 01 7B 81 40 02  ..@...N..@..{.@.
0910: 01 81 00 81 40 02 01 5B  39 80 81 40 02 01 81 40  ....@..[9..@...@
0920: 02 01 77 61 70 6C 27 05  81 40 02 01 06 7C 01 83  ..wapl'..@...|..
0930: 40 02 01 D0 13 80 83 40  02 01 83 40 02 01 73 30  @......@...@..s0
0940: 30 30 01 80 48 2C 80 23  1C 02 80 2B 83 40 02 01  00..H,.#...+.@..
0950: 3A 80 1C 1A 80 23 45 16  80 F8 FF FF 7F F8 FF FF  :....#E.........
0960: 7F 73 30 37 37 01 80 1A  21 33 1C 18 80 2B 83 40  .s077...!3...+.@
0970: 02 01 3B 80 1C 02 80 23  2B 83 40 02 01 3C 80 1C  ..;....#+.@..<..
0980: 02 80 23 1A 84 33 1C 14  80 D0 13 80 83 40 02 01  ..#..3.......@..
0990: 83 40 02 01 6B 6C 6C 61  01 80 52 16 80 F8 FF FF  .@..klla..R.....
09A0: 7F F8 FF FF 7F 73 30 37  37 1C 14 80 45 16 80 F8  .....s077...E...
09B0: FF FF 7F F8 FF FF 7F 73  30 37 38 01 80 1A 63 33  .......s078...c3
09C0: 2B 83 40 02 01 3D 80 D0  3E 80 81 40 02 01 81 40  +.@..=..>..@...@
09D0: 02 01 73 30 30 30 01 80  1C 3F 80 5B 39 80 81 40  ..s000...?.[9..@
09E0: 02 01 81 40 02 01 77 61  70 30 1C 3E 80 23 1A 42  ...@..wap0.>.#.B
09F0: 33 1C 14 80 52 16 80 F8  FF FF 7F F8 FF FF 7F 73  3...R..........s
0A00: 30 37 38 6B 69 64 6C 30  81 40 02 01 29 05 81 40  078kidl0.@..)..@
0A10: 02 01 07 4E 01 81 40 02  01 7B 83 40 02 01 BA 83  ...N..@..{.@....
0A20: 40 02 01 08 80 09 80 11  80 0B 80 80 83 40 02 01  @............@..
0A30: 1C 14 80 02 87 7F 00 80  80 4D 0A 66 40 80 83 40  .........M.f@..@
0A40: 02 01 83 40 02 01 6F 72  7A 30 01 03 0B 02 87 7F  ...@..orz0......
0A50: 1C 80 80 67 0A 66 17 80  83 40 02 01 83 40 02 01  ...g.f...@...@..
0A60: 6F 72 7A 30 01 03 0B 02  87 7F 1E 80 80 81 0A 66  orz0...........f
0A70: 41 80 83 40 02 01 83 40  02 01 6F 72 7A 30 01 03  A..@...@..orz0..
0A80: 0B 02 87 7F 1F 80 80 9B  0A 66 42 80 83 40 02 01  .........fB..@..
0A90: 83 40 02 01 6F 72 7A 30  01 03 0B 02 87 7F 04 80  .@..orz0........
0AA0: 80 B5 0A 66 43 80 83 40  02 01 83 40 02 01 6F 72  ...fC..@...@..or
0AB0: 7A 30 01 03 0B 02 87 7F  05 80 80 CF 0A 66 43 80  z0...........fC.
0AC0: 83 40 02 01 83 40 02 01  6F 72 7A 30 01 03 0B 02  .@...@..orz0....
0AD0: 87 7F 06 80 80 E9 0A 66  44 80 83 40 02 01 83 40  .......fD..@...@
0AE0: 02 01 6F 72 7A 30 01 03  0B 02 87 7F 07 80 80 03  ..orz0..........
0AF0: 0B 66 3F 80 83 40 02 01  83 40 02 01 6F 72 7A 30  .f?..@...@..orz0
0B00: 01 03 0B C5 2B 80 83 40  02 01 83 40 02 01 73 30  ....+..@...@..s0
0B10: 30 31 01 80 1C 14 80 45  16 80 F8 FF FF 7F F8 FF  01.....E........
0B20: FF 7F 73 30 37 39 01 80  1A 21 33 1C 02 80 2B 83  ..s079...!3...+.
0B30: 40 02 01 45 80 1C 1A 80  23 1A 42 33 1C 14 80 52  @..E....#.B3...R
0B40: 16 80 F8 FF FF 7F F8 FF  FF 7F 73 30 37 39 C5 2B  ..........s079.+
0B50: 80 83 40 02 01 83 40 02  01 6B 69 6C 31 01 80 6B  ..@...@..kil1..k
0B60: 69 64 6C 30 83 40 02 01  4E 00 81 40 02 01 BA 83  idl0.@..N..@....
0B70: 40 02 01 08 80 09 80 0A  80 0B 80 80 81 40 02 01  @............@..
0B80: 80 83 40 02 01 4A 83 40  02 01 F0 FF FF 7F 4A F0  ..@..J.@......J.
0B90: FF FF 7F 83 40 02 01 D0  13 80 83 40 02 01 83 40  ....@......@...@
0BA0: 02 01 73 30 30 30 01 80  48 2C 80 23 45 16 80 F8  ..s000..H,.#E...
0BB0: FF FF 7F F8 FF FF 7F 73  30 38 30 01 80 1A 21 33  .......s080...!3
0BC0: CD 06 80 F8 FF FF 7F F8  FF FF 7F 73 30 30 33 01  ...........s003.
0BD0: 80 1C 17 80 52 16 80 F8  FF FF 7F F8 FF FF 7F 73  ....R..........s
0BE0: 30 38 30 02 87 7F 04 80  80 FF 0B 45 16 80 F8 FF  080........E....
0BF0: FF 7F F8 FF FF 7F 73 30  38 32 01 80 01 2C 0C 02  ......s082...,..
0C00: 87 7F 05 80 80 1B 0C 45  16 80 F8 FF FF 7F F8 FF  .......E........
0C10: FF 7F 73 30 38 32 01 80  01 2C 0C 45 16 80 F8 FF  ..s082...,.E....
0C20: FF 7F F8 FF FF 7F 73 30  38 31 01 80 79 02 83 40  ......s081..y..@
0C30: 02 01 46 80 01 80 2B 83  40 02 01 47 80 1C 1A 80  ..F...+.@..G....
0C40: 23 2B 83 40 02 01 48 80  1C 1A 80 23 CD 06 80 F8  #+.@..H....#....
0C50: FF FF 7F F8 FF FF 7F 73  74 30 33 01 80 52 16 80  .......st03..R..
0C60: F8 FF FF 7F F8 FF FF 7F  73 30 38 31 52 16 80 F8  ........s081R...
0C70: FF FF 7F F8 FF FF 7F 73  30 38 32 45 16 80 F8 FF  .......s082E....
0C80: FF 7F F8 FF FF 7F 73 30  38 33 01 80 BA 81 40 02  ......s083....@.
0C90: 01 08 80 09 80 11 80 0B  80 7B 83 40 02 01 79 02  .........{.@..y.
0CA0: F0 FF FF 7F 46 80 01 80  1C 14 80 BA 83 40 02 01  ....F........@..
0CB0: 08 80 09 80 49 80 4A 80  1A F7 30 1C 17 80 52 16  ....I.J...0...R.
0CC0: 80 F8 FF FF 7F F8 FF FF  7F 73 30 38 33 45 16 80  .........s083E..
0CD0: F8 FF FF 7F F8 FF FF 7F  73 30 38 34 01 80 2B 83  ........s084..+.
0CE0: 40 02 01 4B 80 1C 14 80  79 00 F0 FF FF 7F 83 40  @..K....y......@
0CF0: 02 01 1C 18 80 23 2B 83  40 02 01 4C 80 1C 1A 80  .....#+.@..L....
0D00: 23 52 16 80 F8 FF FF 7F  F8 FF FF 7F 73 30 38 34  #R..........s084
0D10: 02 87 7F 00 80 80 46 0D  45 16 80 F8 FF FF 7F F8  ......F.E.......
0D20: FF FF 7F 73 30 38 35 01  80 2B 83 40 02 01 4D 80  ...s085..+.@..M.
0D30: 1C 1A 80 23 66 2B 80 83  40 02 01 83 40 02 01 66  ...#f+..@...@..f
0D40: 79 75 32 01 C0 0E 02 87  7F 1C 80 80 7C 0D 45 16  yu2.........|.E.
0D50: 80 F8 FF FF 7F F8 FF FF  7F 73 30 38 35 01 80 2B  .........s085..+
0D60: 83 40 02 01 4D 80 1C 1A  80 23 66 4E 80 83 40 02  .@..M....#fN..@.
0D70: 01 83 40 02 01 66 79 75  32 01 C0 0E 02 87 7F 1E  ..@..fyu2.......
0D80: 80 80 B2 0D 45 16 80 F8  FF FF 7F F8 FF FF 7F 73  ....E..........s
0D90: 30 38 35 01 80 2B 83 40  02 01 4D 80 1C 1A 80 23  085..+.@..M....#
0DA0: 66 4F 80 83 40 02 01 83  40 02 01 66 79 75 32 01  fO..@...@..fyu2.
0DB0: C0 0E 02 87 7F 1F 80 80  E8 0D 45 16 80 F8 FF FF  ..........E.....
0DC0: 7F F8 FF FF 7F 73 30 38  35 01 80 2B 83 40 02 01  .....s085..+.@..
0DD0: 4D 80 1C 1A 80 23 66 50  80 83 40 02 01 83 40 02  M....#fP..@...@.
0DE0: 01 66 79 75 32 01 C0 0E  02 87 7F 04 80 80 1E 0E  .fyu2...........
0DF0: 45 16 80 F8 FF FF 7F F8  FF FF 7F 73 30 39 34 01  E..........s094.
0E00: 80 2B 83 40 02 01 4D 80  1C 1A 80 23 66 51 80 83  .+.@..M....#fQ..
0E10: 40 02 01 83 40 02 01 66  79 75 32 01 C0 0E 02 87  @...@..fyu2.....
0E20: 7F 05 80 80 54 0E 45 16  80 F8 FF FF 7F F8 FF FF  ....T.E.........
0E30: 7F 73 30 39 34 01 80 2B  83 40 02 01 4D 80 1C 1A  .s094..+.@..M...
0E40: 80 23 66 51 80 83 40 02  01 83 40 02 01 66 79 75  .#fQ..@...@..fyu
0E50: 32 01 C0 0E 02 87 7F 06  80 80 8A 0E 45 16 80 F8  2...........E...
0E60: FF FF 7F F8 FF FF 7F 73  30 38 35 01 80 2B 83 40  .......s085..+.@
0E70: 02 01 4D 80 1C 1A 80 23  66 52 80 83 40 02 01 83  ..M....#fR..@...
0E80: 40 02 01 66 79 75 32 01  C0 0E 02 87 7F 07 80 80  @..fyu2.........
0E90: C0 0E 45 16 80 F8 FF FF  7F F8 FF FF 7F 73 30 39  ..E..........s09
0EA0: 33 01 80 2B 83 40 02 01  4D 80 1C 1A 80 23 66 53  3..+.@..M....#fS
0EB0: 80 83 40 02 01 83 40 02  01 66 79 75 32 01 C0 0E  ..@...@..fyu2...
0EC0: 2B 83 40 02 01 54 80 1C  55 80 BA 81 40 02 01 21  +.@..T..U...@..!
0ED0: 80 22 80 11 80 56 80 7B  F0 FF FF 7F 1C 3E 80 52  ."...V.{.....>.R
0EE0: 16 80 F8 FF FF 7F F8 FF  FF 7F 73 30 38 35 52 16  ..........s085R.
0EF0: 80 F8 FF FF 7F F8 FF FF  7F 73 30 39 33 45 16 80  .........s093E..
0F00: F8 FF FF 7F F8 FF FF 7F  73 31 31 36 01 80 1C 18  ........s116....
0F10: 80 24 57 80 00 80 01 80  25 02 00 10 00 80 00 61  .$W.....%......a
0F20: 0F 52 16 80 F8 FF FF 7F  F8 FF FF 7F 73 31 31 36  .R..........s116
0F30: 45 16 80 F8 FF FF 7F F8  FF FF 7F 73 31 31 37 01  E..........s117.
0F40: 80 2B 83 40 02 01 58 80  1C 02 80 23 52 16 80 F8  .+.@..X....#R...
0F50: FF FF 7F F8 FF FF 7F 73  31 31 37 01 FD 0E 01 61  .......s117....a
0F60: 0F 92 01 F0 FF FF 7F 52  16 80 F8 FF FF 7F F8 FF  .......R........
0F70: FF 7F 73 31 31 36 45 16  80 F8 FF FF 7F F8 FF FF  ..s116E.........
0F80: 7F 79 6D 69 31 01 80 D0  59 80 83 40 02 01 F0 FF  .ymi1...Y..@....
0F90: FF 7F 73 30 30 30 01 80  27 10 F0 FF FF 7F 35 1C  ..s000..'.....5.
0FA0: 5A 80 52 16 80 F8 FF FF  7F F8 FF FF 7F 79 6D 69  Z.R..........ymi
0FB0: 31 45 16 80 F8 FF FF 7F  F8 FF FF 7F 73 30 38 36  1E..........s086
0FC0: 01 80 1C 5B 80 52 16 80  F8 FF FF 7F F8 FF FF 7F  ...[.R..........
0FD0: 73 30 38 36 45 16 80 F8  FF FF 7F F8 FF FF 7F 79  s086E..........y
0FE0: 6D 69 33 01 80 D0 59 80  83 40 02 01 F0 FF FF 7F  mi3...Y..@......
0FF0: 73 74 70 30 01 80 1C 02  80 27 10 F0 FF FF 7F 36  stp0.....'.....6
1000: D5 04 80 F0 FF FF 7F F0  FF FF 7F 73 70 63 30 01  ...........spc0.
1010: 80 1C 04 80 52 16 80 F8  FF FF 7F F8 FF FF 7F 79  ....R..........y
1020: 6D 69 33 45 16 80 F8 FF  FF 7F F8 FF FF 7F 73 30  mi3E..........s0
1030: 38 37 01 80 1C 1A 80 1A  C8 31 1C 14 80 52 16 80  87.......1...R..
1040: F8 FF FF 7F F8 FF FF 7F  73 30 38 37 45 16 80 F8  ........s087E...
1050: FF FF 7F F8 FF FF 7F 73  30 38 38 01 80 1C 02 80  .......s088.....
1060: 1A 84 33 1C 14 80 D5 04  80 F0 FF FF 7F F0 FF FF  ..3.............
1070: 7F 6B 6C 6C 30 01 80 52  16 80 F8 FF FF 7F F8 FF  .kll0..R........
1080: FF 7F 73 30 38 38 59 05  F0 FF FF 7F 01 BA F0 FF  ..s088Y.........
1090: FF 7F 0C 80 0D 80 5C 80  0E 80 BA 83 40 02 01 08  ......\.....@...
10A0: 80 09 80 5D 80 4A 80 80  83 40 02 01 80 F0 FF FF  ...].J...@......
10B0: 7F 1C 14 80 D0 5E 80 F0  FF FF 7F F0 FF FF 7F 73  .....^.........s
10C0: 30 30 30 01 80 1A F7 30  27 10 F0 FF FF 7F 38 1C  000....0'.....8.
10D0: 14 80 45 16 80 F8 FF FF  7F F8 FF FF 7F 73 30 38  ..E..........s08
10E0: 39 01 80 1A 63 33 1C 17  80 52 16 80 F8 FF FF 7F  9...c3...R......
10F0: F8 FF FF 7F 73 30 38 39  45 16 80 F8 FF FF 7F F8  ....s089E.......
1100: FF FF 7F 73 30 39 30 01  80 1C 02 80 52 16 80 F8  ...s090.....R...
1110: FF FF 7F F8 FF FF 7F 73  30 39 30 45 16 80 F8 FF  .......s090E....
1120: FF 7F F8 FF FF 7F 79 6D  69 34 01 80 2B 83 40 02  ......ymi4..+.@.
1130: 01 5F 80 1C 02 80 23 52  16 80 F8 FF FF 7F F8 FF  ._....#R........
1140: FF 7F 79 6D 69 34 45 16  80 F8 FF FF 7F F8 FF FF  ..ymi4E.........
1150: 7F 73 30 39 31 01 80 D0  59 80 83 40 02 01 F0 FF  .s091...Y..@....
1160: FF 7F 73 30 30 31 01 80  5C A0 01 80 5A 80 5C A1  ..s001..\...Z.\.
1170: 01 80 60 80 1C 61 80 1A  84 33 1C 14 80 1A BC 32  ..`..a...3.....2
1180: 52 16 80 F8 FF FF 7F F8  FF FF 7F 73 30 39 31 1C  R..........s091.
1190: 00 80 34 62 80 77 63 80  1C 80 1C 00 80 BA F0 FF  ..4b.wc.........
11A0: FF 7F 64 80 65 80 66 80  67 80 BA 81 40 02 01 64  ..d.e.f.g...@..d
11B0: 80 65 80 66 80 67 80 BA  83 40 02 01 64 80 65 80  .e.f.g...@..d.e.
11C0: 66 80 67 80 AB 1B F0 FF  FF 7F AB 1B 81 40 02 01  f.g..........@..
11D0: AB 1B 83 40 02 01 1C 18  80 BA 81 40 02 01 68 80  ...@.......@..h.
11E0: 69 80 6A 80 6B 80 BA F0  FF FF 7F 6C 80 6D 80 6A  i.j.k......l.m.j
11F0: 80 6E 80 BA 83 40 02 01  6F 80 70 80 71 80 72 80  .n...@..o.p.q.r.
1200: 80 83 40 02 01 80 F0 FF  FF 7F 80 81 40 02 01 1C  ..@.........@...
1210: 14 80 2C 81 40 02 01 81  40 02 01 61 65 6F 6E D0  ..,.@...@..aeon.
1220: 73 80 F8 FF FF 7F F8 FF  FF 7F 73 30 30 30 01 80  s.........s000..
1230: D0 73 80 F8 FF FF 7F F8  FF FF 7F 73 30 30 31 01  .s.........s001.
1240: 80 1A C8 31 27 10 F0 FF  FF 7F 37 1C 14 80 5C 00  ...1'.....7...\.
1250: 74 80 5C 01 74 80 9A 1A  99 32 48 2C 80 23 45 16  t.\.t....2H,.#E.
1260: 80 F8 FF FF 7F F8 FF FF  7F 77 67 30 31 01 80 1A  .........wg01...
1270: 63 33 55 16 80 F8 FF FF  7F F8 FF FF 7F 77 67 30  c3U..........wg0
1280: 31 45 16 80 F8 FF FF 7F  F8 FF FF 7F 73 30 39 35  1E..........s095
1290: 01 80 1C 18 80 2B 81 40  02 01 75 80 1C 1A 80 23  .....+.@..u....#
12A0: 52 16 80 F8 FF FF 7F F8  FF FF 7F 73 30 39 35 45  R..........s095E
12B0: 16 80 F8 FF FF 7F F8 FF  FF 7F 73 30 39 36 01 80  ..........s096..
12C0: 1C 14 80 2B 81 40 02 01  76 80 1C 1A 80 23 2B 81  ...+.@..v....#+.
12D0: 40 02 01 77 80 1C 1A 80  23 52 16 80 F8 FF FF 7F  @..w....#R......
12E0: F8 FF FF 7F 73 30 39 36  45 16 80 F8 FF FF 7F F8  ....s096E.......
12F0: FF FF 7F 73 30 39 37 01  80 1C 14 80 2B 81 40 02  ...s097.....+.@.
1300: 01 78 80 1C 1A 80 23 2B  81 40 02 01 79 80 1C 1A  .x....#+.@..y...
1310: 80 23 52 16 80 F8 FF FF  7F F8 FF FF 7F 73 30 39  .#R..........s09
1320: 37 45 16 80 F8 FF FF 7F  F8 FF FF 7F 77 67 30 35  7E..........wg05
1330: 01 80 1C 14 80 2B 81 40  02 01 7A 80 1C 1A 80 23  .....+.@..z....#
1340: 2B 81 40 02 01 7B 80 1C  1A 80 23 52 16 80 F8 FF  +.@..{....#R....
1350: FF 7F F8 FF FF 7F 77 67  30 35 45 16 80 F8 FF FF  ......wg05E.....
1360: 7F F8 FF FF 7F 77 67 30  36 01 80 1C 14 80 2B 81  .....wg06.....+.
1370: 40 02 01 7C 80 1C 1A 80  23 52 16 80 F8 FF FF 7F  @..|....#R......
1380: F8 FF FF 7F 77 67 30 36  45 16 80 F8 FF FF 7F F8  ....wg06E.......
1390: FF FF 7F 73 30 39 38 01  80 2B 83 40 02 01 7D 80  ...s098..+.@..}.
13A0: 1C 02 80 23 1A 42 33 1C  14 80 1A BC 32 52 16 80  ...#.B3.....2R..
13B0: F8 FF FF 7F F8 FF FF 7F  73 30 39 38 D0 73 80 F8  ........s098.s..
13C0: FF FF 7F F8 FF FF 7F 73  6B 6C 30 01 80 D0 73 80  .......skl0...s.
13D0: F8 FF FF 7F F8 FF FF 7F  73 6B 6C 31 01 80 48 2C  ........skl1..H,
13E0: 80 23 4E 01 83 40 02 01  4E 01 F0 FF FF 7F 1A E9  .#N..@..N.......
13F0: 34 89 7E 80 1C 18 80 B4  14 31 80 31 80 31 80 01  4.~......1.1.1..
1400: 80 00 80 1A D7 34 2B 81  40 02 01 7F 80 1C 1A 80  .....4+.@.......
1410: 23 2B 81 40 02 01 80 80  1C 1A 80 23 2B 81 40 02  #+.@.......#+.@.
1420: 01 81 80 1C 1A 80 23 1A  E9 34 8A B4 15 1A D7 34  ......#..4.....4
1430: 2F 00 7A 40 02 01 2F 00  82 40 02 01 4E 00 7A 40  /.z@../..@..N.z@
1440: 02 01 4E 00 82 40 02 01  92 01 82 40 02 01 59 05  ..N..@.....@..Y.
1450: 7A 40 02 01 01 59 05 82  40 02 01 01 94 01 7A 40  z@...Y..@.....z@
1460: 02 01 94 01 82 40 02 01  BA 7A 40 02 01 82 80 83  .....@...z@.....
1470: 80 6A 80 84 80 BA 82 40  02 01 82 80 83 80 6A 80  .j.....@......j.
1480: 84 80 80 7A 40 02 01 80  82 40 02 01 1C 14 80 4E  ...z@....@.....N
1490: 01 82 40 02 01 4E 01 81  40 02 01 D0 85 80 7A 40  ..@..N..@.....z@
14A0: 02 01 7A 40 02 01 73 30  30 31 01 80 C5 86 80 7A  ..z@..s001.....z
14B0: 40 02 01 7A 40 02 01 6D  61 69 6E 01 80 48 2C 80  @..z@..main..H,.
14C0: 23 45 16 80 F8 FF FF 7F  F8 FF FF 7F 63 72 79 31  #E..........cry1
14D0: 01 80 1A 21 33 1C 5A 80  2B 81 40 02 01 87 80 1C  ...!3.Z.+.@.....
14E0: 02 80 23 1C 14 80 1A 42  33 1C 14 80 D0 85 80 7A  ..#....B3......z
14F0: 40 02 01 7A 40 02 01 6B  6C 30 31 01 80 C5 86 80  @..z@..kl01.....
1500: 7A 40 02 01 7A 40 02 01  6B 69 6C 61 01 80 4E 00  z@..z@..kila..N.
1510: 82 40 02 01 4E 00 81 40  02 01 1C 14 80 52 16 80  .@..N..@.....R..
1520: F8 FF FF 7F F8 FF FF 7F  63 72 79 31 45 16 80 F8  ........cry1E...
1530: FF FF 7F F8 FF FF 7F 73  30 39 39 01 80 1A 21 33  .......s099...!3
1540: 1C 14 80 2B 81 40 02 01  88 80 1C 02 80 23 1C 14  ...+.@.......#..
1550: 80 2B 81 40 02 01 89 80  1C 02 80 23 1A 42 33 1C  .+.@.......#.B3.
1560: 14 80 52 16 80 F8 FF FF  7F F8 FF FF 7F 73 30 39  ..R..........s09
1570: 39 27 05 82 40 02 01 08  4E 01 82 40 02 01 4E 00  9'..@...N..@..N.
1580: 83 40 02 01 4E 00 F0 FF  FF 7F 80 83 40 02 01 80  .@..N.......@...
1590: F0 FF FF 7F 1A E9 34 48  2C 80 23 89 8A 80 1C 18  ......4H,.#.....
15A0: 80 B4 14 31 80 31 80 31  80 01 80 00 80 1A D7 34  ...1.1.1.......4
15B0: 2B 81 40 02 01 8B 80 1C  43 80 23 1A E9 34 8A B4  +.@.....C.#..4..
15C0: 15 1A D7 34 D0 73 80 F8  FF FF 7F F8 FF FF 7F 73  ...4.s.........s
15D0: 30 30 30 01 80 D0 73 80  F8 FF FF 7F F8 FF FF 7F  000...s.........
15E0: 73 30 30 31 01 80 1C 14  80 45 16 80 F8 FF FF 7F  s001.....E......
15F0: F8 FF FF 7F 73 31 30 30  01 80 1A 21 33 2B 81 40  ....s100...!3+.@
1600: 02 01 8C 80 1C 43 80 23  1A 42 33 1C 14 80 48 2C  .....C.#.B3...H,
1610: 80 23 52 16 80 F8 FF FF  7F F8 FF FF 7F 73 31 30  .#R..........s10
1620: 30 D0 73 80 F8 FF FF 7F  F8 FF FF 7F 73 6B 6C 30  0.s.........skl0
1630: 01 80 D0 73 80 F8 FF FF  7F F8 FF FF 7F 73 6B 6C  ...s.........skl
1640: 31 01 80 4E 01 83 40 02  01 6B 69 64 6C 30 F0 FF  1..N..@..kidl0..
1650: FF 7F 1A E9 34 89 8D 80  1C 18 80 B4 14 31 80 31  ....4........1.1
1660: 80 31 80 01 80 00 80 1A  D7 34 2B 81 40 02 01 8E  .1.......4+.@...
1670: 80 1C 1A 80 23 2B 81 40  02 01 8F 80 1C 1A 80 23  ....#+.@.......#
1680: 1A E9 34 8A B4 15 1A D7  34 2F 00 8A 40 02 01 2F  ..4.....4/..@../
1690: 00 8B 40 02 01 2F 00 8C  40 02 01 2F 00 8D 40 02  ..@../..@../..@.
16A0: 01 2F 00 8E 40 02 01 4E  00 82 40 02 01 94 01 8A  ./..@..N..@.....
16B0: 40 02 01 94 01 8B 40 02  01 94 01 8C 40 02 01 94  @.....@.....@...
16C0: 01 8D 40 02 01 94 01 8E  40 02 01 92 01 8A 40 02  ..@.....@.....@.
16D0: 01 59 05 8A 40 02 01 01  59 05 8B 40 02 01 01 59  .Y..@...Y..@...Y
16E0: 05 8C 40 02 01 01 59 05  8D 40 02 01 01 59 05 8E  ..@...Y..@...Y..
16F0: 40 02 01 01 27 05 81 40  02 01 08 BA F0 FF FF 7F  @...'..@........
1700: 90 80 91 80 92 80 93 80  BA 82 40 02 01 90 80 94  ..........@.....
1710: 80 92 80 95 80 BA 81 40  02 01 96 80 97 80 92 80  .......@........
1720: 98 80 BA 8A 40 02 01 96  80 99 80 92 80 98 80 BA  ....@...........
1730: 8B 40 02 01 96 80 9A 80  92 80 98 80 BA 8C 40 02  .@............@.
1740: 01 01 80 9A 80 9B 80 01  80 BA 8D 40 02 01 9A 80  ...........@....
1750: 9A 80 9C 80 01 80 BA 8E  40 02 01 96 80 9A 80 92  ........@.......
1760: 80 98 80 80 82 40 02 01  80 F0 FF FF 7F 1C 14 80  .....@..........
1770: 4E 01 81 40 02 01 D5 9D  80 F8 FF FF 7F F8 FF FF  N..@............
1780: 7F 73 30 30 31 01 80 1C  14 80 45 16 80 F8 FF FF  .s001.....E.....
1790: 7F F8 FF FF 7F 73 31 30  32 01 80 1A 21 33 1C 18  .....s102...!3..
17A0: 80 2B 81 40 02 01 9E 80  1C 18 80 27 05 82 40 02  .+.@.......'..@.
17B0: 01 06 2C 82 40 02 01 82  40 02 01 6D 61 67 31 2C  ..,.@...@..mag1,
17C0: 82 40 02 01 82 40 02 01  6B 65 6E 31 1C 18 80 52  .@...@..ken1...R
17D0: 16 80 F8 FF FF 7F F8 FF  FF 7F 73 31 30 32 45 16  ..........s102E.
17E0: 80 F8 FF FF 7F F8 FF FF  7F 73 31 30 31 01 80 27  .........s101..'
17F0: 10 F0 FF FF 7F 39 1C 14  80 BA 82 40 02 01 01 80  .....9.....@....
1800: 9F 80 9B 80 01 80 4E 01  82 40 02 01 27 05 82 40  ......N..@..'..@
1810: 02 01 09 1C 17 80 4E 00  8A 40 02 01 4E 00 81 40  ......N..@..N..@
1820: 02 01 4E 00 8B 40 02 01  4E 00 8C 40 02 01 4E 00  ..N..@..N..@..N.
1830: 82 40 02 01 1C A0 80 27  05 82 40 02 01 0D 1C 14  .@.....'..@.....
1840: 80 27 05 8A 40 02 01 07  1C 18 80 27 05 81 40 02  .'..@......'..@.
1850: 01 09 27 10 7A 40 02 01  21 27 05 8C 40 02 01 02  ..'.z@..!'..@...
1860: 1C 14 80 27 05 8B 40 02  01 02 2B 81 40 02 01 A1  ...'..@...+.@...
1870: 80 1C 14 80 2A 05 82 40  02 01 BA 82 40 02 01 01  ....*..@....@...
1880: 80 9A 80 92 80 01 80 27  05 82 40 02 01 0A 4E 00  .......'..@...N.
1890: 8D 40 02 01 4E 00 8E 40  02 01 27 05 8D 40 02 01  .@..N..@..'..@..
18A0: 02 1C 14 80 27 05 8E 40  02 01 02 2A 05 81 40 02  ....'..@...*..@.
18B0: 01 BA 81 40 02 01 96 80  9A 80 92 80 98 80 27 05  ...@..........'.
18C0: 81 40 02 01 0A 1C 14 80  27 05 82 40 02 01 0D 1C  .@......'..@....
18D0: 14 80 27 05 81 40 02 01  09 2A 05 8A 40 02 01 BA  ..'..@...*..@...
18E0: 8A 40 02 01 9F 80 9A 80  9B 80 01 80 27 05 8A 40  .@..........'..@
18F0: 02 01 08 1C 1A 80 27 05  8A 40 02 01 07 1C 18 80  ......'..@......
1900: 2A 05 8C 40 02 01 BA 8C  40 02 01 96 80 9A 80 92  *..@....@.......
1910: 80 98 80 27 05 8C 40 02  01 03 1C 18 80 27 05 8C  ...'..@......'..
1920: 40 02 01 02 2A 05 8B 40  02 01 1C 00 80 BA 8B 40  @...*..@.......@
1930: 02 01 A2 80 9A 80 9B 80  01 80 27 05 8B 40 02 01  ..........'..@..
1940: 03 1C 14 80 27 05 8B 40  02 01 02 2A 05 8D 40 02  ....'..@...*..@.
1950: 01 BA 8D 40 02 01 96 80  9A 80 92 80 98 80 27 05  ...@..........'.
1960: 8D 40 02 01 03 1C 14 80  27 05 8D 40 02 01 02 2B  .@......'..@...+
1970: 81 40 02 01 A3 80 1C 14  80 2A 05 8E 40 02 01 BA  .@.......*..@...
1980: 8E 40 02 01 01 80 9A 80  92 80 01 80 27 05 8E 40  .@..........'..@
1990: 02 01 03 1C 14 80 27 05  8E 40 02 01 02 2A 05 82  ......'..@...*..
19A0: 40 02 01 BA 82 40 02 01  01 80 9A 80 92 80 01 80  @....@..........
19B0: 27 05 82 40 02 01 0B 1C  14 80 27 05 82 40 02 01  '..@......'..@..
19C0: 0D 1C 14 80 2A 05 81 40  02 01 BA 81 40 02 01 96  ....*..@....@...
19D0: 80 9A 80 92 80 98 80 27  05 81 40 02 01 0B 1C 14  .......'..@.....
19E0: 80 27 05 81 40 02 01 09  2A 05 8A 40 02 01 BA 8A  .'..@...*..@....
19F0: 40 02 01 01 80 9A 80 92  80 01 80 27 05 8A 40 02  @..........'..@.
1A00: 01 09 1C 14 80 27 05 8A  40 02 01 07 2A 05 8C 40  .....'..@...*..@
1A10: 02 01 BA 8C 40 02 01 01  80 9A 80 92 80 01 80 27  ....@..........'
1A20: 05 8C 40 02 01 04 1C 14  80 27 10 7A 40 02 01 22  ..@......'.z@.."
1A30: 27 05 8C 40 02 01 02 1C  18 80 2A 05 8B 40 02 01  '..@......*..@..
1A40: BA 8B 40 02 01 01 80 9A  80 92 80 01 80 27 05 8B  ..@..........'..
1A50: 40 02 01 04 1C 14 80 27  05 8B 40 02 01 02 1C 14  @......'..@.....
1A60: 80 2A 05 8D 40 02 01 BA  8D 40 02 01 96 80 9A 80  .*..@....@......
1A70: 92 80 A4 80 27 05 8D 40  02 01 04 1C 14 80 27 05  ....'..@......'.
1A80: 8D 40 02 01 02 1C 14 80  2A 05 8E 40 02 01 BA 8E  .@......*..@....
1A90: 40 02 01 9A 80 9A 80 6A  80 01 80 27 05 8E 40 02  @......j...'..@.
1AA0: 01 04 1C 14 80 27 05 8E  40 02 01 02 1C 14 80 2A  .....'..@......*
1AB0: 05 82 40 02 01 BA 82 40  02 01 96 80 9A 80 92 80  ..@....@........
1AC0: 98 80 27 05 82 40 02 01  0C 1C 14 80 27 05 82 40  ..'..@......'..@
1AD0: 02 01 0D 1C 14 80 2A 05  81 40 02 01 BA 81 40 02  ......*..@....@.
1AE0: 01 01 80 9A 80 92 80 01  80 27 05 81 40 02 01 0C  .........'..@...
1AF0: 1C 14 80 27 05 81 40 02  01 09 1C 14 80 2A 05 8A  ...'..@......*..
1B00: 40 02 01 BA 8A 40 02 01  96 80 9A 80 92 80 98 80  @....@..........
1B10: 27 05 8A 40 02 01 0A 1C  14 80 27 05 8A 40 02 01  '..@......'..@..
1B20: 07 2A 05 8C 40 02 01 1C  00 80 BA 8C 40 02 01 01  .*..@.......@...
1B30: 80 9A 80 92 80 01 80 27  05 8C 40 02 01 05 1C 14  .......'..@.....
1B40: 80 27 05 8C 40 02 01 02  1C 17 80 1A 42 33 1C 14  .'..@.......B3..
1B50: 80 52 16 80 F8 FF FF 7F  F8 FF FF 7F 73 31 30 31  .R..........s101
1B60: D5 9D 80 F8 FF FF 7F F8  FF FF 7F 6B 6C 30 31 01  ...........kl01.
1B70: 80 27 05 81 40 02 01 07  4E 00 83 40 02 01 BA 81  .'..@...N..@....
1B80: 40 02 01 68 80 69 80 6A  80 6B 80 BA F0 FF FF 7F  @..h.i.j.k......
1B90: 6C 80 6D 80 92 80 31 80  BA 83 40 02 01 A5 80 A6  l.m...1...@.....
1BA0: 80 A7 80 72 80 80 83 40  02 01 80 F0 FF FF 7F 80  ...r...@........
1BB0: 81 40 02 01 1C 14 80 2C  81 40 02 01 81 40 02 01  .@.....,.@...@..
1BC0: 61 65 6F 6E 27 10 F0 FF  FF 7F 37 1A 99 32 1A C8  aeon'.....7..2..
1BD0: 31 D0 73 80 F8 FF FF 7F  F8 FF FF 7F 73 30 30 30  1.s.........s000
1BE0: 01 80 D0 73 80 F8 FF FF  7F F8 FF FF 7F 73 30 30  ...s.........s00
1BF0: 31 01 80 1C 14 80 45 16  80 F8 FF FF 7F F8 FF FF  1.....E.........
1C00: 7F 73 31 30 33 01 80 1A  21 33 2B 81 40 02 01 A8  .s103...!3+.@...
1C10: 80 23 52 16 80 F8 FF FF  7F F8 FF FF 7F 73 31 30  .#R..........s10
1C20: 33 45 16 80 F8 FF FF 7F  F8 FF FF 7F 73 31 30 34  3E..........s104
1C30: 01 80 2B 83 40 02 01 A9  80 23 1A 42 33 1C 14 80  ..+.@....#.B3...
1C40: 1A BC 32 52 16 80 F8 FF  FF 7F F8 FF FF 7F 73 31  ..2R..........s1
1C50: 30 34 D0 73 80 F8 FF FF  7F F8 FF FF 7F 73 6B 6C  04.s.........skl
1C60: 30 01 80 D0 73 80 F8 FF  FF 7F F8 FF FF 7F 73 6B  0...s.........sk
1C70: 6C 31 01 80 1C AA 80 4E  01 83 40 02 01 4E 01 F0  l1.....N..@..N..
1C80: FF FF 7F 29 05 82 40 02  01 0E BA 82 40 02 01 82  ...)..@.....@...
1C90: 80 83 80 6A 80 AB 80 BA  81 40 02 01 68 80 69 80  ...j.....@..h.i.
1CA0: 6A 80 AC 80 80 82 40 02  01 80 81 40 02 01 45 16  j.....@....@..E.
1CB0: 80 F8 FF FF 7F F8 FF FF  7F 73 31 30 35 01 80 1A  .........s105...
1CC0: 21 33 2B 81 40 02 01 AD  80 1C 1A 80 23 2B 81 40  !3+.@.......#+.@
1CD0: 02 01 AE 80 1C 02 80 23  1A 42 33 1C 14 80 52 16  .......#.B3...R.
1CE0: 80 F8 FF FF 7F F8 FF FF  7F 73 31 30 35 4E 01 82  .........s105N..
1CF0: 40 02 01 4E 00 83 40 02  01 4E 00 F0 FF FF 7F 22  @..N..@..N....."
1D00: 00 33 01 37 6C 80 6D 80  92 80 31 80 BA 81 40 02  .3.7l.m...1...@.
1D10: 01 68 80 69 80 6A 80 6B  80 80 F8 FF FF 7F 80 83  .h.i.j.k........
1D20: 40 02 01 80 81 40 02 01  80 F0 FF FF 7F 1C 14 80  @....@..........
1D30: 1A 99 32 D0 73 80 F8 FF  FF 7F F8 FF FF 7F 73 30  ..2.s.........s0
1D40: 30 30 01 80 D0 73 80 F8  FF FF 7F F8 FF FF 7F 73  00...s.........s
1D50: 30 30 31 01 80 1C 14 80  45 16 80 F8 FF FF 7F F8  001.....E.......
1D60: FF FF 7F 73 31 30 36 01  80 1A 21 33 2B 81 40 02  ...s106...!3+.@.
1D70: 01 AF 80 1C 43 80 23 2B  83 40 02 01 B0 80 1C 1A  ....C.#+.@......
1D80: 80 23 52 16 80 F8 FF FF  7F F8 FF FF 7F 73 31 30  .#R..........s10
1D90: 36 45 16 80 F8 FF FF 7F  F8 FF FF 7F 73 31 30 37  6E..........s107
1DA0: 01 80 2B 81 40 02 01 B1  80 1C 1A 80 23 2B 81 40  ..+.@.......#+.@
1DB0: 02 01 B2 80 1C 1A 80 23  52 16 80 F8 FF FF 7F F8  .......#R.......
1DC0: FF FF 7F 73 31 30 37 45  16 80 F8 FF FF 7F F8 FF  ...s107E........
1DD0: FF 7F 73 31 30 38 01 80  1C 18 80 2B 83 40 02 01  ..s108.....+.@..
1DE0: B3 80 1C 02 80 23 52 16  80 F8 FF FF 7F F8 FF FF  .....#R.........
1DF0: 7F 73 31 30 38 45 16 80  F8 FF FF 7F F8 FF FF 7F  .s108E..........
1E00: 73 31 31 38 01 80 5C A0  01 80 5A 80 5C A1 01 80  s118..\...Z.\...
1E10: 60 80 79 02 83 40 02 01  B4 80 B5 80 1C 18 80 2B  `.y..@.........+
1E20: 83 40 02 01 B6 80 1C 02  80 23 79 02 F0 FF FF 7F  .@.......#y.....
1E30: B4 80 46 80 1C 18 80 24  B7 80 00 80 01 80 25 02  ..F....$......%.
1E40: 00 10 00 80 00 98 1E 52  16 80 F8 FF FF 7F F8 FF  .......R........
1E50: FF 7F 73 31 31 38 45 16  80 F8 FF FF 7F F8 FF FF  ..s118E.........
1E60: 7F 73 31 31 39 01 80 2B  83 40 02 01 B8 80 1C 1A  .s119..+.@......
1E70: 80 23 52 16 80 F8 FF FF  7F F8 FF FF 7F 73 31 31  .#R..........s11
1E80: 39 45 16 80 F8 FF FF 7F  F8 FF FF 7F 73 31 31 38  9E..........s118
1E90: 01 80 01 34 1E 01 98 1E  5C 00 B9 80 5C 01 B9 80  ...4....\...\...
1EA0: 9A 81 00 81 40 02 01 7C  00 81 40 02 01 5B BA 80  ....@..|..@..[..
1EB0: 81 40 02 01 81 40 02 01  70 61 63 30 52 16 80 F8  .@...@..pac0R...
1EC0: FF FF 7F F8 FF FF 7F 73  31 31 38 45 16 80 F8 FF  .......s118E....
1ED0: FF 7F F8 FF FF 7F 77 67  31 30 01 80 1C 18 80 2B  ......wg10.....+
1EE0: 81 40 02 01 BB 80 1C 14  80 79 00 F0 FF FF 7F 81  .@.......y......
1EF0: 40 02 01 79 00 83 40 02  01 81 40 02 01 BA 83 40  @..y..@...@....@
1F00: 02 01 6F 80 70 80 A7 80  72 80 1C 1A 80 23 52 16  ..o.p...r....#R.
1F10: 80 F8 FF FF 7F F8 FF FF  7F 77 67 31 30 45 16 80  .........wg10E..
1F20: F8 FF FF 7F F8 FF FF 7F  73 31 30 39 01 80 1C 14  ........s109....
1F30: 80 2B 81 40 02 01 BC 80  1C 02 80 23 52 16 80 F8  .+.@.......#R...
1F40: FF FF 7F F8 FF FF 7F 73  31 30 39 45 16 80 F8 FF  .......s109E....
1F50: FF 7F F8 FF FF 7F 73 31  31 30 01 80 1C 18 80 1A  ......s110......
1F60: 84 33 1C 14 80 1A BC 32  52 16 80 F8 FF FF 7F F8  .3.....2R.......
1F70: FF FF 7F 73 31 31 30 D0  73 80 F8 FF FF 7F F8 FF  ...s110.s.......
1F80: FF 7F 73 6B 6C 30 01 80  D0 73 80 F8 FF FF 7F F8  ..skl0...s......
1F90: FF FF 7F 73 6B 6C 31 01  80 2C 81 40 02 01 81 40  ...skl1..,.@...@
1FA0: 02 01 61 65 6B 6C 27 05  8A 40 02 01 03 27 05 8B  ..aekl'..@...'..
1FB0: 40 02 01 05 27 05 8C 40  02 01 06 27 05 8D 40 02  @...'..@...'..@.
1FC0: 01 05 27 05 8E 40 02 01  05 27 05 81 40 02 01 0D  ..'..@...'..@...
1FD0: 35 BD 80 78 1C 00 80 4E  00 82 40 02 01 29 05 82  5..x...N..@..)..
1FE0: 40 02 01 0F BA F0 FF FF  7F 0C 80 0D 80 0A 80 0E  @...............
1FF0: 80 BA 83 40 02 01 08 80  09 80 BE 80 0B 80 BA 82  ...@............
2000: 40 02 01 08 80 09 80 BF  80 0B 80 80 83 40 02 01  @............@..
2010: 80 F0 FF FF 7F 4A 83 40  02 01 F0 FF FF 7F 4A 82  .....J.@......J.
2020: 40 02 01 F0 FF FF 7F 4A  F0 FF FF 7F 83 40 02 01  @......J.....@..
2030: 7B 83 40 02 01 7B 82 40  02 01 1C 14 80 27 10 F0  {.@..{.@.....'..
2040: FF FF 7F 38 1A F7 30 1A  99 32 48 2C 80 23 45 16  ...8..0..2H,.#E.
2050: 80 F8 FF FF 7F F8 FF FF  7F 73 31 31 31 01 80 1A  .........s111...
2060: 63 33 1C 3F 80 52 16 80  F8 FF FF 7F F8 FF FF 7F  c3.?.R..........
2070: 73 31 31 31 45 16 80 F8  FF FF 7F F8 FF FF 7F 6C  s111E..........l
2080: 61 30 31 01 80 1C 14 80  2B 83 40 02 01 C0 80 1C  a01.....+.@.....
2090: 1A 80 23 52 16 80 F8 FF  FF 7F F8 FF FF 7F 6C 61  ..#R..........la
20A0: 30 31 45 16 80 F8 FF FF  7F F8 FF FF 7F 73 31 31  01E..........s11
20B0: 32 01 80 1C 14 80 2B 83  40 02 01 C1 80 1C 1A 80  2.....+.@.......
20C0: 23 52 16 80 F8 FF FF 7F  F8 FF FF 7F 73 31 31 32  #R..........s112
20D0: 45 16 80 F8 FF FF 7F F8  FF FF 7F 73 31 31 33 01  E..........s113.
20E0: 80 2B 83 40 02 01 C2 80  1C 1A 80 23 81 00 83 40  .+.@.......#...@
20F0: 02 01 7C 00 83 40 02 01  02 87 7F 00 80 80 12 21  ..|..@.........!
2100: 66 2B 80 83 40 02 01 83  40 02 01 66 79 75 33 01  f+..@...@..fyu3.
2110: C8 21 02 87 7F 1C 80 80  2C 21 66 4E 80 83 40 02  .!......,!fN..@.
2120: 01 83 40 02 01 66 79 75  33 01 C8 21 02 87 7F 1E  ..@..fyu3..!....
2130: 80 80 46 21 66 4F 80 83  40 02 01 83 40 02 01 66  ..F!fO..@...@..f
2140: 79 75 33 01 C8 21 02 87  7F 1F 80 80 60 21 66 50  yu3..!......`!fP
2150: 80 83 40 02 01 83 40 02  01 66 79 75 33 01 C8 21  ..@...@..fyu3..!
2160: 02 87 7F 04 80 80 7A 21  66 51 80 83 40 02 01 83  ......z!fQ..@...
2170: 40 02 01 66 79 75 33 01  C8 21 02 87 7F 05 80 80  @..fyu3..!......
2180: 94 21 66 51 80 83 40 02  01 83 40 02 01 66 79 75  .!fQ..@...@..fyu
2190: 33 01 C8 21 02 87 7F 06  80 80 AE 21 66 52 80 83  3..!.......!fR..
21A0: 40 02 01 83 40 02 01 66  79 75 33 01 C8 21 02 87  @...@..fyu3..!..
21B0: 7F 07 80 80 C8 21 66 53  80 83 40 02 01 83 40 02  .....!fS..@...@.
21C0: 01 66 79 75 33 01 C8 21  52 16 80 F8 FF FF 7F F8  .fyu3..!R.......
21D0: FF FF 7F 73 31 31 33 45  16 80 F8 FF FF 7F F8 FF  ...s113E........
21E0: FF 7F 73 31 31 34 01 80  D0 13 80 83 40 02 01 83  ..s114......@...
21F0: 40 02 01 6B 6C 6C 61 01  80 D0 C3 80 83 40 02 01  @..klla......@..
2200: 82 40 02 01 73 30 30 30  01 80 1C C4 80 D0 C3 80  .@..s000........
2210: 83 40 02 01 82 40 02 01  73 30 30 31 01 80 1C A0  .@...@..s001....
2220: 80 5B C5 80 82 40 02 01  82 40 02 01 6D 66 30 30  .[...@...@..mf00
2230: 55 16 80 F8 FF FF 7F F8  FF FF 7F 73 31 31 34 45  U..........s114E
2240: 16 80 F8 FF FF 7F F8 FF  FF 7F 73 31 31 35 01 80  ..........s115..
2250: 1C 1A 80 1A 84 33 1C 14  80 D0 5E 80 F0 FF FF 7F  .....3....^.....
2260: F0 FF FF 7F 6B 6C 6C 61  01 80 52 16 80 F8 FF FF  ....klla..R.....
2270: 7F F8 FF FF 7F 73 31 31  35 45 16 80 F8 FF FF 7F  .....s115E......
2280: F8 FF FF 7F 30 62 6C 66  01 80 92 00 F0 FF FF 7F  ....0blf........
2290: 29 05 83 40 02 01 0F 29  05 83 40 02 01 0A 29 05  )..@...)..@...).
22A0: 82 40 02 01 11 80 83 40  02 01 80 82 40 02 01 1C  .@.....@....@...
22B0: 18 80 1A 42 33 1A 63 33  1C AA 80 AB 11 01 80 1C  ...B3.c3........
22C0: 00 80 5C 00 01 80 5C 01  01 80 9A 46 00 45 3F 80  ..\...\....F.E?.
22D0: F8 FF FF 7F F8 FF FF 7F  66 64 69 32 01 80 21 00  ........fdi2..!.
```

#### Opcodes

```
  0: 0x0001 [0x42] SET_CLI_EVENT_CANCEL_DATA()
  1: 0x0002 [0x03] Work_Zone[1] = 1*
  2: 0x0007 [0x43] SEND_EVENT_UPDATE: Send pending tag to server (packet 0x005B)
  3: 0x0009 [0x43] SEND_EVENT_UPDATE: Check pending flag (skip if not pending)
  4: 0x000B [0x03] ExtData[1]->WorkLocal[1] = Work_Zone[3]
  5: 0x0010 [0x5D] SET_MUSIC_VOLUME(volume=0*, fade_time=120*)
  6: 0x0015 [0x1A] CALL_SUBROUTINE(address=0x3342)
  7: 0x0018 [0x46] CAMERA_CONTROL: Disable user control
  8: 0x001A [0x38] SET_CLIENT_EVENT_MODE(mode=27*)
  9: 0x001D [0x2F] Volto Oscuro (ID: 16924803/0x01024083)->Render.Flags0 &= ~0x80000 // Bit 19
 10: 0x0023 [0x2F] Unnamed NPC (ID: 16924804/0x01024084)->Render.Flags0 &= ~0x80000 // Bit 19
 11: 0x0029 [0x4E] SET_ENTITY_HIDE_FLAG: Show Volto Oscuro (ID: 16924803/0x01024083)
 12: 0x002F [0x4E] SET_ENTITY_HIDE_FLAG: Show Unnamed NPC (ID: 16924804/0x01024084)
 13: 0x0035 [0x4E] SET_ENTITY_HIDE_FLAG: Show LocalPlayer
 14: 0x003B [0x29] REQ_SET_WAIT(priority=0x05, entity_id=Volto Oscuro (ID: 16924803/0x01024083), tag_num=0x10)
 15: 0x0042 [0x94] Volto Oscuro (ID: 16924803/0x01024083)->Render.Flags3 ^= 0x01
 16: 0x0048 [0x94] Unnamed NPC (ID: 16924804/0x01024084)->Render.Flags3 ^= 0x01
 17: 0x004E [0x94] LocalPlayer->Render.Flags3 ^= 0x01
 18: 0x0054 [0x92] Volto Oscuro (ID: 16924803/0x01024083)->Render.Flags3 ^= 0x01
 19: 0x005A [0x03] Work_Zone[3] = ExtData[1]->WorkLocal[1]
 20: 0x005F [0x29] REQ_SET_WAIT(priority=0x05, entity_id=Volto Oscuro (ID: 16924803/0x01024083), tag_num=0x12)
 21: 0x0066 [0x29] REQ_SET_WAIT(priority=0x05, entity_id=Unnamed NPC (ID: 16924804/0x01024084), tag_num=0x0A)
 22: 0x006D [0x02] IF !(LocalPlayer->Race == 5*) GOTO 0x007F
 23: 0x0075 [0x27] REQ_SET(priority=0x05, entity_id=LocalPlayer, tag_num=0x23)
 24: 0x007C [0x01] GOTO 0x00BC
 25: 0x007F [0x02] IF !(LocalPlayer->Race == 6*) GOTO 0x0091
 26: 0x0087 [0x27] REQ_SET(priority=0x05, entity_id=LocalPlayer, tag_num=0x23)
 27: 0x008E [0x01] GOTO 0x00BC
 28: 0x0091 [0x02] IF !(LocalPlayer->Race == 7*) GOTO 0x00A3
 29: 0x0099 [0x27] REQ_SET(priority=0x05, entity_id=LocalPlayer, tag_num=0x24)
 30: 0x00A0 [0x01] GOTO 0x00BC
 31: 0x00A3 [0x02] IF !(LocalPlayer->Race == 8*) GOTO 0x00B5
 32: 0x00AB [0x27] REQ_SET(priority=0x05, entity_id=LocalPlayer, tag_num=0x25)
 33: 0x00B2 [0x01] GOTO 0x00BC
 34: 0x00B5 [0x27] REQ_SET(priority=0x05, entity_id=LocalPlayer, tag_num=0x26)

SUBROUTINE_00BC:
 35: 0x00BC [0x59] UPDATE_ENTITY_DATA: Unnamed NPC (ID: 16924804/0x01024084)->Render.Flags0 |= 0x200000
 36: 0x00C3 [0xBA] SET_ENTITY_POSITION(entity_id=Volto Oscuro (ID: 16924803/0x01024083), pos_x=-516.773*, pos_z=517.206*, pos_y=-120.000*, direction=300.6*)
 37: 0x00D0 [0xBA] SET_ENTITY_POSITION(entity_id=LocalPlayer, pos_x=-521.432*, pos_z=510.183*, pos_y=-120.000*, direction=300.7*)
 38: 0x00DD [0xBA] SET_ENTITY_POSITION(entity_id=Unnamed NPC (ID: 16924804/0x01024084), pos_x=-523.676*, pos_z=508.312*, pos_y=-1200.000*, direction=112.2*)
 39: 0x00EA [0x80] LOAD_WAIT(entity=Volto Oscuro (ID: 16924803/0x01024083))
 40: 0x00EF [0x80] LOAD_WAIT(entity=LocalPlayer)
 41: 0x00F4 [0x80] LOAD_WAIT(entity=Unnamed NPC (ID: 16924804/0x01024084))
 42: 0x00F9 [0xD0] LOAD_SCHEDULED_TASK_ALT5: Load scheduler "s000" with entities [Volto Oscuro (ID: 16924803/0x01024083), Volto Oscuro (ID: 16924803/0x01024083)], work=[187*, 0*]
 43: 0x010A [0x1C] WAIT(30* ticks)
 44: 0x010D [0x5C] MUSIC_CONTROL: Set Idle (Day) music to song 228*
 45: 0x0111 [0x5C] MUSIC_CONTROL: Set Idle (Night) music to song 228*
 46: 0x0115 [0x9A] WAIT_MUSIC_SERVER()
 47: 0x0116 [0x45] LOAD_SCHEDULED_TASK: Load scheduler "s056" with entities [EventEntity, EventEntity], work=[792*, 0*]
 48: 0x0127 [0x1A] CALL_SUBROUTINE(address=0x3321)
 49: 0x012A [0x1C] WAIT(150* ticks)
 50: 0x012D [0x52] END_LOAD_SCHEDULER: End scheduler "s056" with entities [EventEntity, EventEntity], work=792*
 51: 0x013C [0x02] IF !(LocalPlayer->Race == 5*) GOTO 0x0158
 52: 0x0144 [0x45] LOAD_SCHEDULED_TASK: Load scheduler "s058" with entities [EventEntity, EventEntity], work=[792*, 0*]
 53: 0x0155 [0x01] GOTO 0x0185
 54: 0x0158 [0x02] IF !(LocalPlayer->Race == 6*) GOTO 0x0174
 55: 0x0160 [0x45] LOAD_SCHEDULED_TASK: Load scheduler "s058" with entities [EventEntity, EventEntity], work=[792*, 0*]
 56: 0x0171 [0x01] GOTO 0x0185
 57: 0x0174 [0x45] LOAD_SCHEDULED_TASK: Load scheduler "s057" with entities [EventEntity, EventEntity], work=[792*, 0*]

SUBROUTINE_0185:
 58: 0x0185 [0x1C] WAIT(60* ticks)
 59: 0x0188 [0x2B] Volto Oscuro (ID: 16924803/0x01024083) [7899*]:
     "The Reckoning..."
 60: 0x018F [0x1C] WAIT(90* ticks)
 61: 0x0192 [0x23] WAIT_FOR_DIALOG_INTERACTION
 62: 0x0193 [0x52] END_LOAD_SCHEDULER: End scheduler "s057" with entities [EventEntity, EventEntity], work=792*
 63: 0x01A2 [0x52] END_LOAD_SCHEDULER: End scheduler "s058" with entities [EventEntity, EventEntity], work=792*
 64: 0x01B1 [0x45] LOAD_SCHEDULED_TASK: Load scheduler "s059" with entities [EventEntity, EventEntity], work=[792*, 0*]
 65: 0x01C2 [0x2B] Volto Oscuro (ID: 16924803/0x01024083) [7900*]:
     "That is when we made the decision to become a god of light and leave behind a world where there was Iroha, and Iroha alone."
 66: 0x01C9 [0x1C] WAIT(120* ticks)
 67: 0x01CC [0x23] WAIT_FOR_DIALOG_INTERACTION
 68: 0x01CD [0x52] END_LOAD_SCHEDULER: End scheduler "s059" with entities [EventEntity, EventEntity], work=792*
 69: 0x01DC [0x02] IF !(LocalPlayer->Race == 2*) GOTO 0x01F8
 70: 0x01E4 [0x45] LOAD_SCHEDULED_TASK: Load scheduler "s063" with entities [EventEntity, EventEntity], work=[792*, 0*]
 71: 0x01F5 [0x01] GOTO 0x0279
 72: 0x01F8 [0x02] IF !(LocalPlayer->Race == 5*) GOTO 0x0214
 73: 0x0200 [0x45] LOAD_SCHEDULED_TASK: Load scheduler "s064" with entities [EventEntity, EventEntity], work=[792*, 0*]
 74: 0x0211 [0x01] GOTO 0x0279
 75: 0x0214 [0x02] IF !(LocalPlayer->Race == 6*) GOTO 0x0230
 76: 0x021C [0x45] LOAD_SCHEDULED_TASK: Load scheduler "s064" with entities [EventEntity, EventEntity], work=[792*, 0*]
 77: 0x022D [0x01] GOTO 0x0279
 78: 0x0230 [0x02] IF !(LocalPlayer->Race == 7*) GOTO 0x024C
 79: 0x0238 [0x45] LOAD_SCHEDULED_TASK: Load scheduler "s063" with entities [EventEntity, EventEntity], work=[792*, 0*]
 80: 0x0249 [0x01] GOTO 0x0279
 81: 0x024C [0x02] IF !(LocalPlayer->Race == 8*) GOTO 0x0268
 82: 0x0254 [0x45] LOAD_SCHEDULED_TASK: Load scheduler "s066" with entities [EventEntity, EventEntity], work=[792*, 0*]
 83: 0x0265 [0x01] GOTO 0x0279
 84: 0x0268 [0x45] LOAD_SCHEDULED_TASK: Load scheduler "s060" with entities [EventEntity, EventEntity], work=[792*, 0*]

SUBROUTINE_0279:
 85: 0x0279 [0x2B] Volto Oscuro (ID: 16924803/0x01024083) [7901*]:
     "We are of the same flesh. Thus I am intimately familiar with all the emotions you will feel in that moment."
 86: 0x0280 [0x1C] WAIT(120* ticks)
 87: 0x0283 [0x23] WAIT_FOR_DIALOG_INTERACTION
 88: 0x0284 [0x52] END_LOAD_SCHEDULER: End scheduler "s060" with entities [EventEntity, EventEntity], work=792*
 89: 0x0293 [0x52] END_LOAD_SCHEDULER: End scheduler "s063" with entities [EventEntity, EventEntity], work=792*
 90: 0x02A2 [0x52] END_LOAD_SCHEDULER: End scheduler "s064" with entities [EventEntity, EventEntity], work=792*
 91: 0x02B1 [0x52] END_LOAD_SCHEDULER: End scheduler "s066" with entities [EventEntity, EventEntity], work=792*
 92: 0x02C0 [0x02] IF !(LocalPlayer->Race == 3*) GOTO 0x02DC
 93: 0x02C8 [0x45] LOAD_SCHEDULED_TASK: Load scheduler "s067" with entities [EventEntity, EventEntity], work=[792*, 0*]
 94: 0x02D9 [0x01] GOTO 0x035D
 95: 0x02DC [0x02] IF !(LocalPlayer->Race == 4*) GOTO 0x02F8
 96: 0x02E4 [0x45] LOAD_SCHEDULED_TASK: Load scheduler "s067" with entities [EventEntity, EventEntity], work=[792*, 0*]
 97: 0x02F5 [0x01] GOTO 0x035D
 98: 0x02F8 [0x02] IF !(LocalPlayer->Race == 5*) GOTO 0x0314
 99: 0x0300 [0x45] LOAD_SCHEDULED_TASK: Load scheduler "s068" with entities [EventEntity, EventEntity], work=[792*, 0*]
100: 0x0311 [0x01] GOTO 0x035D
101: 0x0314 [0x02] IF !(LocalPlayer->Race == 6*) GOTO 0x0330
102: 0x031C [0x45] LOAD_SCHEDULED_TASK: Load scheduler "s068" with entities [EventEntity, EventEntity], work=[792*, 0*]
103: 0x032D [0x01] GOTO 0x035D
104: 0x0330 [0x02] IF !(LocalPlayer->Race == 8*) GOTO 0x034C
105: 0x0338 [0x45] LOAD_SCHEDULED_TASK: Load scheduler "s067" with entities [EventEntity, EventEntity], work=[792*, 0*]
106: 0x0349 [0x01] GOTO 0x035D
107: 0x034C [0x45] LOAD_SCHEDULED_TASK: Load scheduler "s065" with entities [EventEntity, EventEntity], work=[792*, 0*]

SUBROUTINE_035D:
108: 0x035D [0x2B] Volto Oscuro (ID: 16924803/0x01024083) [7902*]:
     "Neither of us wished to make any sacrifices."
109: 0x0364 [0x1C] WAIT(120* ticks)
110: 0x0367 [0x23] WAIT_FOR_DIALOG_INTERACTION
111: 0x0368 [0x1A] CALL_SUBROUTINE(address=0x3342)
112: 0x036B [0x1C] WAIT(30* ticks)
113: 0x036E [0xD0] LOAD_SCHEDULED_TASK_ALT5: Load scheduler "klla" with entities [Volto Oscuro (ID: 16924803/0x01024083), Volto Oscuro (ID: 16924803/0x01024083)], work=[187*, 0*]
114: 0x037F [0x52] END_LOAD_SCHEDULER: End scheduler "s065" with entities [EventEntity, EventEntity], work=792*
115: 0x038E [0x52] END_LOAD_SCHEDULER: End scheduler "s067" with entities [EventEntity, EventEntity], work=792*
116: 0x039D [0x52] END_LOAD_SCHEDULER: End scheduler "s068" with entities [EventEntity, EventEntity], work=792*
117: 0x03AC [0x59] UPDATE_ENTITY_DATA: Volto Oscuro (ID: 16924803/0x01024083)->Render.Flags0 |= 0x200000
118: 0x03B3 [0xBA] SET_ENTITY_POSITION(entity_id=Volto Oscuro (ID: 16924803/0x01024083), pos_x=-521.967*, pos_z=510.299*, pos_y=-1200.000*, direction=300.8*)
119: 0x03C0 [0x80] LOAD_WAIT(entity=Volto Oscuro (ID: 16924803/0x01024083))
120: 0x03C5 [0x1C] WAIT(30* ticks)
121: 0x03C8 [0x02] IF !(LocalPlayer->Race == 1*) GOTO 0x03E2
122: 0x03D0 [0x66] LOAD_EXT_SCHEDULER_MAIN: Load scheduler "wlk1" with entities [Unnamed NPC (ID: 16924804/0x01024084), Unnamed NPC (ID: 16924804/0x01024084)], work=212*
123: 0x03DF [0x01] GOTO 0x0498
124: 0x03E2 [0x02] IF !(LocalPlayer->Race == 2*) GOTO 0x03FC
125: 0x03EA [0x66] LOAD_EXT_SCHEDULER_MAIN: Load scheduler "wlk1" with entities [Unnamed NPC (ID: 16924804/0x01024084), Unnamed NPC (ID: 16924804/0x01024084)], work=222*
126: 0x03F9 [0x01] GOTO 0x0498
127: 0x03FC [0x02] IF !(LocalPlayer->Race == 3*) GOTO 0x0416
128: 0x0404 [0x66] LOAD_EXT_SCHEDULER_MAIN: Load scheduler "wlk1" with entities [Unnamed NPC (ID: 16924804/0x01024084), Unnamed NPC (ID: 16924804/0x01024084)], work=232*
129: 0x0413 [0x01] GOTO 0x0498
130: 0x0416 [0x02] IF !(LocalPlayer->Race == 4*) GOTO 0x0430
131: 0x041E [0x66] LOAD_EXT_SCHEDULER_MAIN: Load scheduler "wlk1" with entities [Unnamed NPC (ID: 16924804/0x01024084), Unnamed NPC (ID: 16924804/0x01024084)], work=242*
132: 0x042D [0x01] GOTO 0x0498
133: 0x0430 [0x02] IF !(LocalPlayer->Race == 5*) GOTO 0x044A
134: 0x0438 [0x66] LOAD_EXT_SCHEDULER_MAIN: Load scheduler "wlk1" with entities [Unnamed NPC (ID: 16924804/0x01024084), Unnamed NPC (ID: 16924804/0x01024084)], work=252*
135: 0x0447 [0x01] GOTO 0x0498
136: 0x044A [0x02] IF !(LocalPlayer->Race == 6*) GOTO 0x0464
137: 0x0452 [0x66] LOAD_EXT_SCHEDULER_MAIN: Load scheduler "wlk1" with entities [Unnamed NPC (ID: 16924804/0x01024084), Unnamed NPC (ID: 16924804/0x01024084)], work=252*
138: 0x0461 [0x01] GOTO 0x0498
139: 0x0464 [0x02] IF !(LocalPlayer->Race == 7*) GOTO 0x047E
140: 0x046C [0x66] LOAD_EXT_SCHEDULER_MAIN: Load scheduler "wlk1" with entities [Unnamed NPC (ID: 16924804/0x01024084), Unnamed NPC (ID: 16924804/0x01024084)], work=262*
141: 0x047B [0x01] GOTO 0x0498
142: 0x047E [0x02] IF !(LocalPlayer->Race == 8*) GOTO 0x0498
143: 0x0486 [0x66] LOAD_EXT_SCHEDULER_MAIN: Load scheduler "wlk1" with entities [Unnamed NPC (ID: 16924804/0x01024084), Unnamed NPC (ID: 16924804/0x01024084)], work=272*
144: 0x0495 [0x01] GOTO 0x0498

SUBROUTINE_0498:
145: 0x0498 [0x02] IF !(LocalPlayer->Race == 1*) GOTO 0x04B2
146: 0x04A0 [0x66] LOAD_EXT_SCHEDULER_MAIN: Load scheduler "wlk1" with entities [Volto Oscuro (ID: 16924803/0x01024083), Volto Oscuro (ID: 16924803/0x01024083)], work=212*
147: 0x04AF [0x01] GOTO 0x0568
148: 0x04B2 [0x02] IF !(LocalPlayer->Race == 2*) GOTO 0x04CC
149: 0x04BA [0x66] LOAD_EXT_SCHEDULER_MAIN: Load scheduler "wlk1" with entities [Volto Oscuro (ID: 16924803/0x01024083), Volto Oscuro (ID: 16924803/0x01024083)], work=222*
150: 0x04C9 [0x01] GOTO 0x0568
151: 0x04CC [0x02] IF !(LocalPlayer->Race == 3*) GOTO 0x04E6
152: 0x04D4 [0x66] LOAD_EXT_SCHEDULER_MAIN: Load scheduler "wlk1" with entities [Volto Oscuro (ID: 16924803/0x01024083), Volto Oscuro (ID: 16924803/0x01024083)], work=232*
153: 0x04E3 [0x01] GOTO 0x0568
154: 0x04E6 [0x02] IF !(LocalPlayer->Race == 4*) GOTO 0x0500
155: 0x04EE [0x66] LOAD_EXT_SCHEDULER_MAIN: Load scheduler "wlk1" with entities [Volto Oscuro (ID: 16924803/0x01024083), Volto Oscuro (ID: 16924803/0x01024083)], work=242*
156: 0x04FD [0x01] GOTO 0x0568
157: 0x0500 [0x02] IF !(LocalPlayer->Race == 5*) GOTO 0x051A
158: 0x0508 [0x66] LOAD_EXT_SCHEDULER_MAIN: Load scheduler "wlk1" with entities [Volto Oscuro (ID: 16924803/0x01024083), Volto Oscuro (ID: 16924803/0x01024083)], work=252*
159: 0x0517 [0x01] GOTO 0x0568
160: 0x051A [0x02] IF !(LocalPlayer->Race == 6*) GOTO 0x0534
161: 0x0522 [0x66] LOAD_EXT_SCHEDULER_MAIN: Load scheduler "wlk1" with entities [Volto Oscuro (ID: 16924803/0x01024083), Volto Oscuro (ID: 16924803/0x01024083)], work=252*
162: 0x0531 [0x01] GOTO 0x0568
163: 0x0534 [0x02] IF !(LocalPlayer->Race == 7*) GOTO 0x054E
164: 0x053C [0x66] LOAD_EXT_SCHEDULER_MAIN: Load scheduler "wlk1" with entities [Volto Oscuro (ID: 16924803/0x01024083), Volto Oscuro (ID: 16924803/0x01024083)], work=262*
165: 0x054B [0x01] GOTO 0x0568
166: 0x054E [0x02] IF !(LocalPlayer->Race == 8*) GOTO 0x0568
167: 0x0556 [0x66] LOAD_EXT_SCHEDULER_MAIN: Load scheduler "wlk1" with entities [Volto Oscuro (ID: 16924803/0x01024083), Volto Oscuro (ID: 16924803/0x01024083)], work=272*
168: 0x0565 [0x01] GOTO 0x0568

SUBROUTINE_0568:
169: 0x0568 [0xC5] LOAD_SCHEDULED_TASK_ALT3: Load scheduler 0x80013130 for entities [Unnamed NPC (ID: 16924804/0x01024084), Unnamed NPC (ID: 16924804/0x01024084)], work=213*, param=12403
170: 0x0579 [0xC5] LOAD_SCHEDULED_TASK_ALT3: Load scheduler 0x80013130 for entities [Volto Oscuro (ID: 16924803/0x01024083), Volto Oscuro (ID: 16924803/0x01024083)], work=213*, param=12403
171: 0x058A [0x48] [System] [7705*]:
     ""
172: 0x058D [0x23] WAIT_FOR_DIALOG_INTERACTION
173: 0x058E [0x7C] Volto Oscuro (ID: 16924803/0x01024083)->Render.Flags2 |= 0x00
174: 0x0594 [0x45] LOAD_SCHEDULED_TASK: Load scheduler "s069" with entities [EventEntity, EventEntity], work=[792*, 0*]
175: 0x05A5 [0x1A] CALL_SUBROUTINE(address=0x3321)
176: 0x05A8 [0x1C] WAIT(60* ticks)
177: 0x05AB [0x2B] Volto Oscuro (ID: 16924803/0x01024083) [7903*]:
     "We embarked on countless journeys, making friends and allies with each step of the way. And the day had arrived when we were becoming more than any adventurer could hope to become."
178: 0x05B2 [0x1C] WAIT(120* ticks)
179: 0x05B5 [0x23] WAIT_FOR_DIALOG_INTERACTION
180: 0x05B6 [0x52] END_LOAD_SCHEDULER: End scheduler "s069" with entities [EventEntity, EventEntity], work=792*
181: 0x05C5 [0x02] IF !(LocalPlayer->Race == 5*) GOTO 0x05E1
182: 0x05CD [0x45] LOAD_SCHEDULED_TASK: Load scheduler "s071" with entities [EventEntity, EventEntity], work=[792*, 0*]
183: 0x05DE [0x01] GOTO 0x060E
184: 0x05E1 [0x02] IF !(LocalPlayer->Race == 6*) GOTO 0x05FD
185: 0x05E9 [0x45] LOAD_SCHEDULED_TASK: Load scheduler "s071" with entities [EventEntity, EventEntity], work=[792*, 0*]
186: 0x05FA [0x01] GOTO 0x060E
187: 0x05FD [0x45] LOAD_SCHEDULED_TASK: Load scheduler "s070" with entities [EventEntity, EventEntity], work=[792*, 0*]

SUBROUTINE_060E:
188: 0x060E [0x2B] Volto Oscuro (ID: 16924803/0x01024083) [7904*]:
     "And even still, we believed it. ...No. Perhaps that is exactly why we believed it."
189: 0x0615 [0x1C] WAIT(120* ticks)
190: 0x0618 [0x23] WAIT_FOR_DIALOG_INTERACTION
191: 0x0619 [0x52] END_LOAD_SCHEDULER: End scheduler "s070" with entities [EventEntity, EventEntity], work=792*
192: 0x0628 [0x52] END_LOAD_SCHEDULER: End scheduler "s071" with entities [EventEntity, EventEntity], work=792*
193: 0x0637 [0x02] IF !(LocalPlayer->Race == 5*) GOTO 0x0653
194: 0x063F [0x45] LOAD_SCHEDULED_TASK: Load scheduler "s073" with entities [EventEntity, EventEntity], work=[792*, 0*]
195: 0x0650 [0x01] GOTO 0x0680
196: 0x0653 [0x02] IF !(LocalPlayer->Race == 6*) GOTO 0x066F
197: 0x065B [0x45] LOAD_SCHEDULED_TASK: Load scheduler "s073" with entities [EventEntity, EventEntity], work=[792*, 0*]
198: 0x066C [0x01] GOTO 0x0680
199: 0x066F [0x45] LOAD_SCHEDULED_TASK: Load scheduler "s072" with entities [EventEntity, EventEntity], work=[792*, 0*]

SUBROUTINE_0680:
200: 0x0680 [0x2B] Volto Oscuro (ID: 16924803/0x01024083) [7905*]:
     ""There is no need to make sacrifices to protect what we hold dear.""
201: 0x0687 [0x23] WAIT_FOR_DIALOG_INTERACTION
202: 0x0688 [0x1A] CALL_SUBROUTINE(address=0x3342)
203: 0x068B [0x1C] WAIT(30* ticks)
204: 0x068E [0x48] [System] [7705*]:
     ""
205: 0x0691 [0x23] WAIT_FOR_DIALOG_INTERACTION
206: 0x0692 [0x52] END_LOAD_SCHEDULER: End scheduler "s072" with entities [EventEntity, EventEntity], work=792*
207: 0x06A1 [0x52] END_LOAD_SCHEDULER: End scheduler "s073" with entities [EventEntity, EventEntity], work=792*
208: 0x06B0 [0xC5] LOAD_SCHEDULED_TASK_ALT3: Load scheduler 0x8001316C for entities [Volto Oscuro (ID: 16924803/0x01024083), Volto Oscuro (ID: 16924803/0x01024083)], work=213*, param=26987
209: 0x06C1 [0x6B] STOP_AND_IDLE: Unnamed NPC (ID: 16924804/0x01024084) stops current action and resets to idle (animation="idl0")
210: 0x06CA [0x6B] STOP_AND_IDLE: Volto Oscuro (ID: 16924803/0x01024083) stops current action and resets to idle (animation="idl0")
211: 0x06D3 [0xBA] SET_ENTITY_POSITION(entity_id=Volto Oscuro (ID: 16924803/0x01024083), pos_x=-516.773*, pos_z=517.206*, pos_y=-120.000*, direction=300.6*)
212: 0x06E0 [0x80] LOAD_WAIT(entity=Volto Oscuro (ID: 16924803/0x01024083))
213: 0x06E5 [0x4A] Volto Oscuro (ID: 16924803/0x01024083) looks at LocalPlayer
214: 0x06EE [0x4A] LocalPlayer looks at Volto Oscuro (ID: 16924803/0x01024083)
215: 0x06F7 [0x1A] CALL_SUBROUTINE(address=0x34E9)
216: 0x06FA [0x89] OPEN_MAP(map_id=0x00008030)
217: 0x06FD [0x1C] WAIT(60* ticks)
218: 0x0700 [0xB4] UI_WINDOW_STRING_HANDLER(case=0x14 - Update map window values, work_offset1=1000*, work_offset2=1000*, work_offset3=1000*, work_offset4=0*, work_offset5=1*)
219: 0x070C [0x1A] CALL_SUBROUTINE(address=0x34D7)
220: 0x070F [0x2B] Volto Oscuro (ID: 16924803/0x01024083) [7906*]:
     "But the time of the Reckoning was close at hand."
221: 0x0716 [0x1C] WAIT(90* ticks)
222: 0x0719 [0x23] WAIT_FOR_DIALOG_INTERACTION
223: 0x071A [0x2B] Volto Oscuro (ID: 16924803/0x01024083) [7907*]:
     "And only when oblivion reared its head were we finally able to understand how powerless we were."
224: 0x0721 [0x1C] WAIT(90* ticks)
225: 0x0724 [0x23] WAIT_FOR_DIALOG_INTERACTION
226: 0x0725 [0x1A] CALL_SUBROUTINE(address=0x34E9)
227: 0x0728 [0x8A] CLOSE_MAP()
228: 0x0729 [0xB4] UI_WINDOW_STRING_HANDLER(case=0x15 - Test map window validity)
229: 0x072B [0x1A] CALL_SUBROUTINE(address=0x34D7)
230: 0x072E [0x2F] Iroha (ID: 16924801/0x01024081)->Render.Flags0 &= ~0x80000 // Bit 19
231: 0x0734 [0x4E] SET_ENTITY_HIDE_FLAG: Show Iroha (ID: 16924801/0x01024081)
232: 0x073A [0x92] Iroha (ID: 16924801/0x01024081)->Render.Flags3 ^= 0x01
233: 0x0740 [0x94] Iroha (ID: 16924801/0x01024081)->Render.Flags3 ^= 0x01
234: 0x0746 [0x59] UPDATE_ENTITY_DATA: Iroha (ID: 16924801/0x01024081)->Render.Flags0 |= 0x200000
235: 0x074D [0xBA] SET_ENTITY_POSITION(entity_id=Iroha (ID: 16924801/0x01024081), pos_x=-521.967*, pos_z=510.299*, pos_y=-1200.000*, direction=107.8*)
236: 0x075A [0xBA] SET_ENTITY_POSITION(entity_id=Unnamed NPC (ID: 16924804/0x01024084), pos_x=-523.676*, pos_z=508.312*, pos_y=-1200.000*, direction=300.6*)
237: 0x0767 [0x80] LOAD_WAIT(entity=Iroha (ID: 16924801/0x01024081))
238: 0x076C [0x80] LOAD_WAIT(entity=Unnamed NPC (ID: 16924804/0x01024084))
239: 0x0771 [0x4A] Iroha (ID: 16924801/0x01024081) looks at Unnamed NPC (ID: 16924804/0x01024084)
240: 0x077A [0x7B] Iroha (ID: 16924801/0x01024081) stops talking
241: 0x077F [0x1C] WAIT(30* ticks)
242: 0x0782 [0x27] REQ_SET(priority=0x05, entity_id=Unnamed NPC (ID: 16924804/0x01024084), tag_num=0x0D)
243: 0x0789 [0x1C] WAIT(120* ticks)
244: 0x078C [0x81] SET_ENTITY_BLINKING(blink_flag=0x00, entity=Iroha (ID: 16924801/0x01024081))
245: 0x0792 [0x7C] Iroha (ID: 16924801/0x01024081)->Render.Flags2 |= 0x00
246: 0x0798 [0x5B] LOAD_EXT_SCHEDULER: Load scheduler "fn00" with entities [Iroha (ID: 16924801/0x01024081), Iroha (ID: 16924801/0x01024081)], work=3904*
247: 0x07A7 [0x5B] LOAD_EXT_SCHEDULER: Load scheduler "sei0" with entities [Iroha (ID: 16924801/0x01024081), Iroha (ID: 16924801/0x01024081)], work=3912*
248: 0x07B6 [0xD0] LOAD_SCHEDULED_TASK_ALT5: Load scheduler "kyu0" with entities [Unnamed NPC (ID: 16924804/0x01024084), Unnamed NPC (ID: 16924804/0x01024084)], work=[102*, 0*]
249: 0x07C7 [0xC5] LOAD_SCHEDULED_TASK_ALT3: Load scheduler 0x80013130 for entities [Iroha (ID: 16924801/0x01024081), Iroha (ID: 16924801/0x01024081)], work=213*, param=12403
250: 0x07D8 [0xC5] LOAD_SCHEDULED_TASK_ALT3: Load scheduler 0x8001316C for entities [Unnamed NPC (ID: 16924804/0x01024084), Unnamed NPC (ID: 16924804/0x01024084)], work=213*, param=26987
251: 0x07E9 [0x1C] WAIT(30* ticks)
252: 0x07EC [0x45] LOAD_SCHEDULED_TASK: Load scheduler "s074" with entities [EventEntity, EventEntity], work=[792*, 0*]
253: 0x07FD [0x1A] CALL_SUBROUTINE(address=0x3321)
254: 0x0800 [0x2B] Volto Oscuro (ID: 16924803/0x01024083) [7908*]:
     "And so we made our decision. We would sacrifice ourselves to protect Iroha, that she may lead a new generation."
255: 0x0807 [0x1C] WAIT(90* ticks)
256: 0x080A [0x23] WAIT_FOR_DIALOG_INTERACTION
257: 0x080B [0x27] REQ_SET(priority=0x05, entity_id=Unnamed NPC (ID: 16924804/0x01024084), tag_num=0x0E)
258: 0x0812 [0x1C] WAIT(120* ticks)
259: 0x0815 [0x52] END_LOAD_SCHEDULER: End scheduler "s074" with entities [EventEntity, EventEntity], work=792*
260: 0x0824 [0x02] IF !(LocalPlayer->Race == 5*) GOTO 0x0840
261: 0x082C [0x45] LOAD_SCHEDULED_TASK: Load scheduler "s076" with entities [EventEntity, EventEntity], work=[792*, 0*]
262: 0x083D [0x01] GOTO 0x0889
263: 0x0840 [0x02] IF !(LocalPlayer->Race == 6*) GOTO 0x085C
264: 0x0848 [0x45] LOAD_SCHEDULED_TASK: Load scheduler "s076" with entities [EventEntity, EventEntity], work=[792*, 0*]
265: 0x0859 [0x01] GOTO 0x0889
266: 0x085C [0x02] IF !(LocalPlayer->Race == 8*) GOTO 0x0878
267: 0x0864 [0x45] LOAD_SCHEDULED_TASK: Load scheduler "s092" with entities [EventEntity, EventEntity], work=[792*, 0*]
268: 0x0875 [0x01] GOTO 0x0889
269: 0x0878 [0x45] LOAD_SCHEDULED_TASK: Load scheduler "s075" with entities [EventEntity, EventEntity], work=[792*, 0*]

SUBROUTINE_0889:
270: 0x0889 [0x27] REQ_SET(priority=0x05, entity_id=Unnamed NPC (ID: 16924804/0x01024084), tag_num=0x09)
271: 0x0890 [0x1C] WAIT(120* ticks)
272: 0x0893 [0x1A] CALL_SUBROUTINE(address=0x3342)
273: 0x0896 [0x1C] WAIT(30* ticks)
274: 0x0899 [0x7A] VM_CONTROL: Reset VM for Unnamed NPC (ID: 16924804/0x01024084)
275: 0x089F [0x52] END_LOAD_SCHEDULER: End scheduler "s075" with entities [EventEntity, EventEntity], work=792*
276: 0x08AE [0x52] END_LOAD_SCHEDULER: End scheduler "s076" with entities [EventEntity, EventEntity], work=792*
277: 0x08BD [0x52] END_LOAD_SCHEDULER: End scheduler "s092" with entities [EventEntity, EventEntity], work=792*
278: 0x08CC [0xC5] LOAD_SCHEDULED_TASK_ALT3: Load scheduler 0x8001316C for entities [Unnamed NPC (ID: 16924804/0x01024084), Unnamed NPC (ID: 16924804/0x01024084)], work=213*, param=26987
279: 0x08DD [0xC5] LOAD_SCHEDULED_TASK_ALT3: Load scheduler 0x8001316C for entities [Iroha (ID: 16924801/0x01024081), Iroha (ID: 16924801/0x01024081)], work=213*, param=26987
280: 0x08EE [0xD0] LOAD_SCHEDULED_TASK_ALT5: Load scheduler "klky" with entities [Unnamed NPC (ID: 16924804/0x01024084), Unnamed NPC (ID: 16924804/0x01024084)], work=[102*, 0*]
281: 0x08FF [0x27] REQ_SET(priority=0x05, entity_id=Unnamed NPC (ID: 16924804/0x01024084), tag_num=0x07)
282: 0x0906 [0x4E] SET_ENTITY_HIDE_FLAG: Hide Unnamed NPC (ID: 16924804/0x01024084)
283: 0x090C [0x7B] Iroha (ID: 16924801/0x01024081) stops talking
284: 0x0911 [0x81] SET_ENTITY_BLINKING(blink_flag=0x00, entity=Iroha (ID: 16924801/0x01024081))
285: 0x0917 [0x5B] LOAD_EXT_SCHEDULER: Load scheduler "wapl" with entities [Iroha (ID: 16924801/0x01024081), Iroha (ID: 16924801/0x01024081)], work=3860*
286: 0x0926 [0x27] REQ_SET(priority=0x05, entity_id=Iroha (ID: 16924801/0x01024081), tag_num=0x06)
287: 0x092D [0x7C] Volto Oscuro (ID: 16924803/0x01024083)->Render.Flags2 |= 0x01
288: 0x0933 [0xD0] LOAD_SCHEDULED_TASK_ALT5: Load scheduler "s000" with entities [Volto Oscuro (ID: 16924803/0x01024083), Volto Oscuro (ID: 16924803/0x01024083)], work=[187*, 0*]
289: 0x0944 [0x48] [System] [7705*]:
     ""
290: 0x0947 [0x23] WAIT_FOR_DIALOG_INTERACTION
291: 0x0948 [0x1C] WAIT(120* ticks)
292: 0x094B [0x2B] Volto Oscuro (ID: 16924803/0x01024083) [7909*]:
     "That decision was the Reckoning."
293: 0x0952 [0x1C] WAIT(90* ticks)
294: 0x0955 [0x23] WAIT_FOR_DIALOG_INTERACTION
295: 0x0956 [0x45] LOAD_SCHEDULED_TASK: Load scheduler "s077" with entities [EventEntity, EventEntity], work=[792*, 0*]
296: 0x0967 [0x1A] CALL_SUBROUTINE(address=0x3321)
297: 0x096A [0x1C] WAIT(60* ticks)
298: 0x096D [0x2B] Volto Oscuro (ID: 16924803/0x01024083) [7910*]:
     "And you remained as a god of light, left to exist for countless aeons."
299: 0x0974 [0x1C] WAIT(120* ticks)
300: 0x0977 [0x23] WAIT_FOR_DIALOG_INTERACTION
301: 0x0978 [0x2B] Volto Oscuro (ID: 16924803/0x01024083) [7911*]:
     "And you realized that if you had been given such an infinite amount of time before the Reckoning, you would have reached a different conclusion."
302: 0x097F [0x1C] WAIT(120* ticks)
303: 0x0982 [0x23] WAIT_FOR_DIALOG_INTERACTION
304: 0x0983 [0x1A] CALL_SUBROUTINE(address=0x3384)
305: 0x0986 [0x1C] WAIT(30* ticks)
306: 0x0989 [0xD0] LOAD_SCHEDULED_TASK_ALT5: Load scheduler "klla" with entities [Volto Oscuro (ID: 16924803/0x01024083), Volto Oscuro (ID: 16924803/0x01024083)], work=[187*, 0*]
307: 0x099A [0x52] END_LOAD_SCHEDULER: End scheduler "s077" with entities [EventEntity, EventEntity], work=792*
308: 0x09A9 [0x1C] WAIT(30* ticks)
309: 0x09AC [0x45] LOAD_SCHEDULED_TASK: Load scheduler "s078" with entities [EventEntity, EventEntity], work=[792*, 0*]
310: 0x09BD [0x1A] CALL_SUBROUTINE(address=0x3363)
311: 0x09C0 [0x2B] Volto Oscuro (ID: 16924803/0x01024083) [7912*]:
     "So you and Altana stretched forth your hands into the weave of time. Ultimately, Iroha was sent back to the past..."
312: 0x09C7 [0xD0] LOAD_SCHEDULED_TASK_ALT5: Load scheduler "s000" with entities [Iroha (ID: 16924801/0x01024081), Iroha (ID: 16924801/0x01024081)], work=[100*, 0*]
313: 0x09D8 [0x1C] WAIT(200* ticks)
314: 0x09DB [0x5B] LOAD_EXT_SCHEDULER: Load scheduler "wap0" with entities [Iroha (ID: 16924801/0x01024081), Iroha (ID: 16924801/0x01024081)], work=3860*
315: 0x09EA [0x1C] WAIT(100* ticks)
316: 0x09ED [0x23] WAIT_FOR_DIALOG_INTERACTION
317: 0x09EE [0x1A] CALL_SUBROUTINE(address=0x3342)
318: 0x09F1 [0x1C] WAIT(30* ticks)
319: 0x09F4 [0x52] END_LOAD_SCHEDULER: End scheduler "s078" with entities [EventEntity, EventEntity], work=792*
320: 0x0A03 [0x6B] STOP_AND_IDLE: Iroha (ID: 16924801/0x01024081) stops current action and resets to idle (animation="idl0")
321: 0x0A0C [0x29] REQ_SET_WAIT(priority=0x05, entity_id=Iroha (ID: 16924801/0x01024081), tag_num=0x07)
322: 0x0A13 [0x4E] SET_ENTITY_HIDE_FLAG: Hide Iroha (ID: 16924801/0x01024081)
323: 0x0A19 [0x7B] Volto Oscuro (ID: 16924803/0x01024083) stops talking
324: 0x0A1E [0xBA] SET_ENTITY_POSITION(entity_id=Volto Oscuro (ID: 16924803/0x01024083), pos_x=-516.773*, pos_z=517.206*, pos_y=-1200.000*, direction=300.6*)
325: 0x0A2B [0x80] LOAD_WAIT(entity=Volto Oscuro (ID: 16924803/0x01024083))
326: 0x0A30 [0x1C] WAIT(30* ticks)
327: 0x0A33 [0x02] IF !(LocalPlayer->Race == 1*) GOTO 0x0A4D
328: 0x0A3B [0x66] LOAD_EXT_SCHEDULER_MAIN: Load scheduler "orz0" with entities [Volto Oscuro (ID: 16924803/0x01024083), Volto Oscuro (ID: 16924803/0x01024083)], work=140*
329: 0x0A4A [0x01] GOTO 0x0B03
330: 0x0A4D [0x02] IF !(LocalPlayer->Race == 2*) GOTO 0x0A67
331: 0x0A55 [0x66] LOAD_EXT_SCHEDULER_MAIN: Load scheduler "orz0" with entities [Volto Oscuro (ID: 16924803/0x01024083), Volto Oscuro (ID: 16924803/0x01024083)], work=150*
332: 0x0A64 [0x01] GOTO 0x0B03
333: 0x0A67 [0x02] IF !(LocalPlayer->Race == 3*) GOTO 0x0A81
334: 0x0A6F [0x66] LOAD_EXT_SCHEDULER_MAIN: Load scheduler "orz0" with entities [Volto Oscuro (ID: 16924803/0x01024083), Volto Oscuro (ID: 16924803/0x01024083)], work=160*
335: 0x0A7E [0x01] GOTO 0x0B03
336: 0x0A81 [0x02] IF !(LocalPlayer->Race == 4*) GOTO 0x0A9B
337: 0x0A89 [0x66] LOAD_EXT_SCHEDULER_MAIN: Load scheduler "orz0" with entities [Volto Oscuro (ID: 16924803/0x01024083), Volto Oscuro (ID: 16924803/0x01024083)], work=170*
338: 0x0A98 [0x01] GOTO 0x0B03
339: 0x0A9B [0x02] IF !(LocalPlayer->Race == 5*) GOTO 0x0AB5
340: 0x0AA3 [0x66] LOAD_EXT_SCHEDULER_MAIN: Load scheduler "orz0" with entities [Volto Oscuro (ID: 16924803/0x01024083), Volto Oscuro (ID: 16924803/0x01024083)], work=180*
341: 0x0AB2 [0x01] GOTO 0x0B03
342: 0x0AB5 [0x02] IF !(LocalPlayer->Race == 6*) GOTO 0x0ACF
343: 0x0ABD [0x66] LOAD_EXT_SCHEDULER_MAIN: Load scheduler "orz0" with entities [Volto Oscuro (ID: 16924803/0x01024083), Volto Oscuro (ID: 16924803/0x01024083)], work=180*
344: 0x0ACC [0x01] GOTO 0x0B03
345: 0x0ACF [0x02] IF !(LocalPlayer->Race == 7*) GOTO 0x0AE9
346: 0x0AD7 [0x66] LOAD_EXT_SCHEDULER_MAIN: Load scheduler "orz0" with entities [Volto Oscuro (ID: 16924803/0x01024083), Volto Oscuro (ID: 16924803/0x01024083)], work=190*
347: 0x0AE6 [0x01] GOTO 0x0B03
348: 0x0AE9 [0x02] IF !(LocalPlayer->Race == 8*) GOTO 0x0B03
349: 0x0AF1 [0x66] LOAD_EXT_SCHEDULER_MAIN: Load scheduler "orz0" with entities [Volto Oscuro (ID: 16924803/0x01024083), Volto Oscuro (ID: 16924803/0x01024083)], work=200*
350: 0x0B00 [0x01] GOTO 0x0B03

SUBROUTINE_0B03:
351: 0x0B03 [0xC5] LOAD_SCHEDULED_TASK_ALT3: Load scheduler 0x80013130 for entities [Volto Oscuro (ID: 16924803/0x01024083), Volto Oscuro (ID: 16924803/0x01024083)], work=213*, param=12403
352: 0x0B14 [0x1C] WAIT(30* ticks)
353: 0x0B17 [0x45] LOAD_SCHEDULED_TASK: Load scheduler "s079" with entities [EventEntity, EventEntity], work=[792*, 0*]
354: 0x0B28 [0x1A] CALL_SUBROUTINE(address=0x3321)
355: 0x0B2B [0x1C] WAIT(120* ticks)
356: 0x0B2E [0x2B] Volto Oscuro (ID: 16924803/0x01024083) [7913*]:
     "As was I, although by a different entity entirely."
357: 0x0B35 [0x1C] WAIT(90* ticks)
358: 0x0B38 [0x23] WAIT_FOR_DIALOG_INTERACTION
359: 0x0B39 [0x1A] CALL_SUBROUTINE(address=0x3342)
360: 0x0B3C [0x1C] WAIT(30* ticks)
361: 0x0B3F [0x52] END_LOAD_SCHEDULER: End scheduler "s079" with entities [EventEntity, EventEntity], work=792*
362: 0x0B4E [0xC5] LOAD_SCHEDULED_TASK_ALT3: Load scheduler 0x8001316C for entities [Volto Oscuro (ID: 16924803/0x01024083), Volto Oscuro (ID: 16924803/0x01024083)], work=213*, param=26987
363: 0x0B5F [0x6B] STOP_AND_IDLE: Volto Oscuro (ID: 16924803/0x01024083) stops current action and resets to idle (animation="idl0")
364: 0x0B68 [0x4E] SET_ENTITY_HIDE_FLAG: Show Iroha (ID: 16924801/0x01024081)
365: 0x0B6E [0xBA] SET_ENTITY_POSITION(entity_id=Volto Oscuro (ID: 16924803/0x01024083), pos_x=-516.773*, pos_z=517.206*, pos_y=-120.000*, direction=300.6*)
366: 0x0B7B [0x80] LOAD_WAIT(entity=Iroha (ID: 16924801/0x01024081))
367: 0x0B80 [0x80] LOAD_WAIT(entity=Volto Oscuro (ID: 16924803/0x01024083))
368: 0x0B85 [0x4A] Volto Oscuro (ID: 16924803/0x01024083) looks at LocalPlayer
369: 0x0B8E [0x4A] LocalPlayer looks at Volto Oscuro (ID: 16924803/0x01024083)
370: 0x0B97 [0xD0] LOAD_SCHEDULED_TASK_ALT5: Load scheduler "s000" with entities [Volto Oscuro (ID: 16924803/0x01024083), Volto Oscuro (ID: 16924803/0x01024083)], work=[187*, 0*]
371: 0x0BA8 [0x48] [System] [7705*]:
     ""
372: 0x0BAB [0x23] WAIT_FOR_DIALOG_INTERACTION
373: 0x0BAC [0x45] LOAD_SCHEDULED_TASK: Load scheduler "s080" with entities [EventEntity, EventEntity], work=[792*, 0*]
374: 0x0BBD [0x1A] CALL_SUBROUTINE(address=0x3321)
375: 0x0BC0 [0xCD] LOAD_SCHEDULED_TASK_ALT4: Load scheduler "s003" with entities [EventEntity, EventEntity], work=[7*, 0*]
376: 0x0BD1 [0x1C] WAIT(150* ticks)
377: 0x0BD4 [0x52] END_LOAD_SCHEDULER: End scheduler "s080" with entities [EventEntity, EventEntity], work=792*
378: 0x0BE3 [0x02] IF !(LocalPlayer->Race == 5*) GOTO 0x0BFF
379: 0x0BEB [0x45] LOAD_SCHEDULED_TASK: Load scheduler "s082" with entities [EventEntity, EventEntity], work=[792*, 0*]
380: 0x0BFC [0x01] GOTO 0x0C2C
381: 0x0BFF [0x02] IF !(LocalPlayer->Race == 6*) GOTO 0x0C1B
382: 0x0C07 [0x45] LOAD_SCHEDULED_TASK: Load scheduler "s082" with entities [EventEntity, EventEntity], work=[792*, 0*]
383: 0x0C18 [0x01] GOTO 0x0C2C
384: 0x0C1B [0x45] LOAD_SCHEDULED_TASK: Load scheduler "s081" with entities [EventEntity, EventEntity], work=[792*, 0*]

SUBROUTINE_0C2C:
385: 0x0C2C [0x79] Volto Oscuro (ID: 16924803/0x01024083) looks at Unknown NPC (ID: 2147582022/0x80018046) (Direct axis set)
386: 0x0C36 [0x2B] Volto Oscuro (ID: 16924803/0x01024083) [7914*]:
     "But reminiscing will get us nowhere."
387: 0x0C3D [0x1C] WAIT(90* ticks)
388: 0x0C40 [0x23] WAIT_FOR_DIALOG_INTERACTION
389: 0x0C41 [0x2B] Volto Oscuro (ID: 16924803/0x01024083) [7915*]:
     "Clouds are blowing in from all sides."
390: 0x0C48 [0x1C] WAIT(90* ticks)
391: 0x0C4B [0x23] WAIT_FOR_DIALOG_INTERACTION
392: 0x0C4C [0xCD] LOAD_SCHEDULED_TASK_ALT4: Load scheduler "st03" with entities [EventEntity, EventEntity], work=[7*, 0*]
393: 0x0C5D [0x52] END_LOAD_SCHEDULER: End scheduler "s081" with entities [EventEntity, EventEntity], work=792*
394: 0x0C6C [0x52] END_LOAD_SCHEDULER: End scheduler "s082" with entities [EventEntity, EventEntity], work=792*
395: 0x0C7B [0x45] LOAD_SCHEDULED_TASK: Load scheduler "s083" with entities [EventEntity, EventEntity], work=[792*, 0*]
396: 0x0C8C [0xBA] SET_ENTITY_POSITION(entity_id=Iroha (ID: 16924801/0x01024081), pos_x=-516.773*, pos_z=517.206*, pos_y=-1200.000*, direction=300.6*)
397: 0x0C99 [0x7B] Volto Oscuro (ID: 16924803/0x01024083) stops talking
398: 0x0C9E [0x79] LocalPlayer looks at Unknown NPC (ID: 2147582022/0x80018046) (Direct axis set)
399: 0x0CA8 [0x1C] WAIT(30* ticks)
400: 0x0CAB [0xBA] SET_ENTITY_POSITION(entity_id=Volto Oscuro (ID: 16924803/0x01024083), pos_x=-516.773*, pos_z=517.206*, pos_y=-121.000*, direction=116.3*)
401: 0x0CB8 [0x1A] CALL_SUBROUTINE(address=0x30F7)
402: 0x0CBB [0x1C] WAIT(150* ticks)
403: 0x0CBE [0x52] END_LOAD_SCHEDULER: End scheduler "s083" with entities [EventEntity, EventEntity], work=792*
404: 0x0CCD [0x45] LOAD_SCHEDULED_TASK: Load scheduler "s084" with entities [EventEntity, EventEntity], work=[792*, 0*]
405: 0x0CDE [0x2B] Volto Oscuro (ID: 16924803/0x01024083) [7916*]:
     "Altana and I await."
406: 0x0CE5 [0x1C] WAIT(30* ticks)
407: 0x0CE8 [0x79] LocalPlayer looks at Volto Oscuro (ID: 16924803/0x01024083) (Basic look)
408: 0x0CF2 [0x1C] WAIT(60* ticks)
409: 0x0CF5 [0x23] WAIT_FOR_DIALOG_INTERACTION
410: 0x0CF6 [0x2B] Volto Oscuro (ID: 16924803/0x01024083) [7917*]:
     "The only darkness left within you..."
411: 0x0CFD [0x1C] WAIT(90* ticks)
412: 0x0D00 [0x23] WAIT_FOR_DIALOG_INTERACTION
413: 0x0D01 [0x52] END_LOAD_SCHEDULER: End scheduler "s084" with entities [EventEntity, EventEntity], work=792*
414: 0x0D10 [0x02] IF !(LocalPlayer->Race == 1*) GOTO 0x0D46
415: 0x0D18 [0x45] LOAD_SCHEDULED_TASK: Load scheduler "s085" with entities [EventEntity, EventEntity], work=[792*, 0*]
416: 0x0D29 [0x2B] Volto Oscuro (ID: 16924803/0x01024083) [7918*]:
     "Is your very humanity."
417: 0x0D30 [0x1C] WAIT(90* ticks)
418: 0x0D33 [0x23] WAIT_FOR_DIALOG_INTERACTION
419: 0x0D34 [0x66] LOAD_EXT_SCHEDULER_MAIN: Load scheduler "fyu2" with entities [Volto Oscuro (ID: 16924803/0x01024083), Volto Oscuro (ID: 16924803/0x01024083)], work=213*
420: 0x0D43 [0x01] GOTO 0x0EC0
421: 0x0D46 [0x02] IF !(LocalPlayer->Race == 2*) GOTO 0x0D7C
422: 0x0D4E [0x45] LOAD_SCHEDULED_TASK: Load scheduler "s085" with entities [EventEntity, EventEntity], work=[792*, 0*]
423: 0x0D5F [0x2B] Volto Oscuro (ID: 16924803/0x01024083) [7918*]:
     "Is your very humanity."
424: 0x0D66 [0x1C] WAIT(90* ticks)
425: 0x0D69 [0x23] WAIT_FOR_DIALOG_INTERACTION
426: 0x0D6A [0x66] LOAD_EXT_SCHEDULER_MAIN: Load scheduler "fyu2" with entities [Volto Oscuro (ID: 16924803/0x01024083), Volto Oscuro (ID: 16924803/0x01024083)], work=223*
427: 0x0D79 [0x01] GOTO 0x0EC0
428: 0x0D7C [0x02] IF !(LocalPlayer->Race == 3*) GOTO 0x0DB2
429: 0x0D84 [0x45] LOAD_SCHEDULED_TASK: Load scheduler "s085" with entities [EventEntity, EventEntity], work=[792*, 0*]
430: 0x0D95 [0x2B] Volto Oscuro (ID: 16924803/0x01024083) [7918*]:
     "Is your very humanity."
431: 0x0D9C [0x1C] WAIT(90* ticks)
432: 0x0D9F [0x23] WAIT_FOR_DIALOG_INTERACTION
433: 0x0DA0 [0x66] LOAD_EXT_SCHEDULER_MAIN: Load scheduler "fyu2" with entities [Volto Oscuro (ID: 16924803/0x01024083), Volto Oscuro (ID: 16924803/0x01024083)], work=233*
434: 0x0DAF [0x01] GOTO 0x0EC0
435: 0x0DB2 [0x02] IF !(LocalPlayer->Race == 4*) GOTO 0x0DE8
436: 0x0DBA [0x45] LOAD_SCHEDULED_TASK: Load scheduler "s085" with entities [EventEntity, EventEntity], work=[792*, 0*]
437: 0x0DCB [0x2B] Volto Oscuro (ID: 16924803/0x01024083) [7918*]:
     "Is your very humanity."
438: 0x0DD2 [0x1C] WAIT(90* ticks)
439: 0x0DD5 [0x23] WAIT_FOR_DIALOG_INTERACTION
440: 0x0DD6 [0x66] LOAD_EXT_SCHEDULER_MAIN: Load scheduler "fyu2" with entities [Volto Oscuro (ID: 16924803/0x01024083), Volto Oscuro (ID: 16924803/0x01024083)], work=243*
441: 0x0DE5 [0x01] GOTO 0x0EC0
442: 0x0DE8 [0x02] IF !(LocalPlayer->Race == 5*) GOTO 0x0E1E
443: 0x0DF0 [0x45] LOAD_SCHEDULED_TASK: Load scheduler "s094" with entities [EventEntity, EventEntity], work=[792*, 0*]
444: 0x0E01 [0x2B] Volto Oscuro (ID: 16924803/0x01024083) [7918*]:
     "Is your very humanity."
445: 0x0E08 [0x1C] WAIT(90* ticks)
446: 0x0E0B [0x23] WAIT_FOR_DIALOG_INTERACTION
447: 0x0E0C [0x66] LOAD_EXT_SCHEDULER_MAIN: Load scheduler "fyu2" with entities [Volto Oscuro (ID: 16924803/0x01024083), Volto Oscuro (ID: 16924803/0x01024083)], work=253*
448: 0x0E1B [0x01] GOTO 0x0EC0
449: 0x0E1E [0x02] IF !(LocalPlayer->Race == 6*) GOTO 0x0E54
450: 0x0E26 [0x45] LOAD_SCHEDULED_TASK: Load scheduler "s094" with entities [EventEntity, EventEntity], work=[792*, 0*]
451: 0x0E37 [0x2B] Volto Oscuro (ID: 16924803/0x01024083) [7918*]:
     "Is your very humanity."
452: 0x0E3E [0x1C] WAIT(90* ticks)
453: 0x0E41 [0x23] WAIT_FOR_DIALOG_INTERACTION
454: 0x0E42 [0x66] LOAD_EXT_SCHEDULER_MAIN: Load scheduler "fyu2" with entities [Volto Oscuro (ID: 16924803/0x01024083), Volto Oscuro (ID: 16924803/0x01024083)], work=253*
455: 0x0E51 [0x01] GOTO 0x0EC0
456: 0x0E54 [0x02] IF !(LocalPlayer->Race == 7*) GOTO 0x0E8A
457: 0x0E5C [0x45] LOAD_SCHEDULED_TASK: Load scheduler "s085" with entities [EventEntity, EventEntity], work=[792*, 0*]
458: 0x0E6D [0x2B] Volto Oscuro (ID: 16924803/0x01024083) [7918*]:
     "Is your very humanity."
459: 0x0E74 [0x1C] WAIT(90* ticks)
460: 0x0E77 [0x23] WAIT_FOR_DIALOG_INTERACTION
461: 0x0E78 [0x66] LOAD_EXT_SCHEDULER_MAIN: Load scheduler "fyu2" with entities [Volto Oscuro (ID: 16924803/0x01024083), Volto Oscuro (ID: 16924803/0x01024083)], work=263*
462: 0x0E87 [0x01] GOTO 0x0EC0
463: 0x0E8A [0x02] IF !(LocalPlayer->Race == 8*) GOTO 0x0EC0
464: 0x0E92 [0x45] LOAD_SCHEDULED_TASK: Load scheduler "s093" with entities [EventEntity, EventEntity], work=[792*, 0*]
465: 0x0EA3 [0x2B] Volto Oscuro (ID: 16924803/0x01024083) [7918*]:
     "Is your very humanity."
466: 0x0EAA [0x1C] WAIT(90* ticks)
467: 0x0EAD [0x23] WAIT_FOR_DIALOG_INTERACTION
468: 0x0EAE [0x66] LOAD_EXT_SCHEDULER_MAIN: Load scheduler "fyu2" with entities [Volto Oscuro (ID: 16924803/0x01024083), Volto Oscuro (ID: 16924803/0x01024083)], work=273*
469: 0x0EBD [0x01] GOTO 0x0EC0

SUBROUTINE_0EC0:
470: 0x0EC0 [0x2B] Volto Oscuro (ID: 16924803/0x01024083) [7919*]:
     "Come to me..."
471: 0x0EC7 [0x1C] WAIT(50* ticks)
472: 0x0ECA [0xBA] SET_ENTITY_POSITION(entity_id=Iroha (ID: 16924801/0x01024081), pos_x=-521.967*, pos_z=510.299*, pos_y=-1200.000*, direction=114.3*)
473: 0x0ED7 [0x7B] LocalPlayer stops talking
474: 0x0EDC [0x1C] WAIT(100* ticks)
475: 0x0EDF [0x52] END_LOAD_SCHEDULER: End scheduler "s085" with entities [EventEntity, EventEntity], work=792*
476: 0x0EEE [0x52] END_LOAD_SCHEDULER: End scheduler "s093" with entities [EventEntity, EventEntity], work=792*

SUBROUTINE_0EFD:
477: 0x0EFD [0x45] LOAD_SCHEDULED_TASK: Load scheduler "s116" with entities [EventEntity, EventEntity], work=[792*, 0*]
478: 0x0F0E [0x1C] WAIT(60* ticks)
479: 0x0F11 [0x24] CREATE_DIALOG(message_id=7920*, default_option=1*, option_flags=0*)
     "What is your decision? [Commence the Reckoning./Stand idly by.]"
480: 0x0F18 [0x25] WAIT_DIALOG_SELECT()
481: 0x0F19 [0x02] IF !(Work_Zone[0] == 1*) GOTO 0x0F61
482: 0x0F21 [0x52] END_LOAD_SCHEDULER: End scheduler "s116" with entities [EventEntity, EventEntity], work=792*
483: 0x0F30 [0x45] LOAD_SCHEDULED_TASK: Load scheduler "s117" with entities [EventEntity, EventEntity], work=[792*, 0*]
484: 0x0F41 [0x2B] Volto Oscuro (ID: 16924803/0x01024083) [7921*]:
     "If you cannot reach a proper decision, then the world is fated to be snuffed out."
485: 0x0F48 [0x1C] WAIT(120* ticks)
486: 0x0F4B [0x23] WAIT_FOR_DIALOG_INTERACTION
487: 0x0F4C [0x52] END_LOAD_SCHEDULER: End scheduler "s117" with entities [EventEntity, EventEntity], work=792*
488: 0x0F5B [0x01] GOTO 0x0EFD

SUBROUTINE_0F61:
489: 0x0F61 [0x92] LocalPlayer->Render.Flags3 ^= 0x01
490: 0x0F67 [0x52] END_LOAD_SCHEDULER: End scheduler "s116" with entities [EventEntity, EventEntity], work=792*
491: 0x0F76 [0x45] LOAD_SCHEDULED_TASK: Load scheduler "ymi1" with entities [EventEntity, EventEntity], work=[792*, 0*]
492: 0x0F87 [0xD0] LOAD_SCHEDULED_TASK_ALT5: Load scheduler "s000" with entities [Volto Oscuro (ID: 16924803/0x01024083), LocalPlayer], work=[204*, 0*]
493: 0x0F98 [0x27] REQ_SET(priority=0x10, entity_id=LocalPlayer, tag_num=0x35)
494: 0x0F9F [0x1C] WAIT(240* ticks)
495: 0x0FA2 [0x52] END_LOAD_SCHEDULER: End scheduler "ymi1" with entities [EventEntity, EventEntity], work=792*
496: 0x0FB1 [0x45] LOAD_SCHEDULED_TASK: Load scheduler "s086" with entities [EventEntity, EventEntity], work=[792*, 0*]
497: 0x0FC2 [0x1C] WAIT(320* ticks)
498: 0x0FC5 [0x52] END_LOAD_SCHEDULER: End scheduler "s086" with entities [EventEntity, EventEntity], work=792*
499: 0x0FD4 [0x45] LOAD_SCHEDULED_TASK: Load scheduler "ymi3" with entities [EventEntity, EventEntity], work=[792*, 0*]
500: 0x0FE5 [0xD0] LOAD_SCHEDULED_TASK_ALT5: Load scheduler "stp0" with entities [Volto Oscuro (ID: 16924803/0x01024083), LocalPlayer], work=[204*, 0*]
501: 0x0FF6 [0x1C] WAIT(120* ticks)
502: 0x0FF9 [0x27] REQ_SET(priority=0x10, entity_id=LocalPlayer, tag_num=0x36)
503: 0x1000 [0xD5] LOAD_EVENT_SCHEDULER_ALT8: Load scheduler "sp" with entities [LocalPlayer, LocalPlayer], work=ExtData[1]->WorkLocal[1]
504: 0x1011 [0x1C] WAIT(5* ticks)
505: 0x1014 [0x52] END_LOAD_SCHEDULER: End scheduler "ymi3" with entities [EventEntity, EventEntity], work=792*
506: 0x1023 [0x45] LOAD_SCHEDULED_TASK: Load scheduler "s087" with entities [EventEntity, EventEntity], work=[792*, 0*]
507: 0x1034 [0x1C] WAIT(90* ticks)
508: 0x1037 [0x1A] CALL_SUBROUTINE(address=0x31C8)
509: 0x103A [0x1C] WAIT(30* ticks)
510: 0x103D [0x52] END_LOAD_SCHEDULER: End scheduler "s087" with entities [EventEntity, EventEntity], work=792*
511: 0x104C [0x45] LOAD_SCHEDULED_TASK: Load scheduler "s088" with entities [EventEntity, EventEntity], work=[792*, 0*]
512: 0x105D [0x1C] WAIT(120* ticks)
513: 0x1060 [0x1A] CALL_SUBROUTINE(address=0x3384)
514: 0x1063 [0x1C] WAIT(30* ticks)
515: 0x1066 [0xD5] LOAD_EVENT_SCHEDULER_ALT8: Load scheduler "kl" with entities [LocalPlayer, LocalPlayer], work=ExtData[1]->WorkLocal[1]
516: 0x1077 [0x52] END_LOAD_SCHEDULER: End scheduler "s088" with entities [EventEntity, EventEntity], work=792*
517: 0x1086 [0x59] UPDATE_ENTITY_DATA: LocalPlayer->Render.Flags0 |= 0x200000
518: 0x108D [0xBA] SET_ENTITY_POSITION(entity_id=LocalPlayer, pos_x=-521.432*, pos_z=510.183*, pos_y=-125.000*, direction=300.7*)
519: 0x109A [0xBA] SET_ENTITY_POSITION(entity_id=Volto Oscuro (ID: 16924803/0x01024083), pos_x=-516.773*, pos_z=517.206*, pos_y=-125.500*, direction=116.3*)
520: 0x10A7 [0x80] LOAD_WAIT(entity=Volto Oscuro (ID: 16924803/0x01024083))
521: 0x10AC [0x80] LOAD_WAIT(entity=LocalPlayer)
522: 0x10B1 [0x1C] WAIT(30* ticks)
523: 0x10B4 [0xD0] LOAD_SCHEDULED_TASK_ALT5: Load scheduler "s000" with entities [LocalPlayer, LocalPlayer], work=[251*, 0*]
524: 0x10C5 [0x1A] CALL_SUBROUTINE(address=0x30F7)
525: 0x10C8 [0x27] REQ_SET(priority=0x10, entity_id=LocalPlayer, tag_num=0x38)
526: 0x10CF [0x1C] WAIT(30* ticks)
527: 0x10D2 [0x45] LOAD_SCHEDULED_TASK: Load scheduler "s089" with entities [EventEntity, EventEntity], work=[792*, 0*]
528: 0x10E3 [0x1A] CALL_SUBROUTINE(address=0x3363)
529: 0x10E6 [0x1C] WAIT(150* ticks)
530: 0x10E9 [0x52] END_LOAD_SCHEDULER: End scheduler "s089" with entities [EventEntity, EventEntity], work=792*
531: 0x10F8 [0x45] LOAD_SCHEDULED_TASK: Load scheduler "s090" with entities [EventEntity, EventEntity], work=[792*, 0*]
532: 0x1109 [0x1C] WAIT(120* ticks)
533: 0x110C [0x52] END_LOAD_SCHEDULER: End scheduler "s090" with entities [EventEntity, EventEntity], work=792*
534: 0x111B [0x45] LOAD_SCHEDULED_TASK: Load scheduler "ymi4" with entities [EventEntity, EventEntity], work=[792*, 0*]
535: 0x112C [0x2B] Volto Oscuro (ID: 16924803/0x01024083) [7922*]:
     "And so, a new [god/goddess] of light is born."
536: 0x1133 [0x1C] WAIT(120* ticks)
537: 0x1136 [0x23] WAIT_FOR_DIALOG_INTERACTION
538: 0x1137 [0x52] END_LOAD_SCHEDULER: End scheduler "ymi4" with entities [EventEntity, EventEntity], work=792*
539: 0x1146 [0x45] LOAD_SCHEDULED_TASK: Load scheduler "s091" with entities [EventEntity, EventEntity], work=[792*, 0*]
540: 0x1157 [0xD0] LOAD_SCHEDULED_TASK_ALT5: Load scheduler "s001" with entities [Volto Oscuro (ID: 16924803/0x01024083), LocalPlayer], work=[204*, 0*]
541: 0x1168 [0x5C] MUSIC_CONTROL: Set music volume to song 0*, fade_time=240*
542: 0x116E [0x5C] MUSIC_CONTROL: Adjust music volume to song 0*, fade_time=480*
543: 0x1174 [0x1C] WAIT(300* ticks)
544: 0x1177 [0x1A] CALL_SUBROUTINE(address=0x3384)
545: 0x117A [0x1C] WAIT(30* ticks)
546: 0x117D [0x1A] CALL_SUBROUTINE(address=0x32BC)
547: 0x1180 [0x52] END_LOAD_SCHEDULER: End scheduler "s091" with entities [EventEntity, EventEntity], work=792*
548: 0x118F [0x1C] WAIT(1* ticks)
549: 0x1192 [0x34] LOAD_UNLOAD_ZONE(zone_id=734*)
550: 0x1195 [0x77] SET_EVENT_TIME_WEATHER(hour=255*, weather=2*)
551: 0x119A [0x1C] WAIT(1* ticks)
552: 0x119D [0xBA] SET_ENTITY_POSITION(entity_id=LocalPlayer, pos_x=260.094*, pos_z=105.861*, pos_y=-86.999*, direction=90.3*)
553: 0x11AA [0xBA] SET_ENTITY_POSITION(entity_id=Iroha (ID: 16924801/0x01024081), pos_x=260.094*, pos_z=105.861*, pos_y=-86.999*, direction=90.3*)
554: 0x11B7 [0xBA] SET_ENTITY_POSITION(entity_id=Volto Oscuro (ID: 16924803/0x01024083), pos_x=260.094*, pos_z=105.861*, pos_y=-86.999*, direction=90.3*)
555: 0x11C4 [0xAB] LocalPlayer->Render.Flags7 |= 0x0C // OR bits 2 and 3
