# 16924792

## Common Data

| Field            | Value                     |
|------------------|---------------------------|
| Zone             | Empyreal Paradox (ID: 36) |
| Block Size       | 14704 bytes               |
| Total Events     | 4                         |
| References Count | 198                       |

## List of Events

| Event ID              | Entrypoint   |   Size |   Instructions |
|-----------------------|--------------|--------|----------------|
| [65535](#event-65535) | 0x0000       |      1 |              1 |
| [2](#event-2)         | 0x0001       |   2113 |            214 |
| [6](#event-6)         | 0x0842       |   6914 |            709 |
| [3](#event-3)         | 0x2344       |   4852 |            537 |

## DAT References (imed_data)

|   Index | Hex Value   |   Dec Value |
|---------|-------------|-------------|
|       0 | 0x0001      |           1 |
|       1 | 0x0013      |          19 |
|       2 | 0x000F      |          15 |
|       3 | 0x00A0      |         160 |
|       4 | 0x0000      |           0 |
|       5 | 0x009C      |         156 |
|       6 | 0x009D      |         157 |
|       7 | 0x004C      |          76 |
|       8 | 0x00A1      |         161 |
|       9 | 0x02F7      |         759 |
|      10 | 0x030E      |         782 |
|      11 | 0x001D      |          29 |
|      12 | 0x02B6      |         694 |
|      13 | 0x001E      |          30 |
|      14 | 0x00B4      |         180 |
|      15 | 0x004B      |          75 |
|      16 | 0x02B7      |         695 |
|      17 | 0x1DCD      |        7629 |
|      18 | 0x1DCE      |        7630 |
|      19 | 0x012C      |         300 |
|      20 | 0x02B8      |         696 |
|      21 | 0x003C      |          60 |
|      22 | 0x1DCF      |        7631 |
|      23 | 0x1DD0      |        7632 |
|      24 | 0x00DB      |         219 |
|      25 | 0x0096      |         150 |
|      26 | 0x0080      |         128 |
|      27 | 0x00A5      |         165 |
|      28 | 0x030F      |         783 |
|      29 | 0x0078      |         120 |
|      30 | 0x002D      |          45 |
|      31 | 0x1DD1      |        7633 |
|      32 | 0x1DD2      |        7634 |
|      33 | 0x1DD3      |        7635 |
|      34 | 0x00DA      |         218 |
|      35 | 0x005A      |          90 |
|      36 | 0x0310      |         784 |
|      37 | 0x00E0      |         224 |
|      38 | 0x00C8      |         200 |
|      39 | 0x0089      |         137 |
|      40 | 0x02FA      |         762 |
|      41 | 0x007C      |         124 |
|      42 | 0x0028      |          40 |
|      43 | 0x001F      |          31 |
|      44 | 0x0150      |         336 |
|      45 | 0x1DE9      |        7657 |
|      46 | 0x0024      |          36 |
|      47 | 0x1DEA      |        7658 |
|      48 | 0x001B      |          27 |
|      49 | 0x0151      |         337 |
|      50 | 0x1DEB      |        7659 |
|      51 | 0x02BB      |         699 |
|      52 | 0x1DEC      |        7660 |
|      53 | 0x02DC      |         732 |
|      54 | 0x1DED      |        7661 |
|      55 | 0x0069      |         105 |
|      56 | 0x0303      |         771 |
|      57 | 0x02BC      |         700 |
|      58 | 0x1E31      |        7729 |
|      59 | 0x00A7      |         167 |
|      60 | 0x0093      |         147 |
|      61 | 0x02BD      |         701 |
|      62 | 0x1E32      |        7730 |
|      63 | 0x1E33      |        7731 |
|      64 | 0x1E34      |        7732 |
|      65 | 0x000A      |          10 |
|      66 | 0x1E35      |        7733 |
|      67 | 0x1DEE      |        7662 |
|      68 | 0x1DEF      |        7663 |
|      69 | 0x1DF0      |        7664 |
|      70 | 0x1DF1      |        7665 |
|      71 | 0x0098      |         152 |
|      72 | 0x0046      |          70 |
|      73 | 0x1DF3      |        7667 |
|      74 | 0x01B1      |         433 |
|      75 | 0x1DF2      |        7666 |
|      76 | 0x00D2      |         210 |
|      77 | 0x1E36      |        7734 |
|      78 | 0x0018      |          24 |
|      79 | 0x0304      |         772 |
|      80 | 0x0006      |           6 |
|      81 | 0x014A      |         330 |
|      82 | 0x1DF4      |        7668 |
|      83 | 0x1DF5      |        7669 |
|      84 | 0x02BE      |         702 |
|      85 | 0x008C      |         140 |
|      86 | 0x1E37      |        7735 |
|      87 | 0x0014      |          20 |
|      88 | 0x00A3      |         163 |
|      89 | 0x0087      |         135 |
|      90 | 0x00A6      |         166 |
|      91 | 0x1E38      |        7736 |
|      92 | 0x1E39      |        7737 |
|      93 | 0x0305      |         773 |
|      94 | 0x1E3A      |        7738 |
|      95 | 0x0005      |           5 |
|      96 | 0x02BF      |         703 |
|      97 | 0x0309      |         777 |
|      98 | 0xFFF81AC4  |  4294449860 |
|      99 | 0x8068F     |      525967 |
|     100 | 0xFFFE2B41  |  4294847297 |
|     101 | 0x0661      |        1633 |
|     102 | 0x01BC      |         444 |
|     103 | 0x0306      |         774 |
|     104 | 0x1E3B      |        7739 |
|     105 | 0x0384      |         900 |
|     106 | 0x007F      |         127 |
|     107 | 0x0002      |           2 |
|     108 | 0x0003      |           3 |
|     109 | 0x0004      |           4 |
|     110 | 0x0007      |           7 |
|     111 | 0x0008      |           8 |
|     112 | 0x024E      |         590 |
|     113 | 0x024F      |         591 |
|     114 | 0x0250      |         592 |
|     115 | 0x0251      |         593 |
|     116 | 0x0252      |         594 |
|     117 | 0x1DF6      |        7670 |
|     118 | 0x1DF7      |        7671 |
|     119 | 0x0017      |          23 |
|     120 | 0x0307      |         775 |
|     121 | 0x010E      |         270 |
|     122 | 0x03E8      |        1000 |
|     123 | 0x1E3C      |        7740 |
|     124 | 0x1E3D      |        7741 |
|     125 | 0x03E7      |         999 |
|     126 | 0x009E      |         158 |
|     127 | 0x00F0      |         240 |
|     128 | 0x00EE      |         238 |
|     129 | 0x00A2      |         162 |
|     130 | 0x1DF8      |        7672 |
|     131 | 0x1DF9      |        7673 |
|     132 | 0x0099      |         153 |
|     133 | 0x1DFA      |        7674 |
|     134 | 0x009F      |         159 |
|     135 | 0x030A      |         778 |
|     136 | 0x030B      |         779 |
|     137 | 0x1DFB      |        7675 |
|     138 | 0x1DFC      |        7676 |
|     139 | 0x1DFD      |        7677 |
|     140 | 0x1DFE      |        7678 |
|     141 | 0x0168      |         360 |
|     142 | 0xFFF82E33  |  4294454835 |
|     143 | 0x7C0BE     |      508094 |
|     144 | 0x0A41      |        2625 |
|     145 | 0x01A4      |         420 |
|     146 | 0x1DFF      |        7679 |
|     147 | 0x1E00      |        7680 |
|     148 | 0x00EA      |         234 |
|     149 | 0x01AB      |         427 |
|     150 | 0x1E01      |        7681 |
|     151 | 0x01DF      |         479 |
|     152 | 0x1E02      |        7682 |
|     153 | 0x1E03      |        7683 |
|     154 | 0x1E04      |        7684 |
|     155 | 0x01E2      |         482 |
|     156 | 0x1E05      |        7685 |
|     157 | 0x026D      |         621 |
|     158 | 0x1E06      |        7686 |
|     159 | 0x0009      |           9 |
|     160 | 0x1E07      |        7687 |
|     161 | 0x1E08      |        7688 |
|     162 | 0x027C      |         636 |
|     163 | 0x0273      |         627 |
|     164 | 0x0311      |         785 |
|     165 | 0x1E09      |        7689 |
|     166 | 0x1E0A      |        7690 |
|     167 | 0x1E0B      |        7691 |
|     168 | 0x1E0C      |        7692 |
|     169 | 0x01E1      |         481 |
|     170 | 0x1E0D      |        7693 |
|     171 | 0x1E19      |        7705 |
|     172 | 0x1E0E      |        7694 |
|     173 | 0x01B8      |         440 |
|     174 | 0x1E0F      |        7695 |
|     175 | 0x1E10      |        7696 |
|     176 | 0x01AE      |         430 |
|     177 | 0x1E11      |        7697 |
|     178 | 0x0152      |         338 |
|     179 | 0x0023      |          35 |
|     180 | 0x1E12      |        7698 |
|     181 | 0x0108      |         264 |
|     182 | 0x01A1      |         417 |
|     183 | 0x000B      |          11 |
|     184 | 0x01EC      |         492 |
|     185 | 0x027B      |         635 |
|     186 | 0x1E13      |        7699 |
|     187 | 0x1E14      |        7700 |
|     188 | 0x1E15      |        7701 |
|     189 | 0x1E16      |        7702 |
|     190 | 0x1E17      |        7703 |
|     191 | 0x1E18      |        7704 |
|     192 | 0xFFF80C72  |  4294446194 |
|     193 | 0x7DF62     |      515938 |
|     194 | 0xFFFE2B40  |  4294847296 |
|     195 | 0x0CD1      |        3281 |
|     196 | 0x00C9      |         201 |
|     197 | 0x00D7      |         215 |

## String References

- **7670**: The $3, $3, $3, $3, and $3 shine forth from <Player>!
- **7671**: The $3, $3, $3, and $3 shine forth from <Player>!
- **7698**: Is just beginning...!
- **7699**: In ages past, a sentient jewel, enormous and beautiful, banished the darkness. Its many-colored light filled the world with life and brought forth mighty gods.
- **7700**: However, the arrival of death implacable brought an end to the God of Twilight.
- **7701**: Aglow with the essence of love eternal, the Dawn Goddess sought to restore the lost divinity.
- **7702**: Upon the fallen deity, Altana bestowed the light of the true crystal.
- **7703**: In the bodies of mortals uncounted was the Twilight God reborn.
- **7704**: The true crystal shattered into five parts, its holy light extinguished. Paradise was no longer. Thus was born the world of Vana'diel.
- **7705**: 

## Events

### Event 65535

#### Metadata

| Field        | Value   |
|--------------|---------|
| Entrypoint   | 0x0000  |
| Data Size    | 1 bytes |
| Instructions | 1       |

```
      00 01 02 03 04 05 06 07  08 09 0A 0B 0C 0D 0E 0F
      -- -- -- -- -- -- -- --  -- -- -- -- -- -- -- --
0000: 00                                                .               
```

#### Opcodes

```
  0: 0x0000 [0x00] END_REQSTACK()
```

### Event 2

#### Metadata

| Field        | Value      |
|--------------|------------|
| Entrypoint   | 0x0001     |
| Data Size    | 2113 bytes |
| Instructions | 214        |

```
      00 01 02 03 04 05 06 07  08 09 0A 0B 0C 0D 0E 0F
      -- -- -- -- -- -- -- --  -- -- -- -- -- -- -- --
0000:    42 1A 4C 34 02 09 10  00 80 00 10 00 1A E9 33   B.L4..........3
0010: 46 01 38 01 80 79 00 F0  FF FF 7F F0 FF FF 7F 1A  F.8..y..........
0020: 60 07 1C 02 80 9F 03 80  F8 FF FF 7F F8 FF FF 7F  `...............
0030: 00 FE FE FE 04 80 9F 05  80 F8 FF FF 7F F8 FF FF  ................
0040: 7F 00 FE FE FE 04 80 9F  06 80 F8 FF FF 7F F8 FF  ................
0050: FF 7F 00 FE FE FE 04 80  9F 07 80 F8 FF FF 7F F8  ................
0060: FF FF 7F 00 FE FE FE 04  80 9F 08 80 F8 FF FF 7F  ................
0070: F8 FF FF 7F 00 FE FE FE  04 80 5B 09 80 63 40 02  ..........[..c@.
0080: 01 63 40 02 01 62 69 64  31 5B 0A 80 5A 40 02 01  .c@..bid1[..Z@..
0090: 5A 40 02 01 61 74 61 30  45 0B 80 F0 FF FF 7F F0  Z@..ata0E.......
00A0: FF FF 7F 6C 61 30 30 04  80 1A 2B 34 81 00 59 40  ...la00...+4..Y@
00B0: 02 01 5B 0C 80 59 40 02  01 59 40 02 01 6C 61 30  ..[..Y@..Y@..la0
00C0: 31 1C 0D 80 27 10 7A 40  02 01 02 45 0B 80 F0 FF  1...'.z@...E....
00D0: FF 7F F0 FF FF 7F 36 31  31 30 04 80 1C 0E 80 5B  ......6110.....[
00E0: 0C 80 59 40 02 01 59 40  02 01 6C 61 30 32 1C 0F  ..Y@..Y@..la02..
00F0: 80 52 0B 80 F0 FF FF 7F  F0 FF FF 7F 6C 61 30 30  .R..........la00
0100: 45 0B 80 F0 FF FF 7F F0  FF FF 7F 6C 61 30 31 04  E..........la01.
0110: 80 53 59 40 02 01 59 40  02 01 6C 61 30 32 52 0B  .SY@..Y@..la02R.
0120: 80 F0 FF FF 7F F0 FF FF  7F 6C 61 30 31 45 0B 80  .........la01E..
0130: F0 FF FF 7F F0 FF FF 7F  6C 61 30 32 04 80 45 0B  ........la02..E.
0140: 80 F0 FF FF 7F F0 FF FF  7F 36 31 31 31 04 80 7C  .........6111..|
0150: 00 59 40 02 01 5B 10 80  59 40 02 01 59 40 02 01  .Y@..[..Y@..Y@..
0160: 6C 61 30 33 9F 08 80 59  40 02 01 59 40 02 01 73  la03...Y@..Y@..s
0170: 74 72 30 04 80 1C 0F 80  52 0B 80 F0 FF FF 7F F0  tr0.....R.......
0180: FF FF 7F 6C 61 30 32 45  0B 80 F0 FF FF 7F F0 FF  ...la02E........
0190: FF 7F 6C 61 30 33 04 80  2B 59 40 02 01 11 80 23  ..la03..+Y@....#
01A0: 53 59 40 02 01 59 40 02  01 6C 61 30 33 52 0B 80  SY@..Y@..la03R..
01B0: F0 FF FF 7F F0 FF FF 7F  6C 61 30 33 45 0B 80 F0  ........la03E...
01C0: FF FF 7F F0 FF FF 7F 6C  61 61 34 04 80 7C 01 59  .......laa4..|.Y
01D0: 40 02 01 5B 10 80 59 40  02 01 59 40 02 01 6C 61  @..[..Y@..Y@..la
01E0: 30 34 2B 59 40 02 01 12  80 23 52 0B 80 F0 FF FF  04+Y@....#R.....
01F0: 7F F0 FF FF 7F 6C 61 61  34 45 0B 80 F0 FF FF 7F  .....laa4E......
0200: F0 FF FF 7F 6C 61 30 34  04 80 1C 13 80 1A 0A 34  ....la04.......4
0210: 1C 0D 80 52 0B 80 F0 FF  FF 7F F0 FF FF 7F 6C 61  ...R..........la
0220: 30 34 5B 14 80 59 40 02  01 59 40 02 01 6C 61 30  04[..Y@..Y@..la0
0230: 35 53 59 40 02 01 59 40  02 01 6C 61 30 35 45 0B  5SY@..Y@..la05E.
0240: 80 F0 FF FF 7F F0 FF FF  7F 6C 61 30 35 04 80 1C  .........la05...
0250: 02 80 1A E9 33 1C 15 80  2B 59 40 02 01 16 80 23  ....3...+Y@....#
0260: 52 0B 80 F0 FF FF 7F F0  FF FF 7F 6C 61 30 35 45  R..........la05E
0270: 0B 80 F0 FF FF 7F F0 FF  FF 7F 6C 61 30 36 04 80  ..........la06..
0280: 1C 0D 80 2B 59 40 02 01  17 80 23 52 0B 80 F0 FF  ...+Y@....#R....
0290: FF 7F F0 FF FF 7F 6C 61  30 36 45 0B 80 F0 FF FF  ......la06E.....
02A0: 7F F0 FF FF 7F 6C 61 61  36 04 80 1C 15 80 9F 03  .....laa6.......
02B0: 80 F8 FF FF 7F F8 FF FF  7F 73 74 72 30 04 80 5C  .........str0..\
02C0: 00 18 80 5C 01 18 80 1C  19 80 52 0B 80 F0 FF FF  ...\......R.....
02D0: 7F F0 FF FF 7F 6C 61 61  36 45 0B 80 F0 FF FF 7F  .....laa6E......
02E0: F0 FF FF 7F 6C 61 30 37  04 80 5B 14 80 59 40 02  ....la07..[..Y@.
02F0: 01 59 40 02 01 6C 61 30  36 6C 5A 40 02 01 1A 80  .Y@..la06lZ@....
0300: 00 80 6C 63 40 02 01 1A  80 00 80 1C 15 80 52 0B  ..lc@.........R.
0310: 80 F0 FF FF 7F F0 FF FF  7F 6C 61 30 37 45 0B 80  .........la07E..
0320: F0 FF FF 7F F0 FF FF 7F  6C 61 30 38 04 80 9F 03  ........la08....
0330: 80 F8 FF FF 7F F8 FF FF  7F 73 74 72 31 04 80 55  .........str1..U
0340: 0B 80 F0 FF FF 7F F0 FF  FF 7F 6C 61 30 38 45 0B  ..........la08E.
0350: 80 F0 FF FF 7F F0 FF FF  7F 6C 61 30 39 04 80 9F  .........la09...
0360: 05 80 5A 40 02 01 63 40  02 01 73 65 79 61 04 80  ..Z@..c@..seya..
0370: 1C 15 80 52 0B 80 F0 FF  FF 7F F0 FF FF 7F 6C 61  ...R..........la
0380: 30 39 45 0B 80 F0 FF FF  7F F0 FF FF 7F 6C 61 31  09E..........la1
0390: 30 04 80 55 0B 80 F0 FF  FF 7F F0 FF FF 7F 6C 61  0..U..........la
03A0: 31 30 45 0B 80 F0 FF FF  7F F0 FF FF 7F 6C 61 31  10E..........la1
03B0: 31 04 80 9F 05 80 5A 40  02 01 63 40 02 01 79 68  1.....Z@..c@..yh
03C0: 69 74 04 80 1C 15 80 9F  05 80 5A 40 02 01 63 40  it........Z@..c@
03D0: 02 01 70 68 69 74 04 80  6B 69 64 6C 30 5A 40 02  ..phit..kidl0Z@.
03E0: 01 55 0B 80 F0 FF FF 7F  F0 FF FF 7F 6C 61 31 31  .U..........la11
03F0: 45 0B 80 F0 FF FF 7F F0  FF FF 7F 6C 61 31 32 04  E..........la12.
0400: 80 1C 1B 80 5B 1C 80 5A  40 02 01 5A 40 02 01 61  ....[..Z@..Z@..a
0410: 74 62 30 1C 02 80 52 0B  80 F0 FF FF 7F F0 FF FF  tb0...R.........
0420: 7F 6C 61 31 32 45 0B 80  F0 FF FF 7F F0 FF FF 7F  .la12E..........
0430: 6C 61 31 33 04 80 9F 06  80 5A 40 02 01 5A 40 02  la13.....Z@..Z@.
0440: 01 6D 61 64 65 04 80 1C  0E 80 52 0B 80 F0 FF FF  .made.....R.....
0450: 7F F0 FF FF 7F 6C 61 31  33 45 0B 80 F0 FF FF 7F  .....la13E......
0460: F0 FF FF 7F 6C 61 31 34  04 80 9F 05 80 63 40 02  ....la14.....c@.
0470: 01 63 40 02 01 73 6D 6F  6B 04 80 5B 1C 80 5A 40  .c@..smok..[..Z@
0480: 02 01 5A 40 02 01 61 74  62 31 9F 06 80 5A 40 02  ..Z@..atb1...Z@.
0490: 01 63 40 02 01 6D 6B 69  6C 04 80 55 0B 80 F0 FF  .c@..mkil..U....
04A0: FF 7F F0 FF FF 7F 6C 61  31 34 45 0B 80 F0 FF FF  ......la14E.....
04B0: 7F F0 FF FF 7F 6C 61 31  35 04 80 5B 1C 80 5A 40  .....la15..[..Z@
04C0: 02 01 5A 40 02 01 61 74  62 32 9F 06 80 5A 40 02  ..Z@..atb2...Z@.
04D0: 01 63 40 02 01 6E 61 67  65 04 80 55 0B 80 F0 FF  .c@..nage..U....
04E0: FF 7F F0 FF FF 7F 6C 61  31 35 45 0B 80 F0 FF FF  ......la15E.....
04F0: 7F F0 FF FF 7F 6C 61 31  36 04 80 55 0B 80 F0 FF  .....la16..U....
0500: FF 7F F0 FF FF 7F 6C 61  31 36 45 0B 80 F0 FF FF  ......la16E.....
0510: 7F F0 FF FF 7F 6C 61 31  37 04 80 45 0B 80 F0 FF  .....la17..E....
0520: FF 7F F0 FF FF 7F 36 31  32 30 04 80 9F 05 80 63  ......6120.....c
0530: 40 02 01 63 40 02 01 6B  69 6C 6C 04 80 5B 09 80  @..c@..kill..[..
0540: 63 40 02 01 63 40 02 01  73 70 65 30 5B 1C 80 5A  c@..c@..spe0[..Z
0550: 40 02 01 5A 40 02 01 61  74 62 32 9F 06 80 5A 40  @..Z@..atb2...Z@
0560: 02 01 63 40 02 01 79 72  68 74 04 80 1C 1D 80 52  ..c@..yrht.....R
0570: 0B 80 F0 FF FF 7F F0 FF  FF 7F 6C 61 31 37 45 0B  ..........la17E.
0580: 80 F0 FF FF 7F F0 FF FF  7F 6C 61 31 38 04 80 29  .........la18..)
0590: 10 5A 40 02 01 10 55 0B  80 F0 FF FF 7F F0 FF FF  .Z@...U.........
05A0: 7F 6C 61 31 38 45 0B 80  F0 FF FF 7F F0 FF FF 7F  .la18E..........
05B0: 6C 61 31 39 04 80 27 10  7A 40 02 01 03 9F 07 80  la19..'.z@......
05C0: 60 40 02 01 60 40 02 01  6D 61 69 6E 04 80 2C 60  `@..`@..main..,`
05D0: 40 02 01 60 40 02 01 63  61 62 6B 1C 1E 80 2B 60  @..`@..cabk...+`
05E0: 40 02 01 1F 80 27 10 7A  40 02 01 04 9F 07 80 61  @....'.z@......a
05F0: 40 02 01 61 40 02 01 6D  61 69 6E 04 80 2C 61 40  @..a@..main..,a@
0600: 02 01 61 40 02 01 63 61  62 6B 1C 1E 80 2B 61 40  ..a@..cabk...+a@
0610: 02 01 20 80 27 10 7A 40  02 01 05 9F 07 80 62 40  .. .'.z@......b@
0620: 02 01 62 40 02 01 6D 61  69 6E 04 80 2C 62 40 02  ..b@..main..,b@.
0630: 01 62 40 02 01 63 61 62  6B 1C 1E 80 2B 62 40 02  .b@..cabk...+b@.
0640: 01 21 80 1C 02 80 2C 60  40 02 01 60 40 02 01 73  .!....,`@..`@..s
0650: 68 62 6B 2C 61 40 02 01  61 40 02 01 73 68 62 6B  hbk,a@..a@..shbk
0660: 2C 62 40 02 01 62 40 02  01 73 68 62 6B 73 22 80  ,b@..b@..shbks".
0670: 7C 40 02 01 5A 40 02 01  1C 23 80 52 0B 80 F0 FF  |@..Z@...#.R....
0680: FF 7F F0 FF FF 7F 6C 61  31 39 45 0B 80 F0 FF FF  ......la19E.....
0690: 7F F0 FF FF 7F 6C 61 32  30 04 80 45 0B 80 F0 FF  .....la20..E....
06A0: FF 7F F0 FF FF 7F 36 31  32 31 04 80 27 10 7B 40  ......6121..'.{@
06B0: 02 01 02 81 00 5A 40 02  01 5B 24 80 5A 40 02 01  .....Z@..[$.Z@..
06C0: 5A 40 02 01 62 33 30 30  1C 0F 80 5D 04 80 13 80  Z@..b300...]....
06D0: 52 0B 80 F0 FF FF 7F F0  FF FF 7F 6C 61 32 30 45  R..........la20E
06E0: 0B 80 F0 FF FF 7F F0 FF  FF 7F 6C 61 32 32 04 80  ..........la22..
06F0: 5B 24 80 5A 40 02 01 5A  40 02 01 62 33 30 31 1C  [$.Z@..Z@..b301.
0700: 19 80 1A 4C 34 1C 23 80  9F 06 80 5A 40 02 01 63  ...L4.#....Z@..c
0710: 40 02 01 68 6B 69 6C 04  80 52 0B 80 F0 FF FF 7F  @..hkil..R......
0720: F0 FF FF 7F 6C 61 32 32  1A 0A 34 1A 2B 34 1C 0D  ....la22..4.+4..
0730: 80 5C 00 04 80 5C 01 04  80 5C 02 25 80 5C 03 25  .\...\...\.%.\.%
0740: 80 9A 6C F0 FF FF 7F 1A  80 00 80 46 00 45 26 80  ..l........F.E&.
0750: F0 FF FF 7F F0 FF FF 7F  66 64 69 32 04 80 21 00  ........fdi2..!.
0760: 6C F0 FF FF 7F 04 80 00  80 29 10 7C 40 02 01 02  l........).|@...
0770: 29 10 59 40 02 01 02 29  10 5A 40 02 01 02 29 10  ).Y@...).Z@...).
0780: 60 40 02 01 02 29 10 61  40 02 01 02 29 10 62 40  `@...).a@...).b@
0790: 02 01 02 29 10 63 40 02  01 02 92 01 F0 FF FF 7F  ...).c@.........
07A0: 92 01 59 40 02 01 92 01  5A 40 02 01 92 01 60 40  ..Y@....Z@....`@
07B0: 02 01 92 01 61 40 02 01  92 01 62 40 02 01 92 01  ....a@....b@....
07C0: 63 40 02 01 94 01 F0 FF  FF 7F 94 01 7C 40 02 01  c@..........|@..
07D0: 94 01 59 40 02 01 94 01  5A 40 02 01 94 01 60 40  ..Y@....Z@....`@
07E0: 02 01 94 01 61 40 02 01  94 01 62 40 02 01 94 01  ....a@....b@....
07F0: 63 40 02 01 29 10 59 40  02 01 0D 29 10 5A 40 02  c@..).Y@...).Z@.
0800: 01 0D 29 10 60 40 02 01  0D 29 10 61 40 02 01 0D  ..).`@...).a@...
0810: 29 10 62 40 02 01 0D 29  10 63 40 02 01 0B 80 7C  ).b@...).c@....|
0820: 40 02 01 80 59 40 02 01  80 5A 40 02 01 80 60 40  @...Y@...Z@...`@
0830: 02 01 80 61 40 02 01 80  62 40 02 01 80 63 40 02  ...a@...b@...c@.
0840: 01 1B                                             ..              
```

#### Opcodes

```
  0: 0x0001 [0x42] SET_CLI_EVENT_CANCEL_DATA()
  1: 0x0002 [0x1A] CALL_SUBROUTINE(address=0x344C)
  2: 0x0005 [0x02] IF !(Work_Zone[9] == 1*) GOTO 0x0010
  3: 0x000D [0x1A] CALL_SUBROUTINE(address=0x33E9)
  4: 0x0010 [0x46] CAMERA_CONTROL: Disable user control
  5: 0x0012 [0x38] SET_CLIENT_EVENT_MODE(mode=19*)
  6: 0x0015 [0x79] LocalPlayer looks at LocalPlayer (Basic look)
  7: 0x001F [0x1A] CALL_SUBROUTINE(address=0x0760)
  8: 0x0022 [0x1C] WAIT(15* ticks)
  9: 0x0025 [0x9F] LOAD_SCHEDULED_TASK_ALT: Load scheduler 0xFEFEFE00 with entities [EventEntity, EventEntity], work=[160*, 0*]
 10: 0x0036 [0x9F] LOAD_SCHEDULED_TASK_ALT: Load scheduler 0xFEFEFE00 with entities [EventEntity, EventEntity], work=[156*, 0*]
 11: 0x0047 [0x9F] LOAD_SCHEDULED_TASK_ALT: Load scheduler 0xFEFEFE00 with entities [EventEntity, EventEntity], work=[157*, 0*]
 12: 0x0058 [0x9F] LOAD_SCHEDULED_TASK_ALT: Load scheduler 0xFEFEFE00 with entities [EventEntity, EventEntity], work=[76*, 0*]
 13: 0x0069 [0x9F] LOAD_SCHEDULED_TASK_ALT: Load scheduler 0xFEFEFE00 with entities [EventEntity, EventEntity], work=[161*, 0*]
 14: 0x007A [0x5B] LOAD_EXT_SCHEDULER: Load scheduler "bid1" with entities [Promathia (ID: 16924771/0x01024063), Promathia (ID: 16924771/0x01024063)], work=759*
 15: 0x0089 [0x5B] LOAD_EXT_SCHEDULER: Load scheduler "ata0" with entities [Selh'teus (ID: 16924762/0x0102405A), Selh'teus (ID: 16924762/0x0102405A)], work=782*
 16: 0x0098 [0x45] LOAD_SCHEDULED_TASK: Load scheduler "la00" with entities [LocalPlayer, LocalPlayer], work=[29*, 0*]
 17: 0x00A9 [0x1A] CALL_SUBROUTINE(address=0x342B)
 18: 0x00AC [0x81] SET_ENTITY_BLINKING(blink_flag=0x00, entity=Prishe (ID: 16924761/0x01024059))
 19: 0x00B2 [0x5B] LOAD_EXT_SCHEDULER: Load scheduler "la01" with entities [Prishe (ID: 16924761/0x01024059), Prishe (ID: 16924761/0x01024059)], work=694*
 20: 0x00C1 [0x1C] WAIT(30* ticks)
 21: 0x00C4 [0x27] REQ_SET(priority=0x10, entity_id=Altana (ID: 16924794/0x0102407A), tag_num=0x02)
 22: 0x00CB [0x45] LOAD_SCHEDULED_TASK: Load scheduler "6110" with entities [LocalPlayer, LocalPlayer], work=[29*, 0*]
 23: 0x00DC [0x1C] WAIT(180* ticks)
 24: 0x00DF [0x5B] LOAD_EXT_SCHEDULER: Load scheduler "la02" with entities [Prishe (ID: 16924761/0x01024059), Prishe (ID: 16924761/0x01024059)], work=694*
 25: 0x00EE [0x1C] WAIT(75* ticks)
 26: 0x00F1 [0x52] END_LOAD_SCHEDULER: End scheduler "la00" with entities [LocalPlayer, LocalPlayer], work=29*
 27: 0x0100 [0x45] LOAD_SCHEDULED_TASK: Load scheduler "la01" with entities [LocalPlayer, LocalPlayer], work=[29*, 0*]
 28: 0x0111 [0x53] WAIT_SCHEDULER_TASK: Wait for scheduler "la02" with entities [Prishe (ID: 16924761/0x01024059), Prishe (ID: 16924761/0x01024059)]
 29: 0x011E [0x52] END_LOAD_SCHEDULER: End scheduler "la01" with entities [LocalPlayer, LocalPlayer], work=29*
 30: 0x012D [0x45] LOAD_SCHEDULED_TASK: Load scheduler "la02" with entities [LocalPlayer, LocalPlayer], work=[29*, 0*]
 31: 0x013E [0x45] LOAD_SCHEDULED_TASK: Load scheduler "6111" with entities [LocalPlayer, LocalPlayer], work=[29*, 0*]
 32: 0x014F [0x7C] Prishe (ID: 16924761/0x01024059)->Render.Flags2 |= 0x00
 33: 0x0155 [0x5B] LOAD_EXT_SCHEDULER: Load scheduler "la03" with entities [Prishe (ID: 16924761/0x01024059), Prishe (ID: 16924761/0x01024059)], work=695*
 34: 0x0164 [0x9F] LOAD_SCHEDULED_TASK_ALT: Load scheduler "str0" with entities [Prishe (ID: 16924761/0x01024059), Prishe (ID: 16924761/0x01024059)], work=[161*, 0*]
 35: 0x0175 [0x1C] WAIT(75* ticks)
 36: 0x0178 [0x52] END_LOAD_SCHEDULER: End scheduler "la02" with entities [LocalPlayer, LocalPlayer], work=29*
 37: 0x0187 [0x45] LOAD_SCHEDULED_TASK: Load scheduler "la03" with entities [LocalPlayer, LocalPlayer], work=[29*, 0*]
 38: 0x0198 [0x2B] Prishe (ID: 16924761/0x01024059) [7629*]:
    → "Whoa!?"
 39: 0x019F [0x23] WAIT_FOR_DIALOG_INTERACTION
 40: 0x01A0 [0x53] WAIT_SCHEDULER_TASK: Wait for scheduler "la03" with entities [Prishe (ID: 16924761/0x01024059), Prishe (ID: 16924761/0x01024059)]
 41: 0x01AD [0x52] END_LOAD_SCHEDULER: End scheduler "la03" with entities [LocalPlayer, LocalPlayer], work=29*
 42: 0x01BC [0x45] LOAD_SCHEDULED_TASK: Load scheduler "laa4" with entities [LocalPlayer, LocalPlayer], work=[29*, 0*]
 43: 0x01CD [0x7C] Prishe (ID: 16924761/0x01024059)->Render.Flags2 |= 0x01
 44: 0x01D3 [0x5B] LOAD_EXT_SCHEDULER: Load scheduler "la04" with entities [Prishe (ID: 16924761/0x01024059), Prishe (ID: 16924761/0x01024059)], work=695*
 45: 0x01E2 [0x2B] Prishe (ID: 16924761/0x01024059) [7630*]:
    → "Where the hell are we!?"
 46: 0x01E9 [0x23] WAIT_FOR_DIALOG_INTERACTION
 47: 0x01EA [0x52] END_LOAD_SCHEDULER: End scheduler "laa4" with entities [LocalPlayer, LocalPlayer], work=29*
 48: 0x01F9 [0x45] LOAD_SCHEDULED_TASK: Load scheduler "la04" with entities [LocalPlayer, LocalPlayer], work=[29*, 0*]
 49: 0x020A [0x1C] WAIT(300* ticks)
 50: 0x020D [0x1A] CALL_SUBROUTINE(address=0x340A)
 51: 0x0210 [0x1C] WAIT(30* ticks)
 52: 0x0213 [0x52] END_LOAD_SCHEDULER: End scheduler "la04" with entities [LocalPlayer, LocalPlayer], work=29*
 53: 0x0222 [0x5B] LOAD_EXT_SCHEDULER: Load scheduler "la05" with entities [Prishe (ID: 16924761/0x01024059), Prishe (ID: 16924761/0x01024059)], work=696*
 54: 0x0231 [0x53] WAIT_SCHEDULER_TASK: Wait for scheduler "la05" with entities [Prishe (ID: 16924761/0x01024059), Prishe (ID: 16924761/0x01024059)]
 55: 0x023E [0x45] LOAD_SCHEDULED_TASK: Load scheduler "la05" with entities [LocalPlayer, LocalPlayer], work=[29*, 0*]
 56: 0x024F [0x1C] WAIT(15* ticks)
 57: 0x0252 [0x1A] CALL_SUBROUTINE(address=0x33E9)
 58: 0x0255 [0x1C] WAIT(60* ticks)
 59: 0x0258 [0x2B] Prishe (ID: 16924761/0x01024059) [7631*]:
    → "Is that...Qufim?"
 60: 0x025F [0x23] WAIT_FOR_DIALOG_INTERACTION
 61: 0x0260 [0x52] END_LOAD_SCHEDULER: End scheduler "la05" with entities [LocalPlayer, LocalPlayer], work=29*
 62: 0x026F [0x45] LOAD_SCHEDULED_TASK: Load scheduler "la06" with entities [LocalPlayer, LocalPlayer], work=[29*, 0*]
 63: 0x0280 [0x1C] WAIT(30* ticks)
 64: 0x0283 [0x2B] Prishe (ID: 16924761/0x01024059) [7632*]:
    → "Vana'diel is right there below us...!"
 65: 0x028A [0x23] WAIT_FOR_DIALOG_INTERACTION
 66: 0x028B [0x52] END_LOAD_SCHEDULER: End scheduler "la06" with entities [LocalPlayer, LocalPlayer], work=29*
 67: 0x029A [0x45] LOAD_SCHEDULED_TASK: Load scheduler "laa6" with entities [LocalPlayer, LocalPlayer], work=[29*, 0*]
 68: 0x02AB [0x1C] WAIT(60* ticks)
 69: 0x02AE [0x9F] LOAD_SCHEDULED_TASK_ALT: Load scheduler "str0" with entities [EventEntity, EventEntity], work=[160*, 0*]
 70: 0x02BF [0x5C] MUSIC_CONTROL: Set Idle (Day) music to song 219*
 71: 0x02C3 [0x5C] MUSIC_CONTROL: Set Idle (Night) music to song 219*
 72: 0x02C7 [0x1C] WAIT(150* ticks)
 73: 0x02CA [0x52] END_LOAD_SCHEDULER: End scheduler "laa6" with entities [LocalPlayer, LocalPlayer], work=29*
 74: 0x02D9 [0x45] LOAD_SCHEDULED_TASK: Load scheduler "la07" with entities [LocalPlayer, LocalPlayer], work=[29*, 0*]
 75: 0x02EA [0x5B] LOAD_EXT_SCHEDULER: Load scheduler "la06" with entities [Prishe (ID: 16924761/0x01024059), Prishe (ID: 16924761/0x01024059)], work=696*
 76: 0x02F9 [0x6C] FADE_ENTITY_COLOR(entity_id=Selh'teus (ID: 16924762/0x0102405A), end_alpha=128*, fade_time=1*)
 77: 0x0302 [0x6C] FADE_ENTITY_COLOR(entity_id=Promathia (ID: 16924771/0x01024063), end_alpha=128*, fade_time=1*)
 78: 0x030B [0x1C] WAIT(60* ticks)
 79: 0x030E [0x52] END_LOAD_SCHEDULER: End scheduler "la07" with entities [LocalPlayer, LocalPlayer], work=29*
 80: 0x031D [0x45] LOAD_SCHEDULED_TASK: Load scheduler "la08" with entities [LocalPlayer, LocalPlayer], work=[29*, 0*]
 81: 0x032E [0x9F] LOAD_SCHEDULED_TASK_ALT: Load scheduler "str1" with entities [EventEntity, EventEntity], work=[160*, 0*]
 82: 0x033F [0x55] WAIT_LOAD_SCHEDULER: Wait for scheduler "la08" with entities [LocalPlayer, LocalPlayer], work=29*
 83: 0x034E [0x45] LOAD_SCHEDULED_TASK: Load scheduler "la09" with entities [LocalPlayer, LocalPlayer], work=[29*, 0*]
 84: 0x035F [0x9F] LOAD_SCHEDULED_TASK_ALT: Load scheduler "seya" with entities [Selh'teus (ID: 16924762/0x0102405A), Promathia (ID: 16924771/0x01024063)], work=[156*, 0*]
 85: 0x0370 [0x1C] WAIT(60* ticks)
 86: 0x0373 [0x52] END_LOAD_SCHEDULER: End scheduler "la09" with entities [LocalPlayer, LocalPlayer], work=29*
 87: 0x0382 [0x45] LOAD_SCHEDULED_TASK: Load scheduler "la10" with entities [LocalPlayer, LocalPlayer], work=[29*, 0*]
 88: 0x0393 [0x55] WAIT_LOAD_SCHEDULER: Wait for scheduler "la10" with entities [LocalPlayer, LocalPlayer], work=29*
 89: 0x03A2 [0x45] LOAD_SCHEDULED_TASK: Load scheduler "la11" with entities [LocalPlayer, LocalPlayer], work=[29*, 0*]
 90: 0x03B3 [0x9F] LOAD_SCHEDULED_TASK_ALT: Load scheduler "yhit" with entities [Selh'teus (ID: 16924762/0x0102405A), Promathia (ID: 16924771/0x01024063)], work=[156*, 0*]
 91: 0x03C4 [0x1C] WAIT(60* ticks)
 92: 0x03C7 [0x9F] LOAD_SCHEDULED_TASK_ALT: Load scheduler "phit" with entities [Selh'teus (ID: 16924762/0x0102405A), Promathia (ID: 16924771/0x01024063)], work=[156*, 0*]
 93: 0x03D8 [0x6B] STOP_AND_IDLE: Selh'teus (ID: 16924762/0x0102405A) stops current action and resets to idle (animation="idl0")
 94: 0x03E1 [0x55] WAIT_LOAD_SCHEDULER: Wait for scheduler "la11" with entities [LocalPlayer, LocalPlayer], work=29*
 95: 0x03F0 [0x45] LOAD_SCHEDULED_TASK: Load scheduler "la12" with entities [LocalPlayer, LocalPlayer], work=[29*, 0*]
 96: 0x0401 [0x1C] WAIT(165* ticks)
 97: 0x0404 [0x5B] LOAD_EXT_SCHEDULER: Load scheduler "atb0" with entities [Selh'teus (ID: 16924762/0x0102405A), Selh'teus (ID: 16924762/0x0102405A)], work=783*
 98: 0x0413 [0x1C] WAIT(15* ticks)
 99: 0x0416 [0x52] END_LOAD_SCHEDULER: End scheduler "la12" with entities [LocalPlayer, LocalPlayer], work=29*
100: 0x0425 [0x45] LOAD_SCHEDULED_TASK: Load scheduler "la13" with entities [LocalPlayer, LocalPlayer], work=[29*, 0*]
101: 0x0436 [0x9F] LOAD_SCHEDULED_TASK_ALT: Load scheduler "made" with entities [Selh'teus (ID: 16924762/0x0102405A), Selh'teus (ID: 16924762/0x0102405A)], work=[157*, 0*]
102: 0x0447 [0x1C] WAIT(180* ticks)
103: 0x044A [0x52] END_LOAD_SCHEDULER: End scheduler "la13" with entities [LocalPlayer, LocalPlayer], work=29*
104: 0x0459 [0x45] LOAD_SCHEDULED_TASK: Load scheduler "la14" with entities [LocalPlayer, LocalPlayer], work=[29*, 0*]
105: 0x046A [0x9F] LOAD_SCHEDULED_TASK_ALT: Load scheduler "smok" with entities [Promathia (ID: 16924771/0x01024063), Promathia (ID: 16924771/0x01024063)], work=[156*, 0*]
106: 0x047B [0x5B] LOAD_EXT_SCHEDULER: Load scheduler "atb1" with entities [Selh'teus (ID: 16924762/0x0102405A), Selh'teus (ID: 16924762/0x0102405A)], work=783*
107: 0x048A [0x9F] LOAD_SCHEDULED_TASK_ALT: Load scheduler "mkil" with entities [Selh'teus (ID: 16924762/0x0102405A), Promathia (ID: 16924771/0x01024063)], work=[157*, 0*]
108: 0x049B [0x55] WAIT_LOAD_SCHEDULER: Wait for scheduler "la14" with entities [LocalPlayer, LocalPlayer], work=29*
109: 0x04AA [0x45] LOAD_SCHEDULED_TASK: Load scheduler "la15" with entities [LocalPlayer, LocalPlayer], work=[29*, 0*]
110: 0x04BB [0x5B] LOAD_EXT_SCHEDULER: Load scheduler "atb2" with entities [Selh'teus (ID: 16924762/0x0102405A), Selh'teus (ID: 16924762/0x0102405A)], work=783*
111: 0x04CA [0x9F] LOAD_SCHEDULED_TASK_ALT: Load scheduler "nage" with entities [Selh'teus (ID: 16924762/0x0102405A), Promathia (ID: 16924771/0x01024063)], work=[157*, 0*]
112: 0x04DB [0x55] WAIT_LOAD_SCHEDULER: Wait for scheduler "la15" with entities [LocalPlayer, LocalPlayer], work=29*
113: 0x04EA [0x45] LOAD_SCHEDULED_TASK: Load scheduler "la16" with entities [LocalPlayer, LocalPlayer], work=[29*, 0*]
114: 0x04FB [0x55] WAIT_LOAD_SCHEDULER: Wait for scheduler "la16" with entities [LocalPlayer, LocalPlayer], work=29*
115: 0x050A [0x45] LOAD_SCHEDULED_TASK: Load scheduler "la17" with entities [LocalPlayer, LocalPlayer], work=[29*, 0*]
116: 0x051B [0x45] LOAD_SCHEDULED_TASK: Load scheduler "6120" with entities [LocalPlayer, LocalPlayer], work=[29*, 0*]
117: 0x052C [0x9F] LOAD_SCHEDULED_TASK_ALT: Load scheduler "kill" with entities [Promathia (ID: 16924771/0x01024063), Promathia (ID: 16924771/0x01024063)], work=[156*, 0*]
118: 0x053D [0x5B] LOAD_EXT_SCHEDULER: Load scheduler "spe0" with entities [Promathia (ID: 16924771/0x01024063), Promathia (ID: 16924771/0x01024063)], work=759*
119: 0x054C [0x5B] LOAD_EXT_SCHEDULER: Load scheduler "atb2" with entities [Selh'teus (ID: 16924762/0x0102405A), Selh'teus (ID: 16924762/0x0102405A)], work=783*
120: 0x055B [0x9F] LOAD_SCHEDULED_TASK_ALT: Load scheduler "yrht" with entities [Selh'teus (ID: 16924762/0x0102405A), Promathia (ID: 16924771/0x01024063)], work=[157*, 0*]
121: 0x056C [0x1C] WAIT(120* ticks)
122: 0x056F [0x52] END_LOAD_SCHEDULER: End scheduler "la17" with entities [LocalPlayer, LocalPlayer], work=29*
123: 0x057E [0x45] LOAD_SCHEDULED_TASK: Load scheduler "la18" with entities [LocalPlayer, LocalPlayer], work=[29*, 0*]
124: 0x058F [0x29] REQ_SET_WAIT(priority=0x10, entity_id=Selh'teus (ID: 16924762/0x0102405A), tag_num=0x10)
125: 0x0596 [0x55] WAIT_LOAD_SCHEDULER: Wait for scheduler "la18" with entities [LocalPlayer, LocalPlayer], work=29*
126: 0x05A5 [0x45] LOAD_SCHEDULED_TASK: Load scheduler "la19" with entities [LocalPlayer, LocalPlayer], work=[29*, 0*]
127: 0x05B6 [0x27] REQ_SET(priority=0x10, entity_id=Altana (ID: 16924794/0x0102407A), tag_num=0x03)
128: 0x05BD [0x9F] LOAD_SCHEDULED_TASK_ALT: Load scheduler "main" with entities [Makki-Chebukki (ID: 16924768/0x01024060), Makki-Chebukki (ID: 16924768/0x01024060)], work=[76*, 0*]
129: 0x05CE [0x2C] CREATE_SCHEDULER_TASK: Create scheduler "cabk" with entities [Makki-Chebukki (ID: 16924768/0x01024060), Makki-Chebukki (ID: 16924768/0x01024060)]
130: 0x05DB [0x1C] WAIT(45* ticks)
131: 0x05DE [0x2B] Makki-Chebukki (ID: 16924768/0x01024060) [7633*]:
    → "Meee!"
132: 0x05E5 [0x27] REQ_SET(priority=0x10, entity_id=Altana (ID: 16924794/0x0102407A), tag_num=0x04)
133: 0x05EC [0x9F] LOAD_SCHEDULED_TASK_ALT: Load scheduler "main" with entities [Kukki-Chebukki (ID: 16924769/0x01024061), Kukki-Chebukki (ID: 16924769/0x01024061)], work=[76*, 0*]
134: 0x05FD [0x2C] CREATE_SCHEDULER_TASK: Create scheduler "cabk" with entities [Kukki-Chebukki (ID: 16924769/0x01024061), Kukki-Chebukki (ID: 16924769/0x01024061)]
135: 0x060A [0x1C] WAIT(45* ticks)
136: 0x060D [0x2B] Kukki-Chebukki (ID: 16924769/0x01024061) [7634*]:
    → "Teee!"
137: 0x0614 [0x27] REQ_SET(priority=0x10, entity_id=Altana (ID: 16924794/0x0102407A), tag_num=0x05)
138: 0x061B [0x9F] LOAD_SCHEDULED_TASK_ALT: Load scheduler "main" with entities [Cherukiki (ID: 16924770/0x01024062), Cherukiki (ID: 16924770/0x01024062)], work=[76*, 0*]
139: 0x062C [0x2C] CREATE_SCHEDULER_TASK: Create scheduler "cabk" with entities [Cherukiki (ID: 16924770/0x01024062), Cherukiki (ID: 16924770/0x01024062)]
140: 0x0639 [0x1C] WAIT(45* ticks)
141: 0x063C [0x2B] Cherukiki (ID: 16924770/0x01024062) [7635*]:
    → "Ooor!"
142: 0x0643 [0x1C] WAIT(15* ticks)
143: 0x0646 [0x2C] CREATE_SCHEDULER_TASK: Create scheduler "shbk" with entities [Makki-Chebukki (ID: 16924768/0x01024060), Makki-Chebukki (ID: 16924768/0x01024060)]
144: 0x0653 [0x2C] CREATE_SCHEDULER_TASK: Create scheduler "shbk" with entities [Kukki-Chebukki (ID: 16924769/0x01024061), Kukki-Chebukki (ID: 16924769/0x01024061)]
145: 0x0660 [0x2C] CREATE_SCHEDULER_TASK: Create scheduler "shbk" with entities [Cherukiki (ID: 16924770/0x01024062), Cherukiki (ID: 16924770/0x01024062)]
146: 0x066D [0x73] Unnamed NPC (ID: 16924796/0x0102407C) casts magic 218* on Selh'teus (ID: 16924762/0x0102405A)
147: 0x0678 [0x1C] WAIT(90* ticks)
148: 0x067B [0x52] END_LOAD_SCHEDULER: End scheduler "la19" with entities [LocalPlayer, LocalPlayer], work=29*
149: 0x068A [0x45] LOAD_SCHEDULED_TASK: Load scheduler "la20" with entities [LocalPlayer, LocalPlayer], work=[29*, 0*]
150: 0x069B [0x45] LOAD_SCHEDULED_TASK: Load scheduler "6121" with entities [LocalPlayer, LocalPlayer], work=[29*, 0*]
151: 0x06AC [0x27] REQ_SET(priority=0x10, entity_id=??? (ID: 16924795/0x0102407B), tag_num=0x02)
152: 0x06B3 [0x81] SET_ENTITY_BLINKING(blink_flag=0x00, entity=Selh'teus (ID: 16924762/0x0102405A))
153: 0x06B9 [0x5B] LOAD_EXT_SCHEDULER: Load scheduler "b300" with entities [Selh'teus (ID: 16924762/0x0102405A), Selh'teus (ID: 16924762/0x0102405A)], work=784*
154: 0x06C8 [0x1C] WAIT(75* ticks)
155: 0x06CB [0x5D] SET_MUSIC_VOLUME(volume=0*, fade_time=300*)
156: 0x06D0 [0x52] END_LOAD_SCHEDULER: End scheduler "la20" with entities [LocalPlayer, LocalPlayer], work=29*
157: 0x06DF [0x45] LOAD_SCHEDULED_TASK: Load scheduler "la22" with entities [LocalPlayer, LocalPlayer], work=[29*, 0*]
158: 0x06F0 [0x5B] LOAD_EXT_SCHEDULER: Load scheduler "b301" with entities [Selh'teus (ID: 16924762/0x0102405A), Selh'teus (ID: 16924762/0x0102405A)], work=784*
159: 0x06FF [0x1C] WAIT(150* ticks)
160: 0x0702 [0x1A] CALL_SUBROUTINE(address=0x344C)
161: 0x0705 [0x1C] WAIT(90* ticks)
162: 0x0708 [0x9F] LOAD_SCHEDULED_TASK_ALT: Load scheduler "hkil" with entities [Selh'teus (ID: 16924762/0x0102405A), Promathia (ID: 16924771/0x01024063)], work=[157*, 0*]
163: 0x0719 [0x52] END_LOAD_SCHEDULER: End scheduler "la22" with entities [LocalPlayer, LocalPlayer], work=29*
164: 0x0728 [0x1A] CALL_SUBROUTINE(address=0x340A)
165: 0x072B [0x1A] CALL_SUBROUTINE(address=0x342B)
166: 0x072E [0x1C] WAIT(30* ticks)
167: 0x0731 [0x5C] MUSIC_CONTROL: Set Idle (Day) music to song 0*
168: 0x0735 [0x5C] MUSIC_CONTROL: Set Idle (Night) music to song 0*
169: 0x0739 [0x5C] MUSIC_CONTROL: Set Combat (Solo) music to song 224*
170: 0x073D [0x5C] MUSIC_CONTROL: Set Combat (Party) music to song 224*
171: 0x0741 [0x9A] WAIT_MUSIC_SERVER()
172: 0x0742 [0x6C] FADE_ENTITY_COLOR(entity_id=LocalPlayer, end_alpha=128*, fade_time=1*)
173: 0x074B [0x46] CAMERA_CONTROL: Restore default settings
174: 0x074D [0x45] LOAD_SCHEDULED_TASK: Load scheduler "fdi2" with entities [LocalPlayer, LocalPlayer], work=[200*, 0*]
175: 0x075E [0x21] END_EVENT
176: 0x075F [0x00] END_REQSTACK()

SUBROUTINE_0760:
177: 0x0760 [0x6C] FADE_ENTITY_COLOR(entity_id=LocalPlayer, end_alpha=0*, fade_time=1*)
178: 0x0769 [0x29] REQ_SET_WAIT(priority=0x10, entity_id=Unnamed NPC (ID: 16924796/0x0102407C), tag_num=0x02)
179: 0x0770 [0x29] REQ_SET_WAIT(priority=0x10, entity_id=Prishe (ID: 16924761/0x01024059), tag_num=0x02)
180: 0x0777 [0x29] REQ_SET_WAIT(priority=0x10, entity_id=Selh'teus (ID: 16924762/0x0102405A), tag_num=0x02)
181: 0x077E [0x29] REQ_SET_WAIT(priority=0x10, entity_id=Makki-Chebukki (ID: 16924768/0x01024060), tag_num=0x02)
182: 0x0785 [0x29] REQ_SET_WAIT(priority=0x10, entity_id=Kukki-Chebukki (ID: 16924769/0x01024061), tag_num=0x02)
183: 0x078C [0x29] REQ_SET_WAIT(priority=0x10, entity_id=Cherukiki (ID: 16924770/0x01024062), tag_num=0x02)
184: 0x0793 [0x29] REQ_SET_WAIT(priority=0x10, entity_id=Promathia (ID: 16924771/0x01024063), tag_num=0x02)
185: 0x079A [0x92] LocalPlayer->Render.Flags3 ^= 0x01
186: 0x07A0 [0x92] Prishe (ID: 16924761/0x01024059)->Render.Flags3 ^= 0x01
187: 0x07A6 [0x92] Selh'teus (ID: 16924762/0x0102405A)->Render.Flags3 ^= 0x01
188: 0x07AC [0x92] Makki-Chebukki (ID: 16924768/0x01024060)->Render.Flags3 ^= 0x01
189: 0x07B2 [0x92] Kukki-Chebukki (ID: 16924769/0x01024061)->Render.Flags3 ^= 0x01
190: 0x07B8 [0x92] Cherukiki (ID: 16924770/0x01024062)->Render.Flags3 ^= 0x01
191: 0x07BE [0x92] Promathia (ID: 16924771/0x01024063)->Render.Flags3 ^= 0x01
192: 0x07C4 [0x94] LocalPlayer->Render.Flags3 ^= 0x01
193: 0x07CA [0x94] Unnamed NPC (ID: 16924796/0x0102407C)->Render.Flags3 ^= 0x01
194: 0x07D0 [0x94] Prishe (ID: 16924761/0x01024059)->Render.Flags3 ^= 0x01
195: 0x07D6 [0x94] Selh'teus (ID: 16924762/0x0102405A)->Render.Flags3 ^= 0x01
196: 0x07DC [0x94] Makki-Chebukki (ID: 16924768/0x01024060)->Render.Flags3 ^= 0x01
197: 0x07E2 [0x94] Kukki-Chebukki (ID: 16924769/0x01024061)->Render.Flags3 ^= 0x01
198: 0x07E8 [0x94] Cherukiki (ID: 16924770/0x01024062)->Render.Flags3 ^= 0x01
199: 0x07EE [0x94] Promathia (ID: 16924771/0x01024063)->Render.Flags3 ^= 0x01
200: 0x07F4 [0x29] REQ_SET_WAIT(priority=0x10, entity_id=Prishe (ID: 16924761/0x01024059), tag_num=0x0D)
201: 0x07FB [0x29] REQ_SET_WAIT(priority=0x10, entity_id=Selh'teus (ID: 16924762/0x0102405A), tag_num=0x0D)
202: 0x0802 [0x29] REQ_SET_WAIT(priority=0x10, entity_id=Makki-Chebukki (ID: 16924768/0x01024060), tag_num=0x0D)
203: 0x0809 [0x29] REQ_SET_WAIT(priority=0x10, entity_id=Kukki-Chebukki (ID: 16924769/0x01024061), tag_num=0x0D)
204: 0x0810 [0x29] REQ_SET_WAIT(priority=0x10, entity_id=Cherukiki (ID: 16924770/0x01024062), tag_num=0x0D)
205: 0x0817 [0x29] REQ_SET_WAIT(priority=0x10, entity_id=Promathia (ID: 16924771/0x01024063), tag_num=0x0B)
206: 0x081E [0x80] LOAD_WAIT(entity=Unnamed NPC (ID: 16924796/0x0102407C))
207: 0x0823 [0x80] LOAD_WAIT(entity=Prishe (ID: 16924761/0x01024059))
208: 0x0828 [0x80] LOAD_WAIT(entity=Selh'teus (ID: 16924762/0x0102405A))
209: 0x082D [0x80] LOAD_WAIT(entity=Makki-Chebukki (ID: 16924768/0x01024060))
210: 0x0832 [0x80] LOAD_WAIT(entity=Kukki-Chebukki (ID: 16924769/0x01024061))
211: 0x0837 [0x80] LOAD_WAIT(entity=Cherukiki (ID: 16924770/0x01024062))
212: 0x083C [0x80] LOAD_WAIT(entity=Promathia (ID: 16924771/0x01024063))
213: 0x0841 [0x1B] RETURN
```

### Event 6

#### Metadata

| Field        | Value      |
|--------------|------------|
| Entrypoint   | 0x0842     |
| Data Size    | 6914 bytes |
| Instructions | 709        |

```
      00 01 02 03 04 05 06 07  08 09 0A 0B 0C 0D 0E 0F
      -- -- -- -- -- -- -- --  -- -- -- -- -- -- -- --
0840:       42 1A 0A 34 46 01  38 01 80 22 00 4E 00 F0    B..4F.8..".N..
0850: FF FF 7F 43 00 43 01 03  01 00 08 10 03 00 00 09  ...C.C..........
0860: 10 5C 00 27 80 5C 01 27  80 9A 1A 24 22 1C 02 80  .\.'.\.'...$"...
0870: 5B 28 80 64 40 02 01 64  40 02 01 62 69 64 32 1C  [(.d@..d@..bid2.
0880: 02 80 45 29 80 F0 FF FF  7F F0 FF FF 7F 36 31 32  ..E).........612
0890: 33 04 80 45 0B 80 F0 FF  FF 7F F0 FF FF 7F 6C 62  3..E..........lb
08A0: 30 31 04 80 5B 28 80 64  40 02 01 64 40 02 01 65  01..[(.d@..d@..e
08B0: 64 30 30 1A E9 33 1C 26  80 45 29 80 F0 FF FF 7F  d00..3.&.E).....
08C0: F0 FF FF 7F 38 32 34 30  04 80 1C 2A 80 45 2B 80  ....8240...*.E+.
08D0: 64 40 02 01 64 40 02 01  76 62 6F 6E 04 80 1C 0D  d@..d@..vbon....
08E0: 80 52 0B 80 F0 FF FF 7F  F0 FF FF 7F 6C 62 30 31  .R..........lb01
08F0: 45 0B 80 F0 FF FF 7F F0  FF FF 7F 6C 62 30 32 04  E..........lb02.
0900: 80 5B 2C 80 60 40 02 01  60 40 02 01 7A 69 74 30  .[,.`@..`@..zit0
0910: 2B 60 40 02 01 2D 80 1C  2E 80 45 2B 80 64 40 02  +`@..-....E+.d@.
0920: 01 64 40 02 01 76 62 6F  66 04 80 5B 2C 80 61 40  .d@..vbof..[,.a@
0930: 02 01 61 40 02 01 7A 69  74 30 2B 61 40 02 01 2F  ..a@..zit0+a@../
0940: 80 1C 30 80 5B 31 80 62  40 02 01 62 40 02 01 7A  ..0.[1.b@..b@..z
0950: 69 74 30 2B 62 40 02 01  32 80 23 5B 33 80 66 40  it0+b@..2.#[3.f@
0960: 02 01 66 40 02 01 74 64  30 30 52 0B 80 F0 FF FF  ..f@..td00R.....
0970: 7F F0 FF FF 7F 6C 62 30  32 45 0B 80 F0 FF FF 7F  .....lb02E......
0980: F0 FF FF 7F 6C 62 30 33  04 80 45 29 80 F0 FF FF  ....lb03..E)....
0990: 7F F0 FF FF 7F 36 30 38  34 04 80 2B 66 40 02 01  .....6084..+f@..
09A0: 34 80 23 5B 35 80 5A 40  02 01 5A 40 02 01 6F 62  4.#[5.Z@..Z@..ob
09B0: 30 30 1C 02 80 52 0B 80  F0 FF FF 7F F0 FF FF 7F  00...R..........
09C0: 6C 62 30 33 45 0B 80 F0  FF FF 7F F0 FF FF 7F 6C  lb03E..........l
09D0: 62 30 35 04 80 45 29 80  F0 FF FF 7F F0 FF FF 7F  b05..E).........
09E0: 34 30 32 32 04 80 2B 5A  40 02 01 36 80 1C 0D 80  4022..+Z@..6....
09F0: 27 10 66 40 02 01 0A 5B  33 80 66 40 02 01 66 40  '.f@...[3.f@..f@
0A00: 02 01 74 64 30 31 1C 02  80 52 0B 80 F0 FF FF 7F  ..td01...R......
0A10: F0 FF FF 7F 6C 62 30 35  45 0B 80 F0 FF FF 7F F0  ....lb05E.......
0A20: FF FF 7F 6C 62 30 34 04  80 1C 37 80 52 0B 80 F0  ...lb04...7.R...
0A30: FF FF 7F F0 FF FF 7F 6C  62 30 34 45 0B 80 F0 FF  .......lb04E....
0A40: FF 7F F0 FF FF 7F 6C 62  30 36 04 80 27 10 66 40  ......lb06..'.f@
0A50: 02 01 0B 27 10 66 40 02  01 05 81 00 59 40 02 01  ...'.f@.....Y@..
0A60: 7C 00 59 40 02 01 45 29  80 F0 FF FF 7F F0 FF FF  |.Y@..E)........
0A70: 7F 33 30 33 37 04 80 5B  38 80 64 40 02 01 64 40  .3037..[8.d@..d@
0A80: 02 01 65 64 30 31 1A 2B  34 1C 1E 80 27 10 59 40  ..ed01.+4...'.Y@
0A90: 02 01 16 5B 39 80 59 40  02 01 59 40 02 01 62 33  ...[9.Y@..Y@..b3
0AA0: 30 30 1C 02 80 6C 59 40  02 01 1A 80 00 80 52 0B  00...lY@......R.
0AB0: 80 F0 FF FF 7F F0 FF FF  7F 6C 62 30 36 45 0B 80  .........lb06E..
0AC0: F0 FF FF 7F F0 FF FF 7F  6C 62 61 36 04 80 1C 23  ........lba6...#
0AD0: 80 2B 59 40 02 01 3A 80  45 29 80 F0 FF FF 7F F0  .+Y@..:.E)......
0AE0: FF FF 7F 73 31 33 32 04  80 9F 3B 80 59 40 02 01  ...s132...;.Y@..
0AF0: 59 40 02 01 73 74 72 30  04 80 55 0B 80 F0 FF FF  Y@..str0..U.....
0B00: 7F F0 FF FF 7F 6C 62 61  36 45 0B 80 F0 FF FF 7F  .....lba6E......
0B10: F0 FF FF 7F 6C 62 30 37  04 80 9F 3C 80 59 40 02  ....lb07...<.Y@.
0B20: 01 59 40 02 01 73 74 72  30 04 80 45 29 80 F0 FF  .Y@..str0..E)...
0B30: FF 7F F0 FF FF 7F 61 31  32 33 04 80 53 59 40 02  ......a123..SY@.
0B40: 01 59 40 02 01 62 33 30  30 27 10 59 40 02 01 17  .Y@..b300'.Y@...
0B50: 5B 3D 80 59 40 02 01 59  40 02 01 62 34 30 30 5B  [=.Y@..Y@..b400[
0B60: 1C 80 5A 40 02 01 5A 40  02 01 61 74 62 31 79 00  ..Z@..Z@..atb1y.
0B70: 5A 40 02 01 64 40 02 01  2B 64 40 02 01 3E 80 23  Z@..d@..+d@..>.#
0B80: 2B 64 40 02 01 3F 80 23  2B 64 40 02 01 40 80 23  +d@..?.#+d@..@.#
0B90: 45 29 80 F0 FF FF 7F F0  FF FF 7F 73 30 36 37 04  E).........s067.
0BA0: 80 1C 41 80 9F 3B 80 59  40 02 01 59 40 02 01 73  ..A..;.Y@..Y@..s
0BB0: 74 72 31 04 80 2B 64 40  02 01 42 80 23 52 0B 80  tr1..+d@..B.#R..
0BC0: F0 FF FF 7F F0 FF FF 7F  6C 62 30 37 45 0B 80 F0  ........lb07E...
0BD0: FF FF 7F F0 FF FF 7F 6C  62 34 37 04 80 45 29 80  .......lb47..E).
0BE0: F0 FF FF 7F F0 FF FF 7F  6B 31 33 32 04 80 45 29  ........k132..E)
0BF0: 80 F0 FF FF 7F F0 FF FF  7F 6B 30 36 37 04 80 1C  .........k067...
0C00: 0D 80 2B 60 40 02 01 43  80 23 52 0B 80 F0 FF FF  ..+`@..C.#R.....
0C10: 7F F0 FF FF 7F 6C 62 34  37 45 0B 80 F0 FF FF 7F  .....lb47E......
0C20: F0 FF FF 7F 6C 62 30 38  04 80 45 29 80 F0 FF FF  ....lb08..E)....
0C30: 7F F0 FF FF 7F 37 32 34  32 04 80 2C 60 40 02 01  .....7242..,`@..
0C40: 60 40 02 01 63 61 62 6B  1C 1E 80 2B 60 40 02 01  `@..cabk...+`@..
0C50: 44 80 52 0B 80 F0 FF FF  7F F0 FF FF 7F 6C 62 30  D.R..........lb0
0C60: 38 45 0B 80 F0 FF FF 7F  F0 FF FF 7F 6C 62 61 38  8E..........lba8
0C70: 04 80 45 29 80 F0 FF FF  7F F0 FF FF 7F 37 32 34  ..E).........724
0C80: 32 04 80 2C 61 40 02 01  61 40 02 01 63 61 62 6B  2..,a@..a@..cabk
0C90: 1C 1E 80 2B 61 40 02 01  45 80 52 0B 80 F0 FF FF  ...+a@..E.R.....
0CA0: 7F F0 FF FF 7F 6C 62 61  38 45 0B 80 F0 FF FF 7F  .....lba8E......
0CB0: F0 FF FF 7F 6C 62 62 38  04 80 45 29 80 F0 FF FF  ....lbb8..E)....
0CC0: 7F F0 FF FF 7F 37 32 33  37 04 80 5B 31 80 62 40  .....7237..[1.b@
0CD0: 02 01 62 40 02 01 77 61  69 30 1C 0D 80 2B 62 40  ..b@..wai0...+b@
0CE0: 02 01 46 80 1C 02 80 2C  60 40 02 01 60 40 02 01  ..F....,`@..`@..
0CF0: 73 68 62 6B 2C 61 40 02  01 61 40 02 01 73 68 62  shbk,a@..a@..shb
0D00: 6B 1C 0D 80 52 0B 80 F0  FF FF 7F F0 FF FF 7F 6C  k...R..........l
0D10: 62 62 38 45 0B 80 F0 FF  FF 7F F0 FF FF 7F 6C 62  bb8E..........lb
0D20: 30 39 04 80 9F 47 80 F8  FF FF 7F 64 40 02 01 68  09...G.....d@..h
0D30: 69 74 30 04 80 1C 15 80  52 0B 80 F0 FF FF 7F F0  it0.....R.......
0D40: FF FF 7F 6C 62 30 39 45  0B 80 F0 FF FF 7F F0 FF  ...lb09E........
0D50: FF 7F 6C 62 61 39 04 80  1C 15 80 52 0B 80 F0 FF  ..lba9.....R....
0D60: FF 7F F0 FF FF 7F 6C 62  61 39 45 0B 80 F0 FF FF  ......lba9E.....
0D70: 7F F0 FF FF 7F 6C 62 62  39 04 80 1C 0D 80 52 0B  .....lbb9.....R.
0D80: 80 F0 FF FF 7F F0 FF FF  7F 6C 62 62 39 45 0B 80  .........lbb9E..
0D90: F0 FF FF 7F F0 FF FF 7F  6C 62 63 39 04 80 1C 48  ........lbc9...H
0DA0: 80 52 0B 80 F0 FF FF 7F  F0 FF FF 7F 6C 62 63 39  .R..........lbc9
0DB0: 45 0B 80 F0 FF FF 7F F0  FF FF 7F 6C 62 31 31 04  E..........lb11.
0DC0: 80 4A 60 40 02 01 62 40  02 01 1C 0D 80 4A 61 40  .J`@..b@.....Ja@
0DD0: 02 01 62 40 02 01 1C 02  80 2B 62 40 02 01 49 80  ..b@.....+b@..I.
0DE0: 23 27 10 7B 40 02 01 03  5B 4A 80 62 40 02 01 62  #'.{@...[J.b@..b
0DF0: 40 02 01 68 6F 68 30 1C  15 80 52 0B 80 F0 FF FF  @..hoh0...R.....
0E00: 7F F0 FF FF 7F 6C 62 31  31 45 0B 80 F0 FF FF 7F  .....lb11E......
0E10: F0 FF FF 7F 6C 62 31 30  04 80 2B 5A 40 02 01 4B  ....lb10..+Z@..K
0E20: 80 23 27 10 59 40 02 01  14 5B 3D 80 59 40 02 01  .#'.Y@...[=.Y@..
0E30: 59 40 02 01 62 34 30 31  1C 02 80 52 0B 80 F0 FF  Y@..b401...R....
0E40: FF 7F F0 FF FF 7F 6C 62  31 30 45 0B 80 F0 FF FF  ......lb10E.....
0E50: 7F F0 FF FF 7F 6C 62 31  32 04 80 45 29 80 F0 FF  .....lb12..E)...
0E60: FF 7F F0 FF FF 7F 73 31  32 34 04 80 45 29 80 F0  ......s124..E)..
0E70: FF FF 7F F0 FF FF 7F 73  31 32 35 04 80 1C 4C 80  .......s125...L.
0E80: 45 29 80 F0 FF FF 7F F0  FF FF 7F 34 30 39 30 04  E).........4090.
0E90: 80 2B 59 40 02 01 4D 80  1C 4E 80 5B 4F 80 64 40  .+Y@..M..N.[O.d@
0EA0: 02 01 64 40 02 01 6D 65  74 30 1C 50 80 52 0B 80  ..d@..met0.P.R..
0EB0: F0 FF FF 7F F0 FF FF 7F  6C 62 31 32 45 0B 80 F0  ........lb12E...
0EC0: FF FF 7F F0 FF FF 7F 6C  62 31 33 04 80 45 29 80  .......lb13..E).
0ED0: F0 FF FF 7F F0 FF FF 7F  36 31 33 37 04 80 1C 51  ........6137...Q
0EE0: 80 45 29 80 F0 FF FF 7F  F0 FF FF 7F 36 30 38 33  .E).........6083
0EF0: 04 80 81 01 59 40 02 01  7C 01 59 40 02 01 2B 59  ....Y@..|.Y@..+Y
0F00: 40 02 01 52 80 23 52 0B  80 F0 FF FF 7F F0 FF FF  @..R.#R.........
0F10: 7F 6C 62 31 33 45 0B 80  F0 FF FF 7F F0 FF FF 7F  .lb13E..........
0F20: 6C 62 31 34 04 80 1C 15  80 45 29 80 F0 FF FF 7F  lb14.....E).....
0F30: F0 FF FF 7F 6B 31 32 34  04 80 9F 3B 80 59 40 02  ....k124...;.Y@.
0F40: 01 59 40 02 01 6B 69 6C  6C 04 80 2B 59 40 02 01  .Y@..kill..+Y@..
0F50: 53 80 23 53 59 40 02 01  59 40 02 01 62 34 30 31  S.#SY@..Y@..b401
0F60: 5B 54 80 59 40 02 01 59  40 02 01 62 35 30 73 1C  [T.Y@..Y@..b50s.
0F70: 02 80 45 29 80 F0 FF FF  7F F0 FF FF 7F 34 30 30  ..E).........400
0F80: 33 04 80 52 0B 80 F0 FF  FF 7F F0 FF FF 7F 6C 62  3..R..........lb
0F90: 31 34 45 0B 80 F0 FF FF  7F F0 FF FF 7F 6C 62 31  14E..........lb1
0FA0: 35 04 80 1C 55 80 45 29  80 F0 FF FF 7F F0 FF FF  5...U.E)........
0FB0: 7F 38 31 35 34 04 80 55  0B 80 F0 FF FF 7F F0 FF  .8154..U........
0FC0: FF 7F 6C 62 31 35 45 0B  80 F0 FF FF 7F F0 FF FF  ..lb15E.........
0FD0: 7F 6C 62 31 36 04 80 45  29 80 F0 FF FF 7F F0 FF  .lb16..E).......
0FE0: FF 7F 6E 61 67 65 04 80  2B 59 40 02 01 56 80 1C  ..nage..+Y@..V..
0FF0: 48 80 52 0B 80 F0 FF FF  7F F0 FF FF 7F 6C 62 31  H.R..........lb1
1000: 36 45 0B 80 F0 FF FF 7F  F0 FF FF 7F 6C 62 31 37  6E..........lb17
1010: 04 80 27 10 59 40 02 01  15 45 29 80 F0 FF FF 7F  ..'.Y@...E).....
1020: F0 FF FF 7F 6B 31 32 35  04 80 45 29 80 F0 FF FF  ....k125..E)....
1030: 7F F0 FF FF 7F 73 30 31  37 04 80 1C 0D 80 5B 1C  .....s017.....[.
1040: 80 5A 40 02 01 5A 40 02  01 61 74 62 32 9F 06 80  .Z@..Z@..atb2...
1050: 5A 40 02 01 5A 40 02 01  6E 61 67 65 04 80 45 29  Z@..Z@..nage..E)
1060: 80 F0 FF FF 7F F0 FF FF  7F 36 31 31 39 04 80 1C  .........6119...
1070: 57 80 52 0B 80 F0 FF FF  7F F0 FF FF 7F 6C 62 31  W.R..........lb1
1080: 37 45 0B 80 F0 FF FF 7F  F0 FF FF 7F 6C 62 33 33  7E..........lb33
1090: 04 80 45 29 80 F0 FF FF  7F F0 FF FF 7F 6B 30 31  ..E).........k01
10A0: 37 04 80 55 0B 80 F0 FF  FF 7F F0 FF FF 7F 6C 62  7..U..........lb
10B0: 33 33 45 0B 80 F0 FF FF  7F F0 FF FF 7F 6C 62 39  33E..........lb9
10C0: 38 04 80 1C 41 80 45 29  80 F0 FF FF 7F F0 FF FF  8...A.E)........
10D0: 7F 36 30 34 32 04 80 9F  58 80 F8 FF FF 7F F8 FF  .6042...X.......
10E0: FF 7F 73 74 72 30 04 80  1C 0D 80 45 29 80 F0 FF  ..str0.....E)...
10F0: FF 7F F0 FF FF 7F 30 77  6F 73 04 80 1C 02 80 45  ......0wos.....E
1100: 29 80 F0 FF FF 7F F0 FF  FF 7F 36 31 32 36 04 80  ).........6126..
1110: 1C 59 80 52 0B 80 F0 FF  FF 7F F0 FF FF 7F 6C 62  .Y.R..........lb
1120: 39 38 27 10 59 40 02 01  15 27 10 64 40 02 01 0B  98'.Y@...'.d@...
1130: 5B 4F 80 64 40 02 01 64  40 02 01 65 64 30 33 9F  [O.d@..d@..ed03.
1140: 5A 80 64 40 02 01 64 40  02 01 62 79 72 68 04 80  Z.d@..d@..byrh..
1150: 45 0B 80 F0 FF FF 7F F0  FF FF 7F 6C 62 31 39 04  E..........lb19.
1160: 80 45 29 80 F0 FF FF 7F  F0 FF FF 7F 36 31 32 37  .E).........6127
1170: 04 80 1A 2B 34 1C 1D 80  52 0B 80 F0 FF FF 7F F0  ...+4...R.......
1180: FF FF 7F 6C 62 31 39 45  0B 80 F0 FF FF 7F F0 FF  ...lb19E........
1190: FF 7F 6C 62 32 30 04 80  45 29 80 F0 FF FF 7F F0  ..lb20..E)......
11A0: FF FF 7F 73 31 32 35 04  80 1C 0D 80 2B 5A 40 02  ...s125.....+Z@.
11B0: 01 5B 80 55 0B 80 F0 FF  FF 7F F0 FF FF 7F 6C 62  .[.U..........lb
11C0: 32 30 45 0B 80 F0 FF FF  7F F0 FF FF 7F 6C 62 34  20E..........lb4
11D0: 35 04 80 1C 02 80 5B 54  80 59 40 02 01 59 40 02  5.....[T.Y@..Y@.
11E0: 01 62 36 30 30 45 29 80  F0 FF FF 7F F0 FF FF 7F  .b600E).........
11F0: 36 61 38 34 04 80 1C 0D  80 2B 59 40 02 01 5C 80  6a84.....+Y@..\.
1200: 1C 15 80 52 0B 80 F0 FF  FF 7F F0 FF FF 7F 6C 62  ...R..........lb
1210: 34 35 45 0B 80 F0 FF FF  7F F0 FF FF 7F 6C 62 32  45E..........lb2
1220: 31 04 80 1C 1D 80 5B 4F  80 64 40 02 01 64 40 02  1.....[O.d@..d@.
1230: 01 65 64 30 34 1C 1E 80  52 0B 80 F0 FF FF 7F F0  .ed04...R.......
1240: FF FF 7F 6C 62 32 31 45  0B 80 F0 FF FF 7F F0 FF  ...lb21E........
1250: FF 7F 6C 62 32 32 04 80  45 29 80 F0 FF FF 7F F0  ..lb22..E)......
1260: FF FF 7F 73 61 30 36 04  80 1C 02 80 9F 5A 80 64  ...sa06......Z.d
1270: 40 02 01 64 40 02 01 75  74 72 6F 04 80 1C 59 80  @..d@..utro...Y.
1280: 45 29 80 F0 FF FF 7F F0  FF FF 7F 36 30 39 31 04  E).........6091.
1290: 80 55 0B 80 F0 FF FF 7F  F0 FF FF 7F 6C 62 32 32  .U..........lb22
12A0: 45 0B 80 F0 FF FF 7F F0  FF FF 7F 6C 62 32 33 04  E..........lb23.
12B0: 80 55 0B 80 F0 FF FF 7F  F0 FF FF 7F 6C 62 32 33  .U..........lb23
12C0: 45 0B 80 F0 FF FF 7F F0  FF FF 7F 6C 62 32 34 04  E..........lb24.
12D0: 80 45 29 80 F0 FF FF 7F  F0 FF FF 7F 6B 31 34 36  .E).........k146
12E0: 04 80 9F 5A 80 64 40 02  01 64 40 02 01 6B 69 6C  ...Z.d@..d@..kil
12F0: 6C 04 80 5B 5D 80 64 40  02 01 64 40 02 01 65 64  l..[].d@..d@..ed
1300: 30 35 45 29 80 F0 FF FF  7F F0 FF FF 7F 33 32 33  05E).........323
1310: 37 04 80 1C 0D 80 2B 64  40 02 01 5E 80 23 52 0B  7.....+d@..^.#R.
1320: 80 F0 FF FF 7F F0 FF FF  7F 6C 62 32 34 45 0B 80  .........lb24E..
1330: F0 FF FF 7F F0 FF FF 7F  6C 62 32 35 04 80 5B 5D  ........lb25..[]
1340: 80 64 40 02 01 64 40 02  01 65 64 30 36 1C 5F 80  .d@..d@..ed06._.
1350: 45 29 80 F0 FF FF 7F F0  FF FF 7F 33 31 39 39 04  E).........3199.
1360: 80 1C 48 80 5B 60 80 59  40 02 01 59 40 02 01 62  ..H.[`.Y@..Y@..b
1370: 37 30 30 1C 02 80 27 10  64 40 02 01 0C 6C 64 40  700...'.d@...ld@
1380: 02 01 04 80 00 80 52 0B  80 F0 FF FF 7F F0 FF FF  ......R.........
1390: 7F 6C 62 32 35 45 0B 80  F0 FF FF 7F F0 FF FF 7F  .lb25E..........
13A0: 6C 62 32 36 04 80 45 29  80 F0 FF FF 7F F0 FF FF  lb26..E)........
13B0: 7F 73 30 37 37 04 80 9F  3C 80 59 40 02 01 59 40  .s077...<.Y@..Y@
13C0: 02 01 6B 69 6C 6C 04 80  45 29 80 F0 FF FF 7F F0  ..kill..E)......
13D0: FF FF 7F 6B 31 32 35 04  80 1C 1E 80 27 10 7A 40  ...k125.....'.z@
13E0: 02 01 1C 81 00 59 40 02  01 7C 00 59 40 02 01 52  .....Y@..|.Y@..R
13F0: 0B 80 F0 FF FF 7F F0 FF  FF 7F 6C 62 32 36 45 0B  ..........lb26E.
1400: 80 F0 FF FF 7F F0 FF FF  7F 6C 62 33 32 04 80 5B  .........lb32..[
1410: 60 80 59 40 02 01 59 40  02 01 62 38 73 32 45 29  `.Y@..Y@..b8s2E)
1420: 80 F0 FF FF 7F F0 FF FF  7F 6B 30 37 37 04 80 45  .........k077..E
1430: 29 80 F0 FF FF 7F F0 FF  FF 7F 36 31 31 37 04 80  ).........6117..
1440: 27 10 7B 40 02 01 04 1C  15 80 27 10 F0 FF FF 7F  '.{@......'.....
1450: 18 2A 10 7B 40 02 01 61  00 55 0B 80 F0 FF FF 7F  .*.{@..a.U......
1460: F0 FF FF 7F 6C 62 32 38  1A 4C 34 1C 0D 80 7A 00  ....lb28.L4...z.
1470: F0 FF FF 7F 5B 61 80 65  40 02 01 65 40 02 01 62  ....[a.e@..e@..b
1480: 61 30 30 29 10 64 40 02  01 0D BA F0 FF FF 7F 62  a00).d@........b
1490: 80 63 80 64 80 65 80 4A  62 40 02 01 61 40 02 01  .c.d.e.Jb@..a@..
14A0: 5B 66 80 60 40 02 01 60  40 02 01 68 69 30 31 5B  [f.`@..`@..hi01[
14B0: 66 80 61 40 02 01 61 40  02 01 68 69 30 31 5B 66  f.a@..a@..hi01[f
14C0: 80 62 40 02 01 62 40 02  01 68 69 30 31 5B 67 80  .b@..b@..hi01[g.
14D0: 64 40 02 01 64 40 02 01  65 64 30 37 9F 1B 80 64  d@..d@..ed07...d
14E0: 40 02 01 64 40 02 01 73  74 72 30 04 80 45 0B 80  @..d@..str0..E..
14F0: F0 FF FF 7F F0 FF FF 7F  6C 62 33 30 04 80 1A 2B  ........lb30...+
1500: 34 1C 02 80 45 29 80 F0  FF FF 7F F0 FF FF 7F 73  4...E).........s
1510: 31 32 38 04 80 1C 1B 80  2B 64 40 02 01 68 80 23  128.....+d@..h.#
1520: 55 0B 80 F0 FF FF 7F F0  FF FF 7F 6C 62 33 30 45  U..........lb30E
1530: 0B 80 F0 FF FF 7F F0 FF  FF 7F 6C 62 33 34 04 80  ..........lb34..
1540: 27 10 7A 40 02 01 1C 27  10 7B 40 02 01 0D 27 10  '.z@...'.{@...'.
1550: F0 FF FF 7F 1C 7B F0 FF  FF 7F 55 0B 80 F0 FF FF  .....{....U.....
1560: 7F F0 FF FF 7F 6C 62 33  34 45 0B 80 F0 FF FF 7F  .....lb34E......
1570: F0 FF FF 7F 6C 62 33 35  04 80 5D 04 80 69 80 9F  ....lb35..]..i..
1580: 19 80 F0 FF FF 7F F0 FF  FF 7F 73 74 72 31 04 80  ..........str1..
1590: 45 29 80 F0 FF FF 7F F0  FF FF 7F 36 31 32 39 04  E).........6129.
15A0: 80 55 0B 80 F0 FF FF 7F  F0 FF FF 7F 6C 62 33 35  .U..........lb35
15B0: 45 29 80 F0 FF FF 7F F0  FF FF 7F 73 31 33 30 04  E).........s130.
15C0: 80 45 29 80 F0 FF FF 7F  F0 FF FF 7F 36 31 33 31  .E).........6131
15D0: 04 80 9F 6A 80 F8 FF FF  7F F8 FF FF 7F 73 74 72  ...j.........str
15E0: 30 04 80 02 07 7F 00 80  80 0E 16 45 0B 80 F0 FF  0..........E....
15F0: FF 7F F0 FF FF 7F 6C 68  6D 30 04 80 55 0B 80 F0  ......lhm0..U...
1600: FF FF 7F F0 FF FF 7F 6C  68 6D 30 01 3B 17 02 07  .......lhm0.;...
1610: 7F 6B 80 80 39 16 45 0B  80 F0 FF FF 7F F0 FF FF  .k..9.E.........
1620: 7F 6C 68 66 30 04 80 55  0B 80 F0 FF FF 7F F0 FF  .lhf0..U........
1630: FF 7F 6C 68 66 30 01 3B  17 02 07 7F 6C 80 80 64  ..lhf0.;....l..d
1640: 16 45 0B 80 F0 FF FF 7F  F0 FF FF 7F 6C 65 6D 30  .E..........lem0
1650: 04 80 55 0B 80 F0 FF FF  7F F0 FF FF 7F 6C 65 6D  ..U..........lem
1660: 30 01 3B 17 02 07 7F 6D  80 80 8F 16 45 0B 80 F0  0.;....m....E...
1670: FF FF 7F F0 FF FF 7F 6C  65 66 30 04 80 55 0B 80  .......lef0..U..
1680: F0 FF FF 7F F0 FF FF 7F  6C 65 66 30 01 3B 17 02  ........lef0.;..
1690: 07 7F 5F 80 80 BA 16 45  0B 80 F0 FF FF 7F F0 FF  .._....E........
16A0: FF 7F 6C 74 72 30 04 80  55 0B 80 F0 FF FF 7F F0  ..ltr0..U.......
16B0: FF FF 7F 6C 74 72 30 01  3B 17 02 07 7F 50 80 80  ...ltr0.;....P..
16C0: E5 16 45 0B 80 F0 FF FF  7F F0 FF FF 7F 6C 74 72  ..E..........ltr
16D0: 30 04 80 55 0B 80 F0 FF  FF 7F F0 FF FF 7F 6C 74  0..U..........lt
16E0: 72 30 01 3B 17 02 07 7F  6E 80 80 10 17 45 0B 80  r0.;....n....E..
16F0: F0 FF FF 7F F0 FF FF 7F  6C 6D 74 30 04 80 55 0B  ........lmt0..U.
1700: 80 F0 FF FF 7F F0 FF FF  7F 6C 6D 74 30 01 3B 17  .........lmt0.;.
1710: 02 07 7F 6F 80 80 3B 17  45 0B 80 F0 FF FF 7F F0  ...o..;.E.......
1720: FF FF 7F 6C 67 6C 30 04  80 55 0B 80 F0 FF FF 7F  ...lgl0..U......
1730: F0 FF FF 7F 6C 67 6C 30  01 3B 17 6C 5A 40 02 01  ....lgl0.;.lZ@..
1740: 04 80 00 80 45 29 80 F0  FF FF 7F F0 FF FF 7F 6B  ....E).........k
1750: 31 33 30 04 80 45 0B 80  F0 FF FF 7F F0 FF FF 7F  130..E..........
1760: 6C 62 33 36 04 80 9F 19  80 F0 FF FF 7F F0 FF FF  lb36............
1770: 7F 73 74 72 32 04 80 1C  4C 80 27 10 F0 FF FF 7F  .str2...L.'.....
1780: 14 9F 6A 80 F8 FF FF 7F  F8 FF FF 7F 6B 69 6C 6C  ..j.........kill
1790: 04 80 55 0B 80 F0 FF FF  7F F0 FF FF 7F 6C 62 33  ..U..........lb3
17A0: 36 45 0B 80 F0 FF FF 7F  F0 FF FF 7F 6C 62 33 31  6E..........lb31
17B0: 04 80 02 01 00 2B 80 80  DA 17 03 02 10 70 80 03  .....+.......p..
17C0: 03 10 71 80 03 04 10 72  80 03 05 10 73 80 03 06  ..q....r....s...
17D0: 10 74 80 48 75 80 23 01  89 18 02 01 00 0D 80 80  .t.Hu.#.........
17E0: FD 17 03 02 10 71 80 03  03 10 72 80 03 04 10 73  .....q....r....s
17F0: 80 03 05 10 74 80 48 76  80 23 01 89 18 02 01 00  ....t.Hv.#......
1800: 0B 80 80 20 18 03 02 10  70 80 03 03 10 72 80 03  ... ....p....r..
1810: 04 10 73 80 03 05 10 74  80 48 76 80 23 01 89 18  ..s....t.Hv.#...
1820: 02 01 00 30 80 80 43 18  03 02 10 70 80 03 03 10  ...0..C....p....
1830: 71 80 03 04 10 73 80 03  05 10 74 80 48 76 80 23  q....s....t.Hv.#
1840: 01 89 18 02 01 00 77 80  80 66 18 03 02 10 70 80  ......w..f....p.
1850: 03 03 10 71 80 03 04 10  72 80 03 05 10 74 80 48  ...q....r....t.H
1860: 76 80 23 01 89 18 02 01  00 02 80 80 89 18 03 02  v.#.............
1870: 10 70 80 03 03 10 71 80  03 04 10 72 80 03 05 10  .p....q....r....
1880: 73 80 48 76 80 23 01 89  18 1C 0D 80 52 0B 80 F0  s.Hv.#......R...
1890: FF FF 7F F0 FF FF 7F 6C  62 33 31 45 0B 80 F0 FF  .......lb31E....
18A0: FF 7F F0 FF FF 7F 6C 62  33 37 04 80 45 29 80 F0  ......lb37..E)..
18B0: FF FF 7F F0 FF FF 7F 36  62 30 36 04 80 6C 5A 40  .......6b06..lZ@
18C0: 02 01 1A 80 00 80 1C 15  80 27 10 64 40 02 01 0C  .........'.d@...
18D0: 5B 78 80 64 40 02 01 64  40 02 01 65 64 30 39 1C  [x.d@..d@..ed09.
18E0: 4C 80 9F 19 80 64 40 02  01 F8 FF FF 7F 73 74 72  L....d@......str
18F0: 33 04 80 45 29 80 F0 FF  FF 7F F0 FF FF 7F 36 31  3..E).........61
1900: 33 32 04 80 55 0B 80 F0  FF FF 7F F0 FF FF 7F 6C  32..U..........l
1910: 62 33 37 45 29 80 F0 FF  FF 7F F0 FF FF 7F 6B 62  b37E).........kb
1920: 30 36 04 80 1C 4C 80 45  0B 80 F0 FF FF 7F F0 FF  06...L.E........
1930: FF 7F 6C 62 33 38 04 80  9F 19 80 64 40 02 01 F8  ..lb38.....d@...
1940: FF FF 7F 73 74 72 33 04  80 45 29 80 F0 FF FF 7F  ...str3..E).....
1950: F0 FF FF 7F 36 31 33 32  04 80 1C 79 80 6A 04 80  ....6132...y.j..
1960: 7A 80 02 80 45 0B 80 F0  FF FF 7F F0 FF FF 7F 30  z...E..........0
1970: 77 6F 73 04 80 1C 0E 80  52 0B 80 F0 FF FF 7F F0  wos.....R.......
1980: FF FF 7F 6C 62 33 38 2B  7B 40 02 01 7B 80 23 1C  ...lb38+{@..{.#.
1990: 1D 80 2B 64 40 02 01 7C  80 23 6A 7D 80 7A 80 02  ..+d@..|.#j}.z..
19A0: 80 27 10 F0 FF FF 7F 15  45 0B 80 F0 FF FF 7F F0  .'......E.......
19B0: FF FF 7F 6C 62 34 30 04  80 1A 2B 34 9F 7E 80 64  ...lb40...+4.~.d
19C0: 40 02 01 F8 FF FF 7F 70  65 30 31 04 80 45 29 80  @......pe01..E).
19D0: F0 FF FF 7F F0 FF FF 7F  36 31 33 33 04 80 1C 1D  ........6133....
19E0: 80 81 00 65 40 02 01 5B  61 80 65 40 02 01 65 40  ...e@..[a.e@..e@
19F0: 02 01 62 62 30 30 1C 0F  80 52 0B 80 F0 FF FF 7F  ..bb00...R......
1A00: F0 FF FF 7F 6C 62 34 30  45 0B 80 F0 FF FF 7F F0  ....lb40E.......
1A10: FF FF 7F 6C 62 33 39 04  80 45 29 80 F0 FF FF 7F  ...lb39..E).....
1A20: F0 FF FF 7F 31 30 34 39  04 80 1C 0E 80 52 0B 80  ....1049.....R..
1A30: F0 FF FF 7F F0 FF FF 7F  6C 62 33 39 45 0B 80 F0  ........lb39E...
1A40: FF FF 7F F0 FF FF 7F 6C  62 34 31 04 80 1C 0E 80  .......lb41.....
1A50: 52 0B 80 F0 FF FF 7F F0  FF FF 7F 6C 62 34 31 45  R..........lb41E
1A60: 0B 80 F0 FF FF 7F F0 FF  FF 7F 6C 62 34 32 04 80  ..........lb42..
1A70: 1C 1D 80 52 0B 80 F0 FF  FF 7F F0 FF FF 7F 6C 62  ...R..........lb
1A80: 34 32 45 0B 80 F0 FF FF  7F F0 FF FF 7F 6C 62 34  42E..........lb4
1A90: 33 04 80 1C 0E 80 52 0B  80 F0 FF FF 7F F0 FF FF  3.....R.........
1AA0: 7F 6C 62 34 33 45 0B 80  F0 FF FF 7F F0 FF FF 7F  .lb43E..........
1AB0: 6C 62 34 34 04 80 45 29  80 F0 FF FF 7F F0 FF FF  lb44..E)........
1AC0: 7F 36 31 33 34 04 80 1C  7F 80 45 0B 80 F0 FF FF  .6134.....E.....
1AD0: 7F F0 FF FF 7F 30 77 6F  73 04 80 1C 0E 80 52 0B  .....0wos.....R.
1AE0: 80 F0 FF FF 7F F0 FF FF  7F 6C 62 34 34 45 0B 80  .........lb44E..
1AF0: F0 FF FF 7F F0 FF FF 7F  30 62 6C 66 04 80 27 10  ........0blf..'.
1B00: 64 40 02 01 05 29 10 5A  40 02 01 11 29 10 65 40  d@...).Z@...).e@
1B10: 02 01 0B 2C 60 40 02 01  60 40 02 01 63 6F 72 70  ...,`@..`@..corp
1B20: 2C 61 40 02 01 61 40 02  01 63 6F 72 70 2C 62 40  ,a@..a@..corp,b@
1B30: 02 01 62 40 02 01 63 6F  72 70 5B 24 80 5A 40 02  ..b@..corp[$.Z@.
1B40: 01 5A 40 02 01 62 34 6C  31 1C 02 80 5C 00 80 80  .Z@..b4l1...\...
1B50: 5C 01 80 80 9A 9F 81 80  7A 40 02 01 7A 40 02 01  \.......z@..z@..
1B60: 73 74 72 30 04 80 45 0B  80 F0 FF FF 7F F0 FF FF  str0..E.........
1B70: 7F 6C 63 30 30 04 80 1A  2B 34 45 29 80 F0 FF FF  .lc00...+4E)....
1B80: 7F F0 FF FF 7F 36 31 33  36 04 80 1C 0E 80 2B 5A  .....6136.....+Z
1B90: 40 02 01 82 80 23 52 0B  80 F0 FF FF 7F F0 FF FF  @....#R.........
1BA0: 7F 6C 63 30 30 45 0B 80  F0 FF FF 7F F0 FF FF 7F  .lc00E..........
1BB0: 6C 63 30 31 04 80 5B 61  80 65 40 02 01 65 40 02  lc01..[a.e@..e@.
1BC0: 01 62 63 30 30 1C 02 80  45 29 80 F0 FF FF 7F F0  .bc00...E)......
1BD0: FF FF 7F 31 30 34 31 04  80 1C 0F 80 2B 65 40 02  ...1041.....+e@.
1BE0: 01 83 80 23 52 0B 80 F0  FF FF 7F F0 FF FF 7F 6C  ...#R..........l
1BF0: 63 30 31 45 0B 80 F0 FF  FF 7F F0 FF FF 7F 6C 63  c01E..........lc
1C00: 31 30 04 80 1C 0E 80 9F  84 80 65 40 02 01 F8 FF  10........e@....
1C10: FF 7F 73 74 72 30 04 80  45 29 80 F0 FF FF 7F F0  ..str0..E)......
1C20: FF FF 7F 61 31 33 36 04  80 1C 0D 80 52 0B 80 F0  ...a136.....R...
1C30: FF FF 7F F0 FF FF 7F 6C  63 31 30 45 0B 80 F0 FF  .......lc10E....
1C40: FF 7F F0 FF FF 7F 6C 63  30 32 04 80 1C 23 80 2B  ......lc02...#.+
1C50: 65 40 02 01 85 80 23 6C  5A 40 02 01 04 80 00 80  e@....#lZ@......
1C60: 52 0B 80 F0 FF FF 7F F0  FF FF 7F 6C 63 30 32 02  R..........lc02.
1C70: 07 7F 00 80 80 BF 1C 45  0B 80 F0 FF FF 7F F0 FF  .......E........
1C80: FF 7F 6C 68 6D 31 04 80  1C 0D 80 9F 86 80 F0 FF  ..lhm1..........
1C90: FF 7F F0 FF FF 7F 73 74  72 30 04 80 45 29 80 F0  ......str0..E)..
1CA0: FF FF 7F F0 FF FF 7F 62  31 33 36 04 80 55 0B 80  .......b136..U..
1CB0: F0 FF FF 7F F0 FF FF 7F  6C 68 6D 31 01 EF 1E 02  ........lhm1....
1CC0: 07 7F 6B 80 80 0F 1D 45  0B 80 F0 FF FF 7F F0 FF  ..k....E........
1CD0: FF 7F 6C 68 66 31 04 80  1C 0D 80 9F 86 80 F0 FF  ..lhf1..........
1CE0: FF 7F F0 FF FF 7F 73 74  72 30 04 80 45 29 80 F0  ......str0..E)..
1CF0: FF FF 7F F0 FF FF 7F 62  31 33 36 04 80 55 0B 80  .......b136..U..
1D00: F0 FF FF 7F F0 FF FF 7F  6C 68 66 31 01 EF 1E 02  ........lhf1....
1D10: 07 7F 6C 80 80 5F 1D 45  0B 80 F0 FF FF 7F F0 FF  ..l.._.E........
1D20: FF 7F 6C 65 6D 31 04 80  1C 0D 80 9F 86 80 F0 FF  ..lem1..........
1D30: FF 7F F0 FF FF 7F 73 74  72 30 04 80 45 29 80 F0  ......str0..E)..
1D40: FF FF 7F F0 FF FF 7F 62  31 33 36 04 80 55 0B 80  .......b136..U..
1D50: F0 FF FF 7F F0 FF FF 7F  6C 65 6D 31 01 EF 1E 02  ........lem1....
1D60: 07 7F 6D 80 80 AF 1D 45  0B 80 F0 FF FF 7F F0 FF  ..m....E........
1D70: FF 7F 6C 65 66 31 04 80  1C 0D 80 9F 86 80 F0 FF  ..lef1..........
1D80: FF 7F F0 FF FF 7F 73 74  72 30 04 80 45 29 80 F0  ......str0..E)..
1D90: FF FF 7F F0 FF FF 7F 62  31 33 36 04 80 55 0B 80  .......b136..U..
1DA0: F0 FF FF 7F F0 FF FF 7F  6C 65 66 31 01 EF 1E 02  ........lef1....
1DB0: 07 7F 5F 80 80 FF 1D 45  0B 80 F0 FF FF 7F F0 FF  .._....E........
1DC0: FF 7F 6C 74 72 31 04 80  1C 0D 80 9F 86 80 F0 FF  ..ltr1..........
1DD0: FF 7F F0 FF FF 7F 73 74  72 30 04 80 45 29 80 F0  ......str0..E)..
1DE0: FF FF 7F F0 FF FF 7F 62  31 33 36 04 80 55 0B 80  .......b136..U..
1DF0: F0 FF FF 7F F0 FF FF 7F  6C 74 72 31 01 EF 1E 02  ........ltr1....
1E00: 07 7F 50 80 80 4F 1E 45  0B 80 F0 FF FF 7F F0 FF  ..P..O.E........
1E10: FF 7F 6C 74 72 31 04 80  1C 0D 80 9F 86 80 F0 FF  ..ltr1..........
1E20: FF 7F F0 FF FF 7F 73 74  72 30 04 80 45 29 80 F0  ......str0..E)..
1E30: FF FF 7F F0 FF FF 7F 62  31 33 36 04 80 55 0B 80  .......b136..U..
1E40: F0 FF FF 7F F0 FF FF 7F  6C 74 72 31 01 EF 1E 02  ........ltr1....
1E50: 07 7F 6E 80 80 9F 1E 45  0B 80 F0 FF FF 7F F0 FF  ..n....E........
1E60: FF 7F 6C 6D 74 31 04 80  1C 0D 80 9F 86 80 F0 FF  ..lmt1..........
1E70: FF 7F F0 FF FF 7F 73 74  72 30 04 80 45 29 80 F0  ......str0..E)..
1E80: FF FF 7F F0 FF FF 7F 62  31 33 36 04 80 55 0B 80  .......b136..U..
1E90: F0 FF FF 7F F0 FF FF 7F  6C 6D 74 31 01 EF 1E 02  ........lmt1....
1EA0: 07 7F 6F 80 80 EF 1E 45  0B 80 F0 FF FF 7F F0 FF  ..o....E........
1EB0: FF 7F 6C 67 6C 31 04 80  1C 0D 80 9F 86 80 F0 FF  ..lgl1..........
1EC0: FF 7F F0 FF FF 7F 73 74  72 30 04 80 45 29 80 F0  ......str0..E)..
1ED0: FF FF 7F F0 FF FF 7F 62  31 33 36 04 80 55 0B 80  .......b136..U..
1EE0: F0 FF FF 7F F0 FF FF 7F  6C 67 6C 31 01 EF 1E 45  ........lgl1...E
1EF0: 0B 80 F0 FF FF 7F F0 FF  FF 7F 6C 63 30 33 04 80  ..........lc03..
1F00: 6C 5A 40 02 01 1A 80 00  80 45 29 80 F0 FF FF 7F  lZ@......E).....
1F10: F0 FF FF 7F 73 31 32 32  04 80 9F 84 80 65 40 02  ....s122.....e@.
1F20: 01 65 40 02 01 73 74 72  31 04 80 5B 87 80 65 40  .e@..str1..[..e@
1F30: 02 01 65 40 02 01 62 64  30 30 1C 0D 80 45 29 80  ..e@..bd00...E).
1F40: F0 FF FF 7F F0 FF FF 7F  73 61 32 39 04 80 4A F0  ........sa29..J.
1F50: FF FF 7F 65 40 02 01 1C  4C 80 52 0B 80 F0 FF FF  ...e@...L.R.....
1F60: 7F F0 FF FF 7F 6C 63 30  33 45 0B 80 F0 FF FF 7F  .....lc03E......
1F70: F0 FF FF 7F 6C 63 30 37  04 80 1C 4C 80 52 0B 80  ....lc07...L.R..
1F80: F0 FF FF 7F F0 FF FF 7F  6C 63 30 37 45 0B 80 F0  ........lc07E...
1F90: FF FF 7F F0 FF FF 7F 6C  63 30 38 04 80 45 29 80  .......lc08..E).
1FA0: F0 FF FF 7F F0 FF FF 7F  34 30 37 39 04 80 45 29  ........4079..E)
1FB0: 80 F0 FF FF 7F F0 FF FF  7F 6B 31 32 32 04 80 55  .........k122..U
1FC0: 0B 80 F0 FF FF 7F F0 FF  FF 7F 6C 63 30 38 45 0B  ..........lc08E.
1FD0: 80 F0 FF FF 7F F0 FF FF  7F 6C 63 30 34 04 80 53  .........lc04..S
1FE0: 65 40 02 01 65 40 02 01  62 64 30 30 5B 88 80 65  e@..e@..bd00[..e
1FF0: 40 02 01 65 40 02 01 62  65 30 30 45 29 80 F0 FF  @..e@..be00E)...
2000: FF 7F F0 FF FF 7F 31 30  34 37 04 80 1C 15 80 2B  ......1047.....+
2010: 65 40 02 01 89 80 23 2B  65 40 02 01 8A 80 23 52  e@....#+e@....#R
2020: 0B 80 F0 FF FF 7F F0 FF  FF 7F 6C 63 30 34 45 0B  ..........lc04E.
2030: 80 F0 FF FF 7F F0 FF FF  7F 6C 63 30 35 04 80 5B  .........lc05..[
2040: 88 80 65 40 02 01 65 40  02 01 62 66 30 30 45 29  ..e@..e@..bf00E)
2050: 80 F0 FF FF 7F F0 FF FF  7F 31 30 34 35 04 80 1C  .........1045...
2060: 1E 80 2B 65 40 02 01 8B  80 23 52 0B 80 F0 FF FF  ..+e@....#R.....
2070: 7F F0 FF FF 7F 6C 63 30  35 45 0B 80 F0 FF FF 7F  .....lc05E......
2080: F0 FF FF 7F 6C 63 30 36  04 80 55 0B 80 F0 FF FF  ....lc06..U.....
2090: 7F F0 FF FF 7F 6C 63 30  36 27 10 7B 40 02 01 05  .....lc06'.{@...
20A0: 02 07 7F 00 80 80 C1 20  03 09 10 00 80 45 0B 80  ....... .....E..
20B0: F0 FF FF 7F F0 FF FF 7F  6C 68 6D 32 04 80 01 A8  ........lhm2....
20C0: 21 02 07 7F 6B 80 80 E2  20 03 09 10 6B 80 45 0B  !...k... ...k.E.
20D0: 80 F0 FF FF 7F F0 FF FF  7F 6C 68 6D 32 04 80 01  .........lhm2...
20E0: A8 21 02 07 7F 6C 80 80  03 21 03 09 10 6C 80 45  .!...l...!...l.E
20F0: 0B 80 F0 FF FF 7F F0 FF  FF 7F 6C 65 6D 32 04 80  ..........lem2..
2100: 01 A8 21 02 07 7F 6D 80  80 24 21 03 09 10 6D 80  ..!...m..$!...m.
2110: 45 0B 80 F0 FF FF 7F F0  FF FF 7F 6C 65 6D 32 04  E..........lem2.
2120: 80 01 A8 21 02 07 7F 5F  80 80 45 21 03 09 10 5F  ...!..._..E!..._
2130: 80 45 0B 80 F0 FF FF 7F  F0 FF FF 7F 6C 74 72 32  .E..........ltr2
2140: 04 80 01 A8 21 02 07 7F  50 80 80 66 21 03 09 10  ....!...P..f!...
2150: 50 80 45 0B 80 F0 FF FF  7F F0 FF FF 7F 6C 74 72  P.E..........ltr
2160: 32 04 80 01 A8 21 02 07  7F 6E 80 80 87 21 03 09  2....!...n...!..
2170: 10 6E 80 45 0B 80 F0 FF  FF 7F F0 FF FF 7F 6C 6D  .n.E..........lm
2180: 74 32 04 80 01 A8 21 02  07 7F 6F 80 80 A8 21 03  t2....!...o...!.
2190: 09 10 6F 80 45 0B 80 F0  FF FF 7F F0 FF FF 7F 6C  ..o.E..........l
21A0: 67 6C 32 04 80 01 A8 21  27 10 7B 40 02 01 07 5B  gl2....!'.{@...[
21B0: 88 80 65 40 02 01 65 40  02 01 62 67 30 30 1C 02  ..e@..e@..bg00..
21C0: 80 45 29 80 F0 FF FF 7F  F0 FF FF 7F 31 30 34 34  .E).........1044
21D0: 04 80 1C 0F 80 2B 65 40  02 01 8C 80 23 5D 04 80  .....+e@....#]..
21E0: 69 80 1C 0E 80 1A 0A 34  1C 8D 80 52 0B 80 F0 FF  i......4...R....
21F0: FF 7F F0 FF FF 7F 6C 63  30 39 1C 02 80 AB 11 04  ......lc09......
2200: 80 1C 00 80 02 00 00 04  80 00 0F 22 30 21 00 46  ..........."0!.F
2210: 00 45 26 80 F0 FF FF 7F  F0 FF FF 7F 66 64 69 32  .E&.........fdi2
2220: 04 80 21 00 6C F0 FF FF  7F 04 80 00 80 29 10 59  ..!.l........).Y
2230: 40 02 01 02 29 10 5A 40  02 01 04 29 10 60 40 02  @...).Z@...).`@.
2240: 01 04 29 10 61 40 02 01  04 29 10 62 40 02 01 04  ..).a@...).b@...
2250: 29 10 64 40 02 01 04 29  10 65 40 02 01 02 29 10  ).d@...).e@...).
2260: 66 40 02 01 04 92 01 F0  FF FF 7F 92 01 59 40 02  f@...........Y@.
2270: 01 92 01 5A 40 02 01 92  01 60 40 02 01 92 01 61  ...Z@....`@....a
2280: 40 02 01 92 01 62 40 02  01 92 01 64 40 02 01 92  @....b@....d@...
2290: 01 65 40 02 01 92 01 66  40 02 01 94 01 F0 FF FF  .e@....f@.......
22A0: 7F 94 01 59 40 02 01 94  01 5A 40 02 01 94 01 60  ...Y@....Z@....`
22B0: 40 02 01 94 01 61 40 02  01 94 01 62 40 02 01 94  @....a@....b@...
22C0: 01 64 40 02 01 94 01 65  40 02 01 94 01 66 40 02  .d@....e@....f@.
22D0: 01 BA F0 FF FF 7F 8E 80  8F 80 64 80 90 80 29 10  ..........d...).
22E0: 59 40 02 01 13 29 10 5A  40 02 01 0F 29 10 60 40  Y@...).Z@...).`@
22F0: 02 01 0F 29 10 61 40 02  01 0F 29 10 62 40 02 01  ...).a@...).b@..
2300: 0F 29 10 64 40 02 01 0A  29 10 65 40 02 01 09 29  .).d@...).e@...)
2310: 10 66 40 02 01 09 80 F0  FF FF 7F 80 59 40 02 01  .f@.........Y@..
2320: 80 5A 40 02 01 80 60 40  02 01 80 61 40 02 01 80  .Z@...`@...a@...
2330: 62 40 02 01 80 64 40 02  01 80 65 40 02 01 80 66  b@...d@...e@...f
2340: 40 02 01 1B                                       @...            
```

#### Opcodes

```
  0: 0x0842 [0x42] SET_CLI_EVENT_CANCEL_DATA()
  1: 0x0843 [0x1A] CALL_SUBROUTINE(address=0x340A)
  2: 0x0846 [0x46] CAMERA_CONTROL: Disable user control
  3: 0x0848 [0x38] SET_CLIENT_EVENT_MODE(mode=19*)
  4: 0x084B [0x22] ENTITY_HIDE_FLAG(enabled=0x00)
  5: 0x084D [0x4E] SET_ENTITY_HIDE_FLAG: Show LocalPlayer
  6: 0x0853 [0x43] SEND_EVENT_UPDATE: Send pending tag to server (packet 0x005B)
  7: 0x0855 [0x43] SEND_EVENT_UPDATE: Check pending flag (skip if not pending)
  8: 0x0857 [0x03] ExtData[1]->WorkLocal[1] = Work_Zone[8]
  9: 0x085C [0x03] ExtData[1]->WorkLocal[0] = Work_Zone[9]
 10: 0x0861 [0x5C] MUSIC_CONTROL: Set Idle (Day) music to song 137*
 11: 0x0865 [0x5C] MUSIC_CONTROL: Set Idle (Night) music to song 137*
 12: 0x0869 [0x9A] WAIT_MUSIC_SERVER()
 13: 0x086A [0x1A] CALL_SUBROUTINE(address=0x2224)
 14: 0x086D [0x1C] WAIT(15* ticks)
 15: 0x0870 [0x5B] LOAD_EXT_SCHEDULER: Load scheduler "bid2" with entities [Promathia (ID: 16924772/0x01024064), Promathia (ID: 16924772/0x01024064)], work=762*
 16: 0x087F [0x1C] WAIT(15* ticks)
 17: 0x0882 [0x45] LOAD_SCHEDULED_TASK: Load scheduler "6123" with entities [LocalPlayer, LocalPlayer], work=[124*, 0*]
 18: 0x0893 [0x45] LOAD_SCHEDULED_TASK: Load scheduler "lb01" with entities [LocalPlayer, LocalPlayer], work=[29*, 0*]
 19: 0x08A4 [0x5B] LOAD_EXT_SCHEDULER: Load scheduler "ed00" with entities [Promathia (ID: 16924772/0x01024064), Promathia (ID: 16924772/0x01024064)], work=762*
 20: 0x08B3 [0x1A] CALL_SUBROUTINE(address=0x33E9)
 21: 0x08B6 [0x1C] WAIT(200* ticks)
 22: 0x08B9 [0x45] LOAD_SCHEDULED_TASK: Load scheduler "8240" with entities [LocalPlayer, LocalPlayer], work=[124*, 0*]
 23: 0x08CA [0x1C] WAIT(40* ticks)
 24: 0x08CD [0x45] LOAD_SCHEDULED_TASK: Load scheduler "vbon" with entities [Promathia (ID: 16924772/0x01024064), Promathia (ID: 16924772/0x01024064)], work=[31*, 0*]
 25: 0x08DE [0x1C] WAIT(30* ticks)
 26: 0x08E1 [0x52] END_LOAD_SCHEDULER: End scheduler "lb01" with entities [LocalPlayer, LocalPlayer], work=29*
 27: 0x08F0 [0x45] LOAD_SCHEDULED_TASK: Load scheduler "lb02" with entities [LocalPlayer, LocalPlayer], work=[29*, 0*]
 28: 0x0901 [0x5B] LOAD_EXT_SCHEDULER: Load scheduler "zit0" with entities [Makki-Chebukki (ID: 16924768/0x01024060), Makki-Chebukki (ID: 16924768/0x01024060)], work=336*
 29: 0x0910 [0x2B] Makki-Chebukki (ID: 16924768/0x01024060) [7657*]:
    → "Lord Promathia!"
 30: 0x0917 [0x1C] WAIT(36* ticks)
 31: 0x091A [0x45] LOAD_SCHEDULED_TASK: Load scheduler "vbof" with entities [Promathia (ID: 16924772/0x01024064), Promathia (ID: 16924772/0x01024064)], work=[31*, 0*]
 32: 0x092B [0x5B] LOAD_EXT_SCHEDULER: Load scheduler "zit0" with entities [Kukki-Chebukki (ID: 16924769/0x01024061), Kukki-Chebukki (ID: 16924769/0x01024061)], work=336*
 33: 0x093A [0x2B] Kukki-Chebukki (ID: 16924769/0x01024061) [7658*]:
    → "Our Master!"
 34: 0x0941 [0x1C] WAIT(27* ticks)
 35: 0x0944 [0x5B] LOAD_EXT_SCHEDULER: Load scheduler "zit0" with entities [Cherukiki (ID: 16924770/0x01024062), Cherukiki (ID: 16924770/0x01024062)], work=337*
 36: 0x0953 [0x2B] Cherukiki (ID: 16924770/0x01024062) [7659*]:
    → "You can't fall!"
 37: 0x095A [0x23] WAIT_FOR_DIALOG_INTERACTION
 38: 0x095B [0x5B] LOAD_EXT_SCHEDULER: Load scheduler "td00" with entities [Prishe (ID: 16924774/0x01024066), Prishe (ID: 16924774/0x01024066)], work=699*
 39: 0x096A [0x52] END_LOAD_SCHEDULER: End scheduler "lb02" with entities [LocalPlayer, LocalPlayer], work=29*
 40: 0x0979 [0x45] LOAD_SCHEDULED_TASK: Load scheduler "lb03" with entities [LocalPlayer, LocalPlayer], work=[29*, 0*]
 41: 0x098A [0x45] LOAD_SCHEDULED_TASK: Load scheduler "6084" with entities [LocalPlayer, LocalPlayer], work=[124*, 0*]
 42: 0x099B [0x2B] Prishe (ID: 16924774/0x01024066) [7660*]:
    → "Say goodnight!"
 43: 0x09A2 [0x23] WAIT_FOR_DIALOG_INTERACTION
 44: 0x09A3 [0x5B] LOAD_EXT_SCHEDULER: Load scheduler "ob00" with entities [Selh'teus (ID: 16924762/0x0102405A), Selh'teus (ID: 16924762/0x0102405A)], work=732*
 45: 0x09B2 [0x1C] WAIT(15* ticks)
 46: 0x09B5 [0x52] END_LOAD_SCHEDULER: End scheduler "lb03" with entities [LocalPlayer, LocalPlayer], work=29*
 47: 0x09C4 [0x45] LOAD_SCHEDULED_TASK: Load scheduler "lb05" with entities [LocalPlayer, LocalPlayer], work=[29*, 0*]
 48: 0x09D5 [0x45] LOAD_SCHEDULED_TASK: Load scheduler "4022" with entities [LocalPlayer, LocalPlayer], work=[124*, 0*]
 49: 0x09E6 [0x2B] Selh'teus (ID: 16924762/0x0102405A) [7661*]:
    → "Wait, Prishe! Not yet!"
 50: 0x09ED [0x1C] WAIT(30* ticks)
 51: 0x09F0 [0x27] REQ_SET(priority=0x10, entity_id=Prishe (ID: 16924774/0x01024066), tag_num=0x0A)
 52: 0x09F7 [0x5B] LOAD_EXT_SCHEDULER: Load scheduler "td01" with entities [Prishe (ID: 16924774/0x01024066), Prishe (ID: 16924774/0x01024066)], work=699*
 53: 0x0A06 [0x1C] WAIT(15* ticks)
 54: 0x0A09 [0x52] END_LOAD_SCHEDULER: End scheduler "lb05" with entities [LocalPlayer, LocalPlayer], work=29*
 55: 0x0A18 [0x45] LOAD_SCHEDULED_TASK: Load scheduler "lb04" with entities [LocalPlayer, LocalPlayer], work=[29*, 0*]
 56: 0x0A29 [0x1C] WAIT(105* ticks)
 57: 0x0A2C [0x52] END_LOAD_SCHEDULER: End scheduler "lb04" with entities [LocalPlayer, LocalPlayer], work=29*
 58: 0x0A3B [0x45] LOAD_SCHEDULED_TASK: Load scheduler "lb06" with entities [LocalPlayer, LocalPlayer], work=[29*, 0*]
 59: 0x0A4C [0x27] REQ_SET(priority=0x10, entity_id=Prishe (ID: 16924774/0x01024066), tag_num=0x0B)
 60: 0x0A53 [0x27] REQ_SET(priority=0x10, entity_id=Prishe (ID: 16924774/0x01024066), tag_num=0x05)
 61: 0x0A5A [0x81] SET_ENTITY_BLINKING(blink_flag=0x00, entity=Prishe (ID: 16924761/0x01024059))
 62: 0x0A60 [0x7C] Prishe (ID: 16924761/0x01024059)->Render.Flags2 |= 0x00
 63: 0x0A66 [0x45] LOAD_SCHEDULED_TASK: Load scheduler "3037" with entities [LocalPlayer, LocalPlayer], work=[124*, 0*]
 64: 0x0A77 [0x5B] LOAD_EXT_SCHEDULER: Load scheduler "ed01" with entities [Promathia (ID: 16924772/0x01024064), Promathia (ID: 16924772/0x01024064)], work=771*
 65: 0x0A86 [0x1A] CALL_SUBROUTINE(address=0x342B)
 66: 0x0A89 [0x1C] WAIT(45* ticks)
 67: 0x0A8C [0x27] REQ_SET(priority=0x10, entity_id=Prishe (ID: 16924761/0x01024059), tag_num=0x16)
 68: 0x0A93 [0x5B] LOAD_EXT_SCHEDULER: Load scheduler "b300" with entities [Prishe (ID: 16924761/0x01024059), Prishe (ID: 16924761/0x01024059)], work=700*
 69: 0x0AA2 [0x1C] WAIT(15* ticks)
 70: 0x0AA5 [0x6C] FADE_ENTITY_COLOR(entity_id=Prishe (ID: 16924761/0x01024059), end_alpha=128*, fade_time=1*)
 71: 0x0AAE [0x52] END_LOAD_SCHEDULER: End scheduler "lb06" with entities [LocalPlayer, LocalPlayer], work=29*
 72: 0x0ABD [0x45] LOAD_SCHEDULED_TASK: Load scheduler "lba6" with entities [LocalPlayer, LocalPlayer], work=[29*, 0*]
 73: 0x0ACE [0x1C] WAIT(90* ticks)
 74: 0x0AD1 [0x2B] Prishe (ID: 16924761/0x01024059) [7729*]:
    → "!?"
 75: 0x0AD8 [0x45] LOAD_SCHEDULED_TASK: Load scheduler "s132" with entities [LocalPlayer, LocalPlayer], work=[124*, 0*]
 76: 0x0AE9 [0x9F] LOAD_SCHEDULED_TASK_ALT: Load scheduler "str0" with entities [Prishe (ID: 16924761/0x01024059), Prishe (ID: 16924761/0x01024059)], work=[167*, 0*]
 77: 0x0AFA [0x55] WAIT_LOAD_SCHEDULER: Wait for scheduler "lba6" with entities [LocalPlayer, LocalPlayer], work=29*
 78: 0x0B09 [0x45] LOAD_SCHEDULED_TASK: Load scheduler "lb07" with entities [LocalPlayer, LocalPlayer], work=[29*, 0*]
 79: 0x0B1A [0x9F] LOAD_SCHEDULED_TASK_ALT: Load scheduler "str0" with entities [Prishe (ID: 16924761/0x01024059), Prishe (ID: 16924761/0x01024059)], work=[147*, 0*]
 80: 0x0B2B [0x45] LOAD_SCHEDULED_TASK: Load scheduler "a123" with entities [LocalPlayer, LocalPlayer], work=[124*, 0*]
 81: 0x0B3C [0x53] WAIT_SCHEDULER_TASK: Wait for scheduler "b300" with entities [Prishe (ID: 16924761/0x01024059), Prishe (ID: 16924761/0x01024059)]
 82: 0x0B49 [0x27] REQ_SET(priority=0x10, entity_id=Prishe (ID: 16924761/0x01024059), tag_num=0x17)
 83: 0x0B50 [0x5B] LOAD_EXT_SCHEDULER: Load scheduler "b400" with entities [Prishe (ID: 16924761/0x01024059), Prishe (ID: 16924761/0x01024059)], work=701*
 84: 0x0B5F [0x5B] LOAD_EXT_SCHEDULER: Load scheduler "atb1" with entities [Selh'teus (ID: 16924762/0x0102405A), Selh'teus (ID: 16924762/0x0102405A)], work=783*
 85: 0x0B6E [0x79] Selh'teus (ID: 16924762/0x0102405A) looks at Promathia (ID: 16924772/0x01024064) (Basic look)
 86: 0x0B78 [0x2B] Promathia (ID: 16924772/0x01024064) [7730*]:
    → "Yearn..."
 87: 0x0B7F [0x23] WAIT_FOR_DIALOG_INTERACTION
 88: 0x0B80 [0x2B] Promathia (ID: 16924772/0x01024064) [7731*]:
    → "Desire..."
 89: 0x0B87 [0x23] WAIT_FOR_DIALOG_INTERACTION
 90: 0x0B88 [0x2B] Promathia (ID: 16924772/0x01024064) [7732*]:
    → "Hunger for..."
 91: 0x0B8F [0x23] WAIT_FOR_DIALOG_INTERACTION
 92: 0x0B90 [0x45] LOAD_SCHEDULED_TASK: Load scheduler "s067" with entities [LocalPlayer, LocalPlayer], work=[124*, 0*]
 93: 0x0BA1 [0x1C] WAIT(10* ticks)
 94: 0x0BA4 [0x9F] LOAD_SCHEDULED_TASK_ALT: Load scheduler "str1" with entities [Prishe (ID: 16924761/0x01024059), Prishe (ID: 16924761/0x01024059)], work=[167*, 0*]
 95: 0x0BB5 [0x2B] Promathia (ID: 16924772/0x01024064) [7733*]:
    → "...the end of mortality."
 96: 0x0BBC [0x23] WAIT_FOR_DIALOG_INTERACTION
 97: 0x0BBD [0x52] END_LOAD_SCHEDULER: End scheduler "lb07" with entities [LocalPlayer, LocalPlayer], work=29*
 98: 0x0BCC [0x45] LOAD_SCHEDULED_TASK: Load scheduler "lb47" with entities [LocalPlayer, LocalPlayer], work=[29*, 0*]
 99: 0x0BDD [0x45] LOAD_SCHEDULED_TASK: Load scheduler "k132" with entities [LocalPlayer, LocalPlayer], work=[124*, 0*]
100: 0x0BEE [0x45] LOAD_SCHEDULED_TASK: Load scheduler "k067" with entities [LocalPlayer, LocalPlayer], work=[124*, 0*]
101: 0x0BFF [0x1C] WAIT(30* ticks)
102: 0x0C02 [0x2B] Makki-Chebukki (ID: 16924768/0x01024060) [7662*]:
    → "Time for some divine punishment!"
103: 0x0C09 [0x23] WAIT_FOR_DIALOG_INTERACTION
104: 0x0C0A [0x52] END_LOAD_SCHEDULER: End scheduler "lb47" with entities [LocalPlayer, LocalPlayer], work=29*
105: 0x0C19 [0x45] LOAD_SCHEDULED_TASK: Load scheduler "lb08" with entities [LocalPlayer, LocalPlayer], work=[29*, 0*]
106: 0x0C2A [0x45] LOAD_SCHEDULED_TASK: Load scheduler "7242" with entities [LocalPlayer, LocalPlayer], work=[124*, 0*]
107: 0x0C3B [0x2C] CREATE_SCHEDULER_TASK: Create scheduler "cabk" with entities [Makki-Chebukki (ID: 16924768/0x01024060), Makki-Chebukki (ID: 16924768/0x01024060)]
108: 0x0C48 [0x1C] WAIT(45* ticks)
109: 0x0C4B [0x2B] Makki-Chebukki (ID: 16924768/0x01024060) [7663*]:
    → "Meee!"
110: 0x0C52 [0x52] END_LOAD_SCHEDULER: End scheduler "lb08" with entities [LocalPlayer, LocalPlayer], work=29*
111: 0x0C61 [0x45] LOAD_SCHEDULED_TASK: Load scheduler "lba8" with entities [LocalPlayer, LocalPlayer], work=[29*, 0*]
112: 0x0C72 [0x45] LOAD_SCHEDULED_TASK: Load scheduler "7242" with entities [LocalPlayer, LocalPlayer], work=[124*, 0*]
113: 0x0C83 [0x2C] CREATE_SCHEDULER_TASK: Create scheduler "cabk" with entities [Kukki-Chebukki (ID: 16924769/0x01024061), Kukki-Chebukki (ID: 16924769/0x01024061)]
114: 0x0C90 [0x1C] WAIT(45* ticks)
115: 0x0C93 [0x2B] Kukki-Chebukki (ID: 16924769/0x01024061) [7664*]:
    → "Teee!"
116: 0x0C9A [0x52] END_LOAD_SCHEDULER: End scheduler "lba8" with entities [LocalPlayer, LocalPlayer], work=29*
117: 0x0CA9 [0x45] LOAD_SCHEDULED_TASK: Load scheduler "lbb8" with entities [LocalPlayer, LocalPlayer], work=[29*, 0*]
118: 0x0CBA [0x45] LOAD_SCHEDULED_TASK: Load scheduler "7237" with entities [LocalPlayer, LocalPlayer], work=[124*, 0*]
119: 0x0CCB [0x5B] LOAD_EXT_SCHEDULER: Load scheduler "wai0" with entities [Cherukiki (ID: 16924770/0x01024062), Cherukiki (ID: 16924770/0x01024062)], work=337*
120: 0x0CDA [0x1C] WAIT(30* ticks)
121: 0x0CDD [0x2B] Cherukiki (ID: 16924770/0x01024062) [7665*]:
    → "Ooor!"
122: 0x0CE4 [0x1C] WAIT(15* ticks)
123: 0x0CE7 [0x2C] CREATE_SCHEDULER_TASK: Create scheduler "shbk" with entities [Makki-Chebukki (ID: 16924768/0x01024060), Makki-Chebukki (ID: 16924768/0x01024060)]
124: 0x0CF4 [0x2C] CREATE_SCHEDULER_TASK: Create scheduler "shbk" with entities [Kukki-Chebukki (ID: 16924769/0x01024061), Kukki-Chebukki (ID: 16924769/0x01024061)]
125: 0x0D01 [0x1C] WAIT(30* ticks)
126: 0x0D04 [0x52] END_LOAD_SCHEDULER: End scheduler "lbb8" with entities [LocalPlayer, LocalPlayer], work=29*
127: 0x0D13 [0x45] LOAD_SCHEDULED_TASK: Load scheduler "lb09" with entities [LocalPlayer, LocalPlayer], work=[29*, 0*]
128: 0x0D24 [0x9F] LOAD_SCHEDULED_TASK_ALT: Load scheduler "hit0" with entities [EventEntity, Promathia (ID: 16924772/0x01024064)], work=[152*, 0*]
129: 0x0D35 [0x1C] WAIT(60* ticks)
130: 0x0D38 [0x52] END_LOAD_SCHEDULER: End scheduler "lb09" with entities [LocalPlayer, LocalPlayer], work=29*
131: 0x0D47 [0x45] LOAD_SCHEDULED_TASK: Load scheduler "lba9" with entities [LocalPlayer, LocalPlayer], work=[29*, 0*]
132: 0x0D58 [0x1C] WAIT(60* ticks)
133: 0x0D5B [0x52] END_LOAD_SCHEDULER: End scheduler "lba9" with entities [LocalPlayer, LocalPlayer], work=29*
134: 0x0D6A [0x45] LOAD_SCHEDULED_TASK: Load scheduler "lbb9" with entities [LocalPlayer, LocalPlayer], work=[29*, 0*]
135: 0x0D7B [0x1C] WAIT(30* ticks)
136: 0x0D7E [0x52] END_LOAD_SCHEDULER: End scheduler "lbb9" with entities [LocalPlayer, LocalPlayer], work=29*
137: 0x0D8D [0x45] LOAD_SCHEDULED_TASK: Load scheduler "lbc9" with entities [LocalPlayer, LocalPlayer], work=[29*, 0*]
138: 0x0D9E [0x1C] WAIT(70* ticks)
139: 0x0DA1 [0x52] END_LOAD_SCHEDULER: End scheduler "lbc9" with entities [LocalPlayer, LocalPlayer], work=29*
140: 0x0DB0 [0x45] LOAD_SCHEDULED_TASK: Load scheduler "lb11" with entities [LocalPlayer, LocalPlayer], work=[29*, 0*]
141: 0x0DC1 [0x4A] Makki-Chebukki (ID: 16924768/0x01024060) looks at Cherukiki (ID: 16924770/0x01024062)
142: 0x0DCA [0x1C] WAIT(30* ticks)
143: 0x0DCD [0x4A] Kukki-Chebukki (ID: 16924769/0x01024061) looks at Cherukiki (ID: 16924770/0x01024062)
144: 0x0DD6 [0x1C] WAIT(15* ticks)
145: 0x0DD9 [0x2B] Cherukiki (ID: 16924770/0x01024062) [7667*]:
    → "I think we overdid it..."
146: 0x0DE0 [0x23] WAIT_FOR_DIALOG_INTERACTION
147: 0x0DE1 [0x27] REQ_SET(priority=0x10, entity_id=??? (ID: 16924795/0x0102407B), tag_num=0x03)
148: 0x0DE8 [0x5B] LOAD_EXT_SCHEDULER: Load scheduler "hoh0" with entities [Cherukiki (ID: 16924770/0x01024062), Cherukiki (ID: 16924770/0x01024062)], work=433*
149: 0x0DF7 [0x1C] WAIT(60* ticks)
150: 0x0DFA [0x52] END_LOAD_SCHEDULER: End scheduler "lb11" with entities [LocalPlayer, LocalPlayer], work=29*
151: 0x0E09 [0x45] LOAD_SCHEDULED_TASK: Load scheduler "lb10" with entities [LocalPlayer, LocalPlayer], work=[29*, 0*]
152: 0x0E1A [0x2B] Selh'teus (ID: 16924762/0x0102405A) [7666*]:
    → "Prishe!!!"
153: 0x0E21 [0x23] WAIT_FOR_DIALOG_INTERACTION
154: 0x0E22 [0x27] REQ_SET(priority=0x10, entity_id=Prishe (ID: 16924761/0x01024059), tag_num=0x14)
155: 0x0E29 [0x5B] LOAD_EXT_SCHEDULER: Load scheduler "b401" with entities [Prishe (ID: 16924761/0x01024059), Prishe (ID: 16924761/0x01024059)], work=701*
156: 0x0E38 [0x1C] WAIT(15* ticks)
157: 0x0E3B [0x52] END_LOAD_SCHEDULER: End scheduler "lb10" with entities [LocalPlayer, LocalPlayer], work=29*
158: 0x0E4A [0x45] LOAD_SCHEDULED_TASK: Load scheduler "lb12" with entities [LocalPlayer, LocalPlayer], work=[29*, 0*]
159: 0x0E5B [0x45] LOAD_SCHEDULED_TASK: Load scheduler "s124" with entities [LocalPlayer, LocalPlayer], work=[124*, 0*]
160: 0x0E6C [0x45] LOAD_SCHEDULED_TASK: Load scheduler "s125" with entities [LocalPlayer, LocalPlayer], work=[124*, 0*]
161: 0x0E7D [0x1C] WAIT(210* ticks)
162: 0x0E80 [0x45] LOAD_SCHEDULED_TASK: Load scheduler "4090" with entities [LocalPlayer, LocalPlayer], work=[124*, 0*]
163: 0x0E91 [0x2B] Prishe (ID: 16924761/0x01024059) [7734*]:
    → "Ugh...!"
164: 0x0E98 [0x1C] WAIT(24* ticks)
165: 0x0E9B [0x5B] LOAD_EXT_SCHEDULER: Load scheduler "met0" with entities [Promathia (ID: 16924772/0x01024064), Promathia (ID: 16924772/0x01024064)], work=772*
166: 0x0EAA [0x1C] WAIT(6* ticks)
167: 0x0EAD [0x52] END_LOAD_SCHEDULER: End scheduler "lb12" with entities [LocalPlayer, LocalPlayer], work=29*
168: 0x0EBC [0x45] LOAD_SCHEDULED_TASK: Load scheduler "lb13" with entities [LocalPlayer, LocalPlayer], work=[29*, 0*]
169: 0x0ECD [0x45] LOAD_SCHEDULED_TASK: Load scheduler "6137" with entities [LocalPlayer, LocalPlayer], work=[124*, 0*]
170: 0x0EDE [0x1C] WAIT(330* ticks)
171: 0x0EE1 [0x45] LOAD_SCHEDULED_TASK: Load scheduler "6083" with entities [LocalPlayer, LocalPlayer], work=[124*, 0*]
172: 0x0EF2 [0x81] SET_ENTITY_BLINKING(blink_flag=0x01, entity=Prishe (ID: 16924761/0x01024059))
173: 0x0EF8 [0x7C] Prishe (ID: 16924761/0x01024059)->Render.Flags2 |= 0x01
174: 0x0EFE [0x2B] Prishe (ID: 16924761/0x01024059) [7668*]:
    → "This is not the end...!"
175: 0x0F05 [0x23] WAIT_FOR_DIALOG_INTERACTION
176: 0x0F06 [0x52] END_LOAD_SCHEDULER: End scheduler "lb13" with entities [LocalPlayer, LocalPlayer], work=29*
177: 0x0F15 [0x45] LOAD_SCHEDULED_TASK: Load scheduler "lb14" with entities [LocalPlayer, LocalPlayer], work=[29*, 0*]
178: 0x0F26 [0x1C] WAIT(60* ticks)
179: 0x0F29 [0x45] LOAD_SCHEDULED_TASK: Load scheduler "k124" with entities [LocalPlayer, LocalPlayer], work=[124*, 0*]
180: 0x0F3A [0x9F] LOAD_SCHEDULED_TASK_ALT: Load scheduler "kill" with entities [Prishe (ID: 16924761/0x01024059), Prishe (ID: 16924761/0x01024059)], work=[167*, 0*]
181: 0x0F4B [0x2B] Prishe (ID: 16924761/0x01024059) [7669*]:
    → "There will be no apocalypse!"
182: 0x0F52 [0x23] WAIT_FOR_DIALOG_INTERACTION
183: 0x0F53 [0x53] WAIT_SCHEDULER_TASK: Wait for scheduler "b401" with entities [Prishe (ID: 16924761/0x01024059), Prishe (ID: 16924761/0x01024059)]
184: 0x0F60 [0x5B] LOAD_EXT_SCHEDULER: Load scheduler "b50s" with entities [Prishe (ID: 16924761/0x01024059), Prishe (ID: 16924761/0x01024059)], work=702*
185: 0x0F6F [0x1C] WAIT(15* ticks)
186: 0x0F72 [0x45] LOAD_SCHEDULED_TASK: Load scheduler "4003" with entities [LocalPlayer, LocalPlayer], work=[124*, 0*]
187: 0x0F83 [0x52] END_LOAD_SCHEDULER: End scheduler "lb14" with entities [LocalPlayer, LocalPlayer], work=29*
188: 0x0F92 [0x45] LOAD_SCHEDULED_TASK: Load scheduler "lb15" with entities [LocalPlayer, LocalPlayer], work=[29*, 0*]
189: 0x0FA3 [0x1C] WAIT(140* ticks)
190: 0x0FA6 [0x45] LOAD_SCHEDULED_TASK: Load scheduler "8154" with entities [LocalPlayer, LocalPlayer], work=[124*, 0*]
191: 0x0FB7 [0x55] WAIT_LOAD_SCHEDULER: Wait for scheduler "lb15" with entities [LocalPlayer, LocalPlayer], work=29*
192: 0x0FC6 [0x45] LOAD_SCHEDULED_TASK: Load scheduler "lb16" with entities [LocalPlayer, LocalPlayer], work=[29*, 0*]
193: 0x0FD7 [0x45] LOAD_SCHEDULED_TASK: Load scheduler "nage" with entities [LocalPlayer, LocalPlayer], work=[124*, 0*]
194: 0x0FE8 [0x2B] Prishe (ID: 16924761/0x01024059) [7735*]:
    → "We were born for the purpose of living!"
195: 0x0FEF [0x1C] WAIT(70* ticks)
196: 0x0FF2 [0x52] END_LOAD_SCHEDULER: End scheduler "lb16" with entities [LocalPlayer, LocalPlayer], work=29*
197: 0x1001 [0x45] LOAD_SCHEDULED_TASK: Load scheduler "lb17" with entities [LocalPlayer, LocalPlayer], work=[29*, 0*]
198: 0x1012 [0x27] REQ_SET(priority=0x10, entity_id=Prishe (ID: 16924761/0x01024059), tag_num=0x15)
199: 0x1019 [0x45] LOAD_SCHEDULED_TASK: Load scheduler "k125" with entities [LocalPlayer, LocalPlayer], work=[124*, 0*]
200: 0x102A [0x45] LOAD_SCHEDULED_TASK: Load scheduler "s017" with entities [LocalPlayer, LocalPlayer], work=[124*, 0*]
201: 0x103B [0x1C] WAIT(30* ticks)
202: 0x103E [0x5B] LOAD_EXT_SCHEDULER: Load scheduler "atb2" with entities [Selh'teus (ID: 16924762/0x0102405A), Selh'teus (ID: 16924762/0x0102405A)], work=783*
203: 0x104D [0x9F] LOAD_SCHEDULED_TASK_ALT: Load scheduler "nage" with entities [Selh'teus (ID: 16924762/0x0102405A), Selh'teus (ID: 16924762/0x0102405A)], work=[157*, 0*]
204: 0x105E [0x45] LOAD_SCHEDULED_TASK: Load scheduler "6119" with entities [LocalPlayer, LocalPlayer], work=[124*, 0*]
205: 0x106F [0x1C] WAIT(20* ticks)
206: 0x1072 [0x52] END_LOAD_SCHEDULER: End scheduler "lb17" with entities [LocalPlayer, LocalPlayer], work=29*
207: 0x1081 [0x45] LOAD_SCHEDULED_TASK: Load scheduler "lb33" with entities [LocalPlayer, LocalPlayer], work=[29*, 0*]
208: 0x1092 [0x45] LOAD_SCHEDULED_TASK: Load scheduler "k017" with entities [LocalPlayer, LocalPlayer], work=[124*, 0*]
209: 0x10A3 [0x55] WAIT_LOAD_SCHEDULER: Wait for scheduler "lb33" with entities [LocalPlayer, LocalPlayer], work=29*
210: 0x10B2 [0x45] LOAD_SCHEDULED_TASK: Load scheduler "lb98" with entities [LocalPlayer, LocalPlayer], work=[29*, 0*]
211: 0x10C3 [0x1C] WAIT(10* ticks)
212: 0x10C6 [0x45] LOAD_SCHEDULED_TASK: Load scheduler "6042" with entities [LocalPlayer, LocalPlayer], work=[124*, 0*]
213: 0x10D7 [0x9F] LOAD_SCHEDULED_TASK_ALT: Load scheduler "str0" with entities [EventEntity, EventEntity], work=[163*, 0*]
214: 0x10E8 [0x1C] WAIT(30* ticks)
215: 0x10EB [0x45] LOAD_SCHEDULED_TASK: Load scheduler "0wos" with entities [LocalPlayer, LocalPlayer], work=[124*, 0*]
216: 0x10FC [0x1C] WAIT(15* ticks)
217: 0x10FF [0x45] LOAD_SCHEDULED_TASK: Load scheduler "6126" with entities [LocalPlayer, LocalPlayer], work=[124*, 0*]
218: 0x1110 [0x1C] WAIT(135* ticks)
219: 0x1113 [0x52] END_LOAD_SCHEDULER: End scheduler "lb98" with entities [LocalPlayer, LocalPlayer], work=29*
220: 0x1122 [0x27] REQ_SET(priority=0x10, entity_id=Prishe (ID: 16924761/0x01024059), tag_num=0x15)
221: 0x1129 [0x27] REQ_SET(priority=0x10, entity_id=Promathia (ID: 16924772/0x01024064), tag_num=0x0B)
222: 0x1130 [0x5B] LOAD_EXT_SCHEDULER: Load scheduler "ed03" with entities [Promathia (ID: 16924772/0x01024064), Promathia (ID: 16924772/0x01024064)], work=772*
223: 0x113F [0x9F] LOAD_SCHEDULED_TASK_ALT: Load scheduler "byrh" with entities [Promathia (ID: 16924772/0x01024064), Promathia (ID: 16924772/0x01024064)], work=[166*, 0*]
224: 0x1150 [0x45] LOAD_SCHEDULED_TASK: Load scheduler "lb19" with entities [LocalPlayer, LocalPlayer], work=[29*, 0*]
225: 0x1161 [0x45] LOAD_SCHEDULED_TASK: Load scheduler "6127" with entities [LocalPlayer, LocalPlayer], work=[124*, 0*]
226: 0x1172 [0x1A] CALL_SUBROUTINE(address=0x342B)
227: 0x1175 [0x1C] WAIT(120* ticks)
228: 0x1178 [0x52] END_LOAD_SCHEDULER: End scheduler "lb19" with entities [LocalPlayer, LocalPlayer], work=29*
229: 0x1187 [0x45] LOAD_SCHEDULED_TASK: Load scheduler "lb20" with entities [LocalPlayer, LocalPlayer], work=[29*, 0*]
230: 0x1198 [0x45] LOAD_SCHEDULED_TASK: Load scheduler "s125" with entities [LocalPlayer, LocalPlayer], work=[124*, 0*]
231: 0x11A9 [0x1C] WAIT(30* ticks)
232: 0x11AC [0x2B] Selh'teus (ID: 16924762/0x0102405A) [7736*]:
    → "Magicite is forming...!"
233: 0x11B3 [0x55] WAIT_LOAD_SCHEDULER: Wait for scheduler "lb20" with entities [LocalPlayer, LocalPlayer], work=29*
234: 0x11C2 [0x45] LOAD_SCHEDULED_TASK: Load scheduler "lb45" with entities [LocalPlayer, LocalPlayer], work=[29*, 0*]
235: 0x11D3 [0x1C] WAIT(15* ticks)
236: 0x11D6 [0x5B] LOAD_EXT_SCHEDULER: Load scheduler "b600" with entities [Prishe (ID: 16924761/0x01024059), Prishe (ID: 16924761/0x01024059)], work=702*
237: 0x11E5 [0x45] LOAD_SCHEDULED_TASK: Load scheduler "6a84" with entities [LocalPlayer, LocalPlayer], work=[124*, 0*]
238: 0x11F6 [0x1C] WAIT(30* ticks)
239: 0x11F9 [0x2B] Prishe (ID: 16924761/0x01024059) [7737*]:
    → "The light of the crystal is illuminating the Emptiness within!"
240: 0x1200 [0x1C] WAIT(60* ticks)
241: 0x1203 [0x52] END_LOAD_SCHEDULER: End scheduler "lb45" with entities [LocalPlayer, LocalPlayer], work=29*
242: 0x1212 [0x45] LOAD_SCHEDULED_TASK: Load scheduler "lb21" with entities [LocalPlayer, LocalPlayer], work=[29*, 0*]
243: 0x1223 [0x1C] WAIT(120* ticks)
244: 0x1226 [0x5B] LOAD_EXT_SCHEDULER: Load scheduler "ed04" with entities [Promathia (ID: 16924772/0x01024064), Promathia (ID: 16924772/0x01024064)], work=772*
245: 0x1235 [0x1C] WAIT(45* ticks)
246: 0x1238 [0x52] END_LOAD_SCHEDULER: End scheduler "lb21" with entities [LocalPlayer, LocalPlayer], work=29*
247: 0x1247 [0x45] LOAD_SCHEDULED_TASK: Load scheduler "lb22" with entities [LocalPlayer, LocalPlayer], work=[29*, 0*]
248: 0x1258 [0x45] LOAD_SCHEDULED_TASK: Load scheduler "sa06" with entities [LocalPlayer, LocalPlayer], work=[124*, 0*]
249: 0x1269 [0x1C] WAIT(15* ticks)
250: 0x126C [0x9F] LOAD_SCHEDULED_TASK_ALT: Load scheduler "utro" with entities [Promathia (ID: 16924772/0x01024064), Promathia (ID: 16924772/0x01024064)], work=[166*, 0*]
251: 0x127D [0x1C] WAIT(135* ticks)
252: 0x1280 [0x45] LOAD_SCHEDULED_TASK: Load scheduler "6091" with entities [LocalPlayer, LocalPlayer], work=[124*, 0*]
253: 0x1291 [0x55] WAIT_LOAD_SCHEDULER: Wait for scheduler "lb22" with entities [LocalPlayer, LocalPlayer], work=29*
254: 0x12A0 [0x45] LOAD_SCHEDULED_TASK: Load scheduler "lb23" with entities [LocalPlayer, LocalPlayer], work=[29*, 0*]
255: 0x12B1 [0x55] WAIT_LOAD_SCHEDULER: Wait for scheduler "lb23" with entities [LocalPlayer, LocalPlayer], work=29*
256: 0x12C0 [0x45] LOAD_SCHEDULED_TASK: Load scheduler "lb24" with entities [LocalPlayer, LocalPlayer], work=[29*, 0*]
257: 0x12D1 [0x45] LOAD_SCHEDULED_TASK: Load scheduler "k146" with entities [LocalPlayer, LocalPlayer], work=[124*, 0*]
258: 0x12E2 [0x9F] LOAD_SCHEDULED_TASK_ALT: Load scheduler "kill" with entities [Promathia (ID: 16924772/0x01024064), Promathia (ID: 16924772/0x01024064)], work=[166*, 0*]
259: 0x12F3 [0x5B] LOAD_EXT_SCHEDULER: Load scheduler "ed05" with entities [Promathia (ID: 16924772/0x01024064), Promathia (ID: 16924772/0x01024064)], work=773*
260: 0x1302 [0x45] LOAD_SCHEDULED_TASK: Load scheduler "3237" with entities [LocalPlayer, LocalPlayer], work=[124*, 0*]
261: 0x1313 [0x1C] WAIT(30* ticks)
262: 0x1316 [0x2B] Promathia (ID: 16924772/0x01024064) [7738*]:
    → "Who calleth my name!?"
263: 0x131D [0x23] WAIT_FOR_DIALOG_INTERACTION
264: 0x131E [0x52] END_LOAD_SCHEDULER: End scheduler "lb24" with entities [LocalPlayer, LocalPlayer], work=29*
265: 0x132D [0x45] LOAD_SCHEDULED_TASK: Load scheduler "lb25" with entities [LocalPlayer, LocalPlayer], work=[29*, 0*]
266: 0x133E [0x5B] LOAD_EXT_SCHEDULER: Load scheduler "ed06" with entities [Promathia (ID: 16924772/0x01024064), Promathia (ID: 16924772/0x01024064)], work=773*
267: 0x134D [0x1C] WAIT(5* ticks)
268: 0x1350 [0x45] LOAD_SCHEDULED_TASK: Load scheduler "3199" with entities [LocalPlayer, LocalPlayer], work=[124*, 0*]
269: 0x1361 [0x1C] WAIT(70* ticks)
270: 0x1364 [0x5B] LOAD_EXT_SCHEDULER: Load scheduler "b700" with entities [Prishe (ID: 16924761/0x01024059), Prishe (ID: 16924761/0x01024059)], work=703*
271: 0x1373 [0x1C] WAIT(15* ticks)
272: 0x1376 [0x27] REQ_SET(priority=0x10, entity_id=Promathia (ID: 16924772/0x01024064), tag_num=0x0C)
273: 0x137D [0x6C] FADE_ENTITY_COLOR(entity_id=Promathia (ID: 16924772/0x01024064), end_alpha=0*, fade_time=1*)
274: 0x1386 [0x52] END_LOAD_SCHEDULER: End scheduler "lb25" with entities [LocalPlayer, LocalPlayer], work=29*
275: 0x1395 [0x45] LOAD_SCHEDULED_TASK: Load scheduler "lb26" with entities [LocalPlayer, LocalPlayer], work=[29*, 0*]
