# 16924799

## Common Data

| Field            | Value                     |
|------------------|---------------------------|
| Zone             | Empyreal Paradox (ID: 36) |
| Block Size       | 17100 bytes               |
| Total Events     | 8                         |
| References Count | 261                       |

## List of Events

| Event ID              | Entrypoint   |   Size |   Instructions |
|-----------------------|--------------|--------|----------------|
| [65535](#event-65535) | 0x0000       |      1 |              1 |
| [10](#event-10)       | 0x0001       |      6 |              4 |
| [9](#event-9)         | 0x0007       |   9871 |           1070 |
| [12](#event-12)       | 0x2696       |     23 |              5 |
| [11](#event-11)       | 0x26AD       |   3542 |            390 |
| [13](#event-13)       | 0x3483       |    618 |             69 |
| [15](#event-15)       | 0x36ED       |    626 |             76 |
| [16](#event-16)       | 0x395F       |   1319 |            135 |

## DAT References (imed_data)

|   Index | Hex Value   |   Dec Value |
|---------|-------------|-------------|
|       0 | 0x0001      |           1 |
|       1 | 0x001B      |          27 |
|       2 | 0x0005      |           5 |
|       3 | 0x0006      |           6 |
|       4 | 0x0007      |           7 |
|       5 | 0x0008      |           8 |
|       6 | 0xFFF81FDA  |  4294451162 |
|       7 | 0x7DA3A     |      514618 |
|       8 | 0xFFFE2B40  |  4294847296 |
|       9 | 0x0C7D      |        3197 |
|      10 | 0xFFF818DB  |  4294449371 |
|      11 | 0x7E030     |      516144 |
|      12 | 0xFFF8207C  |  4294451324 |
|      13 | 0x7EF05     |      519941 |
|      14 | 0xFFFE2758  |  4294846296 |
|      15 | 0x0456      |        1110 |
|      16 | 0xFFF81DDC  |  4294450652 |
|      17 | 0x7D614     |      513556 |
|      18 | 0x0B33      |        2867 |
|      19 | 0x001E      |          30 |
|      20 | 0x0099      |         153 |
|      21 | 0x02DD      |         733 |
|      22 | 0x0000      |           0 |
|      23 | 0x0F1A      |        3866 |
|      24 | 0x1E9A      |        7834 |
|      25 | 0x00C8      |         200 |
|      26 | 0x003C      |          60 |
|      27 | 0x1E9B      |        7835 |
|      28 | 0x0078      |         120 |
|      29 | 0x00A4      |         164 |
|      30 | 0x012C      |         300 |
|      31 | 0x1E9C      |        7836 |
|      32 | 0x005A      |          90 |
|      33 | 0x0F15      |        3861 |
|      34 | 0x1E9D      |        7837 |
|      35 | 0x000F      |          15 |
|      36 | 0x002D      |          45 |
|      37 | 0x1E9E      |        7838 |
|      38 | 0x1E9F      |        7839 |
|      39 | 0x1EA0      |        7840 |
|      40 | 0x1EA1      |        7841 |
|      41 | 0x1EA2      |        7842 |
|      42 | 0x1EA3      |        7843 |
|      43 | 0x1EA4      |        7844 |
|      44 | 0x1EA5      |        7845 |
|      45 | 0x0F16      |        3862 |
|      46 | 0x1EA6      |        7846 |
|      47 | 0x0082      |         130 |
|      48 | 0x1EA7      |        7847 |
|      49 | 0x003D      |          61 |
|      50 | 0x1EA8      |        7848 |
|      51 | 0x0208      |         520 |
|      52 | 0x0003      |           3 |
|      53 | 0xFFF8200F  |  4294451215 |
|      54 | 0x7D997     |      514455 |
|      55 | 0xFFFE2691  |  4294846097 |
|      56 | 0x0004      |           4 |
|      57 | 0xFFFE2A15  |  4294846997 |
|      58 | 0x7D9C9     |      514505 |
|      59 | 0xFFFE278B  |  4294846347 |
|      60 | 0xFFFE2759  |  4294846297 |
|      61 | 0x0F26      |        3878 |
|      62 | 0x0002      |           2 |
|      63 | 0x1EA9      |        7849 |
|      64 | 0x1EAA      |        7850 |
|      65 | 0x1EAB      |        7851 |
|      66 | 0x0067      |         103 |
|      67 | 0x00D2      |         210 |
|      68 | 0x0096      |         150 |
|      69 | 0x1EB0      |        7856 |
|      70 | 0x1EB1      |        7857 |
|      71 | 0x1EAC      |        7852 |
|      72 | 0x1EAD      |        7853 |
|      73 | 0x1EAE      |        7854 |
|      74 | 0x1EAF      |        7855 |
|      75 | 0x0F17      |        3863 |
|      76 | 0x0064      |         100 |
|      77 | 0xFFFFFE00  |  4294966784 |
|      78 | 0x1EB2      |        7858 |
|      79 | 0x1EB3      |        7859 |
|      80 | 0x02DB      |         731 |
|      81 | 0x1EB4      |        7860 |
|      82 | 0x1EB5      |        7861 |
|      83 | 0x1EB6      |        7862 |
|      84 | 0x0F12      |        3858 |
|      85 | 0x1EB7      |        7863 |
|      86 | 0x1EB8      |        7864 |
|      87 | 0x0311      |         785 |
|      88 | 0x007C      |         124 |
|      89 | 0x1EB9      |        7865 |
|      90 | 0x0F1B      |        3867 |
|      91 | 0x1EBA      |        7866 |
|      92 | 0xFFF82D41  |  4294454593 |
|      93 | 0x7F773     |      522099 |
|      94 | 0xFFFD1CDF  |  4294778079 |
|      95 | 0x0800      |        2048 |
|      96 | 0x005D      |          93 |
|      97 | 0x0046      |          70 |
|      98 | 0x00A5      |         165 |
|      99 | 0x0088      |         136 |
|     100 | 0x01AE      |         430 |
|     101 | 0x00B4      |         180 |
|     102 | 0x00A2      |         162 |
|     103 | 0x1EBB      |        7867 |
|     104 | 0x1EBC      |        7868 |
|     105 | 0x006E      |         110 |
|     106 | 0x1EBD      |        7869 |
|     107 | 0x1EBE      |        7870 |
|     108 | 0x1EBF      |        7871 |
|     109 | 0x1EC0      |        7872 |
|     110 | 0x1EC1      |        7873 |
|     111 | 0x0F20      |        3872 |
|     112 | 0x017C      |         380 |
|     113 | 0x1EC2      |        7874 |
|     114 | 0xFFF8195B  |  4294449499 |
|     115 | 0x7D820     |      514080 |
|     116 | 0xFFFE2B41  |  4294847297 |
|     117 | 0x0BB9      |        3001 |
|     118 | 0xFFF81A6A  |  4294449770 |
|     119 | 0x7D879     |      514169 |
|     120 | 0x0BB8      |        3000 |
|     121 | 0x0344      |         836 |
|     122 | 0x0050      |          80 |
|     123 | 0x0093      |         147 |
|     124 | 0xFFF815FA  |  4294448634 |
|     125 | 0x7D9A9     |      514473 |
|     126 | 0x1EC3      |        7875 |
|     127 | 0x1EC4      |        7876 |
|     128 | 0x0069      |         105 |
|     129 | 0x0A6B      |        2667 |
|     130 | 0x009E      |         158 |
|     131 | 0x0B40      |        2880 |
|     132 | 0x0B55      |        2901 |
|     133 | 0x0D25      |        3365 |
|     134 | 0x0EDE      |        3806 |
|     135 | 0x0D06      |        3334 |
|     136 | 0x0F33      |        3891 |
|     137 | 0x000A      |          10 |
|     138 | 0x0A28      |        2600 |
|     139 | 0x09C4      |        2500 |
|     140 | 0xFFF81302  |  4294447874 |
|     141 | 0x7DACB     |      514763 |
|     142 | 0x0116      |         278 |
|     143 | 0x0048      |          72 |
|     144 | 0x0052      |          82 |
|     145 | 0x005C      |          92 |
|     146 | 0x0066      |         102 |
|     147 | 0x0070      |         112 |
|     148 | 0x007A      |         122 |
|     149 | 0x0084      |         132 |
|     150 | 0x0906      |        2310 |
|     151 | 0x008E      |         142 |
|     152 | 0x0098      |         152 |
|     153 | 0x00AC      |         172 |
|     154 | 0x00B6      |         182 |
|     155 | 0x00C0      |         192 |
|     156 | 0x00CA      |         202 |
|     157 | 0x1EC5      |        7877 |
|     158 | 0x1EC6      |        7878 |
|     159 | 0x1EC7      |        7879 |
|     160 | 0x1EC8      |        7880 |
|     161 | 0xFFF81162  |  4294447458 |
|     162 | 0x7DCB9     |      515257 |
|     163 | 0x0254      |         596 |
|     164 | 0xFFF81782  |  4294449026 |
|     165 | 0x7E5A0     |      517536 |
|     166 | 0x00A0      |         160 |
|     167 | 0x1EC9      |        7881 |
|     168 | 0x0F21      |        3873 |
|     169 | 0x1ECA      |        7882 |
|     170 | 0x008C      |         140 |
|     171 | 0x0F34      |        3892 |
|     172 | 0x0032      |          50 |
|     173 | 0x0379      |         889 |
|     174 | 0x1ECB      |        7883 |
|     175 | 0x0014      |          20 |
|     176 | 0x1ECC      |        7884 |
|     177 | 0x0D6E      |        3438 |
|     178 | 0x00FA      |         250 |
|     179 | 0x0D66      |        3430 |
|     180 | 0x00C1      |         193 |
|     181 | 0x007F      |         127 |
|     182 | 0x0028      |          40 |
|     183 | 0x0F35      |        3893 |
|     184 | 0x1ECD      |        7885 |
|     185 | 0x1ECE      |        7886 |
|     186 | 0xFFF81D5B  |  4294450523 |
|     187 | 0x7E456     |      517206 |
|     188 | 0x04FD      |        1277 |
|     189 | 0xFFF80B15  |  4294445845 |
|     190 | 0x7BB47     |      506695 |
|     191 | 0x0CC4      |        3268 |
|     192 | 0xFFF80264  |  4294443620 |
|     193 | 0x7C198     |      508312 |
|     194 | 0x0D5C      |        3420 |
|     195 | 0x0F36      |        3894 |
|     196 | 0x0301      |         769 |
|     197 | 0x0F25      |        3877 |
|     198 | 0x1ED0      |        7888 |
|     199 | 0x00C9      |         201 |
|     200 | 0xCC152     |      835922 |
|     201 | 0xFFF98A80  |  4294544000 |
|     202 | 0xFFFF0600  |  4294903296 |
|     203 | 0x0CBD      |        3261 |
|     204 | 0xCC8ED     |      837869 |
|     205 | 0xFFF99DE5  |  4294548965 |
|     206 | 0xFFFF146A  |  4294906986 |
|     207 | 0xCCB4C     |      838476 |
|     208 | 0xFFF9B40C  |  4294554636 |
|     209 | 0xFFFF1988  |  4294908296 |
|     210 | 0x04ED      |        1261 |
|     211 | 0x00A1      |         161 |
|     212 | 0x0059      |          89 |
|     213 | 0x1E19      |        7705 |
|     214 | 0x00DB      |         219 |
|     215 | 0x0041      |          65 |
|     216 | 0x1ED1      |        7889 |
|     217 | 0x009A      |         154 |
|     218 | 0x1ED2      |        7890 |
|     219 | 0xFFFFFFCE  |  4294967246 |
|     220 | 0x1ED3      |        7891 |
|     221 | 0xCC6D2     |      837330 |
|     222 | 0xFFF992DE  |  4294546142 |
|     223 | 0xFFFF09E8  |  4294904296 |
|     224 | 0x0FFF      |        4095 |
|     225 | 0x009F      |         159 |
|     226 | 0x1ED4      |        7892 |
|     227 | 0x1ED5      |        7893 |
|     228 | 0x1ED6      |        7894 |
|     229 | 0x1ED7      |        7895 |
|     230 | 0x00F0      |         240 |
|     231 | 0xFFF7F5B4  |  4294440372 |
|     232 | 0x7F9C3     |      522691 |
|     233 | 0x0167      |         359 |
|     234 | 0xFFF7D2D8  |  4294431448 |
|     235 | 0x7E8A3     |      518307 |
|     236 | 0xFFFE13D0  |  4294841296 |
|     237 | 0x0F3C      |        3900 |
|     238 | 0xFFF83EF8  |  4294459128 |
|     239 | 0x8090C     |      526604 |
|     240 | 0x0B2F      |        2863 |
|     241 | 0x0307      |         775 |
|     242 | 0x0F37      |        3895 |
|     243 | 0x0090      |         144 |
|     244 | 0x0015      |          21 |
|     245 | 0x1ED8      |        7896 |
|     246 | 0x1ED9      |        7897 |
|     247 | 0x00AA      |         170 |
|     248 | 0x00BE      |         190 |
|     249 | 0x00E3      |         227 |
|     250 | 0x02FF      |         767 |
|     251 | 0x1F1B      |        7963 |
|     252 | 0x1F1C      |        7964 |
|     253 | 0x1F1D      |        7965 |
|     254 | 0x002F      |          47 |
|     255 | 0x00E4      |         228 |
|     256 | 0x00AE      |         174 |
|     257 | 0x00B8      |         184 |
|     258 | 0x00C2      |         194 |
|     259 | 0x00CC      |         204 |
|     260 | 0x00D7      |         215 |

## String References

- **7705**: 
- **7835**: Not completely. Humanity is still permitted to traverse this section.
- **7891**: The clarion call of the crystal fills your soul!
- **7892**: The hands of the clock turn back...
- **7893**: ...Only to stride forward once more...
- **7894**: ...To think we were to meet...
- **7895**: ...In a place beyond time...

## Events

### Event 65535

#### Metadata

| Field        | Value   |
|--------------|---------|
| Entrypoint   | 0x0000  |
| Data Size    | 1 bytes |
| Instructions | 1       |

```
      00 01 02 03 04 05 06 07  08 09 0A 0B 0C 0D 0E 0F
      -- -- -- -- -- -- -- --  -- -- -- -- -- -- -- --
0000: 00                                                .               
```

#### Opcodes

```
  0: 0x0000 [0x00] END_REQSTACK()
```

### Event 10

#### Metadata

| Field        | Value   |
|--------------|---------|
| Entrypoint   | 0x0001  |
| Data Size    | 6 bytes |
| Instructions | 4       |

```
      00 01 02 03 04 05 06 07  08 09 0A 0B 0C 0D 0E 0F
      -- -- -- -- -- -- -- --  -- -- -- -- -- -- -- --
0000:    42 1A 16 00 21 00                               B...!.         
```

#### Opcodes

```
  0: 0x0001 [0x42] SET_CLI_EVENT_CANCEL_DATA()
  1: 0x0002 [0x1A] CALL_SUBROUTINE(address=0x0016)
  2: 0x0005 [0x21] END_EVENT
  3: 0x0006 [0x00] END_REQSTACK()
```

### Event 9

#### Metadata

| Field        | Value      |
|--------------|------------|
| Entrypoint   | 0x0007     |
| Data Size    | 9871 bytes |
| Instructions | 1070       |

```
      00 01 02 03 04 05 06 07  08 09 0A 0B 0C 0D 0E 0F
      -- -- -- -- -- -- -- --  -- -- -- -- -- -- -- --
0000:                      42  03 01 10 00 80 43 00 43         B.....C.C
0010: 01 1A 16 00 21 00 03 00  00 02 10 03 01 00 03 10  ....!...........
0020: 03 02 00 04 10 03 03 00  05 10 03 04 00 06 10 03  ................
0030: 05 00 07 10 1A 58 3C 46  01 38 01 80 2F 00 81 40  .....X<F.8../..@
0040: 02 01 2F 00 82 40 02 01  2F 00 83 40 02 01 2F 00  ../..@../..@../.
0050: 84 40 02 01 2F 00 85 40  02 01 2F 00 86 40 02 01  .@../..@../..@..
0060: 2F 00 87 40 02 01 2F 00  88 40 02 01 4E 00 82 40  /..@../..@..N..@
0070: 02 01 4E 00 F0 FF FF 7F  4E 00 81 40 02 01 4E 00  ..N.....N..@..N.
0080: 84 40 02 01 4E 00 85 40  02 01 4E 00 86 40 02 01  .@..N..@..N..@..
0090: 4E 00 87 40 02 01 4E 00  88 40 02 01 22 00 92 01  N..@..N..@.."...
00A0: 81 40 02 01 92 01 82 40  02 01 92 01 83 40 02 01  .@.....@.....@..
00B0: 94 01 81 40 02 01 94 01  82 40 02 01 94 01 F0 FF  ...@.....@......
00C0: FF 7F 94 01 83 40 02 01  94 01 84 40 02 01 94 01  .....@.....@....
00D0: 85 40 02 01 94 01 86 40  02 01 94 01 87 40 02 01  .@.....@.....@..
00E0: 94 01 88 40 02 01 33 01  59 05 82 40 02 01 01 02  ...@..3.Y..@....
00F0: 87 7F 02 80 80 01 01 27  05 F0 FF FF 7F 23 01 3E  .......'.....#.>
0100: 01 02 87 7F 03 80 80 13  01 27 05 F0 FF FF 7F 23  .........'.....#
0110: 01 3E 01 02 87 7F 04 80  80 25 01 27 05 F0 FF FF  .>.......%.'....
0120: 7F 24 01 3E 01 02 87 7F  05 80 80 37 01 27 05 F0  .$.>.......7.'..
0130: FF FF 7F 25 01 3E 01 27  05 F0 FF FF 7F 26 BA F0  ...%.>.'.....&..
0140: FF FF 7F 06 80 07 80 08  80 09 80 37 0A 80 0B 80  ...........7....
0150: 08 80 09 80 BA 81 40 02  01 0A 80 0B 80 08 80 09  ......@.........
0160: 80 BA 82 40 02 01 0C 80  0D 80 0E 80 0F 80 BA 83  ...@............
0170: 40 02 01 10 80 11 80 08  80 12 80 BA 84 40 02 01  @............@..
0180: 10 80 11 80 08 80 12 80  BA 85 40 02 01 10 80 11  ..........@.....
0190: 80 08 80 12 80 BA 86 40  02 01 10 80 11 80 08 80  .......@........
01A0: 12 80 BA 87 40 02 01 10  80 11 80 08 80 12 80 BA  ....@...........
01B0: 88 40 02 01 10 80 11 80  08 80 12 80 80 81 40 02  .@............@.
01C0: 01 80 F0 FF FF 7F 80 F8  FF FF 7F 80 82 40 02 01  .............@..
01D0: 80 84 40 02 01 80 85 40  02 01 80 86 40 02 01 80  ..@....@....@...
01E0: 87 40 02 01 80 88 40 02  01 27 05 82 40 02 01 03  .@....@..'..@...
01F0: 27 05 84 40 02 01 03 27  05 85 40 02 01 03 27 05  '..@...'..@...'.
0200: 86 40 02 01 03 27 05 87  40 02 01 03 27 05 88 40  .@...'..@...'..@
0210: 02 01 03 1C 13 80 5C 00  14 80 5C 01 14 80 9A 45  ......\...\....E
0220: 15 80 F8 FF FF 7F F8 FF  FF 7F 73 30 30 30 16 80  ..........s000..
0230: 1A 37 3C 5B 17 80 81 40  02 01 81 40 02 01 77 61  .7<[...@...@..wa
0240: 70 6B 2B 81 40 02 01 18  80 1C 19 80 23 52 15 80  pk+.@.......#R..
0250: F8 FF FF 7F F8 FF FF 7F  73 30 30 30 45 15 80 F8  ........s000E...
0260: FF FF 7F F8 FF FF 7F 73  30 30 31 16 80 1C 1A 80  .......s001.....
0270: 1D 1B 80 1C 13 80 5B 17  80 81 40 02 01 81 40 02  ......[...@...@.
0280: 01 77 61 70 6B 1C 1C 80  23 52 15 80 F8 FF FF 7F  .wapk...#R......
0290: F8 FF FF 7F 73 30 30 31  45 15 80 F8 FF FF 7F F8  ....s001E.......
02A0: FF FF 7F 73 30 30 32 16  80 D0 1D 80 82 40 02 01  ...s002......@..
02B0: 82 40 02 01 6D 61 69 6E  16 80 1C 1A 80 4A F0 FF  .@..main.....J..
02C0: FF 7F 82 40 02 01 1C 13  80 4A 81 40 02 01 82 40  ...@.....J.@...@
02D0: 02 01 1C 1E 80 52 15 80  F8 FF FF 7F F8 FF FF 7F  .....R..........
02E0: 73 30 30 32 45 15 80 F8  FF FF 7F F8 FF FF 7F 73  s002E..........s
02F0: 30 37 33 16 80 1C 13 80  2B 82 40 02 01 1F 80 1C  073.....+.@.....
0300: 20 80 23 5B 21 80 81 40  02 01 81 40 02 01 74 6C   .#[!..@...@..tl
0310: 6B 30 52 15 80 F8 FF FF  7F F8 FF FF 7F 73 30 37  k0R..........s07
0320: 33 45 15 80 F8 FF FF 7F  F8 FF FF 7F 73 30 30 33  3E..........s003
0330: 16 80 2B 81 40 02 01 22  80 1C 23 80 1C 24 80 23  ..+.@.."..#..$.#
0340: 2B 81 40 02 01 25 80 23  5B 21 80 81 40 02 01 81  +.@..%.#[!..@...
0350: 40 02 01 74 6C 6B 31 52  15 80 F8 FF FF 7F F8 FF  @..tlk1R........
0360: FF 7F 73 30 30 33 45 15  80 F8 FF FF 7F F8 FF FF  ..s003E.........
0370: 7F 73 30 30 34 16 80 2B  82 40 02 01 26 80 23 2B  .s004..+.@..&.#+
0380: 82 40 02 01 27 80 23 52  15 80 F8 FF FF 7F F8 FF  .@..'.#R........
0390: FF 7F 73 30 30 34 45 15  80 F8 FF FF 7F F8 FF FF  ..s004E.........
03A0: 7F 73 30 30 35 16 80 5B  21 80 81 40 02 01 81 40  .s005..[!..@...@
03B0: 02 01 74 6C 6B 30 2B 81  40 02 01 28 80 23 2B 81  ..tlk0+.@..(.#+.
03C0: 40 02 01 29 80 23 52 15  80 F8 FF FF 7F F8 FF FF  @..).#R.........
03D0: 7F 73 30 30 35 45 15 80  F8 FF FF 7F F8 FF FF 7F  .s005E..........
03E0: 73 30 30 36 16 80 2B 81  40 02 01 2A 80 23 2B 81  s006..+.@..*.#+.
03F0: 40 02 01 2B 80 23 5B 21  80 81 40 02 01 81 40 02  @..+.#[!..@...@.
0400: 01 74 6C 6B 31 52 15 80  F8 FF FF 7F F8 FF FF 7F  .tlk1R..........
0410: 73 30 30 36 45 15 80 F8  FF FF 7F F8 FF FF 7F 73  s006E..........s
0420: 30 30 37 16 80 1C 13 80  2B 82 40 02 01 2C 80 1C  007.....+.@..,..
0430: 20 80 23 5B 2D 80 81 40  02 01 81 40 02 01 79 65   .#[-..@...@..ye
0440: 73 30 52 15 80 F8 FF FF  7F F8 FF FF 7F 73 30 30  s0R..........s00
0450: 37 45 15 80 F8 FF FF 7F  F8 FF FF 7F 73 30 30 38  7E..........s008
0460: 16 80 2B 81 40 02 01 2E  80 1C 2F 80 23 52 15 80  ..+.@...../.#R..
0470: F8 FF FF 7F F8 FF FF 7F  73 30 30 38 45 15 80 F8  ........s008E...
0480: FF FF 7F F8 FF FF 7F 73  30 30 39 16 80 2B 82 40  .......s009..+.@
0490: 02 01 30 80 23 1A 58 3C  52 15 80 F8 FF FF 7F F8  ..0.#.X<R.......
04A0: FF FF 7F 73 30 30 39 4E  01 82 40 02 01 4E 01 F0  ...s009N..@..N..
04B0: FF FF 7F 4E 01 81 40 02  01 62 31 80 F8 FF FF 7F  ...N..@..b1.....
04C0: F8 FF FF 7F 73 30 30 31  16 80 1C 13 80 45 15 80  ....s001.....E..
04D0: F8 FF FF 7F F8 FF FF 7F  73 30 31 30 16 80 1A 37  ........s010...7
04E0: 3C 62 31 80 F8 FF FF 7F  F8 FF FF 7F 73 30 30 32  <b1.........s002
04F0: 16 80 2B 82 40 02 01 32  80 1C 33 80 1A 58 3C 52  ..+.@..2..3..X<R
0500: 15 80 F8 FF FF 7F F8 FF  FF 7F 73 30 31 30 62 31  ..........s010b1
0510: 80 F8 FF FF 7F F8 FF FF  7F 73 65 6E 64 16 80 4E  .........send..N
0520: 00 82 40 02 01 4E 00 F0  FF FF 7F 4E 00 81 40 02  ..@..N.....N..@.
0530: 01 80 F0 FF FF 7F 80 82  40 02 01 80 F0 FF FF 7F  ........@.......
0540: 80 81 40 02 01 4E 00 7A  40 02 01 4E 00 8A 40 02  ..@..N.z@..N..@.
0550: 01 2F 00 8A 40 02 01 92  01 7A 40 02 01 92 01 8A  ./..@....z@.....
0560: 40 02 01 59 05 7A 40 02  01 01 59 05 8A 40 02 01  @..Y.z@...Y..@..
0570: 01 94 01 7A 40 02 01 94  01 8A 40 02 01 BA 8A 40  ...z@.....@....@
0580: 02 01 06 80 07 80 08 80  09 80 02 87 7F 34 80 80  .............4..
0590: A2 05 BA 7A 40 02 01 35  80 36 80 37 80 09 80 01  ...z@..5.6.7....
05A0: 27 06 02 87 7F 38 80 80  BA 05 BA 7A 40 02 01 35  '....8.....z@..5
05B0: 80 36 80 37 80 09 80 01  27 06 02 87 7F 02 80 80  .6.7....'.......
05C0: D2 05 BA 7A 40 02 01 35  80 36 80 39 80 09 80 01  ...z@..5.6.9....
05D0: 27 06 02 87 7F 03 80 80  EA 05 BA 7A 40 02 01 35  '..........z@..5
05E0: 80 36 80 39 80 09 80 01  27 06 02 87 7F 04 80 80  .6.9....'.......
05F0: 02 06 BA 7A 40 02 01 35  80 3A 80 3B 80 09 80 01  ...z@..5.:.;....
0600: 27 06 02 87 7F 05 80 80  1A 06 BA 7A 40 02 01 35  '..........z@..5
0610: 80 36 80 37 80 09 80 01  27 06 BA 7A 40 02 01 35  .6.7....'..z@..5
0620: 80 36 80 3C 80 09 80 80  7A 40 02 01 80 8A 40 02  .6.<....z@....@.
0630: 01 4A 7A 40 02 01 82 40  02 01 4A 8A 40 02 01 82  .Jz@...@..J.@...
0640: 40 02 01 7B 7A 40 02 01  7B 8A 40 02 01 1C 13 80  @..{z@..{.@.....
0650: 02 87 7F 00 80 80 6B 06  5F 03 3D 80 8A 40 02 01  ......k._.=..@..
0660: 8A 40 02 01 68 6D 6D 6C  01 28 07 02 87 7F 3E 80  .@..hmml.(....>.
0670: 80 86 06 5F 03 3D 80 8A  40 02 01 8A 40 02 01 68  ..._.=..@...@..h
0680: 66 6D 6C 01 28 07 02 87  7F 34 80 80 A1 06 5F 03  fml.(....4...._.
0690: 3D 80 8A 40 02 01 8A 40  02 01 65 6D 6D 6C 01 28  =..@...@..emml.(
06A0: 07 02 87 7F 38 80 80 BC  06 5F 03 3D 80 8A 40 02  ....8...._.=..@.
06B0: 01 8A 40 02 01 65 66 6D  6C 01 28 07 02 87 7F 02  ..@..efml.(.....
06C0: 80 80 D7 06 5F 03 3D 80  8A 40 02 01 8A 40 02 01  ...._.=..@...@..
06D0: 74 6D 61 6C 01 28 07 02  87 7F 03 80 80 F2 06 5F  tmal.(........._
06E0: 03 3D 80 8A 40 02 01 8A  40 02 01 74 6D 61 6C 01  .=..@...@..tmal.
06F0: 28 07 02 87 7F 04 80 80  0D 07 5F 03 3D 80 8A 40  (........._.=..@
0700: 02 01 8A 40 02 01 6D 6D  61 6C 01 28 07 02 87 7F  ...@..mmal.(....
0710: 05 80 80 28 07 5F 03 3D  80 8A 40 02 01 8A 40 02  ...(._.=..@...@.
0720: 01 67 6D 61 6C 01 28 07  1C 13 80 45 15 80 F8 FF  .gmal.(....E....
0730: FF 7F F8 FF FF 7F 73 30  31 31 16 80 1A 37 3C 2B  ......s011...7<+
0740: 82 40 02 01 3F 80 23 52  15 80 F8 FF FF 7F F8 FF  .@..?.#R........
0750: FF 7F 73 30 31 31 45 15  80 F8 FF FF 7F F8 FF FF  ..s011E.........
0760: 7F 73 30 31 32 16 80 2B  82 40 02 01 40 80 23 2B  .s012..+.@..@.#+
0770: 82 40 02 01 41 80 23 52  15 80 F8 FF FF 7F F8 FF  .@..A.#R........
0780: FF 7F 73 30 31 32 02 87  7F 02 80 80 A2 07 45 15  ..s012........E.
0790: 80 F8 FF FF 7F F8 FF FF  7F 73 61 30 36 16 80 01  .........sa06...
07A0: CF 07 02 87 7F 03 80 80  BE 07 45 15 80 F8 FF FF  ..........E.....
07B0: 7F F8 FF FF 7F 73 61 30  36 16 80 01 CF 07 45 15  .....sa06.....E.
07C0: 80 F8 FF FF 7F F8 FF FF  7F 73 61 30 35 16 80 D0  .........sa05...
07D0: 42 80 7A 40 02 01 7A 40  02 01 73 74 61 31 16 80  B.z@..z@..sta1..
07E0: 1C 1C 80 D0 42 80 7A 40  02 01 7A 40 02 01 6B 69  ....B.z@..z@..ki
07F0: 6C 32 16 80 52 15 80 F8  FF FF 7F F8 FF FF 7F 73  l2..R..........s
0800: 61 30 35 52 15 80 F8 FF  FF 7F F8 FF FF 7F 73 61  a05R..........sa
0810: 30 36 02 87 7F 02 80 80  2E 08 45 15 80 F8 FF FF  06........E.....
0820: 7F F8 FF FF 7F 73 61 30  38 16 80 01 5B 08 02 87  .....sa08...[...
0830: 7F 03 80 80 4A 08 45 15  80 F8 FF FF 7F F8 FF FF  ....J.E.........
0840: 7F 73 61 30 38 16 80 01  5B 08 45 15 80 F8 FF FF  .sa08...[.E.....
0850: 7F F8 FF FF 7F 73 61 30  37 16 80 27 05 F0 FF FF  .....sa07..'....
0860: 7F 28 1C 43 80 D0 42 80  8A 40 02 01 8A 40 02 01  .(.C..B..@...@..
0870: 73 74 61 72 16 80 1C 20  80 52 15 80 F8 FF FF 7F  star... .R......
0880: F8 FF FF 7F 73 61 30 37  52 15 80 F8 FF FF 7F F8  ....sa07R.......
0890: FF FF 7F 73 61 30 38 45  15 80 F8 FF FF 7F F8 FF  ...sa08E........
08A0: FF 7F 73 61 31 30 16 80  27 05 F0 FF FF 7F 2C 1C  ..sa10..'.....,.
08B0: 44 80 52 15 80 F8 FF FF  7F F8 FF FF 7F 73 61 31  D.R..........sa1
08C0: 30 45 15 80 F8 FF FF 7F  F8 FF FF 7F 73 61 30 39  0E..........sa09
08D0: 16 80 81 00 82 40 02 01  5B 15 80 82 40 02 01 82  .....@..[...@...
08E0: 40 02 01 79 65 73 30 1C  13 80 27 05 F0 FF FF 7F  @..yes0...'.....
08F0: 2B 1C 44 80 45 15 80 F8  FF FF 7F F8 FF FF 7F 73  +.D.E..........s
0900: 30 31 33 16 80 81 01 82  40 02 01 02 00 00 00 80  013.....@.......
0910: 00 35 09 2B 82 40 02 01  45 80 23 2B 82 40 02 01  .5.+.@..E.#+.@..
0920: 46 80 23 52 15 80 F8 FF  FF 7F F8 FF FF 7F 73 30  F.#R..........s0
0930: 31 33 01 84 09 2B 82 40  02 01 47 80 23 2B 82 40  13...+.@..G.#+.@
0940: 02 01 48 80 23 52 15 80  F8 FF FF 7F F8 FF FF 7F  ..H.#R..........
0950: 73 30 31 33 45 15 80 F8  FF FF 7F F8 FF FF 7F 73  s013E..........s
0960: 30 31 34 16 80 2B 82 40  02 01 49 80 23 2B 82 40  014..+.@..I.#+.@
0970: 02 01 4A 80 23 52 15 80  F8 FF FF 7F F8 FF FF 7F  ..J.#R..........
0980: 73 30 31 34 45 15 80 F8  FF FF 7F F8 FF FF 7F 73  s014E..........s
0990: 30 31 35 16 80 5F 05 4B  80 81 40 02 01 81 40 02  015.._.K..@...@.
09A0: 01 74 6C 63 30 4C 80 79  02 F0 FF FF 7F 16 80 4D  .tlc0L.y.......M
09B0: 80 2B 81 40 02 01 4E 80  1C 23 80 D0 42 80 8A 40  .+.@..N..#..B..@
09C0: 02 01 8A 40 02 01 6B 69  6C 6C 16 80 6B 69 64 6C  ...@..kill..kidl
09D0: 30 F0 FF FF 7F 4E 01 8A  40 02 01 1C 24 80 23 2B  0....N..@...$.#+
09E0: 81 40 02 01 4F 80 23 5F  07 81 40 02 01 81 40 02  .@..O.#_..@...@.
09F0: 01 74 6C 63 30 52 15 80  F8 FF FF 7F F8 FF FF 7F  .tlc0R..........
0A00: 73 30 31 35 45 15 80 F8  FF FF 7F F8 FF FF 7F 73  s015E..........s
0A10: 30 31 36 16 80 79 00 F0  FF FF 7F 82 40 02 01 5B  016..y......@..[
0A20: 50 80 82 40 02 01 82 40  02 01 75 74 75 30 2B 82  P..@...@..utu0+.
0A30: 40 02 01 51 80 1C 20 80  23 2B 82 40 02 01 52 80  @..Q.. .#+.@..R.
0A40: 1C 20 80 23 5B 50 80 82  40 02 01 82 40 02 01 75  . .#[P..@...@..u
0A50: 74 75 31 52 15 80 F8 FF  FF 7F F8 FF FF 7F 73 30  tu1R..........s0
0A60: 31 36 45 15 80 F8 FF FF  7F F8 FF FF 7F 73 30 31  16E..........s01
0A70: 37 16 80 1C 24 80 2B 82  40 02 01 53 80 1C 20 80  7...$.+.@..S.. .
0A80: 23 52 15 80 F8 FF FF 7F  F8 FF FF 7F 73 30 31 37  #R..........s017
0A90: 45 15 80 F8 FF FF 7F F8  FF FF 7F 73 30 31 38 16  E..........s018.
0AA0: 80 81 00 81 40 02 01 7C  00 81 40 02 01 5B 54 80  ....@..|..@..[T.
0AB0: 81 40 02 01 81 40 02 01  66 65 30 30 1C 1C 80 52  .@...@..fe00...R
0AC0: 15 80 F8 FF FF 7F F8 FF  FF 7F 73 30 31 38 45 15  ..........s018E.
0AD0: 80 F8 FF FF 7F F8 FF FF  7F 73 30 31 39 16 80 5B  .........s019..[
0AE0: 54 80 81 40 02 01 81 40  02 01 66 65 30 31 2B 81  T..@...@..fe01+.
0AF0: 40 02 01 55 80 1C 20 80  23 2B 81 40 02 01 56 80  @..U.. .#+.@..V.
0B00: 1C 20 80 23 52 15 80 F8  FF FF 7F F8 FF FF 7F 73  . .#R..........s
0B10: 30 31 39 45 15 80 F8 FF  FF 7F F8 FF FF 7F 73 61  019E..........sa
0B20: 31 32 16 80 81 00 82 40  02 01 5B 15 80 82 40 02  12.....@..[...@.
0B30: 01 82 40 02 01 66 61 30  30 1C 13 80 27 10 7A 40  ..@..fa00...'.z@
0B40: 02 01 1F 1C 44 80 52 15  80 F8 FF FF 7F F8 FF FF  ....D.R.........
0B50: 7F 73 61 31 32 45 15 80  F8 FF FF 7F F8 FF FF 7F  .sa12E..........
0B60: 73 30 32 30 16 80 5B 15  80 82 40 02 01 82 40 02  s020..[...@...@.
0B70: 01 66 61 30 31 5B 57 80  82 40 02 01 82 40 02 01  .fa01[W..@...@..
0B80: 65 64 30 31 45 58 80 F0  FF FF 7F F0 FF FF 7F 36  ed01EX.........6
0B90: 30 37 31 16 80 81 01 82  40 02 01 1C 24 80 5B 54  071.....@...$.[T
0BA0: 80 81 40 02 01 81 40 02  01 66 30 30 30 2B 82 40  ..@...@..f000+.@
0BB0: 02 01 59 80 1C 44 80 23  7B 81 40 02 01 5B 5A 80  ..Y..D.#{.@..[Z.
0BC0: 81 40 02 01 81 40 02 01  6B 61 6F 30 52 15 80 F8  .@...@..kao0R...
0BD0: FF FF 7F F8 FF FF 7F 73  30 32 30 45 15 80 F8 FF  .......s020E....
0BE0: FF 7F F8 FF FF 7F 73 30  32 31 16 80 2B 82 40 02  ......s021..+.@.
0BF0: 01 5B 80 1C 1C 80 23 27  05 82 40 02 01 04 52 15  .[....#'..@...R.
0C00: 80 F8 FF FF 7F F8 FF FF  7F 73 30 32 31 45 15 80  .........s021E..
0C10: F8 FF FF 7F F8 FF FF 7F  73 30 32 32 16 80 5B 57  ........s022..[W
0C20: 80 82 40 02 01 82 40 02  01 65 64 30 32 45 58 80  ..@...@..ed02EX.
0C30: F0 FF FF 7F F0 FF FF 7F  33 30 34 32 16 80 1C 1E  ........3042....
0C40: 80 27 10 7A 40 02 01 20  52 15 80 F8 FF FF 7F F8  .'.z@.. R.......
0C50: FF FF 7F 73 30 32 32 45  15 80 F8 FF FF 7F F8 FF  ...s022E........
0C60: FF 7F 73 31 34 36 16 80  1C 1C 80 BA 82 40 02 01  ..s146.......@..
0C70: 5C 80 5D 80 5E 80 5F 80  5B 57 80 82 40 02 01 82  \.].^._.[W..@...
0C80: 40 02 01 65 64 33 6C 1C  1A 80 52 15 80 F8 FF FF  @..ed3l...R.....
0C90: 7F F8 FF FF 7F 73 31 34  36 45 15 80 F8 FF FF 7F  .....s146E......
0CA0: F8 FF FF 7F 73 30 37 35  16 80 45 58 80 F0 FF FF  ....s075..EX....
0CB0: 7F F0 FF FF 7F 73 62 32  37 16 80 C5 60 80 82 40  .....sb27...`..@
0CC0: 02 01 82 40 02 01 73 30  30 30 16 80 1C 61 80 D0  ...@..s000...a..
0CD0: 62 80 82 40 02 01 82 40  02 01 73 30 30 30 16 80  b..@...@..s000..
0CE0: 7B 81 40 02 01 1C 1E 80  45 58 80 F0 FF FF 7F F0  {.@.....EX......
0CF0: FF FF 7F 6B 62 32 37 16  80 1A 9A 3C 1C 13 80 52  ...kb27....<...R
0D00: 15 80 F8 FF FF 7F F8 FF  FF 7F 73 30 37 35 45 15  ..........s075E.
0D10: 80 F8 FF FF 7F F8 FF FF  7F 73 30 37 34 16 80 1A  .........s074...
0D20: 79 3C D0 63 80 F8 FF FF  7F F8 FF FF 7F 63 72 30  y<.c.........cr0
0D30: 30 16 80 45 15 80 F8 FF  FF 7F F8 FF FF 7F 32 31  0..E..........21
0D40: 38 35 16 80 1C 64 80 52  15 80 F8 FF FF 7F F8 FF  85...d.R........
0D50: FF 7F 73 30 37 34 45 15  80 F8 FF FF 7F F8 FF FF  ..s074E.........
0D60: 7F 73 61 31 31 16 80 1C  65 80 52 15 80 F8 FF FF  .sa11...e.R.....
0D70: 7F F8 FF FF 7F 73 61 31  31 45 15 80 F8 FF FF 7F  .....sa11E......
0D80: F8 FF FF 7F 73 30 32 33  16 80 9F 66 80 F8 FF FF  ....s023...f....
0D90: 7F F8 FF FF 7F 6B 69 6C  6C 16 80 1C 13 80 5B 54  .....kill.....[T
0DA0: 80 81 40 02 01 81 40 02  01 66 65 30 30 1C 20 80  ..@...@..fe00. .
0DB0: 5B 54 80 81 40 02 01 81  40 02 01 66 65 30 31 2B  [T..@...@..fe01+
0DC0: 81 40 02 01 67 80 1C 23  80 79 00 F0 FF FF 7F 81  .@..g..#.y......
0DD0: 40 02 01 1C 24 80 23 2B  81 40 02 01 68 80 1C 20  @...$.#+.@..h.. 
0DE0: 80 23 5F 05 5A 80 81 40  02 01 81 40 02 01 6B 61  .#_.Z..@...@..ka
0DF0: 6F 32 69 80 52 15 80 F8  FF FF 7F F8 FF FF 7F 73  o2i.R..........s
0E00: 30 32 33 45 15 80 F8 FF  FF 7F F8 FF FF 7F 73 30  023E..........s0
0E10: 32 34 16 80 2B 81 40 02  01 6A 80 23 2B 81 40 02  24..+.@..j.#+.@.
0E20: 01 6B 80 1C 20 80 23 D3  00 81 40 02 01 81 01 81  .k.. .#...@.....
0E30: 40 02 01 7C 01 81 40 02  01 5F 07 81 40 02 01 81  @..|..@.._..@...
0E40: 40 02 01 6B 61 6F 32 5F  05 5A 80 81 40 02 01 81  @..kao2_.Z..@...
0E50: 40 02 01 6B 61 6F 33 1C  80 52 15 80 F8 FF FF 7F  @..kao3..R......
0E60: F8 FF FF 7F 73 30 32 34  45 15 80 F8 FF FF 7F F8  ....s024E.......
0E70: FF FF 7F 73 30 37 37 16  80 2B 81 40 02 01 6C 80  ...s077..+.@..l.
0E80: 1C 20 80 23 52 15 80 F8  FF FF 7F F8 FF FF 7F 73  . .#R..........s
0E90: 30 37 37 45 15 80 F8 FF  FF 7F F8 FF FF 7F 73 30  077E..........s0
0EA0: 32 35 16 80 2B 81 40 02  01 6D 80 1C 20 80 23 5F  25..+.@..m.. .#_
0EB0: 07 81 40 02 01 81 40 02  01 6B 61 6F 33 5B 5A 80  ..@...@..kao3[Z.
0EC0: 81 40 02 01 81 40 02 01  6B 61 6F 31 2B 81 40 02  .@...@..kao1+.@.
0ED0: 01 6E 80 23 53 81 40 02  01 81 40 02 01 6B 61 6F  .n.#S.@...@..kao
0EE0: 31 81 00 81 40 02 01 7C  00 81 40 02 01 5B 6F 80  1...@..|..@..[o.
0EF0: 81 40 02 01 81 40 02 01  66 72 69 30 52 15 80 F8  .@...@..fri0R...
0F00: FF FF 7F F8 FF FF 7F 73  30 32 35 45 15 80 F8 FF  .......s025E....
0F10: FF 7F F8 FF FF 7F 73 30  32 36 16 80 5D 16 80 70  ......s026..]..p
0F20: 80 2B 81 40 02 01 71 80  4E 00 83 40 02 01 02 87  .+.@..q.N..@....
0F30: 7F 05 80 00 46 0F BA F0  FF FF 7F 72 80 73 80 74  ....F......r.s.t
0F40: 80 75 80 01 53 0F BA F0  FF FF 7F 76 80 77 80 08  .u..S......v.w..
0F50: 80 78 80 7B F0 FF FF 7F  1C 70 80 23 52 15 80 F8  .x.{.....p.#R...
0F60: FF FF 7F F8 FF FF 7F 73  30 32 36 02 87 7F 02 80  .......s026.....
0F70: 80 87 0F 45 15 80 F8 FF  FF 7F F8 FF FF 7F 73 30  ...E..........s0
0F80: 32 38 16 80 01 B4 0F 02  87 7F 03 80 80 A3 0F 45  28.............E
0F90: 15 80 F8 FF FF 7F F8 FF  FF 7F 73 30 32 38 16 80  ..........s028..
0FA0: 01 B4 0F 45 15 80 F8 FF  FF 7F F8 FF FF 7F 73 30  ...E..........s0
0FB0: 32 37 16 80 6E F0 FF FF  7F 04 80 99 F0 FF FF 7F  27..n...........
0FC0: 1C 20 80 6B 69 64 6C 30  81 40 02 01 BA 81 40 02  . .kidl0.@....@.
0FD0: 01 0A 80 0B 80 08 80 79  80 1C 1A 80 52 15 80 F8  .......y....R...
0FE0: FF FF 7F F8 FF FF 7F 73  30 32 37 52 15 80 F8 FF  .......s027R....
0FF0: FF 7F F8 FF FF 7F 73 30  32 38 45 15 80 F8 FF FF  ......s028E.....
1000: 7F F8 FF FF 7F 73 30 37  36 16 80 45 19 80 83 40  .....s076..E...@
1010: 02 01 83 40 02 01 31 64  6B 6E 16 80 1C 23 80 5C  ...@..1dkn...#.\
1020: 00 7A 80 5C 01 7A 80 9A  5B 6F 80 81 40 02 01 81  .z.\.z..[o..@...
1030: 40 02 01 62 74 6C 30 D0  7B 80 81 40 02 01 81 40  @..btl0.{..@...@
1040: 02 01 69 62 74 30 16 80  2C 81 40 02 01 81 40 02  ..ibt0..,.@...@.
1050: 01 77 33 6F 6E 1C 13 80  52 15 80 F8 FF FF 7F F8  .w3on...R.......
1060: FF FF 7F 73 30 37 36 45  15 80 F8 FF FF 7F F8 FF  ...s076E........
1070: FF 7F 73 30 32 39 16 80  BA F0 FF FF 7F 7C 80 7D  ..s029.......|.}
1080: 80 08 80 09 80 4A F0 FF  FF 7F 83 40 02 01 1C 1C  .....J.....@....
1090: 80 52 15 80 F8 FF FF 7F  F8 FF FF 7F 73 30 32 39  .R..........s029
10A0: 45 15 80 F8 FF FF 7F F8  FF FF 7F 73 30 33 30 16  E..........s030.
10B0: 80 2B 83 40 02 01 7E 80  1C 13 80 4E 01 F0 FF FF  .+.@..~....N....
10C0: 7F 1C 1A 80 23 52 15 80  F8 FF FF 7F F8 FF FF 7F  ....#R..........
10D0: 73 30 33 30 45 15 80 F8  FF FF 7F F8 FF FF 7F 73  s030E..........s
10E0: 30 33 31 16 80 2B 83 40  02 01 7F 80 1C 20 80 23  031..+.@..... .#
10F0: 52 15 80 F8 FF FF 7F F8  FF FF 7F 73 30 33 31 45  R..........s031E
1100: 15 80 F8 FF FF 7F F8 FF  FF 7F 73 30 33 32 16 80  ..........s032..
1110: D0 80 80 83 40 02 01 83  40 02 01 65 67 6C 31 16  ....@...@..egl1.
1120: 80 1C 20 80 5F 03 81 80  83 40 02 01 83 40 02 01  .. ._....@...@..
1130: 6D 65 74 30 D0 82 80 83  40 02 01 83 40 02 01 67  met0....@...@..g
1140: 6E 67 30 16 80 1C 1C 80  52 15 80 F8 FF FF 7F F8  ng0.....R.......
1150: FF FF 7F 73 30 33 32 45  15 80 F8 FF FF 7F F8 FF  ...s032E........
1160: FF 7F 73 30 33 33 16 80  D0 80 80 83 40 02 01 83  ..s033......@...
1170: 40 02 01 6B 73 74 30 16  80 1C 65 80 5B 83 80 84  @..kst0...e.[...
1180: 40 02 01 84 40 02 01 6D  65 74 30 5B 84 80 85 40  @...@..met0[...@
1190: 02 01 85 40 02 01 6D 65  74 30 5B 85 80 86 40 02  ...@..met0[...@.
11A0: 01 86 40 02 01 6D 65 74  30 5B 86 80 87 40 02 01  ..@..met0[...@..
11B0: 87 40 02 01 6D 65 74 30  5B 87 80 88 40 02 01 88  .@..met0[...@...
11C0: 40 02 01 6D 65 74 30 52  15 80 F8 FF FF 7F F8 FF  @..met0R........
11D0: FF 7F 73 30 33 33 45 15  80 F8 FF FF 7F F8 FF FF  ..s033E.........
11E0: 7F 73 61 30 31 16 80 D0  82 80 83 40 02 01 83 40  .sa01......@...@
11F0: 02 01 62 6F 6D 30 16 80  1C 13 80 45 19 80 83 40  ..bom0.....E...@
1200: 02 01 83 40 02 01 30 64  6B 6E 16 80 27 05 83 40  ...@..0dkn..'..@
1210: 02 01 03 27 05 84 40 02  01 04 D0 82 80 84 40 02  ...'..@.......@.
1220: 01 84 40 02 01 6C 70 30  30 16 80 D0 82 80 83 40  ..@..lp00......@
1230: 02 01 83 40 02 01 6C 70  73 74 16 80 45 15 80 F8  ...@..lpst..E...
1240: FF FF 7F F8 FF FF 7F 36  73 37 39 16 80 1C 20 80  .......6s79... .
1250: 52 15 80 F8 FF FF 7F F8  FF FF 7F 73 61 30 31 45  R..........sa01E
1260: 15 80 F8 FF FF 7F F8 FF  FF 7F 73 61 30 32 16 80  ..........sa02..
1270: D0 82 80 84 40 02 01 84  40 02 01 62 6F 6D 30 16  ....@...@..bom0.
1280: 80 1C 13 80 45 19 80 83  40 02 01 83 40 02 01 30  ....E...@...@..0
1290: 64 6B 6E 16 80 27 05 84  40 02 01 05 27 05 85 40  dkn..'..@...'..@
12A0: 02 01 04 D0 82 80 85 40  02 01 85 40 02 01 6C 70  .......@...@..lp
12B0: 30 30 16 80 D0 82 80 84  40 02 01 84 40 02 01 6C  00......@...@..l
12C0: 70 73 74 16 80 1C 20 80  52 15 80 F8 FF FF 7F F8  pst... .R.......
12D0: FF FF 7F 73 61 30 32 45  15 80 F8 FF FF 7F F8 FF  ...sa02E........
12E0: FF 7F 73 61 30 33 16 80  D0 82 80 85 40 02 01 85  ..sa03......@...
12F0: 40 02 01 62 6F 6D 30 16  80 1C 13 80 45 19 80 83  @..bom0.....E...
1300: 40 02 01 83 40 02 01 30  64 6B 6E 16 80 27 05 85  @...@..0dkn..'..
1310: 40 02 01 05 27 05 86 40  02 01 04 D0 82 80 86 40  @...'..@.......@
1320: 02 01 86 40 02 01 6C 70  30 30 16 80 D0 82 80 85  ...@..lp00......
1330: 40 02 01 85 40 02 01 6C  70 73 74 16 80 1C 20 80  @...@..lpst... .
1340: 52 15 80 F8 FF FF 7F F8  FF FF 7F 73 61 30 33 45  R..........sa03E
1350: 15 80 F8 FF FF 7F F8 FF  FF 7F 73 61 31 33 16 80  ..........sa13..
1360: D0 82 80 86 40 02 01 86  40 02 01 62 6F 6D 30 16  ....@...@..bom0.
1370: 80 1C 13 80 45 19 80 83  40 02 01 83 40 02 01 30  ....E...@...@..0
1380: 64 6B 6E 16 80 27 05 86  40 02 01 05 27 05 87 40  dkn..'..@...'..@
1390: 02 01 04 D0 82 80 87 40  02 01 87 40 02 01 6C 70  .......@...@..lp
13A0: 30 30 16 80 D0 82 80 86  40 02 01 86 40 02 01 6C  00......@...@..l
13B0: 70 73 74 16 80 1C 20 80  52 15 80 F8 FF FF 7F F8  pst... .R.......
13C0: FF FF 7F 73 61 31 33 45  15 80 F8 FF FF 7F F8 FF  ...sa13E........
13D0: FF 7F 73 61 31 34 16 80  D0 82 80 87 40 02 01 87  ..sa14......@...
13E0: 40 02 01 62 6F 6D 30 16  80 1C 13 80 45 19 80 83  @..bom0.....E...
13F0: 40 02 01 83 40 02 01 30  64 6B 6E 16 80 27 05 87  @...@..0dkn..'..
1400: 40 02 01 05 27 05 88 40  02 01 04 D0 82 80 88 40  @...'..@.......@
1410: 02 01 88 40 02 01 6C 70  30 30 16 80 D0 82 80 87  ...@..lp00......
1420: 40 02 01 87 40 02 01 6C  70 73 74 16 80 45 15 80  @...@..lpst..E..
1430: F8 FF FF 7F F8 FF FF 7F  36 6B 37 39 16 80 1C 20  ........6k79... 
1440: 80 5B 88 80 83 40 02 01  83 40 02 01 6D 65 74 30  .[...@...@..met0
1450: 1C 13 80 52 15 80 F8 FF  FF 7F F8 FF FF 7F 73 61  ...R..........sa
1460: 31 34 45 15 80 F8 FF FF  7F F8 FF FF 7F 73 61 30  14E..........sa0
1470: 34 16 80 D0 82 80 88 40  02 01 88 40 02 01 62 6F  4......@...@..bo
1480: 6D 30 16 80 D0 82 80 83  40 02 01 83 40 02 01 6C  m0......@...@..l
1490: 70 73 74 16 80 1C 13 80  45 19 80 83 40 02 01 83  pst.....E...@...
14A0: 40 02 01 30 64 6B 6E 16  80 27 05 88 40 02 01 05  @..0dkn..'..@...
14B0: 27 05 83 40 02 01 04 D0  82 80 83 40 02 01 83 40  '..@.......@...@
14C0: 02 01 67 6E 68 30 16 80  1C 20 80 5B 6F 80 81 40  ..gnh0... .[o..@
14D0: 02 01 81 40 02 01 62 74  6C 31 1C 89 80 52 15 80  ...@..btl1...R..
14E0: F8 FF FF 7F F8 FF FF 7F  73 61 30 34 45 15 80 F8  ........sa04E...
14F0: FF FF 7F F8 FF FF 7F 73  30 33 35 16 80 1C 1C 80  .......s035.....
1500: 1A 9A 3C 1C 13 80 52 15  80 F8 FF FF 7F F8 FF FF  ..<...R.........
1510: 7F 73 30 33 35 45 15 80  F8 FF FF 7F F8 FF FF 7F  .s035E..........
1520: 62 6C 6F 66 16 80 4E 00  F0 FF FF 7F 03 03 10 01  blof..N.........
1530: 00 03 04 10 02 00 03 05  10 03 00 03 06 10 04 00  ................
1540: 03 07 10 05 00 2F 00 89  40 02 01 4E 00 89 40 02  ...../..@..N..@.
1550: 01 94 01 89 40 02 01 59  05 89 40 02 01 01 29 05  ....@..Y..@...).
1560: 83 40 02 01 05 BA 83 40  02 01 10 80 11 80 08 80  .@.....@........
1570: 8A 80 BA 89 40 02 01 10  80 11 80 08 80 12 80 80  ....@...........
1580: 89 40 02 01 80 83 40 02  01 29 10 84 40 02 01 06  .@....@..)..@...
1590: BA 84 40 02 01 10 80 11  80 08 80 8B 80 80 84 40  ..@............@
15A0: 02 01 6C 84 40 02 01 16  80 00 80 BA F0 FF FF 7F  ..l.@...........
15B0: 8C 80 8D 80 74 80 8E 80  4A F0 FF FF 7F 83 40 02  ....t...J.....@.
15C0: 01 1C 13 80 02 87 7F 00  80 80 DE 15 66 8F 80 83  ............f...
15D0: 40 02 01 83 40 02 01 6B  61 6B 30 01 94 16 02 87  @...@..kak0.....
15E0: 7F 3E 80 80 F8 15 66 90  80 83 40 02 01 83 40 02  .>....f...@...@.
15F0: 01 6B 61 6B 30 01 94 16  02 87 7F 34 80 80 12 16  .kak0......4....
1600: 66 91 80 83 40 02 01 83  40 02 01 6B 61 6B 30 01  f...@...@..kak0.
1610: 94 16 02 87 7F 38 80 80  2C 16 66 92 80 83 40 02  .....8..,.f...@.
1620: 01 83 40 02 01 6B 61 6B  30 01 94 16 02 87 7F 02  ..@..kak0.......
1630: 80 80 46 16 66 93 80 83  40 02 01 83 40 02 01 6B  ..F.f...@...@..k
1640: 61 6B 30 01 94 16 02 87  7F 03 80 80 60 16 66 93  ak0.........`.f.
1650: 80 83 40 02 01 83 40 02  01 6B 61 6B 30 01 94 16  ..@...@..kak0...
1660: 02 87 7F 04 80 80 7A 16  66 94 80 83 40 02 01 83  ......z.f...@...
1670: 40 02 01 6B 61 6B 30 01  94 16 02 87 7F 05 80 80  @..kak0.........
1680: 94 16 66 95 80 83 40 02  01 83 40 02 01 6B 61 6B  ..f...@...@..kak
1690: 30 01 94 16 29 10 F0 FF  FF 7F 2D 7B F0 FF FF 7F  0...).....-{....
16A0: 5B 6F 80 81 40 02 01 81  40 02 01 62 74 6C 6C D0  [o..@...@..btll.
16B0: 82 80 83 40 02 01 83 40  02 01 67 6E 68 30 16 80  ...@...@..gnh0..
16C0: 1C 13 80 45 15 80 F8 FF  FF 7F F8 FF FF 7F 73 30  ...E..........s0
16D0: 33 36 16 80 1A 79 3C 1C  13 80 D0 82 80 88 40 02  36...y<.......@.
16E0: 01 88 40 02 01 6C 70 73  74 16 80 1C 1A 80 D0 82  ..@..lpst.......
16F0: 80 83 40 02 01 83 40 02  01 67 6E 68 31 16 80 1C  ..@...@..gnh1...
1700: 13 80 52 15 80 F8 FF FF  7F F8 FF FF 7F 73 30 33  ..R..........s03
1710: 36 02 87 7F 02 80 80 2D  17 45 15 80 F8 FF FF 7F  6......-.E......
1720: F8 FF FF 7F 73 30 34 37  16 80 01 5A 17 02 87 7F  ....s047...Z....
1730: 03 80 80 49 17 45 15 80  F8 FF FF 7F F8 FF FF 7F  ...I.E..........
1740: 73 30 34 37 16 80 01 5A  17 45 15 80 F8 FF FF 7F  s047...Z.E......
1750: F8 FF FF 7F 73 30 33 37  16 80 45 15 80 F8 FF FF  ....s037..E.....
1760: 7F F8 FF FF 7F 62 6C 39  39 16 80 02 87 7F 00 80  .....bl99.......
1770: 80 85 17 66 8F 80 83 40  02 01 83 40 02 01 6B 61  ...f...@...@..ka
1780: 6B 31 01 3B 18 02 87 7F  3E 80 80 9F 17 66 90 80  k1.;....>....f..
1790: 83 40 02 01 83 40 02 01  6B 61 6B 31 01 3B 18 02  .@...@..kak1.;..
17A0: 87 7F 34 80 80 B9 17 66  91 80 83 40 02 01 83 40  ..4....f...@...@
17B0: 02 01 6B 61 6B 31 01 3B  18 02 87 7F 38 80 80 D3  ..kak1.;....8...
17C0: 17 66 92 80 83 40 02 01  83 40 02 01 6B 61 6B 31  .f...@...@..kak1
17D0: 01 3B 18 02 87 7F 02 80  80 ED 17 66 93 80 83 40  .;.........f...@
17E0: 02 01 83 40 02 01 6B 61  6B 31 01 3B 18 02 87 7F  ...@..kak1.;....
17F0: 03 80 80 07 18 66 93 80  83 40 02 01 83 40 02 01  .....f...@...@..
1800: 6B 61 6B 31 01 3B 18 02  87 7F 04 80 80 21 18 66  kak1.;.......!.f
1810: 94 80 83 40 02 01 83 40  02 01 6B 61 6B 31 01 3B  ...@...@..kak1.;
1820: 18 02 87 7F 05 80 80 3B  18 66 95 80 83 40 02 01  .......;.f...@..
1830: 83 40 02 01 6B 61 6B 31  01 3B 18 1C 1C 80 52 15  .@..kak1.;....R.
1840: 80 F8 FF FF 7F F8 FF FF  7F 73 30 33 37 52 15 80  .........s037R..
1850: F8 FF FF 7F F8 FF FF 7F  73 30 34 37 02 87 7F 34  ........s047...4
1860: 80 80 78 18 45 15 80 F8  FF FF 7F F8 FF FF 7F 65  ..x.E..........e
1870: 6D 30 31 16 80 01 F9 18  02 87 7F 38 80 80 94 18  m01........8....
1880: 45 15 80 F8 FF FF 7F F8  FF FF 7F 65 66 30 31 16  E..........ef01.
1890: 80 01 F9 18 02 87 7F 02  80 80 B0 18 45 15 80 F8  ............E...
18A0: FF FF 7F F8 FF FF 7F 73  30 34 30 16 80 01 F9 18  .......s040.....
18B0: 02 87 7F 03 80 80 CC 18  45 15 80 F8 FF FF 7F F8  ........E.......
18C0: FF FF 7F 73 30 34 30 16  80 01 F9 18 02 87 7F 05  ...s040.........
18D0: 80 80 E8 18 45 15 80 F8  FF FF 7F F8 FF FF 7F 73  ....E..........s
18E0: 30 33 39 16 80 01 F9 18  45 15 80 F8 FF FF 7F F8  039.....E.......
18F0: FF FF 7F 73 30 33 38 16  80 1C 13 80 BA 83 40 02  ...s038.......@.
1900: 01 10 80 11 80 08 80 96  80 02 87 7F 00 80 80 23  ...............#
1910: 19 66 97 80 83 40 02 01  83 40 02 01 6B 72 75 30  .f...@...@..kru0
1920: 01 D9 19 02 87 7F 3E 80  80 3D 19 66 98 80 83 40  ......>..=.f...@
1930: 02 01 83 40 02 01 6B 72  75 30 01 D9 19 02 87 7F  ...@..kru0......
1940: 34 80 80 57 19 66 66 80  83 40 02 01 83 40 02 01  4..W.ff..@...@..
1950: 6B 72 75 30 01 D9 19 02  87 7F 38 80 80 71 19 66  kru0......8..q.f
1960: 99 80 83 40 02 01 83 40  02 01 6B 72 75 30 01 D9  ...@...@..kru0..
1970: 19 02 87 7F 02 80 80 8B  19 66 9A 80 83 40 02 01  .........f...@..
1980: 83 40 02 01 6B 72 75 30  01 D9 19 02 87 7F 03 80  .@..kru0........
1990: 80 A5 19 66 9A 80 83 40  02 01 83 40 02 01 6B 72  ...f...@...@..kr
19A0: 75 30 01 D9 19 02 87 7F  04 80 80 BF 19 66 9B 80  u0...........f..
19B0: 83 40 02 01 83 40 02 01  6B 72 75 30 01 D9 19 02  .@...@..kru0....
19C0: 87 7F 05 80 80 D9 19 66  9C 80 83 40 02 01 83 40  .......f...@...@
19D0: 02 01 6B 72 75 30 01 D9  19 1C 1A 80 52 15 80 F8  ..kru0......R...
19E0: FF FF 7F F8 FF FF 7F 73  30 33 38 52 15 80 F8 FF  .......s038R....
19F0: FF 7F F8 FF FF 7F 73 30  33 39 52 15 80 F8 FF FF  ......s039R.....
1A00: 7F F8 FF FF 7F 73 30 34  30 52 15 80 F8 FF FF 7F  .....s040R......
1A10: F8 FF FF 7F 65 66 30 31  52 15 80 F8 FF FF 7F F8  ....ef01R.......
1A20: FF FF 7F 65 6D 30 31 02  87 7F 34 80 80 43 1A 45  ...em01...4..C.E
1A30: 15 80 F8 FF FF 7F F8 FF  FF 7F 73 30 34 34 16 80  ..........s044..
1A40: 01 C4 1A 02 87 7F 38 80  80 5F 1A 45 15 80 F8 FF  ......8.._.E....
1A50: FF 7F F8 FF FF 7F 73 30  34 34 16 80 01 C4 1A 02  ......s044......
1A60: 87 7F 02 80 80 7B 1A 45  15 80 F8 FF FF 7F F8 FF  .....{.E........
1A70: FF 7F 73 30 34 38 16 80  01 C4 1A 02 87 7F 03 80  ..s048..........
1A80: 80 97 1A 45 15 80 F8 FF  FF 7F F8 FF FF 7F 73 30  ...E..........s0
1A90: 34 38 16 80 01 C4 1A 02  87 7F 05 80 80 B3 1A 45  48.............E
1AA0: 15 80 F8 FF FF 7F F8 FF  FF 7F 73 30 34 34 16 80  ..........s044..
1AB0: 01 C4 1A 45 15 80 F8 FF  FF 7F F8 FF FF 7F 73 30  ...E..........s0
1AC0: 34 31 16 80 45 19 80 83  40 02 01 83 40 02 01 30  41..E...@...@..0
1AD0: 64 6B 6E 16 80 2B 83 40  02 01 9D 80 1C 20 80 23  dkn..+.@..... .#
1AE0: 2B 83 40 02 01 9E 80 1C  20 80 23 45 19 80 F0 FF  +.@..... .#E....
1AF0: FF 7F F0 FF FF 7F 6F 76  6C 31 16 80 52 15 80 F8  ......ovl1..R...
1B00: FF FF 7F F8 FF FF 7F 73  30 34 31 52 15 80 F8 FF  .......s041R....
1B10: FF 7F F8 FF FF 7F 73 30  34 34 52 15 80 F8 FF FF  ......s044R.....
1B20: 7F F8 FF FF 7F 73 30 34  38 02 87 7F 34 80 80 45  .....s048...4..E
1B30: 1B 45 15 80 F8 FF FF 7F  F8 FF FF 7F 73 30 34 35  .E..........s045
1B40: 16 80 01 C6 1B 02 87 7F  38 80 80 61 1B 45 15 80  ........8..a.E..
1B50: F8 FF FF 7F F8 FF FF 7F  73 30 34 35 16 80 01 C6  ........s045....
1B60: 1B 02 87 7F 02 80 80 7D  1B 45 15 80 F8 FF FF 7F  .......}.E......
1B70: F8 FF FF 7F 73 30 34 39  16 80 01 C6 1B 02 87 7F  ....s049........
1B80: 03 80 80 99 1B 45 15 80  F8 FF FF 7F F8 FF FF 7F  .....E..........
1B90: 73 30 34 39 16 80 01 C6  1B 02 87 7F 05 80 80 B5  s049............
1BA0: 1B 45 15 80 F8 FF FF 7F  F8 FF FF 7F 73 30 34 35  .E..........s045
1BB0: 16 80 01 C6 1B 45 15 80  F8 FF FF 7F F8 FF FF 7F  .....E..........
1BC0: 73 30 34 32 16 80 29 10  83 40 02 01 10 45 19 80  s042..)..@...E..
1BD0: 83 40 02 01 83 40 02 01  30 64 6B 6E 16 80 2B 83  .@...@..0dkn..+.
1BE0: 40 02 01 9F 80 1C 20 80  23 02 87 7F 00 80 80 03  @..... .#.......
1BF0: 1C 66 97 80 83 40 02 01  83 40 02 01 6B 72 75 31  .f...@...@..kru1
1C00: 01 B9 1C 02 87 7F 3E 80  80 1D 1C 66 98 80 83 40  ......>....f...@
1C10: 02 01 83 40 02 01 6B 72  75 31 01 B9 1C 02 87 7F  ...@..kru1......
1C20: 34 80 80 37 1C 66 66 80  83 40 02 01 83 40 02 01  4..7.ff..@...@..
1C30: 6B 72 75 31 01 B9 1C 02  87 7F 38 80 80 51 1C 66  kru1......8..Q.f
1C40: 99 80 83 40 02 01 83 40  02 01 6B 72 75 31 01 B9  ...@...@..kru1..
1C50: 1C 02 87 7F 02 80 80 6B  1C 66 9A 80 83 40 02 01  .......k.f...@..
1C60: 83 40 02 01 6B 72 75 31  01 B9 1C 02 87 7F 03 80  .@..kru1........
1C70: 80 85 1C 66 9A 80 83 40  02 01 83 40 02 01 6B 72  ...f...@...@..kr
1C80: 75 31 01 B9 1C 02 87 7F  04 80 80 9F 1C 66 9B 80  u1...........f..
1C90: 83 40 02 01 83 40 02 01  6B 72 75 31 01 B9 1C 02  .@...@..kru1....
1CA0: 87 7F 05 80 80 B9 1C 66  9C 80 83 40 02 01 83 40  .......f...@...@
1CB0: 02 01 6B 72 75 31 01 B9  1C 45 19 80 F0 FF FF 7F  ..kru1...E......
1CC0: F0 FF FF 7F 6F 76 6C 31  16 80 52 15 80 F8 FF FF  ....ovl1..R.....
1CD0: 7F F8 FF FF 7F 73 30 34  32 52 15 80 F8 FF FF 7F  .....s042R......
1CE0: F8 FF FF 7F 73 30 34 35  52 15 80 F8 FF FF 7F F8  ....s045R.......
1CF0: FF FF 7F 73 30 34 39 02  87 7F 34 80 80 13 1D 45  ...s049...4....E
1D00: 15 80 F8 FF FF 7F F8 FF  FF 7F 65 6D 30 33 16 80  ..........em03..
1D10: 01 B0 1D 02 87 7F 38 80  80 2F 1D 45 15 80 F8 FF  ......8../.E....
1D20: FF 7F F8 FF FF 7F 65 66  30 32 16 80 01 B0 1D 02  ......ef02......
1D30: 87 7F 02 80 80 4B 1D 45  15 80 F8 FF FF 7F F8 FF  .....K.E........
1D40: FF 7F 73 30 35 30 16 80  01 B0 1D 02 87 7F 03 80  ..s050..........
1D50: 80 67 1D 45 15 80 F8 FF  FF 7F F8 FF FF 7F 73 30  .g.E..........s0
1D60: 35 30 16 80 01 B0 1D 02  87 7F 04 80 80 83 1D 45  50.............E
1D70: 15 80 F8 FF FF 7F F8 FF  FF 7F 6D 74 30 31 16 80  ..........mt01..
1D80: 01 B0 1D 02 87 7F 05 80  80 9F 1D 45 15 80 F8 FF  ...........E....
1D90: FF 7F F8 FF FF 7F 73 30  34 36 16 80 01 B0 1D 45  ......s046.....E
1DA0: 15 80 F8 FF FF 7F F8 FF  FF 7F 73 30 34 33 16 80  ..........s043..
1DB0: 45 19 80 83 40 02 01 83  40 02 01 30 64 6B 6E 16  E...@...@..0dkn.
1DC0: 80 2B 83 40 02 01 A0 80  BA F0 FF FF 7F A1 80 A2  .+.@............
1DD0: 80 08 80 A3 80 BA 81 40  02 01 A4 80 A5 80 08 80  .......@........
1DE0: 57 80 1C A6 80 23 52 15  80 F8 FF FF 7F F8 FF FF  W....#R.........
1DF0: 7F 73 30 34 33 52 15 80  F8 FF FF 7F F8 FF FF 7F  .s043R..........
1E00: 73 30 34 36 52 15 80 F8  FF FF 7F F8 FF FF 7F 73  s046R..........s
1E10: 30 35 30 52 15 80 F8 FF  FF 7F F8 FF FF 7F 6D 74  050R..........mt
1E20: 30 31 52 15 80 F8 FF FF  7F F8 FF FF 7F 65 66 30  01R..........ef0
1E30: 32 52 15 80 F8 FF FF 7F  F8 FF FF 7F 65 6D 30 33  2R..........em03
1E40: 45 15 80 F8 FF FF 7F F8  FF FF 7F 73 30 35 31 16  E..........s051.
1E50: 80 1C 13 80 D0 82 80 83  40 02 01 83 40 02 01 67  ........@...@..g
1E60: 6E 68 32 16 80 1C 1C 80  52 15 80 F8 FF FF 7F F8  nh2.....R.......
1E70: FF FF 7F 73 30 35 31 45  15 80 F8 FF FF 7F F8 FF  ...s051E........
1E80: FF 7F 73 30 35 32 16 80  1C 44 80 52 15 80 F8 FF  ..s052...D.R....
1E90: FF 7F F8 FF FF 7F 73 30  35 32 45 15 80 F8 FF FF  ......s052E.....
1EA0: 7F F8 FF FF 7F 73 30 35  33 16 80 7C 01 81 40 02  .....s053..|..@.
1EB0: 01 2B 81 40 02 01 A7 80  1C 1C 80 7C 00 81 40 02  .+.@.......|..@.
1EC0: 01 5B A8 80 81 40 02 01  81 40 02 01 62 74 6C 32  .[...@...@..btl2
1ED0: 52 15 80 F8 FF FF 7F F8  FF FF 7F 73 30 35 33 45  R..........s053E
1EE0: 15 80 F8 FF FF 7F F8 FF  FF 7F 73 30 35 34 16 80  ..........s054..
1EF0: 2B 81 40 02 01 A9 80 1C  AA 80 23 52 15 80 F8 FF  +.@.......#R....
1F00: FF 7F F8 FF FF 7F 73 30  35 34 02 87 7F 34 80 80  ......s054...4..
1F10: 26 1F 45 15 80 F8 FF FF  7F F8 FF FF 7F 65 6D 30  &.E..........em0
1F20: 32 16 80 01 C3 1F 02 87  7F 38 80 80 42 1F 45 15  2........8..B.E.
1F30: 80 F8 FF FF 7F F8 FF FF  7F 65 66 30 33 16 80 01  .........ef03...
1F40: C3 1F 02 87 7F 02 80 80  5E 1F 45 15 80 F8 FF FF  ........^.E.....
1F50: 7F F8 FF FF 7F 73 30 35  39 16 80 01 C3 1F 02 87  .....s059.......
1F60: 7F 03 80 80 7A 1F 45 15  80 F8 FF FF 7F F8 FF FF  ....z.E.........
1F70: 7F 73 30 35 39 16 80 01  C3 1F 02 87 7F 04 80 80  .s059...........
1F80: 96 1F 45 15 80 F8 FF FF  7F F8 FF FF 7F 6D 74 30  ..E..........mt0
1F90: 32 16 80 01 C3 1F 02 87  7F 05 80 80 B2 1F 45 15  2.............E.
1FA0: 80 F8 FF FF 7F F8 FF FF  7F 73 30 35 38 16 80 01  .........s058...
1FB0: C3 1F 45 15 80 F8 FF FF  7F F8 FF FF 7F 73 30 35  ..E..........s05
1FC0: 35 16 80 02 87 7F 00 80  80 EE 1F D0 80 80 83 40  5..............@
1FD0: 02 01 83 40 02 01 6B 30  30 31 16 80 66 97 80 83  ...@..k001..f...
1FE0: 40 02 01 83 40 02 01 6B  72 75 32 01 1B 21 02 87  @...@..kru2..!..
1FF0: 7F 3E 80 80 19 20 D0 80  80 83 40 02 01 83 40 02  .>... ....@...@.
2000: 01 65 68 66 31 16 80 66  98 80 83 40 02 01 83 40  .ehf1..f...@...@
2010: 02 01 6B 72 75 32 01 1B  21 02 87 7F 34 80 80 44  ..kru2..!...4..D
2020: 20 D0 80 80 83 40 02 01  83 40 02 01 65 65 6D 31   ....@...@..eem1
2030: 16 80 66 66 80 83 40 02  01 83 40 02 01 6B 72 75  ..ff..@...@..kru
2040: 32 01 1B 21 02 87 7F 38  80 80 6F 20 D0 80 80 83  2..!...8..o ....
2050: 40 02 01 83 40 02 01 65  65 66 31 16 80 66 99 80  @...@..eef1..f..
2060: 83 40 02 01 83 40 02 01  6B 72 75 32 01 1B 21 02  .@...@..kru2..!.
2070: 87 7F 02 80 80 9A 20 D0  80 80 83 40 02 01 83 40  ...... ....@...@
2080: 02 01 65 74 72 31 16 80  66 9A 80 83 40 02 01 83  ..etr1..f...@...
2090: 40 02 01 6B 72 75 32 01  1B 21 02 87 7F 03 80 80  @..kru2..!......
20A0: C5 20 D0 80 80 83 40 02  01 83 40 02 01 65 74 72  . ....@...@..etr
20B0: 31 16 80 66 9A 80 83 40  02 01 83 40 02 01 6B 72  1..f...@...@..kr
20C0: 75 32 01 1B 21 02 87 7F  04 80 80 F0 20 D0 80 80  u2..!....... ...
20D0: 83 40 02 01 83 40 02 01  65 6D 74 31 16 80 66 9B  .@...@..emt1..f.
20E0: 80 83 40 02 01 83 40 02  01 6B 72 75 32 01 1B 21  ..@...@..kru2..!
20F0: 02 87 7F 05 80 80 1B 21  D0 80 80 83 40 02 01 83  .......!....@...
2100: 40 02 01 65 67 6C 31 16  80 66 9C 80 83 40 02 01  @..egl1..f...@..
2110: 83 40 02 01 6B 72 75 32  01 1B 21 1C 1A 80 D0 80  .@..kru2..!.....
2120: 80 83 40 02 01 83 40 02  01 6B 30 30 30 16 80 5B  ..@...@..k000..[
2130: 6F 80 81 40 02 01 81 40  02 01 62 74 6C 6C 7B F0  o..@...@..btll{.
2140: FF FF 7F 1C 1A 80 52 15  80 F8 FF FF 7F F8 FF FF  ......R.........
2150: 7F 73 30 35 35 52 15 80  F8 FF FF 7F F8 FF FF 7F  .s055R..........
2160: 73 30 35 38 52 15 80 F8  FF FF 7F F8 FF FF 7F 73  s058R..........s
2170: 30 35 39 52 15 80 F8 FF  FF 7F F8 FF FF 7F 6D 74  059R..........mt
2180: 30 32 52 15 80 F8 FF FF  7F F8 FF FF 7F 65 66 30  02R..........ef0
2190: 33 52 15 80 F8 FF FF 7F  F8 FF FF 7F 65 6D 30 32  3R..........em02
21A0: 45 15 80 F8 FF FF 7F F8  FF FF 7F 73 30 35 36 16  E..........s056.
21B0: 80 1C 1A 80 D0 82 80 83  40 02 01 83 40 02 01 62  ........@...@..b
21C0: 6F 6D 30 16 80 1C 13 80  D0 82 80 83 40 02 01 83  om0.........@...
21D0: 40 02 01 67 6E 68 30 16  80 1C 1C 80 52 15 80 F8  @..gnh0.....R...
21E0: FF FF 7F F8 FF FF 7F 73  30 35 36 02 87 7F 02 80  .......s056.....
21F0: 80 07 22 45 15 80 F8 FF  FF 7F F8 FF FF 7F 73 30  .."E..........s0
2200: 36 30 16 80 01 50 22 02  87 7F 03 80 80 23 22 45  60...P"......#"E
2210: 15 80 F8 FF FF 7F F8 FF  FF 7F 73 30 36 30 16 80  ..........s060..
2220: 01 50 22 02 87 7F 04 80  80 3F 22 45 15 80 F8 FF  .P"......?"E....
2230: FF 7F F8 FF FF 7F 6D 74  30 33 16 80 01 50 22 45  ......mt03...P"E
2240: 15 80 F8 FF FF 7F F8 FF  FF 7F 73 30 35 37 16 80  ..........s057..
2250: D0 80 80 83 40 02 01 83  40 02 01 6B 73 74 30 16  ....@...@..kst0.
2260: 80 29 05 83 40 02 01 06  BA 83 40 02 01 10 80 11  .)..@.....@.....
2270: 80 08 80 12 80 80 83 40  02 01 D0 82 80 83 40 02  .......@......@.
2280: 01 83 40 02 01 67 6E 68  30 16 80 1C 20 80 5B AB  ..@..gnh0... .[.
2290: 80 83 40 02 01 83 40 02  01 68 69 7A 30 27 05 83  ..@...@..hiz0'..
22A0: 40 02 01 07 1C 13 80 52  15 80 F8 FF FF 7F F8 FF  @......R........
22B0: FF 7F 73 30 35 37 52 15  80 F8 FF FF 7F F8 FF FF  ..s057R.........
22C0: 7F 73 30 36 30 52 15 80  F8 FF FF 7F F8 FF FF 7F  .s060R..........
22D0: 6D 74 30 33 45 15 80 F8  FF FF 7F F8 FF FF 7F 73  mt03E..........s
22E0: 30 36 31 16 80 1C 13 80  D0 82 80 83 40 02 01 83  061.........@...
22F0: 40 02 01 67 6E 68 31 16  80 1C AC 80 BA F0 FF FF  @..gnh1.........
2300: 7F A1 80 A2 80 08 80 AD  80 4A F0 FF FF 7F 83 40  .........J.....@
2310: 02 01 6B 69 64 6C 30 F0  FF FF 7F 1C 4C 80 52 15  ..kidl0.....L.R.
2320: 80 F8 FF FF 7F F8 FF FF  7F 73 30 36 31 45 15 80  .........s061E..
2330: F8 FF FF 7F F8 FF FF 7F  73 31 34 37 16 80 2B 81  ........s147..+.
2340: 40 02 01 AE 80 1C 1C 80  23 5B A8 80 81 40 02 01  @.......#[...@..
2350: 81 40 02 01 62 74 6C 33  1C AF 80 52 15 80 F8 FF  .@..btl3...R....
2360: FF 7F F8 FF FF 7F 73 31  34 37 45 15 80 F8 FF FF  ......s147E.....
2370: 7F F8 FF FF 7F 73 30 36  33 16 80 2C 81 40 02 01  .....s063..,.@..
2380: 81 40 02 01 77 33 6F 66  2B 81 40 02 01 B0 80 27  .@..w3of+.@....'
2390: 05 83 40 02 01 08 1C A6  80 23 52 15 80 F8 FF FF  ..@......#R.....
23A0: 7F F8 FF FF 7F 73 30 36  33 45 15 80 F8 FF FF 7F  .....s063E......
23B0: F8 FF FF 7F 73 30 36 34  16 80 D0 82 80 83 40 02  ....s064......@.
23C0: 01 83 40 02 01 67 6E 68  32 16 80 5D 16 80 1C 80  ..@..gnh2..]....
23D0: 1C 65 80 52 15 80 F8 FF  FF 7F F8 FF FF 7F 73 30  .e.R..........s0
23E0: 36 34 5B B1 80 89 40 02  01 89 40 02 01 6B 72 75  64[...@...@..kru
23F0: 32 5B AB 80 83 40 02 01  83 40 02 01 68 69 7A 31  2[...@...@..hiz1
2400: 1C B2 80 45 15 80 F8 FF  FF 7F F8 FF FF 7F 62 6C  ...E..........bl
2410: 6F 6E 16 80 1C 44 80 5F  03 B3 80 89 40 02 01 89  on...D._....@...
2420: 40 02 01 63 6D 6F 66 5F  02 89 40 02 01 45 15 80  @..cmof_..@..E..
2430: F8 FF FF 7F F8 FF FF 7F  73 30 36 35 16 80 1C 1C  ........s065....
2440: 80 45 19 80 83 40 02 01  83 40 02 01 30 64 6B 6E  .E...@...@..0dkn
2450: 16 80 D0 80 80 83 40 02  01 83 40 02 01 6B 30 30  ......@...@..k00
2460: 31 16 80 1C 20 80 5C 00  B4 80 5C 01 B4 80 9A 1C  1... .\...\.....
2470: 13 80 52 15 80 F8 FF FF  7F F8 FF FF 7F 73 30 36  ..R..........s06
2480: 35 45 15 80 F8 FF FF 7F  F8 FF FF 7F 73 30 36 36  5E..........s066
2490: 16 80 D0 80 80 83 40 02  01 83 40 02 01 6B 30 30  ......@...@..k00
24A0: 30 16 80 1C 65 80 52 15  80 F8 FF FF 7F F8 FF FF  0...e.R.........
24B0: 7F 73 30 36 36 45 15 80  F8 FF FF 7F F8 FF FF 7F  .s066E..........
24C0: 73 30 36 37 16 80 D0 80  80 83 40 02 01 83 40 02  s067......@...@.
24D0: 01 6B 73 74 30 16 80 1C  02 80 6C 84 40 02 01 B5  .kst0.....l.@...
24E0: 80 00 80 4E 01 83 40 02  01 5B A8 80 81 40 02 01  ...N..@..[...@..
24F0: 81 40 02 01 62 74 6C 34  2C 81 40 02 01 81 40 02  .@..btl4,.@...@.
2500: 01 77 33 6F 6E 1C 1A 80  D0 7B 80 81 40 02 01 81  .w3on....{..@...
2510: 40 02 01 69 62 74 30 16  80 1C B6 80 5F 03 B7 80  @..ibt0....._...
2520: 84 40 02 01 84 40 02 01  6B 65 6E 30 1C AF 80 52  .@...@..ken0...R
2530: 15 80 F8 FF FF 7F F8 FF  FF 7F 73 30 36 37 45 15  ..........s067E.
2540: 80 F8 FF FF 7F F8 FF FF  7F 73 30 36 38 16 80 1C  .........s068...
2550: 43 80 52 15 80 F8 FF FF  7F F8 FF FF 7F 73 30 36  C.R..........s06
2560: 38 45 15 80 F8 FF FF 7F  F8 FF FF 7F 73 30 36 39  8E..........s069
2570: 16 80 1C 43 80 52 15 80  F8 FF FF 7F F8 FF FF 7F  ...C.R..........
2580: 73 30 36 39 45 15 80 F8  FF FF 7F F8 FF FF 7F 73  s069E..........s
2590: 30 37 30 16 80 1C 20 80  5F 05 B7 80 84 40 02 01  070... ._....@..
25A0: 84 40 02 01 6B 65 6E 31  A6 80 1C 20 80 2B 83 40  .@..ken1... .+.@
25B0: 02 01 B8 80 1C 1C 80 23  5F 07 84 40 02 01 84 40  .......#_..@...@
25C0: 02 01 6B 65 6E 31 5B B7  80 84 40 02 01 84 40 02  ..ken1[...@...@.
25D0: 01 6B 65 6E 32 52 15 80  F8 FF FF 7F F8 FF FF 7F  .ken2R..........
25E0: 73 30 37 30 45 15 80 F8  FF FF 7F F8 FF FF 7F 73  s070E..........s
25F0: 30 37 31 16 80 1C AF 80  52 15 80 F8 FF FF 7F F8  071.....R.......
2600: FF FF 7F 73 30 37 31 45  15 80 F8 FF FF 7F F8 FF  ...s071E........
2610: FF 7F 73 30 37 32 16 80  2B 83 40 02 01 B9 80 1C  ..s072..+.@.....
2620: 4C 80 1A AB 3D 1C 13 80  1A 58 3C 1A 79 3C 52 15  L...=....X<.y<R.
2630: 80 F8 FF FF 7F F8 FF FF  7F 73 30 37 32 45 15 80  .........s072E..
2640: F8 FF FF 7F F8 FF FF 7F  62 6C 6F 66 16 80 29 05  ........blof..).
2650: 83 40 02 01 0A 29 05 84  40 02 01 07 80 83 40 02  .@...)..@.....@.
2660: 01 80 84 40 02 01 29 10  83 40 02 01 0F 5C 00 16  ...@..)..@...\..
2670: 80 5C 01 16 80 9A 1C 23  80 AB 11 16 80 1C 00 80  .\.....#........
2680: AB 0A 46 00 45 19 80 F8  FF FF 7F F8 FF FF 7F 66  ..F.E..........f
2690: 64 69 32 16 80 1B                                 di2...          
```

#### Opcodes

```
  0: 0x0007 [0x42] SET_CLI_EVENT_CANCEL_DATA()
  1: 0x0008 [0x03] Work_Zone[1] = 1*
  2: 0x000D [0x43] SEND_EVENT_UPDATE: Send pending tag to server (packet 0x005B)
  3: 0x000F [0x43] SEND_EVENT_UPDATE: Check pending flag (skip if not pending)
  4: 0x0011 [0x1A] CALL_SUBROUTINE(address=0x0016)
  5: 0x0014 [0x21] END_EVENT
  6: 0x0015 [0x00] END_REQSTACK()

SUBROUTINE_0016:
  7: 0x0016 [0x03] ExtData[1]->WorkLocal[0] = Work_Zone[2]
  8: 0x001B [0x03] ExtData[1]->WorkLocal[1] = Work_Zone[3]
  9: 0x0020 [0x03] ExtData[1]->WorkLocal[2] = Work_Zone[4]
 10: 0x0025 [0x03] ExtData[1]->WorkLocal[3] = Work_Zone[5]
 11: 0x002A [0x03] ExtData[1]->WorkLocal[4] = Work_Zone[6]
 12: 0x002F [0x03] ExtData[1]->WorkLocal[5] = Work_Zone[7]
 13: 0x0034 [0x1A] CALL_SUBROUTINE(address=0x3C58)
 14: 0x0037 [0x46] CAMERA_CONTROL: Disable user control
 15: 0x0039 [0x38] SET_CLIENT_EVENT_MODE(mode=27*)
 16: 0x003C [0x2F] Iroha (ID: 16924801/0x01024081)->Render.Flags0 &= ~0x80000 // Bit 19
 17: 0x0042 [0x2F] Selh'teus (ID: 16924802/0x01024082)->Render.Flags0 &= ~0x80000 // Bit 19
 18: 0x0048 [0x2F] Volto Oscuro (ID: 16924803/0x01024083)->Render.Flags0 &= ~0x80000 // Bit 19
 19: 0x004E [0x2F] Unnamed NPC (ID: 16924804/0x01024084)->Render.Flags0 &= ~0x80000 // Bit 19
 20: 0x0054 [0x2F] Unnamed NPC (ID: 16924805/0x01024085)->Render.Flags0 &= ~0x80000 // Bit 19
 21: 0x005A [0x2F] Unnamed NPC (ID: 16924806/0x01024086)->Render.Flags0 &= ~0x80000 // Bit 19
 22: 0x0060 [0x2F] Unnamed NPC (ID: 16924807/0x01024087)->Render.Flags0 &= ~0x80000 // Bit 19
 23: 0x0066 [0x2F] Unnamed NPC (ID: 16924808/0x01024088)->Render.Flags0 &= ~0x80000 // Bit 19
 24: 0x006C [0x4E] SET_ENTITY_HIDE_FLAG: Show Selh'teus (ID: 16924802/0x01024082)
 25: 0x0072 [0x4E] SET_ENTITY_HIDE_FLAG: Show LocalPlayer
 26: 0x0078 [0x4E] SET_ENTITY_HIDE_FLAG: Show Iroha (ID: 16924801/0x01024081)
 27: 0x007E [0x4E] SET_ENTITY_HIDE_FLAG: Show Unnamed NPC (ID: 16924804/0x01024084)
 28: 0x0084 [0x4E] SET_ENTITY_HIDE_FLAG: Show Unnamed NPC (ID: 16924805/0x01024085)
 29: 0x008A [0x4E] SET_ENTITY_HIDE_FLAG: Show Unnamed NPC (ID: 16924806/0x01024086)
 30: 0x0090 [0x4E] SET_ENTITY_HIDE_FLAG: Show Unnamed NPC (ID: 16924807/0x01024087)
 31: 0x0096 [0x4E] SET_ENTITY_HIDE_FLAG: Show Unnamed NPC (ID: 16924808/0x01024088)
 32: 0x009C [0x22] ENTITY_HIDE_FLAG(enabled=0x00)
 33: 0x009E [0x92] Iroha (ID: 16924801/0x01024081)->Render.Flags3 ^= 0x01
 34: 0x00A4 [0x92] Selh'teus (ID: 16924802/0x01024082)->Render.Flags3 ^= 0x01
 35: 0x00AA [0x92] Volto Oscuro (ID: 16924803/0x01024083)->Render.Flags3 ^= 0x01
 36: 0x00B0 [0x94] Iroha (ID: 16924801/0x01024081)->Render.Flags3 ^= 0x01
 37: 0x00B6 [0x94] Selh'teus (ID: 16924802/0x01024082)->Render.Flags3 ^= 0x01
 38: 0x00BC [0x94] LocalPlayer->Render.Flags3 ^= 0x01
 39: 0x00C2 [0x94] Volto Oscuro (ID: 16924803/0x01024083)->Render.Flags3 ^= 0x01
 40: 0x00C8 [0x94] Unnamed NPC (ID: 16924804/0x01024084)->Render.Flags3 ^= 0x01
 41: 0x00CE [0x94] Unnamed NPC (ID: 16924805/0x01024085)->Render.Flags3 ^= 0x01
 42: 0x00D4 [0x94] Unnamed NPC (ID: 16924806/0x01024086)->Render.Flags3 ^= 0x01
 43: 0x00DA [0x94] Unnamed NPC (ID: 16924807/0x01024087)->Render.Flags3 ^= 0x01
 44: 0x00E0 [0x94] Unnamed NPC (ID: 16924808/0x01024088)->Render.Flags3 ^= 0x01
 45: 0x00E6 [0x33] EventEntity->Render.Flags0 |= 0x200000 // Bit 21 (flag=0x01)
 46: 0x00E8 [0x59] UPDATE_ENTITY_DATA: Selh'teus (ID: 16924802/0x01024082)->Render.Flags0 |= 0x200000
 47: 0x00EF [0x02] IF !(LocalPlayer->Race == 5*) GOTO 0x0101
 48: 0x00F7 [0x27] REQ_SET(priority=0x05, entity_id=LocalPlayer, tag_num=0x23)
 49: 0x00FE [0x01] GOTO 0x013E
 50: 0x0101 [0x02] IF !(LocalPlayer->Race == 6*) GOTO 0x0113
 51: 0x0109 [0x27] REQ_SET(priority=0x05, entity_id=LocalPlayer, tag_num=0x23)
 52: 0x0110 [0x01] GOTO 0x013E
 53: 0x0113 [0x02] IF !(LocalPlayer->Race == 7*) GOTO 0x0125
 54: 0x011B [0x27] REQ_SET(priority=0x05, entity_id=LocalPlayer, tag_num=0x24)
 55: 0x0122 [0x01] GOTO 0x013E
 56: 0x0125 [0x02] IF !(LocalPlayer->Race == 8*) GOTO 0x0137
 57: 0x012D [0x27] REQ_SET(priority=0x05, entity_id=LocalPlayer, tag_num=0x25)
 58: 0x0134 [0x01] GOTO 0x013E
 59: 0x0137 [0x27] REQ_SET(priority=0x05, entity_id=LocalPlayer, tag_num=0x26)

SUBROUTINE_013E:
 60: 0x013E [0xBA] SET_ENTITY_POSITION(entity_id=LocalPlayer, pos_x=-516.134*, pos_z=514.618*, pos_y=-120.000*, direction=281.0*)
 61: 0x014B [0x37] UPDATE_EVENT_POSITION_AND_DIR: x=-517.925*, z=516.144*, y=-120.000*, direction=281.0*
 62: 0x0154 [0xBA] SET_ENTITY_POSITION(entity_id=Iroha (ID: 16924801/0x01024081), pos_x=-517.925*, pos_z=516.144*, pos_y=-120.000*, direction=281.0*)
 63: 0x0161 [0xBA] SET_ENTITY_POSITION(entity_id=Selh'teus (ID: 16924802/0x01024082), pos_x=-515.972*, pos_z=519.941*, pos_y=-121.000*, direction=97.6*)
 64: 0x016E [0xBA] SET_ENTITY_POSITION(entity_id=Volto Oscuro (ID: 16924803/0x01024083), pos_x=-516.644*, pos_z=513.556*, pos_y=-120.000*, direction=252.0*)
 65: 0x017B [0xBA] SET_ENTITY_POSITION(entity_id=Unnamed NPC (ID: 16924804/0x01024084), pos_x=-516.644*, pos_z=513.556*, pos_y=-120.000*, direction=252.0*)
 66: 0x0188 [0xBA] SET_ENTITY_POSITION(entity_id=Unnamed NPC (ID: 16924805/0x01024085), pos_x=-516.644*, pos_z=513.556*, pos_y=-120.000*, direction=252.0*)
 67: 0x0195 [0xBA] SET_ENTITY_POSITION(entity_id=Unnamed NPC (ID: 16924806/0x01024086), pos_x=-516.644*, pos_z=513.556*, pos_y=-120.000*, direction=252.0*)
 68: 0x01A2 [0xBA] SET_ENTITY_POSITION(entity_id=Unnamed NPC (ID: 16924807/0x01024087), pos_x=-516.644*, pos_z=513.556*, pos_y=-120.000*, direction=252.0*)
 69: 0x01AF [0xBA] SET_ENTITY_POSITION(entity_id=Unnamed NPC (ID: 16924808/0x01024088), pos_x=-516.644*, pos_z=513.556*, pos_y=-120.000*, direction=252.0*)
 70: 0x01BC [0x80] LOAD_WAIT(entity=Iroha (ID: 16924801/0x01024081))
 71: 0x01C1 [0x80] LOAD_WAIT(entity=LocalPlayer)
 72: 0x01C6 [0x80] LOAD_WAIT(entity=EventEntity)
 73: 0x01CB [0x80] LOAD_WAIT(entity=Selh'teus (ID: 16924802/0x01024082))
 74: 0x01D0 [0x80] LOAD_WAIT(entity=Unnamed NPC (ID: 16924804/0x01024084))
 75: 0x01D5 [0x80] LOAD_WAIT(entity=Unnamed NPC (ID: 16924805/0x01024085))
 76: 0x01DA [0x80] LOAD_WAIT(entity=Unnamed NPC (ID: 16924806/0x01024086))
 77: 0x01DF [0x80] LOAD_WAIT(entity=Unnamed NPC (ID: 16924807/0x01024087))
 78: 0x01E4 [0x80] LOAD_WAIT(entity=Unnamed NPC (ID: 16924808/0x01024088))
 79: 0x01E9 [0x27] REQ_SET(priority=0x05, entity_id=Selh'teus (ID: 16924802/0x01024082), tag_num=0x03)
 80: 0x01F0 [0x27] REQ_SET(priority=0x05, entity_id=Unnamed NPC (ID: 16924804/0x01024084), tag_num=0x03)
 81: 0x01F7 [0x27] REQ_SET(priority=0x05, entity_id=Unnamed NPC (ID: 16924805/0x01024085), tag_num=0x03)
 82: 0x01FE [0x27] REQ_SET(priority=0x05, entity_id=Unnamed NPC (ID: 16924806/0x01024086), tag_num=0x03)
 83: 0x0205 [0x27] REQ_SET(priority=0x05, entity_id=Unnamed NPC (ID: 16924807/0x01024087), tag_num=0x03)
 84: 0x020C [0x27] REQ_SET(priority=0x05, entity_id=Unnamed NPC (ID: 16924808/0x01024088), tag_num=0x03)
 85: 0x0213 [0x1C] WAIT(30* ticks)
 86: 0x0216 [0x5C] MUSIC_CONTROL: Set Idle (Day) music to song 153*
 87: 0x021A [0x5C] MUSIC_CONTROL: Set Idle (Night) music to song 153*
 88: 0x021E [0x9A] WAIT_MUSIC_SERVER()
 89: 0x021F [0x45] LOAD_SCHEDULED_TASK: Load scheduler "s000" with entities [EventEntity, EventEntity], work=[733*, 0*]
 90: 0x0230 [0x1A] CALL_SUBROUTINE(address=0x3C37)
 91: 0x0233 [0x5B] LOAD_EXT_SCHEDULER: Load scheduler "wapk" with entities [Iroha (ID: 16924801/0x01024081), Iroha (ID: 16924801/0x01024081)], work=3866*
 92: 0x0242 [0x2B] Iroha (ID: 16924801/0x01024081) [7834*]:
     "Is this... Is this the world of the gods?"
 93: 0x0249 [0x1C] WAIT(200* ticks)
 94: 0x024C [0x23] WAIT_FOR_DIALOG_INTERACTION
 95: 0x024D [0x52] END_LOAD_SCHEDULER: End scheduler "s000" with entities [EventEntity, EventEntity], work=733*
 96: 0x025C [0x45] LOAD_SCHEDULED_TASK: Load scheduler "s001" with entities [EventEntity, EventEntity], work=[733*, 0*]
 97: 0x026D [0x1C] WAIT(60* ticks)
 98: 0x0270 [0x1D] PRINT_EVENT_MESSAGE(message_id=7835*)
     "Not completely. Humanity is still permitted to traverse this section."
 99: 0x0273 [0x1C] WAIT(30* ticks)
100: 0x0276 [0x5B] LOAD_EXT_SCHEDULER: Load scheduler "wapk" with entities [Iroha (ID: 16924801/0x01024081), Iroha (ID: 16924801/0x01024081)], work=3866*
101: 0x0285 [0x1C] WAIT(120* ticks)
102: 0x0288 [0x23] WAIT_FOR_DIALOG_INTERACTION
103: 0x0289 [0x52] END_LOAD_SCHEDULER: End scheduler "s001" with entities [EventEntity, EventEntity], work=733*
104: 0x0298 [0x45] LOAD_SCHEDULED_TASK: Load scheduler "s002" with entities [EventEntity, EventEntity], work=[733*, 0*]
105: 0x02A9 [0xD0] LOAD_SCHEDULED_TASK_ALT5: Load scheduler "main" with entities [Selh'teus (ID: 16924802/0x01024082), Selh'teus (ID: 16924802/0x01024082)], work=[164*, 0*]
106: 0x02BA [0x1C] WAIT(60* ticks)
107: 0x02BD [0x4A] LocalPlayer looks at Selh'teus (ID: 16924802/0x01024082)
108: 0x02C6 [0x1C] WAIT(30* ticks)
109: 0x02C9 [0x4A] Iroha (ID: 16924801/0x01024081) looks at Selh'teus (ID: 16924802/0x01024082)
110: 0x02D2 [0x1C] WAIT(300* ticks)
111: 0x02D5 [0x52] END_LOAD_SCHEDULER: End scheduler "s002" with entities [EventEntity, EventEntity], work=733*
112: 0x02E4 [0x45] LOAD_SCHEDULED_TASK: Load scheduler "s073" with entities [EventEntity, EventEntity], work=[733*, 0*]
113: 0x02F5 [0x1C] WAIT(30* ticks)
114: 0x02F8 [0x2B] Selh'teus (ID: 16924802/0x01024082) [7836*]:
     "That is why the two of you are able to maintain your corporeal forms."
115: 0x02FF [0x1C] WAIT(90* ticks)
116: 0x0302 [0x23] WAIT_FOR_DIALOG_INTERACTION
117: 0x0303 [0x5B] LOAD_EXT_SCHEDULER: Load scheduler "tlk0" with entities [Iroha (ID: 16924801/0x01024081), Iroha (ID: 16924801/0x01024081)], work=3861*
118: 0x0312 [0x52] END_LOAD_SCHEDULER: End scheduler "s073" with entities [EventEntity, EventEntity], work=733*
119: 0x0321 [0x45] LOAD_SCHEDULED_TASK: Load scheduler "s003" with entities [EventEntity, EventEntity], work=[733*, 0*]
120: 0x0332 [0x2B] Iroha (ID: 16924801/0x01024081) [7837*]:
     "Sir Selh'teus, in the age I hail from there is a large crystal in Reisenjima Sanctorium."
121: 0x0339 [0x1C] WAIT(15* ticks)
122: 0x033C [0x1C] WAIT(45* ticks)
123: 0x033F [0x23] WAIT_FOR_DIALOG_INTERACTION
124: 0x0340 [0x2B] Iroha (ID: 16924801/0x01024081) [7838*]:
     "That would be the result of the very plan you are putting in action, would it not?"
125: 0x0347 [0x23] WAIT_FOR_DIALOG_INTERACTION
126: 0x0348 [0x5B] LOAD_EXT_SCHEDULER: Load scheduler "tlk1" with entities [Iroha (ID: 16924801/0x01024081), Iroha (ID: 16924801/0x01024081)], work=3861*
127: 0x0357 [0x52] END_LOAD_SCHEDULER: End scheduler "s003" with entities [EventEntity, EventEntity], work=733*
128: 0x0366 [0x45] LOAD_SCHEDULED_TASK: Load scheduler "s004" with entities [EventEntity, EventEntity], work=[733*, 0*]
129: 0x0377 [0x2B] Selh'teus (ID: 16924802/0x01024082) [7839*]:
     "Of that I am certain."
130: 0x037E [0x23] WAIT_FOR_DIALOG_INTERACTION
131: 0x037F [0x2B] Selh'teus (ID: 16924802/0x01024082) [7840*]:
     "Iroha, the time for the ritual is at hand."
132: 0x0386 [0x23] WAIT_FOR_DIALOG_INTERACTION
133: 0x0387 [0x52] END_LOAD_SCHEDULER: End scheduler "s004" with entities [EventEntity, EventEntity], work=733*
134: 0x0396 [0x45] LOAD_SCHEDULED_TASK: Load scheduler "s005" with entities [EventEntity, EventEntity], work=[733*, 0*]
135: 0x03A7 [0x5B] LOAD_EXT_SCHEDULER: Load scheduler "tlk0" with entities [Iroha (ID: 16924801/0x01024081), Iroha (ID: 16924801/0x01024081)], work=3861*
136: 0x03B6 [0x2B] Iroha (ID: 16924801/0x01024081) [7841*]:
     "There is something I would ask first."
137: 0x03BD [0x23] WAIT_FOR_DIALOG_INTERACTION
138: 0x03BE [0x2B] Iroha (ID: 16924801/0x01024081) [7842*]:
     "I can recall bits and pieces of what my father and Master used to tell me about this crystal."
139: 0x03C5 [0x23] WAIT_FOR_DIALOG_INTERACTION
140: 0x03C6 [0x52] END_LOAD_SCHEDULER: End scheduler "s005" with entities [EventEntity, EventEntity], work=733*
141: 0x03D5 [0x45] LOAD_SCHEDULED_TASK: Load scheduler "s006" with entities [EventEntity, EventEntity], work=[733*, 0*]
142: 0x03E6 [0x2B] Iroha (ID: 16924801/0x01024081) [7843*]:
     "I stood barely knee-high to them and was unable to fully comprehend the gravity of the situation."
143: 0x03ED [0x23] WAIT_FOR_DIALOG_INTERACTION
144: 0x03EE [0x2B] Iroha (ID: 16924801/0x01024081) [7844*]:
     "Yet now I do. You are intending to become one with the crystal."
145: 0x03F5 [0x23] WAIT_FOR_DIALOG_INTERACTION
146: 0x03F6 [0x5B] LOAD_EXT_SCHEDULER: Load scheduler "tlk1" with entities [Iroha (ID: 16924801/0x01024081), Iroha (ID: 16924801/0x01024081)], work=3861*
147: 0x0405 [0x52] END_LOAD_SCHEDULER: End scheduler "s006" with entities [EventEntity, EventEntity], work=733*
148: 0x0414 [0x45] LOAD_SCHEDULED_TASK: Load scheduler "s007" with entities [EventEntity, EventEntity], work=[733*, 0*]
149: 0x0425 [0x1C] WAIT(30* ticks)
150: 0x0428 [0x2B] Selh'teus (ID: 16924802/0x01024082) [7845*]:
     "I am. I will become the crystal itself."
151: 0x042F [0x1C] WAIT(90* ticks)
152: 0x0432 [0x23] WAIT_FOR_DIALOG_INTERACTION
153: 0x0433 [0x5B] LOAD_EXT_SCHEDULER: Load scheduler "yes0" with entities [Iroha (ID: 16924801/0x01024081), Iroha (ID: 16924801/0x01024081)], work=3862*
154: 0x0442 [0x52] END_LOAD_SCHEDULER: End scheduler "s007" with entities [EventEntity, EventEntity], work=733*
155: 0x0451 [0x45] LOAD_SCHEDULED_TASK: Load scheduler "s008" with entities [EventEntity, EventEntity], work=[733*, 0*]
156: 0x0462 [0x2B] Iroha (ID: 16924801/0x01024081) [7846*]:
     "I feared as much."
157: 0x0469 [0x1C] WAIT(130* ticks)
158: 0x046C [0x23] WAIT_FOR_DIALOG_INTERACTION
159: 0x046D [0x52] END_LOAD_SCHEDULER: End scheduler "s008" with entities [EventEntity, EventEntity], work=733*
160: 0x047C [0x45] LOAD_SCHEDULED_TASK: Load scheduler "s009" with entities [EventEntity, EventEntity], work=[733*, 0*]
161: 0x048D [0x2B] Selh'teus (ID: 16924802/0x01024082) [7847*]:
     "I could gather energy from countless crystals across eons and eons, yet even that would not be enough."
162: 0x0494 [0x23] WAIT_FOR_DIALOG_INTERACTION
163: 0x0495 [0x1A] CALL_SUBROUTINE(address=0x3C58)
164: 0x0498 [0x52] END_LOAD_SCHEDULER: End scheduler "s009" with entities [EventEntity, EventEntity], work=733*
165: 0x04A7 [0x4E] SET_ENTITY_HIDE_FLAG: Hide Selh'teus (ID: 16924802/0x01024082)
166: 0x04AD [0x4E] SET_ENTITY_HIDE_FLAG: Hide LocalPlayer
167: 0x04B3 [0x4E] SET_ENTITY_HIDE_FLAG: Hide Iroha (ID: 16924801/0x01024081)
168: 0x04B9 [0x62] LOAD_EVENT_SCHEDULER: Load scheduler "s001" with entities [EventEntity, EventEntity], work=[61*, 0*]
169: 0x04CA [0x1C] WAIT(30* ticks)
170: 0x04CD [0x45] LOAD_SCHEDULED_TASK: Load scheduler "s010" with entities [EventEntity, EventEntity], work=[733*, 0*]
171: 0x04DE [0x1A] CALL_SUBROUTINE(address=0x3C37)
172: 0x04E1 [0x62] LOAD_EVENT_SCHEDULER: Load scheduler "s002" with entities [EventEntity, EventEntity], work=[61*, 0*]
173: 0x04F2 [0x2B] Selh'teus (ID: 16924802/0x01024082) [7848*]:
     "Mothercrystals are living, breathing things much like we are. Magic is their blood, their very heartbeat."
174: 0x04F9 [0x1C] WAIT(520* ticks)
175: 0x04FC [0x1A] CALL_SUBROUTINE(address=0x3C58)
176: 0x04FF [0x52] END_LOAD_SCHEDULER: End scheduler "s010" with entities [EventEntity, EventEntity], work=733*
177: 0x050E [0x62] LOAD_EVENT_SCHEDULER: Load scheduler "send" with entities [EventEntity, EventEntity], work=[61*, 0*]
178: 0x051F [0x4E] SET_ENTITY_HIDE_FLAG: Show Selh'teus (ID: 16924802/0x01024082)
179: 0x0525 [0x4E] SET_ENTITY_HIDE_FLAG: Show LocalPlayer
180: 0x052B [0x4E] SET_ENTITY_HIDE_FLAG: Show Iroha (ID: 16924801/0x01024081)
181: 0x0531 [0x80] LOAD_WAIT(entity=LocalPlayer)
182: 0x0536 [0x80] LOAD_WAIT(entity=Selh'teus (ID: 16924802/0x01024082))
183: 0x053B [0x80] LOAD_WAIT(entity=LocalPlayer)
184: 0x0540 [0x80] LOAD_WAIT(entity=Iroha (ID: 16924801/0x01024081))
185: 0x0545 [0x4E] SET_ENTITY_HIDE_FLAG: Show Altana (ID: 16924794/0x0102407A)
186: 0x054B [0x4E] SET_ENTITY_HIDE_FLAG: Show ??? (ID: 16924810/0x0102408A)
187: 0x0551 [0x2F] ??? (ID: 16924810/0x0102408A)->Render.Flags0 &= ~0x80000 // Bit 19
188: 0x0557 [0x92] Altana (ID: 16924794/0x0102407A)->Render.Flags3 ^= 0x01
189: 0x055D [0x92] ??? (ID: 16924810/0x0102408A)->Render.Flags3 ^= 0x01
190: 0x0563 [0x59] UPDATE_ENTITY_DATA: Altana (ID: 16924794/0x0102407A)->Render.Flags0 |= 0x200000
191: 0x056A [0x59] UPDATE_ENTITY_DATA: ??? (ID: 16924810/0x0102408A)->Render.Flags0 |= 0x200000
192: 0x0571 [0x94] Altana (ID: 16924794/0x0102407A)->Render.Flags3 ^= 0x01
193: 0x0577 [0x94] ??? (ID: 16924810/0x0102408A)->Render.Flags3 ^= 0x01
194: 0x057D [0xBA] SET_ENTITY_POSITION(entity_id=??? (ID: 16924810/0x0102408A), pos_x=-516.134*, pos_z=514.618*, pos_y=-120.000*, direction=281.0*)
195: 0x058A [0x02] IF !(LocalPlayer->Race == 3*) GOTO 0x05A2
196: 0x0592 [0xBA] SET_ENTITY_POSITION(entity_id=Altana (ID: 16924794/0x0102407A), pos_x=-516.081*, pos_z=514.455*, pos_y=-121.199*, direction=281.0*)
197: 0x059F [0x01] GOTO 0x0627
198: 0x05A2 [0x02] IF !(LocalPlayer->Race == 4*) GOTO 0x05BA
199: 0x05AA [0xBA] SET_ENTITY_POSITION(entity_id=Altana (ID: 16924794/0x0102407A), pos_x=-516.081*, pos_z=514.455*, pos_y=-121.199*, direction=281.0*)
200: 0x05B7 [0x01] GOTO 0x0627
201: 0x05BA [0x02] IF !(LocalPlayer->Race == 5*) GOTO 0x05D2
202: 0x05C2 [0xBA] SET_ENTITY_POSITION(entity_id=Altana (ID: 16924794/0x0102407A), pos_x=-516.081*, pos_z=514.455*, pos_y=-120.299*, direction=281.0*)
203: 0x05CF [0x01] GOTO 0x0627
204: 0x05D2 [0x02] IF !(LocalPlayer->Race == 6*) GOTO 0x05EA
205: 0x05DA [0xBA] SET_ENTITY_POSITION(entity_id=Altana (ID: 16924794/0x0102407A), pos_x=-516.081*, pos_z=514.455*, pos_y=-120.299*, direction=281.0*)
206: 0x05E7 [0x01] GOTO 0x0627
207: 0x05EA [0x02] IF !(LocalPlayer->Race == 7*) GOTO 0x0602
208: 0x05F2 [0xBA] SET_ENTITY_POSITION(entity_id=Altana (ID: 16924794/0x0102407A), pos_x=-516.081*, pos_z=514.505*, pos_y=-120.949*, direction=281.0*)
209: 0x05FF [0x01] GOTO 0x0627
210: 0x0602 [0x02] IF !(LocalPlayer->Race == 8*) GOTO 0x061A
211: 0x060A [0xBA] SET_ENTITY_POSITION(entity_id=Altana (ID: 16924794/0x0102407A), pos_x=-516.081*, pos_z=514.455*, pos_y=-121.199*, direction=281.0*)
212: 0x0617 [0x01] GOTO 0x0627
213: 0x061A [0xBA] SET_ENTITY_POSITION(entity_id=Altana (ID: 16924794/0x0102407A), pos_x=-516.081*, pos_z=514.455*, pos_y=-120.999*, direction=281.0*)

SUBROUTINE_0627:
214: 0x0627 [0x80] LOAD_WAIT(entity=Altana (ID: 16924794/0x0102407A))
215: 0x062C [0x80] LOAD_WAIT(entity=??? (ID: 16924810/0x0102408A))
216: 0x0631 [0x4A] Altana (ID: 16924794/0x0102407A) looks at Selh'teus (ID: 16924802/0x01024082)
217: 0x063A [0x4A] ??? (ID: 16924810/0x0102408A) looks at Selh'teus (ID: 16924802/0x01024082)
218: 0x0643 [0x7B] Altana (ID: 16924794/0x0102407A) stops talking
219: 0x0648 [0x7B] ??? (ID: 16924810/0x0102408A) stops talking
220: 0x064D [0x1C] WAIT(30* ticks)
221: 0x0650 [0x02] IF !(LocalPlayer->Race == 1*) GOTO 0x066B
222: 0x0658 [0x5F] MULTI_HANDLER_COMPLEX(mode=0x03 - Load ext scheduler (OpCode 0x5B mode 0), ref=3878*, entity1=??? (ID: 16924810/0x0102408A), entity2=??? (ID: 16924810/0x0102408A), string="hmml")
223: 0x0668 [0x01] GOTO 0x0728
224: 0x066B [0x02] IF !(LocalPlayer->Race == 2*) GOTO 0x0686
225: 0x0673 [0x5F] MULTI_HANDLER_COMPLEX(mode=0x03 - Load ext scheduler (OpCode 0x5B mode 0), ref=3878*, entity1=??? (ID: 16924810/0x0102408A), entity2=??? (ID: 16924810/0x0102408A), string="hfml")
226: 0x0683 [0x01] GOTO 0x0728
227: 0x0686 [0x02] IF !(LocalPlayer->Race == 3*) GOTO 0x06A1
228: 0x068E [0x5F] MULTI_HANDLER_COMPLEX(mode=0x03 - Load ext scheduler (OpCode 0x5B mode 0), ref=3878*, entity1=??? (ID: 16924810/0x0102408A), entity2=??? (ID: 16924810/0x0102408A), string="emml")
229: 0x069E [0x01] GOTO 0x0728
230: 0x06A1 [0x02] IF !(LocalPlayer->Race == 4*) GOTO 0x06BC
231: 0x06A9 [0x5F] MULTI_HANDLER_COMPLEX(mode=0x03 - Load ext scheduler (OpCode 0x5B mode 0), ref=3878*, entity1=??? (ID: 16924810/0x0102408A), entity2=??? (ID: 16924810/0x0102408A), string="efml")
232: 0x06B9 [0x01] GOTO 0x0728
233: 0x06BC [0x02] IF !(LocalPlayer->Race == 5*) GOTO 0x06D7
234: 0x06C4 [0x5F] MULTI_HANDLER_COMPLEX(mode=0x03 - Load ext scheduler (OpCode 0x5B mode 0), ref=3878*, entity1=??? (ID: 16924810/0x0102408A), entity2=??? (ID: 16924810/0x0102408A), string="tmal")
235: 0x06D4 [0x01] GOTO 0x0728
236: 0x06D7 [0x02] IF !(LocalPlayer->Race == 6*) GOTO 0x06F2
237: 0x06DF [0x5F] MULTI_HANDLER_COMPLEX(mode=0x03 - Load ext scheduler (OpCode 0x5B mode 0), ref=3878*, entity1=??? (ID: 16924810/0x0102408A), entity2=??? (ID: 16924810/0x0102408A), string="tmal")
238: 0x06EF [0x01] GOTO 0x0728
239: 0x06F2 [0x02] IF !(LocalPlayer->Race == 7*) GOTO 0x070D
240: 0x06FA [0x5F] MULTI_HANDLER_COMPLEX(mode=0x03 - Load ext scheduler (OpCode 0x5B mode 0), ref=3878*, entity1=??? (ID: 16924810/0x0102408A), entity2=??? (ID: 16924810/0x0102408A), string="mmal")
241: 0x070A [0x01] GOTO 0x0728
242: 0x070D [0x02] IF !(LocalPlayer->Race == 8*) GOTO 0x0728
243: 0x0715 [0x5F] MULTI_HANDLER_COMPLEX(mode=0x03 - Load ext scheduler (OpCode 0x5B mode 0), ref=3878*, entity1=??? (ID: 16924810/0x0102408A), entity2=??? (ID: 16924810/0x0102408A), string="gmal")
244: 0x0725 [0x01] GOTO 0x0728

SUBROUTINE_0728:
245: 0x0728 [0x1C] WAIT(30* ticks)
246: 0x072B [0x45] LOAD_SCHEDULED_TASK: Load scheduler "s011" with entities [EventEntity, EventEntity], work=[733*, 0*]
247: 0x073C [0x1A] CALL_SUBROUTINE(address=0x3C37)
248: 0x073F [0x2B] Selh'teus (ID: 16924802/0x01024082) [7849*]:
     "They are not simple shards of rock. I must become one with the crystal for this plan to come to fruition."
249: 0x0746 [0x23] WAIT_FOR_DIALOG_INTERACTION
250: 0x0747 [0x52] END_LOAD_SCHEDULER: End scheduler "s011" with entities [EventEntity, EventEntity], work=733*
251: 0x0756 [0x45] LOAD_SCHEDULED_TASK: Load scheduler "s012" with entities [EventEntity, EventEntity], work=[733*, 0*]
252: 0x0767 [0x2B] Selh'teus (ID: 16924802/0x01024082) [7850*]:
     "Ten thousand years ago there was another who attempted a similar ritual in Tu'Lia. Yet he made a critical error in his haste, and expired before reaching his goal."
253: 0x076E [0x23] WAIT_FOR_DIALOG_INTERACTION
254: 0x076F [0x2B] Selh'teus (ID: 16924802/0x01024082) [7851*]:
     "However, in this time...in this place... I know I can succeed."
255: 0x0776 [0x23] WAIT_FOR_DIALOG_INTERACTION
256: 0x0777 [0x52] END_LOAD_SCHEDULER: End scheduler "s012" with entities [EventEntity, EventEntity], work=733*
257: 0x0786 [0x02] IF !(LocalPlayer->Race == 5*) GOTO 0x07A2
258: 0x078E [0x45] LOAD_SCHEDULED_TASK: Load scheduler "sa06" with entities [EventEntity, EventEntity], work=[733*, 0*]
259: 0x079F [0x01] GOTO 0x07CF
260: 0x07A2 [0x02] IF !(LocalPlayer->Race == 6*) GOTO 0x07BE
261: 0x07AA [0x45] LOAD_SCHEDULED_TASK: Load scheduler "sa06" with entities [EventEntity, EventEntity], work=[733*, 0*]
262: 0x07BB [0x01] GOTO 0x07CF
263: 0x07BE [0x45] LOAD_SCHEDULED_TASK: Load scheduler "sa05" with entities [EventEntity, EventEntity], work=[733*, 0*]

SUBROUTINE_07CF:
264: 0x07CF [0xD0] LOAD_SCHEDULED_TASK_ALT5: Load scheduler "sta1" with entities [Altana (ID: 16924794/0x0102407A), Altana (ID: 16924794/0x0102407A)], work=[103*, 0*]
265: 0x07E0 [0x1C] WAIT(120* ticks)
266: 0x07E3 [0xD0] LOAD_SCHEDULED_TASK_ALT5: Load scheduler "kil2" with entities [Altana (ID: 16924794/0x0102407A), Altana (ID: 16924794/0x0102407A)], work=[103*, 0*]
267: 0x07F4 [0x52] END_LOAD_SCHEDULER: End scheduler "sa05" with entities [EventEntity, EventEntity], work=733*
268: 0x0803 [0x52] END_LOAD_SCHEDULER: End scheduler "sa06" with entities [EventEntity, EventEntity], work=733*
269: 0x0812 [0x02] IF !(LocalPlayer->Race == 5*) GOTO 0x082E
270: 0x081A [0x45] LOAD_SCHEDULED_TASK: Load scheduler "sa08" with entities [EventEntity, EventEntity], work=[733*, 0*]
271: 0x082B [0x01] GOTO 0x085B
272: 0x082E [0x02] IF !(LocalPlayer->Race == 6*) GOTO 0x084A
273: 0x0836 [0x45] LOAD_SCHEDULED_TASK: Load scheduler "sa08" with entities [EventEntity, EventEntity], work=[733*, 0*]
274: 0x0847 [0x01] GOTO 0x085B
275: 0x084A [0x45] LOAD_SCHEDULED_TASK: Load scheduler "sa07" with entities [EventEntity, EventEntity], work=[733*, 0*]

SUBROUTINE_085B:
276: 0x085B [0x27] REQ_SET(priority=0x05, entity_id=LocalPlayer, tag_num=0x28)
277: 0x0862 [0x1C] WAIT(210* ticks)
278: 0x0865 [0xD0] LOAD_SCHEDULED_TASK_ALT5: Load scheduler "star" with entities [??? (ID: 16924810/0x0102408A), ??? (ID: 16924810/0x0102408A)], work=[103*, 0*]
279: 0x0876 [0x1C] WAIT(90* ticks)
280: 0x0879 [0x52] END_LOAD_SCHEDULER: End scheduler "sa07" with entities [EventEntity, EventEntity], work=733*
281: 0x0888 [0x52] END_LOAD_SCHEDULER: End scheduler "sa08" with entities [EventEntity, EventEntity], work=733*
282: 0x0897 [0x45] LOAD_SCHEDULED_TASK: Load scheduler "sa10" with entities [EventEntity, EventEntity], work=[733*, 0*]
283: 0x08A8 [0x27] REQ_SET(priority=0x05, entity_id=LocalPlayer, tag_num=0x2C)
284: 0x08AF [0x1C] WAIT(150* ticks)
285: 0x08B2 [0x52] END_LOAD_SCHEDULER: End scheduler "sa10" with entities [EventEntity, EventEntity], work=733*
286: 0x08C1 [0x45] LOAD_SCHEDULED_TASK: Load scheduler "sa09" with entities [EventEntity, EventEntity], work=[733*, 0*]
287: 0x08D2 [0x81] SET_ENTITY_BLINKING(blink_flag=0x00, entity=Selh'teus (ID: 16924802/0x01024082))
288: 0x08D8 [0x5B] LOAD_EXT_SCHEDULER: Load scheduler "yes0" with entities [Selh'teus (ID: 16924802/0x01024082), Selh'teus (ID: 16924802/0x01024082)], work=733*
289: 0x08E7 [0x1C] WAIT(30* ticks)
290: 0x08EA [0x27] REQ_SET(priority=0x05, entity_id=LocalPlayer, tag_num=0x2B)
291: 0x08F1 [0x1C] WAIT(150* ticks)
292: 0x08F4 [0x45] LOAD_SCHEDULED_TASK: Load scheduler "s013" with entities [EventEntity, EventEntity], work=[733*, 0*]
293: 0x0905 [0x81] SET_ENTITY_BLINKING(blink_flag=0x01, entity=Selh'teus (ID: 16924802/0x01024082))
294: 0x090B [0x02] IF !(ExtData[1]->WorkLocal[0] == 1*) GOTO 0x0935
295: 0x0913 [0x2B] Selh'teus (ID: 16924802/0x01024082) [7856*]:
     "<Player>, my previous actions have caused you to pay a terrible price."
296: 0x091A [0x23] WAIT_FOR_DIALOG_INTERACTION
297: 0x091B [0x2B] Selh'teus (ID: 16924802/0x01024082) [7857*]:
     "It should have fallen to me to protect the Far East."
298: 0x0922 [0x23] WAIT_FOR_DIALOG_INTERACTION
299: 0x0923 [0x52] END_LOAD_SCHEDULER: End scheduler "s013" with entities [EventEntity, EventEntity], work=733*
300: 0x0932 [0x01] GOTO 0x0984
301: 0x0935 [0x2B] Selh'teus (ID: 16924802/0x01024082) [7852*]:
     "<Player>, the man you see before you exists as the man I am to become."
302: 0x093C [0x23] WAIT_FOR_DIALOG_INTERACTION
303: 0x093D [0x2B] Selh'teus (ID: 16924802/0x01024082) [7853*]:
     "So I am keenly aware of the paths we are to walk...and the paths you and Prishe are destined to walk."
304: 0x0944 [0x23] WAIT_FOR_DIALOG_INTERACTION
305: 0x0945 [0x52] END_LOAD_SCHEDULER: End scheduler "s013" with entities [EventEntity, EventEntity], work=733*
306: 0x0954 [0x45] LOAD_SCHEDULED_TASK: Load scheduler "s014" with entities [EventEntity, EventEntity], work=[733*, 0*]
307: 0x0965 [0x2B] Selh'teus (ID: 16924802/0x01024082) [7854*]:
     "What I am to do will cost you a terrible price."
308: 0x096C [0x23] WAIT_FOR_DIALOG_INTERACTION
309: 0x096D [0x2B] Selh'teus (ID: 16924802/0x01024082) [7855*]:
     "So let me apologize now for what is to come to pass. Though it may be of little comfort, consider my actions today a preemptive apology."
310: 0x0974 [0x23] WAIT_FOR_DIALOG_INTERACTION
311: 0x0975 [0x52] END_LOAD_SCHEDULER: End scheduler "s014" with entities [EventEntity, EventEntity], work=733*

SUBROUTINE_0984:
312: 0x0984 [0x45] LOAD_SCHEDULED_TASK: Load scheduler "s015" with entities [EventEntity, EventEntity], work=[733*, 0*]
313: 0x0995 [0x5F] MULTI_HANDLER_COMPLEX(mode=0x05 - Load ext scheduler with flag (OpCode 0x5B mode 0, flag 1), ref=3863*, entity1=Iroha (ID: 16924801/0x01024081), entity2=Iroha (ID: 16924801/0x01024081), string="tlc0", extra=100*)
314: 0x09A7 [0x79] LocalPlayer looks at Unknown NPC (ID: 2152562710/0x804D8016) (Direct axis set)
315: 0x09B1 [0x2B] Iroha (ID: 16924801/0x01024081) [7858*]:
     "Master. Sir Selh'teus."
316: 0x09B8 [0x1C] WAIT(15* ticks)
317: 0x09BB [0xD0] LOAD_SCHEDULED_TASK_ALT5: Load scheduler "kill" with entities [??? (ID: 16924810/0x0102408A), ??? (ID: 16924810/0x0102408A)], work=[103*, 0*]
318: 0x09CC [0x6B] STOP_AND_IDLE: LocalPlayer stops current action and resets to idle (animation="idl0")
319: 0x09D5 [0x4E] SET_ENTITY_HIDE_FLAG: Hide ??? (ID: 16924810/0x0102408A)
320: 0x09DB [0x1C] WAIT(45* ticks)
321: 0x09DE [0x23] WAIT_FOR_DIALOG_INTERACTION
322: 0x09DF [0x2B] Iroha (ID: 16924801/0x01024081) [7859*]:
     "Is this truly what you desire?"
323: 0x09E6 [0x23] WAIT_FOR_DIALOG_INTERACTION
324: 0x09E7 [0x5F] MULTI_HANDLER_COMPLEX(mode=0x07 - Wait scheduler task (OpCode 0x53))
325: 0x09F5 [0x52] END_LOAD_SCHEDULER: End scheduler "s015" with entities [EventEntity, EventEntity], work=733*
326: 0x0A04 [0x45] LOAD_SCHEDULED_TASK: Load scheduler "s016" with entities [EventEntity, EventEntity], work=[733*, 0*]
327: 0x0A15 [0x79] LocalPlayer looks at Selh'teus (ID: 16924802/0x01024082) (Basic look)
328: 0x0A1F [0x5B] LOAD_EXT_SCHEDULER: Load scheduler "utu0" with entities [Selh'teus (ID: 16924802/0x01024082), Selh'teus (ID: 16924802/0x01024082)], work=731*
329: 0x0A2E [0x2B] Selh'teus (ID: 16924802/0x01024082) [7860*]:
     "It is. But my story does not end here."
330: 0x0A35 [0x1C] WAIT(90* ticks)
331: 0x0A38 [0x23] WAIT_FOR_DIALOG_INTERACTION
332: 0x0A39 [0x2B] Selh'teus (ID: 16924802/0x01024082) [7861*]:
     "Though I will become part of the crystal, my mind and spirit shall remain whole."
333: 0x0A40 [0x1C] WAIT(90* ticks)
334: 0x0A43 [0x23] WAIT_FOR_DIALOG_INTERACTION
335: 0x0A44 [0x5B] LOAD_EXT_SCHEDULER: Load scheduler "utu1" with entities [Selh'teus (ID: 16924802/0x01024082), Selh'teus (ID: 16924802/0x01024082)], work=731*
336: 0x0A53 [0x52] END_LOAD_SCHEDULER: End scheduler "s016" with entities [EventEntity, EventEntity], work=733*
337: 0x0A62 [0x45] LOAD_SCHEDULED_TASK: Load scheduler "s017" with entities [EventEntity, EventEntity], work=[733*, 0*]
338: 0x0A73 [0x1C] WAIT(45* ticks)
339: 0x0A76 [0x2B] Selh'teus (ID: 16924802/0x01024082) [7862*]:
     "Could you not feel my presence when you offered up prayers at Reisenjima Sanctorium?"
340: 0x0A7D [0x1C] WAIT(90* ticks)
341: 0x0A80 [0x23] WAIT_FOR_DIALOG_INTERACTION
342: 0x0A81 [0x52] END_LOAD_SCHEDULER: End scheduler "s017" with entities [EventEntity, EventEntity], work=733*
343: 0x0A90 [0x45] LOAD_SCHEDULED_TASK: Load scheduler "s018" with entities [EventEntity, EventEntity], work=[733*, 0*]
344: 0x0AA1 [0x81] SET_ENTITY_BLINKING(blink_flag=0x00, entity=Iroha (ID: 16924801/0x01024081))
345: 0x0AA7 [0x7C] Iroha (ID: 16924801/0x01024081)->Render.Flags2 |= 0x00
346: 0x0AAD [0x5B] LOAD_EXT_SCHEDULER: Load scheduler "fe00" with entities [Iroha (ID: 16924801/0x01024081), Iroha (ID: 16924801/0x01024081)], work=3858*
347: 0x0ABC [0x1C] WAIT(120* ticks)
348: 0x0ABF [0x52] END_LOAD_SCHEDULER: End scheduler "s018" with entities [EventEntity, EventEntity], work=733*
349: 0x0ACE [0x45] LOAD_SCHEDULED_TASK: Load scheduler "s019" with entities [EventEntity, EventEntity], work=[733*, 0*]
350: 0x0ADF [0x5B] LOAD_EXT_SCHEDULER: Load scheduler "fe01" with entities [Iroha (ID: 16924801/0x01024081), Iroha (ID: 16924801/0x01024081)], work=3858*
351: 0x0AEE [0x2B] Iroha (ID: 16924801/0x01024081) [7863*]:
     "...Yes. Yes I did."
352: 0x0AF5 [0x1C] WAIT(90* ticks)
353: 0x0AF8 [0x23] WAIT_FOR_DIALOG_INTERACTION
354: 0x0AF9 [0x2B] Iroha (ID: 16924801/0x01024081) [7864*]:
     "And when you and Master spoke about the crystal...they were speaking to you."
355: 0x0B00 [0x1C] WAIT(90* ticks)
356: 0x0B03 [0x23] WAIT_FOR_DIALOG_INTERACTION
357: 0x0B04 [0x52] END_LOAD_SCHEDULER: End scheduler "s019" with entities [EventEntity, EventEntity], work=733*
358: 0x0B13 [0x45] LOAD_SCHEDULED_TASK: Load scheduler "sa12" with entities [EventEntity, EventEntity], work=[733*, 0*]
359: 0x0B24 [0x81] SET_ENTITY_BLINKING(blink_flag=0x00, entity=Selh'teus (ID: 16924802/0x01024082))
360: 0x0B2A [0x5B] LOAD_EXT_SCHEDULER: Load scheduler "fa00" with entities [Selh'teus (ID: 16924802/0x01024082), Selh'teus (ID: 16924802/0x01024082)], work=733*
361: 0x0B39 [0x1C] WAIT(30* ticks)
362: 0x0B3C [0x27] REQ_SET(priority=0x10, entity_id=Altana (ID: 16924794/0x0102407A), tag_num=0x1F)
363: 0x0B43 [0x1C] WAIT(150* ticks)
364: 0x0B46 [0x52] END_LOAD_SCHEDULER: End scheduler "sa12" with entities [EventEntity, EventEntity], work=733*
365: 0x0B55 [0x45] LOAD_SCHEDULED_TASK: Load scheduler "s020" with entities [EventEntity, EventEntity], work=[733*, 0*]
366: 0x0B66 [0x5B] LOAD_EXT_SCHEDULER: Load scheduler "fa01" with entities [Selh'teus (ID: 16924802/0x01024082), Selh'teus (ID: 16924802/0x01024082)], work=733*
367: 0x0B75 [0x5B] LOAD_EXT_SCHEDULER: Load scheduler "ed01" with entities [Selh'teus (ID: 16924802/0x01024082), Selh'teus (ID: 16924802/0x01024082)], work=785*
368: 0x0B84 [0x45] LOAD_SCHEDULED_TASK: Load scheduler "6071" with entities [LocalPlayer, LocalPlayer], work=[124*, 0*]
369: 0x0B95 [0x81] SET_ENTITY_BLINKING(blink_flag=0x01, entity=Selh'teus (ID: 16924802/0x01024082))
370: 0x0B9B [0x1C] WAIT(45* ticks)
371: 0x0B9E [0x5B] LOAD_EXT_SCHEDULER: Load scheduler "f000" with entities [Iroha (ID: 16924801/0x01024081), Iroha (ID: 16924801/0x01024081)], work=3858*
372: 0x0BAD [0x2B] Selh'teus (ID: 16924802/0x01024082) [7865*]:
     "It is time."
373: 0x0BB4 [0x1C] WAIT(150* ticks)
374: 0x0BB7 [0x23] WAIT_FOR_DIALOG_INTERACTION
375: 0x0BB8 [0x7B] Iroha (ID: 16924801/0x01024081) stops talking
376: 0x0BBD [0x5B] LOAD_EXT_SCHEDULER: Load scheduler "kao0" with entities [Iroha (ID: 16924801/0x01024081), Iroha (ID: 16924801/0x01024081)], work=3867*
377: 0x0BCC [0x52] END_LOAD_SCHEDULER: End scheduler "s020" with entities [EventEntity, EventEntity], work=733*
378: 0x0BDB [0x45] LOAD_SCHEDULED_TASK: Load scheduler "s021" with entities [EventEntity, EventEntity], work=[733*, 0*]
379: 0x0BEC [0x2B] Selh'teus (ID: 16924802/0x01024082) [7866*]:
     "May light ever shine on the Far East...on the future..."
380: 0x0BF3 [0x1C] WAIT(120* ticks)
381: 0x0BF6 [0x23] WAIT_FOR_DIALOG_INTERACTION
382: 0x0BF7 [0x27] REQ_SET(priority=0x05, entity_id=Selh'teus (ID: 16924802/0x01024082), tag_num=0x04)
383: 0x0BFE [0x52] END_LOAD_SCHEDULER: End scheduler "s021" with entities [EventEntity, EventEntity], work=733*
384: 0x0C0D [0x45] LOAD_SCHEDULED_TASK: Load scheduler "s022" with entities [EventEntity, EventEntity], work=[733*, 0*]
385: 0x0C1E [0x5B] LOAD_EXT_SCHEDULER: Load scheduler "ed02" with entities [Selh'teus (ID: 16924802/0x01024082), Selh'teus (ID: 16924802/0x01024082)], work=785*
386: 0x0C2D [0x45] LOAD_SCHEDULED_TASK: Load scheduler "3042" with entities [LocalPlayer, LocalPlayer], work=[124*, 0*]
387: 0x0C3E [0x1C] WAIT(300* ticks)
388: 0x0C41 [0x27] REQ_SET(priority=0x10, entity_id=Altana (ID: 16924794/0x0102407A), tag_num=0x20)
389: 0x0C48 [0x52] END_LOAD_SCHEDULER: End scheduler "s022" with entities [EventEntity, EventEntity], work=733*
390: 0x0C57 [0x45] LOAD_SCHEDULED_TASK: Load scheduler "s146" with entities [EventEntity, EventEntity], work=[733*, 0*]
391: 0x0C68 [0x1C] WAIT(120* ticks)
392: 0x0C6B [0xBA] SET_ENTITY_POSITION(entity_id=Selh'teus (ID: 16924802/0x01024082), pos_x=-512.703*, pos_z=522.099*, pos_y=-189.217*, direction=180.0*)
393: 0x0C78 [0x5B] LOAD_EXT_SCHEDULER: Load scheduler "ed3l" with entities [Selh'teus (ID: 16924802/0x01024082), Selh'teus (ID: 16924802/0x01024082)], work=785*
394: 0x0C87 [0x1C] WAIT(60* ticks)
395: 0x0C8A [0x52] END_LOAD_SCHEDULER: End scheduler "s146" with entities [EventEntity, EventEntity], work=733*
396: 0x0C99 [0x45] LOAD_SCHEDULED_TASK: Load scheduler "s075" with entities [EventEntity, EventEntity], work=[733*, 0*]
397: 0x0CAA [0x45] LOAD_SCHEDULED_TASK: Load scheduler "sb27" with entities [LocalPlayer, LocalPlayer], work=[124*, 0*]
398: 0x0CBB [0xC5] LOAD_SCHEDULED_TASK_ALT3: Load scheduler 0x80163030 for entities [Selh'teus (ID: 16924802/0x01024082), Selh'teus (ID: 16924802/0x01024082)], work=93*, param=12403
399: 0x0CCC [0x1C] WAIT(70* ticks)
400: 0x0CCF [0xD0] LOAD_SCHEDULED_TASK_ALT5: Load scheduler "s000" with entities [Selh'teus (ID: 16924802/0x01024082), Selh'teus (ID: 16924802/0x01024082)], work=[165*, 0*]
401: 0x0CE0 [0x7B] Iroha (ID: 16924801/0x01024081) stops talking
402: 0x0CE5 [0x1C] WAIT(300* ticks)
403: 0x0CE8 [0x45] LOAD_SCHEDULED_TASK: Load scheduler "kb27" with entities [LocalPlayer, LocalPlayer], work=[124*, 0*]
404: 0x0CF9 [0x1A] CALL_SUBROUTINE(address=0x3C9A)
405: 0x0CFC [0x1C] WAIT(30* ticks)
406: 0x0CFF [0x52] END_LOAD_SCHEDULER: End scheduler "s075" with entities [EventEntity, EventEntity], work=733*
407: 0x0D0E [0x45] LOAD_SCHEDULED_TASK: Load scheduler "s074" with entities [EventEntity, EventEntity], work=[733*, 0*]
408: 0x0D1F [0x1A] CALL_SUBROUTINE(address=0x3C79)
409: 0x0D22 [0xD0] LOAD_SCHEDULED_TASK_ALT5: Load scheduler "cr00" with entities [EventEntity, EventEntity], work=[136*, 0*]
410: 0x0D33 [0x45] LOAD_SCHEDULED_TASK: Load scheduler "2185" with entities [EventEntity, EventEntity], work=[733*, 0*]
411: 0x0D44 [0x1C] WAIT(430* ticks)
412: 0x0D47 [0x52] END_LOAD_SCHEDULER: End scheduler "s074" with entities [EventEntity, EventEntity], work=733*
413: 0x0D56 [0x45] LOAD_SCHEDULED_TASK: Load scheduler "sa11" with entities [EventEntity, EventEntity], work=[733*, 0*]
414: 0x0D67 [0x1C] WAIT(180* ticks)
415: 0x0D6A [0x52] END_LOAD_SCHEDULER: End scheduler "sa11" with entities [EventEntity, EventEntity], work=733*
416: 0x0D79 [0x45] LOAD_SCHEDULED_TASK: Load scheduler "s023" with entities [EventEntity, EventEntity], work=[733*, 0*]
417: 0x0D8A [0x9F] LOAD_SCHEDULED_TASK_ALT: Load scheduler "kill" with entities [EventEntity, EventEntity], work=[162*, 0*]
418: 0x0D9B [0x1C] WAIT(30* ticks)
419: 0x0D9E [0x5B] LOAD_EXT_SCHEDULER: Load scheduler "fe00" with entities [Iroha (ID: 16924801/0x01024081), Iroha (ID: 16924801/0x01024081)], work=3858*
420: 0x0DAD [0x1C] WAIT(90* ticks)
421: 0x0DB0 [0x5B] LOAD_EXT_SCHEDULER: Load scheduler "fe01" with entities [Iroha (ID: 16924801/0x01024081), Iroha (ID: 16924801/0x01024081)], work=3858*
422: 0x0DBF [0x2B] Iroha (ID: 16924801/0x01024081) [7867*]:
     "I had often cursed my luck at arriving in 884 rather than the time I had hoped."
423: 0x0DC6 [0x1C] WAIT(15* ticks)
424: 0x0DC9 [0x79] LocalPlayer looks at Iroha (ID: 16924801/0x01024081) (Basic look)
425: 0x0DD3 [0x1C] WAIT(45* ticks)
426: 0x0DD6 [0x23] WAIT_FOR_DIALOG_INTERACTION
427: 0x0DD7 [0x2B] Iroha (ID: 16924801/0x01024081) [7868*]:
     "But bearing witness to this event fills me with reverence and awe."
428: 0x0DDE [0x1C] WAIT(90* ticks)
429: 0x0DE1 [0x23] WAIT_FOR_DIALOG_INTERACTION
430: 0x0DE2 [0x5F] MULTI_HANDLER_COMPLEX(mode=0x05 - Load ext scheduler with flag (OpCode 0x5B mode 0, flag 1), ref=3867*, entity1=Iroha (ID: 16924801/0x01024081), entity2=Iroha (ID: 16924801/0x01024081), string="kao2", extra=110*)
431: 0x0DF4 [0x52] END_LOAD_SCHEDULER: End scheduler "s023" with entities [EventEntity, EventEntity], work=733*
432: 0x0E03 [0x45] LOAD_SCHEDULED_TASK: Load scheduler "s024" with entities [EventEntity, EventEntity], work=[733*, 0*]
433: 0x0E14 [0x2B] Iroha (ID: 16924801/0x01024081) [7869*]:
     "Should it be as the books foretold, the Emptiness surrounding the Far East will begin to dissipate...starting with Reisenjima."
434: 0x0E1B [0x23] WAIT_FOR_DIALOG_INTERACTION
435: 0x0E1C [0x2B] Iroha (ID: 16924801/0x01024081) [7870*]:
     "Master, when my father entreated you to come to the Far East..."
436: 0x0E23 [0x1C] WAIT(90* ticks)
437: 0x0E26 [0x23] WAIT_FOR_DIALOG_INTERACTION
438: 0x0E27 [0xD3] CLEAR_ENTITY_MOTION_QUEUE(condition_flag=0x00, entity_server_id=0x01024081)
439: 0x0E2D [0x81] SET_ENTITY_BLINKING(blink_flag=0x01, entity=Iroha (ID: 16924801/0x01024081))
440: 0x0E33 [0x7C] Iroha (ID: 16924801/0x01024081)->Render.Flags2 |= 0x01
441: 0x0E39 [0x5F] MULTI_HANDLER_COMPLEX(mode=0x07 - Wait scheduler task (OpCode 0x53))
442: 0x0E47 [0x5F] MULTI_HANDLER_COMPLEX(mode=0x05 - Load ext scheduler with flag (OpCode 0x5B mode 0, flag 1), ref=3867*, entity1=Iroha (ID: 16924801/0x01024081), entity2=Iroha (ID: 16924801/0x01024081), string="kao3", extra=120*)
443: 0x0E59 [0x52] END_LOAD_SCHEDULER: End scheduler "s024" with entities [EventEntity, EventEntity], work=733*
444: 0x0E68 [0x45] LOAD_SCHEDULED_TASK: Load scheduler "s077" with entities [EventEntity, EventEntity], work=[733*, 0*]
445: 0x0E79 [0x2B] Iroha (ID: 16924801/0x01024081) [7871*]:
     "You vanquished all manner of malicious spirits and demons, won the hearts of the people, and worked to reconstruct my land."
446: 0x0E80 [0x1C] WAIT(90* ticks)
447: 0x0E83 [0x23] WAIT_FOR_DIALOG_INTERACTION
448: 0x0E84 [0x52] END_LOAD_SCHEDULER: End scheduler "s077" with entities [EventEntity, EventEntity], work=733*
449: 0x0E93 [0x45] LOAD_SCHEDULED_TASK: Load scheduler "s025" with entities [EventEntity, EventEntity], work=[733*, 0*]
450: 0x0EA4 [0x2B] Iroha (ID: 16924801/0x01024081) [7872*]:
     "And when I came into the world, you stayed with me on Reisenjima."
451: 0x0EAB [0x1C] WAIT(90* ticks)
452: 0x0EAE [0x23] WAIT_FOR_DIALOG_INTERACTION
453: 0x0EAF [0x5F] MULTI_HANDLER_COMPLEX(mode=0x07 - Wait scheduler task (OpCode 0x53))
454: 0x0EBD [0x5B] LOAD_EXT_SCHEDULER: Load scheduler "kao1" with entities [Iroha (ID: 16924801/0x01024081), Iroha (ID: 16924801/0x01024081)], work=3867*
455: 0x0ECC [0x2B] Iroha (ID: 16924801/0x01024081) [7873*]:
     "Though I was never the best pupil, you led me on the path of the warrior and tempered my often-willful spirit."
456: 0x0ED3 [0x23] WAIT_FOR_DIALOG_INTERACTION
