# 16924795

## Common Data

| Field            | Value                     |
|------------------|---------------------------|
| Zone             | Empyreal Paradox (ID: 36) |
| Block Size       | 1528 bytes                |
| Total Events     | 20                        |
| References Count | 43                        |

## List of Events

| Event ID                   | Entrypoint   |   Size |   Instructions |
|----------------------------|--------------|--------|----------------|
| [65535](#event-65535)      | 0x0000       |      1 |              1 |
| [65534](#event-65534)      | 0x0001       |      1 |              1 |
| [65535.1](#event-655351)   | 0x0002       |     76 |             10 |
| [65535.2](#event-655352)   | 0x004E       |     37 |              5 |
| [65535.3](#event-655353)   | 0x0073       |    204 |             19 |
| [65535.4](#event-655354)   | 0x013F       |      8 |              2 |
| [65535.5](#event-655355)   | 0x0147       |     43 |              6 |
| [65535.6](#event-655356)   | 0x0172       |    251 |             29 |
| [65535.7](#event-655357)   | 0x026D       |     99 |             13 |
| [65535.8](#event-655358)   | 0x02D0       |     88 |             10 |
| [65535.9](#event-655359)   | 0x0328       |     52 |              6 |
| [65535.10](#event-6553510) | 0x035C       |     46 |              8 |
| [65535.11](#event-6553511) | 0x038A       |     50 |              8 |
| [65535.12](#event-6553512) | 0x03BC       |     56 |              6 |
| [65535.13](#event-6553513) | 0x03F4       |     52 |              8 |
| [65535.14](#event-6553514) | 0x0428       |     94 |             12 |
| [65535.15](#event-6553515) | 0x0486       |     13 |              3 |
| [65535.16](#event-6553516) | 0x0493       |     13 |              3 |
| [65535.17](#event-6553517) | 0x04A0       |     66 |              8 |
| [65535.18](#event-6553518) | 0x04E2       |     10 |              2 |

## DAT References (imed_data)

|   Index | Hex Value   |   Dec Value |
|---------|-------------|-------------|
|       0 | 0x002D      |          45 |
|       1 | 0x0024      |          36 |
|       2 | 0x0006      |           6 |
|       3 | 0x0023      |          35 |
|       4 | 0x000F      |          15 |
|       5 | 0x0150      |         336 |
|       6 | 0x003C      |          60 |
|       7 | 0x001D      |          29 |
|       8 | 0x0000      |           0 |
|       9 | 0x007C      |         124 |
|      10 | 0x0080      |         128 |
|      11 | 0x0001      |           1 |
|      12 | 0x0050      |          80 |
|      13 | 0x0308      |         776 |
|      14 | 0x009B      |         155 |
|      15 | 0x004B      |          75 |
|      16 | 0x0025      |          37 |
|      17 | 0x00B4      |         180 |
|      18 | 0x0002      |           2 |
|      19 | 0x0003      |           3 |
|      20 | 0x0004      |           4 |
|      21 | 0x0005      |           5 |
|      22 | 0x0007      |           7 |
|      23 | 0x0008      |           8 |
|      24 | 0x004C      |          76 |
|      25 | 0x001E      |          30 |
|      26 | 0x0291      |         657 |
|      27 | 0x01A6      |         422 |
|      28 | 0x027F      |         639 |
|      29 | 0x0300      |         768 |
|      30 | 0x01EC      |         492 |
|      31 | 0x027C      |         636 |
|      32 | 0x0009      |           9 |
|      33 | 0x005A      |          90 |
|      34 | 0x00A5      |         165 |
|      35 | 0x0307      |         775 |
|      36 | 0x000B      |          11 |
|      37 | 0x02B5      |         693 |
|      38 | 0x01A4      |         420 |
|      39 | 0x01AB      |         427 |
|      40 | 0x001A      |          26 |
|      41 | 0x0295      |         661 |
|      42 | 0x02E5      |         741 |

## Events

### Event 65535

#### Metadata

| Field        | Value   |
|--------------|---------|
| Entrypoint   | 0x0000  |
| Data Size    | 1 bytes |
| Instructions | 1       |

```
      00 01 02 03 04 05 06 07  08 09 0A 0B 0C 0D 0E 0F
      -- -- -- -- -- -- -- --  -- -- -- -- -- -- -- --
0000: 00                                                .               
```

#### Opcodes

```
  0: 0x0000 [0x00] END_REQSTACK()
```

### Event 65534

#### Metadata

| Field        | Value   |
|--------------|---------|
| Entrypoint   | 0x0001  |
| Data Size    | 1 bytes |
| Instructions | 1       |

```
      00 01 02 03 04 05 06 07  08 09 0A 0B 0C 0D 0E 0F
      -- -- -- -- -- -- -- --  -- -- -- -- -- -- -- --
0000:    00                                              .              
```

#### Opcodes

```
  0: 0x0001 [0x00] END_REQSTACK()
```

### Event 65535.1

#### Metadata

| Field        | Value    |
|--------------|----------|
| Entrypoint   | 0x0002   |
| Data Size    | 76 bytes |
| Instructions | 10       |

```
      00 01 02 03 04 05 06 07  08 09 0A 0B 0C 0D 0E 0F
      -- -- -- -- -- -- -- --  -- -- -- -- -- -- -- --
0000:       4A 60 40 02 01 5A  40 02 01 4A 61 40 02 01    J`@..Z@..Ja@..
0010: 5A 40 02 01 4A 62 40 02  01 5A 40 02 01 1C 00 80  Z@..Jb@..Z@.....
0020: AD 00 01 80 61 40 02 01  61 40 02 01 1C 02 80 AD  ....a@..a@......
0030: 00 03 80 62 40 02 01 62  40 02 01 1C 04 80 5B 05  ...b@..b@.....[.
0040: 80 60 40 02 01 60 40 02  01 77 61 69 30 00        .`@..`@..wai0.  
```

#### Opcodes

```
  0: 0x0002 [0x4A] Makki-Chebukki (ID: 16924768/0x01024060) looks at Selh'teus (ID: 16924762/0x0102405A)
  1: 0x000B [0x4A] Kukki-Chebukki (ID: 16924769/0x01024061) looks at Selh'teus (ID: 16924762/0x0102405A)
  2: 0x0014 [0x4A] Cherukiki (ID: 16924770/0x01024062) looks at Selh'teus (ID: 16924762/0x0102405A)
  3: 0x001D [0x1C] WAIT(45* ticks)
  4: 0x0020 [0xAD] DUAL_ENTITY_SCHEDULER_HANDLER: Execute sub-case 0 with entities [Kukki-Chebukki (ID: 16924769/0x01024061), Kukki-Chebukki (ID: 16924769/0x01024061)], work=36*
  5: 0x002C [0x1C] WAIT(6* ticks)
  6: 0x002F [0xAD] DUAL_ENTITY_SCHEDULER_HANDLER: Execute sub-case 0 with entities [Cherukiki (ID: 16924770/0x01024062), Cherukiki (ID: 16924770/0x01024062)], work=35*
  7: 0x003B [0x1C] WAIT(15* ticks)
  8: 0x003E [0x5B] LOAD_EXT_SCHEDULER: Load scheduler "wai0" with entities [Makki-Chebukki (ID: 16924768/0x01024060), Makki-Chebukki (ID: 16924768/0x01024060)], work=336*
  9: 0x004D [0x00] END_REQSTACK()
```

### Event 65535.2

#### Metadata

| Field        | Value    |
|--------------|----------|
| Entrypoint   | 0x004E   |
| Data Size    | 37 bytes |
| Instructions | 5        |

```
      00 01 02 03 04 05 06 07  08 09 0A 0B 0C 0D 0E 0F
      -- -- -- -- -- -- -- --  -- -- -- -- -- -- -- --
0040:                                            1C 04                ..
0050: 80 5B 05 80 60 40 02 01  60 40 02 01 7A 69 74 30  .[..`@..`@..zit0
0060: 1C 04 80 5B 05 80 61 40  02 01 61 40 02 01 7A 69  ...[..a@..a@..zi
0070: 74 30 00                                          t0.             
```

#### Opcodes

```
  0: 0x004E [0x1C] WAIT(15* ticks)
  1: 0x0051 [0x5B] LOAD_EXT_SCHEDULER: Load scheduler "zit0" with entities [Makki-Chebukki (ID: 16924768/0x01024060), Makki-Chebukki (ID: 16924768/0x01024060)], work=336*
  2: 0x0060 [0x1C] WAIT(15* ticks)
  3: 0x0063 [0x5B] LOAD_EXT_SCHEDULER: Load scheduler "zit0" with entities [Kukki-Chebukki (ID: 16924769/0x01024061), Kukki-Chebukki (ID: 16924769/0x01024061)], work=336*
  4: 0x0072 [0x00] END_REQSTACK()
```

### Event 65535.3

#### Metadata

| Field        | Value     |
|--------------|-----------|
| Entrypoint   | 0x0073    |
| Data Size    | 204 bytes |
| Instructions | 19        |

```
      00 01 02 03 04 05 06 07  08 09 0A 0B 0C 0D 0E 0F
      -- -- -- -- -- -- -- --  -- -- -- -- -- -- -- --
0070:          1C 06 80 52 07  80 F0 FF FF 7F F0 FF FF     ...R.........
0080: 7F 6C 62 33 32 45 07 80  F0 FF FF 7F F0 FF FF 7F  .lb32E..........
0090: 6C 62 32 37 08 80 45 09  80 F0 FF FF 7F F0 FF FF  lb27..E.........
00A0: 7F 73 30 31 33 08 80 27  10 64 40 02 01 0B 6C 64  .s013..'.d@...ld
00B0: 40 02 01 0A 80 0B 80 1C  0C 80 81 00 65 40 02 01  @...........e@..
00C0: 5B 0D 80 65 40 02 01 65  40 02 01 62 39 30 30 9F  [..e@..e@..b900.
00D0: 0E 80 65 40 02 01 65 40  02 01 73 74 72 30 08 80  ..e@..e@..str0..
00E0: 1C 0F 80 27 10 7A 40 02  01 0B 6C 59 40 02 01 08  ...'.z@...lY@...
00F0: 80 0B 80 6C 65 40 02 01  0A 80 0B 80 52 07 80 F0  ...le@......R...
0100: FF FF 7F F0 FF FF 7F 6C  62 32 37 45 07 80 F0 FF  .......lb27E....
0110: FF 7F F0 FF FF 7F 6C 62  32 38 08 80 45 09 80 F0  ......lb28..E...
0120: FF FF 7F F0 FF FF 7F 6B  30 31 33 08 80 45 09 80  .......k013..E..
0130: F0 FF FF 7F F0 FF FF 7F  30 64 77 6E 08 80 00     ........0dwn... 
```

#### Opcodes

```
  0: 0x0073 [0x1C] WAIT(60* ticks)
  1: 0x0076 [0x52] END_LOAD_SCHEDULER: End scheduler "lb32" with entities [LocalPlayer, LocalPlayer], work=29*
  2: 0x0085 [0x45] LOAD_SCHEDULED_TASK: Load scheduler "lb27" with entities [LocalPlayer, LocalPlayer], work=[29*, 0*]
  3: 0x0096 [0x45] LOAD_SCHEDULED_TASK: Load scheduler "s013" with entities [LocalPlayer, LocalPlayer], work=[124*, 0*]
  4: 0x00A7 [0x27] REQ_SET(priority=0x10, entity_id=Promathia (ID: 16924772/0x01024064), tag_num=0x0B)
  5: 0x00AE [0x6C] FADE_ENTITY_COLOR(entity_id=Promathia (ID: 16924772/0x01024064), end_alpha=128*, fade_time=1*)
  6: 0x00B7 [0x1C] WAIT(80* ticks)
  7: 0x00BA [0x81] SET_ENTITY_BLINKING(blink_flag=0x00, entity=Prishe (ID: 16924773/0x01024065))
  8: 0x00C0 [0x5B] LOAD_EXT_SCHEDULER: Load scheduler "b900" with entities [Prishe (ID: 16924773/0x01024065), Prishe (ID: 16924773/0x01024065)], work=776*
  9: 0x00CF [0x9F] LOAD_SCHEDULED_TASK_ALT: Load scheduler "str0" with entities [Prishe (ID: 16924773/0x01024065), Prishe (ID: 16924773/0x01024065)], work=[155*, 0*]
 10: 0x00E0 [0x1C] WAIT(75* ticks)
 11: 0x00E3 [0x27] REQ_SET(priority=0x10, entity_id=Altana (ID: 16924794/0x0102407A), tag_num=0x0B)
 12: 0x00EA [0x6C] FADE_ENTITY_COLOR(entity_id=Prishe (ID: 16924761/0x01024059), end_alpha=0*, fade_time=1*)
 13: 0x00F3 [0x6C] FADE_ENTITY_COLOR(entity_id=Prishe (ID: 16924773/0x01024065), end_alpha=128*, fade_time=1*)
 14: 0x00FC [0x52] END_LOAD_SCHEDULER: End scheduler "lb27" with entities [LocalPlayer, LocalPlayer], work=29*
 15: 0x010B [0x45] LOAD_SCHEDULED_TASK: Load scheduler "lb28" with entities [LocalPlayer, LocalPlayer], work=[29*, 0*]
 16: 0x011C [0x45] LOAD_SCHEDULED_TASK: Load scheduler "k013" with entities [LocalPlayer, LocalPlayer], work=[124*, 0*]
 17: 0x012D [0x45] LOAD_SCHEDULED_TASK: Load scheduler "0dwn" with entities [LocalPlayer, LocalPlayer], work=[124*, 0*]
 18: 0x013E [0x00] END_REQSTACK()
```

### Event 65535.4

#### Metadata

| Field        | Value   |
|--------------|---------|
| Entrypoint   | 0x013F  |
| Data Size    | 8 bytes |
| Instructions | 2       |

```
      00 01 02 03 04 05 06 07  08 09 0A 0B 0C 0D 0E 0F
      -- -- -- -- -- -- -- --  -- -- -- -- -- -- -- --
0130:                                               27                 '
0140: 10 F0 FF FF 7F 1A 00                              .......         
```

#### Opcodes

```
  0: 0x013F [0x27] REQ_SET(priority=0x10, entity_id=LocalPlayer, tag_num=0x1A)
  1: 0x0146 [0x00] END_REQSTACK()
```

### Event 65535.5

#### Metadata

| Field        | Value    |
|--------------|----------|
| Entrypoint   | 0x0147   |
| Data Size    | 43 bytes |
| Instructions | 6        |

```
      00 01 02 03 04 05 06 07  08 09 0A 0B 0C 0D 0E 0F
      -- -- -- -- -- -- -- --  -- -- -- -- -- -- -- --
0140:                      AD  00 10 80 60 40 02 01 60         ....`@..`
0150: 40 02 01 1C 04 80 AD 00  01 80 61 40 02 01 61 40  @.........a@..a@
0160: 02 01 1C 02 80 AD 00 03  80 62 40 02 01 62 40 02  .........b@..b@.
0170: 01 00                                             ..              
```

#### Opcodes

```
  0: 0x0147 [0xAD] DUAL_ENTITY_SCHEDULER_HANDLER: Execute sub-case 0 with entities [Makki-Chebukki (ID: 16924768/0x01024060), Makki-Chebukki (ID: 16924768/0x01024060)], work=37*
  1: 0x0153 [0x1C] WAIT(15* ticks)
  2: 0x0156 [0xAD] DUAL_ENTITY_SCHEDULER_HANDLER: Execute sub-case 0 with entities [Kukki-Chebukki (ID: 16924769/0x01024061), Kukki-Chebukki (ID: 16924769/0x01024061)], work=36*
  3: 0x0162 [0x1C] WAIT(6* ticks)
  4: 0x0165 [0xAD] DUAL_ENTITY_SCHEDULER_HANDLER: Execute sub-case 0 with entities [Cherukiki (ID: 16924770/0x01024062), Cherukiki (ID: 16924770/0x01024062)], work=35*
  5: 0x0171 [0x00] END_REQSTACK()
```

### Event 65535.6

#### Metadata

| Field        | Value     |
|--------------|-----------|
| Entrypoint   | 0x0172    |
| Data Size    | 251 bytes |
| Instructions | 29        |

```
      00 01 02 03 04 05 06 07  08 09 0A 0B 0C 0D 0E 0F
      -- -- -- -- -- -- -- --  -- -- -- -- -- -- -- --
0170:       03 00 00 09 10 1C  11 80 02 00 00 0B 80 80    ..............
0180: 94 01 52 07 80 F0 FF FF  7F F0 FF FF 7F 6C 68 6D  ..R..........lhm
0190: 32 01 4A 02 02 00 00 12  80 80 AE 01 52 07 80 F0  2.J.........R...
01A0: FF FF 7F F0 FF FF 7F 6C  68 6D 32 01 4A 02 02 00  .......lhm2.J...
01B0: 00 13 80 80 C8 01 52 07  80 F0 FF FF 7F F0 FF FF  ......R.........
01C0: 7F 6C 65 6D 32 01 4A 02  02 00 00 14 80 80 E2 01  .lem2.J.........
01D0: 52 07 80 F0 FF FF 7F F0  FF FF 7F 6C 65 6D 32 01  R..........lem2.
01E0: 4A 02 02 00 00 15 80 80  FC 01 52 07 80 F0 FF FF  J.........R.....
01F0: 7F F0 FF FF 7F 6C 74 72  32 01 4A 02 02 00 00 02  .....ltr2.J.....
0200: 80 80 16 02 52 07 80 F0  FF FF 7F F0 FF FF 7F 6C  ....R..........l
0210: 74 72 32 01 4A 02 02 00  00 16 80 80 30 02 52 07  tr2.J.......0.R.
0220: 80 F0 FF FF 7F F0 FF FF  7F 6C 6D 74 32 01 4A 02  .........lmt2.J.
0230: 02 00 00 17 80 80 4A 02  52 07 80 F0 FF FF 7F F0  ......J.R.......
0240: FF FF 7F 6C 67 6C 32 01  4A 02 45 07 80 F0 FF FF  ...lgl2.J.E.....
0250: 7F F0 FF FF 7F 6C 63 30  39 08 80 45 09 80 F0 FF  .....lc09..E....
0260: FF 7F F0 FF FF 7F 31 61  34 32 08 80 00           ......1a42...   
```

#### Opcodes

```
  0: 0x0172 [0x03] ExtData[1]->WorkLocal[0] = Work_Zone[9]
  1: 0x0177 [0x1C] WAIT(180* ticks)
  2: 0x017A [0x02] IF !(ExtData[1]->WorkLocal[0] == 1*) GOTO 0x0194
  3: 0x0182 [0x52] END_LOAD_SCHEDULER: End scheduler "lhm2" with entities [LocalPlayer, LocalPlayer], work=29*
  4: 0x0191 [0x01] GOTO 0x024A
  5: 0x0194 [0x02] IF !(ExtData[1]->WorkLocal[0] == 2*) GOTO 0x01AE
  6: 0x019C [0x52] END_LOAD_SCHEDULER: End scheduler "lhm2" with entities [LocalPlayer, LocalPlayer], work=29*
  7: 0x01AB [0x01] GOTO 0x024A
  8: 0x01AE [0x02] IF !(ExtData[1]->WorkLocal[0] == 3*) GOTO 0x01C8
  9: 0x01B6 [0x52] END_LOAD_SCHEDULER: End scheduler "lem2" with entities [LocalPlayer, LocalPlayer], work=29*
 10: 0x01C5 [0x01] GOTO 0x024A
 11: 0x01C8 [0x02] IF !(ExtData[1]->WorkLocal[0] == 4*) GOTO 0x01E2
 12: 0x01D0 [0x52] END_LOAD_SCHEDULER: End scheduler "lem2" with entities [LocalPlayer, LocalPlayer], work=29*
 13: 0x01DF [0x01] GOTO 0x024A
 14: 0x01E2 [0x02] IF !(ExtData[1]->WorkLocal[0] == 5*) GOTO 0x01FC
 15: 0x01EA [0x52] END_LOAD_SCHEDULER: End scheduler "ltr2" with entities [LocalPlayer, LocalPlayer], work=29*
 16: 0x01F9 [0x01] GOTO 0x024A
 17: 0x01FC [0x02] IF !(ExtData[1]->WorkLocal[0] == 6*) GOTO 0x0216
 18: 0x0204 [0x52] END_LOAD_SCHEDULER: End scheduler "ltr2" with entities [LocalPlayer, LocalPlayer], work=29*
 19: 0x0213 [0x01] GOTO 0x024A
 20: 0x0216 [0x02] IF !(ExtData[1]->WorkLocal[0] == 7*) GOTO 0x0230
 21: 0x021E [0x52] END_LOAD_SCHEDULER: End scheduler "lmt2" with entities [LocalPlayer, LocalPlayer], work=29*
 22: 0x022D [0x01] GOTO 0x024A
 23: 0x0230 [0x02] IF !(ExtData[1]->WorkLocal[0] == 8*) GOTO 0x024A
 24: 0x0238 [0x52] END_LOAD_SCHEDULER: End scheduler "lgl2" with entities [LocalPlayer, LocalPlayer], work=29*
 25: 0x0247 [0x01] GOTO 0x024A

SUBROUTINE_024A:
 26: 0x024A [0x45] LOAD_SCHEDULED_TASK: Load scheduler "lc09" with entities [LocalPlayer, LocalPlayer], work=[29*, 0*]
 27: 0x025B [0x45] LOAD_SCHEDULED_TASK: Load scheduler "1a42" with entities [LocalPlayer, LocalPlayer], work=[124*, 0*]
 28: 0x026C [0x00] END_REQSTACK()
```

### Event 65535.7

#### Metadata

| Field        | Value    |
|--------------|----------|
| Entrypoint   | 0x026D   |
| Data Size    | 99 bytes |
| Instructions | 13       |

```
      00 01 02 03 04 05 06 07  08 09 0A 0B 0C 0D 0E 0F
      -- -- -- -- -- -- -- --  -- -- -- -- -- -- -- --
0260:                                         27 10 7A               '.z
0270: 40 02 01 06 9F 18 80 5B  40 02 01 5B 40 02 01 6D  @......[@..[@..m
0280: 61 69 6E 08 80 1C 19 80  27 10 7A 40 02 01 07 9F  ain.....'.z@....
0290: 18 80 5C 40 02 01 5C 40  02 01 6D 61 69 6E 08 80  ..\@..\@..main..
02A0: 1C 00 80 27 10 7A 40 02  01 08 9F 18 80 5E 40 02  ...'.z@......^@.
02B0: 01 5E 40 02 01 6D 61 69  6E 08 80 1C 19 80 27 10  .^@..main.....'.
02C0: 7A 40 02 01 09 1C 06 80  27 10 7A 40 02 01 0A 00  z@......'.z@....
```

#### Opcodes

```
  0: 0x026D [0x27] REQ_SET(priority=0x10, entity_id=Altana (ID: 16924794/0x0102407A), tag_num=0x06)
  1: 0x0274 [0x9F] LOAD_SCHEDULED_TASK_ALT: Load scheduler "main" with entities [Ulmia (ID: 16924763/0x0102405B), Ulmia (ID: 16924763/0x0102405B)], work=[76*, 0*]
  2: 0x0285 [0x1C] WAIT(30* ticks)
  3: 0x0288 [0x27] REQ_SET(priority=0x10, entity_id=Altana (ID: 16924794/0x0102407A), tag_num=0x07)
  4: 0x028F [0x9F] LOAD_SCHEDULED_TASK_ALT: Load scheduler "main" with entities [Tenzen (ID: 16924764/0x0102405C), Tenzen (ID: 16924764/0x0102405C)], work=[76*, 0*]
  5: 0x02A0 [0x1C] WAIT(45* ticks)
  6: 0x02A3 [0x27] REQ_SET(priority=0x10, entity_id=Altana (ID: 16924794/0x0102407A), tag_num=0x08)
  7: 0x02AA [0x9F] LOAD_SCHEDULED_TASK_ALT: Load scheduler "main" with entities [Shikaree Z (ID: 16924766/0x0102405E), Shikaree Z (ID: 16924766/0x0102405E)], work=[76*, 0*]
  8: 0x02BB [0x1C] WAIT(30* ticks)
  9: 0x02BE [0x27] REQ_SET(priority=0x10, entity_id=Altana (ID: 16924794/0x0102407A), tag_num=0x09)
 10: 0x02C5 [0x1C] WAIT(60* ticks)
 11: 0x02C8 [0x27] REQ_SET(priority=0x10, entity_id=Altana (ID: 16924794/0x0102407A), tag_num=0x0A)
 12: 0x02CF [0x00] END_REQSTACK()
```

### Event 65535.8

#### Metadata

| Field        | Value    |
|--------------|----------|
| Entrypoint   | 0x02D0   |
| Data Size    | 88 bytes |
| Instructions | 10       |

```
      00 01 02 03 04 05 06 07  08 09 0A 0B 0C 0D 0E 0F
      -- -- -- -- -- -- -- --  -- -- -- -- -- -- -- --
02D0: 5B 1A 80 5F 40 02 01 5F  40 02 01 73 69 30 31 1C  [.._@.._@..si01.
02E0: 13 80 5B 1B 80 5B 40 02  01 5B 40 02 01 74 6C 77  ..[..[@..[@..tlw
02F0: 30 1C 13 80 5B 1C 80 5C  40 02 01 5C 40 02 01 6C  0...[..\@..\@..l
0300: 75 70 6C 1C 13 80 5B 1D  80 5E 40 02 01 5E 40 02  upl...[..^@..^@.
0310: 01 65 64 30 32 1C 13 80  5B 1E 80 5D 40 02 01 5D  .ed02...[..]@..]
0320: 40 02 01 67 62 61 30 00                           @..gba0.        
```

#### Opcodes

```
  0: 0x02D0 [0x5B] LOAD_EXT_SCHEDULER: Load scheduler "si01" with entities [Louverance (ID: 16924767/0x0102405F), Louverance (ID: 16924767/0x0102405F)], work=657*
  1: 0x02DF [0x1C] WAIT(3* ticks)
  2: 0x02E2 [0x5B] LOAD_EXT_SCHEDULER: Load scheduler "tlw0" with entities [Ulmia (ID: 16924763/0x0102405B), Ulmia (ID: 16924763/0x0102405B)], work=422*
  3: 0x02F1 [0x1C] WAIT(3* ticks)
  4: 0x02F4 [0x5B] LOAD_EXT_SCHEDULER: Load scheduler "lupl" with entities [Tenzen (ID: 16924764/0x0102405C), Tenzen (ID: 16924764/0x0102405C)], work=639*
  5: 0x0303 [0x1C] WAIT(3* ticks)
  6: 0x0306 [0x5B] LOAD_EXT_SCHEDULER: Load scheduler "ed02" with entities [Shikaree Z (ID: 16924766/0x0102405E), Shikaree Z (ID: 16924766/0x0102405E)], work=768*
  7: 0x0315 [0x1C] WAIT(3* ticks)
  8: 0x0318 [0x5B] LOAD_EXT_SCHEDULER: Load scheduler "gba0" with entities [Jabbos (ID: 16924765/0x0102405D), Jabbos (ID: 16924765/0x0102405D)], work=492*
  9: 0x0327 [0x00] END_REQSTACK()
```

### Event 65535.9

#### Metadata

| Field        | Value    |
|--------------|----------|
| Entrypoint   | 0x0328   |
| Data Size    | 52 bytes |
| Instructions | 6        |

```
      00 01 02 03 04 05 06 07  08 09 0A 0B 0C 0D 0E 0F
      -- -- -- -- -- -- -- --  -- -- -- -- -- -- -- --
0320:                          5B 1F 80 5B 40 02 01 5B          [..[@..[
0330: 40 02 01 63 72 79 30 6B  69 64 6C 30 5F 40 02 01  @..cry0kidl0_@..
0340: 6B 69 64 6C 30 5C 40 02  01 6B 69 64 6C 30 5E 40  kidl0\@..kidl0^@
0350: 02 01 6B 69 64 6C 30 5D  40 02 01 00              ..kidl0]@...    
```

#### Opcodes

```
  0: 0x0328 [0x5B] LOAD_EXT_SCHEDULER: Load scheduler "cry0" with entities [Ulmia (ID: 16924763/0x0102405B), Ulmia (ID: 16924763/0x0102405B)], work=636*
  1: 0x0337 [0x6B] STOP_AND_IDLE: Louverance (ID: 16924767/0x0102405F) stops current action and resets to idle (animation="idl0")
  2: 0x0340 [0x6B] STOP_AND_IDLE: Tenzen (ID: 16924764/0x0102405C) stops current action and resets to idle (animation="idl0")
  3: 0x0349 [0x6B] STOP_AND_IDLE: Shikaree Z (ID: 16924766/0x0102405E) stops current action and resets to idle (animation="idl0")
  4: 0x0352 [0x6B] STOP_AND_IDLE: Jabbos (ID: 16924765/0x0102405D) stops current action and resets to idle (animation="idl0")
  5: 0x035B [0x00] END_REQSTACK()
```

### Event 65535.10

#### Metadata

| Field        | Value    |
|--------------|----------|
| Entrypoint   | 0x035C   |
| Data Size    | 46 bytes |
| Instructions | 8        |

```
      00 01 02 03 04 05 06 07  08 09 0A 0B 0C 0D 0E 0F
      -- -- -- -- -- -- -- --  -- -- -- -- -- -- -- --
0350:                                      4A 5C 40 02              J\@.
0360: 01 5A 40 02 01 1C 13 80  4A 5E 40 02 01 5A 40 02  .Z@.....J^@..Z@.
0370: 01 1C 02 80 4A 5D 40 02  01 5A 40 02 01 1C 20 80  ....J]@..Z@... .
0380: 4A 5F 40 02 01 5A 40 02  01 00                    J_@..Z@...      
```

#### Opcodes

```
  0: 0x035C [0x4A] Tenzen (ID: 16924764/0x0102405C) looks at Selh'teus (ID: 16924762/0x0102405A)
  1: 0x0365 [0x1C] WAIT(3* ticks)
  2: 0x0368 [0x4A] Shikaree Z (ID: 16924766/0x0102405E) looks at Selh'teus (ID: 16924762/0x0102405A)
  3: 0x0371 [0x1C] WAIT(6* ticks)
  4: 0x0374 [0x4A] Jabbos (ID: 16924765/0x0102405D) looks at Selh'teus (ID: 16924762/0x0102405A)
  5: 0x037D [0x1C] WAIT(9* ticks)
  6: 0x0380 [0x4A] Louverance (ID: 16924767/0x0102405F) looks at Selh'teus (ID: 16924762/0x0102405A)
  7: 0x0389 [0x00] END_REQSTACK()
```

### Event 65535.11

#### Metadata

| Field        | Value    |
|--------------|----------|
| Entrypoint   | 0x038A   |
| Data Size    | 50 bytes |
| Instructions | 8        |

```
      00 01 02 03 04 05 06 07  08 09 0A 0B 0C 0D 0E 0F
      -- -- -- -- -- -- -- --  -- -- -- -- -- -- -- --
0380:                                79 00 5C 40 02 01            y.\@..
0390: 65 40 02 01 1C 13 80 79  00 5E 40 02 01 65 40 02  e@.....y.^@..e@.
03A0: 01 1C 04 80 79 00 5D 40  02 01 65 40 02 01 1C 02  ....y.]@..e@....
03B0: 80 79 00 5F 40 02 01 65  40 02 01 00              .y._@..e@...    
```

#### Opcodes

```
  0: 0x038A [0x79] Tenzen (ID: 16924764/0x0102405C) looks at Prishe (ID: 16924773/0x01024065) (Basic look)
  1: 0x0394 [0x1C] WAIT(3* ticks)
  2: 0x0397 [0x79] Shikaree Z (ID: 16924766/0x0102405E) looks at Prishe (ID: 16924773/0x01024065) (Basic look)
  3: 0x03A1 [0x1C] WAIT(15* ticks)
  4: 0x03A4 [0x79] Jabbos (ID: 16924765/0x0102405D) looks at Prishe (ID: 16924773/0x01024065) (Basic look)
  5: 0x03AE [0x1C] WAIT(6* ticks)
  6: 0x03B1 [0x79] Louverance (ID: 16924767/0x0102405F) looks at Prishe (ID: 16924773/0x01024065) (Basic look)
  7: 0x03BB [0x00] END_REQSTACK()
```

### Event 65535.12

#### Metadata

| Field        | Value    |
|--------------|----------|
| Entrypoint   | 0x03BC   |
| Data Size    | 56 bytes |
| Instructions | 6        |

```
      00 01 02 03 04 05 06 07  08 09 0A 0B 0C 0D 0E 0F
      -- -- -- -- -- -- -- --  -- -- -- -- -- -- -- --
03B0:                                      1C 21 80 9F              .!..
03C0: 22 80 64 40 02 01 64 40  02 01 6B 69 6C 6C 08 80  ".d@..d@..kill..
03D0: 5B 23 80 64 40 02 01 64  40 02 01 65 64 30 38 1C  [#.d@..d@..ed08.
03E0: 19 80 45 09 80 F0 FF FF  7F F0 FF FF 7F 6B 31 32  ..E..........k12
03F0: 38 08 80 00                                       8...            
```

#### Opcodes

```
  0: 0x03BC [0x1C] WAIT(90* ticks)
  1: 0x03BF [0x9F] LOAD_SCHEDULED_TASK_ALT: Load scheduler "kill" with entities [Promathia (ID: 16924772/0x01024064), Promathia (ID: 16924772/0x01024064)], work=[165*, 0*]
  2: 0x03D0 [0x5B] LOAD_EXT_SCHEDULER: Load scheduler "ed08" with entities [Promathia (ID: 16924772/0x01024064), Promathia (ID: 16924772/0x01024064)], work=775*
  3: 0x03DF [0x1C] WAIT(30* ticks)
  4: 0x03E2 [0x45] LOAD_SCHEDULED_TASK: Load scheduler "k128" with entities [LocalPlayer, LocalPlayer], work=[124*, 0*]
  5: 0x03F3 [0x00] END_REQSTACK()
```

### Event 65535.13

#### Metadata

| Field        | Value    |
|--------------|----------|
| Entrypoint   | 0x03F4   |
| Data Size    | 52 bytes |
| Instructions | 8        |

```
      00 01 02 03 04 05 06 07  08 09 0A 0B 0C 0D 0E 0F
      -- -- -- -- -- -- -- --  -- -- -- -- -- -- -- --
03F0:             4A 5F 40 02  01 68 40 02 01 1C 04 80      J_@..h@.....
0400: 4A F0 FF FF 7F 68 40 02  01 4A 5C 40 02 01 68 40  J....h@..J\@..h@
0410: 02 01 1C 19 80 4A 5E 40  02 01 68 40 02 01 4A 5D  .....J^@..h@..J]
0420: 40 02 01 68 40 02 01 00                           @..h@...        
```

#### Opcodes

```
  0: 0x03F4 [0x4A] Louverance (ID: 16924767/0x0102405F) looks at Mildaurion (ID: 16924776/0x01024068)
  1: 0x03FD [0x1C] WAIT(15* ticks)
  2: 0x0400 [0x4A] LocalPlayer looks at Mildaurion (ID: 16924776/0x01024068)
  3: 0x0409 [0x4A] Tenzen (ID: 16924764/0x0102405C) looks at Mildaurion (ID: 16924776/0x01024068)
  4: 0x0412 [0x1C] WAIT(30* ticks)
  5: 0x0415 [0x4A] Shikaree Z (ID: 16924766/0x0102405E) looks at Mildaurion (ID: 16924776/0x01024068)
  6: 0x041E [0x4A] Jabbos (ID: 16924765/0x0102405D) looks at Mildaurion (ID: 16924776/0x01024068)
  7: 0x0427 [0x00] END_REQSTACK()
```

### Event 65535.14

#### Metadata

| Field        | Value    |
|--------------|----------|
| Entrypoint   | 0x0428   |
| Data Size    | 94 bytes |
| Instructions | 12       |

```
      00 01 02 03 04 05 06 07  08 09 0A 0B 0C 0D 0E 0F
      -- -- -- -- -- -- -- --  -- -- -- -- -- -- -- --
0420:                          6E F0 FF FF 7F 24 80 99          n....$..
0430: F0 FF FF 7F 5B 25 80 59  40 02 01 59 40 02 01 79  ....[%.Y@..Y@..y
0440: 61 74 30 5B 26 80 5B 40  02 01 5B 40 02 01 74 6C  at0[&.[@..[@..tl
0450: 61 30 5B 27 80 5C 40 02  01 5C 40 02 01 72 65 69  a0['.\@..\@..rei
0460: 30 6E 5F 40 02 01 28 80  99 5F 40 02 01 6E 5E 40  0n_@..(.._@..n^@
0470: 02 01 24 80 99 5E 40 02  01 6E 5D 40 02 01 24 80  ..$..^@..n]@..$.
0480: 99 5D 40 02 01 00                                 .]@...          
```

#### Opcodes

```
  0: 0x0428 [0x6E] LocalPlayer uses emote 11*
  1: 0x042F [0x99] Wait for LocalPlayer animation to complete
  2: 0x0434 [0x5B] LOAD_EXT_SCHEDULER: Load scheduler "yat0" with entities [Prishe (ID: 16924761/0x01024059), Prishe (ID: 16924761/0x01024059)], work=693*
  3: 0x0443 [0x5B] LOAD_EXT_SCHEDULER: Load scheduler "tla0" with entities [Ulmia (ID: 16924763/0x0102405B), Ulmia (ID: 16924763/0x0102405B)], work=420*
  4: 0x0452 [0x5B] LOAD_EXT_SCHEDULER: Load scheduler "rei0" with entities [Tenzen (ID: 16924764/0x0102405C), Tenzen (ID: 16924764/0x0102405C)], work=427*
  5: 0x0461 [0x6E] Louverance (ID: 16924767/0x0102405F) uses emote 26*
  6: 0x0468 [0x99] Wait for Louverance (ID: 16924767/0x0102405F) animation to complete
  7: 0x046D [0x6E] Shikaree Z (ID: 16924766/0x0102405E) uses emote 11*
  8: 0x0474 [0x99] Wait for Shikaree Z (ID: 16924766/0x0102405E) animation to complete
  9: 0x0479 [0x6E] Jabbos (ID: 16924765/0x0102405D) uses emote 11*
 10: 0x0480 [0x99] Wait for Jabbos (ID: 16924765/0x0102405D) animation to complete
 11: 0x0485 [0x00] END_REQSTACK()
```

### Event 65535.15

#### Metadata

| Field        | Value    |
|--------------|----------|
| Entrypoint   | 0x0486   |
| Data Size    | 13 bytes |
| Instructions | 3        |

```
      00 01 02 03 04 05 06 07  08 09 0A 0B 0C 0D 0E 0F
      -- -- -- -- -- -- -- --  -- -- -- -- -- -- -- --
0480:                   1C 15  80 6C 6A 40 02 01 0A 80        ...lj@....
0490: 06 80 00                                          ...             
```

#### Opcodes

```
  0: 0x0486 [0x1C] WAIT(5* ticks)
  1: 0x0489 [0x6C] FADE_ENTITY_COLOR(entity_id=Zeid (ID: 16924778/0x0102406A), end_alpha=128*, fade_time=60*)
  2: 0x0492 [0x00] END_REQSTACK()
```

### Event 65535.16

#### Metadata

| Field        | Value    |
|--------------|----------|
| Entrypoint   | 0x0493   |
| Data Size    | 13 bytes |
| Instructions | 3        |

```
      00 01 02 03 04 05 06 07  08 09 0A 0B 0C 0D 0E 0F
      -- -- -- -- -- -- -- --  -- -- -- -- -- -- -- --
0490:          1C 13 80 6C 75  40 02 01 0A 80 06 80 00     ...lu@.......
```

#### Opcodes

```
  0: 0x0493 [0x1C] WAIT(3* ticks)
  1: 0x0496 [0x6C] FADE_ENTITY_COLOR(entity_id=Selh'teus (ID: 16924789/0x01024075), end_alpha=128*, fade_time=60*)
  2: 0x049F [0x00] END_REQSTACK()
```

### Event 65535.17

#### Metadata

| Field        | Value    |
|--------------|----------|
| Entrypoint   | 0x04A0   |
| Data Size    | 66 bytes |
| Instructions | 8        |

```
      00 01 02 03 04 05 06 07  08 09 0A 0B 0C 0D 0E 0F
      -- -- -- -- -- -- -- --  -- -- -- -- -- -- -- --
04A0: 27 10 7A 40 02 01 14 27  10 5C 40 02 01 10 27 10  '.z@...'.\@...'.
04B0: 5E 40 02 01 10 27 10 5D  40 02 01 10 27 10 5F 40  ^@...'.]@...'._@
04C0: 02 01 10 5B 29 80 5C 40  02 01 5C 40 02 01 6C 73  ...[).\@..\@..ls
04D0: 30 33 5B 2A 80 5D 40 02  01 5D 40 02 01 6C 61 30  03[*.]@..]@..la0
04E0: 30 00                                             0.              
```

#### Opcodes

```
  0: 0x04A0 [0x27] REQ_SET(priority=0x10, entity_id=Altana (ID: 16924794/0x0102407A), tag_num=0x14)
  1: 0x04A7 [0x27] REQ_SET(priority=0x10, entity_id=Tenzen (ID: 16924764/0x0102405C), tag_num=0x10)
  2: 0x04AE [0x27] REQ_SET(priority=0x10, entity_id=Shikaree Z (ID: 16924766/0x0102405E), tag_num=0x10)
  3: 0x04B5 [0x27] REQ_SET(priority=0x10, entity_id=Jabbos (ID: 16924765/0x0102405D), tag_num=0x10)
  4: 0x04BC [0x27] REQ_SET(priority=0x10, entity_id=Louverance (ID: 16924767/0x0102405F), tag_num=0x10)
  5: 0x04C3 [0x5B] LOAD_EXT_SCHEDULER: Load scheduler "ls03" with entities [Tenzen (ID: 16924764/0x0102405C), Tenzen (ID: 16924764/0x0102405C)], work=661*
  6: 0x04D2 [0x5B] LOAD_EXT_SCHEDULER: Load scheduler "la00" with entities [Jabbos (ID: 16924765/0x0102405D), Jabbos (ID: 16924765/0x0102405D)], work=741*
  7: 0x04E1 [0x00] END_REQSTACK()
```

### Event 65535.18

#### Metadata

| Field        | Value    |
|--------------|----------|
| Entrypoint   | 0x04E2   |
| Data Size    | 10 bytes |
| Instructions | 2        |

```
      00 01 02 03 04 05 06 07  08 09 0A 0B 0C 0D 0E 0F
      -- -- -- -- -- -- -- --  -- -- -- -- -- -- -- --
04E0:       6C F0 FF FF 7F 08  80 0B 80 00                l.........    
```

#### Opcodes

```
  0: 0x04E2 [0x6C] FADE_ENTITY_COLOR(entity_id=LocalPlayer, end_alpha=0*, fade_time=1*)
  1: 0x04EB [0x00] END_REQSTACK()
```
