# 0x7FFFFFF0 - Zone Events

## Common Data

| Field            | Value                     |
|------------------|---------------------------|
| Zone             | Empyreal Paradox (ID: 36) |
| Block Size       | 15784 bytes               |
| Total Events     | 72                        |
| References Count | 326                       |

## List of Events

| Event ID                   | Entrypoint   |   Size |   Instructions |
|----------------------------|--------------|--------|----------------|
| [65535](#event-65535)      | 0x0000       |      1 |              1 |
| [65534](#event-65534)      | 0x0001       |      1 |              1 |
| [32000](#event-32000)      | 0x0002       |   2170 |            424 |
| [32002](#event-32002)      | 0x087C       |    494 |             83 |
| [32001](#event-32001)      | 0x0A6A       |   1218 |            219 |
| [32003](#event-32003)      | 0x0F2C       |    435 |             77 |
| [32004](#event-32004)      | 0x10DF       |    172 |             39 |
| [32005](#event-32005)      | 0x118B       |   4112 |            503 |
| [50](#event-50)            | 0x219B       |     41 |              5 |
| [51](#event-51)            | 0x21C4       |     38 |              4 |
| [100](#event-100)          | 0x21EA       |   2164 |            309 |
| [65535.1](#event-655351)   | 0x2A5E       |      7 |              3 |
| [65535.2](#event-655352)   | 0x2A65       |      7 |              3 |
| [65535.3](#event-655353)   | 0x2A6C       |      6 |              2 |
| [65535.4](#event-655354)   | 0x2A72       |      3 |              2 |
| [65535.5](#event-655355)   | 0x2A75       |      3 |              2 |
| [65535.6](#event-655356)   | 0x2A78       |     10 |              2 |
| [65535.7](#event-655357)   | 0x2A82       |      1 |              1 |
| [65535.8](#event-655358)   | 0x2A83       |     10 |              2 |
| [65535.9](#event-655359)   | 0x2A8D       |     10 |              2 |
| [65535.10](#event-6553510) | 0x2A97       |     37 |              5 |
| [65535.11](#event-6553511) | 0x2ABC       |    185 |             37 |
| [65535.12](#event-6553512) | 0x2B75       |     19 |              3 |
| [65535.13](#event-6553513) | 0x2B88       |     10 |              2 |
| [65535.14](#event-6553514) | 0x2B92       |     16 |              5 |
| [65535.15](#event-6553515) | 0x2BA2       |     10 |              2 |
| [65535.16](#event-6553516) | 0x2BAC       |     14 |              4 |
| [65535.17](#event-6553517) | 0x2BBA       |     10 |              2 |
| [65535.18](#event-6553518) | 0x2BC4       |     22 |              6 |
| [65535.19](#event-6553519) | 0x2BDA       |     10 |              2 |
| [65535.20](#event-6553520) | 0x2BE4       |     10 |              2 |
| [65535.21](#event-6553521) | 0x2BEE       |     10 |              2 |
| [65535.22](#event-6553522) | 0x2BF8       |     10 |              2 |
| [65535.23](#event-6553523) | 0x2C02       |     10 |              2 |
| [65535.24](#event-6553524) | 0x2C0C       |     10 |              2 |
| [65535.25](#event-6553525) | 0x2C16       |      5 |              2 |
| [65535.26](#event-6553526) | 0x2C1B       |      5 |              2 |
| [65535.27](#event-6553527) | 0x2C20       |      5 |              2 |
| [65535.28](#event-6553528) | 0x2C25       |      5 |              2 |
| [65535.29](#event-6553529) | 0x2C2A       |     14 |              4 |
| [65535.30](#event-6553530) | 0x2C38       |    345 |             33 |
| [65535.31](#event-6553531) | 0x2D91       |    345 |             33 |
| [65535.32](#event-6553532) | 0x2EEA       |    345 |             33 |
| [65535.33](#event-6553533) | 0x3043       |    345 |             33 |
| [65535.34](#event-6553534) | 0x319C       |    345 |             33 |
| [65535.35](#event-6553535) | 0x32F5       |     24 |              4 |
| [65535.36](#event-6553536) | 0x330D       |     14 |              4 |
| [65535.37](#event-6553537) | 0x331B       |     29 |              5 |
| [65535.38](#event-6553538) | 0x3338       |     29 |              5 |
| [65535.39](#event-6553539) | 0x3355       |     29 |              5 |
| [65535.40](#event-6553540) | 0x3372       |    249 |             25 |
| [65535.41](#event-6553541) | 0x346B       |    249 |             25 |
| [65535.42](#event-6553542) | 0x3564       |     10 |              2 |
| [65535.43](#event-6553543) | 0x356E       |     24 |              4 |
| [65535.44](#event-6553544) | 0x3586       |     29 |              5 |
| [65535.45](#event-6553545) | 0x35A3       |     24 |              4 |
| [65535.46](#event-6553546) | 0x35BB       |     29 |              5 |
| [65535.47](#event-6553547) | 0x35D8       |     29 |              5 |
| [65535.48](#event-6553548) | 0x35F5       |     24 |              4 |
| [65535.49](#event-6553549) | 0x360D       |     42 |              6 |
| [65535.50](#event-6553550) | 0x3637       |     29 |              5 |
| [65535.51](#event-6553551) | 0x3654       |     29 |              5 |
| [65535.52](#event-6553552) | 0x3671       |     29 |              5 |
| [65535.53](#event-6553553) | 0x368E       |     29 |              5 |
| [65535.54](#event-6553554) | 0x36AB       |     24 |              4 |
| [65535.55](#event-6553555) | 0x36C3       |     29 |              5 |
| [65535.56](#event-6553556) | 0x36E0       |     29 |              5 |
| [65535.57](#event-6553557) | 0x36FD       |     24 |              4 |
| [65535.58](#event-6553558) | 0x3715       |     29 |              5 |
| [65535.59](#event-6553559) | 0x3732       |     29 |              5 |
| [65535.60](#event-6553560) | 0x374F       |      7 |              3 |
| [65535.61](#event-6553561) | 0x3756       |      9 |              4 |

## DAT References (imed_data)

|   Index | Hex Value   |   Dec Value |
|---------|-------------|-------------|
|       0 | 0x0000      |           0 |
|       1 | 0x000F      |          15 |
|       2 | 0x0010      |          16 |
|       3 | 0x001F      |          31 |
|       4 | 0xFFFFFFFF  |  4294967295 |
|       5 | 0x0001      |           1 |
|       6 | 0x1DB5      |        7605 |
|       7 | 0x1D09      |        7433 |
|       8 | 0x0005      |           5 |
|       9 | 0x0002      |           2 |
|      10 | 0x0003      |           3 |
|      11 | 0x0004      |           4 |
|      12 | 0x1B9C      |        7068 |
|      13 | 0x00FF      |         255 |
|      14 | 0x00C8      |         200 |
|      15 | 0x0013      |          19 |
|      16 | 0x0008      |           8 |
|      17 | 0x0009      |           9 |
|      18 | 0x000B      |          11 |
|      19 | 0x1BA7      |        7079 |
|      20 | 0x1BA8      |        7080 |
|      21 | 0x1BA9      |        7081 |
|      22 | 0x1BAA      |        7082 |
|      23 | 0x1BCE      |        7118 |
|      24 | 0x0006      |           6 |
|      25 | 0x0007      |           7 |
|      26 | 0x000A      |          10 |
|      27 | 0x000C      |          12 |
|      28 | 0x000D      |          13 |
|      29 | 0x000E      |          14 |
|      30 | 0x0011      |          17 |
|      31 | 0x0012      |          18 |
|      32 | 0x0014      |          20 |
|      33 | 0x0015      |          21 |
|      34 | 0x0016      |          22 |
|      35 | 0x0017      |          23 |
|      36 | 0x0018      |          24 |
|      37 | 0x0019      |          25 |
|      38 | 0x001A      |          26 |
|      39 | 0x001B      |          27 |
|      40 | 0x001C      |          28 |
|      41 | 0x001D      |          29 |
|      42 | 0x001E      |          30 |
|      43 | 0x1D03      |        7427 |
|      44 | 0x1D08      |        7432 |
|      45 | 0x1D07      |        7431 |
|      46 | 0x003C      |          60 |
|      47 | 0x1DB3      |        7603 |
|      48 | 0x1DB2      |        7602 |
|      49 | 0x0064      |         100 |
|      50 | 0x1CEF      |        7407 |
|      51 | 0x00E0      |         224 |
|      52 | 0x0089      |         137 |
|      53 | 0x00C1      |         193 |
|      54 | 0x1B9F      |        7071 |
|      55 | 0x00C9      |         201 |
|      56 | 0x00B4      |         180 |
|      57 | 0xFFF6C42B  |  4294362155 |
|      58 | 0x752B9     |      479929 |
|      59 | 0xFFFFA767  |  4294944615 |
|      60 | 0x03E0      |         992 |
|      61 | 0xFFFBFE43  |  4294704707 |
|      62 | 0x5C401     |      377857 |
|      63 | 0xFFFDE79F  |  4294829983 |
|      64 | 0x0D92      |        3474 |
|      65 | 0x47AC      |       18348 |
|      66 | 0x76E1C     |      486940 |
|      67 | 0xFFFC93B2  |  4294742962 |
|      68 | 0x00C2      |         194 |
|      69 | 0x388A9     |      231593 |
|      70 | 0x57E9E     |      360094 |
|      71 | 0xFFFD59FC  |  4294793724 |
|      72 | 0x0726      |        1830 |
|      73 | 0x872C0     |      553664 |
|      74 | 0x7FEA3     |      523939 |
|      75 | 0xFFFF6AC3  |  4294929091 |
|      76 | 0x0A65      |        2661 |
|      77 | 0x83D55     |      539989 |
|      78 | 0xFFF733F6  |  4294390774 |
|      79 | 0x0C00      |        3072 |
|      80 | 0xFFF2A593  |  4294092179 |
|      81 | 0xFFFF548C  |  4294923404 |
|      82 | 0xFFFF442C  |  4294919212 |
|      83 | 0x0201      |         513 |
|      84 | 0xFFF478D5  |  4294211797 |
|      85 | 0x89AEB     |      563947 |
|      86 | 0xFFFE4A5D  |  4294855261 |
|      87 | 0x0DEF      |        3567 |
|      88 | 0x1E173     |      123251 |
|      89 | 0xB8221     |      754209 |
|      90 | 0xFFFD5FA4  |  4294795172 |
|      91 | 0x01B8      |         440 |
|      92 | 0xFFF81ECC  |  4294450892 |
|      93 | 0xFFF3BE05  |  4294163973 |
|      94 | 0x5E8E      |       24206 |
|      95 | 0x01B5      |         437 |
|      96 | 0x012C      |         300 |
|      97 | 0x0080      |         128 |
|      98 | 0xFFF690A7  |  4294348967 |
|      99 | 0xFFF62CE4  |  4294323428 |
|     100 | 0xFFFF9B33  |  4294941491 |
|     101 | 0x0EB1      |        3761 |
|     102 | 0xFFFAEE7D  |  4294635133 |
|     103 | 0xFFF941C6  |  4294525382 |
|     104 | 0xFFFE8CB1  |  4294872241 |
|     105 | 0x0EB0      |        3760 |
|     106 | 0xFFFFCF50  |  4294954832 |
|     107 | 0xFFF61B47  |  4294318919 |
|     108 | 0xFFFD07BB  |  4294772667 |
|     109 | 0x0EBA      |        3770 |
|     110 | 0x4EF35     |      323381 |
|     111 | 0xFFF93A6F  |  4294523503 |
|     112 | 0xFFFE5868  |  4294858856 |
|     113 | 0x0EA0      |        3744 |
|     114 | 0x92763     |      599907 |
|     115 | 0xFFF5AB97  |  4294290327 |
|     116 | 0xFFFFA837  |  4294944823 |
|     117 | 0x0EB3      |        3763 |
|     118 | 0x00A8      |         168 |
|     119 | 0x30D7B     |      200059 |
|     120 | 0xFFFFAA3A  |  4294945338 |
|     121 | 0xFFFFFF06  |  4294967046 |
|     122 | 0x0411      |        1041 |
|     123 | 0x00CA      |         202 |
|     124 | 0x837EC     |      538604 |
|     125 | 0x7A88C     |      501900 |
|     126 | 0xFFFFC98A  |  4294953354 |
|     127 | 0x0CBC      |        3260 |
|     128 | 0x00CB      |         203 |
|     129 | 0x870F5     |      553205 |
|     130 | 0x8FF41     |      589633 |
|     131 | 0xFFFFFFEB  |  4294967275 |
|     132 | 0x0587      |        1415 |
|     133 | 0x00D3      |         211 |
|     134 | 0x8AF88     |      569224 |
|     135 | 0x85E6E     |      548462 |
|     136 | 0x8FE5      |       36837 |
|     137 | 0x02A1      |         673 |
|     138 | 0x0024      |          36 |
|     139 | 0x1CF1      |        7409 |
|     140 | 0x1CF0      |        7408 |
|     141 | 0x1DB1      |        7601 |
|     142 | 0x1CF3      |        7411 |
|     143 | 0x1CF2      |        7410 |
|     144 | 0x0078      |         120 |
|     145 | 0x0096      |         150 |
|     146 | 0x83DD4     |      540116 |
|     147 | 0xFFF6EC9E  |  4294372510 |
|     148 | 0x0428      |        1064 |
|     149 | 0x004B      |          75 |
|     150 | 0xFFF81095  |  4294447253 |
|     151 | 0x788D2     |      493778 |
|     152 | 0xFFFE2B40  |  4294847296 |
|     153 | 0x004C      |          76 |
|     154 | 0x02F7      |         759 |
|     155 | 0x0310      |         784 |
|     156 | 0x009D      |         157 |
|     157 | 0x002D      |          45 |
|     158 | 0x1DD4      |        7636 |
|     159 | 0x0069      |         105 |
|     160 | 0x1DD5      |        7637 |
|     161 | 0x1DD6      |        7638 |
|     162 | 0x1DD7      |        7639 |
|     163 | 0xFFF81AB6  |  4294449846 |
|     164 | 0x7AEFF     |      503551 |
|     165 | 0x0C79      |        3193 |
|     166 | 0x1DD8      |        7640 |
|     167 | 0x1DD9      |        7641 |
|     168 | 0x01E1      |         481 |
|     169 | 0x1DDA      |        7642 |
|     170 | 0x02B4      |         692 |
|     171 | 0x1DDB      |        7643 |
|     172 | 0x1DDC      |        7644 |
|     173 | 0x031B      |         795 |
|     174 | 0x1DDD      |        7645 |
|     175 | 0x1DDE      |        7646 |
|     176 | 0x1DDF      |        7647 |
|     177 | 0x1DE0      |        7648 |
|     178 | 0x1DE1      |        7649 |
|     179 | 0x1DE2      |        7650 |
|     180 | 0x1DE3      |        7651 |
|     181 | 0x007F      |         127 |
|     182 | 0x02F8      |         760 |
|     183 | 0x0087      |         135 |
|     184 | 0x005A      |          90 |
|     185 | 0x02F9      |         761 |
|     186 | 0x0095      |         149 |
|     187 | 0x02BA      |         698 |
|     188 | 0x0057      |          87 |
|     189 | 0x1DE4      |        7652 |
|     190 | 0x1DE5      |        7653 |
|     191 | 0x1DE6      |        7654 |
|     192 | 0x1DE7      |        7655 |
|     193 | 0x1DE8      |        7656 |
|     194 | 0xFFF81213  |  4294447635 |
|     195 | 0x78E30     |      495152 |
|     196 | 0xFFFE2B41  |  4294847297 |
|     197 | 0x0101      |         257 |
|     198 | 0x0326      |         806 |
|     199 | 0x1E72      |        7794 |
|     200 | 0x0251      |         593 |
|     201 | 0x1E73      |        7795 |
|     202 | 0x0100      |         256 |
|     203 | 0x00B6      |         182 |
|     204 | 0x00B5      |         181 |
|     205 | 0xFFF81110  |  4294447376 |
|     206 | 0x7CF43     |      511811 |
|     207 | 0x0C0C      |        3084 |
|     208 | 0x1B9D      |        7069 |
|     209 | 0x0071      |         113 |
|     210 | 0x0074      |         116 |
|     211 | 0x0077      |         119 |
|     212 | 0x007B      |         123 |
|     213 | 0x00D7      |         215 |
|     214 | 0x7F0A9     |      520361 |
|     215 | 0x786F4     |      493300 |
|     216 | 0xFFF81250  |  4294447696 |
|     217 | 0xFFF7AC81  |  4294421633 |
|     218 | 0x1D4BF     |      119999 |
|     219 | 0x008C      |         140 |
|     220 | 0x00AA      |         170 |
|     221 | 0x1DC8      |        7624 |
|     222 | 0x1DC9      |        7625 |
|     223 | 0x0314      |         788 |
|     224 | 0x007C      |         124 |
|     225 | 0x030F      |         783 |
|     226 | 0xFFF7FE24  |  4294442532 |
|     227 | 0x7CF6A     |      511850 |
|     228 | 0x0D52      |        3410 |
|     229 | 0xFFF81356  |  4294447958 |
|     230 | 0x7899B     |      493979 |
|     231 | 0x0C21      |        3105 |
|     232 | 0xFFF8128A  |  4294447754 |
|     233 | 0x7804B     |      491595 |
|     234 | 0x0C7E      |        3198 |
|     235 | 0xFFF80486  |  4294444166 |
|     236 | 0x786EB     |      493291 |
|     237 | 0x0C51      |        3153 |
|     238 | 0xFFF80BDB  |  4294446043 |
|     239 | 0x78530     |      492848 |
|     240 | 0x0C59      |        3161 |
|     241 | 0xFFF8199B  |  4294449563 |
|     242 | 0x783A0     |      492448 |
|     243 | 0x0B8D      |        2957 |
|     244 | 0xFFF82018  |  4294451224 |
|     245 | 0x785E2     |      493026 |
|     246 | 0x0B78      |        2936 |
|     247 | 0x7EEE0     |      519904 |
|     248 | 0x78848     |      493640 |
|     249 | 0x0C3C      |        3132 |
|     250 | 0x7EEE8     |      519912 |
|     251 | 0x77F43     |      491331 |
|     252 | 0x0C23      |        3107 |
|     253 | 0x7E03A     |      516154 |
|     254 | 0x784B7     |      492727 |
|     255 | 0x0C04      |        3076 |
|     256 | 0x7E7C2     |      518082 |
|     257 | 0x78324     |      492324 |
|     258 | 0x0C57      |        3159 |
|     259 | 0x7F5B5     |      521653 |
|     260 | 0x781A8     |      491944 |
|     261 | 0x0BF3      |        3059 |
|     262 | 0x7FCDE     |      523486 |
|     263 | 0x781BB     |      491963 |
|     264 | 0x0BD2      |        3026 |
|     265 | 0xFFF8104B  |  4294447179 |
|     266 | 0xFFF7AFE2  |  4294422498 |
|     267 | 0x0BF1      |        3057 |
|     268 | 0xFFF8100D  |  4294447117 |
|     269 | 0xFFF7A743  |  4294420291 |
|     270 | 0x0BED      |        3053 |
|     271 | 0xFFF80090  |  4294443152 |
|     272 | 0xFFF7AB2D  |  4294421293 |
|     273 | 0xFFF80883  |  4294445187 |
|     274 | 0xFFF7A9AB  |  4294420907 |
|     275 | 0x0BFA      |        3066 |
|     276 | 0xFFF8174A  |  4294448970 |
|     277 | 0xFFF7A959  |  4294420825 |
|     278 | 0x0B88      |        2952 |
|     279 | 0xFFF81E2A  |  4294450730 |
|     280 | 0xFFF7AAA0  |  4294421152 |
|     281 | 0x0BB5      |        2997 |
|     282 | 0xFFF82E33  |  4294454835 |
|     283 | 0x7C0BE     |      508094 |
|     284 | 0x0A41      |        2625 |
|     285 | 0x0046      |          70 |
|     286 | 0x00D2      |         210 |
|     287 | 0xFFF80C72  |  4294446194 |
|     288 | 0x7DF62     |      515938 |
|     289 | 0x0CD1      |        3281 |
|     290 | 0x002C      |          44 |
|     291 | 0xFFF81F59  |  4294451033 |
|     292 | 0x7F2BE     |      520894 |
|     293 | 0xFFF81AC4  |  4294449860 |
|     294 | 0x8068F     |      525967 |
|     295 | 0x0661      |        1633 |
|     296 | 0xFFF82151  |  4294451537 |
|     297 | 0x80B55     |      527189 |
|     298 | 0x0028      |          40 |
|     299 | 0xFFF80C60  |  4294446176 |
|     300 | 0x7A65A     |      501338 |
|     301 | 0x0C8F      |        3215 |
|     302 | 0xFFF81296  |  4294447766 |
|     303 | 0x7D8CF     |      514255 |
|     304 | 0x0C03      |        3075 |
|     305 | 0xFFF8057B  |  4294444411 |
|     306 | 0x7F678     |      521848 |
|     307 | 0x03BD      |         957 |
|     308 | 0xFFF811D9  |  4294447577 |
|     309 | 0x81621     |      529953 |
|     310 | 0x0F32      |        3890 |
|     311 | 0xFFF811FE  |  4294447614 |
|     312 | 0x7BA5C     |      506460 |
|     313 | 0x005D      |          93 |
|     314 | 0x0060      |          96 |
|     315 | 0xFFF810B5  |  4294447285 |
|     316 | 0x7D6A5     |      513701 |
|     317 | 0x008D      |         141 |
|     318 | 0x0F26      |        3878 |
|     319 | 0x0097      |         151 |
|     320 | 0x00A1      |         161 |
|     321 | 0x00AB      |         171 |
|     322 | 0x00BF      |         191 |
|     323 | 0xFFF81677  |  4294448759 |
|     324 | 0x7FAFC     |      523004 |
|     325 | 0x0042      |          66 |

## String References

- **7068**: Enter the battlefield? [Enter./Decline.]
- **7069**: Leave the battlefield? [Run away./Stay.]
- **7071**: You cannot enter the battlefield at present. Please wait a little longer.
- **7079**: You are cleared to enter the battlefield, but you cannot while party members are engaged in combat.
- **7080**: You are cleared to enter the battlefield, but you cannot while party members are engaged in combat.
- **7081**: You are cleared to enter the battlefield, but you cannot while party members are engaged in combat.
- **7082**: You are cleared to enter the battlefield, but you cannot while party members are engaged in combat.
- **7118**: You do not meet the requirements to enter the battlefield. Access is denied.
- **7407**: Skip the event? [Yes./No.]
- **7408**: Battlefield clear time: $3 second[/s]!
- **7409**: Battlefield clear time: $3 minute[/s], $2 second[/s]!
- **7410**: The current battlefield clear time record is $3 second[/s].
- **7411**: The current battlefield clear time record is $3 minute[/s] $2 second[/s].
- **7427**: Only $3 [member/members] have clearance to enter the battlefield. This room has reached its maximum capacity.
- **7431**: That record is held by $5 adventurers, including %0!
- **7432**: That record is held by %0!
- **7433**: Select difficulty. [Very difficult. (Level: ???)/Difficult. (Level: ???)/Normal. (Level: $18)/Easy. (Level: $17)/Very Easy. (Level: $16)/Leave.]
- **7601**: You have broken the clear time record for "[Dawn/Apocalypse Nigh/Both Paths Taken/$26Dawn/The Winds of Time/Sealed Fate]"!
- **7602**: The current battlefield clear time record for "[Dawn/Apocalypse Nigh/Both Paths Taken/$26Dawn/The Winds of Time/Sealed Fate]" is $3 second[/s].
- **7603**: The current battlefield clear time record for "[Dawn/Apocalypse Nigh/Both Paths Taken/$26Dawn/The Winds of Time/Sealed Fate]" is $3 minute[/s] $2 second[/s].
- **7605**: Which battlefield will you enter? [None./Dawn./Apocalypse Nigh./Both Paths Taken./$26Dawn./The Winds of Time./Sealed Fate.]
- **7624**: This device appears to be connected to the level above.
- **7625**: Use the device? [Yes./No.]

## Events

### Event 65535

#### Metadata

| Field        | Value   |
|--------------|---------|
| Entrypoint   | 0x0000  |
| Data Size    | 1 bytes |
| Instructions | 1       |

```
      00 01 02 03 04 05 06 07  08 09 0A 0B 0C 0D 0E 0F
      -- -- -- -- -- -- -- --  -- -- -- -- -- -- -- --
0000: 00                                                .               
```

#### Opcodes

```
  0: 0x0000 [0x00] END_REQSTACK()
```

### Event 65534

#### Metadata

| Field        | Value   |
|--------------|---------|
| Entrypoint   | 0x0001  |
| Data Size    | 1 bytes |
| Instructions | 1       |

```
      00 01 02 03 04 05 06 07  08 09 0A 0B 0C 0D 0E 0F
      -- -- -- -- -- -- -- --  -- -- -- -- -- -- -- --
0000:    00                                              .              
```

#### Opcodes

```
  0: 0x0001 [0x00] END_REQSTACK()
```

### Event 32000

#### Metadata

| Field        | Value      |
|--------------|------------|
| Entrypoint   | 0x0002     |
| Data Size    | 2170 bytes |
| Instructions | 291        |

```
      00 01 02 03 04 05 06 07  08 09 0A 0B 0C 0D 0E 0F
      -- -- -- -- -- -- -- --  -- -- -- -- -- -- -- --
0000:       20 01 79 00 F0 FF  FF 7F F0 FF FF 7F 03 02     .y...........
0010: 00 02 10 03 03 00 03 10  03 05 00 04 10 03 06 00  ................
0020: 05 10 03 0F 00 06 10 03  10 00 07 10 03 11 00 08  ................
0030: 10 41 00 80 01 80 09 10  07 00 41 02 80 03 80 09  .A........A.....
0040: 10 06 10 06 01 00 02 07  00 00 80 00 45 01 03 08  ............E...
0050: 00 04 80 0F 08 00 06 00  10 08 00 05 80 24 06 80  .............$..
0060: 00 80 08 00 25 02 00 10  00 80 00 73 00 01 61 08  ....%......s..a.
0070: 01 45 01 03 03 00 00 10  0C 03 00 06 16 00 06 13  .E..............
0080: 00 3E 0F 00 03 00 21 01  06 0F 00 06 08 00 3E 11  .>....!.......>.
0090: 00 03 00 98 00 01 9F 00  3C 08 00 00 80 05 80 3E  ........<......>
00A0: 10 00 03 00 A9 00 01 B0  00 3C 08 00 05 80 05 80  .........<......
00B0: 1A 5D 1E 24 07 80 08 80  08 00 25 02 00 10 00 80  .].$......%.....
00C0: 00 CB 00 03 0F 00 05 80  01 1E 01 02 00 10 05 80  ................
00D0: 00 DB 00 03 0F 00 09 80  01 1E 01 02 00 10 09 80  ................
00E0: 00 EB 00 03 0F 00 0A 80  01 1E 01 02 00 10 0A 80  ................
00F0: 00 FB 00 03 0F 00 0B 80  01 1E 01 02 00 10 0B 80  ................
0100: 00 0B 01 03 0F 00 08 80  01 1E 01 02 00 10 08 80  ................
0110: 00 19 01 01 61 08 01 1E  01 03 0F 00 0A 80 01 45  ....a..........E
0120: 01 06 0F 00 1A 7B 08 02  16 00 05 80 00 45 01 24  .....{.......E.$
0130: 0C 80 05 80 00 80 25 02  00 10 05 80 00 45 01 01  ......%......E..
0140: 61 08 01 45 01 42 03 01  10 0D 80 43 00 43 01 06  a..E.B.....C.C..
0150: 01 10 45 0E 80 F0 FF FF  7F F0 FF FF 7F 66 64 6F  ..E..........fdo
0160: 31 00 80 55 0E 80 F0 FF  FF 7F F0 FF FF 7F 66 64  1..U..........fd
0170: 6F 31 3B F0 FF FF 7F 20  10 21 10 22 10 38 0F 80  o1;.... .!.".8..
0180: 02 07 00 05 80 00 9F 01  03 00 00 05 80 03 04 00  ................
0190: 03 00 03 02 00 00 80 03  1C 00 00 80 01 5F 05 03  ............._..
01A0: 00 00 05 80 02 00 00 0A  80 05 2A 08 02 00 80 05  ..........*.....
01B0: 80 00 B9 01 03 00 00 05  00 40 00 80 0A 80 01 10  .........@......
01C0: 00 00 40 0B 80 10 80 01  10 03 00 40 11 80 12 80  ..@........@....
01D0: 01 10 0F 00 06 02 10 06  03 10 06 04 10 1A 1E 21  ...............!
01E0: 47 00 09 00 0A 00 0B 00  0C 00 47 01 03 04 00 03  G.........G.....
01F0: 10 03 02 00 04 10 03 1A  00 05 10 03 0D 00 06 10  ................
0200: 03 0E 00 07 10 03 1C 00  09 10 02 02 10 05 80 80  ................
0210: 15 02 01 17 08 02 02 10  0B 80 80 5F 02 02 00 00  ..........._....
0220: 05 80 80 2C 02 48 13 80  23 01 59 02 02 00 00 09  ...,.H..#.Y.....
0230: 80 80 3B 02 48 14 80 23  01 59 02 02 00 00 0A 80  ..;.H..#.Y......
0240: 80 4A 02 48 15 80 23 01  59 02 02 00 00 0B 80 80  .J.H..#.Y.......
0250: 59 02 48 16 80 23 01 59  02 01 2E 08 01 17 08 02  Y.H..#.Y........
0260: 02 10 08 80 80 71 02 48  17 80 23 01 2E 08 01 17  .....q.H..#.....
0270: 08 02 02 10 18 80 80 73  04 02 04 00 00 80 80 89  .......s........
0280: 02 03 05 10 18 80 01 69  04 02 04 00 05 80 80 99  .......i........
0290: 02 03 05 10 18 80 01 69  04 02 04 00 09 80 80 A9  .......i........
02A0: 02 03 05 10 18 80 01 69  04 02 04 00 0A 80 80 B9  .......i........
02B0: 02 03 05 10 18 80 01 69  04 02 04 00 0B 80 80 C9  .......i........
02C0: 02 03 05 10 18 80 01 69  04 02 04 00 08 80 80 D9  .......i........
02D0: 02 03 05 10 18 80 01 69  04 02 04 00 18 80 80 E9  .......i........
02E0: 02 03 05 10 00 80 01 69  04 02 04 00 19 80 80 F9  .......i........
02F0: 02 03 05 10 00 80 01 69  04 02 04 00 10 80 80 09  .......i........
0300: 03 03 05 10 00 80 01 69  04 02 04 00 11 80 80 19  .......i........
0310: 03 03 05 10 00 80 01 69  04 02 04 00 1A 80 80 29  .......i.......)
0320: 03 03 05 10 00 80 01 69  04 02 04 00 12 80 80 39  .......i.......9
0330: 03 03 05 10 00 80 01 69  04 02 04 00 1B 80 80 49  .......i.......I
0340: 03 03 05 10 00 80 01 69  04 02 04 00 1C 80 80 59  .......i.......Y
0350: 03 03 05 10 00 80 01 69  04 02 04 00 1D 80 80 69  .......i.......i
0360: 03 03 05 10 00 80 01 69  04 02 04 00 01 80 80 79  .......i.......y
0370: 03 03 05 10 00 80 01 69  04 02 04 00 02 80 80 89  .......i........
0380: 03 03 05 10 00 80 01 69  04 02 04 00 1E 80 80 99  .......i........
0390: 03 03 05 10 00 80 01 69  04 02 04 00 1F 80 80 A9  .......i........
03A0: 03 03 05 10 00 80 01 69  04 02 04 00 0F 80 80 B9  .......i........
03B0: 03 03 05 10 00 80 01 69  04 02 04 00 20 80 80 C9  .......i.... ...
03C0: 03 03 05 10 00 80 01 69  04 02 04 00 21 80 80 D9  .......i....!...
03D0: 03 03 05 10 00 80 01 69  04 02 04 00 22 80 80 E9  .......i...."...
03E0: 03 03 05 10 00 80 01 69  04 02 04 00 23 80 80 F9  .......i....#...
03F0: 03 03 05 10 00 80 01 69  04 02 04 00 24 80 80 09  .......i....$...
0400: 04 03 05 10 00 80 01 69  04 02 04 00 25 80 80 19  .......i....%...
0410: 04 03 05 10 00 80 01 69  04 02 04 00 26 80 80 29  .......i....&..)
0420: 04 03 05 10 00 80 01 69  04 02 04 00 27 80 80 39  .......i....'..9
0430: 04 03 05 10 00 80 01 69  04 02 04 00 28 80 80 49  .......i....(..I
0440: 04 03 05 10 00 80 01 69  04 02 04 00 29 80 80 59  .......i....)..Y
0450: 04 03 05 10 00 80 01 69  04 02 04 00 2A 80 80 69  .......i....*..i
0460: 04 03 05 10 00 80 01 69  04 48 2B 80 23 01 2E 08  .......i.H+.#...
0470: 01 17 08 02 02 10 0A 80  80 81 04 01 9F 01 01 17  ................
0480: 08 02 02 10 09 80 80 17  08 02 0D 00 00 80 01 15  ................
0490: 05 02 13 00 00 80 01 C9  04 03 05 10 1A 00 02 1A  ................
04A0: 00 00 80 02 A6 04 02 0D  00 05 80 05 B5 04 48 2C  ..............H,
04B0: 80 23 01 C6 04 03 06 10  0D 00 0C 06 10 03 07 10  .#..............
04C0: 0D 00 48 2D 80 23 01 15  05 03 05 10 1A 00 02 1A  ..H-.#..........
04D0: 00 00 80 02 F5 04 02 1A  00 2E 80 04 F1 04 3F 04  ..............?.
04E0: 10 05 10 2E 80 15 05 10  2E 80 48 2F 80 23 01 F5  ..........H/.#..
04F0: 04 48 30 80 23 02 0D 00  05 80 05 04 05 48 2C 80  .H0.#........H,.
0500: 23 01 15 05 03 06 10 0D  00 0C 06 10 03 07 10 0D  #...............
0510: 00 48 2D 80 23 03 03 00  04 00 03 14 00 31 80 07  .H-.#........1..
0520: 14 00 03 00 02 02 00 14  00 00 34 05 03 02 00 05  ..........4.....
0530: 80 01 39 05 03 02 00 00  80 02 02 00 00 80 00 5F  ..9............_
0540: 05 02 0E 00 05 80 00 5F  05 24 32 80 05 80 00 80  ......._.$2.....
0550: 25 02 00 10 00 80 00 5F  05 05 02 00 01 5F 05 06  %......_....._..
0560: 15 00 02 04 00 00 80 80  72 05 03 15 00 05 80 01  ........r.......
0570: 57 07 02 04 00 05 80 80  82 05 03 15 00 05 80 01  W...............
0580: 57 07 02 04 00 09 80 80  92 05 03 15 00 00 80 01  W...............
0590: 57 07 02 04 00 0A 80 80  A2 05 03 15 00 00 80 01  W...............
05A0: 57 07 02 04 00 0B 80 80  B2 05 03 15 00 00 80 01  W...............
05B0: 57 07 02 04 00 08 80 80  C2 05 03 15 00 00 80 01  W...............
05C0: 57 07 02 04 00 18 80 80  D2 05 03 15 00 00 80 01  W...............
05D0: 57 07 02 04 00 19 80 80  E2 05 03 15 00 00 80 01  W...............
05E0: 57 07 02 04 00 10 80 80  F2 05 03 15 00 00 80 01  W...............
05F0: 57 07 02 04 00 11 80 80  02 06 03 15 00 00 80 01  W...............
0600: 57 07 02 04 00 1A 80 80  12 06 03 15 00 00 80 01  W...............
0610: 57 07 02 04 00 12 80 80  22 06 03 15 00 00 80 01  W.......".......
0620: 57 07 02 04 00 1B 80 80  32 06 03 15 00 00 80 01  W.......2.......
0630: 57 07 02 04 00 1C 80 80  42 06 03 15 00 00 80 01  W.......B.......
0640: 57 07 02 04 00 1D 80 80  52 06 03 15 00 00 80 01  W.......R.......
0650: 57 07 02 04 00 01 80 80  62 06 03 15 00 00 80 01  W.......b.......
0660: 57 07 02 04 00 02 80 80  72 06 03 15 00 00 80 01  W.......r.......
0670: 57 07 02 04 00 1E 80 80  82 06 03 15 00 00 80 01  W...............
0680: 57 07 02 04 00 1F 80 80  92 06 03 15 00 00 80 01  W...............
0690: 57 07 02 04 00 0F 80 80  A2 06 03 15 00 00 80 01  W...............
06A0: 57 07 02 04 00 20 80 80  B2 06 03 15 00 00 80 01  W.... ..........
06B0: 57 07 02 04 00 21 80 80  C2 06 03 15 00 00 80 01  W....!..........
06C0: 57 07 02 04 00 22 80 80  D2 06 03 15 00 00 80 01  W...."..........
06D0: 57 07 02 04 00 23 80 80  E2 06 03 15 00 00 80 01  W....#..........
06E0: 57 07 02 04 00 24 80 80  F2 06 03 15 00 00 80 01  W....$..........
06F0: 57 07 02 04 00 25 80 80  02 07 03 15 00 00 80 01  W....%..........
0700: 57 07 02 04 00 26 80 80  12 07 03 15 00 00 80 01  W....&..........
0710: 57 07 02 04 00 27 80 80  22 07 03 15 00 00 80 01  W....'..".......
0720: 57 07 02 04 00 28 80 80  32 07 03 15 00 00 80 01  W....(..2.......
0730: 57 07 02 04 00 29 80 80  42 07 03 15 00 00 80 01  W....)..B.......
0740: 57 07 02 04 00 2A 80 80  52 07 03 15 00 00 80 01  W....*..R.......
0750: 57 07 03 15 00 00 80 02  02 00 05 80 00 A8 07 5C  W..............\
0760: 00 33 80 5C 01 33 80 5C  02 33 80 5C 03 33 80 02  .3.\.3.\.3.\.3..
0770: 04 00 05 80 80 8A 07 5C  00 34 80 5C 01 34 80 5C  .......\.4.\.4.\
0780: 02 34 80 5C 03 34 80 01  A5 07 02 04 00 09 80 80  .4.\.4..........
0790: A5 07 5C 00 35 80 5C 01  35 80 5C 02 35 80 5C 03  ..\.5.\.5.\.5.\.
07A0: 35 80 01 A5 07 01 C0 07  02 15 00 00 80 00 C0 07  5...............
07B0: 5C 00 33 80 5C 01 33 80  5C 02 33 80 5C 03 33 80  \.3.\.3.\.3.\.3.
07C0: 02 02 00 00 80 00 CE 07  1A 67 12 01 07 08 6C F0  .........g....l.
07D0: FF FF 7F 00 80 05 80 62  09 80 F0 FF FF 7F F0 FF  .......b........
07E0: FF 7F 6D 61 69 6E 00 80  45 0E 80 F0 FF FF 7F F0  ..main..E.......
07F0: FF FF 7F 6F 76 6C 31 00  80 46 02 12 00 02 12 00  ...ovl1..F......
0800: 00 80 00 07 08 46 00 03  01 10 31 80 07 01 10 03  .....F....1.....
0810: 00 01 2E 08 01 17 08 0B  00 00 02 00 80 05 80 00  ................
0820: 27 08 03 00 00 0B 80 01  A4 01 48 36 80 23 45 37  '.........H6.#E7
0830: 80 F0 FF FF 7F F0 FF FF  7F 77 68 69 31 00 80 45  .........whi1..E
0840: 0E 80 F0 FF FF 7F F0 FF  FF 7F 62 6C 6F 66 00 80  ..........blof..
0850: 45 0E 80 F0 FF FF 7F F0  FF FF 7F 66 64 69 30 00  E..........fdi0.
0860: 80 02 07 00 05 80 00 79  08 5C 00 00 80 5C 01 00  .......y.\...\..
0870: 80 5C 02 33 80 5C 03 33  80 21 00 1B              .\.3.\.3.!..    
```

#### Opcodes

```
  0: 0x0002 [0x20] SET_CLI_EVENT_UC_FLAG: Lock player control
  1: 0x0004 [0x79] LocalPlayer looks at LocalPlayer (Basic look)
  2: 0x000E [0x03] ExtData[1]->WorkLocal[2] = Work_Zone[2]
  3: 0x0013 [0x03] ExtData[1]->WorkLocal[3] = Work_Zone[3]
  4: 0x0018 [0x03] ExtData[1]->WorkLocal[5] = Work_Zone[4]
  5: 0x001D [0x03] ExtData[1]->WorkLocal[6] = Work_Zone[5]
  6: 0x0022 [0x03] ExtData[1]->WorkLocal[15] = Work_Zone[6]
  7: 0x0027 [0x03] ExtData[1]->WorkLocal[16] = Work_Zone[7]
  8: 0x002C [0x03] ExtData[1]->WorkLocal[17] = Work_Zone[8]
  9: 0x0031 [0x41] ExtData[1]->WorkLocal[7] = Work_Zone[9] (bits 0*-15*)
 10: 0x003A [0x41] Work_Zone[6] = Work_Zone[9] (bits 16*-31*)
 11: 0x0043 [0x06] ExtData[1]->WorkLocal[1] = 0
 12: 0x0046 [0x02] IF !(ExtData[1]->WorkLocal[7] == 0*) GOTO 0x0145
 13: 0x004E [0x03] ExtData[1]->WorkLocal[8] = 4294967295*
 14: 0x0053 [0x0F] ExtData[1]->WorkLocal[8] ^= ExtData[1]->WorkLocal[6]
 15: 0x0058 [0x10] ExtData[1]->WorkLocal[8] <<= 1*
 16: 0x005D [0x24] CREATE_DIALOG(message_id=7605*, default_option=0*, option_flags=ExtData[1]->WorkLocal[8])
    → "Which battlefield will you enter? [None./Dawn./Apocalypse Nigh./Both Paths Taken./$26Dawn./The Winds of Time./Sealed Fate.]"
 17: 0x0064 [0x25] WAIT_DIALOG_SELECT()
 18: 0x0065 [0x02] IF !(Work_Zone[0] == 0*) GOTO 0x0073
 19: 0x006D [0x01] GOTO 0x0861

SUBROUTINE_009F:
 20: 0x009F [0x3E] IF !(ExtData[1]->WorkLocal[16] bit ExtData[1]->WorkLocal[3]) GOTO 0x00A9
 21: 0x00A6 [0x01] GOTO 0x00B0
 22: 0x00A9 [0x3C] SET_BIT_FLAG_CONDITIONAL(target_work_offset=ExtData[1]->WorkLocal[8], bit_index_work_offset=1*, condition_work_offset=1*)

SUBROUTINE_00B0:
 23: 0x00B0 [0x1A] CALL_SUBROUTINE(address=0x1E5D)
 24: 0x00B3 [0x24] CREATE_DIALOG(message_id=7433*, default_option=5*, option_flags=ExtData[1]->WorkLocal[8])
    → "Select difficulty. [Very difficult. (Level: ???)/Difficult. (Level: ???)/Normal. (Level: $18)/Easy. (Level: $17)/Very Easy. (Level: $16)/Leave.]"
 25: 0x00BA [0x25] WAIT_DIALOG_SELECT()
 26: 0x00BB [0x02] IF !(Work_Zone[0] == 0*) GOTO 0x00CB
 27: 0x00C3 [0x03] ExtData[1]->WorkLocal[15] = 1*
 28: 0x00C8 [0x01] GOTO 0x011E
 29: 0x00CB [0x02] IF !(Work_Zone[0] == 1*) GOTO 0x00DB
 30: 0x00D3 [0x03] ExtData[1]->WorkLocal[15] = 2*
 31: 0x00D8 [0x01] GOTO 0x011E
 32: 0x00DB [0x02] IF !(Work_Zone[0] == 2*) GOTO 0x00EB
 33: 0x00E3 [0x03] ExtData[1]->WorkLocal[15] = 3*
 34: 0x00E8 [0x01] GOTO 0x011E
 35: 0x00EB [0x02] IF !(Work_Zone[0] == 3*) GOTO 0x00FB
 36: 0x00F3 [0x03] ExtData[1]->WorkLocal[15] = 4*
 37: 0x00F8 [0x01] GOTO 0x011E
 38: 0x00FB [0x02] IF !(Work_Zone[0] == 4*) GOTO 0x010B
 39: 0x0103 [0x03] ExtData[1]->WorkLocal[15] = 5*
 40: 0x0108 [0x01] GOTO 0x011E
 41: 0x010B [0x02] IF !(Work_Zone[0] == 5*) GOTO 0x0119
 42: 0x0113 [0x01] GOTO 0x0861

SUBROUTINE_011E:
 43: 0x011E [0x01] GOTO 0x0145
 44: 0x0121 [0x06] ExtData[1]->WorkLocal[15] = 0
 45: 0x0124 [0x1A] CALL_SUBROUTINE(address=0x087B)
 46: 0x0127 [0x02] IF !(ExtData[1]->WorkLocal[22] == 1*) GOTO 0x0145
 47: 0x012F [0x24] CREATE_DIALOG(message_id=7068*, default_option=1*, option_flags=0*)
    → "Enter the battlefield? [Enter./Decline.]"
 48: 0x0136 [0x25] WAIT_DIALOG_SELECT()
 49: 0x0137 [0x02] IF !(Work_Zone[0] == 1*) GOTO 0x0145
 50: 0x013F [0x01] GOTO 0x0861

SUBROUTINE_0145:
 51: 0x0145 [0x42] SET_CLI_EVENT_CANCEL_DATA()
 52: 0x0146 [0x03] Work_Zone[1] = 255*
 53: 0x014B [0x43] SEND_EVENT_UPDATE: Send pending tag to server (packet 0x005B)
 54: 0x014D [0x43] SEND_EVENT_UPDATE: Check pending flag (skip if not pending)
 55: 0x014F [0x06] Work_Zone[1] = 0
 56: 0x0152 [0x45] LOAD_SCHEDULED_TASK: Load scheduler "fdo1" with entities [LocalPlayer, LocalPlayer], work=[200*, 0*]
 57: 0x0163 [0x55] WAIT_LOAD_SCHEDULER: Wait for scheduler "fdo1" with entities [LocalPlayer, LocalPlayer], work=200*
 58: 0x0172 [0x3B] GET_ENTITY_POSITION(entity=LocalPlayer, x_destination=Work_Zone[32], y_destination=Work_Zone[33], z_destination=Work_Zone[34])
 59: 0x017D [0x38] SET_CLIENT_EVENT_MODE(mode=19*)
 60: 0x0180 [0x02] IF !(ExtData[1]->WorkLocal[7] == 1*) GOTO 0x019F
 61: 0x0188 [0x03] ExtData[1]->WorkLocal[0] = 1*
 62: 0x018D [0x03] ExtData[1]->WorkLocal[4] = ExtData[1]->WorkLocal[3]
 63: 0x0192 [0x03] ExtData[1]->WorkLocal[2] = 0*
 64: 0x0197 [0x03] ExtData[1]->WorkLocal[28] = 0*
 65: 0x019C [0x01] GOTO 0x055F

SUBROUTINE_019F:
 66: 0x019F [0x03] ExtData[1]->WorkLocal[0] = 1*

SUBROUTINE_01A4:
 67: 0x01A4 [0x02] IF !(ExtData[1]->WorkLocal[0] > 3*) GOTO 0x082A
 68: 0x01AC [0x02] IF !(0* == 1*) GOTO 0x01B9
 69: 0x01B4 [0x03] ExtData[1]->WorkLocal[0] = ExtData[1]->WorkLocal[5]
 70: 0x01B9 [0x40] SET_BIT_WORK_RANGE(start_bit=0*, end_bit=3*, target=Work_Zone[1], source=ExtData[1]->WorkLocal[0])
 71: 0x01C2 [0x40] SET_BIT_WORK_RANGE(start_bit=4*, end_bit=8*, target=Work_Zone[1], source=ExtData[1]->WorkLocal[3])
 72: 0x01CB [0x40] SET_BIT_WORK_RANGE(start_bit=9*, end_bit=11*, target=Work_Zone[1], source=ExtData[1]->WorkLocal[15])
 73: 0x01D4 [0x06] Work_Zone[2] = 0
 74: 0x01D7 [0x06] Work_Zone[3] = 0
 75: 0x01DA [0x06] Work_Zone[4] = 0
 76: 0x01DD [0x1A] CALL_SUBROUTINE(address=0x211E)
 77: 0x01E0 [0x47] UPDATE_PLAYER_POS(ExtData[1]->WorkLocal[9], ExtData[1]->WorkLocal[10], ExtData[1]->WorkLocal[11], yaw=ExtData[1]->WorkLocal[12])
 78: 0x01EA [0x47] WAIT_PLAYER_POS_UPDATE
 79: 0x01EC [0x03] ExtData[1]->WorkLocal[4] = Work_Zone[3]
 80: 0x01F1 [0x03] ExtData[1]->WorkLocal[2] = Work_Zone[4]
 81: 0x01F6 [0x03] ExtData[1]->WorkLocal[26] = Work_Zone[5]
 82: 0x01FB [0x03] ExtData[1]->WorkLocal[13] = Work_Zone[6]
 83: 0x0200 [0x03] ExtData[1]->WorkLocal[14] = Work_Zone[7]
 84: 0x0205 [0x03] ExtData[1]->WorkLocal[28] = Work_Zone[9]
 85: 0x020A [0x02] IF !(Work_Zone[2] == 1*) GOTO 0x0215
 86: 0x0212 [0x01] GOTO 0x0817
 87: 0x0215 [0x02] IF !(Work_Zone[2] == 4*) GOTO 0x025F
 88: 0x021D [0x02] IF !(ExtData[1]->WorkLocal[0] == 1*) GOTO 0x022C
 89: 0x0225 [0x48] [System] [7079*]:
    → "You are cleared to enter the battlefield, but you cannot while party members are engaged in combat."
 90: 0x0228 [0x23] WAIT_FOR_DIALOG_INTERACTION
 91: 0x0229 [0x01] GOTO 0x0259
 92: 0x022C [0x02] IF !(ExtData[1]->WorkLocal[0] == 2*) GOTO 0x023B
 93: 0x0234 [0x48] [System] [7080*]:
    → "You are cleared to enter the battlefield, but you cannot while party members are engaged in combat."
 94: 0x0237 [0x23] WAIT_FOR_DIALOG_INTERACTION
 95: 0x0238 [0x01] GOTO 0x0259
 96: 0x023B [0x02] IF !(ExtData[1]->WorkLocal[0] == 3*) GOTO 0x024A
 97: 0x0243 [0x48] [System] [7081*]:
    → "You are cleared to enter the battlefield, but you cannot while party members are engaged in combat."
 98: 0x0246 [0x23] WAIT_FOR_DIALOG_INTERACTION
 99: 0x0247 [0x01] GOTO 0x0259
100: 0x024A [0x02] IF !(ExtData[1]->WorkLocal[0] == 4*) GOTO 0x0259
101: 0x0252 [0x48] [System] [7082*]:
    → "You are cleared to enter the battlefield, but you cannot while party members are engaged in combat."
102: 0x0255 [0x23] WAIT_FOR_DIALOG_INTERACTION
103: 0x0256 [0x01] GOTO 0x0259

SUBROUTINE_0259:
104: 0x0259 [0x01] GOTO 0x082E

SUBROUTINE_0469:
105: 0x0469 [0x48] [System] [7427*]:
    → "Only $3 [member/members] have clearance to enter the battlefield. This room has reached its maximum capacity."
106: 0x046C [0x23] WAIT_FOR_DIALOG_INTERACTION
107: 0x046D [0x01] GOTO 0x082E

SUBROUTINE_04C6:
108: 0x04C6 [0x01] GOTO 0x0515
109: 0x04C9 [0x03] Work_Zone[5] = ExtData[1]->WorkLocal[26]
110: 0x04CE [0x02] IF !(ExtData[1]->WorkLocal[26] <= 0*) GOTO 0x04F5
111: 0x04D6 [0x02] IF !(ExtData[1]->WorkLocal[26] < 60*) GOTO 0x04F1
112: 0x04DE [0x3F] Work_Zone[4] = Work_Zone[5] % 60*
113: 0x04E5 [0x15] Work_Zone[5] /= 60*
114: 0x04EA [0x48] [System] [7603*]:
    → "The current battlefield clear time record for "[Dawn/Apocalypse Nigh/Both Paths Taken/$26Dawn/The Winds of Time/Sealed Fate]" is $3 minute[/s] $2 second[/s]."
115: 0x04ED [0x23] WAIT_FOR_DIALOG_INTERACTION
116: 0x04EE [0x01] GOTO 0x04F5
117: 0x04F1 [0x48] [System] [7602*]:
    → "The current battlefield clear time record for "[Dawn/Apocalypse Nigh/Both Paths Taken/$26Dawn/The Winds of Time/Sealed Fate]" is $3 second[/s]."
118: 0x04F4 [0x23] WAIT_FOR_DIALOG_INTERACTION

SUBROUTINE_04F5:
119: 0x04F5 [0x02] IF !(ExtData[1]->WorkLocal[13] > 1*) GOTO 0x0504
120: 0x04FD [0x48] [System] [7432*]:
    → "That record is held by %0!"
121: 0x0500 [0x23] WAIT_FOR_DIALOG_INTERACTION
122: 0x0501 [0x01] GOTO 0x0515
123: 0x0504 [0x03] Work_Zone[6] = ExtData[1]->WorkLocal[13]
124: 0x0509 [0x0C] Work_Zone[6]--
125: 0x050C [0x03] Work_Zone[7] = ExtData[1]->WorkLocal[13]
126: 0x0511 [0x48] [System] [7431*]:
    → "That record is held by $5 adventurers, including %0!"
127: 0x0514 [0x23] WAIT_FOR_DIALOG_INTERACTION

SUBROUTINE_0515:
128: 0x0515 [0x03] ExtData[1]->WorkLocal[3] = ExtData[1]->WorkLocal[4]
129: 0x051A [0x03] ExtData[1]->WorkLocal[20] = 100*
130: 0x051F [0x07] ExtData[1]->WorkLocal[20] += ExtData[1]->WorkLocal[3]
131: 0x0524 [0x02] IF !(ExtData[1]->WorkLocal[2] == ExtData[1]->WorkLocal[20]) GOTO 0x0534
132: 0x052C [0x03] ExtData[1]->WorkLocal[2] = 1*
133: 0x0531 [0x01] GOTO 0x0539
134: 0x0534 [0x03] ExtData[1]->WorkLocal[2] = 0*

SUBROUTINE_0539:
135: 0x0539 [0x02] IF !(ExtData[1]->WorkLocal[2] == 0*) GOTO 0x055F
136: 0x0541 [0x02] IF !(ExtData[1]->WorkLocal[14] == 1*) GOTO 0x055F
137: 0x0549 [0x24] CREATE_DIALOG(message_id=7407*, default_option=1*, option_flags=0*)
    → "Skip the event? [Yes./No.]"
138: 0x0550 [0x25] WAIT_DIALOG_SELECT()
139: 0x0551 [0x02] IF !(Work_Zone[0] == 0*) GOTO 0x055F
140: 0x0559 [0x05] ExtData[1]->WorkLocal[2] = 1
141: 0x055C [0x01] GOTO 0x055F

SUBROUTINE_055F:
142: 0x055F [0x06] ExtData[1]->WorkLocal[21] = 0
143: 0x0562 [0x02] IF !(ExtData[1]->WorkLocal[4] == 0*) GOTO 0x0572
144: 0x056A [0x03] ExtData[1]->WorkLocal[21] = 1*
145: 0x056F [0x01] GOTO 0x0757
146: 0x0572 [0x02] IF !(ExtData[1]->WorkLocal[4] == 1*) GOTO 0x0582
147: 0x057A [0x03] ExtData[1]->WorkLocal[21] = 1*
148: 0x057F [0x01] GOTO 0x0757
149: 0x0582 [0x02] IF !(ExtData[1]->WorkLocal[4] == 2*) GOTO 0x0592
150: 0x058A [0x03] ExtData[1]->WorkLocal[21] = 0*
151: 0x058F [0x01] GOTO 0x0757
152: 0x0592 [0x02] IF !(ExtData[1]->WorkLocal[4] == 3*) GOTO 0x05A2
153: 0x059A [0x03] ExtData[1]->WorkLocal[21] = 0*
154: 0x059F [0x01] GOTO 0x0757
155: 0x05A2 [0x02] IF !(ExtData[1]->WorkLocal[4] == 4*) GOTO 0x05B2
156: 0x05AA [0x03] ExtData[1]->WorkLocal[21] = 0*
157: 0x05AF [0x01] GOTO 0x0757
158: 0x05B2 [0x02] IF !(ExtData[1]->WorkLocal[4] == 5*) GOTO 0x05C2
159: 0x05BA [0x03] ExtData[1]->WorkLocal[21] = 0*
160: 0x05BF [0x01] GOTO 0x0757
161: 0x05C2 [0x02] IF !(ExtData[1]->WorkLocal[4] == 6*) GOTO 0x05D2
162: 0x05CA [0x03] ExtData[1]->WorkLocal[21] = 0*
163: 0x05CF [0x01] GOTO 0x0757
164: 0x05D2 [0x02] IF !(ExtData[1]->WorkLocal[4] == 7*) GOTO 0x05E2
165: 0x05DA [0x03] ExtData[1]->WorkLocal[21] = 0*
166: 0x05DF [0x01] GOTO 0x0757
167: 0x05E2 [0x02] IF !(ExtData[1]->WorkLocal[4] == 8*) GOTO 0x05F2
168: 0x05EA [0x03] ExtData[1]->WorkLocal[21] = 0*
169: 0x05EF [0x01] GOTO 0x0757
170: 0x05F2 [0x02] IF !(ExtData[1]->WorkLocal[4] == 9*) GOTO 0x0602
171: 0x05FA [0x03] ExtData[1]->WorkLocal[21] = 0*
172: 0x05FF [0x01] GOTO 0x0757
173: 0x0602 [0x02] IF !(ExtData[1]->WorkLocal[4] == 10*) GOTO 0x0612
174: 0x060A [0x03] ExtData[1]->WorkLocal[21] = 0*
175: 0x060F [0x01] GOTO 0x0757
176: 0x0612 [0x02] IF !(ExtData[1]->WorkLocal[4] == 11*) GOTO 0x0622
177: 0x061A [0x03] ExtData[1]->WorkLocal[21] = 0*
178: 0x061F [0x01] GOTO 0x0757
179: 0x0622 [0x02] IF !(ExtData[1]->WorkLocal[4] == 12*) GOTO 0x0632
180: 0x062A [0x03] ExtData[1]->WorkLocal[21] = 0*
181: 0x062F [0x01] GOTO 0x0757
182: 0x0632 [0x02] IF !(ExtData[1]->WorkLocal[4] == 13*) GOTO 0x0642
183: 0x063A [0x03] ExtData[1]->WorkLocal[21] = 0*
184: 0x063F [0x01] GOTO 0x0757
185: 0x0642 [0x02] IF !(ExtData[1]->WorkLocal[4] == 14*) GOTO 0x0652
186: 0x064A [0x03] ExtData[1]->WorkLocal[21] = 0*
187: 0x064F [0x01] GOTO 0x0757
188: 0x0652 [0x02] IF !(ExtData[1]->WorkLocal[4] == 15*) GOTO 0x0662
189: 0x065A [0x03] ExtData[1]->WorkLocal[21] = 0*
190: 0x065F [0x01] GOTO 0x0757
191: 0x0662 [0x02] IF !(ExtData[1]->WorkLocal[4] == 16*) GOTO 0x0672
192: 0x066A [0x03] ExtData[1]->WorkLocal[21] = 0*
193: 0x066F [0x01] GOTO 0x0757
194: 0x0672 [0x02] IF !(ExtData[1]->WorkLocal[4] == 17*) GOTO 0x0682
195: 0x067A [0x03] ExtData[1]->WorkLocal[21] = 0*
196: 0x067F [0x01] GOTO 0x0757
197: 0x0682 [0x02] IF !(ExtData[1]->WorkLocal[4] == 18*) GOTO 0x0692
198: 0x068A [0x03] ExtData[1]->WorkLocal[21] = 0*
199: 0x068F [0x01] GOTO 0x0757
200: 0x0692 [0x02] IF !(ExtData[1]->WorkLocal[4] == 19*) GOTO 0x06A2
201: 0x069A [0x03] ExtData[1]->WorkLocal[21] = 0*
202: 0x069F [0x01] GOTO 0x0757
203: 0x06A2 [0x02] IF !(ExtData[1]->WorkLocal[4] == 20*) GOTO 0x06B2
204: 0x06AA [0x03] ExtData[1]->WorkLocal[21] = 0*
205: 0x06AF [0x01] GOTO 0x0757
206: 0x06B2 [0x02] IF !(ExtData[1]->WorkLocal[4] == 21*) GOTO 0x06C2
207: 0x06BA [0x03] ExtData[1]->WorkLocal[21] = 0*
208: 0x06BF [0x01] GOTO 0x0757
209: 0x06C2 [0x02] IF !(ExtData[1]->WorkLocal[4] == 22*) GOTO 0x06D2
210: 0x06CA [0x03] ExtData[1]->WorkLocal[21] = 0*
211: 0x06CF [0x01] GOTO 0x0757
212: 0x06D2 [0x02] IF !(ExtData[1]->WorkLocal[4] == 23*) GOTO 0x06E2
213: 0x06DA [0x03] ExtData[1]->WorkLocal[21] = 0*
214: 0x06DF [0x01] GOTO 0x0757
215: 0x06E2 [0x02] IF !(ExtData[1]->WorkLocal[4] == 24*) GOTO 0x06F2
216: 0x06EA [0x03] ExtData[1]->WorkLocal[21] = 0*
217: 0x06EF [0x01] GOTO 0x0757
218: 0x06F2 [0x02] IF !(ExtData[1]->WorkLocal[4] == 25*) GOTO 0x0702
219: 0x06FA [0x03] ExtData[1]->WorkLocal[21] = 0*
220: 0x06FF [0x01] GOTO 0x0757
221: 0x0702 [0x02] IF !(ExtData[1]->WorkLocal[4] == 26*) GOTO 0x0712
222: 0x070A [0x03] ExtData[1]->WorkLocal[21] = 0*
223: 0x070F [0x01] GOTO 0x0757
224: 0x0712 [0x02] IF !(ExtData[1]->WorkLocal[4] == 27*) GOTO 0x0722
225: 0x071A [0x03] ExtData[1]->WorkLocal[21] = 0*
226: 0x071F [0x01] GOTO 0x0757
227: 0x0722 [0x02] IF !(ExtData[1]->WorkLocal[4] == 28*) GOTO 0x0732
228: 0x072A [0x03] ExtData[1]->WorkLocal[21] = 0*
229: 0x072F [0x01] GOTO 0x0757
230: 0x0732 [0x02] IF !(ExtData[1]->WorkLocal[4] == 29*) GOTO 0x0742
231: 0x073A [0x03] ExtData[1]->WorkLocal[21] = 0*
232: 0x073F [0x01] GOTO 0x0757
233: 0x0742 [0x02] IF !(ExtData[1]->WorkLocal[4] == 30*) GOTO 0x0752
234: 0x074A [0x03] ExtData[1]->WorkLocal[21] = 0*
235: 0x074F [0x01] GOTO 0x0757
236: 0x0752 [0x03] ExtData[1]->WorkLocal[21] = 0*

SUBROUTINE_0757:
237: 0x0757 [0x02] IF !(ExtData[1]->WorkLocal[2] == 1*) GOTO 0x07A8
238: 0x075F [0x5C] MUSIC_CONTROL: Set Idle (Day) music to song 224*
239: 0x0763 [0x5C] MUSIC_CONTROL: Set Idle (Night) music to song 224*
240: 0x0767 [0x5C] MUSIC_CONTROL: Set Combat (Solo) music to song 224*
241: 0x076B [0x5C] MUSIC_CONTROL: Set Combat (Party) music to song 224*
242: 0x076F [0x02] IF !(ExtData[1]->WorkLocal[4] == 1*) GOTO 0x078A
243: 0x0777 [0x5C] MUSIC_CONTROL: Set Idle (Day) music to song 137*
244: 0x077B [0x5C] MUSIC_CONTROL: Set Idle (Night) music to song 137*
245: 0x077F [0x5C] MUSIC_CONTROL: Set Combat (Solo) music to song 137*
246: 0x0783 [0x5C] MUSIC_CONTROL: Set Combat (Party) music to song 137*
247: 0x0787 [0x01] GOTO 0x07A5
248: 0x078A [0x02] IF !(ExtData[1]->WorkLocal[4] == 2*) GOTO 0x07A5
249: 0x0792 [0x5C] MUSIC_CONTROL: Set Idle (Day) music to song 193*
250: 0x0796 [0x5C] MUSIC_CONTROL: Set Idle (Night) music to song 193*
251: 0x079A [0x5C] MUSIC_CONTROL: Set Combat (Solo) music to song 193*
252: 0x079E [0x5C] MUSIC_CONTROL: Set Combat (Party) music to song 193*
253: 0x07A2 [0x01] GOTO 0x07A5

SUBROUTINE_07A5:
254: 0x07A5 [0x01] GOTO 0x07C0
255: 0x07A8 [0x02] IF !(ExtData[1]->WorkLocal[21] == 0*) GOTO 0x07C0
256: 0x07B0 [0x5C] MUSIC_CONTROL: Set Idle (Day) music to song 224*
257: 0x07B4 [0x5C] MUSIC_CONTROL: Set Idle (Night) music to song 224*
258: 0x07B8 [0x5C] MUSIC_CONTROL: Set Combat (Solo) music to song 224*
259: 0x07BC [0x5C] MUSIC_CONTROL: Set Combat (Party) music to song 224*

SUBROUTINE_07C0:
260: 0x07C0 [0x02] IF !(ExtData[1]->WorkLocal[2] == 0*) GOTO 0x07CE
261: 0x07C8 [0x1A] CALL_SUBROUTINE(address=0x1267)
262: 0x07CB [0x01] GOTO 0x0807
263: 0x07CE [0x6C] FADE_ENTITY_COLOR(entity_id=LocalPlayer, end_alpha=0*, fade_time=1*)
264: 0x07D7 [0x62] LOAD_EVENT_SCHEDULER: Load scheduler "main" with entities [LocalPlayer, LocalPlayer], work=[2*, 0*]
265: 0x07E8 [0x45] LOAD_SCHEDULED_TASK: Load scheduler "ovl1" with entities [LocalPlayer, LocalPlayer], work=[200*, 0*]
266: 0x07F9 [0x46] CAMERA_CONTROL: Query status
267: 0x07FB [0x12] 0x0200 = rand()
268: 0x07FE [0x12] ExtData[1]->WorkLocal[0] = rand()
269: 0x0801 [0x80] LOAD_WAIT(entity=Unknown NPC (ID: 1174931200/0x46080700))
270: 0x0806 [0x00] END_REQSTACK()

SUBROUTINE_0807:
271: 0x0807 [0x03] Work_Zone[1] = 100*
272: 0x080C [0x07] Work_Zone[1] += ExtData[1]->WorkLocal[3]
273: 0x0811 [0x01] GOTO 0x082E

SUBROUTINE_0817:
274: 0x0817 [0x0B] ExtData[1]->WorkLocal[0]++
275: 0x081A [0x02] IF !(0* == 1*) GOTO 0x0827
276: 0x0822 [0x03] ExtData[1]->WorkLocal[0] = 4*
277: 0x0827 [0x01] GOTO 0x01A4
278: 0x082A [0x48] [System] [7071*]:
    → "You cannot enter the battlefield at present. Please wait a little longer."
279: 0x082D [0x23] WAIT_FOR_DIALOG_INTERACTION

SUBROUTINE_082E:
280: 0x082E [0x45] LOAD_SCHEDULED_TASK: Load scheduler "whi1" with entities [LocalPlayer, LocalPlayer], work=[201*, 0*]
281: 0x083F [0x45] LOAD_SCHEDULED_TASK: Load scheduler "blof" with entities [LocalPlayer, LocalPlayer], work=[200*, 0*]
282: 0x0850 [0x45] LOAD_SCHEDULED_TASK: Load scheduler "fdi0" with entities [LocalPlayer, LocalPlayer], work=[200*, 0*]

SUBROUTINE_0861:
283: 0x0861 [0x02] IF !(ExtData[1]->WorkLocal[7] == 1*) GOTO 0x0879
284: 0x0869 [0x5C] MUSIC_CONTROL: Set Idle (Day) music to song 0*
285: 0x086D [0x5C] MUSIC_CONTROL: Set Idle (Night) music to song 0*
286: 0x0871 [0x5C] MUSIC_CONTROL: Set Combat (Solo) music to song 224*
287: 0x0875 [0x5C] MUSIC_CONTROL: Set Combat (Party) music to song 224*
288: 0x0879 [0x21] END_EVENT
289: 0x087A [0x00] END_REQSTACK()

SUBROUTINE_087B:
290: 0x087B [0x1B] RETURN
```

#### Data or dead code:

```
# Dead code (unreachable instructions):
     0x0070 [0x01] GOTO 0x0145
# Dead code (unreachable instructions):
     0x0116 [0x01] GOTO 0x011E
# Dead code (unreachable instructions):
     0x0142 [0x01] GOTO 0x0145
# Dead code (unreachable instructions):
     0x025C [0x01] GOTO 0x0817
     0x026E [0x01] GOTO 0x0817
# Dead code (unreachable instructions):
     0x0470 [0x01] GOTO 0x0817
     0x047E [0x01] GOTO 0x0817
# Dead code (unreachable instructions):
     0x0814 [0x01] GOTO 0x0817
```

### Event 32002

#### Metadata

| Field        | Value     |
|--------------|-----------|
| Entrypoint   | 0x087C    |
| Data Size    | 494 bytes |
| Instructions | 83        |

```
      00 01 02 03 04 05 06 07  08 09 0A 0B 0C 0D 0E 0F
      -- -- -- -- -- -- -- --  -- -- -- -- -- -- -- --
0870:                                      03 05 00 06              ....
0880: 10 03 21 00 07 10 03 20  00 08 10 20 01 42 3B F0  ..!.... ... .B;.
0890: FF FF 7F 20 10 21 10 22  10 3A F0 FF FF 7F 23 10  ... .!.".:....#.
08A0: 45 0E 80 F0 FF FF 7F F0  FF FF 7F 66 64 6F 31 00  E..........fdo1.
08B0: 80 55 0E 80 F0 FF FF 7F  F0 FF FF 7F 66 64 6F 31  .U..........fdo1
08C0: 02 00 80 05 80 00 27 09  02 05 00 05 80 80 DF 08  ......'.........
08D0: 47 00 00 80 00 80 00 80  00 80 47 01 01 24 09 02  G.........G..$..
08E0: 05 00 09 80 80 F6 08 47  00 00 80 00 80 00 80 00  .......G........
08F0: 80 47 01 01 24 09 02 05  00 0A 80 80 0D 09 47 00  .G..$.........G.
0900: 00 80 00 80 00 80 00 80  47 01 01 24 09 02 05 00  ........G..$....
0910: 0B 80 80 24 09 47 00 00  80 00 80 00 80 00 80 47  ...$.G.........G
0920: 01 01 24 09 01 30 0A 02  20 00 38 80 80 B1 09 02  ..$..0.. .8.....
0930: 21 00 00 80 80 46 09 47  00 39 80 3A 80 3B 80 3C  !....F.G.9.:.;.<
0940: 80 47 01 01 AE 09 02 21  00 05 80 80 5D 09 47 00  .G.....!....].G.
0950: 3D 80 3E 80 3F 80 40 80  47 01 01 AE 09 02 21 00  =.>.?.@.G.....!.
0960: 09 80 80 74 09 47 00 41  80 42 80 43 80 44 80 47  ...t.G.A.B.C.D.G
0970: 01 01 AE 09 02 21 00 0A  80 80 8B 09 47 00 45 80  .....!......G.E.
0980: 46 80 47 80 48 80 47 01  01 AE 09 02 21 00 0B 80  F.G.H.G.....!...
0990: 80 A2 09 47 00 49 80 4A  80 4B 80 4C 80 47 01 01  ...G.I.J.K.L.G..
09A0: AE 09 47 00 4D 80 4E 80  00 80 4F 80 47 01 01 30  ..G.M.N...O.G..0
09B0: 0A 02 20 00 18 80 80 24  0A 02 21 00 05 80 80 D0  .. ....$..!.....
09C0: 09 47 00 50 80 51 80 52  80 53 80 47 01 01 21 0A  .G.P.Q.R.S.G..!.
09D0: 02 21 00 09 80 80 E7 09  47 00 54 80 55 80 56 80  .!......G.T.U.V.
09E0: 57 80 47 01 01 21 0A 02  21 00 0A 80 80 FE 09 47  W.G..!..!......G
09F0: 00 58 80 59 80 5A 80 5B  80 47 01 01 21 0A 02 21  .X.Y.Z.[.G..!..!
0A00: 00 0B 80 80 15 0A 47 00  5C 80 5D 80 5E 80 5F 80  ......G.\.].^._.
0A10: 47 01 01 21 0A 47 00 4D  80 4E 80 00 80 4F 80 47  G..!.G.M.N...O.G
0A20: 01 01 30 0A 47 00 4D 80  4E 80 00 80 4F 80 47 01  ..0.G.M.N...O.G.
0A30: 38 0F 80 1A 49 1E 45 37  80 F0 FF FF 7F F0 FF FF  8...I.E7........
0A40: 7F 77 68 69 31 00 80 45  0E 80 F0 FF FF 7F F0 FF  .whi1..E........
0A50: FF 7F 62 6C 6F 66 00 80  5C 00 00 80 5C 01 00 80  ..blof..\...\...
0A60: 5C 02 33 80 5C 03 33 80  21 00                    \.3.\.3.!.      
```

#### Opcodes

```
  0: 0x087C [0x03] ExtData[1]->WorkLocal[5] = Work_Zone[6]
  1: 0x0881 [0x03] ExtData[1]->WorkLocal[33] = Work_Zone[7]
  2: 0x0886 [0x03] ExtData[1]->WorkLocal[32] = Work_Zone[8]
  3: 0x088B [0x20] SET_CLI_EVENT_UC_FLAG: Lock player control
  4: 0x088D [0x42] SET_CLI_EVENT_CANCEL_DATA()
  5: 0x088E [0x3B] GET_ENTITY_POSITION(entity=LocalPlayer, x_destination=Work_Zone[32], y_destination=Work_Zone[33], z_destination=Work_Zone[34])
  6: 0x0899 [0x3A] CONVERT_YAW_TO_BYTE(entity=LocalPlayer, result_destination=Work_Zone[35])
  7: 0x08A0 [0x45] LOAD_SCHEDULED_TASK: Load scheduler "fdo1" with entities [LocalPlayer, LocalPlayer], work=[200*, 0*]
  8: 0x08B1 [0x55] WAIT_LOAD_SCHEDULER: Wait for scheduler "fdo1" with entities [LocalPlayer, LocalPlayer], work=200*
  9: 0x08C0 [0x02] IF !(0* == 1*) GOTO 0x0927
 10: 0x08C8 [0x02] IF !(ExtData[1]->WorkLocal[5] == 1*) GOTO 0x08DF
 11: 0x08D0 [0x47] UPDATE_PLAYER_POS(0.000*, 0.000*, 0.000*, yaw=0.0°*)
 12: 0x08DA [0x47] WAIT_PLAYER_POS_UPDATE
 13: 0x08DC [0x01] GOTO 0x0924
 14: 0x08DF [0x02] IF !(ExtData[1]->WorkLocal[5] == 2*) GOTO 0x08F6
 15: 0x08E7 [0x47] UPDATE_PLAYER_POS(0.000*, 0.000*, 0.000*, yaw=0.0°*)
 16: 0x08F1 [0x47] WAIT_PLAYER_POS_UPDATE
 17: 0x08F3 [0x01] GOTO 0x0924
 18: 0x08F6 [0x02] IF !(ExtData[1]->WorkLocal[5] == 3*) GOTO 0x090D
 19: 0x08FE [0x47] UPDATE_PLAYER_POS(0.000*, 0.000*, 0.000*, yaw=0.0°*)
 20: 0x0908 [0x47] WAIT_PLAYER_POS_UPDATE
 21: 0x090A [0x01] GOTO 0x0924
 22: 0x090D [0x02] IF !(ExtData[1]->WorkLocal[5] == 4*) GOTO 0x0924
 23: 0x0915 [0x47] UPDATE_PLAYER_POS(0.000*, 0.000*, 0.000*, yaw=0.0°*)
 24: 0x091F [0x47] WAIT_PLAYER_POS_UPDATE
 25: 0x0921 [0x01] GOTO 0x0924

SUBROUTINE_0924:
 26: 0x0924 [0x01] GOTO 0x0A30
 27: 0x0927 [0x02] IF !(ExtData[1]->WorkLocal[32] == 180*) GOTO 0x09B1
 28: 0x092F [0x02] IF !(ExtData[1]->WorkLocal[33] == 0*) GOTO 0x0946
 29: 0x0937 [0x47] UPDATE_PLAYER_POS(-605.141*, 479.929*, -22.681*, yaw=87.2°*)
 30: 0x0941 [0x47] WAIT_PLAYER_POS_UPDATE
 31: 0x0943 [0x01] GOTO 0x09AE
 32: 0x0946 [0x02] IF !(ExtData[1]->WorkLocal[33] == 1*) GOTO 0x095D
 33: 0x094E [0x47] UPDATE_PLAYER_POS(-262.589*, 377.857*, -137.313*, yaw=305.3°*)
 34: 0x0958 [0x47] WAIT_PLAYER_POS_UPDATE
 35: 0x095A [0x01] GOTO 0x09AE
 36: 0x095D [0x02] IF !(ExtData[1]->WorkLocal[33] == 2*) GOTO 0x0974
 37: 0x0965 [0x47] UPDATE_PLAYER_POS(18.348*, 486.940*, -224.334*, yaw=17.1°*)
 38: 0x096F [0x47] WAIT_PLAYER_POS_UPDATE
 39: 0x0971 [0x01] GOTO 0x09AE
 40: 0x0974 [0x02] IF !(ExtData[1]->WorkLocal[33] == 3*) GOTO 0x098B
 41: 0x097C [0x47] UPDATE_PLAYER_POS(231.593*, 360.094*, -173.572*, yaw=160.8°*)
 42: 0x0986 [0x47] WAIT_PLAYER_POS_UPDATE
 43: 0x0988 [0x01] GOTO 0x09AE
 44: 0x098B [0x02] IF !(ExtData[1]->WorkLocal[33] == 4*) GOTO 0x09A2
 45: 0x0993 [0x47] UPDATE_PLAYER_POS(553.664*, 523.939*, -38.205*, yaw=233.9°*)
 46: 0x099D [0x47] WAIT_PLAYER_POS_UPDATE
 47: 0x099F [0x01] GOTO 0x09AE
 48: 0x09A2 [0x47] UPDATE_PLAYER_POS(539.989*, -576.522*, 0.000*, yaw=270.0°*)
 49: 0x09AC [0x47] WAIT_PLAYER_POS_UPDATE

SUBROUTINE_09AE:
 50: 0x09AE [0x01] GOTO 0x0A30
 51: 0x09B1 [0x02] IF !(ExtData[1]->WorkLocal[32] == 6*) GOTO 0x0A24
 52: 0x09B9 [0x02] IF !(ExtData[1]->WorkLocal[33] == 1*) GOTO 0x09D0
 53: 0x09C1 [0x47] UPDATE_PLAYER_POS(-875.117*, -43.892*, -48.084*, yaw=45.1°*)
 54: 0x09CB [0x47] WAIT_PLAYER_POS_UPDATE
 55: 0x09CD [0x01] GOTO 0x0A21
 56: 0x09D0 [0x02] IF !(ExtData[1]->WorkLocal[33] == 2*) GOTO 0x09E7
 57: 0x09D8 [0x47] UPDATE_PLAYER_POS(-755.499*, 563.947*, -112.035*, yaw=313.5°*)
 58: 0x09E2 [0x47] WAIT_PLAYER_POS_UPDATE
 59: 0x09E4 [0x01] GOTO 0x0A21
 60: 0x09E7 [0x02] IF !(ExtData[1]->WorkLocal[33] == 3*) GOTO 0x09FE
 61: 0x09EF [0x47] UPDATE_PLAYER_POS(123.251*, 754.209*, -172.124*, yaw=38.7°*)
 62: 0x09F9 [0x47] WAIT_PLAYER_POS_UPDATE
 63: 0x09FB [0x01] GOTO 0x0A21
 64: 0x09FE [0x02] IF !(ExtData[1]->WorkLocal[33] == 4*) GOTO 0x0A15
 65: 0x0A06 [0x47] UPDATE_PLAYER_POS(-516.404*, -803.323*, 24.206*, yaw=38.4°*)
 66: 0x0A10 [0x47] WAIT_PLAYER_POS_UPDATE
 67: 0x0A12 [0x01] GOTO 0x0A21
 68: 0x0A15 [0x47] UPDATE_PLAYER_POS(539.989*, -576.522*, 0.000*, yaw=270.0°*)
 69: 0x0A1F [0x47] WAIT_PLAYER_POS_UPDATE

SUBROUTINE_0A21:
 70: 0x0A21 [0x01] GOTO 0x0A30
 71: 0x0A24 [0x47] UPDATE_PLAYER_POS(539.989*, -576.522*, 0.000*, yaw=270.0°*)
 72: 0x0A2E [0x47] WAIT_PLAYER_POS_UPDATE

SUBROUTINE_0A30:
 73: 0x0A30 [0x38] SET_CLIENT_EVENT_MODE(mode=19*)
 74: 0x0A33 [0x1A] CALL_SUBROUTINE(address=0x1E49)
 75: 0x0A36 [0x45] LOAD_SCHEDULED_TASK: Load scheduler "whi1" with entities [LocalPlayer, LocalPlayer], work=[201*, 0*]
 76: 0x0A47 [0x45] LOAD_SCHEDULED_TASK: Load scheduler "blof" with entities [LocalPlayer, LocalPlayer], work=[200*, 0*]
 77: 0x0A58 [0x5C] MUSIC_CONTROL: Set Idle (Day) music to song 0*
 78: 0x0A5C [0x5C] MUSIC_CONTROL: Set Idle (Night) music to song 0*
 79: 0x0A60 [0x5C] MUSIC_CONTROL: Set Combat (Solo) music to song 224*
 80: 0x0A64 [0x5C] MUSIC_CONTROL: Set Combat (Party) music to song 224*
 81: 0x0A68 [0x21] END_EVENT
 82: 0x0A69 [0x00] END_REQSTACK()
```

### Event 32001

#### Metadata

| Field        | Value      |
|--------------|------------|
| Entrypoint   | 0x0A6A     |
| Data Size    | 1218 bytes |
| Instructions | 217        |

```
      00 01 02 03 04 05 06 07  08 09 0A 0B 0C 0D 0E 0F
      -- -- -- -- -- -- -- --  -- -- -- -- -- -- -- --
0A60:                                79 00 F0 FF FF 7F            y.....
0A70: F0 FF FF 7F 03 21 00 02  10 03 1A 00 03 10 03 1B  .....!..........
0A80: 00 05 10 03 20 00 06 10  03 19 00 07 10 03 17 00  .... ...........
0A90: 08 10 02 17 00 0A 80 04  9F 0A 03 17 00 00 80 02  ................
0AA0: 19 00 09 80 80 AF 0A 03  17 00 09 80 01 DF 0A 02  ................
0AB0: 19 00 0A 80 80 BF 0A 03  17 00 0A 80 01 DF 0A 02  ................
0AC0: 19 00 0B 80 80 CF 0A 03  17 00 09 80 01 DF 0A 02  ................
0AD0: 19 00 08 80 80 DF 0A 03  17 00 09 80 01 DF 0A 03  ................
0AE0: 1C 00 09 10 20 01 42 3B  F0 FF FF 7F 20 10 21 10  .... .B;.... .!.
0AF0: 22 10 3A F0 FF FF 7F 23  10 02 20 00 38 80 01 04  ".:....#.. .8...
0B00: 0B 1C 60 80 45 37 80 F0  FF FF 7F F0 FF FF 7F 77  ..`.E7.........w
0B10: 68 69 31 00 80 45 0E 80  F0 FF FF 7F F0 FF FF 7F  hi1..E..........
0B20: 62 6C 6F 66 00 80 45 0E  80 F0 FF FF 7F F0 FF FF  blof..E.........
0B30: 7F 66 64 6F 31 00 80 55  0E 80 F0 FF FF 7F F0 FF  .fdo1..U........
0B40: FF 7F 66 64 6F 31 6C F0  FF FF 7F 61 80 05 80 06  ..fdo1l....a....
0B50: 01 10 02 17 00 00 80 03  5D 0B 01 AB 0C 02 20 00  ........]..... .
0B60: 38 80 80 E7 0B 02 21 00  00 80 80 7C 0B 47 00 62  8.....!....|.G.b
0B70: 80 63 80 64 80 65 80 47  01 01 E4 0B 02 21 00 05  .c.d.e.G.....!..
0B80: 80 80 93 0B 47 00 66 80  67 80 68 80 69 80 47 01  ....G.f.g.h.i.G.
0B90: 01 E4 0B 02 21 00 09 80  80 AA 0B 47 00 6A 80 6B  ....!......G.j.k
0BA0: 80 6C 80 6D 80 47 01 01  E4 0B 02 21 00 0A 80 80  .l.m.G.....!....
0BB0: C1 0B 47 00 6E 80 6F 80  70 80 71 80 47 01 01 E4  ..G.n.o.p.q.G...
0BC0: 0B 02 21 00 0B 80 80 D8  0B 47 00 72 80 73 80 74  ..!......G.r.s.t
0BD0: 80 75 80 47 01 01 E4 0B  47 00 4D 80 4E 80 00 80  .u.G....G.M.N...
0BE0: 4F 80 47 01 01 AB 0C 02  20 00 76 80 80 15 0C 02  O.G..... .v.....
0BF0: 19 00 00 80 80 06 0C 47  00 4D 80 4E 80 00 80 4F  .......G.M.N...O
0C00: 80 47 01 01 12 0C 47 00  77 80 78 80 79 80 7A 80  .G....G.w.x.y.z.
0C10: 47 01 01 AB 0C 02 20 00  7B 80 80 43 0C 02 19 00  G..... .{..C....
0C20: 0B 80 80 34 0C 47 00 7C  80 7D 80 7E 80 7F 80 47  ...4.G.|.}.~...G
0C30: 01 01 40 0C 47 00 4D 80  4E 80 00 80 4F 80 47 01  ..@.G.M.N...O.G.
0C40: 01 AB 0C 02 20 00 80 80  80 71 0C 02 19 00 0B 80  .... ....q......
0C50: 80 62 0C 47 00 81 80 82  80 83 80 84 80 47 01 01  .b.G.........G..
0C60: 6E 0C 47 00 4D 80 4E 80  00 80 4F 80 47 01 01 AB  n.G.M.N...O.G...
0C70: 0C 02 20 00 85 80 80 9F  0C 02 19 00 0A 80 80 90  .. .............
0C80: 0C 47 00 86 80 87 80 88  80 89 80 47 01 01 9C 0C  .G.........G....
0C90: 47 00 4D 80 4E 80 00 80  4F 80 47 01 01 AB 0C 47  G.M.N...O.G....G
0CA0: 00 4D 80 4E 80 00 80 4F  80 47 01 38 0F 80 02 17  .M.N...O.G.8....
0CB0: 00 09 80 00 B9 0C 01 D4  0C 02 17 00 05 80 00 84  ................
0CC0: 0D 1C 01 80 24 32 80 05  80 00 80 25 02 00 10 00  ....$2.....%....
0CD0: 80 00 84 0D 02 20 00 38  80 00 40 0D 02 21 00 00  ..... .8..@..!..
0CE0: 80 80 EE 0C 36 62 80 63  80 64 80 01 3D 0D 02 21  ....6b.c.d..=..!
0CF0: 00 05 80 80 00 0D 36 66  80 67 80 68 80 01 3D 0D  ......6f.g.h..=.
0D00: 02 21 00 09 80 80 12 0D  36 6A 80 6B 80 6C 80 01  .!......6j.k.l..
0D10: 3D 0D 02 21 00 0A 80 80  24 0D 36 6E 80 6F 80 70  =..!....$.6n.o.p
0D20: 80 01 3D 0D 02 21 00 0B  80 80 36 0D 36 72 80 73  ..=..!....6.6r.s
0D30: 80 74 80 01 3D 0D 36 4D  80 4E 80 00 80 01 49 0D  .t..=.6M.N....I.
0D40: 37 4D 80 4E 80 00 80 4F  80 80 F0 FF FF 7F 62 09  7M.N...O......b.
0D50: 80 F0 FF FF 7F F0 FF FF  7F 6D 61 69 6E 00 80 45  .........main..E
0D60: 0E 80 F0 FF FF 7F F0 FF  FF 7F 66 64 69 32 00 80  ..........fdi2..
0D70: 46 02 12 00 02 12 00 00  80 00 7E 0D 46 00 01 FC  F.........~.F...
0D80: 0D 01 84 0D 02 17 00 04  80 04 EE 0D 5C 00 33 80  ............\.3.
0D90: 5C 01 33 80 5C 02 33 80  5C 03 33 80 02 19 00 00  \.3.\.3.\.3.....
0DA0: 80 80 B7 0D 5C 00 34 80  5C 01 34 80 5C 02 34 80  ....\.4.\.4.\.4.
0DB0: 5C 03 34 80 01 ED 0D 02  19 00 05 80 80 D2 0D 5C  \.4............\
0DC0: 00 00 80 5C 01 00 80 5C  02 00 80 5C 03 00 80 01  ...\...\...\....
0DD0: ED 0D 02 19 00 0A 80 80  ED 0D 5C 00 34 80 5C 01  ..........\.4.\.
0DE0: 34 80 5C 02 34 80 5C 03  34 80 01 ED 0D 9A 1A 90  4.\.4.\.4.......
0DF0: 1D 02 17 00 00 80 03 FC  0D 01 C4 0E 02 20 00 8A  ............. ..
0E00: 80 80 2F 0E 03 01 10 00  10 02 19 00 00 80 80 18  ../.............
0E10: 0E 43 00 43 01 01 2C 0E  02 19 00 05 80 80 2C 0E  .C.C..,.......,.
0E20: 07 01 10 09 80 43 00 43  01 01 2C 0E 01 2F 0E 02  .....C.C..,../..
0E30: 20 00 1E 80 80 3A 0E 01  C4 0E 02 20 00 0F 80 80   ....:..... ....
0E40: 45 0E 01 C4 0E 02 20 00  21 80 80 50 0E 01 C4 0E  E..... .!..P....
0E50: 02 20 00 23 80 80 5B 0E  01 C4 0E 03 05 10 1B 00  . .#..[.........
0E60: 02 05 10 00 80 02 C4 0E  02 05 10 2E 80 04 83 0E  ................
0E70: 3F 04 10 05 10 2E 80 15  05 10 2E 80 48 8B 80 23  ?...........H..#
0E80: 01 87 0E 48 8C 80 23 02  1B 00 1A 00 05 9B 0E 03  ...H..#.........
0E90: 07 10 19 00 48 8D 80 23  01 C4 0E 02 1A 00 2E 80  ....H..#........
0EA0: 04 BB 0E 03 05 10 1A 00  3F 04 10 05 10 2E 80 15  ........?.......
0EB0: 05 10 2E 80 48 8E 80 23  01 C4 0E 03 05 10 1A 00  ....H..#........
0EC0: 48 8F 80 23 02 18 00 00  80 00 DC 0E 5C 00 00 80  H..#........\...
0ED0: 5C 01 00 80 5C 02 33 80  5C 03 33 80 02 17 00 00  \...\.3.\.3.....
0EE0: 80 03 05 0F 45 0E 80 F0  FF FF 7F F0 FF FF 7F 66  ....E..........f
0EF0: 64 69 32 00 80 5C 00 00  80 5C 01 00 80 5C 02 33  di2..\...\...\.3
0F00: 80 5C 03 33 80 06 18 00  45 37 80 F0 FF FF 7F F0  .\.3....E7......
0F10: FF FF 7F 77 68 69 31 00  80 45 0E 80 F0 FF FF 7F  ...whi1..E......
0F20: F0 FF FF 7F 62 6C 6F 66  00 80 21 00              ....blof..!.    
```

#### Opcodes

```
  0: 0x0A6A [0x79] LocalPlayer looks at LocalPlayer (Basic look)
  1: 0x0A74 [0x03] ExtData[1]->WorkLocal[33] = Work_Zone[2]
  2: 0x0A79 [0x03] ExtData[1]->WorkLocal[26] = Work_Zone[3]
  3: 0x0A7E [0x03] ExtData[1]->WorkLocal[27] = Work_Zone[5]
  4: 0x0A83 [0x03] ExtData[1]->WorkLocal[32] = Work_Zone[6]
  5: 0x0A88 [0x03] ExtData[1]->WorkLocal[25] = Work_Zone[7]
  6: 0x0A8D [0x03] ExtData[1]->WorkLocal[23] = Work_Zone[8]
  7: 0x0A92 [0x02] IF !(ExtData[1]->WorkLocal[23] < 3*) GOTO 0x0A9F
  8: 0x0A9A [0x03] ExtData[1]->WorkLocal[23] = 0*
  9: 0x0A9F [0x02] IF !(ExtData[1]->WorkLocal[25] == 2*) GOTO 0x0AAF
 10: 0x0AA7 [0x03] ExtData[1]->WorkLocal[23] = 2*
 11: 0x0AAC [0x01] GOTO 0x0ADF
 12: 0x0AAF [0x02] IF !(ExtData[1]->WorkLocal[25] == 3*) GOTO 0x0ABF
 13: 0x0AB7 [0x03] ExtData[1]->WorkLocal[23] = 3*
 14: 0x0ABC [0x01] GOTO 0x0ADF
 15: 0x0ABF [0x02] IF !(ExtData[1]->WorkLocal[25] == 4*) GOTO 0x0ACF
 16: 0x0AC7 [0x03] ExtData[1]->WorkLocal[23] = 2*
 17: 0x0ACC [0x01] GOTO 0x0ADF
 18: 0x0ACF [0x02] IF !(ExtData[1]->WorkLocal[25] == 5*) GOTO 0x0ADF
 19: 0x0AD7 [0x03] ExtData[1]->WorkLocal[23] = 2*
 20: 0x0ADC [0x01] GOTO 0x0ADF

SUBROUTINE_0ADF:
 21: 0x0ADF [0x03] ExtData[1]->WorkLocal[28] = Work_Zone[9]
 22: 0x0AE4 [0x20] SET_CLI_EVENT_UC_FLAG: Lock player control
 23: 0x0AE6 [0x42] SET_CLI_EVENT_CANCEL_DATA()
 24: 0x0AE7 [0x3B] GET_ENTITY_POSITION(entity=LocalPlayer, x_destination=Work_Zone[32], y_destination=Work_Zone[33], z_destination=Work_Zone[34])
 25: 0x0AF2 [0x3A] CONVERT_YAW_TO_BYTE(entity=LocalPlayer, result_destination=Work_Zone[35])
 26: 0x0AF9 [0x02] IF !(ExtData[1]->WorkLocal[32] == 180*) GOTO 0x0B04
 27: 0x0B01 [0x1C] WAIT(300* ticks)
 28: 0x0B04 [0x45] LOAD_SCHEDULED_TASK: Load scheduler "whi1" with entities [LocalPlayer, LocalPlayer], work=[201*, 0*]
 29: 0x0B15 [0x45] LOAD_SCHEDULED_TASK: Load scheduler "blof" with entities [LocalPlayer, LocalPlayer], work=[200*, 0*]
 30: 0x0B26 [0x45] LOAD_SCHEDULED_TASK: Load scheduler "fdo1" with entities [LocalPlayer, LocalPlayer], work=[200*, 0*]
 31: 0x0B37 [0x55] WAIT_LOAD_SCHEDULER: Wait for scheduler "fdo1" with entities [LocalPlayer, LocalPlayer], work=200*
 32: 0x0B46 [0x6C] FADE_ENTITY_COLOR(entity_id=LocalPlayer, end_alpha=128*, fade_time=1*)
 33: 0x0B4F [0x06] Work_Zone[1] = 0
 34: 0x0B52 [0x02] IF !(ExtData[1]->WorkLocal[23] >= 0*) GOTO 0x0B5D
 35: 0x0B5A [0x01] GOTO 0x0CAB
 36: 0x0B5D [0x02] IF !(ExtData[1]->WorkLocal[32] == 180*) GOTO 0x0BE7
 37: 0x0B65 [0x02] IF !(ExtData[1]->WorkLocal[33] == 0*) GOTO 0x0B7C
 38: 0x0B6D [0x47] UPDATE_PLAYER_POS(-618.329*, -643.868*, -25.805*, yaw=330.5°*)
 39: 0x0B77 [0x47] WAIT_PLAYER_POS_UPDATE
 40: 0x0B79 [0x01] GOTO 0x0BE4
 41: 0x0B7C [0x02] IF !(ExtData[1]->WorkLocal[33] == 1*) GOTO 0x0B93
 42: 0x0B84 [0x47] UPDATE_PLAYER_POS(-332.163*, -441.914*, -95.055*, yaw=330.5°*)
 43: 0x0B8E [0x47] WAIT_PLAYER_POS_UPDATE
 44: 0x0B90 [0x01] GOTO 0x0BE4
 45: 0x0B93 [0x02] IF !(ExtData[1]->WorkLocal[33] == 2*) GOTO 0x0BAA
 46: 0x0B9B [0x47] UPDATE_PLAYER_POS(-12.464*, -648.377*, -194.629*, yaw=331.3°*)
 47: 0x0BA5 [0x47] WAIT_PLAYER_POS_UPDATE
 48: 0x0BA7 [0x01] GOTO 0x0BE4
 49: 0x0BAA [0x02] IF !(ExtData[1]->WorkLocal[33] == 3*) GOTO 0x0BC1
 50: 0x0BB2 [0x47] UPDATE_PLAYER_POS(323.381*, -443.793*, -108.440*, yaw=329.1°*)
 51: 0x0BBC [0x47] WAIT_PLAYER_POS_UPDATE
 52: 0x0BBE [0x01] GOTO 0x0BE4
 53: 0x0BC1 [0x02] IF !(ExtData[1]->WorkLocal[33] == 4*) GOTO 0x0BD8
 54: 0x0BC9 [0x47] UPDATE_PLAYER_POS(599.907*, -676.969*, -22.473*, yaw=330.7°*)
 55: 0x0BD3 [0x47] WAIT_PLAYER_POS_UPDATE
 56: 0x0BD5 [0x01] GOTO 0x0BE4
 57: 0x0BD8 [0x47] UPDATE_PLAYER_POS(539.989*, -576.522*, 0.000*, yaw=270.0°*)
 58: 0x0BE2 [0x47] WAIT_PLAYER_POS_UPDATE

SUBROUTINE_0BE4:
 59: 0x0BE4 [0x01] GOTO 0x0CAB
 60: 0x0BE7 [0x02] IF !(ExtData[1]->WorkLocal[32] == 168*) GOTO 0x0C15
 61: 0x0BEF [0x02] IF !(ExtData[1]->WorkLocal[25] == 0*) GOTO 0x0C06
 62: 0x0BF7 [0x47] UPDATE_PLAYER_POS(539.989*, -576.522*, 0.000*, yaw=270.0°*)
 63: 0x0C01 [0x47] WAIT_PLAYER_POS_UPDATE
 64: 0x0C03 [0x01] GOTO 0x0C12
 65: 0x0C06 [0x47] UPDATE_PLAYER_POS(200.059*, -21.958*, -0.250*, yaw=91.5°*)
 66: 0x0C10 [0x47] WAIT_PLAYER_POS_UPDATE

SUBROUTINE_0C12:
 67: 0x0C12 [0x01] GOTO 0x0CAB
 68: 0x0C15 [0x02] IF !(ExtData[1]->WorkLocal[32] == 202*) GOTO 0x0C43
 69: 0x0C1D [0x02] IF !(ExtData[1]->WorkLocal[25] == 4*) GOTO 0x0C34
 70: 0x0C25 [0x47] UPDATE_PLAYER_POS(538.604*, 501.900*, -13.942*, yaw=286.5°*)
 71: 0x0C2F [0x47] WAIT_PLAYER_POS_UPDATE
 72: 0x0C31 [0x01] GOTO 0x0C40
 73: 0x0C34 [0x47] UPDATE_PLAYER_POS(539.989*, -576.522*, 0.000*, yaw=270.0°*)
 74: 0x0C3E [0x47] WAIT_PLAYER_POS_UPDATE

SUBROUTINE_0C40:
 75: 0x0C40 [0x01] GOTO 0x0CAB
 76: 0x0C43 [0x02] IF !(ExtData[1]->WorkLocal[32] == 203*) GOTO 0x0C71
 77: 0x0C4B [0x02] IF !(ExtData[1]->WorkLocal[25] == 4*) GOTO 0x0C62
 78: 0x0C53 [0x47] UPDATE_PLAYER_POS(553.205*, 589.633*, -0.021*, yaw=124.4°*)
 79: 0x0C5D [0x47] WAIT_PLAYER_POS_UPDATE
 80: 0x0C5F [0x01] GOTO 0x0C6E
 81: 0x0C62 [0x47] UPDATE_PLAYER_POS(539.989*, -576.522*, 0.000*, yaw=270.0°*)
 82: 0x0C6C [0x47] WAIT_PLAYER_POS_UPDATE

SUBROUTINE_0C6E:
 83: 0x0C6E [0x01] GOTO 0x0CAB
 84: 0x0C71 [0x02] IF !(ExtData[1]->WorkLocal[32] == 211*) GOTO 0x0C9F
 85: 0x0C79 [0x02] IF !(ExtData[1]->WorkLocal[25] == 3*) GOTO 0x0C90
 86: 0x0C81 [0x47] UPDATE_PLAYER_POS(569.224*, 548.462*, 36.837*, yaw=59.1°*)
 87: 0x0C8B [0x47] WAIT_PLAYER_POS_UPDATE
 88: 0x0C8D [0x01] GOTO 0x0C9C
 89: 0x0C90 [0x47] UPDATE_PLAYER_POS(539.989*, -576.522*, 0.000*, yaw=270.0°*)
 90: 0x0C9A [0x47] WAIT_PLAYER_POS_UPDATE

SUBROUTINE_0C9C:
 91: 0x0C9C [0x01] GOTO 0x0CAB
 92: 0x0C9F [0x47] UPDATE_PLAYER_POS(539.989*, -576.522*, 0.000*, yaw=270.0°*)
 93: 0x0CA9 [0x47] WAIT_PLAYER_POS_UPDATE

SUBROUTINE_0CAB:
 94: 0x0CAB [0x38] SET_CLIENT_EVENT_MODE(mode=19*)
 95: 0x0CAE [0x02] IF !(ExtData[1]->WorkLocal[23] == 2*) GOTO 0x0CB9
 96: 0x0CB6 [0x01] GOTO 0x0CD4
 97: 0x0CB9 [0x02] IF !(ExtData[1]->WorkLocal[23] == 1*) GOTO 0x0D84
 98: 0x0CC1 [0x1C] WAIT(15* ticks)
 99: 0x0CC4 [0x24] CREATE_DIALOG(message_id=7407*, default_option=1*, option_flags=0*)
    → "Skip the event? [Yes./No.]"
100: 0x0CCB [0x25] WAIT_DIALOG_SELECT()
101: 0x0CCC [0x02] IF !(Work_Zone[0] == 0*) GOTO 0x0D84

SUBROUTINE_0CD4:
102: 0x0CD4 [0x02] IF !(ExtData[1]->WorkLocal[32] == 180*) GOTO 0x0D40
103: 0x0CDC [0x02] IF !(ExtData[1]->WorkLocal[33] == 0*) GOTO 0x0CEE
104: 0x0CE4 [0x36] SET_ENTITY_EVENT_POSITION(pos_x=-618.329*, pos_z=-643.868*, pos_y=-25.805*)
105: 0x0CEB [0x01] GOTO 0x0D3D
106: 0x0CEE [0x02] IF !(ExtData[1]->WorkLocal[33] == 1*) GOTO 0x0D00
107: 0x0CF6 [0x36] SET_ENTITY_EVENT_POSITION(pos_x=-332.163*, pos_z=-441.914*, pos_y=-95.055*)
108: 0x0CFD [0x01] GOTO 0x0D3D
109: 0x0D00 [0x02] IF !(ExtData[1]->WorkLocal[33] == 2*) GOTO 0x0D12
110: 0x0D08 [0x36] SET_ENTITY_EVENT_POSITION(pos_x=-12.464*, pos_z=-648.377*, pos_y=-194.629*)
111: 0x0D0F [0x01] GOTO 0x0D3D
112: 0x0D12 [0x02] IF !(ExtData[1]->WorkLocal[33] == 3*) GOTO 0x0D24
113: 0x0D1A [0x36] SET_ENTITY_EVENT_POSITION(pos_x=323.381*, pos_z=-443.793*, pos_y=-108.440*)
114: 0x0D21 [0x01] GOTO 0x0D3D
115: 0x0D24 [0x02] IF !(ExtData[1]->WorkLocal[33] == 4*) GOTO 0x0D36
116: 0x0D2C [0x36] SET_ENTITY_EVENT_POSITION(pos_x=599.907*, pos_z=-676.969*, pos_y=-22.473*)
117: 0x0D33 [0x01] GOTO 0x0D3D
118: 0x0D36 [0x36] SET_ENTITY_EVENT_POSITION(pos_x=539.989*, pos_z=-576.522*, pos_y=0.000*)

SUBROUTINE_0D3D:
119: 0x0D3D [0x01] GOTO 0x0D49
120: 0x0D40 [0x37] UPDATE_EVENT_POSITION_AND_DIR: x=539.989*, z=-576.522*, y=0.000*, direction=270.0°*

SUBROUTINE_0D49:
121: 0x0D49 [0x80] LOAD_WAIT(entity=LocalPlayer)
122: 0x0D4E [0x62] LOAD_EVENT_SCHEDULER: Load scheduler "main" with entities [LocalPlayer, LocalPlayer], work=[2*, 0*]
123: 0x0D5F [0x45] LOAD_SCHEDULED_TASK: Load scheduler "fdi2" with entities [LocalPlayer, LocalPlayer], work=[200*, 0*]
124: 0x0D70 [0x46] CAMERA_CONTROL: Query status
125: 0x0D72 [0x12] 0x0200 = rand()
126: 0x0D75 [0x12] ExtData[1]->WorkLocal[0] = rand()
127: 0x0D78 [0x80] LOAD_WAIT(entity=Unknown NPC (ID: 1175289344/0x460D7E00))
128: 0x0D7D [0x00] END_REQSTACK()

SUBROUTINE_0D84:
129: 0x0D84 [0x02] IF !(ExtData[1]->WorkLocal[23] < 4294967295*) GOTO 0x0DEE
130: 0x0D8C [0x5C] MUSIC_CONTROL: Set Idle (Day) music to song 224*
131: 0x0D90 [0x5C] MUSIC_CONTROL: Set Idle (Night) music to song 224*
132: 0x0D94 [0x5C] MUSIC_CONTROL: Set Combat (Solo) music to song 224*
133: 0x0D98 [0x5C] MUSIC_CONTROL: Set Combat (Party) music to song 224*
134: 0x0D9C [0x02] IF !(ExtData[1]->WorkLocal[25] == 0*) GOTO 0x0DB7
135: 0x0DA4 [0x5C] MUSIC_CONTROL: Set Idle (Day) music to song 137*
136: 0x0DA8 [0x5C] MUSIC_CONTROL: Set Idle (Night) music to song 137*
137: 0x0DAC [0x5C] MUSIC_CONTROL: Set Combat (Solo) music to song 137*
138: 0x0DB0 [0x5C] MUSIC_CONTROL: Set Combat (Party) music to song 137*
139: 0x0DB4 [0x01] GOTO 0x0DED
140: 0x0DB7 [0x02] IF !(ExtData[1]->WorkLocal[25] == 1*) GOTO 0x0DD2
141: 0x0DBF [0x5C] MUSIC_CONTROL: Set Idle (Day) music to song 0*
142: 0x0DC3 [0x5C] MUSIC_CONTROL: Set Idle (Night) music to song 0*
143: 0x0DC7 [0x5C] MUSIC_CONTROL: Set Combat (Solo) music to song 0*
144: 0x0DCB [0x5C] MUSIC_CONTROL: Set Combat (Party) music to song 0*
145: 0x0DCF [0x01] GOTO 0x0DED
146: 0x0DD2 [0x02] IF !(ExtData[1]->WorkLocal[25] == 3*) GOTO 0x0DED
147: 0x0DDA [0x5C] MUSIC_CONTROL: Set Idle (Day) music to song 137*
148: 0x0DDE [0x5C] MUSIC_CONTROL: Set Idle (Night) music to song 137*
149: 0x0DE2 [0x5C] MUSIC_CONTROL: Set Combat (Solo) music to song 137*
150: 0x0DE6 [0x5C] MUSIC_CONTROL: Set Combat (Party) music to song 137*
151: 0x0DEA [0x01] GOTO 0x0DED

SUBROUTINE_0DED:
152: 0x0DED [0x9A] WAIT_MUSIC_SERVER()
153: 0x0DEE [0x1A] CALL_SUBROUTINE(address=0x1D90)
154: 0x0DF1 [0x02] IF !(ExtData[1]->WorkLocal[23] >= 0*) GOTO 0x0DFC
155: 0x0DF9 [0x01] GOTO 0x0EC4

SUBROUTINE_0DFC:
156: 0x0DFC [0x02] IF !(ExtData[1]->WorkLocal[32] == 36*) GOTO 0x0E2F
157: 0x0E04 [0x03] Work_Zone[1] = Work_Zone[0]
158: 0x0E09 [0x02] IF !(ExtData[1]->WorkLocal[25] == 0*) GOTO 0x0E18
159: 0x0E11 [0x43] SEND_EVENT_UPDATE: Send pending tag to server (packet 0x005B)
160: 0x0E13 [0x43] SEND_EVENT_UPDATE: Check pending flag (skip if not pending)
161: 0x0E15 [0x01] GOTO 0x0E2C
162: 0x0E18 [0x02] IF !(ExtData[1]->WorkLocal[25] == 1*) GOTO 0x0E2C
163: 0x0E20 [0x07] Work_Zone[1] += 2*
164: 0x0E25 [0x43] SEND_EVENT_UPDATE: Send pending tag to server (packet 0x005B)
165: 0x0E27 [0x43] SEND_EVENT_UPDATE: Check pending flag (skip if not pending)
166: 0x0E29 [0x01] GOTO 0x0E2C

SUBROUTINE_0E2C:
167: 0x0E2C [0x01] GOTO 0x0E2F

SUBROUTINE_0E2F:
168: 0x0E2F [0x02] IF !(ExtData[1]->WorkLocal[32] == 17*) GOTO 0x0E3A
169: 0x0E37 [0x01] GOTO 0x0EC4
170: 0x0E3A [0x02] IF !(ExtData[1]->WorkLocal[32] == 19*) GOTO 0x0E45
171: 0x0E42 [0x01] GOTO 0x0EC4
172: 0x0E45 [0x02] IF !(ExtData[1]->WorkLocal[32] == 21*) GOTO 0x0E50
173: 0x0E4D [0x01] GOTO 0x0EC4
174: 0x0E50 [0x02] IF !(ExtData[1]->WorkLocal[32] == 23*) GOTO 0x0E5B
175: 0x0E58 [0x01] GOTO 0x0EC4
176: 0x0E5B [0x03] Work_Zone[5] = ExtData[1]->WorkLocal[27]
177: 0x0E60 [0x02] IF !(Work_Zone[5] <= 0*) GOTO 0x0EC4
178: 0x0E68 [0x02] IF !(Work_Zone[5] < 60*) GOTO 0x0E83
179: 0x0E70 [0x3F] Work_Zone[4] = Work_Zone[5] % 60*
180: 0x0E77 [0x15] Work_Zone[5] /= 60*
181: 0x0E7C [0x48] [System] [7409*]:
    → "Battlefield clear time: $3 minute[/s], $2 second[/s]!"
182: 0x0E7F [0x23] WAIT_FOR_DIALOG_INTERACTION
183: 0x0E80 [0x01] GOTO 0x0E87
184: 0x0E83 [0x48] [System] [7408*]:
    → "Battlefield clear time: $3 second[/s]!"
185: 0x0E86 [0x23] WAIT_FOR_DIALOG_INTERACTION

SUBROUTINE_0E87:
186: 0x0E87 [0x02] IF !(ExtData[1]->WorkLocal[27] > ExtData[1]->WorkLocal[26]) GOTO 0x0E9B
187: 0x0E8F [0x03] Work_Zone[7] = ExtData[1]->WorkLocal[25]
188: 0x0E94 [0x48] [System] [7601*]:
    → "You have broken the clear time record for "[Dawn/Apocalypse Nigh/Both Paths Taken/$26Dawn/The Winds of Time/Sealed Fate]"!"
189: 0x0E97 [0x23] WAIT_FOR_DIALOG_INTERACTION
190: 0x0E98 [0x01] GOTO 0x0EC4
191: 0x0E9B [0x02] IF !(ExtData[1]->WorkLocal[26] < 60*) GOTO 0x0EBB
192: 0x0EA3 [0x03] Work_Zone[5] = ExtData[1]->WorkLocal[26]
193: 0x0EA8 [0x3F] Work_Zone[4] = Work_Zone[5] % 60*
194: 0x0EAF [0x15] Work_Zone[5] /= 60*
195: 0x0EB4 [0x48] [System] [7411*]:
    → "The current battlefield clear time record is $3 minute[/s] $2 second[/s]."
196: 0x0EB7 [0x23] WAIT_FOR_DIALOG_INTERACTION
197: 0x0EB8 [0x01] GOTO 0x0EC4
198: 0x0EBB [0x03] Work_Zone[5] = ExtData[1]->WorkLocal[26]
199: 0x0EC0 [0x48] [System] [7410*]:
    → "The current battlefield clear time record is $3 second[/s]."
200: 0x0EC3 [0x23] WAIT_FOR_DIALOG_INTERACTION

SUBROUTINE_0EC4:
201: 0x0EC4 [0x02] IF !(ExtData[1]->WorkLocal[24] == 0*) GOTO 0x0EDC
202: 0x0ECC [0x5C] MUSIC_CONTROL: Set Idle (Day) music to song 0*
203: 0x0ED0 [0x5C] MUSIC_CONTROL: Set Idle (Night) music to song 0*
204: 0x0ED4 [0x5C] MUSIC_CONTROL: Set Combat (Solo) music to song 224*
205: 0x0ED8 [0x5C] MUSIC_CONTROL: Set Combat (Party) music to song 224*
206: 0x0EDC [0x02] IF !(ExtData[1]->WorkLocal[23] >= 0*) GOTO 0x0F05
207: 0x0EE4 [0x45] LOAD_SCHEDULED_TASK: Load scheduler "fdi2" with entities [LocalPlayer, LocalPlayer], work=[200*, 0*]
208: 0x0EF5 [0x5C] MUSIC_CONTROL: Set Idle (Day) music to song 0*
209: 0x0EF9 [0x5C] MUSIC_CONTROL: Set Idle (Night) music to song 0*
210: 0x0EFD [0x5C] MUSIC_CONTROL: Set Combat (Solo) music to song 224*
211: 0x0F01 [0x5C] MUSIC_CONTROL: Set Combat (Party) music to song 224*
212: 0x0F05 [0x06] ExtData[1]->WorkLocal[24] = 0
213: 0x0F08 [0x45] LOAD_SCHEDULED_TASK: Load scheduler "whi1" with entities [LocalPlayer, LocalPlayer], work=[201*, 0*]
214: 0x0F19 [0x45] LOAD_SCHEDULED_TASK: Load scheduler "blof" with entities [LocalPlayer, LocalPlayer], work=[200*, 0*]
215: 0x0F2A [0x21] END_EVENT
216: 0x0F2B [0x00] END_REQSTACK()
```

#### Data or dead code:

```
# Dead code (unreachable instructions):
     0x0D7E [0x01] GOTO 0x0DFC
     0x0D81 [0x01] GOTO 0x0D84
```

### Event 32003

#### Metadata

| Field        | Value     |
|--------------|-----------|
| Entrypoint   | 0x0F2C    |
| Data Size    | 435 bytes |
| Instructions | 77        |

```
      00 01 02 03 04 05 06 07  08 09 0A 0B 0C 0D 0E 0F
      -- -- -- -- -- -- -- --  -- -- -- -- -- -- -- --
0F20:                                      06 1D 00 06              ....
0F30: 1E 00 03 21 00 06 10 03  20 00 07 10 03 1F 00 08  ...!.... .......
0F40: 10 06 01 10 1A 2A 1E 02  1D 00 05 80 00 DD 10 42  .....*.........B
0F50: 03 01 10 09 80 43 00 43  01 03 01 10 0A 80 43 00  .....C.C......C.
0F60: 43 01 1A 41 1E 02 1E 00  05 80 00 DD 10 45 0E 80  C..A.........E..
0F70: F0 FF FF 7F F0 FF FF 7F  66 64 6F 31 00 80 55 0E  ........fdo1..U.
0F80: 80 F0 FF FF 7F F0 FF FF  7F 66 64 6F 31 03 01 10  .........fdo1...
0F90: 0B 80 02 20 00 38 80 80  1C 10 02 21 00 00 80 80  ... .8.....!....
0FA0: B1 0F 47 00 39 80 3A 80  3B 80 3C 80 47 01 01 19  ..G.9.:.;.<.G...
0FB0: 10 02 21 00 05 80 80 C8  0F 47 00 3D 80 3E 80 3F  ..!......G.=.>.?
0FC0: 80 40 80 47 01 01 19 10  02 21 00 09 80 80 DF 0F  .@.G.....!......
0FD0: 47 00 41 80 42 80 43 80  44 80 47 01 01 19 10 02  G.A.B.C.D.G.....
0FE0: 21 00 0A 80 80 F6 0F 47  00 45 80 46 80 47 80 48  !......G.E.F.G.H
0FF0: 80 47 01 01 19 10 02 21  00 0B 80 80 0D 10 47 00  .G.....!......G.
1000: 49 80 4A 80 4B 80 4C 80  47 01 01 19 10 47 00 4D  I.J.K.L.G....G.M
1010: 80 4E 80 00 80 4F 80 47  01 01 9B 10 02 20 00 18  .N...O.G..... ..
1020: 80 80 8F 10 02 1F 00 05  80 80 3B 10 47 00 50 80  ..........;.G.P.
1030: 51 80 52 80 53 80 47 01  01 8C 10 02 1F 00 09 80  Q.R.S.G.........
1040: 80 52 10 47 00 54 80 55  80 56 80 57 80 47 01 01  .R.G.T.U.V.W.G..
1050: 8C 10 02 1F 00 0A 80 80  69 10 47 00 58 80 59 80  ........i.G.X.Y.
1060: 5A 80 5B 80 47 01 01 8C  10 02 1F 00 0B 80 80 80  Z.[.G...........
1070: 10 47 00 5C 80 5D 80 5E  80 5F 80 47 01 01 8C 10  .G.\.].^._.G....
1080: 47 00 4D 80 4E 80 00 80  4F 80 47 01 01 9B 10 47  G.M.N...O.G....G
1090: 00 4D 80 4E 80 00 80 4F  80 47 01 38 0F 80 79 00  .M.N...O.G.8..y.
10A0: F0 FF FF 7F F0 FF FF 7F  1A 45 1E 45 37 80 F0 FF  .........E.E7...
10B0: FF 7F F0 FF FF 7F 77 68  69 31 00 80 45 0E 80 F0  ......whi1..E...
10C0: FF FF 7F F0 FF FF 7F 62  6C 6F 66 00 80 5C 00 00  .......blof..\..
10D0: 80 5C 01 00 80 5C 02 33  80 5C 03 33 80 21 00     .\...\.3.\.3.!. 
```

#### Opcodes

```
  0: 0x0F2C [0x06] ExtData[1]->WorkLocal[29] = 0
  1: 0x0F2F [0x06] ExtData[1]->WorkLocal[30] = 0
  2: 0x0F32 [0x03] ExtData[1]->WorkLocal[33] = Work_Zone[6]
  3: 0x0F37 [0x03] ExtData[1]->WorkLocal[32] = Work_Zone[7]
  4: 0x0F3C [0x03] ExtData[1]->WorkLocal[31] = Work_Zone[8]
  5: 0x0F41 [0x06] Work_Zone[1] = 0
  6: 0x0F44 [0x1A] CALL_SUBROUTINE(address=0x1E2A)
  7: 0x0F47 [0x02] IF !(ExtData[1]->WorkLocal[29] == 1*) GOTO 0x10DD
  8: 0x0F4F [0x42] SET_CLI_EVENT_CANCEL_DATA()
  9: 0x0F50 [0x03] Work_Zone[1] = 2*
 10: 0x0F55 [0x43] SEND_EVENT_UPDATE: Send pending tag to server (packet 0x005B)
 11: 0x0F57 [0x43] SEND_EVENT_UPDATE: Check pending flag (skip if not pending)
 12: 0x0F59 [0x03] Work_Zone[1] = 3*
 13: 0x0F5E [0x43] SEND_EVENT_UPDATE: Send pending tag to server (packet 0x005B)
 14: 0x0F60 [0x43] SEND_EVENT_UPDATE: Check pending flag (skip if not pending)
 15: 0x0F62 [0x1A] CALL_SUBROUTINE(address=0x1E41)
 16: 0x0F65 [0x02] IF !(ExtData[1]->WorkLocal[30] == 1*) GOTO 0x10DD
 17: 0x0F6D [0x45] LOAD_SCHEDULED_TASK: Load scheduler "fdo1" with entities [LocalPlayer, LocalPlayer], work=[200*, 0*]
 18: 0x0F7E [0x55] WAIT_LOAD_SCHEDULER: Wait for scheduler "fdo1" with entities [LocalPlayer, LocalPlayer], work=200*
 19: 0x0F8D [0x03] Work_Zone[1] = 4*
 20: 0x0F92 [0x02] IF !(ExtData[1]->WorkLocal[32] == 180*) GOTO 0x101C
 21: 0x0F9A [0x02] IF !(ExtData[1]->WorkLocal[33] == 0*) GOTO 0x0FB1
 22: 0x0FA2 [0x47] UPDATE_PLAYER_POS(-605.141*, 479.929*, -22.681*, yaw=87.2°*)
 23: 0x0FAC [0x47] WAIT_PLAYER_POS_UPDATE
 24: 0x0FAE [0x01] GOTO 0x1019
 25: 0x0FB1 [0x02] IF !(ExtData[1]->WorkLocal[33] == 1*) GOTO 0x0FC8
 26: 0x0FB9 [0x47] UPDATE_PLAYER_POS(-262.589*, 377.857*, -137.313*, yaw=305.3°*)
 27: 0x0FC3 [0x47] WAIT_PLAYER_POS_UPDATE
 28: 0x0FC5 [0x01] GOTO 0x1019
 29: 0x0FC8 [0x02] IF !(ExtData[1]->WorkLocal[33] == 2*) GOTO 0x0FDF
 30: 0x0FD0 [0x47] UPDATE_PLAYER_POS(18.348*, 486.940*, -224.334*, yaw=17.1°*)
 31: 0x0FDA [0x47] WAIT_PLAYER_POS_UPDATE
 32: 0x0FDC [0x01] GOTO 0x1019
 33: 0x0FDF [0x02] IF !(ExtData[1]->WorkLocal[33] == 3*) GOTO 0x0FF6
 34: 0x0FE7 [0x47] UPDATE_PLAYER_POS(231.593*, 360.094*, -173.572*, yaw=160.8°*)
 35: 0x0FF1 [0x47] WAIT_PLAYER_POS_UPDATE
 36: 0x0FF3 [0x01] GOTO 0x1019
 37: 0x0FF6 [0x02] IF !(ExtData[1]->WorkLocal[33] == 4*) GOTO 0x100D
 38: 0x0FFE [0x47] UPDATE_PLAYER_POS(553.664*, 523.939*, -38.205*, yaw=233.9°*)
 39: 0x1008 [0x47] WAIT_PLAYER_POS_UPDATE
 40: 0x100A [0x01] GOTO 0x1019
 41: 0x100D [0x47] UPDATE_PLAYER_POS(539.989*, -576.522*, 0.000*, yaw=270.0°*)
 42: 0x1017 [0x47] WAIT_PLAYER_POS_UPDATE

SUBROUTINE_1019:
 43: 0x1019 [0x01] GOTO 0x109B
 44: 0x101C [0x02] IF !(ExtData[1]->WorkLocal[32] == 6*) GOTO 0x108F
 45: 0x1024 [0x02] IF !(ExtData[1]->WorkLocal[31] == 1*) GOTO 0x103B
 46: 0x102C [0x47] UPDATE_PLAYER_POS(-875.117*, -43.892*, -48.084*, yaw=45.1°*)
 47: 0x1036 [0x47] WAIT_PLAYER_POS_UPDATE
 48: 0x1038 [0x01] GOTO 0x108C
 49: 0x103B [0x02] IF !(ExtData[1]->WorkLocal[31] == 2*) GOTO 0x1052
 50: 0x1043 [0x47] UPDATE_PLAYER_POS(-755.499*, 563.947*, -112.035*, yaw=313.5°*)
 51: 0x104D [0x47] WAIT_PLAYER_POS_UPDATE
 52: 0x104F [0x01] GOTO 0x108C
 53: 0x1052 [0x02] IF !(ExtData[1]->WorkLocal[31] == 3*) GOTO 0x1069
 54: 0x105A [0x47] UPDATE_PLAYER_POS(123.251*, 754.209*, -172.124*, yaw=38.7°*)
 55: 0x1064 [0x47] WAIT_PLAYER_POS_UPDATE
 56: 0x1066 [0x01] GOTO 0x108C
 57: 0x1069 [0x02] IF !(ExtData[1]->WorkLocal[31] == 4*) GOTO 0x1080
 58: 0x1071 [0x47] UPDATE_PLAYER_POS(-516.404*, -803.323*, 24.206*, yaw=38.4°*)
 59: 0x107B [0x47] WAIT_PLAYER_POS_UPDATE
 60: 0x107D [0x01] GOTO 0x108C
 61: 0x1080 [0x47] UPDATE_PLAYER_POS(539.989*, -576.522*, 0.000*, yaw=270.0°*)
 62: 0x108A [0x47] WAIT_PLAYER_POS_UPDATE

SUBROUTINE_108C:
 63: 0x108C [0x01] GOTO 0x109B
 64: 0x108F [0x47] UPDATE_PLAYER_POS(539.989*, -576.522*, 0.000*, yaw=270.0°*)
 65: 0x1099 [0x47] WAIT_PLAYER_POS_UPDATE

SUBROUTINE_109B:
 66: 0x109B [0x38] SET_CLIENT_EVENT_MODE(mode=19*)
 67: 0x109E [0x79] LocalPlayer looks at LocalPlayer (Basic look)
 68: 0x10A8 [0x1A] CALL_SUBROUTINE(address=0x1E45)
 69: 0x10AB [0x45] LOAD_SCHEDULED_TASK: Load scheduler "whi1" with entities [LocalPlayer, LocalPlayer], work=[201*, 0*]
 70: 0x10BC [0x45] LOAD_SCHEDULED_TASK: Load scheduler "blof" with entities [LocalPlayer, LocalPlayer], work=[200*, 0*]
 71: 0x10CD [0x5C] MUSIC_CONTROL: Set Idle (Day) music to song 0*
 72: 0x10D1 [0x5C] MUSIC_CONTROL: Set Idle (Night) music to song 0*
 73: 0x10D5 [0x5C] MUSIC_CONTROL: Set Combat (Solo) music to song 224*
 74: 0x10D9 [0x5C] MUSIC_CONTROL: Set Combat (Party) music to song 224*
 75: 0x10DD [0x21] END_EVENT
 76: 0x10DE [0x00] END_REQSTACK()
```

### Event 32004

#### Metadata

| Field        | Value     |
|--------------|-----------|
| Entrypoint   | 0x10DF    |
| Data Size    | 172 bytes |
| Instructions | 39        |

```
      00 01 02 03 04 05 06 07  08 09 0A 0B 0C 0D 0E 0F
      -- -- -- -- -- -- -- --  -- -- -- -- -- -- -- --
10D0:                                               03                 .
10E0: 22 00 02 10 03 23 00 03  10 03 1F 00 04 10 03 24  "....#.........$
10F0: 00 05 10 42 1A F0 1E 20  01 46 01 5D 00 80 2E 80  ...B... .F.]....
1100: 38 0F 80 79 00 F0 FF FF  7F F0 FF FF 7F 02 24 00  8..y..........$.
1110: 00 80 00 18 11 1C 90 80  02 1F 00 00 80 80 34 11  ..............4.
1120: 1A C3 24 02 24 00 00 80  00 31 11 38 18 80 1A CC  ..$.$....1.8....
1130: 28 01 5E 11 02 1F 00 0A  80 80 5E 11 1C 91 80 1A  (.^.......^.....
1140: 11 1F 1A 88 23 38 18 80  1A CC 28 5C 00 34 80 5C  ....#8....(\.4.\
1150: 01 34 80 5C 02 34 80 5C  03 34 80 01 5E 11 46 00  .4.\.4.\.4..^.F.
1160: 45 0E 80 F0 FF FF 7F F0  FF FF 7F 66 64 69 32 00  E..........fdi2.
1170: 80 02 24 00 05 80 00 89  11 5C 00 00 80 5C 01 00  ..$......\...\..
1180: 80 5C 02 33 80 5C 03 33  80 21 00                 .\.3.\.3.!.     
```

#### Opcodes

```
  0: 0x10DF [0x03] ExtData[1]->WorkLocal[34] = Work_Zone[2]
  1: 0x10E4 [0x03] ExtData[1]->WorkLocal[35] = Work_Zone[3]
  2: 0x10E9 [0x03] ExtData[1]->WorkLocal[31] = Work_Zone[4]
  3: 0x10EE [0x03] ExtData[1]->WorkLocal[36] = Work_Zone[5]
  4: 0x10F3 [0x42] SET_CLI_EVENT_CANCEL_DATA()
  5: 0x10F4 [0x1A] CALL_SUBROUTINE(address=0x1EF0)
  6: 0x10F7 [0x20] SET_CLI_EVENT_UC_FLAG: Lock player control
  7: 0x10F9 [0x46] CAMERA_CONTROL: Disable user control
  8: 0x10FB [0x5D] SET_MUSIC_VOLUME(volume=0*, fade_time=60*)
  9: 0x1100 [0x38] SET_CLIENT_EVENT_MODE(mode=19*)
 10: 0x1103 [0x79] LocalPlayer looks at LocalPlayer (Basic look)
 11: 0x110D [0x02] IF !(ExtData[1]->WorkLocal[36] == 0*) GOTO 0x1118
 12: 0x1115 [0x1C] WAIT(120* ticks)
 13: 0x1118 [0x02] IF !(ExtData[1]->WorkLocal[31] == 0*) GOTO 0x1134
 14: 0x1120 [0x1A] CALL_SUBROUTINE(address=0x24C3)
 15: 0x1123 [0x02] IF !(ExtData[1]->WorkLocal[36] == 0*) GOTO 0x1131
 16: 0x112B [0x38] SET_CLIENT_EVENT_MODE(mode=6*)
 17: 0x112E [0x1A] CALL_SUBROUTINE(address=0x28CC)
 18: 0x1131 [0x01] GOTO 0x115E
 19: 0x1134 [0x02] IF !(ExtData[1]->WorkLocal[31] == 3*) GOTO 0x115E
 20: 0x113C [0x1C] WAIT(150* ticks)
 21: 0x113F [0x1A] CALL_SUBROUTINE(address=0x1F11)
 22: 0x1142 [0x1A] CALL_SUBROUTINE(address=0x2388)
 23: 0x1145 [0x38] SET_CLIENT_EVENT_MODE(mode=6*)
 24: 0x1148 [0x1A] CALL_SUBROUTINE(address=0x28CC)
 25: 0x114B [0x5C] MUSIC_CONTROL: Set Idle (Day) music to song 137*
 26: 0x114F [0x5C] MUSIC_CONTROL: Set Idle (Night) music to song 137*
 27: 0x1153 [0x5C] MUSIC_CONTROL: Set Combat (Solo) music to song 137*
 28: 0x1157 [0x5C] MUSIC_CONTROL: Set Combat (Party) music to song 137*
 29: 0x115B [0x01] GOTO 0x115E

SUBROUTINE_115E:
 30: 0x115E [0x46] CAMERA_CONTROL: Restore default settings
 31: 0x1160 [0x45] LOAD_SCHEDULED_TASK: Load scheduler "fdi2" with entities [LocalPlayer, LocalPlayer], work=[200*, 0*]
 32: 0x1171 [0x02] IF !(ExtData[1]->WorkLocal[36] == 1*) GOTO 0x1189
 33: 0x1179 [0x5C] MUSIC_CONTROL: Set Idle (Day) music to song 0*
 34: 0x117D [0x5C] MUSIC_CONTROL: Set Idle (Night) music to song 0*
 35: 0x1181 [0x5C] MUSIC_CONTROL: Set Combat (Solo) music to song 224*
 36: 0x1185 [0x5C] MUSIC_CONTROL: Set Combat (Party) music to song 224*
 37: 0x1189 [0x21] END_EVENT
 38: 0x118A [0x00] END_REQSTACK()
```

### Event 32005

#### Metadata

| Field        | Value      |
|--------------|------------|
| Entrypoint   | 0x118B     |
| Data Size    | 4112 bytes |
| Instructions | 43         |

```
      00 01 02 03 04 05 06 07  08 09 0A 0B 0C 0D 0E 0F
      -- -- -- -- -- -- -- --  -- -- -- -- -- -- -- --
1180:                                   83 25 00 03 26             .%..&
1190: 00 06 10 07 26 00 25 00  42 1A F0 1E 20 01 46 01  ....&.%.B... .F.
11A0: 06 24 00 03 22 00 02 10  03 23 00 03 10 03 1F 00  .$.."....#......
11B0: 04 10 1A 04 27 24 32 80  05 80 00 80 25 02 00 10  ....'$2.....%...
11C0: 00 80 00 47 12 02 26 00  25 00 02 D6 11 1C 2E 80  ...G..&.%.......
11D0: 83 25 00 01 C5 11 02 1F  00 00 80 80 F1 11 5C 00  .%............\.
11E0: 34 80 5C 01 34 80 5C 02  34 80 5C 03 34 80 01 0C  4.\.4.\.4.\.4...
11F0: 12 02 1F 00 0A 80 80 0C  12 5C 00 34 80 5C 01 34  .........\.4.\.4
1200: 80 5C 02 34 80 5C 03 34  80 01 0C 12 03 01 10 00  .\.4.\.4........
1210: 80 45 37 80 F0 FF FF 7F  F0 FF FF 7F 77 68 69 31  .E7.........whi1
1220: 00 80 45 0E 80 F0 FF FF  7F F0 FF FF 7F 62 6C 6F  ..E..........blo
1230: 66 00 80 45 0E 80 F0 FF  FF 7F F0 FF FF 7F 66 64  f..E..........fd
1240: 69 32 00 80 01 4C 12 03  01 10 05 80 46 00 21 00  i2...L......F.!.
1250: 24 0C 80 05 80 00 80 25  02 00 10 00 80 00 66 12  $......%......f.
1260: 05 01 00 01 66 12 1B 02  03 00 00 80 80 20 13 1A  ....f........ ..
1270: AE 1E 46 01 92 01 F0 FF  FF 7F 79 00 F0 FF FF 7F  ..F.......y.....
1280: F0 FF FF 7F 37 92 80 93  80 00 80 94 80 45 29 80  ....7........E).
1290: F0 FF FF 7F F0 FF FF 7F  6C 73 30 30 00 80 1A CF  ........ls00....
12A0: 1E 9F 95 80 F0 FF FF 7F  F0 FF FF 7F 6D 61 69 6E  ............main
12B0: 00 80 55 29 80 F0 FF FF  7F F0 FF FF 7F 6C 73 30  ..U).........ls0
12C0: 30 45 29 80 F0 FF FF 7F  F0 FF FF 7F 6C 73 30 31  0E).........ls01
12D0: 00 80 1C 90 80 45 29 80  F0 FF FF 7F F0 FF FF 7F  .....E).........
12E0: 6B 31 33 32 00 80 45 29  80 F0 FF FF 7F F0 FF FF  k132..E)........
12F0: 7F 34 30 33 35 00 80 1A  32 1F 55 29 80 F0 FF FF  .4035...2.U)....
1300: 7F F0 FF FF 7F 6C 73 30  31 45 29 80 F0 FF FF 7F  .....ls01E).....
1310: F0 FF FF 7F 30 62 6C 66  00 80 1A 94 13 01 4E 13  ....0blf......N.
1320: 02 03 00 05 80 80 40 13  1A 32 1F 1A CF 1E 46 01  ......@..2....F.
1330: 79 00 F0 FF FF 7F F0 FF  FF 7F 1A 92 1B 01 4E 13  y.............N.
1340: 02 03 00 0A 80 80 4E 13  1A 23 22 01 4E 13 92 00  ......N..#".N...
1350: F0 FF FF 7F 37 96 80 97  80 98 80 4F 80 45 29 80  ....7......O.E).
1360: F0 FF FF 7F F0 FF FF 7F  6C 73 30 32 00 80 9F 99  ........ls02....
1370: 80 F0 FF FF 7F F0 FF FF  7F 6D 61 69 6E 00 80 1A  .........main...
1380: 11 1F 55 29 80 F0 FF FF  7F F0 FF FF 7F 6C 73 30  ..U).........ls0
1390: 32 46 00 1B 5C 00 33 80  5C 01 33 80 9A 1A BA 1A  2F..\.3.\.3.....
13A0: 1C 01 80 92 00 F0 FF FF  7F 27 10 F0 FF FF 7F 14  .........'......
13B0: 5B 9A 80 63 40 02 01 63  40 02 01 73 70 6C 30 5B  [..c@..c@..spl0[
13C0: 9B 80 5A 40 02 01 5A 40  02 01 62 34 30 30 53 5A  ..Z@..Z@..b400SZ
13D0: 40 02 01 5A 40 02 01 62  34 30 30 9F 9C 80 63 40  @..Z@..b400...c@
13E0: 02 01 63 40 02 01 6C 6F  6F 70 00 80 45 29 80 F0  ..c@..loop..E)..
13F0: FF FF 7F F0 FF FF 7F 6C  61 32 33 00 80 1A 11 1F  .......la23.....
1400: 55 29 80 F0 FF FF 7F F0  FF FF 7F 6C 61 32 33 45  U).........la23E
1410: 29 80 F0 FF FF 7F F0 FF  FF 7F 6C 61 32 34 00 80  ).........la24..
1420: 9F 99 80 F0 FF FF 7F F0  FF FF 7F 6D 61 69 6E 00  ...........main.
1430: 80 1C 9D 80 27 10 F0 FF  FF 7F 15 55 29 80 F0 FF  ....'......U)...
1440: FF 7F F0 FF FF 7F 6C 61  32 34 45 29 80 F0 FF FF  ......la24E)....
1450: 7F F0 FF FF 7F 6C 61 32  35 00 80 27 10 59 40 02  .....la25..'.Y@.
1460: 01 10 1C 2E 80 2B 59 40  02 01 9E 80 23 52 29 80  .....+Y@....#R).
1470: F0 FF FF 7F F0 FF FF 7F  6C 61 32 35 45 29 80 F0  ........la25E)..
1480: FF FF 7F F0 FF FF 7F 6C  61 32 36 00 80 81 01 5A  .......la26....Z
1490: 40 02 01 5B 9B 80 5A 40  02 01 5A 40 02 01 62 34  @..[..Z@..Z@..b4
14A0: 30 31 45 29 80 F0 FF FF  7F F0 FF FF 7F 6C 30 37  01E).........l07
14B0: 32 00 80 1C 9F 80 52 29  80 F0 FF FF 7F F0 FF FF  2.....R)........
14C0: 7F 6C 61 32 36 45 29 80  F0 FF FF 7F F0 FF FF 7F  .la26E).........
14D0: 6C 61 32 37 00 80 1C 9D  80 2B 5A 40 02 01 A0 80  la27.....+Z@....
14E0: 53 5A 40 02 01 5A 40 02  01 62 34 30 31 52 29 80  SZ@..Z@..b401R).
14F0: F0 FF FF 7F F0 FF FF 7F  6C 61 32 37 45 29 80 F0  ........la27E)..
1500: FF FF 7F F0 FF FF 7F 6C  61 32 38 00 80 2B 5A 40  .......la28..+Z@
1510: 02 01 A1 80 23 2B 5A 40  02 01 A2 80 23 52 29 80  ....#+Z@....#R).
1520: F0 FF FF 7F F0 FF FF 7F  6C 61 32 38 45 29 80 F0  ........la28E)..
1530: FF FF 7F F0 FF FF 7F 6C  61 32 39 00 80 37 A3 80  .......la29..7..
1540: A4 80 98 80 A5 80 4A F0  FF FF 7F 63 40 02 01 7B  ......J....c@..{
1550: 59 40 02 01 2B 5A 40 02  01 A6 80 23 52 29 80 F0  Y@..+Z@....#R)..
1560: FF FF 7F F0 FF FF 7F 6C  61 32 39 45 29 80 F0 FF  .......la29E)...
1570: FF 7F F0 FF FF 7F 6C 61  33 30 00 80 2B 59 40 02  ......la30..+Y@.
1580: 01 A7 80 23 5B A8 80 59  40 02 01 59 40 02 01 73  ...#[..Y@..Y@..s
1590: 72 61 30 2B 59 40 02 01  A9 80 23 52 29 80 F0 FF  ra0+Y@....#R)...
15A0: FF 7F F0 FF FF 7F 6C 61  33 30 45 29 80 F0 FF FF  ......la30E)....
15B0: 7F F0 FF FF 7F 6C 61 33  31 00 80 4A 59 40 02 01  .....la31..JY@..
15C0: 63 40 02 01 5B AA 80 59  40 02 01 59 40 02 01 70  c@..[..Y@..Y@..p
15D0: 61 30 34 2B 59 40 02 01  AB 80 23 2B 59 40 02 01  a04+Y@....#+Y@..
15E0: AC 80 23 7B 59 40 02 01  52 29 80 F0 FF FF 7F F0  ..#{Y@..R)......
15F0: FF FF 7F 6C 61 33 31 45  29 80 F0 FF FF 7F F0 FF  ...la31E).......
1600: FF 7F 6C 61 33 32 00 80  5B AD 80 59 40 02 01 59  ..la32..[..Y@..Y
1610: 40 02 01 70 61 72 34 1C  2E 80 2B 59 40 02 01 AE  @..par4...+Y@...
1620: 80 23 52 29 80 F0 FF FF  7F F0 FF FF 7F 6C 61 33  .#R).........la3
1630: 32 45 29 80 F0 FF FF 7F  F0 FF FF 7F 6C 61 33 33  2E).........la33
1640: 00 80 2B 5A 40 02 01 AF  80 23 52 29 80 F0 FF FF  ..+Z@....#R)....
1650: 7F F0 FF FF 7F 6C 61 33  33 45 29 80 F0 FF FF 7F  .....la33E).....
1660: F0 FF FF 7F 6C 61 33 36  00 80 2B 5A 40 02 01 B0  ....la36..+Z@...
1670: 80 23 2B 5A 40 02 01 B1  80 23 52 29 80 F0 FF FF  .#+Z@....#R)....
1680: 7F F0 FF FF 7F 6C 61 33  36 45 29 80 F0 FF FF 7F  .....la36E).....
1690: F0 FF FF 7F 6C 61 33 34  00 80 2B 5A 40 02 01 B2  ....la34..+Z@...
16A0: 80 23 52 29 80 F0 FF FF  7F F0 FF FF 7F 6C 61 33  .#R).........la3
16B0: 34 45 29 80 F0 FF FF 7F  F0 FF FF 7F 6C 61 33 35  4E).........la35
16C0: 00 80 1C 2E 80 5B AA 80  59 40 02 01 59 40 02 01  .....[..Y@..Y@..
16D0: 70 61 30 34 2B 5A 40 02  01 B3 80 23 2B 5A 40 02  pa04+Z@....#+Z@.
16E0: 01 B4 80 23 45 29 80 F0  FF FF 7F F0 FF FF 7F 68  ...#E).........h
16F0: 6F 75 61 00 80 9F B5 80  F8 FF FF 7F F8 FF FF 7F  oua.............
1700: 73 74 72 30 00 80 1C 01  80 5B B6 80 63 40 02 01  str0.....[..c@..
1710: 63 40 02 01 73 70 65 31  9F 9C 80 63 40 02 01 63  c@..spe1...c@..c
1720: 40 02 01 6F 75 6B 6F 00  80 52 29 80 F0 FF FF 7F  @..ouko..R).....
1730: F0 FF FF 7F 6C 61 33 35  45 29 80 F0 FF FF 7F F0  ....la35E)......
1740: FF FF 7F 62 73 30 30 00  80 55 29 80 F0 FF FF 7F  ...bs00..U).....
1750: F0 FF FF 7F 62 73 30 30  45 29 80 F0 FF FF 7F F0  ....bs00E)......
1760: FF FF 7F 62 73 30 31 00  80 1C B7 80 9F B5 80 F8  ...bs01.........
1770: FF FF 7F F8 FF FF 7F 6B  69 6C 6C 00 80 55 29 80  .......kill..U).
1780: F0 FF FF 7F F0 FF FF 7F  62 73 30 31 45 29 80 F0  ........bs01E)..
1790: FF FF 7F F0 FF FF 7F 62  73 30 32 00 80 55 29 80  .......bs02..U).
17A0: F0 FF FF 7F F0 FF FF 7F  62 73 30 32 45 29 80 F0  ........bs02E)..
17B0: FF FF 7F F0 FF FF 7F 62  73 30 33 00 80 53 63 40  .......bs03..Sc@
17C0: 02 01 63 40 02 01 73 70  65 31 52 29 80 F0 FF FF  ..c@..spe1R)....
17D0: 7F F0 FF FF 7F 62 73 30  33 45 29 80 F0 FF FF 7F  .....bs03E).....
17E0: F0 FF FF 7F 62 73 30 34  00 80 1C B8 80 45 29 80  ....bs04.....E).
17F0: F0 FF FF 7F F0 FF FF 7F  33 77 6F 73 00 80 1C 2A  ........3wos...*
1800: 80 6C 5A 40 02 01 00 80  05 80 55 29 80 F0 FF FF  .lZ@......U)....
1810: 7F F0 FF FF 7F 62 73 30  34 5B B6 80 63 40 02 01  .....bs04[..c@..
1820: 63 40 02 01 73 70 65 32  1C 20 80 45 29 80 F0 FF  c@..spe2. .E)...
1830: FF 7F F0 FF FF 7F 70 74  30 30 00 80 1A 11 1F 55  ......pt00.....U
1840: 29 80 F0 FF FF 7F F0 FF  FF 7F 70 74 30 30 5B B9  ).........pt00[.
1850: 80 63 40 02 01 63 40 02  01 74 65 72 30 9F BA 80  .c@..c@..ter0...
1860: 63 40 02 01 F8 FF FF 7F  63 61 73 30 00 80 1C 08  c@......cas0....
1870: 80 45 29 80 F0 FF FF 7F  F0 FF FF 7F 70 74 30 31  .E).........pt01
1880: 00 80 1C 95 80 5B BB 80  59 40 02 01 59 40 02 01  .....[..Y@..Y@..
1890: 66 75 30 30 9F BA 80 F8  FF FF 7F 59 40 02 01 68  fu00.......Y@..h
18A0: 69 74 30 00 80 1C 01 80  52 29 80 F0 FF FF 7F F0  it0.....R)......
18B0: FF FF 7F 70 74 30 31 45  29 80 F0 FF FF 7F F0 FF  ...pt01E).......
18C0: FF 7F 70 74 30 32 00 80  9F BC 80 60 40 02 01 60  ..pt02.....`@..`
18D0: 40 02 01 6D 61 69 6E 00  80 9F BC 80 61 40 02 01  @..main.....a@..
18E0: 61 40 02 01 6D 61 69 6E  00 80 9F BC 80 62 40 02  a@..main.....b@.
18F0: 01 62 40 02 01 6D 61 69  6E 00 80 27 10 60 40 02  .b@..main..'.`@.
1900: 01 10 1C 0A 80 27 10 61  40 02 01 10 1C 0A 80 27  .....'.a@......'
1910: 10 62 40 02 01 10 1C 9F  80 27 10 62 40 02 01 11  .b@......'.b@...
1920: 1C 0A 80 52 29 80 F0 FF  FF 7F F0 FF FF 7F 70 74  ...R).........pt
1930: 30 32 45 29 80 F0 FF FF  7F F0 FF FF 7F 6C 61 34  02E).........la4
1940: 30 00 80 27 10 61 40 02  01 11 1C 11 80 27 10 60  0..'.a@......'.`
1950: 40 02 01 11 1C 2A 80 9F  BC 80 60 40 02 01 60 40  @....*....`@..`@
1960: 02 01 6B 69 6C 6C 00 80  9F BC 80 61 40 02 01 61  ..kill.....a@..a
1970: 40 02 01 6B 69 6C 6C 00  80 9F BC 80 62 40 02 01  @..kill.....b@..
1980: 62 40 02 01 6B 69 6C 6C  00 80 1C 2E 80 52 29 80  b@..kill.....R).
1990: F0 FF FF 7F F0 FF FF 7F  6C 61 34 30 45 29 80 F0  ........la40E)..
19A0: FF FF 7F F0 FF FF 7F 6C  61 33 37 00 80 7B F0 FF  .......la37..{..
19B0: FF 7F 27 10 F0 FF FF 7F  14 2B 59 40 02 01 BD 80  ..'......+Y@....
19C0: 23 5B BB 80 59 40 02 01  59 40 02 01 66 75 30 31  #[..Y@..Y@..fu01
19D0: 1C 01 80 52 29 80 F0 FF  FF 7F F0 FF FF 7F 6C 61  ...R).........la
19E0: 33 37 45 29 80 F0 FF FF  7F F0 FF FF 7F 6C 61 34  37E).........la4
19F0: 31 00 80 1C 01 80 2B 59  40 02 01 BE 80 23 53 59  1.....+Y@....#SY
1A00: 40 02 01 59 40 02 01 66  75 30 31 52 29 80 F0 FF  @..Y@..fu01R)...
1A10: FF 7F F0 FF FF 7F 6C 61  33 37 45 29 80 F0 FF FF  ......la37E)....
1A20: 7F F0 FF FF 7F 6C 61 33  38 00 80 27 10 63 40 02  .....la38..'.c@.
1A30: 01 0D 2B 59 40 02 01 BF  80 23 2B 59 40 02 01 C0  ..+Y@....#+Y@...
1A40: 80 23 52 29 80 F0 FF FF  7F F0 FF FF 7F 6C 61 33  .#R).........la3
1A50: 38 45 29 80 F0 FF FF 7F  F0 FF FF 7F 6C 61 33 39  8E).........la39
1A60: 00 80 29 10 59 40 02 01  11 2B 59 40 02 01 C1 80  ..).Y@...+Y@....
1A70: 27 10 59 40 02 01 12 1C  B8 80 1A 32 1F 1C 2E 80  '.Y@.......2....
1A80: 29 10 59 40 02 01 05 29  10 5A 40 02 01 05 29 10  ).Y@...).Z@...).
1A90: 60 40 02 01 05 29 10 61  40 02 01 05 29 10 62 40  `@...).a@...).b@
1AA0: 02 01 05 29 10 63 40 02  01 05 52 29 80 F0 FF FF  ...).c@...R)....
1AB0: 7F F0 FF FF 7F 6C 61 33  39 1B 6C F0 FF FF 7F 00  .....la39.l.....
1AC0: 80 05 80 29 10 59 40 02  01 04 29 10 5A 40 02 01  ...).Y@...).Z@..
1AD0: 04 29 10 60 40 02 01 02  29 10 61 40 02 01 02 29  .).`@...).a@...)
1AE0: 10 62 40 02 01 02 29 10  63 40 02 01 04 92 01 59  .b@...).c@.....Y
1AF0: 40 02 01 92 01 5A 40 02  01 92 01 60 40 02 01 92  @....Z@....`@...
1B00: 01 61 40 02 01 92 01 62  40 02 01 92 01 63 40 02  .a@....b@....c@.
