# Event 65535

## Metadata

| Field           | Value    |
|-----------------|----------|
| Event Index     | 33/57    |
| Offset          | 0x01D4   |
| Data Size       | 45 bytes |
| Calculated Size | 45 bytes |
| Instructions    | 5        |

```
      00 01 02 03 04 05 06 07  08 09 0A 0B 0C 0D 0E 0F
      -- -- -- -- -- -- -- --  -- -- -- -- -- -- -- --
01D0:             66 03 80 F8  FF FF 7F F8 FF FF 7F 32      f..........2
01E0: 73 6C 32 1C 05 80 2C D0  60 0A 01 CF 60 0A 01 64  sl2...,.`...`..d
01F0: 61 6D 67 53 D0 60 0A 01  CF 60 0A 01 64 61 6D 67  amgS.`...`..damg
0200: 00                                                .               
```

## Opcodes

```
  0: 0x01D4 [0x66] LOAD_EXT_SCHEDULER_MAIN(work_offset=22*, entity1=EventEntity, entity2=EventEntity, action="2sl2")
  1: 0x01E3 [0x1C] WAIT(80* ticks)
  2: 0x01E6 [0x2C] CREATE_SCHEDULER_TASK: Create scheduler "damg" for entities [Unnamed NPC (ID: 17457360/0x010A60D0), Perchond (ID: 17457359/0x010A60CF)]
  3: 0x01F3 [0x53] WAIT_SCHEDULER_TASK(entity1=Unnamed NPC (ID: 17457360/0x010A60D0), entity2=Perchond (ID: 17457359/0x010A60CF), action_id="damg")
  4: 0x0200 [0x00] END_REQSTACK()
```
