# 17875323 - Midras

## Common Data

| Field            | Value               |
|------------------|---------------------|
| Zone             | Sih Gates (ID: 268) |
| Block Size       | 336 bytes           |
| Total Events     | 15                  |
| References Count | 17                  |

## List of Events

| Event ID                   | Entrypoint   |   Size |   Instructions |
|----------------------------|--------------|--------|----------------|
| [65535](#event-65535)      | 0x0000       |      1 |              1 |
| [15](#event-15)            | 0x0001       |      1 |              1 |
| [16](#event-16)            | 0x0002       |      1 |              1 |
| [65535.1](#event-655351)   | 0x0003       |     14 |              4 |
| [65535.2](#event-655352)   | 0x0011       |     14 |              4 |
| [65535.3](#event-655353)   | 0x001F       |      4 |              2 |
| [65535.4](#event-655354)   | 0x0023       |     16 |              4 |
| [65535.5](#event-655355)   | 0x0033       |     16 |              4 |
| [65535.6](#event-655356)   | 0x0043       |     16 |              4 |
| [65535.7](#event-655357)   | 0x0053       |     16 |              4 |
| [65535.8](#event-655358)   | 0x0063       |     19 |              3 |
| [65535.9](#event-655359)   | 0x0076       |     19 |              3 |
| [65535.10](#event-6553510) | 0x0089       |     16 |              4 |
| [65535.11](#event-6553511) | 0x0099       |     19 |              3 |
| [65535.12](#event-6553512) | 0x00AC       |     19 |              3 |

## DAT References (imed_data)

|   Index | Hex Value   |   Dec Value |
|---------|-------------|-------------|
|       0 | 0x000D      |          13 |
|       1 | 0x198DA     |      104666 |
|       2 | 0xFFFC95D4  |  4294743508 |
|       3 | 0xFFFFFE03  |  4294966787 |
|       4 | 0x19EA6     |      106150 |
|       5 | 0xFFFCA130  |  4294746416 |
|       6 | 0xFFFFFE5C  |  4294966876 |
|       7 | 0xFFFFFD00  |  4294966528 |
|       8 | 0x0019      |          25 |
|       9 | 0x001A      |          26 |
|      10 | 0x0013      |          19 |
|      11 | 0x000A      |          10 |
|      12 | 0x0000      |           0 |
|      13 | 0x0047      |          71 |
|      14 | 0x000B      |          11 |
|      15 | 0x004E      |          78 |
|      16 | 0x0BC1      |        3009 |

## Events

### Event 65535

#### Metadata

| Field        | Value   |
|--------------|---------|
| Entrypoint   | 0x0000  |
| Data Size    | 1 bytes |
| Instructions | 1       |

```
      00 01 02 03 04 05 06 07  08 09 0A 0B 0C 0D 0E 0F
      -- -- -- -- -- -- -- --  -- -- -- -- -- -- -- --
0000: 00                                                .               
```

#### Opcodes

```
  0: 0x0000 [0x00] END_REQSTACK()
```

### Event 15

#### Metadata

| Field        | Value   |
|--------------|---------|
| Entrypoint   | 0x0001  |
| Data Size    | 1 bytes |
| Instructions | 1       |

```
      00 01 02 03 04 05 06 07  08 09 0A 0B 0C 0D 0E 0F
      -- -- -- -- -- -- -- --  -- -- -- -- -- -- -- --
0000:    00                                              .              
```

#### Opcodes

```
  0: 0x0001 [0x00] END_REQSTACK()
```

### Event 16

#### Metadata

| Field        | Value   |
|--------------|---------|
| Entrypoint   | 0x0002  |
| Data Size    | 1 bytes |
| Instructions | 1       |

```
      00 01 02 03 04 05 06 07  08 09 0A 0B 0C 0D 0E 0F
      -- -- -- -- -- -- -- --  -- -- -- -- -- -- -- --
0000:       00                                            .             
```

#### Opcodes

```
  0: 0x0002 [0x00] END_REQSTACK()
```

### Event 65535.1

#### Metadata

| Field        | Value    |
|--------------|----------|
| Entrypoint   | 0x0003   |
| Data Size    | 14 bytes |
| Instructions | 4        |

```
      00 01 02 03 04 05 06 07  08 09 0A 0B 0C 0D 0E 0F
      -- -- -- -- -- -- -- --  -- -- -- -- -- -- -- --
0000:          32 00 80 1F 00  01 80 02 80 03 80 1F 01     2............
0010: 00                                                .               
```

#### Opcodes

```
  0: 0x0003 [0x32] ExtData[1]->MainSpeed = 13* * 0.1
  1: 0x0006 [0x1F] MOVE_ENTITY: EventEntity moves to X=104.666*, Z=-223.788*, Y=-0.509*
  2: 0x000E [0x1F] MOVE_ENTITY: Update entity position (mode=1)
  3: 0x0010 [0x00] END_REQSTACK()
```

### Event 65535.2

#### Metadata

| Field        | Value    |
|--------------|----------|
| Entrypoint   | 0x0011   |
| Data Size    | 14 bytes |
| Instructions | 4        |

```
      00 01 02 03 04 05 06 07  08 09 0A 0B 0C 0D 0E 0F
      -- -- -- -- -- -- -- --  -- -- -- -- -- -- -- --
0010:    32 00 80 1F 00 04 80  05 80 06 80 1F 01 00      2............. 
```

#### Opcodes

```
  0: 0x0011 [0x32] ExtData[1]->MainSpeed = 13* * 0.1
  1: 0x0014 [0x1F] MOVE_ENTITY: EventEntity moves to X=106.150*, Z=-220.880*, Y=-0.420*
  2: 0x001C [0x1F] MOVE_ENTITY: Update entity position (mode=1)
  3: 0x001E [0x00] END_REQSTACK()
```

### Event 65535.3

#### Metadata

| Field        | Value   |
|--------------|---------|
| Entrypoint   | 0x001F  |
| Data Size    | 4 bytes |
| Instructions | 2       |

```
      00 01 02 03 04 05 06 07  08 09 0A 0B 0C 0D 0E 0F
      -- -- -- -- -- -- -- --  -- -- -- -- -- -- -- --
0010:                                               39                 9
0020: 07 80 00                                          ...             
```

#### Opcodes

```
  0: 0x001F [0x39] SET_ENTITY_DIRECTION(direction=355.8°*)
  1: 0x0022 [0x00] END_REQSTACK()
```

### Event 65535.4

#### Metadata

| Field        | Value    |
|--------------|----------|
| Entrypoint   | 0x0023   |
| Data Size    | 16 bytes |
| Instructions | 4        |

```
      00 01 02 03 04 05 06 07  08 09 0A 0B 0C 0D 0E 0F
      -- -- -- -- -- -- -- --  -- -- -- -- -- -- -- --
0020:          6E F8 FF FF 7F  08 80 99 F8 FF FF 7F 1C     n............
0030: 00 17 00                                          ...             
```

#### Opcodes

```
  0: 0x0023 [0x6E] EventEntity uses emote 25*
  1: 0x002A [0x99] Wait for EventEntity animation to complete
  2: 0x002F [0x1C] WAIT(Work_Zone_1700[0] ticks)
  3: 0x0032 [0x00] END_REQSTACK()
```

### Event 65535.5

#### Metadata

| Field        | Value    |
|--------------|----------|
| Entrypoint   | 0x0033   |
| Data Size    | 16 bytes |
| Instructions | 4        |

```
      00 01 02 03 04 05 06 07  08 09 0A 0B 0C 0D 0E 0F
      -- -- -- -- -- -- -- --  -- -- -- -- -- -- -- --
0030:          6E F8 FF FF 7F  09 80 99 F8 FF FF 7F 1C     n............
0040: 00 17 00                                          ...             
```

#### Opcodes

```
  0: 0x0033 [0x6E] EventEntity uses emote 26*
  1: 0x003A [0x99] Wait for EventEntity animation to complete
  2: 0x003F [0x1C] WAIT(Work_Zone_1700[0] ticks)
  3: 0x0042 [0x00] END_REQSTACK()
```

### Event 65535.6

#### Metadata

| Field        | Value    |
|--------------|----------|
| Entrypoint   | 0x0043   |
| Data Size    | 16 bytes |
| Instructions | 4        |

```
      00 01 02 03 04 05 06 07  08 09 0A 0B 0C 0D 0E 0F
      -- -- -- -- -- -- -- --  -- -- -- -- -- -- -- --
0040:          6E F8 FF FF 7F  0A 80 99 F8 FF FF 7F 1C     n............
0050: 00 17 00                                          ...             
```

#### Opcodes

```
  0: 0x0043 [0x6E] EventEntity uses emote 19*
  1: 0x004A [0x99] Wait for EventEntity animation to complete
  2: 0x004F [0x1C] WAIT(Work_Zone_1700[0] ticks)
  3: 0x0052 [0x00] END_REQSTACK()
```

### Event 65535.7

#### Metadata

| Field        | Value    |
|--------------|----------|
| Entrypoint   | 0x0053   |
| Data Size    | 16 bytes |
| Instructions | 4        |

```
      00 01 02 03 04 05 06 07  08 09 0A 0B 0C 0D 0E 0F
      -- -- -- -- -- -- -- --  -- -- -- -- -- -- -- --
0050:          6E F8 FF FF 7F  0B 80 99 F8 FF FF 7F 1C     n............
0060: 00 17 00                                          ...             
```

#### Opcodes

```
  0: 0x0053 [0x6E] EventEntity uses emote 10*
  1: 0x005A [0x99] Wait for EventEntity animation to complete
  2: 0x005F [0x1C] WAIT(Work_Zone_1700[0] ticks)
  3: 0x0062 [0x00] END_REQSTACK()
```

### Event 65535.8

#### Metadata

| Field        | Value    |
|--------------|----------|
| Entrypoint   | 0x0063   |
| Data Size    | 19 bytes |
| Instructions | 3        |

```
      00 01 02 03 04 05 06 07  08 09 0A 0B 0C 0D 0E 0F
      -- -- -- -- -- -- -- --  -- -- -- -- -- -- -- --
0060:          66 0C 80 F8 FF  FF 7F F8 FF FF 7F 74 68     f..........th
0070: 6B 31 1C 00 17 00                                 k1....          
```

#### Opcodes

```
  0: 0x0063 [0x66] LOAD_EXT_SCHEDULER_MAIN: Load scheduler "thk1" with entities [EventEntity, EventEntity], work=0*
  1: 0x0072 [0x1C] WAIT(Work_Zone_1700[0] ticks)
  2: 0x0075 [0x00] END_REQSTACK()
```

### Event 65535.9

#### Metadata

| Field        | Value    |
|--------------|----------|
| Entrypoint   | 0x0076   |
| Data Size    | 19 bytes |
| Instructions | 3        |

```
      00 01 02 03 04 05 06 07  08 09 0A 0B 0C 0D 0E 0F
      -- -- -- -- -- -- -- --  -- -- -- -- -- -- -- --
0070:                   66 0D  80 F8 FF FF 7F F8 FF FF        f.........
0080: 7F 70 61 73 30 1C 00 17  00                       .pas0....       
```

#### Opcodes

```
  0: 0x0076 [0x66] LOAD_EXT_SCHEDULER_MAIN: Load scheduler "pas0" with entities [EventEntity, EventEntity], work=71*
  1: 0x0085 [0x1C] WAIT(Work_Zone_1700[0] ticks)
  2: 0x0088 [0x00] END_REQSTACK()
```

### Event 65535.10

#### Metadata

| Field        | Value    |
|--------------|----------|
| Entrypoint   | 0x0089   |
| Data Size    | 16 bytes |
| Instructions | 4        |

```
      00 01 02 03 04 05 06 07  08 09 0A 0B 0C 0D 0E 0F
      -- -- -- -- -- -- -- --  -- -- -- -- -- -- -- --
0080:                             6E F8 FF FF 7F 0E 80           n......
0090: 99 F8 FF FF 7F 1C 00 17  00                       .........       
```

#### Opcodes

```
  0: 0x0089 [0x6E] EventEntity uses emote 11*
  1: 0x0090 [0x99] Wait for EventEntity animation to complete
  2: 0x0095 [0x1C] WAIT(Work_Zone_1700[0] ticks)
  3: 0x0098 [0x00] END_REQSTACK()
```

### Event 65535.11

#### Metadata

| Field        | Value    |
|--------------|----------|
| Entrypoint   | 0x0099   |
| Data Size    | 19 bytes |
| Instructions | 3        |

```
      00 01 02 03 04 05 06 07  08 09 0A 0B 0C 0D 0E 0F
      -- -- -- -- -- -- -- --  -- -- -- -- -- -- -- --
0090:                             66 0F 80 F8 FF FF 7F           f......
00A0: F8 FF FF 7F 65 75 64 30  1C 00 17 00              ....eud0....    
```

#### Opcodes

```
  0: 0x0099 [0x66] LOAD_EXT_SCHEDULER_MAIN: Load scheduler "eud0" with entities [EventEntity, EventEntity], work=78*
  1: 0x00A8 [0x1C] WAIT(Work_Zone_1700[0] ticks)
  2: 0x00AB [0x00] END_REQSTACK()
```

### Event 65535.12

#### Metadata

| Field        | Value    |
|--------------|----------|
| Entrypoint   | 0x00AC   |
| Data Size    | 19 bytes |
| Instructions | 3        |

```
      00 01 02 03 04 05 06 07  08 09 0A 0B 0C 0D 0E 0F
      -- -- -- -- -- -- -- --  -- -- -- -- -- -- -- --
00A0:                                      5B 10 80 F8              [...
00B0: FF FF 7F F8 FF FF 7F 6B  69 6D 30 1C 00 17 00     .......kim0.... 
```

#### Opcodes

```
  0: 0x00AC [0x5B] LOAD_EXT_SCHEDULER: Load scheduler "kim0" with entities [EventEntity, EventEntity], work=3009*
  1: 0x00BB [0x1C] WAIT(Work_Zone_1700[0] ticks)
  2: 0x00BE [0x00] END_REQSTACK()
```
