# 17875319 - Eamonn

## Common Data

| Field            | Value               |
|------------------|---------------------|
| Zone             | Sih Gates (ID: 268) |
| Block Size       | 264 bytes           |
| Total Events     | 7                   |
| References Count | 23                  |

## List of Events

| Event ID                 | Entrypoint   |   Size |   Instructions |
|--------------------------|--------------|--------|----------------|
| [65535](#event-65535)    | 0x0000       |      1 |              1 |
| [13](#event-13)          | 0x0001       |      7 |              2 |
| [65535.1](#event-655351) | 0x0008       |     14 |              4 |
| [65535.2](#event-655352) | 0x0016       |     36 |              8 |
| [14](#event-14)          | 0x003A       |      7 |              2 |
| [65535.3](#event-655353) | 0x0041       |     37 |              9 |
| [65535.4](#event-655354) | 0x0066       |     24 |              6 |

## DAT References (imed_data)

|   Index | Hex Value   |   Dec Value |
|---------|-------------|-------------|
|       0 | 0x000D      |          13 |
|       1 | 0xFFF99E81  |  4294549121 |
|       2 | 0xFFFF13C0  |  4294906816 |
|       3 | 0xFFFFB340  |  4294947648 |
|       4 | 0x003C      |          60 |
|       5 | 0xFFF9BB9A  |  4294556570 |
|       6 | 0xFFFF2775  |  4294911861 |
|       7 | 0xFFFFACA4  |  4294945956 |
|       8 | 0x001E      |          30 |
|       9 | 0x0512      |        1298 |
|      10 | 0x0078      |         120 |
|      11 | 0x0028      |          40 |
|      12 | 0xFFF9A43E  |  4294550590 |
|      13 | 0xFFFF1CAA  |  4294909098 |
|      14 | 0xFFFFB22B  |  4294947371 |
|      15 | 0x000C      |          12 |
|      16 | 0x005A      |          90 |
|      17 | 0xFFF9A7BA  |  4294551482 |
|      18 | 0xFFFF1B10  |  4294908688 |
|      19 | 0xFFFFB1D6  |  4294947286 |
|      20 | 0xFFF9C705  |  4294559493 |
|      21 | 0xFFFF178B  |  4294907787 |
|      22 | 0xFFFFB1E0  |  4294947296 |

## Events

### Event 65535

#### Metadata

| Field        | Value   |
|--------------|---------|
| Entrypoint   | 0x0000  |
| Data Size    | 1 bytes |
| Instructions | 1       |

```
      00 01 02 03 04 05 06 07  08 09 0A 0B 0C 0D 0E 0F
      -- -- -- -- -- -- -- --  -- -- -- -- -- -- -- --
0000: 00                                                .               
```

#### Opcodes

```
  0: 0x0000 [0x00] END_REQSTACK()
```

### Event 13

#### Metadata

| Field        | Value   |
|--------------|---------|
| Entrypoint   | 0x0001  |
| Data Size    | 7 bytes |
| Instructions | 2       |

```
      00 01 02 03 04 05 06 07  08 09 0A 0B 0C 0D 0E 0F
      -- -- -- -- -- -- -- --  -- -- -- -- -- -- -- --
0000:    92 01 F8 FF FF 7F 00                            .......        
```

#### Opcodes

```
  0: 0x0001 [0x92] EventEntity->Render.Flags3 ^= 0x01
  1: 0x0007 [0x00] END_REQSTACK()
```

### Event 65535.1

#### Metadata

| Field        | Value    |
|--------------|----------|
| Entrypoint   | 0x0008   |
| Data Size    | 14 bytes |
| Instructions | 4        |

```
      00 01 02 03 04 05 06 07  08 09 0A 0B 0C 0D 0E 0F
      -- -- -- -- -- -- -- --  -- -- -- -- -- -- -- --
0000:                          32 00 80 1F 00 01 80 02          2.......
0010: 80 03 80 1F 01 00                                 ......          
```

#### Opcodes

```
  0: 0x0008 [0x32] ExtData[1]->MainSpeed = 13* * 0.1
  1: 0x000B [0x1F] MOVE_ENTITY: EventEntity moves to X=-418.175*, Z=-60.480*, Y=-19.648*
  2: 0x0013 [0x1F] MOVE_ENTITY: Update entity position (mode=1)
  3: 0x0015 [0x00] END_REQSTACK()
```

### Event 65535.2

#### Metadata

| Field        | Value    |
|--------------|----------|
| Entrypoint   | 0x0016   |
| Data Size    | 36 bytes |
| Instructions | 8        |

```
      00 01 02 03 04 05 06 07  08 09 0A 0B 0C 0D 0E 0F
      -- -- -- -- -- -- -- --  -- -- -- -- -- -- -- --
0010:                   32 04  80 1F 00 05 80 06 80 07        2.........
0020: 80 1F 01 6F 1C 08 80 5B  09 80 77 C1 10 01 77 C1  ...o...[..w...w.
0030: 10 01 61 73 65 32 1C 0A  80 00                    ..ase2....      
```

#### Opcodes

```
  0: 0x0016 [0x32] ExtData[1]->MainSpeed = 60* * 0.1
  1: 0x0019 [0x1F] MOVE_ENTITY: EventEntity moves to X=-410.726*, Z=-55.435*, Y=-21.340*
  2: 0x0021 [0x1F] MOVE_ENTITY: Update entity position (mode=1)
  3: 0x0023 [0x6F] WAIT_FRAME_DELAY: Yield until WaitTime reaches zero
  4: 0x0024 [0x1C] WAIT(30* ticks)
  5: 0x0027 [0x5B] LOAD_EXT_SCHEDULER: Load scheduler "ase2" with entities [Eamonn (ID: 17875319/0x0110C177), Eamonn (ID: 17875319/0x0110C177)], work=1298*
  6: 0x0036 [0x1C] WAIT(120* ticks)
  7: 0x0039 [0x00] END_REQSTACK()
```

### Event 14

#### Metadata

| Field        | Value   |
|--------------|---------|
| Entrypoint   | 0x003A  |
| Data Size    | 7 bytes |
| Instructions | 2       |

```
      00 01 02 03 04 05 06 07  08 09 0A 0B 0C 0D 0E 0F
      -- -- -- -- -- -- -- --  -- -- -- -- -- -- -- --
0030:                                92 01 F8 FF FF 7F            ......
0040: 00                                                .               
```

#### Opcodes

```
  0: 0x003A [0x92] EventEntity->Render.Flags3 ^= 0x01
  1: 0x0040 [0x00] END_REQSTACK()
```

### Event 65535.3

#### Metadata

| Field        | Value    |
|--------------|----------|
| Entrypoint   | 0x0041   |
| Data Size    | 37 bytes |
| Instructions | 9        |

```
      00 01 02 03 04 05 06 07  08 09 0A 0B 0C 0D 0E 0F
      -- -- -- -- -- -- -- --  -- -- -- -- -- -- -- --
0040:    32 0B 80 1F 00 0C 80  0D 80 0E 80 1F 01 1E F0   2..............
0050: FF FF 7F 1C 08 80 6E F8  FF FF 7F 0F 80 99 F8 FF  ......n.........
0060: FF 7F 1C 10 80 00                                 ......          
```

#### Opcodes

```
  0: 0x0041 [0x32] ExtData[1]->MainSpeed = 40* * 0.1
  1: 0x0044 [0x1F] MOVE_ENTITY: EventEntity moves to X=-416.706*, Z=-58.198*, Y=-19.925*
  2: 0x004C [0x1F] MOVE_ENTITY: Update entity position (mode=1)
  3: 0x004E [0x1E] EventEntity looks at LocalPlayer and starts talking
  4: 0x0053 [0x1C] WAIT(30* ticks)
  5: 0x0056 [0x6E] EventEntity uses emote 12*
  6: 0x005D [0x99] Wait for EventEntity animation to complete
  7: 0x0062 [0x1C] WAIT(90* ticks)
  8: 0x0065 [0x00] END_REQSTACK()
```

### Event 65535.4

#### Metadata

| Field        | Value    |
|--------------|----------|
| Entrypoint   | 0x0066   |
| Data Size    | 24 bytes |
| Instructions | 6        |

```
      00 01 02 03 04 05 06 07  08 09 0A 0B 0C 0D 0E 0F
      -- -- -- -- -- -- -- --  -- -- -- -- -- -- -- --
0060:                   32 0B  80 1F 00 11 80 12 80 13        2.........
0070: 80 1F 01 1F 00 14 80 15  80 16 80 1F 01 00        ..............  
```

#### Opcodes

```
  0: 0x0066 [0x32] ExtData[1]->MainSpeed = 40* * 0.1
  1: 0x0069 [0x1F] MOVE_ENTITY: EventEntity moves to X=-415.814*, Z=-58.608*, Y=-20.010*
  2: 0x0071 [0x1F] MOVE_ENTITY: Update entity position (mode=1)
  3: 0x0073 [0x1F] MOVE_ENTITY: EventEntity moves to X=-407.803*, Z=-59.509*, Y=-20.000*
  4: 0x007B [0x1F] MOVE_ENTITY: Update entity position (mode=1)
  5: 0x007D [0x00] END_REQSTACK()
```
