# 17875315 - Foreboding Presence

## Common Data

| Field            | Value               |
|------------------|---------------------|
| Zone             | Sih Gates (ID: 268) |
| Block Size       | 6856 bytes          |
| Total Events     | 3                   |
| References Count | 190                 |

## List of Events

| Event ID              | Entrypoint   |   Size |   Instructions |
|-----------------------|--------------|--------|----------------|
| [65535](#event-65535) | 0x0000       |      1 |              1 |
| [13](#event-13)       | 0x0001       |   1842 |            207 |
| [14](#event-14)       | 0x0733       |   4223 |            466 |

## DAT References (imed_data)

|   Index | Hex Value   |   Dec Value |
|---------|-------------|-------------|
|       0 | 0x00C8      |         200 |
|       1 | 0x0000      |           0 |
|       2 | 0x001B      |          27 |
|       3 | 0xFFF9ADA5  |  4294552997 |
|       4 | 0xFFFF1767  |  4294907751 |
|       5 | 0xFFFFB12B  |  4294947115 |
|       6 | 0x0864      |        2148 |
|       7 | 0xFFF99E26  |  4294549030 |
|       8 | 0xFFFF2140  |  4294910272 |
|       9 | 0xFFFFB20B  |  4294947339 |
|      10 | 0x0501      |        1281 |
|      11 | 0xFFF9AB64  |  4294552420 |
|      12 | 0xFFFF120D  |  4294906381 |
|      13 | 0xFFFFB0F0  |  4294947056 |
|      14 | 0x07E4      |        2020 |
|      15 | 0xFFF9B4D1  |  4294554833 |
|      16 | 0xFFFF121E  |  4294906398 |
|      17 | 0xFFFFB032  |  4294946866 |
|      18 | 0x0838      |        2104 |
|      19 | 0xFFF9C054  |  4294557780 |
|      20 | 0xFFFF1D68  |  4294909288 |
|      21 | 0xFFFFB1BD  |  4294947261 |
|      22 | 0x0316      |         790 |
|      23 | 0xFFF97951  |  4294539601 |
|      24 | 0xFFFF1A87  |  4294908551 |
|      25 | 0xFFFFB244  |  4294947396 |
|      26 | 0x0026      |          38 |
|      27 | 0x0005      |           5 |
|      28 | 0x022E      |         558 |
|      29 | 0x000F      |          15 |
|      30 | 0x00B4      |         180 |
|      31 | 0x1D77      |        7543 |
|      32 | 0x0014      |          20 |
|      33 | 0xFFF99F44  |  4294549316 |
|      34 | 0xFFFF1613  |  4294907411 |
|      35 | 0xFFFFB31B  |  4294947611 |
|      36 | 0x008A      |         138 |
|      37 | 0x0064      |         100 |
|      38 | 0x0512      |        1298 |
|      39 | 0x1D78      |        7544 |
|      40 | 0x001E      |          30 |
|      41 | 0x0CCC      |        3276 |
|      42 | 0x0CCD      |        3277 |
|      43 | 0x0013      |          19 |
|      44 | 0x1D79      |        7545 |
|      45 | 0x0009      |           9 |
|      46 | 0x1D7A      |        7546 |
|      47 | 0xFFF99777  |  4294547319 |
|      48 | 0xFFFF223D  |  4294910525 |
|      49 | 0xFFFFB24F  |  4294947407 |
|      50 | 0x078A      |        1930 |
|      51 | 0x0975      |        2421 |
|      52 | 0x1D7B      |        7547 |
|      53 | 0x003D      |          61 |
|      54 | 0x0CCE      |        3278 |
|      55 | 0x0015      |          21 |
|      56 | 0x1D7C      |        7548 |
|      57 | 0x1D7D      |        7549 |
|      58 | 0x1D7E      |        7550 |
|      59 | 0x1D7F      |        7551 |
|      60 | 0x001D      |          29 |
|      61 | 0x1D80      |        7552 |
|      62 | 0x1D81      |        7553 |
|      63 | 0x1D82      |        7554 |
|      64 | 0x003C      |          60 |
|      65 | 0x0006      |           6 |
|      66 | 0x0008      |           8 |
|      67 | 0x0BE6      |        3046 |
|      68 | 0x0078      |         120 |
|      69 | 0x005A      |          90 |
|      70 | 0x0028      |          40 |
|      71 | 0x00C9      |         201 |
|      72 | 0x0039      |          57 |
|      73 | 0xFFF99AE9  |  4294548201 |
|      74 | 0xFFFF1ABC  |  4294908604 |
|      75 | 0xFFFFB33A  |  4294947642 |
|      76 | 0xFFFFF925  |  4294965541 |
|      77 | 0xFFF99305  |  4294546181 |
|      78 | 0xFFFF1906  |  4294908166 |
|      79 | 0xFFFFB360  |  4294947680 |
|      80 | 0x0B50      |        2896 |
|      81 | 0xFFF99936  |  4294547766 |
|      82 | 0xFFFF1230  |  4294906416 |
|      83 | 0xFFFFB348  |  4294947656 |
|      84 | 0x09B8      |        2488 |
|      85 | 0xFFF9BB9A  |  4294556570 |
|      86 | 0xFFFF2775  |  4294911861 |
|      87 | 0xFFFFACA4  |  4294945956 |
|      88 | 0xFFF98BFC  |  4294544380 |
|      89 | 0xFFFF2356  |  4294910806 |
|      90 | 0xFFFFB340  |  4294947648 |
|      91 | 0x015F      |         351 |
|      92 | 0x0001      |           1 |
|      93 | 0x1D83      |        7555 |
|      94 | 0x1D84      |        7556 |
|      95 | 0x0062      |          98 |
|      96 | 0x1D85      |        7557 |
|      97 | 0x0080      |         128 |
|      98 | 0x1D86      |        7558 |
|      99 | 0xFFF9899D  |  4294543773 |
|     100 | 0xFFFF2397  |  4294910871 |
|     101 | 0x1D87      |        7559 |
|     102 | 0x1D88      |        7560 |
|     103 | 0x0046      |          70 |
|     104 | 0x1D89      |        7561 |
|     105 | 0x1D8A      |        7562 |
|     106 | 0x1D8B      |        7563 |
|     107 | 0x1D8C      |        7564 |
|     108 | 0x1D8D      |        7565 |
|     109 | 0x1D8E      |        7566 |
|     110 | 0x02C1      |         705 |
|     111 | 0x0002      |           2 |
|     112 | 0xFFF8A5F2  |  4294485490 |
|     113 | 0xFFFA6E1C  |  4294602268 |
|     114 | 0x004A      |          74 |
|     115 | 0x0C04      |        3076 |
|     116 | 0xFFF8A5B9  |  4294485433 |
|     117 | 0xFFFA81EE  |  4294607342 |
|     118 | 0xFFFFFFCE  |  4294967246 |
|     119 | 0x01CC      |         460 |
|     120 | 0x0B97      |        2967 |
|     121 | 0x00D7      |         215 |
|     122 | 0x0096      |         150 |
|     123 | 0x007F      |         127 |
|     124 | 0x1D8F      |        7567 |
|     125 | 0x1D90      |        7568 |
|     126 | 0x1D91      |        7569 |
|     127 | 0x00D2      |         210 |
|     128 | 0xFFF8A918  |  4294486296 |
|     129 | 0xFFFA85A8  |  4294608296 |
|     130 | 0xFFFEDEF1  |  4294893297 |
|     131 | 0x0DF1      |        3569 |
|     132 | 0x0004      |           4 |
|     133 | 0x00D5      |         213 |
|     134 | 0x1D92      |        7570 |
|     135 | 0x1D93      |        7571 |
|     136 | 0x1D94      |        7572 |
|     137 | 0x1D95      |        7573 |
|     138 | 0x1D96      |        7574 |
|     139 | 0x1D97      |        7575 |
|     140 | 0xFFF8B803  |  4294490115 |
|     141 | 0xFFFA7B73  |  4294605683 |
|     142 | 0xFFFEE2D8  |  4294894296 |
|     143 | 0x1D98      |        7576 |
|     144 | 0x1D99      |        7577 |
|     145 | 0x1D9A      |        7578 |
|     146 | 0x1D9B      |        7579 |
|     147 | 0x1D9C      |        7580 |
|     148 | 0x1D9D      |        7581 |
|     149 | 0x1D9E      |        7582 |
|     150 | 0x00BE      |         190 |
|     151 | 0x02C8      |         712 |
|     152 | 0xFFF9A43E  |  4294550590 |
|     153 | 0xFFFF1CAA  |  4294909098 |
|     154 | 0xFFFFB22B  |  4294947371 |
|     155 | 0x0A7A      |        2682 |
|     156 | 0xFFF98E42  |  4294544962 |
|     157 | 0xFFFF15C5  |  4294907333 |
|     158 | 0xFFFFB31F  |  4294947615 |
|     159 | 0x1D9F      |        7583 |
|     160 | 0x1DA0      |        7584 |
|     161 | 0x1DA1      |        7585 |
|     162 | 0x1DA2      |        7586 |
|     163 | 0x1DA3      |        7587 |
|     164 | 0x1DA4      |        7588 |
|     165 | 0x1DA5      |        7589 |
|     166 | 0x1DA6      |        7590 |
|     167 | 0x1DA7      |        7591 |
|     168 | 0x1DA8      |        7592 |
|     169 | 0x1DA9      |        7593 |
|     170 | 0x08B0      |        2224 |
|     171 | 0x1DAA      |        7594 |
|     172 | 0x1DAB      |        7595 |
|     173 | 0x1DAC      |        7596 |
|     174 | 0x1DAD      |        7597 |
|     175 | 0x0045      |          69 |
|     176 | 0xFFF99191  |  4294545809 |
|     177 | 0xFFFF1E09  |  4294909449 |
|     178 | 0xFFFFB352  |  4294947666 |
|     179 | 0x1DAE      |        7598 |
|     180 | 0x1DAF      |        7599 |
|     181 | 0xFFF99CE3  |  4294548707 |
|     182 | 0xFFFF2135  |  4294910261 |
|     183 | 0xFFFFB208  |  4294947336 |
|     184 | 0x1DB0      |        7600 |
|     185 | 0x1DB1      |        7601 |
|     186 | 0xFFF9B1A9  |  4294554025 |
|     187 | 0xFFFF1816  |  4294907926 |
|     188 | 0xFFFFB10E  |  4294947086 |
|     189 | 0x0F7C      |        3964 |

## Events

### Event 65535

#### Metadata

| Field        | Value   |
|--------------|---------|
| Entrypoint   | 0x0000  |
| Data Size    | 1 bytes |
| Instructions | 1       |

```
      00 01 02 03 04 05 06 07  08 09 0A 0B 0C 0D 0E 0F
      -- -- -- -- -- -- -- --  -- -- -- -- -- -- -- --
0000: 00                                                .               
```

#### Opcodes

```
  0: 0x0000 [0x00] END_REQSTACK()
```

### Event 13

#### Metadata

| Field        | Value      |
|--------------|------------|
| Entrypoint   | 0x0001     |
| Data Size    | 1842 bytes |
| Instructions | 207        |

```
      00 01 02 03 04 05 06 07  08 09 0A 0B 0C 0D 0E 0F
      -- -- -- -- -- -- -- --  -- -- -- -- -- -- -- --
0000:    42 45 00 80 F0 FF FF  7F F0 FF FF 7F 66 64 6F   BE..........fdo
0010: 31 01 80 55 00 80 F0 FF  FF 7F F0 FF FF 7F 66 64  1..U..........fd
0020: 6F 31 46 01 38 02 80 2F  00 78 C1 10 01 2F 00 75  o1F.8../.x.../.u
0030: C1 10 01 2F 00 76 C1 10  01 2F 00 77 C1 10 01 2F  .../.v.../.w.../
0040: 00 79 C1 10 01 4E 00 78  C1 10 01 4E 00 76 C1 10  .y...N.x...N.v..
0050: 01 4E 00 77 C1 10 01 59  05 75 C1 10 01 01 BA 78  .N.w...Y.u.....x
0060: C1 10 01 03 80 04 80 05  80 06 80 BA F0 FF FF 7F  ................
0070: 07 80 08 80 09 80 0A 80  BA 76 C1 10 01 0B 80 0C  .........v......
0080: 80 0D 80 0E 80 BA 77 C1  10 01 0F 80 10 80 11 80  ......w.........
0090: 12 80 BA 79 C1 10 01 13  80 14 80 15 80 16 80 BA  ...y............
00A0: 75 C1 10 01 17 80 18 80  19 80 1A 80 80 78 C1 10  u............x..
00B0: 01 80 76 C1 10 01 80 77  C1 10 01 80 F0 FF FF 7F  ..v....w........
00C0: 79 00 F0 FF FF 7F 76 C1  10 01 27 05 76 C1 10 01  y.....v...'.v...
00D0: 02 1C 1B 80 27 05 78 C1  10 01 02 1C 1B 80 27 05  ....'.x.......'.
00E0: 77 C1 10 01 02 45 1C 80  F8 FF FF 7F F8 FF FF 7F  w....E..........
00F0: 73 31 35 32 01 80 1C 1D  80 45 00 80 F0 FF FF 7F  s152.....E......
0100: F0 FF FF 7F 66 64 69 31  01 80 1C 1E 80 52 1C 80  ....fdi1.....R..
0110: F8 FF FF 7F F8 FF FF 7F  73 31 35 32 45 1C 80 F8  ........s152E...
0120: FF FF 7F F8 FF FF 7F 73  31 35 33 01 80 2B 76 C1  .......s153..+v.
0130: 10 01 1F 80 23 2A 05 76  C1 10 01 55 1C 80 F8 FF  ....#*.v...U....
0140: FF 7F F8 FF FF 7F 73 31  35 33 45 00 80 F0 FF FF  ......s153E.....
0150: 7F F0 FF FF 7F 6F 76 6C  31 01 80 45 1C 80 F8 FF  .....ovl1..E....
0160: FF 7F F8 FF FF 7F 73 31  35 34 01 80 1C 20 80 4E  ......s154... .N
0170: 00 79 C1 10 01 BA 77 C1  10 01 21 80 22 80 23 80  .y....w...!.".#.
0180: 24 80 7C 00 77 C1 10 01  81 00 77 C1 10 01 1C 25  $.|.w.....w....%
0190: 80 5B 26 80 77 C1 10 01  77 C1 10 01 61 73 65 32  .[&.w...w...ase2
01A0: 1C 1B 80 52 1C 80 F8 FF  FF 7F F8 FF FF 7F 73 31  ...R..........s1
01B0: 35 34 45 1C 80 F8 FF FF  7F F8 FF FF 7F 73 31 35  54E..........s15
01C0: 35 01 80 2B 77 C1 10 01  27 80 4B F0 FF FF 7F 24  5..+w...'.K....$
01D0: 80 4B 78 C1 10 01 24 80  79 00 F0 FF FF 7F 79 C1  .Kx...$.y.....y.
01E0: 10 01 1C 28 80 4B 76 C1  10 01 24 80 23 27 05 79  ...(.Kv...$.#'.y
01F0: C1 10 01 02 1C 1D 80 52  1C 80 F8 FF FF 7F F8 FF  .......R........
0200: FF 7F 73 31 35 35 45 1C  80 F8 FF FF 7F F8 FF FF  ..s155E.........
0210: 7F 73 31 35 36 01 80 1C  1E 80 81 00 78 C1 10 01  .s156.......x...
0220: 7C 00 78 C1 10 01 5B 29  80 78 C1 10 01 78 C1 10  |.x...[).x...x..
0230: 01 66 62 30 31 5B 2A 80  78 C1 10 01 78 C1 10 01  .fb01[*.x...x...
0240: 75 64 65 30 52 1C 80 F8  FF FF 7F F8 FF FF 7F 73  ude0R..........s
0250: 31 35 36 45 1C 80 F8 FF  FF 7F F8 FF FF 7F 73 31  156E..........s1
0260: 35 37 01 80 6E 76 C1 10  01 2B 80 99 76 C1 10 01  57..nv...+..v...
0270: 2B 78 C1 10 01 2C 80 23  6B 69 64 6C 30 77 C1 10  +x...,.#kidl0w..
0280: 01 4E 01 79 C1 10 01 4A  77 C1 10 01 78 C1 10 01  .N.y...Jw...x...
0290: 1C 28 80 53 78 C1 10 01  78 C1 10 01 75 64 65 30  .(.Sx...x...ude0
02A0: 52 1C 80 F8 FF FF 7F F8  FF FF 7F 73 31 35 37 45  R..........s157E
02B0: 1C 80 F8 FF FF 7F F8 FF  FF 7F 73 31 35 38 01 80  ..........s158..
02C0: 66 2D 80 77 C1 10 01 77  C1 10 01 74 6C 6B 30 2B  f-.w...w...tlk0+
02D0: 77 C1 10 01 2E 80 23 5B  29 80 78 C1 10 01 78 C1  w.....#[).x...x.
02E0: 10 01 66 30 30 30 4E 00  75 C1 10 01 BA F0 FF FF  ..f000N.u.......
02F0: 7F 2F 80 30 80 31 80 32  80 80 F0 FF FF 7F 80 75  ./.0.1.2.......u
0300: C1 10 01 4A 76 C1 10 01  75 C1 10 01 4A F0 FF FF  ...Jv...u...J...
0310: 7F 75 C1 10 01 66 2D 80  77 C1 10 01 77 C1 10 01  .u...f-.w...w...
0320: 74 6C 6B 31 1C 28 80 5B  33 80 75 C1 10 01 75 C1  tlk1.(.[3.u...u.
0330: 10 01 67 61 6B 30 52 1C  80 F8 FF FF 7F F8 FF FF  ..gak0R.........
0340: 7F 73 31 35 38 45 1C 80  F8 FF FF 7F F8 FF FF 7F  .s158E..........
0350: 73 31 35 39 01 80 6E 76  C1 10 01 01 80 99 76 C1  s159..nv......v.
0360: 10 01 2B 76 C1 10 01 34  80 1C 28 80 6B 69 64 6C  ..+v...4..(.kidl
0370: 30 78 C1 10 01 4A 78 C1  10 01 75 C1 10 01 7B 78  0x...Jx...u...{x
0380: C1 10 01 1C 28 80 4A 77  C1 10 01 75 C1 10 01 23  ....(.Jw...u...#
0390: 5C 00 35 80 5C 01 35 80  5C 02 35 80 5C 03 35 80  \.5.\.5.\.5.\.5.
03A0: 9A 7C 00 78 C1 10 01 81  00 78 C1 10 01 5B 29 80  .|.x.....x...[).
03B0: 78 C1 10 01 78 C1 10 01  66 65 30 30 5B 36 80 78  x...x...fe00[6.x
03C0: C1 10 01 78 C1 10 01 67  65 67 30 52 1C 80 F8 FF  ...x...geg0R....
03D0: FF 7F F8 FF FF 7F 73 31  35 39 45 1C 80 F8 FF FF  ......s159E.....
03E0: 7F F8 FF FF 7F 73 31 36  30 01 80 6E F0 FF FF 7F  .....s160..n....
03F0: 37 80 99 F0 FF FF 7F 2B  78 C1 10 01 38 80 23 27  7......+x...8.#'
0400: 05 77 C1 10 01 03 52 1C  80 F8 FF FF 7F F8 FF FF  .w....R.........
0410: 7F 73 31 36 30 45 1C 80  F8 FF FF 7F F8 FF FF 7F  .s160E..........
0420: 73 31 36 31 01 80 2B 77  C1 10 01 39 80 23 2A 05  s161..+w...9.#*.
0430: 77 C1 10 01 52 1C 80 F8  FF FF 7F F8 FF FF 7F 73  w...R..........s
0440: 31 36 31 45 1C 80 F8 FF  FF 7F F8 FF FF 7F 73 31  161E..........s1
0450: 36 32 01 80 5B 29 80 78  C1 10 01 78 C1 10 01 66  62..[).x...x...f
0460: 65 30 31 2B 78 C1 10 01  3A 80 23 5B 29 80 78 C1  e01+x...:.#[).x.
0470: 10 01 78 C1 10 01 66 65  30 30 52 1C 80 F8 FF FF  ..x...fe00R.....
0480: 7F F8 FF FF 7F 73 31 36  32 45 1C 80 F8 FF FF 7F  .....s162E......
0490: F8 FF FF 7F 73 31 36 33  01 80 6B 69 64 6C 30 77  ....s163..kidl0w
04A0: C1 10 01 4A 77 C1 10 01  78 C1 10 01 1C 28 80 2B  ...Jw...x....(.+
04B0: 78 C1 10 01 3B 80 23 52  1C 80 F8 FF FF 7F F8 FF  x...;.#R........
04C0: FF 7F 73 31 36 33 45 1C  80 F8 FF FF 7F F8 FF FF  ..s163E.........
04D0: 7F 73 31 36 34 01 80 6E  77 C1 10 01 3C 80 99 77  .s164..nw...<..w
04E0: C1 10 01 2B 77 C1 10 01  3D 80 23 52 1C 80 F8 FF  ...+w...=.#R....
04F0: FF 7F F8 FF FF 7F 73 31  36 34 45 1C 80 F8 FF FF  ......s164E.....
0500: 7F F8 FF FF 7F 73 31 36  35 01 80 5B 29 80 78 C1  .....s165..[).x.
0510: 10 01 78 C1 10 01 66 65  30 31 2B 78 C1 10 01 3E  ..x...fe01+x...>
0520: 80 23 6B 69 64 6C 30 75  C1 10 01 5B 29 80 78 C1  .#kidl0u...[).x.
0530: 10 01 78 C1 10 01 66 65  30 30 52 1C 80 F8 FF FF  ..x...fe00R.....
0540: 7F F8 FF FF 7F 73 31 36  35 45 1C 80 F8 FF FF 7F  .....s165E......
0550: F8 FF FF 7F 73 31 36 36  01 80 27 05 75 C1 10 01  ....s166..'.u...
0560: 02 7B F0 FF FF 7F 1C 28  80 52 1C 80 F8 FF FF 7F  .{.....(.R......
0570: F8 FF FF 7F 73 31 36 36  45 1C 80 F8 FF FF 7F F8  ....s166E.......
0580: FF FF 7F 73 31 36 37 01  80 6E 76 C1 10 01 3C 80  ...s167..nv...<.
0590: 99 76 C1 10 01 2B 76 C1  10 01 3F 80 23 1C 40 80  .v...+v...?.#.@.
05A0: 27 05 F0 FF FF 7F 08 1C  1D 80 52 1C 80 F8 FF FF  '.........R.....
05B0: 7F F8 FF FF 7F 73 31 36  37 02 87 7F 1B 80 80 D5  .....s167.......
05C0: 05 45 1C 80 F8 FF FF 7F  F8 FF FF 7F 73 32 34 33  .E..........s243
05D0: 01 80 01 1E 06 02 87 7F  41 80 80 F1 05 45 1C 80  ........A....E..
05E0: F8 FF FF 7F F8 FF FF 7F  73 32 34 33 01 80 01 1E  ........s243....
05F0: 06 02 87 7F 42 80 80 0D  06 45 1C 80 F8 FF FF 7F  ....B....E......
0600: F8 FF FF 7F 73 32 34 34  01 80 01 1E 06 45 1C 80  ....s244.....E..
0610: F8 FF FF 7F F8 FF FF 7F  73 31 36 38 01 80 2A 05  ........s168..*.
0620: F0 FF FF 7F 27 05 F0 FF  FF 7F 04 5B 43 80 75 C1  ....'......[C.u.
0630: 10 01 75 C1 10 01 6F 72  7A 31 1C 44 80 52 1C 80  ..u...orz1.D.R..
0640: F8 FF FF 7F F8 FF FF 7F  73 31 36 38 52 1C 80 F8  ........s168R...
0650: FF FF 7F F8 FF FF 7F 73  32 34 33 52 1C 80 F8 FF  .......s243R....
0660: FF 7F F8 FF FF 7F 73 32  34 34 45 1C 80 F8 FF FF  ......s244E.....
0670: 7F F8 FF FF 7F 73 31 36  39 01 80 1C 45 80 52 1C  .....s169...E.R.
0680: 80 F8 FF FF 7F F8 FF FF  7F 73 31 36 39 45 1C 80  .........s169E..
0690: F8 FF FF 7F F8 FF FF 7F  73 32 34 31 01 80 1C 46  ........s241...F
06A0: 80 5D 01 80 44 80 45 47  80 F0 FF FF 7F F0 FF FF  .]..D.EG........
06B0: 7F 77 68 6F 30 01 80 55  47 80 F0 FF FF 7F F0 FF  .who0..UG.......
06C0: FF 7F 77 68 6F 30 52 1C  80 F8 FF FF 7F F8 FF FF  ..who0R.........
06D0: 7F 73 32 34 31 45 00 80  F0 FF FF 7F F0 FF FF 7F  .s241E..........
06E0: 66 64 6F 31 01 80 55 00  80 F0 FF FF 7F F0 FF FF  fdo1..U.........
06F0: 7F 66 64 6F 31 45 47 80  F0 FF FF 7F F0 FF FF 7F  .fdo1EG.........
0700: 77 68 69 30 01 80 27 05  F0 FF FF 7F 05 5C 00 01  whi0..'......\..
0710: 80 5C 01 01 80 5C 02 48  80 5C 03 48 80 9A 46 00  .\...\.H.\.H..F.
0720: 45 00 80 F0 FF FF 7F F0  FF FF 7F 66 64 69 32 01  E..........fdi2.
0730: 80 21 00                                          .!.             
```

#### Opcodes

```
  0: 0x0001 [0x42] SET_CLI_EVENT_CANCEL_DATA()
  1: 0x0002 [0x45] LOAD_SCHEDULED_TASK: Load scheduler "fdo1" with entities [LocalPlayer, LocalPlayer], work=[200*, 0*]
  2: 0x0013 [0x55] WAIT_LOAD_SCHEDULER: Wait for scheduler "fdo1" with entities [LocalPlayer, LocalPlayer], work=200*
  3: 0x0022 [0x46] CAMERA_CONTROL: Disable user control
  4: 0x0024 [0x38] SET_CLIENT_EVENT_MODE(mode=27*)
  5: 0x0027 [0x2F] Lhe Lhangavo (ID: 17875320/0x0110C178)->Render.Flags0 &= ~0x80000 // Bit 19
  6: 0x002D [0x2F] Unnamed NPC (ID: 17875317/0x0110C175)->Render.Flags0 &= ~0x80000 // Bit 19
  7: 0x0033 [0x2F] Bilp (ID: 17875318/0x0110C176)->Render.Flags0 &= ~0x80000 // Bit 19
  8: 0x0039 [0x2F] Eamonn (ID: 17875319/0x0110C177)->Render.Flags0 &= ~0x80000 // Bit 19
  9: 0x003F [0x2F] ??? (ID: 17875321/0x0110C179)->Render.Flags0 &= ~0x80000 // Bit 19
 10: 0x0045 [0x4E] SET_ENTITY_HIDE_FLAG: Show Lhe Lhangavo (ID: 17875320/0x0110C178)
 11: 0x004B [0x4E] SET_ENTITY_HIDE_FLAG: Show Bilp (ID: 17875318/0x0110C176)
 12: 0x0051 [0x4E] SET_ENTITY_HIDE_FLAG: Show Eamonn (ID: 17875319/0x0110C177)
 13: 0x0057 [0x59] UPDATE_ENTITY_DATA: Unnamed NPC (ID: 17875317/0x0110C175)->Render.Flags0 |= 0x200000
 14: 0x005E [0xBA] SET_ENTITY_POSITION(entity_id=Lhe Lhangavo (ID: 17875320/0x0110C178), pos_x=-414.299*, pos_z=-59.545*, pos_y=-20.181*, direction=188.8°*)
 15: 0x006B [0xBA] SET_ENTITY_POSITION(entity_id=LocalPlayer, pos_x=-418.266*, pos_z=-57.024*, pos_y=-19.957*, direction=112.6°*)
 16: 0x0078 [0xBA] SET_ENTITY_POSITION(entity_id=Bilp (ID: 17875318/0x0110C176), pos_x=-414.876*, pos_z=-60.915*, pos_y=-20.240*, direction=177.5°*)
 17: 0x0085 [0xBA] SET_ENTITY_POSITION(entity_id=Eamonn (ID: 17875319/0x0110C177), pos_x=-412.463*, pos_z=-60.898*, pos_y=-20.430*, direction=184.9°*)
 18: 0x0092 [0xBA] SET_ENTITY_POSITION(entity_id=??? (ID: 17875321/0x0110C179), pos_x=-409.516*, pos_z=-58.008*, pos_y=-20.035*, direction=69.4°*)
 19: 0x009F [0xBA] SET_ENTITY_POSITION(entity_id=Unnamed NPC (ID: 17875317/0x0110C175), pos_x=-427.695*, pos_z=-58.745*, pos_y=-19.900*, direction=3.3°*)
 20: 0x00AC [0x80] LOAD_WAIT(entity=Lhe Lhangavo (ID: 17875320/0x0110C178))
 21: 0x00B1 [0x80] LOAD_WAIT(entity=Bilp (ID: 17875318/0x0110C176))
 22: 0x00B6 [0x80] LOAD_WAIT(entity=Eamonn (ID: 17875319/0x0110C177))
 23: 0x00BB [0x80] LOAD_WAIT(entity=LocalPlayer)
 24: 0x00C0 [0x79] LocalPlayer looks at Bilp (ID: 17875318/0x0110C176) (Basic look)
 25: 0x00CA [0x27] REQ_SET(priority=0x05, entity_id=Bilp (ID: 17875318/0x0110C176), tag_num=0x02)
 26: 0x00D1 [0x1C] WAIT(5* ticks)
 27: 0x00D4 [0x27] REQ_SET(priority=0x05, entity_id=Lhe Lhangavo (ID: 17875320/0x0110C178), tag_num=0x02)
 28: 0x00DB [0x1C] WAIT(5* ticks)
 29: 0x00DE [0x27] REQ_SET(priority=0x05, entity_id=Eamonn (ID: 17875319/0x0110C177), tag_num=0x02)
 30: 0x00E5 [0x45] LOAD_SCHEDULED_TASK: Load scheduler "s152" with entities [EventEntity, EventEntity], work=[558*, 0*]
 31: 0x00F6 [0x1C] WAIT(15* ticks)
 32: 0x00F9 [0x45] LOAD_SCHEDULED_TASK: Load scheduler "fdi1" with entities [LocalPlayer, LocalPlayer], work=[200*, 0*]
 33: 0x010A [0x1C] WAIT(180* ticks)
 34: 0x010D [0x52] END_LOAD_SCHEDULER: End scheduler "s152" with entities [EventEntity, EventEntity], work=558*
 35: 0x011C [0x45] LOAD_SCHEDULED_TASK: Load scheduler "s153" with entities [EventEntity, EventEntity], work=[558*, 0*]
 36: 0x012D [0x2B] Bilp (ID: 17875318/0x0110C176) [7543*]:
    → "It was somewhere around here."
 37: 0x0134 [0x23] WAIT_FOR_DIALOG_INTERACTION
 38: 0x0135 [0x2A] GET_REQ_LEVEL(level=5, entity_id=Bilp (ID: 17875318/0x0110C176))
 39: 0x013B [0x55] WAIT_LOAD_SCHEDULER: Wait for scheduler "s153" with entities [EventEntity, EventEntity], work=558*
 40: 0x014A [0x45] LOAD_SCHEDULED_TASK: Load scheduler "ovl1" with entities [LocalPlayer, LocalPlayer], work=[200*, 0*]
 41: 0x015B [0x45] LOAD_SCHEDULED_TASK: Load scheduler "s154" with entities [EventEntity, EventEntity], work=[558*, 0*]
 42: 0x016C [0x1C] WAIT(20* ticks)
 43: 0x016F [0x4E] SET_ENTITY_HIDE_FLAG: Show ??? (ID: 17875321/0x0110C179)
 44: 0x0175 [0xBA] SET_ENTITY_POSITION(entity_id=Eamonn (ID: 17875319/0x0110C177), pos_x=-417.980*, pos_z=-59.885*, pos_y=-19.685*, direction=12.1°*)
 45: 0x0182 [0x7C] Eamonn (ID: 17875319/0x0110C177)->Render.Flags2 |= 0x00
 46: 0x0188 [0x81] SET_ENTITY_BLINKING(blink_flag=0x00, entity=Eamonn (ID: 17875319/0x0110C177))
 47: 0x018E [0x1C] WAIT(100* ticks)
 48: 0x0191 [0x5B] LOAD_EXT_SCHEDULER: Load scheduler "ase2" with entities [Eamonn (ID: 17875319/0x0110C177), Eamonn (ID: 17875319/0x0110C177)], work=1298*
 49: 0x01A0 [0x1C] WAIT(5* ticks)
 50: 0x01A3 [0x52] END_LOAD_SCHEDULER: End scheduler "s154" with entities [EventEntity, EventEntity], work=558*
 51: 0x01B2 [0x45] LOAD_SCHEDULED_TASK: Load scheduler "s155" with entities [EventEntity, EventEntity], work=[558*, 0*]
 52: 0x01C3 [0x2B] Eamonn (ID: 17875319/0x0110C177) [7544*]:
    → "Aaaaaaaaa!"
 53: 0x01CA [0x4B] UPDATE_ENTITY_YAW(entity=LocalPlayer, yaw=0.8°*)
 54: 0x01D1 [0x4B] UPDATE_ENTITY_YAW(entity=Lhe Lhangavo (ID: 17875320/0x0110C178), yaw=0.8°*)
 55: 0x01D8 [0x79] LocalPlayer looks at ??? (ID: 17875321/0x0110C179) (Basic look)
 56: 0x01E2 [0x1C] WAIT(30* ticks)
 57: 0x01E5 [0x4B] UPDATE_ENTITY_YAW(entity=Bilp (ID: 17875318/0x0110C176), yaw=0.8°*)
 58: 0x01EC [0x23] WAIT_FOR_DIALOG_INTERACTION
 59: 0x01ED [0x27] REQ_SET(priority=0x05, entity_id=??? (ID: 17875321/0x0110C179), tag_num=0x02)
 60: 0x01F4 [0x1C] WAIT(15* ticks)
 61: 0x01F7 [0x52] END_LOAD_SCHEDULER: End scheduler "s155" with entities [EventEntity, EventEntity], work=558*
 62: 0x0206 [0x45] LOAD_SCHEDULED_TASK: Load scheduler "s156" with entities [EventEntity, EventEntity], work=[558*, 0*]
 63: 0x0217 [0x1C] WAIT(180* ticks)
 64: 0x021A [0x81] SET_ENTITY_BLINKING(blink_flag=0x00, entity=Lhe Lhangavo (ID: 17875320/0x0110C178))
 65: 0x0220 [0x7C] Lhe Lhangavo (ID: 17875320/0x0110C178)->Render.Flags2 |= 0x00
 66: 0x0226 [0x5B] LOAD_EXT_SCHEDULER: Load scheduler "fb01" with entities [Lhe Lhangavo (ID: 17875320/0x0110C178), Lhe Lhangavo (ID: 17875320/0x0110C178)], work=3276*
 67: 0x0235 [0x5B] LOAD_EXT_SCHEDULER: Load scheduler "ude0" with entities [Lhe Lhangavo (ID: 17875320/0x0110C178), Lhe Lhangavo (ID: 17875320/0x0110C178)], work=3277*
 68: 0x0244 [0x52] END_LOAD_SCHEDULER: End scheduler "s156" with entities [EventEntity, EventEntity], work=558*
 69: 0x0253 [0x45] LOAD_SCHEDULED_TASK: Load scheduler "s157" with entities [EventEntity, EventEntity], work=[558*, 0*]
 70: 0x0264 [0x6E] Bilp (ID: 17875318/0x0110C176) uses emote 19*
 71: 0x026B [0x99] Wait for Bilp (ID: 17875318/0x0110C176) animation to complete
 72: 0x0270 [0x2B] Lhe Lhangavo (ID: 17875320/0x0110C178) [7545*]:
    → "This!? You were worried about a funguarrr!?"
 73: 0x0277 [0x23] WAIT_FOR_DIALOG_INTERACTION
 74: 0x0278 [0x6B] STOP_AND_IDLE: Eamonn (ID: 17875319/0x0110C177) stops current action and resets to idle (animation="idl0")
 75: 0x0281 [0x4E] SET_ENTITY_HIDE_FLAG: Hide ??? (ID: 17875321/0x0110C179)
 76: 0x0287 [0x4A] Eamonn (ID: 17875319/0x0110C177) looks at Lhe Lhangavo (ID: 17875320/0x0110C178)
 77: 0x0290 [0x1C] WAIT(30* ticks)
 78: 0x0293 [0x53] WAIT_SCHEDULER_TASK: Wait for scheduler "ude0" with entities [Lhe Lhangavo (ID: 17875320/0x0110C178), Lhe Lhangavo (ID: 17875320/0x0110C178)]
 79: 0x02A0 [0x52] END_LOAD_SCHEDULER: End scheduler "s157" with entities [EventEntity, EventEntity], work=558*
 80: 0x02AF [0x45] LOAD_SCHEDULED_TASK: Load scheduler "s158" with entities [EventEntity, EventEntity], work=[558*, 0*]
 81: 0x02C0 [0x66] LOAD_EXT_SCHEDULER_MAIN: Load scheduler "tlk0" with entities [Eamonn (ID: 17875319/0x0110C177), Eamonn (ID: 17875319/0x0110C177)], work=9*
 82: 0x02CF [0x2B] Eamonn (ID: 17875319/0x0110C177) [7546*]:
    → "No, I was..."
 83: 0x02D6 [0x23] WAIT_FOR_DIALOG_INTERACTION
 84: 0x02D7 [0x5B] LOAD_EXT_SCHEDULER: Load scheduler "f000" with entities [Lhe Lhangavo (ID: 17875320/0x0110C178), Lhe Lhangavo (ID: 17875320/0x0110C178)], work=3276*
 85: 0x02E6 [0x4E] SET_ENTITY_HIDE_FLAG: Show Unnamed NPC (ID: 17875317/0x0110C175)
 86: 0x02EC [0xBA] SET_ENTITY_POSITION(entity_id=LocalPlayer, pos_x=-419.977*, pos_z=-56.771*, pos_y=-19.889*, direction=169.6°*)
 87: 0x02F9 [0x80] LOAD_WAIT(entity=LocalPlayer)
 88: 0x02FE [0x80] LOAD_WAIT(entity=Unnamed NPC (ID: 17875317/0x0110C175))
 89: 0x0303 [0x4A] Bilp (ID: 17875318/0x0110C176) looks at Unnamed NPC (ID: 17875317/0x0110C175)
 90: 0x030C [0x4A] LocalPlayer looks at Unnamed NPC (ID: 17875317/0x0110C175)
 91: 0x0315 [0x66] LOAD_EXT_SCHEDULER_MAIN: Load scheduler "tlk1" with entities [Eamonn (ID: 17875319/0x0110C177), Eamonn (ID: 17875319/0x0110C177)], work=9*
 92: 0x0324 [0x1C] WAIT(30* ticks)
 93: 0x0327 [0x5B] LOAD_EXT_SCHEDULER: Load scheduler "gak0" with entities [Unnamed NPC (ID: 17875317/0x0110C175), Unnamed NPC (ID: 17875317/0x0110C175)], work=2421*
 94: 0x0336 [0x52] END_LOAD_SCHEDULER: End scheduler "s158" with entities [EventEntity, EventEntity], work=558*
 95: 0x0345 [0x45] LOAD_SCHEDULED_TASK: Load scheduler "s159" with entities [EventEntity, EventEntity], work=[558*, 0*]
 96: 0x0356 [0x6E] Bilp (ID: 17875318/0x0110C176) uses emote 0*
 97: 0x035D [0x99] Wait for Bilp (ID: 17875318/0x0110C176) animation to complete
 98: 0x0362 [0x2B] Bilp (ID: 17875318/0x0110C176) [7547*]:
    → "B-behind you!"
 99: 0x0369 [0x1C] WAIT(30* ticks)
100: 0x036C [0x6B] STOP_AND_IDLE: Lhe Lhangavo (ID: 17875320/0x0110C178) stops current action and resets to idle (animation="idl0")
101: 0x0375 [0x4A] Lhe Lhangavo (ID: 17875320/0x0110C178) looks at Unnamed NPC (ID: 17875317/0x0110C175)
102: 0x037E [0x7B] Lhe Lhangavo (ID: 17875320/0x0110C178) stops talking
103: 0x0383 [0x1C] WAIT(30* ticks)
104: 0x0386 [0x4A] Eamonn (ID: 17875319/0x0110C177) looks at Unnamed NPC (ID: 17875317/0x0110C175)
105: 0x038F [0x23] WAIT_FOR_DIALOG_INTERACTION
106: 0x0390 [0x5C] MUSIC_CONTROL: Set Idle (Day) music to song 61*
107: 0x0394 [0x5C] MUSIC_CONTROL: Set Idle (Night) music to song 61*
108: 0x0398 [0x5C] MUSIC_CONTROL: Set Combat (Solo) music to song 61*
109: 0x039C [0x5C] MUSIC_CONTROL: Set Combat (Party) music to song 61*
110: 0x03A0 [0x9A] WAIT_MUSIC_SERVER()
111: 0x03A1 [0x7C] Lhe Lhangavo (ID: 17875320/0x0110C178)->Render.Flags2 |= 0x00
112: 0x03A7 [0x81] SET_ENTITY_BLINKING(blink_flag=0x00, entity=Lhe Lhangavo (ID: 17875320/0x0110C178))
113: 0x03AD [0x5B] LOAD_EXT_SCHEDULER: Load scheduler "fe00" with entities [Lhe Lhangavo (ID: 17875320/0x0110C178), Lhe Lhangavo (ID: 17875320/0x0110C178)], work=3276*
114: 0x03BC [0x5B] LOAD_EXT_SCHEDULER: Load scheduler "geg0" with entities [Lhe Lhangavo (ID: 17875320/0x0110C178), Lhe Lhangavo (ID: 17875320/0x0110C178)], work=3278*
115: 0x03CB [0x52] END_LOAD_SCHEDULER: End scheduler "s159" with entities [EventEntity, EventEntity], work=558*
116: 0x03DA [0x45] LOAD_SCHEDULED_TASK: Load scheduler "s160" with entities [EventEntity, EventEntity], work=[558*, 0*]
117: 0x03EB [0x6E] LocalPlayer uses emote 21*
118: 0x03F2 [0x99] Wait for LocalPlayer animation to complete
119: 0x03F7 [0x2B] Lhe Lhangavo (ID: 17875320/0x0110C178) [7548*]:
    → "!?"
120: 0x03FE [0x23] WAIT_FOR_DIALOG_INTERACTION
121: 0x03FF [0x27] REQ_SET(priority=0x05, entity_id=Eamonn (ID: 17875319/0x0110C177), tag_num=0x03)
122: 0x0406 [0x52] END_LOAD_SCHEDULER: End scheduler "s160" with entities [EventEntity, EventEntity], work=558*
123: 0x0415 [0x45] LOAD_SCHEDULED_TASK: Load scheduler "s161" with entities [EventEntity, EventEntity], work=[558*, 0*]
124: 0x0426 [0x2B] Eamonn (ID: 17875319/0x0110C177) [7549*]:
    → "There it is!!!"
125: 0x042D [0x23] WAIT_FOR_DIALOG_INTERACTION
126: 0x042E [0x2A] GET_REQ_LEVEL(level=5, entity_id=Eamonn (ID: 17875319/0x0110C177))
127: 0x0434 [0x52] END_LOAD_SCHEDULER: End scheduler "s161" with entities [EventEntity, EventEntity], work=558*
128: 0x0443 [0x45] LOAD_SCHEDULED_TASK: Load scheduler "s162" with entities [EventEntity, EventEntity], work=[558*, 0*]
129: 0x0454 [0x5B] LOAD_EXT_SCHEDULER: Load scheduler "fe01" with entities [Lhe Lhangavo (ID: 17875320/0x0110C178), Lhe Lhangavo (ID: 17875320/0x0110C178)], work=3276*
130: 0x0463 [0x2B] Lhe Lhangavo (ID: 17875320/0x0110C178) [7550*]:
    → "What is this thing? I've never seen anything like it before!"
131: 0x046A [0x23] WAIT_FOR_DIALOG_INTERACTION
132: 0x046B [0x5B] LOAD_EXT_SCHEDULER: Load scheduler "fe00" with entities [Lhe Lhangavo (ID: 17875320/0x0110C178), Lhe Lhangavo (ID: 17875320/0x0110C178)], work=3276*
133: 0x047A [0x52] END_LOAD_SCHEDULER: End scheduler "s162" with entities [EventEntity, EventEntity], work=558*
134: 0x0489 [0x45] LOAD_SCHEDULED_TASK: Load scheduler "s163" with entities [EventEntity, EventEntity], work=[558*, 0*]
135: 0x049A [0x6B] STOP_AND_IDLE: Eamonn (ID: 17875319/0x0110C177) stops current action and resets to idle (animation="idl0")
136: 0x04A3 [0x4A] Eamonn (ID: 17875319/0x0110C177) looks at Lhe Lhangavo (ID: 17875320/0x0110C178)
137: 0x04AC [0x1C] WAIT(30* ticks)
138: 0x04AF [0x2B] Lhe Lhangavo (ID: 17875320/0x0110C178) [7551*]:
    → "...?"
139: 0x04B6 [0x23] WAIT_FOR_DIALOG_INTERACTION
140: 0x04B7 [0x52] END_LOAD_SCHEDULER: End scheduler "s163" with entities [EventEntity, EventEntity], work=558*
141: 0x04C6 [0x45] LOAD_SCHEDULED_TASK: Load scheduler "s164" with entities [EventEntity, EventEntity], work=[558*, 0*]
142: 0x04D7 [0x6E] Eamonn (ID: 17875319/0x0110C177) uses emote 29*
143: 0x04DE [0x99] Wait for Eamonn (ID: 17875319/0x0110C177) animation to complete
144: 0x04E3 [0x2B] Eamonn (ID: 17875319/0x0110C177) [7552*]:
    → "Leathery Lhe! We gotta get outta here, n-now!"
145: 0x04EA [0x23] WAIT_FOR_DIALOG_INTERACTION
146: 0x04EB [0x52] END_LOAD_SCHEDULER: End scheduler "s164" with entities [EventEntity, EventEntity], work=558*
147: 0x04FA [0x45] LOAD_SCHEDULED_TASK: Load scheduler "s165" with entities [EventEntity, EventEntity], work=[558*, 0*]
148: 0x050B [0x5B] LOAD_EXT_SCHEDULER: Load scheduler "fe01" with entities [Lhe Lhangavo (ID: 17875320/0x0110C178), Lhe Lhangavo (ID: 17875320/0x0110C178)], work=3276*
149: 0x051A [0x2B] Lhe Lhangavo (ID: 17875320/0x0110C178) [7553*]:
    → "What's wrong with me...? Somehow this feels so familiar..."
150: 0x0521 [0x23] WAIT_FOR_DIALOG_INTERACTION
151: 0x0522 [0x6B] STOP_AND_IDLE: Unnamed NPC (ID: 17875317/0x0110C175) stops current action and resets to idle (animation="idl0")
152: 0x052B [0x5B] LOAD_EXT_SCHEDULER: Load scheduler "fe00" with entities [Lhe Lhangavo (ID: 17875320/0x0110C178), Lhe Lhangavo (ID: 17875320/0x0110C178)], work=3276*
153: 0x053A [0x52] END_LOAD_SCHEDULER: End scheduler "s165" with entities [EventEntity, EventEntity], work=558*
154: 0x0549 [0x45] LOAD_SCHEDULED_TASK: Load scheduler "s166" with entities [EventEntity, EventEntity], work=[558*, 0*]
155: 0x055A [0x27] REQ_SET(priority=0x05, entity_id=Unnamed NPC (ID: 17875317/0x0110C175), tag_num=0x02)
156: 0x0561 [0x7B] LocalPlayer stops talking
157: 0x0566 [0x1C] WAIT(30* ticks)
158: 0x0569 [0x52] END_LOAD_SCHEDULER: End scheduler "s166" with entities [EventEntity, EventEntity], work=558*
159: 0x0578 [0x45] LOAD_SCHEDULED_TASK: Load scheduler "s167" with entities [EventEntity, EventEntity], work=[558*, 0*]
160: 0x0589 [0x6E] Bilp (ID: 17875318/0x0110C176) uses emote 29*
161: 0x0590 [0x99] Wait for Bilp (ID: 17875318/0x0110C176) animation to complete
162: 0x0595 [0x2B] Bilp (ID: 17875318/0x0110C176) [7554*]:
    → "Heeeeeelp!"
163: 0x059C [0x23] WAIT_FOR_DIALOG_INTERACTION
164: 0x059D [0x1C] WAIT(60* ticks)
165: 0x05A0 [0x27] REQ_SET(priority=0x05, entity_id=LocalPlayer, tag_num=0x08)
166: 0x05A7 [0x1C] WAIT(15* ticks)
167: 0x05AA [0x52] END_LOAD_SCHEDULER: End scheduler "s167" with entities [EventEntity, EventEntity], work=558*
168: 0x05B9 [0x02] IF !(LocalPlayer->Race == 5*) GOTO 0x05D5
169: 0x05C1 [0x45] LOAD_SCHEDULED_TASK: Load scheduler "s243" with entities [EventEntity, EventEntity], work=[558*, 0*]
170: 0x05D2 [0x01] GOTO 0x061E
171: 0x05D5 [0x02] IF !(LocalPlayer->Race == 6*) GOTO 0x05F1
172: 0x05DD [0x45] LOAD_SCHEDULED_TASK: Load scheduler "s243" with entities [EventEntity, EventEntity], work=[558*, 0*]
173: 0x05EE [0x01] GOTO 0x061E
174: 0x05F1 [0x02] IF !(LocalPlayer->Race == 8*) GOTO 0x060D
175: 0x05F9 [0x45] LOAD_SCHEDULED_TASK: Load scheduler "s244" with entities [EventEntity, EventEntity], work=[558*, 0*]
176: 0x060A [0x01] GOTO 0x061E
177: 0x060D [0x45] LOAD_SCHEDULED_TASK: Load scheduler "s168" with entities [EventEntity, EventEntity], work=[558*, 0*]

SUBROUTINE_061E:
178: 0x061E [0x2A] GET_REQ_LEVEL(level=5, entity_id=LocalPlayer)
179: 0x0624 [0x27] REQ_SET(priority=0x05, entity_id=LocalPlayer, tag_num=0x04)
180: 0x062B [0x5B] LOAD_EXT_SCHEDULER: Load scheduler "orz1" with entities [Unnamed NPC (ID: 17875317/0x0110C175), Unnamed NPC (ID: 17875317/0x0110C175)], work=3046*
181: 0x063A [0x1C] WAIT(120* ticks)
182: 0x063D [0x52] END_LOAD_SCHEDULER: End scheduler "s168" with entities [EventEntity, EventEntity], work=558*
183: 0x064C [0x52] END_LOAD_SCHEDULER: End scheduler "s243" with entities [EventEntity, EventEntity], work=558*
184: 0x065B [0x52] END_LOAD_SCHEDULER: End scheduler "s244" with entities [EventEntity, EventEntity], work=558*
185: 0x066A [0x45] LOAD_SCHEDULED_TASK: Load scheduler "s169" with entities [EventEntity, EventEntity], work=[558*, 0*]
186: 0x067B [0x1C] WAIT(90* ticks)
187: 0x067E [0x52] END_LOAD_SCHEDULER: End scheduler "s169" with entities [EventEntity, EventEntity], work=558*
188: 0x068D [0x45] LOAD_SCHEDULED_TASK: Load scheduler "s241" with entities [EventEntity, EventEntity], work=[558*, 0*]
189: 0x069E [0x1C] WAIT(40* ticks)
190: 0x06A1 [0x5D] SET_MUSIC_VOLUME(volume=0*, fade_time=120*)
191: 0x06A6 [0x45] LOAD_SCHEDULED_TASK: Load scheduler "who0" with entities [LocalPlayer, LocalPlayer], work=[201*, 0*]
192: 0x06B7 [0x55] WAIT_LOAD_SCHEDULER: Wait for scheduler "who0" with entities [LocalPlayer, LocalPlayer], work=201*
193: 0x06C6 [0x52] END_LOAD_SCHEDULER: End scheduler "s241" with entities [EventEntity, EventEntity], work=558*
194: 0x06D5 [0x45] LOAD_SCHEDULED_TASK: Load scheduler "fdo1" with entities [LocalPlayer, LocalPlayer], work=[200*, 0*]
195: 0x06E6 [0x55] WAIT_LOAD_SCHEDULER: Wait for scheduler "fdo1" with entities [LocalPlayer, LocalPlayer], work=200*
196: 0x06F5 [0x45] LOAD_SCHEDULED_TASK: Load scheduler "whi0" with entities [LocalPlayer, LocalPlayer], work=[201*, 0*]
197: 0x0706 [0x27] REQ_SET(priority=0x05, entity_id=LocalPlayer, tag_num=0x05)
198: 0x070D [0x5C] MUSIC_CONTROL: Set Idle (Day) music to song 0*
199: 0x0711 [0x5C] MUSIC_CONTROL: Set Idle (Night) music to song 0*
200: 0x0715 [0x5C] MUSIC_CONTROL: Set Combat (Solo) music to song 57*
201: 0x0719 [0x5C] MUSIC_CONTROL: Set Combat (Party) music to song 57*
202: 0x071D [0x9A] WAIT_MUSIC_SERVER()
203: 0x071E [0x46] CAMERA_CONTROL: Restore default settings
204: 0x0720 [0x45] LOAD_SCHEDULED_TASK: Load scheduler "fdi2" with entities [LocalPlayer, LocalPlayer], work=[200*, 0*]
205: 0x0731 [0x21] END_EVENT
206: 0x0732 [0x00] END_REQSTACK()
```

### Event 14

#### Metadata

| Field        | Value      |
|--------------|------------|
| Entrypoint   | 0x0733     |
| Data Size    | 4223 bytes |
| Instructions | 466        |

```
      00 01 02 03 04 05 06 07  08 09 0A 0B 0C 0D 0E 0F
      -- -- -- -- -- -- -- --  -- -- -- -- -- -- -- --
0730:          42 45 00 80 F0  FF FF 7F F0 FF FF 7F 66     BE..........f
0740: 64 6F 31 01 80 55 00 80  F0 FF FF 7F F0 FF FF 7F  do1..U..........
0750: 66 64 6F 31 46 01 38 02  80 2F 00 78 C1 10 01 2F  fdo1F.8../.x.../
0760: 00 76 C1 10 01 2F 00 77  C1 10 01 2F 00 75 C1 10  .v.../.w.../.u..
0770: 01 2F 00 74 C1 10 01 4E  00 78 C1 10 01 4E 00 76  ./.t...N.x...N.v
0780: C1 10 01 4E 00 77 C1 10  01 4E 00 75 C1 10 01 4E  ...N.w...N.u...N
0790: 00 74 C1 10 01 94 01 78  C1 10 01 BA 78 C1 10 01  .t.....x....x...
07A0: 49 80 4A 80 4B 80 4C 80  BA F0 FF FF 7F 4D 80 4E  I.J.K.L......M.N
07B0: 80 4F 80 50 80 BA 76 C1  10 01 51 80 52 80 53 80  .O.P..v...Q.R.S.
07C0: 54 80 BA 77 C1 10 01 55  80 56 80 57 80 24 80 BA  T..w...U.V.W.$..
07D0: 75 C1 10 01 58 80 59 80  5A 80 5B 80 BA 74 C1 10  u...X.Y.Z.[..t..
07E0: 01 58 80 59 80 5A 80 5B  80 80 78 C1 10 01 80 76  .X.Y.Z.[..x....v
07F0: C1 10 01 80 77 C1 10 01  80 F0 FF FF 7F 80 75 C1  ....w.........u.
0800: 10 01 80 74 C1 10 01 4A  F0 FF FF 7F 75 C1 10 01  ...t...J....u...
0810: 4A 76 C1 10 01 75 C1 10  01 4A 77 C1 10 01 F0 FF  Jv...u...Jw.....
0820: FF 7F 1C 28 80 27 05 F0  FF FF 7F 04 5B 43 80 75  ...(.'......[C.u
0830: C1 10 01 75 C1 10 01 73  68 61 30 5B 43 80 74 C1  ...u...sha0[C.t.
0840: 10 01 74 C1 10 01 73 68  61 30 6C 74 C1 10 01 01  ..t...sha0lt....
0850: 80 5C 80 5C 00 01 80 5C  01 01 80 5C 02 01 80 5C  .\.\...\...\...\
0860: 03 01 80 9A 45 1C 80 F8  FF FF 7F F8 FF FF 7F 73  ....E..........s
0870: 31 37 30 01 80 1C 1D 80  45 00 80 F0 FF FF 7F F0  170.....E.......
0880: FF FF 7F 66 64 69 31 01  80 1C 28 80 27 05 F0 FF  ...fdi1...(.'...
0890: FF 7F 05 1C 44 80 52 1C  80 F8 FF FF 7F F8 FF FF  ....D.R.........
08A0: 7F 73 31 37 30 45 1C 80  F8 FF FF 7F F8 FF FF 7F  .s170E..........
08B0: 73 31 37 31 01 80 6E 76  C1 10 01 2B 80 99 76 C1  s171..nv...+..v.
08C0: 10 01 2B 76 C1 10 01 5D  80 23 27 05 77 C1 10 01  ..+v...].#'.w...
08D0: 05 1C 1D 80 52 1C 80 F8  FF FF 7F F8 FF FF 7F 73  ....R..........s
08E0: 31 37 31 45 1C 80 F8 FF  FF 7F F8 FF FF 7F 73 31  171E..........s1
08F0: 37 32 01 80 2B 77 C1 10  01 5E 80 23 2A 05 77 C1  72..+w...^.#*.w.
0900: 10 01 52 1C 80 F8 FF FF  7F F8 FF FF 7F 73 31 37  ..R..........s17
0910: 32 45 1C 80 F8 FF FF 7F  F8 FF FF 7F 73 31 37 35  2E..........s175
0920: 01 80 CD 5F 80 75 C1 10  01 75 C1 10 01 70 63 30  ..._.u...u...pc0
0930: 30 01 80 1C 40 80 4A 77  C1 10 01 75 C1 10 01 2B  0...@.Jw...u...+
0940: 77 C1 10 01 60 80 23 5C  00 35 80 5C 01 35 80 5C  w...`.#\.5.\.5.\
0950: 02 48 80 5C 03 48 80 9A  52 1C 80 F8 FF FF 7F F8  .H.\.H..R.......
0960: FF FF 7F 73 31 37 35 45  1C 80 F8 FF FF 7F F8 FF  ...s175E........
0970: FF 7F 73 31 37 33 01 80  CD 5F 80 75 C1 10 01 75  ..s173..._.u...u
0980: C1 10 01 70 63 30 31 01  80 6C 74 C1 10 01 61 80  ...pc01..lt...a.
0990: 44 80 1C 40 80 52 1C 80  F8 FF FF 7F F8 FF FF 7F  D..@.R..........
09A0: 73 31 37 33 45 1C 80 F8  FF FF 7F F8 FF FF 7F 73  s173E..........s
09B0: 31 37 34 01 80 6E 77 C1  10 01 3C 80 99 77 C1 10  174..nw...<..w..
09C0: 01 2B 77 C1 10 01 62 80  23 5B 2A 80 78 C1 10 01  .+w...b.#[*.x...
09D0: 78 C1 10 01 6D 61 65 30  1C 1D 80 52 1C 80 F8 FF  x...mae0...R....
09E0: FF 7F F8 FF FF 7F 73 31  37 34 45 1C 80 F8 FF FF  ......s174E.....
09F0: 7F F8 FF FF 7F 73 31 37  36 01 80 79 00 76 C1 10  .....s176..y.v..
0A00: 01 78 C1 10 01 BA 74 C1  10 01 63 80 64 80 5A 80  .x....t...c.d.Z.
0A10: 5B 80 2B 78 C1 10 01 65  80 23 53 78 C1 10 01 78  [.+x...e.#Sx...x
0A20: C1 10 01 6D 61 65 30 5B  2A 80 78 C1 10 01 78 C1  ...mae0[*.x...x.
0A30: 10 01 6D 61 65 31 1C 1D  80 52 1C 80 F8 FF FF 7F  ..mae1...R......
0A40: F8 FF FF 7F 73 31 37 36  45 1C 80 F8 FF FF 7F F8  ....s176E.......
0A50: FF FF 7F 73 31 37 37 01  80 2B 78 C1 10 01 66 80  ...s177..+x...f.
0A60: 1C 67 80 52 1C 80 F8 FF  FF 7F F8 FF FF 7F 73 31  .g.R..........s1
0A70: 37 37 45 1C 80 F8 FF FF  7F F8 FF FF 7F 73 32 33  77E..........s23
0A80: 39 01 80 23 53 78 C1 10  01 78 C1 10 01 6D 61 65  9..#Sx...x...mae
0A90: 31 52 1C 80 F8 FF FF 7F  F8 FF FF 7F 73 32 33 39  1R..........s239
0AA0: 45 1C 80 F8 FF FF 7F F8  FF FF 7F 73 31 37 38 01  E..........s178.
0AB0: 80 7C 00 74 C1 10 01 81  00 74 C1 10 01 5B 43 80  .|.t.....t...[C.
0AC0: 74 C1 10 01 74 C1 10 01  73 68 61 31 1C 40 80 2B  t...t...sha1.@.+
0AD0: 74 C1 10 01 68 80 23 53  78 C1 10 01 78 C1 10 01  t...h.#Sx...x...
0AE0: 6D 61 65 31 7C 01 74 C1  10 01 81 01 74 C1 10 01  mae1|.t.....t...
0AF0: 52 1C 80 F8 FF FF 7F F8  FF FF 7F 73 31 37 38 45  R..........s178E
0B00: 1C 80 F8 FF FF 7F F8 FF  FF 7F 73 31 37 39 01 80  ..........s179..
0B10: 2B 78 C1 10 01 69 80 23  52 1C 80 F8 FF FF 7F F8  +x...i.#R.......
0B20: FF FF 7F 73 31 37 39 45  1C 80 F8 FF FF 7F F8 FF  ...s179E........
0B30: FF 7F 73 31 38 30 01 80  2B 74 C1 10 01 6A 80 23  ..s180..+t...j.#
0B40: 2B 74 C1 10 01 6B 80 23  52 1C 80 F8 FF FF 7F F8  +t...k.#R.......
0B50: FF FF 7F 73 31 38 30 45  1C 80 F8 FF FF 7F F8 FF  ...s180E........
0B60: FF 7F 73 31 38 31 01 80  2B 78 C1 10 01 6C 80 23  ..s181..+x...l.#
0B70: 2B 74 C1 10 01 6D 80 23  45 00 80 F0 FF FF 7F F0  +t...m.#E.......
0B80: FF FF 7F 66 64 6F 31 01  80 55 00 80 F0 FF FF 7F  ...fdo1..U......
0B90: F0 FF FF 7F 66 64 6F 31  52 1C 80 F8 FF FF 7F F8  ....fdo1R.......
0BA0: FF FF 7F 73 31 38 31 6B  69 64 6C 30 74 C1 10 01  ...s181kidl0t...
0BB0: 1C 5C 80 34 6E 80 77 01  80 6F 80 1C 5C 80 2F 00  .\.4n.w..o..\./.
0BC0: 79 C1 10 01 4E 00 79 C1  10 01 59 05 74 C1 10 01  y...N.y...Y.t...
0BD0: 01 BA 79 C1 10 01 70 80  71 80 72 80 73 80 BA 74  ..y...p.q.r.s..t
0BE0: C1 10 01 74 80 75 80 76  80 77 80 80 79 C1 10 01  ...t.u.v.w..y...
0BF0: 80 74 C1 10 01 1C 28 80  81 00 74 C1 10 01 5B 78  .t....(...t...[x
0C00: 80 74 C1 10 01 74 C1 10  01 68 6F 75 6C 6B 62 74  .t...t...houlkbt
0C10: 6C 30 79 C1 10 01 45 1C  80 F8 FF FF 7F F8 FF FF  l0y...E.........
0C20: 7F 73 31 38 32 01 80 1C  1D 80 45 79 80 F0 FF FF  .s182.....Ey....
0C30: 7F F0 FF FF 7F 65 66 6F  6E 01 80 55 79 80 F0 FF  .....efon..Uy...
0C40: FF 7F F0 FF FF 7F 65 66  6F 6E 1C 7A 80 52 1C 80  ......efon.z.R..
0C50: F8 FF FF 7F F8 FF FF 7F  73 31 38 32 45 1C 80 F8  ........s182E...
0C60: FF FF 7F F8 FF FF 7F 73  31 38 33 01 80 1C 7A 80  .......s183...z.
0C70: 5B 78 80 74 C1 10 01 74  C1 10 01 68 6F 75 31 52  [x.t...t...hou1R
0C80: 1C 80 F8 FF FF 7F F8 FF  FF 7F 73 31 38 33 45 1C  ..........s183E.
0C90: 80 F8 FF FF 7F F8 FF FF  7F 73 31 38 35 01 80 1C  .........s185...
0CA0: 25 80 9F 7B 80 F8 FF FF  7F F8 FF FF 7F 73 74 72  %..{.........str
0CB0: 30 01 80 1C 1D 80 9F 7B  80 F8 FF FF 7F F8 FF FF  0......{........
0CC0: 7F 6B 69 6C 6C 01 80 1C  40 80 9F 7B 80 F8 FF FF  .kill...@..{....
0CD0: 7F F8 FF FF 7F 73 74 72  30 01 80 1C 1D 80 9F 7B  .....str0......{
0CE0: 80 F8 FF FF 7F F8 FF FF  7F 6B 69 6C 6C 01 80 1C  .........kill...
0CF0: 1B 80 52 1C 80 F8 FF FF  7F F8 FF FF 7F 73 31 38  ..R..........s18
0D00: 35 45 1C 80 F8 FF FF 7F  F8 FF FF 7F 73 31 38 34  5E..........s184
0D10: 01 80 1C 44 80 52 1C 80  F8 FF FF 7F F8 FF FF 7F  ...D.R..........
0D20: 73 31 38 34 45 1C 80 F8  FF FF 7F F8 FF FF 7F 73  s184E..........s
0D30: 31 38 36 01 80 1C 28 80  2B 74 C1 10 01 7C 80 23  186...(.+t...|.#
0D40: 2B 74 C1 10 01 7D 80 23  52 1C 80 F8 FF FF 7F F8  +t...}.#R.......
0D50: FF FF 7F 73 31 38 36 45  1C 80 F8 FF FF 7F F8 FF  ...s186E........
0D60: FF 7F 73 31 38 37 01 80  4E 01 79 C1 10 01 7C 00  ..s187..N.y...|.
0D70: 74 C1 10 01 2B 74 C1 10  01 7E 80 23 52 1C 80 F8  t...+t...~.#R...
0D80: FF FF 7F F8 FF FF 7F 73  31 38 37 45 1C 80 F8 FF  .......s187E....
0D90: FF 7F F8 FF FF 7F 73 31  38 38 01 80 1C 7F 80 5D  ......s188.....]
0DA0: 01 80 44 80 45 00 80 F0  FF FF 7F F0 FF FF 7F 66  ..D.E..........f
0DB0: 64 6F 31 01 80 55 00 80  F0 FF FF 7F F0 FF FF 7F  do1..U..........
0DC0: 66 64 6F 31 52 1C 80 F8  FF FF 7F F8 FF FF 7F 73  fdo1R..........s
0DD0: 31 38 38 6B 69 64 6C 30  74 C1 10 01 6B 69 64 6C  188kidl0t...kidl
0DE0: 30 79 C1 10 01 27 05 79  C1 10 01 05 22 00 37 80  0y...'.y....".7.
0DF0: 80 81 80 82 80 83 80 BA  74 C1 10 01 80 80 81 80  ........t.......
0E00: 82 80 83 80 80 F8 FF FF  7F 69 01 5C 80 69 01 84  .........i.\.i..
0E10: 80 1C 28 80 2C 74 C1 10  01 74 C1 10 01 64 65 61  ..(.,t...t...dea
0E20: 64 C5 85 80 F8 FF FF 7F  F8 FF FF 7F 73 30 30 30  d...........s000
0E30: 01 80 1C 45 80 5C 00 01  80 5C 01 01 80 9A 69 00  ...E.\...\....i.
0E40: 5C 80 45 1C 80 F8 FF FF  7F F8 FF FF 7F 73 31 38  \.E..........s18
0E50: 39 01 80 1C 1D 80 45 00  80 F0 FF FF 7F F0 FF FF  9.....E.........
0E60: 7F 66 64 69 31 01 80 1C  44 80 2B 74 C1 10 01 86  .fdi1...D.+t....
0E70: 80 23 52 1C 80 F8 FF FF  7F F8 FF FF 7F 73 31 38  .#R..........s18
0E80: 39 45 1C 80 F8 FF FF 7F  F8 FF FF 7F 73 31 39 30  9E..........s190
0E90: 01 80 2B 74 C1 10 01 87  80 23 52 1C 80 F8 FF FF  ..+t.....#R.....
0EA0: 7F F8 FF FF 7F 73 31 39  30 45 1C 80 F8 FF FF 7F  .....s190E......
0EB0: F8 FF FF 7F 73 31 39 31  01 80 2B 74 C1 10 01 88  ....s191..+t....
0EC0: 80 23 52 1C 80 F8 FF FF  7F F8 FF FF 7F 73 31 39  .#R..........s19
0ED0: 31 45 1C 80 F8 FF FF 7F  F8 FF FF 7F 73 31 39 32  1E..........s192
0EE0: 01 80 2B 74 C1 10 01 89  80 23 52 1C 80 F8 FF FF  ..+t.....#R.....
0EF0: 7F F8 FF FF 7F 73 31 39  32 45 1C 80 F8 FF FF 7F  .....s192E......
0F00: F8 FF FF 7F 73 31 39 33  01 80 2B 74 C1 10 01 8A  ....s193..+t....
0F10: 80 23 45 00 80 F0 FF FF  7F F0 FF FF 7F 66 64 6F  .#E..........fdo
0F20: 31 01 80 55 00 80 F0 FF  FF 7F F0 FF FF 7F 66 64  1..U..........fd
0F30: 6F 31 52 1C 80 F8 FF FF  7F F8 FF FF 7F 73 31 39  o1R..........s19
0F40: 33 1C 45 80 2B 74 C1 10  01 8B 80 23 4E 00 79 C1  3.E.+t.....#N.y.
0F50: 10 01 BA 79 C1 10 01 8C  80 8D 80 8E 80 83 80 80  ...y............
0F60: 79 C1 10 01 4A 79 C1 10  01 74 C1 10 01 1C 45 80  y...Jy...t....E.
0F70: 45 1C 80 F8 FF FF 7F F8  FF FF 7F 73 31 39 34 01  E..........s194.
0F80: 80 1C 1D 80 45 00 80 F0  FF FF 7F F0 FF FF 7F 66  ....E..........f
0F90: 64 69 31 01 80 2B 79 C1  10 01 8F 80 23 52 1C 80  di1..+y.....#R..
0FA0: F8 FF FF 7F F8 FF FF 7F  73 31 39 34 45 1C 80 F8  ........s194E...
0FB0: FF FF 7F F8 FF FF 7F 73  31 39 35 01 80 2B 74 C1  .......s195..+t.
0FC0: 10 01 90 80 23 2B 79 C1  10 01 91 80 23 52 1C 80  ....#+y.....#R..
0FD0: F8 FF FF 7F F8 FF FF 7F  73 31 39 35 45 1C 80 F8  ........s195E...
0FE0: FF FF 7F F8 FF FF 7F 73  31 39 36 01 80 2B 79 C1  .......s196..+y.
0FF0: 10 01 92 80 23 52 1C 80  F8 FF FF 7F F8 FF FF 7F  ....#R..........
1000: 73 31 39 36 45 1C 80 F8  FF FF 7F F8 FF FF 7F 73  s196E..........s
1010: 31 39 38 01 80 2B 74 C1  10 01 93 80 23 52 1C 80  198..+t.....#R..
1020: F8 FF FF 7F F8 FF FF 7F  73 31 39 38 45 1C 80 F8  ........s198E...
1030: FF FF 7F F8 FF FF 7F 73  31 39 37 01 80 2B 79 C1  .......s197..+y.
1040: 10 01 94 80 23 52 1C 80  F8 FF FF 7F F8 FF FF 7F  ....#R..........
1050: 73 31 39 37 45 1C 80 F8  FF FF 7F F8 FF FF 7F 73  s197E..........s
1060: 31 39 39 01 80 2B 79 C1  10 01 95 80 23 52 1C 80  199..+y.....#R..
1070: F8 FF FF 7F F8 FF FF 7F  73 31 39 39 45 1C 80 F8  ........s199E...
1080: FF FF 7F F8 FF FF 7F 73  32 30 30 01 80 1C 45 80  .......s200...E.
1090: 45 47 80 F0 FF FF 7F F0  FF FF 7F 77 68 6F 31 01  EG.........who1.
10A0: 80 55 47 80 F0 FF FF 7F  F0 FF FF 7F 77 68 6F 31  .UG.........who1
10B0: 52 1C 80 F8 FF FF 7F F8  FF FF 7F 73 32 30 30 6B  R..........s200k
10C0: 69 64 6C 30 74 C1 10 01  C5 85 80 F8 FF FF 7F F8  idl0t...........
10D0: FF FF 7F 6B 69 6C 30 01  80 6C 75 C1 10 01 61 80  ...kil0..lu...a.
10E0: 5C 80 BA 75 C1 10 01 74  80 75 80 76 80 77 80 80  \..u...t.u.v.w..
10F0: 75 C1 10 01 1C 28 80 66  96 80 75 C1 10 01 75 C1  u....(.f..u...u.
1100: 10 01 6F 72 7A 30 1C 40  80 69 00 84 80 45 1C 80  ..orz0.@.i...E..
1110: F8 FF FF 7F F8 FF FF 7F  73 32 30 31 01 80 1C 1D  ........s201....
1120: 80 45 47 80 F0 FF FF 7F  F0 FF FF 7F 77 68 69 31  .EG.........whi1
1130: 01 80 45 79 80 F0 FF FF  7F F0 FF FF 7F 65 66 6F  ..Ey.........efo
1140: 6E 01 80 1C 7A 80 52 1C  80 F8 FF FF 7F F8 FF FF  n...z.R.........
1150: 7F 73 32 30 31 45 1C 80  F8 FF FF 7F F8 FF FF 7F  .s201E..........
1160: 73 32 30 32 01 80 5B 43  80 75 C1 10 01 75 C1 10  s202..[C.u...u..
1170: 01 6F 72 7A 31 1C 40 80  52 1C 80 F8 FF FF 7F F8  .orz1.@.R.......
1180: FF FF 7F 73 32 30 32 45  1C 80 F8 FF FF 7F F8 FF  ...s202E........
1190: FF 7F 73 32 30 33 01 80  1C 7F 80 45 00 80 F0 FF  ..s203.....E....
11A0: FF 7F F0 FF FF 7F 66 64  6F 31 01 80 55 00 80 F0  ......fdo1..U...
11B0: FF FF 7F F0 FF FF 7F 66  64 6F 31 52 1C 80 F8 FF  .......fdo1R....
11C0: FF 7F F8 FF FF 7F 73 32  30 33 27 05 75 C1 10 01  ......s203'.u...
11D0: 04 27 05 79 C1 10 01 06  35 97 80 78 1C 5C 80 BA  .'.y....5..x.\..
11E0: 76 C1 10 01 51 80 52 80  53 80 54 80 BA 77 C1 10  v...Q.R.S.T..w..
11F0: 01 98 80 99 80 9A 80 9B  80 BA 74 C1 10 01 63 80  ..........t...c.
1200: 64 80 5A 80 5B 80 BA 78  C1 10 01 49 80 4A 80 4B  d.Z.[..x...I.J.K
1210: 80 4C 80 BA F0 FF FF 7F  9C 80 9D 80 9E 80 9B 80  .L..............
1220: 80 74 C1 10 01 80 78 C1  10 01 80 F0 FF FF 7F 80  .t....x.........
1230: 76 C1 10 01 80 77 C1 10  01 4A F0 FF FF 7F 74 C1  v....w...J....t.
1240: 10 01 4A 76 C1 10 01 74  C1 10 01 4A 77 C1 10 01  ..Jv...t...Jw...
1250: 74 C1 10 01 1C 28 80 81  00 78 C1 10 01 7C 00 78  t....(...x...|.x
1260: C1 10 01 5B 2A 80 78 C1  10 01 78 C1 10 01 6D 61  ...[*.x...x...ma
1270: 65 31 5B 43 80 74 C1 10  01 74 C1 10 01 73 68 61  e1[C.t...t...sha
1280: 30 53 74 C1 10 01 74 C1  10 01 73 68 61 30 5C 00  0St...t...sha0\.
1290: 35 80 5C 01 35 80 9A 45  1C 80 F8 FF FF 7F F8 FF  5.\.5..E........
12A0: FF 7F 73 32 30 34 01 80  1C 1D 80 45 00 80 F0 FF  ..s204.....E....
12B0: FF 7F F0 FF FF 7F 66 64  69 31 01 80 1C 28 80 5B  ......fdi1...(.[
12C0: 29 80 78 C1 10 01 78 C1  10 01 66 65 30 31 2B 78  ).x...x...fe01+x
12D0: C1 10 01 9F 80 23 52 1C  80 F8 FF FF 7F F8 FF FF  .....#R.........
12E0: 7F 73 32 30 34 45 1C 80  F8 FF FF 7F F8 FF FF 7F  .s204E..........
12F0: 73 32 30 35 01 80 2B 78  C1 10 01 A0 80 23 5B 29  s205..+x.....#[)
1300: 80 78 C1 10 01 78 C1 10  01 66 65 30 30 52 1C 80  .x...x...fe00R..
1310: F8 FF FF 7F F8 FF FF 7F  73 32 30 35 45 1C 80 F8  ........s205E...
1320: FF FF 7F F8 FF FF 7F 73  32 30 36 01 80 7C 01 74  .......s206..|.t
1330: C1 10 01 2B 74 C1 10 01  A1 80 23 2B 74 C1 10 01  ...+t.....#+t...
1340: A2 80 23 52 1C 80 F8 FF  FF 7F F8 FF FF 7F 73 32  ..#R..........s2
1350: 30 36 45 1C 80 F8 FF FF  7F F8 FF FF 7F 73 32 30  06E..........s20
1360: 37 01 80 5B 43 80 74 C1  10 01 74 C1 10 01 73 68  7..[C.t...t...sh
1370: 61 31 2B 74 C1 10 01 A3  80 23 2B 74 C1 10 01 A4  a1+t.....#+t....
1380: 80 23 52 1C 80 F8 FF FF  7F F8 FF FF 7F 73 32 30  .#R..........s20
1390: 37 45 1C 80 F8 FF FF 7F  F8 FF FF 7F 73 32 30 38  7E..........s208
13A0: 01 80 2B 74 C1 10 01 A5  80 23 52 1C 80 F8 FF FF  ..+t.....#R.....
13B0: 7F F8 FF FF 7F 73 32 30  38 45 1C 80 F8 FF FF 7F  .....s208E......
13C0: F8 FF FF 7F 73 32 30 39  01 80 CD 5F 80 74 C1 10  ....s209..._.t..
13D0: 01 74 C1 10 01 70 63 30  30 01 80 2B 74 C1 10 01  .t...pc00..+t...
13E0: A6 80 23 2B 78 C1 10 01  A7 80 23 52 1C 80 F8 FF  ..#+x.....#R....
13F0: FF 7F F8 FF FF 7F 73 32  30 39 45 1C 80 F8 FF FF  ......s209E.....
1400: 7F F8 FF FF 7F 73 32 31  30 01 80 2B 74 C1 10 01  .....s210..+t...
1410: A8 80 23 1C 40 80 CD 5F  80 74 C1 10 01 74 C1 10  ..#.@.._.t...t..
1420: 01 70 63 30 31 01 80 1C  45 80 5B 29 80 78 C1 10  .pc01...E.[).x..
1430: 01 78 C1 10 01 66 65 30  31 52 1C 80 F8 FF FF 7F  .x...fe01R......
1440: F8 FF FF 7F 73 32 31 30  45 1C 80 F8 FF FF 7F F8  ....s210E.......
1450: FF FF 7F 73 32 31 31 01  80 2B 78 C1 10 01 A9 80  ...s211..+x.....
1460: 23 5B 29 80 78 C1 10 01  78 C1 10 01 66 66 30 30  #[).x...x...ff00
1470: 52 1C 80 F8 FF FF 7F F8  FF FF 7F 73 32 31 31 45  R..........s211E
1480: 1C 80 F8 FF FF 7F F8 FF  FF 7F 73 32 31 32 01 80  ..........s212..
1490: 1C 28 80 4B 77 C1 10 01  AA 80 2B 78 C1 10 01 AB  .(.Kw.....+x....
14A0: 80 23 1C 44 80 52 1C 80  F8 FF FF 7F F8 FF FF 7F  .#.D.R..........
14B0: 73 32 31 32 45 1C 80 F8  FF FF 7F F8 FF FF 7F 73  s212E..........s
14C0: 32 31 33 01 80 66 2D 80  77 C1 10 01 77 C1 10 01  213..f-.w...w...
14D0: 74 6C 6B 30 2B 77 C1 10  01 AC 80 23 4A 76 C1 10  tlk0+w.....#Jv..
14E0: 01 78 C1 10 01 4A F0 FF  FF 7F 78 C1 10 01 2B 77  .x...J....x...+w
14F0: C1 10 01 AD 80 23 66 2D  80 77 C1 10 01 77 C1 10  .....#f-.w...w..
1500: 01 74 6C 6B 31 52 1C 80  F8 FF FF 7F F8 FF FF 7F  .tlk1R..........
1510: 73 32 31 33 45 1C 80 F8  FF FF 7F F8 FF FF 7F 73  s213E..........s
1520: 32 31 35 01 80 5B 2A 80  78 C1 10 01 78 C1 10 01  215..[*.x...x...
1530: 6D 61 65 32 2B 78 C1 10  01 AE 80 23 53 78 C1 10  mae2+x.....#Sx..
1540: 01 78 C1 10 01 6D 61 65  32 52 1C 80 F8 FF FF 7F  .x...mae2R......
1550: F8 FF FF 7F 73 32 31 35  45 1C 80 F8 FF FF 7F F8  ....s215E.......
1560: FF FF 7F 73 32 33 38 01  80 66 AF 80 76 C1 10 01  ...s238..f..v...
1570: 76 C1 10 01 74 6C 6B 30  1C 1D 80 6B 69 64 6C 30  v...tlk0...kidl0
1580: 78 C1 10 01 BA 78 C1 10  01 B0 80 B1 80 B2 80 9B  x....x..........
1590: 80 80 78 C1 10 01 4A 78  C1 10 01 77 C1 10 01 7B  ..x...Jx...w...{
15A0: 78 C1 10 01 2B 76 C1 10  01 B3 80 23 66 AF 80 76  x...+v.....#f..v
15B0: C1 10 01 76 C1 10 01 74  6C 6B 31 52 1C 80 F8 FF  ...v...tlk1R....
15C0: FF 7F F8 FF FF 7F 73 32  33 38 45 1C 80 F8 FF FF  ......s238E.....
15D0: 7F F8 FF FF 7F 73 32 31  36 01 80 5B 29 80 78 C1  .....s216..[).x.
15E0: 10 01 78 C1 10 01 66 62  30 31 79 00 78 C1 10 01  ..x...fb01y.x...
15F0: 76 C1 10 01 5B 36 80 78  C1 10 01 78 C1 10 01 6B  v...[6.x...x...k
1600: 73 69 30 2B 78 C1 10 01  B4 80 23 BA 77 C1 10 01  si0+x.....#.w...
1610: B5 80 B6 80 B7 80 9B 80  80 77 C1 10 01 4A 77 C1  .........w...Jw.
1620: 10 01 78 C1 10 01 53 78  C1 10 01 78 C1 10 01 6B  ..x...Sx...x...k
1630: 73 69 30 5B 36 80 78 C1  10 01 78 C1 10 01 6B 73  si0[6.x...x...ks
1640: 69 31 1C 28 80 52 1C 80  F8 FF FF 7F F8 FF FF 7F  i1.(.R..........
1650: 73 32 31 36 45 1C 80 F8  FF FF 7F F8 FF FF 7F 73  s216E..........s
1660: 32 31 37 01 80 7B 78 C1  10 01 2B 78 C1 10 01 B8  217..{x...+x....
1670: 80 23 5B 29 80 78 C1 10  01 78 C1 10 01 66 62 30  .#[).x...x...fb0
1680: 30 53 78 C1 10 01 78 C1  10 01 6B 73 69 31 52 1C  0Sx...x...ksi1R.
1690: 80 F8 FF FF 7F F8 FF FF  7F 73 32 31 37 45 1C 80  .........s217E..
16A0: F8 FF FF 7F F8 FF FF 7F  73 32 31 38 01 80 27 05  ........s218..'.
16B0: 78 C1 10 01 04 1C 1E 80  52 1C 80 F8 FF FF 7F F8  x.......R.......
16C0: FF FF 7F 73 32 31 38 45  1C 80 F8 FF FF 7F F8 FF  ...s218E........
16D0: FF 7F 73 32 31 39 01 80  4A 77 C1 10 01 78 C1 10  ..s219..Jw...x..
16E0: 01 1C 28 80 4A 76 C1 10  01 78 C1 10 01 4A F0 FF  ..(.Jv...x...J..
16F0: FF 7F 78 C1 10 01 7A 00  78 C1 10 01 6E 77 C1 10  ..x...z.x...nw..
1700: 01 3C 80 99 77 C1 10 01  2B 77 C1 10 01 B9 80 23  .<..w...+w.....#
1710: BA 78 C1 10 01 BA 80 BB  80 BC 80 BD 80 80 78 C1  .x............x.
1720: 10 01 27 05 78 C1 10 01  05 1C 1D 80 52 1C 80 F8  ..'.x.......R...
1730: FF FF 7F F8 FF FF 7F 73  32 31 39 45 1C 80 F8 FF  .......s219E....
1740: FF 7F F8 FF FF 7F 73 32  32 30 01 80 27 05 77 C1  ......s220..'.w.
1750: 10 01 06 1C 1D 80 27 05  76 C1 10 01 04 1C 44 80  ......'.v.....D.
1760: 5D 01 80 44 80 45 00 80  F0 FF FF 7F F0 FF FF 7F  ]..D.E..........
1770: 66 64 6F 31 01 80 55 00  80 F0 FF FF 7F F0 FF FF  fdo1..U.........
1780: 7F 66 64 6F 31 52 1C 80  F8 FF FF 7F F8 FF FF 7F  .fdo1R..........
1790: 73 32 32 30 5C 00 01 80  5C 01 01 80 9A 46 00 45  s220\...\....F.E
17A0: 00 80 F0 FF FF 7F F0 FF  FF 7F 66 64 69 32 01 80  ..........fdi2..
17B0: 21 00                                             !.              
```

#### Opcodes

```
  0: 0x0733 [0x42] SET_CLI_EVENT_CANCEL_DATA()
  1: 0x0734 [0x45] LOAD_SCHEDULED_TASK: Load scheduler "fdo1" with entities [LocalPlayer, LocalPlayer], work=[200*, 0*]
  2: 0x0745 [0x55] WAIT_LOAD_SCHEDULER: Wait for scheduler "fdo1" with entities [LocalPlayer, LocalPlayer], work=200*
  3: 0x0754 [0x46] CAMERA_CONTROL: Disable user control
  4: 0x0756 [0x38] SET_CLIENT_EVENT_MODE(mode=27*)
  5: 0x0759 [0x2F] Lhe Lhangavo (ID: 17875320/0x0110C178)->Render.Flags0 &= ~0x80000 // Bit 19
  6: 0x075F [0x2F] Bilp (ID: 17875318/0x0110C176)->Render.Flags0 &= ~0x80000 // Bit 19
  7: 0x0765 [0x2F] Eamonn (ID: 17875319/0x0110C177)->Render.Flags0 &= ~0x80000 // Bit 19
  8: 0x076B [0x2F] Unnamed NPC (ID: 17875317/0x0110C175)->Render.Flags0 &= ~0x80000 // Bit 19
  9: 0x0771 [0x2F] Shla Kheefid (ID: 17875316/0x0110C174)->Render.Flags0 &= ~0x80000 // Bit 19
 10: 0x0777 [0x4E] SET_ENTITY_HIDE_FLAG: Show Lhe Lhangavo (ID: 17875320/0x0110C178)
 11: 0x077D [0x4E] SET_ENTITY_HIDE_FLAG: Show Bilp (ID: 17875318/0x0110C176)
 12: 0x0783 [0x4E] SET_ENTITY_HIDE_FLAG: Show Eamonn (ID: 17875319/0x0110C177)
 13: 0x0789 [0x4E] SET_ENTITY_HIDE_FLAG: Show Unnamed NPC (ID: 17875317/0x0110C175)
 14: 0x078F [0x4E] SET_ENTITY_HIDE_FLAG: Show Shla Kheefid (ID: 17875316/0x0110C174)
 15: 0x0795 [0x94] Lhe Lhangavo (ID: 17875320/0x0110C178)->Render.Flags3 ^= 0x01
 16: 0x079B [0xBA] SET_ENTITY_POSITION(entity_id=Lhe Lhangavo (ID: 17875320/0x0110C178), pos_x=-419.095*, pos_z=-58.692*, pos_y=-19.654*, direction=377476065.0°*)
 17: 0x07A8 [0xBA] SET_ENTITY_POSITION(entity_id=LocalPlayer, pos_x=-421.115*, pos_z=-59.130*, pos_y=-19.616*, direction=254.5°*)
 18: 0x07B5 [0xBA] SET_ENTITY_POSITION(entity_id=Bilp (ID: 17875318/0x0110C176), pos_x=-419.530*, pos_z=-60.880*, pos_y=-19.640*, direction=218.7°*)
 19: 0x07C2 [0xBA] SET_ENTITY_POSITION(entity_id=Eamonn (ID: 17875319/0x0110C177), pos_x=-410.726*, pos_z=-55.435*, pos_y=-21.340*, direction=12.1°*)
 20: 0x07CF [0xBA] SET_ENTITY_POSITION(entity_id=Unnamed NPC (ID: 17875317/0x0110C175), pos_x=-422.916*, pos_z=-56.490*, pos_y=-19.648*, direction=30.8°*)
 21: 0x07DC [0xBA] SET_ENTITY_POSITION(entity_id=Shla Kheefid (ID: 17875316/0x0110C174), pos_x=-422.916*, pos_z=-56.490*, pos_y=-19.648*, direction=30.8°*)
 22: 0x07E9 [0x80] LOAD_WAIT(entity=Lhe Lhangavo (ID: 17875320/0x0110C178))
 23: 0x07EE [0x80] LOAD_WAIT(entity=Bilp (ID: 17875318/0x0110C176))
 24: 0x07F3 [0x80] LOAD_WAIT(entity=Eamonn (ID: 17875319/0x0110C177))
 25: 0x07F8 [0x80] LOAD_WAIT(entity=LocalPlayer)
 26: 0x07FD [0x80] LOAD_WAIT(entity=Unnamed NPC (ID: 17875317/0x0110C175))
 27: 0x0802 [0x80] LOAD_WAIT(entity=Shla Kheefid (ID: 17875316/0x0110C174))
 28: 0x0807 [0x4A] LocalPlayer looks at Unnamed NPC (ID: 17875317/0x0110C175)
 29: 0x0810 [0x4A] Bilp (ID: 17875318/0x0110C176) looks at Unnamed NPC (ID: 17875317/0x0110C175)
 30: 0x0819 [0x4A] Eamonn (ID: 17875319/0x0110C177) looks at LocalPlayer
 31: 0x0822 [0x1C] WAIT(30* ticks)
 32: 0x0825 [0x27] REQ_SET(priority=0x05, entity_id=LocalPlayer, tag_num=0x04)
 33: 0x082C [0x5B] LOAD_EXT_SCHEDULER: Load scheduler "sha0" with entities [Unnamed NPC (ID: 17875317/0x0110C175), Unnamed NPC (ID: 17875317/0x0110C175)], work=3046*
 34: 0x083B [0x5B] LOAD_EXT_SCHEDULER: Load scheduler "sha0" with entities [Shla Kheefid (ID: 17875316/0x0110C174), Shla Kheefid (ID: 17875316/0x0110C174)], work=3046*
 35: 0x084A [0x6C] FADE_ENTITY_COLOR(entity_id=Shla Kheefid (ID: 17875316/0x0110C174), end_alpha=0*, fade_time=1*)
 36: 0x0853 [0x5C] MUSIC_CONTROL: Set Idle (Day) music to song 0*
 37: 0x0857 [0x5C] MUSIC_CONTROL: Set Idle (Night) music to song 0*
 38: 0x085B [0x5C] MUSIC_CONTROL: Set Combat (Solo) music to song 0*
 39: 0x085F [0x5C] MUSIC_CONTROL: Set Combat (Party) music to song 0*
 40: 0x0863 [0x9A] WAIT_MUSIC_SERVER()
 41: 0x0864 [0x45] LOAD_SCHEDULED_TASK: Load scheduler "s170" with entities [EventEntity, EventEntity], work=[558*, 0*]
 42: 0x0875 [0x1C] WAIT(15* ticks)
 43: 0x0878 [0x45] LOAD_SCHEDULED_TASK: Load scheduler "fdi1" with entities [LocalPlayer, LocalPlayer], work=[200*, 0*]
 44: 0x0889 [0x1C] WAIT(30* ticks)
 45: 0x088C [0x27] REQ_SET(priority=0x05, entity_id=LocalPlayer, tag_num=0x05)
 46: 0x0893 [0x1C] WAIT(120* ticks)
 47: 0x0896 [0x52] END_LOAD_SCHEDULER: End scheduler "s170" with entities [EventEntity, EventEntity], work=558*
 48: 0x08A5 [0x45] LOAD_SCHEDULED_TASK: Load scheduler "s171" with entities [EventEntity, EventEntity], work=[558*, 0*]
 49: 0x08B6 [0x6E] Bilp (ID: 17875318/0x0110C176) uses emote 19*
 50: 0x08BD [0x99] Wait for Bilp (ID: 17875318/0x0110C176) animation to complete
 51: 0x08C2 [0x2B] Bilp (ID: 17875318/0x0110C176) [7555*]:
    → "We're...alive..."
 52: 0x08C9 [0x23] WAIT_FOR_DIALOG_INTERACTION
 53: 0x08CA [0x27] REQ_SET(priority=0x05, entity_id=Eamonn (ID: 17875319/0x0110C177), tag_num=0x05)
 54: 0x08D1 [0x1C] WAIT(15* ticks)
 55: 0x08D4 [0x52] END_LOAD_SCHEDULER: End scheduler "s171" with entities [EventEntity, EventEntity], work=558*
 56: 0x08E3 [0x45] LOAD_SCHEDULED_TASK: Load scheduler "s172" with entities [EventEntity, EventEntity], work=[558*, 0*]
 57: 0x08F4 [0x2B] Eamonn (ID: 17875319/0x0110C177) [7556*]:
    → "Wow! Adventurers from the Middle Lands are unlike anything I've ever seen!"
 58: 0x08FB [0x23] WAIT_FOR_DIALOG_INTERACTION
 59: 0x08FC [0x2A] GET_REQ_LEVEL(level=5, entity_id=Eamonn (ID: 17875319/0x0110C177))
 60: 0x0902 [0x52] END_LOAD_SCHEDULER: End scheduler "s172" with entities [EventEntity, EventEntity], work=558*
 61: 0x0911 [0x45] LOAD_SCHEDULED_TASK: Load scheduler "s175" with entities [EventEntity, EventEntity], work=[558*, 0*]
 62: 0x0922 [0xCD] LOAD_SCHEDULED_TASK_ALT4: Load scheduler "pc00" with entities [Unnamed NPC (ID: 17875317/0x0110C175), Unnamed NPC (ID: 17875317/0x0110C175)], work=[98*, 0*]
 63: 0x0933 [0x1C] WAIT(60* ticks)
 64: 0x0936 [0x4A] Eamonn (ID: 17875319/0x0110C177) looks at Unnamed NPC (ID: 17875317/0x0110C175)
 65: 0x093F [0x2B] Eamonn (ID: 17875319/0x0110C177) [7557*]:
    → "Hm?"
 66: 0x0946 [0x23] WAIT_FOR_DIALOG_INTERACTION
 67: 0x0947 [0x5C] MUSIC_CONTROL: Set Idle (Day) music to song 61*
 68: 0x094B [0x5C] MUSIC_CONTROL: Set Idle (Night) music to song 61*
 69: 0x094F [0x5C] MUSIC_CONTROL: Set Combat (Solo) music to song 57*
 70: 0x0953 [0x5C] MUSIC_CONTROL: Set Combat (Party) music to song 57*
 71: 0x0957 [0x9A] WAIT_MUSIC_SERVER()
 72: 0x0958 [0x52] END_LOAD_SCHEDULER: End scheduler "s175" with entities [EventEntity, EventEntity], work=558*
 73: 0x0967 [0x45] LOAD_SCHEDULED_TASK: Load scheduler "s173" with entities [EventEntity, EventEntity], work=[558*, 0*]
 74: 0x0978 [0xCD] LOAD_SCHEDULED_TASK_ALT4: Load scheduler "pc01" with entities [Unnamed NPC (ID: 17875317/0x0110C175), Unnamed NPC (ID: 17875317/0x0110C175)], work=[98*, 0*]
 75: 0x0989 [0x6C] FADE_ENTITY_COLOR(entity_id=Shla Kheefid (ID: 17875316/0x0110C174), end_alpha=128*, fade_time=120*)
 76: 0x0992 [0x1C] WAIT(60* ticks)
 77: 0x0995 [0x52] END_LOAD_SCHEDULER: End scheduler "s173" with entities [EventEntity, EventEntity], work=558*
 78: 0x09A4 [0x45] LOAD_SCHEDULED_TASK: Load scheduler "s174" with entities [EventEntity, EventEntity], work=[558*, 0*]
 79: 0x09B5 [0x6E] Eamonn (ID: 17875319/0x0110C177) uses emote 29*
 80: 0x09BC [0x99] Wait for Eamonn (ID: 17875319/0x0110C177) animation to complete
 81: 0x09C1 [0x2B] Eamonn (ID: 17875319/0x0110C177) [7558*]:
    → "What the...?"
 82: 0x09C8 [0x23] WAIT_FOR_DIALOG_INTERACTION
 83: 0x09C9 [0x5B] LOAD_EXT_SCHEDULER: Load scheduler "mae0" with entities [Lhe Lhangavo (ID: 17875320/0x0110C178), Lhe Lhangavo (ID: 17875320/0x0110C178)], work=3277*
 84: 0x09D8 [0x1C] WAIT(15* ticks)
 85: 0x09DB [0x52] END_LOAD_SCHEDULER: End scheduler "s174" with entities [EventEntity, EventEntity], work=558*
 86: 0x09EA [0x45] LOAD_SCHEDULED_TASK: Load scheduler "s176" with entities [EventEntity, EventEntity], work=[558*, 0*]
 87: 0x09FB [0x79] Bilp (ID: 17875318/0x0110C176) looks at Lhe Lhangavo (ID: 17875320/0x0110C178) (Basic look)
 88: 0x0A05 [0xBA] SET_ENTITY_POSITION(entity_id=Shla Kheefid (ID: 17875316/0x0110C174), pos_x=-423.523*, pos_z=-56.425*, pos_y=-19.648*, direction=30.8°*)
 89: 0x0A12 [0x2B] Lhe Lhangavo (ID: 17875320/0x0110C178) [7559*]:
    → "...Shla? Is that you?"
 90: 0x0A19 [0x23] WAIT_FOR_DIALOG_INTERACTION
 91: 0x0A1A [0x53] WAIT_SCHEDULER_TASK: Wait for scheduler "mae0" with entities [Lhe Lhangavo (ID: 17875320/0x0110C178), Lhe Lhangavo (ID: 17875320/0x0110C178)]
 92: 0x0A27 [0x5B] LOAD_EXT_SCHEDULER: Load scheduler "mae1" with entities [Lhe Lhangavo (ID: 17875320/0x0110C178), Lhe Lhangavo (ID: 17875320/0x0110C178)], work=3277*
 93: 0x0A36 [0x1C] WAIT(15* ticks)
 94: 0x0A39 [0x52] END_LOAD_SCHEDULER: End scheduler "s176" with entities [EventEntity, EventEntity], work=558*
 95: 0x0A48 [0x45] LOAD_SCHEDULED_TASK: Load scheduler "s177" with entities [EventEntity, EventEntity], work=[558*, 0*]
 96: 0x0A59 [0x2B] Lhe Lhangavo (ID: 17875320/0x0110C178) [7560*]:
    → "Shla!? Shla, can you hear me!?"
 97: 0x0A60 [0x1C] WAIT(70* ticks)
 98: 0x0A63 [0x52] END_LOAD_SCHEDULER: End scheduler "s177" with entities [EventEntity, EventEntity], work=558*
 99: 0x0A72 [0x45] LOAD_SCHEDULED_TASK: Load scheduler "s239" with entities [EventEntity, EventEntity], work=[558*, 0*]
100: 0x0A83 [0x23] WAIT_FOR_DIALOG_INTERACTION
101: 0x0A84 [0x53] WAIT_SCHEDULER_TASK: Wait for scheduler "mae1" with entities [Lhe Lhangavo (ID: 17875320/0x0110C178), Lhe Lhangavo (ID: 17875320/0x0110C178)]
102: 0x0A91 [0x52] END_LOAD_SCHEDULER: End scheduler "s239" with entities [EventEntity, EventEntity], work=558*
103: 0x0AA0 [0x45] LOAD_SCHEDULED_TASK: Load scheduler "s178" with entities [EventEntity, EventEntity], work=[558*, 0*]
104: 0x0AB1 [0x7C] Shla Kheefid (ID: 17875316/0x0110C174)->Render.Flags2 |= 0x00
105: 0x0AB7 [0x81] SET_ENTITY_BLINKING(blink_flag=0x00, entity=Shla Kheefid (ID: 17875316/0x0110C174))
106: 0x0ABD [0x5B] LOAD_EXT_SCHEDULER: Load scheduler "sha1" with entities [Shla Kheefid (ID: 17875316/0x0110C174), Shla Kheefid (ID: 17875316/0x0110C174)], work=3046*
107: 0x0ACC [0x1C] WAIT(60* ticks)
108: 0x0ACF [0x2B] Shla Kheefid (ID: 17875316/0x0110C174) [7561*]:
    → "...Lhe?"
109: 0x0AD6 [0x23] WAIT_FOR_DIALOG_INTERACTION
110: 0x0AD7 [0x53] WAIT_SCHEDULER_TASK: Wait for scheduler "mae1" with entities [Lhe Lhangavo (ID: 17875320/0x0110C178), Lhe Lhangavo (ID: 17875320/0x0110C178)]
111: 0x0AE4 [0x7C] Shla Kheefid (ID: 17875316/0x0110C174)->Render.Flags2 |= 0x01
112: 0x0AEA [0x81] SET_ENTITY_BLINKING(blink_flag=0x01, entity=Shla Kheefid (ID: 17875316/0x0110C174))
113: 0x0AF0 [0x52] END_LOAD_SCHEDULER: End scheduler "s178" with entities [EventEntity, EventEntity], work=558*
114: 0x0AFF [0x45] LOAD_SCHEDULED_TASK: Load scheduler "s179" with entities [EventEntity, EventEntity], work=[558*, 0*]
115: 0x0B10 [0x2B] Lhe Lhangavo (ID: 17875320/0x0110C178) [7562*]:
    → "Shla, but...how? How did it turrrn out like this?"
116: 0x0B17 [0x23] WAIT_FOR_DIALOG_INTERACTION
117: 0x0B18 [0x52] END_LOAD_SCHEDULER: End scheduler "s179" with entities [EventEntity, EventEntity], work=558*
118: 0x0B27 [0x45] LOAD_SCHEDULED_TASK: Load scheduler "s180" with entities [EventEntity, EventEntity], work=[558*, 0*]
119: 0x0B38 [0x2B] Shla Kheefid (ID: 17875316/0x0110C174) [7563*]:
    → "Lhe, I just had to know..."
120: 0x0B3F [0x23] WAIT_FOR_DIALOG_INTERACTION
121: 0x0B40 [0x2B] Shla Kheefid (ID: 17875316/0x0110C174) [7564*]:
    → "To feel it with my own whiskerrrs, and find out..."
122: 0x0B47 [0x23] WAIT_FOR_DIALOG_INTERACTION
123: 0x0B48 [0x52] END_LOAD_SCHEDULER: End scheduler "s180" with entities [EventEntity, EventEntity], work=558*
124: 0x0B57 [0x45] LOAD_SCHEDULED_TASK: Load scheduler "s181" with entities [EventEntity, EventEntity], work=[558*, 0*]
125: 0x0B68 [0x2B] Lhe Lhangavo (ID: 17875320/0x0110C178) [7565*]:
    → "Shhh. That's not imporrrtant. What matters is that you're here, back with me."
126: 0x0B6F [0x23] WAIT_FOR_DIALOG_INTERACTION
127: 0x0B70 [0x2B] Shla Kheefid (ID: 17875316/0x0110C174) [7566*]:
    → "No, I'm not. I couldn't face them alone."
128: 0x0B77 [0x23] WAIT_FOR_DIALOG_INTERACTION
129: 0x0B78 [0x45] LOAD_SCHEDULED_TASK: Load scheduler "fdo1" with entities [LocalPlayer, LocalPlayer], work=[200*, 0*]
130: 0x0B89 [0x55] WAIT_LOAD_SCHEDULER: Wait for scheduler "fdo1" with entities [LocalPlayer, LocalPlayer], work=200*
131: 0x0B98 [0x52] END_LOAD_SCHEDULER: End scheduler "s181" with entities [EventEntity, EventEntity], work=558*
132: 0x0BA7 [0x6B] STOP_AND_IDLE: Shla Kheefid (ID: 17875316/0x0110C174) stops current action and resets to idle (animation="idl0")
133: 0x0BB0 [0x1C] WAIT(1* ticks)
134: 0x0BB3 [0x34] LOAD_UNLOAD_ZONE(zone_id=705*)
135: 0x0BB6 [0x77] SET_EVENT_TIME_WEATHER(hour=0*, weather=2*)
136: 0x0BBB [0x1C] WAIT(1* ticks)
137: 0x0BBE [0x2F] ??? (ID: 17875321/0x0110C179)->Render.Flags0 &= ~0x80000 // Bit 19
138: 0x0BC4 [0x4E] SET_ENTITY_HIDE_FLAG: Show ??? (ID: 17875321/0x0110C179)
139: 0x0BCA [0x59] UPDATE_ENTITY_DATA: Shla Kheefid (ID: 17875316/0x0110C174)->Render.Flags0 |= 0x200000
140: 0x0BD1 [0xBA] SET_ENTITY_POSITION(entity_id=??? (ID: 17875321/0x0110C179), pos_x=-481.806*, pos_z=-365.028*, pos_y=0.074*, direction=270.3°*)
141: 0x0BDE [0xBA] SET_ENTITY_POSITION(entity_id=Shla Kheefid (ID: 17875316/0x0110C174), pos_x=-481.863*, pos_z=-359.954*, pos_y=-0.050*, direction=40.4°*)
142: 0x0BEB [0x80] LOAD_WAIT(entity=??? (ID: 17875321/0x0110C179))
143: 0x0BF0 [0x80] LOAD_WAIT(entity=Shla Kheefid (ID: 17875316/0x0110C174))
144: 0x0BF5 [0x1C] WAIT(30* ticks)
145: 0x0BF8 [0x81] SET_ENTITY_BLINKING(blink_flag=0x00, entity=Shla Kheefid (ID: 17875316/0x0110C174))
146: 0x0BFE [0x5B] LOAD_EXT_SCHEDULER: Load scheduler "houl" with entities [Shla Kheefid (ID: 17875316/0x0110C174), Shla Kheefid (ID: 17875316/0x0110C174)], work=2967*
147: 0x0C0D [0x6B] STOP_AND_IDLE: ??? (ID: 17875321/0x0110C179) stops current action and resets to idle (animation="btl0")
148: 0x0C16 [0x45] LOAD_SCHEDULED_TASK: Load scheduler "s182" with entities [EventEntity, EventEntity], work=[558*, 0*]
149: 0x0C27 [0x1C] WAIT(15* ticks)
150: 0x0C2A [0x45] LOAD_SCHEDULED_TASK: Load scheduler "efon" with entities [LocalPlayer, LocalPlayer], work=[215*, 0*]
151: 0x0C3B [0x55] WAIT_LOAD_SCHEDULER: Wait for scheduler "efon" with entities [LocalPlayer, LocalPlayer], work=215*
152: 0x0C4A [0x1C] WAIT(150* ticks)
153: 0x0C4D [0x52] END_LOAD_SCHEDULER: End scheduler "s182" with entities [EventEntity, EventEntity], work=558*
154: 0x0C5C [0x45] LOAD_SCHEDULED_TASK: Load scheduler "s183" with entities [EventEntity, EventEntity], work=[558*, 0*]
155: 0x0C6D [0x1C] WAIT(150* ticks)
156: 0x0C70 [0x5B] LOAD_EXT_SCHEDULER: Load scheduler "hou1" with entities [Shla Kheefid (ID: 17875316/0x0110C174), Shla Kheefid (ID: 17875316/0x0110C174)], work=2967*
157: 0x0C7F [0x52] END_LOAD_SCHEDULER: End scheduler "s183" with entities [EventEntity, EventEntity], work=558*
158: 0x0C8E [0x45] LOAD_SCHEDULED_TASK: Load scheduler "s185" with entities [EventEntity, EventEntity], work=[558*, 0*]
159: 0x0C9F [0x1C] WAIT(100* ticks)
160: 0x0CA2 [0x9F] LOAD_SCHEDULED_TASK_ALT: Load scheduler "str0" with entities [EventEntity, EventEntity], work=[127*, 0*]
161: 0x0CB3 [0x1C] WAIT(15* ticks)
162: 0x0CB6 [0x9F] LOAD_SCHEDULED_TASK_ALT: Load scheduler "kill" with entities [EventEntity, EventEntity], work=[127*, 0*]
163: 0x0CC7 [0x1C] WAIT(60* ticks)
164: 0x0CCA [0x9F] LOAD_SCHEDULED_TASK_ALT: Load scheduler "str0" with entities [EventEntity, EventEntity], work=[127*, 0*]
165: 0x0CDB [0x1C] WAIT(15* ticks)
166: 0x0CDE [0x9F] LOAD_SCHEDULED_TASK_ALT: Load scheduler "kill" with entities [EventEntity, EventEntity], work=[127*, 0*]
167: 0x0CEF [0x1C] WAIT(5* ticks)
168: 0x0CF2 [0x52] END_LOAD_SCHEDULER: End scheduler "s185" with entities [EventEntity, EventEntity], work=558*
169: 0x0D01 [0x45] LOAD_SCHEDULED_TASK: Load scheduler "s184" with entities [EventEntity, EventEntity], work=[558*, 0*]
170: 0x0D12 [0x1C] WAIT(120* ticks)
171: 0x0D15 [0x52] END_LOAD_SCHEDULER: End scheduler "s184" with entities [EventEntity, EventEntity], work=558*
172: 0x0D24 [0x45] LOAD_SCHEDULED_TASK: Load scheduler "s186" with entities [EventEntity, EventEntity], work=[558*, 0*]
173: 0x0D35 [0x1C] WAIT(30* ticks)
174: 0x0D38 [0x2B] Shla Kheefid (ID: 17875316/0x0110C174) [7567*]:
    → "Lhe..."
175: 0x0D3F [0x23] WAIT_FOR_DIALOG_INTERACTION
176: 0x0D40 [0x2B] Shla Kheefid (ID: 17875316/0x0110C174) [7568*]:
    → "I should...have brrrought you with...me. I realize that now."
177: 0x0D47 [0x23] WAIT_FOR_DIALOG_INTERACTION
178: 0x0D48 [0x52] END_LOAD_SCHEDULER: End scheduler "s186" with entities [EventEntity, EventEntity], work=558*
179: 0x0D57 [0x45] LOAD_SCHEDULED_TASK: Load scheduler "s187" with entities [EventEntity, EventEntity], work=[558*, 0*]
180: 0x0D68 [0x4E] SET_ENTITY_HIDE_FLAG: Hide ??? (ID: 17875321/0x0110C179)
181: 0x0D6E [0x7C] Shla Kheefid (ID: 17875316/0x0110C174)->Render.Flags2 |= 0x00
182: 0x0D74 [0x2B] Shla Kheefid (ID: 17875316/0x0110C174) [7569*]:
    → "..."
183: 0x0D7B [0x23] WAIT_FOR_DIALOG_INTERACTION
184: 0x0D7C [0x52] END_LOAD_SCHEDULER: End scheduler "s187" with entities [EventEntity, EventEntity], work=558*
185: 0x0D8B [0x45] LOAD_SCHEDULED_TASK: Load scheduler "s188" with entities [EventEntity, EventEntity], work=[558*, 0*]
186: 0x0D9C [0x1C] WAIT(210* ticks)
187: 0x0D9F [0x5D] SET_MUSIC_VOLUME(volume=0*, fade_time=120*)
188: 0x0DA4 [0x45] LOAD_SCHEDULED_TASK: Load scheduler "fdo1" with entities [LocalPlayer, LocalPlayer], work=[200*, 0*]
189: 0x0DB5 [0x55] WAIT_LOAD_SCHEDULER: Wait for scheduler "fdo1" with entities [LocalPlayer, LocalPlayer], work=200*
190: 0x0DC4 [0x52] END_LOAD_SCHEDULER: End scheduler "s188" with entities [EventEntity, EventEntity], work=558*
191: 0x0DD3 [0x6B] STOP_AND_IDLE: Shla Kheefid (ID: 17875316/0x0110C174) stops current action and resets to idle (animation="idl0")
192: 0x0DDC [0x6B] STOP_AND_IDLE: ??? (ID: 17875321/0x0110C179) stops current action and resets to idle (animation="idl0")
193: 0x0DE5 [0x27] REQ_SET(priority=0x05, entity_id=??? (ID: 17875321/0x0110C179), tag_num=0x05)
194: 0x0DEC [0x22] ENTITY_HIDE_FLAG(enabled=0x00)
195: 0x0DEE [0x37] UPDATE_EVENT_POSITION_AND_DIR: x=-481.000*, z=-359.000*, y=-73.999*, direction=313.7°*
196: 0x0DF7 [0xBA] SET_ENTITY_POSITION(entity_id=Shla Kheefid (ID: 17875316/0x0110C174), pos_x=-481.000*, pos_z=-359.000*, pos_y=-73.999*, direction=313.7°*)
197: 0x0E04 [0x80] LOAD_WAIT(entity=EventEntity)
198: 0x0E09 [0x69] SET_SOUND_VOLUME: Mute Zone/Master/SpecialChat
199: 0x0E0D [0x69] SET_SOUND_VOLUME: Mute Zone
200: 0x0E11 [0x1C] WAIT(30* ticks)
201: 0x0E14 [0x2C] CREATE_SCHEDULER_TASK: Create scheduler "dead" with entities [Shla Kheefid (ID: 17875316/0x0110C174), Shla Kheefid (ID: 17875316/0x0110C174)]
202: 0x0E21 [0xC5] LOAD_SCHEDULED_TASK_ALT3: Load scheduler 0x80013030 for entities [EventEntity, EventEntity], work=213*, param=12403
203: 0x0E32 [0x1C] WAIT(90* ticks)
204: 0x0E35 [0x5C] MUSIC_CONTROL: Set Idle (Day) music to song 0*
205: 0x0E39 [0x5C] MUSIC_CONTROL: Set Idle (Night) music to song 0*
206: 0x0E3D [0x9A] WAIT_MUSIC_SERVER()
207: 0x0E3E [0x69] SET_SOUND_VOLUME: Unmute Zone/Master/SpecialChat
208: 0x0E42 [0x45] LOAD_SCHEDULED_TASK: Load scheduler "s189" with entities [EventEntity, EventEntity], work=[558*, 0*]
209: 0x0E53 [0x1C] WAIT(15* ticks)
210: 0x0E56 [0x45] LOAD_SCHEDULED_TASK: Load scheduler "fdi1" with entities [LocalPlayer, LocalPlayer], work=[200*, 0*]
211: 0x0E67 [0x1C] WAIT(120* ticks)
212: 0x0E6A [0x2B] Shla Kheefid (ID: 17875316/0x0110C174) [7570*]:
    → "(...Huh?)"
213: 0x0E71 [0x23] WAIT_FOR_DIALOG_INTERACTION
214: 0x0E72 [0x52] END_LOAD_SCHEDULER: End scheduler "s189" with entities [EventEntity, EventEntity], work=558*
215: 0x0E81 [0x45] LOAD_SCHEDULED_TASK: Load scheduler "s190" with entities [EventEntity, EventEntity], work=[558*, 0*]
216: 0x0E92 [0x2B] Shla Kheefid (ID: 17875316/0x0110C174) [7571*]:
    → "(Am I...dead?)"
217: 0x0E99 [0x23] WAIT_FOR_DIALOG_INTERACTION
218: 0x0E9A [0x52] END_LOAD_SCHEDULER: End scheduler "s190" with entities [EventEntity, EventEntity], work=558*
219: 0x0EA9 [0x45] LOAD_SCHEDULED_TASK: Load scheduler "s191" with entities [EventEntity, EventEntity], work=[558*, 0*]
220: 0x0EBA [0x2B] Shla Kheefid (ID: 17875316/0x0110C174) [7572*]:
    → "(What'll become of me?)"
221: 0x0EC1 [0x23] WAIT_FOR_DIALOG_INTERACTION
222: 0x0EC2 [0x52] END_LOAD_SCHEDULER: End scheduler "s191" with entities [EventEntity, EventEntity], work=558*
223: 0x0ED1 [0x45] LOAD_SCHEDULED_TASK: Load scheduler "s192" with entities [EventEntity, EventEntity], work=[558*, 0*]
224: 0x0EE2 [0x2B] Shla Kheefid (ID: 17875316/0x0110C174) [7573*]:
    → "(No, I'm not rrready to go! I have to tell them what I saw...)"
225: 0x0EE9 [0x23] WAIT_FOR_DIALOG_INTERACTION
226: 0x0EEA [0x52] END_LOAD_SCHEDULER: End scheduler "s192" with entities [EventEntity, EventEntity], work=558*
227: 0x0EF9 [0x45] LOAD_SCHEDULED_TASK: Load scheduler "s193" with entities [EventEntity, EventEntity], work=[558*, 0*]
228: 0x0F0A [0x2B] Shla Kheefid (ID: 17875316/0x0110C174) [7574*]:
    → "(Everything...so darrrk. I c-can't...see...)"
229: 0x0F11 [0x23] WAIT_FOR_DIALOG_INTERACTION
230: 0x0F12 [0x45] LOAD_SCHEDULED_TASK: Load scheduler "fdo1" with entities [LocalPlayer, LocalPlayer], work=[200*, 0*]
231: 0x0F23 [0x55] WAIT_LOAD_SCHEDULER: Wait for scheduler "fdo1" with entities [LocalPlayer, LocalPlayer], work=200*
232: 0x0F32 [0x52] END_LOAD_SCHEDULER: End scheduler "s193" with entities [EventEntity, EventEntity], work=558*
233: 0x0F41 [0x1C] WAIT(90* ticks)
234: 0x0F44 [0x2B] Shla Kheefid (ID: 17875316/0x0110C174) [7575*]:
    → "(...)"
235: 0x0F4B [0x23] WAIT_FOR_DIALOG_INTERACTION
236: 0x0F4C [0x4E] SET_ENTITY_HIDE_FLAG: Show ??? (ID: 17875321/0x0110C179)
237: 0x0F52 [0xBA] SET_ENTITY_POSITION(entity_id=??? (ID: 17875321/0x0110C179), pos_x=-477.181*, pos_z=-361.613*, pos_y=-73.000*, direction=313.7°*)
238: 0x0F5F [0x80] LOAD_WAIT(entity=??? (ID: 17875321/0x0110C179))
239: 0x0F64 [0x4A] ??? (ID: 17875321/0x0110C179) looks at Shla Kheefid (ID: 17875316/0x0110C174)
240: 0x0F6D [0x1C] WAIT(90* ticks)
241: 0x0F70 [0x45] LOAD_SCHEDULED_TASK: Load scheduler "s194" with entities [EventEntity, EventEntity], work=[558*, 0*]
242: 0x0F81 [0x1C] WAIT(15* ticks)
243: 0x0F84 [0x45] LOAD_SCHEDULED_TASK: Load scheduler "fdi1" with entities [LocalPlayer, LocalPlayer], work=[200*, 0*]
244: 0x0F95 [0x2B] ??? (ID: 17875321/0x0110C179) [7576*]:
    → "Hah. The wailing of your spirit cried out, and now--well, look at this."
245: 0x0F9C [0x23] WAIT_FOR_DIALOG_INTERACTION
246: 0x0F9D [0x52] END_LOAD_SCHEDULER: End scheduler "s194" with entities [EventEntity, EventEntity], work=558*
247: 0x0FAC [0x45] LOAD_SCHEDULED_TASK: Load scheduler "s195" with entities [EventEntity, EventEntity], work=[558*, 0*]
248: 0x0FBD [0x2B] Shla Kheefid (ID: 17875316/0x0110C174) [7577*]:
    → "(Who are...?)"
249: 0x0FC4 [0x23] WAIT_FOR_DIALOG_INTERACTION
250: 0x0FC5 [0x2B] ??? (ID: 17875321/0x0110C179) [7578*]:
    → "This will make an excellent specimen. I know what you desire. And I may yet grant it to you."
251: 0x0FCC [0x23] WAIT_FOR_DIALOG_INTERACTION
252: 0x0FCD [0x52] END_LOAD_SCHEDULER: End scheduler "s195" with entities [EventEntity, EventEntity], work=558*
253: 0x0FDC [0x45] LOAD_SCHEDULED_TASK: Load scheduler "s196" with entities [EventEntity, EventEntity], work=[558*, 0*]
254: 0x0FED [0x2B] ??? (ID: 17875321/0x0110C179) [7579*]:
    → "But, yes, you are indeed dead. To remain in this world would require an immense amount of power. Even if you were to find a new vessel, you won't be completely whole."
255: 0x0FF4 [0x23] WAIT_FOR_DIALOG_INTERACTION
256: 0x0FF5 [0x52] END_LOAD_SCHEDULER: End scheduler "s196" with entities [EventEntity, EventEntity], work=558*
257: 0x1004 [0x45] LOAD_SCHEDULED_TASK: Load scheduler "s198" with entities [EventEntity, EventEntity], work=[558*, 0*]
258: 0x1015 [0x2B] Shla Kheefid (ID: 17875316/0x0110C174) [7580*]:
    → "(I don't care. As long as I can prrrotect everyone, I don't care what happens to me!)"
259: 0x101C [0x23] WAIT_FOR_DIALOG_INTERACTION
260: 0x101D [0x52] END_LOAD_SCHEDULER: End scheduler "s198" with entities [EventEntity, EventEntity], work=558*
261: 0x102C [0x45] LOAD_SCHEDULED_TASK: Load scheduler "s197" with entities [EventEntity, EventEntity], work=[558*, 0*]
262: 0x103D [0x2B] ??? (ID: 17875321/0x0110C179) [7581*]:
    → "Hahaha. Then let me try this codex I grabbed off a wandering Goblin. We'll see if you are still pleased with your choice."
263: 0x1044 [0x23] WAIT_FOR_DIALOG_INTERACTION
264: 0x1045 [0x52] END_LOAD_SCHEDULER: End scheduler "s197" with entities [EventEntity, EventEntity], work=558*
265: 0x1054 [0x45] LOAD_SCHEDULED_TASK: Load scheduler "s199" with entities [EventEntity, EventEntity], work=[558*, 0*]
266: 0x1065 [0x2B] ??? (ID: 17875321/0x0110C179) [7582*]:
    → "Your passions and emotions may just let you survive this ritual. Enjoy your new "leash" on life."
267: 0x106C [0x23] WAIT_FOR_DIALOG_INTERACTION
268: 0x106D [0x52] END_LOAD_SCHEDULER: End scheduler "s199" with entities [EventEntity, EventEntity], work=558*
269: 0x107C [0x45] LOAD_SCHEDULED_TASK: Load scheduler "s200" with entities [EventEntity, EventEntity], work=[558*, 0*]
270: 0x108D [0x1C] WAIT(90* ticks)
271: 0x1090 [0x45] LOAD_SCHEDULED_TASK: Load scheduler "who1" with entities [LocalPlayer, LocalPlayer], work=[201*, 0*]
272: 0x10A1 [0x55] WAIT_LOAD_SCHEDULER: Wait for scheduler "who1" with entities [LocalPlayer, LocalPlayer], work=201*
273: 0x10B0 [0x52] END_LOAD_SCHEDULER: End scheduler "s200" with entities [EventEntity, EventEntity], work=558*
274: 0x10BF [0x6B] STOP_AND_IDLE: Shla Kheefid (ID: 17875316/0x0110C174) stops current action and resets to idle (animation="idl0")
275: 0x10C8 [0xC5] LOAD_SCHEDULED_TASK_ALT3: Load scheduler 0x8001306C for entities [EventEntity, EventEntity], work=213*, param=26987
276: 0x10D9 [0x6C] FADE_ENTITY_COLOR(entity_id=Unnamed NPC (ID: 17875317/0x0110C175), end_alpha=128*, fade_time=1*)
277: 0x10E2 [0xBA] SET_ENTITY_POSITION(entity_id=Unnamed NPC (ID: 17875317/0x0110C175), pos_x=-481.863*, pos_z=-359.954*, pos_y=-0.050*, direction=40.4°*)
278: 0x10EF [0x80] LOAD_WAIT(entity=Unnamed NPC (ID: 17875317/0x0110C175))
279: 0x10F4 [0x1C] WAIT(30* ticks)
280: 0x10F7 [0x66] LOAD_EXT_SCHEDULER_MAIN: Load scheduler "orz0" with entities [Unnamed NPC (ID: 17875317/0x0110C175), Unnamed NPC (ID: 17875317/0x0110C175)], work=190*
281: 0x1106 [0x1C] WAIT(60* ticks)
282: 0x1109 [0x69] SET_SOUND_VOLUME: Unmute Zone
283: 0x110D [0x45] LOAD_SCHEDULED_TASK: Load scheduler "s201" with entities [EventEntity, EventEntity], work=[558*, 0*]
284: 0x111E [0x1C] WAIT(15* ticks)
285: 0x1121 [0x45] LOAD_SCHEDULED_TASK: Load scheduler "whi1" with entities [LocalPlayer, LocalPlayer], work=[201*, 0*]
286: 0x1132 [0x45] LOAD_SCHEDULED_TASK: Load scheduler "efon" with entities [LocalPlayer, LocalPlayer], work=[215*, 0*]
287: 0x1143 [0x1C] WAIT(150* ticks)
288: 0x1146 [0x52] END_LOAD_SCHEDULER: End scheduler "s201" with entities [EventEntity, EventEntity], work=558*
289: 0x1155 [0x45] LOAD_SCHEDULED_TASK: Load scheduler "s202" with entities [EventEntity, EventEntity], work=[558*, 0*]
290: 0x1166 [0x5B] LOAD_EXT_SCHEDULER: Load scheduler "orz1" with entities [Unnamed NPC (ID: 17875317/0x0110C175), Unnamed NPC (ID: 17875317/0x0110C175)], work=3046*
291: 0x1175 [0x1C] WAIT(60* ticks)
292: 0x1178 [0x52] END_LOAD_SCHEDULER: End scheduler "s202" with entities [EventEntity, EventEntity], work=558*
293: 0x1187 [0x45] LOAD_SCHEDULED_TASK: Load scheduler "s203" with entities [EventEntity, EventEntity], work=[558*, 0*]
294: 0x1198 [0x1C] WAIT(210* ticks)
295: 0x119B [0x45] LOAD_SCHEDULED_TASK: Load scheduler "fdo1" with entities [LocalPlayer, LocalPlayer], work=[200*, 0*]
296: 0x11AC [0x55] WAIT_LOAD_SCHEDULER: Wait for scheduler "fdo1" with entities [LocalPlayer, LocalPlayer], work=200*
297: 0x11BB [0x52] END_LOAD_SCHEDULER: End scheduler "s203" with entities [EventEntity, EventEntity], work=558*
298: 0x11CA [0x27] REQ_SET(priority=0x05, entity_id=Unnamed NPC (ID: 17875317/0x0110C175), tag_num=0x04)
299: 0x11D1 [0x27] REQ_SET(priority=0x05, entity_id=??? (ID: 17875321/0x0110C179), tag_num=0x06)
300: 0x11D8 [0x35] LOAD_ZONE_NO_CLOSE(zone_id=712*)
301: 0x11DB [0x78] ENABLE_GAME_TIMER_RESET_WEATHER()
302: 0x11DC [0x1C] WAIT(1* ticks)
303: 0x11DF [0xBA] SET_ENTITY_POSITION(entity_id=Bilp (ID: 17875318/0x0110C176), pos_x=-419.530*, pos_z=-60.880*, pos_y=-19.640*, direction=218.7°*)
304: 0x11EC [0xBA] SET_ENTITY_POSITION(entity_id=Eamonn (ID: 17875319/0x0110C177), pos_x=-416.706*, pos_z=-58.198*, pos_y=-19.925*, direction=235.7°*)
305: 0x11F9 [0xBA] SET_ENTITY_POSITION(entity_id=Shla Kheefid (ID: 17875316/0x0110C174), pos_x=-423.523*, pos_z=-56.425*, pos_y=-19.648*, direction=30.8°*)
306: 0x1206 [0xBA] SET_ENTITY_POSITION(entity_id=Lhe Lhangavo (ID: 17875320/0x0110C178), pos_x=-419.095*, pos_z=-58.692*, pos_y=-19.654*, direction=377476065.0°*)
307: 0x1213 [0xBA] SET_ENTITY_POSITION(entity_id=LocalPlayer, pos_x=-422.334*, pos_z=-59.963*, pos_y=-19.681*, direction=235.7°*)
308: 0x1220 [0x80] LOAD_WAIT(entity=Shla Kheefid (ID: 17875316/0x0110C174))
309: 0x1225 [0x80] LOAD_WAIT(entity=Lhe Lhangavo (ID: 17875320/0x0110C178))
310: 0x122A [0x80] LOAD_WAIT(entity=LocalPlayer)
311: 0x122F [0x80] LOAD_WAIT(entity=Bilp (ID: 17875318/0x0110C176))
312: 0x1234 [0x80] LOAD_WAIT(entity=Eamonn (ID: 17875319/0x0110C177))
313: 0x1239 [0x4A] LocalPlayer looks at Shla Kheefid (ID: 17875316/0x0110C174)
314: 0x1242 [0x4A] Bilp (ID: 17875318/0x0110C176) looks at Shla Kheefid (ID: 17875316/0x0110C174)
315: 0x124B [0x4A] Eamonn (ID: 17875319/0x0110C177) looks at Shla Kheefid (ID: 17875316/0x0110C174)
316: 0x1254 [0x1C] WAIT(30* ticks)
317: 0x1257 [0x81] SET_ENTITY_BLINKING(blink_flag=0x00, entity=Lhe Lhangavo (ID: 17875320/0x0110C178))
318: 0x125D [0x7C] Lhe Lhangavo (ID: 17875320/0x0110C178)->Render.Flags2 |= 0x00
319: 0x1263 [0x5B] LOAD_EXT_SCHEDULER: Load scheduler "mae1" with entities [Lhe Lhangavo (ID: 17875320/0x0110C178), Lhe Lhangavo (ID: 17875320/0x0110C178)], work=3277*
320: 0x1272 [0x5B] LOAD_EXT_SCHEDULER: Load scheduler "sha0" with entities [Shla Kheefid (ID: 17875316/0x0110C174), Shla Kheefid (ID: 17875316/0x0110C174)], work=3046*
321: 0x1281 [0x53] WAIT_SCHEDULER_TASK: Wait for scheduler "sha0" with entities [Shla Kheefid (ID: 17875316/0x0110C174), Shla Kheefid (ID: 17875316/0x0110C174)]
322: 0x128E [0x5C] MUSIC_CONTROL: Set Idle (Day) music to song 61*
323: 0x1292 [0x5C] MUSIC_CONTROL: Set Idle (Night) music to song 61*
324: 0x1296 [0x9A] WAIT_MUSIC_SERVER()
325: 0x1297 [0x45] LOAD_SCHEDULED_TASK: Load scheduler "s204" with entities [EventEntity, EventEntity], work=[558*, 0*]
326: 0x12A8 [0x1C] WAIT(15* ticks)
327: 0x12AB [0x45] LOAD_SCHEDULED_TASK: Load scheduler "fdi1" with entities [LocalPlayer, LocalPlayer], work=[200*, 0*]
328: 0x12BC [0x1C] WAIT(30* ticks)
329: 0x12BF [0x5B] LOAD_EXT_SCHEDULER: Load scheduler "fe01" with entities [Lhe Lhangavo (ID: 17875320/0x0110C178), Lhe Lhangavo (ID: 17875320/0x0110C178)], work=3276*
330: 0x12CE [0x2B] Lhe Lhangavo (ID: 17875320/0x0110C178) [7583*]:
    → "How... You mean you're...dead!?"
331: 0x12D5 [0x23] WAIT_FOR_DIALOG_INTERACTION
332: 0x12D6 [0x52] END_LOAD_SCHEDULER: End scheduler "s204" with entities [EventEntity, EventEntity], work=558*
333: 0x12E5 [0x45] LOAD_SCHEDULED_TASK: Load scheduler "s205" with entities [EventEntity, EventEntity], work=[558*, 0*]
334: 0x12F6 [0x2B] Lhe Lhangavo (ID: 17875320/0x0110C178) [7584*]:
    → "This is impossible... You're rrright here!"
335: 0x12FD [0x23] WAIT_FOR_DIALOG_INTERACTION
336: 0x12FE [0x5B] LOAD_EXT_SCHEDULER: Load scheduler "fe00" with entities [Lhe Lhangavo (ID: 17875320/0x0110C178), Lhe Lhangavo (ID: 17875320/0x0110C178)], work=3276*
337: 0x130D [0x52] END_LOAD_SCHEDULER: End scheduler "s205" with entities [EventEntity, EventEntity], work=558*
338: 0x131C [0x45] LOAD_SCHEDULED_TASK: Load scheduler "s206" with entities [EventEntity, EventEntity], work=[558*, 0*]
339: 0x132D [0x7C] Shla Kheefid (ID: 17875316/0x0110C174)->Render.Flags2 |= 0x01
340: 0x1333 [0x2B] Shla Kheefid (ID: 17875316/0x0110C174) [7585*]:
    → "I hearrrd a voice calling out to me. I can't explain it..."
341: 0x133A [0x23] WAIT_FOR_DIALOG_INTERACTION
342: 0x133B [0x2B] Shla Kheefid (ID: 17875316/0x0110C174) [7586*]:
    → "But whatever it was trrransported me back here, to this world."
343: 0x1342 [0x23] WAIT_FOR_DIALOG_INTERACTION
344: 0x1343 [0x52] END_LOAD_SCHEDULER: End scheduler "s206" with entities [EventEntity, EventEntity], work=558*
345: 0x1352 [0x45] LOAD_SCHEDULED_TASK: Load scheduler "s207" with entities [EventEntity, EventEntity], work=[558*, 0*]
346: 0x1363 [0x5B] LOAD_EXT_SCHEDULER: Load scheduler "sha1" with entities [Shla Kheefid (ID: 17875316/0x0110C174), Shla Kheefid (ID: 17875316/0x0110C174)], work=3046*
347: 0x1372 [0x2B] Shla Kheefid (ID: 17875316/0x0110C174) [7587*]:
    → "Lhe...the dangers of Eastern Ulbuka are graverrrr than you could possibly imagine."
348: 0x1379 [0x23] WAIT_FOR_DIALOG_INTERACTION
349: 0x137A [0x2B] Shla Kheefid (ID: 17875316/0x0110C174) [7588*]:
    → "Neither you nor anyone else must ever trrread upon its forbidden grounds!"
350: 0x1381 [0x23] WAIT_FOR_DIALOG_INTERACTION
351: 0x1382 [0x52] END_LOAD_SCHEDULER: End scheduler "s207" with entities [EventEntity, EventEntity], work=558*
352: 0x1391 [0x45] LOAD_SCHEDULED_TASK: Load scheduler "s208" with entities [EventEntity, EventEntity], work=[558*, 0*]
353: 0x13A2 [0x2B] Shla Kheefid (ID: 17875316/0x0110C174) [7589*]:
    → "Those fairy tales we hearrrd as children...true, all of them...down to the last word."
354: 0x13A9 [0x23] WAIT_FOR_DIALOG_INTERACTION
355: 0x13AA [0x52] END_LOAD_SCHEDULER: End scheduler "s208" with entities [EventEntity, EventEntity], work=558*
356: 0x13B9 [0x45] LOAD_SCHEDULED_TASK: Load scheduler "s209" with entities [EventEntity, EventEntity], work=[558*, 0*]
357: 0x13CA [0xCD] LOAD_SCHEDULED_TASK_ALT4: Load scheduler "pc00" with entities [Shla Kheefid (ID: 17875316/0x0110C174), Shla Kheefid (ID: 17875316/0x0110C174)], work=[98*, 0*]
358: 0x13DB [0x2B] Shla Kheefid (ID: 17875316/0x0110C174) [7590*]:
    → "Lhe, give me your worrrd...that you'll never go any further into the woods."
359: 0x13E2 [0x23] WAIT_FOR_DIALOG_INTERACTION
360: 0x13E3 [0x2B] Lhe Lhangavo (ID: 17875320/0x0110C178) [7591*]:
    → "Shla?"
361: 0x13EA [0x23] WAIT_FOR_DIALOG_INTERACTION
362: 0x13EB [0x52] END_LOAD_SCHEDULER: End scheduler "s209" with entities [EventEntity, EventEntity], work=558*
363: 0x13FA [0x45] LOAD_SCHEDULED_TASK: Load scheduler "s210" with entities [EventEntity, EventEntity], work=[558*, 0*]
364: 0x140B [0x2B] Shla Kheefid (ID: 17875316/0x0110C174) [7592*]:
    → "Please...I'm begging you..."
365: 0x1412 [0x23] WAIT_FOR_DIALOG_INTERACTION
366: 0x1413 [0x1C] WAIT(60* ticks)
367: 0x1416 [0xCD] LOAD_SCHEDULED_TASK_ALT4: Load scheduler "pc01" with entities [Shla Kheefid (ID: 17875316/0x0110C174), Shla Kheefid (ID: 17875316/0x0110C174)], work=[98*, 0*]
368: 0x1427 [0x1C] WAIT(90* ticks)
369: 0x142A [0x5B] LOAD_EXT_SCHEDULER: Load scheduler "fe01" with entities [Lhe Lhangavo (ID: 17875320/0x0110C178), Lhe Lhangavo (ID: 17875320/0x0110C178)], work=3276*
370: 0x1439 [0x52] END_LOAD_SCHEDULER: End scheduler "s210" with entities [EventEntity, EventEntity], work=558*
371: 0x1448 [0x45] LOAD_SCHEDULED_TASK: Load scheduler "s211" with entities [EventEntity, EventEntity], work=[558*, 0*]
372: 0x1459 [0x2B] Lhe Lhangavo (ID: 17875320/0x0110C178) [7593*]:
    → "Shla!"
373: 0x1460 [0x23] WAIT_FOR_DIALOG_INTERACTION
374: 0x1461 [0x5B] LOAD_EXT_SCHEDULER: Load scheduler "ff00" with entities [Lhe Lhangavo (ID: 17875320/0x0110C178), Lhe Lhangavo (ID: 17875320/0x0110C178)], work=3276*
375: 0x1470 [0x52] END_LOAD_SCHEDULER: End scheduler "s211" with entities [EventEntity, EventEntity], work=558*
376: 0x147F [0x45] LOAD_SCHEDULED_TASK: Load scheduler "s212" with entities [EventEntity, EventEntity], work=[558*, 0*]
377: 0x1490 [0x1C] WAIT(30* ticks)
378: 0x1493 [0x4B] UPDATE_ENTITY_YAW(entity=Eamonn (ID: 17875319/0x0110C177), yaw=12.2°*)
379: 0x149A [0x2B] Lhe Lhangavo (ID: 17875320/0x0110C178) [7594*]:
    → "..."
380: 0x14A1 [0x23] WAIT_FOR_DIALOG_INTERACTION
381: 0x14A2 [0x1C] WAIT(120* ticks)
382: 0x14A5 [0x52] END_LOAD_SCHEDULER: End scheduler "s212" with entities [EventEntity, EventEntity], work=558*
383: 0x14B4 [0x45] LOAD_SCHEDULED_TASK: Load scheduler "s213" with entities [EventEntity, EventEntity], work=[558*, 0*]
384: 0x14C5 [0x66] LOAD_EXT_SCHEDULER_MAIN: Load scheduler "tlk0" with entities [Eamonn (ID: 17875319/0x0110C177), Eamonn (ID: 17875319/0x0110C177)], work=9*
385: 0x14D4 [0x2B] Eamonn (ID: 17875319/0x0110C177) [7595*]:
    → "M-Maester..."
386: 0x14DB [0x23] WAIT_FOR_DIALOG_INTERACTION
387: 0x14DC [0x4A] Bilp (ID: 17875318/0x0110C176) looks at Lhe Lhangavo (ID: 17875320/0x0110C178)
388: 0x14E5 [0x4A] LocalPlayer looks at Lhe Lhangavo (ID: 17875320/0x0110C178)
389: 0x14EE [0x2B] Eamonn (ID: 17875319/0x0110C177) [7596*]:
    → "Do you think we should stop the colonization effort? The fairy tales she mentioned...she must have meant the will of the founder."
390: 0x14F5 [0x23] WAIT_FOR_DIALOG_INTERACTION
391: 0x14F6 [0x66] LOAD_EXT_SCHEDULER_MAIN: Load scheduler "tlk1" with entities [Eamonn (ID: 17875319/0x0110C177), Eamonn (ID: 17875319/0x0110C177)], work=9*
392: 0x1505 [0x52] END_LOAD_SCHEDULER: End scheduler "s213" with entities [EventEntity, EventEntity], work=558*
393: 0x1514 [0x45] LOAD_SCHEDULED_TASK: Load scheduler "s215" with entities [EventEntity, EventEntity], work=[558*, 0*]
394: 0x1525 [0x5B] LOAD_EXT_SCHEDULER: Load scheduler "mae2" with entities [Lhe Lhangavo (ID: 17875320/0x0110C178), Lhe Lhangavo (ID: 17875320/0x0110C178)], work=3277*
395: 0x1534 [0x2B] Lhe Lhangavo (ID: 17875320/0x0110C178) [7597*]:
    → "You two boobs think I'm going to stand down now?"
396: 0x153B [0x23] WAIT_FOR_DIALOG_INTERACTION
397: 0x153C [0x53] WAIT_SCHEDULER_TASK: Wait for scheduler "mae2" with entities [Lhe Lhangavo (ID: 17875320/0x0110C178), Lhe Lhangavo (ID: 17875320/0x0110C178)]
398: 0x1549 [0x52] END_LOAD_SCHEDULER: End scheduler "s215" with entities [EventEntity, EventEntity], work=558*
399: 0x1558 [0x45] LOAD_SCHEDULED_TASK: Load scheduler "s238" with entities [EventEntity, EventEntity], work=[558*, 0*]
400: 0x1569 [0x66] LOAD_EXT_SCHEDULER_MAIN: Load scheduler "tlk0" with entities [Bilp (ID: 17875318/0x0110C176), Bilp (ID: 17875318/0x0110C176)], work=69*
401: 0x1578 [0x1C] WAIT(15* ticks)
402: 0x157B [0x6B] STOP_AND_IDLE: Lhe Lhangavo (ID: 17875320/0x0110C178) stops current action and resets to idle (animation="idl0")
403: 0x1584 [0xBA] SET_ENTITY_POSITION(entity_id=Lhe Lhangavo (ID: 17875320/0x0110C178), pos_x=-421.487*, pos_z=-57.847*, pos_y=-19.630*, direction=235.7°*)
404: 0x1591 [0x80] LOAD_WAIT(entity=Lhe Lhangavo (ID: 17875320/0x0110C178))
405: 0x1596 [0x4A] Lhe Lhangavo (ID: 17875320/0x0110C178) looks at Eamonn (ID: 17875319/0x0110C177)
406: 0x159F [0x7B] Lhe Lhangavo (ID: 17875320/0x0110C178) stops talking
407: 0x15A4 [0x2B] Bilp (ID: 17875318/0x0110C176) [7598*]:
    → "B-but you saw what she had become!"
408: 0x15AB [0x23] WAIT_FOR_DIALOG_INTERACTION
409: 0x15AC [0x66] LOAD_EXT_SCHEDULER_MAIN: Load scheduler "tlk1" with entities [Bilp (ID: 17875318/0x0110C176), Bilp (ID: 17875318/0x0110C176)], work=69*
410: 0x15BB [0x52] END_LOAD_SCHEDULER: End scheduler "s238" with entities [EventEntity, EventEntity], work=558*
411: 0x15CA [0x45] LOAD_SCHEDULED_TASK: Load scheduler "s216" with entities [EventEntity, EventEntity], work=[558*, 0*]
412: 0x15DB [0x5B] LOAD_EXT_SCHEDULER: Load scheduler "fb01" with entities [Lhe Lhangavo (ID: 17875320/0x0110C178), Lhe Lhangavo (ID: 17875320/0x0110C178)], work=3276*
413: 0x15EA [0x79] Lhe Lhangavo (ID: 17875320/0x0110C178) looks at Bilp (ID: 17875318/0x0110C176) (Basic look)
414: 0x15F4 [0x5B] LOAD_EXT_SCHEDULER: Load scheduler "ksi0" with entities [Lhe Lhangavo (ID: 17875320/0x0110C178), Lhe Lhangavo (ID: 17875320/0x0110C178)], work=3278*
415: 0x1603 [0x2B] Lhe Lhangavo (ID: 17875320/0x0110C178) [7599*]:
    → "Imbeciles! You didn't think a lost parrradise was waiting for us, did you!?"
416: 0x160A [0x23] WAIT_FOR_DIALOG_INTERACTION
417: 0x160B [0xBA] SET_ENTITY_POSITION(entity_id=Eamonn (ID: 17875319/0x0110C177), pos_x=-418.589*, pos_z=-57.035*, pos_y=-19.960*, direction=235.7°*)
418: 0x1618 [0x80] LOAD_WAIT(entity=Eamonn (ID: 17875319/0x0110C177))
419: 0x161D [0x4A] Eamonn (ID: 17875319/0x0110C177) looks at Lhe Lhangavo (ID: 17875320/0x0110C178)
420: 0x1626 [0x53] WAIT_SCHEDULER_TASK: Wait for scheduler "ksi0" with entities [Lhe Lhangavo (ID: 17875320/0x0110C178), Lhe Lhangavo (ID: 17875320/0x0110C178)]
421: 0x1633 [0x5B] LOAD_EXT_SCHEDULER: Load scheduler "ksi1" with entities [Lhe Lhangavo (ID: 17875320/0x0110C178), Lhe Lhangavo (ID: 17875320/0x0110C178)], work=3278*
422: 0x1642 [0x1C] WAIT(30* ticks)
423: 0x1645 [0x52] END_LOAD_SCHEDULER: End scheduler "s216" with entities [EventEntity, EventEntity], work=558*
424: 0x1654 [0x45] LOAD_SCHEDULED_TASK: Load scheduler "s217" with entities [EventEntity, EventEntity], work=[558*, 0*]
425: 0x1665 [0x7B] Lhe Lhangavo (ID: 17875320/0x0110C178) stops talking
426: 0x166A [0x2B] Lhe Lhangavo (ID: 17875320/0x0110C178) [7600*]:
    → "I don't care if we're grrreeted by the flames of hell themselves. We've got a task to do, and we're going to do it."
427: 0x1671 [0x23] WAIT_FOR_DIALOG_INTERACTION
428: 0x1672 [0x5B] LOAD_EXT_SCHEDULER: Load scheduler "fb00" with entities [Lhe Lhangavo (ID: 17875320/0x0110C178), Lhe Lhangavo (ID: 17875320/0x0110C178)], work=3276*
429: 0x1681 [0x53] WAIT_SCHEDULER_TASK: Wait for scheduler "ksi1" with entities [Lhe Lhangavo (ID: 17875320/0x0110C178), Lhe Lhangavo (ID: 17875320/0x0110C178)]
430: 0x168E [0x52] END_LOAD_SCHEDULER: End scheduler "s217" with entities [EventEntity, EventEntity], work=558*
431: 0x169D [0x45] LOAD_SCHEDULED_TASK: Load scheduler "s218" with entities [EventEntity, EventEntity], work=[558*, 0*]
432: 0x16AE [0x27] REQ_SET(priority=0x05, entity_id=Lhe Lhangavo (ID: 17875320/0x0110C178), tag_num=0x04)
433: 0x16B5 [0x1C] WAIT(180* ticks)
434: 0x16B8 [0x52] END_LOAD_SCHEDULER: End scheduler "s218" with entities [EventEntity, EventEntity], work=558*
435: 0x16C7 [0x45] LOAD_SCHEDULED_TASK: Load scheduler "s219" with entities [EventEntity, EventEntity], work=[558*, 0*]
436: 0x16D8 [0x4A] Eamonn (ID: 17875319/0x0110C177) looks at Lhe Lhangavo (ID: 17875320/0x0110C178)
437: 0x16E1 [0x1C] WAIT(30* ticks)
438: 0x16E4 [0x4A] Bilp (ID: 17875318/0x0110C176) looks at Lhe Lhangavo (ID: 17875320/0x0110C178)
439: 0x16ED [0x4A] LocalPlayer looks at Lhe Lhangavo (ID: 17875320/0x0110C178)
440: 0x16F6 [0x7A] VM_CONTROL: Reset VM for Lhe Lhangavo (ID: 17875320/0x0110C178)
441: 0x16FC [0x6E] Eamonn (ID: 17875319/0x0110C177) uses emote 29*
442: 0x1703 [0x99] Wait for Eamonn (ID: 17875319/0x0110C177) animation to complete
443: 0x1708 [0x2B] Eamonn (ID: 17875319/0x0110C177) [7601*]:
    → "M-Maester! Waaait!"
444: 0x170F [0x23] WAIT_FOR_DIALOG_INTERACTION
445: 0x1710 [0xBA] SET_ENTITY_POSITION(entity_id=Lhe Lhangavo (ID: 17875320/0x0110C178), pos_x=-413.271*, pos_z=-59.370*, pos_y=-20.210*, direction=348.4°*)
446: 0x171D [0x80] LOAD_WAIT(entity=Lhe Lhangavo (ID: 17875320/0x0110C178))
447: 0x1722 [0x27] REQ_SET(priority=0x05, entity_id=Lhe Lhangavo (ID: 17875320/0x0110C178), tag_num=0x05)
448: 0x1729 [0x1C] WAIT(15* ticks)
449: 0x172C [0x52] END_LOAD_SCHEDULER: End scheduler "s219" with entities [EventEntity, EventEntity], work=558*
450: 0x173B [0x45] LOAD_SCHEDULED_TASK: Load scheduler "s220" with entities [EventEntity, EventEntity], work=[558*, 0*]
451: 0x174C [0x27] REQ_SET(priority=0x05, entity_id=Eamonn (ID: 17875319/0x0110C177), tag_num=0x06)
