# 17875322

## Common Data

| Field            | Value               |
|------------------|---------------------|
| Zone             | Sih Gates (ID: 268) |
| Block Size       | 5212 bytes          |
| Total Events     | 3                   |
| References Count | 121                 |

## List of Events

| Event ID              | Entrypoint   |   Size |   Instructions |
|-----------------------|--------------|--------|----------------|
| [65535](#event-65535) | 0x0000       |      1 |              1 |
| [15](#event-15)       | 0x0001       |   2512 |            322 |
| [16](#event-16)       | 0x09D1       |   2186 |            291 |

## DAT References (imed_data)

|   Index | Hex Value   |   Dec Value |
|---------|-------------|-------------|
|       0 | 0x00C8      |         200 |
|       1 | 0x0000      |           0 |
|       2 | 0x0013      |          19 |
|       3 | 0x19EA6     |      106150 |
|       4 | 0xFFFCA130  |  4294746416 |
|       5 | 0xFFFFFE5C  |  4294966876 |
|       6 | 0x001E      |          30 |
|       7 | 0x0009      |           9 |
|       8 | 0x027C      |         636 |
|       9 | 0x0186      |         390 |
|      10 | 0x1DC3      |        7619 |
|      11 | 0x003C      |          60 |
|      12 | 0x0078      |         120 |
|      13 | 0x1DC4      |        7620 |
|      14 | 0x1DC5      |        7621 |
|      15 | 0x0064      |         100 |
|      16 | 0x17C5E     |       97374 |
|      17 | 0xFFFCA99B  |  4294748571 |
|      18 | 0x0139      |         313 |
|      19 | 0x0096      |         150 |
|      20 | 0x0005      |           5 |
|      21 | 0x0006      |           6 |
|      22 | 0x1DC6      |        7622 |
|      23 | 0x0001      |           1 |
|      24 | 0x1DC7      |        7623 |
|      25 | 0x0015      |          21 |
|      26 | 0x1DC8      |        7624 |
|      27 | 0x1DC9      |        7625 |
|      28 | 0x005A      |          90 |
|      29 | 0x1DCA      |        7626 |
|      30 | 0x0095      |         149 |
|      31 | 0x1DCB      |        7627 |
|      32 | 0x1DCC      |        7628 |
|      33 | 0x1DCD      |        7629 |
|      34 | 0x1DCE      |        7630 |
|      35 | 0x1DCF      |        7631 |
|      36 | 0x1DD0      |        7632 |
|      37 | 0x0007      |           7 |
|      38 | 0x1DD1      |        7633 |
|      39 | 0x1DD2      |        7634 |
|      40 | 0x1DD3      |        7635 |
|      41 | 0x1DD4      |        7636 |
|      42 | 0x1DD5      |        7637 |
|      43 | 0x1DD6      |        7638 |
|      44 | 0x1DD7      |        7639 |
|      45 | 0x1DD8      |        7640 |
|      46 | 0x0080      |         128 |
|      47 | 0x00FA      |         250 |
|      48 | 0x1DD9      |        7641 |
|      49 | 0x1DDA      |        7642 |
|      50 | 0x1DDB      |        7643 |
|      51 | 0x1DDC      |        7644 |
|      52 | 0x1DDD      |        7645 |
|      53 | 0x1DDE      |        7646 |
|      54 | 0x1DDF      |        7647 |
|      55 | 0x1DE0      |        7648 |
|      56 | 0x1DE1      |        7649 |
|      57 | 0x1DE2      |        7650 |
|      58 | 0x1DE3      |        7651 |
|      59 | 0x1DE4      |        7652 |
|      60 | 0x1DE5      |        7653 |
|      61 | 0x1DE6      |        7654 |
|      62 | 0x1DE7      |        7655 |
|      63 | 0x1DE8      |        7656 |
|      64 | 0x000B      |          11 |
|      65 | 0x1DE9      |        7657 |
|      66 | 0x1DEA      |        7658 |
|      67 | 0x1DEB      |        7659 |
|      68 | 0x1DEC      |        7660 |
|      69 | 0x1DED      |        7661 |
|      70 | 0x1892A     |      100650 |
|      71 | 0xFFFCA8EC  |  4294748396 |
|      72 | 0x0366      |         870 |
|      73 | 0x1DEE      |        7662 |
|      74 | 0x1DEF      |        7663 |
|      75 | 0x1DF0      |        7664 |
|      76 | 0x08DF      |        2271 |
|      77 | 0x1DF1      |        7665 |
|      78 | 0x1DF2      |        7666 |
|      79 | 0x00BF      |         191 |
|      80 | 0x012C      |         300 |
|      81 | 0x00D2      |         210 |
|      82 | 0x00B4      |         180 |
|      83 | 0x1DF3      |        7667 |
|      84 | 0x1DF4      |        7668 |
|      85 | 0x010D      |         269 |
|      86 | 0x1DF5      |        7669 |
|      87 | 0x1DF6      |        7670 |
|      88 | 0x1DF7      |        7671 |
|      89 | 0x1DF8      |        7672 |
|      90 | 0x1DF9      |        7673 |
|      91 | 0x004E      |          78 |
|      92 | 0x1DFA      |        7674 |
|      93 | 0x0BC1      |        3009 |
|      94 | 0x1DFB      |        7675 |
|      95 | 0x1DFC      |        7676 |
|      96 | 0x1DFD      |        7677 |
|      97 | 0x1DFE      |        7678 |
|      98 | 0x0040      |          64 |
|      99 | 0x00C0      |         192 |
|     100 | 0x1DFF      |        7679 |
|     101 | 0x17359     |       95065 |
|     102 | 0xFFFCB33C  |  4294751036 |
|     103 | 0xFFFFFDE7  |  4294966759 |
|     104 | 0x0400      |        1024 |
|     105 | 0x0445      |        1093 |
|     106 | 0x1E00      |        7680 |
|     107 | 0x1E01      |        7681 |
|     108 | 0x1E02      |        7682 |
|     109 | 0x1E03      |        7683 |
|     110 | 0x1E04      |        7684 |
|     111 | 0x1E05      |        7685 |
|     112 | 0x1E06      |        7686 |
|     113 | 0x1E07      |        7687 |
|     114 | 0x1E08      |        7688 |
|     115 | 0x1970B     |      104203 |
|     116 | 0xFFFCA2E6  |  4294746854 |
|     117 | 0xFFFFF8F8  |  4294965496 |
|     118 | 0x19FB9     |      106425 |
|     119 | 0xFFFCA135  |  4294746421 |
|     120 | 0xFFFFFE44  |  4294966852 |

## String References

- **7623**: How do you address him? [Midras[./?]/Junior[./?]]
- **7656**: How about it? [Promise to go to Bastok./Not with that attitude!]
- **7665**: You hand over $3.
- **7680**: (Omega, give me your report.)
- **7684**: (...Understood. Don't concern yourself with the latter--many other agents are already in place. Proceed with your current mission. We await further details.)

## Events

### Event 65535

#### Metadata

| Field        | Value   |
|--------------|---------|
| Entrypoint   | 0x0000  |
| Data Size    | 1 bytes |
| Instructions | 1       |

```
      00 01 02 03 04 05 06 07  08 09 0A 0B 0C 0D 0E 0F
      -- -- -- -- -- -- -- --  -- -- -- -- -- -- -- --
0000: 00                                                .               
```

#### Opcodes

```
  0: 0x0000 [0x00] END_REQSTACK()
```

### Event 15

#### Metadata

| Field        | Value      |
|--------------|------------|
| Entrypoint   | 0x0001     |
| Data Size    | 2512 bytes |
| Instructions | 321        |

```
      00 01 02 03 04 05 06 07  08 09 0A 0B 0C 0D 0E 0F
      -- -- -- -- -- -- -- --  -- -- -- -- -- -- -- --
0000:    42 45 00 80 F0 FF FF  7F F0 FF FF 7F 66 64 6F   BE..........fdo
0010: 31 01 80 55 00 80 F0 FF  FF 7F F0 FF FF 7F 66 64  1..U..........fd
0020: 6F 31 46 01 38 02 80 2F  00 7B C1 10 01 4E 00 7B  o1F.8../.{...N.{
0030: C1 10 01 BA 7B C1 10 01  03 80 04 80 05 80 01 80  ....{...........
0040: BA F0 FF FF 7F 01 80 01  80 01 80 01 80 4E 01 F0  .............N..
0050: FF FF 7F 80 7B C1 10 01  80 F0 FF FF 7F 94 01 7B  ....{..........{
0060: C1 10 01 94 01 F0 FF FF  7F 27 10 F0 FF FF 7F 02  .........'......
0070: 1C 06 80 66 07 80 7B C1  10 01 7B C1 10 01 73 69  ...f..{...{...si
0080: 72 30 45 00 80 F0 FF FF  7F F0 FF FF 7F 66 64 69  r0E..........fdi
0090: 31 01 80 45 08 80 F8 FF  FF 7F F8 FF FF 7F 73 30  1..E..........s0
00A0: 30 38 01 80 1C 09 80 2B  7B C1 10 01 0A 80 23 1C  08.....+{.....#.
00B0: 0B 80 7C 00 7B C1 10 01  81 00 7B C1 10 01 66 07  ..|.{.....{...f.
00C0: 80 7B C1 10 01 7B C1 10  01 73 69 72 31 52 08 80  .{...{...sir1R..
00D0: F8 FF FF 7F F8 FF FF 7F  73 30 30 38 45 08 80 F8  ........s008E...
00E0: FF FF 7F F8 FF FF 7F 73  30 30 39 01 80 1C 0C 80  .......s009.....
00F0: 2B 7B C1 10 01 0D 80 23  2B 7B C1 10 01 0E 80 23  +{.....#+{.....#
0100: 66 07 80 7B C1 10 01 7B  C1 10 01 73 68 61 31 7C  f..{...{...sha1|
0110: 01 7B C1 10 01 81 01 7B  C1 10 01 1C 0F 80 52 08  .{.....{......R.
0120: 80 F8 FF FF 7F F8 FF FF  7F 73 30 30 39 45 08 80  .........s009E..
0130: F8 FF FF 7F F8 FF FF 7F  73 30 31 31 01 80 BA F0  ........s011....
0140: FF FF 7F 10 80 11 80 12  80 01 80 4E 00 F0 FF FF  ...........N....
0150: 7F 27 10 F0 FF FF 7F 0A  1C 13 80 52 08 80 F8 FF  .'.........R....
0160: FF 7F F8 FF FF 7F 73 30  31 31 02 02 10 14 80 00  ......s011......
0170: 86 01 45 08 80 F8 FF FF  7F F8 FF FF 7F 73 30 31  ..E..........s01
0180: 36 01 80 01 B3 01 02 02  10 15 80 00 A2 01 45 08  6.............E.
0190: 80 F8 FF FF 7F F8 FF FF  7F 73 30 31 36 01 80 01  .........s016...
01A0: B3 01 45 08 80 F8 FF FF  7F F8 FF FF 7F 73 30 31  ..E..........s01
01B0: 30 01 80 6E 7B C1 10 01  02 80 99 7B C1 10 01 2B  0..n{......{...+
01C0: 7B C1 10 01 16 80 23 2A  10 F0 FF FF 7F 4A F0 FF  {.....#*.....J..
01D0: FF 7F 7B C1 10 01 6F 76  F0 FF FF 7F 03 02 10 17  ..{...ov........
01E0: 80 24 18 80 01 80 01 80  25 02 00 10 01 80 00 A6  .$......%.......
01F0: 02 29 10 F0 FF FF 7F 02  03 03 10 06 80 27 10 F0  .)...........'..
0200: FF FF 7F 09 2A 10 F0 FF  FF 7F 6E 7B C1 10 01 19  ....*.....n{....
0210: 80 99 7B C1 10 01 1C 0B  80 4A 7B C1 10 01 F0 FF  ..{......J{.....
0220: FF 7F 6F 76 7B C1 10 01  1C 06 80 66 07 80 7B C1  ..ov{......f..{.
0230: 10 01 7B C1 10 01 74 6C  6B 30 2B 7B C1 10 01 1A  ..{...tlk0+{....
0240: 80 23 2B 7B C1 10 01 1B  80 23 66 07 80 7B C1 10  .#+{.....#f..{..
0250: 01 7B C1 10 01 74 6C 6B  31 29 10 F0 FF FF 7F 02  .{...tlk1)......
0260: 02 02 10 14 80 00 7A 02  52 08 80 F8 FF FF 7F F8  ......z.R.......
0270: FF FF 7F 73 30 31 36 01  A3 02 02 02 10 15 80 00  ...s016.........
0280: 94 02 52 08 80 F8 FF FF  7F F8 FF FF 7F 73 30 31  ..R..........s01
0290: 36 01 A3 02 52 08 80 F8  FF FF 7F F8 FF FF 7F 73  6...R..........s
02A0: 30 31 30 01 A8 03 02 00  10 17 80 00 A8 03 29 10  010...........).
02B0: F0 FF FF 7F 02 03 03 10  1C 80 27 10 F0 FF FF 7F  ..........'.....
02C0: 09 2A 10 F0 FF FF 7F 4A  7B C1 10 01 F0 FF FF 7F  .*.....J{.......
02D0: 1C 06 80 03 00 17 13 80  27 10 7B C1 10 01 06 2B  ........'.{....+
02E0: 7B C1 10 01 1D 80 23 2A  10 7B C1 10 01 66 1E 80  {.....#*.{...f..
02F0: 7B C1 10 01 7B C1 10 01  74 6C 6B 30 2B 7B C1 10  {...{...tlk0+{..
0300: 01 1F 80 23 1A 23 12 29  10 F0 FF FF 7F 02 02 02  ...#.#.)........
0310: 10 14 80 00 28 03 52 08  80 F8 FF FF 7F F8 FF FF  ....(.R.........
0320: 7F 73 30 31 36 01 51 03  02 02 10 15 80 00 42 03  .s016.Q.......B.
0330: 52 08 80 F8 FF FF 7F F8  FF FF 7F 73 30 31 36 01  R..........s016.
0340: 51 03 52 08 80 F8 FF FF  7F F8 FF FF 7F 73 30 31  Q.R..........s01
0350: 30 45 08 80 F8 FF FF 7F  F8 FF FF 7F 73 30 31 32  0E..........s012
0360: 01 80 66 1E 80 7B C1 10  01 7B C1 10 01 74 6C 6B  ..f..{...{...tlk
0370: 31 2B 7B C1 10 01 20 80  23 03 00 17 0C 80 27 10  1+{... .#.....'.
0380: 7B C1 10 01 07 2B 7B C1  10 01 21 80 23 2A 10 7B  {....+{...!.#*.{
0390: C1 10 01 1A 3F 12 52 08  80 F8 FF FF 7F F8 FF FF  ....?.R.........
03A0: 7F 73 30 31 32 01 A8 03  45 08 80 F8 FF FF 7F F8  .s012...E.......
03B0: FF FF 7F 73 30 34 31 01  80 66 07 80 7B C1 10 01  ...s041..f..{...
03C0: 7B C1 10 01 74 6C 6B 30  2B 7B C1 10 01 22 80 23  {...tlk0+{...".#
03D0: 66 07 80 7B C1 10 01 7B  C1 10 01 74 6C 6B 31 29  f..{...{...tlk1)
03E0: 10 F0 FF FF 7F 02 03 03  10 1C 80 27 10 F0 FF FF  ...........'....
03F0: 7F 09 2A 10 F0 FF FF 7F  66 1E 80 7B C1 10 01 7B  ..*.....f..{...{
0400: C1 10 01 74 6C 6B 30 2B  7B C1 10 01 23 80 23 2B  ...tlk0+{...#.#+
0410: 7B C1 10 01 24 80 23 66  1E 80 7B C1 10 01 7B C1  {...$.#f..{...{.
0420: 10 01 74 6C 6B 31 6E F0  FF FF 7F 25 80 99 F0 FF  ..tlk1n....%....
0430: FF 7F 1C 1C 80 52 08 80  F8 FF FF 7F F8 FF FF 7F  .....R..........
0440: 73 30 34 31 45 08 80 F8  FF FF 7F F8 FF FF 7F 73  s041E..........s
0450: 30 34 35 01 80 66 1E 80  7B C1 10 01 7B C1 10 01  045..f..{...{...
0460: 74 6C 6B 30 2B 7B C1 10  01 26 80 23 66 1E 80 7B  tlk0+{...&.#f..{
0470: C1 10 01 7B C1 10 01 74  6C 6B 31 1C 0B 80 03 00  ...{...tlk1.....
0480: 17 0C 80 27 10 7B C1 10  01 07 2B 7B C1 10 01 27  ...'.{....+{...'
0490: 80 23 2A 10 7B C1 10 01  52 08 80 F8 FF FF 7F F8  .#*.{...R.......
04A0: FF FF 7F 73 30 34 35 45  08 80 F8 FF FF 7F F8 FF  ...s045E........
04B0: FF 7F 73 30 31 33 01 80  66 07 80 7B C1 10 01 7B  ..s013..f..{...{
04C0: C1 10 01 74 6C 6B 30 2B  7B C1 10 01 28 80 23 66  ...tlk0+{...(.#f
04D0: 1E 80 7B C1 10 01 7B C1  10 01 74 6C 6B 30 2B 7B  ..{...{...tlk0+{
04E0: C1 10 01 29 80 23 2B 7B  C1 10 01 2A 80 23 66 07  ...).#+{...*.#f.
04F0: 80 7B C1 10 01 7B C1 10  01 74 6C 6B 30 2B 7B C1  .{...{...tlk0+{.
0500: 10 01 2B 80 23 66 07 80  7B C1 10 01 7B C1 10 01  ..+.#f..{...{...
0510: 74 6C 6B 31 29 10 F0 FF  FF 7F 02 03 03 10 1C 80  tlk1)...........
0520: 27 10 F0 FF FF 7F 09 2A  10 F0 FF FF 7F 1A 23 12  '......*......#.
0530: 52 08 80 F8 FF FF 7F F8  FF FF 7F 73 30 31 33 45  R..........s013E
0540: 08 80 F8 FF FF 7F F8 FF  FF 7F 73 30 31 34 01 80  ..........s014..
0550: 92 01 F0 FF FF 7F 6C F0  FF FF 7F 01 80 14 80 66  ......l........f
0560: 1E 80 7B C1 10 01 7B C1  10 01 74 6C 6B 30 2B 7B  ..{...{...tlk0+{
0570: C1 10 01 2C 80 23 66 1E  80 7B C1 10 01 7B C1 10  ...,.#f..{...{..
0580: 01 74 68 6B 30 2B 7B C1  10 01 2D 80 23 1C 06 80  .thk0+{...-.#...
0590: 92 00 F0 FF FF 7F 6C F0  FF FF 7F 2E 80 17 80 52  ......l........R
05A0: 08 80 F8 FF FF 7F F8 FF  FF 7F 73 30 31 34 45 08  ..........s014E.
05B0: 80 F8 FF FF 7F F8 FF FF  7F 73 30 31 35 01 80 AD  .........s015...
05C0: 04 2F 80 7B C1 10 01 7B  C1 10 01 1C 06 80 81 00  ./.{...{........
05D0: 7B C1 10 01 66 1E 80 7B  C1 10 01 7B C1 10 01 74  {...f..{...{...t
05E0: 6C 6B 30 2B 7B C1 10 01  30 80 23 81 01 7B C1 10  lk0+{...0.#..{..
05F0: 01 1A 3F 12 52 08 80 F8  FF FF 7F F8 FF FF 7F 73  ..?.R..........s
0600: 30 31 35 45 08 80 F8 FF  FF 7F F8 FF FF 7F 73 30  015E..........s0
0610: 34 31 01 80 66 07 80 7B  C1 10 01 7B C1 10 01 74  41..f..{...{...t
0620: 6C 6B 30 2B 7B C1 10 01  31 80 23 2B 7B C1 10 01  lk0+{...1.#+{...
0630: 32 80 23 66 07 80 7B C1  10 01 7B C1 10 01 74 6C  2.#f..{...{...tl
0640: 6B 31 29 10 F0 FF FF 7F  02 03 03 10 1C 80 27 10  k1)...........'.
0650: F0 FF FF 7F 09 2A 10 F0  FF FF 7F 66 1E 80 7B C1  .....*.....f..{.
0660: 10 01 7B C1 10 01 74 6C  6B 30 2B 7B C1 10 01 33  ..{...tlk0+{...3
0670: 80 23 66 1E 80 7B C1 10  01 7B C1 10 01 74 6C 6B  .#f..{...{...tlk
0680: 31 1C 0B 80 03 00 17 1C  80 27 10 7B C1 10 01 0D  1........'.{....
0690: 52 08 80 F8 FF FF 7F F8  FF FF 7F 73 30 34 31 45  R..........s041E
06A0: 08 80 F8 FF FF 7F F8 FF  FF 7F 73 30 34 32 01 80  ..........s042..
06B0: 2B 7B C1 10 01 34 80 23  2A 10 7B C1 10 01 52 08  +{...4.#*.{...R.
06C0: 80 F8 FF FF 7F F8 FF FF  7F 73 30 34 32 45 08 80  .........s042E..
06D0: F8 FF FF 7F F8 FF FF 7F  73 30 34 36 01 80 66 1E  ........s046..f.
06E0: 80 7B C1 10 01 7B C1 10  01 74 6C 6B 30 2B 7B C1  .{...{...tlk0+{.
06F0: 10 01 35 80 23 2B 7B C1  10 01 36 80 23 66 1E 80  ..5.#+{...6.#f..
0700: 7B C1 10 01 7B C1 10 01  74 6C 6B 31 52 08 80 F8  {...{...tlk1R...
0710: FF FF 7F F8 FF FF 7F 73  30 34 36 45 08 80 F8 FF  .......s046E....
0720: FF 7F F8 FF FF 7F 73 30  35 33 01 80 1C 06 80 03  ......s053......
0730: 00 17 0C 80 27 10 7B C1  10 01 07 2B 7B C1 10 01  ....'.{....+{...
0740: 37 80 23 2A 10 7B C1 10  01 6E F0 FF FF 7F 25 80  7.#*.{...n....%.
0750: 99 F0 FF FF 7F 1C 0B 80  66 1E 80 7B C1 10 01 7B  ........f..{...{
0760: C1 10 01 74 6C 6B 30 2B  7B C1 10 01 38 80 23 2B  ...tlk0+{...8.#+
0770: 7B C1 10 01 39 80 23 66  1E 80 7B C1 10 01 7B C1  {...9.#f..{...{.
0780: 10 01 74 6C 6B 31 6E F0  FF FF 7F 25 80 99 F0 FF  ..tlk1n....%....
0790: FF 7F 1C 0B 80 1A 23 12  52 08 80 F8 FF FF 7F F8  ......#.R.......
07A0: FF FF 7F 73 30 35 33 45  08 80 F8 FF FF 7F F8 FF  ...s053E........
07B0: FF 7F 73 30 31 32 01 80  03 00 17 0C 80 27 10 7B  ..s012.......'.{
07C0: C1 10 01 07 2B 7B C1 10  01 3A 80 23 2A 10 7B C1  ....+{...:.#*.{.
07D0: 10 01 66 01 80 7B C1 10  01 7B C1 10 01 74 6C 6B  ..f..{...{...tlk
07E0: 30 2B 7B C1 10 01 3B 80  23 81 00 7B C1 10 01 03  0+{...;.#..{....
07F0: 00 17 0B 80 27 10 7B C1  10 01 0A 2B 7B C1 10 01  ....'.{....+{...
0800: 3C 80 23 2A 10 7B C1 10  01 81 01 7B C1 10 01 52  <.#*.{.....{...R
0810: 08 80 F8 FF FF 7F F8 FF  FF 7F 73 30 31 32 45 08  ..........s012E.
0820: 80 F8 FF FF 7F F8 FF FF  7F 73 30 34 37 01 80 66  .........s047..f
0830: 01 80 7B C1 10 01 7B C1  10 01 74 6C 6B 30 2B 7B  ..{...{...tlk0+{
0840: C1 10 01 3D 80 23 2B 7B  C1 10 01 3E 80 23 66 01  ...=.#+{...>.#f.
0850: 80 7B C1 10 01 7B C1 10  01 74 65 6E 30 52 08 80  .{...{...ten0R..
0860: F8 FF FF 7F F8 FF FF 7F  73 30 34 37 24 3F 80 01  ........s047$?..
0870: 80 01 80 25 02 00 10 01  80 00 F9 08 1A 3F 12 52  ...%.........?.R
0880: 08 80 F8 FF FF 7F F8 FF  FF 7F 73 30 34 37 45 08  ..........s047E.
0890: 80 F8 FF FF 7F F8 FF FF  7F 73 30 34 34 01 80 6E  .........s044..n
08A0: 7B C1 10 01 40 80 99 7B  C1 10 01 1C 0C 80 66 1E  {...@..{......f.
08B0: 80 7B C1 10 01 7B C1 10  01 74 6C 6B 30 2B 7B C1  .{...{...tlk0+{.
08C0: 10 01 41 80 23 03 00 17  0C 80 27 10 7B C1 10 01  ..A.#.....'.{...
08D0: 0B 2B 7B C1 10 01 42 80  23 2A 10 7B C1 10 01 66  .+{...B.#*.{...f
08E0: 1E 80 7B C1 10 01 7B C1  10 01 74 6C 6B 30 2B 7B  ..{...{...tlk0+{
08F0: C1 10 01 43 80 23 01 8D  09 02 00 10 17 80 00 8D  ...C.#..........
0900: 09 1A 3F 12 52 08 80 F8  FF FF 7F F8 FF FF 7F 73  ..?.R..........s
0910: 30 34 37 45 08 80 F8 FF  FF 7F F8 FF FF 7F 73 30  047E..........s0
0920: 34 34 01 80 03 00 17 0C  80 27 10 7B C1 10 01 08  44.......'.{....
0930: 2B 7B C1 10 01 44 80 23  2A 10 7B C1 10 01 66 1E  +{...D.#*.{...f.
0940: 80 7B C1 10 01 7B C1 10  01 74 6C 6B 30 2B 7B C1  .{...{...tlk0+{.
0950: 10 01 45 80 23 66 1E 80  7B C1 10 01 7B C1 10 01  ..E.#f..{...{...
0960: 74 6C 6B 31 1A 23 12 52  08 80 F8 FF FF 7F F8 FF  tlk1.#.R........
0970: FF 7F 73 30 34 34 45 08  80 F8 FF FF 7F F8 FF FF  ..s044E.........
0980: 7F 73 30 34 37 01 80 01  6C 08 01 8D 09 45 00 80  .s047...l....E..
0990: F0 FF FF 7F F0 FF FF 7F  66 64 6F 31 01 80 55 00  ........fdo1..U.
09A0: 80 F0 FF FF 7F F0 FF FF  7F 66 64 6F 31 52 08 80  .........fdo1R..
09B0: F8 FF FF 7F F8 FF FF 7F  73 30 34 34 46 00 45 00  ........s044F.E.
09C0: 80 F0 FF FF 7F F0 FF FF  7F 66 64 69 32 01 80 21  .........fdi2..!
09D0: 00                                                .               
```

#### Opcodes

```
  0: 0x0001 [0x42] SET_CLI_EVENT_CANCEL_DATA()
  1: 0x0002 [0x45] LOAD_SCHEDULED_TASK: Load scheduler "fdo1" with entities [LocalPlayer, LocalPlayer], work=[200*, 0*]
  2: 0x0013 [0x55] WAIT_LOAD_SCHEDULER: Wait for scheduler "fdo1" with entities [LocalPlayer, LocalPlayer], work=200*
  3: 0x0022 [0x46] CAMERA_CONTROL: Disable user control
  4: 0x0024 [0x38] SET_CLIENT_EVENT_MODE(mode=19*)
  5: 0x0027 [0x2F] Midras (ID: 17875323/0x0110C17B)->Render.Flags0 &= ~0x80000 // Bit 19
  6: 0x002D [0x4E] SET_ENTITY_HIDE_FLAG: Show Midras (ID: 17875323/0x0110C17B)
  7: 0x0033 [0xBA] SET_ENTITY_POSITION(entity_id=Midras (ID: 17875323/0x0110C17B), pos_x=106.150*, pos_z=-220.880*, pos_y=-0.420*, direction=0.0°*)
  8: 0x0040 [0xBA] SET_ENTITY_POSITION(entity_id=LocalPlayer, pos_x=0.000*, pos_z=0.000*, pos_y=0.000*, direction=0.0°*)
  9: 0x004D [0x4E] SET_ENTITY_HIDE_FLAG: Hide LocalPlayer
 10: 0x0053 [0x80] LOAD_WAIT(entity=Midras (ID: 17875323/0x0110C17B))
 11: 0x0058 [0x80] LOAD_WAIT(entity=LocalPlayer)
 12: 0x005D [0x94] Midras (ID: 17875323/0x0110C17B)->Render.Flags3 ^= 0x01
 13: 0x0063 [0x94] LocalPlayer->Render.Flags3 ^= 0x01
 14: 0x0069 [0x27] REQ_SET(priority=0x10, entity_id=LocalPlayer, tag_num=0x02)
 15: 0x0070 [0x1C] WAIT(30* ticks)
 16: 0x0073 [0x66] LOAD_EXT_SCHEDULER_MAIN: Load scheduler "sir0" with entities [Midras (ID: 17875323/0x0110C17B), Midras (ID: 17875323/0x0110C17B)], work=9*
 17: 0x0082 [0x45] LOAD_SCHEDULED_TASK: Load scheduler "fdi1" with entities [LocalPlayer, LocalPlayer], work=[200*, 0*]
 18: 0x0093 [0x45] LOAD_SCHEDULED_TASK: Load scheduler "s008" with entities [EventEntity, EventEntity], work=[636*, 0*]
 19: 0x00A4 [0x1C] WAIT(390* ticks)
 20: 0x00A7 [0x2B] Midras (ID: 17875323/0x0110C17B) [7619*]:
    → "This outcropping is the perfect spot to begin!"
 21: 0x00AE [0x23] WAIT_FOR_DIALOG_INTERACTION
 22: 0x00AF [0x1C] WAIT(60* ticks)
 23: 0x00B2 [0x7C] Midras (ID: 17875323/0x0110C17B)->Render.Flags2 |= 0x00
 24: 0x00B8 [0x81] SET_ENTITY_BLINKING(blink_flag=0x00, entity=Midras (ID: 17875323/0x0110C17B))
 25: 0x00BE [0x66] LOAD_EXT_SCHEDULER_MAIN: Load scheduler "sir1" with entities [Midras (ID: 17875323/0x0110C17B), Midras (ID: 17875323/0x0110C17B)], work=9*
 26: 0x00CD [0x52] END_LOAD_SCHEDULER: End scheduler "s008" with entities [EventEntity, EventEntity], work=636*
 27: 0x00DC [0x45] LOAD_SCHEDULED_TASK: Load scheduler "s009" with entities [EventEntity, EventEntity], work=[636*, 0*]
 28: 0x00ED [0x1C] WAIT(120* ticks)
 29: 0x00F0 [0x2B] Midras (ID: 17875323/0x0110C17B) [7620*]:
    → "(To think that this technopedia my damned father gave me when I was ten would actually prove of use...unfathomable.)"
 30: 0x00F7 [0x23] WAIT_FOR_DIALOG_INTERACTION
 31: 0x00F8 [0x2B] Midras (ID: 17875323/0x0110C17B) [7621*]:
    → "(Normal kids get toys or sweets for their birthdays. Not me...but here I am now, all because of this little book.)"
 32: 0x00FF [0x23] WAIT_FOR_DIALOG_INTERACTION
 33: 0x0100 [0x66] LOAD_EXT_SCHEDULER_MAIN: Load scheduler "sha1" with entities [Midras (ID: 17875323/0x0110C17B), Midras (ID: 17875323/0x0110C17B)], work=9*
 34: 0x010F [0x7C] Midras (ID: 17875323/0x0110C17B)->Render.Flags2 |= 0x01
 35: 0x0115 [0x81] SET_ENTITY_BLINKING(blink_flag=0x01, entity=Midras (ID: 17875323/0x0110C17B))
 36: 0x011B [0x1C] WAIT(100* ticks)
 37: 0x011E [0x52] END_LOAD_SCHEDULER: End scheduler "s009" with entities [EventEntity, EventEntity], work=636*
 38: 0x012D [0x45] LOAD_SCHEDULED_TASK: Load scheduler "s011" with entities [EventEntity, EventEntity], work=[636*, 0*]
 39: 0x013E [0xBA] SET_ENTITY_POSITION(entity_id=LocalPlayer, pos_x=97.374*, pos_z=-218.725*, pos_y=0.313*, direction=0.0°*)
 40: 0x014B [0x4E] SET_ENTITY_HIDE_FLAG: Show LocalPlayer
 41: 0x0151 [0x27] REQ_SET(priority=0x10, entity_id=LocalPlayer, tag_num=0x0A)
 42: 0x0158 [0x1C] WAIT(150* ticks)
 43: 0x015B [0x52] END_LOAD_SCHEDULER: End scheduler "s011" with entities [EventEntity, EventEntity], work=636*
 44: 0x016A [0x02] IF !(Work_Zone[2] == 5*) GOTO 0x0186
 45: 0x0172 [0x45] LOAD_SCHEDULED_TASK: Load scheduler "s016" with entities [EventEntity, EventEntity], work=[636*, 0*]
 46: 0x0183 [0x01] GOTO 0x01B3
 47: 0x0186 [0x02] IF !(Work_Zone[2] == 6*) GOTO 0x01A2
 48: 0x018E [0x45] LOAD_SCHEDULED_TASK: Load scheduler "s016" with entities [EventEntity, EventEntity], work=[636*, 0*]
 49: 0x019F [0x01] GOTO 0x01B3
 50: 0x01A2 [0x45] LOAD_SCHEDULED_TASK: Load scheduler "s010" with entities [EventEntity, EventEntity], work=[636*, 0*]

SUBROUTINE_01B3:
 51: 0x01B3 [0x6E] Midras (ID: 17875323/0x0110C17B) uses emote 19*
 52: 0x01BA [0x99] Wait for Midras (ID: 17875323/0x0110C17B) animation to complete
 53: 0x01BF [0x2B] Midras (ID: 17875323/0x0110C17B) [7622*]:
    → "Gah! For the love of...you gave me a good scare!"
 54: 0x01C6 [0x23] WAIT_FOR_DIALOG_INTERACTION
 55: 0x01C7 [0x2A] GET_REQ_LEVEL(level=16, entity_id=LocalPlayer)
 56: 0x01CD [0x4A] LocalPlayer looks at Midras (ID: 17875323/0x0110C17B)
 57: 0x01D6 [0x6F] WAIT_FRAME_DELAY: Yield until WaitTime reaches zero
 58: 0x01D7 [0x76] CHECK_ENTITY_RENDER_FLAGS: Wait until LocalPlayer Render.Flags0 and Render.Flags3 conditions are met
 59: 0x01DC [0x03] Work_Zone[2] = 1*
 60: 0x01E1 [0x24] CREATE_DIALOG(message_id=7623*, default_option=0*, option_flags=0*)
    → "How do you address him? [Midras[./?]/Junior[./?]]"
 61: 0x01E8 [0x25] WAIT_DIALOG_SELECT()
 62: 0x01E9 [0x02] IF !(Work_Zone[0] == 0*) GOTO 0x02A6
 63: 0x01F1 [0x29] REQ_SET_WAIT(priority=0x10, entity_id=LocalPlayer, tag_num=0x02)
 64: 0x01F8 [0x03] Work_Zone[3] = 30*
 65: 0x01FD [0x27] REQ_SET(priority=0x10, entity_id=LocalPlayer, tag_num=0x09)
 66: 0x0204 [0x2A] GET_REQ_LEVEL(level=16, entity_id=LocalPlayer)
 67: 0x020A [0x6E] Midras (ID: 17875323/0x0110C17B) uses emote 21*
 68: 0x0211 [0x99] Wait for Midras (ID: 17875323/0x0110C17B) animation to complete
 69: 0x0216 [0x1C] WAIT(60* ticks)
 70: 0x0219 [0x4A] Midras (ID: 17875323/0x0110C17B) looks at LocalPlayer
 71: 0x0222 [0x6F] WAIT_FRAME_DELAY: Yield until WaitTime reaches zero
 72: 0x0223 [0x76] CHECK_ENTITY_RENDER_FLAGS: Wait until Midras (ID: 17875323/0x0110C17B) Render.Flags0 and Render.Flags3 conditions are met
 73: 0x0228 [0x1C] WAIT(30* ticks)
 74: 0x022B [0x66] LOAD_EXT_SCHEDULER_MAIN: Load scheduler "tlk0" with entities [Midras (ID: 17875323/0x0110C17B), Midras (ID: 17875323/0x0110C17B)], work=9*
 75: 0x023A [0x2B] Midras (ID: 17875323/0x0110C17B) [7624*]:
    → "Who are you, and how do you know my name!?"
 76: 0x0241 [0x23] WAIT_FOR_DIALOG_INTERACTION
 77: 0x0242 [0x2B] Midras (ID: 17875323/0x0110C17B) [7625*]:
    → "Further, what're you doing all the way out here?"
 78: 0x0249 [0x23] WAIT_FOR_DIALOG_INTERACTION
 79: 0x024A [0x66] LOAD_EXT_SCHEDULER_MAIN: Load scheduler "tlk1" with entities [Midras (ID: 17875323/0x0110C17B), Midras (ID: 17875323/0x0110C17B)], work=9*
 80: 0x0259 [0x29] REQ_SET_WAIT(priority=0x10, entity_id=LocalPlayer, tag_num=0x02)
 81: 0x0260 [0x02] IF !(Work_Zone[2] == 5*) GOTO 0x027A
 82: 0x0268 [0x52] END_LOAD_SCHEDULER: End scheduler "s016" with entities [EventEntity, EventEntity], work=636*
 83: 0x0277 [0x01] GOTO 0x02A3
 84: 0x027A [0x02] IF !(Work_Zone[2] == 6*) GOTO 0x0294
 85: 0x0282 [0x52] END_LOAD_SCHEDULER: End scheduler "s016" with entities [EventEntity, EventEntity], work=636*
 86: 0x0291 [0x01] GOTO 0x02A3
 87: 0x0294 [0x52] END_LOAD_SCHEDULER: End scheduler "s010" with entities [EventEntity, EventEntity], work=636*

SUBROUTINE_02A3:
 88: 0x02A3 [0x01] GOTO 0x03A8
 89: 0x02A6 [0x02] IF !(Work_Zone[0] == 1*) GOTO 0x03A8
 90: 0x02AE [0x29] REQ_SET_WAIT(priority=0x10, entity_id=LocalPlayer, tag_num=0x02)
 91: 0x02B5 [0x03] Work_Zone[3] = 90*
 92: 0x02BA [0x27] REQ_SET(priority=0x10, entity_id=LocalPlayer, tag_num=0x09)
 93: 0x02C1 [0x2A] GET_REQ_LEVEL(level=16, entity_id=LocalPlayer)
 94: 0x02C7 [0x4A] Midras (ID: 17875323/0x0110C17B) looks at LocalPlayer
 95: 0x02D0 [0x1C] WAIT(30* ticks)
 96: 0x02D3 [0x03] Work_Zone_1700[0] = 150*
 97: 0x02D8 [0x27] REQ_SET(priority=0x10, entity_id=Midras (ID: 17875323/0x0110C17B), tag_num=0x06)
 98: 0x02DF [0x2B] Midras (ID: 17875323/0x0110C17B) [7626*]:
    → "Hey now! What gives you the right to call me "Junior"!? I hate when people call me that!"
 99: 0x02E6 [0x23] WAIT_FOR_DIALOG_INTERACTION
100: 0x02E7 [0x2A] GET_REQ_LEVEL(level=16, entity_id=Midras (ID: 17875323/0x0110C17B))
101: 0x02ED [0x66] LOAD_EXT_SCHEDULER_MAIN: Load scheduler "tlk0" with entities [Midras (ID: 17875323/0x0110C17B), Midras (ID: 17875323/0x0110C17B)], work=149*
102: 0x02FC [0x2B] Midras (ID: 17875323/0x0110C17B) [7627*]:
    → "I've got a real name, you know. "Midras.""
103: 0x0303 [0x23] WAIT_FOR_DIALOG_INTERACTION
104: 0x0304 [0x1A] CALL_SUBROUTINE(address=0x1223)
105: 0x0307 [0x29] REQ_SET_WAIT(priority=0x10, entity_id=LocalPlayer, tag_num=0x02)
106: 0x030E [0x02] IF !(Work_Zone[2] == 5*) GOTO 0x0328
107: 0x0316 [0x52] END_LOAD_SCHEDULER: End scheduler "s016" with entities [EventEntity, EventEntity], work=636*
108: 0x0325 [0x01] GOTO 0x0351
109: 0x0328 [0x02] IF !(Work_Zone[2] == 6*) GOTO 0x0342
110: 0x0330 [0x52] END_LOAD_SCHEDULER: End scheduler "s016" with entities [EventEntity, EventEntity], work=636*
111: 0x033F [0x01] GOTO 0x0351
112: 0x0342 [0x52] END_LOAD_SCHEDULER: End scheduler "s010" with entities [EventEntity, EventEntity], work=636*

SUBROUTINE_0351:
113: 0x0351 [0x45] LOAD_SCHEDULED_TASK: Load scheduler "s012" with entities [EventEntity, EventEntity], work=[636*, 0*]
114: 0x0362 [0x66] LOAD_EXT_SCHEDULER_MAIN: Load scheduler "tlk1" with entities [Midras (ID: 17875323/0x0110C17B), Midras (ID: 17875323/0x0110C17B)], work=149*
115: 0x0371 [0x2B] Midras (ID: 17875323/0x0110C17B) [7628*]:
    → "How did you even know that nickname, anyway?"
116: 0x0378 [0x23] WAIT_FOR_DIALOG_INTERACTION
117: 0x0379 [0x03] Work_Zone_1700[0] = 120*
118: 0x037E [0x27] REQ_SET(priority=0x10, entity_id=Midras (ID: 17875323/0x0110C17B), tag_num=0x07)
119: 0x0385 [0x2B] Midras (ID: 17875323/0x0110C17B) [7629*]:
    → "Oh, now I get it. That cursed Tarutaru told you."
120: 0x038C [0x23] WAIT_FOR_DIALOG_INTERACTION
121: 0x038D [0x2A] GET_REQ_LEVEL(level=16, entity_id=Midras (ID: 17875323/0x0110C17B))
122: 0x0393 [0x1A] CALL_SUBROUTINE(address=0x123F)
123: 0x0396 [0x52] END_LOAD_SCHEDULER: End scheduler "s012" with entities [EventEntity, EventEntity], work=636*
124: 0x03A5 [0x01] GOTO 0x03A8

SUBROUTINE_03A8:
125: 0x03A8 [0x45] LOAD_SCHEDULED_TASK: Load scheduler "s041" with entities [EventEntity, EventEntity], work=[636*, 0*]
126: 0x03B9 [0x66] LOAD_EXT_SCHEDULER_MAIN: Load scheduler "tlk0" with entities [Midras (ID: 17875323/0x0110C17B), Midras (ID: 17875323/0x0110C17B)], work=9*
127: 0x03C8 [0x2B] Midras (ID: 17875323/0x0110C17B) [7630*]:
    → "Who are you, exactly?"
128: 0x03CF [0x23] WAIT_FOR_DIALOG_INTERACTION
129: 0x03D0 [0x66] LOAD_EXT_SCHEDULER_MAIN: Load scheduler "tlk1" with entities [Midras (ID: 17875323/0x0110C17B), Midras (ID: 17875323/0x0110C17B)], work=9*
130: 0x03DF [0x29] REQ_SET_WAIT(priority=0x10, entity_id=LocalPlayer, tag_num=0x02)
131: 0x03E6 [0x03] Work_Zone[3] = 90*
132: 0x03EB [0x27] REQ_SET(priority=0x10, entity_id=LocalPlayer, tag_num=0x09)
133: 0x03F2 [0x2A] GET_REQ_LEVEL(level=16, entity_id=LocalPlayer)
134: 0x03F8 [0x66] LOAD_EXT_SCHEDULER_MAIN: Load scheduler "tlk0" with entities [Midras (ID: 17875323/0x0110C17B), Midras (ID: 17875323/0x0110C17B)], work=149*
135: 0x0407 [0x2B] Midras (ID: 17875323/0x0110C17B) [7631*]:
    → "An adventurer from the Middle Lands. That must make you a pioneer."
136: 0x040E [0x23] WAIT_FOR_DIALOG_INTERACTION
137: 0x040F [0x2B] Midras (ID: 17875323/0x0110C17B) [7632*]:
    → "You must have gotten here by the waypoints then. Pshaw."
138: 0x0416 [0x23] WAIT_FOR_DIALOG_INTERACTION
139: 0x0417 [0x66] LOAD_EXT_SCHEDULER_MAIN: Load scheduler "tlk1" with entities [Midras (ID: 17875323/0x0110C17B), Midras (ID: 17875323/0x0110C17B)], work=149*
140: 0x0426 [0x6E] LocalPlayer uses emote 7*
141: 0x042D [0x99] Wait for LocalPlayer animation to complete
142: 0x0432 [0x1C] WAIT(90* ticks)
143: 0x0435 [0x52] END_LOAD_SCHEDULER: End scheduler "s041" with entities [EventEntity, EventEntity], work=636*
144: 0x0444 [0x45] LOAD_SCHEDULED_TASK: Load scheduler "s045" with entities [EventEntity, EventEntity], work=[636*, 0*]
145: 0x0455 [0x66] LOAD_EXT_SCHEDULER_MAIN: Load scheduler "tlk0" with entities [Midras (ID: 17875323/0x0110C17B), Midras (ID: 17875323/0x0110C17B)], work=149*
146: 0x0464 [0x2B] Midras (ID: 17875323/0x0110C17B) [7633*]:
    → "Not all of us took the easy way, you know. When I first came here, I had to take a ship across the tumultuous Sea of Zafmlug. Now just about anyone can make the journey."
147: 0x046B [0x23] WAIT_FOR_DIALOG_INTERACTION
148: 0x046C [0x66] LOAD_EXT_SCHEDULER_MAIN: Load scheduler "tlk1" with entities [Midras (ID: 17875323/0x0110C17B), Midras (ID: 17875323/0x0110C17B)], work=149*
149: 0x047B [0x1C] WAIT(60* ticks)
150: 0x047E [0x03] Work_Zone_1700[0] = 120*
151: 0x0483 [0x27] REQ_SET(priority=0x10, entity_id=Midras (ID: 17875323/0x0110C17B), tag_num=0x07)
152: 0x048A [0x2B] Midras (ID: 17875323/0x0110C17B) [7634*]:
    → "No seasickness, no lack of food, no worry about being capsized by some deep-sea denizen. You should count your blessings."
153: 0x0491 [0x23] WAIT_FOR_DIALOG_INTERACTION
154: 0x0492 [0x2A] GET_REQ_LEVEL(level=16, entity_id=Midras (ID: 17875323/0x0110C17B))
155: 0x0498 [0x52] END_LOAD_SCHEDULER: End scheduler "s045" with entities [EventEntity, EventEntity], work=636*
156: 0x04A7 [0x45] LOAD_SCHEDULED_TASK: Load scheduler "s013" with entities [EventEntity, EventEntity], work=[636*, 0*]
157: 0x04B8 [0x66] LOAD_EXT_SCHEDULER_MAIN: Load scheduler "tlk0" with entities [Midras (ID: 17875323/0x0110C17B), Midras (ID: 17875323/0x0110C17B)], work=9*
158: 0x04C7 [0x2B] Midras (ID: 17875323/0x0110C17B) [7635*]:
    → "I suppose you didn't come here to be lectured."
159: 0x04CE [0x23] WAIT_FOR_DIALOG_INTERACTION
160: 0x04CF [0x66] LOAD_EXT_SCHEDULER_MAIN: Load scheduler "tlk0" with entities [Midras (ID: 17875323/0x0110C17B), Midras (ID: 17875323/0x0110C17B)], work=149*
161: 0x04DE [0x2B] Midras (ID: 17875323/0x0110C17B) [7636*]:
    → "However, while we're on the topic, those waypoints you use were developed right here in Adoulin, by the Inventors' Coalition."
162: 0x04E5 [0x23] WAIT_FOR_DIALOG_INTERACTION
163: 0x04E6 [0x2B] Midras (ID: 17875323/0x0110C17B) [7637*]:
    → "The wonders they come up with day by day never cease to amaze me."
164: 0x04ED [0x23] WAIT_FOR_DIALOG_INTERACTION
165: 0x04EE [0x66] LOAD_EXT_SCHEDULER_MAIN: Load scheduler "tlk0" with entities [Midras (ID: 17875323/0x0110C17B), Midras (ID: 17875323/0x0110C17B)], work=9*
166: 0x04FD [0x2B] Midras (ID: 17875323/0x0110C17B) [7638*]:
    → "I know making the trip here was the right decision--difficult though it was--after seeing all they do. I've learned more here in a week than I could in Jeuno in years."
167: 0x0504 [0x23] WAIT_FOR_DIALOG_INTERACTION
168: 0x0505 [0x66] LOAD_EXT_SCHEDULER_MAIN: Load scheduler "tlk1" with entities [Midras (ID: 17875323/0x0110C17B), Midras (ID: 17875323/0x0110C17B)], work=9*
169: 0x0514 [0x29] REQ_SET_WAIT(priority=0x10, entity_id=LocalPlayer, tag_num=0x02)
170: 0x051B [0x03] Work_Zone[3] = 90*
171: 0x0520 [0x27] REQ_SET(priority=0x10, entity_id=LocalPlayer, tag_num=0x09)
172: 0x0527 [0x2A] GET_REQ_LEVEL(level=16, entity_id=LocalPlayer)
173: 0x052D [0x1A] CALL_SUBROUTINE(address=0x1223)
174: 0x0530 [0x52] END_LOAD_SCHEDULER: End scheduler "s013" with entities [EventEntity, EventEntity], work=636*
175: 0x053F [0x45] LOAD_SCHEDULED_TASK: Load scheduler "s014" with entities [EventEntity, EventEntity], work=[636*, 0*]
176: 0x0550 [0x92] LocalPlayer->Render.Flags3 ^= 0x01
177: 0x0556 [0x6C] FADE_ENTITY_COLOR(entity_id=LocalPlayer, end_alpha=0*, fade_time=5*)
178: 0x055F [0x66] LOAD_EXT_SCHEDULER_MAIN: Load scheduler "tlk0" with entities [Midras (ID: 17875323/0x0110C17B), Midras (ID: 17875323/0x0110C17B)], work=149*
179: 0x056E [0x2B] Midras (ID: 17875323/0x0110C17B) [7639*]:
    → "...Is that so? Amchuchu herself? She's always worried about how I'm holding up."
180: 0x0575 [0x23] WAIT_FOR_DIALOG_INTERACTION
181: 0x0576 [0x66] LOAD_EXT_SCHEDULER_MAIN: Load scheduler "thk0" with entities [Midras (ID: 17875323/0x0110C17B), Midras (ID: 17875323/0x0110C17B)], work=149*
182: 0x0585 [0x2B] Midras (ID: 17875323/0x0110C17B) [7640*]:
    → "Sorry that you came all this way, but no matter how much I want to go back, I can't yet. Things are more...difficult than I anticipated."
183: 0x058C [0x23] WAIT_FOR_DIALOG_INTERACTION
184: 0x058D [0x1C] WAIT(30* ticks)
185: 0x0590 [0x92] LocalPlayer->Render.Flags3 = Flags3  // No change (flag=0)
186: 0x0596 [0x6C] FADE_ENTITY_COLOR(entity_id=LocalPlayer, end_alpha=128*, fade_time=1*)
187: 0x059F [0x52] END_LOAD_SCHEDULER: End scheduler "s014" with entities [EventEntity, EventEntity], work=636*
188: 0x05AE [0x45] LOAD_SCHEDULED_TASK: Load scheduler "s015" with entities [EventEntity, EventEntity], work=[636*, 0*]
189: 0x05BF [0xAD] DUAL_ENTITY_SCHEDULER_HANDLER: Execute sub-case 4 with entities [Midras (ID: 17875323/0x0110C17B), Midras (ID: 17875323/0x0110C17B)], work=250*
190: 0x05CB [0x1C] WAIT(30* ticks)
191: 0x05CE [0x81] SET_ENTITY_BLINKING(blink_flag=0x00, entity=Midras (ID: 17875323/0x0110C17B))
192: 0x05D4 [0x66] LOAD_EXT_SCHEDULER_MAIN: Load scheduler "tlk0" with entities [Midras (ID: 17875323/0x0110C17B), Midras (ID: 17875323/0x0110C17B)], work=149*
193: 0x05E3 [0x2B] Midras (ID: 17875323/0x0110C17B) [7641*]:
    → "Aha! That gives me an idea. Being an adventurer means you can use the waypoints, can't you?"
194: 0x05EA [0x23] WAIT_FOR_DIALOG_INTERACTION
195: 0x05EB [0x81] SET_ENTITY_BLINKING(blink_flag=0x01, entity=Midras (ID: 17875323/0x0110C17B))
196: 0x05F1 [0x1A] CALL_SUBROUTINE(address=0x123F)
197: 0x05F4 [0x52] END_LOAD_SCHEDULER: End scheduler "s015" with entities [EventEntity, EventEntity], work=636*
198: 0x0603 [0x45] LOAD_SCHEDULED_TASK: Load scheduler "s041" with entities [EventEntity, EventEntity], work=[636*, 0*]
199: 0x0614 [0x66] LOAD_EXT_SCHEDULER_MAIN: Load scheduler "tlk0" with entities [Midras (ID: 17875323/0x0110C17B), Midras (ID: 17875323/0x0110C17B)], work=9*
200: 0x0623 [0x2B] Midras (ID: 17875323/0x0110C17B) [7642*]:
    → "Isn't that right, [Mr./Ms.].."
201: 0x062A [0x23] WAIT_FOR_DIALOG_INTERACTION
202: 0x062B [0x2B] Midras (ID: 17875323/0x0110C17B) [7643*]:
    → "What was your name again?"
203: 0x0632 [0x23] WAIT_FOR_DIALOG_INTERACTION
204: 0x0633 [0x66] LOAD_EXT_SCHEDULER_MAIN: Load scheduler "tlk1" with entities [Midras (ID: 17875323/0x0110C17B), Midras (ID: 17875323/0x0110C17B)], work=9*
205: 0x0642 [0x29] REQ_SET_WAIT(priority=0x10, entity_id=LocalPlayer, tag_num=0x02)
206: 0x0649 [0x03] Work_Zone[3] = 90*
207: 0x064E [0x27] REQ_SET(priority=0x10, entity_id=LocalPlayer, tag_num=0x09)
208: 0x0655 [0x2A] GET_REQ_LEVEL(level=16, entity_id=LocalPlayer)
209: 0x065B [0x66] LOAD_EXT_SCHEDULER_MAIN: Load scheduler "tlk0" with entities [Midras (ID: 17875323/0x0110C17B), Midras (ID: 17875323/0x0110C17B)], work=149*
210: 0x066A [0x2B] Midras (ID: 17875323/0x0110C17B) [7644*]:
    → "Ah, yes, <Player>."
211: 0x0671 [0x23] WAIT_FOR_DIALOG_INTERACTION
212: 0x0672 [0x66] LOAD_EXT_SCHEDULER_MAIN: Load scheduler "tlk1" with entities [Midras (ID: 17875323/0x0110C17B), Midras (ID: 17875323/0x0110C17B)], work=149*
213: 0x0681 [0x1C] WAIT(60* ticks)
214: 0x0684 [0x03] Work_Zone_1700[0] = 90*
215: 0x0689 [0x27] REQ_SET(priority=0x10, entity_id=Midras (ID: 17875323/0x0110C17B), tag_num=0x0D)
216: 0x0690 [0x52] END_LOAD_SCHEDULER: End scheduler "s041" with entities [EventEntity, EventEntity], work=636*
217: 0x069F [0x45] LOAD_SCHEDULED_TASK: Load scheduler "s042" with entities [EventEntity, EventEntity], work=[636*, 0*]
218: 0x06B0 [0x2B] Midras (ID: 17875323/0x0110C17B) [7645*]:
    → "Allow me to introduce myself properly: I'm Midras. Charmed, I'm sure."
219: 0x06B7 [0x23] WAIT_FOR_DIALOG_INTERACTION
220: 0x06B8 [0x2A] GET_REQ_LEVEL(level=16, entity_id=Midras (ID: 17875323/0x0110C17B))
221: 0x06BE [0x52] END_LOAD_SCHEDULER: End scheduler "s042" with entities [EventEntity, EventEntity], work=636*
222: 0x06CD [0x45] LOAD_SCHEDULED_TASK: Load scheduler "s046" with entities [EventEntity, EventEntity], work=[636*, 0*]
223: 0x06DE [0x66] LOAD_EXT_SCHEDULER_MAIN: Load scheduler "tlk0" with entities [Midras (ID: 17875323/0x0110C17B), Midras (ID: 17875323/0x0110C17B)], work=149*
224: 0x06ED [0x2B] Midras (ID: 17875323/0x0110C17B) [7646*]:
    → "Now then, if Amchuchu is waiting, then I can't really dillydally here any longer."
225: 0x06F4 [0x23] WAIT_FOR_DIALOG_INTERACTION
226: 0x06F5 [0x2B] Midras (ID: 17875323/0x0110C17B) [7647*]:
    → "<Player>, I know we've just met, but I need you to do something for me. Go to Bastok and get a certain concoction from an inventor named Cid."
227: 0x06FC [0x23] WAIT_FOR_DIALOG_INTERACTION
228: 0x06FD [0x66] LOAD_EXT_SCHEDULER_MAIN: Load scheduler "tlk1" with entities [Midras (ID: 17875323/0x0110C17B), Midras (ID: 17875323/0x0110C17B)], work=149*
229: 0x070C [0x52] END_LOAD_SCHEDULER: End scheduler "s046" with entities [EventEntity, EventEntity], work=636*
230: 0x071B [0x45] LOAD_SCHEDULED_TASK: Load scheduler "s053" with entities [EventEntity, EventEntity], work=[636*, 0*]
231: 0x072C [0x1C] WAIT(30* ticks)
232: 0x072F [0x03] Work_Zone_1700[0] = 120*
233: 0x0734 [0x27] REQ_SET(priority=0x10, entity_id=Midras (ID: 17875323/0x0110C17B), tag_num=0x07)
234: 0x073B [0x2B] Midras (ID: 17875323/0x0110C17B) [7648*]:
    → "I shouldn't talk about him like some stranger, because he is my father, after all..."
235: 0x0742 [0x23] WAIT_FOR_DIALOG_INTERACTION
236: 0x0743 [0x2A] GET_REQ_LEVEL(level=16, entity_id=Midras (ID: 17875323/0x0110C17B))
237: 0x0749 [0x6E] LocalPlayer uses emote 7*
238: 0x0750 [0x99] Wait for LocalPlayer animation to complete
239: 0x0755 [0x1C] WAIT(60* ticks)
240: 0x0758 [0x66] LOAD_EXT_SCHEDULER_MAIN: Load scheduler "tlk0" with entities [Midras (ID: 17875323/0x0110C17B), Midras (ID: 17875323/0x0110C17B)], work=149*
241: 0x0767 [0x2B] Midras (ID: 17875323/0x0110C17B) [7649*]:
    → "Oh? Amchuchu already told you that?"
242: 0x076E [0x23] WAIT_FOR_DIALOG_INTERACTION
243: 0x076F [0x2B] Midras (ID: 17875323/0x0110C17B) [7650*]:
    → "I'm sure you must know all about me by now. <Snort>"
244: 0x0776 [0x23] WAIT_FOR_DIALOG_INTERACTION
245: 0x0777 [0x66] LOAD_EXT_SCHEDULER_MAIN: Load scheduler "tlk1" with entities [Midras (ID: 17875323/0x0110C17B), Midras (ID: 17875323/0x0110C17B)], work=149*
246: 0x0786 [0x6E] LocalPlayer uses emote 7*
247: 0x078D [0x99] Wait for LocalPlayer animation to complete
248: 0x0792 [0x1C] WAIT(60* ticks)
249: 0x0795 [0x1A] CALL_SUBROUTINE(address=0x1223)
250: 0x0798 [0x52] END_LOAD_SCHEDULER: End scheduler "s053" with entities [EventEntity, EventEntity], work=636*
251: 0x07A7 [0x45] LOAD_SCHEDULED_TASK: Load scheduler "s012" with entities [EventEntity, EventEntity], work=[636*, 0*]
252: 0x07B8 [0x03] Work_Zone_1700[0] = 120*
253: 0x07BD [0x27] REQ_SET(priority=0x10, entity_id=Midras (ID: 17875323/0x0110C17B), tag_num=0x07)
254: 0x07C4 [0x2B] Midras (ID: 17875323/0x0110C17B) [7651*]:
    → "(I'd give my life savings to have her keep her trap shut.)"
255: 0x07CB [0x23] WAIT_FOR_DIALOG_INTERACTION
256: 0x07CC [0x2A] GET_REQ_LEVEL(level=16, entity_id=Midras (ID: 17875323/0x0110C17B))
257: 0x07D2 [0x66] LOAD_EXT_SCHEDULER_MAIN: Load scheduler "tlk0" with entities [Midras (ID: 17875323/0x0110C17B), Midras (ID: 17875323/0x0110C17B)], work=0*
258: 0x07E1 [0x2B] Midras (ID: 17875323/0x0110C17B) [7652*]:
    → "Anyway, I need that concoction from pops to prepare my own explosive compound."
259: 0x07E8 [0x23] WAIT_FOR_DIALOG_INTERACTION
260: 0x07E9 [0x81] SET_ENTITY_BLINKING(blink_flag=0x00, entity=Midras (ID: 17875323/0x0110C17B))
261: 0x07EF [0x03] Work_Zone_1700[0] = 60*
262: 0x07F4 [0x27] REQ_SET(priority=0x10, entity_id=Midras (ID: 17875323/0x0110C17B), tag_num=0x0A)
263: 0x07FB [0x2B] Midras (ID: 17875323/0x0110C17B) [7653*]:
    → "I ran out, you see. It's my own fault for not properly checking my supplies."
264: 0x0802 [0x23] WAIT_FOR_DIALOG_INTERACTION
265: 0x0803 [0x2A] GET_REQ_LEVEL(level=16, entity_id=Midras (ID: 17875323/0x0110C17B))
266: 0x0809 [0x81] SET_ENTITY_BLINKING(blink_flag=0x01, entity=Midras (ID: 17875323/0x0110C17B))
267: 0x080F [0x52] END_LOAD_SCHEDULER: End scheduler "s012" with entities [EventEntity, EventEntity], work=636*
268: 0x081E [0x45] LOAD_SCHEDULED_TASK: Load scheduler "s047" with entities [EventEntity, EventEntity], work=[636*, 0*]
269: 0x082F [0x66] LOAD_EXT_SCHEDULER_MAIN: Load scheduler "tlk0" with entities [Midras (ID: 17875323/0x0110C17B), Midras (ID: 17875323/0x0110C17B)], work=0*
270: 0x083E [0x2B] Midras (ID: 17875323/0x0110C17B) [7654*]:
    → "What I need you to get is a bit on the rare side, and it would take days to find some here in Adoulin. But pops has some in his workshop. Of that I can be sure."
271: 0x0845 [0x23] WAIT_FOR_DIALOG_INTERACTION
272: 0x0846 [0x2B] Midras (ID: 17875323/0x0110C17B) [7655*]:
    → "I know you'll help me out with this."
273: 0x084D [0x23] WAIT_FOR_DIALOG_INTERACTION
274: 0x084E [0x66] LOAD_EXT_SCHEDULER_MAIN: Load scheduler "ten0" with entities [Midras (ID: 17875323/0x0110C17B), Midras (ID: 17875323/0x0110C17B)], work=0*
275: 0x085D [0x52] END_LOAD_SCHEDULER: End scheduler "s047" with entities [EventEntity, EventEntity], work=636*

SUBROUTINE_086C:
276: 0x086C [0x24] CREATE_DIALOG(message_id=7656*, default_option=0*, option_flags=0*)
    → "How about it? [Promise to go to Bastok./Not with that attitude!]"
277: 0x0873 [0x25] WAIT_DIALOG_SELECT()
278: 0x0874 [0x02] IF !(Work_Zone[0] == 0*) GOTO 0x08F9
279: 0x087C [0x1A] CALL_SUBROUTINE(address=0x123F)
280: 0x087F [0x52] END_LOAD_SCHEDULER: End scheduler "s047" with entities [EventEntity, EventEntity], work=636*
281: 0x088E [0x45] LOAD_SCHEDULED_TASK: Load scheduler "s044" with entities [EventEntity, EventEntity], work=[636*, 0*]
282: 0x089F [0x6E] Midras (ID: 17875323/0x0110C17B) uses emote 11*
283: 0x08A6 [0x99] Wait for Midras (ID: 17875323/0x0110C17B) animation to complete
284: 0x08AB [0x1C] WAIT(120* ticks)
285: 0x08AE [0x66] LOAD_EXT_SCHEDULER_MAIN: Load scheduler "tlk0" with entities [Midras (ID: 17875323/0x0110C17B), Midras (ID: 17875323/0x0110C17B)], work=149*
286: 0x08BD [0x2B] Midras (ID: 17875323/0x0110C17B) [7657*]:
    → "I knew I could count on you."
287: 0x08C4 [0x23] WAIT_FOR_DIALOG_INTERACTION
288: 0x08C5 [0x03] Work_Zone_1700[0] = 120*
289: 0x08CA [0x27] REQ_SET(priority=0x10, entity_id=Midras (ID: 17875323/0x0110C17B), tag_num=0x0B)
290: 0x08D1 [0x2B] Midras (ID: 17875323/0x0110C17B) [7658*]:
    → "The compound names are a bit technical, so here...take this list so you don't have to remember it all. Give it to my old man, would you kindly?"
291: 0x08D8 [0x23] WAIT_FOR_DIALOG_INTERACTION
292: 0x08D9 [0x2A] GET_REQ_LEVEL(level=16, entity_id=Midras (ID: 17875323/0x0110C17B))
293: 0x08DF [0x66] LOAD_EXT_SCHEDULER_MAIN: Load scheduler "tlk0" with entities [Midras (ID: 17875323/0x0110C17B), Midras (ID: 17875323/0x0110C17B)], work=149*
294: 0x08EE [0x2B] Midras (ID: 17875323/0x0110C17B) [7659*]:
    → "Thanks a bunch, <Player>!"
295: 0x08F5 [0x23] WAIT_FOR_DIALOG_INTERACTION
296: 0x08F6 [0x01] GOTO 0x098D
297: 0x08F9 [0x02] IF !(Work_Zone[0] == 1*) GOTO 0x098D
298: 0x0901 [0x1A] CALL_SUBROUTINE(address=0x123F)
299: 0x0904 [0x52] END_LOAD_SCHEDULER: End scheduler "s047" with entities [EventEntity, EventEntity], work=636*
300: 0x0913 [0x45] LOAD_SCHEDULED_TASK: Load scheduler "s044" with entities [EventEntity, EventEntity], work=[636*, 0*]
301: 0x0924 [0x03] Work_Zone_1700[0] = 120*
302: 0x0929 [0x27] REQ_SET(priority=0x10, entity_id=Midras (ID: 17875323/0x0110C17B), tag_num=0x08)
303: 0x0930 [0x2B] Midras (ID: 17875323/0x0110C17B) [7660*]:
    → "You're kidding, right?"
304: 0x0937 [0x23] WAIT_FOR_DIALOG_INTERACTION
305: 0x0938 [0x2A] GET_REQ_LEVEL(level=16, entity_id=Midras (ID: 17875323/0x0110C17B))
306: 0x093E [0x66] LOAD_EXT_SCHEDULER_MAIN: Load scheduler "tlk0" with entities [Midras (ID: 17875323/0x0110C17B), Midras (ID: 17875323/0x0110C17B)], work=149*
307: 0x094D [0x2B] Midras (ID: 17875323/0x0110C17B) [7661*]:
    → "I know you'll come around. After all, this is the first step in helping Adoulin feed its populace!"
308: 0x0954 [0x23] WAIT_FOR_DIALOG_INTERACTION
309: 0x0955 [0x66] LOAD_EXT_SCHEDULER_MAIN: Load scheduler "tlk1" with entities [Midras (ID: 17875323/0x0110C17B), Midras (ID: 17875323/0x0110C17B)], work=149*
310: 0x0964 [0x1A] CALL_SUBROUTINE(address=0x1223)
311: 0x0967 [0x52] END_LOAD_SCHEDULER: End scheduler "s044" with entities [EventEntity, EventEntity], work=636*
312: 0x0976 [0x45] LOAD_SCHEDULED_TASK: Load scheduler "s047" with entities [EventEntity, EventEntity], work=[636*, 0*]
313: 0x0987 [0x01] GOTO 0x086C

SUBROUTINE_098D:
314: 0x098D [0x45] LOAD_SCHEDULED_TASK: Load scheduler "fdo1" with entities [LocalPlayer, LocalPlayer], work=[200*, 0*]
315: 0x099E [0x55] WAIT_LOAD_SCHEDULER: Wait for scheduler "fdo1" with entities [LocalPlayer, LocalPlayer], work=200*
316: 0x09AD [0x52] END_LOAD_SCHEDULER: End scheduler "s044" with entities [EventEntity, EventEntity], work=636*
317: 0x09BC [0x46] CAMERA_CONTROL: Restore default settings
318: 0x09BE [0x45] LOAD_SCHEDULED_TASK: Load scheduler "fdi2" with entities [LocalPlayer, LocalPlayer], work=[200*, 0*]
319: 0x09CF [0x21] END_EVENT
320: 0x09D0 [0x00] END_REQSTACK()
```

#### Data or dead code:

```
# Dead code (unreachable instructions):
     0x098A [0x01] GOTO 0x098D
```

### Event 16

#### Metadata

| Field        | Value      |
|--------------|------------|
| Entrypoint   | 0x09D1     |
| Data Size    | 2186 bytes |
| Instructions | 291        |

```
      00 01 02 03 04 05 06 07  08 09 0A 0B 0C 0D 0E 0F
      -- -- -- -- -- -- -- --  -- -- -- -- -- -- -- --
09D0:    42 45 00 80 F0 FF FF  7F F0 FF FF 7F 66 64 6F   BE..........fdo
09E0: 31 01 80 55 00 80 F0 FF  FF 7F F0 FF FF 7F 66 64  1..U..........fd
09F0: 6F 31 46 01 38 02 80 2F  00 7B C1 10 01 4E 00 7B  o1F.8../.{...N.{
0A00: C1 10 01 BA 7B C1 10 01  03 80 04 80 05 80 01 80  ....{...........
0A10: BA F0 FF FF 7F 46 80 47  80 48 80 01 80 80 7B C1  .....F.G.H....{.
0A20: 10 01 80 F0 FF FF 7F 94  01 7B C1 10 01 94 01 F0  .........{......
0A30: FF FF 7F 27 10 F0 FF FF  7F 02 1C 06 80 27 10 F0  ...'.........'..
0A40: FF FF 7F 0A 45 00 80 F0  FF FF 7F F0 FF FF 7F 66  ....E..........f
0A50: 64 69 31 01 80 02 02 10  14 80 00 71 0A 45 08 80  di1........q.E..
0A60: F8 FF FF 7F F8 FF FF 7F  73 30 31 36 01 80 01 9E  ........s016....
0A70: 0A 02 02 10 15 80 00 8D  0A 45 08 80 F8 FF FF 7F  .........E......
0A80: F8 FF FF 7F 73 30 31 36  01 80 01 9E 0A 45 08 80  ....s016.....E..
0A90: F8 FF FF 7F F8 FF FF 7F  73 30 31 30 01 80 2A 10  ........s010..*.
0AA0: F0 FF FF 7F 4A F0 FF FF  7F 7B C1 10 01 6F 76 F0  ....J....{...ov.
0AB0: FF FF 7F 03 02 10 01 80  24 18 80 01 80 01 80 25  ........$......%
0AC0: 02 00 10 01 80 00 0A 0B  29 10 F0 FF FF 7F 02 03  ........).......
0AD0: 03 10 1C 80 27 10 F0 FF  FF 7F 09 2A 10 F0 FF FF  ....'......*....
0AE0: 7F 4A 7B C1 10 01 F0 FF  FF 7F 6F 76 7B C1 10 01  .J{.......ov{...
0AF0: 66 07 80 7B C1 10 01 7B  C1 10 01 74 6C 6B 30 2B  f..{...{...tlk0+
0B00: 7B C1 10 01 49 80 23 01  6B 0B 02 00 10 17 80 00  {...I.#.k.......
0B10: 6B 0B 29 10 F0 FF FF 7F  02 03 03 10 1C 80 27 10  k.)...........'.
0B20: F0 FF FF 7F 09 2A 10 F0  FF FF 7F 4A 7B C1 10 01  .....*.....J{...
0B30: F0 FF FF 7F 1C 06 80 03  00 17 13 80 27 10 7B C1  ............'.{.
0B40: 10 01 06 2B 7B C1 10 01  4A 80 23 2A 10 7B C1 10  ...+{...J.#*.{..
0B50: 01 66 07 80 7B C1 10 01  7B C1 10 01 74 6C 6B 30  .f..{...{...tlk0
0B60: 2B 7B C1 10 01 4B 80 23  01 6B 0B 66 07 80 7B C1  +{...K.#.k.f..{.
0B70: 10 01 7B C1 10 01 74 6C  6B 31 27 10 F0 FF FF 7F  ..{...tlk1'.....
0B80: 0F 1C 13 80 03 02 10 4C  80 48 4D 80 1C 0B 80 1A  .......L.HM.....
0B90: 23 12 29 10 F0 FF FF 7F  02 02 02 10 14 80 00 B3  #.).............
0BA0: 0B 52 08 80 F8 FF FF 7F  F8 FF FF 7F 73 30 31 36  .R..........s016
0BB0: 01 DC 0B 02 02 10 15 80  00 CD 0B 52 08 80 F8 FF  ...........R....
0BC0: FF 7F F8 FF FF 7F 73 30  31 36 01 DC 0B 52 08 80  ......s016...R..
0BD0: F8 FF FF 7F F8 FF FF 7F  73 30 31 30 45 08 80 F8  ........s010E...
0BE0: FF FF 7F F8 FF FF 7F 73  30 34 33 01 80 03 00 17  .......s043.....
0BF0: 0C 80 27 10 7B C1 10 01  09 2B 7B C1 10 01 4E 80  ..'.{....+{...N.
0C00: 23 2A 10 7B C1 10 01 52  08 80 F8 FF FF 7F F8 FF  #*.{...R........
0C10: FF 7F 73 30 34 33 45 08  80 F8 FF FF 7F F8 FF FF  ..s043E.........
0C20: 7F 73 30 31 33 01 80 1C  0B 80 1A 3F 12 7B 7B C1  .s013......?.{{.
0C30: 10 01 9F 4F 80 7B C1 10  01 7B C1 10 01 66 72 73  ...O.{...{...frs
0C40: 74 01 80 1C 50 80 9F 4F  80 7B C1 10 01 7B C1 10  t...P..O.{...{..
0C50: 01 6F 6B 30 30 01 80 1C  51 80 4A 7B C1 10 01 F0  .ok00...Q.J{....
0C60: FF FF 7F 03 00 17 52 80  27 10 7B C1 10 01 0C 1C  ......R.'.{.....
0C70: 06 80 2B 7B C1 10 01 53  80 23 2A 10 7B C1 10 01  ..+{...S.#*.{...
0C80: 52 08 80 F8 FF FF 7F F8  FF FF 7F 73 30 31 33 45  R..........s013E
0C90: 08 80 F8 FF FF 7F F8 FF  FF 7F 73 30 31 37 01 80  ..........s017..
0CA0: 29 10 F0 FF FF 7F 0B 4A  F0 FF FF 7F 7B C1 10 01  )......J....{...
0CB0: 66 07 80 7B C1 10 01 7B  C1 10 01 74 6C 6B 30 2B  f..{...{...tlk0+
0CC0: 7B C1 10 01 54 80 23 66  07 80 7B C1 10 01 7B C1  {...T.#f..{...{.
0CD0: 10 01 74 6C 6B 31 53 7B  C1 10 01 7B C1 10 01 74  ..tlk1S{...{...t
0CE0: 6C 6B 31 1C 06 80 27 10  F0 FF FF 7F 0C 4A F0 FF  lk1...'......J..
0CF0: FF 7F 7B C1 10 01 4A 7B  C1 10 01 F8 FF FF 7F 6F  ..{...J{.......o
0D00: 76 7B C1 10 01 1C 0B 80  52 08 80 F8 FF FF 7F F8  v{......R.......
0D10: FF FF 7F 73 30 31 37 45  08 80 F8 FF FF 7F F8 FF  ...s017E........
0D20: FF 7F 73 30 31 38 01 80  66 07 80 7B C1 10 01 7B  ..s018..f..{...{
0D30: C1 10 01 73 69 72 30 1C  52 80 66 07 80 7B C1 10  ...sir0.R.f..{..
0D40: 01 7B C1 10 01 73 68 61  31 53 7B C1 10 01 7B C1  .{...sha1S{...{.
0D50: 10 01 73 68 61 31 7B F0  FF FF 7F 27 10 7B C1 10  ..sha1{....'.{..
0D60: 01 03 7B 7B C1 10 01 2A  10 7B C1 10 01 29 10 7B  ..{{...*.{...).{
0D70: C1 10 01 05 1C 0B 80 AD  02 55 80 F8 FF FF 7F F8  .........U......
0D80: FF FF 7F 1C 52 80 27 10  7B C1 10 01 04 2A 10 7B  ....R.'.{....*.{
0D90: C1 10 01 4A 7B C1 10 01  F8 FF FF 7F 4A F0 FF FF  ...J{.......J...
0DA0: 7F 7B C1 10 01 6F 76 7B  C1 10 01 52 08 80 F8 FF  .{...ov{...R....
0DB0: FF 7F F8 FF FF 7F 73 30  31 38 45 08 80 F8 FF FF  ......s018E.....
0DC0: 7F F8 FF FF 7F 73 30 31  33 01 80 66 07 80 7B C1  .....s013..f..{.
0DD0: 10 01 7B C1 10 01 73 69  72 30 1C 0C 80 66 07 80  ..{...sir0...f..
0DE0: 7B C1 10 01 7B C1 10 01  73 68 61 31 27 10 F0 FF  {...{...sha1'...
0DF0: FF 7F 0D 1C 1C 80 03 00  17 0C 80 27 10 7B C1 10  ...........'.{..
0E00: 01 0C 2B 7B C1 10 01 56  80 23 2A 10 7B C1 10 01  ..+{...V.#*.{...
0E10: 2A 10 F0 FF FF 7F 4A 7B  C1 10 01 F0 FF FF 7F 52  *.....J{.......R
0E20: 08 80 F8 FF FF 7F F8 FF  FF 7F 73 30 31 33 45 08  ..........s013E.
0E30: 80 F8 FF FF 7F F8 FF FF  7F 73 30 34 31 01 80 6F  .........s041..o
0E40: 76 7B C1 10 01 66 1E 80  7B C1 10 01 7B C1 10 01  v{...f..{...{...
0E50: 74 6C 6B 30 2B 7B C1 10  01 57 80 23 2B 7B C1 10  tlk0+{...W.#+{..
0E60: 01 58 80 23 66 07 80 7B  C1 10 01 7B C1 10 01 74  .X.#f..{...{...t
0E70: 6C 6B 30 2B 7B C1 10 01  59 80 23 7B 7B C1 10 01  lk0+{...Y.#{{...
0E80: 81 00 7B C1 10 01 03 00  17 1C 80 27 10 7B C1 10  ..{........'.{..
0E90: 01 0D 1C 0B 80 52 08 80  F8 FF FF 7F F8 FF FF 7F  .....R..........
0EA0: 73 30 34 31 45 08 80 F8  FF FF 7F F8 FF FF 7F 73  s041E..........s
0EB0: 30 32 30 01 80 2B 7B C1  10 01 5A 80 23 2A 10 7B  020..+{...Z.#*.{
0EC0: C1 10 01 52 08 80 F8 FF  FF 7F F8 FF FF 7F 73 30  ...R..........s0
0ED0: 32 30 45 08 80 F8 FF FF  7F F8 FF FF 7F 73 30 31  20E..........s01
0EE0: 39 01 80 66 5B 80 7B C1  10 01 7B C1 10 01 65 75  9..f[.{...{...eu
0EF0: 64 31 7B 7B C1 10 01 03  00 17 13 80 27 10 7B C1  d1{{........'.{.
0F00: 10 01 0E 2B 7B C1 10 01  5C 80 23 2A 10 7B C1 10  ...+{...\.#*.{..
0F10: 01 81 01 7B C1 10 01 52  08 80 F8 FF FF 7F F8 FF  ...{...R........
0F20: FF 7F 73 30 31 39 45 08  80 F8 FF FF 7F F8 FF FF  ..s019E.........
0F30: 7F 73 30 34 34 01 80 4A  7B C1 10 01 F0 FF FF 7F  .s044..J{.......
0F40: 5B 5D 80 7B C1 10 01 7B  C1 10 01 6B 69 6D 31 53  [].{...{...kim1S
0F50: 7B C1 10 01 7B C1 10 01  6B 69 6D 31 03 00 17 0C  {...{...kim1....
0F60: 80 27 10 7B C1 10 01 07  2B 7B C1 10 01 5E 80 23  .'.{....+{...^.#
0F70: 2A 10 7B C1 10 01 66 1E  80 7B C1 10 01 7B C1 10  *.{...f..{...{..
0F80: 01 74 6C 6B 30 03 00 17  1C 80 27 10 F0 FF FF 7F  .tlk0.....'.....
0F90: 10 2B 7B C1 10 01 5F 80  23 2A 10 F0 FF FF 7F 66  .+{..._.#*.....f
0FA0: 1E 80 7B C1 10 01 7B C1  10 01 74 6C 6B 31 03 00  ..{...{...tlk1..
0FB0: 17 0C 80 27 10 7B C1 10  01 0B 2B 7B C1 10 01 60  ...'.{....+{...`
0FC0: 80 23 2A 10 7B C1 10 01  66 07 80 7B C1 10 01 7B  .#*.{...f..{...{
0FD0: C1 10 01 74 6C 6B 30 03  00 17 1C 80 27 10 F0 FF  ...tlk0.....'...
0FE0: FF 7F 10 2B 7B C1 10 01  61 80 23 2A 10 F0 FF FF  ...+{...a.#*....
0FF0: 7F 66 07 80 7B C1 10 01  7B C1 10 01 74 6C 6B 31  .f..{...{...tlk1
1000: 1C 0B 80 27 10 F0 FF FF  7F 0E 1C 0B 80 7B 7B C1  ...'.........{{.
1010: 10 01 52 08 80 F8 FF FF  7F F8 FF FF 7F 73 30 34  ..R..........s04
1020: 34 45 08 80 F8 FF FF 7F  F8 FF FF 7F 73 30 32 31  4E..........s021
1030: 01 80 1C 52 80 7C 00 7B  C1 10 01 52 08 80 F8 FF  ...R.|.{...R....
1040: FF 7F F8 FF FF 7F 73 30  32 31 45 08 80 F8 FF FF  ......s021E.....
1050: 7F F8 FF FF 7F 73 30 31  32 01 80 1C 0C 80 79 02  .....s012.....y.
1060: 7B C1 10 01 62 80 63 80  2B 7B C1 10 01 64 80 23  {...b.c.+{...d.#
1070: 7C 01 7B C1 10 01 4E 01  F0 FF FF 7F 2F 00 7C C1  |.{...N...../.|.
1080: 10 01 4E 00 7C C1 10 01  BA 7C C1 10 01 65 80 66  ..N.|....|...e.f
1090: 80 67 80 68 80 4A 7C C1  10 01 7B C1 10 01 6F 76  .g.h.J|...{...ov
10A0: 7C C1 10 01 80 7C C1 10  01 94 01 7C C1 10 01 5B  |....|.....|...[
10B0: 69 80 7C C1 10 01 7C C1  10 01 73 68 61 30 66 5B  i.|...|...sha0f[
10C0: 80 7B C1 10 01 7B C1 10  01 6C 73 30 30 7B 7B C1  .{...{...ls00{{.
10D0: 10 01 1D 6A 80 23 66 5B  80 7B C1 10 01 7B C1 10  ...j.#f[.{...{..
10E0: 01 6C 73 30 32 2B 7B C1  10 01 6B 80 23 2B 7B C1  .ls02+{...k.#+{.
10F0: 10 01 6C 80 23 2B 7B C1  10 01 6D 80 23 52 08 80  ..l.#+{...m.#R..
1100: F8 FF FF 7F F8 FF FF 7F  73 30 31 32 45 08 80 F8  ........s012E...
1110: FF FF 7F F8 FF FF 7F 73  30 32 32 01 80 1D 6E 80  .......s022...n.
1120: 23 1C 0B 80 66 5B 80 7B  C1 10 01 7B C1 10 01 6C  #...f[.{...{...l
1130: 73 30 31 53 7B C1 10 01  7B C1 10 01 6C 73 30 31  s01S{...{...ls01
1140: 1C 0B 80 03 00 17 0C 80  27 10 7B C1 10 01 07 2A  ........'.{....*
1150: 10 7B C1 10 01 2B 7C C1  10 01 6F 80 23 1C 06 80  .{...+|...o.#...
1160: 4A 7B C1 10 01 F8 FF FF  7F 6F 76 7B C1 10 01 1C  J{.......ov{....
1170: 06 80 66 07 80 7B C1 10  01 7B C1 10 01 73 69 72  ..f..{...{...sir
1180: 30 2B 7C C1 10 01 70 80  23 52 08 80 F8 FF FF 7F  0+|...p.#R......
1190: F8 FF FF 7F 73 30 32 32  45 08 80 F8 FF FF 7F F8  ....s022E.......
11A0: FF FF 7F 73 30 32 33 01  80 2B 7C C1 10 01 71 80  ...s023..+|...q.
11B0: 23 2B 7C C1 10 01 72 80  23 5B 69 80 7C C1 10 01  #+|...r.#[i.|...
11C0: 7C C1 10 01 73 68 61 31  53 7C C1 10 01 7C C1 10  |...sha1S|...|..
11D0: 01 73 68 61 31 27 10 7C  C1 10 01 02 1C 1C 80 45  .sha1'.|.......E
11E0: 00 80 F0 FF FF 7F F0 FF  FF 7F 66 64 6F 31 01 80  ..........fdo1..
11F0: 55 00 80 F0 FF FF 7F F0  FF FF 7F 66 64 6F 31 52  U..........fdo1R
1200: 08 80 F8 FF FF 7F F8 FF  FF 7F 73 30 32 33 46 00  ..........s023F.
1210: 45 00 80 F0 FF FF 7F F0  FF FF 7F 66 64 69 32 01  E..........fdi2.
1220: 80 21 00 33 01 36 73 80  74 80 75 80 59 03 7B C1  .!.3.6s.t.u.Y.{.
1230: 10 01 00 80 79 00 7B C1  10 01 F8 FF FF 7F 1B 33  ....y.{........3
1240: 00 36 76 80 77 80 78 80  59 03 7B C1 10 01 0F 80  .6v.w.x.Y.{.....
1250: 79 00 7B C1 10 01 F0 FF  FF 7F 1B                 y.{........     
```

#### Opcodes

```
  0: 0x09D1 [0x42] SET_CLI_EVENT_CANCEL_DATA()
  1: 0x09D2 [0x45] LOAD_SCHEDULED_TASK: Load scheduler "fdo1" with entities [LocalPlayer, LocalPlayer], work=[200*, 0*]
  2: 0x09E3 [0x55] WAIT_LOAD_SCHEDULER: Wait for scheduler "fdo1" with entities [LocalPlayer, LocalPlayer], work=200*
  3: 0x09F2 [0x46] CAMERA_CONTROL: Disable user control
  4: 0x09F4 [0x38] SET_CLIENT_EVENT_MODE(mode=19*)
  5: 0x09F7 [0x2F] Midras (ID: 17875323/0x0110C17B)->Render.Flags0 &= ~0x80000 // Bit 19
  6: 0x09FD [0x4E] SET_ENTITY_HIDE_FLAG: Show Midras (ID: 17875323/0x0110C17B)
  7: 0x0A03 [0xBA] SET_ENTITY_POSITION(entity_id=Midras (ID: 17875323/0x0110C17B), pos_x=106.150*, pos_z=-220.880*, pos_y=-0.420*, direction=0.0°*)
  8: 0x0A10 [0xBA] SET_ENTITY_POSITION(entity_id=LocalPlayer, pos_x=100.650*, pos_z=-218.900*, pos_y=0.870*, direction=0.0°*)
  9: 0x0A1D [0x80] LOAD_WAIT(entity=Midras (ID: 17875323/0x0110C17B))
 10: 0x0A22 [0x80] LOAD_WAIT(entity=LocalPlayer)
 11: 0x0A27 [0x94] Midras (ID: 17875323/0x0110C17B)->Render.Flags3 ^= 0x01
 12: 0x0A2D [0x94] LocalPlayer->Render.Flags3 ^= 0x01
 13: 0x0A33 [0x27] REQ_SET(priority=0x10, entity_id=LocalPlayer, tag_num=0x02)
 14: 0x0A3A [0x1C] WAIT(30* ticks)
 15: 0x0A3D [0x27] REQ_SET(priority=0x10, entity_id=LocalPlayer, tag_num=0x0A)
 16: 0x0A44 [0x45] LOAD_SCHEDULED_TASK: Load scheduler "fdi1" with entities [LocalPlayer, LocalPlayer], work=[200*, 0*]
 17: 0x0A55 [0x02] IF !(Work_Zone[2] == 5*) GOTO 0x0A71
 18: 0x0A5D [0x45] LOAD_SCHEDULED_TASK: Load scheduler "s016" with entities [EventEntity, EventEntity], work=[636*, 0*]
 19: 0x0A6E [0x01] GOTO 0x0A9E
 20: 0x0A71 [0x02] IF !(Work_Zone[2] == 6*) GOTO 0x0A8D
 21: 0x0A79 [0x45] LOAD_SCHEDULED_TASK: Load scheduler "s016" with entities [EventEntity, EventEntity], work=[636*, 0*]
 22: 0x0A8A [0x01] GOTO 0x0A9E
 23: 0x0A8D [0x45] LOAD_SCHEDULED_TASK: Load scheduler "s010" with entities [EventEntity, EventEntity], work=[636*, 0*]

SUBROUTINE_0A9E:
 24: 0x0A9E [0x2A] GET_REQ_LEVEL(level=16, entity_id=LocalPlayer)
 25: 0x0AA4 [0x4A] LocalPlayer looks at Midras (ID: 17875323/0x0110C17B)
 26: 0x0AAD [0x6F] WAIT_FRAME_DELAY: Yield until WaitTime reaches zero
 27: 0x0AAE [0x76] CHECK_ENTITY_RENDER_FLAGS: Wait until LocalPlayer Render.Flags0 and Render.Flags3 conditions are met
 28: 0x0AB3 [0x03] Work_Zone[2] = 0*
 29: 0x0AB8 [0x24] CREATE_DIALOG(message_id=7623*, default_option=0*, option_flags=0*)
    → "How do you address him? [Midras[./?]/Junior[./?]]"
 30: 0x0ABF [0x25] WAIT_DIALOG_SELECT()
 31: 0x0AC0 [0x02] IF !(Work_Zone[0] == 0*) GOTO 0x0B0A
 32: 0x0AC8 [0x29] REQ_SET_WAIT(priority=0x10, entity_id=LocalPlayer, tag_num=0x02)
 33: 0x0ACF [0x03] Work_Zone[3] = 90*
 34: 0x0AD4 [0x27] REQ_SET(priority=0x10, entity_id=LocalPlayer, tag_num=0x09)
 35: 0x0ADB [0x2A] GET_REQ_LEVEL(level=16, entity_id=LocalPlayer)
 36: 0x0AE1 [0x4A] Midras (ID: 17875323/0x0110C17B) looks at LocalPlayer
 37: 0x0AEA [0x6F] WAIT_FRAME_DELAY: Yield until WaitTime reaches zero
 38: 0x0AEB [0x76] CHECK_ENTITY_RENDER_FLAGS: Wait until Midras (ID: 17875323/0x0110C17B) Render.Flags0 and Render.Flags3 conditions are met
 39: 0x0AF0 [0x66] LOAD_EXT_SCHEDULER_MAIN: Load scheduler "tlk0" with entities [Midras (ID: 17875323/0x0110C17B), Midras (ID: 17875323/0x0110C17B)], work=9*
 40: 0x0AFF [0x2B] Midras (ID: 17875323/0x0110C17B) [7662*]:
    → "Well, well, look who the Mithra dragged in."
 41: 0x0B06 [0x23] WAIT_FOR_DIALOG_INTERACTION
 42: 0x0B07 [0x01] GOTO 0x0B6B
 43: 0x0B0A [0x02] IF !(Work_Zone[0] == 1*) GOTO 0x0B6B
 44: 0x0B12 [0x29] REQ_SET_WAIT(priority=0x10, entity_id=LocalPlayer, tag_num=0x02)
 45: 0x0B19 [0x03] Work_Zone[3] = 90*
 46: 0x0B1E [0x27] REQ_SET(priority=0x10, entity_id=LocalPlayer, tag_num=0x09)
 47: 0x0B25 [0x2A] GET_REQ_LEVEL(level=16, entity_id=LocalPlayer)
 48: 0x0B2B [0x4A] Midras (ID: 17875323/0x0110C17B) looks at LocalPlayer
 49: 0x0B34 [0x1C] WAIT(30* ticks)
 50: 0x0B37 [0x03] Work_Zone_1700[0] = 150*
 51: 0x0B3C [0x27] REQ_SET(priority=0x10, entity_id=Midras (ID: 17875323/0x0110C17B), tag_num=0x06)
 52: 0x0B43 [0x2B] Midras (ID: 17875323/0x0110C17B) [7663*]:
    → "This is unbelievable. I told you, my name is MID-RAS."
 53: 0x0B4A [0x23] WAIT_FOR_DIALOG_INTERACTION
 54: 0x0B4B [0x2A] GET_REQ_LEVEL(level=16, entity_id=Midras (ID: 17875323/0x0110C17B))
 55: 0x0B51 [0x66] LOAD_EXT_SCHEDULER_MAIN: Load scheduler "tlk0" with entities [Midras (ID: 17875323/0x0110C17B), Midras (ID: 17875323/0x0110C17B)], work=9*
 56: 0x0B60 [0x2B] Midras (ID: 17875323/0x0110C17B) [7664*]:
    → "Can't find any good help around here. I bet you didn't even bring back what I requested."
 57: 0x0B67 [0x23] WAIT_FOR_DIALOG_INTERACTION
 58: 0x0B68 [0x01] GOTO 0x0B6B

SUBROUTINE_0B6B:
 59: 0x0B6B [0x66] LOAD_EXT_SCHEDULER_MAIN: Load scheduler "tlk1" with entities [Midras (ID: 17875323/0x0110C17B), Midras (ID: 17875323/0x0110C17B)], work=9*
 60: 0x0B7A [0x27] REQ_SET(priority=0x10, entity_id=LocalPlayer, tag_num=0x0F)
 61: 0x0B81 [0x1C] WAIT(150* ticks)
 62: 0x0B84 [0x03] Work_Zone[2] = 2271*
 63: 0x0B89 [0x48] [System] [7665*]:
    → "You hand over $3."
 64: 0x0B8C [0x1C] WAIT(60* ticks)
 65: 0x0B8F [0x1A] CALL_SUBROUTINE(address=0x1223)
 66: 0x0B92 [0x29] REQ_SET_WAIT(priority=0x10, entity_id=LocalPlayer, tag_num=0x02)
 67: 0x0B99 [0x02] IF !(Work_Zone[2] == 5*) GOTO 0x0BB3
 68: 0x0BA1 [0x52] END_LOAD_SCHEDULER: End scheduler "s016" with entities [EventEntity, EventEntity], work=636*
 69: 0x0BB0 [0x01] GOTO 0x0BDC
 70: 0x0BB3 [0x02] IF !(Work_Zone[2] == 6*) GOTO 0x0BCD
 71: 0x0BBB [0x52] END_LOAD_SCHEDULER: End scheduler "s016" with entities [EventEntity, EventEntity], work=636*
 72: 0x0BCA [0x01] GOTO 0x0BDC
 73: 0x0BCD [0x52] END_LOAD_SCHEDULER: End scheduler "s010" with entities [EventEntity, EventEntity], work=636*

SUBROUTINE_0BDC:
 74: 0x0BDC [0x45] LOAD_SCHEDULED_TASK: Load scheduler "s043" with entities [EventEntity, EventEntity], work=[636*, 0*]
 75: 0x0BED [0x03] Work_Zone_1700[0] = 120*
 76: 0x0BF2 [0x27] REQ_SET(priority=0x10, entity_id=Midras (ID: 17875323/0x0110C17B), tag_num=0x09)
 77: 0x0BF9 [0x2B] Midras (ID: 17875323/0x0110C17B) [7666*]:
    → "Oh ho, you actually did it. Color me impressed. Now, to just do a little fiddling around..."
 78: 0x0C00 [0x23] WAIT_FOR_DIALOG_INTERACTION
 79: 0x0C01 [0x2A] GET_REQ_LEVEL(level=16, entity_id=Midras (ID: 17875323/0x0110C17B))
 80: 0x0C07 [0x52] END_LOAD_SCHEDULER: End scheduler "s043" with entities [EventEntity, EventEntity], work=636*
 81: 0x0C16 [0x45] LOAD_SCHEDULED_TASK: Load scheduler "s013" with entities [EventEntity, EventEntity], work=[636*, 0*]
 82: 0x0C27 [0x1C] WAIT(60* ticks)
 83: 0x0C2A [0x1A] CALL_SUBROUTINE(address=0x123F)
 84: 0x0C2D [0x7B] Midras (ID: 17875323/0x0110C17B) stops talking
 85: 0x0C32 [0x9F] LOAD_SCHEDULED_TASK_ALT: Load scheduler "frst" with entities [Midras (ID: 17875323/0x0110C17B), Midras (ID: 17875323/0x0110C17B)], work=[191*, 0*]
 86: 0x0C43 [0x1C] WAIT(300* ticks)
 87: 0x0C46 [0x9F] LOAD_SCHEDULED_TASK_ALT: Load scheduler "ok00" with entities [Midras (ID: 17875323/0x0110C17B), Midras (ID: 17875323/0x0110C17B)], work=[191*, 0*]
 88: 0x0C57 [0x1C] WAIT(210* ticks)
 89: 0x0C5A [0x4A] Midras (ID: 17875323/0x0110C17B) looks at LocalPlayer
 90: 0x0C63 [0x03] Work_Zone_1700[0] = 180*
 91: 0x0C68 [0x27] REQ_SET(priority=0x10, entity_id=Midras (ID: 17875323/0x0110C17B), tag_num=0x0C)
 92: 0x0C6F [0x1C] WAIT(30* ticks)
 93: 0x0C72 [0x2B] Midras (ID: 17875323/0x0110C17B) [7667*]:
    → "Excellent. This should serve perfectly."
 94: 0x0C79 [0x23] WAIT_FOR_DIALOG_INTERACTION
 95: 0x0C7A [0x2A] GET_REQ_LEVEL(level=16, entity_id=Midras (ID: 17875323/0x0110C17B))
 96: 0x0C80 [0x52] END_LOAD_SCHEDULER: End scheduler "s013" with entities [EventEntity, EventEntity], work=636*
 97: 0x0C8F [0x45] LOAD_SCHEDULED_TASK: Load scheduler "s017" with entities [EventEntity, EventEntity], work=[636*, 0*]
 98: 0x0CA0 [0x29] REQ_SET_WAIT(priority=0x10, entity_id=LocalPlayer, tag_num=0x0B)
 99: 0x0CA7 [0x4A] LocalPlayer looks at Midras (ID: 17875323/0x0110C17B)
100: 0x0CB0 [0x66] LOAD_EXT_SCHEDULER_MAIN: Load scheduler "tlk0" with entities [Midras (ID: 17875323/0x0110C17B), Midras (ID: 17875323/0x0110C17B)], work=9*
101: 0x0CBF [0x2B] Midras (ID: 17875323/0x0110C17B) [7668*]:
    → "What are you, scared? Get back over here."
102: 0x0CC6 [0x23] WAIT_FOR_DIALOG_INTERACTION
103: 0x0CC7 [0x66] LOAD_EXT_SCHEDULER_MAIN: Load scheduler "tlk1" with entities [Midras (ID: 17875323/0x0110C17B), Midras (ID: 17875323/0x0110C17B)], work=9*
104: 0x0CD6 [0x53] WAIT_SCHEDULER_TASK: Wait for scheduler "tlk1" with entities [Midras (ID: 17875323/0x0110C17B), Midras (ID: 17875323/0x0110C17B)]
105: 0x0CE3 [0x1C] WAIT(30* ticks)
106: 0x0CE6 [0x27] REQ_SET(priority=0x10, entity_id=LocalPlayer, tag_num=0x0C)
107: 0x0CED [0x4A] LocalPlayer looks at Midras (ID: 17875323/0x0110C17B)
108: 0x0CF6 [0x4A] Midras (ID: 17875323/0x0110C17B) looks at EventEntity
109: 0x0CFF [0x6F] WAIT_FRAME_DELAY: Yield until WaitTime reaches zero
110: 0x0D00 [0x76] CHECK_ENTITY_RENDER_FLAGS: Wait until Midras (ID: 17875323/0x0110C17B) Render.Flags0 and Render.Flags3 conditions are met
111: 0x0D05 [0x1C] WAIT(60* ticks)
112: 0x0D08 [0x52] END_LOAD_SCHEDULER: End scheduler "s017" with entities [EventEntity, EventEntity], work=636*
113: 0x0D17 [0x45] LOAD_SCHEDULED_TASK: Load scheduler "s018" with entities [EventEntity, EventEntity], work=[636*, 0*]
114: 0x0D28 [0x66] LOAD_EXT_SCHEDULER_MAIN: Load scheduler "sir0" with entities [Midras (ID: 17875323/0x0110C17B), Midras (ID: 17875323/0x0110C17B)], work=9*
115: 0x0D37 [0x1C] WAIT(180* ticks)
116: 0x0D3A [0x66] LOAD_EXT_SCHEDULER_MAIN: Load scheduler "sha1" with entities [Midras (ID: 17875323/0x0110C17B), Midras (ID: 17875323/0x0110C17B)], work=9*
117: 0x0D49 [0x53] WAIT_SCHEDULER_TASK: Wait for scheduler "sha1" with entities [Midras (ID: 17875323/0x0110C17B), Midras (ID: 17875323/0x0110C17B)]
118: 0x0D56 [0x7B] LocalPlayer stops talking
119: 0x0D5B [0x27] REQ_SET(priority=0x10, entity_id=Midras (ID: 17875323/0x0110C17B), tag_num=0x03)
120: 0x0D62 [0x7B] Midras (ID: 17875323/0x0110C17B) stops talking
121: 0x0D67 [0x2A] GET_REQ_LEVEL(level=16, entity_id=Midras (ID: 17875323/0x0110C17B))
122: 0x0D6D [0x29] REQ_SET_WAIT(priority=0x10, entity_id=Midras (ID: 17875323/0x0110C17B), tag_num=0x05)
123: 0x0D74 [0x1C] WAIT(60* ticks)
124: 0x0D77 [0xAD] DUAL_ENTITY_SCHEDULER_HANDLER: Execute sub-case 2 with entities [EventEntity, EventEntity], work=269*
125: 0x0D83 [0x1C] WAIT(180* ticks)
126: 0x0D86 [0x27] REQ_SET(priority=0x10, entity_id=Midras (ID: 17875323/0x0110C17B), tag_num=0x04)
127: 0x0D8D [0x2A] GET_REQ_LEVEL(level=16, entity_id=Midras (ID: 17875323/0x0110C17B))
128: 0x0D93 [0x4A] Midras (ID: 17875323/0x0110C17B) looks at EventEntity
129: 0x0D9C [0x4A] LocalPlayer looks at Midras (ID: 17875323/0x0110C17B)
130: 0x0DA5 [0x6F] WAIT_FRAME_DELAY: Yield until WaitTime reaches zero
131: 0x0DA6 [0x76] CHECK_ENTITY_RENDER_FLAGS: Wait until Midras (ID: 17875323/0x0110C17B) Render.Flags0 and Render.Flags3 conditions are met
132: 0x0DAB [0x52] END_LOAD_SCHEDULER: End scheduler "s018" with entities [EventEntity, EventEntity], work=636*
133: 0x0DBA [0x45] LOAD_SCHEDULED_TASK: Load scheduler "s013" with entities [EventEntity, EventEntity], work=[636*, 0*]
134: 0x0DCB [0x66] LOAD_EXT_SCHEDULER_MAIN: Load scheduler "sir0" with entities [Midras (ID: 17875323/0x0110C17B), Midras (ID: 17875323/0x0110C17B)], work=9*
135: 0x0DDA [0x1C] WAIT(120* ticks)
136: 0x0DDD [0x66] LOAD_EXT_SCHEDULER_MAIN: Load scheduler "sha1" with entities [Midras (ID: 17875323/0x0110C17B), Midras (ID: 17875323/0x0110C17B)], work=9*
137: 0x0DEC [0x27] REQ_SET(priority=0x10, entity_id=LocalPlayer, tag_num=0x0D)
138: 0x0DF3 [0x1C] WAIT(90* ticks)
139: 0x0DF6 [0x03] Work_Zone_1700[0] = 120*
140: 0x0DFB [0x27] REQ_SET(priority=0x10, entity_id=Midras (ID: 17875323/0x0110C17B), tag_num=0x0C)
141: 0x0E02 [0x2B] Midras (ID: 17875323/0x0110C17B) [7669*]:
    → "Marvelous!"
142: 0x0E09 [0x23] WAIT_FOR_DIALOG_INTERACTION
143: 0x0E0A [0x2A] GET_REQ_LEVEL(level=16, entity_id=Midras (ID: 17875323/0x0110C17B))
144: 0x0E10 [0x2A] GET_REQ_LEVEL(level=16, entity_id=LocalPlayer)
145: 0x0E16 [0x4A] Midras (ID: 17875323/0x0110C17B) looks at LocalPlayer
146: 0x0E1F [0x52] END_LOAD_SCHEDULER: End scheduler "s013" with entities [EventEntity, EventEntity], work=636*
147: 0x0E2E [0x45] LOAD_SCHEDULED_TASK: Load scheduler "s041" with entities [EventEntity, EventEntity], work=[636*, 0*]
148: 0x0E3F [0x6F] WAIT_FRAME_DELAY: Yield until WaitTime reaches zero
149: 0x0E40 [0x76] CHECK_ENTITY_RENDER_FLAGS: Wait until Midras (ID: 17875323/0x0110C17B) Render.Flags0 and Render.Flags3 conditions are met
150: 0x0E45 [0x66] LOAD_EXT_SCHEDULER_MAIN: Load scheduler "tlk0" with entities [Midras (ID: 17875323/0x0110C17B), Midras (ID: 17875323/0x0110C17B)], work=149*
151: 0x0E54 [0x2B] Midras (ID: 17875323/0x0110C17B) [7670*]:
    → "Not all explosives are about making things burst into flames. Sometimes a more delicate approach is required. But I suppose I can't fault an amateur such as yourself for not knowing."
152: 0x0E5B [0x23] WAIT_FOR_DIALOG_INTERACTION
153: 0x0E5C [0x2B] Midras (ID: 17875323/0x0110C17B) [7671*]:
    → "You see, even though this explosion was rather tame, it helped me excavate exactly what I need."
154: 0x0E63 [0x23] WAIT_FOR_DIALOG_INTERACTION
155: 0x0E64 [0x66] LOAD_EXT_SCHEDULER_MAIN: Load scheduler "tlk0" with entities [Midras (ID: 17875323/0x0110C17B), Midras (ID: 17875323/0x0110C17B)], work=9*
156: 0x0E73 [0x2B] Midras (ID: 17875323/0x0110C17B) [7672*]:
    → "It's called a "chemical reaction.""
157: 0x0E7A [0x23] WAIT_FOR_DIALOG_INTERACTION
158: 0x0E7B [0x7B] Midras (ID: 17875323/0x0110C17B) stops talking
159: 0x0E80 [0x81] SET_ENTITY_BLINKING(blink_flag=0x00, entity=Midras (ID: 17875323/0x0110C17B))
160: 0x0E86 [0x03] Work_Zone_1700[0] = 90*
161: 0x0E8B [0x27] REQ_SET(priority=0x10, entity_id=Midras (ID: 17875323/0x0110C17B), tag_num=0x0D)
162: 0x0E92 [0x1C] WAIT(60* ticks)
163: 0x0E95 [0x52] END_LOAD_SCHEDULER: End scheduler "s041" with entities [EventEntity, EventEntity], work=636*
164: 0x0EA4 [0x45] LOAD_SCHEDULED_TASK: Load scheduler "s020" with entities [EventEntity, EventEntity], work=[636*, 0*]
165: 0x0EB5 [0x2B] Midras (ID: 17875323/0x0110C17B) [7673*]:
    → "This substance is the future, <Player>!"
166: 0x0EBC [0x23] WAIT_FOR_DIALOG_INTERACTION
167: 0x0EBD [0x2A] GET_REQ_LEVEL(level=16, entity_id=Midras (ID: 17875323/0x0110C17B))
168: 0x0EC3 [0x52] END_LOAD_SCHEDULER: End scheduler "s020" with entities [EventEntity, EventEntity], work=636*
169: 0x0ED2 [0x45] LOAD_SCHEDULED_TASK: Load scheduler "s019" with entities [EventEntity, EventEntity], work=[636*, 0*]
170: 0x0EE3 [0x66] LOAD_EXT_SCHEDULER_MAIN: Load scheduler "eud1" with entities [Midras (ID: 17875323/0x0110C17B), Midras (ID: 17875323/0x0110C17B)], work=78*
171: 0x0EF2 [0x7B] Midras (ID: 17875323/0x0110C17B) stops talking
172: 0x0EF7 [0x03] Work_Zone_1700[0] = 150*
173: 0x0EFC [0x27] REQ_SET(priority=0x10, entity_id=Midras (ID: 17875323/0x0110C17B), tag_num=0x0E)
174: 0x0F03 [0x2B] Midras (ID: 17875323/0x0110C17B) [7674*]:
    → "Accept it or be left in the dust!"
175: 0x0F0A [0x23] WAIT_FOR_DIALOG_INTERACTION
176: 0x0F0B [0x2A] GET_REQ_LEVEL(level=16, entity_id=Midras (ID: 17875323/0x0110C17B))
177: 0x0F11 [0x81] SET_ENTITY_BLINKING(blink_flag=0x01, entity=Midras (ID: 17875323/0x0110C17B))
178: 0x0F17 [0x52] END_LOAD_SCHEDULER: End scheduler "s019" with entities [EventEntity, EventEntity], work=636*
179: 0x0F26 [0x45] LOAD_SCHEDULED_TASK: Load scheduler "s044" with entities [EventEntity, EventEntity], work=[636*, 0*]
180: 0x0F37 [0x4A] Midras (ID: 17875323/0x0110C17B) looks at LocalPlayer
181: 0x0F40 [0x5B] LOAD_EXT_SCHEDULER: Load scheduler "kim1" with entities [Midras (ID: 17875323/0x0110C17B), Midras (ID: 17875323/0x0110C17B)], work=3009*
182: 0x0F4F [0x53] WAIT_SCHEDULER_TASK: Wait for scheduler "kim1" with entities [Midras (ID: 17875323/0x0110C17B), Midras (ID: 17875323/0x0110C17B)]
183: 0x0F5C [0x03] Work_Zone_1700[0] = 120*
184: 0x0F61 [0x27] REQ_SET(priority=0x10, entity_id=Midras (ID: 17875323/0x0110C17B), tag_num=0x07)
185: 0x0F68 [0x2B] Midras (ID: 17875323/0x0110C17B) [7675*]:
    → "But I'll leave the lessons for when you've become a bit more refined."
186: 0x0F6F [0x23] WAIT_FOR_DIALOG_INTERACTION
187: 0x0F70 [0x2A] GET_REQ_LEVEL(level=16, entity_id=Midras (ID: 17875323/0x0110C17B))
188: 0x0F76 [0x66] LOAD_EXT_SCHEDULER_MAIN: Load scheduler "tlk0" with entities [Midras (ID: 17875323/0x0110C17B), Midras (ID: 17875323/0x0110C17B)], work=149*
189: 0x0F85 [0x03] Work_Zone_1700[0] = 90*
190: 0x0F8A [0x27] REQ_SET(priority=0x10, entity_id=LocalPlayer, tag_num=0x10)
191: 0x0F91 [0x2B] Midras (ID: 17875323/0x0110C17B) [7676*]:
    → "Damn, I forgot Amchuchu was waiting for me."
192: 0x0F98 [0x23] WAIT_FOR_DIALOG_INTERACTION
193: 0x0F99 [0x2A] GET_REQ_LEVEL(level=16, entity_id=LocalPlayer)
194: 0x0F9F [0x66] LOAD_EXT_SCHEDULER_MAIN: Load scheduler "tlk1" with entities [Midras (ID: 17875323/0x0110C17B), Midras (ID: 17875323/0x0110C17B)], work=149*
195: 0x0FAE [0x03] Work_Zone_1700[0] = 120*
196: 0x0FB3 [0x27] REQ_SET(priority=0x10, entity_id=Midras (ID: 17875323/0x0110C17B), tag_num=0x0B)
197: 0x0FBA [0x2B] Midras (ID: 17875323/0x0110C17B) [7677*]:
    → "<Player>, there's one more task I have for you. Bring this back to the Inventors' Coalition for me."
198: 0x0FC1 [0x23] WAIT_FOR_DIALOG_INTERACTION
199: 0x0FC2 [0x2A] GET_REQ_LEVEL(level=16, entity_id=Midras (ID: 17875323/0x0110C17B))
200: 0x0FC8 [0x66] LOAD_EXT_SCHEDULER_MAIN: Load scheduler "tlk0" with entities [Midras (ID: 17875323/0x0110C17B), Midras (ID: 17875323/0x0110C17B)], work=9*
201: 0x0FD7 [0x03] Work_Zone_1700[0] = 90*
202: 0x0FDC [0x27] REQ_SET(priority=0x10, entity_id=LocalPlayer, tag_num=0x10)
203: 0x0FE3 [0x2B] Midras (ID: 17875323/0x0110C17B) [7678*]:
    → "I've got a bit more preparation to do here."
204: 0x0FEA [0x23] WAIT_FOR_DIALOG_INTERACTION
205: 0x0FEB [0x2A] GET_REQ_LEVEL(level=16, entity_id=LocalPlayer)
206: 0x0FF1 [0x66] LOAD_EXT_SCHEDULER_MAIN: Load scheduler "tlk1" with entities [Midras (ID: 17875323/0x0110C17B), Midras (ID: 17875323/0x0110C17B)], work=9*
207: 0x1000 [0x1C] WAIT(60* ticks)
208: 0x1003 [0x27] REQ_SET(priority=0x10, entity_id=LocalPlayer, tag_num=0x0E)
209: 0x100A [0x1C] WAIT(60* ticks)
210: 0x100D [0x7B] Midras (ID: 17875323/0x0110C17B) stops talking
211: 0x1012 [0x52] END_LOAD_SCHEDULER: End scheduler "s044" with entities [EventEntity, EventEntity], work=636*
212: 0x1021 [0x45] LOAD_SCHEDULED_TASK: Load scheduler "s021" with entities [EventEntity, EventEntity], work=[636*, 0*]
213: 0x1032 [0x1C] WAIT(180* ticks)
214: 0x1035 [0x7C] Midras (ID: 17875323/0x0110C17B)->Render.Flags2 |= 0x00
215: 0x103B [0x52] END_LOAD_SCHEDULER: End scheduler "s021" with entities [EventEntity, EventEntity], work=636*
216: 0x104A [0x45] LOAD_SCHEDULED_TASK: Load scheduler "s012" with entities [EventEntity, EventEntity], work=[636*, 0*]
217: 0x105B [0x1C] WAIT(120* ticks)
218: 0x105E [0x79] Midras (ID: 17875323/0x0110C17B) looks at Unknown NPC (ID: 2154004578/0x80638062) (Direct axis set)
219: 0x1068 [0x2B] Midras (ID: 17875323/0x0110C17B) [7679*]:
    → "...Is it..."
220: 0x106F [0x23] WAIT_FOR_DIALOG_INTERACTION
221: 0x1070 [0x7C] Midras (ID: 17875323/0x0110C17B)->Render.Flags2 |= 0x01
222: 0x1076 [0x4E] SET_ENTITY_HIDE_FLAG: Hide LocalPlayer
223: 0x107C [0x2F] Hektor (ID: 17875324/0x0110C17C)->Render.Flags0 &= ~0x80000 // Bit 19
224: 0x1082 [0x4E] SET_ENTITY_HIDE_FLAG: Show Hektor (ID: 17875324/0x0110C17C)
225: 0x1088 [0xBA] SET_ENTITY_POSITION(entity_id=Hektor (ID: 17875324/0x0110C17C), pos_x=95.065*, pos_z=-216.260*, pos_y=-0.537*, direction=90.0°*)
226: 0x1095 [0x4A] Hektor (ID: 17875324/0x0110C17C) looks at Midras (ID: 17875323/0x0110C17B)
227: 0x109E [0x6F] WAIT_FRAME_DELAY: Yield until WaitTime reaches zero
228: 0x109F [0x76] CHECK_ENTITY_RENDER_FLAGS: Wait until Hektor (ID: 17875324/0x0110C17C) Render.Flags0 and Render.Flags3 conditions are met
229: 0x10A4 [0x80] LOAD_WAIT(entity=Hektor (ID: 17875324/0x0110C17C))
230: 0x10A9 [0x94] Hektor (ID: 17875324/0x0110C17C)->Render.Flags3 ^= 0x01
231: 0x10AF [0x5B] LOAD_EXT_SCHEDULER: Load scheduler "sha0" with entities [Hektor (ID: 17875324/0x0110C17C), Hektor (ID: 17875324/0x0110C17C)], work=1093*
232: 0x10BE [0x66] LOAD_EXT_SCHEDULER_MAIN: Load scheduler "ls00" with entities [Midras (ID: 17875323/0x0110C17B), Midras (ID: 17875323/0x0110C17B)], work=78*
233: 0x10CD [0x7B] Midras (ID: 17875323/0x0110C17B) stops talking
234: 0x10D2 [0x1D] PRINT_EVENT_MESSAGE(message_id=7680*)
    → "(Omega, give me your report.)"
235: 0x10D5 [0x23] WAIT_FOR_DIALOG_INTERACTION
236: 0x10D6 [0x66] LOAD_EXT_SCHEDULER_MAIN: Load scheduler "ls02" with entities [Midras (ID: 17875323/0x0110C17B), Midras (ID: 17875323/0x0110C17B)], work=78*
237: 0x10E5 [0x2B] Midras (ID: 17875323/0x0110C17B) [7681*]:
    → "(This is Omega. I have successfully found employ at the Inventors' Coalition in Adoulin and am currently working to gather information about their unique technologies.)"
238: 0x10EC [0x23] WAIT_FOR_DIALOG_INTERACTION
239: 0x10ED [0x2B] Midras (ID: 17875323/0x0110C17B) [7682*]:
    → "(I am also in the process of collecting intel about the other coalitions, groups, and organizations in the nation. I will submit a full briefing once I have more to share.)"
240: 0x10F4 [0x23] WAIT_FOR_DIALOG_INTERACTION
241: 0x10F5 [0x2B] Midras (ID: 17875323/0x0110C17B) [7683*]:
    → "(However, I have run into difficulties finding reliable sources regarding these runic technologies and the underlying structure behind geomancy.)"
242: 0x10FC [0x23] WAIT_FOR_DIALOG_INTERACTION
243: 0x10FD [0x52] END_LOAD_SCHEDULER: End scheduler "s012" with entities [EventEntity, EventEntity], work=636*
244: 0x110C [0x45] LOAD_SCHEDULED_TASK: Load scheduler "s022" with entities [EventEntity, EventEntity], work=[636*, 0*]
245: 0x111D [0x1D] PRINT_EVENT_MESSAGE(message_id=7684*)
    → "(...Understood. Don't concern yourself with the latter--many other agents are already in place. Proceed with your current mission. We await further details.)"
246: 0x1120 [0x23] WAIT_FOR_DIALOG_INTERACTION
247: 0x1121 [0x1C] WAIT(60* ticks)
248: 0x1124 [0x66] LOAD_EXT_SCHEDULER_MAIN: Load scheduler "ls01" with entities [Midras (ID: 17875323/0x0110C17B), Midras (ID: 17875323/0x0110C17B)], work=78*
249: 0x1133 [0x53] WAIT_SCHEDULER_TASK: Wait for scheduler "ls01" with entities [Midras (ID: 17875323/0x0110C17B), Midras (ID: 17875323/0x0110C17B)]
250: 0x1140 [0x1C] WAIT(60* ticks)
251: 0x1143 [0x03] Work_Zone_1700[0] = 120*
252: 0x1148 [0x27] REQ_SET(priority=0x10, entity_id=Midras (ID: 17875323/0x0110C17B), tag_num=0x07)
253: 0x114F [0x2A] GET_REQ_LEVEL(level=16, entity_id=Midras (ID: 17875323/0x0110C17B))
254: 0x1155 [0x2B] Hektor (ID: 17875324/0x0110C17C) [7685*]:
    → "(Isn't that Midras, Amchuchu's little lackey...?)"
255: 0x115C [0x23] WAIT_FOR_DIALOG_INTERACTION
256: 0x115D [0x1C] WAIT(30* ticks)
257: 0x1160 [0x4A] Midras (ID: 17875323/0x0110C17B) looks at EventEntity
258: 0x1169 [0x6F] WAIT_FRAME_DELAY: Yield until WaitTime reaches zero
259: 0x116A [0x76] CHECK_ENTITY_RENDER_FLAGS: Wait until Midras (ID: 17875323/0x0110C17B) Render.Flags0 and Render.Flags3 conditions are met
260: 0x116F [0x1C] WAIT(30* ticks)
261: 0x1172 [0x66] LOAD_EXT_SCHEDULER_MAIN: Load scheduler "sir0" with entities [Midras (ID: 17875323/0x0110C17B), Midras (ID: 17875323/0x0110C17B)], work=9*
262: 0x1181 [0x2B] Hektor (ID: 17875324/0x0110C17C) [7686*]:
    → "(And isn't he also the technician dispatched from the Middle Lands?)"
263: 0x1188 [0x23] WAIT_FOR_DIALOG_INTERACTION
264: 0x1189 [0x52] END_LOAD_SCHEDULER: End scheduler "s022" with entities [EventEntity, EventEntity], work=636*
265: 0x1198 [0x45] LOAD_SCHEDULED_TASK: Load scheduler "s023" with entities [EventEntity, EventEntity], work=[636*, 0*]
266: 0x11A9 [0x2B] Hektor (ID: 17875324/0x0110C17C) [7687*]:
    → "("Omega"... this whole deal sounds very secretive. And Gratzigg doesn't like secrets.)"
267: 0x11B0 [0x23] WAIT_FOR_DIALOG_INTERACTION
268: 0x11B1 [0x2B] Hektor (ID: 17875324/0x0110C17C) [7688*]:
    → "(I must return to headquarters and apprise him of the situation...)"
269: 0x11B8 [0x23] WAIT_FOR_DIALOG_INTERACTION
270: 0x11B9 [0x5B] LOAD_EXT_SCHEDULER: Load scheduler "sha1" with entities [Hektor (ID: 17875324/0x0110C17C), Hektor (ID: 17875324/0x0110C17C)], work=1093*
271: 0x11C8 [0x53] WAIT_SCHEDULER_TASK: Wait for scheduler "sha1" with entities [Hektor (ID: 17875324/0x0110C17C), Hektor (ID: 17875324/0x0110C17C)]
272: 0x11D5 [0x27] REQ_SET(priority=0x10, entity_id=Hektor (ID: 17875324/0x0110C17C), tag_num=0x02)
273: 0x11DC [0x1C] WAIT(90* ticks)
274: 0x11DF [0x45] LOAD_SCHEDULED_TASK: Load scheduler "fdo1" with entities [LocalPlayer, LocalPlayer], work=[200*, 0*]
275: 0x11F0 [0x55] WAIT_LOAD_SCHEDULER: Wait for scheduler "fdo1" with entities [LocalPlayer, LocalPlayer], work=200*
276: 0x11FF [0x52] END_LOAD_SCHEDULER: End scheduler "s023" with entities [EventEntity, EventEntity], work=636*
277: 0x120E [0x46] CAMERA_CONTROL: Restore default settings
278: 0x1210 [0x45] LOAD_SCHEDULED_TASK: Load scheduler "fdi2" with entities [LocalPlayer, LocalPlayer], work=[200*, 0*]
279: 0x1221 [0x21] END_EVENT
280: 0x1222 [0x00] END_REQSTACK()

SUBROUTINE_1223:
281: 0x1223 [0x33] EventEntity->Render.Flags0 |= 0x200000 // Bit 21 (flag=0x01)
282: 0x1225 [0x36] SET_ENTITY_EVENT_POSITION(pos_x=104.203*, pos_z=-220.442*, pos_y=-1.800*)
283: 0x122C [0x59] UPDATE_ENTITY_DATA: Set Midras (ID: 17875323/0x0110C17B) turn speed head = 200*
284: 0x1234 [0x79] Midras (ID: 17875323/0x0110C17B) looks at EventEntity (Basic look)
285: 0x123E [0x1B] RETURN

SUBROUTINE_123F:
286: 0x123F [0x33] EventEntity->Render.Flags0 &= ~ 0x200000 // Bit 21 (flag=0x00)
287: 0x1241 [0x36] SET_ENTITY_EVENT_POSITION(pos_x=106.425*, pos_z=-220.875*, pos_y=-0.444*)
288: 0x1248 [0x59] UPDATE_ENTITY_DATA: Set Midras (ID: 17875323/0x0110C17B) turn speed head = 100*
289: 0x1250 [0x79] Midras (ID: 17875323/0x0110C17B) looks at LocalPlayer (Basic look)
290: 0x125A [0x1B] RETURN
```
