# Event 65535

## Metadata

| Field           | Value    |
|-----------------|----------|
| Event Index     | 22/22    |
| Offset          | 0x0121   |
| Data Size       | 41 bytes |
| Calculated Size | 41 bytes |
| Instructions    | 6        |

```
      00 01 02 03 04 05 06 07  08 09 0A 0B 0C 0D 0E 0F
      -- -- -- -- -- -- -- --  -- -- -- -- -- -- -- --
0120:    1C 0F 80 66 00 80 2F  72 05 01 2F 72 05 01 74   ...f../r../r..t
0130: 68 6B 32 81 01 2F 72 05  01 53 2F 72 05 01 2F 72  hk2../r..S/r../r
0140: 05 01 74 68 6B 32 1C 0C  80 00                    ..thk2....      
```

## Opcodes

```
  0: 0x0121 [0x1C] WAIT(110* ticks)
  1: 0x0124 [0x66] LOAD_EXT_SCHEDULER_MAIN: Load scheduler "thk2" with entities [Nicolaus (ID: 17134127/0x0105722F), Nicolaus (ID: 17134127/0x0105722F)], work=0*
  2: 0x0133 [0x81] SET_ENTITY_BLINKING(blink_flag=0x01, entity=Nicolaus (ID: 17134127/0x0105722F))
  3: 0x0139 [0x53] WAIT_SCHEDULER_TASK: Wait for scheduler "thk2" with entities [Nicolaus (ID: 17134127/0x0105722F), Nicolaus (ID: 17134127/0x0105722F)]
  4: 0x0146 [0x1C] WAIT(60* ticks)
  5: 0x0149 [0x00] END_REQSTACK()
```
