# Event 227

## Metadata

| Field           | Value    |
|-----------------|----------|
| Event Index     | 14/18    |
| Offset          | 0x011C   |
| Data Size       | 33 bytes |
| Calculated Size | 33 bytes |
| Instructions    | 12       |

```
      00 01 02 03 04 05 06 07  08 09 0A 0B 0C 0D 0E 0F
      -- -- -- -- -- -- -- --  -- -- -- -- -- -- -- --
0110:                                      1E F0 FF FF              ....
0120: 7F 6F 70 29 08 2A 20 0F  01 01 1D 0E 80 23 1D 0F  .op).* ......#..
0130: 80 23 29 08 2A 20 0F 01  02 20 00 21 00           .#).* ... .!.   
```

## Opcodes

```
  0: 0x011C [0x1E] EventEntity looks at LocalPlayer and starts talking
  1: 0x0121 [0x6F] WAIT_FRAME_DELAY: Yield until WaitTime reaches zero
  2: 0x0122 [0x70] WAIT_ENTITY_RENDER_FLAG: Wait while EventEntity->Render.Flags3 bit 2 is set (cancel turn if not)
  3: 0x0123 [0x29] REQ_SET_WAIT(priority=0x08, entity_id=Dattata (ID: 17768490/0x010F202A), tag_num=0x01)
  4: 0x012A [0x1D] PRINT_EVENT_MESSAGE(message_id=505*)
    → "WISE and LOVELY head lady ZUBABA has reminded us that we must stay CALM in this time of despair.\u007F1\u0000\u0007"
  5: 0x012D [0x23] WAIT_FOR_DIALOG_INTERACTION
  6: 0x012E [0x1D] PRINT_EVENT_MESSAGE(message_id=506*)
    → "(Well, that prune doesn't need to worry about me. As to what goes on within these walls, my mouth is shut as tight as a shall shell.)\u007F1\u0000\u0007"
  7: 0x0131 [0x23] WAIT_FOR_DIALOG_INTERACTION
  8: 0x0132 [0x29] REQ_SET_WAIT(priority=0x08, entity_id=Dattata (ID: 17768490/0x010F202A), tag_num=0x02)
  9: 0x0139 [0x20] SET_CLI_EVENT_UC_FLAG: Unlock player control
 10: 0x013B [0x21] END_EVENT
 11: 0x013C [0x00] END_REQSTACK()
```
