# Event 65535

## Metadata

| Field           | Value    |
|-----------------|----------|
| Event Index     | 24/25    |
| Offset          | 0x013A   |
| Data Size       | 37 bytes |
| Calculated Size | 37 bytes |
| Instructions    | 9        |

```
      00 01 02 03 04 05 06 07  08 09 0A 0B 0C 0D 0E 0F
      -- -- -- -- -- -- -- --  -- -- -- -- -- -- -- --
0130:                                29 08 21 80 09 01            ).!...
0140: 01 1D 1B 80 23 29 08 21  80 09 01 02 29 08 21 80  ....#).!....).!.
0150: 09 01 03 1D 1C 80 23 29  08 21 80 09 01 04 00     ......#).!..... 
```

## Opcodes

```
  0: 0x013A [0x29] REQ_SET_WAIT(priority=0x08, entity_id=Lion (ID: 17399841/0x01098021), tag_num=0x01)
  1: 0x0141 [0x1D] PRINT_EVENT_MESSAGE(message_id=7117*)
    → "Was that a phantom?\u0007An image...of the Shadow Lord?\u007F1\u0000\u0007"
  2: 0x0144 [0x23] WAIT_FOR_DIALOG_INTERACTION
  3: 0x0145 [0x29] REQ_SET_WAIT(priority=0x08, entity_id=Lion (ID: 17399841/0x01098021), tag_num=0x02)
  4: 0x014C [0x29] REQ_SET_WAIT(priority=0x08, entity_id=Lion (ID: 17399841/0x01098021), tag_num=0x03)
  5: 0x0153 [0x1D] PRINT_EVENT_MESSAGE(message_id=7118*)
    → "The Shadow Lord? It can't be!\u0007His powers can't have returned!\u007F1\u0000\u0007"
  6: 0x0156 [0x23] WAIT_FOR_DIALOG_INTERACTION
  7: 0x0157 [0x29] REQ_SET_WAIT(priority=0x08, entity_id=Lion (ID: 17399841/0x01098021), tag_num=0x04)
  8: 0x015E [0x00] END_REQSTACK()
```
