# Event 65535

## Metadata

| Field           | Value    |
|-----------------|----------|
| Event Index     | 34/42    |
| Offset          | 0x0F0F   |
| Data Size       | 50 bytes |
| Calculated Size | 50 bytes |
| Instructions    | 7        |

```
      00 01 02 03 04 05 06 07  08 09 0A 0B 0C 0D 0E 0F
      -- -- -- -- -- -- -- --  -- -- -- -- -- -- -- --
0F00:                                               02                 .
0F10: 07 7F 0B 80 00 29 0F 66  60 80 F8 FF FF 7F F8 FF  .....).f`.......
0F20: FF 7F 74 68 6B 30 01 40  0F 03 01 00 07 7F 1A A5  ..thk0.@........
0F30: 09 66 02 00 F8 FF FF 7F  F8 FF FF 7F 74 68 6B 31  .f..........thk1
0F40: 00                                                .               
```

## Opcodes

```
  0: 0x0F0F [0x02] IF !(Entity->Race == 1*) GOTO 0x0F29
  1: 0x0F17 [0x66] LOAD_EXT_SCHEDULER_MAIN: Load scheduler "thk0" with entities [EventEntity, EventEntity], work=149*
  2: 0x0F26 [0x01] GOTO 0x0F40
  3: 0x0F29 [0x03] ExtData[1]->WorkLocal[1] = Entity->Race
  4: 0x0F2E [0x1A] CALL_SUBROUTINE(address=0x09A5)
  5: 0x0F31 [0x66] LOAD_EXT_SCHEDULER_MAIN: Load scheduler "thk1" with entities [EventEntity, EventEntity], work=ExtData[1]->WorkLocal[2]

SUBROUTINE_0F40:
  6: 0x0F40 [0x00] END_REQSTACK()
```
