# Event 65535

## Metadata

| Field           | Value    |
|-----------------|----------|
| Event Index     | 4/4      |
| Offset          | 0x003E   |
| Data Size       | 72 bytes |
| Calculated Size | 72 bytes |
| Instructions    | 8        |

```
      00 01 02 03 04 05 06 07  08 09 0A 0B 0C 0D 0E 0F
      -- -- -- -- -- -- -- --  -- -- -- -- -- -- -- --
0030:                                            6E 3F                n?
0040: 42 0A 01 06 80 99 3F 42  0A 01 1C 07 80 66 08 80  B.....?B.....f..
0050: 3F 42 0A 01 3F 42 0A 01  74 6C 6B 30 53 3F 42 0A  ?B..?B..tlk0S?B.
0060: 01 3F 42 0A 01 74 6C 6B  30 66 08 80 3F 42 0A 01  .?B..tlk0f..?B..
0070: 3F 42 0A 01 74 6C 6B 31  53 3F 42 0A 01 3F 42 0A  ?B..tlk1S?B..?B.
0080: 01 74 6C 6B 31 00                                 .tlk1.          
```

## Opcodes

```
  0: 0x003E [0x6E] Vailanice (ID: 17449535/0x010A423F) uses emote 4*
  1: 0x0045 [0x99] Wait for Vailanice (ID: 17449535/0x010A423F) animation to complete
  2: 0x004A [0x1C] WAIT(210* ticks)
  3: 0x004D [0x66] LOAD_EXT_SCHEDULER_MAIN: Load scheduler "tlk0" with entities [Vailanice (ID: 17449535/0x010A423F), Vailanice (ID: 17449535/0x010A423F)], work=29*
  4: 0x005C [0x53] WAIT_SCHEDULER_TASK: Wait for scheduler "tlk0" with entities [Vailanice (ID: 17449535/0x010A423F), Vailanice (ID: 17449535/0x010A423F)]
  5: 0x0069 [0x66] LOAD_EXT_SCHEDULER_MAIN: Load scheduler "tlk1" with entities [Vailanice (ID: 17449535/0x010A423F), Vailanice (ID: 17449535/0x010A423F)], work=29*
  6: 0x0078 [0x53] WAIT_SCHEDULER_TASK: Wait for scheduler "tlk1" with entities [Vailanice (ID: 17449535/0x010A423F), Vailanice (ID: 17449535/0x010A423F)]
  7: 0x0085 [0x00] END_REQSTACK()
```
