# Event 48

## Metadata

| Field           | Value    |
|-----------------|----------|
| Event Index     | 3/7      |
| Offset          | 0x0021   |
| Data Size       | 48 bytes |
| Calculated Size | 48 bytes |
| Instructions    | 12       |

```
      00 01 02 03 04 05 06 07  08 09 0A 0B 0C 0D 0E 0F
      -- -- -- -- -- -- -- --  -- -- -- -- -- -- -- --
0020:    42 1E F0 FF FF 7F 6F  70 66 03 80 F8 FF FF 7F   B.....opf......
0030: F8 FF FF 7F 74 6C 6B 30  1D 04 80 23 1D 05 80 23  ....tlk0...#...#
0040: 66 03 80 F8 FF FF 7F F8  FF FF 7F 74 6C 6B 31 21  f..........tlk1!
0050: 00                                                .               
```

## Opcodes

```
  0: 0x0021 [0x42] SET_CLI_EVENT_CANCEL_DATA()
  1: 0x0022 [0x1E] EventEntity looks at LocalPlayer and starts talking
  2: 0x0027 [0x6F] WAIT_FRAME_DELAY: Yield until WaitTime reaches zero
  3: 0x0028 [0x70] WAIT_ENTITY_RENDER_FLAG: Wait while EventEntity->Render.Flags3 bit 2 is set (cancel turn if not)
  4: 0x0029 [0x66] LOAD_EXT_SCHEDULER_MAIN: Load scheduler "tlk0" with entities [EventEntity, EventEntity], work=40*
  5: 0x0038 [0x1D] PRINT_EVENT_MESSAGE(message_id=8125*)
    → "You've brought me a survey-wurvey about the Twelve Orders? I thought pioneers were supposed be out colonizing the land, not running menial tasks in Adoulin.\u007F1\u0000\u0007"
  6: 0x003B [0x23] WAIT_FOR_DIALOG_INTERACTION
  7: 0x003C [0x1D] PRINT_EVENT_MESSAGE(message_id=8126*)
    → "Everything about Woltaris is correctaru. I suppose that's all you need?\u007F1\u0000\u0007"
  8: 0x003F [0x23] WAIT_FOR_DIALOG_INTERACTION
  9: 0x0040 [0x66] LOAD_EXT_SCHEDULER_MAIN: Load scheduler "tlk1" with entities [EventEntity, EventEntity], work=40*
 10: 0x004F [0x21] END_EVENT
 11: 0x0050 [0x00] END_REQSTACK()
```
