# 17424550

## Common Data

| Field            | Value                            |
|------------------|----------------------------------|
| Zone             | Upper Delkfutt's Tower (ID: 158) |
| Block Size       | 212 bytes                        |
| Total Events     | 2                                |
| References Count | 13                               |

## List of Events

| Event ID              | Entrypoint   |   Size |   Instructions |
|-----------------------|--------------|--------|----------------|
| [65535](#event-65535) | 0x0000       |      1 |              1 |
| [17](#event-17)       | 0x0001       |    132 |             23 |

## DAT References (imed_data)

|   Index | Hex Value   |   Dec Value |
|---------|-------------|-------------|
|       0 | 0x001E      |          30 |
|       1 | 0x001F      |          31 |
|       2 | 0x0001      |           1 |
|       3 | 0x0000      |           0 |
|       4 | 0x008C      |         140 |
|       5 | 0x00C8      |         200 |
|       6 | 0x003C      |          60 |
|       7 | 0xFFFB6C7A  |  4294667386 |
|       8 | 0x4BEC      |       19436 |
|       9 | 0xFFFDCEFB  |  4294823675 |
|      10 | 0x0CD1      |        3281 |
|      11 | 0x0002      |           2 |
|      12 | 0x00AA      |         170 |

## String References

- **30**: You feel a powerful magical force flowing upwards...
- **31**: Let the flow carry you to the tenth floor? [Yes./ No.]

## Events

### Event 65535

#### Metadata

| Field        | Value   |
|--------------|---------|
| Entrypoint   | 0x0000  |
| Data Size    | 1 bytes |
| Instructions | 1       |

```
      00 01 02 03 04 05 06 07  08 09 0A 0B 0C 0D 0E 0F
      -- -- -- -- -- -- -- --  -- -- -- -- -- -- -- --
0000: 00                                                .               
```

#### Opcodes

```
  0: 0x0000 [0x00] END_REQSTACK()
```

### Event 17

#### Metadata

| Field        | Value     |
|--------------|-----------|
| Entrypoint   | 0x0001    |
| Data Size    | 132 bytes |
| Instructions | 23        |

```
      00 01 02 03 04 05 06 07  08 09 0A 0B 0C 0D 0E 0F
      -- -- -- -- -- -- -- --  -- -- -- -- -- -- -- --
0000:    20 01 48 00 80 23 24  01 80 02 80 03 80 25 02    .H..#$......%.
0010: 00 10 03 80 00 78 00 42  43 00 43 01 62 02 80 F0  .....x.BC.C.b...
0020: FF FF 7F F0 FF FF 7F 6D  61 69 6E 03 80 1C 04 80  .......main.....
0030: 45 05 80 F0 FF FF 7F F0  FF FF 7F 66 64 6F 31 03  E..........fdo1.
0040: 80 1C 06 80 47 00 07 80  08 80 09 80 0A 80 47 01  ....G.........G.
0050: 45 05 80 F0 FF FF 7F F0  FF FF 7F 66 64 69 31 03  E..........fdi1.
0060: 80 62 0B 80 F0 FF FF 7F  F0 FF FF 7F 6D 61 69 6E  .b..........main
0070: 03 80 1C 0C 80 01 83 00  02 00 10 02 80 00 83 00  ................
0080: 01 83 00 21 00                                    ...!.           
```

#### Opcodes

```
  0: 0x0001 [0x20] SET_CLI_EVENT_UC_FLAG: Lock player control
  1: 0x0003 [0x48] [System] [30*]:
    → "You feel a powerful magical force flowing upwards..."
  2: 0x0006 [0x23] WAIT_FOR_DIALOG_INTERACTION
  3: 0x0007 [0x24] CREATE_DIALOG(message_id=31*, default_option=1*, option_flags=0*)
    → "Let the flow carry you to the tenth floor? [Yes./ No.]"
  4: 0x000E [0x25] WAIT_DIALOG_SELECT()
  5: 0x000F [0x02] IF !(Work_Zone[0] == 0*) GOTO 0x0078
  6: 0x0017 [0x42] SET_CLI_EVENT_CANCEL_DATA()
  7: 0x0018 [0x43] SEND_EVENT_UPDATE: Send pending tag to server (packet 0x005B)
  8: 0x001A [0x43] SEND_EVENT_UPDATE: Check pending flag (skip if not pending)
  9: 0x001C [0x62] LOAD_EVENT_SCHEDULER: Load scheduler "main" with entities [LocalPlayer, LocalPlayer], work=[1*, 0*]
 10: 0x002D [0x1C] WAIT(140* ticks)
 11: 0x0030 [0x45] LOAD_SCHEDULED_TASK: Load scheduler "fdo1" with entities [LocalPlayer, LocalPlayer], work=[200*, 0*]
 12: 0x0041 [0x1C] WAIT(60* ticks)
 13: 0x0044 [0x47] UPDATE_PLAYER_POS(-299.910*, 19.436*, -143.621*, yaw=288.4°*)
 14: 0x004E [0x47] WAIT_PLAYER_POS_UPDATE
 15: 0x0050 [0x45] LOAD_SCHEDULED_TASK: Load scheduler "fdi1" with entities [LocalPlayer, LocalPlayer], work=[200*, 0*]
 16: 0x0061 [0x62] LOAD_EVENT_SCHEDULER: Load scheduler "main" with entities [LocalPlayer, LocalPlayer], work=[2*, 0*]
 17: 0x0072 [0x1C] WAIT(170* ticks)
 18: 0x0075 [0x01] GOTO 0x0083
 19: 0x0078 [0x02] IF !(Work_Zone[0] == 1*) GOTO 0x0083
 20: 0x0080 [0x01] GOTO 0x0083

SUBROUTINE_0083:
 21: 0x0083 [0x21] END_EVENT
 22: 0x0084 [0x00] END_REQSTACK()
```
