# 17424552

## Common Data

| Field            | Value                            |
|------------------|----------------------------------|
| Zone             | Upper Delkfutt's Tower (ID: 158) |
| Block Size       | 72 bytes                         |
| Total Events     | 3                                |
| References Count | 1                                |

## List of Events

| Event ID              | Entrypoint   |   Size |   Instructions |
|-----------------------|--------------|--------|----------------|
| [65535](#event-65535) | 0x0000       |      1 |              1 |
| [15](#event-15)       | 0x0001       |     18 |              4 |
| [16](#event-16)       | 0x0013       |     18 |              4 |

## DAT References (imed_data)

|   Index | Hex Value   |   Dec Value |
|---------|-------------|-------------|
|       0 | 0x001D      |          29 |

## String References

- **29**: DEBUG:Sound effects??

## Events

### Event 65535

#### Metadata

| Field        | Value   |
|--------------|---------|
| Entrypoint   | 0x0000  |
| Data Size    | 1 bytes |
| Instructions | 1       |

```
      00 01 02 03 04 05 06 07  08 09 0A 0B 0C 0D 0E 0F
      -- -- -- -- -- -- -- --  -- -- -- -- -- -- -- --
0000: 00                                                .               
```

#### Opcodes

```
  0: 0x0000 [0x00] END_REQSTACK()
```

### Event 15

#### Metadata

| Field        | Value    |
|--------------|----------|
| Entrypoint   | 0x0001   |
| Data Size    | 18 bytes |
| Instructions | 4        |

```
      00 01 02 03 04 05 06 07  08 09 0A 0B 0C 0D 0E 0F
      -- -- -- -- -- -- -- --  -- -- -- -- -- -- -- --
0000:    1D 00 80 23 2C F8 FF  FF 7F F8 FF FF 7F 73 65   ...#,........se
0010: 32 32 00                                          22.             
```

#### Opcodes

```
  0: 0x0001 [0x1D] PRINT_EVENT_MESSAGE(message_id=29*)
    → "DEBUG:Sound effects??"
  1: 0x0004 [0x23] WAIT_FOR_DIALOG_INTERACTION
  2: 0x0005 [0x2C] CREATE_SCHEDULER_TASK: Create scheduler "se22" with entities [EventEntity, EventEntity]
  3: 0x0012 [0x00] END_REQSTACK()
```

### Event 16

#### Metadata

| Field        | Value    |
|--------------|----------|
| Entrypoint   | 0x0013   |
| Data Size    | 18 bytes |
| Instructions | 4        |

```
      00 01 02 03 04 05 06 07  08 09 0A 0B 0C 0D 0E 0F
      -- -- -- -- -- -- -- --  -- -- -- -- -- -- -- --
0010:          1D 00 80 23 2C  F8 FF FF 7F F8 FF FF 7F     ...#,........
0020: 73 65 32 33 00                                    se23.           
```

#### Opcodes

```
  0: 0x0013 [0x1D] PRINT_EVENT_MESSAGE(message_id=29*)
    → "DEBUG:Sound effects??"
  1: 0x0016 [0x23] WAIT_FOR_DIALOG_INTERACTION
  2: 0x0017 [0x2C] CREATE_SCHEDULER_TASK: Create scheduler "se23" with entities [EventEntity, EventEntity]
  3: 0x0024 [0x00] END_REQSTACK()
```
