# Event 336

## Metadata

| Field           | Value    |
|-----------------|----------|
| Event Index     | 18/19    |
| Offset          | 0x01C3   |
| Data Size       | 33 bytes |
| Calculated Size | 33 bytes |
| Instructions    | 12       |

```
      00 01 02 03 04 05 06 07  08 09 0A 0B 0C 0D 0E 0F
      -- -- -- -- -- -- -- --  -- -- -- -- -- -- -- --
01C0:          1E F0 FF FF 7F  6F 70 29 08 80 10 0F 01     .....op).....
01D0: 01 1D 14 80 23 1D 15 80  23 29 08 80 10 0F 01 07  ....#...#)......
01E0: 20 00 21 00                                        .!.            
```

## Opcodes

```
  0: 0x01C3 [0x1E] EventEntity looks at LocalPlayer and starts talking
  1: 0x01C8 [0x6F] WAIT_FRAME_DELAY: Yield until WaitTime reaches zero
  2: 0x01C9 [0x70] WAIT_ENTITY_RENDER_FLAG: Wait while EventEntity->Render.Flags3 bit 2 is set (cancel turn if not)
  3: 0x01CA [0x29] REQ_SET_WAIT(priority=0x08, entity_id=Illu Bohjaa (ID: 17764480/0x010F1080), tag_num=0x01)
  4: 0x01D1 [0x1D] PRINT_EVENT_MESSAGE(message_id=8248*)
    → "You saw them towerrrs out thar in Sarutabaruta, huh? Why, they be called the Horutoto Ruins. Once they broke down, the animals of Sarutabaruta starrrted runnin' amuck, y'know?\u007F1\u0000\u0007"
  5: 0x01D4 [0x23] WAIT_FOR_DIALOG_INTERACTION
  6: 0x01D5 [0x1D] PRINT_EVENT_MESSAGE(message_id=8249*)
    → "I ain't got much of a clue what them towers was forrr, but they sure was magical. I wonderrr if they'll e'er be able to fix them up again?\u007F1\u0000\u0007"
  7: 0x01D8 [0x23] WAIT_FOR_DIALOG_INTERACTION
  8: 0x01D9 [0x29] REQ_SET_WAIT(priority=0x08, entity_id=Illu Bohjaa (ID: 17764480/0x010F1080), tag_num=0x07)
  9: 0x01E0 [0x20] SET_CLI_EVENT_UC_FLAG: Unlock player control
 10: 0x01E2 [0x21] END_EVENT
 11: 0x01E3 [0x00] END_REQSTACK()
```
