# Event 65535

## Metadata

| Field           | Value    |
|-----------------|----------|
| Event Index     | 7/7      |
| Offset          | 0x001C   |
| Data Size       | 64 bytes |
| Calculated Size | 64 bytes |
| Instructions    | 10       |

```
      00 01 02 03 04 05 06 07  08 09 0A 0B 0C 0D 0E 0F
      -- -- -- -- -- -- -- --  -- -- -- -- -- -- -- --
0010:                                      22 00 79 00              ".y.
0020: F8 FF FF 7F FF 50 0A 01  37 08 80 09 80 0A 80 0B  .....P..7.......
0030: 80 32 0C 80 1F 00 0D 80  0E 80 0A 80 1F 01 6F 5B  .2............o[
0040: 0F 80 0F 51 0A 01 0F 51  0A 01 73 67 6D 30 53 0F  ...Q...Q..sgm0S.
0050: 51 0A 01 0F 51 0A 01 73  67 6D 30 00              Q...Q..sgm0.    
```

## Opcodes

```
  0: 0x001C [0x22] ENTITY_HIDE_FLAG(enabled=0x00)
  1: 0x001E [0x79] EventEntity looks at Zeid (ID: 17453311/0x010A50FF) (Basic look)
  2: 0x0028 [0x37] UPDATE_EVENT_POSITION_AND_DIR: x=-460.016*, z=-234.141*, y=-167.199*, direction=98.3°*
  3: 0x0031 [0x32] ExtData[1]->MainSpeed = 40* * 0.1
  4: 0x0034 [0x1F] MOVE_ENTITY: EventEntity moves to X=-461.754*, Z=-239.331*, Y=-167.199*
  5: 0x003C [0x1F] MOVE_ENTITY: Update entity position (mode=1)
  6: 0x003E [0x6F] WAIT_FRAME_DELAY: Yield until WaitTime reaches zero
  7: 0x003F [0x5B] LOAD_EXT_SCHEDULER(work_offset=202*, entity1=Volker (ID: 17453327/0x010A510F), entity2=Volker (ID: 17453327/0x010A510F), action="sgm0")
  8: 0x004E [0x53] WAIT_SCHEDULER_TASK(entity1=Volker (ID: 17453327/0x010A510F), entity2=Volker (ID: 17453327/0x010A510F), action_id="sgm0")
  9: 0x005B [0x00] END_REQSTACK()
```
