# Event 65535

## Metadata

| Field           | Value    |
|-----------------|----------|
| Event Index     | 15/18    |
| Offset          | 0x00A8   |
| Data Size       | 64 bytes |
| Calculated Size | 64 bytes |
| Instructions    | 14       |

```
      00 01 02 03 04 05 06 07  08 09 0A 0B 0C 0D 0E 0F
      -- -- -- -- -- -- -- --  -- -- -- -- -- -- -- --
00A0:                          32 10 80 1F 00 11 80 12          2.......
00B0: 80 13 80 1F 01 1F 00 14  80 15 80 16 80 1F 01 1F  ................
00C0: 00 17 80 18 80 19 80 1F  01 1F 00 1A 80 1B 80 1C  ................
00D0: 80 1F 01 1F 00 1D 80 1E  80 1C 80 1F 01 1F 00 1F  ................
00E0: 80 20 80 1C 80 1F 01 00                           . ......        
```

## Opcodes

```
  0: 0x00A8 [0x32] ExtData[1]->MainSpeed = 40* * 0.1
  1: 0x00AB [0x1F] MOVE_ENTITY: EventEntity moves to X=-247.377*, Z=32.271*, Y=-3.398*
  2: 0x00B3 [0x1F] MOVE_ENTITY: Update entity position (mode=1)
  3: 0x00B5 [0x1F] MOVE_ENTITY: EventEntity moves to X=-250.072*, Z=34.149*, Y=-2.800*
  4: 0x00BD [0x1F] MOVE_ENTITY: Update entity position (mode=1)
  5: 0x00BF [0x1F] MOVE_ENTITY: EventEntity moves to X=-252.156*, Z=37.123*, Y=-1.800*
  6: 0x00C7 [0x1F] MOVE_ENTITY: Update entity position (mode=1)
  7: 0x00C9 [0x1F] MOVE_ENTITY: EventEntity moves to X=-252.075*, Z=40.745*, Y=-1.000*
  8: 0x00D1 [0x1F] MOVE_ENTITY: Update entity position (mode=1)
  9: 0x00D3 [0x1F] MOVE_ENTITY: EventEntity moves to X=-251.344*, Z=48.675*, Y=-1.000*
 10: 0x00DB [0x1F] MOVE_ENTITY: Update entity position (mode=1)
 11: 0x00DD [0x1F] MOVE_ENTITY: EventEntity moves to X=-246.747*, Z=55.257*, Y=-1.000*
 12: 0x00E5 [0x1F] MOVE_ENTITY: Update entity position (mode=1)
 13: 0x00E7 [0x00] END_REQSTACK()
```
