# 17580430

## Common Data

| Field            | Value                  |
|------------------|------------------------|
| Zone             | Gusgen Mines (ID: 196) |
| Block Size       | 13232 bytes            |
| Total Events     | 6                      |
| References Count | 213                    |

## List of Events

| Event ID              | Entrypoint   |   Size |   Instructions |
|-----------------------|--------------|--------|----------------|
| [65535](#event-65535) | 0x0000       |    658 |             62 |
| [153](#event-153)     | 0x0292       |   4676 |            569 |
| [154](#event-154)     | 0x14D6       |   3989 |            494 |
| [155](#event-155)     | 0x246B       |    116 |             27 |
| [156](#event-156)     | 0x24DF       |   2813 |            345 |
| [157](#event-157)     | 0x2FDC       |     86 |             19 |

## DAT References (imed_data)

|   Index | Hex Value   |   Dec Value |
|---------|-------------|-------------|
|       0 | 0x00C8      |         200 |
|       1 | 0x0000      |           0 |
|       2 | 0x00C9      |         201 |
|       3 | 0x0001      |           1 |
|       4 | 0x002D      |          45 |
|       5 | 0x0002      |           2 |
|       6 | 0x001E      |          30 |
|       7 | 0x00D7      |         215 |
|       8 | 0x012C      |         300 |
|       9 | 0x0093      |         147 |
|      10 | 0xFFFE189C  |  4294842524 |
|      11 | 0x52A1D     |      338461 |
|      12 | 0x06ED      |        1773 |
|      13 | 0x0F3C      |        3900 |
|      14 | 0xFFFE3202  |  4294849026 |
|      15 | 0x50DDA     |      331226 |
|      16 | 0x0574      |        1396 |
|      17 | 0x0B04      |        2820 |
|      18 | 0xFFFE0734  |  4294838068 |
|      19 | 0x5256A     |      337258 |
|      20 | 0x09F9      |        2553 |
|      21 | 0xFFFE285C  |  4294846556 |
|      22 | 0x53027     |      340007 |
|      23 | 0x06D5      |        1749 |
|      24 | 0x06CE      |        1742 |
|      25 | 0x0020      |          32 |
|      26 | 0x007F      |         127 |
|      27 | 0x0003      |           3 |
|      28 | 0x0384      |         900 |
|      29 | 0x0004      |           4 |
|      30 | 0x0005      |           5 |
|      31 | 0x0006      |           6 |
|      32 | 0x0008      |           8 |
|      33 | 0x2CFB      |       11515 |
|      34 | 0x2CFC      |       11516 |
|      35 | 0x0078      |         120 |
|      36 | 0x2CFD      |       11517 |
|      37 | 0x2CFE      |       11518 |
|      38 | 0x2CFF      |       11519 |
|      39 | 0x0080      |         128 |
|      40 | 0x2D00      |       11520 |
|      41 | 0x005A      |          90 |
|      42 | 0x2D01      |       11521 |
|      43 | 0x2D02      |       11522 |
|      44 | 0x003C      |          60 |
|      45 | 0x2D03      |       11523 |
|      46 | 0x2D04      |       11524 |
|      47 | 0x2D05      |       11525 |
|      48 | 0x2D06      |       11526 |
|      49 | 0x2D07      |       11527 |
|      50 | 0x00B4      |         180 |
|      51 | 0xFFFE20AE  |  4294844590 |
|      52 | 0x52BEC     |      338924 |
|      53 | 0x06DD      |        1757 |
|      54 | 0x0F79      |        3961 |
|      55 | 0x2CF9      |       11513 |
|      56 | 0x001C      |          28 |
|      57 | 0x2D08      |       11528 |
|      58 | 0x2D09      |       11529 |
|      59 | 0x2D0A      |       11530 |
|      60 | 0x2D0B      |       11531 |
|      61 | 0x2D0C      |       11532 |
|      62 | 0x2D0D      |       11533 |
|      63 | 0x2D0E      |       11534 |
|      64 | 0x2D0F      |       11535 |
|      65 | 0x2D10      |       11536 |
|      66 | 0x2D11      |       11537 |
|      67 | 0x2D12      |       11538 |
|      68 | 0x2D13      |       11539 |
|      69 | 0x2D14      |       11540 |
|      70 | 0x0007      |           7 |
|      71 | 0x2D15      |       11541 |
|      72 | 0x2D16      |       11542 |
|      73 | 0x2D17      |       11543 |
|      74 | 0x2D18      |       11544 |
|      75 | 0x2D19      |       11545 |
|      76 | 0x2D1A      |       11546 |
|      77 | 0x2D1B      |       11547 |
|      78 | 0x2D1C      |       11548 |
|      79 | 0x2D1D      |       11549 |
|      80 | 0x2D1E      |       11550 |
|      81 | 0x2D1F      |       11551 |
|      82 | 0x2D20      |       11552 |
|      83 | 0xFFFE26C7  |  4294846151 |
|      84 | 0x4F04A     |      323658 |
|      85 | 0x04B0      |        1200 |
|      86 | 0x0C86      |        3206 |
|      87 | 0xFFFE2A10  |  4294846992 |
|      88 | 0x4F92B     |      325931 |
|      89 | 0x04E1      |        1249 |
|      90 | 0x0478      |        1144 |
|      91 | 0x2D21      |       11553 |
|      92 | 0x26D0      |        9936 |
|      93 | 0x2D22      |       11554 |
|      94 | 0x2D23      |       11555 |
|      95 | 0x2D24      |       11556 |
|      96 | 0x2D25      |       11557 |
|      97 | 0x0168      |         360 |
|      98 | 0x000F      |          15 |
|      99 | 0xFFFE2972  |  4294846834 |
|     100 | 0x5276F     |      337775 |
|     101 | 0x06B2      |        1714 |
|     102 | 0x082B      |        2091 |
|     103 | 0x0385      |         901 |
|     104 | 0x2D28      |       11560 |
|     105 | 0x2D29      |       11561 |
|     106 | 0x0096      |         150 |
|     107 | 0x2D2A      |       11562 |
|     108 | 0x2D2B      |       11563 |
|     109 | 0x2D2C      |       11564 |
|     110 | 0x2D2D      |       11565 |
|     111 | 0x2D2E      |       11566 |
|     112 | 0x2D2F      |       11567 |
|     113 | 0x2D30      |       11568 |
|     114 | 0x2D31      |       11569 |
|     115 | 0x2D32      |       11570 |
|     116 | 0x2D33      |       11571 |
|     117 | 0x2D34      |       11572 |
|     118 | 0x2D35      |       11573 |
|     119 | 0x2D36      |       11574 |
|     120 | 0x000A      |          10 |
|     121 | 0x00F0      |         240 |
|     122 | 0xFFFE2724  |  4294846244 |
|     123 | 0x3AE59     |      241241 |
|     124 | 0x03E8      |        1000 |
|     125 | 0x024A      |         586 |
|     126 | 0xFFFE1BAD  |  4294843309 |
|     127 | 0x3BD3A     |      245050 |
|     128 | 0x048B      |        1163 |
|     129 | 0x01A5      |         421 |
|     130 | 0xFFFE17E6  |  4294842342 |
|     131 | 0x3BA13     |      244243 |
|     132 | 0x048F      |        1167 |
|     133 | 0x01F6      |         502 |
|     134 | 0x2D37      |       11575 |
|     135 | 0x2D38      |       11576 |
|     136 | 0x2D39      |       11577 |
|     137 | 0x2D3A      |       11578 |
|     138 | 0x2D3B      |       11579 |
|     139 | 0x2D3C      |       11580 |
|     140 | 0x2D3D      |       11581 |
|     141 | 0x2D3E      |       11582 |
|     142 | 0x2D3F      |       11583 |
|     143 | 0x2D40      |       11584 |
|     144 | 0x2D41      |       11585 |
|     145 | 0x2D42      |       11586 |
|     146 | 0x2D43      |       11587 |
|     147 | 0x2D44      |       11588 |
|     148 | 0x2D45      |       11589 |
|     149 | 0x2D46      |       11590 |
|     150 | 0x2D47      |       11591 |
|     151 | 0x2D48      |       11592 |
|     152 | 0x2D49      |       11593 |
|     153 | 0x2D4A      |       11594 |
|     154 | 0x2D4B      |       11595 |
|     155 | 0x2D4C      |       11596 |
|     156 | 0x2D4D      |       11597 |
|     157 | 0x2D4E      |       11598 |
|     158 | 0x2D4F      |       11599 |
|     159 | 0x2D50      |       11600 |
|     160 | 0x2D51      |       11601 |
|     161 | 0x2D52      |       11602 |
|     162 | 0x2D53      |       11603 |
|     163 | 0x0240      |         576 |
|     164 | 0x2D26      |       11558 |
|     165 | 0x2D27      |       11559 |
|     166 | 0x0244      |         580 |
|     167 | 0x2D54      |       11604 |
|     168 | 0x2D55      |       11605 |
|     169 | 0x0246      |         582 |
|     170 | 0x2D56      |       11606 |
|     171 | 0x2D57      |       11607 |
|     172 | 0x2CFA      |       11514 |
|     173 | 0x038E      |         910 |
|     174 | 0x2D58      |       11608 |
|     175 | 0x2D59      |       11609 |
|     176 | 0x2D5A      |       11610 |
|     177 | 0x2D5B      |       11611 |
|     178 | 0x00F8      |         248 |
|     179 | 0x2D5C      |       11612 |
|     180 | 0x2D5D      |       11613 |
|     181 | 0x2D5E      |       11614 |
|     182 | 0x2D5F      |       11615 |
|     183 | 0x2D60      |       11616 |
|     184 | 0x2D61      |       11617 |
|     185 | 0x2D62      |       11618 |
|     186 | 0x2D63      |       11619 |
|     187 | 0x2D64      |       11620 |
|     188 | 0x2D65      |       11621 |
|     189 | 0x2D66      |       11622 |
|     190 | 0x2D67      |       11623 |
|     191 | 0x2D68      |       11624 |
|     192 | 0x2D69      |       11625 |
|     193 | 0x2D6A      |       11626 |
|     194 | 0x2D6B      |       11627 |
|     195 | 0x2D6C      |       11628 |
|     196 | 0x2D6D      |       11629 |
|     197 | 0x2D6E      |       11630 |
|     198 | 0x2D6F      |       11631 |
|     199 | 0x2D70      |       11632 |
|     200 | 0x2D71      |       11633 |
|     201 | 0x2D72      |       11634 |
|     202 | 0x2D73      |       11635 |
|     203 | 0x2D74      |       11636 |
|     204 | 0x2D75      |       11637 |
|     205 | 0x2D76      |       11638 |
|     206 | 0x2D77      |       11639 |
|     207 | 0x2D78      |       11640 |
|     208 | 0x2D79      |       11641 |
|     209 | 0x2D7A      |       11642 |
|     210 | 0x2D7B      |       11643 |
|     211 | 0x2D7C      |       11644 |
|     212 | 0x2D7D      |       11645 |

## String References

- **11513**: @@
- **11516**: How do you respond? [I'm <Player>!/I'm a friend of Dazbog's./I'm a friend of Magh Bihu's.]
- **11540**: Did you bring tribute? [Yes, it's right here./Sorry, not this time.]

## Events

### Event 65535

#### Metadata

| Field        | Value     |
|--------------|-----------|
| Entrypoint   | 0x0000    |
| Data Size    | 658 bytes |
| Instructions | 1         |

```
      00 01 02 03 04 05 06 07  08 09 0A 0B 0C 0D 0E 0F
      -- -- -- -- -- -- -- --  -- -- -- -- -- -- -- --
0000: 00 45 00 80 F0 FF FF 7F  F0 FF FF 7F 66 64 69 30  .E..........fdi0
0010: 01 80 55 00 80 F0 FF FF  7F F0 FF FF 7F 66 64 69  ..U..........fdi
0020: 30 1B 45 00 80 F0 FF FF  7F F0 FF FF 7F 66 64 6F  0.E..........fdo
0030: 30 01 80 55 00 80 F0 FF  FF 7F F0 FF FF 7F 66 64  0..U..........fd
0040: 6F 30 1B 45 00 80 F0 FF  FF 7F F0 FF FF 7F 66 64  o0.E..........fd
0050: 69 31 01 80 55 00 80 F0  FF FF 7F F0 FF FF 7F 66  i1..U..........f
0060: 64 69 31 1B 45 00 80 F0  FF FF 7F F0 FF FF 7F 66  di1.E..........f
0070: 64 6F 31 01 80 55 00 80  F0 FF FF 7F F0 FF FF 7F  do1..U..........
0080: 66 64 6F 31 1B 45 02 80  F0 FF FF 7F F0 FF FF 7F  fdo1.E..........
0090: 77 68 69 31 01 80 55 02  80 F0 FF FF 7F F0 FF FF  whi1..U.........
00A0: 7F 77 68 69 31 1B 45 02  80 F0 FF FF 7F F0 FF FF  .whi1.E.........
00B0: 7F 77 68 6F 31 01 80 55  02 80 F0 FF FF 7F F0 FF  .who1..U........
00C0: FF 7F 77 68 6F 31 1B 45  02 80 F0 FF FF 7F F0 FF  ..who1.E........
00D0: FF 7F 77 68 6F 32 01 80  55 02 80 F0 FF FF 7F F0  ..who2..U.......
00E0: FF FF 7F 77 68 6F 32 1B  45 02 80 F0 FF FF 7F F0  ...who2.E.......
00F0: FF FF 7F 77 68 6F 33 01  80 55 02 80 F0 FF FF 7F  ...who3..U......
0100: F0 FF FF 7F 77 68 6F 33  1B 62 03 80 F0 FF FF 7F  ....who3.b......
0110: F0 FF FF 7F 6D 61 69 6E  01 80 1C 04 80 45 00 80  ....main.....E..
0120: F0 FF FF 7F F0 FF FF 7F  66 64 6F 31 01 80 55 00  ........fdo1..U.
0130: 80 F0 FF FF 7F F0 FF FF  7F 66 64 6F 31 1B 45 00  .........fdo1.E.
0140: 80 F0 FF FF 7F F0 FF FF  7F 66 64 69 31 01 80 62  .........fdi1..b
0150: 05 80 F0 FF FF 7F F0 FF  FF 7F 6D 61 69 6E 01 80  ..........main..
0160: 1C 06 80 55 00 80 F0 FF  FF 7F F0 FF FF 7F 66 64  ...U..........fd
0170: 69 31 1B 45 00 80 F0 FF  FF 7F F0 FF FF 7F 62 6C  i1.E..........bl
0180: 6F 6E 01 80 45 02 80 F0  FF FF 7F F0 FF FF 7F 62  on..E..........b
0190: 6C 6F 6E 01 80 1B 45 02  80 F0 FF FF 7F F0 FF FF  lon...E.........
01A0: 7F 77 68 69 30 01 80 55  02 80 F0 FF FF 7F F0 FF  .whi0..U........
01B0: FF 7F 77 68 69 30 1B 45  02 80 F0 FF FF 7F F0 FF  ..whi0.E........
01C0: FF 7F 77 68 6F 30 01 80  55 02 80 F0 FF FF 7F F0  ..who0..U.......
01D0: FF FF 7F 77 68 6F 30 1B  45 07 80 F0 FF FF 7F F0  ...who0.E.......
01E0: FF FF 7F 65 66 6F 6E 01  80 55 07 80 F0 FF FF 7F  ...efon..U......
01F0: F0 FF FF 7F 65 66 6F 6E  1B 45 00 80 F0 FF FF 7F  ....efon.E......
0200: F0 FF FF 7F 66 64 69 73  01 80 1B 45 00 80 F0 FF  ....fdis...E....
0210: FF 7F F0 FF FF 7F 66 64  6F 73 01 80 55 00 80 F0  ......fdos..U...
0220: FF FF 7F F0 FF FF 7F 66  64 6F 73 1B 45 00 80 F0  .......fdos.E...
0230: FF FF 7F F0 FF FF 7F 66  64 69 66 01 80 1B 45 00  .......fdif...E.
0240: 80 F0 FF FF 7F F0 FF FF  7F 66 64 6F 66 01 80 55  .........fdof..U
0250: 00 80 F0 FF FF 7F F0 FF  FF 7F 66 64 6F 66 1B 45  ..........fdof.E
0260: 00 80 F0 FF FF 7F F0 FF  FF 7F 66 64 69 70 01 80  ..........fdip..
0270: 1B 45 00 80 F0 FF FF 7F  F0 FF FF 7F 66 64 6F 70  .E..........fdop
0280: 01 80 55 00 80 F0 FF FF  7F F0 FF FF 7F 66 64 6F  ..U..........fdo
0290: 70 1B                                             p.              
```

#### Opcodes

```
  0: 0x0000 [0x00] END_REQSTACK()
```

#### Data or dead code:

```
# Dead code (unreachable instructions):
     0x0001 [0x45] LOAD_SCHEDULED_TASK: Load scheduler "fdi0" with entities [LocalPlayer, LocalPlayer], work=[200*, 0*]
     0x0012 [0x55] WAIT_LOAD_SCHEDULER: Wait for scheduler "fdi0" with entities [LocalPlayer, LocalPlayer], work=200*
     0x0021 [0x1B] RETURN
     0x0022 [0x45] LOAD_SCHEDULED_TASK: Load scheduler "fdo0" with entities [LocalPlayer, LocalPlayer], work=[200*, 0*]
     0x0033 [0x55] WAIT_LOAD_SCHEDULER: Wait for scheduler "fdo0" with entities [LocalPlayer, LocalPlayer], work=200*
     0x0042 [0x1B] RETURN
     0x0043 [0x45] LOAD_SCHEDULED_TASK: Load scheduler "fdi1" with entities [LocalPlayer, LocalPlayer], work=[200*, 0*]
     0x0054 [0x55] WAIT_LOAD_SCHEDULER: Wait for scheduler "fdi1" with entities [LocalPlayer, LocalPlayer], work=200*
     0x0063 [0x1B] RETURN
     0x0064 [0x45] LOAD_SCHEDULED_TASK: Load scheduler "fdo1" with entities [LocalPlayer, LocalPlayer], work=[200*, 0*]
     0x0075 [0x55] WAIT_LOAD_SCHEDULER: Wait for scheduler "fdo1" with entities [LocalPlayer, LocalPlayer], work=200*
     0x0084 [0x1B] RETURN
     0x0085 [0x45] LOAD_SCHEDULED_TASK: Load scheduler "whi1" with entities [LocalPlayer, LocalPlayer], work=[201*, 0*]
     0x0096 [0x55] WAIT_LOAD_SCHEDULER: Wait for scheduler "whi1" with entities [LocalPlayer, LocalPlayer], work=201*
     0x00A5 [0x1B] RETURN
     0x00A6 [0x45] LOAD_SCHEDULED_TASK: Load scheduler "who1" with entities [LocalPlayer, LocalPlayer], work=[201*, 0*]
     0x00B7 [0x55] WAIT_LOAD_SCHEDULER: Wait for scheduler "who1" with entities [LocalPlayer, LocalPlayer], work=201*
     0x00C6 [0x1B] RETURN
     0x00C7 [0x45] LOAD_SCHEDULED_TASK: Load scheduler "who2" with entities [LocalPlayer, LocalPlayer], work=[201*, 0*]
     0x00D8 [0x55] WAIT_LOAD_SCHEDULER: Wait for scheduler "who2" with entities [LocalPlayer, LocalPlayer], work=201*
     0x00E7 [0x1B] RETURN
     0x00E8 [0x45] LOAD_SCHEDULED_TASK: Load scheduler "who3" with entities [LocalPlayer, LocalPlayer], work=[201*, 0*]
     0x00F9 [0x55] WAIT_LOAD_SCHEDULER: Wait for scheduler "who3" with entities [LocalPlayer, LocalPlayer], work=201*
     0x0108 [0x1B] RETURN
     0x0109 [0x62] LOAD_EVENT_SCHEDULER: Load scheduler "main" with entities [LocalPlayer, LocalPlayer], work=[1*, 0*]
     0x011A [0x1C] WAIT(45* ticks)
     0x011D [0x45] LOAD_SCHEDULED_TASK: Load scheduler "fdo1" with entities [LocalPlayer, LocalPlayer], work=[200*, 0*]
     0x012E [0x55] WAIT_LOAD_SCHEDULER: Wait for scheduler "fdo1" with entities [LocalPlayer, LocalPlayer], work=200*
     0x013D [0x1B] RETURN
     0x013E [0x45] LOAD_SCHEDULED_TASK: Load scheduler "fdi1" with entities [LocalPlayer, LocalPlayer], work=[200*, 0*]
     0x014F [0x62] LOAD_EVENT_SCHEDULER: Load scheduler "main" with entities [LocalPlayer, LocalPlayer], work=[2*, 0*]
     0x0160 [0x1C] WAIT(30* ticks)
     0x0163 [0x55] WAIT_LOAD_SCHEDULER: Wait for scheduler "fdi1" with entities [LocalPlayer, LocalPlayer], work=200*
     0x0172 [0x1B] RETURN
     0x0173 [0x45] LOAD_SCHEDULED_TASK: Load scheduler "blon" with entities [LocalPlayer, LocalPlayer], work=[200*, 0*]
     0x0184 [0x45] LOAD_SCHEDULED_TASK: Load scheduler "blon" with entities [LocalPlayer, LocalPlayer], work=[201*, 0*]
     0x0195 [0x1B] RETURN
     0x0196 [0x45] LOAD_SCHEDULED_TASK: Load scheduler "whi0" with entities [LocalPlayer, LocalPlayer], work=[201*, 0*]
     0x01A7 [0x55] WAIT_LOAD_SCHEDULER: Wait for scheduler "whi0" with entities [LocalPlayer, LocalPlayer], work=201*
     0x01B6 [0x1B] RETURN
     0x01B7 [0x45] LOAD_SCHEDULED_TASK: Load scheduler "who0" with entities [LocalPlayer, LocalPlayer], work=[201*, 0*]
     0x01C8 [0x55] WAIT_LOAD_SCHEDULER: Wait for scheduler "who0" with entities [LocalPlayer, LocalPlayer], work=201*
     0x01D7 [0x1B] RETURN
     0x01D8 [0x45] LOAD_SCHEDULED_TASK: Load scheduler "efon" with entities [LocalPlayer, LocalPlayer], work=[215*, 0*]
     0x01E9 [0x55] WAIT_LOAD_SCHEDULER: Wait for scheduler "efon" with entities [LocalPlayer, LocalPlayer], work=215*
     0x01F8 [0x1B] RETURN
     0x01F9 [0x45] LOAD_SCHEDULED_TASK: Load scheduler "fdis" with entities [LocalPlayer, LocalPlayer], work=[200*, 0*]
     0x020A [0x1B] RETURN
     0x020B [0x45] LOAD_SCHEDULED_TASK: Load scheduler "fdos" with entities [LocalPlayer, LocalPlayer], work=[200*, 0*]
     0x021C [0x55] WAIT_LOAD_SCHEDULER: Wait for scheduler "fdos" with entities [LocalPlayer, LocalPlayer], work=200*
     0x022B [0x1B] RETURN
     0x022C [0x45] LOAD_SCHEDULED_TASK: Load scheduler "fdif" with entities [LocalPlayer, LocalPlayer], work=[200*, 0*]
     0x023D [0x1B] RETURN
     0x023E [0x45] LOAD_SCHEDULED_TASK: Load scheduler "fdof" with entities [LocalPlayer, LocalPlayer], work=[200*, 0*]
     0x024F [0x55] WAIT_LOAD_SCHEDULER: Wait for scheduler "fdof" with entities [LocalPlayer, LocalPlayer], work=200*
     0x025E [0x1B] RETURN
     0x025F [0x45] LOAD_SCHEDULED_TASK: Load scheduler "fdip" with entities [LocalPlayer, LocalPlayer], work=[200*, 0*]
     0x0270 [0x1B] RETURN
     0x0271 [0x45] LOAD_SCHEDULED_TASK: Load scheduler "fdop" with entities [LocalPlayer, LocalPlayer], work=[200*, 0*]
     0x0282 [0x55] WAIT_LOAD_SCHEDULER: Wait for scheduler "fdop" with entities [LocalPlayer, LocalPlayer], work=200*
     0x0291 [0x1B] RETURN
```

### Event 153

#### Metadata

| Field        | Value      |
|--------------|------------|
| Entrypoint   | 0x0292     |
| Data Size    | 4676 bytes |
| Instructions | 569        |

```
      00 01 02 03 04 05 06 07  08 09 0A 0B 0C 0D 0E 0F
      -- -- -- -- -- -- -- --  -- -- -- -- -- -- -- --
0290:       42 5D 01 80 08 80  1A 64 00 46 01 38 09 80    B].....d.F.8..
02A0: 2F 00 90 41 0C 01 2F 00  91 41 0C 01 4E 00 90 41  /..A../..A..N..A
02B0: 0C 01 4E 00 91 41 0C 01  92 01 8F 41 0C 01 94 01  ..N..A.....A....
02C0: 8F 41 0C 01 94 01 90 41  0C 01 94 01 91 41 0C 01  .A.....A.....A..
02D0: 94 01 F0 FF FF 7F BA 8F  41 0C 01 0A 80 0B 80 0C  ........A.......
02E0: 80 0D 80 BA 90 41 0C 01  0E 80 0F 80 10 80 11 80  .....A..........
02F0: BA 91 41 0C 01 12 80 13  80 14 80 0D 80 BA F0 FF  ..A.............
0300: FF 7F 15 80 16 80 17 80  18 80 80 8F 41 0C 01 80  ............A...
0310: 90 41 0C 01 80 91 41 0C  01 80 F0 FF FF 7F 6C 90  .A....A.......l.
0320: 41 0C 01 01 80 03 80 6C  91 41 0C 01 01 80 03 80  A......l.A......
0330: 4A F0 FF FF 7F 8F 41 0C  01 4A 8F 41 0C 01 F0 FF  J.....A..J.A....
0340: FF 7F 6F 76 F0 FF FF 7F  6F 76 8F 41 0C 01 5C 00  ..ov....ov.A..\.
0350: 19 80 5C 01 19 80 9A 5D  1A 80 03 80 02 87 7F 1B  ..\....]........
0360: 80 80 78 03 45 1C 80 F8  FF FF 7F F8 FF FF 7F 73  ..x.E..........s
0370: 67 30 30 01 80 01 F9 03  02 87 7F 1D 80 80 94 03  g00.............
0380: 45 1C 80 F8 FF FF 7F F8  FF FF 7F 73 67 30 30 01  E..........sg00.
0390: 80 01 F9 03 02 87 7F 1E  80 80 B0 03 45 1C 80 F8  ............E...
03A0: FF FF 7F F8 FF FF 7F 73  74 30 30 01 80 01 F9 03  .......st00.....
03B0: 02 87 7F 1F 80 80 CC 03  45 1C 80 F8 FF FF 7F F8  ........E.......
03C0: FF FF 7F 73 74 30 30 01  80 01 F9 03 02 87 7F 20  ...st00........ 
03D0: 80 80 E8 03 45 1C 80 F8  FF FF 7F F8 FF FF 7F 73  ....E..........s
03E0: 67 30 30 01 80 01 F9 03  45 1C 80 F8 FF FF 7F F8  g00.....E.......
03F0: FF FF 7F 73 30 30 30 01  80 1A 43 00 45 1C 80 F8  ...s000...C.E...
0400: FF FF 7F F8 FF FF 7F 31  30 30 32 01 80 2B 8F 41  .......1002..+.A
0410: 0C 01 21 80 23 24 22 80  01 80 01 80 25 02 00 10  ..!.#$".....%...
0420: 01 80 00 F7 04 27 10 F0  FF FF 7F 05 1C 23 80 27  .....'.......#.'
0430: 10 F0 FF FF 7F 06 1C 06  80 02 87 7F 1B 80 80 53  ...............S
0440: 04 52 1C 80 F8 FF FF 7F  F8 FF FF 7F 73 67 30 30  .R..........sg00
0450: 01 CA 04 02 87 7F 1D 80  80 6D 04 52 1C 80 F8 FF  .........m.R....
0460: FF 7F F8 FF FF 7F 73 67  30 30 01 CA 04 02 87 7F  ......sg00......
0470: 1E 80 80 87 04 52 1C 80  F8 FF FF 7F F8 FF FF 7F  .....R..........
0480: 73 74 30 30 01 CA 04 02  87 7F 1F 80 80 A1 04 52  st00...........R
0490: 1C 80 F8 FF FF 7F F8 FF  FF 7F 73 74 30 30 01 CA  ..........st00..
04A0: 04 02 87 7F 20 80 80 BB  04 52 1C 80 F8 FF FF 7F  .... ....R......
04B0: F8 FF FF 7F 73 67 30 30  01 CA 04 52 1C 80 F8 FF  ....sg00...R....
04C0: FF 7F F8 FF FF 7F 73 30  30 30 45 1C 80 F8 FF FF  ......s000E.....
04D0: 7F F8 FF FF 7F 73 30 30  31 01 80 45 1C 80 F8 FF  .....s001..E....
04E0: FF 7F F8 FF FF 7F 31 30  30 31 01 80 2B 8F 41 0C  ......1001..+.A.
04F0: 01 24 80 23 01 AB 06 02  00 10 03 80 00 D1 05 27  .$.#...........'
0500: 10 F0 FF FF 7F 05 1C 23  80 27 10 F0 FF FF 7F 06  .......#.'......
0510: 1C 06 80 02 87 7F 1B 80  80 2D 05 52 1C 80 F8 FF  .........-.R....
0520: FF 7F F8 FF FF 7F 73 67  30 30 01 A4 05 02 87 7F  ......sg00......
0530: 1D 80 80 47 05 52 1C 80  F8 FF FF 7F F8 FF FF 7F  ...G.R..........
0540: 73 67 30 30 01 A4 05 02  87 7F 1E 80 80 61 05 52  sg00.........a.R
0550: 1C 80 F8 FF FF 7F F8 FF  FF 7F 73 74 30 30 01 A4  ..........st00..
0560: 05 02 87 7F 1F 80 80 7B  05 52 1C 80 F8 FF FF 7F  .......{.R......
0570: F8 FF FF 7F 73 74 30 30  01 A4 05 02 87 7F 20 80  ....st00...... .
0580: 80 95 05 52 1C 80 F8 FF  FF 7F F8 FF FF 7F 73 67  ...R..........sg
0590: 30 30 01 A4 05 52 1C 80  F8 FF FF 7F F8 FF FF 7F  00...R..........
05A0: 73 30 30 30 45 1C 80 F8  FF FF 7F F8 FF FF 7F 73  s000E..........s
05B0: 30 30 31 01 80 45 1C 80  F8 FF FF 7F F8 FF FF 7F  001..E..........
05C0: 31 30 30 31 01 80 2B 8F  41 0C 01 25 80 23 01 AB  1001..+.A..%.#..
05D0: 06 02 00 10 05 80 00 AB  06 27 10 F0 FF FF 7F 05  .........'......
05E0: 1C 23 80 27 10 F0 FF FF  7F 06 1C 06 80 02 87 7F  .#.'............
05F0: 1B 80 80 07 06 52 1C 80  F8 FF FF 7F F8 FF FF 7F  .....R..........
0600: 73 67 30 30 01 7E 06 02  87 7F 1D 80 80 21 06 52  sg00.~.......!.R
0610: 1C 80 F8 FF FF 7F F8 FF  FF 7F 73 67 30 30 01 7E  ..........sg00.~
0620: 06 02 87 7F 1E 80 80 3B  06 52 1C 80 F8 FF FF 7F  .......;.R......
0630: F8 FF FF 7F 73 74 30 30  01 7E 06 02 87 7F 1F 80  ....st00.~......
0640: 80 55 06 52 1C 80 F8 FF  FF 7F F8 FF FF 7F 73 74  .U.R..........st
0650: 30 30 01 7E 06 02 87 7F  20 80 80 6F 06 52 1C 80  00.~.... ..o.R..
0660: F8 FF FF 7F F8 FF FF 7F  73 67 30 30 01 7E 06 52  ........sg00.~.R
0670: 1C 80 F8 FF FF 7F F8 FF  FF 7F 73 30 30 30 45 1C  ..........s000E.
0680: 80 F8 FF FF 7F F8 FF FF  7F 73 30 30 31 01 80 45  .........s001..E
0690: 1C 80 F8 FF FF 7F F8 FF  FF 7F 31 30 30 31 01 80  ..........1001..
06A0: 2B 8F 41 0C 01 26 80 23  01 AB 06 6C 90 41 0C 01  +.A..&.#...l.A..
06B0: 27 80 03 80 27 10 90 41  0C 01 15 1C 1E 80 52 1C  '...'..A......R.
06C0: 80 F8 FF FF 7F F8 FF FF  7F 73 30 30 31 45 1C 80  .........s001E..
06D0: F8 FF FF 7F F8 FF FF 7F  73 30 30 32 01 80 1C 06  ........s002....
06E0: 80 2B 90 41 0C 01 28 80  1C 29 80 4A F0 FF FF 7F  .+.A..(..).J....
06F0: 90 41 0C 01 4A 8F 41 0C  01 90 41 0C 01 2A 10 90  .A..J.A...A..*..
0700: 41 0C 01 4A 90 41 0C 01  F0 FF FF 7F 4A 8F 41 0C  A..J.A......J.A.
0710: 01 90 41 0C 01 23 52 1C  80 F8 FF FF 7F F8 FF FF  ..A..#R.........
0720: 7F 73 30 30 32 45 1C 80  F8 FF FF 7F F8 FF FF 7F  .s002E..........
0730: 73 30 30 33 01 80 27 10  90 41 0C 01 0F 45 1C 80  s003..'..A...E..
0740: F8 FF FF 7F F8 FF FF 7F  30 30 31 31 01 80 2B 90  ........0011..+.
0750: 41 0C 01 2A 80 23 29 10  90 41 0C 01 10 52 1C 80  A..*.#)..A...R..
0760: F8 FF FF 7F F8 FF FF 7F  73 30 30 33 45 1C 80 F8  ........s003E...
0770: FF FF 7F F8 FF FF 7F 73  30 30 34 01 80 45 1C 80  .......s004..E..
0780: F8 FF FF 7F F8 FF FF 7F  31 30 30 32 01 80 2B 8F  ........1002..+.
0790: 41 0C 01 2B 80 1C 2C 80  4A 90 41 0C 01 8F 41 0C  A..+..,.J.A...A.
07A0: 01 6F 76 90 41 0C 01 1C  06 80 4A F0 FF FF 7F 8F  .ov.A.....J.....
07B0: 41 0C 01 23 52 1C 80 F8  FF FF 7F F8 FF FF 7F 73  A..#R..........s
07C0: 30 30 34 45 1C 80 F8 FF  FF 7F F8 FF FF 7F 73 30  004E..........s0
07D0: 30 35 01 80 27 10 90 41  0C 01 05 2B 90 41 0C 01  05..'..A...+.A..
07E0: 2D 80 1C 06 80 45 1C 80  F8 FF FF 7F F8 FF FF 7F  -....E..........
07F0: 30 30 30 35 01 80 29 10  90 41 0C 01 06 23 27 10  0005..)..A...#'.
0800: 90 41 0C 01 07 2B 90 41  0C 01 2E 80 23 29 10 90  .A...+.A....#)..
0810: 41 0C 01 08 52 1C 80 F8  FF FF 7F F8 FF FF 7F 73  A...R..........s
0820: 30 30 35 45 1C 80 F8 FF  FF 7F F8 FF FF 7F 73 30  005E..........s0
0830: 30 36 01 80 27 10 90 41  0C 01 01 2B 90 41 0C 01  06..'..A...+.A..
0840: 2F 80 1C 2C 80 45 1C 80  F8 FF FF 7F F8 FF FF 7F  /..,.E..........
0850: 30 30 30 37 01 80 29 10  90 41 0C 01 02 23 27 10  0007..)..A...#'.
0860: 90 41 0C 01 03 52 1C 80  F8 FF FF 7F F8 FF FF 7F  .A...R..........
0870: 73 30 30 36 45 1C 80 F8  FF FF 7F F8 FF FF 7F 73  s006E..........s
0880: 30 30 37 01 80 45 1C 80  F8 FF FF 7F F8 FF FF 7F  007..E..........
0890: 31 30 30 31 01 80 2B 8F  41 0C 01 30 80 23 2B 8F  1001..+.A..0.#+.
08A0: 41 0C 01 31 80 23 52 1C  80 F8 FF FF 7F F8 FF FF  A..1.#R.........
08B0: 7F 73 30 30 37 45 1C 80  F8 FF FF 7F F8 FF FF 7F  .s007E..........
08C0: 73 30 30 38 01 80 27 10  8F 41 0C 01 04 1C 32 80  s008..'..A....2.
08D0: 5D 01 80 08 80 1A 64 00  7A 00 8F 41 0C 01 BA 8F  ].....d.z..A....
08E0: 41 0C 01 33 80 34 80 35  80 36 80 6C 91 41 0C 01  A..3.4.5.6.l.A..
08F0: 27 80 03 80 4A 90 41 0C  01 91 41 0C 01 4A F0 FF  '...J.A...A..J..
0900: FF 7F 91 41 0C 01 1C 23  80 48 37 80 1C 2C 80 5C  ...A...#.H7..,.\
0910: 00 38 80 5C 01 38 80 9A  5D 1A 80 03 80 52 1C 80  .8.\.8..]....R..
0920: F8 FF FF 7F F8 FF FF 7F  73 30 30 38 45 1C 80 F8  ........s008E...
0930: FF FF 7F F8 FF FF 7F 73  30 30 39 01 80 1A 43 00  .......s009...C.
0940: 45 1C 80 F8 FF FF 7F F8  FF FF 7F 31 30 30 35 01  E..........1005.
0950: 80 2B 91 41 0C 01 39 80  1C 29 80 52 1C 80 F8 FF  .+.A..9..).R....
0960: FF 7F F8 FF FF 7F 73 30  30 39 45 1C 80 F8 FF FF  ......s009E.....
0970: 7F F8 FF FF 7F 73 67 31  30 01 80 27 10 8F 41 0C  .....sg10..'..A.
0980: 01 05 27 10 91 41 0C 01  12 2B 8F 41 0C 01 3A 80  ..'..A...+.A..:.
0990: 2A 10 91 41 0C 01 4A 90  41 0C 01 91 41 0C 01 4A  *..A..J.A...A..J
09A0: F0 FF FF 7F 91 41 0C 01  6F 76 90 41 0C 01 27 10  .....A..ov.A..'.
09B0: 90 41 0C 01 05 2B 90 41  0C 01 3B 80 1C 06 80 45  .A...+.A..;....E
09C0: 1C 80 F8 FF FF 7F F8 FF  FF 7F 30 30 31 34 01 80  ..........0014..
09D0: 29 10 90 41 0C 01 06 23  27 10 90 41 0C 01 07 52  )..A...#'..A...R
09E0: 1C 80 F8 FF FF 7F F8 FF  FF 7F 73 67 31 30 45 1C  ..........sg10E.
09F0: 80 F8 FF FF 7F F8 FF FF  7F 73 30 31 31 01 80 45  .........s011..E
0A00: 1C 80 F8 FF FF 7F F8 FF  FF 7F 31 30 30 32 01 80  ..........1002..
0A10: 2B 91 41 0C 01 3C 80 1C  32 80 23 52 1C 80 F8 FF  +.A..<..2.#R....
0A20: FF 7F F8 FF FF 7F 73 30  31 31 45 1C 80 F8 FF FF  ......s011E.....
0A30: 7F F8 FF FF 7F 73 30 31  32 01 80 27 10 90 41 0C  .....s012..'..A.
0A40: 01 01 2B 90 41 0C 01 3D  80 1C 2C 80 45 1C 80 F8  ..+.A..=..,.E...
0A50: FF FF 7F F8 FF FF 7F 30  30 30 37 01 80 29 10 90  .......0007..)..
0A60: 41 0C 01 02 23 27 10 90  41 0C 01 03 52 1C 80 F8  A...#'..A...R...
0A70: FF FF 7F F8 FF FF 7F 73  30 31 32 45 1C 80 F8 FF  .......s012E....
0A80: FF 7F F8 FF FF 7F 73 30  31 33 01 80 4A 91 41 0C  ......s013..J.A.
0A90: 01 90 41 0C 01 6F 76 91  41 0C 01 27 10 91 41 0C  ..A..ov.A..'..A.
0AA0: 01 0E 45 1C 80 F8 FF FF  7F F8 FF FF 7F 31 30 30  ..E..........100
0AB0: 33 01 80 2B 91 41 0C 01  3E 80 23 29 10 91 41 0C  3..+.A..>.#)..A.
0AC0: 01 0F 27 10 90 41 0C 01  01 2B 90 41 0C 01 3F 80  ..'..A...+.A..?.
0AD0: 23 2B 90 41 0C 01 40 80  1C 2C 80 29 10 90 41 0C  #+.A..@..,.)..A.
0AE0: 01 02 27 10 90 41 0C 01  03 52 1C 80 F8 FF FF 7F  ..'..A...R......
0AF0: F8 FF FF 7F 73 30 31 33  45 1C 80 F8 FF FF 7F F8  ....s013E.......
0B00: FF FF 7F 73 30 31 34 01  80 27 10 91 41 0C 01 0A  ...s014..'..A...
0B10: 45 1C 80 F8 FF FF 7F F8  FF FF 7F 31 30 30 31 01  E..........1001.
0B20: 80 2B 91 41 0C 01 41 80  23 29 10 91 41 0C 01 0B  .+.A..A.#)..A...
0B30: 52 1C 80 F8 FF FF 7F F8  FF FF 7F 73 30 31 34 45  R..........s014E
0B40: 1C 80 F8 FF FF 7F F8 FF  FF 7F 73 30 31 35 01 80  ..........s015..
0B50: 27 10 90 41 0C 01 09 2B  90 41 0C 01 42 80 23 29  '..A...+.A..B.#)
0B60: 10 90 41 0C 01 0A 52 1C  80 F8 FF FF 7F F8 FF FF  ..A...R.........
0B70: 7F 73 30 31 35 02 87 7F  1B 80 80 91 0B 45 1C 80  .s015........E..
0B80: F8 FF FF 7F F8 FF FF 7F  73 67 31 36 01 80 01 12  ........sg16....
0B90: 0C 02 87 7F 1D 80 80 AD  0B 45 1C 80 F8 FF FF 7F  .........E......
0BA0: F8 FF FF 7F 73 67 31 36  01 80 01 12 0C 02 87 7F  ....sg16........
0BB0: 1E 80 80 C9 0B 45 1C 80  F8 FF FF 7F F8 FF FF 7F  .....E..........
0BC0: 73 74 31 36 01 80 01 12  0C 02 87 7F 1F 80 80 E5  st16............
0BD0: 0B 45 1C 80 F8 FF FF 7F  F8 FF FF 7F 73 74 31 36  .E..........st16
0BE0: 01 80 01 12 0C 02 87 7F  20 80 80 01 0C 45 1C 80  ........ ....E..
0BF0: F8 FF FF 7F F8 FF FF 7F  73 67 31 36 01 80 01 12  ........sg16....
0C00: 0C 45 1C 80 F8 FF FF 7F  F8 FF FF 7F 73 30 31 36  .E..........s016
0C10: 01 80 4A 91 41 0C 01 F0  FF FF 7F 6F 76 91 41 0C  ..J.A......ov.A.
0C20: 01 45 1C 80 F8 FF FF 7F  F8 FF FF 7F 31 30 30 32  .E..........1002
0C30: 01 80 2B 91 41 0C 01 43  80 23 2B 91 41 0C 01 44  ..+.A..C.#+.A..D
0C40: 80 23 24 45 80 01 80 01  80 25 02 00 10 01 80 00  .#$E.....%......
0C50: 2D 0D 6E F0 FF FF 7F 46  80 99 F0 FF FF 7F 1C 29  -.n....F.......)
0C60: 80 02 87 7F 1B 80 80 7B  0C 52 1C 80 F8 FF FF 7F  .......{.R......
0C70: F8 FF FF 7F 73 67 31 36  01 F2 0C 02 87 7F 1D 80  ....sg16........
0C80: 80 95 0C 52 1C 80 F8 FF  FF 7F F8 FF FF 7F 73 67  ...R..........sg
0C90: 31 36 01 F2 0C 02 87 7F  1E 80 80 AF 0C 52 1C 80  16...........R..
0CA0: F8 FF FF 7F F8 FF FF 7F  73 74 31 36 01 F2 0C 02  ........st16....
0CB0: 87 7F 1F 80 80 C9 0C 52  1C 80 F8 FF FF 7F F8 FF  .......R........
0CC0: FF 7F 73 74 31 36 01 F2  0C 02 87 7F 20 80 80 E3  ..st16...... ...
0CD0: 0C 52 1C 80 F8 FF FF 7F  F8 FF FF 7F 73 67 31 36  .R..........sg16
0CE0: 01 F2 0C 52 1C 80 F8 FF  FF 7F F8 FF FF 7F 73 30  ...R..........s0
0CF0: 31 36 45 1C 80 F8 FF FF  7F F8 FF FF 7F 73 30 31  16E..........s01
0D00: 37 01 80 27 10 91 41 0C  01 0E 45 1C 80 F8 FF FF  7..'..A...E.....
0D10: 7F F8 FF FF 7F 31 30 30  33 01 80 2B 91 41 0C 01  .....1003..+.A..
0D20: 47 80 23 29 10 91 41 0C  01 0F 01 10 0E 02 00 10  G.#)..A.........
0D30: 03 80 00 10 0E 6E F0 FF  FF 7F 1F 80 99 F0 FF FF  .....n..........
0D40: 7F 1C 29 80 02 87 7F 1B  80 80 5E 0D 52 1C 80 F8  ..).......^.R...
0D50: FF FF 7F F8 FF FF 7F 73  67 31 36 01 D5 0D 02 87  .......sg16.....
0D60: 7F 1D 80 80 78 0D 52 1C  80 F8 FF FF 7F F8 FF FF  ....x.R.........
0D70: 7F 73 67 31 36 01 D5 0D  02 87 7F 1E 80 80 92 0D  .sg16...........
0D80: 52 1C 80 F8 FF FF 7F F8  FF FF 7F 73 74 31 36 01  R..........st16.
0D90: D5 0D 02 87 7F 1F 80 80  AC 0D 52 1C 80 F8 FF FF  ..........R.....
0DA0: 7F F8 FF FF 7F 73 74 31  36 01 D5 0D 02 87 7F 20  .....st16...... 
0DB0: 80 80 C6 0D 52 1C 80 F8  FF FF 7F F8 FF FF 7F 73  ....R..........s
0DC0: 67 31 36 01 D5 0D 52 1C  80 F8 FF FF 7F F8 FF FF  g16...R.........
0DD0: 7F 73 30 31 36 45 1C 80  F8 FF FF 7F F8 FF FF 7F  .s016E..........
0DE0: 73 30 31 37 01 80 27 10  91 41 0C 01 0E 45 1C 80  s017..'..A...E..
0DF0: F8 FF FF 7F F8 FF FF 7F  31 30 30 33 01 80 2B 91  ........1003..+.
0E00: 41 0C 01 48 80 23 29 10  91 41 0C 01 0F 01 10 0E  A..H.#)..A......
0E10: 52 1C 80 F8 FF FF 7F F8  FF FF 7F 73 30 31 37 02  R..........s017.
0E20: 87 7F 1B 80 80 3B 0E 45  1C 80 F8 FF FF 7F F8 FF  .....;.E........
0E30: FF 7F 73 67 31 38 01 80  01 BC 0E 02 87 7F 1D 80  ..sg18..........
0E40: 80 57 0E 45 1C 80 F8 FF  FF 7F F8 FF FF 7F 73 67  .W.E..........sg
0E50: 31 38 01 80 01 BC 0E 02  87 7F 1E 80 80 73 0E 45  18...........s.E
0E60: 1C 80 F8 FF FF 7F F8 FF  FF 7F 73 74 31 38 01 80  ..........st18..
0E70: 01 BC 0E 02 87 7F 1F 80  80 8F 0E 45 1C 80 F8 FF  ...........E....
0E80: FF 7F F8 FF FF 7F 73 74  31 38 01 80 01 BC 0E 02  ......st18......
0E90: 87 7F 20 80 80 AB 0E 45  1C 80 F8 FF FF 7F F8 FF  .. ....E........
0EA0: FF 7F 73 67 31 38 01 80  01 BC 0E 45 1C 80 F8 FF  ..sg18.....E....
0EB0: FF 7F F8 FF FF 7F 73 30  31 38 01 80 4A 90 41 0C  ......s018..J.A.
0EC0: 01 F0 FF FF 7F 6F 76 90  41 0C 01 27 10 90 41 0C  .....ov.A..'..A.
0ED0: 01 01 45 1C 80 F8 FF FF  7F F8 FF FF 7F 30 30 30  ..E..........000
0EE0: 37 01 80 2B 90 41 0C 01  49 80 1C 2C 80 4A F0 FF  7..+.A..I..,.J..
0EF0: FF 7F 90 41 0C 01 29 10  90 41 0C 01 02 23 27 10  ...A..)..A...#'.
0F00: 90 41 0C 01 03 2B 90 41  0C 01 4A 80 23 29 10 90  .A...+.A..J.#)..
0F10: 41 0C 01 04 02 87 7F 1B  80 80 2E 0F 52 1C 80 F8  A...........R...
0F20: FF FF 7F F8 FF FF 7F 73  67 31 38 01 A5 0F 02 87  .......sg18.....
0F30: 7F 1D 80 80 48 0F 52 1C  80 F8 FF FF 7F F8 FF FF  ....H.R.........
0F40: 7F 73 67 31 38 01 A5 0F  02 87 7F 1E 80 80 62 0F  .sg18.........b.
0F50: 52 1C 80 F8 FF FF 7F F8  FF FF 7F 73 74 31 38 01  R..........st18.
0F60: A5 0F 02 87 7F 1F 80 80  7C 0F 52 1C 80 F8 FF FF  ........|.R.....
0F70: 7F F8 FF FF 7F 73 74 31  38 01 A5 0F 02 87 7F 20  .....st18...... 
0F80: 80 80 96 0F 52 1C 80 F8  FF FF 7F F8 FF FF 7F 73  ....R..........s
0F90: 67 31 38 01 A5 0F 52 1C  80 F8 FF FF 7F F8 FF FF  g18...R.........
0FA0: 7F 73 30 31 38 45 1C 80  F8 FF FF 7F F8 FF FF 7F  .s018E..........
0FB0: 73 30 31 39 01 80 27 10  90 41 0C 01 16 2B 90 41  s019..'..A...+.A
0FC0: 0C 01 4B 80 23 4A 91 41  0C 01 90 41 0C 01 2B 90  ..K.#J.A...A..+.
0FD0: 41 0C 01 4C 80 23 2A 10  90 41 0C 01 52 1C 80 F8  A..L.#*..A..R...
0FE0: FF FF 7F F8 FF FF 7F 73  30 31 39 45 1C 80 F8 FF  .......s019E....
0FF0: FF 7F F8 FF FF 7F 73 30  32 30 01 80 27 10 90 41  ......s020..'..A
1000: 0C 01 0D 2B 90 41 0C 01  4D 80 1C 2C 80 45 1C 80  ...+.A..M..,.E..
1010: F8 FF FF 7F F8 FF FF 7F  30 30 31 34 01 80 29 10  ........0014..).
1020: 90 41 0C 01 0E 23 52 1C  80 F8 FF FF 7F F8 FF FF  .A...#R.........
1030: 7F 73 30 32 30 45 1C 80  F8 FF FF 7F F8 FF FF 7F  .s020E..........
1040: 73 30 32 31 01 80 27 10  90 41 0C 01 17 2B 90 41  s021..'..A...+.A
1050: 0C 01 4E 80 23 2B 90 41  0C 01 4F 80 23 2A 10 90  ..N.#+.A..O.#*..
1060: 41 0C 01 4A 91 41 0C 01  90 41 0C 01 52 1C 80 F8  A..J.A...A..R...
1070: FF FF 7F F8 FF FF 7F 73  30 32 31 45 1C 80 F8 FF  .......s021E....
1080: FF 7F F8 FF FF 7F 73 30  32 32 01 80 27 10 90 41  ......s022..'..A
1090: 0C 01 05 2B 90 41 0C 01  50 80 1C 06 80 45 1C 80  ...+.A..P....E..
10A0: F8 FF FF 7F F8 FF FF 7F  30 30 30 35 01 80 29 10  ........0005..).
10B0: 90 41 0C 01 06 23 27 10  90 41 0C 01 07 29 10 90  .A...#'..A...)..
10C0: 41 0C 01 08 27 10 90 41  0C 01 09 2B 90 41 0C 01  A...'..A...+.A..
10D0: 51 80 23 29 10 90 41 0C  01 0A 52 1C 80 F8 FF FF  Q.#)..A...R.....
10E0: 7F F8 FF FF 7F 73 30 32  32 45 1C 80 F8 FF FF 7F  .....s022E......
10F0: F8 FF FF 7F 73 30 32 33  01 80 27 10 91 41 0C 01  ....s023..'..A..
1100: 13 45 1C 80 F8 FF FF 7F  F8 FF FF 7F 31 30 30 31  .E..........1001
1110: 01 80 2B 91 41 0C 01 52  80 1C 06 80 4A 90 41 0C  ..+.A..R....J.A.
1120: 01 91 41 0C 01 4A F0 FF  FF 7F 91 41 0C 01 1C 32  ..A..J.....A...2
1130: 80 1A 64 00 7A 00 91 41  0C 01 4E 01 91 41 0C 01  ..d.z..A..N..A..
1140: BA 8F 41 0C 01 0A 80 0B  80 0C 80 0D 80 BA 90 41  ..A............A
1150: 0C 01 53 80 54 80 55 80  56 80 BA F0 FF FF 7F 57  ..S.T.U.V......W
1160: 80 58 80 59 80 5A 80 4A  90 41 0C 01 F0 FF FF 7F  .X.Y.Z.J.A......
1170: 4A F0 FF FF 7F 90 41 0C  01 6F 76 F0 FF FF 7F 6F  J.....A..ov....o
1180: 76 90 41 0C 01 48 37 80  1C 2C 80 52 1C 80 F8 FF  v.A..H7..,.R....
1190: FF 7F F8 FF FF 7F 73 30  32 33 45 1C 80 F8 FF FF  ......s023E.....
11A0: 7F F8 FF FF 7F 73 30 32  34 01 80 1A 43 00 27 10  .....s024...C.'.
11B0: 90 41 0C 01 09 2B 90 41  0C 01 5B 80 23 29 10 90  .A...+.A..[.#)..
11C0: 41 0C 01 0A 52 1C 80 F8  FF FF 7F F8 FF FF 7F 73  A...R..........s
11D0: 30 32 34 02 87 7F 1B 80  80 EF 11 45 1C 80 F8 FF  024........E....
11E0: FF 7F F8 FF FF 7F 73 67  32 35 01 80 01 70 12 02  ......sg25...p..
11F0: 87 7F 1D 80 80 0B 12 45  1C 80 F8 FF FF 7F F8 FF  .......E........
1200: FF 7F 73 67 32 35 01 80  01 70 12 02 87 7F 1E 80  ..sg25...p......
1210: 80 27 12 45 1C 80 F8 FF  FF 7F F8 FF FF 7F 73 74  .'.E..........st
1220: 32 35 01 80 01 70 12 02  87 7F 1F 80 80 43 12 45  25...p.......C.E
1230: 1C 80 F8 FF FF 7F F8 FF  FF 7F 73 74 32 35 01 80  ..........st25..
1240: 01 70 12 02 87 7F 20 80  80 5F 12 45 1C 80 F8 FF  .p.... .._.E....
1250: FF 7F F8 FF FF 7F 73 67  32 35 01 80 01 70 12 45  ......sg25...p.E
1260: 1C 80 F8 FF FF 7F F8 FF  FF 7F 73 30 32 35 01 80  ..........s025..
1270: 27 10 90 41 0C 01 01 03  03 10 5C 80 2B 90 41 0C  '..A......\.+.A.
1280: 01 5D 80 1C 2C 80 45 1C  80 F8 FF FF 7F F8 FF FF  .]..,.E.........
1290: 7F 30 30 30 37 01 80 23  03 04 10 1F 80 2B 90 41  .0007..#.....+.A
12A0: 0C 01 5E 80 23 29 10 90  41 0C 01 02 02 87 7F 1B  ..^.#)..A.......
12B0: 80 80 D7 12 52 1C 80 F8  FF FF 7F F8 FF FF 7F 73  ....R..........s
12C0: 67 32 35 45 1C 80 F8 FF  FF 7F F8 FF FF 7F 73 67  g25E..........sg
12D0: 32 36 01 80 01 A3 13 02  87 7F 1D 80 80 02 13 52  26.............R
12E0: 1C 80 F8 FF FF 7F F8 FF  FF 7F 73 67 32 35 45 1C  ..........sg25E.
12F0: 80 F8 FF FF 7F F8 FF FF  7F 73 67 32 36 01 80 01  .........sg26...
1300: A3 13 02 87 7F 1E 80 80  2D 13 52 1C 80 F8 FF FF  ........-.R.....
1310: 7F F8 FF FF 7F 73 74 32  35 45 1C 80 F8 FF FF 7F  .....st25E......
1320: F8 FF FF 7F 73 74 32 36  01 80 01 A3 13 02 87 7F  ....st26........
1330: 1F 80 80 58 13 52 1C 80  F8 FF FF 7F F8 FF FF 7F  ...X.R..........
1340: 73 74 32 35 45 1C 80 F8  FF FF 7F F8 FF FF 7F 73  st25E..........s
1350: 74 32 36 01 80 01 A3 13  02 87 7F 20 80 80 83 13  t26........ ....
1360: 52 1C 80 F8 FF FF 7F F8  FF FF 7F 73 67 32 35 45  R..........sg25E
1370: 1C 80 F8 FF FF 7F F8 FF  FF 7F 73 67 32 36 01 80  ..........sg26..
1380: 01 A3 13 52 1C 80 F8 FF  FF 7F F8 FF FF 7F 73 30  ...R..........s0
1390: 32 35 45 1C 80 F8 FF FF  7F F8 FF FF 7F 73 30 32  25E..........s02
13A0: 36 01 80 27 10 90 41 0C  01 03 2B 90 41 0C 01 5F  6..'..A...+.A.._
13B0: 80 23 29 10 90 41 0C 01  04 27 10 90 41 0C 01 0F  .#)..A...'..A...
13C0: 45 1C 80 F8 FF FF 7F F8  FF FF 7F 30 30 31 31 01  E..........0011.
13D0: 80 2B 90 41 0C 01 60 80  23 29 10 90 41 0C 01 10  .+.A..`.#)..A...
13E0: 02 87 7F 1B 80 80 FA 13  52 1C 80 F8 FF FF 7F F8  ........R.......
13F0: FF FF 7F 73 67 32 36 01  71 14 02 87 7F 1D 80 80  ...sg26.q.......
1400: 14 14 52 1C 80 F8 FF FF  7F F8 FF FF 7F 73 67 32  ..R..........sg2
1410: 36 01 71 14 02 87 7F 1E  80 80 2E 14 52 1C 80 F8  6.q.........R...
1420: FF FF 7F F8 FF FF 7F 73  74 32 36 01 71 14 02 87  .......st26.q...
1430: 7F 1F 80 80 48 14 52 1C  80 F8 FF FF 7F F8 FF FF  ....H.R.........
1440: 7F 73 74 32 36 01 71 14  02 87 7F 20 80 80 62 14  .st26.q.... ..b.
1450: 52 1C 80 F8 FF FF 7F F8  FF FF 7F 73 67 32 36 01  R..........sg26.
1460: 71 14 52 1C 80 F8 FF FF  7F F8 FF FF 7F 73 30 32  q.R..........s02
1470: 36 45 1C 80 F8 FF FF 7F  F8 FF FF 7F 73 30 32 37  6E..........s027
1480: 01 80 27 10 90 41 0C 01  18 1C 61 80 5D 01 80 08  ..'..A....a.]...
1490: 80 1A 64 00 52 1C 80 F8  FF FF 7F F8 FF FF 7F 73  ..d.R..........s
14A0: 30 32 37 7A 00 90 41 0C  01 5C 00 01 80 5C 01 01  027z..A..\...\..
14B0: 80 9A 5D 1A 80 03 80 1C  62 80 AB 11 01 80 1C 03  ..].....b.......
14C0: 80 46 00 45 00 80 F8 FF  FF 7F F8 FF FF 7F 66 64  .F.E..........fd
14D0: 69 32 01 80 21 00                                 i2..!.          
```

#### Opcodes

```
  0: 0x0292 [0x42] SET_CLI_EVENT_CANCEL_DATA()
  1: 0x0293 [0x5D] SET_MUSIC_VOLUME(volume=0*, fade_time=300*)
  2: 0x0298 [0x1A] CALL_SUBROUTINE(address=0x0064)
  3: 0x029B [0x46] CAMERA_CONTROL: Disable user control
  4: 0x029D [0x38] SET_CLIENT_EVENT_MODE(mode=147*)
  5: 0x02A0 [0x2F] Magh Bihu (ID: 17580432/0x010C4190)->Render.Flags0 &= ~0x80000 // Bit 19
  6: 0x02A6 [0x2F] Dazbog (ID: 17580433/0x010C4191)->Render.Flags0 &= ~0x80000 // Bit 19
  7: 0x02AC [0x4E] SET_ENTITY_HIDE_FLAG: Show Magh Bihu (ID: 17580432/0x010C4190)
  8: 0x02B2 [0x4E] SET_ENTITY_HIDE_FLAG: Show Dazbog (ID: 17580433/0x010C4191)
  9: 0x02B8 [0x92] Hedrov (ID: 17580431/0x010C418F)->Render.Flags3 ^= 0x01
 10: 0x02BE [0x94] Hedrov (ID: 17580431/0x010C418F)->Render.Flags3 ^= 0x01
 11: 0x02C4 [0x94] Magh Bihu (ID: 17580432/0x010C4190)->Render.Flags3 ^= 0x01
 12: 0x02CA [0x94] Dazbog (ID: 17580433/0x010C4191)->Render.Flags3 ^= 0x01
 13: 0x02D0 [0x94] LocalPlayer->Render.Flags3 ^= 0x01
 14: 0x02D6 [0xBA] SET_ENTITY_POSITION(entity_id=Hedrov (ID: 17580431/0x010C418F), pos_x=-124.772*, pos_z=338.461*, pos_y=1.773*, direction=342.8°*)
 15: 0x02E3 [0xBA] SET_ENTITY_POSITION(entity_id=Magh Bihu (ID: 17580432/0x010C4190), pos_x=-118.270*, pos_z=331.226*, pos_y=1.396*, direction=247.8°*)
 16: 0x02F0 [0xBA] SET_ENTITY_POSITION(entity_id=Dazbog (ID: 17580433/0x010C4191), pos_x=-129.228*, pos_z=337.258*, pos_y=2.553*, direction=342.8°*)
 17: 0x02FD [0xBA] SET_ENTITY_POSITION(entity_id=LocalPlayer, pos_x=-120.740*, pos_z=340.007*, pos_y=1.749*, direction=153.1°*)
 18: 0x030A [0x80] LOAD_WAIT(entity=Hedrov (ID: 17580431/0x010C418F))
 19: 0x030F [0x80] LOAD_WAIT(entity=Magh Bihu (ID: 17580432/0x010C4190))
 20: 0x0314 [0x80] LOAD_WAIT(entity=Dazbog (ID: 17580433/0x010C4191))
 21: 0x0319 [0x80] LOAD_WAIT(entity=LocalPlayer)
 22: 0x031E [0x6C] FADE_ENTITY_COLOR(entity_id=Magh Bihu (ID: 17580432/0x010C4190), end_alpha=0*, fade_time=1*)
 23: 0x0327 [0x6C] FADE_ENTITY_COLOR(entity_id=Dazbog (ID: 17580433/0x010C4191), end_alpha=0*, fade_time=1*)
 24: 0x0330 [0x4A] LocalPlayer looks at Hedrov (ID: 17580431/0x010C418F)
 25: 0x0339 [0x4A] Hedrov (ID: 17580431/0x010C418F) looks at LocalPlayer
 26: 0x0342 [0x6F] WAIT_FRAME_DELAY: Yield until WaitTime reaches zero
 27: 0x0343 [0x76] CHECK_ENTITY_RENDER_FLAGS: Wait until LocalPlayer Render.Flags0 and Render.Flags3 conditions are met
 28: 0x0348 [0x6F] WAIT_FRAME_DELAY: Yield until WaitTime reaches zero
 29: 0x0349 [0x76] CHECK_ENTITY_RENDER_FLAGS: Wait until Hedrov (ID: 17580431/0x010C418F) Render.Flags0 and Render.Flags3 conditions are met
 30: 0x034E [0x5C] MUSIC_CONTROL: Set Idle (Day) music to song 32*
 31: 0x0352 [0x5C] MUSIC_CONTROL: Set Idle (Night) music to song 32*
 32: 0x0356 [0x9A] WAIT_MUSIC_SERVER()
 33: 0x0357 [0x5D] SET_MUSIC_VOLUME(volume=127*, fade_time=1*)
 34: 0x035C [0x02] IF !(LocalPlayer->Race == 3*) GOTO 0x0378
 35: 0x0364 [0x45] LOAD_SCHEDULED_TASK: Load scheduler "sg00" with entities [EventEntity, EventEntity], work=[900*, 0*]
 36: 0x0375 [0x01] GOTO 0x03F9
 37: 0x0378 [0x02] IF !(LocalPlayer->Race == 4*) GOTO 0x0394
 38: 0x0380 [0x45] LOAD_SCHEDULED_TASK: Load scheduler "sg00" with entities [EventEntity, EventEntity], work=[900*, 0*]
 39: 0x0391 [0x01] GOTO 0x03F9
 40: 0x0394 [0x02] IF !(LocalPlayer->Race == 5*) GOTO 0x03B0
 41: 0x039C [0x45] LOAD_SCHEDULED_TASK: Load scheduler "st00" with entities [EventEntity, EventEntity], work=[900*, 0*]
 42: 0x03AD [0x01] GOTO 0x03F9
 43: 0x03B0 [0x02] IF !(LocalPlayer->Race == 6*) GOTO 0x03CC
 44: 0x03B8 [0x45] LOAD_SCHEDULED_TASK: Load scheduler "st00" with entities [EventEntity, EventEntity], work=[900*, 0*]
 45: 0x03C9 [0x01] GOTO 0x03F9
 46: 0x03CC [0x02] IF !(LocalPlayer->Race == 8*) GOTO 0x03E8
 47: 0x03D4 [0x45] LOAD_SCHEDULED_TASK: Load scheduler "sg00" with entities [EventEntity, EventEntity], work=[900*, 0*]
 48: 0x03E5 [0x01] GOTO 0x03F9
 49: 0x03E8 [0x45] LOAD_SCHEDULED_TASK: Load scheduler "s000" with entities [EventEntity, EventEntity], work=[900*, 0*]

SUBROUTINE_03F9:
 50: 0x03F9 [0x1A] CALL_SUBROUTINE(address=0x0043)
 51: 0x03FC [0x45] LOAD_SCHEDULED_TASK: Load scheduler "1002" with entities [EventEntity, EventEntity], work=[900*, 0*]
 52: 0x040D [0x2B] Hedrov (ID: 17580431/0x010C418F) [11515*]:
    → "I'm Hedrov. What yee name bee? Yee kinda 'ave Dazbog's scent on yee."
 53: 0x0414 [0x23] WAIT_FOR_DIALOG_INTERACTION
 54: 0x0415 [0x24] CREATE_DIALOG(message_id=11516*, default_option=0*, option_flags=0*)
    → "How do you respond? [I'm <Player>!/I'm a friend of Dazbog's./I'm a friend of Magh Bihu's.]"
 55: 0x041C [0x25] WAIT_DIALOG_SELECT()
 56: 0x041D [0x02] IF !(Work_Zone[0] == 0*) GOTO 0x04F7
 57: 0x0425 [0x27] REQ_SET(priority=0x10, entity_id=LocalPlayer, tag_num=0x05)
 58: 0x042C [0x1C] WAIT(120* ticks)
 59: 0x042F [0x27] REQ_SET(priority=0x10, entity_id=LocalPlayer, tag_num=0x06)
 60: 0x0436 [0x1C] WAIT(30* ticks)
 61: 0x0439 [0x02] IF !(LocalPlayer->Race == 3*) GOTO 0x0453
 62: 0x0441 [0x52] END_LOAD_SCHEDULER: End scheduler "sg00" with entities [EventEntity, EventEntity], work=900*
 63: 0x0450 [0x01] GOTO 0x04CA
 64: 0x0453 [0x02] IF !(LocalPlayer->Race == 4*) GOTO 0x046D
 65: 0x045B [0x52] END_LOAD_SCHEDULER: End scheduler "sg00" with entities [EventEntity, EventEntity], work=900*
 66: 0x046A [0x01] GOTO 0x04CA
 67: 0x046D [0x02] IF !(LocalPlayer->Race == 5*) GOTO 0x0487
 68: 0x0475 [0x52] END_LOAD_SCHEDULER: End scheduler "st00" with entities [EventEntity, EventEntity], work=900*
 69: 0x0484 [0x01] GOTO 0x04CA
 70: 0x0487 [0x02] IF !(LocalPlayer->Race == 6*) GOTO 0x04A1
 71: 0x048F [0x52] END_LOAD_SCHEDULER: End scheduler "st00" with entities [EventEntity, EventEntity], work=900*
 72: 0x049E [0x01] GOTO 0x04CA
 73: 0x04A1 [0x02] IF !(LocalPlayer->Race == 8*) GOTO 0x04BB
 74: 0x04A9 [0x52] END_LOAD_SCHEDULER: End scheduler "sg00" with entities [EventEntity, EventEntity], work=900*
 75: 0x04B8 [0x01] GOTO 0x04CA
 76: 0x04BB [0x52] END_LOAD_SCHEDULER: End scheduler "s000" with entities [EventEntity, EventEntity], work=900*

SUBROUTINE_04CA:
 77: 0x04CA [0x45] LOAD_SCHEDULED_TASK: Load scheduler "s001" with entities [EventEntity, EventEntity], work=[900*, 0*]
 78: 0x04DB [0x45] LOAD_SCHEDULED_TASK: Load scheduler "1001" with entities [EventEntity, EventEntity], work=[900*, 0*]
 79: 0x04EC [0x2B] Hedrov (ID: 17580431/0x010C418F) [11517*]:
    → "Mee nev'r heer of yee."
 80: 0x04F3 [0x23] WAIT_FOR_DIALOG_INTERACTION
 81: 0x04F4 [0x01] GOTO 0x06AB
 82: 0x04F7 [0x02] IF !(Work_Zone[0] == 1*) GOTO 0x05D1
 83: 0x04FF [0x27] REQ_SET(priority=0x10, entity_id=LocalPlayer, tag_num=0x05)
 84: 0x0506 [0x1C] WAIT(120* ticks)
 85: 0x0509 [0x27] REQ_SET(priority=0x10, entity_id=LocalPlayer, tag_num=0x06)
 86: 0x0510 [0x1C] WAIT(30* ticks)
 87: 0x0513 [0x02] IF !(LocalPlayer->Race == 3*) GOTO 0x052D
 88: 0x051B [0x52] END_LOAD_SCHEDULER: End scheduler "sg00" with entities [EventEntity, EventEntity], work=900*
 89: 0x052A [0x01] GOTO 0x05A4
 90: 0x052D [0x02] IF !(LocalPlayer->Race == 4*) GOTO 0x0547
 91: 0x0535 [0x52] END_LOAD_SCHEDULER: End scheduler "sg00" with entities [EventEntity, EventEntity], work=900*
 92: 0x0544 [0x01] GOTO 0x05A4
 93: 0x0547 [0x02] IF !(LocalPlayer->Race == 5*) GOTO 0x0561
 94: 0x054F [0x52] END_LOAD_SCHEDULER: End scheduler "st00" with entities [EventEntity, EventEntity], work=900*
 95: 0x055E [0x01] GOTO 0x05A4
 96: 0x0561 [0x02] IF !(LocalPlayer->Race == 6*) GOTO 0x057B
 97: 0x0569 [0x52] END_LOAD_SCHEDULER: End scheduler "st00" with entities [EventEntity, EventEntity], work=900*
 98: 0x0578 [0x01] GOTO 0x05A4
 99: 0x057B [0x02] IF !(LocalPlayer->Race == 8*) GOTO 0x0595
100: 0x0583 [0x52] END_LOAD_SCHEDULER: End scheduler "sg00" with entities [EventEntity, EventEntity], work=900*
101: 0x0592 [0x01] GOTO 0x05A4
102: 0x0595 [0x52] END_LOAD_SCHEDULER: End scheduler "s000" with entities [EventEntity, EventEntity], work=900*

SUBROUTINE_05A4:
103: 0x05A4 [0x45] LOAD_SCHEDULED_TASK: Load scheduler "s001" with entities [EventEntity, EventEntity], work=[900*, 0*]
104: 0x05B5 [0x45] LOAD_SCHEDULED_TASK: Load scheduler "1001" with entities [EventEntity, EventEntity], work=[900*, 0*]
105: 0x05C6 [0x2B] Hedrov (ID: 17580431/0x010C418F) [11518*]:
    → "Is that the tr'th? Yee bee his follow'r or somethin'?"
106: 0x05CD [0x23] WAIT_FOR_DIALOG_INTERACTION
107: 0x05CE [0x01] GOTO 0x06AB
108: 0x05D1 [0x02] IF !(Work_Zone[0] == 2*) GOTO 0x06AB
109: 0x05D9 [0x27] REQ_SET(priority=0x10, entity_id=LocalPlayer, tag_num=0x05)
110: 0x05E0 [0x1C] WAIT(120* ticks)
111: 0x05E3 [0x27] REQ_SET(priority=0x10, entity_id=LocalPlayer, tag_num=0x06)
112: 0x05EA [0x1C] WAIT(30* ticks)
113: 0x05ED [0x02] IF !(LocalPlayer->Race == 3*) GOTO 0x0607
114: 0x05F5 [0x52] END_LOAD_SCHEDULER: End scheduler "sg00" with entities [EventEntity, EventEntity], work=900*
115: 0x0604 [0x01] GOTO 0x067E
116: 0x0607 [0x02] IF !(LocalPlayer->Race == 4*) GOTO 0x0621
117: 0x060F [0x52] END_LOAD_SCHEDULER: End scheduler "sg00" with entities [EventEntity, EventEntity], work=900*
118: 0x061E [0x01] GOTO 0x067E
119: 0x0621 [0x02] IF !(LocalPlayer->Race == 5*) GOTO 0x063B
120: 0x0629 [0x52] END_LOAD_SCHEDULER: End scheduler "st00" with entities [EventEntity, EventEntity], work=900*
121: 0x0638 [0x01] GOTO 0x067E
122: 0x063B [0x02] IF !(LocalPlayer->Race == 6*) GOTO 0x0655
123: 0x0643 [0x52] END_LOAD_SCHEDULER: End scheduler "st00" with entities [EventEntity, EventEntity], work=900*
124: 0x0652 [0x01] GOTO 0x067E
125: 0x0655 [0x02] IF !(LocalPlayer->Race == 8*) GOTO 0x066F
126: 0x065D [0x52] END_LOAD_SCHEDULER: End scheduler "sg00" with entities [EventEntity, EventEntity], work=900*
127: 0x066C [0x01] GOTO 0x067E
128: 0x066F [0x52] END_LOAD_SCHEDULER: End scheduler "s000" with entities [EventEntity, EventEntity], work=900*

SUBROUTINE_067E:
129: 0x067E [0x45] LOAD_SCHEDULED_TASK: Load scheduler "s001" with entities [EventEntity, EventEntity], work=[900*, 0*]
130: 0x068F [0x45] LOAD_SCHEDULED_TASK: Load scheduler "1001" with entities [EventEntity, EventEntity], work=[900*, 0*]
131: 0x06A0 [0x2B] Hedrov (ID: 17580431/0x010C418F) [11519*]:
    → "Magh Bihu... Hee Dazbog's underling, yes?"
132: 0x06A7 [0x23] WAIT_FOR_DIALOG_INTERACTION
133: 0x06A8 [0x01] GOTO 0x06AB

SUBROUTINE_06AB:
134: 0x06AB [0x6C] FADE_ENTITY_COLOR(entity_id=Magh Bihu (ID: 17580432/0x010C4190), end_alpha=128*, fade_time=1*)
135: 0x06B4 [0x27] REQ_SET(priority=0x10, entity_id=Magh Bihu (ID: 17580432/0x010C4190), tag_num=0x15)
136: 0x06BB [0x1C] WAIT(5* ticks)
137: 0x06BE [0x52] END_LOAD_SCHEDULER: End scheduler "s001" with entities [EventEntity, EventEntity], work=900*
138: 0x06CD [0x45] LOAD_SCHEDULED_TASK: Load scheduler "s002" with entities [EventEntity, EventEntity], work=[900*, 0*]
139: 0x06DE [0x1C] WAIT(30* ticks)
140: 0x06E1 [0x2B] Magh Bihu (ID: 17580432/0x010C4190) [11520*]:
    → "It took me a long time to say goodbye to all of my kin."
141: 0x06E8 [0x1C] WAIT(90* ticks)
142: 0x06EB [0x4A] LocalPlayer looks at Magh Bihu (ID: 17580432/0x010C4190)
143: 0x06F4 [0x4A] Hedrov (ID: 17580431/0x010C418F) looks at Magh Bihu (ID: 17580432/0x010C4190)
144: 0x06FD [0x2A] GET_REQ_LEVEL(level=16, entity_id=Magh Bihu (ID: 17580432/0x010C4190))
145: 0x0703 [0x4A] Magh Bihu (ID: 17580432/0x010C4190) looks at LocalPlayer
146: 0x070C [0x4A] Hedrov (ID: 17580431/0x010C418F) looks at Magh Bihu (ID: 17580432/0x010C4190)
147: 0x0715 [0x23] WAIT_FOR_DIALOG_INTERACTION
148: 0x0716 [0x52] END_LOAD_SCHEDULER: End scheduler "s002" with entities [EventEntity, EventEntity], work=900*
149: 0x0725 [0x45] LOAD_SCHEDULED_TASK: Load scheduler "s003" with entities [EventEntity, EventEntity], work=[900*, 0*]
150: 0x0736 [0x27] REQ_SET(priority=0x10, entity_id=Magh Bihu (ID: 17580432/0x010C4190), tag_num=0x0F)
151: 0x073D [0x45] LOAD_SCHEDULED_TASK: Load scheduler "0011" with entities [EventEntity, EventEntity], work=[900*, 0*]
152: 0x074E [0x2B] Magh Bihu (ID: 17580432/0x010C4190) [11521*]:
    → "It seems like there are even more of them now too."
153: 0x0755 [0x23] WAIT_FOR_DIALOG_INTERACTION
154: 0x0756 [0x29] REQ_SET_WAIT(priority=0x10, entity_id=Magh Bihu (ID: 17580432/0x010C4190), tag_num=0x10)
155: 0x075D [0x52] END_LOAD_SCHEDULER: End scheduler "s003" with entities [EventEntity, EventEntity], work=900*
156: 0x076C [0x45] LOAD_SCHEDULED_TASK: Load scheduler "s004" with entities [EventEntity, EventEntity], work=[900*, 0*]
157: 0x077D [0x45] LOAD_SCHEDULED_TASK: Load scheduler "1002" with entities [EventEntity, EventEntity], work=[900*, 0*]
158: 0x078E [0x2B] Hedrov (ID: 17580431/0x010C418F) [11522*]:
    → "Yer Magh Bihu? Yee bee Lord Dazbog's follow'r, so where 'ave yee been?"
159: 0x0795 [0x1C] WAIT(60* ticks)
160: 0x0798 [0x4A] Magh Bihu (ID: 17580432/0x010C4190) looks at Hedrov (ID: 17580431/0x010C418F)
161: 0x07A1 [0x6F] WAIT_FRAME_DELAY: Yield until WaitTime reaches zero
162: 0x07A2 [0x76] CHECK_ENTITY_RENDER_FLAGS: Wait until Magh Bihu (ID: 17580432/0x010C4190) Render.Flags0 and Render.Flags3 conditions are met
163: 0x07A7 [0x1C] WAIT(30* ticks)
164: 0x07AA [0x4A] LocalPlayer looks at Hedrov (ID: 17580431/0x010C418F)
165: 0x07B3 [0x23] WAIT_FOR_DIALOG_INTERACTION
166: 0x07B4 [0x52] END_LOAD_SCHEDULER: End scheduler "s004" with entities [EventEntity, EventEntity], work=900*
167: 0x07C3 [0x45] LOAD_SCHEDULED_TASK: Load scheduler "s005" with entities [EventEntity, EventEntity], work=[900*, 0*]
168: 0x07D4 [0x27] REQ_SET(priority=0x10, entity_id=Magh Bihu (ID: 17580432/0x010C4190), tag_num=0x05)
169: 0x07DB [0x2B] Magh Bihu (ID: 17580432/0x010C4190) [11523*]:
    → "I'm no follower! Like I said, I'm his friend!"
170: 0x07E2 [0x1C] WAIT(30* ticks)
171: 0x07E5 [0x45] LOAD_SCHEDULED_TASK: Load scheduler "0005" with entities [EventEntity, EventEntity], work=[900*, 0*]
172: 0x07F6 [0x29] REQ_SET_WAIT(priority=0x10, entity_id=Magh Bihu (ID: 17580432/0x010C4190), tag_num=0x06)
173: 0x07FD [0x23] WAIT_FOR_DIALOG_INTERACTION
174: 0x07FE [0x27] REQ_SET(priority=0x10, entity_id=Magh Bihu (ID: 17580432/0x010C4190), tag_num=0x07)
175: 0x0805 [0x2B] Magh Bihu (ID: 17580432/0x010C4190) [11524*]:
    → "Whatever... It's pointless to speak to any Meebles other than Dazbog."
176: 0x080C [0x23] WAIT_FOR_DIALOG_INTERACTION
177: 0x080D [0x29] REQ_SET_WAIT(priority=0x10, entity_id=Magh Bihu (ID: 17580432/0x010C4190), tag_num=0x08)
178: 0x0814 [0x52] END_LOAD_SCHEDULER: End scheduler "s005" with entities [EventEntity, EventEntity], work=900*
179: 0x0823 [0x45] LOAD_SCHEDULED_TASK: Load scheduler "s006" with entities [EventEntity, EventEntity], work=[900*, 0*]
180: 0x0834 [0x27] REQ_SET(priority=0x10, entity_id=Magh Bihu (ID: 17580432/0x010C4190), tag_num=0x01)
181: 0x083B [0x2B] Magh Bihu (ID: 17580432/0x010C4190) [11525*]:
    → "Well, I'm here now! Take me to Dazbog at once!"
182: 0x0842 [0x1C] WAIT(60* ticks)
183: 0x0845 [0x45] LOAD_SCHEDULED_TASK: Load scheduler "0007" with entities [EventEntity, EventEntity], work=[900*, 0*]
184: 0x0856 [0x29] REQ_SET_WAIT(priority=0x10, entity_id=Magh Bihu (ID: 17580432/0x010C4190), tag_num=0x02)
185: 0x085D [0x23] WAIT_FOR_DIALOG_INTERACTION
186: 0x085E [0x27] REQ_SET(priority=0x10, entity_id=Magh Bihu (ID: 17580432/0x010C4190), tag_num=0x03)
187: 0x0865 [0x52] END_LOAD_SCHEDULER: End scheduler "s006" with entities [EventEntity, EventEntity], work=900*
188: 0x0874 [0x45] LOAD_SCHEDULED_TASK: Load scheduler "s007" with entities [EventEntity, EventEntity], work=[900*, 0*]
189: 0x0885 [0x45] LOAD_SCHEDULED_TASK: Load scheduler "1001" with entities [EventEntity, EventEntity], work=[900*, 0*]
190: 0x0896 [0x2B] Hedrov (ID: 17580431/0x010C418F) [11526*]:
    → "Lord Dazbog is veeery busy. Mee doubt hee 'ave time fer yee."
191: 0x089D [0x23] WAIT_FOR_DIALOG_INTERACTION
192: 0x089E [0x2B] Hedrov (ID: 17580431/0x010C418F) [11527*]:
    → "Mee check wit' him, so yee wait 'ere for now."
193: 0x08A5 [0x23] WAIT_FOR_DIALOG_INTERACTION
194: 0x08A6 [0x52] END_LOAD_SCHEDULER: End scheduler "s007" with entities [EventEntity, EventEntity], work=900*
195: 0x08B5 [0x45] LOAD_SCHEDULED_TASK: Load scheduler "s008" with entities [EventEntity, EventEntity], work=[900*, 0*]
196: 0x08C6 [0x27] REQ_SET(priority=0x10, entity_id=Hedrov (ID: 17580431/0x010C418F), tag_num=0x04)
197: 0x08CD [0x1C] WAIT(180* ticks)
198: 0x08D0 [0x5D] SET_MUSIC_VOLUME(volume=0*, fade_time=300*)
199: 0x08D5 [0x1A] CALL_SUBROUTINE(address=0x0064)
200: 0x08D8 [0x7A] VM_CONTROL: Reset VM for Hedrov (ID: 17580431/0x010C418F)
201: 0x08DE [0xBA] SET_ENTITY_POSITION(entity_id=Hedrov (ID: 17580431/0x010C418F), pos_x=-122.706*, pos_z=338.924*, pos_y=1.757*, direction=348.1°*)
202: 0x08EB [0x6C] FADE_ENTITY_COLOR(entity_id=Dazbog (ID: 17580433/0x010C4191), end_alpha=128*, fade_time=1*)
203: 0x08F4 [0x4A] Magh Bihu (ID: 17580432/0x010C4190) looks at Dazbog (ID: 17580433/0x010C4191)
204: 0x08FD [0x4A] LocalPlayer looks at Dazbog (ID: 17580433/0x010C4191)
205: 0x0906 [0x1C] WAIT(120* ticks)
206: 0x0909 [0x48] [System] [11513*]:
    → "@@"
207: 0x090C [0x1C] WAIT(60* ticks)
208: 0x090F [0x5C] MUSIC_CONTROL: Set Idle (Day) music to song 28*
209: 0x0913 [0x5C] MUSIC_CONTROL: Set Idle (Night) music to song 28*
210: 0x0917 [0x9A] WAIT_MUSIC_SERVER()
211: 0x0918 [0x5D] SET_MUSIC_VOLUME(volume=127*, fade_time=1*)
212: 0x091D [0x52] END_LOAD_SCHEDULER: End scheduler "s008" with entities [EventEntity, EventEntity], work=900*
213: 0x092C [0x45] LOAD_SCHEDULED_TASK: Load scheduler "s009" with entities [EventEntity, EventEntity], work=[900*, 0*]
214: 0x093D [0x1A] CALL_SUBROUTINE(address=0x0043)
215: 0x0940 [0x45] LOAD_SCHEDULED_TASK: Load scheduler "1005" with entities [EventEntity, EventEntity], work=[900*, 0*]
216: 0x0951 [0x2B] Dazbog (ID: 17580433/0x010C4191) [11528*]:
    → "Ahem!"
217: 0x0958 [0x1C] WAIT(90* ticks)
218: 0x095B [0x52] END_LOAD_SCHEDULER: End scheduler "s009" with entities [EventEntity, EventEntity], work=900*
219: 0x096A [0x45] LOAD_SCHEDULED_TASK: Load scheduler "sg10" with entities [EventEntity, EventEntity], work=[900*, 0*]
220: 0x097B [0x27] REQ_SET(priority=0x10, entity_id=Hedrov (ID: 17580431/0x010C418F), tag_num=0x05)
221: 0x0982 [0x27] REQ_SET(priority=0x10, entity_id=Dazbog (ID: 17580433/0x010C4191), tag_num=0x12)
222: 0x0989 [0x2B] Hedrov (ID: 17580431/0x010C418F) [11529*]:
    → "Make way fer Lord Dazbog!"
223: 0x0990 [0x2A] GET_REQ_LEVEL(level=16, entity_id=Dazbog (ID: 17580433/0x010C4191))
224: 0x0996 [0x4A] Magh Bihu (ID: 17580432/0x010C4190) looks at Dazbog (ID: 17580433/0x010C4191)
225: 0x099F [0x4A] LocalPlayer looks at Dazbog (ID: 17580433/0x010C4191)
226: 0x09A8 [0x6F] WAIT_FRAME_DELAY: Yield until WaitTime reaches zero
227: 0x09A9 [0x76] CHECK_ENTITY_RENDER_FLAGS: Wait until Magh Bihu (ID: 17580432/0x010C4190) Render.Flags0 and Render.Flags3 conditions are met
228: 0x09AE [0x27] REQ_SET(priority=0x10, entity_id=Magh Bihu (ID: 17580432/0x010C4190), tag_num=0x05)
229: 0x09B5 [0x2B] Magh Bihu (ID: 17580432/0x010C4190) [11530*]:
    → "Urk!"
230: 0x09BC [0x1C] WAIT(30* ticks)
231: 0x09BF [0x45] LOAD_SCHEDULED_TASK: Load scheduler "0014" with entities [EventEntity, EventEntity], work=[900*, 0*]
232: 0x09D0 [0x29] REQ_SET_WAIT(priority=0x10, entity_id=Magh Bihu (ID: 17580432/0x010C4190), tag_num=0x06)
233: 0x09D7 [0x23] WAIT_FOR_DIALOG_INTERACTION
234: 0x09D8 [0x27] REQ_SET(priority=0x10, entity_id=Magh Bihu (ID: 17580432/0x010C4190), tag_num=0x07)
235: 0x09DF [0x52] END_LOAD_SCHEDULER: End scheduler "sg10" with entities [EventEntity, EventEntity], work=900*
236: 0x09EE [0x45] LOAD_SCHEDULED_TASK: Load scheduler "s011" with entities [EventEntity, EventEntity], work=[900*, 0*]
237: 0x09FF [0x45] LOAD_SCHEDULED_TASK: Load scheduler "1002" with entities [EventEntity, EventEntity], work=[900*, 0*]
238: 0x0A10 [0x2B] Dazbog (ID: 17580433/0x010C4191) [11531*]:
    → "Ahem! Greetings, fine citizens!"
239: 0x0A17 [0x1C] WAIT(180* ticks)
240: 0x0A1A [0x23] WAIT_FOR_DIALOG_INTERACTION
241: 0x0A1B [0x52] END_LOAD_SCHEDULER: End scheduler "s011" with entities [EventEntity, EventEntity], work=900*
242: 0x0A2A [0x45] LOAD_SCHEDULED_TASK: Load scheduler "s012" with entities [EventEntity, EventEntity], work=[900*, 0*]
243: 0x0A3B [0x27] REQ_SET(priority=0x10, entity_id=Magh Bihu (ID: 17580432/0x010C4190), tag_num=0x01)
244: 0x0A42 [0x2B] Magh Bihu (ID: 17580432/0x010C4190) [11532*]:
    → "Not this again! Playing at king, are you, Dazbog?"
245: 0x0A49 [0x1C] WAIT(60* ticks)
246: 0x0A4C [0x45] LOAD_SCHEDULED_TASK: Load scheduler "0007" with entities [EventEntity, EventEntity], work=[900*, 0*]
247: 0x0A5D [0x29] REQ_SET_WAIT(priority=0x10, entity_id=Magh Bihu (ID: 17580432/0x010C4190), tag_num=0x02)
248: 0x0A64 [0x23] WAIT_FOR_DIALOG_INTERACTION
249: 0x0A65 [0x27] REQ_SET(priority=0x10, entity_id=Magh Bihu (ID: 17580432/0x010C4190), tag_num=0x03)
250: 0x0A6C [0x52] END_LOAD_SCHEDULER: End scheduler "s012" with entities [EventEntity, EventEntity], work=900*
251: 0x0A7B [0x45] LOAD_SCHEDULED_TASK: Load scheduler "s013" with entities [EventEntity, EventEntity], work=[900*, 0*]
252: 0x0A8C [0x4A] Dazbog (ID: 17580433/0x010C4191) looks at Magh Bihu (ID: 17580432/0x010C4190)
253: 0x0A95 [0x6F] WAIT_FRAME_DELAY: Yield until WaitTime reaches zero
254: 0x0A96 [0x76] CHECK_ENTITY_RENDER_FLAGS: Wait until Dazbog (ID: 17580433/0x010C4191) Render.Flags0 and Render.Flags3 conditions are met
255: 0x0A9B [0x27] REQ_SET(priority=0x10, entity_id=Dazbog (ID: 17580433/0x010C4191), tag_num=0x0E)
256: 0x0AA2 [0x45] LOAD_SCHEDULED_TASK: Load scheduler "1003" with entities [EventEntity, EventEntity], work=[900*, 0*]
257: 0x0AB3 [0x2B] Dazbog (ID: 17580433/0x010C4191) [11533*]:
    → "I'm not trying to be a king, more like a proper nobleman."
258: 0x0ABA [0x23] WAIT_FOR_DIALOG_INTERACTION
259: 0x0ABB [0x29] REQ_SET_WAIT(priority=0x10, entity_id=Dazbog (ID: 17580433/0x010C4191), tag_num=0x0F)
260: 0x0AC2 [0x27] REQ_SET(priority=0x10, entity_id=Magh Bihu (ID: 17580432/0x010C4190), tag_num=0x01)
261: 0x0AC9 [0x2B] Magh Bihu (ID: 17580432/0x010C4190) [11534*]:
    → "It doesn't matter. I have something important to discuss with you."
262: 0x0AD0 [0x23] WAIT_FOR_DIALOG_INTERACTION
263: 0x0AD1 [0x2B] Magh Bihu (ID: 17580432/0x010C4190) [11535*]:
    → "According to <Player> here..."
264: 0x0AD8 [0x1C] WAIT(60* ticks)
265: 0x0ADB [0x29] REQ_SET_WAIT(priority=0x10, entity_id=Magh Bihu (ID: 17580432/0x010C4190), tag_num=0x02)
266: 0x0AE2 [0x27] REQ_SET(priority=0x10, entity_id=Magh Bihu (ID: 17580432/0x010C4190), tag_num=0x03)
267: 0x0AE9 [0x52] END_LOAD_SCHEDULER: End scheduler "s013" with entities [EventEntity, EventEntity], work=900*
268: 0x0AF8 [0x45] LOAD_SCHEDULED_TASK: Load scheduler "s014" with entities [EventEntity, EventEntity], work=[900*, 0*]
269: 0x0B09 [0x27] REQ_SET(priority=0x10, entity_id=Dazbog (ID: 17580433/0x010C4191), tag_num=0x0A)
270: 0x0B10 [0x45] LOAD_SCHEDULED_TASK: Load scheduler "1001" with entities [EventEntity, EventEntity], work=[900*, 0*]
271: 0x0B21 [0x2B] Dazbog (ID: 17580433/0x010C4191) [11536*]:
    → "Ahem! I object!"
272: 0x0B28 [0x23] WAIT_FOR_DIALOG_INTERACTION
273: 0x0B29 [0x29] REQ_SET_WAIT(priority=0x10, entity_id=Dazbog (ID: 17580433/0x010C4191), tag_num=0x0B)
274: 0x0B30 [0x52] END_LOAD_SCHEDULER: End scheduler "s014" with entities [EventEntity, EventEntity], work=900*
275: 0x0B3F [0x45] LOAD_SCHEDULED_TASK: Load scheduler "s015" with entities [EventEntity, EventEntity], work=[900*, 0*]
276: 0x0B50 [0x27] REQ_SET(priority=0x10, entity_id=Magh Bihu (ID: 17580432/0x010C4190), tag_num=0x09)
277: 0x0B57 [0x2B] Magh Bihu (ID: 17580432/0x010C4190) [11537*]:
    → "Huh!? What are you talking about!?"
278: 0x0B5E [0x23] WAIT_FOR_DIALOG_INTERACTION
279: 0x0B5F [0x29] REQ_SET_WAIT(priority=0x10, entity_id=Magh Bihu (ID: 17580432/0x010C4190), tag_num=0x0A)
280: 0x0B66 [0x52] END_LOAD_SCHEDULER: End scheduler "s015" with entities [EventEntity, EventEntity], work=900*
281: 0x0B75 [0x02] IF !(LocalPlayer->Race == 3*) GOTO 0x0B91
282: 0x0B7D [0x45] LOAD_SCHEDULED_TASK: Load scheduler "sg16" with entities [EventEntity, EventEntity], work=[900*, 0*]
283: 0x0B8E [0x01] GOTO 0x0C12
284: 0x0B91 [0x02] IF !(LocalPlayer->Race == 4*) GOTO 0x0BAD
285: 0x0B99 [0x45] LOAD_SCHEDULED_TASK: Load scheduler "sg16" with entities [EventEntity, EventEntity], work=[900*, 0*]
286: 0x0BAA [0x01] GOTO 0x0C12
287: 0x0BAD [0x02] IF !(LocalPlayer->Race == 5*) GOTO 0x0BC9
288: 0x0BB5 [0x45] LOAD_SCHEDULED_TASK: Load scheduler "st16" with entities [EventEntity, EventEntity], work=[900*, 0*]
289: 0x0BC6 [0x01] GOTO 0x0C12
290: 0x0BC9 [0x02] IF !(LocalPlayer->Race == 6*) GOTO 0x0BE5
291: 0x0BD1 [0x45] LOAD_SCHEDULED_TASK: Load scheduler "st16" with entities [EventEntity, EventEntity], work=[900*, 0*]
292: 0x0BE2 [0x01] GOTO 0x0C12
293: 0x0BE5 [0x02] IF !(LocalPlayer->Race == 8*) GOTO 0x0C01
294: 0x0BED [0x45] LOAD_SCHEDULED_TASK: Load scheduler "sg16" with entities [EventEntity, EventEntity], work=[900*, 0*]
295: 0x0BFE [0x01] GOTO 0x0C12
296: 0x0C01 [0x45] LOAD_SCHEDULED_TASK: Load scheduler "s016" with entities [EventEntity, EventEntity], work=[900*, 0*]

SUBROUTINE_0C12:
297: 0x0C12 [0x4A] Dazbog (ID: 17580433/0x010C4191) looks at LocalPlayer
298: 0x0C1B [0x6F] WAIT_FRAME_DELAY: Yield until WaitTime reaches zero
299: 0x0C1C [0x76] CHECK_ENTITY_RENDER_FLAGS: Wait until Dazbog (ID: 17580433/0x010C4191) Render.Flags0 and Render.Flags3 conditions are met
300: 0x0C21 [0x45] LOAD_SCHEDULED_TASK: Load scheduler "1002" with entities [EventEntity, EventEntity], work=[900*, 0*]
301: 0x0C32 [0x2B] Dazbog (ID: 17580433/0x010C4191) [11538*]:
    → "<Player>, my 101st follower..."
302: 0x0C39 [0x23] WAIT_FOR_DIALOG_INTERACTION
303: 0x0C3A [0x2B] Dazbog (ID: 17580433/0x010C4191) [11539*]:
    → "Have you not brought proper tribute for your lord?"
304: 0x0C41 [0x23] WAIT_FOR_DIALOG_INTERACTION
305: 0x0C42 [0x24] CREATE_DIALOG(message_id=11540*, default_option=0*, option_flags=0*)
    → "Did you bring tribute? [Yes, it's right here./Sorry, not this time.]"
306: 0x0C49 [0x25] WAIT_DIALOG_SELECT()
307: 0x0C4A [0x02] IF !(Work_Zone[0] == 0*) GOTO 0x0D2D
308: 0x0C52 [0x6E] LocalPlayer uses emote 7*
309: 0x0C59 [0x99] Wait for LocalPlayer animation to complete
310: 0x0C5E [0x1C] WAIT(90* ticks)
311: 0x0C61 [0x02] IF !(LocalPlayer->Race == 3*) GOTO 0x0C7B
312: 0x0C69 [0x52] END_LOAD_SCHEDULER: End scheduler "sg16" with entities [EventEntity, EventEntity], work=900*
313: 0x0C78 [0x01] GOTO 0x0CF2
314: 0x0C7B [0x02] IF !(LocalPlayer->Race == 4*) GOTO 0x0C95
315: 0x0C83 [0x52] END_LOAD_SCHEDULER: End scheduler "sg16" with entities [EventEntity, EventEntity], work=900*
316: 0x0C92 [0x01] GOTO 0x0CF2
317: 0x0C95 [0x02] IF !(LocalPlayer->Race == 5*) GOTO 0x0CAF
318: 0x0C9D [0x52] END_LOAD_SCHEDULER: End scheduler "st16" with entities [EventEntity, EventEntity], work=900*
319: 0x0CAC [0x01] GOTO 0x0CF2
320: 0x0CAF [0x02] IF !(LocalPlayer->Race == 6*) GOTO 0x0CC9
321: 0x0CB7 [0x52] END_LOAD_SCHEDULER: End scheduler "st16" with entities [EventEntity, EventEntity], work=900*
322: 0x0CC6 [0x01] GOTO 0x0CF2
323: 0x0CC9 [0x02] IF !(LocalPlayer->Race == 8*) GOTO 0x0CE3
324: 0x0CD1 [0x52] END_LOAD_SCHEDULER: End scheduler "sg16" with entities [EventEntity, EventEntity], work=900*
325: 0x0CE0 [0x01] GOTO 0x0CF2
326: 0x0CE3 [0x52] END_LOAD_SCHEDULER: End scheduler "s016" with entities [EventEntity, EventEntity], work=900*

SUBROUTINE_0CF2:
327: 0x0CF2 [0x45] LOAD_SCHEDULED_TASK: Load scheduler "s017" with entities [EventEntity, EventEntity], work=[900*, 0*]
328: 0x0D03 [0x27] REQ_SET(priority=0x10, entity_id=Dazbog (ID: 17580433/0x010C4191), tag_num=0x0E)
329: 0x0D0A [0x45] LOAD_SCHEDULED_TASK: Load scheduler "1003" with entities [EventEntity, EventEntity], work=[900*, 0*]
330: 0x0D1B [0x2B] Dazbog (ID: 17580433/0x010C4191) [11541*]:
    → "You should not lie to me. I do not detect any scent of a tribute."
331: 0x0D22 [0x23] WAIT_FOR_DIALOG_INTERACTION
332: 0x0D23 [0x29] REQ_SET_WAIT(priority=0x10, entity_id=Dazbog (ID: 17580433/0x010C4191), tag_num=0x0F)
333: 0x0D2A [0x01] GOTO 0x0E10
334: 0x0D2D [0x02] IF !(Work_Zone[0] == 1*) GOTO 0x0E10
335: 0x0D35 [0x6E] LocalPlayer uses emote 6*
336: 0x0D3C [0x99] Wait for LocalPlayer animation to complete
337: 0x0D41 [0x1C] WAIT(90* ticks)
338: 0x0D44 [0x02] IF !(LocalPlayer->Race == 3*) GOTO 0x0D5E
339: 0x0D4C [0x52] END_LOAD_SCHEDULER: End scheduler "sg16" with entities [EventEntity, EventEntity], work=900*
340: 0x0D5B [0x01] GOTO 0x0DD5
341: 0x0D5E [0x02] IF !(LocalPlayer->Race == 4*) GOTO 0x0D78
342: 0x0D66 [0x52] END_LOAD_SCHEDULER: End scheduler "sg16" with entities [EventEntity, EventEntity], work=900*
343: 0x0D75 [0x01] GOTO 0x0DD5
344: 0x0D78 [0x02] IF !(LocalPlayer->Race == 5*) GOTO 0x0D92
345: 0x0D80 [0x52] END_LOAD_SCHEDULER: End scheduler "st16" with entities [EventEntity, EventEntity], work=900*
346: 0x0D8F [0x01] GOTO 0x0DD5
347: 0x0D92 [0x02] IF !(LocalPlayer->Race == 6*) GOTO 0x0DAC
348: 0x0D9A [0x52] END_LOAD_SCHEDULER: End scheduler "st16" with entities [EventEntity, EventEntity], work=900*
349: 0x0DA9 [0x01] GOTO 0x0DD5
350: 0x0DAC [0x02] IF !(LocalPlayer->Race == 8*) GOTO 0x0DC6
351: 0x0DB4 [0x52] END_LOAD_SCHEDULER: End scheduler "sg16" with entities [EventEntity, EventEntity], work=900*
352: 0x0DC3 [0x01] GOTO 0x0DD5
353: 0x0DC6 [0x52] END_LOAD_SCHEDULER: End scheduler "s016" with entities [EventEntity, EventEntity], work=900*

SUBROUTINE_0DD5:
354: 0x0DD5 [0x45] LOAD_SCHEDULED_TASK: Load scheduler "s017" with entities [EventEntity, EventEntity], work=[900*, 0*]
355: 0x0DE6 [0x27] REQ_SET(priority=0x10, entity_id=Dazbog (ID: 17580433/0x010C4191), tag_num=0x0E)
356: 0x0DED [0x45] LOAD_SCHEDULED_TASK: Load scheduler "1003" with entities [EventEntity, EventEntity], work=[900*, 0*]
357: 0x0DFE [0x2B] Dazbog (ID: 17580433/0x010C4191) [11542*]:
    → "I shall not grant you an audience without the proper tribute."
358: 0x0E05 [0x23] WAIT_FOR_DIALOG_INTERACTION
359: 0x0E06 [0x29] REQ_SET_WAIT(priority=0x10, entity_id=Dazbog (ID: 17580433/0x010C4191), tag_num=0x0F)
360: 0x0E0D [0x01] GOTO 0x0E10

SUBROUTINE_0E10:
361: 0x0E10 [0x52] END_LOAD_SCHEDULER: End scheduler "s017" with entities [EventEntity, EventEntity], work=900*
362: 0x0E1F [0x02] IF !(LocalPlayer->Race == 3*) GOTO 0x0E3B
363: 0x0E27 [0x45] LOAD_SCHEDULED_TASK: Load scheduler "sg18" with entities [EventEntity, EventEntity], work=[900*, 0*]
364: 0x0E38 [0x01] GOTO 0x0EBC
365: 0x0E3B [0x02] IF !(LocalPlayer->Race == 4*) GOTO 0x0E57
366: 0x0E43 [0x45] LOAD_SCHEDULED_TASK: Load scheduler "sg18" with entities [EventEntity, EventEntity], work=[900*, 0*]
367: 0x0E54 [0x01] GOTO 0x0EBC
368: 0x0E57 [0x02] IF !(LocalPlayer->Race == 5*) GOTO 0x0E73
369: 0x0E5F [0x45] LOAD_SCHEDULED_TASK: Load scheduler "st18" with entities [EventEntity, EventEntity], work=[900*, 0*]
370: 0x0E70 [0x01] GOTO 0x0EBC
371: 0x0E73 [0x02] IF !(LocalPlayer->Race == 6*) GOTO 0x0E8F
372: 0x0E7B [0x45] LOAD_SCHEDULED_TASK: Load scheduler "st18" with entities [EventEntity, EventEntity], work=[900*, 0*]
373: 0x0E8C [0x01] GOTO 0x0EBC
374: 0x0E8F [0x02] IF !(LocalPlayer->Race == 8*) GOTO 0x0EAB
375: 0x0E97 [0x45] LOAD_SCHEDULED_TASK: Load scheduler "sg18" with entities [EventEntity, EventEntity], work=[900*, 0*]
376: 0x0EA8 [0x01] GOTO 0x0EBC
377: 0x0EAB [0x45] LOAD_SCHEDULED_TASK: Load scheduler "s018" with entities [EventEntity, EventEntity], work=[900*, 0*]

SUBROUTINE_0EBC:
378: 0x0EBC [0x4A] Magh Bihu (ID: 17580432/0x010C4190) looks at LocalPlayer
379: 0x0EC5 [0x6F] WAIT_FRAME_DELAY: Yield until WaitTime reaches zero
380: 0x0EC6 [0x76] CHECK_ENTITY_RENDER_FLAGS: Wait until Magh Bihu (ID: 17580432/0x010C4190) Render.Flags0 and Render.Flags3 conditions are met
381: 0x0ECB [0x27] REQ_SET(priority=0x10, entity_id=Magh Bihu (ID: 17580432/0x010C4190), tag_num=0x01)
382: 0x0ED2 [0x45] LOAD_SCHEDULED_TASK: Load scheduler "0007" with entities [EventEntity, EventEntity], work=[900*, 0*]
383: 0x0EE3 [0x2B] Magh Bihu (ID: 17580432/0x010C4190) [11543*]:
    → "I was told the same thing when I came here with Gloom Phantom."
384: 0x0EEA [0x1C] WAIT(60* ticks)
385: 0x0EED [0x4A] LocalPlayer looks at Magh Bihu (ID: 17580432/0x010C4190)
386: 0x0EF6 [0x29] REQ_SET_WAIT(priority=0x10, entity_id=Magh Bihu (ID: 17580432/0x010C4190), tag_num=0x02)
387: 0x0EFD [0x23] WAIT_FOR_DIALOG_INTERACTION
388: 0x0EFE [0x27] REQ_SET(priority=0x10, entity_id=Magh Bihu (ID: 17580432/0x010C4190), tag_num=0x03)
389: 0x0F05 [0x2B] Magh Bihu (ID: 17580432/0x010C4190) [11544*]:
    → "That was the first time I met Dazbog."
390: 0x0F0C [0x23] WAIT_FOR_DIALOG_INTERACTION
391: 0x0F0D [0x29] REQ_SET_WAIT(priority=0x10, entity_id=Magh Bihu (ID: 17580432/0x010C4190), tag_num=0x04)
392: 0x0F14 [0x02] IF !(LocalPlayer->Race == 3*) GOTO 0x0F2E
393: 0x0F1C [0x52] END_LOAD_SCHEDULER: End scheduler "sg18" with entities [EventEntity, EventEntity], work=900*
394: 0x0F2B [0x01] GOTO 0x0FA5
395: 0x0F2E [0x02] IF !(LocalPlayer->Race == 4*) GOTO 0x0F48
396: 0x0F36 [0x52] END_LOAD_SCHEDULER: End scheduler "sg18" with entities [EventEntity, EventEntity], work=900*
397: 0x0F45 [0x01] GOTO 0x0FA5
398: 0x0F48 [0x02] IF !(LocalPlayer->Race == 5*) GOTO 0x0F62
399: 0x0F50 [0x52] END_LOAD_SCHEDULER: End scheduler "st18" with entities [EventEntity, EventEntity], work=900*
400: 0x0F5F [0x01] GOTO 0x0FA5
401: 0x0F62 [0x02] IF !(LocalPlayer->Race == 6*) GOTO 0x0F7C
402: 0x0F6A [0x52] END_LOAD_SCHEDULER: End scheduler "st18" with entities [EventEntity, EventEntity], work=900*
403: 0x0F79 [0x01] GOTO 0x0FA5
404: 0x0F7C [0x02] IF !(LocalPlayer->Race == 8*) GOTO 0x0F96
405: 0x0F84 [0x52] END_LOAD_SCHEDULER: End scheduler "sg18" with entities [EventEntity, EventEntity], work=900*
406: 0x0F93 [0x01] GOTO 0x0FA5
407: 0x0F96 [0x52] END_LOAD_SCHEDULER: End scheduler "s018" with entities [EventEntity, EventEntity], work=900*

SUBROUTINE_0FA5:
408: 0x0FA5 [0x45] LOAD_SCHEDULED_TASK: Load scheduler "s019" with entities [EventEntity, EventEntity], work=[900*, 0*]
409: 0x0FB6 [0x27] REQ_SET(priority=0x10, entity_id=Magh Bihu (ID: 17580432/0x010C4190), tag_num=0x16)
410: 0x0FBD [0x2B] Magh Bihu (ID: 17580432/0x010C4190) [11545*]:
    → "We were traveling the land, talking about the World Eater Eggs and recruiting allies."
411: 0x0FC4 [0x23] WAIT_FOR_DIALOG_INTERACTION
412: 0x0FC5 [0x4A] Dazbog (ID: 17580433/0x010C4191) looks at Magh Bihu (ID: 17580432/0x010C4190)
413: 0x0FCE [0x2B] Magh Bihu (ID: 17580432/0x010C4190) [11546*]:
    → "However, we were constantly turned away and weren't having the best of luck."
414: 0x0FD5 [0x23] WAIT_FOR_DIALOG_INTERACTION
415: 0x0FD6 [0x2A] GET_REQ_LEVEL(level=16, entity_id=Magh Bihu (ID: 17580432/0x010C4190))
416: 0x0FDC [0x52] END_LOAD_SCHEDULER: End scheduler "s019" with entities [EventEntity, EventEntity], work=900*
417: 0x0FEB [0x45] LOAD_SCHEDULED_TASK: Load scheduler "s020" with entities [EventEntity, EventEntity], work=[900*, 0*]
418: 0x0FFC [0x27] REQ_SET(priority=0x10, entity_id=Magh Bihu (ID: 17580432/0x010C4190), tag_num=0x0D)
419: 0x1003 [0x2B] Magh Bihu (ID: 17580432/0x010C4190) [11547*]:
    → "Eventually, we ended up here and found someone who knew about the Prime Weapon."
420: 0x100A [0x1C] WAIT(60* ticks)
421: 0x100D [0x45] LOAD_SCHEDULED_TASK: Load scheduler "0014" with entities [EventEntity, EventEntity], work=[900*, 0*]
422: 0x101E [0x29] REQ_SET_WAIT(priority=0x10, entity_id=Magh Bihu (ID: 17580432/0x010C4190), tag_num=0x0E)
423: 0x1025 [0x23] WAIT_FOR_DIALOG_INTERACTION
424: 0x1026 [0x52] END_LOAD_SCHEDULER: End scheduler "s020" with entities [EventEntity, EventEntity], work=900*
425: 0x1035 [0x45] LOAD_SCHEDULED_TASK: Load scheduler "s021" with entities [EventEntity, EventEntity], work=[900*, 0*]
426: 0x1046 [0x27] REQ_SET(priority=0x10, entity_id=Magh Bihu (ID: 17580432/0x010C4190), tag_num=0x17)
427: 0x104D [0x2B] Magh Bihu (ID: 17580432/0x010C4190) [11548*]:
    → "So that is why I worked so hard alongside Gloom Phantom here."
428: 0x1054 [0x23] WAIT_FOR_DIALOG_INTERACTION
429: 0x1055 [0x2B] Magh Bihu (ID: 17580432/0x010C4190) [11549*]:
    → "However, it was always a mystery to know what to bring as tribute. We were constantly forced to bring something else."
430: 0x105C [0x23] WAIT_FOR_DIALOG_INTERACTION
431: 0x105D [0x2A] GET_REQ_LEVEL(level=16, entity_id=Magh Bihu (ID: 17580432/0x010C4190))
432: 0x1063 [0x4A] Dazbog (ID: 17580433/0x010C4191) looks at Magh Bihu (ID: 17580432/0x010C4190)
433: 0x106C [0x52] END_LOAD_SCHEDULER: End scheduler "s021" with entities [EventEntity, EventEntity], work=900*
434: 0x107B [0x45] LOAD_SCHEDULED_TASK: Load scheduler "s022" with entities [EventEntity, EventEntity], work=[900*, 0*]
435: 0x108C [0x27] REQ_SET(priority=0x10, entity_id=Magh Bihu (ID: 17580432/0x010C4190), tag_num=0x05)
436: 0x1093 [0x2B] Magh Bihu (ID: 17580432/0x010C4190) [11550*]:
    → ""No good! Try again!" I heard those words countless times..."
437: 0x109A [0x1C] WAIT(30* ticks)
438: 0x109D [0x45] LOAD_SCHEDULED_TASK: Load scheduler "0005" with entities [EventEntity, EventEntity], work=[900*, 0*]
439: 0x10AE [0x29] REQ_SET_WAIT(priority=0x10, entity_id=Magh Bihu (ID: 17580432/0x010C4190), tag_num=0x06)
440: 0x10B5 [0x23] WAIT_FOR_DIALOG_INTERACTION
441: 0x10B6 [0x27] REQ_SET(priority=0x10, entity_id=Magh Bihu (ID: 17580432/0x010C4190), tag_num=0x07)
442: 0x10BD [0x29] REQ_SET_WAIT(priority=0x10, entity_id=Magh Bihu (ID: 17580432/0x010C4190), tag_num=0x08)
443: 0x10C4 [0x27] REQ_SET(priority=0x10, entity_id=Magh Bihu (ID: 17580432/0x010C4190), tag_num=0x09)
444: 0x10CB [0x2B] Magh Bihu (ID: 17580432/0x010C4190) [11551*]:
    → "Wait... Maybe I'm thinking of something else?"
445: 0x10D2 [0x23] WAIT_FOR_DIALOG_INTERACTION
446: 0x10D3 [0x29] REQ_SET_WAIT(priority=0x10, entity_id=Magh Bihu (ID: 17580432/0x010C4190), tag_num=0x0A)
447: 0x10DA [0x52] END_LOAD_SCHEDULER: End scheduler "s022" with entities [EventEntity, EventEntity], work=900*
448: 0x10E9 [0x45] LOAD_SCHEDULED_TASK: Load scheduler "s023" with entities [EventEntity, EventEntity], work=[900*, 0*]
449: 0x10FA [0x27] REQ_SET(priority=0x10, entity_id=Dazbog (ID: 17580433/0x010C4191), tag_num=0x13)
450: 0x1101 [0x45] LOAD_SCHEDULED_TASK: Load scheduler "1001" with entities [EventEntity, EventEntity], work=[900*, 0*]
451: 0x1112 [0x2B] Dazbog (ID: 17580433/0x010C4191) [11552*]:
    → "Ahem! Now then, my 101st follower... I look forward to what you will bring me."
452: 0x1119 [0x1C] WAIT(30* ticks)
453: 0x111C [0x4A] Magh Bihu (ID: 17580432/0x010C4190) looks at Dazbog (ID: 17580433/0x010C4191)
454: 0x1125 [0x4A] LocalPlayer looks at Dazbog (ID: 17580433/0x010C4191)
455: 0x112E [0x1C] WAIT(180* ticks)
456: 0x1131 [0x1A] CALL_SUBROUTINE(address=0x0064)
457: 0x1134 [0x7A] VM_CONTROL: Reset VM for Dazbog (ID: 17580433/0x010C4191)
458: 0x113A [0x4E] SET_ENTITY_HIDE_FLAG: Hide Dazbog (ID: 17580433/0x010C4191)
459: 0x1140 [0xBA] SET_ENTITY_POSITION(entity_id=Hedrov (ID: 17580431/0x010C418F), pos_x=-124.772*, pos_z=338.461*, pos_y=1.773*, direction=342.8°*)
460: 0x114D [0xBA] SET_ENTITY_POSITION(entity_id=Magh Bihu (ID: 17580432/0x010C4190), pos_x=-121.145*, pos_z=323.658*, pos_y=1.200*, direction=281.8°*)
461: 0x115A [0xBA] SET_ENTITY_POSITION(entity_id=LocalPlayer, pos_x=-120.304*, pos_z=325.931*, pos_y=1.249*, direction=100.5°*)
462: 0x1167 [0x4A] Magh Bihu (ID: 17580432/0x010C4190) looks at LocalPlayer
463: 0x1170 [0x4A] LocalPlayer looks at Magh Bihu (ID: 17580432/0x010C4190)
464: 0x1179 [0x6F] WAIT_FRAME_DELAY: Yield until WaitTime reaches zero
465: 0x117A [0x76] CHECK_ENTITY_RENDER_FLAGS: Wait until LocalPlayer Render.Flags0 and Render.Flags3 conditions are met
466: 0x117F [0x6F] WAIT_FRAME_DELAY: Yield until WaitTime reaches zero
467: 0x1180 [0x76] CHECK_ENTITY_RENDER_FLAGS: Wait until Magh Bihu (ID: 17580432/0x010C4190) Render.Flags0 and Render.Flags3 conditions are met
468: 0x1185 [0x48] [System] [11513*]:
    → "@@"
469: 0x1188 [0x1C] WAIT(60* ticks)
470: 0x118B [0x52] END_LOAD_SCHEDULER: End scheduler "s023" with entities [EventEntity, EventEntity], work=900*
471: 0x119A [0x45] LOAD_SCHEDULED_TASK: Load scheduler "s024" with entities [EventEntity, EventEntity], work=[900*, 0*]
472: 0x11AB [0x1A] CALL_SUBROUTINE(address=0x0043)
473: 0x11AE [0x27] REQ_SET(priority=0x10, entity_id=Magh Bihu (ID: 17580432/0x010C4190), tag_num=0x09)
474: 0x11B5 [0x2B] Magh Bihu (ID: 17580432/0x010C4190) [11553*]:
    → "Well, I suppose we have no choice but to play along with Dazbog's little game again."
475: 0x11BC [0x23] WAIT_FOR_DIALOG_INTERACTION
476: 0x11BD [0x29] REQ_SET_WAIT(priority=0x10, entity_id=Magh Bihu (ID: 17580432/0x010C4190), tag_num=0x0A)
477: 0x11C4 [0x52] END_LOAD_SCHEDULER: End scheduler "s024" with entities [EventEntity, EventEntity], work=900*
478: 0x11D3 [0x02] IF !(LocalPlayer->Race == 3*) GOTO 0x11EF
479: 0x11DB [0x45] LOAD_SCHEDULED_TASK: Load scheduler "sg25" with entities [EventEntity, EventEntity], work=[900*, 0*]
480: 0x11EC [0x01] GOTO 0x1270
481: 0x11EF [0x02] IF !(LocalPlayer->Race == 4*) GOTO 0x120B
482: 0x11F7 [0x45] LOAD_SCHEDULED_TASK: Load scheduler "sg25" with entities [EventEntity, EventEntity], work=[900*, 0*]
483: 0x1208 [0x01] GOTO 0x1270
484: 0x120B [0x02] IF !(LocalPlayer->Race == 5*) GOTO 0x1227
485: 0x1213 [0x45] LOAD_SCHEDULED_TASK: Load scheduler "st25" with entities [EventEntity, EventEntity], work=[900*, 0*]
486: 0x1224 [0x01] GOTO 0x1270
487: 0x1227 [0x02] IF !(LocalPlayer->Race == 6*) GOTO 0x1243
488: 0x122F [0x45] LOAD_SCHEDULED_TASK: Load scheduler "st25" with entities [EventEntity, EventEntity], work=[900*, 0*]
489: 0x1240 [0x01] GOTO 0x1270
490: 0x1243 [0x02] IF !(LocalPlayer->Race == 8*) GOTO 0x125F
491: 0x124B [0x45] LOAD_SCHEDULED_TASK: Load scheduler "sg25" with entities [EventEntity, EventEntity], work=[900*, 0*]
492: 0x125C [0x01] GOTO 0x1270
493: 0x125F [0x45] LOAD_SCHEDULED_TASK: Load scheduler "s025" with entities [EventEntity, EventEntity], work=[900*, 0*]

SUBROUTINE_1270:
494: 0x1270 [0x27] REQ_SET(priority=0x10, entity_id=Magh Bihu (ID: 17580432/0x010C4190), tag_num=0x01)
495: 0x1277 [0x03] Work_Zone[3] = 9936*
496: 0x127C [0x2B] Magh Bihu (ID: 17580432/0x010C4190) [11554*]:
    → "We should be okay if we bring him a number of $1 like last time."
497: 0x1283 [0x1C] WAIT(60* ticks)
498: 0x1286 [0x45] LOAD_SCHEDULED_TASK: Load scheduler "0007" with entities [EventEntity, EventEntity], work=[900*, 0*]
499: 0x1297 [0x23] WAIT_FOR_DIALOG_INTERACTION
500: 0x1298 [0x03] Work_Zone[4] = 6*
501: 0x129D [0x2B] Magh Bihu (ID: 17580432/0x010C4190) [11555*]:
    → "If we bring him $2, I think His Lordship will be satisfied!"
502: 0x12A4 [0x23] WAIT_FOR_DIALOG_INTERACTION
503: 0x12A5 [0x29] REQ_SET_WAIT(priority=0x10, entity_id=Magh Bihu (ID: 17580432/0x010C4190), tag_num=0x02)
504: 0x12AC [0x02] IF !(LocalPlayer->Race == 3*) GOTO 0x12D7
505: 0x12B4 [0x52] END_LOAD_SCHEDULER: End scheduler "sg25" with entities [EventEntity, EventEntity], work=900*
506: 0x12C3 [0x45] LOAD_SCHEDULED_TASK: Load scheduler "sg26" with entities [EventEntity, EventEntity], work=[900*, 0*]
507: 0x12D4 [0x01] GOTO 0x13A3
508: 0x12D7 [0x02] IF !(LocalPlayer->Race == 4*) GOTO 0x1302
509: 0x12DF [0x52] END_LOAD_SCHEDULER: End scheduler "sg25" with entities [EventEntity, EventEntity], work=900*
510: 0x12EE [0x45] LOAD_SCHEDULED_TASK: Load scheduler "sg26" with entities [EventEntity, EventEntity], work=[900*, 0*]
511: 0x12FF [0x01] GOTO 0x13A3
512: 0x1302 [0x02] IF !(LocalPlayer->Race == 5*) GOTO 0x132D
513: 0x130A [0x52] END_LOAD_SCHEDULER: End scheduler "st25" with entities [EventEntity, EventEntity], work=900*
514: 0x1319 [0x45] LOAD_SCHEDULED_TASK: Load scheduler "st26" with entities [EventEntity, EventEntity], work=[900*, 0*]
515: 0x132A [0x01] GOTO 0x13A3
516: 0x132D [0x02] IF !(LocalPlayer->Race == 6*) GOTO 0x1358
517: 0x1335 [0x52] END_LOAD_SCHEDULER: End scheduler "st25" with entities [EventEntity, EventEntity], work=900*
518: 0x1344 [0x45] LOAD_SCHEDULED_TASK: Load scheduler "st26" with entities [EventEntity, EventEntity], work=[900*, 0*]
519: 0x1355 [0x01] GOTO 0x13A3
520: 0x1358 [0x02] IF !(LocalPlayer->Race == 8*) GOTO 0x1383
521: 0x1360 [0x52] END_LOAD_SCHEDULER: End scheduler "sg25" with entities [EventEntity, EventEntity], work=900*
522: 0x136F [0x45] LOAD_SCHEDULED_TASK: Load scheduler "sg26" with entities [EventEntity, EventEntity], work=[900*, 0*]
523: 0x1380 [0x01] GOTO 0x13A3
524: 0x1383 [0x52] END_LOAD_SCHEDULER: End scheduler "s025" with entities [EventEntity, EventEntity], work=900*
525: 0x1392 [0x45] LOAD_SCHEDULED_TASK: Load scheduler "s026" with entities [EventEntity, EventEntity], work=[900*, 0*]

SUBROUTINE_13A3:
526: 0x13A3 [0x27] REQ_SET(priority=0x10, entity_id=Magh Bihu (ID: 17580432/0x010C4190), tag_num=0x03)
527: 0x13AA [0x2B] Magh Bihu (ID: 17580432/0x010C4190) [11556*]:
    → "In case you're wondering, this is supposed to be a tribute from His Lordship's 101st follower. So you can leave me out of this."
528: 0x13B1 [0x23] WAIT_FOR_DIALOG_INTERACTION
529: 0x13B2 [0x29] REQ_SET_WAIT(priority=0x10, entity_id=Magh Bihu (ID: 17580432/0x010C4190), tag_num=0x04)
530: 0x13B9 [0x27] REQ_SET(priority=0x10, entity_id=Magh Bihu (ID: 17580432/0x010C4190), tag_num=0x0F)
531: 0x13C0 [0x45] LOAD_SCHEDULED_TASK: Load scheduler "0011" with entities [EventEntity, EventEntity], work=[900*, 0*]
532: 0x13D1 [0x2B] Magh Bihu (ID: 17580432/0x010C4190) [11557*]:
    → "I think I'll try and catch some sun while I'm waiting!"
533: 0x13D8 [0x23] WAIT_FOR_DIALOG_INTERACTION
534: 0x13D9 [0x29] REQ_SET_WAIT(priority=0x10, entity_id=Magh Bihu (ID: 17580432/0x010C4190), tag_num=0x10)
535: 0x13E0 [0x02] IF !(LocalPlayer->Race == 3*) GOTO 0x13FA
536: 0x13E8 [0x52] END_LOAD_SCHEDULER: End scheduler "sg26" with entities [EventEntity, EventEntity], work=900*
537: 0x13F7 [0x01] GOTO 0x1471
538: 0x13FA [0x02] IF !(LocalPlayer->Race == 4*) GOTO 0x1414
539: 0x1402 [0x52] END_LOAD_SCHEDULER: End scheduler "sg26" with entities [EventEntity, EventEntity], work=900*
540: 0x1411 [0x01] GOTO 0x1471
541: 0x1414 [0x02] IF !(LocalPlayer->Race == 5*) GOTO 0x142E
542: 0x141C [0x52] END_LOAD_SCHEDULER: End scheduler "st26" with entities [EventEntity, EventEntity], work=900*
543: 0x142B [0x01] GOTO 0x1471
544: 0x142E [0x02] IF !(LocalPlayer->Race == 6*) GOTO 0x1448
545: 0x1436 [0x52] END_LOAD_SCHEDULER: End scheduler "st26" with entities [EventEntity, EventEntity], work=900*
546: 0x1445 [0x01] GOTO 0x1471
547: 0x1448 [0x02] IF !(LocalPlayer->Race == 8*) GOTO 0x1462
548: 0x1450 [0x52] END_LOAD_SCHEDULER: End scheduler "sg26" with entities [EventEntity, EventEntity], work=900*
549: 0x145F [0x01] GOTO 0x1471
550: 0x1462 [0x52] END_LOAD_SCHEDULER: End scheduler "s026" with entities [EventEntity, EventEntity], work=900*

SUBROUTINE_1471:
551: 0x1471 [0x45] LOAD_SCHEDULED_TASK: Load scheduler "s027" with entities [EventEntity, EventEntity], work=[900*, 0*]
552: 0x1482 [0x27] REQ_SET(priority=0x10, entity_id=Magh Bihu (ID: 17580432/0x010C4190), tag_num=0x18)
553: 0x1489 [0x1C] WAIT(360* ticks)
554: 0x148C [0x5D] SET_MUSIC_VOLUME(volume=0*, fade_time=300*)
555: 0x1491 [0x1A] CALL_SUBROUTINE(address=0x0064)
556: 0x1494 [0x52] END_LOAD_SCHEDULER: End scheduler "s027" with entities [EventEntity, EventEntity], work=900*
557: 0x14A3 [0x7A] VM_CONTROL: Reset VM for Magh Bihu (ID: 17580432/0x010C4190)
558: 0x14A9 [0x5C] MUSIC_CONTROL: Set Idle (Day) music to song 0*
559: 0x14AD [0x5C] MUSIC_CONTROL: Set Idle (Night) music to song 0*
560: 0x14B1 [0x9A] WAIT_MUSIC_SERVER()
561: 0x14B2 [0x5D] SET_MUSIC_VOLUME(volume=127*, fade_time=1*)
562: 0x14B7 [0x1C] WAIT(15* ticks)
563: 0x14BA [0xAB] EventEntity->DespawnValue = 0* // Set despawn value
564: 0x14BE [0x1C] WAIT(1* ticks)
565: 0x14C1 [0x46] CAMERA_CONTROL: Restore default settings
566: 0x14C3 [0x45] LOAD_SCHEDULED_TASK: Load scheduler "fdi2" with entities [EventEntity, EventEntity], work=[200*, 0*]
567: 0x14D4 [0x21] END_EVENT
568: 0x14D5 [0x00] END_REQSTACK()
```

### Event 154

#### Metadata

| Field        | Value      |
|--------------|------------|
| Entrypoint   | 0x14D6     |
| Data Size    | 3989 bytes |
| Instructions | 494        |

```
      00 01 02 03 04 05 06 07  08 09 0A 0B 0C 0D 0E 0F
      -- -- -- -- -- -- -- --  -- -- -- -- -- -- -- --
14D0:                   42 1A  64 00 46 01 38 09 80 2F        B.d.F.8../
14E0: 00 90 41 0C 01 2F 00 91  41 0C 01 4E 00 90 41 0C  ..A../..A..N..A.
14F0: 01 4E 00 91 41 0C 01 92  01 8F 41 0C 01 94 01 8F  .N..A.....A.....
1500: 41 0C 01 94 01 90 41 0C  01 94 01 91 41 0C 01 94  A.....A.....A...
1510: 01 F0 FF FF 7F BA 8F 41  0C 01 0A 80 0B 80 0C 80  .......A........
1520: 0D 80 BA 90 41 0C 01 63  80 64 80 65 80 66 80 BA  ....A..c.d.e.f..
1530: 91 41 0C 01 12 80 13 80  14 80 0D 80 BA F0 FF FF  .A..............
1540: 7F 15 80 16 80 17 80 18  80 80 8F 41 0C 01 80 90  ...........A....
1550: 41 0C 01 80 91 41 0C 01  80 F0 FF FF 7F 6C 91 41  A....A.......l.A
1560: 0C 01 01 80 03 80 4A F0  FF FF 7F 8F 41 0C 01 4A  ......J.....A..J
1570: 8F 41 0C 01 F0 FF FF 7F  4A 90 41 0C 01 8F 41 0C  .A......J.A...A.
1580: 01 6F 76 F0 FF FF 7F 6F  76 8F 41 0C 01 6F 76 90  .ov....ov.A..ov.
1590: 41 0C 01 5C 00 19 80 5C  01 19 80 9A 5D 1A 80 03  A..\...\....]...
15A0: 80 45 67 80 F8 FF FF 7F  F8 FF FF 7F 73 30 30 30  .Eg.........s000
15B0: 01 80 1A 43 00 45 67 80  F8 FF FF 7F F8 FF FF 7F  ...C.Eg.........
15C0: 31 30 30 32 01 80 2B 8F  41 0C 01 68 80 23 2B 8F  1002..+.A..h.#+.
15D0: 41 0C 01 69 80 23 27 10  8F 41 0C 01 04 1C 6A 80  A..i.#'..A....j.
15E0: 5D 01 80 08 80 1A 64 00  7A 00 8F 41 0C 01 BA 8F  ].....d.z..A....
15F0: 41 0C 01 33 80 34 80 35  80 36 80 6C 91 41 0C 01  A..3.4.5.6.l.A..
1600: 27 80 03 80 4A 90 41 0C  01 91 41 0C 01 4A F0 FF  '...J.A...A..J..
1610: FF 7F 91 41 0C 01 1C 23  80 48 37 80 1C 2C 80 5C  ...A...#.H7..,.\
1620: 00 38 80 5C 01 38 80 9A  5D 1A 80 03 80 52 67 80  .8.\.8..]....Rg.
1630: F8 FF FF 7F F8 FF FF 7F  73 30 30 30 45 67 80 F8  ........s000Eg..
1640: FF FF 7F F8 FF FF 7F 73  30 30 31 01 80 1A 43 00  .......s001...C.
1650: 45 67 80 F8 FF FF 7F F8  FF FF 7F 31 30 30 35 01  Eg.........1005.
1660: 80 2B 91 41 0C 01 6B 80  1C 29 80 52 67 80 F8 FF  .+.A..k..).Rg...
1670: FF 7F F8 FF FF 7F 73 30  30 31 45 67 80 F8 FF FF  ......s001Eg....
1680: 7F F8 FF FF 7F 73 30 30  32 01 80 27 10 8F 41 0C  .....s002..'..A.
1690: 01 05 27 10 91 41 0C 01  12 2B 8F 41 0C 01 6C 80  ..'..A...+.A..l.
16A0: 2A 10 91 41 0C 01 4A 90  41 0C 01 91 41 0C 01 4A  *..A..J.A...A..J
16B0: F0 FF FF 7F 91 41 0C 01  6F 76 90 41 0C 01 52 67  .....A..ov.A..Rg
16C0: 80 F8 FF FF 7F F8 FF FF  7F 73 30 30 32 45 67 80  .........s002Eg.
16D0: F8 FF FF 7F F8 FF FF 7F  73 30 30 33 01 80 45 67  ........s003..Eg
16E0: 80 F8 FF FF 7F F8 FF FF  7F 31 30 30 32 01 80 2B  .........1002..+
16F0: 91 41 0C 01 6D 80 1C 32  80 23 52 67 80 F8 FF FF  .A..m..2.#Rg....
1700: 7F F8 FF FF 7F 73 30 30  33 45 67 80 F8 FF FF 7F  .....s003Eg.....
1710: F8 FF FF 7F 73 30 30 34  01 80 27 10 90 41 0C 01  ....s004..'..A..
1720: 05 2B 90 41 0C 01 6E 80  1C 06 80 45 67 80 F8 FF  .+.A..n....Eg...
1730: FF 7F F8 FF FF 7F 30 30  31 34 01 80 29 10 90 41  ......0014..)..A
1740: 0C 01 06 23 27 10 90 41  0C 01 07 52 67 80 F8 FF  ...#'..A...Rg...
1750: FF 7F F8 FF FF 7F 73 30  30 34 02 87 7F 1B 80 80  ......s004......
1760: 76 17 45 67 80 F8 FF FF  7F F8 FF FF 7F 73 67 30  v.Eg.........sg0
1770: 35 01 80 01 F7 17 02 87  7F 1D 80 80 92 17 45 67  5.............Eg
1780: 80 F8 FF FF 7F F8 FF FF  7F 73 67 30 35 01 80 01  .........sg05...
1790: F7 17 02 87 7F 1E 80 80  AE 17 45 67 80 F8 FF FF  ..........Eg....
17A0: 7F F8 FF FF 7F 73 74 30  35 01 80 01 F7 17 02 87  .....st05.......
17B0: 7F 1F 80 80 CA 17 45 67  80 F8 FF FF 7F F8 FF FF  ......Eg........
17C0: 7F 73 74 30 35 01 80 01  F7 17 02 87 7F 20 80 80  .st05........ ..
17D0: E6 17 45 67 80 F8 FF FF  7F F8 FF FF 7F 73 67 30  ..Eg.........sg0
17E0: 35 01 80 01 F7 17 45 67  80 F8 FF FF 7F F8 FF FF  5.....Eg........
17F0: 7F 73 30 30 35 01 80 4A  91 41 0C 01 F0 FF FF 7F  .s005..J.A......
1800: 6F 76 91 41 0C 01 27 10  91 41 0C 01 0A 45 67 80  ov.A..'..A...Eg.
1810: F8 FF FF 7F F8 FF FF 7F  31 30 30 31 01 80 2B 91  ........1001..+.
1820: 41 0C 01 6F 80 23 2B 91  41 0C 01 70 80 23 29 10  A..o.#+.A..p.#).
1830: 91 41 0C 01 0B 6E F0 FF  FF 7F 03 80 99 F0 FF FF  .A...n..........
1840: 7F 1C 32 80 02 87 7F 1B  80 80 5E 18 52 67 80 F8  ..2.......^.Rg..
1850: FF FF 7F F8 FF FF 7F 73  67 30 35 01 D5 18 02 87  .......sg05.....
1860: 7F 1D 80 80 78 18 52 67  80 F8 FF FF 7F F8 FF FF  ....x.Rg........
1870: 7F 73 67 30 35 01 D5 18  02 87 7F 1E 80 80 92 18  .sg05...........
1880: 52 67 80 F8 FF FF 7F F8  FF FF 7F 73 74 30 35 01  Rg.........st05.
1890: D5 18 02 87 7F 1F 80 80  AC 18 52 67 80 F8 FF FF  ..........Rg....
18A0: 7F F8 FF FF 7F 73 74 30  35 01 D5 18 02 87 7F 20  .....st05...... 
18B0: 80 80 C6 18 52 67 80 F8  FF FF 7F F8 FF FF 7F 73  ....Rg.........s
18C0: 67 30 35 01 D5 18 52 67  80 F8 FF FF 7F F8 FF FF  g05...Rg........
18D0: 7F 73 30 30 35 45 67 80  F8 FF FF 7F F8 FF FF 7F  .s005Eg.........
18E0: 73 30 30 36 01 80 27 10  90 41 0C 01 01 2B 90 41  s006..'..A...+.A
18F0: 0C 01 71 80 1C 2C 80 4A  91 41 0C 01 90 41 0C 01  ..q..,.J.A...A..
1900: 45 67 80 F8 FF FF 7F F8  FF FF 7F 30 30 30 37 01  Eg.........0007.
1910: 80 29 10 90 41 0C 01 02  23 27 10 90 41 0C 01 03  .)..A...#'..A...
1920: 52 67 80 F8 FF FF 7F F8  FF FF 7F 73 30 30 36 45  Rg.........s006E
1930: 67 80 F8 FF FF 7F F8 FF  FF 7F 73 30 30 37 01 80  g.........s007..
1940: 45 67 80 F8 FF FF 7F F8  FF FF 7F 31 30 30 33 01  Eg.........1003.
1950: 80 2B 91 41 0C 01 72 80  1C 23 80 23 27 10 90 41  .+.A..r..#.#'..A
1960: 0C 01 05 2B 90 41 0C 01  73 80 1C 06 80 45 67 80  ...+.A..s....Eg.
1970: F8 FF FF 7F F8 FF FF 7F  30 30 31 31 01 80 29 10  ........0011..).
1980: 90 41 0C 01 06 23 27 10  90 41 0C 01 07 52 67 80  .A...#'..A...Rg.
1990: F8 FF FF 7F F8 FF FF 7F  73 30 30 37 45 67 80 F8  ........s007Eg..
19A0: FF FF 7F F8 FF FF 7F 73  30 30 38 01 80 45 67 80  .......s008..Eg.
19B0: F8 FF FF 7F F8 FF FF 7F  31 30 30 32 01 80 2B 91  ........1002..+.
19C0: 41 0C 01 74 80 1C 32 80  23 52 67 80 F8 FF FF 7F  A..t..2.#Rg.....
19D0: F8 FF FF 7F 73 30 30 38  45 67 80 F8 FF FF 7F F8  ....s008Eg......
19E0: FF FF 7F 73 30 30 39 01  80 4A 91 41 0C 01 8F 41  ...s009..J.A...A
19F0: 0C 01 6F 76 91 41 0C 01  45 67 80 F8 FF FF 7F F8  ..ov.A..Eg......
1A00: FF FF 7F 31 30 30 35 01  80 2B 91 41 0C 01 75 80  ...1005..+.A..u.
1A10: 1C 06 80 4A 8F 41 0C 01  91 41 0C 01 23 2B 8F 41  ...J.A...A..#+.A
1A20: 0C 01 76 80 23 45 67 80  F8 FF FF 7F F8 FF FF 7F  ..v.#Eg.........
1A30: 31 30 30 31 01 80 2B 91  41 0C 01 77 80 1C 32 80  1001..+.A..w..2.
1A40: 23 52 67 80 F8 FF FF 7F  F8 FF FF 7F 73 30 30 39  #Rg.........s009
1A50: 45 67 80 F8 FF FF 7F F8  FF FF 7F 73 30 31 30 01  Eg.........s010.
1A60: 80 27 10 91 41 0C 01 14  1C 2C 80 27 10 8F 41 0C  .'..A....,.'..A.
1A70: 01 06 1C 2C 80 4A 90 41  0C 01 91 41 0C 01 4A F0  ...,.J.A...A..J.
1A80: FF FF 7F 91 41 0C 01 1C  2C 80 4A 90 41 0C 01 91  ....A...,.J.A...
1A90: 41 0C 01 4A 8F 41 0C 01  91 41 0C 01 1C 2C 80 27  A..J.A...A...,.'
1AA0: 10 90 41 0C 01 19 1C 78  80 27 10 F0 FF FF 7F 07  ..A....x.'......
1AB0: 1C 23 80 4A 8F 41 0C 01  91 41 0C 01 1C 79 80 1A  .#.J.A...A...y..
1AC0: 64 00 7A 00 91 41 0C 01  7A 00 90 41 0C 01 7A 00  d.z..A..z..A..z.
1AD0: F0 FF FF 7F 1C 23 80 BA  91 41 0C 01 7A 80 7B 80  .....#...A..z.{.
1AE0: 7C 80 7D 80 BA 90 41 0C  01 7E 80 7F 80 80 80 81  |.}...A..~......
1AF0: 80 BA F0 FF FF 7F 82 80  83 80 84 80 85 80 48 37  ..............H7
1B00: 80 1C 2C 80 27 10 91 41  0C 01 15 1C 06 80 27 10  ..,.'..A......'.
1B10: 90 41 0C 01 1A 27 10 F0  FF FF 7F 08 52 67 80 F8  .A...'......Rg..
1B20: FF FF 7F F8 FF FF 7F 73  30 31 30 45 67 80 F8 FF  .......s010Eg...
1B30: FF 7F F8 FF FF 7F 73 30  31 31 01 80 1A 43 00 2A  ......s011...C.*
1B40: 10 91 41 0C 01 2A 10 90  41 0C 01 2A 10 F0 FF FF  ..A..*..A..*....
1B50: 7F 52 67 80 F8 FF FF 7F  F8 FF FF 7F 73 30 31 31  .Rg.........s011
1B60: 45 67 80 F8 FF FF 7F F8  FF FF 7F 73 30 31 32 01  Eg.........s012.
1B70: 80 45 67 80 F8 FF FF 7F  F8 FF FF 7F 31 30 30 31  .Eg.........1001
1B80: 01 80 2B 91 41 0C 01 86  80 1C 32 80 23 52 67 80  ..+.A.....2.#Rg.
1B90: F8 FF FF 7F F8 FF FF 7F  73 30 31 32 45 67 80 F8  ........s012Eg..
1BA0: FF FF 7F F8 FF FF 7F 73  30 31 33 01 80 27 10 90  .......s013..'..
1BB0: 41 0C 01 01 2B 90 41 0C  01 87 80 1C 2C 80 45 67  A...+.A.....,.Eg
1BC0: 80 F8 FF FF 7F F8 FF FF  7F 30 30 30 37 01 80 29  .........0007..)
1BD0: 10 90 41 0C 01 02 23 27  10 90 41 0C 01 03 45 67  ..A...#'..A...Eg
1BE0: 80 F8 FF FF 7F F8 FF FF  7F 31 30 30 32 01 80 2B  .........1002..+
1BF0: 91 41 0C 01 88 80 1C 32  80 23 52 67 80 F8 FF FF  .A.....2.#Rg....
1C00: 7F F8 FF FF 7F 73 30 31  33 02 87 7F 1B 80 80 25  .....s013......%
1C10: 1C 45 67 80 F8 FF FF 7F  F8 FF FF 7F 73 67 31 34  .Eg.........sg14
1C20: 01 80 01 A6 1C 02 87 7F  1D 80 80 41 1C 45 67 80  ...........A.Eg.
1C30: F8 FF FF 7F F8 FF FF 7F  73 67 31 34 01 80 01 A6  ........sg14....
1C40: 1C 02 87 7F 1E 80 80 5D  1C 45 67 80 F8 FF FF 7F  .......].Eg.....
1C50: F8 FF FF 7F 73 74 31 34  01 80 01 A6 1C 02 87 7F  ....st14........
1C60: 1F 80 80 79 1C 45 67 80  F8 FF FF 7F F8 FF FF 7F  ...y.Eg.........
1C70: 73 74 31 34 01 80 01 A6  1C 02 87 7F 20 80 80 95  st14........ ...
1C80: 1C 45 67 80 F8 FF FF 7F  F8 FF FF 7F 73 67 31 34  .Eg.........sg14
1C90: 01 80 01 A6 1C 45 67 80  F8 FF FF 7F F8 FF FF 7F  .....Eg.........
1CA0: 73 30 31 34 01 80 4A 90  41 0C 01 F0 FF FF 7F 6F  s014..J.A......o
1CB0: 76 90 41 0C 01 1C 78 80  27 10 90 41 0C 01 01 2B  v.A...x.'..A...+
1CC0: 90 41 0C 01 89 80 1C 2C  80 45 67 80 F8 FF FF 7F  .A.....,.Eg.....
1CD0: F8 FF FF 7F 30 30 30 35  01 80 4A F0 FF FF 7F 90  ....0005..J.....
1CE0: 41 0C 01 23 2B 90 41 0C  01 8A 80 23 29 10 90 41  A..#+.A....#)..A
1CF0: 0C 01 02 27 10 90 41 0C  01 03 29 10 90 41 0C 01  ...'..A...)..A..
1D00: 04 02 87 7F 1B 80 80 1B  1D 52 67 80 F8 FF FF 7F  .........Rg.....
1D10: F8 FF FF 7F 73 67 31 34  01 92 1D 02 87 7F 1D 80  ....sg14........
1D20: 80 35 1D 52 67 80 F8 FF  FF 7F F8 FF FF 7F 73 67  .5.Rg.........sg
1D30: 31 34 01 92 1D 02 87 7F  1E 80 80 4F 1D 52 67 80  14.........O.Rg.
1D40: F8 FF FF 7F F8 FF FF 7F  73 74 31 34 01 92 1D 02  ........st14....
1D50: 87 7F 1F 80 80 69 1D 52  67 80 F8 FF FF 7F F8 FF  .....i.Rg.......
1D60: FF 7F 73 74 31 34 01 92  1D 02 87 7F 20 80 80 83  ..st14...... ...
1D70: 1D 52 67 80 F8 FF FF 7F  F8 FF FF 7F 73 67 31 34  .Rg.........sg14
1D80: 01 92 1D 52 67 80 F8 FF  FF 7F F8 FF FF 7F 73 30  ...Rg.........s0
1D90: 31 34 45 67 80 F8 FF FF  7F F8 FF FF 7F 73 30 31  14Eg.........s01
1DA0: 35 01 80 27 10 90 41 0C  01 1B 2B 90 41 0C 01 8B  5..'..A...+.A...
1DB0: 80 1C 06 80 4A 91 41 0C  01 90 41 0C 01 4A F0 FF  ....J.A...A..J..
1DC0: FF 7F 90 41 0C 01 2A 10  90 41 0C 01 4A 91 41 0C  ...A..*..A..J.A.
1DD0: 01 90 41 0C 01 23 2B 90  41 0C 01 8C 80 23 45 67  ..A..#+.A....#Eg
1DE0: 80 F8 FF FF 7F F8 FF FF  7F 31 30 30 31 01 80 27  .........1001..'
1DF0: 10 91 41 0C 01 0A 2B 91  41 0C 01 8D 80 1C 2C 80  ..A...+.A.....,.
1E00: 4A 90 41 0C 01 91 41 0C  01 4A F0 FF FF 7F 91 41  J.A...A..J.....A
1E10: 0C 01 29 10 91 41 0C 01  0B 23 52 67 80 F8 FF FF  ..)..A...#Rg....
1E20: 7F F8 FF FF 7F 73 30 31  35 45 67 80 F8 FF FF 7F  .....s015Eg.....
1E30: F8 FF FF 7F 73 30 31 36  01 80 27 10 91 41 0C 01  ....s016..'..A..
1E40: 06 2B 91 41 0C 01 8E 80  23 2B 91 41 0C 01 8F 80  .+.A....#+.A....
1E50: 23 2B 91 41 0C 01 90 80  23 29 10 91 41 0C 01 07  #+.A....#)..A...
1E60: 52 67 80 F8 FF FF 7F F8  FF FF 7F 73 30 31 36 45  Rg.........s016E
1E70: 67 80 F8 FF FF 7F F8 FF  FF 7F 73 30 31 37 01 80  g.........s017..
1E80: 45 67 80 F8 FF FF 7F F8  FF FF 7F 31 30 30 32 01  Eg.........1002.
1E90: 80 2B 91 41 0C 01 91 80  1C 32 80 23 52 67 80 F8  .+.A.....2.#Rg..
1EA0: FF FF 7F F8 FF FF 7F 73  30 31 37 45 67 80 F8 FF  .......s017Eg...
1EB0: FF 7F F8 FF FF 7F 73 30  31 38 01 80 27 10 90 41  ......s018..'..A
1EC0: 0C 01 1C 2B 90 41 0C 01  92 80 2A 10 90 41 0C 01  ...+.A....*..A..
1ED0: 4A 91 41 0C 01 90 41 0C  01 1C 06 80 23 52 67 80  J.A...A.....#Rg.
1EE0: F8 FF FF 7F F8 FF FF 7F  73 30 31 38 45 67 80 F8  ........s018Eg..
