# 16855164

## Common Data

| Field            | Value                 |
|------------------|-----------------------|
| Zone             | Spire of Dem (ID: 19) |
| Block Size       | 1028 bytes            |
| Total Events     | 9                     |
| References Count | 19                    |

## List of Events

| Event ID                 | Entrypoint   |   Size |   Instructions |
|--------------------------|--------------|--------|----------------|
| [65535](#event-65535)    | 0x0000       |      1 |              1 |
| [65534](#event-65534)    | 0x0001       |      1 |              1 |
| [65535.1](#event-655351) | 0x0002       |     21 |              3 |
| [65535.2](#event-655352) | 0x0017       |     78 |              8 |
| [65535.3](#event-655353) | 0x0065       |     34 |              4 |
| [65535.4](#event-655354) | 0x0087       |     10 |              2 |
| [65535.5](#event-655355) | 0x0091       |     78 |              8 |
| [65535.6](#event-655356) | 0x00DF       |      7 |              3 |
| [65535.7](#event-655357) | 0x00E6       |    667 |             63 |

## DAT References (imed_data)

|   Index | Hex Value   |   Dec Value |
|---------|-------------|-------------|
|       0 | 0x004B      |          75 |
|       1 | 0x005C      |          92 |
|       2 | 0x0000      |           0 |
|       3 | 0x005E      |          94 |
|       4 | 0x000F      |          15 |
|       5 | 0x0006      |           6 |
|       6 | 0x0009      |           9 |
|       7 | 0x01E5      |         485 |
|       8 | 0x0003      |           3 |
|       9 | 0x0080      |         128 |
|      10 | 0x0001      |           1 |
|      11 | 0x0078      |         120 |
|      12 | 0x003C      |          60 |
|      13 | 0x00C8      |         200 |
|      14 | 0x00C9      |         201 |
|      15 | 0x002D      |          45 |
|      16 | 0x0002      |           2 |
|      17 | 0x001E      |          30 |
|      18 | 0x00D7      |         215 |

## Events

### Event 65535

#### Metadata

| Field        | Value   |
|--------------|---------|
| Entrypoint   | 0x0000  |
| Data Size    | 1 bytes |
| Instructions | 1       |

```
      00 01 02 03 04 05 06 07  08 09 0A 0B 0C 0D 0E 0F
      -- -- -- -- -- -- -- --  -- -- -- -- -- -- -- --
0000: 00                                                .               
```

#### Opcodes

```
  0: 0x0000 [0x00] END_REQSTACK()
```

### Event 65534

#### Metadata

| Field        | Value   |
|--------------|---------|
| Entrypoint   | 0x0001  |
| Data Size    | 1 bytes |
| Instructions | 1       |

```
      00 01 02 03 04 05 06 07  08 09 0A 0B 0C 0D 0E 0F
      -- -- -- -- -- -- -- --  -- -- -- -- -- -- -- --
0000:    00                                              .              
```

#### Opcodes

```
  0: 0x0001 [0x00] END_REQSTACK()
```

### Event 65535.1

#### Metadata

| Field        | Value    |
|--------------|----------|
| Entrypoint   | 0x0002   |
| Data Size    | 21 bytes |
| Instructions | 3        |

```
      00 01 02 03 04 05 06 07  08 09 0A 0B 0C 0D 0E 0F
      -- -- -- -- -- -- -- --  -- -- -- -- -- -- -- --
0000:       1C 00 80 9F 01 80  7F 30 01 01 7F 30 01 01    .......0...0..
0010: 6D 61 69 6E 02 80 00                              main...         
```

#### Opcodes

```
  0: 0x0002 [0x1C] WAIT(75* ticks)
  1: 0x0005 [0x9F] LOAD_SCHEDULED_TASK_ALT: Load scheduler "main" with entities [Nag'molada (ID: 16855167/0x0101307F), Nag'molada (ID: 16855167/0x0101307F)], work=[92*, 0*]
  2: 0x0016 [0x00] END_REQSTACK()
```

### Event 65535.2

#### Metadata

| Field        | Value    |
|--------------|----------|
| Entrypoint   | 0x0017   |
| Data Size    | 78 bytes |
| Instructions | 8        |

```
      00 01 02 03 04 05 06 07  08 09 0A 0B 0C 0D 0E 0F
      -- -- -- -- -- -- -- --  -- -- -- -- -- -- -- --
0010:                      9F  03 80 82 30 01 01 82 30         ....0...0
0020: 01 01 73 74 72 30 02 80  1C 04 80 9F 03 80 85 30  ..str0.........0
0030: 01 01 85 30 01 01 73 74  72 30 02 80 1C 05 80 9F  ...0..str0......
0040: 03 80 84 30 01 01 84 30  01 01 73 74 72 30 02 80  ...0...0..str0..
0050: 1C 06 80 9F 03 80 83 30  01 01 83 30 01 01 73 74  .......0...0..st
0060: 72 30 02 80 00                                    r0...           
```

#### Opcodes

```
  0: 0x0017 [0x9F] LOAD_SCHEDULED_TASK_ALT: Load scheduler "str0" with entities [Unnamed NPC (ID: 16855170/0x01013082), Unnamed NPC (ID: 16855170/0x01013082)], work=[94*, 0*]
  1: 0x0028 [0x1C] WAIT(15* ticks)
  2: 0x002B [0x9F] LOAD_SCHEDULED_TASK_ALT: Load scheduler "str0" with entities [Unnamed NPC (ID: 16855173/0x01013085), Unnamed NPC (ID: 16855173/0x01013085)], work=[94*, 0*]
  3: 0x003C [0x1C] WAIT(6* ticks)
  4: 0x003F [0x9F] LOAD_SCHEDULED_TASK_ALT: Load scheduler "str0" with entities [Unnamed NPC (ID: 16855172/0x01013084), Unnamed NPC (ID: 16855172/0x01013084)], work=[94*, 0*]
  5: 0x0050 [0x1C] WAIT(9* ticks)
  6: 0x0053 [0x9F] LOAD_SCHEDULED_TASK_ALT: Load scheduler "str0" with entities [Unnamed NPC (ID: 16855171/0x01013083), Unnamed NPC (ID: 16855171/0x01013083)], work=[94*, 0*]
  7: 0x0064 [0x00] END_REQSTACK()
```

### Event 65535.3

#### Metadata

| Field        | Value    |
|--------------|----------|
| Entrypoint   | 0x0065   |
| Data Size    | 34 bytes |
| Instructions | 4        |

```
      00 01 02 03 04 05 06 07  08 09 0A 0B 0C 0D 0E 0F
      -- -- -- -- -- -- -- --  -- -- -- -- -- -- -- --
0060:                5B 07 80  80 30 01 01 80 30 01 01       [...0...0..
0070: 61 74 61 30 1C 08 80 5B  07 80 81 30 01 01 81 30  ata0...[...0...0
0080: 01 01 61 74 62 30 00                              ..atb0.         
```

#### Opcodes

```
  0: 0x0065 [0x5B] LOAD_EXT_SCHEDULER: Load scheduler "ata0" with entities [Unnamed NPC (ID: 16855168/0x01013080), Unnamed NPC (ID: 16855168/0x01013080)], work=485*
  1: 0x0074 [0x1C] WAIT(3* ticks)
  2: 0x0077 [0x5B] LOAD_EXT_SCHEDULER: Load scheduler "atb0" with entities [Unnamed NPC (ID: 16855169/0x01013081), Unnamed NPC (ID: 16855169/0x01013081)], work=485*
  3: 0x0086 [0x00] END_REQSTACK()
```

### Event 65535.4

#### Metadata

| Field        | Value    |
|--------------|----------|
| Entrypoint   | 0x0087   |
| Data Size    | 10 bytes |
| Instructions | 2        |

```
      00 01 02 03 04 05 06 07  08 09 0A 0B 0C 0D 0E 0F
      -- -- -- -- -- -- -- --  -- -- -- -- -- -- -- --
0080:                      6C  7F 30 01 01 09 80 0A 80         l.0......
0090: 00                                                .               
```

#### Opcodes

```
  0: 0x0087 [0x6C] FADE_ENTITY_COLOR(entity_id=Nag'molada (ID: 16855167/0x0101307F), end_alpha=128*, fade_time=1*)
  1: 0x0090 [0x00] END_REQSTACK()
```

### Event 65535.5

#### Metadata

| Field        | Value    |
|--------------|----------|
| Entrypoint   | 0x0091   |
| Data Size    | 78 bytes |
| Instructions | 8        |

```
      00 01 02 03 04 05 06 07  08 09 0A 0B 0C 0D 0E 0F
      -- -- -- -- -- -- -- --  -- -- -- -- -- -- -- --
0090:    9F 03 80 82 30 01 01  82 30 01 01 6B 69 6C 6C   ....0...0..kill
00A0: 02 80 1C 05 80 9F 03 80  83 30 01 01 83 30 01 01  .........0...0..
00B0: 6B 69 6C 6C 02 80 1C 04  80 9F 03 80 84 30 01 01  kill.........0..
00C0: 84 30 01 01 6B 69 6C 6C  02 80 1C 06 80 9F 03 80  .0..kill........
00D0: 85 30 01 01 85 30 01 01  6B 69 6C 6C 02 80 00     .0...0..kill... 
```

#### Opcodes

```
  0: 0x0091 [0x9F] LOAD_SCHEDULED_TASK_ALT: Load scheduler "kill" with entities [Unnamed NPC (ID: 16855170/0x01013082), Unnamed NPC (ID: 16855170/0x01013082)], work=[94*, 0*]
  1: 0x00A2 [0x1C] WAIT(6* ticks)
  2: 0x00A5 [0x9F] LOAD_SCHEDULED_TASK_ALT: Load scheduler "kill" with entities [Unnamed NPC (ID: 16855171/0x01013083), Unnamed NPC (ID: 16855171/0x01013083)], work=[94*, 0*]
  3: 0x00B6 [0x1C] WAIT(15* ticks)
  4: 0x00B9 [0x9F] LOAD_SCHEDULED_TASK_ALT: Load scheduler "kill" with entities [Unnamed NPC (ID: 16855172/0x01013084), Unnamed NPC (ID: 16855172/0x01013084)], work=[94*, 0*]
  5: 0x00CA [0x1C] WAIT(9* ticks)
  6: 0x00CD [0x9F] LOAD_SCHEDULED_TASK_ALT: Load scheduler "kill" with entities [Unnamed NPC (ID: 16855173/0x01013085), Unnamed NPC (ID: 16855173/0x01013085)], work=[94*, 0*]
  7: 0x00DE [0x00] END_REQSTACK()
```

### Event 65535.6

#### Metadata

| Field        | Value   |
|--------------|---------|
| Entrypoint   | 0x00DF  |
| Data Size    | 7 bytes |
| Instructions | 3       |

```
      00 01 02 03 04 05 06 07  08 09 0A 0B 0C 0D 0E 0F
      -- -- -- -- -- -- -- --  -- -- -- -- -- -- -- --
00D0:                                               1C                 .
00E0: 0B 80 1A 95 01 00                                 ......          
```

#### Opcodes

```
  0: 0x00DF [0x1C] WAIT(120* ticks)
  1: 0x00E2 [0x1A] CALL_SUBROUTINE(address=0x0195)
  2: 0x00E5 [0x00] END_REQSTACK()
```

### Event 65535.7

#### Metadata

| Field        | Value     |
|--------------|-----------|
| Entrypoint   | 0x00E6    |
| Data Size    | 667 bytes |
| Instructions | 2         |

```
      00 01 02 03 04 05 06 07  08 09 0A 0B 0C 0D 0E 0F
      -- -- -- -- -- -- -- --  -- -- -- -- -- -- -- --
00E0:                   6C F0  FF FF 7F 02 80 0C 80 00        l.........
00F0: 45 0D 80 F0 FF FF 7F F0  FF FF 7F 66 64 69 30 02  E..........fdi0.
0100: 80 55 0D 80 F0 FF FF 7F  F0 FF FF 7F 66 64 69 30  .U..........fdi0
0110: 1B 45 0D 80 F0 FF FF 7F  F0 FF FF 7F 66 64 6F 30  .E..........fdo0
0120: 02 80 55 0D 80 F0 FF FF  7F F0 FF FF 7F 66 64 6F  ..U..........fdo
0130: 30 1B 45 0D 80 F0 FF FF  7F F0 FF FF 7F 66 64 69  0.E..........fdi
0140: 31 02 80 55 0D 80 F0 FF  FF 7F F0 FF FF 7F 66 64  1..U..........fd
0150: 69 31 1B 45 0D 80 F0 FF  FF 7F F0 FF FF 7F 66 64  i1.E..........fd
0160: 6F 31 02 80 55 0D 80 F0  FF FF 7F F0 FF FF 7F 66  o1..U..........f
0170: 64 6F 31 1B 45 0E 80 F0  FF FF 7F F0 FF FF 7F 77  do1.E..........w
0180: 68 69 31 02 80 55 0E 80  F0 FF FF 7F F0 FF FF 7F  hi1..U..........
0190: 77 68 69 31 1B 45 0E 80  F0 FF FF 7F F0 FF FF 7F  whi1.E..........
01A0: 77 68 6F 31 02 80 55 0E  80 F0 FF FF 7F F0 FF FF  who1..U.........
01B0: 7F 77 68 6F 31 1B 45 0E  80 F0 FF FF 7F F0 FF FF  .who1.E.........
01C0: 7F 77 68 6F 32 02 80 55  0E 80 F0 FF FF 7F F0 FF  .who2..U........
01D0: FF 7F 77 68 6F 32 1B 45  0E 80 F0 FF FF 7F F0 FF  ..who2.E........
01E0: FF 7F 77 68 6F 33 02 80  55 0E 80 F0 FF FF 7F F0  ..who3..U.......
01F0: FF FF 7F 77 68 6F 33 1B  62 0A 80 F0 FF FF 7F F0  ...who3.b.......
0200: FF FF 7F 6D 61 69 6E 02  80 1C 0F 80 45 0D 80 F0  ...main.....E...
0210: FF FF 7F F0 FF FF 7F 66  64 6F 31 02 80 55 0D 80  .......fdo1..U..
0220: F0 FF FF 7F F0 FF FF 7F  66 64 6F 31 1B 45 0D 80  ........fdo1.E..
0230: F0 FF FF 7F F0 FF FF 7F  66 64 69 31 02 80 62 10  ........fdi1..b.
0240: 80 F0 FF FF 7F F0 FF FF  7F 6D 61 69 6E 02 80 1C  .........main...
0250: 11 80 55 0D 80 F0 FF FF  7F F0 FF FF 7F 66 64 69  ..U..........fdi
0260: 31 1B 45 0D 80 F0 FF FF  7F F0 FF FF 7F 62 6C 6F  1.E..........blo
0270: 6E 02 80 45 0E 80 F0 FF  FF 7F F0 FF FF 7F 62 6C  n..E..........bl
0280: 6F 6E 02 80 1B 45 0E 80  F0 FF FF 7F F0 FF FF 7F  on...E..........
0290: 77 68 69 30 02 80 55 0E  80 F0 FF FF 7F F0 FF FF  whi0..U.........
02A0: 7F 77 68 69 30 1B 45 0E  80 F0 FF FF 7F F0 FF FF  .whi0.E.........
02B0: 7F 77 68 6F 30 02 80 55  0E 80 F0 FF FF 7F F0 FF  .who0..U........
02C0: FF 7F 77 68 6F 30 1B 45  12 80 F0 FF FF 7F F0 FF  ..who0.E........
02D0: FF 7F 65 66 6F 6E 02 80  55 12 80 F0 FF FF 7F F0  ..efon..U.......
02E0: FF FF 7F 65 66 6F 6E 1B  45 0D 80 F0 FF FF 7F F0  ...efon.E.......
02F0: FF FF 7F 66 64 69 73 02  80 1B 45 0D 80 F0 FF FF  ...fdis...E.....
0300: 7F F0 FF FF 7F 66 64 6F  73 02 80 55 0D 80 F0 FF  .....fdos..U....
0310: FF 7F F0 FF FF 7F 66 64  6F 73 1B 45 0D 80 F0 FF  ......fdos.E....
0320: FF 7F F0 FF FF 7F 66 64  69 66 02 80 1B 45 0D 80  ......fdif...E..
0330: F0 FF FF 7F F0 FF FF 7F  66 64 6F 66 02 80 55 0D  ........fdof..U.
0340: 80 F0 FF FF 7F F0 FF FF  7F 66 64 6F 66 1B 45 0D  .........fdof.E.
0350: 80 F0 FF FF 7F F0 FF FF  7F 66 64 69 70 02 80 1B  .........fdip...
0360: 45 0D 80 F0 FF FF 7F F0  FF FF 7F 66 64 6F 70 02  E..........fdop.
0370: 80 55 0D 80 F0 FF FF 7F  F0 FF FF 7F 66 64 6F 70  .U..........fdop
0380: 1B                                                .               
```

#### Opcodes

```
  0: 0x00E6 [0x6C] FADE_ENTITY_COLOR(entity_id=LocalPlayer, end_alpha=0*, fade_time=60*)
  1: 0x00EF [0x00] END_REQSTACK()
```

#### Data or dead code:

```
# Dead code (unreachable instructions):
     0x00F0 [0x45] LOAD_SCHEDULED_TASK: Load scheduler "fdi0" with entities [LocalPlayer, LocalPlayer], work=[200*, 0*]
     0x0101 [0x55] WAIT_LOAD_SCHEDULER: Wait for scheduler "fdi0" with entities [LocalPlayer, LocalPlayer], work=200*
     0x0110 [0x1B] RETURN
     0x0111 [0x45] LOAD_SCHEDULED_TASK: Load scheduler "fdo0" with entities [LocalPlayer, LocalPlayer], work=[200*, 0*]
     0x0122 [0x55] WAIT_LOAD_SCHEDULER: Wait for scheduler "fdo0" with entities [LocalPlayer, LocalPlayer], work=200*
     0x0131 [0x1B] RETURN
     0x0132 [0x45] LOAD_SCHEDULED_TASK: Load scheduler "fdi1" with entities [LocalPlayer, LocalPlayer], work=[200*, 0*]
     0x0143 [0x55] WAIT_LOAD_SCHEDULER: Wait for scheduler "fdi1" with entities [LocalPlayer, LocalPlayer], work=200*
     0x0152 [0x1B] RETURN
     0x0153 [0x45] LOAD_SCHEDULED_TASK: Load scheduler "fdo1" with entities [LocalPlayer, LocalPlayer], work=[200*, 0*]
     0x0164 [0x55] WAIT_LOAD_SCHEDULER: Wait for scheduler "fdo1" with entities [LocalPlayer, LocalPlayer], work=200*
     0x0173 [0x1B] RETURN
     0x0174 [0x45] LOAD_SCHEDULED_TASK: Load scheduler "whi1" with entities [LocalPlayer, LocalPlayer], work=[201*, 0*]
     0x0185 [0x55] WAIT_LOAD_SCHEDULER: Wait for scheduler "whi1" with entities [LocalPlayer, LocalPlayer], work=201*
     0x0194 [0x1B] RETURN
     0x0195 [0x45] LOAD_SCHEDULED_TASK: Load scheduler "who1" with entities [LocalPlayer, LocalPlayer], work=[201*, 0*]
     0x01A6 [0x55] WAIT_LOAD_SCHEDULER: Wait for scheduler "who1" with entities [LocalPlayer, LocalPlayer], work=201*
     0x01B5 [0x1B] RETURN
     0x01B6 [0x45] LOAD_SCHEDULED_TASK: Load scheduler "who2" with entities [LocalPlayer, LocalPlayer], work=[201*, 0*]
     0x01C7 [0x55] WAIT_LOAD_SCHEDULER: Wait for scheduler "who2" with entities [LocalPlayer, LocalPlayer], work=201*
     0x01D6 [0x1B] RETURN
     0x01D7 [0x45] LOAD_SCHEDULED_TASK: Load scheduler "who3" with entities [LocalPlayer, LocalPlayer], work=[201*, 0*]
     0x01E8 [0x55] WAIT_LOAD_SCHEDULER: Wait for scheduler "who3" with entities [LocalPlayer, LocalPlayer], work=201*
     0x01F7 [0x1B] RETURN
     0x01F8 [0x62] LOAD_EVENT_SCHEDULER: Load scheduler "main" with entities [LocalPlayer, LocalPlayer], work=[1*, 0*]
     0x0209 [0x1C] WAIT(45* ticks)
     0x020C [0x45] LOAD_SCHEDULED_TASK: Load scheduler "fdo1" with entities [LocalPlayer, LocalPlayer], work=[200*, 0*]
     0x021D [0x55] WAIT_LOAD_SCHEDULER: Wait for scheduler "fdo1" with entities [LocalPlayer, LocalPlayer], work=200*
     0x022C [0x1B] RETURN
     0x022D [0x45] LOAD_SCHEDULED_TASK: Load scheduler "fdi1" with entities [LocalPlayer, LocalPlayer], work=[200*, 0*]
     0x023E [0x62] LOAD_EVENT_SCHEDULER: Load scheduler "main" with entities [LocalPlayer, LocalPlayer], work=[2*, 0*]
     0x024F [0x1C] WAIT(30* ticks)
     0x0252 [0x55] WAIT_LOAD_SCHEDULER: Wait for scheduler "fdi1" with entities [LocalPlayer, LocalPlayer], work=200*
     0x0261 [0x1B] RETURN
     0x0262 [0x45] LOAD_SCHEDULED_TASK: Load scheduler "blon" with entities [LocalPlayer, LocalPlayer], work=[200*, 0*]
     0x0273 [0x45] LOAD_SCHEDULED_TASK: Load scheduler "blon" with entities [LocalPlayer, LocalPlayer], work=[201*, 0*]
     0x0284 [0x1B] RETURN
     0x0285 [0x45] LOAD_SCHEDULED_TASK: Load scheduler "whi0" with entities [LocalPlayer, LocalPlayer], work=[201*, 0*]
     0x0296 [0x55] WAIT_LOAD_SCHEDULER: Wait for scheduler "whi0" with entities [LocalPlayer, LocalPlayer], work=201*
     0x02A5 [0x1B] RETURN
     0x02A6 [0x45] LOAD_SCHEDULED_TASK: Load scheduler "who0" with entities [LocalPlayer, LocalPlayer], work=[201*, 0*]
     0x02B7 [0x55] WAIT_LOAD_SCHEDULER: Wait for scheduler "who0" with entities [LocalPlayer, LocalPlayer], work=201*
     0x02C6 [0x1B] RETURN
     0x02C7 [0x45] LOAD_SCHEDULED_TASK: Load scheduler "efon" with entities [LocalPlayer, LocalPlayer], work=[215*, 0*]
     0x02D8 [0x55] WAIT_LOAD_SCHEDULER: Wait for scheduler "efon" with entities [LocalPlayer, LocalPlayer], work=215*
     0x02E7 [0x1B] RETURN
     0x02E8 [0x45] LOAD_SCHEDULED_TASK: Load scheduler "fdis" with entities [LocalPlayer, LocalPlayer], work=[200*, 0*]
     0x02F9 [0x1B] RETURN
     0x02FA [0x45] LOAD_SCHEDULED_TASK: Load scheduler "fdos" with entities [LocalPlayer, LocalPlayer], work=[200*, 0*]
     0x030B [0x55] WAIT_LOAD_SCHEDULER: Wait for scheduler "fdos" with entities [LocalPlayer, LocalPlayer], work=200*
     0x031A [0x1B] RETURN
     0x031B [0x45] LOAD_SCHEDULED_TASK: Load scheduler "fdif" with entities [LocalPlayer, LocalPlayer], work=[200*, 0*]
     0x032C [0x1B] RETURN
     0x032D [0x45] LOAD_SCHEDULED_TASK: Load scheduler "fdof" with entities [LocalPlayer, LocalPlayer], work=[200*, 0*]
     0x033E [0x55] WAIT_LOAD_SCHEDULER: Wait for scheduler "fdof" with entities [LocalPlayer, LocalPlayer], work=200*
     0x034D [0x1B] RETURN
     0x034E [0x45] LOAD_SCHEDULED_TASK: Load scheduler "fdip" with entities [LocalPlayer, LocalPlayer], work=[200*, 0*]
     0x035F [0x1B] RETURN
     0x0360 [0x45] LOAD_SCHEDULED_TASK: Load scheduler "fdop" with entities [LocalPlayer, LocalPlayer], work=[200*, 0*]
     0x0371 [0x55] WAIT_LOAD_SCHEDULER: Wait for scheduler "fdop" with entities [LocalPlayer, LocalPlayer], work=200*
     0x0380 [0x1B] RETURN
```
