# 16855163

## Common Data

| Field            | Value                 |
|------------------|-----------------------|
| Zone             | Spire of Dem (ID: 19) |
| Block Size       | 3672 bytes            |
| Total Events     | 6                     |
| References Count | 83                    |

## List of Events

| Event ID              | Entrypoint   |   Size |   Instructions |
|-----------------------|--------------|--------|----------------|
| [65535](#event-65535) | 0x0000       |      1 |              1 |
| [65534](#event-65534) | 0x0001       |      1 |              1 |
| [0](#event-0)         | 0x0002       |    361 |             75 |
| [1](#event-1)         | 0x016B       |    924 |            120 |
| [2](#event-2)         | 0x0507       |    317 |             50 |
| [3](#event-3)         | 0x0644       |   1696 |            204 |

## DAT References (imed_data)

|   Index | Hex Value   |   Dec Value |
|---------|-------------|-------------|
|       0 | 0x1DE7      |        7655 |
|       1 | 0x0000      |           0 |
|       2 | 0x0001      |           1 |
|       3 | 0x0002      |           2 |
|       4 | 0x009B      |         155 |
|       5 | 0x1DE9      |        7657 |
|       6 | 0x0003      |           3 |
|       7 | 0x1DEB      |        7659 |
|       8 | 0x005A      |          90 |
|       9 | 0xFFFC567E  |  4294727294 |
|      10 | 0xFFFF730E  |  4294931214 |
|      11 | 0xFFFF0DD0  |  4294905296 |
|      12 | 0x0C00      |        3072 |
|      13 | 0x005B      |          91 |
|      14 | 0xFFFFFF99  |  4294967193 |
|      15 | 0x56293     |      352915 |
|      16 | 0xFFFE2E2E  |  4294848046 |
|      17 | 0x005C      |          92 |
|      18 | 0xFFFC5678  |  4294727288 |
|      19 | 0x8D48      |       36168 |
|      20 | 0xE290      |       58000 |
|      21 | 0x0403      |        1027 |
|      22 | 0x005D      |          93 |
|      23 | 0xFFFFFFC5  |  4294967237 |
|      24 | 0xFFFA9D36  |  4294614326 |
|      25 | 0x03FF      |        1023 |
|      26 | 0x0004      |           4 |
|      27 | 0x005E      |          94 |
|      28 | 0xFFFC565F  |  4294727263 |
|      29 | 0x8D2E      |       36142 |
|      30 | 0x0400      |        1024 |
|      31 | 0x0005      |           5 |
|      32 | 0x005F      |          95 |
|      33 | 0xFFFFFFCB  |  4294967243 |
|      34 | 0xFFFA9DBB  |  4294614459 |
|      35 | 0xFFFE2E2F  |  4294848047 |
|      36 | 0x0006      |           6 |
|      37 | 0x0060      |          96 |
|      38 | 0xFFF8DCA7  |  4294499495 |
|      39 | 0xFFFCE49B  |  4294763675 |
|      40 | 0x02ED      |         749 |
|      41 | 0x0ED0      |        3792 |
|      42 | 0x1DE8      |        7656 |
|      43 | 0x001E      |          30 |
|      44 | 0x0013      |          19 |
|      45 | 0x021D      |         541 |
|      46 | 0x000C      |          12 |
|      47 | 0x000F      |          15 |
|      48 | 0x002D      |          45 |
|      49 | 0x00C8      |         200 |
|      50 | 0x1DD9      |        7641 |
|      51 | 0x00E7      |         231 |
|      52 | 0x1DDA      |        7642 |
|      53 | 0x01D1      |         465 |
|      54 | 0x1DDB      |        7643 |
|      55 | 0x1DDC      |        7644 |
|      56 | 0x1DDD      |        7645 |
|      57 | 0x01D2      |         466 |
|      58 | 0x1DDE      |        7646 |
|      59 | 0x1DDF      |        7647 |
|      60 | 0x1DE0      |        7648 |
|      61 | 0x0011      |          17 |
|      62 | 0x01C8      |         456 |
|      63 | 0x0078      |         120 |
|      64 | 0x01CC      |         460 |
|      65 | 0x01D8      |         472 |
|      66 | 0x054C      |        1356 |
|      67 | 0x1DE1      |        7649 |
|      68 | 0x00DC      |         220 |
|      69 | 0x004B      |          75 |
|      70 | 0x002C      |          44 |
|      71 | 0x1DE2      |        7650 |
|      72 | 0x0087      |         135 |
|      73 | 0x1DE3      |        7651 |
|      74 | 0x1DE4      |        7652 |
|      75 | 0x1DE5      |        7653 |
|      76 | 0x003C      |          60 |
|      77 | 0x0021      |          33 |
|      78 | 0x00F4      |         244 |
|      79 | 0x003D      |          61 |
|      80 | 0x0384      |         900 |
|      81 | 0x00C9      |         201 |
|      82 | 0x00D7      |         215 |

## String References

- **7655**: B$P10l$3f$3o$3b$3O%p$3$3j$3$5[ [$3L$3$3$3$3Z$3 [/$3$1[$3v/$3J$3$3$7$3C$3x$3$3g]
- **7656**: $3C$3x$3$3gp$P11I$P11p [$P11f1$3N$3$3X$3^$3 [/$P11f2$3N$3$3X$3^$3 [/$P11f3$3N$3$3X$3^$3 [/$P122$P10.%p]
- **7657**: $3{$3^$3$97F$31V$P10i]\\7
- **7659**: B$P10l$3f$3o$3b$3O%p$3$3j$3$5[ [$3z$3$1E$3{$3X/$3z$3$1E$3Q[$3g/$3f$3 E$3{$3X/$3f$3 E$3Q[$3g/$3$3AE$3{$3X/$3$3AE$3Q[$3g/$3}$3\`$3 [$3h%q$P11z$26$l$P10,%p]

## Events

### Event 65535

#### Metadata

| Field        | Value   |
|--------------|---------|
| Entrypoint   | 0x0000  |
| Data Size    | 1 bytes |
| Instructions | 1       |

```
      00 01 02 03 04 05 06 07  08 09 0A 0B 0C 0D 0E 0F
      -- -- -- -- -- -- -- --  -- -- -- -- -- -- -- --
0000: 00                                                .               
```

#### Opcodes

```
  0: 0x0000 [0x00] END_REQSTACK()
```

### Event 65534

#### Metadata

| Field        | Value   |
|--------------|---------|
| Entrypoint   | 0x0001  |
| Data Size    | 1 bytes |
| Instructions | 1       |

```
      00 01 02 03 04 05 06 07  08 09 0A 0B 0C 0D 0E 0F
      -- -- -- -- -- -- -- --  -- -- -- -- -- -- -- --
0000:    00                                              .              
```

#### Opcodes

```
  0: 0x0001 [0x00] END_REQSTACK()
```

### Event 0

#### Metadata

| Field        | Value     |
|--------------|-----------|
| Entrypoint   | 0x0002    |
| Data Size    | 361 bytes |
| Instructions | 75        |

```
      00 01 02 03 04 05 06 07  08 09 0A 0B 0C 0D 0E 0F
      -- -- -- -- -- -- -- --  -- -- -- -- -- -- -- --
0000:       24 00 80 01 80 01  80 25 02 00 10 02 80 00    $......%......
0010: 18 00 1A 48 00 01 46 00  02 00 10 03 80 00 38 00  ...H..F.......8.
0020: 45 04 80 F0 FF FF 7F F0  FF FF 7F 00 FE FE FE 01  E...............
0030: 80 48 05 80 23 01 46 00  02 00 10 06 80 00 46 00  .H..#.F.......F.
0040: 1A 15 01 01 46 00 21 00  24 07 80 01 80 01 80 25  ....F.!.$......%
0050: 02 00 10 01 80 00 6C 00  03 01 10 08 80 47 00 09  ......l......G..
0060: 80 0A 80 0B 80 0C 80 47  01 01 14 01 02 00 10 02  .......G........
0070: 80 00 88 00 03 01 10 0D  80 47 00 0E 80 0F 80 10  .........G......
0080: 80 0C 80 47 01 01 14 01  02 00 10 03 80 00 A4 00  ...G............
0090: 03 01 10 11 80 47 00 12  80 13 80 14 80 15 80 47  .....G.........G
00A0: 01 01 14 01 02 00 10 06  80 00 C0 00 03 01 10 16  ................
00B0: 80 47 00 17 80 18 80 10  80 19 80 47 01 01 14 01  .G.........G....
00C0: 02 00 10 1A 80 00 DC 00  03 01 10 1B 80 47 00 1C  .............G..
00D0: 80 1D 80 14 80 1E 80 47  01 01 14 01 02 00 10 1F  .......G........
00E0: 80 00 F8 00 03 01 10 20  80 47 00 21 80 22 80 23  ....... .G.!.".#
00F0: 80 1E 80 47 01 01 14 01  02 00 10 24 80 00 14 01  ...G.......$....
0100: 03 01 10 25 80 47 00 26  80 27 80 28 80 29 80 47  ...%.G.&.'.(.).G
0110: 01 01 14 01 1B 5C 00 01  80 5C 01 01 80 5C 02 01  .....\...\...\..
0120: 80 5C 03 01 80 9A 46 01  24 2A 80 01 80 01 80 25  .\....F.$*.....%
0130: 02 00 10 01 80 00 3E 01  1A 6B 01 01 68 01 02 00  ......>..k..h...
0140: 10 02 80 00 4C 01 1A 07  05 01 68 01 02 00 10 03  ....L.....h.....
0150: 80 00 5A 01 1A 44 06 01  68 01 02 00 10 06 80 00  ..Z..D..h.......
0160: 68 01 1A 75 09 01 68 01  46 00 1B                 h..u..h.F..     
```

#### Opcodes

```
  0: 0x0002 [0x24] CREATE_DIALOG(message_id=7655*, default_option=0*, option_flags=0*)
    → "B$P10l$3f$3o$3b$3O%p$3$3j$3$5[ [$3L$3$3$3$3Z$3 [/$3$1[$3v/$3J$3$3$7$3C$3x$3$3g]"
  1: 0x0009 [0x25] WAIT_DIALOG_SELECT()
  2: 0x000A [0x02] IF !(Work_Zone[0] == 1*) GOTO 0x0018
  3: 0x0012 [0x1A] CALL_SUBROUTINE(address=0x0048)
  4: 0x0015 [0x01] GOTO 0x0046
  5: 0x0018 [0x02] IF !(Work_Zone[0] == 2*) GOTO 0x0038
  6: 0x0020 [0x45] LOAD_SCHEDULED_TASK: Load scheduler 0xFEFEFE00 with entities [LocalPlayer, LocalPlayer], work=[155*, 0*]
  7: 0x0031 [0x48] [System] [7657*]:
    → "$3{$3^$3$97F$31V$P10i]\7"
  8: 0x0034 [0x23] WAIT_FOR_DIALOG_INTERACTION
  9: 0x0035 [0x01] GOTO 0x0046
 10: 0x0038 [0x02] IF !(Work_Zone[0] == 3*) GOTO 0x0046
 11: 0x0040 [0x1A] CALL_SUBROUTINE(address=0x0115)
 12: 0x0043 [0x01] GOTO 0x0046

SUBROUTINE_0046:
 13: 0x0046 [0x21] END_EVENT
 14: 0x0047 [0x00] END_REQSTACK()

SUBROUTINE_0048:
 15: 0x0048 [0x24] CREATE_DIALOG(message_id=7659*, default_option=0*, option_flags=0*)
    → "B$P10l$3f$3o$3b$3O%p$3$3j$3$5[ [$3z$3$1E$3{$3X/$3z$3$1E$3Q[$3g/$3f$3 E$3{$3X/$3f$3 E$3Q[$3g/$3$3AE$3{$3X/$3$3AE$3Q[$3g/$3}$3`$3 [$3h%q$P11z$26$l$P10,%p]"
 16: 0x004F [0x25] WAIT_DIALOG_SELECT()
 17: 0x0050 [0x02] IF !(Work_Zone[0] == 0*) GOTO 0x006C
 18: 0x0058 [0x03] Work_Zone[1] = 90*
 19: 0x005D [0x47] UPDATE_PLAYER_POS(-240.002*, -36.082*, -62.000*, yaw=270.0°*)
 20: 0x0067 [0x47] WAIT_PLAYER_POS_UPDATE
 21: 0x0069 [0x01] GOTO 0x0114
 22: 0x006C [0x02] IF !(Work_Zone[0] == 1*) GOTO 0x0088
 23: 0x0074 [0x03] Work_Zone[1] = 91*
 24: 0x0079 [0x47] UPDATE_PLAYER_POS(-0.103*, 352.915*, -119.250*, yaw=270.0°*)
 25: 0x0083 [0x47] WAIT_PLAYER_POS_UPDATE
 26: 0x0085 [0x01] GOTO 0x0114
 27: 0x0088 [0x02] IF !(Work_Zone[0] == 2*) GOTO 0x00A4
 28: 0x0090 [0x03] Work_Zone[1] = 92*
 29: 0x0095 [0x47] UPDATE_PLAYER_POS(-240.008*, 36.168*, 58.000*, yaw=90.3°*)
 30: 0x009F [0x47] WAIT_PLAYER_POS_UPDATE
 31: 0x00A1 [0x01] GOTO 0x0114
 32: 0x00A4 [0x02] IF !(Work_Zone[0] == 3*) GOTO 0x00C0
 33: 0x00AC [0x03] Work_Zone[1] = 93*
 34: 0x00B1 [0x47] UPDATE_PLAYER_POS(-0.059*, -352.970*, -119.250*, yaw=89.9°*)
 35: 0x00BB [0x47] WAIT_PLAYER_POS_UPDATE
 36: 0x00BD [0x01] GOTO 0x0114
 37: 0x00C0 [0x02] IF !(Work_Zone[0] == 4*) GOTO 0x00DC
 38: 0x00C8 [0x03] Work_Zone[1] = 94*
 39: 0x00CD [0x47] UPDATE_PLAYER_POS(-240.033*, 36.142*, 58.000*, yaw=90.0°*)
 40: 0x00D7 [0x47] WAIT_PLAYER_POS_UPDATE
 41: 0x00D9 [0x01] GOTO 0x0114
 42: 0x00DC [0x02] IF !(Work_Zone[0] == 5*) GOTO 0x00F8
 43: 0x00E4 [0x03] Work_Zone[1] = 95*
 44: 0x00E9 [0x47] UPDATE_PLAYER_POS(-0.053*, -352.837*, -119.249*, yaw=90.0°*)
 45: 0x00F3 [0x47] WAIT_PLAYER_POS_UPDATE
 46: 0x00F5 [0x01] GOTO 0x0114
 47: 0x00F8 [0x02] IF !(Work_Zone[0] == 6*) GOTO 0x0114
 48: 0x0100 [0x03] Work_Zone[1] = 96*
 49: 0x0105 [0x47] UPDATE_PLAYER_POS(-467.801*, -203.621*, 0.749*, yaw=333.3°*)
 50: 0x010F [0x47] WAIT_PLAYER_POS_UPDATE
 51: 0x0111 [0x01] GOTO 0x0114

SUBROUTINE_0114:
 52: 0x0114 [0x1B] RETURN

SUBROUTINE_0115:
 53: 0x0115 [0x5C] MUSIC_CONTROL: Set Idle (Day) music to song 0*
 54: 0x0119 [0x5C] MUSIC_CONTROL: Set Idle (Night) music to song 0*
 55: 0x011D [0x5C] MUSIC_CONTROL: Set Combat (Solo) music to song 0*
 56: 0x0121 [0x5C] MUSIC_CONTROL: Set Combat (Party) music to song 0*
 57: 0x0125 [0x9A] WAIT_MUSIC_SERVER()
 58: 0x0126 [0x46] CAMERA_CONTROL: Disable user control
 59: 0x0128 [0x24] CREATE_DIALOG(message_id=7656*, default_option=0*, option_flags=0*)
    → "$3C$3x$3$3gp$P11I$P11p [$P11f1$3N$3$3X$3^$3 [/$P11f2$3N$3$3X$3^$3 [/$P11f3$3N$3$3X$3^$3 [/$P122$P10.%p]"
 60: 0x012F [0x25] WAIT_DIALOG_SELECT()
 61: 0x0130 [0x02] IF !(Work_Zone[0] == 0*) GOTO 0x013E
 62: 0x0138 [0x1A] CALL_SUBROUTINE(address=0x016B)
 63: 0x013B [0x01] GOTO 0x0168
 64: 0x013E [0x02] IF !(Work_Zone[0] == 1*) GOTO 0x014C
 65: 0x0146 [0x1A] CALL_SUBROUTINE(address=0x0507)
 66: 0x0149 [0x01] GOTO 0x0168
 67: 0x014C [0x02] IF !(Work_Zone[0] == 2*) GOTO 0x015A
 68: 0x0154 [0x1A] CALL_SUBROUTINE(address=0x0644)
 69: 0x0157 [0x01] GOTO 0x0168
 70: 0x015A [0x02] IF !(Work_Zone[0] == 3*) GOTO 0x0168
 71: 0x0162 [0x1A] CALL_SUBROUTINE(address=0x0975)
 72: 0x0165 [0x01] GOTO 0x0168

SUBROUTINE_0168:
 73: 0x0168 [0x46] CAMERA_CONTROL: Restore default settings
 74: 0x016A [0x1B] RETURN
```

### Event 1

#### Metadata

| Field        | Value     |
|--------------|-----------|
| Entrypoint   | 0x016B    |
| Data Size    | 924 bytes |
| Instructions | 120       |

```
      00 01 02 03 04 05 06 07  08 09 0A 0B 0C 0D 0E 0F
      -- -- -- -- -- -- -- --  -- -- -- -- -- -- -- --
0160:                                   42 1A B6 0A 5D             B...]
0170: 01 80 2B 80 46 01 38 2C  80 79 00 F0 FF FF 7F F0  ..+.F.8,.y......
0180: FF FF 7F 34 2D 80 77 2E  80 02 80 1C 2F 80 AB 09  ...4-.w...../...
0190: 27 10 7E 30 01 01 02 27  10 7F 30 01 01 02 27 10  '.~0...'..0...'.
01A0: 80 30 01 01 02 27 10 81  30 01 01 02 92 01 F0 FF  .0...'..0.......
01B0: FF 7F 92 01 7E 30 01 01  92 01 7F 30 01 01 92 01  ....~0.....0....
01C0: 80 30 01 01 92 01 81 30  01 01 27 10 F0 FF FF 7F  .0.....0..'.....
01D0: 0C 27 10 7E 30 01 01 0D  27 10 7F 30 01 01 0C 27  .'.~0...'..0...'
01E0: 10 80 30 01 01 0B 27 10  81 30 01 01 0B 27 10 82  ..0...'..0...'..
01F0: 30 01 01 02 27 10 83 30  01 01 02 27 10 84 30 01  0...'..0...'..0.
0200: 01 02 27 10 85 30 01 01  02 2D F8 FF FF 7F F8 FF  ..'..0...-......
0210: FF 7F 6B 61 6B 73 80 F0  FF FF 7F 1C 30 80 27 10  ..kaks......0.'.
0220: F0 FF FF 7F 0F 45 04 80  F0 FF FF 7F F0 FF FF 7F  .....E..........
0230: 63 31 30 30 01 80 45 31  80 F0 FF FF 7F F0 FF FF  c100..E1........
0240: 7F 66 64 69 32 01 80 2A  10 F0 FF FF 7F 55 04 80  .fdi2..*.....U..
0250: F0 FF FF 7F F0 FF FF 7F  63 31 30 30 45 04 80 F0  ........c100E...
0260: FF FF 7F F0 FF FF 7F 63  31 30 31 01 80 1C 08 80  .......c101.....
0270: 2B 7D 30 01 01 32 80 23  4A F0 FF FF 7F 7F 30 01  +}0..2.#J.....0.
0280: 01 5C 00 33 80 5C 01 33  80 5C 02 33 80 5C 03 33  .\.3.\.3.\.3.\.3
0290: 80 9A 27 10 7F 30 01 01  0E 27 10 80 30 01 01 0C  ..'..0...'..0...
02A0: 27 10 81 30 01 01 0C 52  04 80 F0 FF FF 7F F0 FF  '..0...R........
02B0: FF 7F 63 31 30 31 45 04  80 F0 FF FF 7F F0 FF FF  ..c101E.........
02C0: 7F 63 31 30 32 01 80 2B  7F 30 01 01 34 80 23 2A  .c102..+.0..4.#*
02D0: 10 7F 30 01 01 5B 35 80  7F 30 01 01 7F 30 01 01  ..0..[5..0...0..
02E0: 74 68 62 30 2B 7F 30 01  01 36 80 23 52 04 80 F0  thb0+.0..6.#R...
02F0: FF FF 7F F0 FF FF 7F 63  31 30 32 45 04 80 F0 FF  .......c102E....
0300: FF 7F F0 FF FF 7F 63 31  30 33 01 80 2B 7F 30 01  ......c103..+.0.
0310: 01 37 80 23 5B 35 80 7F  30 01 01 7F 30 01 01 68  .7.#[5..0...0..h
0320: 62 74 62 2B 7F 30 01 01  38 80 23 5B 35 80 7F 30  btb+.0..8.#[5..0
0330: 01 01 7F 30 01 01 74 6C  62 31 53 7F 30 01 01 7F  ...0..tlb1S.0...
0340: 30 01 01 74 6C 62 31 52  04 80 F0 FF FF 7F F0 FF  0..tlb1R........
0350: FF 7F 63 31 30 33 45 04  80 F0 FF FF 7F F0 FF FF  ..c103E.........
0360: 7F 63 31 6D 67 01 80 27  10 7C 30 01 01 02 5B 39  .c1mg..'.|0...[9
0370: 80 7F 30 01 01 7F 30 01  01 6D 67 63 30 2B 7F 30  ..0...0..mgc0+.0
0380: 01 01 3A 80 23 53 7F 30  01 01 7F 30 01 01 6D 67  ..:.#S.0...0..mg
0390: 63 30 27 10 7D 30 01 01  02 1C 30 80 27 10 7E 30  c0'.}0....0.'.~0
03A0: 01 01 10 52 04 80 F0 FF  FF 7F F0 FF FF 7F 63 31  ...R..........c1
03B0: 6D 67 45 04 80 F0 FF FF  7F F0 FF FF 7F 63 31 30  mgE..........c10
03C0: 34 01 80 4A F0 FF FF 7F  7E 30 01 01 2B 7F 30 01  4..J....~0..+.0.
03D0: 01 3B 80 23 52 04 80 F0  FF FF 7F F0 FF FF 7F 63  .;.#R..........c
03E0: 31 30 34 45 04 80 F0 FF  FF 7F F0 FF FF 7F 63 31  104E..........c1
03F0: 30 35 01 80 1C 2B 80 45  04 80 F0 FF FF 7F F0 FF  05...+.E........
0400: FF 7F 73 31 37 36 01 80  27 10 7C 30 01 01 03 27  ..s176..'.|0...'
0410: 10 7C 30 01 01 04 2B 7F  30 01 01 3C 80 23 27 10  .|0...+.0..<.#'.
0420: 7E 30 01 01 11 52 04 80  F0 FF FF 7F F0 FF FF 7F  ~0...R..........
0430: 63 31 30 35 45 04 80 F0  FF FF 7F F0 FF FF 7F 63  c105E..........c
0440: 31 30 36 01 80 29 10 7E  30 01 01 12 1C 2B 80 1A  106..).~0....+..
0450: F8 0A 5D 01 80 08 80 45  04 80 F0 FF FF 7F F0 FF  ..]....E........
0460: FF 7F 6B 31 37 36 01 80  1C 08 80 52 04 80 F0 FF  ..k176.....R....
0470: FF 7F F0 FF FF 7F 63 31  30 36 45 04 80 F0 FF FF  ......c106E.....
0480: 7F F0 FF FF 7F 62 6C 6F  66 01 80 9F 1B 80 82 30  .....blof......0
0490: 01 01 82 30 01 01 6B 69  6C 6C 01 80 9F 1B 80 83  ...0..kill......
04A0: 30 01 01 83 30 01 01 6B  69 6C 6C 01 80 9F 1B 80  0...0..kill.....
04B0: 84 30 01 01 84 30 01 01  6B 69 6C 6C 01 80 9F 1B  .0...0..kill....
04C0: 80 85 30 01 01 85 30 01  01 6B 69 6C 6C 01 80 1A  ..0...0..kill...
04D0: B6 0A 1A D7 0A 1C 2B 80  35 3D 80 78 1C 2F 80 AB  ......+.5=.x./..
04E0: 0A 5C 00 01 80 5C 01 01  80 5C 02 01 80 5C 03 01  .\...\...\...\..
04F0: 80 9A 46 00 45 31 80 F0  FF FF 7F F0 FF FF 7F 66  ..F.E1.........f
0500: 64 69 32 01 80 21 00                              di2..!.         
```

#### Opcodes

```
  0: 0x016B [0x42] SET_CLI_EVENT_CANCEL_DATA()
  1: 0x016C [0x1A] CALL_SUBROUTINE(address=0x0AB6)
  2: 0x016F [0x5D] SET_MUSIC_VOLUME(volume=0*, fade_time=30*)
  3: 0x0174 [0x46] CAMERA_CONTROL: Disable user control
  4: 0x0176 [0x38] SET_CLIENT_EVENT_MODE(mode=19*)
  5: 0x0179 [0x79] LocalPlayer looks at LocalPlayer (Basic look)
  6: 0x0183 [0x34] LOAD_UNLOAD_ZONE(zone_id=541*)
  7: 0x0186 [0x77] SET_EVENT_TIME_WEATHER(hour=12*, weather=1*)
  8: 0x018B [0x1C] WAIT(15* ticks)
  9: 0x018E [0xAB] EventEntity->UnknownFlag = 1 // Enable unknown flag
 10: 0x0190 [0x27] REQ_SET(priority=0x10, entity_id=Selh'teus (ID: 16855166/0x0101307E), tag_num=0x02)
 11: 0x0197 [0x27] REQ_SET(priority=0x10, entity_id=Nag'molada (ID: 16855167/0x0101307F), tag_num=0x02)
 12: 0x019E [0x27] REQ_SET(priority=0x10, entity_id=Unnamed NPC (ID: 16855168/0x01013080), tag_num=0x02)
 13: 0x01A5 [0x27] REQ_SET(priority=0x10, entity_id=Unnamed NPC (ID: 16855169/0x01013081), tag_num=0x02)
 14: 0x01AC [0x92] LocalPlayer->Render.Flags3 ^= 0x01
 15: 0x01B2 [0x92] Selh'teus (ID: 16855166/0x0101307E)->Render.Flags3 ^= 0x01
 16: 0x01B8 [0x92] Nag'molada (ID: 16855167/0x0101307F)->Render.Flags3 ^= 0x01
 17: 0x01BE [0x92] Unnamed NPC (ID: 16855168/0x01013080)->Render.Flags3 ^= 0x01
 18: 0x01C4 [0x92] Unnamed NPC (ID: 16855169/0x01013081)->Render.Flags3 ^= 0x01
 19: 0x01CA [0x27] REQ_SET(priority=0x10, entity_id=LocalPlayer, tag_num=0x0C)
 20: 0x01D1 [0x27] REQ_SET(priority=0x10, entity_id=Selh'teus (ID: 16855166/0x0101307E), tag_num=0x0D)
 21: 0x01D8 [0x27] REQ_SET(priority=0x10, entity_id=Nag'molada (ID: 16855167/0x0101307F), tag_num=0x0C)
 22: 0x01DF [0x27] REQ_SET(priority=0x10, entity_id=Unnamed NPC (ID: 16855168/0x01013080), tag_num=0x0B)
 23: 0x01E6 [0x27] REQ_SET(priority=0x10, entity_id=Unnamed NPC (ID: 16855169/0x01013081), tag_num=0x0B)
 24: 0x01ED [0x27] REQ_SET(priority=0x10, entity_id=Unnamed NPC (ID: 16855170/0x01013082), tag_num=0x02)
 25: 0x01F4 [0x27] REQ_SET(priority=0x10, entity_id=Unnamed NPC (ID: 16855171/0x01013083), tag_num=0x02)
 26: 0x01FB [0x27] REQ_SET(priority=0x10, entity_id=Unnamed NPC (ID: 16855172/0x01013084), tag_num=0x02)
 27: 0x0202 [0x27] REQ_SET(priority=0x10, entity_id=Unnamed NPC (ID: 16855173/0x01013085), tag_num=0x02)
 28: 0x0209 [0x2D] CREATE_ZONE_SCHEDULER_TASK: Create scheduler "kaks" with entities [EventEntity, EventEntity]
 29: 0x0216 [0x80] LOAD_WAIT(entity=LocalPlayer)
 30: 0x021B [0x1C] WAIT(45* ticks)
 31: 0x021E [0x27] REQ_SET(priority=0x10, entity_id=LocalPlayer, tag_num=0x0F)
 32: 0x0225 [0x45] LOAD_SCHEDULED_TASK: Load scheduler "c100" with entities [LocalPlayer, LocalPlayer], work=[155*, 0*]
 33: 0x0236 [0x45] LOAD_SCHEDULED_TASK: Load scheduler "fdi2" with entities [LocalPlayer, LocalPlayer], work=[200*, 0*]
 34: 0x0247 [0x2A] GET_REQ_LEVEL(level=16, entity_id=LocalPlayer)
 35: 0x024D [0x55] WAIT_LOAD_SCHEDULER: Wait for scheduler "c100" with entities [LocalPlayer, LocalPlayer], work=155*
 36: 0x025C [0x45] LOAD_SCHEDULED_TASK: Load scheduler "c101" with entities [LocalPlayer, LocalPlayer], work=[155*, 0*]
 37: 0x026D [0x1C] WAIT(90* ticks)
 38: 0x0270 [0x2B] ??? (ID: 16855165/0x0101307D) [7641*]:
    → "You shouldn't move any closer..."
 39: 0x0277 [0x23] WAIT_FOR_DIALOG_INTERACTION
 40: 0x0278 [0x4A] LocalPlayer looks at Nag'molada (ID: 16855167/0x0101307F)
 41: 0x0281 [0x5C] MUSIC_CONTROL: Set Idle (Day) music to song 231*
 42: 0x0285 [0x5C] MUSIC_CONTROL: Set Idle (Night) music to song 231*
 43: 0x0289 [0x5C] MUSIC_CONTROL: Set Combat (Solo) music to song 231*
 44: 0x028D [0x5C] MUSIC_CONTROL: Set Combat (Party) music to song 231*
 45: 0x0291 [0x9A] WAIT_MUSIC_SERVER()
 46: 0x0292 [0x27] REQ_SET(priority=0x10, entity_id=Nag'molada (ID: 16855167/0x0101307F), tag_num=0x0E)
 47: 0x0299 [0x27] REQ_SET(priority=0x10, entity_id=Unnamed NPC (ID: 16855168/0x01013080), tag_num=0x0C)
 48: 0x02A0 [0x27] REQ_SET(priority=0x10, entity_id=Unnamed NPC (ID: 16855169/0x01013081), tag_num=0x0C)
 49: 0x02A7 [0x52] END_LOAD_SCHEDULER: End scheduler "c101" with entities [LocalPlayer, LocalPlayer], work=155*
 50: 0x02B6 [0x45] LOAD_SCHEDULED_TASK: Load scheduler "c102" with entities [LocalPlayer, LocalPlayer], work=[155*, 0*]
 51: 0x02C7 [0x2B] Nag'molada (ID: 16855167/0x0101307F) [7642*]:
    → "Amazing. I don't know who you are, but I commend you on your ability to make it this far."
 52: 0x02CE [0x23] WAIT_FOR_DIALOG_INTERACTION
 53: 0x02CF [0x2A] GET_REQ_LEVEL(level=16, entity_id=Nag'molada (ID: 16855167/0x0101307F))
 54: 0x02D5 [0x5B] LOAD_EXT_SCHEDULER: Load scheduler "thb0" with entities [Nag'molada (ID: 16855167/0x0101307F), Nag'molada (ID: 16855167/0x0101307F)], work=465*
 55: 0x02E4 [0x2B] Nag'molada (ID: 16855167/0x0101307F) [7643*]:
    → "There she is. The mothercrystal. Well, what do you think?"
 56: 0x02EB [0x23] WAIT_FOR_DIALOG_INTERACTION
 57: 0x02EC [0x52] END_LOAD_SCHEDULER: End scheduler "c102" with entities [LocalPlayer, LocalPlayer], work=155*
 58: 0x02FB [0x45] LOAD_SCHEDULED_TASK: Load scheduler "c103" with entities [LocalPlayer, LocalPlayer], work=[155*, 0*]
 59: 0x030C [0x2B] Nag'molada (ID: 16855167/0x0101307F) [7644*]:
    → "Can't you feel her power? Can't you feel her marvelous light streaming through your body? Can't you feel the endless joy she brings?"
 60: 0x0313 [0x23] WAIT_FOR_DIALOG_INTERACTION
 61: 0x0314 [0x5B] LOAD_EXT_SCHEDULER: Load scheduler "hbtb" with entities [Nag'molada (ID: 16855167/0x0101307F), Nag'molada (ID: 16855167/0x0101307F)], work=465*
 62: 0x0323 [0x2B] Nag'molada (ID: 16855167/0x0101307F) [7645*]:
    → "The light from this crystal feeds our souls and keeps us alive... It keeps the whole world alive."
 63: 0x032A [0x23] WAIT_FOR_DIALOG_INTERACTION
 64: 0x032B [0x5B] LOAD_EXT_SCHEDULER: Load scheduler "tlb1" with entities [Nag'molada (ID: 16855167/0x0101307F), Nag'molada (ID: 16855167/0x0101307F)], work=465*
 65: 0x033A [0x53] WAIT_SCHEDULER_TASK: Wait for scheduler "tlb1" with entities [Nag'molada (ID: 16855167/0x0101307F), Nag'molada (ID: 16855167/0x0101307F)]
 66: 0x0347 [0x52] END_LOAD_SCHEDULER: End scheduler "c103" with entities [LocalPlayer, LocalPlayer], work=155*
 67: 0x0356 [0x45] LOAD_SCHEDULED_TASK: Load scheduler "c1mg" with entities [LocalPlayer, LocalPlayer], work=[155*, 0*]
 68: 0x0367 [0x27] REQ_SET(priority=0x10, entity_id=Unnamed NPC (ID: 16855164/0x0101307C), tag_num=0x02)
 69: 0x036E [0x5B] LOAD_EXT_SCHEDULER: Load scheduler "mgc0" with entities [Nag'molada (ID: 16855167/0x0101307F), Nag'molada (ID: 16855167/0x0101307F)], work=466*
 70: 0x037D [0x2B] Nag'molada (ID: 16855167/0x0101307F) [7646*]:
    → "And that is why we cannot forgive any who attempt to harm the crystal."
 71: 0x0384 [0x23] WAIT_FOR_DIALOG_INTERACTION
 72: 0x0385 [0x53] WAIT_SCHEDULER_TASK: Wait for scheduler "mgc0" with entities [Nag'molada (ID: 16855167/0x0101307F), Nag'molada (ID: 16855167/0x0101307F)]
 73: 0x0392 [0x27] REQ_SET(priority=0x10, entity_id=??? (ID: 16855165/0x0101307D), tag_num=0x02)
 74: 0x0399 [0x1C] WAIT(45* ticks)
 75: 0x039C [0x27] REQ_SET(priority=0x10, entity_id=Selh'teus (ID: 16855166/0x0101307E), tag_num=0x10)
 76: 0x03A3 [0x52] END_LOAD_SCHEDULER: End scheduler "c1mg" with entities [LocalPlayer, LocalPlayer], work=155*
 77: 0x03B2 [0x45] LOAD_SCHEDULED_TASK: Load scheduler "c104" with entities [LocalPlayer, LocalPlayer], work=[155*, 0*]
 78: 0x03C3 [0x4A] LocalPlayer looks at Selh'teus (ID: 16855166/0x0101307E)
 79: 0x03CC [0x2B] Nag'molada (ID: 16855167/0x0101307F) [7647*]:
    → "!? Who are... What are you doing here!?"
 80: 0x03D3 [0x23] WAIT_FOR_DIALOG_INTERACTION
 81: 0x03D4 [0x52] END_LOAD_SCHEDULER: End scheduler "c104" with entities [LocalPlayer, LocalPlayer], work=155*
 82: 0x03E3 [0x45] LOAD_SCHEDULED_TASK: Load scheduler "c105" with entities [LocalPlayer, LocalPlayer], work=[155*, 0*]
 83: 0x03F4 [0x1C] WAIT(30* ticks)
 84: 0x03F7 [0x45] LOAD_SCHEDULED_TASK: Load scheduler "s176" with entities [LocalPlayer, LocalPlayer], work=[155*, 0*]
 85: 0x0408 [0x27] REQ_SET(priority=0x10, entity_id=Unnamed NPC (ID: 16855164/0x0101307C), tag_num=0x03)
 86: 0x040F [0x27] REQ_SET(priority=0x10, entity_id=Unnamed NPC (ID: 16855164/0x0101307C), tag_num=0x04)
 87: 0x0416 [0x2B] Nag'molada (ID: 16855167/0x0101307F) [7648*]:
    → "That... That darkness...!"
 88: 0x041D [0x23] WAIT_FOR_DIALOG_INTERACTION
 89: 0x041E [0x27] REQ_SET(priority=0x10, entity_id=Selh'teus (ID: 16855166/0x0101307E), tag_num=0x11)
 90: 0x0425 [0x52] END_LOAD_SCHEDULER: End scheduler "c105" with entities [LocalPlayer, LocalPlayer], work=155*
 91: 0x0434 [0x45] LOAD_SCHEDULED_TASK: Load scheduler "c106" with entities [LocalPlayer, LocalPlayer], work=[155*, 0*]
 92: 0x0445 [0x29] REQ_SET_WAIT(priority=0x10, entity_id=Selh'teus (ID: 16855166/0x0101307E), tag_num=0x12)
 93: 0x044C [0x1C] WAIT(30* ticks)
 94: 0x044F [0x1A] CALL_SUBROUTINE(address=0x0AF8)
 95: 0x0452 [0x5D] SET_MUSIC_VOLUME(volume=0*, fade_time=90*)
 96: 0x0457 [0x45] LOAD_SCHEDULED_TASK: Load scheduler "k176" with entities [LocalPlayer, LocalPlayer], work=[155*, 0*]
 97: 0x0468 [0x1C] WAIT(90* ticks)
 98: 0x046B [0x52] END_LOAD_SCHEDULER: End scheduler "c106" with entities [LocalPlayer, LocalPlayer], work=155*
 99: 0x047A [0x45] LOAD_SCHEDULED_TASK: Load scheduler "blof" with entities [LocalPlayer, LocalPlayer], work=[155*, 0*]
100: 0x048B [0x9F] LOAD_SCHEDULED_TASK_ALT: Load scheduler "kill" with entities [Unnamed NPC (ID: 16855170/0x01013082), Unnamed NPC (ID: 16855170/0x01013082)], work=[94*, 0*]
101: 0x049C [0x9F] LOAD_SCHEDULED_TASK_ALT: Load scheduler "kill" with entities [Unnamed NPC (ID: 16855171/0x01013083), Unnamed NPC (ID: 16855171/0x01013083)], work=[94*, 0*]
102: 0x04AD [0x9F] LOAD_SCHEDULED_TASK_ALT: Load scheduler "kill" with entities [Unnamed NPC (ID: 16855172/0x01013084), Unnamed NPC (ID: 16855172/0x01013084)], work=[94*, 0*]
103: 0x04BE [0x9F] LOAD_SCHEDULED_TASK_ALT: Load scheduler "kill" with entities [Unnamed NPC (ID: 16855173/0x01013085), Unnamed NPC (ID: 16855173/0x01013085)], work=[94*, 0*]
104: 0x04CF [0x1A] CALL_SUBROUTINE(address=0x0AB6)
105: 0x04D2 [0x1A] CALL_SUBROUTINE(address=0x0AD7)
106: 0x04D5 [0x1C] WAIT(30* ticks)
107: 0x04D8 [0x35] LOAD_ZONE_NO_CLOSE(zone_id=17*)
108: 0x04DB [0x78] ENABLE_GAME_TIMER_RESET_WEATHER()
109: 0x04DC [0x1C] WAIT(15* ticks)
110: 0x04DF [0xAB] EventEntity->UnknownFlag = 0 // Disable unknown flag
111: 0x04E1 [0x5C] MUSIC_CONTROL: Set Idle (Day) music to song 0*
112: 0x04E5 [0x5C] MUSIC_CONTROL: Set Idle (Night) music to song 0*
113: 0x04E9 [0x5C] MUSIC_CONTROL: Set Combat (Solo) music to song 0*
114: 0x04ED [0x5C] MUSIC_CONTROL: Set Combat (Party) music to song 0*
115: 0x04F1 [0x9A] WAIT_MUSIC_SERVER()
116: 0x04F2 [0x46] CAMERA_CONTROL: Restore default settings
117: 0x04F4 [0x45] LOAD_SCHEDULED_TASK: Load scheduler "fdi2" with entities [LocalPlayer, LocalPlayer], work=[200*, 0*]
118: 0x0505 [0x21] END_EVENT
119: 0x0506 [0x00] END_REQSTACK()
```

### Event 2

#### Metadata

| Field        | Value     |
|--------------|-----------|
| Entrypoint   | 0x0507    |
| Data Size    | 317 bytes |
| Instructions | 50        |

```
      00 01 02 03 04 05 06 07  08 09 0A 0B 0C 0D 0E 0F
      -- -- -- -- -- -- -- --  -- -- -- -- -- -- -- --
0500:                      42  1A B6 0A 5D 01 80 2B 80         B...]..+.
0510: 46 01 38 2C 80 79 00 F0  FF FF 7F F0 FF FF 7F 34  F.8,.y.........4
0520: 2D 80 77 2E 80 02 80 1C  2F 80 AB 09 27 10 7E 30  -.w...../...'.~0
0530: 01 01 04 92 01 F0 FF FF  7F 92 01 7E 30 01 01 27  ...........~0..'
0540: 10 F0 FF FF 7F 0D 27 10  7E 30 01 01 0E 2D F8 FF  ......'.~0...-..
0550: FF 7F F8 FF FF 7F 6B 61  6B 73 80 F0 FF FF 7F 1C  ......kaks......
0560: 30 80 5B 3E 80 7E 30 01  01 7E 30 01 01 64 77 6E  0.[>.~0..~0..dwn
0570: 30 45 04 80 F0 FF FF 7F  F0 FF FF 7F 63 32 30 30  0E..........c200
0580: 01 80 45 31 80 F0 FF FF  7F F0 FF FF 7F 66 64 69  ..E1.........fdi
0590: 32 01 80 55 04 80 F0 FF  FF 7F F0 FF FF 7F 63 32  2..U..........c2
05A0: 30 30 1A B6 0A 1C 2B 80  45 04 80 F0 FF FF 7F F0  00....+.E.......
05B0: FF FF 7F 63 32 30 31 01  80 1A 95 0A 55 04 80 F0  ...c201.....U...
05C0: FF FF 7F F0 FF FF 7F 63  32 30 31 45 04 80 F0 FF  .......c201E....
05D0: FF 7F F0 FF FF 7F 63 32  30 32 01 80 27 10 F0 FF  ......c202..'...
05E0: FF 7F 10 1C 3F 80 1A F8  0A 1C 08 80 52 04 80 F0  ....?.......R...
05F0: FF FF 7F F0 FF FF 7F 63  32 30 32 45 04 80 F0 FF  .......c202E....
0600: FF 7F F0 FF FF 7F 62 6C  6F 66 01 80 1A B6 0A 1A  ......blof......
0610: D7 0A 1C 2B 80 35 3D 80  78 1C 2F 80 AB 0A 5C 00  ...+.5=.x./...\.
0620: 01 80 5C 01 01 80 5C 02  01 80 5C 03 01 80 9A 46  ..\...\...\....F
0630: 00 45 31 80 F0 FF FF 7F  F0 FF FF 7F 66 64 69 32  .E1.........fdi2
0640: 01 80 21 00                                       ..!.            
```

#### Opcodes

```
  0: 0x0507 [0x42] SET_CLI_EVENT_CANCEL_DATA()
  1: 0x0508 [0x1A] CALL_SUBROUTINE(address=0x0AB6)
  2: 0x050B [0x5D] SET_MUSIC_VOLUME(volume=0*, fade_time=30*)
  3: 0x0510 [0x46] CAMERA_CONTROL: Disable user control
  4: 0x0512 [0x38] SET_CLIENT_EVENT_MODE(mode=19*)
  5: 0x0515 [0x79] LocalPlayer looks at LocalPlayer (Basic look)
  6: 0x051F [0x34] LOAD_UNLOAD_ZONE(zone_id=541*)
  7: 0x0522 [0x77] SET_EVENT_TIME_WEATHER(hour=12*, weather=1*)
  8: 0x0527 [0x1C] WAIT(15* ticks)
  9: 0x052A [0xAB] EventEntity->UnknownFlag = 1 // Enable unknown flag
 10: 0x052C [0x27] REQ_SET(priority=0x10, entity_id=Selh'teus (ID: 16855166/0x0101307E), tag_num=0x04)
 11: 0x0533 [0x92] LocalPlayer->Render.Flags3 ^= 0x01
 12: 0x0539 [0x92] Selh'teus (ID: 16855166/0x0101307E)->Render.Flags3 ^= 0x01
 13: 0x053F [0x27] REQ_SET(priority=0x10, entity_id=LocalPlayer, tag_num=0x0D)
 14: 0x0546 [0x27] REQ_SET(priority=0x10, entity_id=Selh'teus (ID: 16855166/0x0101307E), tag_num=0x0E)
 15: 0x054D [0x2D] CREATE_ZONE_SCHEDULER_TASK: Create scheduler "kaks" with entities [EventEntity, EventEntity]
 16: 0x055A [0x80] LOAD_WAIT(entity=LocalPlayer)
 17: 0x055F [0x1C] WAIT(45* ticks)
 18: 0x0562 [0x5B] LOAD_EXT_SCHEDULER: Load scheduler "dwn0" with entities [Selh'teus (ID: 16855166/0x0101307E), Selh'teus (ID: 16855166/0x0101307E)], work=456*
 19: 0x0571 [0x45] LOAD_SCHEDULED_TASK: Load scheduler "c200" with entities [LocalPlayer, LocalPlayer], work=[155*, 0*]
 20: 0x0582 [0x45] LOAD_SCHEDULED_TASK: Load scheduler "fdi2" with entities [LocalPlayer, LocalPlayer], work=[200*, 0*]
 21: 0x0593 [0x55] WAIT_LOAD_SCHEDULER: Wait for scheduler "c200" with entities [LocalPlayer, LocalPlayer], work=155*
 22: 0x05A2 [0x1A] CALL_SUBROUTINE(address=0x0AB6)
 23: 0x05A5 [0x1C] WAIT(30* ticks)
 24: 0x05A8 [0x45] LOAD_SCHEDULED_TASK: Load scheduler "c201" with entities [LocalPlayer, LocalPlayer], work=[155*, 0*]
 25: 0x05B9 [0x1A] CALL_SUBROUTINE(address=0x0A95)
 26: 0x05BC [0x55] WAIT_LOAD_SCHEDULER: Wait for scheduler "c201" with entities [LocalPlayer, LocalPlayer], work=155*
 27: 0x05CB [0x45] LOAD_SCHEDULED_TASK: Load scheduler "c202" with entities [LocalPlayer, LocalPlayer], work=[155*, 0*]
 28: 0x05DC [0x27] REQ_SET(priority=0x10, entity_id=LocalPlayer, tag_num=0x10)
 29: 0x05E3 [0x1C] WAIT(120* ticks)
 30: 0x05E6 [0x1A] CALL_SUBROUTINE(address=0x0AF8)
 31: 0x05E9 [0x1C] WAIT(90* ticks)
 32: 0x05EC [0x52] END_LOAD_SCHEDULER: End scheduler "c202" with entities [LocalPlayer, LocalPlayer], work=155*
 33: 0x05FB [0x45] LOAD_SCHEDULED_TASK: Load scheduler "blof" with entities [LocalPlayer, LocalPlayer], work=[155*, 0*]
 34: 0x060C [0x1A] CALL_SUBROUTINE(address=0x0AB6)
 35: 0x060F [0x1A] CALL_SUBROUTINE(address=0x0AD7)
 36: 0x0612 [0x1C] WAIT(30* ticks)
 37: 0x0615 [0x35] LOAD_ZONE_NO_CLOSE(zone_id=17*)
 38: 0x0618 [0x78] ENABLE_GAME_TIMER_RESET_WEATHER()
 39: 0x0619 [0x1C] WAIT(15* ticks)
 40: 0x061C [0xAB] EventEntity->UnknownFlag = 0 // Disable unknown flag
 41: 0x061E [0x5C] MUSIC_CONTROL: Set Idle (Day) music to song 0*
 42: 0x0622 [0x5C] MUSIC_CONTROL: Set Idle (Night) music to song 0*
 43: 0x0626 [0x5C] MUSIC_CONTROL: Set Combat (Solo) music to song 0*
 44: 0x062A [0x5C] MUSIC_CONTROL: Set Combat (Party) music to song 0*
 45: 0x062E [0x9A] WAIT_MUSIC_SERVER()
 46: 0x062F [0x46] CAMERA_CONTROL: Restore default settings
 47: 0x0631 [0x45] LOAD_SCHEDULED_TASK: Load scheduler "fdi2" with entities [LocalPlayer, LocalPlayer], work=[200*, 0*]
 48: 0x0642 [0x21] END_EVENT
 49: 0x0643 [0x00] END_REQSTACK()
```

### Event 3

#### Metadata

| Field        | Value      |
|--------------|------------|
| Entrypoint   | 0x0644     |
| Data Size    | 1696 bytes |
| Instructions | 111        |

```
      00 01 02 03 04 05 06 07  08 09 0A 0B 0C 0D 0E 0F
      -- -- -- -- -- -- -- --  -- -- -- -- -- -- -- --
0640:             42 1A B6 0A  5D 01 80 2B 80 46 01 38      B...]..+.F.8
0650: 2C 80 79 00 F0 FF FF 7F  F0 FF FF 7F 34 2D 80 77  ,.y.........4-.w
0660: 2E 80 02 80 1C 2F 80 AB  09 27 10 7E 30 01 01 02  ...../...'.~0...
0670: 27 10 7F 30 01 01 02 92  01 F0 FF FF 7F 92 01 7E  '..0...........~
0680: 30 01 01 92 01 7F 30 01  01 27 10 F0 FF FF 7F 0E  0.....0..'......
0690: 27 10 7E 30 01 01 0F 27  10 7F 30 01 01 0D 27 10  '.~0...'..0...'.
06A0: 82 30 01 01 03 27 10 83  30 01 01 03 27 10 84 30  .0...'..0...'..0
06B0: 01 01 03 27 10 85 30 01  01 03 80 F0 FF FF 7F 1C  ...'..0.........
06C0: 30 80 81 00 7E 30 01 01  5B 40 80 7E 30 01 01 7E  0...~0..[@.~0..~
06D0: 30 01 01 63 72 79 30 45  04 80 F0 FF FF 7F F0 FF  0..cry0E........
06E0: FF 7F 63 33 30 30 01 80  45 31 80 F0 FF FF 7F F0  ..c300..E1......
06F0: FF FF 7F 66 64 69 32 01  80 55 04 80 F0 FF FF 7F  ...fdi2..U......
0700: F0 FF FF 7F 63 33 30 30  5B 41 80 7F 30 01 01 7F  ....c300[A..0...
0710: 30 01 01 79 6F 72 30 45  04 80 F0 FF FF 7F F0 FF  0..yor0E........
0720: FF 7F 63 33 30 31 01 80  27 10 7C 30 01 01 05 79  ..c301..'.|0...y
0730: 00 F0 FF FF 7F 7F 30 01  01 4B F0 FF FF 7F 42 80  ......0..K....B.
0740: 45 04 80 F0 FF FF 7F F0  FF FF 7F 63 33 30 31 01  E..........c301.
0750: 80 55 04 80 F0 FF FF 7F  F0 FF FF 7F 63 33 30 31  .U..........c301
0760: 45 04 80 F0 FF FF 7F F0  FF FF 7F 63 33 30 32 01  E..........c302.
0770: 80 55 04 80 F0 FF FF 7F  F0 FF FF 7F 63 33 30 32  .U..........c302
0780: 2B 7F 30 01 01 43 80 23  5C 00 44 80 5C 01 44 80  +.0..C.#\.D.\.D.
0790: 5C 02 44 80 5C 03 44 80  9A 5B 41 80 7F 30 01 01  \.D.\.D..[A..0..
07A0: 7F 30 01 01 67 61 6B 30  1C 45 80 45 04 80 F0 FF  .0..gak0.E.E....
07B0: FF 7F F0 FF FF 7F 73 32  37 36 01 80 27 10 7C 30  ......s276..'.|0
07C0: 01 01 03 45 04 80 F0 FF  FF 7F F0 FF FF 7F 63 33  ...E..........c3
07D0: 30 34 01 80 1C 2B 80 79  00 F0 FF FF 7F 7E 30 01  04...+.y.....~0.
07E0: 01 4B F0 FF FF 7F 46 80  55 04 80 F0 FF FF 7F F0  .K....F.U.......
07F0: FF FF 7F 63 33 30 34 45  04 80 F0 FF FF 7F F0 FF  ...c304E........
0800: FF 7F 63 33 30 35 01 80  2B 7F 30 01 01 47 80 23  ..c305..+.0..G.#
0810: 52 04 80 F0 FF FF 7F F0  FF FF 7F 63 33 30 35 45  R..........c305E
0820: 04 80 F0 FF FF 7F F0 FF  FF 7F 63 33 30 36 01 80  ..........c306..
0830: 55 04 80 F0 FF FF 7F F0  FF FF 7F 63 33 30 36 45  U..........c306E
0840: 04 80 F0 FF FF 7F F0 FF  FF 7F 63 33 30 37 01 80  ..........c307..
0850: 2D F8 FF FF 7F F8 FF FF  7F 6B 61 6B 73 1C 48 80  -........kaks.H.
0860: 45 04 80 F0 FF FF 7F F0  FF FF 7F 6B 32 37 36 01  E..........k276.
0870: 80 27 10 7C 30 01 01 06  55 04 80 F0 FF FF 7F F0  .'.|0...U.......
0880: FF FF 7F 63 33 30 37 45  04 80 F0 FF FF 7F F0 FF  ...c307E........
0890: FF 7F 63 33 31 30 01 80  5B 41 80 7F 30 01 01 7F  ..c310..[A..0...
08A0: 30 01 01 6D 61 62 30 1C  2F 80 2B 7F 30 01 01 49  0..mab0./.+.0..I
08B0: 80 23 52 04 80 F0 FF FF  7F F0 FF FF 7F 63 33 31  .#R..........c31
08C0: 30 45 04 80 F0 FF FF 7F  F0 FF FF 7F 63 33 30 38  0E..........c308
08D0: 01 80 27 10 7F 30 01 01  0F 27 10 7E 30 01 01 03  ..'..0...'.~0...
08E0: 1C 08 80 2B 7F 30 01 01  4A 80 55 04 80 F0 FF FF  ...+.0..J.U.....
08F0: 7F F0 FF FF 7F 63 33 30  38 45 04 80 F0 FF FF 7F  .....c308E......
0900: F0 FF FF 7F 63 33 30 39  01 80 2B 7F 30 01 01 4B  ....c309..+.0..K
0910: 80 23 1A F8 0A 5D 01 80  08 80 1C 08 80 52 04 80  .#...].......R..
0920: F0 FF FF 7F F0 FF FF 7F  63 33 30 39 45 04 80 F0  ........c309E...
0930: FF FF 7F F0 FF FF 7F 62  6C 6F 66 01 80 1A B6 0A  .......blof.....
0940: 1A D7 0A 1C 2B 80 35 3D  80 78 1C 2F 80 AB 0A 5C  ....+.5=.x./...\
0950: 00 01 80 5C 01 01 80 5C  02 01 80 5C 03 01 80 9A  ...\...\...\....
0960: 46 00 45 31 80 F0 FF FF  7F F0 FF FF 7F 66 64 69  F.E1.........fdi
0970: 32 01 80 21 00 42 1A F8  0A 5D 01 80 4C 80 46 01  2..!.B...]..L.F.
0980: 38 2C 80 79 00 F0 FF FF  7F F0 FF FF 7F 34 4D 80  8,.y.........4M.
0990: 77 2E 80 02 80 1C 2F 80  AB 09 5C 00 4E 80 5C 01  w...../...\.N.\.
09A0: 4E 80 5C 02 4E 80 5C 03  4E 80 9A 1C 2B 80 9F 4F  N.\.N.\.N...+..O
09B0: 80 F0 FF FF 7F F0 FF FF  7F 73 74 72 30 01 80 9F  .........str0...
09C0: 25 80 F0 FF FF 7F F0 FF  FF 7F 6D 61 69 6E 01 80  %.........main..
09D0: 45 04 80 F0 FF FF 7F F0  FF FF 7F 73 69 6E 30 01  E..........sin0.
09E0: 80 1A D7 0A 1C 50 80 48  05 80 23 1A F8 0A 1C 4C  .....P.H..#....L
09F0: 80 9F 4F 80 F0 FF FF 7F  F0 FF FF 7F 6B 69 6C 6C  ..O.........kill
0A00: 01 80 9F 25 80 F0 FF FF  7F F0 FF FF 7F 6B 69 6C  ...%.........kil
0A10: 6C 01 80 45 04 80 F0 FF  FF 7F F0 FF FF 7F 62 6C  l..E..........bl
0A20: 6F 66 01 80 52 04 80 F0  FF FF 7F F0 FF FF 7F 73  of..R..........s
0A30: 69 6E 30 35 4E 80 78 1C  2F 80 AB 0A 5C 00 01 80  in05N.x./...\...
0A40: 5C 01 01 80 5C 02 44 80  5C 03 44 80 9A 46 00 1A  \...\.D.\.D..F..
0A50: D7 0A 1B 45 31 80 F0 FF  FF 7F F0 FF FF 7F 66 64  ...E1.........fd
0A60: 69 30 01 80 55 31 80 F0  FF FF 7F F0 FF FF 7F 66  i0..U1.........f
0A70: 64 69 30 1B 45 31 80 F0  FF FF 7F F0 FF FF 7F 66  di0.E1.........f
0A80: 64 6F 30 01 80 55 31 80  F0 FF FF 7F F0 FF FF 7F  do0..U1.........
0A90: 66 64 6F 30 1B 45 31 80  F0 FF FF 7F F0 FF FF 7F  fdo0.E1.........
0AA0: 66 64 69 31 01 80 55 31  80 F0 FF FF 7F F0 FF FF  fdi1..U1........
0AB0: 7F 66 64 69 31 1B 45 31  80 F0 FF FF 7F F0 FF FF  .fdi1.E1........
0AC0: 7F 66 64 6F 31 01 80 55  31 80 F0 FF FF 7F F0 FF  .fdo1..U1.......
0AD0: FF 7F 66 64 6F 31 1B 45  51 80 F0 FF FF 7F F0 FF  ..fdo1.EQ.......
0AE0: FF 7F 77 68 69 31 01 80  55 51 80 F0 FF FF 7F F0  ..whi1..UQ......
0AF0: FF FF 7F 77 68 69 31 1B  45 51 80 F0 FF FF 7F F0  ...whi1.EQ......
0B00: FF FF 7F 77 68 6F 31 01  80 55 51 80 F0 FF FF 7F  ...who1..UQ.....
0B10: F0 FF FF 7F 77 68 6F 31  1B 45 51 80 F0 FF FF 7F  ....who1.EQ.....
0B20: F0 FF FF 7F 77 68 6F 32  01 80 55 51 80 F0 FF FF  ....who2..UQ....
0B30: 7F F0 FF FF 7F 77 68 6F  32 1B 45 51 80 F0 FF FF  .....who2.EQ....
0B40: 7F F0 FF FF 7F 77 68 6F  33 01 80 55 51 80 F0 FF  .....who3..UQ...
0B50: FF 7F F0 FF FF 7F 77 68  6F 33 1B 62 02 80 F0 FF  ......who3.b....
0B60: FF 7F F0 FF FF 7F 6D 61  69 6E 01 80 1C 30 80 45  ......main...0.E
0B70: 31 80 F0 FF FF 7F F0 FF  FF 7F 66 64 6F 31 01 80  1.........fdo1..
0B80: 55 31 80 F0 FF FF 7F F0  FF FF 7F 66 64 6F 31 1B  U1.........fdo1.
0B90: 45 31 80 F0 FF FF 7F F0  FF FF 7F 66 64 69 31 01  E1.........fdi1.
0BA0: 80 62 03 80 F0 FF FF 7F  F0 FF FF 7F 6D 61 69 6E  .b..........main
0BB0: 01 80 1C 2B 80 55 31 80  F0 FF FF 7F F0 FF FF 7F  ...+.U1.........
0BC0: 66 64 69 31 1B 45 31 80  F0 FF FF 7F F0 FF FF 7F  fdi1.E1.........
0BD0: 62 6C 6F 6E 01 80 45 51  80 F0 FF FF 7F F0 FF FF  blon..EQ........
0BE0: 7F 62 6C 6F 6E 01 80 1B  45 51 80 F0 FF FF 7F F0  .blon...EQ......
0BF0: FF FF 7F 77 68 69 30 01  80 55 51 80 F0 FF FF 7F  ...whi0..UQ.....
0C00: F0 FF FF 7F 77 68 69 30  1B 45 51 80 F0 FF FF 7F  ....whi0.EQ.....
0C10: F0 FF FF 7F 77 68 6F 30  01 80 55 51 80 F0 FF FF  ....who0..UQ....
0C20: 7F F0 FF FF 7F 77 68 6F  30 1B 45 52 80 F0 FF FF  .....who0.ER....
0C30: 7F F0 FF FF 7F 65 66 6F  6E 01 80 55 52 80 F0 FF  .....efon..UR...
0C40: FF 7F F0 FF FF 7F 65 66  6F 6E 1B 45 31 80 F0 FF  ......efon.E1...
0C50: FF 7F F0 FF FF 7F 66 64  69 73 01 80 1B 45 31 80  ......fdis...E1.
0C60: F0 FF FF 7F F0 FF FF 7F  66 64 6F 73 01 80 55 31  ........fdos..U1
0C70: 80 F0 FF FF 7F F0 FF FF  7F 66 64 6F 73 1B 45 31  .........fdos.E1
0C80: 80 F0 FF FF 7F F0 FF FF  7F 66 64 69 66 01 80 1B  .........fdif...
0C90: 45 31 80 F0 FF FF 7F F0  FF FF 7F 66 64 6F 66 01  E1.........fdof.
0CA0: 80 55 31 80 F0 FF FF 7F  F0 FF FF 7F 66 64 6F 66  .U1.........fdof
0CB0: 1B 45 31 80 F0 FF FF 7F  F0 FF FF 7F 66 64 69 70  .E1.........fdip
0CC0: 01 80 1B 45 31 80 F0 FF  FF 7F F0 FF FF 7F 66 64  ...E1.........fd
0CD0: 6F 70 01 80 55 31 80 F0  FF FF 7F F0 FF FF 7F 66  op..U1.........f
0CE0: 64 6F 70 1B                                       dop.            
```

#### Opcodes

```
  0: 0x0644 [0x42] SET_CLI_EVENT_CANCEL_DATA()
  1: 0x0645 [0x1A] CALL_SUBROUTINE(address=0x0AB6)
  2: 0x0648 [0x5D] SET_MUSIC_VOLUME(volume=0*, fade_time=30*)
  3: 0x064D [0x46] CAMERA_CONTROL: Disable user control
  4: 0x064F [0x38] SET_CLIENT_EVENT_MODE(mode=19*)
  5: 0x0652 [0x79] LocalPlayer looks at LocalPlayer (Basic look)
  6: 0x065C [0x34] LOAD_UNLOAD_ZONE(zone_id=541*)
  7: 0x065F [0x77] SET_EVENT_TIME_WEATHER(hour=12*, weather=1*)
  8: 0x0664 [0x1C] WAIT(15* ticks)
  9: 0x0667 [0xAB] EventEntity->UnknownFlag = 1 // Enable unknown flag
 10: 0x0669 [0x27] REQ_SET(priority=0x10, entity_id=Selh'teus (ID: 16855166/0x0101307E), tag_num=0x02)
 11: 0x0670 [0x27] REQ_SET(priority=0x10, entity_id=Nag'molada (ID: 16855167/0x0101307F), tag_num=0x02)
 12: 0x0677 [0x92] LocalPlayer->Render.Flags3 ^= 0x01
 13: 0x067D [0x92] Selh'teus (ID: 16855166/0x0101307E)->Render.Flags3 ^= 0x01
 14: 0x0683 [0x92] Nag'molada (ID: 16855167/0x0101307F)->Render.Flags3 ^= 0x01
 15: 0x0689 [0x27] REQ_SET(priority=0x10, entity_id=LocalPlayer, tag_num=0x0E)
 16: 0x0690 [0x27] REQ_SET(priority=0x10, entity_id=Selh'teus (ID: 16855166/0x0101307E), tag_num=0x0F)
 17: 0x0697 [0x27] REQ_SET(priority=0x10, entity_id=Nag'molada (ID: 16855167/0x0101307F), tag_num=0x0D)
 18: 0x069E [0x27] REQ_SET(priority=0x10, entity_id=Unnamed NPC (ID: 16855170/0x01013082), tag_num=0x03)
 19: 0x06A5 [0x27] REQ_SET(priority=0x10, entity_id=Unnamed NPC (ID: 16855171/0x01013083), tag_num=0x03)
 20: 0x06AC [0x27] REQ_SET(priority=0x10, entity_id=Unnamed NPC (ID: 16855172/0x01013084), tag_num=0x03)
 21: 0x06B3 [0x27] REQ_SET(priority=0x10, entity_id=Unnamed NPC (ID: 16855173/0x01013085), tag_num=0x03)
 22: 0x06BA [0x80] LOAD_WAIT(entity=LocalPlayer)
 23: 0x06BF [0x1C] WAIT(45* ticks)
 24: 0x06C2 [0x81] SET_ENTITY_BLINKING(blink_flag=0x00, entity=Selh'teus (ID: 16855166/0x0101307E))
 25: 0x06C8 [0x5B] LOAD_EXT_SCHEDULER: Load scheduler "cry0" with entities [Selh'teus (ID: 16855166/0x0101307E), Selh'teus (ID: 16855166/0x0101307E)], work=460*
 26: 0x06D7 [0x45] LOAD_SCHEDULED_TASK: Load scheduler "c300" with entities [LocalPlayer, LocalPlayer], work=[155*, 0*]
 27: 0x06E8 [0x45] LOAD_SCHEDULED_TASK: Load scheduler "fdi2" with entities [LocalPlayer, LocalPlayer], work=[200*, 0*]
 28: 0x06F9 [0x55] WAIT_LOAD_SCHEDULER: Wait for scheduler "c300" with entities [LocalPlayer, LocalPlayer], work=155*
 29: 0x0708 [0x5B] LOAD_EXT_SCHEDULER: Load scheduler "yor0" with entities [Nag'molada (ID: 16855167/0x0101307F), Nag'molada (ID: 16855167/0x0101307F)], work=472*
 30: 0x0717 [0x45] LOAD_SCHEDULED_TASK: Load scheduler "c301" with entities [LocalPlayer, LocalPlayer], work=[155*, 0*]
 31: 0x0728 [0x27] REQ_SET(priority=0x10, entity_id=Unnamed NPC (ID: 16855164/0x0101307C), tag_num=0x05)
 32: 0x072F [0x79] LocalPlayer looks at Nag'molada (ID: 16855167/0x0101307F) (Basic look)
 33: 0x0739 [0x4B] UPDATE_ENTITY_YAW(entity=LocalPlayer, yaw=7.4°*)
 34: 0x0740 [0x45] LOAD_SCHEDULED_TASK: Load scheduler "c301" with entities [LocalPlayer, LocalPlayer], work=[155*, 0*]
 35: 0x0751 [0x55] WAIT_LOAD_SCHEDULER: Wait for scheduler "c301" with entities [LocalPlayer, LocalPlayer], work=155*
 36: 0x0760 [0x45] LOAD_SCHEDULED_TASK: Load scheduler "c302" with entities [LocalPlayer, LocalPlayer], work=[155*, 0*]
 37: 0x0771 [0x55] WAIT_LOAD_SCHEDULER: Wait for scheduler "c302" with entities [LocalPlayer, LocalPlayer], work=155*
 38: 0x0780 [0x2B] Nag'molada (ID: 16855167/0x0101307F) [7649*]:
    → "That evil boy has released the darkness!"
 39: 0x0787 [0x23] WAIT_FOR_DIALOG_INTERACTION
 40: 0x0788 [0x5C] MUSIC_CONTROL: Set Idle (Day) music to song 220*
 41: 0x078C [0x5C] MUSIC_CONTROL: Set Idle (Night) music to song 220*
 42: 0x0790 [0x5C] MUSIC_CONTROL: Set Combat (Solo) music to song 220*
 43: 0x0794 [0x5C] MUSIC_CONTROL: Set Combat (Party) music to song 220*
 44: 0x0798 [0x9A] WAIT_MUSIC_SERVER()
 45: 0x0799 [0x5B] LOAD_EXT_SCHEDULER: Load scheduler "gak0" with entities [Nag'molada (ID: 16855167/0x0101307F), Nag'molada (ID: 16855167/0x0101307F)], work=472*
 46: 0x07A8 [0x1C] WAIT(75* ticks)
 47: 0x07AB [0x45] LOAD_SCHEDULED_TASK: Load scheduler "s276" with entities [LocalPlayer, LocalPlayer], work=[155*, 0*]
 48: 0x07BC [0x27] REQ_SET(priority=0x10, entity_id=Unnamed NPC (ID: 16855164/0x0101307C), tag_num=0x03)
 49: 0x07C3 [0x45] LOAD_SCHEDULED_TASK: Load scheduler "c304" with entities [LocalPlayer, LocalPlayer], work=[155*, 0*]
 50: 0x07D4 [0x1C] WAIT(30* ticks)
 51: 0x07D7 [0x79] LocalPlayer looks at Selh'teus (ID: 16855166/0x0101307E) (Basic look)
 52: 0x07E1 [0x4B] UPDATE_ENTITY_YAW(entity=LocalPlayer, yaw=0.2°*)
 53: 0x07E8 [0x55] WAIT_LOAD_SCHEDULER: Wait for scheduler "c304" with entities [LocalPlayer, LocalPlayer], work=155*
 54: 0x07F7 [0x45] LOAD_SCHEDULED_TASK: Load scheduler "c305" with entities [LocalPlayer, LocalPlayer], work=[155*, 0*]
 55: 0x0808 [0x2B] Nag'molada (ID: 16855167/0x0101307F) [7650*]:
    → "The Emptiness is destruction that knows not of its destructive force. Even the Dawnmaidens, who fear neither man nor god, tremble in the presence of this hideous darkness."
 56: 0x080F [0x23] WAIT_FOR_DIALOG_INTERACTION
 57: 0x0810 [0x52] END_LOAD_SCHEDULER: End scheduler "c305" with entities [LocalPlayer, LocalPlayer], work=155*
 58: 0x081F [0x45] LOAD_SCHEDULED_TASK: Load scheduler "c306" with entities [LocalPlayer, LocalPlayer], work=[155*, 0*]
 59: 0x0830 [0x55] WAIT_LOAD_SCHEDULER: Wait for scheduler "c306" with entities [LocalPlayer, LocalPlayer], work=155*
 60: 0x083F [0x45] LOAD_SCHEDULED_TASK: Load scheduler "c307" with entities [LocalPlayer, LocalPlayer], work=[155*, 0*]
 61: 0x0850 [0x2D] CREATE_ZONE_SCHEDULER_TASK: Create scheduler "kaks" with entities [EventEntity, EventEntity]
 62: 0x085D [0x1C] WAIT(135* ticks)
 63: 0x0860 [0x45] LOAD_SCHEDULED_TASK: Load scheduler "k276" with entities [LocalPlayer, LocalPlayer], work=[155*, 0*]
 64: 0x0871 [0x27] REQ_SET(priority=0x10, entity_id=Unnamed NPC (ID: 16855164/0x0101307C), tag_num=0x06)
 65: 0x0878 [0x55] WAIT_LOAD_SCHEDULER: Wait for scheduler "c307" with entities [LocalPlayer, LocalPlayer], work=155*
 66: 0x0887 [0x45] LOAD_SCHEDULED_TASK: Load scheduler "c310" with entities [LocalPlayer, LocalPlayer], work=[155*, 0*]
 67: 0x0898 [0x5B] LOAD_EXT_SCHEDULER: Load scheduler "mab0" with entities [Nag'molada (ID: 16855167/0x0101307F), Nag'molada (ID: 16855167/0x0101307F)], work=472*
 68: 0x08A7 [0x1C] WAIT(15* ticks)
 69: 0x08AA [0x2B] Nag'molada (ID: 16855167/0x0101307F) [7651*]:
    → "The Emptiness is...?"
 70: 0x08B1 [0x23] WAIT_FOR_DIALOG_INTERACTION
 71: 0x08B2 [0x52] END_LOAD_SCHEDULER: End scheduler "c310" with entities [LocalPlayer, LocalPlayer], work=155*
 72: 0x08C1 [0x45] LOAD_SCHEDULED_TASK: Load scheduler "c308" with entities [LocalPlayer, LocalPlayer], work=[155*, 0*]
 73: 0x08D2 [0x27] REQ_SET(priority=0x10, entity_id=Nag'molada (ID: 16855167/0x0101307F), tag_num=0x0F)
 74: 0x08D9 [0x27] REQ_SET(priority=0x10, entity_id=Selh'teus (ID: 16855166/0x0101307E), tag_num=0x03)
 75: 0x08E0 [0x1C] WAIT(90* ticks)
 76: 0x08E3 [0x2B] Nag'molada (ID: 16855167/0x0101307F) [7652*]:
    → "How...!"
 77: 0x08EA [0x55] WAIT_LOAD_SCHEDULER: Wait for scheduler "c308" with entities [LocalPlayer, LocalPlayer], work=155*
 78: 0x08F9 [0x45] LOAD_SCHEDULED_TASK: Load scheduler "c309" with entities [LocalPlayer, LocalPlayer], work=[155*, 0*]
 79: 0x090A [0x2B] Nag'molada (ID: 16855167/0x0101307F) [7653*]:
    → "Why can he touch the crystal!?"
 80: 0x0911 [0x23] WAIT_FOR_DIALOG_INTERACTION
 81: 0x0912 [0x1A] CALL_SUBROUTINE(address=0x0AF8)
 82: 0x0915 [0x5D] SET_MUSIC_VOLUME(volume=0*, fade_time=90*)
 83: 0x091A [0x1C] WAIT(90* ticks)
 84: 0x091D [0x52] END_LOAD_SCHEDULER: End scheduler "c309" with entities [LocalPlayer, LocalPlayer], work=155*
 85: 0x092C [0x45] LOAD_SCHEDULED_TASK: Load scheduler "blof" with entities [LocalPlayer, LocalPlayer], work=[155*, 0*]
 86: 0x093D [0x1A] CALL_SUBROUTINE(address=0x0AB6)
 87: 0x0940 [0x1A] CALL_SUBROUTINE(address=0x0AD7)
 88: 0x0943 [0x1C] WAIT(30* ticks)
 89: 0x0946 [0x35] LOAD_ZONE_NO_CLOSE(zone_id=17*)
 90: 0x0949 [0x78] ENABLE_GAME_TIMER_RESET_WEATHER()
 91: 0x094A [0x1C] WAIT(15* ticks)
 92: 0x094D [0xAB] EventEntity->UnknownFlag = 0 // Disable unknown flag
 93: 0x094F [0x5C] MUSIC_CONTROL: Set Idle (Day) music to song 0*
 94: 0x0953 [0x5C] MUSIC_CONTROL: Set Idle (Night) music to song 0*
 95: 0x0957 [0x5C] MUSIC_CONTROL: Set Combat (Solo) music to song 0*
 96: 0x095B [0x5C] MUSIC_CONTROL: Set Combat (Party) music to song 0*
 97: 0x095F [0x9A] WAIT_MUSIC_SERVER()
 98: 0x0960 [0x46] CAMERA_CONTROL: Restore default settings
 99: 0x0962 [0x45] LOAD_SCHEDULED_TASK: Load scheduler "fdi2" with entities [LocalPlayer, LocalPlayer], work=[200*, 0*]
100: 0x0973 [0x21] END_EVENT
101: 0x0974 [0x00] END_REQSTACK()

SUBROUTINE_0AB6:
102: 0x0AB6 [0x45] LOAD_SCHEDULED_TASK: Load scheduler "fdo1" with entities [LocalPlayer, LocalPlayer], work=[200*, 0*]
103: 0x0AC7 [0x55] WAIT_LOAD_SCHEDULER: Wait for scheduler "fdo1" with entities [LocalPlayer, LocalPlayer], work=200*
104: 0x0AD6 [0x1B] RETURN

SUBROUTINE_0AD7:
105: 0x0AD7 [0x45] LOAD_SCHEDULED_TASK: Load scheduler "whi1" with entities [LocalPlayer, LocalPlayer], work=[201*, 0*]
106: 0x0AE8 [0x55] WAIT_LOAD_SCHEDULER: Wait for scheduler "whi1" with entities [LocalPlayer, LocalPlayer], work=201*
107: 0x0AF7 [0x1B] RETURN

SUBROUTINE_0AF8:
108: 0x0AF8 [0x45] LOAD_SCHEDULED_TASK: Load scheduler "who1" with entities [LocalPlayer, LocalPlayer], work=[201*, 0*]
109: 0x0B09 [0x55] WAIT_LOAD_SCHEDULER: Wait for scheduler "who1" with entities [LocalPlayer, LocalPlayer], work=201*
110: 0x0B18 [0x1B] RETURN
```

#### Data or dead code:

```
# Dead code (unreachable instructions):
     0x0975 [0x42] SET_CLI_EVENT_CANCEL_DATA()
     0x0976 [0x1A] CALL_SUBROUTINE(address=0x0AF8)
     0x0979 [0x5D] SET_MUSIC_VOLUME(volume=0*, fade_time=60*)
     0x097E [0x46] CAMERA_CONTROL: Disable user control
     0x0980 [0x38] SET_CLIENT_EVENT_MODE(mode=19*)
     0x0983 [0x79] LocalPlayer looks at LocalPlayer (Basic look)
     0x098D [0x34] LOAD_UNLOAD_ZONE(zone_id=33*)
     0x0990 [0x77] SET_EVENT_TIME_WEATHER(hour=12*, weather=1*)
     0x0995 [0x1C] WAIT(15* ticks)
     0x0998 [0xAB] EventEntity->UnknownFlag = 1 // Enable unknown flag
     0x099A [0x5C] MUSIC_CONTROL: Set Idle (Day) music to song 244*
     0x099E [0x5C] MUSIC_CONTROL: Set Idle (Night) music to song 244*
     0x09A2 [0x5C] MUSIC_CONTROL: Set Combat (Solo) music to song 244*
     0x09A6 [0x5C] MUSIC_CONTROL: Set Combat (Party) music to song 244*
     0x09AA [0x9A] WAIT_MUSIC_SERVER()
     0x09AB [0x1C] WAIT(30* ticks)
     0x09AE [0x9F] LOAD_SCHEDULED_TASK_ALT: Load scheduler "str0" with entities [LocalPlayer, LocalPlayer], work=[61*, 0*]
     0x09BF [0x9F] LOAD_SCHEDULED_TASK_ALT: Load scheduler "main" with entities [LocalPlayer, LocalPlayer], work=[96*, 0*]
     0x09D0 [0x45] LOAD_SCHEDULED_TASK: Load scheduler "sin0" with entities [LocalPlayer, LocalPlayer], work=[155*, 0*]
     0x09E1 [0x1A] CALL_SUBROUTINE(address=0x0AD7)
     0x09E4 [0x1C] WAIT(900* ticks)
     0x09E7 [0x48] [System] [7657*]:
    → "$3{$3^$3$97F$31V$P10i]\7"
     0x09EA [0x23] WAIT_FOR_DIALOG_INTERACTION
     0x09EB [0x1A] CALL_SUBROUTINE(address=0x0AF8)
     0x09EE [0x1C] WAIT(60* ticks)
     0x09F1 [0x9F] LOAD_SCHEDULED_TASK_ALT: Load scheduler "kill" with entities [LocalPlayer, LocalPlayer], work=[61*, 0*]
     0x0A02 [0x9F] LOAD_SCHEDULED_TASK_ALT: Load scheduler "kill" with entities [LocalPlayer, LocalPlayer], work=[96*, 0*]
     0x0A13 [0x45] LOAD_SCHEDULED_TASK: Load scheduler "blof" with entities [LocalPlayer, LocalPlayer], work=[155*, 0*]
     0x0A24 [0x52] END_LOAD_SCHEDULER: End scheduler "sin0" with entities [LocalPlayer, LocalPlayer], work=155*
     0x0A33 [0x35] LOAD_ZONE_NO_CLOSE(zone_id=244*)
     0x0A36 [0x78] ENABLE_GAME_TIMER_RESET_WEATHER()
     0x0A37 [0x1C] WAIT(15* ticks)
     0x0A3A [0xAB] EventEntity->UnknownFlag = 0 // Disable unknown flag
     0x0A3C [0x5C] MUSIC_CONTROL: Set Idle (Day) music to song 0*
     0x0A40 [0x5C] MUSIC_CONTROL: Set Idle (Night) music to song 0*
     0x0A44 [0x5C] MUSIC_CONTROL: Set Combat (Solo) music to song 220*
     0x0A48 [0x5C] MUSIC_CONTROL: Set Combat (Party) music to song 220*
     0x0A4C [0x9A] WAIT_MUSIC_SERVER()
     0x0A4D [0x46] CAMERA_CONTROL: Restore default settings
     0x0A4F [0x1A] CALL_SUBROUTINE(address=0x0AD7)
     0x0A52 [0x1B] RETURN
     0x0A53 [0x45] LOAD_SCHEDULED_TASK: Load scheduler "fdi0" with entities [LocalPlayer, LocalPlayer], work=[200*, 0*]
     0x0A64 [0x55] WAIT_LOAD_SCHEDULER: Wait for scheduler "fdi0" with entities [LocalPlayer, LocalPlayer], work=200*
     0x0A73 [0x1B] RETURN
     0x0A74 [0x45] LOAD_SCHEDULED_TASK: Load scheduler "fdo0" with entities [LocalPlayer, LocalPlayer], work=[200*, 0*]
     0x0A85 [0x55] WAIT_LOAD_SCHEDULER: Wait for scheduler "fdo0" with entities [LocalPlayer, LocalPlayer], work=200*
     0x0A94 [0x1B] RETURN
     0x0A95 [0x45] LOAD_SCHEDULED_TASK: Load scheduler "fdi1" with entities [LocalPlayer, LocalPlayer], work=[200*, 0*]
     0x0AA6 [0x55] WAIT_LOAD_SCHEDULER: Wait for scheduler "fdi1" with entities [LocalPlayer, LocalPlayer], work=200*
     0x0AB5 [0x1B] RETURN
# Dead code (unreachable instructions):
     0x0B19 [0x45] LOAD_SCHEDULED_TASK: Load scheduler "who2" with entities [LocalPlayer, LocalPlayer], work=[201*, 0*]
     0x0B2A [0x55] WAIT_LOAD_SCHEDULER: Wait for scheduler "who2" with entities [LocalPlayer, LocalPlayer], work=201*
     0x0B39 [0x1B] RETURN
     0x0B3A [0x45] LOAD_SCHEDULED_TASK: Load scheduler "who3" with entities [LocalPlayer, LocalPlayer], work=[201*, 0*]
     0x0B4B [0x55] WAIT_LOAD_SCHEDULER: Wait for scheduler "who3" with entities [LocalPlayer, LocalPlayer], work=201*
     0x0B5A [0x1B] RETURN
     0x0B5B [0x62] LOAD_EVENT_SCHEDULER: Load scheduler "main" with entities [LocalPlayer, LocalPlayer], work=[1*, 0*]
     0x0B6C [0x1C] WAIT(45* ticks)
     0x0B6F [0x45] LOAD_SCHEDULED_TASK: Load scheduler "fdo1" with entities [LocalPlayer, LocalPlayer], work=[200*, 0*]
     0x0B80 [0x55] WAIT_LOAD_SCHEDULER: Wait for scheduler "fdo1" with entities [LocalPlayer, LocalPlayer], work=200*
     0x0B8F [0x1B] RETURN
     0x0B90 [0x45] LOAD_SCHEDULED_TASK: Load scheduler "fdi1" with entities [LocalPlayer, LocalPlayer], work=[200*, 0*]
     0x0BA1 [0x62] LOAD_EVENT_SCHEDULER: Load scheduler "main" with entities [LocalPlayer, LocalPlayer], work=[2*, 0*]
     0x0BB2 [0x1C] WAIT(30* ticks)
     0x0BB5 [0x55] WAIT_LOAD_SCHEDULER: Wait for scheduler "fdi1" with entities [LocalPlayer, LocalPlayer], work=200*
     0x0BC4 [0x1B] RETURN
     0x0BC5 [0x45] LOAD_SCHEDULED_TASK: Load scheduler "blon" with entities [LocalPlayer, LocalPlayer], work=[200*, 0*]
     0x0BD6 [0x45] LOAD_SCHEDULED_TASK: Load scheduler "blon" with entities [LocalPlayer, LocalPlayer], work=[201*, 0*]
     0x0BE7 [0x1B] RETURN
     0x0BE8 [0x45] LOAD_SCHEDULED_TASK: Load scheduler "whi0" with entities [LocalPlayer, LocalPlayer], work=[201*, 0*]
     0x0BF9 [0x55] WAIT_LOAD_SCHEDULER: Wait for scheduler "whi0" with entities [LocalPlayer, LocalPlayer], work=201*
     0x0C08 [0x1B] RETURN
     0x0C09 [0x45] LOAD_SCHEDULED_TASK: Load scheduler "who0" with entities [LocalPlayer, LocalPlayer], work=[201*, 0*]
     0x0C1A [0x55] WAIT_LOAD_SCHEDULER: Wait for scheduler "who0" with entities [LocalPlayer, LocalPlayer], work=201*
     0x0C29 [0x1B] RETURN
     0x0C2A [0x45] LOAD_SCHEDULED_TASK: Load scheduler "efon" with entities [LocalPlayer, LocalPlayer], work=[215*, 0*]
     0x0C3B [0x55] WAIT_LOAD_SCHEDULER: Wait for scheduler "efon" with entities [LocalPlayer, LocalPlayer], work=215*
     0x0C4A [0x1B] RETURN
     0x0C4B [0x45] LOAD_SCHEDULED_TASK: Load scheduler "fdis" with entities [LocalPlayer, LocalPlayer], work=[200*, 0*]
     0x0C5C [0x1B] RETURN
     0x0C5D [0x45] LOAD_SCHEDULED_TASK: Load scheduler "fdos" with entities [LocalPlayer, LocalPlayer], work=[200*, 0*]
     0x0C6E [0x55] WAIT_LOAD_SCHEDULER: Wait for scheduler "fdos" with entities [LocalPlayer, LocalPlayer], work=200*
     0x0C7D [0x1B] RETURN
     0x0C7E [0x45] LOAD_SCHEDULED_TASK: Load scheduler "fdif" with entities [LocalPlayer, LocalPlayer], work=[200*, 0*]
     0x0C8F [0x1B] RETURN
     0x0C90 [0x45] LOAD_SCHEDULED_TASK: Load scheduler "fdof" with entities [LocalPlayer, LocalPlayer], work=[200*, 0*]
     0x0CA1 [0x55] WAIT_LOAD_SCHEDULER: Wait for scheduler "fdof" with entities [LocalPlayer, LocalPlayer], work=200*
     0x0CB0 [0x1B] RETURN
     0x0CB1 [0x45] LOAD_SCHEDULED_TASK: Load scheduler "fdip" with entities [LocalPlayer, LocalPlayer], work=[200*, 0*]
     0x0CC2 [0x1B] RETURN
     0x0CC3 [0x45] LOAD_SCHEDULED_TASK: Load scheduler "fdop" with entities [LocalPlayer, LocalPlayer], work=[200*, 0*]
     0x0CD4 [0x55] WAIT_LOAD_SCHEDULER: Wait for scheduler "fdop" with entities [LocalPlayer, LocalPlayer], work=200*
     0x0CE3 [0x1B] RETURN
```
