# 16855165

## Common Data

| Field            | Value                 |
|------------------|-----------------------|
| Zone             | Spire of Dem (ID: 19) |
| Block Size       | 104 bytes             |
| Total Events     | 3                     |
| References Count | 5                     |

## List of Events

| Event ID                 | Entrypoint   |   Size |   Instructions |
|--------------------------|--------------|--------|----------------|
| [65535](#event-65535)    | 0x0000       |      1 |              1 |
| [65534](#event-65534)    | 0x0001       |      1 |              1 |
| [65535.1](#event-655351) | 0x0002       |     53 |              5 |

## DAT References (imed_data)

|   Index | Hex Value   |   Dec Value |
|---------|-------------|-------------|
|       0 | 0x01D2      |         466 |
|       1 | 0x001E      |          30 |
|       2 | 0x009B      |         155 |
|       3 | 0x0000      |           0 |
|       4 | 0x005C      |          92 |

## Events

### Event 65535

#### Metadata

| Field        | Value   |
|--------------|---------|
| Entrypoint   | 0x0000  |
| Data Size    | 1 bytes |
| Instructions | 1       |

```
      00 01 02 03 04 05 06 07  08 09 0A 0B 0C 0D 0E 0F
      -- -- -- -- -- -- -- --  -- -- -- -- -- -- -- --
0000: 00                                                .               
```

#### Opcodes

```
  0: 0x0000 [0x00] END_REQSTACK()
```

### Event 65534

#### Metadata

| Field        | Value   |
|--------------|---------|
| Entrypoint   | 0x0001  |
| Data Size    | 1 bytes |
| Instructions | 1       |

```
      00 01 02 03 04 05 06 07  08 09 0A 0B 0C 0D 0E 0F
      -- -- -- -- -- -- -- --  -- -- -- -- -- -- -- --
0000:    00                                              .              
```

#### Opcodes

```
  0: 0x0001 [0x00] END_REQSTACK()
```

### Event 65535.1

#### Metadata

| Field        | Value    |
|--------------|----------|
| Entrypoint   | 0x0002   |
| Data Size    | 53 bytes |
| Instructions | 5        |

```
      00 01 02 03 04 05 06 07  08 09 0A 0B 0C 0D 0E 0F
      -- -- -- -- -- -- -- --  -- -- -- -- -- -- -- --
0000:       5B 00 80 7F 30 01  01 7F 30 01 01 6D 67 63    [...0...0..mgc
0010: 31 1C 01 80 45 02 80 F0  FF FF 7F F0 FF FF 7F 6B  1...E..........k
0020: 30 33 33 03 80 9F 04 80  7F 30 01 01 7F 30 01 01  033......0...0..
0030: 6B 69 6C 6C 03 80 00                              kill...         
```

#### Opcodes

```
  0: 0x0002 [0x5B] LOAD_EXT_SCHEDULER: Load scheduler "mgc1" with entities [Nag'molada (ID: 16855167/0x0101307F), Nag'molada (ID: 16855167/0x0101307F)], work=466*
  1: 0x0011 [0x1C] WAIT(30* ticks)
  2: 0x0014 [0x45] LOAD_SCHEDULED_TASK: Load scheduler "k033" with entities [LocalPlayer, LocalPlayer], work=[155*, 0*]
  3: 0x0025 [0x9F] LOAD_SCHEDULED_TASK_ALT: Load scheduler "kill" with entities [Nag'molada (ID: 16855167/0x0101307F), Nag'molada (ID: 16855167/0x0101307F)], work=[92*, 0*]
  4: 0x0036 [0x00] END_REQSTACK()
```
