# Event 65535

## Metadata

| Field           | Value    |
|-----------------|----------|
| Event Index     | 37/38    |
| Offset          | 0x01F8   |
| Data Size       | 37 bytes |
| Calculated Size | 37 bytes |
| Instructions    | 9        |

```
      00 01 02 03 04 05 06 07  08 09 0A 0B 0C 0D 0E 0F
      -- -- -- -- -- -- -- --  -- -- -- -- -- -- -- --
01F0:                          29 08 38 30 0F 01 0E 1D          ).80....
0200: 35 80 23 29 08 38 30 0F  01 0F 29 08 38 30 0F 01  5.#).80...).80..
0210: 10 1D 36 80 23 29 08 38  30 0F 01 11 00           ..6.#).80....   
```

## Opcodes

```
  0: 0x01F8 [0x29] REQ_SET_WAIT(priority=0x08, entity_id=Lion (ID: 17772600/0x010F3038), tag_num=0x0E)
  1: 0x01FF [0x1D] PRINT_EVENT_MESSAGE(message_id=11004*)
    → "Was that a phantom?\u0007An image...of the Shadow Lord?\u007F1\u0000\u0007"
  2: 0x0202 [0x23] WAIT_FOR_DIALOG_INTERACTION
  3: 0x0203 [0x29] REQ_SET_WAIT(priority=0x08, entity_id=Lion (ID: 17772600/0x010F3038), tag_num=0x0F)
  4: 0x020A [0x29] REQ_SET_WAIT(priority=0x08, entity_id=Lion (ID: 17772600/0x010F3038), tag_num=0x10)
  5: 0x0211 [0x1D] PRINT_EVENT_MESSAGE(message_id=11005*)
    → "The Shadow Lord? It can't be!\u0007His powers can't have returned!\u007F1\u0000\u0007"
  6: 0x0214 [0x23] WAIT_FOR_DIALOG_INTERACTION
  7: 0x0215 [0x29] REQ_SET_WAIT(priority=0x08, entity_id=Lion (ID: 17772600/0x010F3038), tag_num=0x11)
  8: 0x021C [0x00] END_REQSTACK()
```
