# Event 457

## Metadata

| Field           | Value    |
|-----------------|----------|
| Event Index     | 35/38    |
| Offset          | 0x028E   |
| Data Size       | 33 bytes |
| Calculated Size | 33 bytes |
| Instructions    | 12       |

```
      00 01 02 03 04 05 06 07  08 09 0A 0B 0C 0D 0E 0F
      -- -- -- -- -- -- -- --  -- -- -- -- -- -- -- --
0280:                                            1E F0                ..
0290: FF FF 7F 6F 70 29 08 40  E0 0E 01 0C 1D 0A 80 23  ...op).@.......#
02A0: 1D 0B 80 23 29 08 40 E0  0E 01 0D 20 00 21 00     ...#).@.... .!. 
```

## Opcodes

```
  0: 0x028E [0x1E] EventEntity looks at LocalPlayer and starts talking
  1: 0x0293 [0x6F] WAIT_FRAME_DELAY: Yield until WaitTime reaches zero
  2: 0x0294 [0x70] WAIT_ENTITY_RENDER_FLAG: Wait while EventEntity->Render.Flags3 bit 2 is set (cancel turn if not)
  3: 0x0295 [0x29] REQ_SET_WAIT(priority=0x08, entity_id=Chomoro-Kyotoro (ID: 17752128/0x010EE040), tag_num=0x0C)
  4: 0x029C [0x1D] PRINT_EVENT_MESSAGE(message_id=8413*)
    → "H-huh...!?\u0007You, you found the answer sheets!?\u007F1\u0000\u0007"
  5: 0x029F [0x23] WAIT_FOR_DIALOG_INTERACTION
  6: 0x02A0 [0x1D] PRINT_EVENT_MESSAGE(message_id=8414*)
    → "......\u0007R-really?\u0007All the answer sheets?\u0007A-a-are you sure...?\u007F1\u0000\u0007"
  7: 0x02A3 [0x23] WAIT_FOR_DIALOG_INTERACTION
  8: 0x02A4 [0x29] REQ_SET_WAIT(priority=0x08, entity_id=Chomoro-Kyotoro (ID: 17752128/0x010EE040), tag_num=0x0D)
  9: 0x02AB [0x20] SET_CLI_EVENT_UC_FLAG: Unlock player control
 10: 0x02AD [0x21] END_EVENT
 11: 0x02AE [0x00] END_REQSTACK()
```
