# Event 461

## Metadata

| Field           | Value    |
|-----------------|----------|
| Event Index     | 37/38    |
| Offset          | 0x02E2   |
| Data Size       | 33 bytes |
| Calculated Size | 33 bytes |
| Instructions    | 12       |

```
      00 01 02 03 04 05 06 07  08 09 0A 0B 0C 0D 0E 0F
      -- -- -- -- -- -- -- --  -- -- -- -- -- -- -- --
02E0:       1E F0 FF FF 7F 6F  70 29 08 40 E0 0E 01 0C    .....op).@....
02F0: 1D 0F 80 23 1D 10 80 23  29 08 40 E0 0E 01 0D 20  ...#...#).@.... 
0300: 00 21 00                                          .!.             
```

## Opcodes

```
  0: 0x02E2 [0x1E] EventEntity looks at LocalPlayer and starts talking
  1: 0x02E7 [0x6F] WAIT_FRAME_DELAY: Yield until WaitTime reaches zero
  2: 0x02E8 [0x70] WAIT_ENTITY_RENDER_FLAG: Wait while EventEntity->Render.Flags3 bit 2 is set (cancel turn if not)
  3: 0x02E9 [0x29] REQ_SET_WAIT(priority=0x08, entity_id=Chomoro-Kyotoro (ID: 17752128/0x010EE040), tag_num=0x0C)
  4: 0x02F0 [0x1D] PRINT_EVENT_MESSAGE(message_id=8424*)
    → "...\u0007I-I-I promise I'll never do such a thing again!\u007F1\u0000\u0007"
  5: 0x02F3 [0x23] WAIT_FOR_DIALOG_INTERACTION
  6: 0x02F4 [0x1D] PRINT_EVENT_MESSAGE(message_id=8425*)
    → "I-I'll never throw this answer sheet away again. I-I now know you have to learn from your mistakes...\u007F1\u0000\u0007"
  7: 0x02F7 [0x23] WAIT_FOR_DIALOG_INTERACTION
  8: 0x02F8 [0x29] REQ_SET_WAIT(priority=0x08, entity_id=Chomoro-Kyotoro (ID: 17752128/0x010EE040), tag_num=0x0D)
  9: 0x02FF [0x20] SET_CLI_EVENT_UC_FLAG: Unlock player control
 10: 0x0301 [0x21] END_EVENT
 11: 0x0302 [0x00] END_REQSTACK()
```
