# Event 65535

## Metadata

| Field           | Value    |
|-----------------|----------|
| Event Index     | 7/10     |
| Offset          | 0x00C9   |
| Data Size       | 70 bytes |
| Calculated Size | 70 bytes |
| Instructions    | 16       |

```
      00 01 02 03 04 05 06 07  08 09 0A 0B 0C 0D 0E 0F
      -- -- -- -- -- -- -- --  -- -- -- -- -- -- -- --
00C0:                             32 0D 80 1F 00 15 80           2......
00D0: 16 80 17 80 1F 01 4B 9D  A0 0E 01 18 80 1C 19 80  ......K.........
00E0: 4B 9D A0 0E 01 1A 80 1C  19 80 32 0D 80 1F 00 1B  K.........2.....
00F0: 80 1C 80 1D 80 1F 01 1C  19 80 1F 00 1E 80 1F 80  ................
0100: 20 80 1F 01 1F 00 21 80  22 80 23 80 1F 01 00      .....!.".#.... 
```

## Opcodes

```
  0: 0x00C9 [0x32] ExtData[1]->MainSpeed = 70* * 0.1
  1: 0x00CC [0x1F] MOVE_ENTITY: EventEntity moves to X=-96.421*, Z=99.817*, Y=3.044*
  2: 0x00D4 [0x1F] MOVE_ENTITY: Update entity position (mode=1)
  3: 0x00D6 [0x4B] UPDATE_ENTITY_YAW(entity=Unnamed NPC (ID: 17735837/0x010EA09D), yaw=12.4°*)
  4: 0x00DD [0x1C] WAIT(60* ticks)
  5: 0x00E0 [0x4B] UPDATE_ENTITY_YAW(entity=Unnamed NPC (ID: 17735837/0x010EA09D), yaw=6.0°*)
  6: 0x00E7 [0x1C] WAIT(60* ticks)
  7: 0x00EA [0x32] ExtData[1]->MainSpeed = 70* * 0.1
  8: 0x00ED [0x1F] MOVE_ENTITY: EventEntity moves to X=-99.536*, Z=82.647*, Y=2.459*
  9: 0x00F5 [0x1F] MOVE_ENTITY: Update entity position (mode=1)
 10: 0x00F7 [0x1C] WAIT(60* ticks)
 11: 0x00FA [0x1F] MOVE_ENTITY: EventEntity moves to X=-101.153*, Z=101.222*, Y=3.349*
 12: 0x0102 [0x1F] MOVE_ENTITY: Update entity position (mode=1)
 13: 0x0104 [0x1F] MOVE_ENTITY: EventEntity moves to X=-122.746*, Z=103.354*, Y=2.299*
 14: 0x010C [0x1F] MOVE_ENTITY: Update entity position (mode=1)
 15: 0x010E [0x00] END_REQSTACK()
```
