# 16957466 - Herald

## Common Data

| Field            | Value                             |
|------------------|-----------------------------------|
| Zone             | Abdhaljs Isle-Purgonorgo (ID: 44) |
| Block Size       | 8472 bytes                        |
| Total Events     | 9                                 |
| References Count | 224                               |

## List of Events

| Event ID              | Entrypoint   |   Size |   Instructions |
|-----------------------|--------------|--------|----------------|
| [65535](#event-65535) | 0x0000       |   1109 |            249 |
| [15](#event-15)       | 0x0455       |     24 |             10 |
| [6](#event-6)         | 0x046D       |     29 |             11 |
| [11](#event-11)       | 0x048A       |     37 |             12 |
| [12](#event-12)       | 0x04AF       |     45 |             16 |
| [14](#event-14)       | 0x04DC       |     26 |             12 |
| [13](#event-13)       | 0x04F6       |     95 |             26 |
| [5](#event-5)         | 0x0555       |    329 |             71 |
| [0](#event-0)         | 0x069E       |   5828 |           1077 |

## DAT References (imed_data)

|   Index | Hex Value   |   Dec Value |
|---------|-------------|-------------|
|       0 | 0x0001      |           1 |
|       1 | 0x0002      |           2 |
|       2 | 0x1CB4      |        7348 |
|       3 | 0x14CC      |        5324 |
|       4 | 0x14CE      |        5326 |
|       5 | 0x1CB1      |        7345 |
|       6 | 0x1CB2      |        7346 |
|       7 | 0x1CB3      |        7347 |
|       8 | 0x14CB      |        5323 |
|       9 | 0x14CD      |        5325 |
|      10 | 0x1CB0      |        7344 |
|      11 | 0x0000      |           0 |
|      12 | 0x1CA6      |        7334 |
|      13 | 0x0004      |           4 |
|      14 | 0x0003      |           3 |
|      15 | 0x1CE4      |        7396 |
|      16 | 0x1CE5      |        7397 |
|      17 | 0x1CE6      |        7398 |
|      18 | 0x1CE7      |        7399 |
|      19 | 0x1C20      |        7200 |
|      20 | 0x0005      |           5 |
|      21 | 0x1284      |        4740 |
|      22 | 0x1CAF      |        7343 |
|      23 | 0x0924      |        2340 |
|      24 | 0x1194      |        4500 |
|      25 | 0x0834      |        2100 |
|      26 | 0x1CAE      |        7342 |
|      27 | 0x021C      |         540 |
|      28 | 0x1CAB      |        7339 |
|      29 | 0x1CAD      |        7341 |
|      30 | 0x1CAC      |        7340 |
|      31 | 0x1CA7      |        7335 |
|      32 | 0x000A      |          10 |
|      33 | 0x1CA8      |        7336 |
|      34 | 0x1CA9      |        7337 |
|      35 | 0x1CAA      |        7338 |
|      36 | 0x0006      |           6 |
|      37 | 0x1CB7      |        7351 |
|      38 | 0x012C      |         300 |
|      39 | 0x0258      |         600 |
|      40 | 0x0384      |         900 |
|      41 | 0x04B0      |        1200 |
|      42 | 0x0708      |        1800 |
|      43 | 0x003C      |          60 |
|      44 | 0x001E      |          30 |
|      45 | 0x00B4      |         180 |
|      46 | 0x0078      |         120 |
|      47 | 0x1CE2      |        7394 |
|      48 | 0x1CEE      |        7406 |
|      49 | 0x1CEF      |        7407 |
|      50 | 0x1CF0      |        7408 |
|      51 | 0x1CF2      |        7410 |
|      52 | 0x1CB5      |        7349 |
|      53 | 0x40000000  |  1073741824 |
|      54 | 0x1CE3      |        7395 |
|      55 | 0x1CF1      |        7409 |
|      56 | 0x1CF3      |        7411 |
|      57 | 0x1D3D      |        7485 |
|      58 | 0x1D3E      |        7486 |
|      59 | 0x1D3F      |        7487 |
|      60 | 0x1CE1      |        7393 |
|      61 | 0x000E      |          14 |
|      62 | 0x1CB8      |        7352 |
|      63 | 0x0010      |          16 |
|      64 | 0x0013      |          19 |
|      65 | 0x1CBA      |        7354 |
|      66 | 0x1D4C      |        7500 |
|      67 | 0x1D4D      |        7501 |
|      68 | 0x1CC2      |        7362 |
|      69 | 0x1CC3      |        7363 |
|      70 | 0x1CC6      |        7366 |
|      71 | 0x0014      |          20 |
|      72 | 0x0019      |          25 |
|      73 | 0x1CC7      |        7367 |
|      74 | 0x1CC8      |        7368 |
|      75 | 0x1CF4      |        7412 |
|      76 | 0x1CC9      |        7369 |
|      77 | 0x1CCB      |        7371 |
|      78 | 0x1CCD      |        7373 |
|      79 | 0x1CF9      |        7417 |
|      80 | 0x1CFA      |        7418 |
|      81 | 0x1CFB      |        7419 |
|      82 | 0x1CFD      |        7421 |
|      83 | 0x1D46      |        7494 |
|      84 | 0x1D48      |        7496 |
|      85 | 0x0007      |           7 |
|      86 | 0x000F      |          15 |
|      87 | 0x0009      |           9 |
|      88 | 0x0190      |         400 |
|      89 | 0x01F4      |         500 |
|      90 | 0x02EE      |         750 |
|      91 | 0x1CCF      |        7375 |
|      92 | 0x1CD0      |        7376 |
|      93 | 0x1CDD      |        7389 |
|      94 | 0x1CDC      |        7388 |
|      95 | 0x1CDE      |        7390 |
|      96 | 0x1CDF      |        7391 |
|      97 | 0x1CC0      |        7360 |
|      98 | 0x0008      |           8 |
|      99 | 0x1D60      |        7520 |
|     100 | 0x000B      |          11 |
|     101 | 0x000C      |          12 |
|     102 | 0x000D      |          13 |
|     103 | 0x001A      |          26 |
|     104 | 0x001B      |          27 |
|     105 | 0x1CE07FF   |    30279679 |
|     106 | 0x001C      |          28 |
|     107 | 0x001D      |          29 |
|     108 | 0x1D61      |        7521 |
|     109 | 0x1D69      |        7529 |
|     110 | 0x1D62      |        7522 |
|     111 | 0x1D63      |        7523 |
|     112 | 0x1D64      |        7524 |
|     113 | 0x1D65      |        7525 |
|     114 | 0x1D66      |        7526 |
|     115 | 0x1D67      |        7527 |
|     116 | 0x1D68      |        7528 |
|     117 | 0x1D6D      |        7533 |
|     118 | 0x1D6C      |        7532 |
|     119 | 0x1D70      |        7536 |
|     120 | 0x1D6F      |        7535 |
|     121 | 0x1D73      |        7539 |
|     122 | 0x1D71      |        7537 |
|     123 | 0x1D72      |        7538 |
|     124 | 0x1D76      |        7542 |
|     125 | 0x1D75      |        7541 |
|     126 | 0x1D7A      |        7546 |
|     127 | 0x1D79      |        7545 |
|     128 | 0x1D7C      |        7548 |
|     129 | 0x1D7B      |        7547 |
|     130 | 0x1D80      |        7552 |
|     131 | 0x1D7F      |        7551 |
|     132 | 0x1D82      |        7554 |
|     133 | 0x1D81      |        7553 |
|     134 | 0x1D84      |        7556 |
|     135 | 0x1D83      |        7555 |
|     136 | 0x1D86      |        7558 |
|     137 | 0x1D85      |        7557 |
|     138 | 0x1D88      |        7560 |
|     139 | 0x1D87      |        7559 |
|     140 | 0x0011      |          17 |
|     141 | 0x0012      |          18 |
|     142 | 0x1D89      |        7561 |
|     143 | 0x1D8C      |        7564 |
|     144 | 0x1D8A      |        7562 |
|     145 | 0x1D8B      |        7563 |
|     146 | 0x1D8E      |        7566 |
|     147 | 0x1D8D      |        7565 |
|     148 | 0x1D90      |        7568 |
|     149 | 0x1D8F      |        7567 |
|     150 | 0x1D92      |        7570 |
|     151 | 0x1D91      |        7569 |
|     152 | 0x0015      |          21 |
|     153 | 0x0016      |          22 |
|     154 | 0x0017      |          23 |
|     155 | 0x0018      |          24 |
|     156 | 0x1D93      |        7571 |
|     157 | 0x1D95      |        7573 |
|     158 | 0x1D94      |        7572 |
|     159 | 0x1D97      |        7575 |
|     160 | 0x1D96      |        7574 |
|     161 | 0x1D99      |        7577 |
|     162 | 0x1D98      |        7576 |
|     163 | 0x1D9B      |        7579 |
|     164 | 0x1D9A      |        7578 |
|     165 | 0x1D9D      |        7581 |
|     166 | 0x1D9C      |        7580 |
|     167 | 0x1DA1      |        7585 |
|     168 | 0x1D9E      |        7582 |
|     169 | 0x1D9F      |        7583 |
|     170 | 0x1DA0      |        7584 |
|     171 | 0x1DA3      |        7587 |
|     172 | 0x1DA5      |        7589 |
|     173 | 0x1DA7      |        7591 |
|     174 | 0x1D4F      |        7503 |
|     175 | 0xFFFFFFFC  |  4294967292 |
|     176 | 0x1D50      |        7504 |
|     177 | 0x1D51      |        7505 |
|     178 | 0x1D7E      |        7550 |
|     179 | 0x002C      |          44 |
|     180 | 0xFFFAC660  |  4294624864 |
|     181 | 0xFFF94872  |  4294527090 |
|     182 | 0xFFFB3D7A  |  4294655354 |
|     183 | 0xFFF88EC4  |  4294479556 |
|     184 | 0xFFFBFF21  |  4294704929 |
|     185 | 0xFFF811C2  |  4294447554 |
|     186 | 0xFFFCC472  |  4294755442 |
|     187 | 0xFFF7A2F9  |  4294419193 |
|     188 | 0xFFFA0C7B  |  4294577275 |
|     189 | 0xFFF9C30D  |  4294558477 |
|     190 | 0xFFF8888C  |  4294477964 |
|     191 | 0xFFF90DA4  |  4294512036 |
|     192 | 0xFFF7F281  |  4294439553 |
|     193 | 0xFFF83BCD  |  4294458317 |
|     194 | 0xFFF79DFA  |  4294417914 |
|     195 | 0xFFFD325F  |  4294783583 |
|     196 | 0xFFF7361B  |  4294391323 |
|     197 | 0xFFF8159D  |  4294448541 |
|     198 | 0xFFF6FB3F  |  4294376255 |
|     199 | 0xFFFAD814  |  4294629396 |
|     200 | 0xFFF9379F  |  4294522783 |
|     201 | 0xFFFAD9D1  |  4294629841 |
|     202 | 0xFFF8960D  |  4294481421 |
|     203 | 0xFFFB7E3E  |  4294671934 |
|     204 | 0xFFF85099  |  4294463641 |
|     205 | 0xFFFC07D1  |  4294707153 |
|     206 | 0xFFF7F5CA  |  4294440394 |
|     207 | 0xFFFA36AE  |  4294588078 |
|     208 | 0xFFFA13E1  |  4294579169 |
|     209 | 0xFFF8A4E1  |  4294485217 |
|     210 | 0xFFF99329  |  4294546217 |
|     211 | 0xFFF85334  |  4294464308 |
|     212 | 0xFFF91DBD  |  4294516157 |
|     213 | 0xFFF81B20  |  4294449952 |
|     214 | 0xFFFCC7E1  |  4294756321 |
|     215 | 0xFFF79E4B  |  4294417995 |
|     216 | 0xFFF820B9  |  4294451385 |
|     217 | 0xFFF78171  |  4294410609 |
|     218 | 0xFFFC96D7  |  4294743767 |
|     219 | 0xFFF7D4C7  |  4294431943 |
|     220 | 0xFFF87E34  |  4294475316 |
|     221 | 0xFFF7E0AA  |  4294434986 |
|     222 | 0x1D7D      |        7549 |
|     223 | 0x001F      |          31 |

## String References

- **7334**: The current Brenner match: Match Type: [Official/Private/LS-Liga] [/(Level: 10)/(Level: 20)/(Level: 30)/(Level: 40)/(Level: 50)/(Level: 60)/(Level: $7)] Status: [/Match Settings Underway/Accepting Entries/Briefing Period/Match in Progress/Match Cancelled/In-between Matches]
- **7335**: The [/temporary ]entry applications for this match stand as follows: Wyverns: $3 [entry/entries] Griffons: $4 [entry/entries] You [have yet to submit/have submitted] [an /a temporary ]entry application for [the Wyverns./the Griffons./either side.]
- **7336**: The minimum level requirement for this match is [0/10/20/30/40/50/60/75]. Your entry application is denied.
- **7337**: Set $2 of [1 set/2 sets/3 sets] is currently in progress. The match is scheduled to end on .
- **7338**: Set $2 of [1 set/2 sets/3 sets] is currently in progress. Current Score: Wyverns $5 vs $6 Griffons The match is scheduled to end on .
- **7339**: Briefing will begin on .
- **7340**: The current match will end on . The entry period will begin on , with the briefing to follow on .
- **7341**: The current match is scheduled to end on .
- **7342**: The next entry period is scheduled to begin on , with the briefing to follow on .
- **7343**: All official matches for this season have ended.
- **7344**: We are currently awaiting the arrival of the MC. Please present your $0 or $1.
- **7345**: The MC for today's event has failed to show. I am now accepting applications for a substitute. Please present your $0 or $1.
- **7346**: Today's MC, %0, has yet to arrive. Let us wait a little longer.
- **7347**: The MC presiding over today's event is %0.
- **7348**: You are the MC for today's match. Please set the match rules and begin proceedings.
- **7349**: You are now the MC for this match. The area is reserved until , and the maximum level for this match is [/10/20/30/40/50/60/unrestricted]. Please set the match rules and begin proceedings.
- **7351**: You have been authorized as a gallery member only.
- **7352**: What would you like to do? [Nothing./Submit an entry./Cancel an entry./View settings.]
- **7354**: Please note that if you cancel an entry during an official match, you will be unable to resubmit your entry application.
- **7360**: Cancel your entry? [Yes./No.]
- **7362**: Official match scheduled to end on .
- **7363**: Area reservation to end on .
- **7366**: What would you like to do? [Nothing./Start the match./Close entries & return to settings./Cancel own entry./Auto-balance temp. entries./Shuffle temp. entries./View setting menu.]
- **7367**: With the current settings, the area reservation will end before the match is over.
- **7368**: Do you wish to start the match? [Yes./No.]
- **7369**: Close entries & return to settings? [Yes./No.]
- **7371**: Auto-balance temporary entries? [Yes./No.]
- **7373**: Shuffle temporary entries? [Yes./No.]
- **7375**: This official match requires $1 gil to enter.
- **7376**: Submit [a temporary entry/a temporary entry/an entry for your preferred side/an entry for your LS team/]? [Yes./Wyverns./Griffons./%3 team./Not right now.]
- **7388**: The maximum number of participants for this match has been reached. Please wait for an entry to be cancelled and try again.
- **7389**: The [/Wyverns/Griffons] currently outnumber the opposing side. Please wait until the opposing side has more members before submitting an entry application.
- **7390**: Entries are not currently being accepted. Please confirm the match status.
- **7391**: You do not have enough gil to submit an entry application.
- **7393**: Please present $0 or $1 to be eligible for the entry process.
- **7394**: As linkshell leader, you are eligible to enter your team into the LS Liga match. Please present your $0 or $1 if you wish to participate under the current settings.
- **7395**: Enter the LS Liga match? [Enter %3./Not right now.]
- **7396**: The Wyverns will be represented by %1. The Griffons will be represented by %2.
- **7397**: The Wyverns will be represented by %1. The Griffons have no current representatives.
- **7398**: The Wyverns have no current representatives. The Griffons will be represented by %2.
- **7399**: Neither the Wyverns nor the Griffons are currently represented.
- **7406**: Your linkshell has been entered into an LS Liga match. If you wish to participate, please present your $0/$1.
- **7407**: The linkshell leader must be entered into the match.
- **7408**: If all participating linkshell members have concluded entry procedures, please confirm the match settings and present your $0 or $1.
- **7409**: If all participating linkshell members have concluded entry procedures, please confirm the match settings and signal your agreement to start the match.
- **7410**: The match will commence once both linkshell leaders have shown their agreement. Furthermore, any changes made to the settings by the MC will void this agreement.
- **7411**: Agree to start the match? [Yes./No.]
- **7412**: Both linkshell leaders have yet to signal their agreement to start the match.
- **7417**: LS Liga matches cannot be halted by the MC.
- **7418**: What do you wish to do? [Nothing./Stop match./Cancel match & return to entry./Cancel own entry./View settings menu.]
- **7419**: Do you wish to halt the match? [Yes./No.]
- **7421**: Halt the match and return to entries? [Yes./No.]
- **7485**: Unfortunately, today's match has been cancelled. We thank you for your interest and apologize for the inconvenience.
- **7486**: The entry application fee [/and the charge for changing settings ]will be reimbursed.
- **7487**: Previous [/Training ]match ($3 [set/sets]) results: Wyverns $0 vs $1 Griffons [Draw/Wyverns win/Griffons win][/ (with bonus)]
- **7494**: What would you like to do? [Nothing./Prepare for the next match./Cancel own entry./View settings menu.]
- **7496**: Prepare for the next match? [Yes./No.]
- **7500**: Participants who have completed the entry process can change the match settings by paying a fee of $0 gil. Setting changes are limited to one change per person per match. Settings that have been changed once are fixed for that match.
- **7501**: You have already changed the settings for this match.
- **7503**: This setting has already been fixed for this match.
- **7504**: Really change this setting? [Yes./No.]
- **7505**: You can choose to fix this setting.
- **7520**: Current settings. [Quit./Entry type [/(fixed)]: [auto/shuffle/free/linkshell]/Re-entry [/(fixed)]: [none/OK]/Mid-match entry [/(fixed)]: [none/OK]/@/Allowable margin [/(fixed)]: [up to 1 member/none]/Main job [/(fixed)]: [duplicates OK/no duplicates]/Support job [/(fixed)]: [OK/none]/Min. level [/(fixed)]: [none/10/20/30/40/50/60/75] (Max. Level: [/10/20/30/40/50/60/none])/Layout [/(fixed)]: [pattern A/pattern B/pattern C/pattern D]/Next page.]
- **7521**: Current settings. [@/@/@/@/@/@/@/@/@/@/@/Previous page./Briefing [/(fixed)]: [30 sec./1 min./3 min./5 min.]/Match length [/(fixed)]: [5/10/15/20/30] min.[/ (1 set)]/No. of sets [/(fixed)]: $13 [set/sets]/Match style [/(fixed)]F[1 set, 20 min./2 sets, 10 min. each/1 set, 30 min./2 sets, 15 min. each/3 sets, 10 min. each]/Other time settings./@/@/@/Item use [/(fixed)]: [OK/none]/Temporary item settings./@/@/@/Sleep effects removed [/(fixed)]: [none/OK]/Repair by Petra [/(fixed)]: [none/OK]/KO penalty [/(fixed)]: [Level 1/Level 2]/Clear entry data./Reset to default settings./Finish & commence entry period./Quit.]
- **7522**: Select settings for team member distribution.
- **7523**: Auto-Balance After players have completed a temporary entry for one of the two sides, the players will be redistributed (by main job) evenly among the teams at the beginning of the briefing.
- **7524**: Auto-Balance After players have completed a temporary entry for one of the two sides, the MC can choose to redistribute the players (by main job) evenly among the teams.
- **7525**: Random Shuffle After players have completed a temporary entry for one of the two sides, the MC can choose to randomly shuffle all players between the teams.
- **7526**: Free Players are allowed to select the team in which they wish to participate. However, if one side grows too large, further applications may be denied until the number of members on the other side has increased.
- **7527**: Linkshell This option can be chosen to conduct LS Liga matches and pits linkshell groups against one another. Once the linkshell leader has submitted an entry application, other linkshell members can then submit their own entries.
- **7528**: If both linkshell group leaders do not agree to the rules set by the MC, the match will not begin. Also, leaders must signal their agreement again if any changes are made to the decided settings.
- **7529**: Please select the entry type: [Return./Information./Auto-balance./Random shuffle./Free./Linkshell (LS Liga).]
- **7532**: If re-entry is not allowed, a player will not be able to reapply for match participation in the event he or she requests a discharge before or during a match. Selecting this option may result in unbalanced sides when players cancel their entries.
- **7533**: Allow re-entry? [Return./Information./No./Yes.]
- **7535**: If mid-match entry is allowed, players may join the team with fewer members while the match is in progress.
- **7536**: Allow mid-match entry? [Return./Information./No./Yes.]
- **7537**: This option selects the size of the allowable margin between team numbers. A margin of zero is suggested in the interests of conducting an equal match.
- **7538**: In the case where no margin is allowed, the match will not begin until both sides have an equal number of entries.
- **7539**: Allow a margin? [Return./Information./Up to 1 member./No.]
- **7541**: This option decides whether or not multiples of the same main job are allowed on a single team. In the case where "no duplicates" has been chosen, all members of the same job except for one will have their entries cancelled.
- **7542**: Allow multiple main jobs? [Return./Information./Duplicates OK./No duplicates.]
- **7545**: This option selects whether or not support jobs will be allowed.
- **7546**: Allow support jobs? [Return./Information./Yes./No.]
- **7547**: This option selects the minimum level for participation in the match. This value cannot be set higher than the maximum level setting.
- **7548**: Minimum level? [Return./Information./None./10."0."0./40./50./60./75.]
- **7549**: [Pattern A/Pattern B/Pattern C/Pattern D] will use the layout as shown.
- **7550**: The locations of each Flammen-Brenner and camp will be displayed. "W" represents the Wyverns, while "G" represents the Griffons.
- **7551**: See the layout patterns? [Not right now./See pattern A./See pattern B./See pattern C./See pattern D.]
- **7552**: Choose match layout. [Return./Information./Pattern A./Pattern B./Pattern C./Pattern D.]
- **7553**: "Briefing" refers to a period of time before the match where strategies can be hammered out. In matches with multiple sets, the briefing period between matches will be set to 60 seconds regardless of the time selected for this setting.
- **7554**: Briefing length. [Return./Information."0 seconds./1 minute." minutes./5 minutes.]
- **7555**: This option selects the length of one match. Please be aware that in the case of multiple sets, the length of each match will be decided by this setting.
- **7556**: Match length. [Return./Information./5 minutes./10 minutes./15 minutes."0 minutes."0 minutes.]
- **7557**: This option selects the number of sets to be played.
- **7558**: Number of sets. [Return./Information./1 set." sets." sets.]
- **7559**: This option selects the match length and number of sets in official matches. The combinations available will vary depending on the amount of time remaining until the next scheduled match.
- **7560**: Match style. [Return./Information./1 set of 20 minutes." sets of 10 minutes./1 set of 30 minutes." sets of 15 minutes." sets of 10 minutes.]
- **7561**: Other time settings. [Return./Complete status [/(fixed)]: [1 min./2 min./3 min./4 min./5 min.]/Flamme duration [/(fixed)]: [1 min./2 min./3 min./4 min./5 min.]/Flammen-Brenner [/(fixed)]: [10 sec./20 sec./30 sec./45 sec./1 min.]]
- **7562**: This option selects the amount of time one side must maintain Complete status (i.e. each Flammen-Brenner has been lit with a Flamme) until the match becomes a called game.
- **7563**: Also, points will be awarded for protecting the Flamme for the period of time set with this option.
- **7564**: Complete status duration. [Return./Information./1 minute." minutes." minutes./4 minutes./5 minutes.]
- **7565**: This option selects the amount of time a player can hold on to a Flamme before it returns to a Flammen-Brenner on the opposing side.
- **7566**: Flamme duration. [Return./Information./1 minute." minutes." minutes./4 minutes./5 minutes.]
- **7567**: This option selects the amount of time that will pass before a destroyed Flammen-Brenner will recover after a failed attempt to capture the Flamme.
- **7568**: Flammen-Brenner recovery. [Return./Information./10 seconds."0 seconds."0 seconds./45 seconds./1 minute.]
- **7569**: This option selects whether or not normal items can be used during a match.
- **7570**: Allow normal item use? [Return./Information./Yes./No.]
- **7571**: Temporary item settings. [Return./Temp. item capacity [/(fixed)]: [10/15/20]/Temp. item distribution [/(fixed)]: [none/OK]/Quarry holes [/(fixed)]: [all full/some empty]]
- **7572**: This option selects the maximum number of temporary items that a player can carry at one time.
- **7573**: Set temporary item capacity. [Return./Information./10./15."0.]
- **7574**: This option selects whether or not 5 temporary items will be distributed to each player at the start of the match.
- **7575**: Distribute temporary items? [Return./Information./No./Yes.]
- **7576**: This option selects whether or not some attempts to quarry will fail to produce an item.
- **7577**: Fill all quarry holes? [Return./Information./No./Yes.]
- **7578**: This option selects whether or not Flammen-Brenner that are under attack will remove sleep status effects from nearby players of the same side.
- **7579**: Remove sleep effects? [Return./Information./No./Yes.]
- **7580**: This option selects whether or not Flammen-Brenner will consume Petras from nearby team members to restore HP after being damaged past a certain point.
- **7581**: Repair by Petra? [Return./Information./No./Yes.]
- **7582**: This option sets the penalty for being KO'd.
- **7583**: In the case of a Level 1 penalty, reviving from a KO will take longer depending on the length of time between KOs.
- **7584**: The Level 2 penalty has the same penalties as Level 1, as well as an additional penalty of less HP and MP being recovered upon revival.
- **7585**: Set KO penalty. [Return./Information./Level 1./Level 2.]
- **7587**: Clear all entry data? [Yes./No.]
- **7589**: Return all options to the default settings? [Yes./No.]
- **7591**: Fix settings and begin the entry period? [Yes./Not yet.]

## Events

### Event 65535

#### Metadata

| Field        | Value      |
|--------------|------------|
| Entrypoint   | 0x0000     |
| Data Size    | 1109 bytes |
| Instructions | 1          |

```
      00 01 02 03 04 05 06 07  08 09 0A 0B 0C 0D 0E 0F
      -- -- -- -- -- -- -- --  -- -- -- -- -- -- -- --
0000: 00 02 1F 00 00 80 04 5D  00 02 2B 00 01 80 00 18  .......]..+.....
0010: 00 1D 02 80 23 01 5D 00  02 24 00 00 80 00 31 00  ....#.]..$....1.
0020: 03 02 10 03 80 03 03 10  04 80 1D 05 80 23 01 5D  .............#.]
0030: 00 02 22 00 00 80 00 4F  00 02 23 00 00 80 00 48  .."....O..#....H
0040: 00 1D 06 80 23 01 4C 00  1D 07 80 23 01 5D 00 03  ....#.L....#.]..
0050: 02 10 08 80 03 03 10 09  80 1D 0A 80 23 1B 03 02  ............#...
0060: 10 1F 00 03 03 10 2C 00  06 00 00 02 1F 00 00 80  ......,.........
0070: 04 89 00 02 22 00 0B 80  00 81 00 06 04 10 01 86  ...."...........
0080: 00 03 04 10 25 00 01 8E  00 03 04 10 25 00 1D 0C  ....%.......%...
0090: 80 23 02 2C 00 01 80 04  D8 00 02 2C 00 0D 80 05  .#.,.......,....
00A0: D8 00 02 1F 00 01 80 00  D8 00 3E 26 00 0E 80 C6  ..........>&....
00B0: 00 3E 26 00 0D 80 BF 00  1D 0F 80 23 01 C3 00 1D  .>&........#....
00C0: 10 80 23 01 D8 00 3E 26  00 0D 80 D4 00 1D 11 80  ..#...>&........
00D0: 23 01 D8 00 1D 12 80 23  02 1F 00 0B 80 00 CC 01  #......#........
00E0: 83 00 00 3F 00 00 00 00  13 80 02 2C 00 14 80 04  ...?.......,....
00F0: 39 01 83 02 10 08 02 10  00 00 02 00 00 15 80 04  9...............
0100: 0E 01 07 02 10 13 80 1D  16 80 23 01 36 01 03 03  ..........#.6...
0110: 10 02 10 02 00 00 17 80  04 28 01 07 02 10 18 80  .........(......
0120: 07 03 10 15 80 01 32 01  07 02 10 19 80 07 03 10  ......2.........
0130: 17 80 1D 1A 80 23 01 CC  01 02 2C 00 01 80 00 75  .....#....,....u
0140: 01 83 02 10 08 02 10 00  00 02 00 00 18 80 04 59  ...............Y
0150: 01 07 02 10 15 80 01 6E  01 02 00 00 19 80 04 69  .......n.......i
0160: 01 07 02 10 17 80 01 6E  01 07 02 10 1B 80 1D 1C  .......n........
0170: 80 23 01 CC 01 83 04 10  08 04 10 00 00 03 05 10  .#..............
0180: 04 10 02 2D 00 00 80 00  94 01 1A 69 02 1D 1D 80  ...-.......i....
0190: 23 01 CC 01 02 00 00 18  80 04 A6 01 1A 69 02 1D  #............i..
01A0: 1D 80 23 01 CC 01 02 00  00 19 80 04 BB 01 07 04  ..#.............
01B0: 10 18 80 07 05 10 15 80  01 C5 01 07 04 10 19 80  ................
01C0: 07 05 10 17 80 1A 69 02  1D 1E 80 23 1A 69 02 03  ......i....#.i..
01D0: 04 10 34 00 03 05 10 08  00 03 06 10 09 00 03 07  ..4.............
01E0: 10 2F 00 03 08 10 30 00  03 09 10 13 00 02 2C 00  ./....0.......,.
01F0: 01 80 80 30 02 03 02 10  2E 00 03 03 10 21 00 03  ...0.........!..
0200: 04 10 2D 00 03 05 10 08  00 03 06 10 09 00 1D 1F  ..-.............
0210: 80 23 03 00 00 88 7F 15  00 00 20 80 02 00 00 0F  .#........ .....
0220: 00 03 2D 02 03 02 10 0F  00 1D 21 80 23 01 5C 02  ..-.......!.#.\.
0230: 02 2C 00 0E 80 80 3F 02  1D 22 80 23 01 5C 02 02  .,....?..".#.\..
0240: 2C 00 0D 80 80 4E 02 1D  23 80 23 01 5C 02 02 2C  ,....N..#.#.\..,
0250: 00 24 80 80 5C 02 1A 06  05 01 5C 02 02 36 00 00  .$..\.....\..6..
0260: 80 00 68 02 1D 25 80 23  1B 02 34 00 01 80 04 0D  ..h..%.#..4.....
0270: 03 03 03 10 38 00 02 12  00 0B 80 80 86 02 03 00  ....8...........
0280: 00 26 80 01 C6 02 02 12  00 00 80 80 96 02 03 00  .&..............
0290: 00 27 80 01 C6 02 02 12  00 01 80 80 A6 02 03 00  .'..............
02A0: 00 28 80 01 C6 02 02 12  00 0E 80 80 B6 02 03 00  .(..............
02B0: 00 29 80 01 C6 02 02 12  00 0D 80 80 C6 02 03 00  .)..............
02C0: 00 2A 80 01 C6 02 02 13  00 00 80 80 DB 02 14 00  .*..............
02D0: 00 00 80 07 03 10 00 00  01 0A 03 02 13 00 01 80  ................
02E0: 80 0A 03 02 34 00 01 80  00 FD 02 14 00 00 01 80  ....4...........
02F0: 07 03 10 00 00 07 03 10  2B 80 01 07 03 14 00 00  ........+.......
0300: 00 80 07 03 10 00 00 01  0A 03 01 15 03 03 02 10  ................
0310: 33 00 1A 16 03 1B 03 03  10 02 10 02 11 00 0B 80  3...............
0320: 80 2B 03 07 03 10 2C 80  01 5B 03 02 11 00 00 80  .+....,..[......
0330: 80 3B 03 07 03 10 2B 80  01 5B 03 02 11 00 01 80  .;....+..[......
0340: 80 4B 03 07 03 10 2D 80  01 5B 03 02 11 00 01 80  .K....-..[......
0350: 80 5B 03 07 03 10 26 80  01 5B 03 02 12 00 0B 80  .[....&..[......
0360: 80 6B 03 03 00 00 26 80  01 AB 03 02 12 00 00 80  .k....&.........
0370: 80 7B 03 03 00 00 27 80  01 AB 03 02 12 00 01 80  .{....'.........
0380: 80 8B 03 03 00 00 28 80  01 AB 03 02 12 00 0E 80  ......(.........
0390: 80 9B 03 03 00 00 29 80  01 AB 03 02 12 00 0D 80  ......).........
03A0: 80 AB 03 03 00 00 2A 80  01 AB 03 02 13 00 0B 80  ......*.........
03B0: 80 C0 03 14 00 00 00 80  07 03 10 00 00 01 F4 03  ................
03C0: 02 13 00 00 80 80 DA 03  14 00 00 01 80 07 03 10  ................
03D0: 00 00 07 03 10 2B 80 01  F4 03 02 13 00 01 80 80  .....+..........
03E0: F4 03 14 00 00 0E 80 07  03 10 00 00 07 03 10 2E  ................
03F0: 80 01 F4 03 1B 02 35 00  0B 80 80 0A 04 03 02 10  ......5.........
0400: 08 80 03 03 10 03 80 01  1F 04 02 35 00 00 80 80  ...........5....
0410: 1F 04 03 02 10 09 80 03  03 10 04 80 01 1F 04 02  ................
0420: 06 00 00 80 80 2E 04 1D  2F 80 23 01 54 04 02 06  ......../.#.T...
0430: 00 01 80 80 41 04 1D 30  80 23 1D 31 80 23 01 54  ....A..0.#.1.#.T
0440: 04 02 06 00 0E 80 80 54  04 1D 32 80 23 1D 33 80  .......T..2.#.3.
0450: 23 01 54 04 1B                                    #.T..           
```

#### Opcodes

```
  0: 0x0000 [0x00] END_REQSTACK()
```

#### Data or dead code:

```
# Dead code (unreachable instructions):
     0x0001 [0x02] IF !(ExtData[1]->WorkLocal[31] < 1*) GOTO 0x005D
     0x0009 [0x02] IF !(ExtData[1]->WorkLocal[43] == 2*) GOTO 0x0018
     0x0011 [0x1D] PRINT_EVENT_MESSAGE(message_id=7348*)
    → "You are the MC for today's match. Please set the match rules and begin proceedings."
     0x0014 [0x23] WAIT_FOR_DIALOG_INTERACTION
     0x0015 [0x01] GOTO 0x005D
     0x0018 [0x02] IF !(ExtData[1]->WorkLocal[36] == 1*) GOTO 0x0031
     0x0020 [0x03] Work_Zone[2] = 5324*
     0x0025 [0x03] Work_Zone[3] = 5326*
     0x002A [0x1D] PRINT_EVENT_MESSAGE(message_id=7345*)
    → "The MC for today's event has failed to show. I am now accepting applications for a substitute. Please present your $0 or $1."
     0x002D [0x23] WAIT_FOR_DIALOG_INTERACTION
     0x002E [0x01] GOTO 0x005D
     0x0031 [0x02] IF !(ExtData[1]->WorkLocal[34] == 1*) GOTO 0x004F
     0x0039 [0x02] IF !(ExtData[1]->WorkLocal[35] == 1*) GOTO 0x0048
     0x0041 [0x1D] PRINT_EVENT_MESSAGE(message_id=7346*)
    → "Today's MC, %0, has yet to arrive. Let us wait a little longer."
     0x0044 [0x23] WAIT_FOR_DIALOG_INTERACTION
     0x0045 [0x01] GOTO 0x004C
     0x0048 [0x1D] PRINT_EVENT_MESSAGE(message_id=7347*)
    → "The MC presiding over today's event is %0."
     0x004B [0x23] WAIT_FOR_DIALOG_INTERACTION
     0x004C [0x01] GOTO 0x005D
     0x004F [0x03] Work_Zone[2] = 5323*
     0x0054 [0x03] Work_Zone[3] = 5325*
     0x0059 [0x1D] PRINT_EVENT_MESSAGE(message_id=7344*)
    → "We are currently awaiting the arrival of the MC. Please present your $0 or $1."
     0x005C [0x23] WAIT_FOR_DIALOG_INTERACTION
     0x005D [0x1B] RETURN
     0x005E [0x03] Work_Zone[2] = ExtData[1]->WorkLocal[31]
     0x0063 [0x03] Work_Zone[3] = ExtData[1]->WorkLocal[44]
     0x0068 [0x06] ExtData[1]->WorkLocal[0] = 0
     0x006B [0x02] IF !(ExtData[1]->WorkLocal[31] < 1*) GOTO 0x0089
     0x0073 [0x02] IF !(ExtData[1]->WorkLocal[34] == 0*) GOTO 0x0081
     0x007B [0x06] Work_Zone[4] = 0
     0x007E [0x01] GOTO 0x0086
     0x0081 [0x03] Work_Zone[4] = ExtData[1]->WorkLocal[37]
     0x0086 [0x01] GOTO 0x008E
     0x0089 [0x03] Work_Zone[4] = ExtData[1]->WorkLocal[37]
     0x008E [0x1D] PRINT_EVENT_MESSAGE(message_id=7334*)
    → "The current Brenner match: Match Type: [Official/Private/LS-Liga] [/(Level: 10)/(Level: 20)/(Level: 30)/(Level: 40)/(Level: 50)/(Level: 60)/(Level: $7)] Status: [/Match Settings Underway/Accepting Entries/Briefing Period/Match in Progress/Match Cancelled/In-between Matches]"
     0x0091 [0x23] WAIT_FOR_DIALOG_INTERACTION
     0x0092 [0x02] IF !(ExtData[1]->WorkLocal[44] < 2*) GOTO 0x00D8
     0x009A [0x02] IF !(ExtData[1]->WorkLocal[44] > 4*) GOTO 0x00D8
     0x00A2 [0x02] IF !(ExtData[1]->WorkLocal[31] == 2*) GOTO 0x00D8
     0x00AA [0x3E] IF !(ExtData[1]->WorkLocal[38] bit 3*) GOTO 0x00C6
     0x00B1 [0x3E] IF !(ExtData[1]->WorkLocal[38] bit 4*) GOTO 0x00BF
     0x00B8 [0x1D] PRINT_EVENT_MESSAGE(message_id=7396*)
    → "The Wyverns will be represented by %1. The Griffons will be represented by %2."
     0x00BB [0x23] WAIT_FOR_DIALOG_INTERACTION
     0x00BC [0x01] GOTO 0x00C3
     0x00BF [0x1D] PRINT_EVENT_MESSAGE(message_id=7397*)
    → "The Wyverns will be represented by %1. The Griffons have no current representatives."
     0x00C2 [0x23] WAIT_FOR_DIALOG_INTERACTION
     0x00C3 [0x01] GOTO 0x00D8
     0x00C6 [0x3E] IF !(ExtData[1]->WorkLocal[38] bit 4*) GOTO 0x00D4
     0x00CD [0x1D] PRINT_EVENT_MESSAGE(message_id=7398*)
    → "The Wyverns have no current representatives. The Griffons will be represented by %2."
     0x00D0 [0x23] WAIT_FOR_DIALOG_INTERACTION
     0x00D1 [0x01] GOTO 0x00D8
     0x00D4 [0x1D] PRINT_EVENT_MESSAGE(message_id=7399*)
    → "Neither the Wyverns nor the Griffons are currently represented."
     0x00D7 [0x23] WAIT_FOR_DIALOG_INTERACTION
     0x00D8 [0x02] IF !(ExtData[1]->WorkLocal[31] == 0*) GOTO 0x01CC
     0x00E0 [0x83] ExtData[1]->WorkLocal[0] = GetGameTime()
     0x00E3 [0x3F] ExtData[1]->WorkLocal[0] = ExtData[1]->WorkLocal[0] % 7200*
     0x00EA [0x02] IF !(ExtData[1]->WorkLocal[44] < 5*) GOTO 0x0139
     0x00F2 [0x83] Work_Zone[2] = GetGameTime()
     0x00F5 [0x08] Work_Zone[2] -= ExtData[1]->WorkLocal[0]
     0x00FA [0x02] IF !(ExtData[1]->WorkLocal[0] < 4740*) GOTO 0x010E
     0x0102 [0x07] Work_Zone[2] += 7200*
     0x0107 [0x1D] PRINT_EVENT_MESSAGE(message_id=7343*)
    → "All official matches for this season have ended."
     0x010A [0x23] WAIT_FOR_DIALOG_INTERACTION
     0x010B [0x01] GOTO 0x0136
     0x010E [0x03] Work_Zone[3] = Work_Zone[2]
     0x0113 [0x02] IF !(ExtData[1]->WorkLocal[0] < 2340*) GOTO 0x0128
     0x011B [0x07] Work_Zone[2] += 4500*
     0x0120 [0x07] Work_Zone[3] += 4740*
     0x0125 [0x01] GOTO 0x0132
     0x0128 [0x07] Work_Zone[2] += 2100*
     0x012D [0x07] Work_Zone[3] += 2340*
     0x0132 [0x1D] PRINT_EVENT_MESSAGE(message_id=7342*)
    → "The next entry period is scheduled to begin on , with the briefing to follow on ."
     0x0135 [0x23] WAIT_FOR_DIALOG_INTERACTION
     0x0136 [0x01] GOTO 0x01CC
     0x0139 [0x02] IF !(ExtData[1]->WorkLocal[44] == 2*) GOTO 0x0175
     0x0141 [0x83] Work_Zone[2] = GetGameTime()
     0x0144 [0x08] Work_Zone[2] -= ExtData[1]->WorkLocal[0]
     0x0149 [0x02] IF !(ExtData[1]->WorkLocal[0] < 4500*) GOTO 0x0159
     0x0151 [0x07] Work_Zone[2] += 4740*
     0x0156 [0x01] GOTO 0x016E
     0x0159 [0x02] IF !(ExtData[1]->WorkLocal[0] < 2100*) GOTO 0x0169
     0x0161 [0x07] Work_Zone[2] += 2340*
     0x0166 [0x01] GOTO 0x016E
     0x0169 [0x07] Work_Zone[2] += 540*
     0x016E [0x1D] PRINT_EVENT_MESSAGE(message_id=7339*)
    → "Briefing will begin on ."
     0x0171 [0x23] WAIT_FOR_DIALOG_INTERACTION
     0x0172 [0x01] GOTO 0x01CC
     0x0175 [0x83] Work_Zone[4] = GetGameTime()
     0x0178 [0x08] Work_Zone[4] -= ExtData[1]->WorkLocal[0]
     0x017D [0x03] Work_Zone[5] = Work_Zone[4]
     0x0182 [0x02] IF !(ExtData[1]->WorkLocal[45] == 1*) GOTO 0x0194
     0x018A [0x1A] CALL_SUBROUTINE(address=0x0269)
     0x018D [0x1D] PRINT_EVENT_MESSAGE(message_id=7341*)
    → "The current match is scheduled to end on ."
     0x0190 [0x23] WAIT_FOR_DIALOG_INTERACTION
     0x0191 [0x01] GOTO 0x01CC
     0x0194 [0x02] IF !(ExtData[1]->WorkLocal[0] < 4500*) GOTO 0x01A6
     0x019C [0x1A] CALL_SUBROUTINE(address=0x0269)
     0x019F [0x1D] PRINT_EVENT_MESSAGE(message_id=7341*)
    → "The current match is scheduled to end on ."
     0x01A2 [0x23] WAIT_FOR_DIALOG_INTERACTION
     0x01A3 [0x01] GOTO 0x01CC
     0x01A6 [0x02] IF !(ExtData[1]->WorkLocal[0] < 2100*) GOTO 0x01BB
     0x01AE [0x07] Work_Zone[4] += 4500*
     0x01B3 [0x07] Work_Zone[5] += 4740*
     0x01B8 [0x01] GOTO 0x01C5
     0x01BB [0x07] Work_Zone[4] += 2100*
     0x01C0 [0x07] Work_Zone[5] += 2340*
     0x01C5 [0x1A] CALL_SUBROUTINE(address=0x0269)
     0x01C8 [0x1D] PRINT_EVENT_MESSAGE(message_id=7340*)
    → "The current match will end on . The entry period will begin on , with the briefing to follow on ."
     0x01CB [0x23] WAIT_FOR_DIALOG_INTERACTION
     0x01CC [0x1A] CALL_SUBROUTINE(address=0x0269)
     0x01CF [0x03] Work_Zone[4] = ExtData[1]->WorkLocal[52]
     0x01D4 [0x03] Work_Zone[5] = ExtData[1]->WorkLocal[8]
     0x01D9 [0x03] Work_Zone[6] = ExtData[1]->WorkLocal[9]
     0x01DE [0x03] Work_Zone[7] = ExtData[1]->WorkLocal[47]
     0x01E3 [0x03] Work_Zone[8] = ExtData[1]->WorkLocal[48]
     0x01E8 [0x03] Work_Zone[9] = ExtData[1]->WorkLocal[19]
     0x01ED [0x02] IF !(ExtData[1]->WorkLocal[44] == 2*) GOTO 0x0230
     0x01F5 [0x03] Work_Zone[2] = ExtData[1]->WorkLocal[46]
     0x01FA [0x03] Work_Zone[3] = ExtData[1]->WorkLocal[33]
     0x01FF [0x03] Work_Zone[4] = ExtData[1]->WorkLocal[45]
     0x0204 [0x03] Work_Zone[5] = ExtData[1]->WorkLocal[8]
     0x0209 [0x03] Work_Zone[6] = ExtData[1]->WorkLocal[9]
     0x020E [0x1D] PRINT_EVENT_MESSAGE(message_id=7335*)
    → "The [/temporary ]entry applications for this match stand as follows: Wyverns: $3 [entry/entries] Griffons: $4 [entry/entries] You [have yet to submit/have submitted] [an /a temporary ]entry application for [the Wyverns./the Griffons./either side.]"
     0x0211 [0x23] WAIT_FOR_DIALOG_INTERACTION
     0x0212 [0x03] ExtData[1]->WorkLocal[0] = LocalPlayer->JobLevel
     0x0217 [0x15] ExtData[1]->WorkLocal[0] /= 10*
     0x021C [0x02] IF !(ExtData[1]->WorkLocal[0] >= ExtData[1]->WorkLocal[15]) GOTO 0x022D
     0x0224 [0x03] Work_Zone[2] = ExtData[1]->WorkLocal[15]
     0x0229 [0x1D] PRINT_EVENT_MESSAGE(message_id=7336*)
    → "The minimum level requirement for this match is [0/10/20/30/40/50/60/75]. Your entry application is denied."
     0x022C [0x23] WAIT_FOR_DIALOG_INTERACTION
     0x022D [0x01] GOTO 0x025C
     0x0230 [0x02] IF !(ExtData[1]->WorkLocal[44] == 3*) GOTO 0x023F
     0x0238 [0x1D] PRINT_EVENT_MESSAGE(message_id=7337*)
    → "Set $2 of [1 set/2 sets/3 sets] is currently in progress. The match is scheduled to end on ."
     0x023B [0x23] WAIT_FOR_DIALOG_INTERACTION
     0x023C [0x01] GOTO 0x025C
     0x023F [0x02] IF !(ExtData[1]->WorkLocal[44] == 4*) GOTO 0x024E
     0x0247 [0x1D] PRINT_EVENT_MESSAGE(message_id=7338*)
    → "Set $2 of [1 set/2 sets/3 sets] is currently in progress. Current Score: Wyverns $5 vs $6 Griffons The match is scheduled to end on ."
     0x024A [0x23] WAIT_FOR_DIALOG_INTERACTION
     0x024B [0x01] GOTO 0x025C
     0x024E [0x02] IF !(ExtData[1]->WorkLocal[44] == 6*) GOTO 0x025C
     0x0256 [0x1A] CALL_SUBROUTINE(address=0x0506)
     0x0259 [0x01] GOTO 0x025C
     0x025C [0x02] IF !(ExtData[1]->WorkLocal[54] == 1*) GOTO 0x0268
     0x0264 [0x1D] PRINT_EVENT_MESSAGE(message_id=7351*)
    → "You have been authorized as a gallery member only."
     0x0267 [0x23] WAIT_FOR_DIALOG_INTERACTION
     0x0268 [0x1B] RETURN
     0x0269 [0x02] IF !(ExtData[1]->WorkLocal[52] < 2*) GOTO 0x030D
     0x0271 [0x03] Work_Zone[3] = ExtData[1]->WorkLocal[56]
     0x0276 [0x02] IF !(ExtData[1]->WorkLocal[18] == 0*) GOTO 0x0286
     0x027E [0x03] ExtData[1]->WorkLocal[0] = 300*
     0x0283 [0x01] GOTO 0x02C6
     0x0286 [0x02] IF !(ExtData[1]->WorkLocal[18] == 1*) GOTO 0x0296
     0x028E [0x03] ExtData[1]->WorkLocal[0] = 600*
     0x0293 [0x01] GOTO 0x02C6
     0x0296 [0x02] IF !(ExtData[1]->WorkLocal[18] == 2*) GOTO 0x02A6
     0x029E [0x03] ExtData[1]->WorkLocal[0] = 900*
     0x02A3 [0x01] GOTO 0x02C6
     0x02A6 [0x02] IF !(ExtData[1]->WorkLocal[18] == 3*) GOTO 0x02B6
     0x02AE [0x03] ExtData[1]->WorkLocal[0] = 1200*
     0x02B3 [0x01] GOTO 0x02C6
     0x02B6 [0x02] IF !(ExtData[1]->WorkLocal[18] == 4*) GOTO 0x02C6
     0x02BE [0x03] ExtData[1]->WorkLocal[0] = 1800*
     0x02C3 [0x01] GOTO 0x02C6
     0x02C6 [0x02] IF !(ExtData[1]->WorkLocal[19] == 1*) GOTO 0x02DB
     0x02CE [0x14] ExtData[1]->WorkLocal[0] *= 1*
     0x02D3 [0x07] Work_Zone[3] += ExtData[1]->WorkLocal[0]
     0x02D8 [0x01] GOTO 0x030A
     0x02DB [0x02] IF !(ExtData[1]->WorkLocal[19] == 2*) GOTO 0x030A
     0x02E3 [0x02] IF !(ExtData[1]->WorkLocal[52] == 2*) GOTO 0x02FD
     0x02EB [0x14] ExtData[1]->WorkLocal[0] *= 2*
     0x02F0 [0x07] Work_Zone[3] += ExtData[1]->WorkLocal[0]
     0x02F5 [0x07] Work_Zone[3] += 60*
     0x02FA [0x01] GOTO 0x0307
     0x02FD [0x14] ExtData[1]->WorkLocal[0] *= 1*
     0x0302 [0x07] Work_Zone[3] += ExtData[1]->WorkLocal[0]
     0x0307 [0x01] GOTO 0x030A
     0x030A [0x01] GOTO 0x0315
     0x030D [0x03] Work_Zone[2] = ExtData[1]->WorkLocal[51]
     0x0312 [0x1A] CALL_SUBROUTINE(address=0x0316)
     0x0315 [0x1B] RETURN
     0x0316 [0x03] Work_Zone[3] = Work_Zone[2]
     0x031B [0x02] IF !(ExtData[1]->WorkLocal[17] == 0*) GOTO 0x032B
     0x0323 [0x07] Work_Zone[3] += 30*
     0x0328 [0x01] GOTO 0x035B
     0x032B [0x02] IF !(ExtData[1]->WorkLocal[17] == 1*) GOTO 0x033B
     0x0333 [0x07] Work_Zone[3] += 60*
     0x0338 [0x01] GOTO 0x035B
     0x033B [0x02] IF !(ExtData[1]->WorkLocal[17] == 2*) GOTO 0x034B
     0x0343 [0x07] Work_Zone[3] += 180*
     0x0348 [0x01] GOTO 0x035B
     0x034B [0x02] IF !(ExtData[1]->WorkLocal[17] == 2*) GOTO 0x035B
     0x0353 [0x07] Work_Zone[3] += 300*
     0x0358 [0x01] GOTO 0x035B
     0x035B [0x02] IF !(ExtData[1]->WorkLocal[18] == 0*) GOTO 0x036B
     0x0363 [0x03] ExtData[1]->WorkLocal[0] = 300*
     0x0368 [0x01] GOTO 0x03AB
     0x036B [0x02] IF !(ExtData[1]->WorkLocal[18] == 1*) GOTO 0x037B
     0x0373 [0x03] ExtData[1]->WorkLocal[0] = 600*
     0x0378 [0x01] GOTO 0x03AB
     0x037B [0x02] IF !(ExtData[1]->WorkLocal[18] == 2*) GOTO 0x038B
     0x0383 [0x03] ExtData[1]->WorkLocal[0] = 900*
     0x0388 [0x01] GOTO 0x03AB
     0x038B [0x02] IF !(ExtData[1]->WorkLocal[18] == 3*) GOTO 0x039B
     0x0393 [0x03] ExtData[1]->WorkLocal[0] = 1200*
     0x0398 [0x01] GOTO 0x03AB
     0x039B [0x02] IF !(ExtData[1]->WorkLocal[18] == 4*) GOTO 0x03AB
     0x03A3 [0x03] ExtData[1]->WorkLocal[0] = 1800*
     0x03A8 [0x01] GOTO 0x03AB
     0x03AB [0x02] IF !(ExtData[1]->WorkLocal[19] == 0*) GOTO 0x03C0
     0x03B3 [0x14] ExtData[1]->WorkLocal[0] *= 1*
     0x03B8 [0x07] Work_Zone[3] += ExtData[1]->WorkLocal[0]
     0x03BD [0x01] GOTO 0x03F4
     0x03C0 [0x02] IF !(ExtData[1]->WorkLocal[19] == 1*) GOTO 0x03DA
     0x03C8 [0x14] ExtData[1]->WorkLocal[0] *= 2*
     0x03CD [0x07] Work_Zone[3] += ExtData[1]->WorkLocal[0]
     0x03D2 [0x07] Work_Zone[3] += 60*
     0x03D7 [0x01] GOTO 0x03F4
     0x03DA [0x02] IF !(ExtData[1]->WorkLocal[19] == 2*) GOTO 0x03F4
     0x03E2 [0x14] ExtData[1]->WorkLocal[0] *= 3*
     0x03E7 [0x07] Work_Zone[3] += ExtData[1]->WorkLocal[0]
     0x03EC [0x07] Work_Zone[3] += 120*
     0x03F1 [0x01] GOTO 0x03F4
     0x03F4 [0x1B] RETURN
     0x03F5 [0x02] IF !(ExtData[1]->WorkLocal[53] == 0*) GOTO 0x040A
     0x03FD [0x03] Work_Zone[2] = 5323*
     0x0402 [0x03] Work_Zone[3] = 5324*
     0x0407 [0x01] GOTO 0x041F
     0x040A [0x02] IF !(ExtData[1]->WorkLocal[53] == 1*) GOTO 0x041F
     0x0412 [0x03] Work_Zone[2] = 5325*
     0x0417 [0x03] Work_Zone[3] = 5326*
     0x041C [0x01] GOTO 0x041F
     0x041F [0x02] IF !(ExtData[1]->WorkLocal[6] == 1*) GOTO 0x042E
     0x0427 [0x1D] PRINT_EVENT_MESSAGE(message_id=7394*)
    → "As linkshell leader, you are eligible to enter your team into the LS Liga match. Please present your $0 or $1 if you wish to participate under the current settings."
     0x042A [0x23] WAIT_FOR_DIALOG_INTERACTION
     0x042B [0x01] GOTO 0x0454
     0x042E [0x02] IF !(ExtData[1]->WorkLocal[6] == 2*) GOTO 0x0441
     0x0436 [0x1D] PRINT_EVENT_MESSAGE(message_id=7406*)
    → "Your linkshell has been entered into an LS Liga match. If you wish to participate, please present your $0/$1."
     0x0439 [0x23] WAIT_FOR_DIALOG_INTERACTION
     0x043A [0x1D] PRINT_EVENT_MESSAGE(message_id=7407*)
    → "The linkshell leader must be entered into the match."
     0x043D [0x23] WAIT_FOR_DIALOG_INTERACTION
     0x043E [0x01] GOTO 0x0454
     0x0441 [0x02] IF !(ExtData[1]->WorkLocal[6] == 3*) GOTO 0x0454
     0x0449 [0x1D] PRINT_EVENT_MESSAGE(message_id=7408*)
    → "If all participating linkshell members have concluded entry procedures, please confirm the match settings and present your $0 or $1."
     0x044C [0x23] WAIT_FOR_DIALOG_INTERACTION
     0x044D [0x1D] PRINT_EVENT_MESSAGE(message_id=7410*)
    → "The match will commence once both linkshell leaders have shown their agreement. Furthermore, any changes made to the settings by the MC will void this agreement."
     0x0450 [0x23] WAIT_FOR_DIALOG_INTERACTION
     0x0451 [0x01] GOTO 0x0454
     0x0454 [0x1B] RETURN
```

### Event 15

#### Metadata

| Field        | Value    |
|--------------|----------|
| Entrypoint   | 0x0455   |
| Data Size    | 24 bytes |
| Instructions | 10       |

```
      00 01 02 03 04 05 06 07  08 09 0A 0B 0C 0D 0E 0F
      -- -- -- -- -- -- -- --  -- -- -- -- -- -- -- --
0450:                42 1E F0  FF FF 7F 6F 70 15 02 10       B.....op...
0460: 20 80 07 03 10 13 80 1D  34 80 23 21 00            .......4.#!.   
```

#### Opcodes

```
  0: 0x0455 [0x42] SET_CLI_EVENT_CANCEL_DATA()
  1: 0x0456 [0x1E] EventEntity looks at LocalPlayer and starts talking
  2: 0x045B [0x6F] WAIT_FRAME_DELAY: Yield until WaitTime reaches zero
  3: 0x045C [0x70] WAIT_ENTITY_RENDER_FLAG: Wait while EventEntity->Render.Flags3 bit 2 is set (cancel turn if not)
  4: 0x045D [0x15] Work_Zone[2] /= 10*
  5: 0x0462 [0x07] Work_Zone[3] += 7200*
  6: 0x0467 [0x1D] PRINT_EVENT_MESSAGE(message_id=7349*)
    → "You are now the MC for this match. The area is reserved until , and the maximum level for this match is [/10/20/30/40/50/60/unrestricted]. Please set the match rules and begin proceedings."
  7: 0x046A [0x23] WAIT_FOR_DIALOG_INTERACTION
  8: 0x046B [0x21] END_EVENT
  9: 0x046C [0x00] END_REQSTACK()
```

### Event 6

#### Metadata

| Field        | Value    |
|--------------|----------|
| Entrypoint   | 0x046D   |
| Data Size    | 29 bytes |
| Instructions | 11       |

```
      00 01 02 03 04 05 06 07  08 09 0A 0B 0C 0D 0E 0F
      -- -- -- -- -- -- -- --  -- -- -- -- -- -- -- --
0460:                                         1E F0 FF               ...
0470: FF 7F 6F 70 06 01 10 1A  08 1B 1A 5E 00 06 01 10  ..op.......^....
0480: 1A 3B 09 03 01 10 35 80  21 00                    .;....5.!.      
```

#### Opcodes

```
  0: 0x046D [0x1E] EventEntity looks at LocalPlayer and starts talking
  1: 0x0472 [0x6F] WAIT_FRAME_DELAY: Yield until WaitTime reaches zero
  2: 0x0473 [0x70] WAIT_ENTITY_RENDER_FLAG: Wait while EventEntity->Render.Flags3 bit 2 is set (cancel turn if not)
  3: 0x0474 [0x06] Work_Zone[1] = 0
  4: 0x0477 [0x1A] CALL_SUBROUTINE(address=0x1B08)
  5: 0x047A [0x1A] CALL_SUBROUTINE(address=0x005E)
  6: 0x047D [0x06] Work_Zone[1] = 0
  7: 0x0480 [0x1A] CALL_SUBROUTINE(address=0x093B)
  8: 0x0483 [0x03] Work_Zone[1] = 1073741824*
  9: 0x0488 [0x21] END_EVENT
 10: 0x0489 [0x00] END_REQSTACK()
```

### Event 11

#### Metadata

| Field        | Value    |
|--------------|----------|
| Entrypoint   | 0x048A   |
| Data Size    | 37 bytes |
| Instructions | 12       |

```
      00 01 02 03 04 05 06 07  08 09 0A 0B 0C 0D 0E 0F
      -- -- -- -- -- -- -- --  -- -- -- -- -- -- -- --
0480:                                1E F0 FF FF 7F 6F            .....o
0490: 70 06 01 10 24 36 80 00  80 0B 80 25 02 00 10 0B  p...$6.....%....
04A0: 80 00 AD 04 42 03 01 10  00 80 01 AD 04 21 00     ....B........!. 
```

#### Opcodes

```
  0: 0x048A [0x1E] EventEntity looks at LocalPlayer and starts talking
  1: 0x048F [0x6F] WAIT_FRAME_DELAY: Yield until WaitTime reaches zero
  2: 0x0490 [0x70] WAIT_ENTITY_RENDER_FLAG: Wait while EventEntity->Render.Flags3 bit 2 is set (cancel turn if not)
  3: 0x0491 [0x06] Work_Zone[1] = 0
  4: 0x0494 [0x24] CREATE_DIALOG(message_id=7395*, default_option=1*, option_flags=0*)
    → "Enter the LS Liga match? [Enter %3./Not right now.]"
  5: 0x049B [0x25] WAIT_DIALOG_SELECT()
  6: 0x049C [0x02] IF !(Work_Zone[0] == 0*) GOTO 0x04AD
  7: 0x04A4 [0x42] SET_CLI_EVENT_CANCEL_DATA()
  8: 0x04A5 [0x03] Work_Zone[1] = 1*
  9: 0x04AA [0x01] GOTO 0x04AD

SUBROUTINE_04AD:
 10: 0x04AD [0x21] END_EVENT
 11: 0x04AE [0x00] END_REQSTACK()
```

### Event 12

#### Metadata

| Field        | Value    |
|--------------|----------|
| Entrypoint   | 0x04AF   |
| Data Size    | 45 bytes |
| Instructions | 16       |

```
      00 01 02 03 04 05 06 07  08 09 0A 0B 0C 0D 0E 0F
      -- -- -- -- -- -- -- --  -- -- -- -- -- -- -- --
04A0:                                               1E                 .
04B0: F0 FF FF 7F 6F 70 1D 37  80 23 1D 33 80 23 06 01  ....op.7.#.3.#..
04C0: 10 24 38 80 00 80 0B 80  25 02 00 10 0B 80 00 DA  .$8.....%.......
04D0: 04 42 03 01 10 00 80 01  DA 04 21 00              .B........!.    
```

#### Opcodes

```
  0: 0x04AF [0x1E] EventEntity looks at LocalPlayer and starts talking
  1: 0x04B4 [0x6F] WAIT_FRAME_DELAY: Yield until WaitTime reaches zero
  2: 0x04B5 [0x70] WAIT_ENTITY_RENDER_FLAG: Wait while EventEntity->Render.Flags3 bit 2 is set (cancel turn if not)
  3: 0x04B6 [0x1D] PRINT_EVENT_MESSAGE(message_id=7409*)
    → "If all participating linkshell members have concluded entry procedures, please confirm the match settings and signal your agreement to start the match."
  4: 0x04B9 [0x23] WAIT_FOR_DIALOG_INTERACTION
  5: 0x04BA [0x1D] PRINT_EVENT_MESSAGE(message_id=7410*)
    → "The match will commence once both linkshell leaders have shown their agreement. Furthermore, any changes made to the settings by the MC will void this agreement."
  6: 0x04BD [0x23] WAIT_FOR_DIALOG_INTERACTION
  7: 0x04BE [0x06] Work_Zone[1] = 0
  8: 0x04C1 [0x24] CREATE_DIALOG(message_id=7411*, default_option=1*, option_flags=0*)
    → "Agree to start the match? [Yes./No.]"
  9: 0x04C8 [0x25] WAIT_DIALOG_SELECT()
 10: 0x04C9 [0x02] IF !(Work_Zone[0] == 0*) GOTO 0x04DA
 11: 0x04D1 [0x42] SET_CLI_EVENT_CANCEL_DATA()
 12: 0x04D2 [0x03] Work_Zone[1] = 1*
 13: 0x04D7 [0x01] GOTO 0x04DA

SUBROUTINE_04DA:
 14: 0x04DA [0x21] END_EVENT
 15: 0x04DB [0x00] END_REQSTACK()
```

### Event 14

#### Metadata

| Field        | Value    |
|--------------|----------|
| Entrypoint   | 0x04DC   |
| Data Size    | 26 bytes |
| Instructions | 12       |

```
      00 01 02 03 04 05 06 07  08 09 0A 0B 0C 0D 0E 0F
      -- -- -- -- -- -- -- --  -- -- -- -- -- -- -- --
04D0:                                      1A 08 1B 42              ...B
04E0: 1E F0 FF FF 7F 6F 70 1D  39 80 23 03 02 10 32 00  .....op.9.#...2.
04F0: 1D 3A 80 23 21 00                                 .:.#!.          
```

#### Opcodes

```
  0: 0x04DC [0x1A] CALL_SUBROUTINE(address=0x1B08)
  1: 0x04DF [0x42] SET_CLI_EVENT_CANCEL_DATA()
  2: 0x04E0 [0x1E] EventEntity looks at LocalPlayer and starts talking
  3: 0x04E5 [0x6F] WAIT_FRAME_DELAY: Yield until WaitTime reaches zero
  4: 0x04E6 [0x70] WAIT_ENTITY_RENDER_FLAG: Wait while EventEntity->Render.Flags3 bit 2 is set (cancel turn if not)
  5: 0x04E7 [0x1D] PRINT_EVENT_MESSAGE(message_id=7485*)
    → "Unfortunately, today's match has been cancelled. We thank you for your interest and apologize for the inconvenience."
  6: 0x04EA [0x23] WAIT_FOR_DIALOG_INTERACTION
  7: 0x04EB [0x03] Work_Zone[2] = ExtData[1]->WorkLocal[50]
  8: 0x04F0 [0x1D] PRINT_EVENT_MESSAGE(message_id=7486*)
    → "The entry application fee [/and the charge for changing settings ]will be reimbursed."
  9: 0x04F3 [0x23] WAIT_FOR_DIALOG_INTERACTION
 10: 0x04F4 [0x21] END_EVENT
 11: 0x04F5 [0x00] END_REQSTACK()
```

### Event 13

#### Metadata

| Field        | Value    |
|--------------|----------|
| Entrypoint   | 0x04F6   |
| Data Size    | 95 bytes |
| Instructions | 26       |

```
      00 01 02 03 04 05 06 07  08 09 0A 0B 0C 0D 0E 0F
      -- -- -- -- -- -- -- --  -- -- -- -- -- -- -- --
04F0:                   42 1A  08 1B 1E F0 FF FF 7F 6F        B........o
0500: 70 1A 06 05 21 00 03 02  10 2F 00 03 03 10 30 00  p...!..../....0.
0510: 02 2F 00 30 00 00 1E 05  06 04 10 01 33 05 02 2F  ./.0........3../
0520: 00 30 00 02 2E 05 03 04  10 00 80 01 33 05 03 04  .0..........3...
0530: 10 01 80 03 05 10 13 00  0B 05 10 03 06 10 2A 00  ..............*.
0540: 06 07 10 02 1F 00 01 80  00 50 05 03 07 10 31 00  .........P....1.
0550: 1D 3B 80 23 1B                                    .;.#.           
```

#### Opcodes

```
  0: 0x04F6 [0x42] SET_CLI_EVENT_CANCEL_DATA()
  1: 0x04F7 [0x1A] CALL_SUBROUTINE(address=0x1B08)
  2: 0x04FA [0x1E] EventEntity looks at LocalPlayer and starts talking
  3: 0x04FF [0x6F] WAIT_FRAME_DELAY: Yield until WaitTime reaches zero
  4: 0x0500 [0x70] WAIT_ENTITY_RENDER_FLAG: Wait while EventEntity->Render.Flags3 bit 2 is set (cancel turn if not)
  5: 0x0501 [0x1A] CALL_SUBROUTINE(address=0x0506)
  6: 0x0504 [0x21] END_EVENT
  7: 0x0505 [0x00] END_REQSTACK()

SUBROUTINE_0506:
  8: 0x0506 [0x03] Work_Zone[2] = ExtData[1]->WorkLocal[47]
  9: 0x050B [0x03] Work_Zone[3] = ExtData[1]->WorkLocal[48]
 10: 0x0510 [0x02] IF !(ExtData[1]->WorkLocal[47] == ExtData[1]->WorkLocal[48]) GOTO 0x051E
 11: 0x0518 [0x06] Work_Zone[4] = 0
 12: 0x051B [0x01] GOTO 0x0533
 13: 0x051E [0x02] IF !(ExtData[1]->WorkLocal[47] <= ExtData[1]->WorkLocal[48]) GOTO 0x052E
 14: 0x0526 [0x03] Work_Zone[4] = 1*
 15: 0x052B [0x01] GOTO 0x0533
 16: 0x052E [0x03] Work_Zone[4] = 2*

SUBROUTINE_0533:
 17: 0x0533 [0x03] Work_Zone[5] = ExtData[1]->WorkLocal[19]
 18: 0x0538 [0x0B] Work_Zone[5]++
 19: 0x053B [0x03] Work_Zone[6] = ExtData[1]->WorkLocal[42]
 20: 0x0540 [0x06] Work_Zone[7] = 0
 21: 0x0543 [0x02] IF !(ExtData[1]->WorkLocal[31] == 2*) GOTO 0x0550
 22: 0x054B [0x03] Work_Zone[7] = ExtData[1]->WorkLocal[49]
 23: 0x0550 [0x1D] PRINT_EVENT_MESSAGE(message_id=7487*)
    → "Previous [/Training ]match ($3 [set/sets]) results: Wyverns $0 vs $1 Griffons [Draw/Wyverns win/Griffons win][/ (with bonus)]"
 24: 0x0553 [0x23] WAIT_FOR_DIALOG_INTERACTION
 25: 0x0554 [0x1B] RETURN
```

### Event 5

#### Metadata

| Field        | Value     |
|--------------|-----------|
| Entrypoint   | 0x0555    |
| Data Size    | 329 bytes |
| Instructions | 71        |

```
      00 01 02 03 04 05 06 07  08 09 0A 0B 0C 0D 0E 0F
      -- -- -- -- -- -- -- --  -- -- -- -- -- -- -- --
0550:                1E F0 FF  FF 7F 6F 70 06 01 10 1A       .....op....
0560: 08 1B 1A 5E 00 1A 01 00  1A F5 03 06 01 00 3E 20  ...^..........> 
0570: 00 0B 80 78 05 01 7F 05  3C 01 00 00 80 00 80 3E  ...x....<......>
0580: 20 00 00 80 89 05 01 90  05 3C 01 00 01 80 00 80   ........<......
0590: 02 1F 00 00 80 04 E0 05  3C 01 00 00 80 00 80 02  ........<.......
05A0: 1F 00 00 80 00 D1 05 3E  20 00 0B 80 D1 05 02 35  .......> ......5
05B0: 00 0B 80 00 C3 05 03 02  10 08 80 03 03 10 03 80  ................
05C0: 01 CD 05 03 02 10 09 80  03 03 10 04 80 1D 3C 80  ..............<.
05D0: 23 02 2C 00 00 80 00 E0  05 3C 01 00 0E 80 00 80  #.,......<......
05E0: 02 2C 00 14 80 04 EF 05  3C 01 00 0E 80 00 80 02  .,......<.......
05F0: 01 00 3D 80 01 73 06 24  3E 80 0B 80 01 00 25 40  ..=..s.$>.....%@
0600: 3F 80 40 80 01 10 00 10  02 00 10 00 80 00 16 06  ?.@.............
0610: 1A 3B 09 01 73 06 02 00  10 01 80 00 40 06 02 1F  .;..s.......@...
0620: 00 0B 80 00 3A 06 02 2C  00 0E 80 04 3A 06 02 2C  ....:..,....:..,
0630: 00 0D 80 05 3A 06 1D 41  80 23 1A 71 0A 01 73 06  ....:..A.#.q..s.
0640: 02 00 10 0E 80 00 73 06  02 1F 00 0B 80 00 6D 06  ......s.......m.
0650: 02 2C 00 01 80 00 6D 06  03 02 10 26 80 1D 42 80  .,....m....&..B.
0660: 23 02 28 00 00 80 00 6D  06 1D 43 80 23 1A 8B 0A  #.(....m..C.#...
0670: 01 73 06 1A 78 06 21 00  83 02 10 15 02 10 13 80  .s..x.!.........
0680: 14 02 10 13 80 07 02 10  13 80 02 1F 00 0B 80 00  ................
0690: 99 06 1D 44 80 23 01 9D  06 1D 45 80 23 1B        ...D.#....E.#.  
```

#### Opcodes

```
  0: 0x0555 [0x1E] EventEntity looks at LocalPlayer and starts talking
  1: 0x055A [0x6F] WAIT_FRAME_DELAY: Yield until WaitTime reaches zero
  2: 0x055B [0x70] WAIT_ENTITY_RENDER_FLAG: Wait while EventEntity->Render.Flags3 bit 2 is set (cancel turn if not)
  3: 0x055C [0x06] Work_Zone[1] = 0
  4: 0x055F [0x1A] CALL_SUBROUTINE(address=0x1B08)
  5: 0x0562 [0x1A] CALL_SUBROUTINE(address=0x005E)
  6: 0x0565 [0x1A] CALL_SUBROUTINE(address=0x0001)
  7: 0x0568 [0x1A] CALL_SUBROUTINE(address=0x03F5)
  8: 0x056B [0x06] ExtData[1]->WorkLocal[1] = 0
  9: 0x056E [0x3E] IF !(ExtData[1]->WorkLocal[32] bit 0*) GOTO 0x0578
 10: 0x0575 [0x01] GOTO 0x057F
 11: 0x0578 [0x3C] SET_BIT_FLAG_CONDITIONAL(target_work_offset=ExtData[1]->WorkLocal[1], bit_index_work_offset=1*, condition_work_offset=1*)

SUBROUTINE_057F:
 12: 0x057F [0x3E] IF !(ExtData[1]->WorkLocal[32] bit 1*) GOTO 0x0589
 13: 0x0586 [0x01] GOTO 0x0590
 14: 0x0589 [0x3C] SET_BIT_FLAG_CONDITIONAL(target_work_offset=ExtData[1]->WorkLocal[1], bit_index_work_offset=2*, condition_work_offset=1*)

SUBROUTINE_0590:
 15: 0x0590 [0x02] IF !(ExtData[1]->WorkLocal[31] < 1*) GOTO 0x05E0
 16: 0x0598 [0x3C] SET_BIT_FLAG_CONDITIONAL(target_work_offset=ExtData[1]->WorkLocal[1], bit_index_work_offset=1*, condition_work_offset=1*)
 17: 0x059F [0x02] IF !(ExtData[1]->WorkLocal[31] == 1*) GOTO 0x05D1
 18: 0x05A7 [0x3E] IF !(ExtData[1]->WorkLocal[32] bit 0*) GOTO 0x05D1
 19: 0x05AE [0x02] IF !(ExtData[1]->WorkLocal[53] == 0*) GOTO 0x05C3
 20: 0x05B6 [0x03] Work_Zone[2] = 5323*
 21: 0x05BB [0x03] Work_Zone[3] = 5324*
 22: 0x05C0 [0x01] GOTO 0x05CD
 23: 0x05C3 [0x03] Work_Zone[2] = 5325*
 24: 0x05C8 [0x03] Work_Zone[3] = 5326*

SUBROUTINE_05CD:
 25: 0x05CD [0x1D] PRINT_EVENT_MESSAGE(message_id=7393*)
    → "Please present $0 or $1 to be eligible for the entry process."
 26: 0x05D0 [0x23] WAIT_FOR_DIALOG_INTERACTION
 27: 0x05D1 [0x02] IF !(ExtData[1]->WorkLocal[44] == 1*) GOTO 0x05E0
 28: 0x05D9 [0x3C] SET_BIT_FLAG_CONDITIONAL(target_work_offset=ExtData[1]->WorkLocal[1], bit_index_work_offset=3*, condition_work_offset=1*)
 29: 0x05E0 [0x02] IF !(ExtData[1]->WorkLocal[44] < 5*) GOTO 0x05EF
 30: 0x05E8 [0x3C] SET_BIT_FLAG_CONDITIONAL(target_work_offset=ExtData[1]->WorkLocal[1], bit_index_work_offset=3*, condition_work_offset=1*)
 31: 0x05EF [0x02] IF !(ExtData[1]->WorkLocal[1] == 14*) GOTO 0x0673
 32: 0x05F7 [0x24] CREATE_DIALOG(message_id=7352*, default_option=0*, option_flags=ExtData[1]->WorkLocal[1])
    → "What would you like to do? [Nothing./Submit an entry./Cancel an entry./View settings.]"
 33: 0x05FE [0x25] WAIT_DIALOG_SELECT()
 34: 0x05FF [0x40] SET_BIT_WORK_RANGE(start_bit=16*, end_bit=19*, target=Work_Zone[1], source=Work_Zone[0])
 35: 0x0608 [0x02] IF !(Work_Zone[0] == 1*) GOTO 0x0616
 36: 0x0610 [0x1A] CALL_SUBROUTINE(address=0x093B)
 37: 0x0613 [0x01] GOTO 0x0673
 38: 0x0616 [0x02] IF !(Work_Zone[0] == 2*) GOTO 0x0640
 39: 0x061E [0x02] IF !(ExtData[1]->WorkLocal[31] == 0*) GOTO 0x063A
 40: 0x0626 [0x02] IF !(ExtData[1]->WorkLocal[44] < 3*) GOTO 0x063A
 41: 0x062E [0x02] IF !(ExtData[1]->WorkLocal[44] > 4*) GOTO 0x063A
 42: 0x0636 [0x1D] PRINT_EVENT_MESSAGE(message_id=7354*)
    → "Please note that if you cancel an entry during an official match, you will be unable to resubmit your entry application."
 43: 0x0639 [0x23] WAIT_FOR_DIALOG_INTERACTION
 44: 0x063A [0x1A] CALL_SUBROUTINE(address=0x0A71)
 45: 0x063D [0x01] GOTO 0x0673
 46: 0x0640 [0x02] IF !(Work_Zone[0] == 3*) GOTO 0x0673
 47: 0x0648 [0x02] IF !(ExtData[1]->WorkLocal[31] == 0*) GOTO 0x066D
 48: 0x0650 [0x02] IF !(ExtData[1]->WorkLocal[44] == 2*) GOTO 0x066D
 49: 0x0658 [0x03] Work_Zone[2] = 300*
 50: 0x065D [0x1D] PRINT_EVENT_MESSAGE(message_id=7500*)
    → "Participants who have completed the entry process can change the match settings by paying a fee of $0 gil. Setting changes are limited to one change per person per match. Settings that have been changed once are fixed for that match."
 51: 0x0660 [0x23] WAIT_FOR_DIALOG_INTERACTION
 52: 0x0661 [0x02] IF !(ExtData[1]->WorkLocal[40] == 1*) GOTO 0x066D
 53: 0x0669 [0x1D] PRINT_EVENT_MESSAGE(message_id=7501*)
    → "You have already changed the settings for this match."
 54: 0x066C [0x23] WAIT_FOR_DIALOG_INTERACTION
 55: 0x066D [0x1A] CALL_SUBROUTINE(address=0x0A8B)
 56: 0x0670 [0x01] GOTO 0x0673

SUBROUTINE_0673:
 57: 0x0673 [0x1A] CALL_SUBROUTINE(address=0x0678)
 58: 0x0676 [0x21] END_EVENT
 59: 0x0677 [0x00] END_REQSTACK()

SUBROUTINE_0678:
 60: 0x0678 [0x83] Work_Zone[2] = GetGameTime()
 61: 0x067B [0x15] Work_Zone[2] /= 7200*
 62: 0x0680 [0x14] Work_Zone[2] *= 7200*
 63: 0x0685 [0x07] Work_Zone[2] += 7200*
 64: 0x068A [0x02] IF !(ExtData[1]->WorkLocal[31] == 0*) GOTO 0x0699
 65: 0x0692 [0x1D] PRINT_EVENT_MESSAGE(message_id=7362*)
    → "Official match scheduled to end on ."
 66: 0x0695 [0x23] WAIT_FOR_DIALOG_INTERACTION
 67: 0x0696 [0x01] GOTO 0x069D
 68: 0x0699 [0x1D] PRINT_EVENT_MESSAGE(message_id=7363*)
    → "Area reservation to end on ."
 69: 0x069C [0x23] WAIT_FOR_DIALOG_INTERACTION

SUBROUTINE_069D:
 70: 0x069D [0x1B] RETURN
```

### Event 0

#### Metadata

| Field        | Value      |
|--------------|------------|
| Entrypoint   | 0x069E     |
| Data Size    | 5828 bytes |
| Instructions | 690        |

```
      00 01 02 03 04 05 06 07  08 09 0A 0B 0C 0D 0E 0F
      -- -- -- -- -- -- -- --  -- -- -- -- -- -- -- --
0690:                                            1E F0                ..
06A0: FF FF 7F 6F 70 06 01 10  03 2B 00 01 80 1A 08 1B  ...op....+......
06B0: 1A 5E 00 1A 01 00 1A F5  03 06 01 00 40 3F 80 40  .^..........@?.@
06C0: 80 01 10 2C 00 02 2C 00  01 80 80 F8 07 06 01 00  ...,..,.........
06D0: 3E 20 00 00 80 DA 06 01  E1 06 3C 01 00 0E 80 00  > ........<.....
06E0: 80 02 0B 00 0B 80 01 F0  06 3C 01 00 0D 80 00 80  .........<......
06F0: 02 0B 00 00 80 01 FF 06  3C 01 00 14 80 00 80 24  ........<......$
0700: 46 80 0B 80 01 00 25 40  47 80 48 80 01 10 00 10  F.....%@G.H.....
0710: 02 00 10 00 80 00 70 07  83 02 10 1A 16 03 83 00  ......p.........
0720: 00 15 00 00 13 80 14 00  00 13 80 07 00 00 13 80  ................
0730: 02 03 10 00 00 04 3C 07  1D 49 80 23 24 4A 80 00  ......<..I.#$J..
0740: 80 0B 80 25 02 00 10 0B  80 00 68 07 02 1F 00 01  ...%......h.....
0750: 80 00 65 07 02 27 00 0E  80 01 65 07 1D 4B 80 23  ..e..'....e..K.#
0760: 03 01 10 35 80 01 6D 07  03 01 10 35 80 01 F5 07  ...5..m....5....
0770: 02 00 10 01 80 00 93 07  24 4C 80 00 80 0B 80 25  ........$L.....%
0780: 02 00 10 0B 80 00 8B 07  01 90 07 03 01 10 35 80  ..............5.
0790: 01 F5 07 02 00 10 0E 80  00 A1 07 1A 71 0A 01 F5  ............q...
07A0: 07 02 00 10 0D 80 00 C4  07 24 4D 80 00 80 0B 80  .........$M.....
07B0: 25 02 00 10 0B 80 00 BC  07 01 C1 07 03 01 10 35  %..............5
07C0: 80 01 F5 07 02 00 10 14  80 00 E7 07 24 4E 80 00  ............$N..
07D0: 80 0B 80 25 02 00 10 0B  80 00 DF 07 01 E4 07 03  ...%............
07E0: 01 10 35 80 01 F5 07 02  00 10 24 80 00 F5 07 1A  ..5.......$.....
07F0: 8B 0A 01 F5 07 01 36 09  02 2C 00 0E 80 80 06 08  ......6..,......
0800: 01 0E 08 01 36 09 02 2C  00 0D 80 80 B2 08 06 01  ....6..,........
0810: 00 3E 20 00 00 80 1B 08  01 22 08 3C 01 00 0E 80  .> ......".<....
0820: 00 80 02 1F 00 01 80 00  3C 08 3C 01 00 00 80 00  ........<.<.....
0830: 80 3C 01 00 01 80 00 80  1D 4F 80 23 24 50 80 0B  .<.......O.#$P..
0840: 80 01 00 25 40 47 80 48  80 01 10 00 10 02 00 10  ...%@G.H........
0850: 00 80 00 70 08 24 51 80  00 80 0B 80 25 02 00 10  ...p.$Q.....%...
0860: 0B 80 00 68 08 01 6D 08  03 01 10 35 80 01 AF 08  ...h..m....5....
0870: 02 00 10 01 80 00 93 08  24 52 80 00 80 0B 80 25  ........$R.....%
0880: 02 00 10 0B 80 00 8B 08  01 90 08 03 01 10 35 80  ..............5.
0890: 01 AF 08 02 00 10 0E 80  00 A1 08 1A 71 0A 01 AF  ............q...
08A0: 08 02 00 10 0D 80 00 AF  08 1A 8B 0A 01 AF 08 01  ................
08B0: 36 09 02 2C 00 24 80 80  21 09 06 01 00 3E 20 00  6..,.$..!....> .
08C0: 00 80 C7 08 01 CE 08 3C  01 00 01 80 00 80 24 53  .......<......$S
08D0: 80 0B 80 01 00 25 40 47  80 48 80 01 10 00 10 02  .....%@G.H......
08E0: 00 10 00 80 00 02 09 24  54 80 00 80 0B 80 25 02  .......$T.....%.
08F0: 00 10 0B 80 00 FA 08 01  FF 08 03 01 10 35 80 01  .............5..
0900: 1E 09 02 00 10 01 80 00  10 09 1A 71 0A 01 1E 09  ...........q....
0910: 02 00 10 0E 80 00 1E 09  1A 8B 0A 01 1E 09 01 36  ...............6
0920: 09 02 2C 00 00 80 80 36  09 43 00 43 01 1A 08 1B  ..,....6.C.C....
0930: 1A 8B 0A 01 36 09 1A 78  06 21 00 20 01 3E 20 00  ....6..x.!. .> .
0940: 0B 80 70 0A 02 2D 00 0B  80 00 70 0A 03 02 10 0B  ..p..-....p.....
0950: 00 02 2C 00 01 80 01 6E  09 02 0B 00 0B 80 04 6E  ..,....n.......n
0960: 09 02 0B 00 00 80 05 6E  09 03 02 10 0D 80 06 00  .......n........
0970: 00 02 0B 00 00 80 05 81  09 03 00 00 3D 80 01 A5  ............=...
0980: 09 02 0B 00 0E 80 00 A0  09 3E 26 00 00 80 98 09  .........>&.....
0990: 03 00 00 55 80 01 9D 09  03 00 00 56 80 01 A5 09  ...U.......V....
09A0: 03 00 00 57 80 02 00 00  56 80 01 70 0A 02 1F 00  ...W....V..p....
09B0: 0B 80 00 0C 0A 02 25 00  0E 80 80 C5 09 03 03 10  ......%.........
09C0: 26 80 01 08 0A 02 25 00  0D 80 80 D5 09 03 03 10  &.....%.........
09D0: 58 80 01 08 0A 02 25 00  14 80 80 E5 09 03 03 10  X.....%.........
09E0: 59 80 01 08 0A 02 25 00  24 80 80 F5 09 03 03 10  Y.....%.$.......
09F0: 27 80 01 08 0A 02 25 00  55 80 80 05 0A 03 03 10  '.....%.U.......
0A00: 5A 80 01 08 0A 06 03 10  1D 5B 80 23 24 5C 80 0D  Z........[.#$\..
0A10: 80 00 00 25 02 00 10 0D  80 00 1F 0A 01 70 0A 40  ...%.........p.@
0A20: 0B 80 56 80 01 10 00 10  43 00 43 01 02 02 10 01  ..V.....C.C.....
0A30: 80 80 43 0A 03 02 10 01  10 1D 5D 80 23 01 3B 09  ..C.......].#.;.
0A40: 01 70 0A 02 02 10 0E 80  80 52 0A 1D 5E 80 23 01  .p.......R..^.#.
0A50: 70 0A 02 02 10 0D 80 80  61 0A 1D 5F 80 23 01 70  p.......a.._.#.p
0A60: 0A 02 02 10 14 80 80 70  0A 1D 60 80 23 01 70 0A  .......p..`.#.p.
0A70: 1B 24 61 80 00 80 0B 80  25 02 00 10 0B 80 00 85  .$a.....%.......
0A80: 0A 42 01 8A 0A 03 01 10  35 80 1B 02 04 00 20 80  .B......5..... .
0A90: 05 92 0B 3E 1E 00 00 80  A0 0A 05 03 10 01 A3 0A  ...>............
0AA0: 06 03 10 3E 1E 00 01 80  B0 0A 05 04 10 01 B3 0A  ...>............
0AB0: 06 04 10 3E 1E 00 0E 80  C0 0A 05 05 10 01 C3 0A  ...>............
0AC0: 06 05 10 3E 1E 00 0D 80  D0 0A 05 06 10 01 D3 0A  ...>............
0AD0: 06 06 10 3E 1E 00 14 80  E0 0A 05 07 10 01 E3 0A  ...>............
0AE0: 06 07 10 3E 1E 00 24 80  F0 0A 05 08 10 01 F3 0A  ...>..$.........
0AF0: 06 08 10 3E 1E 00 55 80  00 0B 05 09 10 01 03 0B  ...>..U.........
0B00: 06 09 10 3E 1E 00 62 80  10 0B 05 00 17 01 13 0B  ...>..b.........
0B10: 06 00 17 3E 1E 00 57 80  20 0B 05 01 17 01 23 0B  ...>..W. .....#.
0B20: 06 01 17 03 03 17 0B 00  03 04 17 0C 00 03 05 17  ................
0B30: 0D 00 03 06 17 0E 00 03  07 17 1C 00 03 08 17 1D  ................
0B40: 00 03 09 17 10 00 03 0A  17 0F 00 03 14 17 25 00  ..............%.
0B50: 03 0B 17 29 00 06 01 00  3C 01 00 0D 80 00 80 24  ...)....<......$
0B60: 63 80 04 00 01 00 25 03  04 00 00 10 03 0A 00 00  c.....%.........
0B70: 10 02 00 10 0B 80 00 7C  0B 01 8F 0B 02 00 10 20  .......|....... 
0B80: 80 00 8F 0B 03 04 00 64  80 01 8B 0A 01 8F 0B 01  .......d........
0B90: CF 0C 06 02 10 02 13 00  0B 80 01 A0 0B 05 02 10  ................
0BA0: 3E 1E 00 65 80 AD 0B 05  03 10 01 B0 0B 06 03 10  >..e............
0BB0: 3E 1E 00 66 80 BD 0B 05  04 10 01 C0 0B 06 04 10  >..f............
0BC0: 3E 1E 00 3D 80 CD 0B 05  05 10 01 D0 0B 06 05 10  >..=............
0BD0: 3E 1E 00 56 80 DD 0B 05  06 10 01 E0 0B 06 06 10  >..V............
0BE0: 3E 1E 00 47 80 ED 0B 05  07 10 01 F0 0B 06 07 10  >..G............
0BF0: 3E 1E 00 48 80 FD 0B 05  08 10 01 00 0C 06 08 10  >..H............
0C00: 3E 1E 00 67 80 0D 0C 05  09 10 01 10 0C 06 09 10  >..g............
0C10: 3E 1E 00 68 80 1D 0C 05  00 17 01 20 0C 06 00 17  >..h....... ....
0C20: 03 03 17 11 00 03 04 17  12 00 03 05 17 13 00 0B  ................
0C30: 05 17 03 06 17 14 00 03  07 17 18 00 03 08 17 37  ...............7
0C40: 00 03 09 17 3A 00 03 0A  17 39 00 03 01 00 69 80  ....:....9....i.
0C50: 02 2B 00 01 80 01 6D 0C  3C 01 00 6A 80 00 80 3C  .+....m.<..j...<
0C60: 01 00 6B 80 00 80 3C 01  00 2C 80 00 80 02 1F 00  ..k...<..,......
0C70: 0B 80 00 86 0C 3C 01 00  66 80 00 80 3C 01 00 3D  .....<..f...<..=
0C80: 80 00 80 01 AA 0C 3C 01  00 56 80 00 80 02 2C 00  ......<..V....,.
0C90: 01 80 04 AA 0C 3C 01 00  6A 80 00 80 3C 01 00 6B  .....<..j...<..k
0CA0: 80 00 80 3C 01 00 2C 80  00 80 24 6C 80 04 00 01  ...<..,...$l....
0CB0: 00 25 03 04 00 00 10 03  0A 00 00 10 02 00 10 64  .%.............d
0CC0: 80 00 CF 0C 03 04 00 20  80 01 8B 0A 01 CF 0C 02  ....... ........
0CD0: 1F 00 0B 80 00 1B 0D 02  2C 00 01 80 00 13 0D 02  ........,.......
0CE0: 2D 00 0B 80 00 EF 0C 03  2B 00 0B 80 01 10 0D 03  -.......+.......
0CF0: 2B 00 00 80 3E 1E 00 0A  00 03 0D 03 2B 00 0B 80  +...>.......+...
0D00: 01 10 0D 02 28 00 00 80  00 10 0D 03 2B 00 0B 80  ....(.......+...
0D10: 01 18 0D 03 2B 00 0B 80  01 28 0D 02 2C 00 00 80  ....+....(..,...
0D20: 01 28 0D 03 2B 00 0B 80  02 04 00 00 80 80 9E 0D  .(..+...........
0D30: 03 01 00 0B 00 07 01 00  01 80 1A BD 16 24 6D 80  .............$m.
0D40: 01 00 02 00 25 02 00 10  0B 80 00 50 0D 01 98 0D  ....%......P....
0D50: 02 00 10 00 80 00 82 0D  1D 6E 80 23 02 1F 00 0B  .........n.#....
0D60: 80 00 6B 0D 1D 6F 80 23  01 6F 0D 1D 70 80 23 1D  ..k..o.#.o..p.#.
0D70: 71 80 23 1D 72 80 23 1D  73 80 23 1D 74 80 23 01  q.#.r.#.s.#.t.#.
0D80: 98 0D 08 00 10 01 80 02  00 10 0B 00 01 95 0D 1A  ................
0D90: EF 16 01 98 0D 1A 3D 17  01 8B 0A 01 BC 16 02 04  ......=.........
0DA0: 00 01 80 80 F1 0D 03 01  00 0C 00 07 01 00 01 80  ................
0DB0: 1A BD 16 24 75 80 01 00  02 00 25 02 00 10 0B 80  ...$u.....%.....
0DC0: 00 C6 0D 01 EB 0D 02 00  10 00 80 00 D5 0D 1D 76  ...............v
0DD0: 80 23 01 EB 0D 08 00 10  01 80 02 00 10 0C 00 01  .#..............
0DE0: E8 0D 1A EF 16 01 EB 0D  1A 3D 17 01 8B 0A 01 BC  .........=......
0DF0: 16 02 04 00 0E 80 80 44  0E 03 01 00 0D 00 07 01  .......D........
0E00: 00 01 80 1A BD 16 24 77  80 01 00 02 00 25 02 00  ......$w.....%..
0E10: 10 0B 80 00 19 0E 01 3E  0E 02 00 10 00 80 00 28  .......>.......(
0E20: 0E 1D 78 80 23 01 3E 0E  08 00 10 01 80 02 00 10  ..x.#.>.........
0E30: 0D 00 01 3B 0E 1A EF 16  01 3E 0E 1A 3D 17 01 8B  ...;.....>..=...
0E40: 0A 01 BC 16 02 04 00 0D  80 80 4F 0E 01 BC 16 02  ..........O.....
0E50: 04 00 14 80 80 A6 0E 03  01 00 1C 00 07 01 00 01  ................
0E60: 80 1A BD 16 24 79 80 01  00 02 00 25 02 00 10 0B  ....$y.....%....
0E70: 80 00 77 0E 01 A0 0E 02  00 10 00 80 00 8A 0E 1D  ..w.............
0E80: 7A 80 23 1D 7B 80 23 01  A0 0E 08 00 10 01 80 02  z.#.{.#.........
0E90: 00 10 1C 00 01 9D 0E 1A  EF 16 01 A0 0E 1A 3D 17  ..............=.
0EA0: 01 8B 0A 01 BC 16 02 04  00 24 80 80 F9 0E 03 01  .........$......
0EB0: 00 1D 00 07 01 00 01 80  1A BD 16 24 7C 80 01 00  ...........$|...
0EC0: 02 00 25 02 00 10 0B 80  00 CE 0E 01 F3 0E 02 00  ..%.............
0ED0: 10 00 80 00 DD 0E 1D 7D  80 23 01 F3 0E 08 00 10  .......}.#......
0EE0: 01 80 02 00 10 1D 00 01  F0 0E 1A EF 16 01 F3 0E  ................
0EF0: 1A 3D 17 01 8B 0A 01 BC  16 02 04 00 55 80 80 4C  .=..........U..L
0F00: 0F 03 01 00 10 00 07 01  00 01 80 1A BD 16 24 7E  ..............$~
0F10: 80 01 00 02 00 25 02 00  10 0B 80 00 21 0F 01 46  .....%......!..F
0F20: 0F 02 00 10 00 80 00 30  0F 1D 7F 80 23 01 46 0F  .......0....#.F.
0F30: 08 00 10 01 80 02 00 10  10 00 01 43 0F 1A EF 16  ...........C....
0F40: 01 46 0F 1A 3D 17 01 8B  0A 01 BC 16 02 04 00 62  .F..=..........b
0F50: 80 80 FC 0F 03 01 00 0F  00 07 01 00 01 80 06 02  ................
0F60: 00 02 25 00 24 80 05 BB  0F 3C 02 00 62 80 00 80  ..%.$....<..b...
0F70: 02 25 00 14 80 05 BB 0F  3C 02 00 55 80 00 80 02  .%......<..U....
0F80: 25 00 0D 80 05 BB 0F 3C  02 00 24 80 00 80 02 25  %......<..$....%
0F90: 00 0E 80 05 BB 0F 3C 02  00 14 80 00 80 02 25 00  ......<.......%.
0FA0: 01 80 05 BB 0F 3C 02 00  0D 80 00 80 02 25 00 00  .....<.......%..
0FB0: 80 05 BB 0F 3C 02 00 0E  80 00 80 1A BD 16 24 80  ....<.........$.
0FC0: 80 01 00 02 00 25 02 00  10 0B 80 00 D1 0F 01 F6  .....%..........
0FD0: 0F 02 00 10 00 80 00 E0  0F 1D 81 80 23 01 F6 0F  ............#...
0FE0: 08 00 10 01 80 02 00 10  0F 00 01 F3 0F 1A EF 16  ................
0FF0: 01 F6 0F 1A 3D 17 01 8B  0A 01 BC 16 02 04 00 57  ....=..........W
1000: 80 80 7E 10 03 01 00 29  00 07 01 00 01 80 1A BD  ..~....)........
1010: 16 3C 02 00 14 80 00 80  24 82 80 01 00 02 00 25  .<......$......%
1020: 02 00 10 0B 80 00 2B 10  01 78 10 02 00 10 00 80  ......+..x......
1030: 00 62 10 03 03 00 29 00  0B 03 00 24 83 80 03 00  .b....)....$....
1040: 3F 80 25 02 00 10 0B 80  00 4E 10 01 5F 10 03 03  ?.%......N.._...
1050: 00 00 10 0C 03 00 1A 4D  17 0B 03 00 01 3B 10 01  .......M.....;..
1060: 78 10 08 00 10 01 80 02  00 10 29 00 01 75 10 1A  x.........)..u..
1070: EF 16 01 78 10 1A 3D 17  01 8B 0A 01 BC 16 02 04  ...x..=.........
1080: 00 65 80 80 D1 10 03 01  00 11 00 07 01 00 01 80  .e..............
1090: 1A BD 16 24 84 80 01 00  02 00 25 02 00 10 0B 80  ...$......%.....
10A0: 00 A6 10 01 CB 10 02 00  10 00 80 00 B5 10 1D 85  ................
10B0: 80 23 01 CB 10 08 00 10  01 80 02 00 10 11 00 01  .#..............
10C0: C8 10 1A EF 16 01 CB 10  1A 3D 17 01 8B 0A 01 BC  .........=......
10D0: 16 02 04 00 66 80 80 32  11 03 01 00 12 00 07 01  ....f..2........
10E0: 00 01 80 06 02 10 02 13  00 0B 80 01 F1 10 05 02  ................
10F0: 10 1A BD 16 24 86 80 01  00 02 00 25 02 00 10 0B  ....$......%....
1100: 80 00 07 11 01 2C 11 02  00 10 00 80 00 16 11 1D  .....,..........
1110: 87 80 23 01 2C 11 08 00  10 01 80 02 00 10 12 00  ..#.,...........
1120: 01 29 11 1A EF 16 01 2C  11 1A 3D 17 01 8B 0A 01  .).....,..=.....
1130: BC 16 02 04 00 3D 80 80  85 11 03 01 00 13 00 07  .....=..........
1140: 01 00 01 80 1A BD 16 24  88 80 01 00 02 00 25 02  .......$......%.
1150: 00 10 0B 80 00 5A 11 01  7F 11 02 00 10 00 80 00  .....Z..........
1160: 69 11 1D 89 80 23 01 7F  11 08 00 10 01 80 02 00  i....#..........
1170: 10 13 00 01 7C 11 1A EF  16 01 7F 11 1A 3D 17 01  ....|........=..
1180: 8B 0A 01 BC 16 02 04 00  56 80 80 29 12 03 01 00  ........V..)....
1190: 14 00 07 01 00 01 80 1A  BD 16 83 00 00 3F 00 00  .............?..
11A0: 00 00 13 80 02 00 00 18  80 04 BD 11 3C 02 00 01  ............<...
11B0: 80 00 80 3C 02 00 0E 80  00 80 01 EB 11 02 00 00  ...<............
11C0: 19 80 04 D6 11 3C 02 00  01 80 00 80 3C 02 00 0E  .....<......<...
11D0: 80 00 80 01 EB 11 3C 02  00 0D 80 00 80 3C 02 00  ......<......<..
11E0: 14 80 00 80 3C 02 00 24  80 00 80 24 8A 80 01 00  ....<..$...$....
11F0: 02 00 25 02 00 10 0B 80  00 FE 11 01 23 12 02 00  ..%.........#...
1200: 10 00 80 00 0D 12 1D 8B  80 23 01 23 12 08 00 10  .........#.#....
1210: 01 80 02 00 10 14 00 01  20 12 1A EF 16 01 23 12  ........ .....#.
1220: 1A 3D 17 01 8B 0A 01 BC  16 02 04 00 3F 80 80 8F  .=..........?...
1230: 13 3E 1E 00 8C 80 3E 12  05 02 10 01 41 12 06 02  .>....>.....A...
1240: 10 3E 1E 00 8D 80 4E 12  05 03 10 01 51 12 06 03  .>....N.....Q...
1250: 10 3E 1E 00 40 80 5E 12  05 04 10 01 61 12 06 04  .>..@.^.....a...
1260: 10 03 02 17 15 00 03 03  17 16 00 03 04 17 17 00  ................
1270: 24 8E 80 05 00 0B 80 25  03 05 00 00 10 02 00 10  $......%........
1280: 0B 80 00 8B 12 01 8B 0A  01 8B 12 03 0A 00 04 00  ................
1290: 07 0A 00 00 10 02 0A 00  8C 80 80 E9 12 03 01 00  ................
12A0: 15 00 07 01 00 01 80 1A  BD 16 24 8F 80 01 00 02  ..........$.....
12B0: 00 25 02 00 10 0B 80 00  BD 12 01 E6 12 02 00 10  .%..............
12C0: 00 80 00 D0 12 1D 90 80  23 1D 91 80 23 01 E6 12  ........#...#...
12D0: 08 00 10 01 80 02 00 10  15 00 01 E3 12 1A EF 16  ................
12E0: 01 E6 12 1A 3D 17 01 89  13 02 0A 00 8D 80 80 39  ....=..........9
12F0: 13 03 01 00 16 00 07 01  00 01 80 1A BD 16 24 92  ..............$.
1300: 80 01 00 02 00 25 02 00  10 0B 80 00 11 13 01 36  .....%.........6
1310: 13 02 00 10 00 80 00 20  13 1D 93 80 23 01 36 13  ....... ....#.6.
1320: 08 00 10 01 80 02 00 10  16 00 01 33 13 1A EF 16  ...........3....
1330: 01 36 13 1A 3D 17 01 89  13 02 0A 00 40 80 80 89  .6..=.......@...
1340: 13 03 01 00 17 00 07 01  00 01 80 1A BD 16 24 94  ..............$.
1350: 80 01 00 02 00 25 02 00  10 0B 80 00 61 13 01 86  .....%......a...
1360: 13 02 00 10 00 80 00 70  13 1D 95 80 23 01 86 13  .......p....#...
1370: 08 00 10 01 80 02 00 10  17 00 01 83 13 1A EF 16  ................
1380: 01 86 13 1A 3D 17 01 89  13 01 31 12 01 BC 16 02  ....=.....1.....
1390: 04 00 47 80 80 E2 13 03  01 00 18 00 07 01 00 01  ..G.............
13A0: 80 1A BD 16 24 96 80 01  00 02 00 25 02 00 10 0B  ....$......%....
13B0: 80 00 B7 13 01 DC 13 02  00 10 00 80 00 C6 13 1D  ................
13C0: 97 80 23 01 DC 13 08 00  10 01 80 02 00 10 18 00  ..#.............
13D0: 01 D9 13 1A EF 16 01 DC  13 1A 3D 17 01 8B 0A 01  ..........=.....
13E0: BC 16 02 04 00 98 80 80  44 15 3E 1E 00 99 80 F7  ........D.>.....
13F0: 13 05 02 10 01 FA 13 06  02 10 3E 1E 00 9A 80 07  ..........>.....
1400: 14 05 03 10 01 0A 14 06  03 10 3E 1E 00 9B 80 17  ..........>.....
1410: 14 05 04 10 01 1A 14 06  04 10 03 02 17 19 00 03  ................
1420: 03 17 1A 00 03 04 17 1B  00 24 9C 80 05 00 0B 80  .........$......
1430: 25 03 05 00 00 10 02 00  10 0B 80 00 44 14 01 8B  %...........D...
1440: 0A 01 44 14 03 0A 00 04  00 07 0A 00 00 10 02 0A  ..D.............
1450: 00 99 80 80 9E 14 03 01  00 19 00 07 01 00 01 80  ................
1460: 1A BD 16 24 9D 80 01 00  02 00 25 02 00 10 0B 80  ...$......%.....
1470: 00 76 14 01 9B 14 02 00  10 00 80 00 85 14 1D 9E  .v..............
1480: 80 23 01 9B 14 08 00 10  01 80 02 00 10 19 00 01  .#..............
1490: 98 14 1A EF 16 01 9B 14  1A 3D 17 01 3E 15 02 0A  .........=..>...
14A0: 00 9A 80 80 EE 14 03 01  00 1A 00 07 01 00 01 80  ................
14B0: 1A BD 16 24 9F 80 01 00  02 00 25 02 00 10 0B 80  ...$......%.....
14C0: 00 C6 14 01 EB 14 02 00  10 00 80 00 D5 14 1D A0  ................
14D0: 80 23 01 EB 14 08 00 10  01 80 02 00 10 1A 00 01  .#..............
14E0: E8 14 1A EF 16 01 EB 14  1A 3D 17 01 3E 15 02 0A  .........=..>...
14F0: 00 9B 80 80 3E 15 03 01  00 1B 00 07 01 00 01 80  ....>...........
1500: 1A BD 16 24 A1 80 01 00  02 00 25 02 00 10 0B 80  ...$......%.....
1510: 00 16 15 01 3B 15 02 00  10 00 80 00 25 15 1D A2  ....;.......%...
1520: 80 23 01 3B 15 08 00 10  01 80 02 00 10 1B 00 01  .#.;............
1530: 38 15 1A EF 16 01 3B 15  1A 3D 17 01 3E 15 01 EA  8.....;..=..>...
1540: 13 01 BC 16 02 04 00 48  80 80 97 15 03 01 00 37  .......H.......7
1550: 00 07 01 00 01 80 1A BD  16 24 A3 80 01 00 02 00  .........$......
1560: 25 02 00 10 0B 80 00 6C  15 01 91 15 02 00 10 00  %......l........
1570: 80 00 7B 15 1D A4 80 23  01 91 15 08 00 10 01 80  ..{....#........
1580: 02 00 10 37 00 01 8E 15  1A EF 16 01 91 15 1A 3D  ...7...........=
1590: 17 01 8B 0A 01 BC 16 02  04 00 67 80 80 EA 15 03  ..........g.....
15A0: 01 00 3A 00 07 01 00 01  80 1A BD 16 24 A5 80 01  ..:.........$...
15B0: 00 02 00 25 02 00 10 0B  80 00 BF 15 01 E4 15 02  ...%............
15C0: 00 10 00 80 00 CE 15 1D  A6 80 23 01 E4 15 08 00  ..........#.....
15D0: 10 01 80 02 00 10 3A 00  01 E1 15 1A EF 16 01 E4  ......:.........
15E0: 15 1A 3D 17 01 8B 0A 01  BC 16 02 04 00 68 80 80  ..=..........h..
15F0: 45 16 03 01 00 39 00 07  01 00 01 80 1A BD 16 24  E....9.........$
1600: A7 80 01 00 02 00 25 02  00 10 0B 80 00 12 16 01  ......%.........
1610: 3F 16 02 00 10 00 80 00  29 16 1D A8 80 23 1D A9  ?.......)....#..
1620: 80 23 1D AA 80 23 01 3F  16 08 00 10 01 80 02 00  .#...#.?........
1630: 10 39 00 01 3C 16 1A EF  16 01 3F 16 1A 3D 17 01  .9..<.....?..=..
1640: 8B 0A 01 BC 16 02 04 00  6A 80 80 69 16 24 AB 80  ........j..i.$..
1650: 00 80 0B 80 25 02 00 10  0B 80 00 63 16 1A EF 16  ....%......c....
1660: 01 63 16 01 8B 0A 01 BC  16 02 04 00 6B 80 80 8D  .c..........k...
1670: 16 24 AC 80 00 80 0B 80  25 02 00 10 0B 80 00 87  .$......%.......
1680: 16 1A EF 16 01 87 16 01  8B 0A 01 BC 16 02 04 00  ................
1690: 2C 80 80 BC 16 03 01 00  00 10 24 AD 80 00 80 0B  ,.........$.....
16A0: 80 25 02 00 10 0B 80 00  B6 16 40 47 80 48 80 01  .%........@G.H..
16B0: 10 01 00 01 B9 16 01 8B  0A 01 BC 16 1B 06 02 00  ................
16C0: 3E 1E 00 0A 00 D1 16 05  02 00 1D AE 80 23 01 DC  >............#..
16D0: 16 02 2B 00 0B 80 00 DC  16 05 02 00 02 02 00 00  ..+.............
16E0: 80 00 EE 16 03 01 00 0B  80 03 02 00 AF 80 1B 03  ................
16F0: 03 00 00 10 06 00 00 02  2B 00 01 80 00 05 17 05  ........+.......
1700: 00 00 01 1B 17 24 B0 80  00 80 0B 80 25 02 00 10  .....$......%...
1710: 0B 80 00 1B 17 05 00 00  01 1B 17 02 00 00 00 80  ................
1720: 00 3C 17 40 47 80 48 80  01 10 0A 00 40 0B 80 56  .<.@G.H.....@..V
1730: 80 01 10 03 00 43 00 43  01 1A 08 1B 1B 02 1F 00  .....C.C........
1740: 0B 80 00 4C 17 1D B1 80  23 1A EF 16 1B 42 1D B2  ...L....#....B..
1750: 80 23 02 03 00 0B 80 80  70 18 8D B3 80 01 80 B8  .#......p.......
1760: B3 80 01 80 0B 80 B4 80  B5 80 57 5F 31 00 00 00  ..........W_1...
1770: 00 00 00 00 00 00 00 00  00 00 B8 B3 80 01 80 00  ................
1780: 80 B6 80 B7 80 57 5F 32  00 00 00 00 00 00 00 00  .....W_2........
1790: 00 00 00 00 00 B8 B3 80  01 80 01 80 B8 80 B9 80  ................
17A0: 57 5F 33 00 00 00 00 00  00 00 00 00 00 00 00 00  W_3.............
17B0: B8 B3 80 01 80 0E 80 BA  80 BB 80 57 5F 34 00 00  ...........W_4..
17C0: 00 00 00 00 00 00 00 00  00 00 00 B8 B3 80 01 80  ................
17D0: 0D 80 BC 80 B5 80 47 5F  31 00 00 00 00 00 00 00  ......G_1.......
17E0: 00 00 00 00 00 00 B8 B3  80 01 80 14 80 BD 80 BE  ................
17F0: 80 47 5F 32 00 00 00 00  00 00 00 00 00 00 00 00  .G_2............
1800: 00 B8 B3 80 01 80 24 80  BF 80 C0 80 47 5F 33 00  ......$.....G_3.
1810: 00 00 00 00 00 00 00 00  00 00 00 00 B8 B3 80 01  ................
1820: 80 55 80 C1 80 C2 80 47  5F 34 00 00 00 00 00 00  .U.....G_4......
1830: 00 00 00 00 00 00 00 B8  B3 80 01 80 62 80 C3 80  ............b...
1840: C4 80 57 5F 43 61 6D 70  00 00 00 00 00 00 00 00  ..W_Camp........
1850: 00 00 B8 B3 80 01 80 57  80 C5 80 C6 80 47 5F 43  .......W.....G_C
1860: 61 6D 70 00 00 00 00 00  00 00 00 00 00 01 AC 1A  amp.............
1870: 02 03 00 00 80 80 8E 19  8D B3 80 01 80 B8 B3 80  ................
1880: 01 80 0B 80 C7 80 C8 80  57 5F 31 00 00 00 00 00  ........W_1.....
1890: 00 00 00 00 00 00 00 00  B8 B3 80 01 80 00 80 C9  ................
18A0: 80 CA 80 57 5F 32 00 00  00 00 00 00 00 00 00 00  ...W_2..........
18B0: 00 00 00 B8 B3 80 01 80  01 80 CB 80 CC 80 57 5F  ..............W_
18C0: 33 00 00 00 00 00 00 00  00 00 00 00 00 00 B8 B3  3...............
18D0: 80 01 80 0E 80 CD 80 CE  80 57 5F 34 00 00 00 00  .........W_4....
18E0: 00 00 00 00 00 00 00 00  00 B8 B3 80 01 80 0D 80  ................
18F0: CF 80 C8 80 47 5F 31 00  00 00 00 00 00 00 00 00  ....G_1.........
1900: 00 00 00 00 B8 B3 80 01  80 14 80 D0 80 D1 80 47  ...............G
1910: 5F 32 00 00 00 00 00 00  00 00 00 00 00 00 00 B8  _2..............
1920: B3 80 01 80 24 80 D2 80  D3 80 47 5F 33 00 00 00  ....$.....G_3...
1930: 00 00 00 00 00 00 00 00  00 00 B8 B3 80 01 80 55  ...............U
1940: 80 D4 80 D5 80 47 5F 34  00 00 00 00 00 00 00 00  .....G_4........
1950: 00 00 00 00 00 B8 B3 80  01 80 62 80 D6 80 D7 80  ..........b.....
1960: 57 5F 43 61 6D 70 00 00  00 00 00 00 00 00 00 00  W_Camp..........
1970: B8 B3 80 01 80 57 80 D8  80 D9 80 47 5F 43 61 6D  .....W.....G_Cam
1980: 70 00 00 00 00 00 00 00  00 00 00 01 AC 1A 02 03  p...............
1990: 00 01 80 80 AC 1A 8D B3  80 01 80 B8 B3 80 01 80  ................
19A0: 0B 80 C7 80 C8 80 57 5F  31 00 00 00 00 00 00 00  ......W_1.......
19B0: 00 00 00 00 00 00 B8 B3  80 01 80 00 80 CB 80 CC  ................
19C0: 80 57 5F 32 00 00 00 00  00 00 00 00 00 00 00 00  .W_2............
19D0: 00 B8 B3 80 01 80 01 80  DA 80 DB 80 57 5F 43 61  ............W_Ca
19E0: 6D 70 00 00 00 00 00 00  00 00 00 00 B8 B3 80 01  mp..............
19F0: 80 0E 80 CF 80 C8 80 47  5F 31 00 00 00 00 00 00  .......G_1......
1A00: 00 00 00 00 00 00 00 B8  B3 80 01 80 0D 80 D2 80  ................
1A10: D3 80 47 5F 32 00 00 00  00 00 00 00 00 00 00 00  ..G_2...........
1A20: 00 00 B8 B3 80 01 80 14  80 DC 80 DD 80 47 5F 43  .............G_C
1A30: 61 6D 70 00 00 00 00 00  00 00 00 00 00 B8 B3 80  amp.............
1A40: 01 80 24 80 C7 80 C8 80  00 00 00 00 00 00 00 00  ..$.............
1A50: 00 00 00 00 00 00 00 00  B8 B3 80 01 80 55 80 C7  .............U..
1A60: 80 C8 80 00 00 00 00 00  00 00 00 00 00 00 00 00  ................
1A70: 00 00 00 B8 B3 80 01 80  62 80 C7 80 C8 80 00 00  ........b.......
1A80: 00 00 00 00 00 00 00 00  00 00 00 00 00 00 B8 B3  ................
1A90: 80 01 80 57 80 C7 80 C8  80 00 00 00 00 00 00 00  ...W............
1AA0: 00 00 00 00 00 00 00 00  00 01 AC 1A 03 02 10 03  ................
1AB0: 00 1D DE 80 23 8A B9 00  B3 80 01 80 0B 80 B9 00  ....#...........
1AC0: B3 80 01 80 00 80 B9 00  B3 80 01 80 01 80 B9 00  ................
1AD0: B3 80 01 80 0E 80 B9 00  B3 80 01 80 0D 80 B9 00  ................
1AE0: B3 80 01 80 14 80 B9 00  B3 80 01 80 24 80 B9 00  ............$...
1AF0: B3 80 01 80 55 80 B9 00  B3 80 01 80 62 80 B9 00  ....U.......b...
1B00: B3 80 01 80 57 80 2E 1B  41 0B 80 01 80 02 10 2C  ....W...A......,
1B10: 00 41 0E 80 0D 80 02 10  1F 00 41 14 80 14 80 02  .A........A.....
1B20: 10 22 00 41 24 80 24 80  02 10 23 00 41 55 80 55  .".A$.$...#.AU.U
1B30: 80 02 10 24 00 41 62 80  20 80 02 10 25 00 41 64  ...$.Ab. ...%.Ad
1B40: 80 64 80 02 10 2A 00 41  65 80 65 80 02 10 31 00  .d...*.Ae.e...1.
1B50: 41 66 80 3D 80 02 10 34  00 41 56 80 56 80 02 10  Af.=...4.AV.V...
1B60: 35 00 41 3F 80 3F 80 02  10 37 00 41 8C 80 8C 80  5.A?.?...7.A....
1B70: 02 10 3A 00 41 8D 80 8D  80 02 10 39 00 41 0B 80  ..:.A......9.A..
1B80: 0B 80 03 10 2D 00 02 2D  00 0B 80 00 96 1B 03 2E  ....-..-........
1B90: 00 01 80 01 9F 1B 41 00  80 01 80 03 10 2E 00 41  ......A........A
1BA0: 0E 80 0D 80 03 10 20 00  41 14 80 14 80 03 10 21  ...... .A......!
1BB0: 00 41 24 80 64 80 03 10  26 00 41 66 80 3D 80 03  .A$.d...&.Af.=..
1BC0: 10 27 00 41 56 80 56 80  03 10 28 00 41 3F 80 3F  .'.AV.V...(.A?.?
1BD0: 80 03 10 32 00 41 8C 80  8C 80 03 10 36 00 03 38  ...2.A......6..8
1BE0: 00 04 10 41 0B 80 0B 80  05 10 1C 00 41 00 80 00  ...A........A...
1BF0: 80 05 10 1D 00 41 3F 80  9A 80 05 10 08 00 41 9B  .....A?.......A.
1C00: 80 DF 80 05 10 09 00 41  0B 80 00 80 06 10 0B 00  .......A........
1C10: 41 01 80 01 80 06 10 0C  00 41 0E 80 0E 80 06 10  A........A......
1C20: 0D 00 41 0D 80 24 80 06  10 0F 00 41 55 80 55 80  ..A..$.....AU.U.
1C30: 06 10 10 00 41 62 80 57  80 06 10 11 00 41 20 80  ....Ab.W.....A .
1C40: 65 80 06 10 12 00 41 66  80 3D 80 06 10 13 00 02  e.....Af.=......
1C50: 12 00 0E 80 00 64 1C 02  13 00 0B 80 00 64 1C 03  .....d.......d..
1C60: 14 00 0B 80 02 12 00 00  80 00 79 1C 02 13 00 00  ..........y.....
1C70: 80 00 79 1C 03 14 00 00  80 02 12 00 0D 80 00 8E  ..y.............
1C80: 1C 02 13 00 0B 80 00 8E  1C 03 14 00 01 80 02 12  ................
1C90: 00 01 80 00 A3 1C 02 13  00 00 80 00 A3 1C 03 14  ................
1CA0: 00 0E 80 02 12 00 00 80  00 B8 1C 02 13 00 01 80  ................
1CB0: 00 B8 1C 03 14 00 0D 80  41 56 80 56 80 06 10 18  ........AV.V....
1CC0: 00 41 3F 80 8D 80 06 10  15 00 41 40 80 98 80 06  .A?.......A@....
1CD0: 10 16 00 41 99 80 9B 80  06 10 17 00 41 48 80 67  ...A........AH.g
1CE0: 80 06 10 19 00 41 68 80  68 80 06 10 1A 00 41 6A  .....Ah.h.....Aj
1CF0: 80 6A 80 06 10 1B 00 41  6B 80 DF 80 06 10 29 00  .j.....Ak.....).
1D00: 03 1E 00 07 10 41 0B 80  56 80 08 10 2F 00 41 3F  .....A..V.../.A?
1D10: 80 DF 80 08 10 30 00 03  33 00 09 10 06 06 00 02  .....0..3.......
1D20: 1F 00 01 80 00 61 1D 02  2C 00 01 80 00 61 1D 06  .....a..,....a..
1D30: 00 00 3E 26 00 0B 80 3E  1D 03 06 00 00 80 3E 26  ..>&...>......>&
1D40: 00 00 80 61 1D 02 2D 00  00 80 00 5C 1D 3E 26 00  ...a..-....\.>&.
1D50: 01 80 59 1D 03 06 00 0E  80 01 61 1D 03 06 00 01  ..Y.......a.....
1D60: 80 1B                                             ..              
```

#### Opcodes

```
  0: 0x069E [0x1E] EventEntity looks at LocalPlayer and starts talking
  1: 0x06A3 [0x6F] WAIT_FRAME_DELAY: Yield until WaitTime reaches zero
  2: 0x06A4 [0x70] WAIT_ENTITY_RENDER_FLAG: Wait while EventEntity->Render.Flags3 bit 2 is set (cancel turn if not)
  3: 0x06A5 [0x06] Work_Zone[1] = 0
  4: 0x06A8 [0x03] ExtData[1]->WorkLocal[43] = 2*
  5: 0x06AD [0x1A] CALL_SUBROUTINE(address=0x1B08)
  6: 0x06B0 [0x1A] CALL_SUBROUTINE(address=0x005E)
  7: 0x06B3 [0x1A] CALL_SUBROUTINE(address=0x0001)
  8: 0x06B6 [0x1A] CALL_SUBROUTINE(address=0x03F5)
  9: 0x06B9 [0x06] ExtData[1]->WorkLocal[1] = 0
 10: 0x06BC [0x40] SET_BIT_WORK_RANGE(start_bit=16*, end_bit=19*, target=Work_Zone[1], source=ExtData[1]->WorkLocal[44])
 11: 0x06C5 [0x02] IF !(ExtData[1]->WorkLocal[44] == 2*) GOTO 0x07F8
 12: 0x06CD [0x06] ExtData[1]->WorkLocal[1] = 0
 13: 0x06D0 [0x3E] IF !(ExtData[1]->WorkLocal[32] bit 1*) GOTO 0x06DA
 14: 0x06D7 [0x01] GOTO 0x06E1
 15: 0x06DA [0x3C] SET_BIT_FLAG_CONDITIONAL(target_work_offset=ExtData[1]->WorkLocal[1], bit_index_work_offset=3*, condition_work_offset=1*)

SUBROUTINE_06E1:
 16: 0x06E1 [0x02] IF !(ExtData[1]->WorkLocal[11] == 0*) GOTO 0x06F0
 17: 0x06E9 [0x3C] SET_BIT_FLAG_CONDITIONAL(target_work_offset=ExtData[1]->WorkLocal[1], bit_index_work_offset=4*, condition_work_offset=1*)
 18: 0x06F0 [0x02] IF !(ExtData[1]->WorkLocal[11] == 1*) GOTO 0x06FF
 19: 0x06F8 [0x3C] SET_BIT_FLAG_CONDITIONAL(target_work_offset=ExtData[1]->WorkLocal[1], bit_index_work_offset=5*, condition_work_offset=1*)
 20: 0x06FF [0x24] CREATE_DIALOG(message_id=7366*, default_option=0*, option_flags=ExtData[1]->WorkLocal[1])
    → "What would you like to do? [Nothing./Start the match./Close entries & return to settings./Cancel own entry./Auto-balance temp. entries./Shuffle temp. entries./View setting menu.]"
 21: 0x0706 [0x25] WAIT_DIALOG_SELECT()
 22: 0x0707 [0x40] SET_BIT_WORK_RANGE(start_bit=20*, end_bit=25*, target=Work_Zone[1], source=Work_Zone[0])
 23: 0x0710 [0x02] IF !(Work_Zone[0] == 1*) GOTO 0x0770
 24: 0x0718 [0x83] Work_Zone[2] = GetGameTime()
 25: 0x071B [0x1A] CALL_SUBROUTINE(address=0x0316)
 26: 0x071E [0x83] ExtData[1]->WorkLocal[0] = GetGameTime()
 27: 0x0721 [0x15] ExtData[1]->WorkLocal[0] /= 7200*
 28: 0x0726 [0x14] ExtData[1]->WorkLocal[0] *= 7200*
 29: 0x072B [0x07] ExtData[1]->WorkLocal[0] += 7200*
 30: 0x0730 [0x02] IF !(Work_Zone[3] < ExtData[1]->WorkLocal[0]) GOTO 0x073C
 31: 0x0738 [0x1D] PRINT_EVENT_MESSAGE(message_id=7367*)
    → "With the current settings, the area reservation will end before the match is over."
 32: 0x073B [0x23] WAIT_FOR_DIALOG_INTERACTION
 33: 0x073C [0x24] CREATE_DIALOG(message_id=7368*, default_option=1*, option_flags=0*)
    → "Do you wish to start the match? [Yes./No.]"
 34: 0x0743 [0x25] WAIT_DIALOG_SELECT()
 35: 0x0744 [0x02] IF !(Work_Zone[0] == 0*) GOTO 0x0768
 36: 0x074C [0x02] IF !(ExtData[1]->WorkLocal[31] == 2*) GOTO 0x0765
 37: 0x0754 [0x02] IF !(ExtData[1]->WorkLocal[39] == 3*) GOTO 0x0765
 38: 0x075C [0x1D] PRINT_EVENT_MESSAGE(message_id=7412*)
    → "Both linkshell leaders have yet to signal their agreement to start the match."
 39: 0x075F [0x23] WAIT_FOR_DIALOG_INTERACTION
 40: 0x0760 [0x03] Work_Zone[1] = 1073741824*
 41: 0x0765 [0x01] GOTO 0x076D
 42: 0x0768 [0x03] Work_Zone[1] = 1073741824*

SUBROUTINE_076D:
 43: 0x076D [0x01] GOTO 0x07F5
 44: 0x0770 [0x02] IF !(Work_Zone[0] == 2*) GOTO 0x0793
 45: 0x0778 [0x24] CREATE_DIALOG(message_id=7369*, default_option=1*, option_flags=0*)
    → "Close entries & return to settings? [Yes./No.]"
 46: 0x077F [0x25] WAIT_DIALOG_SELECT()
 47: 0x0780 [0x02] IF !(Work_Zone[0] == 0*) GOTO 0x078B
 48: 0x0788 [0x01] GOTO 0x0790
 49: 0x078B [0x03] Work_Zone[1] = 1073741824*

SUBROUTINE_0790:
 50: 0x0790 [0x01] GOTO 0x07F5
 51: 0x0793 [0x02] IF !(Work_Zone[0] == 3*) GOTO 0x07A1
 52: 0x079B [0x1A] CALL_SUBROUTINE(address=0x0A71)
 53: 0x079E [0x01] GOTO 0x07F5
 54: 0x07A1 [0x02] IF !(Work_Zone[0] == 4*) GOTO 0x07C4
 55: 0x07A9 [0x24] CREATE_DIALOG(message_id=7371*, default_option=1*, option_flags=0*)
    → "Auto-balance temporary entries? [Yes./No.]"
 56: 0x07B0 [0x25] WAIT_DIALOG_SELECT()
 57: 0x07B1 [0x02] IF !(Work_Zone[0] == 0*) GOTO 0x07BC
 58: 0x07B9 [0x01] GOTO 0x07C1
 59: 0x07BC [0x03] Work_Zone[1] = 1073741824*

SUBROUTINE_07C1:
 60: 0x07C1 [0x01] GOTO 0x07F5
 61: 0x07C4 [0x02] IF !(Work_Zone[0] == 5*) GOTO 0x07E7
 62: 0x07CC [0x24] CREATE_DIALOG(message_id=7373*, default_option=1*, option_flags=0*)
    → "Shuffle temporary entries? [Yes./No.]"
 63: 0x07D3 [0x25] WAIT_DIALOG_SELECT()
 64: 0x07D4 [0x02] IF !(Work_Zone[0] == 0*) GOTO 0x07DF
 65: 0x07DC [0x01] GOTO 0x07E4
 66: 0x07DF [0x03] Work_Zone[1] = 1073741824*

SUBROUTINE_07E4:
 67: 0x07E4 [0x01] GOTO 0x07F5
 68: 0x07E7 [0x02] IF !(Work_Zone[0] == 6*) GOTO 0x07F5
 69: 0x07EF [0x1A] CALL_SUBROUTINE(address=0x0A8B)
 70: 0x07F2 [0x01] GOTO 0x07F5

SUBROUTINE_07F5:
 71: 0x07F5 [0x01] GOTO 0x0936
 72: 0x07F8 [0x02] IF !(ExtData[1]->WorkLocal[44] == 3*) GOTO 0x0806
 73: 0x0800 [0x01] GOTO 0x080E

SUBROUTINE_080E:
 74: 0x080E [0x06] ExtData[1]->WorkLocal[1] = 0
 75: 0x0811 [0x3E] IF !(ExtData[1]->WorkLocal[32] bit 1*) GOTO 0x081B
 76: 0x0818 [0x01] GOTO 0x0822
 77: 0x081B [0x3C] SET_BIT_FLAG_CONDITIONAL(target_work_offset=ExtData[1]->WorkLocal[1], bit_index_work_offset=3*, condition_work_offset=1*)

SUBROUTINE_0822:
 78: 0x0822 [0x02] IF !(ExtData[1]->WorkLocal[31] == 2*) GOTO 0x083C
 79: 0x082A [0x3C] SET_BIT_FLAG_CONDITIONAL(target_work_offset=ExtData[1]->WorkLocal[1], bit_index_work_offset=1*, condition_work_offset=1*)
 80: 0x0831 [0x3C] SET_BIT_FLAG_CONDITIONAL(target_work_offset=ExtData[1]->WorkLocal[1], bit_index_work_offset=2*, condition_work_offset=1*)
 81: 0x0838 [0x1D] PRINT_EVENT_MESSAGE(message_id=7417*)
    → "LS Liga matches cannot be halted by the MC."
 82: 0x083B [0x23] WAIT_FOR_DIALOG_INTERACTION
 83: 0x083C [0x24] CREATE_DIALOG(message_id=7418*, default_option=0*, option_flags=ExtData[1]->WorkLocal[1])
    → "What do you wish to do? [Nothing./Stop match./Cancel match & return to entry./Cancel own entry./View settings menu.]"
 84: 0x0843 [0x25] WAIT_DIALOG_SELECT()
 85: 0x0844 [0x40] SET_BIT_WORK_RANGE(start_bit=20*, end_bit=25*, target=Work_Zone[1], source=Work_Zone[0])
 86: 0x084D [0x02] IF !(Work_Zone[0] == 1*) GOTO 0x0870
 87: 0x0855 [0x24] CREATE_DIALOG(message_id=7419*, default_option=1*, option_flags=0*)
    → "Do you wish to halt the match? [Yes./No.]"
 88: 0x085C [0x25] WAIT_DIALOG_SELECT()
 89: 0x085D [0x02] IF !(Work_Zone[0] == 0*) GOTO 0x0868
 90: 0x0865 [0x01] GOTO 0x086D
 91: 0x0868 [0x03] Work_Zone[1] = 1073741824*

SUBROUTINE_086D:
 92: 0x086D [0x01] GOTO 0x08AF
 93: 0x0870 [0x02] IF !(Work_Zone[0] == 2*) GOTO 0x0893
 94: 0x0878 [0x24] CREATE_DIALOG(message_id=7421*, default_option=1*, option_flags=0*)
    → "Halt the match and return to entries? [Yes./No.]"
 95: 0x087F [0x25] WAIT_DIALOG_SELECT()
 96: 0x0880 [0x02] IF !(Work_Zone[0] == 0*) GOTO 0x088B
 97: 0x0888 [0x01] GOTO 0x0890
 98: 0x088B [0x03] Work_Zone[1] = 1073741824*

SUBROUTINE_0890:
 99: 0x0890 [0x01] GOTO 0x08AF
100: 0x0893 [0x02] IF !(Work_Zone[0] == 3*) GOTO 0x08A1
101: 0x089B [0x1A] CALL_SUBROUTINE(address=0x0A71)
102: 0x089E [0x01] GOTO 0x08AF
103: 0x08A1 [0x02] IF !(Work_Zone[0] == 4*) GOTO 0x08AF
104: 0x08A9 [0x1A] CALL_SUBROUTINE(address=0x0A8B)
105: 0x08AC [0x01] GOTO 0x08AF

SUBROUTINE_08AF:
106: 0x08AF [0x01] GOTO 0x0936
107: 0x08B2 [0x02] IF !(ExtData[1]->WorkLocal[44] == 6*) GOTO 0x0921
108: 0x08BA [0x06] ExtData[1]->WorkLocal[1] = 0
109: 0x08BD [0x3E] IF !(ExtData[1]->WorkLocal[32] bit 1*) GOTO 0x08C7
110: 0x08C4 [0x01] GOTO 0x08CE
111: 0x08C7 [0x3C] SET_BIT_FLAG_CONDITIONAL(target_work_offset=ExtData[1]->WorkLocal[1], bit_index_work_offset=2*, condition_work_offset=1*)

SUBROUTINE_08CE:
112: 0x08CE [0x24] CREATE_DIALOG(message_id=7494*, default_option=0*, option_flags=ExtData[1]->WorkLocal[1])
    → "What would you like to do? [Nothing./Prepare for the next match./Cancel own entry./View settings menu.]"
113: 0x08D5 [0x25] WAIT_DIALOG_SELECT()
114: 0x08D6 [0x40] SET_BIT_WORK_RANGE(start_bit=20*, end_bit=25*, target=Work_Zone[1], source=Work_Zone[0])
115: 0x08DF [0x02] IF !(Work_Zone[0] == 1*) GOTO 0x0902
116: 0x08E7 [0x24] CREATE_DIALOG(message_id=7496*, default_option=1*, option_flags=0*)
    → "Prepare for the next match? [Yes./No.]"
117: 0x08EE [0x25] WAIT_DIALOG_SELECT()
118: 0x08EF [0x02] IF !(Work_Zone[0] == 0*) GOTO 0x08FA
119: 0x08F7 [0x01] GOTO 0x08FF
120: 0x08FA [0x03] Work_Zone[1] = 1073741824*

SUBROUTINE_08FF:
121: 0x08FF [0x01] GOTO 0x091E
122: 0x0902 [0x02] IF !(Work_Zone[0] == 2*) GOTO 0x0910
123: 0x090A [0x1A] CALL_SUBROUTINE(address=0x0A71)
124: 0x090D [0x01] GOTO 0x091E
125: 0x0910 [0x02] IF !(Work_Zone[0] == 3*) GOTO 0x091E
126: 0x0918 [0x1A] CALL_SUBROUTINE(address=0x0A8B)
127: 0x091B [0x01] GOTO 0x091E

SUBROUTINE_091E:
128: 0x091E [0x01] GOTO 0x0936
129: 0x0921 [0x02] IF !(ExtData[1]->WorkLocal[44] == 1*) GOTO 0x0936
130: 0x0929 [0x43] SEND_EVENT_UPDATE: Send pending tag to server (packet 0x005B)
131: 0x092B [0x43] SEND_EVENT_UPDATE: Check pending flag (skip if not pending)
132: 0x092D [0x1A] CALL_SUBROUTINE(address=0x1B08)
133: 0x0930 [0x1A] CALL_SUBROUTINE(address=0x0A8B)
134: 0x0933 [0x01] GOTO 0x0936

SUBROUTINE_0936:
135: 0x0936 [0x1A] CALL_SUBROUTINE(address=0x0678)
136: 0x0939 [0x21] END_EVENT
137: 0x093A [0x00] END_REQSTACK()

SUBROUTINE_0A71:
138: 0x0A71 [0x24] CREATE_DIALOG(message_id=7360*, default_option=1*, option_flags=0*)
    → "Cancel your entry? [Yes./No.]"
139: 0x0A78 [0x25] WAIT_DIALOG_SELECT()
140: 0x0A79 [0x02] IF !(Work_Zone[0] == 0*) GOTO 0x0A85
141: 0x0A81 [0x42] SET_CLI_EVENT_CANCEL_DATA()
142: 0x0A82 [0x01] GOTO 0x0A8A
143: 0x0A85 [0x03] Work_Zone[1] = 1073741824*

SUBROUTINE_0A8A:
144: 0x0A8A [0x1B] RETURN

SUBROUTINE_0A8B:
145: 0x0A8B [0x02] IF !(ExtData[1]->WorkLocal[4] > 10*) GOTO 0x0B92
146: 0x0A93 [0x3E] IF !(ExtData[1]->WorkLocal[30] bit 1*) GOTO 0x0AA0
147: 0x0A9A [0x05] Work_Zone[3] = 1
148: 0x0A9D [0x01] GOTO 0x0AA3
149: 0x0AA0 [0x06] Work_Zone[3] = 0

SUBROUTINE_0AA3:
150: 0x0AA3 [0x3E] IF !(ExtData[1]->WorkLocal[30] bit 2*) GOTO 0x0AB0
151: 0x0AAA [0x05] Work_Zone[4] = 1
152: 0x0AAD [0x01] GOTO 0x0AB3
153: 0x0AB0 [0x06] Work_Zone[4] = 0

SUBROUTINE_0AB3:
154: 0x0AB3 [0x3E] IF !(ExtData[1]->WorkLocal[30] bit 3*) GOTO 0x0AC0
155: 0x0ABA [0x05] Work_Zone[5] = 1
156: 0x0ABD [0x01] GOTO 0x0AC3
157: 0x0AC0 [0x06] Work_Zone[5] = 0

SUBROUTINE_0AC3:
158: 0x0AC3 [0x3E] IF !(ExtData[1]->WorkLocal[30] bit 4*) GOTO 0x0AD0
159: 0x0ACA [0x05] Work_Zone[6] = 1
