# Event 1070

## Metadata

| Field           | Value    |
|-----------------|----------|
| Event Index     | 21/31    |
| Offset          | 0x0A14   |
| Data Size       | 55 bytes |
| Calculated Size | 55 bytes |
| Instructions    | 9        |

```
      00 01 02 03 04 05 06 07  08 09 0A 0B 0C 0D 0E 0F
      -- -- -- -- -- -- -- --  -- -- -- -- -- -- -- --
0A10:             4A BF 92 0D  01 F0 FF FF 7F 6F 76 BF      J........ov.
0A20: 92 0D 01 66 08 80 BF 92  0D 01 BF 92 0D 01 74 6C  ...f..........tl
0A30: 6B 30 2B BF 92 0D 01 69  80 23 66 08 80 BF 92 0D  k0+....i.#f.....
0A40: 01 BF 92 0D 01 74 6C 6B  31 21 00                 .....tlk1!.     
```

## Opcodes

```
  0: 0x0A14 [0x4A] Ferdechiond (ID: 17666751/0x010D92BF) looks at LocalPlayer
  1: 0x0A1D [0x6F] WAIT_FRAME_DELAY: Yield until WaitTime reaches zero
  2: 0x0A1E [0x76] CHECK_ENTITY_RENDER_FLAGS: Wait until Ferdechiond (ID: 17666751/0x010D92BF) Render.Flags0 and Render.Flags3 conditions are met
  3: 0x0A23 [0x66] LOAD_EXT_SCHEDULER_MAIN: Load scheduler "tlk0" with entities [Ferdechiond (ID: 17666751/0x010D92BF), Ferdechiond (ID: 17666751/0x010D92BF)], work=29*
  4: 0x0A32 [0x2B] Ferdechiond (ID: 17666751/0x010D92BF) [8316*]:
    → "I hope I can count on your loyal service again, \u0008.\u007F1\u0000\u0007"
  5: 0x0A39 [0x23] WAIT_FOR_DIALOG_INTERACTION
  6: 0x0A3A [0x66] LOAD_EXT_SCHEDULER_MAIN: Load scheduler "tlk1" with entities [Ferdechiond (ID: 17666751/0x010D92BF), Ferdechiond (ID: 17666751/0x010D92BF)], work=29*
  7: 0x0A49 [0x21] END_EVENT
  8: 0x0A4A [0x00] END_REQSTACK()
```
