# Event 1072

## Metadata

| Field           | Value    |
|-----------------|----------|
| Event Index     | 24/31    |
| Offset          | 0x0B7D   |
| Data Size       | 33 bytes |
| Calculated Size | 33 bytes |
| Instructions    | 9        |

```
      00 01 02 03 04 05 06 07  08 09 0A 0B 0C 0D 0E 0F
      -- -- -- -- -- -- -- --  -- -- -- -- -- -- -- --
0B70:                                         4A C3 92               J..
0B80: 0D 01 F0 FF FF 7F 6F 76  C3 92 0D 01 2B C3 92 0D  ......ov....+...
0B90: 01 6D 80 23 2B C3 92 0D  01 6E 80 23 21 00        .m.#+....n.#!.  
```

## Opcodes

```
  0: 0x0B7D [0x4A] Aladoverre (ID: 17666755/0x010D92C3) looks at LocalPlayer
  1: 0x0B86 [0x6F] WAIT_FRAME_DELAY: Yield until WaitTime reaches zero
  2: 0x0B87 [0x76] CHECK_ENTITY_RENDER_FLAGS: Wait until Aladoverre (ID: 17666755/0x010D92C3) Render.Flags0 and Render.Flags3 conditions are met
  3: 0x0B8C [0x2B] Aladoverre (ID: 17666755/0x010D92C3) [8321*]:
    → "One, two...two...what comes after two!?\u007F1\u0000\u0007"
  4: 0x0B93 [0x23] WAIT_FOR_DIALOG_INTERACTION
  5: 0x0B94 [0x2B] Aladoverre (ID: 17666755/0x010D92C3) [8322*]:
    → "Curses! Don't interrupt me when I'm trying to concentrate!\u0007<Sigh>... Now I must start all over again...\u007F1\u0000\u0007"
  6: 0x0B9B [0x23] WAIT_FOR_DIALOG_INTERACTION
  7: 0x0B9C [0x21] END_EVENT
  8: 0x0B9D [0x00] END_REQSTACK()
```
