# 17257115

## Common Data

| Field            | Value                     |
|------------------|---------------------------|
| Zone             | Tahrongi Canyon (ID: 117) |
| Block Size       | 3468 bytes                |
| Total Events     | 3                         |
| References Count | 90                        |

## List of Events

| Event ID              | Entrypoint   |   Size |   Instructions |
|-----------------------|--------------|--------|----------------|
| [65535](#event-65535) | 0x0000       |      1 |              1 |
| [38](#event-38)       | 0x0001       |   1699 |            204 |
| [39](#event-39)       | 0x06A4       |   1379 |            161 |

## DAT References (imed_data)

|   Index | Hex Value   |   Dec Value |
|---------|-------------|-------------|
|       0 | 0x0013      |          19 |
|       1 | 0xFFFEC293  |  4294886035 |
|       2 | 0xFFF4FD5A  |  4294245722 |
|       3 | 0xBB7F      |       47999 |
|       4 | 0x05FC      |        1532 |
|       5 | 0xFFFEFE3C  |  4294901308 |
|       6 | 0xFFF4FF95  |  4294246293 |
|       7 | 0xA69F      |       42655 |
|       8 | 0x05FB      |        1531 |
|       9 | 0xFFFECD88  |  4294888840 |
|      10 | 0xFFF501FC  |  4294246908 |
|      11 | 0x0FE8      |        4072 |
|      12 | 0xFFFEB45F  |  4294882399 |
|      13 | 0xFFF4EEFB  |  4294242043 |
|      14 | 0xB7FD      |       47101 |
|      15 | 0x0DEB      |        3563 |
|      16 | 0xFFFEDF75  |  4294893429 |
|      17 | 0xFFF4E93B  |  4294240571 |
|      18 | 0x55CF      |       21967 |
|      19 | 0x001E      |          30 |
|      20 | 0x01E8      |         488 |
|      21 | 0x0000      |           0 |
|      22 | 0x0078      |         120 |
|      23 | 0x003C      |          60 |
|      24 | 0x2B1E      |       11038 |
|      25 | 0x00DF      |         223 |
|      26 | 0x001D      |          29 |
|      27 | 0x005A      |          90 |
|      28 | 0xFFFECBB2  |  4294888370 |
|      29 | 0xFFF4FF16  |  4294246166 |
|      30 | 0x07DD      |        2013 |
|      31 | 0x000A      |          10 |
|      32 | 0x0001      |           1 |
|      33 | 0x0002      |           2 |
|      34 | 0x0003      |           3 |
|      35 | 0x0004      |           4 |
|      36 | 0x0005      |           5 |
|      37 | 0x0006      |           6 |
|      38 | 0x0007      |           7 |
|      39 | 0x0008      |           8 |
|      40 | 0x0015      |          21 |
|      41 | 0x0031      |          49 |
|      42 | 0x2B1F      |       11039 |
|      43 | 0x0028      |          40 |
|      44 | 0x04F7      |        1271 |
|      45 | 0x2B20      |       11040 |
|      46 | 0x2B21      |       11041 |
|      47 | 0x055D      |        1373 |
|      48 | 0x2B22      |       11042 |
|      49 | 0x2B23      |       11043 |
|      50 | 0x0034      |          52 |
|      51 | 0x2B24      |       11044 |
|      52 | 0x2B25      |       11045 |
|      53 | 0x00D5      |         213 |
|      54 | 0x2B26      |       11046 |
|      55 | 0x00FF      |         255 |
|      56 | 0x2B27      |       11047 |
|      57 | 0x2B28      |       11048 |
|      58 | 0x2B29      |       11049 |
|      59 | 0x012C      |         300 |
|      60 | 0x002D      |          45 |
|      61 | 0x2B2A      |       11050 |
|      62 | 0x002C      |          44 |
|      63 | 0x2B2B      |       11051 |
|      64 | 0x0096      |         150 |
|      65 | 0x2B2C      |       11052 |
|      66 | 0x2B2D      |       11053 |
|      67 | 0x2B2E      |       11054 |
|      68 | 0x00C8      |         200 |
|      69 | 0xFFFEC954  |  4294887764 |
|      70 | 0xFFF5082E  |  4294248494 |
|      71 | 0x0DC6      |        3526 |
|      72 | 0xFFFEBCD5  |  4294884565 |
|      73 | 0xFFF4F942  |  4294244674 |
|      74 | 0x0DC7      |        3527 |
|      75 | 0xFFFECAA9  |  4294888105 |
|      76 | 0xFFF509C9  |  4294248905 |
|      77 | 0x0050      |          80 |
|      78 | 0x2B2F      |       11055 |
|      79 | 0x2B30      |       11056 |
|      80 | 0x2B31      |       11057 |
|      81 | 0x006F      |         111 |
|      82 | 0x2B32      |       11058 |
|      83 | 0x2B33      |       11059 |
|      84 | 0x2B34      |       11060 |
|      85 | 0x000F      |          15 |
|      86 | 0x2B35      |       11061 |
|      87 | 0x2B36      |       11062 |
|      88 | 0x00C9      |         201 |
|      89 | 0x00D7      |         215 |

## Events

### Event 65535

#### Metadata

| Field        | Value   |
|--------------|---------|
| Entrypoint   | 0x0000  |
| Data Size    | 1 bytes |
| Instructions | 1       |

```
      00 01 02 03 04 05 06 07  08 09 0A 0B 0C 0D 0E 0F
      -- -- -- -- -- -- -- --  -- -- -- -- -- -- -- --
0000: 00                                                .               
```

#### Opcodes

```
  0: 0x0000 [0x00] END_REQSTACK()
```

### Event 38

#### Metadata

| Field        | Value      |
|--------------|------------|
| Entrypoint   | 0x0001     |
| Data Size    | 1699 bytes |
| Instructions | 204        |

```
      00 01 02 03 04 05 06 07  08 09 0A 0B 0C 0D 0E 0F
      -- -- -- -- -- -- -- --  -- -- -- -- -- -- -- --
0000:    42 1A D9 09 46 01 38  00 80 27 10 9C 52 07 01   B...F.8..'..R..
0010: 04 27 10 9D 52 07 01 04  4E 00 9F 52 07 01 4E 00  .'..R...N..R..N.
0020: 9E 52 07 01 92 01 9C 52  07 01 94 01 F0 FF FF 7F  .R.....R........
0030: 94 01 9C 52 07 01 94 01  76 52 07 01 94 01 9F 52  ...R....vR.....R
0040: 07 01 94 01 9E 52 07 01  94 01 9D 52 07 01 BA F0  .....R.....R....
0050: FF FF 7F 01 80 02 80 03  80 04 80 BA 9C 52 07 01  .............R..
0060: 05 80 06 80 07 80 08 80  BA 9F 52 07 01 09 80 0A  ..........R.....
0070: 80 03 80 0B 80 BA 76 52  07 01 0C 80 0D 80 0E 80  ......vR........
0080: 0F 80 59 05 9E 52 07 01  01 BA 9E 52 07 01 10 80  ..Y..R.....R....
0090: 11 80 12 80 0B 80 59 05  9D 52 07 01 01 BA 9D 52  ......Y..R.....R
00A0: 07 01 10 80 11 80 12 80  0B 80 29 10 9D 52 07 01  ..........)..R..
00B0: 09 80 F0 FF FF 7F 80 9C  52 07 01 80 76 52 07 01  ........R...vR..
00C0: 80 9D 52 07 01 1C 13 80  45 14 80 F0 FF FF 7F F0  ..R.....E.......
00D0: FF FF 7F 36 35 30 31 15  80 1A B8 09 1C 16 80 52  ...6501........R
00E0: 14 80 F0 FF FF 7F F0 FF  FF 7F 36 35 30 31 45 14  ..........6501E.
00F0: 80 F0 FF FF 7F F0 FF FF  7F 36 35 30 32 15 80 1C  .........6502...
0100: 13 80 79 00 F0 FF FF 7F  76 52 07 01 1C 16 80 27  ..y.....vR.....'
0110: 10 9C 52 07 01 0A 52 14  80 F0 FF FF 7F F0 FF FF  ..R...R.........
0120: 7F 36 35 30 32 45 14 80  F0 FF FF 7F F0 FF FF 7F  .6502E..........
0130: 36 35 30 30 15 80 2A 10  9C 52 07 01 1C 17 80 2B  6500..*..R.....+
0140: 9E 52 07 01 18 80 1C 13  80 4A F0 FF FF 7F 9C 52  .R.......J.....R
0150: 07 01 6F 76 F0 FF FF 7F  23 52 14 80 F0 FF FF 7F  ..ov....#R......
0160: F0 FF FF 7F 36 35 30 30  45 14 80 F0 FF FF 7F F0  ....6500E.......
0170: FF FF 7F 36 35 30 33 15  80 1C 13 80 BB 19 80 9C  ...6503.........
0180: 52 07 01 9C 52 07 01 69  6E 30 30 15 80 6E F0 FF  R...R..in00..n..
0190: FF 7F 1A 80 99 F0 FF FF  7F 1C 1B 80 BA 9C 52 07  ..............R.
01A0: 01 1C 80 1D 80 03 80 1E  80 1C 1F 80 52 14 80 F0  ............R...
01B0: FF FF 7F F0 FF FF 7F 36  35 30 33 29 10 F0 FF FF  .......6503)....
01C0: 7F 0C 02 02 10 20 80 80  DE 01 45 14 80 F0 FF FF  ..... ....E.....
01D0: 7F F0 FF FF 7F 36 35 6D  6D 15 80 01 A2 02 02 02  .....65mm.......
01E0: 10 21 80 80 FA 01 45 14  80 F0 FF FF 7F F0 FF FF  .!....E.........
01F0: 7F 36 35 6D 6D 15 80 01  A2 02 02 02 10 22 80 80  .65mm........"..
0200: 16 02 45 14 80 F0 FF FF  7F F0 FF FF 7F 36 35 6C  ..E..........65l
0210: 6C 15 80 01 A2 02 02 02  10 23 80 80 32 02 45 14  l........#..2.E.
0220: 80 F0 FF FF 7F F0 FF FF  7F 36 35 6C 6C 15 80 01  .........65ll...
0230: A2 02 02 02 10 24 80 80  4E 02 45 14 80 F0 FF FF  .....$..N.E.....
0240: 7F F0 FF FF 7F 36 35 73  73 15 80 01 A2 02 02 02  .....65ss.......
0250: 10 25 80 80 6A 02 45 14  80 F0 FF FF 7F F0 FF FF  .%..j.E.........
0260: 7F 36 35 73 73 15 80 01  A2 02 02 02 10 26 80 80  .65ss........&..
0270: 86 02 45 14 80 F0 FF FF  7F F0 FF FF 7F 36 35 6D  ..E..........65m
0280: 6D 15 80 01 A2 02 02 02  10 27 80 80 A2 02 45 14  m........'....E.
0290: 80 F0 FF FF 7F F0 FF FF  7F 36 35 6C 6C 15 80 01  .........65ll...
02A0: A2 02 BB 19 80 9C 52 07  01 9C 52 07 01 6F 75 74  ......R...R..out
02B0: 30 15 80 6E F0 FF FF 7F  28 80 99 F0 FF FF 7F 1C  0..n....(.......
02C0: 1B 80 52 14 80 F0 FF FF  7F F0 FF FF 7F 36 35 6D  ..R..........65m
02D0: 6D 52 14 80 F0 FF FF 7F  F0 FF FF 7F 36 35 6C 6C  mR..........65ll
02E0: 52 14 80 F0 FF FF 7F F0  FF FF 7F 36 35 73 73 45  R..........65ssE
02F0: 14 80 F0 FF FF 7F F0 FF  FF 7F 36 35 30 34 15 80  ..........6504..
0300: 66 29 80 9C 52 07 01 9C  52 07 01 74 6C 6B 30 2B  f)..R...R..tlk0+
0310: 9C 52 07 01 2A 80 23 66  29 80 9C 52 07 01 9C 52  .R..*.#f)..R...R
0320: 07 01 74 6C 6B 31 53 9C  52 07 01 9C 52 07 01 74  ..tlk1S.R...R..t
0330: 6C 6B 31 52 14 80 F0 FF  FF 7F F0 FF FF 7F 36 35  lk1R..........65
0340: 30 34 45 14 80 F0 FF FF  7F F0 FF FF 7F 36 35 30  04E..........650
0350: 35 15 80 66 2B 80 9C 52  07 01 9C 52 07 01 74 68  5..f+..R...R..th
0360: 6B 31 1C 17 80 03 02 10  2C 80 2B 9C 52 07 01 2D  k1......,.+.R..-
0370: 80 23 66 2B 80 9C 52 07  01 9C 52 07 01 74 68 6B  .#f+..R...R..thk
0380: 32 53 9C 52 07 01 9C 52  07 01 74 68 6B 32 52 14  2S.R...R..thk2R.
0390: 80 F0 FF FF 7F F0 FF FF  7F 36 35 30 35 45 14 80  .........6505E..
03A0: F0 FF FF 7F F0 FF FF 7F  36 35 30 36 15 80 27 10  ........6506..'.
03B0: 9C 52 07 01 0B 1C 13 80  2B 9C 52 07 01 2E 80 23  .R......+.R....#
03C0: 2A 10 9C 52 07 01 5B 2F  80 9C 52 07 01 9C 52 07  *..R..[/..R...R.
03D0: 01 67 75 64 30 1C 17 80  2B 9C 52 07 01 30 80 23  .gud0...+.R..0.#
03E0: 52 14 80 F0 FF FF 7F F0  FF FF 7F 36 35 30 36 45  R..........6506E
03F0: 14 80 F0 FF FF 7F F0 FF  FF 7F 36 35 30 37 15 80  ..........6507..
0400: 1C 13 80 2B 9C 52 07 01  31 80 23 5B 2F 80 9C 52  ...+.R..1.#[/..R
0410: 07 01 9C 52 07 01 67 75  64 31 53 9C 52 07 01 9C  ...R..gud1S.R...
0420: 52 07 01 67 75 64 31 5C  00 32 80 5C 01 32 80 9A  R..gud1\.2.\.2..
0430: 4A 9C 52 07 01 F0 FF FF  7F 52 14 80 F0 FF FF 7F  J.R......R......
0440: F0 FF FF 7F 36 35 30 37  45 14 80 F0 FF FF 7F F0  ....6507E.......
0450: FF FF 7F 36 35 30 38 15  80 6F 76 9C 52 07 01 2B  ...6508..ov.R..+
0460: 9C 52 07 01 33 80 23 66  2B 80 9C 52 07 01 9C 52  .R..3.#f+..R...R
0470: 07 01 74 6C 6B 30 2B 9C  52 07 01 34 80 1C 1B 80  ..tlk0+.R..4....
0480: 23 C5 35 80 9E 52 07 01  9E 52 07 01 73 30 30 30  #.5..R...R..s000
0490: 15 80 66 2B 80 9C 52 07  01 9C 52 07 01 74 6C 6B  ..f+..R...R..tlk
04A0: 31 52 14 80 F0 FF FF 7F  F0 FF FF 7F 36 35 30 38  1R..........6508
04B0: 45 14 80 F0 FF FF 7F F0  FF FF 7F 36 35 30 39 15  E..........6509.
04C0: 80 2B 9C 52 07 01 36 80  23 79 00 9C 52 07 01 9F  .+.R..6.#y..R...
04D0: 52 07 01 1C 17 80 52 14  80 F0 FF FF 7F F0 FF FF  R.....R.........
04E0: 7F 36 35 30 39 45 14 80  F0 FF FF 7F F0 FF FF 7F  .6509E..........
04F0: 36 35 31 30 15 80 77 37  80 20 80 AB 09 1C 17 80  6510..w7. ......
0500: 2B 9C 52 07 01 38 80 23  52 14 80 F0 FF FF 7F F0  +.R..8.#R.......
0510: FF FF 7F 36 35 31 30 45  14 80 F0 FF FF 7F F0 FF  ...6510E........
0520: FF 7F 36 35 31 31 15 80  1C 17 80 2B 9C 52 07 01  ..6511.....+.R..
0530: 39 80 23 52 14 80 F0 FF  FF 7F F0 FF FF 7F 36 35  9.#R..........65
0540: 31 31 45 14 80 F0 FF FF  7F F0 FF FF 7F 36 35 31  11E..........651
0550: 32 15 80 AB 0A 78 1C 17  80 2B 9C 52 07 01 3A 80  2....x...+.R..:.
0560: 23 5D 15 80 3B 80 79 00  9C 52 07 01 F0 FF FF 7F  #]..;.y..R......
0570: 1C 3C 80 52 14 80 F0 FF  FF 7F F0 FF FF 7F 36 35  .<.R..........65
0580: 31 32 45 14 80 F0 FF FF  7F F0 FF FF 7F 36 35 31  12E..........651
0590: 33 15 80 4E 01 9D 52 07  01 C5 35 80 9E 52 07 01  3..N..R...5..R..
05A0: 9E 52 07 01 6B 69 6C 30  15 80 2B 9C 52 07 01 3D  .R..kil0..+.R..=
05B0: 80 23 6E 9C 52 07 01 3E  80 99 9C 52 07 01 2B 9C  .#n.R..>...R..+.
05C0: 52 07 01 3F 80 1C 40 80  23 52 14 80 F0 FF FF 7F  R..?..@.#R......
05D0: F0 FF FF 7F 36 35 31 33  45 14 80 F0 FF FF 7F F0  ....6513E.......
05E0: FF FF 7F 36 35 31 34 15  80 66 29 80 9C 52 07 01  ...6514..f)..R..
05F0: 9C 52 07 01 74 6C 6B 30  2B 9C 52 07 01 41 80 23  .R..tlk0+.R..A.#
0600: 66 29 80 9C 52 07 01 9C  52 07 01 74 6C 6B 31 2B  f)..R...R..tlk1+
0610: 9C 52 07 01 42 80 23 53  9C 52 07 01 9C 52 07 01  .R..B.#S.R...R..
0620: 74 6C 6B 31 52 14 80 F0  FF FF 7F F0 FF FF 7F 36  tlk1R..........6
0630: 35 31 34 45 14 80 F0 FF  FF 7F F0 FF FF 7F 36 35  514E..........65
0640: 31 35 15 80 2B 9C 52 07  01 43 80 23 BB 19 80 9C  15..+.R..C.#....
0650: 52 07 01 9C 52 07 01 69  6E 30 30 15 80 1C 13 80  R...R..in00.....
0660: 1A D9 09 1C 13 80 52 14  80 F0 FF FF 7F F0 FF FF  ......R.........
0670: 7F 36 35 31 34 45 14 80  F0 FF FF 7F F0 FF FF 7F  .6514E..........
0680: 30 62 6C 66 15 80 5C 00  15 80 5C 01 15 80 9A 46  0blf..\...\....F
0690: 00 45 44 80 F0 FF FF 7F  F0 FF FF 7F 66 64 69 32  .ED.........fdi2
06A0: 15 80 21 00                                       ..!.            
```

#### Opcodes

```
  0: 0x0001 [0x42] SET_CLI_EVENT_CANCEL_DATA()
  1: 0x0002 [0x1A] CALL_SUBROUTINE(address=0x09D9)
  2: 0x0005 [0x46] CAMERA_CONTROL: Disable user control
  3: 0x0007 [0x38] SET_CLIENT_EVENT_MODE(mode=19*)
  4: 0x000A [0x27] REQ_SET(priority=0x10, entity_id=Kocchi-Arocchi (ID: 17257116/0x0107529C), tag_num=0x04)
  5: 0x0011 [0x27] REQ_SET(priority=0x10, entity_id=Unnamed NPC (ID: 17257117/0x0107529D), tag_num=0x04)
  6: 0x0018 [0x4E] SET_ENTITY_HIDE_FLAG: Show Unnamed NPC (ID: 17257119/0x0107529F)
  7: 0x001E [0x4E] SET_ENTITY_HIDE_FLAG: Show ??? (ID: 17257118/0x0107529E)
  8: 0x0024 [0x92] Kocchi-Arocchi (ID: 17257116/0x0107529C)->Render.Flags3 ^= 0x01
  9: 0x002A [0x94] LocalPlayer->Render.Flags3 ^= 0x01
 10: 0x0030 [0x94] Kocchi-Arocchi (ID: 17257116/0x0107529C)->Render.Flags3 ^= 0x01
 11: 0x0036 [0x94] Cavernous Maw (ID: 17257078/0x01075276)->Render.Flags3 ^= 0x01
 12: 0x003C [0x94] Unnamed NPC (ID: 17257119/0x0107529F)->Render.Flags3 ^= 0x01
 13: 0x0042 [0x94] ??? (ID: 17257118/0x0107529E)->Render.Flags3 ^= 0x01
 14: 0x0048 [0x94] Unnamed NPC (ID: 17257117/0x0107529D)->Render.Flags3 ^= 0x01
 15: 0x004E [0xBA] SET_ENTITY_POSITION(entity_id=LocalPlayer, pos_x=-81.261*, pos_z=-721.574*, pos_y=47.999*, direction=134.6°*)
 16: 0x005B [0xBA] SET_ENTITY_POSITION(entity_id=Kocchi-Arocchi (ID: 17257116/0x0107529C), pos_x=-65.988*, pos_z=-721.003*, pos_y=42.655*, direction=134.6°*)
 17: 0x0068 [0xBA] SET_ENTITY_POSITION(entity_id=Unnamed NPC (ID: 17257119/0x0107529F), pos_x=-78.456*, pos_z=-720.388*, pos_y=47.999*, direction=357.9°*)
 18: 0x0075 [0xBA] SET_ENTITY_POSITION(entity_id=Cavernous Maw (ID: 17257078/0x01075276), pos_x=-84.897*, pos_z=-725.253*, pos_y=47.101*, direction=313.1°*)
 19: 0x0082 [0x59] UPDATE_ENTITY_DATA: ??? (ID: 17257118/0x0107529E)->Render.Flags0 |= 0x200000
 20: 0x0089 [0xBA] SET_ENTITY_POSITION(entity_id=??? (ID: 17257118/0x0107529E), pos_x=-73.867*, pos_z=-726.725*, pos_y=21.967*, direction=357.9°*)
 21: 0x0096 [0x59] UPDATE_ENTITY_DATA: Unnamed NPC (ID: 17257117/0x0107529D)->Render.Flags0 |= 0x200000
 22: 0x009D [0xBA] SET_ENTITY_POSITION(entity_id=Unnamed NPC (ID: 17257117/0x0107529D), pos_x=-73.867*, pos_z=-726.725*, pos_y=21.967*, direction=357.9°*)
 23: 0x00AA [0x29] REQ_SET_WAIT(priority=0x10, entity_id=Unnamed NPC (ID: 17257117/0x0107529D), tag_num=0x09)
 24: 0x00B1 [0x80] LOAD_WAIT(entity=LocalPlayer)
 25: 0x00B6 [0x80] LOAD_WAIT(entity=Kocchi-Arocchi (ID: 17257116/0x0107529C))
 26: 0x00BB [0x80] LOAD_WAIT(entity=Cavernous Maw (ID: 17257078/0x01075276))
 27: 0x00C0 [0x80] LOAD_WAIT(entity=Unnamed NPC (ID: 17257117/0x0107529D))
 28: 0x00C5 [0x1C] WAIT(30* ticks)
 29: 0x00C8 [0x45] LOAD_SCHEDULED_TASK: Load scheduler "6501" with entities [LocalPlayer, LocalPlayer], work=[488*, 0*]
 30: 0x00D9 [0x1A] CALL_SUBROUTINE(address=0x09B8)
 31: 0x00DC [0x1C] WAIT(120* ticks)
 32: 0x00DF [0x52] END_LOAD_SCHEDULER: End scheduler "6501" with entities [LocalPlayer, LocalPlayer], work=488*
 33: 0x00EE [0x45] LOAD_SCHEDULED_TASK: Load scheduler "6502" with entities [LocalPlayer, LocalPlayer], work=[488*, 0*]
 34: 0x00FF [0x1C] WAIT(30* ticks)
 35: 0x0102 [0x79] LocalPlayer looks at Cavernous Maw (ID: 17257078/0x01075276) (Basic look)
 36: 0x010C [0x1C] WAIT(120* ticks)
 37: 0x010F [0x27] REQ_SET(priority=0x10, entity_id=Kocchi-Arocchi (ID: 17257116/0x0107529C), tag_num=0x0A)
 38: 0x0116 [0x52] END_LOAD_SCHEDULER: End scheduler "6502" with entities [LocalPlayer, LocalPlayer], work=488*
 39: 0x0125 [0x45] LOAD_SCHEDULED_TASK: Load scheduler "6500" with entities [LocalPlayer, LocalPlayer], work=[488*, 0*]
 40: 0x0136 [0x2A] GET_REQ_LEVEL(level=16, entity_id=Kocchi-Arocchi (ID: 17257116/0x0107529C))
 41: 0x013C [0x1C] WAIT(60* ticks)
 42: 0x013F [0x2B] ??? (ID: 17257118/0x0107529E) [11038*]:
    → "Let me takey-wake a stab. You're <Player>, right?"
 43: 0x0146 [0x1C] WAIT(30* ticks)
 44: 0x0149 [0x4A] LocalPlayer looks at Kocchi-Arocchi (ID: 17257116/0x0107529C)
 45: 0x0152 [0x6F] WAIT_FRAME_DELAY: Yield until WaitTime reaches zero
 46: 0x0153 [0x76] CHECK_ENTITY_RENDER_FLAGS: Wait until LocalPlayer Render.Flags0 and Render.Flags3 conditions are met
 47: 0x0158 [0x23] WAIT_FOR_DIALOG_INTERACTION
 48: 0x0159 [0x52] END_LOAD_SCHEDULER: End scheduler "6500" with entities [LocalPlayer, LocalPlayer], work=488*
 49: 0x0168 [0x45] LOAD_SCHEDULED_TASK: Load scheduler "6503" with entities [LocalPlayer, LocalPlayer], work=[488*, 0*]
 50: 0x0179 [0x1C] WAIT(30* ticks)
 51: 0x017C [0xBB] LOAD_EVENT_SCHEDULER_ALT: Load scheduler "in00" with entities [Kocchi-Arocchi (ID: 17257116/0x0107529C), Kocchi-Arocchi (ID: 17257116/0x0107529C)], work=[223*, 0*]
 52: 0x018D [0x6E] LocalPlayer uses emote 29*
 53: 0x0194 [0x99] Wait for LocalPlayer animation to complete
 54: 0x0199 [0x1C] WAIT(90* ticks)
 55: 0x019C [0xBA] SET_ENTITY_POSITION(entity_id=Kocchi-Arocchi (ID: 17257116/0x0107529C), pos_x=-78.926*, pos_z=-721.130*, pos_y=47.999*, direction=176.9°*)
 56: 0x01A9 [0x1C] WAIT(10* ticks)
 57: 0x01AC [0x52] END_LOAD_SCHEDULER: End scheduler "6503" with entities [LocalPlayer, LocalPlayer], work=488*
 58: 0x01BB [0x29] REQ_SET_WAIT(priority=0x10, entity_id=LocalPlayer, tag_num=0x0C)
 59: 0x01C2 [0x02] IF !(Work_Zone[2] == 1*) GOTO 0x01DE
 60: 0x01CA [0x45] LOAD_SCHEDULED_TASK: Load scheduler "65mm" with entities [LocalPlayer, LocalPlayer], work=[488*, 0*]
 61: 0x01DB [0x01] GOTO 0x02A2
 62: 0x01DE [0x02] IF !(Work_Zone[2] == 2*) GOTO 0x01FA
 63: 0x01E6 [0x45] LOAD_SCHEDULED_TASK: Load scheduler "65mm" with entities [LocalPlayer, LocalPlayer], work=[488*, 0*]
 64: 0x01F7 [0x01] GOTO 0x02A2
 65: 0x01FA [0x02] IF !(Work_Zone[2] == 3*) GOTO 0x0216
 66: 0x0202 [0x45] LOAD_SCHEDULED_TASK: Load scheduler "65ll" with entities [LocalPlayer, LocalPlayer], work=[488*, 0*]
 67: 0x0213 [0x01] GOTO 0x02A2
 68: 0x0216 [0x02] IF !(Work_Zone[2] == 4*) GOTO 0x0232
 69: 0x021E [0x45] LOAD_SCHEDULED_TASK: Load scheduler "65ll" with entities [LocalPlayer, LocalPlayer], work=[488*, 0*]
 70: 0x022F [0x01] GOTO 0x02A2
 71: 0x0232 [0x02] IF !(Work_Zone[2] == 5*) GOTO 0x024E
 72: 0x023A [0x45] LOAD_SCHEDULED_TASK: Load scheduler "65ss" with entities [LocalPlayer, LocalPlayer], work=[488*, 0*]
 73: 0x024B [0x01] GOTO 0x02A2
 74: 0x024E [0x02] IF !(Work_Zone[2] == 6*) GOTO 0x026A
 75: 0x0256 [0x45] LOAD_SCHEDULED_TASK: Load scheduler "65ss" with entities [LocalPlayer, LocalPlayer], work=[488*, 0*]
 76: 0x0267 [0x01] GOTO 0x02A2
 77: 0x026A [0x02] IF !(Work_Zone[2] == 7*) GOTO 0x0286
 78: 0x0272 [0x45] LOAD_SCHEDULED_TASK: Load scheduler "65mm" with entities [LocalPlayer, LocalPlayer], work=[488*, 0*]
 79: 0x0283 [0x01] GOTO 0x02A2
 80: 0x0286 [0x02] IF !(Work_Zone[2] == 8*) GOTO 0x02A2
 81: 0x028E [0x45] LOAD_SCHEDULED_TASK: Load scheduler "65ll" with entities [LocalPlayer, LocalPlayer], work=[488*, 0*]
 82: 0x029F [0x01] GOTO 0x02A2

SUBROUTINE_02A2:
 83: 0x02A2 [0xBB] LOAD_EVENT_SCHEDULER_ALT: Load scheduler "out0" with entities [Kocchi-Arocchi (ID: 17257116/0x0107529C), Kocchi-Arocchi (ID: 17257116/0x0107529C)], work=[223*, 0*]
 84: 0x02B3 [0x6E] LocalPlayer uses emote 21*
 85: 0x02BA [0x99] Wait for LocalPlayer animation to complete
 86: 0x02BF [0x1C] WAIT(90* ticks)
 87: 0x02C2 [0x52] END_LOAD_SCHEDULER: End scheduler "65mm" with entities [LocalPlayer, LocalPlayer], work=488*
 88: 0x02D1 [0x52] END_LOAD_SCHEDULER: End scheduler "65ll" with entities [LocalPlayer, LocalPlayer], work=488*
 89: 0x02E0 [0x52] END_LOAD_SCHEDULER: End scheduler "65ss" with entities [LocalPlayer, LocalPlayer], work=488*
 90: 0x02EF [0x45] LOAD_SCHEDULED_TASK: Load scheduler "6504" with entities [LocalPlayer, LocalPlayer], work=[488*, 0*]
 91: 0x0300 [0x66] LOAD_EXT_SCHEDULER_MAIN: Load scheduler "tlk0" with entities [Kocchi-Arocchi (ID: 17257116/0x0107529C), Kocchi-Arocchi (ID: 17257116/0x0107529C)], work=49*
 92: 0x030F [0x2B] Kocchi-Arocchi (ID: 17257116/0x0107529C) [11039*]:
    → "Boy, am I pleased to meet you! I'm Kocchi-Arocchi, and I am out of this world...literally!"
 93: 0x0316 [0x23] WAIT_FOR_DIALOG_INTERACTION
 94: 0x0317 [0x66] LOAD_EXT_SCHEDULER_MAIN: Load scheduler "tlk1" with entities [Kocchi-Arocchi (ID: 17257116/0x0107529C), Kocchi-Arocchi (ID: 17257116/0x0107529C)], work=49*
 95: 0x0326 [0x53] WAIT_SCHEDULER_TASK: Wait for scheduler "tlk1" with entities [Kocchi-Arocchi (ID: 17257116/0x0107529C), Kocchi-Arocchi (ID: 17257116/0x0107529C)]
 96: 0x0333 [0x52] END_LOAD_SCHEDULER: End scheduler "6504" with entities [LocalPlayer, LocalPlayer], work=488*
 97: 0x0342 [0x45] LOAD_SCHEDULED_TASK: Load scheduler "6505" with entities [LocalPlayer, LocalPlayer], work=[488*, 0*]
 98: 0x0353 [0x66] LOAD_EXT_SCHEDULER_MAIN: Load scheduler "thk1" with entities [Kocchi-Arocchi (ID: 17257116/0x0107529C), Kocchi-Arocchi (ID: 17257116/0x0107529C)], work=40*
 99: 0x0362 [0x1C] WAIT(60* ticks)
100: 0x0365 [0x03] Work_Zone[2] = 1271*
101: 0x036A [0x2B] Kocchi-Arocchi (ID: 17257116/0x0107529C) [11040*]:
    → "I see you've broughtaru your $3 with you."
102: 0x0371 [0x23] WAIT_FOR_DIALOG_INTERACTION
103: 0x0372 [0x66] LOAD_EXT_SCHEDULER_MAIN: Load scheduler "thk2" with entities [Kocchi-Arocchi (ID: 17257116/0x0107529C), Kocchi-Arocchi (ID: 17257116/0x0107529C)], work=40*
104: 0x0381 [0x53] WAIT_SCHEDULER_TASK: Wait for scheduler "thk2" with entities [Kocchi-Arocchi (ID: 17257116/0x0107529C), Kocchi-Arocchi (ID: 17257116/0x0107529C)]
105: 0x038E [0x52] END_LOAD_SCHEDULER: End scheduler "6505" with entities [LocalPlayer, LocalPlayer], work=488*
106: 0x039D [0x45] LOAD_SCHEDULED_TASK: Load scheduler "6506" with entities [LocalPlayer, LocalPlayer], work=[488*, 0*]
107: 0x03AE [0x27] REQ_SET(priority=0x10, entity_id=Kocchi-Arocchi (ID: 17257116/0x0107529C), tag_num=0x0B)
108: 0x03B5 [0x1C] WAIT(30* ticks)
109: 0x03B8 [0x2B] Kocchi-Arocchi (ID: 17257116/0x0107529C) [11041*]:
    → "The cavernous-wavernous maw here's connected to Abyssea's take on the Tahrongi Canyon...and it's not proving to be a popular interpretation, I might add."
110: 0x03BF [0x23] WAIT_FOR_DIALOG_INTERACTION
111: 0x03C0 [0x2A] GET_REQ_LEVEL(level=16, entity_id=Kocchi-Arocchi (ID: 17257116/0x0107529C))
112: 0x03C6 [0x5B] LOAD_EXT_SCHEDULER: Load scheduler "gud0" with entities [Kocchi-Arocchi (ID: 17257116/0x0107529C), Kocchi-Arocchi (ID: 17257116/0x0107529C)], work=1373*
113: 0x03D5 [0x1C] WAIT(60* ticks)
114: 0x03D8 [0x2B] Kocchi-Arocchi (ID: 17257116/0x0107529C) [11042*]:
    → "Call me lowbrow, but I much prefer the canyon you've got here. But enough aboutaru myself. I know that you've a mind to see with your own eyes the horrors that lie yonder."
115: 0x03DF [0x23] WAIT_FOR_DIALOG_INTERACTION
116: 0x03E0 [0x52] END_LOAD_SCHEDULER: End scheduler "6506" with entities [LocalPlayer, LocalPlayer], work=488*
117: 0x03EF [0x45] LOAD_SCHEDULED_TASK: Load scheduler "6507" with entities [LocalPlayer, LocalPlayer], work=[488*, 0*]
118: 0x0400 [0x1C] WAIT(30* ticks)
119: 0x0403 [0x2B] Kocchi-Arocchi (ID: 17257116/0x0107529C) [11043*]:
    → "I won't stop you from making the journey-wourney. But I am obliged to send you off with a warning: Your destination is fraughtaru with danger. Woooooo`!"
120: 0x040A [0x23] WAIT_FOR_DIALOG_INTERACTION
121: 0x040B [0x5B] LOAD_EXT_SCHEDULER: Load scheduler "gud1" with entities [Kocchi-Arocchi (ID: 17257116/0x0107529C), Kocchi-Arocchi (ID: 17257116/0x0107529C)], work=1373*
122: 0x041A [0x53] WAIT_SCHEDULER_TASK: Wait for scheduler "gud1" with entities [Kocchi-Arocchi (ID: 17257116/0x0107529C), Kocchi-Arocchi (ID: 17257116/0x0107529C)]
123: 0x0427 [0x5C] MUSIC_CONTROL: Set Idle (Day) music to song 52*
124: 0x042B [0x5C] MUSIC_CONTROL: Set Idle (Night) music to song 52*
125: 0x042F [0x9A] WAIT_MUSIC_SERVER()
126: 0x0430 [0x4A] Kocchi-Arocchi (ID: 17257116/0x0107529C) looks at LocalPlayer
127: 0x0439 [0x52] END_LOAD_SCHEDULER: End scheduler "6507" with entities [LocalPlayer, LocalPlayer], work=488*
128: 0x0448 [0x45] LOAD_SCHEDULED_TASK: Load scheduler "6508" with entities [LocalPlayer, LocalPlayer], work=[488*, 0*]
129: 0x0459 [0x6F] WAIT_FRAME_DELAY: Yield until WaitTime reaches zero
130: 0x045A [0x76] CHECK_ENTITY_RENDER_FLAGS: Wait until Kocchi-Arocchi (ID: 17257116/0x0107529C) Render.Flags0 and Render.Flags3 conditions are met
131: 0x045F [0x2B] Kocchi-Arocchi (ID: 17257116/0x0107529C) [11044*]:
    → "Okay, now that due warning has been given, I'm going to make an earnest plea for help: Help!"
132: 0x0466 [0x23] WAIT_FOR_DIALOG_INTERACTION
133: 0x0467 [0x66] LOAD_EXT_SCHEDULER_MAIN: Load scheduler "tlk0" with entities [Kocchi-Arocchi (ID: 17257116/0x0107529C), Kocchi-Arocchi (ID: 17257116/0x0107529C)], work=40*
134: 0x0476 [0x2B] Kocchi-Arocchi (ID: 17257116/0x0107529C) [11045*]:
    → "Ahem! To elaborate, a greataru cataclysm has befallen Abyssea. The blessing of the moon and the stars no longer reachy-weach us, and the boundary between worlds grows more unstable by the day."
135: 0x047D [0x1C] WAIT(90* ticks)
136: 0x0480 [0x23] WAIT_FOR_DIALOG_INTERACTION
137: 0x0481 [0xC5] LOAD_SCHEDULED_TASK_ALT3: Load scheduler 0x80153030 for entities [??? (ID: 17257118/0x0107529E), ??? (ID: 17257118/0x0107529E)], work=213*, param=12403
138: 0x0492 [0x66] LOAD_EXT_SCHEDULER_MAIN: Load scheduler "tlk1" with entities [Kocchi-Arocchi (ID: 17257116/0x0107529C), Kocchi-Arocchi (ID: 17257116/0x0107529C)], work=40*
139: 0x04A1 [0x52] END_LOAD_SCHEDULER: End scheduler "6508" with entities [LocalPlayer, LocalPlayer], work=488*
140: 0x04B0 [0x45] LOAD_SCHEDULED_TASK: Load scheduler "6509" with entities [LocalPlayer, LocalPlayer], work=[488*, 0*]
141: 0x04C1 [0x2B] Kocchi-Arocchi (ID: 17257116/0x0107529C) [11046*]:
    → "The situation has deteriorated to the pointaru where nothing surprises me anymore. If a dhalmel pie were to appear out of thin air, for instance, I'd be full, but hardly surprised. But I digress-wigress..."
142: 0x04C8 [0x23] WAIT_FOR_DIALOG_INTERACTION
143: 0x04C9 [0x79] Kocchi-Arocchi (ID: 17257116/0x0107529C) looks at Unnamed NPC (ID: 17257119/0x0107529F) (Basic look)
144: 0x04D3 [0x1C] WAIT(60* ticks)
145: 0x04D6 [0x52] END_LOAD_SCHEDULER: End scheduler "6509" with entities [LocalPlayer, LocalPlayer], work=488*
146: 0x04E5 [0x45] LOAD_SCHEDULED_TASK: Load scheduler "6510" with entities [LocalPlayer, LocalPlayer], work=[488*, 0*]
147: 0x04F6 [0x77] SET_EVENT_TIME_WEATHER(hour=255*, weather=1*)
148: 0x04FB [0xAB] EventEntity->UnknownFlag = 1 // Enable unknown flag
149: 0x04FD [0x1C] WAIT(60* ticks)
150: 0x0500 [0x2B] Kocchi-Arocchi (ID: 17257116/0x0107529C) [11047*]:
    → "Where was I again? Oh, right. What I was about to say was, we're being plagued by a giantaru worm. A giantaru worm, I said!"
151: 0x0507 [0x23] WAIT_FOR_DIALOG_INTERACTION
152: 0x0508 [0x52] END_LOAD_SCHEDULER: End scheduler "6510" with entities [LocalPlayer, LocalPlayer], work=488*
153: 0x0517 [0x45] LOAD_SCHEDULED_TASK: Load scheduler "6511" with entities [LocalPlayer, LocalPlayer], work=[488*, 0*]
154: 0x0528 [0x1C] WAIT(60* ticks)
155: 0x052B [0x2B] Kocchi-Arocchi (ID: 17257116/0x0107529C) [11048*]:
    → ""What's the big deal, man? It's only a squishy-wishy worm," you say? To that I retortaru, these worms should've been extinct since the Great War! What's more, this one's suspected of destabilizing the said boundary between worlds!"
156: 0x0532 [0x23] WAIT_FOR_DIALOG_INTERACTION
157: 0x0533 [0x52] END_LOAD_SCHEDULER: End scheduler "6511" with entities [LocalPlayer, LocalPlayer], work=488*
158: 0x0542 [0x45] LOAD_SCHEDULED_TASK: Load scheduler "6512" with entities [LocalPlayer, LocalPlayer], work=[488*, 0*]
159: 0x0553 [0xAB] EventEntity->UnknownFlag = 0 // Disable unknown flag
160: 0x0555 [0x78] ENABLE_GAME_TIMER_RESET_WEATHER()
161: 0x0556 [0x1C] WAIT(60* ticks)
162: 0x0559 [0x2B] Kocchi-Arocchi (ID: 17257116/0x0107529C) [11049*]:
    → "Vanquishing this pesti-westilence has become the top priority of us survivors. And by association, it's now your priority also!"
163: 0x0560 [0x23] WAIT_FOR_DIALOG_INTERACTION
164: 0x0561 [0x5D] SET_MUSIC_VOLUME(volume=0*, fade_time=300*)
165: 0x0566 [0x79] Kocchi-Arocchi (ID: 17257116/0x0107529C) looks at LocalPlayer (Basic look)
166: 0x0570 [0x1C] WAIT(45* ticks)
167: 0x0573 [0x52] END_LOAD_SCHEDULER: End scheduler "6512" with entities [LocalPlayer, LocalPlayer], work=488*
168: 0x0582 [0x45] LOAD_SCHEDULED_TASK: Load scheduler "6513" with entities [LocalPlayer, LocalPlayer], work=[488*, 0*]
169: 0x0593 [0x4E] SET_ENTITY_HIDE_FLAG: Hide Unnamed NPC (ID: 17257117/0x0107529D)
170: 0x0599 [0xC5] LOAD_SCHEDULED_TASK_ALT3: Load scheduler 0x8015306C for entities [??? (ID: 17257118/0x0107529E), ??? (ID: 17257118/0x0107529E)], work=213*, param=26987
171: 0x05AA [0x2B] Kocchi-Arocchi (ID: 17257116/0x0107529C) [11050*]:
    → "No one knows whether eliminataruing the creature would do any good, but what else are we to do?"
172: 0x05B1 [0x23] WAIT_FOR_DIALOG_INTERACTION
173: 0x05B2 [0x6E] Kocchi-Arocchi (ID: 17257116/0x0107529C) uses emote 44*
174: 0x05B9 [0x99] Wait for Kocchi-Arocchi (ID: 17257116/0x0107529C) animation to complete
175: 0x05BE [0x2B] Kocchi-Arocchi (ID: 17257116/0x0107529C) [11051*]:
    → "Oh, before I forgetaru, there's something I want you to have."
176: 0x05C5 [0x1C] WAIT(150* ticks)
177: 0x05C8 [0x23] WAIT_FOR_DIALOG_INTERACTION
178: 0x05C9 [0x52] END_LOAD_SCHEDULER: End scheduler "6513" with entities [LocalPlayer, LocalPlayer], work=488*
179: 0x05D8 [0x45] LOAD_SCHEDULED_TASK: Load scheduler "6514" with entities [LocalPlayer, LocalPlayer], work=[488*, 0*]
180: 0x05E9 [0x66] LOAD_EXT_SCHEDULER_MAIN: Load scheduler "tlk0" with entities [Kocchi-Arocchi (ID: 17257116/0x0107529C), Kocchi-Arocchi (ID: 17257116/0x0107529C)], work=49*
181: 0x05F8 [0x2B] Kocchi-Arocchi (ID: 17257116/0x0107529C) [11052*]:
    → "It's called "cruor." Don't you just love the way its deep, red hue is reminiscent of freshly drawn blood?"
182: 0x05FF [0x23] WAIT_FOR_DIALOG_INTERACTION
183: 0x0600 [0x66] LOAD_EXT_SCHEDULER_MAIN: Load scheduler "tlk1" with entities [Kocchi-Arocchi (ID: 17257116/0x0107529C), Kocchi-Arocchi (ID: 17257116/0x0107529C)], work=49*
184: 0x060F [0x2B] Kocchi-Arocchi (ID: 17257116/0x0107529C) [11053*]:
    → "It's the currency in circu-wirculation in Abyssea. As I can no longer return home, I've no more use for it. Consider it a send-off giftaru for my [hero/heroine] who's about to head into grave danger!"
185: 0x0616 [0x23] WAIT_FOR_DIALOG_INTERACTION
186: 0x0617 [0x53] WAIT_SCHEDULER_TASK: Wait for scheduler "tlk1" with entities [Kocchi-Arocchi (ID: 17257116/0x0107529C), Kocchi-Arocchi (ID: 17257116/0x0107529C)]
187: 0x0624 [0x52] END_LOAD_SCHEDULER: End scheduler "6514" with entities [LocalPlayer, LocalPlayer], work=488*
188: 0x0633 [0x45] LOAD_SCHEDULED_TASK: Load scheduler "6515" with entities [LocalPlayer, LocalPlayer], work=[488*, 0*]
189: 0x0644 [0x2B] Kocchi-Arocchi (ID: 17257116/0x0107529C) [11054*]:
    → "Remember, <Player>! You mustaru...fulfill...my destiny! Woooooo`!"
190: 0x064B [0x23] WAIT_FOR_DIALOG_INTERACTION
191: 0x064C [0xBB] LOAD_EVENT_SCHEDULER_ALT: Load scheduler "in00" with entities [Kocchi-Arocchi (ID: 17257116/0x0107529C), Kocchi-Arocchi (ID: 17257116/0x0107529C)], work=[223*, 0*]
192: 0x065D [0x1C] WAIT(30* ticks)
193: 0x0660 [0x1A] CALL_SUBROUTINE(address=0x09D9)
194: 0x0663 [0x1C] WAIT(30* ticks)
195: 0x0666 [0x52] END_LOAD_SCHEDULER: End scheduler "6514" with entities [LocalPlayer, LocalPlayer], work=488*
196: 0x0675 [0x45] LOAD_SCHEDULED_TASK: Load scheduler "0blf" with entities [LocalPlayer, LocalPlayer], work=[488*, 0*]
197: 0x0686 [0x5C] MUSIC_CONTROL: Set Idle (Day) music to song 0*
198: 0x068A [0x5C] MUSIC_CONTROL: Set Idle (Night) music to song 0*
199: 0x068E [0x9A] WAIT_MUSIC_SERVER()
200: 0x068F [0x46] CAMERA_CONTROL: Restore default settings
201: 0x0691 [0x45] LOAD_SCHEDULED_TASK: Load scheduler "fdi2" with entities [LocalPlayer, LocalPlayer], work=[200*, 0*]
202: 0x06A2 [0x21] END_EVENT
203: 0x06A3 [0x00] END_REQSTACK()
```

### Event 39

#### Metadata

| Field        | Value      |
|--------------|------------|
| Entrypoint   | 0x06A4     |
| Data Size    | 1379 bytes |
| Instructions | 106        |

```
      00 01 02 03 04 05 06 07  08 09 0A 0B 0C 0D 0E 0F
      -- -- -- -- -- -- -- --  -- -- -- -- -- -- -- --
06A0:             42 1A D9 09  46 01 38 00 80 4E 00 F0      B...F.8..N..
06B0: FF FF 7F 27 10 9C 52 07  01 02 4E 00 9F 52 07 01  ...'..R...N..R..
06C0: 92 01 9C 52 07 01 94 01  F0 FF FF 7F 94 01 9C 52  ...R...........R
06D0: 07 01 94 01 76 52 07 01  94 01 9F 52 07 01 BA F0  ....vR.....R....
06E0: FF FF 7F 45 80 46 80 03  80 47 80 BA 9C 52 07 01  ...E.F...G...R..
06F0: 48 80 49 80 03 80 4A 80  BA 9F 52 07 01 4B 80 4C  H.I...J...R..K.L
0700: 80 03 80 47 80 BA 76 52  07 01 0C 80 0D 80 0E 80  ...G..vR........
0710: 0F 80 80 F0 FF FF 7F 80  9C 52 07 01 80 76 52 07  .........R...vR.
0720: 01 1C 13 80 79 00 F0 FF  FF 7F 9F 52 07 01 29 10  ....y......R..).
0730: F0 FF FF 7F 0E 6C F0 FF  FF 7F 15 80 20 80 92 01  .....l...... ...
0740: F0 FF FF 7F CD 4D 80 F0  FF FF 7F F0 FF FF 7F 6D  .....M.........m
0750: 61 69 6E 15 80 45 14 80  F0 FF FF 7F F0 FF FF 7F  ain..E..........
0760: 36 35 32 30 15 80 1A B8  09 1C 16 80 92 00 F0 FF  6520............
0770: FF 7F 1C 17 80 7B F0 FF  FF 7F 27 10 F0 FF FF 7F  .....{....'.....
0780: 0F 1C 13 80 52 14 80 F0  FF FF 7F F0 FF FF 7F 36  ....R..........6
0790: 35 32 30 45 14 80 F0 FF  FF 7F F0 FF FF 7F 36 35  520E..........65
07A0: 32 31 15 80 BB 19 80 9C  52 07 01 9C 52 07 01 6F  21......R...R..o
07B0: 75 74 30 15 80 2B 9C 52  07 01 4E 80 1C 13 80 2A  ut0..+.R..N....*
07C0: 10 F0 FF FF 7F 4A F0 FF  FF 7F 9C 52 07 01 23 6F  .....J.....R..#o
07D0: 76 F0 FF FF 7F 5C 00 16  80 5C 01 16 80 9A 52 14  v....\...\....R.
07E0: 80 F0 FF FF 7F F0 FF FF  7F 36 35 32 31 45 14 80  .........6521E..
07F0: F0 FF FF 7F F0 FF FF 7F  36 35 32 32 15 80 6E 9C  ........6522..n.
0800: 52 07 01 25 80 99 9C 52  07 01 2B 9C 52 07 01 4F  R..%...R..+.R..O
0810: 80 1C 16 80 23 52 14 80  F0 FF FF 7F F0 FF FF 7F  ....#R..........
0820: 36 35 32 32 45 14 80 F0  FF FF 7F F0 FF FF 7F 36  6522E..........6
0830: 35 32 33 15 80 27 10 9C  52 07 01 0C 1C 17 80 2B  523..'..R......+
0840: 9C 52 07 01 50 80 23 2A  10 9C 52 07 01 66 51 80  .R..P.#*..R..fQ.
0850: 9C 52 07 01 9C 52 07 01  70 61 73 30 2B 9C 52 07  .R...R..pas0+.R.
0860: 01 52 80 23 53 9C 52 07  01 9C 52 07 01 70 61 73  .R.#S.R...R..pas
0870: 30 52 14 80 F0 FF FF 7F  F0 FF FF 7F 36 35 32 33  0R..........6523
0880: 45 14 80 F0 FF FF 7F F0  FF FF 7F 36 35 32 34 15  E..........6524.
0890: 80 03 01 10 20 80 43 00  43 01 2B 9C 52 07 01 53  .... .C.C.+.R..S
08A0: 80 23 7B 9C 52 07 01 66  2B 80 9C 52 07 01 9C 52  .#{.R..f+..R...R
08B0: 07 01 74 68 6B 31 1C 3C  80 2B 9C 52 07 01 54 80  ..thk1.<.+.R..T.
08C0: 23 5D 15 80 3B 80 66 2B  80 9C 52 07 01 9C 52 07  #]..;.f+..R...R.
08D0: 01 74 68 6B 32 1C 55 80  2B 9C 52 07 01 56 80 23  .thk2.U.+.R..V.#
08E0: 53 9C 52 07 01 9C 52 07  01 74 68 6B 32 52 14 80  S.R...R..thk2R..
08F0: F0 FF FF 7F F0 FF FF 7F  36 35 32 34 45 14 80 F0  ........6524E...
0900: FF FF 7F F0 FF FF 7F 36  35 32 35 15 80 6E 9C 52  .......6525..n.R
0910: 07 01 26 80 99 9C 52 07  01 2B 9C 52 07 01 57 80  ..&...R..+.R..W.
0920: 23 1A D9 09 1C 13 80 52  14 80 F0 FF FF 7F F0 FF  #......R........
0930: FF 7F 36 35 32 35 45 14  80 F0 FF FF 7F F0 FF FF  ..6525E.........
0940: 7F 30 62 6C 66 15 80 5C  00 15 80 5C 01 15 80 9A  .0blf..\...\....
0950: 46 00 45 58 80 F8 FF FF  7F F8 FF FF 7F 71 73 74  F.EX.........qst
0960: 63 15 80 45 44 80 F0 FF  FF 7F F0 FF FF 7F 66 64  c..ED.........fd
0970: 69 32 15 80 21 00 45 44  80 F0 FF FF 7F F0 FF FF  i2..!.ED........
0980: 7F 66 64 69 30 15 80 55  44 80 F0 FF FF 7F F0 FF  .fdi0..UD.......
0990: FF 7F 66 64 69 30 1B 45  44 80 F0 FF FF 7F F0 FF  ..fdi0.ED.......
09A0: FF 7F 66 64 6F 30 15 80  55 44 80 F0 FF FF 7F F0  ..fdo0..UD......
09B0: FF FF 7F 66 64 6F 30 1B  45 44 80 F0 FF FF 7F F0  ...fdo0.ED......
09C0: FF FF 7F 66 64 69 31 15  80 55 44 80 F0 FF FF 7F  ...fdi1..UD.....
09D0: F0 FF FF 7F 66 64 69 31  1B 45 44 80 F0 FF FF 7F  ....fdi1.ED.....
09E0: F0 FF FF 7F 66 64 6F 31  15 80 55 44 80 F0 FF FF  ....fdo1..UD....
09F0: 7F F0 FF FF 7F 66 64 6F  31 1B 45 58 80 F0 FF FF  .....fdo1.EX....
0A00: 7F F0 FF FF 7F 77 68 69  31 15 80 55 58 80 F0 FF  .....whi1..UX...
0A10: FF 7F F0 FF FF 7F 77 68  69 31 1B 45 58 80 F0 FF  ......whi1.EX...
0A20: FF 7F F0 FF FF 7F 77 68  6F 31 15 80 55 58 80 F0  ......who1..UX..
0A30: FF FF 7F F0 FF FF 7F 77  68 6F 31 1B 45 58 80 F0  .......who1.EX..
0A40: FF FF 7F F0 FF FF 7F 77  68 6F 32 15 80 55 58 80  .......who2..UX.
0A50: F0 FF FF 7F F0 FF FF 7F  77 68 6F 32 1B 45 58 80  ........who2.EX.
0A60: F0 FF FF 7F F0 FF FF 7F  77 68 6F 33 15 80 55 58  ........who3..UX
0A70: 80 F0 FF FF 7F F0 FF FF  7F 77 68 6F 33 1B 62 20  .........who3.b 
0A80: 80 F0 FF FF 7F F0 FF FF  7F 6D 61 69 6E 15 80 1C  .........main...
0A90: 3C 80 45 44 80 F0 FF FF  7F F0 FF FF 7F 66 64 6F  <.ED.........fdo
0AA0: 31 15 80 55 44 80 F0 FF  FF 7F F0 FF FF 7F 66 64  1..UD.........fd
0AB0: 6F 31 1B 45 44 80 F0 FF  FF 7F F0 FF FF 7F 66 64  o1.ED.........fd
0AC0: 69 31 15 80 62 21 80 F0  FF FF 7F F0 FF FF 7F 6D  i1..b!.........m
0AD0: 61 69 6E 15 80 1C 13 80  55 44 80 F0 FF FF 7F F0  ain.....UD......
0AE0: FF FF 7F 66 64 69 31 1B  45 44 80 F0 FF FF 7F F0  ...fdi1.ED......
0AF0: FF FF 7F 62 6C 6F 6E 15  80 45 58 80 F0 FF FF 7F  ...blon..EX.....
0B00: F0 FF FF 7F 62 6C 6F 6E  15 80 1B 45 58 80 F0 FF  ....blon...EX...
0B10: FF 7F F0 FF FF 7F 77 68  69 30 15 80 55 58 80 F0  ......whi0..UX..
0B20: FF FF 7F F0 FF FF 7F 77  68 69 30 1B 45 58 80 F0  .......whi0.EX..
0B30: FF FF 7F F0 FF FF 7F 77  68 6F 30 15 80 55 58 80  .......who0..UX.
0B40: F0 FF FF 7F F0 FF FF 7F  77 68 6F 30 1B 45 59 80  ........who0.EY.
0B50: F0 FF FF 7F F0 FF FF 7F  65 66 6F 6E 15 80 55 59  ........efon..UY
0B60: 80 F0 FF FF 7F F0 FF FF  7F 65 66 6F 6E 1B 45 44  .........efon.ED
0B70: 80 F0 FF FF 7F F0 FF FF  7F 66 64 69 73 15 80 1B  .........fdis...
0B80: 45 44 80 F0 FF FF 7F F0  FF FF 7F 66 64 6F 73 15  ED.........fdos.
0B90: 80 55 44 80 F0 FF FF 7F  F0 FF FF 7F 66 64 6F 73  .UD.........fdos
0BA0: 1B 45 44 80 F0 FF FF 7F  F0 FF FF 7F 66 64 69 66  .ED.........fdif
0BB0: 15 80 1B 45 44 80 F0 FF  FF 7F F0 FF FF 7F 66 64  ...ED.........fd
0BC0: 6F 66 15 80 55 44 80 F0  FF FF 7F F0 FF FF 7F 66  of..UD.........f
0BD0: 64 6F 66 1B 45 44 80 F0  FF FF 7F F0 FF FF 7F 66  dof.ED.........f
0BE0: 64 69 70 15 80 1B 45 44  80 F0 FF FF 7F F0 FF FF  dip...ED........
0BF0: 7F 66 64 6F 70 15 80 55  44 80 F0 FF FF 7F F0 FF  .fdop..UD.......
0C00: FF 7F 66 64 6F 70 1B                              ..fdop.         
```

#### Opcodes

```
  0: 0x06A4 [0x42] SET_CLI_EVENT_CANCEL_DATA()
  1: 0x06A5 [0x1A] CALL_SUBROUTINE(address=0x09D9)
  2: 0x06A8 [0x46] CAMERA_CONTROL: Disable user control
  3: 0x06AA [0x38] SET_CLIENT_EVENT_MODE(mode=19*)
  4: 0x06AD [0x4E] SET_ENTITY_HIDE_FLAG: Show LocalPlayer
  5: 0x06B3 [0x27] REQ_SET(priority=0x10, entity_id=Kocchi-Arocchi (ID: 17257116/0x0107529C), tag_num=0x02)
  6: 0x06BA [0x4E] SET_ENTITY_HIDE_FLAG: Show Unnamed NPC (ID: 17257119/0x0107529F)
  7: 0x06C0 [0x92] Kocchi-Arocchi (ID: 17257116/0x0107529C)->Render.Flags3 ^= 0x01
  8: 0x06C6 [0x94] LocalPlayer->Render.Flags3 ^= 0x01
  9: 0x06CC [0x94] Kocchi-Arocchi (ID: 17257116/0x0107529C)->Render.Flags3 ^= 0x01
 10: 0x06D2 [0x94] Cavernous Maw (ID: 17257078/0x01075276)->Render.Flags3 ^= 0x01
 11: 0x06D8 [0x94] Unnamed NPC (ID: 17257119/0x0107529F)->Render.Flags3 ^= 0x01
 12: 0x06DE [0xBA] SET_ENTITY_POSITION(entity_id=LocalPlayer, pos_x=-79.532*, pos_z=-718.802*, pos_y=47.999*, direction=309.9°*)
 13: 0x06EB [0xBA] SET_ENTITY_POSITION(entity_id=Kocchi-Arocchi (ID: 17257116/0x0107529C), pos_x=-82.731*, pos_z=-722.622*, pos_y=47.999*, direction=310.0°*)
 14: 0x06F8 [0xBA] SET_ENTITY_POSITION(entity_id=Unnamed NPC (ID: 17257119/0x0107529F), pos_x=-79.191*, pos_z=-718.391*, pos_y=47.999*, direction=309.9°*)
 15: 0x0705 [0xBA] SET_ENTITY_POSITION(entity_id=Cavernous Maw (ID: 17257078/0x01075276), pos_x=-84.897*, pos_z=-725.253*, pos_y=47.101*, direction=313.1°*)
 16: 0x0712 [0x80] LOAD_WAIT(entity=LocalPlayer)
 17: 0x0717 [0x80] LOAD_WAIT(entity=Kocchi-Arocchi (ID: 17257116/0x0107529C))
 18: 0x071C [0x80] LOAD_WAIT(entity=Cavernous Maw (ID: 17257078/0x01075276))
 19: 0x0721 [0x1C] WAIT(30* ticks)
 20: 0x0724 [0x79] LocalPlayer looks at Unnamed NPC (ID: 17257119/0x0107529F) (Basic look)
 21: 0x072E [0x29] REQ_SET_WAIT(priority=0x10, entity_id=LocalPlayer, tag_num=0x0E)
 22: 0x0735 [0x6C] FADE_ENTITY_COLOR(entity_id=LocalPlayer, end_alpha=0*, fade_time=1*)
 23: 0x073E [0x92] LocalPlayer->Render.Flags3 ^= 0x01
 24: 0x0744 [0xCD] LOAD_SCHEDULED_TASK_ALT4: Load scheduler "main" with entities [LocalPlayer, LocalPlayer], work=[80*, 0*]
 25: 0x0755 [0x45] LOAD_SCHEDULED_TASK: Load scheduler "6520" with entities [LocalPlayer, LocalPlayer], work=[488*, 0*]
 26: 0x0766 [0x1A] CALL_SUBROUTINE(address=0x09B8)
 27: 0x0769 [0x1C] WAIT(120* ticks)
 28: 0x076C [0x92] LocalPlayer->Render.Flags3 = Flags3  // No change (flag=0)
 29: 0x0772 [0x1C] WAIT(60* ticks)
 30: 0x0775 [0x7B] LocalPlayer stops talking
 31: 0x077A [0x27] REQ_SET(priority=0x10, entity_id=LocalPlayer, tag_num=0x0F)
 32: 0x0781 [0x1C] WAIT(30* ticks)
 33: 0x0784 [0x52] END_LOAD_SCHEDULER: End scheduler "6520" with entities [LocalPlayer, LocalPlayer], work=488*
 34: 0x0793 [0x45] LOAD_SCHEDULED_TASK: Load scheduler "6521" with entities [LocalPlayer, LocalPlayer], work=[488*, 0*]
 35: 0x07A4 [0xBB] LOAD_EVENT_SCHEDULER_ALT: Load scheduler "out0" with entities [Kocchi-Arocchi (ID: 17257116/0x0107529C), Kocchi-Arocchi (ID: 17257116/0x0107529C)], work=[223*, 0*]
 36: 0x07B5 [0x2B] Kocchi-Arocchi (ID: 17257116/0x0107529C) [11055*]:
    → "Ah, <Player>! I was wondering when you'd come backy-wack."
 37: 0x07BC [0x1C] WAIT(30* ticks)
 38: 0x07BF [0x2A] GET_REQ_LEVEL(level=16, entity_id=LocalPlayer)
 39: 0x07C5 [0x4A] LocalPlayer looks at Kocchi-Arocchi (ID: 17257116/0x0107529C)
 40: 0x07CE [0x23] WAIT_FOR_DIALOG_INTERACTION
 41: 0x07CF [0x6F] WAIT_FRAME_DELAY: Yield until WaitTime reaches zero
 42: 0x07D0 [0x76] CHECK_ENTITY_RENDER_FLAGS: Wait until LocalPlayer Render.Flags0 and Render.Flags3 conditions are met
 43: 0x07D5 [0x5C] MUSIC_CONTROL: Set Idle (Day) music to song 120*
 44: 0x07D9 [0x5C] MUSIC_CONTROL: Set Idle (Night) music to song 120*
 45: 0x07DD [0x9A] WAIT_MUSIC_SERVER()
 46: 0x07DE [0x52] END_LOAD_SCHEDULER: End scheduler "6521" with entities [LocalPlayer, LocalPlayer], work=488*
 47: 0x07ED [0x45] LOAD_SCHEDULED_TASK: Load scheduler "6522" with entities [LocalPlayer, LocalPlayer], work=[488*, 0*]
 48: 0x07FE [0x6E] Kocchi-Arocchi (ID: 17257116/0x0107529C) uses emote 6*
 49: 0x0805 [0x99] Wait for Kocchi-Arocchi (ID: 17257116/0x0107529C) animation to complete
 50: 0x080A [0x2B] Kocchi-Arocchi (ID: 17257116/0x0107529C) [11056*]:
    → "I knew you were high caliber--what with your big, bulging muscles and all--but that you would really-weally finish off that giant worm! Amazing! My only regretaru, though, is not having been there to land the killing blow... <Sigh>..."
 51: 0x0811 [0x1C] WAIT(120* ticks)
 52: 0x0814 [0x23] WAIT_FOR_DIALOG_INTERACTION
 53: 0x0815 [0x52] END_LOAD_SCHEDULER: End scheduler "6522" with entities [LocalPlayer, LocalPlayer], work=488*
 54: 0x0824 [0x45] LOAD_SCHEDULED_TASK: Load scheduler "6523" with entities [LocalPlayer, LocalPlayer], work=[488*, 0*]
 55: 0x0835 [0x27] REQ_SET(priority=0x10, entity_id=Kocchi-Arocchi (ID: 17257116/0x0107529C), tag_num=0x0C)
 56: 0x083C [0x1C] WAIT(60* ticks)
 57: 0x083F [0x2B] Kocchi-Arocchi (ID: 17257116/0x0107529C) [11057*]:
    → "But that's beside the point. The important thing is a glimmer-wimmer of hope has been restored to the resistance! From the bottomless chasm of my heart, thank you!"
 58: 0x0846 [0x23] WAIT_FOR_DIALOG_INTERACTION
 59: 0x0847 [0x2A] GET_REQ_LEVEL(level=16, entity_id=Kocchi-Arocchi (ID: 17257116/0x0107529C))
 60: 0x084D [0x66] LOAD_EXT_SCHEDULER_MAIN: Load scheduler "pas0" with entities [Kocchi-Arocchi (ID: 17257116/0x0107529C), Kocchi-Arocchi (ID: 17257116/0x0107529C)], work=111*
 61: 0x085C [0x2B] Kocchi-Arocchi (ID: 17257116/0x0107529C) [11058*]:
    → "I wantaru you to have this. It's just this little guy's small way of showing his appreciation."
 62: 0x0863 [0x23] WAIT_FOR_DIALOG_INTERACTION
 63: 0x0864 [0x53] WAIT_SCHEDULER_TASK: Wait for scheduler "pas0" with entities [Kocchi-Arocchi (ID: 17257116/0x0107529C), Kocchi-Arocchi (ID: 17257116/0x0107529C)]
 64: 0x0871 [0x52] END_LOAD_SCHEDULER: End scheduler "6523" with entities [LocalPlayer, LocalPlayer], work=488*
 65: 0x0880 [0x45] LOAD_SCHEDULED_TASK: Load scheduler "6524" with entities [LocalPlayer, LocalPlayer], work=[488*, 0*]
 66: 0x0891 [0x03] Work_Zone[1] = 1*
 67: 0x0896 [0x43] SEND_EVENT_UPDATE: Send pending tag to server (packet 0x005B)
 68: 0x0898 [0x43] SEND_EVENT_UPDATE: Check pending flag (skip if not pending)
 69: 0x089A [0x2B] Kocchi-Arocchi (ID: 17257116/0x0107529C) [11059*]:
    → "It's $6, and it works like a charm in the hands of a person-werson of your world. No doubtaru it'll come in handy."
 70: 0x08A1 [0x23] WAIT_FOR_DIALOG_INTERACTION
 71: 0x08A2 [0x7B] Kocchi-Arocchi (ID: 17257116/0x0107529C) stops talking
 72: 0x08A7 [0x66] LOAD_EXT_SCHEDULER_MAIN: Load scheduler "thk1" with entities [Kocchi-Arocchi (ID: 17257116/0x0107529C), Kocchi-Arocchi (ID: 17257116/0x0107529C)], work=40*
 73: 0x08B6 [0x1C] WAIT(45* ticks)
 74: 0x08B9 [0x2B] Kocchi-Arocchi (ID: 17257116/0x0107529C) [11060*]:
    → "Remember-wember what I said earlier, <Player>? No, not the part about fulfilling my destiny, but the destabilizing boundary between worlds."
 75: 0x08C0 [0x23] WAIT_FOR_DIALOG_INTERACTION
 76: 0x08C1 [0x5D] SET_MUSIC_VOLUME(volume=0*, fade_time=300*)
 77: 0x08C6 [0x66] LOAD_EXT_SCHEDULER_MAIN: Load scheduler "thk2" with entities [Kocchi-Arocchi (ID: 17257116/0x0107529C), Kocchi-Arocchi (ID: 17257116/0x0107529C)], work=40*
 78: 0x08D5 [0x1C] WAIT(15* ticks)
 79: 0x08D8 [0x2B] Kocchi-Arocchi (ID: 17257116/0x0107529C) [11061*]:
    → "This wariness inside me defies words, but I have a terrible-werrible foreboding. Laugh at me all you want for a fretting fool, but I intend to stay on my toes...and I suggestaru you do the same."
 80: 0x08DF [0x23] WAIT_FOR_DIALOG_INTERACTION
 81: 0x08E0 [0x53] WAIT_SCHEDULER_TASK: Wait for scheduler "thk2" with entities [Kocchi-Arocchi (ID: 17257116/0x0107529C), Kocchi-Arocchi (ID: 17257116/0x0107529C)]
 82: 0x08ED [0x52] END_LOAD_SCHEDULER: End scheduler "6524" with entities [LocalPlayer, LocalPlayer], work=488*
 83: 0x08FC [0x45] LOAD_SCHEDULED_TASK: Load scheduler "6525" with entities [LocalPlayer, LocalPlayer], work=[488*, 0*]
 84: 0x090D [0x6E] Kocchi-Arocchi (ID: 17257116/0x0107529C) uses emote 7*
 85: 0x0914 [0x99] Wait for Kocchi-Arocchi (ID: 17257116/0x0107529C) animation to complete
 86: 0x0919 [0x2B] Kocchi-Arocchi (ID: 17257116/0x0107529C) [11062*]:
    → "Not that a grizzle-wizzled veteran like you needs reminding, but do be careful, alright?"
 87: 0x0920 [0x23] WAIT_FOR_DIALOG_INTERACTION
 88: 0x0921 [0x1A] CALL_SUBROUTINE(address=0x09D9)
 89: 0x0924 [0x1C] WAIT(30* ticks)
 90: 0x0927 [0x52] END_LOAD_SCHEDULER: End scheduler "6525" with entities [LocalPlayer, LocalPlayer], work=488*
 91: 0x0936 [0x45] LOAD_SCHEDULED_TASK: Load scheduler "0blf" with entities [LocalPlayer, LocalPlayer], work=[488*, 0*]
 92: 0x0947 [0x5C] MUSIC_CONTROL: Set Idle (Day) music to song 0*
 93: 0x094B [0x5C] MUSIC_CONTROL: Set Idle (Night) music to song 0*
 94: 0x094F [0x9A] WAIT_MUSIC_SERVER()
 95: 0x0950 [0x46] CAMERA_CONTROL: Restore default settings
 96: 0x0952 [0x45] LOAD_SCHEDULED_TASK: Load scheduler "qstc" with entities [EventEntity, EventEntity], work=[201*, 0*]
 97: 0x0963 [0x45] LOAD_SCHEDULED_TASK: Load scheduler "fdi2" with entities [LocalPlayer, LocalPlayer], work=[200*, 0*]
 98: 0x0974 [0x21] END_EVENT
 99: 0x0975 [0x00] END_REQSTACK()

SUBROUTINE_09B8:
100: 0x09B8 [0x45] LOAD_SCHEDULED_TASK: Load scheduler "fdi1" with entities [LocalPlayer, LocalPlayer], work=[200*, 0*]
101: 0x09C9 [0x55] WAIT_LOAD_SCHEDULER: Wait for scheduler "fdi1" with entities [LocalPlayer, LocalPlayer], work=200*
102: 0x09D8 [0x1B] RETURN

SUBROUTINE_09D9:
103: 0x09D9 [0x45] LOAD_SCHEDULED_TASK: Load scheduler "fdo1" with entities [LocalPlayer, LocalPlayer], work=[200*, 0*]
104: 0x09EA [0x55] WAIT_LOAD_SCHEDULER: Wait for scheduler "fdo1" with entities [LocalPlayer, LocalPlayer], work=200*
105: 0x09F9 [0x1B] RETURN
```

#### Data or dead code:

```
# Dead code (unreachable instructions):
     0x0976 [0x45] LOAD_SCHEDULED_TASK: Load scheduler "fdi0" with entities [LocalPlayer, LocalPlayer], work=[200*, 0*]
     0x0987 [0x55] WAIT_LOAD_SCHEDULER: Wait for scheduler "fdi0" with entities [LocalPlayer, LocalPlayer], work=200*
     0x0996 [0x1B] RETURN
     0x0997 [0x45] LOAD_SCHEDULED_TASK: Load scheduler "fdo0" with entities [LocalPlayer, LocalPlayer], work=[200*, 0*]
     0x09A8 [0x55] WAIT_LOAD_SCHEDULER: Wait for scheduler "fdo0" with entities [LocalPlayer, LocalPlayer], work=200*
     0x09B7 [0x1B] RETURN
# Dead code (unreachable instructions):
     0x09FA [0x45] LOAD_SCHEDULED_TASK: Load scheduler "whi1" with entities [LocalPlayer, LocalPlayer], work=[201*, 0*]
     0x0A0B [0x55] WAIT_LOAD_SCHEDULER: Wait for scheduler "whi1" with entities [LocalPlayer, LocalPlayer], work=201*
     0x0A1A [0x1B] RETURN
     0x0A1B [0x45] LOAD_SCHEDULED_TASK: Load scheduler "who1" with entities [LocalPlayer, LocalPlayer], work=[201*, 0*]
     0x0A2C [0x55] WAIT_LOAD_SCHEDULER: Wait for scheduler "who1" with entities [LocalPlayer, LocalPlayer], work=201*
     0x0A3B [0x1B] RETURN
     0x0A3C [0x45] LOAD_SCHEDULED_TASK: Load scheduler "who2" with entities [LocalPlayer, LocalPlayer], work=[201*, 0*]
     0x0A4D [0x55] WAIT_LOAD_SCHEDULER: Wait for scheduler "who2" with entities [LocalPlayer, LocalPlayer], work=201*
     0x0A5C [0x1B] RETURN
     0x0A5D [0x45] LOAD_SCHEDULED_TASK: Load scheduler "who3" with entities [LocalPlayer, LocalPlayer], work=[201*, 0*]
     0x0A6E [0x55] WAIT_LOAD_SCHEDULER: Wait for scheduler "who3" with entities [LocalPlayer, LocalPlayer], work=201*
     0x0A7D [0x1B] RETURN
     0x0A7E [0x62] LOAD_EVENT_SCHEDULER: Load scheduler "main" with entities [LocalPlayer, LocalPlayer], work=[1*, 0*]
     0x0A8F [0x1C] WAIT(45* ticks)
     0x0A92 [0x45] LOAD_SCHEDULED_TASK: Load scheduler "fdo1" with entities [LocalPlayer, LocalPlayer], work=[200*, 0*]
     0x0AA3 [0x55] WAIT_LOAD_SCHEDULER: Wait for scheduler "fdo1" with entities [LocalPlayer, LocalPlayer], work=200*
     0x0AB2 [0x1B] RETURN
     0x0AB3 [0x45] LOAD_SCHEDULED_TASK: Load scheduler "fdi1" with entities [LocalPlayer, LocalPlayer], work=[200*, 0*]
     0x0AC4 [0x62] LOAD_EVENT_SCHEDULER: Load scheduler "main" with entities [LocalPlayer, LocalPlayer], work=[2*, 0*]
     0x0AD5 [0x1C] WAIT(30* ticks)
     0x0AD8 [0x55] WAIT_LOAD_SCHEDULER: Wait for scheduler "fdi1" with entities [LocalPlayer, LocalPlayer], work=200*
     0x0AE7 [0x1B] RETURN
     0x0AE8 [0x45] LOAD_SCHEDULED_TASK: Load scheduler "blon" with entities [LocalPlayer, LocalPlayer], work=[200*, 0*]
     0x0AF9 [0x45] LOAD_SCHEDULED_TASK: Load scheduler "blon" with entities [LocalPlayer, LocalPlayer], work=[201*, 0*]
     0x0B0A [0x1B] RETURN
     0x0B0B [0x45] LOAD_SCHEDULED_TASK: Load scheduler "whi0" with entities [LocalPlayer, LocalPlayer], work=[201*, 0*]
     0x0B1C [0x55] WAIT_LOAD_SCHEDULER: Wait for scheduler "whi0" with entities [LocalPlayer, LocalPlayer], work=201*
     0x0B2B [0x1B] RETURN
     0x0B2C [0x45] LOAD_SCHEDULED_TASK: Load scheduler "who0" with entities [LocalPlayer, LocalPlayer], work=[201*, 0*]
     0x0B3D [0x55] WAIT_LOAD_SCHEDULER: Wait for scheduler "who0" with entities [LocalPlayer, LocalPlayer], work=201*
     0x0B4C [0x1B] RETURN
     0x0B4D [0x45] LOAD_SCHEDULED_TASK: Load scheduler "efon" with entities [LocalPlayer, LocalPlayer], work=[215*, 0*]
     0x0B5E [0x55] WAIT_LOAD_SCHEDULER: Wait for scheduler "efon" with entities [LocalPlayer, LocalPlayer], work=215*
     0x0B6D [0x1B] RETURN
     0x0B6E [0x45] LOAD_SCHEDULED_TASK: Load scheduler "fdis" with entities [LocalPlayer, LocalPlayer], work=[200*, 0*]
     0x0B7F [0x1B] RETURN
     0x0B80 [0x45] LOAD_SCHEDULED_TASK: Load scheduler "fdos" with entities [LocalPlayer, LocalPlayer], work=[200*, 0*]
     0x0B91 [0x55] WAIT_LOAD_SCHEDULER: Wait for scheduler "fdos" with entities [LocalPlayer, LocalPlayer], work=200*
     0x0BA0 [0x1B] RETURN
     0x0BA1 [0x45] LOAD_SCHEDULED_TASK: Load scheduler "fdif" with entities [LocalPlayer, LocalPlayer], work=[200*, 0*]
     0x0BB2 [0x1B] RETURN
     0x0BB3 [0x45] LOAD_SCHEDULED_TASK: Load scheduler "fdof" with entities [LocalPlayer, LocalPlayer], work=[200*, 0*]
     0x0BC4 [0x55] WAIT_LOAD_SCHEDULER: Wait for scheduler "fdof" with entities [LocalPlayer, LocalPlayer], work=200*
     0x0BD3 [0x1B] RETURN
     0x0BD4 [0x45] LOAD_SCHEDULED_TASK: Load scheduler "fdip" with entities [LocalPlayer, LocalPlayer], work=[200*, 0*]
     0x0BE5 [0x1B] RETURN
     0x0BE6 [0x45] LOAD_SCHEDULED_TASK: Load scheduler "fdop" with entities [LocalPlayer, LocalPlayer], work=[200*, 0*]
     0x0BF7 [0x55] WAIT_LOAD_SCHEDULER: Wait for scheduler "fdop" with entities [LocalPlayer, LocalPlayer], work=200*
     0x0C06 [0x1B] RETURN
```
