# 17257061 - Pucotte

## Common Data

| Field            | Value                     |
|------------------|---------------------------|
| Zone             | Tahrongi Canyon (ID: 117) |
| Block Size       | 256 bytes                 |
| Total Events     | 3                         |
| References Count | 12                        |

## List of Events

| Event ID              | Entrypoint   |   Size |   Instructions |
|-----------------------|--------------|--------|----------------|
| [65535](#event-65535) | 0x0000       |      1 |              1 |
| [910](#event-910)     | 0x0001       |    162 |             33 |
| [911](#event-911)     | 0x00A3       |     16 |              6 |

## DAT References (imed_data)

|   Index | Hex Value   |   Dec Value |
|---------|-------------|-------------|
|       0 | 0xFFFFFFFC  |  4294967292 |
|       1 | 0x1D34      |        7476 |
|       2 | 0x0000      |           0 |
|       3 | 0x00C9      |         201 |
|       4 | 0xFFFFFFFF  |  4294967295 |
|       5 | 0x008A      |         138 |
|       6 | 0x1D2E      |        7470 |
|       7 | 0x1D31      |        7473 |
|       8 | 0x0001      |           1 |
|       9 | 0x1D32      |        7474 |
|      10 | 0x40000000  |  1073741824 |
|      11 | 0x1D2D      |        7469 |

## String References

- **7469**: If you wish to ride a chocobo, you must possess $6 and have a high enough job level.
- **7470**: You can rent a chocobo for $0 gil. I see you currently have $1 gil.
- **7473**: Do you wish to rent a chocobo? [Yes, I do./No, thank you.]
- **7474**: You don't have enough gil.
- **7476**: Would you be so kind as to deliver her to [the entrance to the Gustav Tunnel (B-8)/Bibiki Bay (G-10)/the entrance of Uggalepih Temple (J-11)]?

## Events

### Event 65535

#### Metadata

| Field        | Value   |
|--------------|---------|
| Entrypoint   | 0x0000  |
| Data Size    | 1 bytes |
| Instructions | 1       |

```
      00 01 02 03 04 05 06 07  08 09 0A 0B 0C 0D 0E 0F
      -- -- -- -- -- -- -- --  -- -- -- -- -- -- -- --
0000: 00                                                .               
```

#### Opcodes

```
  0: 0x0000 [0x00] END_REQSTACK()
```

### Event 910

#### Metadata

| Field        | Value     |
|--------------|-----------|
| Entrypoint   | 0x0001    |
| Data Size    | 162 bytes |
| Instructions | 31        |

```
      00 01 02 03 04 05 06 07  08 09 0A 0B 0C 0D 0E 0F
      -- -- -- -- -- -- -- --  -- -- -- -- -- -- -- --
0000:    02 02 10 00 80 00 29  00 42 1D 01 80 23 02 04   ......).B...#..
0010: 10 02 80 00 27 00 45 03  80 F8 FF FF 7F F8 FF FF  ....'.E.........
0020: 7F 63 68 63 6F 02 80 21  00 02 02 10 04 80 00 4C  .chco..!.......L
0030: 00 02 04 10 02 80 00 4A  00 45 03 80 F8 FF FF 7F  .......J.E......
0040: F8 FF FF 7F 63 68 63 6F  02 80 21 00 03 09 10 05  ....chco..!.....
0050: 80 1E F0 FF FF 7F 1D 06  80 23 24 07 80 08 80 02  .........#$.....
0060: 80 25 02 00 10 02 80 00  9C 00 02 03 10 02 10 04  .%..............
0070: 8E 00 02 04 10 02 80 00  8B 00 45 03 80 F8 FF FF  ..........E.....
0080: 7F F8 FF FF 7F 63 68 63  6F 02 80 01 97 00 1D 09  .....chco.......
0090: 80 23 03 01 10 0A 80 21  00 01 A1 00 03 01 10 0A  .#.....!........
00A0: 80 21 00                                          .!.             
```

#### Opcodes

```
  0: 0x0001 [0x02] IF !(Work_Zone[2] == 4294967292*) GOTO 0x0029
  1: 0x0009 [0x42] SET_CLI_EVENT_CANCEL_DATA()
  2: 0x000A [0x1D] PRINT_EVENT_MESSAGE(message_id=7476*)
    → "Would you be so kind as to deliver her to [the entrance to the Gustav Tunnel (B-8)/Bibiki Bay (G-10)/the entrance of Uggalepih Temple (J-11)]?"
  3: 0x000D [0x23] WAIT_FOR_DIALOG_INTERACTION
  4: 0x000E [0x02] IF !(Work_Zone[4] == 0*) GOTO 0x0027
  5: 0x0016 [0x45] LOAD_SCHEDULED_TASK: Load scheduler "chco" with entities [EventEntity, EventEntity], work=[201*, 0*]
  6: 0x0027 [0x21] END_EVENT
  7: 0x0028 [0x00] END_REQSTACK()
  8: 0x0029 [0x02] IF !(Work_Zone[2] == 4294967295*) GOTO 0x004C
  9: 0x0031 [0x02] IF !(Work_Zone[4] == 0*) GOTO 0x004A
 10: 0x0039 [0x45] LOAD_SCHEDULED_TASK: Load scheduler "chco" with entities [EventEntity, EventEntity], work=[201*, 0*]
 11: 0x004A [0x21] END_EVENT
 12: 0x004B [0x00] END_REQSTACK()
 13: 0x004C [0x03] Work_Zone[9] = 138*
 14: 0x0051 [0x1E] EventEntity looks at LocalPlayer and starts talking
 15: 0x0056 [0x1D] PRINT_EVENT_MESSAGE(message_id=7470*)
    → "You can rent a chocobo for $0 gil. I see you currently have $1 gil."
 16: 0x0059 [0x23] WAIT_FOR_DIALOG_INTERACTION
 17: 0x005A [0x24] CREATE_DIALOG(message_id=7473*, default_option=1*, option_flags=0*)
    → "Do you wish to rent a chocobo? [Yes, I do./No, thank you.]"
 18: 0x0061 [0x25] WAIT_DIALOG_SELECT()
 19: 0x0062 [0x02] IF !(Work_Zone[0] == 0*) GOTO 0x009C
 20: 0x006A [0x02] IF !(Work_Zone[3] < Work_Zone[2]) GOTO 0x008E
 21: 0x0072 [0x02] IF !(Work_Zone[4] == 0*) GOTO 0x008B
 22: 0x007A [0x45] LOAD_SCHEDULED_TASK: Load scheduler "chco" with entities [EventEntity, EventEntity], work=[201*, 0*]
 23: 0x008B [0x01] GOTO 0x0097
 24: 0x008E [0x1D] PRINT_EVENT_MESSAGE(message_id=7474*)
    → "You don't have enough gil."
 25: 0x0091 [0x23] WAIT_FOR_DIALOG_INTERACTION
 26: 0x0092 [0x03] Work_Zone[1] = 1073741824*

SUBROUTINE_0097:
 27: 0x0097 [0x21] END_EVENT
 28: 0x0098 [0x00] END_REQSTACK()

SUBROUTINE_00A1:
 29: 0x00A1 [0x21] END_EVENT
 30: 0x00A2 [0x00] END_REQSTACK()
```

#### Data or dead code:

```
# Dead code (unreachable instructions):
     0x0099 [0x01] GOTO 0x00A1
```

### Event 911

#### Metadata

| Field        | Value    |
|--------------|----------|
| Entrypoint   | 0x00A3   |
| Data Size    | 16 bytes |
| Instructions | 6        |

```
      00 01 02 03 04 05 06 07  08 09 0A 0B 0C 0D 0E 0F
      -- -- -- -- -- -- -- --  -- -- -- -- -- -- -- --
00A0:          03 09 10 05 80  1E F0 FF FF 7F 1D 0B 80     .............
00B0: 23 21 00                                          #!.             
```

#### Opcodes

```
  0: 0x00A3 [0x03] Work_Zone[9] = 138*
  1: 0x00A8 [0x1E] EventEntity looks at LocalPlayer and starts talking
  2: 0x00AD [0x1D] PRINT_EVENT_MESSAGE(message_id=7469*)
    → "If you wish to ride a chocobo, you must possess $6 and have a high enough job level."
  3: 0x00B0 [0x23] WAIT_FOR_DIALOG_INTERACTION
  4: 0x00B1 [0x21] END_EVENT
  5: 0x00B2 [0x00] END_REQSTACK()
```
