# 17257126

## Common Data

| Field            | Value                     |
|------------------|---------------------------|
| Zone             | Tahrongi Canyon (ID: 117) |
| Block Size       | 84 bytes                  |
| Total Events     | 4                         |
| References Count | 2                         |

## List of Events

| Event ID              | Entrypoint   |   Size |   Instructions |
|-----------------------|--------------|--------|----------------|
| [65535](#event-65535) | 0x0000       |      1 |              1 |
| [15000](#event-15000) | 0x0001       |      1 |              1 |
| [15003](#event-15003) | 0x0002       |     28 |              7 |
| [15004](#event-15004) | 0x001E       |     11 |              3 |

## DAT References (imed_data)

|   Index | Hex Value   |   Dec Value |
|---------|-------------|-------------|
|       0 | 0x0000      |           0 |
|       1 | 0x0001      |           1 |

## Events

### Event 65535

#### Metadata

| Field        | Value   |
|--------------|---------|
| Entrypoint   | 0x0000  |
| Data Size    | 1 bytes |
| Instructions | 1       |

```
      00 01 02 03 04 05 06 07  08 09 0A 0B 0C 0D 0E 0F
      -- -- -- -- -- -- -- --  -- -- -- -- -- -- -- --
0000: 00                                                .               
```

#### Opcodes

```
  0: 0x0000 [0x00] END_REQSTACK()
```

### Event 15000

#### Metadata

| Field        | Value   |
|--------------|---------|
| Entrypoint   | 0x0001  |
| Data Size    | 1 bytes |
| Instructions | 1       |

```
      00 01 02 03 04 05 06 07  08 09 0A 0B 0C 0D 0E 0F
      -- -- -- -- -- -- -- --  -- -- -- -- -- -- -- --
0000:    00                                              .              
```

#### Opcodes

```
  0: 0x0001 [0x00] END_REQSTACK()
```

### Event 15003

#### Metadata

| Field        | Value    |
|--------------|----------|
| Entrypoint   | 0x0002   |
| Data Size    | 28 bytes |
| Instructions | 7        |

```
      00 01 02 03 04 05 06 07  08 09 0A 0B 0C 0D 0E 0F
      -- -- -- -- -- -- -- --  -- -- -- -- -- -- -- --
0000:       03 00 00 00 80 03  01 00 00 80 02 01 00 00    ..............
0010: 80 00 1D 00 1C 01 80 57  00 00 01 0C 00 00        .......W......  
```

#### Opcodes

```
  0: 0x0002 [0x03] ExtData[1]->WorkLocal[0] = 0*
  1: 0x0007 [0x03] ExtData[1]->WorkLocal[1] = 0*
  2: 0x000C [0x02] IF !(ExtData[1]->WorkLocal[1] == 0*) GOTO 0x001D
  3: 0x0014 [0x1C] WAIT(1* ticks)
  4: 0x0017 [0x57] CREATE_FRAME_DELAY(delay=ExtData[1]->WorkLocal[0])
  5: 0x001A [0x01] GOTO 0x000C
  6: 0x001D [0x00] END_REQSTACK()
```

### Event 15004

#### Metadata

| Field        | Value    |
|--------------|----------|
| Entrypoint   | 0x001E   |
| Data Size    | 11 bytes |
| Instructions | 3        |

```
      00 01 02 03 04 05 06 07  08 09 0A 0B 0C 0D 0E 0F
      -- -- -- -- -- -- -- --  -- -- -- -- -- -- -- --
0010:                                            03 01                ..
0020: 00 01 80 03 03 10 00 00  00                       .........       
```

#### Opcodes

```
  0: 0x001E [0x03] ExtData[1]->WorkLocal[1] = 1*
  1: 0x0023 [0x03] Work_Zone[3] = ExtData[1]->WorkLocal[0]
  2: 0x0028 [0x00] END_REQSTACK()
```
