# 17257150

## Common Data

| Field            | Value                     |
|------------------|---------------------------|
| Zone             | Tahrongi Canyon (ID: 117) |
| Block Size       | 1088 bytes                |
| Total Events     | 3                         |
| References Count | 34                        |

## List of Events

| Event ID              | Entrypoint   |   Size |   Instructions |
|-----------------------|--------------|--------|----------------|
| [65535](#event-65535) | 0x0000       |      1 |              1 |
| [44](#event-44)       | 0x0001       |    492 |             56 |
| [45](#event-45)       | 0x01ED       |    429 |             49 |

## DAT References (imed_data)

|   Index | Hex Value   |   Dec Value |
|---------|-------------|-------------|
|       0 | 0x00C8      |         200 |
|       1 | 0x0000      |           0 |
|       2 | 0x001B      |          27 |
|       3 | 0x419CA     |      268746 |
|       4 | 0x52AD0     |      338640 |
|       5 | 0x8B42      |       35650 |
|       6 | 0x0829      |        2089 |
|       7 | 0x3FE8A     |      261770 |
|       8 | 0x53725     |      341797 |
|       9 | 0x894E      |       35150 |
|      10 | 0x067C      |        1660 |
|      11 | 0x02FE      |         766 |
|      12 | 0x000F      |          15 |
|      13 | 0x003C      |          60 |
|      14 | 0x2F62      |       12130 |
|      15 | 0x0F16      |        3862 |
|      16 | 0x2F63      |       12131 |
|      17 | 0x0082      |         130 |
|      18 | 0x001E      |          30 |
|      19 | 0x004B      |          75 |
|      20 | 0x00C9      |         201 |
|      21 | 0x0080      |         128 |
|      22 | 0x0001      |           1 |
|      23 | 0x3F7A0     |      260000 |
|      24 | 0x53020     |      340000 |
|      25 | 0x7D96      |       32150 |
|      26 | 0x4039E     |      263070 |
|      27 | 0x530C5     |      340165 |
|      28 | 0x0680      |        1664 |
|      29 | 0x0096      |         150 |
|      30 | 0x07E9      |        2025 |
|      31 | 0x0078      |         120 |
|      32 | 0x2F64      |       12132 |
|      33 | 0x00B4      |         180 |

## String References

- **12132**: Meet...Altana...

## Events

### Event 65535

#### Metadata

| Field        | Value   |
|--------------|---------|
| Entrypoint   | 0x0000  |
| Data Size    | 1 bytes |
| Instructions | 1       |

```
      00 01 02 03 04 05 06 07  08 09 0A 0B 0C 0D 0E 0F
      -- -- -- -- -- -- -- --  -- -- -- -- -- -- -- --
0000: 00                                                .               
```

#### Opcodes

```
  0: 0x0000 [0x00] END_REQSTACK()
```

### Event 44

#### Metadata

| Field        | Value     |
|--------------|-----------|
| Entrypoint   | 0x0001    |
| Data Size    | 492 bytes |
| Instructions | 56        |

```
      00 01 02 03 04 05 06 07  08 09 0A 0B 0C 0D 0E 0F
      -- -- -- -- -- -- -- --  -- -- -- -- -- -- -- --
0000:    42 03 00 00 02 10 45  00 80 F8 FF FF 7F F8 FF   B.....E........
0010: FF 7F 66 64 6F 31 01 80  55 00 80 F8 FF FF 7F F8  ..fdo1..U.......
0020: FF FF 7F 66 64 6F 31 46  01 38 02 80 2F 00 A9 52  ...fdo1F.8../..R
0030: 07 01 4E 00 A9 52 07 01  92 01 A9 52 07 01 94 01  ..N..R.....R....
0040: A9 52 07 01 94 01 F0 FF  FF 7F BA A9 52 07 01 03  .R..........R...
0050: 80 04 80 05 80 06 80 BA  F0 FF FF 7F 07 80 08 80  ................
0060: 09 80 0A 80 80 A9 52 07  01 80 F0 FF FF 7F 27 05  ......R.......'.
0070: A9 52 07 01 14 45 0B 80  F8 FF FF 7F F8 FF FF 7F  .R...E..........
0080: 73 30 30 37 01 80 1C 0C  80 45 00 80 F8 FF FF 7F  s007.....E......
0090: F8 FF FF 7F 66 64 69 31  01 80 1C 0D 80 4A F0 FF  ....fdi1.....J..
00A0: FF 7F A9 52 07 01 2B A9  52 07 01 0E 80 23 2A 05  ...R..+.R....#*.
00B0: A9 52 07 01 52 0B 80 F8  FF FF 7F F8 FF FF 7F 73  .R..R..........s
00C0: 30 30 37 45 0B 80 F8 FF  FF 7F F8 FF FF 7F 73 30  007E..........s0
00D0: 30 38 01 80 5B 0F 80 A9  52 07 01 A9 52 07 01 79  08..[...R...R..y
00E0: 65 73 30 2B A9 52 07 01  10 80 1C 11 80 23 52 0B  es0+.R.......#R.
00F0: 80 F8 FF FF 7F F8 FF FF  7F 73 30 30 38 45 0B 80  .........s008E..
0100: F8 FF FF 7F F8 FF FF 7F  73 30 30 39 01 80 27 05  ........s009..'.
0110: A9 52 07 01 15 7B A9 52  07 01 1C 12 80 29 05 F0  .R...{.R.....)..
0120: FF FF 7F 21 1C 12 80 9F  13 80 F0 FF FF 7F F0 FF  ...!............
0130: FF 7F 6D 61 69 6E 01 80  1C 12 80 9F 13 80 A9 52  ..main.........R
0140: 07 01 A9 52 07 01 6D 61  69 6E 01 80 1C 0D 80 92  ...R..main......
0150: 01 F0 FF FF 7F 1C 0D 80  45 14 80 F8 FF FF 7F F8  ........E.......
0160: FF FF 7F 77 68 6F 31 01  80 55 14 80 F8 FF FF 7F  ...who1..U......
0170: F8 FF FF 7F 77 68 6F 31  45 00 80 F8 FF FF 7F F8  ....who1E.......
0180: FF FF 7F 66 64 6F 31 01  80 55 00 80 F8 FF FF 7F  ...fdo1..U......
0190: F8 FF FF 7F 66 64 6F 31  52 0B 80 F8 FF FF 7F F8  ....fdo1R.......
01A0: FF FF 7F 73 30 30 39 6C  F0 FF FF 7F 15 80 16 80  ...s009l........
01B0: 45 14 80 F8 FF FF 7F F8  FF FF 7F 77 68 69 30 01  E..........whi0.
01C0: 80 55 14 80 F8 FF FF 7F  F8 FF FF 7F 77 68 69 30  .U..........whi0
01D0: 46 00 02 00 00 16 80 00  EB 01 45 00 80 F8 FF FF  F.........E.....
01E0: 7F F8 FF FF 7F 66 64 69  32 01 80 21 00           .....fdi2..!.   
```

#### Opcodes

```
  0: 0x0001 [0x42] SET_CLI_EVENT_CANCEL_DATA()
  1: 0x0002 [0x03] ExtData[1]->WorkLocal[0] = Work_Zone[2]
  2: 0x0007 [0x45] LOAD_SCHEDULED_TASK: Load scheduler "fdo1" with entities [EventEntity, EventEntity], work=[200*, 0*]
  3: 0x0018 [0x55] WAIT_LOAD_SCHEDULER: Wait for scheduler "fdo1" with entities [EventEntity, EventEntity], work=200*
  4: 0x0027 [0x46] CAMERA_CONTROL: Disable user control
  5: 0x0029 [0x38] SET_CLIENT_EVENT_MODE(mode=27*)
  6: 0x002C [0x2F] Iroha (ID: 17257129/0x010752A9)->Render.Flags0 &= ~0x80000 // Bit 19
  7: 0x0032 [0x4E] SET_ENTITY_HIDE_FLAG: Show Iroha (ID: 17257129/0x010752A9)
  8: 0x0038 [0x92] Iroha (ID: 17257129/0x010752A9)->Render.Flags3 ^= 0x01
  9: 0x003E [0x94] Iroha (ID: 17257129/0x010752A9)->Render.Flags3 ^= 0x01
 10: 0x0044 [0x94] LocalPlayer->Render.Flags3 ^= 0x01
 11: 0x004A [0xBA] SET_ENTITY_POSITION(entity_id=Iroha (ID: 17257129/0x010752A9), pos_x=268.746*, pos_z=338.640*, pos_y=35.650*, direction=183.6°*)
 12: 0x0057 [0xBA] SET_ENTITY_POSITION(entity_id=LocalPlayer, pos_x=261.770*, pos_z=341.797*, pos_y=35.150*, direction=145.9°*)
 13: 0x0064 [0x80] LOAD_WAIT(entity=Iroha (ID: 17257129/0x010752A9))
 14: 0x0069 [0x80] LOAD_WAIT(entity=LocalPlayer)
 15: 0x006E [0x27] REQ_SET(priority=0x05, entity_id=Iroha (ID: 17257129/0x010752A9), tag_num=0x14)
 16: 0x0075 [0x45] LOAD_SCHEDULED_TASK: Load scheduler "s007" with entities [EventEntity, EventEntity], work=[766*, 0*]
 17: 0x0086 [0x1C] WAIT(15* ticks)
 18: 0x0089 [0x45] LOAD_SCHEDULED_TASK: Load scheduler "fdi1" with entities [EventEntity, EventEntity], work=[200*, 0*]
 19: 0x009A [0x1C] WAIT(60* ticks)
 20: 0x009D [0x4A] LocalPlayer looks at Iroha (ID: 17257129/0x010752A9)
 21: 0x00A6 [0x2B] Iroha (ID: 17257129/0x010752A9) [12130*]:
    → "Ah, Master. Excellent timing."
 22: 0x00AD [0x23] WAIT_FOR_DIALOG_INTERACTION
 23: 0x00AE [0x2A] GET_REQ_LEVEL(level=5, entity_id=Iroha (ID: 17257129/0x010752A9))
 24: 0x00B4 [0x52] END_LOAD_SCHEDULER: End scheduler "s007" with entities [EventEntity, EventEntity], work=766*
 25: 0x00C3 [0x45] LOAD_SCHEDULED_TASK: Load scheduler "s008" with entities [EventEntity, EventEntity], work=[766*, 0*]
 26: 0x00D4 [0x5B] LOAD_EXT_SCHEDULER: Load scheduler "yes0" with entities [Iroha (ID: 17257129/0x010752A9), Iroha (ID: 17257129/0x010752A9)], work=3862*
 27: 0x00E3 [0x2B] Iroha (ID: 17257129/0x010752A9) [12131*]:
    → "Come! To the world of the gods!"
 28: 0x00EA [0x1C] WAIT(130* ticks)
 29: 0x00ED [0x23] WAIT_FOR_DIALOG_INTERACTION
 30: 0x00EE [0x52] END_LOAD_SCHEDULER: End scheduler "s008" with entities [EventEntity, EventEntity], work=766*
 31: 0x00FD [0x45] LOAD_SCHEDULED_TASK: Load scheduler "s009" with entities [EventEntity, EventEntity], work=[766*, 0*]
 32: 0x010E [0x27] REQ_SET(priority=0x05, entity_id=Iroha (ID: 17257129/0x010752A9), tag_num=0x15)
 33: 0x0115 [0x7B] Iroha (ID: 17257129/0x010752A9) stops talking
 34: 0x011A [0x1C] WAIT(30* ticks)
 35: 0x011D [0x29] REQ_SET_WAIT(priority=0x05, entity_id=LocalPlayer, tag_num=0x21)
 36: 0x0124 [0x1C] WAIT(30* ticks)
 37: 0x0127 [0x9F] LOAD_SCHEDULED_TASK_ALT: Load scheduler "main" with entities [LocalPlayer, LocalPlayer], work=[75*, 0*]
 38: 0x0138 [0x1C] WAIT(30* ticks)
 39: 0x013B [0x9F] LOAD_SCHEDULED_TASK_ALT: Load scheduler "main" with entities [Iroha (ID: 17257129/0x010752A9), Iroha (ID: 17257129/0x010752A9)], work=[75*, 0*]
 40: 0x014C [0x1C] WAIT(60* ticks)
 41: 0x014F [0x92] LocalPlayer->Render.Flags3 ^= 0x01
 42: 0x0155 [0x1C] WAIT(60* ticks)
 43: 0x0158 [0x45] LOAD_SCHEDULED_TASK: Load scheduler "who1" with entities [EventEntity, EventEntity], work=[201*, 0*]
 44: 0x0169 [0x55] WAIT_LOAD_SCHEDULER: Wait for scheduler "who1" with entities [EventEntity, EventEntity], work=201*
 45: 0x0178 [0x45] LOAD_SCHEDULED_TASK: Load scheduler "fdo1" with entities [EventEntity, EventEntity], work=[200*, 0*]
 46: 0x0189 [0x55] WAIT_LOAD_SCHEDULER: Wait for scheduler "fdo1" with entities [EventEntity, EventEntity], work=200*
 47: 0x0198 [0x52] END_LOAD_SCHEDULER: End scheduler "s009" with entities [EventEntity, EventEntity], work=766*
 48: 0x01A7 [0x6C] FADE_ENTITY_COLOR(entity_id=LocalPlayer, end_alpha=128*, fade_time=1*)
 49: 0x01B0 [0x45] LOAD_SCHEDULED_TASK: Load scheduler "whi0" with entities [EventEntity, EventEntity], work=[201*, 0*]
 50: 0x01C1 [0x55] WAIT_LOAD_SCHEDULER: Wait for scheduler "whi0" with entities [EventEntity, EventEntity], work=201*
 51: 0x01D0 [0x46] CAMERA_CONTROL: Restore default settings
 52: 0x01D2 [0x02] IF !(ExtData[1]->WorkLocal[0] == 1*) GOTO 0x01EB
 53: 0x01DA [0x45] LOAD_SCHEDULED_TASK: Load scheduler "fdi2" with entities [EventEntity, EventEntity], work=[200*, 0*]
 54: 0x01EB [0x21] END_EVENT
 55: 0x01EC [0x00] END_REQSTACK()
```

### Event 45

#### Metadata

| Field        | Value     |
|--------------|-----------|
| Entrypoint   | 0x01ED    |
| Data Size    | 429 bytes |
| Instructions | 49        |

```
      00 01 02 03 04 05 06 07  08 09 0A 0B 0C 0D 0E 0F
      -- -- -- -- -- -- -- --  -- -- -- -- -- -- -- --
01E0:                                         42 45 00               BE.
01F0: 80 F0 FF FF 7F F0 FF FF  7F 66 64 6F 31 01 80 55  .........fdo1..U
0200: 00 80 F0 FF FF 7F F0 FF  FF 7F 66 64 6F 31 46 01  ..........fdo1F.
0210: 38 02 80 4E 00 F0 FF FF  7F 22 00 94 01 F0 FF FF  8..N....."......
0220: 7F 33 01 37 17 80 18 80  19 80 01 80 BA F0 FF FF  .3.7............
0230: 7F 1A 80 1B 80 09 80 1C  80 80 F0 FF FF 7F 80 F8  ................
0240: FF FF 7F 1C 12 80 2C F0  FF FF 7F F0 FF FF 7F 63  ......,........c
0250: 6F 72 70 1C 12 80 45 0B  80 F8 FF FF 7F F8 FF FF  orp...E.........
0260: 7F 73 30 34 31 01 80 1C  0C 80 45 00 80 F0 FF FF  .s041.....E.....
0270: 7F F0 FF FF 7F 66 64 69  31 01 80 1C 1D 80 45 00  .....fdi1.....E.
0280: 80 F0 FF FF 7F F0 FF FF  7F 6F 76 6C 31 01 80 52  .........ovl1..R
0290: 0B 80 F8 FF FF 7F F8 FF  FF 7F 73 30 34 31 45 0B  ..........s041E.
02A0: 80 F8 FF FF 7F F8 FF FF  7F 73 30 34 32 01 80 1C  .........s042...
02B0: 12 80 6B 69 64 6C 30 F0  FF FF 7F BA F0 FF FF 7F  ..kidl0.........
02C0: 1A 80 1B 80 09 80 1E 80  27 05 F0 FF FF 7F 0E 1C  ........'.......
02D0: 1F 80 2A 05 F0 FF FF 7F  52 0B 80 F8 FF FF 7F F8  ..*.....R.......
02E0: FF FF 7F 73 30 34 32 45  0B 80 F8 FF FF 7F F8 FF  ...s042E........
02F0: FF 7F 73 30 34 33 01 80  27 05 F0 FF FF 7F 0F 1C  ..s043..'.......
0300: 1D 80 52 0B 80 F8 FF FF  7F F8 FF FF 7F 73 30 34  ..R..........s04
0310: 33 45 0B 80 F8 FF FF 7F  F8 FF FF 7F 73 31 31 39  3E..........s119
0320: 01 80 79 00 F0 FF FF 7F  F8 FF FF 7F 1D 20 80 23  ..y.......... .#
0330: 1C 1F 80 52 0B 80 F8 FF  FF 7F F8 FF FF 7F 73 31  ...R..........s1
0340: 31 39 45 0B 80 F8 FF FF  7F F8 FF FF 7F 73 31 32  19E..........s12
0350: 30 01 80 1C 21 80 45 00  80 F0 FF FF 7F F0 FF FF  0...!.E.........
0360: 7F 66 64 6F 31 01 80 55  00 80 F0 FF FF 7F F0 FF  .fdo1..U........
0370: FF 7F 66 64 6F 31 52 0B  80 F8 FF FF 7F F8 FF FF  ..fdo1R.........
0380: 7F 73 31 32 30 46 00 45  00 80 F0 FF FF 7F F0 FF  .s120F.E........
0390: FF 7F 66 64 69 32 01 80  21 00                    ..fdi2..!.      
```

#### Opcodes

```
  0: 0x01ED [0x42] SET_CLI_EVENT_CANCEL_DATA()
  1: 0x01EE [0x45] LOAD_SCHEDULED_TASK: Load scheduler "fdo1" with entities [LocalPlayer, LocalPlayer], work=[200*, 0*]
  2: 0x01FF [0x55] WAIT_LOAD_SCHEDULER: Wait for scheduler "fdo1" with entities [LocalPlayer, LocalPlayer], work=200*
  3: 0x020E [0x46] CAMERA_CONTROL: Disable user control
  4: 0x0210 [0x38] SET_CLIENT_EVENT_MODE(mode=27*)
  5: 0x0213 [0x4E] SET_ENTITY_HIDE_FLAG: Show LocalPlayer
  6: 0x0219 [0x22] ENTITY_HIDE_FLAG(enabled=0x00)
  7: 0x021B [0x94] LocalPlayer->Render.Flags3 ^= 0x01
  8: 0x0221 [0x33] EventEntity->Render.Flags0 |= 0x200000 // Bit 21 (flag=0x01)
  9: 0x0223 [0x37] UPDATE_EVENT_POSITION_AND_DIR: x=260.000*, z=340.000*, y=32.150*, direction=0.0°*
 10: 0x022C [0xBA] SET_ENTITY_POSITION(entity_id=LocalPlayer, pos_x=263.070*, pos_z=340.165*, pos_y=35.150*, direction=146.2°*)
 11: 0x0239 [0x80] LOAD_WAIT(entity=LocalPlayer)
 12: 0x023E [0x80] LOAD_WAIT(entity=EventEntity)
 13: 0x0243 [0x1C] WAIT(30* ticks)
 14: 0x0246 [0x2C] CREATE_SCHEDULER_TASK: Create scheduler "corp" with entities [LocalPlayer, LocalPlayer]
 15: 0x0253 [0x1C] WAIT(30* ticks)
 16: 0x0256 [0x45] LOAD_SCHEDULED_TASK: Load scheduler "s041" with entities [EventEntity, EventEntity], work=[766*, 0*]
 17: 0x0267 [0x1C] WAIT(15* ticks)
 18: 0x026A [0x45] LOAD_SCHEDULED_TASK: Load scheduler "fdi1" with entities [LocalPlayer, LocalPlayer], work=[200*, 0*]
 19: 0x027B [0x1C] WAIT(150* ticks)
 20: 0x027E [0x45] LOAD_SCHEDULED_TASK: Load scheduler "ovl1" with entities [LocalPlayer, LocalPlayer], work=[200*, 0*]
 21: 0x028F [0x52] END_LOAD_SCHEDULER: End scheduler "s041" with entities [EventEntity, EventEntity], work=766*
 22: 0x029E [0x45] LOAD_SCHEDULED_TASK: Load scheduler "s042" with entities [EventEntity, EventEntity], work=[766*, 0*]
 23: 0x02AF [0x1C] WAIT(30* ticks)
 24: 0x02B2 [0x6B] STOP_AND_IDLE: LocalPlayer stops current action and resets to idle (animation="idl0")
 25: 0x02BB [0xBA] SET_ENTITY_POSITION(entity_id=LocalPlayer, pos_x=263.070*, pos_z=340.165*, pos_y=35.150*, direction=178.0°*)
 26: 0x02C8 [0x27] REQ_SET(priority=0x05, entity_id=LocalPlayer, tag_num=0x0E)
 27: 0x02CF [0x1C] WAIT(120* ticks)
 28: 0x02D2 [0x2A] GET_REQ_LEVEL(level=5, entity_id=LocalPlayer)
 29: 0x02D8 [0x52] END_LOAD_SCHEDULER: End scheduler "s042" with entities [EventEntity, EventEntity], work=766*
 30: 0x02E7 [0x45] LOAD_SCHEDULED_TASK: Load scheduler "s043" with entities [EventEntity, EventEntity], work=[766*, 0*]
 31: 0x02F8 [0x27] REQ_SET(priority=0x05, entity_id=LocalPlayer, tag_num=0x0F)
 32: 0x02FF [0x1C] WAIT(150* ticks)
 33: 0x0302 [0x52] END_LOAD_SCHEDULER: End scheduler "s043" with entities [EventEntity, EventEntity], work=766*
 34: 0x0311 [0x45] LOAD_SCHEDULED_TASK: Load scheduler "s119" with entities [EventEntity, EventEntity], work=[766*, 0*]
 35: 0x0322 [0x79] LocalPlayer looks at EventEntity (Basic look)
 36: 0x032C [0x1D] PRINT_EVENT_MESSAGE(message_id=12132*)
    → "Meet...Altana..."
 37: 0x032F [0x23] WAIT_FOR_DIALOG_INTERACTION
 38: 0x0330 [0x1C] WAIT(120* ticks)
 39: 0x0333 [0x52] END_LOAD_SCHEDULER: End scheduler "s119" with entities [EventEntity, EventEntity], work=766*
 40: 0x0342 [0x45] LOAD_SCHEDULED_TASK: Load scheduler "s120" with entities [EventEntity, EventEntity], work=[766*, 0*]
 41: 0x0353 [0x1C] WAIT(180* ticks)
 42: 0x0356 [0x45] LOAD_SCHEDULED_TASK: Load scheduler "fdo1" with entities [LocalPlayer, LocalPlayer], work=[200*, 0*]
 43: 0x0367 [0x55] WAIT_LOAD_SCHEDULER: Wait for scheduler "fdo1" with entities [LocalPlayer, LocalPlayer], work=200*
 44: 0x0376 [0x52] END_LOAD_SCHEDULER: End scheduler "s120" with entities [EventEntity, EventEntity], work=766*
 45: 0x0385 [0x46] CAMERA_CONTROL: Restore default settings
 46: 0x0387 [0x45] LOAD_SCHEDULED_TASK: Load scheduler "fdi2" with entities [LocalPlayer, LocalPlayer], work=[200*, 0*]
 47: 0x0398 [0x21] END_EVENT
 48: 0x0399 [0x00] END_REQSTACK()
```
