# 17257113 - Debug

## Common Data

| Field            | Value                     |
|------------------|---------------------------|
| Zone             | Tahrongi Canyon (ID: 117) |
| Block Size       | 112 bytes                 |
| Total Events     | 2                         |
| References Count | 5                         |

## List of Events

| Event ID              | Entrypoint   |   Size |   Instructions |
|-----------------------|--------------|--------|----------------|
| [65535](#event-65535) | 0x0000       |      1 |              1 |
| [7013](#event-7013)   | 0x0001       |     66 |             17 |

## DAT References (imed_data)

|   Index | Hex Value   |   Dec Value |
|---------|-------------|-------------|
|       0 | 0x2AF9      |       11001 |
|       1 | 0x0000      |           0 |
|       2 | 0x0001      |           1 |
|       3 | 0x0002      |           2 |
|       4 | 0x0003      |           3 |

## String References

- **11001**: Change event mode. [Starlight Celebration./Off-season./Event off.]

## Events

### Event 65535

#### Metadata

| Field        | Value   |
|--------------|---------|
| Entrypoint   | 0x0000  |
| Data Size    | 1 bytes |
| Instructions | 1       |

```
      00 01 02 03 04 05 06 07  08 09 0A 0B 0C 0D 0E 0F
      -- -- -- -- -- -- -- --  -- -- -- -- -- -- -- --
0000: 00                                                .               
```

#### Opcodes

```
  0: 0x0000 [0x00] END_REQSTACK()
```

### Event 7013

#### Metadata

| Field        | Value    |
|--------------|----------|
| Entrypoint   | 0x0001   |
| Data Size    | 66 bytes |
| Instructions | 8        |

```
      00 01 02 03 04 05 06 07  08 09 0A 0B 0C 0D 0E 0F
      -- -- -- -- -- -- -- --  -- -- -- -- -- -- -- --
0000:    1E F0 FF FF 7F 24 00  80 01 80 01 80 25 02 00   .....$......%..
0010: 10 01 80 00 1F 00 03 01  10 02 80 21 01 41 00 02  ...........!.A..
0020: 00 10 02 80 00 30 00 03  01 10 03 80 21 01 41 00  .....0......!.A.
0030: 02 00 10 03 80 00 41 00  03 01 10 04 80 21 01 41  ......A......!.A
0040: 00 21 00                                          .!.             
```

#### Opcodes

```
  0: 0x0001 [0x1E] EventEntity looks at LocalPlayer and starts talking
  1: 0x0006 [0x24] CREATE_DIALOG(message_id=11001*, default_option=0*, option_flags=0*)
    → "Change event mode. [Starlight Celebration./Off-season./Event off.]"
  2: 0x000D [0x25] WAIT_DIALOG_SELECT()
  3: 0x000E [0x02] IF !(Work_Zone[0] == 0*) GOTO 0x001F
  4: 0x0016 [0x03] Work_Zone[1] = 1*
  5: 0x001B [0x21] END_EVENT

SUBROUTINE_0041:
  6: 0x0041 [0x21] END_EVENT
  7: 0x0042 [0x00] END_REQSTACK()
```

#### Data or dead code:

```
# Dead code (unreachable instructions):
     0x001C [0x01] GOTO 0x0041
     0x002D [0x01] GOTO 0x0041
     0x003E [0x01] GOTO 0x0041
```
