# 17257128

## Common Data

| Field            | Value                     |
|------------------|---------------------------|
| Zone             | Tahrongi Canyon (ID: 117) |
| Block Size       | 12168 bytes               |
| Total Events     | 15                        |
| References Count | 283                       |

## List of Events

| Event ID                   | Entrypoint   |   Size |   Instructions |
|----------------------------|--------------|--------|----------------|
| [65535](#event-65535)      | 0x0000       |      1 |              1 |
| [65535.1](#event-655351)   | 0x0001       |     22 |              5 |
| [41](#event-41)            | 0x0017       |   2267 |            285 |
| [42](#event-42)            | 0x08F2       |   4104 |            468 |
| [43](#event-43)            | 0x18FA       |   3727 |            446 |
| [65535.2](#event-655352)   | 0x2789       |     22 |              5 |
| [65535.3](#event-655353)   | 0x279F       |     22 |              5 |
| [65535.4](#event-655354)   | 0x27B5       |     32 |              9 |
| [65535.5](#event-655355)   | 0x27D5       |     23 |              6 |
| [65535.6](#event-655356)   | 0x27EC       |     32 |              9 |
| [65535.7](#event-655357)   | 0x280C       |     23 |              6 |
| [65535.8](#event-655358)   | 0x2823       |    680 |             67 |
| [65535.9](#event-655359)   | 0x2ACB       |      1 |              1 |
| [65535.10](#event-6553510) | 0x2ACC       |      1 |              1 |
| [65535.11](#event-6553511) | 0x2ACD       |      1 |              1 |

## DAT References (imed_data)

|   Index | Hex Value   |   Dec Value |
|---------|-------------|-------------|
|       0 | 0x00C8      |         200 |
|       1 | 0x0000      |           0 |
|       2 | 0x0078      |         120 |
|       3 | 0x001B      |          27 |
|       4 | 0x2ED5      |       11989 |
|       5 | 0x021D      |         541 |
|       6 | 0x00FF      |         255 |
|       7 | 0x0001      |           1 |
|       8 | 0xFFF9F070  |  4294570096 |
|       9 | 0x54F24     |      347940 |
|      10 | 0xFFFFB565  |  4294948197 |
|      11 | 0x0C00      |        3072 |
|      12 | 0x004F      |          79 |
|      13 | 0xFFF9E5C0  |  4294567360 |
|      14 | 0x56712     |      354066 |
|      15 | 0x0AB8      |        2744 |
|      16 | 0x001E      |          30 |
|      17 | 0x0063      |          99 |
|      18 | 0x006B      |         107 |
|      19 | 0x02F9      |         761 |
|      20 | 0x000F      |          15 |
|      21 | 0x0096      |         150 |
|      22 | 0x0BEA      |        3050 |
|      23 | 0xFFF9ECB3  |  4294569139 |
|      24 | 0x56271     |      352881 |
|      25 | 0x1CFF      |        7423 |
|      26 | 0x2ED6      |       11990 |
|      27 | 0x2ED7      |       11991 |
|      28 | 0x2ED8      |       11992 |
|      29 | 0x00B4      |         180 |
|      30 | 0x2ED9      |       11993 |
|      31 | 0x2EDA      |       11994 |
|      32 | 0xFFFFFF5B  |  4294967131 |
|      33 | 0x003C      |          60 |
|      34 | 0x03E8      |        1000 |
|      35 | 0x0514      |        1300 |
|      36 | 0x012C      |         300 |
|      37 | 0x2EDB      |       11995 |
|      38 | 0x2EDC      |       11996 |
|      39 | 0x2EDD      |       11997 |
|      40 | 0x2EDE      |       11998 |
|      41 | 0x2EDF      |       11999 |
|      42 | 0x005A      |          90 |
|      43 | 0x00F0      |         240 |
|      44 | 0x2EE0      |       12000 |
|      45 | 0x2EE1      |       12001 |
|      46 | 0x2EE2      |       12002 |
|      47 | 0x2EE5      |       12005 |
|      48 | 0x2EE6      |       12006 |
|      49 | 0x2EE3      |       12003 |
|      50 | 0x2EE4      |       12004 |
|      51 | 0x2EE7      |       12007 |
|      52 | 0x2EE8      |       12008 |
|      53 | 0x0050      |          80 |
|      54 | 0x0014      |          20 |
|      55 | 0x2EE9      |       12009 |
|      56 | 0x005F      |          95 |
|      57 | 0x2EEA      |       12010 |
|      58 | 0x2EEB      |       12011 |
|      59 | 0x2EEC      |       12012 |
|      60 | 0x2EED      |       12013 |
|      61 | 0x0006      |           6 |
|      62 | 0x021A      |         538 |
|      63 | 0x2EEE      |       12014 |
|      64 | 0x2EEF      |       12015 |
|      65 | 0x2EF0      |       12016 |
|      66 | 0x2EF1      |       12017 |
|      67 | 0x2EF3      |       12019 |
|      68 | 0x2EF2      |       12018 |
|      69 | 0x0002      |           2 |
|      70 | 0x2EF4      |       12020 |
|      71 | 0x2EF5      |       12021 |
|      72 | 0x2EF6      |       12022 |
|      73 | 0x2EF7      |       12023 |
|      74 | 0x008C      |         140 |
|      75 | 0x2EF8      |       12024 |
|      76 | 0x2EF9      |       12025 |
|      77 | 0x2EFA      |       12026 |
|      78 | 0x0075      |         117 |
|      79 | 0x0005      |           5 |
|      80 | 0x0007      |           7 |
|      81 | 0x0008      |           8 |
|      82 | 0xFFF9DFF0  |  4294565872 |
|      83 | 0x56C0E     |      355342 |
|      84 | 0x0795      |        1941 |
|      85 | 0xFFF9E6B0  |  4294567600 |
|      86 | 0x570CA     |      356554 |
|      87 | 0x0003      |           3 |
|      88 | 0xFFF9EE18  |  4294569496 |
|      89 | 0x5682E     |      354350 |
|      90 | 0xFFFFB0B5  |  4294946997 |
|      91 | 0x0DA3      |        3491 |
|      92 | 0x0004      |           4 |
|      93 | 0xFFFFB439  |  4294947897 |
|      94 | 0xFFFFB17D  |  4294947197 |
|      95 | 0x02FA      |         762 |
|      96 | 0x0F15      |        3861 |
|      97 | 0x2EFB      |       12027 |
|      98 | 0x2EFC      |       12028 |
|      99 | 0x0067      |         103 |
|     100 | 0x0F17      |        3863 |
|     101 | 0x00F3      |         243 |
|     102 | 0x2EFD      |       12029 |
|     103 | 0xFFF9ED97  |  4294569367 |
|     104 | 0x5685C     |      354396 |
|     105 | 0x2EFE      |       12030 |
|     106 | 0x00A0      |         160 |
|     107 | 0x2EFF      |       12031 |
|     108 | 0x2F00      |       12032 |
|     109 | 0x2F01      |       12033 |
|     110 | 0x0640      |        1600 |
|     111 | 0x2F02      |       12034 |
|     112 | 0x2F03      |       12035 |
|     113 | 0x2F04      |       12036 |
|     114 | 0x2F05      |       12037 |
|     115 | 0x00F4      |         244 |
|     116 | 0x2F06      |       12038 |
|     117 | 0x003F      |          63 |
|     118 | 0x2F16      |       12054 |
|     119 | 0x2F17      |       12055 |
|     120 | 0x0F16      |        3862 |
|     121 | 0x2F18      |       12056 |
|     122 | 0x0046      |          70 |
|     123 | 0x2F19      |       12057 |
|     124 | 0x2F1A      |       12058 |
|     125 | 0x2F1B      |       12059 |
|     126 | 0x2F0F      |       12047 |
|     127 | 0x2F10      |       12048 |
|     128 | 0x2F11      |       12049 |
|     129 | 0x2F12      |       12050 |
|     130 | 0x2F13      |       12051 |
|     131 | 0x2F14      |       12052 |
|     132 | 0x2F15      |       12053 |
|     133 | 0x2F07      |       12039 |
|     134 | 0x2F08      |       12040 |
|     135 | 0x2F09      |       12041 |
|     136 | 0x2F0A      |       12042 |
|     137 | 0x2F0B      |       12043 |
|     138 | 0x2F0C      |       12044 |
|     139 | 0x2F0D      |       12045 |
|     140 | 0x2F0E      |       12046 |
|     141 | 0x2F1C      |       12060 |
|     142 | 0x2F1D      |       12061 |
|     143 | 0x2F1E      |       12062 |
|     144 | 0x00C9      |         201 |
|     145 | 0x2F1F      |       12063 |
|     146 | 0x2F20      |       12064 |
|     147 | 0x2F21      |       12065 |
|     148 | 0x2F22      |       12066 |
|     149 | 0x2F23      |       12067 |
|     150 | 0xFFF9E48B  |  4294567051 |
|     151 | 0x571E6     |      356838 |
|     152 | 0x0546      |        1350 |
|     153 | 0x2F24      |       12068 |
|     154 | 0x2F25      |       12069 |
|     155 | 0x2F26      |       12070 |
|     156 | 0x2F27      |       12071 |
|     157 | 0x2F28      |       12072 |
|     158 | 0x2F29      |       12073 |
|     159 | 0x2F2A      |       12074 |
|     160 | 0x2F2B      |       12075 |
|     161 | 0x2F2C      |       12076 |
|     162 | 0xFFFFFFCE  |  4294967246 |
|     163 | 0x0B1F      |        2847 |
|     164 | 0x2F2D      |       12077 |
|     165 | 0x0021      |          33 |
|     166 | 0x23668     |      145000 |
|     167 | 0xFFF570E0  |  4294275296 |
|     168 | 0xFFFFF830  |  4294965296 |
|     169 | 0x0C4F      |        3151 |
|     170 | 0x25220     |      152096 |
|     171 | 0xFFF56352  |  4294271826 |
|     172 | 0xFFFFF73C  |  4294965052 |
|     173 | 0x25CAA     |      154794 |
|     174 | 0xFFF57A71  |  4294277745 |
|     175 | 0xFFFFFB92  |  4294966162 |
|     176 | 0x07BA      |        1978 |
|     177 | 0x263A0     |      156576 |
|     178 | 0xFFF571C4  |  4294275524 |
|     179 | 0xFFFFFC3B  |  4294966331 |
|     180 | 0x076A      |        1898 |
|     181 | 0x1D4C0     |      120000 |
|     182 | 0xFFF71A45  |  4294384197 |
|     183 | 0xFFFFE32B  |  4294959915 |
|     184 | 0x049A      |        1178 |
|     185 | 0x1F4D6     |      128214 |
|     186 | 0xFFF6C6DE  |  4294362846 |
|     187 | 0xFFFFF6B3  |  4294964915 |
|     188 | 0x1C117     |      114967 |
|     189 | 0xFFF6749D  |  4294341789 |
|     190 | 0x0BB8      |        3000 |
|     191 | 0x1C520     |      116000 |
|     192 | 0xFFF6CBA4  |  4294364068 |
|     193 | 0x255DB     |      153051 |
|     194 | 0xFFF572D0  |  4294275792 |
|     195 | 0xFFFF38EE  |  4294916334 |
|     196 | 0x0CBA      |        3258 |
|     197 | 0xFFFFFC3E  |  4294966334 |
|     198 | 0x04BA      |        1210 |
|     199 | 0x01CF      |         463 |
|     200 | 0x008F      |         143 |
|     201 | 0x00E9      |         233 |
|     202 | 0x0301      |         769 |
|     203 | 0x00A4      |         164 |
|     204 | 0x0186      |         390 |
|     205 | 0x2F2E      |       12078 |
|     206 | 0x2F2F      |       12079 |
|     207 | 0x02DD      |         733 |
|     208 | 0x2F30      |       12080 |
|     209 | 0x2F31      |       12081 |
|     210 | 0x2F32      |       12082 |
|     211 | 0x2F33      |       12083 |
|     212 | 0x0028      |          40 |
|     213 | 0x2F34      |       12084 |
|     214 | 0x2F35      |       12085 |
|     215 | 0x2F36      |       12086 |
|     216 | 0x2F37      |       12087 |
|     217 | 0x2F38      |       12088 |
|     218 | 0x2F39      |       12089 |
|     219 | 0x2F3A      |       12090 |
|     220 | 0x24EFD     |      151293 |
|     221 | 0xFFF5464A  |  4294264394 |
|     222 | 0xFFFFEA12  |  4294961682 |
|     223 | 0x0C12      |        3090 |
|     224 | 0x01D0      |         464 |
|     225 | 0x2F3B      |       12091 |
|     226 | 0x2F3C      |       12092 |
|     227 | 0x2F3D      |       12093 |
|     228 | 0x2F3E      |       12094 |
|     229 | 0x2F3F      |       12095 |
|     230 | 0x2F40      |       12096 |
|     231 | 0x2F41      |       12097 |
|     232 | 0x0015      |          21 |
|     233 | 0x2F42      |       12098 |
|     234 | 0x2F43      |       12099 |
|     235 | 0x2F44      |       12100 |
|     236 | 0x2F45      |       12101 |
|     237 | 0x2F46      |       12102 |
|     238 | 0xFFFFFF57  |  4294967127 |
|     239 | 0x2F47      |       12103 |
|     240 | 0x2F48      |       12104 |
|     241 | 0x2F49      |       12105 |
|     242 | 0x27100     |      160000 |
|     243 | 0xFFF56528  |  4294272296 |
|     244 | 0x2F4A      |       12106 |
|     245 | 0x2F4B      |       12107 |
|     246 | 0x2F4C      |       12108 |
|     247 | 0x2F4D      |       12109 |
|     248 | 0x2F4E      |       12110 |
|     249 | 0x2F4F      |       12111 |
|     250 | 0x2F50      |       12112 |
|     251 | 0x2F51      |       12113 |
|     252 | 0x0066      |         102 |
|     253 | 0x244BD     |      148669 |
|     254 | 0xFFF57241  |  4294275649 |
|     255 | 0xFFFF3F6D  |  4294917997 |
|     256 | 0x0031      |          49 |
|     257 | 0x0059      |          89 |
|     258 | 0x2F52      |       12114 |
|     259 | 0x2F53      |       12115 |
|     260 | 0x2F54      |       12116 |
|     261 | 0x24C8D     |      150669 |
|     262 | 0x0F26      |        3878 |
|     263 | 0x2F55      |       12117 |
|     264 | 0x2F56      |       12118 |
|     265 | 0x2F57      |       12119 |
|     266 | 0x2F58      |       12120 |
|     267 | 0x2F59      |       12121 |
|     268 | 0x2F5A      |       12122 |
|     269 | 0x2F5B      |       12123 |
|     270 | 0x2F5C      |       12124 |
|     271 | 0x2F5D      |       12125 |
|     272 | 0x0E19      |        3609 |
|     273 | 0x00FA      |         250 |
|     274 | 0x000A      |          10 |
|     275 | 0x2F5E      |       12126 |
|     276 | 0x2F5F      |       12127 |
|     277 | 0x2F60      |       12128 |
|     278 | 0x2F61      |       12129 |
|     279 | 0x00A5      |         165 |
|     280 | 0x02DA      |         730 |
|     281 | 0x002D      |          45 |
|     282 | 0x00D7      |         215 |

## String References

- **7423**: @@
- **11989**: What you seek lies only a few steps ahead...
- **12017**: How about it? [I'll go./I can't right now./Uh...go where, exactly?]
- **12021**: Where did the vision take place? [Lower Jeuno./Delkfutt's Tower./Qufim Island.]
- **12077**: The resonance between the $3 and the crystal reaches a crescendo!
- **12106**: Inquire about what? [Drawing crystal energy./Accumulating light.]

## Events

### Event 65535

#### Metadata

| Field        | Value   |
|--------------|---------|
| Entrypoint   | 0x0000  |
| Data Size    | 1 bytes |
| Instructions | 1       |

```
      00 01 02 03 04 05 06 07  08 09 0A 0B 0C 0D 0E 0F
      -- -- -- -- -- -- -- --  -- -- -- -- -- -- -- --
0000: 00                                                .               
```

#### Opcodes

```
  0: 0x0000 [0x00] END_REQSTACK()
```

### Event 65535.1

#### Metadata

| Field        | Value    |
|--------------|----------|
| Entrypoint   | 0x0001   |
| Data Size    | 22 bytes |
| Instructions | 5        |

```
      00 01 02 03 04 05 06 07  08 09 0A 0B 0C 0D 0E 0F
      -- -- -- -- -- -- -- --  -- -- -- -- -- -- -- --
0000:    9A 46 00 45 00 80 F8  FF FF 7F F8 FF FF 7F 66   .F.E..........f
0010: 64 69 32 01 80 21 00                              di2..!.         
```

#### Opcodes

```
  0: 0x0001 [0x9A] WAIT_MUSIC_SERVER()
  1: 0x0002 [0x46] CAMERA_CONTROL: Restore default settings
  2: 0x0004 [0x45] LOAD_SCHEDULED_TASK: Load scheduler "fdi2" with entities [EventEntity, EventEntity], work=[200*, 0*]
  3: 0x0015 [0x21] END_EVENT
  4: 0x0016 [0x00] END_REQSTACK()
```

### Event 41

#### Metadata

| Field        | Value      |
|--------------|------------|
| Entrypoint   | 0x0017     |
| Data Size    | 2267 bytes |
| Instructions | 264        |

```
      00 01 02 03 04 05 06 07  08 09 0A 0B 0C 0D 0E 0F
      -- -- -- -- -- -- -- --  -- -- -- -- -- -- -- --
0010:                      42  03 01 00 08 10 03 02 00         B........
0020: 09 10 5D 01 80 02 80 45  00 80 F8 FF FF 7F F8 FF  ..]....E........
0030: FF 7F 66 64 6F 31 01 80  55 00 80 F8 FF FF 7F F8  ..fdo1..U.......
0040: FF FF 7F 66 64 6F 31 46  01 38 03 80 48 04 80 23  ...fdo1F.8..H..#
0050: 34 05 80 77 06 80 07 80  1C 07 80 2F 00 AA 52 07  4..w......./..R.
0060: 01 4E 00 AA 52 07 01 92  01 AA 52 07 01 94 01 AA  .N..R.....R.....
0070: 52 07 01 94 01 F0 FF FF  7F 81 00 AA 52 07 01 BA  R...........R...
0080: F0 FF FF 7F 08 80 09 80  0A 80 0B 80 80 F0 FF FF  ................
0090: 7F 5C 00 0C 80 5C 01 0C  80 9A 02 01 00 07 80 00  .\...\..........
00A0: 25 02 27 05 AA 52 07 01  05 BA AA 52 07 01 0D 80  %.'..R.....R....
00B0: 0E 80 0A 80 0F 80 80 AA  52 07 01 1C 10 80 5B 11  ........R.....[.
00C0: 80 AA 52 07 01 AA 52 07  01 74 61 6F 6C D0 12 80  ..R...R..taol...
00D0: AA 52 07 01 AA 52 07 01  6C 69 30 30 01 80 1C 10  .R...R..li00....
00E0: 80 45 13 80 F8 FF FF 7F  F8 FF FF 7F 73 31 30 39  .E..........s109
00F0: 01 80 1C 14 80 45 00 80  F8 FF FF 7F F8 FF FF 7F  .....E..........
0100: 66 64 69 31 01 80 1C 15  80 27 05 F0 FF FF 7F 15  fdi1.....'......
0110: 1C 10 80 52 13 80 F8 FF  FF 7F F8 FF FF 7F 73 31  ...R..........s1
0120: 30 39 45 13 80 F8 FF FF  7F F8 FF FF 7F 73 31 31  09E..........s11
0130: 30 01 80 2A 05 F0 FF FF  7F 1C 10 80 45 00 80 F8  0..*........E...
0140: FF FF 7F F8 FF FF 7F 66  64 6F 31 01 80 55 00 80  .......fdo1..U..
0150: F8 FF FF 7F F8 FF FF 7F  66 64 6F 31 52 13 80 F8  ........fdo1R...
0160: FF FF 7F F8 FF FF 7F 73  31 31 30 BA AA 52 07 01  .......s110..R..
0170: 0D 80 0E 80 0A 80 16 80  BA F0 FF FF 7F 17 80 18  ................
0180: 80 0A 80 0B 80 80 F0 FF  FF 7F 80 AA 52 07 01 79  ............R..y
0190: 00 F0 FF FF 7F AA 52 07  01 1C 10 80 5B 11 80 AA  ......R.....[...
01A0: 52 07 01 AA 52 07 01 6B  61 6B 6C D0 12 80 AA 52  R...R..kakl....R
01B0: 07 01 AA 52 07 01 6C 69  30 31 01 80 1C 10 80 48  ...R..li01.....H
01C0: 19 80 1C 02 80 45 13 80  F8 FF FF 7F F8 FF FF 7F  .....E..........
01D0: 73 31 31 32 01 80 1C 14  80 45 00 80 F8 FF FF 7F  s112.....E......
01E0: F8 FF FF 7F 66 64 69 31  01 80 2B AA 52 07 01 1A  ....fdi1..+.R...
01F0: 80 23 52 13 80 F8 FF FF  7F F8 FF FF 7F 73 31 31  .#R..........s11
0200: 32 45 13 80 F8 FF FF 7F  F8 FF FF 7F 73 31 31 33  2E..........s113
0210: 01 80 2B AA 52 07 01 1B  80 23 2B AA 52 07 01 1C  ..+.R....#+.R...
0220: 80 23 01 B5 02 BA AA 52  07 01 0D 80 0E 80 0A 80  .#.....R........
0230: 16 80 80 AA 52 07 01 1C  10 80 5B 11 80 AA 52 07  ....R.....[...R.
0240: 01 AA 52 07 01 6B 61 6B  6C 1C 10 80 27 05 F0 FF  ..R..kakl...'...
0250: FF 7F 16 45 13 80 F8 FF  FF 7F F8 FF FF 7F 73 31  ...E..........s1
0260: 31 32 01 80 1C 14 80 45  00 80 F8 FF FF 7F F8 FF  12.....E........
0270: FF 7F 66 64 69 31 01 80  1C 1D 80 52 13 80 F8 FF  ..fdi1.....R....
0280: FF 7F F8 FF FF 7F 73 31  31 32 45 13 80 F8 FF FF  ......s112E.....
0290: 7F F8 FF FF 7F 73 31 31  33 01 80 79 00 F0 FF FF  .....s113..y....
02A0: 7F AA 52 07 01 2B AA 52  07 01 1E 80 23 2B AA 52  ..R..+.R....#+.R
02B0: 07 01 1F 80 23 45 00 80  F8 FF FF 7F F8 FF FF 7F  ....#E..........
02C0: 66 64 6F 31 01 80 55 00  80 F8 FF FF 7F F8 FF FF  fdo1..U.........
02D0: 7F 66 64 6F 31 52 13 80  F8 FF FF 7F F8 FF FF 7F  .fdo1R..........
02E0: 73 31 31 33 6B 69 64 6C  30 AA 52 07 01 81 01 AA  s113kidl0.R.....
02F0: 52 07 01 1A 44 2A 89 20  80 1C 21 80 B4 14 22 80  R...D*. ..!...".
0300: 22 80 23 80 01 80 07 80  1C 10 80 B4 14 22 80 22  ".#.........."."
0310: 80 22 80 24 80 07 80 03  02 10 15 80 27 10 9E 52  .".$........'..R
0320: 07 01 01 1A 32 2A 2B AA  52 07 01 25 80 23 2B AA  ....2*+.R..%.#+.
0330: 52 07 01 26 80 23 2A 10  9E 52 07 01 1A 44 2A 8A  R..&.#*..R...D*.
0340: B4 15 1A 32 2A 45 13 80  F8 FF FF 7F F8 FF FF 7F  ...2*E..........
0350: 73 31 31 34 01 80 1C 14  80 45 00 80 F8 FF FF 7F  s114.....E......
0360: F8 FF FF 7F 66 64 69 31  01 80 2B AA 52 07 01 27  ....fdi1..+.R..'
0370: 80 23 52 13 80 F8 FF FF  7F F8 FF FF 7F 73 31 31  .#R..........s11
0380: 34 45 13 80 F8 FF FF 7F  F8 FF FF 7F 73 31 31 35  4E..........s115
0390: 01 80 02 02 00 07 80 01  18 04 2B AA 52 07 01 28  ..........+.R..(
03A0: 80 23 2B AA 52 07 01 29  80 23 7B F0 FF FF 7F 1C  .#+.R..).#{.....
03B0: 2A 80 52 13 80 F8 FF FF  7F F8 FF FF 7F 73 31 31  *.R..........s11
03C0: 35 45 13 80 F8 FF FF 7F  F8 FF FF 7F 73 31 31 36  5E..........s116
03D0: 01 80 03 02 10 2B 80 27  10 9E 52 07 01 01 2B AA  .....+.'..R...+.
03E0: 52 07 01 2C 80 23 2B AA  52 07 01 2D 80 23 2B AA  R..,.#+.R..-.#+.
03F0: 52 07 01 2E 80 23 79 00  F0 FF FF 7F AA 52 07 01  R....#y......R..
0400: 2A 10 9E 52 07 01 52 13  80 F8 FF FF 7F F8 FF FF  *..R..R.........
0410: 7F 73 31 31 36 01 52 04  02 01 00 07 80 00 33 04  .s116.R.......3.
0420: 2B AA 52 07 01 2F 80 23  2B AA 52 07 01 30 80 23  +.R../.#+.R..0.#
0430: 01 43 04 2B AA 52 07 01  31 80 23 2B AA 52 07 01  .C.+.R..1.#+.R..
0440: 32 80 23 52 13 80 F8 FF  FF 7F F8 FF FF 7F 73 31  2.#R..........s1
0450: 31 35 45 13 80 F8 FF FF  7F F8 FF FF 7F 73 31 31  15E..........s11
0460: 37 01 80 2B AA 52 07 01  33 80 23 2B AA 52 07 01  7..+.R..3.#+.R..
0470: 34 80 23 4A F0 FF FF 7F  AA 52 07 01 1C 10 80 52  4.#J.....R.....R
0480: 13 80 F8 FF FF 7F F8 FF  FF 7F 73 31 31 37 45 13  ..........s117E.
0490: 80 F8 FF FF 7F F8 FF FF  7F 73 31 31 38 01 80 27  .........s118..'
04A0: 05 F0 FF FF 7F 10 1C 35  80 27 05 F0 FF FF 7F 11  .......5.'......
04B0: 1C 36 80 4A AA 52 07 01  F0 FF FF 7F 1C 36 80 52  .6.J.R.......6.R
04C0: 13 80 F8 FF FF 7F F8 FF  FF 7F 73 31 31 38 45 13  ..........s118E.
04D0: 80 F8 FF FF 7F F8 FF FF  7F 73 31 31 39 01 80 2B  .........s119..+
04E0: AA 52 07 01 37 80 23 52  13 80 F8 FF FF 7F F8 FF  .R..7.#R........
04F0: FF 7F 73 31 31 39 45 13  80 F8 FF FF 7F F8 FF FF  ..s119E.........
0500: 7F 73 31 32 30 01 80 5B  38 80 AA 52 07 01 AA 52  .s120..[8..R...R
0510: 07 01 74 68 6B 31 2B AA  52 07 01 39 80 23 2B AA  ..thk1+.R..9.#+.
0520: 52 07 01 3A 80 23 52 13  80 F8 FF FF 7F F8 FF FF  R..:.#R.........
0530: 7F 73 31 32 30 45 13 80  F8 FF FF 7F F8 FF FF 7F  .s120E..........
0540: 73 31 32 31 01 80 2B AA  52 07 01 3B 80 23 5B 38  s121..+.R..;.#[8
0550: 80 AA 52 07 01 AA 52 07  01 74 68 6B 32 2B AA 52  ..R...R..thk2+.R
0560: 07 01 3C 80 23 6E F0 FF  FF 7F 3D 80 99 F0 FF FF  ..<.#n....=.....
0570: 7F 1C 2A 80 52 13 80 F8  FF FF 7F F8 FF FF 7F 73  ..*.R..........s
0580: 31 32 31 45 13 80 F8 FF  FF 7F F8 FF FF 7F 73 31  121E..........s1
0590: 32 32 01 80 5B 3E 80 AA  52 07 01 AA 52 07 01 74  22..[>..R...R..t
05A0: 6C 34 30 02 01 00 07 80  00 BE 05 2B AA 52 07 01  l40........+.R..
05B0: 3F 80 23 2B AA 52 07 01  40 80 23 01 C6 05 2B AA  ?.#+.R..@.#...+.
05C0: 52 07 01 41 80 23 5B 3E  80 AA 52 07 01 AA 52 07  R..A.#[>..R...R.
05D0: 01 74 6C 34 31 52 13 80  F8 FF FF 7F F8 FF FF 7F  .tl41R..........
05E0: 73 31 32 32 45 13 80 F8  FF FF 7F F8 FF FF 7F 73  s122E..........s
05F0: 31 32 33 01 80 24 42 80  01 80 01 80 25 02 00 10  123..$B.....%...
0600: 01 80 00 3F 06 52 13 80  F8 FF FF 7F F8 FF FF 7F  ...?.R..........
0610: 73 31 32 33 45 13 80 F8  FF FF 7F F8 FF FF 7F 73  s123E..........s
0620: 31 32 35 01 80 5B 3E 80  AA 52 07 01 AA 52 07 01  125..[>..R...R..
0630: 74 6C 34 30 2B AA 52 07  01 43 80 23 01 E4 06 02  tl40+.R..C.#....
0640: 00 10 07 80 00 A2 06 52  13 80 F8 FF FF 7F F8 FF  .......R........
0650: FF 7F 73 31 32 33 45 13  80 F8 FF FF 7F F8 FF FF  ..s123E.........
0660: 7F 73 31 32 34 01 80 5B  3E 80 AA 52 07 01 AA 52  .s124..[>..R...R
0670: 07 01 74 6C 34 30 2B AA  52 07 01 44 80 23 5B 3E  ..tl40+.R..D.#[>
0680: 80 AA 52 07 01 AA 52 07  01 74 6C 34 31 52 13 80  ..R...R..tl41R..
0690: F8 FF FF 7F F8 FF FF 7F  73 31 32 34 01 E4 05 01  ........s124....
06A0: E4 06 02 00 10 45 80 00  E4 06 52 13 80 F8 FF FF  .....E....R.....
06B0: 7F F8 FF FF 7F 73 31 32  33 45 13 80 F8 FF FF 7F  .....s123E......
06C0: F8 FF FF 7F 73 31 32 35  01 80 5B 3E 80 AA 52 07  ....s125..[>..R.
06D0: 01 AA 52 07 01 74 6C 34  30 2B AA 52 07 01 46 80  ..R..tl40+.R..F.
06E0: 23 01 E4 06 5B 3E 80 AA  52 07 01 AA 52 07 01 74  #...[>..R...R..t
06F0: 6C 34 31 52 13 80 F8 FF  FF 7F F8 FF FF 7F 73 31  l41R..........s1
0700: 32 35 45 13 80 F8 FF FF  7F F8 FF FF 7F 73 31 32  25E..........s12
0710: 36 01 80 24 47 80 01 80  01 80 25 02 00 10 01 80  6..$G.....%.....
0720: 00 8A 07 52 13 80 F8 FF  FF 7F F8 FF FF 7F 73 31  ...R..........s1
0730: 32 36 45 13 80 F8 FF FF  7F F8 FF FF 7F 73 31 32  26E..........s12
0740: 37 01 80 81 00 AA 52 07  01 5B 38 80 AA 52 07 01  7.....R..[8..R..
0750: AA 52 07 01 74 68 6B 31  2B AA 52 07 01 48 80 23  .R..thk1+.R..H.#
0760: 81 01 AA 52 07 01 5B 38  80 AA 52 07 01 AA 52 07  ...R..[8..R...R.
0770: 01 74 68 6B 32 52 13 80  F8 FF FF 7F F8 FF FF 7F  .thk2R..........
0780: 73 31 32 37 01 02 07 01  F9 07 02 00 10 07 80 00  s127............
0790: F9 07 52 13 80 F8 FF FF  7F F8 FF FF 7F 73 31 32  ..R..........s12
07A0: 36 45 13 80 F8 FF FF 7F  F8 FF FF 7F 73 31 32 37  6E..........s127
07B0: 01 80 81 00 AA 52 07 01  5B 38 80 AA 52 07 01 AA  .....R..[8..R...
07C0: 52 07 01 74 68 6B 31 2B  AA 52 07 01 48 80 23 81  R..thk1+.R..H.#.
07D0: 01 AA 52 07 01 5B 38 80  AA 52 07 01 AA 52 07 01  ..R..[8..R...R..
07E0: 74 68 6B 32 52 13 80 F8  FF FF 7F F8 FF FF 7F 73  thk2R..........s
07F0: 31 32 37 01 02 07 01 F9  07 52 13 80 F8 FF FF 7F  127......R......
0800: F8 FF FF 7F 73 31 32 36  45 13 80 F8 FF FF 7F F8  ....s126E.......
0810: FF FF 7F 73 31 32 38 01  80 5B 11 80 AA 52 07 01  ...s128..[...R..
0820: AA 52 07 01 79 65 73 30  2B AA 52 07 01 49 80 1C  .R..yes0+.R..I..
0830: 4A 80 23 52 13 80 F8 FF  FF 7F F8 FF FF 7F 73 31  J.#R..........s1
0840: 32 38 45 13 80 F8 FF FF  7F F8 FF FF 7F 73 31 32  28E..........s12
0850: 39 01 80 5B 3E 80 AA 52  07 01 AA 52 07 01 74 6C  9..[>..R...R..tl
0860: 34 30 02 01 00 07 80 00  91 08 2B AA 52 07 01 4B  40........+.R..K
0870: 80 23 2B AA 52 07 01 4C  80 23 D0 12 80 AA 52 07  .#+.R..L.#....R.
0880: 01 AA 52 07 01 6B 69 65  30 01 80 1C 1D 80 01 99  ..R..kie0.......
0890: 08 2B AA 52 07 01 4D 80  23 5D 01 80 02 80 45 00  .+.R..M.#]....E.
08A0: 80 F8 FF FF 7F F8 FF FF  7F 66 64 6F 31 01 80 55  .........fdo1..U
08B0: 00 80 F8 FF FF 7F F8 FF  FF 7F 66 64 6F 31 52 13  ..........fdo1R.
08C0: 80 F8 FF FF 7F F8 FF FF  7F 73 31 32 39 35 4E 80  .........s1295N.
08D0: 78 1C 07 80 5C 00 01 80  5C 01 01 80 9A 46 00 45  x...\...\....F.E
08E0: 00 80 F8 FF FF 7F F8 FF  FF 7F 66 64 69 32 01 80  ..........fdi2..
08F0: 21 00                                             !.              
```

#### Opcodes

```
  0: 0x0017 [0x42] SET_CLI_EVENT_CANCEL_DATA()
  1: 0x0018 [0x03] ExtData[1]->WorkLocal[1] = Work_Zone[8]
  2: 0x001D [0x03] ExtData[1]->WorkLocal[2] = Work_Zone[9]
  3: 0x0022 [0x5D] SET_MUSIC_VOLUME(volume=0*, fade_time=120*)
  4: 0x0027 [0x45] LOAD_SCHEDULED_TASK: Load scheduler "fdo1" with entities [EventEntity, EventEntity], work=[200*, 0*]
  5: 0x0038 [0x55] WAIT_LOAD_SCHEDULER: Wait for scheduler "fdo1" with entities [EventEntity, EventEntity], work=200*
  6: 0x0047 [0x46] CAMERA_CONTROL: Disable user control
  7: 0x0049 [0x38] SET_CLIENT_EVENT_MODE(mode=27*)
  8: 0x004C [0x48] [System] [11989*]:
    → "What you seek lies only a few steps ahead..."
  9: 0x004F [0x23] WAIT_FOR_DIALOG_INTERACTION
 10: 0x0050 [0x34] LOAD_UNLOAD_ZONE(zone_id=541*)
 11: 0x0053 [0x77] SET_EVENT_TIME_WEATHER(hour=255*, weather=1*)
 12: 0x0058 [0x1C] WAIT(1* ticks)
 13: 0x005B [0x2F] Lion (ID: 17257130/0x010752AA)->Render.Flags0 &= ~0x80000 // Bit 19
 14: 0x0061 [0x4E] SET_ENTITY_HIDE_FLAG: Show Lion (ID: 17257130/0x010752AA)
 15: 0x0067 [0x92] Lion (ID: 17257130/0x010752AA)->Render.Flags3 ^= 0x01
 16: 0x006D [0x94] Lion (ID: 17257130/0x010752AA)->Render.Flags3 ^= 0x01
 17: 0x0073 [0x94] LocalPlayer->Render.Flags3 ^= 0x01
 18: 0x0079 [0x81] SET_ENTITY_BLINKING(blink_flag=0x00, entity=Lion (ID: 17257130/0x010752AA))
 19: 0x007F [0xBA] SET_ENTITY_POSITION(entity_id=LocalPlayer, pos_x=-397.200*, pos_z=347.940*, pos_y=-19.099*, direction=270.0°*)
 20: 0x008C [0x80] LOAD_WAIT(entity=LocalPlayer)
 21: 0x0091 [0x5C] MUSIC_CONTROL: Set Idle (Day) music to song 79*
 22: 0x0095 [0x5C] MUSIC_CONTROL: Set Idle (Night) music to song 79*
 23: 0x0099 [0x9A] WAIT_MUSIC_SERVER()
 24: 0x009A [0x02] IF !(ExtData[1]->WorkLocal[1] == 1*) GOTO 0x0225
 25: 0x00A2 [0x27] REQ_SET(priority=0x05, entity_id=Lion (ID: 17257130/0x010752AA), tag_num=0x05)
 26: 0x00A9 [0xBA] SET_ENTITY_POSITION(entity_id=Lion (ID: 17257130/0x010752AA), pos_x=-399.936*, pos_z=354.066*, pos_y=-19.099*, direction=241.2°*)
 27: 0x00B6 [0x80] LOAD_WAIT(entity=Lion (ID: 17257130/0x010752AA))
 28: 0x00BB [0x1C] WAIT(30* ticks)
 29: 0x00BE [0x5B] LOAD_EXT_SCHEDULER: Load scheduler "taol" with entities [Lion (ID: 17257130/0x010752AA), Lion (ID: 17257130/0x010752AA)], work=99*
 30: 0x00CD [0xD0] LOAD_SCHEDULED_TASK_ALT5: Load scheduler "li00" with entities [Lion (ID: 17257130/0x010752AA), Lion (ID: 17257130/0x010752AA)], work=[107*, 0*]
 31: 0x00DE [0x1C] WAIT(30* ticks)
 32: 0x00E1 [0x45] LOAD_SCHEDULED_TASK: Load scheduler "s109" with entities [EventEntity, EventEntity], work=[761*, 0*]
 33: 0x00F2 [0x1C] WAIT(15* ticks)
 34: 0x00F5 [0x45] LOAD_SCHEDULED_TASK: Load scheduler "fdi1" with entities [EventEntity, EventEntity], work=[200*, 0*]
 35: 0x0106 [0x1C] WAIT(150* ticks)
 36: 0x0109 [0x27] REQ_SET(priority=0x05, entity_id=LocalPlayer, tag_num=0x15)
 37: 0x0110 [0x1C] WAIT(30* ticks)
 38: 0x0113 [0x52] END_LOAD_SCHEDULER: End scheduler "s109" with entities [EventEntity, EventEntity], work=761*
 39: 0x0122 [0x45] LOAD_SCHEDULED_TASK: Load scheduler "s110" with entities [EventEntity, EventEntity], work=[761*, 0*]
 40: 0x0133 [0x2A] GET_REQ_LEVEL(level=5, entity_id=LocalPlayer)
 41: 0x0139 [0x1C] WAIT(30* ticks)
 42: 0x013C [0x45] LOAD_SCHEDULED_TASK: Load scheduler "fdo1" with entities [EventEntity, EventEntity], work=[200*, 0*]
 43: 0x014D [0x55] WAIT_LOAD_SCHEDULER: Wait for scheduler "fdo1" with entities [EventEntity, EventEntity], work=200*
 44: 0x015C [0x52] END_LOAD_SCHEDULER: End scheduler "s110" with entities [EventEntity, EventEntity], work=761*
 45: 0x016B [0xBA] SET_ENTITY_POSITION(entity_id=Lion (ID: 17257130/0x010752AA), pos_x=-399.936*, pos_z=354.066*, pos_y=-19.099*, direction=268.1°*)
 46: 0x0178 [0xBA] SET_ENTITY_POSITION(entity_id=LocalPlayer, pos_x=-398.157*, pos_z=352.881*, pos_y=-19.099*, direction=270.0°*)
 47: 0x0185 [0x80] LOAD_WAIT(entity=LocalPlayer)
 48: 0x018A [0x80] LOAD_WAIT(entity=Lion (ID: 17257130/0x010752AA))
 49: 0x018F [0x79] LocalPlayer looks at Lion (ID: 17257130/0x010752AA) (Basic look)
 50: 0x0199 [0x1C] WAIT(30* ticks)
 51: 0x019C [0x5B] LOAD_EXT_SCHEDULER: Load scheduler "kakl" with entities [Lion (ID: 17257130/0x010752AA), Lion (ID: 17257130/0x010752AA)], work=99*
 52: 0x01AB [0xD0] LOAD_SCHEDULED_TASK_ALT5: Load scheduler "li01" with entities [Lion (ID: 17257130/0x010752AA), Lion (ID: 17257130/0x010752AA)], work=[107*, 0*]
 53: 0x01BC [0x1C] WAIT(30* ticks)
 54: 0x01BF [0x48] [System] [7423*]:
    → "@@"
 55: 0x01C2 [0x1C] WAIT(120* ticks)
 56: 0x01C5 [0x45] LOAD_SCHEDULED_TASK: Load scheduler "s112" with entities [EventEntity, EventEntity], work=[761*, 0*]
 57: 0x01D6 [0x1C] WAIT(15* ticks)
 58: 0x01D9 [0x45] LOAD_SCHEDULED_TASK: Load scheduler "fdi1" with entities [EventEntity, EventEntity], work=[200*, 0*]
 59: 0x01EA [0x2B] Lion (ID: 17257130/0x010752AA) [11990*]:
    → "<Player>... Why? Why am I...here?"
 60: 0x01F1 [0x23] WAIT_FOR_DIALOG_INTERACTION
 61: 0x01F2 [0x52] END_LOAD_SCHEDULER: End scheduler "s112" with entities [EventEntity, EventEntity], work=761*
 62: 0x0201 [0x45] LOAD_SCHEDULED_TASK: Load scheduler "s113" with entities [EventEntity, EventEntity], work=[761*, 0*]
 63: 0x0212 [0x2B] Lion (ID: 17257130/0x010752AA) [11991*]:
    → "Am I still dreaming? Or can it really be...?"
 64: 0x0219 [0x23] WAIT_FOR_DIALOG_INTERACTION
 65: 0x021A [0x2B] Lion (ID: 17257130/0x010752AA) [11992*]:
    → "Lately, I've seen the strangest visions..."
 66: 0x0221 [0x23] WAIT_FOR_DIALOG_INTERACTION
 67: 0x0222 [0x01] GOTO 0x02B5
 68: 0x0225 [0xBA] SET_ENTITY_POSITION(entity_id=Lion (ID: 17257130/0x010752AA), pos_x=-399.936*, pos_z=354.066*, pos_y=-19.099*, direction=268.1°*)
 69: 0x0232 [0x80] LOAD_WAIT(entity=Lion (ID: 17257130/0x010752AA))
 70: 0x0237 [0x1C] WAIT(30* ticks)
 71: 0x023A [0x5B] LOAD_EXT_SCHEDULER: Load scheduler "kakl" with entities [Lion (ID: 17257130/0x010752AA), Lion (ID: 17257130/0x010752AA)], work=99*
 72: 0x0249 [0x1C] WAIT(30* ticks)
 73: 0x024C [0x27] REQ_SET(priority=0x05, entity_id=LocalPlayer, tag_num=0x16)
 74: 0x0253 [0x45] LOAD_SCHEDULED_TASK: Load scheduler "s112" with entities [EventEntity, EventEntity], work=[761*, 0*]
 75: 0x0264 [0x1C] WAIT(15* ticks)
 76: 0x0267 [0x45] LOAD_SCHEDULED_TASK: Load scheduler "fdi1" with entities [EventEntity, EventEntity], work=[200*, 0*]
 77: 0x0278 [0x1C] WAIT(180* ticks)
 78: 0x027B [0x52] END_LOAD_SCHEDULER: End scheduler "s112" with entities [EventEntity, EventEntity], work=761*
 79: 0x028A [0x45] LOAD_SCHEDULED_TASK: Load scheduler "s113" with entities [EventEntity, EventEntity], work=[761*, 0*]
 80: 0x029B [0x79] LocalPlayer looks at Lion (ID: 17257130/0x010752AA) (Basic look)
 81: 0x02A5 [0x2B] Lion (ID: 17257130/0x010752AA) [11993*]:
    → "As I waited for you here, this crystal--it spoke to me...and I fell into a trance."
 82: 0x02AC [0x23] WAIT_FOR_DIALOG_INTERACTION
 83: 0x02AD [0x2B] Lion (ID: 17257130/0x010752AA) [11994*]:
    → "It was but another vision."
 84: 0x02B4 [0x23] WAIT_FOR_DIALOG_INTERACTION

SUBROUTINE_02B5:
 85: 0x02B5 [0x45] LOAD_SCHEDULED_TASK: Load scheduler "fdo1" with entities [EventEntity, EventEntity], work=[200*, 0*]
 86: 0x02C6 [0x55] WAIT_LOAD_SCHEDULER: Wait for scheduler "fdo1" with entities [EventEntity, EventEntity], work=200*
 87: 0x02D5 [0x52] END_LOAD_SCHEDULER: End scheduler "s113" with entities [EventEntity, EventEntity], work=761*
 88: 0x02E4 [0x6B] STOP_AND_IDLE: Lion (ID: 17257130/0x010752AA) stops current action and resets to idle (animation="idl0")
 89: 0x02ED [0x81] SET_ENTITY_BLINKING(blink_flag=0x01, entity=Lion (ID: 17257130/0x010752AA))
 90: 0x02F3 [0x1A] CALL_SUBROUTINE(address=0x2A44)
 91: 0x02F6 [0x89] OPEN_MAP(map_id=0x00008020)
 92: 0x02F9 [0x1C] WAIT(60* ticks)
 93: 0x02FC [0xB4] UI_WINDOW_STRING_HANDLER(case=0x14 - Update map window values, work_offset1=1000*, work_offset2=1000*, work_offset3=1300*, work_offset4=0*, work_offset5=1*)
 94: 0x0308 [0x1C] WAIT(30* ticks)
 95: 0x030B [0xB4] UI_WINDOW_STRING_HANDLER(case=0x14 - Update map window values, work_offset1=1000*, work_offset2=1000*, work_offset3=1000*, work_offset4=300*, work_offset5=1*)
 96: 0x0317 [0x03] Work_Zone[2] = 150*
 97: 0x031C [0x27] REQ_SET(priority=0x10, entity_id=??? (ID: 17257118/0x0107529E), tag_num=0x01)
 98: 0x0323 [0x1A] CALL_SUBROUTINE(address=0x2A32)
 99: 0x0326 [0x2B] Lion (ID: 17257130/0x010752AA) [11995*]:
    → "People fled to the four corners of Vana'diel, futilely trying to escape an ever-growing cloud of darkness."
100: 0x032D [0x23] WAIT_FOR_DIALOG_INTERACTION
101: 0x032E [0x2B] Lion (ID: 17257130/0x010752AA) [11996*]:
    → "And there I stood, frozen, my legs unable to do so much as quiver."
102: 0x0335 [0x23] WAIT_FOR_DIALOG_INTERACTION
103: 0x0336 [0x2A] GET_REQ_LEVEL(level=16, entity_id=??? (ID: 17257118/0x0107529E))
104: 0x033C [0x1A] CALL_SUBROUTINE(address=0x2A44)
105: 0x033F [0x8A] CLOSE_MAP()
106: 0x0340 [0xB4] UI_WINDOW_STRING_HANDLER(case=0x15 - Test map window validity)
107: 0x0342 [0x1A] CALL_SUBROUTINE(address=0x2A32)
108: 0x0345 [0x45] LOAD_SCHEDULED_TASK: Load scheduler "s114" with entities [EventEntity, EventEntity], work=[761*, 0*]
109: 0x0356 [0x1C] WAIT(15* ticks)
110: 0x0359 [0x45] LOAD_SCHEDULED_TASK: Load scheduler "fdi1" with entities [EventEntity, EventEntity], work=[200*, 0*]
111: 0x036A [0x2B] Lion (ID: 17257130/0x010752AA) [11997*]:
    → "The mothercrystal's vision can't be simple happenstance."
112: 0x0371 [0x23] WAIT_FOR_DIALOG_INTERACTION
113: 0x0372 [0x52] END_LOAD_SCHEDULER: End scheduler "s114" with entities [EventEntity, EventEntity], work=761*
114: 0x0381 [0x45] LOAD_SCHEDULED_TASK: Load scheduler "s115" with entities [EventEntity, EventEntity], work=[761*, 0*]
115: 0x0392 [0x02] IF !(ExtData[1]->WorkLocal[2] == 1*) GOTO 0x0418
116: 0x039A [0x2B] Lion (ID: 17257130/0x010752AA) [11998*]:
    → "Not everyone is aware that our world--our Vana'diel--is protected by the benevolence of the mothercrystal."
117: 0x03A1 [0x23] WAIT_FOR_DIALOG_INTERACTION
118: 0x03A2 [0x2B] Lion (ID: 17257130/0x010752AA) [11999*]:
    → "Look all around you. This place is no accident."
119: 0x03A9 [0x23] WAIT_FOR_DIALOG_INTERACTION
120: 0x03AA [0x7B] LocalPlayer stops talking
121: 0x03AF [0x1C] WAIT(90* ticks)
122: 0x03B2 [0x52] END_LOAD_SCHEDULER: End scheduler "s115" with entities [EventEntity, EventEntity], work=761*
123: 0x03C1 [0x45] LOAD_SCHEDULED_TASK: Load scheduler "s116" with entities [EventEntity, EventEntity], work=[761*, 0*]
124: 0x03D2 [0x03] Work_Zone[2] = 240*
125: 0x03D7 [0x27] REQ_SET(priority=0x10, entity_id=??? (ID: 17257118/0x0107529E), tag_num=0x01)
126: 0x03DE [0x2B] Lion (ID: 17257130/0x010752AA) [12000*]:
    → "The technologies required to make these structures are beyond any known to us."
127: 0x03E5 [0x23] WAIT_FOR_DIALOG_INTERACTION
128: 0x03E6 [0x2B] Lion (ID: 17257130/0x010752AA) [12001*]:
    → "Those who came before doubtlessly created this facility to shelter the crystal from harm."
129: 0x03ED [0x23] WAIT_FOR_DIALOG_INTERACTION
130: 0x03EE [0x2B] Lion (ID: 17257130/0x010752AA) [12002*]:
    → "But I wonder..."
131: 0x03F5 [0x23] WAIT_FOR_DIALOG_INTERACTION
132: 0x03F6 [0x79] LocalPlayer looks at Lion (ID: 17257130/0x010752AA) (Basic look)
133: 0x0400 [0x2A] GET_REQ_LEVEL(level=16, entity_id=??? (ID: 17257118/0x0107529E))
134: 0x0406 [0x52] END_LOAD_SCHEDULER: End scheduler "s116" with entities [EventEntity, EventEntity], work=761*
135: 0x0415 [0x01] GOTO 0x0452
136: 0x0418 [0x02] IF !(ExtData[1]->WorkLocal[1] == 1*) GOTO 0x0433
137: 0x0420 [0x2B] Lion (ID: 17257130/0x010752AA) [12005*]:
    → "Our world has remained resilient thanks to mothercrystals' blessings."
138: 0x0427 [0x23] WAIT_FOR_DIALOG_INTERACTION
139: 0x0428 [0x2B] Lion (ID: 17257130/0x010752AA) [12006*]:
    → "But what if it is our turn to protect her?"
140: 0x042F [0x23] WAIT_FOR_DIALOG_INTERACTION
141: 0x0430 [0x01] GOTO 0x0443
142: 0x0433 [0x2B] Lion (ID: 17257130/0x010752AA) [12003*]:
    → "There's some reason why the same visions continue to float before my eyes."
143: 0x043A [0x23] WAIT_FOR_DIALOG_INTERACTION
144: 0x043B [0x2B] Lion (ID: 17257130/0x010752AA) [12004*]:
    → "So I came here, to the mothercrystal."
145: 0x0442 [0x23] WAIT_FOR_DIALOG_INTERACTION

SUBROUTINE_0443:
146: 0x0443 [0x52] END_LOAD_SCHEDULER: End scheduler "s115" with entities [EventEntity, EventEntity], work=761*

SUBROUTINE_0452:
147: 0x0452 [0x45] LOAD_SCHEDULED_TASK: Load scheduler "s117" with entities [EventEntity, EventEntity], work=[761*, 0*]
148: 0x0463 [0x2B] Lion (ID: 17257130/0x010752AA) [12007*]:
    → "In my dream, an infernal gloom obscured the mothercrystal from view."
149: 0x046A [0x23] WAIT_FOR_DIALOG_INTERACTION
150: 0x046B [0x2B] Lion (ID: 17257130/0x010752AA) [12008*]:
    → "This mothercrystal isn't the only one, of course, and I've no way of knowing if I'm even at the right one..."
151: 0x0472 [0x23] WAIT_FOR_DIALOG_INTERACTION
152: 0x0473 [0x4A] LocalPlayer looks at Lion (ID: 17257130/0x010752AA)
153: 0x047C [0x1C] WAIT(30* ticks)
154: 0x047F [0x52] END_LOAD_SCHEDULER: End scheduler "s117" with entities [EventEntity, EventEntity], work=761*
155: 0x048E [0x45] LOAD_SCHEDULED_TASK: Load scheduler "s118" with entities [EventEntity, EventEntity], work=[761*, 0*]
156: 0x049F [0x27] REQ_SET(priority=0x05, entity_id=LocalPlayer, tag_num=0x10)
157: 0x04A6 [0x1C] WAIT(80* ticks)
158: 0x04A9 [0x27] REQ_SET(priority=0x05, entity_id=LocalPlayer, tag_num=0x11)
159: 0x04B0 [0x1C] WAIT(20* ticks)
160: 0x04B3 [0x4A] Lion (ID: 17257130/0x010752AA) looks at LocalPlayer
161: 0x04BC [0x1C] WAIT(20* ticks)
162: 0x04BF [0x52] END_LOAD_SCHEDULER: End scheduler "s118" with entities [EventEntity, EventEntity], work=761*
163: 0x04CE [0x45] LOAD_SCHEDULED_TASK: Load scheduler "s119" with entities [EventEntity, EventEntity], work=[761*, 0*]
164: 0x04DF [0x2B] Lion (ID: 17257130/0x010752AA) [12009*]:
    → "Wait--does that mean you've seen the same vision?"
165: 0x04E6 [0x23] WAIT_FOR_DIALOG_INTERACTION
166: 0x04E7 [0x52] END_LOAD_SCHEDULER: End scheduler "s119" with entities [EventEntity, EventEntity], work=761*
167: 0x04F6 [0x45] LOAD_SCHEDULED_TASK: Load scheduler "s120" with entities [EventEntity, EventEntity], work=[761*, 0*]
168: 0x0507 [0x5B] LOAD_EXT_SCHEDULER: Load scheduler "thk1" with entities [Lion (ID: 17257130/0x010752AA), Lion (ID: 17257130/0x010752AA)], work=95*
169: 0x0516 [0x2B] Lion (ID: 17257130/0x010752AA) [12010*]:
    → "...I see. Then this "Iroha" came from a future where much the same thing has happened."
170: 0x051D [0x23] WAIT_FOR_DIALOG_INTERACTION
171: 0x051E [0x2B] Lion (ID: 17257130/0x010752AA) [12011*]:
    → "Then the beastmen that ravage the three nations are not to blame. So... So what is this "Emptiness"?"
172: 0x0525 [0x23] WAIT_FOR_DIALOG_INTERACTION
173: 0x0526 [0x52] END_LOAD_SCHEDULER: End scheduler "s120" with entities [EventEntity, EventEntity], work=761*
174: 0x0535 [0x45] LOAD_SCHEDULED_TASK: Load scheduler "s121" with entities [EventEntity, EventEntity], work=[761*, 0*]
175: 0x0546 [0x2B] Lion (ID: 17257130/0x010752AA) [12012*]:
    → "She might be the only one with the answers I seek."
176: 0x054D [0x23] WAIT_FOR_DIALOG_INTERACTION
177: 0x054E [0x5B] LOAD_EXT_SCHEDULER: Load scheduler "thk2" with entities [Lion (ID: 17257130/0x010752AA), Lion (ID: 17257130/0x010752AA)], work=95*
178: 0x055D [0x2B] Lion (ID: 17257130/0x010752AA) [12013*]:
    → "Where could we run into her again?"
179: 0x0564 [0x23] WAIT_FOR_DIALOG_INTERACTION
180: 0x0565 [0x6E] LocalPlayer uses emote 6*
181: 0x056C [0x99] Wait for LocalPlayer animation to complete
182: 0x0571 [0x1C] WAIT(90* ticks)
183: 0x0574 [0x52] END_LOAD_SCHEDULER: End scheduler "s121" with entities [EventEntity, EventEntity], work=761*
184: 0x0583 [0x45] LOAD_SCHEDULED_TASK: Load scheduler "s122" with entities [EventEntity, EventEntity], work=[761*, 0*]
185: 0x0594 [0x5B] LOAD_EXT_SCHEDULER: Load scheduler "tl40" with entities [Lion (ID: 17257130/0x010752AA), Lion (ID: 17257130/0x010752AA)], work=538*
186: 0x05A3 [0x02] IF !(ExtData[1]->WorkLocal[1] == 1*) GOTO 0x05BE
187: 0x05AB [0x2B] Lion (ID: 17257130/0x010752AA) [12014*]:
    → ""Giving up" isn't in my vocabulary, yet we've no choice but to hold off for now."
188: 0x05B2 [0x23] WAIT_FOR_DIALOG_INTERACTION
189: 0x05B3 [0x2B] Lion (ID: 17257130/0x010752AA) [12015*]:
    → "In the meantime, I'd like you to go to the place I saw in my dream. I'd go myself, but...."
190: 0x05BA [0x23] WAIT_FOR_DIALOG_INTERACTION
191: 0x05BB [0x01] GOTO 0x05C6
192: 0x05BE [0x2B] Lion (ID: 17257130/0x010752AA) [12016*]:
    → "In the meantime, I'd like you to go to the place I saw in my dream."
193: 0x05C5 [0x23] WAIT_FOR_DIALOG_INTERACTION

SUBROUTINE_05C6:
194: 0x05C6 [0x5B] LOAD_EXT_SCHEDULER: Load scheduler "tl41" with entities [Lion (ID: 17257130/0x010752AA), Lion (ID: 17257130/0x010752AA)], work=538*
195: 0x05D5 [0x52] END_LOAD_SCHEDULER: End scheduler "s122" with entities [EventEntity, EventEntity], work=761*

SUBROUTINE_05E4:
196: 0x05E4 [0x45] LOAD_SCHEDULED_TASK: Load scheduler "s123" with entities [EventEntity, EventEntity], work=[761*, 0*]
197: 0x05F5 [0x24] CREATE_DIALOG(message_id=12017*, default_option=0*, option_flags=0*)
    → "How about it? [I'll go./I can't right now./Uh...go where, exactly?]"
198: 0x05FC [0x25] WAIT_DIALOG_SELECT()
199: 0x05FD [0x02] IF !(Work_Zone[0] == 0*) GOTO 0x063F
200: 0x0605 [0x52] END_LOAD_SCHEDULER: End scheduler "s123" with entities [EventEntity, EventEntity], work=761*
201: 0x0614 [0x45] LOAD_SCHEDULED_TASK: Load scheduler "s125" with entities [EventEntity, EventEntity], work=[761*, 0*]
202: 0x0625 [0x5B] LOAD_EXT_SCHEDULER: Load scheduler "tl40" with entities [Lion (ID: 17257130/0x010752AA), Lion (ID: 17257130/0x010752AA)], work=538*
203: 0x0634 [0x2B] Lion (ID: 17257130/0x010752AA) [12019*]:
    → "Thank you. I'm pretty sure the place I saw was somewhere near Jeuno."
204: 0x063B [0x23] WAIT_FOR_DIALOG_INTERACTION
205: 0x063C [0x01] GOTO 0x06E4
206: 0x063F [0x02] IF !(Work_Zone[0] == 1*) GOTO 0x06A2
207: 0x0647 [0x52] END_LOAD_SCHEDULER: End scheduler "s123" with entities [EventEntity, EventEntity], work=761*
208: 0x0656 [0x45] LOAD_SCHEDULED_TASK: Load scheduler "s124" with entities [EventEntity, EventEntity], work=[761*, 0*]
209: 0x0667 [0x5B] LOAD_EXT_SCHEDULER: Load scheduler "tl40" with entities [Lion (ID: 17257130/0x010752AA), Lion (ID: 17257130/0x010752AA)], work=538*
210: 0x0676 [0x2B] Lion (ID: 17257130/0x010752AA) [12018*]:
    → "If you scratch my back, I'll scratch yours...but I can't force you."
211: 0x067D [0x23] WAIT_FOR_DIALOG_INTERACTION
212: 0x067E [0x5B] LOAD_EXT_SCHEDULER: Load scheduler "tl41" with entities [Lion (ID: 17257130/0x010752AA), Lion (ID: 17257130/0x010752AA)], work=538*
213: 0x068D [0x52] END_LOAD_SCHEDULER: End scheduler "s124" with entities [EventEntity, EventEntity], work=761*
214: 0x069C [0x01] GOTO 0x05E4

SUBROUTINE_06E4:
215: 0x06E4 [0x5B] LOAD_EXT_SCHEDULER: Load scheduler "tl41" with entities [Lion (ID: 17257130/0x010752AA), Lion (ID: 17257130/0x010752AA)], work=538*
216: 0x06F3 [0x52] END_LOAD_SCHEDULER: End scheduler "s125" with entities [EventEntity, EventEntity], work=761*

SUBROUTINE_0702:
217: 0x0702 [0x45] LOAD_SCHEDULED_TASK: Load scheduler "s126" with entities [EventEntity, EventEntity], work=[761*, 0*]
218: 0x0713 [0x24] CREATE_DIALOG(message_id=12021*, default_option=0*, option_flags=0*)
    → "Where did the vision take place? [Lower Jeuno./Delkfutt's Tower./Qufim Island.]"
219: 0x071A [0x25] WAIT_DIALOG_SELECT()
220: 0x071B [0x02] IF !(Work_Zone[0] == 0*) GOTO 0x078A
221: 0x0723 [0x52] END_LOAD_SCHEDULER: End scheduler "s126" with entities [EventEntity, EventEntity], work=761*
222: 0x0732 [0x45] LOAD_SCHEDULED_TASK: Load scheduler "s127" with entities [EventEntity, EventEntity], work=[761*, 0*]
223: 0x0743 [0x81] SET_ENTITY_BLINKING(blink_flag=0x00, entity=Lion (ID: 17257130/0x010752AA))
224: 0x0749 [0x5B] LOAD_EXT_SCHEDULER: Load scheduler "thk1" with entities [Lion (ID: 17257130/0x010752AA), Lion (ID: 17257130/0x010752AA)], work=95*
225: 0x0758 [0x2B] Lion (ID: 17257130/0x010752AA) [12022*]:
    → "Do you think? I'm not so sure..."
226: 0x075F [0x23] WAIT_FOR_DIALOG_INTERACTION
227: 0x0760 [0x81] SET_ENTITY_BLINKING(blink_flag=0x01, entity=Lion (ID: 17257130/0x010752AA))
228: 0x0766 [0x5B] LOAD_EXT_SCHEDULER: Load scheduler "thk2" with entities [Lion (ID: 17257130/0x010752AA), Lion (ID: 17257130/0x010752AA)], work=95*
229: 0x0775 [0x52] END_LOAD_SCHEDULER: End scheduler "s127" with entities [EventEntity, EventEntity], work=761*
230: 0x0784 [0x01] GOTO 0x0702

SUBROUTINE_07F9:
231: 0x07F9 [0x52] END_LOAD_SCHEDULER: End scheduler "s126" with entities [EventEntity, EventEntity], work=761*
232: 0x0808 [0x45] LOAD_SCHEDULED_TASK: Load scheduler "s128" with entities [EventEntity, EventEntity], work=[761*, 0*]
233: 0x0819 [0x5B] LOAD_EXT_SCHEDULER: Load scheduler "yes0" with entities [Lion (ID: 17257130/0x010752AA), Lion (ID: 17257130/0x010752AA)], work=99*
234: 0x0828 [0x2B] Lion (ID: 17257130/0x010752AA) [12023*]:
    → "That's it! It's so clear to me now!"
235: 0x082F [0x1C] WAIT(140* ticks)
236: 0x0832 [0x23] WAIT_FOR_DIALOG_INTERACTION
237: 0x0833 [0x52] END_LOAD_SCHEDULER: End scheduler "s128" with entities [EventEntity, EventEntity], work=761*
238: 0x0842 [0x45] LOAD_SCHEDULED_TASK: Load scheduler "s129" with entities [EventEntity, EventEntity], work=[761*, 0*]
239: 0x0853 [0x5B] LOAD_EXT_SCHEDULER: Load scheduler "tl40" with entities [Lion (ID: 17257130/0x010752AA), Lion (ID: 17257130/0x010752AA)], work=538*
240: 0x0862 [0x02] IF !(ExtData[1]->WorkLocal[1] == 1*) GOTO 0x0891
241: 0x086A [0x2B] Lion (ID: 17257130/0x010752AA) [12024*]:
    → "I wish I could go with you, but know that I'm there in spirit."
242: 0x0871 [0x23] WAIT_FOR_DIALOG_INTERACTION
243: 0x0872 [0x2B] Lion (ID: 17257130/0x010752AA) [12025*]:
    → "It doesn't take a soothsayer to know that darkness bodes ill. Stay safe."
244: 0x0879 [0x23] WAIT_FOR_DIALOG_INTERACTION
245: 0x087A [0xD0] LOAD_SCHEDULED_TASK_ALT5: Load scheduler "kie0" with entities [Lion (ID: 17257130/0x010752AA), Lion (ID: 17257130/0x010752AA)], work=[107*, 0*]
246: 0x088B [0x1C] WAIT(180* ticks)
247: 0x088E [0x01] GOTO 0x0899
248: 0x0891 [0x2B] Lion (ID: 17257130/0x010752AA) [12026*]:
    → "I'll be there, <Player>."
249: 0x0898 [0x23] WAIT_FOR_DIALOG_INTERACTION

SUBROUTINE_0899:
250: 0x0899 [0x5D] SET_MUSIC_VOLUME(volume=0*, fade_time=120*)
251: 0x089E [0x45] LOAD_SCHEDULED_TASK: Load scheduler "fdo1" with entities [EventEntity, EventEntity], work=[200*, 0*]
252: 0x08AF [0x55] WAIT_LOAD_SCHEDULER: Wait for scheduler "fdo1" with entities [EventEntity, EventEntity], work=200*
253: 0x08BE [0x52] END_LOAD_SCHEDULER: End scheduler "s129" with entities [EventEntity, EventEntity], work=761*
254: 0x08CD [0x35] LOAD_ZONE_NO_CLOSE(zone_id=117*)
255: 0x08D0 [0x78] ENABLE_GAME_TIMER_RESET_WEATHER()
256: 0x08D1 [0x1C] WAIT(1* ticks)
257: 0x08D4 [0x5C] MUSIC_CONTROL: Set Idle (Day) music to song 0*
258: 0x08D8 [0x5C] MUSIC_CONTROL: Set Idle (Night) music to song 0*
259: 0x08DC [0x9A] WAIT_MUSIC_SERVER()
260: 0x08DD [0x46] CAMERA_CONTROL: Restore default settings
261: 0x08DF [0x45] LOAD_SCHEDULED_TASK: Load scheduler "fdi2" with entities [EventEntity, EventEntity], work=[200*, 0*]
262: 0x08F0 [0x21] END_EVENT
263: 0x08F1 [0x00] END_REQSTACK()
```

#### Data or dead code:

```
# Dead code (unreachable instructions):
     0x069F [0x01] GOTO 0x06E4
# Dead code (unreachable instructions):
     0x0787 [0x01] GOTO 0x07F9
     0x07F6 [0x01] GOTO 0x07F9
```

### Event 42

#### Metadata

| Field        | Value      |
|--------------|------------|
| Entrypoint   | 0x08F2     |
| Data Size    | 4104 bytes |
| Instructions | 468        |

```
      00 01 02 03 04 05 06 07  08 09 0A 0B 0C 0D 0E 0F
      -- -- -- -- -- -- -- --  -- -- -- -- -- -- -- --
08F0:       42 03 01 00 08 10  03 01 10 07 80 43 00 43    B..........C.C
0900: 01 03 03 00 08 10 03 04  00 09 10 5D 01 80 02 80  ...........]....
0910: 45 00 80 F8 FF FF 7F F8  FF FF 7F 66 64 6F 31 01  E..........fdo1.
0920: 80 55 00 80 F8 FF FF 7F  F8 FF FF 7F 66 64 6F 31  .U..........fdo1
0930: 46 01 38 03 80 34 05 80  77 06 80 07 80 1C 07 80  F.8..4..w.......
0940: 2F 00 AA 52 07 01 2F 00  A9 52 07 01 2F 00 AB 52  /..R../..R../..R
0950: 07 01 2F 00 AC 52 07 01  4E 00 AA 52 07 01 4E 00  ../..R..N..R..N.
0960: A9 52 07 01 4E 00 AB 52  07 01 4E 00 AC 52 07 01  .R..N..R..N..R..
0970: 92 01 AA 52 07 01 92 01  A9 52 07 01 92 01 AB 52  ...R.....R.....R
0980: 07 01 94 01 AA 52 07 01  94 01 A9 52 07 01 94 01  .....R.....R....
0990: AB 52 07 01 94 01 F0 FF  FF 7F 94 01 AC 52 07 01  .R...........R..
09A0: 02 87 7F 4F 80 80 B2 09  27 05 F0 FF FF 7F 17 01  ...O....'.......
09B0: EF 09 02 87 7F 3D 80 80  C4 09 27 05 F0 FF FF 7F  .....=....'.....
09C0: 17 01 EF 09 02 87 7F 50  80 80 D6 09 27 05 F0 FF  .......P....'...
09D0: FF 7F 18 01 EF 09 02 87  7F 51 80 80 E8 09 27 05  .........Q....'.
09E0: F0 FF FF 7F 19 01 EF 09  27 05 F0 FF FF 7F 1A 59  ........'......Y
09F0: 05 AC 52 07 01 01 BA AA  52 07 01 0D 80 0E 80 0A  ..R.....R.......
0A00: 80 16 80 BA F0 FF FF 7F  08 80 09 80 0A 80 0B 80  ................
0A10: BA AB 52 07 01 52 80 53  80 0A 80 54 80 BA A9 52  ..R..R.S...T...R
0A20: 07 01 55 80 56 80 0A 80  54 80 02 87 7F 57 80 80  ..U.V...T....W..
0A30: 42 0A BA AC 52 07 01 58  80 59 80 5A 80 5B 80 01  B...R..X.Y.Z.[..
0A40: AF 0A 02 87 7F 5C 80 80  5A 0A BA AC 52 07 01 58  .....\..Z...R..X
0A50: 80 59 80 5A 80 5B 80 01  AF 0A 02 87 7F 4F 80 80  .Y.Z.[.......O..
0A60: 72 0A BA AC 52 07 01 58  80 59 80 5D 80 5B 80 01  r...R..X.Y.].[..
0A70: AF 0A 02 87 7F 3D 80 80  8A 0A BA AC 52 07 01 58  .....=......R..X
0A80: 80 59 80 5D 80 5B 80 01  AF 0A 02 87 7F 51 80 80  .Y.].[.......Q..
0A90: A2 0A BA AC 52 07 01 58  80 59 80 5A 80 5B 80 01  ....R..X.Y.Z.[..
0AA0: AF 0A BA AC 52 07 01 58  80 59 80 5E 80 5B 80 80  ....R..X.Y.^.[..
0AB0: F0 FF FF 7F 80 AA 52 07  01 80 A9 52 07 01 80 AB  ......R....R....
0AC0: 52 07 01 80 AC 52 07 01  5C 00 01 80 5C 01 01 80  R....R..\...\...
0AD0: 9A 4A A9 52 07 01 AA 52  07 01 4A AB 52 07 01 AA  .J.R...R..J.R...
0AE0: 52 07 01 4A AA 52 07 01  A9 52 07 01 4A AC 52 07  R..J.R...R..J.R.
0AF0: 01 A9 52 07 01 1C 10 80  02 01 00 07 80 00 18 0B  ..R.............
0B00: 27 05 AA 52 07 01 05 D0  12 80 AA 52 07 01 AA 52  '..R.......R...R
0B10: 07 01 6C 69 30 31 01 80  5C 00 0C 80 5C 01 0C 80  ..li01..\...\...
0B20: 9A 27 05 F0 FF FF 7F 1B  45 5F 80 F8 FF FF 7F F8  .'......E_......
0B30: FF FF 7F 73 30 30 30 01  80 1C 14 80 45 00 80 F8  ...s000.....E...
0B40: FF FF 7F F8 FF FF 7F 66  64 69 31 01 80 1C 02 80  .......fdi1.....
0B50: 52 5F 80 F8 FF FF 7F F8  FF FF 7F 73 30 30 30 45  R_.........s000E
0B60: 5F 80 F8 FF FF 7F F8 FF  FF 7F 73 30 30 31 01 80  _.........s001..
0B70: 79 00 A9 52 07 01 F0 FF  FF 7F 1C 10 80 5B 60 80  y..R.........[`.
0B80: A9 52 07 01 A9 52 07 01  74 6C 6B 30 02 01 00 07  .R...R..tlk0....
0B90: 80 00 9F 0B 2B A9 52 07  01 61 80 23 01 A7 0B 2B  ....+.R..a.#...+
0BA0: A9 52 07 01 62 80 23 5B  60 80 A9 52 07 01 A9 52  .R..b.#[`..R...R
0BB0: 07 01 74 6C 6B 31 52 5F  80 F8 FF FF 7F F8 FF FF  ..tlk1R_........
0BC0: 7F 73 30 30 31 02 87 7F  4F 80 80 E1 0B 45 5F 80  .s001...O....E_.
0BD0: F8 FF FF 7F F8 FF FF 7F  73 30 30 33 01 80 01 0E  ........s003....
0BE0: 0C 02 87 7F 3D 80 80 FD  0B 45 5F 80 F8 FF FF 7F  ....=....E_.....
0BF0: F8 FF FF 7F 73 30 30 33  01 80 01 0E 0C 45 5F 80  ....s003.....E_.
0C00: F8 FF FF 7F F8 FF FF 7F  73 30 30 32 01 80 D0 63  ........s002...c
0C10: 80 AC 52 07 01 AC 52 07  01 73 74 61 31 01 80 1C  ..R...R..sta1...
0C20: 21 80 4A AA 52 07 01 F0  FF FF 7F 7B AA 52 07 01  !.J.R......{.R..
0C30: 7B AB 52 07 01 1C 21 80  81 00 AA 52 07 01 5B 11  {.R...!....R..[.
0C40: 80 AA 52 07 01 AA 52 07  01 68 69 7A 30 52 5F 80  ..R...R..hiz0R_.
0C50: F8 FF FF 7F F8 FF FF 7F  73 30 30 32 52 5F 80 F8  ........s002R_..
0C60: FF FF 7F F8 FF FF 7F 73  30 30 33 45 5F 80 F8 FF  .......s003E_...
0C70: FF 7F F8 FF FF 7F 73 30  30 34 01 80 79 00 A9 52  ......s004..y..R
0C80: 07 01 AA 52 07 01 1C 02  80 5B 64 80 A9 52 07 01  ...R.....[d..R..
0C90: A9 52 07 01 62 69 6B 30  5B 65 80 AB 52 07 01 AB  .R..bik0[e..R...
0CA0: 52 07 01 68 69 7A 30 52  5F 80 F8 FF FF 7F F8 FF  R..hiz0R_.......
0CB0: FF 7F 73 30 30 34 45 5F  80 F8 FF FF 7F F8 FF FF  ..s004E_........
0CC0: 7F 73 30 30 35 01 80 2B  AB 52 07 01 66 80 1C 00  .s005..+.R..f...
0CD0: 80 45 00 80 F8 FF FF 7F  F8 FF FF 7F 66 64 6F 31  .E..........fdo1
0CE0: 01 80 55 00 80 F8 FF FF  7F F8 FF FF 7F 66 64 6F  ..U..........fdo
0CF0: 31 52 5F 80 F8 FF FF 7F  F8 FF FF 7F 73 30 30 35  1R_.........s005
0D00: D0 63 80 AC 52 07 01 AC  52 07 01 6B 69 6C 32 01  .c..R...R..kil2.
0D10: 80 6B 69 64 6C 30 AB 52  07 01 6B 69 64 6C 30 A9  .kidl0.R..kidl0.
0D20: 52 07 01 27 05 AC 52 07  01 02 BA AC 52 07 01 67  R..'..R.....R..g
0D30: 80 68 80 0A 80 5B 80 80  AC 52 07 01 4A F0 FF FF  .h...[...R..J...
0D40: 7F AA 52 07 01 4A AC 52  07 01 AA 52 07 01 79 00  ..R..J.R...R..y.
0D50: AB 52 07 01 AA 52 07 01  1C 10 80 5B 11 80 AA 52  .R...R.....[...R
0D60: 07 01 AA 52 07 01 6B 61  6B 6C D0 63 80 AC 52 07  ...R..kakl.c..R.
0D70: 01 AC 52 07 01 73 74 61  72 01 80 27 05 F0 FF FF  ..R..star..'....
0D80: 7F 1C 1C 10 80 45 5F 80  F8 FF FF 7F F8 FF FF 7F  .....E_.........
0D90: 73 30 30 36 01 80 1C 14  80 45 00 80 F8 FF FF 7F  s006.....E......
0DA0: F8 FF FF 7F 66 64 69 31  01 80 2B AA 52 07 01 69  ....fdi1..+.R..i
0DB0: 80 1C 02 80 5F 05 11 80  AA 52 07 01 AA 52 07 01  ...._....R...R..
0DC0: 6B 61 6B 31 6A 80 2B AA  52 07 01 6B 80 23 2B AA  kak1j.+.R..k.#+.
0DD0: 52 07 01 6C 80 23 5F 07  AA 52 07 01 AA 52 07 01  R..l.#_..R...R..
0DE0: 6B 61 6B 31 52 5F 80 F8  FF FF 7F F8 FF FF 7F 73  kak1R_.........s
0DF0: 30 30 36 45 5F 80 F8 FF  FF 7F F8 FF FF 7F 73 30  006E_.........s0
0E00: 38 31 01 80 27 05 AA 52  07 01 03 7B AA 52 07 01  81..'..R...{.R..
0E10: 2B AA 52 07 01 6D 80 1C  10 80 4B F0 FF FF 7F 6E  +.R..m....K....n
0E20: 80 4B AC 52 07 01 6E 80  1C 10 80 52 5F 80 F8 FF  .K.R..n....R_...
0E30: FF 7F F8 FF FF 7F 73 30  38 31 45 5F 80 F8 FF FF  ......s081E_....
0E40: 7F F8 FF FF 7F 73 30 30  37 01 80 23 2B AA 52 07  .....s007..#+.R.
0E50: 01 6F 80 23 2A 05 AA 52  07 01 52 5F 80 F8 FF FF  .o.#*..R..R_....
0E60: 7F F8 FF FF 7F 73 30 30  37 45 5F 80 F8 FF FF 7F  .....s007E_.....
0E70: F8 FF FF 7F 73 30 30 38  01 80 2B AA 52 07 01 70  ....s008..+.R..p
0E80: 80 23 52 5F 80 F8 FF FF  7F F8 FF FF 7F 73 30 30  .#R_.........s00
0E90: 38 45 5F 80 F8 FF FF 7F  F8 FF FF 7F 73 30 30 39  8E_.........s009
0EA0: 01 80 5B 64 80 A9 52 07  01 A9 52 07 01 74 6C 63  ..[d..R...R..tlc
0EB0: 30 2B A9 52 07 01 71 80  23 5B 64 80 A9 52 07 01  0+.R..q.#[d..R..
0EC0: A9 52 07 01 74 6C 63 31  4A AA 52 07 01 A9 52 07  .R..tlc1J.R...R.
0ED0: 01 1C 10 80 5B 11 80 AA  52 07 01 AA 52 07 01 79  ....[...R...R..y
0EE0: 65 73 30 1C 4A 80 5B 3E  80 AA 52 07 01 AA 52 07  es0.J.[>..R...R.
0EF0: 01 74 6C 34 30 2B AA 52  07 01 72 80 23 5B 3E 80  .tl40+.R..r.#[>.
0F00: AA 52 07 01 AA 52 07 01  74 6C 34 31 52 5F 80 F8  .R...R..tl41R_..
0F10: FF FF 7F F8 FF FF 7F 73  30 30 39 45 5F 80 F8 FF  .......s009E_...
0F20: FF 7F F8 FF FF 7F 73 30  31 30 01 80 5B 73 80 AB  ......s010..[s..
0F30: 52 07 01 AB 52 07 01 74  6B 62 30 2B AB 52 07 01  R...R..tkb0+.R..
0F40: 74 80 23 5B 73 80 AB 52  07 01 AB 52 07 01 74 6B  t.#[s..R...R..tk
0F50: 62 31 52 5F 80 F8 FF FF  7F F8 FF FF 7F 73 30 31  b1R_.........s01
0F60: 30 45 5F 80 F8 FF FF 7F  F8 FF FF 7F 73 30 31 31  0E_.........s011
0F70: 01 80 D0 63 80 AC 52 07  01 AC 52 07 01 6B 69 6C  ...c..R...R..kil
0F80: 6C 01 80 4A AA 52 07 01  F0 FF FF 7F 1C 10 80 02  l..J.R..........
0F90: 75 80 04 00 00 A5 10 5B  3E 80 AA 52 07 01 AA 52  u......[>..R...R
0FA0: 07 01 74 6C 34 30 2B AA  52 07 01 76 80 23 2B AA  ..tl40+.R..v.#+.
0FB0: 52 07 01 77 80 23 5B 3E  80 AA 52 07 01 AA 52 07  R..w.#[>..R...R.
0FC0: 01 74 6C 34 31 52 5F 80  F8 FF FF 7F F8 FF FF 7F  .tl41R_.........
0FD0: 73 30 31 31 45 5F 80 F8  FF FF 7F F8 FF FF 7F 73  s011E_.........s
0FE0: 30 31 34 01 80 5B 78 80  A9 52 07 01 A9 52 07 01  014..[x..R...R..
0FF0: 79 65 73 30 2B A9 52 07  01 79 80 23 1C 21 80 D0  yes0+.R..y.#.!..
1000: 63 80 AC 52 07 01 AC 52  07 01 73 74 61 72 01 80  c..R...R..star..
1010: 4A AA 52 07 01 A9 52 07  01 1C 7A 80 23 52 5F 80  J.R...R...z.#R_.
1020: F8 FF FF 7F F8 FF FF 7F  73 30 31 34 45 5F 80 F8  ........s014E_..
1030: FF FF 7F F8 FF FF 7F 73  30 31 35 01 80 5B 60 80  .......s015..[`.
1040: A9 52 07 01 A9 52 07 01  74 6C 6B 30 2B A9 52 07  .R...R..tlk0+.R.
1050: 01 7B 80 23 2B A9 52 07  01 7C 80 23 5B 60 80 A9  .{.#+.R..|.#[`..
1060: 52 07 01 A9 52 07 01 74  6C 6B 31 52 5F 80 F8 FF  R...R..tlk1R_...
1070: FF 7F F8 FF FF 7F 73 30  31 35 45 5F 80 F8 FF FF  ......s015E_....
1080: 7F F8 FF FF 7F 73 30 31  36 01 80 5B 73 80 AB 52  .....s016..[s..R
1090: 07 01 AB 52 07 01 75 64  65 30 2B AB 52 07 01 7D  ...R..ude0+.R..}
10A0: 80 23 01 4B 13 02 03 00  07 80 00 C2 11 5B 3E 80  .#.K.........[>.
10B0: AA 52 07 01 AA 52 07 01  74 6C 34 30 2B AA 52 07  .R...R..tl40+.R.
10C0: 01 7E 80 23 2B AA 52 07  01 7F 80 23 2B AA 52 07  .~.#+.R....#+.R.
10D0: 01 80 80 23 5B 3E 80 AA  52 07 01 AA 52 07 01 74  ...#[>..R...R..t
10E0: 6C 34 31 52 5F 80 F8 FF  FF 7F F8 FF FF 7F 73 30  l41R_.........s0
10F0: 31 31 45 5F 80 F8 FF FF  7F F8 FF FF 7F 73 30 31  11E_.........s01
1100: 34 01 80 5B 78 80 A9 52  07 01 A9 52 07 01 79 65  4..[x..R...R..ye
1110: 73 30 2B A9 52 07 01 81  80 1C 21 80 D0 63 80 AC  s0+.R.....!..c..
1120: 52 07 01 AC 52 07 01 73  74 61 72 01 80 4A AA 52  R...R..star..J.R
1130: 07 01 A9 52 07 01 1C 7A  80 23 52 5F 80 F8 FF FF  ...R...z.#R_....
1140: 7F F8 FF FF 7F 73 30 31  34 45 5F 80 F8 FF FF 7F  .....s014E_.....
1150: F8 FF FF 7F 73 30 31 35  01 80 5B 60 80 A9 52 07  ....s015..[`..R.
1160: 01 A9 52 07 01 74 6C 6B  30 2B A9 52 07 01 82 80  ..R..tlk0+.R....
1170: 23 2B A9 52 07 01 83 80  23 5B 60 80 A9 52 07 01  #+.R....#[`..R..
1180: A9 52 07 01 74 6C 6B 31  52 5F 80 F8 FF FF 7F F8  .R..tlk1R_......
1190: FF FF 7F 73 30 31 35 45  5F 80 F8 FF FF 7F F8 FF  ...s015E_.......
11A0: FF 7F 73 30 31 36 01 80  5B 73 80 AB 52 07 01 AB  ..s016..[s..R...
11B0: 52 07 01 75 64 65 30 2B  AB 52 07 01 84 80 23 01  R..ude0+.R....#.
11C0: 4B 13 5B 3E 80 AA 52 07  01 AA 52 07 01 74 6C 35  K.[>..R...R..tl5
11D0: 30 2B AA 52 07 01 85 80  23 52 5F 80 F8 FF FF 7F  0+.R....#R_.....
11E0: F8 FF FF 7F 73 30 31 31  45 5F 80 F8 FF FF 7F F8  ....s011E_......
11F0: FF FF 7F 73 30 31 32 01  80 5B 73 80 AB 52 07 01  ...s012..[s..R..
1200: AB 52 07 01 74 6B 62 30  2B AB 52 07 01 86 80 1C  .R..tkb0+.R.....
1210: 21 80 D0 63 80 AC 52 07  01 AC 52 07 01 73 74 61  !..c..R...R..sta
1220: 72 01 80 1C 21 80 52 5F  80 F8 FF FF 7F F8 FF FF  r...!.R_........
1230: 7F 73 30 31 32 45 5F 80  F8 FF FF 7F F8 FF FF 7F  .s012E_.........
1240: 73 30 31 33 01 80 5B 73  80 AB 52 07 01 AB 52 07  s013..[s..R...R.
1250: 01 74 6B 62 31 5B 11 80  AA 52 07 01 AA 52 07 01  .tkb1[...R...R..
1260: 79 65 73 30 2B AA 52 07  01 87 80 1C 4A 80 23 52  yes0+.R.....J.#R
1270: 5F 80 F8 FF FF 7F F8 FF  FF 7F 73 30 31 33 45 5F  _.........s013E_
1280: 80 F8 FF FF 7F F8 FF FF  7F 73 30 31 34 01 80 5B  .........s014..[
1290: 78 80 A9 52 07 01 A9 52  07 01 79 65 73 30 2B A9  x..R...R..yes0+.
12A0: 52 07 01 88 80 1C 21 80  4A AA 52 07 01 A9 52 07  R.....!.J.R...R.
12B0: 01 1C 7A 80 23 52 5F 80  F8 FF FF 7F F8 FF FF 7F  ..z.#R_.........
12C0: 73 30 31 34 45 5F 80 F8  FF FF 7F F8 FF FF 7F 73  s014E_.........s
12D0: 30 31 35 01 80 5B 60 80  A9 52 07 01 A9 52 07 01  015..[`..R...R..
12E0: 74 6C 6B 30 2B A9 52 07  01 89 80 23 2B A9 52 07  tlk0+.R....#+.R.
12F0: 01 8A 80 23 2B A9 52 07  01 8B 80 23 5B 60 80 A9  ...#+.R....#[`..
1300: 52 07 01 A9 52 07 01 74  6C 6B 31 52 5F 80 F8 FF  R...R..tlk1R_...
1310: FF 7F F8 FF FF 7F 73 30  31 35 45 5F 80 F8 FF FF  ......s015E_....
1320: 7F F8 FF FF 7F 73 30 31  36 01 80 5B 73 80 AB 52  .....s016..[s..R
1330: 07 01 AB 52 07 01 75 64  65 30 2B AB 52 07 01 8C  ...R..ude0+.R...
1340: 80 23 03 01 10 45 80 43  00 43 01 D0 63 80 AC 52  .#...E.C.C..c..R
1350: 07 01 AC 52 07 01 6B 69  6C 6C 01 80 4A AA 52 07  ...R..kill..J.R.
1360: 01 F0 FF FF 7F 4A F0 FF  FF 7F AA 52 07 01 4A AC  .....J.....R..J.
1370: 52 07 01 AA 52 07 01 7B  F0 FF FF 7F 7B AC 52 07  R...R..{....{.R.
1380: 01 1C 10 80 52 5F 80 F8  FF FF 7F F8 FF FF 7F 73  ....R_.........s
1390: 30 31 36 45 5F 80 F8 FF  FF 7F F8 FF FF 7F 73 30  016E_.........s0
13A0: 31 37 01 80 5B 3E 80 AA  52 07 01 AA 52 07 01 74  17..[>..R...R..t
13B0: 6C 35 30 2B AA 52 07 01  8D 80 23 02 03 00 07 80  l50+.R....#.....
13C0: 01 CE 13 2B AA 52 07 01  8E 80 23 01 D6 13 2B AA  ...+.R....#...+.
13D0: 52 07 01 8F 80 23 52 5F  80 F8 FF FF 7F F8 FF FF  R....#R_........
13E0: 7F 73 30 31 37 02 87 7F  4F 80 80 01 14 45 5F 80  .s017...O....E_.
13F0: F8 FF FF 7F F8 FF FF 7F  73 30 38 35 01 80 01 2E  ........s085....
1400: 14 02 87 7F 3D 80 80 1D  14 45 5F 80 F8 FF FF 7F  ....=....E_.....
1410: F8 FF FF 7F 73 30 38 35  01 80 01 2E 14 45 5F 80  ....s085.....E_.
1420: F8 FF FF 7F F8 FF FF 7F  73 30 38 34 01 80 D0 15  ........s084....
1430: 80 AC 52 07 01 AC 52 07  01 6D 61 78 30 01 80 1C  ..R...R..max0...
1440: 35 80 81 00 AA 52 07 01  7C 00 AA 52 07 01 5B 11  5....R..|..R..[.
1450: 80 AA 52 07 01 AA 52 07  01 68 61 6E 30 52 5F 80  ..R...R..han0R_.
1460: F8 FF FF 7F F8 FF FF 7F  73 30 38 34 52 5F 80 F8  ........s084R_..
1470: FF FF 7F F8 FF FF 7F 73  30 38 35 45 5F 80 F8 FF  .......s085E_...
1480: FF 7F F8 FF FF 7F 73 30  38 33 01 80 1C 2A 80 52  ......s083...*.R
1490: 5F 80 F8 FF FF 7F F8 FF  FF 7F 73 30 38 33 45 5F  _.........s083E_
14A0: 80 F8 FF FF 7F F8 FF FF  7F 73 30 31 38 01 80 D0  .........s018...
14B0: 4E 80 F0 FF FF 7F F0 FF  FF 7F 74 67 74 30 01 80  N.........tgt0..
14C0: 1C 1D 80 45 90 80 F0 FF  FF 7F F0 FF FF 7F 77 68  ...E..........wh
14D0: 6F 31 01 80 55 90 80 F0  FF FF 7F F0 FF FF 7F 77  o1..U..........w
14E0: 68 6F 31 52 5F 80 F8 FF  FF 7F F8 FF FF 7F 73 30  ho1R_.........s0
14F0: 31 38 D0 63 80 AC 52 07  01 AC 52 07 01 73 74 61  18.c..R...R..sta
1500: 72 01 80 45 5F 80 F8 FF  FF 7F F8 FF FF 7F 73 30  r..E_.........s0
1510: 31 39 01 80 1C 14 80 45  90 80 F0 FF FF 7F F0 FF  19.....E........
1520: FF 7F 77 68 69 31 01 80  7C 01 AA 52 07 01 5B 11  ..whi1..|..R..[.
1530: 80 AA 52 07 01 AA 52 07  01 68 61 6E 31 79 00 AA  ..R...R..han1y..
1540: 52 07 01 A9 52 07 01 2B  AA 52 07 01 91 80 1C 35  R...R..+.R.....5
1550: 80 81 01 AA 52 07 01 23  52 5F 80 F8 FF FF 7F F8  ....R..#R_......
1560: FF FF 7F 73 30 31 39 45  5F 80 F8 FF FF 7F F8 FF  ...s019E_.......
1570: FF 7F 73 30 32 30 01 80  5B 64 80 A9 52 07 01 A9  ..s020..[d..R...
1580: 52 07 01 74 6C 63 30 2B  A9 52 07 01 92 80 23 2B  R..tlc0+.R....#+
1590: A9 52 07 01 93 80 23 5B  64 80 A9 52 07 01 A9 52  .R....#[d..R...R
15A0: 07 01 74 6C 63 31 79 00  AA 52 07 01 F0 FF FF 7F  ..tlc1y..R......
15B0: 2B AA 52 07 01 94 80 23  27 05 F0 FF FF 7F 1E 1C  +.R....#'.......
15C0: 02 80 52 5F 80 F8 FF FF  7F F8 FF FF 7F 73 30 32  ..R_.........s02
15D0: 30 45 5F 80 F8 FF FF 7F  F8 FF FF 7F 73 30 32 31  0E_.........s021
15E0: 01 80 5B 11 80 AA 52 07  01 AA 52 07 01 79 65 73  ..[...R...R..yes
15F0: 30 2B AA 52 07 01 95 80  1C 21 80 D0 63 80 AC 52  0+.R.....!..c..R
1600: 07 01 AC 52 07 01 6B 69  6C 6C 01 80 6B 69 64 6C  ...R..kill..kidl
1610: 30 F0 FF FF 7F 4E 01 AC  52 07 01 BA A9 52 07 01  0....N..R....R..
1620: 96 80 97 80 0A 80 98 80  4A A9 52 07 01 AA 52 07  ........J.R...R.
1630: 01 1C 21 80 23 52 5F 80  F8 FF FF 7F F8 FF FF 7F  ..!.#R_.........
1640: 73 30 32 31 45 5F 80 F8  FF FF 7F F8 FF FF 7F 73  s021E_.........s
1650: 30 32 32 01 80 4A AA 52  07 01 A9 52 07 01 1C 10  022..J.R...R....
1660: 80 5B 3E 80 AA 52 07 01  AA 52 07 01 74 6C 35 30  .[>..R...R..tl50
1670: 02 03 00 07 80 01 83 16  2B AA 52 07 01 99 80 23  ........+.R....#
1680: 01 8B 16 2B AA 52 07 01  9A 80 23 79 00 AA 52 07  ...+.R....#y..R.
1690: 01 AB 52 07 01 2B AA 52  07 01 9B 80 23 52 5F 80  ..R..+.R....#R_.
16A0: F8 FF FF 7F F8 FF FF 7F  73 30 32 32 45 5F 80 F8  ........s022E_..
16B0: FF FF 7F F8 FF FF 7F 73  30 32 33 01 80 5B 73 80  .......s023..[s.
16C0: AB 52 07 01 AB 52 07 01  75 64 65 31 2B AB 52 07  .R...R..ude1+.R.
16D0: 01 9C 80 23 52 5F 80 F8  FF FF 7F F8 FF FF 7F 73  ...#R_.........s
16E0: 30 32 33 45 5F 80 F8 FF  FF 7F F8 FF FF 7F 73 30  023E_.........s0
16F0: 32 34 01 80 79 00 AB 52  07 01 A9 52 07 01 79 00  24..y..R...R..y.
1700: AA 52 07 01 A9 52 07 01  5B 64 80 A9 52 07 01 A9  .R...R..[d..R...
1710: 52 07 01 74 6C 63 30 2B  A9 52 07 01 9D 80 23 5B  R..tlc0+.R....#[
1720: 64 80 A9 52 07 01 A9 52  07 01 74 6C 63 31 5B 65  d..R...R..tlc1[e
1730: 80 AB 52 07 01 AB 52 07  01 79 65 73 30 1C 10 80  ..R...R..yes0...
1740: 52 5F 80 F8 FF FF 7F F8  FF FF 7F 73 30 32 34 45  R_.........s024E
1750: 5F 80 F8 FF FF 7F F8 FF  FF 7F 73 30 32 35 01 80  _.........s025..
1760: 1C 02 80 52 5F 80 F8 FF  FF 7F F8 FF FF 7F 73 30  ...R_.........s0
1770: 32 35 45 5F 80 F8 FF FF  7F F8 FF FF 7F 73 30 32  25E_.........s02
1780: 36 01 80 1C 14 80 27 05  AB 52 07 01 02 7B AB 52  6.....'..R...{.R
1790: 07 01 5B 11 80 AA 52 07  01 AA 52 07 01 79 65 73  ..[...R...R..yes
17A0: 30 1C 4A 80 02 01 00 07  80 00 C3 17 D0 12 80 AA  0.J.............
17B0: 52 07 01 AA 52 07 01 6B  69 65 30 01 80 1C 1D 80  R...R..kie0.....
17C0: 01 D2 17 27 05 AA 52 07  01 04 7B AA 52 07 01 1C  ...'..R...{.R...
17D0: 1D 80 52 5F 80 F8 FF FF  7F F8 FF FF 7F 73 30 32  ..R_.........s02
17E0: 36 45 5F 80 F8 FF FF 7F  F8 FF FF 7F 73 30 32 37  6E_.........s027
17F0: 01 80 4A A9 52 07 01 F0  FF FF 7F 1C 10 80 4A F0  ..J.R.........J.
1800: FF FF 7F A9 52 07 01 5B  60 80 A9 52 07 01 A9 52  ....R..[`..R...R
1810: 07 01 74 6C 6B 30 2B A9  52 07 01 9E 80 23 02 03  ..tlk0+.R....#..
1820: 00 07 80 01 31 18 2B A9  52 07 01 9F 80 23 01 39  ....1.+.R....#.9
1830: 18 2B A9 52 07 01 A0 80  23 5B 60 80 A9 52 07 01  .+.R....#[`..R..
1840: A9 52 07 01 74 6C 6B 31  52 5F 80 F8 FF FF 7F F8  .R..tlk1R_......
1850: FF FF 7F 73 30 32 37 45  5F 80 F8 FF FF 7F F8 FF  ...s027E_.......
1860: FF 7F 73 30 32 38 01 80  2B A9 52 07 01 A1 80 1C  ..s028..+.R.....
1870: 02 80 52 5F 80 F8 FF FF  7F F8 FF FF 7F 73 30 32  ..R_.........s02
1880: 38 45 5F 80 F8 FF FF 7F  F8 FF FF 7F 73 30 32 39  8E_.........s029
1890: 01 80 27 05 A9 52 07 01  09 7B A9 52 07 01 1C 1D  ..'..R...{.R....
18A0: 80 5D 01 80 02 80 45 00  80 F8 FF FF 7F F8 FF FF  .]....E.........
18B0: 7F 66 64 6F 31 01 80 55  00 80 F8 FF FF 7F F8 FF  .fdo1..U........
18C0: FF 7F 66 64 6F 31 52 5F  80 F8 FF FF 7F F8 FF FF  ..fdo1R_........
18D0: 7F 73 30 32 39 35 4E 80  78 1C 07 80 5C 00 01 80  .s0295N.x...\...
18E0: 5C 01 01 80 9A 46 00 45  00 80 F8 FF FF 7F F8 FF  \....F.E........
18F0: FF 7F 66 64 69 32 01 80  21 00                    ..fdi2..!.      
```

#### Opcodes

```
  0: 0x08F2 [0x42] SET_CLI_EVENT_CANCEL_DATA()
  1: 0x08F3 [0x03] ExtData[1]->WorkLocal[1] = Work_Zone[8]
  2: 0x08F8 [0x03] Work_Zone[1] = 1*
  3: 0x08FD [0x43] SEND_EVENT_UPDATE: Send pending tag to server (packet 0x005B)
  4: 0x08FF [0x43] SEND_EVENT_UPDATE: Check pending flag (skip if not pending)
  5: 0x0901 [0x03] ExtData[1]->WorkLocal[3] = Work_Zone[8]
  6: 0x0906 [0x03] ExtData[1]->WorkLocal[4] = Work_Zone[9]
  7: 0x090B [0x5D] SET_MUSIC_VOLUME(volume=0*, fade_time=120*)
  8: 0x0910 [0x45] LOAD_SCHEDULED_TASK: Load scheduler "fdo1" with entities [EventEntity, EventEntity], work=[200*, 0*]
  9: 0x0921 [0x55] WAIT_LOAD_SCHEDULER: Wait for scheduler "fdo1" with entities [EventEntity, EventEntity], work=200*
 10: 0x0930 [0x46] CAMERA_CONTROL: Disable user control
 11: 0x0932 [0x38] SET_CLIENT_EVENT_MODE(mode=27*)
 12: 0x0935 [0x34] LOAD_UNLOAD_ZONE(zone_id=541*)
 13: 0x0938 [0x77] SET_EVENT_TIME_WEATHER(hour=255*, weather=1*)
 14: 0x093D [0x1C] WAIT(1* ticks)
 15: 0x0940 [0x2F] Lion (ID: 17257130/0x010752AA)->Render.Flags0 &= ~0x80000 // Bit 19
 16: 0x0946 [0x2F] Iroha (ID: 17257129/0x010752A9)->Render.Flags0 &= ~0x80000 // Bit 19
 17: 0x094C [0x2F] Zeid (ID: 17257131/0x010752AB)->Render.Flags0 &= ~0x80000 // Bit 19
 18: 0x0952 [0x2F] Unnamed NPC (ID: 17257132/0x010752AC)->Render.Flags0 &= ~0x80000 // Bit 19
 19: 0x0958 [0x4E] SET_ENTITY_HIDE_FLAG: Show Lion (ID: 17257130/0x010752AA)
 20: 0x095E [0x4E] SET_ENTITY_HIDE_FLAG: Show Iroha (ID: 17257129/0x010752A9)
 21: 0x0964 [0x4E] SET_ENTITY_HIDE_FLAG: Show Zeid (ID: 17257131/0x010752AB)
 22: 0x096A [0x4E] SET_ENTITY_HIDE_FLAG: Show Unnamed NPC (ID: 17257132/0x010752AC)
 23: 0x0970 [0x92] Lion (ID: 17257130/0x010752AA)->Render.Flags3 ^= 0x01
 24: 0x0976 [0x92] Iroha (ID: 17257129/0x010752A9)->Render.Flags3 ^= 0x01
 25: 0x097C [0x92] Zeid (ID: 17257131/0x010752AB)->Render.Flags3 ^= 0x01
 26: 0x0982 [0x94] Lion (ID: 17257130/0x010752AA)->Render.Flags3 ^= 0x01
 27: 0x0988 [0x94] Iroha (ID: 17257129/0x010752A9)->Render.Flags3 ^= 0x01
 28: 0x098E [0x94] Zeid (ID: 17257131/0x010752AB)->Render.Flags3 ^= 0x01
 29: 0x0994 [0x94] LocalPlayer->Render.Flags3 ^= 0x01
 30: 0x099A [0x94] Unnamed NPC (ID: 17257132/0x010752AC)->Render.Flags3 ^= 0x01
 31: 0x09A0 [0x02] IF !(LocalPlayer->Race == 5*) GOTO 0x09B2
 32: 0x09A8 [0x27] REQ_SET(priority=0x05, entity_id=LocalPlayer, tag_num=0x17)
 33: 0x09AF [0x01] GOTO 0x09EF
 34: 0x09B2 [0x02] IF !(LocalPlayer->Race == 6*) GOTO 0x09C4
 35: 0x09BA [0x27] REQ_SET(priority=0x05, entity_id=LocalPlayer, tag_num=0x17)
 36: 0x09C1 [0x01] GOTO 0x09EF
 37: 0x09C4 [0x02] IF !(LocalPlayer->Race == 7*) GOTO 0x09D6
 38: 0x09CC [0x27] REQ_SET(priority=0x05, entity_id=LocalPlayer, tag_num=0x18)
 39: 0x09D3 [0x01] GOTO 0x09EF
 40: 0x09D6 [0x02] IF !(LocalPlayer->Race == 8*) GOTO 0x09E8
 41: 0x09DE [0x27] REQ_SET(priority=0x05, entity_id=LocalPlayer, tag_num=0x19)
 42: 0x09E5 [0x01] GOTO 0x09EF
 43: 0x09E8 [0x27] REQ_SET(priority=0x05, entity_id=LocalPlayer, tag_num=0x1A)

SUBROUTINE_09EF:
 44: 0x09EF [0x59] UPDATE_ENTITY_DATA: Unnamed NPC (ID: 17257132/0x010752AC)->Render.Flags0 |= 0x200000
 45: 0x09F6 [0xBA] SET_ENTITY_POSITION(entity_id=Lion (ID: 17257130/0x010752AA), pos_x=-399.936*, pos_z=354.066*, pos_y=-19.099*, direction=268.1°*)
 46: 0x0A03 [0xBA] SET_ENTITY_POSITION(entity_id=LocalPlayer, pos_x=-397.200*, pos_z=347.940*, pos_y=-19.099*, direction=270.0°*)
 47: 0x0A10 [0xBA] SET_ENTITY_POSITION(entity_id=Zeid (ID: 17257131/0x010752AB), pos_x=-401.424*, pos_z=355.342*, pos_y=-19.099*, direction=170.6°*)
 48: 0x0A1D [0xBA] SET_ENTITY_POSITION(entity_id=Iroha (ID: 17257129/0x010752A9), pos_x=-399.696*, pos_z=356.554*, pos_y=-19.099*, direction=170.6°*)
 49: 0x0A2A [0x02] IF !(LocalPlayer->Race == 3*) GOTO 0x0A42
 50: 0x0A32 [0xBA] SET_ENTITY_POSITION(entity_id=Unnamed NPC (ID: 17257132/0x010752AC), pos_x=-397.800*, pos_z=354.350*, pos_y=-20.299*, direction=306.8°*)
 51: 0x0A3F [0x01] GOTO 0x0AAF
 52: 0x0A42 [0x02] IF !(LocalPlayer->Race == 4*) GOTO 0x0A5A
 53: 0x0A4A [0xBA] SET_ENTITY_POSITION(entity_id=Unnamed NPC (ID: 17257132/0x010752AC), pos_x=-397.800*, pos_z=354.350*, pos_y=-20.299*, direction=306.8°*)
 54: 0x0A57 [0x01] GOTO 0x0AAF
 55: 0x0A5A [0x02] IF !(LocalPlayer->Race == 5*) GOTO 0x0A72
 56: 0x0A62 [0xBA] SET_ENTITY_POSITION(entity_id=Unnamed NPC (ID: 17257132/0x010752AC), pos_x=-397.800*, pos_z=354.350*, pos_y=-19.399*, direction=306.8°*)
 57: 0x0A6F [0x01] GOTO 0x0AAF
 58: 0x0A72 [0x02] IF !(LocalPlayer->Race == 6*) GOTO 0x0A8A
 59: 0x0A7A [0xBA] SET_ENTITY_POSITION(entity_id=Unnamed NPC (ID: 17257132/0x010752AC), pos_x=-397.800*, pos_z=354.350*, pos_y=-19.399*, direction=306.8°*)
 60: 0x0A87 [0x01] GOTO 0x0AAF
 61: 0x0A8A [0x02] IF !(LocalPlayer->Race == 8*) GOTO 0x0AA2
 62: 0x0A92 [0xBA] SET_ENTITY_POSITION(entity_id=Unnamed NPC (ID: 17257132/0x010752AC), pos_x=-397.800*, pos_z=354.350*, pos_y=-20.299*, direction=306.8°*)
 63: 0x0A9F [0x01] GOTO 0x0AAF
 64: 0x0AA2 [0xBA] SET_ENTITY_POSITION(entity_id=Unnamed NPC (ID: 17257132/0x010752AC), pos_x=-397.800*, pos_z=354.350*, pos_y=-20.099*, direction=306.8°*)

SUBROUTINE_0AAF:
 65: 0x0AAF [0x80] LOAD_WAIT(entity=LocalPlayer)
 66: 0x0AB4 [0x80] LOAD_WAIT(entity=Lion (ID: 17257130/0x010752AA))
 67: 0x0AB9 [0x80] LOAD_WAIT(entity=Iroha (ID: 17257129/0x010752A9))
 68: 0x0ABE [0x80] LOAD_WAIT(entity=Zeid (ID: 17257131/0x010752AB))
 69: 0x0AC3 [0x80] LOAD_WAIT(entity=Unnamed NPC (ID: 17257132/0x010752AC))
 70: 0x0AC8 [0x5C] MUSIC_CONTROL: Set Idle (Day) music to song 0*
 71: 0x0ACC [0x5C] MUSIC_CONTROL: Set Idle (Night) music to song 0*
 72: 0x0AD0 [0x9A] WAIT_MUSIC_SERVER()
 73: 0x0AD1 [0x4A] Iroha (ID: 17257129/0x010752A9) looks at Lion (ID: 17257130/0x010752AA)
 74: 0x0ADA [0x4A] Zeid (ID: 17257131/0x010752AB) looks at Lion (ID: 17257130/0x010752AA)
 75: 0x0AE3 [0x4A] Lion (ID: 17257130/0x010752AA) looks at Iroha (ID: 17257129/0x010752A9)
 76: 0x0AEC [0x4A] Unnamed NPC (ID: 17257132/0x010752AC) looks at Iroha (ID: 17257129/0x010752A9)
 77: 0x0AF5 [0x1C] WAIT(30* ticks)
 78: 0x0AF8 [0x02] IF !(ExtData[1]->WorkLocal[1] == 1*) GOTO 0x0B18
 79: 0x0B00 [0x27] REQ_SET(priority=0x05, entity_id=Lion (ID: 17257130/0x010752AA), tag_num=0x05)
 80: 0x0B07 [0xD0] LOAD_SCHEDULED_TASK_ALT5: Load scheduler "li01" with entities [Lion (ID: 17257130/0x010752AA), Lion (ID: 17257130/0x010752AA)], work=[107*, 0*]
 81: 0x0B18 [0x5C] MUSIC_CONTROL: Set Idle (Day) music to song 79*
 82: 0x0B1C [0x5C] MUSIC_CONTROL: Set Idle (Night) music to song 79*
 83: 0x0B20 [0x9A] WAIT_MUSIC_SERVER()
 84: 0x0B21 [0x27] REQ_SET(priority=0x05, entity_id=LocalPlayer, tag_num=0x1B)
 85: 0x0B28 [0x45] LOAD_SCHEDULED_TASK: Load scheduler "s000" with entities [EventEntity, EventEntity], work=[762*, 0*]
 86: 0x0B39 [0x1C] WAIT(15* ticks)
 87: 0x0B3C [0x45] LOAD_SCHEDULED_TASK: Load scheduler "fdi1" with entities [EventEntity, EventEntity], work=[200*, 0*]
 88: 0x0B4D [0x1C] WAIT(120* ticks)
 89: 0x0B50 [0x52] END_LOAD_SCHEDULER: End scheduler "s000" with entities [EventEntity, EventEntity], work=762*
 90: 0x0B5F [0x45] LOAD_SCHEDULED_TASK: Load scheduler "s001" with entities [EventEntity, EventEntity], work=[762*, 0*]
 91: 0x0B70 [0x79] Iroha (ID: 17257129/0x010752A9) looks at LocalPlayer (Basic look)
 92: 0x0B7A [0x1C] WAIT(30* ticks)
 93: 0x0B7D [0x5B] LOAD_EXT_SCHEDULER: Load scheduler "tlk0" with entities [Iroha (ID: 17257129/0x010752A9), Iroha (ID: 17257129/0x010752A9)], work=3861*
 94: 0x0B8C [0x02] IF !(ExtData[1]->WorkLocal[1] == 1*) GOTO 0x0B9F
 95: 0x0B94 [0x2B] Iroha (ID: 17257129/0x010752A9) [12027*]:
    → "Master! Look--Lady Lion!"
 96: 0x0B9B [0x23] WAIT_FOR_DIALOG_INTERACTION
 97: 0x0B9C [0x01] GOTO 0x0BA7
 98: 0x0B9F [0x2B] Iroha (ID: 17257129/0x010752A9) [12028*]:
    → "Master!"
 99: 0x0BA6 [0x23] WAIT_FOR_DIALOG_INTERACTION

SUBROUTINE_0BA7:
100: 0x0BA7 [0x5B] LOAD_EXT_SCHEDULER: Load scheduler "tlk1" with entities [Iroha (ID: 17257129/0x010752A9), Iroha (ID: 17257129/0x010752A9)], work=3861*
101: 0x0BB6 [0x52] END_LOAD_SCHEDULER: End scheduler "s001" with entities [EventEntity, EventEntity], work=762*
102: 0x0BC5 [0x02] IF !(LocalPlayer->Race == 5*) GOTO 0x0BE1
103: 0x0BCD [0x45] LOAD_SCHEDULED_TASK: Load scheduler "s003" with entities [EventEntity, EventEntity], work=[762*, 0*]
104: 0x0BDE [0x01] GOTO 0x0C0E
105: 0x0BE1 [0x02] IF !(LocalPlayer->Race == 6*) GOTO 0x0BFD
106: 0x0BE9 [0x45] LOAD_SCHEDULED_TASK: Load scheduler "s003" with entities [EventEntity, EventEntity], work=[762*, 0*]
107: 0x0BFA [0x01] GOTO 0x0C0E
108: 0x0BFD [0x45] LOAD_SCHEDULED_TASK: Load scheduler "s002" with entities [EventEntity, EventEntity], work=[762*, 0*]

SUBROUTINE_0C0E:
109: 0x0C0E [0xD0] LOAD_SCHEDULED_TASK_ALT5: Load scheduler "sta1" with entities [Unnamed NPC (ID: 17257132/0x010752AC), Unnamed NPC (ID: 17257132/0x010752AC)], work=[103*, 0*]
110: 0x0C1F [0x1C] WAIT(60* ticks)
111: 0x0C22 [0x4A] Lion (ID: 17257130/0x010752AA) looks at LocalPlayer
112: 0x0C2B [0x7B] Lion (ID: 17257130/0x010752AA) stops talking
113: 0x0C30 [0x7B] Zeid (ID: 17257131/0x010752AB) stops talking
114: 0x0C35 [0x1C] WAIT(60* ticks)
115: 0x0C38 [0x81] SET_ENTITY_BLINKING(blink_flag=0x00, entity=Lion (ID: 17257130/0x010752AA))
116: 0x0C3E [0x5B] LOAD_EXT_SCHEDULER: Load scheduler "hiz0" with entities [Lion (ID: 17257130/0x010752AA), Lion (ID: 17257130/0x010752AA)], work=99*
117: 0x0C4D [0x52] END_LOAD_SCHEDULER: End scheduler "s002" with entities [EventEntity, EventEntity], work=762*
118: 0x0C5C [0x52] END_LOAD_SCHEDULER: End scheduler "s003" with entities [EventEntity, EventEntity], work=762*
119: 0x0C6B [0x45] LOAD_SCHEDULED_TASK: Load scheduler "s004" with entities [EventEntity, EventEntity], work=[762*, 0*]
120: 0x0C7C [0x79] Iroha (ID: 17257129/0x010752A9) looks at Lion (ID: 17257130/0x010752AA) (Basic look)
121: 0x0C86 [0x1C] WAIT(120* ticks)
122: 0x0C89 [0x5B] LOAD_EXT_SCHEDULER: Load scheduler "bik0" with entities [Iroha (ID: 17257129/0x010752A9), Iroha (ID: 17257129/0x010752A9)], work=3863*
123: 0x0C98 [0x5B] LOAD_EXT_SCHEDULER: Load scheduler "hiz0" with entities [Zeid (ID: 17257131/0x010752AB), Zeid (ID: 17257131/0x010752AB)], work=243*
124: 0x0CA7 [0x52] END_LOAD_SCHEDULER: End scheduler "s004" with entities [EventEntity, EventEntity], work=762*
125: 0x0CB6 [0x45] LOAD_SCHEDULED_TASK: Load scheduler "s005" with entities [EventEntity, EventEntity], work=[762*, 0*]
126: 0x0CC7 [0x2B] Zeid (ID: 17257131/0x010752AB) [12029*]:
    → "Lion? Lion!?"
127: 0x0CCE [0x1C] WAIT(200* ticks)
128: 0x0CD1 [0x45] LOAD_SCHEDULED_TASK: Load scheduler "fdo1" with entities [EventEntity, EventEntity], work=[200*, 0*]
129: 0x0CE2 [0x55] WAIT_LOAD_SCHEDULER: Wait for scheduler "fdo1" with entities [EventEntity, EventEntity], work=200*
130: 0x0CF1 [0x52] END_LOAD_SCHEDULER: End scheduler "s005" with entities [EventEntity, EventEntity], work=762*
131: 0x0D00 [0xD0] LOAD_SCHEDULED_TASK_ALT5: Load scheduler "kil2" with entities [Unnamed NPC (ID: 17257132/0x010752AC), Unnamed NPC (ID: 17257132/0x010752AC)], work=[103*, 0*]
132: 0x0D11 [0x6B] STOP_AND_IDLE: Zeid (ID: 17257131/0x010752AB) stops current action and resets to idle (animation="idl0")
133: 0x0D1A [0x6B] STOP_AND_IDLE: Iroha (ID: 17257129/0x010752A9) stops current action and resets to idle (animation="idl0")
134: 0x0D23 [0x27] REQ_SET(priority=0x05, entity_id=Unnamed NPC (ID: 17257132/0x010752AC), tag_num=0x02)
135: 0x0D2A [0xBA] SET_ENTITY_POSITION(entity_id=Unnamed NPC (ID: 17257132/0x010752AC), pos_x=-397.929*, pos_z=354.396*, pos_y=-19.099*, direction=306.8°*)
136: 0x0D37 [0x80] LOAD_WAIT(entity=Unnamed NPC (ID: 17257132/0x010752AC))
137: 0x0D3C [0x4A] LocalPlayer looks at Lion (ID: 17257130/0x010752AA)
138: 0x0D45 [0x4A] Unnamed NPC (ID: 17257132/0x010752AC) looks at Lion (ID: 17257130/0x010752AA)
139: 0x0D4E [0x79] Zeid (ID: 17257131/0x010752AB) looks at Lion (ID: 17257130/0x010752AA) (Basic look)
140: 0x0D58 [0x1C] WAIT(30* ticks)
141: 0x0D5B [0x5B] LOAD_EXT_SCHEDULER: Load scheduler "kakl" with entities [Lion (ID: 17257130/0x010752AA), Lion (ID: 17257130/0x010752AA)], work=99*
142: 0x0D6A [0xD0] LOAD_SCHEDULED_TASK_ALT5: Load scheduler "star" with entities [Unnamed NPC (ID: 17257132/0x010752AC), Unnamed NPC (ID: 17257132/0x010752AC)], work=[103*, 0*]
143: 0x0D7B [0x27] REQ_SET(priority=0x05, entity_id=LocalPlayer, tag_num=0x1C)
144: 0x0D82 [0x1C] WAIT(30* ticks)
145: 0x0D85 [0x45] LOAD_SCHEDULED_TASK: Load scheduler "s006" with entities [EventEntity, EventEntity], work=[762*, 0*]
146: 0x0D96 [0x1C] WAIT(15* ticks)
147: 0x0D99 [0x45] LOAD_SCHEDULED_TASK: Load scheduler "fdi1" with entities [EventEntity, EventEntity], work=[200*, 0*]
148: 0x0DAA [0x2B] Lion (ID: 17257130/0x010752AA) [12030*]:
    → "I...saw it again..."
149: 0x0DB1 [0x1C] WAIT(120* ticks)
150: 0x0DB4 [0x5F] MULTI_HANDLER_COMPLEX(mode=0x05 - Load ext scheduler with flag (OpCode 0x5B mode 0, flag 1), ref=99*, entity1=Lion (ID: 17257130/0x010752AA), entity2=Lion (ID: 17257130/0x010752AA), string="kak1", extra=160*)
151: 0x0DC6 [0x2B] Lion (ID: 17257130/0x010752AA) [12031*]:
    → "<Player>, that special orb you have is a relic from the future."
152: 0x0DCD [0x23] WAIT_FOR_DIALOG_INTERACTION
153: 0x0DCE [0x2B] Lion (ID: 17257130/0x010752AA) [12032*]:
    → "Maybe that explains the visions I've been having."
154: 0x0DD5 [0x23] WAIT_FOR_DIALOG_INTERACTION
155: 0x0DD6 [0x5F] MULTI_HANDLER_COMPLEX(mode=0x07 - Wait scheduler task (OpCode 0x53))
156: 0x0DE4 [0x52] END_LOAD_SCHEDULER: End scheduler "s006" with entities [EventEntity, EventEntity], work=762*
157: 0x0DF3 [0x45] LOAD_SCHEDULED_TASK: Load scheduler "s081" with entities [EventEntity, EventEntity], work=[762*, 0*]
158: 0x0E04 [0x27] REQ_SET(priority=0x05, entity_id=Lion (ID: 17257130/0x010752AA), tag_num=0x03)
159: 0x0E0B [0x7B] Lion (ID: 17257130/0x010752AA) stops talking
160: 0x0E10 [0x2B] Lion (ID: 17257130/0x010752AA) [12033*]:
    → "If what it portends is true, then there is nothing we can do to stop the darkness from approaching."
161: 0x0E17 [0x1C] WAIT(30* ticks)
162: 0x0E1A [0x4B] UPDATE_ENTITY_YAW(entity=LocalPlayer, yaw=8.8°*)
163: 0x0E21 [0x4B] UPDATE_ENTITY_YAW(entity=Unnamed NPC (ID: 17257132/0x010752AC), yaw=8.8°*)
164: 0x0E28 [0x1C] WAIT(30* ticks)
165: 0x0E2B [0x52] END_LOAD_SCHEDULER: End scheduler "s081" with entities [EventEntity, EventEntity], work=762*
166: 0x0E3A [0x45] LOAD_SCHEDULED_TASK: Load scheduler "s007" with entities [EventEntity, EventEntity], work=[762*, 0*]
167: 0x0E4B [0x23] WAIT_FOR_DIALOG_INTERACTION
168: 0x0E4C [0x2B] Lion (ID: 17257130/0x010752AA) [12034*]:
    → "But <Player>, I saw nothing about whether or not you were there to try to stop it."
169: 0x0E53 [0x23] WAIT_FOR_DIALOG_INTERACTION
170: 0x0E54 [0x2A] GET_REQ_LEVEL(level=5, entity_id=Lion (ID: 17257130/0x010752AA))
171: 0x0E5A [0x52] END_LOAD_SCHEDULER: End scheduler "s007" with entities [EventEntity, EventEntity], work=762*
172: 0x0E69 [0x45] LOAD_SCHEDULED_TASK: Load scheduler "s008" with entities [EventEntity, EventEntity], work=[762*, 0*]
173: 0x0E7A [0x2B] Lion (ID: 17257130/0x010752AA) [12035*]:
    → "What if there is no one to stand up for Vana'diel? Will it perish with but a whimper?"
174: 0x0E81 [0x23] WAIT_FOR_DIALOG_INTERACTION
175: 0x0E82 [0x52] END_LOAD_SCHEDULER: End scheduler "s008" with entities [EventEntity, EventEntity], work=762*
176: 0x0E91 [0x45] LOAD_SCHEDULED_TASK: Load scheduler "s009" with entities [EventEntity, EventEntity], work=[762*, 0*]
177: 0x0EA2 [0x5B] LOAD_EXT_SCHEDULER: Load scheduler "tlc0" with entities [Iroha (ID: 17257129/0x010752A9), Iroha (ID: 17257129/0x010752A9)], work=3863*
178: 0x0EB1 [0x2B] Iroha (ID: 17257129/0x010752A9) [12036*]:
    → "Lion, perhaps it is because the orb is not yet fully illuminated."
179: 0x0EB8 [0x23] WAIT_FOR_DIALOG_INTERACTION
180: 0x0EB9 [0x5B] LOAD_EXT_SCHEDULER: Load scheduler "tlc1" with entities [Iroha (ID: 17257129/0x010752A9), Iroha (ID: 17257129/0x010752A9)], work=3863*
181: 0x0EC8 [0x4A] Lion (ID: 17257130/0x010752AA) looks at Iroha (ID: 17257129/0x010752A9)
182: 0x0ED1 [0x1C] WAIT(30* ticks)
183: 0x0ED4 [0x5B] LOAD_EXT_SCHEDULER: Load scheduler "yes0" with entities [Lion (ID: 17257130/0x010752AA), Lion (ID: 17257130/0x010752AA)], work=99*
184: 0x0EE3 [0x1C] WAIT(140* ticks)
185: 0x0EE6 [0x5B] LOAD_EXT_SCHEDULER: Load scheduler "tl40" with entities [Lion (ID: 17257130/0x010752AA), Lion (ID: 17257130/0x010752AA)], work=538*
186: 0x0EF5 [0x2B] Lion (ID: 17257130/0x010752AA) [12037*]:
    → "I agree. Yet we learned about the coming darkness before the light could fully arrive...likely ushering it in before we were ready."
187: 0x0EFC [0x23] WAIT_FOR_DIALOG_INTERACTION
188: 0x0EFD [0x5B] LOAD_EXT_SCHEDULER: Load scheduler "tl41" with entities [Lion (ID: 17257130/0x010752AA), Lion (ID: 17257130/0x010752AA)], work=538*
189: 0x0F0C [0x52] END_LOAD_SCHEDULER: End scheduler "s009" with entities [EventEntity, EventEntity], work=762*
190: 0x0F1B [0x45] LOAD_SCHEDULED_TASK: Load scheduler "s010" with entities [EventEntity, EventEntity], work=[762*, 0*]
191: 0x0F2C [0x5B] LOAD_EXT_SCHEDULER: Load scheduler "tkb0" with entities [Zeid (ID: 17257131/0x010752AB), Zeid (ID: 17257131/0x010752AB)], work=244*
192: 0x0F3B [0x2B] Zeid (ID: 17257131/0x010752AB) [12038*]:
    → "I know not what the two of you are on about, so I will ask one simple question: what can we do?"
193: 0x0F42 [0x23] WAIT_FOR_DIALOG_INTERACTION
194: 0x0F43 [0x5B] LOAD_EXT_SCHEDULER: Load scheduler "tkb1" with entities [Zeid (ID: 17257131/0x010752AB), Zeid (ID: 17257131/0x010752AB)], work=244*
195: 0x0F52 [0x52] END_LOAD_SCHEDULER: End scheduler "s010" with entities [EventEntity, EventEntity], work=762*
196: 0x0F61 [0x45] LOAD_SCHEDULED_TASK: Load scheduler "s011" with entities [EventEntity, EventEntity], work=[762*, 0*]
197: 0x0F72 [0xD0] LOAD_SCHEDULED_TASK_ALT5: Load scheduler "kill" with entities [Unnamed NPC (ID: 17257132/0x010752AC), Unnamed NPC (ID: 17257132/0x010752AC)], work=[103*, 0*]
198: 0x0F83 [0x4A] Lion (ID: 17257130/0x010752AA) looks at LocalPlayer
199: 0x0F8C [0x1C] WAIT(30* ticks)
200: 0x0F8F [0x02] IF !(63* == ExtData[1]->WorkLocal[4]) GOTO 0x10A5
201: 0x0F97 [0x5B] LOAD_EXT_SCHEDULER: Load scheduler "tl40" with entities [Lion (ID: 17257130/0x010752AA), Lion (ID: 17257130/0x010752AA)], work=538*
202: 0x0FA6 [0x2B] Lion (ID: 17257130/0x010752AA) [12054*]:
    → "<Player>, your journeys have taken you to the far corners of our realm."
203: 0x0FAD [0x23] WAIT_FOR_DIALOG_INTERACTION
204: 0x0FAE [0x2B] Lion (ID: 17257130/0x010752AA) [12055*]:
    → "The reckoning is at hand, quicker than any of us could have prepared for."
205: 0x0FB5 [0x23] WAIT_FOR_DIALOG_INTERACTION
206: 0x0FB6 [0x5B] LOAD_EXT_SCHEDULER: Load scheduler "tl41" with entities [Lion (ID: 17257130/0x010752AA), Lion (ID: 17257130/0x010752AA)], work=538*
207: 0x0FC5 [0x52] END_LOAD_SCHEDULER: End scheduler "s011" with entities [EventEntity, EventEntity], work=762*
208: 0x0FD4 [0x45] LOAD_SCHEDULED_TASK: Load scheduler "s014" with entities [EventEntity, EventEntity], work=[762*, 0*]
209: 0x0FE5 [0x5B] LOAD_EXT_SCHEDULER: Load scheduler "yes0" with entities [Iroha (ID: 17257129/0x010752A9), Iroha (ID: 17257129/0x010752A9)], work=3862*
210: 0x0FF4 [0x2B] Iroha (ID: 17257129/0x010752A9) [12056*]:
    → "Then it all falls into place."
211: 0x0FFB [0x23] WAIT_FOR_DIALOG_INTERACTION
212: 0x0FFC [0x1C] WAIT(60* ticks)
213: 0x0FFF [0xD0] LOAD_SCHEDULED_TASK_ALT5: Load scheduler "star" with entities [Unnamed NPC (ID: 17257132/0x010752AC), Unnamed NPC (ID: 17257132/0x010752AC)], work=[103*, 0*]
214: 0x1010 [0x4A] Lion (ID: 17257130/0x010752AA) looks at Iroha (ID: 17257129/0x010752A9)
215: 0x1019 [0x1C] WAIT(70* ticks)
216: 0x101C [0x23] WAIT_FOR_DIALOG_INTERACTION
217: 0x101D [0x52] END_LOAD_SCHEDULER: End scheduler "s014" with entities [EventEntity, EventEntity], work=762*
218: 0x102C [0x45] LOAD_SCHEDULED_TASK: Load scheduler "s015" with entities [EventEntity, EventEntity], work=[762*, 0*]
219: 0x103D [0x5B] LOAD_EXT_SCHEDULER: Load scheduler "tlk0" with entities [Iroha (ID: 17257129/0x010752A9), Iroha (ID: 17257129/0x010752A9)], work=3861*
220: 0x104C [0x2B] Iroha (ID: 17257129/0x010752A9) [12057*]:
    → "In the future from which I hail, the master faced many threats and came to be known as one of Vana'diel's most storied heroes."
221: 0x1053 [0x23] WAIT_FOR_DIALOG_INTERACTION
222: 0x1054 [0x2B] Iroha (ID: 17257129/0x010752A9) [12058*]:
    → "And [his/her] legend has already been forged."
223: 0x105B [0x23] WAIT_FOR_DIALOG_INTERACTION
224: 0x105C [0x5B] LOAD_EXT_SCHEDULER: Load scheduler "tlk1" with entities [Iroha (ID: 17257129/0x010752A9), Iroha (ID: 17257129/0x010752A9)], work=3861*
225: 0x106B [0x52] END_LOAD_SCHEDULER: End scheduler "s015" with entities [EventEntity, EventEntity], work=762*
226: 0x107A [0x45] LOAD_SCHEDULED_TASK: Load scheduler "s016" with entities [EventEntity, EventEntity], work=[762*, 0*]
227: 0x108B [0x5B] LOAD_EXT_SCHEDULER: Load scheduler "ude0" with entities [Zeid (ID: 17257131/0x010752AB), Zeid (ID: 17257131/0x010752AB)], work=244*
228: 0x109A [0x2B] Zeid (ID: 17257131/0x010752AB) [12059*]:
    → "Then we may be out of time..."
229: 0x10A1 [0x23] WAIT_FOR_DIALOG_INTERACTION
230: 0x10A2 [0x01] GOTO 0x134B
231: 0x10A5 [0x02] IF !(ExtData[1]->WorkLocal[3] == 1*) GOTO 0x11C2
232: 0x10AD [0x5B] LOAD_EXT_SCHEDULER: Load scheduler "tl40" with entities [Lion (ID: 17257130/0x010752AA), Lion (ID: 17257130/0x010752AA)], work=538*
233: 0x10BC [0x2B] Lion (ID: 17257130/0x010752AA) [12047*]:
    → "<Player>, there are many paths that lie before you."
234: 0x10C3 [0x23] WAIT_FOR_DIALOG_INTERACTION
235: 0x10C4 [0x2B] Lion (ID: 17257130/0x010752AA) [12048*]:
    → "They opened up the moment you banished the Shadow Lord from our realm."
236: 0x10CB [0x23] WAIT_FOR_DIALOG_INTERACTION
237: 0x10CC [0x2B] Lion (ID: 17257130/0x010752AA) [12049*]:
    → "My dream showed me many nations, many worlds...and you were there in each one, bringing succor to those who cried out."
238: 0x10D3 [0x23] WAIT_FOR_DIALOG_INTERACTION
239: 0x10D4 [0x5B] LOAD_EXT_SCHEDULER: Load scheduler "tl41" with entities [Lion (ID: 17257130/0x010752AA), Lion (ID: 17257130/0x010752AA)], work=538*
240: 0x10E3 [0x52] END_LOAD_SCHEDULER: End scheduler "s011" with entities [EventEntity, EventEntity], work=762*
241: 0x10F2 [0x45] LOAD_SCHEDULED_TASK: Load scheduler "s014" with entities [EventEntity, EventEntity], work=[762*, 0*]
242: 0x1103 [0x5B] LOAD_EXT_SCHEDULER: Load scheduler "yes0" with entities [Iroha (ID: 17257129/0x010752A9), Iroha (ID: 17257129/0x010752A9)], work=3862*
243: 0x1112 [0x2B] Iroha (ID: 17257129/0x010752A9) [12050*]:
    → "Then it all falls into place."
244: 0x1119 [0x1C] WAIT(60* ticks)
245: 0x111C [0xD0] LOAD_SCHEDULED_TASK_ALT5: Load scheduler "star" with entities [Unnamed NPC (ID: 17257132/0x010752AC), Unnamed NPC (ID: 17257132/0x010752AC)], work=[103*, 0*]
246: 0x112D [0x4A] Lion (ID: 17257130/0x010752AA) looks at Iroha (ID: 17257129/0x010752A9)
247: 0x1136 [0x1C] WAIT(70* ticks)
248: 0x1139 [0x23] WAIT_FOR_DIALOG_INTERACTION
249: 0x113A [0x52] END_LOAD_SCHEDULER: End scheduler "s014" with entities [EventEntity, EventEntity], work=762*
250: 0x1149 [0x45] LOAD_SCHEDULED_TASK: Load scheduler "s015" with entities [EventEntity, EventEntity], work=[762*, 0*]
251: 0x115A [0x5B] LOAD_EXT_SCHEDULER: Load scheduler "tlk0" with entities [Iroha (ID: 17257129/0x010752A9), Iroha (ID: 17257129/0x010752A9)], work=3861*
252: 0x1169 [0x2B] Iroha (ID: 17257129/0x010752A9) [12051*]:
    → "In the future from which I hail, the master faced many threats--not just that one--and came to be known as one of Vana'diel's most storied heroes."
253: 0x1170 [0x23] WAIT_FOR_DIALOG_INTERACTION
254: 0x1171 [0x2B] Iroha (ID: 17257129/0x010752A9) [12052*]:
    → "Master, you must bring history back to its natural state."
255: 0x1178 [0x23] WAIT_FOR_DIALOG_INTERACTION
256: 0x1179 [0x5B] LOAD_EXT_SCHEDULER: Load scheduler "tlk1" with entities [Iroha (ID: 17257129/0x010752A9), Iroha (ID: 17257129/0x010752A9)], work=3861*
257: 0x1188 [0x52] END_LOAD_SCHEDULER: End scheduler "s015" with entities [EventEntity, EventEntity], work=762*
258: 0x1197 [0x45] LOAD_SCHEDULED_TASK: Load scheduler "s016" with entities [EventEntity, EventEntity], work=[762*, 0*]
259: 0x11A8 [0x5B] LOAD_EXT_SCHEDULER: Load scheduler "ude0" with entities [Zeid (ID: 17257131/0x010752AB), Zeid (ID: 17257131/0x010752AB)], work=244*
260: 0x11B7 [0x2B] Zeid (ID: 17257131/0x010752AB) [12053*]:
    → "...And time is not exactly on our side..."
261: 0x11BE [0x23] WAIT_FOR_DIALOG_INTERACTION
262: 0x11BF [0x01] GOTO 0x134B
263: 0x11C2 [0x5B] LOAD_EXT_SCHEDULER: Load scheduler "tl50" with entities [Lion (ID: 17257130/0x010752AA), Lion (ID: 17257130/0x010752AA)], work=538*
264: 0x11D1 [0x2B] Lion (ID: 17257130/0x010752AA) [12039*]:
    → "<Player>, another image that floated before my eyes was one of you vanquishing the Shadow Lord."
265: 0x11D8 [0x23] WAIT_FOR_DIALOG_INTERACTION
266: 0x11D9 [0x52] END_LOAD_SCHEDULER: End scheduler "s011" with entities [EventEntity, EventEntity], work=762*
267: 0x11E8 [0x45] LOAD_SCHEDULED_TASK: Load scheduler "s012" with entities [EventEntity, EventEntity], work=[762*, 0*]
268: 0x11F9 [0x5B] LOAD_EXT_SCHEDULER: Load scheduler "tkb0" with entities [Zeid (ID: 17257131/0x010752AB), Zeid (ID: 17257131/0x010752AB)], work=244*
269: 0x1208 [0x2B] Zeid (ID: 17257131/0x010752AB) [12040*]:
    → "The Shadow Lord!?"
270: 0x120F [0x1C] WAIT(60* ticks)
271: 0x1212 [0xD0] LOAD_SCHEDULED_TASK_ALT5: Load scheduler "star" with entities [Unnamed NPC (ID: 17257132/0x010752AC), Unnamed NPC (ID: 17257132/0x010752AC)], work=[103*, 0*]
272: 0x1223 [0x1C] WAIT(60* ticks)
273: 0x1226 [0x52] END_LOAD_SCHEDULER: End scheduler "s012" with entities [EventEntity, EventEntity], work=762*
274: 0x1235 [0x45] LOAD_SCHEDULED_TASK: Load scheduler "s013" with entities [EventEntity, EventEntity], work=[762*, 0*]
275: 0x1246 [0x5B] LOAD_EXT_SCHEDULER: Load scheduler "tkb1" with entities [Zeid (ID: 17257131/0x010752AB), Zeid (ID: 17257131/0x010752AB)], work=244*
276: 0x1255 [0x5B] LOAD_EXT_SCHEDULER: Load scheduler "yes0" with entities [Lion (ID: 17257130/0x010752AA), Lion (ID: 17257130/0x010752AA)], work=99*
277: 0x1264 [0x2B] Lion (ID: 17257130/0x010752AA) [12041*]:
    → "And the crystal spoke to you when you did."
278: 0x126B [0x1C] WAIT(140* ticks)
279: 0x126E [0x23] WAIT_FOR_DIALOG_INTERACTION
280: 0x126F [0x52] END_LOAD_SCHEDULER: End scheduler "s013" with entities [EventEntity, EventEntity], work=762*
281: 0x127E [0x45] LOAD_SCHEDULED_TASK: Load scheduler "s014" with entities [EventEntity, EventEntity], work=[762*, 0*]
282: 0x128F [0x5B] LOAD_EXT_SCHEDULER: Load scheduler "yes0" with entities [Iroha (ID: 17257129/0x010752A9), Iroha (ID: 17257129/0x010752A9)], work=3862*
283: 0x129E [0x2B] Iroha (ID: 17257129/0x010752A9) [12042*]:
    → "Then it all falls into place."
284: 0x12A5 [0x1C] WAIT(60* ticks)
285: 0x12A8 [0x4A] Lion (ID: 17257130/0x010752AA) looks at Iroha (ID: 17257129/0x010752A9)
286: 0x12B1 [0x1C] WAIT(70* ticks)
287: 0x12B4 [0x23] WAIT_FOR_DIALOG_INTERACTION
288: 0x12B5 [0x52] END_LOAD_SCHEDULER: End scheduler "s014" with entities [EventEntity, EventEntity], work=762*
289: 0x12C4 [0x45] LOAD_SCHEDULED_TASK: Load scheduler "s015" with entities [EventEntity, EventEntity], work=[762*, 0*]
290: 0x12D5 [0x5B] LOAD_EXT_SCHEDULER: Load scheduler "tlk0" with entities [Iroha (ID: 17257129/0x010752A9), Iroha (ID: 17257129/0x010752A9)], work=3861*
291: 0x12E4 [0x2B] Iroha (ID: 17257129/0x010752A9) [12043*]:
    → "You must stand steadfast against the lord of the beastmen in order to set history upon its proper course."
292: 0x12EB [0x23] WAIT_FOR_DIALOG_INTERACTION
293: 0x12EC [0x2B] Iroha (ID: 17257129/0x010752A9) [12044*]:
    → "In the future from which I hail, the master faced many threats--not just this one--and came to be known as one of Vana'diel's most storied heroes."
294: 0x12F3 [0x23] WAIT_FOR_DIALOG_INTERACTION
295: 0x12F4 [0x2B] Iroha (ID: 17257129/0x010752A9) [12045*]:
    → "Master, you must take your first steps along that path."
296: 0x12FB [0x23] WAIT_FOR_DIALOG_INTERACTION
297: 0x12FC [0x5B] LOAD_EXT_SCHEDULER: Load scheduler "tlk1" with entities [Iroha (ID: 17257129/0x010752A9), Iroha (ID: 17257129/0x010752A9)], work=3861*
298: 0x130B [0x52] END_LOAD_SCHEDULER: End scheduler "s015" with entities [EventEntity, EventEntity], work=762*
299: 0x131A [0x45] LOAD_SCHEDULED_TASK: Load scheduler "s016" with entities [EventEntity, EventEntity], work=[762*, 0*]
300: 0x132B [0x5B] LOAD_EXT_SCHEDULER: Load scheduler "ude0" with entities [Zeid (ID: 17257131/0x010752AB), Zeid (ID: 17257131/0x010752AB)], work=244*
301: 0x133A [0x2B] Zeid (ID: 17257131/0x010752AB) [12046*]:
    → "...Stop the Shadow Lord."
302: 0x1341 [0x23] WAIT_FOR_DIALOG_INTERACTION
303: 0x1342 [0x03] Work_Zone[1] = 2*
304: 0x1347 [0x43] SEND_EVENT_UPDATE: Send pending tag to server (packet 0x005B)
305: 0x1349 [0x43] SEND_EVENT_UPDATE: Check pending flag (skip if not pending)

SUBROUTINE_134B:
306: 0x134B [0xD0] LOAD_SCHEDULED_TASK_ALT5: Load scheduler "kill" with entities [Unnamed NPC (ID: 17257132/0x010752AC), Unnamed NPC (ID: 17257132/0x010752AC)], work=[103*, 0*]
307: 0x135C [0x4A] Lion (ID: 17257130/0x010752AA) looks at LocalPlayer
308: 0x1365 [0x4A] LocalPlayer looks at Lion (ID: 17257130/0x010752AA)
309: 0x136E [0x4A] Unnamed NPC (ID: 17257132/0x010752AC) looks at Lion (ID: 17257130/0x010752AA)
310: 0x1377 [0x7B] LocalPlayer stops talking
311: 0x137C [0x7B] Unnamed NPC (ID: 17257132/0x010752AC) stops talking
312: 0x1381 [0x1C] WAIT(30* ticks)
313: 0x1384 [0x52] END_LOAD_SCHEDULER: End scheduler "s016" with entities [EventEntity, EventEntity], work=762*
314: 0x1393 [0x45] LOAD_SCHEDULED_TASK: Load scheduler "s017" with entities [EventEntity, EventEntity], work=[762*, 0*]
315: 0x13A4 [0x5B] LOAD_EXT_SCHEDULER: Load scheduler "tl50" with entities [Lion (ID: 17257130/0x010752AA), Lion (ID: 17257130/0x010752AA)], work=538*
316: 0x13B3 [0x2B] Lion (ID: 17257130/0x010752AA) [12060*]:
    → "And now you know everything that I do."
317: 0x13BA [0x23] WAIT_FOR_DIALOG_INTERACTION
318: 0x13BB [0x02] IF !(ExtData[1]->WorkLocal[3] == 1*) GOTO 0x13CE
319: 0x13C3 [0x2B] Lion (ID: 17257130/0x010752AA) [12061*]:
    → "I'll be with you every step of your journey to conquer the Shadow Lord."
320: 0x13CA [0x23] WAIT_FOR_DIALOG_INTERACTION
321: 0x13CB [0x01] GOTO 0x13D6
322: 0x13CE [0x2B] Lion (ID: 17257130/0x010752AA) [12062*]:
    → "I'll do everything in my power to help you."
323: 0x13D5 [0x23] WAIT_FOR_DIALOG_INTERACTION

SUBROUTINE_13D6:
324: 0x13D6 [0x52] END_LOAD_SCHEDULER: End scheduler "s017" with entities [EventEntity, EventEntity], work=762*
325: 0x13E5 [0x02] IF !(LocalPlayer->Race == 5*) GOTO 0x1401
326: 0x13ED [0x45] LOAD_SCHEDULED_TASK: Load scheduler "s085" with entities [EventEntity, EventEntity], work=[762*, 0*]
327: 0x13FE [0x01] GOTO 0x142E
328: 0x1401 [0x02] IF !(LocalPlayer->Race == 6*) GOTO 0x141D
329: 0x1409 [0x45] LOAD_SCHEDULED_TASK: Load scheduler "s085" with entities [EventEntity, EventEntity], work=[762*, 0*]
330: 0x141A [0x01] GOTO 0x142E
331: 0x141D [0x45] LOAD_SCHEDULED_TASK: Load scheduler "s084" with entities [EventEntity, EventEntity], work=[762*, 0*]

SUBROUTINE_142E:
332: 0x142E [0xD0] LOAD_SCHEDULED_TASK_ALT5: Load scheduler "max0" with entities [Unnamed NPC (ID: 17257132/0x010752AC), Unnamed NPC (ID: 17257132/0x010752AC)], work=[150*, 0*]
333: 0x143F [0x1C] WAIT(80* ticks)
334: 0x1442 [0x81] SET_ENTITY_BLINKING(blink_flag=0x00, entity=Lion (ID: 17257130/0x010752AA))
335: 0x1448 [0x7C] Lion (ID: 17257130/0x010752AA)->Render.Flags2 |= 0x00
336: 0x144E [0x5B] LOAD_EXT_SCHEDULER: Load scheduler "han0" with entities [Lion (ID: 17257130/0x010752AA), Lion (ID: 17257130/0x010752AA)], work=99*
337: 0x145D [0x52] END_LOAD_SCHEDULER: End scheduler "s084" with entities [EventEntity, EventEntity], work=762*
338: 0x146C [0x52] END_LOAD_SCHEDULER: End scheduler "s085" with entities [EventEntity, EventEntity], work=762*
