# 17257032 - DIRECTOR

## Common Data

| Field            | Value                     |
|------------------|---------------------------|
| Zone             | Tahrongi Canyon (ID: 117) |
| Block Size       | 212 bytes                 |
| Total Events     | 6                         |
| References Count | 9                         |

## List of Events

| Event ID                 | Entrypoint   |   Size |   Instructions |
|--------------------------|--------------|--------|----------------|
| [65535](#event-65535)    | 0x0000       |      1 |              1 |
| [2](#event-2)            | 0x0001       |      1 |              1 |
| [1](#event-1)            | 0x0002       |     59 |             13 |
| [65535.1](#event-655351) | 0x003D       |     30 |              8 |
| [65535.2](#event-655352) | 0x005B       |     35 |              9 |
| [65535.3](#event-655353) | 0x007E       |      9 |              4 |

## DAT References (imed_data)

|   Index | Hex Value   |   Dec Value |
|---------|-------------|-------------|
|       0 | 0x1D11      |        7441 |
|       1 | 0x0000      |           0 |
|       2 | 0x0001      |           1 |
|       3 | 0x0002      |           2 |
|       4 | 0x0003      |           3 |
|       5 | 0x1D13      |        7443 |
|       6 | 0x1D12      |        7442 |
|       7 | 0x000B      |          11 |
|       8 | 0x0064      |         100 |

## String References

- **7441**: $3605028iB\`hH [i [sj/$3C$3x$3$3g/$17*&/$3$1[$3v/<Player>j$P13x$6750761$o=/$3N$3G$3X$3gFLAGL]reset]
- **7442**: $4391756$3x$3$3gH [uqsmn001:$tF$C%$5$6948976$P13xE\`$o=1FI7i/$3N$3G$3X$3gFLAGL]reset]
- **7443**: $5636657$3$1[$3vHL6a[H [%T]

## Events

### Event 65535

#### Metadata

| Field        | Value   |
|--------------|---------|
| Entrypoint   | 0x0000  |
| Data Size    | 1 bytes |
| Instructions | 1       |

```
      00 01 02 03 04 05 06 07  08 09 0A 0B 0C 0D 0E 0F
      -- -- -- -- -- -- -- --  -- -- -- -- -- -- -- --
0000: 00                                                .               
```

#### Opcodes

```
  0: 0x0000 [0x00] END_REQSTACK()
```

### Event 2

#### Metadata

| Field        | Value   |
|--------------|---------|
| Entrypoint   | 0x0001  |
| Data Size    | 1 bytes |
| Instructions | 1       |

```
      00 01 02 03 04 05 06 07  08 09 0A 0B 0C 0D 0E 0F
      -- -- -- -- -- -- -- --  -- -- -- -- -- -- -- --
0000:    00                                              .              
```

#### Opcodes

```
  0: 0x0001 [0x00] END_REQSTACK()
```

### Event 1

#### Metadata

| Field        | Value    |
|--------------|----------|
| Entrypoint   | 0x0002   |
| Data Size    | 59 bytes |
| Instructions | 13       |

```
      00 01 02 03 04 05 06 07  08 09 0A 0B 0C 0D 0E 0F
      -- -- -- -- -- -- -- --  -- -- -- -- -- -- -- --
0000:       24 00 80 01 80 01  80 25 02 00 10 02 80 00    $......%......
0010: 1C 00 29 0D 48 52 07 01  04 01 39 00 02 00 10 03  ..).HR....9.....
0020: 80 00 27 00 01 39 00 02  00 10 04 80 00 39 00 29  ..'..9.......9.)
0030: 0D 48 52 07 01 03 01 39  00 20 00 21 00           .HR....9. .!.   
```

#### Opcodes

```
  0: 0x0002 [0x24] CREATE_DIALOG(message_id=7441*, default_option=0*, option_flags=0*)
    → "$3605028iB`hH [i [sj/$3C$3x$3$3g/$17*&/$3$1[$3v/<Player>j$P13x$6750761$o=/$3N$3G$3X$3gFLAGL]reset]"
  1: 0x0009 [0x25] WAIT_DIALOG_SELECT()
  2: 0x000A [0x02] IF !(Work_Zone[0] == 1*) GOTO 0x001C
  3: 0x0012 [0x29] REQ_SET_WAIT(priority=0x0D, entity_id=DIRECTOR (ID: 17257032/0x01075248), tag_num=0x04)
  4: 0x0019 [0x01] GOTO 0x0039
  5: 0x001C [0x02] IF !(Work_Zone[0] == 2*) GOTO 0x0027
  6: 0x0024 [0x01] GOTO 0x0039
  7: 0x0027 [0x02] IF !(Work_Zone[0] == 3*) GOTO 0x0039
  8: 0x002F [0x29] REQ_SET_WAIT(priority=0x0D, entity_id=DIRECTOR (ID: 17257032/0x01075248), tag_num=0x03)
  9: 0x0036 [0x01] GOTO 0x0039

SUBROUTINE_0039:
 10: 0x0039 [0x20] SET_CLI_EVENT_UC_FLAG: Unlock player control
 11: 0x003B [0x21] END_EVENT
 12: 0x003C [0x00] END_REQSTACK()
```

### Event 65535.1

#### Metadata

| Field        | Value    |
|--------------|----------|
| Entrypoint   | 0x003D   |
| Data Size    | 30 bytes |
| Instructions | 8        |

```
      00 01 02 03 04 05 06 07  08 09 0A 0B 0C 0D 0E 0F
      -- -- -- -- -- -- -- --  -- -- -- -- -- -- -- --
0030:                                         24 05 80               $..
0040: 01 80 01 80 25 02 00 10  01 80 00 57 00 29 09 F0  ....%......W.)..
0050: FF FF 7F 05 01 57 00 20  00 21 00                 .....W. .!.     
```

#### Opcodes

```
  0: 0x003D [0x24] CREATE_DIALOG(message_id=7443*, default_option=0*, option_flags=0*)
    → "$5636657$3$1[$3vHL6a[H [%T]"
  1: 0x0044 [0x25] WAIT_DIALOG_SELECT()
  2: 0x0045 [0x02] IF !(Work_Zone[0] == 0*) GOTO 0x0057
  3: 0x004D [0x29] REQ_SET_WAIT(priority=0x09, entity_id=LocalPlayer, tag_num=0x05)
  4: 0x0054 [0x01] GOTO 0x0057

SUBROUTINE_0057:
  5: 0x0057 [0x20] SET_CLI_EVENT_UC_FLAG: Unlock player control
  6: 0x0059 [0x21] END_EVENT
  7: 0x005A [0x00] END_REQSTACK()
```

### Event 65535.2

#### Metadata

| Field        | Value    |
|--------------|----------|
| Entrypoint   | 0x005B   |
| Data Size    | 35 bytes |
| Instructions | 9        |

```
      00 01 02 03 04 05 06 07  08 09 0A 0B 0C 0D 0E 0F
      -- -- -- -- -- -- -- --  -- -- -- -- -- -- -- --
0050:                                   24 06 80 01 80             $....
0060: 01 80 25 02 00 10 01 80  00 7A 00 29 09 F0 FF FF  ..%......z.)....
0070: 7F 05 03 01 10 07 80 01  7A 00 20 00 21 00        ........z. .!.  
```

#### Opcodes

```
  0: 0x005B [0x24] CREATE_DIALOG(message_id=7442*, default_option=0*, option_flags=0*)
    → "$4391756$3x$3$3gH [uqsmn001:$tF$C%$5$6948976$P13xE`$o=1FI7i/$3N$3G$3X$3gFLAGL]reset]"
  1: 0x0062 [0x25] WAIT_DIALOG_SELECT()
  2: 0x0063 [0x02] IF !(Work_Zone[0] == 0*) GOTO 0x007A
  3: 0x006B [0x29] REQ_SET_WAIT(priority=0x09, entity_id=LocalPlayer, tag_num=0x05)
  4: 0x0072 [0x03] Work_Zone[1] = 11*
  5: 0x0077 [0x01] GOTO 0x007A

SUBROUTINE_007A:
  6: 0x007A [0x20] SET_CLI_EVENT_UC_FLAG: Unlock player control
  7: 0x007C [0x21] END_EVENT
  8: 0x007D [0x00] END_REQSTACK()
```

### Event 65535.3

#### Metadata

| Field        | Value   |
|--------------|---------|
| Entrypoint   | 0x007E  |
| Data Size    | 9 bytes |
| Instructions | 4       |

```
      00 01 02 03 04 05 06 07  08 09 0A 0B 0C 0D 0E 0F
      -- -- -- -- -- -- -- --  -- -- -- -- -- -- -- --
0070:                                            03 01                ..
0080: 10 08 80 20 00 21 00                              ... .!.         
```

#### Opcodes

```
  0: 0x007E [0x03] Work_Zone[1] = 100*
  1: 0x0083 [0x20] SET_CLI_EVENT_UC_FLAG: Unlock player control
  2: 0x0085 [0x21] END_EVENT
  3: 0x0086 [0x00] END_REQSTACK()
```
