# 0x7FFFFFF0 - Zone Events

## Common Data

| Field            | Value                     |
|------------------|---------------------------|
| Zone             | Tahrongi Canyon (ID: 117) |
| Block Size       | 4892 bytes                |
| Total Events     | 44                        |
| References Count | 118                       |

## List of Events

| Event ID                   | Entrypoint   |   Size |   Instructions |
|----------------------------|--------------|--------|----------------|
| [65535](#event-65535)      | 0x0000       |      1 |              1 |
| [65534](#event-65534)      | 0x0001       |      1 |              1 |
| [65535.1](#event-655351)   | 0x0002       |     16 |              3 |
| [65535.2](#event-655352)   | 0x0012       |     41 |              5 |
| [65535.3](#event-655353)   | 0x003B       |     13 |              3 |
| [65535.4](#event-655354)   | 0x0048       |     13 |              3 |
| [912](#event-912)          | 0x0055       |   1516 |            187 |
| [913](#event-913)          | 0x0641       |    177 |             34 |
| [915](#event-915)          | 0x06F2       |    132 |             23 |
| [925](#event-925)          | 0x0776       |    182 |             34 |
| [926](#event-926)          | 0x082C       |    182 |             34 |
| [918](#event-918)          | 0x08E2       |    120 |             28 |
| [65535.5](#event-655355)   | 0x095A       |      6 |              2 |
| [65535.6](#event-655356)   | 0x0960       |      6 |              2 |
| [65535.7](#event-655357)   | 0x0966       |     37 |              5 |
| [65535.8](#event-655358)   | 0x098B       |    185 |             37 |
| [65535.9](#event-655359)   | 0x0A44       |     24 |              4 |
| [65535.10](#event-6553510) | 0x0A5C       |     24 |              4 |
| [65535.11](#event-6553511) | 0x0A74       |     37 |              5 |
| [65535.12](#event-6553512) | 0x0A99       |     37 |              5 |
| [65535.13](#event-6553513) | 0x0ABE       |     42 |              6 |
| [65535.14](#event-6553514) | 0x0AE8       |     22 |              6 |
| [65535.15](#event-6553515) | 0x0AFE       |     14 |              4 |
| [65535.16](#event-6553516) | 0x0B0C       |      5 |              2 |
| [65535.17](#event-6553517) | 0x0B11       |      5 |              2 |
| [65535.18](#event-6553518) | 0x0B16       |      5 |              2 |
| [65535.19](#event-6553519) | 0x0B1B       |      5 |              2 |
| [65535.20](#event-6553520) | 0x0B20       |     22 |              6 |
| [65535.21](#event-6553521) | 0x0B36       |    345 |             33 |
| [65535.22](#event-6553522) | 0x0C8F       |    217 |             25 |
| [65535.23](#event-6553523) | 0x0D68       |    345 |             33 |
| [65535.24](#event-6553524) | 0x0EC1       |     14 |              4 |
| [65535.25](#event-6553525) | 0x0ECF       |     14 |              4 |
| [65535.26](#event-6553526) | 0x0EDD       |     14 |              4 |
| [65535.27](#event-6553527) | 0x0EEB       |     47 |              7 |
| [65535.28](#event-6553528) | 0x0F1A       |     50 |              7 |
| [65535.29](#event-6553529) | 0x0F4C       |     50 |              7 |
| [65535.30](#event-6553530) | 0x0F7E       |     24 |              4 |
| [65535.31](#event-6553531) | 0x0F96       |     24 |              4 |
| [65535.32](#event-6553532) | 0x0FAE       |     24 |              4 |
| [65535.33](#event-6553533) | 0x0FC6       |     24 |              4 |
| [65535.34](#event-6553534) | 0x0FDE       |     14 |              4 |
| [65535.35](#event-6553535) | 0x0FEC       |     14 |              4 |
| [916](#event-916)          | 0x0FFA       |    135 |             31 |

## DAT References (imed_data)

|   Index | Hex Value   |   Dec Value |
|---------|-------------|-------------|
|       0 | 0xFFFF91BB  |  4294939067 |
|       1 | 0xFFF59D5A  |  4294286682 |
|       2 | 0xB3CB      |       46027 |
|       3 | 0x042E      |        1070 |
|       4 | 0x0094      |         148 |
|       5 | 0x0000      |           0 |
|       6 | 0x00F0      |         240 |
|       7 | 0x00C8      |         200 |
|       8 | 0x003C      |          60 |
|       9 | 0xFFFECF6D  |  4294889325 |
|      10 | 0xFFF5062B  |  4294247979 |
|      11 | 0xBB7F      |       47999 |
|      12 | 0x0494      |        1172 |
|      13 | 0xFFFB4512  |  4294657298 |
|      14 | 0x40308     |      262920 |
|      15 | 0x22C2      |        8898 |
|      16 | 0x0E5F      |        3679 |
|      17 | 0x0001      |           1 |
|      18 | 0x1D65      |        7525 |
|      19 | 0x1D66      |        7526 |
|      20 | 0x40000000  |  1073741824 |
|      21 | 0x0013      |          19 |
|      22 | 0x2BEFE     |      179966 |
|      23 | 0x3E5E9     |      255465 |
|      24 | 0x894E      |       35150 |
|      25 | 0x0BA4      |        2980 |
|      26 | 0x00A1      |         161 |
|      27 | 0x0003      |           3 |
|      28 | 0x000D      |          13 |
|      29 | 0x2BECE     |      179918 |
|      30 | 0x3EFC8     |      257992 |
|      31 | 0x0027      |          39 |
|      32 | 0x001E      |          30 |
|      33 | 0x002D      |          45 |
|      34 | 0x1D69      |        7529 |
|      35 | 0x0002      |           2 |
|      36 | 0x1D6A      |        7530 |
|      37 | 0x1D6B      |        7531 |
|      38 | 0x1D6C      |        7532 |
|      39 | 0x006E      |         110 |
|      40 | 0x1D6D      |        7533 |
|      41 | 0x005A      |          90 |
|      42 | 0x0078      |         120 |
|      43 | 0x1D6E      |        7534 |
|      44 | 0x1D6F      |        7535 |
|      45 | 0x1D70      |        7536 |
|      46 | 0x1D71      |        7537 |
|      47 | 0x1D72      |        7538 |
|      48 | 0x1D73      |        7539 |
|      49 | 0x1D74      |        7540 |
|      50 | 0x1D75      |        7541 |
|      51 | 0x1D76      |        7542 |
|      52 | 0x1D77      |        7543 |
|      53 | 0x1D78      |        7544 |
|      54 | 0x1D79      |        7545 |
|      55 | 0x1D7A      |        7546 |
|      56 | 0x1D7B      |        7547 |
|      57 | 0xFFFFFC00  |  4294966272 |
|      58 | 0x00C9      |         201 |
|      59 | 0x1D67      |        7527 |
|      60 | 0x1D68      |        7528 |
|      61 | 0x00B4      |         180 |
|      62 | 0x1CB6      |        7350 |
|      63 | 0x1CB7      |        7351 |
|      64 | 0x004B      |          75 |
|      65 | 0x2F65      |       12133 |
|      66 | 0x2F66      |       12134 |
|      67 | 0x1E61      |        7777 |
|      68 | 0x1E62      |        7778 |
|      69 | 0x1E63      |        7779 |
|      70 | 0x1E64      |        7780 |
|      71 | 0x1E65      |        7781 |
|      72 | 0x0005      |           5 |
|      73 | 0x000A      |          10 |
|      74 | 0x0009      |           9 |
|      75 | 0x0046      |          70 |
|      76 | 0x008C      |         140 |
|      77 | 0x00D2      |         210 |
|      78 | 0x0028      |          40 |
|      79 | 0xFFF9ED97  |  4294569367 |
|      80 | 0x5685C     |      354396 |
|      81 | 0xFFFFB565  |  4294948197 |
|      82 | 0xFFF9ECB3  |  4294569139 |
|      83 | 0x56271     |      352881 |
|      84 | 0x0057      |          87 |
|      85 | 0x005D      |          93 |
|      86 | 0x0060      |          96 |
|      87 | 0x0064      |         100 |
|      88 | 0x008D      |         141 |
|      89 | 0x0F26      |        3878 |
|      90 | 0x0097      |         151 |
|      91 | 0x0004      |           4 |
|      92 | 0x00AB      |         171 |
|      93 | 0x00B5      |         181 |
|      94 | 0x0006      |           6 |
|      95 | 0x0007      |           7 |
|      96 | 0x00BF      |         191 |
|      97 | 0x0008      |           8 |
|      98 | 0x66D5D     |      421213 |
|      99 | 0xFFFDD65B  |  4294825563 |
|     100 | 0x4AA0      |       19104 |
|     101 | 0x3606F     |      221295 |
|     102 | 0x21CE1     |      138465 |
|     103 | 0x3FC23     |      261155 |
|     104 | 0x53528     |      341288 |
|     105 | 0x0095      |         149 |
|     106 | 0x15DEC     |       89580 |
|     107 | 0x51658     |      333400 |
|     108 | 0x9D26      |       40230 |
|     109 | 0x15B08     |       88840 |
|     110 | 0x504D8     |      328920 |
|     111 | 0x9C86      |       40070 |
|     112 | 0x000F      |          15 |
|     113 | 0x1E38      |        7736 |
|     114 | 0x0090      |         144 |
|     115 | 0x1E44      |        7748 |
|     116 | 0x0063      |          99 |
|     117 | 0x1E45      |        7749 |

## String References

- **7350**: The telepoint has disappeared...
- **7351**: Investigate the missing telepoint? [Let's see here.../Not right now.]
- **7525**: The telepoint has been shattered into a thousand pieces...
- **7526**: Investigate further? [Yes./No.]
- **7527**: Have you made your preparations?
- **7528**: Preparations complete? [Yes./Not yet.]
- **7736**: There is treasure somewhere in the vicinity of this marker...
- **7748**: Your chocobo seems especially sharp today!
- **7749**: Your chocobo seems especially energetic today!
- **7777**: Your fate is currently entwined in the swirling mists of [Promyvion - Holla/Promyvion - Dem/Promyvion - Mea].
- **7778**: By sealing off a portion of your memory, your destiny within this realm of Promyvion can be altered.
- **7779**: This will allow you to return to the entrance of the crag, having forgotten all events regarding this place.
- **7780**: Seal off your memories? [Yes./No.]
- **7781**: Are you sure? [Absolutely./No.]
- **12133**: Teleport to where? [Al'Taieu./The Empyreal Paradox./Nowhere.]
- **12134**: Teleport to where? [Al'Taieu./Reisenjima./Nowhere.]

## Events

### Event 65535

#### Metadata

| Field        | Value   |
|--------------|---------|
| Entrypoint   | 0x0000  |
| Data Size    | 1 bytes |
| Instructions | 1       |

```
      00 01 02 03 04 05 06 07  08 09 0A 0B 0C 0D 0E 0F
      -- -- -- -- -- -- -- --  -- -- -- -- -- -- -- --
0000: 00                                                .               
```

#### Opcodes

```
  0: 0x0000 [0x00] END_REQSTACK()
```

### Event 65534

#### Metadata

| Field        | Value   |
|--------------|---------|
| Entrypoint   | 0x0001  |
| Data Size    | 1 bytes |
| Instructions | 1       |

```
      00 01 02 03 04 05 06 07  08 09 0A 0B 0C 0D 0E 0F
      -- -- -- -- -- -- -- --  -- -- -- -- -- -- -- --
0000:    00                                              .              
```

#### Opcodes

```
  0: 0x0001 [0x00] END_REQSTACK()
```

### Event 65535.1

#### Metadata

| Field        | Value    |
|--------------|----------|
| Entrypoint   | 0x0002   |
| Data Size    | 16 bytes |
| Instructions | 3        |

```
      00 01 02 03 04 05 06 07  08 09 0A 0B 0C 0D 0E 0F
      -- -- -- -- -- -- -- --  -- -- -- -- -- -- -- --
0000:       92 01 F0 FF FF 7F  37 00 80 01 80 02 80 03    ......7.......
0010: 80 00                                             ..              
```

#### Opcodes

```
  0: 0x0002 [0x92] LocalPlayer->Render.Flags3 ^= 0x01
  1: 0x0008 [0x37] UPDATE_EVENT_POSITION_AND_DIR: x=-28.229*, z=-680.614*, y=46.027*, direction=94.0°*
  2: 0x0011 [0x00] END_REQSTACK()
```

### Event 65535.2

#### Metadata

| Field        | Value    |
|--------------|----------|
| Entrypoint   | 0x0012   |
| Data Size    | 41 bytes |
| Instructions | 5        |

```
      00 01 02 03 04 05 06 07  08 09 0A 0B 0C 0D 0E 0F
      -- -- -- -- -- -- -- --  -- -- -- -- -- -- -- --
0010:       BB 04 80 F0 FF FF  7F 76 52 07 01 6D 61 69    .......vR..mai
0020: 6E 05 80 1C 06 80 45 07  80 F0 FF FF 7F F0 FF FF  n.....E.........
0030: 7F 66 64 6F 31 05 80 1C  08 80 00                 .fdo1......     
```

#### Opcodes

```
  0: 0x0012 [0xBB] LOAD_EVENT_SCHEDULER_ALT: Load scheduler "main" with entities [LocalPlayer, Cavernous Maw (ID: 17257078/0x01075276)], work=[148*, 0*]
  1: 0x0023 [0x1C] WAIT(240* ticks)
  2: 0x0026 [0x45] LOAD_SCHEDULED_TASK: Load scheduler "fdo1" with entities [LocalPlayer, LocalPlayer], work=[200*, 0*]
  3: 0x0037 [0x1C] WAIT(60* ticks)
  4: 0x003A [0x00] END_REQSTACK()
```

### Event 65535.3

#### Metadata

| Field        | Value    |
|--------------|----------|
| Entrypoint   | 0x003B   |
| Data Size    | 13 bytes |
| Instructions | 3        |

```
      00 01 02 03 04 05 06 07  08 09 0A 0B 0C 0D 0E 0F
      -- -- -- -- -- -- -- --  -- -- -- -- -- -- -- --
0030:                                   47 00 09 80 0A             G....
0040: 80 0B 80 0C 80 47 01 00                           .....G..        
```

#### Opcodes

```
  0: 0x003B [0x47] UPDATE_PLAYER_POS(-77.971*, -719.317*, 47.999*, yaw=103.0°*)
  1: 0x0045 [0x47] WAIT_PLAYER_POS_UPDATE
  2: 0x0047 [0x00] END_REQSTACK()
```

### Event 65535.4

#### Metadata

| Field        | Value    |
|--------------|----------|
| Entrypoint   | 0x0048   |
| Data Size    | 13 bytes |
| Instructions | 3        |

```
      00 01 02 03 04 05 06 07  08 09 0A 0B 0C 0D 0E 0F
      -- -- -- -- -- -- -- --  -- -- -- -- -- -- -- --
0040:                          47 00 0D 80 0E 80 0F 80          G.......
0050: 10 80 47 01 00                                    ..G..           
```

#### Opcodes

```
  0: 0x0048 [0x47] UPDATE_PLAYER_POS(-309.998*, 262.920*, 8.898*, yaw=323.3°*)
  1: 0x0052 [0x47] WAIT_PLAYER_POS_UPDATE
  2: 0x0054 [0x00] END_REQSTACK()
```

### Event 912

#### Metadata

| Field        | Value      |
|--------------|------------|
| Entrypoint   | 0x0055     |
| Data Size    | 1516 bytes |
| Instructions | 186        |

```
      00 01 02 03 04 05 06 07  08 09 0A 0B 0C 0D 0E 0F
      -- -- -- -- -- -- -- --  -- -- -- -- -- -- -- --
0050:                02 02 10  11 80 00 80 00 48 12 80       ........H..
0060: 23 24 13 80 11 80 05 80  25 02 00 10 11 80 00 7B  #$......%......{
0070: 00 03 01 10 14 80 21 00  01 7B 00 42 43 00 43 01  ......!..{.BC.C.
0080: 42 45 07 80 F8 FF FF 7F  F8 FF FF 7F 66 64 6F 31  BE..........fdo1
0090: 05 80 55 07 80 F8 FF FF  7F F8 FF FF 7F 66 64 6F  ..U..........fdo
00A0: 31 38 15 80 37 16 80 17  80 18 80 19 80 5C 00 1A  18..7........\..
00B0: 80 5C 01 1A 80 46 01 45  1B 80 F8 FF FF 7F F8 FF  .\...F.E........
00C0: FF 7F 73 30 32 39 05 80  45 07 80 F8 FF FF 7F F8  ..s029..E.......
00D0: FF FF 7F 66 64 69 31 05  80 32 1C 80 27 0A 70 52  ...fdi1..2..'.pR
00E0: 07 01 02 27 0A 72 52 07  01 02 27 0A 71 52 07 01  ...'.rR...'.qR..
00F0: 02 27 0A 6D 52 07 01 02  27 0A 6C 52 07 01 02 1F  .'.mR...'.lR....
0100: 00 1D 80 1E 80 18 80 1F  01 6F 1C 11 80 6E F0 FF  .........o...n..
0110: FF 7F 1F 80 99 F0 FF FF  7F 1C 20 80 80 70 52 07  .......... ..pR.
0120: 01 80 72 52 07 01 80 71  52 07 01 52 1B 80 F8 FF  ..rR...qR..R....
0130: FF 7F F8 FF FF 7F 73 30  32 39 45 1B 80 F8 FF FF  ......s029E.....
0140: 7F F8 FF FF 7F 73 30 33  30 05 80 27 0A 70 52 07  .....s030..'.pR.
0150: 01 03 1C 21 80 27 0A 72  52 07 01 03 1C 08 80 29  ...!.'.rR......)
0160: 0A 71 52 07 01 03 1C 20  80 45 07 80 F8 FF FF 7F  .qR.... .E......
0170: F8 FF FF 7F 66 64 6F 30  05 80 55 07 80 F8 FF FF  ....fdo0..U.....
0180: 7F F8 FF FF 7F 66 64 6F  30 4E 01 70 52 07 01 4E  .....fdo0N.pR..N
0190: 01 72 52 07 01 45 1B 80  F8 FF FF 7F F8 FF FF 7F  .rR..E..........
01A0: 73 30 33 31 05 80 45 07  80 F8 FF FF 7F F8 FF FF  s031..E.........
01B0: 7F 66 64 69 30 05 80 2B  6D 52 07 01 22 80 23 55  .fdi0..+mR..".#U
01C0: 1B 80 F8 FF FF 7F F8 FF  FF 7F 73 30 33 31 45 07  ..........s031E.
01D0: 80 F8 FF FF 7F F8 FF FF  7F 66 64 6F 30 05 80 55  .........fdo0..U
01E0: 07 80 F8 FF FF 7F F8 FF  FF 7F 66 64 6F 30 29 0A  ..........fdo0).
01F0: 6B 52 07 01 02 45 1B 80  F8 FF FF 7F F8 FF FF 7F  kR...E..........
0200: 73 30 33 32 05 80 1C 23  80 4A F0 FF FF 7F 6D 52  s032...#.J....mR
0210: 07 01 45 07 80 F8 FF FF  7F F8 FF FF 7F 66 64 69  ..E..........fdi
0220: 30 05 80 02 03 10 05 80  00 36 02 2B 6D 52 07 01  0........6.+mR..
0230: 24 80 23 01 3E 02 2B 6D  52 07 01 25 80 23 45 1B  $.#.>.+mR..%.#E.
0240: 80 F8 FF FF 7F F8 FF FF  7F 73 30 33 33 05 80 79  .........s033..y
0250: 00 6B 52 07 01 F0 FF FF  7F 27 0A 6B 52 07 01 03  .kR......'.kR...
0260: 1C 08 80 2B 6B 52 07 01  26 80 23 2A 0A 6B 52 07  ...+kR..&.#*.kR.
0270: 01 5B 27 80 6B 52 07 01  6B 52 07 01 74 6C 6B 30  .['.kR..kR..tlk0
0280: 2B 6B 52 07 01 28 80 23  5B 27 80 6B 52 07 01 6B  +kR..(.#['.kR..k
0290: 52 07 01 74 6C 6B 31 55  1B 80 F8 FF FF 7F F8 FF  R..tlk1U........
02A0: FF 7F 73 30 33 33 45 07  80 F8 FF FF 7F F8 FF FF  ..s033E.........
02B0: 7F 66 64 6F 30 05 80 55  07 80 F8 FF FF 7F F8 FF  .fdo0..U........
02C0: FF 7F 66 64 6F 30 45 1B  80 F8 FF FF 7F F8 FF FF  ..fdo0E.........
02D0: 7F 73 30 33 34 05 80 27  0A 6F 52 07 01 02 29 0A  .s034..'.oR...).
02E0: 6E 52 07 01 04 2A 0A 6F  52 07 01 27 0A 6F 52 07  nR...*.oR..'.oR.
02F0: 01 03 27 0A 6E 52 07 01  05 45 07 80 F8 FF FF 7F  ..'.nR...E......
0300: F8 FF FF 7F 66 64 69 31  05 80 1C 29 80 45 07 80  ....fdi1...).E..
0310: F8 FF FF 7F F8 FF FF 7F  66 64 6F 32 05 80 55 07  ........fdo2..U.
0320: 80 F8 FF FF 7F F8 FF FF  7F 66 64 6F 32 52 1B 80  .........fdo2R..
0330: F8 FF FF 7F F8 FF FF 7F  73 30 33 34 45 1B 80 F8  ........s034E...
0340: FF FF 7F F8 FF FF 7F 73  30 33 35 05 80 1C 11 80  .......s035.....
0350: 27 0A 6E 52 07 01 02 27  0A 73 52 07 01 02 79 00  '.nR...'.sR...y.
0360: 6B 52 07 01 6E 52 07 01  79 00 6E 52 07 01 6B 52  kR..nR..y.nR..kR
0370: 07 01 79 00 6D 52 07 01  6E 52 07 01 79 00 6C 52  ..y.mR..nR..y.lR
0380: 07 01 6E 52 07 01 27 0A  6C 52 07 01 03 27 0A 6D  ..nR..'.lR...'.m
0390: 52 07 01 03 1C 20 80 27  0A 6E 52 07 01 03 80 6E  R.... .'.nR....n
03A0: 52 07 01 52 1B 80 F8 FF  FF 7F F8 FF FF 7F 73 30  R..R..........s0
03B0: 33 35 45 1B 80 F8 FF FF  7F F8 FF FF 7F 73 30 33  35E..........s03
03C0: 35 05 80 45 07 80 F8 FF  FF 7F F8 FF FF 7F 66 64  5..E..........fd
03D0: 69 32 05 80 1C 2A 80 2B  6E 52 07 01 2B 80 23 2A  i2...*.+nR..+.#*
03E0: 0A 6E 52 07 01 27 0A 6B  52 07 01 04 2B 6B 52 07  .nR..'.kR...+kR.
03F0: 01 2C 80 23 2A 0A 6B 52  07 01 5B 27 80 6B 52 07  .,.#*.kR..['.kR.
0400: 01 6B 52 07 01 6B 6E 67  30 2B 6B 52 07 01 2D 80  .kR..kng0+kR..-.
0410: 23 5B 27 80 6B 52 07 01  6B 52 07 01 6B 6E 67 31  #['.kR..kR..kng1
0420: 55 1B 80 F8 FF FF 7F F8  FF FF 7F 73 30 33 35 45  U..........s035E
0430: 1B 80 F8 FF FF 7F F8 FF  FF 7F 73 30 33 36 05 80  ..........s036..
0440: 2B 6B 52 07 01 2E 80 23  5B 27 80 6B 52 07 01 6B  +kR....#['.kR..k
0450: 52 07 01 74 6C 6B 30 2B  6B 52 07 01 2F 80 23 5B  R..tlk0+kR../.#[
0460: 27 80 6B 52 07 01 6B 52  07 01 74 6C 6B 31 2B 6B  '.kR..kR..tlk1+k
0470: 52 07 01 30 80 23 5B 27  80 6B 52 07 01 6B 52 07  R..0.#['.kR..kR.
0480: 01 6B 61 6B 30 2B 6B 52  07 01 31 80 23 55 1B 80  .kak0+kR..1.#U..
0490: F8 FF FF 7F F8 FF FF 7F  73 30 33 36 45 1B 80 F8  ........s036E...
04A0: FF FF 7F F8 FF FF 7F 73  30 33 37 05 80 7B 6E 52  .......s037..{nR
04B0: 07 01 2B 6E 52 07 01 32  80 23 5B 27 80 6B 52 07  ..+nR..2.#['.kR.
04C0: 01 6B 52 07 01 6B 61 6B  31 2B 6B 52 07 01 33 80  .kR..kak1+kR..3.
04D0: 23 52 1B 80 F8 FF FF 7F  F8 FF FF 7F 73 30 33 37  #R..........s037
04E0: 45 1B 80 F8 FF FF 7F F8  FF FF 7F 73 30 34 38 05  E..........s048.
04F0: 80 2B 6E 52 07 01 34 80  23 79 00 6E 52 07 01 6B  .+nR..4.#y.nR..k
0500: 52 07 01 2B 6E 52 07 01  35 80 23 52 1B 80 F8 FF  R..+nR..5.#R....
0510: FF 7F F8 FF FF 7F 73 30  34 38 45 1B 80 F8 FF FF  ......s048E.....
0520: 7F F8 FF FF 7F 73 30 33  36 05 80 5B 27 80 6B 52  .....s036..['.kR
0530: 07 01 6B 52 07 01 74 65  66 30 2B 6B 52 07 01 36  ..kR..tef0+kR..6
0540: 80 23 2B 6B 52 07 01 37  80 23 2C 54 52 07 01 F8  .#+kR..7.#,TR...
0550: FF FF 7F 70 6B 30 30 1C  29 80 27 0A 6D 52 07 01  ...pk00.).'.mR..
0560: 04 52 1B 80 F8 FF FF 7F  F8 FF FF 7F 73 30 33 36  .R..........s036
0570: 45 1B 80 F8 FF FF 7F F8  FF FF 7F 73 30 33 38 05  E..........s038.
0580: 80 4A 6B 52 07 01 F0 FF  FF 7F 4A 6E 52 07 01 F0  .JkR......JnR...
0590: FF FF 7F 79 00 6D 52 07  01 F0 FF FF 7F 2B 6D 52  ...y.mR......+mR
05A0: 07 01 38 80 23 52 1B 80  F8 FF FF 7F F8 FF FF 7F  ..8.#R..........
05B0: 73 30 33 38 45 1B 80 F8  FF FF 7F F8 FF FF 7F 73  s038E..........s
05C0: 30 33 39 05 80 1C 08 80  4B F0 FF FF 7F 39 80 1C  039.....K....9..
05D0: 06 80 5D 05 80 29 80 45  3A 80 F8 FF FF 7F F8 FF  ..]..).E:.......
05E0: FF 7F 77 68 6F 31 05 80  55 3A 80 F8 FF FF 7F F8  ..who1..U:......
05F0: FF FF 7F 77 68 6F 31 2C  54 52 07 01 F8 FF FF 7F  ...who1,TR......
0600: 6B 69 6C 6C 02 02 10 11  80 00 24 06 30 45 07 80  kill......$.0E..
0610: F8 FF FF 7F F8 FF FF 7F  66 64 6F 30 05 80 1C 20  ........fdo0... 
0620: 80 01 26 06 46 00 5C 00  05 80 5C 01 05 80 45 3A  ..&.F.\...\...E:
0630: 80 F8 FF FF 7F F8 FF FF  7F 77 68 69 31 05 80 21  .........whi1..!
0640: 00                                                .               
```

#### Opcodes

```
  0: 0x0055 [0x02] IF !(Work_Zone[2] == 1*) GOTO 0x0080
  1: 0x005D [0x48] [System] [7525*]:
    → "The telepoint has been shattered into a thousand pieces..."
  2: 0x0060 [0x23] WAIT_FOR_DIALOG_INTERACTION
  3: 0x0061 [0x24] CREATE_DIALOG(message_id=7526*, default_option=1*, option_flags=0*)
    → "Investigate further? [Yes./No.]"
  4: 0x0068 [0x25] WAIT_DIALOG_SELECT()
  5: 0x0069 [0x02] IF !(Work_Zone[0] == 1*) GOTO 0x007B
  6: 0x0071 [0x03] Work_Zone[1] = 1073741824*
  7: 0x0076 [0x21] END_EVENT
  8: 0x0077 [0x00] END_REQSTACK()

SUBROUTINE_007B:
  9: 0x007B [0x42] SET_CLI_EVENT_CANCEL_DATA()
 10: 0x007C [0x43] SEND_EVENT_UPDATE: Send pending tag to server (packet 0x005B)
 11: 0x007E [0x43] SEND_EVENT_UPDATE: Check pending flag (skip if not pending)
 12: 0x0080 [0x42] SET_CLI_EVENT_CANCEL_DATA()
 13: 0x0081 [0x45] LOAD_SCHEDULED_TASK: Load scheduler "fdo1" with entities [EventEntity, EventEntity], work=[200*, 0*]
 14: 0x0092 [0x55] WAIT_LOAD_SCHEDULER: Wait for scheduler "fdo1" with entities [EventEntity, EventEntity], work=200*
 15: 0x00A1 [0x38] SET_CLIENT_EVENT_MODE(mode=19*)
 16: 0x00A4 [0x37] UPDATE_EVENT_POSITION_AND_DIR: x=179.966*, z=255.465*, y=35.150*, direction=261.9°*
 17: 0x00AD [0x5C] MUSIC_CONTROL: Set Idle (Day) music to song 161*
 18: 0x00B1 [0x5C] MUSIC_CONTROL: Set Idle (Night) music to song 161*
 19: 0x00B5 [0x46] CAMERA_CONTROL: Disable user control
 20: 0x00B7 [0x45] LOAD_SCHEDULED_TASK: Load scheduler "s029" with entities [EventEntity, EventEntity], work=[3*, 0*]
 21: 0x00C8 [0x45] LOAD_SCHEDULED_TASK: Load scheduler "fdi1" with entities [EventEntity, EventEntity], work=[200*, 0*]
 22: 0x00D9 [0x32] ExtData[1]->MainSpeed = 13* * 0.1
 23: 0x00DC [0x27] REQ_SET(priority=0x0A, entity_id=Unnamed NPC (ID: 17257072/0x01075270), tag_num=0x02)
 24: 0x00E3 [0x27] REQ_SET(priority=0x0A, entity_id=Unnamed NPC (ID: 17257074/0x01075272), tag_num=0x02)
 25: 0x00EA [0x27] REQ_SET(priority=0x0A, entity_id=Unnamed NPC (ID: 17257073/0x01075271), tag_num=0x02)
 26: 0x00F1 [0x27] REQ_SET(priority=0x0A, entity_id=Ayame (ID: 17257069/0x0107526D), tag_num=0x02)
 27: 0x00F8 [0x27] REQ_SET(priority=0x0A, entity_id=Naji (ID: 17257068/0x0107526C), tag_num=0x02)
 28: 0x00FF [0x1F] MOVE_ENTITY: EventEntity moves to X=179.918*, Z=257.992*, Y=35.150*
 29: 0x0107 [0x1F] MOVE_ENTITY: Update entity position (mode=1)
 30: 0x0109 [0x6F] WAIT_FRAME_DELAY: Yield until WaitTime reaches zero
 31: 0x010A [0x1C] WAIT(1* ticks)
 32: 0x010D [0x6E] LocalPlayer uses emote 39*
 33: 0x0114 [0x99] Wait for LocalPlayer animation to complete
 34: 0x0119 [0x1C] WAIT(30* ticks)
 35: 0x011C [0x80] LOAD_WAIT(entity=Unnamed NPC (ID: 17257072/0x01075270))
 36: 0x0121 [0x80] LOAD_WAIT(entity=Unnamed NPC (ID: 17257074/0x01075272))
 37: 0x0126 [0x80] LOAD_WAIT(entity=Unnamed NPC (ID: 17257073/0x01075271))
 38: 0x012B [0x52] END_LOAD_SCHEDULER: End scheduler "s029" with entities [EventEntity, EventEntity], work=3*
 39: 0x013A [0x45] LOAD_SCHEDULED_TASK: Load scheduler "s030" with entities [EventEntity, EventEntity], work=[3*, 0*]
 40: 0x014B [0x27] REQ_SET(priority=0x0A, entity_id=Unnamed NPC (ID: 17257072/0x01075270), tag_num=0x03)
 41: 0x0152 [0x1C] WAIT(45* ticks)
 42: 0x0155 [0x27] REQ_SET(priority=0x0A, entity_id=Unnamed NPC (ID: 17257074/0x01075272), tag_num=0x03)
 43: 0x015C [0x1C] WAIT(60* ticks)
 44: 0x015F [0x29] REQ_SET_WAIT(priority=0x0A, entity_id=Unnamed NPC (ID: 17257073/0x01075271), tag_num=0x03)
 45: 0x0166 [0x1C] WAIT(30* ticks)
 46: 0x0169 [0x45] LOAD_SCHEDULED_TASK: Load scheduler "fdo0" with entities [EventEntity, EventEntity], work=[200*, 0*]
 47: 0x017A [0x55] WAIT_LOAD_SCHEDULER: Wait for scheduler "fdo0" with entities [EventEntity, EventEntity], work=200*
 48: 0x0189 [0x4E] SET_ENTITY_HIDE_FLAG: Hide Unnamed NPC (ID: 17257072/0x01075270)
 49: 0x018F [0x4E] SET_ENTITY_HIDE_FLAG: Hide Unnamed NPC (ID: 17257074/0x01075272)
 50: 0x0195 [0x45] LOAD_SCHEDULED_TASK: Load scheduler "s031" with entities [EventEntity, EventEntity], work=[3*, 0*]
 51: 0x01A6 [0x45] LOAD_SCHEDULED_TASK: Load scheduler "fdi0" with entities [EventEntity, EventEntity], work=[200*, 0*]
 52: 0x01B7 [0x2B] Ayame (ID: 17257069/0x0107526D) [7529*]:
    → "Hm...? Someone seems to have arrived here before us."
 53: 0x01BE [0x23] WAIT_FOR_DIALOG_INTERACTION
 54: 0x01BF [0x55] WAIT_LOAD_SCHEDULER: Wait for scheduler "s031" with entities [EventEntity, EventEntity], work=3*
 55: 0x01CE [0x45] LOAD_SCHEDULED_TASK: Load scheduler "fdo0" with entities [EventEntity, EventEntity], work=[200*, 0*]
 56: 0x01DF [0x55] WAIT_LOAD_SCHEDULER: Wait for scheduler "fdo0" with entities [EventEntity, EventEntity], work=200*
 57: 0x01EE [0x29] REQ_SET_WAIT(priority=0x0A, entity_id=Cid (ID: 17257067/0x0107526B), tag_num=0x02)
 58: 0x01F5 [0x45] LOAD_SCHEDULED_TASK: Load scheduler "s032" with entities [EventEntity, EventEntity], work=[3*, 0*]
 59: 0x0206 [0x1C] WAIT(2* ticks)
 60: 0x0209 [0x4A] LocalPlayer looks at Ayame (ID: 17257069/0x0107526D)
 61: 0x0212 [0x45] LOAD_SCHEDULED_TASK: Load scheduler "fdi0" with entities [EventEntity, EventEntity], work=[200*, 0*]
 62: 0x0223 [0x02] IF !(Work_Zone[3] == 0*) GOTO 0x0236
 63: 0x022B [0x2B] Ayame (ID: 17257069/0x0107526D) [7530*]:
    → "<Player>, state your reason for coming here."
 64: 0x0232 [0x23] WAIT_FOR_DIALOG_INTERACTION
 65: 0x0233 [0x01] GOTO 0x023E
 66: 0x0236 [0x2B] Ayame (ID: 17257069/0x0107526D) [7531*]:
    → "You! What are you doing here?"
 67: 0x023D [0x23] WAIT_FOR_DIALOG_INTERACTION

SUBROUTINE_023E:
 68: 0x023E [0x45] LOAD_SCHEDULED_TASK: Load scheduler "s033" with entities [EventEntity, EventEntity], work=[3*, 0*]
 69: 0x024F [0x79] Cid (ID: 17257067/0x0107526B) looks at LocalPlayer (Basic look)
 70: 0x0259 [0x27] REQ_SET(priority=0x0A, entity_id=Cid (ID: 17257067/0x0107526B), tag_num=0x03)
 71: 0x0260 [0x1C] WAIT(60* ticks)
 72: 0x0263 [0x2B] Cid (ID: 17257067/0x0107526B) [7532*]:
    → "Calm down, Ayame. [He's/She's] an adventurer. It's [his/her] job to go adventuring."
 73: 0x026A [0x23] WAIT_FOR_DIALOG_INTERACTION
 74: 0x026B [0x2A] GET_REQ_LEVEL(level=10, entity_id=Cid (ID: 17257067/0x0107526B))
 75: 0x0271 [0x5B] LOAD_EXT_SCHEDULER: Load scheduler "tlk0" with entities [Cid (ID: 17257067/0x0107526B), Cid (ID: 17257067/0x0107526B)], work=110*
 76: 0x0280 [0x2B] Cid (ID: 17257067/0x0107526B) [7533*]:
    → "We're here to investigate something. It could get pretty dangerous, so I suggest taking a few steps back if you know what's good for you."
 77: 0x0287 [0x23] WAIT_FOR_DIALOG_INTERACTION
 78: 0x0288 [0x5B] LOAD_EXT_SCHEDULER: Load scheduler "tlk1" with entities [Cid (ID: 17257067/0x0107526B), Cid (ID: 17257067/0x0107526B)], work=110*
 79: 0x0297 [0x55] WAIT_LOAD_SCHEDULER: Wait for scheduler "s033" with entities [EventEntity, EventEntity], work=3*
 80: 0x02A6 [0x45] LOAD_SCHEDULED_TASK: Load scheduler "fdo0" with entities [EventEntity, EventEntity], work=[200*, 0*]
 81: 0x02B7 [0x55] WAIT_LOAD_SCHEDULER: Wait for scheduler "fdo0" with entities [EventEntity, EventEntity], work=200*
 82: 0x02C6 [0x45] LOAD_SCHEDULED_TASK: Load scheduler "s034" with entities [EventEntity, EventEntity], work=[3*, 0*]
 83: 0x02D7 [0x27] REQ_SET(priority=0x0A, entity_id=Chapi Galepilai (ID: 17257071/0x0107526F), tag_num=0x02)
 84: 0x02DE [0x29] REQ_SET_WAIT(priority=0x0A, entity_id=Wolfgang (ID: 17257070/0x0107526E), tag_num=0x04)
 85: 0x02E5 [0x2A] GET_REQ_LEVEL(level=10, entity_id=Chapi Galepilai (ID: 17257071/0x0107526F))
 86: 0x02EB [0x27] REQ_SET(priority=0x0A, entity_id=Chapi Galepilai (ID: 17257071/0x0107526F), tag_num=0x03)
 87: 0x02F2 [0x27] REQ_SET(priority=0x0A, entity_id=Wolfgang (ID: 17257070/0x0107526E), tag_num=0x05)
 88: 0x02F9 [0x45] LOAD_SCHEDULED_TASK: Load scheduler "fdi1" with entities [EventEntity, EventEntity], work=[200*, 0*]
 89: 0x030A [0x1C] WAIT(90* ticks)
 90: 0x030D [0x45] LOAD_SCHEDULED_TASK: Load scheduler "fdo2" with entities [EventEntity, EventEntity], work=[200*, 0*]
 91: 0x031E [0x55] WAIT_LOAD_SCHEDULER: Wait for scheduler "fdo2" with entities [EventEntity, EventEntity], work=200*
 92: 0x032D [0x52] END_LOAD_SCHEDULER: End scheduler "s034" with entities [EventEntity, EventEntity], work=3*
 93: 0x033C [0x45] LOAD_SCHEDULED_TASK: Load scheduler "s035" with entities [EventEntity, EventEntity], work=[3*, 0*]
 94: 0x034D [0x1C] WAIT(1* ticks)
 95: 0x0350 [0x27] REQ_SET(priority=0x0A, entity_id=Wolfgang (ID: 17257070/0x0107526E), tag_num=0x02)
 96: 0x0357 [0x27] REQ_SET(priority=0x0A, entity_id=Unnamed NPC (ID: 17257075/0x01075273), tag_num=0x02)
 97: 0x035E [0x79] Cid (ID: 17257067/0x0107526B) looks at Wolfgang (ID: 17257070/0x0107526E) (Basic look)
 98: 0x0368 [0x79] Wolfgang (ID: 17257070/0x0107526E) looks at Cid (ID: 17257067/0x0107526B) (Basic look)
 99: 0x0372 [0x79] Ayame (ID: 17257069/0x0107526D) looks at Wolfgang (ID: 17257070/0x0107526E) (Basic look)
100: 0x037C [0x79] Naji (ID: 17257068/0x0107526C) looks at Wolfgang (ID: 17257070/0x0107526E) (Basic look)
101: 0x0386 [0x27] REQ_SET(priority=0x0A, entity_id=Naji (ID: 17257068/0x0107526C), tag_num=0x03)
102: 0x038D [0x27] REQ_SET(priority=0x0A, entity_id=Ayame (ID: 17257069/0x0107526D), tag_num=0x03)
103: 0x0394 [0x1C] WAIT(30* ticks)
104: 0x0397 [0x27] REQ_SET(priority=0x0A, entity_id=Wolfgang (ID: 17257070/0x0107526E), tag_num=0x03)
105: 0x039E [0x80] LOAD_WAIT(entity=Wolfgang (ID: 17257070/0x0107526E))
106: 0x03A3 [0x52] END_LOAD_SCHEDULER: End scheduler "s035" with entities [EventEntity, EventEntity], work=3*
107: 0x03B2 [0x45] LOAD_SCHEDULED_TASK: Load scheduler "s035" with entities [EventEntity, EventEntity], work=[3*, 0*]
108: 0x03C3 [0x45] LOAD_SCHEDULED_TASK: Load scheduler "fdi2" with entities [EventEntity, EventEntity], work=[200*, 0*]
109: 0x03D4 [0x1C] WAIT(120* ticks)
110: 0x03D7 [0x2B] Wolfgang (ID: 17257070/0x0107526E) [7534*]:
    → "Why, Cid. What business do you have here today?"
111: 0x03DE [0x23] WAIT_FOR_DIALOG_INTERACTION
112: 0x03DF [0x2A] GET_REQ_LEVEL(level=10, entity_id=Wolfgang (ID: 17257070/0x0107526E))
113: 0x03E5 [0x27] REQ_SET(priority=0x0A, entity_id=Cid (ID: 17257067/0x0107526B), tag_num=0x04)
114: 0x03EC [0x2B] Cid (ID: 17257067/0x0107526B) [7535*]:
    → "Well, if it isn't little Wolfgang. How have you been?"
115: 0x03F3 [0x23] WAIT_FOR_DIALOG_INTERACTION
116: 0x03F4 [0x2A] GET_REQ_LEVEL(level=10, entity_id=Cid (ID: 17257067/0x0107526B))
117: 0x03FA [0x5B] LOAD_EXT_SCHEDULER: Load scheduler "kng0" with entities [Cid (ID: 17257067/0x0107526B), Cid (ID: 17257067/0x0107526B)], work=110*
118: 0x0409 [0x2B] Cid (ID: 17257067/0x0107526B) [7536*]:
    → "We're here to check out the Crystal Line. Recently I've been receiving some very strange readings from this area."
119: 0x0410 [0x23] WAIT_FOR_DIALOG_INTERACTION
120: 0x0411 [0x5B] LOAD_EXT_SCHEDULER: Load scheduler "kng1" with entities [Cid (ID: 17257067/0x0107526B), Cid (ID: 17257067/0x0107526B)], work=110*
121: 0x0420 [0x55] WAIT_LOAD_SCHEDULER: Wait for scheduler "s035" with entities [EventEntity, EventEntity], work=3*
122: 0x042F [0x45] LOAD_SCHEDULED_TASK: Load scheduler "s036" with entities [EventEntity, EventEntity], work=[3*, 0*]
123: 0x0440 [0x2B] Cid (ID: 17257067/0x0107526B) [7537*]:
    → "According to the data retrieved by a Republican party that visited here last month, the once stable energy flow has begun to fluctuate."
124: 0x0447 [0x23] WAIT_FOR_DIALOG_INTERACTION
125: 0x0448 [0x5B] LOAD_EXT_SCHEDULER: Load scheduler "tlk0" with entities [Cid (ID: 17257067/0x0107526B), Cid (ID: 17257067/0x0107526B)], work=110*
126: 0x0457 [0x2B] Cid (ID: 17257067/0x0107526B) [7538*]:
    → "I've never seen such high readings..."
127: 0x045E [0x23] WAIT_FOR_DIALOG_INTERACTION
128: 0x045F [0x5B] LOAD_EXT_SCHEDULER: Load scheduler "tlk1" with entities [Cid (ID: 17257067/0x0107526B), Cid (ID: 17257067/0x0107526B)], work=110*
129: 0x046E [0x2B] Cid (ID: 17257067/0x0107526B) [7539*]:
    → "The flow of energy is so overwhelming that the Telepoint you see over there was shattered to pieces! And now there are reports that a giant beast appeared over the sea, just to the north of Delkfutt's Tower."
130: 0x0475 [0x23] WAIT_FOR_DIALOG_INTERACTION
131: 0x0476 [0x5B] LOAD_EXT_SCHEDULER: Load scheduler "kak0" with entities [Cid (ID: 17257067/0x0107526B), Cid (ID: 17257067/0x0107526B)], work=110*
132: 0x0485 [0x2B] Cid (ID: 17257067/0x0107526B) [7540*]:
    → "I have a bad feeling that these two events are connected, and that they're warning us of something worse to come."
133: 0x048C [0x23] WAIT_FOR_DIALOG_INTERACTION
134: 0x048D [0x55] WAIT_LOAD_SCHEDULER: Wait for scheduler "s036" with entities [EventEntity, EventEntity], work=3*
135: 0x049C [0x45] LOAD_SCHEDULED_TASK: Load scheduler "s037" with entities [EventEntity, EventEntity], work=[3*, 0*]
136: 0x04AD [0x7B] Wolfgang (ID: 17257070/0x0107526E) stops talking
137: 0x04B2 [0x2B] Wolfgang (ID: 17257070/0x0107526E) [7541*]:
    → "... I understand that research inclines you to pursue these matters. However, I ask that you leave the investigation to the Duchy."
138: 0x04B9 [0x23] WAIT_FOR_DIALOG_INTERACTION
139: 0x04BA [0x5B] LOAD_EXT_SCHEDULER: Load scheduler "kak1" with entities [Cid (ID: 17257067/0x0107526B), Cid (ID: 17257067/0x0107526B)], work=110*
140: 0x04C9 [0x2B] Cid (ID: 17257067/0x0107526B) [7542*]:
    → "Eh? So the Duchy knows the cause of all these strange phenomena?"
141: 0x04D0 [0x23] WAIT_FOR_DIALOG_INTERACTION
142: 0x04D1 [0x52] END_LOAD_SCHEDULER: End scheduler "s037" with entities [EventEntity, EventEntity], work=3*
143: 0x04E0 [0x45] LOAD_SCHEDULED_TASK: Load scheduler "s048" with entities [EventEntity, EventEntity], work=[3*, 0*]
144: 0x04F1 [0x2B] Wolfgang (ID: 17257070/0x0107526E) [7543*]:
    → "Not exactly. We have numerous parties investigating the situation. However, many of those sent into the field have...vanished."
145: 0x04F8 [0x23] WAIT_FOR_DIALOG_INTERACTION
146: 0x04F9 [0x79] Wolfgang (ID: 17257070/0x0107526E) looks at Cid (ID: 17257067/0x0107526B) (Basic look)
147: 0x0503 [0x2B] Wolfgang (ID: 17257070/0x0107526E) [7544*]:
    → "We cannot allow any more accidents. The damage to Vana'diel would be great if we were to lose such an important engineer as you, Cid."
148: 0x050A [0x23] WAIT_FOR_DIALOG_INTERACTION
149: 0x050B [0x52] END_LOAD_SCHEDULER: End scheduler "s048" with entities [EventEntity, EventEntity], work=3*
150: 0x051A [0x45] LOAD_SCHEDULED_TASK: Load scheduler "s036" with entities [EventEntity, EventEntity], work=[3*, 0*]
151: 0x052B [0x5B] LOAD_EXT_SCHEDULER: Load scheduler "tef0" with entities [Cid (ID: 17257067/0x0107526B), Cid (ID: 17257067/0x0107526B)], work=110*
152: 0x053A [0x2B] Cid (ID: 17257067/0x0107526B) [7545*]:
    → "Hah! Let me guess... The scientists back in Jeuno told you to get rid of all those who got in their way."
153: 0x0541 [0x23] WAIT_FOR_DIALOG_INTERACTION
154: 0x0542 [0x2B] Cid (ID: 17257067/0x0107526B) [7546*]:
    → "Who do they think they are!? Come to think of it, I have good reason to believe that it's those lunatics that are causing all this trouble!"
155: 0x0549 [0x23] WAIT_FOR_DIALOG_INTERACTION
156: 0x054A [0x2C] CREATE_SCHEDULER_TASK: Create scheduler "pk00" with entities [Shattered Telepoint (ID: 17257044/0x01075254), EventEntity]
157: 0x0557 [0x1C] WAIT(90* ticks)
158: 0x055A [0x27] REQ_SET(priority=0x0A, entity_id=Ayame (ID: 17257069/0x0107526D), tag_num=0x04)
159: 0x0561 [0x52] END_LOAD_SCHEDULER: End scheduler "s036" with entities [EventEntity, EventEntity], work=3*
160: 0x0570 [0x45] LOAD_SCHEDULED_TASK: Load scheduler "s038" with entities [EventEntity, EventEntity], work=[3*, 0*]
161: 0x0581 [0x4A] Cid (ID: 17257067/0x0107526B) looks at LocalPlayer
162: 0x058A [0x4A] Wolfgang (ID: 17257070/0x0107526E) looks at LocalPlayer
163: 0x0593 [0x79] Ayame (ID: 17257069/0x0107526D) looks at LocalPlayer (Basic look)
164: 0x059D [0x2B] Ayame (ID: 17257069/0x0107526D) [7547*]:
    → "Wh-what is going on!?"
165: 0x05A4 [0x23] WAIT_FOR_DIALOG_INTERACTION
166: 0x05A5 [0x52] END_LOAD_SCHEDULER: End scheduler "s038" with entities [EventEntity, EventEntity], work=3*
167: 0x05B4 [0x45] LOAD_SCHEDULED_TASK: Load scheduler "s039" with entities [EventEntity, EventEntity], work=[3*, 0*]
168: 0x05C5 [0x1C] WAIT(60* ticks)
169: 0x05C8 [0x4B] UPDATE_ENTITY_YAW(entity=LocalPlayer, yaw=354.4°*)
170: 0x05CF [0x1C] WAIT(240* ticks)
171: 0x05D2 [0x5D] SET_MUSIC_VOLUME(volume=0*, fade_time=90*)
172: 0x05D7 [0x45] LOAD_SCHEDULED_TASK: Load scheduler "who1" with entities [EventEntity, EventEntity], work=[201*, 0*]
173: 0x05E8 [0x55] WAIT_LOAD_SCHEDULER: Wait for scheduler "who1" with entities [EventEntity, EventEntity], work=201*
174: 0x05F7 [0x2C] CREATE_SCHEDULER_TASK: Create scheduler "kill" with entities [Shattered Telepoint (ID: 17257044/0x01075254), EventEntity]
175: 0x0604 [0x02] IF !(Work_Zone[2] == 1*) GOTO 0x0624
176: 0x060C [0x30] SET_UCOFF_CONTINUE_ZERO()
177: 0x060D [0x45] LOAD_SCHEDULED_TASK: Load scheduler "fdo0" with entities [EventEntity, EventEntity], work=[200*, 0*]
178: 0x061E [0x1C] WAIT(30* ticks)
179: 0x0621 [0x01] GOTO 0x0626
180: 0x0624 [0x46] CAMERA_CONTROL: Restore default settings

SUBROUTINE_0626:
181: 0x0626 [0x5C] MUSIC_CONTROL: Set Idle (Day) music to song 0*
182: 0x062A [0x5C] MUSIC_CONTROL: Set Idle (Night) music to song 0*
183: 0x062E [0x45] LOAD_SCHEDULED_TASK: Load scheduler "whi1" with entities [EventEntity, EventEntity], work=[201*, 0*]
184: 0x063F [0x21] END_EVENT
185: 0x0640 [0x00] END_REQSTACK()
```

#### Data or dead code:

```
# Dead code (unreachable instructions):
     0x0078 [0x01] GOTO 0x007B
```

### Event 913

#### Metadata

| Field        | Value     |
|--------------|-----------|
| Entrypoint   | 0x0641    |
| Data Size    | 177 bytes |
| Instructions | 32        |

```
      00 01 02 03 04 05 06 07  08 09 0A 0B 0C 0D 0E 0F
      -- -- -- -- -- -- -- --  -- -- -- -- -- -- -- --
0640:    48 12 80 23 24 13 80  11 80 05 80 25 02 00 10   H..#$......%...
0650: 11 80 00 5F 06 03 01 10  14 80 21 00 01 5F 06 02  ..._......!.._..
0660: 04 10 05 80 00 6A 06 01  88 06 48 3B 80 23 24 3C  .....j....H;.#$<
0670: 80 11 80 05 80 25 02 00  10 11 80 00 88 06 03 01  .....%..........
0680: 10 14 80 21 00 01 88 06  42 43 00 43 01 2C 54 52  ...!....BC.C.,TR
0690: 07 01 F8 FF FF 7F 70 6B  30 31 1C 3D 80 45 3A 80  ......pk01.=.E:.
06A0: F8 FF FF 7F F8 FF FF 7F  77 68 6F 31 05 80 55 3A  ........who1..U:
06B0: 80 F8 FF FF 7F F8 FF FF  7F 77 68 6F 31 2C 54 52  .........who1,TR
06C0: 07 01 F8 FF FF 7F 6B 69  6C 6C 45 07 80 F8 FF FF  ......killE.....
06D0: 7F F8 FF FF 7F 66 64 6F  30 05 80 1C 20 80 30 45  .....fdo0... .0E
06E0: 3A 80 F8 FF FF 7F F8 FF  FF 7F 77 68 69 31 05 80  :.........whi1..
06F0: 21 00                                             !.              
```

#### Opcodes

```
  0: 0x0641 [0x48] [System] [7525*]:
    → "The telepoint has been shattered into a thousand pieces..."
  1: 0x0644 [0x23] WAIT_FOR_DIALOG_INTERACTION
  2: 0x0645 [0x24] CREATE_DIALOG(message_id=7526*, default_option=1*, option_flags=0*)
    → "Investigate further? [Yes./No.]"
  3: 0x064C [0x25] WAIT_DIALOG_SELECT()
  4: 0x064D [0x02] IF !(Work_Zone[0] == 1*) GOTO 0x065F
  5: 0x0655 [0x03] Work_Zone[1] = 1073741824*
  6: 0x065A [0x21] END_EVENT
  7: 0x065B [0x00] END_REQSTACK()

SUBROUTINE_065F:
  8: 0x065F [0x02] IF !(Work_Zone[4] == 0*) GOTO 0x066A
  9: 0x0667 [0x01] GOTO 0x0688
 10: 0x066A [0x48] [System] [7527*]:
    → "Have you made your preparations?"
 11: 0x066D [0x23] WAIT_FOR_DIALOG_INTERACTION
 12: 0x066E [0x24] CREATE_DIALOG(message_id=7528*, default_option=1*, option_flags=0*)
    → "Preparations complete? [Yes./Not yet.]"
 13: 0x0675 [0x25] WAIT_DIALOG_SELECT()
 14: 0x0676 [0x02] IF !(Work_Zone[0] == 1*) GOTO 0x0688
 15: 0x067E [0x03] Work_Zone[1] = 1073741824*
 16: 0x0683 [0x21] END_EVENT
 17: 0x0684 [0x00] END_REQSTACK()

SUBROUTINE_0688:
 18: 0x0688 [0x42] SET_CLI_EVENT_CANCEL_DATA()
 19: 0x0689 [0x43] SEND_EVENT_UPDATE: Send pending tag to server (packet 0x005B)
 20: 0x068B [0x43] SEND_EVENT_UPDATE: Check pending flag (skip if not pending)
 21: 0x068D [0x2C] CREATE_SCHEDULER_TASK: Create scheduler "pk01" with entities [Shattered Telepoint (ID: 17257044/0x01075254), EventEntity]
 22: 0x069A [0x1C] WAIT(180* ticks)
 23: 0x069D [0x45] LOAD_SCHEDULED_TASK: Load scheduler "who1" with entities [EventEntity, EventEntity], work=[201*, 0*]
 24: 0x06AE [0x55] WAIT_LOAD_SCHEDULER: Wait for scheduler "who1" with entities [EventEntity, EventEntity], work=201*
 25: 0x06BD [0x2C] CREATE_SCHEDULER_TASK: Create scheduler "kill" with entities [Shattered Telepoint (ID: 17257044/0x01075254), EventEntity]
 26: 0x06CA [0x45] LOAD_SCHEDULED_TASK: Load scheduler "fdo0" with entities [EventEntity, EventEntity], work=[200*, 0*]
 27: 0x06DB [0x1C] WAIT(30* ticks)
 28: 0x06DE [0x30] SET_UCOFF_CONTINUE_ZERO()
 29: 0x06DF [0x45] LOAD_SCHEDULED_TASK: Load scheduler "whi1" with entities [EventEntity, EventEntity], work=[201*, 0*]
 30: 0x06F0 [0x21] END_EVENT
 31: 0x06F1 [0x00] END_REQSTACK()
```

#### Data or dead code:

```
# Dead code (unreachable instructions):
     0x065C [0x01] GOTO 0x065F
# Dead code (unreachable instructions):
     0x0685 [0x01] GOTO 0x0688
```

### Event 915

#### Metadata

| Field        | Value     |
|--------------|-----------|
| Entrypoint   | 0x06F2    |
| Data Size    | 132 bytes |
| Instructions | 22        |

```
      00 01 02 03 04 05 06 07  08 09 0A 0B 0C 0D 0E 0F
      -- -- -- -- -- -- -- --  -- -- -- -- -- -- -- --
06F0:       48 3E 80 23 24 3F  80 11 80 05 80 25 02 00    H>.#$?.....%..
0700: 10 11 80 00 10 07 03 01  10 14 80 21 00 01 10 07  ...........!....
0710: 42 43 00 43 01 03 01 10  11 80 9F 40 80 F0 FF FF  BC.C.......@....
0720: 7F F0 FF FF 7F 6D 61 69  6E 05 80 1C 3D 80 45 3A  .....main...=.E:
0730: 80 F8 FF FF 7F F8 FF FF  7F 77 68 6F 31 05 80 55  .........who1..U
0740: 3A 80 F8 FF FF 7F F8 FF  FF 7F 77 68 6F 31 45 07  :.........who1E.
0750: 80 F8 FF FF 7F F8 FF FF  7F 66 64 6F 30 05 80 1C  .........fdo0...
0760: 20 80 30 45 3A 80 F8 FF  FF 7F F8 FF FF 7F 77 68   .0E:.........wh
0770: 69 31 05 80 21 00                                 i1..!.          
```

#### Opcodes

```
  0: 0x06F2 [0x48] [System] [7350*]:
    → "The telepoint has disappeared..."
  1: 0x06F5 [0x23] WAIT_FOR_DIALOG_INTERACTION
  2: 0x06F6 [0x24] CREATE_DIALOG(message_id=7351*, default_option=1*, option_flags=0*)
    → "Investigate the missing telepoint? [Let's see here.../Not right now.]"
  3: 0x06FD [0x25] WAIT_DIALOG_SELECT()
  4: 0x06FE [0x02] IF !(Work_Zone[0] == 1*) GOTO 0x0710
  5: 0x0706 [0x03] Work_Zone[1] = 1073741824*
  6: 0x070B [0x21] END_EVENT
  7: 0x070C [0x00] END_REQSTACK()

SUBROUTINE_0710:
  8: 0x0710 [0x42] SET_CLI_EVENT_CANCEL_DATA()
  9: 0x0711 [0x43] SEND_EVENT_UPDATE: Send pending tag to server (packet 0x005B)
 10: 0x0713 [0x43] SEND_EVENT_UPDATE: Check pending flag (skip if not pending)
 11: 0x0715 [0x03] Work_Zone[1] = 1*
 12: 0x071A [0x9F] LOAD_SCHEDULED_TASK_ALT: Load scheduler "main" with entities [LocalPlayer, LocalPlayer], work=[75*, 0*]
 13: 0x072B [0x1C] WAIT(180* ticks)
 14: 0x072E [0x45] LOAD_SCHEDULED_TASK: Load scheduler "who1" with entities [EventEntity, EventEntity], work=[201*, 0*]
 15: 0x073F [0x55] WAIT_LOAD_SCHEDULER: Wait for scheduler "who1" with entities [EventEntity, EventEntity], work=201*
 16: 0x074E [0x45] LOAD_SCHEDULED_TASK: Load scheduler "fdo0" with entities [EventEntity, EventEntity], work=[200*, 0*]
 17: 0x075F [0x1C] WAIT(30* ticks)
 18: 0x0762 [0x30] SET_UCOFF_CONTINUE_ZERO()
 19: 0x0763 [0x45] LOAD_SCHEDULED_TASK: Load scheduler "whi1" with entities [EventEntity, EventEntity], work=[201*, 0*]
 20: 0x0774 [0x21] END_EVENT
 21: 0x0775 [0x00] END_REQSTACK()
```

#### Data or dead code:

```
# Dead code (unreachable instructions):
     0x070D [0x01] GOTO 0x0710
```

### Event 925

#### Metadata

| Field        | Value     |
|--------------|-----------|
| Entrypoint   | 0x0776    |
| Data Size    | 182 bytes |
| Instructions | 33        |

```
      00 01 02 03 04 05 06 07  08 09 0A 0B 0C 0D 0E 0F
      -- -- -- -- -- -- -- --  -- -- -- -- -- -- -- --
0770:                   03 00  00 05 80 02 02 10 05 80        ..........
0780: 00 88 07 03 00 00 11 80  48 3E 80 23 24 41 80 23  ........H>.#$A.#
0790: 80 00 00 25 02 00 10 05  80 00 A9 07 42 43 00 43  ...%........BC.C
07A0: 01 03 01 10 11 80 01 D0  07 02 00 10 11 80 00 BE  ................
07B0: 07 42 43 00 43 01 03 01  10 23 80 01 D0 07 02 00  .BC.C....#......
07C0: 10 23 80 00 D0 07 03 01  10 14 80 21 00 01 D0 07  .#.........!....
07D0: 9F 40 80 F0 FF FF 7F F0  FF FF 7F 6D 61 69 6E 05  .@.........main.
07E0: 80 1C 3D 80 45 3A 80 F8  FF FF 7F F8 FF FF 7F 77  ..=.E:.........w
07F0: 68 6F 31 05 80 55 3A 80  F8 FF FF 7F F8 FF FF 7F  ho1..U:.........
0800: 77 68 6F 31 45 07 80 F8  FF FF 7F F8 FF FF 7F 66  who1E..........f
0810: 64 6F 30 05 80 1C 20 80  30 45 3A 80 F8 FF FF 7F  do0... .0E:.....
0820: F8 FF FF 7F 77 68 69 31  05 80 21 00              ....whi1..!.    
```

#### Opcodes

```
  0: 0x0776 [0x03] ExtData[1]->WorkLocal[0] = 0*
  1: 0x077B [0x02] IF !(Work_Zone[2] == 0*) GOTO 0x0788
  2: 0x0783 [0x03] ExtData[1]->WorkLocal[0] = 1*
  3: 0x0788 [0x48] [System] [7350*]:
    → "The telepoint has disappeared..."
  4: 0x078B [0x23] WAIT_FOR_DIALOG_INTERACTION
  5: 0x078C [0x24] CREATE_DIALOG(message_id=12133*, default_option=2*, option_flags=ExtData[1]->WorkLocal[0])
    → "Teleport to where? [Al'Taieu./The Empyreal Paradox./Nowhere.]"
  6: 0x0793 [0x25] WAIT_DIALOG_SELECT()
  7: 0x0794 [0x02] IF !(Work_Zone[0] == 0*) GOTO 0x07A9
  8: 0x079C [0x42] SET_CLI_EVENT_CANCEL_DATA()
  9: 0x079D [0x43] SEND_EVENT_UPDATE: Send pending tag to server (packet 0x005B)
 10: 0x079F [0x43] SEND_EVENT_UPDATE: Check pending flag (skip if not pending)
 11: 0x07A1 [0x03] Work_Zone[1] = 1*
 12: 0x07A6 [0x01] GOTO 0x07D0
 13: 0x07A9 [0x02] IF !(Work_Zone[0] == 1*) GOTO 0x07BE
 14: 0x07B1 [0x42] SET_CLI_EVENT_CANCEL_DATA()
 15: 0x07B2 [0x43] SEND_EVENT_UPDATE: Send pending tag to server (packet 0x005B)
 16: 0x07B4 [0x43] SEND_EVENT_UPDATE: Check pending flag (skip if not pending)
 17: 0x07B6 [0x03] Work_Zone[1] = 2*
 18: 0x07BB [0x01] GOTO 0x07D0
 19: 0x07BE [0x02] IF !(Work_Zone[0] == 2*) GOTO 0x07D0
 20: 0x07C6 [0x03] Work_Zone[1] = 1073741824*
 21: 0x07CB [0x21] END_EVENT
 22: 0x07CC [0x00] END_REQSTACK()

SUBROUTINE_07D0:
 23: 0x07D0 [0x9F] LOAD_SCHEDULED_TASK_ALT: Load scheduler "main" with entities [LocalPlayer, LocalPlayer], work=[75*, 0*]
 24: 0x07E1 [0x1C] WAIT(180* ticks)
 25: 0x07E4 [0x45] LOAD_SCHEDULED_TASK: Load scheduler "who1" with entities [EventEntity, EventEntity], work=[201*, 0*]
 26: 0x07F5 [0x55] WAIT_LOAD_SCHEDULER: Wait for scheduler "who1" with entities [EventEntity, EventEntity], work=201*
 27: 0x0804 [0x45] LOAD_SCHEDULED_TASK: Load scheduler "fdo0" with entities [EventEntity, EventEntity], work=[200*, 0*]
 28: 0x0815 [0x1C] WAIT(30* ticks)
 29: 0x0818 [0x30] SET_UCOFF_CONTINUE_ZERO()
 30: 0x0819 [0x45] LOAD_SCHEDULED_TASK: Load scheduler "whi1" with entities [EventEntity, EventEntity], work=[201*, 0*]
 31: 0x082A [0x21] END_EVENT
 32: 0x082B [0x00] END_REQSTACK()
```

#### Data or dead code:

```
# Dead code (unreachable instructions):
     0x07CD [0x01] GOTO 0x07D0
```

### Event 926

#### Metadata

| Field        | Value     |
|--------------|-----------|
| Entrypoint   | 0x082C    |
| Data Size    | 182 bytes |
| Instructions | 33        |

```
      00 01 02 03 04 05 06 07  08 09 0A 0B 0C 0D 0E 0F
      -- -- -- -- -- -- -- --  -- -- -- -- -- -- -- --
0820:                                      03 00 00 05              ....
0830: 80 02 02 10 05 80 00 3E  08 03 00 00 11 80 48 3E  .......>......H>
0840: 80 23 24 42 80 23 80 00  00 25 02 00 10 05 80 00  .#$B.#...%......
0850: 5F 08 42 43 00 43 01 03  01 10 11 80 01 86 08 02  _.BC.C..........
0860: 00 10 11 80 00 74 08 42  43 00 43 01 03 01 10 23  .....t.BC.C....#
0870: 80 01 86 08 02 00 10 23  80 00 86 08 03 01 10 14  .......#........
0880: 80 21 00 01 86 08 9F 40  80 F0 FF FF 7F F0 FF FF  .!.....@........
0890: 7F 6D 61 69 6E 05 80 1C  3D 80 45 3A 80 F8 FF FF  .main...=.E:....
08A0: 7F F8 FF FF 7F 77 68 6F  31 05 80 55 3A 80 F8 FF  .....who1..U:...
08B0: FF 7F F8 FF FF 7F 77 68  6F 31 45 07 80 F8 FF FF  ......who1E.....
08C0: 7F F8 FF FF 7F 66 64 6F  30 05 80 1C 20 80 30 45  .....fdo0... .0E
08D0: 3A 80 F8 FF FF 7F F8 FF  FF 7F 77 68 69 31 05 80  :.........whi1..
08E0: 21 00                                             !.              
```

#### Opcodes

```
  0: 0x082C [0x03] ExtData[1]->WorkLocal[0] = 0*
  1: 0x0831 [0x02] IF !(Work_Zone[2] == 0*) GOTO 0x083E
  2: 0x0839 [0x03] ExtData[1]->WorkLocal[0] = 1*
  3: 0x083E [0x48] [System] [7350*]:
    → "The telepoint has disappeared..."
  4: 0x0841 [0x23] WAIT_FOR_DIALOG_INTERACTION
  5: 0x0842 [0x24] CREATE_DIALOG(message_id=12134*, default_option=2*, option_flags=ExtData[1]->WorkLocal[0])
    → "Teleport to where? [Al'Taieu./Reisenjima./Nowhere.]"
  6: 0x0849 [0x25] WAIT_DIALOG_SELECT()
  7: 0x084A [0x02] IF !(Work_Zone[0] == 0*) GOTO 0x085F
  8: 0x0852 [0x42] SET_CLI_EVENT_CANCEL_DATA()
  9: 0x0853 [0x43] SEND_EVENT_UPDATE: Send pending tag to server (packet 0x005B)
 10: 0x0855 [0x43] SEND_EVENT_UPDATE: Check pending flag (skip if not pending)
 11: 0x0857 [0x03] Work_Zone[1] = 1*
 12: 0x085C [0x01] GOTO 0x0886
 13: 0x085F [0x02] IF !(Work_Zone[0] == 1*) GOTO 0x0874
 14: 0x0867 [0x42] SET_CLI_EVENT_CANCEL_DATA()
 15: 0x0868 [0x43] SEND_EVENT_UPDATE: Send pending tag to server (packet 0x005B)
 16: 0x086A [0x43] SEND_EVENT_UPDATE: Check pending flag (skip if not pending)
 17: 0x086C [0x03] Work_Zone[1] = 2*
 18: 0x0871 [0x01] GOTO 0x0886
 19: 0x0874 [0x02] IF !(Work_Zone[0] == 2*) GOTO 0x0886
 20: 0x087C [0x03] Work_Zone[1] = 1073741824*
 21: 0x0881 [0x21] END_EVENT
 22: 0x0882 [0x00] END_REQSTACK()

SUBROUTINE_0886:
 23: 0x0886 [0x9F] LOAD_SCHEDULED_TASK_ALT: Load scheduler "main" with entities [LocalPlayer, LocalPlayer], work=[75*, 0*]
 24: 0x0897 [0x1C] WAIT(180* ticks)
 25: 0x089A [0x45] LOAD_SCHEDULED_TASK: Load scheduler "who1" with entities [EventEntity, EventEntity], work=[201*, 0*]
 26: 0x08AB [0x55] WAIT_LOAD_SCHEDULER: Wait for scheduler "who1" with entities [EventEntity, EventEntity], work=201*
 27: 0x08BA [0x45] LOAD_SCHEDULED_TASK: Load scheduler "fdo0" with entities [EventEntity, EventEntity], work=[200*, 0*]
 28: 0x08CB [0x1C] WAIT(30* ticks)
 29: 0x08CE [0x30] SET_UCOFF_CONTINUE_ZERO()
 30: 0x08CF [0x45] LOAD_SCHEDULED_TASK: Load scheduler "whi1" with entities [EventEntity, EventEntity], work=[201*, 0*]
 31: 0x08E0 [0x21] END_EVENT
 32: 0x08E1 [0x00] END_REQSTACK()
```

#### Data or dead code:

```
# Dead code (unreachable instructions):
     0x0883 [0x01] GOTO 0x0886
```

### Event 918

#### Metadata

| Field        | Value     |
|--------------|-----------|
| Entrypoint   | 0x08E2    |
| Data Size    | 120 bytes |
| Instructions | 26        |

```
      00 01 02 03 04 05 06 07  08 09 0A 0B 0C 0D 0E 0F
      -- -- -- -- -- -- -- --  -- -- -- -- -- -- -- --
08E0:       48 43 80 23 48 44  80 23 48 45 80 23 24 46    HC.#HD.#HE.#$F
08F0: 80 11 80 05 80 25 02 00  10 11 80 00 08 09 03 01  .....%..........
0900: 10 14 80 21 00 01 08 09  24 47 80 11 80 05 80 25  ...!....$G.....%
0910: 02 00 10 11 80 00 22 09  03 01 10 14 80 21 00 01  ......"......!..
0920: 22 09 42 43 00 43 01 45  3A 80 F0 FF FF 7F F0 FF  ".BC.C.E:.......
0930: FF 7F 77 68 6F 31 05 80  55 3A 80 F0 FF FF 7F F0  ..who1..U:......
0940: FF FF 7F 77 68 6F 31 45  3A 80 F0 FF FF 7F F0 FF  ...who1E:.......
0950: FF 7F 77 68 69 31 05 80  21 00                    ..whi1..!.      
```

#### Opcodes

```
  0: 0x08E2 [0x48] [System] [7777*]:
    → "Your fate is currently entwined in the swirling mists of [Promyvion - Holla/Promyvion - Dem/Promyvion - Mea]."
  1: 0x08E5 [0x23] WAIT_FOR_DIALOG_INTERACTION
  2: 0x08E6 [0x48] [System] [7778*]:
    → "By sealing off a portion of your memory, your destiny within this realm of Promyvion can be altered."
  3: 0x08E9 [0x23] WAIT_FOR_DIALOG_INTERACTION
  4: 0x08EA [0x48] [System] [7779*]:
    → "This will allow you to return to the entrance of the crag, having forgotten all events regarding this place."
  5: 0x08ED [0x23] WAIT_FOR_DIALOG_INTERACTION
  6: 0x08EE [0x24] CREATE_DIALOG(message_id=7780*, default_option=1*, option_flags=0*)
    → "Seal off your memories? [Yes./No.]"
  7: 0x08F5 [0x25] WAIT_DIALOG_SELECT()
  8: 0x08F6 [0x02] IF !(Work_Zone[0] == 1*) GOTO 0x0908
  9: 0x08FE [0x03] Work_Zone[1] = 1073741824*
 10: 0x0903 [0x21] END_EVENT
 11: 0x0904 [0x00] END_REQSTACK()

SUBROUTINE_0908:
 12: 0x0908 [0x24] CREATE_DIALOG(message_id=7781*, default_option=1*, option_flags=0*)
    → "Are you sure? [Absolutely./No.]"
 13: 0x090F [0x25] WAIT_DIALOG_SELECT()
 14: 0x0910 [0x02] IF !(Work_Zone[0] == 1*) GOTO 0x0922
 15: 0x0918 [0x03] Work_Zone[1] = 1073741824*
 16: 0x091D [0x21] END_EVENT
 17: 0x091E [0x00] END_REQSTACK()

SUBROUTINE_0922:
 18: 0x0922 [0x42] SET_CLI_EVENT_CANCEL_DATA()
 19: 0x0923 [0x43] SEND_EVENT_UPDATE: Send pending tag to server (packet 0x005B)
 20: 0x0925 [0x43] SEND_EVENT_UPDATE: Check pending flag (skip if not pending)
 21: 0x0927 [0x45] LOAD_SCHEDULED_TASK: Load scheduler "who1" with entities [LocalPlayer, LocalPlayer], work=[201*, 0*]
 22: 0x0938 [0x55] WAIT_LOAD_SCHEDULER: Wait for scheduler "who1" with entities [LocalPlayer, LocalPlayer], work=201*
 23: 0x0947 [0x45] LOAD_SCHEDULED_TASK: Load scheduler "whi1" with entities [LocalPlayer, LocalPlayer], work=[201*, 0*]
 24: 0x0958 [0x21] END_EVENT
 25: 0x0959 [0x00] END_REQSTACK()
```

#### Data or dead code:

```
# Dead code (unreachable instructions):
     0x0905 [0x01] GOTO 0x0908
# Dead code (unreachable instructions):
     0x091F [0x01] GOTO 0x0922
```

### Event 65535.5

#### Metadata

| Field        | Value   |
|--------------|---------|
| Entrypoint   | 0x095A  |
| Data Size    | 6 bytes |
| Instructions | 2       |

```
      00 01 02 03 04 05 06 07  08 09 0A 0B 0C 0D 0E 0F
      -- -- -- -- -- -- -- --  -- -- -- -- -- -- -- --
0950:                                03 02 10 07 7F 00            ......
```

#### Opcodes

```
  0: 0x095A [0x03] Work_Zone[2] = Entity->Race
  1: 0x095F [0x00] END_REQSTACK()
```

### Event 65535.6

#### Metadata

| Field        | Value   |
|--------------|---------|
| Entrypoint   | 0x0960  |
| Data Size    | 6 bytes |
| Instructions | 2       |

```
      00 01 02 03 04 05 06 07  08 09 0A 0B 0C 0D 0E 0F
      -- -- -- -- -- -- -- --  -- -- -- -- -- -- -- --
0960: 03 02 10 0B 7F 00                                 ......          
```

#### Opcodes

```
  0: 0x0960 [0x03] Work_Zone[2] = (Entity->Render.Flags01 >> 25) & 1
  1: 0x0965 [0x00] END_REQSTACK()
```

### Event 65535.7

#### Metadata

| Field        | Value    |
|--------------|----------|
| Entrypoint   | 0x0966   |
| Data Size    | 37 bytes |
| Instructions | 5        |

```
      00 01 02 03 04 05 06 07  08 09 0A 0B 0C 0D 0E 0F
      -- -- -- -- -- -- -- --  -- -- -- -- -- -- -- --
0960:                   03 01  00 07 7F 1A B0 09 66 02        ........f.
0970: 00 F8 FF FF 7F F8 FF FF  7F 73 68 61 30 53 F8 FF  .........sha0S..
0980: FF 7F F8 FF FF 7F 73 68  61 30 00                 ......sha0.     
```

#### Opcodes

```
  0: 0x0966 [0x03] ExtData[1]->WorkLocal[1] = Entity->Race
  1: 0x096B [0x1A] CALL_SUBROUTINE(address=0x09B0)
  2: 0x096E [0x66] LOAD_EXT_SCHEDULER_MAIN: Load scheduler "sha0" with entities [EventEntity, EventEntity], work=ExtData[1]->WorkLocal[2]
  3: 0x097D [0x53] WAIT_SCHEDULER_TASK: Wait for scheduler "sha0" with entities [EventEntity, EventEntity]
  4: 0x098A [0x00] END_REQSTACK()
```

### Event 65535.8

#### Metadata

| Field        | Value     |
|--------------|-----------|
| Entrypoint   | 0x098B    |
| Data Size    | 185 bytes |
| Instructions | 13        |

```
      00 01 02 03 04 05 06 07  08 09 0A 0B 0C 0D 0E 0F
      -- -- -- -- -- -- -- --  -- -- -- -- -- -- -- --
0980:                                   03 01 00 07 7F             .....
0990: 1A B0 09 66 02 00 F8 FF  FF 7F F8 FF FF 7F 73 68  ...f..........sh
09A0: 61 31 53 F8 FF FF 7F F8  FF FF 7F 73 68 61 31 00  a1S........sha1.
09B0: 03 02 00 01 00 02 02 00  48 80 05 C5 09 08 02 00  ........H.......
09C0: 11 80 01 CA 09 08 02 00  23 80 14 02 00 49 80 07  ........#....I..
09D0: 02 00 4A 80 1B 03 02 00  01 00 02 02 00 48 80 05  ..J..........H..
09E0: EA 09 08 02 00 11 80 01  EF 09 08 02 00 23 80 14  .............#..
09F0: 02 00 49 80 07 02 00 4B  80 1B 03 02 00 01 00 02  ..I....K........
0A00: 02 00 48 80 05 0F 0A 08  02 00 11 80 01 14 0A 08  ..H.............
0A10: 02 00 23 80 14 02 00 49  80 07 02 00 4C 80 1B 03  ..#....I....L...
0A20: 02 00 01 00 02 02 00 48  80 05 34 0A 08 02 00 11  .......H..4.....
0A30: 80 01 39 0A 08 02 00 23  80 14 02 00 49 80 07 02  ..9....#....I...
0A40: 00 4D 80 1B                                       .M..            
```

#### Opcodes

```
  0: 0x098B [0x03] ExtData[1]->WorkLocal[1] = Entity->Race
  1: 0x0990 [0x1A] CALL_SUBROUTINE(address=0x09B0)
  2: 0x0993 [0x66] LOAD_EXT_SCHEDULER_MAIN: Load scheduler "sha1" with entities [EventEntity, EventEntity], work=ExtData[1]->WorkLocal[2]
  3: 0x09A2 [0x53] WAIT_SCHEDULER_TASK: Wait for scheduler "sha1" with entities [EventEntity, EventEntity]
  4: 0x09AF [0x00] END_REQSTACK()

SUBROUTINE_09B0:
  5: 0x09B0 [0x03] ExtData[1]->WorkLocal[2] = ExtData[1]->WorkLocal[1]
  6: 0x09B5 [0x02] IF !(ExtData[1]->WorkLocal[2] > 5*) GOTO 0x09C5
  7: 0x09BD [0x08] ExtData[1]->WorkLocal[2] -= 1*
  8: 0x09C2 [0x01] GOTO 0x09CA
  9: 0x09C5 [0x08] ExtData[1]->WorkLocal[2] -= 2*

SUBROUTINE_09CA:
 10: 0x09CA [0x14] ExtData[1]->WorkLocal[2] *= 10*
 11: 0x09CF [0x07] ExtData[1]->WorkLocal[2] += 9*
 12: 0x09D4 [0x1B] RETURN
```

#### Data or dead code:

```
# Dead code (unreachable instructions):
     0x09D5 [0x03] ExtData[1]->WorkLocal[2] = ExtData[1]->WorkLocal[1]
     0x09DA [0x02] IF !(ExtData[1]->WorkLocal[2] > 5*) GOTO 0x09EA
     0x09E2 [0x08] ExtData[1]->WorkLocal[2] -= 1*
     0x09E7 [0x01] GOTO 0x09EF
     0x09EA [0x08] ExtData[1]->WorkLocal[2] -= 2*
     0x09EF [0x14] ExtData[1]->WorkLocal[2] *= 10*
     0x09F4 [0x07] ExtData[1]->WorkLocal[2] += 70*
     0x09F9 [0x1B] RETURN
     0x09FA [0x03] ExtData[1]->WorkLocal[2] = ExtData[1]->WorkLocal[1]
     0x09FF [0x02] IF !(ExtData[1]->WorkLocal[2] > 5*) GOTO 0x0A0F
     0x0A07 [0x08] ExtData[1]->WorkLocal[2] -= 1*
     0x0A0C [0x01] GOTO 0x0A14
     0x0A0F [0x08] ExtData[1]->WorkLocal[2] -= 2*
     0x0A14 [0x14] ExtData[1]->WorkLocal[2] *= 10*
     0x0A19 [0x07] ExtData[1]->WorkLocal[2] += 140*
     0x0A1E [0x1B] RETURN
     0x0A1F [0x03] ExtData[1]->WorkLocal[2] = ExtData[1]->WorkLocal[1]
     0x0A24 [0x02] IF !(ExtData[1]->WorkLocal[2] > 5*) GOTO 0x0A34
     0x0A2C [0x08] ExtData[1]->WorkLocal[2] -= 1*
     0x0A31 [0x01] GOTO 0x0A39
     0x0A34 [0x08] ExtData[1]->WorkLocal[2] -= 2*
     0x0A39 [0x14] ExtData[1]->WorkLocal[2] *= 10*
     0x0A3E [0x07] ExtData[1]->WorkLocal[2] += 210*
     0x0A43 [0x1B] RETURN
```

### Event 65535.9

#### Metadata

| Field        | Value    |
|--------------|----------|
| Entrypoint   | 0x0A44   |
| Data Size    | 24 bytes |
| Instructions | 4        |

```
      00 01 02 03 04 05 06 07  08 09 0A 0B 0C 0D 0E 0F
      -- -- -- -- -- -- -- --  -- -- -- -- -- -- -- --
0A40:             03 01 00 07  7F 1A B0 09 66 02 00 F8      ........f...
0A50: FF FF 7F F8 FF FF 7F 74  6C 6B 30 00              .......tlk0.    
```

#### Opcodes

```
  0: 0x0A44 [0x03] ExtData[1]->WorkLocal[1] = Entity->Race
  1: 0x0A49 [0x1A] CALL_SUBROUTINE(address=0x09B0)
  2: 0x0A4C [0x66] LOAD_EXT_SCHEDULER_MAIN: Load scheduler "tlk0" with entities [EventEntity, EventEntity], work=ExtData[1]->WorkLocal[2]
  3: 0x0A5B [0x00] END_REQSTACK()
```

### Event 65535.10

#### Metadata

| Field        | Value    |
|--------------|----------|
| Entrypoint   | 0x0A5C   |
| Data Size    | 24 bytes |
| Instructions | 4        |

```
      00 01 02 03 04 05 06 07  08 09 0A 0B 0C 0D 0E 0F
      -- -- -- -- -- -- -- --  -- -- -- -- -- -- -- --
0A50:                                      03 01 00 07              ....
0A60: 7F 1A B0 09 66 02 00 F8  FF FF 7F F8 FF FF 7F 74  ....f..........t
0A70: 6C 6B 31 00                                       lk1.            
```

#### Opcodes

```
  0: 0x0A5C [0x03] ExtData[1]->WorkLocal[1] = Entity->Race
  1: 0x0A61 [0x1A] CALL_SUBROUTINE(address=0x09B0)
  2: 0x0A64 [0x66] LOAD_EXT_SCHEDULER_MAIN: Load scheduler "tlk1" with entities [EventEntity, EventEntity], work=ExtData[1]->WorkLocal[2]
  3: 0x0A73 [0x00] END_REQSTACK()
```

### Event 65535.11

#### Metadata

| Field        | Value    |
|--------------|----------|
| Entrypoint   | 0x0A74   |
| Data Size    | 37 bytes |
| Instructions | 5        |

```
      00 01 02 03 04 05 06 07  08 09 0A 0B 0C 0D 0E 0F
      -- -- -- -- -- -- -- --  -- -- -- -- -- -- -- --
0A70:             03 01 00 07  7F 1A B0 09 66 02 00 F8      ........f...
0A80: FF FF 7F F8 FF FF 7F 73  69 74 30 53 F8 FF FF 7F  .......sit0S....
0A90: F8 FF FF 7F 73 69 74 30  00                       ....sit0.       
```

#### Opcodes

```
  0: 0x0A74 [0x03] ExtData[1]->WorkLocal[1] = Entity->Race
  1: 0x0A79 [0x1A] CALL_SUBROUTINE(address=0x09B0)
  2: 0x0A7C [0x66] LOAD_EXT_SCHEDULER_MAIN: Load scheduler "sit0" with entities [EventEntity, EventEntity], work=ExtData[1]->WorkLocal[2]
  3: 0x0A8B [0x53] WAIT_SCHEDULER_TASK: Wait for scheduler "sit0" with entities [EventEntity, EventEntity]
  4: 0x0A98 [0x00] END_REQSTACK()
```

### Event 65535.12

#### Metadata

| Field        | Value    |
|--------------|----------|
| Entrypoint   | 0x0A99   |
| Data Size    | 37 bytes |
| Instructions | 5        |

```
      00 01 02 03 04 05 06 07  08 09 0A 0B 0C 0D 0E 0F
      -- -- -- -- -- -- -- --  -- -- -- -- -- -- -- --
0A90:                             03 01 00 07 7F 1A B0           .......
0AA0: 09 66 02 00 F8 FF FF 7F  F8 FF FF 7F 73 69 74 31  .f..........sit1
0AB0: 53 F8 FF FF 7F F8 FF FF  7F 73 69 74 31 00        S........sit1.  
```

#### Opcodes

```
  0: 0x0A99 [0x03] ExtData[1]->WorkLocal[1] = Entity->Race
  1: 0x0A9E [0x1A] CALL_SUBROUTINE(address=0x09B0)
  2: 0x0AA1 [0x66] LOAD_EXT_SCHEDULER_MAIN: Load scheduler "sit1" with entities [EventEntity, EventEntity], work=ExtData[1]->WorkLocal[2]
  3: 0x0AB0 [0x53] WAIT_SCHEDULER_TASK: Wait for scheduler "sit1" with entities [EventEntity, EventEntity]
  4: 0x0ABD [0x00] END_REQSTACK()
```

### Event 65535.13

#### Metadata

| Field        | Value    |
|--------------|----------|
| Entrypoint   | 0x0ABE   |
| Data Size    | 42 bytes |
| Instructions | 6        |

```
      00 01 02 03 04 05 06 07  08 09 0A 0B 0C 0D 0E 0F
      -- -- -- -- -- -- -- --  -- -- -- -- -- -- -- --
0AB0:                                            03 01                ..
0AC0: 00 07 7F 1A B0 09 66 02  00 F8 FF FF 7F F8 FF FF  ......f.........
0AD0: 7F 74 6C 6B 30 1C 08 80  66 02 00 F8 FF FF 7F F8  .tlk0...f.......
0AE0: FF FF 7F 74 6C 6B 31 00                           ...tlk1.        
```

#### Opcodes

```
  0: 0x0ABE [0x03] ExtData[1]->WorkLocal[1] = Entity->Race
  1: 0x0AC3 [0x1A] CALL_SUBROUTINE(address=0x09B0)
  2: 0x0AC6 [0x66] LOAD_EXT_SCHEDULER_MAIN: Load scheduler "tlk0" with entities [EventEntity, EventEntity], work=ExtData[1]->WorkLocal[2]
  3: 0x0AD5 [0x1C] WAIT(60* ticks)
  4: 0x0AD8 [0x66] LOAD_EXT_SCHEDULER_MAIN: Load scheduler "tlk1" with entities [EventEntity, EventEntity], work=ExtData[1]->WorkLocal[2]
  5: 0x0AE7 [0x00] END_REQSTACK()
```

### Event 65535.14

#### Metadata

| Field        | Value    |
|--------------|----------|
| Entrypoint   | 0x0AE8   |
| Data Size    | 22 bytes |
| Instructions | 6        |

```
      00 01 02 03 04 05 06 07  08 09 0A 0B 0C 0D 0E 0F
      -- -- -- -- -- -- -- --  -- -- -- -- -- -- -- --
0AE0:                          32 4E 80 1F 00 4F 80 50          2N...O.P
0AF0: 80 51 80 1F 01 1E AA 52  07 01 1C 20 80 00        .Q.....R... ..  
```

#### Opcodes

```
  0: 0x0AE8 [0x32] ExtData[1]->MainSpeed = 40* * 0.1
  1: 0x0AEB [0x1F] MOVE_ENTITY: EventEntity moves to X=-397.929*, Z=354.396*, Y=-19.099*
  2: 0x0AF3 [0x1F] MOVE_ENTITY: Update entity position (mode=1)
  3: 0x0AF5 [0x1E] EventEntity looks at Lion (ID: 17257130/0x010752AA) and starts talking
  4: 0x0AFA [0x1C] WAIT(30* ticks)
  5: 0x0AFD [0x00] END_REQSTACK()
```

### Event 65535.15

#### Metadata

| Field        | Value    |
|--------------|----------|
| Entrypoint   | 0x0AFE   |
| Data Size    | 14 bytes |
| Instructions | 4        |

```
      00 01 02 03 04 05 06 07  08 09 0A 0B 0C 0D 0E 0F
      -- -- -- -- -- -- -- --  -- -- -- -- -- -- -- --
0AF0:                                            32 4E                2N
0B00: 80 1F 00 52 80 53 80 51  80 1F 01 00              ...R.S.Q....    
```

#### Opcodes

```
  0: 0x0AFE [0x32] ExtData[1]->MainSpeed = 40* * 0.1
  1: 0x0B01 [0x1F] MOVE_ENTITY: EventEntity moves to X=-398.157*, Z=352.881*, Y=-19.099*
  2: 0x0B09 [0x1F] MOVE_ENTITY: Update entity position (mode=1)
  3: 0x0B0B [0x00] END_REQSTACK()
```

### Event 65535.16

#### Metadata

| Field        | Value   |
|--------------|---------|
| Entrypoint   | 0x0B0C  |
| Data Size    | 5 bytes |
| Instructions | 2       |

```
      00 01 02 03 04 05 06 07  08 09 0A 0B 0C 0D 0E 0F
      -- -- -- -- -- -- -- --  -- -- -- -- -- -- -- --
0B00:                                      B6 0F 54 80              ..T.
0B10: 00                                                .               
```

#### Opcodes

```
  0: 0x0B0C [0xB6] ENTITY_APPEARANCE_HANDLER(case=Model size, value=87*)
  1: 0x0B10 [0x00] END_REQSTACK()
```

### Event 65535.17

#### Metadata

| Field        | Value   |
|--------------|---------|
| Entrypoint   | 0x0B11  |
| Data Size    | 5 bytes |
| Instructions | 2       |

```
      00 01 02 03 04 05 06 07  08 09 0A 0B 0C 0D 0E 0F
      -- -- -- -- -- -- -- --  -- -- -- -- -- -- -- --
0B10:    B6 0F 55 80 00                                  ..U..          
```

#### Opcodes

```
  0: 0x0B11 [0xB6] ENTITY_APPEARANCE_HANDLER(case=Model size, value=93*)
  1: 0x0B15 [0x00] END_REQSTACK()
```

### Event 65535.18

#### Metadata

| Field        | Value   |
|--------------|---------|
| Entrypoint   | 0x0B16  |
| Data Size    | 5 bytes |
| Instructions | 2       |

```
      00 01 02 03 04 05 06 07  08 09 0A 0B 0C 0D 0E 0F
      -- -- -- -- -- -- -- --  -- -- -- -- -- -- -- --
0B10:                   B6 0F  56 80 00                       ..V..     
```

#### Opcodes

```
  0: 0x0B16 [0xB6] ENTITY_APPEARANCE_HANDLER(case=Model size, value=96*)
  1: 0x0B1A [0x00] END_REQSTACK()
```

### Event 65535.19

#### Metadata

| Field        | Value   |
|--------------|---------|
| Entrypoint   | 0x0B1B  |
| Data Size    | 5 bytes |
| Instructions | 2       |

```
      00 01 02 03 04 05 06 07  08 09 0A 0B 0C 0D 0E 0F
      -- -- -- -- -- -- -- --  -- -- -- -- -- -- -- --
0B10:                                   B6 0F 57 80 00             ..W..
```

#### Opcodes

```
  0: 0x0B1B [0xB6] ENTITY_APPEARANCE_HANDLER(case=Model size, value=100*)
  1: 0x0B1F [0x00] END_REQSTACK()
```

### Event 65535.20

#### Metadata

| Field        | Value    |
|--------------|----------|
| Entrypoint   | 0x0B20   |
| Data Size    | 22 bytes |
| Instructions | 6        |

```
      00 01 02 03 04 05 06 07  08 09 0A 0B 0C 0D 0E 0F
      -- -- -- -- -- -- -- --  -- -- -- -- -- -- -- --
0B20: 32 4E 80 1F 00 4F 80 50  80 51 80 1F 01 1E A9 52  2N...O.P.Q.....R
0B30: 07 01 1C 20 80 00                                 ... ..          
```

#### Opcodes

```
  0: 0x0B20 [0x32] ExtData[1]->MainSpeed = 40* * 0.1
  1: 0x0B23 [0x1F] MOVE_ENTITY: EventEntity moves to X=-397.929*, Z=354.396*, Y=-19.099*
  2: 0x0B2B [0x1F] MOVE_ENTITY: Update entity position (mode=1)
  3: 0x0B2D [0x1E] EventEntity looks at Iroha (ID: 17257129/0x010752A9) and starts talking
  4: 0x0B32 [0x1C] WAIT(30* ticks)
  5: 0x0B35 [0x00] END_REQSTACK()
```

### Event 65535.21

#### Metadata

| Field        | Value     |
|--------------|-----------|
| Entrypoint   | 0x0B36    |
| Data Size    | 345 bytes |
| Instructions | 33        |

```
      00 01 02 03 04 05 06 07  08 09 0A 0B 0C 0D 0E 0F
      -- -- -- -- -- -- -- --  -- -- -- -- -- -- -- --
0B30:                   02 87  7F 11 80 80 61 0B 5F 04        ......a._.
0B40: 58 80 F0 FF FF 7F F0 FF  FF 7F 6B 69 7A 6C 5F 03  X.........kizl_.
0B50: 59 80 AC 52 07 01 AC 52  07 01 68 6D 6C 6C 01 8E  Y..R...R..hmll..
0B60: 0C 02 87 7F 23 80 80 8C  0B 5F 04 5A 80 F0 FF FF  ....#...._.Z....
0B70: 7F F0 FF FF 7F 6B 69 7A  6C 5F 03 59 80 AC 52 07  .....kizl_.Y..R.
0B80: 01 AC 52 07 01 68 66 6C  6C 01 8E 0C 02 87 7F 1B  ..R..hfll.......
0B90: 80 80 B7 0B 5F 04 1A 80  F0 FF FF 7F F0 FF FF 7F  ...._...........
0BA0: 6B 69 7A 6C 5F 03 59 80  AC 52 07 01 AC 52 07 01  kizl_.Y..R...R..
0BB0: 65 6D 6C 6C 01 8E 0C 02  87 7F 5B 80 80 E2 0B 5F  emll......[...._
0BC0: 04 5C 80 F0 FF FF 7F F0  FF FF 7F 6B 69 7A 6C 5F  .\.........kizl_
0BD0: 03 59 80 AC 52 07 01 AC  52 07 01 65 66 6C 6C 01  .Y..R...R..efll.
0BE0: 8E 0C 02 87 7F 48 80 80  0D 0C 5F 04 5D 80 F0 FF  .....H...._.]...
0BF0: FF 7F F0 FF FF 7F 6B 69  7A 6C 5F 03 59 80 AC 52  ......kizl_.Y..R
0C00: 07 01 AC 52 07 01 74 6D  6C 6C 01 8E 0C 02 87 7F  ...R..tmll......
0C10: 5E 80 80 38 0C 5F 04 5D  80 F0 FF FF 7F F0 FF FF  ^..8._.]........
0C20: 7F 6B 69 7A 6C 5F 03 59  80 AC 52 07 01 AC 52 07  .kizl_.Y..R...R.
0C30: 01 74 6D 6C 6C 01 8E 0C  02 87 7F 5F 80 80 63 0C  .tmll......_..c.
0C40: 5F 04 60 80 F0 FF FF 7F  F0 FF FF 7F 6B 69 7A 6C  _.`.........kizl
0C50: 5F 03 59 80 AC 52 07 01  AC 52 07 01 6D 6D 6C 6C  _.Y..R...R..mmll
0C60: 01 8E 0C 02 87 7F 61 80  80 8E 0C 5F 04 3A 80 F0  ......a...._.:..
0C70: FF FF 7F F0 FF FF 7F 6B  69 7A 6C 5F 03 59 80 AC  .......kizl_.Y..
0C80: 52 07 01 AC 52 07 01 67  6D 6C 6C 01 8E 0C 00     R...R..gmll.... 
```

#### Opcodes

```
  0: 0x0B36 [0x02] IF !(LocalPlayer->Race == 1*) GOTO 0x0B61
  1: 0x0B3E [0x5F] MULTI_HANDLER_COMPLEX(mode=0x04 - Load ext scheduler (OpCode 0x5B mode 1), ref=141*, entity1=LocalPlayer, entity2=LocalPlayer, string="kizl")
  2: 0x0B4E [0x5F] MULTI_HANDLER_COMPLEX(mode=0x03 - Load ext scheduler (OpCode 0x5B mode 0), ref=3878*, entity1=Unnamed NPC (ID: 17257132/0x010752AC), entity2=Unnamed NPC (ID: 17257132/0x010752AC), string="hmll")
  3: 0x0B5E [0x01] GOTO 0x0C8E
  4: 0x0B61 [0x02] IF !(LocalPlayer->Race == 2*) GOTO 0x0B8C
  5: 0x0B69 [0x5F] MULTI_HANDLER_COMPLEX(mode=0x04 - Load ext scheduler (OpCode 0x5B mode 1), ref=151*, entity1=LocalPlayer, entity2=LocalPlayer, string="kizl")
  6: 0x0B79 [0x5F] MULTI_HANDLER_COMPLEX(mode=0x03 - Load ext scheduler (OpCode 0x5B mode 0), ref=3878*, entity1=Unnamed NPC (ID: 17257132/0x010752AC), entity2=Unnamed NPC (ID: 17257132/0x010752AC), string="hfll")
  7: 0x0B89 [0x01] GOTO 0x0C8E
  8: 0x0B8C [0x02] IF !(LocalPlayer->Race == 3*) GOTO 0x0BB7
  9: 0x0B94 [0x5F] MULTI_HANDLER_COMPLEX(mode=0x04 - Load ext scheduler (OpCode 0x5B mode 1), ref=161*, entity1=LocalPlayer, entity2=LocalPlayer, string="kizl")
 10: 0x0BA4 [0x5F] MULTI_HANDLER_COMPLEX(mode=0x03 - Load ext scheduler (OpCode 0x5B mode 0), ref=3878*, entity1=Unnamed NPC (ID: 17257132/0x010752AC), entity2=Unnamed NPC (ID: 17257132/0x010752AC), string="emll")
 11: 0x0BB4 [0x01] GOTO 0x0C8E
 12: 0x0BB7 [0x02] IF !(LocalPlayer->Race == 4*) GOTO 0x0BE2
 13: 0x0BBF [0x5F] MULTI_HANDLER_COMPLEX(mode=0x04 - Load ext scheduler (OpCode 0x5B mode 1), ref=171*, entity1=LocalPlayer, entity2=LocalPlayer, string="kizl")
 14: 0x0BCF [0x5F] MULTI_HANDLER_COMPLEX(mode=0x03 - Load ext scheduler (OpCode 0x5B mode 0), ref=3878*, entity1=Unnamed NPC (ID: 17257132/0x010752AC), entity2=Unnamed NPC (ID: 17257132/0x010752AC), string="efll")
 15: 0x0BDF [0x01] GOTO 0x0C8E
 16: 0x0BE2 [0x02] IF !(LocalPlayer->Race == 5*) GOTO 0x0C0D
 17: 0x0BEA [0x5F] MULTI_HANDLER_COMPLEX(mode=0x04 - Load ext scheduler (OpCode 0x5B mode 1), ref=181*, entity1=LocalPlayer, entity2=LocalPlayer, string="kizl")
 18: 0x0BFA [0x5F] MULTI_HANDLER_COMPLEX(mode=0x03 - Load ext scheduler (OpCode 0x5B mode 0), ref=3878*, entity1=Unnamed NPC (ID: 17257132/0x010752AC), entity2=Unnamed NPC (ID: 17257132/0x010752AC), string="tmll")
 19: 0x0C0A [0x01] GOTO 0x0C8E
 20: 0x0C0D [0x02] IF !(LocalPlayer->Race == 6*) GOTO 0x0C38
 21: 0x0C15 [0x5F] MULTI_HANDLER_COMPLEX(mode=0x04 - Load ext scheduler (OpCode 0x5B mode 1), ref=181*, entity1=LocalPlayer, entity2=LocalPlayer, string="kizl")
 22: 0x0C25 [0x5F] MULTI_HANDLER_COMPLEX(mode=0x03 - Load ext scheduler (OpCode 0x5B mode 0), ref=3878*, entity1=Unnamed NPC (ID: 17257132/0x010752AC), entity2=Unnamed NPC (ID: 17257132/0x010752AC), string="tmll")
 23: 0x0C35 [0x01] GOTO 0x0C8E
 24: 0x0C38 [0x02] IF !(LocalPlayer->Race == 7*) GOTO 0x0C63
 25: 0x0C40 [0x5F] MULTI_HANDLER_COMPLEX(mode=0x04 - Load ext scheduler (OpCode 0x5B mode 1), ref=191*, entity1=LocalPlayer, entity2=LocalPlayer, string="kizl")
 26: 0x0C50 [0x5F] MULTI_HANDLER_COMPLEX(mode=0x03 - Load ext scheduler (OpCode 0x5B mode 0), ref=3878*, entity1=Unnamed NPC (ID: 17257132/0x010752AC), entity2=Unnamed NPC (ID: 17257132/0x010752AC), string="mmll")
 27: 0x0C60 [0x01] GOTO 0x0C8E
 28: 0x0C63 [0x02] IF !(LocalPlayer->Race == 8*) GOTO 0x0C8E
 29: 0x0C6B [0x5F] MULTI_HANDLER_COMPLEX(mode=0x04 - Load ext scheduler (OpCode 0x5B mode 1), ref=201*, entity1=LocalPlayer, entity2=LocalPlayer, string="kizl")
 30: 0x0C7B [0x5F] MULTI_HANDLER_COMPLEX(mode=0x03 - Load ext scheduler (OpCode 0x5B mode 0), ref=3878*, entity1=Unnamed NPC (ID: 17257132/0x010752AC), entity2=Unnamed NPC (ID: 17257132/0x010752AC), string="gmll")
 31: 0x0C8B [0x01] GOTO 0x0C8E

SUBROUTINE_0C8E:
 32: 0x0C8E [0x00] END_REQSTACK()
```

### Event 65535.22

#### Metadata

| Field        | Value     |
|--------------|-----------|
| Entrypoint   | 0x0C8F    |
| Data Size    | 217 bytes |
| Instructions | 25        |

```
      00 01 02 03 04 05 06 07  08 09 0A 0B 0C 0D 0E 0F
      -- -- -- -- -- -- -- --  -- -- -- -- -- -- -- --
0C80:                                               02                 .
0C90: 87 7F 11 80 80 AA 0C 5F  04 58 80 F0 FF FF 7F F0  ......._.X......
0CA0: FF FF 7F 6B 69 7A 30 01  67 0D 02 87 7F 23 80 80  ...kiz0.g....#..
0CB0: C5 0C 5F 04 5A 80 F0 FF  FF 7F F0 FF FF 7F 6B 69  .._.Z.........ki
0CC0: 7A 30 01 67 0D 02 87 7F  1B 80 80 E0 0C 5F 04 1A  z0.g........._..
0CD0: 80 F0 FF FF 7F F0 FF FF  7F 6B 69 7A 30 01 67 0D  .........kiz0.g.
0CE0: 02 87 7F 5B 80 80 FB 0C  5F 04 5C 80 F0 FF FF 7F  ...[...._.\.....
0CF0: F0 FF FF 7F 6B 69 7A 30  01 67 0D 02 87 7F 48 80  ....kiz0.g....H.
0D00: 80 16 0D 5F 04 5D 80 F0  FF FF 7F F0 FF FF 7F 6B  ..._.].........k
0D10: 69 7A 30 01 67 0D 02 87  7F 5E 80 80 31 0D 5F 04  iz0.g....^..1._.
0D20: 5D 80 F0 FF FF 7F F0 FF  FF 7F 6B 69 7A 30 01 67  ].........kiz0.g
0D30: 0D 02 87 7F 5F 80 80 4C  0D 5F 04 60 80 F0 FF FF  ...._..L._.`....
0D40: 7F F0 FF FF 7F 6B 69 7A  30 01 67 0D 02 87 7F 61  .....kiz0.g....a
0D50: 80 80 67 0D 5F 04 3A 80  F0 FF FF 7F F0 FF FF 7F  ..g._.:.........
0D60: 6B 69 7A 30 01 67 0D 00                           kiz0.g..        
```

#### Opcodes

```
  0: 0x0C8F [0x02] IF !(LocalPlayer->Race == 1*) GOTO 0x0CAA
  1: 0x0C97 [0x5F] MULTI_HANDLER_COMPLEX(mode=0x04 - Load ext scheduler (OpCode 0x5B mode 1), ref=141*, entity1=LocalPlayer, entity2=LocalPlayer, string="kiz0")
  2: 0x0CA7 [0x01] GOTO 0x0D67
  3: 0x0CAA [0x02] IF !(LocalPlayer->Race == 2*) GOTO 0x0CC5
  4: 0x0CB2 [0x5F] MULTI_HANDLER_COMPLEX(mode=0x04 - Load ext scheduler (OpCode 0x5B mode 1), ref=151*, entity1=LocalPlayer, entity2=LocalPlayer, string="kiz0")
  5: 0x0CC2 [0x01] GOTO 0x0D67
  6: 0x0CC5 [0x02] IF !(LocalPlayer->Race == 3*) GOTO 0x0CE0
  7: 0x0CCD [0x5F] MULTI_HANDLER_COMPLEX(mode=0x04 - Load ext scheduler (OpCode 0x5B mode 1), ref=161*, entity1=LocalPlayer, entity2=LocalPlayer, string="kiz0")
  8: 0x0CDD [0x01] GOTO 0x0D67
  9: 0x0CE0 [0x02] IF !(LocalPlayer->Race == 4*) GOTO 0x0CFB
 10: 0x0CE8 [0x5F] MULTI_HANDLER_COMPLEX(mode=0x04 - Load ext scheduler (OpCode 0x5B mode 1), ref=171*, entity1=LocalPlayer, entity2=LocalPlayer, string="kiz0")
 11: 0x0CF8 [0x01] GOTO 0x0D67
 12: 0x0CFB [0x02] IF !(LocalPlayer->Race == 5*) GOTO 0x0D16
 13: 0x0D03 [0x5F] MULTI_HANDLER_COMPLEX(mode=0x04 - Load ext scheduler (OpCode 0x5B mode 1), ref=181*, entity1=LocalPlayer, entity2=LocalPlayer, string="kiz0")
 14: 0x0D13 [0x01] GOTO 0x0D67
 15: 0x0D16 [0x02] IF !(LocalPlayer->Race == 6*) GOTO 0x0D31
 16: 0x0D1E [0x5F] MULTI_HANDLER_COMPLEX(mode=0x04 - Load ext scheduler (OpCode 0x5B mode 1), ref=181*, entity1=LocalPlayer, entity2=LocalPlayer, string="kiz0")
 17: 0x0D2E [0x01] GOTO 0x0D67
 18: 0x0D31 [0x02] IF !(LocalPlayer->Race == 7*) GOTO 0x0D4C
 19: 0x0D39 [0x5F] MULTI_HANDLER_COMPLEX(mode=0x04 - Load ext scheduler (OpCode 0x5B mode 1), ref=191*, entity1=LocalPlayer, entity2=LocalPlayer, string="kiz0")
 20: 0x0D49 [0x01] GOTO 0x0D67
 21: 0x0D4C [0x02] IF !(LocalPlayer->Race == 8*) GOTO 0x0D67
 22: 0x0D54 [0x5F] MULTI_HANDLER_COMPLEX(mode=0x04 - Load ext scheduler (OpCode 0x5B mode 1), ref=201*, entity1=LocalPlayer, entity2=LocalPlayer, string="kiz0")
 23: 0x0D64 [0x01] GOTO 0x0D67

SUBROUTINE_0D67:
 24: 0x0D67 [0x00] END_REQSTACK()
```

### Event 65535.23

#### Metadata

| Field        | Value     |
|--------------|-----------|
| Entrypoint   | 0x0D68    |
| Data Size    | 345 bytes |
| Instructions | 33        |

```
      00 01 02 03 04 05 06 07  08 09 0A 0B 0C 0D 0E 0F
      -- -- -- -- -- -- -- --  -- -- -- -- -- -- -- --
0D60:                          02 87 7F 11 80 80 93 0D          ........
0D70: 5F 04 58 80 F0 FF FF 7F  F0 FF FF 7F 6B 69 7A 32  _.X.........kiz2
0D80: 5F 03 59 80 AC 52 07 01  AC 52 07 01 68 6D 6D 32  _.Y..R...R..hmm2
0D90: 01 C0 0E 02 87 7F 23 80  80 BE 0D 5F 04 5A 80 F0  ......#...._.Z..
0DA0: FF FF 7F F0 FF FF 7F 6B  69 7A 32 5F 03 59 80 AC  .......kiz2_.Y..
0DB0: 52 07 01 AC 52 07 01 68  66 6D 32 01 C0 0E 02 87  R...R..hfm2.....
0DC0: 7F 1B 80 80 E9 0D 5F 04  1A 80 F0 FF FF 7F F0 FF  ......_.........
0DD0: FF 7F 6B 69 7A 32 5F 03  59 80 AC 52 07 01 AC 52  ..kiz2_.Y..R...R
0DE0: 07 01 65 6D 6D 32 01 C0  0E 02 87 7F 5B 80 80 14  ..emm2......[...
0DF0: 0E 5F 04 5C 80 F0 FF FF  7F F0 FF FF 7F 6B 69 7A  ._.\.........kiz
0E00: 32 5F 03 59 80 AC 52 07  01 AC 52 07 01 65 66 6D  2_.Y..R...R..efm
0E10: 32 01 C0 0E 02 87 7F 48  80 80 3F 0E 5F 04 5D 80  2......H..?._.].
0E20: F0 FF FF 7F F0 FF FF 7F  6B 69 7A 32 5F 03 59 80  ........kiz2_.Y.
0E30: AC 52 07 01 AC 52 07 01  74 6D 61 32 01 C0 0E 02  .R...R..tma2....
0E40: 87 7F 5E 80 80 6A 0E 5F  04 5D 80 F0 FF FF 7F F0  ..^..j._.]......
0E50: FF FF 7F 6B 69 7A 32 5F  03 59 80 AC 52 07 01 AC  ...kiz2_.Y..R...
0E60: 52 07 01 74 6D 61 32 01  C0 0E 02 87 7F 5F 80 80  R..tma2......_..
0E70: 95 0E 5F 04 60 80 F0 FF  FF 7F F0 FF FF 7F 6B 69  .._.`.........ki
0E80: 7A 32 5F 03 59 80 AC 52  07 01 AC 52 07 01 6D 6D  z2_.Y..R...R..mm
0E90: 61 32 01 C0 0E 02 87 7F  61 80 80 C0 0E 5F 04 3A  a2......a...._.:
0EA0: 80 F0 FF FF 7F F0 FF FF  7F 6B 69 7A 32 5F 03 59  .........kiz2_.Y
0EB0: 80 AC 52 07 01 AC 52 07  01 67 6D 61 32 01 C0 0E  ..R...R..gma2...
0EC0: 00                                                .               
```

#### Opcodes

```
  0: 0x0D68 [0x02] IF !(LocalPlayer->Race == 1*) GOTO 0x0D93
  1: 0x0D70 [0x5F] MULTI_HANDLER_COMPLEX(mode=0x04 - Load ext scheduler (OpCode 0x5B mode 1), ref=141*, entity1=LocalPlayer, entity2=LocalPlayer, string="kiz2")
  2: 0x0D80 [0x5F] MULTI_HANDLER_COMPLEX(mode=0x03 - Load ext scheduler (OpCode 0x5B mode 0), ref=3878*, entity1=Unnamed NPC (ID: 17257132/0x010752AC), entity2=Unnamed NPC (ID: 17257132/0x010752AC), string="hmm2")
  3: 0x0D90 [0x01] GOTO 0x0EC0
  4: 0x0D93 [0x02] IF !(LocalPlayer->Race == 2*) GOTO 0x0DBE
  5: 0x0D9B [0x5F] MULTI_HANDLER_COMPLEX(mode=0x04 - Load ext scheduler (OpCode 0x5B mode 1), ref=151*, entity1=LocalPlayer, entity2=LocalPlayer, string="kiz2")
  6: 0x0DAB [0x5F] MULTI_HANDLER_COMPLEX(mode=0x03 - Load ext scheduler (OpCode 0x5B mode 0), ref=3878*, entity1=Unnamed NPC (ID: 17257132/0x010752AC), entity2=Unnamed NPC (ID: 17257132/0x010752AC), string="hfm2")
  7: 0x0DBB [0x01] GOTO 0x0EC0
  8: 0x0DBE [0x02] IF !(LocalPlayer->Race == 3*) GOTO 0x0DE9
  9: 0x0DC6 [0x5F] MULTI_HANDLER_COMPLEX(mode=0x04 - Load ext scheduler (OpCode 0x5B mode 1), ref=161*, entity1=LocalPlayer, entity2=LocalPlayer, string="kiz2")
 10: 0x0DD6 [0x5F] MULTI_HANDLER_COMPLEX(mode=0x03 - Load ext scheduler (OpCode 0x5B mode 0), ref=3878*, entity1=Unnamed NPC (ID: 17257132/0x010752AC), entity2=Unnamed NPC (ID: 17257132/0x010752AC), string="emm2")
 11: 0x0DE6 [0x01] GOTO 0x0EC0
 12: 0x0DE9 [0x02] IF !(LocalPlayer->Race == 4*) GOTO 0x0E14
 13: 0x0DF1 [0x5F] MULTI_HANDLER_COMPLEX(mode=0x04 - Load ext scheduler (OpCode 0x5B mode 1), ref=171*, entity1=LocalPlayer, entity2=LocalPlayer, string="kiz2")
 14: 0x0E01 [0x5F] MULTI_HANDLER_COMPLEX(mode=0x03 - Load ext scheduler (OpCode 0x5B mode 0), ref=3878*, entity1=Unnamed NPC (ID: 17257132/0x010752AC), entity2=Unnamed NPC (ID: 17257132/0x010752AC), string="efm2")
 15: 0x0E11 [0x01] GOTO 0x0EC0
 16: 0x0E14 [0x02] IF !(LocalPlayer->Race == 5*) GOTO 0x0E3F
 17: 0x0E1C [0x5F] MULTI_HANDLER_COMPLEX(mode=0x04 - Load ext scheduler (OpCode 0x5B mode 1), ref=181*, entity1=LocalPlayer, entity2=LocalPlayer, string="kiz2")
 18: 0x0E2C [0x5F] MULTI_HANDLER_COMPLEX(mode=0x03 - Load ext scheduler (OpCode 0x5B mode 0), ref=3878*, entity1=Unnamed NPC (ID: 17257132/0x010752AC), entity2=Unnamed NPC (ID: 17257132/0x010752AC), string="tma2")
 19: 0x0E3C [0x01] GOTO 0x0EC0
 20: 0x0E3F [0x02] IF !(LocalPlayer->Race == 6*) GOTO 0x0E6A
 21: 0x0E47 [0x5F] MULTI_HANDLER_COMPLEX(mode=0x04 - Load ext scheduler (OpCode 0x5B mode 1), ref=181*, entity1=LocalPlayer, entity2=LocalPlayer, string="kiz2")
 22: 0x0E57 [0x5F] MULTI_HANDLER_COMPLEX(mode=0x03 - Load ext scheduler (OpCode 0x5B mode 0), ref=3878*, entity1=Unnamed NPC (ID: 17257132/0x010752AC), entity2=Unnamed NPC (ID: 17257132/0x010752AC), string="tma2")
 23: 0x0E67 [0x01] GOTO 0x0EC0
 24: 0x0E6A [0x02] IF !(LocalPlayer->Race == 7*) GOTO 0x0E95
 25: 0x0E72 [0x5F] MULTI_HANDLER_COMPLEX(mode=0x04 - Load ext scheduler (OpCode 0x5B mode 1), ref=191*, entity1=LocalPlayer, entity2=LocalPlayer, string="kiz2")
 26: 0x0E82 [0x5F] MULTI_HANDLER_COMPLEX(mode=0x03 - Load ext scheduler (OpCode 0x5B mode 0), ref=3878*, entity1=Unnamed NPC (ID: 17257132/0x010752AC), entity2=Unnamed NPC (ID: 17257132/0x010752AC), string="mma2")
 27: 0x0E92 [0x01] GOTO 0x0EC0
 28: 0x0E95 [0x02] IF !(LocalPlayer->Race == 8*) GOTO 0x0EC0
 29: 0x0E9D [0x5F] MULTI_HANDLER_COMPLEX(mode=0x04 - Load ext scheduler (OpCode 0x5B mode 1), ref=201*, entity1=LocalPlayer, entity2=LocalPlayer, string="kiz2")
 30: 0x0EAD [0x5F] MULTI_HANDLER_COMPLEX(mode=0x03 - Load ext scheduler (OpCode 0x5B mode 0), ref=3878*, entity1=Unnamed NPC (ID: 17257132/0x010752AC), entity2=Unnamed NPC (ID: 17257132/0x010752AC), string="gma2")
 31: 0x0EBD [0x01] GOTO 0x0EC0

SUBROUTINE_0EC0:
 32: 0x0EC0 [0x00] END_REQSTACK()
```

### Event 65535.24

#### Metadata

| Field        | Value    |
|--------------|----------|
| Entrypoint   | 0x0EC1   |
| Data Size    | 14 bytes |
| Instructions | 4        |

```
      00 01 02 03 04 05 06 07  08 09 0A 0B 0C 0D 0E 0F
      -- -- -- -- -- -- -- --  -- -- -- -- -- -- -- --
0EC0:    32 1C 80 1F 00 62 80  63 80 64 80 1F 01 00      2....b.c.d.... 
```

#### Opcodes

```
  0: 0x0EC1 [0x32] ExtData[1]->MainSpeed = 13* * 0.1
  1: 0x0EC4 [0x1F] MOVE_ENTITY: EventEntity moves to X=421.213*, Z=-141.733*, Y=19.104*
  2: 0x0ECC [0x1F] MOVE_ENTITY: Update entity position (mode=1)
  3: 0x0ECE [0x00] END_REQSTACK()
```

### Event 65535.25

#### Metadata

| Field        | Value    |
|--------------|----------|
| Entrypoint   | 0x0ECF   |
| Data Size    | 14 bytes |
| Instructions | 4        |

```
      00 01 02 03 04 05 06 07  08 09 0A 0B 0C 0D 0E 0F
      -- -- -- -- -- -- -- --  -- -- -- -- -- -- -- --
0EC0:                                               32                 2
0ED0: 1C 80 1F 00 65 80 66 80  64 80 1F 01 00           ....e.f.d....   
```

#### Opcodes

```
  0: 0x0ECF [0x32] ExtData[1]->MainSpeed = 13* * 0.1
  1: 0x0ED2 [0x1F] MOVE_ENTITY: EventEntity moves to X=221.295*, Z=138.465*, Y=19.104*
  2: 0x0EDA [0x1F] MOVE_ENTITY: Update entity position (mode=1)
  3: 0x0EDC [0x00] END_REQSTACK()
```

### Event 65535.26

#### Metadata

| Field        | Value    |
|--------------|----------|
| Entrypoint   | 0x0EDD   |
| Data Size    | 14 bytes |
| Instructions | 4        |

```
      00 01 02 03 04 05 06 07  08 09 0A 0B 0C 0D 0E 0F
      -- -- -- -- -- -- -- --  -- -- -- -- -- -- -- --
0ED0:                                         32 1C 80               2..
0EE0: 1F 00 67 80 68 80 18 80  1F 01 00                 ..g.h......     
```

#### Opcodes

```
  0: 0x0EDD [0x32] ExtData[1]->MainSpeed = 13* * 0.1
  1: 0x0EE0 [0x1F] MOVE_ENTITY: EventEntity moves to X=261.155*, Z=341.288*, Y=35.150*
  2: 0x0EE8 [0x1F] MOVE_ENTITY: Update entity position (mode=1)
  3: 0x0EEA [0x00] END_REQSTACK()
```

### Event 65535.27

#### Metadata

| Field        | Value    |
|--------------|----------|
| Entrypoint   | 0x0EEB   |
| Data Size    | 47 bytes |
| Instructions | 7        |

```
      00 01 02 03 04 05 06 07  08 09 0A 0B 0C 0D 0E 0F
      -- -- -- -- -- -- -- --  -- -- -- -- -- -- -- --
0EE0:                                   03 01 00 07 7F             .....
0EF0: 1A FA 09 07 02 00 4A 80  66 02 00 F8 FF FF 7F F8  ......J.f.......
0F00: FF FF 7F 74 6C 6B 30 1C  2A 80 66 02 00 F8 FF FF  ...tlk0.*.f.....
0F10: 7F F8 FF FF 7F 74 6C 6B  31 00                    .....tlk1.      
```

#### Opcodes

```
  0: 0x0EEB [0x03] ExtData[1]->WorkLocal[1] = Entity->Race
  1: 0x0EF0 [0x1A] CALL_SUBROUTINE(address=0x09FA)
  2: 0x0EF3 [0x07] ExtData[1]->WorkLocal[2] += 9*
  3: 0x0EF8 [0x66] LOAD_EXT_SCHEDULER_MAIN: Load scheduler "tlk0" with entities [EventEntity, EventEntity], work=ExtData[1]->WorkLocal[2]
  4: 0x0F07 [0x1C] WAIT(120* ticks)
  5: 0x0F0A [0x66] LOAD_EXT_SCHEDULER_MAIN: Load scheduler "tlk1" with entities [EventEntity, EventEntity], work=ExtData[1]->WorkLocal[2]
  6: 0x0F19 [0x00] END_REQSTACK()
```

### Event 65535.28

#### Metadata

| Field        | Value    |
|--------------|----------|
| Entrypoint   | 0x0F1A   |
| Data Size    | 50 bytes |
| Instructions | 7        |

```
      00 01 02 03 04 05 06 07  08 09 0A 0B 0C 0D 0E 0F
      -- -- -- -- -- -- -- --  -- -- -- -- -- -- -- --
0F10:                                02 07 7F 11 80 00            ......
0F20: 34 0F 66 69 80 F8 FF FF  7F F8 FF FF 7F 74 68 6B  4.fi.........thk
0F30: 30 01 4B 0F 03 01 00 07  7F 1A B0 09 66 02 00 F8  0.K.........f...
0F40: FF FF 7F F8 FF FF 7F 74  68 6B 31 00              .......thk1.    
```

#### Opcodes

```
  0: 0x0F1A [0x02] IF !(Entity->Race == 1*) GOTO 0x0F34
  1: 0x0F22 [0x66] LOAD_EXT_SCHEDULER_MAIN: Load scheduler "thk0" with entities [EventEntity, EventEntity], work=149*
  2: 0x0F31 [0x01] GOTO 0x0F4B
  3: 0x0F34 [0x03] ExtData[1]->WorkLocal[1] = Entity->Race
  4: 0x0F39 [0x1A] CALL_SUBROUTINE(address=0x09B0)
  5: 0x0F3C [0x66] LOAD_EXT_SCHEDULER_MAIN: Load scheduler "thk1" with entities [EventEntity, EventEntity], work=ExtData[1]->WorkLocal[2]

SUBROUTINE_0F4B:
  6: 0x0F4B [0x00] END_REQSTACK()
```

### Event 65535.29

#### Metadata

| Field        | Value    |
|--------------|----------|
| Entrypoint   | 0x0F4C   |
| Data Size    | 50 bytes |
| Instructions | 7        |

```
      00 01 02 03 04 05 06 07  08 09 0A 0B 0C 0D 0E 0F
      -- -- -- -- -- -- -- --  -- -- -- -- -- -- -- --
0F40:                                      02 07 7F 11              ....
0F50: 80 00 66 0F 66 69 80 F8  FF FF 7F F8 FF FF 7F 74  ..f.fi.........t
0F60: 68 6B 31 01 7D 0F 03 01  00 07 7F 1A B0 09 66 02  hk1.}.........f.
0F70: 00 F8 FF FF 7F F8 FF FF  7F 74 68 6B 32 00        .........thk2.  
```

#### Opcodes

```
  0: 0x0F4C [0x02] IF !(Entity->Race == 1*) GOTO 0x0F66
  1: 0x0F54 [0x66] LOAD_EXT_SCHEDULER_MAIN: Load scheduler "thk1" with entities [EventEntity, EventEntity], work=149*
  2: 0x0F63 [0x01] GOTO 0x0F7D
  3: 0x0F66 [0x03] ExtData[1]->WorkLocal[1] = Entity->Race
  4: 0x0F6B [0x1A] CALL_SUBROUTINE(address=0x09B0)
  5: 0x0F6E [0x66] LOAD_EXT_SCHEDULER_MAIN: Load scheduler "thk2" with entities [EventEntity, EventEntity], work=ExtData[1]->WorkLocal[2]

SUBROUTINE_0F7D:
  6: 0x0F7D [0x00] END_REQSTACK()
```

### Event 65535.30

#### Metadata

| Field        | Value    |
|--------------|----------|
| Entrypoint   | 0x0F7E   |
| Data Size    | 24 bytes |
| Instructions | 4        |

```
      00 01 02 03 04 05 06 07  08 09 0A 0B 0C 0D 0E 0F
      -- -- -- -- -- -- -- --  -- -- -- -- -- -- -- --
0F70:                                            03 01                ..
0F80: 00 07 7F 1A B0 09 66 02  00 F8 FF FF 7F F8 FF FF  ......f.........
0F90: 7F 73 68 61 30 00                                 .sha0.          
```

#### Opcodes

```
  0: 0x0F7E [0x03] ExtData[1]->WorkLocal[1] = Entity->Race
  1: 0x0F83 [0x1A] CALL_SUBROUTINE(address=0x09B0)
  2: 0x0F86 [0x66] LOAD_EXT_SCHEDULER_MAIN: Load scheduler "sha0" with entities [EventEntity, EventEntity], work=ExtData[1]->WorkLocal[2]
  3: 0x0F95 [0x00] END_REQSTACK()
```

### Event 65535.31

#### Metadata

| Field        | Value    |
|--------------|----------|
| Entrypoint   | 0x0F96   |
| Data Size    | 24 bytes |
| Instructions | 4        |

```
      00 01 02 03 04 05 06 07  08 09 0A 0B 0C 0D 0E 0F
      -- -- -- -- -- -- -- --  -- -- -- -- -- -- -- --
0F90:                   03 01  00 07 7F 1A B0 09 66 02        ........f.
0FA0: 00 F8 FF FF 7F F8 FF FF  7F 73 68 61 31 00        .........sha1.  
```

#### Opcodes

```
  0: 0x0F96 [0x03] ExtData[1]->WorkLocal[1] = Entity->Race
  1: 0x0F9B [0x1A] CALL_SUBROUTINE(address=0x09B0)
  2: 0x0F9E [0x66] LOAD_EXT_SCHEDULER_MAIN: Load scheduler "sha1" with entities [EventEntity, EventEntity], work=ExtData[1]->WorkLocal[2]
  3: 0x0FAD [0x00] END_REQSTACK()
```

### Event 65535.32

#### Metadata

| Field        | Value    |
|--------------|----------|
| Entrypoint   | 0x0FAE   |
| Data Size    | 24 bytes |
| Instructions | 4        |

```
      00 01 02 03 04 05 06 07  08 09 0A 0B 0C 0D 0E 0F
      -- -- -- -- -- -- -- --  -- -- -- -- -- -- -- --
0FA0:                                            03 01                ..
0FB0: 00 07 7F 1A B0 09 66 02  00 F8 FF FF 7F F8 FF FF  ......f.........
0FC0: 7F 73 69 72 30 00                                 .sir0.          
```

#### Opcodes

```
  0: 0x0FAE [0x03] ExtData[1]->WorkLocal[1] = Entity->Race
  1: 0x0FB3 [0x1A] CALL_SUBROUTINE(address=0x09B0)
  2: 0x0FB6 [0x66] LOAD_EXT_SCHEDULER_MAIN: Load scheduler "sir0" with entities [EventEntity, EventEntity], work=ExtData[1]->WorkLocal[2]
  3: 0x0FC5 [0x00] END_REQSTACK()
```

### Event 65535.33

#### Metadata

| Field        | Value    |
|--------------|----------|
| Entrypoint   | 0x0FC6   |
| Data Size    | 24 bytes |
| Instructions | 4        |

```
      00 01 02 03 04 05 06 07  08 09 0A 0B 0C 0D 0E 0F
      -- -- -- -- -- -- -- --  -- -- -- -- -- -- -- --
0FC0:                   03 01  00 07 7F 1A B0 09 66 02        ........f.
0FD0: 00 F8 FF FF 7F F8 FF FF  7F 73 69 72 31 00        .........sir1.  
```

#### Opcodes

```
  0: 0x0FC6 [0x03] ExtData[1]->WorkLocal[1] = Entity->Race
  1: 0x0FCB [0x1A] CALL_SUBROUTINE(address=0x09B0)
  2: 0x0FCE [0x66] LOAD_EXT_SCHEDULER_MAIN: Load scheduler "sir1" with entities [EventEntity, EventEntity], work=ExtData[1]->WorkLocal[2]
  3: 0x0FDD [0x00] END_REQSTACK()
```

### Event 65535.34

#### Metadata

| Field        | Value    |
|--------------|----------|
| Entrypoint   | 0x0FDE   |
| Data Size    | 14 bytes |
| Instructions | 4        |

```
      00 01 02 03 04 05 06 07  08 09 0A 0B 0C 0D 0E 0F
      -- -- -- -- -- -- -- --  -- -- -- -- -- -- -- --
0FD0:                                            32 1C                2.
0FE0: 80 1F 00 6A 80 6B 80 6C  80 1F 01 00              ...j.k.l....    
```

#### Opcodes

```
  0: 0x0FDE [0x32] ExtData[1]->MainSpeed = 13* * 0.1
  1: 0x0FE1 [0x1F] MOVE_ENTITY: EventEntity moves to X=89.580*, Z=333.400*, Y=40.230*
  2: 0x0FE9 [0x1F] MOVE_ENTITY: Update entity position (mode=1)
  3: 0x0FEB [0x00] END_REQSTACK()
```

### Event 65535.35

#### Metadata

| Field        | Value    |
|--------------|----------|
| Entrypoint   | 0x0FEC   |
| Data Size    | 14 bytes |
| Instructions | 4        |

```
      00 01 02 03 04 05 06 07  08 09 0A 0B 0C 0D 0E 0F
      -- -- -- -- -- -- -- --  -- -- -- -- -- -- -- --
0FE0:                                      32 1C 80 1F              2...
0FF0: 00 6D 80 6E 80 6F 80 1F  01 00                    .m.n.o....      
```

#### Opcodes

```
  0: 0x0FEC [0x32] ExtData[1]->MainSpeed = 13* * 0.1
  1: 0x0FEF [0x1F] MOVE_ENTITY: EventEntity moves to X=88.840*, Z=328.920*, Y=40.070*
  2: 0x0FF7 [0x1F] MOVE_ENTITY: Update entity position (mode=1)
  3: 0x0FF9 [0x00] END_REQSTACK()
```

### Event 916

#### Metadata

| Field        | Value     |
|--------------|-----------|
| Entrypoint   | 0x0FFA    |
| Data Size    | 135 bytes |
| Instructions | 9         |

```
      00 01 02 03 04 05 06 07  08 09 0A 0B 0C 0D 0E 0F
      -- -- -- -- -- -- -- --  -- -- -- -- -- -- -- --
0FF0:                                42 5D 05 80 08 80            B]....
1000: 02 05 10 05 80 00 11 10  A8 00 04 10 11 80 1C 70  ...............p
1010: 80 89 04 10 8B 04 10 05  10 02 10 03 10 3F 3F 3F  .............???
1020: 00 00 00 00 00 00 00 00  00 00 00 00 00 45 3A 80  .............E:.
1030: F8 FF FF 7F F8 FF FF 7F  63 68 63 6F 05 80 48 71  ........chco..Hq
1040: 80 23 02 06 10 11 80 00  5F 10 45 72 80 F8 FF FF  .#......_.Er....
1050: 7F F8 FF FF 7F 6E 61 6B  31 05 80 48 73 80 23 02  .....nak1..Hs.#.
1060: 07 10 74 80 00 7C 10 45  72 80 F8 FF FF 7F F8 FF  ..t..|.Er.......
1070: FF 7F 6E 61 6B 32 05 80  48 75 80 23 1C 11 80 21  ..nak2..Hu.#...!
1080: 00                                                .               
```

#### Opcodes

```
  0: 0x0FFA [0x42] SET_CLI_EVENT_CANCEL_DATA()
  1: 0x0FFB [0x5D] SET_MUSIC_VOLUME(volume=0*, fade_time=60*)
  2: 0x1000 [0x02] IF !(Work_Zone[5] == 0*) GOTO 0x1011
  3: 0x1008 [0xA8] MAP_MARKER_CONTROL: Reset/unlock markers (no map display), zone=Work_Zone[4], marker=1*
  4: 0x100E [0x1C] WAIT(15* ticks)
  5: 0x1011 [0x89] OPEN_MAP(map_id=0x00001004)
  6: 0x1014 [0x8B] SET_EVENT_MARK: Add/update map marker on map Work_Zone[4] at (Work_Zone[2], Work_Zone[3]), index=Work_Zone[5], name=(no name)
  7: 0x101D [0x3F] 0x3F3F = ExtData[1]->WorkLocal[0] % ExtData[1]->WorkLocal[0]
  8: 0x1024 [0x00] END_REQSTACK()
```

#### Data or dead code:

```
# Dead code (unreachable instructions):
     0x1025 [0x00] END_REQSTACK()
     0x1026 [0x00] END_REQSTACK()
     0x1027 [0x00] END_REQSTACK()
     0x1028 [0x00] END_REQSTACK()
     0x1029 [0x00] END_REQSTACK()
     0x102A [0x00] END_REQSTACK()
     0x102B [0x00] END_REQSTACK()
     0x102C [0x00] END_REQSTACK()
     0x102D [0x45] LOAD_SCHEDULED_TASK: Load scheduler "chco" with entities [EventEntity, EventEntity], work=[201*, 0*]
     0x103E [0x48] [System] [7736*]:
    → "There is treasure somewhere in the vicinity of this marker..."
     0x1041 [0x23] WAIT_FOR_DIALOG_INTERACTION
     0x1042 [0x02] IF !(Work_Zone[6] == 1*) GOTO 0x105F
     0x104A [0x45] LOAD_SCHEDULED_TASK: Load scheduler "nak1" with entities [EventEntity, EventEntity], work=[144*, 0*]
     0x105B [0x48] [System] [7748*]:
    → "Your chocobo seems especially sharp today!"
     0x105E [0x23] WAIT_FOR_DIALOG_INTERACTION
     0x105F [0x02] IF !(Work_Zone[7] == 99*) GOTO 0x107C
     0x1067 [0x45] LOAD_SCHEDULED_TASK: Load scheduler "nak2" with entities [EventEntity, EventEntity], work=[144*, 0*]
     0x1078 [0x48] [System] [7749*]:
    → "Your chocobo seems especially energetic today!"
     0x107B [0x23] WAIT_FOR_DIALOG_INTERACTION
     0x107C [0x1C] WAIT(1* ticks)
     0x107F [0x21] END_EVENT
     0x1080 [0x00] END_REQSTACK()
```
