# Event 65535

## Metadata

| Field           | Value    |
|-----------------|----------|
| Event Index     | 21/54    |
| Offset          | 0x00CC   |
| Data Size       | 51 bytes |
| Calculated Size | 51 bytes |
| Instructions    | 9        |

```
      00 01 02 03 04 05 06 07  08 09 0A 0B 0C 0D 0E 0F
      -- -- -- -- -- -- -- --  -- -- -- -- -- -- -- --
00C0:                                      32 0B 80 1F              2...
00D0: 00 0C 80 0D 80 0E 80 1F  01 6F 1C 0F 80 5B 10 80  .........o...[..
00E0: 55 83 08 01 55 83 08 01  6B 79 6F 30 1C 11 80 5B  U...U...kyo0...[
00F0: 10 80 55 83 08 01 55 83  08 01 6B 79 6F 31 00     ..U...U...kyo1. 
```

## Opcodes

```
  0: 0x00CC [0x32] ExtData[1]->MainSpeed = 10* * 0.1
  1: 0x00CF [0x1F] MOVE_ENTITY: EventEntity moves to X=61.859*, Z=-467.554*, Y=-0.189*
  2: 0x00D7 [0x1F] MOVE_ENTITY: Update entity position (mode=1)
  3: 0x00D9 [0x6F] WAIT_FRAME_DELAY: Yield until WaitTime reaches zero
  4: 0x00DA [0x1C] WAIT(90* ticks)
  5: 0x00DD [0x5B] LOAD_EXT_SCHEDULER(work_offset=2293*, entity1=Portia (ID: 17335125/0x01088355), entity2=Portia (ID: 17335125/0x01088355), action="kyo0")
  6: 0x00EC [0x1C] WAIT(180* ticks)
  7: 0x00EF [0x5B] LOAD_EXT_SCHEDULER(work_offset=2293*, entity1=Portia (ID: 17335125/0x01088355), entity2=Portia (ID: 17335125/0x01088355), action="kyo1")
  8: 0x00FE [0x00] END_REQSTACK()
```
