# Event 465

## Metadata

| Field           | Value    |
|-----------------|----------|
| Event Index     | 16/17    |
| Offset          | 0x010A   |
| Data Size       | 33 bytes |
| Calculated Size | 33 bytes |
| Instructions    | 12       |

```
      00 01 02 03 04 05 06 07  08 09 0A 0B 0C 0D 0E 0F
      -- -- -- -- -- -- -- --  -- -- -- -- -- -- -- --
0100:                                1E F0 FF FF 7F 6F            .....o
0110: 70 29 08 26 10 0F 01 01  1D 10 80 23 1D 11 80 23  p).&.......#...#
0120: 29 08 26 10 0F 01 07 20  00 21 00                 ).&.... .!.     
```

## Opcodes

```
  0: 0x010A [0x1E] EventEntity looks at LocalPlayer and starts talking
  1: 0x010F [0x6F] WAIT_FRAME_DELAY: Yield until WaitTime reaches zero
  2: 0x0110 [0x70] WAIT_ENTITY_RENDER_FLAG: Wait while EventEntity->Render.Flags3 bit 2 is set (cancel turn if not)
  3: 0x0111 [0x29] REQ_SET_WAIT(priority=0x08, entity_id=Catalia (ID: 17764390/0x010F1026), tag_num=0x01)
  4: 0x0118 [0x1D] PRINT_EVENT_MESSAGE(message_id=8629*)
    → "I would not try to deny the Tarutaru of this land from pursuing peace. It is just that I desire lasting peace, not the temporary fa\u0008gade that Windurst has now.\u007F1\u0000\u0007"
  5: 0x011B [0x23] WAIT_FOR_DIALOG_INTERACTION
  6: 0x011C [0x1D] PRINT_EVENT_MESSAGE(message_id=8630*)
    → "The apparent tranquility of this place can be considered an illusion born from idealism. Until we wake Windurst from its dream it will continue to be beyond help.\u007F1\u0000\u0007"
  7: 0x011F [0x23] WAIT_FOR_DIALOG_INTERACTION
  8: 0x0120 [0x29] REQ_SET_WAIT(priority=0x08, entity_id=Catalia (ID: 17764390/0x010F1026), tag_num=0x07)
  9: 0x0127 [0x20] SET_CLI_EVENT_UC_FLAG: Unlock player control
 10: 0x0129 [0x21] END_EVENT
 11: 0x012A [0x00] END_REQSTACK()
```
