# Event 133

## Metadata

| Field           | Value    |
|-----------------|----------|
| Event Index     | 7/7      |
| Offset          | 0x004C   |
| Data Size       | 60 bytes |
| Calculated Size | 60 bytes |
| Instructions    | 9        |

```
      00 01 02 03 04 05 06 07  08 09 0A 0B 0C 0D 0E 0F
      -- -- -- -- -- -- -- --  -- -- -- -- -- -- -- --
0040:                                      4E 00 71 F1              N.q.
0050: 0B 01 1E F0 FF FF 7F 36  00 80 01 80 02 80 45 03  .......6......E.
0060: 80 F0 FF FF 7F F0 FF FF  7F 67 62 64 61 04 80 45  .........gbda..E
0070: 05 80 F0 FF FF 7F F0 FF  FF 7F 66 64 69 31 04 80  ..........fdi1..
0080: 1C 07 80 1D 0B 80 23 00                           ......#.        
```

## Opcodes

```
  0: 0x004C [0x4E] SET_ENTITY_HIDE_FLAG: Show Saltvix (ID: 17559921/0x010BF171)
  1: 0x0052 [0x1E] EventEntity looks at LocalPlayer and starts talking
  2: 0x0057 [0x36] SET_ENTITY_EVENT_POSITION(pos_x=-367.518*, pos_z=229.140*, pos_y=3.043*)
  3: 0x005E [0x45] LOAD_SCHEDULED_TASK: Load scheduler "gbda" with entities [LocalPlayer, LocalPlayer], work=[94*, 0*]
  4: 0x006F [0x45] LOAD_SCHEDULED_TASK: Load scheduler "fdi1" with entities [LocalPlayer, LocalPlayer], work=[200*, 0*]
  5: 0x0080 [0x1C] WAIT(180* ticks)
  6: 0x0083 [0x1D] PRINT_EVENT_MESSAGE(message_id=7379*)
    → "You back? I told you, you no match for Dangruf brothers.\u007F1\u0000\u0007"
  7: 0x0086 [0x23] WAIT_FOR_DIALOG_INTERACTION
  8: 0x0087 [0x00] END_REQSTACK()
```
