# Event 65535

## Metadata

| Field           | Value    |
|-----------------|----------|
| Event Index     | 8/13     |
| Offset          | 0x0275   |
| Data Size       | 60 bytes |
| Calculated Size | 60 bytes |
| Instructions    | 14       |

```
      00 01 02 03 04 05 06 07  08 09 0A 0B 0C 0D 0E 0F
      -- -- -- -- -- -- -- --  -- -- -- -- -- -- -- --
0270:                24 1C 80  01 80 01 80 25 02 00 10       $......%...
0280: 01 80 00 8D 02 03 01 10  1D 80 01 AD 02 02 00 10  ................
0290: 02 80 00 9D 02 03 01 10  1E 80 01 AD 02 02 00 10  ................
02A0: 03 80 00 AD 02 03 01 10  1F 80 01 AD 02 20 00 21  ............. .!
02B0: 00                                                .               
```

## Opcodes

```
  0: 0x0275 [0x24] CREATE_DIALOG(message_id=7295*, default_option=0*, option_flags=0*)
    → "\u001228\u000Cn\u0007\u000B\u0001@
n\u0016{\u000Cn\u0007\u0003~\u0003b\u0003V\u0003\u0007\u0003\u0013\u000Cn\u0007\u0003]\u0001[\u0003\u0013\u0003t\u0003	\u0003O\u000Cn\u007F1\u0000\u0007"
  1: 0x027C [0x25] WAIT_DIALOG_SELECT()
  2: 0x027D [0x02] IF !(Work_Zone[0] == 0*) GOTO 0x028D
  3: 0x0285 [0x03] Work_Zone[1] = 96*
  4: 0x028A [0x01] GOTO 0x02AD

SUBROUTINE_028D:
  5: 0x028D [0x02] IF !(Work_Zone[0] == 1*) GOTO 0x029D
  6: 0x0295 [0x03] Work_Zone[1] = 97*
  7: 0x029A [0x01] GOTO 0x02AD

SUBROUTINE_029D:
  8: 0x029D [0x02] IF !(Work_Zone[0] == 2*) GOTO 0x02AD
  9: 0x02A5 [0x03] Work_Zone[1] = 98*
 10: 0x02AA [0x01] GOTO 0x02AD

SUBROUTINE_02AD:
 11: 0x02AD [0x20] SET_CLI_EVENT_UC_FLAG: Unlock player control
 12: 0x02AF [0x21] END_EVENT
 13: 0x02B0 [0x00] END_REQSTACK()
```
