# Event 10089

## Metadata

| Field           | Value    |
|-----------------|----------|
| Event Index     | 7/11     |
| Offset          | 0x0828   |
| Data Size       | 30 bytes |
| Calculated Size | 30 bytes |
| Instructions    | 10       |

```
      00 01 02 03 04 05 06 07  08 09 0A 0B 0C 0D 0E 0F
      -- -- -- -- -- -- -- --  -- -- -- -- -- -- -- --
0820:                          20 01 6E F8 FF FF 7F 11           .n.....
0830: 80 99 F8 FF FF 7F 1D 50  80 23 99 F8 FF FF 7F 1C  .......P.#......
0840: 02 80 20 00 21 00                                 .. .!.          
```

## Opcodes

```
  0: 0x0828 [0x20] SET_CLI_EVENT_UC_FLAG: Lock player control
  1: 0x082A [0x6E] EventEntity uses emote 4*
  2: 0x0831 [0x99] Wait for EventEntity animation to complete
  3: 0x0836 [0x1D] PRINT_EVENT_MESSAGE(message_id=7150*)
    → "Each step brings me closer to being reinstated to my post in the Imperial Court. Ahee hee hee...\u007F1\u0000\u0007"
  4: 0x0839 [0x23] WAIT_FOR_DIALOG_INTERACTION
  5: 0x083A [0x99] Wait for EventEntity animation to complete
  6: 0x083F [0x1C] WAIT(90* ticks)
  7: 0x0842 [0x20] SET_CLI_EVENT_UC_FLAG: Unlock player control
  8: 0x0844 [0x21] END_EVENT
  9: 0x0845 [0x00] END_REQSTACK()
```
