# Event 10090

## Metadata

| Field           | Value    |
|-----------------|----------|
| Event Index     | 8/11     |
| Offset          | 0x0846   |
| Data Size       | 37 bytes |
| Calculated Size | 37 bytes |
| Instructions    | 13       |

```
      00 01 02 03 04 05 06 07  08 09 0A 0B 0C 0D 0E 0F
      -- -- -- -- -- -- -- --  -- -- -- -- -- -- -- --
0840:                   20 01  1E F0 FF FF 7F 6F 70 6E         ......opn
0850: F8 FF FF 7F 44 80 99 F8  FF FF 7F 1D 45 80 23 99  ....D.......E.#.
0860: F8 FF FF 7F 1C 02 80 20  00 21 00                 ....... .!.     
```

## Opcodes

```
  0: 0x0846 [0x20] SET_CLI_EVENT_UC_FLAG: Lock player control
  1: 0x0848 [0x1E] EventEntity looks at LocalPlayer and starts talking
  2: 0x084D [0x6F] WAIT_FRAME_DELAY: Yield until WaitTime reaches zero
  3: 0x084E [0x70] WAIT_ENTITY_RENDER_FLAG: Wait while EventEntity->Render.Flags3 bit 2 is set (cancel turn if not)
  4: 0x084F [0x6E] EventEntity uses emote 25*
  5: 0x0856 [0x99] Wait for EventEntity animation to complete
  6: 0x085B [0x1D] PRINT_EVENT_MESSAGE(message_id=7134*)
    → "...\u0007You're no different from those fools who suspect me! G-g-get out of my sight!\u007F1\u0000\u0007"
  7: 0x085E [0x23] WAIT_FOR_DIALOG_INTERACTION
  8: 0x085F [0x99] Wait for EventEntity animation to complete
  9: 0x0864 [0x1C] WAIT(90* ticks)
 10: 0x0867 [0x20] SET_CLI_EVENT_UC_FLAG: Unlock player control
 11: 0x0869 [0x21] END_EVENT
 12: 0x086A [0x00] END_REQSTACK()
```
