# Event 10093

## Metadata

| Field           | Value    |
|-----------------|----------|
| Event Index     | 11/11    |
| Offset          | 0x08B5   |
| Data Size       | 37 bytes |
| Calculated Size | 37 bytes |
| Instructions    | 13       |

```
      00 01 02 03 04 05 06 07  08 09 0A 0B 0C 0D 0E 0F
      -- -- -- -- -- -- -- --  -- -- -- -- -- -- -- --
08B0:                20 01 1E  F0 FF FF 7F 6F 70 6E F8        ......opn.
08C0: FF FF 7F 4B 80 99 F8 FF  FF 7F 1D 54 80 23 99 F8  ...K.......T.#..
08D0: FF FF 7F 1C 02 80 20 00  21 00                    ...... .!.      
```

## Opcodes

```
  0: 0x08B5 [0x20] SET_CLI_EVENT_UC_FLAG: Lock player control
  1: 0x08B7 [0x1E] EventEntity looks at LocalPlayer and starts talking
  2: 0x08BC [0x6F] WAIT_FRAME_DELAY: Yield until WaitTime reaches zero
  3: 0x08BD [0x70] WAIT_ENTITY_RENDER_FLAG: Wait while EventEntity->Render.Flags3 bit 2 is set (cancel turn if not)
  4: 0x08BE [0x6E] EventEntity uses emote 36*
  5: 0x08C5 [0x99] Wait for EventEntity animation to complete
  6: 0x08CA [0x1D] PRINT_EVENT_MESSAGE(message_id=7147*)
    → "Goodness g-g-gracious me!\u0007The energy within is threatening to b-b-burst forth! It won't be long now, hee hee hee...\u007F1\u0000\u0007"
  7: 0x08CD [0x23] WAIT_FOR_DIALOG_INTERACTION
  8: 0x08CE [0x99] Wait for EventEntity animation to complete
  9: 0x08D3 [0x1C] WAIT(90* ticks)
 10: 0x08D6 [0x20] SET_CLI_EVENT_UC_FLAG: Unlock player control
 11: 0x08D8 [0x21] END_EVENT
 12: 0x08D9 [0x00] END_REQSTACK()
```
