# Event 10092

## Metadata

| Field           | Value    |
|-----------------|----------|
| Event Index     | 10/11    |
| Offset          | 0x0890   |
| Data Size       | 37 bytes |
| Calculated Size | 37 bytes |
| Instructions    | 13       |

```
      00 01 02 03 04 05 06 07  08 09 0A 0B 0C 0D 0E 0F
      -- -- -- -- -- -- -- --  -- -- -- -- -- -- -- --
0890: 20 01 1E F0 FF FF 7F 6F  70 6E F8 FF FF 7F 11 80   ......opn......
08A0: 99 F8 FF FF 7F 1D 53 80  23 99 F8 FF FF 7F 1C 02  ......S.#.......
08B0: 80 20 00 21 00                                    . .!.           
```

## Opcodes

```
  0: 0x0890 [0x20] SET_CLI_EVENT_UC_FLAG: Lock player control
  1: 0x0892 [0x1E] EventEntity looks at LocalPlayer and starts talking
  2: 0x0897 [0x6F] WAIT_FRAME_DELAY: Yield until WaitTime reaches zero
  3: 0x0898 [0x70] WAIT_ENTITY_RENDER_FLAG: Wait while EventEntity->Render.Flags3 bit 2 is set (cancel turn if not)
  4: 0x0899 [0x6E] EventEntity uses emote 4*
  5: 0x08A0 [0x99] Wait for EventEntity animation to complete
  6: 0x08A5 [0x1D] PRINT_EVENT_MESSAGE(message_id=7146*)
    → "Aaah, yes...\u0007I can feel a marked increase in energy compared to when I first held it. Keep up the good w-w-work, hee hee hee...\u007F1\u0000\u0007"
  7: 0x08A8 [0x23] WAIT_FOR_DIALOG_INTERACTION
  8: 0x08A9 [0x99] Wait for EventEntity animation to complete
  9: 0x08AE [0x1C] WAIT(90* ticks)
 10: 0x08B1 [0x20] SET_CLI_EVENT_UC_FLAG: Unlock player control
 11: 0x08B3 [0x21] END_EVENT
 12: 0x08B4 [0x00] END_REQSTACK()
```
