# Event 65535

## Metadata

| Field           | Value    |
|-----------------|----------|
| Event Index     | 16/46    |
| Offset          | 0x014B   |
| Data Size       | 69 bytes |
| Calculated Size | 69 bytes |
| Instructions    | 14       |

```
      00 01 02 03 04 05 06 07  08 09 0A 0B 0C 0D 0E 0F
      -- -- -- -- -- -- -- --  -- -- -- -- -- -- -- --
0140:                                   59 04 F8 FF FF             Y....
0150: 7F 2D 80 1F 00 39 80 3A  80 3B 80 1F 01 1F 00 3C  .-...9.:.;.....<
0160: 80 3D 80 3E 80 1F 01 1F  00 3F 80 40 80 41 80 1F  .=.>.....?.@.A..
0170: 01 1F 00 42 80 43 80 44  80 1F 01 1F 00 45 80 46  ...B.C.D.....E.F
0180: 80 47 80 1F 01 6F 4A F8  FF FF 7F 5A 93 08 01 00  .G...oJ....Z....
```

## Opcodes

```
  0: 0x014B [0x59] UPDATE_ENTITY_DATA: Set EventEntity main speed = 40* * 0.1
  1: 0x0153 [0x1F] MOVE_ENTITY: EventEntity moves to X=-150.301*, Z=-47.062*, Y=-23.954*
  2: 0x015B [0x1F] MOVE_ENTITY: Update entity position (mode=1)
  3: 0x015D [0x1F] MOVE_ENTITY: EventEntity moves to X=-157.922*, Z=-47.487*, Y=-23.827*
  4: 0x0165 [0x1F] MOVE_ENTITY: Update entity position (mode=1)
  5: 0x0167 [0x1F] MOVE_ENTITY: EventEntity moves to X=-163.236*, Z=-47.039*, Y=-23.843*
  6: 0x016F [0x1F] MOVE_ENTITY: Update entity position (mode=1)
  7: 0x0171 [0x1F] MOVE_ENTITY: EventEntity moves to X=-166.963*, Z=-44.616*, Y=-23.344*
  8: 0x0179 [0x1F] MOVE_ENTITY: Update entity position (mode=1)
  9: 0x017B [0x1F] MOVE_ENTITY: EventEntity moves to X=-168.534*, Z=-42.587*, Y=-23.021*
 10: 0x0183 [0x1F] MOVE_ENTITY: Update entity position (mode=1)
 11: 0x0185 [0x6F] WAIT_FRAME_DELAY: Yield until WaitTime reaches zero
 12: 0x0186 [0x4A] EventEntity looks at Ragelise (ID: 17339226/0x0108935A)
 13: 0x018F [0x00] END_REQSTACK()
```
