# Event 65535

## Metadata

| Field           | Value    |
|-----------------|----------|
| Event Index     | 17/46    |
| Offset          | 0x0190   |
| Data Size       | 44 bytes |
| Calculated Size | 44 bytes |
| Instructions    | 7        |

```
      00 01 02 03 04 05 06 07  08 09 0A 0B 0C 0D 0E 0F
      -- -- -- -- -- -- -- --  -- -- -- -- -- -- -- --
0190: 5B 37 80 56 93 08 01 56  93 08 01 66 63 30 30 59  [7.V...V...fc00Y
01A0: 04 F8 FF FF 7F 2D 80 1F  00 48 80 49 80 4A 80 1F  .....-...H.I.J..
01B0: 01 6F 4A F8 FF FF 7F 5A  93 08 01 00              .oJ....Z....    
```

## Opcodes

```
  0: 0x0190 [0x5B] LOAD_EXT_SCHEDULER(work_offset=2135*, entity1=Lilisette (ID: 17339222/0x01089356), entity2=Lilisette (ID: 17339222/0x01089356), action="fc00")
  1: 0x019F [0x59] UPDATE_ENTITY_DATA: Set EventEntity main speed = 40* * 0.1
  2: 0x01A7 [0x1F] MOVE_ENTITY: EventEntity moves to X=-163.153*, Z=-34.378*, Y=-23.923*
  3: 0x01AF [0x1F] MOVE_ENTITY: Update entity position (mode=1)
  4: 0x01B1 [0x6F] WAIT_FRAME_DELAY: Yield until WaitTime reaches zero
  5: 0x01B2 [0x4A] EventEntity looks at Ragelise (ID: 17339226/0x0108935A)
  6: 0x01BB [0x00] END_REQSTACK()
```
