# Event 65535

## Metadata

| Field           | Value    |
|-----------------|----------|
| Event Index     | 18/46    |
| Offset          | 0x01BC   |
| Data Size       | 55 bytes |
| Calculated Size | 55 bytes |
| Instructions    | 7        |

```
      00 01 02 03 04 05 06 07  08 09 0A 0B 0C 0D 0E 0F
      -- -- -- -- -- -- -- --  -- -- -- -- -- -- -- --
01B0:                                      5B 37 80 F8              [7..
01C0: FF FF 7F F8 FF FF 7F 66  63 30 31 1C 4B 80 5B 4C  .......fc01.K.[L
01D0: 80 F8 FF FF 7F F8 FF FF  7F 73 74 64 30 1C 4D 80  .........std0.M.
01E0: 5B 37 80 F8 FF FF 7F F8  FF FF 7F 66 63 30 30 1C  [7.........fc00.
01F0: 4E 80 00                                          N..             
```

## Opcodes

```
  0: 0x01BC [0x5B] LOAD_EXT_SCHEDULER(work_offset=2135*, entity1=EventEntity, entity2=EventEntity, action="fc01")
  1: 0x01CB [0x1C] WAIT(5* ticks)
  2: 0x01CE [0x5B] LOAD_EXT_SCHEDULER(work_offset=2247*, entity1=EventEntity, entity2=EventEntity, action="std0")
  3: 0x01DD [0x1C] WAIT(120* ticks)
  4: 0x01E0 [0x5B] LOAD_EXT_SCHEDULER(work_offset=2135*, entity1=EventEntity, entity2=EventEntity, action="fc00")
  5: 0x01EF [0x1C] WAIT(60* ticks)
  6: 0x01F2 [0x00] END_REQSTACK()
```
