# Event 65535

## Metadata

| Field           | Value     |
|-----------------|-----------|
| Event Index     | 14/42     |
| Offset          | 0x00C6    |
| Data Size       | 155 bytes |
| Calculated Size | 155 bytes |
| Instructions    | 3         |

```
      00 01 02 03 04 05 06 07  08 09 0A 0B 0C 0D 0E 0F
      -- -- -- -- -- -- -- --  -- -- -- -- -- -- -- --
00C0:                   AC 01  00 80 AB 04 00 03 01 00        ..........
00D0: 00 00 02 01 00 15 80 05  E2 00 08 01 00 14 80 01  ................
00E0: E7 00 08 01 00 16 80 14  01 00 17 80 07 01 00 18  ................
00F0: 80 1B 03 01 00 00 00 02  01 00 15 80 05 07 01 08  ................
0100: 01 00 14 80 01 0C 01 08  01 00 16 80 14 01 00 17  ................
0110: 80 07 01 00 19 80 1B 03  01 00 00 00 02 01 00 15  ................
0120: 80 05 2C 01 08 01 00 14  80 01 31 01 08 01 00 16  ..,.......1.....
0130: 80 14 01 00 17 80 07 01  00 1A 80 1B 03 01 00 00  ................
0140: 00 02 01 00 15 80 05 51  01 08 01 00 14 80 01 56  .......Q.......V
0150: 01 08 01 00 16 80 14 01  00 17 80 07 01 00 1B 80  ................
0160: 1B                                                .               
```

## Opcodes

```
  0: 0x00C6 [0xAC] EventEntity->StatusEvent = 0*
  1: 0x00CA [0xAB] EventEntity->Render.Flags0 |= 0x40000 // Set bit 18
  2: 0x00CC [0x00] END_REQSTACK()
```

## Data or dead code:

```
# Dead code (unreachable instructions):
     0x00CD [0x03] ExtData[1]->WorkLocal[1] = ExtData[1]->WorkLocal[0]
     0x00D2 [0x02] IF !(ExtData[1]->WorkLocal[1] > 5*) GOTO 0x00E2
     0x00DA [0x08] ExtData[1]->WorkLocal[1] -= 1*
     0x00DF [0x01] GOTO 0x00E7
     0x00E2 [0x08] ExtData[1]->WorkLocal[1] -= 2*
     0x00E7 [0x14] ExtData[1]->WorkLocal[1] *= 10*
     0x00EC [0x07] ExtData[1]->WorkLocal[1] += 9*
     0x00F1 [0x1B] RETURN
     0x00F2 [0x03] ExtData[1]->WorkLocal[1] = ExtData[1]->WorkLocal[0]
     0x00F7 [0x02] IF !(ExtData[1]->WorkLocal[1] > 5*) GOTO 0x0107
     0x00FF [0x08] ExtData[1]->WorkLocal[1] -= 1*
     0x0104 [0x01] GOTO 0x010C
     0x0107 [0x08] ExtData[1]->WorkLocal[1] -= 2*
     0x010C [0x14] ExtData[1]->WorkLocal[1] *= 10*
     0x0111 [0x07] ExtData[1]->WorkLocal[1] += 70*
     0x0116 [0x1B] RETURN
     0x0117 [0x03] ExtData[1]->WorkLocal[1] = ExtData[1]->WorkLocal[0]
     0x011C [0x02] IF !(ExtData[1]->WorkLocal[1] > 5*) GOTO 0x012C
     0x0124 [0x08] ExtData[1]->WorkLocal[1] -= 1*
     0x0129 [0x01] GOTO 0x0131
     0x012C [0x08] ExtData[1]->WorkLocal[1] -= 2*
     0x0131 [0x14] ExtData[1]->WorkLocal[1] *= 10*
     0x0136 [0x07] ExtData[1]->WorkLocal[1] += 140*
     0x013B [0x1B] RETURN
     0x013C [0x03] ExtData[1]->WorkLocal[1] = ExtData[1]->WorkLocal[0]
     0x0141 [0x02] IF !(ExtData[1]->WorkLocal[1] > 5*) GOTO 0x0151
     0x0149 [0x08] ExtData[1]->WorkLocal[1] -= 1*
     0x014E [0x01] GOTO 0x0156
     0x0151 [0x08] ExtData[1]->WorkLocal[1] -= 2*
     0x0156 [0x14] ExtData[1]->WorkLocal[1] *= 10*
     0x015B [0x07] ExtData[1]->WorkLocal[1] += 210*
     0x0160 [0x1B] RETURN
```