# Event 65535

## Metadata

| Field           | Value     |
|-----------------|-----------|
| Event Index     | 14/42     |
| Offset          | 0x00C6    |
| Data Size       | 155 bytes |
| Calculated Size | 155 bytes |
| Instructions    | 4         |

```
      00 01 02 03 04 05 06 07  08 09 0A 0B 0C 0D 0E 0F
      -- -- -- -- -- -- -- --  -- -- -- -- -- -- -- --
00C0:                   AC 01  00 80 AB 04 00 03 01 00        ..........
00D0: 00 00 02 01 00 15 80 05  E2 00 08 01 00 14 80 01  ................
00E0: E7 00 08 01 00 16 80 14  01 00 17 80 07 01 00 18  ................
00F0: 80 1B 03 01 00 00 00 02  01 00 15 80 05 07 01 08  ................
0100: 01 00 14 80 01 0C 01 08  01 00 16 80 14 01 00 17  ................
0110: 80 07 01 00 19 80 1B 03  01 00 00 00 02 01 00 15  ................
0120: 80 05 2C 01 08 01 00 14  80 01 31 01 08 01 00 16  ..,.......1.....
0130: 80 14 01 00 17 80 07 01  00 1A 80 1B 03 01 00 00  ................
0140: 00 02 01 00 15 80 05 51  01 08 01 00 14 80 01 56  .......Q.......V
0150: 01 08 01 00 16 80 14 01  00 17 80 07 01 00 1B 80  ................
0160: 1B                                                .               
```

## Opcodes

```
  0: 0x00C6 [0xAC] EventEntity->StatusEvent = 0*
  1: 0x00CA [0xAB] EventEntity->Render.Flags0 |= 0x40000 // Set bit 18
  2: 0x00CC [0x00] END_REQSTACK()
```

## Data or dead code:

```
# Data Section: 0x00CD (148 bytes)
     0x00CD: 03 01 00 00 00 02 01 00 15 80 05 E2 00 08 01 00
     0x00DD: 14 80 01 E7 00 08 01 00 16 80 14 01 00 17 80 07
     0x00ED: 01 00 18 80 1B 03 01 00 00 00 02 01 00 15 80 05
     0x00FD: 07 01 08 01 00 14 80 01 0C 01 08 01 00 16 80 14
     0x010D: 01 00 17 80 07 01 00 19 80 1B 03 01 00 00 00 02
     0x011D: 01 00 15 80 05 2C 01 08 01 00 14 80 01 31 01 08
     0x012D: 01 00 16 80 14 01 00 17 80 07 01 00 1A 80 1B 03
     0x013D: 01 00 00 00 02 01 00 15 80 05 51 01 08 01 00 14
     0x014D: 80 01 56 01 08 01 00 16 80 14 01 00 17 80 07 01
     0x015D: 00 1B 80 1B
```