# Event 18

## Metadata

| Field           | Value    |
|-----------------|----------|
| Event Index     | 6/16     |
| Offset          | 0x012B   |
| Data Size       | 43 bytes |
| Calculated Size | 43 bytes |
| Instructions    | 9        |

```
      00 01 02 03 04 05 06 07  08 09 0A 0B 0C 0D 0E 0F
      -- -- -- -- -- -- -- --  -- -- -- -- -- -- -- --
0120:                                   1E F0 FF FF 7F             .....
0130: 6F 70 66 00 80 F8 FF FF  7F F8 FF FF 7F 74 6C 62  opf..........tlb
0140: 30 1D 13 80 23 66 00 80  F8 FF FF 7F F8 FF FF 7F  0...#f..........
0150: 74 6C 62 31 21 00                                 tlb1!.          
```

## Opcodes

```
  0: 0x012B [0x1E] EventEntity looks at LocalPlayer and starts talking
  1: 0x0130 [0x6F] WAIT_FRAME_DELAY: Yield until WaitTime reaches zero
  2: 0x0131 [0x70] WAIT_ENTITY_RENDER_FLAG: Wait while EventEntity->Render.Flags3 bit 2 is set (cancel turn if not)
  3: 0x0132 [0x66] LOAD_EXT_SCHEDULER_MAIN: Load scheduler "tlb0" with entities [EventEntity, EventEntity], work=68*
  4: 0x0141 [0x1D] PRINT_EVENT_MESSAGE(message_id=7656*)
    → "I need you to confirm how accurrrate our information about all the Twelve Orders is.\u0007Report to me when you're done.\u007F1\u0000\u0007"
  5: 0x0144 [0x23] WAIT_FOR_DIALOG_INTERACTION
  6: 0x0145 [0x66] LOAD_EXT_SCHEDULER_MAIN: Load scheduler "tlb1" with entities [EventEntity, EventEntity], work=68*
  7: 0x0154 [0x21] END_EVENT
  8: 0x0155 [0x00] END_REQSTACK()
```
