# Event 213

## Metadata

| Field           | Value    |
|-----------------|----------|
| Event Index     | 75/80    |
| Offset          | 0x04E4   |
| Data Size       | 33 bytes |
| Calculated Size | 33 bytes |
| Instructions    | 12       |

```
      00 01 02 03 04 05 06 07  08 09 0A 0B 0C 0D 0E 0F
      -- -- -- -- -- -- -- --  -- -- -- -- -- -- -- --
04E0:             1E F0 FF FF  7F 6F 70 29 08 6B F1 06      .....op).k..
04F0: 01 01 1D 13 80 23 1D 14  80 23 29 08 6B F1 06 01  .....#...#).k...
0500: 02 20 00 21 00                                    . .!.           
```

## Opcodes

```
  0: 0x04E4 [0x1E] EventEntity looks at LocalPlayer and starts talking
  1: 0x04E9 [0x6F] WAIT_FRAME_DELAY: Yield until WaitTime reaches zero
  2: 0x04EA [0x70] WAIT_ENTITY_RENDER_FLAG: Wait while EventEntity->Render.Flags3 bit 2 is set (cancel turn if not)
  3: 0x04EB [0x29] REQ_SET_WAIT(priority=0x08, entity_id=Potete (ID: 17232235/0x0106F16B), tag_num=0x01)
  4: 0x04F2 [0x1D] PRINT_EVENT_MESSAGE(message_id=8322*)
    → "Guess what? The guy that brought the girl to us--I saw him asking some adventurers to take him to Bastok! He said he was looking for his companions and that it was urgent!\u007F1\u0000\u0007"
  5: 0x04F5 [0x23] WAIT_FOR_DIALOG_INTERACTION
  6: 0x04F6 [0x1D] PRINT_EVENT_MESSAGE(message_id=8323*)
    → "I wonder why he lied to Torino and said that he was going to travel north. My mommy-wommy told me that only thieves and criminals lie...\u007F1\u0000\u0007"
  7: 0x04F9 [0x23] WAIT_FOR_DIALOG_INTERACTION
  8: 0x04FA [0x29] REQ_SET_WAIT(priority=0x08, entity_id=Potete (ID: 17232235/0x0106F16B), tag_num=0x02)
  9: 0x0501 [0x20] SET_CLI_EVENT_UC_FLAG: Unlock player control
 10: 0x0503 [0x21] END_EVENT
 11: 0x0504 [0x00] END_REQSTACK()
```
