# Event 217

## Metadata

| Field           | Value    |
|-----------------|----------|
| Event Index     | 76/80    |
| Offset          | 0x0505   |
| Data Size       | 33 bytes |
| Calculated Size | 33 bytes |
| Instructions    | 12       |

```
      00 01 02 03 04 05 06 07  08 09 0A 0B 0C 0D 0E 0F
      -- -- -- -- -- -- -- --  -- -- -- -- -- -- -- --
0500:                1E F0 FF  FF 7F 6F 70 29 08 6B F1       .....op).k.
0510: 06 01 01 1D 15 80 23 1D  16 80 23 29 08 6B F1 06  ......#...#).k..
0520: 01 02 20 00 21 00                                 .. .!.          
```

## Opcodes

```
  0: 0x0505 [0x1E] EventEntity looks at LocalPlayer and starts talking
  1: 0x050A [0x6F] WAIT_FRAME_DELAY: Yield until WaitTime reaches zero
  2: 0x050B [0x70] WAIT_ENTITY_RENDER_FLAG: Wait while EventEntity->Render.Flags3 bit 2 is set (cancel turn if not)
  3: 0x050C [0x29] REQ_SET_WAIT(priority=0x08, entity_id=Potete (ID: 17232235/0x0106F16B), tag_num=0x01)
  4: 0x0513 [0x1D] PRINT_EVENT_MESSAGE(message_id=8320*)
    → "That little girl was in bad shape. By the time we got to her, she was as hard as ice. You could use her crikey-spiky hair as nails! I know, because I tried!\u007F1\u0000\u0007"
  5: 0x0516 [0x23] WAIT_FOR_DIALOG_INTERACTION
  6: 0x0517 [0x1D] PRINT_EVENT_MESSAGE(message_id=8321*)
    → "To make sure she didn't croak, we sent her back to Windurst, a la Warp II!\u007F1\u0000\u0007"
  7: 0x051A [0x23] WAIT_FOR_DIALOG_INTERACTION
  8: 0x051B [0x29] REQ_SET_WAIT(priority=0x08, entity_id=Potete (ID: 17232235/0x0106F16B), tag_num=0x02)
  9: 0x0522 [0x20] SET_CLI_EVENT_UC_FLAG: Unlock player control
 10: 0x0524 [0x21] END_EVENT
 11: 0x0525 [0x00] END_REQSTACK()
```
