# Event 107

## Metadata

| Field           | Value    |
|-----------------|----------|
| Event Index     | 2/32     |
| Offset          | 0x0001   |
| Data Size       | 19 bytes |
| Calculated Size | 19 bytes |
| Instructions    | 10       |

```
      00 01 02 03 04 05 06 07  08 09 0A 0B 0C 0D 0E 0F
      -- -- -- -- -- -- -- --  -- -- -- -- -- -- -- --
0000:    1E F0 FF FF 7F 6F 70  1D 00 80 23 1D 01 80 23   .....op...#...#
0010: 20 00 21 00                                        .!.            
```

## Opcodes

```
  0: 0x0001 [0x1E] EventEntity looks at LocalPlayer and starts talking
  1: 0x0006 [0x6F] WAIT_FRAME_DELAY: Yield until WaitTime reaches zero
  2: 0x0007 [0x70] WAIT_ENTITY_RENDER_FLAG: Wait while EventEntity->Render.Flags3 bit 2 is set (cancel turn if not)
  3: 0x0008 [0x1D] PRINT_EVENT_MESSAGE(message_id=7512*)
    → "tHIs\u0001\u001AiS tHe\u0001\u001AnOrTh gATeHOusE!\u0001\u001AtEn IS\u0001\u001Aa CArDiAN\u0001\u001AaSsiGNed tO\u0001\u001AtHe NOrTh\u0001\u001AWInDs gUaRds!\u007F1\u0000\u0007"
  4: 0x000B [0x23] WAIT_FOR_DIALOG_INTERACTION
  5: 0x000C [0x1D] PRINT_EVENT_MESSAGE(message_id=7513*)
    → "yOu\u0001\u001AWaNt tO\u0001\u001AJoIn NOrTH\u0001\u001AWinD gUaRds\u0001\u001ATOo?\u0001\u001AtHeN sPeAk\u0001\u001AtO tHe\u0001\u001ALEaDer, MoKyoKyo!\u007F1\u0000\u0007"
  6: 0x000F [0x23] WAIT_FOR_DIALOG_INTERACTION
  7: 0x0010 [0x20] SET_CLI_EVENT_UC_FLAG: Unlock player control
  8: 0x0012 [0x21] END_EVENT
  9: 0x0013 [0x00] END_REQSTACK()
```
