# Event 134

## Metadata

| Field           | Value    |
|-----------------|----------|
| Event Index     | 9/32     |
| Offset          | 0x004C   |
| Data Size       | 23 bytes |
| Calculated Size | 23 bytes |
| Instructions    | 12       |

```
      00 01 02 03 04 05 06 07  08 09 0A 0B 0C 0D 0E 0F
      -- -- -- -- -- -- -- --  -- -- -- -- -- -- -- --
0040:                                      1E F0 FF FF              ....
0050: 7F 6F 70 1D 07 80 23 1D  08 80 23 1D 09 80 23 20  .op...#...#...# 
0060: 00 21 00                                          .!.             
```

## Opcodes

```
  0: 0x004C [0x1E] EventEntity looks at LocalPlayer and starts talking
  1: 0x0051 [0x6F] WAIT_FRAME_DELAY: Yield until WaitTime reaches zero
  2: 0x0052 [0x70] WAIT_ENTITY_RENDER_FLAG: Wait while EventEntity->Render.Flags3 bit 2 is set (cancel turn if not)
  3: 0x0053 [0x1D] PRINT_EVENT_MESSAGE(message_id=7581*)
    → "mOrE\u0001\u001AiNtElLiGEnt CArdiAns\u0001\u001AbECoMe WInDUrsT's\u0001\u001ATOwn GUarDs!\u0001\u001ASTroNger\u0001\u001AcARdiaNS PATrol\u0001\u001AoUtsIDe!\u007F1\u0000\u0007"
  4: 0x0056 [0x23] WAIT_FOR_DIALOG_INTERACTION
  5: 0x0057 [0x1D] PRINT_EVENT_MESSAGE(message_id=7582*)
    → "wHaT\u0001\u001AHaP-pEnS tO\u0001\u001AsMArTEst aNd\u0001\u001ASTroNgEst cARdIAns...?\u007F1\u0000\u0007"
  6: 0x005A [0x23] WAIT_FOR_DIALOG_INTERACTION
  7: 0x005B [0x1D] PRINT_EVENT_MESSAGE(message_id=7583*)
    → "...theY\u0001\u001AbEcOme tHe\u0001\u001AACE CArDiaNs\u0001\u001AtHAt guArD\u0001\u001AHeAVeNs ToWeR!\u007F1\u0000\u0007"
  8: 0x005E [0x23] WAIT_FOR_DIALOG_INTERACTION
  9: 0x005F [0x20] SET_CLI_EVENT_UC_FLAG: Unlock player control
 10: 0x0061 [0x21] END_EVENT
 11: 0x0062 [0x00] END_REQSTACK()
```
