# Event 214

## Metadata

| Field           | Value    |
|-----------------|----------|
| Event Index     | 14/32    |
| Offset          | 0x00B3   |
| Data Size       | 19 bytes |
| Calculated Size | 19 bytes |
| Instructions    | 10       |

```
      00 01 02 03 04 05 06 07  08 09 0A 0B 0C 0D 0E 0F
      -- -- -- -- -- -- -- --  -- -- -- -- -- -- -- --
00B0:          1E F0 FF FF 7F  6F 70 1D 13 80 23 1D 14     .....op...#..
00C0: 80 23 20 00 21 00                                 .# .!.          
```

## Opcodes

```
  0: 0x00B3 [0x1E] EventEntity looks at LocalPlayer and starts talking
  1: 0x00B8 [0x6F] WAIT_FRAME_DELAY: Yield until WaitTime reaches zero
  2: 0x00B9 [0x70] WAIT_ENTITY_RENDER_FLAG: Wait while EventEntity->Render.Flags3 bit 2 is set (cancel turn if not)
  3: 0x00BA [0x1D] PRINT_EVENT_MESSAGE(message_id=7799*)
    → "ThE hEaD sEctIoNS\u0001\u001Aof us\u0001\u001AcARdiAns aRe\u0001\u001ACuLtIvAtEd iN\u0001\u001AtHe BAseMEnT\u0001\u001AOf HEaVeNs tOwEr!\u007F1\u0000\u0007"
  4: 0x00BD [0x23] WAIT_FOR_DIALOG_INTERACTION
  5: 0x00BE [0x1D] PRINT_EVENT_MESSAGE(message_id=7800*)
    → "SeE! lOOk\u0001\u001ACarEfuLLy aNd\u0001\u001AYoU wIll\u0001\u001AnOtE TEn'S\u0001\u001AHeAd is\u0001\u001AfrUIt of\u0001\u001AtREe!\u0001\u001Aa-MaZinG, hUh!?\u007F1\u0000\u0007"
  6: 0x00C1 [0x23] WAIT_FOR_DIALOG_INTERACTION
  7: 0x00C2 [0x20] SET_CLI_EVENT_UC_FLAG: Unlock player control
  8: 0x00C4 [0x21] END_EVENT
  9: 0x00C5 [0x00] END_REQSTACK()
```
