# Event 248

## Metadata

| Field           | Value    |
|-----------------|----------|
| Event Index     | 21/32    |
| Offset          | 0x0138   |
| Data Size       | 19 bytes |
| Calculated Size | 19 bytes |
| Instructions    | 10       |

```
      00 01 02 03 04 05 06 07  08 09 0A 0B 0C 0D 0E 0F
      -- -- -- -- -- -- -- --  -- -- -- -- -- -- -- --
0130:                          1E F0 FF FF 7F 6F 70 1D          .....op.
0140: 21 80 23 1D 22 80 23 20  00 21 00                 !.#.".# .!.     
```

## Opcodes

```
  0: 0x0138 [0x1E] EventEntity looks at LocalPlayer and starts talking
  1: 0x013D [0x6F] WAIT_FRAME_DELAY: Yield until WaitTime reaches zero
  2: 0x013E [0x70] WAIT_ENTITY_RENDER_FLAG: Wait while EventEntity->Render.Flags3 bit 2 is set (cancel turn if not)
  3: 0x013F [0x1D] PRINT_EVENT_MESSAGE(message_id=7872*)
    → "tEN's\u0001\u001AbrAIn TrIeD\u0001\u001AtO aNaLyZe\u0001\u001AtHe cURreNt\u0001\u001AsITuaTIon...!\u007F1\u0000\u0007"
  4: 0x0142 [0x23] WAIT_FOR_DIALOG_INTERACTION
  5: 0x0143 [0x1D] PRINT_EVENT_MESSAGE(message_id=7873*)
    → "ThErE iS\u0001\u001AA 60%\u0001\u001AChAnCe tHAt\u0001\u001AWInDurSt wIlL\u0001\u001ArEGaIn tHe\u0001\u001APeaCe!\u0001\u001AdO\u0001\u001AyoU tHinK\u0001\u001ATeN's cAlCulAtiOns\u0001\u001AaRe coRRecT?\u007F1\u0000\u0007"
  6: 0x0146 [0x23] WAIT_FOR_DIALOG_INTERACTION
  7: 0x0147 [0x20] SET_CLI_EVENT_UC_FLAG: Unlock player control
  8: 0x0149 [0x21] END_EVENT
  9: 0x014A [0x00] END_REQSTACK()
```
