# Event 704

## Metadata

| Field           | Value    |
|-----------------|----------|
| Event Index     | 23/32    |
| Offset          | 0x015E   |
| Data Size       | 23 bytes |
| Calculated Size | 23 bytes |
| Instructions    | 12       |

```
      00 01 02 03 04 05 06 07  08 09 0A 0B 0C 0D 0E 0F
      -- -- -- -- -- -- -- --  -- -- -- -- -- -- -- --
0150:                                            1E F0                ..
0160: FF FF 7F 6F 70 1D 25 80  23 1D 26 80 23 1D 27 80  ...op.%.#.&.#.'.
0170: 23 20 00 21 00                                    # .!.           
```

## Opcodes

```
  0: 0x015E [0x1E] EventEntity looks at LocalPlayer and starts talking
  1: 0x0163 [0x6F] WAIT_FRAME_DELAY: Yield until WaitTime reaches zero
  2: 0x0164 [0x70] WAIT_ENTITY_RENDER_FLAG: Wait while EventEntity->Render.Flags3 bit 2 is set (cancel turn if not)
  3: 0x0165 [0x1D] PRINT_EVENT_MESSAGE(message_id=9625*)
    → "AJiDO-MaRUjIdo..?\u0007TEn\u0001\u001AknOWs hIm\u0001\u001AWeLL.\u007F1\u0000\u0007"
  4: 0x0168 [0x23] WAIT_FOR_DIALOG_INTERACTION
  5: 0x0169 [0x1D] PRINT_EVENT_MESSAGE(message_id=9626*)
    → "He\u0001\u001AiS MoTHer\u0001\u001AApUrUrU's bRoTHer.\u0007WhiCH\u0001\u001AmAkES hIM\u0001\u001AtEn's uNCle...\u007F1\u0000\u0007"
  6: 0x016C [0x23] WAIT_FOR_DIALOG_INTERACTION
  7: 0x016D [0x1D] PRINT_EVENT_MESSAGE(message_id=9627*)
    → "...TeN\u0001\u001AreMeMbeRS bEInG\u0001\u001AhIt WiTh\u0007\u0001\u001AA wAnD\u0001\u001AWHen tEn\u0001\u001ASAiD ThAT.\u007F1\u0000\u0007"
  8: 0x0170 [0x23] WAIT_FOR_DIALOG_INTERACTION
  9: 0x0171 [0x20] SET_CLI_EVENT_UC_FLAG: Unlock player control
 10: 0x0173 [0x21] END_EVENT
 11: 0x0174 [0x00] END_REQSTACK()
```
