# Event 419

## Metadata

| Field           | Value    |
|-----------------|----------|
| Event Index     | 6/12     |
| Offset          | 0x0DC3   |
| Data Size       | 25 bytes |
| Calculated Size | 25 bytes |
| Instructions    | 9        |

```
      00 01 02 03 04 05 06 07  08 09 0A 0B 0C 0D 0E 0F
      -- -- -- -- -- -- -- --  -- -- -- -- -- -- -- --
0DC0:          1E F0 FF FF 7F  6F 70 2B 68 20 0F 01 84     .....op+h ...
0DD0: 80 23 2B 68 20 0F 01 85  80 23 21 00              .#+h ....#!.    
```

## Opcodes

```
  0: 0x0DC3 [0x1E] EventEntity looks at LocalPlayer and starts talking
  1: 0x0DC8 [0x6F] WAIT_FRAME_DELAY: Yield until WaitTime reaches zero
  2: 0x0DC9 [0x70] WAIT_ENTITY_RENDER_FLAG: Wait while EventEntity->Render.Flags3 bit 2 is set (cancel turn if not)
  3: 0x0DCA [0x2B] Mhabi Molkot (ID: 17768552/0x010F2068) [8887*]:
    → "Welcome back! I was beginning to worrrry that you got lost!\u0007...Heh heh heh! Those two buffoons were rubbed the wrong way by my letters? Hah hah! Thanks, \u0008. You've just made my day.\u007F1\u0000\u0007"
  4: 0x0DD1 [0x23] WAIT_FOR_DIALOG_INTERACTION
  5: 0x0DD2 [0x2B] Mhabi Molkot (ID: 17768552/0x010F2068) [8888*]:
    → "Now, all that's left is for you to talk to little Kupipi over there and have her take you to the Star Sibyl. When you'rrre done, you can tell me more about your trip.\u007F1\u0000\u0007"
  6: 0x0DD9 [0x23] WAIT_FOR_DIALOG_INTERACTION
  7: 0x0DDA [0x21] END_EVENT
  8: 0x0DDB [0x00] END_REQSTACK()
```
