# Event 412

## Metadata

| Field           | Value    |
|-----------------|----------|
| Event Index     | 6/8      |
| Offset          | 0x00C8   |
| Data Size       | 38 bytes |
| Calculated Size | 38 bytes |
| Instructions    | 12       |

```
      00 01 02 03 04 05 06 07  08 09 0A 0B 0C 0D 0E 0F
      -- -- -- -- -- -- -- --  -- -- -- -- -- -- -- --
00C0:                          42 1E F0 FF FF 7F 6F 70          B.....op
00D0: 1D 0D 80 23 1D 10 80 23  1D 11 80 23 45 12 80 F0  ...#...#...#E...
00E0: FF FF 7F F0 FF FF 7F 71  73 74 63 13 80 21        .......qstc..!  
```

## Opcodes

```
  0: 0x00C8 [0x42] SET_CLI_EVENT_CANCEL_DATA()
  1: 0x00C9 [0x1E] EventEntity looks at LocalPlayer and starts talking
  2: 0x00CE [0x6F] WAIT_FRAME_DELAY: Yield until WaitTime reaches zero
  3: 0x00CF [0x70] WAIT_ENTITY_RENDER_FLAG: Wait while EventEntity->Render.Flags3 bit 2 is set (cancel turn if not)
  4: 0x00D0 [0x1D] PRINT_EVENT_MESSAGE(message_id=8190*)
    → "You've returned.\u0007How go your efforts?\u007F1\u0000\u0007"
  5: 0x00D3 [0x23] WAIT_FOR_DIALOG_INTERACTION
  6: 0x00D4 [0x1D] PRINT_EVENT_MESSAGE(message_id=8191*)
    → "I see.\u0007This may not be much, but please accept it as a token of our gratitude.\u007F1\u0000\u0007"
  7: 0x00D7 [0x23] WAIT_FOR_DIALOG_INTERACTION
  8: 0x00D8 [0x1D] PRINT_EVENT_MESSAGE(message_id=8192*)
    → "I intend to send another unit into the breach before long.\u0007I would be honored if you could assist us again.\u007F1\u0000\u0007"
  9: 0x00DB [0x23] WAIT_FOR_DIALOG_INTERACTION
 10: 0x00DC [0x45] LOAD_SCHEDULED_TASK: Load scheduler "qstc" with entities [LocalPlayer, LocalPlayer], work=[201*, 0*]
 11: 0x00ED [0x21] END_EVENT
```
