# Event 413

## Metadata

| Field           | Value    |
|-----------------|----------|
| Event Index     | 7/8      |
| Offset          | 0x00EE   |
| Data Size       | 28 bytes |
| Calculated Size | 28 bytes |
| Instructions    | 11       |

```
      00 01 02 03 04 05 06 07  08 09 0A 0B 0C 0D 0E 0F
      -- -- -- -- -- -- -- --  -- -- -- -- -- -- -- --
00E0:                                            1E F0                ..
00F0: FF FF 7F 02 02 10 13 80  00 02 01 1D 11 80 23 01  ..............#.
0100: 06 01 1D 0F 80 23 6F 70  21 00                    .....#op!.      
```

## Opcodes

```
  0: 0x00EE [0x1E] EventEntity looks at LocalPlayer and starts talking
  1: 0x00F3 [0x02] IF !(Work_Zone[2] == 0*) GOTO 0x0102
  2: 0x00FB [0x1D] PRINT_EVENT_MESSAGE(message_id=8192*)
    → "I intend to send another unit into the breach before long.\u0007I would be honored if you could assist us again.\u007F1\u0000\u0007"
  3: 0x00FE [0x23] WAIT_FOR_DIALOG_INTERACTION
  4: 0x00FF [0x01] GOTO 0x0106
  5: 0x0102 [0x1D] PRINT_EVENT_MESSAGE(message_id=8194*)
    → "My men are making the long trek back up the mountain as we speak.\u0007There is naught to do but wait for their return.\u007F1\u0000\u0007"
  6: 0x0105 [0x23] WAIT_FOR_DIALOG_INTERACTION

SUBROUTINE_0106:
  7: 0x0106 [0x6F] WAIT_FRAME_DELAY: Yield until WaitTime reaches zero
  8: 0x0107 [0x70] WAIT_ENTITY_RENDER_FLAG: Wait while EventEntity->Render.Flags3 bit 2 is set (cancel turn if not)
  9: 0x0108 [0x21] END_EVENT
 10: 0x0109 [0x00] END_REQSTACK()
```
