# Event 30

## Metadata

| Field           | Value    |
|-----------------|----------|
| Event Index     | 6/7      |
| Offset          | 0x09E2   |
| Data Size       | 32 bytes |
| Calculated Size | 32 bytes |
| Instructions    | 12       |

```
      00 01 02 03 04 05 06 07  08 09 0A 0B 0C 0D 0E 0F
      -- -- -- -- -- -- -- --  -- -- -- -- -- -- -- --
09E0:       42 03 07 00 02 10  1E F0 FF FF 7F 1C 00 80    B.............
09F0: 03 02 10 07 00 93 02 10  1D 47 80 23 93 02 80 2E  .........G.#....
0A00: 21 00                                             !.              
```

## Opcodes

```
  0: 0x09E2 [0x42] SET_CLI_EVENT_CANCEL_DATA()
  1: 0x09E3 [0x03] ExtData[1]->WorkLocal[7] = Work_Zone[2]
  2: 0x09E8 [0x1E] EventEntity looks at LocalPlayer and starts talking
  3: 0x09ED [0x1C] WAIT(1* ticks)
  4: 0x09F0 [0x03] Work_Zone[2] = ExtData[1]->WorkLocal[7]
  5: 0x09F5 [0x93] DISPLAY_ITEM_INFO(item_id=Work_Zone[2])
  6: 0x09F8 [0x1D] PRINT_EVENT_MESSAGE(message_id=7990*)
    → "Is ready. Remember, I can make many more!\u007F1\u0000\u0007"
  7: 0x09FB [0x23] WAIT_FOR_DIALOG_INTERACTION
  8: 0x09FC [0x93] DISPLAY_ITEM_INFO(item_id=0*)
  9: 0x09FF [0x2E] SET_CLI_EVENT_CANCEL_FLAGS()
 10: 0x0A00 [0x21] END_EVENT
 11: 0x0A01 [0x00] END_REQSTACK()
```
