# Event 65535

## Metadata

| Field           | Value    |
|-----------------|----------|
| Event Index     | 38/60    |
| Offset          | 0x05B2   |
| Data Size       | 63 bytes |
| Calculated Size | 63 bytes |
| Instructions    | 11       |

```
      00 01 02 03 04 05 06 07  08 09 0A 0B 0C 0D 0E 0F
      -- -- -- -- -- -- -- --  -- -- -- -- -- -- -- --
05B0:       32 13 80 1F 00 65  80 66 80 67 80 1F 01 1C    2....e.f.g....
05C0: 09 80 1E F0 FF FF 7F 1C  16 80 5B 0A 80 97 A0 0E  ..........[.....
05D0: 01 97 A0 0E 01 6E 61 6B  30 1C 60 80 45 1B 80 F0  .....nak0.`.E...
05E0: FF FF 7F F0 FF FF 7F 6E  61 6B 32 04 80 1C 54 80  .......nak2...T.
05F0: 00                                                .               
```

## Opcodes

```
  0: 0x05B2 [0x32] ExtData[1]->MainSpeed = 15* * 0.1
  1: 0x05B5 [0x1F] MOVE_ENTITY: EventEntity moves to X=-268.660*, Z=-137.645*, Y=-13.954*
  2: 0x05BD [0x1F] MOVE_ENTITY: Update entity position (mode=1)
  3: 0x05BF [0x1C] WAIT(60* ticks)
  4: 0x05C2 [0x1E] EventEntity looks at LocalPlayer and starts talking
  5: 0x05C7 [0x1C] WAIT(30* ticks)
  6: 0x05CA [0x5B] LOAD_EXT_SCHEDULER: Load scheduler "nak0" with entities [Unnamed NPC (ID: 17735831/0x010EA097), Unnamed NPC (ID: 17735831/0x010EA097)], work=223*
  7: 0x05D9 [0x1C] WAIT(10* ticks)
  8: 0x05DC [0x45] LOAD_SCHEDULED_TASK: Load scheduler "nak2" with entities [LocalPlayer, LocalPlayer], work=[144*, 0*]
  9: 0x05ED [0x1C] WAIT(90* ticks)
 10: 0x05F0 [0x00] END_REQSTACK()
```
