# Event 65535

## Metadata

| Field           | Value    |
|-----------------|----------|
| Event Index     | 57/60    |
| Offset          | 0x08D1   |
| Data Size       | 67 bytes |
| Calculated Size | 67 bytes |
| Instructions    | 15       |

```
      00 01 02 03 04 05 06 07  08 09 0A 0B 0C 0D 0E 0F
      -- -- -- -- -- -- -- --  -- -- -- -- -- -- -- --
08D0:    32 BF 80 1F 00 C0 80  C1 80 C2 80 1F 01 4B 97   2............K.
08E0: A0 0E 01 C3 80 1C 09 80  1F 00 C4 80 C5 80 C6 80  ................
08F0: 1F 01 4B 97 A0 0E 01 C7  80 1C C8 80 1F 00 C9 80  ..K.............
0900: CA 80 CB 80 1F 01 1C 16  80 4B 97 A0 0E 01 CC 80  .........K......
0910: 1C 09 80 00                                       ....            
```

## Opcodes

```
  0: 0x08D1 [0x32] ExtData[1]->MainSpeed = 45* * 0.1
  1: 0x08D4 [0x1F] MOVE_ENTITY: EventEntity moves to X=-599.295*, Z=590.678*, Y=0.264*
  2: 0x08DC [0x1F] MOVE_ENTITY: Update entity position (mode=1)
  3: 0x08DE [0x4B] UPDATE_ENTITY_YAW(entity=Unnamed NPC (ID: 17735831/0x010EA097), yaw=5.3°*)
  4: 0x08E5 [0x1C] WAIT(60* ticks)
  5: 0x08E8 [0x1F] MOVE_ENTITY: EventEntity moves to X=-604.353*, Z=586.292*, Y=0.138*
  6: 0x08F0 [0x1F] MOVE_ENTITY: Update entity position (mode=1)
  7: 0x08F2 [0x4B] UPDATE_ENTITY_YAW(entity=Unnamed NPC (ID: 17735831/0x010EA097), yaw=0.2°*)
  8: 0x08F9 [0x1C] WAIT(240* ticks)
  9: 0x08FC [0x1F] MOVE_ENTITY: EventEntity moves to X=-600.328*, Z=582.410*, Y=0.802*
 10: 0x0904 [0x1F] MOVE_ENTITY: Update entity position (mode=1)
 11: 0x0906 [0x1C] WAIT(30* ticks)
 12: 0x0909 [0x4B] UPDATE_ENTITY_YAW(entity=Unnamed NPC (ID: 17735831/0x010EA097), yaw=16.6°*)
 13: 0x0910 [0x1C] WAIT(60* ticks)
 14: 0x0913 [0x00] END_REQSTACK()
```
