# Event 65535

## Metadata

| Field           | Value    |
|-----------------|----------|
| Event Index     | 36/60    |
| Offset          | 0x0569   |
| Data Size       | 63 bytes |
| Calculated Size | 63 bytes |
| Instructions    | 11       |

```
      00 01 02 03 04 05 06 07  08 09 0A 0B 0C 0D 0E 0F
      -- -- -- -- -- -- -- --  -- -- -- -- -- -- -- --
0560:                             32 13 80 1F 00 5D 80           2....].
0570: 5E 80 5F 80 1F 01 1C 09  80 1E F0 FF FF 7F 1C 16  ^._.............
0580: 80 5B 0A 80 97 A0 0E 01  97 A0 0E 01 6E 61 6B 30  .[..........nak0
0590: 1C 60 80 45 1B 80 F0 FF  FF 7F F0 FF FF 7F 6E 61  .`.E..........na
05A0: 6B 32 04 80 1C 54 80 00                           k2...T..        
```

## Opcodes

```
  0: 0x0569 [0x32] ExtData[1]->MainSpeed = 15* * 0.1
  1: 0x056C [0x1F] MOVE_ENTITY: EventEntity moves to X=-198.780*, Z=450.674*, Y=0.499*
  2: 0x0574 [0x1F] MOVE_ENTITY: Update entity position (mode=1)
  3: 0x0576 [0x1C] WAIT(60* ticks)
  4: 0x0579 [0x1E] EventEntity looks at LocalPlayer and starts talking
  5: 0x057E [0x1C] WAIT(30* ticks)
  6: 0x0581 [0x5B] LOAD_EXT_SCHEDULER(work_offset=223*, entity1=Unnamed NPC (ID: 17735831/0x010EA097), entity2=Unnamed NPC (ID: 17735831/0x010EA097), action="nak0")
  7: 0x0590 [0x1C] WAIT(10* ticks)
  8: 0x0593 [0x45] LOAD_SCHEDULED_TASK(work_offset1=144*, entity1=LocalPlayer, entity2=LocalPlayer, scheduler_id="nak2", work_offset2=0*)
  9: 0x05A4 [0x1C] WAIT(90* ticks)
 10: 0x05A7 [0x00] END_REQSTACK()
```
