# Event 65535

## Metadata

| Field           | Value    |
|-----------------|----------|
| Event Index     | 51/60    |
| Offset          | 0x0827   |
| Data Size       | 48 bytes |
| Calculated Size | 48 bytes |
| Instructions    | 11       |

```
      00 01 02 03 04 05 06 07  08 09 0A 0B 0C 0D 0E 0F
      -- -- -- -- -- -- -- --  -- -- -- -- -- -- -- --
0820:                      02  04 00 A0 80 01 56 08 32         ......V.2
0830: 13 80 1F 00 A1 80 A2 80  A3 80 1F 01 1C 09 80 1F  ................
0840: 00 A4 80 A5 80 A6 80 1F  01 1F 00 A7 80 A8 80 A9  ................
0850: 80 1F 01 01 27 08 00                              ....'..         
```

## Opcodes

```
  0: 0x0827 [0x02] IF !(ExtData[1]->WorkLocal[4] == 1*) GOTO 0x0856
  1: 0x082F [0x32] ExtData[1]->MainSpeed = 15* * 0.1
  2: 0x0832 [0x1F] MOVE_ENTITY: EventEntity moves to X=-604.743*, Z=600.818*, Y=0.035*
  3: 0x083A [0x1F] MOVE_ENTITY: Update entity position (mode=1)
  4: 0x083C [0x1C] WAIT(60* ticks)
  5: 0x083F [0x1F] MOVE_ENTITY: EventEntity moves to X=-608.317*, Z=600.631*, Y=0.214*
  6: 0x0847 [0x1F] MOVE_ENTITY: Update entity position (mode=1)
  7: 0x0849 [0x1F] MOVE_ENTITY: EventEntity moves to X=-606.086*, Z=601.808*, Y=0.102*
  8: 0x0851 [0x1F] MOVE_ENTITY: Update entity position (mode=1)
  9: 0x0853 [0x01] GOTO 0x0827
 10: 0x0856 [0x00] END_REQSTACK()
```
