# Event 65535

## Metadata

| Field           | Value    |
|-----------------|----------|
| Event Index     | 40/60    |
| Offset          | 0x05FB   |
| Data Size       | 70 bytes |
| Calculated Size | 70 bytes |
| Instructions    | 12       |

```
      00 01 02 03 04 05 06 07  08 09 0A 0B 0C 0D 0E 0F
      -- -- -- -- -- -- -- --  -- -- -- -- -- -- -- --
05F0:                                   32 13 80 1F 00             2....
0600: 6C 80 6D 80 6E 80 1F 01  4B 97 A0 0E 01 6F 80 1C  l.m.n...K....o..
0610: 09 80 1E F0 FF FF 7F 1C  16 80 5B 0A 80 97 A0 0E  ..........[.....
0620: 01 97 A0 0E 01 6E 61 6B  30 1C 60 80 45 1B 80 F0  .....nak0.`.E...
0630: FF FF 7F F0 FF FF 7F 6E  61 6B 32 04 80 1C 54 80  .......nak2...T.
0640: 00                                                .               
```

## Opcodes

```
  0: 0x05FB [0x32] ExtData[1]->MainSpeed = 15* * 0.1
  1: 0x05FE [0x1F] MOVE_ENTITY: EventEntity moves to X=-387.281*, Z=-282.206*, Y=24.284*
  2: 0x0606 [0x1F] MOVE_ENTITY: Update entity position (mode=1)
  3: 0x0608 [0x4B] UPDATE_ENTITY_YAW(entity=Unnamed NPC (ID: 17735831/0x010EA097), yaw=10.1°*)
  4: 0x060F [0x1C] WAIT(60* ticks)
  5: 0x0612 [0x1E] EventEntity looks at LocalPlayer and starts talking
  6: 0x0617 [0x1C] WAIT(30* ticks)
  7: 0x061A [0x5B] LOAD_EXT_SCHEDULER: Load scheduler "nak0" with entities [Unnamed NPC (ID: 17735831/0x010EA097), Unnamed NPC (ID: 17735831/0x010EA097)], work=223*
  8: 0x0629 [0x1C] WAIT(10* ticks)
  9: 0x062C [0x45] LOAD_SCHEDULED_TASK: Load scheduler "nak2" with entities [LocalPlayer, LocalPlayer], work=[144*, 0*]
 10: 0x063D [0x1C] WAIT(90* ticks)
 11: 0x0640 [0x00] END_REQSTACK()
```
