# Event 65535

## Metadata

| Field           | Value    |
|-----------------|----------|
| Event Index     | 80/85    |
| Offset          | 0x0641   |
| Data Size       | 54 bytes |
| Calculated Size | 54 bytes |
| Instructions    | 13       |

```
      00 01 02 03 04 05 06 07  08 09 0A 0B 0C 0D 0E 0F
      -- -- -- -- -- -- -- --  -- -- -- -- -- -- -- --
0640:    79 00 F8 FF FF 7F 3E  12 04 01 1C 7F 80 3A F8   y.....>......:.
0650: FF FF 7F 00 00 08 00 00  5F 80 4B F8 FF FF 7F 00  ........_.K.....
0660: 00 6F 70 32 0D 80 1F 00  80 80 81 80 82 80 1F 01  .op2............
0670: 6F 1E 3E 12 04 01 00                              o.>....         
```

## Opcodes

```
  0: 0x0641 [0x79] EventEntity looks at Unnamed NPC (ID: 17044030/0x0104123E) (Basic look)
  1: 0x064B [0x1C] WAIT(30* ticks)
  2: 0x064E [0x3A] CONVERT_YAW_TO_BYTE(entity=EventEntity, result_destination=ExtData[1]->WorkLocal[0])
  3: 0x0655 [0x08] ExtData[1]->WorkLocal[0] -= 400*
  4: 0x065A [0x4B] UPDATE_ENTITY_YAW(entity=EventEntity, yaw=ExtData[1]->WorkLocal[0])
  5: 0x0661 [0x6F] WAIT_FRAME_DELAY: Yield until WaitTime reaches zero
  6: 0x0662 [0x70] WAIT_ENTITY_RENDER_FLAG: Wait while EventEntity->Render.Flags3 bit 2 is set (cancel turn if not)
  7: 0x0663 [0x32] ExtData[1]->MainSpeed = 40* * 0.1
  8: 0x0666 [0x1F] MOVE_ENTITY: EventEntity moves to X=-55.374*, Z=-98.407*, Y=6.114*
  9: 0x066E [0x1F] MOVE_ENTITY: Update entity position (mode=1)
 10: 0x0670 [0x6F] WAIT_FRAME_DELAY: Yield until WaitTime reaches zero
 11: 0x0671 [0x1E] EventEntity looks at Unnamed NPC (ID: 17044030/0x0104123E) and starts talking
 12: 0x0676 [0x00] END_REQSTACK()
```
