# Event 65535

## Metadata

| Field           | Value    |
|-----------------|----------|
| Event Index     | 58/85    |
| Offset          | 0x0402   |
| Data Size       | 68 bytes |
| Calculated Size | 68 bytes |
| Instructions    | 7        |

```
      00 01 02 03 04 05 06 07  08 09 0A 0B 0C 0D 0E 0F
      -- -- -- -- -- -- -- --  -- -- -- -- -- -- -- --
0400:       59 01 F8 FF FF 7F  5F 80 1E 3D 12 04 01 2C    Y....._..=...,
0410: F8 FF FF 7F F8 FF FF 7F  64 61 6D 67 53 F8 FF FF  ........damgS...
0420: 7F F8 FF FF 7F 64 61 6D  67 66 00 80 F8 FF FF 7F  .....damgf......
0430: F8 FF FF 7F 73 68 61 30  53 F8 FF FF 7F F8 FF FF  ....sha0S.......
0440: 7F 73 68 61 30 00                                 .sha0.          
```

## Opcodes

```
  0: 0x0402 [0x59] UPDATE_ENTITY_DATA: Set EventEntity turn speed = 400*
  1: 0x040A [0x1E] EventEntity looks at Unnamed NPC (ID: 17044029/0x0104123D) and starts talking
  2: 0x040F [0x2C] CREATE_SCHEDULER_TASK: Create scheduler "damg" for entities [EventEntity, EventEntity]
  3: 0x041C [0x53] WAIT_SCHEDULER_TASK(entity1=EventEntity, entity2=EventEntity, action_id="damg")
  4: 0x0429 [0x66] LOAD_EXT_SCHEDULER_MAIN(work_offset=49*, entity1=EventEntity, entity2=EventEntity, action="sha0")
  5: 0x0438 [0x53] WAIT_SCHEDULER_TASK(entity1=EventEntity, entity2=EventEntity, action_id="sha0")
  6: 0x0445 [0x00] END_REQSTACK()
```
