# Event 13

## Metadata

| Field           | Value    |
|-----------------|----------|
| Event Index     | 5/6      |
| Offset          | 0x0558   |
| Data Size       | 52 bytes |
| Calculated Size | 52 bytes |
| Instructions    | 14       |

```
      00 01 02 03 04 05 06 07  08 09 0A 0B 0C 0D 0E 0F
      -- -- -- -- -- -- -- --  -- -- -- -- -- -- -- --
0550:                          20 01 42 43 00 43 01 29           .BC.C.)
0560: 01 F0 FF FF 7F 02 47 00  2B 80 2C 80 2D 80 2E 80  ......G.+.,.-...
0570: 47 01 1C 1F 80 47 00 2F  80 30 80 31 80 32 80 47  G....G./.0.1.2.G
0580: 01 29 01 F0 FF FF 7F 03  20 00 21 00              .)...... .!.    
```

## Opcodes

```
  0: 0x0558 [0x20] SET_CLI_EVENT_UC_FLAG: Lock player control
  1: 0x055A [0x42] SET_CLI_EVENT_CANCEL_DATA()
  2: 0x055B [0x43] SEND_EVENT_UPDATE: Send pending tag to server (packet 0x005B)
  3: 0x055D [0x43] SEND_EVENT_UPDATE: Check pending flag (skip if not pending)
  4: 0x055F [0x29] REQ_SET_WAIT(priority=0x01, entity_id=LocalPlayer, tag_num=0x02)
  5: 0x0566 [0x47] UPDATE_PLAYER_POS(-322.328*, -420.097*, -0.039*, yaw=220.2°*)
  6: 0x0570 [0x47] WAIT_PLAYER_POS_UPDATE
  7: 0x0572 [0x1C] WAIT(30* ticks)
  8: 0x0575 [0x47] UPDATE_PLAYER_POS(-236.196*, -122.592*, -0.227*, yaw=222.4°*)
  9: 0x057F [0x47] WAIT_PLAYER_POS_UPDATE
 10: 0x0581 [0x29] REQ_SET_WAIT(priority=0x01, entity_id=LocalPlayer, tag_num=0x03)
 11: 0x0588 [0x20] SET_CLI_EVENT_UC_FLAG: Unlock player control
 12: 0x058A [0x21] END_EVENT
 13: 0x058B [0x00] END_REQSTACK()
```
