# Event 65535

## Metadata

| Field           | Value    |
|-----------------|----------|
| Event Index     | 15/19    |
| Offset          | 0x00FC   |
| Data Size       | 50 bytes |
| Calculated Size | 50 bytes |
| Instructions    | 10       |

```
      00 01 02 03 04 05 06 07  08 09 0A 0B 0C 0D 0E 0F
      -- -- -- -- -- -- -- --  -- -- -- -- -- -- -- --
00F0:                                      32 0F 80 1F              2...
0100: 00 29 80 2A 80 2B 80 1F  01 6F 1E 36 81 0B 01 6F  .).*.+...o.6...o
0110: 70 66 17 80 F8 FF FF 7F  F8 FF FF 7F 73 68 61 30  pf..........sha0
0120: 53 F8 FF FF 7F F8 FF FF  7F 73 68 61 30 00        S........sha0.  
```

## Opcodes

```
  0: 0x00FC [0x32] ExtData[1]->MainSpeed = 13* * 0.1
  1: 0x00FF [0x1F] MOVE_ENTITY: EventEntity moves to X=-0.553*, Z=-94.662*, Y=-33.899*
  2: 0x0107 [0x1F] MOVE_ENTITY: Update entity position (mode=1)
  3: 0x0109 [0x6F] WAIT_FRAME_DELAY: Yield until WaitTime reaches zero
  4: 0x010A [0x1E] EventEntity looks at Unnamed NPC (ID: 17531190/0x010B8136) and starts talking
  5: 0x010F [0x6F] WAIT_FRAME_DELAY: Yield until WaitTime reaches zero
  6: 0x0110 [0x70] WAIT_ENTITY_RENDER_FLAG: Wait while EventEntity->Render.Flags3 bit 2 is set (cancel turn if not)
  7: 0x0111 [0x66] LOAD_EXT_SCHEDULER_MAIN(work_offset=9*, entity1=EventEntity, entity2=EventEntity, action="sha0")
  8: 0x0120 [0x53] WAIT_SCHEDULER_TASK(entity1=EventEntity, entity2=EventEntity, action_id="sha0")
  9: 0x012D [0x00] END_REQSTACK()
```
