# Event 4

## Metadata

| Field           | Value    |
|-----------------|----------|
| Event Index     | 3/8      |
| Offset          | 0x0002   |
| Data Size       | 34 bytes |
| Calculated Size | 34 bytes |
| Instructions    | 10       |

```
      00 01 02 03 04 05 06 07  08 09 0A 0B 0C 0D 0E 0F
      -- -- -- -- -- -- -- --  -- -- -- -- -- -- -- --
0000:       1E F0 FF FF 7F 1D  00 80 23 66 01 80 F8 FF    ........#f....
0010: FF 7F F8 FF FF 7F 74 6C  6B 30 1D 02 80 23 1D 03  ......tlk0...#..
0020: 80 23 21 00                                       .#!.            
```

## Opcodes

```
  0: 0x0002 [0x1E] EventEntity looks at LocalPlayer and starts talking
  1: 0x0007 [0x1D] PRINT_EVENT_MESSAGE(message_id=7358*)
    → "That feisty girl, Cornelia? I hear she hangs out in the Mines District, where all the Galka are.\u0007Why anyone would is beyond me.\u007F1\u0000\u0007"
  2: 0x000A [0x23] WAIT_FOR_DIALOG_INTERACTION
  3: 0x000B [0x66] LOAD_EXT_SCHEDULER_MAIN(work_offset=0*, entity1=EventEntity, entity2=EventEntity, action="tlk0")
  4: 0x001A [0x1D] PRINT_EVENT_MESSAGE(message_id=7359*)
    → "Parraggoh lives there, by the way. When he got hurt and couldn't deliver the goods to us, she must've volunteered herself to help out. She's like that.\u007F1\u0000\u0007"
  5: 0x001D [0x23] WAIT_FOR_DIALOG_INTERACTION
  6: 0x001E [0x1D] PRINT_EVENT_MESSAGE(message_id=7360*)
    → "Parraggoh's place is the first house down through the big arch to the mining town. It's a rough neighborhood, but Cornelia won't stay out of there.\u007F1\u0000\u0007"
  7: 0x0021 [0x23] WAIT_FOR_DIALOG_INTERACTION
  8: 0x0022 [0x21] END_EVENT
  9: 0x0023 [0x00] END_REQSTACK()
```
