# Event 65535

## Metadata

| Field           | Value    |
|-----------------|----------|
| Event Index     | 28/67    |
| Offset          | 0x0168   |
| Data Size       | 54 bytes |
| Calculated Size | 54 bytes |
| Instructions    | 12       |

```
      00 01 02 03 04 05 06 07  08 09 0A 0B 0C 0D 0E 0F
      -- -- -- -- -- -- -- --  -- -- -- -- -- -- -- --
0160:                          32 00 80 1F 00 2D 80 2E          2....-..
0170: 80 1C 80 1F 01 4B F8 FF  FF 7F 2F 80 1C 30 80 27  .....K..../..0.'
0180: 05 41 72 05 01 03 1C 31  80 1F 00 32 80 33 80 34  .Ar....1...2.3.4
0190: 80 1F 01 27 05 41 72 05  01 04 1C 31 80 00        ...'.Ar....1..  
```

## Opcodes

```
  0: 0x0168 [0x32] ExtData[1]->MainSpeed = 13* * 0.1
  1: 0x016B [0x1F] MOVE_ENTITY: EventEntity moves to X=88.702*, Z=8.770*, Y=-20.170*
  2: 0x0173 [0x1F] MOVE_ENTITY: Update entity position (mode=1)
  3: 0x0175 [0x4B] UPDATE_ENTITY_YAW(entity=EventEntity, yaw=3.9°*)
  4: 0x017C [0x1C] WAIT(60* ticks)
  5: 0x017F [0x27] REQ_SET(priority=0x05, entity_id=Unnamed NPC (ID: 17134145/0x01057241), tag_num=0x03)
  6: 0x0186 [0x1C] WAIT(90* ticks)
  7: 0x0189 [0x1F] MOVE_ENTITY: EventEntity moves to X=88.543*, Z=3.664*, Y=-19.532*
  8: 0x0191 [0x1F] MOVE_ENTITY: Update entity position (mode=1)
  9: 0x0193 [0x27] REQ_SET(priority=0x05, entity_id=Unnamed NPC (ID: 17134145/0x01057241), tag_num=0x04)
 10: 0x019A [0x1C] WAIT(90* ticks)
 11: 0x019D [0x00] END_REQSTACK()
```
