# Event 42

## Metadata

| Field           | Value    |
|-----------------|----------|
| Event Index     | 11/39    |
| Offset          | 0x00AA   |
| Data Size       | 33 bytes |
| Calculated Size | 33 bytes |
| Instructions    | 12       |

```
      00 01 02 03 04 05 06 07  08 09 0A 0B 0C 0D 0E 0F
      -- -- -- -- -- -- -- --  -- -- -- -- -- -- -- --
00A0:                                1E F0 FF FF 7F 6F            .....o
00B0: 70 29 08 29 00 0F 01 01  1D 04 80 23 1D 05 80 23  p).).......#...#
00C0: 29 08 29 00 0F 01 08 20  00 21 00                 ).).... .!.     
```

## Opcodes

```
  0: 0x00AA [0x1E] EventEntity looks at LocalPlayer and starts talking
  1: 0x00AF [0x6F] WAIT_FRAME_DELAY: Yield until WaitTime reaches zero
  2: 0x00B0 [0x70] WAIT_ENTITY_RENDER_FLAG: Wait while EventEntity->Render.Flags3 bit 2 is set (cancel turn if not)
  3: 0x00B1 [0x29] REQ_SET_WAIT(priority=0x08, entity_id=Melek (ID: 17760297/0x010F0029), tag_num=0x01)
  4: 0x00B8 [0x1D] PRINT_EVENT_MESSAGE(message_id=3213*)
    → "Windurst, Bastok and San d'Oria fought together in the Great War of twenty years ago and formed a friendly alliance with Jeuno at its head.\u007F1\u0000\u0007"
  5: 0x00BB [0x23] WAIT_FOR_DIALOG_INTERACTION
  6: 0x00BC [0x1D] PRINT_EVENT_MESSAGE(message_id=3214*)
    → "That is why each country has consulates set up in each other's capitals.\u007F1\u0000\u0007"
  7: 0x00BF [0x23] WAIT_FOR_DIALOG_INTERACTION
  8: 0x00C0 [0x29] REQ_SET_WAIT(priority=0x08, entity_id=Melek (ID: 17760297/0x010F0029), tag_num=0x08)
  9: 0x00C7 [0x20] SET_CLI_EVENT_UC_FLAG: Unlock player control
 10: 0x00C9 [0x21] END_EVENT
 11: 0x00CA [0x00] END_REQSTACK()
```
