# Event 65535

## Metadata

| Field           | Value    |
|-----------------|----------|
| Event Index     | 30/39    |
| Offset          | 0x0785   |
| Data Size       | 37 bytes |
| Calculated Size | 37 bytes |
| Instructions    | 9        |

```
      00 01 02 03 04 05 06 07  08 09 0A 0B 0C 0D 0E 0F
      -- -- -- -- -- -- -- --  -- -- -- -- -- -- -- --
0780:                29 08 29  00 0F 01 04 1D 29 80 23       ).).....).#
0790: 29 08 29 00 0F 01 05 29  08 29 00 0F 01 06 1D 2A  ).)....).).....*
07A0: 80 23 29 08 29 00 0F 01  07 00                    .#).).....      
```

## Opcodes

```
  0: 0x0785 [0x29] REQ_SET_WAIT(priority=0x08, entity_id=Melek (ID: 17760297/0x010F0029), tag_num=0x04)
  1: 0x078C [0x1D] PRINT_EVENT_MESSAGE(message_id=3274*)
    → "You look perplexed.\u0007Yes, well, I guess if you put it frankly, you are protecting a pack of Yagudo beastmen from a ferocious monster.\u007F1\u0000\u0007"
  2: 0x078F [0x23] WAIT_FOR_DIALOG_INTERACTION
  3: 0x0790 [0x29] REQ_SET_WAIT(priority=0x08, entity_id=Melek (ID: 17760297/0x010F0029), tag_num=0x05)
  4: 0x0797 [0x29] REQ_SET_WAIT(priority=0x08, entity_id=Melek (ID: 17760297/0x010F0029), tag_num=0x06)
  5: 0x079E [0x1D] PRINT_EVENT_MESSAGE(message_id=3275*)
    → "You see...in order to maintain the peace of their country, the Windurstians have formed amicable relations with the Yagudo.\u007F1\u0000\u0007"
  6: 0x07A1 [0x23] WAIT_FOR_DIALOG_INTERACTION
  7: 0x07A2 [0x29] REQ_SET_WAIT(priority=0x08, entity_id=Melek (ID: 17760297/0x010F0029), tag_num=0x07)
  8: 0x07A9 [0x00] END_REQSTACK()
```
