# Event 65535

## Metadata

| Field           | Value    |
|-----------------|----------|
| Event Index     | 9/36     |
| Offset          | 0x0440   |
| Data Size       | 66 bytes |
| Calculated Size | 66 bytes |
| Instructions    | 16       |

```
      00 01 02 03 04 05 06 07  08 09 0A 0B 0C 0D 0E 0F
      -- -- -- -- -- -- -- --  -- -- -- -- -- -- -- --
0440: 24 16 80 01 80 01 80 25  02 00 10 01 80 00 5A 04  $......%......Z.
0450: 29 0A 01 10 0F 01 19 01  7E 04 02 00 10 02 80 00  ).......~.......
0460: 6A 04 03 01 10 07 80 01  7E 04 02 00 10 03 80 00  j.......~.......
0470: 7E 04 1D 09 80 23 03 01  10 0A 80 01 7E 04 20 00  ~....#......~. .
0480: 21 00                                             !.              
```

## Opcodes

```
  0: 0x0440 [0x24] CREATE_DIALOG(message_id=8650*, default_option=0*, option_flags=0*)
    → "RANK 5...\u0007\u000B\u0001ute005:\u0010/\u0002L\u0017\\u0001v\u0007LEFT ZONE ONCE.\u0007RESET ALL QUEST FLAGS.\u007F1\u0000\u0007"
  1: 0x0447 [0x25] WAIT_DIALOG_SELECT()
  2: 0x0448 [0x02] IF !(Work_Zone[0] == 0*) GOTO 0x045A
  3: 0x0450 [0x29] REQ_SET_WAIT(priority=0x0A, entity_id=DIRECTOR (ID: 17764353/0x010F1001), tag_num=0x19)
  4: 0x0457 [0x01] GOTO 0x047E
  5: 0x045A [0x02] IF !(Work_Zone[0] == 1*) GOTO 0x046A
  6: 0x0462 [0x03] Work_Zone[1] = 99*
  7: 0x0467 [0x01] GOTO 0x047E
  8: 0x046A [0x02] IF !(Work_Zone[0] == 2*) GOTO 0x047E
  9: 0x0472 [0x1D] PRINT_EVENT_MESSAGE(message_id=6692*)
    → "Oh no! Your Adventurers' certificate vanished!\u007F1\u0000\u0007"
 10: 0x0475 [0x23] WAIT_FOR_DIALOG_INTERACTION
 11: 0x0476 [0x03] Work_Zone[1] = 100*
 12: 0x047B [0x01] GOTO 0x047E

SUBROUTINE_047E:
 13: 0x047E [0x20] SET_CLI_EVENT_UC_FLAG: Unlock player control
 14: 0x0480 [0x21] END_EVENT
 15: 0x0481 [0x00] END_REQSTACK()
```
