# Event 65535

## Metadata

| Field           | Value    |
|-----------------|----------|
| Event Index     | 31/36    |
| Offset          | 0x0DFD   |
| Data Size       | 60 bytes |
| Calculated Size | 60 bytes |
| Instructions    | 14       |

```
      00 01 02 03 04 05 06 07  08 09 0A 0B 0C 0D 0E 0F
      -- -- -- -- -- -- -- --  -- -- -- -- -- -- -- --
0DF0:                                         24 77 80               $w.
0E00: 01 80 01 80 25 02 00 10  01 80 00 15 0E 03 01 10  ....%...........
0E10: 78 80 01 35 0E 02 00 10  02 80 00 25 0E 03 01 10  x..5.......%....
0E20: 79 80 01 35 0E 02 00 10  03 80 00 35 0E 03 01 10  y..5.......5....
0E30: 7A 80 01 35 0E 20 00 21  00                       z..5. .!.       
```

## Opcodes

```
  0: 0x0DFD [0x24] CREATE_DIALOG(message_id=6713*, default_option=0*, option_flags=0*)
    → "\u001228\u000Cn\u0007\u000B\u0001@
n\u0016{\u000Cn\u0007\u0003~\u0003b\u0003V\u0003\u0007\u0003\u0013\u000Cn\u0007\u0003]\u0001[\u0003\u0013\u0003t\u0003	\u0003O\u000Cn\u007F1\u0000\u0007"
  1: 0x0E04 [0x25] WAIT_DIALOG_SELECT()
  2: 0x0E05 [0x02] IF !(Work_Zone[0] == 0*) GOTO 0x0E15
  3: 0x0E0D [0x03] Work_Zone[1] = 96*
  4: 0x0E12 [0x01] GOTO 0x0E35

SUBROUTINE_0E15:
  5: 0x0E15 [0x02] IF !(Work_Zone[0] == 1*) GOTO 0x0E25
  6: 0x0E1D [0x03] Work_Zone[1] = 97*
  7: 0x0E22 [0x01] GOTO 0x0E35

SUBROUTINE_0E25:
  8: 0x0E25 [0x02] IF !(Work_Zone[0] == 2*) GOTO 0x0E35
  9: 0x0E2D [0x03] Work_Zone[1] = 98*
 10: 0x0E32 [0x01] GOTO 0x0E35

SUBROUTINE_0E35:
 11: 0x0E35 [0x20] SET_CLI_EVENT_UC_FLAG: Unlock player control
 12: 0x0E37 [0x21] END_EVENT
 13: 0x0E38 [0x00] END_REQSTACK()
```
