# Event 65535

## Metadata

| Field           | Value    |
|-----------------|----------|
| Event Index     | 27/36    |
| Offset          | 0x0CA2   |
| Data Size       | 58 bytes |
| Calculated Size | 58 bytes |
| Instructions    | 13       |

```
      00 01 02 03 04 05 06 07  08 09 0A 0B 0C 0D 0E 0F
      -- -- -- -- -- -- -- --  -- -- -- -- -- -- -- --
0CA0:       24 66 80 01 80 01  80 25 02 00 10 01 80 00    $f.....%......
0CB0: C1 0C 29 09 F0 FF FF 7F  25 03 01 10 67 80 01 D8  ..).....%...g...
0CC0: 0C 02 00 10 02 80 00 D8  0C 29 09 F0 FF FF 7F 25  .........).....%
0CD0: 03 01 10 68 80 01 D8 0C  20 00 21 00              ...h.... .!.    
```

## Opcodes

```
  0: 0x0CA2 [0x24] CREATE_DIALOG(message_id=8665*, default_option=0*, option_flags=0*)
    → "SET WHICH FLAGS?\u0007\u000BZS002mi FLAG.\u0007ZS002end FLAG.\u007F1\u0000\u0007"
  1: 0x0CA9 [0x25] WAIT_DIALOG_SELECT()
  2: 0x0CAA [0x02] IF !(Work_Zone[0] == 0*) GOTO 0x0CC1
  3: 0x0CB2 [0x29] REQ_SET_WAIT(priority=0x09, entity_id=LocalPlayer, tag_num=0x25)
  4: 0x0CB9 [0x03] Work_Zone[1] = 68*
  5: 0x0CBE [0x01] GOTO 0x0CD8

SUBROUTINE_0CC1:
  6: 0x0CC1 [0x02] IF !(Work_Zone[0] == 1*) GOTO 0x0CD8
  7: 0x0CC9 [0x29] REQ_SET_WAIT(priority=0x09, entity_id=LocalPlayer, tag_num=0x25)
  8: 0x0CD0 [0x03] Work_Zone[1] = 69*
  9: 0x0CD5 [0x01] GOTO 0x0CD8

SUBROUTINE_0CD8:
 10: 0x0CD8 [0x20] SET_CLI_EVENT_UC_FLAG: Unlock player control
 11: 0x0CDA [0x21] END_EVENT
 12: 0x0CDB [0x00] END_REQSTACK()
```
