# Event 65535

## Metadata

| Field           | Value    |
|-----------------|----------|
| Event Index     | 20/36    |
| Offset          | 0x09E1   |
| Data Size       | 81 bytes |
| Calculated Size | 81 bytes |
| Instructions    | 17       |

```
      00 01 02 03 04 05 06 07  08 09 0A 0B 0C 0D 0E 0F
      -- -- -- -- -- -- -- --  -- -- -- -- -- -- -- --
09E0:    24 44 80 01 80 01 80  25 02 00 10 01 80 00 00   $D.....%.......
09F0: 0A 29 09 F0 FF FF 7F 26  03 01 10 45 80 01 2E 0A  .).....&...E....
0A00: 02 00 10 02 80 00 17 0A  29 09 F0 FF FF 7F 26 03  ........).....&.
0A10: 01 10 46 80 01 2E 0A 02  00 10 03 80 00 2E 0A 29  ..F............)
0A20: 09 F0 FF FF 7F 26 03 01  10 47 80 01 2E 0A 20 00  .....&...G.... .
0A30: 21 00                                             !.              
```

## Opcodes

```
  0: 0x09E1 [0x24] CREATE_DIALOG(message_id=8658*, default_option=0*, option_flags=0*)
    → "SET WHICH FLAGS?\u0007\u000BSTART FLAG.\u0007TOUCHED DOOR.\u0007QUEST FINISHED.\u007F1\u0000\u0007"
  1: 0x09E8 [0x25] WAIT_DIALOG_SELECT()
  2: 0x09E9 [0x02] IF !(Work_Zone[0] == 0*) GOTO 0x0A00
  3: 0x09F1 [0x29] REQ_SET_WAIT(priority=0x09, entity_id=LocalPlayer, tag_num=0x26)
  4: 0x09F8 [0x03] Work_Zone[1] = 41*
  5: 0x09FD [0x01] GOTO 0x0A2E

SUBROUTINE_0A00:
  6: 0x0A00 [0x02] IF !(Work_Zone[0] == 1*) GOTO 0x0A17
  7: 0x0A08 [0x29] REQ_SET_WAIT(priority=0x09, entity_id=LocalPlayer, tag_num=0x26)
  8: 0x0A0F [0x03] Work_Zone[1] = 42*
  9: 0x0A14 [0x01] GOTO 0x0A2E

SUBROUTINE_0A17:
 10: 0x0A17 [0x02] IF !(Work_Zone[0] == 2*) GOTO 0x0A2E
 11: 0x0A1F [0x29] REQ_SET_WAIT(priority=0x09, entity_id=LocalPlayer, tag_num=0x26)
 12: 0x0A26 [0x03] Work_Zone[1] = 43*
 13: 0x0A2B [0x01] GOTO 0x0A2E

SUBROUTINE_0A2E:
 14: 0x0A2E [0x20] SET_CLI_EVENT_UC_FLAG: Unlock player control
 15: 0x0A30 [0x21] END_EVENT
 16: 0x0A31 [0x00] END_REQSTACK()
```
