# Event 65535

## Metadata

| Field           | Value    |
|-----------------|----------|
| Event Index     | 28/36    |
| Offset          | 0x0CDC   |
| Data Size       | 58 bytes |
| Calculated Size | 58 bytes |
| Instructions    | 13       |

```
      00 01 02 03 04 05 06 07  08 09 0A 0B 0C 0D 0E 0F
      -- -- -- -- -- -- -- --  -- -- -- -- -- -- -- --
0CD0:                                      24 69 80 01              $i..
0CE0: 80 01 80 25 02 00 10 01  80 00 FB 0C 29 09 F0 FF  ...%........)...
0CF0: FF 7F 1F 03 01 10 6A 80  01 12 0D 02 00 10 02 80  ......j.........
0D00: 00 12 0D 29 09 F0 FF FF  7F 1F 03 01 10 6B 80 01  ...).........k..
0D10: 12 0D 20 00 21 00                                 .. .!.          
```

## Opcodes

```
  0: 0x0CDC [0x24] CREATE_DIALOG(message_id=8666*, default_option=0*, option_flags=0*)
    → "SET WHICH FLAGS?\u0007\u000BME003mi FLAG.\u0007ME003end FLAG.\u007F1\u0000\u0007"
  1: 0x0CE3 [0x25] WAIT_DIALOG_SELECT()
  2: 0x0CE4 [0x02] IF !(Work_Zone[0] == 0*) GOTO 0x0CFB
  3: 0x0CEC [0x29] REQ_SET_WAIT(priority=0x09, entity_id=LocalPlayer, tag_num=0x1F)
  4: 0x0CF3 [0x03] Work_Zone[1] = 70*
  5: 0x0CF8 [0x01] GOTO 0x0D12
  6: 0x0CFB [0x02] IF !(Work_Zone[0] == 1*) GOTO 0x0D12
  7: 0x0D03 [0x29] REQ_SET_WAIT(priority=0x09, entity_id=LocalPlayer, tag_num=0x1F)
  8: 0x0D0A [0x03] Work_Zone[1] = 71*
  9: 0x0D0F [0x01] GOTO 0x0D12

SUBROUTINE_0D12:
 10: 0x0D12 [0x20] SET_CLI_EVENT_UC_FLAG: Unlock player control
 11: 0x0D14 [0x21] END_EVENT
 12: 0x0D15 [0x00] END_REQSTACK()
```
