# Event 65535

## Metadata

| Field           | Value    |
|-----------------|----------|
| Event Index     | 25/36    |
| Offset          | 0x0BE9   |
| Data Size       | 58 bytes |
| Calculated Size | 58 bytes |
| Instructions    | 13       |

```
      00 01 02 03 04 05 06 07  08 09 0A 0B 0C 0D 0E 0F
      -- -- -- -- -- -- -- --  -- -- -- -- -- -- -- --
0BE0:                             24 5D 80 01 80 01 80           $].....
0BF0: 25 02 00 10 01 80 00 08  0C 29 09 F0 FF FF 7F 1A  %........)......
0C00: 03 01 10 5E 80 01 1F 0C  02 00 10 02 80 00 1F 0C  ...^............
0C10: 29 09 F0 FF FF 7F 1A 03  01 10 5F 80 01 1F 0C 20  )........._.... 
0C20: 00 21 00                                          .!.             
```

## Opcodes

```
  0: 0x0BE9 [0x24] CREATE_DIALOG(message_id=8663*, default_option=0*, option_flags=0*)
    → "SET WHICH FLAGS?\u0007\u000BJNE003mi FLAG.\u0007JNE003card FLAG.\u007F1\u0000\u0007"
  1: 0x0BF0 [0x25] WAIT_DIALOG_SELECT()
  2: 0x0BF1 [0x02] IF !(Work_Zone[0] == 0*) GOTO 0x0C08
  3: 0x0BF9 [0x29] REQ_SET_WAIT(priority=0x09, entity_id=LocalPlayer, tag_num=0x1A)
  4: 0x0C00 [0x03] Work_Zone[1] = 61*
  5: 0x0C05 [0x01] GOTO 0x0C1F

SUBROUTINE_0C08:
  6: 0x0C08 [0x02] IF !(Work_Zone[0] == 1*) GOTO 0x0C1F
  7: 0x0C10 [0x29] REQ_SET_WAIT(priority=0x09, entity_id=LocalPlayer, tag_num=0x1A)
  8: 0x0C17 [0x03] Work_Zone[1] = 62*
  9: 0x0C1C [0x01] GOTO 0x0C1F

SUBROUTINE_0C1F:
 10: 0x0C1F [0x20] SET_CLI_EVENT_UC_FLAG: Unlock player control
 11: 0x0C21 [0x21] END_EVENT
 12: 0x0C22 [0x00] END_REQSTACK()
```
