# Event 65535

## Metadata

| Field           | Value    |
|-----------------|----------|
| Event Index     | 12/14    |
| Offset          | 0x00D9   |
| Data Size       | 59 bytes |
| Calculated Size | 59 bytes |
| Instructions    | 7        |

```
      00 01 02 03 04 05 06 07  08 09 0A 0B 0C 0D 0E 0F
      -- -- -- -- -- -- -- --  -- -- -- -- -- -- -- --
00D0:                             9F 1F 80 19 92 06 01           .......
00E0: 19 92 06 01 6D 61 69 6E  20 80 1C 17 80 5B 1A 80  ....main ....[..
00F0: F8 FF FF 7F F8 FF FF 7F  61 65 76 32 1C 21 80 5E  ........aev2.!.^
0100: 69 64 6C 30 66 22 80 F8  FF FF 7F F8 FF FF 7F 73  idl0f".........s
0110: 69 72 30 00                                       ir0.            
```

## Opcodes

```
  0: 0x00D9 [0x9F] LOAD_SCHEDULED_TASK_ALT: Load scheduler "main" with entities [Coteaulepoint (ID: 17207833/0x01069219), Coteaulepoint (ID: 17207833/0x01069219)], work=[28*, 0*]
  1: 0x00EA [0x1C] WAIT(10* ticks)
  2: 0x00ED [0x5B] LOAD_EXT_SCHEDULER: Load scheduler "aev2" with entities [EventEntity, EventEntity], work=14*
  3: 0x00FC [0x1C] WAIT(50* ticks)
  4: 0x00FF [0x5E] EventEntity goes idle (kills current action) (animation: "idl0")
  5: 0x0104 [0x66] LOAD_EXT_SCHEDULER_MAIN: Load scheduler "sir0" with entities [EventEntity, EventEntity], work=29*
  6: 0x0113 [0x00] END_REQSTACK()
```
