# Event 65535

## Metadata

| Field           | Value    |
|-----------------|----------|
| Event Index     | 5/13     |
| Offset          | 0x001E   |
| Data Size       | 52 bytes |
| Calculated Size | 52 bytes |
| Instructions    | 10       |

```
      00 01 02 03 04 05 06 07  08 09 0A 0B 0C 0D 0E 0F
      -- -- -- -- -- -- -- --  -- -- -- -- -- -- -- --
0010:                                            32 04                2.
0020: 80 1C 08 80 1F 00 09 80  0A 80 0B 80 1F 01 1F 00  ................
0030: 0C 80 0D 80 0E 80 1F 01  4B BA A2 08 01 0F 80 1C  ........K.......
0040: 10 80 66 11 80 BA A2 08  01 BA A2 08 01 73 68 61  ..f..........sha
0050: 30 00                                             0.              
```

## Opcodes

```
  0: 0x001E [0x32] ExtData[1]->MainSpeed = 40* * 0.1
  1: 0x0021 [0x1C] WAIT(60* ticks)
  2: 0x0024 [0x1F] MOVE_ENTITY: EventEntity moves to X=243.686*, Z=63.702*, Y=-24.000*
  3: 0x002C [0x1F] MOVE_ENTITY: Update entity position (mode=1)
  4: 0x002E [0x1F] MOVE_ENTITY: EventEntity moves to X=238.333*, Z=65.052*, Y=-24.015*
  5: 0x0036 [0x1F] MOVE_ENTITY: Update entity position (mode=1)
  6: 0x0038 [0x4B] UPDATE_ENTITY_YAW(entity=Ukai03 (ID: 17343162/0x0108A2BA), yaw=10.4°*)
  7: 0x003F [0x1C] WAIT(30* ticks)
  8: 0x0042 [0x66] LOAD_EXT_SCHEDULER_MAIN: Load scheduler "sha0" with entities [Ukai03 (ID: 17343162/0x0108A2BA), Ukai03 (ID: 17343162/0x0108A2BA)], work=29*
  9: 0x0051 [0x00] END_REQSTACK()
```
