# Event 63

## Metadata

| Field           | Value    |
|-----------------|----------|
| Event Index     | 19/65    |
| Offset          | 0x0447   |
| Data Size       | 23 bytes |
| Calculated Size | 23 bytes |
| Instructions    | 8        |

```
      00 01 02 03 04 05 06 07  08 09 0A 0B 0C 0D 0E 0F
      -- -- -- -- -- -- -- --  -- -- -- -- -- -- -- --
0440:                      79  00 F8 FF FF 7F F0 FF FF         y........
0450: 7F 1A 2C 0E 1D 30 80 23  1D 31 80 23 21 00        ..,..0.#.1.#!.  
```

## Opcodes

```
  0: 0x0447 [0x79] EventEntity looks at LocalPlayer (Basic look)
  1: 0x0451 [0x1A] CALL_SUBROUTINE(address=0x0E2C)
  2: 0x0454 [0x1D] PRINT_EVENT_MESSAGE(message_id=10490*)
    → "Let's see...\u0007How about we duel it out \u000C\u0000[ /at Horlais Peak/at Balga's Dais/at Balga's Dais/at Horlais Peak/in the Waughroon Shrine/in the Waughroon Shrine/at the Qu'Bia Arena/at the Qu'Bia Arena/in the Waughroon Shrine/at the Qu'Bia Arena/at Horlais Peak/in the Chamber of Oracles/in the Chamber of Oracles/in the Chamber of Oracles/at Balga's Dais]? You know what to do with the \u0001\u0005#\u0002\u0001\u0000\u0000 when you get there, right?\u007F1\u0000\u0007"
  3: 0x0457 [0x23] WAIT_FOR_DIALOG_INTERACTION
  4: 0x0458 [0x1D] PRINT_EVENT_MESSAGE(message_id=10491*)
    → "Now if you show me that \u0001\u0005#\u0002\u0001\u0000\u0000, I'll even teleport you to the battlefield.\u0007Boy, are we going to have some fun!\u007F1\u0000\u0007"
  5: 0x045B [0x23] WAIT_FOR_DIALOG_INTERACTION
  6: 0x045C [0x21] END_EVENT
  7: 0x045D [0x00] END_REQSTACK()
```
