# Event 65535

## Metadata

| Field           | Value    |
|-----------------|----------|
| Event Index     | 9/20     |
| Offset          | 0x006B   |
| Data Size       | 52 bytes |
| Calculated Size | 52 bytes |
| Instructions    | 6        |

```
      00 01 02 03 04 05 06 07  08 09 0A 0B 0C 0D 0E 0F
      -- -- -- -- -- -- -- --  -- -- -- -- -- -- -- --
0060:                                   5B 05 80 2E F2             [....
0070: 04 01 2E F2 04 01 6B 73  69 30 1C 06 80 5B 05 80  ......ksi0...[..
0080: 2D F2 04 01 2D F2 04 01  6B 73 69 30 1C 06 80 5B  -...-...ksi0...[
0090: 05 80 2C F2 04 01 2C F2  04 01 6B 73 69 30 00     ..,...,...ksi0. 
```

## Opcodes

```
  0: 0x006B [0x5B] LOAD_EXT_SCHEDULER(work_offset=1019*, entity1=3 (ID: 17101358/0x0104F22E), entity2=3 (ID: 17101358/0x0104F22E), action="ksi0")
  1: 0x007A [0x1C] WAIT(60* ticks)
  2: 0x007D [0x5B] LOAD_EXT_SCHEDULER(work_offset=1019*, entity1=2 (ID: 17101357/0x0104F22D), entity2=2 (ID: 17101357/0x0104F22D), action="ksi0")
  3: 0x008C [0x1C] WAIT(60* ticks)
  4: 0x008F [0x5B] LOAD_EXT_SCHEDULER(work_offset=1019*, entity1=1 (ID: 17101356/0x0104F22C), entity2=1 (ID: 17101356/0x0104F22C), action="ksi0")
  5: 0x009E [0x00] END_REQSTACK()
```
