# Event 542

## Metadata

| Field           | Value    |
|-----------------|----------|
| Event Index     | 3/9      |
| Offset          | 0x002B   |
| Data Size       | 42 bytes |
| Calculated Size | 42 bytes |
| Instructions    | 14       |

```
      00 01 02 03 04 05 06 07  08 09 0A 0B 0C 0D 0E 0F
      -- -- -- -- -- -- -- --  -- -- -- -- -- -- -- --
0020:                                   4B 2D 21 03 01             K-!..
0030: 05 80 1C 00 80 1D 06 80  23 4B 2D 21 03 01 07 80  ........#K-!....
0040: 1C 00 80 1D 08 80 23 1E  F0 FF FF 7F 1C 00 80 1D  ......#.........
0050: 09 80 23 21 00                                    ..#!.           
```

## Opcodes

```
  0: 0x002B [0x4B] UPDATE_ENTITY_YAW(entity=Mhasbaf (ID: 16982317/0x0103212D), yaw=5.91°*)
  1: 0x0032 [0x1C] WAIT(30* ticks)
  2: 0x0035 [0x1D] PRINT_EVENT_MESSAGE(message_id=5115*)
    → "All is well on the southern front!\u007F1\u0000\u0007"
  3: 0x0038 [0x23] WAIT_FOR_DIALOG_INTERACTION
  4: 0x0039 [0x4B] UPDATE_ENTITY_YAW(entity=Mhasbaf (ID: 16982317/0x0103212D), yaw=16.48°*)
  5: 0x0040 [0x1C] WAIT(30* ticks)
  6: 0x0043 [0x1D] PRINT_EVENT_MESSAGE(message_id=5116*)
    → "All is well on the northern front!\u007F1\u0000\u0007"
  7: 0x0046 [0x23] WAIT_FOR_DIALOG_INTERACTION
  8: 0x0047 [0x1E] EventEntity looks at LocalPlayer and starts talking
  9: 0x004C [0x1C] WAIT(30* ticks)
 10: 0x004F [0x1D] PRINT_EVENT_MESSAGE(message_id=5117*)
    → "I'm practicing my rounds so I can get into the Immortals. Think they'll let me join?\u007F1\u0000\u0007"
 11: 0x0052 [0x23] WAIT_FOR_DIALOG_INTERACTION
 12: 0x0053 [0x21] END_EVENT
 13: 0x0054 [0x00] END_REQSTACK()
```
