# Event 61

## Metadata

| Field           | Value    |
|-----------------|----------|
| Event Index     | 21/149   |
| Offset          | 0x00A6   |
| Data Size       | 55 bytes |
| Calculated Size | 55 bytes |
| Instructions    | 11       |

```
      00 01 02 03 04 05 06 07  08 09 0A 0B 0C 0D 0E 0F
      -- -- -- -- -- -- -- --  -- -- -- -- -- -- -- --
00A0:                   1E F0  FF FF 7F 6F 70 5B 0F 80        .....op[..
00B0: 07 02 05 01 07 02 05 01  6B 65 69 30 2B 07 02 05  ........kei0+...
00C0: 01 10 80 23 2B 07 02 05  01 11 80 23 5B 0F 80 07  ...#+......#[...
00D0: 02 05 01 07 02 05 01 6B  65 69 31 21 00           .......kei1!.   
```

## Opcodes

```
  0: 0x00A6 [0x1E] EventEntity looks at LocalPlayer and starts talking
  1: 0x00AB [0x6F] WAIT_FRAME_DELAY: Yield until WaitTime reaches zero
  2: 0x00AC [0x70] WAIT_ENTITY_RENDER_FLAG: Wait while EventEntity->Render.Flags3 bit 2 is set (cancel turn if not)
  3: 0x00AD [0x5B] LOAD_EXT_SCHEDULER: Load scheduler "kei0" with entities [Rholont (ID: 17105415/0x01050207), Rholont (ID: 17105415/0x01050207)], work=1301*
  4: 0x00BC [0x2B] Rholont (ID: 17105415/0x01050207) [12499*]:
    → "\u0008!\u0007Please return Squire Altennia safely to us!\u007F1\u0000\u0007"
  5: 0x00C3 [0x23] WAIT_FOR_DIALOG_INTERACTION
  6: 0x00C4 [0x2B] Rholont (ID: 17105415/0x01050207) [12500*]:
    → "The Orcish encampment should be in the southern region of Jugner Forest, not far from La Vaule.\u007F1\u0000\u0007"
  7: 0x00CB [0x23] WAIT_FOR_DIALOG_INTERACTION
  8: 0x00CC [0x5B] LOAD_EXT_SCHEDULER: Load scheduler "kei1" with entities [Rholont (ID: 17105415/0x01050207), Rholont (ID: 17105415/0x01050207)], work=1301*
  9: 0x00DB [0x21] END_EVENT
 10: 0x00DC [0x00] END_REQSTACK()
```
