# Event 648

## Metadata

| Field           | Value    |
|-----------------|----------|
| Event Index     | 42/149   |
| Offset          | 0x0259   |
| Data Size       | 53 bytes |
| Calculated Size | 53 bytes |
| Instructions    | 9        |

```
      00 01 02 03 04 05 06 07  08 09 0A 0B 0C 0D 0E 0F
      -- -- -- -- -- -- -- --  -- -- -- -- -- -- -- --
0250:                             20 01 4A 07 02 05 01            .J....
0260: F0 FF FF 7F 5B 00 80 07  02 05 01 07 02 05 01 74  ....[..........t
0270: 6C 61 30 2B 07 02 05 01  24 80 23 5B 00 80 07 02  la0+....$.#[....
0280: 05 01 07 02 05 01 74 6C  61 31 20 00 21 00        ......tla1 .!.  
```

## Opcodes

```
  0: 0x0259 [0x20] SET_CLI_EVENT_UC_FLAG: Lock player control
  1: 0x025B [0x4A] Rholont (ID: 17105415/0x01050207) looks at LocalPlayer
  2: 0x0264 [0x5B] LOAD_EXT_SCHEDULER(work_offset=1272*, entity1=Rholont (ID: 17105415/0x01050207), entity2=Rholont (ID: 17105415/0x01050207), action="tla0")
  3: 0x0273 [0x2B] Rholont (ID: 17105415/0x01050207) [12216*]:
    → "If you seek Captain Rahal, I fear he has yet to return.\u007F1\u0000\u0007"
  4: 0x027A [0x23] WAIT_FOR_DIALOG_INTERACTION
  5: 0x027B [0x5B] LOAD_EXT_SCHEDULER(work_offset=1272*, entity1=Rholont (ID: 17105415/0x01050207), entity2=Rholont (ID: 17105415/0x01050207), action="tla1")
  6: 0x028A [0x20] SET_CLI_EVENT_UC_FLAG: Unlock player control
  7: 0x028C [0x21] END_EVENT
  8: 0x028D [0x00] END_REQSTACK()
```
