# Event 651

## Metadata

| Field           | Value    |
|-----------------|----------|
| Event Index     | 43/149   |
| Offset          | 0x028E   |
| Data Size       | 55 bytes |
| Calculated Size | 55 bytes |
| Instructions    | 9        |

```
      00 01 02 03 04 05 06 07  08 09 0A 0B 0C 0D 0E 0F
      -- -- -- -- -- -- -- --  -- -- -- -- -- -- -- --
0280:                                            4A 07                J.
0290: 02 05 01 F0 FF FF 7F 6F  76 07 02 05 01 5B 00 80  .......ov....[..
02A0: 07 02 05 01 07 02 05 01  74 6C 61 30 2B 07 02 05  ........tla0+...
02B0: 01 25 80 23 5B 00 80 07  02 05 01 07 02 05 01 74  .%.#[..........t
02C0: 6C 61 31 21 00                                    la1!.           
```

## Opcodes

```
  0: 0x028E [0x4A] Rholont (ID: 17105415/0x01050207) looks at LocalPlayer
  1: 0x0297 [0x6F] WAIT_FRAME_DELAY: Yield until WaitTime reaches zero
  2: 0x0298 [0x76] CHECK_ENTITY_RENDER_FLAGS: Wait until Rholont (ID: 17105415/0x01050207) Render.Flags0 and Render.Flags3 conditions are met
  3: 0x029D [0x5B] LOAD_EXT_SCHEDULER: Load scheduler "tla0" with entities [Rholont (ID: 17105415/0x01050207), Rholont (ID: 17105415/0x01050207)], work=1272*
  4: 0x02AC [0x2B] Rholont (ID: 17105415/0x01050207) [12262*]:
    → "That we will never see Machegue again...\u0007The reality of it has yet to sink in.\u007F1\u0000\u0007"
  5: 0x02B3 [0x23] WAIT_FOR_DIALOG_INTERACTION
  6: 0x02B4 [0x5B] LOAD_EXT_SCHEDULER: Load scheduler "tla1" with entities [Rholont (ID: 17105415/0x01050207), Rholont (ID: 17105415/0x01050207)], work=1272*
  7: 0x02C3 [0x21] END_EVENT
  8: 0x02C4 [0x00] END_REQSTACK()
```
