# Event 673

## Metadata

| Field           | Value    |
|-----------------|----------|
| Event Index     | 144/149  |
| Offset          | 0x0A0C   |
| Data Size       | 56 bytes |
| Calculated Size | 56 bytes |
| Instructions    | 10       |

```
      00 01 02 03 04 05 06 07  08 09 0A 0B 0C 0D 0E 0F
      -- -- -- -- -- -- -- --  -- -- -- -- -- -- -- --
0A00:                                      4A 07 02 05              J...
0A10: 01 F0 FF FF 7F 6F 76 07  02 05 01 03 03 10 3A 80  .....ov.......:.
0A20: 5B 00 80 07 02 05 01 07  02 05 01 74 6C 61 30 1D  [..........tla0.
0A30: 3B 80 23 5B 00 80 07 02  05 01 07 02 05 01 74 6C  ;.#[..........tl
0A40: 61 31 21 00                                       a1!.            
```

## Opcodes

```
  0: 0x0A0C [0x4A] Rholont (ID: 17105415/0x01050207) looks at LocalPlayer
  1: 0x0A15 [0x6F] WAIT_FRAME_DELAY: Yield until WaitTime reaches zero
  2: 0x0A16 [0x76] CHECK_ENTITY_RENDER_FLAGS: Wait until Rholont (ID: 17105415/0x01050207) Render.Flags0 and Render.Flags3 conditions are met
  3: 0x0A1B [0x03] Work_Zone[3] = 2510*
  4: 0x0A20 [0x5B] LOAD_EXT_SCHEDULER: Load scheduler "tla0" with entities [Rholont (ID: 17105415/0x01050207), Rholont (ID: 17105415/0x01050207)], work=1272*
  5: 0x0A2F [0x1D] PRINT_EVENT_MESSAGE(message_id=15628*)
    → "Hm? Pray tell, what is that curious \u0001\u00053\u0002\u0001\u0000\u0000 you bear?\u007F1\u0000\u0007"
  6: 0x0A32 [0x23] WAIT_FOR_DIALOG_INTERACTION
  7: 0x0A33 [0x5B] LOAD_EXT_SCHEDULER: Load scheduler "tla1" with entities [Rholont (ID: 17105415/0x01050207), Rholont (ID: 17105415/0x01050207)], work=1272*
  8: 0x0A42 [0x21] END_EVENT
  9: 0x0A43 [0x00] END_REQSTACK()
```
