# Event 674

## Metadata

| Field           | Value    |
|-----------------|----------|
| Event Index     | 145/149  |
| Offset          | 0x0A44   |
| Data Size       | 51 bytes |
| Calculated Size | 51 bytes |
| Instructions    | 9        |

```
      00 01 02 03 04 05 06 07  08 09 0A 0B 0C 0D 0E 0F
      -- -- -- -- -- -- -- --  -- -- -- -- -- -- -- --
0A40:             4A 07 02 05  01 F0 FF FF 7F 6F 76 07      J........ov.
0A50: 02 05 01 5B 00 80 07 02  05 01 07 02 05 01 74 6C  ...[..........tl
0A60: 61 30 1D 3C 80 23 5B 00  80 07 02 05 01 07 02 05  a0.<.#[.........
0A70: 01 74 6C 61 31 21 00                              .tla1!.         
```

## Opcodes

```
  0: 0x0A44 [0x4A] Rholont (ID: 17105415/0x01050207) looks at LocalPlayer
  1: 0x0A4D [0x6F] WAIT_FRAME_DELAY: Yield until WaitTime reaches zero
  2: 0x0A4E [0x76] CHECK_ENTITY_RENDER_FLAGS: Wait until Rholont (ID: 17105415/0x01050207) Render.Flags0 and Render.Flags3 conditions are met
  3: 0x0A53 [0x5B] LOAD_EXT_SCHEDULER: Load scheduler "tla0" with entities [Rholont (ID: 17105415/0x01050207), Rholont (ID: 17105415/0x01050207)], work=1272*
  4: 0x0A62 [0x1D] PRINT_EVENT_MESSAGE(message_id=15629*)
    → "'Tis good to see your face, \u0008. We remain ever concerned about Excenmille, and can only pray that he is safe.\u007F1\u0000\u0007"
  5: 0x0A65 [0x23] WAIT_FOR_DIALOG_INTERACTION
  6: 0x0A66 [0x5B] LOAD_EXT_SCHEDULER: Load scheduler "tla1" with entities [Rholont (ID: 17105415/0x01050207), Rholont (ID: 17105415/0x01050207)], work=1272*
  7: 0x0A75 [0x21] END_EVENT
  8: 0x0A76 [0x00] END_REQSTACK()
```
