# Event 65535

## Metadata

| Field           | Value    |
|-----------------|----------|
| Event Index     | 5/7      |
| Offset          | 0x000C   |
| Data Size       | 56 bytes |
| Calculated Size | 56 bytes |
| Instructions    | 6        |

```
      00 01 02 03 04 05 06 07  08 09 0A 0B 0C 0D 0E 0F
      -- -- -- -- -- -- -- --  -- -- -- -- -- -- -- --
0000:                                      2C C7 40 0F              ,.@.
0010: 01 C7 40 0F 01 63 61 73  6F 53 C7 40 0F 01 C7 40  ..@..casoS.@...@
0020: 0F 01 63 61 73 6F 1C 02  80 2C C7 40 0F 01 C7 40  ..caso...,.@...@
0030: 0F 01 73 68 73 6F 53 C7  40 0F 01 C7 40 0F 01 73  ..shsoS.@...@..s
0040: 68 73 6F 00                                       hso.            
```

## Opcodes

```
  0: 0x000C [0x2C] CREATE_SCHEDULER_TASK: Create scheduler "caso" for entities [Unnamed NPC (ID: 17776839/0x010F40C7), Unnamed NPC (ID: 17776839/0x010F40C7)]
  1: 0x0019 [0x53] WAIT_SCHEDULER_TASK(entity1=Unnamed NPC (ID: 17776839/0x010F40C7), entity2=Unnamed NPC (ID: 17776839/0x010F40C7), action_id="caso")
  2: 0x0026 [0x1C] WAIT(600* ticks)
  3: 0x0029 [0x2C] CREATE_SCHEDULER_TASK: Create scheduler "shso" for entities [Unnamed NPC (ID: 17776839/0x010F40C7), Unnamed NPC (ID: 17776839/0x010F40C7)]
  4: 0x0036 [0x53] WAIT_SCHEDULER_TASK(entity1=Unnamed NPC (ID: 17776839/0x010F40C7), entity2=Unnamed NPC (ID: 17776839/0x010F40C7), action_id="shso")
  5: 0x0043 [0x00] END_REQSTACK()
```
