# Event 65535

## Metadata

| Field           | Value    |
|-----------------|----------|
| Event Index     | 27/34    |
| Offset          | 0x02B9   |
| Data Size       | 67 bytes |
| Calculated Size | 67 bytes |
| Instructions    | 15       |

```
      00 01 02 03 04 05 06 07  08 09 0A 0B 0C 0D 0E 0F
      -- -- -- -- -- -- -- --  -- -- -- -- -- -- -- --
02B0:                             32 05 80 1F 00 52 80           2....R.
02C0: 53 80 54 80 1F 01 4B 95  A0 0E 01 55 80 1C 22 80  S.T...K....U..".
02D0: 1F 00 56 80 57 80 58 80  1F 01 4B 95 A0 0E 01 59  ..V.W.X...K....Y
02E0: 80 1C 5A 80 1F 00 5B 80  5C 80 5D 80 1F 01 1C 3F  ..Z...[.\.]....?
02F0: 80 4B 95 A0 0E 01 5E 80  1C 22 80 00              .K....^.."..    
```

## Opcodes

```
  0: 0x02B9 [0x32] ExtData[1]->MainSpeed = 57* * 0.1
  1: 0x02BC [0x1F] MOVE_ENTITY: EventEntity moves to X=-599.295*, Z=590.678*, Y=0.264*
  2: 0x02C4 [0x1F] MOVE_ENTITY: Update entity position (mode=1)
  3: 0x02C6 [0x4B] UPDATE_ENTITY_YAW(entity=Unnamed NPC (ID: 17735829/0x010EA095), yaw=5.27°*)
  4: 0x02CD [0x1C] WAIT(60* ticks)
  5: 0x02D0 [0x1F] MOVE_ENTITY: EventEntity moves to X=-604.353*, Z=586.292*, Y=0.138*
  6: 0x02D8 [0x1F] MOVE_ENTITY: Update entity position (mode=1)
  7: 0x02DA [0x4B] UPDATE_ENTITY_YAW(entity=Unnamed NPC (ID: 17735829/0x010EA095), yaw=0.20°*)
  8: 0x02E1 [0x1C] WAIT(240* ticks)
  9: 0x02E4 [0x1F] MOVE_ENTITY: EventEntity moves to X=-600.328*, Z=582.410*, Y=0.802*
 10: 0x02EC [0x1F] MOVE_ENTITY: Update entity position (mode=1)
 11: 0x02EE [0x1C] WAIT(30* ticks)
 12: 0x02F1 [0x4B] UPDATE_ENTITY_YAW(entity=Unnamed NPC (ID: 17735829/0x010EA095), yaw=16.63°*)
 13: 0x02F8 [0x1C] WAIT(60* ticks)
 14: 0x02FB [0x00] END_REQSTACK()
```
