# Event 65535

## Metadata

| Field           | Value    |
|-----------------|----------|
| Event Index     | 22/34    |
| Offset          | 0x01BB   |
| Data Size       | 66 bytes |
| Calculated Size | 66 bytes |
| Instructions    | 16       |

```
      00 01 02 03 04 05 06 07  08 09 0A 0B 0C 0D 0E 0F
      -- -- -- -- -- -- -- --  -- -- -- -- -- -- -- --
01B0:                                   32 2E 80 1F 00             2....
01C0: 33 80 34 80 35 80 1F 01  1C 3F 80 1F 00 36 80 37  3.4.5....?...6.7
01D0: 80 38 80 1F 01 1C 3F 80  1F 00 39 80 3A 80 3B 80  .8....?...9.:.;.
01E0: 1F 01 1C 3F 80 1F 00 3C  80 3D 80 3E 80 1F 01 1C  ...?...<.=.>....
01F0: 3F 80 1F 00 2F 80 30 80  31 80 1F 01 00           ?.../.0.1....   
```

## Opcodes

```
  0: 0x01BB [0x32] ExtData[1]->MainSpeed = 19* * 0.1
  1: 0x01BE [0x1F] MOVE_ENTITY: EventEntity moves to X=-601.910*, Z=587.743*, Y=0.274*
  2: 0x01C6 [0x1F] MOVE_ENTITY: Update entity position (mode=1)
  3: 0x01C8 [0x1C] WAIT(30* ticks)
  4: 0x01CB [0x1F] MOVE_ENTITY: EventEntity moves to X=-600.199*, Z=588.994*, Y=0.347*
  5: 0x01D3 [0x1F] MOVE_ENTITY: Update entity position (mode=1)
  6: 0x01D5 [0x1C] WAIT(30* ticks)
  7: 0x01D8 [0x1F] MOVE_ENTITY: EventEntity moves to X=-599.211*, Z=586.089*, Y=0.586*
  8: 0x01E0 [0x1F] MOVE_ENTITY: Update entity position (mode=1)
  9: 0x01E2 [0x1C] WAIT(30* ticks)
 10: 0x01E5 [0x1F] MOVE_ENTITY: EventEntity moves to X=-599.391*, Z=583.375*, Y=0.830*
 11: 0x01ED [0x1F] MOVE_ENTITY: Update entity position (mode=1)
 12: 0x01EF [0x1C] WAIT(30* ticks)
 13: 0x01F2 [0x1F] MOVE_ENTITY: EventEntity moves to X=-600.128*, Z=585.578*, Y=0.628*
 14: 0x01FA [0x1F] MOVE_ENTITY: Update entity position (mode=1)
 15: 0x01FC [0x00] END_REQSTACK()
```
