# 17883927

## Common Data

| Field            | Value                    |
|------------------|--------------------------|
| Zone             | Cirdas Caverns (ID: 270) |
| Block Size       | 104 bytes                |
| Total Events     | 4                        |
| References Count | 7                        |

## List of Events

| Event ID                 | Entrypoint   |   Size |   Instructions |
|--------------------------|--------------|--------|----------------|
| [65535](#event-65535)    | 0x0000       |      1 |              1 |
| [14](#event-14)          | 0x0001       |      1 |              1 |
| [65535.1](#event-655351) | 0x0002       |     26 |              6 |
| [65535.2](#event-655352) | 0x001C       |     13 |              4 |

## DAT References (imed_data)

|   Index | Hex Value   |   Dec Value |
|---------|-------------|-------------|
|       0 | 0x6F1B5     |      455093 |
|       1 | 0x19071     |      102513 |
|       2 | 0x2698      |        9880 |
|       3 | 0x0180      |         384 |
|       4 | 0x0B22      |        2850 |
|       5 | 0x0028      |          40 |
|       6 | 0x0032      |          50 |

## Events

### Event 65535

#### Metadata

| Field        | Value   |
|--------------|---------|
| Entrypoint   | 0x0000  |
| Data Size    | 1 bytes |
| Instructions | 1       |

```
      00 01 02 03 04 05 06 07  08 09 0A 0B 0C 0D 0E 0F
      -- -- -- -- -- -- -- --  -- -- -- -- -- -- -- --
0000: 00                                                .               
```

#### Opcodes

```
  0: 0x0000 [0x00] END_REQSTACK()
```

### Event 14

#### Metadata

| Field        | Value   |
|--------------|---------|
| Entrypoint   | 0x0001  |
| Data Size    | 1 bytes |
| Instructions | 1       |

```
      00 01 02 03 04 05 06 07  08 09 0A 0B 0C 0D 0E 0F
      -- -- -- -- -- -- -- --  -- -- -- -- -- -- -- --
0000:    00                                              .              
```

#### Opcodes

```
  0: 0x0001 [0x00] END_REQSTACK()
```

### Event 65535.1

#### Metadata

| Field        | Value    |
|--------------|----------|
| Entrypoint   | 0x0002   |
| Data Size    | 26 bytes |
| Instructions | 6        |

```
      00 01 02 03 04 05 06 07  08 09 0A 0B 0C 0D 0E 0F
      -- -- -- -- -- -- -- --  -- -- -- -- -- -- -- --
0000:       2F 00 F8 FF FF 7F  37 00 80 01 80 02 80 03    /.....7.......
0010: 80 B6 00 04 80 B6 0F 05  80 22 00 00              ........."..    
```

#### Opcodes

```
  0: 0x0002 [0x2F] EventEntity->Render.Flags0 &= ~0x80000 // Bit 19
  1: 0x0008 [0x37] UPDATE_EVENT_POSITION_AND_DIR: x=455.093*, z=102.513*, y=9.880*, direction=33.7°*
  2: 0x0011 [0xB6] ENTITY_APPEARANCE_HANDLER(case=Hair style, value=2850*)
  3: 0x0015 [0xB6] ENTITY_APPEARANCE_HANDLER(case=Model size, value=40*)
  4: 0x0019 [0x22] ENTITY_HIDE_FLAG(enabled=0x00)
  5: 0x001B [0x00] END_REQSTACK()
```

### Event 65535.2

#### Metadata

| Field        | Value    |
|--------------|----------|
| Entrypoint   | 0x001C   |
| Data Size    | 13 bytes |
| Instructions | 4        |

```
      00 01 02 03 04 05 06 07  08 09 0A 0B 0C 0D 0E 0F
      -- -- -- -- -- -- -- --  -- -- -- -- -- -- -- --
0010:                                      B6 00 06 80              ....
0020: 22 01 2F 01 F8 FF FF 7F  00                       "./......       
```

#### Opcodes

```
  0: 0x001C [0xB6] ENTITY_APPEARANCE_HANDLER(case=Hair style, value=50*)
  1: 0x0020 [0x22] ENTITY_HIDE_FLAG(enabled=0x01)
  2: 0x0022 [0x2F] EventEntity->Render.Flags0 |= 0x80000 // Bit 19
  3: 0x0028 [0x00] END_REQSTACK()
```
