# 17883970 - Nashu

## Common Data

| Field            | Value                    |
|------------------|--------------------------|
| Zone             | Cirdas Caverns (ID: 270) |
| Block Size       | 248 bytes                |
| Total Events     | 10                       |
| References Count | 19                       |

## List of Events

| Event ID                 | Entrypoint   |   Size |   Instructions |
|--------------------------|--------------|--------|----------------|
| [65535](#event-65535)    | 0x0000       |      1 |              1 |
| [27](#event-27)          | 0x0001       |      1 |              1 |
| [65535.1](#event-655351) | 0x0002       |     35 |              7 |
| [65535.2](#event-655352) | 0x0025       |     22 |              6 |
| [28](#event-28)          | 0x003B       |      1 |              1 |
| [32](#event-32)          | 0x003C       |      1 |              1 |
| [65535.3](#event-655353) | 0x003D       |     22 |              6 |
| [65535.4](#event-655354) | 0x0053       |     14 |              4 |
| [33](#event-33)          | 0x0061       |      1 |              1 |
| [65535.5](#event-655355) | 0x0062       |     17 |              5 |

## DAT References (imed_data)

|   Index | Hex Value   |   Dec Value |
|---------|-------------|-------------|
|       0 | 0x0028      |          40 |
|       1 | 0xFFFE5212  |  4294857234 |
|       2 | 0x35263     |      217699 |
|       3 | 0x737E      |       29566 |
|       4 | 0x001E      |          30 |
|       5 | 0x0009      |           9 |
|       6 | 0x0078      |         120 |
|       7 | 0xFFFE720D  |  4294865421 |
|       8 | 0x33FD3     |      212947 |
|       9 | 0x74E8      |       29928 |
|      10 | 0x66BC6     |      420806 |
|      11 | 0xFFFBD6A7  |  4294694567 |
|      12 | 0x9CCC      |       40140 |
|      13 | 0x67B73     |      424819 |
|      14 | 0xFFFC1243  |  4294709827 |
|      15 | 0x8427      |       33831 |
|      16 | 0x5885B     |      362587 |
|      17 | 0x2FDD6     |      196054 |
|      18 | 0x7445      |       29765 |

## Events

### Event 65535

#### Metadata

| Field        | Value   |
|--------------|---------|
| Entrypoint   | 0x0000  |
| Data Size    | 1 bytes |
| Instructions | 1       |

```
      00 01 02 03 04 05 06 07  08 09 0A 0B 0C 0D 0E 0F
      -- -- -- -- -- -- -- --  -- -- -- -- -- -- -- --
0000: 00                                                .               
```

#### Opcodes

```
  0: 0x0000 [0x00] END_REQSTACK()
```

### Event 27

#### Metadata

| Field        | Value   |
|--------------|---------|
| Entrypoint   | 0x0001  |
| Data Size    | 1 bytes |
| Instructions | 1       |

```
      00 01 02 03 04 05 06 07  08 09 0A 0B 0C 0D 0E 0F
      -- -- -- -- -- -- -- --  -- -- -- -- -- -- -- --
0000:    00                                              .              
```

#### Opcodes

```
  0: 0x0001 [0x00] END_REQSTACK()
```

### Event 65535.1

#### Metadata

| Field        | Value    |
|--------------|----------|
| Entrypoint   | 0x0002   |
| Data Size    | 35 bytes |
| Instructions | 7        |

```
      00 01 02 03 04 05 06 07  08 09 0A 0B 0C 0D 0E 0F
      -- -- -- -- -- -- -- --  -- -- -- -- -- -- -- --
0000:       32 00 80 1F 00 01  80 02 80 03 80 1F 01 1C    2.............
0010: 04 80 66 05 80 42 E3 10  01 42 E3 10 01 73 68 61  ..f..B...B...sha
0020: 30 1C 06 80 00                                    0....           
```

#### Opcodes

```
  0: 0x0002 [0x32] ExtData[1]->MainSpeed = 40* * 0.1
  1: 0x0005 [0x1F] MOVE_ENTITY: EventEntity moves to X=-110.062*, Z=217.699*, Y=29.566*
  2: 0x000D [0x1F] MOVE_ENTITY: Update entity position (mode=1)
  3: 0x000F [0x1C] WAIT(30* ticks)
  4: 0x0012 [0x66] LOAD_EXT_SCHEDULER_MAIN: Load scheduler "sha0" with entities [Nashu (ID: 17883970/0x0110E342), Nashu (ID: 17883970/0x0110E342)], work=9*
  5: 0x0021 [0x1C] WAIT(120* ticks)
  6: 0x0024 [0x00] END_REQSTACK()
```

### Event 65535.2

#### Metadata

| Field        | Value    |
|--------------|----------|
| Entrypoint   | 0x0025   |
| Data Size    | 22 bytes |
| Instructions | 6        |

```
      00 01 02 03 04 05 06 07  08 09 0A 0B 0C 0D 0E 0F
      -- -- -- -- -- -- -- --  -- -- -- -- -- -- -- --
0020:                32 00 80  1F 00 07 80 08 80 09 80       2..........
0030: 1F 01 1E 44 E3 10 01 1C  04 80 00                 ...D.......     
```

#### Opcodes

```
  0: 0x0025 [0x32] ExtData[1]->MainSpeed = 40* * 0.1
  1: 0x0028 [0x1F] MOVE_ENTITY: EventEntity moves to X=-101.875*, Z=212.947*, Y=29.928*
  2: 0x0030 [0x1F] MOVE_ENTITY: Update entity position (mode=1)
  3: 0x0032 [0x1E] EventEntity looks at Zunmimi (ID: 17883972/0x0110E344) and starts talking
  4: 0x0037 [0x1C] WAIT(30* ticks)
  5: 0x003A [0x00] END_REQSTACK()
```

### Event 28

#### Metadata

| Field        | Value   |
|--------------|---------|
| Entrypoint   | 0x003B  |
| Data Size    | 1 bytes |
| Instructions | 1       |

```
      00 01 02 03 04 05 06 07  08 09 0A 0B 0C 0D 0E 0F
      -- -- -- -- -- -- -- --  -- -- -- -- -- -- -- --
0030:                                   00                         .    
```

#### Opcodes

```
  0: 0x003B [0x00] END_REQSTACK()
```

### Event 32

#### Metadata

| Field        | Value   |
|--------------|---------|
| Entrypoint   | 0x003C  |
| Data Size    | 1 bytes |
| Instructions | 1       |

```
      00 01 02 03 04 05 06 07  08 09 0A 0B 0C 0D 0E 0F
      -- -- -- -- -- -- -- --  -- -- -- -- -- -- -- --
0030:                                      00                       .   
```

#### Opcodes

```
  0: 0x003C [0x00] END_REQSTACK()
```

### Event 65535.3

#### Metadata

| Field        | Value    |
|--------------|----------|
| Entrypoint   | 0x003D   |
| Data Size    | 22 bytes |
| Instructions | 6        |

```
      00 01 02 03 04 05 06 07  08 09 0A 0B 0C 0D 0E 0F
      -- -- -- -- -- -- -- --  -- -- -- -- -- -- -- --
0030:                                         32 00 80               2..
0040: 1F 00 0A 80 0B 80 0C 80  1F 01 1E F0 FF FF 7F 1C  ................
0050: 04 80 00                                          ...             
```

#### Opcodes

```
  0: 0x003D [0x32] ExtData[1]->MainSpeed = 40* * 0.1
  1: 0x0040 [0x1F] MOVE_ENTITY: EventEntity moves to X=420.806*, Z=-272.729*, Y=40.140*
  2: 0x0048 [0x1F] MOVE_ENTITY: Update entity position (mode=1)
  3: 0x004A [0x1E] EventEntity looks at LocalPlayer and starts talking
  4: 0x004F [0x1C] WAIT(30* ticks)
  5: 0x0052 [0x00] END_REQSTACK()
```

### Event 65535.4

#### Metadata

| Field        | Value    |
|--------------|----------|
| Entrypoint   | 0x0053   |
| Data Size    | 14 bytes |
| Instructions | 4        |

```
      00 01 02 03 04 05 06 07  08 09 0A 0B 0C 0D 0E 0F
      -- -- -- -- -- -- -- --  -- -- -- -- -- -- -- --
0050:          32 00 80 1F 00  0D 80 0E 80 0F 80 1F 01     2............
0060: 00                                                .               
```

#### Opcodes

```
  0: 0x0053 [0x32] ExtData[1]->MainSpeed = 40* * 0.1
  1: 0x0056 [0x1F] MOVE_ENTITY: EventEntity moves to X=424.819*, Z=-257.469*, Y=33.831*
  2: 0x005E [0x1F] MOVE_ENTITY: Update entity position (mode=1)
  3: 0x0060 [0x00] END_REQSTACK()
```

### Event 33

#### Metadata

| Field        | Value   |
|--------------|---------|
| Entrypoint   | 0x0061  |
| Data Size    | 1 bytes |
| Instructions | 1       |

```
      00 01 02 03 04 05 06 07  08 09 0A 0B 0C 0D 0E 0F
      -- -- -- -- -- -- -- --  -- -- -- -- -- -- -- --
0060:    00                                              .              
```

#### Opcodes

```
  0: 0x0061 [0x00] END_REQSTACK()
```

### Event 65535.5

#### Metadata

| Field        | Value    |
|--------------|----------|
| Entrypoint   | 0x0062   |
| Data Size    | 17 bytes |
| Instructions | 5        |

```
      00 01 02 03 04 05 06 07  08 09 0A 0B 0C 0D 0E 0F
      -- -- -- -- -- -- -- --  -- -- -- -- -- -- -- --
0060:       32 00 80 1F 00 10  80 11 80 12 80 1F 01 1C    2.............
0070: 04 80 00                                          ...             
```

#### Opcodes

```
  0: 0x0062 [0x32] ExtData[1]->MainSpeed = 40* * 0.1
  1: 0x0065 [0x1F] MOVE_ENTITY: EventEntity moves to X=362.587*, Z=196.054*, Y=29.765*
  2: 0x006D [0x1F] MOVE_ENTITY: Update entity position (mode=1)
  3: 0x006F [0x1C] WAIT(30* ticks)
  4: 0x0072 [0x00] END_REQSTACK()
```
