# 17883928

## Common Data

| Field            | Value                    |
|------------------|--------------------------|
| Zone             | Cirdas Caverns (ID: 270) |
| Block Size       | 11908 bytes              |
| Total Events     | 6                        |
| References Count | 293                      |

## List of Events

| Event ID              | Entrypoint   |   Size |   Instructions |
|-----------------------|--------------|--------|----------------|
| [65535](#event-65535) | 0x0000       |      1 |              1 |
| [12](#event-12)       | 0x0001       |   3365 |            394 |
| [29](#event-29)       | 0x0D26       |   3299 |            362 |
| [30](#event-30)       | 0x1A09       |   1153 |            138 |
| [34](#event-34)       | 0x1E8A       |   2142 |            269 |
| [36](#event-36)       | 0x26E8       |    734 |             92 |

## DAT References (imed_data)

|   Index | Hex Value   |   Dec Value |
|---------|-------------|-------------|
|       0 | 0x0093      |         147 |
|       1 | 0xFFFDDEAA  |  4294827690 |
|       2 | 0xA64F      |       42575 |
|       3 | 0x272C      |       10028 |
|       4 | 0x0C1F      |        3103 |
|       5 | 0xFFFDE018  |  4294828056 |
|       6 | 0xDBF9      |       56313 |
|       7 | 0x27C9      |       10185 |
|       8 | 0x0BB7      |        2999 |
|       9 | 0x001E      |          30 |
|      10 | 0x0CE9      |        3305 |
|      11 | 0x0042      |          66 |
|      12 | 0x026F      |         623 |
|      13 | 0x0000      |           0 |
|      14 | 0x000F      |          15 |
|      15 | 0x0096      |         150 |
|      16 | 0x00F0      |         240 |
|      17 | 0x0078      |         120 |
|      18 | 0x1E63      |        7779 |
|      19 | 0x00C8      |         200 |
|      20 | 0x003C      |          60 |
|      21 | 0x1E64      |        7780 |
|      22 | 0x1E65      |        7781 |
|      23 | 0x0005      |           5 |
|      24 | 0x0006      |           6 |
|      25 | 0x1E66      |        7782 |
|      26 | 0x0007      |           7 |
|      27 | 0x005A      |          90 |
|      28 | 0x0001      |           1 |
|      29 | 0x0C93      |        3219 |
|      30 | 0x1E34      |        7732 |
|      31 | 0x00B4      |         180 |
|      32 | 0x0002      |           2 |
|      33 | 0x0003      |           3 |
|      34 | 0x1E67      |        7783 |
|      35 | 0x0C90      |        3216 |
|      36 | 0x0C91      |        3217 |
|      37 | 0x1E68      |        7784 |
|      38 | 0x0CEB      |        3307 |
|      39 | 0x00A0      |         160 |
|      40 | 0x1E6A      |        7786 |
|      41 | 0x1E69      |        7785 |
|      42 | 0x0CEA      |        3306 |
|      43 | 0x014A      |         330 |
|      44 | 0x0014      |          20 |
|      45 | 0x1E6B      |        7787 |
|      46 | 0x1E6C      |        7788 |
|      47 | 0x1E6D      |        7789 |
|      48 | 0x1E6E      |        7790 |
|      49 | 0x1E6F      |        7791 |
|      50 | 0x1E70      |        7792 |
|      51 | 0x1E71      |        7793 |
|      52 | 0x0046      |          70 |
|      53 | 0x1E72      |        7794 |
|      54 | 0x1E73      |        7795 |
|      55 | 0x1E74      |        7796 |
|      56 | 0x002D      |          45 |
|      57 | 0x1E75      |        7797 |
|      58 | 0x1E76      |        7798 |
|      59 | 0x1E77      |        7799 |
|      60 | 0x1E78      |        7800 |
|      61 | 0x1E79      |        7801 |
|      62 | 0x1E7A      |        7802 |
|      63 | 0x012C      |         300 |
|      64 | 0x00C9      |         201 |
|      65 | 0x00D7      |         215 |
|      66 | 0xFFFE52EB  |  4294857451 |
|      67 | 0x35756     |      218966 |
|      68 | 0xFFFFEA60  |  4294961760 |
|      69 | 0x0C20      |        3104 |
|      70 | 0xFFFE8130  |  4294869296 |
|      71 | 0x31CE0     |      204000 |
|      72 | 0x7A56      |       31318 |
|      73 | 0x0400      |        1024 |
|      74 | 0x33450     |      210000 |
|      75 | 0xFFFE7D11  |  4294868241 |
|      76 | 0x366DA     |      222938 |
|      77 | 0x751B      |       29979 |
|      78 | 0xFFFE0F8C  |  4294840204 |
|      79 | 0x35D52     |      220498 |
|      80 | 0x7124      |       28964 |
|      81 | 0x0C21      |        3105 |
|      82 | 0xFFFE71EF  |  4294865391 |
|      83 | 0x2C58F     |      181647 |
|      84 | 0x750C      |       29964 |
|      85 | 0x0C0B      |        3083 |
|      86 | 0xFFFE7995  |  4294867349 |
|      87 | 0x2C799     |      182169 |
|      88 | 0x74DE      |       29918 |
|      89 | 0x0BD2      |        3026 |
|      90 | 0xFFFE0B79  |  4294839161 |
|      91 | 0x36409     |      222217 |
|      92 | 0xFFFE09F7  |  4294838775 |
|      93 | 0x35965     |      219493 |
|      94 | 0x710D      |       28941 |
|      95 | 0x0275      |         629 |
|      96 | 0x0D4F      |        3407 |
|      97 | 0x0D66      |        3430 |
|      98 | 0x0064      |         100 |
|      99 | 0x1F2C      |        7980 |
|     100 | 0x00D8      |         216 |
|     101 | 0x0068      |         104 |
|     102 | 0x0060      |          96 |
|     103 | 0x7A4B      |       31307 |
|     104 | 0x0032      |          50 |
|     105 | 0x0D5C      |        3420 |
|     106 | 0x0028      |          40 |
|     107 | 0x0D14      |        3348 |
|     108 | 0x000A      |          10 |
|     109 | 0x0D5D      |        3421 |
|     110 | 0x01C2      |         450 |
|     111 | 0x0021      |          33 |
|     112 | 0x0D15      |        3349 |
|     113 | 0x0122      |         290 |
|     114 | 0x013C      |         316 |
|     115 | 0x0230      |         560 |
|     116 | 0x00CA      |         202 |
|     117 | 0x0074      |         116 |
|     118 | 0x00D5      |         213 |
|     119 | 0x0D53      |        3411 |
|     120 | 0x1F2D      |        7981 |
|     121 | 0x1F2E      |        7982 |
|     122 | 0x1F2F      |        7983 |
|     123 | 0x1F30      |        7984 |
|     124 | 0xFFFE2B40  |  4294847296 |
|     125 | 0x35B60     |      220000 |
|     126 | 0x7530      |       30000 |
|     127 | 0x08A6      |        2214 |
|     128 | 0xFFFDFC46  |  4294835270 |
|     129 | 0x361A2     |      221602 |
|     130 | 0xFFFE1877  |  4294842487 |
|     131 | 0x36A73     |      223859 |
|     132 | 0x7507      |       29959 |
|     133 | 0xFFFDD47A  |  4294825082 |
|     134 | 0x3DBCC     |      252876 |
|     135 | 0x77C3      |       30659 |
|     136 | 0x049F      |        1183 |
|     137 | 0xFFFE0F53  |  4294840147 |
|     138 | 0x3653D     |      222525 |
|     139 | 0x78D9      |       30937 |
|     140 | 0x0039      |          57 |
|     141 | 0x0D2B      |        3371 |
|     142 | 0x0D3E      |        3390 |
|     143 | 0x0D11      |        3345 |
|     144 | 0x00C4      |         196 |
|     145 | 0x00BE      |         190 |
|     146 | 0xFFFDD479  |  4294825081 |
|     147 | 0x3DBCD     |      252877 |
|     148 | 0x77C4      |       30660 |
|     149 | 0x04A0      |        1184 |
|     150 | 0x0D3F      |        3391 |
|     151 | 0x00AC      |         172 |
|     152 | 0x004C      |          76 |
|     153 | 0x0098      |         152 |
|     154 | 0x00C5      |         197 |
|     155 | 0x0044      |          68 |
|     156 | 0x002C      |          44 |
|     157 | 0x0D40      |        3392 |
|     158 | 0x00E6      |         230 |
|     159 | 0x0012      |          18 |
|     160 | 0xFFFE796F  |  4294867311 |
|     161 | 0x3631C     |      221980 |
|     162 | 0x7518      |       29976 |
|     163 | 0x0800      |        2048 |
|     164 | 0x0D2C      |        3372 |
|     165 | 0x0018      |          24 |
|     166 | 0xFFFE694E  |  4294863182 |
|     167 | 0x36509     |      222473 |
|     168 | 0x7627      |       30247 |
|     169 | 0x0D41      |        3393 |
|     170 | 0xFFFE798F  |  4294867343 |
|     171 | 0x31059     |      200793 |
|     172 | 0x7A4C      |       31308 |
|     173 | 0x0C11      |        3089 |
|     174 | 0x0004      |           4 |
|     175 | 0x0058      |          88 |
|     176 | 0xFFFE7C65  |  4294868069 |
|     177 | 0x3055E     |      197982 |
|     178 | 0x7877      |       30839 |
|     179 | 0x007C      |         124 |
|     180 | 0x00D2      |         210 |
|     181 | 0x1F32      |        7986 |
|     182 | 0xFFFE3634  |  4294850100 |
|     183 | 0x359BD     |      219581 |
|     184 | 0x74E6      |       29926 |
|     185 | 0x0F5A      |        3930 |
|     186 | 0x0C65      |        3173 |
|     187 | 0xFFFE21A3  |  4294844835 |
|     188 | 0x35387     |      217991 |
|     189 | 0x749B      |       29851 |
|     190 | 0xFFFE294F  |  4294846799 |
|     191 | 0x3653A     |      222522 |
|     192 | 0x749F      |       29855 |
|     193 | 0x0825      |        2085 |
|     194 | 0x0D2A      |        3370 |
|     195 | 0x0082      |         130 |
|     196 | 0x1F33      |        7987 |
|     197 | 0x1F34      |        7988 |
|     198 | 0x0050      |          80 |
|     199 | 0x1F35      |        7989 |
|     200 | 0x1F36      |        7990 |
|     201 | 0x1F37      |        7991 |
|     202 | 0x1F38      |        7992 |
|     203 | 0x1F39      |        7993 |
|     204 | 0x0D2D      |        3373 |
|     205 | 0x00BD      |         189 |
|     206 | 0x01F4      |         500 |
|     207 | 0x1F3A      |        7994 |
|     208 | 0x1F3B      |        7995 |
|     209 | 0x1F3C      |        7996 |
|     210 | 0x1F3D      |        7997 |
|     211 | 0x0013      |          19 |
|     212 | 0x247F9     |      149497 |
|     213 | 0x2392A     |      145706 |
|     214 | 0x270F      |        9999 |
|     215 | 0x0155      |         341 |
|     216 | 0x25F57     |      155479 |
|     217 | 0x242DB     |      148187 |
|     218 | 0x2747      |       10055 |
|     219 | 0x04B0      |        1200 |
|     220 | 0x25193     |      151955 |
|     221 | 0x2249B     |      140443 |
|     222 | 0x27F4      |       10228 |
|     223 | 0x01A3      |         419 |
|     224 | 0x25DDC     |      155100 |
|     225 | 0x22535     |      140597 |
|     226 | 0x2814      |       10260 |
|     227 | 0x25E51     |      155217 |
|     228 | 0x231C5     |      143813 |
|     229 | 0x2813      |       10259 |
|     230 | 0x012E      |         302 |
|     231 | 0x26585     |      157061 |
|     232 | 0x23036     |      143414 |
|     233 | 0x283C      |       10300 |
|     234 | 0x0AF8      |        2808 |
|     235 | 0x09B8      |        2488 |
|     236 | 0x0AA4      |        2724 |
|     237 | 0x0DF0      |        3568 |
|     238 | 0x02D9      |         729 |
|     239 | 0x0017      |          23 |
|     240 | 0x1F3E      |        7998 |
|     241 | 0x1F3F      |        7999 |
|     242 | 0x1F40      |        8000 |
|     243 | 0x1F41      |        8001 |
|     244 | 0x1F42      |        8002 |
|     245 | 0x1F43      |        8003 |
|     246 | 0x010E      |         270 |
|     247 | 0xFFFFFF78  |  4294967160 |
|     248 | 0x03E8      |        1000 |
|     249 | 0x046A      |        1130 |
|     250 | 0x0081      |         129 |
|     251 | 0x50C67     |      330855 |
|     252 | 0xFFFE2CA0  |  4294847648 |
|     253 | 0x7633      |       30259 |
|     254 | 0x0E03      |        3587 |
|     255 | 0x4FD9A     |      327066 |
|     256 | 0xFFFE28A7  |  4294846631 |
|     257 | 0x7238      |       29240 |
|     258 | 0x506E2     |      329442 |
|     259 | 0xFFFE1E91  |  4294844049 |
|     260 | 0x74C7      |       29895 |
|     261 | 0x0015      |          21 |
|     262 | 0x0DC4      |        3524 |
|     263 | 0x003E      |          62 |
|     264 | 0x006C      |         108 |
|     265 | 0x01E0      |         480 |
|     266 | 0x1F44      |        8004 |
|     267 | 0x1F45      |        8005 |
|     268 | 0x1F46      |        8006 |
|     269 | 0x1F47      |        8007 |
|     270 | 0x1F48      |        8008 |
|     271 | 0x0EE6      |        3814 |
|     272 | 0x28E22     |      167458 |
|     273 | 0x23E68     |      147048 |
|     274 | 0x28A3      |       10403 |
|     275 | 0x06FF      |        1791 |
|     276 | 0x28425     |      164901 |
|     277 | 0x23813     |      145427 |
|     278 | 0x2979      |       10617 |
|     279 | 0x004A      |          74 |
|     280 | 0x0EA5      |        3749 |
|     281 | 0x1F49      |        8009 |
|     282 | 0x1F4A      |        8010 |
|     283 | 0x1F4B      |        8011 |
|     284 | 0x1F4C      |        8012 |
|     285 | 0x1F4D      |        8013 |
|     286 | 0x25E55     |      155221 |
|     287 | 0x24AC8     |      150216 |
|     288 | 0x00A1      |         161 |
|     289 | 0x1F4E      |        8014 |
|     290 | 0x1F4F      |        8015 |
|     291 | 0x1F50      |        8016 |
|     292 | 0x1F51      |        8017 |

## String References

- **7732**: @@
- **7782**: Are you good at sneaking about? [<Shuffle, shuffle>./<Clomp, clomp, clomp>.]
- **7783**: What part of Arciela do you look at? [Her glowing face./Her buxom bosom./Her sheathed hips.]
- **7788**: What do you ask? [Is that the founder king's sword?]
- **7988**: Why did you save them? [I don't need a reason./...]

## Events

### Event 65535

#### Metadata

| Field        | Value   |
|--------------|---------|
| Entrypoint   | 0x0000  |
| Data Size    | 1 bytes |
| Instructions | 1       |

```
      00 01 02 03 04 05 06 07  08 09 0A 0B 0C 0D 0E 0F
      -- -- -- -- -- -- -- --  -- -- -- -- -- -- -- --
0000: 00                                                .               
```

#### Opcodes

```
  0: 0x0000 [0x00] END_REQSTACK()
```

### Event 12

#### Metadata

| Field        | Value      |
|--------------|------------|
| Entrypoint   | 0x0001     |
| Data Size    | 3365 bytes |
| Instructions | 307        |

```
      00 01 02 03 04 05 06 07  08 09 0A 0B 0C 0D 0E 0F
      -- -- -- -- -- -- -- --  -- -- -- -- -- -- -- --
0000:    42 1A F8 0A 03 00 00  02 10 46 01 38 00 80 2F   B........F.8../
0010: 00 19 E3 10 01 4E 00 19  E3 10 01 92 01 19 E3 10  .....N..........
0020: 01 94 01 F0 FF FF 7F 94  01 19 E3 10 01 BA F0 FF  ................
0030: FF 7F 01 80 02 80 03 80  04 80 BA 19 E3 10 01 05  ................
0040: 80 06 80 07 80 08 80 80  F0 FF FF 7F 80 19 E3 10  ................
0050: 01 4A F0 FF FF 7F 19 E3  10 01 1C 09 80 81 00 19  .J..............
0060: E3 10 01 7C 00 19 E3 10  01 5B 0A 80 19 E3 10 01  ...|.....[......
0070: 19 E3 10 01 74 79 6F 30  5C 00 0B 80 5C 01 0B 80  ....tyo0\...\...
0080: 9A 27 05 F0 FF FF 7F 1C  45 0C 80 F8 FF FF 7F F8  .'......E.......
0090: FF FF 7F 73 30 37 30 0D  80 1C 0E 80 1A D7 0A 1C  ...s070.........
00A0: 0F 80 52 0C 80 F8 FF FF  7F F8 FF FF 7F 73 30 37  ..R..........s07
00B0: 30 45 0C 80 F8 FF FF 7F  F8 FF FF 7F 73 30 34 36  0E..........s046
00C0: 0D 80 1C 10 80 4E 01 F0  FF FF 7F 52 0C 80 F8 FF  .....N.....R....
00D0: FF 7F F8 FF FF 7F 73 30  34 36 45 0C 80 F8 FF FF  ......s046E.....
00E0: 7F F8 FF FF 7F 73 30 34  37 0D 80 1C 0F 80 52 0C  .....s047.....R.
00F0: 80 F8 FF FF 7F F8 FF FF  7F 73 30 34 37 45 0C 80  .........s047E..
0100: F8 FF FF 7F F8 FF FF 7F  73 30 34 38 0D 80 1C 11  ........s048....
0110: 80 5B 0A 80 19 E3 10 01  19 E3 10 01 74 79 6F 31  .[..........tyo1
0120: 52 0C 80 F8 FF FF 7F F8  FF FF 7F 73 30 34 38 45  R..........s048E
0130: 0C 80 F8 FF FF 7F F8 FF  FF 7F 73 30 37 31 0D 80  ..........s071..
0140: 1C 0E 80 4E 00 F0 FF FF  7F 80 F0 FF FF 7F 2B 19  ...N..........+.
0150: E3 10 01 12 80 23 53 19  E3 10 01 19 E3 10 01 74  .....#S........t
0160: 79 6F 31 52 0C 80 F8 FF  FF 7F F8 FF FF 7F 73 30  yo1R..........s0
0170: 37 31 45 0C 80 F8 FF FF  7F F8 FF FF 7F 73 30 34  71E..........s04
0180: 39 0D 80 81 01 19 E3 10  01 7C 01 19 E3 10 01 5B  9........|.....[
0190: 0A 80 19 E3 10 01 19 E3  10 01 74 79 6F 32 03 02  ..........tyo2..
01A0: 10 13 80 27 10 35 E3 10  01 01 1C 14 80 2B 19 E3  ...'.5.......+..
01B0: 10 01 15 80 23 52 0C 80  F8 FF FF 7F F8 FF FF 7F  ....#R..........
01C0: 73 30 34 39 45 0C 80 F8  FF FF 7F F8 FF FF 7F 79  s049E..........y
01D0: 73 33 30 0D 80 1C 09 80  2B 19 E3 10 01 16 80 23  s30.....+......#
01E0: 2A 10 35 E3 10 01 52 0C  80 F8 FF FF 7F F8 FF FF  *.5...R.........
01F0: 7F 79 73 33 30 02 87 7F  17 80 80 11 02 45 0C 80  .ys30........E..
0200: F8 FF FF 7F F8 FF FF 7F  73 30 35 31 0D 80 01 3E  ........s051...>
0210: 02 02 87 7F 18 80 80 2D  02 45 0C 80 F8 FF FF 7F  .......-.E......
0220: F8 FF FF 7F 73 30 35 31  0D 80 01 3E 02 45 0C 80  ....s051...>.E..
0230: F8 FF FF 7F F8 FF FF 7F  73 30 35 30 0D 80 1C 0E  ........s050....
0240: 80 6B 69 64 6C 30 19 E3  10 01 4A 19 E3 10 01 F0  .kidl0....J.....
0250: FF FF 7F 24 19 80 0D 80  0D 80 25 02 00 10 0D 80  ...$......%.....
0260: 00 75 02 6E F0 FF FF 7F  1A 80 99 F0 FF FF 7F 1C  .u.n............
0270: 1B 80 01 8F 02 02 00 10  1C 80 00 8F 02 6E F0 FF  .............n..
0280: FF 7F 18 80 99 F0 FF FF  7F 1C 1B 80 01 8F 02 1A  ................
0290: F8 0A 1C 09 80 52 0C 80  F8 FF FF 7F F8 FF FF 7F  .....R..........
02A0: 73 30 35 30 52 0C 80 F8  FF FF 7F F8 FF FF 7F 73  s050R..........s
02B0: 30 35 31 7B 19 E3 10 01  5B 1D 80 19 E3 10 01 19  051{....[.......
02C0: E3 10 01 74 68 6B 30 48  1E 80 23 45 0C 80 F8 FF  ...thk0H..#E....
02D0: FF 7F F8 FF FF 7F 73 30  35 32 0D 80 1A D7 0A 1C  ......s052......
02E0: 1F 80 5B 1D 80 19 E3 10  01 19 E3 10 01 74 68 6B  ..[..........thk
02F0: 31 52 0C 80 F8 FF FF 7F  F8 FF FF 7F 73 30 35 32  1R..........s052
0300: 40 0D 80 1C 80 01 00 0D  80 40 20 80 21 80 01 00  @........@ .!...
0310: 0D 80 45 0C 80 F8 FF FF  7F F8 FF FF 7F 73 30 35  ..E..........s05
0320: 33 0D 80 1C 14 80 24 22  80 0D 80 0D 80 25 02 00  3.....$".....%..
0330: 10 0D 80 00 50 04 52 0C  80 F8 FF FF 7F F8 FF FF  ....P.R.........
0340: 7F 73 30 35 33 45 0C 80  F8 FF FF 7F F8 FF FF 7F  .s053E..........
0350: 73 30 37 32 0D 80 1C 14  80 81 00 19 E3 10 01 7C  s072...........|
0360: 00 19 E3 10 01 5B 23 80  19 E3 10 01 19 E3 10 01  .....[#.........
0370: 66 68 30 30 1C 1B 80 52  0C 80 F8 FF FF 7F F8 FF  fh00...R........
0380: FF 7F 73 30 37 32 45 0C  80 F8 FF FF 7F F8 FF FF  ..s072E.........
0390: 7F 73 30 35 34 0D 80 5B  23 80 19 E3 10 01 19 E3  .s054..[#.......
03A0: 10 01 66 68 30 31 5B 24  80 19 E3 10 01 19 E3 10  ..fh01[$........
03B0: 01 74 6C 6B 30 2B 19 E3  10 01 25 80 1C 14 80 23  .tlk0+....%....#
03C0: 5B 23 80 19 E3 10 01 19  E3 10 01 66 68 30 30 5B  [#.........fh00[
03D0: 24 80 19 E3 10 01 19 E3  10 01 74 6C 6B 31 1C 14  $.........tlk1..
03E0: 80 02 00 00 0D 80 00 1A  04 41 0D 80 1C 80 01 00  .........A......
03F0: 02 10 02 02 10 21 80 03  1A 04 03 01 10 1C 80 43  .....!.........C
0400: 00 43 01 41 0D 80 1C 80  01 00 02 10 07 02 10 1C  .C.A............
0410: 80 40 0D 80 1C 80 01 00  02 10 81 01 19 E3 10 01  .@..............
0420: 7C 01 19 E3 10 01 5B 23  80 19 E3 10 01 19 E3 10  |.....[#........
0430: 01 66 30 30 30 D3 00 19  E3 10 01 52 0C 80 F8 FF  .f000......R....
0440: FF 7F F8 FF FF 7F 73 30  35 34 01 12 03 01 B4 05  ......s054......
0450: 02 00 10 1C 80 00 A9 05  81 00 19 E3 10 01 7C 00  ..............|.
0460: 19 E3 10 01 52 0C 80 F8  FF FF 7F F8 FF FF 7F 73  ....R..........s
0470: 30 35 33 45 0C 80 F8 FF  FF 7F F8 FF FF 7F 73 30  053E..........s0
0480: 37 33 0D 80 1C 0F 80 52  0C 80 F8 FF FF 7F F8 FF  73.....R........
0490: FF 7F 73 30 37 33 29 10  F0 FF FF 7F 03 02 02 10  ..s073).........
04A0: 0D 80 00 F4 04 45 0C 80  F8 FF FF 7F F8 FF FF 7F  .....E..........
04B0: 79 73 33 31 0D 80 5B 26  80 19 E3 10 01 19 E3 10  ys31..[&........
04C0: 01 77 6F 6D 30 03 02 10  27 80 27 10 35 E3 10 01  .wom0...'.'.5...
04D0: 01 2B 19 E3 10 01 28 80  23 2A 10 35 E3 10 01 5B  .+....(.#*.5...[
04E0: 26 80 19 E3 10 01 19 E3  10 01 77 6F 6D 31 1C 14  &.........wom1..
04F0: 80 01 40 05 45 0C 80 F8  FF FF 7F F8 FF FF 7F 73  ..@.E..........s
0500: 30 35 35 0D 80 5B 26 80  19 E3 10 01 19 E3 10 01  055..[&.........
0510: 6D 61 6E 30 03 02 10 11  80 27 10 35 E3 10 01 01  man0.....'.5....
0520: 1C 09 80 2B 19 E3 10 01  29 80 23 2A 10 35 E3 10  ...+....).#*.5..
0530: 01 5B 26 80 19 E3 10 01  19 E3 10 01 6D 61 6E 31  .[&.........man1
0540: 81 01 19 E3 10 01 7C 01  19 E3 10 01 02 00 00 0D  ......|.........
0550: 80 00 85 05 41 20 80 21  80 01 00 02 10 02 02 10  ....A .!........
0560: 21 80 03 85 05 03 01 10  20 80 43 00 43 01 41 20  !....... .C.C.A 
0570: 80 21 80 01 00 02 10 07  02 10 1C 80 40 20 80 21  .!..........@ .!
0580: 80 01 00 02 10 52 0C 80  F8 FF FF 7F F8 FF FF 7F  .....R..........
0590: 79 73 33 31 52 0C 80 F8  FF FF 7F F8 FF FF 7F 73  ys31R..........s
05A0: 30 35 35 01 12 03 01 B4  05 02 00 10 20 80 00 B4  055......... ...
05B0: 05 01 B4 05 52 0C 80 F8  FF FF 7F F8 FF FF 7F 73  ....R..........s
05C0: 30 35 33 45 0C 80 F8 FF  FF 7F F8 FF FF 7F 73 30  053E..........s0
05D0: 37 34 0D 80 1C 1F 80 5B  2A 80 19 E3 10 01 19 E3  74.....[*.......
05E0: 10 01 6B 65 6E 30 03 02  10 2B 80 27 10 35 E3 10  ..ken0...+.'.5..
05F0: 01 01 1C 2C 80 52 0C 80  F8 FF FF 7F F8 FF FF 7F  ...,.R..........
0600: 73 30 37 34 45 0C 80 F8  FF FF 7F F8 FF FF 7F 73  s074E..........s
0610: 30 35 36 0D 80 1C 11 80  2B 19 E3 10 01 2D 80 23  056.....+....-.#
0620: 2A 10 35 E3 10 01 52 0C  80 F8 FF FF 7F F8 FF FF  *.5...R.........
0630: 7F 73 30 35 36 45 0C 80  F8 FF FF 7F F8 FF FF 7F  .s056E..........
0640: 73 30 35 37 0D 80 24 2E  80 0D 80 0D 80 25 02 00  s057..$......%..
0650: 10 0D 80 00 59 06 01 59  06 52 0C 80 F8 FF FF 7F  ....Y..Y.R......
0660: F8 FF FF 7F 73 30 35 37  45 0C 80 F8 FF FF 7F F8  ....s057E.......
0670: FF FF 7F 73 30 35 38 0D  80 2B 19 E3 10 01 2F 80  ...s058..+..../.
0680: 23 52 0C 80 F8 FF FF 7F  F8 FF FF 7F 73 30 35 38  #R..........s058
0690: 45 0C 80 F8 FF FF 7F F8  FF FF 7F 73 30 35 39 0D  E..........s059.
06A0: 80 2B 19 E3 10 01 30 80  23 2B 19 E3 10 01 31 80  .+....0.#+....1.
06B0: 23 52 0C 80 F8 FF FF 7F  F8 FF FF 7F 73 30 35 39  #R..........s059
06C0: 45 0C 80 F8 FF FF 7F F8  FF FF 7F 73 30 36 30 0D  E..........s060.
06D0: 80 1C 14 80 5B 2A 80 19  E3 10 01 19 E3 10 01 6B  ....[*.........k
06E0: 65 6E 61 03 02 10 13 80  27 10 35 E3 10 01 01 2B  ena.....'.5....+
06F0: 19 E3 10 01 32 80 23 2B  19 E3 10 01 33 80 23 2A  ....2.#+....3.#*
0700: 10 35 E3 10 01 6E F0 FF  FF 7F 18 80 99 F0 FF FF  .5...n..........
0710: 7F 1C 34 80 81 00 19 E3  10 01 7C 00 19 E3 10 01  ..4.......|.....
0720: 52 0C 80 F8 FF FF 7F F8  FF FF 7F 73 30 36 30 45  R..........s060E
0730: 0C 80 F8 FF FF 7F F8 FF  FF 7F 73 30 36 31 0D 80  ..........s061..
0740: 5B 23 80 19 E3 10 01 19  E3 10 01 66 68 30 31 5B  [#.........fh01[
0750: 2A 80 19 E3 10 01 19 E3  10 01 6B 65 6E 61 03 02  *.........kena..
0760: 10 13 80 27 10 35 E3 10  01 01 2B 19 E3 10 01 35  ...'.5....+....5
0770: 80 23 2B 19 E3 10 01 36  80 23 2A 10 35 E3 10 01  .#+....6.#*.5...
0780: 52 0C 80 F8 FF FF 7F F8  FF FF 7F 73 30 36 31 45  R..........s061E
0790: 0C 80 F8 FF FF 7F F8 FF  FF 7F 73 30 36 32 0D 80  ..........s062..
07A0: 29 05 F0 FF FF 7F 1B 1C  09 80 81 01 19 E3 10 01  )...............
07B0: 7C 01 19 E3 10 01 5B 23  80 19 E3 10 01 19 E3 10  |.....[#........
07C0: 01 66 30 30 30 D3 00 19  E3 10 01 2B 19 E3 10 01  .f000......+....
07D0: 37 80 23 52 0C 80 F8 FF  FF 7F F8 FF FF 7F 73 30  7.#R..........s0
07E0: 36 32 45 0C 80 F8 FF FF  7F F8 FF FF 7F 73 30 36  62E..........s06
07F0: 33 0D 80 1C 38 80 2B 19  E3 10 01 39 80 23 52 0C  3...8.+....9.#R.
0800: 80 F8 FF FF 7F F8 FF FF  7F 73 30 36 33 45 0C 80  .........s063E..
0810: F8 FF FF 7F F8 FF FF 7F  73 30 37 35 0D 80 5B 2A  ........s075..[*
0820: 80 19 E3 10 01 19 E3 10  01 6B 65 6E 31 1C 1F 80  .........ken1...
0830: 52 0C 80 F8 FF FF 7F F8  FF FF 7F 73 30 37 35 45  R..........s075E
0840: 0C 80 F8 FF FF 7F F8 FF  FF 7F 73 30 36 34 0D 80  ..........s064..
0850: 81 00 19 E3 10 01 7C 00  19 E3 10 01 5B 23 80 19  ......|.....[#..
0860: E3 10 01 19 E3 10 01 66  6A 30 30 1C 11 80 81 01  .......fj00.....
0870: 19 E3 10 01 7C 01 19 E3  10 01 5B 23 80 19 E3 10  ....|.....[#....
0880: 01 19 E3 10 01 66 30 30  30 1C 0E 80 52 0C 80 F8  .....f000...R...
0890: FF FF 7F F8 FF FF 7F 73  30 36 34 45 0C 80 F8 FF  .......s064E....
08A0: FF 7F F8 FF FF 7F 73 30  36 35 0D 80 5B 2A 80 19  ......s065..[*..
08B0: E3 10 01 19 E3 10 01 6B  65 6E 32 2B 19 E3 10 01  .......ken2+....
08C0: 3A 80 23 2B 19 E3 10 01  3B 80 23 52 0C 80 F8 FF  :.#+....;.#R....
08D0: FF 7F F8 FF FF 7F 73 30  36 35 02 87 7F 17 80 80  ......s065......
08E0: F6 08 45 0C 80 F8 FF FF  7F F8 FF FF 7F 79 73 33  ..E..........ys3
08F0: 32 0D 80 01 23 09 02 87  7F 18 80 80 12 09 45 0C  2...#.........E.
0900: 80 F8 FF FF 7F F8 FF FF  7F 79 73 33 32 0D 80 01  .........ys32...
0910: 23 09 45 0C 80 F8 FF FF  7F F8 FF FF 7F 73 30 36  #.E..........s06
0920: 36 0D 80 6E F0 FF FF 7F  1A 80 99 F0 FF FF 7F 1C  6..n............
0930: 2C 80 6B 69 64 6C 30 19  E3 10 01 1C 1B 80 52 0C  ,.kidl0.......R.
0940: 80 F8 FF FF 7F F8 FF FF  7F 73 30 33 32 52 0C 80  .........s032R..
0950: F8 FF FF 7F F8 FF FF 7F  73 30 36 36 45 0C 80 F8  ........s066E...
0960: FF FF 7F F8 FF FF 7F 73  30 36 37 0D 80 5B 24 80  .......s067..[$.
0970: 19 E3 10 01 19 E3 10 01  74 6C 6B 30 2B 19 E3 10  ........tlk0+...
0980: 01 3C 80 23 52 0C 80 F8  FF FF 7F F8 FF FF 7F 73  .<.#R..........s
0990: 30 36 37 45 0C 80 F8 FF  FF 7F F8 FF FF 7F 79 73  067E..........ys
09A0: 33 33 0D 80 1C 14 80 2B  19 E3 10 01 3D 80 1C 11  33.....+....=...
09B0: 80 23 1A F8 0A 1C 0E 80  52 0C 80 F8 FF FF 7F F8  .#......R.......
09C0: FF FF 7F 79 73 33 33 45  0C 80 F8 FF FF 7F F8 FF  ...ys33E........
09D0: FF 7F 73 30 36 38 0D 80  1A D7 0A 5B 24 80 19 E3  ..s068.....[$...
09E0: 10 01 19 E3 10 01 74 6C  6B 31 1C 38 80 2B 19 E3  ......tlk1.8.+..
09F0: 10 01 3E 80 23 53 19 E3  10 01 19 E3 10 01 74 6C  ..>.#S........tl
0A00: 6B 31 52 0C 80 F8 FF FF  7F F8 FF FF 7F 73 30 36  k1R..........s06
0A10: 38 45 0C 80 F8 FF FF 7F  F8 FF FF 7F 73 30 36 39  8E..........s069
0A20: 0D 80 5D 0D 80 3F 80 27  05 19 E3 10 01 02 1C 14  ..]..?.'........
0A30: 80 27 05 F0 FF FF 7F 1D  1C 11 80 1A F8 0A 1C 09  .'..............
0A40: 80 7A 00 19 E3 10 01 7A  00 F0 FF FF 7F 52 0C 80  .z.....z.....R..
0A50: F8 FF FF 7F F8 FF FF 7F  73 30 36 39 45 0C 80 F8  ........s069E...
0A60: FF FF 7F F8 FF FF 7F 30  62 6C 66 0D 80 5C 00 0D  .......0blf..\..
0A70: 80 5C 01 0D 80 9A 1C 0E  80 AB 11 0D 80 1C 1C 80  .\..............
0A80: 46 00 45 13 80 F0 FF FF  7F F0 FF FF 7F 66 64 69  F.E..........fdi
0A90: 32 0D 80 21 00 45 13 80  F0 FF FF 7F F0 FF FF 7F  2..!.E..........
0AA0: 66 64 69 30 0D 80 55 13  80 F0 FF FF 7F F0 FF FF  fdi0..U.........
0AB0: 7F 66 64 69 30 1B 45 13  80 F0 FF FF 7F F0 FF FF  .fdi0.E.........
0AC0: 7F 66 64 6F 30 0D 80 55  13 80 F0 FF FF 7F F0 FF  .fdo0..U........
0AD0: FF 7F 66 64 6F 30 1B 45  13 80 F0 FF FF 7F F0 FF  ..fdo0.E........
0AE0: FF 7F 66 64 69 31 0D 80  55 13 80 F0 FF FF 7F F0  ..fdi1..U.......
0AF0: FF FF 7F 66 64 69 31 1B  45 13 80 F0 FF FF 7F F0  ...fdi1.E.......
0B00: FF FF 7F 66 64 6F 31 0D  80 55 13 80 F0 FF FF 7F  ...fdo1..U......
0B10: F0 FF FF 7F 66 64 6F 31  1B 45 40 80 F0 FF FF 7F  ....fdo1.E@.....
0B20: F0 FF FF 7F 77 68 69 31  0D 80 55 40 80 F0 FF FF  ....whi1..U@....
0B30: 7F F0 FF FF 7F 77 68 69  31 1B 45 40 80 F0 FF FF  .....whi1.E@....
0B40: 7F F0 FF FF 7F 77 68 6F  31 0D 80 55 40 80 F0 FF  .....who1..U@...
0B50: FF 7F F0 FF FF 7F 77 68  6F 31 1B 45 40 80 F0 FF  ......who1.E@...
0B60: FF 7F F0 FF FF 7F 77 68  6F 32 0D 80 55 40 80 F0  ......who2..U@..
0B70: FF FF 7F F0 FF FF 7F 77  68 6F 32 1B 45 40 80 F0  .......who2.E@..
0B80: FF FF 7F F0 FF FF 7F 77  68 6F 33 0D 80 55 40 80  .......who3..U@.
0B90: F0 FF FF 7F F0 FF FF 7F  77 68 6F 33 1B 62 1C 80  ........who3.b..
0BA0: F0 FF FF 7F F0 FF FF 7F  6D 61 69 6E 0D 80 1C 38  ........main...8
0BB0: 80 45 13 80 F0 FF FF 7F  F0 FF FF 7F 66 64 6F 31  .E..........fdo1
0BC0: 0D 80 55 13 80 F0 FF FF  7F F0 FF FF 7F 66 64 6F  ..U..........fdo
0BD0: 31 1B 45 13 80 F0 FF FF  7F F0 FF FF 7F 66 64 69  1.E..........fdi
0BE0: 31 0D 80 62 20 80 F0 FF  FF 7F F0 FF FF 7F 6D 61  1..b .........ma
0BF0: 69 6E 0D 80 1C 09 80 55  13 80 F0 FF FF 7F F0 FF  in.....U........
0C00: FF 7F 66 64 69 31 1B 45  13 80 F0 FF FF 7F F0 FF  ..fdi1.E........
0C10: FF 7F 62 6C 6F 6E 0D 80  45 40 80 F0 FF FF 7F F0  ..blon..E@......
0C20: FF FF 7F 62 6C 6F 6E 0D  80 1B 45 40 80 F0 FF FF  ...blon...E@....
0C30: 7F F0 FF FF 7F 77 68 69  30 0D 80 55 40 80 F0 FF  .....whi0..U@...
0C40: FF 7F F0 FF FF 7F 77 68  69 30 1B 45 40 80 F0 FF  ......whi0.E@...
0C50: FF 7F F0 FF FF 7F 77 68  6F 30 0D 80 55 40 80 F0  ......who0..U@..
0C60: FF FF 7F F0 FF FF 7F 77  68 6F 30 1B 45 41 80 F0  .......who0.EA..
0C70: FF FF 7F F0 FF FF 7F 65  66 6F 6E 0D 80 55 41 80  .......efon..UA.
0C80: F0 FF FF 7F F0 FF FF 7F  65 66 6F 6E 1B 45 13 80  ........efon.E..
0C90: F0 FF FF 7F F0 FF FF 7F  66 64 69 73 0D 80 1B 45  ........fdis...E
0CA0: 13 80 F0 FF FF 7F F0 FF  FF 7F 66 64 6F 73 0D 80  ..........fdos..
0CB0: 55 13 80 F0 FF FF 7F F0  FF FF 7F 66 64 6F 73 1B  U..........fdos.
0CC0: 45 13 80 F0 FF FF 7F F0  FF FF 7F 66 64 69 66 0D  E..........fdif.
0CD0: 80 1B 45 13 80 F0 FF FF  7F F0 FF FF 7F 66 64 6F  ..E..........fdo
0CE0: 66 0D 80 55 13 80 F0 FF  FF 7F F0 FF FF 7F 66 64  f..U..........fd
0CF0: 6F 66 1B 45 13 80 F0 FF  FF 7F F0 FF FF 7F 66 64  of.E..........fd
0D00: 69 70 0D 80 1B 45 13 80  F0 FF FF 7F F0 FF FF 7F  ip...E..........
0D10: 66 64 6F 70 0D 80 55 13  80 F0 FF FF 7F F0 FF FF  fdop..U.........
0D20: 7F 66 64 6F 70 1B                                 .fdop.          
```

#### Opcodes

```
  0: 0x0001 [0x42] SET_CLI_EVENT_CANCEL_DATA()
  1: 0x0002 [0x1A] CALL_SUBROUTINE(address=0x0AF8)
  2: 0x0005 [0x03] ExtData[1]->WorkLocal[0] = Work_Zone[2]
  3: 0x000A [0x46] CAMERA_CONTROL: Disable user control
  4: 0x000C [0x38] SET_CLIENT_EVENT_MODE(mode=147*)
  5: 0x000F [0x2F] Arciela (ID: 17883929/0x0110E319)->Render.Flags0 &= ~0x80000 // Bit 19
  6: 0x0015 [0x4E] SET_ENTITY_HIDE_FLAG: Show Arciela (ID: 17883929/0x0110E319)
  7: 0x001B [0x92] Arciela (ID: 17883929/0x0110E319)->Render.Flags3 ^= 0x01
  8: 0x0021 [0x94] LocalPlayer->Render.Flags3 ^= 0x01
  9: 0x0027 [0x94] Arciela (ID: 17883929/0x0110E319)->Render.Flags3 ^= 0x01
 10: 0x002D [0xBA] SET_ENTITY_POSITION(entity_id=LocalPlayer, pos_x=-139.606*, pos_z=42.575*, pos_y=10.028*, direction=272.7°*)
 11: 0x003A [0xBA] SET_ENTITY_POSITION(entity_id=Arciela (ID: 17883929/0x0110E319), pos_x=-139.240*, pos_z=56.313*, pos_y=10.185*, direction=263.6°*)
 12: 0x0047 [0x80] LOAD_WAIT(entity=LocalPlayer)
 13: 0x004C [0x80] LOAD_WAIT(entity=Arciela (ID: 17883929/0x0110E319))
 14: 0x0051 [0x4A] LocalPlayer looks at Arciela (ID: 17883929/0x0110E319)
 15: 0x005A [0x1C] WAIT(30* ticks)
 16: 0x005D [0x81] SET_ENTITY_BLINKING(blink_flag=0x00, entity=Arciela (ID: 17883929/0x0110E319))
 17: 0x0063 [0x7C] Arciela (ID: 17883929/0x0110E319)->Render.Flags2 |= 0x00
 18: 0x0069 [0x5B] LOAD_EXT_SCHEDULER: Load scheduler "tyo0" with entities [Arciela (ID: 17883929/0x0110E319), Arciela (ID: 17883929/0x0110E319)], work=3305*
 19: 0x0078 [0x5C] MUSIC_CONTROL: Set Idle (Day) music to song 66*
 20: 0x007C [0x5C] MUSIC_CONTROL: Set Idle (Night) music to song 66*
 21: 0x0080 [0x9A] WAIT_MUSIC_SERVER()
 22: 0x0081 [0x27] REQ_SET(priority=0x05, entity_id=LocalPlayer, tag_num=0x1C)
 23: 0x0088 [0x45] LOAD_SCHEDULED_TASK: Load scheduler "s070" with entities [EventEntity, EventEntity], work=[623*, 0*]
 24: 0x0099 [0x1C] WAIT(15* ticks)
 25: 0x009C [0x1A] CALL_SUBROUTINE(address=0x0AD7)
 26: 0x009F [0x1C] WAIT(150* ticks)
 27: 0x00A2 [0x52] END_LOAD_SCHEDULER: End scheduler "s070" with entities [EventEntity, EventEntity], work=623*
 28: 0x00B1 [0x45] LOAD_SCHEDULED_TASK: Load scheduler "s046" with entities [EventEntity, EventEntity], work=[623*, 0*]
 29: 0x00C2 [0x1C] WAIT(240* ticks)
 30: 0x00C5 [0x4E] SET_ENTITY_HIDE_FLAG: Hide LocalPlayer
 31: 0x00CB [0x52] END_LOAD_SCHEDULER: End scheduler "s046" with entities [EventEntity, EventEntity], work=623*
 32: 0x00DA [0x45] LOAD_SCHEDULED_TASK: Load scheduler "s047" with entities [EventEntity, EventEntity], work=[623*, 0*]
 33: 0x00EB [0x1C] WAIT(150* ticks)
 34: 0x00EE [0x52] END_LOAD_SCHEDULER: End scheduler "s047" with entities [EventEntity, EventEntity], work=623*
 35: 0x00FD [0x45] LOAD_SCHEDULED_TASK: Load scheduler "s048" with entities [EventEntity, EventEntity], work=[623*, 0*]
 36: 0x010E [0x1C] WAIT(120* ticks)
 37: 0x0111 [0x5B] LOAD_EXT_SCHEDULER: Load scheduler "tyo1" with entities [Arciela (ID: 17883929/0x0110E319), Arciela (ID: 17883929/0x0110E319)], work=3305*
 38: 0x0120 [0x52] END_LOAD_SCHEDULER: End scheduler "s048" with entities [EventEntity, EventEntity], work=623*
 39: 0x012F [0x45] LOAD_SCHEDULED_TASK: Load scheduler "s071" with entities [EventEntity, EventEntity], work=[623*, 0*]
 40: 0x0140 [0x1C] WAIT(15* ticks)
 41: 0x0143 [0x4E] SET_ENTITY_HIDE_FLAG: Show LocalPlayer
 42: 0x0149 [0x80] LOAD_WAIT(entity=LocalPlayer)
 43: 0x014E [0x2B] Arciela (ID: 17883929/0x0110E319) [7779*]:
    → "Who's there?"
 44: 0x0155 [0x23] WAIT_FOR_DIALOG_INTERACTION
 45: 0x0156 [0x53] WAIT_SCHEDULER_TASK: Wait for scheduler "tyo1" with entities [Arciela (ID: 17883929/0x0110E319), Arciela (ID: 17883929/0x0110E319)]
 46: 0x0163 [0x52] END_LOAD_SCHEDULER: End scheduler "s071" with entities [EventEntity, EventEntity], work=623*
 47: 0x0172 [0x45] LOAD_SCHEDULED_TASK: Load scheduler "s049" with entities [EventEntity, EventEntity], work=[623*, 0*]
 48: 0x0183 [0x81] SET_ENTITY_BLINKING(blink_flag=0x01, entity=Arciela (ID: 17883929/0x0110E319))
 49: 0x0189 [0x7C] Arciela (ID: 17883929/0x0110E319)->Render.Flags2 |= 0x01
 50: 0x018F [0x5B] LOAD_EXT_SCHEDULER: Load scheduler "tyo2" with entities [Arciela (ID: 17883929/0x0110E319), Arciela (ID: 17883929/0x0110E319)], work=3305*
 51: 0x019E [0x03] Work_Zone[2] = 200*
 52: 0x01A3 [0x27] REQ_SET(priority=0x10, entity_id=??? (ID: 17883957/0x0110E335), tag_num=0x01)
 53: 0x01AA [0x1C] WAIT(60* ticks)
 54: 0x01AD [0x2B] Arciela (ID: 17883929/0x0110E319) [7780*]:
    → "...<Player>?"
 55: 0x01B4 [0x23] WAIT_FOR_DIALOG_INTERACTION
 56: 0x01B5 [0x52] END_LOAD_SCHEDULER: End scheduler "s049" with entities [EventEntity, EventEntity], work=623*
 57: 0x01C4 [0x45] LOAD_SCHEDULED_TASK: Load scheduler "ys30" with entities [EventEntity, EventEntity], work=[623*, 0*]
 58: 0x01D5 [0x1C] WAIT(30* ticks)
 59: 0x01D8 [0x2B] Arciela (ID: 17883929/0x0110E319) [7781*]:
    → "You scared me half to death! Are all adventurers silent like ghosts, or are you the only one with such a predilection?"
 60: 0x01DF [0x23] WAIT_FOR_DIALOG_INTERACTION
 61: 0x01E0 [0x2A] GET_REQ_LEVEL(level=16, entity_id=??? (ID: 17883957/0x0110E335))
 62: 0x01E6 [0x52] END_LOAD_SCHEDULER: End scheduler "ys30" with entities [EventEntity, EventEntity], work=623*
 63: 0x01F5 [0x02] IF !(LocalPlayer->Race == 5*) GOTO 0x0211
 64: 0x01FD [0x45] LOAD_SCHEDULED_TASK: Load scheduler "s051" with entities [EventEntity, EventEntity], work=[623*, 0*]
 65: 0x020E [0x01] GOTO 0x023E
 66: 0x0211 [0x02] IF !(LocalPlayer->Race == 6*) GOTO 0x022D
 67: 0x0219 [0x45] LOAD_SCHEDULED_TASK: Load scheduler "s051" with entities [EventEntity, EventEntity], work=[623*, 0*]
 68: 0x022A [0x01] GOTO 0x023E
 69: 0x022D [0x45] LOAD_SCHEDULED_TASK: Load scheduler "s050" with entities [EventEntity, EventEntity], work=[623*, 0*]

SUBROUTINE_023E:
 70: 0x023E [0x1C] WAIT(15* ticks)
 71: 0x0241 [0x6B] STOP_AND_IDLE: Arciela (ID: 17883929/0x0110E319) stops current action and resets to idle (animation="idl0")
 72: 0x024A [0x4A] Arciela (ID: 17883929/0x0110E319) looks at LocalPlayer
 73: 0x0253 [0x24] CREATE_DIALOG(message_id=7782*, default_option=0*, option_flags=0*)
    → "Are you good at sneaking about? [<Shuffle, shuffle>./<Clomp, clomp, clomp>.]"
 74: 0x025A [0x25] WAIT_DIALOG_SELECT()
 75: 0x025B [0x02] IF !(Work_Zone[0] == 0*) GOTO 0x0275
 76: 0x0263 [0x6E] LocalPlayer uses emote 7*
 77: 0x026A [0x99] Wait for LocalPlayer animation to complete
 78: 0x026F [0x1C] WAIT(90* ticks)
 79: 0x0272 [0x01] GOTO 0x028F
 80: 0x0275 [0x02] IF !(Work_Zone[0] == 1*) GOTO 0x028F
 81: 0x027D [0x6E] LocalPlayer uses emote 6*
 82: 0x0284 [0x99] Wait for LocalPlayer animation to complete
 83: 0x0289 [0x1C] WAIT(90* ticks)
 84: 0x028C [0x01] GOTO 0x028F

SUBROUTINE_028F:
 85: 0x028F [0x1A] CALL_SUBROUTINE(address=0x0AF8)
 86: 0x0292 [0x1C] WAIT(30* ticks)
 87: 0x0295 [0x52] END_LOAD_SCHEDULER: End scheduler "s050" with entities [EventEntity, EventEntity], work=623*
 88: 0x02A4 [0x52] END_LOAD_SCHEDULER: End scheduler "s051" with entities [EventEntity, EventEntity], work=623*
 89: 0x02B3 [0x7B] Arciela (ID: 17883929/0x0110E319) stops talking
 90: 0x02B8 [0x5B] LOAD_EXT_SCHEDULER: Load scheduler "thk0" with entities [Arciela (ID: 17883929/0x0110E319), Arciela (ID: 17883929/0x0110E319)], work=3219*
 91: 0x02C7 [0x48] [System] [7732*]:
    → "@@"
 92: 0x02CA [0x23] WAIT_FOR_DIALOG_INTERACTION
 93: 0x02CB [0x45] LOAD_SCHEDULED_TASK: Load scheduler "s052" with entities [EventEntity, EventEntity], work=[623*, 0*]
 94: 0x02DC [0x1A] CALL_SUBROUTINE(address=0x0AD7)
 95: 0x02DF [0x1C] WAIT(180* ticks)
 96: 0x02E2 [0x5B] LOAD_EXT_SCHEDULER: Load scheduler "thk1" with entities [Arciela (ID: 17883929/0x0110E319), Arciela (ID: 17883929/0x0110E319)], work=3219*
 97: 0x02F1 [0x52] END_LOAD_SCHEDULER: End scheduler "s052" with entities [EventEntity, EventEntity], work=623*
 98: 0x0300 [0x40] SET_BIT_WORK_RANGE(start_bit=0*, end_bit=1*, target=ExtData[1]->WorkLocal[1], source=0*)
 99: 0x0309 [0x40] SET_BIT_WORK_RANGE(start_bit=2*, end_bit=3*, target=ExtData[1]->WorkLocal[1], source=0*)

SUBROUTINE_0312:
100: 0x0312 [0x45] LOAD_SCHEDULED_TASK: Load scheduler "s053" with entities [EventEntity, EventEntity], work=[623*, 0*]
101: 0x0323 [0x1C] WAIT(60* ticks)
102: 0x0326 [0x24] CREATE_DIALOG(message_id=7783*, default_option=0*, option_flags=0*)
    → "What part of Arciela do you look at? [Her glowing face./Her buxom bosom./Her sheathed hips.]"
103: 0x032D [0x25] WAIT_DIALOG_SELECT()
104: 0x032E [0x02] IF !(Work_Zone[0] == 0*) GOTO 0x0450
105: 0x0336 [0x52] END_LOAD_SCHEDULER: End scheduler "s053" with entities [EventEntity, EventEntity], work=623*
106: 0x0345 [0x45] LOAD_SCHEDULED_TASK: Load scheduler "s072" with entities [EventEntity, EventEntity], work=[623*, 0*]
107: 0x0356 [0x1C] WAIT(60* ticks)
108: 0x0359 [0x81] SET_ENTITY_BLINKING(blink_flag=0x00, entity=Arciela (ID: 17883929/0x0110E319))
109: 0x035F [0x7C] Arciela (ID: 17883929/0x0110E319)->Render.Flags2 |= 0x00
110: 0x0365 [0x5B] LOAD_EXT_SCHEDULER: Load scheduler "fh00" with entities [Arciela (ID: 17883929/0x0110E319), Arciela (ID: 17883929/0x0110E319)], work=3216*
111: 0x0374 [0x1C] WAIT(90* ticks)
112: 0x0377 [0x52] END_LOAD_SCHEDULER: End scheduler "s072" with entities [EventEntity, EventEntity], work=623*
113: 0x0386 [0x45] LOAD_SCHEDULED_TASK: Load scheduler "s054" with entities [EventEntity, EventEntity], work=[623*, 0*]
114: 0x0397 [0x5B] LOAD_EXT_SCHEDULER: Load scheduler "fh01" with entities [Arciela (ID: 17883929/0x0110E319), Arciela (ID: 17883929/0x0110E319)], work=3216*
115: 0x03A6 [0x5B] LOAD_EXT_SCHEDULER: Load scheduler "tlk0" with entities [Arciela (ID: 17883929/0x0110E319), Arciela (ID: 17883929/0x0110E319)], work=3217*
116: 0x03B5 [0x2B] Arciela (ID: 17883929/0x0110E319) [7784*]:
    → "...What's wrong? Is there something in my teeth?"
117: 0x03BC [0x1C] WAIT(60* ticks)
118: 0x03BF [0x23] WAIT_FOR_DIALOG_INTERACTION
119: 0x03C0 [0x5B] LOAD_EXT_SCHEDULER: Load scheduler "fh00" with entities [Arciela (ID: 17883929/0x0110E319), Arciela (ID: 17883929/0x0110E319)], work=3216*
120: 0x03CF [0x5B] LOAD_EXT_SCHEDULER: Load scheduler "tlk1" with entities [Arciela (ID: 17883929/0x0110E319), Arciela (ID: 17883929/0x0110E319)], work=3217*
121: 0x03DE [0x1C] WAIT(60* ticks)
122: 0x03E1 [0x02] IF !(ExtData[1]->WorkLocal[0] == 0*) GOTO 0x041A
123: 0x03E9 [0x41] Work_Zone[2] = ExtData[1]->WorkLocal[1] (bits 0*-1*)
124: 0x03F2 [0x02] IF !(Work_Zone[2] >= 3*) GOTO 0x041A
125: 0x03FA [0x03] Work_Zone[1] = 1*
126: 0x03FF [0x43] SEND_EVENT_UPDATE: Send pending tag to server (packet 0x005B)
127: 0x0401 [0x43] SEND_EVENT_UPDATE: Check pending flag (skip if not pending)
128: 0x0403 [0x41] Work_Zone[2] = ExtData[1]->WorkLocal[1] (bits 0*-1*)
129: 0x040C [0x07] Work_Zone[2] += 1*
130: 0x0411 [0x40] SET_BIT_WORK_RANGE(start_bit=0*, end_bit=1*, target=ExtData[1]->WorkLocal[1], source=Work_Zone[2])
131: 0x041A [0x81] SET_ENTITY_BLINKING(blink_flag=0x01, entity=Arciela (ID: 17883929/0x0110E319))
132: 0x0420 [0x7C] Arciela (ID: 17883929/0x0110E319)->Render.Flags2 |= 0x01
133: 0x0426 [0x5B] LOAD_EXT_SCHEDULER: Load scheduler "f000" with entities [Arciela (ID: 17883929/0x0110E319), Arciela (ID: 17883929/0x0110E319)], work=3216*
134: 0x0435 [0xD3] CLEAR_ENTITY_MOTION_QUEUE(condition_flag=0x00, entity_server_id=0x0110E319)
135: 0x043B [0x52] END_LOAD_SCHEDULER: End scheduler "s054" with entities [EventEntity, EventEntity], work=623*
136: 0x044A [0x01] GOTO 0x0312

SUBROUTINE_0540:
137: 0x0540 [0x81] SET_ENTITY_BLINKING(blink_flag=0x01, entity=Arciela (ID: 17883929/0x0110E319))
138: 0x0546 [0x7C] Arciela (ID: 17883929/0x0110E319)->Render.Flags2 |= 0x01
139: 0x054C [0x02] IF !(ExtData[1]->WorkLocal[0] == 0*) GOTO 0x0585
140: 0x0554 [0x41] Work_Zone[2] = ExtData[1]->WorkLocal[1] (bits 2*-3*)
141: 0x055D [0x02] IF !(Work_Zone[2] >= 3*) GOTO 0x0585
142: 0x0565 [0x03] Work_Zone[1] = 2*
143: 0x056A [0x43] SEND_EVENT_UPDATE: Send pending tag to server (packet 0x005B)
144: 0x056C [0x43] SEND_EVENT_UPDATE: Check pending flag (skip if not pending)
145: 0x056E [0x41] Work_Zone[2] = ExtData[1]->WorkLocal[1] (bits 2*-3*)
146: 0x0577 [0x07] Work_Zone[2] += 1*
147: 0x057C [0x40] SET_BIT_WORK_RANGE(start_bit=2*, end_bit=3*, target=ExtData[1]->WorkLocal[1], source=Work_Zone[2])
148: 0x0585 [0x52] END_LOAD_SCHEDULER: End scheduler "ys31" with entities [EventEntity, EventEntity], work=623*
149: 0x0594 [0x52] END_LOAD_SCHEDULER: End scheduler "s055" with entities [EventEntity, EventEntity], work=623*
150: 0x05A3 [0x01] GOTO 0x0312

SUBROUTINE_05B4:
151: 0x05B4 [0x52] END_LOAD_SCHEDULER: End scheduler "s053" with entities [EventEntity, EventEntity], work=623*
152: 0x05C3 [0x45] LOAD_SCHEDULED_TASK: Load scheduler "s074" with entities [EventEntity, EventEntity], work=[623*, 0*]
153: 0x05D4 [0x1C] WAIT(180* ticks)
154: 0x05D7 [0x5B] LOAD_EXT_SCHEDULER: Load scheduler "ken0" with entities [Arciela (ID: 17883929/0x0110E319), Arciela (ID: 17883929/0x0110E319)], work=3306*
155: 0x05E6 [0x03] Work_Zone[2] = 330*
156: 0x05EB [0x27] REQ_SET(priority=0x10, entity_id=??? (ID: 17883957/0x0110E335), tag_num=0x01)
157: 0x05F2 [0x1C] WAIT(20* ticks)
158: 0x05F5 [0x52] END_LOAD_SCHEDULER: End scheduler "s074" with entities [EventEntity, EventEntity], work=623*
159: 0x0604 [0x45] LOAD_SCHEDULED_TASK: Load scheduler "s056" with entities [EventEntity, EventEntity], work=[623*, 0*]
160: 0x0615 [0x1C] WAIT(120* ticks)
161: 0x0618 [0x2B] Arciela (ID: 17883929/0x0110E319) [7787*]:
    → "What do you want with my sword?"
162: 0x061F [0x23] WAIT_FOR_DIALOG_INTERACTION
163: 0x0620 [0x2A] GET_REQ_LEVEL(level=16, entity_id=??? (ID: 17883957/0x0110E335))
164: 0x0626 [0x52] END_LOAD_SCHEDULER: End scheduler "s056" with entities [EventEntity, EventEntity], work=623*
165: 0x0635 [0x45] LOAD_SCHEDULED_TASK: Load scheduler "s057" with entities [EventEntity, EventEntity], work=[623*, 0*]
166: 0x0646 [0x24] CREATE_DIALOG(message_id=7788*, default_option=0*, option_flags=0*)
    → "What do you ask? [Is that the founder king's sword?]"
167: 0x064D [0x25] WAIT_DIALOG_SELECT()
168: 0x064E [0x02] IF !(Work_Zone[0] == 0*) GOTO 0x0659
169: 0x0656 [0x01] GOTO 0x0659

SUBROUTINE_0659:
170: 0x0659 [0x52] END_LOAD_SCHEDULER: End scheduler "s057" with entities [EventEntity, EventEntity], work=623*
171: 0x0668 [0x45] LOAD_SCHEDULED_TASK: Load scheduler "s058" with entities [EventEntity, EventEntity], work=[623*, 0*]
172: 0x0679 [0x2B] Arciela (ID: 17883929/0x0110E319) [7789*]:
    → "You know of this blade's story? Then you've spent your time in Adoulin doing more than just pioneering."
173: 0x0680 [0x23] WAIT_FOR_DIALOG_INTERACTION
174: 0x0681 [0x52] END_LOAD_SCHEDULER: End scheduler "s058" with entities [EventEntity, EventEntity], work=623*
175: 0x0690 [0x45] LOAD_SCHEDULED_TASK: Load scheduler "s059" with entities [EventEntity, EventEntity], work=[623*, 0*]
176: 0x06A1 [0x2B] Arciela (ID: 17883929/0x0110E319) [7790*]:
    → "Yes, it was once wielded by the founder king, in a time long past that we now refer to as "The Epoch." He is said to have carried it with him wherever he went."
177: 0x06A8 [0x23] WAIT_FOR_DIALOG_INTERACTION
178: 0x06A9 [0x2B] Arciela (ID: 17883929/0x0110E319) [7791*]:
    → "It's called "Ortharsyne.""
179: 0x06B0 [0x23] WAIT_FOR_DIALOG_INTERACTION
180: 0x06B1 [0x52] END_LOAD_SCHEDULER: End scheduler "s059" with entities [EventEntity, EventEntity], work=623*
181: 0x06C0 [0x45] LOAD_SCHEDULED_TASK: Load scheduler "s060" with entities [EventEntity, EventEntity], work=[623*, 0*]
182: 0x06D1 [0x1C] WAIT(60* ticks)
183: 0x06D4 [0x5B] LOAD_EXT_SCHEDULER: Load scheduler "kena" with entities [Arciela (ID: 17883929/0x0110E319), Arciela (ID: 17883929/0x0110E319)], work=3306*
184: 0x06E3 [0x03] Work_Zone[2] = 200*
185: 0x06E8 [0x27] REQ_SET(priority=0x10, entity_id=??? (ID: 17883957/0x0110E335), tag_num=0x01)
186: 0x06EF [0x2B] Arciela (ID: 17883929/0x0110E319) [7792*]:
    → "You haven't...come here to take it from me, have you?"
187: 0x06F6 [0x23] WAIT_FOR_DIALOG_INTERACTION
188: 0x06F7 [0x2B] Arciela (ID: 17883929/0x0110E319) [7793*]:
    → "If so, you'll have to pry it from my cold, dead hands."
189: 0x06FE [0x23] WAIT_FOR_DIALOG_INTERACTION
190: 0x06FF [0x2A] GET_REQ_LEVEL(level=16, entity_id=??? (ID: 17883957/0x0110E335))
191: 0x0705 [0x6E] LocalPlayer uses emote 6*
192: 0x070C [0x99] Wait for LocalPlayer animation to complete
193: 0x0711 [0x1C] WAIT(70* ticks)
194: 0x0714 [0x81] SET_ENTITY_BLINKING(blink_flag=0x00, entity=Arciela (ID: 17883929/0x0110E319))
195: 0x071A [0x7C] Arciela (ID: 17883929/0x0110E319)->Render.Flags2 |= 0x00
196: 0x0720 [0x52] END_LOAD_SCHEDULER: End scheduler "s060" with entities [EventEntity, EventEntity], work=623*
197: 0x072F [0x45] LOAD_SCHEDULED_TASK: Load scheduler "s061" with entities [EventEntity, EventEntity], work=[623*, 0*]
198: 0x0740 [0x5B] LOAD_EXT_SCHEDULER: Load scheduler "fh01" with entities [Arciela (ID: 17883929/0x0110E319), Arciela (ID: 17883929/0x0110E319)], work=3216*
199: 0x074F [0x5B] LOAD_EXT_SCHEDULER: Load scheduler "kena" with entities [Arciela (ID: 17883929/0x0110E319), Arciela (ID: 17883929/0x0110E319)], work=3306*
200: 0x075E [0x03] Work_Zone[2] = 200*
201: 0x0763 [0x27] REQ_SET(priority=0x10, entity_id=??? (ID: 17883957/0x0110E335), tag_num=0x01)
202: 0x076A [0x2B] Arciela (ID: 17883929/0x0110E319) [7794*]:
    → "Ha ha! It's a joke, <Player>. I know you're not that kind of person."
203: 0x0771 [0x23] WAIT_FOR_DIALOG_INTERACTION
204: 0x0772 [0x2B] Arciela (ID: 17883929/0x0110E319) [7795*]:
    → "I can tell just by staring into those clear, dazzling eyes of yours."
205: 0x0779 [0x23] WAIT_FOR_DIALOG_INTERACTION
206: 0x077A [0x2A] GET_REQ_LEVEL(level=16, entity_id=??? (ID: 17883957/0x0110E335))
207: 0x0780 [0x52] END_LOAD_SCHEDULER: End scheduler "s061" with entities [EventEntity, EventEntity], work=623*
208: 0x078F [0x45] LOAD_SCHEDULED_TASK: Load scheduler "s062" with entities [EventEntity, EventEntity], work=[623*, 0*]
209: 0x07A0 [0x29] REQ_SET_WAIT(priority=0x05, entity_id=LocalPlayer, tag_num=0x1B)
210: 0x07A7 [0x1C] WAIT(30* ticks)
211: 0x07AA [0x81] SET_ENTITY_BLINKING(blink_flag=0x01, entity=Arciela (ID: 17883929/0x0110E319))
212: 0x07B0 [0x7C] Arciela (ID: 17883929/0x0110E319)->Render.Flags2 |= 0x01
213: 0x07B6 [0x5B] LOAD_EXT_SCHEDULER: Load scheduler "f000" with entities [Arciela (ID: 17883929/0x0110E319), Arciela (ID: 17883929/0x0110E319)], work=3216*
214: 0x07C5 [0xD3] CLEAR_ENTITY_MOTION_QUEUE(condition_flag=0x00, entity_server_id=0x0110E319)
215: 0x07CB [0x2B] Arciela (ID: 17883929/0x0110E319) [7796*]:
    → "Hm? You think this sword is the key to meeting the leafkin queen?"
216: 0x07D2 [0x23] WAIT_FOR_DIALOG_INTERACTION
217: 0x07D3 [0x52] END_LOAD_SCHEDULER: End scheduler "s062" with entities [EventEntity, EventEntity], work=623*
218: 0x07E2 [0x45] LOAD_SCHEDULED_TASK: Load scheduler "s063" with entities [EventEntity, EventEntity], work=[623*, 0*]
219: 0x07F3 [0x1C] WAIT(45* ticks)
220: 0x07F6 [0x2B] Arciela (ID: 17883929/0x0110E319) [7797*]:
    → "Are you sure? ... You seem serious about this. It would be an odd thing to lie about, anyway."
221: 0x07FD [0x23] WAIT_FOR_DIALOG_INTERACTION
222: 0x07FE [0x52] END_LOAD_SCHEDULER: End scheduler "s063" with entities [EventEntity, EventEntity], work=623*
223: 0x080D [0x45] LOAD_SCHEDULED_TASK: Load scheduler "s075" with entities [EventEntity, EventEntity], work=[623*, 0*]
224: 0x081E [0x5B] LOAD_EXT_SCHEDULER: Load scheduler "ken1" with entities [Arciela (ID: 17883929/0x0110E319), Arciela (ID: 17883929/0x0110E319)], work=3306*
225: 0x082D [0x1C] WAIT(180* ticks)
226: 0x0830 [0x52] END_LOAD_SCHEDULER: End scheduler "s075" with entities [EventEntity, EventEntity], work=623*
227: 0x083F [0x45] LOAD_SCHEDULED_TASK: Load scheduler "s064" with entities [EventEntity, EventEntity], work=[623*, 0*]
228: 0x0850 [0x81] SET_ENTITY_BLINKING(blink_flag=0x00, entity=Arciela (ID: 17883929/0x0110E319))
229: 0x0856 [0x7C] Arciela (ID: 17883929/0x0110E319)->Render.Flags2 |= 0x00
230: 0x085C [0x5B] LOAD_EXT_SCHEDULER: Load scheduler "fj00" with entities [Arciela (ID: 17883929/0x0110E319), Arciela (ID: 17883929/0x0110E319)], work=3216*
231: 0x086B [0x1C] WAIT(120* ticks)
232: 0x086E [0x81] SET_ENTITY_BLINKING(blink_flag=0x01, entity=Arciela (ID: 17883929/0x0110E319))
233: 0x0874 [0x7C] Arciela (ID: 17883929/0x0110E319)->Render.Flags2 |= 0x01
234: 0x087A [0x5B] LOAD_EXT_SCHEDULER: Load scheduler "f000" with entities [Arciela (ID: 17883929/0x0110E319), Arciela (ID: 17883929/0x0110E319)], work=3216*
235: 0x0889 [0x1C] WAIT(15* ticks)
236: 0x088C [0x52] END_LOAD_SCHEDULER: End scheduler "s064" with entities [EventEntity, EventEntity], work=623*
237: 0x089B [0x45] LOAD_SCHEDULED_TASK: Load scheduler "s065" with entities [EventEntity, EventEntity], work=[623*, 0*]
238: 0x08AC [0x5B] LOAD_EXT_SCHEDULER: Load scheduler "ken2" with entities [Arciela (ID: 17883929/0x0110E319), Arciela (ID: 17883929/0x0110E319)], work=3306*
239: 0x08BB [0x2B] Arciela (ID: 17883929/0x0110E319) [7798*]:
    → "But you know full well I cannot possibly just hand it over."
240: 0x08C2 [0x23] WAIT_FOR_DIALOG_INTERACTION
241: 0x08C3 [0x2B] Arciela (ID: 17883929/0x0110E319) [7799*]:
    → "In other words...I'll join you on your quest."
242: 0x08CA [0x23] WAIT_FOR_DIALOG_INTERACTION
243: 0x08CB [0x52] END_LOAD_SCHEDULER: End scheduler "s065" with entities [EventEntity, EventEntity], work=623*
244: 0x08DA [0x02] IF !(LocalPlayer->Race == 5*) GOTO 0x08F6
245: 0x08E2 [0x45] LOAD_SCHEDULED_TASK: Load scheduler "ys32" with entities [EventEntity, EventEntity], work=[623*, 0*]
246: 0x08F3 [0x01] GOTO 0x0923
247: 0x08F6 [0x02] IF !(LocalPlayer->Race == 6*) GOTO 0x0912
248: 0x08FE [0x45] LOAD_SCHEDULED_TASK: Load scheduler "ys32" with entities [EventEntity, EventEntity], work=[623*, 0*]
249: 0x090F [0x01] GOTO 0x0923
250: 0x0912 [0x45] LOAD_SCHEDULED_TASK: Load scheduler "s066" with entities [EventEntity, EventEntity], work=[623*, 0*]

SUBROUTINE_0923:
251: 0x0923 [0x6E] LocalPlayer uses emote 7*
252: 0x092A [0x99] Wait for LocalPlayer animation to complete
253: 0x092F [0x1C] WAIT(20* ticks)
254: 0x0932 [0x6B] STOP_AND_IDLE: Arciela (ID: 17883929/0x0110E319) stops current action and resets to idle (animation="idl0")
255: 0x093B [0x1C] WAIT(90* ticks)
256: 0x093E [0x52] END_LOAD_SCHEDULER: End scheduler "s032" with entities [EventEntity, EventEntity], work=623*
257: 0x094D [0x52] END_LOAD_SCHEDULER: End scheduler "s066" with entities [EventEntity, EventEntity], work=623*
258: 0x095C [0x45] LOAD_SCHEDULED_TASK: Load scheduler "s067" with entities [EventEntity, EventEntity], work=[623*, 0*]
259: 0x096D [0x5B] LOAD_EXT_SCHEDULER: Load scheduler "tlk0" with entities [Arciela (ID: 17883929/0x0110E319), Arciela (ID: 17883929/0x0110E319)], work=3217*
260: 0x097C [0x2B] Arciela (ID: 17883929/0x0110E319) [7800*]:
    → "We've met each other in the wilds before, <Player>, so you know I'm not content watching from the sidelines. This leafkin queen--if the rumors about her existence are true, then she must reside in Yorcia Weald."
261: 0x0983 [0x23] WAIT_FOR_DIALOG_INTERACTION
262: 0x0984 [0x52] END_LOAD_SCHEDULER: End scheduler "s067" with entities [EventEntity, EventEntity], work=623*
263: 0x0993 [0x45] LOAD_SCHEDULED_TASK: Load scheduler "ys33" with entities [EventEntity, EventEntity], work=[623*, 0*]
264: 0x09A4 [0x1C] WAIT(60* ticks)
265: 0x09A7 [0x2B] Arciela (ID: 17883929/0x0110E319) [7801*]:
    → "If you look at your map of these caverns, the exit to Yorcia Weald lies at coordinates I-7."
266: 0x09AE [0x1C] WAIT(120* ticks)
267: 0x09B1 [0x23] WAIT_FOR_DIALOG_INTERACTION
268: 0x09B2 [0x1A] CALL_SUBROUTINE(address=0x0AF8)
269: 0x09B5 [0x1C] WAIT(15* ticks)
270: 0x09B8 [0x52] END_LOAD_SCHEDULER: End scheduler "ys33" with entities [EventEntity, EventEntity], work=623*
271: 0x09C7 [0x45] LOAD_SCHEDULED_TASK: Load scheduler "s068" with entities [EventEntity, EventEntity], work=[623*, 0*]
272: 0x09D8 [0x1A] CALL_SUBROUTINE(address=0x0AD7)
273: 0x09DB [0x5B] LOAD_EXT_SCHEDULER: Load scheduler "tlk1" with entities [Arciela (ID: 17883929/0x0110E319), Arciela (ID: 17883929/0x0110E319)], work=3217*
274: 0x09EA [0x1C] WAIT(45* ticks)
275: 0x09ED [0x2B] Arciela (ID: 17883929/0x0110E319) [7802*]:
    → "Come on, <Player>! Our adventure starts here!"
276: 0x09F4 [0x23] WAIT_FOR_DIALOG_INTERACTION
277: 0x09F5 [0x53] WAIT_SCHEDULER_TASK: Wait for scheduler "tlk1" with entities [Arciela (ID: 17883929/0x0110E319), Arciela (ID: 17883929/0x0110E319)]
278: 0x0A02 [0x52] END_LOAD_SCHEDULER: End scheduler "s068" with entities [EventEntity, EventEntity], work=623*
279: 0x0A11 [0x45] LOAD_SCHEDULED_TASK: Load scheduler "s069" with entities [EventEntity, EventEntity], work=[623*, 0*]
280: 0x0A22 [0x5D] SET_MUSIC_VOLUME(volume=0*, fade_time=300*)
281: 0x0A27 [0x27] REQ_SET(priority=0x05, entity_id=Arciela (ID: 17883929/0x0110E319), tag_num=0x02)
282: 0x0A2E [0x1C] WAIT(60* ticks)
283: 0x0A31 [0x27] REQ_SET(priority=0x05, entity_id=LocalPlayer, tag_num=0x1D)
284: 0x0A38 [0x1C] WAIT(120* ticks)
285: 0x0A3B [0x1A] CALL_SUBROUTINE(address=0x0AF8)
286: 0x0A3E [0x1C] WAIT(30* ticks)
287: 0x0A41 [0x7A] VM_CONTROL: Reset VM for Arciela (ID: 17883929/0x0110E319)
288: 0x0A47 [0x7A] VM_CONTROL: Reset VM for LocalPlayer
289: 0x0A4D [0x52] END_LOAD_SCHEDULER: End scheduler "s069" with entities [EventEntity, EventEntity], work=623*
290: 0x0A5C [0x45] LOAD_SCHEDULED_TASK: Load scheduler "0blf" with entities [EventEntity, EventEntity], work=[623*, 0*]
291: 0x0A6D [0x5C] MUSIC_CONTROL: Set Idle (Day) music to song 0*
292: 0x0A71 [0x5C] MUSIC_CONTROL: Set Idle (Night) music to song 0*
293: 0x0A75 [0x9A] WAIT_MUSIC_SERVER()
294: 0x0A76 [0x1C] WAIT(15* ticks)
295: 0x0A79 [0xAB] EventEntity->DespawnValue = 0* // Set despawn value
296: 0x0A7D [0x1C] WAIT(1* ticks)
297: 0x0A80 [0x46] CAMERA_CONTROL: Restore default settings
298: 0x0A82 [0x45] LOAD_SCHEDULED_TASK: Load scheduler "fdi2" with entities [LocalPlayer, LocalPlayer], work=[200*, 0*]
299: 0x0A93 [0x21] END_EVENT
300: 0x0A94 [0x00] END_REQSTACK()

SUBROUTINE_0AD7:
301: 0x0AD7 [0x45] LOAD_SCHEDULED_TASK: Load scheduler "fdi1" with entities [LocalPlayer, LocalPlayer], work=[200*, 0*]
302: 0x0AE8 [0x55] WAIT_LOAD_SCHEDULER: Wait for scheduler "fdi1" with entities [LocalPlayer, LocalPlayer], work=200*
303: 0x0AF7 [0x1B] RETURN

SUBROUTINE_0AF8:
304: 0x0AF8 [0x45] LOAD_SCHEDULED_TASK: Load scheduler "fdo1" with entities [LocalPlayer, LocalPlayer], work=[200*, 0*]
305: 0x0B09 [0x55] WAIT_LOAD_SCHEDULER: Wait for scheduler "fdo1" with entities [LocalPlayer, LocalPlayer], work=200*
306: 0x0B18 [0x1B] RETURN
```

#### Data or dead code:

```
# Dead code (unreachable instructions):
     0x044D [0x01] GOTO 0x05B4
# Dead code (unreachable instructions):
     0x05A6 [0x01] GOTO 0x05B4
# Dead code (unreachable instructions):
     0x0A95 [0x45] LOAD_SCHEDULED_TASK: Load scheduler "fdi0" with entities [LocalPlayer, LocalPlayer], work=[200*, 0*]
     0x0AA6 [0x55] WAIT_LOAD_SCHEDULER: Wait for scheduler "fdi0" with entities [LocalPlayer, LocalPlayer], work=200*
     0x0AB5 [0x1B] RETURN
     0x0AB6 [0x45] LOAD_SCHEDULED_TASK: Load scheduler "fdo0" with entities [LocalPlayer, LocalPlayer], work=[200*, 0*]
     0x0AC7 [0x55] WAIT_LOAD_SCHEDULER: Wait for scheduler "fdo0" with entities [LocalPlayer, LocalPlayer], work=200*
     0x0AD6 [0x1B] RETURN
# Dead code (unreachable instructions):
     0x0B19 [0x45] LOAD_SCHEDULED_TASK: Load scheduler "whi1" with entities [LocalPlayer, LocalPlayer], work=[201*, 0*]
     0x0B2A [0x55] WAIT_LOAD_SCHEDULER: Wait for scheduler "whi1" with entities [LocalPlayer, LocalPlayer], work=201*
     0x0B39 [0x1B] RETURN
     0x0B3A [0x45] LOAD_SCHEDULED_TASK: Load scheduler "who1" with entities [LocalPlayer, LocalPlayer], work=[201*, 0*]
     0x0B4B [0x55] WAIT_LOAD_SCHEDULER: Wait for scheduler "who1" with entities [LocalPlayer, LocalPlayer], work=201*
     0x0B5A [0x1B] RETURN
     0x0B5B [0x45] LOAD_SCHEDULED_TASK: Load scheduler "who2" with entities [LocalPlayer, LocalPlayer], work=[201*, 0*]
     0x0B6C [0x55] WAIT_LOAD_SCHEDULER: Wait for scheduler "who2" with entities [LocalPlayer, LocalPlayer], work=201*
     0x0B7B [0x1B] RETURN
     0x0B7C [0x45] LOAD_SCHEDULED_TASK: Load scheduler "who3" with entities [LocalPlayer, LocalPlayer], work=[201*, 0*]
     0x0B8D [0x55] WAIT_LOAD_SCHEDULER: Wait for scheduler "who3" with entities [LocalPlayer, LocalPlayer], work=201*
     0x0B9C [0x1B] RETURN
     0x0B9D [0x62] LOAD_EVENT_SCHEDULER: Load scheduler "main" with entities [LocalPlayer, LocalPlayer], work=[1*, 0*]
     0x0BAE [0x1C] WAIT(45* ticks)
     0x0BB1 [0x45] LOAD_SCHEDULED_TASK: Load scheduler "fdo1" with entities [LocalPlayer, LocalPlayer], work=[200*, 0*]
     0x0BC2 [0x55] WAIT_LOAD_SCHEDULER: Wait for scheduler "fdo1" with entities [LocalPlayer, LocalPlayer], work=200*
     0x0BD1 [0x1B] RETURN
     0x0BD2 [0x45] LOAD_SCHEDULED_TASK: Load scheduler "fdi1" with entities [LocalPlayer, LocalPlayer], work=[200*, 0*]
     0x0BE3 [0x62] LOAD_EVENT_SCHEDULER: Load scheduler "main" with entities [LocalPlayer, LocalPlayer], work=[2*, 0*]
     0x0BF4 [0x1C] WAIT(30* ticks)
     0x0BF7 [0x55] WAIT_LOAD_SCHEDULER: Wait for scheduler "fdi1" with entities [LocalPlayer, LocalPlayer], work=200*
     0x0C06 [0x1B] RETURN
     0x0C07 [0x45] LOAD_SCHEDULED_TASK: Load scheduler "blon" with entities [LocalPlayer, LocalPlayer], work=[200*, 0*]
     0x0C18 [0x45] LOAD_SCHEDULED_TASK: Load scheduler "blon" with entities [LocalPlayer, LocalPlayer], work=[201*, 0*]
     0x0C29 [0x1B] RETURN
     0x0C2A [0x45] LOAD_SCHEDULED_TASK: Load scheduler "whi0" with entities [LocalPlayer, LocalPlayer], work=[201*, 0*]
     0x0C3B [0x55] WAIT_LOAD_SCHEDULER: Wait for scheduler "whi0" with entities [LocalPlayer, LocalPlayer], work=201*
     0x0C4A [0x1B] RETURN
     0x0C4B [0x45] LOAD_SCHEDULED_TASK: Load scheduler "who0" with entities [LocalPlayer, LocalPlayer], work=[201*, 0*]
     0x0C5C [0x55] WAIT_LOAD_SCHEDULER: Wait for scheduler "who0" with entities [LocalPlayer, LocalPlayer], work=201*
     0x0C6B [0x1B] RETURN
     0x0C6C [0x45] LOAD_SCHEDULED_TASK: Load scheduler "efon" with entities [LocalPlayer, LocalPlayer], work=[215*, 0*]
     0x0C7D [0x55] WAIT_LOAD_SCHEDULER: Wait for scheduler "efon" with entities [LocalPlayer, LocalPlayer], work=215*
     0x0C8C [0x1B] RETURN
     0x0C8D [0x45] LOAD_SCHEDULED_TASK: Load scheduler "fdis" with entities [LocalPlayer, LocalPlayer], work=[200*, 0*]
     0x0C9E [0x1B] RETURN
     0x0C9F [0x45] LOAD_SCHEDULED_TASK: Load scheduler "fdos" with entities [LocalPlayer, LocalPlayer], work=[200*, 0*]
     0x0CB0 [0x55] WAIT_LOAD_SCHEDULER: Wait for scheduler "fdos" with entities [LocalPlayer, LocalPlayer], work=200*
     0x0CBF [0x1B] RETURN
     0x0CC0 [0x45] LOAD_SCHEDULED_TASK: Load scheduler "fdif" with entities [LocalPlayer, LocalPlayer], work=[200*, 0*]
     0x0CD1 [0x1B] RETURN
     0x0CD2 [0x45] LOAD_SCHEDULED_TASK: Load scheduler "fdof" with entities [LocalPlayer, LocalPlayer], work=[200*, 0*]
     0x0CE3 [0x55] WAIT_LOAD_SCHEDULER: Wait for scheduler "fdof" with entities [LocalPlayer, LocalPlayer], work=200*
     0x0CF2 [0x1B] RETURN
     0x0CF3 [0x45] LOAD_SCHEDULED_TASK: Load scheduler "fdip" with entities [LocalPlayer, LocalPlayer], work=[200*, 0*]
     0x0D04 [0x1B] RETURN
     0x0D05 [0x45] LOAD_SCHEDULED_TASK: Load scheduler "fdop" with entities [LocalPlayer, LocalPlayer], work=[200*, 0*]
     0x0D16 [0x55] WAIT_LOAD_SCHEDULER: Wait for scheduler "fdop" with entities [LocalPlayer, LocalPlayer], work=200*
     0x0D25 [0x1B] RETURN
```

### Event 29

#### Metadata

| Field        | Value      |
|--------------|------------|
| Entrypoint   | 0x0D26     |
| Data Size    | 3299 bytes |
| Instructions | 362        |

```
      00 01 02 03 04 05 06 07  08 09 0A 0B 0C 0D 0E 0F
      -- -- -- -- -- -- -- --  -- -- -- -- -- -- -- --
0D20:                   42 1A  F8 0A 46 01 38 00 80 03        B...F.8...
0D30: 01 10 1C 80 43 00 43 01  03 00 00 03 10 2F 00 1A  ....C.C....../..
0D40: E3 10 01 2F 00 1B E3 10  01 2F 00 1C E3 10 01 2F  .../...../...../
0D50: 00 1D E3 10 01 2F 00 1E  E3 10 01 2F 00 1F E3 10  ...../...../....
0D60: 01 2F 00 20 E3 10 01 2F  00 21 E3 10 01 2F 00 22  ./. .../.!.../."
0D70: E3 10 01 2F 00 23 E3 10  01 2F 00 24 E3 10 01 2F  .../.#.../.$.../
0D80: 00 25 E3 10 01 4E 00 F0  FF FF 7F 4E 00 1A E3 10  .%...N.....N....
0D90: 01 4E 00 1B E3 10 01 4E  00 1C E3 10 01 4E 00 1D  .N.....N.....N..
0DA0: E3 10 01 4E 00 1E E3 10  01 4E 00 1F E3 10 01 4E  ...N.....N.....N
0DB0: 00 20 E3 10 01 4E 00 21  E3 10 01 4E 00 22 E3 10  . ...N.!...N."..
0DC0: 01 4E 00 23 E3 10 01 4E  00 24 E3 10 01 4E 00 25  .N.#...N.$...N.%
0DD0: E3 10 01 92 01 1B E3 10  01 92 01 1C E3 10 01 94  ................
0DE0: 01 F0 FF FF 7F 94 01 1A  E3 10 01 94 01 1B E3 10  ................
0DF0: 01 94 01 1C E3 10 01 94  01 1D E3 10 01 94 01 1E  ................
0E00: E3 10 01 94 01 1F E3 10  01 94 01 20 E3 10 01 94  ........... ....
0E10: 01 21 E3 10 01 94 01 22  E3 10 01 94 01 23 E3 10  .!.....".....#..
0E20: 01 94 01 24 E3 10 01 94  01 25 E3 10 01 59 05 F0  ...$.....%...Y..
0E30: FF FF 7F 01 59 05 1A E3  10 01 01 59 05 1B E3 10  ....Y......Y....
0E40: 01 01 59 05 1C E3 10 01  01 59 05 1D E3 10 01 01  ..Y......Y......
0E50: 59 05 1E E3 10 01 01 59  05 1F E3 10 01 01 59 05  Y......Y......Y.
0E60: 20 E3 10 01 01 59 05 22  E3 10 01 01 59 05 23 E3   ....Y."....Y.#.
0E70: 10 01 01 BA F0 FF FF 7F  42 80 43 80 44 80 45 80  ........B.C.D.E.
0E80: BA 1A E3 10 01 46 80 47  80 48 80 49 80 BA 1B E3  .....F.G.H.I....
0E90: 10 01 46 80 4A 80 48 80  49 80 BA 1C E3 10 01 46  ..F.J.H.I......F
0EA0: 80 4A 80 48 80 49 80 BA  1D E3 10 01 46 80 4A 80  .J.H.I......F.J.
0EB0: 48 80 49 80 BA 1E E3 10  01 46 80 4A 80 48 80 49  H.I......F.J.H.I
0EC0: 80 BA 1F E3 10 01 4B 80  4C 80 4D 80 49 80 BA 20  ......K.L.M.I.. 
0ED0: E3 10 01 46 80 4A 80 48  80 49 80 BA 21 E3 10 01  ...F.J.H.I..!...
0EE0: 4E 80 4F 80 50 80 51 80  BA 22 E3 10 01 52 80 53  N.O.P.Q.."...R.S
0EF0: 80 54 80 55 80 BA 23 E3  10 01 56 80 57 80 58 80  .T.U..#...V.W.X.
0F00: 59 80 BA 24 E3 10 01 5A  80 5B 80 50 80 51 80 BA  Y..$...Z.[.P.Q..
0F10: 25 E3 10 01 5C 80 5D 80  5E 80 51 80 80 F0 FF FF  %...\.].^.Q.....
0F20: 7F 80 1A E3 10 01 80 1C  E3 10 01 80 1D E3 10 01  ................
0F30: 80 1E E3 10 01 80 1F E3  10 01 80 20 E3 10 01 80  ........... ....
0F40: 22 E3 10 01 80 23 E3 10  01 1C 09 80 27 05 24 E3  "....#......'.$.
0F50: 10 01 02 1C 0E 80 27 05  21 E3 10 01 02 1C 0E 80  ......'.!.......
0F60: 27 05 25 E3 10 01 02 45  5F 80 F8 FF FF 7F F8 FF  '.%....E_.......
0F70: FF 7F 73 31 36 39 0D 80  1C 0E 80 45 13 80 F0 FF  ..s169.....E....
0F80: FF 7F F0 FF FF 7F 66 64  69 31 0D 80 1C 1B 80 52  ......fdi1.....R
0F90: 5F 80 F8 FF FF 7F F8 FF  FF 7F 73 31 36 39 45 5F  _.........s169E_
0FA0: 80 F8 FF FF 7F F8 FF FF  7F 73 31 37 30 0D 80 1C  .........s170...
0FB0: 1B 80 5B 60 80 1B E3 10  01 1B E3 10 01 61 74 61  ..[`.........ata
0FC0: 30 1C 09 80 52 5F 80 F8  FF FF 7F F8 FF FF 7F 73  0...R_.........s
0FD0: 31 37 30 5F 03 61 80 1A  E3 10 01 1A E3 10 01 63  170_.a.........c
0FE0: 6D 6F 6E 5F 03 61 80 1A  E3 10 01 1A E3 10 01 61  mon_.a.........a
0FF0: 74 61 30 45 5F 80 F8 FF  FF 7F F8 FF FF 7F 61 74  ta0E_.........at
1000: 61 73 0D 80 1C 62 80 2B  1B E3 10 01 63 80 5F 03  as...b.+....c._.
1010: 61 80 1A E3 10 01 1A E3  10 01 61 74 61 31 1C 64  a.........ata1.d
1020: 80 5F 03 61 80 1A E3 10  01 1A E3 10 01 61 74 61  ._.a.........ata
1030: 32 1C 65 80 BA 1A E3 10  01 46 80 4A 80 48 80 49  2.e......F.J.H.I
1040: 80 5F 03 61 80 1A E3 10  01 1A E3 10 01 67 61 72  ._.a.........gar
1050: 30 1C 66 80 BA 1A E3 10  01 46 80 4A 80 67 80 49  0.f......F.J.g.I
1060: 80 5F 03 61 80 1A E3 10  01 1A E3 10 01 67 61 72  ._.a.........gar
1070: 31 4E 01 21 E3 10 01 4E  01 24 E3 10 01 4E 01 25  1N.!...N.$...N.%
1080: E3 10 01 1C 68 80 5F 03  69 80 1C E3 10 01 1C E3  ....h._.i.......
1090: 10 01 6B 65 69 30 BA 22  E3 10 01 46 80 4A 80 48  ..kei0."...F.J.H
10A0: 80 49 80 1C 6A 80 5F 03  6B 80 22 E3 10 01 22 E3  .I..j._.k."...".
10B0: 10 01 6B 65 69 30 1C 6C  80 5F 02 1A E3 10 01 BA  ..kei0.l._......
10C0: 1A E3 10 01 46 80 4A 80  48 80 49 80 BA 1B E3 10  ....F.J.H.I.....
10D0: 01 46 80 4A 80 48 80 49  80 5F 03 61 80 1A E3 10  .F.J.H.I._.a....
10E0: 01 1A E3 10 01 6B 65 69  30 5F 03 60 80 1B E3 10  .....kei0_.`....
10F0: 01 1B E3 10 01 6B 65 69  30 5F 03 6D 80 1D E3 10  .....kei0_.m....
1100: 01 1D E3 10 01 6B 65 69  30 1C 6E 80 BA 1A E3 10  .....kei0.n.....
1110: 01 46 80 4A 80 48 80 49  80 5F 03 61 80 1A E3 10  .F.J.H.I._.a....
1120: 01 1A E3 10 01 67 61 72  32 1C 6F 80 5F 03 6D 80  .....gar2.o._.m.
1130: 1D E3 10 01 1D E3 10 01  6B 65 69 31 6B 69 64 6C  ........kei1kidl
1140: 30 1C E3 10 01 1C 14 80  BA 23 E3 10 01 46 80 4A  0........#...F.J
1150: 80 48 80 49 80 5F 03 60  80 1B E3 10 01 1B E3 10  .H.I._.`........
1160: 01 6B 65 69 31 5F 03 6B  80 22 E3 10 01 22 E3 10  .kei1_.k."..."..
1170: 01 6B 65 69 31 5F 03 70  80 23 E3 10 01 23 E3 10  .kei1_.p.#...#..
1180: 01 6B 65 69 30 1C 21 80  BA 1A E3 10 01 46 80 4A  .kei0.!......F.J
1190: 80 48 80 49 80 5F 03 61  80 1A E3 10 01 1A E3 10  .H.I._.a........
11A0: 01 6B 65 69 31 1C 71 80  5F 03 61 80 1A E3 10 01  .kei1.q._.a.....
11B0: 1A E3 10 01 79 75 64 30  5F 03 70 80 23 E3 10 01  ....yud0_.p.#...
11C0: 23 E3 10 01 79 75 64 30  45 5F 80 F8 FF FF 7F F8  #...yud0E_......
11D0: FF FF 7F 79 75 64 73 0D  80 1C 72 80 5F 03 61 80  ...yuds...r._.a.
11E0: 1A E3 10 01 1A E3 10 01  75 73 69 30 5F 03 60 80  ........usi0_.`.
11F0: 1B E3 10 01 1B E3 10 01  75 73 69 30 1C 73 80 CD  ........usi0.s..
1200: 74 80 1F E3 10 01 1F E3  10 01 73 30 30 31 0D 80  t.........s001..
1210: 1C 75 80 1A F8 0A 1C 09  80 6B 69 64 6C 30 1B E3  .u.......kidl0..
1220: 10 01 6B 69 64 6C 30 1C  E3 10 01 6B 69 64 6C 30  ..kidl0....kidl0
1230: 22 E3 10 01 6B 69 64 6C  30 23 E3 10 01 27 05 1C  "...kidl0#...'..
1240: E3 10 01 02 5F 03 61 80  1A E3 10 01 1A E3 10 01  ...._.a.........
1250: 63 6D 6F 66 5F 02 1A E3  10 01 6B 69 64 6C 30 1B  cmof_.....kidl0.
1260: E3 10 01 6B 69 64 6C 30  22 E3 10 01 6B 69 64 6C  ...kidl0"...kidl
1270: 30 23 E3 10 01 22 00 33  01 59 05 1C E3 10 01 01  0#...".3.Y......
1280: BA 1C E3 10 01 42 80 43  80 0D 80 45 80 37 42 80  .....B.C...E.7B.
1290: 43 80 44 80 45 80 80 F8  FF FF 7F 80 1C E3 10 01  C.D.E...........
12A0: 1C 09 80 81 00 1C E3 10  01 C5 76 80 F8 FF FF 7F  ..........v.....
12B0: F8 FF FF 7F 73 30 30 30  0D 80 5B 77 80 1C E3 10  ....s000..[w....
12C0: 01 1C E3 10 01 6E 65 6E  30 27 05 F0 FF FF 7F 1E  .....nen0'......
12D0: 45 5F 80 F8 FF FF 7F F8  FF FF 7F 73 31 34 39 0D  E_.........s149.
12E0: 80 1C 0E 80 45 13 80 F0  FF FF 7F F0 FF FF 7F 66  ....E..........f
12F0: 64 69 31 0D 80 1C 11 80  52 5F 80 F8 FF FF 7F F8  di1.....R_......
1300: FF FF 7F 73 31 34 39 02  87 7F 17 80 80 23 13 45  ...s149......#.E
1310: 5F 80 F8 FF FF 7F F8 FF  FF 7F 73 31 35 31 0D 80  _.........s151..
1320: 01 50 13 02 87 7F 18 80  80 3F 13 45 5F 80 F8 FF  .P.......?.E_...
1330: FF 7F F8 FF FF 7F 73 31  35 31 0D 80 01 50 13 45  ......s151...P.E
1340: 5F 80 F8 FF FF 7F F8 FF  FF 7F 73 31 35 30 0D 80  _.........s150..
1350: 2B 1C E3 10 01 78 80 23  2A 05 F0 FF FF 7F 52 5F  +....x.#*.....R_
1360: 80 F8 FF FF 7F F8 FF FF  7F 73 31 35 30 52 5F 80  .........s150R_.
1370: F8 FF FF 7F F8 FF FF 7F  73 31 35 31 45 5F 80 F8  ........s151E_..
1380: FF FF 7F F8 FF FF 7F 73  31 35 32 0D 80 5B 77 80  .......s152..[w.
1390: 1C E3 10 01 1C E3 10 01  6E 65 6E 31 2B 1C E3 10  ........nen1+...
13A0: 01 79 80 23 52 5F 80 F8  FF FF 7F F8 FF FF 7F 73  .y.#R_.........s
13B0: 31 35 32 45 5F 80 F8 FF  FF 7F F8 FF FF 7F 73 31  152E_.........s1
13C0: 35 33 0D 80 2B 1C E3 10  01 7A 80 23 52 5F 80 F8  53..+....z.#R_..
13D0: FF FF 7F F8 FF FF 7F 73  31 35 33 45 5F 80 F8 FF  .......s153E_...
13E0: FF 7F F8 FF FF 7F 73 31  35 34 0D 80 2B 1C E3 10  ......s154..+...
13F0: 01 7B 80 23 1A F8 0A 1C  09 80 52 5F 80 F8 FF FF  .{.#......R_....
1400: 7F F8 FF FF 7F 73 31 35  34 C5 76 80 F8 FF FF 7F  .....s154.v.....
1410: F8 FF FF 7F 6B 69 6C 30  0D 80 27 05 1D E3 10 01  ....kil0..'.....
1420: 02 27 05 1E E3 10 01 02  81 00 1B E3 10 01 81 00  .'..............
1430: 22 E3 10 01 81 00 23 E3  10 01 7C 00 1B E3 10 01  ".....#...|.....
1440: 7C 00 22 E3 10 01 7C 00  23 E3 10 01 59 05 22 E3  |."...|.#...Y.".
1450: 10 01 01 59 05 23 E3 10  01 01 59 05 1E E3 10 01  ...Y.#....Y.....
1460: 01 4E 01 1F E3 10 01 4E  01 20 E3 10 01 94 01 1E  .N.....N. ......
1470: E3 10 01 BA 1A E3 10 01  7C 80 7D 80 7E 80 7F 80  ........|.}.~...
1480: BA 1B E3 10 01 7C 80 7D  80 7E 80 49 80 BA 22 E3  .....|.}.~.I..".
1490: 10 01 80 80 81 80 48 80  49 80 BA 23 E3 10 01 82  ......H.I..#....
14A0: 80 83 80 84 80 49 80 BA  1D E3 10 01 85 80 86 80  .....I..........
14B0: 87 80 88 80 BA 1E E3 10  01 89 80 8A 80 8B 80 49  ...............I
14C0: 80 80 1B E3 10 01 80 1D  E3 10 01 80 1E E3 10 01  ................
14D0: 80 22 E3 10 01 80 23 E3  10 01 1C 09 80 5C 00 8C  ."....#......\..
14E0: 80 5C 01 8C 80 9A 81 00  1B E3 10 01 7C 00 1B E3  .\..........|...
14F0: 10 01 5F 03 8D 80 1B E3  10 01 1B E3 10 01 62 69  .._...........bi
1500: 6B 30 5F 03 8E 80 1E E3  10 01 1E E3 10 01 00 FE  k0_.............
1510: FE FE 5F 03 8F 80 22 E3  10 01 22 E3 10 01 00 FE  .._..."...".....
1520: FE FE 5F 03 8F 80 23 E3  10 01 23 E3 10 01 00 FE  .._...#...#.....
1530: FE FE CD 90 80 1E E3 10  01 1E E3 10 01 00 FE FE  ................
1540: FE 0D 80 CD 90 80 23 E3  10 01 23 E3 10 01 00 FE  ......#...#.....
1550: FE FE 0D 80 45 5F 80 F8  FF FF 7F F8 FF FF 7F 73  ....E_.........s
1560: 32 33 35 0D 80 1C 0E 80  45 13 80 F0 FF FF 7F F0  235.....E.......
1570: FF FF 7F 66 64 69 30 0D  80 2C 1D E3 10 01 1D E3  ...fdi0..,......
1580: 10 01 62 6F 6D 31 1C 1B  80 5F 03 8E 80 1E E3 10  ..bom1..._......
1590: 01 1E E3 10 01 70 61 72  30 5F 03 8F 80 22 E3 10  .....par0_..."..
15A0: 01 22 E3 10 01 74 6F 62  30 5F 03 8F 80 23 E3 10  ."...tob0_...#..
15B0: 01 23 E3 10 01 74 6F 62  31 CD 90 80 1E E3 10 01  .#...tob1.......
15C0: 1E E3 10 01 73 30 30 31  0D 80 CD 90 80 23 E3 10  ....s001.....#..
15D0: 01 23 E3 10 01 65 30 30  31 0D 80 52 5F 80 F8 FF  .#...e001..R_...
15E0: FF 7F F8 FF FF 7F 73 32  33 35 45 5F 80 F8 FF FF  ......s235E_....
15F0: 7F F8 FF FF 7F 73 31 35  35 0D 80 1C 91 80 BA F0  .....s155.......
1600: FF FF 7F 92 80 93 80 94  80 95 80 52 5F 80 F8 FF  ...........R_...
1610: FF 7F F8 FF FF 7F 73 31  35 35 45 5F 80 F8 FF FF  ......s155E_....
1620: 7F F8 FF FF 7F 73 31 37  35 0D 80 5F 03 96 80 1E  .....s175.._....
1630: E3 10 01 1E E3 10 01 70  61 72 31 CD 90 80 1E E3  .......par1.....
1640: 10 01 1E E3 10 01 73 30  30 32 0D 80 1C 13 80 5F  ......s002....._
1650: 03 8F 80 22 E3 10 01 22  E3 10 01 74 62 6C 30 5F  ..."..."...tbl0_
1660: 03 8F 80 23 E3 10 01 23  E3 10 01 74 62 6C 31 52  ...#...#...tbl1R
1670: 5F 80 F8 FF FF 7F F8 FF  FF 7F 73 31 37 35 45 5F  _.........s175E_
1680: 80 F8 FF FF 7F F8 FF FF  7F 6B 6D 69 73 0D 80 5F  .........kmis.._
1690: 03 61 80 1A E3 10 01 1A  E3 10 01 63 6D 6F 6E 5F  .a.........cmon_
16A0: 03 61 80 1A E3 10 01 1A  E3 10 01 70 61 72 31 1C  .a.........par1.
16B0: 97 80 5F 03 61 80 1A E3  10 01 1A E3 10 01 70 61  .._.a.........pa
16C0: 72 32 1C 98 80 5F 03 61  80 1A E3 10 01 1A E3 10  r2..._.a........
16D0: 01 70 61 72 33 1C 99 80  5F 03 61 80 1A E3 10 01  .par3..._.a.....
16E0: 1A E3 10 01 70 61 72 34  1C 62 80 CD 9A 80 1E E3  ....par4.b......
16F0: 10 01 1E E3 10 01 73 30  30 33 0D 80 5F 03 8D 80  ......s003.._...
1700: 1B E3 10 01 1B E3 10 01  73 74 67 30 45 5F 80 F8  ........stg0E_..
1710: FF FF 7F F8 FF FF 7F 68  6B 61 73 0D 80 1C 9B 80  .......hkas.....
1720: 5F 03 61 80 1A E3 10 01  1A E3 10 01 70 61 72 35  _.a.........par5
1730: 1C 9C 80 5F 03 8D 80 1B  E3 10 01 1B E3 10 01 73  ..._...........s
1740: 74 67 31 5F 03 8F 80 22  E3 10 01 22 E3 10 01 74  tg1_..."..."...t
1750: 62 6C 32 5F 03 8F 80 23  E3 10 01 23 E3 10 01 74  bl2_...#...#...t
1760: 62 6C 33 1C 75 80 5F 03  61 80 1A E3 10 01 1A E3  bl3.u._.a.......
1770: 10 01 70 61 72 36 1C 6C  80 5F 03 9D 80 1E E3 10  ..par6.l._......
1780: 01 1E E3 10 01 70 61 72  32 CD 9A 80 1E E3 10 01  .....par2.......
1790: 1E E3 10 01 73 30 30 34  0D 80 1C 9E 80 27 05 F0  ....s004.....'..
17A0: FF FF 7F 1F 1C 9F 80 5F  03 61 80 1A E3 10 01 1A  ......._.a......
17B0: E3 10 01 63 6D 6F 66 5F  02 1A E3 10 01 02 87 7F  ...cmof_........
17C0: 17 80 80 D9 17 45 5F 80  F8 FF FF 7F F8 FF FF 7F  .....E_.........
17D0: 73 31 37 37 0D 80 01 06  18 02 87 7F 18 80 80 F5  s177............
17E0: 17 45 5F 80 F8 FF FF 7F  F8 FF FF 7F 73 31 37 37  .E_.........s177
17F0: 0D 80 01 06 18 45 5F 80  F8 FF FF 7F F8 FF FF 7F  .....E_.........
1800: 73 31 37 36 0D 80 1C 2C  80 BA 1B E3 10 01 A0 80  s176...,........
1810: A1 80 A2 80 A3 80 5F 03  A4 80 1B E3 10 01 1B E3  ......_.........
1820: 10 01 6F 6E 6F 30 1C A5  80 BA 1E E3 10 01 A6 80  ..ono0..........
1830: A7 80 A8 80 49 80 BA 1A  E3 10 01 A6 80 A7 80 A8  ....I...........
1840: 80 49 80 5F 03 A9 80 1E  E3 10 01 1E E3 10 01 6B  .I._...........k
1850: 6F 62 30 CD 9A 80 1E E3  10 01 1E E3 10 01 73 30  ob0...........s0
1860: 30 35 0D 80 1C 98 80 52  5F 80 F8 FF FF 7F F8 FF  05.....R_.......
1870: FF 7F 73 31 37 36 52 5F  80 F8 FF FF 7F F8 FF FF  ..s176R_........
1880: 7F 73 31 37 37 5F 03 61  80 1A E3 10 01 1A E3 10  .s177_.a........
1890: 01 63 6D 6F 6E 5F 03 61  80 1A E3 10 01 1A E3 10  .cmon_.a........
18A0: 01 6B 6F 62 30 1C 65 80  BA F0 FF FF 7F AA 80 AB  .kob0.e.........
18B0: 80 AC 80 AD 80 5F 03 A4  80 1B E3 10 01 1B E3 10  ....._..........
18C0: 01 6F 6E 6F 31 1C AE 80  5F 03 61 80 1A E3 10 01  .ono1..._.a.....
18D0: 1A E3 10 01 6B 6F 62 32  1C 90 80 5F 03 61 80 1A  ....kob2..._.a..
18E0: E3 10 01 1A E3 10 01 6B  6F 62 33 1C AF 80 27 05  .......kob3...'.
18F0: F0 FF FF 7F 20 1C 2C 80  BA 1A E3 10 01 B0 80 B1  .... .,.........
1900: 80 B2 80 49 80 5F 03 61  80 1A E3 10 01 1A E3 10  ...I._.a........
1910: 01 70 63 69 30 1C B3 80  BA 1A E3 10 01 A6 80 A7  .pci0...........
1920: 80 A8 80 49 80 5F 03 61  80 1A E3 10 01 1A E3 10  ...I._.a........
1930: 01 69 6E 67 31 1C B4 80  2B 1B E3 10 01 B5 80 23  .ing1...+......#
1940: 45 40 80 F0 FF FF 7F F0  FF FF 7F 77 68 6F 30 0D  E@.........who0.
1950: 80 55 40 80 F0 FF FF 7F  F0 FF FF 7F 77 68 6F 30  .U@.........who0
1960: 1A F8 0A 1C 09 80 5F 03  61 80 1A E3 10 01 1A E3  ......_.a.......
1970: 10 01 63 6D 6F 66 5F 02  1A E3 10 01 45 0C 80 F8  ..cmof_.....E...
1980: FF FF 7F F8 FF FF 7F 30  62 6C 66 0D 80 27 05 1B  .......0blf..'..
1990: E3 10 01 02 27 05 1C E3  10 01 03 27 05 1D E3 10  ....'......'....
19A0: 01 03 27 05 1E E3 10 01  03 27 05 1F E3 10 01 02  ..'......'......
19B0: 27 05 20 E3 10 01 02 27  05 22 E3 10 01 02 27 05  '. ....'."....'.
19C0: 23 E3 10 01 02 45 40 80  F0 FF FF 7F F0 FF FF 7F  #....E@.........
19D0: 77 68 69 30 0D 80 02 00  00 0D 80 00 E1 19 30 21  whi0..........0!
19E0: 00 5C 00 0D 80 5C 01 0D  80 9A 1C 0E 80 AB 11 0D  .\...\..........
19F0: 80 1C 1C 80 46 00 45 13  80 F0 FF FF 7F F0 FF FF  ....F.E.........
1A00: 7F 66 64 69 32 0D 80 21  00                       .fdi2..!.       
```

#### Opcodes

```
  0: 0x0D26 [0x42] SET_CLI_EVENT_CANCEL_DATA()
  1: 0x0D27 [0x1A] CALL_SUBROUTINE(address=0x0AF8)
  2: 0x0D2A [0x46] CAMERA_CONTROL: Disable user control
  3: 0x0D2C [0x38] SET_CLIENT_EVENT_MODE(mode=147*)
  4: 0x0D2F [0x03] Work_Zone[1] = 1*
  5: 0x0D34 [0x43] SEND_EVENT_UPDATE: Send pending tag to server (packet 0x005B)
  6: 0x0D36 [0x43] SEND_EVENT_UPDATE: Check pending flag (skip if not pending)
  7: 0x0D38 [0x03] ExtData[1]->WorkLocal[0] = Work_Zone[3]
  8: 0x0D3D [0x2F] Unnamed NPC (ID: 17883930/0x0110E31A)->Render.Flags0 &= ~0x80000 // Bit 19
  9: 0x0D43 [0x2F] Unnamed NPC (ID: 17883931/0x0110E31B)->Render.Flags0 &= ~0x80000 // Bit 19
 10: 0x0D49 [0x2F] Unnamed NPC (ID: 17883932/0x0110E31C)->Render.Flags0 &= ~0x80000 // Bit 19
 11: 0x0D4F [0x2F] Unnamed NPC (ID: 17883933/0x0110E31D)->Render.Flags0 &= ~0x80000 // Bit 19
 12: 0x0D55 [0x2F] Unnamed NPC (ID: 17883934/0x0110E31E)->Render.Flags0 &= ~0x80000 // Bit 19
 13: 0x0D5B [0x2F] Unnamed NPC (ID: 17883935/0x0110E31F)->Render.Flags0 &= ~0x80000 // Bit 19
 14: 0x0D61 [0x2F] Unnamed NPC (ID: 17883936/0x0110E320)->Render.Flags0 &= ~0x80000 // Bit 19
 15: 0x0D67 [0x2F] Unnamed NPC (ID: 17883937/0x0110E321)->Render.Flags0 &= ~0x80000 // Bit 19
 16: 0x0D6D [0x2F] Unnamed NPC (ID: 17883938/0x0110E322)->Render.Flags0 &= ~0x80000 // Bit 19
 17: 0x0D73 [0x2F] Unnamed NPC (ID: 17883939/0x0110E323)->Render.Flags0 &= ~0x80000 // Bit 19
 18: 0x0D79 [0x2F] Unnamed NPC (ID: 17883940/0x0110E324)->Render.Flags0 &= ~0x80000 // Bit 19
 19: 0x0D7F [0x2F] Unnamed NPC (ID: 17883941/0x0110E325)->Render.Flags0 &= ~0x80000 // Bit 19
 20: 0x0D85 [0x4E] SET_ENTITY_HIDE_FLAG: Show LocalPlayer
 21: 0x0D8B [0x4E] SET_ENTITY_HIDE_FLAG: Show Unnamed NPC (ID: 17883930/0x0110E31A)
 22: 0x0D91 [0x4E] SET_ENTITY_HIDE_FLAG: Show Unnamed NPC (ID: 17883931/0x0110E31B)
 23: 0x0D97 [0x4E] SET_ENTITY_HIDE_FLAG: Show Unnamed NPC (ID: 17883932/0x0110E31C)
 24: 0x0D9D [0x4E] SET_ENTITY_HIDE_FLAG: Show Unnamed NPC (ID: 17883933/0x0110E31D)
 25: 0x0DA3 [0x4E] SET_ENTITY_HIDE_FLAG: Show Unnamed NPC (ID: 17883934/0x0110E31E)
 26: 0x0DA9 [0x4E] SET_ENTITY_HIDE_FLAG: Show Unnamed NPC (ID: 17883935/0x0110E31F)
 27: 0x0DAF [0x4E] SET_ENTITY_HIDE_FLAG: Show Unnamed NPC (ID: 17883936/0x0110E320)
 28: 0x0DB5 [0x4E] SET_ENTITY_HIDE_FLAG: Show Unnamed NPC (ID: 17883937/0x0110E321)
 29: 0x0DBB [0x4E] SET_ENTITY_HIDE_FLAG: Show Unnamed NPC (ID: 17883938/0x0110E322)
 30: 0x0DC1 [0x4E] SET_ENTITY_HIDE_FLAG: Show Unnamed NPC (ID: 17883939/0x0110E323)
 31: 0x0DC7 [0x4E] SET_ENTITY_HIDE_FLAG: Show Unnamed NPC (ID: 17883940/0x0110E324)
 32: 0x0DCD [0x4E] SET_ENTITY_HIDE_FLAG: Show Unnamed NPC (ID: 17883941/0x0110E325)
 33: 0x0DD3 [0x92] Unnamed NPC (ID: 17883931/0x0110E31B)->Render.Flags3 ^= 0x01
 34: 0x0DD9 [0x92] Unnamed NPC (ID: 17883932/0x0110E31C)->Render.Flags3 ^= 0x01
 35: 0x0DDF [0x94] LocalPlayer->Render.Flags3 ^= 0x01
 36: 0x0DE5 [0x94] Unnamed NPC (ID: 17883930/0x0110E31A)->Render.Flags3 ^= 0x01
 37: 0x0DEB [0x94] Unnamed NPC (ID: 17883931/0x0110E31B)->Render.Flags3 ^= 0x01
 38: 0x0DF1 [0x94] Unnamed NPC (ID: 17883932/0x0110E31C)->Render.Flags3 ^= 0x01
 39: 0x0DF7 [0x94] Unnamed NPC (ID: 17883933/0x0110E31D)->Render.Flags3 ^= 0x01
 40: 0x0DFD [0x94] Unnamed NPC (ID: 17883934/0x0110E31E)->Render.Flags3 ^= 0x01
 41: 0x0E03 [0x94] Unnamed NPC (ID: 17883935/0x0110E31F)->Render.Flags3 ^= 0x01
 42: 0x0E09 [0x94] Unnamed NPC (ID: 17883936/0x0110E320)->Render.Flags3 ^= 0x01
 43: 0x0E0F [0x94] Unnamed NPC (ID: 17883937/0x0110E321)->Render.Flags3 ^= 0x01
 44: 0x0E15 [0x94] Unnamed NPC (ID: 17883938/0x0110E322)->Render.Flags3 ^= 0x01
 45: 0x0E1B [0x94] Unnamed NPC (ID: 17883939/0x0110E323)->Render.Flags3 ^= 0x01
 46: 0x0E21 [0x94] Unnamed NPC (ID: 17883940/0x0110E324)->Render.Flags3 ^= 0x01
 47: 0x0E27 [0x94] Unnamed NPC (ID: 17883941/0x0110E325)->Render.Flags3 ^= 0x01
 48: 0x0E2D [0x59] UPDATE_ENTITY_DATA: LocalPlayer->Render.Flags0 |= 0x200000
 49: 0x0E34 [0x59] UPDATE_ENTITY_DATA: Unnamed NPC (ID: 17883930/0x0110E31A)->Render.Flags0 |= 0x200000
 50: 0x0E3B [0x59] UPDATE_ENTITY_DATA: Unnamed NPC (ID: 17883931/0x0110E31B)->Render.Flags0 |= 0x200000
 51: 0x0E42 [0x59] UPDATE_ENTITY_DATA: Unnamed NPC (ID: 17883932/0x0110E31C)->Render.Flags0 |= 0x200000
 52: 0x0E49 [0x59] UPDATE_ENTITY_DATA: Unnamed NPC (ID: 17883933/0x0110E31D)->Render.Flags0 |= 0x200000
 53: 0x0E50 [0x59] UPDATE_ENTITY_DATA: Unnamed NPC (ID: 17883934/0x0110E31E)->Render.Flags0 |= 0x200000
 54: 0x0E57 [0x59] UPDATE_ENTITY_DATA: Unnamed NPC (ID: 17883935/0x0110E31F)->Render.Flags0 |= 0x200000
 55: 0x0E5E [0x59] UPDATE_ENTITY_DATA: Unnamed NPC (ID: 17883936/0x0110E320)->Render.Flags0 |= 0x200000
 56: 0x0E65 [0x59] UPDATE_ENTITY_DATA: Unnamed NPC (ID: 17883938/0x0110E322)->Render.Flags0 |= 0x200000
 57: 0x0E6C [0x59] UPDATE_ENTITY_DATA: Unnamed NPC (ID: 17883939/0x0110E323)->Render.Flags0 |= 0x200000
 58: 0x0E73 [0xBA] SET_ENTITY_POSITION(entity_id=LocalPlayer, pos_x=-109.845*, pos_z=218.966*, pos_y=-5.536*, direction=272.8°*)
 59: 0x0E80 [0xBA] SET_ENTITY_POSITION(entity_id=Unnamed NPC (ID: 17883930/0x0110E31A), pos_x=-98.000*, pos_z=204.000*, pos_y=31.318*, direction=90.0°*)
 60: 0x0E8D [0xBA] SET_ENTITY_POSITION(entity_id=Unnamed NPC (ID: 17883931/0x0110E31B), pos_x=-98.000*, pos_z=210.000*, pos_y=31.318*, direction=90.0°*)
 61: 0x0E9A [0xBA] SET_ENTITY_POSITION(entity_id=Unnamed NPC (ID: 17883932/0x0110E31C), pos_x=-98.000*, pos_z=210.000*, pos_y=31.318*, direction=90.0°*)
 62: 0x0EA7 [0xBA] SET_ENTITY_POSITION(entity_id=Unnamed NPC (ID: 17883933/0x0110E31D), pos_x=-98.000*, pos_z=210.000*, pos_y=31.318*, direction=90.0°*)
 63: 0x0EB4 [0xBA] SET_ENTITY_POSITION(entity_id=Unnamed NPC (ID: 17883934/0x0110E31E), pos_x=-98.000*, pos_z=210.000*, pos_y=31.318*, direction=90.0°*)
 64: 0x0EC1 [0xBA] SET_ENTITY_POSITION(entity_id=Unnamed NPC (ID: 17883935/0x0110E31F), pos_x=-99.055*, pos_z=222.938*, pos_y=29.979*, direction=90.0°*)
 65: 0x0ECE [0xBA] SET_ENTITY_POSITION(entity_id=Unnamed NPC (ID: 17883936/0x0110E320), pos_x=-98.000*, pos_z=210.000*, pos_y=31.318*, direction=90.0°*)
 66: 0x0EDB [0xBA] SET_ENTITY_POSITION(entity_id=Unnamed NPC (ID: 17883937/0x0110E321), pos_x=-127.092*, pos_z=220.498*, pos_y=28.964*, direction=272.9°*)
 67: 0x0EE8 [0xBA] SET_ENTITY_POSITION(entity_id=Unnamed NPC (ID: 17883938/0x0110E322), pos_x=-101.905*, pos_z=181.647*, pos_y=29.964*, direction=271.0°*)
 68: 0x0EF5 [0xBA] SET_ENTITY_POSITION(entity_id=Unnamed NPC (ID: 17883939/0x0110E323), pos_x=-99.947*, pos_z=182.169*, pos_y=29.918*, direction=265.9°*)
 69: 0x0F02 [0xBA] SET_ENTITY_POSITION(entity_id=Unnamed NPC (ID: 17883940/0x0110E324), pos_x=-128.135*, pos_z=222.217*, pos_y=28.964*, direction=272.9°*)
 70: 0x0F0F [0xBA] SET_ENTITY_POSITION(entity_id=Unnamed NPC (ID: 17883941/0x0110E325), pos_x=-128.521*, pos_z=219.493*, pos_y=28.941*, direction=272.9°*)
 71: 0x0F1C [0x80] LOAD_WAIT(entity=LocalPlayer)
 72: 0x0F21 [0x80] LOAD_WAIT(entity=Unnamed NPC (ID: 17883930/0x0110E31A))
 73: 0x0F26 [0x80] LOAD_WAIT(entity=Unnamed NPC (ID: 17883932/0x0110E31C))
 74: 0x0F2B [0x80] LOAD_WAIT(entity=Unnamed NPC (ID: 17883933/0x0110E31D))
 75: 0x0F30 [0x80] LOAD_WAIT(entity=Unnamed NPC (ID: 17883934/0x0110E31E))
 76: 0x0F35 [0x80] LOAD_WAIT(entity=Unnamed NPC (ID: 17883935/0x0110E31F))
 77: 0x0F3A [0x80] LOAD_WAIT(entity=Unnamed NPC (ID: 17883936/0x0110E320))
 78: 0x0F3F [0x80] LOAD_WAIT(entity=Unnamed NPC (ID: 17883938/0x0110E322))
 79: 0x0F44 [0x80] LOAD_WAIT(entity=Unnamed NPC (ID: 17883939/0x0110E323))
 80: 0x0F49 [0x1C] WAIT(30* ticks)
 81: 0x0F4C [0x27] REQ_SET(priority=0x05, entity_id=Unnamed NPC (ID: 17883940/0x0110E324), tag_num=0x02)
 82: 0x0F53 [0x1C] WAIT(15* ticks)
 83: 0x0F56 [0x27] REQ_SET(priority=0x05, entity_id=Unnamed NPC (ID: 17883937/0x0110E321), tag_num=0x02)
 84: 0x0F5D [0x1C] WAIT(15* ticks)
 85: 0x0F60 [0x27] REQ_SET(priority=0x05, entity_id=Unnamed NPC (ID: 17883941/0x0110E325), tag_num=0x02)
 86: 0x0F67 [0x45] LOAD_SCHEDULED_TASK: Load scheduler "s169" with entities [EventEntity, EventEntity], work=[629*, 0*]
 87: 0x0F78 [0x1C] WAIT(15* ticks)
 88: 0x0F7B [0x45] LOAD_SCHEDULED_TASK: Load scheduler "fdi1" with entities [LocalPlayer, LocalPlayer], work=[200*, 0*]
 89: 0x0F8C [0x1C] WAIT(90* ticks)
 90: 0x0F8F [0x52] END_LOAD_SCHEDULER: End scheduler "s169" with entities [EventEntity, EventEntity], work=629*
 91: 0x0F9E [0x45] LOAD_SCHEDULED_TASK: Load scheduler "s170" with entities [EventEntity, EventEntity], work=[629*, 0*]
 92: 0x0FAF [0x1C] WAIT(90* ticks)
 93: 0x0FB2 [0x5B] LOAD_EXT_SCHEDULER: Load scheduler "ata0" with entities [Unnamed NPC (ID: 17883931/0x0110E31B), Unnamed NPC (ID: 17883931/0x0110E31B)], work=3407*
 94: 0x0FC1 [0x1C] WAIT(30* ticks)
 95: 0x0FC4 [0x52] END_LOAD_SCHEDULER: End scheduler "s170" with entities [EventEntity, EventEntity], work=629*
 96: 0x0FD3 [0x5F] MULTI_HANDLER_COMPLEX(mode=0x03 - Load ext scheduler (OpCode 0x5B mode 0), ref=3430*, entity1=Unnamed NPC (ID: 17883930/0x0110E31A), entity2=Unnamed NPC (ID: 17883930/0x0110E31A), string="cmon")
 97: 0x0FE3 [0x5F] MULTI_HANDLER_COMPLEX(mode=0x03 - Load ext scheduler (OpCode 0x5B mode 0), ref=3430*, entity1=Unnamed NPC (ID: 17883930/0x0110E31A), entity2=Unnamed NPC (ID: 17883930/0x0110E31A), string="ata0")
 98: 0x0FF3 [0x45] LOAD_SCHEDULED_TASK: Load scheduler "atas" with entities [EventEntity, EventEntity], work=[629*, 0*]
 99: 0x1004 [0x1C] WAIT(100* ticks)
100: 0x1007 [0x2B] Unnamed NPC (ID: 17883931/0x0110E31B) [7980*]:
    → "What!? Since when did piles of rubble move!?"
101: 0x100E [0x5F] MULTI_HANDLER_COMPLEX(mode=0x03 - Load ext scheduler (OpCode 0x5B mode 0), ref=3430*, entity1=Unnamed NPC (ID: 17883930/0x0110E31A), entity2=Unnamed NPC (ID: 17883930/0x0110E31A), string="ata1")
102: 0x101E [0x1C] WAIT(216* ticks)
103: 0x1021 [0x5F] MULTI_HANDLER_COMPLEX(mode=0x03 - Load ext scheduler (OpCode 0x5B mode 0), ref=3430*, entity1=Unnamed NPC (ID: 17883930/0x0110E31A), entity2=Unnamed NPC (ID: 17883930/0x0110E31A), string="ata2")
104: 0x1031 [0x1C] WAIT(104* ticks)
105: 0x1034 [0xBA] SET_ENTITY_POSITION(entity_id=Unnamed NPC (ID: 17883930/0x0110E31A), pos_x=-98.000*, pos_z=210.000*, pos_y=31.318*, direction=90.0°*)
106: 0x1041 [0x5F] MULTI_HANDLER_COMPLEX(mode=0x03 - Load ext scheduler (OpCode 0x5B mode 0), ref=3430*, entity1=Unnamed NPC (ID: 17883930/0x0110E31A), entity2=Unnamed NPC (ID: 17883930/0x0110E31A), string="gar0")
107: 0x1051 [0x1C] WAIT(96* ticks)
108: 0x1054 [0xBA] SET_ENTITY_POSITION(entity_id=Unnamed NPC (ID: 17883930/0x0110E31A), pos_x=-98.000*, pos_z=210.000*, pos_y=31.307*, direction=90.0°*)
109: 0x1061 [0x5F] MULTI_HANDLER_COMPLEX(mode=0x03 - Load ext scheduler (OpCode 0x5B mode 0), ref=3430*, entity1=Unnamed NPC (ID: 17883930/0x0110E31A), entity2=Unnamed NPC (ID: 17883930/0x0110E31A), string="gar1")
110: 0x1071 [0x4E] SET_ENTITY_HIDE_FLAG: Hide Unnamed NPC (ID: 17883937/0x0110E321)
111: 0x1077 [0x4E] SET_ENTITY_HIDE_FLAG: Hide Unnamed NPC (ID: 17883940/0x0110E324)
112: 0x107D [0x4E] SET_ENTITY_HIDE_FLAG: Hide Unnamed NPC (ID: 17883941/0x0110E325)
113: 0x1083 [0x1C] WAIT(50* ticks)
114: 0x1086 [0x5F] MULTI_HANDLER_COMPLEX(mode=0x03 - Load ext scheduler (OpCode 0x5B mode 0), ref=3420*, entity1=Unnamed NPC (ID: 17883932/0x0110E31C), entity2=Unnamed NPC (ID: 17883932/0x0110E31C), string="kei0")
115: 0x1096 [0xBA] SET_ENTITY_POSITION(entity_id=Unnamed NPC (ID: 17883938/0x0110E322), pos_x=-98.000*, pos_z=210.000*, pos_y=31.318*, direction=90.0°*)
116: 0x10A3 [0x1C] WAIT(40* ticks)
117: 0x10A6 [0x5F] MULTI_HANDLER_COMPLEX(mode=0x03 - Load ext scheduler (OpCode 0x5B mode 0), ref=3348*, entity1=Unnamed NPC (ID: 17883938/0x0110E322), entity2=Unnamed NPC (ID: 17883938/0x0110E322), string="kei0")
118: 0x10B6 [0x1C] WAIT(10* ticks)
119: 0x10B9 [0x5F] MULTI_HANDLER_COMPLEX(mode=0x02 - Kill entity action (OpCode 0xC1))
120: 0x10BF [0xBA] SET_ENTITY_POSITION(entity_id=Unnamed NPC (ID: 17883930/0x0110E31A), pos_x=-98.000*, pos_z=210.000*, pos_y=31.318*, direction=90.0°*)
121: 0x10CC [0xBA] SET_ENTITY_POSITION(entity_id=Unnamed NPC (ID: 17883931/0x0110E31B), pos_x=-98.000*, pos_z=210.000*, pos_y=31.318*, direction=90.0°*)
122: 0x10D9 [0x5F] MULTI_HANDLER_COMPLEX(mode=0x03 - Load ext scheduler (OpCode 0x5B mode 0), ref=3430*, entity1=Unnamed NPC (ID: 17883930/0x0110E31A), entity2=Unnamed NPC (ID: 17883930/0x0110E31A), string="kei0")
123: 0x10E9 [0x5F] MULTI_HANDLER_COMPLEX(mode=0x03 - Load ext scheduler (OpCode 0x5B mode 0), ref=3407*, entity1=Unnamed NPC (ID: 17883931/0x0110E31B), entity2=Unnamed NPC (ID: 17883931/0x0110E31B), string="kei0")
124: 0x10F9 [0x5F] MULTI_HANDLER_COMPLEX(mode=0x03 - Load ext scheduler (OpCode 0x5B mode 0), ref=3421*, entity1=Unnamed NPC (ID: 17883933/0x0110E31D), entity2=Unnamed NPC (ID: 17883933/0x0110E31D), string="kei0")
125: 0x1109 [0x1C] WAIT(450* ticks)
126: 0x110C [0xBA] SET_ENTITY_POSITION(entity_id=Unnamed NPC (ID: 17883930/0x0110E31A), pos_x=-98.000*, pos_z=210.000*, pos_y=31.318*, direction=90.0°*)
127: 0x1119 [0x5F] MULTI_HANDLER_COMPLEX(mode=0x03 - Load ext scheduler (OpCode 0x5B mode 0), ref=3430*, entity1=Unnamed NPC (ID: 17883930/0x0110E31A), entity2=Unnamed NPC (ID: 17883930/0x0110E31A), string="gar2")
128: 0x1129 [0x1C] WAIT(33* ticks)
129: 0x112C [0x5F] MULTI_HANDLER_COMPLEX(mode=0x03 - Load ext scheduler (OpCode 0x5B mode 0), ref=3421*, entity1=Unnamed NPC (ID: 17883933/0x0110E31D), entity2=Unnamed NPC (ID: 17883933/0x0110E31D), string="kei1")
130: 0x113C [0x6B] STOP_AND_IDLE: Unnamed NPC (ID: 17883932/0x0110E31C) stops current action and resets to idle (animation="idl0")
131: 0x1145 [0x1C] WAIT(60* ticks)
132: 0x1148 [0xBA] SET_ENTITY_POSITION(entity_id=Unnamed NPC (ID: 17883939/0x0110E323), pos_x=-98.000*, pos_z=210.000*, pos_y=31.318*, direction=90.0°*)
133: 0x1155 [0x5F] MULTI_HANDLER_COMPLEX(mode=0x03 - Load ext scheduler (OpCode 0x5B mode 0), ref=3407*, entity1=Unnamed NPC (ID: 17883931/0x0110E31B), entity2=Unnamed NPC (ID: 17883931/0x0110E31B), string="kei1")
134: 0x1165 [0x5F] MULTI_HANDLER_COMPLEX(mode=0x03 - Load ext scheduler (OpCode 0x5B mode 0), ref=3348*, entity1=Unnamed NPC (ID: 17883938/0x0110E322), entity2=Unnamed NPC (ID: 17883938/0x0110E322), string="kei1")
135: 0x1175 [0x5F] MULTI_HANDLER_COMPLEX(mode=0x03 - Load ext scheduler (OpCode 0x5B mode 0), ref=3349*, entity1=Unnamed NPC (ID: 17883939/0x0110E323), entity2=Unnamed NPC (ID: 17883939/0x0110E323), string="kei0")
136: 0x1185 [0x1C] WAIT(3* ticks)
137: 0x1188 [0xBA] SET_ENTITY_POSITION(entity_id=Unnamed NPC (ID: 17883930/0x0110E31A), pos_x=-98.000*, pos_z=210.000*, pos_y=31.318*, direction=90.0°*)
138: 0x1195 [0x5F] MULTI_HANDLER_COMPLEX(mode=0x03 - Load ext scheduler (OpCode 0x5B mode 0), ref=3430*, entity1=Unnamed NPC (ID: 17883930/0x0110E31A), entity2=Unnamed NPC (ID: 17883930/0x0110E31A), string="kei1")
139: 0x11A5 [0x1C] WAIT(290* ticks)
140: 0x11A8 [0x5F] MULTI_HANDLER_COMPLEX(mode=0x03 - Load ext scheduler (OpCode 0x5B mode 0), ref=3430*, entity1=Unnamed NPC (ID: 17883930/0x0110E31A), entity2=Unnamed NPC (ID: 17883930/0x0110E31A), string="yud0")
141: 0x11B8 [0x5F] MULTI_HANDLER_COMPLEX(mode=0x03 - Load ext scheduler (OpCode 0x5B mode 0), ref=3349*, entity1=Unnamed NPC (ID: 17883939/0x0110E323), entity2=Unnamed NPC (ID: 17883939/0x0110E323), string="yud0")
142: 0x11C8 [0x45] LOAD_SCHEDULED_TASK: Load scheduler "yuds" with entities [EventEntity, EventEntity], work=[629*, 0*]
143: 0x11D9 [0x1C] WAIT(316* ticks)
144: 0x11DC [0x5F] MULTI_HANDLER_COMPLEX(mode=0x03 - Load ext scheduler (OpCode 0x5B mode 0), ref=3430*, entity1=Unnamed NPC (ID: 17883930/0x0110E31A), entity2=Unnamed NPC (ID: 17883930/0x0110E31A), string="usi0")
145: 0x11EC [0x5F] MULTI_HANDLER_COMPLEX(mode=0x03 - Load ext scheduler (OpCode 0x5B mode 0), ref=3407*, entity1=Unnamed NPC (ID: 17883931/0x0110E31B), entity2=Unnamed NPC (ID: 17883931/0x0110E31B), string="usi0")
146: 0x11FC [0x1C] WAIT(560* ticks)
147: 0x11FF [0xCD] LOAD_SCHEDULED_TASK_ALT4: Load scheduler "s001" with entities [Unnamed NPC (ID: 17883935/0x0110E31F), Unnamed NPC (ID: 17883935/0x0110E31F)], work=[202*, 0*]
148: 0x1210 [0x1C] WAIT(116* ticks)
149: 0x1213 [0x1A] CALL_SUBROUTINE(address=0x0AF8)
150: 0x1216 [0x1C] WAIT(30* ticks)
151: 0x1219 [0x6B] STOP_AND_IDLE: Unnamed NPC (ID: 17883931/0x0110E31B) stops current action and resets to idle (animation="idl0")
152: 0x1222 [0x6B] STOP_AND_IDLE: Unnamed NPC (ID: 17883932/0x0110E31C) stops current action and resets to idle (animation="idl0")
153: 0x122B [0x6B] STOP_AND_IDLE: Unnamed NPC (ID: 17883938/0x0110E322) stops current action and resets to idle (animation="idl0")
154: 0x1234 [0x6B] STOP_AND_IDLE: Unnamed NPC (ID: 17883939/0x0110E323) stops current action and resets to idle (animation="idl0")
155: 0x123D [0x27] REQ_SET(priority=0x05, entity_id=Unnamed NPC (ID: 17883932/0x0110E31C), tag_num=0x02)
156: 0x1244 [0x5F] MULTI_HANDLER_COMPLEX(mode=0x03 - Load ext scheduler (OpCode 0x5B mode 0), ref=3430*, entity1=Unnamed NPC (ID: 17883930/0x0110E31A), entity2=Unnamed NPC (ID: 17883930/0x0110E31A), string="cmof")
157: 0x1254 [0x5F] MULTI_HANDLER_COMPLEX(mode=0x02 - Kill entity action (OpCode 0xC1))
158: 0x125A [0x6B] STOP_AND_IDLE: Unnamed NPC (ID: 17883931/0x0110E31B) stops current action and resets to idle (animation="idl0")
159: 0x1263 [0x6B] STOP_AND_IDLE: Unnamed NPC (ID: 17883938/0x0110E322) stops current action and resets to idle (animation="idl0")
160: 0x126C [0x6B] STOP_AND_IDLE: Unnamed NPC (ID: 17883939/0x0110E323) stops current action and resets to idle (animation="idl0")
161: 0x1275 [0x22] ENTITY_HIDE_FLAG(enabled=0x00)
162: 0x1277 [0x33] EventEntity->Render.Flags0 |= 0x200000 // Bit 21 (flag=0x01)
163: 0x1279 [0x59] UPDATE_ENTITY_DATA: Unnamed NPC (ID: 17883932/0x0110E31C)->Render.Flags0 |= 0x200000
164: 0x1280 [0xBA] SET_ENTITY_POSITION(entity_id=Unnamed NPC (ID: 17883932/0x0110E31C), pos_x=-109.845*, pos_z=218.966*, pos_y=0.000*, direction=272.8°*)
165: 0x128D [0x37] UPDATE_EVENT_POSITION_AND_DIR: x=-109.845*, z=218.966*, y=-5.536*, direction=272.8°*
166: 0x1296 [0x80] LOAD_WAIT(entity=EventEntity)
167: 0x129B [0x80] LOAD_WAIT(entity=Unnamed NPC (ID: 17883932/0x0110E31C))
168: 0x12A0 [0x1C] WAIT(30* ticks)
169: 0x12A3 [0x81] SET_ENTITY_BLINKING(blink_flag=0x00, entity=Unnamed NPC (ID: 17883932/0x0110E31C))
170: 0x12A9 [0xC5] LOAD_SCHEDULED_TASK_ALT3: Load scheduler 0x800D3030 for entities [EventEntity, EventEntity], work=213*, param=12403
171: 0x12BA [0x5B] LOAD_EXT_SCHEDULER: Load scheduler "nen0" with entities [Unnamed NPC (ID: 17883932/0x0110E31C), Unnamed NPC (ID: 17883932/0x0110E31C)], work=3411*
172: 0x12C9 [0x27] REQ_SET(priority=0x05, entity_id=LocalPlayer, tag_num=0x1E)
173: 0x12D0 [0x45] LOAD_SCHEDULED_TASK: Load scheduler "s149" with entities [EventEntity, EventEntity], work=[629*, 0*]
174: 0x12E1 [0x1C] WAIT(15* ticks)
175: 0x12E4 [0x45] LOAD_SCHEDULED_TASK: Load scheduler "fdi1" with entities [LocalPlayer, LocalPlayer], work=[200*, 0*]
176: 0x12F5 [0x1C] WAIT(120* ticks)
177: 0x12F8 [0x52] END_LOAD_SCHEDULER: End scheduler "s149" with entities [EventEntity, EventEntity], work=629*
178: 0x1307 [0x02] IF !(LocalPlayer->Race == 5*) GOTO 0x1323
179: 0x130F [0x45] LOAD_SCHEDULED_TASK: Load scheduler "s151" with entities [EventEntity, EventEntity], work=[629*, 0*]
180: 0x1320 [0x01] GOTO 0x1350
181: 0x1323 [0x02] IF !(LocalPlayer->Race == 6*) GOTO 0x133F
182: 0x132B [0x45] LOAD_SCHEDULED_TASK: Load scheduler "s151" with entities [EventEntity, EventEntity], work=[629*, 0*]
183: 0x133C [0x01] GOTO 0x1350
184: 0x133F [0x45] LOAD_SCHEDULED_TASK: Load scheduler "s150" with entities [EventEntity, EventEntity], work=[629*, 0*]

SUBROUTINE_1350:
185: 0x1350 [0x2B] Unnamed NPC (ID: 17883932/0x0110E31C) [7981*]:
    → "(Do you hear that, <Player>?)"
186: 0x1357 [0x23] WAIT_FOR_DIALOG_INTERACTION
187: 0x1358 [0x2A] GET_REQ_LEVEL(level=5, entity_id=LocalPlayer)
188: 0x135E [0x52] END_LOAD_SCHEDULER: End scheduler "s150" with entities [EventEntity, EventEntity], work=629*
189: 0x136D [0x52] END_LOAD_SCHEDULER: End scheduler "s151" with entities [EventEntity, EventEntity], work=629*
190: 0x137C [0x45] LOAD_SCHEDULED_TASK: Load scheduler "s152" with entities [EventEntity, EventEntity], work=[629*, 0*]
191: 0x138D [0x5B] LOAD_EXT_SCHEDULER: Load scheduler "nen1" with entities [Unnamed NPC (ID: 17883932/0x0110E31C), Unnamed NPC (ID: 17883932/0x0110E31C)], work=3411*
192: 0x139C [0x2B] Unnamed NPC (ID: 17883932/0x0110E31C) [7982*]:
    → "(It sounds like those thieves are about to meet their maker.)"
193: 0x13A3 [0x23] WAIT_FOR_DIALOG_INTERACTION
194: 0x13A4 [0x52] END_LOAD_SCHEDULER: End scheduler "s152" with entities [EventEntity, EventEntity], work=629*
195: 0x13B3 [0x45] LOAD_SCHEDULED_TASK: Load scheduler "s153" with entities [EventEntity, EventEntity], work=[629*, 0*]
196: 0x13C4 [0x2B] Unnamed NPC (ID: 17883932/0x0110E31C) [7983*]:
    → "(Those lithic figures were once deadly beasts. They were petrified long ago, however, by seven guardians of the forest who had sworn fealty to August and his retinue.)"
197: 0x13CB [0x23] WAIT_FOR_DIALOG_INTERACTION
198: 0x13CC [0x52] END_LOAD_SCHEDULER: End scheduler "s153" with entities [EventEntity, EventEntity], work=629*
199: 0x13DB [0x45] LOAD_SCHEDULED_TASK: Load scheduler "s154" with entities [EventEntity, EventEntity], work=[629*, 0*]
200: 0x13EC [0x2B] Unnamed NPC (ID: 17883932/0x0110E31C) [7984*]:
    → "(But now, I fear they...)"
201: 0x13F3 [0x23] WAIT_FOR_DIALOG_INTERACTION
202: 0x13F4 [0x1A] CALL_SUBROUTINE(address=0x0AF8)
203: 0x13F7 [0x1C] WAIT(30* ticks)
204: 0x13FA [0x52] END_LOAD_SCHEDULER: End scheduler "s154" with entities [EventEntity, EventEntity], work=629*
205: 0x1409 [0xC5] LOAD_SCHEDULED_TASK_ALT3: Load scheduler 0x800D306C for entities [EventEntity, EventEntity], work=213*, param=26987
206: 0x141A [0x27] REQ_SET(priority=0x05, entity_id=Unnamed NPC (ID: 17883933/0x0110E31D), tag_num=0x02)
207: 0x1421 [0x27] REQ_SET(priority=0x05, entity_id=Unnamed NPC (ID: 17883934/0x0110E31E), tag_num=0x02)
208: 0x1428 [0x81] SET_ENTITY_BLINKING(blink_flag=0x00, entity=Unnamed NPC (ID: 17883931/0x0110E31B))
209: 0x142E [0x81] SET_ENTITY_BLINKING(blink_flag=0x00, entity=Unnamed NPC (ID: 17883938/0x0110E322))
210: 0x1434 [0x81] SET_ENTITY_BLINKING(blink_flag=0x00, entity=Unnamed NPC (ID: 17883939/0x0110E323))
211: 0x143A [0x7C] Unnamed NPC (ID: 17883931/0x0110E31B)->Render.Flags2 |= 0x00
212: 0x1440 [0x7C] Unnamed NPC (ID: 17883938/0x0110E322)->Render.Flags2 |= 0x00
213: 0x1446 [0x7C] Unnamed NPC (ID: 17883939/0x0110E323)->Render.Flags2 |= 0x00
214: 0x144C [0x59] UPDATE_ENTITY_DATA: Unnamed NPC (ID: 17883938/0x0110E322)->Render.Flags0 |= 0x200000
215: 0x1453 [0x59] UPDATE_ENTITY_DATA: Unnamed NPC (ID: 17883939/0x0110E323)->Render.Flags0 |= 0x200000
216: 0x145A [0x59] UPDATE_ENTITY_DATA: Unnamed NPC (ID: 17883934/0x0110E31E)->Render.Flags0 |= 0x200000
217: 0x1461 [0x4E] SET_ENTITY_HIDE_FLAG: Hide Unnamed NPC (ID: 17883935/0x0110E31F)
218: 0x1467 [0x4E] SET_ENTITY_HIDE_FLAG: Hide Unnamed NPC (ID: 17883936/0x0110E320)
219: 0x146D [0x94] Unnamed NPC (ID: 17883934/0x0110E31E)->Render.Flags3 ^= 0x01
220: 0x1473 [0xBA] SET_ENTITY_POSITION(entity_id=Unnamed NPC (ID: 17883930/0x0110E31A), pos_x=-120.000*, pos_z=220.000*, pos_y=30.000*, direction=194.6°*)
221: 0x1480 [0xBA] SET_ENTITY_POSITION(entity_id=Unnamed NPC (ID: 17883931/0x0110E31B), pos_x=-120.000*, pos_z=220.000*, pos_y=30.000*, direction=90.0°*)
222: 0x148D [0xBA] SET_ENTITY_POSITION(entity_id=Unnamed NPC (ID: 17883938/0x0110E322), pos_x=-132.026*, pos_z=221.602*, pos_y=31.318*, direction=90.0°*)
223: 0x149A [0xBA] SET_ENTITY_POSITION(entity_id=Unnamed NPC (ID: 17883939/0x0110E323), pos_x=-124.809*, pos_z=223.859*, pos_y=29.959*, direction=90.0°*)
224: 0x14A7 [0xBA] SET_ENTITY_POSITION(entity_id=Unnamed NPC (ID: 17883933/0x0110E31D), pos_x=-142.214*, pos_z=252.876*, pos_y=30.659*, direction=104.0°*)
