# 17883932

## Common Data

| Field            | Value                    |
|------------------|--------------------------|
| Zone             | Cirdas Caverns (ID: 270) |
| Block Size       | 184 bytes                |
| Total Events     | 8                        |
| References Count | 9                        |

## List of Events

| Event ID                 | Entrypoint   |   Size |   Instructions |
|--------------------------|--------------|--------|----------------|
| [65535](#event-65535)    | 0x0000       |      1 |              1 |
| [29](#event-29)          | 0x0001       |      5 |              2 |
| [65535.1](#event-655351) | 0x0006       |     29 |              4 |
| [65535.2](#event-655352) | 0x0023       |     29 |              4 |
| [34](#event-34)          | 0x0040       |      5 |              2 |
| [65535.3](#event-655353) | 0x0045       |     19 |              5 |
| [36](#event-36)          | 0x0058       |      5 |              2 |
| [33](#event-33)          | 0x005D       |      5 |              2 |

## DAT References (imed_data)

|   Index | Hex Value   |   Dec Value |
|---------|-------------|-------------|
|       0 | 0x0B02      |        2818 |
|       1 | 0x0AB0      |        2736 |
|       2 | 0x0034      |          52 |
|       3 | 0x018E      |         398 |
|       4 | 0x001E      |          30 |
|       5 | 0x25E55     |      155221 |
|       6 | 0x24AC8     |      150216 |
|       7 | 0x270F      |        9999 |
|       8 | 0x0AB1      |        2737 |

## Events

### Event 65535

#### Metadata

| Field        | Value   |
|--------------|---------|
| Entrypoint   | 0x0000  |
| Data Size    | 1 bytes |
| Instructions | 1       |

```
      00 01 02 03 04 05 06 07  08 09 0A 0B 0C 0D 0E 0F
      -- -- -- -- -- -- -- --  -- -- -- -- -- -- -- --
0000: 00                                                .               
```

#### Opcodes

```
  0: 0x0000 [0x00] END_REQSTACK()
```

### Event 29

#### Metadata

| Field        | Value   |
|--------------|---------|
| Entrypoint   | 0x0001  |
| Data Size    | 5 bytes |
| Instructions | 2       |

```
      00 01 02 03 04 05 06 07  08 09 0A 0B 0C 0D 0E 0F
      -- -- -- -- -- -- -- --  -- -- -- -- -- -- -- --
0000:    B6 00 00 80 00                                  .....          
```

#### Opcodes

```
  0: 0x0001 [0xB6] ENTITY_APPEARANCE_HANDLER(case=Hair style, value=2818*)
  1: 0x0005 [0x00] END_REQSTACK()
```

### Event 65535.1

#### Metadata

| Field        | Value    |
|--------------|----------|
| Entrypoint   | 0x0006   |
| Data Size    | 29 bytes |
| Instructions | 4        |

```
      00 01 02 03 04 05 06 07  08 09 0A 0B 0C 0D 0E 0F
      -- -- -- -- -- -- -- --  -- -- -- -- -- -- -- --
0000:                   B4 00  00 00 44 61 72 72 63 75        ....Darrcu
0010: 69 6C 6E 00 00 00 00 00  00 00 B5 00 00 00 B6 00  iln.............
0020: 01 80 00                                          ...             
```

#### Opcodes

```
  0: 0x0006 [0xB4] UI_WINDOW_STRING_HANDLER(case=0x00 - Copy string from opcode, work_offset=ExtData[1]->WorkLocal[0], string="Darrcuiln")
  1: 0x001A [0xB5] SET_EVENT_ENTITY_NAME: Change EventEntity name to ExtData[1]->WorkLocal[0]
  2: 0x001E [0xB6] ENTITY_APPEARANCE_HANDLER(case=Hair style, value=2736*)
  3: 0x0022 [0x00] END_REQSTACK()
```

### Event 65535.2

#### Metadata

| Field        | Value    |
|--------------|----------|
| Entrypoint   | 0x0023   |
| Data Size    | 29 bytes |
| Instructions | 4        |

```
      00 01 02 03 04 05 06 07  08 09 0A 0B 0C 0D 0E 0F
      -- -- -- -- -- -- -- --  -- -- -- -- -- -- -- --
0020:          B4 00 00 00 00  00 00 00 00 00 00 00 00     .............
0030: 00 00 00 00 00 00 00 B5  00 00 00 B6 00 02 80 00  ................
```

#### Opcodes

```
  0: 0x0023 [0xB4] UI_WINDOW_STRING_HANDLER(case=0x00 - Copy string from opcode, work_offset=ExtData[1]->WorkLocal[0], string="")
  1: 0x0037 [0xB5] SET_EVENT_ENTITY_NAME: Change EventEntity name to ExtData[1]->WorkLocal[0]
  2: 0x003B [0xB6] ENTITY_APPEARANCE_HANDLER(case=Hair style, value=52*)
  3: 0x003F [0x00] END_REQSTACK()
```

### Event 34

#### Metadata

| Field        | Value   |
|--------------|---------|
| Entrypoint   | 0x0040  |
| Data Size    | 5 bytes |
| Instructions | 2       |

```
      00 01 02 03 04 05 06 07  08 09 0A 0B 0C 0D 0E 0F
      -- -- -- -- -- -- -- --  -- -- -- -- -- -- -- --
0040: B6 00 03 80 00                                    .....           
```

#### Opcodes

```
  0: 0x0040 [0xB6] ENTITY_APPEARANCE_HANDLER(case=Hair style, value=398*)
  1: 0x0044 [0x00] END_REQSTACK()
```

### Event 65535.3

#### Metadata

| Field        | Value    |
|--------------|----------|
| Entrypoint   | 0x0045   |
| Data Size    | 19 bytes |
| Instructions | 5        |

```
      00 01 02 03 04 05 06 07  08 09 0A 0B 0C 0D 0E 0F
      -- -- -- -- -- -- -- --  -- -- -- -- -- -- -- --
0040:                32 04 80  1F 00 05 80 06 80 07 80       2..........
0050: 1F 01 1E 1B E3 10 01 00                           ........        
```

#### Opcodes

```
  0: 0x0045 [0x32] ExtData[1]->MainSpeed = 30* * 0.1
  1: 0x0048 [0x1F] MOVE_ENTITY: EventEntity moves to X=155.221*, Z=150.216*, Y=9.999*
  2: 0x0050 [0x1F] MOVE_ENTITY: Update entity position (mode=1)
  3: 0x0052 [0x1E] EventEntity looks at Unnamed NPC (ID: 17883931/0x0110E31B) and starts talking
  4: 0x0057 [0x00] END_REQSTACK()
```

### Event 36

#### Metadata

| Field        | Value   |
|--------------|---------|
| Entrypoint   | 0x0058  |
| Data Size    | 5 bytes |
| Instructions | 2       |

```
      00 01 02 03 04 05 06 07  08 09 0A 0B 0C 0D 0E 0F
      -- -- -- -- -- -- -- --  -- -- -- -- -- -- -- --
0050:                          B6 00 01 80 00                   .....   
```

#### Opcodes

```
  0: 0x0058 [0xB6] ENTITY_APPEARANCE_HANDLER(case=Hair style, value=2736*)
  1: 0x005C [0x00] END_REQSTACK()
```

### Event 33

#### Metadata

| Field        | Value   |
|--------------|---------|
| Entrypoint   | 0x005D  |
| Data Size    | 5 bytes |
| Instructions | 2       |

```
      00 01 02 03 04 05 06 07  08 09 0A 0B 0C 0D 0E 0F
      -- -- -- -- -- -- -- --  -- -- -- -- -- -- -- --
0050:                                         B6 00 08               ...
0060: 80 00                                             ..              
```

#### Opcodes

```
  0: 0x005D [0xB6] ENTITY_APPEARANCE_HANDLER(case=Hair style, value=2737*)
  1: 0x0061 [0x00] END_REQSTACK()
```
