# 17883963

## Common Data

| Field            | Value                    |
|------------------|--------------------------|
| Zone             | Cirdas Caverns (ID: 270) |
| Block Size       | 252 bytes                |
| Total Events     | 8                        |
| References Count | 10                       |

## List of Events

| Event ID                 | Entrypoint   |   Size |   Instructions |
|--------------------------|--------------|--------|----------------|
| [65535](#event-65535)    | 0x0000       |      1 |              1 |
| [35](#event-35)          | 0x0001       |     45 |              4 |
| [65535.1](#event-655351) | 0x002E       |      7 |              3 |
| [65535.2](#event-655352) | 0x0035       |      7 |              3 |
| [65535.3](#event-655353) | 0x003C       |     16 |              2 |
| [65535.4](#event-655354) | 0x004C       |     42 |              4 |
| [65535.5](#event-655355) | 0x0076       |     29 |              3 |
| [65535.6](#event-655356) | 0x0093       |     16 |              4 |

## DAT References (imed_data)

|   Index | Hex Value   |   Dec Value |
|---------|-------------|-------------|
|       0 | 0x0003      |           3 |
|       1 | 0x000D      |          13 |
|       2 | 0x0162      |         354 |
|       3 | 0x012B      |         299 |
|       4 | 0x0262      |         610 |
|       5 | 0x0000      |           0 |
|       6 | 0x0001      |           1 |
|       7 | 0x00A9      |         169 |
|       8 | 0x000A      |          10 |
|       9 | 0x0046      |          70 |

## Events

### Event 65535

#### Metadata

| Field        | Value   |
|--------------|---------|
| Entrypoint   | 0x0000  |
| Data Size    | 1 bytes |
| Instructions | 1       |

```
      00 01 02 03 04 05 06 07  08 09 0A 0B 0C 0D 0E 0F
      -- -- -- -- -- -- -- --  -- -- -- -- -- -- -- --
0000: 00                                                .               
```

#### Opcodes

```
  0: 0x0000 [0x00] END_REQSTACK()
```

### Event 35

#### Metadata

| Field        | Value    |
|--------------|----------|
| Entrypoint   | 0x0001   |
| Data Size    | 45 bytes |
| Instructions | 4        |

```
      00 01 02 03 04 05 06 07  08 09 0A 0B 0C 0D 0E 0F
      -- -- -- -- -- -- -- --  -- -- -- -- -- -- -- --
0000:    B6 0B 00 80 01 80 02  80 03 80 02 80 02 80 02   ...............
0010: 80 04 80 05 80 B4 00 00  00 48 65 6E 6E 65 74 69  .........Henneti
0020: 65 6C 00 00 00 00 00 00  00 B5 00 00 00 00        el............  
```

#### Opcodes

```
  0: 0x0001 [0xB6] ENTITY_APPEARANCE_HANDLER(case=Full entity look, race=3*, hair=13*, head=354*, body=299*, hands=354*, legs=354*, feet=354*, main=610*, sub=0*)
  1: 0x0015 [0xB4] UI_WINDOW_STRING_HANDLER(case=0x00 - Copy string from opcode, work_offset=ExtData[1]->WorkLocal[0], string="Hennetiel")
  2: 0x0029 [0xB5] SET_EVENT_ENTITY_NAME: Change EventEntity name to ExtData[1]->WorkLocal[0]
  3: 0x002D [0x00] END_REQSTACK()
```

### Event 65535.1

#### Metadata

| Field        | Value   |
|--------------|---------|
| Entrypoint   | 0x002E  |
| Data Size    | 7 bytes |
| Instructions | 3       |

```
      00 01 02 03 04 05 06 07  08 09 0A 0B 0C 0D 0E 0F
      -- -- -- -- -- -- -- --  -- -- -- -- -- -- -- --
0020:                                            AB 03                ..
0030: AC 01 06 80 00                                    .....           
```

#### Opcodes

```
  0: 0x002E [0xAB] EventEntity->Render.Flags0 ^= 0x20000 // Toggle bit 17
  1: 0x0030 [0xAC] EventEntity->StatusEvent = 1*
  2: 0x0034 [0x00] END_REQSTACK()
```

### Event 65535.2

#### Metadata

| Field        | Value   |
|--------------|---------|
| Entrypoint   | 0x0035  |
| Data Size    | 7 bytes |
| Instructions | 3       |

```
      00 01 02 03 04 05 06 07  08 09 0A 0B 0C 0D 0E 0F
      -- -- -- -- -- -- -- --  -- -- -- -- -- -- -- --
0030:                AC 01 05  80 AB 04 00                   .......    
```

#### Opcodes

```
  0: 0x0035 [0xAC] EventEntity->StatusEvent = 0*
  1: 0x0039 [0xAB] EventEntity->Render.Flags0 |= 0x40000 // Set bit 18
  2: 0x003B [0x00] END_REQSTACK()
```

### Event 65535.3

#### Metadata

| Field        | Value    |
|--------------|----------|
| Entrypoint   | 0x003C   |
| Data Size    | 16 bytes |
| Instructions | 2        |

```
      00 01 02 03 04 05 06 07  08 09 0A 0B 0C 0D 0E 0F
      -- -- -- -- -- -- -- --  -- -- -- -- -- -- -- --
0030:                                      66 07 80 F8              f...
0040: FF FF 7F F8 FF FF 7F 74  6C 6B 30 00              .......tlk0.    
```

#### Opcodes

```
  0: 0x003C [0x66] LOAD_EXT_SCHEDULER_MAIN: Load scheduler "tlk0" with entities [EventEntity, EventEntity], work=169*
  1: 0x004B [0x00] END_REQSTACK()
```

### Event 65535.4

#### Metadata

| Field        | Value    |
|--------------|----------|
| Entrypoint   | 0x004C   |
| Data Size    | 42 bytes |
| Instructions | 4        |

```
      00 01 02 03 04 05 06 07  08 09 0A 0B 0C 0D 0E 0F
      -- -- -- -- -- -- -- --  -- -- -- -- -- -- -- --
0040:                                      53 F8 FF FF              S...
0050: 7F F8 FF FF 7F 74 6C 6B  30 66 07 80 F8 FF FF 7F  .....tlk0f......
0060: F8 FF FF 7F 74 6C 6B 31  53 F8 FF FF 7F F8 FF FF  ....tlk1S.......
0070: 7F 74 6C 6B 31 00                                 .tlk1.          
```

#### Opcodes

```
  0: 0x004C [0x53] WAIT_SCHEDULER_TASK: Wait for scheduler "tlk0" with entities [EventEntity, EventEntity]
  1: 0x0059 [0x66] LOAD_EXT_SCHEDULER_MAIN: Load scheduler "tlk1" with entities [EventEntity, EventEntity], work=169*
  2: 0x0068 [0x53] WAIT_SCHEDULER_TASK: Wait for scheduler "tlk1" with entities [EventEntity, EventEntity]
  3: 0x0075 [0x00] END_REQSTACK()
```

### Event 65535.5

#### Metadata

| Field        | Value    |
|--------------|----------|
| Entrypoint   | 0x0076   |
| Data Size    | 29 bytes |
| Instructions | 3        |

```
      00 01 02 03 04 05 06 07  08 09 0A 0B 0C 0D 0E 0F
      -- -- -- -- -- -- -- --  -- -- -- -- -- -- -- --
0070:                   66 07  80 F8 FF FF 7F F8 FF FF        f.........
0080: 7F 6B 79 61 30 53 F8 FF  FF 7F F8 FF FF 7F 74 6C  .kya0S........tl
0090: 6B 31 00                                          k1.             
```

#### Opcodes

```
  0: 0x0076 [0x66] LOAD_EXT_SCHEDULER_MAIN: Load scheduler "kya0" with entities [EventEntity, EventEntity], work=169*
  1: 0x0085 [0x53] WAIT_SCHEDULER_TASK: Wait for scheduler "tlk1" with entities [EventEntity, EventEntity]
  2: 0x0092 [0x00] END_REQSTACK()
```

### Event 65535.6

#### Metadata

| Field        | Value    |
|--------------|----------|
| Entrypoint   | 0x0093   |
| Data Size    | 16 bytes |
| Instructions | 4        |

```
      00 01 02 03 04 05 06 07  08 09 0A 0B 0C 0D 0E 0F
      -- -- -- -- -- -- -- --  -- -- -- -- -- -- -- --
0090:          6E F8 FF FF 7F  08 80 99 F8 FF FF 7F 1C     n............
00A0: 09 80 00                                          ...             
```

#### Opcodes

```
  0: 0x0093 [0x6E] EventEntity uses emote 10*
  1: 0x009A [0x99] Wait for EventEntity animation to complete
  2: 0x009F [0x1C] WAIT(70* ticks)
  3: 0x00A2 [0x00] END_REQSTACK()
```
