# 17883940

## Common Data

| Field            | Value                    |
|------------------|--------------------------|
| Zone             | Cirdas Caverns (ID: 270) |
| Block Size       | 240 bytes                |
| Total Events     | 7                        |
| References Count | 20                       |

## List of Events

| Event ID                 | Entrypoint   |   Size |   Instructions |
|--------------------------|--------------|--------|----------------|
| [65535](#event-65535)    | 0x0000       |      1 |              1 |
| [29](#event-29)          | 0x0001       |     21 |              2 |
| [65535.1](#event-655351) | 0x0016       |     14 |              4 |
| [65535.2](#event-655352) | 0x0024       |     21 |              2 |
| [34](#event-34)          | 0x0039       |     21 |              2 |
| [33](#event-33)          | 0x004E       |     21 |              2 |
| [65535.3](#event-655353) | 0x0063       |     14 |              4 |

## DAT References (imed_data)

|   Index | Hex Value   |   Dec Value |
|---------|-------------|-------------|
|       0 | 0x0003      |           3 |
|       1 | 0x000C      |          12 |
|       2 | 0x0000      |           0 |
|       3 | 0x008F      |         143 |
|       4 | 0x014A      |         330 |
|       5 | 0x0028      |          40 |
|       6 | 0xFFFE2E48  |  4294848072 |
|       7 | 0x35E12     |      220690 |
|       8 | 0x752F      |       29999 |
|       9 | 0x0001      |           1 |
|      10 | 0x000D      |          13 |
|      11 | 0x0162      |         354 |
|      12 | 0x012B      |         299 |
|      13 | 0x0262      |         610 |
|      14 | 0x0008      |           8 |
|      15 | 0x0014      |          20 |
|      16 | 0x0017      |          23 |
|      17 | 0x56936     |      354614 |
|      18 | 0x2EE6D     |      192109 |
|      19 | 0x7560      |       30048 |

## Events

### Event 65535

#### Metadata

| Field        | Value   |
|--------------|---------|
| Entrypoint   | 0x0000  |
| Data Size    | 1 bytes |
| Instructions | 1       |

```
      00 01 02 03 04 05 06 07  08 09 0A 0B 0C 0D 0E 0F
      -- -- -- -- -- -- -- --  -- -- -- -- -- -- -- --
0000: 00                                                .               
```

#### Opcodes

```
  0: 0x0000 [0x00] END_REQSTACK()
```

### Event 29

#### Metadata

| Field        | Value    |
|--------------|----------|
| Entrypoint   | 0x0001   |
| Data Size    | 21 bytes |
| Instructions | 2        |

```
      00 01 02 03 04 05 06 07  08 09 0A 0B 0C 0D 0E 0F
      -- -- -- -- -- -- -- --  -- -- -- -- -- -- -- --
0000:    B6 0B 00 80 01 80 02  80 03 80 03 80 03 80 03   ...............
0010: 80 04 80 02 80 00                                 ......          
```

#### Opcodes

```
  0: 0x0001 [0xB6] ENTITY_APPEARANCE_HANDLER(case=Full entity look, race=3*, hair=12*, head=0*, body=143*, hands=143*, legs=143*, feet=143*, main=330*, sub=0*)
  1: 0x0015 [0x00] END_REQSTACK()
```

### Event 65535.1

#### Metadata

| Field        | Value    |
|--------------|----------|
| Entrypoint   | 0x0016   |
| Data Size    | 14 bytes |
| Instructions | 4        |

```
      00 01 02 03 04 05 06 07  08 09 0A 0B 0C 0D 0E 0F
      -- -- -- -- -- -- -- --  -- -- -- -- -- -- -- --
0010:                   32 05  80 1F 00 06 80 07 80 08        2.........
0020: 80 1F 01 00                                       ....            
```

#### Opcodes

```
  0: 0x0016 [0x32] ExtData[1]->MainSpeed = 40* * 0.1
  1: 0x0019 [0x1F] MOVE_ENTITY: EventEntity moves to X=-119.224*, Z=220.690*, Y=29.999*
  2: 0x0021 [0x1F] MOVE_ENTITY: Update entity position (mode=1)
  3: 0x0023 [0x00] END_REQSTACK()
```

### Event 65535.2

#### Metadata

| Field        | Value    |
|--------------|----------|
| Entrypoint   | 0x0024   |
| Data Size    | 21 bytes |
| Instructions | 2        |

```
      00 01 02 03 04 05 06 07  08 09 0A 0B 0C 0D 0E 0F
      -- -- -- -- -- -- -- --  -- -- -- -- -- -- -- --
0020:             B6 0B 09 80  02 80 02 80 02 80 02 80      ............
0030: 02 80 02 80 02 80 02 80  00                       .........       
```

#### Opcodes

```
  0: 0x0024 [0xB6] ENTITY_APPEARANCE_HANDLER(case=Full entity look, race=1*, hair=0*, head=0*, body=0*, hands=0*, legs=0*, feet=0*, main=0*, sub=0*)
  1: 0x0038 [0x00] END_REQSTACK()
```

### Event 34

#### Metadata

| Field        | Value    |
|--------------|----------|
| Entrypoint   | 0x0039   |
| Data Size    | 21 bytes |
| Instructions | 2        |

```
      00 01 02 03 04 05 06 07  08 09 0A 0B 0C 0D 0E 0F
      -- -- -- -- -- -- -- --  -- -- -- -- -- -- -- --
0030:                             B6 0B 00 80 0A 80 0B           .......
0040: 80 0C 80 0B 80 0B 80 0B  80 0D 80 02 80 00        ..............  
```

#### Opcodes

```
  0: 0x0039 [0xB6] ENTITY_APPEARANCE_HANDLER(case=Full entity look, race=3*, hair=13*, head=354*, body=299*, hands=354*, legs=354*, feet=354*, main=610*, sub=0*)
  1: 0x004D [0x00] END_REQSTACK()
```

### Event 33

#### Metadata

| Field        | Value    |
|--------------|----------|
| Entrypoint   | 0x004E   |
| Data Size    | 21 bytes |
| Instructions | 2        |

```
      00 01 02 03 04 05 06 07  08 09 0A 0B 0C 0D 0E 0F
      -- -- -- -- -- -- -- --  -- -- -- -- -- -- -- --
0040:                                            B6 0B                ..
0050: 09 80 0E 80 0F 80 03 80  10 80 03 80 03 80 02 80  ................
0060: 02 80 00                                          ...             
```

#### Opcodes

```
  0: 0x004E [0xB6] ENTITY_APPEARANCE_HANDLER(case=Full entity look, race=1*, hair=8*, head=20*, body=143*, hands=23*, legs=143*, feet=143*, main=0*, sub=0*)
  1: 0x0062 [0x00] END_REQSTACK()
```

### Event 65535.3

#### Metadata

| Field        | Value    |
|--------------|----------|
| Entrypoint   | 0x0063   |
| Data Size    | 14 bytes |
| Instructions | 4        |

```
      00 01 02 03 04 05 06 07  08 09 0A 0B 0C 0D 0E 0F
      -- -- -- -- -- -- -- --  -- -- -- -- -- -- -- --
0060:          32 0A 80 1F 00  11 80 12 80 13 80 1F 01     2............
0070: 00                                                .               
```

#### Opcodes

```
  0: 0x0063 [0x32] ExtData[1]->MainSpeed = 13* * 0.1
  1: 0x0066 [0x1F] MOVE_ENTITY: EventEntity moves to X=354.614*, Z=192.109*, Y=30.048*
  2: 0x006E [0x1F] MOVE_ENTITY: Update entity position (mode=1)
  3: 0x0070 [0x00] END_REQSTACK()
```
