# 17883922 - DIRECTOR by yaeko

## Common Data

| Field            | Value                    |
|------------------|--------------------------|
| Zone             | Cirdas Caverns (ID: 270) |
| Block Size       | 5816 bytes               |
| Total Events     | 4                        |
| References Count | 89                       |

## List of Events

| Event ID              | Entrypoint   |   Size |   Instructions |
|-----------------------|--------------|--------|----------------|
| [65535](#event-65535) | 0x0000       |      1 |              1 |
| [13](#event-13)       | 0x0001       |   1201 |            157 |
| [14](#event-14)       | 0x04B2       |   1982 |            241 |
| [15](#event-15)       | 0x0C70       |   2244 |            266 |

## DAT References (imed_data)

|   Index | Hex Value   |   Dec Value |
|---------|-------------|-------------|
|       0 | 0x00C8      |         200 |
|       1 | 0x0000      |           0 |
|       2 | 0x0013      |          19 |
|       3 | 0x0296      |         662 |
|       4 | 0x1E7B      |        7803 |
|       5 | 0x0046      |          70 |
|       6 | 0x0028      |          40 |
|       7 | 0x000A      |          10 |
|       8 | 0x1E7C      |        7804 |
|       9 | 0x1E7D      |        7805 |
|      10 | 0x1E7E      |        7806 |
|      11 | 0x1E7F      |        7807 |
|      12 | 0x1E80      |        7808 |
|      13 | 0x005A      |          90 |
|      14 | 0x0064      |         100 |
|      15 | 0x0078      |         120 |
|      16 | 0x1E81      |        7809 |
|      17 | 0x1E82      |        7810 |
|      18 | 0x1E83      |        7811 |
|      19 | 0x1E84      |        7812 |
|      20 | 0x1E85      |        7813 |
|      21 | 0x1E86      |        7814 |
|      22 | 0x001E      |          30 |
|      23 | 0x1E87      |        7815 |
|      24 | 0x0050      |          80 |
|      25 | 0x1E88      |        7816 |
|      26 | 0x1E89      |        7817 |
|      27 | 0x1E8A      |        7818 |
|      28 | 0x1E8B      |        7819 |
|      29 | 0x1E8C      |        7820 |
|      30 | 0x1E8D      |        7821 |
|      31 | 0x1E8E      |        7822 |
|      32 | 0x1E8F      |        7823 |
|      33 | 0x003C      |          60 |
|      34 | 0x1E90      |        7824 |
|      35 | 0x1E91      |        7825 |
|      36 | 0x0005      |           5 |
|      37 | 0x0006      |           6 |
|      38 | 0x1E92      |        7826 |
|      39 | 0x1E93      |        7827 |
|      40 | 0x1E94      |        7828 |
|      41 | 0x008C      |         140 |
|      42 | 0x1E95      |        7829 |
|      43 | 0x0032      |          50 |
|      44 | 0x0003      |           3 |
|      45 | 0x0008      |           8 |
|      46 | 0x0014      |          20 |
|      47 | 0x00C9      |         201 |
|      48 | 0x003E      |          62 |
|      49 | 0x007F      |         127 |
|      50 | 0x0001      |           1 |
|      51 | 0x009D      |         157 |
|      52 | 0x1E96      |        7830 |
|      53 | 0x1E97      |        7831 |
|      54 | 0x1E98      |        7832 |
|      55 | 0x1E99      |        7833 |
|      56 | 0x1E9A      |        7834 |
|      57 | 0x1E9B      |        7835 |
|      58 | 0x1E9C      |        7836 |
|      59 | 0x1E9D      |        7837 |
|      60 | 0x1E9E      |        7838 |
|      61 | 0x1E9F      |        7839 |
|      62 | 0x1EA0      |        7840 |
|      63 | 0x1EA1      |        7841 |
|      64 | 0x1EA2      |        7842 |
|      65 | 0x1EA3      |        7843 |
|      66 | 0x1EA4      |        7844 |
|      67 | 0x1EA5      |        7845 |
|      68 | 0x012C      |         300 |
|      69 | 0x003D      |          61 |
|      70 | 0x6FFE0     |      458720 |
|      71 | 0x18C0B     |      101387 |
|      72 | 0x283C      |       10300 |
|      73 | 0x00A2      |         162 |
|      74 | 0x00B4      |         180 |
|      75 | 0x1EA6      |        7846 |
|      76 | 0x1EA7      |        7847 |
|      77 | 0x1EA8      |        7848 |
|      78 | 0x1EA9      |        7849 |
|      79 | 0x1EAA      |        7850 |
|      80 | 0x1EAB      |        7851 |
|      81 | 0x0002      |           2 |
|      82 | 0x0007      |           7 |
|      83 | 0x1EAC      |        7852 |
|      84 | 0x1EAD      |        7853 |
|      85 | 0x1EAE      |        7854 |
|      86 | 0x07E8      |        2024 |
|      87 | 0x1EAF      |        7855 |
|      88 | 0x1EB0      |        7856 |

## String References

- **7830**: <Oh ho ho, how long hath it been since we have seen one of Zacariah's blood?>
- **7831**: <We know that geomancers, who master indicolure magic and purify the lifestream, offer thy shells to the land here.>
- **7833**: <Then tell us, blood of Zacariah. Why is the lifestream volatile and disrupted elsewhere, yet not here? Are there those who do not believe Zacariah?>
- **7835**: <...>
- **7839**: <Blood of Zacariah, thou dost deign to understand us, but thou dost not.>
- **7840**: <Our anger is not the source of thine anguish. It is all the geomancers themselves.>
- **7841**: <Thine awe of nature has turned to a fear of destroying it, and thy ringing bells have actualized it as a Communion.>
- **7843**: <A Communion is a pact with nature. It represents thy will of how things should be, not how they are.>
- **7844**: <Dear child, thy bell, too, doth shake in apprehension.>
- **7845**: <Yet thy bell rings true. We shall respect thy Communion and make thee part of the lifestream!>
- **7848**: <Dost thou believe thou canst ring this most sacred of bells?>
- **7849**: <And what if thou were to succeed? What wouldst thy pact be?>
- **7850**: <Come, geomancer! Let thy Communion be heard throughout Adoulin!>
- **7851**: What pact will you swear? [To bring harmony to nature in Adoulin./To protect Adoulin's natural environment./To do everything possible to save nature.]
- **7852**: <The bell doth ring. We shall respect thy Communion!>

## Events

### Event 65535

#### Metadata

| Field        | Value   |
|--------------|---------|
| Entrypoint   | 0x0000  |
| Data Size    | 1 bytes |
| Instructions | 1       |

```
      00 01 02 03 04 05 06 07  08 09 0A 0B 0C 0D 0E 0F
      -- -- -- -- -- -- -- --  -- -- -- -- -- -- -- --
0000: 00                                                .               
```

#### Opcodes

```
  0: 0x0000 [0x00] END_REQSTACK()
```

### Event 13

#### Metadata

| Field        | Value      |
|--------------|------------|
| Entrypoint   | 0x0001     |
| Data Size    | 1201 bytes |
| Instructions | 157        |

```
      00 01 02 03 04 05 06 07  08 09 0A 0B 0C 0D 0E 0F
      -- -- -- -- -- -- -- --  -- -- -- -- -- -- -- --
0000:    42 46 01 45 00 80 F0  FF FF 7F F0 FF FF 7F 66   BF.E..........f
0010: 64 6F 31 01 80 55 00 80  F0 FF FF 7F F0 FF FF 7F  do1..U..........
0020: 66 64 6F 31 38 02 80 5D  01 80 00 80 29 08 F0 FF  fdo18..]....)...
0030: FF 7F 09 29 08 13 E3 10  01 43 80 13 E3 10 01 29  ...).....C.....)
0040: 08 F0 FF FF 7F 11 92 01  13 E3 10 01 27 08 13 E3  ............'...
0050: 10 01 44 45 03 80 F0 FF  FF 7F F0 FF FF 7F 73 31  ..DE..........s1
0060: 33 32 01 80 45 00 80 F0  FF FF 7F F0 FF FF 7F 66  32..E..........f
0070: 64 69 31 01 80 55 00 80  F0 FF FF 7F F0 FF FF 7F  di1..U..........
0080: 66 64 69 31 2A 08 13 E3  10 01 27 08 13 E3 10 01  fdi1*.....'.....
0090: 45 2B 13 E3 10 01 04 80  1C 05 80 1C 06 80 52 03  E+............R.
00A0: 80 F0 FF FF 7F F0 FF FF  7F 73 31 33 32 45 03 80  .........s132E..
00B0: F0 FF FF 7F F0 FF FF 7F  73 31 33 30 01 80 4A F0  ........s130..J.
00C0: FF FF 7F 13 E3 10 01 6F  76 F0 FF FF 7F 2A 08 13  .......ov....*..
00D0: E3 10 01 1C 07 80 23 29  08 13 E3 10 01 01 52 03  ......#)......R.
00E0: 80 F0 FF FF 7F F0 FF FF  7F 73 31 33 30 45 03 80  .........s130E..
00F0: F0 FF FF 7F F0 FF FF 7F  73 31 33 31 01 80 2B 13  ........s131..+.
0100: E3 10 01 08 80 23 2B 13  E3 10 01 09 80 23 29 08  .....#+......#).
0110: 13 E3 10 01 02 29 08 13  E3 10 01 03 52 03 80 F0  .....)......R...
0120: FF FF 7F F0 FF FF 7F 73  31 33 31 45 03 80 F0 FF  .......s131E....
0130: FF 7F F0 FF FF 7F 73 31  33 33 01 80 79 00 13 E3  ......s133..y...
0140: 10 01 14 E3 10 01 29 08  13 E3 10 01 04 27 08 13  ......)......'..
0150: E3 10 01 46 2B 13 E3 10  01 0A 80 23 79 00 13 E3  ...F+......#y...
0160: 10 01 F0 FF FF 7F 2B 13  E3 10 01 0B 80 23 2A 08  ......+......#*.
0170: 13 E3 10 01 52 03 80 F0  FF FF 7F F0 FF FF 7F 73  ....R..........s
0180: 31 33 33 45 03 80 F0 FF  FF 7F F0 FF FF 7F 73 31  133E..........s1
0190: 33 34 01 80 2C 13 E3 10  01 13 E3 10 01 63 61 67  34..,........cag
01A0: 65 2B 13 E3 10 01 0C 80  23 1C 00 80 2C 13 E3 10  e+......#...,...
01B0: 01 13 E3 10 01 73 68 67  65 1C 0D 80 45 00 80 F0  .....shge...E...
01C0: FF FF 7F F0 FF FF 7F 66  64 6F 31 01 80 55 00 80  .......fdo1..U..
01D0: F0 FF FF 7F F0 FF FF 7F  66 64 6F 31 52 03 80 F0  ........fdo1R...
01E0: FF FF 7F F0 FF FF 7F 73  31 33 34 29 08 13 E3 10  .......s134)....
01F0: 01 47 4A F0 FF FF 7F 13  E3 10 01 4A 13 E3 10 01  .GJ........J....
0200: F0 FF FF 7F 6F 76 F0 FF  FF 7F 6F 76 13 E3 10 01  ....ov....ov....
0210: 1C 0E 80 45 03 80 F0 FF  FF 7F F0 FF FF 7F 73 31  ...E..........s1
0220: 33 35 01 80 45 00 80 F0  FF FF 7F F0 FF FF 7F 66  35..E..........f
0230: 64 69 31 01 80 1C 0F 80  2B 13 E3 10 01 10 80 23  di1.....+......#
0240: 52 03 80 F0 FF FF 7F F0  FF FF 7F 73 31 33 35 45  R..........s135E
0250: 03 80 F0 FF FF 7F F0 FF  FF 7F 73 31 33 36 01 80  ..........s136..
0260: 29 08 13 E3 10 01 2C 2B  13 E3 10 01 11 80 23 29  ).....,+......#)
0270: 08 13 E3 10 01 2D 29 08  13 E3 10 01 2E 2B 13 E3  .....-)......+..
0280: 10 01 12 80 23 29 08 13  E3 10 01 2F 52 03 80 F0  ....#)...../R...
0290: FF FF 7F F0 FF FF 7F 73  31 33 36 45 03 80 F0 FF  .......s136E....
02A0: FF 7F F0 FF FF 7F 73 31  33 37 01 80 29 08 13 E3  ......s137..)...
02B0: 10 01 10 2B 13 E3 10 01  13 80 23 29 08 13 E3 10  ...+......#)....
02C0: 01 11 29 08 13 E3 10 01  14 2B 13 E3 10 01 14 80  ..)......+......
02D0: 23 29 08 13 E3 10 01 15  7B 13 E3 10 01 29 08 13  #)......{....)..
02E0: E3 10 01 12 29 08 13 E3  10 01 13 2B 13 E3 10 01  ....)......+....
02F0: 15 80 23 27 08 13 E3 10  01 48 1C 16 80 52 03 80  ..#'.....H...R..
0300: F0 FF FF 7F F0 FF FF 7F  73 31 33 37 45 03 80 F0  ........s137E...
0310: FF FF 7F F0 FF FF 7F 73  31 33 38 01 80 2B 13 E3  .......s138..+..
0320: 10 01 17 80 1C 18 80 52  03 80 F0 FF FF 7F F0 FF  .......R........
0330: FF 7F 73 31 33 38 45 03  80 F0 FF FF 7F F0 FF FF  ..s138E.........
0340: 7F 73 31 33 39 01 80 2A  08 13 E3 10 01 23 4A F0  .s139..*.....#J.
0350: FF FF 7F 13 E3 10 01 29  08 13 E3 10 01 18 2B 13  .......)......+.
0360: E3 10 01 19 80 23 29 08  13 E3 10 01 19 6F 76 F0  .....#)......ov.
0370: FF FF 7F 52 03 80 F0 FF  FF 7F F0 FF FF 7F 73 31  ...R..........s1
0380: 33 39 45 03 80 F0 FF FF  7F F0 FF FF 7F 73 31 34  39E..........s14
0390: 30 01 80 2B 13 E3 10 01  1A 80 23 29 08 13 E3 10  0..+......#)....
03A0: 01 1A 2B 13 E3 10 01 1B  80 23 29 08 13 E3 10 01  ..+......#).....
03B0: 1B 52 03 80 F0 FF FF 7F  F0 FF FF 7F 73 31 34 30  .R..........s140
03C0: 45 03 80 F0 FF FF 7F F0  FF FF 7F 73 31 34 31 01  E..........s141.
03D0: 80 4A 13 E3 10 01 F0 FF  FF 7F 6F 76 13 E3 10 01  .J........ov....
03E0: 2B 13 E3 10 01 1C 80 23  29 08 13 E3 10 01 01 2B  +......#)......+
03F0: 13 E3 10 01 1D 80 23 29  08 13 E3 10 01 02 27 08  ......#)......'.
0400: 13 E3 10 01 4B 2B 13 E3  10 01 1E 80 23 2A 08 13  ....K+......#*..
0410: E3 10 01 52 03 80 F0 FF  FF 7F F0 FF FF 7F 73 31  ...R..........s1
0420: 34 31 45 03 80 F0 FF FF  7F F0 FF FF 7F 73 31 34  41E..........s14
0430: 32 01 80 27 08 13 E3 10  01 49 2B 13 E3 10 01 1F  2..'.....I+.....
0440: 80 23 2A 08 13 E3 10 01  29 08 13 E3 10 01 01 2B  .#*.....)......+
0450: 13 E3 10 01 20 80 23 29  08 13 E3 10 01 02 29 08  .... .#)......).
0460: 13 E3 10 01 03 29 08 13  E3 10 01 04 45 00 80 F0  .....)......E...
0470: FF FF 7F F0 FF FF 7F 66  64 6F 31 01 80 55 00 80  .......fdo1..U..
0480: F0 FF FF 7F F0 FF FF 7F  66 64 6F 31 52 03 80 F0  ........fdo1R...
0490: FF FF 7F F0 FF FF 7F 73  31 34 32 46 00 45 00 80  .......s142F.E..
04A0: F0 FF FF 7F F0 FF FF 7F  66 64 69 31 01 80 20 00  ........fdi1.. .
04B0: 21 00                                             !.              
```

#### Opcodes

```
  0: 0x0001 [0x42] SET_CLI_EVENT_CANCEL_DATA()
  1: 0x0002 [0x46] CAMERA_CONTROL: Disable user control
  2: 0x0004 [0x45] LOAD_SCHEDULED_TASK: Load scheduler "fdo1" with entities [LocalPlayer, LocalPlayer], work=[200*, 0*]
  3: 0x0015 [0x55] WAIT_LOAD_SCHEDULER: Wait for scheduler "fdo1" with entities [LocalPlayer, LocalPlayer], work=200*
  4: 0x0024 [0x38] SET_CLIENT_EVENT_MODE(mode=19*)
  5: 0x0027 [0x5D] SET_MUSIC_VOLUME(volume=0*, fade_time=200*)
  6: 0x002C [0x29] REQ_SET_WAIT(priority=0x08, entity_id=LocalPlayer, tag_num=0x09)
  7: 0x0033 [0x29] REQ_SET_WAIT(priority=0x08, entity_id=Sylvie (ID: 17883923/0x0110E313), tag_num=0x43)
  8: 0x003A [0x80] LOAD_WAIT(entity=Sylvie (ID: 17883923/0x0110E313))
  9: 0x003F [0x29] REQ_SET_WAIT(priority=0x08, entity_id=LocalPlayer, tag_num=0x11)
 10: 0x0046 [0x92] Sylvie (ID: 17883923/0x0110E313)->Render.Flags3 ^= 0x01
 11: 0x004C [0x27] REQ_SET(priority=0x08, entity_id=Sylvie (ID: 17883923/0x0110E313), tag_num=0x44)
 12: 0x0053 [0x45] LOAD_SCHEDULED_TASK: Load scheduler "s132" with entities [LocalPlayer, LocalPlayer], work=[662*, 0*]
 13: 0x0064 [0x45] LOAD_SCHEDULED_TASK: Load scheduler "fdi1" with entities [LocalPlayer, LocalPlayer], work=[200*, 0*]
 14: 0x0075 [0x55] WAIT_LOAD_SCHEDULER: Wait for scheduler "fdi1" with entities [LocalPlayer, LocalPlayer], work=200*
 15: 0x0084 [0x2A] GET_REQ_LEVEL(level=8, entity_id=Sylvie (ID: 17883923/0x0110E313))
 16: 0x008A [0x27] REQ_SET(priority=0x08, entity_id=Sylvie (ID: 17883923/0x0110E313), tag_num=0x45)
 17: 0x0091 [0x2B] Sylvie (ID: 17883923/0x0110E313) [7803*]:
    → "<Player>! Oh, I'm so glad you decided to come!"
 18: 0x0098 [0x1C] WAIT(70* ticks)
 19: 0x009B [0x1C] WAIT(40* ticks)
 20: 0x009E [0x52] END_LOAD_SCHEDULER: End scheduler "s132" with entities [LocalPlayer, LocalPlayer], work=662*
 21: 0x00AD [0x45] LOAD_SCHEDULED_TASK: Load scheduler "s130" with entities [LocalPlayer, LocalPlayer], work=[662*, 0*]
 22: 0x00BE [0x4A] LocalPlayer looks at Sylvie (ID: 17883923/0x0110E313)
 23: 0x00C7 [0x6F] WAIT_FRAME_DELAY: Yield until WaitTime reaches zero
 24: 0x00C8 [0x76] CHECK_ENTITY_RENDER_FLAGS: Wait until LocalPlayer Render.Flags0 and Render.Flags3 conditions are met
 25: 0x00CD [0x2A] GET_REQ_LEVEL(level=8, entity_id=Sylvie (ID: 17883923/0x0110E313))
 26: 0x00D3 [0x1C] WAIT(10* ticks)
 27: 0x00D6 [0x23] WAIT_FOR_DIALOG_INTERACTION
 28: 0x00D7 [0x29] REQ_SET_WAIT(priority=0x08, entity_id=Sylvie (ID: 17883923/0x0110E313), tag_num=0x01)
 29: 0x00DE [0x52] END_LOAD_SCHEDULER: End scheduler "s130" with entities [LocalPlayer, LocalPlayer], work=662*
 30: 0x00ED [0x45] LOAD_SCHEDULED_TASK: Load scheduler "s131" with entities [LocalPlayer, LocalPlayer], work=[662*, 0*]
 31: 0x00FE [0x2B] Sylvie (ID: 17883923/0x0110E313) [7804*]:
    → "The spirits of my ancestors are always watching over me from this place...I think."
 32: 0x0105 [0x23] WAIT_FOR_DIALOG_INTERACTION
 33: 0x0106 [0x2B] Sylvie (ID: 17883923/0x0110E313) [7805*]:
    → "But it's still really scary to come here by myself, you know?"
 34: 0x010D [0x23] WAIT_FOR_DIALOG_INTERACTION
 35: 0x010E [0x29] REQ_SET_WAIT(priority=0x08, entity_id=Sylvie (ID: 17883923/0x0110E313), tag_num=0x02)
 36: 0x0115 [0x29] REQ_SET_WAIT(priority=0x08, entity_id=Sylvie (ID: 17883923/0x0110E313), tag_num=0x03)
 37: 0x011C [0x52] END_LOAD_SCHEDULER: End scheduler "s131" with entities [LocalPlayer, LocalPlayer], work=662*
 38: 0x012B [0x45] LOAD_SCHEDULED_TASK: Load scheduler "s133" with entities [LocalPlayer, LocalPlayer], work=[662*, 0*]
 39: 0x013C [0x79] Sylvie (ID: 17883923/0x0110E313) looks at Overgrown Grave (ID: 17883924/0x0110E314) (Basic look)
 40: 0x0146 [0x29] REQ_SET_WAIT(priority=0x08, entity_id=Sylvie (ID: 17883923/0x0110E313), tag_num=0x04)
 41: 0x014D [0x27] REQ_SET(priority=0x08, entity_id=Sylvie (ID: 17883923/0x0110E313), tag_num=0x46)
 42: 0x0154 [0x2B] Sylvie (ID: 17883923/0x0110E313) [7806*]:
    → "Somehow, I made it here in one piece, so it's time to ring the bell and begin the ceremony!"
 43: 0x015B [0x23] WAIT_FOR_DIALOG_INTERACTION
 44: 0x015C [0x79] Sylvie (ID: 17883923/0x0110E313) looks at LocalPlayer (Basic look)
 45: 0x0166 [0x2B] Sylvie (ID: 17883923/0x0110E313) [7807*]:
    → "Won't you come pray with me, <Player>?"
 46: 0x016D [0x23] WAIT_FOR_DIALOG_INTERACTION
 47: 0x016E [0x2A] GET_REQ_LEVEL(level=8, entity_id=Sylvie (ID: 17883923/0x0110E313))
 48: 0x0174 [0x52] END_LOAD_SCHEDULER: End scheduler "s133" with entities [LocalPlayer, LocalPlayer], work=662*
 49: 0x0183 [0x45] LOAD_SCHEDULED_TASK: Load scheduler "s134" with entities [LocalPlayer, LocalPlayer], work=[662*, 0*]
 50: 0x0194 [0x2C] CREATE_SCHEDULER_TASK: Create scheduler "cage" with entities [Sylvie (ID: 17883923/0x0110E313), Sylvie (ID: 17883923/0x0110E313)]
 51: 0x01A1 [0x2B] Sylvie (ID: 17883923/0x0110E313) [7808*]:
    → "Daddy, may the lifestream keep you snug in its warm embrace. May you become one with nature, and may she always keep you safe."
 52: 0x01A8 [0x23] WAIT_FOR_DIALOG_INTERACTION
 53: 0x01A9 [0x1C] WAIT(200* ticks)
 54: 0x01AC [0x2C] CREATE_SCHEDULER_TASK: Create scheduler "shge" with entities [Sylvie (ID: 17883923/0x0110E313), Sylvie (ID: 17883923/0x0110E313)]
 55: 0x01B9 [0x1C] WAIT(90* ticks)
 56: 0x01BC [0x45] LOAD_SCHEDULED_TASK: Load scheduler "fdo1" with entities [LocalPlayer, LocalPlayer], work=[200*, 0*]
 57: 0x01CD [0x55] WAIT_LOAD_SCHEDULER: Wait for scheduler "fdo1" with entities [LocalPlayer, LocalPlayer], work=200*
 58: 0x01DC [0x52] END_LOAD_SCHEDULER: End scheduler "s134" with entities [LocalPlayer, LocalPlayer], work=662*
 59: 0x01EB [0x29] REQ_SET_WAIT(priority=0x08, entity_id=Sylvie (ID: 17883923/0x0110E313), tag_num=0x47)
 60: 0x01F2 [0x4A] LocalPlayer looks at Sylvie (ID: 17883923/0x0110E313)
 61: 0x01FB [0x4A] Sylvie (ID: 17883923/0x0110E313) looks at LocalPlayer
 62: 0x0204 [0x6F] WAIT_FRAME_DELAY: Yield until WaitTime reaches zero
 63: 0x0205 [0x76] CHECK_ENTITY_RENDER_FLAGS: Wait until LocalPlayer Render.Flags0 and Render.Flags3 conditions are met
 64: 0x020A [0x6F] WAIT_FRAME_DELAY: Yield until WaitTime reaches zero
 65: 0x020B [0x76] CHECK_ENTITY_RENDER_FLAGS: Wait until Sylvie (ID: 17883923/0x0110E313) Render.Flags0 and Render.Flags3 conditions are met
 66: 0x0210 [0x1C] WAIT(100* ticks)
 67: 0x0213 [0x45] LOAD_SCHEDULED_TASK: Load scheduler "s135" with entities [LocalPlayer, LocalPlayer], work=[662*, 0*]
 68: 0x0224 [0x45] LOAD_SCHEDULED_TASK: Load scheduler "fdi1" with entities [LocalPlayer, LocalPlayer], work=[200*, 0*]
 69: 0x0235 [0x1C] WAIT(120* ticks)
 70: 0x0238 [0x2B] Sylvie (ID: 17883923/0x0110E313) [7809*]:
    → "The ceremony has been completed, now that I've buried the stones you gathered for me."
 71: 0x023F [0x23] WAIT_FOR_DIALOG_INTERACTION
 72: 0x0240 [0x52] END_LOAD_SCHEDULER: End scheduler "s135" with entities [LocalPlayer, LocalPlayer], work=662*
 73: 0x024F [0x45] LOAD_SCHEDULED_TASK: Load scheduler "s136" with entities [LocalPlayer, LocalPlayer], work=[662*, 0*]
 74: 0x0260 [0x29] REQ_SET_WAIT(priority=0x08, entity_id=Sylvie (ID: 17883923/0x0110E313), tag_num=0x2C)
 75: 0x0267 [0x2B] Sylvie (ID: 17883923/0x0110E313) [7810*]:
    → "<Player>, do you remember how Lhaiso rang her bell and called forth the Communion?"
 76: 0x026E [0x23] WAIT_FOR_DIALOG_INTERACTION
 77: 0x026F [0x29] REQ_SET_WAIT(priority=0x08, entity_id=Sylvie (ID: 17883923/0x0110E313), tag_num=0x2D)
 78: 0x0276 [0x29] REQ_SET_WAIT(priority=0x08, entity_id=Sylvie (ID: 17883923/0x0110E313), tag_num=0x2E)
 79: 0x027D [0x2B] Sylvie (ID: 17883923/0x0110E313) [7811*]:
    → "I think the way my bloodline rings our bells to send off the dead is pretty similar."
 80: 0x0284 [0x23] WAIT_FOR_DIALOG_INTERACTION
 81: 0x0285 [0x29] REQ_SET_WAIT(priority=0x08, entity_id=Sylvie (ID: 17883923/0x0110E313), tag_num=0x2F)
 82: 0x028C [0x52] END_LOAD_SCHEDULER: End scheduler "s136" with entities [LocalPlayer, LocalPlayer], work=662*
 83: 0x029B [0x45] LOAD_SCHEDULED_TASK: Load scheduler "s137" with entities [LocalPlayer, LocalPlayer], work=[662*, 0*]
 84: 0x02AC [0x29] REQ_SET_WAIT(priority=0x08, entity_id=Sylvie (ID: 17883923/0x0110E313), tag_num=0x10)
 85: 0x02B3 [0x2B] Sylvie (ID: 17883923/0x0110E313) [7812*]:
    → "It's been said that though our spirits rise into the sky when we die, a geomancer's flesh returns to the ground and becomes part of the lifestream."
 86: 0x02BA [0x23] WAIT_FOR_DIALOG_INTERACTION
 87: 0x02BB [0x29] REQ_SET_WAIT(priority=0x08, entity_id=Sylvie (ID: 17883923/0x0110E313), tag_num=0x11)
 88: 0x02C2 [0x29] REQ_SET_WAIT(priority=0x08, entity_id=Sylvie (ID: 17883923/0x0110E313), tag_num=0x14)
 89: 0x02C9 [0x2B] Sylvie (ID: 17883923/0x0110E313) [7813*]:
    → "The more we train to use the lifestream, the more we aid nature in all her forms. And now that Daddy is part of the lifestream, he is watching over us all."
 90: 0x02D0 [0x23] WAIT_FOR_DIALOG_INTERACTION
 91: 0x02D1 [0x29] REQ_SET_WAIT(priority=0x08, entity_id=Sylvie (ID: 17883923/0x0110E313), tag_num=0x15)
 92: 0x02D8 [0x7B] Sylvie (ID: 17883923/0x0110E313) stops talking
 93: 0x02DD [0x29] REQ_SET_WAIT(priority=0x08, entity_id=Sylvie (ID: 17883923/0x0110E313), tag_num=0x12)
 94: 0x02E4 [0x29] REQ_SET_WAIT(priority=0x08, entity_id=Sylvie (ID: 17883923/0x0110E313), tag_num=0x13)
 95: 0x02EB [0x2B] Sylvie (ID: 17883923/0x0110E313) [7814*]:
    → "But this is a belief held only by the descendants of Zacariah, and other geomancers don't lend an ear to our concerns..."
 96: 0x02F2 [0x23] WAIT_FOR_DIALOG_INTERACTION
 97: 0x02F3 [0x27] REQ_SET(priority=0x08, entity_id=Sylvie (ID: 17883923/0x0110E313), tag_num=0x48)
 98: 0x02FA [0x1C] WAIT(30* ticks)
 99: 0x02FD [0x52] END_LOAD_SCHEDULER: End scheduler "s137" with entities [LocalPlayer, LocalPlayer], work=662*
100: 0x030C [0x45] LOAD_SCHEDULED_TASK: Load scheduler "s138" with entities [LocalPlayer, LocalPlayer], work=[662*, 0*]
101: 0x031D [0x2B] Sylvie (ID: 17883923/0x0110E313) [7815*]:
    → "Look over there, <Player>. That's the grave of my ancestor, Zacariah."
102: 0x0324 [0x1C] WAIT(80* ticks)
103: 0x0327 [0x52] END_LOAD_SCHEDULER: End scheduler "s138" with entities [LocalPlayer, LocalPlayer], work=662*
104: 0x0336 [0x45] LOAD_SCHEDULED_TASK: Load scheduler "s139" with entities [LocalPlayer, LocalPlayer], work=[662*, 0*]
105: 0x0347 [0x2A] GET_REQ_LEVEL(level=8, entity_id=Sylvie (ID: 17883923/0x0110E313))
106: 0x034D [0x23] WAIT_FOR_DIALOG_INTERACTION
107: 0x034E [0x4A] LocalPlayer looks at Sylvie (ID: 17883923/0x0110E313)
108: 0x0357 [0x29] REQ_SET_WAIT(priority=0x08, entity_id=Sylvie (ID: 17883923/0x0110E313), tag_num=0x18)
109: 0x035E [0x2B] Sylvie (ID: 17883923/0x0110E313) [7816*]:
    → "He was one of the five disciples of Sih Renaye--and his grave is the only one left standing."
110: 0x0365 [0x23] WAIT_FOR_DIALOG_INTERACTION
111: 0x0366 [0x29] REQ_SET_WAIT(priority=0x08, entity_id=Sylvie (ID: 17883923/0x0110E313), tag_num=0x19)
112: 0x036D [0x6F] WAIT_FRAME_DELAY: Yield until WaitTime reaches zero
113: 0x036E [0x76] CHECK_ENTITY_RENDER_FLAGS: Wait until LocalPlayer Render.Flags0 and Render.Flags3 conditions are met
114: 0x0373 [0x52] END_LOAD_SCHEDULER: End scheduler "s139" with entities [LocalPlayer, LocalPlayer], work=662*
115: 0x0382 [0x45] LOAD_SCHEDULED_TASK: Load scheduler "s140" with entities [LocalPlayer, LocalPlayer], work=[662*, 0*]
116: 0x0393 [0x2B] Sylvie (ID: 17883923/0x0110E313) [7817*]:
    → "The legends state the other four were chosen by the higher power, and their corporeal forms vanished from Vana'diel."
117: 0x039A [0x23] WAIT_FOR_DIALOG_INTERACTION
118: 0x039B [0x29] REQ_SET_WAIT(priority=0x08, entity_id=Sylvie (ID: 17883923/0x0110E313), tag_num=0x1A)
119: 0x03A2 [0x2B] Sylvie (ID: 17883923/0x0110E313) [7818*]:
    → "But Zacariah was not, so he was left in this land, cold and alone."
120: 0x03A9 [0x23] WAIT_FOR_DIALOG_INTERACTION
121: 0x03AA [0x29] REQ_SET_WAIT(priority=0x08, entity_id=Sylvie (ID: 17883923/0x0110E313), tag_num=0x1B)
122: 0x03B1 [0x52] END_LOAD_SCHEDULER: End scheduler "s140" with entities [LocalPlayer, LocalPlayer], work=662*
123: 0x03C0 [0x45] LOAD_SCHEDULED_TASK: Load scheduler "s141" with entities [LocalPlayer, LocalPlayer], work=[662*, 0*]
124: 0x03D1 [0x4A] Sylvie (ID: 17883923/0x0110E313) looks at LocalPlayer
125: 0x03DA [0x6F] WAIT_FRAME_DELAY: Yield until WaitTime reaches zero
126: 0x03DB [0x76] CHECK_ENTITY_RENDER_FLAGS: Wait until Sylvie (ID: 17883923/0x0110E313) Render.Flags0 and Render.Flags3 conditions are met
127: 0x03E0 [0x2B] Sylvie (ID: 17883923/0x0110E313) [7819*]:
    → "Many people say that this is because Zacariah was a traitor."
128: 0x03E7 [0x23] WAIT_FOR_DIALOG_INTERACTION
129: 0x03E8 [0x29] REQ_SET_WAIT(priority=0x08, entity_id=Sylvie (ID: 17883923/0x0110E313), tag_num=0x01)
130: 0x03EF [0x2B] Sylvie (ID: 17883923/0x0110E313) [7820*]:
    → "But, I mean, no one knows for sure, right?"
131: 0x03F6 [0x23] WAIT_FOR_DIALOG_INTERACTION
132: 0x03F7 [0x29] REQ_SET_WAIT(priority=0x08, entity_id=Sylvie (ID: 17883923/0x0110E313), tag_num=0x02)
133: 0x03FE [0x27] REQ_SET(priority=0x08, entity_id=Sylvie (ID: 17883923/0x0110E313), tag_num=0x4B)
134: 0x0405 [0x2B] Sylvie (ID: 17883923/0x0110E313) [7821*]:
    → "At least Lhaiso was kind enough to listen to me."
135: 0x040C [0x23] WAIT_FOR_DIALOG_INTERACTION
136: 0x040D [0x2A] GET_REQ_LEVEL(level=8, entity_id=Sylvie (ID: 17883923/0x0110E313))
137: 0x0413 [0x52] END_LOAD_SCHEDULER: End scheduler "s141" with entities [LocalPlayer, LocalPlayer], work=662*
138: 0x0422 [0x45] LOAD_SCHEDULED_TASK: Load scheduler "s142" with entities [LocalPlayer, LocalPlayer], work=[662*, 0*]
139: 0x0433 [0x27] REQ_SET(priority=0x08, entity_id=Sylvie (ID: 17883923/0x0110E313), tag_num=0x49)
140: 0x043A [0x2B] Sylvie (ID: 17883923/0x0110E313) [7822*]:
    → "Oh--I totally forgot! She gave me a message for you."
141: 0x0441 [0x23] WAIT_FOR_DIALOG_INTERACTION
142: 0x0442 [0x2A] GET_REQ_LEVEL(level=8, entity_id=Sylvie (ID: 17883923/0x0110E313))
143: 0x0448 [0x29] REQ_SET_WAIT(priority=0x08, entity_id=Sylvie (ID: 17883923/0x0110E313), tag_num=0x01)
144: 0x044F [0x2B] Sylvie (ID: 17883923/0x0110E313) [7823*]:
    → "She wants you to see her at the Order of Renaye in Eastern Adoulin. (Oh, Sylvie, you went and forgot something important again--!)"
145: 0x0456 [0x23] WAIT_FOR_DIALOG_INTERACTION
146: 0x0457 [0x29] REQ_SET_WAIT(priority=0x08, entity_id=Sylvie (ID: 17883923/0x0110E313), tag_num=0x02)
147: 0x045E [0x29] REQ_SET_WAIT(priority=0x08, entity_id=Sylvie (ID: 17883923/0x0110E313), tag_num=0x03)
148: 0x0465 [0x29] REQ_SET_WAIT(priority=0x08, entity_id=Sylvie (ID: 17883923/0x0110E313), tag_num=0x04)
149: 0x046C [0x45] LOAD_SCHEDULED_TASK: Load scheduler "fdo1" with entities [LocalPlayer, LocalPlayer], work=[200*, 0*]
150: 0x047D [0x55] WAIT_LOAD_SCHEDULER: Wait for scheduler "fdo1" with entities [LocalPlayer, LocalPlayer], work=200*
151: 0x048C [0x52] END_LOAD_SCHEDULER: End scheduler "s142" with entities [LocalPlayer, LocalPlayer], work=662*
152: 0x049B [0x46] CAMERA_CONTROL: Restore default settings
153: 0x049D [0x45] LOAD_SCHEDULED_TASK: Load scheduler "fdi1" with entities [LocalPlayer, LocalPlayer], work=[200*, 0*]
154: 0x04AE [0x20] SET_CLI_EVENT_UC_FLAG: Unlock player control
155: 0x04B0 [0x21] END_EVENT
156: 0x04B1 [0x00] END_REQSTACK()
```

### Event 14

#### Metadata

| Field        | Value      |
|--------------|------------|
| Entrypoint   | 0x04B2     |
| Data Size    | 1982 bytes |
| Instructions | 241        |

```
      00 01 02 03 04 05 06 07  08 09 0A 0B 0C 0D 0E 0F
      -- -- -- -- -- -- -- --  -- -- -- -- -- -- -- --
04B0:       42 46 01 45 00 80  F0 FF FF 7F F0 FF FF 7F    BF.E..........
04C0: 66 64 6F 31 01 80 55 00  80 F0 FF FF 7F F0 FF FF  fdo1..U.........
04D0: 7F 66 64 6F 31 38 02 80  29 08 F0 FF FF 7F 09 29  .fdo18..)......)
04E0: 08 13 E3 10 01 4D 29 08  15 E3 10 01 0A 80 13 E3  .....M).........
04F0: 10 01 29 08 F0 FF FF 7F  11 B4 00 00 00 3F 3F 3F  ..)..........???
0500: 00 00 00 00 00 00 00 00  00 00 00 00 00 B5 00 00  ................
0510: 00 92 01 15 E3 10 01 92  01 13 E3 10 01 27 08 13  .............'..
0520: E3 10 01 4E 45 03 80 F0  FF FF 7F F0 FF FF 7F 73  ...NE..........s
0530: 32 35 30 01 80 45 00 80  F0 FF FF 7F F0 FF FF 7F  250..E..........
0540: 66 64 69 31 01 80 55 00  80 F0 FF FF 7F F0 FF FF  fdi1..U.........
0550: 7F 66 64 69 31 1C 16 80  79 00 F0 FF FF 7F 13 E3  .fdi1...y.......
0560: 10 01 1C 21 80 4A F0 FF  FF 7F 13 E3 10 01 6F 76  ...!.J........ov
0570: F0 FF FF 7F 2A 08 13 E3  10 01 79 00 13 E3 10 01  ....*.....y.....
0580: 14 E3 10 01 1C 21 80 79  00 13 E3 10 01 F0 FF FF  .....!.y........
0590: 7F 52 03 80 F0 FF FF 7F  F0 FF FF 7F 73 32 35 30  .R..........s250
05A0: 45 03 80 F0 FF FF 7F F0  FF FF 7F 73 32 35 31 01  E..........s251.
05B0: 80 29 08 13 E3 10 01 0A  2B 13 E3 10 01 22 80 23  .)......+....".#
05C0: 29 08 13 E3 10 01 0B 29  08 13 E3 10 01 0E 2B 13  )......)......+.
05D0: E3 10 01 23 80 23 29 08  13 E3 10 01 0F 29 08 13  ...#.#)......)..
05E0: E3 10 01 0C 52 03 80 F0  FF FF 7F F0 FF FF 7F 73  ....R..........s
05F0: 32 35 31 02 09 10 24 80  00 0F 06 45 03 80 F0 FF  251...$....E....
0600: FF 7F F0 FF FF 7F 73 32  36 37 01 80 01 3C 06 02  ......s267...<..
0610: 09 10 25 80 00 2B 06 45  03 80 F0 FF FF 7F F0 FF  ..%..+.E........
0620: FF 7F 73 32 36 37 01 80  01 3C 06 45 03 80 F0 FF  ..s267...<.E....
0630: FF 7F F0 FF FF 7F 73 32  36 34 01 80 2B 13 E3 10  ......s264..+...
0640: 01 26 80 23 29 08 13 E3  10 01 0D 02 09 10 24 80  .&.#).........$.
0650: 00 65 06 52 03 80 F0 FF  FF 7F F0 FF FF 7F 73 32  .e.R..........s2
0660: 36 37 01 8E 06 02 09 10  25 80 00 7F 06 52 03 80  67......%....R..
0670: F0 FF FF 7F F0 FF FF 7F  73 32 36 37 01 8E 06 52  ........s267...R
0680: 03 80 F0 FF FF 7F F0 FF  FF 7F 73 32 36 34 45 03  ..........s264E.
0690: 80 F0 FF FF 7F F0 FF FF  7F 73 32 35 32 01 80 7B  .........s252..{
06A0: 13 E3 10 01 27 08 13 E3  10 01 46 2B 13 E3 10 01  ....'.....F+....
06B0: 27 80 23 2A 08 13 E3 10  01 52 03 80 F0 FF FF 7F  '.#*.....R......
06C0: F0 FF FF 7F 73 32 35 32  45 03 80 F0 FF FF 7F F0  ....s252E.......
06D0: FF FF 7F 73 32 35 33 01  80 5D 01 80 00 80 1C 06  ...s253..]......
06E0: 80 29 08 13 E3 10 01 3C  2B 13 E3 10 01 28 80 23  .).....<+....(.#
06F0: 52 03 80 F0 FF FF 7F F0  FF FF 7F 73 32 35 33 02  R..........s253.
0700: 09 10 24 80 00 1B 07 45  03 80 F0 FF FF 7F F0 FF  ..$....E........
0710: FF 7F 73 32 39 35 01 80  01 48 07 02 09 10 25 80  ..s295...H....%.
0720: 00 37 07 45 03 80 F0 FF  FF 7F F0 FF FF 7F 73 32  .7.E..........s2
0730: 39 35 01 80 01 48 07 45  03 80 F0 FF FF 7F F0 FF  95...H.E........
0740: FF 7F 73 32 35 34 01 80  2C 13 E3 10 01 13 E3 10  ..s254..,.......
0750: 01 63 61 67 65 1C 29 80  2B 13 E3 10 01 2A 80 1C  .cage.).+....*..
0760: 0E 80 53 13 E3 10 01 13  E3 10 01 63 61 67 65 2C  ..S........cage,
0770: 13 E3 10 01 13 E3 10 01  73 68 67 65 29 08 17 E3  ........shge)...
0780: 10 01 02 2C 17 E3 10 01  17 E3 10 01 73 74 61 72  ...,........star
0790: 1C 21 80 29 08 F0 FF FF  7F 06 1C 2B 80 02 09 10  .!.).......+....
07A0: 2C 80 00 CD 07 52 03 80  F0 FF FF 7F F0 FF FF 7F  ,....R..........
07B0: 73 32 35 34 45 03 80 F0  FF FF 7F F0 FF FF 7F 73  s254E..........s
07C0: 32 39 37 01 80 7B F0 FF  FF 7F 01 73 08 02 09 10  297..{.....s....
07D0: 24 80 00 F8 07 52 03 80  F0 FF FF 7F F0 FF FF 7F  $....R..........
07E0: 73 32 39 35 45 03 80 F0  FF FF 7F F0 FF FF 7F 73  s295E..........s
07F0: 32 39 36 01 80 01 73 08  02 09 10 25 80 00 23 08  296...s....%..#.
0800: 52 03 80 F0 FF FF 7F F0  FF FF 7F 73 32 39 35 45  R..........s295E
0810: 03 80 F0 FF FF 7F F0 FF  FF 7F 73 32 39 36 01 80  ..........s296..
0820: 01 73 08 02 09 10 2D 80  00 4E 08 52 03 80 F0 FF  .s....-..N.R....
0830: FF 7F F0 FF FF 7F 73 32  35 34 45 03 80 F0 FF FF  ......s254E.....
0840: 7F F0 FF FF 7F 73 32 39  37 01 80 01 73 08 52 03  .....s297...s.R.
0850: 80 F0 FF FF 7F F0 FF FF  7F 73 32 35 34 45 03 80  .........s254E..
0860: F0 FF FF 7F F0 FF FF 7F  73 32 39 38 01 80 7B F0  ........s298..{.
0870: FF FF 7F 53 13 E3 10 01  13 E3 10 01 73 68 67 65  ...S........shge
0880: 1C 2E 80 45 2F 80 F0 FF  FF 7F F0 FF FF 7F 77 68  ...E/.........wh
0890: 6F 31 01 80 55 2F 80 F0  FF FF 7F F0 FF FF 7F 77  o1..U/.........w
08A0: 68 6F 31 23 02 09 10 2C  80 00 BE 08 52 03 80 F0  ho1#...,....R...
08B0: FF FF 7F F0 FF FF 7F 73  32 39 37 01 1B 09 02 09  .......s297.....
08C0: 10 24 80 00 D8 08 52 03  80 F0 FF FF 7F F0 FF FF  .$....R.........
08D0: 7F 73 32 39 36 01 1B 09  02 09 10 25 80 00 F2 08  .s296......%....
08E0: 52 03 80 F0 FF FF 7F F0  FF FF 7F 73 32 39 36 01  R..........s296.
08F0: 1B 09 02 09 10 2D 80 00  0C 09 52 03 80 F0 FF FF  .....-....R.....
0900: 7F F0 FF FF 7F 73 32 39  37 01 1B 09 52 03 80 F0  .....s297...R...
0910: FF FF 7F F0 FF FF 7F 73  32 39 38 5C 00 30 80 5C  .......s298\.0.\
0920: 01 30 80 9A 5D 31 80 32  80 1C 07 80 4E 00 15 E3  .0..]1.2....N...
0930: 10 01 CD 33 80 15 E3 10  01 15 E3 10 01 73 74 61  ...3.........sta
0940: 72 01 80 29 08 15 E3 10  01 03 1C 2E 80 45 03 80  r..).........E..
0950: F0 FF FF 7F F0 FF FF 7F  73 32 35 35 01 80 45 2F  ........s255..E/
0960: 80 F0 FF FF 7F F0 FF FF  7F 77 68 69 31 01 80 55  .........whi1..U
0970: 2F 80 F0 FF FF 7F F0 FF  FF 7F 77 68 69 31 1D 34  /.........whi1.4
0980: 80 23 29 08 F0 FF FF 7F  0A 4A 13 E3 10 01 15 E3  .#)......J......
0990: 10 01 4A F0 FF FF 7F 15  E3 10 01 6F 76 13 E3 10  ..J........ov...
09A0: 01 6F 76 F0 FF FF 7F 52  03 80 F0 FF FF 7F F0 FF  .ov....R........
09B0: FF 7F 73 32 35 35 45 03  80 F0 FF FF 7F F0 FF FF  ..s255E.........
09C0: 7F 73 32 35 36 01 80 1D  35 80 23 52 03 80 F0 FF  .s256...5.#R....
09D0: FF 7F F0 FF FF 7F 73 32  35 36 45 03 80 F0 FF FF  ......s256E.....
09E0: 7F F0 FF FF 7F 73 32 36  35 01 80 29 08 13 E3 10  .....s265..)....
09F0: 01 01 2B 13 E3 10 01 36  80 23 29 08 13 E3 10 01  ..+....6.#).....
0A00: 02 52 03 80 F0 FF FF 7F  F0 FF FF 7F 73 32 36 35  .R..........s265
0A10: 45 03 80 F0 FF FF 7F F0  FF FF 7F 73 32 35 37 01  E..........s257.
0A20: 80 29 08 13 E3 10 01 03  1D 37 80 23 29 08 13 E3  .).......7.#)...
0A30: 10 01 04 7B 13 E3 10 01  29 08 13 E3 10 01 2C 2B  ...{....).....,+
0A40: 13 E3 10 01 38 80 23 29  08 13 E3 10 01 2D 52 03  ....8.#).....-R.
0A50: 80 F0 FF FF 7F F0 FF FF  7F 73 32 35 37 45 03 80  .........s257E..
0A60: F0 FF FF 7F F0 FF FF 7F  73 32 36 30 01 80 1D 39  ........s260...9
0A70: 80 23 52 03 80 F0 FF FF  7F F0 FF FF 7F 73 32 36  .#R..........s26
0A80: 30 45 03 80 F0 FF FF 7F  F0 FF FF 7F 73 32 35 38  0E..........s258
0A90: 01 80 79 00 13 E3 10 01  15 E3 10 01 29 08 13 E3  ..y.........)...
0AA0: 10 01 2E 2B 13 E3 10 01  3A 80 23 29 08 13 E3 10  ...+....:.#)....
0AB0: 01 2F 29 08 13 E3 10 01  0A 2B 13 E3 10 01 3B 80  ./)......+....;.
0AC0: 23 29 08 13 E3 10 01 0B  52 03 80 F0 FF FF 7F F0  #)......R.......
0AD0: FF FF 7F 73 32 35 38 45  03 80 F0 FF FF 7F F0 FF  ...s258E........
0AE0: FF 7F 73 32 36 36 01 80  27 08 F0 FF FF 7F 0B 29  ..s266..'......)
0AF0: 08 13 E3 10 01 0E 2B 13  E3 10 01 3C 80 23 29 08  ......+....<.#).
0B00: 13 E3 10 01 0F 2A 08 F0  FF FF 7F 52 03 80 F0 FF  .....*.....R....
0B10: FF 7F F0 FF FF 7F 73 32  36 36 45 03 80 F0 FF FF  ......s266E.....
0B20: 7F F0 FF FF 7F 73 32 35  39 01 80 79 00 F0 FF FF  .....s259..y....
0B30: 7F 15 E3 10 01 29 08 13  E3 10 01 0C 1D 3D 80 23  .....).......=.#
0B40: 1D 3E 80 23 29 08 13 E3  10 01 0D 52 03 80 F0 FF  .>.#)......R....
0B50: FF 7F F0 FF FF 7F 73 32  35 39 45 03 80 F0 FF FF  ......s259E.....
0B60: 7F F0 FF FF 7F 73 32 36  31 01 80 1D 3F 80 23 29  .....s261...?.#)
0B70: 08 13 E3 10 01 18 2B 13  E3 10 01 40 80 23 29 08  ......+....@.#).
0B80: 13 E3 10 01 19 52 03 80  F0 FF FF 7F F0 FF FF 7F  .....R..........
0B90: 73 32 36 31 45 03 80 F0  FF FF 7F F0 FF FF 7F 73  s261E..........s
0BA0: 32 36 32 01 80 1D 41 80  23 1D 42 80 23 29 08 13  262...A.#.B.#)..
0BB0: E3 10 01 1A 29 08 13 E3  10 01 1B 52 03 80 F0 FF  ....)......R....
0BC0: FF 7F F0 FF FF 7F 73 32  36 32 45 03 80 F0 FF FF  ......s262E.....
0BD0: 7F F0 FF FF 7F 73 32 36  33 01 80 1D 43 80 1C 44  .....s263...C..D
0BE0: 80 5D 01 80 00 80 45 2F  80 F0 FF FF 7F F0 FF FF  .]....E/........
0BF0: 7F 77 68 6F 31 01 80 55  2F 80 F0 FF FF 7F F0 FF  .who1..U/.......
0C00: FF 7F 77 68 6F 31 23 CD  33 80 15 E3 10 01 15 E3  ..who1#.3.......
0C10: 10 01 73 74 6F 70 01 80  4E 01 15 E3 10 01 52 03  ..stop..N.....R.
0C20: 80 F0 FF FF 7F F0 FF FF  7F 73 32 36 33 29 08 17  .........s263)..
0C30: E3 10 01 03 5C 00 01 80  5C 01 01 80 9A 5D 31 80  ....\...\....]1.
0C40: 0E 80 1C 0F 80 45 03 80  15 E3 10 01 15 E3 10 01  .....E..........
0C50: 73 65 30 33 01 80 1C 0F  80 46 00 45 2F 80 F0 FF  se03.....F.E/...
0C60: FF 7F F0 FF FF 7F 77 68  69 31 01 80 20 00 21 00  ......whi1.. .!.
```

#### Opcodes

```
  0: 0x04B2 [0x42] SET_CLI_EVENT_CANCEL_DATA()
  1: 0x04B3 [0x46] CAMERA_CONTROL: Disable user control
  2: 0x04B5 [0x45] LOAD_SCHEDULED_TASK: Load scheduler "fdo1" with entities [LocalPlayer, LocalPlayer], work=[200*, 0*]
  3: 0x04C6 [0x55] WAIT_LOAD_SCHEDULER: Wait for scheduler "fdo1" with entities [LocalPlayer, LocalPlayer], work=200*
  4: 0x04D5 [0x38] SET_CLIENT_EVENT_MODE(mode=19*)
  5: 0x04D8 [0x29] REQ_SET_WAIT(priority=0x08, entity_id=LocalPlayer, tag_num=0x09)
  6: 0x04DF [0x29] REQ_SET_WAIT(priority=0x08, entity_id=Sylvie (ID: 17883923/0x0110E313), tag_num=0x4D)
  7: 0x04E6 [0x29] REQ_SET_WAIT(priority=0x08, entity_id=??? (ID: 17883925/0x0110E315), tag_num=0x0A)
  8: 0x04ED [0x80] LOAD_WAIT(entity=Sylvie (ID: 17883923/0x0110E313))
  9: 0x04F2 [0x29] REQ_SET_WAIT(priority=0x08, entity_id=LocalPlayer, tag_num=0x11)
 10: 0x04F9 [0xB4] UI_WINDOW_STRING_HANDLER(case=0x00 - Copy string from opcode, work_offset=ExtData[1]->WorkLocal[0], string="???")
 11: 0x050D [0xB5] SET_EVENT_ENTITY_NAME: Change EventEntity name to ExtData[1]->WorkLocal[0]
 12: 0x0511 [0x92] ??? (ID: 17883925/0x0110E315)->Render.Flags3 ^= 0x01
 13: 0x0517 [0x92] Sylvie (ID: 17883923/0x0110E313)->Render.Flags3 ^= 0x01
 14: 0x051D [0x27] REQ_SET(priority=0x08, entity_id=Sylvie (ID: 17883923/0x0110E313), tag_num=0x4E)
 15: 0x0524 [0x45] LOAD_SCHEDULED_TASK: Load scheduler "s250" with entities [LocalPlayer, LocalPlayer], work=[662*, 0*]
 16: 0x0535 [0x45] LOAD_SCHEDULED_TASK: Load scheduler "fdi1" with entities [LocalPlayer, LocalPlayer], work=[200*, 0*]
 17: 0x0546 [0x55] WAIT_LOAD_SCHEDULER: Wait for scheduler "fdi1" with entities [LocalPlayer, LocalPlayer], work=200*
 18: 0x0555 [0x1C] WAIT(30* ticks)
 19: 0x0558 [0x79] LocalPlayer looks at Sylvie (ID: 17883923/0x0110E313) (Basic look)
 20: 0x0562 [0x1C] WAIT(60* ticks)
 21: 0x0565 [0x4A] LocalPlayer looks at Sylvie (ID: 17883923/0x0110E313)
 22: 0x056E [0x6F] WAIT_FRAME_DELAY: Yield until WaitTime reaches zero
 23: 0x056F [0x76] CHECK_ENTITY_RENDER_FLAGS: Wait until LocalPlayer Render.Flags0 and Render.Flags3 conditions are met
 24: 0x0574 [0x2A] GET_REQ_LEVEL(level=8, entity_id=Sylvie (ID: 17883923/0x0110E313))
 25: 0x057A [0x79] Sylvie (ID: 17883923/0x0110E313) looks at Overgrown Grave (ID: 17883924/0x0110E314) (Basic look)
 26: 0x0584 [0x1C] WAIT(60* ticks)
 27: 0x0587 [0x79] Sylvie (ID: 17883923/0x0110E313) looks at LocalPlayer (Basic look)
 28: 0x0591 [0x52] END_LOAD_SCHEDULER: End scheduler "s250" with entities [LocalPlayer, LocalPlayer], work=662*
 29: 0x05A0 [0x45] LOAD_SCHEDULED_TASK: Load scheduler "s251" with entities [LocalPlayer, LocalPlayer], work=[662*, 0*]
 30: 0x05B1 [0x29] REQ_SET_WAIT(priority=0x08, entity_id=Sylvie (ID: 17883923/0x0110E313), tag_num=0x0A)
 31: 0x05B8 [0x2B] Sylvie (ID: 17883923/0x0110E313) [7824*]:
    → "<Player>, do you remember what we talked about the last time we were here?"
 32: 0x05BF [0x23] WAIT_FOR_DIALOG_INTERACTION
 33: 0x05C0 [0x29] REQ_SET_WAIT(priority=0x08, entity_id=Sylvie (ID: 17883923/0x0110E313), tag_num=0x0B)
 34: 0x05C7 [0x29] REQ_SET_WAIT(priority=0x08, entity_id=Sylvie (ID: 17883923/0x0110E313), tag_num=0x0E)
 35: 0x05CE [0x2B] Sylvie (ID: 17883923/0x0110E313) [7825*]:
    → "You know--what Zacariah's descendants believe about geomancers returning to the earth and becoming part of the lifestream after having understood the intricacies of nature."
 36: 0x05D5 [0x23] WAIT_FOR_DIALOG_INTERACTION
 37: 0x05D6 [0x29] REQ_SET_WAIT(priority=0x08, entity_id=Sylvie (ID: 17883923/0x0110E313), tag_num=0x0F)
 38: 0x05DD [0x29] REQ_SET_WAIT(priority=0x08, entity_id=Sylvie (ID: 17883923/0x0110E313), tag_num=0x0C)
 39: 0x05E4 [0x52] END_LOAD_SCHEDULER: End scheduler "s251" with entities [LocalPlayer, LocalPlayer], work=662*
 40: 0x05F3 [0x02] IF !(Work_Zone[9] == 5*) GOTO 0x060F
 41: 0x05FB [0x45] LOAD_SCHEDULED_TASK: Load scheduler "s267" with entities [LocalPlayer, LocalPlayer], work=[662*, 0*]
 42: 0x060C [0x01] GOTO 0x063C
 43: 0x060F [0x02] IF !(Work_Zone[9] == 6*) GOTO 0x062B
 44: 0x0617 [0x45] LOAD_SCHEDULED_TASK: Load scheduler "s267" with entities [LocalPlayer, LocalPlayer], work=[662*, 0*]
 45: 0x0628 [0x01] GOTO 0x063C
 46: 0x062B [0x45] LOAD_SCHEDULED_TASK: Load scheduler "s264" with entities [LocalPlayer, LocalPlayer], work=[662*, 0*]

SUBROUTINE_063C:
 47: 0x063C [0x2B] Sylvie (ID: 17883923/0x0110E313) [7826*]:
    → "I think that's the reason why Zacariah, who was branded a traitor, was buried here in the caverns."
 48: 0x0643 [0x23] WAIT_FOR_DIALOG_INTERACTION
 49: 0x0644 [0x29] REQ_SET_WAIT(priority=0x08, entity_id=Sylvie (ID: 17883923/0x0110E313), tag_num=0x0D)
 50: 0x064B [0x02] IF !(Work_Zone[9] == 5*) GOTO 0x0665
 51: 0x0653 [0x52] END_LOAD_SCHEDULER: End scheduler "s267" with entities [LocalPlayer, LocalPlayer], work=662*
 52: 0x0662 [0x01] GOTO 0x068E
 53: 0x0665 [0x02] IF !(Work_Zone[9] == 6*) GOTO 0x067F
 54: 0x066D [0x52] END_LOAD_SCHEDULER: End scheduler "s267" with entities [LocalPlayer, LocalPlayer], work=662*
 55: 0x067C [0x01] GOTO 0x068E
 56: 0x067F [0x52] END_LOAD_SCHEDULER: End scheduler "s264" with entities [LocalPlayer, LocalPlayer], work=662*

SUBROUTINE_068E:
 57: 0x068E [0x45] LOAD_SCHEDULED_TASK: Load scheduler "s252" with entities [LocalPlayer, LocalPlayer], work=[662*, 0*]
 58: 0x069F [0x7B] Sylvie (ID: 17883923/0x0110E313) stops talking
 59: 0x06A4 [0x27] REQ_SET(priority=0x08, entity_id=Sylvie (ID: 17883923/0x0110E313), tag_num=0x46)
 60: 0x06AB [0x2B] Sylvie (ID: 17883923/0x0110E313) [7827*]:
    → "And likely the reason many of my family chose this as their final resting place as well."
 61: 0x06B2 [0x23] WAIT_FOR_DIALOG_INTERACTION
 62: 0x06B3 [0x2A] GET_REQ_LEVEL(level=8, entity_id=Sylvie (ID: 17883923/0x0110E313))
 63: 0x06B9 [0x52] END_LOAD_SCHEDULER: End scheduler "s252" with entities [LocalPlayer, LocalPlayer], work=662*
 64: 0x06C8 [0x45] LOAD_SCHEDULED_TASK: Load scheduler "s253" with entities [LocalPlayer, LocalPlayer], work=[662*, 0*]
 65: 0x06D9 [0x5D] SET_MUSIC_VOLUME(volume=0*, fade_time=200*)
 66: 0x06DE [0x1C] WAIT(40* ticks)
 67: 0x06E1 [0x29] REQ_SET_WAIT(priority=0x08, entity_id=Sylvie (ID: 17883923/0x0110E313), tag_num=0x3C)
 68: 0x06E8 [0x2B] Sylvie (ID: 17883923/0x0110E313) [7828*]:
    → "...You ready to try this, <Player>? Let's hope that my ancestors help us to ring the bell."
 69: 0x06EF [0x23] WAIT_FOR_DIALOG_INTERACTION
 70: 0x06F0 [0x52] END_LOAD_SCHEDULER: End scheduler "s253" with entities [LocalPlayer, LocalPlayer], work=662*
 71: 0x06FF [0x02] IF !(Work_Zone[9] == 5*) GOTO 0x071B
 72: 0x0707 [0x45] LOAD_SCHEDULED_TASK: Load scheduler "s295" with entities [LocalPlayer, LocalPlayer], work=[662*, 0*]
 73: 0x0718 [0x01] GOTO 0x0748
 74: 0x071B [0x02] IF !(Work_Zone[9] == 6*) GOTO 0x0737
 75: 0x0723 [0x45] LOAD_SCHEDULED_TASK: Load scheduler "s295" with entities [LocalPlayer, LocalPlayer], work=[662*, 0*]
 76: 0x0734 [0x01] GOTO 0x0748
 77: 0x0737 [0x45] LOAD_SCHEDULED_TASK: Load scheduler "s254" with entities [LocalPlayer, LocalPlayer], work=[662*, 0*]

SUBROUTINE_0748:
 78: 0x0748 [0x2C] CREATE_SCHEDULER_TASK: Create scheduler "cage" with entities [Sylvie (ID: 17883923/0x0110E313), Sylvie (ID: 17883923/0x0110E313)]
 79: 0x0755 [0x1C] WAIT(140* ticks)
 80: 0x0758 [0x2B] Sylvie (ID: 17883923/0x0110E313) [7829*]:
    → "C'mon, <Player>! Ring the bell!"
 81: 0x075F [0x1C] WAIT(100* ticks)
 82: 0x0762 [0x53] WAIT_SCHEDULER_TASK: Wait for scheduler "cage" with entities [Sylvie (ID: 17883923/0x0110E313), Sylvie (ID: 17883923/0x0110E313)]
 83: 0x076F [0x2C] CREATE_SCHEDULER_TASK: Create scheduler "shge" with entities [Sylvie (ID: 17883923/0x0110E313), Sylvie (ID: 17883923/0x0110E313)]
 84: 0x077C [0x29] REQ_SET_WAIT(priority=0x08, entity_id=??? (ID: 17883927/0x0110E317), tag_num=0x02)
 85: 0x0783 [0x2C] CREATE_SCHEDULER_TASK: Create scheduler "star" with entities [??? (ID: 17883927/0x0110E317), ??? (ID: 17883927/0x0110E317)]
 86: 0x0790 [0x1C] WAIT(60* ticks)
 87: 0x0793 [0x29] REQ_SET_WAIT(priority=0x08, entity_id=LocalPlayer, tag_num=0x06)
 88: 0x079A [0x1C] WAIT(50* ticks)
 89: 0x079D [0x02] IF !(Work_Zone[9] == 3*) GOTO 0x07CD
 90: 0x07A5 [0x52] END_LOAD_SCHEDULER: End scheduler "s254" with entities [LocalPlayer, LocalPlayer], work=662*
 91: 0x07B4 [0x45] LOAD_SCHEDULED_TASK: Load scheduler "s297" with entities [LocalPlayer, LocalPlayer], work=[662*, 0*]
 92: 0x07C5 [0x7B] LocalPlayer stops talking
 93: 0x07CA [0x01] GOTO 0x0873
 94: 0x07CD [0x02] IF !(Work_Zone[9] == 5*) GOTO 0x07F8
 95: 0x07D5 [0x52] END_LOAD_SCHEDULER: End scheduler "s295" with entities [LocalPlayer, LocalPlayer], work=662*
 96: 0x07E4 [0x45] LOAD_SCHEDULED_TASK: Load scheduler "s296" with entities [LocalPlayer, LocalPlayer], work=[662*, 0*]
 97: 0x07F5 [0x01] GOTO 0x0873
 98: 0x07F8 [0x02] IF !(Work_Zone[9] == 6*) GOTO 0x0823
 99: 0x0800 [0x52] END_LOAD_SCHEDULER: End scheduler "s295" with entities [LocalPlayer, LocalPlayer], work=662*
100: 0x080F [0x45] LOAD_SCHEDULED_TASK: Load scheduler "s296" with entities [LocalPlayer, LocalPlayer], work=[662*, 0*]
101: 0x0820 [0x01] GOTO 0x0873
102: 0x0823 [0x02] IF !(Work_Zone[9] == 8*) GOTO 0x084E
103: 0x082B [0x52] END_LOAD_SCHEDULER: End scheduler "s254" with entities [LocalPlayer, LocalPlayer], work=662*
104: 0x083A [0x45] LOAD_SCHEDULED_TASK: Load scheduler "s297" with entities [LocalPlayer, LocalPlayer], work=[662*, 0*]
105: 0x084B [0x01] GOTO 0x0873
106: 0x084E [0x52] END_LOAD_SCHEDULER: End scheduler "s254" with entities [LocalPlayer, LocalPlayer], work=662*
107: 0x085D [0x45] LOAD_SCHEDULED_TASK: Load scheduler "s298" with entities [LocalPlayer, LocalPlayer], work=[662*, 0*]
108: 0x086E [0x7B] LocalPlayer stops talking

SUBROUTINE_0873:
109: 0x0873 [0x53] WAIT_SCHEDULER_TASK: Wait for scheduler "shge" with entities [Sylvie (ID: 17883923/0x0110E313), Sylvie (ID: 17883923/0x0110E313)]
110: 0x0880 [0x1C] WAIT(20* ticks)
111: 0x0883 [0x45] LOAD_SCHEDULED_TASK: Load scheduler "who1" with entities [LocalPlayer, LocalPlayer], work=[201*, 0*]
112: 0x0894 [0x55] WAIT_LOAD_SCHEDULER: Wait for scheduler "who1" with entities [LocalPlayer, LocalPlayer], work=201*
113: 0x08A3 [0x23] WAIT_FOR_DIALOG_INTERACTION
114: 0x08A4 [0x02] IF !(Work_Zone[9] == 3*) GOTO 0x08BE
115: 0x08AC [0x52] END_LOAD_SCHEDULER: End scheduler "s297" with entities [LocalPlayer, LocalPlayer], work=662*
116: 0x08BB [0x01] GOTO 0x091B
117: 0x08BE [0x02] IF !(Work_Zone[9] == 5*) GOTO 0x08D8
118: 0x08C6 [0x52] END_LOAD_SCHEDULER: End scheduler "s296" with entities [LocalPlayer, LocalPlayer], work=662*
119: 0x08D5 [0x01] GOTO 0x091B
120: 0x08D8 [0x02] IF !(Work_Zone[9] == 6*) GOTO 0x08F2
121: 0x08E0 [0x52] END_LOAD_SCHEDULER: End scheduler "s296" with entities [LocalPlayer, LocalPlayer], work=662*
122: 0x08EF [0x01] GOTO 0x091B
123: 0x08F2 [0x02] IF !(Work_Zone[9] == 8*) GOTO 0x090C
124: 0x08FA [0x52] END_LOAD_SCHEDULER: End scheduler "s297" with entities [LocalPlayer, LocalPlayer], work=662*
125: 0x0909 [0x01] GOTO 0x091B
126: 0x090C [0x52] END_LOAD_SCHEDULER: End scheduler "s298" with entities [LocalPlayer, LocalPlayer], work=662*

SUBROUTINE_091B:
127: 0x091B [0x5C] MUSIC_CONTROL: Set Idle (Day) music to song 62*
128: 0x091F [0x5C] MUSIC_CONTROL: Set Idle (Night) music to song 62*
129: 0x0923 [0x9A] WAIT_MUSIC_SERVER()
130: 0x0924 [0x5D] SET_MUSIC_VOLUME(volume=127*, fade_time=1*)
131: 0x0929 [0x1C] WAIT(10* ticks)
132: 0x092C [0x4E] SET_ENTITY_HIDE_FLAG: Show ??? (ID: 17883925/0x0110E315)
133: 0x0932 [0xCD] LOAD_SCHEDULED_TASK_ALT4: Load scheduler "star" with entities [??? (ID: 17883925/0x0110E315), ??? (ID: 17883925/0x0110E315)], work=[157*, 0*]
134: 0x0943 [0x29] REQ_SET_WAIT(priority=0x08, entity_id=??? (ID: 17883925/0x0110E315), tag_num=0x03)
135: 0x094A [0x1C] WAIT(20* ticks)
136: 0x094D [0x45] LOAD_SCHEDULED_TASK: Load scheduler "s255" with entities [LocalPlayer, LocalPlayer], work=[662*, 0*]
137: 0x095E [0x45] LOAD_SCHEDULED_TASK: Load scheduler "whi1" with entities [LocalPlayer, LocalPlayer], work=[201*, 0*]
138: 0x096F [0x55] WAIT_LOAD_SCHEDULER: Wait for scheduler "whi1" with entities [LocalPlayer, LocalPlayer], work=201*
139: 0x097E [0x1D] PRINT_EVENT_MESSAGE(message_id=7830*)
    → "<Oh ho ho, how long hath it been since we have seen one of Zacariah's blood?>"
140: 0x0981 [0x23] WAIT_FOR_DIALOG_INTERACTION
141: 0x0982 [0x29] REQ_SET_WAIT(priority=0x08, entity_id=LocalPlayer, tag_num=0x0A)
142: 0x0989 [0x4A] Sylvie (ID: 17883923/0x0110E313) looks at ??? (ID: 17883925/0x0110E315)
143: 0x0992 [0x4A] LocalPlayer looks at ??? (ID: 17883925/0x0110E315)
144: 0x099B [0x6F] WAIT_FRAME_DELAY: Yield until WaitTime reaches zero
145: 0x099C [0x76] CHECK_ENTITY_RENDER_FLAGS: Wait until Sylvie (ID: 17883923/0x0110E313) Render.Flags0 and Render.Flags3 conditions are met
146: 0x09A1 [0x6F] WAIT_FRAME_DELAY: Yield until WaitTime reaches zero
147: 0x09A2 [0x76] CHECK_ENTITY_RENDER_FLAGS: Wait until LocalPlayer Render.Flags0 and Render.Flags3 conditions are met
148: 0x09A7 [0x52] END_LOAD_SCHEDULER: End scheduler "s255" with entities [LocalPlayer, LocalPlayer], work=662*
149: 0x09B6 [0x45] LOAD_SCHEDULED_TASK: Load scheduler "s256" with entities [LocalPlayer, LocalPlayer], work=[662*, 0*]
150: 0x09C7 [0x1D] PRINT_EVENT_MESSAGE(message_id=7831*)
    → "<We know that geomancers, who master indicolure magic and purify the lifestream, offer thy shells to the land here.>"
151: 0x09CA [0x23] WAIT_FOR_DIALOG_INTERACTION
152: 0x09CB [0x52] END_LOAD_SCHEDULER: End scheduler "s256" with entities [LocalPlayer, LocalPlayer], work=662*
153: 0x09DA [0x45] LOAD_SCHEDULED_TASK: Load scheduler "s265" with entities [LocalPlayer, LocalPlayer], work=[662*, 0*]
154: 0x09EB [0x29] REQ_SET_WAIT(priority=0x08, entity_id=Sylvie (ID: 17883923/0x0110E313), tag_num=0x01)
155: 0x09F2 [0x2B] Sylvie (ID: 17883923/0x0110E313) [7832*]:
    → "Th-that's right, great higher power...sir? We've done as our tradition tells us."
156: 0x09F9 [0x23] WAIT_FOR_DIALOG_INTERACTION
157: 0x09FA [0x29] REQ_SET_WAIT(priority=0x08, entity_id=Sylvie (ID: 17883923/0x0110E313), tag_num=0x02)
158: 0x0A01 [0x52] END_LOAD_SCHEDULER: End scheduler "s265" with entities [LocalPlayer, LocalPlayer], work=662*
159: 0x0A10 [0x45] LOAD_SCHEDULED_TASK: Load scheduler "s257" with entities [LocalPlayer, LocalPlayer], work=[662*, 0*]
160: 0x0A21 [0x29] REQ_SET_WAIT(priority=0x08, entity_id=Sylvie (ID: 17883923/0x0110E313), tag_num=0x03)
161: 0x0A28 [0x1D] PRINT_EVENT_MESSAGE(message_id=7833*)
    → "<Then tell us, blood of Zacariah. Why is the lifestream volatile and disrupted elsewhere, yet not here? Are there those who do not believe Zacariah?>"
162: 0x0A2B [0x23] WAIT_FOR_DIALOG_INTERACTION
163: 0x0A2C [0x29] REQ_SET_WAIT(priority=0x08, entity_id=Sylvie (ID: 17883923/0x0110E313), tag_num=0x04)
164: 0x0A33 [0x7B] Sylvie (ID: 17883923/0x0110E313) stops talking
165: 0x0A38 [0x29] REQ_SET_WAIT(priority=0x08, entity_id=Sylvie (ID: 17883923/0x0110E313), tag_num=0x2C)
166: 0x0A3F [0x2B] Sylvie (ID: 17883923/0x0110E313) [7834*]:
    → "W-well...Zacariah is believed to be a traitor. We do what we can, but..."
167: 0x0A46 [0x23] WAIT_FOR_DIALOG_INTERACTION
168: 0x0A47 [0x29] REQ_SET_WAIT(priority=0x08, entity_id=Sylvie (ID: 17883923/0x0110E313), tag_num=0x2D)
169: 0x0A4E [0x52] END_LOAD_SCHEDULER: End scheduler "s257" with entities [LocalPlayer, LocalPlayer], work=662*
170: 0x0A5D [0x45] LOAD_SCHEDULED_TASK: Load scheduler "s260" with entities [LocalPlayer, LocalPlayer], work=[662*, 0*]
171: 0x0A6E [0x1D] PRINT_EVENT_MESSAGE(message_id=7835*)
    → "<...>"
172: 0x0A71 [0x23] WAIT_FOR_DIALOG_INTERACTION
173: 0x0A72 [0x52] END_LOAD_SCHEDULER: End scheduler "s260" with entities [LocalPlayer, LocalPlayer], work=662*
174: 0x0A81 [0x45] LOAD_SCHEDULED_TASK: Load scheduler "s258" with entities [LocalPlayer, LocalPlayer], work=[662*, 0*]
175: 0x0A92 [0x79] Sylvie (ID: 17883923/0x0110E313) looks at ??? (ID: 17883925/0x0110E315) (Basic look)
176: 0x0A9C [0x29] REQ_SET_WAIT(priority=0x08, entity_id=Sylvie (ID: 17883923/0x0110E313), tag_num=0x2E)
177: 0x0AA3 [0x2B] Sylvie (ID: 17883923/0x0110E313) [7836*]:
    → "I just know th-that Daddy's death can help bring the other geomancers around! If we can get them to agree, then we can help bring harmony to nature!"
178: 0x0AAA [0x23] WAIT_FOR_DIALOG_INTERACTION
179: 0x0AAB [0x29] REQ_SET_WAIT(priority=0x08, entity_id=Sylvie (ID: 17883923/0x0110E313), tag_num=0x2F)
180: 0x0AB2 [0x29] REQ_SET_WAIT(priority=0x08, entity_id=Sylvie (ID: 17883923/0x0110E313), tag_num=0x0A)
181: 0x0AB9 [0x2B] Sylvie (ID: 17883923/0x0110E313) [7837*]:
    → "So please, stop harming the other g-geomancers and save Lhaiso!"
182: 0x0AC0 [0x23] WAIT_FOR_DIALOG_INTERACTION
183: 0x0AC1 [0x29] REQ_SET_WAIT(priority=0x08, entity_id=Sylvie (ID: 17883923/0x0110E313), tag_num=0x0B)
184: 0x0AC8 [0x52] END_LOAD_SCHEDULER: End scheduler "s258" with entities [LocalPlayer, LocalPlayer], work=662*
185: 0x0AD7 [0x45] LOAD_SCHEDULED_TASK: Load scheduler "s266" with entities [LocalPlayer, LocalPlayer], work=[662*, 0*]
186: 0x0AE8 [0x27] REQ_SET(priority=0x08, entity_id=LocalPlayer, tag_num=0x0B)
187: 0x0AEF [0x29] REQ_SET_WAIT(priority=0x08, entity_id=Sylvie (ID: 17883923/0x0110E313), tag_num=0x0E)
188: 0x0AF6 [0x2B] Sylvie (ID: 17883923/0x0110E313) [7838*]:
    → "If it'll help, I'm ready to become p-part of the lifestream right now!"
189: 0x0AFD [0x23] WAIT_FOR_DIALOG_INTERACTION
190: 0x0AFE [0x29] REQ_SET_WAIT(priority=0x08, entity_id=Sylvie (ID: 17883923/0x0110E313), tag_num=0x0F)
191: 0x0B05 [0x2A] GET_REQ_LEVEL(level=8, entity_id=LocalPlayer)
192: 0x0B0B [0x52] END_LOAD_SCHEDULER: End scheduler "s266" with entities [LocalPlayer, LocalPlayer], work=662*
193: 0x0B1A [0x45] LOAD_SCHEDULED_TASK: Load scheduler "s259" with entities [LocalPlayer, LocalPlayer], work=[662*, 0*]
194: 0x0B2B [0x79] LocalPlayer looks at ??? (ID: 17883925/0x0110E315) (Basic look)
195: 0x0B35 [0x29] REQ_SET_WAIT(priority=0x08, entity_id=Sylvie (ID: 17883923/0x0110E313), tag_num=0x0C)
196: 0x0B3C [0x1D] PRINT_EVENT_MESSAGE(message_id=7839*)
    → "<Blood of Zacariah, thou dost deign to understand us, but thou dost not.>"
197: 0x0B3F [0x23] WAIT_FOR_DIALOG_INTERACTION
198: 0x0B40 [0x1D] PRINT_EVENT_MESSAGE(message_id=7840*)
    → "<Our anger is not the source of thine anguish. It is all the geomancers themselves.>"
199: 0x0B43 [0x23] WAIT_FOR_DIALOG_INTERACTION
200: 0x0B44 [0x29] REQ_SET_WAIT(priority=0x08, entity_id=Sylvie (ID: 17883923/0x0110E313), tag_num=0x0D)
201: 0x0B4B [0x52] END_LOAD_SCHEDULER: End scheduler "s259" with entities [LocalPlayer, LocalPlayer], work=662*
202: 0x0B5A [0x45] LOAD_SCHEDULED_TASK: Load scheduler "s261" with entities [LocalPlayer, LocalPlayer], work=[662*, 0*]
203: 0x0B6B [0x1D] PRINT_EVENT_MESSAGE(message_id=7841*)
    → "<Thine awe of nature has turned to a fear of destroying it, and thy ringing bells have actualized it as a Communion.>"
204: 0x0B6E [0x23] WAIT_FOR_DIALOG_INTERACTION
205: 0x0B6F [0x29] REQ_SET_WAIT(priority=0x08, entity_id=Sylvie (ID: 17883923/0x0110E313), tag_num=0x18)
206: 0x0B76 [0x2B] Sylvie (ID: 17883923/0x0110E313) [7842*]:
    → "I-I don't think I understand..."
207: 0x0B7D [0x23] WAIT_FOR_DIALOG_INTERACTION
208: 0x0B7E [0x29] REQ_SET_WAIT(priority=0x08, entity_id=Sylvie (ID: 17883923/0x0110E313), tag_num=0x19)
209: 0x0B85 [0x52] END_LOAD_SCHEDULER: End scheduler "s261" with entities [LocalPlayer, LocalPlayer], work=662*
210: 0x0B94 [0x45] LOAD_SCHEDULED_TASK: Load scheduler "s262" with entities [LocalPlayer, LocalPlayer], work=[662*, 0*]
211: 0x0BA5 [0x1D] PRINT_EVENT_MESSAGE(message_id=7843*)
    → "<A Communion is a pact with nature. It represents thy will of how things should be, not how they are.>"
212: 0x0BA8 [0x23] WAIT_FOR_DIALOG_INTERACTION
213: 0x0BA9 [0x1D] PRINT_EVENT_MESSAGE(message_id=7844*)
    → "<Dear child, thy bell, too, doth shake in apprehension.>"
214: 0x0BAC [0x23] WAIT_FOR_DIALOG_INTERACTION
215: 0x0BAD [0x29] REQ_SET_WAIT(priority=0x08, entity_id=Sylvie (ID: 17883923/0x0110E313), tag_num=0x1A)
216: 0x0BB4 [0x29] REQ_SET_WAIT(priority=0x08, entity_id=Sylvie (ID: 17883923/0x0110E313), tag_num=0x1B)
217: 0x0BBB [0x52] END_LOAD_SCHEDULER: End scheduler "s262" with entities [LocalPlayer, LocalPlayer], work=662*
218: 0x0BCA [0x45] LOAD_SCHEDULED_TASK: Load scheduler "s263" with entities [LocalPlayer, LocalPlayer], work=[662*, 0*]
219: 0x0BDB [0x1D] PRINT_EVENT_MESSAGE(message_id=7845*)
    → "<Yet thy bell rings true. We shall respect thy Communion and make thee part of the lifestream!>"
220: 0x0BDE [0x1C] WAIT(300* ticks)
221: 0x0BE1 [0x5D] SET_MUSIC_VOLUME(volume=0*, fade_time=200*)
222: 0x0BE6 [0x45] LOAD_SCHEDULED_TASK: Load scheduler "who1" with entities [LocalPlayer, LocalPlayer], work=[201*, 0*]
223: 0x0BF7 [0x55] WAIT_LOAD_SCHEDULER: Wait for scheduler "who1" with entities [LocalPlayer, LocalPlayer], work=201*
224: 0x0C06 [0x23] WAIT_FOR_DIALOG_INTERACTION
225: 0x0C07 [0xCD] LOAD_SCHEDULED_TASK_ALT4: Load scheduler "stop" with entities [??? (ID: 17883925/0x0110E315), ??? (ID: 17883925/0x0110E315)], work=[157*, 0*]
226: 0x0C18 [0x4E] SET_ENTITY_HIDE_FLAG: Hide ??? (ID: 17883925/0x0110E315)
227: 0x0C1E [0x52] END_LOAD_SCHEDULER: End scheduler "s263" with entities [LocalPlayer, LocalPlayer], work=662*
228: 0x0C2D [0x29] REQ_SET_WAIT(priority=0x08, entity_id=??? (ID: 17883927/0x0110E317), tag_num=0x03)
229: 0x0C34 [0x5C] MUSIC_CONTROL: Set Idle (Day) music to song 0*
230: 0x0C38 [0x5C] MUSIC_CONTROL: Set Idle (Night) music to song 0*
231: 0x0C3C [0x9A] WAIT_MUSIC_SERVER()
232: 0x0C3D [0x5D] SET_MUSIC_VOLUME(volume=127*, fade_time=100*)
233: 0x0C42 [0x1C] WAIT(120* ticks)
234: 0x0C45 [0x45] LOAD_SCHEDULED_TASK: Load scheduler "se03" with entities [??? (ID: 17883925/0x0110E315), ??? (ID: 17883925/0x0110E315)], work=[662*, 0*]
235: 0x0C56 [0x1C] WAIT(120* ticks)
236: 0x0C59 [0x46] CAMERA_CONTROL: Restore default settings
237: 0x0C5B [0x45] LOAD_SCHEDULED_TASK: Load scheduler "whi1" with entities [LocalPlayer, LocalPlayer], work=[201*, 0*]
238: 0x0C6C [0x20] SET_CLI_EVENT_UC_FLAG: Unlock player control
239: 0x0C6E [0x21] END_EVENT
240: 0x0C6F [0x00] END_REQSTACK()
```

### Event 15

#### Metadata

| Field        | Value      |
|--------------|------------|
| Entrypoint   | 0x0C70     |
| Data Size    | 2244 bytes |
| Instructions | 266        |

```
      00 01 02 03 04 05 06 07  08 09 0A 0B 0C 0D 0E 0F
      -- -- -- -- -- -- -- --  -- -- -- -- -- -- -- --
0C70: 42 46 01 5D 01 80 00 80  45 00 80 F0 FF FF 7F F0  BF.]....E.......
0C80: FF FF 7F 66 64 6F 31 01  80 55 00 80 F0 FF FF 7F  ...fdo1..U......
0C90: F0 FF FF 7F 66 64 6F 31  38 02 80 5C 00 45 80 5C  ....fdo18..\.E.\
0CA0: 01 45 80 9A 5D 31 80 32  80 29 08 F0 FF FF 7F 0C  .E..]1.2.)......
0CB0: 29 08 13 E3 10 01 50 29  08 15 E3 10 01 0C 29 08  ).....P)......).
0CC0: 16 E3 10 01 02 37 46 80  47 80 48 80 01 80 22 00  .....7F.G.H...".
0CD0: CD 49 80 16 E3 10 01 16  E3 10 01 73 74 61 72 01  .I.........star.
0CE0: 80 4E 00 15 E3 10 01 80  13 E3 10 01 80 15 E3 10  .N..............
0CF0: 01 29 08 F0 FF FF 7F 11  B4 00 00 00 3F 3F 3F 00  .)..........???.
0D00: 00 00 00 00 00 00 00 00  00 00 00 00 B5 00 00 00  ................
0D10: 92 01 15 E3 10 01 92 01  13 E3 10 01 29 08 13 E3  ............)...
0D20: 10 01 22 29 08 13 E3 10  01 23 45 03 80 F0 FF FF  ..").....#E.....
0D30: 7F F0 FF FF 7F 73 32 37  30 01 80 29 08 15 E3 10  .....s270..)....
0D40: 01 05 1C 18 80 45 03 80  F8 FF FF 7F F8 FF FF 7F  .....E..........
0D50: 73 65 30 31 01 80 45 03  80 F8 FF FF 7F F8 FF FF  se01..E.........
0D60: 7F 73 65 30 32 01 80 45  00 80 F0 FF FF 7F F0 FF  .se02..E........
0D70: FF 7F 66 64 69 31 01 80  55 00 80 F0 FF FF 7F F0  ..fdi1..U.......
0D80: FF FF 7F 66 64 69 31 1C  4A 80 52 03 80 F0 FF FF  ...fdi1.J.R.....
0D90: 7F F0 FF FF 7F 73 32 37  30 45 03 80 F0 FF FF 7F  .....s270E......
0DA0: F0 FF FF 7F 73 32 37 31  01 80 29 08 15 E3 10 01  ....s271..).....
0DB0: 0D 29 08 15 E3 10 01 07  29 08 15 E3 10 01 08 52  .)......)......R
0DC0: 03 80 F0 FF FF 7F F0 FF  FF 7F 73 32 37 31 45 03  ..........s271E.
0DD0: 80 F0 FF FF 7F F0 FF FF  7F 73 32 37 32 01 80 29  .........s272..)
0DE0: 08 15 E3 10 01 0E 27 08  F0 FF FF 7F 0E 1C 0F 80  ......'.........
0DF0: 52 03 80 F0 FF FF 7F F0  FF FF 7F 73 32 37 32 45  R..........s272E
0E00: 03 80 F0 FF FF 7F F0 FF  FF 7F 73 32 37 34 01 80  ..........s274..
0E10: 7B 13 E3 10 01 29 08 13  E3 10 01 24 2B 13 E3 10  {....).....$+...
0E20: 01 4B 80 2A 08 F0 FF FF  7F 27 08 F0 FF FF 7F 0B  .K.*.....'......
0E30: 29 08 13 E3 10 01 25 23  52 03 80 F0 FF FF 7F F0  ).....%#R.......
0E40: FF FF 7F 73 32 37 32 45  03 80 F0 FF FF 7F F0 FF  ...s272E........
0E50: FF 7F 73 32 38 38 01 80  29 08 13 E3 10 01 26 2B  ..s288..).....&+
0E60: 13 E3 10 01 4C 80 23 29  08 13 E3 10 01 27 2A 08  ....L.#).....'*.
0E70: F0 FF FF 7F 52 03 80 F0  FF FF 7F F0 FF FF 7F 73  ....R..........s
0E80: 32 38 38 45 03 80 F0 FF  FF 7F F0 FF FF 7F 73 32  288E..........s2
0E90: 38 39 01 80 27 08 13 E3  10 01 41 1C 16 80 52 03  89..'.....A...R.
0EA0: 80 F0 FF FF 7F F0 FF FF  7F 73 32 38 39 45 03 80  .........s289E..
0EB0: F0 FF FF 7F F0 FF FF 7F  73 32 37 33 01 80 1C 16  ........s273....
0EC0: 80 27 08 F0 FF FF 7F 0D  2A 08 13 E3 10 01 2A 08  .'......*.....*.
0ED0: F0 FF FF 7F 52 03 80 F0  FF FF 7F F0 FF FF 7F 73  ....R..........s
0EE0: 32 37 33 45 03 80 F0 FF  FF 7F F0 FF FF 7F 73 32  273E..........s2
0EF0: 37 35 01 80 29 08 15 E3  10 01 0D 1C 16 80 1D 4D  75..)..........M
0F00: 80 1C 16 80 4B F0 FF FF  7F 01 80 79 00 F0 FF FF  ....K......y....
0F10: 7F 15 E3 10 01 23 52 03  80 F0 FF FF 7F F0 FF FF  .....#R.........
0F20: 7F 73 32 37 35 02 09 10  2C 80 00 41 0F 45 03 80  .s275...,..A.E..
0F30: F0 FF FF 7F F0 FF FF 7F  73 32 37 36 01 80 01 A6  ........s276....
0F40: 0F 02 09 10 24 80 00 5D  0F 45 03 80 F0 FF FF 7F  ....$..].E......
0F50: F0 FF FF 7F 73 32 38 31  01 80 01 A6 0F 02 09 10  ....s281........
0F60: 25 80 00 79 0F 45 03 80  F0 FF FF 7F F0 FF FF 7F  %..y.E..........
0F70: 73 32 38 31 01 80 01 A6  0F 02 09 10 2D 80 00 95  s281........-...
0F80: 0F 45 03 80 F0 FF FF 7F  F0 FF FF 7F 73 32 37 36  .E..........s276
0F90: 01 80 01 A6 0F 45 03 80  F0 FF FF 7F F0 FF FF 7F  .....E..........
0FA0: 73 32 39 33 01 80 1D 4E  80 23 02 09 10 2C 80 00  s293...N.#...,..
0FB0: C4 0F 52 03 80 F0 FF FF  7F F0 FF FF 7F 73 32 37  ..R..........s27
0FC0: 36 01 21 10 02 09 10 24  80 00 DE 0F 52 03 80 F0  6.!....$....R...
0FD0: FF FF 7F F0 FF FF 7F 73  32 38 31 01 21 10 02 09  .......s281.!...
0FE0: 10 25 80 00 F8 0F 52 03  80 F0 FF FF 7F F0 FF FF  .%....R.........
0FF0: 7F 73 32 38 31 01 21 10  02 09 10 2D 80 00 12 10  .s281.!....-....
1000: 52 03 80 F0 FF FF 7F F0  FF FF 7F 73 32 37 36 01  R..........s276.
1010: 21 10 52 03 80 F0 FF FF  7F F0 FF FF 7F 73 32 39  !.R..........s29
1020: 33 45 03 80 F0 FF FF 7F  F0 FF FF 7F 73 32 37 37  3E..........s277
1030: 01 80 29 08 15 E3 10 01  0E 5D 01 80 00 80 4A F0  ..)......]....J.
1040: FF FF 7F 15 E3 10 01 1D  4F 80 23 6F 76 F0 FF FF  ........O.#ov...
1050: 7F 45 00 80 F8 FF FF 7F  F8 FF FF 7F 66 64 6F 31  .E..........fdo1
1060: 01 80 55 00 80 F8 FF FF  7F F8 FF FF 7F 66 64 6F  ..U..........fdo
1070: 31 52 03 80 F0 FF FF 7F  F0 FF FF 7F 73 32 37 37  1R..........s277
1080: 24 50 80 01 80 01 80 25  02 00 10 01 80 00 98 10  $P.....%........
1090: 03 01 10 32 80 01 B8 10  02 00 10 32 80 00 A8 10  ...2.......2....
10A0: 03 01 10 51 80 01 B8 10  02 00 10 51 80 00 B8 10  ...Q.......Q....
10B0: 03 01 10 2C 80 01 B8 10  CD 49 80 16 E3 10 01 16  ...,.....I......
10C0: E3 10 01 73 74 6F 70 01  80 45 03 80 F8 FF FF 7F  ...stop..E......
10D0: F8 FF FF 7F 73 74 30 31  01 80 45 03 80 F8 FF FF  ....st01..E.....
10E0: 7F F8 FF FF 7F 73 74 30  32 01 80 02 09 10 24 80  .....st02.....$.
10F0: 00 07 11 45 03 80 F0 FF  FF 7F F0 FF FF 7F 73 32  ...E..........s2
1100: 38 35 01 80 01 34 11 02  09 10 25 80 00 23 11 45  85...4....%..#.E
1110: 03 80 F0 FF FF 7F F0 FF  FF 7F 73 32 38 35 01 80  ..........s285..
1120: 01 34 11 45 03 80 F0 FF  FF 7F F0 FF FF 7F 73 32  .4.E..........s2
1130: 39 31 01 80 45 00 80 F8  FF FF 7F F8 FF FF 7F 66  91..E..........f
1140: 64 69 31 01 80 6E F0 FF  FF 7F 52 80 99 F0 FF FF  di1..n....R.....
1150: 7F 1C 2B 80 45 2F 80 F0  FF FF 7F F0 FF FF 7F 77  ..+.E/.........w
1160: 68 6F 31 01 80 55 2F 80  F0 FF FF 7F F0 FF FF 7F  ho1..U/.........
1170: 77 68 6F 31 02 09 10 24  80 00 8E 11 52 03 80 F0  who1...$....R...
1180: FF FF 7F F0 FF FF 7F 73  32 38 35 01 B7 11 02 09  .......s285.....
1190: 10 25 80 00 A8 11 52 03  80 F0 FF FF 7F F0 FF FF  .%....R.........
11A0: 7F 73 32 38 35 01 B7 11  52 03 80 F0 FF FF 7F F0  .s285...R.......
11B0: FF FF 7F 73 32 39 31 1C  4A 80 45 03 80 16 E3 10  ...s291.J.E.....
11C0: 01 16 E3 10 01 73 65 30  33 01 80 1C 21 80 1D 53  .....se03...!..S
11D0: 80 23 55 00 80 F8 FF FF  7F F8 FF FF 7F 66 64 69  .#U..........fdi
11E0: 31 29 08 13 E3 10 01 28  29 08 13 E3 10 01 29 4A  1).....().....)J
11F0: F0 FF FF 7F 13 E3 10 01  6F 76 F0 FF FF 7F 1C 0D  ........ov......
1200: 80 5C 00 0F 80 5C 01 0F  80 9A 5D 31 80 32 80 45  .\...\....]1.2.E
1210: 03 80 F0 FF FF 7F F0 FF  FF 7F 73 32 38 32 01 80  ..........s282..
1220: 45 2F 80 F0 FF FF 7F F0  FF FF 7F 77 68 69 31 01  E/.........whi1.
1230: 80 1C 06 80 29 08 13 E3  10 01 2A 29 08 13 E3 10  ....).....*)....
1240: 01 2B 27 08 13 E3 10 01  3D 1C 4A 80 2A 08 13 E3  .+'.....=.J.*...
1250: 10 01 52 03 80 F0 FF FF  7F F0 FF FF 7F 73 32 38  ..R..........s28
1260: 32 45 03 80 F0 FF FF 7F  F0 FF FF 7F 73 32 38 34  2E..........s284
1270: 01 80 27 08 13 E3 10 01  39 1C 0F 80 2A 08 13 E3  ..'.....9...*...
1280: 10 01 52 03 80 F0 FF FF  7F F0 FF FF 7F 73 32 38  ..R..........s28
1290: 34 45 03 80 F0 FF FF 7F  F0 FF FF 7F 73 32 37 38  4E..........s278
12A0: 01 80 29 08 13 E3 10 01  18 2B 13 E3 10 01 54 80  ..)......+....T.
12B0: 23 29 08 13 E3 10 01 19  52 03 80 F0 FF FF 7F F0  #)......R.......
12C0: FF FF 7F 73 32 37 38 02  09 10 24 80 00 E3 12 45  ...s278...$....E
12D0: 03 80 F0 FF FF 7F F0 FF  FF 7F 73 32 38 33 01 80  ..........s283..
12E0: 01 10 13 02 09 10 25 80  00 FF 12 45 03 80 F0 FF  ......%....E....
12F0: FF 7F F0 FF FF 7F 73 32  38 33 01 80 01 10 13 45  ......s283.....E
1300: 03 80 F0 FF FF 7F F0 FF  FF 7F 73 32 38 30 01 80  ..........s280..
1310: 27 08 13 E3 10 01 51 2B  13 E3 10 01 55 80 23 2A  '.....Q+....U.#*
1320: 08 13 E3 10 01 02 09 10  24 80 00 3F 13 52 03 80  ........$..?.R..
1330: F0 FF FF 7F F0 FF FF 7F  73 32 38 33 01 68 13 02  ........s283.h..
1340: 09 10 25 80 00 59 13 52  03 80 F0 FF FF 7F F0 FF  ..%..Y.R........
1350: FF 7F 73 32 38 33 01 68  13 52 03 80 F0 FF FF 7F  ..s283.h.R......
1360: F0 FF FF 7F 73 32 38 30  45 03 80 F0 FF FF 7F F0  ....s280E.......
1370: FF FF 7F 73 32 37 39 01  80 4B 13 E3 10 01 56 80  ...s279..K....V.
1380: 6F 76 13 E3 10 01 52 03  80 F0 FF FF 7F F0 FF FF  ov....R.........
1390: 7F 73 32 37 39 45 03 80  F0 FF FF 7F F0 FF FF 7F  .s279E..........
13A0: 73 32 38 36 01 80 2B 13  E3 10 01 57 80 23 52 03  s286..+....W.#R.
13B0: 80 F0 FF FF 7F F0 FF FF  7F 73 32 38 36 02 09 10  .........s286...
13C0: 24 80 00 D9 13 45 03 80  F0 FF FF 7F F0 FF FF 7F  $....E..........
13D0: 73 32 38 37 01 80 01 22  14 02 09 10 25 80 00 F5  s287..."....%...
13E0: 13 45 03 80 F0 FF FF 7F  F0 FF FF 7F 73 32 38 37  .E..........s287
13F0: 01 80 01 22 14 02 09 10  2D 80 00 11 14 45 03 80  ..."....-....E..
1400: F0 FF FF 7F F0 FF FF 7F  73 32 39 32 01 80 01 22  ........s292..."
1410: 14 45 03 80 F0 FF FF 7F  F0 FF FF 7F 73 32 39 34  .E..........s294
1420: 01 80 4A 13 E3 10 01 F0  FF FF 7F 6F 76 13 E3 10  ..J........ov...
1430: 01 29 08 13 E3 10 01 01  2B 13 E3 10 01 58 80 23  .)......+....X.#
1440: 29 08 13 E3 10 01 02 29  08 13 E3 10 01 03 29 08  )......)......).
1450: 13 E3 10 01 04 27 08 13  E3 10 01 52 1C 16 80 02  .....'.....R....
1460: 09 10 24 80 00 79 14 52  03 80 F0 FF FF 7F F0 FF  ..$..y.R........
1470: FF 7F 73 32 38 37 01 BC  14 02 09 10 25 80 00 93  ..s287......%...
1480: 14 52 03 80 F0 FF FF 7F  F0 FF FF 7F 73 32 38 37  .R..........s287
1490: 01 BC 14 02 09 10 2D 80  00 AD 14 52 03 80 F0 FF  ......-....R....
14A0: FF 7F F0 FF FF 7F 73 32  39 32 01 BC 14 52 03 80  ......s292...R..
14B0: F0 FF FF 7F F0 FF FF 7F  73 32 39 34 45 03 80 F0  ........s294E...
14C0: FF FF 7F F0 FF FF 7F 73  32 39 30 01 80 7B 13 E3  .......s290..{..
14D0: 10 01 1C 16 80 45 00 80  F0 FF FF 7F F0 FF FF 7F  .....E..........
14E0: 66 64 6F 31 01 80 55 00  80 F0 FF FF 7F F0 FF FF  fdo1..U.........
14F0: 7F 66 64 6F 31 22 01 2A  08 13 E3 10 01 52 03 80  .fdo1".*.....R..
1500: F0 FF FF 7F F0 FF FF 7F  73 32 39 30 5C 00 01 80  ........s290\...
1510: 5C 01 01 80 9A 5D 31 80  32 80 1C 16 80 46 00 45  \....]1.2....F.E
1520: 00 80 F0 FF FF 7F F0 FF  FF 7F 66 64 69 31 01 80  ..........fdi1..
1530: 20 00 21 00                                        .!.            
```

#### Opcodes

```
  0: 0x0C70 [0x42] SET_CLI_EVENT_CANCEL_DATA()
  1: 0x0C71 [0x46] CAMERA_CONTROL: Disable user control
  2: 0x0C73 [0x5D] SET_MUSIC_VOLUME(volume=0*, fade_time=200*)
  3: 0x0C78 [0x45] LOAD_SCHEDULED_TASK: Load scheduler "fdo1" with entities [LocalPlayer, LocalPlayer], work=[200*, 0*]
  4: 0x0C89 [0x55] WAIT_LOAD_SCHEDULER: Wait for scheduler "fdo1" with entities [LocalPlayer, LocalPlayer], work=200*
  5: 0x0C98 [0x38] SET_CLIENT_EVENT_MODE(mode=19*)
  6: 0x0C9B [0x5C] MUSIC_CONTROL: Set Idle (Day) music to song 61*
  7: 0x0C9F [0x5C] MUSIC_CONTROL: Set Idle (Night) music to song 61*
  8: 0x0CA3 [0x9A] WAIT_MUSIC_SERVER()
  9: 0x0CA4 [0x5D] SET_MUSIC_VOLUME(volume=127*, fade_time=1*)
 10: 0x0CA9 [0x29] REQ_SET_WAIT(priority=0x08, entity_id=LocalPlayer, tag_num=0x0C)
 11: 0x0CB0 [0x29] REQ_SET_WAIT(priority=0x08, entity_id=Sylvie (ID: 17883923/0x0110E313), tag_num=0x50)
 12: 0x0CB7 [0x29] REQ_SET_WAIT(priority=0x08, entity_id=??? (ID: 17883925/0x0110E315), tag_num=0x0C)
 13: 0x0CBE [0x29] REQ_SET_WAIT(priority=0x08, entity_id=??? (ID: 17883926/0x0110E316), tag_num=0x02)
 14: 0x0CC5 [0x37] UPDATE_EVENT_POSITION_AND_DIR: x=458.720*, z=101.387*, y=10.300*, direction=0.0°*
 15: 0x0CCE [0x22] ENTITY_HIDE_FLAG(enabled=0x00)
 16: 0x0CD0 [0xCD] LOAD_SCHEDULED_TASK_ALT4: Load scheduler "star" with entities [??? (ID: 17883926/0x0110E316), ??? (ID: 17883926/0x0110E316)], work=[162*, 0*]
 17: 0x0CE1 [0x4E] SET_ENTITY_HIDE_FLAG: Show ??? (ID: 17883925/0x0110E315)
 18: 0x0CE7 [0x80] LOAD_WAIT(entity=Sylvie (ID: 17883923/0x0110E313))
 19: 0x0CEC [0x80] LOAD_WAIT(entity=??? (ID: 17883925/0x0110E315))
 20: 0x0CF1 [0x29] REQ_SET_WAIT(priority=0x08, entity_id=LocalPlayer, tag_num=0x11)
 21: 0x0CF8 [0xB4] UI_WINDOW_STRING_HANDLER(case=0x00 - Copy string from opcode, work_offset=ExtData[1]->WorkLocal[0], string="???")
 22: 0x0D0C [0xB5] SET_EVENT_ENTITY_NAME: Change EventEntity name to ExtData[1]->WorkLocal[0]
 23: 0x0D10 [0x92] ??? (ID: 17883925/0x0110E315)->Render.Flags3 ^= 0x01
 24: 0x0D16 [0x92] Sylvie (ID: 17883923/0x0110E313)->Render.Flags3 ^= 0x01
 25: 0x0D1C [0x29] REQ_SET_WAIT(priority=0x08, entity_id=Sylvie (ID: 17883923/0x0110E313), tag_num=0x22)
 26: 0x0D23 [0x29] REQ_SET_WAIT(priority=0x08, entity_id=Sylvie (ID: 17883923/0x0110E313), tag_num=0x23)
 27: 0x0D2A [0x45] LOAD_SCHEDULED_TASK: Load scheduler "s270" with entities [LocalPlayer, LocalPlayer], work=[662*, 0*]
 28: 0x0D3B [0x29] REQ_SET_WAIT(priority=0x08, entity_id=??? (ID: 17883925/0x0110E315), tag_num=0x05)
 29: 0x0D42 [0x1C] WAIT(80* ticks)
 30: 0x0D45 [0x45] LOAD_SCHEDULED_TASK: Load scheduler "se01" with entities [EventEntity, EventEntity], work=[662*, 0*]
 31: 0x0D56 [0x45] LOAD_SCHEDULED_TASK: Load scheduler "se02" with entities [EventEntity, EventEntity], work=[662*, 0*]
 32: 0x0D67 [0x45] LOAD_SCHEDULED_TASK: Load scheduler "fdi1" with entities [LocalPlayer, LocalPlayer], work=[200*, 0*]
 33: 0x0D78 [0x55] WAIT_LOAD_SCHEDULER: Wait for scheduler "fdi1" with entities [LocalPlayer, LocalPlayer], work=200*
 34: 0x0D87 [0x1C] WAIT(180* ticks)
 35: 0x0D8A [0x52] END_LOAD_SCHEDULER: End scheduler "s270" with entities [LocalPlayer, LocalPlayer], work=662*
 36: 0x0D99 [0x45] LOAD_SCHEDULED_TASK: Load scheduler "s271" with entities [LocalPlayer, LocalPlayer], work=[662*, 0*]
 37: 0x0DAA [0x29] REQ_SET_WAIT(priority=0x08, entity_id=??? (ID: 17883925/0x0110E315), tag_num=0x0D)
 38: 0x0DB1 [0x29] REQ_SET_WAIT(priority=0x08, entity_id=??? (ID: 17883925/0x0110E315), tag_num=0x07)
 39: 0x0DB8 [0x29] REQ_SET_WAIT(priority=0x08, entity_id=??? (ID: 17883925/0x0110E315), tag_num=0x08)
 40: 0x0DBF [0x52] END_LOAD_SCHEDULER: End scheduler "s271" with entities [LocalPlayer, LocalPlayer], work=662*
 41: 0x0DCE [0x45] LOAD_SCHEDULED_TASK: Load scheduler "s272" with entities [LocalPlayer, LocalPlayer], work=[662*, 0*]
 42: 0x0DDF [0x29] REQ_SET_WAIT(priority=0x08, entity_id=??? (ID: 17883925/0x0110E315), tag_num=0x0E)
 43: 0x0DE6 [0x27] REQ_SET(priority=0x08, entity_id=LocalPlayer, tag_num=0x0E)
 44: 0x0DED [0x1C] WAIT(120* ticks)
 45: 0x0DF0 [0x52] END_LOAD_SCHEDULER: End scheduler "s272" with entities [LocalPlayer, LocalPlayer], work=662*
 46: 0x0DFF [0x45] LOAD_SCHEDULED_TASK: Load scheduler "s274" with entities [LocalPlayer, LocalPlayer], work=[662*, 0*]
 47: 0x0E10 [0x7B] Sylvie (ID: 17883923/0x0110E313) stops talking
 48: 0x0E15 [0x29] REQ_SET_WAIT(priority=0x08, entity_id=Sylvie (ID: 17883923/0x0110E313), tag_num=0x24)
 49: 0x0E1C [0x2B] Sylvie (ID: 17883923/0x0110E313) [7846*]:
    → "What is this terrible energy? <Player>...I-I can't...my fear is...too great!"
 50: 0x0E23 [0x2A] GET_REQ_LEVEL(level=8, entity_id=LocalPlayer)
 51: 0x0E29 [0x27] REQ_SET(priority=0x08, entity_id=LocalPlayer, tag_num=0x0B)
 52: 0x0E30 [0x29] REQ_SET_WAIT(priority=0x08, entity_id=Sylvie (ID: 17883923/0x0110E313), tag_num=0x25)
 53: 0x0E37 [0x23] WAIT_FOR_DIALOG_INTERACTION
 54: 0x0E38 [0x52] END_LOAD_SCHEDULER: End scheduler "s272" with entities [LocalPlayer, LocalPlayer], work=662*
 55: 0x0E47 [0x45] LOAD_SCHEDULED_TASK: Load scheduler "s288" with entities [LocalPlayer, LocalPlayer], work=[662*, 0*]
 56: 0x0E58 [0x29] REQ_SET_WAIT(priority=0x08, entity_id=Sylvie (ID: 17883923/0x0110E313), tag_num=0x26)
 57: 0x0E5F [0x2B] Sylvie (ID: 17883923/0x0110E313) [7847*]:
    → "Please, the...the higher power...stop my Communion..."
 58: 0x0E66 [0x23] WAIT_FOR_DIALOG_INTERACTION
 59: 0x0E67 [0x29] REQ_SET_WAIT(priority=0x08, entity_id=Sylvie (ID: 17883923/0x0110E313), tag_num=0x27)
 60: 0x0E6E [0x2A] GET_REQ_LEVEL(level=8, entity_id=LocalPlayer)
 61: 0x0E74 [0x52] END_LOAD_SCHEDULER: End scheduler "s288" with entities [LocalPlayer, LocalPlayer], work=662*
 62: 0x0E83 [0x45] LOAD_SCHEDULED_TASK: Load scheduler "s289" with entities [LocalPlayer, LocalPlayer], work=[662*, 0*]
 63: 0x0E94 [0x27] REQ_SET(priority=0x08, entity_id=Sylvie (ID: 17883923/0x0110E313), tag_num=0x41)
 64: 0x0E9B [0x1C] WAIT(30* ticks)
 65: 0x0E9E [0x52] END_LOAD_SCHEDULER: End scheduler "s289" with entities [LocalPlayer, LocalPlayer], work=662*
 66: 0x0EAD [0x45] LOAD_SCHEDULED_TASK: Load scheduler "s273" with entities [LocalPlayer, LocalPlayer], work=[662*, 0*]
 67: 0x0EBE [0x1C] WAIT(30* ticks)
 68: 0x0EC1 [0x27] REQ_SET(priority=0x08, entity_id=LocalPlayer, tag_num=0x0D)
 69: 0x0EC8 [0x2A] GET_REQ_LEVEL(level=8, entity_id=Sylvie (ID: 17883923/0x0110E313))
 70: 0x0ECE [0x2A] GET_REQ_LEVEL(level=8, entity_id=LocalPlayer)
 71: 0x0ED4 [0x52] END_LOAD_SCHEDULER: End scheduler "s273" with entities [LocalPlayer, LocalPlayer], work=662*
 72: 0x0EE3 [0x45] LOAD_SCHEDULED_TASK: Load scheduler "s275" with entities [LocalPlayer, LocalPlayer], work=[662*, 0*]
 73: 0x0EF4 [0x29] REQ_SET_WAIT(priority=0x08, entity_id=??? (ID: 17883925/0x0110E315), tag_num=0x0D)
 74: 0x0EFB [0x1C] WAIT(30* ticks)
 75: 0x0EFE [0x1D] PRINT_EVENT_MESSAGE(message_id=7848*)
    → "<Dost thou believe thou canst ring this most sacred of bells?>"
 76: 0x0F01 [0x1C] WAIT(30* ticks)
 77: 0x0F04 [0x4B] UPDATE_ENTITY_YAW(entity=LocalPlayer, yaw=0.0°*)
 78: 0x0F0B [0x79] LocalPlayer looks at ??? (ID: 17883925/0x0110E315) (Basic look)
 79: 0x0F15 [0x23] WAIT_FOR_DIALOG_INTERACTION
 80: 0x0F16 [0x52] END_LOAD_SCHEDULER: End scheduler "s275" with entities [LocalPlayer, LocalPlayer], work=662*
 81: 0x0F25 [0x02] IF !(Work_Zone[9] == 3*) GOTO 0x0F41
 82: 0x0F2D [0x45] LOAD_SCHEDULED_TASK: Load scheduler "s276" with entities [LocalPlayer, LocalPlayer], work=[662*, 0*]
 83: 0x0F3E [0x01] GOTO 0x0FA6
 84: 0x0F41 [0x02] IF !(Work_Zone[9] == 5*) GOTO 0x0F5D
 85: 0x0F49 [0x45] LOAD_SCHEDULED_TASK: Load scheduler "s281" with entities [LocalPlayer, LocalPlayer], work=[662*, 0*]
 86: 0x0F5A [0x01] GOTO 0x0FA6
 87: 0x0F5D [0x02] IF !(Work_Zone[9] == 6*) GOTO 0x0F79
 88: 0x0F65 [0x45] LOAD_SCHEDULED_TASK: Load scheduler "s281" with entities [LocalPlayer, LocalPlayer], work=[662*, 0*]
 89: 0x0F76 [0x01] GOTO 0x0FA6
 90: 0x0F79 [0x02] IF !(Work_Zone[9] == 8*) GOTO 0x0F95
 91: 0x0F81 [0x45] LOAD_SCHEDULED_TASK: Load scheduler "s276" with entities [LocalPlayer, LocalPlayer], work=[662*, 0*]
 92: 0x0F92 [0x01] GOTO 0x0FA6
 93: 0x0F95 [0x45] LOAD_SCHEDULED_TASK: Load scheduler "s293" with entities [LocalPlayer, LocalPlayer], work=[662*, 0*]

SUBROUTINE_0FA6:
 94: 0x0FA6 [0x1D] PRINT_EVENT_MESSAGE(message_id=7849*)
    → "<And what if thou were to succeed? What wouldst thy pact be?>"
 95: 0x0FA9 [0x23] WAIT_FOR_DIALOG_INTERACTION
 96: 0x0FAA [0x02] IF !(Work_Zone[9] == 3*) GOTO 0x0FC4
 97: 0x0FB2 [0x52] END_LOAD_SCHEDULER: End scheduler "s276" with entities [LocalPlayer, LocalPlayer], work=662*
 98: 0x0FC1 [0x01] GOTO 0x1021
 99: 0x0FC4 [0x02] IF !(Work_Zone[9] == 5*) GOTO 0x0FDE
100: 0x0FCC [0x52] END_LOAD_SCHEDULER: End scheduler "s281" with entities [LocalPlayer, LocalPlayer], work=662*
101: 0x0FDB [0x01] GOTO 0x1021
102: 0x0FDE [0x02] IF !(Work_Zone[9] == 6*) GOTO 0x0FF8
103: 0x0FE6 [0x52] END_LOAD_SCHEDULER: End scheduler "s281" with entities [LocalPlayer, LocalPlayer], work=662*
104: 0x0FF5 [0x01] GOTO 0x1021
105: 0x0FF8 [0x02] IF !(Work_Zone[9] == 8*) GOTO 0x1012
106: 0x1000 [0x52] END_LOAD_SCHEDULER: End scheduler "s276" with entities [LocalPlayer, LocalPlayer], work=662*
107: 0x100F [0x01] GOTO 0x1021
108: 0x1012 [0x52] END_LOAD_SCHEDULER: End scheduler "s293" with entities [LocalPlayer, LocalPlayer], work=662*

SUBROUTINE_1021:
109: 0x1021 [0x45] LOAD_SCHEDULED_TASK: Load scheduler "s277" with entities [LocalPlayer, LocalPlayer], work=[662*, 0*]
110: 0x1032 [0x29] REQ_SET_WAIT(priority=0x08, entity_id=??? (ID: 17883925/0x0110E315), tag_num=0x0E)
111: 0x1039 [0x5D] SET_MUSIC_VOLUME(volume=0*, fade_time=200*)
112: 0x103E [0x4A] LocalPlayer looks at ??? (ID: 17883925/0x0110E315)
113: 0x1047 [0x1D] PRINT_EVENT_MESSAGE(message_id=7850*)
    → "<Come, geomancer! Let thy Communion be heard throughout Adoulin!>"
114: 0x104A [0x23] WAIT_FOR_DIALOG_INTERACTION
115: 0x104B [0x6F] WAIT_FRAME_DELAY: Yield until WaitTime reaches zero
116: 0x104C [0x76] CHECK_ENTITY_RENDER_FLAGS: Wait until LocalPlayer Render.Flags0 and Render.Flags3 conditions are met
117: 0x1051 [0x45] LOAD_SCHEDULED_TASK: Load scheduler "fdo1" with entities [EventEntity, EventEntity], work=[200*, 0*]
118: 0x1062 [0x55] WAIT_LOAD_SCHEDULER: Wait for scheduler "fdo1" with entities [EventEntity, EventEntity], work=200*
119: 0x1071 [0x52] END_LOAD_SCHEDULER: End scheduler "s277" with entities [LocalPlayer, LocalPlayer], work=662*
120: 0x1080 [0x24] CREATE_DIALOG(message_id=7851*, default_option=0*, option_flags=0*)
    → "What pact will you swear? [To bring harmony to nature in Adoulin./To protect Adoulin's natural environment./To do everything possible to save nature.]"
121: 0x1087 [0x25] WAIT_DIALOG_SELECT()
122: 0x1088 [0x02] IF !(Work_Zone[0] == 0*) GOTO 0x1098
123: 0x1090 [0x03] Work_Zone[1] = 1*
124: 0x1095 [0x01] GOTO 0x10B8
125: 0x1098 [0x02] IF !(Work_Zone[0] == 1*) GOTO 0x10A8
126: 0x10A0 [0x03] Work_Zone[1] = 2*
127: 0x10A5 [0x01] GOTO 0x10B8
128: 0x10A8 [0x02] IF !(Work_Zone[0] == 2*) GOTO 0x10B8
129: 0x10B0 [0x03] Work_Zone[1] = 3*
130: 0x10B5 [0x01] GOTO 0x10B8

SUBROUTINE_10B8:
131: 0x10B8 [0xCD] LOAD_SCHEDULED_TASK_ALT4: Load scheduler "stop" with entities [??? (ID: 17883926/0x0110E316), ??? (ID: 17883926/0x0110E316)], work=[162*, 0*]
132: 0x10C9 [0x45] LOAD_SCHEDULED_TASK: Load scheduler "st01" with entities [EventEntity, EventEntity], work=[662*, 0*]
133: 0x10DA [0x45] LOAD_SCHEDULED_TASK: Load scheduler "st02" with entities [EventEntity, EventEntity], work=[662*, 0*]
134: 0x10EB [0x02] IF !(Work_Zone[9] == 5*) GOTO 0x1107
135: 0x10F3 [0x45] LOAD_SCHEDULED_TASK: Load scheduler "s285" with entities [LocalPlayer, LocalPlayer], work=[662*, 0*]
136: 0x1104 [0x01] GOTO 0x1134
137: 0x1107 [0x02] IF !(Work_Zone[9] == 6*) GOTO 0x1123
138: 0x110F [0x45] LOAD_SCHEDULED_TASK: Load scheduler "s285" with entities [LocalPlayer, LocalPlayer], work=[662*, 0*]
139: 0x1120 [0x01] GOTO 0x1134
140: 0x1123 [0x45] LOAD_SCHEDULED_TASK: Load scheduler "s291" with entities [LocalPlayer, LocalPlayer], work=[662*, 0*]

SUBROUTINE_1134:
141: 0x1134 [0x45] LOAD_SCHEDULED_TASK: Load scheduler "fdi1" with entities [EventEntity, EventEntity], work=[200*, 0*]
142: 0x1145 [0x6E] LocalPlayer uses emote 7*
143: 0x114C [0x99] Wait for LocalPlayer animation to complete
144: 0x1151 [0x1C] WAIT(50* ticks)
145: 0x1154 [0x45] LOAD_SCHEDULED_TASK: Load scheduler "who1" with entities [LocalPlayer, LocalPlayer], work=[201*, 0*]
146: 0x1165 [0x55] WAIT_LOAD_SCHEDULER: Wait for scheduler "who1" with entities [LocalPlayer, LocalPlayer], work=201*
147: 0x1174 [0x02] IF !(Work_Zone[9] == 5*) GOTO 0x118E
148: 0x117C [0x52] END_LOAD_SCHEDULER: End scheduler "s285" with entities [LocalPlayer, LocalPlayer], work=662*
149: 0x118B [0x01] GOTO 0x11B7
150: 0x118E [0x02] IF !(Work_Zone[9] == 6*) GOTO 0x11A8
151: 0x1196 [0x52] END_LOAD_SCHEDULER: End scheduler "s285" with entities [LocalPlayer, LocalPlayer], work=662*
152: 0x11A5 [0x01] GOTO 0x11B7
153: 0x11A8 [0x52] END_LOAD_SCHEDULER: End scheduler "s291" with entities [LocalPlayer, LocalPlayer], work=662*

SUBROUTINE_11B7:
154: 0x11B7 [0x1C] WAIT(180* ticks)
155: 0x11BA [0x45] LOAD_SCHEDULED_TASK: Load scheduler "se03" with entities [??? (ID: 17883926/0x0110E316), ??? (ID: 17883926/0x0110E316)], work=[662*, 0*]
156: 0x11CB [0x1C] WAIT(60* ticks)
157: 0x11CE [0x1D] PRINT_EVENT_MESSAGE(message_id=7852*)
    → "<The bell doth ring. We shall respect thy Communion!>"
158: 0x11D1 [0x23] WAIT_FOR_DIALOG_INTERACTION
159: 0x11D2 [0x55] WAIT_LOAD_SCHEDULER: Wait for scheduler "fdi1" with entities [EventEntity, EventEntity], work=200*
160: 0x11E1 [0x29] REQ_SET_WAIT(priority=0x08, entity_id=Sylvie (ID: 17883923/0x0110E313), tag_num=0x28)
161: 0x11E8 [0x29] REQ_SET_WAIT(priority=0x08, entity_id=Sylvie (ID: 17883923/0x0110E313), tag_num=0x29)
162: 0x11EF [0x4A] LocalPlayer looks at Sylvie (ID: 17883923/0x0110E313)
163: 0x11F8 [0x6F] WAIT_FRAME_DELAY: Yield until WaitTime reaches zero
164: 0x11F9 [0x76] CHECK_ENTITY_RENDER_FLAGS: Wait until LocalPlayer Render.Flags0 and Render.Flags3 conditions are met
165: 0x11FE [0x1C] WAIT(90* ticks)
166: 0x1201 [0x5C] MUSIC_CONTROL: Set Idle (Day) music to song 120*
167: 0x1205 [0x5C] MUSIC_CONTROL: Set Idle (Night) music to song 120*
168: 0x1209 [0x9A] WAIT_MUSIC_SERVER()
169: 0x120A [0x5D] SET_MUSIC_VOLUME(volume=127*, fade_time=1*)
170: 0x120F [0x45] LOAD_SCHEDULED_TASK: Load scheduler "s282" with entities [LocalPlayer, LocalPlayer], work=[662*, 0*]
171: 0x1220 [0x45] LOAD_SCHEDULED_TASK: Load scheduler "whi1" with entities [LocalPlayer, LocalPlayer], work=[201*, 0*]
172: 0x1231 [0x1C] WAIT(40* ticks)
173: 0x1234 [0x29] REQ_SET_WAIT(priority=0x08, entity_id=Sylvie (ID: 17883923/0x0110E313), tag_num=0x2A)
174: 0x123B [0x29] REQ_SET_WAIT(priority=0x08, entity_id=Sylvie (ID: 17883923/0x0110E313), tag_num=0x2B)
175: 0x1242 [0x27] REQ_SET(priority=0x08, entity_id=Sylvie (ID: 17883923/0x0110E313), tag_num=0x3D)
176: 0x1249 [0x1C] WAIT(180* ticks)
177: 0x124C [0x2A] GET_REQ_LEVEL(level=8, entity_id=Sylvie (ID: 17883923/0x0110E313))
178: 0x1252 [0x52] END_LOAD_SCHEDULER: End scheduler "s282" with entities [LocalPlayer, LocalPlayer], work=662*
179: 0x1261 [0x45] LOAD_SCHEDULED_TASK: Load scheduler "s284" with entities [LocalPlayer, LocalPlayer], work=[662*, 0*]
180: 0x1272 [0x27] REQ_SET(priority=0x08, entity_id=Sylvie (ID: 17883923/0x0110E313), tag_num=0x39)
181: 0x1279 [0x1C] WAIT(120* ticks)
182: 0x127C [0x2A] GET_REQ_LEVEL(level=8, entity_id=Sylvie (ID: 17883923/0x0110E313))
183: 0x1282 [0x52] END_LOAD_SCHEDULER: End scheduler "s284" with entities [LocalPlayer, LocalPlayer], work=662*
184: 0x1291 [0x45] LOAD_SCHEDULED_TASK: Load scheduler "s278" with entities [LocalPlayer, LocalPlayer], work=[662*, 0*]
185: 0x12A2 [0x29] REQ_SET_WAIT(priority=0x08, entity_id=Sylvie (ID: 17883923/0x0110E313), tag_num=0x18)
186: 0x12A9 [0x2B] Sylvie (ID: 17883923/0x0110E313) [7853*]:
    → "<Player>...! This is awestupendomentous! I never imagined words could have such power!"
187: 0x12B0 [0x23] WAIT_FOR_DIALOG_INTERACTION
188: 0x12B1 [0x29] REQ_SET_WAIT(priority=0x08, entity_id=Sylvie (ID: 17883923/0x0110E313), tag_num=0x19)
189: 0x12B8 [0x52] END_LOAD_SCHEDULER: End scheduler "s278" with entities [LocalPlayer, LocalPlayer], work=662*
190: 0x12C7 [0x02] IF !(Work_Zone[9] == 5*) GOTO 0x12E3
191: 0x12CF [0x45] LOAD_SCHEDULED_TASK: Load scheduler "s283" with entities [LocalPlayer, LocalPlayer], work=[662*, 0*]
192: 0x12E0 [0x01] GOTO 0x1310
193: 0x12E3 [0x02] IF !(Work_Zone[9] == 6*) GOTO 0x12FF
194: 0x12EB [0x45] LOAD_SCHEDULED_TASK: Load scheduler "s283" with entities [LocalPlayer, LocalPlayer], work=[662*, 0*]
195: 0x12FC [0x01] GOTO 0x1310
196: 0x12FF [0x45] LOAD_SCHEDULED_TASK: Load scheduler "s280" with entities [LocalPlayer, LocalPlayer], work=[662*, 0*]

SUBROUTINE_1310:
197: 0x1310 [0x27] REQ_SET(priority=0x08, entity_id=Sylvie (ID: 17883923/0x0110E313), tag_num=0x51)
198: 0x1317 [0x2B] Sylvie (ID: 17883923/0x0110E313) [7854*]:
    → "And I feel...I feel wonderful! It's all thanks to you!"
199: 0x131E [0x23] WAIT_FOR_DIALOG_INTERACTION
200: 0x131F [0x2A] GET_REQ_LEVEL(level=8, entity_id=Sylvie (ID: 17883923/0x0110E313))
201: 0x1325 [0x02] IF !(Work_Zone[9] == 5*) GOTO 0x133F
202: 0x132D [0x52] END_LOAD_SCHEDULER: End scheduler "s283" with entities [LocalPlayer, LocalPlayer], work=662*
203: 0x133C [0x01] GOTO 0x1368
204: 0x133F [0x02] IF !(Work_Zone[9] == 6*) GOTO 0x1359
205: 0x1347 [0x52] END_LOAD_SCHEDULER: End scheduler "s283" with entities [LocalPlayer, LocalPlayer], work=662*
206: 0x1356 [0x01] GOTO 0x1368
207: 0x1359 [0x52] END_LOAD_SCHEDULER: End scheduler "s280" with entities [LocalPlayer, LocalPlayer], work=662*

SUBROUTINE_1368:
208: 0x1368 [0x45] LOAD_SCHEDULED_TASK: Load scheduler "s279" with entities [LocalPlayer, LocalPlayer], work=[662*, 0*]
209: 0x1379 [0x4B] UPDATE_ENTITY_YAW(entity=Sylvie (ID: 17883923/0x0110E313), yaw=11.1°*)
210: 0x1380 [0x6F] WAIT_FRAME_DELAY: Yield until WaitTime reaches zero
211: 0x1381 [0x76] CHECK_ENTITY_RENDER_FLAGS: Wait until Sylvie (ID: 17883923/0x0110E313) Render.Flags0 and Render.Flags3 conditions are met
212: 0x1386 [0x52] END_LOAD_SCHEDULER: End scheduler "s279" with entities [LocalPlayer, LocalPlayer], work=662*
213: 0x1395 [0x45] LOAD_SCHEDULED_TASK: Load scheduler "s286" with entities [LocalPlayer, LocalPlayer], work=[662*, 0*]
214: 0x13A6 [0x2B] Sylvie (ID: 17883923/0x0110E313) [7855*]:
    → "And, of course, to Daddy...and my ancestors."
215: 0x13AD [0x23] WAIT_FOR_DIALOG_INTERACTION
216: 0x13AE [0x52] END_LOAD_SCHEDULER: End scheduler "s286" with entities [LocalPlayer, LocalPlayer], work=662*
217: 0x13BD [0x02] IF !(Work_Zone[9] == 5*) GOTO 0x13D9
218: 0x13C5 [0x45] LOAD_SCHEDULED_TASK: Load scheduler "s287" with entities [LocalPlayer, LocalPlayer], work=[662*, 0*]
219: 0x13D6 [0x01] GOTO 0x1422
220: 0x13D9 [0x02] IF !(Work_Zone[9] == 6*) GOTO 0x13F5
221: 0x13E1 [0x45] LOAD_SCHEDULED_TASK: Load scheduler "s287" with entities [LocalPlayer, LocalPlayer], work=[662*, 0*]
222: 0x13F2 [0x01] GOTO 0x1422
223: 0x13F5 [0x02] IF !(Work_Zone[9] == 8*) GOTO 0x1411
224: 0x13FD [0x45] LOAD_SCHEDULED_TASK: Load scheduler "s292" with entities [LocalPlayer, LocalPlayer], work=[662*, 0*]
225: 0x140E [0x01] GOTO 0x1422
226: 0x1411 [0x45] LOAD_SCHEDULED_TASK: Load scheduler "s294" with entities [LocalPlayer, LocalPlayer], work=[662*, 0*]

SUBROUTINE_1422:
227: 0x1422 [0x4A] Sylvie (ID: 17883923/0x0110E313) looks at LocalPlayer
228: 0x142B [0x6F] WAIT_FRAME_DELAY: Yield until WaitTime reaches zero
229: 0x142C [0x76] CHECK_ENTITY_RENDER_FLAGS: Wait until Sylvie (ID: 17883923/0x0110E313) Render.Flags0 and Render.Flags3 conditions are met
230: 0x1431 [0x29] REQ_SET_WAIT(priority=0x08, entity_id=Sylvie (ID: 17883923/0x0110E313), tag_num=0x01)
231: 0x1438 [0x2B] Sylvie (ID: 17883923/0x0110E313) [7856*]:
    → "Let's go back to Adoulin Waterfront. I think we have a lot to talk about."
232: 0x143F [0x23] WAIT_FOR_DIALOG_INTERACTION
233: 0x1440 [0x29] REQ_SET_WAIT(priority=0x08, entity_id=Sylvie (ID: 17883923/0x0110E313), tag_num=0x02)
234: 0x1447 [0x29] REQ_SET_WAIT(priority=0x08, entity_id=Sylvie (ID: 17883923/0x0110E313), tag_num=0x03)
235: 0x144E [0x29] REQ_SET_WAIT(priority=0x08, entity_id=Sylvie (ID: 17883923/0x0110E313), tag_num=0x04)
236: 0x1455 [0x27] REQ_SET(priority=0x08, entity_id=Sylvie (ID: 17883923/0x0110E313), tag_num=0x52)
237: 0x145C [0x1C] WAIT(30* ticks)
238: 0x145F [0x02] IF !(Work_Zone[9] == 5*) GOTO 0x1479
239: 0x1467 [0x52] END_LOAD_SCHEDULER: End scheduler "s287" with entities [LocalPlayer, LocalPlayer], work=662*
240: 0x1476 [0x01] GOTO 0x14BC
241: 0x1479 [0x02] IF !(Work_Zone[9] == 6*) GOTO 0x1493
242: 0x1481 [0x52] END_LOAD_SCHEDULER: End scheduler "s287" with entities [LocalPlayer, LocalPlayer], work=662*
243: 0x1490 [0x01] GOTO 0x14BC
244: 0x1493 [0x02] IF !(Work_Zone[9] == 8*) GOTO 0x14AD
245: 0x149B [0x52] END_LOAD_SCHEDULER: End scheduler "s292" with entities [LocalPlayer, LocalPlayer], work=662*
246: 0x14AA [0x01] GOTO 0x14BC
247: 0x14AD [0x52] END_LOAD_SCHEDULER: End scheduler "s294" with entities [LocalPlayer, LocalPlayer], work=662*

SUBROUTINE_14BC:
248: 0x14BC [0x45] LOAD_SCHEDULED_TASK: Load scheduler "s290" with entities [LocalPlayer, LocalPlayer], work=[662*, 0*]
249: 0x14CD [0x7B] Sylvie (ID: 17883923/0x0110E313) stops talking
250: 0x14D2 [0x1C] WAIT(30* ticks)
251: 0x14D5 [0x45] LOAD_SCHEDULED_TASK: Load scheduler "fdo1" with entities [LocalPlayer, LocalPlayer], work=[200*, 0*]
252: 0x14E6 [0x55] WAIT_LOAD_SCHEDULER: Wait for scheduler "fdo1" with entities [LocalPlayer, LocalPlayer], work=200*
253: 0x14F5 [0x22] ENTITY_HIDE_FLAG(enabled=0x01)
254: 0x14F7 [0x2A] GET_REQ_LEVEL(level=8, entity_id=Sylvie (ID: 17883923/0x0110E313))
255: 0x14FD [0x52] END_LOAD_SCHEDULER: End scheduler "s290" with entities [LocalPlayer, LocalPlayer], work=662*
256: 0x150C [0x5C] MUSIC_CONTROL: Set Idle (Day) music to song 0*
257: 0x1510 [0x5C] MUSIC_CONTROL: Set Idle (Night) music to song 0*
258: 0x1514 [0x9A] WAIT_MUSIC_SERVER()
259: 0x1515 [0x5D] SET_MUSIC_VOLUME(volume=127*, fade_time=1*)
260: 0x151A [0x1C] WAIT(30* ticks)
261: 0x151D [0x46] CAMERA_CONTROL: Restore default settings
262: 0x151F [0x45] LOAD_SCHEDULED_TASK: Load scheduler "fdi1" with entities [LocalPlayer, LocalPlayer], work=[200*, 0*]
263: 0x1530 [0x20] SET_CLI_EVENT_UC_FLAG: Unlock player control
264: 0x1532 [0x21] END_EVENT
265: 0x1533 [0x00] END_REQSTACK()
```
