# 17883969 - Congregation Site

## Common Data

| Field            | Value                    |
|------------------|--------------------------|
| Zone             | Cirdas Caverns (ID: 270) |
| Block Size       | 12924 bytes              |
| Total Events     | 5                        |
| References Count | 340                      |

## List of Events

| Event ID              | Entrypoint   |   Size |   Instructions |
|-----------------------|--------------|--------|----------------|
| [65535](#event-65535) | 0x0000       |      1 |              1 |
| [27](#event-27)       | 0x0001       |   2952 |            334 |
| [28](#event-28)       | 0x0B89       |    253 |             30 |
| [32](#event-32)       | 0x0C86       |    404 |             47 |
| [33](#event-33)       | 0x0E1A       |   7917 |            875 |

## DAT References (imed_data)

|   Index | Hex Value   |   Dec Value |
|---------|-------------|-------------|
|       0 | 0x00C8      |         200 |
|       1 | 0x0000      |           0 |
|       2 | 0x0013      |          19 |
|       3 | 0xFFFE4A04  |  4294855172 |
|       4 | 0x3503E     |      217150 |
|       5 | 0x738B      |       29579 |
|       6 | 0x01FF      |         511 |
|       7 | 0xFFFE3992  |  4294850962 |
|       8 | 0x36115     |      221461 |
|       9 | 0x74DB      |       29915 |
|      10 | 0x0194      |         404 |
|      11 | 0xFFFE7C3F  |  4294868031 |
|      12 | 0x327EA     |      206826 |
|      13 | 0x7A95      |       31381 |
|      14 | 0x03E7      |         999 |
|      15 | 0xFFFE6D51  |  4294864209 |
|      16 | 0x34F20     |      216864 |
|      17 | 0x7462      |       29794 |
|      18 | 0x02F9      |         761 |
|      19 | 0xFFFE6EC6  |  4294864582 |
|      20 | 0x3579F     |      219039 |
|      21 | 0x74B1      |       29873 |
|      22 | 0x034A      |         842 |
|      23 | 0xFFFE6995  |  4294863253 |
|      24 | 0x354FD     |      218365 |
|      25 | 0x74E6      |       29926 |
|      26 | 0x029B      |         667 |
|      27 | 0xFFFE7856  |  4294867030 |
|      28 | 0x33304     |      209668 |
|      29 | 0x79B1      |       31153 |
|      30 | 0x0350      |         848 |
|      31 | 0x001E      |          30 |
|      32 | 0x0CAE      |        3246 |
|      33 | 0x003D      |          61 |
|      34 | 0x0272      |         626 |
|      35 | 0x000F      |          15 |
|      36 | 0x0064      |         100 |
|      37 | 0x0014      |          20 |
|      38 | 0x0078      |         120 |
|      39 | 0x1EC5      |        7877 |
|      40 | 0x00B4      |         180 |
|      41 | 0x1EC6      |        7878 |
|      42 | 0x1EC7      |        7879 |
|      43 | 0x1EC8      |        7880 |
|      44 | 0x0096      |         150 |
|      45 | 0x003C      |          60 |
|      46 | 0x005A      |          90 |
|      47 | 0x1EC9      |        7881 |
|      48 | 0x1ECA      |        7882 |
|      49 | 0x1ECB      |        7883 |
|      50 | 0x00BF      |         191 |
|      51 | 0x0CFE      |        3326 |
|      52 | 0x1ECC      |        7884 |
|      53 | 0x1ECD      |        7885 |
|      54 | 0x0D3A      |        3386 |
|      55 | 0x1ECE      |        7886 |
|      56 | 0x1ECF      |        7887 |
|      57 | 0x1ED0      |        7888 |
|      58 | 0x1ED1      |        7889 |
|      59 | 0x1ED2      |        7890 |
|      60 | 0x0009      |           9 |
|      61 | 0x1ED3      |        7891 |
|      62 | 0x003B      |          59 |
|      63 | 0x1ED4      |        7892 |
|      64 | 0x1ED5      |        7893 |
|      65 | 0x1ED6      |        7894 |
|      66 | 0x1ED7      |        7895 |
|      67 | 0x0031      |          49 |
|      68 | 0x1ED8      |        7896 |
|      69 | 0x1ED9      |        7897 |
|      70 | 0x1EDA      |        7898 |
|      71 | 0x1EDB      |        7899 |
|      72 | 0x1EDC      |        7900 |
|      73 | 0x1EDD      |        7901 |
|      74 | 0x1EDE      |        7902 |
|      75 | 0x0007      |           7 |
|      76 | 0x1EDF      |        7903 |
|      77 | 0x0006      |           6 |
|      78 | 0x1EE0      |        7904 |
|      79 | 0x1EE1      |        7905 |
|      80 | 0x000A      |          10 |
|      81 | 0x1EE2      |        7906 |
|      82 | 0x0016      |          22 |
|      83 | 0x1EE3      |        7907 |
|      84 | 0x1EE4      |        7908 |
|      85 | 0x1EE5      |        7909 |
|      86 | 0x1EE6      |        7910 |
|      87 | 0x1EE7      |        7911 |
|      88 | 0x1EE8      |        7912 |
|      89 | 0x0108      |         264 |
|      90 | 0x1EE9      |        7913 |
|      91 | 0x1EEA      |        7914 |
|      92 | 0x1EEB      |        7915 |
|      93 | 0x1EEC      |        7916 |
|      94 | 0xFFFE38B8  |  4294850744 |
|      95 | 0x35A17     |      219671 |
|      96 | 0x7499      |       29849 |
|      97 | 0xFFFE42D4  |  4294853332 |
|      98 | 0x35EB1     |      220849 |
|      99 | 0x74C7      |       29895 |
|     100 | 0x0019      |          25 |
|     101 | 0x1EED      |        7917 |
|     102 | 0x672CE     |      422606 |
|     103 | 0xFFFBE176  |  4294697334 |
|     104 | 0x9B41      |       39745 |
|     105 | 0x04D0      |        1232 |
|     106 | 0x66981     |      420225 |
|     107 | 0xFFFBC729  |  4294690601 |
|     108 | 0x9C2D      |       39981 |
|     109 | 0x0C01      |        3073 |
|     110 | 0x02E5      |         741 |
|     111 | 0x1EEE      |        7918 |
|     112 | 0x1EEF      |        7919 |
|     113 | 0x5ABAD     |      371629 |
|     114 | 0x2DE43     |      187971 |
|     115 | 0x744D      |       29773 |
|     116 | 0x08F6      |        2294 |
|     117 | 0x5B041     |      372801 |
|     118 | 0x2E7AF     |      190383 |
|     119 | 0x73F9      |       29689 |
|     120 | 0x09D6      |        2518 |
|     121 | 0x566CA     |      353994 |
|     122 | 0x2F335     |      193333 |
|     123 | 0x74DE      |       29918 |
|     124 | 0x0EDE      |        3806 |
|     125 | 0x563E8     |      353256 |
|     126 | 0x2EE2C     |      192044 |
|     127 | 0x751F      |       29983 |
|     128 | 0x560C1     |      352449 |
|     129 | 0x2F58B     |      193931 |
|     130 | 0x73FF      |       29695 |
|     131 | 0x5A5E3     |      370147 |
|     132 | 0x334E7     |      210151 |
|     133 | 0x7430      |       29744 |
|     134 | 0x05C4      |        1476 |
|     135 | 0x5A409     |      369673 |
|     136 | 0x34144     |      213316 |
|     137 | 0x73FB      |       29691 |
|     138 | 0x56183     |      352643 |
|     139 | 0x2E5F1     |      189937 |
|     140 | 0x7477      |       29815 |
|     141 | 0x0DDE      |        3550 |
|     142 | 0x55C2D     |      351277 |
|     143 | 0x2E55D     |      189789 |
|     144 | 0x74BA      |       29882 |
|     145 | 0x56419     |      353305 |
|     146 | 0x2E287     |      189063 |
|     147 | 0x73DE      |       29662 |
|     148 | 0x02EA      |         746 |
|     149 | 0x001D      |          29 |
|     150 | 0x1EF0      |        7920 |
|     151 | 0x1EF1      |        7921 |
|     152 | 0x1EF2      |        7922 |
|     153 | 0x1EF3      |        7923 |
|     154 | 0x58B9F     |      363423 |
|     155 | 0x31C54     |      203860 |
|     156 | 0x7500      |       29952 |
|     157 | 0x0661      |        1633 |
|     158 | 0x58170     |      360816 |
|     159 | 0x319C5     |      203205 |
|     160 | 0x752F      |       29999 |
|     161 | 0x0B75      |        2933 |
|     162 | 0x58CFB     |      363771 |
|     163 | 0x312B1     |      201393 |
|     164 | 0x7486      |       29830 |
|     165 | 0x093E      |        2366 |
|     166 | 0x5857D     |      361853 |
|     167 | 0x310DF     |      200927 |
|     168 | 0x0B7A      |        2938 |
|     169 | 0x5824B     |      361035 |
|     170 | 0x31F8B     |      204683 |
|     171 | 0x02BB      |         699 |
|     172 | 0x6633C     |      418620 |
|     173 | 0xFFFC36A9  |  4294719145 |
|     174 | 0x78ED      |       30957 |
|     175 | 0x0D8F      |        3471 |
|     176 | 0x0D22      |        3362 |
|     177 | 0x0F08      |        3848 |
|     178 | 0x0010      |          16 |
|     179 | 0x1EF4      |        7924 |
|     180 | 0x1EF5      |        7925 |
|     181 | 0x1EF6      |        7926 |
|     182 | 0x1EF7      |        7927 |
|     183 | 0x1EF8      |        7928 |
|     184 | 0x1EF9      |        7929 |
|     185 | 0x0D21      |        3361 |
|     186 | 0x0D57      |        3415 |
|     187 | 0x1EFA      |        7930 |
|     188 | 0x1EFB      |        7931 |
|     189 | 0x5803E     |      360510 |
|     190 | 0x3147C     |      201852 |
|     191 | 0x5803F     |      360511 |
|     192 | 0x30CC7     |      199879 |
|     193 | 0x1EFC      |        7932 |
|     194 | 0x1EFD      |        7933 |
|     195 | 0x1EFE      |        7934 |
|     196 | 0x1EFF      |        7935 |
|     197 | 0x1F00      |        7936 |
|     198 | 0x1F01      |        7937 |
|     199 | 0x1F02      |        7938 |
|     200 | 0x1F03      |        7939 |
|     201 | 0x0039      |          57 |
|     202 | 0x0028      |          40 |
|     203 | 0x0D02      |        3330 |
|     204 | 0x0072      |         114 |
|     205 | 0x005C      |          92 |
|     206 | 0x0001      |           1 |
|     207 | 0x008C      |         140 |
|     208 | 0x0002      |           2 |
|     209 | 0x0003      |           3 |
|     210 | 0x00A0      |         160 |
|     211 | 0x0004      |           4 |
|     212 | 0x00AA      |         170 |
|     213 | 0x0005      |           5 |
|     214 | 0x00BE      |         190 |
|     215 | 0x0008      |           8 |
|     216 | 0x1F04      |        7940 |
|     217 | 0x005D      |          93 |
|     218 | 0x1F05      |        7941 |
|     219 | 0x1F06      |        7942 |
|     220 | 0x1F07      |        7943 |
|     221 | 0x1F08      |        7944 |
|     222 | 0x00C9      |         201 |
|     223 | 0x5A94E     |      371022 |
|     224 | 0x2E443     |      189507 |
|     225 | 0x743E      |       29758 |
|     226 | 0x0A84      |        2692 |
|     227 | 0x5A2E5     |      369381 |
|     228 | 0x33A9A     |      211610 |
|     229 | 0x73F7      |       29687 |
|     230 | 0x5B983     |      375171 |
|     231 | 0x35EEF     |      220911 |
|     232 | 0x74B6      |       29878 |
|     233 | 0x05FD      |        1533 |
|     234 | 0x5B025     |      372773 |
|     235 | 0x2EC13     |      191507 |
|     236 | 0x73AD      |       29613 |
|     237 | 0x5976D     |      366445 |
|     238 | 0x2EE81     |      192129 |
|     239 | 0x741D      |       29725 |
|     240 | 0x0BE6      |        3046 |
|     241 | 0x555D9     |      349657 |
|     242 | 0x2DA6E     |      186990 |
|     243 | 0x0E4E      |        3662 |
|     244 | 0x54DF4     |      347636 |
|     245 | 0x2E1D9     |      188889 |
|     246 | 0x5B733     |      374579 |
|     247 | 0x36760     |      223072 |
|     248 | 0x73DD      |       29661 |
|     249 | 0x0D08      |        3336 |
|     250 | 0x5C4DE     |      378078 |
|     251 | 0x3629E     |      221854 |
|     252 | 0x74A0      |       29856 |
|     253 | 0x0F07      |        3847 |
|     254 | 0x1F09      |        7945 |
|     255 | 0x0032      |          50 |
|     256 | 0x1F0A      |        7946 |
|     257 | 0x08EB      |        2283 |
|     258 | 0x0015      |          21 |
|     259 | 0x1F0B      |        7947 |
|     260 | 0x1F0C      |        7948 |
|     261 | 0x1F0D      |        7949 |
|     262 | 0x1F0E      |        7950 |
|     263 | 0x0021      |          33 |
|     264 | 0x1F0F      |        7951 |
|     265 | 0x1F10      |        7952 |
|     266 | 0x1F11      |        7953 |
|     267 | 0x1F12      |        7954 |
|     268 | 0x1F13      |        7955 |
|     269 | 0x1F14      |        7956 |
|     270 | 0x0F09      |        3849 |
|     271 | 0x005F      |          95 |
|     272 | 0x1F15      |        7957 |
|     273 | 0x1F16      |        7958 |
|     274 | 0x1F17      |        7959 |
|     275 | 0x1F18      |        7960 |
|     276 | 0x1F19      |        7961 |
|     277 | 0x1F1A      |        7962 |
|     278 | 0x57DF0     |      359920 |
|     279 | 0x333FA     |      209914 |
|     280 | 0x7723      |       30499 |
|     281 | 0x0245      |         581 |
|     282 | 0x0CBA      |        3258 |
|     283 | 0x1F1B      |        7963 |
|     284 | 0x0024      |          36 |
|     285 | 0x0092      |         146 |
|     286 | 0x57596     |      357782 |
|     287 | 0x2FEEF     |      196335 |
|     288 | 0x7506      |       29958 |
|     289 | 0x05A2      |        1442 |
|     290 | 0x570D4     |      356564 |
|     291 | 0x30283     |      197251 |
|     292 | 0x7467      |       29799 |
|     293 | 0x580F8     |      360696 |
|     294 | 0x30362     |      197474 |
|     295 | 0x593EB     |      365547 |
|     296 | 0x31905     |      203013 |
|     297 | 0x756B      |       30059 |
|     298 | 0x0D01      |        3329 |
|     299 | 0x59142     |      364866 |
|     300 | 0x30353     |      197459 |
|     301 | 0x757F      |       30079 |
|     302 | 0x0246      |         582 |
|     303 | 0x006E      |         110 |
|     304 | 0x5902B     |      364587 |
|     305 | 0x305CF     |      198095 |
|     306 | 0x02E7      |         743 |
|     307 | 0x58F00     |      364288 |
|     308 | 0x31BEA     |      203754 |
|     309 | 0x74DD      |       29917 |
|     310 | 0x59179     |      364921 |
|     311 | 0x2F073     |      192627 |
|     312 | 0x7450      |       29776 |
|     313 | 0x00F6      |         246 |
|     314 | 0x5664A     |      353866 |
|     315 | 0x2FCE0     |      195808 |
|     316 | 0x7497      |       29847 |
|     317 | 0x0BC4      |        3012 |
|     318 | 0x57FD0     |      360400 |
|     319 | 0x316E8     |      202472 |
|     320 | 0x577A5     |      358309 |
|     321 | 0x30FF5     |      200693 |
|     322 | 0x1F1C      |        7964 |
|     323 | 0x1F1D      |        7965 |
|     324 | 0x1F1E      |        7966 |
|     325 | 0x1F1F      |        7967 |
|     326 | 0x1F20      |        7968 |
|     327 | 0x0CB9      |        3257 |
|     328 | 0x1F21      |        7969 |
|     329 | 0x1F22      |        7970 |
|     330 | 0x1F23      |        7971 |
|     331 | 0x1F24      |        7972 |
|     332 | 0x1F25      |        7973 |
|     333 | 0x1F26      |        7974 |
|     334 | 0x1F27      |        7975 |
|     335 | 0x1F28      |        7976 |
|     336 | 0x1F29      |        7977 |
|     337 | 0x1F2A      |        7978 |
|     338 | 0x0047      |          71 |
|     339 | 0x1F2B      |        7979 |

## Events

### Event 65535

#### Metadata

| Field        | Value   |
|--------------|---------|
| Entrypoint   | 0x0000  |
| Data Size    | 1 bytes |
| Instructions | 1       |

```
      00 01 02 03 04 05 06 07  08 09 0A 0B 0C 0D 0E 0F
      -- -- -- -- -- -- -- --  -- -- -- -- -- -- -- --
0000: 00                                                .               
```

#### Opcodes

```
  0: 0x0000 [0x00] END_REQSTACK()
```

### Event 27

#### Metadata

| Field        | Value      |
|--------------|------------|
| Entrypoint   | 0x0001     |
| Data Size    | 2952 bytes |
| Instructions | 334        |

```
      00 01 02 03 04 05 06 07  08 09 0A 0B 0C 0D 0E 0F
      -- -- -- -- -- -- -- --  -- -- -- -- -- -- -- --
0000:    42 45 00 80 F8 FF FF  7F F8 FF FF 7F 66 64 6F   BE..........fdo
0010: 31 01 80 55 00 80 F8 FF  FF 7F F8 FF FF 7F 66 64  1..U..........fd
0020: 6F 31 46 01 38 02 80 2F  00 42 E3 10 01 2F 00 46  o1F.8../.B.../.F
0030: E3 10 01 2F 00 43 E3 10  01 2F 00 44 E3 10 01 2F  .../.C.../.D.../
0040: 00 45 E3 10 01 2F 00 47  E3 10 01 4E 00 42 E3 10  .E.../.G...N.B..
0050: 01 4E 00 46 E3 10 01 4E  00 47 E3 10 01 92 01 42  .N.F...N.G.....B
0060: E3 10 01 92 01 46 E3 10  01 92 01 43 E3 10 01 92  .....F.....C....
0070: 01 44 E3 10 01 92 01 45  E3 10 01 94 01 F0 FF FF  .D.....E........
0080: 7F 94 01 42 E3 10 01 94  01 46 E3 10 01 94 01 43  ...B.....F.....C
0090: E3 10 01 94 01 44 E3 10  01 94 01 45 E3 10 01 94  .....D.....E....
00A0: 01 47 E3 10 01 BA F0 FF  FF 7F 03 80 04 80 05 80  .G..............
00B0: 06 80 BA 42 E3 10 01 07  80 08 80 09 80 0A 80 BA  ...B............
00C0: 46 E3 10 01 0B 80 0C 80  0D 80 0E 80 BA 43 E3 10  F............C..
00D0: 01 0F 80 10 80 11 80 12  80 BA 44 E3 10 01 13 80  ..........D.....
00E0: 14 80 15 80 16 80 BA 45  E3 10 01 17 80 18 80 19  .......E........
00F0: 80 1A 80 BA 47 E3 10 01  1B 80 1C 80 1D 80 1E 80  ....G...........
0100: 80 F0 FF FF 7F 80 42 E3  10 01 80 46 E3 10 01 80  ......B....F....
0110: 47 E3 10 01 1C 1F 80 5B  20 80 47 E3 10 01 47 E3  G......[ .G...G.
0120: 10 01 6D 66 6C 30 5C 00  21 80 5C 01 21 80 9A 45  ..mfl0\.!.\.!..E
0130: 22 80 F8 FF FF 7F F8 FF  FF 7F 73 31 35 31 01 80  ".........s151..
0140: 1C 23 80 45 00 80 F8 FF  FF 7F F8 FF FF 7F 66 64  .#.E..........fd
0150: 69 31 01 80 55 00 80 F8  FF FF 7F F8 FF FF 7F 66  i1..U..........f
0160: 64 69 31 1C 24 80 27 05  F0 FF FF 7F 04 1C 25 80  di1.$.'.......%.
0170: 52 22 80 F8 FF FF 7F F8  FF FF 7F 73 31 35 31 45  R".........s151E
0180: 22 80 F8 FF FF 7F F8 FF  FF 7F 73 31 35 32 01 80  ".........s152..
0190: 1C 26 80 27 05 42 E3 10  01 02 1C 23 80 52 22 80  .&.'.B.....#.R".
01A0: F8 FF FF 7F F8 FF FF 7F  73 31 35 32 45 22 80 F8  ........s152E"..
01B0: FF FF 7F F8 FF FF 7F 73  31 35 33 01 80 2B 42 E3  .......s153..+B.
01C0: 10 01 27 80 1C 28 80 2B  42 E3 10 01 29 80 23 2A  ..'..(.+B...).#*
01D0: 05 42 E3 10 01 52 22 80  F8 FF FF 7F F8 FF FF 7F  .B...R".........
01E0: 73 31 35 33 45 22 80 F8  FF FF 7F F8 FF FF 7F 73  s153E".........s
01F0: 31 35 34 01 80 4A 46 E3  10 01 42 E3 10 01 2B 46  154..JF...B...+F
0200: E3 10 01 2A 80 23 52 22  80 F8 FF FF 7F F8 FF FF  ...*.#R"........
0210: 7F 73 31 35 34 45 22 80  F8 FF FF 7F F8 FF FF 7F  .s154E".........
0220: 73 31 35 35 01 80 7C 00  42 E3 10 01 2B 42 E3 10  s155..|.B...+B..
0230: 01 2B 80 23 7C 01 42 E3  10 01 52 22 80 F8 FF FF  .+.#|.B...R"....
0240: 7F F8 FF FF 7F 73 31 35  35 45 22 80 F8 FF FF 7F  .....s155E".....
0250: F8 FF FF 7F 73 31 35 36  01 80 27 05 46 E3 10 01  ....s156..'.F...
0260: 02 1C 2C 80 52 22 80 F8  FF FF 7F F8 FF FF 7F 73  ..,.R".........s
0270: 31 35 36 45 22 80 F8 FF  FF 7F F8 FF FF 7F 73 31  156E".........s1
0280: 35 37 01 80 79 00 42 E3  10 01 47 E3 10 01 1C 2D  57..y.B...G....-
0290: 80 7A 00 46 E3 10 01 4E  00 43 E3 10 01 4E 00 44  .z.F...N.C...N.D
02A0: E3 10 01 4E 00 45 E3 10  01 BA 46 E3 10 01 0B 80  ...N.E....F.....
02B0: 0C 80 0D 80 0E 80 80 43  E3 10 01 80 44 E3 10 01  .......C....D...
02C0: 80 45 E3 10 01 80 46 E3  10 01 4A 46 E3 10 01 42  .E....F...JF...B
02D0: E3 10 01 1C 2E 80 52 22  80 F8 FF FF 7F F8 FF FF  ......R"........
02E0: 7F 73 31 35 37 45 22 80  F8 FF FF 7F F8 FF FF 7F  .s157E".........
02F0: 73 31 35 38 01 80 2B 43  E3 10 01 2F 80 23 55 22  s158..+C.../.#U"
0300: 80 F8 FF FF 7F F8 FF FF  7F 73 31 35 38 27 05 43  .........s158'.C
0310: E3 10 01 03 1C 23 80 27  05 44 E3 10 01 02 1C 23  .....#.'.D.....#
0320: 80 27 05 45 E3 10 01 02  45 22 80 F8 FF FF 7F F8  .'.E....E"......
0330: FF FF 7F 73 31 35 39 01  80 4A 46 E3 10 01 43 E3  ...s159..JF...C.
0340: 10 01 1C 1F 80 2B 46 E3  10 01 30 80 23 2B 43 E3  .....+F...0.#+C.
0350: 10 01 31 80 23 2A 05 43  E3 10 01 81 00 43 E3 10  ..1.#*.C.....C..
0360: 01 5B 20 80 47 E3 10 01  47 E3 10 01 6D 66 6C 31  .[ .G...G...mfl1
0370: 66 32 80 43 E3 10 01 43  E3 10 01 6B 69 7A 30 52  f2.C...C...kiz0R
0380: 22 80 F8 FF FF 7F F8 FF  FF 7F 73 31 35 39 45 22  ".........s159E"
0390: 80 F8 FF FF 7F F8 FF FF  7F 73 31 36 30 01 80 1C  .........s160...
03A0: 23 80 5B 33 80 46 E3 10  01 46 E3 10 01 62 74 6C  #.[3.F...F...btl
03B0: 30 53 47 E3 10 01 47 E3  10 01 6D 66 6C 31 5B 20  0SG...G...mfl1[ 
03C0: 80 47 E3 10 01 47 E3 10  01 6D 66 6C 32 66 32 80  .G...G...mfl2f2.
03D0: 43 E3 10 01 43 E3 10 01  6B 69 7A 31 52 22 80 F8  C...C...kiz1R"..
03E0: FF FF 7F F8 FF FF 7F 73  31 36 30 45 22 80 F8 FF  .......s160E"...
03F0: FF 7F F8 FF FF 7F 73 31  36 31 01 80 2B 46 E3 10  ......s161..+F..
0400: 01 34 80 23 2B 46 E3 10  01 35 80 23 5B 36 80 46  .4.#+F...5.#[6.F
0410: E3 10 01 46 E3 10 01 62  74 61 30 52 22 80 F8 FF  ...F...bta0R"...
0420: FF 7F F8 FF FF 7F 73 31  36 31 45 22 80 F8 FF FF  ......s161E"....
0430: 7F F8 FF FF 7F 73 31 36  32 01 80 2B 46 E3 10 01  .....s162..+F...
0440: 37 80 23 2B 46 E3 10 01  38 80 23 53 46 E3 10 01  7.#+F...8.#SF...
0450: 46 E3 10 01 62 74 61 30  52 22 80 F8 FF FF 7F F8  F...bta0R"......
0460: FF FF 7F 73 31 36 32 45  22 80 F8 FF FF 7F F8 FF  ...s162E".......
0470: FF 7F 73 31 36 33 01 80  7B 42 E3 10 01 27 05 43  ..s163..{B...'.C
0480: E3 10 01 02 1C 2E 80 52  22 80 F8 FF FF 7F F8 FF  .......R".......
0490: FF 7F 73 31 36 33 45 22  80 F8 FF FF 7F F8 FF FF  ..s163E"........
04A0: 7F 73 31 36 34 01 80 5B  20 80 47 E3 10 01 47 E3  .s164..[ .G...G.
04B0: 10 01 6D 66 6C 33 66 32  80 43 E3 10 01 43 E3 10  ..mfl3f2.C...C..
04C0: 01 6B 69 7A 32 2B 43 E3  10 01 39 80 23 2B 43 E3  .kiz2+C...9.#+C.
04D0: 10 01 3A 80 23 52 22 80  F8 FF FF 7F F8 FF FF 7F  ..:.#R".........
04E0: 73 31 36 34 45 22 80 F8  FF FF 7F F8 FF FF 7F 73  s164E".........s
04F0: 31 36 35 01 80 2B 43 E3  10 01 3B 80 23 66 3C 80  165..+C...;.#f<.
0500: 42 E3 10 01 42 E3 10 01  73 68 61 30 5B 36 80 46  B...B...sha0[6.F
0510: E3 10 01 46 E3 10 01 62  74 61 31 52 22 80 F8 FF  ...F...bta1R"...
0520: FF 7F F8 FF FF 7F 73 31  36 35 45 22 80 F8 FF FF  ......s165E"....
0530: 7F F8 FF FF 7F 73 31 36  36 01 80 1C 23 80 81 01  .....s166...#...
0540: 43 E3 10 01 6B 69 64 6C  30 43 E3 10 01 4E 01 47  C...kidl0C...N.G
0550: E3 10 01 2B 46 E3 10 01  3D 80 23 52 22 80 F8 FF  ...+F...=.#R"...
0560: FF 7F F8 FF FF 7F 73 31  36 36 45 22 80 F8 FF FF  ......s166E"....
0570: 7F F8 FF FF 7F 73 31 36  37 01 80 66 3E 80 43 E3  .....s167..f>.C.
0580: 10 01 43 E3 10 01 74 6C  6B 30 2B 43 E3 10 01 3F  ..C...tlk0+C...?
0590: 80 23 66 3E 80 43 E3 10  01 43 E3 10 01 74 6C 6B  .#f>.C...C...tlk
05A0: 31 52 22 80 F8 FF FF 7F  F8 FF FF 7F 73 31 36 37  1R".........s167
05B0: 45 22 80 F8 FF FF 7F F8  FF FF 7F 73 31 36 38 01  E".........s168.
05C0: 80 5B 33 80 46 E3 10 01  46 E3 10 01 62 74 6B 30  .[3.F...F...btk0
05D0: 2B 46 E3 10 01 40 80 23  2B 46 E3 10 01 41 80 23  +F...@.#+F...A.#
05E0: 5B 33 80 46 E3 10 01 46  E3 10 01 62 74 6B 31 52  [3.F...F...btk1R
05F0: 22 80 F8 FF FF 7F F8 FF  FF 7F 73 31 36 38 45 22  ".........s168E"
0600: 80 F8 FF FF 7F F8 FF FF  7F 73 31 36 39 01 80 66  .........s169..f
0610: 3E 80 43 E3 10 01 43 E3  10 01 74 68 6B 31 1C 1F  >.C...C...thk1..
0620: 80 4A 45 E3 10 01 44 E3  10 01 1C 1F 80 2B 43 E3  .JE...D......+C.
0630: 10 01 42 80 23 79 00 44  E3 10 01 43 E3 10 01 66  ..B.#y.D...C...f
0640: 43 80 44 E3 10 01 44 E3  10 01 74 6C 6B 30 2B 44  C.D...D...tlk0+D
0650: E3 10 01 44 80 23 66 43  80 44 E3 10 01 44 E3 10  ...D.#fC.D...D..
0660: 01 74 6C 6B 31 52 22 80  F8 FF FF 7F F8 FF FF 7F  .tlk1R".........
0670: 73 31 36 39 45 22 80 F8  FF FF 7F F8 FF FF 7F 73  s169E".........s
0680: 31 37 30 01 80 66 3E 80  43 E3 10 01 43 E3 10 01  170..f>.C...C...
0690: 74 68 6B 32 2B 45 E3 10  01 45 80 23 79 00 44 E3  thk2+E...E.#y.D.
06A0: 10 01 45 E3 10 01 2B 44  E3 10 01 46 80 23 52 22  ..E...+D...F.#R"
06B0: 80 F8 FF FF 7F F8 FF FF  7F 73 31 37 30 45 22 80  .........s170E".
06C0: F8 FF FF 7F F8 FF FF 7F  73 31 37 31 01 80 5B 33  ........s171..[3
06D0: 80 46 E3 10 01 46 E3 10  01 62 74 6B 30 4A 45 E3  .F...F...btk0JE.
06E0: 10 01 46 E3 10 01 79 00  44 E3 10 01 46 E3 10 01  ..F...y.D...F...
06F0: 2B 46 E3 10 01 47 80 23  2B 46 E3 10 01 48 80 23  +F...G.#+F...H.#
0700: 5B 33 80 46 E3 10 01 46  E3 10 01 62 74 6B 31 52  [3.F...F...btk1R
0710: 22 80 F8 FF FF 7F F8 FF  FF 7F 73 31 37 31 45 22  ".........s171E"
0720: 80 F8 FF FF 7F F8 FF FF  7F 73 31 37 32 01 80 27  .........s172..'
0730: 05 44 E3 10 01 03 2B 44  E3 10 01 49 80 23 5B 36  .D....+D...I.#[6
0740: 80 46 E3 10 01 46 E3 10  01 62 74 61 30 2B 46 E3  .F...F...bta0+F.
0750: 10 01 4A 80 23 2A 05 44  E3 10 01 52 22 80 F8 FF  ..J.#*.D...R"...
0760: FF 7F F8 FF FF 7F 73 31  37 32 45 22 80 F8 FF FF  ......s172E"....
0770: 7F F8 FF FF 7F 73 31 37  33 01 80 79 00 43 E3 10  .....s173..y.C..
0780: 01 44 E3 10 01 1C 2D 80  79 00 44 E3 10 01 43 E3  .D....-.y.D...C.
0790: 10 01 6E 43 E3 10 01 4B  80 99 43 E3 10 01 6B 69  ..nC...K..C...ki
07A0: 64 6C 30 46 E3 10 01 1C  2E 80 52 22 80 F8 FF FF  dl0F......R"....
07B0: 7F F8 FF FF 7F 73 31 37  33 45 22 80 F8 FF FF 7F  .....s173E".....
07C0: F8 FF FF 7F 73 31 37 34  01 80 79 00 44 E3 10 01  ....s174..y.D...
07D0: 46 E3 10 01 1C 1F 80 79  00 43 E3 10 01 46 E3 10  F......y.C...F..
07E0: 01 66 43 80 44 E3 10 01  44 E3 10 01 74 6C 6B 30  .fC.D...D...tlk0
07F0: 2B 44 E3 10 01 4C 80 23  66 43 80 44 E3 10 01 44  +D...L.#fC.D...D
0800: E3 10 01 74 6C 6B 31 52  22 80 F8 FF FF 7F F8 FF  ...tlk1R".......
0810: FF 7F 73 31 37 34 45 22  80 F8 FF FF 7F F8 FF FF  ..s174E"........
0820: 7F 73 31 37 35 01 80 27  05 46 E3 10 01 03 1C 23  .s175..'.F.....#
0830: 80 27 05 43 E3 10 01 04  1C 28 80 52 22 80 F8 FF  .'.C.....(.R"...
0840: FF 7F F8 FF FF 7F 73 31  37 35 45 22 80 F8 FF FF  ......s175E"....
0850: 7F F8 FF FF 7F 73 31 37  36 01 80 6E 44 E3 10 01  .....s176..nD...
0860: 4D 80 99 44 E3 10 01 2B  44 E3 10 01 4E 80 23 4E  M..D...+D...N.#N
0870: 01 46 E3 10 01 4E 01 43  E3 10 01 52 22 80 F8 FF  .F...N.C...R"...
0880: FF 7F F8 FF FF 7F 73 31  37 36 45 22 80 F8 FF FF  ......s176E"....
0890: 7F F8 FF FF 7F 73 31 37  37 01 80 2B 42 E3 10 01  .....s177..+B...
08A0: 4F 80 23 66 3C 80 42 E3  10 01 42 E3 10 01 73 68  O.#f<.B...B...sh
08B0: 61 31 1C 50 80 52 22 80  F8 FF FF 7F F8 FF FF 7F  a1.P.R".........
08C0: 73 31 37 37 45 22 80 F8  FF FF 7F F8 FF FF 7F 73  s177E".........s
08D0: 31 37 38 01 80 2B 42 E3  10 01 51 80 23 55 22 80  178..+B...Q.#U".
08E0: F8 FF FF 7F F8 FF FF 7F  73 31 37 38 45 22 80 F8  ........s178E"..
08F0: FF FF 7F F8 FF FF 7F 73  31 37 39 01 80 27 05 42  .......s179..'.B
0900: E3 10 01 03 27 05 F0 FF  FF 7F 05 1C 2E 80 4A 44  ....'.........JD
0910: E3 10 01 42 E3 10 01 1C  1F 80 27 05 F0 FF FF 7F  ...B......'.....
0920: 23 4A 45 E3 10 01 42 E3  10 01 1C 1F 80 6E 44 E3  #JE...B......nD.
0930: 10 01 52 80 99 44 E3 10  01 2B 44 E3 10 01 53 80  ..R..D...+D...S.
0940: 23 2A 05 42 E3 10 01 52  22 80 F8 FF FF 7F F8 FF  #*.B...R".......
0950: FF 7F 73 31 37 39 45 22  80 F8 FF FF 7F F8 FF FF  ..s179E"........
0960: 7F 73 31 38 30 01 80 66  3C 80 42 E3 10 01 42 E3  .s180..f<.B...B.
0970: 10 01 74 6C 6B 30 2B 42  E3 10 01 54 80 23 2B 42  ..tlk0+B...T.#+B
0980: E3 10 01 55 80 23 66 3C  80 42 E3 10 01 42 E3 10  ...U.#f<.B...B..
0990: 01 74 6C 6B 31 52 22 80  F8 FF FF 7F F8 FF FF 7F  .tlk1R".........
09A0: 73 31 38 30 45 22 80 F8  FF FF 7F F8 FF FF 7F 73  s180E".........s
09B0: 31 38 31 01 80 6E 44 E3  10 01 52 80 99 44 E3 10  181..nD...R..D..
09C0: 01 2B 44 E3 10 01 56 80  23 66 3C 80 42 E3 10 01  .+D...V.#f<.B...
09D0: 42 E3 10 01 74 6C 6B 30  2B 42 E3 10 01 57 80 23  B...tlk0+B...W.#
09E0: 66 3C 80 42 E3 10 01 42  E3 10 01 74 6C 6B 31 52  f<.B...B...tlk1R
09F0: 22 80 F8 FF FF 7F F8 FF  FF 7F 73 31 38 31 45 22  ".........s181E"
0A00: 80 F8 FF FF 7F F8 FF FF  7F 73 31 38 32 01 80 66  .........s182..f
0A10: 43 80 44 E3 10 01 44 E3  10 01 74 6C 6B 30 2B 44  C.D...D...tlk0+D
0A20: E3 10 01 58 80 23 66 43  80 44 E3 10 01 44 E3 10  ...X.#fC.D...D..
0A30: 01 74 6C 6B 31 52 22 80  F8 FF FF 7F F8 FF FF 7F  .tlk1R".........
0A40: 73 31 38 32 45 22 80 F8  FF FF 7F F8 FF FF 7F 73  s182E".........s
0A50: 31 38 33 01 80 73 59 80  44 E3 10 01 44 E3 10 01  183..sY.D...D...
0A60: 1C 1F 80 73 59 80 45 E3  10 01 45 E3 10 01 1C 00  ...sY.E...E.....
0A70: 80 52 22 80 F8 FF FF 7F  F8 FF FF 7F 73 31 38 33  .R".........s183
0A80: 45 22 80 F8 FF FF 7F F8  FF FF 7F 73 31 38 34 01  E".........s184.
0A90: 80 6E 42 E3 10 01 4D 80  99 42 E3 10 01 2B 42 E3  .nB...M..B...+B.
0AA0: 10 01 5A 80 23 52 22 80  F8 FF FF 7F F8 FF FF 7F  ..Z.#R".........
0AB0: 73 31 38 34 45 22 80 F8  FF FF 7F F8 FF FF 7F 73  s184E".........s
0AC0: 31 38 35 01 80 4A 42 E3  10 01 F0 FF FF 7F 1C 1F  185..JB.........
0AD0: 80 4A F0 FF FF 7F 42 E3  10 01 6E 42 E3 10 01 4B  .J....B...nB...K
0AE0: 80 99 42 E3 10 01 2B 42  E3 10 01 5B 80 23 66 3C  ..B...+B...[.#f<
0AF0: 80 42 E3 10 01 42 E3 10  01 74 68 6B 31 52 22 80  .B...B...thk1R".
0B00: F8 FF FF 7F F8 FF FF 7F  73 31 38 35 45 22 80 F8  ........s185E"..
0B10: FF FF 7F F8 FF FF 7F 73  31 38 36 01 80 2B 42 E3  .......s186..+B.
0B20: 10 01 5C 80 23 66 3C 80  42 E3 10 01 42 E3 10 01  ..\.#f<.B...B...
0B30: 74 68 6B 32 2B 42 E3 10  01 5D 80 23 45 00 80 F8  thk2+B...].#E...
0B40: FF FF 7F F8 FF FF 7F 66  64 6F 31 01 80 55 00 80  .......fdo1..U..
0B50: F8 FF FF 7F F8 FF FF 7F  66 64 6F 31 52 22 80 F8  ........fdo1R"..
0B60: FF FF 7F F8 FF FF 7F 73  31 38 36 5C 00 01 80 5C  .......s186\...\
0B70: 01 01 80 9A 46 00 45 00  80 F8 FF FF 7F F8 FF FF  ....F.E.........
0B80: 7F 66 64 69 32 01 80 21  00                       .fdi2..!.       
```

#### Opcodes

```
  0: 0x0001 [0x42] SET_CLI_EVENT_CANCEL_DATA()
  1: 0x0002 [0x45] LOAD_SCHEDULED_TASK: Load scheduler "fdo1" with entities [EventEntity, EventEntity], work=[200*, 0*]
  2: 0x0013 [0x55] WAIT_LOAD_SCHEDULER: Wait for scheduler "fdo1" with entities [EventEntity, EventEntity], work=200*
  3: 0x0022 [0x46] CAMERA_CONTROL: Disable user control
  4: 0x0024 [0x38] SET_CLIENT_EVENT_MODE(mode=19*)
  5: 0x0027 [0x2F] Nashu (ID: 17883970/0x0110E342)->Render.Flags0 &= ~0x80000 // Bit 19
  6: 0x002D [0x2F] Brezit-Kyorgul (ID: 17883974/0x0110E346)->Render.Flags0 &= ~0x80000 // Bit 19
  7: 0x0033 [0x2F] Soraa Ishakal (ID: 17883971/0x0110E343)->Render.Flags0 &= ~0x80000 // Bit 19
  8: 0x0039 [0x2F] Zunmimi (ID: 17883972/0x0110E344)->Render.Flags0 &= ~0x80000 // Bit 19
  9: 0x003F [0x2F] Melisandra (ID: 17883973/0x0110E345)->Render.Flags0 &= ~0x80000 // Bit 19
 10: 0x0045 [0x2F] Unnamed NPC (ID: 17883975/0x0110E347)->Render.Flags0 &= ~0x80000 // Bit 19
 11: 0x004B [0x4E] SET_ENTITY_HIDE_FLAG: Show Nashu (ID: 17883970/0x0110E342)
 12: 0x0051 [0x4E] SET_ENTITY_HIDE_FLAG: Show Brezit-Kyorgul (ID: 17883974/0x0110E346)
 13: 0x0057 [0x4E] SET_ENTITY_HIDE_FLAG: Show Unnamed NPC (ID: 17883975/0x0110E347)
 14: 0x005D [0x92] Nashu (ID: 17883970/0x0110E342)->Render.Flags3 ^= 0x01
 15: 0x0063 [0x92] Brezit-Kyorgul (ID: 17883974/0x0110E346)->Render.Flags3 ^= 0x01
 16: 0x0069 [0x92] Soraa Ishakal (ID: 17883971/0x0110E343)->Render.Flags3 ^= 0x01
 17: 0x006F [0x92] Zunmimi (ID: 17883972/0x0110E344)->Render.Flags3 ^= 0x01
 18: 0x0075 [0x92] Melisandra (ID: 17883973/0x0110E345)->Render.Flags3 ^= 0x01
 19: 0x007B [0x94] LocalPlayer->Render.Flags3 ^= 0x01
 20: 0x0081 [0x94] Nashu (ID: 17883970/0x0110E342)->Render.Flags3 ^= 0x01
 21: 0x0087 [0x94] Brezit-Kyorgul (ID: 17883974/0x0110E346)->Render.Flags3 ^= 0x01
 22: 0x008D [0x94] Soraa Ishakal (ID: 17883971/0x0110E343)->Render.Flags3 ^= 0x01
 23: 0x0093 [0x94] Zunmimi (ID: 17883972/0x0110E344)->Render.Flags3 ^= 0x01
 24: 0x0099 [0x94] Melisandra (ID: 17883973/0x0110E345)->Render.Flags3 ^= 0x01
 25: 0x009F [0x94] Unnamed NPC (ID: 17883975/0x0110E347)->Render.Flags3 ^= 0x01
 26: 0x00A5 [0xBA] SET_ENTITY_POSITION(entity_id=LocalPlayer, pos_x=-112.124*, pos_z=217.150*, pos_y=29.579*, direction=44.9°*)
 27: 0x00B2 [0xBA] SET_ENTITY_POSITION(entity_id=Nashu (ID: 17883970/0x0110E342), pos_x=-116.334*, pos_z=221.461*, pos_y=29.915*, direction=35.5°*)
 28: 0x00BF [0xBA] SET_ENTITY_POSITION(entity_id=Brezit-Kyorgul (ID: 17883974/0x0110E346), pos_x=-99.265*, pos_z=206.826*, pos_y=31.381*, direction=87.8°*)
 29: 0x00CC [0xBA] SET_ENTITY_POSITION(entity_id=Soraa Ishakal (ID: 17883971/0x0110E343), pos_x=-103.087*, pos_z=216.864*, pos_y=29.794*, direction=66.9°*)
 30: 0x00D9 [0xBA] SET_ENTITY_POSITION(entity_id=Zunmimi (ID: 17883972/0x0110E344), pos_x=-102.714*, pos_z=219.039*, pos_y=29.873*, direction=74.0°*)
 31: 0x00E6 [0xBA] SET_ENTITY_POSITION(entity_id=Melisandra (ID: 17883973/0x0110E345), pos_x=-104.043*, pos_z=218.365*, pos_y=29.926*, direction=58.6°*)
 32: 0x00F3 [0xBA] SET_ENTITY_POSITION(entity_id=Unnamed NPC (ID: 17883975/0x0110E347), pos_x=-100.266*, pos_z=209.668*, pos_y=31.153*, direction=74.5°*)
 33: 0x0100 [0x80] LOAD_WAIT(entity=LocalPlayer)
 34: 0x0105 [0x80] LOAD_WAIT(entity=Nashu (ID: 17883970/0x0110E342))
 35: 0x010A [0x80] LOAD_WAIT(entity=Brezit-Kyorgul (ID: 17883974/0x0110E346))
 36: 0x010F [0x80] LOAD_WAIT(entity=Unnamed NPC (ID: 17883975/0x0110E347))
 37: 0x0114 [0x1C] WAIT(30* ticks)
 38: 0x0117 [0x5B] LOAD_EXT_SCHEDULER: Load scheduler "mfl0" with entities [Unnamed NPC (ID: 17883975/0x0110E347), Unnamed NPC (ID: 17883975/0x0110E347)], work=3246*
 39: 0x0126 [0x5C] MUSIC_CONTROL: Set Idle (Day) music to song 61*
 40: 0x012A [0x5C] MUSIC_CONTROL: Set Idle (Night) music to song 61*
 41: 0x012E [0x9A] WAIT_MUSIC_SERVER()
 42: 0x012F [0x45] LOAD_SCHEDULED_TASK: Load scheduler "s151" with entities [EventEntity, EventEntity], work=[626*, 0*]
 43: 0x0140 [0x1C] WAIT(15* ticks)
 44: 0x0143 [0x45] LOAD_SCHEDULED_TASK: Load scheduler "fdi1" with entities [EventEntity, EventEntity], work=[200*, 0*]
 45: 0x0154 [0x55] WAIT_LOAD_SCHEDULER: Wait for scheduler "fdi1" with entities [EventEntity, EventEntity], work=200*
 46: 0x0163 [0x1C] WAIT(100* ticks)
 47: 0x0166 [0x27] REQ_SET(priority=0x05, entity_id=LocalPlayer, tag_num=0x04)
 48: 0x016D [0x1C] WAIT(20* ticks)
 49: 0x0170 [0x52] END_LOAD_SCHEDULER: End scheduler "s151" with entities [EventEntity, EventEntity], work=626*
 50: 0x017F [0x45] LOAD_SCHEDULED_TASK: Load scheduler "s152" with entities [EventEntity, EventEntity], work=[626*, 0*]
 51: 0x0190 [0x1C] WAIT(120* ticks)
 52: 0x0193 [0x27] REQ_SET(priority=0x05, entity_id=Nashu (ID: 17883970/0x0110E342), tag_num=0x02)
 53: 0x019A [0x1C] WAIT(15* ticks)
 54: 0x019D [0x52] END_LOAD_SCHEDULER: End scheduler "s152" with entities [EventEntity, EventEntity], work=626*
 55: 0x01AC [0x45] LOAD_SCHEDULED_TASK: Load scheduler "s153" with entities [EventEntity, EventEntity], work=[626*, 0*]
 56: 0x01BD [0x2B] Nashu (ID: 17883970/0x0110E342) [7877*]:
    → "(Pssst! <Player>!)"
 57: 0x01C4 [0x1C] WAIT(180* ticks)
 58: 0x01C7 [0x2B] Nashu (ID: 17883970/0x0110E342) [7878*]:
    → "(I knew you would come to help me in my time of need! And what timing you have--the harpies are not far off now.)"
 59: 0x01CE [0x23] WAIT_FOR_DIALOG_INTERACTION
 60: 0x01CF [0x2A] GET_REQ_LEVEL(level=5, entity_id=Nashu (ID: 17883970/0x0110E342))
 61: 0x01D5 [0x52] END_LOAD_SCHEDULER: End scheduler "s153" with entities [EventEntity, EventEntity], work=626*
 62: 0x01E4 [0x45] LOAD_SCHEDULED_TASK: Load scheduler "s154" with entities [EventEntity, EventEntity], work=[626*, 0*]
 63: 0x01F5 [0x4A] Brezit-Kyorgul (ID: 17883974/0x0110E346) looks at Nashu (ID: 17883970/0x0110E342)
 64: 0x01FE [0x2B] Brezit-Kyorgul (ID: 17883974/0x0110E346) [7879*]:
    → "Gwar... Air reek...of fur..."
 65: 0x0205 [0x23] WAIT_FOR_DIALOG_INTERACTION
 66: 0x0206 [0x52] END_LOAD_SCHEDULER: End scheduler "s154" with entities [EventEntity, EventEntity], work=626*
 67: 0x0215 [0x45] LOAD_SCHEDULED_TASK: Load scheduler "s155" with entities [EventEntity, EventEntity], work=[626*, 0*]
 68: 0x0226 [0x7C] Nashu (ID: 17883970/0x0110E342)->Render.Flags2 |= 0x00
 69: 0x022C [0x2B] Nashu (ID: 17883970/0x0110E342) [7880*]:
    → "(Is the time upon us...!?)"
 70: 0x0233 [0x23] WAIT_FOR_DIALOG_INTERACTION
 71: 0x0234 [0x7C] Nashu (ID: 17883970/0x0110E342)->Render.Flags2 |= 0x01
 72: 0x023A [0x52] END_LOAD_SCHEDULER: End scheduler "s155" with entities [EventEntity, EventEntity], work=626*
 73: 0x0249 [0x45] LOAD_SCHEDULED_TASK: Load scheduler "s156" with entities [EventEntity, EventEntity], work=[626*, 0*]
 74: 0x025A [0x27] REQ_SET(priority=0x05, entity_id=Brezit-Kyorgul (ID: 17883974/0x0110E346), tag_num=0x02)
 75: 0x0261 [0x1C] WAIT(150* ticks)
 76: 0x0264 [0x52] END_LOAD_SCHEDULER: End scheduler "s156" with entities [EventEntity, EventEntity], work=626*
 77: 0x0273 [0x45] LOAD_SCHEDULED_TASK: Load scheduler "s157" with entities [EventEntity, EventEntity], work=[626*, 0*]
 78: 0x0284 [0x79] Nashu (ID: 17883970/0x0110E342) looks at Unnamed NPC (ID: 17883975/0x0110E347) (Basic look)
 79: 0x028E [0x1C] WAIT(60* ticks)
 80: 0x0291 [0x7A] VM_CONTROL: Reset VM for Brezit-Kyorgul (ID: 17883974/0x0110E346)
 81: 0x0297 [0x4E] SET_ENTITY_HIDE_FLAG: Show Soraa Ishakal (ID: 17883971/0x0110E343)
 82: 0x029D [0x4E] SET_ENTITY_HIDE_FLAG: Show Zunmimi (ID: 17883972/0x0110E344)
 83: 0x02A3 [0x4E] SET_ENTITY_HIDE_FLAG: Show Melisandra (ID: 17883973/0x0110E345)
 84: 0x02A9 [0xBA] SET_ENTITY_POSITION(entity_id=Brezit-Kyorgul (ID: 17883974/0x0110E346), pos_x=-99.265*, pos_z=206.826*, pos_y=31.381*, direction=87.8°*)
 85: 0x02B6 [0x80] LOAD_WAIT(entity=Soraa Ishakal (ID: 17883971/0x0110E343))
 86: 0x02BB [0x80] LOAD_WAIT(entity=Zunmimi (ID: 17883972/0x0110E344))
 87: 0x02C0 [0x80] LOAD_WAIT(entity=Melisandra (ID: 17883973/0x0110E345))
 88: 0x02C5 [0x80] LOAD_WAIT(entity=Brezit-Kyorgul (ID: 17883974/0x0110E346))
 89: 0x02CA [0x4A] Brezit-Kyorgul (ID: 17883974/0x0110E346) looks at Nashu (ID: 17883970/0x0110E342)
 90: 0x02D3 [0x1C] WAIT(90* ticks)
 91: 0x02D6 [0x52] END_LOAD_SCHEDULER: End scheduler "s157" with entities [EventEntity, EventEntity], work=626*
 92: 0x02E5 [0x45] LOAD_SCHEDULED_TASK: Load scheduler "s158" with entities [EventEntity, EventEntity], work=[626*, 0*]
 93: 0x02F6 [0x2B] Soraa Ishakal (ID: 17883971/0x0110E343) [7881*]:
    → "I'm surprised you can smell anything at all with your paltrrry excuse for hygiene."
 94: 0x02FD [0x23] WAIT_FOR_DIALOG_INTERACTION
 95: 0x02FE [0x55] WAIT_LOAD_SCHEDULER: Wait for scheduler "s158" with entities [EventEntity, EventEntity], work=626*
 96: 0x030D [0x27] REQ_SET(priority=0x05, entity_id=Soraa Ishakal (ID: 17883971/0x0110E343), tag_num=0x03)
 97: 0x0314 [0x1C] WAIT(15* ticks)
 98: 0x0317 [0x27] REQ_SET(priority=0x05, entity_id=Zunmimi (ID: 17883972/0x0110E344), tag_num=0x02)
 99: 0x031E [0x1C] WAIT(15* ticks)
100: 0x0321 [0x27] REQ_SET(priority=0x05, entity_id=Melisandra (ID: 17883973/0x0110E345), tag_num=0x02)
101: 0x0328 [0x45] LOAD_SCHEDULED_TASK: Load scheduler "s159" with entities [EventEntity, EventEntity], work=[626*, 0*]
102: 0x0339 [0x4A] Brezit-Kyorgul (ID: 17883974/0x0110E346) looks at Soraa Ishakal (ID: 17883971/0x0110E343)
103: 0x0342 [0x1C] WAIT(30* ticks)
104: 0x0345 [0x2B] Brezit-Kyorgul (ID: 17883974/0x0110E346) [7882*]:
    → "Witches! Where thing you promise?"
105: 0x034C [0x23] WAIT_FOR_DIALOG_INTERACTION
106: 0x034D [0x2B] Soraa Ishakal (ID: 17883971/0x0110E343) [7883*]:
    → "Keep your skin on, rrrotbreath. It's right here."
107: 0x0354 [0x23] WAIT_FOR_DIALOG_INTERACTION
108: 0x0355 [0x2A] GET_REQ_LEVEL(level=5, entity_id=Soraa Ishakal (ID: 17883971/0x0110E343))
109: 0x035B [0x81] SET_ENTITY_BLINKING(blink_flag=0x00, entity=Soraa Ishakal (ID: 17883971/0x0110E343))
110: 0x0361 [0x5B] LOAD_EXT_SCHEDULER: Load scheduler "mfl1" with entities [Unnamed NPC (ID: 17883975/0x0110E347), Unnamed NPC (ID: 17883975/0x0110E347)], work=3246*
111: 0x0370 [0x66] LOAD_EXT_SCHEDULER_MAIN: Load scheduler "kiz0" with entities [Soraa Ishakal (ID: 17883971/0x0110E343), Soraa Ishakal (ID: 17883971/0x0110E343)], work=191*
112: 0x037F [0x52] END_LOAD_SCHEDULER: End scheduler "s159" with entities [EventEntity, EventEntity], work=626*
113: 0x038E [0x45] LOAD_SCHEDULED_TASK: Load scheduler "s160" with entities [EventEntity, EventEntity], work=[626*, 0*]
114: 0x039F [0x1C] WAIT(15* ticks)
115: 0x03A2 [0x5B] LOAD_EXT_SCHEDULER: Load scheduler "btl0" with entities [Brezit-Kyorgul (ID: 17883974/0x0110E346), Brezit-Kyorgul (ID: 17883974/0x0110E346)], work=3326*
116: 0x03B1 [0x53] WAIT_SCHEDULER_TASK: Wait for scheduler "mfl1" with entities [Unnamed NPC (ID: 17883975/0x0110E347), Unnamed NPC (ID: 17883975/0x0110E347)]
117: 0x03BE [0x5B] LOAD_EXT_SCHEDULER: Load scheduler "mfl2" with entities [Unnamed NPC (ID: 17883975/0x0110E347), Unnamed NPC (ID: 17883975/0x0110E347)], work=3246*
118: 0x03CD [0x66] LOAD_EXT_SCHEDULER_MAIN: Load scheduler "kiz1" with entities [Soraa Ishakal (ID: 17883971/0x0110E343), Soraa Ishakal (ID: 17883971/0x0110E343)], work=191*
119: 0x03DC [0x52] END_LOAD_SCHEDULER: End scheduler "s160" with entities [EventEntity, EventEntity], work=626*
120: 0x03EB [0x45] LOAD_SCHEDULED_TASK: Load scheduler "s161" with entities [EventEntity, EventEntity], work=[626*, 0*]
121: 0x03FC [0x2B] Brezit-Kyorgul (ID: 17883974/0x0110E346) [7884*]:
    → "Gwar...witches mock Velkk!"
122: 0x0403 [0x23] WAIT_FOR_DIALOG_INTERACTION
123: 0x0404 [0x2B] Brezit-Kyorgul (ID: 17883974/0x0110E346) [7885*]:
    → "This weed, not weapon! No hurt nobody!"
124: 0x040B [0x23] WAIT_FOR_DIALOG_INTERACTION
125: 0x040C [0x5B] LOAD_EXT_SCHEDULER: Load scheduler "bta0" with entities [Brezit-Kyorgul (ID: 17883974/0x0110E346), Brezit-Kyorgul (ID: 17883974/0x0110E346)], work=3386*
126: 0x041B [0x52] END_LOAD_SCHEDULER: End scheduler "s161" with entities [EventEntity, EventEntity], work=626*
127: 0x042A [0x45] LOAD_SCHEDULED_TASK: Load scheduler "s162" with entities [EventEntity, EventEntity], work=[626*, 0*]
128: 0x043B [0x2B] Brezit-Kyorgul (ID: 17883974/0x0110E346) [7886*]:
    → "Mligni-Vorgut, we goof! Trust no-scales, big goof!"
129: 0x0442 [0x23] WAIT_FOR_DIALOG_INTERACTION
130: 0x0443 [0x2B] Brezit-Kyorgul (ID: 17883974/0x0110E346) [7887*]:
    → "Double-cross Velkk mean die! Many hurt make die now!"
131: 0x044A [0x23] WAIT_FOR_DIALOG_INTERACTION
132: 0x044B [0x53] WAIT_SCHEDULER_TASK: Wait for scheduler "bta0" with entities [Brezit-Kyorgul (ID: 17883974/0x0110E346), Brezit-Kyorgul (ID: 17883974/0x0110E346)]
133: 0x0458 [0x52] END_LOAD_SCHEDULER: End scheduler "s162" with entities [EventEntity, EventEntity], work=626*
134: 0x0467 [0x45] LOAD_SCHEDULED_TASK: Load scheduler "s163" with entities [EventEntity, EventEntity], work=[626*, 0*]
135: 0x0478 [0x7B] Nashu (ID: 17883970/0x0110E342) stops talking
136: 0x047D [0x27] REQ_SET(priority=0x05, entity_id=Soraa Ishakal (ID: 17883971/0x0110E343), tag_num=0x02)
137: 0x0484 [0x1C] WAIT(90* ticks)
138: 0x0487 [0x52] END_LOAD_SCHEDULER: End scheduler "s163" with entities [EventEntity, EventEntity], work=626*
139: 0x0496 [0x45] LOAD_SCHEDULED_TASK: Load scheduler "s164" with entities [EventEntity, EventEntity], work=[626*, 0*]
140: 0x04A7 [0x5B] LOAD_EXT_SCHEDULER: Load scheduler "mfl3" with entities [Unnamed NPC (ID: 17883975/0x0110E347), Unnamed NPC (ID: 17883975/0x0110E347)], work=3246*
141: 0x04B6 [0x66] LOAD_EXT_SCHEDULER_MAIN: Load scheduler "kiz2" with entities [Soraa Ishakal (ID: 17883971/0x0110E343), Soraa Ishakal (ID: 17883971/0x0110E343)], work=191*
142: 0x04C5 [0x2B] Soraa Ishakal (ID: 17883971/0x0110E343) [7888*]:
    → "What may seem like an innocuous bulb to you morons actually contains the destrrructive powers of the snapweed."
143: 0x04CC [0x23] WAIT_FOR_DIALOG_INTERACTION
144: 0x04CD [0x2B] Soraa Ishakal (ID: 17883971/0x0110E343) [7889*]:
    → "Applying it to your weapons will make them strrretch like vines and dissolve armor with speed."
145: 0x04D4 [0x23] WAIT_FOR_DIALOG_INTERACTION
146: 0x04D5 [0x52] END_LOAD_SCHEDULER: End scheduler "s164" with entities [EventEntity, EventEntity], work=626*
147: 0x04E4 [0x45] LOAD_SCHEDULED_TASK: Load scheduler "s165" with entities [EventEntity, EventEntity], work=[626*, 0*]
148: 0x04F5 [0x2B] Soraa Ishakal (ID: 17883971/0x0110E343) [7890*]:
    → "The forest will be littered with the bodies of your foes, the rivers will rrrun red with their blood, and the sweet stench of Adoulinian fear will fill the air."
149: 0x04FC [0x23] WAIT_FOR_DIALOG_INTERACTION
150: 0x04FD [0x66] LOAD_EXT_SCHEDULER_MAIN: Load scheduler "sha0" with entities [Nashu (ID: 17883970/0x0110E342), Nashu (ID: 17883970/0x0110E342)], work=9*
151: 0x050C [0x5B] LOAD_EXT_SCHEDULER: Load scheduler "bta1" with entities [Brezit-Kyorgul (ID: 17883974/0x0110E346), Brezit-Kyorgul (ID: 17883974/0x0110E346)], work=3386*
152: 0x051B [0x52] END_LOAD_SCHEDULER: End scheduler "s165" with entities [EventEntity, EventEntity], work=626*
153: 0x052A [0x45] LOAD_SCHEDULED_TASK: Load scheduler "s166" with entities [EventEntity, EventEntity], work=[626*, 0*]
154: 0x053B [0x1C] WAIT(15* ticks)
155: 0x053E [0x81] SET_ENTITY_BLINKING(blink_flag=0x01, entity=Soraa Ishakal (ID: 17883971/0x0110E343))
156: 0x0544 [0x6B] STOP_AND_IDLE: Soraa Ishakal (ID: 17883971/0x0110E343) stops current action and resets to idle (animation="idl0")
157: 0x054D [0x4E] SET_ENTITY_HIDE_FLAG: Hide Unnamed NPC (ID: 17883975/0x0110E347)
158: 0x0553 [0x2B] Brezit-Kyorgul (ID: 17883974/0x0110E346) [7891*]:
    → "...Gwar."
159: 0x055A [0x23] WAIT_FOR_DIALOG_INTERACTION
160: 0x055B [0x52] END_LOAD_SCHEDULER: End scheduler "s166" with entities [EventEntity, EventEntity], work=626*
161: 0x056A [0x45] LOAD_SCHEDULED_TASK: Load scheduler "s167" with entities [EventEntity, EventEntity], work=[626*, 0*]
162: 0x057B [0x66] LOAD_EXT_SCHEDULER_MAIN: Load scheduler "tlk0" with entities [Soraa Ishakal (ID: 17883971/0x0110E343), Soraa Ishakal (ID: 17883971/0x0110E343)], work=59*
163: 0x058A [0x2B] Soraa Ishakal (ID: 17883971/0x0110E343) [7892*]:
    → "How do you plan on rrrouting them if you can't get through the city's defenses, though? Adoulin's walls aren't exactly made of twigs and mud like your hovels."
164: 0x0591 [0x23] WAIT_FOR_DIALOG_INTERACTION
165: 0x0592 [0x66] LOAD_EXT_SCHEDULER_MAIN: Load scheduler "tlk1" with entities [Soraa Ishakal (ID: 17883971/0x0110E343), Soraa Ishakal (ID: 17883971/0x0110E343)], work=59*
166: 0x05A1 [0x52] END_LOAD_SCHEDULER: End scheduler "s167" with entities [EventEntity, EventEntity], work=626*
167: 0x05B0 [0x45] LOAD_SCHEDULED_TASK: Load scheduler "s168" with entities [EventEntity, EventEntity], work=[626*, 0*]
168: 0x05C1 [0x5B] LOAD_EXT_SCHEDULER: Load scheduler "btk0" with entities [Brezit-Kyorgul (ID: 17883974/0x0110E346), Brezit-Kyorgul (ID: 17883974/0x0110E346)], work=3326*
169: 0x05D0 [0x2B] Brezit-Kyorgul (ID: 17883974/0x0110E346) [7893*]:
    → "Gwar! No-scales in woods die. Packmates in stone place no go woods. Velkk have all woods, Velkk have all food."
170: 0x05D7 [0x23] WAIT_FOR_DIALOG_INTERACTION
171: 0x05D8 [0x2B] Brezit-Kyorgul (ID: 17883974/0x0110E346) [7894*]:
    → "No food in stone place. No food, no live!"
172: 0x05DF [0x23] WAIT_FOR_DIALOG_INTERACTION
173: 0x05E0 [0x5B] LOAD_EXT_SCHEDULER: Load scheduler "btk1" with entities [Brezit-Kyorgul (ID: 17883974/0x0110E346), Brezit-Kyorgul (ID: 17883974/0x0110E346)], work=3326*
174: 0x05EF [0x52] END_LOAD_SCHEDULER: End scheduler "s168" with entities [EventEntity, EventEntity], work=626*
175: 0x05FE [0x45] LOAD_SCHEDULED_TASK: Load scheduler "s169" with entities [EventEntity, EventEntity], work=[626*, 0*]
176: 0x060F [0x66] LOAD_EXT_SCHEDULER_MAIN: Load scheduler "thk1" with entities [Soraa Ishakal (ID: 17883971/0x0110E343), Soraa Ishakal (ID: 17883971/0x0110E343)], work=59*
177: 0x061E [0x1C] WAIT(30* ticks)
178: 0x0621 [0x4A] Melisandra (ID: 17883973/0x0110E345) looks at Zunmimi (ID: 17883972/0x0110E344)
179: 0x062A [0x1C] WAIT(30* ticks)
180: 0x062D [0x2B] Soraa Ishakal (ID: 17883971/0x0110E343) [7895*]:
    → "...I see. So you wish to lay siege to the city and deprrrive them of food. An uncharacteristically wise option for someone so prrrimitive as yourself."
181: 0x0634 [0x23] WAIT_FOR_DIALOG_INTERACTION
182: 0x0635 [0x79] Zunmimi (ID: 17883972/0x0110E344) looks at Soraa Ishakal (ID: 17883971/0x0110E343) (Basic look)
183: 0x063F [0x66] LOAD_EXT_SCHEDULER_MAIN: Load scheduler "tlk0" with entities [Zunmimi (ID: 17883972/0x0110E344), Zunmimi (ID: 17883972/0x0110E344)], work=49*
184: 0x064E [0x2B] Zunmimi (ID: 17883972/0x0110E344) [7896*]:
    → "But, Sis, Adoulin's a portaru, so--"
185: 0x0655 [0x23] WAIT_FOR_DIALOG_INTERACTION
186: 0x0656 [0x66] LOAD_EXT_SCHEDULER_MAIN: Load scheduler "tlk1" with entities [Zunmimi (ID: 17883972/0x0110E344), Zunmimi (ID: 17883972/0x0110E344)], work=49*
187: 0x0665 [0x52] END_LOAD_SCHEDULER: End scheduler "s169" with entities [EventEntity, EventEntity], work=626*
188: 0x0674 [0x45] LOAD_SCHEDULED_TASK: Load scheduler "s170" with entities [EventEntity, EventEntity], work=[626*, 0*]
189: 0x0685 [0x66] LOAD_EXT_SCHEDULER_MAIN: Load scheduler "thk2" with entities [Soraa Ishakal (ID: 17883971/0x0110E343), Soraa Ishakal (ID: 17883971/0x0110E343)], work=59*
190: 0x0694 [0x2B] Melisandra (ID: 17883973/0x0110E345) [7897*]:
    → "Shut it."
191: 0x069B [0x23] WAIT_FOR_DIALOG_INTERACTION
192: 0x069C [0x79] Zunmimi (ID: 17883972/0x0110E344) looks at Melisandra (ID: 17883973/0x0110E345) (Basic look)
193: 0x06A6 [0x2B] Zunmimi (ID: 17883972/0x0110E344) [7898*]:
    → "Hmph."
194: 0x06AD [0x23] WAIT_FOR_DIALOG_INTERACTION
195: 0x06AE [0x52] END_LOAD_SCHEDULER: End scheduler "s170" with entities [EventEntity, EventEntity], work=626*
196: 0x06BD [0x45] LOAD_SCHEDULED_TASK: Load scheduler "s171" with entities [EventEntity, EventEntity], work=[626*, 0*]
197: 0x06CE [0x5B] LOAD_EXT_SCHEDULER: Load scheduler "btk0" with entities [Brezit-Kyorgul (ID: 17883974/0x0110E346), Brezit-Kyorgul (ID: 17883974/0x0110E346)], work=3326*
198: 0x06DD [0x4A] Melisandra (ID: 17883973/0x0110E345) looks at Brezit-Kyorgul (ID: 17883974/0x0110E346)
199: 0x06E6 [0x79] Zunmimi (ID: 17883972/0x0110E344) looks at Brezit-Kyorgul (ID: 17883974/0x0110E346) (Basic look)
200: 0x06F0 [0x2B] Brezit-Kyorgul (ID: 17883974/0x0110E346) [7899*]:
    → "Gwar. Words be wind. Show us you tongue-wag is truth. Make bulb pow-pow."
201: 0x06F7 [0x23] WAIT_FOR_DIALOG_INTERACTION
202: 0x06F8 [0x2B] Brezit-Kyorgul (ID: 17883974/0x0110E346) [7900*]:
    → "You. You make boom-boom-pow at Velkk sleep-place. Come."
203: 0x06FF [0x23] WAIT_FOR_DIALOG_INTERACTION
204: 0x0700 [0x5B] LOAD_EXT_SCHEDULER: Load scheduler "btk1" with entities [Brezit-Kyorgul (ID: 17883974/0x0110E346), Brezit-Kyorgul (ID: 17883974/0x0110E346)], work=3326*
205: 0x070F [0x52] END_LOAD_SCHEDULER: End scheduler "s171" with entities [EventEntity, EventEntity], work=626*
206: 0x071E [0x45] LOAD_SCHEDULED_TASK: Load scheduler "s172" with entities [EventEntity, EventEntity], work=[626*, 0*]
207: 0x072F [0x27] REQ_SET(priority=0x05, entity_id=Zunmimi (ID: 17883972/0x0110E344), tag_num=0x03)
208: 0x0736 [0x2B] Zunmimi (ID: 17883972/0x0110E344) [7901*]:
    → "If she's going-woing, then so are--"
209: 0x073D [0x23] WAIT_FOR_DIALOG_INTERACTION
210: 0x073E [0x5B] LOAD_EXT_SCHEDULER: Load scheduler "bta0" with entities [Brezit-Kyorgul (ID: 17883974/0x0110E346), Brezit-Kyorgul (ID: 17883974/0x0110E346)], work=3386*
211: 0x074D [0x2B] Brezit-Kyorgul (ID: 17883974/0x0110E346) [7902*]:
    → "You is one, not three! Two no belong!"
212: 0x0754 [0x23] WAIT_FOR_DIALOG_INTERACTION
213: 0x0755 [0x2A] GET_REQ_LEVEL(level=5, entity_id=Zunmimi (ID: 17883972/0x0110E344))
214: 0x075B [0x52] END_LOAD_SCHEDULER: End scheduler "s172" with entities [EventEntity, EventEntity], work=626*
215: 0x076A [0x45] LOAD_SCHEDULED_TASK: Load scheduler "s173" with entities [EventEntity, EventEntity], work=[626*, 0*]
216: 0x077B [0x79] Soraa Ishakal (ID: 17883971/0x0110E343) looks at Zunmimi (ID: 17883972/0x0110E344) (Basic look)
217: 0x0785 [0x1C] WAIT(60* ticks)
218: 0x0788 [0x79] Zunmimi (ID: 17883972/0x0110E344) looks at Soraa Ishakal (ID: 17883971/0x0110E343) (Basic look)
219: 0x0792 [0x6E] Soraa Ishakal (ID: 17883971/0x0110E343) uses emote 7*
220: 0x0799 [0x99] Wait for Soraa Ishakal (ID: 17883971/0x0110E343) animation to complete
221: 0x079E [0x6B] STOP_AND_IDLE: Brezit-Kyorgul (ID: 17883974/0x0110E346) stops current action and resets to idle (animation="idl0")
222: 0x07A7 [0x1C] WAIT(90* ticks)
223: 0x07AA [0x52] END_LOAD_SCHEDULER: End scheduler "s173" with entities [EventEntity, EventEntity], work=626*
224: 0x07B9 [0x45] LOAD_SCHEDULED_TASK: Load scheduler "s174" with entities [EventEntity, EventEntity], work=[626*, 0*]
225: 0x07CA [0x79] Zunmimi (ID: 17883972/0x0110E344) looks at Brezit-Kyorgul (ID: 17883974/0x0110E346) (Basic look)
226: 0x07D4 [0x1C] WAIT(30* ticks)
227: 0x07D7 [0x79] Soraa Ishakal (ID: 17883971/0x0110E343) looks at Brezit-Kyorgul (ID: 17883974/0x0110E346) (Basic look)
228: 0x07E1 [0x66] LOAD_EXT_SCHEDULER_MAIN: Load scheduler "tlk0" with entities [Zunmimi (ID: 17883972/0x0110E344), Zunmimi (ID: 17883972/0x0110E344)], work=49*
229: 0x07F0 [0x2B] Zunmimi (ID: 17883972/0x0110E344) [7903*]:
    → "Fine, fine... Do as you see fitaru."
230: 0x07F7 [0x23] WAIT_FOR_DIALOG_INTERACTION
231: 0x07F8 [0x66] LOAD_EXT_SCHEDULER_MAIN: Load scheduler "tlk1" with entities [Zunmimi (ID: 17883972/0x0110E344), Zunmimi (ID: 17883972/0x0110E344)], work=49*
232: 0x0807 [0x52] END_LOAD_SCHEDULER: End scheduler "s174" with entities [EventEntity, EventEntity], work=626*
233: 0x0816 [0x45] LOAD_SCHEDULED_TASK: Load scheduler "s175" with entities [EventEntity, EventEntity], work=[626*, 0*]
234: 0x0827 [0x27] REQ_SET(priority=0x05, entity_id=Brezit-Kyorgul (ID: 17883974/0x0110E346), tag_num=0x03)
235: 0x082E [0x1C] WAIT(15* ticks)
236: 0x0831 [0x27] REQ_SET(priority=0x05, entity_id=Soraa Ishakal (ID: 17883971/0x0110E343), tag_num=0x04)
237: 0x0838 [0x1C] WAIT(180* ticks)
238: 0x083B [0x52] END_LOAD_SCHEDULER: End scheduler "s175" with entities [EventEntity, EventEntity], work=626*
239: 0x084A [0x45] LOAD_SCHEDULED_TASK: Load scheduler "s176" with entities [EventEntity, EventEntity], work=[626*, 0*]
240: 0x085B [0x6E] Zunmimi (ID: 17883972/0x0110E344) uses emote 6*
241: 0x0862 [0x99] Wait for Zunmimi (ID: 17883972/0x0110E344) animation to complete
242: 0x0867 [0x2B] Zunmimi (ID: 17883972/0x0110E344) [7904*]:
    → "That's why I hate dealing with these meatheads...they always think mightaru equals rightaru."
243: 0x086E [0x23] WAIT_FOR_DIALOG_INTERACTION
244: 0x086F [0x4E] SET_ENTITY_HIDE_FLAG: Hide Brezit-Kyorgul (ID: 17883974/0x0110E346)
245: 0x0875 [0x4E] SET_ENTITY_HIDE_FLAG: Hide Soraa Ishakal (ID: 17883971/0x0110E343)
246: 0x087B [0x52] END_LOAD_SCHEDULER: End scheduler "s176" with entities [EventEntity, EventEntity], work=626*
247: 0x088A [0x45] LOAD_SCHEDULED_TASK: Load scheduler "s177" with entities [EventEntity, EventEntity], work=[626*, 0*]
248: 0x089B [0x2B] Nashu (ID: 17883970/0x0110E342) [7905*]:
    → "What the..."
249: 0x08A2 [0x23] WAIT_FOR_DIALOG_INTERACTION
250: 0x08A3 [0x66] LOAD_EXT_SCHEDULER_MAIN: Load scheduler "sha1" with entities [Nashu (ID: 17883970/0x0110E342), Nashu (ID: 17883970/0x0110E342)], work=9*
251: 0x08B2 [0x1C] WAIT(10* ticks)
252: 0x08B5 [0x52] END_LOAD_SCHEDULER: End scheduler "s177" with entities [EventEntity, EventEntity], work=626*
253: 0x08C4 [0x45] LOAD_SCHEDULED_TASK: Load scheduler "s178" with entities [EventEntity, EventEntity], work=[626*, 0*]
254: 0x08D5 [0x2B] Nashu (ID: 17883970/0x0110E342) [7906*]:
    → "How dare you...!"
255: 0x08DC [0x23] WAIT_FOR_DIALOG_INTERACTION
256: 0x08DD [0x55] WAIT_LOAD_SCHEDULER: Wait for scheduler "s178" with entities [EventEntity, EventEntity], work=626*
257: 0x08EC [0x45] LOAD_SCHEDULED_TASK: Load scheduler "s179" with entities [EventEntity, EventEntity], work=[626*, 0*]
258: 0x08FD [0x27] REQ_SET(priority=0x05, entity_id=Nashu (ID: 17883970/0x0110E342), tag_num=0x03)
259: 0x0904 [0x27] REQ_SET(priority=0x05, entity_id=LocalPlayer, tag_num=0x05)
260: 0x090B [0x1C] WAIT(90* ticks)
261: 0x090E [0x4A] Zunmimi (ID: 17883972/0x0110E344) looks at Nashu (ID: 17883970/0x0110E342)
262: 0x0917 [0x1C] WAIT(30* ticks)
263: 0x091A [0x27] REQ_SET(priority=0x05, entity_id=LocalPlayer, tag_num=0x23)
264: 0x0921 [0x4A] Melisandra (ID: 17883973/0x0110E345) looks at Nashu (ID: 17883970/0x0110E342)
265: 0x092A [0x1C] WAIT(30* ticks)
266: 0x092D [0x6E] Zunmimi (ID: 17883972/0x0110E344) uses emote 22*
267: 0x0934 [0x99] Wait for Zunmimi (ID: 17883972/0x0110E344) animation to complete
268: 0x0939 [0x2B] Zunmimi (ID: 17883972/0x0110E344) [7907*]:
    → "Welly, welly, welly, welly, welly, welly, well! To what do we owe the extreme pleasure of this surprising visitaru from you super sleuths?"
269: 0x0940 [0x23] WAIT_FOR_DIALOG_INTERACTION
270: 0x0941 [0x2A] GET_REQ_LEVEL(level=5, entity_id=Nashu (ID: 17883970/0x0110E342))
271: 0x0947 [0x52] END_LOAD_SCHEDULER: End scheduler "s179" with entities [EventEntity, EventEntity], work=626*
272: 0x0956 [0x45] LOAD_SCHEDULED_TASK: Load scheduler "s180" with entities [EventEntity, EventEntity], work=[626*, 0*]
273: 0x0967 [0x66] LOAD_EXT_SCHEDULER_MAIN: Load scheduler "tlk0" with entities [Nashu (ID: 17883970/0x0110E342), Nashu (ID: 17883970/0x0110E342)], work=9*
274: 0x0976 [0x2B] Nashu (ID: 17883970/0x0110E342) [7908*]:
    → "The Velkk have committed innumerable atrocities against our people!"
275: 0x097D [0x23] WAIT_FOR_DIALOG_INTERACTION
276: 0x097E [0x2B] Nashu (ID: 17883970/0x0110E342) [7909*]:
    → "What sort of grudge could you possibly have against us to conspire with those snaggletoothed savages!?"
277: 0x0985 [0x23] WAIT_FOR_DIALOG_INTERACTION
278: 0x0986 [0x66] LOAD_EXT_SCHEDULER_MAIN: Load scheduler "tlk1" with entities [Nashu (ID: 17883970/0x0110E342), Nashu (ID: 17883970/0x0110E342)], work=9*
279: 0x0995 [0x52] END_LOAD_SCHEDULER: End scheduler "s180" with entities [EventEntity, EventEntity], work=626*
280: 0x09A4 [0x45] LOAD_SCHEDULED_TASK: Load scheduler "s181" with entities [EventEntity, EventEntity], work=[626*, 0*]
281: 0x09B5 [0x6E] Zunmimi (ID: 17883972/0x0110E344) uses emote 22*
282: 0x09BC [0x99] Wait for Zunmimi (ID: 17883972/0x0110E344) animation to complete
283: 0x09C1 [0x2B] Zunmimi (ID: 17883972/0x0110E344) [7910*]:
    → "Why, none at all. It's simply that the ends justarufy the means."
284: 0x09C8 [0x23] WAIT_FOR_DIALOG_INTERACTION
285: 0x09C9 [0x66] LOAD_EXT_SCHEDULER_MAIN: Load scheduler "tlk0" with entities [Nashu (ID: 17883970/0x0110E342), Nashu (ID: 17883970/0x0110E342)], work=9*
286: 0x09D8 [0x2B] Nashu (ID: 17883970/0x0110E342) [7911*]:
    → "So, you care not a whit if hundreds or thousands of Adoulinian citizens are injured or killed as long as you get what you want!?"
287: 0x09DF [0x23] WAIT_FOR_DIALOG_INTERACTION
288: 0x09E0 [0x66] LOAD_EXT_SCHEDULER_MAIN: Load scheduler "tlk1" with entities [Nashu (ID: 17883970/0x0110E342), Nashu (ID: 17883970/0x0110E342)], work=9*
289: 0x09EF [0x52] END_LOAD_SCHEDULER: End scheduler "s181" with entities [EventEntity, EventEntity], work=626*
290: 0x09FE [0x45] LOAD_SCHEDULED_TASK: Load scheduler "s182" with entities [EventEntity, EventEntity], work=[626*, 0*]
291: 0x0A0F [0x66] LOAD_EXT_SCHEDULER_MAIN: Load scheduler "tlk0" with entities [Zunmimi (ID: 17883972/0x0110E344), Zunmimi (ID: 17883972/0x0110E344)], work=49*
292: 0x0A1E [0x2B] Zunmimi (ID: 17883972/0x0110E344) [7912*]:
    → "Oh, is this how it's going to be? Sorry, but we have more importantaru things to do than listen to the ravings of another ignorant zealot. Farewell."
293: 0x0A25 [0x23] WAIT_FOR_DIALOG_INTERACTION
294: 0x0A26 [0x66] LOAD_EXT_SCHEDULER_MAIN: Load scheduler "tlk1" with entities [Zunmimi (ID: 17883972/0x0110E344), Zunmimi (ID: 17883972/0x0110E344)], work=49*
295: 0x0A35 [0x52] END_LOAD_SCHEDULER: End scheduler "s182" with entities [EventEntity, EventEntity], work=626*
296: 0x0A44 [0x45] LOAD_SCHEDULED_TASK: Load scheduler "s183" with entities [EventEntity, EventEntity], work=[626*, 0*]
297: 0x0A55 [0x73] Zunmimi (ID: 17883972/0x0110E344) casts magic 264* on Zunmimi (ID: 17883972/0x0110E344)
298: 0x0A60 [0x1C] WAIT(30* ticks)
299: 0x0A63 [0x73] Melisandra (ID: 17883973/0x0110E345) casts magic 264* on Melisandra (ID: 17883973/0x0110E345)
300: 0x0A6E [0x1C] WAIT(200* ticks)
301: 0x0A71 [0x52] END_LOAD_SCHEDULER: End scheduler "s183" with entities [EventEntity, EventEntity], work=626*
302: 0x0A80 [0x45] LOAD_SCHEDULED_TASK: Load scheduler "s184" with entities [EventEntity, EventEntity], work=[626*, 0*]
303: 0x0A91 [0x6E] Nashu (ID: 17883970/0x0110E342) uses emote 6*
304: 0x0A98 [0x99] Wait for Nashu (ID: 17883970/0x0110E342) animation to complete
305: 0x0A9D [0x2B] Nashu (ID: 17883970/0x0110E342) [7913*]:
    → "Damn it..."
306: 0x0AA4 [0x23] WAIT_FOR_DIALOG_INTERACTION
307: 0x0AA5 [0x52] END_LOAD_SCHEDULER: End scheduler "s184" with entities [EventEntity, EventEntity], work=626*
308: 0x0AB4 [0x45] LOAD_SCHEDULED_TASK: Load scheduler "s185" with entities [EventEntity, EventEntity], work=[626*, 0*]
309: 0x0AC5 [0x4A] Nashu (ID: 17883970/0x0110E342) looks at LocalPlayer
310: 0x0ACE [0x1C] WAIT(30* ticks)
311: 0x0AD1 [0x4A] LocalPlayer looks at Nashu (ID: 17883970/0x0110E342)
312: 0x0ADA [0x6E] Nashu (ID: 17883970/0x0110E342) uses emote 7*
313: 0x0AE1 [0x99] Wait for Nashu (ID: 17883970/0x0110E342) animation to complete
314: 0x0AE6 [0x2B] Nashu (ID: 17883970/0x0110E342) [7914*]:
    → "<Player>, it is our sworn duty as part of Altana's legion to reclaim that ominous bulb!"
315: 0x0AED [0x23] WAIT_FOR_DIALOG_INTERACTION
316: 0x0AEE [0x66] LOAD_EXT_SCHEDULER_MAIN: Load scheduler "thk1" with entities [Nashu (ID: 17883970/0x0110E342), Nashu (ID: 17883970/0x0110E342)], work=9*
317: 0x0AFD [0x52] END_LOAD_SCHEDULER: End scheduler "s185" with entities [EventEntity, EventEntity], work=626*
318: 0x0B0C [0x45] LOAD_SCHEDULED_TASK: Load scheduler "s186" with entities [EventEntity, EventEntity], work=[626*, 0*]
319: 0x0B1D [0x2B] Nashu (ID: 17883970/0x0110E342) [7915*]:
    → "Though their words were barely intelligible, I remember hearing something about a "sleep-place"..."
320: 0x0B24 [0x23] WAIT_FOR_DIALOG_INTERACTION
321: 0x0B25 [0x66] LOAD_EXT_SCHEDULER_MAIN: Load scheduler "thk2" with entities [Nashu (ID: 17883970/0x0110E342), Nashu (ID: 17883970/0x0110E342)], work=9*
322: 0x0B34 [0x2B] Nashu (ID: 17883970/0x0110E342) [7916*]:
    → "My guess is they left for $7. May the Goddess's guiding light grant us safe passage there."
323: 0x0B3B [0x23] WAIT_FOR_DIALOG_INTERACTION
324: 0x0B3C [0x45] LOAD_SCHEDULED_TASK: Load scheduler "fdo1" with entities [EventEntity, EventEntity], work=[200*, 0*]
325: 0x0B4D [0x55] WAIT_LOAD_SCHEDULER: Wait for scheduler "fdo1" with entities [EventEntity, EventEntity], work=200*
326: 0x0B5C [0x52] END_LOAD_SCHEDULER: End scheduler "s186" with entities [EventEntity, EventEntity], work=626*
327: 0x0B6B [0x5C] MUSIC_CONTROL: Set Idle (Day) music to song 0*
328: 0x0B6F [0x5C] MUSIC_CONTROL: Set Idle (Night) music to song 0*
329: 0x0B73 [0x9A] WAIT_MUSIC_SERVER()
330: 0x0B74 [0x46] CAMERA_CONTROL: Restore default settings
331: 0x0B76 [0x45] LOAD_SCHEDULED_TASK: Load scheduler "fdi2" with entities [EventEntity, EventEntity], work=[200*, 0*]
332: 0x0B87 [0x21] END_EVENT
333: 0x0B88 [0x00] END_REQSTACK()
```

### Event 28

#### Metadata

| Field        | Value     |
|--------------|-----------|
| Entrypoint   | 0x0B89    |
| Data Size    | 253 bytes |
| Instructions | 30        |

```
      00 01 02 03 04 05 06 07  08 09 0A 0B 0C 0D 0E 0F
      -- -- -- -- -- -- -- --  -- -- -- -- -- -- -- --
0B80:                             42 45 00 80 F8 FF FF           BE.....
0B90: 7F F8 FF FF 7F 66 64 6F  31 01 80 55 00 80 F8 FF  .....fdo1..U....
0BA0: FF 7F F8 FF FF 7F 66 64  6F 31 46 01 38 02 80 2F  ......fdo1F.8../
0BB0: 00 42 E3 10 01 4E 00 42  E3 10 01 92 01 42 E3 10  .B...N.B.....B..
0BC0: 01 94 01 F0 FF FF 7F 94  01 42 E3 10 01 BA F0 FF  .........B......
0BD0: FF 7F 5E 80 5F 80 60 80  06 80 BA 42 E3 10 01 61  ..^._.`....B...a
0BE0: 80 62 80 63 80 06 80 80  F0 FF FF 7F 80 42 E3 10  .b.c.........B..
0BF0: 01 4A 42 E3 10 01 F0 FF  FF 7F 4A F0 FF FF 7F 42  .JB.......J....B
0C00: E3 10 01 1C 1F 80 45 22  80 F8 FF FF 7F F8 FF FF  ......E"........
0C10: 7F 73 31 38 37 01 80 1C  64 80 45 00 80 F8 FF FF  .s187...d.E.....
0C20: 7F F8 FF FF 7F 66 64 69  31 01 80 66 3C 80 42 E3  .....fdi1..f<.B.
0C30: 10 01 42 E3 10 01 74 6C  6B 30 2B 42 E3 10 01 65  ..B...tlk0+B...e
0C40: 80 23 45 00 80 F8 FF FF  7F F8 FF FF 7F 66 64 6F  .#E..........fdo
0C50: 31 01 80 55 00 80 F8 FF  FF 7F F8 FF FF 7F 66 64  1..U..........fd
0C60: 6F 31 52 22 80 F8 FF FF  7F F8 FF FF 7F 73 31 38  o1R".........s18
0C70: 37 46 00 45 00 80 F8 FF  FF 7F F8 FF FF 7F 66 64  7F.E..........fd
0C80: 69 32 01 80 21 00                                 i2..!.          
```

#### Opcodes

```
  0: 0x0B89 [0x42] SET_CLI_EVENT_CANCEL_DATA()
  1: 0x0B8A [0x45] LOAD_SCHEDULED_TASK: Load scheduler "fdo1" with entities [EventEntity, EventEntity], work=[200*, 0*]
  2: 0x0B9B [0x55] WAIT_LOAD_SCHEDULER: Wait for scheduler "fdo1" with entities [EventEntity, EventEntity], work=200*
  3: 0x0BAA [0x46] CAMERA_CONTROL: Disable user control
  4: 0x0BAC [0x38] SET_CLIENT_EVENT_MODE(mode=19*)
  5: 0x0BAF [0x2F] Nashu (ID: 17883970/0x0110E342)->Render.Flags0 &= ~0x80000 // Bit 19
  6: 0x0BB5 [0x4E] SET_ENTITY_HIDE_FLAG: Show Nashu (ID: 17883970/0x0110E342)
  7: 0x0BBB [0x92] Nashu (ID: 17883970/0x0110E342)->Render.Flags3 ^= 0x01
  8: 0x0BC1 [0x94] LocalPlayer->Render.Flags3 ^= 0x01
  9: 0x0BC7 [0x94] Nashu (ID: 17883970/0x0110E342)->Render.Flags3 ^= 0x01
 10: 0x0BCD [0xBA] SET_ENTITY_POSITION(entity_id=LocalPlayer, pos_x=-116.552*, pos_z=219.671*, pos_y=29.849*, direction=44.9°*)
 11: 0x0BDA [0xBA] SET_ENTITY_POSITION(entity_id=Nashu (ID: 17883970/0x0110E342), pos_x=-113.964*, pos_z=220.849*, pos_y=29.895*, direction=44.9°*)
 12: 0x0BE7 [0x80] LOAD_WAIT(entity=LocalPlayer)
 13: 0x0BEC [0x80] LOAD_WAIT(entity=Nashu (ID: 17883970/0x0110E342))
 14: 0x0BF1 [0x4A] Nashu (ID: 17883970/0x0110E342) looks at LocalPlayer
 15: 0x0BFA [0x4A] LocalPlayer looks at Nashu (ID: 17883970/0x0110E342)
 16: 0x0C03 [0x1C] WAIT(30* ticks)
 17: 0x0C06 [0x45] LOAD_SCHEDULED_TASK: Load scheduler "s187" with entities [EventEntity, EventEntity], work=[626*, 0*]
 18: 0x0C17 [0x1C] WAIT(25* ticks)
 19: 0x0C1A [0x45] LOAD_SCHEDULED_TASK: Load scheduler "fdi1" with entities [EventEntity, EventEntity], work=[200*, 0*]
 20: 0x0C2B [0x66] LOAD_EXT_SCHEDULER_MAIN: Load scheduler "tlk0" with entities [Nashu (ID: 17883970/0x0110E342), Nashu (ID: 17883970/0x0110E342)], work=9*
 21: 0x0C3A [0x2B] Nashu (ID: 17883970/0x0110E342) [7917*]:
    → "Let us tarry no longer...to $7!"
 22: 0x0C41 [0x23] WAIT_FOR_DIALOG_INTERACTION
 23: 0x0C42 [0x45] LOAD_SCHEDULED_TASK: Load scheduler "fdo1" with entities [EventEntity, EventEntity], work=[200*, 0*]
 24: 0x0C53 [0x55] WAIT_LOAD_SCHEDULER: Wait for scheduler "fdo1" with entities [EventEntity, EventEntity], work=200*
 25: 0x0C62 [0x52] END_LOAD_SCHEDULER: End scheduler "s187" with entities [EventEntity, EventEntity], work=626*
 26: 0x0C71 [0x46] CAMERA_CONTROL: Restore default settings
 27: 0x0C73 [0x45] LOAD_SCHEDULED_TASK: Load scheduler "fdi2" with entities [EventEntity, EventEntity], work=[200*, 0*]
 28: 0x0C84 [0x21] END_EVENT
 29: 0x0C85 [0x00] END_REQSTACK()
```

### Event 32

#### Metadata

| Field        | Value     |
|--------------|-----------|
| Entrypoint   | 0x0C86    |
| Data Size    | 404 bytes |
| Instructions | 47        |

```
      00 01 02 03 04 05 06 07  08 09 0A 0B 0C 0D 0E 0F
      -- -- -- -- -- -- -- --  -- -- -- -- -- -- -- --
0C80:                   42 45  00 80 F8 FF FF 7F F8 FF        BE........
0C90: FF 7F 66 64 6F 31 01 80  55 00 80 F8 FF FF 7F F8  ..fdo1..U.......
0CA0: FF FF 7F 66 64 6F 31 46  01 38 02 80 2F 00 42 E3  ...fdo1F.8../.B.
0CB0: 10 01 2F 00 49 E3 10 01  4E 00 42 E3 10 01 4E 00  ../.I...N.B...N.
0CC0: F0 FF FF 7F 92 01 42 E3  10 01 92 01 49 E3 10 01  ......B.....I...
0CD0: 94 01 F0 FF FF 7F 94 01  42 E3 10 01 94 01 49 E3  ........B.....I.
0CE0: 10 01 BA F0 FF FF 7F 66  80 67 80 68 80 69 80 BA  .......f.g.h.i..
0CF0: 42 E3 10 01 6A 80 6B 80  6C 80 6D 80 BA 49 E3 10  B...j.k.l.m..I..
0D00: 01 6A 80 6B 80 6C 80 6D  80 80 F0 FF FF 7F 80 42  .j.k.l.m.......B
0D10: E3 10 01 4A F0 FF FF 7F  42 E3 10 01 27 05 42 E3  ...J....B...'.B.
0D20: 10 01 06 45 6E 80 F8 FF  FF 7F F8 FF FF 7F 73 31  ...En.........s1
0D30: 34 37 01 80 1C 23 80 45  00 80 F8 FF FF 7F F8 FF  47...#.E........
0D40: FF 7F 66 64 69 31 01 80  2B 42 E3 10 01 6F 80 23  ..fdi1..+B...o.#
0D50: 2A 05 42 E3 10 01 52 6E  80 F8 FF FF 7F F8 FF FF  *.B...Rn........
0D60: 7F 73 31 34 37 45 6E 80  F8 FF FF 7F F8 FF FF 7F  .s147En.........
0D70: 73 31 34 38 01 80 66 3C  80 42 E3 10 01 42 E3 10  s148..f<.B...B..
0D80: 01 74 6C 6B 30 2B 42 E3  10 01 70 80 23 66 3C 80  .tlk0+B...p.#f<.
0D90: 42 E3 10 01 42 E3 10 01  74 6C 6B 31 52 6E 80 F8  B...B...tlk1Rn..
0DA0: FF FF 7F F8 FF FF 7F 73  31 34 38 45 6E 80 F8 FF  .......s148En...
0DB0: FF 7F F8 FF FF 7F 73 31  34 39 01 80 4E 00 49 E3  ......s149..N.I.
0DC0: 10 01 27 05 42 E3 10 01  07 1C 23 80 27 05 F0 FF  ..'.B.....#.'...
0DD0: FF 7F 24 1C 2C 80 45 00  80 F8 FF FF 7F F8 FF FF  ..$.,.E.........
0DE0: 7F 66 64 6F 31 01 80 55  00 80 F8 FF FF 7F F8 FF  .fdo1..U........
0DF0: FF 7F 66 64 6F 31 52 6E  80 F8 FF FF 7F F8 FF FF  ..fdo1Rn........
0E00: 7F 73 31 34 39 46 00 45  00 80 F8 FF FF 7F F8 FF  .s149F.E........
0E10: FF 7F 66 64 69 32 01 80  21 00                    ..fdi2..!.      
```

#### Opcodes

```
  0: 0x0C86 [0x42] SET_CLI_EVENT_CANCEL_DATA()
  1: 0x0C87 [0x45] LOAD_SCHEDULED_TASK: Load scheduler "fdo1" with entities [EventEntity, EventEntity], work=[200*, 0*]
  2: 0x0C98 [0x55] WAIT_LOAD_SCHEDULER: Wait for scheduler "fdo1" with entities [EventEntity, EventEntity], work=200*
  3: 0x0CA7 [0x46] CAMERA_CONTROL: Disable user control
  4: 0x0CA9 [0x38] SET_CLIENT_EVENT_MODE(mode=19*)
  5: 0x0CAC [0x2F] Nashu (ID: 17883970/0x0110E342)->Render.Flags0 &= ~0x80000 // Bit 19
  6: 0x0CB2 [0x2F] Araustoix (ID: 17883977/0x0110E349)->Render.Flags0 &= ~0x80000 // Bit 19
  7: 0x0CB8 [0x4E] SET_ENTITY_HIDE_FLAG: Show Nashu (ID: 17883970/0x0110E342)
  8: 0x0CBE [0x4E] SET_ENTITY_HIDE_FLAG: Show LocalPlayer
  9: 0x0CC4 [0x92] Nashu (ID: 17883970/0x0110E342)->Render.Flags3 ^= 0x01
 10: 0x0CCA [0x92] Araustoix (ID: 17883977/0x0110E349)->Render.Flags3 ^= 0x01
 11: 0x0CD0 [0x94] LocalPlayer->Render.Flags3 ^= 0x01
 12: 0x0CD6 [0x94] Nashu (ID: 17883970/0x0110E342)->Render.Flags3 ^= 0x01
 13: 0x0CDC [0x94] Araustoix (ID: 17883977/0x0110E349)->Render.Flags3 ^= 0x01
 14: 0x0CE2 [0xBA] SET_ENTITY_POSITION(entity_id=LocalPlayer, pos_x=422.606*, pos_z=-269.962*, pos_y=39.745*, direction=108.3°*)
 15: 0x0CEF [0xBA] SET_ENTITY_POSITION(entity_id=Nashu (ID: 17883970/0x0110E342), pos_x=420.225*, pos_z=-276.695*, pos_y=39.981*, direction=270.1°*)
 16: 0x0CFC [0xBA] SET_ENTITY_POSITION(entity_id=Araustoix (ID: 17883977/0x0110E349), pos_x=420.225*, pos_z=-276.695*, pos_y=39.981*, direction=270.1°*)
 17: 0x0D09 [0x80] LOAD_WAIT(entity=LocalPlayer)
 18: 0x0D0E [0x80] LOAD_WAIT(entity=Nashu (ID: 17883970/0x0110E342))
 19: 0x0D13 [0x4A] LocalPlayer looks at Nashu (ID: 17883970/0x0110E342)
 20: 0x0D1C [0x27] REQ_SET(priority=0x05, entity_id=Nashu (ID: 17883970/0x0110E342), tag_num=0x06)
 21: 0x0D23 [0x45] LOAD_SCHEDULED_TASK: Load scheduler "s147" with entities [EventEntity, EventEntity], work=[741*, 0*]
 22: 0x0D34 [0x1C] WAIT(15* ticks)
 23: 0x0D37 [0x45] LOAD_SCHEDULED_TASK: Load scheduler "fdi1" with entities [EventEntity, EventEntity], work=[200*, 0*]
 24: 0x0D48 [0x2B] Nashu (ID: 17883970/0x0110E342) [7918*]:
    → "<Player>! There you are! You've got what Soraa wanted, right?"
 25: 0x0D4F [0x23] WAIT_FOR_DIALOG_INTERACTION
 26: 0x0D50 [0x2A] GET_REQ_LEVEL(level=5, entity_id=Nashu (ID: 17883970/0x0110E342))
 27: 0x0D56 [0x52] END_LOAD_SCHEDULER: End scheduler "s147" with entities [EventEntity, EventEntity], work=741*
 28: 0x0D65 [0x45] LOAD_SCHEDULED_TASK: Load scheduler "s148" with entities [EventEntity, EventEntity], work=[741*, 0*]
 29: 0x0D76 [0x66] LOAD_EXT_SCHEDULER_MAIN: Load scheduler "tlk0" with entities [Nashu (ID: 17883970/0x0110E342), Nashu (ID: 17883970/0x0110E342)], work=9*
 30: 0x0D85 [0x2B] Nashu (ID: 17883970/0x0110E342) [7919*]:
    → "They said they'd be waiting for us around K-7. We've got to hurry!"
 31: 0x0D8C [0x23] WAIT_FOR_DIALOG_INTERACTION
 32: 0x0D8D [0x66] LOAD_EXT_SCHEDULER_MAIN: Load scheduler "tlk1" with entities [Nashu (ID: 17883970/0x0110E342), Nashu (ID: 17883970/0x0110E342)], work=9*
 33: 0x0D9C [0x52] END_LOAD_SCHEDULER: End scheduler "s148" with entities [EventEntity, EventEntity], work=741*
 34: 0x0DAB [0x45] LOAD_SCHEDULED_TASK: Load scheduler "s149" with entities [EventEntity, EventEntity], work=[741*, 0*]
 35: 0x0DBC [0x4E] SET_ENTITY_HIDE_FLAG: Show Araustoix (ID: 17883977/0x0110E349)
 36: 0x0DC2 [0x27] REQ_SET(priority=0x05, entity_id=Nashu (ID: 17883970/0x0110E342), tag_num=0x07)
 37: 0x0DC9 [0x1C] WAIT(15* ticks)
 38: 0x0DCC [0x27] REQ_SET(priority=0x05, entity_id=LocalPlayer, tag_num=0x24)
 39: 0x0DD3 [0x1C] WAIT(150* ticks)
 40: 0x0DD6 [0x45] LOAD_SCHEDULED_TASK: Load scheduler "fdo1" with entities [EventEntity, EventEntity], work=[200*, 0*]
 41: 0x0DE7 [0x55] WAIT_LOAD_SCHEDULER: Wait for scheduler "fdo1" with entities [EventEntity, EventEntity], work=200*
 42: 0x0DF6 [0x52] END_LOAD_SCHEDULER: End scheduler "s149" with entities [EventEntity, EventEntity], work=741*
 43: 0x0E05 [0x46] CAMERA_CONTROL: Restore default settings
 44: 0x0E07 [0x45] LOAD_SCHEDULED_TASK: Load scheduler "fdi2" with entities [EventEntity, EventEntity], work=[200*, 0*]
 45: 0x0E18 [0x21] END_EVENT
 46: 0x0E19 [0x00] END_REQSTACK()
```

### Event 33

#### Metadata

| Field        | Value      |
|--------------|------------|
| Entrypoint   | 0x0E1A     |
| Data Size    | 7917 bytes |
| Instructions | 875        |

```
      00 01 02 03 04 05 06 07  08 09 0A 0B 0C 0D 0E 0F
      -- -- -- -- -- -- -- --  -- -- -- -- -- -- -- --
0E10:                                42 45 00 80 F8 FF            BE....
0E20: FF 7F F8 FF FF 7F 66 64  6F 31 01 80 55 00 80 F8  ......fdo1..U...
0E30: FF FF 7F F8 FF FF 7F 66  64 6F 31 46 01 38 02 80  .......fdo1F.8..
0E40: 2F 00 42 E3 10 01 2F 00  43 E3 10 01 2F 00 44 E3  /.B.../.C.../.D.
0E50: 10 01 2F 00 45 E3 10 01  2F 00 49 E3 10 01 2F 00  ../.E.../.I.../.
0E60: 4A E3 10 01 2F 00 24 E3  10 01 2F 00 25 E3 10 01  J.../.$.../.%...
0E70: 2F 00 26 E3 10 01 4E 00  42 E3 10 01 92 01 42 E3  /.&...N.B.....B.
0E80: 10 01 92 01 43 E3 10 01  92 01 44 E3 10 01 92 01  ....C.....D.....
0E90: 45 E3 10 01 92 01 49 E3  10 01 92 01 4A E3 10 01  E.....I.....J...
0EA0: 94 01 F0 FF FF 7F 94 01  42 E3 10 01 94 01 43 E3  ........B.....C.
0EB0: 10 01 94 01 44 E3 10 01  94 01 45 E3 10 01 94 01  ....D.....E.....
0EC0: 49 E3 10 01 94 01 4A E3  10 01 94 01 24 E3 10 01  I.....J.....$...
0ED0: 94 01 25 E3 10 01 94 01  26 E3 10 01 BA F0 FF FF  ..%.....&.......
0EE0: 7F 71 80 72 80 73 80 74  80 BA 42 E3 10 01 75 80  .q.r.s.t..B...u.
0EF0: 76 80 77 80 78 80 BA 43  E3 10 01 79 80 7A 80 7B  v.w.x..C...y.z.{
0F00: 80 7C 80 BA 44 E3 10 01  7D 80 7E 80 7F 80 7C 80  .|..D...}.~...|.
0F10: BA 45 E3 10 01 80 80 81  80 82 80 7C 80 BA 49 E3  .E.........|..I.
0F20: 10 01 83 80 84 80 85 80  86 80 BA 4A E3 10 01 87  ...........J....
0F30: 80 88 80 89 80 86 80 BA  24 E3 10 01 8A 80 8B 80  ........$.......
0F40: 8C 80 8D 80 BA 25 E3 10  01 8E 80 8F 80 90 80 8D  .....%..........
0F50: 80 BA 26 E3 10 01 91 80  92 80 93 80 8D 80 80 F0  ..&.............
0F60: FF FF 7F 80 42 E3 10 01  27 05 42 E3 10 01 09 1C  ....B...'.B.....
0F70: 23 80 27 05 F0 FF FF 7F  25 45 94 80 F8 FF FF 7F  #.'.....%E......
0F80: F8 FF FF 7F 73 30 39 39  01 80 1C 23 80 45 00 80  ....s099...#.E..
0F90: F8 FF FF 7F F8 FF FF 7F  66 64 69 31 01 80 2A 05  ........fdi1..*.
0FA0: 42 E3 10 01 52 94 80 F8  FF FF 7F F8 FF FF 7F 73  B...R..........s
0FB0: 30 39 39 45 94 80 F8 FF  FF 7F F8 FF FF 7F 73 31  099E..........s1
0FC0: 30 30 01 80 6E 42 E3 10  01 95 80 99 42 E3 10 01  00..nB......B...
0FD0: 2B 42 E3 10 01 96 80 23  4E 00 43 E3 10 01 4E 00  +B.....#N.C...N.
0FE0: 44 E3 10 01 4E 00 45 E3  10 01 80 43 E3 10 01 80  D...N.E....C....
0FF0: 44 E3 10 01 80 45 E3 10  01 27 05 43 E3 10 01 06  D....E...'.C....
1000: 1C 23 80 27 05 44 E3 10  01 05 1C 23 80 27 05 45  .#.'.D.....#.'.E
1010: E3 10 01 04 1C 23 80 52  94 80 F8 FF FF 7F F8 FF  .....#.R........
1020: FF 7F 73 31 30 30 45 94  80 F8 FF FF 7F F8 FF FF  ..s100E.........
1030: 7F 73 31 30 31 01 80 2B  43 E3 10 01 97 80 1C 1F  .s101..+C.......
1040: 80 4A 42 E3 10 01 43 E3  10 01 1C 1F 80 23 6E 42  .JB...C......#nB
1050: E3 10 01 4D 80 99 42 E3  10 01 2B 42 E3 10 01 98  ...M..B...+B....
1060: 80 23 2A 05 43 E3 10 01  2A 05 44 E3 10 01 2A 05  .#*.C...*.D...*.
1070: 45 E3 10 01 52 94 80 F8  FF FF 7F F8 FF FF 7F 73  E...R..........s
1080: 31 30 31 45 94 80 F8 FF  FF 7F F8 FF FF 7F 73 31  101E..........s1
1090: 30 32 01 80 66 3E 80 43  E3 10 01 43 E3 10 01 74  02..f>.C...C...t
10A0: 6C 6B 30 2B 43 E3 10 01  99 80 23 45 00 80 F8 FF  lk0+C.....#E....
10B0: FF 7F F8 FF FF 7F 66 64  6F 31 01 80 55 00 80 F8  ......fdo1..U...
10C0: FF FF 7F F8 FF FF 7F 66  64 6F 31 52 94 80 F8 FF  .......fdo1R....
10D0: FF 7F F8 FF FF 7F 73 31  30 32 7B 45 E3 10 01 6B  ......s102{E...k
10E0: 69 64 6C 30 43 E3 10 01  2F 00 47 E3 10 01 4E 00  idl0C.../.G...N.
10F0: 47 E3 10 01 94 01 47 E3  10 01 22 00 BA 43 E3 10  G.....G..."..C..
1100: 01 9A 80 9B 80 9C 80 9D  80 BA 44 E3 10 01 9E 80  ..........D.....
1110: 9F 80 A0 80 A1 80 BA 42  E3 10 01 A2 80 A3 80 A4  .......B........
1120: 80 A5 80 BA F0 FF FF 7F  A6 80 A7 80 A0 80 A8 80  ................
1130: BA 47 E3 10 01 A9 80 AA  80 A0 80 AB 80 BA 45 E3  .G............E.
1140: 10 01 A9 80 AA 80 A0 80  AB 80 37 AC 80 AD 80 AE  ..........7.....
1150: 80 AF 80 80 43 E3 10 01  80 44 E3 10 01 80 45 E3  ....C....D....E.
1160: 10 01 80 47 E3 10 01 80  49 E3 10 01 80 42 E3 10  ...G....I....B..
1170: 01 80 F0 FF FF 7F 4A 43  E3 10 01 45 E3 10 01 4A  ......JC...E...J
1180: 44 E3 10 01 45 E3 10 01  4A 42 E3 10 01 45 E3 10  D...E...JB...E..
1190: 01 4A F0 FF FF 7F 45 E3  10 01 1C 1F 80 5F 03 B0  .J....E......_..
11A0: 80 45 E3 10 01 45 E3 10  01 78 78 78 78 5F 03 B1  .E...E...xxxx_..
11B0: 80 47 E3 10 01 47 E3 10  01 78 78 78 78 1C 1F 80  .G...G...xxxx...
11C0: AE 05 45 E3 10 01 47 E3  10 01 5F 03 B0 80 45 E3  ..E...G..._...E.
11D0: 10 01 45 E3 10 01 6D 69  72 30 5F 03 B1 80 47 E3  ..E...mir0_...G.
11E0: 10 01 47 E3 10 01 6D 69  72 30 1C 1F 80 45 94 80  ..G...mir0...E..
11F0: F8 FF FF 7F F8 FF FF 7F  73 31 30 33 01 80 1C 23  ........s103...#
1200: 80 45 00 80 F8 FF FF 7F  F8 FF FF 7F 66 64 69 31  .E..........fdi1
1210: 01 80 1C 2C 80 52 94 80  F8 FF FF 7F F8 FF FF 7F  ...,.R..........
1220: 73 31 30 33 45 94 80 F8  FF FF 7F F8 FF FF 7F 73  s103E..........s
1230: 31 30 35 01 80 6E 44 E3  10 01 B2 80 99 44 E3 10  105..nD......D..
1240: 01 2B 44 E3 10 01 B3 80  23 66 3E 80 43 E3 10 01  .+D.....#f>.C...
1250: 43 E3 10 01 74 68 6B 31  2B 43 E3 10 01 B4 80 23  C...thk1+C.....#
1260: 52 94 80 F8 FF FF 7F F8  FF FF 7F 73 31 30 35 45  R..........s105E
1270: 94 80 F8 FF FF 7F F8 FF  FF 7F 73 31 30 36 01 80  ..........s106..
1280: 2B 45 E3 10 01 B5 80 23  5C 00 21 80 5C 01 21 80  +E.....#\.!.\.!.
1290: 9A 52 94 80 F8 FF FF 7F  F8 FF FF 7F 73 31 30 36  .R..........s106
12A0: 45 94 80 F8 FF FF 7F F8  FF FF 7F 73 31 30 37 01  E..........s107.
12B0: 80 4E 00 49 E3 10 01 66  3E 80 43 E3 10 01 43 E3  .N.I...f>.C...C.
12C0: 10 01 74 68 6B 32 2B 35  E3 10 01 B6 80 1C 1F 80  ..thk2+5........
12D0: 4A F0 FF FF 7F 49 E3 10  01 1C 23 80 4A 44 E3 10  J....I....#.JD..
12E0: 01 49 E3 10 01 1C 23 80  4A 42 E3 10 01 49 E3 10  .I....#.JB...I..
12F0: 01 1C 23 80 23 4A 43 E3  10 01 49 E3 10 01 1C 1F  ..#.#JC...I.....
1300: 80 7C 00 43 E3 10 01 2B  43 E3 10 01 B7 80 23 7C  .|.C...+C.....#|
1310: 01 43 E3 10 01 52 94 80  F8 FF FF 7F F8 FF FF 7F  .C...R..........
1320: 73 31 30 37 45 94 80 F8  FF FF 7F F8 FF FF 7F 73  s107E..........s
1330: 31 30 38 01 80 2B 42 E3  10 01 B8 80 1C 1F 80 AE  108..+B.........
1340: 06 47 E3 10 01 BA 47 E3  10 01 A9 80 AA 80 A0 80  .G....G.........
1350: 8D 80 BA 45 E3 10 01 A9  80 AA 80 A0 80 8D 80 5F  ...E..........._
1360: 03 B9 80 45 E3 10 01 45  E3 10 01 78 78 78 78 5F  ...E...E...xxxx_
1370: 03 BA 80 47 E3 10 01 47  E3 10 01 78 78 78 78 1C  ...G...G...xxxx.
1380: 1F 80 AE 05 45 E3 10 01  47 E3 10 01 5F 03 B9 80  ....E...G..._...
1390: 45 E3 10 01 45 E3 10 01  68 6E 64 30 5F 03 BA 80  E...E...hnd0_...
13A0: 47 E3 10 01 47 E3 10 01  68 6E 64 30 1C 1F 80 23  G...G...hnd0...#
13B0: 55 94 80 F8 FF FF 7F F8  FF FF 7F 73 31 30 38 45  U..........s108E
13C0: 94 80 F8 FF FF 7F F8 FF  FF 7F 73 31 30 39 01 80  ..........s109..
13D0: 6E 49 E3 10 01 64 80 99  49 E3 10 01 2B 49 E3 10  nI...d..I...+I..
13E0: 01 BB 80 23 52 94 80 F8  FF FF 7F F8 FF FF 7F 73  ...#R..........s
13F0: 31 30 39 45 94 80 F8 FF  FF 7F F8 FF FF 7F 73 31  109E..........s1
1400: 31 30 01 80 2B 49 E3 10  01 BC 80 23 4E 00 24 E3  10..+I.....#N.$.
1410: 10 01 4E 00 25 E3 10 01  4E 00 26 E3 10 01 4E 00  ..N.%...N.&...N.
1420: 4A E3 10 01 BA 44 E3 10  01 BD 80 BE 80 A0 80 8D  J....D..........
1430: 80 BA F0 FF FF 7F BF 80  C0 80 A0 80 8D 80 80 4A  ...............J
1440: E3 10 01 80 24 E3 10 01  80 25 E3 10 01 80 26 E3  ....$....%....&.
1450: 10 01 80 44 E3 10 01 80  F0 FF FF 7F 27 05 4A E3  ...D........'.J.
1460: 10 01 02 1C 23 80 52 94  80 F8 FF FF 7F F8 FF FF  ....#.R.........
1470: 7F 73 31 31 30 45 94 80  F8 FF FF 7F F8 FF FF 7F  .s110E..........
1480: 73 31 31 31 01 80 1C 2D  80 27 05 24 E3 10 01 06  s111...-.'.$....
1490: 1C 23 80 27 05 25 E3 10  01 06 1C 23 80 27 05 26  .#.'.%.....#.'.&
14A0: E3 10 01 03 1C 1F 80 52  94 80 F8 FF FF 7F F8 FF  .......R........
14B0: FF 7F 73 31 31 31 45 94  80 F8 FF FF 7F F8 FF FF  ..s111E.........
14C0: 7F 73 31 31 32 01 80 79  00 42 E3 10 01 43 E3 10  .s112..y.B...C..
14D0: 01 7C 00 42 E3 10 01 2B  42 E3 10 01 C1 80 23 7C  .|.B...+B.....#|
14E0: 01 42 E3 10 01 2A 05 24  E3 10 01 2A 05 4A E3 10  .B...*.$...*.J..
14F0: 01 4A 4A E3 10 01 43 E3  10 01 1C 1F 80 52 94 80  .JJ...C......R..
1500: F8 FF FF 7F F8 FF FF 7F  73 31 31 32 45 94 80 F8  ........s112E...
1510: FF FF 7F F8 FF FF 7F 73  31 31 33 01 80 79 00 42  .......s113..y.B
1520: E3 10 01 49 E3 10 01 66  3C 80 42 E3 10 01 42 E3  ...I...f<.B...B.
1530: 10 01 74 6C 6B 30 2B 42  E3 10 01 C2 80 23 2B 42  ..tlk0+B.....#+B
1540: E3 10 01 C3 80 23 66 3C  80 42 E3 10 01 42 E3 10  .....#f<.B...B..
1550: 01 74 6C 6B 31 52 94 80  F8 FF FF 7F F8 FF FF 7F  .tlk1R..........
1560: 73 31 31 33 45 94 80 F8  FF FF 7F F8 FF FF 7F 73  s113E..........s
1570: 31 31 34 01 80 6E 49 E3  10 01 52 80 99 49 E3 10  114..nI...R..I..
1580: 01 2B 49 E3 10 01 C4 80  23 52 94 80 F8 FF FF 7F  .+I.....#R......
1590: F8 FF FF 7F 73 31 31 34  45 94 80 F8 FF FF 7F F8  ....s114E.......
15A0: FF FF 7F 73 31 31 35 01  80 2B 42 E3 10 01 C5 80  ...s115..+B.....
15B0: 23 52 94 80 F8 FF FF 7F  F8 FF FF 7F 73 31 31 35  #R..........s115
15C0: 45 94 80 F8 FF FF 7F F8  FF FF 7F 73 31 31 36 01  E..........s116.
15D0: 80 2B 49 E3 10 01 C6 80  23 66 3C 80 42 E3 10 01  .+I.....#f<.B...
15E0: 42 E3 10 01 74 6C 6B 30  52 94 80 F8 FF FF 7F F8  B...tlk0R.......
15F0: FF FF 7F 73 31 31 36 45  94 80 F8 FF FF 7F F8 FF  ...s116E........
1600: FF 7F 73 31 31 37 01 80  2B 42 E3 10 01 C7 80 23  ..s117..+B.....#
1610: 66 3C 80 42 E3 10 01 42  E3 10 01 74 6C 6B 31 5D  f<.B...B...tlk1]
1620: 01 80 26 80 52 94 80 F8  FF FF 7F F8 FF FF 7F 73  ..&.R..........s
1630: 31 31 37 45 94 80 F8 FF  FF 7F F8 FF FF 7F 73 31  117E..........s1
1640: 31 38 01 80 BA 44 E3 10  01 BF 80 C0 80 A0 80 86  18...D..........
1650: 80 BA F0 FF FF 7F A6 80  A7 80 A0 80 86 80 80 44  ...............D
1660: E3 10 01 80 F0 FF FF 7F  2B 49 E3 10 01 C8 80 23  ........+I.....#
1670: 5C 00 C9 80 5C 01 C9 80  9A 52 94 80 F8 FF FF 7F  \...\....R......
1680: F8 FF FF 7F 73 31 31 38  45 94 80 F8 FF FF 7F F8  ....s118E.......
1690: FF FF 7F 73 31 31 39 01  80 73 CA 80 4A E3 10 01  ...s119..s..J...
16A0: F8 FF FF 7F 1C 2D 80 52  94 80 F8 FF FF 7F F8 FF  .....-.R........
16B0: FF 7F 73 31 31 39 45 94  80 F8 FF FF 7F F8 FF FF  ..s119E.........
16C0: 7F 73 31 32 30 01 80 73  CA 80 24 E3 10 01 F8 FF  .s120..s..$.....
16D0: FF 7F 1C 23 80 73 CA 80  25 E3 10 01 F8 FF FF 7F  ...#.s..%.......
16E0: 1C 23 80 73 CA 80 26 E3  10 01 F8 FF FF 7F 5B CB  .#.s..&.......[.
16F0: 80 43 E3 10 01 43 E3 10  01 6D 67 77 30 66 CC 80  .C...C...mgw0f..
1700: 44 E3 10 01 44 E3 10 01  70 6F 73 30 1C 2D 80 D0  D...D...pos0.-..
1710: CD 80 43 E3 10 01 43 E3  10 01 62 72 6D 30 01 80  ..C...C...brm0..
1720: D0 CD 80 44 E3 10 01 44  E3 10 01 62 72 74 30 01  ...D...D...brt0.
1730: 80 02 87 7F CE 80 80 4B  17 66 CF 80 F0 FF FF 7F  .......K.f......
1740: F0 FF FF 7F 6D 61 62 30  01 01 18 02 87 7F D0 80  ....mab0........
1750: 80 65 17 66 2C 80 F0 FF  FF 7F F0 FF FF 7F 6D 61  .e.f,.........ma
1760: 62 30 01 01 18 02 87 7F  D1 80 80 7F 17 66 D2 80  b0...........f..
1770: F0 FF FF 7F F0 FF FF 7F  6D 61 62 30 01 01 18 02  ........mab0....
1780: 87 7F D3 80 80 99 17 66  D4 80 F0 FF FF 7F F0 FF  .......f........
1790: FF 7F 6D 61 62 30 01 01  18 02 87 7F D5 80 80 B3  ..mab0..........
17A0: 17 66 28 80 F0 FF FF 7F  F0 FF FF 7F 6D 61 62 30  .f(.........mab0
17B0: 01 01 18 02 87 7F 4D 80  80 CD 17 66 28 80 F0 FF  ......M....f(...
17C0: FF 7F F0 FF FF 7F 6D 61  62 30 01 01 18 02 87 7F  ......mab0......
17D0: 4B 80 80 E7 17 66 D6 80  F0 FF FF 7F F0 FF FF 7F  K....f..........
17E0: 6D 61 62 30 01 01 18 02  87 7F D7 80 80 01 18 66  mab0...........f
17F0: 00 80 F0 FF FF 7F F0 FF  FF 7F 6D 61 62 30 01 01  ..........mab0..
1800: 18 66 CF 80 42 E3 10 01  42 E3 10 01 6D 61 62 30  .f..B...B...mab0
1810: 52 94 80 F8 FF FF 7F F8  FF FF 7F 73 31 32 30 45  R..........s120E
1820: 94 80 F8 FF FF 7F F8 FF  FF 7F 73 31 32 31 01 80  ..........s121..
1830: 2B 43 E3 10 01 D8 80 4E  01 24 E3 10 01 4E 01 25  +C.....N.$...N.%
1840: E3 10 01 4E 01 26 E3 10  01 4E 01 4A E3 10 01 4E  ...N.&...N.J...N
1850: 01 49 E3 10 01 1C 26 80  23 52 94 80 F8 FF FF 7F  .I....&.#R......
1860: F8 FF FF 7F 73 31 32 31  45 94 80 F8 FF FF 7F F8  ....s121E.......
1870: FF FF 7F 73 31 32 32 01  80 1C 2E 80 5F 03 B0 80  ...s122....._...
1880: 45 E3 10 01 45 E3 10 01  78 78 78 78 5F 03 B1 80  E...E...xxxx_...
1890: 47 E3 10 01 47 E3 10 01  78 78 78 78 1C 1F 80 52  G...G...xxxx...R
18A0: 94 80 F8 FF FF 7F F8 FF  FF 7F 73 31 32 32 45 94  ..........s122E.
18B0: 80 F8 FF FF 7F F8 FF FF  7F 73 31 32 33 01 80 1C  .........s123...
18C0: 50 80 D0 D9 80 47 E3 10  01 47 E3 10 01 70 6B 30  P....G...G...pk0
18D0: 30 01 80 1C 2D 80 5F 03  B0 80 45 E3 10 01 45 E3  0...-._...E...E.
18E0: 10 01 6D 69 72 30 5F 03  B1 80 47 E3 10 01 47 E3  ..mir0_...G...G.
18F0: 10 01 6D 69 72 30 7C 00  45 E3 10 01 2B 45 E3 10  ..mir0|.E...+E..
1900: 01 DA 80 4E 00 49 E3 10  01 1C CA 80 23 52 94 80  ...N.I......#R..
1910: F8 FF FF 7F F8 FF FF 7F  73 31 32 33 45 94 80 F8  ........s123E...
1920: FF FF 7F F8 FF FF 7F 73  31 32 34 01 80 73 CA 80  .......s124..s..
1930: 49 E3 10 01 F8 FF FF 7F  2B 49 E3 10 01 DB 80 1C  I.......+I......
1940: 2D 80 5B CB 80 43 E3 10  01 43 E3 10 01 6D 67 77  -.[..C...C...mgw
1950: 31 52 94 80 F8 FF FF 7F  F8 FF FF 7F 73 31 32 34  1R..........s124
1960: 45 94 80 F8 FF FF 7F F8  FF FF 7F 73 31 32 35 01  E..........s125.
1970: 80 2B 43 E3 10 01 DC 80  1C 2D 80 5F 03 B9 80 45  .+C......-._...E
1980: E3 10 01 45 E3 10 01 78  78 78 78 5F 03 BA 80 47  ...E...xxxx_...G
1990: E3 10 01 47 E3 10 01 78  78 78 78 1C 2D 80 5F 03  ...G...xxxx.-._.
19A0: B9 80 45 E3 10 01 45 E3  10 01 68 6E 64 30 5F 03  ..E...E...hnd0_.
19B0: BA 80 47 E3 10 01 47 E3  10 01 68 6E 64 30 52 94  ..G...G...hnd0R.
19C0: 80 F8 FF FF 7F F8 FF FF  7F 73 31 32 35 45 94 80  .........s125E..
19D0: F8 FF FF 7F F8 FF FF 7F  73 31 32 36 01 80 2B 45  ........s126..+E
19E0: E3 10 01 DD 80 1C 2D 80  52 94 80 F8 FF FF 7F F8  ......-.R.......
19F0: FF FF 7F 73 31 32 36 45  94 80 F8 FF FF 7F F8 FF  ...s126E........
1A00: FF 7F 73 31 32 37 01 80  CD 28 80 47 E3 10 01 47  ..s127...(.G...G
1A10: E3 10 01 68 6B 30 31 01  80 1C 26 80 45 DE 80 F0  ...hk01...&.E...
1A20: FF FF 7F F0 FF FF 7F 77  68 6F 30 01 80 55 DE 80  .......who0..U..
1A30: F0 FF FF 7F F0 FF FF 7F  77 68 6F 30 52 94 80 F8  ........who0R...
1A40: FF FF 7F F8 FF FF 7F 73  31 32 37 45 94 80 F8 FF  .......s127E....
1A50: FF 7F F8 FF FF 7F 30 62  6C 66 01 80 CD 28 80 47  ......0blf...(.G
1A60: E3 10 01 47 E3 10 01 73  65 73 74 01 80 CD 28 80  ...G...sest...(.
1A70: 47 E3 10 01 47 E3 10 01  68 6B 73 74 01 80 D0 CD  G...G...hkst....
1A80: 80 43 E3 10 01 43 E3 10  01 6B 6C 62 6D 01 80 D0  .C...C...klbm...
1A90: CD 80 44 E3 10 01 44 E3  10 01 6B 6C 62 74 01 80  ..D...D...klbt..
1AA0: AE 06 47 E3 10 01 6B 69  64 6C 30 43 E3 10 01 6B  ..G...kidl0C...k
1AB0: 69 64 6C 30 44 E3 10 01  6B 69 64 6C 30 F0 FF FF  idl0D...kidl0...
1AC0: 7F 6B 69 64 6C 30 42 E3  10 01 2F 00 4B E3 10 01  .kidl0B.../.K...
1AD0: 2F 00 46 E3 10 01 2F 00  48 E3 10 01 2F 00 1B E3  /.F.../.H.../...
1AE0: 10 01 2F 00 1C E3 10 01  2F 00 1D E3 10 01 2F 00  ../...../...../.
1AF0: 1E E3 10 01 2F 00 22 E3  10 01 2F 00 23 E3 10 01  ..../.".../.#...
1B00: 4E 00 4B E3 10 01 4E 00  4A E3 10 01 4E 00 24 E3  N.K...N.J...N.$.
1B10: 10 01 4E 00 25 E3 10 01  4E 00 26 E3 10 01 92 01  ..N.%...N.&.....
1B20: 4B E3 10 01 92 01 46 E3  10 01 92 01 48 E3 10 01  K.....F.....H...
1B30: 94 01 4B E3 10 01 94 01  46 E3 10 01 94 01 48 E3  ..K.....F.....H.
1B40: 10 01 94 01 1B E3 10 01  94 01 1C E3 10 01 94 01  ................
1B50: 1D E3 10 01 94 01 1E E3  10 01 94 01 22 E3 10 01  ............"...
1B60: 94 01 23 E3 10 01 BA 4B  E3 10 01 DF 80 E0 80 E1  ..#....K........
1B70: 80 E2 80 BA 4A E3 10 01  E3 80 E4 80 E5 80 86 80  ....J...........
1B80: BA 46 E3 10 01 DF 80 E0  80 E1 80 E2 80 BA 48 E3  .F............H.
1B90: 10 01 E6 80 E7 80 E8 80  E9 80 BA 1B E3 10 01 EA  ................
1BA0: 80 EB 80 EC 80 E2 80 BA  1C E3 10 01 ED 80 EE 80  ................
1BB0: EF 80 F0 80 BA 1D E3 10  01 F1 80 F2 80 A0 80 F3  ................
1BC0: 80 BA 1E E3 10 01 F4 80  F5 80 A0 80 F3 80 BA 22  ..............."
1BD0: E3 10 01 F6 80 F7 80 F8  80 F9 80 BA 23 E3 10 01  ............#...
1BE0: FA 80 FB 80 FC 80 F9 80  80 4B E3 10 01 80 4A E3  .........K....J.
1BF0: 10 01 4A 42 E3 10 01 45  E3 10 01 4A 43 E3 10 01  ..JB...E...JC...
1C00: 45 E3 10 01 4A 44 E3 10  01 45 E3 10 01 4A F0 FF  E...JD...E...J..
1C10: FF 7F 45 E3 10 01 1C 1F  80 66 CF 80 4A E3 10 01  ..E......f..J...
1C20: 4A E3 10 01 6D 61 62 30  7C 00 4B E3 10 01 5B FD  J...mab0|.K...[.
1C30: 80 4B E3 10 01 4B E3 10  01 74 75 65 30 27 05 4B  .K...K...tue0'.K
1C40: E3 10 01 02 5F 03 B0 80  45 E3 10 01 45 E3 10 01  ...._...E...E...
1C50: 78 78 78 78 5F 03 B1 80  47 E3 10 01 47 E3 10 01  xxxx_...G...G...
1C60: 78 78 78 78 1C 1F 80 AE  05 45 E3 10 01 47 E3 10  xxxx.....E...G..
1C70: 01 5F 03 B0 80 45 E3 10  01 45 E3 10 01 6D 69 72  ._...E...E...mir
1C80: 30 5F 03 B1 80 47 E3 10  01 47 E3 10 01 6D 69 72  0_...G...G...mir
1C90: 30 45 94 80 F8 FF FF 7F  F8 FF FF 7F 73 31 32 38  0E..........s128
1CA0: 01 80 1C 23 80 45 DE 80  F0 FF FF 7F F0 FF FF 7F  ...#.E..........
1CB0: 77 68 69 31 01 80 6E 49  E3 10 01 4D 80 99 49 E3  whi1..nI...M..I.
1CC0: 10 01 66 CF 80 4A E3 10  01 4A E3 10 01 6D 61 62  ..f..J...J...mab
1CD0: 31 2B 49 E3 10 01 FE 80  23 52 94 80 F8 FF FF 7F  1+I.....#R......
1CE0: F8 FF FF 7F 73 31 32 38  45 94 80 F8 FF FF 7F F8  ....s128E.......
1CF0: FF FF 7F 73 31 33 30 01  80 1C 26 80 52 94 80 F8  ...s130...&.R...
1D00: FF FF 7F F8 FF FF 7F 73  31 33 30 45 94 80 F8 FF  .......s130E....
1D10: FF 7F F8 FF FF 7F 73 31  32 39 01 80 7C 01 45 E3  ......s129..|.E.
1D20: 10 01 2B 45 E3 10 01 B5  80 23 52 94 80 F8 FF FF  ..+E.....#R.....
1D30: 7F F8 FF FF 7F 73 31 32  39 45 94 80 F8 FF FF 7F  .....s129E......
1D40: F8 FF FF 7F 73 31 33 31  01 80 BB 50 80 4B E3 10  ....s131...P.K..
1D50: 01 4B E3 10 01 74 72 67  30 01 80 1C 2D 80 AE 06  .K...trg0...-...
1D60: 47 E3 10 01 1C 2D 80 52  94 80 F8 FF FF 7F F8 FF  G....-.R........
1D70: FF 7F 73 31 33 31 45 94  80 F8 FF FF 7F F8 FF FF  ..s131E.........
1D80: 7F 73 31 33 32 01 80 5F  03 B0 80 45 E3 10 01 45  .s132.._...E...E
1D90: E3 10 01 6D 69 72 31 5F  03 B1 80 47 E3 10 01 47  ...mir1_...G...G
1DA0: E3 10 01 6D 69 72 31 1C  FF 80 2B 45 E3 10 01 00  ...mir1...+E....
1DB0: 81 1C 24 80 52 94 80 F8  FF FF 7F F8 FF FF 7F 73  ..$.R..........s
1DC0: 31 33 32 45 94 80 F8 FF  FF 7F F8 FF FF 7F 73 31  132E..........s1
1DD0: 33 33 01 80 1C 24 80 5F  03 FD 80 4B E3 10 01 4B  33...$._...K...K
1DE0: E3 10 01 78 78 78 78 5F  03 B1 80 47 E3 10 01 47  ...xxxx_...G...G
1DF0: E3 10 01 78 78 78 78 1C  25 80 52 94 80 F8 FF FF  ...xxxx.%.R.....
1E00: 7F F8 FF FF 7F 73 31 33  33 45 94 80 F8 FF FF 7F  .....s133E......
1E10: F8 FF FF 7F 73 31 33 34  01 80 AE 05 4B E3 10 01  ....s134....K...
1E20: 47 E3 10 01 5F 03 FD 80  4B E3 10 01 4B E3 10 01  G..._...K...K...
1E30: 74 75 65 31 5F 03 B1 80  47 E3 10 01 47 E3 10 01  tue1_...G...G...
1E40: 74 75 65 31 BA 47 E3 10  01 DF 80 E0 80 E1 80 E2  tue1.G..........
1E50: 80 1C 28 80 27 05 4B E3  10 01 03 52 94 80 F8 FF  ..(.'.K....R....
1E60: FF 7F F8 FF FF 7F 73 31  33 34 45 94 80 F8 FF FF  ......s134E.....
1E70: 7F F8 FF FF 7F 73 31 33  35 01 80 6B 69 64 6C 30  .....s135..kidl0
1E80: 4A E3 10 01 6B 69 64 6C  30 45 E3 10 01 4A 43 E3  J...kidl0E...JC.
1E90: 10 01 4B E3 10 01 4A 44  E3 10 01 4B E3 10 01 4A  ..K...JD...K...J
1EA0: 45 E3 10 01 4B E3 10 01  4A F0 FF FF 7F 4B E3 10  E...K...J....K..
1EB0: 01 4A 42 E3 10 01 4B E3  10 01 4A 4A E3 10 01 4B  .JB...K...JJ...K
1EC0: E3 10 01 4A 49 E3 10 01  4B E3 10 01 1C 2C 80 5B  ...JI...K....,.[
1ED0: 01 81 42 E3 10 01 42 E3  10 01 6B 65 69 30 52 94  ..B...B...kei0R.
1EE0: 80 F8 FF FF 7F F8 FF FF  7F 73 31 33 35 45 94 80  .........s135E..
1EF0: F8 FF FF 7F F8 FF FF 7F  73 31 33 36 01 80 6E 43  ........s136..nC
1F00: E3 10 01 01 80 99 43 E3  10 01 6E 4A E3 10 01 02  ......C...nJ....
1F10: 81 99 4A E3 10 01 2B 43  E3 10 01 03 81 23 5F 03  ..J...+C.....#_.
1F20: FD 80 4B E3 10 01 4B E3  10 01 74 75 65 32 5F 03  ..K...K...tue2_.
1F30: B1 80 47 E3 10 01 47 E3  10 01 74 75 65 32 52 94  ..G...G...tue2R.
1F40: 80 F8 FF FF 7F F8 FF FF  7F 73 31 33 36 45 94 80  .........s136E..
1F50: F8 FF FF 7F F8 FF FF 7F  73 31 33 37 01 80 1C 1F  ........s137....
1F60: 80 2B 4B E3 10 01 04 81  1C FF 80 23 52 94 80 F8  .+K........#R...
1F70: FF FF 7F F8 FF FF 7F 73  31 33 37 45 94 80 F8 FF  .......s137E....
1F80: FF 7F F8 FF FF 7F 73 31  33 38 01 80 5F 03 FD 80  ......s138.._...
1F90: 4B E3 10 01 4B E3 10 01  74 75 65 33 5F 03 B1 80  K...K...tue3_...
1FA0: 47 E3 10 01 47 E3 10 01  74 75 65 33 2B 4B E3 10  G...G...tue3+K..
1FB0: 01 05 81 1C FF 80 D0 D9  80 47 E3 10 01 47 E3 10  .........G...G..
1FC0: 01 70 6B 30 34 01 80 23  2B 4B E3 10 01 06 81 23  .pk04..#+K.....#
1FD0: 52 94 80 F8 FF FF 7F F8  FF FF 7F 73 31 33 38 45  R..........s138E
1FE0: 94 80 F8 FF FF 7F F8 FF  FF 7F 73 31 33 39 01 80  ..........s139..
1FF0: 6E 44 E3 10 01 4D 80 99  44 E3 10 01 6E 45 E3 10  nD...M..D...nE..
2000: 01 07 81 99 45 E3 10 01  2B 44 E3 10 01 08 81 23  ....E...+D.....#
2010: D0 D9 80 47 E3 10 01 47  E3 10 01 70 6B 30 31 01  ...G...G...pk01.
2020: 80 52 94 80 F8 FF FF 7F  F8 FF FF 7F 73 31 33 39  .R..........s139
2030: 45 94 80 F8 FF FF 7F F8  FF FF 7F 73 31 34 30 01  E..........s140.
2040: 80 2B 4B E3 10 01 09 81  23 2B 4B E3 10 01 0A 81  .+K.....#+K.....
2050: 23 52 94 80 F8 FF FF 7F  F8 FF FF 7F 73 31 34 30  #R..........s140
2060: 45 94 80 F8 FF FF 7F F8  FF FF 7F 73 31 34 31 01  E..........s141.
2070: 80 1C 23 80 6B 69 64 6C  30 42 E3 10 01 2B 4B E3  ..#.kidl0B...+K.
2080: 10 01 0B 81 23 66 3C 80  42 E3 10 01 42 E3 10 01  ....#f<.B...B...
2090: 74 6C 6B 30 52 94 80 F8  FF FF 7F F8 FF FF 7F 73  tlk0R..........s
20A0: 31 34 31 45 94 80 F8 FF  FF 7F F8 FF FF 7F 73 31  141E..........s1
20B0: 34 32 01 80 2B 42 E3 10  01 0C 81 23 52 94 80 F8  42..+B.....#R...
20C0: FF FF 7F F8 FF FF 7F 73  31 34 32 45 94 80 F8 FF  .......s142E....
20D0: FF 7F F8 FF FF 7F 73 31  34 33 01 80 2B 4B E3 10  ......s143..+K..
20E0: 01 0D 81 23 6B 69 64 6C  30 42 E3 10 01 52 94 80  ...#kidl0B...R..
20F0: F8 FF FF 7F F8 FF FF 7F  73 31 34 33 45 94 80 F8  ........s143E...
2100: FF FF 7F F8 FF FF 7F 73  31 34 34 01 80 5F 03 0E  .......s144.._..
2110: 81 4B E3 10 01 4B E3 10  01 74 75 65 34 5F 03 B1  .K...K...tue4_..
2120: 80 47 E3 10 01 47 E3 10  01 74 75 65 34 D0 D9 80  .G...G...tue4...
2130: 47 E3 10 01 47 E3 10 01  70 6B 30 32 01 80 D0 0F  G...G...pk02....
2140: 81 4B E3 10 01 4B E3 10  01 76 62 6F 30 01 80 1C  .K...K...vbo0...
2150: 00 80 52 94 80 F8 FF FF  7F F8 FF FF 7F 73 31 34  ..R..........s14
2160: 34 45 94 80 F8 FF FF 7F  F8 FF FF 7F 73 31 34 35  4E..........s145
2170: 01 80 5F 03 0E 81 4B E3  10 01 4B E3 10 01 74 75  .._...K...K...tu
2180: 65 35 5F 03 B1 80 47 E3  10 01 47 E3 10 01 74 75  e5_...G...G...tu
2190: 65 35 D0 0F 81 4B E3 10  01 4B E3 10 01 76 62 6F  e5...K...K...vbo
21A0: 31 01 80 1C 2D 80 52 94  80 F8 FF FF 7F F8 FF FF  1...-.R.........
21B0: 7F 73 31 34 35 45 94 80  F8 FF FF 7F F8 FF FF 7F  .s145E..........
21C0: 73 31 34 36 01 80 D0 0F  81 42 E3 10 01 42 E3 10  s146.....B...B..
21D0: 01 68 62 6F 30 01 80 6E  F0 FF FF 7F 02 81 99 F0  .hbo0..n........
21E0: FF FF 7F 6E 43 E3 10 01  95 80 99 43 E3 10 01 66  ...nC......C...f
21F0: CF 80 42 E3 10 01 42 E3  10 01 6D 61 62 30 7C 00  ..B...B...mab0|.
2200: 42 E3 10 01 2B 42 E3 10  01 10 81 1C 1F 80 AE 06  B...+B..........
2210: 47 E3 10 01 4E 01 47 E3  10 01 6B 69 64 6C 30 4B  G...N.G...kidl0K
2220: E3 10 01 52 94 80 F8 FF  FF 7F F8 FF FF 7F 73 31  ...R..........s1
2230: 34 36 45 94 80 F8 FF FF  7F F8 FF FF 7F 73 31 37  46E..........s17
2240: 35 01 80 1C 2D 80 D0 D9  80 47 E3 10 01 47 E3 10  5...-....G...G..
2250: 01 70 6B 30 33 01 80 D0  D9 80 47 E3 10 01 47 E3  .pk03.....G...G.
2260: 10 01 70 6B 30 34 01 80  1C 1F 80 52 94 80 F8 FF  ..pk04.....R....
2270: FF 7F F8 FF FF 7F 73 31  37 35 45 94 80 F8 FF FF  ......s175E.....
2280: 7F F8 FF FF 7F 73 31 34  37 01 80 45 94 80 F8 FF  .....s147..E....
2290: FF 7F F8 FF FF 7F 30 62  6C 66 01 80 1C 23 80 6B  ......0blf...#.k
22A0: 69 64 6C 30 42 E3 10 01  2B 4B E3 10 01 11 81 23  idl0B...+K.....#
22B0: 52 94 80 F8 FF FF 7F F8  FF FF 7F 73 31 34 37 45  R..........s147E
22C0: 94 80 F8 FF FF 7F F8 FF  FF 7F 73 31 34 38 01 80  ..........s148..
22D0: 27 05 4B E3 10 01 04 1C  2D 80 2B 43 E3 10 01 12  '.K.....-.+C....
22E0: 81 23 27 05 43 E3 10 01  07 1C 24 80 52 94 80 F8  .#'.C.....$.R...
22F0: FF FF 7F F8 FF FF 7F 73  31 34 38 45 94 80 F8 FF  .......s148E....
2300: FF 7F F8 FF FF 7F 73 31  34 39 01 80 1C 23 80 4E  ......s149...#.N
2310: 01 4B E3 10 01 4E 00 46  E3 10 01 4E 00 1B E3 10  .K...N.F...N....
2320: 01 4E 00 1C E3 10 01 4E  00 1D E3 10 01 4E 00 1E  .N.....N.....N..
2330: E3 10 01 80 46 E3 10 01  80 1B E3 10 01 80 1C E3  ....F...........
2340: 10 01 80 1D E3 10 01 80  1E E3 10 01 4A 49 E3 10  ............JI..
2350: 01 1C E3 10 01 7C 00 43  E3 10 01 2B 43 E3 10 01  .....|.C...+C...
2360: 13 81 23 7C 01 43 E3 10  01 55 94 80 F8 FF FF 7F  ..#|.C...U......
2370: F8 FF FF 7F 73 31 34 39  45 94 80 F8 FF FF 7F F8  ....s149E.......
2380: FF FF 7F 73 31 35 30 01  80 1C 2E 80 4E 00 48 E3  ...s150.....N.H.
2390: 10 01 4E 00 22 E3 10 01  4E 00 23 E3 10 01 80 48  ..N."...N.#....H
23A0: E3 10 01 80 22 E3 10 01  80 23 E3 10 01 52 94 80  ...."....#...R..
23B0: F8 FF FF 7F F8 FF FF 7F  73 31 35 30 45 94 80 F8  ........s150E...
23C0: FF FF 7F F8 FF FF 7F 73  31 35 31 01 80 6E 24 E3  .......s151..n$.
23D0: 10 01 95 80 99 24 E3 10  01 6E 25 E3 10 01 95 80  .....$...n%.....
23E0: 99 25 E3 10 01 1C 1F 80  27 05 48 E3 10 01 02 1C  .%......'.H.....
23F0: 23 80 27 05 22 E3 10 01  06 1C 23 80 27 05 23 E3  #.'.".....#.'.#.
2400: 10 01 06 1C 1F 80 52 94  80 F8 FF FF 7F F8 FF FF  ......R.........
2410: 7F 73 31 35 31 45 94 80  F8 FF FF 7F F8 FF FF 7F  .s151E..........
2420: 73 31 35 32 01 80 2B 48  E3 10 01 14 81 1C 1F 80  s152..+H........
2430: 4A 49 E3 10 01 48 E3 10  01 1C 1F 80 4A 4A E3 10  JI...H......JJ..
2440: 01 48 E3 10 01 1C 1F 80  23 2A 05 48 E3 10 01 52  .H......#*.H...R
2450: 94 80 F8 FF FF 7F F8 FF  FF 7F 73 31 35 32 45 94  ..........s152E.
2460: 80 F8 FF FF 7F F8 FF FF  7F 73 31 35 33 01 80 2B  .........s153..+
2470: 49 E3 10 01 15 81 23 BA  1C E3 10 01 16 81 17 81  I.....#.........
2480: 18 81 19 81 4A 1C E3 10  01 45 E3 10 01 5B 1A 81  ....J....E...[..
2490: 48 E3 10 01 48 E3 10 01  6D 65 69 30 52 94 80 F8  H...H...mei0R...
24A0: FF FF 7F F8 FF FF 7F 73  31 35 33 45 94 80 F8 FF  .......s153E....
24B0: FF 7F F8 FF FF 7F 73 31  35 34 01 80 2B 48 E3 10  ......s154..+H..
24C0: 01 1B 81 1C CF 80 23 52  94 80 F8 FF FF 7F F8 FF  ......#R........
24D0: FF 7F 73 31 35 34 45 94  80 F8 FF FF 7F F8 FF FF  ..s154E.........
24E0: 7F 73 31 35 35 01 80 6E  49 E3 10 01 4B 80 99 49  .s155..nI...K..I
24F0: E3 10 01 6E 4A E3 10 01  1C 81 99 4A E3 10 01 4A  ...nJ......J...J
2500: 44 E3 10 01 1D E3 10 01  27 05 F0 FF FF 7F 07 1C  D.......'.......
2510: 24 80 73 1D 81 43 E3 10  01 1B E3 10 01 1C 50 80  $.s..C........P.
