# 17883961

## Common Data

| Field            | Value                    |
|------------------|--------------------------|
| Zone             | Cirdas Caverns (ID: 270) |
| Block Size       | 164 bytes                |
| Total Events     | 5                        |
| References Count | 11                       |

## List of Events

| Event ID                 | Entrypoint   |   Size |   Instructions |
|--------------------------|--------------|--------|----------------|
| [65535](#event-65535)    | 0x0000       |      1 |              1 |
| [35](#event-35)          | 0x0001       |     49 |              5 |
| [65535.1](#event-655351) | 0x0032       |      7 |              3 |
| [65535.2](#event-655352) | 0x0039       |      7 |              3 |
| [65535.3](#event-655353) | 0x0040       |     19 |              3 |

## DAT References (imed_data)

|   Index | Hex Value   |   Dec Value |
|---------|-------------|-------------|
|       0 | 0x0002      |           2 |
|       1 | 0x0008      |           8 |
|       2 | 0x00DB      |         219 |
|       3 | 0x006D      |         109 |
|       4 | 0x00A6      |         166 |
|       5 | 0x0162      |         354 |
|       6 | 0x0026      |          38 |
|       7 | 0x0001      |           1 |
|       8 | 0x0000      |           0 |
|       9 | 0x0BCC      |        3020 |
|      10 | 0x00AA      |         170 |

## Events

### Event 65535

#### Metadata

| Field        | Value   |
|--------------|---------|
| Entrypoint   | 0x0000  |
| Data Size    | 1 bytes |
| Instructions | 1       |

```
      00 01 02 03 04 05 06 07  08 09 0A 0B 0C 0D 0E 0F
      -- -- -- -- -- -- -- --  -- -- -- -- -- -- -- --
0000: 00                                                .               
```

#### Opcodes

```
  0: 0x0000 [0x00] END_REQSTACK()
```

### Event 35

#### Metadata

| Field        | Value    |
|--------------|----------|
| Entrypoint   | 0x0001   |
| Data Size    | 49 bytes |
| Instructions | 5        |

```
      00 01 02 03 04 05 06 07  08 09 0A 0B 0C 0D 0E 0F
      -- -- -- -- -- -- -- --  -- -- -- -- -- -- -- --
0000:    B6 0B 00 80 01 80 02  80 03 80 03 80 03 80 03   ...............
0010: 80 04 80 05 80 B6 0A 06  80 B4 00 00 00 59 6F 72  .............Yor
0020: 63 69 61 00 00 00 00 00  00 00 00 00 00 B5 00 00  cia.............
0030: 00 00                                             ..              
```

#### Opcodes

```
  0: 0x0001 [0xB6] ENTITY_APPEARANCE_HANDLER(case=Full entity look, race=2*, hair=8*, head=219*, body=109*, hands=109*, legs=109*, feet=109*, main=166*, sub=354*)
  1: 0x0015 [0xB6] ENTITY_APPEARANCE_HANDLER(case=Ranged, value=38*)
  2: 0x0019 [0xB4] UI_WINDOW_STRING_HANDLER(case=0x00 - Copy string from opcode, work_offset=ExtData[1]->WorkLocal[0], string="Yorcia")
  3: 0x002D [0xB5] SET_EVENT_ENTITY_NAME: Change EventEntity name to ExtData[1]->WorkLocal[0]
  4: 0x0031 [0x00] END_REQSTACK()
```

### Event 65535.1

#### Metadata

| Field        | Value   |
|--------------|---------|
| Entrypoint   | 0x0032  |
| Data Size    | 7 bytes |
| Instructions | 3       |

```
      00 01 02 03 04 05 06 07  08 09 0A 0B 0C 0D 0E 0F
      -- -- -- -- -- -- -- --  -- -- -- -- -- -- -- --
0030:       AB 03 AC 01 07 80  00                         .......       
```

#### Opcodes

```
  0: 0x0032 [0xAB] EventEntity->Render.Flags0 ^= 0x20000 // Toggle bit 17
  1: 0x0034 [0xAC] EventEntity->StatusEvent = 1*
  2: 0x0038 [0x00] END_REQSTACK()
```

### Event 65535.2

#### Metadata

| Field        | Value   |
|--------------|---------|
| Entrypoint   | 0x0039  |
| Data Size    | 7 bytes |
| Instructions | 3       |

```
      00 01 02 03 04 05 06 07  08 09 0A 0B 0C 0D 0E 0F
      -- -- -- -- -- -- -- --  -- -- -- -- -- -- -- --
0030:                             AC 01 08 80 AB 04 00           .......
```

#### Opcodes

```
  0: 0x0039 [0xAC] EventEntity->StatusEvent = 0*
  1: 0x003D [0xAB] EventEntity->Render.Flags0 |= 0x40000 // Set bit 18
  2: 0x003F [0x00] END_REQSTACK()
```

### Event 65535.3

#### Metadata

| Field        | Value    |
|--------------|----------|
| Entrypoint   | 0x0040   |
| Data Size    | 19 bytes |
| Instructions | 3        |

```
      00 01 02 03 04 05 06 07  08 09 0A 0B 0C 0D 0E 0F
      -- -- -- -- -- -- -- --  -- -- -- -- -- -- -- --
0040: 5B 09 80 F8 FF FF 7F F8  FF FF 7F 70 6F 73 30 1C  [..........pos0.
0050: 0A 80 00                                          ...             
```

#### Opcodes

```
  0: 0x0040 [0x5B] LOAD_EXT_SCHEDULER: Load scheduler "pos0" with entities [EventEntity, EventEntity], work=3020*
  1: 0x004F [0x1C] WAIT(170* ticks)
  2: 0x0052 [0x00] END_REQSTACK()
```
