# 17883962

## Common Data

| Field            | Value                    |
|------------------|--------------------------|
| Zone             | Cirdas Caverns (ID: 270) |
| Block Size       | 184 bytes                |
| Total Events     | 6                        |
| References Count | 9                        |

## List of Events

| Event ID                 | Entrypoint   |   Size |   Instructions |
|--------------------------|--------------|--------|----------------|
| [65535](#event-65535)    | 0x0000       |      1 |              1 |
| [35](#event-35)          | 0x0001       |     45 |              4 |
| [65535.1](#event-655351) | 0x002E       |      7 |              3 |
| [65535.2](#event-655352) | 0x0035       |      7 |              3 |
| [65535.3](#event-655353) | 0x003C       |     16 |              4 |
| [65535.4](#event-655354) | 0x004C       |     29 |              3 |

## DAT References (imed_data)

|   Index | Hex Value   |   Dec Value |
|---------|-------------|-------------|
|       0 | 0x0002      |           2 |
|       1 | 0x0000      |           0 |
|       2 | 0x0106      |         262 |
|       3 | 0x00B7      |         183 |
|       4 | 0x00B5      |         181 |
|       5 | 0x0001      |           1 |
|       6 | 0x0016      |          22 |
|       7 | 0x006E      |         110 |
|       8 | 0x0058      |          88 |

## Events

### Event 65535

#### Metadata

| Field        | Value   |
|--------------|---------|
| Entrypoint   | 0x0000  |
| Data Size    | 1 bytes |
| Instructions | 1       |

```
      00 01 02 03 04 05 06 07  08 09 0A 0B 0C 0D 0E 0F
      -- -- -- -- -- -- -- --  -- -- -- -- -- -- -- --
0000: 00                                                .               
```

#### Opcodes

```
  0: 0x0000 [0x00] END_REQSTACK()
```

### Event 35

#### Metadata

| Field        | Value    |
|--------------|----------|
| Entrypoint   | 0x0001   |
| Data Size    | 45 bytes |
| Instructions | 4        |

```
      00 01 02 03 04 05 06 07  08 09 0A 0B 0C 0D 0E 0F
      -- -- -- -- -- -- -- --  -- -- -- -- -- -- -- --
0000:    B6 0B 00 80 00 80 01  80 02 80 02 80 02 80 02   ...............
0010: 80 03 80 04 80 B4 00 00  00 4D 61 72 6A 61 6D 69  .........Marjami
0020: 00 00 00 00 00 00 00 00  00 B5 00 00 00 00        ..............  
```

#### Opcodes

```
  0: 0x0001 [0xB6] ENTITY_APPEARANCE_HANDLER(case=Full entity look, race=2*, hair=2*, head=0*, body=262*, hands=262*, legs=262*, feet=262*, main=183*, sub=181*)
  1: 0x0015 [0xB4] UI_WINDOW_STRING_HANDLER(case=0x00 - Copy string from opcode, work_offset=ExtData[1]->WorkLocal[0], string="Marjami")
  2: 0x0029 [0xB5] SET_EVENT_ENTITY_NAME: Change EventEntity name to ExtData[1]->WorkLocal[0]
  3: 0x002D [0x00] END_REQSTACK()
```

### Event 65535.1

#### Metadata

| Field        | Value   |
|--------------|---------|
| Entrypoint   | 0x002E  |
| Data Size    | 7 bytes |
| Instructions | 3       |

```
      00 01 02 03 04 05 06 07  08 09 0A 0B 0C 0D 0E 0F
      -- -- -- -- -- -- -- --  -- -- -- -- -- -- -- --
0020:                                            AB 03                ..
0030: AC 01 05 80 00                                    .....           
```

#### Opcodes

```
  0: 0x002E [0xAB] EventEntity->Render.Flags0 ^= 0x20000 // Toggle bit 17
  1: 0x0030 [0xAC] EventEntity->StatusEvent = 1*
  2: 0x0034 [0x00] END_REQSTACK()
```

### Event 65535.2

#### Metadata

| Field        | Value   |
|--------------|---------|
| Entrypoint   | 0x0035  |
| Data Size    | 7 bytes |
| Instructions | 3       |

```
      00 01 02 03 04 05 06 07  08 09 0A 0B 0C 0D 0E 0F
      -- -- -- -- -- -- -- --  -- -- -- -- -- -- -- --
0030:                AC 01 01  80 AB 04 00                   .......    
```

#### Opcodes

```
  0: 0x0035 [0xAC] EventEntity->StatusEvent = 0*
  1: 0x0039 [0xAB] EventEntity->Render.Flags0 |= 0x40000 // Set bit 18
  2: 0x003B [0x00] END_REQSTACK()
```

### Event 65535.3

#### Metadata

| Field        | Value    |
|--------------|----------|
| Entrypoint   | 0x003C   |
| Data Size    | 16 bytes |
| Instructions | 4        |

```
      00 01 02 03 04 05 06 07  08 09 0A 0B 0C 0D 0E 0F
      -- -- -- -- -- -- -- --  -- -- -- -- -- -- -- --
0030:                                      6E F8 FF FF              n...
0040: 7F 06 80 99 F8 FF FF 7F  1C 07 80 00              ............    
```

#### Opcodes

```
  0: 0x003C [0x6E] EventEntity uses emote 22*
  1: 0x0043 [0x99] Wait for EventEntity animation to complete
  2: 0x0048 [0x1C] WAIT(110* ticks)
  3: 0x004B [0x00] END_REQSTACK()
```

### Event 65535.4

#### Metadata

| Field        | Value    |
|--------------|----------|
| Entrypoint   | 0x004C   |
| Data Size    | 29 bytes |
| Instructions | 3        |

```
      00 01 02 03 04 05 06 07  08 09 0A 0B 0C 0D 0E 0F
      -- -- -- -- -- -- -- --  -- -- -- -- -- -- -- --
0040:                                      66 08 80 F8              f...
0050: FF FF 7F F8 FF FF 7F 73  69 6E 30 53 F8 FF FF 7F  .......sin0S....
0060: F8 FF FF 7F 73 69 6E 30  00                       ....sin0.       
```

#### Opcodes

```
  0: 0x004C [0x66] LOAD_EXT_SCHEDULER_MAIN: Load scheduler "sin0" with entities [EventEntity, EventEntity], work=88*
  1: 0x005B [0x53] WAIT_SCHEDULER_TASK: Wait for scheduler "sin0" with entities [EventEntity, EventEntity]
  2: 0x0068 [0x00] END_REQSTACK()
```
