# 0x7FFFFFF0 - Zone Events

## Common Data

| Field            | Value                    |
|------------------|--------------------------|
| Zone             | Cirdas Caverns (ID: 270) |
| Block Size       | 2768 bytes               |
| Total Events     | 38                       |
| References Count | 117                      |

## List of Events

| Event ID                   | Entrypoint   |   Size |   Instructions |
|----------------------------|--------------|--------|----------------|
| [65535](#event-65535)      | 0x0000       |      1 |              1 |
| [65534](#event-65534)      | 0x0001       |      1 |              1 |
| [65535.1](#event-655351)   | 0x0002       |      6 |              2 |
| [65535.2](#event-655352)   | 0x0008       |      6 |              2 |
| [65535.3](#event-655353)   | 0x000E       |     37 |              5 |
| [65535.4](#event-655354)   | 0x0033       |     37 |              5 |
| [65535.5](#event-655355)   | 0x0058       |     29 |              5 |
| [65535.6](#event-655356)   | 0x0075       |      7 |              3 |
| [65535.7](#event-655357)   | 0x007C       |      7 |              3 |
| [65535.8](#event-655358)   | 0x0083       |     10 |              2 |
| [65535.9](#event-655359)   | 0x008D       |     10 |              2 |
| [65535.10](#event-6553510) | 0x0097       |     11 |              5 |
| [65535.11](#event-6553511) | 0x00A2       |     10 |              2 |
| [65535.12](#event-6553512) | 0x00AC       |     14 |              4 |
| [65535.13](#event-6553513) | 0x00BA       |     14 |              4 |
| [65535.14](#event-6553514) | 0x00C8       |      6 |              2 |
| [65535.15](#event-6553515) | 0x00CE       |      6 |              2 |
| [65535.16](#event-6553516) | 0x00D4       |      6 |              2 |
| [65535.17](#event-6553517) | 0x00DA       |      6 |              2 |
| [5515](#event-5515)        | 0x00E0       |   1234 |            244 |
| [5504](#event-5504)        | 0x05B2       |    276 |             46 |
| [65535.18](#event-6553518) | 0x06C6       |     24 |              4 |
| [65535.19](#event-6553519) | 0x06DE       |     24 |              4 |
| [65535.20](#event-6553520) | 0x06F6       |     27 |              5 |
| [65535.21](#event-6553521) | 0x0711       |     24 |              4 |
| [65535.22](#event-6553522) | 0x0729       |     37 |              5 |
| [65535.23](#event-6553523) | 0x074E       |     37 |              5 |
| [65535.24](#event-6553524) | 0x0773       |     42 |              6 |
| [65535.25](#event-6553525) | 0x079D       |     15 |              5 |
| [65535.26](#event-6553526) | 0x07AC       |     15 |              5 |
| [65535.27](#event-6553527) | 0x07BB       |     32 |              8 |
| [65535.28](#event-6553528) | 0x07DB       |     14 |              4 |
| [65535.29](#event-6553529) | 0x07E9       |     14 |              4 |
| [65535.30](#event-6553530) | 0x07F7       |     14 |              4 |
| [65535.31](#event-6553531) | 0x0805       |     27 |              3 |
| [65535.32](#event-6553532) | 0x0820       |     24 |              6 |
| [65535.33](#event-6553533) | 0x0838       |     14 |              4 |
| [65535.34](#event-6553534) | 0x0846       |     14 |              4 |

## DAT References (imed_data)

|   Index | Hex Value   |   Dec Value |
|---------|-------------|-------------|
|       0 | 0x0001      |           1 |
|       1 | 0x0000      |           0 |
|       2 | 0x6FBDB     |      457691 |
|       3 | 0x1857C     |       99708 |
|       4 | 0x283C      |       10300 |
|       5 | 0xFFFFF894  |  4294965396 |
|       6 | 0x6F7F4     |      456692 |
|       7 | 0x18918     |      100632 |
|       8 | 0x0D06      |        3334 |
|       9 | 0x0028      |          40 |
|      10 | 0x6FF69     |      458601 |
|      11 | 0x18D14     |      101652 |
|      12 | 0x0CDD      |        3293 |
|      13 | 0x6FFDC     |      458716 |
|      14 | 0x18EE7     |      102119 |
|      15 | 0x000D      |          13 |
|      16 | 0x70285     |      459397 |
|      17 | 0x19ACC     |      105164 |
|      18 | 0x27D0      |       10192 |
|      19 | 0x0003      |           3 |
|      20 | 0x001F      |          31 |
|      21 | 0xFFFFFFFF  |  4294967295 |
|      22 | 0x1E4D      |        7757 |
|      23 | 0x40000000  |  1073741824 |
|      24 | 0x000B      |          11 |
|      25 | 0x000C      |          12 |
|      26 | 0x000F      |          15 |
|      27 | 0x0010      |          16 |
|      28 | 0x001D      |          29 |
|      29 | 0x0015      |          21 |
|      30 | 0x1E5A      |        7770 |
|      31 | 0x1E39      |        7737 |
|      32 | 0x1E3A      |        7738 |
|      33 | 0x1E41      |        7745 |
|      34 | 0x1E3C      |        7740 |
|      35 | 0x0002      |           2 |
|      36 | 0x0005      |           5 |
|      37 | 0x1E3E      |        7742 |
|      38 | 0x003C      |          60 |
|      39 | 0x0078      |         120 |
|      40 | 0x0004      |           4 |
|      41 | 0x0006      |           6 |
|      42 | 0x0007      |           7 |
|      43 | 0x0008      |           8 |
|      44 | 0x0356      |         854 |
|      45 | 0x0103      |         259 |
|      46 | 0x1E4A      |        7754 |
|      47 | 0x035F      |         863 |
|      48 | 0x0360      |         864 |
|      49 | 0x0361      |         865 |
|      50 | 0x0362      |         866 |
|      51 | 0x0363      |         867 |
|      52 | 0x0364      |         868 |
|      53 | 0x0365      |         869 |
|      54 | 0x0366      |         870 |
|      55 | 0x0367      |         871 |
|      56 | 0x1E3B      |        7739 |
|      57 | 0x005A      |          90 |
|      58 | 0x00C9      |         201 |
|      59 | 0x002D      |          45 |
|      60 | 0x00C8      |         200 |
|      61 | 0x0009      |           9 |
|      62 | 0x000A      |          10 |
|      63 | 0x0348      |         840 |
|      64 | 0x0349      |         841 |
|      65 | 0x034A      |         842 |
|      66 | 0x034B      |         843 |
|      67 | 0x034C      |         844 |
|      68 | 0x034D      |         845 |
|      69 | 0x034E      |         846 |
|      70 | 0x034F      |         847 |
|      71 | 0x0350      |         848 |
|      72 | 0x0351      |         849 |
|      73 | 0x0352      |         850 |
|      74 | 0x0353      |         851 |
|      75 | 0x0354      |         852 |
|      76 | 0x0355      |         853 |
|      77 | 0x0357      |         855 |
|      78 | 0x0384      |         900 |
|      79 | 0x0385      |         901 |
|      80 | 0x0108      |         264 |
|      81 | 0x010F      |         271 |
|      82 | 0x00E5      |         229 |
|      83 | 0x0046      |          70 |
|      84 | 0x008C      |         140 |
|      85 | 0x00D2      |         210 |
|      86 | 0xFFFDDF67  |  4294827879 |
|      87 | 0xCD1F      |       52511 |
|      88 | 0x2758      |       10072 |
|      89 | 0xFFFDDC61  |  4294827105 |
|      90 | 0xB39F      |       45983 |
|      91 | 0x2691      |        9873 |
|      92 | 0xFFFE58A0  |  4294858912 |
|      93 | 0x37208     |      225800 |
|      94 | 0xFFFFEA60  |  4294961760 |
|      95 | 0x001E      |          30 |
|      96 | 0xFFFDD50F  |  4294825231 |
|      97 | 0x3C4E7     |      247015 |
|      98 | 0x781C      |       30748 |
|      99 | 0xFFFE795C  |  4294867292 |
|     100 | 0x3334D     |      209741 |
|     101 | 0x79BD      |       31165 |
|     102 | 0x25F57     |      155479 |
|     103 | 0x242DB     |      148187 |
|     104 | 0x2747      |       10055 |
|     105 | 0xFFFE5BB0  |  4294859696 |
|     106 | 0x35490     |      218256 |
|     107 | 0x7503      |       29955 |
|     108 | 0xFFFE6465  |  4294861925 |
|     109 | 0x34AC6     |      215750 |
|     110 | 0x7437      |       29751 |
|     111 | 0x685B5     |      427445 |
|     112 | 0xFFFC13D6  |  4294710230 |
|     113 | 0x83F2      |       33778 |
|     114 | 0x58A6B     |      363115 |
|     115 | 0x2F38C     |      193420 |
|     116 | 0x74BE      |       29886 |

## String References

- **7737**: Only party members present with you in this area will be transported to [/this skirmish in ////this alluvion skirmish in /]$8.
- **7738**: Proceed? [Yes./No.]
- **7739**: Now entering [/a skirmish in ////an alluvion skirmish in /]$8.
- **7740**: You have chosen not to enter [/this skirmish in ////this alluvion skirmish in /]$8.
- **7742**: You cannot enter at this time. Please wait a moment and try again.
- **7745**: Your request for entry is being considered...
- **7754**: Now permeating the mists surrounding the [fracture/obscured domain].
- **7757**: Enter which battlefield? [None./Endeavoring to Awaken./Endeavoring to Awaken./ /Behind the Sluices./Stonewalled./The Gates./Saved by the Bell./Quiescence./The Charlatan./Yggdrasil Beckons./Yggdrasil Beckons./Watery Grave./Mistress of Ceremonies./A Barrel of Laughs./Sinister Reign./The Ygnas Directive 6./Skirmishes./[Fractures/Obscured Domains]./Alluvion skirmishes./The Silent Forest./Wind of Eternity./Phantasmic Heroes.]
- **7770**: Entering [/Skrimish: ////Alluvion Skirmish: /]$8. Proceed?

## Events

### Event 65535

#### Metadata

| Field        | Value   |
|--------------|---------|
| Entrypoint   | 0x0000  |
| Data Size    | 1 bytes |
| Instructions | 1       |

```
      00 01 02 03 04 05 06 07  08 09 0A 0B 0C 0D 0E 0F
      -- -- -- -- -- -- -- --  -- -- -- -- -- -- -- --
0000: 00                                                .               
```

#### Opcodes

```
  0: 0x0000 [0x00] END_REQSTACK()
```

### Event 65534

#### Metadata

| Field        | Value   |
|--------------|---------|
| Entrypoint   | 0x0001  |
| Data Size    | 1 bytes |
| Instructions | 1       |

```
      00 01 02 03 04 05 06 07  08 09 0A 0B 0C 0D 0E 0F
      -- -- -- -- -- -- -- --  -- -- -- -- -- -- -- --
0000:    00                                              .              
```

#### Opcodes

```
  0: 0x0001 [0x00] END_REQSTACK()
```

### Event 65535.1

#### Metadata

| Field        | Value   |
|--------------|---------|
| Entrypoint   | 0x0002  |
| Data Size    | 6 bytes |
| Instructions | 2       |

```
      00 01 02 03 04 05 06 07  08 09 0A 0B 0C 0D 0E 0F
      -- -- -- -- -- -- -- --  -- -- -- -- -- -- -- --
0000:       03 02 10 07 7F 00                             ......        
```

#### Opcodes

```
  0: 0x0002 [0x03] Work_Zone[2] = Entity->Race
  1: 0x0007 [0x00] END_REQSTACK()
```

### Event 65535.2

#### Metadata

| Field        | Value   |
|--------------|---------|
| Entrypoint   | 0x0008  |
| Data Size    | 6 bytes |
| Instructions | 2       |

```
      00 01 02 03 04 05 06 07  08 09 0A 0B 0C 0D 0E 0F
      -- -- -- -- -- -- -- --  -- -- -- -- -- -- -- --
0000:                          03 02 10 0B 7F 00                ......  
```

#### Opcodes

```
  0: 0x0008 [0x03] Work_Zone[2] = (Entity->Render.Flags01 >> 25) & 1
  1: 0x000D [0x00] END_REQSTACK()
```

### Event 65535.3

#### Metadata

| Field        | Value    |
|--------------|----------|
| Entrypoint   | 0x000E   |
| Data Size    | 37 bytes |
| Instructions | 5        |

```
      00 01 02 03 04 05 06 07  08 09 0A 0B 0C 0D 0E 0F
      -- -- -- -- -- -- -- --  -- -- -- -- -- -- -- --
0000:                                            03 13                ..
0010: 00 07 7F 1A 32 06 66 14  00 F8 FF FF 7F F8 FF FF  ....2.f.........
0020: 7F 73 68 61 30 53 F8 FF  FF 7F F8 FF FF 7F 73 68  .sha0S........sh
0030: 61 30 00                                          a0.             
```

#### Opcodes

```
  0: 0x000E [0x03] ExtData[1]->WorkLocal[19] = Entity->Race
  1: 0x0013 [0x1A] CALL_SUBROUTINE(address=0x0632)
  2: 0x0016 [0x66] LOAD_EXT_SCHEDULER_MAIN: Load scheduler "sha0" with entities [EventEntity, EventEntity], work=ExtData[1]->WorkLocal[20]
  3: 0x0025 [0x53] WAIT_SCHEDULER_TASK: Wait for scheduler "sha0" with entities [EventEntity, EventEntity]
  4: 0x0032 [0x00] END_REQSTACK()
```

### Event 65535.4

#### Metadata

| Field        | Value    |
|--------------|----------|
| Entrypoint   | 0x0033   |
| Data Size    | 37 bytes |
| Instructions | 5        |

```
      00 01 02 03 04 05 06 07  08 09 0A 0B 0C 0D 0E 0F
      -- -- -- -- -- -- -- --  -- -- -- -- -- -- -- --
0030:          03 13 00 07 7F  1A 32 06 66 14 00 F8 FF     ......2.f....
0040: FF 7F F8 FF FF 7F 73 68  61 31 53 F8 FF FF 7F F8  ......sha1S.....
0050: FF FF 7F 73 68 61 31 00                           ...sha1.        
```

#### Opcodes

```
  0: 0x0033 [0x03] ExtData[1]->WorkLocal[19] = Entity->Race
  1: 0x0038 [0x1A] CALL_SUBROUTINE(address=0x0632)
  2: 0x003B [0x66] LOAD_EXT_SCHEDULER_MAIN: Load scheduler "sha1" with entities [EventEntity, EventEntity], work=ExtData[1]->WorkLocal[20]
  3: 0x004A [0x53] WAIT_SCHEDULER_TASK: Wait for scheduler "sha1" with entities [EventEntity, EventEntity]
  4: 0x0057 [0x00] END_REQSTACK()
```

### Event 65535.5

#### Metadata

| Field        | Value    |
|--------------|----------|
| Entrypoint   | 0x0058   |
| Data Size    | 29 bytes |
| Instructions | 5        |

```
      00 01 02 03 04 05 06 07  08 09 0A 0B 0C 0D 0E 0F
      -- -- -- -- -- -- -- --  -- -- -- -- -- -- -- --
0050:                          03 13 00 07 7F 1A 57 06          ......W.
0060: 07 14 00 00 80 66 14 00  F8 FF FF 7F F8 FF FF 7F  .....f..........
0070: 70 61 73 30 00                                    pas0.           
```

#### Opcodes

```
  0: 0x0058 [0x03] ExtData[1]->WorkLocal[19] = Entity->Race
  1: 0x005D [0x1A] CALL_SUBROUTINE(address=0x0657)
  2: 0x0060 [0x07] ExtData[1]->WorkLocal[20] += 1*
  3: 0x0065 [0x66] LOAD_EXT_SCHEDULER_MAIN: Load scheduler "pas0" with entities [EventEntity, EventEntity], work=ExtData[1]->WorkLocal[20]
  4: 0x0074 [0x00] END_REQSTACK()
```

### Event 65535.6

#### Metadata

| Field        | Value   |
|--------------|---------|
| Entrypoint   | 0x0075  |
| Data Size    | 7 bytes |
| Instructions | 3       |

```
      00 01 02 03 04 05 06 07  08 09 0A 0B 0C 0D 0E 0F
      -- -- -- -- -- -- -- --  -- -- -- -- -- -- -- --
0070:                AB 03 AC  01 00 80 00                   .......    
```

#### Opcodes

```
  0: 0x0075 [0xAB] EventEntity->Render.Flags0 ^= 0x20000 // Toggle bit 17
  1: 0x0077 [0xAC] EventEntity->StatusEvent = 1*
  2: 0x007B [0x00] END_REQSTACK()
```

### Event 65535.7

#### Metadata

| Field        | Value   |
|--------------|---------|
| Entrypoint   | 0x007C  |
| Data Size    | 7 bytes |
| Instructions | 3       |

```
      00 01 02 03 04 05 06 07  08 09 0A 0B 0C 0D 0E 0F
      -- -- -- -- -- -- -- --  -- -- -- -- -- -- -- --
0070:                                      AC 01 01 80              ....
0080: AB 04 00                                          ...             
```

#### Opcodes

```
  0: 0x007C [0xAC] EventEntity->StatusEvent = 0*
  1: 0x0080 [0xAB] EventEntity->Render.Flags0 |= 0x40000 // Set bit 18
  2: 0x0082 [0x00] END_REQSTACK()
```

### Event 65535.8

#### Metadata

| Field        | Value    |
|--------------|----------|
| Entrypoint   | 0x0083   |
| Data Size    | 10 bytes |
| Instructions | 2        |

```
      00 01 02 03 04 05 06 07  08 09 0A 0B 0C 0D 0E 0F
      -- -- -- -- -- -- -- --  -- -- -- -- -- -- -- --
0080:          37 02 80 03 80  04 80 05 80 00              7.........   
```

#### Opcodes

```
  0: 0x0083 [0x37] UPDATE_EVENT_POSITION_AND_DIR: x=457.691*, z=99.708*, y=10.300*, direction=377476052.2°*
  1: 0x008C [0x00] END_REQSTACK()
```

### Event 65535.9

#### Metadata

| Field        | Value    |
|--------------|----------|
| Entrypoint   | 0x008D   |
| Data Size    | 10 bytes |
| Instructions | 2        |

```
      00 01 02 03 04 05 06 07  08 09 0A 0B 0C 0D 0E 0F
      -- -- -- -- -- -- -- --  -- -- -- -- -- -- -- --
0080:                                         37 06 80               7..
0090: 07 80 04 80 08 80 00                              .......         
```

#### Opcodes

```
  0: 0x008D [0x37] UPDATE_EVENT_POSITION_AND_DIR: x=456.692*, z=100.632*, y=10.300*, direction=293.0°*
  1: 0x0096 [0x00] END_REQSTACK()
```

### Event 65535.10

#### Metadata

| Field        | Value    |
|--------------|----------|
| Entrypoint   | 0x0097   |
| Data Size    | 11 bytes |
| Instructions | 5        |

```
      00 01 02 03 04 05 06 07  08 09 0A 0B 0C 0D 0E 0F
      -- -- -- -- -- -- -- --  -- -- -- -- -- -- -- --
0090:                      1C  09 80 1E 13 E3 10 01 6F         ........o
00A0: 70 00                                             p.              
```

#### Opcodes

```
  0: 0x0097 [0x1C] WAIT(40* ticks)
  1: 0x009A [0x1E] EventEntity looks at Sylvie (ID: 17883923/0x0110E313) and starts talking
  2: 0x009F [0x6F] WAIT_FRAME_DELAY: Yield until WaitTime reaches zero
  3: 0x00A0 [0x70] WAIT_ENTITY_RENDER_FLAG: Wait while EventEntity->Render.Flags3 bit 2 is set (cancel turn if not)
  4: 0x00A1 [0x00] END_REQSTACK()
```

### Event 65535.11

#### Metadata

| Field        | Value    |
|--------------|----------|
| Entrypoint   | 0x00A2   |
| Data Size    | 10 bytes |
| Instructions | 2        |

```
      00 01 02 03 04 05 06 07  08 09 0A 0B 0C 0D 0E 0F
      -- -- -- -- -- -- -- --  -- -- -- -- -- -- -- --
00A0:       37 0A 80 0B 80 04  80 0C 80 00                7.........    
```

#### Opcodes

```
  0: 0x00A2 [0x37] UPDATE_EVENT_POSITION_AND_DIR: x=458.601*, z=101.652*, y=10.300*, direction=289.4°*
  1: 0x00AB [0x00] END_REQSTACK()
```

### Event 65535.12

#### Metadata

| Field        | Value    |
|--------------|----------|
| Entrypoint   | 0x00AC   |
| Data Size    | 14 bytes |
| Instructions | 4        |

```
      00 01 02 03 04 05 06 07  08 09 0A 0B 0C 0D 0E 0F
      -- -- -- -- -- -- -- --  -- -- -- -- -- -- -- --
00A0:                                      32 09 80 1F              2...
00B0: 00 0D 80 0E 80 04 80 1F  01 00                    ..........      
```

#### Opcodes

```
  0: 0x00AC [0x32] ExtData[1]->MainSpeed = 40* * 0.1
  1: 0x00AF [0x1F] MOVE_ENTITY: EventEntity moves to X=458.716*, Z=102.119*, Y=10.300*
  2: 0x00B7 [0x1F] MOVE_ENTITY: Update entity position (mode=1)
  3: 0x00B9 [0x00] END_REQSTACK()
```

### Event 65535.13

#### Metadata

| Field        | Value    |
|--------------|----------|
| Entrypoint   | 0x00BA   |
| Data Size    | 14 bytes |
| Instructions | 4        |

```
      00 01 02 03 04 05 06 07  08 09 0A 0B 0C 0D 0E 0F
      -- -- -- -- -- -- -- --  -- -- -- -- -- -- -- --
00B0:                                32 0F 80 1F 00 10            2.....
00C0: 80 11 80 12 80 1F 01 00                           ........        
```

#### Opcodes

```
  0: 0x00BA [0x32] ExtData[1]->MainSpeed = 13* * 0.1
  1: 0x00BD [0x1F] MOVE_ENTITY: EventEntity moves to X=459.397*, Z=105.164*, Y=10.192*
  2: 0x00C5 [0x1F] MOVE_ENTITY: Update entity position (mode=1)
  3: 0x00C7 [0x00] END_REQSTACK()
```

### Event 65535.14

#### Metadata

| Field        | Value   |
|--------------|---------|
| Entrypoint   | 0x00C8  |
| Data Size    | 6 bytes |
| Instructions | 2       |

```
      00 01 02 03 04 05 06 07  08 09 0A 0B 0C 0D 0E 0F
      -- -- -- -- -- -- -- --  -- -- -- -- -- -- -- --
00C0:                          03 02 10 0B 7F 00                ......  
```

#### Opcodes

```
  0: 0x00C8 [0x03] Work_Zone[2] = (Entity->Render.Flags01 >> 25) & 1
  1: 0x00CD [0x00] END_REQSTACK()
```

### Event 65535.15

#### Metadata

| Field        | Value   |
|--------------|---------|
| Entrypoint   | 0x00CE  |
| Data Size    | 6 bytes |
| Instructions | 2       |

```
      00 01 02 03 04 05 06 07  08 09 0A 0B 0C 0D 0E 0F
      -- -- -- -- -- -- -- --  -- -- -- -- -- -- -- --
00C0:                                            03 02                ..
00D0: 10 07 7F 00                                       ....            
```

#### Opcodes

```
  0: 0x00CE [0x03] Work_Zone[2] = Entity->Race
  1: 0x00D3 [0x00] END_REQSTACK()
```

### Event 65535.16

#### Metadata

| Field        | Value   |
|--------------|---------|
| Entrypoint   | 0x00D4  |
| Data Size    | 6 bytes |
| Instructions | 2       |

```
      00 01 02 03 04 05 06 07  08 09 0A 0B 0C 0D 0E 0F
      -- -- -- -- -- -- -- --  -- -- -- -- -- -- -- --
00D0:             03 09 10 07  7F 00                        ......      
```

#### Opcodes

```
  0: 0x00D4 [0x03] Work_Zone[9] = Entity->Race
  1: 0x00D9 [0x00] END_REQSTACK()
```

### Event 65535.17

#### Metadata

| Field        | Value   |
|--------------|---------|
| Entrypoint   | 0x00DA  |
| Data Size    | 6 bytes |
| Instructions | 2       |

```
      00 01 02 03 04 05 06 07  08 09 0A 0B 0C 0D 0E 0F
      -- -- -- -- -- -- -- --  -- -- -- -- -- -- -- --
00D0:                                03 02 10 06 7F 00            ......
```

#### Opcodes

```
  0: 0x00DA [0x03] Work_Zone[2] = Entity->JobId (if LocalPlayer)
  1: 0x00DF [0x00] END_REQSTACK()
```

### Event 5515

#### Metadata

| Field        | Value      |
|--------------|------------|
| Entrypoint   | 0x00E0     |
| Data Size    | 1234 bytes |
| Instructions | 242        |

```
      00 01 02 03 04 05 06 07  08 09 0A 0B 0C 0D 0E 0F
      -- -- -- -- -- -- -- --  -- -- -- -- -- -- -- --
00E0: 42 03 0E 00 13 80 03 11  00 03 10 06 01 10 06 10  B...............
00F0: 00 06 05 00 06 06 00 06  0F 00 40 01 80 14 80 0F  ..........@.....
0100: 00 15 80 0F 0F 00 11 00  10 0F 00 00 80 24 16 80  .............$..
0110: 01 80 0F 00 25 02 00 10  01 80 00 27 01 03 01 10  ....%......'....
0120: 17 80 21 00 01 27 01 03  10 00 00 10 0C 10 00 9D  ..!..'..........
0130: 00 32 05 05 00 10 00 40  01 80 18 80 01 10 05 00  .2.....@........
0140: 40 19 80 1A 80 01 10 01  80 40 1B 80 1C 80 01 10  @........@......
0150: 06 00 03 0C 00 01 10 06  03 00 05 07 00 02 03 00  ................
0160: 01 80 00 C7 01 9D 00 62  05 02 10 10 00 03 03 10  .......b........
0170: 0E 00 02 10 00 1D 80 00  81 01 48 1E 80 23 01 85  ..........H..#..
0180: 01 48 1F 80 23 24 20 80  07 00 01 80 25 02 00 10  .H..#$ .....%...
0190: 01 80 00 A1 01 06 07 00  48 21 80 1A C9 01 01 C4  ........H!......
01A0: 01 02 00 10 00 80 00 C4  01 03 01 10 17 80 9D 00  ................
01B0: 62 05 02 10 10 00 03 03  10 0E 00 48 22 80 05 03  b..........H"...
01C0: 00 01 C4 01 01 5D 01 21  00 06 08 00 06 0B 00 06  .....].!........
01D0: 09 00 02 08 00 01 80 00  F9 01 02 0B 00 01 80 80  ................
01E0: E8 01 1A FA 01 01 F6 01  02 0B 00 00 80 80 F6 01  ................
01F0: 1A BB 02 01 F6 01 01 D2  01 1B 03 01 10 0C 00 40  ...............@
0200: 19 80 1A 80 01 10 0B 00  43 00 43 01 03 0A 00 09  ........C.C.....
0210: 10 03 01 10 01 80 02 0A  00 00 80 80 26 02 03 0B  ............&...
0220: 00 00 80 01 BA 02 02 0A  00 23 80 80 4C 02 0B 09  .........#..L...
0230: 00 02 09 00 24 80 02 46  02 05 08 00 48 25 80 23  ....$..F....H%.#
0240: 1C 26 80 01 49 02 1C 27  80 01 BA 02 02 0A 00 13  .&..I..'........
0250: 80 80 62 02 03 01 10 17  80 05 08 00 05 03 00 01  ..b.............
0260: BA 02 02 0A 00 28 80 80  78 02 03 01 10 17 80 05  .....(..x.......
0270: 08 00 05 03 00 01 BA 02  02 0A 00 24 80 80 8E 02  ...........$....
0280: 03 01 10 17 80 05 08 00  05 03 00 01 BA 02 02 0A  ................
0290: 00 29 80 80 A4 02 03 01  10 17 80 05 08 00 05 03  .)..............
02A0: 00 01 BA 02 02 0A 00 2A  80 80 BA 02 03 01 10 17  .......*........
02B0: 80 05 08 00 05 03 00 01  BA 02 1B 03 01 10 0C 00  ................
02C0: 40 19 80 1A 80 01 10 0B  00 43 00 43 01 03 01 10  @........C.C....
02D0: 01 80 03 0A 00 09 10 02  0A 00 13 80 80 EA 02 03  ................
02E0: 01 10 17 80 05 08 00 01  31 05 02 0A 00 28 80 80  ........1....(..
02F0: 00 03 03 01 10 17 80 05  08 00 05 03 00 01 31 05  ..............1.
0300: 02 0A 00 24 80 80 16 03  03 01 10 17 80 05 08 00  ...$............
0310: 05 03 00 01 31 05 02 0A  00 29 80 80 2C 03 03 01  ....1....)..,...
0320: 10 17 80 05 08 00 05 03  00 01 31 05 02 0A 00 2A  ..........1....*
0330: 80 80 42 03 03 01 10 17  80 05 08 00 05 03 00 01  ..B.............
0340: 31 05 02 0A 00 2B 80 80  D0 04 02 05 00 2C 80 80  1....+.......,..
0350: 63 03 03 02 10 2D 80 03  03 10 00 80 48 2E 80 23  c....-......H..#
0360: 01 52 04 02 05 00 2F 80  80 7C 03 03 02 10 2D 80  .R..../..|....-.
0370: 03 03 10 00 80 48 2E 80  23 01 52 04 02 05 00 30  .....H..#.R....0
0380: 80 80 95 03 03 02 10 2D  80 03 03 10 00 80 48 2E  .......-......H.
0390: 80 23 01 52 04 02 05 00  31 80 80 AE 03 03 02 10  .#.R....1.......
03A0: 2D 80 03 03 10 00 80 48  2E 80 23 01 52 04 02 05  -......H..#.R...
03B0: 00 32 80 80 C7 03 03 02  10 2D 80 03 03 10 00 80  .2.......-......
03C0: 48 2E 80 23 01 52 04 02  05 00 33 80 80 E0 03 03  H..#.R....3.....
03D0: 02 10 2D 80 03 03 10 00  80 48 2E 80 23 01 52 04  ..-......H..#.R.
03E0: 02 05 00 34 80 80 F9 03  03 02 10 2D 80 03 03 10  ...4.......-....
03F0: 00 80 48 2E 80 23 01 52  04 02 05 00 35 80 80 12  ..H..#.R....5...
0400: 04 03 02 10 2D 80 03 03  10 00 80 48 2E 80 23 01  ....-......H..#.
0410: 52 04 02 05 00 36 80 80  2B 04 03 02 10 2D 80 03  R....6..+....-..
0420: 03 10 00 80 48 2E 80 23  01 52 04 02 05 00 37 80  ....H..#.R....7.
0430: 80 44 04 03 02 10 2D 80  03 03 10 00 80 48 2E 80  .D....-......H..
0440: 23 01 52 04 03 02 10 2D  80 03 03 10 0E 00 48 38  #.R....-......H8
0450: 80 23 62 00 80 F0 FF FF  7F F0 FF FF 7F 6D 61 69  .#b..........mai
0460: 6E 01 80 1C 39 80 45 3A  80 F0 FF FF 7F F0 FF FF  n...9.E:........
0470: 7F 77 68 6F 31 01 80 55  3A 80 F0 FF FF 7F F0 FF  .who1..U:.......
0480: FF 7F 77 68 6F 31 1C 3B  80 45 3C 80 F0 FF FF 7F  ..who1.;.E<.....
0490: F0 FF FF 7F 66 64 6F 31  01 80 55 3C 80 F0 FF FF  ....fdo1..U<....
04A0: 7F F0 FF FF 7F 66 64 6F  31 45 3A 80 F0 FF FF 7F  .....fdo1E:.....
04B0: F0 FF FF 7F 77 68 69 31  01 80 1C 1A 80 30 05 08  ....whi1.....0..
04C0: 00 05 03 00 40 01 80 2A  80 01 10 2B 80 01 31 05  ....@..*...+..1.
04D0: 02 0A 00 3D 80 80 E3 04  03 01 10 17 80 05 08 00  ...=............
04E0: 01 31 05 02 0A 00 3E 80  80 F9 04 03 01 10 17 80  .1....>.........
04F0: 05 08 00 05 03 00 01 31  05 02 0A 00 18 80 80 31  .......1.......1
0500: 05 0B 09 00 02 09 00 1A  80 02 2B 05 03 01 10 0C  ..........+.....
0510: 00 40 19 80 1A 80 01 10  23 80 43 00 43 01 05 08  .@......#.C.C...
0520: 00 48 25 80 23 1C 26 80  01 2E 05 1C 27 80 01 31  .H%.#.&.....'..1
0530: 05 1B 3F 80 40 80 41 80  42 80 43 80 44 80 45 80  ..?.@.A.B.C.D.E.
0540: 46 80 47 80 48 80 49 80  4A 80 4B 80 4C 80 2C 80  F.G.H.I.J.K.L.,.
0550: 4D 80 01 80 01 80 01 80  4E 80 4E 80 4F 80 01 80  M.......N.N.O...
0560: 01 80 2D 80 2D 80 50 80  2D 80 51 80 51 80 50 80  ..-.-.P.-.Q.Q.P.
0570: 2D 80 2D 80 50 80 51 80  2D 80 50 80 2D 80 2D 80  -.-.P.Q.-.P.-.-.
0580: 50 80 01 80 01 80 01 80  50 80 50 80 52 80 01 80  P.......P.P.R...
0590: 01 80 2C 80 2F 80 30 80  31 80 32 80 33 80 34 80  ..,./.0.1.2.3.4.
05A0: 35 80 36 80 37 80 01 80  01 80 01 80 01 80 01 80  5.6.7...........
05B0: 01 80                                             ..              
```

#### Opcodes

```
  0: 0x00E0 [0x42] SET_CLI_EVENT_CANCEL_DATA()
  1: 0x00E1 [0x03] ExtData[1]->WorkLocal[14] = 3*
  2: 0x00E6 [0x03] ExtData[1]->WorkLocal[17] = Work_Zone[3]
  3: 0x00EB [0x06] Work_Zone[1] = 0
  4: 0x00EE [0x06] ExtData[1]->WorkLocal[16] = 0
  5: 0x00F1 [0x06] ExtData[1]->WorkLocal[5] = 0
  6: 0x00F4 [0x06] ExtData[1]->WorkLocal[6] = 0
  7: 0x00F7 [0x06] ExtData[1]->WorkLocal[15] = 0
  8: 0x00FA [0x40] SET_BIT_WORK_RANGE(start_bit=0*, end_bit=31*, target=ExtData[1]->WorkLocal[15], source=4294967295*)
  9: 0x0103 [0x0F] ExtData[1]->WorkLocal[15] ^= ExtData[1]->WorkLocal[17]
 10: 0x0108 [0x10] ExtData[1]->WorkLocal[15] <<= 1*
 11: 0x010D [0x24] CREATE_DIALOG(message_id=7757*, default_option=0*, option_flags=ExtData[1]->WorkLocal[15])
    → "Enter which battlefield? [None./Endeavoring to Awaken./Endeavoring to Awaken./ /Behind the Sluices./Stonewalled./The Gates./Saved by the Bell./Quiescence./The Charlatan./Yggdrasil Beckons./Yggdrasil Beckons./Watery Grave./Mistress of Ceremonies./A Barrel of Laughs./Sinister Reign./The Ygnas Directive 6./Skirmishes./[Fractures/Obscured Domains]./Alluvion skirmishes./The Silent Forest./Wind of Eternity./Phantasmic Heroes.]"
 12: 0x0114 [0x25] WAIT_DIALOG_SELECT()
 13: 0x0115 [0x02] IF !(Work_Zone[0] == 0*) GOTO 0x0127
 14: 0x011D [0x03] Work_Zone[1] = 1073741824*
 15: 0x0122 [0x21] END_EVENT
 16: 0x0123 [0x00] END_REQSTACK()

SUBROUTINE_0127:
 17: 0x0127 [0x03] ExtData[1]->WorkLocal[16] = Work_Zone[0]
 18: 0x012C [0x0C] ExtData[1]->WorkLocal[16]--
 19: 0x012F [0x9D] ExtData[1]->WorkLocal[5] = 0x0532[ExtData[1]->WorkLocal[16]] // Read WORD
 20: 0x0137 [0x40] SET_BIT_WORK_RANGE(start_bit=0*, end_bit=11*, target=Work_Zone[1], source=ExtData[1]->WorkLocal[5])
 21: 0x0140 [0x40] SET_BIT_WORK_RANGE(start_bit=12*, end_bit=15*, target=Work_Zone[1], source=0*)
 22: 0x0149 [0x40] SET_BIT_WORK_RANGE(start_bit=16*, end_bit=29*, target=Work_Zone[1], source=ExtData[1]->WorkLocal[6])
 23: 0x0152 [0x03] ExtData[1]->WorkLocal[12] = Work_Zone[1]
 24: 0x0157 [0x06] ExtData[1]->WorkLocal[3] = 0
 25: 0x015A [0x05] ExtData[1]->WorkLocal[7] = 1

SUBROUTINE_015D:
 26: 0x015D [0x02] IF !(ExtData[1]->WorkLocal[3] == 0*) GOTO 0x01C7
 27: 0x0165 [0x9D] Work_Zone[2] = 0x0562[ExtData[1]->WorkLocal[16]] // Read WORD
 28: 0x016D [0x03] Work_Zone[3] = ExtData[1]->WorkLocal[14]
 29: 0x0172 [0x02] IF !(ExtData[1]->WorkLocal[16] == 21*) GOTO 0x0181
 30: 0x017A [0x48] [System] [7770*]:
    → "Entering [/Skrimish: ////Alluvion Skirmish: /]$8. Proceed?"
 31: 0x017D [0x23] WAIT_FOR_DIALOG_INTERACTION
 32: 0x017E [0x01] GOTO 0x0185
 33: 0x0181 [0x48] [System] [7737*]:
    → "Only party members present with you in this area will be transported to [/this skirmish in ////this alluvion skirmish in /]$8."
 34: 0x0184 [0x23] WAIT_FOR_DIALOG_INTERACTION

SUBROUTINE_0185:
 35: 0x0185 [0x24] CREATE_DIALOG(message_id=7738*, default_option=ExtData[1]->WorkLocal[7], option_flags=0*)
    → "Proceed? [Yes./No.]"
 36: 0x018C [0x25] WAIT_DIALOG_SELECT()
 37: 0x018D [0x02] IF !(Work_Zone[0] == 0*) GOTO 0x01A1
 38: 0x0195 [0x06] ExtData[1]->WorkLocal[7] = 0
 39: 0x0198 [0x48] [System] [7745*]:
    → "Your request for entry is being considered..."
 40: 0x019B [0x1A] CALL_SUBROUTINE(address=0x01C9)
 41: 0x019E [0x01] GOTO 0x01C4
 42: 0x01A1 [0x02] IF !(Work_Zone[0] == 1*) GOTO 0x01C4
 43: 0x01A9 [0x03] Work_Zone[1] = 1073741824*
 44: 0x01AE [0x9D] Work_Zone[2] = 0x0562[ExtData[1]->WorkLocal[16]] // Read WORD
 45: 0x01B6 [0x03] Work_Zone[3] = ExtData[1]->WorkLocal[14]
 46: 0x01BB [0x48] [System] [7740*]:
    → "You have chosen not to enter [/this skirmish in ////this alluvion skirmish in /]$8."
 47: 0x01BE [0x05] ExtData[1]->WorkLocal[3] = 1
 48: 0x01C1 [0x01] GOTO 0x01C4

SUBROUTINE_01C4:
 49: 0x01C4 [0x01] GOTO 0x015D
 50: 0x01C7 [0x21] END_EVENT
 51: 0x01C8 [0x00] END_REQSTACK()

SUBROUTINE_01C9:
 52: 0x01C9 [0x06] ExtData[1]->WorkLocal[8] = 0
 53: 0x01CC [0x06] ExtData[1]->WorkLocal[11] = 0
 54: 0x01CF [0x06] ExtData[1]->WorkLocal[9] = 0

SUBROUTINE_01D2:
 55: 0x01D2 [0x02] IF !(ExtData[1]->WorkLocal[8] == 0*) GOTO 0x01F9
 56: 0x01DA [0x02] IF !(ExtData[1]->WorkLocal[11] == 0*) GOTO 0x01E8
 57: 0x01E2 [0x1A] CALL_SUBROUTINE(address=0x01FA)
 58: 0x01E5 [0x01] GOTO 0x01F6
 59: 0x01E8 [0x02] IF !(ExtData[1]->WorkLocal[11] == 1*) GOTO 0x01F6
 60: 0x01F0 [0x1A] CALL_SUBROUTINE(address=0x02BB)
 61: 0x01F3 [0x01] GOTO 0x01F6

SUBROUTINE_01F6:
 62: 0x01F6 [0x01] GOTO 0x01D2
 63: 0x01F9 [0x1B] RETURN

SUBROUTINE_01FA:
 64: 0x01FA [0x03] Work_Zone[1] = ExtData[1]->WorkLocal[12]
 65: 0x01FF [0x40] SET_BIT_WORK_RANGE(start_bit=12*, end_bit=15*, target=Work_Zone[1], source=ExtData[1]->WorkLocal[11])
 66: 0x0208 [0x43] SEND_EVENT_UPDATE: Send pending tag to server (packet 0x005B)
 67: 0x020A [0x43] SEND_EVENT_UPDATE: Check pending flag (skip if not pending)
 68: 0x020C [0x03] ExtData[1]->WorkLocal[10] = Work_Zone[9]
 69: 0x0211 [0x03] Work_Zone[1] = 0*
 70: 0x0216 [0x02] IF !(ExtData[1]->WorkLocal[10] == 1*) GOTO 0x0226
 71: 0x021E [0x03] ExtData[1]->WorkLocal[11] = 1*
 72: 0x0223 [0x01] GOTO 0x02BA
 73: 0x0226 [0x02] IF !(ExtData[1]->WorkLocal[10] == 2*) GOTO 0x024C
 74: 0x022E [0x0B] ExtData[1]->WorkLocal[9]++
 75: 0x0231 [0x02] IF !(ExtData[1]->WorkLocal[9] <= 5*) GOTO 0x0246
 76: 0x0239 [0x05] ExtData[1]->WorkLocal[8] = 1
 77: 0x023C [0x48] [System] [7742*]:
    → "You cannot enter at this time. Please wait a moment and try again."
 78: 0x023F [0x23] WAIT_FOR_DIALOG_INTERACTION
 79: 0x0240 [0x1C] WAIT(60* ticks)
 80: 0x0243 [0x01] GOTO 0x0249
 81: 0x0246 [0x1C] WAIT(120* ticks)

SUBROUTINE_0249:
 82: 0x0249 [0x01] GOTO 0x02BA
 83: 0x024C [0x02] IF !(ExtData[1]->WorkLocal[10] == 3*) GOTO 0x0262
 84: 0x0254 [0x03] Work_Zone[1] = 1073741824*
 85: 0x0259 [0x05] ExtData[1]->WorkLocal[8] = 1
 86: 0x025C [0x05] ExtData[1]->WorkLocal[3] = 1
 87: 0x025F [0x01] GOTO 0x02BA
 88: 0x0262 [0x02] IF !(ExtData[1]->WorkLocal[10] == 4*) GOTO 0x0278
 89: 0x026A [0x03] Work_Zone[1] = 1073741824*
 90: 0x026F [0x05] ExtData[1]->WorkLocal[8] = 1
 91: 0x0272 [0x05] ExtData[1]->WorkLocal[3] = 1
 92: 0x0275 [0x01] GOTO 0x02BA
 93: 0x0278 [0x02] IF !(ExtData[1]->WorkLocal[10] == 5*) GOTO 0x028E
 94: 0x0280 [0x03] Work_Zone[1] = 1073741824*
 95: 0x0285 [0x05] ExtData[1]->WorkLocal[8] = 1
 96: 0x0288 [0x05] ExtData[1]->WorkLocal[3] = 1
 97: 0x028B [0x01] GOTO 0x02BA
 98: 0x028E [0x02] IF !(ExtData[1]->WorkLocal[10] == 6*) GOTO 0x02A4
 99: 0x0296 [0x03] Work_Zone[1] = 1073741824*
100: 0x029B [0x05] ExtData[1]->WorkLocal[8] = 1
101: 0x029E [0x05] ExtData[1]->WorkLocal[3] = 1
102: 0x02A1 [0x01] GOTO 0x02BA
103: 0x02A4 [0x02] IF !(ExtData[1]->WorkLocal[10] == 7*) GOTO 0x02BA
104: 0x02AC [0x03] Work_Zone[1] = 1073741824*
105: 0x02B1 [0x05] ExtData[1]->WorkLocal[8] = 1
106: 0x02B4 [0x05] ExtData[1]->WorkLocal[3] = 1
107: 0x02B7 [0x01] GOTO 0x02BA

SUBROUTINE_02BA:
108: 0x02BA [0x1B] RETURN

SUBROUTINE_02BB:
109: 0x02BB [0x03] Work_Zone[1] = ExtData[1]->WorkLocal[12]
110: 0x02C0 [0x40] SET_BIT_WORK_RANGE(start_bit=12*, end_bit=15*, target=Work_Zone[1], source=ExtData[1]->WorkLocal[11])
111: 0x02C9 [0x43] SEND_EVENT_UPDATE: Send pending tag to server (packet 0x005B)
112: 0x02CB [0x43] SEND_EVENT_UPDATE: Check pending flag (skip if not pending)
113: 0x02CD [0x03] Work_Zone[1] = 0*
114: 0x02D2 [0x03] ExtData[1]->WorkLocal[10] = Work_Zone[9]
115: 0x02D7 [0x02] IF !(ExtData[1]->WorkLocal[10] == 3*) GOTO 0x02EA
116: 0x02DF [0x03] Work_Zone[1] = 1073741824*
117: 0x02E4 [0x05] ExtData[1]->WorkLocal[8] = 1
118: 0x02E7 [0x01] GOTO 0x0531
119: 0x02EA [0x02] IF !(ExtData[1]->WorkLocal[10] == 4*) GOTO 0x0300
120: 0x02F2 [0x03] Work_Zone[1] = 1073741824*
121: 0x02F7 [0x05] ExtData[1]->WorkLocal[8] = 1
122: 0x02FA [0x05] ExtData[1]->WorkLocal[3] = 1
123: 0x02FD [0x01] GOTO 0x0531
124: 0x0300 [0x02] IF !(ExtData[1]->WorkLocal[10] == 5*) GOTO 0x0316
125: 0x0308 [0x03] Work_Zone[1] = 1073741824*
126: 0x030D [0x05] ExtData[1]->WorkLocal[8] = 1
127: 0x0310 [0x05] ExtData[1]->WorkLocal[3] = 1
128: 0x0313 [0x01] GOTO 0x0531
129: 0x0316 [0x02] IF !(ExtData[1]->WorkLocal[10] == 6*) GOTO 0x032C
130: 0x031E [0x03] Work_Zone[1] = 1073741824*
131: 0x0323 [0x05] ExtData[1]->WorkLocal[8] = 1
132: 0x0326 [0x05] ExtData[1]->WorkLocal[3] = 1
133: 0x0329 [0x01] GOTO 0x0531
134: 0x032C [0x02] IF !(ExtData[1]->WorkLocal[10] == 7*) GOTO 0x0342
135: 0x0334 [0x03] Work_Zone[1] = 1073741824*
136: 0x0339 [0x05] ExtData[1]->WorkLocal[8] = 1
137: 0x033C [0x05] ExtData[1]->WorkLocal[3] = 1
138: 0x033F [0x01] GOTO 0x0531
139: 0x0342 [0x02] IF !(ExtData[1]->WorkLocal[10] == 8*) GOTO 0x04D0
140: 0x034A [0x02] IF !(ExtData[1]->WorkLocal[5] == 854*) GOTO 0x0363
141: 0x0352 [0x03] Work_Zone[2] = 259*
142: 0x0357 [0x03] Work_Zone[3] = 1*
143: 0x035C [0x48] [System] [7754*]:
    → "Now permeating the mists surrounding the [fracture/obscured domain]."
144: 0x035F [0x23] WAIT_FOR_DIALOG_INTERACTION
145: 0x0360 [0x01] GOTO 0x0452
146: 0x0363 [0x02] IF !(ExtData[1]->WorkLocal[5] == 863*) GOTO 0x037C
147: 0x036B [0x03] Work_Zone[2] = 259*
148: 0x0370 [0x03] Work_Zone[3] = 1*
149: 0x0375 [0x48] [System] [7754*]:
    → "Now permeating the mists surrounding the [fracture/obscured domain]."
150: 0x0378 [0x23] WAIT_FOR_DIALOG_INTERACTION
151: 0x0379 [0x01] GOTO 0x0452
152: 0x037C [0x02] IF !(ExtData[1]->WorkLocal[5] == 864*) GOTO 0x0395
153: 0x0384 [0x03] Work_Zone[2] = 259*
154: 0x0389 [0x03] Work_Zone[3] = 1*
155: 0x038E [0x48] [System] [7754*]:
    → "Now permeating the mists surrounding the [fracture/obscured domain]."
156: 0x0391 [0x23] WAIT_FOR_DIALOG_INTERACTION
157: 0x0392 [0x01] GOTO 0x0452
158: 0x0395 [0x02] IF !(ExtData[1]->WorkLocal[5] == 865*) GOTO 0x03AE
159: 0x039D [0x03] Work_Zone[2] = 259*
160: 0x03A2 [0x03] Work_Zone[3] = 1*
161: 0x03A7 [0x48] [System] [7754*]:
    → "Now permeating the mists surrounding the [fracture/obscured domain]."
162: 0x03AA [0x23] WAIT_FOR_DIALOG_INTERACTION
163: 0x03AB [0x01] GOTO 0x0452
164: 0x03AE [0x02] IF !(ExtData[1]->WorkLocal[5] == 866*) GOTO 0x03C7
165: 0x03B6 [0x03] Work_Zone[2] = 259*
166: 0x03BB [0x03] Work_Zone[3] = 1*
167: 0x03C0 [0x48] [System] [7754*]:
    → "Now permeating the mists surrounding the [fracture/obscured domain]."
168: 0x03C3 [0x23] WAIT_FOR_DIALOG_INTERACTION
169: 0x03C4 [0x01] GOTO 0x0452
170: 0x03C7 [0x02] IF !(ExtData[1]->WorkLocal[5] == 867*) GOTO 0x03E0
171: 0x03CF [0x03] Work_Zone[2] = 259*
172: 0x03D4 [0x03] Work_Zone[3] = 1*
173: 0x03D9 [0x48] [System] [7754*]:
    → "Now permeating the mists surrounding the [fracture/obscured domain]."
174: 0x03DC [0x23] WAIT_FOR_DIALOG_INTERACTION
175: 0x03DD [0x01] GOTO 0x0452
176: 0x03E0 [0x02] IF !(ExtData[1]->WorkLocal[5] == 868*) GOTO 0x03F9
177: 0x03E8 [0x03] Work_Zone[2] = 259*
178: 0x03ED [0x03] Work_Zone[3] = 1*
179: 0x03F2 [0x48] [System] [7754*]:
    → "Now permeating the mists surrounding the [fracture/obscured domain]."
180: 0x03F5 [0x23] WAIT_FOR_DIALOG_INTERACTION
181: 0x03F6 [0x01] GOTO 0x0452
182: 0x03F9 [0x02] IF !(ExtData[1]->WorkLocal[5] == 869*) GOTO 0x0412
183: 0x0401 [0x03] Work_Zone[2] = 259*
184: 0x0406 [0x03] Work_Zone[3] = 1*
185: 0x040B [0x48] [System] [7754*]:
    → "Now permeating the mists surrounding the [fracture/obscured domain]."
186: 0x040E [0x23] WAIT_FOR_DIALOG_INTERACTION
187: 0x040F [0x01] GOTO 0x0452
188: 0x0412 [0x02] IF !(ExtData[1]->WorkLocal[5] == 870*) GOTO 0x042B
189: 0x041A [0x03] Work_Zone[2] = 259*
190: 0x041F [0x03] Work_Zone[3] = 1*
191: 0x0424 [0x48] [System] [7754*]:
    → "Now permeating the mists surrounding the [fracture/obscured domain]."
192: 0x0427 [0x23] WAIT_FOR_DIALOG_INTERACTION
193: 0x0428 [0x01] GOTO 0x0452
194: 0x042B [0x02] IF !(ExtData[1]->WorkLocal[5] == 871*) GOTO 0x0444
195: 0x0433 [0x03] Work_Zone[2] = 259*
196: 0x0438 [0x03] Work_Zone[3] = 1*
197: 0x043D [0x48] [System] [7754*]:
    → "Now permeating the mists surrounding the [fracture/obscured domain]."
198: 0x0440 [0x23] WAIT_FOR_DIALOG_INTERACTION
199: 0x0441 [0x01] GOTO 0x0452
200: 0x0444 [0x03] Work_Zone[2] = 259*
201: 0x0449 [0x03] Work_Zone[3] = ExtData[1]->WorkLocal[14]
202: 0x044E [0x48] [System] [7739*]:
    → "Now entering [/a skirmish in ////an alluvion skirmish in /]$8."
203: 0x0451 [0x23] WAIT_FOR_DIALOG_INTERACTION

SUBROUTINE_0452:
204: 0x0452 [0x62] LOAD_EVENT_SCHEDULER: Load scheduler "main" with entities [LocalPlayer, LocalPlayer], work=[1*, 0*]
205: 0x0463 [0x1C] WAIT(90* ticks)
206: 0x0466 [0x45] LOAD_SCHEDULED_TASK: Load scheduler "who1" with entities [LocalPlayer, LocalPlayer], work=[201*, 0*]
207: 0x0477 [0x55] WAIT_LOAD_SCHEDULER: Wait for scheduler "who1" with entities [LocalPlayer, LocalPlayer], work=201*
208: 0x0486 [0x1C] WAIT(45* ticks)
209: 0x0489 [0x45] LOAD_SCHEDULED_TASK: Load scheduler "fdo1" with entities [LocalPlayer, LocalPlayer], work=[200*, 0*]
210: 0x049A [0x55] WAIT_LOAD_SCHEDULER: Wait for scheduler "fdo1" with entities [LocalPlayer, LocalPlayer], work=200*
211: 0x04A9 [0x45] LOAD_SCHEDULED_TASK: Load scheduler "whi1" with entities [LocalPlayer, LocalPlayer], work=[201*, 0*]
212: 0x04BA [0x1C] WAIT(15* ticks)
213: 0x04BD [0x30] SET_UCOFF_CONTINUE_ZERO()
214: 0x04BE [0x05] ExtData[1]->WorkLocal[8] = 1
215: 0x04C1 [0x05] ExtData[1]->WorkLocal[3] = 1
216: 0x04C4 [0x40] SET_BIT_WORK_RANGE(start_bit=0*, end_bit=7*, target=Work_Zone[1], source=8*)
217: 0x04CD [0x01] GOTO 0x0531
218: 0x04D0 [0x02] IF !(ExtData[1]->WorkLocal[10] == 9*) GOTO 0x04E3
219: 0x04D8 [0x03] Work_Zone[1] = 1073741824*
220: 0x04DD [0x05] ExtData[1]->WorkLocal[8] = 1
221: 0x04E0 [0x01] GOTO 0x0531
222: 0x04E3 [0x02] IF !(ExtData[1]->WorkLocal[10] == 10*) GOTO 0x04F9
223: 0x04EB [0x03] Work_Zone[1] = 1073741824*
224: 0x04F0 [0x05] ExtData[1]->WorkLocal[8] = 1
225: 0x04F3 [0x05] ExtData[1]->WorkLocal[3] = 1
226: 0x04F6 [0x01] GOTO 0x0531
227: 0x04F9 [0x02] IF !(ExtData[1]->WorkLocal[10] == 11*) GOTO 0x0531
228: 0x0501 [0x0B] ExtData[1]->WorkLocal[9]++
229: 0x0504 [0x02] IF !(ExtData[1]->WorkLocal[9] <= 15*) GOTO 0x052B
230: 0x050C [0x03] Work_Zone[1] = ExtData[1]->WorkLocal[12]
231: 0x0511 [0x40] SET_BIT_WORK_RANGE(start_bit=12*, end_bit=15*, target=Work_Zone[1], source=2*)
232: 0x051A [0x43] SEND_EVENT_UPDATE: Send pending tag to server (packet 0x005B)
233: 0x051C [0x43] SEND_EVENT_UPDATE: Check pending flag (skip if not pending)
234: 0x051E [0x05] ExtData[1]->WorkLocal[8] = 1
235: 0x0521 [0x48] [System] [7742*]:
    → "You cannot enter at this time. Please wait a moment and try again."
236: 0x0524 [0x23] WAIT_FOR_DIALOG_INTERACTION
237: 0x0525 [0x1C] WAIT(60* ticks)
238: 0x0528 [0x01] GOTO 0x052E
239: 0x052B [0x1C] WAIT(120* ticks)

SUBROUTINE_052E:
240: 0x052E [0x01] GOTO 0x0531

SUBROUTINE_0531:
241: 0x0531 [0x1B] RETURN
```

#### Data or dead code:

```
# Data Section: 0x0532 (128 bytes)
     0x0532: 3F 80 40 80 41 80 42 80 43 80 44 80 45 80 46 80
     0x0542: 47 80 48 80 49 80 4A 80 4B 80 4C 80 2C 80 4D 80
     0x0552: 01 80 01 80 01 80 4E 80 4E 80 4F 80 01 80 01 80
     0x0562: 2D 80 2D 80 50 80 2D 80 51 80 51 80 50 80 2D 80
     0x0572: 2D 80 50 80 51 80 2D 80 50 80 2D 80 2D 80 50 80
     0x0582: 01 80 01 80 01 80 50 80 50 80 52 80 01 80 01 80
     0x0592: 2C 80 2F 80 30 80 31 80 32 80 33 80 34 80 35 80
     0x05A2: 36 80 37 80 01 80 01 80 01 80 01 80 01 80 01 80
# Dead code (unreachable instructions):
     0x0124 [0x01] GOTO 0x0127
```

### Event 5504

#### Metadata

| Field        | Value     |
|--------------|-----------|
| Entrypoint   | 0x05B2    |
| Data Size    | 276 bytes |
| Instructions | 14        |

```
      00 01 02 03 04 05 06 07  08 09 0A 0B 0C 0D 0E 0F
      -- -- -- -- -- -- -- --  -- -- -- -- -- -- -- --
05B0:       42 45 3C 80 F0 FF  FF 7F F0 FF FF 7F 66 64    BE<.........fd
05C0: 6F 31 01 80 62 00 80 F0  FF FF 7F F0 FF FF 7F 6D  o1..b..........m
05D0: 61 69 6E 01 80 1C 39 80  45 3A 80 F0 FF FF 7F F0  ain...9.E:......
05E0: FF FF 7F 77 68 6F 31 01  80 55 3A 80 F0 FF FF 7F  ...who1..U:.....
05F0: F0 FF FF 7F 77 68 6F 31  1C 3B 80 45 3C 80 F0 FF  ....who1.;.E<...
0600: FF 7F F0 FF FF 7F 66 64  6F 31 01 80 55 3C 80 F0  ......fdo1..U<..
0610: FF FF 7F F0 FF FF 7F 66  64 6F 31 45 3A 80 F0 FF  .......fdo1E:...
0620: FF 7F F0 FF FF 7F 77 68  69 31 01 80 1C 1A 80 30  ......whi1.....0
0630: 21 00 03 14 00 13 00 02  14 00 24 80 05 47 06 08  !.........$..G..
0640: 14 00 00 80 01 4C 06 08  14 00 23 80 14 14 00 3E  .....L....#....>
0650: 80 07 14 00 3D 80 1B 03  14 00 13 00 02 14 00 24  ....=..........$
0660: 80 05 6C 06 08 14 00 00  80 01 71 06 08 14 00 23  ..l.......q....#
0670: 80 14 14 00 3E 80 07 14  00 53 80 1B 03 14 00 13  ....>....S......
0680: 00 02 14 00 24 80 05 91  06 08 14 00 00 80 01 96  ....$...........
0690: 06 08 14 00 23 80 14 14  00 3E 80 07 14 00 54 80  ....#....>....T.
06A0: 1B 03 14 00 13 00 02 14  00 24 80 05 B6 06 08 14  .........$......
06B0: 00 00 80 01 BB 06 08 14  00 23 80 14 14 00 3E 80  .........#....>.
06C0: 07 14 00 55 80 1B                                 ...U..          
```

#### Opcodes

```
  0: 0x05B2 [0x42] SET_CLI_EVENT_CANCEL_DATA()
  1: 0x05B3 [0x45] LOAD_SCHEDULED_TASK: Load scheduler "fdo1" with entities [LocalPlayer, LocalPlayer], work=[200*, 0*]
  2: 0x05C4 [0x62] LOAD_EVENT_SCHEDULER: Load scheduler "main" with entities [LocalPlayer, LocalPlayer], work=[1*, 0*]
  3: 0x05D5 [0x1C] WAIT(90* ticks)
  4: 0x05D8 [0x45] LOAD_SCHEDULED_TASK: Load scheduler "who1" with entities [LocalPlayer, LocalPlayer], work=[201*, 0*]
  5: 0x05E9 [0x55] WAIT_LOAD_SCHEDULER: Wait for scheduler "who1" with entities [LocalPlayer, LocalPlayer], work=201*
  6: 0x05F8 [0x1C] WAIT(45* ticks)
  7: 0x05FB [0x45] LOAD_SCHEDULED_TASK: Load scheduler "fdo1" with entities [LocalPlayer, LocalPlayer], work=[200*, 0*]
  8: 0x060C [0x55] WAIT_LOAD_SCHEDULER: Wait for scheduler "fdo1" with entities [LocalPlayer, LocalPlayer], work=200*
  9: 0x061B [0x45] LOAD_SCHEDULED_TASK: Load scheduler "whi1" with entities [LocalPlayer, LocalPlayer], work=[201*, 0*]
 10: 0x062C [0x1C] WAIT(15* ticks)
 11: 0x062F [0x30] SET_UCOFF_CONTINUE_ZERO()
 12: 0x0630 [0x21] END_EVENT
 13: 0x0631 [0x00] END_REQSTACK()
```

#### Data or dead code:

```
# Dead code (unreachable instructions):
     0x0632 [0x03] ExtData[1]->WorkLocal[20] = ExtData[1]->WorkLocal[19]
     0x0637 [0x02] IF !(ExtData[1]->WorkLocal[20] > 5*) GOTO 0x0647
     0x063F [0x08] ExtData[1]->WorkLocal[20] -= 1*
     0x0644 [0x01] GOTO 0x064C
     0x0647 [0x08] ExtData[1]->WorkLocal[20] -= 2*
     0x064C [0x14] ExtData[1]->WorkLocal[20] *= 10*
     0x0651 [0x07] ExtData[1]->WorkLocal[20] += 9*
     0x0656 [0x1B] RETURN
     0x0657 [0x03] ExtData[1]->WorkLocal[20] = ExtData[1]->WorkLocal[19]
     0x065C [0x02] IF !(ExtData[1]->WorkLocal[20] > 5*) GOTO 0x066C
     0x0664 [0x08] ExtData[1]->WorkLocal[20] -= 1*
     0x0669 [0x01] GOTO 0x0671
     0x066C [0x08] ExtData[1]->WorkLocal[20] -= 2*
     0x0671 [0x14] ExtData[1]->WorkLocal[20] *= 10*
     0x0676 [0x07] ExtData[1]->WorkLocal[20] += 70*
     0x067B [0x1B] RETURN
     0x067C [0x03] ExtData[1]->WorkLocal[20] = ExtData[1]->WorkLocal[19]
     0x0681 [0x02] IF !(ExtData[1]->WorkLocal[20] > 5*) GOTO 0x0691
     0x0689 [0x08] ExtData[1]->WorkLocal[20] -= 1*
     0x068E [0x01] GOTO 0x0696
     0x0691 [0x08] ExtData[1]->WorkLocal[20] -= 2*
     0x0696 [0x14] ExtData[1]->WorkLocal[20] *= 10*
     0x069B [0x07] ExtData[1]->WorkLocal[20] += 140*
     0x06A0 [0x1B] RETURN
     0x06A1 [0x03] ExtData[1]->WorkLocal[20] = ExtData[1]->WorkLocal[19]
     0x06A6 [0x02] IF !(ExtData[1]->WorkLocal[20] > 5*) GOTO 0x06B6
     0x06AE [0x08] ExtData[1]->WorkLocal[20] -= 1*
     0x06B3 [0x01] GOTO 0x06BB
     0x06B6 [0x08] ExtData[1]->WorkLocal[20] -= 2*
     0x06BB [0x14] ExtData[1]->WorkLocal[20] *= 10*
     0x06C0 [0x07] ExtData[1]->WorkLocal[20] += 210*
     0x06C5 [0x1B] RETURN
```

### Event 65535.18

#### Metadata

| Field        | Value    |
|--------------|----------|
| Entrypoint   | 0x06C6   |
| Data Size    | 24 bytes |
| Instructions | 4        |

```
      00 01 02 03 04 05 06 07  08 09 0A 0B 0C 0D 0E 0F
      -- -- -- -- -- -- -- --  -- -- -- -- -- -- -- --
06C0:                   03 13  00 07 7F 1A 32 06 66 14        ......2.f.
06D0: 00 F8 FF FF 7F F8 FF FF  7F 74 6C 6B 30 00        .........tlk0.  
```

#### Opcodes

```
  0: 0x06C6 [0x03] ExtData[1]->WorkLocal[19] = Entity->Race
  1: 0x06CB [0x1A] CALL_SUBROUTINE(address=0x0632)
  2: 0x06CE [0x66] LOAD_EXT_SCHEDULER_MAIN: Load scheduler "tlk0" with entities [EventEntity, EventEntity], work=ExtData[1]->WorkLocal[20]
  3: 0x06DD [0x00] END_REQSTACK()
```

### Event 65535.19

#### Metadata

| Field        | Value    |
|--------------|----------|
| Entrypoint   | 0x06DE   |
| Data Size    | 24 bytes |
| Instructions | 4        |

```
      00 01 02 03 04 05 06 07  08 09 0A 0B 0C 0D 0E 0F
      -- -- -- -- -- -- -- --  -- -- -- -- -- -- -- --
06D0:                                            03 13                ..
06E0: 00 07 7F 1A 32 06 66 14  00 F8 FF FF 7F F8 FF FF  ....2.f.........
06F0: 7F 74 6C 6B 31 00                                 .tlk1.          
```

#### Opcodes

```
  0: 0x06DE [0x03] ExtData[1]->WorkLocal[19] = Entity->Race
  1: 0x06E3 [0x1A] CALL_SUBROUTINE(address=0x0632)
  2: 0x06E6 [0x66] LOAD_EXT_SCHEDULER_MAIN: Load scheduler "tlk1" with entities [EventEntity, EventEntity], work=ExtData[1]->WorkLocal[20]
  3: 0x06F5 [0x00] END_REQSTACK()
```

### Event 65535.20

#### Metadata

| Field        | Value    |
|--------------|----------|
| Entrypoint   | 0x06F6   |
| Data Size    | 27 bytes |
| Instructions | 5        |

```
      00 01 02 03 04 05 06 07  08 09 0A 0B 0C 0D 0E 0F
      -- -- -- -- -- -- -- --  -- -- -- -- -- -- -- --
06F0:                   03 13  00 07 7F 1A 57 06 0B 14        ......W...
0700: 00 66 14 00 F8 FF FF 7F  F8 FF FF 7F 70 61 73 30  .f..........pas0
0710: 00                                                .               
```

#### Opcodes

```
  0: 0x06F6 [0x03] ExtData[1]->WorkLocal[19] = Entity->Race
  1: 0x06FB [0x1A] CALL_SUBROUTINE(address=0x0657)
  2: 0x06FE [0x0B] ExtData[1]->WorkLocal[20]++
  3: 0x0701 [0x66] LOAD_EXT_SCHEDULER_MAIN: Load scheduler "pas0" with entities [EventEntity, EventEntity], work=ExtData[1]->WorkLocal[20]
  4: 0x0710 [0x00] END_REQSTACK()
```

### Event 65535.21

#### Metadata

| Field        | Value    |
|--------------|----------|
| Entrypoint   | 0x0711   |
| Data Size    | 24 bytes |
| Instructions | 4        |

```
      00 01 02 03 04 05 06 07  08 09 0A 0B 0C 0D 0E 0F
      -- -- -- -- -- -- -- --  -- -- -- -- -- -- -- --
0710:    03 13 00 07 7F 1A 7C  06 66 14 00 F8 FF FF 7F   ......|.f......
0720: F8 FF FF 7F 6F 72 7A 30  00                       ....orz0.       
```

#### Opcodes

```
  0: 0x0711 [0x03] ExtData[1]->WorkLocal[19] = Entity->Race
  1: 0x0716 [0x1A] CALL_SUBROUTINE(address=0x067C)
  2: 0x0719 [0x66] LOAD_EXT_SCHEDULER_MAIN: Load scheduler "orz0" with entities [EventEntity, EventEntity], work=ExtData[1]->WorkLocal[20]
  3: 0x0728 [0x00] END_REQSTACK()
```

### Event 65535.22

#### Metadata

| Field        | Value    |
|--------------|----------|
| Entrypoint   | 0x0729   |
| Data Size    | 37 bytes |
| Instructions | 5        |

```
      00 01 02 03 04 05 06 07  08 09 0A 0B 0C 0D 0E 0F
      -- -- -- -- -- -- -- --  -- -- -- -- -- -- -- --
0720:                             03 13 00 07 7F 1A 32           ......2
0730: 06 66 14 00 F8 FF FF 7F  F8 FF FF 7F 73 69 74 30  .f..........sit0
0740: 53 F8 FF FF 7F F8 FF FF  7F 73 69 74 30 00        S........sit0.  
```

#### Opcodes

```
  0: 0x0729 [0x03] ExtData[1]->WorkLocal[19] = Entity->Race
  1: 0x072E [0x1A] CALL_SUBROUTINE(address=0x0632)
  2: 0x0731 [0x66] LOAD_EXT_SCHEDULER_MAIN: Load scheduler "sit0" with entities [EventEntity, EventEntity], work=ExtData[1]->WorkLocal[20]
  3: 0x0740 [0x53] WAIT_SCHEDULER_TASK: Wait for scheduler "sit0" with entities [EventEntity, EventEntity]
  4: 0x074D [0x00] END_REQSTACK()
```

### Event 65535.23

#### Metadata

| Field        | Value    |
|--------------|----------|
| Entrypoint   | 0x074E   |
| Data Size    | 37 bytes |
| Instructions | 5        |

```
      00 01 02 03 04 05 06 07  08 09 0A 0B 0C 0D 0E 0F
      -- -- -- -- -- -- -- --  -- -- -- -- -- -- -- --
0740:                                            03 13                ..
0750: 00 07 7F 1A 32 06 66 14  00 F8 FF FF 7F F8 FF FF  ....2.f.........
0760: 7F 73 69 74 31 53 F8 FF  FF 7F F8 FF FF 7F 73 69  .sit1S........si
0770: 74 31 00                                          t1.             
```

#### Opcodes

```
  0: 0x074E [0x03] ExtData[1]->WorkLocal[19] = Entity->Race
  1: 0x0753 [0x1A] CALL_SUBROUTINE(address=0x0632)
  2: 0x0756 [0x66] LOAD_EXT_SCHEDULER_MAIN: Load scheduler "sit1" with entities [EventEntity, EventEntity], work=ExtData[1]->WorkLocal[20]
  3: 0x0765 [0x53] WAIT_SCHEDULER_TASK: Wait for scheduler "sit1" with entities [EventEntity, EventEntity]
  4: 0x0772 [0x00] END_REQSTACK()
```

### Event 65535.24

#### Metadata

| Field        | Value    |
|--------------|----------|
| Entrypoint   | 0x0773   |
| Data Size    | 42 bytes |
| Instructions | 6        |

```
      00 01 02 03 04 05 06 07  08 09 0A 0B 0C 0D 0E 0F
      -- -- -- -- -- -- -- --  -- -- -- -- -- -- -- --
0770:          03 13 00 07 7F  1A 32 06 66 14 00 F8 FF     ......2.f....
0780: FF 7F F8 FF FF 7F 74 6C  6B 30 1C 26 80 66 14 00  ......tlk0.&.f..
0790: F8 FF FF 7F F8 FF FF 7F  74 6C 6B 31 00           ........tlk1.   
```

#### Opcodes

```
  0: 0x0773 [0x03] ExtData[1]->WorkLocal[19] = Entity->Race
  1: 0x0778 [0x1A] CALL_SUBROUTINE(address=0x0632)
  2: 0x077B [0x66] LOAD_EXT_SCHEDULER_MAIN: Load scheduler "tlk0" with entities [EventEntity, EventEntity], work=ExtData[1]->WorkLocal[20]
  3: 0x078A [0x1C] WAIT(60* ticks)
  4: 0x078D [0x66] LOAD_EXT_SCHEDULER_MAIN: Load scheduler "tlk1" with entities [EventEntity, EventEntity], work=ExtData[1]->WorkLocal[20]
  5: 0x079C [0x00] END_REQSTACK()
```

### Event 65535.25

#### Metadata

| Field        | Value    |
|--------------|----------|
| Entrypoint   | 0x079D   |
| Data Size    | 15 bytes |
| Instructions | 5        |

```
      00 01 02 03 04 05 06 07  08 09 0A 0B 0C 0D 0E 0F
      -- -- -- -- -- -- -- --  -- -- -- -- -- -- -- --
0790:                                         32 18 80               2..
07A0: 1F 00 56 80 57 80 58 80  1F 01 6F 00              ..V.W.X...o.    
```

#### Opcodes

```
  0: 0x079D [0x32] ExtData[1]->MainSpeed = 11* * 0.1
  1: 0x07A0 [0x1F] MOVE_ENTITY: EventEntity moves to X=-139.417*, Z=52.511*, Y=10.072*
  2: 0x07A8 [0x1F] MOVE_ENTITY: Update entity position (mode=1)
  3: 0x07AA [0x6F] WAIT_FRAME_DELAY: Yield until WaitTime reaches zero
  4: 0x07AB [0x00] END_REQSTACK()
```

### Event 65535.26

#### Metadata

| Field        | Value    |
|--------------|----------|
| Entrypoint   | 0x07AC   |
| Data Size    | 15 bytes |
| Instructions | 5        |

```
      00 01 02 03 04 05 06 07  08 09 0A 0B 0C 0D 0E 0F
      -- -- -- -- -- -- -- --  -- -- -- -- -- -- -- --
07A0:                                      32 18 80 1F              2...
07B0: 00 59 80 5A 80 5B 80 1F  01 6F 00                 .Y.Z.[...o.     
```

#### Opcodes

```
  0: 0x07AC [0x32] ExtData[1]->MainSpeed = 11* * 0.1
  1: 0x07AF [0x1F] MOVE_ENTITY: EventEntity moves to X=-140.191*, Z=45.983*, Y=9.873*
  2: 0x07B7 [0x1F] MOVE_ENTITY: Update entity position (mode=1)
  3: 0x07B9 [0x6F] WAIT_FRAME_DELAY: Yield until WaitTime reaches zero
  4: 0x07BA [0x00] END_REQSTACK()
```

### Event 65535.27

#### Metadata

| Field        | Value    |
|--------------|----------|
| Entrypoint   | 0x07BB   |
| Data Size    | 32 bytes |
| Instructions | 8        |

```
      00 01 02 03 04 05 06 07  08 09 0A 0B 0C 0D 0E 0F
      -- -- -- -- -- -- -- --  -- -- -- -- -- -- -- --
07B0:                                   32 09 80 1F 00             2....
07C0: 5C 80 5D 80 5E 80 1F 01  1C 5F 80 6E F8 FF FF 7F  \.].^...._.n....
07D0: 1D 80 99 F8 FF FF 7F 1C  39 80 00                 ........9..     
```

#### Opcodes

```
  0: 0x07BB [0x32] ExtData[1]->MainSpeed = 40* * 0.1
  1: 0x07BE [0x1F] MOVE_ENTITY: EventEntity moves to X=-108.384*, Z=225.800*, Y=-5.536*
  2: 0x07C6 [0x1F] MOVE_ENTITY: Update entity position (mode=1)
  3: 0x07C8 [0x1C] WAIT(30* ticks)
  4: 0x07CB [0x6E] EventEntity uses emote 21*
  5: 0x07D2 [0x99] Wait for EventEntity animation to complete
  6: 0x07D7 [0x1C] WAIT(90* ticks)
  7: 0x07DA [0x00] END_REQSTACK()
```

### Event 65535.28

#### Metadata

| Field        | Value    |
|--------------|----------|
| Entrypoint   | 0x07DB   |
| Data Size    | 14 bytes |
| Instructions | 4        |

```
      00 01 02 03 04 05 06 07  08 09 0A 0B 0C 0D 0E 0F
      -- -- -- -- -- -- -- --  -- -- -- -- -- -- -- --
07D0:                                   32 09 80 1F 00             2....
07E0: 60 80 61 80 62 80 1F 01  00                       `.a.b....       
```

#### Opcodes

```
  0: 0x07DB [0x32] ExtData[1]->MainSpeed = 40* * 0.1
  1: 0x07DE [0x1F] MOVE_ENTITY: EventEntity moves to X=-142.065*, Z=247.015*, Y=30.748*
  2: 0x07E6 [0x1F] MOVE_ENTITY: Update entity position (mode=1)
  3: 0x07E8 [0x00] END_REQSTACK()
```

### Event 65535.29

#### Metadata

| Field        | Value    |
|--------------|----------|
| Entrypoint   | 0x07E9   |
| Data Size    | 14 bytes |
| Instructions | 4        |

```
      00 01 02 03 04 05 06 07  08 09 0A 0B 0C 0D 0E 0F
      -- -- -- -- -- -- -- --  -- -- -- -- -- -- -- --
07E0:                             32 09 80 1F 00 63 80           2....c.
07F0: 64 80 65 80 1F 01 00                              d.e....         
```

#### Opcodes

```
  0: 0x07E9 [0x32] ExtData[1]->MainSpeed = 40* * 0.1
  1: 0x07EC [0x1F] MOVE_ENTITY: EventEntity moves to X=-100.004*, Z=209.741*, Y=31.165*
  2: 0x07F4 [0x1F] MOVE_ENTITY: Update entity position (mode=1)
  3: 0x07F6 [0x00] END_REQSTACK()
```

### Event 65535.30

#### Metadata

| Field        | Value    |
|--------------|----------|
| Entrypoint   | 0x07F7   |
| Data Size    | 14 bytes |
| Instructions | 4        |

```
      00 01 02 03 04 05 06 07  08 09 0A 0B 0C 0D 0E 0F
      -- -- -- -- -- -- -- --  -- -- -- -- -- -- -- --
07F0:                      32  0F 80 1F 00 66 80 67 80         2....f.g.
0800: 68 80 1F 01 00                                    h....           
```

#### Opcodes

```
  0: 0x07F7 [0x32] ExtData[1]->MainSpeed = 13* * 0.1
  1: 0x07FA [0x1F] MOVE_ENTITY: EventEntity moves to X=155.479*, Z=148.187*, Y=10.055*
  2: 0x0802 [0x1F] MOVE_ENTITY: Update entity position (mode=1)
  3: 0x0804 [0x00] END_REQSTACK()
```

### Event 65535.31

#### Metadata

| Field        | Value    |
|--------------|----------|
| Entrypoint   | 0x0805   |
| Data Size    | 27 bytes |
| Instructions | 3        |

```
      00 01 02 03 04 05 06 07  08 09 0A 0B 0C 0D 0E 0F
      -- -- -- -- -- -- -- --  -- -- -- -- -- -- -- --
0800:                2C F8 FF  FF 7F F8 FF FF 7F 63 6F       ,........co
0810: 72 70 53 F8 FF FF 7F F8  FF FF 7F 63 6F 72 70 00  rpS........corp.
```

#### Opcodes

```
  0: 0x0805 [0x2C] CREATE_SCHEDULER_TASK: Create scheduler "corp" with entities [EventEntity, EventEntity]
  1: 0x0812 [0x53] WAIT_SCHEDULER_TASK: Wait for scheduler "corp" with entities [EventEntity, EventEntity]
  2: 0x081F [0x00] END_REQSTACK()
```

### Event 65535.32

#### Metadata

| Field        | Value    |
|--------------|----------|
| Entrypoint   | 0x0820   |
| Data Size    | 24 bytes |
| Instructions | 6        |

```
      00 01 02 03 04 05 06 07  08 09 0A 0B 0C 0D 0E 0F
      -- -- -- -- -- -- -- --  -- -- -- -- -- -- -- --
0820: 32 09 80 1F 00 69 80 6A  80 6B 80 1F 01 1F 00 6C  2....i.j.k.....l
0830: 80 6D 80 6E 80 1F 01 00                           .m.n....        
```

#### Opcodes

```
  0: 0x0820 [0x32] ExtData[1]->MainSpeed = 40* * 0.1
  1: 0x0823 [0x1F] MOVE_ENTITY: EventEntity moves to X=-107.600*, Z=218.256*, Y=29.955*
  2: 0x082B [0x1F] MOVE_ENTITY: Update entity position (mode=1)
  3: 0x082D [0x1F] MOVE_ENTITY: EventEntity moves to X=-105.371*, Z=215.750*, Y=29.751*
  4: 0x0835 [0x1F] MOVE_ENTITY: Update entity position (mode=1)
  5: 0x0837 [0x00] END_REQSTACK()
```

### Event 65535.33

#### Metadata

| Field        | Value    |
|--------------|----------|
| Entrypoint   | 0x0838   |
| Data Size    | 14 bytes |
| Instructions | 4        |

```
      00 01 02 03 04 05 06 07  08 09 0A 0B 0C 0D 0E 0F
      -- -- -- -- -- -- -- --  -- -- -- -- -- -- -- --
0830:                          32 09 80 1F 00 6F 80 70          2....o.p
0840: 80 71 80 1F 01 00                                 .q....          
```

#### Opcodes

```
  0: 0x0838 [0x32] ExtData[1]->MainSpeed = 40* * 0.1
  1: 0x083B [0x1F] MOVE_ENTITY: EventEntity moves to X=427.445*, Z=-257.066*, Y=33.778*
  2: 0x0843 [0x1F] MOVE_ENTITY: Update entity position (mode=1)
  3: 0x0845 [0x00] END_REQSTACK()
```

### Event 65535.34

#### Metadata

| Field        | Value    |
|--------------|----------|
| Entrypoint   | 0x0846   |
| Data Size    | 14 bytes |
| Instructions | 4        |

```
      00 01 02 03 04 05 06 07  08 09 0A 0B 0C 0D 0E 0F
      -- -- -- -- -- -- -- --  -- -- -- -- -- -- -- --
0840:                   32 09  80 1F 00 72 80 73 80 74        2....r.s.t
0850: 80 1F 01 00                                       ....            
```

#### Opcodes

```
  0: 0x0846 [0x32] ExtData[1]->MainSpeed = 40* * 0.1
  1: 0x0849 [0x1F] MOVE_ENTITY: EventEntity moves to X=363.115*, Z=193.420*, Y=29.886*
  2: 0x0851 [0x1F] MOVE_ENTITY: Update entity position (mode=1)
  3: 0x0853 [0x00] END_REQSTACK()
```
