# Event 162

## Metadata

| Field           | Value    |
|-----------------|----------|
| Event Index     | 8/20     |
| Offset          | 0x01BC   |
| Data Size       | 44 bytes |
| Calculated Size | 44 bytes |
| Instructions    | 11       |

```
      00 01 02 03 04 05 06 07  08 09 0A 0B 0C 0D 0E 0F
      -- -- -- -- -- -- -- --  -- -- -- -- -- -- -- --
01B0:                                      1E F0 FF FF              ....
01C0: 7F 1C 03 80 66 05 80 F8  FF FF 7F F8 FF FF 7F 74  ....f..........t
01D0: 77 62 30 02 02 10 02 80  00 E2 01 1D 15 80 23 01  wb0...........#.
01E0: E6 01 1D 16 80 23 21 00                           .....#!.        
```

## Opcodes

```
  0: 0x01BC [0x1E] EventEntity looks at LocalPlayer and starts talking
  1: 0x01C1 [0x1C] WAIT(30* ticks)
  2: 0x01C4 [0x66] LOAD_EXT_SCHEDULER_MAIN: Load scheduler "twb0" with entities [EventEntity, EventEntity], work=9*
  3: 0x01D3 [0x02] IF !(Work_Zone[2] == 0*) GOTO 0x01E2
  4: 0x01DB [0x1D] PRINT_EVENT_MESSAGE(message_id=11567*)
    → "What are you doing, soldier? Head over to the next window and speak with Legion Engineer Aurelius on the double!\u007F1\u0000\u0007"
  5: 0x01DE [0x23] WAIT_FOR_DIALOG_INTERACTION
  6: 0x01DF [0x01] GOTO 0x01E6
  7: 0x01E2 [0x1D] PRINT_EVENT_MESSAGE(message_id=11568*)
    → "So, you've finally come to your senses and decided to return to the Fighting Fourth?\u0007March on over to Centurion Fridolin and get your papers sorted out, soldier.\u007F1\u0000\u0007"
  8: 0x01E5 [0x23] WAIT_FOR_DIALOG_INTERACTION

SUBROUTINE_01E6:
  9: 0x01E6 [0x21] END_EVENT
 10: 0x01E7 [0x00] END_REQSTACK()
```
