# Event 3007

## Metadata

| Field           | Value    |
|-----------------|----------|
| Event Index     | 7/13     |
| Offset          | 0x04A5   |
| Data Size       | 62 bytes |
| Calculated Size | 62 bytes |
| Instructions    | 11       |

```
      00 01 02 03 04 05 06 07  08 09 0A 0B 0C 0D 0E 0F
      -- -- -- -- -- -- -- --  -- -- -- -- -- -- -- --
04A0:                03 3D 00  09 10 1A D9 23 02 02 10       .=.....#...
04B0: 18 80 00 DB 04 5B 01 80  41 31 0F 01 F8 FF FF 7F  .....[..A1......
04C0: 74 6C 6B 30 2B 41 31 0F  01 2F 80 23 5B 01 80 41  tlk0+A1../.#[..A
04D0: 31 0F 01 F8 FF FF 7F 74  6C 6B 65 1A 70 24 1A 64  1......tlke.p$.d
04E0: 24 21 00                                          $!.             
```

## Opcodes

```
  0: 0x04A5 [0x03] ExtData[1]->WorkLocal[61] = Work_Zone[9]
  1: 0x04AA [0x1A] CALL_SUBROUTINE(address=0x23D9)
  2: 0x04AD [0x02] IF !(Work_Zone[2] == 1*) GOTO 0x04DB
  3: 0x04B5 [0x5B] LOAD_EXT_SCHEDULER: Load scheduler "tlk0" with entities [Aurix (ID: 17772865/0x010F3141), EventEntity], work=215*
  4: 0x04C4 [0x2B] Aurix (ID: 17772865/0x010F3141) [15909*]:
    → "Sorry, it's not ready yet. Ya need to have a little more patience.\u007F1\u0000\u0007"
  5: 0x04CB [0x23] WAIT_FOR_DIALOG_INTERACTION
  6: 0x04CC [0x5B] LOAD_EXT_SCHEDULER: Load scheduler "tlke" with entities [Aurix (ID: 17772865/0x010F3141), EventEntity], work=215*
  7: 0x04DB [0x1A] CALL_SUBROUTINE(address=0x2470)
  8: 0x04DE [0x1A] CALL_SUBROUTINE(address=0x2464)
  9: 0x04E1 [0x21] END_EVENT
 10: 0x04E2 [0x00] END_REQSTACK()
```
