# Event 3008

## Metadata

| Field           | Value    |
|-----------------|----------|
| Event Index     | 10/13    |
| Offset          | 0x0559   |
| Data Size       | 45 bytes |
| Calculated Size | 45 bytes |
| Instructions    | 9        |

```
      00 01 02 03 04 05 06 07  08 09 0A 0B 0C 0D 0E 0F
      -- -- -- -- -- -- -- --  -- -- -- -- -- -- -- --
0550:                             1A D9 23 42 5B 01 80           ..#B[..
0560: 41 31 0F 01 F8 FF FF 7F  70 61 73 30 2B 41 31 0F  A1......pas0+A1.
0570: 01 32 80 23 53 41 31 0F  01 41 31 0F 01 70 61 73  .2.#SA1..A1..pas
0580: 30 1A 64 24 21 00                                 0.d$!.          
```

## Opcodes

```
  0: 0x0559 [0x1A] CALL_SUBROUTINE(address=0x23D9)
  1: 0x055C [0x42] SET_CLI_EVENT_CANCEL_DATA()
  2: 0x055D [0x5B] LOAD_EXT_SCHEDULER: Load scheduler "pas0" with entities [Aurix (ID: 17772865/0x010F3141), EventEntity], work=215*
  3: 0x056C [0x2B] Aurix (ID: 17772865/0x010F3141) [15901*]:
    → "I see ya managed to get everything. Here ya go, here's the \u0001\u0005#\u0002\u0000\u0000\u0000 as promised.\u007F1\u0000\u0007"
  4: 0x0573 [0x23] WAIT_FOR_DIALOG_INTERACTION
  5: 0x0574 [0x53] WAIT_SCHEDULER_TASK: Wait for scheduler "pas0" with entities [Aurix (ID: 17772865/0x010F3141), Aurix (ID: 17772865/0x010F3141)]
  6: 0x0581 [0x1A] CALL_SUBROUTINE(address=0x2464)
  7: 0x0584 [0x21] END_EVENT
  8: 0x0585 [0x00] END_REQSTACK()
```
