# Event 65535

## Metadata

| Field           | Value    |
|-----------------|----------|
| Event Index     | 5/9      |
| Offset          | 0x003C   |
| Data Size       | 84 bytes |
| Calculated Size | 84 bytes |
| Instructions    | 12       |

```
      00 01 02 03 04 05 06 07  08 09 0A 0B 0C 0D 0E 0F
      -- -- -- -- -- -- -- --  -- -- -- -- -- -- -- --
0030:                                      22 01 2C F8              ".,.
0040: FF FF 7F F8 FF FF 7F 70  6F 70 30 B6 00 0A 80 B6  .......pop0.....
0050: 0F 0B 80 80 F8 FF FF 7F  6C F8 FF FF 7F 07 80 00  ........l.......
0060: 80 22 00 6C F8 FF FF 7F  0C 80 09 80 2C F8 FF FF  .".l........,...
0070: 7F F8 FF FF 7F 64 65 61  64 53 F8 FF FF 7F F8 FF  .....deadS......
0080: FF 7F 64 65 61 64 6C F8  FF FF 7F 07 80 0D 80 00  ..deadl.........
```

## Opcodes

```
  0: 0x003C [0x22] ENTITY_HIDE_FLAG(enabled=0x01)
  1: 0x003E [0x2C] CREATE_SCHEDULER_TASK: Create scheduler "pop0" for entities [EventEntity, EventEntity]
  2: 0x004B [0xB6] ENTITY_APPEARANCE_HANDLER(case=Hair style, value=292*)
  3: 0x004F [0xB6] ENTITY_APPEARANCE_HANDLER(case=Model size, value=60*)
  4: 0x0053 [0x80] LOAD_WAIT(entity=EventEntity)
  5: 0x0058 [0x6C] FADE_ENTITY_COLOR(entity_id=EventEntity, end_alpha=0*, fade_time=1*)
  6: 0x0061 [0x22] ENTITY_HIDE_FLAG(enabled=0x00)
  7: 0x0063 [0x6C] FADE_ENTITY_COLOR(entity_id=EventEntity, end_alpha=128*, fade_time=180*)
  8: 0x006C [0x2C] CREATE_SCHEDULER_TASK: Create scheduler "dead" for entities [EventEntity, EventEntity]
  9: 0x0079 [0x53] WAIT_SCHEDULER_TASK(entity1=EventEntity, entity2=EventEntity, action_id="dead")
 10: 0x0086 [0x6C] FADE_ENTITY_COLOR(entity_id=EventEntity, end_alpha=0*, fade_time=120*)
 11: 0x008F [0x00] END_REQSTACK()
```
