# Event 10005

## Metadata

| Field           | Value    |
|-----------------|----------|
| Event Index     | 30/35    |
| Offset          | 0x0215   |
| Data Size       | 40 bytes |
| Calculated Size | 40 bytes |
| Instructions    | 11       |

```
      00 01 02 03 04 05 06 07  08 09 0A 0B 0C 0D 0E 0F
      -- -- -- -- -- -- -- --  -- -- -- -- -- -- -- --
0210:                42 1E F0  FF FF 7F 6F 70 29 0B 4C       B.....op).L
0220: 90 0F 01 1E 29 0B 4C 90  0F 01 1F 29 0B 4C 90 0F  ....).L....).L..
0230: 01 20 29 0B 4C 90 0F 01  21 20 00 21 00           . ).L...! .!.   
```

## Opcodes

```
  0: 0x0215 [0x42] SET_CLI_EVENT_CANCEL_DATA()
  1: 0x0216 [0x1E] EventEntity looks at LocalPlayer and starts talking
  2: 0x021B [0x6F] WAIT_FRAME_DELAY: Yield until WaitTime reaches zero
  3: 0x021C [0x70] WAIT_ENTITY_RENDER_FLAG: Wait while EventEntity->Render.Flags3 bit 2 is set (cancel turn if not)
  4: 0x021D [0x29] REQ_SET_WAIT(priority=0x0B, entity_id=Hagain (ID: 17797196/0x010F904C), tag_num=0x1E)
  5: 0x0224 [0x29] REQ_SET_WAIT(priority=0x0B, entity_id=Hagain (ID: 17797196/0x010F904C), tag_num=0x1F)
  6: 0x022B [0x29] REQ_SET_WAIT(priority=0x0B, entity_id=Hagain (ID: 17797196/0x010F904C), tag_num=0x20)
  7: 0x0232 [0x29] REQ_SET_WAIT(priority=0x0B, entity_id=Hagain (ID: 17797196/0x010F904C), tag_num=0x21)
  8: 0x0239 [0x20] SET_CLI_EVENT_UC_FLAG: Unlock player control
  9: 0x023B [0x21] END_EVENT
 10: 0x023C [0x00] END_REQSTACK()
```
