# Event 10006

## Metadata

| Field           | Value    |
|-----------------|----------|
| Event Index     | 35/35    |
| Offset          | 0x027F   |
| Data Size       | 33 bytes |
| Calculated Size | 33 bytes |
| Instructions    | 12       |

```
      00 01 02 03 04 05 06 07  08 09 0A 0B 0C 0D 0E 0F
      -- -- -- -- -- -- -- --  -- -- -- -- -- -- -- --
0270:                                               1E                 .
0280: F0 FF FF 7F 6F 70 29 08  4C 90 0F 01 01 1D 18 80  ....op).L.......
0290: 23 1D 19 80 23 29 08 4C  90 0F 01 02 20 00 21 00  #...#).L.... .!.
```

## Opcodes

```
  0: 0x027F [0x1E] EventEntity looks at LocalPlayer and starts talking
  1: 0x0284 [0x6F] WAIT_FRAME_DELAY: Yield until WaitTime reaches zero
  2: 0x0285 [0x70] WAIT_ENTITY_RENDER_FLAG: Wait while EventEntity->Render.Flags3 bit 2 is set (cancel turn if not)
  3: 0x0286 [0x29] REQ_SET_WAIT(priority=0x08, entity_id=Hagain (ID: 17797196/0x010F904C), tag_num=0x01)
  4: 0x028D [0x1D] PRINT_EVENT_MESSAGE(message_id=7265*)
    → "The Tenshodo is treating this talk of the Atarefaunet treasure as just another rumor. To spread this far, though, there must be a kernel of truth to it.\u007F1\u0000\u0007"
  5: 0x0290 [0x23] WAIT_FOR_DIALOG_INTERACTION
  6: 0x0291 [0x1D] PRINT_EVENT_MESSAGE(message_id=7266*)
    → "If you're going to join the race for the treasure, you might want to hire yourself a bodyguard. Sometimes these things can turn into a bloody free-for-all.\u007F1\u0000\u0007"
  7: 0x0294 [0x23] WAIT_FOR_DIALOG_INTERACTION
  8: 0x0295 [0x29] REQ_SET_WAIT(priority=0x08, entity_id=Hagain (ID: 17797196/0x010F904C), tag_num=0x02)
  9: 0x029C [0x20] SET_CLI_EVENT_UC_FLAG: Unlock player control
 10: 0x029E [0x21] END_EVENT
 11: 0x029F [0x00] END_REQSTACK()
```
