# Event 37

## Metadata

| Field           | Value    |
|-----------------|----------|
| Event Index     | 5/5      |
| Offset          | 0x0043   |
| Data Size       | 48 bytes |
| Calculated Size | 48 bytes |
| Instructions    | 11       |

```
      00 01 02 03 04 05 06 07  08 09 0A 0B 0C 0D 0E 0F
      -- -- -- -- -- -- -- --  -- -- -- -- -- -- -- --
0040:          20 01 42 1E F0  FF FF 7F 6F 70 66 00 80      .B.....opf..
0050: F8 FF FF 7F F8 FF FF 7F  74 6C 6B 30 1D 04 80 23  ........tlk0...#
0060: 45 05 80 F0 FF FF 7F F0  FF FF 7F 71 73 74 63 06  E..........qstc.
0070: 80 21 00                                          .!.             
```

## Opcodes

```
  0: 0x0043 [0x20] SET_CLI_EVENT_UC_FLAG: Lock player control
  1: 0x0045 [0x42] SET_CLI_EVENT_CANCEL_DATA()
  2: 0x0046 [0x1E] EventEntity looks at LocalPlayer and starts talking
  3: 0x004B [0x6F] WAIT_FRAME_DELAY: Yield until WaitTime reaches zero
  4: 0x004C [0x70] WAIT_ENTITY_RENDER_FLAG: Wait while EventEntity->Render.Flags3 bit 2 is set (cancel turn if not)
  5: 0x004D [0x66] LOAD_EXT_SCHEDULER_MAIN: Load scheduler "tlk0" with entities [EventEntity, EventEntity], work=30*
  6: 0x005C [0x1D] PRINT_EVENT_MESSAGE(message_id=7094*)
    → "Excellent. As promised, I bestow upon you this holy candle. May its light guide you along the path of righteousness!\u007F1\u0000\u0007"
  7: 0x005F [0x23] WAIT_FOR_DIALOG_INTERACTION
  8: 0x0060 [0x45] LOAD_SCHEDULED_TASK: Load scheduler "qstc" with entities [LocalPlayer, LocalPlayer], work=[201*, 0*]
  9: 0x0071 [0x21] END_EVENT
 10: 0x0072 [0x00] END_REQSTACK()
```
