# Event 65535

## Metadata

| Field           | Value    |
|-----------------|----------|
| Event Index     | 3/7      |
| Offset          | 0x0008   |
| Data Size       | 52 bytes |
| Calculated Size | 52 bytes |
| Instructions    | 6        |

```
      00 01 02 03 04 05 06 07  08 09 0A 0B 0C 0D 0E 0F
      -- -- -- -- -- -- -- --  -- -- -- -- -- -- -- --
0000:                          66 00 80 A1 72 05 01 A1          f...r...
0010: 72 05 01 74 6C 6B 30 1C  01 80 66 00 80 A0 72 05  r..tlk0...f...r.
0020: 01 A0 72 05 01 74 68 6B  32 1C 02 80 66 00 80 A1  ..r..thk2...f...
0030: 72 05 01 A1 72 05 01 74  6C 6B 31 00              r...r..tlk1.    
```

## Opcodes

```
  0: 0x0008 [0x66] LOAD_EXT_SCHEDULER_MAIN: Load scheduler "tlk0" with entities [Egon (ID: 17134241/0x010572A1), Egon (ID: 17134241/0x010572A1)], work=9*
  1: 0x0017 [0x1C] WAIT(90* ticks)
  2: 0x001A [0x66] LOAD_EXT_SCHEDULER_MAIN: Load scheduler "thk2" with entities [Norbert (ID: 17134240/0x010572A0), Norbert (ID: 17134240/0x010572A0)], work=9*
  3: 0x0029 [0x1C] WAIT(30* ticks)
  4: 0x002C [0x66] LOAD_EXT_SCHEDULER_MAIN: Load scheduler "tlk1" with entities [Egon (ID: 17134241/0x010572A1), Egon (ID: 17134241/0x010572A1)], work=9*
  5: 0x003B [0x00] END_REQSTACK()
```
