# Event 12

## Metadata

| Field           | Value    |
|-----------------|----------|
| Event Index     | 3/6      |
| Offset          | 0x0037   |
| Data Size       | 61 bytes |
| Calculated Size | 61 bytes |
| Instructions    | 13       |

```
      00 01 02 03 04 05 06 07  08 09 0A 0B 0C 0D 0E 0F
      -- -- -- -- -- -- -- --  -- -- -- -- -- -- -- --
0030:                      42  43 00 43 01 38 04 80 4C         BC.C.8..L
0040: 1C 05 80 45 06 80 F0 FF  FF 7F F0 FF FF 7F 66 64  ...E..........fd
0050: 6F 31 03 80 1C 07 80 29  03 F0 FF FF 7F 0B 45 06  o1.....)......E.
0060: 80 F0 FF FF 7F F0 FF FF  7F 66 64 69 31 03 80 4D  .........fdi1..M
0070: 1C 07 80 00                                       ....            
```

## Opcodes

```
  0: 0x0037 [0x42] SET_CLI_EVENT_CANCEL_DATA()
  1: 0x0038 [0x43] SEND_EVENT_UPDATE: Send pending tag to server (packet 0x005B)
  2: 0x003A [0x43] SEND_EVENT_UPDATE: Check pending flag (skip if not pending)
  3: 0x003C [0x38] SET_CLIENT_EVENT_MODE(mode=4*)
  4: 0x003F [0x4C] EventEntity->StatusEvent = 8 // Open door
  5: 0x0040 [0x1C] WAIT(40* ticks)
  6: 0x0043 [0x45] LOAD_SCHEDULED_TASK: Load scheduler "fdo1" with entities [LocalPlayer, LocalPlayer], work=[200*, 0*]
  7: 0x0054 [0x1C] WAIT(60* ticks)
  8: 0x0057 [0x29] REQ_SET_WAIT(priority=0x03, entity_id=LocalPlayer, tag_num=0x0B)
  9: 0x005E [0x45] LOAD_SCHEDULED_TASK: Load scheduler "fdi1" with entities [LocalPlayer, LocalPlayer], work=[200*, 0*]
 10: 0x006F [0x4D] EventEntity->StatusEvent = 9 // Close door
 11: 0x0070 [0x1C] WAIT(60* ticks)
 12: 0x0073 [0x00] END_REQSTACK()
```
