# Event 723

## Metadata

| Field           | Value    |
|-----------------|----------|
| Event Index     | 12/15    |
| Offset          | 0x00FD   |
| Data Size       | 33 bytes |
| Calculated Size | 33 bytes |
| Instructions    | 12       |

```
      00 01 02 03 04 05 06 07  08 09 0A 0B 0C 0D 0E 0F
      -- -- -- -- -- -- -- --  -- -- -- -- -- -- -- --
00F0:                                         1E F0 FF               ...
0100: FF 7F 6F 70 29 08 13 E0  0E 01 01 1D 0B 80 23 1D  ..op).........#.
0110: 0C 80 23 29 08 13 E0 0E  01 05 20 00 21 00        ..#)...... .!.  
```

## Opcodes

```
  0: 0x00FD [0x1E] EventEntity looks at LocalPlayer and starts talking
  1: 0x0102 [0x6F] WAIT_FRAME_DELAY: Yield until WaitTime reaches zero
  2: 0x0103 [0x70] WAIT_ENTITY_RENDER_FLAG: Wait while EventEntity->Render.Flags3 bit 2 is set (cancel turn if not)
  3: 0x0104 [0x29] REQ_SET_WAIT(priority=0x08, entity_id=Aora-Uora (ID: 17752083/0x010EE013), tag_num=0x01)
  4: 0x010B [0x1D] PRINT_EVENT_MESSAGE(message_id=9691*)
    → "Hey, I wonder if they have any books written by one of the line of great geniuses?\u007F1\u0000\u0007"
  5: 0x010E [0x23] WAIT_FOR_DIALOG_INTERACTION
  6: 0x010F [0x1D] PRINT_EVENT_MESSAGE(message_id=9692*)
    → "I should ask the minister about it someday.\u007F1\u0000\u0007"
  7: 0x0112 [0x23] WAIT_FOR_DIALOG_INTERACTION
  8: 0x0113 [0x29] REQ_SET_WAIT(priority=0x08, entity_id=Aora-Uora (ID: 17752083/0x010EE013), tag_num=0x05)
  9: 0x011A [0x20] SET_CLI_EVENT_UC_FLAG: Unlock player control
 10: 0x011C [0x21] END_EVENT
 11: 0x011D [0x00] END_REQSTACK()
```
