# Event 65535

## Metadata

| Field           | Value    |
|-----------------|----------|
| Event Index     | 27/34    |
| Offset          | 0x0140   |
| Data Size       | 37 bytes |
| Calculated Size | 37 bytes |
| Instructions    | 9        |

```
      00 01 02 03 04 05 06 07  08 09 0A 0B 0C 0D 0E 0F
      -- -- -- -- -- -- -- --  -- -- -- -- -- -- -- --
0140: 29 08 B2 F1 09 01 03 1D  1B 80 23 29 08 B2 F1 09  ).........#)....
0150: 01 04 29 08 B2 F1 09 01  05 1D 1C 80 23 29 08 B2  ..).........#)..
0160: F1 09 01 06 00                                    .....           
```

## Opcodes

```
  0: 0x0140 [0x29] REQ_SET_WAIT(priority=0x08, entity_id=Rukususu (ID: 17428914/0x0109F1B2), tag_num=0x03)
  1: 0x0147 [0x1D] PRINT_EVENT_MESSAGE(message_id=7419*)
    → "Zee Kuluu...\u0007One of zee two ancient races mentioned in Iru-Kuiru's works? The Kuluu and zee Zilart...\u007F1\u0000\u0007"
  2: 0x014A [0x23] WAIT_FOR_DIALOG_INTERACTION
  3: 0x014B [0x29] REQ_SET_WAIT(priority=0x08, entity_id=Rukususu (ID: 17428914/0x0109F1B2), tag_num=0x04)
  4: 0x0152 [0x29] REQ_SET_WAIT(priority=0x08, entity_id=Rukususu (ID: 17428914/0x0109F1B2), tag_num=0x05)
  5: 0x0159 [0x1D] PRINT_EVENT_MESSAGE(message_id=7420*)
    → "Zat one of zee ancients has survived here until present day...\u0007Tell me, are zee Kuluu a race of immortals?\u007F1\u0000\u0007"
  6: 0x015C [0x23] WAIT_FOR_DIALOG_INTERACTION
  7: 0x015D [0x29] REQ_SET_WAIT(priority=0x08, entity_id=Rukususu (ID: 17428914/0x0109F1B2), tag_num=0x06)
  8: 0x0164 [0x00] END_REQSTACK()
```
