# Event 956

## Metadata

| Field           | Value    |
|-----------------|----------|
| Event Index     | 23/23    |
| Offset          | 0x0320   |
| Data Size       | 43 bytes |
| Calculated Size | 43 bytes |
| Instructions    | 10       |

```
      00 01 02 03 04 05 06 07  08 09 0A 0B 0C 0D 0E 0F
      -- -- -- -- -- -- -- --  -- -- -- -- -- -- -- --
0320: 79 00 1F 60 0E 01 F0 FF  FF 7F 5B 00 80 F8 FF FF  y..`......[.....
0330: 7F F8 FF FF 7F 74 6C 6B  30 1D 29 80 23 1D 2A 80  .....tlk0.).#.*.
0340: 23 7B 1F 60 0E 01 1C 02  80 21 00                 #{.`.....!.     
```

## Opcodes

```
  0: 0x0320 [0x79] Amaura (ID: 17719327/0x010E601F) looks at LocalPlayer (Basic look)
  1: 0x032A [0x5B] LOAD_EXT_SCHEDULER(work_offset=35*, entity1=EventEntity, entity2=EventEntity, action="tlk0")
  2: 0x0339 [0x1D] PRINT_EVENT_MESSAGE(message_id=15050*)
    → "Back in the day, a simple brew to relieve the pain was all I had to offer.\u0007But medicine is a livin', ever-evolvin' science. Mayhap the years've seen the discovery of a cure.\u007F1\u0000\u0007"
  3: 0x033C [0x23] WAIT_FOR_DIALOG_INTERACTION
  4: 0x033D [0x1D] PRINT_EVENT_MESSAGE(message_id=15049*)
    → "I've been told there's a physician in Jeuno, a learned young man. Might be he can assist ye.\u007F1\u0000\u0007"
  5: 0x0340 [0x23] WAIT_FOR_DIALOG_INTERACTION
  6: 0x0341 [0x7B] Amaura (ID: 17719327/0x010E601F) stops talking
  7: 0x0346 [0x1C] WAIT(30* ticks)
  8: 0x0349 [0x21] END_EVENT
  9: 0x034A [0x00] END_REQSTACK()
```
