# Event 65535

## Metadata

| Field           | Value    |
|-----------------|----------|
| Event Index     | 5/102    |
| Offset          | 0x0044   |
| Data Size       | 65 bytes |
| Calculated Size | 65 bytes |
| Instructions    | 7        |

```
      00 01 02 03 04 05 06 07  08 09 0A 0B 0C 0D 0E 0F
      -- -- -- -- -- -- -- --  -- -- -- -- -- -- -- --
0040:             53 39 A0 0E  01 39 A0 0E 01 74 6C 61      S9...9...tla
0050: 30 5B 09 80 39 A0 0E 01  39 A0 0E 01 74 6C 62 31  0[..9...9...tlb1
0060: 53 39 A0 0E 01 39 A0 0E  01 74 6C 61 31 79 00 39  S9...9...tla1y.9
0070: A0 0E 01 37 A0 0E 01 79  00 F0 FF FF 7F 37 A0 0E  ...7...y.....7..
0080: 01 1C 0A 80 00                                    .....           
```

## Opcodes

```
  0: 0x0044 [0x53] WAIT_SCHEDULER_TASK(entity1=Cornelia (ID: 17735737/0x010EA039), entity2=Cornelia (ID: 17735737/0x010EA039), action_id="tla0")
  1: 0x0051 [0x5B] LOAD_EXT_SCHEDULER(work_offset=147*, entity1=Cornelia (ID: 17735737/0x010EA039), entity2=Cornelia (ID: 17735737/0x010EA039), action="tlb1")
  2: 0x0060 [0x53] WAIT_SCHEDULER_TASK(entity1=Cornelia (ID: 17735737/0x010EA039), entity2=Cornelia (ID: 17735737/0x010EA039), action_id="tla1")
  3: 0x006D [0x79] Cornelia (ID: 17735737/0x010EA039) looks at Pavvke (ID: 17735735/0x010EA037) (Basic look)
  4: 0x0077 [0x79] LocalPlayer looks at Pavvke (ID: 17735735/0x010EA037) (Basic look)
  5: 0x0081 [0x1C] WAIT(30* ticks)
  6: 0x0084 [0x00] END_REQSTACK()
```
