# Event 113

## Metadata

| Field           | Value    |
|-----------------|----------|
| Event Index     | 8/12     |
| Offset          | 0x0184   |
| Data Size       | 33 bytes |
| Calculated Size | 33 bytes |
| Instructions    | 10       |

```
      00 01 02 03 04 05 06 07  08 09 0A 0B 0C 0D 0E 0F
      -- -- -- -- -- -- -- --  -- -- -- -- -- -- -- --
0180:             20 01 1E F0  FF FF 7F 1D 21 80 23 02       .......!.#.
0190: 03 10 04 80 00 A3 01 02  02 10 00 80 00 A3 01 1D  ................
01A0: 22 80 23 21 00                                    ".#!.           
```

## Opcodes

```
  0: 0x0184 [0x20] SET_CLI_EVENT_UC_FLAG: Lock player control
  1: 0x0186 [0x1E] EventEntity looks at LocalPlayer and starts talking
  2: 0x018B [0x1D] PRINT_EVENT_MESSAGE(message_id=7264*)
    → "Ahh, there's nothing like city streets lit up at night.\u007F1\u0000\u0007"
  3: 0x018E [0x23] WAIT_FOR_DIALOG_INTERACTION
  4: 0x018F [0x02] IF !(Work_Zone[3] == 0*) GOTO 0x01A3
  5: 0x0197 [0x02] IF !(Work_Zone[2] == 1*) GOTO 0x01A3
  6: 0x019F [0x1D] PRINT_EVENT_MESSAGE(message_id=7265*)
    → "The lamps were lit by \u001C\u0000 today. If you happen to run across the person who took time out to bring light to our city, don't forget to say a word of thanks.\u007F1\u0000\u0007"
  7: 0x01A2 [0x23] WAIT_FOR_DIALOG_INTERACTION
  8: 0x01A3 [0x21] END_EVENT
  9: 0x01A4 [0x00] END_REQSTACK()
```
