# Event 65535

## Metadata

| Field           | Value    |
|-----------------|----------|
| Event Index     | 16/17    |
| Offset          | 0x00EC   |
| Data Size       | 55 bytes |
| Calculated Size | 55 bytes |
| Instructions    | 11       |

```
      00 01 02 03 04 05 06 07  08 09 0A 0B 0C 0D 0E 0F
      -- -- -- -- -- -- -- --  -- -- -- -- -- -- -- --
00E0:                                      1C 04 80 32              ...2
00F0: 00 80 1F 00 1E 80 1F 80  0B 80 1F 01 4A B3 B2 09  ............J...
0100: 01 AC B2 09 01 1F 00 20  80 21 80 0B 80 1F 01 4A  ....... .!.....J
0110: B2 B2 09 01 AC B2 09 01  1F 00 22 80 23 80 0B 80  ..........".#...
0120: 1F 01 00                                          ...             
```

## Opcodes

```
  0: 0x00EC [0x1C] WAIT(30* ticks)
  1: 0x00EF [0x32] ExtData[1]->MainSpeed = 40* * 0.1
  2: 0x00F2 [0x1F] MOVE_ENTITY: EventEntity moves to X=-371.917*, Z=-104.224*, Y=-51.999*
  3: 0x00FA [0x1F] MOVE_ENTITY: Update entity position (mode=1)
  4: 0x00FC [0x4A] Allenberge (ID: 17412787/0x0109B2B3) looks at Volker (ID: 17412780/0x0109B2AC)
  5: 0x0105 [0x1F] MOVE_ENTITY: EventEntity moves to X=-369.946*, Z=-106.150*, Y=-51.999*
  6: 0x010D [0x1F] MOVE_ENTITY: Update entity position (mode=1)
  7: 0x010F [0x4A] Unnamed NPC (ID: 17412786/0x0109B2B2) looks at Volker (ID: 17412780/0x0109B2AC)
  8: 0x0118 [0x1F] MOVE_ENTITY: EventEntity moves to X=-359.685*, Z=-105.292*, Y=-51.999*
  9: 0x0120 [0x1F] MOVE_ENTITY: Update entity position (mode=1)
 10: 0x0122 [0x00] END_REQSTACK()
```
