# 17216232

## Common Data

| Field            | Value                     |
|------------------|---------------------------|
| Zone             | South Gustaberg (ID: 107) |
| Block Size       | 3176 bytes                |
| Total Events     | 3                         |
| References Count | 91                        |

## List of Events

| Event ID              | Entrypoint   |   Size |   Instructions |
|-----------------------|--------------|--------|----------------|
| [65535](#event-65535) | 0x0000       |      1 |              1 |
| [0](#event-0)         | 0x0001       |   1380 |            192 |
| [1](#event-1)         | 0x0565       |   1401 |            171 |

## DAT References (imed_data)

|   Index | Hex Value   |   Dec Value |
|---------|-------------|-------------|
|       0 | 0x0013      |          19 |
|       1 | 0x5307C     |      340092 |
|       2 | 0xFFF5B7DF  |  4294293471 |
|       3 | 0xFFFFFFF9  |  4294967289 |
|       4 | 0x0401      |        1025 |
|       5 | 0x4FE51     |      327249 |
|       6 | 0xFFF5C8A9  |  4294297769 |
|       7 | 0xFFFFFCD2  |  4294966482 |
|       8 | 0x173A7     |       95143 |
|       9 | 0xFFF6F220  |  4294373920 |
|      10 | 0xFFFEE4CC  |  4294894796 |
|      11 | 0x0396      |         918 |
|      12 | 0x525F9     |      337401 |
|      13 | 0xFFF5C14D  |  4294295885 |
|      14 | 0xFFFF7349  |  4294931273 |
|      15 | 0x0E26      |        3622 |
|      16 | 0x001E      |          30 |
|      17 | 0x01EA      |         490 |
|      18 | 0x0000      |           0 |
|      19 | 0x0078      |         120 |
|      20 | 0x003C      |          60 |
|      21 | 0x000A      |          10 |
|      22 | 0x0014      |          20 |
|      23 | 0x2B51      |       11089 |
|      24 | 0x04F7      |        1271 |
|      25 | 0x2B52      |       11090 |
|      26 | 0x012C      |         300 |
|      27 | 0x0007      |           7 |
|      28 | 0x2B53      |       11091 |
|      29 | 0x50C87     |      330887 |
|      30 | 0xFFF5B4ED  |  4294292717 |
|      31 | 0xFFFFFD4D  |  4294966605 |
|      32 | 0x0C09      |        3081 |
|      33 | 0x50CC9     |      330953 |
|      34 | 0xFFF5BCA4  |  4294294692 |
|      35 | 0xFFFFFCA4  |  4294966436 |
|      36 | 0x0419      |        1049 |
|      37 | 0x007B      |         123 |
|      38 | 0x2B54      |       11092 |
|      39 | 0x2B55      |       11093 |
|      40 | 0x2B56      |       11094 |
|      41 | 0x2B57      |       11095 |
|      42 | 0x2B58      |       11096 |
|      43 | 0x00B4      |         180 |
|      44 | 0x001A      |          26 |
|      45 | 0x2B59      |       11097 |
|      46 | 0x0045      |          69 |
|      47 | 0x2B5A      |       11098 |
|      48 | 0x2B5B      |       11099 |
|      49 | 0x002D      |          45 |
|      50 | 0x2B5C      |       11100 |
|      51 | 0x007F      |         127 |
|      52 | 0x00D5      |         213 |
|      53 | 0x2B5D      |       11101 |
|      54 | 0x00FF      |         255 |
|      55 | 0x0001      |           1 |
|      56 | 0x2B5E      |       11102 |
|      57 | 0x2B5F      |       11103 |
|      58 | 0x2B60      |       11104 |
|      59 | 0x2B61      |       11105 |
|      60 | 0x005A      |          90 |
|      61 | 0x2B62      |       11106 |
|      62 | 0x0096      |         150 |
|      63 | 0x2B63      |       11107 |
|      64 | 0x0074      |         116 |
|      65 | 0x00C8      |         200 |
|      66 | 0x53085     |      340101 |
|      67 | 0xFFF5B842  |  4294293570 |
|      68 | 0xFFFFFFF8  |  4294967288 |
|      69 | 0x0C11      |        3089 |
|      70 | 0x54041     |      344129 |
|      71 | 0xFFF5C4A0  |  4294296736 |
|      72 | 0xFFFFFD3C  |  4294966588 |
|      73 | 0x06D8      |        1752 |
|      74 | 0x0050      |          80 |
|      75 | 0x2B64      |       11108 |
|      76 | 0x2B65      |       11109 |
|      77 | 0x2B66      |       11110 |
|      78 | 0x2B67      |       11111 |
|      79 | 0x000F      |          15 |
|      80 | 0x0083      |         131 |
|      81 | 0x2B68      |       11112 |
|      82 | 0x2B69      |       11113 |
|      83 | 0x007A      |         122 |
|      84 | 0x2B6A      |       11114 |
|      85 | 0x2B6B      |       11115 |
|      86 | 0x0024      |          36 |
|      87 | 0x2B6C      |       11116 |
|      88 | 0x00C9      |         201 |
|      89 | 0x0002      |           2 |
|      90 | 0x00D7      |         215 |

## Events

### Event 65535

#### Metadata

| Field        | Value   |
|--------------|---------|
| Entrypoint   | 0x0000  |
| Data Size    | 1 bytes |
| Instructions | 1       |

```
      00 01 02 03 04 05 06 07  08 09 0A 0B 0C 0D 0E 0F
      -- -- -- -- -- -- -- --  -- -- -- -- -- -- -- --
0000: 00                                                .               
```

#### Opcodes

```
  0: 0x0000 [0x00] END_REQSTACK()
```

### Event 0

#### Metadata

| Field        | Value      |
|--------------|------------|
| Entrypoint   | 0x0001     |
| Data Size    | 1380 bytes |
| Instructions | 192        |

```
      00 01 02 03 04 05 06 07  08 09 0A 0B 0C 0D 0E 0F
      -- -- -- -- -- -- -- --  -- -- -- -- -- -- -- --
0000:    42 1A B0 08 46 01 38  00 80 27 10 E9 B2 06 01   B...F.8..'.....
0010: 04 27 10 EA B2 06 01 04  4E 00 EC B2 06 01 4E 00  .'......N.....N.
0020: EB B2 06 01 92 01 E9 B2  06 01 94 01 F0 FF FF 7F  ................
0030: 94 01 E9 B2 06 01 94 01  C8 B2 06 01 94 01 EC B2  ................
0040: 06 01 94 01 EB B2 06 01  94 01 EA B2 06 01 BA F0  ................
0050: FF FF 7F 01 80 02 80 03  80 04 80 BA E9 B2 06 01  ................
0060: 05 80 06 80 07 80 04 80  59 05 EC B2 06 01 01 BA  ........Y.......
0070: EC B2 06 01 08 80 09 80  0A 80 0B 80 59 05 EB B2  ............Y...
0080: 06 01 01 BA EB B2 06 01  0C 80 0D 80 0E 80 0F 80  ................
0090: 59 05 EA B2 06 01 01 BA  EA B2 06 01 0C 80 0D 80  Y...............
00A0: 0E 80 0F 80 29 10 EA B2  06 01 09 29 10 E9 B2 06  ....)......)....
00B0: 01 0A 80 F0 FF FF 7F 80  E9 B2 06 01 80 C8 B2 06  ................
00C0: 01 80 EA B2 06 01 1C 10  80 45 11 80 F0 FF FF 7F  .........E......
00D0: F0 FF FF 7F 37 36 30 30  12 80 1A 8F 08 1C 13 80  ....7600........
00E0: 52 11 80 F0 FF FF 7F F0  FF FF 7F 37 36 30 30 45  R..........7600E
00F0: 11 80 F0 FF FF 7F F0 FF  FF 7F 37 36 30 31 12 80  ..........7601..
0100: 1C 10 80 79 00 F0 FF FF  7F C8 B2 06 01 1C 14 80  ...y............
0110: 27 10 E9 B2 06 01 0C 1C  15 80 52 11 80 F0 FF FF  '.........R.....
0120: 7F F0 FF FF 7F 37 36 30  31 45 11 80 F0 FF FF 7F  .....7601E......
0130: F0 FF FF 7F 37 36 30 32  12 80 1C 16 80 2B E9 B2  ....7602.....+..
0140: 06 01 17 80 23 4A F0 FF  FF 7F E9 B2 06 01 52 11  ....#J........R.
0150: 80 F0 FF FF 7F F0 FF FF  7F 37 36 30 32 45 11 80  .........7602E..
0160: F0 FF FF 7F F0 FF FF 7F  37 36 30 33 12 80 2A 10  ........7603..*.
0170: E9 B2 06 01 1C 10 80 03  02 10 18 80 2B E9 B2 06  ............+...
0180: 01 19 80 23 5D 12 80 1A  80 52 11 80 F0 FF FF 7F  ...#]....R......
0190: F0 FF FF 7F 37 36 30 33  45 11 80 F0 FF FF 7F F0  ....7603E.......
01A0: FF FF 7F 37 36 30 34 12  80 6E E9 B2 06 01 1B 80  ...7604..n......
01B0: 99 E9 B2 06 01 29 10 E9  B2 06 01 0B 2B E9 B2 06  .....)......+...
01C0: 01 1C 80 1C 13 80 23 1A  B0 08 1C 10 80 BA F0 FF  ......#.........
01D0: FF 7F 1D 80 1E 80 1F 80  20 80 BA E9 B2 06 01 21  ........ ......!
01E0: 80 22 80 23 80 24 80 4A  F0 FF FF 7F E9 B2 06 01  .".#.$.J........
01F0: 6F 76 F0 FF FF 7F 1C 10  80 5C 00 25 80 5C 01 25  ov.......\.%.\.%
0200: 80 9A 52 11 80 F0 FF FF  7F F0 FF FF 7F 37 36 30  ..R..........760
0210: 34 45 11 80 F0 FF FF 7F  F0 FF FF 7F 37 36 30 35  4E..........7605
0220: 12 80 1A 8F 08 1C 14 80  2B E9 B2 06 01 26 80 23  ........+....&.#
0230: 52 11 80 F0 FF FF 7F F0  FF FF 7F 37 36 30 35 45  R..........7605E
0240: 11 80 F0 FF FF 7F F0 FF  FF 7F 37 36 30 36 12 80  ..........7606..
0250: 6E E9 B2 06 01 15 80 99  E9 B2 06 01 2B E9 B2 06  n...........+...
0260: 01 27 80 23 79 00 E9 B2  06 01 C8 B2 06 01 2B E9  .'.#y.........+.
0270: B2 06 01 28 80 23 52 11  80 F0 FF FF 7F F0 FF FF  ...(.#R.........
0280: 7F 37 36 30 36 45 11 80  F0 FF FF 7F F0 FF FF 7F  .7606E..........
0290: 37 36 30 37 12 80 2B E9  B2 06 01 29 80 1C 10 80  7607..+....)....
02A0: 4A F0 FF FF 7F C8 B2 06  01 1C 13 80 23 2B E9 B2  J...........#+..
02B0: 06 01 2A 80 23 5D 12 80  2B 80 6E E9 B2 06 01 2C  ..*.#]..+.n....,
02C0: 80 99 E9 B2 06 01 79 00  E9 B2 06 01 F0 FF FF 7F  ......y.........
02D0: 2B E9 B2 06 01 2D 80 1C  10 80 4A F0 FF FF 7F E9  +....-....J.....
02E0: B2 06 01 1C 13 80 23 52  11 80 F0 FF FF 7F F0 FF  ......#R........
02F0: FF 7F 37 36 30 37 45 11  80 F0 FF FF 7F F0 FF FF  ..7607E.........
0300: 7F 37 36 30 38 12 80 66  2E 80 E9 B2 06 01 E9 B2  .7608..f........
0310: 06 01 74 6C 6B 30 2B E9  B2 06 01 2F 80 23 2B E9  ..tlk0+..../.#+.
0320: B2 06 01 30 80 23 52 11  80 F0 FF FF 7F F0 FF FF  ...0.#R.........
0330: 7F 37 36 30 38 45 11 80  F0 FF FF 7F F0 FF FF 7F  .7608E..........
0340: 37 36 30 39 12 80 66 2E  80 E9 B2 06 01 E9 B2 06  7609..f.........
0350: 01 74 6C 6B 31 1C 31 80  2B E9 B2 06 01 32 80 23  .tlk1.1.+....2.#
0360: 5C 00 33 80 5C 01 33 80  9A C5 34 80 EB B2 06 01  \.3.\.3...4.....
0370: EB B2 06 01 73 30 30 30  12 80 53 E9 B2 06 01 E9  ....s000..S.....
0380: B2 06 01 74 6C 6B 31 7B  E9 B2 06 01 52 11 80 F0  ...tlk1{....R...
0390: FF FF 7F F0 FF FF 7F 37  36 30 39 45 11 80 F0 FF  .......7609E....
03A0: FF 7F F0 FF FF 7F 37 36  31 30 12 80 66 2E 80 E9  ......7610..f...
03B0: B2 06 01 E9 B2 06 01 74  68 6B 31 1C 31 80 2B E9  .......thk1.1.+.
03C0: B2 06 01 35 80 23 52 11  80 F0 FF FF 7F F0 FF FF  ...5.#R.........
03D0: 7F 37 36 31 30 45 11 80  F0 FF FF 7F F0 FF FF 7F  .7610E..........
03E0: 37 36 31 31 12 80 77 36  80 37 80 AB 09 1C 14 80  7611..w6.7......
03F0: 2B E9 B2 06 01 38 80 23  52 11 80 F0 FF FF 7F F0  +....8.#R.......
0400: FF FF 7F 37 36 31 31 45  11 80 F0 FF FF 7F F0 FF  ...7611E........
0410: FF 7F 37 36 31 32 12 80  1C 14 80 6B 69 64 6C 30  ..7612.....kidl0
0420: E9 B2 06 01 2B E9 B2 06  01 39 80 23 52 11 80 F0  ....+....9.#R...
0430: FF FF 7F F0 FF FF 7F 37  36 31 32 45 11 80 F0 FF  .......7612E....
0440: FF 7F F0 FF FF 7F 37 36  31 33 12 80 1C 14 80 2B  ......7613.....+
0450: E9 B2 06 01 3A 80 23 5D  12 80 1A 80 52 11 80 F0  ....:.#]....R...
0460: FF FF 7F F0 FF FF 7F 37  36 31 33 45 11 80 F0 FF  .......7613E....
0470: FF 7F F0 FF FF 7F 37 36  31 34 12 80 AB 0A 78 1C  ......7614....x.
0480: 10 80 C5 34 80 EB B2 06  01 EB B2 06 01 6B 69 6C  ...4.........kil
0490: 30 12 80 1C 10 80 4E 01  EA B2 06 01 2B E9 B2 06  0.....N.....+...
04A0: 01 3B 80 23 27 10 E9 B2  06 01 0D 1C 10 80 4A F0  .;.#'.........J.
04B0: FF FF 7F E9 B2 06 01 1C  3C 80 52 11 80 F0 FF FF  ........<.R.....
04C0: 7F F0 FF FF 7F 37 36 31  34 45 11 80 F0 FF FF 7F  .....7614E......
04D0: F0 FF FF 7F 37 36 31 35  12 80 2A 10 E9 B2 06 01  ....7615..*.....
04E0: 2B E9 B2 06 01 3D 80 1C  14 80 79 00 E9 B2 06 01  +....=....y.....
04F0: C8 B2 06 01 1C 3E 80 23  1C 14 80 4A E9 B2 06 01  .....>.#...J....
0500: F0 FF FF 7F 6F 76 E9 B2  06 01 2B E9 B2 06 01 3F  ....ov....+....?
0510: 80 1C 10 80 4A F0 FF FF  7F E9 B2 06 01 1C 13 80  ....J...........
0520: 23 1A B0 08 1C 10 80 52  11 80 F0 FF FF 7F F0 FF  #......R........
0530: FF 7F 37 36 31 35 45 11  80 F0 FF FF 7F F0 FF FF  ..7615E.........
0540: 7F 30 62 6C 66 12 80 5C  00 40 80 5C 01 40 80 9A  .0blf..\.@.\.@..
0550: 46 00 45 41 80 F0 FF FF  7F F0 FF FF 7F 66 64 69  F.EA.........fdi
0560: 32 12 80 21 00                                    2..!.           
```

#### Opcodes

```
  0: 0x0001 [0x42] SET_CLI_EVENT_CANCEL_DATA()
  1: 0x0002 [0x1A] CALL_SUBROUTINE(address=0x08B0)
  2: 0x0005 [0x46] CAMERA_CONTROL: Disable user control
  3: 0x0007 [0x38] SET_CLIENT_EVENT_MODE(mode=19*)
  4: 0x000A [0x27] REQ_SET(priority=0x10, entity_id=Orgis (ID: 17216233/0x0106B2E9), tag_num=0x04)
  5: 0x0011 [0x27] REQ_SET(priority=0x10, entity_id=Unnamed NPC (ID: 17216234/0x0106B2EA), tag_num=0x04)
  6: 0x0018 [0x4E] SET_ENTITY_HIDE_FLAG: Show Unnamed NPC (ID: 17216236/0x0106B2EC)
  7: 0x001E [0x4E] SET_ENTITY_HIDE_FLAG: Show ??? (ID: 17216235/0x0106B2EB)
  8: 0x0024 [0x92] Orgis (ID: 17216233/0x0106B2E9)->Render.Flags3 ^= 0x01
  9: 0x002A [0x94] LocalPlayer->Render.Flags3 ^= 0x01
 10: 0x0030 [0x94] Orgis (ID: 17216233/0x0106B2E9)->Render.Flags3 ^= 0x01
 11: 0x0036 [0x94] Cavernous Maw (ID: 17216200/0x0106B2C8)->Render.Flags3 ^= 0x01
 12: 0x003C [0x94] Unnamed NPC (ID: 17216236/0x0106B2EC)->Render.Flags3 ^= 0x01
 13: 0x0042 [0x94] ??? (ID: 17216235/0x0106B2EB)->Render.Flags3 ^= 0x01
 14: 0x0048 [0x94] Unnamed NPC (ID: 17216234/0x0106B2EA)->Render.Flags3 ^= 0x01
 15: 0x004E [0xBA] SET_ENTITY_POSITION(entity_id=LocalPlayer, pos_x=340.092*, pos_z=-673.825*, pos_y=-0.007*, direction=90.1°*)
 16: 0x005B [0xBA] SET_ENTITY_POSITION(entity_id=Orgis (ID: 17216233/0x0106B2E9), pos_x=327.249*, pos_z=-669.527*, pos_y=-0.814*, direction=90.1°*)
 17: 0x0068 [0x59] UPDATE_ENTITY_DATA: Unnamed NPC (ID: 17216236/0x0106B2EC)->Render.Flags0 |= 0x200000
 18: 0x006F [0xBA] SET_ENTITY_POSITION(entity_id=Unnamed NPC (ID: 17216236/0x0106B2EC), pos_x=95.143*, pos_z=-593.376*, pos_y=-72.500*, direction=80.7°*)
 19: 0x007C [0x59] UPDATE_ENTITY_DATA: ??? (ID: 17216235/0x0106B2EB)->Render.Flags0 |= 0x200000
 20: 0x0083 [0xBA] SET_ENTITY_POSITION(entity_id=??? (ID: 17216235/0x0106B2EB), pos_x=337.401*, pos_z=-671.411*, pos_y=-36.023*, direction=318.3°*)
 21: 0x0090 [0x59] UPDATE_ENTITY_DATA: Unnamed NPC (ID: 17216234/0x0106B2EA)->Render.Flags0 |= 0x200000
 22: 0x0097 [0xBA] SET_ENTITY_POSITION(entity_id=Unnamed NPC (ID: 17216234/0x0106B2EA), pos_x=337.401*, pos_z=-671.411*, pos_y=-36.023*, direction=318.3°*)
 23: 0x00A4 [0x29] REQ_SET_WAIT(priority=0x10, entity_id=Unnamed NPC (ID: 17216234/0x0106B2EA), tag_num=0x09)
 24: 0x00AB [0x29] REQ_SET_WAIT(priority=0x10, entity_id=Orgis (ID: 17216233/0x0106B2E9), tag_num=0x0A)
 25: 0x00B2 [0x80] LOAD_WAIT(entity=LocalPlayer)
 26: 0x00B7 [0x80] LOAD_WAIT(entity=Orgis (ID: 17216233/0x0106B2E9))
 27: 0x00BC [0x80] LOAD_WAIT(entity=Cavernous Maw (ID: 17216200/0x0106B2C8))
 28: 0x00C1 [0x80] LOAD_WAIT(entity=Unnamed NPC (ID: 17216234/0x0106B2EA))
 29: 0x00C6 [0x1C] WAIT(30* ticks)
 30: 0x00C9 [0x45] LOAD_SCHEDULED_TASK: Load scheduler "7600" with entities [LocalPlayer, LocalPlayer], work=[490*, 0*]
 31: 0x00DA [0x1A] CALL_SUBROUTINE(address=0x088F)
 32: 0x00DD [0x1C] WAIT(120* ticks)
 33: 0x00E0 [0x52] END_LOAD_SCHEDULER: End scheduler "7600" with entities [LocalPlayer, LocalPlayer], work=490*
 34: 0x00EF [0x45] LOAD_SCHEDULED_TASK: Load scheduler "7601" with entities [LocalPlayer, LocalPlayer], work=[490*, 0*]
 35: 0x0100 [0x1C] WAIT(30* ticks)
 36: 0x0103 [0x79] LocalPlayer looks at Cavernous Maw (ID: 17216200/0x0106B2C8) (Basic look)
 37: 0x010D [0x1C] WAIT(60* ticks)
 38: 0x0110 [0x27] REQ_SET(priority=0x10, entity_id=Orgis (ID: 17216233/0x0106B2E9), tag_num=0x0C)
 39: 0x0117 [0x1C] WAIT(10* ticks)
 40: 0x011A [0x52] END_LOAD_SCHEDULER: End scheduler "7601" with entities [LocalPlayer, LocalPlayer], work=490*
 41: 0x0129 [0x45] LOAD_SCHEDULED_TASK: Load scheduler "7602" with entities [LocalPlayer, LocalPlayer], work=[490*, 0*]
 42: 0x013A [0x1C] WAIT(20* ticks)
 43: 0x013D [0x2B] Orgis (ID: 17216233/0x0106B2E9) [11089*]:
    → "If I were you, I'd step away from that thing."
 44: 0x0144 [0x23] WAIT_FOR_DIALOG_INTERACTION
 45: 0x0145 [0x4A] LocalPlayer looks at Orgis (ID: 17216233/0x0106B2E9)
 46: 0x014E [0x52] END_LOAD_SCHEDULER: End scheduler "7602" with entities [LocalPlayer, LocalPlayer], work=490*
 47: 0x015D [0x45] LOAD_SCHEDULED_TASK: Load scheduler "7603" with entities [LocalPlayer, LocalPlayer], work=[490*, 0*]
 48: 0x016E [0x2A] GET_REQ_LEVEL(level=16, entity_id=Orgis (ID: 17216233/0x0106B2E9))
 49: 0x0174 [0x1C] WAIT(30* ticks)
 50: 0x0177 [0x03] Work_Zone[2] = 1271*
 51: 0x017C [0x2B] Orgis (ID: 17216233/0x0106B2E9) [11090*]:
    → "Hm? That $3 you got there... Well then, that makes you <Player>."
 52: 0x0183 [0x23] WAIT_FOR_DIALOG_INTERACTION
 53: 0x0184 [0x5D] SET_MUSIC_VOLUME(volume=0*, fade_time=300*)
 54: 0x0189 [0x52] END_LOAD_SCHEDULER: End scheduler "7603" with entities [LocalPlayer, LocalPlayer], work=490*
 55: 0x0198 [0x45] LOAD_SCHEDULED_TASK: Load scheduler "7604" with entities [LocalPlayer, LocalPlayer], work=[490*, 0*]
 56: 0x01A9 [0x6E] Orgis (ID: 17216233/0x0106B2E9) uses emote 7*
 57: 0x01B0 [0x99] Wait for Orgis (ID: 17216233/0x0106B2E9) animation to complete
 58: 0x01B5 [0x29] REQ_SET_WAIT(priority=0x10, entity_id=Orgis (ID: 17216233/0x0106B2E9), tag_num=0x0B)
 59: 0x01BC [0x2B] Orgis (ID: 17216233/0x0106B2E9) [11091*]:
    → "My name's Orgis, an' I'm a friend of Joachim's. I've heard much about the invaluable aid you've lent to our cause."
 60: 0x01C3 [0x1C] WAIT(120* ticks)
 61: 0x01C6 [0x23] WAIT_FOR_DIALOG_INTERACTION
 62: 0x01C7 [0x1A] CALL_SUBROUTINE(address=0x08B0)
 63: 0x01CA [0x1C] WAIT(30* ticks)
 64: 0x01CD [0xBA] SET_ENTITY_POSITION(entity_id=LocalPlayer, pos_x=330.887*, pos_z=-674.579*, pos_y=-0.691*, direction=270.8°*)
 65: 0x01DA [0xBA] SET_ENTITY_POSITION(entity_id=Orgis (ID: 17216233/0x0106B2E9), pos_x=330.953*, pos_z=-672.604*, pos_y=-0.860*, direction=92.2°*)
 66: 0x01E7 [0x4A] LocalPlayer looks at Orgis (ID: 17216233/0x0106B2E9)
 67: 0x01F0 [0x6F] WAIT_FRAME_DELAY: Yield until WaitTime reaches zero
 68: 0x01F1 [0x76] CHECK_ENTITY_RENDER_FLAGS: Wait until LocalPlayer Render.Flags0 and Render.Flags3 conditions are met
 69: 0x01F6 [0x1C] WAIT(30* ticks)
 70: 0x01F9 [0x5C] MUSIC_CONTROL: Set Idle (Day) music to song 123*
 71: 0x01FD [0x5C] MUSIC_CONTROL: Set Idle (Night) music to song 123*
 72: 0x0201 [0x9A] WAIT_MUSIC_SERVER()
 73: 0x0202 [0x52] END_LOAD_SCHEDULER: End scheduler "7604" with entities [LocalPlayer, LocalPlayer], work=490*
 74: 0x0211 [0x45] LOAD_SCHEDULED_TASK: Load scheduler "7605" with entities [LocalPlayer, LocalPlayer], work=[490*, 0*]
 75: 0x0222 [0x1A] CALL_SUBROUTINE(address=0x088F)
 76: 0x0225 [0x1C] WAIT(60* ticks)
 77: 0x0228 [0x2B] Orgis (ID: 17216233/0x0106B2E9) [11092*]:
    → "Even havin' seen the state of our world, you keep on comin' back, over an' over. I'd say you're curious to a fault, mate. Either that, or you've got morbid tastes, I reckon."
 78: 0x022F [0x23] WAIT_FOR_DIALOG_INTERACTION
 79: 0x0230 [0x52] END_LOAD_SCHEDULER: End scheduler "7605" with entities [LocalPlayer, LocalPlayer], work=490*
 80: 0x023F [0x45] LOAD_SCHEDULED_TASK: Load scheduler "7606" with entities [LocalPlayer, LocalPlayer], work=[490*, 0*]
 81: 0x0250 [0x6E] Orgis (ID: 17216233/0x0106B2E9) uses emote 10*
 82: 0x0257 [0x99] Wait for Orgis (ID: 17216233/0x0106B2E9) animation to complete
 83: 0x025C [0x2B] Orgis (ID: 17216233/0x0106B2E9) [11093*]:
    → "Funny enough, that's exactly the kind of spirit Abyssea wants for right now."
 84: 0x0263 [0x23] WAIT_FOR_DIALOG_INTERACTION
 85: 0x0264 [0x79] Orgis (ID: 17216233/0x0106B2E9) looks at Cavernous Maw (ID: 17216200/0x0106B2C8) (Basic look)
 86: 0x026E [0x2B] Orgis (ID: 17216233/0x0106B2E9) [11094*]:
    → "Jus' so you know, the cavernous maw you see here won't take you to the South Gustaberg of Abyssea."
 87: 0x0275 [0x23] WAIT_FOR_DIALOG_INTERACTION
 88: 0x0276 [0x52] END_LOAD_SCHEDULER: End scheduler "7606" with entities [LocalPlayer, LocalPlayer], work=490*
 89: 0x0285 [0x45] LOAD_SCHEDULED_TASK: Load scheduler "7607" with entities [LocalPlayer, LocalPlayer], work=[490*, 0*]
 90: 0x0296 [0x2B] Orgis (ID: 17216233/0x0106B2E9) [11095*]:
    → "Step on through, an' you'll find yourself standin' on the vast sands of the Altepa Desert. Yep, all the way over on Zepwell Island. All adventurers worth their salt would've been there a time or three. Don't know 'bout you, though."
 91: 0x029D [0x1C] WAIT(30* ticks)
 92: 0x02A0 [0x4A] LocalPlayer looks at Cavernous Maw (ID: 17216200/0x0106B2C8)
 93: 0x02A9 [0x1C] WAIT(120* ticks)
 94: 0x02AC [0x23] WAIT_FOR_DIALOG_INTERACTION
 95: 0x02AD [0x2B] Orgis (ID: 17216233/0x0106B2E9) [11096*]:
    → "Word is, this discrepancy between entrance an' exit occurs with certain maws."
 96: 0x02B4 [0x23] WAIT_FOR_DIALOG_INTERACTION
 97: 0x02B5 [0x5D] SET_MUSIC_VOLUME(volume=0*, fade_time=180*)
 98: 0x02BA [0x6E] Orgis (ID: 17216233/0x0106B2E9) uses emote 26*
 99: 0x02C1 [0x99] Wait for Orgis (ID: 17216233/0x0106B2E9) animation to complete
100: 0x02C6 [0x79] Orgis (ID: 17216233/0x0106B2E9) looks at LocalPlayer (Basic look)
101: 0x02D0 [0x2B] Orgis (ID: 17216233/0x0106B2E9) [11097*]:
    → "Somethin' to do with dimensional misalignment, but that scientific stuff's waaay over my head."
102: 0x02D7 [0x1C] WAIT(30* ticks)
103: 0x02DA [0x4A] LocalPlayer looks at Orgis (ID: 17216233/0x0106B2E9)
104: 0x02E3 [0x1C] WAIT(120* ticks)
105: 0x02E6 [0x23] WAIT_FOR_DIALOG_INTERACTION
106: 0x02E7 [0x52] END_LOAD_SCHEDULER: End scheduler "7607" with entities [LocalPlayer, LocalPlayer], work=490*
107: 0x02F6 [0x45] LOAD_SCHEDULED_TASK: Load scheduler "7608" with entities [LocalPlayer, LocalPlayer], work=[490*, 0*]
108: 0x0307 [0x66] LOAD_EXT_SCHEDULER_MAIN: Load scheduler "tlk0" with entities [Orgis (ID: 17216233/0x0106B2E9), Orgis (ID: 17216233/0x0106B2E9)], work=69*
109: 0x0316 [0x2B] Orgis (ID: 17216233/0x0106B2E9) [11098*]:
    → "Jus' knowin' where a particular maw is gonna take me is plenty, I reckon."
110: 0x031D [0x23] WAIT_FOR_DIALOG_INTERACTION
111: 0x031E [0x2B] Orgis (ID: 17216233/0x0106B2E9) [11099*]:
    → "But gettin' back on topic. It's bleedin' obvious you're dyin' to throw yourself into this maw, so I won't keep you long."
112: 0x0325 [0x23] WAIT_FOR_DIALOG_INTERACTION
113: 0x0326 [0x52] END_LOAD_SCHEDULER: End scheduler "7608" with entities [LocalPlayer, LocalPlayer], work=490*
114: 0x0335 [0x45] LOAD_SCHEDULED_TASK: Load scheduler "7609" with entities [LocalPlayer, LocalPlayer], work=[490*, 0*]
115: 0x0346 [0x66] LOAD_EXT_SCHEDULER_MAIN: Load scheduler "tlk1" with entities [Orgis (ID: 17216233/0x0106B2E9), Orgis (ID: 17216233/0x0106B2E9)], work=69*
116: 0x0355 [0x1C] WAIT(45* ticks)
117: 0x0358 [0x2B] Orgis (ID: 17216233/0x0106B2E9) [11100*]:
    → "It's a well-known fact that folk of your world gain great powers when you set foot in our world, an' boy are we jealous!"
118: 0x035F [0x23] WAIT_FOR_DIALOG_INTERACTION
119: 0x0360 [0x5C] MUSIC_CONTROL: Set Idle (Day) music to song 127*
120: 0x0364 [0x5C] MUSIC_CONTROL: Set Idle (Night) music to song 127*
121: 0x0368 [0x9A] WAIT_MUSIC_SERVER()
122: 0x0369 [0xC5] LOAD_SCHEDULED_TASK_ALT3: Load scheduler 0x80123030 for entities [??? (ID: 17216235/0x0106B2EB), ??? (ID: 17216235/0x0106B2EB)], work=213*, param=12403
123: 0x037A [0x53] WAIT_SCHEDULER_TASK: Wait for scheduler "tlk1" with entities [Orgis (ID: 17216233/0x0106B2E9), Orgis (ID: 17216233/0x0106B2E9)]
124: 0x0387 [0x7B] Orgis (ID: 17216233/0x0106B2E9) stops talking
125: 0x038C [0x52] END_LOAD_SCHEDULER: End scheduler "7609" with entities [LocalPlayer, LocalPlayer], work=490*
126: 0x039B [0x45] LOAD_SCHEDULED_TASK: Load scheduler "7610" with entities [LocalPlayer, LocalPlayer], work=[490*, 0*]
127: 0x03AC [0x66] LOAD_EXT_SCHEDULER_MAIN: Load scheduler "thk1" with entities [Orgis (ID: 17216233/0x0106B2E9), Orgis (ID: 17216233/0x0106B2E9)], work=69*
128: 0x03BB [0x1C] WAIT(45* ticks)
129: 0x03BE [0x2B] Orgis (ID: 17216233/0x0106B2E9) [11101*]:
    → "That said, there's one piece of information you oughta take with you...somethin' that jus' might save your hide, I reckon."
130: 0x03C5 [0x23] WAIT_FOR_DIALOG_INTERACTION
131: 0x03C6 [0x52] END_LOAD_SCHEDULER: End scheduler "7610" with entities [LocalPlayer, LocalPlayer], work=490*
132: 0x03D5 [0x45] LOAD_SCHEDULED_TASK: Load scheduler "7611" with entities [LocalPlayer, LocalPlayer], work=[490*, 0*]
133: 0x03E6 [0x77] SET_EVENT_TIME_WEATHER(hour=255*, weather=1*)
134: 0x03EB [0xAB] EventEntity->UnknownFlag = 1 // Enable unknown flag
135: 0x03ED [0x1C] WAIT(60* ticks)
136: 0x03F0 [0x2B] Orgis (ID: 17216233/0x0106B2E9) [11102*]:
    → "An overgrown roc has been terrorizin' the folk of the desert. Size isn't the creature's only claim to notoriety, though."
137: 0x03F7 [0x23] WAIT_FOR_DIALOG_INTERACTION
138: 0x03F8 [0x52] END_LOAD_SCHEDULER: End scheduler "7611" with entities [LocalPlayer, LocalPlayer], work=490*
139: 0x0407 [0x45] LOAD_SCHEDULED_TASK: Load scheduler "7612" with entities [LocalPlayer, LocalPlayer], work=[490*, 0*]
140: 0x0418 [0x1C] WAIT(60* ticks)
141: 0x041B [0x6B] STOP_AND_IDLE: Orgis (ID: 17216233/0x0106B2E9) stops current action and resets to idle (animation="idl0")
142: 0x0424 [0x2B] Orgis (ID: 17216233/0x0106B2E9) [11103*]:
    → "If the tales're true, it's also as quick as a flash, an' can kick up a fierce storm simply in the wake of its passage."
143: 0x042B [0x23] WAIT_FOR_DIALOG_INTERACTION
144: 0x042C [0x52] END_LOAD_SCHEDULER: End scheduler "7612" with entities [LocalPlayer, LocalPlayer], work=490*
145: 0x043B [0x45] LOAD_SCHEDULED_TASK: Load scheduler "7613" with entities [LocalPlayer, LocalPlayer], work=[490*, 0*]
146: 0x044C [0x1C] WAIT(60* ticks)
147: 0x044F [0x2B] Orgis (ID: 17216233/0x0106B2E9) [11104*]:
    → "I know a bunch of poor sods who had a run-in with the beast. They managed to shamble back to camp somehow, but not before...before most o' their skin 'ad been flayed off. Gore galore, I tell you."
148: 0x0456 [0x23] WAIT_FOR_DIALOG_INTERACTION
149: 0x0457 [0x5D] SET_MUSIC_VOLUME(volume=0*, fade_time=300*)
150: 0x045C [0x52] END_LOAD_SCHEDULER: End scheduler "7613" with entities [LocalPlayer, LocalPlayer], work=490*
151: 0x046B [0x45] LOAD_SCHEDULED_TASK: Load scheduler "7614" with entities [LocalPlayer, LocalPlayer], work=[490*, 0*]
152: 0x047C [0xAB] EventEntity->UnknownFlag = 0 // Disable unknown flag
153: 0x047E [0x78] ENABLE_GAME_TIMER_RESET_WEATHER()
154: 0x047F [0x1C] WAIT(30* ticks)
155: 0x0482 [0xC5] LOAD_SCHEDULED_TASK_ALT3: Load scheduler 0x8012306C for entities [??? (ID: 17216235/0x0106B2EB), ??? (ID: 17216235/0x0106B2EB)], work=213*, param=26987
156: 0x0493 [0x1C] WAIT(30* ticks)
157: 0x0496 [0x4E] SET_ENTITY_HIDE_FLAG: Hide Unnamed NPC (ID: 17216234/0x0106B2EA)
158: 0x049C [0x2B] Orgis (ID: 17216233/0x0106B2E9) [11105*]:
    → "Altepa is right infested with swarms of savage fiends, but this roc looms heads an' shoulders above the rest. Stay away from the fiend if you value your skin--literally."
159: 0x04A3 [0x23] WAIT_FOR_DIALOG_INTERACTION
160: 0x04A4 [0x27] REQ_SET(priority=0x10, entity_id=Orgis (ID: 17216233/0x0106B2E9), tag_num=0x0D)
161: 0x04AB [0x1C] WAIT(30* ticks)
162: 0x04AE [0x4A] LocalPlayer looks at Orgis (ID: 17216233/0x0106B2E9)
163: 0x04B7 [0x1C] WAIT(90* ticks)
164: 0x04BA [0x52] END_LOAD_SCHEDULER: End scheduler "7614" with entities [LocalPlayer, LocalPlayer], work=490*
165: 0x04C9 [0x45] LOAD_SCHEDULED_TASK: Load scheduler "7615" with entities [LocalPlayer, LocalPlayer], work=[490*, 0*]
166: 0x04DA [0x2A] GET_REQ_LEVEL(level=16, entity_id=Orgis (ID: 17216233/0x0106B2E9))
167: 0x04E0 [0x2B] Orgis (ID: 17216233/0x0106B2E9) [11106*]:
    → "If we could somehow do away with the hellish beast...but that's jus' some fool's dream. Might as well wait for hell to freeze over, or the skies to turn blue again, I reckon."
168: 0x04E7 [0x1C] WAIT(60* ticks)
169: 0x04EA [0x79] Orgis (ID: 17216233/0x0106B2E9) looks at Cavernous Maw (ID: 17216200/0x0106B2C8) (Basic look)
170: 0x04F4 [0x1C] WAIT(150* ticks)
171: 0x04F7 [0x23] WAIT_FOR_DIALOG_INTERACTION
172: 0x04F8 [0x1C] WAIT(60* ticks)
173: 0x04FB [0x4A] Orgis (ID: 17216233/0x0106B2E9) looks at LocalPlayer
174: 0x0504 [0x6F] WAIT_FRAME_DELAY: Yield until WaitTime reaches zero
175: 0x0505 [0x76] CHECK_ENTITY_RENDER_FLAGS: Wait until Orgis (ID: 17216233/0x0106B2E9) Render.Flags0 and Render.Flags3 conditions are met
176: 0x050A [0x2B] Orgis (ID: 17216233/0x0106B2E9) [11107*]:
    → "Now, jus' one last thing before I let you go. Your ears are probably bent beyond repair from hearin' these words, but I feel obliged to say 'em to you anyway: my folk an' I are countin' on you."
177: 0x0511 [0x1C] WAIT(30* ticks)
178: 0x0514 [0x4A] LocalPlayer looks at Orgis (ID: 17216233/0x0106B2E9)
179: 0x051D [0x1C] WAIT(120* ticks)
180: 0x0520 [0x23] WAIT_FOR_DIALOG_INTERACTION
181: 0x0521 [0x1A] CALL_SUBROUTINE(address=0x08B0)
182: 0x0524 [0x1C] WAIT(30* ticks)
183: 0x0527 [0x52] END_LOAD_SCHEDULER: End scheduler "7615" with entities [LocalPlayer, LocalPlayer], work=490*
184: 0x0536 [0x45] LOAD_SCHEDULED_TASK: Load scheduler "0blf" with entities [LocalPlayer, LocalPlayer], work=[490*, 0*]
185: 0x0547 [0x5C] MUSIC_CONTROL: Set Idle (Day) music to song 116*
186: 0x054B [0x5C] MUSIC_CONTROL: Set Idle (Night) music to song 116*
187: 0x054F [0x9A] WAIT_MUSIC_SERVER()
188: 0x0550 [0x46] CAMERA_CONTROL: Restore default settings
189: 0x0552 [0x45] LOAD_SCHEDULED_TASK: Load scheduler "fdi2" with entities [LocalPlayer, LocalPlayer], work=[200*, 0*]
190: 0x0563 [0x21] END_EVENT
191: 0x0564 [0x00] END_REQSTACK()
```

### Event 1

#### Metadata

| Field        | Value      |
|--------------|------------|
| Entrypoint   | 0x0565     |
| Data Size    | 1401 bytes |
| Instructions | 116        |

```
      00 01 02 03 04 05 06 07  08 09 0A 0B 0C 0D 0E 0F
      -- -- -- -- -- -- -- --  -- -- -- -- -- -- -- --
0560:                42 1A B0  08 46 01 38 00 80 4E 00       B...F.8..N.
0570: F0 FF FF 7F 5D 12 80 1A  80 27 10 E9 B2 06 01 04  ....]....'......
0580: 4E 00 EC B2 06 01 4E 00  EB B2 06 01 92 01 F0 FF  N.....N.........
0590: FF 7F 92 01 E9 B2 06 01  94 01 F0 FF FF 7F 94 01  ................
05A0: E9 B2 06 01 94 01 C8 B2  06 01 94 01 EC B2 06 01  ................
05B0: 94 01 EB B2 06 01 BA F0  FF FF 7F 42 80 43 80 44  ...........B.C.D
05C0: 80 45 80 BA E9 B2 06 01  46 80 47 80 48 80 49 80  .E......F.G.H.I.
05D0: 80 F0 FF FF 7F 80 E9 B2  06 01 80 C8 B2 06 01 6C  ...............l
05E0: F0 FF FF 7F 12 80 37 80  29 10 F0 FF FF 7F 08 1C  ......7.).......
05F0: 10 80 45 11 80 F0 FF FF  7F F0 FF FF 7F 37 36 32  ..E..........762
0600: 30 12 80 1A 8F 08 CD 4A  80 F0 FF FF 7F F0 FF FF  0......J........
0610: 7F 6D 61 69 6E 12 80 1C  13 80 92 00 F0 FF FF 7F  .main...........
0620: 1C 14 80 27 10 F0 FF FF  7F 09 1C 10 80 2B E9 B2  ...'.........+..
0630: 06 01 4B 80 2A 10 F0 FF  FF 7F 4A F0 FF FF 7F E9  ..K.*.....J.....
0640: B2 06 01 6F 76 F0 FF FF  7F 1C 10 80 23 52 11 80  ...ov.......#R..
0650: F0 FF FF 7F F0 FF FF 7F  37 36 32 30 45 11 80 F0  ........7620E...
0660: FF FF 7F F0 FF FF 7F 37  36 32 31 12 80 66 2E 80  .......7621..f..
0670: E9 B2 06 01 E9 B2 06 01  74 68 6B 31 2B E9 B2 06  ........thk1+...
0680: 01 4C 80 1C 13 80 23 2B  E9 B2 06 01 4D 80 23 66  .L....#+....M.#f
0690: 2E 80 E9 B2 06 01 E9 B2  06 01 74 68 6B 32 53 E9  ..........thk2S.
06A0: B2 06 01 E9 B2 06 01 74  68 6B 32 2B E9 B2 06 01  .......thk2+....
06B0: 4E 80 23 27 10 E9 B2 06  01 0E 1C 4F 80 52 11 80  N.#'.......O.R..
06C0: F0 FF FF 7F F0 FF FF 7F  37 36 32 31 45 11 80 F0  ........7621E...
06D0: FF FF 7F F0 FF FF 7F 37  36 32 32 12 80 2A 10 E9  .......7622..*..
06E0: B2 06 01 1C 10 80 7B E9  B2 06 01 66 50 80 E9 B2  ......{....fP...
06F0: 06 01 E9 B2 06 01 70 61  73 30 53 E9 B2 06 01 E9  ......pas0S.....
0700: B2 06 01 70 61 73 30 03  01 10 37 80 43 00 43 01  ...pas0...7.C.C.
0710: 52 11 80 F0 FF FF 7F F0  FF FF 7F 37 36 32 32 45  R..........7622E
0720: 11 80 F0 FF FF 7F F0 FF  FF 7F 37 36 32 33 12 80  ..........7623..
0730: 2B E9 B2 06 01 51 80 23  6E E9 B2 06 01 1B 80 99  +....Q.#n.......
0740: E9 B2 06 01 2B E9 B2 06  01 52 80 1C 13 80 23 27  ....+....R....#'
0750: 10 E9 B2 06 01 0F 1C 10  80 52 11 80 F0 FF FF 7F  .........R......
0760: F0 FF FF 7F 37 36 32 33  45 11 80 F0 FF FF 7F F0  ....7623E.......
0770: FF FF 7F 37 36 32 34 12  80 4A F0 FF FF 7F E9 B2  ...7624..J......
0780: 06 01 2A 10 E9 B2 06 01  5C 00 53 80 5C 01 53 80  ..*.....\.S.\.S.
0790: 9A 1C 14 80 2B E9 B2 06  01 54 80 23 7B E9 B2 06  ....+....T.#{...
07A0: 01 2B E9 B2 06 01 55 80  1C 14 80 6E E9 B2 06 01  .+....U....n....
07B0: 56 80 99 E9 B2 06 01 1C  13 80 23 52 11 80 F0 FF  V.........#R....
07C0: FF 7F F0 FF FF 7F 37 36  32 34 45 11 80 F0 FF FF  ......7624E.....
07D0: 7F F0 FF FF 7F 37 36 32  35 12 80 4A E9 B2 06 01  .....7625..J....
07E0: F0 FF FF 7F 1C 10 80 4A  F0 FF FF 7F E9 B2 06 01  .......J........
07F0: 2B E9 B2 06 01 57 80 23  1A B0 08 1C 10 80 52 11  +....W.#......R.
0800: 80 F0 FF FF 7F F0 FF FF  7F 37 36 32 35 45 11 80  .........7625E..
0810: F0 FF FF 7F F0 FF FF 7F  30 62 6C 66 12 80 5C 00  ........0blf..\.
0820: 40 80 5C 01 40 80 9A 46  00 45 58 80 F8 FF FF 7F  @.\.@..F.EX.....
0830: F8 FF FF 7F 71 73 74 63  12 80 45 41 80 F0 FF FF  ....qstc..EA....
0840: 7F F0 FF FF 7F 66 64 69  32 12 80 21 00 45 41 80  .....fdi2..!.EA.
0850: F0 FF FF 7F F0 FF FF 7F  66 64 69 30 12 80 55 41  ........fdi0..UA
0860: 80 F0 FF FF 7F F0 FF FF  7F 66 64 69 30 1B 45 41  .........fdi0.EA
0870: 80 F0 FF FF 7F F0 FF FF  7F 66 64 6F 30 12 80 55  .........fdo0..U
0880: 41 80 F0 FF FF 7F F0 FF  FF 7F 66 64 6F 30 1B 45  A.........fdo0.E
0890: 41 80 F0 FF FF 7F F0 FF  FF 7F 66 64 69 31 12 80  A.........fdi1..
08A0: 55 41 80 F0 FF FF 7F F0  FF FF 7F 66 64 69 31 1B  UA.........fdi1.
08B0: 45 41 80 F0 FF FF 7F F0  FF FF 7F 66 64 6F 31 12  EA.........fdo1.
08C0: 80 55 41 80 F0 FF FF 7F  F0 FF FF 7F 66 64 6F 31  .UA.........fdo1
08D0: 1B 45 58 80 F0 FF FF 7F  F0 FF FF 7F 77 68 69 31  .EX.........whi1
08E0: 12 80 55 58 80 F0 FF FF  7F F0 FF FF 7F 77 68 69  ..UX.........whi
08F0: 31 1B 45 58 80 F0 FF FF  7F F0 FF FF 7F 77 68 6F  1.EX.........who
0900: 31 12 80 55 58 80 F0 FF  FF 7F F0 FF FF 7F 77 68  1..UX.........wh
0910: 6F 31 1B 45 58 80 F0 FF  FF 7F F0 FF FF 7F 77 68  o1.EX.........wh
0920: 6F 32 12 80 55 58 80 F0  FF FF 7F F0 FF FF 7F 77  o2..UX.........w
0930: 68 6F 32 1B 45 58 80 F0  FF FF 7F F0 FF FF 7F 77  ho2.EX.........w
0940: 68 6F 33 12 80 55 58 80  F0 FF FF 7F F0 FF FF 7F  ho3..UX.........
0950: 77 68 6F 33 1B 62 37 80  F0 FF FF 7F F0 FF FF 7F  who3.b7.........
0960: 6D 61 69 6E 12 80 1C 31  80 45 41 80 F0 FF FF 7F  main...1.EA.....
0970: F0 FF FF 7F 66 64 6F 31  12 80 55 41 80 F0 FF FF  ....fdo1..UA....
0980: 7F F0 FF FF 7F 66 64 6F  31 1B 45 41 80 F0 FF FF  .....fdo1.EA....
0990: 7F F0 FF FF 7F 66 64 69  31 12 80 62 59 80 F0 FF  .....fdi1..bY...
09A0: FF 7F F0 FF FF 7F 6D 61  69 6E 12 80 1C 10 80 55  ......main.....U
09B0: 41 80 F0 FF FF 7F F0 FF  FF 7F 66 64 69 31 1B 45  A.........fdi1.E
09C0: 41 80 F0 FF FF 7F F0 FF  FF 7F 62 6C 6F 6E 12 80  A.........blon..
09D0: 45 58 80 F0 FF FF 7F F0  FF FF 7F 62 6C 6F 6E 12  EX.........blon.
09E0: 80 1B 45 58 80 F0 FF FF  7F F0 FF FF 7F 77 68 69  ..EX.........whi
09F0: 30 12 80 55 58 80 F0 FF  FF 7F F0 FF FF 7F 77 68  0..UX.........wh
0A00: 69 30 1B 45 58 80 F0 FF  FF 7F F0 FF FF 7F 77 68  i0.EX.........wh
0A10: 6F 30 12 80 55 58 80 F0  FF FF 7F F0 FF FF 7F 77  o0..UX.........w
0A20: 68 6F 30 1B 45 5A 80 F0  FF FF 7F F0 FF FF 7F 65  ho0.EZ.........e
0A30: 66 6F 6E 12 80 55 5A 80  F0 FF FF 7F F0 FF FF 7F  fon..UZ.........
0A40: 65 66 6F 6E 1B 45 41 80  F0 FF FF 7F F0 FF FF 7F  efon.EA.........
0A50: 66 64 69 73 12 80 1B 45  41 80 F0 FF FF 7F F0 FF  fdis...EA.......
0A60: FF 7F 66 64 6F 73 12 80  55 41 80 F0 FF FF 7F F0  ..fdos..UA......
0A70: FF FF 7F 66 64 6F 73 1B  45 41 80 F0 FF FF 7F F0  ...fdos.EA......
0A80: FF FF 7F 66 64 69 66 12  80 1B 45 41 80 F0 FF FF  ...fdif...EA....
0A90: 7F F0 FF FF 7F 66 64 6F  66 12 80 55 41 80 F0 FF  .....fdof..UA...
0AA0: FF 7F F0 FF FF 7F 66 64  6F 66 1B 45 41 80 F0 FF  ......fdof.EA...
0AB0: FF 7F F0 FF FF 7F 66 64  69 70 12 80 1B 45 41 80  ......fdip...EA.
0AC0: F0 FF FF 7F F0 FF FF 7F  66 64 6F 70 12 80 55 41  ........fdop..UA
0AD0: 80 F0 FF FF 7F F0 FF FF  7F 66 64 6F 70 1B        .........fdop.  
```

#### Opcodes

```
  0: 0x0565 [0x42] SET_CLI_EVENT_CANCEL_DATA()
  1: 0x0566 [0x1A] CALL_SUBROUTINE(address=0x08B0)
  2: 0x0569 [0x46] CAMERA_CONTROL: Disable user control
  3: 0x056B [0x38] SET_CLIENT_EVENT_MODE(mode=19*)
  4: 0x056E [0x4E] SET_ENTITY_HIDE_FLAG: Show LocalPlayer
  5: 0x0574 [0x5D] SET_MUSIC_VOLUME(volume=0*, fade_time=300*)
  6: 0x0579 [0x27] REQ_SET(priority=0x10, entity_id=Orgis (ID: 17216233/0x0106B2E9), tag_num=0x04)
  7: 0x0580 [0x4E] SET_ENTITY_HIDE_FLAG: Show Unnamed NPC (ID: 17216236/0x0106B2EC)
  8: 0x0586 [0x4E] SET_ENTITY_HIDE_FLAG: Show ??? (ID: 17216235/0x0106B2EB)
  9: 0x058C [0x92] LocalPlayer->Render.Flags3 ^= 0x01
 10: 0x0592 [0x92] Orgis (ID: 17216233/0x0106B2E9)->Render.Flags3 ^= 0x01
 11: 0x0598 [0x94] LocalPlayer->Render.Flags3 ^= 0x01
 12: 0x059E [0x94] Orgis (ID: 17216233/0x0106B2E9)->Render.Flags3 ^= 0x01
 13: 0x05A4 [0x94] Cavernous Maw (ID: 17216200/0x0106B2C8)->Render.Flags3 ^= 0x01
 14: 0x05AA [0x94] Unnamed NPC (ID: 17216236/0x0106B2EC)->Render.Flags3 ^= 0x01
 15: 0x05B0 [0x94] ??? (ID: 17216235/0x0106B2EB)->Render.Flags3 ^= 0x01
 16: 0x05B6 [0xBA] SET_ENTITY_POSITION(entity_id=LocalPlayer, pos_x=340.101*, pos_z=-673.726*, pos_y=-0.008*, direction=271.5°*)
 17: 0x05C3 [0xBA] SET_ENTITY_POSITION(entity_id=Orgis (ID: 17216233/0x0106B2E9), pos_x=344.129*, pos_z=-670.560*, pos_y=-0.708*, direction=154.0°*)
 18: 0x05D0 [0x80] LOAD_WAIT(entity=LocalPlayer)
 19: 0x05D5 [0x80] LOAD_WAIT(entity=Orgis (ID: 17216233/0x0106B2E9))
 20: 0x05DA [0x80] LOAD_WAIT(entity=Cavernous Maw (ID: 17216200/0x0106B2C8))
 21: 0x05DF [0x6C] FADE_ENTITY_COLOR(entity_id=LocalPlayer, end_alpha=0*, fade_time=1*)
 22: 0x05E8 [0x29] REQ_SET_WAIT(priority=0x10, entity_id=LocalPlayer, tag_num=0x08)
 23: 0x05EF [0x1C] WAIT(30* ticks)
 24: 0x05F2 [0x45] LOAD_SCHEDULED_TASK: Load scheduler "7620" with entities [LocalPlayer, LocalPlayer], work=[490*, 0*]
 25: 0x0603 [0x1A] CALL_SUBROUTINE(address=0x088F)
 26: 0x0606 [0xCD] LOAD_SCHEDULED_TASK_ALT4: Load scheduler "main" with entities [LocalPlayer, LocalPlayer], work=[80*, 0*]
 27: 0x0617 [0x1C] WAIT(120* ticks)
 28: 0x061A [0x92] LocalPlayer->Render.Flags3 = Flags3  // No change (flag=0)
 29: 0x0620 [0x1C] WAIT(60* ticks)
 30: 0x0623 [0x27] REQ_SET(priority=0x10, entity_id=LocalPlayer, tag_num=0x09)
 31: 0x062A [0x1C] WAIT(30* ticks)
 32: 0x062D [0x2B] Orgis (ID: 17216233/0x0106B2E9) [11108*]:
    → "Ah, you're back. Seems there's more to you than meets the eye, mate."
 33: 0x0634 [0x2A] GET_REQ_LEVEL(level=16, entity_id=LocalPlayer)
 34: 0x063A [0x4A] LocalPlayer looks at Orgis (ID: 17216233/0x0106B2E9)
 35: 0x0643 [0x6F] WAIT_FRAME_DELAY: Yield until WaitTime reaches zero
 36: 0x0644 [0x76] CHECK_ENTITY_RENDER_FLAGS: Wait until LocalPlayer Render.Flags0 and Render.Flags3 conditions are met
 37: 0x0649 [0x1C] WAIT(30* ticks)
 38: 0x064C [0x23] WAIT_FOR_DIALOG_INTERACTION
 39: 0x064D [0x52] END_LOAD_SCHEDULER: End scheduler "7620" with entities [LocalPlayer, LocalPlayer], work=490*
 40: 0x065C [0x45] LOAD_SCHEDULED_TASK: Load scheduler "7621" with entities [LocalPlayer, LocalPlayer], work=[490*, 0*]
 41: 0x066D [0x66] LOAD_EXT_SCHEDULER_MAIN: Load scheduler "thk1" with entities [Orgis (ID: 17216233/0x0106B2E9), Orgis (ID: 17216233/0x0106B2E9)], work=69*
 42: 0x067C [0x2B] Orgis (ID: 17216233/0x0106B2E9) [11109*]:
    → "Even before we talked, I'd heard about your dauntless feats, but it never crossed my mind that you might be the one to eliminate that terrible menace."
 43: 0x0683 [0x1C] WAIT(120* ticks)
 44: 0x0686 [0x23] WAIT_FOR_DIALOG_INTERACTION
 45: 0x0687 [0x2B] Orgis (ID: 17216233/0x0106B2E9) [11110*]:
    → "Thanks to you, the survivors in Altepa now dare to dream of better days ahead."
 46: 0x068E [0x23] WAIT_FOR_DIALOG_INTERACTION
 47: 0x068F [0x66] LOAD_EXT_SCHEDULER_MAIN: Load scheduler "thk2" with entities [Orgis (ID: 17216233/0x0106B2E9), Orgis (ID: 17216233/0x0106B2E9)], work=69*
 48: 0x069E [0x53] WAIT_SCHEDULER_TASK: Wait for scheduler "thk2" with entities [Orgis (ID: 17216233/0x0106B2E9), Orgis (ID: 17216233/0x0106B2E9)]
 49: 0x06AB [0x2B] Orgis (ID: 17216233/0x0106B2E9) [11111*]:
    → "I've brought a lil' somethin' for you, to help you on your way."
 50: 0x06B2 [0x23] WAIT_FOR_DIALOG_INTERACTION
 51: 0x06B3 [0x27] REQ_SET(priority=0x10, entity_id=Orgis (ID: 17216233/0x0106B2E9), tag_num=0x0E)
 52: 0x06BA [0x1C] WAIT(15* ticks)
 53: 0x06BD [0x52] END_LOAD_SCHEDULER: End scheduler "7621" with entities [LocalPlayer, LocalPlayer], work=490*
 54: 0x06CC [0x45] LOAD_SCHEDULED_TASK: Load scheduler "7622" with entities [LocalPlayer, LocalPlayer], work=[490*, 0*]
 55: 0x06DD [0x2A] GET_REQ_LEVEL(level=16, entity_id=Orgis (ID: 17216233/0x0106B2E9))
 56: 0x06E3 [0x1C] WAIT(30* ticks)
 57: 0x06E6 [0x7B] Orgis (ID: 17216233/0x0106B2E9) stops talking
 58: 0x06EB [0x66] LOAD_EXT_SCHEDULER_MAIN: Load scheduler "pas0" with entities [Orgis (ID: 17216233/0x0106B2E9), Orgis (ID: 17216233/0x0106B2E9)], work=131*
 59: 0x06FA [0x53] WAIT_SCHEDULER_TASK: Wait for scheduler "pas0" with entities [Orgis (ID: 17216233/0x0106B2E9), Orgis (ID: 17216233/0x0106B2E9)]
 60: 0x0707 [0x03] Work_Zone[1] = 1*
 61: 0x070C [0x43] SEND_EVENT_UPDATE: Send pending tag to server (packet 0x005B)
 62: 0x070E [0x43] SEND_EVENT_UPDATE: Check pending flag (skip if not pending)
 63: 0x0710 [0x52] END_LOAD_SCHEDULER: End scheduler "7622" with entities [LocalPlayer, LocalPlayer], work=490*
 64: 0x071F [0x45] LOAD_SCHEDULED_TASK: Load scheduler "7623" with entities [LocalPlayer, LocalPlayer], work=[490*, 0*]
 65: 0x0730 [0x2B] Orgis (ID: 17216233/0x0106B2E9) [11112*]:
    → "It's $6, somethin' that's supposed to work like a charm for folk of your world."
 66: 0x0737 [0x23] WAIT_FOR_DIALOG_INTERACTION
 67: 0x0738 [0x6E] Orgis (ID: 17216233/0x0106B2E9) uses emote 7*
 68: 0x073F [0x99] Wait for Orgis (ID: 17216233/0x0106B2E9) animation to complete
 69: 0x0744 [0x2B] Orgis (ID: 17216233/0x0106B2E9) [11113*]:
    → "It's a bloody hard variety of the stone to come by, so don't go losin' it, eh?"
 70: 0x074B [0x1C] WAIT(120* ticks)
 71: 0x074E [0x23] WAIT_FOR_DIALOG_INTERACTION
 72: 0x074F [0x27] REQ_SET(priority=0x10, entity_id=Orgis (ID: 17216233/0x0106B2E9), tag_num=0x0F)
 73: 0x0756 [0x1C] WAIT(30* ticks)
 74: 0x0759 [0x52] END_LOAD_SCHEDULER: End scheduler "7623" with entities [LocalPlayer, LocalPlayer], work=490*
 75: 0x0768 [0x45] LOAD_SCHEDULED_TASK: Load scheduler "7624" with entities [LocalPlayer, LocalPlayer], work=[490*, 0*]
 76: 0x0779 [0x4A] LocalPlayer looks at Orgis (ID: 17216233/0x0106B2E9)
 77: 0x0782 [0x2A] GET_REQ_LEVEL(level=16, entity_id=Orgis (ID: 17216233/0x0106B2E9))
 78: 0x0788 [0x5C] MUSIC_CONTROL: Set Idle (Day) music to song 122*
 79: 0x078C [0x5C] MUSIC_CONTROL: Set Idle (Night) music to song 122*
 80: 0x0790 [0x9A] WAIT_MUSIC_SERVER()
 81: 0x0791 [0x1C] WAIT(60* ticks)
 82: 0x0794 [0x2B] Orgis (ID: 17216233/0x0106B2E9) [11114*]:
    → "<Sigh>... Each time I step into tranquil Vana'diel, it feels as though I'm wakin' up from a bad dream. If only that were the case, eh?"
 83: 0x079B [0x23] WAIT_FOR_DIALOG_INTERACTION
 84: 0x079C [0x7B] Orgis (ID: 17216233/0x0106B2E9) stops talking
 85: 0x07A1 [0x2B] Orgis (ID: 17216233/0x0106B2E9) [11115*]:
    → "An' speakin' of the devil, looks like my time's up. As much as I'd love to stay around an' chat, I've gotta get back to my livin' nightmare."
 86: 0x07A8 [0x1C] WAIT(60* ticks)
 87: 0x07AB [0x6E] Orgis (ID: 17216233/0x0106B2E9) uses emote 36*
 88: 0x07B2 [0x99] Wait for Orgis (ID: 17216233/0x0106B2E9) animation to complete
 89: 0x07B7 [0x1C] WAIT(120* ticks)
 90: 0x07BA [0x23] WAIT_FOR_DIALOG_INTERACTION
 91: 0x07BB [0x52] END_LOAD_SCHEDULER: End scheduler "7624" with entities [LocalPlayer, LocalPlayer], work=490*
 92: 0x07CA [0x45] LOAD_SCHEDULED_TASK: Load scheduler "7625" with entities [LocalPlayer, LocalPlayer], work=[490*, 0*]
 93: 0x07DB [0x4A] Orgis (ID: 17216233/0x0106B2E9) looks at LocalPlayer
 94: 0x07E4 [0x1C] WAIT(30* ticks)
 95: 0x07E7 [0x4A] LocalPlayer looks at Orgis (ID: 17216233/0x0106B2E9)
 96: 0x07F0 [0x2B] Orgis (ID: 17216233/0x0106B2E9) [11116*]:
    → "My mates an' I have high hopes for you, <Player>. Don't let us down, eh?"
 97: 0x07F7 [0x23] WAIT_FOR_DIALOG_INTERACTION
 98: 0x07F8 [0x1A] CALL_SUBROUTINE(address=0x08B0)
 99: 0x07FB [0x1C] WAIT(30* ticks)
100: 0x07FE [0x52] END_LOAD_SCHEDULER: End scheduler "7625" with entities [LocalPlayer, LocalPlayer], work=490*
101: 0x080D [0x45] LOAD_SCHEDULED_TASK: Load scheduler "0blf" with entities [LocalPlayer, LocalPlayer], work=[490*, 0*]
102: 0x081E [0x5C] MUSIC_CONTROL: Set Idle (Day) music to song 116*
103: 0x0822 [0x5C] MUSIC_CONTROL: Set Idle (Night) music to song 116*
104: 0x0826 [0x9A] WAIT_MUSIC_SERVER()
105: 0x0827 [0x46] CAMERA_CONTROL: Restore default settings
106: 0x0829 [0x45] LOAD_SCHEDULED_TASK: Load scheduler "qstc" with entities [EventEntity, EventEntity], work=[201*, 0*]
107: 0x083A [0x45] LOAD_SCHEDULED_TASK: Load scheduler "fdi2" with entities [LocalPlayer, LocalPlayer], work=[200*, 0*]
108: 0x084B [0x21] END_EVENT
109: 0x084C [0x00] END_REQSTACK()

SUBROUTINE_088F:
110: 0x088F [0x45] LOAD_SCHEDULED_TASK: Load scheduler "fdi1" with entities [LocalPlayer, LocalPlayer], work=[200*, 0*]
111: 0x08A0 [0x55] WAIT_LOAD_SCHEDULER: Wait for scheduler "fdi1" with entities [LocalPlayer, LocalPlayer], work=200*
112: 0x08AF [0x1B] RETURN

SUBROUTINE_08B0:
113: 0x08B0 [0x45] LOAD_SCHEDULED_TASK: Load scheduler "fdo1" with entities [LocalPlayer, LocalPlayer], work=[200*, 0*]
114: 0x08C1 [0x55] WAIT_LOAD_SCHEDULER: Wait for scheduler "fdo1" with entities [LocalPlayer, LocalPlayer], work=200*
115: 0x08D0 [0x1B] RETURN
```

#### Data or dead code:

```
# Dead code (unreachable instructions):
     0x084D [0x45] LOAD_SCHEDULED_TASK: Load scheduler "fdi0" with entities [LocalPlayer, LocalPlayer], work=[200*, 0*]
     0x085E [0x55] WAIT_LOAD_SCHEDULER: Wait for scheduler "fdi0" with entities [LocalPlayer, LocalPlayer], work=200*
     0x086D [0x1B] RETURN
     0x086E [0x45] LOAD_SCHEDULED_TASK: Load scheduler "fdo0" with entities [LocalPlayer, LocalPlayer], work=[200*, 0*]
     0x087F [0x55] WAIT_LOAD_SCHEDULER: Wait for scheduler "fdo0" with entities [LocalPlayer, LocalPlayer], work=200*
     0x088E [0x1B] RETURN
# Dead code (unreachable instructions):
     0x08D1 [0x45] LOAD_SCHEDULED_TASK: Load scheduler "whi1" with entities [LocalPlayer, LocalPlayer], work=[201*, 0*]
     0x08E2 [0x55] WAIT_LOAD_SCHEDULER: Wait for scheduler "whi1" with entities [LocalPlayer, LocalPlayer], work=201*
     0x08F1 [0x1B] RETURN
     0x08F2 [0x45] LOAD_SCHEDULED_TASK: Load scheduler "who1" with entities [LocalPlayer, LocalPlayer], work=[201*, 0*]
     0x0903 [0x55] WAIT_LOAD_SCHEDULER: Wait for scheduler "who1" with entities [LocalPlayer, LocalPlayer], work=201*
     0x0912 [0x1B] RETURN
     0x0913 [0x45] LOAD_SCHEDULED_TASK: Load scheduler "who2" with entities [LocalPlayer, LocalPlayer], work=[201*, 0*]
     0x0924 [0x55] WAIT_LOAD_SCHEDULER: Wait for scheduler "who2" with entities [LocalPlayer, LocalPlayer], work=201*
     0x0933 [0x1B] RETURN
     0x0934 [0x45] LOAD_SCHEDULED_TASK: Load scheduler "who3" with entities [LocalPlayer, LocalPlayer], work=[201*, 0*]
     0x0945 [0x55] WAIT_LOAD_SCHEDULER: Wait for scheduler "who3" with entities [LocalPlayer, LocalPlayer], work=201*
     0x0954 [0x1B] RETURN
     0x0955 [0x62] LOAD_EVENT_SCHEDULER: Load scheduler "main" with entities [LocalPlayer, LocalPlayer], work=[1*, 0*]
     0x0966 [0x1C] WAIT(45* ticks)
     0x0969 [0x45] LOAD_SCHEDULED_TASK: Load scheduler "fdo1" with entities [LocalPlayer, LocalPlayer], work=[200*, 0*]
     0x097A [0x55] WAIT_LOAD_SCHEDULER: Wait for scheduler "fdo1" with entities [LocalPlayer, LocalPlayer], work=200*
     0x0989 [0x1B] RETURN
     0x098A [0x45] LOAD_SCHEDULED_TASK: Load scheduler "fdi1" with entities [LocalPlayer, LocalPlayer], work=[200*, 0*]
     0x099B [0x62] LOAD_EVENT_SCHEDULER: Load scheduler "main" with entities [LocalPlayer, LocalPlayer], work=[2*, 0*]
     0x09AC [0x1C] WAIT(30* ticks)
     0x09AF [0x55] WAIT_LOAD_SCHEDULER: Wait for scheduler "fdi1" with entities [LocalPlayer, LocalPlayer], work=200*
     0x09BE [0x1B] RETURN
     0x09BF [0x45] LOAD_SCHEDULED_TASK: Load scheduler "blon" with entities [LocalPlayer, LocalPlayer], work=[200*, 0*]
     0x09D0 [0x45] LOAD_SCHEDULED_TASK: Load scheduler "blon" with entities [LocalPlayer, LocalPlayer], work=[201*, 0*]
     0x09E1 [0x1B] RETURN
     0x09E2 [0x45] LOAD_SCHEDULED_TASK: Load scheduler "whi0" with entities [LocalPlayer, LocalPlayer], work=[201*, 0*]
     0x09F3 [0x55] WAIT_LOAD_SCHEDULER: Wait for scheduler "whi0" with entities [LocalPlayer, LocalPlayer], work=201*
     0x0A02 [0x1B] RETURN
     0x0A03 [0x45] LOAD_SCHEDULED_TASK: Load scheduler "who0" with entities [LocalPlayer, LocalPlayer], work=[201*, 0*]
     0x0A14 [0x55] WAIT_LOAD_SCHEDULER: Wait for scheduler "who0" with entities [LocalPlayer, LocalPlayer], work=201*
     0x0A23 [0x1B] RETURN
     0x0A24 [0x45] LOAD_SCHEDULED_TASK: Load scheduler "efon" with entities [LocalPlayer, LocalPlayer], work=[215*, 0*]
     0x0A35 [0x55] WAIT_LOAD_SCHEDULER: Wait for scheduler "efon" with entities [LocalPlayer, LocalPlayer], work=215*
     0x0A44 [0x1B] RETURN
     0x0A45 [0x45] LOAD_SCHEDULED_TASK: Load scheduler "fdis" with entities [LocalPlayer, LocalPlayer], work=[200*, 0*]
     0x0A56 [0x1B] RETURN
     0x0A57 [0x45] LOAD_SCHEDULED_TASK: Load scheduler "fdos" with entities [LocalPlayer, LocalPlayer], work=[200*, 0*]
     0x0A68 [0x55] WAIT_LOAD_SCHEDULER: Wait for scheduler "fdos" with entities [LocalPlayer, LocalPlayer], work=200*
     0x0A77 [0x1B] RETURN
     0x0A78 [0x45] LOAD_SCHEDULED_TASK: Load scheduler "fdif" with entities [LocalPlayer, LocalPlayer], work=[200*, 0*]
     0x0A89 [0x1B] RETURN
     0x0A8A [0x45] LOAD_SCHEDULED_TASK: Load scheduler "fdof" with entities [LocalPlayer, LocalPlayer], work=[200*, 0*]
     0x0A9B [0x55] WAIT_LOAD_SCHEDULER: Wait for scheduler "fdof" with entities [LocalPlayer, LocalPlayer], work=200*
     0x0AAA [0x1B] RETURN
     0x0AAB [0x45] LOAD_SCHEDULED_TASK: Load scheduler "fdip" with entities [LocalPlayer, LocalPlayer], work=[200*, 0*]
     0x0ABC [0x1B] RETURN
     0x0ABD [0x45] LOAD_SCHEDULED_TASK: Load scheduler "fdop" with entities [LocalPlayer, LocalPlayer], work=[200*, 0*]
     0x0ACE [0x55] WAIT_LOAD_SCHEDULER: Wait for scheduler "fdop" with entities [LocalPlayer, LocalPlayer], work=200*
     0x0ADD [0x1B] RETURN
```
