# 17216217 - Wandering Cloud

## Common Data

| Field            | Value                     |
|------------------|---------------------------|
| Zone             | South Gustaberg (ID: 107) |
| Block Size       | 2544 bytes                |
| Total Events     | 9                         |
| References Count | 112                       |

## List of Events

| Event ID              | Entrypoint   |   Size |   Instructions |
|-----------------------|--------------|--------|----------------|
| [65535](#event-65535) | 0x0000       |      1 |              1 |
| [7001](#event-7001)   | 0x0001       |    540 |            127 |
| [7004](#event-7004)   | 0x021D       |    267 |             70 |
| [7005](#event-7005)   | 0x0328       |    135 |             34 |
| [7011](#event-7011)   | 0x03AF       |     54 |             14 |
| [7010](#event-7010)   | 0x03E5       |     24 |              8 |
| [7009](#event-7009)   | 0x03FD       |     32 |             10 |
| [7012](#event-7012)   | 0x041D       |     24 |              8 |
| [7014](#event-7014)   | 0x0435       |    967 |            191 |

## DAT References (imed_data)

|   Index | Hex Value   |   Dec Value |
|---------|-------------|-------------|
|       0 | 0x2B1B      |       11035 |
|       1 | 0x2B1C      |       11036 |
|       2 | 0x2B1D      |       11037 |
|       3 | 0x0000      |           0 |
|       4 | 0x0001      |           1 |
|       5 | 0x2B44      |       11076 |
|       6 | 0x0003      |           3 |
|       7 | 0x2B30      |       11056 |
|       8 | 0x006B      |         107 |
|       9 | 0x0009      |           9 |
|      10 | 0x2B32      |       11058 |
|      11 | 0x2B2E      |       11054 |
|      12 | 0x2B2F      |       11055 |
|      13 | 0x0002      |           2 |
|      14 | 0x1914      |        6420 |
|      15 | 0x0004      |           4 |
|      16 | 0x2B1F      |       11039 |
|      17 | 0x2B20      |       11040 |
|      18 | 0x2B21      |       11041 |
|      19 | 0x2B22      |       11042 |
|      20 | 0x2B23      |       11043 |
|      21 | 0x2B24      |       11044 |
|      22 | 0x2B25      |       11045 |
|      23 | 0x2B26      |       11046 |
|      24 | 0x2B27      |       11047 |
|      25 | 0x2B28      |       11048 |
|      26 | 0x2B29      |       11049 |
|      27 | 0x2B42      |       11074 |
|      28 | 0x2B43      |       11075 |
|      29 | 0x2B2A      |       11050 |
|      30 | 0x000F      |          15 |
|      31 | 0x003C      |          60 |
|      32 | 0x0010      |          16 |
|      33 | 0x001F      |          31 |
|      34 | 0x2B2C      |       11052 |
|      35 | 0x2B2B      |       11051 |
|      36 | 0x2B37      |       11063 |
|      37 | 0x2B38      |       11064 |
|      38 | 0x2B31      |       11057 |
|      39 | 0x2B39      |       11065 |
|      40 | 0x0005      |           5 |
|      41 | 0x2B3A      |       11066 |
|      42 | 0x2B3B      |       11067 |
|      43 | 0x2B3C      |       11068 |
|      44 | 0x0007      |           7 |
|      45 | 0x2B3E      |       11070 |
|      46 | 0x2B3F      |       11071 |
|      47 | 0x2B3D      |       11069 |
|      48 | 0x2B50      |       11088 |
|      49 | 0x2B40      |       11072 |
|      50 | 0x2B36      |       11062 |
|      51 | 0x2B34      |       11060 |
|      52 | 0x2B35      |       11061 |
|      53 | 0x2B41      |       11073 |
|      54 | 0x2B1E      |       11038 |
|      55 | 0x000A      |          10 |
|      56 | 0x55CFD     |      351485 |
|      57 | 0x7CC2D     |      511021 |
|      58 | 0x7DF83     |      515971 |
|      59 | 0x80C03     |      527363 |
|      60 | 0x55CD4     |      351444 |
|      61 | 0x29B30     |      170800 |
|      62 | 0x147A5     |       83877 |
|      63 | 0xFFFF9C6B  |  4294941803 |
|      64 | 0xFFFF5A6B  |  4294924907 |
|      65 | 0x11C91     |       72849 |
|      66 | 0xFFFB0C62  |  4294642786 |
|      67 | 0xFFFA24F7  |  4294583543 |
|      68 | 0xFFF88C0F  |  4294478863 |
|      69 | 0xFFF63984  |  4294326660 |
|      70 | 0xFFF75095  |  4294398101 |
|      71 | 0xFFF61C5A  |  4294319194 |
|      72 | 0xFFF7DE94  |  4294434452 |
|      73 | 0xFFF9EEF9  |  4294569721 |
|      74 | 0xFFFC45F9  |  4294723065 |
|      75 | 0xFFFCA26E  |  4294746734 |
|      76 | 0x001D      |          29 |
|      77 | 0xFFFFFFC2  |  4294967234 |
|      78 | 0x00BE      |         190 |
|      79 | 0xFFFFFFD0  |  4294967248 |
|      80 | 0x0087      |         135 |
|      81 | 0xFFFFFA26  |  4294965798 |
|      82 | 0x2710      |       10000 |
|      83 | 0x21BF      |        8639 |
|      84 | 0xFFFFF869  |  4294965353 |
|      85 | 0xFFFFFA94  |  4294965908 |
|      86 | 0xFFFFFE4C  |  4294966860 |
|      87 | 0x0701      |        1793 |
|      88 | 0x0604      |        1540 |
|      89 | 0x0659      |        1625 |
|      90 | 0xFFFFF96F  |  4294965615 |
|      91 | 0xFFFFF49B  |  4294964379 |
|      92 | 0x09A5      |        2469 |
|      93 | 0xFFFFFF69  |  4294967145 |
|      94 | 0xFFFFFB74  |  4294966132 |
|      95 | 0x0032      |          50 |
|      96 | 0x0028      |          40 |
|      97 | 0x001E      |          30 |
|      98 | 0x0006      |           6 |
|      99 | 0x000C      |          12 |
|     100 | 0x0038      |          56 |
|     101 | 0x0069      |         105 |
|     102 | 0x0067      |         103 |
|     103 | 0x0068      |         104 |
|     104 | 0x008C      |         140 |
|     105 | 0x007A      |         122 |
|     106 | 0x00F3      |         243 |
|     107 | 0x00F4      |         244 |
|     108 | 0x023D      |         573 |
|     109 | 0x023C      |         572 |
|     110 | 0x023E      |         574 |
|     111 | 0x023F      |         575 |

## String References

- **6420**: You do not have enough gil.
- **11037**: What will you do? [Undertake training./Hear an explanation./What's the qualifying time?/What's the fastest time?/Nothing.]
- **11055**: Give to the children? [I live to give!/Charity begins at home.]
- **11064**: What will you do? [Hear an explanation./Where're the smile helpers again?/Cancel the training./Nothing.]
- **11069**: You obtain $1!
- **11088**: You obtain $1 $0 !

## Events

### Event 65535

#### Metadata

| Field        | Value   |
|--------------|---------|
| Entrypoint   | 0x0000  |
| Data Size    | 1 bytes |
| Instructions | 1       |

```
      00 01 02 03 04 05 06 07  08 09 0A 0B 0C 0D 0E 0F
      -- -- -- -- -- -- -- --  -- -- -- -- -- -- -- --
0000: 00                                                .               
```

#### Opcodes

```
  0: 0x0000 [0x00] END_REQSTACK()
```

### Event 7001

#### Metadata

| Field        | Value     |
|--------------|-----------|
| Entrypoint   | 0x0001    |
| Data Size    | 540 bytes |
| Instructions | 48        |

```
      00 01 02 03 04 05 06 07  08 09 0A 0B 0C 0D 0E 0F
      -- -- -- -- -- -- -- --  -- -- -- -- -- -- -- --
0000:    1E F0 FF FF 7F 2B D9  B2 06 01 00 80 23 2B D9   .....+......#+.
0010: B2 06 01 01 80 23 24 02  80 03 80 03 80 25 02 00  .....#$......%..
0020: 10 03 80 00 FB 00 02 03  10 04 80 00 3F 00 2B D9  ............?.+.
0030: B2 06 01 05 80 23 03 01  10 06 80 21 01 F8 00 02  .....#.....!....
0040: 04 10 04 80 00 81 00 42  2B D9 B2 06 01 07 80 23  .......B+......#
0050: 1A 55 04 89 08 80 8B 08  80 09 80 01 00 02 00 53  .U.............S
0060: 6D 69 6C 65 5F 48 65 6C  70 65 72 00 00 00 00 2B  mile_Helper....+
0070: D9 B2 06 01 0A 80 23 8A  03 01 10 04 80 21 01 F8  ......#......!..
0080: 00 2B D9 B2 06 01 0B 80  23 24 0C 80 03 80 03 80  .+......#$......
0090: 25 02 00 10 03 80 00 E7  00 02 05 10 04 80 00 DB  %...............
00A0: 00 42 2B D9 B2 06 01 07  80 23 1A 55 04 89 08 80  .B+......#.U....
00B0: 8B 08 80 09 80 01 00 02  00 53 6D 69 6C 65 5F 48  .........Smile_H
00C0: 65 6C 70 65 72 00 00 00  00 2B D9 B2 06 01 0A 80  elper....+......
00D0: 23 8A 03 01 10 0D 80 21  01 E4 00 48 0E 80 03 01  #......!...H....
00E0: 10 06 80 21 01 F8 00 02  00 10 04 80 00 F8 00 03  ...!............
00F0: 01 10 0F 80 21 01 F8 00  01 1B 02 02 00 10 04 80  ....!...........
0100: 00 84 01 2B D9 B2 06 01  10 80 23 2B D9 B2 06 01  ...+......#+....
0110: 11 80 23 2B D9 B2 06 01  12 80 23 2B D9 B2 06 01  ..#+......#+....
0120: 13 80 23 2B D9 B2 06 01  14 80 23 2B D9 B2 06 01  ..#+......#+....
0130: 15 80 23 2B D9 B2 06 01  16 80 23 2B D9 B2 06 01  ..#+......#+....
0140: 17 80 23 2B D9 B2 06 01  18 80 23 2B D9 B2 06 01  ..#+......#+....
0150: 19 80 23 02 04 10 03 80  00 73 01 2B D9 B2 06 01  ..#......s.+....
0160: 1A 80 23 2B D9 B2 06 01  1B 80 23 2B D9 B2 06 01  ..#+......#+....
0170: 1C 80 23 2B D9 B2 06 01  1D 80 23 03 01 10 03 80  ..#+......#.....
0180: 21 01 1B 02 02 00 10 0D  80 00 DB 01 41 03 80 1E  !...........A...
0190: 80 07 10 00 00 03 03 10  00 00 15 03 10 1F 80 03  ................
01A0: 04 10 00 00 3F 04 10 04  10 1F 80 41 20 80 21 80  ....?......A .!.
01B0: 07 10 00 00 03 05 10 00  00 15 05 10 1F 80 03 06  ................
01C0: 10 00 00 3F 06 10 06 10  1F 80 2B D9 B2 06 01 22  ...?......+...."
01D0: 80 23 03 01 10 03 80 21  01 1B 02 02 00 10 06 80  .#.....!........
01E0: 00 0A 02 03 07 10 06 10  15 07 10 1F 80 03 08 10  ................
01F0: 06 10 3F 08 10 08 10 1F  80 2B D9 B2 06 01 23 80  ..?......+....#.
0200: 23 03 01 10 03 80 21 01  1B 02 02 00 10 0F 80 00  #.....!.........
0210: 1B 02 03 01 10 0F 80 21  01 1B 02 21 00           .......!...!.   
```

#### Opcodes

```
  0: 0x0001 [0x1E] EventEntity looks at LocalPlayer and starts talking
  1: 0x0006 [0x2B] Wandering Cloud (ID: 17216217/0x0106B2D9) [11035*]:
    → "Hi there! I'm your friendly neighborhood smile sergeant! I'm in charge of running the [beginner/intermediate/advanced] level Smilebringer Boot Camp in this area."
  2: 0x000D [0x23] WAIT_FOR_DIALOG_INTERACTION
  3: 0x000E [0x2B] Wandering Cloud (ID: 17216217/0x0106B2D9) [11036*]:
    → "I'd be thrilled to answer any questions you might have...and of course, sign you up, too! You'd like that, wouldn't you? Hmmm?"
  4: 0x0015 [0x23] WAIT_FOR_DIALOG_INTERACTION
  5: 0x0016 [0x24] CREATE_DIALOG(message_id=11037*, default_option=0*, option_flags=0*)
    → "What will you do? [Undertake training./Hear an explanation./What's the qualifying time?/What's the fastest time?/Nothing.]"
  6: 0x001D [0x25] WAIT_DIALOG_SELECT()
  7: 0x001E [0x02] IF !(Work_Zone[0] == 0*) GOTO 0x00FB
  8: 0x0026 [0x02] IF !(Work_Zone[3] == 1*) GOTO 0x003F
  9: 0x002E [0x2B] Wandering Cloud (ID: 17216217/0x0106B2D9) [11076*]:
    → "Awww, seeing the way you're simply bursting with enthusiasm makes me want to cry tears of joy. But you have to be cruel to be kind. No more training until tomorrow, young [man/lady]! No siree!"
 10: 0x0035 [0x23] WAIT_FOR_DIALOG_INTERACTION
 11: 0x0036 [0x03] Work_Zone[1] = 3*
 12: 0x003B [0x21] END_EVENT

SUBROUTINE_00F8:
 13: 0x00F8 [0x01] GOTO 0x021B
 14: 0x00FB [0x02] IF !(Work_Zone[0] == 1*) GOTO 0x0184
 15: 0x0103 [0x2B] Wandering Cloud (ID: 17216217/0x0106B2D9) [11039*]:
    → "It'd be my pleasure! Here goes nothing! Ahem! The Smilebringer Boot Camp was established for two purposes, the first being the ongoing training and conditioning of smilebringers. The second--and this is where you come in, yay!--is for us to scout hopefuls from the adventurer community to join our jovial ranks!"
 16: 0x010A [0x23] WAIT_FOR_DIALOG_INTERACTION
 17: 0x010B [0x2B] Wandering Cloud (ID: 17216217/0x0106B2D9) [11040*]:
    → "The population of vicious monsters has grown in recent years, you see. And because of this, more smilebringers were being--<gasp!>--injured in the line of duty than ever before."
 18: 0x0112 [0x23] WAIT_FOR_DIALOG_INTERACTION
 19: 0x0113 [0x2B] Wandering Cloud (ID: 17216217/0x0106B2D9) [11041*]:
    → "But we weren't going to take that sitting down, no siree. The day we smilebringers stop doing our job--that is, bringing smiles--is the day the world ends!"
 20: 0x011A [0x23] WAIT_FOR_DIALOG_INTERACTION
 21: 0x011B [0x2B] Wandering Cloud (ID: 17216217/0x0106B2D9) [11042*]:
    → "Whatever the predicament, and no matter the size of the ruszor-inflicted gash wound, we will--we must--pull through...for the sake of the children!"
 22: 0x0122 [0x23] WAIT_FOR_DIALOG_INTERACTION
 23: 0x0123 [0x2B] Wandering Cloud (ID: 17216217/0x0106B2D9) [11043*]:
    → "With these heart-warming ideals in mind, the Smilebringer Boot Camp was established. Ta-da! Smilebringers graduating from this camp are better equipped to meet the ever-changing needs of these unstable times we live in."
 24: 0x012A [0x23] WAIT_FOR_DIALOG_INTERACTION
 25: 0x012B [0x2B] Wandering Cloud (ID: 17216217/0x0106B2D9) [11044*]:
    → "The rules are as simple as sunshine. Smilebringer's honor! When I give you the word, run to each of the checkpoints we've set up in the area. "Smile helpers" are posted at each, so you can't miss them!"
 26: 0x0132 [0x23] WAIT_FOR_DIALOG_INTERACTION
 27: 0x0133 [0x2B] Wandering Cloud (ID: 17216217/0x0106B2D9) [11045*]:
    → "Talk to the smile helpers and they'll confirm your passage. The route you take is completely up to you--just be sure you don't miss any checkpoints. You got all that? Hmmm?"
 28: 0x013A [0x23] WAIT_FOR_DIALOG_INTERACTION
 29: 0x013B [0x2B] Wandering Cloud (ID: 17216217/0x0106B2D9) [11046*]:
    → "I'll mark each smile helper's location on your map beforehand, so you don't need to worry about getting lost."
 30: 0x0142 [0x23] WAIT_FOR_DIALOG_INTERACTION
 31: 0x0143 [0x2B] Wandering Cloud (ID: 17216217/0x0106B2D9) [11047*]:
    → "Once you've finished visiting all the checkpoints, you have to--you guessed it!--come back and report to me. It's okay, I won't bite!"
 32: 0x014A [0x23] WAIT_FOR_DIALOG_INTERACTION
 33: 0x014B [0x2B] Wandering Cloud (ID: 17216217/0x0106B2D9) [11048*]:
    → "What I will do, though, is tell you how quickly you completed the course. After all, to a smilebringer, speed is everything. Some folks run faster with a fell beast hot on their tail, but we smilebringers need no more than the thought of a child's laughter to spur us on! Zoom zoom!"
 34: 0x0152 [0x23] WAIT_FOR_DIALOG_INTERACTION
 35: 0x0153 [0x02] IF !(Work_Zone[4] == 0*) GOTO 0x0173
 36: 0x015B [0x2B] Wandering Cloud (ID: 17216217/0x0106B2D9) [11049*]:
    → "Oh, and I should mention that at this time of year, we're collecting donations in the form of a small fee to participate in the training. All proceeds go towards presents for the children during the Starlight Celebration. Thank you for your cooperation!"
 37: 0x0162 [0x23] WAIT_FOR_DIALOG_INTERACTION
 38: 0x0163 [0x2B] Wandering Cloud (ID: 17216217/0x0106B2D9) [11074*]:
    → "It might surprise you to learn this, but even the toughest--grrrrrr!--and roughest of us smilebringers need rest and relaxation. Oh, wipe that grin off your face! I knew you wouldn't believe me!"
 39: 0x016A [0x23] WAIT_FOR_DIALOG_INTERACTION
 40: 0x016B [0x2B] Wandering Cloud (ID: 17216217/0x0106B2D9) [11075*]:
    → "Aaanyway! What I meant to say is, "work hard, play hard" is our motto, and it applies to boot camp participants, too. After you complete a run with a qualifying time--yay!--you're required to rest up until the next day (Vana'diel time)."
 41: 0x0172 [0x23] WAIT_FOR_DIALOG_INTERACTION
 42: 0x0173 [0x2B] Wandering Cloud (ID: 17216217/0x0106B2D9) [11050*]:
    → "One more thing you should know. If you venture out of the area, the training will automatically be canceled. But I can trust you not to walk out on your favorite smile sergeant, right? Hmmm?"
 43: 0x017A [0x23] WAIT_FOR_DIALOG_INTERACTION
 44: 0x017B [0x03] Work_Zone[1] = 0*
 45: 0x0180 [0x21] END_EVENT

SUBROUTINE_021B:
 46: 0x021B [0x21] END_EVENT
 47: 0x021C [0x00] END_REQSTACK()
```

#### Data or dead code:

```
# Dead code (unreachable instructions):
     0x003C [0x01] GOTO 0x00F8
     0x006D [0x00] END_REQSTACK()
     0x006E [0x00] END_REQSTACK()
     0x006F [0x2B] Wandering Cloud (ID: 17216217/0x0106B2D9) [11058*]:
    → "There! I've marked each smile helper's location for you. If you ever lose your bearings in the middle of a run, just open up your map and everything will be aaall right. Trust me! <Wink>"
     0x0076 [0x23] WAIT_FOR_DIALOG_INTERACTION
     0x0077 [0x8A] CLOSE_MAP()
     0x0078 [0x03] Work_Zone[1] = 1*
     0x007D [0x21] END_EVENT
     0x007E [0x01] GOTO 0x00F8
     0x00C7 [0x00] END_REQSTACK()
     0x00C8 [0x00] END_REQSTACK()
     0x00C9 [0x2B] Wandering Cloud (ID: 17216217/0x0106B2D9) [11058*]:
    → "There! I've marked each smile helper's location for you. If you ever lose your bearings in the middle of a run, just open up your map and everything will be aaall right. Trust me! <Wink>"
     0x00D0 [0x23] WAIT_FOR_DIALOG_INTERACTION
     0x00D1 [0x8A] CLOSE_MAP()
     0x00D2 [0x03] Work_Zone[1] = 2*
     0x00D7 [0x21] END_EVENT
     0x00D8 [0x01] GOTO 0x00E4
     0x00E4 [0x01] GOTO 0x00F8
     0x00F5 [0x01] GOTO 0x00F8
# Dead code (unreachable instructions):
     0x0181 [0x01] GOTO 0x021B
     0x01D8 [0x01] GOTO 0x021B
     0x0207 [0x01] GOTO 0x021B
     0x0218 [0x01] GOTO 0x021B
```

### Event 7004

#### Metadata

| Field        | Value     |
|--------------|-----------|
| Entrypoint   | 0x021D    |
| Data Size    | 267 bytes |
| Instructions | 38        |

```
      00 01 02 03 04 05 06 07  08 09 0A 0B 0C 0D 0E 0F
      -- -- -- -- -- -- -- --  -- -- -- -- -- -- -- --
0210:                                         1E F0 FF               ...
0220: FF 7F 2B D9 B2 06 01 24  80 23 24 25 80 03 80 03  ..+....$.#$%....
0230: 80 25 02 00 10 03 80 00  B4 02 2B D9 B2 06 01 10  .%........+.....
0240: 80 23 2B D9 B2 06 01 11  80 23 2B D9 B2 06 01 12  .#+......#+.....
0250: 80 23 2B D9 B2 06 01 13  80 23 2B D9 B2 06 01 14  .#+......#+.....
0260: 80 23 2B D9 B2 06 01 15  80 23 2B D9 B2 06 01 16  .#+......#+.....
0270: 80 23 2B D9 B2 06 01 17  80 23 2B D9 B2 06 01 18  .#+......#+.....
0280: 80 23 2B D9 B2 06 01 19  80 23 02 08 10 03 80 00  .#+......#......
0290: A2 02 2B D9 B2 06 01 1B  80 23 2B D9 B2 06 01 1C  ..+......#+.....
02A0: 80 23 2B D9 B2 06 01 1D  80 23 03 01 10 03 80 21  .#+......#.....!
02B0: 00 01 26 03 02 00 10 04  80 00 F6 02 2B D9 B2 06  ..&.........+...
02C0: 01 07 80 23 1A 55 04 89  08 80 8B 08 80 09 80 01  ...#.U..........
02D0: 00 02 00 53 6D 69 6C 65  5F 48 65 6C 70 65 72 00  ...Smile_Helper.
02E0: 00 00 00 2B D9 B2 06 01  26 80 23 8A 03 01 10 03  ...+....&.#.....
02F0: 80 21 00 01 26 03 02 00  10 0D 80 00 14 03 42 1A  .!..&.........B.
0300: 98 04 2B D9 B2 06 01 27  80 23 03 01 10 28 80 21  ..+....'.#...(.!
0310: 00 01 26 03 02 00 10 06  80 00 26 03 03 01 10 06  ..&.......&.....
0320: 80 21 00 01 26 03 21 00                           .!..&.!.        
```

#### Opcodes

```
  0: 0x021D [0x1E] EventEntity looks at LocalPlayer and starts talking
  1: 0x0222 [0x2B] Wandering Cloud (ID: 17216217/0x0106B2D9) [11063*]:
    → "Oh, what're you doing here? Aren't you in the middle of a run right now? Couldn't stand to be parted from your favorite smile sergeant, maybe? Teehee!"
  2: 0x0229 [0x23] WAIT_FOR_DIALOG_INTERACTION
  3: 0x022A [0x24] CREATE_DIALOG(message_id=11064*, default_option=0*, option_flags=0*)
    → "What will you do? [Hear an explanation./Where're the smile helpers again?/Cancel the training./Nothing.]"
  4: 0x0231 [0x25] WAIT_DIALOG_SELECT()
  5: 0x0232 [0x02] IF !(Work_Zone[0] == 0*) GOTO 0x02B4
  6: 0x023A [0x2B] Wandering Cloud (ID: 17216217/0x0106B2D9) [11039*]:
    → "It'd be my pleasure! Here goes nothing! Ahem! The Smilebringer Boot Camp was established for two purposes, the first being the ongoing training and conditioning of smilebringers. The second--and this is where you come in, yay!--is for us to scout hopefuls from the adventurer community to join our jovial ranks!"
  7: 0x0241 [0x23] WAIT_FOR_DIALOG_INTERACTION
  8: 0x0242 [0x2B] Wandering Cloud (ID: 17216217/0x0106B2D9) [11040*]:
    → "The population of vicious monsters has grown in recent years, you see. And because of this, more smilebringers were being--<gasp!>--injured in the line of duty than ever before."
  9: 0x0249 [0x23] WAIT_FOR_DIALOG_INTERACTION
 10: 0x024A [0x2B] Wandering Cloud (ID: 17216217/0x0106B2D9) [11041*]:
    → "But we weren't going to take that sitting down, no siree. The day we smilebringers stop doing our job--that is, bringing smiles--is the day the world ends!"
 11: 0x0251 [0x23] WAIT_FOR_DIALOG_INTERACTION
 12: 0x0252 [0x2B] Wandering Cloud (ID: 17216217/0x0106B2D9) [11042*]:
    → "Whatever the predicament, and no matter the size of the ruszor-inflicted gash wound, we will--we must--pull through...for the sake of the children!"
 13: 0x0259 [0x23] WAIT_FOR_DIALOG_INTERACTION
 14: 0x025A [0x2B] Wandering Cloud (ID: 17216217/0x0106B2D9) [11043*]:
    → "With these heart-warming ideals in mind, the Smilebringer Boot Camp was established. Ta-da! Smilebringers graduating from this camp are better equipped to meet the ever-changing needs of these unstable times we live in."
 15: 0x0261 [0x23] WAIT_FOR_DIALOG_INTERACTION
 16: 0x0262 [0x2B] Wandering Cloud (ID: 17216217/0x0106B2D9) [11044*]:
    → "The rules are as simple as sunshine. Smilebringer's honor! When I give you the word, run to each of the checkpoints we've set up in the area. "Smile helpers" are posted at each, so you can't miss them!"
 17: 0x0269 [0x23] WAIT_FOR_DIALOG_INTERACTION
 18: 0x026A [0x2B] Wandering Cloud (ID: 17216217/0x0106B2D9) [11045*]:
    → "Talk to the smile helpers and they'll confirm your passage. The route you take is completely up to you--just be sure you don't miss any checkpoints. You got all that? Hmmm?"
 19: 0x0271 [0x23] WAIT_FOR_DIALOG_INTERACTION
 20: 0x0272 [0x2B] Wandering Cloud (ID: 17216217/0x0106B2D9) [11046*]:
    → "I'll mark each smile helper's location on your map beforehand, so you don't need to worry about getting lost."
 21: 0x0279 [0x23] WAIT_FOR_DIALOG_INTERACTION
 22: 0x027A [0x2B] Wandering Cloud (ID: 17216217/0x0106B2D9) [11047*]:
    → "Once you've finished visiting all the checkpoints, you have to--you guessed it!--come back and report to me. It's okay, I won't bite!"
 23: 0x0281 [0x23] WAIT_FOR_DIALOG_INTERACTION
 24: 0x0282 [0x2B] Wandering Cloud (ID: 17216217/0x0106B2D9) [11048*]:
    → "What I will do, though, is tell you how quickly you completed the course. After all, to a smilebringer, speed is everything. Some folks run faster with a fell beast hot on their tail, but we smilebringers need no more than the thought of a child's laughter to spur us on! Zoom zoom!"
 25: 0x0289 [0x23] WAIT_FOR_DIALOG_INTERACTION
 26: 0x028A [0x02] IF !(Work_Zone[8] == 0*) GOTO 0x02A2
 27: 0x0292 [0x2B] Wandering Cloud (ID: 17216217/0x0106B2D9) [11074*]:
    → "It might surprise you to learn this, but even the toughest--grrrrrr!--and roughest of us smilebringers need rest and relaxation. Oh, wipe that grin off your face! I knew you wouldn't believe me!"
 28: 0x0299 [0x23] WAIT_FOR_DIALOG_INTERACTION
 29: 0x029A [0x2B] Wandering Cloud (ID: 17216217/0x0106B2D9) [11075*]:
    → "Aaanyway! What I meant to say is, "work hard, play hard" is our motto, and it applies to boot camp participants, too. After you complete a run with a qualifying time--yay!--you're required to rest up until the next day (Vana'diel time)."
 30: 0x02A1 [0x23] WAIT_FOR_DIALOG_INTERACTION
 31: 0x02A2 [0x2B] Wandering Cloud (ID: 17216217/0x0106B2D9) [11050*]:
    → "One more thing you should know. If you venture out of the area, the training will automatically be canceled. But I can trust you not to walk out on your favorite smile sergeant, right? Hmmm?"
 32: 0x02A9 [0x23] WAIT_FOR_DIALOG_INTERACTION
 33: 0x02AA [0x03] Work_Zone[1] = 0*
 34: 0x02AF [0x21] END_EVENT
 35: 0x02B0 [0x00] END_REQSTACK()

SUBROUTINE_0326:
 36: 0x0326 [0x21] END_EVENT
 37: 0x0327 [0x00] END_REQSTACK()
```

#### Data or dead code:

```
# Dead code (unreachable instructions):
     0x02B1 [0x01] GOTO 0x0326
     0x02E1 [0x00] END_REQSTACK()
     0x02E2 [0x00] END_REQSTACK()
     0x02E3 [0x2B] Wandering Cloud (ID: 17216217/0x0106B2D9) [11057*]:
    → "You'll find each of the ten smile helpers by the points I've indicated. Don't forget to talk with every one of them or it won't count, okay?"
     0x02EA [0x23] WAIT_FOR_DIALOG_INTERACTION
     0x02EB [0x8A] CLOSE_MAP()
     0x02EC [0x03] Work_Zone[1] = 0*
     0x02F1 [0x21] END_EVENT
     0x02F2 [0x00] END_REQSTACK()
     0x02F3 [0x01] GOTO 0x0326
     0x0311 [0x01] GOTO 0x0326
     0x0323 [0x01] GOTO 0x0326
```

### Event 7005

#### Metadata

| Field        | Value     |
|--------------|-----------|
| Entrypoint   | 0x0328    |
| Data Size    | 135 bytes |
| Instructions | 34        |

```
      00 01 02 03 04 05 06 07  08 09 0A 0B 0C 0D 0E 0F
      -- -- -- -- -- -- -- --  -- -- -- -- -- -- -- --
0320:                          42 1A 98 04 1E F0 FF FF          B.......
0330: 7F 03 06 10 02 10 15 06  10 1F 80 03 07 10 02 10  ................
0340: 3F 07 10 07 10 1F 80 2B  D9 B2 06 01 29 80 23 3E  ?......+....).#>
0350: 09 10 0D 80 5E 03 2B D9  B2 06 01 2A 80 23 2B D9  ....^.+....*.#+.
0360: B2 06 01 2B 80 23 3E 09  10 2C 80 75 03 2B D9 B2  ...+.#>..,.u.+..
0370: 06 01 2D 80 23 2B D9 B2  06 01 2E 80 23 3E 09 10  ..-.#+......#>..
0380: 03 80 8B 03 48 2F 80 23  01 A8 03 02 08 10 04 80  ....H/.#........
0390: 00 9A 03 48 2F 80 23 01  A8 03 03 02 10 03 10 03  ...H/.#.........
03A0: 03 10 08 10 48 30 80 23  03 01 10 28 80 21 00     ....H0.#...(.!. 
```

#### Opcodes

```
  0: 0x0328 [0x42] SET_CLI_EVENT_CANCEL_DATA()
  1: 0x0329 [0x1A] CALL_SUBROUTINE(address=0x0498)
  2: 0x032C [0x1E] EventEntity looks at LocalPlayer and starts talking
  3: 0x0331 [0x03] Work_Zone[6] = Work_Zone[2]
  4: 0x0336 [0x15] Work_Zone[6] /= 60*
  5: 0x033B [0x03] Work_Zone[7] = Work_Zone[2]
  6: 0x0340 [0x3F] Work_Zone[7] = Work_Zone[7] % 60*
  7: 0x0347 [0x2B] Wandering Cloud (ID: 17216217/0x0106B2D9) [11066*]:
    → "Welcome back! Let's check your time, shall we? You cleared the course in $4 minute[/s] $5 second[/s]."
  8: 0x034E [0x23] WAIT_FOR_DIALOG_INTERACTION
  9: 0x034F [0x3E] IF !(Work_Zone[9] bit 2*) GOTO 0x035E
 10: 0x0356 [0x2B] Wandering Cloud (ID: 17216217/0x0106B2D9) [11067*]:
    → "Oh my Goddess! You've set a new record for this area! Hooray! Somebody, break out the fireworks!"
 11: 0x035D [0x23] WAIT_FOR_DIALOG_INTERACTION
 12: 0x035E [0x2B] Wandering Cloud (ID: 17216217/0x0106B2D9) [11068*]:
    → "You've successfully qualified! Yay! Here's a little something to commemorate this marvelous achievement."
 13: 0x0365 [0x23] WAIT_FOR_DIALOG_INTERACTION
 14: 0x0366 [0x3E] IF !(Work_Zone[9] bit 7*) GOTO 0x0375
 15: 0x036D [0x2B] Wandering Cloud (ID: 17216217/0x0106B2D9) [11070*]:
    → "Ah, just the knowledge that there're capable adventurers like you around helps me sleep better at night. The children...they're in good hands... <Sob>"
 16: 0x0374 [0x23] WAIT_FOR_DIALOG_INTERACTION
 17: 0x0375 [0x2B] Wandering Cloud (ID: 17216217/0x0106B2D9) [11071*]:
    → "You did just fine, but don't be resting on those laurels, you hear? As we smilebringers say, there's always a bigger, brighter smile to be had!"
 18: 0x037C [0x23] WAIT_FOR_DIALOG_INTERACTION
 19: 0x037D [0x3E] IF !(Work_Zone[9] bit 0*) GOTO 0x038B
 20: 0x0384 [0x48] [System] [11069*]:
    → "You obtain $1!"
 21: 0x0387 [0x23] WAIT_FOR_DIALOG_INTERACTION
 22: 0x0388 [0x01] GOTO 0x03A8
 23: 0x038B [0x02] IF !(Work_Zone[8] == 1*) GOTO 0x039A
 24: 0x0393 [0x48] [System] [11069*]:
    → "You obtain $1!"
 25: 0x0396 [0x23] WAIT_FOR_DIALOG_INTERACTION
 26: 0x0397 [0x01] GOTO 0x03A8
 27: 0x039A [0x03] Work_Zone[2] = Work_Zone[3]
 28: 0x039F [0x03] Work_Zone[3] = Work_Zone[8]
 29: 0x03A4 [0x48] [System] [11088*]:
    → "You obtain $1 $0 !"
 30: 0x03A7 [0x23] WAIT_FOR_DIALOG_INTERACTION

SUBROUTINE_03A8:
 31: 0x03A8 [0x03] Work_Zone[1] = 5*
 32: 0x03AD [0x21] END_EVENT
 33: 0x03AE [0x00] END_REQSTACK()
```

### Event 7011

#### Metadata

| Field        | Value    |
|--------------|----------|
| Entrypoint   | 0x03AF   |
| Data Size    | 54 bytes |
| Instructions | 14       |

```
      00 01 02 03 04 05 06 07  08 09 0A 0B 0C 0D 0E 0F
      -- -- -- -- -- -- -- --  -- -- -- -- -- -- -- --
03A0:                                               42                 B
03B0: 1A 98 04 1E F0 FF FF 7F  03 06 10 02 10 15 06 10  ................
03C0: 1F 80 03 07 10 02 10 3F  07 10 07 10 1F 80 2B D9  .......?......+.
03D0: B2 06 01 29 80 23 2B D9  B2 06 01 31 80 23 03 01  ...).#+....1.#..
03E0: 10 28 80 21 00                                    .(.!.           
```

#### Opcodes

```
  0: 0x03AF [0x42] SET_CLI_EVENT_CANCEL_DATA()
  1: 0x03B0 [0x1A] CALL_SUBROUTINE(address=0x0498)
  2: 0x03B3 [0x1E] EventEntity looks at LocalPlayer and starts talking
  3: 0x03B8 [0x03] Work_Zone[6] = Work_Zone[2]
  4: 0x03BD [0x15] Work_Zone[6] /= 60*
  5: 0x03C2 [0x03] Work_Zone[7] = Work_Zone[2]
  6: 0x03C7 [0x3F] Work_Zone[7] = Work_Zone[7] % 60*
  7: 0x03CE [0x2B] Wandering Cloud (ID: 17216217/0x0106B2D9) [11066*]:
    → "Welcome back! Let's check your time, shall we? You cleared the course in $4 minute[/s] $5 second[/s]."
  8: 0x03D5 [0x23] WAIT_FOR_DIALOG_INTERACTION
  9: 0x03D6 [0x2B] Wandering Cloud (ID: 17216217/0x0106B2D9) [11072*]:
    → "Oh no! I'm afraid your time falls short of qualification! As much as I want to give you a passing grade, headquarters wouldn't let me hear the end of it."
 10: 0x03DD [0x23] WAIT_FOR_DIALOG_INTERACTION
 11: 0x03DE [0x03] Work_Zone[1] = 5*
 12: 0x03E3 [0x21] END_EVENT
 13: 0x03E4 [0x00] END_REQSTACK()
```

### Event 7010

#### Metadata

| Field        | Value    |
|--------------|----------|
| Entrypoint   | 0x03E5   |
| Data Size    | 24 bytes |
| Instructions | 8        |

```
      00 01 02 03 04 05 06 07  08 09 0A 0B 0C 0D 0E 0F
      -- -- -- -- -- -- -- --  -- -- -- -- -- -- -- --
03E0:                42 1E F0  FF FF 7F 1A 98 04 2B D9       B........+.
03F0: B2 06 01 32 80 23 03 01  10 28 80 21 00           ...2.#...(.!.   
```

#### Opcodes

```
  0: 0x03E5 [0x42] SET_CLI_EVENT_CANCEL_DATA()
  1: 0x03E6 [0x1E] EventEntity looks at LocalPlayer and starts talking
  2: 0x03EB [0x1A] CALL_SUBROUTINE(address=0x0498)
  3: 0x03EE [0x2B] Wandering Cloud (ID: 17216217/0x0106B2D9) [11062*]:
    → "Oh, you're back! I was afraid we'd lost you to some foul creature prowling the wilderness. Let's start from the top, shall we?"
  4: 0x03F5 [0x23] WAIT_FOR_DIALOG_INTERACTION
  5: 0x03F6 [0x03] Work_Zone[1] = 5*
  6: 0x03FB [0x21] END_EVENT
  7: 0x03FC [0x00] END_REQSTACK()
```

### Event 7009

#### Metadata

| Field        | Value    |
|--------------|----------|
| Entrypoint   | 0x03FD   |
| Data Size    | 32 bytes |
| Instructions | 10       |

```
      00 01 02 03 04 05 06 07  08 09 0A 0B 0C 0D 0E 0F
      -- -- -- -- -- -- -- --  -- -- -- -- -- -- -- --
03F0:                                         42 1E F0               B..
0400: FF FF 7F 1A 98 04 2B D9  B2 06 01 33 80 23 2B D9  ......+....3.#+.
0410: B2 06 01 34 80 23 03 01  10 28 80 21 00           ...4.#...(.!.   
```

#### Opcodes

```
  0: 0x03FD [0x42] SET_CLI_EVENT_CANCEL_DATA()
  1: 0x03FE [0x1E] EventEntity looks at LocalPlayer and starts talking
  2: 0x0403 [0x1A] CALL_SUBROUTINE(address=0x0498)
  3: 0x0406 [0x2B] Wandering Cloud (ID: 17216217/0x0106B2D9) [11060*]:
    → "Since the Starlight Celebration has ended, we've had to make a few changes."
  4: 0x040D [0x23] WAIT_FOR_DIALOG_INTERACTION
  5: 0x040E [0x2B] Wandering Cloud (ID: 17216217/0x0106B2D9) [11061*]:
    → "But the Smilebringer Boot Camp will be available for off-season conditioning the whole year round, so come back whenever you're in the mood. I'll be waiting for you!"
  6: 0x0415 [0x23] WAIT_FOR_DIALOG_INTERACTION
  7: 0x0416 [0x03] Work_Zone[1] = 5*
  8: 0x041B [0x21] END_EVENT
  9: 0x041C [0x00] END_REQSTACK()
```

### Event 7012

#### Metadata

| Field        | Value    |
|--------------|----------|
| Entrypoint   | 0x041D   |
| Data Size    | 24 bytes |
| Instructions | 8        |

```
      00 01 02 03 04 05 06 07  08 09 0A 0B 0C 0D 0E 0F
      -- -- -- -- -- -- -- --  -- -- -- -- -- -- -- --
0410:                                         42 1E F0               B..
0420: FF FF 7F 1A 98 04 2B D9  B2 06 01 35 80 23 03 01  ......+....5.#..
0430: 10 28 80 21 00                                    .(.!.           
```

#### Opcodes

```
  0: 0x041D [0x42] SET_CLI_EVENT_CANCEL_DATA()
  1: 0x041E [0x1E] EventEntity looks at LocalPlayer and starts talking
  2: 0x0423 [0x1A] CALL_SUBROUTINE(address=0x0498)
  3: 0x0426 [0x2B] Wandering Cloud (ID: 17216217/0x0106B2D9) [11073*]:
    → "Oh no! Please don't be mad, but...I forgot to record your time. I hope you'll find it in your heart to forgive this scatterbrain of a smile sergeant..."
  4: 0x042D [0x23] WAIT_FOR_DIALOG_INTERACTION
  5: 0x042E [0x03] Work_Zone[1] = 5*
  6: 0x0433 [0x21] END_EVENT
  7: 0x0434 [0x00] END_REQSTACK()
```

### Event 7014

#### Metadata

| Field        | Value     |
|--------------|-----------|
| Entrypoint   | 0x0435    |
| Data Size    | 967 bytes |
| Instructions | 16        |

```
      00 01 02 03 04 05 06 07  08 09 0A 0B 0C 0D 0E 0F
      -- -- -- -- -- -- -- --  -- -- -- -- -- -- -- --
0430:                42 1E F0  FF FF 7F 1A 98 04 2B D9       B........+.
0440: B2 06 01 00 80 23 2B D9  B2 06 01 36 80 23 03 01  .....#+....6.#..
0450: 10 03 80 21 00 03 00 00  03 80 02 00 00 37 80 03  ...!.........7..
0460: 97 04 0B 00 00 9D 00 2C  05 01 00 00 00 9D 00 4C  .......,.......L
0470: 05 02 00 00 00 0C 00 00  8B 08 80 00 00 01 00 02  ................
0480: 00 53 6D 69 6C 65 5F 48  65 6C 70 65 72 00 00 00  .Smile_Helper...
0490: 00 0B 00 00 01 5A 04 1B  03 00 00 03 80 02 00 00  .....Z..........
04A0: 37 80 03 B1 04 A8 00 08  80 00 00 0B 00 00 01 9D  7...............
04B0: 04 1B 4E 00 DA B2 06 01  4E 00 DB B2 06 01 4E 00  ..N.....N.....N.
04C0: DC B2 06 01 4E 00 DD B2  06 01 4E 00 DE B2 06 01  ....N.....N.....
04D0: 4E 00 DF B2 06 01 4E 00  E0 B2 06 01 4E 00 E1 B2  N.....N.....N...
04E0: 06 01 4E 00 E2 B2 06 01  4E 00 E3 B2 06 01 1B 4E  ..N.....N......N
04F0: 01 DA B2 06 01 4E 01 DB  B2 06 01 4E 01 DC B2 06  .....N.....N....
0500: 01 4E 01 DD B2 06 01 4E  01 DE B2 06 01 4E 01 DF  .N.....N.....N..
0510: B2 06 01 4E 01 E0 B2 06  01 4E 01 E1 B2 06 01 4E  ...N.....N.....N
0520: 01 E2 B2 06 01 4E 01 E3  B2 06 01 1B 03 80 38 80  .....N........8.
0530: 39 80 3A 80 3B 80 3C 80  3D 80 3E 80 3F 80 40 80  9.:.;.<.=.>.?.@.
0540: 41 80 03 80 03 80 03 80  03 80 03 80 03 80 42 80  A.............B.
0550: 43 80 44 80 45 80 46 80  47 80 48 80 49 80 4A 80  C.D.E.F.G.H.I.J.
0560: 4B 80 03 80 03 80 03 80  03 80 03 80 03 80 4C 80  K.............L.
0570: 4D 80 4E 80 4F 80 50 80  51 80 03 80 52 80 53 80  M.N.O.P.Q...R.S.
0580: 54 80 03 80 03 80 03 80  03 80 03 80 03 80 55 80  T.............U.
0590: 56 80 57 80 58 80 59 80  5A 80 5B 80 5C 80 5D 80  V.W.X.Y.Z.[.\.].
05A0: 5E 80 03 80 03 80 03 80  03 80 03 80 03 80 03 80  ^...............
05B0: 03 80 03 80 03 80 03 80  03 80 03 80 03 80 03 80  ................
05C0: 03 80 03 80 03 80 03 80  03 80 03 80 03 80 03 80  ................
05D0: 03 80 03 80 03 80 03 80  03 80 03 80 03 80 03 80  ................
05E0: 03 80 03 80 03 80 03 80  03 80 03 80 03 80 03 80  ................
05F0: 03 80 03 80 03 80 03 80  03 80 03 80 03 80 03 80  ................
0600: 03 80 03 80 03 80 03 80  03 80 03 80 03 80 03 80  ................
0610: 03 80 03 80 03 80 03 80  03 80 03 80 03 80 03 80  ................
0620: 03 80 03 80 03 80 03 80  03 80 03 80 1F 80 5F 80  .............._.
0630: 60 80 61 80 61 80 03 80  03 80 03 80 04 80 28 80  `.a.a.........(.
0640: 62 80 28 80 62 80 28 80  62 80 28 80 62 80 28 80  b.(.b.(.b.(.b.(.
0650: 62 80 03 80 03 80 03 80  03 80 03 80 04 80 03 80  b...............
0660: 1E 80 06 80 04 80 28 80  0D 80 2C 80 0F 80 63 80  ......(...,...c.
0670: 2C 80 03 80 03 80 03 80  03 80 03 80 64 80 64 80  ,...........d.d.
0680: 64 80 64 80 64 80 64 80  64 80 64 80 64 80 03 80  d.d.d.d.d.d.d...
0690: 03 80 03 80 03 80 03 80  03 80 03 80 65 80 65 80  ............e.e.
06A0: 65 80 65 80 65 80 65 80  65 80 65 80 65 80 03 80  e.e.e.e.e.e.e...
06B0: 03 80 03 80 03 80 03 80  03 80 03 80 03 80 03 80  ................
06C0: 03 80 03 80 03 80 03 80  03 80 03 80 03 80 03 80  ................
06D0: 03 80 03 80 03 80 03 80  03 80 03 80 66 80 66 80  ............f.f.
06E0: 66 80 66 80 66 80 66 80  66 80 66 80 66 80 03 80  f.f.f.f.f.f.f...
06F0: 03 80 03 80 03 80 03 80  03 80 03 80 67 80 67 80  ............g.g.
0700: 67 80 67 80 67 80 67 80  67 80 67 80 67 80 03 80  g.g.g.g.g.g.g...
0710: 03 80 03 80 03 80 03 80  03 80 03 80 68 80 68 80  ............h.h.
0720: 68 80 68 80 68 80 68 80  68 80 68 80 68 80 03 80  h.h.h.h.h.h.h...
0730: 03 80 03 80 03 80 03 80  03 80 03 80 68 80 68 80  ............h.h.
0740: 68 80 68 80 68 80 68 80  68 80 68 80 68 80 03 80  h.h.h.h.h.h.h...
0750: 03 80 03 80 03 80 03 80  03 80 03 80 69 80 69 80  ............i.i.
0760: 69 80 69 80 69 80 69 80  69 80 69 80 69 80 03 80  i.i.i.i.i.i.i...
0770: 03 80 03 80 03 80 03 80  03 80 03 80 6A 80 6A 80  ............j.j.
0780: 6A 80 6A 80 6A 80 6A 80  6B 80 6B 80 6B 80 03 80  j.j.j.j.k.k.k...
0790: 03 80 03 80 03 80 03 80  03 80 03 80 68 80 68 80  ............h.h.
07A0: 68 80 68 80 68 80 68 80  68 80 68 80 68 80 03 80  h.h.h.h.h.h.h...
07B0: 03 80 03 80 03 80 03 80  03 80 03 80 6C 80 6C 80  ............l.l.
07C0: 6C 80 6C 80 6C 80 6C 80  6C 80 6C 80 04 80 04 80  l.l.l.l.l.l.....
07D0: 04 80 04 80 04 80 04 80  04 80 04 80 6D 80 6C 80  ............m.l.
07E0: 6E 80 6F 80 6D 80 6C 80  6E 80 6F 80 62 80 62 80  n.o.m.l.n.o.b.b.
07F0: 62 80 62 80 63 80 63 80  63 80 63 80              b.b.c.c.c.c.    
```

#### Opcodes

```
  0: 0x0435 [0x42] SET_CLI_EVENT_CANCEL_DATA()
  1: 0x0436 [0x1E] EventEntity looks at LocalPlayer and starts talking
  2: 0x043B [0x1A] CALL_SUBROUTINE(address=0x0498)
  3: 0x043E [0x2B] Wandering Cloud (ID: 17216217/0x0106B2D9) [11035*]:
    → "Hi there! I'm your friendly neighborhood smile sergeant! I'm in charge of running the [beginner/intermediate/advanced] level Smilebringer Boot Camp in this area."
  4: 0x0445 [0x23] WAIT_FOR_DIALOG_INTERACTION
  5: 0x0446 [0x2B] Wandering Cloud (ID: 17216217/0x0106B2D9) [11038*]:
    → "Fantastic! But, oh...it seems you don't have $6. Well, that's just too bad!"
  6: 0x044D [0x23] WAIT_FOR_DIALOG_INTERACTION
  7: 0x044E [0x03] Work_Zone[1] = 0*
  8: 0x0453 [0x21] END_EVENT
  9: 0x0454 [0x00] END_REQSTACK()

SUBROUTINE_0498:
 10: 0x0498 [0x03] ExtData[1]->WorkLocal[0] = 0*

SUBROUTINE_049D:
 11: 0x049D [0x02] IF !(ExtData[1]->WorkLocal[0] >= 10*) GOTO 0x04B1
 12: 0x04A5 [0xA8] MAP_MARKER_CONTROL: Reset/unlock markers (no map display), zone=107*, marker=ExtData[1]->WorkLocal[0]
 13: 0x04AB [0x0B] ExtData[1]->WorkLocal[0]++
 14: 0x04AE [0x01] GOTO 0x049D
 15: 0x04B1 [0x1B] RETURN
```

#### Data or dead code:

```
# Dead code (unreachable instructions):
     0x0455 [0x03] ExtData[1]->WorkLocal[0] = 0*
     0x045A [0x02] IF !(ExtData[1]->WorkLocal[0] >= 10*) GOTO 0x0497
     0x0462 [0x0B] ExtData[1]->WorkLocal[0]++
     0x0465 [0x9D] ExtData[1]->WorkLocal[1] = 0x052C[ExtData[1]->WorkLocal[0]] // Read WORD
     0x046D [0x9D] ExtData[1]->WorkLocal[2] = 0x054C[ExtData[1]->WorkLocal[0]] // Read WORD
     0x0475 [0x0C] ExtData[1]->WorkLocal[0]--
     0x0478 [0x8B] SET_EVENT_MARK: Add/update map marker on map 107* at (ExtData[1]->WorkLocal[1], ExtData[1]->WorkLocal[2]), index=ExtData[1]->WorkLocal[0], name=(no name)
     0x0481 [0x53] WAIT_SCHEDULER_TASK: Wait for scheduler "per" with entities [Unknown NPC (ID: 1701603693/0x656C696D), Unknown NPC (ID: 1818576991/0x6C65485F)]
     0x048E [0x00] END_REQSTACK()
     0x048F [0x00] END_REQSTACK()
     0x0490 [0x00] END_REQSTACK()
     0x0491 [0x0B] ExtData[1]->WorkLocal[0]++
     0x0494 [0x01] GOTO 0x045A
     0x0497 [0x1B] RETURN
# Dead code (unreachable instructions):
     0x04B2 [0x4E] SET_ENTITY_HIDE_FLAG: Show Smile Helper (ID: 17216218/0x0106B2DA)
     0x04B8 [0x4E] SET_ENTITY_HIDE_FLAG: Show Smile Helper (ID: 17216219/0x0106B2DB)
     0x04BE [0x4E] SET_ENTITY_HIDE_FLAG: Show Smile Helper (ID: 17216220/0x0106B2DC)
     0x04C4 [0x4E] SET_ENTITY_HIDE_FLAG: Show Smile Helper (ID: 17216221/0x0106B2DD)
     0x04CA [0x4E] SET_ENTITY_HIDE_FLAG: Show Smile Helper (ID: 17216222/0x0106B2DE)
     0x04D0 [0x4E] SET_ENTITY_HIDE_FLAG: Show Smile Helper (ID: 17216223/0x0106B2DF)
     0x04D6 [0x4E] SET_ENTITY_HIDE_FLAG: Show Smile Helper (ID: 17216224/0x0106B2E0)
     0x04DC [0x4E] SET_ENTITY_HIDE_FLAG: Show Smile Helper (ID: 17216225/0x0106B2E1)
     0x04E2 [0x4E] SET_ENTITY_HIDE_FLAG: Show Smile Helper (ID: 17216226/0x0106B2E2)
     0x04E8 [0x4E] SET_ENTITY_HIDE_FLAG: Show Smile Helper (ID: 17216227/0x0106B2E3)
     0x04EE [0x1B] RETURN
     0x04EF [0x4E] SET_ENTITY_HIDE_FLAG: Hide Smile Helper (ID: 17216218/0x0106B2DA)
     0x04F5 [0x4E] SET_ENTITY_HIDE_FLAG: Hide Smile Helper (ID: 17216219/0x0106B2DB)
     0x04FB [0x4E] SET_ENTITY_HIDE_FLAG: Hide Smile Helper (ID: 17216220/0x0106B2DC)
     0x0501 [0x4E] SET_ENTITY_HIDE_FLAG: Hide Smile Helper (ID: 17216221/0x0106B2DD)
     0x0507 [0x4E] SET_ENTITY_HIDE_FLAG: Hide Smile Helper (ID: 17216222/0x0106B2DE)
     0x050D [0x4E] SET_ENTITY_HIDE_FLAG: Hide Smile Helper (ID: 17216223/0x0106B2DF)
     0x0513 [0x4E] SET_ENTITY_HIDE_FLAG: Hide Smile Helper (ID: 17216224/0x0106B2E0)
     0x0519 [0x4E] SET_ENTITY_HIDE_FLAG: Hide Smile Helper (ID: 17216225/0x0106B2E1)
     0x051F [0x4E] SET_ENTITY_HIDE_FLAG: Hide Smile Helper (ID: 17216226/0x0106B2E2)
     0x0525 [0x4E] SET_ENTITY_HIDE_FLAG: Hide Smile Helper (ID: 17216227/0x0106B2E3)
     0x052B [0x1B] RETURN
     0x052C [0x03] 0x3880 = 0x3980
     0x0531 [0x80] LOAD_WAIT(entity=Unknown NPC (ID: 2151383098/0x803B803A))
     0x0536 [0x3C] SET_BIT_FLAG_CONDITIONAL(target_work_offset=0x3D80, bit_index_work_offset=0x3E80, condition_work_offset=0x3F80)
     0x053D [0x80] LOAD_WAIT(entity=Unknown NPC (ID: 2151776320/0x80418040))
     0x0542 [0x03] 0x0380 = 0x0380
     0x0547 [0x80] LOAD_WAIT(entity=Unknown NPC (ID: 2147713027/0x80038003))
     0x054C [0x03] 0x4280 = 0x4380
     0x0551 [0x80] LOAD_WAIT(entity=Unknown NPC (ID: 2152038468/0x80458044))
     0x0556 [0x46] CAMERA_CONTROL: Unknown mode 0x80
     0x0558 [0x47] WAIT_PLAYER_POS_UPDATE
     0x055A [0x48] [System] [0x4980]:
     0x055D [0x80] LOAD_WAIT(entity=Unknown NPC (ID: 2152431690/0x804B804A))
     0x0562 [0x03] 0x0380 = 0x0380
     0x0567 [0x80] LOAD_WAIT(entity=Unknown NPC (ID: 2147713027/0x80038003))
     0x056C [0x03] 0x4C80 = 0x4D80
     0x0571 [0x80] LOAD_WAIT(entity=Unknown NPC (ID: 2152693838/0x804F804E))
     0x0576 [0x50] END_SCHEDULER_TASK: End scheduler 0x00005480 with entities [0x5180, 0x5280], work=[896, 21376]
     0x0583 [0x80] LOAD_WAIT(entity=Unknown NPC (ID: 2147713027/0x80038003))
     0x0588 [0x03] 0x0380 = 0x0380
     0x058D [0x80] LOAD_WAIT(entity=Unknown NPC (ID: 2153152597/0x80568055))
     0x0592 [0x57] CREATE_FRAME_DELAY(delay=0x5880)
     0x0595 [0x80] LOAD_WAIT(entity=Unknown NPC (ID: 2153414745/0x805A8059))
     0x059A [0x5B] LOAD_EXT_SCHEDULER: Load scheduler 0x03800380 with entities [Unknown NPC (ID: 1585470848/0x5E805D80), Unknown NPC (ID: 58721152/0x03800380)], work=0x5C80
     0x05A9 [0x80] LOAD_WAIT(entity=Unknown NPC (ID: 2147713027/0x80038003))
     0x05AE [0x03] 0x0380 = 0x0380
     0x05B3 [0x80] LOAD_WAIT(entity=Unknown NPC (ID: 2147713027/0x80038003))
     0x05B8 [0x03] 0x0380 = 0x0380
     0x05BD [0x80] LOAD_WAIT(entity=Unknown NPC (ID: 2147713027/0x80038003))
     0x05C2 [0x03] 0x0380 = 0x0380
     0x05C7 [0x80] LOAD_WAIT(entity=Unknown NPC (ID: 2147713027/0x80038003))
     0x05CC [0x03] 0x0380 = 0x0380
     0x05D1 [0x80] LOAD_WAIT(entity=Unknown NPC (ID: 2147713027/0x80038003))
     0x05D6 [0x03] 0x0380 = 0x0380
     0x05DB [0x80] LOAD_WAIT(entity=Unknown NPC (ID: 2147713027/0x80038003))
     0x05E0 [0x03] 0x0380 = 0x0380
     0x05E5 [0x80] LOAD_WAIT(entity=Unknown NPC (ID: 2147713027/0x80038003))
     0x05EA [0x03] 0x0380 = 0x0380
     0x05EF [0x80] LOAD_WAIT(entity=Unknown NPC (ID: 2147713027/0x80038003))
     0x05F4 [0x03] 0x0380 = 0x0380
     0x05F9 [0x80] LOAD_WAIT(entity=Unknown NPC (ID: 2147713027/0x80038003))
     0x05FE [0x03] 0x0380 = 0x0380
     0x0603 [0x80] LOAD_WAIT(entity=Unknown NPC (ID: 2147713027/0x80038003))
     0x0608 [0x03] 0x0380 = 0x0380
     0x060D [0x80] LOAD_WAIT(entity=Unknown NPC (ID: 2147713027/0x80038003))
     0x0612 [0x03] 0x0380 = 0x0380
     0x0617 [0x80] LOAD_WAIT(entity=Unknown NPC (ID: 2147713027/0x80038003))
     0x061C [0x03] 0x0380 = 0x0380
     0x0621 [0x80] LOAD_WAIT(entity=Unknown NPC (ID: 2147713027/0x80038003))
     0x0626 [0x03] 0x0380 = 0x0380
     0x062B [0x80] LOAD_WAIT(entity=Unknown NPC (ID: 2153742367/0x805F801F))
     0x0630 [0x60] ADJUST_RENDER_FLAGS1_MULTI: Deprecated mode 0x80 (no operation)
     0x0632 [0x61] EventEntity->Render.Flags2 &= ~0x00000001
     0x0634 [0x61] EventEntity->Render.Flags2 &= ~0x00000001
     0x0636 [0x03] 0x0380 = 0x0380
     0x063B [0x80] LOAD_WAIT(entity=Unknown NPC (ID: 2150137860/0x80288004))
     0x0640 [0x62] LOAD_EVENT_SCHEDULER: Load scheduler 0x28806280 with entities [Unknown NPC (ID: 679502464/0x28806280), Unknown NPC (ID: 679502464/0x28806280)], work=[0x2880, 0x6280]
     0x0651 [0x80] LOAD_WAIT(entity=Unknown NPC (ID: 2147713027/0x80038003))
     0x0656 [0x03] 0x0380 = 0x0380
     0x065B [0x80] LOAD_WAIT(entity=Unknown NPC (ID: 2147713028/0x80038004))
     0x0660 [0x1E] EventEntity looks at Unknown NPC (ID: 75499136/0x04800680) and starts talking
     0x0665 [0x80] LOAD_WAIT(entity=Unknown NPC (ID: 2148368424/0x800D8028))
     0x066A [0x2C] CREATE_SCHEDULER_TASK: Create scheduler 0x03800380 with entities [Unknown NPC (ID: 1669336960/0x63800F80), Unknown NPC (ID: 58731648/0x03802C80)]
     0x0677 [0x80] LOAD_WAIT(entity=Unknown NPC (ID: 2147713027/0x80038003))
     0x067C [0x64] CALCULATE_DISTANCE: 0x6480 = distance between point1(0x6480, 0x6480) and point2(0x6480, 0x6480)
     0x0687 [0x80] LOAD_WAIT(entity=Unknown NPC (ID: 2154070116/0x80648064))
     0x068C [0x64] CALCULATE_DISTANCE: 0x0380 = distance between point1(0x0380, 0x0380) and point2(0x0380, 0x0380)
     0x0697 [0x80] LOAD_WAIT(entity=Unknown NPC (ID: 2147713027/0x80038003))
     0x069C [0x65] CALCULATE_3D_DISTANCE(result=0x6580, entity1=Unknown NPC (ID: 1702913408/0x65806580), entity2=Unknown NPC (ID: 1702913408/0x65806580))
     0x06A7 [0x80] LOAD_WAIT(entity=Unknown NPC (ID: 2154135653/0x80658065))
     0x06AC [0x65] CALCULATE_3D_DISTANCE(result=0x0380, entity1=Unknown NPC (ID: 58721152/0x03800380), entity2=Unknown NPC (ID: 58721152/0x03800380))
     0x06B7 [0x80] LOAD_WAIT(entity=Unknown NPC (ID: 2147713027/0x80038003))
     0x06BC [0x03] 0x0380 = 0x0380
     0x06C1 [0x80] LOAD_WAIT(entity=Unknown NPC (ID: 2147713027/0x80038003))
     0x06C6 [0x03] 0x0380 = 0x0380
     0x06CB [0x80] LOAD_WAIT(entity=Unknown NPC (ID: 2147713027/0x80038003))
     0x06D0 [0x03] 0x0380 = 0x0380
     0x06D5 [0x80] LOAD_WAIT(entity=Unknown NPC (ID: 2147713027/0x80038003))
     0x06DA [0x03] 0x6680 = 0x6680
     0x06DF [0x80] LOAD_WAIT(entity=Unknown NPC (ID: 2154201190/0x80668066))
     0x06E4 [0x66] LOAD_EXT_SCHEDULER_MAIN: Load scheduler 0x03800380 with entities [Unknown NPC (ID: 1719690880/0x66806680), Unknown NPC (ID: 58746496/0x03806680)], work=0x6680
     0x06F3 [0x80] LOAD_WAIT(entity=Unknown NPC (ID: 2147713027/0x80038003))
     0x06F8 [0x03] 0x0380 = 0x6780
     0x06FD [0x80] LOAD_WAIT(entity=Unknown NPC (ID: 2154266727/0x80678067))
     0x0702 [0x67] HIDE_HUD_ELEMENTS(param1=0x6780, param2=0x6780)
     0x0707 [0x80] LOAD_WAIT(entity=Unknown NPC (ID: 2154266727/0x80678067))
     0x070C [0x67] HIDE_HUD_ELEMENTS(param1=0x0380, param2=0x0380)
     0x0711 [0x80] LOAD_WAIT(entity=Unknown NPC (ID: 2147713027/0x80038003))
     0x0716 [0x03] 0x0380 = 0x0380
     0x071B [0x80] LOAD_WAIT(entity=Unknown NPC (ID: 2154332264/0x80688068))
     0x0720 [0x68] SHOW_HUD_ELEMENTS()
     0x0721 [0x80] LOAD_WAIT(entity=Unknown NPC (ID: 2154332264/0x80688068))
     0x0726 [0x68] SHOW_HUD_ELEMENTS()
     0x0727 [0x80] LOAD_WAIT(entity=Unknown NPC (ID: 2154332264/0x80688068))
     0x072C [0x68] SHOW_HUD_ELEMENTS()
     0x072D [0x80] LOAD_WAIT(entity=Unknown NPC (ID: 2147713027/0x80038003))
     0x0732 [0x03] 0x0380 = 0x0380
     0x0737 [0x80] LOAD_WAIT(entity=Unknown NPC (ID: 2147713027/0x80038003))
     0x073C [0x68] SHOW_HUD_ELEMENTS()
     0x073D [0x80] LOAD_WAIT(entity=Unknown NPC (ID: 2154332264/0x80688068))
     0x0742 [0x68] SHOW_HUD_ELEMENTS()
     0x0743 [0x80] LOAD_WAIT(entity=Unknown NPC (ID: 2154332264/0x80688068))
     0x0748 [0x68] SHOW_HUD_ELEMENTS()
     0x0749 [0x80] LOAD_WAIT(entity=Unknown NPC (ID: 2154332264/0x80688068))
     0x074E [0x03] 0x0380 = 0x0380
     0x0753 [0x80] LOAD_WAIT(entity=Unknown NPC (ID: 2147713027/0x80038003))
     0x0758 [0x03] 0x0380 = 0x6980
     0x075D [0x80] LOAD_WAIT(entity=Unknown NPC (ID: 2154397801/0x80698069))
     0x0762 [0x69] SET_SOUND_VOLUME: Mute Effects/Master
     0x0766 [0x69] SET_SOUND_VOLUME: Mute Effects/Master
     0x076A [0x69] SET_SOUND_VOLUME: Mute Effects/Master
     0x076E [0x03] 0x0380 = 0x0380
     0x0773 [0x80] LOAD_WAIT(entity=Unknown NPC (ID: 2147713027/0x80038003))
     0x0778 [0x03] 0x0380 = 0x6A80
     0x077D [0x80] LOAD_WAIT(entity=Unknown NPC (ID: 2154463338/0x806A806A))
     0x0782 [0x6A] CHANGE_SOUND_VOLUME: Set 0x6B80 volume to 0x6A80, fade_time=0x6A80
     0x0789 [0x80] LOAD_WAIT(entity=Unknown NPC (ID: 2154528875/0x806B806B))
     0x078E [0x03] 0x0380 = 0x0380
     0x0793 [0x80] LOAD_WAIT(entity=Unknown NPC (ID: 2147713027/0x80038003))
     0x0798 [0x03] 0x0380 = 0x6880
     0x079D [0x80] LOAD_WAIT(entity=Unknown NPC (ID: 2154332264/0x80688068))
     0x07A2 [0x68] SHOW_HUD_ELEMENTS()
     0x07A3 [0x80] LOAD_WAIT(entity=Unknown NPC (ID: 2154332264/0x80688068))
     0x07A8 [0x68] SHOW_HUD_ELEMENTS()
     0x07A9 [0x80] LOAD_WAIT(entity=Unknown NPC (ID: 2154332264/0x80688068))
     0x07AE [0x03] 0x0380 = 0x0380
     0x07B3 [0x80] LOAD_WAIT(entity=Unknown NPC (ID: 2147713027/0x80038003))
     0x07B8 [0x03] 0x0380 = 0x6C80
     0x07BD [0x80] LOAD_WAIT(entity=Unknown NPC (ID: 2154594412/0x806C806C))
     0x07C2 [0x6C] FADE_ENTITY_COLOR(entity_id=Unknown NPC (ID: 1820355712/0x6C806C80), end_alpha=0x6C80, fade_time=0x6C80)
     0x07CB [0x80] LOAD_WAIT(entity=Unknown NPC (ID: 2147778564/0x80048004))
     0x07D0 [0x04] DEPRECATED_NOP(unused=0x0480)
     0x07D3 [0x80] LOAD_WAIT(entity=Unknown NPC (ID: 2147778564/0x80048004))
     0x07D8 [0x04] DEPRECATED_NOP(unused=0x0480)
     0x07DB [0x80] LOAD_WAIT(entity=Unknown NPC (ID: 2154594413/0x806C806D))
     0x07E0 [0x6E] Unknown NPC (ID: 1837133696/0x6D806F80) uses emote 0x6C80
     0x07E7 [0x80] LOAD_WAIT(entity=Unknown NPC (ID: 2154791022/0x806F806E))
     0x07EC [0x80] LOAD_WAIT(entity=Unknown NPC (ID: 2153939042/0x80628062))
     0x07F1 [0x80] LOAD_WAIT(entity=Unknown NPC (ID: 2154004579/0x80638063))
     0x07F6 [0x63] PLAY_ANIMATION_WAIT(animation=25472)
```
