# 17216215

## Common Data

| Field            | Value                     |
|------------------|---------------------------|
| Zone             | South Gustaberg (ID: 107) |
| Block Size       | 1520 bytes                |
| Total Events     | 3                         |
| References Count | 42                        |

## List of Events

| Event ID              | Entrypoint   |   Size |   Instructions |
|-----------------------|--------------|--------|----------------|
| [65535](#event-65535) | 0x0000       |      1 |              1 |
| [32709](#event-32709) | 0x0001       |      1 |              1 |
| [108](#event-108)     | 0x0002       |   1321 |            221 |

## DAT References (imed_data)

|   Index | Hex Value   |   Dec Value |
|---------|-------------|-------------|
|       0 | 0x0000      |           0 |
|       1 | 0x0001      |           1 |
|       2 | 0x0003      |           3 |
|       3 | 0x1388      |        5000 |
|       4 | 0x003C      |          60 |
|       5 | 0x0002      |           2 |
|       6 | 0x1EB2      |        7858 |
|       7 | 0x1EB3      |        7859 |
|       8 | 0x1E9C      |        7836 |
|       9 | 0x1E9D      |        7837 |
|      10 | 0x1E9E      |        7838 |
|      11 | 0x1E9A      |        7834 |
|      12 | 0x005A      |          90 |
|      13 | 0x1E9B      |        7835 |
|      14 | 0x0153      |         339 |
|      15 | 0x00B4      |         180 |
|      16 | 0x000F      |          15 |
|      17 | 0x1E9F      |        7839 |
|      18 | 0x1EA0      |        7840 |
|      19 | 0x1EA1      |        7841 |
|      20 | 0x001E      |          30 |
|      21 | 0x1EA2      |        7842 |
|      22 | 0x1EA3      |        7843 |
|      23 | 0x1EAB      |        7851 |
|      24 | 0x1EAC      |        7852 |
|      25 | 0x1EAD      |        7853 |
|      26 | 0x0004      |           4 |
|      27 | 0x1EA4      |        7844 |
|      28 | 0x0190      |         400 |
|      29 | 0x1EA5      |        7845 |
|      30 | 0x1EA6      |        7846 |
|      31 | 0x1EA7      |        7847 |
|      32 | 0x0320      |         800 |
|      33 | 0x1EA8      |        7848 |
|      34 | 0x1EA9      |        7849 |
|      35 | 0x1EAA      |        7850 |
|      36 | 0x1EAE      |        7854 |
|      37 | 0x1EAF      |        7855 |
|      38 | 0x0089      |         137 |
|      39 | 0x0005      |           5 |
|      40 | 0x1EB0      |        7856 |
|      41 | 0x1EB1      |        7857 |

## String References

- **7835**: Bestow the boon upon yon bats? [Verily./Nay.]

## Events

### Event 65535

#### Metadata

| Field        | Value   |
|--------------|---------|
| Entrypoint   | 0x0000  |
| Data Size    | 1 bytes |
| Instructions | 1       |

```
      00 01 02 03 04 05 06 07  08 09 0A 0B 0C 0D 0E 0F
      -- -- -- -- -- -- -- --  -- -- -- -- -- -- -- --
0000: 00                                                .               
```

#### Opcodes

```
  0: 0x0000 [0x00] END_REQSTACK()
```

### Event 32709

#### Metadata

| Field        | Value   |
|--------------|---------|
| Entrypoint   | 0x0001  |
| Data Size    | 1 bytes |
| Instructions | 1       |

```
      00 01 02 03 04 05 06 07  08 09 0A 0B 0C 0D 0E 0F
      -- -- -- -- -- -- -- --  -- -- -- -- -- -- -- --
0000:    00                                              .              
```

#### Opcodes

```
  0: 0x0001 [0x00] END_REQSTACK()
```

### Event 108

#### Metadata

| Field        | Value      |
|--------------|------------|
| Entrypoint   | 0x0002     |
| Data Size    | 1321 bytes |
| Instructions | 221        |

```
      00 01 02 03 04 05 06 07  08 09 0A 0B 0C 0D 0E 0F
      -- -- -- -- -- -- -- --  -- -- -- -- -- -- -- --
0000:       03 02 00 04 10 3E  03 10 00 80 14 00 05 04    .....>........
0010: 00 01 17 00 06 04 00 3E  03 10 01 80 24 00 05 05  .......>....$...
0020: 00 01 27 00 06 05 00 3E  03 10 02 80 34 00 05 06  ..'....>....4...
0030: 00 01 37 00 06 06 00 42  2F 00 D8 B2 06 01 4E 00  ..7....B/.....N.
0040: D8 B2 06 01 80 D8 B2 06  01 3B D8 B2 06 01 07 00  .........;......
0050: 08 00 09 00 3A D8 B2 06  01 00 00 08 09 00 03 80  ....:...........
0060: 2C D8 B2 06 01 D8 B2 06  01 6B 65 73 75 1C 04 80  ,........kesu...
0070: BA D8 B2 06 01 07 00 08  00 09 00 00 00 62 05 80  .............b..
0080: D8 B2 06 01 D8 B2 06 01  6D 61 69 6E 00 80 A0 05  ........main....
0090: 80 D8 B2 06 01 D8 B2 06  01 6D 61 69 6E 4A D8 B2  .........mainJ..
00A0: 06 01 F0 FF FF 7F 02 06  00 01 80 00 E5 00 2B D8  ..............+.
00B0: B2 06 01 06 80 23 2B D8  B2 06 01 07 80 23 62 01  .....#+......#b.
00C0: 80 D8 B2 06 01 D8 B2 06  01 6D 61 69 6E 00 80 A0  .........main...
00D0: 01 80 D8 B2 06 01 D8 B2  06 01 6D 61 69 6E 4E 01  ..........mainN.
00E0: D8 B2 06 01 21 13 01 00  05 80 02 01 00 00 80 80  ....!...........
00F0: FD 00 2B D8 B2 06 01 08  80 23 01 28 01 02 01 00  ..+......#.(....
0100: 01 80 80 10 01 2B D8 B2  06 01 09 80 23 01 28 01  .....+......#.(.
0110: 02 01 00 05 80 80 28 01  03 02 10 02 00 2B D8 B2  ......(......+..
0120: 06 01 0A 80 23 01 28 01  4A D6 B2 06 01 D8 B2 06  ....#.(.J.......
0130: 01 6F 76 D6 B2 06 01 2C  D6 B2 06 01 D6 B2 06 01  .ov....,........
0140: 67 61 6B 30 2B D6 B2 06  01 0B 80 23 1C 0C 80 2C  gak0+......#...,
0150: D6 B2 06 01 D6 B2 06 01  67 61 6B 31 24 0D 80 01  ........gak1$...
0160: 80 00 80 25 02 00 10 00  80 00 75 04 C4 02 0E 80  ...%......u.....
0170: D8 B2 06 01 F0 FF FF 7F  1C 0F 80 03 01 10 02 80  ................
0180: 43 00 43 01 03 03 00 05  10 02 04 00 00 80 00 EC  C.C.............
0190: 02 02 03 00 10 80 04 41  02 02 01 00 00 80 80 AC  .......A........
01A0: 01 2B D8 B2 06 01 11 80  23 01 D7 01 02 01 00 01  .+......#.......
01B0: 80 80 BF 01 2B D8 B2 06  01 12 80 23 01 D7 01 02  ....+......#....
01C0: 01 00 05 80 80 D7 01 03  02 10 02 00 2B D8 B2 06  ............+...
01D0: 01 13 80 23 01 D7 01 62  01 80 D8 B2 06 01 D8 B2  ...#...b........
01E0: 06 01 6D 61 69 6E 00 80  A0 01 80 D8 B2 06 01 D8  ..main..........
01F0: B2 06 01 6D 61 69 6E 4E  01 D8 B2 06 01 1C 14 80  ...mainN........
0200: 2C D6 B2 06 01 D6 B2 06  01 67 61 6B 30 2B D6 B2  ,........gak0+..
0210: 06 01 15 80 23 1C 0C 80  2C D6 B2 06 01 D6 B2 06  ....#...,.......
0220: 01 67 61 6B 31 1C 04 80  4A D6 B2 06 01 F0 FF FF  .gak1...J.......
0230: 7F 2B D6 B2 06 01 16 80  23 03 01 10 02 80 01 E9  .+......#.......
0240: 02 02 01 00 00 80 80 54  02 2B D8 B2 06 01 17 80  .......T.+......
0250: 23 01 7F 02 02 01 00 01  80 80 67 02 2B D8 B2 06  #.........g.+...
0260: 01 18 80 23 01 7F 02 02  01 00 05 80 80 7F 02 03  ...#............
0270: 02 10 03 00 2B D8 B2 06  01 19 80 23 01 7F 02 1C  ....+......#....
0280: 14 80 62 01 80 D8 B2 06  01 D8 B2 06 01 6D 61 69  ..b..........mai
0290: 6E 00 80 A0 01 80 D8 B2  06 01 D8 B2 06 01 6D 61  n.............ma
02A0: 69 6E 4E 01 D8 B2 06 01  1C 14 80 2C D6 B2 06 01  inN........,....
02B0: D6 B2 06 01 67 61 6B 30  2B D6 B2 06 01 15 80 23  ....gak0+......#
02C0: 1C 0C 80 2C D6 B2 06 01  D6 B2 06 01 67 61 6B 31  ...,........gak1
02D0: 1C 04 80 4A D6 B2 06 01  F0 FF FF 7F 2B D6 B2 06  ...J........+...
02E0: 01 16 80 23 03 01 10 1A  80 01 72 04 02 05 00 00  ...#......r.....
02F0: 80 00 72 04 02 03 00 14  80 04 C7 03 2B D8 B2 06  ..r.........+...
0300: 01 1B 80 23 3A D8 B2 06  01 08 10 07 08 10 1C 80  ...#:...........
0310: 29 80 D8 B2 06 01 03 2B  D8 B2 06 01 1D 80 23 4A  )......+......#J
0320: D8 B2 06 01 F0 FF FF 7F  2B D8 B2 06 01 1E 80 23  ........+......#
0330: 2B D8 B2 06 01 1F 80 23  08 08 10 20 80 29 80 D8  +......#... .)..
0340: B2 06 01 03 2B D8 B2 06  01 21 80 23 4A D8 B2 06  ....+....!.#J...
0350: 01 F0 FF FF 7F 62 01 80  D8 B2 06 01 D8 B2 06 01  .....b..........
0360: 6D 61 69 6E 00 80 A0 01  80 D8 B2 06 01 D8 B2 06  main............
0370: 01 6D 61 69 6E 4E 01 D8  B2 06 01 1C 14 80 2B D6  .mainN........+.
0380: B2 06 01 22 80 23 2C D6  B2 06 01 D6 B2 06 01 67  ...".#,........g
0390: 61 6B 30 2B D6 B2 06 01  23 80 23 1C 0C 80 2C D6  ak0+....#.#...,.
03A0: B2 06 01 D6 B2 06 01 67  61 6B 31 1C 04 80 4A D6  .......gak1...J.
03B0: B2 06 01 F0 FF FF 7F 2B  D6 B2 06 01 16 80 23 03  .......+......#.
03C0: 01 10 02 80 01 6F 04 02  01 00 00 80 80 DA 03 2B  .....o.........+
03D0: D8 B2 06 01 17 80 23 01  05 04 02 01 00 01 80 80  ......#.........
03E0: ED 03 2B D8 B2 06 01 18  80 23 01 05 04 02 01 00  ..+......#......
03F0: 05 80 80 05 04 03 02 10  03 00 2B D8 B2 06 01 19  ..........+.....
0400: 80 23 01 05 04 1C 14 80  62 01 80 D8 B2 06 01 D8  .#......b.......
0410: B2 06 01 6D 61 69 6E 00  80 A0 01 80 D8 B2 06 01  ...main.........
0420: D8 B2 06 01 6D 61 69 6E  4E 01 D8 B2 06 01 1C 14  ....mainN.......
0430: 80 2C D6 B2 06 01 D6 B2  06 01 67 61 6B 30 2B D6  .,........gak0+.
0440: B2 06 01 15 80 23 1C 0C  80 2C D6 B2 06 01 D6 B2  .....#...,......
0450: 06 01 67 61 6B 31 1C 04  80 4A D6 B2 06 01 F0 FF  ..gak1...J......
0460: FF 7F 2B D6 B2 06 01 16  80 23 03 01 10 1A 80 01  ..+......#......
0470: 72 04 01 29 05 02 00 10  01 80 00 29 05 02 01 00  r..).......)....
0480: 00 80 80 90 04 2B D8 B2  06 01 24 80 23 01 CF 04  .....+....$.#...
0490: 02 01 00 01 80 80 B7 04  2B D8 B2 06 01 25 80 23  ........+....%.#
04A0: C4 02 26 80 D8 B2 06 01  F0 FF FF 7F 1C 0F 80 03  ..&.............
04B0: 01 10 27 80 01 CF 04 02  01 00 05 80 80 CF 04 03  ..'.............
04C0: 02 10 02 00 2B D8 B2 06  01 28 80 23 01 CF 04 62  ....+....(.#...b
04D0: 01 80 D8 B2 06 01 D8 B2  06 01 6D 61 69 6E 00 80  ..........main..
04E0: A0 01 80 D8 B2 06 01 D8  B2 06 01 6D 61 69 6E 4E  ...........mainN
04F0: 01 D8 B2 06 01 1C 04 80  4A D6 B2 06 01 F0 FF FF  ........J.......
0500: 7F 2C F8 FF FF 7F F8 FF  FF 7F 74 6C 6B 30 2B D6  .,........tlk0+.
0510: B2 06 01 29 80 23 2C F8  FF FF 7F F8 FF FF 7F 74  ...).#,........t
0520: 6C 6B 31 1C 04 80 01 29  05 21 00                 lk1....).!.     
```

#### Opcodes

```
  0: 0x0002 [0x03] ExtData[1]->WorkLocal[2] = Work_Zone[4]
  1: 0x0007 [0x3E] IF !(Work_Zone[3] bit 0*) GOTO 0x0014
  2: 0x000E [0x05] ExtData[1]->WorkLocal[4] = 1
  3: 0x0011 [0x01] GOTO 0x0017
  4: 0x0014 [0x06] ExtData[1]->WorkLocal[4] = 0

SUBROUTINE_0017:
  5: 0x0017 [0x3E] IF !(Work_Zone[3] bit 1*) GOTO 0x0024
  6: 0x001E [0x05] ExtData[1]->WorkLocal[5] = 1
  7: 0x0021 [0x01] GOTO 0x0027
  8: 0x0024 [0x06] ExtData[1]->WorkLocal[5] = 0

SUBROUTINE_0027:
  9: 0x0027 [0x3E] IF !(Work_Zone[3] bit 3*) GOTO 0x0034
 10: 0x002E [0x05] ExtData[1]->WorkLocal[6] = 1
 11: 0x0031 [0x01] GOTO 0x0037
 12: 0x0034 [0x06] ExtData[1]->WorkLocal[6] = 0

SUBROUTINE_0037:
 13: 0x0037 [0x42] SET_CLI_EVENT_CANCEL_DATA()
 14: 0x0038 [0x2F] Magivore Ternion (ID: 17216216/0x0106B2D8)->Render.Flags0 &= ~0x80000 // Bit 19
 15: 0x003E [0x4E] SET_ENTITY_HIDE_FLAG: Show Magivore Ternion (ID: 17216216/0x0106B2D8)
 16: 0x0044 [0x80] LOAD_WAIT(entity=Magivore Ternion (ID: 17216216/0x0106B2D8))
 17: 0x0049 [0x3B] GET_ENTITY_POSITION(entity=Magivore Ternion (ID: 17216216/0x0106B2D8), x_destination=ExtData[1]->WorkLocal[7], y_destination=ExtData[1]->WorkLocal[8], z_destination=ExtData[1]->WorkLocal[9])
 18: 0x0054 [0x3A] CONVERT_YAW_TO_BYTE(entity=Magivore Ternion (ID: 17216216/0x0106B2D8), result_destination=ExtData[1]->WorkLocal[0])
 19: 0x005B [0x08] ExtData[1]->WorkLocal[9] -= 5000*
 20: 0x0060 [0x2C] CREATE_SCHEDULER_TASK: Create scheduler "kesu" with entities [Magivore Ternion (ID: 17216216/0x0106B2D8), Magivore Ternion (ID: 17216216/0x0106B2D8)]
 21: 0x006D [0x1C] WAIT(60* ticks)
 22: 0x0070 [0xBA] SET_ENTITY_POSITION(entity_id=Magivore Ternion (ID: 17216216/0x0106B2D8), pos_x=ExtData[1]->WorkLocal[7], pos_z=ExtData[1]->WorkLocal[8], pos_y=ExtData[1]->WorkLocal[9], direction=ExtData[1]->WorkLocal[0])
 23: 0x007D [0x62] LOAD_EVENT_SCHEDULER: Load scheduler "main" with entities [Magivore Ternion (ID: 17216216/0x0106B2D8), Magivore Ternion (ID: 17216216/0x0106B2D8)], work=[2*, 0*]
 24: 0x008E [0xA0] WAIT_LOAD_SCHEDULER_MAIN_ALT2: Wait for scheduler "main" with entities [Magivore Ternion (ID: 17216216/0x0106B2D8), Magivore Ternion (ID: 17216216/0x0106B2D8)], work=2*
 25: 0x009D [0x4A] Magivore Ternion (ID: 17216216/0x0106B2D8) looks at LocalPlayer
 26: 0x00A6 [0x02] IF !(ExtData[1]->WorkLocal[6] == 1*) GOTO 0x00E5
 27: 0x00AE [0x2B] Magivore Ternion (ID: 17216216/0x0106B2D8) [7858*]:
    → "Such arcane power could be put to much more productive uses than banishing that fairy tale of an exorcist..."
 28: 0x00B5 [0x23] WAIT_FOR_DIALOG_INTERACTION
 29: 0x00B6 [0x2B] Magivore Ternion (ID: 17216216/0x0106B2D8) [7859*]:
    → "Should you take the time to charge that spell once more, we would certainly make it worth your while."
 30: 0x00BD [0x23] WAIT_FOR_DIALOG_INTERACTION
 31: 0x00BE [0x62] LOAD_EVENT_SCHEDULER: Load scheduler "main" with entities [Magivore Ternion (ID: 17216216/0x0106B2D8), Magivore Ternion (ID: 17216216/0x0106B2D8)], work=[1*, 0*]
 32: 0x00CF [0xA0] WAIT_LOAD_SCHEDULER_MAIN_ALT2: Wait for scheduler "main" with entities [Magivore Ternion (ID: 17216216/0x0106B2D8), Magivore Ternion (ID: 17216216/0x0106B2D8)], work=1*
 33: 0x00DE [0x4E] SET_ENTITY_HIDE_FLAG: Hide Magivore Ternion (ID: 17216216/0x0106B2D8)
 34: 0x00E4 [0x21] END_EVENT
 35: 0x00E5 [0x13] ExtData[1]->WorkLocal[1] = rand() % 2*
 36: 0x00EA [0x02] IF !(ExtData[1]->WorkLocal[1] == 0*) GOTO 0x00FD
 37: 0x00F2 [0x2B] Magivore Ternion (ID: 17216216/0x0106B2D8) [7836*]:
    → "How thoughtful of you to grace us with your presence--and your magic--yet again."
 38: 0x00F9 [0x23] WAIT_FOR_DIALOG_INTERACTION
 39: 0x00FA [0x01] GOTO 0x0128
 40: 0x00FD [0x02] IF !(ExtData[1]->WorkLocal[1] == 1*) GOTO 0x0110
 41: 0x0105 [0x2B] Magivore Ternion (ID: 17216216/0x0106B2D8) [7837*]:
    → "I've never seen anyone go about business as slow as you! Was your mother a tortoise or something? Anyway, hurry up and give us that magic effect before we die of old age!"
 42: 0x010C [0x23] WAIT_FOR_DIALOG_INTERACTION
 43: 0x010D [0x01] GOTO 0x0128
 44: 0x0110 [0x02] IF !(ExtData[1]->WorkLocal[1] == 2*) GOTO 0x0128
 45: 0x0118 [0x03] Work_Zone[2] = ExtData[1]->WorkLocal[2]
 46: 0x011D [0x2B] Magivore Ternion (ID: 17216216/0x0106B2D8) [7838*]:
    → "That spell...equivalent to $0 mandragora-power... We must have it."
 47: 0x0124 [0x23] WAIT_FOR_DIALOG_INTERACTION
 48: 0x0125 [0x01] GOTO 0x0128

SUBROUTINE_0128:
 49: 0x0128 [0x4A] Moogle (ID: 17216214/0x0106B2D6) looks at Magivore Ternion (ID: 17216216/0x0106B2D8)
 50: 0x0131 [0x6F] WAIT_FRAME_DELAY: Yield until WaitTime reaches zero
 51: 0x0132 [0x76] CHECK_ENTITY_RENDER_FLAGS: Wait until Moogle (ID: 17216214/0x0106B2D6) Render.Flags0 and Render.Flags3 conditions are met
 52: 0x0137 [0x2C] CREATE_SCHEDULER_TASK: Create scheduler "gak0" with entities [Moogle (ID: 17216214/0x0106B2D6), Moogle (ID: 17216214/0x0106B2D6)]
 53: 0x0144 [0x2B] Moogle (ID: 17216214/0x0106B2D6) [7834*]:
    → "Ay yai yai! I ardently advise against accepting an appeal as artful as this, kupo! You sobbed sanguineous streams in your quest to procure this potent magic--you shouldn't just give it away!"
 54: 0x014B [0x23] WAIT_FOR_DIALOG_INTERACTION
 55: 0x014C [0x1C] WAIT(90* ticks)
 56: 0x014F [0x2C] CREATE_SCHEDULER_TASK: Create scheduler "gak1" with entities [Moogle (ID: 17216214/0x0106B2D6), Moogle (ID: 17216214/0x0106B2D6)]
 57: 0x015C [0x24] CREATE_DIALOG(message_id=7835*, default_option=1*, option_flags=0*)
    → "Bestow the boon upon yon bats? [Verily./Nay.]"
 58: 0x0163 [0x25] WAIT_DIALOG_SELECT()
 59: 0x0164 [0x02] IF !(Work_Zone[0] == 0*) GOTO 0x0475
 60: 0x016C [0xC4] SCHEDULE_MAGIC_CASTING_ALT (arg=18): Magivore Ternion (ID: 17216216/0x0106B2D8) casts magic 339* on LocalPlayer
 61: 0x0178 [0x1C] WAIT(180* ticks)
 62: 0x017B [0x03] Work_Zone[1] = 3*
 63: 0x0180 [0x43] SEND_EVENT_UPDATE: Send pending tag to server (packet 0x005B)
 64: 0x0182 [0x43] SEND_EVENT_UPDATE: Check pending flag (skip if not pending)
 65: 0x0184 [0x03] ExtData[1]->WorkLocal[3] = Work_Zone[5]
 66: 0x0189 [0x02] IF !(ExtData[1]->WorkLocal[4] == 0*) GOTO 0x02EC
 67: 0x0191 [0x02] IF !(ExtData[1]->WorkLocal[3] < 15*) GOTO 0x0241
 68: 0x0199 [0x02] IF !(ExtData[1]->WorkLocal[1] == 0*) GOTO 0x01AC
 69: 0x01A1 [0x2B] Magivore Ternion (ID: 17216216/0x0106B2D8) [7839*]:
    → "What an exhilarating sensation! That last batch of magic was as potent as an Ahriman in rut. Should you chance to find yourself with a sorcerous abundance again, we will always welcome you with spread wings."
 70: 0x01A8 [0x23] WAIT_FOR_DIALOG_INTERACTION
 71: 0x01A9 [0x01] GOTO 0x01D7
 72: 0x01AC [0x02] IF !(ExtData[1]->WorkLocal[1] == 1*) GOTO 0x01BF
 73: 0x01B4 [0x2B] Magivore Ternion (ID: 17216216/0x0106B2D8) [7840*]:
    → "I just know you're holding out on us, but I'll give you the benefit of the doubt...for now. Next time, try stocking up on more of that magic first."
 74: 0x01BB [0x23] WAIT_FOR_DIALOG_INTERACTION
 75: 0x01BC [0x01] GOTO 0x01D7
 76: 0x01BF [0x02] IF !(ExtData[1]->WorkLocal[1] == 2*) GOTO 0x01D7
 77: 0x01C7 [0x03] Work_Zone[2] = ExtData[1]->WorkLocal[2]
 78: 0x01CC [0x2B] Magivore Ternion (ID: 17216216/0x0106B2D8) [7841*]:
    → "I knew you'd give us what we needed. Have this in return."
 79: 0x01D3 [0x23] WAIT_FOR_DIALOG_INTERACTION
 80: 0x01D4 [0x01] GOTO 0x01D7

SUBROUTINE_01D7:
 81: 0x01D7 [0x62] LOAD_EVENT_SCHEDULER: Load scheduler "main" with entities [Magivore Ternion (ID: 17216216/0x0106B2D8), Magivore Ternion (ID: 17216216/0x0106B2D8)], work=[1*, 0*]
 82: 0x01E8 [0xA0] WAIT_LOAD_SCHEDULER_MAIN_ALT2: Wait for scheduler "main" with entities [Magivore Ternion (ID: 17216216/0x0106B2D8), Magivore Ternion (ID: 17216216/0x0106B2D8)], work=1*
 83: 0x01F7 [0x4E] SET_ENTITY_HIDE_FLAG: Hide Magivore Ternion (ID: 17216216/0x0106B2D8)
 84: 0x01FD [0x1C] WAIT(30* ticks)
 85: 0x0200 [0x2C] CREATE_SCHEDULER_TASK: Create scheduler "gak0" with entities [Moogle (ID: 17216214/0x0106B2D6), Moogle (ID: 17216214/0x0106B2D6)]
 86: 0x020D [0x2B] Moogle (ID: 17216214/0x0106B2D6) [7842*]:
    → "Sordid scryers, <Player>! You just parted ways with all the magnificent magic you managed to muster, kupo!"
 87: 0x0214 [0x23] WAIT_FOR_DIALOG_INTERACTION
 88: 0x0215 [0x1C] WAIT(90* ticks)
 89: 0x0218 [0x2C] CREATE_SCHEDULER_TASK: Create scheduler "gak1" with entities [Moogle (ID: 17216214/0x0106B2D6), Moogle (ID: 17216214/0x0106B2D6)]
 90: 0x0225 [0x1C] WAIT(60* ticks)
 91: 0x0228 [0x4A] Moogle (ID: 17216214/0x0106B2D6) looks at LocalPlayer
 92: 0x0231 [0x2B] Moogle (ID: 17216214/0x0106B2D6) [7843*]:
    → "Well...I suppose there's still some enhancing magic left to help you rout those reprobate wraith bats... Let's get back to business before that brutish Pyracmon can ruin the rest of the Harvest Festival, kupo."
 93: 0x0238 [0x23] WAIT_FOR_DIALOG_INTERACTION
 94: 0x0239 [0x03] Work_Zone[1] = 3*
 95: 0x023E [0x01] GOTO 0x02E9
 96: 0x0241 [0x02] IF !(ExtData[1]->WorkLocal[1] == 0*) GOTO 0x0254
 97: 0x0249 [0x2B] Magivore Ternion (ID: 17216216/0x0106B2D8) [7851*]:
    → "This trace amount leaves our thirst for magic unquenched. The pact cannot be completed unless you return with the ordained measure."
 98: 0x0250 [0x23] WAIT_FOR_DIALOG_INTERACTION
 99: 0x0251 [0x01] GOTO 0x027F
100: 0x0254 [0x02] IF !(ExtData[1]->WorkLocal[1] == 1*) GOTO 0x0267
101: 0x025C [0x2B] Magivore Ternion (ID: 17216216/0x0106B2D8) [7852*]:
    → "What do you expect us to do with these spectral dregs!? This is nothing! Nothing! Don't come back here again until you've obtained an amount decent enough to study!"
102: 0x0263 [0x23] WAIT_FOR_DIALOG_INTERACTION
103: 0x0264 [0x01] GOTO 0x027F
104: 0x0267 [0x02] IF !(ExtData[1]->WorkLocal[1] == 2*) GOTO 0x027F
105: 0x026F [0x03] Work_Zone[2] = ExtData[1]->WorkLocal[3]
106: 0x0274 [0x2B] Magivore Ternion (ID: 17216216/0x0106B2D8) [7853*]:
    → "Your total...only equivalent to $0 mandragora-power... We require more..."
107: 0x027B [0x23] WAIT_FOR_DIALOG_INTERACTION
108: 0x027C [0x01] GOTO 0x027F

SUBROUTINE_027F:
109: 0x027F [0x1C] WAIT(30* ticks)
110: 0x0282 [0x62] LOAD_EVENT_SCHEDULER: Load scheduler "main" with entities [Magivore Ternion (ID: 17216216/0x0106B2D8), Magivore Ternion (ID: 17216216/0x0106B2D8)], work=[1*, 0*]
111: 0x0293 [0xA0] WAIT_LOAD_SCHEDULER_MAIN_ALT2: Wait for scheduler "main" with entities [Magivore Ternion (ID: 17216216/0x0106B2D8), Magivore Ternion (ID: 17216216/0x0106B2D8)], work=1*
112: 0x02A2 [0x4E] SET_ENTITY_HIDE_FLAG: Hide Magivore Ternion (ID: 17216216/0x0106B2D8)
113: 0x02A8 [0x1C] WAIT(30* ticks)
114: 0x02AB [0x2C] CREATE_SCHEDULER_TASK: Create scheduler "gak0" with entities [Moogle (ID: 17216214/0x0106B2D6), Moogle (ID: 17216214/0x0106B2D6)]
115: 0x02B8 [0x2B] Moogle (ID: 17216214/0x0106B2D6) [7842*]:
    → "Sordid scryers, <Player>! You just parted ways with all the magnificent magic you managed to muster, kupo!"
116: 0x02BF [0x23] WAIT_FOR_DIALOG_INTERACTION
117: 0x02C0 [0x1C] WAIT(90* ticks)
118: 0x02C3 [0x2C] CREATE_SCHEDULER_TASK: Create scheduler "gak1" with entities [Moogle (ID: 17216214/0x0106B2D6), Moogle (ID: 17216214/0x0106B2D6)]
119: 0x02D0 [0x1C] WAIT(60* ticks)
120: 0x02D3 [0x4A] Moogle (ID: 17216214/0x0106B2D6) looks at LocalPlayer
121: 0x02DC [0x2B] Moogle (ID: 17216214/0x0106B2D6) [7843*]:
    → "Well...I suppose there's still some enhancing magic left to help you rout those reprobate wraith bats... Let's get back to business before that brutish Pyracmon can ruin the rest of the Harvest Festival, kupo."
122: 0x02E3 [0x23] WAIT_FOR_DIALOG_INTERACTION
123: 0x02E4 [0x03] Work_Zone[1] = 4*

SUBROUTINE_02E9:
124: 0x02E9 [0x01] GOTO 0x0472
125: 0x02EC [0x02] IF !(ExtData[1]->WorkLocal[5] == 0*) GOTO 0x0472
126: 0x02F4 [0x02] IF !(ExtData[1]->WorkLocal[3] < 30*) GOTO 0x03C7
127: 0x02FC [0x2B] Magivore Ternion (ID: 17216216/0x0106B2D8) [7844*]:
    → "I am literally spellbound, adventurer! Your contributions have surpassed our expectations. Take this as thanks from the bottom of our black hearts."
128: 0x0303 [0x23] WAIT_FOR_DIALOG_INTERACTION
129: 0x0304 [0x3A] CONVERT_YAW_TO_BYTE(entity=Magivore Ternion (ID: 17216216/0x0106B2D8), result_destination=Work_Zone[8])
130: 0x030B [0x07] Work_Zone[8] += 400*
131: 0x0310 [0x29] REQ_SET_WAIT(priority=0x80, entity_id=Magivore Ternion (ID: 17216216/0x0106B2D8), tag_num=0x03)
132: 0x0317 [0x2B] Magivore Ternion (ID: 17216216/0x0106B2D8) [7845*]:
    → "It turns out the energy contained in these so-called "Middle Lands" isn't so middling after all. At least it'll be of use once our preparations are underway."
133: 0x031E [0x23] WAIT_FOR_DIALOG_INTERACTION
134: 0x031F [0x4A] Magivore Ternion (ID: 17216216/0x0106B2D8) looks at LocalPlayer
135: 0x0328 [0x2B] Magivore Ternion (ID: 17216216/0x0106B2D8) [7846*]:
    → "Indubitably. While we must bid farewell to this continent, you can always use that headgear to fly over for a reunion."
136: 0x032F [0x23] WAIT_FOR_DIALOG_INTERACTION
137: 0x0330 [0x2B] Magivore Ternion (ID: 17216216/0x0106B2D8) [7847*]:
    → "Hyah, hyah, hyah! How gullible you are! You may be well versed in the arts of magic, but your sense of humor still leaves much to be desired."
138: 0x0337 [0x23] WAIT_FOR_DIALOG_INTERACTION
139: 0x0338 [0x08] Work_Zone[8] -= 800*
140: 0x033D [0x29] REQ_SET_WAIT(priority=0x80, entity_id=Magivore Ternion (ID: 17216216/0x0106B2D8), tag_num=0x03)
141: 0x0344 [0x2B] Magivore Ternion (ID: 17216216/0x0106B2D8) [7848*]:
    → "...Until next time."
142: 0x034B [0x23] WAIT_FOR_DIALOG_INTERACTION
143: 0x034C [0x4A] Magivore Ternion (ID: 17216216/0x0106B2D8) looks at LocalPlayer
144: 0x0355 [0x62] LOAD_EVENT_SCHEDULER: Load scheduler "main" with entities [Magivore Ternion (ID: 17216216/0x0106B2D8), Magivore Ternion (ID: 17216216/0x0106B2D8)], work=[1*, 0*]
145: 0x0366 [0xA0] WAIT_LOAD_SCHEDULER_MAIN_ALT2: Wait for scheduler "main" with entities [Magivore Ternion (ID: 17216216/0x0106B2D8), Magivore Ternion (ID: 17216216/0x0106B2D8)], work=1*
146: 0x0375 [0x4E] SET_ENTITY_HIDE_FLAG: Hide Magivore Ternion (ID: 17216216/0x0106B2D8)
147: 0x037B [0x1C] WAIT(30* ticks)
148: 0x037E [0x2B] Moogle (ID: 17216214/0x0106B2D6) [7849*]:
    → "What in the wide world was with those bizarre bats, kupo? I assumed they were allies of that apocalyptic abomination Pyracmon, but it seems my intuition was incorrect..."
149: 0x0385 [0x23] WAIT_FOR_DIALOG_INTERACTION
150: 0x0386 [0x2C] CREATE_SCHEDULER_TASK: Create scheduler "gak0" with entities [Moogle (ID: 17216214/0x0106B2D6), Moogle (ID: 17216214/0x0106B2D6)]
151: 0x0393 [0x2B] Moogle (ID: 17216214/0x0106B2D6) [7850*]:
    → "But based on the variety of their vexing vocal vibrations, I'd say there were three theurgists controlling those preternatural parasites. All that's beside the point, I suppose. Now we've got to start over from scratch, kupo..."
152: 0x039A [0x23] WAIT_FOR_DIALOG_INTERACTION
153: 0x039B [0x1C] WAIT(90* ticks)
154: 0x039E [0x2C] CREATE_SCHEDULER_TASK: Create scheduler "gak1" with entities [Moogle (ID: 17216214/0x0106B2D6), Moogle (ID: 17216214/0x0106B2D6)]
155: 0x03AB [0x1C] WAIT(60* ticks)
156: 0x03AE [0x4A] Moogle (ID: 17216214/0x0106B2D6) looks at LocalPlayer
157: 0x03B7 [0x2B] Moogle (ID: 17216214/0x0106B2D6) [7843*]:
    → "Well...I suppose there's still some enhancing magic left to help you rout those reprobate wraith bats... Let's get back to business before that brutish Pyracmon can ruin the rest of the Harvest Festival, kupo."
158: 0x03BE [0x23] WAIT_FOR_DIALOG_INTERACTION
159: 0x03BF [0x03] Work_Zone[1] = 3*
160: 0x03C4 [0x01] GOTO 0x046F
161: 0x03C7 [0x02] IF !(ExtData[1]->WorkLocal[1] == 0*) GOTO 0x03DA
162: 0x03CF [0x2B] Magivore Ternion (ID: 17216216/0x0106B2D8) [7851*]:
    → "This trace amount leaves our thirst for magic unquenched. The pact cannot be completed unless you return with the ordained measure."
163: 0x03D6 [0x23] WAIT_FOR_DIALOG_INTERACTION
164: 0x03D7 [0x01] GOTO 0x0405
165: 0x03DA [0x02] IF !(ExtData[1]->WorkLocal[1] == 1*) GOTO 0x03ED
166: 0x03E2 [0x2B] Magivore Ternion (ID: 17216216/0x0106B2D8) [7852*]:
    → "What do you expect us to do with these spectral dregs!? This is nothing! Nothing! Don't come back here again until you've obtained an amount decent enough to study!"
167: 0x03E9 [0x23] WAIT_FOR_DIALOG_INTERACTION
168: 0x03EA [0x01] GOTO 0x0405
169: 0x03ED [0x02] IF !(ExtData[1]->WorkLocal[1] == 2*) GOTO 0x0405
170: 0x03F5 [0x03] Work_Zone[2] = ExtData[1]->WorkLocal[3]
171: 0x03FA [0x2B] Magivore Ternion (ID: 17216216/0x0106B2D8) [7853*]:
    → "Your total...only equivalent to $0 mandragora-power... We require more..."
172: 0x0401 [0x23] WAIT_FOR_DIALOG_INTERACTION
173: 0x0402 [0x01] GOTO 0x0405

SUBROUTINE_0405:
174: 0x0405 [0x1C] WAIT(30* ticks)
175: 0x0408 [0x62] LOAD_EVENT_SCHEDULER: Load scheduler "main" with entities [Magivore Ternion (ID: 17216216/0x0106B2D8), Magivore Ternion (ID: 17216216/0x0106B2D8)], work=[1*, 0*]
176: 0x0419 [0xA0] WAIT_LOAD_SCHEDULER_MAIN_ALT2: Wait for scheduler "main" with entities [Magivore Ternion (ID: 17216216/0x0106B2D8), Magivore Ternion (ID: 17216216/0x0106B2D8)], work=1*
177: 0x0428 [0x4E] SET_ENTITY_HIDE_FLAG: Hide Magivore Ternion (ID: 17216216/0x0106B2D8)
178: 0x042E [0x1C] WAIT(30* ticks)
179: 0x0431 [0x2C] CREATE_SCHEDULER_TASK: Create scheduler "gak0" with entities [Moogle (ID: 17216214/0x0106B2D6), Moogle (ID: 17216214/0x0106B2D6)]
180: 0x043E [0x2B] Moogle (ID: 17216214/0x0106B2D6) [7842*]:
    → "Sordid scryers, <Player>! You just parted ways with all the magnificent magic you managed to muster, kupo!"
181: 0x0445 [0x23] WAIT_FOR_DIALOG_INTERACTION
182: 0x0446 [0x1C] WAIT(90* ticks)
183: 0x0449 [0x2C] CREATE_SCHEDULER_TASK: Create scheduler "gak1" with entities [Moogle (ID: 17216214/0x0106B2D6), Moogle (ID: 17216214/0x0106B2D6)]
184: 0x0456 [0x1C] WAIT(60* ticks)
185: 0x0459 [0x4A] Moogle (ID: 17216214/0x0106B2D6) looks at LocalPlayer
186: 0x0462 [0x2B] Moogle (ID: 17216214/0x0106B2D6) [7843*]:
    → "Well...I suppose there's still some enhancing magic left to help you rout those reprobate wraith bats... Let's get back to business before that brutish Pyracmon can ruin the rest of the Harvest Festival, kupo."
187: 0x0469 [0x23] WAIT_FOR_DIALOG_INTERACTION
188: 0x046A [0x03] Work_Zone[1] = 4*

SUBROUTINE_046F:
189: 0x046F [0x01] GOTO 0x0472

SUBROUTINE_0472:
190: 0x0472 [0x01] GOTO 0x0529
191: 0x0475 [0x02] IF !(Work_Zone[0] == 1*) GOTO 0x0529
192: 0x047D [0x02] IF !(ExtData[1]->WorkLocal[1] == 0*) GOTO 0x0490
193: 0x0485 [0x2B] Magivore Ternion (ID: 17216216/0x0106B2D8) [7854*]:
    → "How...disappointing. Then I shall take your reply to mean you do not require a certain miraculous artifact we had been saving for you."
194: 0x048C [0x23] WAIT_FOR_DIALOG_INTERACTION
195: 0x048D [0x01] GOTO 0x04CF
196: 0x0490 [0x02] IF !(ExtData[1]->WorkLocal[1] == 1*) GOTO 0x04B7
197: 0x0498 [0x2B] Magivore Ternion (ID: 17216216/0x0106B2D8) [7855*]:
    → "...Fine! See if I care! In fact, I care so little that I'm gonna put a curse on you for refusing to help us, so there!"
198: 0x049F [0x23] WAIT_FOR_DIALOG_INTERACTION
199: 0x04A0 [0xC4] SCHEDULE_MAGIC_CASTING_ALT (arg=18): Magivore Ternion (ID: 17216216/0x0106B2D8) casts magic 137* on LocalPlayer
200: 0x04AC [0x1C] WAIT(180* ticks)
201: 0x04AF [0x03] Work_Zone[1] = 5*
202: 0x04B4 [0x01] GOTO 0x04CF
203: 0x04B7 [0x02] IF !(ExtData[1]->WorkLocal[1] == 2*) GOTO 0x04CF
204: 0x04BF [0x03] Work_Zone[2] = ExtData[1]->WorkLocal[2]
205: 0x04C4 [0x2B] Magivore Ternion (ID: 17216216/0x0106B2D8) [7856*]:
    → "...Of course you won't now...but you will eventually."
206: 0x04CB [0x23] WAIT_FOR_DIALOG_INTERACTION
207: 0x04CC [0x01] GOTO 0x04CF

SUBROUTINE_04CF:
208: 0x04CF [0x62] LOAD_EVENT_SCHEDULER: Load scheduler "main" with entities [Magivore Ternion (ID: 17216216/0x0106B2D8), Magivore Ternion (ID: 17216216/0x0106B2D8)], work=[1*, 0*]
209: 0x04E0 [0xA0] WAIT_LOAD_SCHEDULER_MAIN_ALT2: Wait for scheduler "main" with entities [Magivore Ternion (ID: 17216216/0x0106B2D8), Magivore Ternion (ID: 17216216/0x0106B2D8)], work=1*
210: 0x04EF [0x4E] SET_ENTITY_HIDE_FLAG: Hide Magivore Ternion (ID: 17216216/0x0106B2D8)
211: 0x04F5 [0x1C] WAIT(60* ticks)
212: 0x04F8 [0x4A] Moogle (ID: 17216214/0x0106B2D6) looks at LocalPlayer
213: 0x0501 [0x2C] CREATE_SCHEDULER_TASK: Create scheduler "tlk0" with entities [EventEntity, EventEntity]
214: 0x050E [0x2B] Moogle (ID: 17216214/0x0106B2D6) [7857*]:
    → "Whew, for a moment I was positively petrified about your progression on this particular peregrination. Now that that's that, though, let's go pummel Pyracmon, puko! Er, kupo!"
215: 0x0515 [0x23] WAIT_FOR_DIALOG_INTERACTION
216: 0x0516 [0x2C] CREATE_SCHEDULER_TASK: Create scheduler "tlk1" with entities [EventEntity, EventEntity]
217: 0x0523 [0x1C] WAIT(60* ticks)
218: 0x0526 [0x01] GOTO 0x0529

SUBROUTINE_0529:
219: 0x0529 [0x21] END_EVENT
220: 0x052A [0x00] END_REQSTACK()
```
