# Event 65535

## Metadata

| Field           | Value    |
|-----------------|----------|
| Event Index     | 30/42    |
| Offset          | 0x02DE   |
| Data Size       | 45 bytes |
| Calculated Size | 45 bytes |
| Instructions    | 12       |

```
      00 01 02 03 04 05 06 07  08 09 0A 0B 0C 0D 0E 0F
      -- -- -- -- -- -- -- --  -- -- -- -- -- -- -- --
02D0:                                            32 06                2.
02E0: 80 1F 00 2D 80 2E 80 09  80 1F 01 1C 14 80 39 2F  ...-..........9/
02F0: 80 1C 30 80 1F 00 31 80  32 80 09 80 1F 01 1C 14  ..0...1.2.......
0300: 80 39 33 80 1C 30 80 01  DE 02 00                 .93..0.....     
```

## Opcodes

```
  0: 0x02DE [0x32] ExtData[1]->MainSpeed = 13* * 0.1
  1: 0x02E1 [0x1F] MOVE_ENTITY: EventEntity moves to X=-96.584*, Z=-8.519*, Y=0.000*
  2: 0x02E9 [0x1F] MOVE_ENTITY: Update entity position (mode=1)
  3: 0x02EB [0x1C] WAIT(30* ticks)
  4: 0x02EE [0x39] SET_ENTITY_DIRECTION(direction=19.7°*)
  5: 0x02F1 [0x1C] WAIT(360* ticks)
  6: 0x02F4 [0x1F] MOVE_ENTITY: EventEntity moves to X=-96.241*, Z=8.872*, Y=0.000*
  7: 0x02FC [0x1F] MOVE_ENTITY: Update entity position (mode=1)
  8: 0x02FE [0x1C] WAIT(30* ticks)
  9: 0x0301 [0x39] SET_ENTITY_DIRECTION(direction=2.8°*)
 10: 0x0304 [0x1C] WAIT(360* ticks)
 11: 0x0307 [0x01] GOTO 0x02DE
```

## Data or dead code:

```
# Dead code (unreachable instructions):
     0x030A [0x00] END_REQSTACK()
```