# Event 65535

## Metadata

| Field           | Value    |
|-----------------|----------|
| Event Index     | 28/43    |
| Offset          | 0x01A6   |
| Data Size       | 52 bytes |
| Calculated Size | 52 bytes |
| Instructions    | 13       |

```
      00 01 02 03 04 05 06 07  08 09 0A 0B 0C 0D 0E 0F
      -- -- -- -- -- -- -- --  -- -- -- -- -- -- -- --
01A0:                   39 16  80 1C 17 80 32 29 80 1F        9.....2)..
01B0: 00 24 80 25 80 10 80 1F  01 1F 00 22 80 23 80 10  .$.%.......".#..
01C0: 80 1F 01 1F 00 20 80 21  80 10 80 1F 01 1F 00 2A  ..... .!.......*
01D0: 80 2B 80 2C 80 1F 01 22  01 00                    .+.,..."..      
```

## Opcodes

```
  0: 0x01A6 [0x39] SET_ENTITY_DIRECTION(direction=2.8°*)
  1: 0x01A9 [0x1C] WAIT(15* ticks)
  2: 0x01AC [0x32] ExtData[1]->MainSpeed = 40* * 0.1
  3: 0x01AF [0x1F] MOVE_ENTITY: EventEntity moves to X=99.622*, Z=-80.423*, Y=-0.651*
  4: 0x01B7 [0x1F] MOVE_ENTITY: Update entity position (mode=1)
  5: 0x01B9 [0x1F] MOVE_ENTITY: EventEntity moves to X=100.893*, Z=-80.573*, Y=-0.651*
  6: 0x01C1 [0x1F] MOVE_ENTITY: Update entity position (mode=1)
  7: 0x01C3 [0x1F] MOVE_ENTITY: EventEntity moves to X=102.655*, Z=-79.947*, Y=-0.651*
  8: 0x01CB [0x1F] MOVE_ENTITY: Update entity position (mode=1)
  9: 0x01CD [0x1F] MOVE_ENTITY: EventEntity moves to X=105.000*, Z=-78.000*, Y=-0.650*
 10: 0x01D5 [0x1F] MOVE_ENTITY: Update entity position (mode=1)
 11: 0x01D7 [0x22] ENTITY_HIDE_FLAG(enabled=0x01)
 12: 0x01D9 [0x00] END_REQSTACK()
```
