# Event 65535

## Metadata

| Field           | Value    |
|-----------------|----------|
| Event Index     | 27/43    |
| Offset          | 0x0177   |
| Data Size       | 47 bytes |
| Calculated Size | 47 bytes |
| Instructions    | 11       |

```
      00 01 02 03 04 05 06 07  08 09 0A 0B 0C 0D 0E 0F
      -- -- -- -- -- -- -- --  -- -- -- -- -- -- -- --
0170:                      32  0D 80 1F 00 20 80 21 80         2.... .!.
0180: 10 80 1F 01 1F 00 22 80  23 80 10 80 1F 01 1F 00  ......".#.......
0190: 24 80 25 80 10 80 1F 01  1F 00 26 80 27 80 10 80  $.%.......&.'...
01A0: 1F 01 39 28 80 00                                 ..9(..          
```

## Opcodes

```
  0: 0x0177 [0x32] ExtData[1]->MainSpeed = 13* * 0.1
  1: 0x017A [0x1F] MOVE_ENTITY: EventEntity moves to X=102.655*, Z=-79.947*, Y=-0.651*
  2: 0x0182 [0x1F] MOVE_ENTITY: Update entity position (mode=1)
  3: 0x0184 [0x1F] MOVE_ENTITY: EventEntity moves to X=100.893*, Z=-80.573*, Y=-0.651*
  4: 0x018C [0x1F] MOVE_ENTITY: Update entity position (mode=1)
  5: 0x018E [0x1F] MOVE_ENTITY: EventEntity moves to X=99.622*, Z=-80.423*, Y=-0.651*
  6: 0x0196 [0x1F] MOVE_ENTITY: Update entity position (mode=1)
  7: 0x0198 [0x1F] MOVE_ENTITY: EventEntity moves to X=98.102*, Z=-79.250*, Y=-0.651*
  8: 0x01A0 [0x1F] MOVE_ENTITY: Update entity position (mode=1)
  9: 0x01A2 [0x39] SET_ENTITY_DIRECTION(direction=23592951.6°*)
 10: 0x01A5 [0x00] END_REQSTACK()
```
