# Event 65535

## Metadata

| Field           | Value    |
|-----------------|----------|
| Event Index     | 33/43    |
| Offset          | 0x0243   |
| Data Size       | 63 bytes |
| Calculated Size | 63 bytes |
| Instructions    | 15       |

```
      00 01 02 03 04 05 06 07  08 09 0A 0B 0C 0D 0E 0F
      -- -- -- -- -- -- -- --  -- -- -- -- -- -- -- --
0240:          39 28 80 1C 17  80 32 29 80 1F 00 33 80     9(....2)...3.
0250: 34 80 30 80 1F 01 1F 00  35 80 36 80 37 80 1F 01  4.0.....5.6.7...
0260: 1F 00 38 80 39 80 3A 80  1F 01 1F 00 3B 80 3C 80  ..8.9.:.....;.<.
0270: 3A 80 1F 01 1C 17 80 1E  ED 00 10 01 7B F8 FF FF  :...........{...
0280: 7F 00                                             ..              
```

## Opcodes

```
  0: 0x0243 [0x39] SET_ENTITY_DIRECTION(direction=23592951.6°*)
  1: 0x0246 [0x1C] WAIT(15* ticks)
  2: 0x0249 [0x32] ExtData[1]->MainSpeed = 40* * 0.1
  3: 0x024C [0x1F] MOVE_ENTITY: EventEntity moves to X=66.440*, Z=127.450*, Y=30.000*
  4: 0x0254 [0x1F] MOVE_ENTITY: Update entity position (mode=1)
  5: 0x0256 [0x1F] MOVE_ENTITY: EventEntity moves to X=64.260*, Z=129.670*, Y=31.060*
  6: 0x025E [0x1F] MOVE_ENTITY: Update entity position (mode=1)
  7: 0x0260 [0x1F] MOVE_ENTITY: EventEntity moves to X=62.000*, Z=132.000*, Y=32.000*
  8: 0x0268 [0x1F] MOVE_ENTITY: Update entity position (mode=1)
  9: 0x026A [0x1F] MOVE_ENTITY: EventEntity moves to X=51.330*, Z=122.610*, Y=32.000*
 10: 0x0272 [0x1F] MOVE_ENTITY: Update entity position (mode=1)
 11: 0x0274 [0x1C] WAIT(15* ticks)
 12: 0x0277 [0x1E] EventEntity looks at Amchuchu (ID: 17826029/0x011000ED) and starts talking
 13: 0x027C [0x7B] EventEntity stops talking
 14: 0x0281 [0x00] END_REQSTACK()
```
