# Event 65535

## Metadata

| Field           | Value    |
|-----------------|----------|
| Event Index     | 43/43    |
| Offset          | 0x0317   |
| Data Size       | 50 bytes |
| Calculated Size | 50 bytes |
| Instructions    | 12       |

```
      00 01 02 03 04 05 06 07  08 09 0A 0B 0C 0D 0E 0F
      -- -- -- -- -- -- -- --  -- -- -- -- -- -- -- --
0310:                      39  28 80 1C 17 80 32 29 80         9(....2).
0320: 1F 00 50 80 51 80 30 80  1F 01 1F 00 52 80 53 80  ..P.Q.0.....R.S.
0330: 54 80 1F 01 1F 00 55 80  56 80 3A 80 1F 01 1F 00  T.....U.V.:.....
0340: 3B 80 3C 80 3A 80 1F 01  00                       ;.<.:....       
```

## Opcodes

```
  0: 0x0317 [0x39] SET_ENTITY_DIRECTION(direction=23592951.6°*)
  1: 0x031A [0x1C] WAIT(15* ticks)
  2: 0x031D [0x32] ExtData[1]->MainSpeed = 40* * 0.1
  3: 0x0320 [0x1F] MOVE_ENTITY: EventEntity moves to X=67.550*, Z=128.240*, Y=30.000*
  4: 0x0328 [0x1F] MOVE_ENTITY: Update entity position (mode=1)
  5: 0x032A [0x1F] MOVE_ENTITY: EventEntity moves to X=65.200*, Z=130.390*, Y=31.000*
  6: 0x0332 [0x1F] MOVE_ENTITY: Update entity position (mode=1)
  7: 0x0334 [0x1F] MOVE_ENTITY: EventEntity moves to X=62.350*, Z=132.380*, Y=32.000*
  8: 0x033C [0x1F] MOVE_ENTITY: Update entity position (mode=1)
  9: 0x033E [0x1F] MOVE_ENTITY: EventEntity moves to X=51.330*, Z=122.610*, Y=32.000*
 10: 0x0346 [0x1F] MOVE_ENTITY: Update entity position (mode=1)
 11: 0x0348 [0x00] END_REQSTACK()
```
