# Event 65535

## Metadata

| Field           | Value    |
|-----------------|----------|
| Event Index     | 34/43    |
| Offset          | 0x0282   |
| Data Size       | 50 bytes |
| Calculated Size | 50 bytes |
| Instructions    | 12       |

```
      00 01 02 03 04 05 06 07  08 09 0A 0B 0C 0D 0E 0F
      -- -- -- -- -- -- -- --  -- -- -- -- -- -- -- --
0280:       39 3D 80 1C 17 80  32 29 80 1F 00 3E 80 3F    9=....2)...>.?
0290: 80 3A 80 1F 01 1F 00 40  80 41 80 3A 80 1F 01 1F  .:.....@.A.:....
02A0: 00 42 80 43 80 3A 80 1F  01 1F 00 44 80 45 80 3A  .B.C.:.....D.E.:
02B0: 80 1F 01 00                                       ....            
```

## Opcodes

```
  0: 0x0282 [0x39] SET_ENTITY_DIRECTION(direction=8.4°*)
  1: 0x0285 [0x1C] WAIT(15* ticks)
  2: 0x0288 [0x32] ExtData[1]->MainSpeed = 40* * 0.1
  3: 0x028B [0x1F] MOVE_ENTITY: EventEntity moves to X=31.500*, Z=103.500*, Y=32.000*
  4: 0x0293 [0x1F] MOVE_ENTITY: Update entity position (mode=1)
  5: 0x0295 [0x1F] MOVE_ENTITY: EventEntity moves to X=29.200*, Z=101.650*, Y=32.000*
  6: 0x029D [0x1F] MOVE_ENTITY: Update entity position (mode=1)
  7: 0x029F [0x1F] MOVE_ENTITY: EventEntity moves to X=24.270*, Z=100.200*, Y=32.000*
  8: 0x02A7 [0x1F] MOVE_ENTITY: Update entity position (mode=1)
  9: 0x02A9 [0x1F] MOVE_ENTITY: EventEntity moves to X=12.420*, Z=99.860*, Y=32.000*
 10: 0x02B1 [0x1F] MOVE_ENTITY: Update entity position (mode=1)
 11: 0x02B3 [0x00] END_REQSTACK()
```
