# Event 65535

## Metadata

| Field           | Value    |
|-----------------|----------|
| Event Index     | 26/43    |
| Offset          | 0x0143   |
| Data Size       | 52 bytes |
| Calculated Size | 52 bytes |
| Instructions    | 13       |

```
      00 01 02 03 04 05 06 07  08 09 0A 0B 0C 0D 0E 0F
      -- -- -- -- -- -- -- --  -- -- -- -- -- -- -- --
0140:          39 16 80 1C 17  80 32 0D 80 1F 00 18 80     9.....2......
0150: 19 80 10 80 1F 01 1F 00  1A 80 1B 80 10 80 1F 01  ................
0160: 1F 00 1C 80 1D 80 10 80  1F 01 1F 00 1E 80 1F 80  ................
0170: 10 80 1F 01 22 01 00                              ...."..         
```

## Opcodes

```
  0: 0x0143 [0x39] SET_ENTITY_DIRECTION(direction=2.8°*)
  1: 0x0146 [0x1C] WAIT(15* ticks)
  2: 0x0149 [0x32] ExtData[1]->MainSpeed = 13* * 0.1
  3: 0x014C [0x1F] MOVE_ENTITY: EventEntity moves to X=100.250*, Z=-80.517*, Y=-0.651*
  4: 0x0154 [0x1F] MOVE_ENTITY: Update entity position (mode=1)
  5: 0x0156 [0x1F] MOVE_ENTITY: EventEntity moves to X=100.292*, Z=-80.513*, Y=-0.651*
  6: 0x015E [0x1F] MOVE_ENTITY: Update entity position (mode=1)
  7: 0x0160 [0x1F] MOVE_ENTITY: EventEntity moves to X=101.698*, Z=-80.331*, Y=-0.651*
  8: 0x0168 [0x1F] MOVE_ENTITY: Update entity position (mode=1)
  9: 0x016A [0x1F] MOVE_ENTITY: EventEntity moves to X=105.500*, Z=-77.500*, Y=-0.651*
 10: 0x0172 [0x1F] MOVE_ENTITY: Update entity position (mode=1)
 11: 0x0174 [0x22] ENTITY_HIDE_FLAG(enabled=0x01)
 12: 0x0176 [0x00] END_REQSTACK()
```
