# Event 831

## Metadata

| Field           | Value    |
|-----------------|----------|
| Event Index     | 10/27    |
| Offset          | 0x0061   |
| Data Size       | 39 bytes |
| Calculated Size | 39 bytes |
| Instructions    | 11       |

```
      00 01 02 03 04 05 06 07  08 09 0A 0B 0C 0D 0E 0F
      -- -- -- -- -- -- -- --  -- -- -- -- -- -- -- --
0060:    1E F0 FF FF 7F 2B 5C  21 03 01 08 80 23 2B 5C   .....+\!....#+\
0070: 21 03 01 09 80 23 2B 5C  21 03 01 0A 80 23 2B 5C  !....#+\!....#+\
0080: 21 03 01 0B 80 23 21 00                           !....#!.        
```

## Opcodes

```
  0: 0x0061 [0x1E] EventEntity looks at LocalPlayer and starts talking
  1: 0x0066 [0x2B] Fari-Wari (ID: 16982364/0x0103215C) [7746*]:
    → "Ahem! <Cough, cough>.\u007F1\u0000\u0007"
  2: 0x006D [0x23] WAIT_FOR_DIALOG_INTERACTION
  3: 0x006E [0x2B] Fari-Wari (ID: 16982364/0x0103215C) [7748*]:
    → "Lalala-lala-lala.\u0001t\u007F1\u0000\u0007"
  4: 0x0075 [0x23] WAIT_FOR_DIALOG_INTERACTION
  5: 0x0076 [0x2B] Fari-Wari (ID: 16982364/0x0103215C) [8044*]:
    → "A bard must be prepared to dazzle with a finely tuned voice at a moment's notice!\u007F1\u0000\u0007"
  6: 0x007D [0x23] WAIT_FOR_DIALOG_INTERACTION
  7: 0x007E [0x2B] Fari-Wari (ID: 16982364/0x0103215C) [8045*]:
    → "The wonderful chai of this establishment helps to soothe my throat during extended bouts of vocal exercises.\u007F1\u0000\u0007"
  8: 0x0085 [0x23] WAIT_FOR_DIALOG_INTERACTION
  9: 0x0086 [0x21] END_EVENT
 10: 0x0087 [0x00] END_REQSTACK()
```
