# Event 6

## Metadata

| Field           | Value    |
|-----------------|----------|
| Event Index     | 3/9      |
| Offset          | 0x046D   |
| Data Size       | 29 bytes |
| Calculated Size | 29 bytes |
| Instructions    | 11       |

```
      00 01 02 03 04 05 06 07  08 09 0A 0B 0C 0D 0E 0F
      -- -- -- -- -- -- -- --  -- -- -- -- -- -- -- --
0460:                                         1E F0 FF               ...
0470: FF 7F 6F 70 06 01 10 1A  08 1B 1A 5E 00 06 01 10  ..op.......^....
0480: 1A 3B 09 03 01 10 35 80  21 00                    .;....5.!.      
```

## Opcodes

```
  0: 0x046D [0x1E] EventEntity looks at LocalPlayer and starts talking
  1: 0x0472 [0x6F] WAIT_FRAME_DELAY: Yield until WaitTime reaches zero
  2: 0x0473 [0x70] WAIT_ENTITY_RENDER_FLAG: Wait while EventEntity->Render.Flags3 bit 2 is set (cancel turn if not)
  3: 0x0474 [0x06] Work_Zone[1] = 0
  4: 0x0477 [0x1A] CALL_SUBROUTINE(address=0x1B08)
  5: 0x047A [0x1A] CALL_SUBROUTINE(address=0x005E)
  6: 0x047D [0x06] Work_Zone[1] = 0
  7: 0x0480 [0x1A] CALL_SUBROUTINE(address=0x093B)
  8: 0x0483 [0x03] Work_Zone[1] = 1073741824*
  9: 0x0488 [0x21] END_EVENT
 10: 0x0489 [0x00] END_REQSTACK()
```
