# Event 2007

## Metadata

| Field           | Value    |
|-----------------|----------|
| Event Index     | 8/12     |
| Offset          | 0x1F38   |
| Data Size       | 54 bytes |
| Calculated Size | 54 bytes |
| Instructions    | 10       |

```
      00 01 02 03 04 05 06 07  08 09 0A 0B 0C 0D 0E 0F
      -- -- -- -- -- -- -- --  -- -- -- -- -- -- -- --
1F30:                          1A 27 22 4A 98 70 0F 01          .'"J.p..
1F40: F0 FF FF 7F 1C 00 80 2C  98 70 0F 01 98 70 0F 01  .......,.p...p..
1F50: 68 61 70 30 2B 98 70 0F  01 A8 80 23 2C 98 70 0F  hap0+.p....#,.p.
1F60: 01 98 70 0F 01 68 61 70  31 1A 98 22 21 00        ..p..hap1.."!.  
```

## Opcodes

```
  0: 0x1F38 [0x1A] CALL_SUBROUTINE(address=0x2227)
  1: 0x1F3B [0x4A] Pilgrimage Moogle (ID: 17789080/0x010F7098) looks at LocalPlayer
  2: 0x1F44 [0x1C] WAIT(60* ticks)
  3: 0x1F47 [0x2C] CREATE_SCHEDULER_TASK: Create scheduler "hap0" for entities [Pilgrimage Moogle (ID: 17789080/0x010F7098), Pilgrimage Moogle (ID: 17789080/0x010F7098)]
  4: 0x1F54 [0x2B] Pilgrimage Moogle (ID: 17789080/0x010F7098) [12261*]:
    → "Good news! My augmentation techniques have improved by leaps and bounds!\u007F1\u0000\u0007"
  5: 0x1F5B [0x23] WAIT_FOR_DIALOG_INTERACTION
  6: 0x1F5C [0x2C] CREATE_SCHEDULER_TASK: Create scheduler "hap1" for entities [Pilgrimage Moogle (ID: 17789080/0x010F7098), Pilgrimage Moogle (ID: 17789080/0x010F7098)]
  7: 0x1F69 [0x1A] CALL_SUBROUTINE(address=0x2298)
  8: 0x1F6C [0x21] END_EVENT
  9: 0x1F6D [0x00] END_REQSTACK()
```
