# Event 108

## Metadata

| Field           | Value    |
|-----------------|----------|
| Event Index     | 5/8      |
| Offset          | 0x0101   |
| Data Size       | 42 bytes |
| Calculated Size | 42 bytes |
| Instructions    | 12       |

```
      00 01 02 03 04 05 06 07  08 09 0A 0B 0C 0D 0E 0F
      -- -- -- -- -- -- -- --  -- -- -- -- -- -- -- --
0100:    03 00 00 02 10 1E F0  FF FF 7F 6F 70 66 00 80   ..........opf..
0110: F8 FF FF 7F F8 FF FF 7F  74 6C 6B 31 1D 12 80 23  ........tlk1...#
0120: 03 02 10 00 00 1D 13 80  23 21 00                 ........#!.     
```

## Opcodes

```
  0: 0x0101 [0x03] ExtData[1]->WorkLocal[0] = Work_Zone[2]
  1: 0x0106 [0x1E] EventEntity looks at LocalPlayer and starts talking
  2: 0x010B [0x6F] WAIT_FRAME_DELAY: Yield until WaitTime reaches zero
  3: 0x010C [0x70] WAIT_ENTITY_RENDER_FLAG: Wait while EventEntity->Render.Flags3 bit 2 is set (cancel turn if not)
  4: 0x010D [0x66] LOAD_EXT_SCHEDULER_MAIN(work_offset=0*, entity1=EventEntity, entity2=EventEntity, action="tlk1")
  5: 0x011C [0x1D] PRINT_EVENT_MESSAGE(message_id=12787*)
    → "Yes...\u0007This is definitely the memory of one of the Empty--and in quite excellent condition, I must say.\u007F1\u0000\u0007"
  6: 0x011F [0x23] WAIT_FOR_DIALOG_INTERACTION
  7: 0x0120 [0x03] Work_Zone[2] = ExtData[1]->WorkLocal[0]
  8: 0x0125 [0x1D] PRINT_EVENT_MESSAGE(message_id=12788*)
    → "I can synthesize it into a concentrated form of anima; however, I will require a small fee of 
\u0000 gil.\u007F1\u0000\u0007"
  9: 0x0128 [0x23] WAIT_FOR_DIALOG_INTERACTION
 10: 0x0129 [0x21] END_EVENT
 11: 0x012A [0x00] END_REQSTACK()
```
