# Event 10038

## Metadata

| Field           | Value    |
|-----------------|----------|
| Event Index     | 44/44    |
| Offset          | 0x08EF   |
| Data Size       | 43 bytes |
| Calculated Size | 43 bytes |
| Instructions    | 7        |

```
      00 01 02 03 04 05 06 07  08 09 0A 0B 0C 0D 0E 0F
      -- -- -- -- -- -- -- --  -- -- -- -- -- -- -- --
08E0:                                               42                 B
08F0: 48 8B 80 45 00 80 F0 FF  FF 7F F0 FF FF 7F 66 64  H..E..........fd
0900: 6F 31 01 80 62 38 80 F0  FF FF 7F F0 FF FF 7F 6D  o1..b8.........m
0910: 61 69 6E 01 80 1C 42 80  21 00                    ain...B.!.      
```

## Opcodes

```
  0: 0x08EF [0x42] SET_CLI_EVENT_CANCEL_DATA()
  1: 0x08F0 [0x48] [System] [8075*]:
    → "Entering \u000C\u0000[/\u0001\u001AA Stygian Pact/\u0001\u001AChampion of the Dawn/\u0001\u001ADivine Interference/\u0001\u001AMaiden of the Dusk]\u000C\u0002[/: Very Difficult/: Difficult/: Normal/: Easy/: Very Easy].\u0000\u0007"
  2: 0x08F3 [0x45] LOAD_SCHEDULED_TASK: Load scheduler "fdo1" with entities [LocalPlayer, LocalPlayer], work=[200*, 0*]
  3: 0x0904 [0x62] LOAD_EVENT_SCHEDULER: Load scheduler "main" with entities [LocalPlayer, LocalPlayer], work=[1*, 0*]
  4: 0x0915 [0x1C] WAIT(90* ticks)
  5: 0x0918 [0x21] END_EVENT
  6: 0x0919 [0x00] END_REQSTACK()
```
