# Event 65535

## Metadata

| Field           | Value    |
|-----------------|----------|
| Event Index     | 4/9      |
| Offset          | 0x0016   |
| Data Size       | 75 bytes |
| Calculated Size | 75 bytes |
| Instructions    | 7        |

```
      00 01 02 03 04 05 06 07  08 09 0A 0B 0C 0D 0E 0F
      -- -- -- -- -- -- -- --  -- -- -- -- -- -- -- --
0010:                   1C 04  80 45 05 80 F0 FF FF 7F        ...E......
0020: F0 FF FF 7F 73 65 31 32  06 80 55 05 80 F0 FF FF  ....se12..U.....
0030: 7F F0 FF FF 7F 73 65 31  32 27 10 89 50 0B 01 04  .....se12'..P...
0040: 45 05 80 F0 FF FF 7F F0  FF FF 7F 73 65 31 33 06  E..........se13.
0050: 80 55 05 80 F0 FF FF 7F  F0 FF FF 7F 73 65 31 33  .U..........se13
0060: 00                                                .               
```

## Opcodes

```
  0: 0x0016 [0x1C] WAIT(120* ticks)
  1: 0x0019 [0x45] LOAD_SCHEDULED_TASK: Load scheduler "se12" with entities [LocalPlayer, LocalPlayer], work=[216*, 0*]
  2: 0x002A [0x55] WAIT_LOAD_SCHEDULER: Wait for scheduler "se12" with entities [LocalPlayer, LocalPlayer], work=216*
  3: 0x0039 [0x27] REQ_SET(priority=0x10, entity_id=Celestial Gate (ID: 17518729/0x010B5089), tag_num=0x04)
  4: 0x0040 [0x45] LOAD_SCHEDULED_TASK: Load scheduler "se13" with entities [LocalPlayer, LocalPlayer], work=[216*, 0*]
  5: 0x0051 [0x55] WAIT_LOAD_SCHEDULER: Wait for scheduler "se13" with entities [LocalPlayer, LocalPlayer], work=216*
  6: 0x0060 [0x00] END_REQSTACK()
```
