# Event 65535

## Metadata

| Field           | Value    |
|-----------------|----------|
| Event Index     | 33/42    |
| Offset          | 0x0466   |
| Data Size       | 50 bytes |
| Calculated Size | 50 bytes |
| Instructions    | 4        |

```
      00 01 02 03 04 05 06 07  08 09 0A 0B 0C 0D 0E 0F
      -- -- -- -- -- -- -- --  -- -- -- -- -- -- -- --
0460:                   5F 03  2D 80 AB 50 12 01 AB 50        _.-..P...P
0470: 12 01 78 78 78 78 5F 03  36 80 B0 50 12 01 B0 50  ..xxxx_.6..P...P
0480: 12 01 78 78 78 78 D0 37  80 B0 50 12 01 B0 50 12  ..xxxx.7..P...P.
0490: 01 78 78 78 78 32 80 00                           .xxxx2..        
```

## Opcodes

```
  0: 0x0466 [0x5F] MULTI_HANDLER_COMPLEX(mode=0x03 - Load ext scheduler (OpCode 0x5B mode 0), ref=References[45], entity1=Unnamed NPC (ID: 17977515/0x011250AB), entity2=Unnamed NPC (ID: 17977515/0x011250AB), string="xxxx")
  1: 0x0476 [0x5F] MULTI_HANDLER_COMPLEX(mode=0x03 - Load ext scheduler (OpCode 0x5B mode 0), ref=References[54], entity1=Tenzen (ID: 17977520/0x011250B0), entity2=Tenzen (ID: 17977520/0x011250B0), string="xxxx")
  2: 0x0486 [0xD0] LOAD_SCHEDULED_TASK_ALT5(work_offset=225*, entity1=Tenzen (ID: 17977520/0x011250B0), entity2=Tenzen (ID: 17977520/0x011250B0), action="xxxx", work_offset2=0*)
  3: 0x0497 [0x00] END_REQSTACK()
```
