# Event 65535

## Metadata

| Field           | Value    |
|-----------------|----------|
| Event Index     | 35/42    |
| Offset          | 0x04C9   |
| Data Size       | 65 bytes |
| Calculated Size | 65 bytes |
| Instructions    | 5        |

```
      00 01 02 03 04 05 06 07  08 09 0A 0B 0C 0D 0E 0F
      -- -- -- -- -- -- -- --  -- -- -- -- -- -- -- --
04C0:                             5F 03 2D 80 AB 50 12           _.-..P.
04D0: 01 AB 50 12 01 78 78 78  78 5F 03 35 80 B1 50 12  ..P..xxxx_.5..P.
04E0: 01 B1 50 12 01 78 78 78  78 5F 03 3A 80 B6 50 12  ..P..xxxx_.:..P.
04F0: 01 B6 50 12 01 78 78 78  78 5F 03 39 80 AD 50 12  ..P..xxxx_.9..P.
0500: 01 AD 50 12 01 78 78 78  78 00                    ..P..xxxx.      
```

## Opcodes

```
  0: 0x04C9 [0x5F] MULTI_HANDLER_COMPLEX(mode=0x03 - Load ext scheduler (OpCode 0x5B mode 0), ref=References[45], entity1=Unnamed NPC (ID: 17977515/0x011250AB), entity2=Unnamed NPC (ID: 17977515/0x011250AB), string="xxxx")
  1: 0x04D9 [0x5F] MULTI_HANDLER_COMPLEX(mode=0x03 - Load ext scheduler (OpCode 0x5B mode 0), ref=References[53], entity1=Lion (ID: 17977521/0x011250B1), entity2=Lion (ID: 17977521/0x011250B1), string="xxxx")
  2: 0x04E9 [0x5F] MULTI_HANDLER_COMPLEX(mode=0x03 - Load ext scheduler (OpCode 0x5B mode 0), ref=References[58], entity1=Aldo (ID: 17977526/0x011250B6), entity2=Aldo (ID: 17977526/0x011250B6), string="xxxx")
  3: 0x04F9 [0x5F] MULTI_HANDLER_COMPLEX(mode=0x03 - Load ext scheduler (OpCode 0x5B mode 0), ref=References[57], entity1=Iroha (ID: 17977517/0x011250AD), entity2=Iroha (ID: 17977517/0x011250AD), string="xxxx")
  4: 0x0509 [0x00] END_REQSTACK()
```
