# Event 65535

## Metadata

| Field           | Value    |
|-----------------|----------|
| Event Index     | 45/74    |
| Offset          | 0x026A   |
| Data Size       | 43 bytes |
| Calculated Size | 43 bytes |
| Instructions    | 6        |

```
      00 01 02 03 04 05 06 07  08 09 0A 0B 0C 0D 0E 0F
      -- -- -- -- -- -- -- --  -- -- -- -- -- -- -- --
0260:                                33 01 37 26 80 27            3.7&.'
0270: 80 28 80 29 80 1C 2A 80  5B 25 80 61 62 03 01 61  .(.)..*.[%.ab..a
0280: 62 03 01 63 72 30 35 53  61 62 03 01 61 62 03 01  b..cr05Sab..ab..
0290: 63 72 30 35 00                                    cr05.           
```

## Opcodes

```
  0: 0x026A [0x33] EventEntity->Render.Flags0 |= 0x200000 // Bit 21 (flag=0x01)
  1: 0x026C [0x37] UPDATE_EVENT_POSITION_AND_DIR: x=-2.493*, z=26.001*, y=-33.999*, direction=4.0°*
  2: 0x0275 [0x1C] WAIT(3* ticks)
  3: 0x0278 [0x5B] LOAD_EXT_SCHEDULER: Load scheduler "cr05" with entities [Qultada (ID: 16999009/0x01036261), Qultada (ID: 16999009/0x01036261)], work=864*
  4: 0x0287 [0x53] WAIT_SCHEDULER_TASK: Wait for scheduler "cr05" with entities [Qultada (ID: 16999009/0x01036261), Qultada (ID: 16999009/0x01036261)]
  5: 0x0294 [0x00] END_REQSTACK()
```
