# Event 65535

## Metadata

| Field           | Value    |
|-----------------|----------|
| Event Index     | 47/74    |
| Offset          | 0x02C8   |
| Data Size       | 63 bytes |
| Calculated Size | 63 bytes |
| Instructions    | 6        |

```
      00 01 02 03 04 05 06 07  08 09 0A 0B 0C 0D 0E 0F
      -- -- -- -- -- -- -- --  -- -- -- -- -- -- -- --
02C0:                          4E 00 68 62 03 01 5B 25          N.hb..[%
02D0: 80 61 62 03 01 61 62 03  01 63 72 30 36 5B 25 80  .ab..ab..cr06[%.
02E0: 61 62 03 01 61 62 03 01  77 6F 66 30 53 61 62 03  ab..ab..wof0Sab.
02F0: 01 61 62 03 01 63 72 30  36 53 61 62 03 01 61 62  .ab..cr06Sab..ab
0300: 03 01 77 6F 66 30 00                              ..wof0.         
```

## Opcodes

```
  0: 0x02C8 [0x4E] SET_ENTITY_HIDE_FLAG: Show Qultada (ID: 16999016/0x01036268)
  1: 0x02CE [0x5B] LOAD_EXT_SCHEDULER(work_offset=864*, entity1=Qultada (ID: 16999009/0x01036261), entity2=Qultada (ID: 16999009/0x01036261), action="cr06")
  2: 0x02DD [0x5B] LOAD_EXT_SCHEDULER(work_offset=864*, entity1=Qultada (ID: 16999009/0x01036261), entity2=Qultada (ID: 16999009/0x01036261), action="wof0")
  3: 0x02EC [0x53] WAIT_SCHEDULER_TASK(entity1=Qultada (ID: 16999009/0x01036261), entity2=Qultada (ID: 16999009/0x01036261), action_id="cr06")
  4: 0x02F9 [0x53] WAIT_SCHEDULER_TASK(entity1=Qultada (ID: 16999009/0x01036261), entity2=Qultada (ID: 16999009/0x01036261), action_id="wof0")
  5: 0x0306 [0x00] END_REQSTACK()
```
