# Event 65535

## Metadata

| Field           | Value    |
|-----------------|----------|
| Event Index     | 48/74    |
| Offset          | 0x0307   |
| Data Size       | 74 bytes |
| Calculated Size | 74 bytes |
| Instructions    | 6        |

```
      00 01 02 03 04 05 06 07  08 09 0A 0B 0C 0D 0E 0F
      -- -- -- -- -- -- -- --  -- -- -- -- -- -- -- --
0300:                      5B  25 80 61 62 03 01 61 62         [%.ab..ab
0310: 03 01 63 72 30 37 9F 2E  80 61 62 03 01 61 62 03  ..cr07...ab..ab.
0320: 01 6D 61 69 6E 2F 80 5B  25 80 61 62 03 01 61 62  .main/.[%.ab..ab
0330: 03 01 77 6F 66 30 53 61  62 03 01 61 62 03 01 63  ..wof0Sab..ab..c
0340: 72 30 37 53 61 62 03 01  61 62 03 01 77 6F 66 30  r07Sab..ab..wof0
0350: 00                                                .               
```

## Opcodes

```
  0: 0x0307 [0x5B] LOAD_EXT_SCHEDULER(work_offset=864*, entity1=Qultada (ID: 16999009/0x01036261), entity2=Qultada (ID: 16999009/0x01036261), action="cr07")
  1: 0x0316 [0x9F] LOAD_SCHEDULED_TASK_ALT: Load scheduler "main" with entities [Qultada (ID: 16999009/0x01036261), Qultada (ID: 16999009/0x01036261)], work=[244*, 0*]
  2: 0x0327 [0x5B] LOAD_EXT_SCHEDULER(work_offset=864*, entity1=Qultada (ID: 16999009/0x01036261), entity2=Qultada (ID: 16999009/0x01036261), action="wof0")
  3: 0x0336 [0x53] WAIT_SCHEDULER_TASK(entity1=Qultada (ID: 16999009/0x01036261), entity2=Qultada (ID: 16999009/0x01036261), action_id="cr07")
  4: 0x0343 [0x53] WAIT_SCHEDULER_TASK(entity1=Qultada (ID: 16999009/0x01036261), entity2=Qultada (ID: 16999009/0x01036261), action_id="wof0")
  5: 0x0350 [0x00] END_REQSTACK()
```
