# Event 65535

## Metadata

| Field           | Value    |
|-----------------|----------|
| Event Index     | 4/7      |
| Offset          | 0x00B0   |
| Data Size       | 99 bytes |
| Calculated Size | 99 bytes |
| Instructions    | 10       |

```
      00 01 02 03 04 05 06 07  08 09 0A 0B 0C 0D 0E 0F
      -- -- -- -- -- -- -- --  -- -- -- -- -- -- -- --
00B0: 45 00 80 F8 FF FF 7F F8  FF FF 7F 73 30 36 33 01  E..........s063.
00C0: 80 1C 06 80 62 07 80 66  22 09 01 66 22 09 01 6D  ....b..f"..f"..m
00D0: 61 69 6E 01 80 4E 00 66  22 09 01 1C 08 80 52 00  ain..N.f".....R.
00E0: 80 F8 FF FF 7F F8 FF FF  7F 73 30 36 33 45 03 80  .........s063E..
00F0: F0 FF FF 7F F0 FF FF 7F  6F 76 6C 31 01 80 45 00  ........ovl1..E.
0100: 80 F0 FF FF 7F F0 FF FF  7F 73 30 36 38 01 80 1C  .........s068...
0110: 06 80 00                                          ...             
```

## Opcodes

```
  0: 0x00B0 [0x45] LOAD_SCHEDULED_TASK: Load scheduler "s063" with entities [EventEntity, EventEntity], work=[211*, 0*]
  1: 0x00C1 [0x1C] WAIT(60* ticks)
  2: 0x00C4 [0x62] LOAD_EVENT_SCHEDULER: Load scheduler "main" with entities [Buu Xolo the Bloodfaced (ID: 17375846/0x01092266), Buu Xolo the Bloodfaced (ID: 17375846/0x01092266)], work=[2*, 0*]
  3: 0x00D5 [0x4E] SET_ENTITY_HIDE_FLAG: Show Buu Xolo the Bloodfaced (ID: 17375846/0x01092266)
  4: 0x00DB [0x1C] WAIT(30* ticks)
  5: 0x00DE [0x52] END_LOAD_SCHEDULER: End scheduler "s063" with entities [EventEntity, EventEntity], work=211*
  6: 0x00ED [0x45] LOAD_SCHEDULED_TASK: Load scheduler "ovl1" with entities [LocalPlayer, LocalPlayer], work=[200*, 0*]
  7: 0x00FE [0x45] LOAD_SCHEDULED_TASK: Load scheduler "s068" with entities [LocalPlayer, LocalPlayer], work=[211*, 0*]
  8: 0x010F [0x1C] WAIT(60* ticks)
  9: 0x0112 [0x00] END_REQSTACK()
```
