# Event 252

## Metadata

| Field           | Value    |
|-----------------|----------|
| Event Index     | 9/24     |
| Offset          | 0x006C   |
| Data Size       | 33 bytes |
| Calculated Size | 33 bytes |
| Instructions    | 12       |

```
      00 01 02 03 04 05 06 07  08 09 0A 0B 0C 0D 0E 0F
      -- -- -- -- -- -- -- --  -- -- -- -- -- -- -- --
0060:                                      1E F0 FF FF              ....
0070: 7F 6F 70 29 08 15 20 0F  01 01 1D 04 80 23 1D 05  .op).. ......#..
0080: 80 23 29 08 15 20 0F 01  03 20 00 21 00           .#).. ... .!.   
```

## Opcodes

```
  0: 0x006C [0x1E] EventEntity looks at LocalPlayer and starts talking
  1: 0x0071 [0x6F] WAIT_FRAME_DELAY: Yield until WaitTime reaches zero
  2: 0x0072 [0x70] WAIT_ENTITY_RENDER_FLAG: Wait while EventEntity->Render.Flags3 bit 2 is set (cancel turn if not)
  3: 0x0073 [0x29] REQ_SET_WAIT(priority=0x08, entity_id=Urubero-Mohbero (ID: 17768469/0x010F2015), tag_num=0x01)
  4: 0x007A [0x1D] PRINT_EVENT_MESSAGE(message_id=562*)
    → "You vant to see zee Stah Sibyl?\u0007Try bahck in a million ears.\u007F1\u0000\u0007"
  5: 0x007D [0x23] WAIT_FOR_DIALOG_INTERACTION
  6: 0x007E [0x1D] PRINT_EVENT_MESSAGE(message_id=563*)
    → "Zee Stah Sibyl is zee reincahnate of zee Dahn Gahddess. With zee will of zee heavens, she rules zee land. You must pay her respect!\u007F1\u0000\u0007"
  7: 0x0081 [0x23] WAIT_FOR_DIALOG_INTERACTION
  8: 0x0082 [0x29] REQ_SET_WAIT(priority=0x08, entity_id=Urubero-Mohbero (ID: 17768469/0x010F2015), tag_num=0x03)
  9: 0x0089 [0x20] SET_CLI_EVENT_UC_FLAG: Unlock player control
 10: 0x008B [0x21] END_EVENT
 11: 0x008C [0x00] END_REQSTACK()
```
