# Event 60

## Metadata

| Field           | Value    |
|-----------------|----------|
| Event Index     | 75/88    |
| Offset          | 0x04FB   |
| Data Size       | 33 bytes |
| Calculated Size | 33 bytes |
| Instructions    | 12       |

```
      00 01 02 03 04 05 06 07  08 09 0A 0B 0C 0D 0E 0F
      -- -- -- -- -- -- -- --  -- -- -- -- -- -- -- --
04F0:                                   1E F0 FF FF 7F             .....
0500: 6F 70 1D 16 80 23 29 08  53 E0 0E 01 2C 1D 17 80  op...#).S...,...
0510: 23 29 08 53 E0 0E 01 2D  20 00 21 00              #).S...- .!.    
```

## Opcodes

```
  0: 0x04FB [0x1E] EventEntity looks at LocalPlayer and starts talking
  1: 0x0500 [0x6F] WAIT_FRAME_DELAY: Yield until WaitTime reaches zero
  2: 0x0501 [0x70] WAIT_ENTITY_RENDER_FLAG: Wait while EventEntity->Render.Flags3 bit 2 is set (cancel turn if not)
  3: 0x0502 [0x1D] PRINT_EVENT_MESSAGE(message_id=7403*)
    → "Munch-munch...gloomph...bellllch!\u0007That is an intriguing hat you have there!\u007F1\u0000\u0007"
  4: 0x0505 [0x23] WAIT_FOR_DIALOG_INTERACTION
  5: 0x0506 [0x29] REQ_SET_WAIT(priority=0x08, entity_id=Kyume-Romeh (ID: 17752147/0x010EE053), tag_num=0x2C)
  6: 0x050D [0x1D] PRINT_EVENT_MESSAGE(message_id=7404*)
    → "Hey, that could make a great story!\u0007Thanks, that's my scoop of the day!\u007F1\u0000\u0007"
  7: 0x0510 [0x23] WAIT_FOR_DIALOG_INTERACTION
  8: 0x0511 [0x29] REQ_SET_WAIT(priority=0x08, entity_id=Kyume-Romeh (ID: 17752147/0x010EE053), tag_num=0x2D)
  9: 0x0518 [0x20] SET_CLI_EVENT_UC_FLAG: Unlock player control
 10: 0x051A [0x21] END_EVENT
 11: 0x051B [0x00] END_REQSTACK()
```
