# Event 669

## Metadata

| Field           | Value    |
|-----------------|----------|
| Event Index     | 77/88    |
| Offset          | 0x056F   |
| Data Size       | 33 bytes |
| Calculated Size | 33 bytes |
| Instructions    | 12       |

```
      00 01 02 03 04 05 06 07  08 09 0A 0B 0C 0D 0E 0F
      -- -- -- -- -- -- -- --  -- -- -- -- -- -- -- --
0560:                                               1E                 .
0570: F0 FF FF 7F 6F 70 29 08  53 E0 0E 01 0B 1D 1C 80  ....op).S.......
0580: 23 1D 1D 80 23 29 08 53  E0 0E 01 0C 20 00 21 00  #...#).S.... .!.
```

## Opcodes

```
  0: 0x056F [0x1E] EventEntity looks at LocalPlayer and starts talking
  1: 0x0574 [0x6F] WAIT_FRAME_DELAY: Yield until WaitTime reaches zero
  2: 0x0575 [0x70] WAIT_ENTITY_RENDER_FLAG: Wait while EventEntity->Render.Flags3 bit 2 is set (cancel turn if not)
  3: 0x0576 [0x29] REQ_SET_WAIT(priority=0x08, entity_id=Kyume-Romeh (ID: 17752147/0x010EE053), tag_num=0x0B)
  4: 0x057D [0x1D] PRINT_EVENT_MESSAGE(message_id=9095*)
    → "Don't cheese me off by mentioning my editor's name while I'm enjoying fondue!\u007F1\u0000\u0007"
  5: 0x0580 [0x23] WAIT_FOR_DIALOG_INTERACTION
  6: 0x0581 [0x1D] PRINT_EVENT_MESSAGE(message_id=9096*)
    → "I've forked over my scoop to you, so take it back to him.\u0007Come on... Chop chop! Act like a whisk and beat it!\u007F1\u0000\u0007"
  7: 0x0584 [0x23] WAIT_FOR_DIALOG_INTERACTION
  8: 0x0585 [0x29] REQ_SET_WAIT(priority=0x08, entity_id=Kyume-Romeh (ID: 17752147/0x010EE053), tag_num=0x0C)
  9: 0x058C [0x20] SET_CLI_EVENT_UC_FLAG: Unlock player control
 10: 0x058E [0x21] END_EVENT
 11: 0x058F [0x00] END_REQSTACK()
```
