# Event 65535

## Metadata

| Field           | Value    |
|-----------------|----------|
| Event Index     | 6/20     |
| Offset          | 0x011E   |
| Data Size       | 59 bytes |
| Calculated Size | 59 bytes |
| Instructions    | 7        |

```
      00 01 02 03 04 05 06 07  08 09 0A 0B 0C 0D 0E 0F
      -- -- -- -- -- -- -- --  -- -- -- -- -- -- -- --
0110:                                            03 00                ..
0120: 00 07 7F 1A 16 03 07 01  00 04 80 66 01 00 F8 FF  ...........f....
0130: FF 7F F8 FF FF 7F 6B 61  6B 30 CD 0B 80 F8 FF FF  ......kak0......
0140: 7F F8 FF FF 7F 63 6F 6C  31 01 80 BA 5E 62 0B 01  .....col1...^b..
0150: 0C 80 0D 80 0E 80 0F 80  00                       .........       
```

## Opcodes

```
  0: 0x011E [0x03] ExtData[1]->WorkLocal[0] = Entity->Race
  1: 0x0123 [0x1A] CALL_SUBROUTINE(address=0x0316)
  2: 0x0126 [0x07] ExtData[1]->WorkLocal[1] += 2*
  3: 0x012B [0x66] LOAD_EXT_SCHEDULER_MAIN: Load scheduler "kak0" with entities [EventEntity, EventEntity], work=ExtData[1]->WorkLocal[1]
  4: 0x013A [0xCD] LOAD_SCHEDULED_TASK_ALT4: Load scheduler "col1" with entities [EventEntity, EventEntity], work=[35*, 0*]
  5: 0x014B [0xBA] SET_ENTITY_POSITION(entity_id=Unnamed NPC (ID: 17523294/0x010B625E), pos_x=-699.973*, pos_z=-139.225*, pos_y=-12.769*, direction=90.0°*)
  6: 0x0158 [0x00] END_REQSTACK()
```
