# Event 300

## Metadata

| Field           | Value    |
|-----------------|----------|
| Event Index     | 23/23    |
| Offset          | 0x0532   |
| Data Size       | 31 bytes |
| Calculated Size | 31 bytes |
| Instructions    | 10       |

```
      00 01 02 03 04 05 06 07  08 09 0A 0B 0C 0D 0E 0F
      -- -- -- -- -- -- -- --  -- -- -- -- -- -- -- --
0530:       20 01 24 20 80 0B  80 01 80 25 02 00 10 01     .$ .....%....
0540: 80 00 4D 05 42 03 01 10  0B 80 01 4D 05 20 00 21  ..M.B......M. .!
0550: 00                                                .               
```

## Opcodes

```
  0: 0x0532 [0x20] SET_CLI_EVENT_UC_FLAG: Lock player control
  1: 0x0534 [0x24] CREATE_DIALOG(message_id=7442*, default_option=1*, option_flags=0*)
    → "Open the door?\u0007\u000BYes.\u0007No.\u007F1\u0000\u0007"
  2: 0x053B [0x25] WAIT_DIALOG_SELECT()
  3: 0x053C [0x02] IF !(Work_Zone[0] == 0*) GOTO 0x054D
  4: 0x0544 [0x42] SET_CLI_EVENT_CANCEL_DATA()
  5: 0x0545 [0x03] Work_Zone[1] = 1*
  6: 0x054A [0x01] GOTO 0x054D

SUBROUTINE_054D:
  7: 0x054D [0x20] SET_CLI_EVENT_UC_FLAG: Unlock player control
  8: 0x054F [0x21] END_EVENT
  9: 0x0550 [0x00] END_REQSTACK()
```
