# Event 18

## Metadata

| Field           | Value    |
|-----------------|----------|
| Event Index     | 3/4      |
| Offset          | 0x02AA   |
| Data Size       | 60 bytes |
| Calculated Size | 60 bytes |
| Instructions    | 9        |

```
      00 01 02 03 04 05 06 07  08 09 0A 0B 0C 0D 0E 0F
      -- -- -- -- -- -- -- --  -- -- -- -- -- -- -- --
02A0:                                1A 40 03 1D 20 80            .@.. .
02B0: 23 45 00 80 F0 FF FF 7F  F0 FF FF 7F 66 64 6F 32  #E..........fdo2
02C0: 01 80 55 00 80 F0 FF FF  7F F0 FF FF 7F 66 64 6F  ..U..........fdo
02D0: 32 46 00 45 00 80 F0 FF  FF 7F F0 FF FF 7F 66 64  2F.E..........fd
02E0: 69 32 01 80 21 00                                 i2..!.          
```

## Opcodes

```
  0: 0x02AA [0x1A] CALL_SUBROUTINE(address=0x0340)
  1: 0x02AD [0x1D] PRINT_EVENT_MESSAGE(message_id=7382*)
    → "What do ya think you're lookin' at?\u0007You don't know nothing about what's really going on under this hellhole do ya?\u0007Compared to the sewers, my cell is a palace!\u007F1\u0000\u0007"
  2: 0x02B0 [0x23] WAIT_FOR_DIALOG_INTERACTION
  3: 0x02B1 [0x45] LOAD_SCHEDULED_TASK(work_offset1=200*, entity1=LocalPlayer, entity2=LocalPlayer, scheduler_id="fdo2", work_offset2=0*)
  4: 0x02C2 [0x55] WAIT_LOAD_SCHEDULER(work_offset=200*, entity1=LocalPlayer, entity2=LocalPlayer, scheduler_id="fdo2")
  5: 0x02D1 [0x46] CAMERA_CONTROL: Restore default settings
  6: 0x02D3 [0x45] LOAD_SCHEDULED_TASK(work_offset1=200*, entity1=LocalPlayer, entity2=LocalPlayer, scheduler_id="fdi2", work_offset2=0*)
  7: 0x02E4 [0x21] END_EVENT
  8: 0x02E5 [0x00] END_REQSTACK()
```
