# Event 65535

## Metadata

| Field           | Value    |
|-----------------|----------|
| Event Index     | 11/20    |
| Offset          | 0x00BA   |
| Data Size       | 55 bytes |
| Calculated Size | 55 bytes |
| Instructions    | 8        |

```
      00 01 02 03 04 05 06 07  08 09 0A 0B 0C 0D 0E 0F
      -- -- -- -- -- -- -- --  -- -- -- -- -- -- -- --
00B0:                                1C 0D 80 03 00 00            ......
00C0: 0E 80 02 00 00 0E 80 00  F0 00 BB 0F 80 C8 00 10  ................
00D0: 01 C8 00 10 01 6D 31 30  31 0E 80 BC 0F 80 C8 00  .....m101.......
00E0: 10 01 C8 00 10 01 6D 31  30 31 1C 10 80 01 C2 00  ......m101......
00F0: 00                                                .               
```

## Opcodes

```
  0: 0x00BA [0x1C] WAIT(180* ticks)
  1: 0x00BD [0x03] ExtData[1]->WorkLocal[0] = 0*
  2: 0x00C2 [0x02] IF !(ExtData[1]->WorkLocal[0] == 0*) GOTO 0x00F0
  3: 0x00CA [0xBB] LOAD_EVENT_SCHEDULER_ALT: Load scheduler "m101" with entities [Eamonn (ID: 17825992/0x011000C8), Eamonn (ID: 17825992/0x011000C8)], work=[60*, 0*]
  4: 0x00DB [0xBC] WAIT_LOAD_SCHEDULER_ALT2: Wait for scheduler "m101" with entities [Eamonn (ID: 17825992/0x011000C8), Eamonn (ID: 17825992/0x011000C8)], work=60*
  5: 0x00EA [0x1C] WAIT(120* ticks)
  6: 0x00ED [0x01] GOTO 0x00C2

SUBROUTINE_00F0:
  7: 0x00F0 [0x00] END_REQSTACK()
```
