# Event 65535

## Metadata

| Field           | Value    |
|-----------------|----------|
| Event Index     | 15/20    |
| Offset          | 0x0160   |
| Data Size       | 64 bytes |
| Calculated Size | 64 bytes |
| Instructions    | 14       |

```
      00 01 02 03 04 05 06 07  08 09 0A 0B 0C 0D 0E 0F
      -- -- -- -- -- -- -- --  -- -- -- -- -- -- -- --
0160: 1C 04 80 66 15 80 F8 FF  FF 7F F8 FF FF 7F 74 6C  ...f..........tl
0170: 6B 31 1C 04 80 1E 3B 00  10 01 6F 70 32 00 80 1F  k1....;...op2...
0180: 00 16 80 17 80 18 80 1F  01 1E 3B 00 10 01 6F 70  ..........;...op
0190: 66 11 80 F8 FF FF 7F F8  FF FF 7F 67 6F 6D 30 00  f..........gom0.
```

## Opcodes

```
  0: 0x0160 [0x1C] WAIT(30* ticks)
  1: 0x0163 [0x66] LOAD_EXT_SCHEDULER_MAIN: Load scheduler "tlk1" with entities [EventEntity, EventEntity], work=9*
  2: 0x0172 [0x1C] WAIT(30* ticks)
  3: 0x0175 [0x1E] EventEntity looks at Task Delegator (ID: 17825851/0x0110003B) and starts talking
  4: 0x017A [0x6F] WAIT_FRAME_DELAY: Yield until WaitTime reaches zero
  5: 0x017B [0x70] WAIT_ENTITY_RENDER_FLAG: Wait while EventEntity->Render.Flags3 bit 2 is set (cancel turn if not)
  6: 0x017C [0x32] ExtData[1]->MainSpeed = 40* * 0.1
  7: 0x017F [0x1F] MOVE_ENTITY: EventEntity moves to X=-40.369*, Z=-106.349*, Y=-0.724*
  8: 0x0187 [0x1F] MOVE_ENTITY: Update entity position (mode=1)
  9: 0x0189 [0x1E] EventEntity looks at Task Delegator (ID: 17825851/0x0110003B) and starts talking
 10: 0x018E [0x6F] WAIT_FRAME_DELAY: Yield until WaitTime reaches zero
 11: 0x018F [0x70] WAIT_ENTITY_RENDER_FLAG: Wait while EventEntity->Render.Flags3 bit 2 is set (cancel turn if not)
 12: 0x0190 [0x66] LOAD_EXT_SCHEDULER_MAIN: Load scheduler "gom0" with entities [EventEntity, EventEntity], work=1*
 13: 0x019F [0x00] END_REQSTACK()
```
