# Event 65535

## Metadata

| Field           | Value    |
|-----------------|----------|
| Event Index     | 5/6      |
| Offset          | 0x708D   |
| Data Size       | 53 bytes |
| Calculated Size | 53 bytes |
| Instructions    | 11       |

```
      00 01 02 03 04 05 06 07  08 09 0A 0B 0C 0D 0E 0F
      -- -- -- -- -- -- -- --  -- -- -- -- -- -- -- --
7080:                                         32 44 85               2D.
7090: 1F 00 98 85 99 85 01 80  1F 01 6F 1E 46 01 10 01  ..........o.F...
70A0: 6F 70 1C 2F 80 66 44 85  F8 FF FF 7F F8 FF FF 7F  op./.fD.........
70B0: 7A 69 74 30 53 F8 FF FF  7F F8 FF FF 7F 7A 69 74  zit0S........zit
70C0: 30 00                                             0.              
```

## Opcodes

```
  0: 0x708D [0x32] ExtData[1]->MainSpeed = 40* * 0.1
  1: 0x7090 [0x1F] MOVE_ENTITY: EventEntity moves to X=62.609*, Z=-67.231*, Y=0.000*
  2: 0x7098 [0x1F] MOVE_ENTITY: Update entity position (mode=1)
  3: 0x709A [0x6F] WAIT_FRAME_DELAY: Yield until WaitTime reaches zero
  4: 0x709B [0x1E] EventEntity looks at Unnamed NPC (ID: 17826118/0x01100146) and starts talking
  5: 0x70A0 [0x6F] WAIT_FRAME_DELAY: Yield until WaitTime reaches zero
  6: 0x70A1 [0x70] WAIT_ENTITY_RENDER_FLAG: Wait while EventEntity->Render.Flags3 bit 2 is set (cancel turn if not)
  7: 0x70A2 [0x1C] WAIT(60* ticks)
  8: 0x70A5 [0x66] LOAD_EXT_SCHEDULER_MAIN(work_offset=40*, entity1=EventEntity, entity2=EventEntity, action="zit0")
  9: 0x70B4 [0x53] WAIT_SCHEDULER_TASK(entity1=EventEntity, entity2=EventEntity, action_id="zit0")
 10: 0x70C1 [0x00] END_REQSTACK()
```
