# Event 65535

## Metadata

| Field           | Value    |
|-----------------|----------|
| Event Index     | 3/4      |
| Offset          | 0x0002   |
| Data Size       | 73 bytes |
| Calculated Size | 73 bytes |
| Instructions    | 17       |

```
      00 01 02 03 04 05 06 07  08 09 0A 0B 0C 0D 0E 0F
      -- -- -- -- -- -- -- --  -- -- -- -- -- -- -- --
0000:       02 20 10 00 80 00  12 00 03 00 00 01 80 01    . ............
0010: 27 00 02 20 10 02 80 04  22 00 03 00 00 03 80 01  '.. ....".......
0020: 27 00 03 00 00 04 80 B4  0A 00 00 03 21 10 00 00  '...........!...
0030: 02 21 10 05 80 02 42 00  B4 0C 21 10 1C 06 80 01  .!....B...!.....
0040: 30 00 B4 0B 05 22 10 B4  06 00 00                 0....".....     
```

## Opcodes

```
  0: 0x0002 [0x02] IF !(Work_Zone[32] == 7*) GOTO 0x0012
  1: 0x000A [0x03] ExtData[1]->WorkLocal[0] = 1200*
  2: 0x000F [0x01] GOTO 0x0027
  3: 0x0012 [0x02] IF !(Work_Zone[32] < 4*) GOTO 0x0022
  4: 0x001A [0x03] ExtData[1]->WorkLocal[0] = 900*
  5: 0x001F [0x01] GOTO 0x0027
  6: 0x0022 [0x03] ExtData[1]->WorkLocal[0] = 600*
  7: 0x0027 [0xB4] UI_WINDOW_STRING_HANDLER(case=0x0A - Open event time window, work_offset=ExtData[1]->WorkLocal[0])
  8: 0x002B [0x03] Work_Zone[33] = ExtData[1]->WorkLocal[0]
  9: 0x0030 [0x02] IF !(Work_Zone[33] <= 0*) GOTO 0x0042
 10: 0x0038 [0xB4] UI_WINDOW_STRING_HANDLER(case=0x0C - Get event time count value, work_offset=Work_Zone[33])
 11: 0x003C [0x1C] WAIT(5* ticks)
 12: 0x003F [0x01] GOTO 0x0030
 13: 0x0042 [0xB4] UI_WINDOW_STRING_HANDLER(case=0x0B - Destroy event time window)
 14: 0x0044 [0x05] Work_Zone[34] = 1
 15: 0x0047 [0xB4] UI_WINDOW_STRING_HANDLER(case=0x06 - Toggle query message flag, flag_value=0x00)
 16: 0x004A [0x00] END_REQSTACK()
```
