# 17154848 - Nicolaus

## Common Data

| Field            | Value                 |
|------------------|-----------------------|
| Zone             | Beadeaux [S] (ID: 92) |
| Block Size       | 252 bytes             |
| Total Events     | 9                     |
| References Count | 17                    |

## List of Events

| Event ID                 | Entrypoint   |   Size |   Instructions |
|--------------------------|--------------|--------|----------------|
| [65535](#event-65535)    | 0x0000       |      1 |              1 |
| [1](#event-1)            | 0x0001       |      1 |              1 |
| [65535.1](#event-655351) | 0x0002       |     19 |              5 |
| [65535.2](#event-655352) | 0x0015       |     19 |              3 |
| [65535.3](#event-655353) | 0x0028       |     14 |              3 |
| [65535.4](#event-655354) | 0x0036       |     39 |              8 |
| [65535.5](#event-655355) | 0x005D       |     17 |              5 |
| [65535.6](#event-655356) | 0x006E       |     10 |              2 |
| [65535.7](#event-655357) | 0x0078       |     10 |              2 |

## DAT References (imed_data)

|   Index | Hex Value   |   Dec Value |
|---------|-------------|-------------|
|       0 | 0x0028      |          40 |
|       1 | 0xFFFCA647  |  4294747719 |
|       2 | 0xF5BA      |       62906 |
|       3 | 0x03E7      |         999 |
|       4 | 0x0002      |           2 |
|       5 | 0x0078      |         120 |
|       6 | 0x001E      |          30 |
|       7 | 0x000D      |          13 |
|       8 | 0xFFFCB017  |  4294750231 |
|       9 | 0xF930      |       63792 |
|      10 | 0x03EA      |        1002 |
|      11 | 0x0000      |           0 |
|      12 | 0x003C      |          60 |
|      13 | 0xFFFCBA1A  |  4294752794 |
|      14 | 0xFB1B      |       64283 |
|      15 | 0x0001      |           1 |
|      16 | 0x0080      |         128 |

## Events

### Event 65535

#### Metadata

| Field        | Value   |
|--------------|---------|
| Entrypoint   | 0x0000  |
| Data Size    | 1 bytes |
| Instructions | 1       |

```
      00 01 02 03 04 05 06 07  08 09 0A 0B 0C 0D 0E 0F
      -- -- -- -- -- -- -- --  -- -- -- -- -- -- -- --
0000: 00                                                .               
```

#### Opcodes

```
  0: 0x0000 [0x00] END_REQSTACK()
```

### Event 1

#### Metadata

| Field        | Value   |
|--------------|---------|
| Entrypoint   | 0x0001  |
| Data Size    | 1 bytes |
| Instructions | 1       |

```
      00 01 02 03 04 05 06 07  08 09 0A 0B 0C 0D 0E 0F
      -- -- -- -- -- -- -- --  -- -- -- -- -- -- -- --
0000:    00                                              .              
```

#### Opcodes

```
  0: 0x0001 [0x00] END_REQSTACK()
```

### Event 65535.1

#### Metadata

| Field        | Value    |
|--------------|----------|
| Entrypoint   | 0x0002   |
| Data Size    | 19 bytes |
| Instructions | 5        |

```
      00 01 02 03 04 05 06 07  08 09 0A 0B 0C 0D 0E 0F
      -- -- -- -- -- -- -- --  -- -- -- -- -- -- -- --
0000:       32 00 80 1F 00 01  80 02 80 03 80 1F 01 1E    2.............
0010: 23 C3 05 01 00                                    #....           
```

#### Opcodes

```
  0: 0x0002 [0x32] ExtData[1]->MainSpeed = 40* * 0.1
  1: 0x0005 [0x1F] MOVE_ENTITY: EventEntity moves to X=-219.577*, Z=62.906*, Y=0.999*
  2: 0x000D [0x1F] MOVE_ENTITY: Update entity position (mode=1)
  3: 0x000F [0x1E] EventEntity looks at Rainer (ID: 17154851/0x0105C323) and starts talking
  4: 0x0014 [0x00] END_REQSTACK()
```

### Event 65535.2

#### Metadata

| Field        | Value    |
|--------------|----------|
| Entrypoint   | 0x0015   |
| Data Size    | 19 bytes |
| Instructions | 3        |

```
      00 01 02 03 04 05 06 07  08 09 0A 0B 0C 0D 0E 0F
      -- -- -- -- -- -- -- --  -- -- -- -- -- -- -- --
0010:                66 04 80  20 C3 05 01 20 C3 05 01       f.. ... ...
0020: 6B 62 61 32 1C 05 80 00                           kba2....        
```

#### Opcodes

```
  0: 0x0015 [0x66] LOAD_EXT_SCHEDULER_MAIN: Load scheduler "kba2" with entities [Nicolaus (ID: 17154848/0x0105C320), Nicolaus (ID: 17154848/0x0105C320)], work=2*
  1: 0x0024 [0x1C] WAIT(120* ticks)
  2: 0x0027 [0x00] END_REQSTACK()
```

### Event 65535.3

#### Metadata

| Field        | Value    |
|--------------|----------|
| Entrypoint   | 0x0028   |
| Data Size    | 14 bytes |
| Instructions | 3        |

```
      00 01 02 03 04 05 06 07  08 09 0A 0B 0C 0D 0E 0F
      -- -- -- -- -- -- -- --  -- -- -- -- -- -- -- --
0020:                          1C 06 80 79 00 20 C3 05          ...y. ..
0030: 01 23 C3 05 01 00                                 .#....          
```

#### Opcodes

```
  0: 0x0028 [0x1C] WAIT(30* ticks)
  1: 0x002B [0x79] Nicolaus (ID: 17154848/0x0105C320) looks at Rainer (ID: 17154851/0x0105C323) (Basic look)
  2: 0x0035 [0x00] END_REQSTACK()
```

### Event 65535.4

#### Metadata

| Field        | Value    |
|--------------|----------|
| Entrypoint   | 0x0036   |
| Data Size    | 39 bytes |
| Instructions | 8        |

```
      00 01 02 03 04 05 06 07  08 09 0A 0B 0C 0D 0E 0F
      -- -- -- -- -- -- -- --  -- -- -- -- -- -- -- --
0030:                   32 07  80 1F 00 08 80 09 80 0A        2.........
0040: 80 1F 01 6F 81 00 20 C3  05 01 66 0B 80 20 C3 05  ...o.. ...f.. ..
0050: 01 20 C3 05 01 74 68 6B  31 1C 0C 80 00           . ...thk1....   
```

#### Opcodes

```
  0: 0x0036 [0x32] ExtData[1]->MainSpeed = 13* * 0.1
  1: 0x0039 [0x1F] MOVE_ENTITY: EventEntity moves to X=-217.065*, Z=63.792*, Y=1.002*
  2: 0x0041 [0x1F] MOVE_ENTITY: Update entity position (mode=1)
  3: 0x0043 [0x6F] WAIT_FRAME_DELAY: Yield until WaitTime reaches zero
  4: 0x0044 [0x81] SET_ENTITY_BLINKING(blink_flag=0x00, entity=Nicolaus (ID: 17154848/0x0105C320))
  5: 0x004A [0x66] LOAD_EXT_SCHEDULER_MAIN: Load scheduler "thk1" with entities [Nicolaus (ID: 17154848/0x0105C320), Nicolaus (ID: 17154848/0x0105C320)], work=0*
  6: 0x0059 [0x1C] WAIT(60* ticks)
  7: 0x005C [0x00] END_REQSTACK()
```

### Event 65535.5

#### Metadata

| Field        | Value    |
|--------------|----------|
| Entrypoint   | 0x005D   |
| Data Size    | 17 bytes |
| Instructions | 5        |

```
      00 01 02 03 04 05 06 07  08 09 0A 0B 0C 0D 0E 0F
      -- -- -- -- -- -- -- --  -- -- -- -- -- -- -- --
0050:                                         32 07 80               2..
0060: 1F 00 0D 80 0E 80 0A 80  1F 01 1C 0C 80 00        ..............  
```

#### Opcodes

```
  0: 0x005D [0x32] ExtData[1]->MainSpeed = 13* * 0.1
  1: 0x0060 [0x1F] MOVE_ENTITY: EventEntity moves to X=-214.502*, Z=64.283*, Y=1.002*
  2: 0x0068 [0x1F] MOVE_ENTITY: Update entity position (mode=1)
  3: 0x006A [0x1C] WAIT(60* ticks)
  4: 0x006D [0x00] END_REQSTACK()
```

### Event 65535.6

#### Metadata

| Field        | Value    |
|--------------|----------|
| Entrypoint   | 0x006E   |
| Data Size    | 10 bytes |
| Instructions | 2        |

```
      00 01 02 03 04 05 06 07  08 09 0A 0B 0C 0D 0E 0F
      -- -- -- -- -- -- -- --  -- -- -- -- -- -- -- --
0060:                                            6C 20                l 
0070: C3 05 01 0B 80 0F 80 00                           ........        
```

#### Opcodes

```
  0: 0x006E [0x6C] FADE_ENTITY_COLOR(entity_id=Nicolaus (ID: 17154848/0x0105C320), end_alpha=0*, fade_time=1*)
  1: 0x0077 [0x00] END_REQSTACK()
```

### Event 65535.7

#### Metadata

| Field        | Value    |
|--------------|----------|
| Entrypoint   | 0x0078   |
| Data Size    | 10 bytes |
| Instructions | 2        |

```
      00 01 02 03 04 05 06 07  08 09 0A 0B 0C 0D 0E 0F
      -- -- -- -- -- -- -- --  -- -- -- -- -- -- -- --
0070:                          6C 20 C3 05 01 10 80 0F          l ......
0080: 80 00                                             ..              
```

#### Opcodes

```
  0: 0x0078 [0x6C] FADE_ENTITY_COLOR(entity_id=Nicolaus (ID: 17154848/0x0105C320), end_alpha=128*, fade_time=1*)
  1: 0x0081 [0x00] END_REQSTACK()
```
