# 17154796 - Rouquillot TK

## Common Data

| Field            | Value                 |
|------------------|-----------------------|
| Zone             | Beadeaux [S] (ID: 92) |
| Block Size       | 7796 bytes            |
| Total Events     | 5                     |
| References Count | 341                   |

## List of Events

| Event ID              | Entrypoint   |   Size |   Instructions |
|-----------------------|--------------|--------|----------------|
| [65535](#event-65535) | 0x0000       |      1 |              1 |
| [450](#event-450)     | 0x0001       |     15 |              8 |
| [454](#event-454)     | 0x0010       |      9 |              3 |
| [250](#event-250)     | 0x0019       |   6369 |           1136 |

## DAT References (imed_data)

|   Index | Hex Value   |   Dec Value |
|---------|-------------|-------------|
|       0 | 0x1BA1      |        7073 |
|       1 | 0x0000      |           0 |
|       2 | 0x1F3C      |        7996 |
|       3 | 0x003C      |          60 |
|       4 | 0x00C8      |         200 |
|       5 | 0x0013      |          19 |
|       6 | 0x0051      |          81 |
|       7 | 0x0145      |         325 |
|       8 | 0x4C1C8     |      311752 |
|       9 | 0xFFFE4A04  |  4294855172 |
|      10 | 0xFFFF8BBF  |  4294937535 |
|      11 | 0x0226      |         550 |
|      12 | 0x4C97E     |      313726 |
|      13 | 0xFFFE3E6D  |  4294852205 |
|      14 | 0xFFFF8C77  |  4294937719 |
|      15 | 0x0B04      |        2820 |
|      16 | 0x4DBA9     |      318377 |
|      17 | 0xFFFE588A  |  4294858890 |
|      18 | 0xFFFF8CC4  |  4294937796 |
|      19 | 0x061D      |        1565 |
|      20 | 0x0052      |          82 |
|      21 | 0xFA18      |       64024 |
|      22 | 0xFFFF829E  |  4294935198 |
|      23 | 0x0214      |         532 |
|      24 | 0x0236      |         566 |
|      25 | 0xF975      |       63861 |
|      26 | 0xFFFF75F4  |  4294931956 |
|      27 | 0x0176      |         374 |
|      28 | 0x0AB0      |        2736 |
|      29 | 0x10AE5     |       68325 |
|      30 | 0xFFFF7E27  |  4294934055 |
|      31 | 0x01B4      |         436 |
|      32 | 0x07C3      |        1987 |
|      33 | 0x0053      |          83 |
|      34 | 0xFFFD0503  |  4294771971 |
|      35 | 0xFFFBBA94  |  4294687380 |
|      36 | 0xFFFF63C0  |  4294927296 |
|      37 | 0x0EE8      |        3816 |
|      38 | 0xFFFD0F95  |  4294774677 |
|      39 | 0xFFFBC167  |  4294689127 |
|      40 | 0x071A      |        1818 |
|      41 | 0xFFFD15E2  |  4294776290 |
|      42 | 0xFFFBAB94  |  4294683540 |
|      43 | 0x0A6D      |        2669 |
|      44 | 0x0054      |          84 |
|      45 | 0x32C85     |      208005 |
|      46 | 0x5A01      |       23041 |
|      47 | 0x223A      |        8762 |
|      48 | 0x05BB      |        1467 |
|      49 | 0x3212A     |      205098 |
|      50 | 0x57CF      |       22479 |
|      51 | 0x228C      |        8844 |
|      52 | 0x0F23      |        3875 |
|      53 | 0x319C6     |      203206 |
|      54 | 0x69E9      |       27113 |
|      55 | 0x2096      |        8342 |
|      56 | 0x01E1      |         481 |
|      57 | 0x00AF      |         175 |
|      58 | 0x5AF7B     |      372603 |
|      59 | 0x4DC8      |       19912 |
|      60 | 0xFFFF63C1  |  4294927297 |
|      61 | 0x0F0E      |        3854 |
|      62 | 0x5B98F     |      375183 |
|      63 | 0x5611      |       22033 |
|      64 | 0x069F      |        1695 |
|      65 | 0x5C489     |      377993 |
|      66 | 0x448C      |       17548 |
|      67 | 0x09A8      |        2472 |
|      68 | 0x0058      |          88 |
|      69 | 0xFFF74400  |  4294394880 |
|      70 | 0xD6D9      |       55001 |
|      71 | 0xA001      |       40961 |
|      72 | 0x06AF      |        1711 |
|      73 | 0xFFF73813  |  4294391827 |
|      74 | 0xD113      |       53523 |
|      75 | 0xA027      |       40999 |
|      76 | 0x0F1D      |        3869 |
|      77 | 0xFFF7520F  |  4294398479 |
|      78 | 0xC165      |       49509 |
|      79 | 0x9F4A      |       40778 |
|      80 | 0x0AA0      |        2720 |
|      81 | 0x0059      |          89 |
|      82 | 0x4CA41     |      313921 |
|      83 | 0x192E2     |      103138 |
|      84 | 0xFFFF46F6  |  4294919926 |
|      85 | 0x0848      |        2120 |
|      86 | 0x4BD76     |      310646 |
|      87 | 0x198F2     |      104690 |
|      88 | 0xFFFF4595  |  4294919573 |
|      89 | 0x00EA      |         234 |
|      90 | 0x4BCCB     |      310475 |
|      91 | 0x1798E     |       96654 |
|      92 | 0xFFFF460F  |  4294919695 |
|      93 | 0x0C07      |        3079 |
|      94 | 0x005A      |          90 |
|      95 | 0x6A9CB     |      436683 |
|      96 | 0x5ED48     |      388424 |
|      97 | 0x6113      |       24851 |
|      98 | 0x07C0      |        1984 |
|      99 | 0x69C73     |      433267 |
|     100 | 0x5E948     |      387400 |
|     101 | 0x5F77      |       24439 |
|     102 | 0x0E97      |        3735 |
|     103 | 0x6972F     |      431919 |
|     104 | 0x601AC     |      393644 |
|     105 | 0x5FD6      |       24534 |
|     106 | 0x0253      |         595 |
|     107 | 0x005B      |          91 |
|     108 | 0x3F3FF     |      259071 |
|     109 | 0x31776     |      202614 |
|     110 | 0x2167      |        8551 |
|     111 | 0x03D8      |         984 |
|     112 | 0x3F84B     |      260171 |
|     113 | 0x3096F     |      199023 |
|     114 | 0x2256      |        8790 |
|     115 | 0x0A12      |        2578 |
|     116 | 0x3E01E     |      253982 |
|     117 | 0x2FEF7     |      196343 |
|     118 | 0x202C      |        8236 |
|     119 | 0x0ECB      |        3787 |
|     120 | 0x00AB      |         171 |
|     121 | 0x3581D     |      219165 |
|     122 | 0xFFFFBBA7  |  4294949799 |
|     123 | 0xFFFF8147  |  4294934855 |
|     124 | 0x0329      |         809 |
|     125 | 0x35886     |      219270 |
|     126 | 0xFFFFB11A  |  4294947098 |
|     127 | 0xFFFF8232  |  4294935090 |
|     128 | 0x0ABA      |        2746 |
|     129 | 0x36BA6     |      224166 |
|     130 | 0xFFFFAF44  |  4294946628 |
|     131 | 0xFFFF81EC  |  4294935020 |
|     132 | 0x0825      |        2085 |
|     133 | 0x005F      |          95 |
|     134 | 0xFFFFD5F0  |  4294956528 |
|     135 | 0x4B8E7     |      309479 |
|     136 | 0xFFFFCDCD  |  4294954445 |
|     137 | 0x07D6      |        2006 |
|     138 | 0xFFFFCA87  |  4294953607 |
|     139 | 0x4B0A0     |      307360 |
|     140 | 0xFFFFCD38  |  4294954296 |
|     141 | 0x0E9B      |        3739 |
|     142 | 0xFFFFC846  |  4294953030 |
|     143 | 0x4CB3F     |      314175 |
|     144 | 0xFFFFCEE8  |  4294954728 |
|     145 | 0x02B5      |         693 |
|     146 | 0x0060      |          96 |
|     147 | 0xFFFE5B9A  |  4294859674 |
|     148 | 0x00CA      |         202 |
|     149 | 0xFFFEC795  |  4294887317 |
|     150 | 0x0F86      |        3974 |
|     151 | 0xFFFE62B9  |  4294861497 |
|     152 | 0x0622      |        1570 |
|     153 | 0xFFFEC7FB  |  4294887419 |
|     154 | 0x04F3      |        1267 |
|     155 | 0xFFFE6774  |  4294862708 |
|     156 | 0xFFFFEC16  |  4294962198 |
|     157 | 0xFFFEC7F1  |  4294887409 |
|     158 | 0x0BB2      |        2994 |
|     159 | 0x0061      |          97 |
|     160 | 0xFFFB716D  |  4294668653 |
|     161 | 0x6912E     |      430382 |
|     162 | 0x4178      |       16760 |
|     163 | 0x0781      |        1921 |
|     164 | 0xFFFB6847  |  4294666311 |
|     165 | 0x6988F     |      432271 |
|     166 | 0x4333      |       17203 |
|     167 | 0x01EC      |         492 |
|     168 | 0xFFFB6A9F  |  4294666911 |
|     169 | 0x67633     |      423475 |
|     170 | 0x4345      |       17221 |
|     171 | 0x0C58      |        3160 |
|     172 | 0x0062      |          98 |
|     173 | 0xFFFF5A78  |  4294924920 |
|     174 | 0x35A85     |      219781 |
|     175 | 0x6183      |       24963 |
|     176 | 0x0034      |          52 |
|     177 | 0xFFFF6301  |  4294927105 |
|     178 | 0x3539F     |      218015 |
|     179 | 0x6104      |       24836 |
|     180 | 0x0A83      |        2691 |
|     181 | 0xFFFF7467  |  4294931559 |
|     182 | 0x36DAD     |      224685 |
|     183 | 0x6054      |       24660 |
|     184 | 0x0730      |        1840 |
|     185 | 0x00A4      |         164 |
|     186 | 0xFFFE6ACE  |  4294863566 |
|     187 | 0x2B6FD     |      177917 |
|     188 | 0xFFFFFFB2  |  4294967218 |
|     189 | 0x0C20      |        3104 |
|     190 | 0xFFFE6C68  |  4294863976 |
|     191 | 0x2C154     |      180564 |
|     192 | 0x053B      |        1339 |
|     193 | 0xFFFE5B24  |  4294859556 |
|     194 | 0x2BD87     |      179591 |
|     195 | 0x005C      |          92 |
|     196 | 0x0001      |           1 |
|     197 | 0x1F3D      |        7997 |
|     198 | 0x1F3E      |        7998 |
|     199 | 0x000F      |          15 |
|     200 | 0x0010      |          16 |
|     201 | 0x001F      |          31 |
|     202 | 0x0003      |           3 |
|     203 | 0x1F4D      |        8013 |
|     204 | 0x0005      |           5 |
|     205 | 0x1F4C      |        8012 |
|     206 | 0x1F4B      |        8011 |
|     207 | 0x1CB1      |        7345 |
|     208 | 0x1CB2      |        7346 |
|     209 | 0x0002      |           2 |
|     210 | 0x1CB3      |        7347 |
|     211 | 0x1CAE      |        7342 |
|     212 | 0x1CAF      |        7343 |
|     213 | 0x1CB0      |        7344 |
|     214 | 0x1F3F      |        7999 |
|     215 | 0x1F41      |        8001 |
|     216 | 0x1F45      |        8005 |
|     217 | 0x1F42      |        8002 |
|     218 | 0x0004      |           4 |
|     219 | 0x1F43      |        8003 |
|     220 | 0x1F46      |        8006 |
|     221 | 0x1F44      |        8004 |
|     222 | 0x0006      |           6 |
|     223 | 0x1F48      |        8008 |
|     224 | 0x0007      |           7 |
|     225 | 0x0008      |           8 |
|     226 | 0x0009      |           9 |
|     227 | 0x000A      |          10 |
|     228 | 0x1F49      |        8009 |
|     229 | 0x000B      |          11 |
|     230 | 0x000C      |          12 |
|     231 | 0x000D      |          13 |
|     232 | 0x1F47      |        8007 |
|     233 | 0x0011      |          17 |
|     234 | 0x0012      |          18 |
|     235 | 0x000E      |          14 |
|     236 | 0x1F4A      |        8010 |
|     237 | 0x0014      |          20 |
|     238 | 0x0015      |          21 |
|     239 | 0x0016      |          22 |
|     240 | 0x1F40      |        8000 |
|     241 | 0x1BAE      |        7086 |
|     242 | 0x1BAF      |        7087 |
|     243 | 0x1BB0      |        7088 |
|     244 | 0x1BB1      |        7089 |
|     245 | 0x7E9C3925  |  2124167461 |
|     246 | 0x41808A    |     4292746 |
|     247 | 0x1224650   |    19023440 |
|     248 | 0x1BB2      |        7090 |
|     249 | 0x1BB8      |        7096 |
|     250 | 0x1BE0      |        7136 |
|     251 | 0x006F      |         111 |
|     252 | 0x1BB5      |        7093 |
|     253 | 0x1BB7      |        7095 |
|     254 | 0x01E3      |         483 |
|     255 | 0x0104      |         260 |
|     256 | 0x0020      |          32 |
|     257 | 0x0019      |          25 |
|     258 | 0x001B      |          27 |
|     259 | 0x001C      |          28 |
|     260 | 0x001D      |          29 |
|     261 | 0x001E      |          30 |
|     262 | 0xFFFFFFFF  |  4294967295 |
|     263 | 0x1BD5      |        7125 |
|     264 | 0x002D      |          45 |
|     265 | 0x1BD6      |        7126 |
|     266 | 0x1017      |        4119 |
|     267 | 0x1027      |        4135 |
|     268 | 0x1056      |        4182 |
|     269 | 0x1072      |        4210 |
|     270 | 0x1509      |        5385 |
|     271 | 0x150B      |        5387 |
|     272 | 0x150D      |        5389 |
|     273 | 0x150A      |        5386 |
|     274 | 0x150C      |        5388 |
|     275 | 0x1515      |        5397 |
|     276 | 0x1512      |        5394 |
|     277 | 0x1514      |        5396 |
|     278 | 0x147E      |        5246 |
|     279 | 0x152B      |        5419 |
|     280 | 0x152E      |        5422 |
|     281 | 0x152C      |        5420 |
|     282 | 0x152D      |        5421 |
|     283 | 0x101B      |        4123 |
|     284 | 0x102B      |        4139 |
|     285 | 0x106E      |        4206 |
|     286 | 0x150F      |        5391 |
|     287 | 0x1511      |        5393 |
|     288 | 0x1510      |        5392 |
|     289 | 0x1031      |        4145 |
|     290 | 0x106A      |        4202 |
|     291 | 0x1033      |        4147 |
|     292 | 0x1068      |        4200 |
|     293 | 0x153A      |        5434 |
|     294 | 0x1513      |        5395 |
|     295 | 0x153B      |        5435 |
|     296 | 0x153F      |        5439 |
|     297 | 0x1BD7      |        7127 |
|     298 | 0x1BD8      |        7128 |
|     299 | 0x1BD9      |        7129 |
|     300 | 0x0017      |          23 |
|     301 | 0x0018      |          24 |
|     302 | 0x1BE7      |        7143 |
|     303 | 0x006D      |         109 |
|     304 | 0x1D96      |        7574 |
|     305 | 0x1D97      |        7575 |
|     306 | 0x1BE8      |        7144 |
|     307 | 0x006A      |         106 |
|     308 | 0x0032      |          50 |
|     309 | 0x111110    |     1118480 |
|     310 | 0x1D9D      |        7581 |
|     311 | 0x1D99      |        7577 |
|     312 | 0x0065      |         101 |
|     313 | 0x0066      |         102 |
|     314 | 0x0067      |         103 |
|     315 | 0x0068      |         104 |
|     316 | 0x0069      |         105 |
|     317 | 0x1BC7      |        7111 |
|     318 | 0x1BA9      |        7081 |
|     319 | 0x1BC8      |        7112 |
|     320 | 0x1BC9      |        7113 |
|     321 | 0x010A      |         266 |
|     322 | 0x1BB3      |        7091 |
|     323 | 0x1BB9      |        7097 |
|     324 | 0x1BBA      |        7098 |
|     325 | 0x1BBB      |        7099 |
|     326 | 0x1BBC      |        7100 |
|     327 | 0x1BBD      |        7101 |
|     328 | 0x1BC6      |        7110 |
|     329 | 0x1BBE      |        7102 |
|     330 | 0x1BBF      |        7103 |
|     331 | 0x1BC0      |        7104 |
|     332 | 0x1BC1      |        7105 |
|     333 | 0x1BC2      |        7106 |
|     334 | 0x1BC3      |        7107 |
|     335 | 0x1BC4      |        7108 |
|     336 | 0x1BE1      |        7137 |
|     337 | 0x1BE2      |        7138 |
|     338 | 0x1BE3      |        7139 |
|     339 | 0x1BE4      |        7140 |
|     340 | 0x1BE5      |        7141 |

## String References

- **7073**: What are you doing here? This is no place for civilians.
- **7081**: I am sorry. You do not have enough Allied Notes.
- **7086**: Greetings. I am % of the San d'Orian Provincial Knights.
- **7087**: Greetings. I am % of the Bastokan Legion.
- **7088**: Greetings. I am % of the Federation of Windurst.
- **7089**: Greetings. I am %, Campaign Arbiter for the Allied Forces.
- **7090**: What can I help you with? [Nothing./Performance assessment./New Allied Tags./Temporary items./Union registration./Teleportation./Information on the Allied Campaign.]
- **7091**: What would you like to know? [Nothing. I'm sorry./About performance assessment./About Allied Tags./About temporary items./About Unions.]
- **7093**: Understood. I shall now judge your performance and award the proper remuneration.
- **7095**: Understood. I shall prepare a new set of tags for you now.
- **7096**: You've already undergone an evaluation for this battle, or had you forgotten? As much as I'd like to, I'm forbidden from providing you with a new set of Allied Taegs until the next battle begins.
- **7097**: Anyone wearing Allied Tags while participating in a campaign battle will be judged on their overall performance.
- **7098**: Soldiers will be evaluated not only on their fighting skills, but also on how much they contribute to the efforts of their allies through means such as healing and enhancing.
- **7099**: However, beware that if you leave the area before being assessed, you will be deemed a deserter and will forfeit all rewards earned that day.
- **7100**: Also, while there are no immediate penalties for being knocked out, falling in battle will significantly lower the score given to you.
- **7101**: When you are ready to receive compensation for your work on the field, return to me and I shall assess your performance and provide you with your payment.
- **7102**: Allied Tags are a special type of identification given to all participants of Allied Campaign battles.
- **7103**: There are benefits, as well as drawbacks, to wearing the tags. One of the benefits is that in the case you are knocked out on the battlefield, you will not lose any experience points.
- **7104**: However, some of the drawbacks include the inability to improve skills and earn experience points for individual kills, as well as the right to loot fallen enemies.
- **7105**: Temporary items can be purchased in exchange for Allied Notes.
- **7106**: There are several different varieties of items, but they all have one thing in common--they can only be used on the battlefield they were issued.
- **7107**: It is highly recommended that you first survey a battle's conditions and then select the supplies that you believe will benefit you most.
- **7108**: Please remember that all temporary items you carry on your person will be confiscated in the event that you leave the area.
- **7110**: That is all.
- **7111**: I will require a teleportation fee of $0 Allied Note[/s]. I see you currently possess $2.
- **7112**: Complete transaction and return to capital? [Yes./No.]
- **7113**: Understood. Good work today, <Player>.
- **7125**: Let me show you the list of items currently available to you.
- **7126**: Select a category: [Quit./$0-Note Items./$1-Note Items./$2-Note Items.]
- **7127**: Which item would you like to see? [Quit./$0/$1/$2/$3/$4/$5/$6/$7/$8/$9/$10/$11/$12/$13/$14/$15/$16]
- **7128**: You currently possess $' Allied Note[/s].
- **7129**: Proceed with the transaction? [Yes./No.]
- **7136**: I am sorry, <Player>, but your campaign medal has expired. I cannot issue tags to anyone not authorized by the Allied Forces. Return to your nation's capital and speak with a Campaign Evaluation Official.
- **7137**: Oh ho! Keen to join a Union, are we? Very well. Listen up and I shall tell you all you need to know.
- **7138**: In order to better coordinate Allied efforts against the beastman menace, we have instituted a system of ad hoc tactical regiments called "Unions." With five units to a battlefield, union registration is open to any proven soldier in possession of Allied Tags.
- **7139**: In return for their aid in advancing the war effort, union registrants will be eligible to earn a share of the spoils of war.
- **7140**: Needless to say, the choicest rewards will be reserved for those unions which make the greatest contributions in combat. Prove your mettle on the field of battle, and you will earn glory for your union, as well as a sizable bounty of your own.
- **7141**: Be forewarned that your commitment to your union comes first and foremost. In the aftermath of battle, you will not be permitted to reap rewards from your individual exploits until your union has distributed its plunder.
- **7143**: Register for a union? [Yes./No.]
- **7144**: [Transfer/Resign] from your current union? [Yes./No.]
- **7342**: Good show on your last operation. Now go make an official report to Sir Rasdinice.
- **7343**: Good work on that last operation. Now report back to First Centurion Hieronymus before he has your hide!
- **7344**: Nice job on your last operation. Now don't forget to report back to Emhi Tchaoryo!
- **7345**: It seems that you were not successful in your last operation. But do not let one small failure hang heavy on your soul. Report to Sir Rasdinice and put this all behind you.
- **7346**: Weren't so lucky during that last operation, were you? Well, don't worry about it too much. Report to First Centurion Hieronymus and get some rest, soldier.
- **7347**: Hmmm... Didn't do so well on that last operation, did you? I know it's hard, but it's better if you're up-front about these things. If you know what's good for you, you'll hurry down and report to Emhi Tchaoryo before the major finds out first.
- **7574**: What will you do? [Nothing./Transfer to another union./Resign union membership.]
- **7575**: Your steadfast efforts have earned you a claim to share in your union's spoils of war. By [transferring to another union/resigning from your union], you will relinquish this right. It is not my place to question your decision, but I suggest you pay the matter due heed.
- **7577**: Register for which union? [None./Adder Union ($0 [member/members])./Bison Union ($1 [member/members])./Coyote Union ($2 [member/members])./Dhole Union ($3 [member/members])./Eland Union ($4 [member/members]).]
- **7581**: I am afraid that all unions are currently at their maximum enrollment, and unable to accept new recruits. For better or for worse, though, I suspect it shall not be long before we are in need of some new blood. Such is the nature of war...
- **7996**: Ahhh, so you're military tactician who who drew up the plans for this latest supply mission. Why don't we ask one of the men how its going, shall we?

## Events

### Event 65535

#### Metadata

| Field        | Value   |
|--------------|---------|
| Entrypoint   | 0x0000  |
| Data Size    | 1 bytes |
| Instructions | 1       |

```
      00 01 02 03 04 05 06 07  08 09 0A 0B 0C 0D 0E 0F
      -- -- -- -- -- -- -- --  -- -- -- -- -- -- -- --
0000: 00                                                .               
```

#### Opcodes

```
  0: 0x0000 [0x00] END_REQSTACK()
```

### Event 450

#### Metadata

| Field        | Value    |
|--------------|----------|
| Entrypoint   | 0x0001   |
| Data Size    | 15 bytes |
| Instructions | 8        |

```
      00 01 02 03 04 05 06 07  08 09 0A 0B 0C 0D 0E 0F
      -- -- -- -- -- -- -- --  -- -- -- -- -- -- -- --
0000:    20 01 1E F0 FF FF 7F  6F 70 1D 00 80 23 21 00    ......op...#!.
```

#### Opcodes

```
  0: 0x0001 [0x20] SET_CLI_EVENT_UC_FLAG: Lock player control
  1: 0x0003 [0x1E] EventEntity looks at LocalPlayer and starts talking
  2: 0x0008 [0x6F] WAIT_FRAME_DELAY: Yield until WaitTime reaches zero
  3: 0x0009 [0x70] WAIT_ENTITY_RENDER_FLAG: Wait while EventEntity->Render.Flags3 bit 2 is set (cancel turn if not)
  4: 0x000A [0x1D] PRINT_EVENT_MESSAGE(message_id=7073*)
    → "What are you doing here? This is no place for civilians."
  5: 0x000D [0x23] WAIT_FOR_DIALOG_INTERACTION
  6: 0x000E [0x21] END_EVENT
  7: 0x000F [0x00] END_REQSTACK()
```

### Event 454

#### Metadata

| Field        | Value   |
|--------------|---------|
| Entrypoint   | 0x0010  |
| Data Size    | 9 bytes |
| Instructions | 3       |

```
      00 01 02 03 04 05 06 07  08 09 0A 0B 0C 0D 0E 0F
      -- -- -- -- -- -- -- --  -- -- -- -- -- -- -- --
0010: 03 0E 00 01 80 1A D9 08  00                       .........       
```

#### Opcodes

```
  0: 0x0010 [0x03] ExtData[1]->WorkLocal[14] = 0*
  1: 0x0015 [0x1A] CALL_SUBROUTINE(address=0x08D9)
  2: 0x0018 [0x00] END_REQSTACK()
```

### Event 250

#### Metadata

| Field        | Value      |
|--------------|------------|
| Entrypoint   | 0x0019     |
| Data Size    | 6369 bytes |
| Instructions | 342        |

```
      00 01 02 03 04 05 06 07  08 09 0A 0B 0C 0D 0E 0F
      -- -- -- -- -- -- -- --  -- -- -- -- -- -- -- --
0010:                             03 00 00 01 80 20 01           ..... .
0020: 42 1E F0 FF FF 7F 6F 70  03 03 00 03 10 03 04 00  B.....op........
0030: 04 10 03 05 00 05 10 03  0C 00 09 10 1D 02 80 23  ...............#
0040: 1C 03 80 45 04 80 F0 FF  FF 7F F0 FF FF 7F 66 64  ...E..........fd
0050: 6F 31 01 80 55 04 80 F0  FF FF 7F F0 FF FF 7F 66  o1..U..........f
0060: 64 6F 31 46 01 38 05 80  4E 00 F8 FF FF 7F 92 01  do1F.8..N.......
0070: F0 FF FF 7F 92 01 F8 FF  FF 7F 92 01 0B C3 05 01  ................
0080: 02 0C 00 06 80 80 C3 00  45 07 80 F0 FF FF 7F F0  ........E.......
0090: FF FF 7F 7A 38 31 62 01  80 BA F8 FF FF 7F 08 80  ...z81b.........
00A0: 09 80 0A 80 0B 80 BA F0  FF FF 7F 0C 80 0D 80 0E  ................
00B0: 80 0F 80 BA 0B C3 05 01  10 80 11 80 12 80 13 80  ................
00C0: 01 6D 04 02 0C 00 14 80  80 06 01 45 07 80 F0 FF  .m.........E....
00D0: FF 7F F0 FF FF 7F 7A 38  32 62 01 80 BA F8 FF FF  ......z82b......
00E0: 7F 15 80 16 80 17 80 18  80 BA F0 FF FF 7F 19 80  ................
00F0: 1A 80 1B 80 1C 80 BA 0B  C3 05 01 1D 80 1E 80 1F  ................
0100: 80 20 80 01 6D 04 02 0C  00 21 80 80 49 01 45 07  . ..m....!..I.E.
0110: 80 F0 FF FF 7F F0 FF FF  7F 7A 38 33 62 01 80 BA  .........z83b...
0120: F8 FF FF 7F 22 80 23 80  24 80 25 80 BA F0 FF FF  ....".#.$.%.....
0130: 7F 26 80 27 80 24 80 28  80 BA 0B C3 05 01 29 80  .&.'.$.(......).
0140: 2A 80 24 80 2B 80 01 6D  04 02 0C 00 2C 80 80 8C  *.$.+..m....,...
0150: 01 45 07 80 F0 FF FF 7F  F0 FF FF 7F 7A 38 34 62  .E..........z84b
0160: 01 80 BA F8 FF FF 7F 2D  80 2E 80 2F 80 30 80 BA  .......-.../.0..
0170: F0 FF FF 7F 31 80 32 80  33 80 34 80 BA 0B C3 05  ....1.2.3.4.....
0180: 01 35 80 36 80 37 80 38  80 01 6D 04 02 0C 00 39  .5.6.7.8..m....9
0190: 80 80 CF 01 45 07 80 F0  FF FF 7F F0 FF FF 7F 31  ....E..........1
01A0: 37 35 61 01 80 BA F8 FF  FF 7F 3A 80 3B 80 3C 80  75a.......:.;.<.
01B0: 3D 80 BA F0 FF FF 7F 3E  80 3F 80 3C 80 40 80 BA  =......>.?.<.@..
01C0: 0B C3 05 01 41 80 42 80  3C 80 43 80 01 6D 04 02  ....A.B.<.C..m..
01D0: 0C 00 44 80 80 12 02 45  07 80 F0 FF FF 7F F0 FF  ..D....E........
01E0: FF 7F 7A 38 38 62 01 80  BA F8 FF FF 7F 45 80 46  ..z88b.......E.F
01F0: 80 47 80 48 80 BA F0 FF  FF 7F 49 80 4A 80 4B 80  .G.H......I.J.K.
0200: 4C 80 BA 0B C3 05 01 4D  80 4E 80 4F 80 50 80 01  L......M.N.O.P..
0210: 6D 04 02 0C 00 51 80 80  55 02 45 07 80 F0 FF FF  m....Q..U.E.....
0220: 7F F0 FF FF 7F 7A 38 39  62 01 80 BA F8 FF FF 7F  .....z89b.......
0230: 52 80 53 80 54 80 55 80  BA F0 FF FF 7F 56 80 57  R.S.T.U......V.W
0240: 80 58 80 59 80 BA 0B C3  05 01 5A 80 5B 80 5C 80  .X.Y......Z.[.\.
0250: 5D 80 01 6D 04 02 0C 00  5E 80 80 98 02 45 07 80  ]..m....^....E..
0260: F0 FF FF 7F F0 FF FF 7F  7A 39 30 62 01 80 BA F8  ........z90b....
0270: FF FF 7F 5F 80 60 80 61  80 62 80 BA F0 FF FF 7F  ..._.`.a.b......
0280: 63 80 64 80 65 80 66 80  BA 0B C3 05 01 67 80 68  c.d.e.f......g.h
0290: 80 69 80 6A 80 01 6D 04  02 0C 00 6B 80 80 DB 02  .i.j..m....k....
02A0: 45 07 80 F0 FF FF 7F F0  FF FF 7F 7A 39 31 62 01  E..........z91b.
02B0: 80 BA F8 FF FF 7F 6C 80  6D 80 6E 80 6F 80 BA F0  ......l.m.n.o...
02C0: FF FF 7F 70 80 71 80 72  80 73 80 BA 0B C3 05 01  ...p.q.r.s......
02D0: 74 80 75 80 76 80 77 80  01 6D 04 02 0C 00 78 80  t.u.v.w..m....x.
02E0: 80 1E 03 45 07 80 F0 FF  FF 7F F0 FF FF 7F 31 37  ...E..........17
02F0: 31 61 01 80 BA F8 FF FF  7F 79 80 7A 80 7B 80 7C  1a.......y.z.{.|
0300: 80 BA F0 FF FF 7F 7D 80  7E 80 7F 80 80 80 BA 0B  ......}.~.......
0310: C3 05 01 81 80 82 80 83  80 84 80 01 6D 04 02 0C  ............m...
0320: 00 85 80 80 61 03 45 07  80 F0 FF FF 7F F0 FF FF  ....a.E.........
0330: 7F 7A 39 35 62 01 80 BA  F8 FF FF 7F 86 80 87 80  .z95b...........
0340: 88 80 89 80 BA F0 FF FF  7F 8A 80 8B 80 8C 80 8D  ................
0350: 80 BA 0B C3 05 01 8E 80  8F 80 90 80 91 80 01 6D  ...............m
0360: 04 02 0C 00 92 80 80 A4  03 45 07 80 F0 FF FF 7F  .........E......
0370: F0 FF FF 7F 7A 39 36 62  01 80 BA F8 FF FF 7F 93  ....z96b........
0380: 80 94 80 95 80 96 80 BA  F0 FF FF 7F 97 80 98 80  ................
0390: 99 80 9A 80 BA 0B C3 05  01 9B 80 9C 80 9D 80 9E  ................
03A0: 80 01 6D 04 02 0C 00 9F  80 80 E7 03 45 07 80 F0  ..m.........E...
03B0: FF FF 7F F0 FF FF 7F 7A  39 37 62 01 80 BA F8 FF  .......z97b.....
03C0: FF 7F A0 80 A1 80 A2 80  A3 80 BA F0 FF FF 7F A4  ................
03D0: 80 A5 80 A6 80 A7 80 BA  0B C3 05 01 A8 80 A9 80  ................
03E0: AA 80 AB 80 01 6D 04 02  0C 00 AC 80 80 2A 04 45  .....m.......*.E
03F0: 07 80 F0 FF FF 7F F0 FF  FF 7F 7A 39 38 62 01 80  ..........z98b..
0400: BA F8 FF FF 7F AD 80 AE  80 AF 80 B0 80 BA F0 FF  ................
0410: FF 7F B1 80 B2 80 B3 80  B4 80 BA 0B C3 05 01 B5  ................
0420: 80 B6 80 B7 80 B8 80 01  6D 04 02 0C 00 B9 80 80  ........m.......
0430: 6D 04 45 07 80 F0 FF FF  7F F0 FF FF 7F 31 36 34  m.E..........164
0440: 61 01 80 BA F8 FF FF 7F  BA 80 BB 80 BC 80 BD 80  a...............
0450: BA F0 FF FF 7F BE 80 BF  80 BC 80 C0 80 BA 0B C3  ................
0460: 05 01 C1 80 C2 80 BC 80  C3 80 01 6D 04 94 01 F0  ...........m....
0470: FF FF 7F 94 01 F8 FF FF  7F 94 01 0B C3 05 01 80  ................
0480: F0 FF FF 7F 80 F8 FF FF  7F 80 0B C3 05 01 1C C4  ................
0490: 80 1E F0 FF FF 7F 4A F0  FF FF 7F F8 FF FF 7F 45  ......J........E
04A0: 04 80 F0 FF FF 7F F0 FF  FF 7F 66 64 69 31 01 80  ..........fdi1..
04B0: 55 04 80 F0 FF FF 7F F0  FF FF 7F 66 64 69 31 1E  U..........fdi1.
04C0: 0B C3 05 01 4A F0 FF FF  7F 0B C3 05 01 29 10 0B  ....J........)..
04D0: C3 05 01 04 2B 0B C3 05  01 C5 80 23 2B 0B C3 05  ....+......#+...
04E0: 01 C6 80 23 41 01 80 C7  80 03 00 01 00 41 C8 80  ...#A........A..
04F0: C9 80 03 00 02 00 02 01  00 01 80 01 01 05 1A 32  ...............2
0500: 06 02 02 00 01 80 01 26  05 41 01 80 C7 80 04 00  .......&.A......
0510: 01 00 41 C8 80 C9 80 04  00 02 00 02 01 00 01 80  ..A.............
0520: 01 26 05 1A 32 06 02 02  00 01 80 01 4B 05 41 01  .&..2.......K.A.
0530: 80 C7 80 05 00 01 00 41  C8 80 C9 80 05 00 02 00  .......A........
0540: 02 01 00 01 80 01 4B 05  1A 32 06 02 02 00 01 80  ......K..2......
0550: 01 81 05 02 02 00 CA 80  03 66 05 2B 0B C3 05 01  .........f.+....
0560: CB 80 23 01 81 05 02 02  00 CC 80 03 79 05 2B 0B  ..#.........y.+.
0570: C3 05 01 CD 80 23 01 81  05 2B 0B C3 05 01 CE 80  .....#...+......
0580: 23 1E F0 FF FF 7F 6F 70  02 02 00 01 80 00 C0 05  #.....op........
0590: 02 00 00 01 80 80 9F 05  1D CF 80 23 01 BD 05 02  ...........#....
05A0: 00 00 C4 80 80 AE 05 1D  D0 80 23 01 BD 05 02 00  ..........#.....
05B0: 00 D1 80 80 BD 05 1D D2  80 23 01 BD 05 01 ED 05  .........#......
05C0: 02 00 00 01 80 80 CF 05  1D D3 80 23 01 ED 05 02  ...........#....
05D0: 00 00 C4 80 80 DE 05 1D  D4 80 23 01 ED 05 02 00  ..........#.....
05E0: 00 D1 80 80 ED 05 1D D5  80 23 01 ED 05 45 04 80  .........#...E..
05F0: F0 FF FF 7F F0 FF FF 7F  66 64 6F 31 01 80 55 04  ........fdo1..U.
0600: 80 F0 FF FF 7F F0 FF FF  7F 66 64 6F 31 4E 01 0B  .........fdo1N..
0610: C3 05 01 1C C7 80 46 00  45 04 80 F0 FF FF 7F F0  ......F.E.......
0620: FF FF 7F 66 64 69 32 01  80 03 01 10 01 80 20 00  ...fdi2....... .
0630: 21 00 02 01 00 C4 80 80  45 06 2B 0B C3 05 01 D6  !.......E.+.....
0640: 80 23 01 D8 08 02 01 00  D1 80 80 65 06 03 02 10  .#.........e....
0650: 01 80 2B 0B C3 05 01 D7  80 23 2B 0B C3 05 01 D8  ..+......#+.....
0660: 80 23 01 D8 08 02 01 00  CA 80 80 85 06 03 02 10  .#..............
0670: 01 80 2B 0B C3 05 01 D9  80 23 2B 0B C3 05 01 D8  ..+......#+.....
0680: 80 23 01 D8 08 02 01 00  DA 80 80 A5 06 03 02 10  .#..............
0690: 01 80 2B 0B C3 05 01 DB  80 23 2B 0B C3 05 01 DC  ..+......#+.....
06A0: 80 23 01 D8 08 02 01 00  CC 80 80 C5 06 03 02 10  .#..............
06B0: 01 80 2B 0B C3 05 01 DD  80 23 2B 0B C3 05 01 D8  ..+......#+.....
06C0: 80 23 01 D8 08 02 01 00  DE 80 80 E5 06 03 02 10  .#..............
06D0: C4 80 2B 0B C3 05 01 D7  80 23 2B 0B C3 05 01 DF  ..+......#+.....
06E0: 80 23 01 D8 08 02 01 00  E0 80 80 05 07 03 02 10  .#..............
06F0: C4 80 2B 0B C3 05 01 D9  80 23 2B 0B C3 05 01 DF  ..+......#+.....
0700: 80 23 01 D8 08 02 01 00  E1 80 80 25 07 03 02 10  .#.........%....
0710: C4 80 2B 0B C3 05 01 DB  80 23 2B 0B C3 05 01 DF  ..+......#+.....
0720: 80 23 01 D8 08 02 01 00  E2 80 80 45 07 03 02 10  .#.........E....
0730: C4 80 2B 0B C3 05 01 DD  80 23 2B 0B C3 05 01 DF  ..+......#+.....
0740: 80 23 01 D8 08 02 01 00  E3 80 80 65 07 03 02 10  .#.........e....
0750: C4 80 2B 0B C3 05 01 D7  80 23 2B 0B C3 05 01 E4  ..+......#+.....
0760: 80 23 01 D8 08 02 01 00  E5 80 80 85 07 03 02 10  .#..............
0770: C4 80 2B 0B C3 05 01 D9  80 23 2B 0B C3 05 01 E4  ..+......#+.....
0780: 80 23 01 D8 08 02 01 00  E6 80 80 A5 07 03 02 10  .#..............
0790: C4 80 2B 0B C3 05 01 DB  80 23 2B 0B C3 05 01 E4  ..+......#+.....
07A0: 80 23 01 D8 08 02 01 00  E7 80 80 C5 07 03 02 10  .#..............
07B0: C4 80 2B 0B C3 05 01 DD  80 23 2B 0B C3 05 01 E4  ..+......#+.....
07C0: 80 23 01 D8 08 02 01 00  C8 80 80 E5 07 03 02 10  .#..............
07D0: 01 80 2B 0B C3 05 01 D7  80 23 2B 0B C3 05 01 E8  ..+......#+.....
07E0: 80 23 01 D8 08 02 01 00  E9 80 80 05 08 03 02 10  .#..............
07F0: 01 80 2B 0B C3 05 01 D9  80 23 2B 0B C3 05 01 E8  ..+......#+.....
0800: 80 23 01 D8 08 02 01 00  EA 80 80 25 08 03 02 10  .#.........%....
0810: 01 80 2B 0B C3 05 01 DB  80 23 2B 0B C3 05 01 E8  ..+......#+.....
0820: 80 23 01 D8 08 02 01 00  EB 80 80 45 08 03 02 10  .#.........E....
0830: 01 80 2B 0B C3 05 01 DD  80 23 2B 0B C3 05 01 E8  ..+......#+.....
0840: 80 23 01 D8 08 02 01 00  05 80 80 65 08 03 02 10  .#.........e....
0850: C4 80 2B 0B C3 05 01 D7  80 23 2B 0B C3 05 01 EC  ..+......#+.....
0860: 80 23 01 D8 08 02 01 00  ED 80 80 85 08 03 02 10  .#..............
0870: C4 80 2B 0B C3 05 01 D9  80 23 2B 0B C3 05 01 EC  ..+......#+.....
0880: 80 23 01 D8 08 02 01 00  EE 80 80 A5 08 03 02 10  .#..............
0890: C4 80 2B 0B C3 05 01 DB  80 23 2B 0B C3 05 01 EC  ..+......#+.....
08A0: 80 23 01 D8 08 02 01 00  C7 80 80 C5 08 03 02 10  .#..............
08B0: C4 80 2B 0B C3 05 01 DD  80 23 2B 0B C3 05 01 EC  ..+......#+.....
08C0: 80 23 01 D8 08 02 01 00  EF 80 80 D8 08 2B 0B C3  .#...........+..
08D0: 05 01 F0 80 23 01 D8 08  1B 03 16 00 04 10 20 01  ....#......... .
08E0: 1E F0 FF FF 7F 6F 70 02  0E 00 01 80 80 F9 08 1D  .....op.........
08F0: F1 80 23 01 2F 09 01 2F  09 02 0E 00 C4 80 80 0B  ..#./../........
0900: 09 1D F2 80 23 01 2F 09  01 2F 09 02 0E 00 D1 80  ....#./../......
0910: 80 1D 09 1D F3 80 23 01  2F 09 01 2F 09 02 0E 00  ......#./../....
0920: DA 80 80 2F 09 1D F4 80  23 01 2F 09 01 2F 09 03  .../....#./../..
0930: 0F 00 01 80 3E 03 10 01  80 3E 09 01 45 09 3C 0F  ....>....>..E.<.
0940: 00 CA 80 C4 80 3E 03 10  D1 80 4F 09 01 5D 09 3C  .....>....O..].<
0950: 0F 00 D1 80 C4 80 3C 0F  00 CA 80 C4 80 3E 03 10  ......<......>..
0960: CA 80 6C 09 03 12 00 C4  80 01 71 09 03 12 00 01  ..l.......q.....
0970: 80 3E 03 10 DA 80 82 09  3C 0F 00 D1 80 C4 80 01  .>......<.......
0980: 97 09 3C 0F 00 C4 80 C4  80 3C 0F 00 CA 80 C4 80  ..<......<......
0990: 3C 0F 00 DA 80 C4 80 3E  03 10 CC 80 A5 09 3C 0F  <......>......<.
09A0: 00 CC 80 C4 80 3E 03 10  DE 80 B2 09 05 18 00 01  .....>..........
09B0: B5 09 06 18 00 41 01 80  C7 80 07 10 11 00 41 C8  .....A........A.
09C0: 80 C9 80 07 10 10 00 02  10 00 01 80 00 D6 09 3C  ...............<
09D0: 0F 00 CA 80 C4 80 03 13  00 01 80 0E 13 00 F5 80  ................
09E0: 0E 13 00 F6 80 0E 13 00  F7 80 03 14 00 01 80 0E  ................
09F0: 14 00 01 80 0E 14 00 01  80 0E 14 00 01 80 02 08  ................
0A00: 10 13 00 00 15 0A 02 09  10 14 00 00 15 0A 3C 0F  ..............<.
0A10: 00 CA 80 C4 80 24 F8 80  01 80 0F 00 25 02 00 10  .....$......%...
0A20: 01 80 00 28 0A 01 C0 0A  02 00 10 C4 80 00 36 0A  ...(..........6.
0A30: 1A C5 0A 01 C0 0A 02 00  10 D1 80 00 62 0A 02 12  ............b...
0A40: 00 01 80 00 5B 0A 02 18  00 01 80 00 54 0A 1A D0  ....[.......T...
0A50: 0A 01 58 0A 1D F9 80 23  01 5F 0A 1D FA 80 23 01  ..X....#._....#.
0A60: C0 0A 02 00 10 CA 80 00  7F 0A 02 12 00 01 80 00  ................
0A70: 78 0A 1A E9 0A 01 7C 0A  1D FA 80 23 01 C0 0A 02  x.....|....#....
0A80: 00 10 DA 80 00 A4 0A 03  01 10 FB 80 43 00 43 01  ............C.C.
0A90: 02 04 10 01 80 00 9E 0A  1A 6D 15 01 A1 0A 01 C3  .........m......
0AA0: 0A 01 C0 0A 02 00 10 CC  80 00 B2 0A 1A 93 17 01  ................
0AB0: C0 0A 02 00 10 DE 80 00  C0 0A 1A 54 18 01 C0 0A  ...........T....
0AC0: 01 C3 0A 21 1B 42 1D FC  80 23 03 01 10 CC 80 1B  ...!.B...#......
0AD0: 42 1D FD 80 23 73 FE 80  F8 FF FF 7F F0 FF FF 7F  B...#s..........
0AE0: 1C FF 80 03 01 10 CA 80  1B 03 21 00 01 80 03 1D  ..........!.....
0AF0: 00 01 80 03 19 00 01 80  03 1A 00 01 80 03 1B 00  ................
0B00: 01 80 03 1C 00 01 80 03  24 00 01 80 03 22 00 01  ........$...."..
0B10: 80 03 26 00 F5 80 02 24  00 00 81 03 2D 0C 3E 26  ..&....$....-.>&
0B20: 00 24 00 27 0C 03 17 00  01 80 02 24 00 E5 80 04  .$.'.......$....
0B30: 4B 0B 02 24 00 EA 80 03  4B 0B 03 17 00 C4 80 3E  K..$....K......>
0B40: 05 10 01 80 4B 0B 03 17  00 01 80 02 24 00 EA 80  ....K.......$...
0B50: 04 6C 0B 02 24 00 01 81  03 6C 0B 03 17 00 C4 80  .l..$....l......
0B60: 3E 05 10 C4 80 6C 0B 03  17 00 01 80 02 24 00 01  >....l.......$..
0B70: 81 04 8D 0B 02 24 00 02  81 03 8D 0B 03 17 00 C4  .....$..........
0B80: 80 3E 05 10 D1 80 8D 0B  03 17 00 01 80 02 24 00  .>............$.
0B90: 02 81 04 AE 0B 02 24 00  03 81 03 AE 0B 03 17 00  ......$.........
0BA0: C4 80 3E 05 10 CA 80 AE  0B 03 17 00 01 80 02 24  ..>............$
0BB0: 00 03 81 04 CF 0B 02 24  00 04 81 03 CF 0B 03 17  .......$........
0BC0: 00 C4 80 3E 05 10 DA 80  CF 0B 03 17 00 01 80 02  ...>............
0BD0: 24 00 04 81 04 F0 0B 02  24 00 05 81 03 F0 0B 03  $.......$.......
0BE0: 17 00 C4 80 3E 05 10 CC  80 F0 0B 03 17 00 01 80  ....>...........
0BF0: 02 24 00 05 81 04 09 0C  03 17 00 C4 80 3E 05 10  .$...........>..
0C00: DE 80 09 0C 03 17 00 01  80 3E 08 10 24 00 15 0C  .........>..$...
0C10: 03 17 00 C4 80 02 17 00  01 80 00 24 0C 3C 1A 00  ...........$.<..
0C20: 22 00 C4 80 0B 22 00 0B  24 00 01 16 0B 03 24 00  "...."..$.....$.
0C30: 01 80 03 26 00 01 80 02  24 00 00 81 03 58 0D 3E  ...&....$....X.>
0C40: 26 00 24 00 52 0D 03 17  00 01 80 03 25 00 24 00  &.$.R.......%.$.
0C50: 07 25 00 00 81 02 25 00  E5 80 04 76 0C 02 25 00  .%....%....v..%.
0C60: EA 80 03 76 0C 03 17 00  C4 80 3E 05 10 01 80 76  ...v......>....v
0C70: 0C 03 17 00 01 80 02 25  00 EA 80 04 97 0C 02 25  .......%.......%
0C80: 00 01 81 03 97 0C 03 17  00 C4 80 3E 05 10 C4 80  ...........>....
0C90: 97 0C 03 17 00 01 80 02  25 00 01 81 04 B8 0C 02  ........%.......
0CA0: 25 00 02 81 03 B8 0C 03  17 00 C4 80 3E 05 10 D1  %...........>...
0CB0: 80 B8 0C 03 17 00 01 80  02 25 00 02 81 04 D9 0C  .........%......
0CC0: 02 25 00 03 81 03 D9 0C  03 17 00 C4 80 3E 05 10  .%...........>..
0CD0: CA 80 D9 0C 03 17 00 01  80 02 25 00 03 81 04 FA  ..........%.....
0CE0: 0C 02 25 00 04 81 03 FA  0C 03 17 00 C4 80 3E 05  ..%...........>.
0CF0: 10 DA 80 FA 0C 03 17 00  01 80 02 25 00 04 81 04  ...........%....
0D00: 1B 0D 02 25 00 05 81 03  1B 0D 03 17 00 C4 80 3E  ...%...........>
0D10: 05 10 CC 80 1B 0D 03 17  00 01 80 02 25 00 05 81  ............%...
0D20: 04 34 0D 03 17 00 C4 80  3E 05 10 DE 80 34 0D 03  .4......>....4..
0D30: 17 00 01 80 3E 09 10 24  00 40 0D 03 17 00 C4 80  ....>..$.@......
0D40: 02 17 00 01 80 00 4F 0D  3C 1A 00 22 00 C4 80 0B  ......O.<.."....
0D50: 22 00 0B 24 00 01 37 0C  0F 1A 00 06 81 10 1A 00  "..$..7.........
0D60: C4 80 3D 1A 00 01 80 C4  80 03 24 00 01 80 03 22  ..=.......$...."
0D70: 00 01 80 03 26 00 F6 80  02 24 00 00 81 03 8F 0E  ....&....$......
0D80: 3E 26 00 24 00 89 0E 03  17 00 01 80 02 24 00 E5  >&.$.........$..
0D90: 80 04 AD 0D 02 24 00 EA  80 03 AD 0D 03 17 00 C4  .....$..........
0DA0: 80 3E 05 10 01 80 AD 0D  03 17 00 01 80 02 24 00  .>............$.
0DB0: EA 80 04 CE 0D 02 24 00  01 81 03 CE 0D 03 17 00  ......$.........
0DC0: C4 80 3E 05 10 C4 80 CE  0D 03 17 00 01 80 02 24  ..>............$
0DD0: 00 01 81 04 EF 0D 02 24  00 02 81 03 EF 0D 03 17  .......$........
0DE0: 00 C4 80 3E 05 10 D1 80  EF 0D 03 17 00 01 80 02  ...>............
0DF0: 24 00 02 81 04 10 0E 02  24 00 03 81 03 10 0E 03  $.......$.......
0E00: 17 00 C4 80 3E 05 10 CA  80 10 0E 03 17 00 01 80  ....>...........
0E10: 02 24 00 03 81 04 31 0E  02 24 00 04 81 03 31 0E  .$....1..$....1.
0E20: 03 17 00 C4 80 3E 05 10  DA 80 31 0E 03 17 00 01  .....>....1.....
0E30: 80 02 24 00 04 81 04 52  0E 02 24 00 05 81 03 52  ..$....R..$....R
0E40: 0E 03 17 00 C4 80 3E 05  10 CC 80 52 0E 03 17 00  ......>....R....
0E50: 01 80 02 24 00 05 81 04  6B 0E 03 17 00 C4 80 3E  ...$....k......>
0E60: 05 10 DE 80 6B 0E 03 17  00 01 80 3E 08 10 24 00  ....k......>..$.
0E70: 77 0E 03 17 00 C4 80 02  17 00 01 80 00 86 0E 3C  w..............<
0E80: 1B 00 22 00 C4 80 0B 22  00 0B 24 00 01 78 0D 03  .."...."..$..x..
0E90: 24 00 01 80 03 26 00 01  80 02 24 00 00 81 03 BA  $....&....$.....
0EA0: 0F 3E 26 00 24 00 B4 0F  03 17 00 01 80 03 25 00  .>&.$.........%.
0EB0: 24 00 07 25 00 00 81 02  25 00 E5 80 04 D8 0E 02  $..%....%.......
0EC0: 25 00 EA 80 03 D8 0E 03  17 00 C4 80 3E 05 10 01  %...........>...
0ED0: 80 D8 0E 03 17 00 01 80  02 25 00 EA 80 04 F9 0E  .........%......
0EE0: 02 25 00 01 81 03 F9 0E  03 17 00 C4 80 3E 05 10  .%...........>..
0EF0: C4 80 F9 0E 03 17 00 01  80 02 25 00 01 81 04 1A  ..........%.....
0F00: 0F 02 25 00 02 81 03 1A  0F 03 17 00 C4 80 3E 05  ..%...........>.
0F10: 10 D1 80 1A 0F 03 17 00  01 80 02 25 00 02 81 04  ...........%....
0F20: 3B 0F 02 25 00 03 81 03  3B 0F 03 17 00 C4 80 3E  ;..%....;......>
0F30: 05 10 CA 80 3B 0F 03 17  00 01 80 02 25 00 03 81  ....;.......%...
0F40: 04 5C 0F 02 25 00 04 81  03 5C 0F 03 17 00 C4 80  .\..%....\......
0F50: 3E 05 10 DA 80 5C 0F 03  17 00 01 80 02 25 00 04  >....\.......%..
0F60: 81 04 7D 0F 02 25 00 05  81 03 7D 0F 03 17 00 C4  ..}..%....}.....
0F70: 80 3E 05 10 CC 80 7D 0F  03 17 00 01 80 02 25 00  .>....}.......%.
0F80: 05 81 04 96 0F 03 17 00  C4 80 3E 05 10 DE 80 96  ..........>.....
0F90: 0F 03 17 00 01 80 3E 09  10 24 00 A2 0F 03 17 00  ......>..$......
0FA0: C4 80 02 17 00 01 80 00  B1 0F 3C 1B 00 22 00 C4  ..........<.."..
0FB0: 80 0B 22 00 0B 24 00 01  99 0E 0F 1B 00 06 81 10  .."..$..........
0FC0: 1B 00 C4 80 3D 1B 00 01  80 C4 80 03 24 00 01 80  ....=.......$...
0FD0: 03 22 00 01 80 03 26 00  F7 80 02 24 00 00 81 03  ."....&....$....
0FE0: F1 10 3E 26 00 24 00 EB  10 03 17 00 01 80 02 24  ..>&.$.........$
0FF0: 00 E5 80 04 0F 10 02 24  00 EA 80 03 0F 10 03 17  .......$........
1000: 00 C4 80 3E 05 10 01 80  0F 10 03 17 00 01 80 02  ...>............
1010: 24 00 EA 80 04 30 10 02  24 00 01 81 03 30 10 03  $....0..$....0..
1020: 17 00 C4 80 3E 05 10 C4  80 30 10 03 17 00 01 80  ....>....0......
1030: 02 24 00 01 81 04 51 10  02 24 00 02 81 03 51 10  .$....Q..$....Q.
1040: 03 17 00 C4 80 3E 05 10  D1 80 51 10 03 17 00 01  .....>....Q.....
1050: 80 02 24 00 02 81 04 72  10 02 24 00 03 81 03 72  ..$....r..$....r
1060: 10 03 17 00 C4 80 3E 05  10 CA 80 72 10 03 17 00  ......>....r....
1070: 01 80 02 24 00 03 81 04  93 10 02 24 00 04 81 03  ...$.......$....
1080: 93 10 03 17 00 C4 80 3E  05 10 DA 80 93 10 03 17  .......>........
1090: 00 01 80 02 24 00 04 81  04 B4 10 02 24 00 05 81  ....$.......$...
10A0: 03 B4 10 03 17 00 C4 80  3E 05 10 CC 80 B4 10 03  ........>.......
10B0: 17 00 01 80 02 24 00 05  81 04 CD 10 03 17 00 C4  .....$..........
10C0: 80 3E 05 10 DE 80 CD 10  03 17 00 01 80 3E 08 10  .>...........>..
10D0: 24 00 D9 10 03 17 00 C4  80 02 17 00 01 80 00 E8  $...............
10E0: 10 3C 1C 00 22 00 C4 80  0B 22 00 0B 24 00 01 DA  .<.."...."..$...
10F0: 0F 03 24 00 01 80 03 26  00 01 80 02 24 00 00 81  ..$....&....$...
1100: 03 1C 12 3E 26 00 24 00  16 12 03 17 00 01 80 03  ...>&.$.........
1110: 25 00 24 00 07 25 00 00  81 02 25 00 E5 80 04 3A  %.$..%....%....:
1120: 11 02 25 00 EA 80 03 3A  11 03 17 00 C4 80 3E 05  ..%....:......>.
1130: 10 01 80 3A 11 03 17 00  01 80 02 25 00 EA 80 04  ...:.......%....
1140: 5B 11 02 25 00 01 81 03  5B 11 03 17 00 C4 80 3E  [..%....[......>
1150: 05 10 C4 80 5B 11 03 17  00 01 80 02 25 00 01 81  ....[.......%...
1160: 04 7C 11 02 25 00 02 81  03 7C 11 03 17 00 C4 80  .|..%....|......
1170: 3E 05 10 D1 80 7C 11 03  17 00 01 80 02 25 00 02  >....|.......%..
1180: 81 04 9D 11 02 25 00 03  81 03 9D 11 03 17 00 C4  .....%..........
1190: 80 3E 05 10 CA 80 9D 11  03 17 00 01 80 02 25 00  .>............%.
11A0: 03 81 04 BE 11 02 25 00  04 81 03 BE 11 03 17 00  ......%.........
11B0: C4 80 3E 05 10 DA 80 BE  11 03 17 00 01 80 02 25  ..>............%
11C0: 00 04 81 04 DF 11 02 25  00 05 81 03 DF 11 03 17  .......%........
11D0: 00 C4 80 3E 05 10 CC 80  DF 11 03 17 00 01 80 02  ...>............
11E0: 25 00 05 81 04 F8 11 03  17 00 C4 80 3E 05 10 DE  %...........>...
11F0: 80 F8 11 03 17 00 01 80  3E 09 10 24 00 04 12 03  ........>..$....
1200: 17 00 C4 80 02 17 00 01  80 00 13 12 3C 1C 00 22  ............<.."
1210: 00 C4 80 0B 22 00 0B 24  00 01 FB 10 0F 1C 00 06  ...."..$........
1220: 81 10 1C 00 C4 80 3D 1C  00 01 80 C4 80 1D 07 81  ......=.........
1230: 23 05 1E 00 03 21 00 01  80 03 1D 00 06 81 03 17  #....!..........
1240: 00 01 80 0C 11 00 15 11  00 DA 80 0B 11 00 02 17  ................
1250: 00 11 00 05 63 12 3D 1D  00 17 00 C4 80 0B 17 00  ....c.=.........
1260: 01 4E 12 02 1E 00 01 80  01 6C 15 03 02 10 05 81  .N.......l......
1270: 03 03 10 08 81 03 04 10  03 80 24 09 81 01 80 1D  ..........$.....
1280: 00 25 02 00 10 01 80 00  90 12 06 1E 00 01 BF 13  .%..............
1290: 02 00 10 C4 80 00 F5 12  03 19 00 1A 00 03 02 10  ................
12A0: 0A 81 03 03 10 0B 81 03  04 10 0C 81 03 05 10 0D  ................
12B0: 81 03 06 10 0E 81 03 07  10 0F 81 03 08 10 10 81  ................
12C0: 03 09 10 11 81 03 00 17  12 81 03 01 17 13 81 03  ................
12D0: 02 17 14 81 03 03 17 15  81 03 04 17 16 81 03 05  ................
12E0: 17 17 81 03 06 17 18 81  03 07 17 19 81 03 08 17  ................
12F0: 1A 81 01 BF 13 02 00 10  D1 80 00 5A 13 03 19 00  ...........Z....
1300: 1B 00 03 02 10 1B 81 03  03 10 1C 81 03 04 10 1D  ................
1310: 81 03 05 10 1E 81 03 06  10 1F 81 03 07 10 20 81  .............. .
1320: 03 08 10 01 80 03 09 10  01 80 03 00 17 01 80 03  ................
1330: 01 17 01 80 03 02 17 01  80 03 03 17 01 80 03 04  ................
1340: 17 01 80 03 05 17 01 80  03 06 17 01 80 03 07 17  ................
1350: 01 80 03 08 17 01 80 01  BF 13 02 00 10 CA 80 00  ................
1360: BF 13 03 19 00 1C 00 03  02 10 21 81 03 03 10 22  ..........!...."
1370: 81 03 04 10 23 81 03 05  10 24 81 03 06 10 25 81  ....#....$....%.
1380: 03 07 10 26 81 03 08 10  27 81 03 09 10 28 81 03  ...&....'....(..
1390: 00 17 01 80 03 01 17 01  80 03 02 17 01 80 03 03  ................
13A0: 17 01 80 03 04 17 01 80  03 05 17 01 80 03 06 17  ................
13B0: 01 80 03 07 17 01 80 03  08 17 01 80 01 BF 13 02  ................
13C0: 00 10 01 80 01 69 15 40  E1 80 C7 80 21 00 00 10  .....i.@....!...
13D0: 05 1F 00 02 1F 00 01 80  01 69 15 24 29 81 01 80  .........i.$)...
13E0: 19 00 25 02 00 10 01 80  00 FA 13 06 1F 00 40 E1  ..%...........@.
13F0: 80 C7 80 21 00 01 80 01  0A 15 02 00 10 C4 80 00  ...!............
1400: 0A 14 03 15 00 02 10 01  0A 15 02 00 10 D1 80 00  ................
1410: 1A 14 03 15 00 03 10 01  0A 15 02 00 10 CA 80 00  ................
1420: 2A 14 03 15 00 04 10 01  0A 15 02 00 10 DA 80 00  *...............
1430: 3A 14 03 15 00 05 10 01  0A 15 02 00 10 CC 80 00  :...............
1440: 4A 14 03 15 00 06 10 01  0A 15 02 00 10 DE 80 00  J...............
1450: 5A 14 03 15 00 07 10 01  0A 15 02 00 10 E0 80 00  Z...............
1460: 6A 14 03 15 00 08 10 01  0A 15 02 00 10 E1 80 00  j...............
1470: 7A 14 03 15 00 09 10 01  0A 15 02 00 10 E2 80 00  z...............
1480: 8A 14 03 15 00 00 17 01  0A 15 02 00 10 E3 80 00  ................
1490: 9A 14 03 15 00 01 17 01  0A 15 02 00 10 E5 80 00  ................
14A0: AA 14 03 15 00 02 17 01  0A 15 02 00 10 E6 80 00  ................
14B0: BA 14 03 15 00 03 17 01  0A 15 02 00 10 E7 80 00  ................
14C0: CA 14 03 15 00 04 17 01  0A 15 02 00 10 EB 80 00  ................
14D0: DA 14 03 15 00 05 17 01  0A 15 02 00 10 C7 80 00  ................
14E0: EA 14 03 15 00 06 17 01  0A 15 02 00 10 C8 80 00  ................
14F0: FA 14 03 15 00 07 17 01  0A 15 02 00 10 E9 80 00  ................
1500: 0A 15 03 15 00 08 17 01  0A 15 02 00 10 01 80 01  ................
1510: 66 15 40 C8 80 C9 80 21  00 00 10 93 15 00 03 1F  f.@....!........
1520: 17 16 00 1D 2A 81 23 93  01 80 24 2B 81 C4 80 01  ....*.#...$+....
1530: 80 25 02 00 10 01 80 00  52 15 42 06 1E 00 06 1F  .%......R.B.....
1540: 00 40 01 80 E0 80 21 00  DA 80 03 01 10 21 00 01  .@....!......!..
1550: 66 15 02 00 10 C4 80 00  66 15 40 C8 80 C9 80 21  f.......f.@....!
1560: 00 01 80 01 66 15 01 D3  13 01 63 12 1B 41 01 80  ....f.....c..A..
1570: 01 80 02 10 27 00 41 C4  80 D1 80 02 10 28 00 41  ....'.A......(.A
1580: CA 80 CC 80 02 10 29 00  41 DE 80 DE 80 02 10 2A  ......).A......*
1590: 00 41 01 80 CC 80 03 10  2B 00 41 DE 80 E5 80 03  .A......+.A.....
15A0: 10 2C 00 41 E6 80 E9 80  03 10 2D 00 41 EA 80 2C  .,.A......-.A..,
15B0: 81 03 10 2E 00 41 2D 81  04 81 03 10 2F 00 20 01  .....A-...../. .
15C0: 1C 03 80 03 30 00 01 80  02 27 00 01 80 00 FB 15  ....0....'......
15D0: 24 2E 81 C4 80 01 80 25  02 00 10 01 80 00 E8 15  $......%........
15E0: 03 30 00 C4 80 01 F8 15  02 00 10 C4 80 00 F8 15  .0..............
15F0: 03 01 10 2F 81 01 F8 15  01 A5 16 24 30 81 01 80  .../.......$0...
1600: 01 80 25 02 00 10 01 80  00 13 16 03 01 10 2F 81  ..%.........../.
1610: 01 A5 16 02 00 10 C4 80  00 5C 16 02 2A 00 C4 80  .........\..*...
1620: 00 2C 16 03 02 10 01 80  1D 31 81 23 03 02 10 01  .,.......1.#....
1630: 80 24 32 81 C4 80 01 80  25 02 00 10 01 80 00 49  .$2.....%......I
1640: 16 03 30 00 C4 80 01 59  16 02 00 10 C4 80 00 59  ..0....Y.......Y
1650: 16 03 01 10 2F 81 01 59  16 01 A5 16 02 00 10 D1  ..../..Y........
1660: 80 00 A5 16 02 2A 00 C4  80 00 75 16 03 02 10 C4  .....*....u.....
1670: 80 1D 31 81 23 03 02 10  C4 80 24 32 81 C4 80 01  ..1.#.....$2....
1680: 80 25 02 00 10 01 80 00  92 16 03 01 10 33 81 01  .%...........3..
1690: A2 16 02 00 10 C4 80 00  A2 16 03 01 10 2F 81 01  ............./..
16A0: A2 16 01 A5 16 02 30 00  C4 80 00 92 17 03 31 00  ......0.......1.
16B0: 01 80 03 02 10 2B 00 03  03 10 2C 00 03 04 10 2D  .....+....,....-
16C0: 00 03 05 10 2E 00 03 06  10 2F 00 02 2B 00 34 81  ........./..+.4.
16D0: 04 DA 16 3C 31 00 C4 80  C4 80 02 2C 00 34 81 04  ...<1......,.4..
16E0: E9 16 3C 31 00 D1 80 C4  80 02 2D 00 34 81 04 F8  ..<1......-.4...
16F0: 16 3C 31 00 CA 80 C4 80  02 2E 00 34 81 04 07 17  .<1........4....
1700: 3C 31 00 DA 80 C4 80 02  2F 00 34 81 04 16 17 3C  <1....../.4....<
1710: 31 00 CC 80 C4 80 02 31  00 35 81 00 2A 17 1D 36  1......1.5..*..6
1720: 81 23 03 01 10 2F 81 01  92 17 24 37 81 01 80 31  .#.../....$7...1
1730: 00 25 02 00 10 01 80 00  42 17 03 01 10 2F 81 01  .%......B..../..
1740: 92 17 02 00 10 C4 80 00  52 17 03 01 10 38 81 01  ........R....8..
1750: 92 17 02 00 10 D1 80 00  62 17 03 01 10 39 81 01  ........b....9..
1760: 92 17 02 00 10 CA 80 00  72 17 03 01 10 3A 81 01  ........r....:..
1770: 92 17 02 00 10 DA 80 00  82 17 03 01 10 3B 81 01  .............;..
1780: 92 17 02 00 10 CC 80 00  92 17 03 01 10 3C 81 01  .............<..
1790: 92 17 1B 42 3E 03 10 01  80 BC 17 02 04 10 E3 80  ...B>...........
17A0: 03 B4 17 03 02 10 E3 80  1D 3D 81 23 48 3E 81 23  .........=.#H>.#
17B0: 1B 01 B9 17 03 02 10 E3  80 01 03 18 02 0E 00 DA  ................
17C0: 80 00 E5 17 02 04 10 34  81 03 DD 17 03 02 10 34  .......4.......4
17D0: 81 1D 3D 81 23 48 3E 81  23 1B 01 E2 17 03 02 10  ..=.#H>.#.......
17E0: 34 81 01 03 18 02 04 10  05 81 03 FE 17 03 02 10  4...............
17F0: 05 81 1D 3D 81 23 48 3E  81 23 1B 01 03 18 03 02  ...=.#H>.#......
1800: 10 05 81 1D 3D 81 23 24  3F 81 C4 80 01 80 25 02  ....=.#$?.....%.
1810: 00 10 01 80 00 48 18 03  01 10 C4 80 43 00 43 01  .....H......C.C.
1820: 1D 40 81 73 41 81 F8 FF  FF 7F F0 FF FF 7F 1C FF  .@.sA...........
1830: 80 45 04 80 F0 FF FF 7F  F0 FF FF 7F 66 64 6F 31  .E..........fdo1
1840: 01 80 1C 03 80 01 53 18  02 00 10 C4 80 00 53 18  ......S.......S.
1850: 01 53 18 1B 42 03 0F 00  01 80 24 42 81 01 80 0F  .S..B.....$B....
1860: 00 25 02 00 10 01 80 00  6E 18 1B 01 FA 18 02 00  .%......n.......
1870: 10 C4 80 00 94 18 1D 43  81 23 1D 44 81 23 1D 45  .......C.#.D.#.E
1880: 81 23 1D 46 81 23 1D 47  81 23 1D 48 81 23 01 54  .#.F.#.G.#.H.#.T
1890: 18 01 FA 18 02 00 10 D1  80 00 B2 18 1D 49 81 23  .............I.#
18A0: 1D 4A 81 23 1D 4B 81 23  1D 48 81 23 01 54 18 01  .J.#.K.#.H.#.T..
18B0: FA 18 02 00 10 CA 80 00  D4 18 1D 4C 81 23 1D 4D  ...........L.#.M
18C0: 81 23 1D 4E 81 23 1D 4F  81 23 1D 48 81 23 01 54  .#.N.#.O.#.H.#.T
18D0: 18 01 FA 18 02 00 10 DA  80 00 FA 18 1D 50 81 23  .............P.#
18E0: 1D 51 81 23 1D 52 81 23  1D 53 81 23 1D 54 81 23  .Q.#.R.#.S.#.T.#
18F0: 1D 48 81 23 01 54 18 01  FA 18                    .H.#.T....      
```

#### Opcodes

```
  0: 0x0019 [0x03] ExtData[1]->WorkLocal[0] = 0*
  1: 0x001E [0x20] SET_CLI_EVENT_UC_FLAG: Lock player control
  2: 0x0020 [0x42] SET_CLI_EVENT_CANCEL_DATA()
  3: 0x0021 [0x1E] EventEntity looks at LocalPlayer and starts talking
  4: 0x0026 [0x6F] WAIT_FRAME_DELAY: Yield until WaitTime reaches zero
  5: 0x0027 [0x70] WAIT_ENTITY_RENDER_FLAG: Wait while EventEntity->Render.Flags3 bit 2 is set (cancel turn if not)
  6: 0x0028 [0x03] ExtData[1]->WorkLocal[3] = Work_Zone[3]
  7: 0x002D [0x03] ExtData[1]->WorkLocal[4] = Work_Zone[4]
  8: 0x0032 [0x03] ExtData[1]->WorkLocal[5] = Work_Zone[5]
  9: 0x0037 [0x03] ExtData[1]->WorkLocal[12] = Work_Zone[9]
 10: 0x003C [0x1D] PRINT_EVENT_MESSAGE(message_id=7996*)
    → "Ahhh, so you're military tactician who who drew up the plans for this latest supply mission. Why don't we ask one of the men how its going, shall we?"
 11: 0x003F [0x23] WAIT_FOR_DIALOG_INTERACTION
 12: 0x0040 [0x1C] WAIT(60* ticks)
 13: 0x0043 [0x45] LOAD_SCHEDULED_TASK: Load scheduler "fdo1" with entities [LocalPlayer, LocalPlayer], work=[200*, 0*]
 14: 0x0054 [0x55] WAIT_LOAD_SCHEDULER: Wait for scheduler "fdo1" with entities [LocalPlayer, LocalPlayer], work=200*
 15: 0x0063 [0x46] CAMERA_CONTROL: Disable user control
 16: 0x0065 [0x38] SET_CLIENT_EVENT_MODE(mode=19*)
 17: 0x0068 [0x4E] SET_ENTITY_HIDE_FLAG: Show EventEntity
 18: 0x006E [0x92] LocalPlayer->Render.Flags3 ^= 0x01
 19: 0x0074 [0x92] EventEntity->Render.Flags3 ^= 0x01
 20: 0x007A [0x92] Allied Commissary (ID: 17154827/0x0105C30B)->Render.Flags3 ^= 0x01
 21: 0x0080 [0x02] IF !(ExtData[1]->WorkLocal[12] == 81*) GOTO 0x00C3
 22: 0x0088 [0x45] LOAD_SCHEDULED_TASK: Load scheduler "z81b" with entities [LocalPlayer, LocalPlayer], work=[325*, 0*]
 23: 0x0099 [0xBA] SET_ENTITY_POSITION(entity_id=EventEntity, pos_x=311.752*, pos_z=-112.124*, pos_y=-29.761*, direction=48.3°*)
 24: 0x00A6 [0xBA] SET_ENTITY_POSITION(entity_id=LocalPlayer, pos_x=313.726*, pos_z=-115.091*, pos_y=-29.577*, direction=247.8°*)
 25: 0x00B3 [0xBA] SET_ENTITY_POSITION(entity_id=Allied Commissary (ID: 17154827/0x0105C30B), pos_x=318.377*, pos_z=-108.406*, pos_y=-29.500*, direction=137.5°*)
 26: 0x00C0 [0x01] GOTO 0x046D
 27: 0x00C3 [0x02] IF !(ExtData[1]->WorkLocal[12] == 82*) GOTO 0x0106
 28: 0x00CB [0x45] LOAD_SCHEDULED_TASK: Load scheduler "z82b" with entities [LocalPlayer, LocalPlayer], work=[325*, 0*]
 29: 0x00DC [0xBA] SET_ENTITY_POSITION(entity_id=EventEntity, pos_x=64.024*, pos_z=-32.098*, pos_y=0.532*, direction=49.7°*)
 30: 0x00E9 [0xBA] SET_ENTITY_POSITION(entity_id=LocalPlayer, pos_x=63.861*, pos_z=-35.340*, pos_y=0.374*, direction=240.5°*)
 31: 0x00F6 [0xBA] SET_ENTITY_POSITION(entity_id=Allied Commissary (ID: 17154827/0x0105C30B), pos_x=68.325*, pos_z=-33.241*, pos_y=0.436*, direction=174.6°*)
 32: 0x0103 [0x01] GOTO 0x046D
 33: 0x0106 [0x02] IF !(ExtData[1]->WorkLocal[12] == 83*) GOTO 0x0149
 34: 0x010E [0x45] LOAD_SCHEDULED_TASK: Load scheduler "z83b" with entities [LocalPlayer, LocalPlayer], work=[325*, 0*]
 35: 0x011F [0xBA] SET_ENTITY_POSITION(entity_id=EventEntity, pos_x=-195.325*, pos_z=-279.916*, pos_y=-40.000*, direction=335.4°*)
 36: 0x012C [0xBA] SET_ENTITY_POSITION(entity_id=LocalPlayer, pos_x=-192.619*, pos_z=-278.169*, pos_y=-40.000*, direction=159.8°*)
 37: 0x0139 [0xBA] SET_ENTITY_POSITION(entity_id=Allied Commissary (ID: 17154827/0x0105C30B), pos_x=-191.006*, pos_z=-283.756*, pos_y=-40.000*, direction=234.6°*)
 38: 0x0146 [0x01] GOTO 0x046D
 39: 0x0149 [0x02] IF !(ExtData[1]->WorkLocal[12] == 84*) GOTO 0x018C
 40: 0x0151 [0x45] LOAD_SCHEDULED_TASK: Load scheduler "z84b" with entities [LocalPlayer, LocalPlayer], work=[325*, 0*]
 41: 0x0162 [0xBA] SET_ENTITY_POSITION(entity_id=EventEntity, pos_x=208.005*, pos_z=23.041*, pos_y=8.762*, direction=128.9°*)
 42: 0x016F [0xBA] SET_ENTITY_POSITION(entity_id=LocalPlayer, pos_x=205.098*, pos_z=22.479*, pos_y=8.844*, direction=340.6°*)
 43: 0x017C [0xBA] SET_ENTITY_POSITION(entity_id=Allied Commissary (ID: 17154827/0x0105C30B), pos_x=203.206*, pos_z=27.113*, pos_y=8.342*, direction=42.3°*)
 44: 0x0189 [0x01] GOTO 0x046D
 45: 0x018C [0x02] IF !(ExtData[1]->WorkLocal[12] == 175*) GOTO 0x01CF
 46: 0x0194 [0x45] LOAD_SCHEDULED_TASK: Load scheduler "175a" with entities [LocalPlayer, LocalPlayer], work=[325*, 0*]
 47: 0x01A5 [0xBA] SET_ENTITY_POSITION(entity_id=EventEntity, pos_x=372.603*, pos_z=19.912*, pos_y=-39.999*, direction=338.7°*)
 48: 0x01B2 [0xBA] SET_ENTITY_POSITION(entity_id=LocalPlayer, pos_x=375.183*, pos_z=22.033*, pos_y=-39.999*, direction=149.0°*)
 49: 0x01BF [0xBA] SET_ENTITY_POSITION(entity_id=Allied Commissary (ID: 17154827/0x0105C30B), pos_x=377.993*, pos_z=17.548*, pos_y=-39.999*, direction=217.3°*)
 50: 0x01CC [0x01] GOTO 0x046D
 51: 0x01CF [0x02] IF !(ExtData[1]->WorkLocal[12] == 88*) GOTO 0x0212
 52: 0x01D7 [0x45] LOAD_SCHEDULED_TASK: Load scheduler "z88b" with entities [LocalPlayer, LocalPlayer], work=[325*, 0*]
 53: 0x01E8 [0xBA] SET_ENTITY_POSITION(entity_id=EventEntity, pos_x=-572.416*, pos_z=55.001*, pos_y=40.961*, direction=150.4°*)
 54: 0x01F5 [0xBA] SET_ENTITY_POSITION(entity_id=LocalPlayer, pos_x=-575.469*, pos_z=53.523*, pos_y=40.999*, direction=340.0°*)
 55: 0x0202 [0xBA] SET_ENTITY_POSITION(entity_id=Allied Commissary (ID: 17154827/0x0105C30B), pos_x=-568.817*, pos_z=49.509*, pos_y=40.778*, direction=239.1°*)
 56: 0x020F [0x01] GOTO 0x046D
 57: 0x0212 [0x02] IF !(ExtData[1]->WorkLocal[12] == 89*) GOTO 0x0255
 58: 0x021A [0x45] LOAD_SCHEDULED_TASK: Load scheduler "z89b" with entities [LocalPlayer, LocalPlayer], work=[325*, 0*]
 59: 0x022B [0xBA] SET_ENTITY_POSITION(entity_id=EventEntity, pos_x=313.921*, pos_z=103.138*, pos_y=-47.370*, direction=186.3°*)
 60: 0x0238 [0xBA] SET_ENTITY_POSITION(entity_id=LocalPlayer, pos_x=310.646*, pos_z=104.690*, pos_y=-47.723*, direction=20.6°*)
 61: 0x0245 [0xBA] SET_ENTITY_POSITION(entity_id=Allied Commissary (ID: 17154827/0x0105C30B), pos_x=310.475*, pos_z=96.654*, pos_y=-47.601*, direction=270.6°*)
 62: 0x0252 [0x01] GOTO 0x046D
 63: 0x0255 [0x02] IF !(ExtData[1]->WorkLocal[12] == 90*) GOTO 0x0298
 64: 0x025D [0x45] LOAD_SCHEDULED_TASK: Load scheduler "z90b" with entities [LocalPlayer, LocalPlayer], work=[325*, 0*]
 65: 0x026E [0xBA] SET_ENTITY_POSITION(entity_id=EventEntity, pos_x=436.683*, pos_z=388.424*, pos_y=24.851*, direction=174.4°*)
 66: 0x027B [0xBA] SET_ENTITY_POSITION(entity_id=LocalPlayer, pos_x=433.267*, pos_z=387.400*, pos_y=24.439*, direction=328.3°*)
 67: 0x0288 [0xBA] SET_ENTITY_POSITION(entity_id=Allied Commissary (ID: 17154827/0x0105C30B), pos_x=431.919*, pos_z=393.644*, pos_y=24.534*, direction=52.3°*)
 68: 0x0295 [0x01] GOTO 0x046D
 69: 0x0298 [0x02] IF !(ExtData[1]->WorkLocal[12] == 91*) GOTO 0x02DB
 70: 0x02A0 [0x45] LOAD_SCHEDULED_TASK: Load scheduler "z91b" with entities [LocalPlayer, LocalPlayer], work=[325*, 0*]
 71: 0x02B1 [0xBA] SET_ENTITY_POSITION(entity_id=EventEntity, pos_x=259.071*, pos_z=202.614*, pos_y=8.551*, direction=86.5°*)
 72: 0x02BE [0xBA] SET_ENTITY_POSITION(entity_id=LocalPlayer, pos_x=260.171*, pos_z=199.023*, pos_y=8.790*, direction=226.6°*)
 73: 0x02CB [0xBA] SET_ENTITY_POSITION(entity_id=Allied Commissary (ID: 17154827/0x0105C30B), pos_x=253.982*, pos_z=196.343*, pos_y=8.236*, direction=332.8°*)
 74: 0x02D8 [0x01] GOTO 0x046D
 75: 0x02DB [0x02] IF !(ExtData[1]->WorkLocal[12] == 171*) GOTO 0x031E
 76: 0x02E3 [0x45] LOAD_SCHEDULED_TASK: Load scheduler "171a" with entities [LocalPlayer, LocalPlayer], work=[325*, 0*]
 77: 0x02F4 [0xBA] SET_ENTITY_POSITION(entity_id=EventEntity, pos_x=219.165*, pos_z=-17.497*, pos_y=-32.441*, direction=71.1°*)
 78: 0x0301 [0xBA] SET_ENTITY_POSITION(entity_id=LocalPlayer, pos_x=219.270*, pos_z=-20.198*, pos_y=-32.206*, direction=241.3°*)
 79: 0x030E [0xBA] SET_ENTITY_POSITION(entity_id=Allied Commissary (ID: 17154827/0x0105C30B), pos_x=224.166*, pos_z=-20.668*, pos_y=-32.276*, direction=183.2°*)
 80: 0x031B [0x01] GOTO 0x046D
 81: 0x031E [0x02] IF !(ExtData[1]->WorkLocal[12] == 95*) GOTO 0x0361
 82: 0x0326 [0x45] LOAD_SCHEDULED_TASK: Load scheduler "z95b" with entities [LocalPlayer, LocalPlayer], work=[325*, 0*]
 83: 0x0337 [0xBA] SET_ENTITY_POSITION(entity_id=EventEntity, pos_x=-10.768*, pos_z=309.479*, pos_y=-12.851*, direction=176.3°*)
 84: 0x0344 [0xBA] SET_ENTITY_POSITION(entity_id=LocalPlayer, pos_x=-13.689*, pos_z=307.360*, pos_y=-13.000*, direction=328.6°*)
 85: 0x0351 [0xBA] SET_ENTITY_POSITION(entity_id=Allied Commissary (ID: 17154827/0x0105C30B), pos_x=-14.266*, pos_z=314.175*, pos_y=-12.568*, direction=60.9°*)
 86: 0x035E [0x01] GOTO 0x046D
 87: 0x0361 [0x02] IF !(ExtData[1]->WorkLocal[12] == 96*) GOTO 0x03A4
 88: 0x0369 [0x45] LOAD_SCHEDULED_TASK: Load scheduler "z96b" with entities [LocalPlayer, LocalPlayer], work=[325*, 0*]
 89: 0x037A [0xBA] SET_ENTITY_POSITION(entity_id=EventEntity, pos_x=-107.622*, pos_z=0.202*, pos_y=-79.979*, direction=349.3°*)
 90: 0x0387 [0xBA] SET_ENTITY_POSITION(entity_id=LocalPlayer, pos_x=-105.799*, pos_z=1.570*, pos_y=-79.877*, direction=111.4°*)
 91: 0x0394 [0xBA] SET_ENTITY_POSITION(entity_id=Allied Commissary (ID: 17154827/0x0105C30B), pos_x=-104.588*, pos_z=-5.098*, pos_y=-79.887*, direction=263.1°*)
 92: 0x03A1 [0x01] GOTO 0x046D
 93: 0x03A4 [0x02] IF !(ExtData[1]->WorkLocal[12] == 97*) GOTO 0x03E7
 94: 0x03AC [0x45] LOAD_SCHEDULED_TASK: Load scheduler "z97b" with entities [LocalPlayer, LocalPlayer], work=[325*, 0*]
 95: 0x03BD [0xBA] SET_ENTITY_POSITION(entity_id=EventEntity, pos_x=-298.643*, pos_z=430.382*, pos_y=16.760*, direction=168.8°*)
 96: 0x03CA [0xBA] SET_ENTITY_POSITION(entity_id=LocalPlayer, pos_x=-300.985*, pos_z=432.271*, pos_y=17.203*, direction=43.2°*)
 97: 0x03D7 [0xBA] SET_ENTITY_POSITION(entity_id=Allied Commissary (ID: 17154827/0x0105C30B), pos_x=-300.385*, pos_z=423.475*, pos_y=17.221*, direction=277.7°*)
 98: 0x03E4 [0x01] GOTO 0x046D
 99: 0x03E7 [0x02] IF !(ExtData[1]->WorkLocal[12] == 98*) GOTO 0x042A
100: 0x03EF [0x45] LOAD_SCHEDULED_TASK: Load scheduler "z98b" with entities [LocalPlayer, LocalPlayer], work=[325*, 0*]
101: 0x0400 [0xBA] SET_ENTITY_POSITION(entity_id=EventEntity, pos_x=-42.376*, pos_z=219.781*, pos_y=24.963*, direction=4.6°*)
102: 0x040D [0xBA] SET_ENTITY_POSITION(entity_id=LocalPlayer, pos_x=-40.191*, pos_z=218.015*, pos_y=24.836*, direction=236.5°*)
103: 0x041A [0xBA] SET_ENTITY_POSITION(entity_id=Allied Commissary (ID: 17154827/0x0105C30B), pos_x=-35.737*, pos_z=224.685*, pos_y=24.660*, direction=161.7°*)
104: 0x0427 [0x01] GOTO 0x046D
105: 0x042A [0x02] IF !(ExtData[1]->WorkLocal[12] == 164*) GOTO 0x046D
106: 0x0432 [0x45] LOAD_SCHEDULED_TASK: Load scheduler "164a" with entities [LocalPlayer, LocalPlayer], work=[325*, 0*]
107: 0x0443 [0xBA] SET_ENTITY_POSITION(entity_id=EventEntity, pos_x=-103.730*, pos_z=177.917*, pos_y=-0.078*, direction=272.8°*)
108: 0x0450 [0xBA] SET_ENTITY_POSITION(entity_id=LocalPlayer, pos_x=-103.320*, pos_z=180.564*, pos_y=-0.078*, direction=117.7°*)
109: 0x045D [0xBA] SET_ENTITY_POSITION(entity_id=Allied Commissary (ID: 17154827/0x0105C30B), pos_x=-107.740*, pos_z=179.591*, pos_y=-0.078*, direction=8.1°*)
110: 0x046A [0x01] GOTO 0x046D

SUBROUTINE_046D:
111: 0x046D [0x94] LocalPlayer->Render.Flags3 ^= 0x01
112: 0x0473 [0x94] EventEntity->Render.Flags3 ^= 0x01
113: 0x0479 [0x94] Allied Commissary (ID: 17154827/0x0105C30B)->Render.Flags3 ^= 0x01
114: 0x047F [0x80] LOAD_WAIT(entity=LocalPlayer)
115: 0x0484 [0x80] LOAD_WAIT(entity=EventEntity)
116: 0x0489 [0x80] LOAD_WAIT(entity=Allied Commissary (ID: 17154827/0x0105C30B))
117: 0x048E [0x1C] WAIT(1* ticks)
118: 0x0491 [0x1E] EventEntity looks at LocalPlayer and starts talking
119: 0x0496 [0x4A] LocalPlayer looks at EventEntity
120: 0x049F [0x45] LOAD_SCHEDULED_TASK: Load scheduler "fdi1" with entities [LocalPlayer, LocalPlayer], work=[200*, 0*]
121: 0x04B0 [0x55] WAIT_LOAD_SCHEDULER: Wait for scheduler "fdi1" with entities [LocalPlayer, LocalPlayer], work=200*
122: 0x04BF [0x1E] EventEntity looks at Allied Commissary (ID: 17154827/0x0105C30B) and starts talking
123: 0x04C4 [0x4A] LocalPlayer looks at Allied Commissary (ID: 17154827/0x0105C30B)
124: 0x04CD [0x29] REQ_SET_WAIT(priority=0x10, entity_id=Allied Commissary (ID: 17154827/0x0105C30B), tag_num=0x04)
125: 0x04D4 [0x2B] Allied Commissary (ID: 17154827/0x0105C30B) [7997*]:
    → "You are the tactician responsible for our latest operation? Then I shall report in on the status of our mission up until now."
126: 0x04DB [0x23] WAIT_FOR_DIALOG_INTERACTION
127: 0x04DC [0x2B] Allied Commissary (ID: 17154827/0x0105C30B) [7998*]:
    → "As per orders, the supply caravan completed preparation of our cargo last night, and set out on the designated route at daybreak."
128: 0x04E3 [0x23] WAIT_FOR_DIALOG_INTERACTION
129: 0x04E4 [0x41] ExtData[1]->WorkLocal[1] = ExtData[1]->WorkLocal[3] (bits 0*-15*)
130: 0x04ED [0x41] ExtData[1]->WorkLocal[2] = ExtData[1]->WorkLocal[3] (bits 16*-31*)
131: 0x04F6 [0x02] IF !(ExtData[1]->WorkLocal[1] == 0*) GOTO 0x0501
132: 0x04FE [0x1A] CALL_SUBROUTINE(address=0x0632)
133: 0x0501 [0x02] IF !(ExtData[1]->WorkLocal[2] == 0*) GOTO 0x0526
134: 0x0509 [0x41] ExtData[1]->WorkLocal[1] = ExtData[1]->WorkLocal[4] (bits 0*-15*)
135: 0x0512 [0x41] ExtData[1]->WorkLocal[2] = ExtData[1]->WorkLocal[4] (bits 16*-31*)
136: 0x051B [0x02] IF !(ExtData[1]->WorkLocal[1] == 0*) GOTO 0x0526
137: 0x0523 [0x1A] CALL_SUBROUTINE(address=0x0632)
138: 0x0526 [0x02] IF !(ExtData[1]->WorkLocal[2] == 0*) GOTO 0x054B
139: 0x052E [0x41] ExtData[1]->WorkLocal[1] = ExtData[1]->WorkLocal[5] (bits 0*-15*)
140: 0x0537 [0x41] ExtData[1]->WorkLocal[2] = ExtData[1]->WorkLocal[5] (bits 16*-31*)
141: 0x0540 [0x02] IF !(ExtData[1]->WorkLocal[1] == 0*) GOTO 0x054B
142: 0x0548 [0x1A] CALL_SUBROUTINE(address=0x0632)
143: 0x054B [0x02] IF !(ExtData[1]->WorkLocal[2] == 0*) GOTO 0x0581
144: 0x0553 [0x02] IF !(ExtData[1]->WorkLocal[2] >= 3*) GOTO 0x0566
145: 0x055B [0x2B] Allied Commissary (ID: 17154827/0x0105C30B) [8013*]:
    → "Our unit was able to reach this stronghold, though we did so bearing a great deal less than the intended cargo."
146: 0x0562 [0x23] WAIT_FOR_DIALOG_INTERACTION
147: 0x0563 [0x01] GOTO 0x0581
148: 0x0566 [0x02] IF !(ExtData[1]->WorkLocal[2] >= 5*) GOTO 0x0579
149: 0x056E [0x2B] Allied Commissary (ID: 17154827/0x0105C30B) [8012*]:
    → "Our unit was able to reach this stronghold safely with the cargo. Your planning may well have been the decisive factor in the success of our mission."
150: 0x0575 [0x23] WAIT_FOR_DIALOG_INTERACTION
151: 0x0576 [0x01] GOTO 0x0581
152: 0x0579 [0x2B] Allied Commissary (ID: 17154827/0x0105C30B) [8011*]:
    → "I am pleased to report that our unit was able to reach this stronghold safely with all of the intended cargo. The success of our mission was due in no small part to your brilliant planning."
153: 0x0580 [0x23] WAIT_FOR_DIALOG_INTERACTION

SUBROUTINE_0581:
154: 0x0581 [0x1E] EventEntity looks at LocalPlayer and starts talking
155: 0x0586 [0x6F] WAIT_FRAME_DELAY: Yield until WaitTime reaches zero
156: 0x0587 [0x70] WAIT_ENTITY_RENDER_FLAG: Wait while EventEntity->Render.Flags3 bit 2 is set (cancel turn if not)
157: 0x0588 [0x02] IF !(ExtData[1]->WorkLocal[2] == 0*) GOTO 0x05C0
158: 0x0590 [0x02] IF !(ExtData[1]->WorkLocal[0] == 0*) GOTO 0x059F
159: 0x0598 [0x1D] PRINT_EVENT_MESSAGE(message_id=7345*)
    → "It seems that you were not successful in your last operation. But do not let one small failure hang heavy on your soul. Report to Sir Rasdinice and put this all behind you."
160: 0x059B [0x23] WAIT_FOR_DIALOG_INTERACTION
161: 0x059C [0x01] GOTO 0x05BD
162: 0x059F [0x02] IF !(ExtData[1]->WorkLocal[0] == 1*) GOTO 0x05AE
163: 0x05A7 [0x1D] PRINT_EVENT_MESSAGE(message_id=7346*)
    → "Weren't so lucky during that last operation, were you? Well, don't worry about it too much. Report to First Centurion Hieronymus and get some rest, soldier."
164: 0x05AA [0x23] WAIT_FOR_DIALOG_INTERACTION
165: 0x05AB [0x01] GOTO 0x05BD
166: 0x05AE [0x02] IF !(ExtData[1]->WorkLocal[0] == 2*) GOTO 0x05BD
167: 0x05B6 [0x1D] PRINT_EVENT_MESSAGE(message_id=7347*)
    → "Hmmm... Didn't do so well on that last operation, did you? I know it's hard, but it's better if you're up-front about these things. If you know what's good for you, you'll hurry down and report to Emhi Tchaoryo before the major finds out first."
168: 0x05B9 [0x23] WAIT_FOR_DIALOG_INTERACTION
169: 0x05BA [0x01] GOTO 0x05BD

SUBROUTINE_05BD:
170: 0x05BD [0x01] GOTO 0x05ED
171: 0x05C0 [0x02] IF !(ExtData[1]->WorkLocal[0] == 0*) GOTO 0x05CF
172: 0x05C8 [0x1D] PRINT_EVENT_MESSAGE(message_id=7342*)
    → "Good show on your last operation. Now go make an official report to Sir Rasdinice."
173: 0x05CB [0x23] WAIT_FOR_DIALOG_INTERACTION
174: 0x05CC [0x01] GOTO 0x05ED
175: 0x05CF [0x02] IF !(ExtData[1]->WorkLocal[0] == 1*) GOTO 0x05DE
176: 0x05D7 [0x1D] PRINT_EVENT_MESSAGE(message_id=7343*)
    → "Good work on that last operation. Now report back to First Centurion Hieronymus before he has your hide!"
177: 0x05DA [0x23] WAIT_FOR_DIALOG_INTERACTION
178: 0x05DB [0x01] GOTO 0x05ED
179: 0x05DE [0x02] IF !(ExtData[1]->WorkLocal[0] == 2*) GOTO 0x05ED
180: 0x05E6 [0x1D] PRINT_EVENT_MESSAGE(message_id=7344*)
    → "Nice job on your last operation. Now don't forget to report back to Emhi Tchaoryo!"
181: 0x05E9 [0x23] WAIT_FOR_DIALOG_INTERACTION
182: 0x05EA [0x01] GOTO 0x05ED

SUBROUTINE_05ED:
183: 0x05ED [0x45] LOAD_SCHEDULED_TASK: Load scheduler "fdo1" with entities [LocalPlayer, LocalPlayer], work=[200*, 0*]
184: 0x05FE [0x55] WAIT_LOAD_SCHEDULER: Wait for scheduler "fdo1" with entities [LocalPlayer, LocalPlayer], work=200*
185: 0x060D [0x4E] SET_ENTITY_HIDE_FLAG: Hide Allied Commissary (ID: 17154827/0x0105C30B)
186: 0x0613 [0x1C] WAIT(15* ticks)
187: 0x0616 [0x46] CAMERA_CONTROL: Restore default settings
188: 0x0618 [0x45] LOAD_SCHEDULED_TASK: Load scheduler "fdi2" with entities [LocalPlayer, LocalPlayer], work=[200*, 0*]
189: 0x0629 [0x03] Work_Zone[1] = 0*
190: 0x062E [0x20] SET_CLI_EVENT_UC_FLAG: Unlock player control
191: 0x0630 [0x21] END_EVENT
192: 0x0631 [0x00] END_REQSTACK()

SUBROUTINE_0632:
193: 0x0632 [0x02] IF !(ExtData[1]->WorkLocal[1] == 1*) GOTO 0x0645
194: 0x063A [0x2B] Allied Commissary (ID: 17154827/0x0105C30B) [7999*]:
    → "Unfortunately, we encountered an accident and lost a portion of our cargo."
195: 0x0641 [0x23] WAIT_FOR_DIALOG_INTERACTION
196: 0x0642 [0x01] GOTO 0x08D8
197: 0x0645 [0x02] IF !(ExtData[1]->WorkLocal[1] == 2*) GOTO 0x0665
198: 0x064D [0x03] Work_Zone[2] = 0*
199: 0x0652 [0x2B] Allied Commissary (ID: 17154827/0x0105C30B) [8001*]:
    → "We encountered considerable beastman opposition. In accordance with mission operatives, we [engaged the enemy in open battle/attempted to evade the enemy at all cost]."
200: 0x0659 [0x23] WAIT_FOR_DIALOG_INTERACTION
201: 0x065A [0x2B] Allied Commissary (ID: 17154827/0x0105C30B) [8005*]:
    → "By the good graces of the Goddess, our convoy was able to emerge victorious over our adversaries."
202: 0x0661 [0x23] WAIT_FOR_DIALOG_INTERACTION
203: 0x0662 [0x01] GOTO 0x08D8
204: 0x0665 [0x02] IF !(ExtData[1]->WorkLocal[1] == 3*) GOTO 0x0685
205: 0x066D [0x03] Work_Zone[2] = 0*
206: 0x0672 [0x2B] Allied Commissary (ID: 17154827/0x0105C30B) [8002*]:
    → "We encountered a superior beastman assault force. In accordance with mission operatives, we [engaged the enemy in open battle/attempted to evade the enemy at all cost]."
207: 0x0679 [0x23] WAIT_FOR_DIALOG_INTERACTION
208: 0x067A [0x2B] Allied Commissary (ID: 17154827/0x0105C30B) [8005*]:
    → "By the good graces of the Goddess, our convoy was able to emerge victorious over our adversaries."
209: 0x0681 [0x23] WAIT_FOR_DIALOG_INTERACTION
210: 0x0682 [0x01] GOTO 0x08D8
211: 0x0685 [0x02] IF !(ExtData[1]->WorkLocal[1] == 4*) GOTO 0x06A5
212: 0x068D [0x03] Work_Zone[2] = 0*
213: 0x0692 [0x2B] Allied Commissary (ID: 17154827/0x0105C30B) [8003*]:
    → "We encountered a beastman supply convoy, who was also made immediately aware of our presence. In accordance with mission operatives, we [engaged the enemy in open battle/attempted to evade the enemy at all cost]."
214: 0x0699 [0x23] WAIT_FOR_DIALOG_INTERACTION
215: 0x069A [0x2B] Allied Commissary (ID: 17154827/0x0105C30B) [8006*]:
    → "By the good graces of the Goddess, our convoy was able to obliterate the beastman supply contingent. In addition, we seized a significant portion of the enemy's supplies."
216: 0x06A1 [0x23] WAIT_FOR_DIALOG_INTERACTION
217: 0x06A2 [0x01] GOTO 0x08D8
218: 0x06A5 [0x02] IF !(ExtData[1]->WorkLocal[1] == 5*) GOTO 0x06C5
219: 0x06AD [0x03] Work_Zone[2] = 0*
220: 0x06B2 [0x2B] Allied Commissary (ID: 17154827/0x0105C30B) [8004*]:
    → "We encountered a substantial force under the direct command of a beastman general. In accordance with mission operatives, we [engaged the enemy in open battle/attempted to evade the enemy at all cost]."
221: 0x06B9 [0x23] WAIT_FOR_DIALOG_INTERACTION
222: 0x06BA [0x2B] Allied Commissary (ID: 17154827/0x0105C30B) [8005*]:
    → "By the good graces of the Goddess, our convoy was able to emerge victorious over our adversaries."
223: 0x06C1 [0x23] WAIT_FOR_DIALOG_INTERACTION
224: 0x06C2 [0x01] GOTO 0x08D8
225: 0x06C5 [0x02] IF !(ExtData[1]->WorkLocal[1] == 6*) GOTO 0x06E5
226: 0x06CD [0x03] Work_Zone[2] = 1*
227: 0x06D2 [0x2B] Allied Commissary (ID: 17154827/0x0105C30B) [8001*]:
    → "We encountered considerable beastman opposition. In accordance with mission operatives, we [engaged the enemy in open battle/attempted to evade the enemy at all cost]."
228: 0x06D9 [0x23] WAIT_FOR_DIALOG_INTERACTION
229: 0x06DA [0x2B] Allied Commissary (ID: 17154827/0x0105C30B) [8008*]:
    → "By the good graces of the Goddess, we narrowly succeeded in throwing the beastmen ranks into chaos and disarray."
230: 0x06E1 [0x23] WAIT_FOR_DIALOG_INTERACTION
231: 0x06E2 [0x01] GOTO 0x08D8
232: 0x06E5 [0x02] IF !(ExtData[1]->WorkLocal[1] == 7*) GOTO 0x0705
233: 0x06ED [0x03] Work_Zone[2] = 1*
234: 0x06F2 [0x2B] Allied Commissary (ID: 17154827/0x0105C30B) [8002*]:
    → "We encountered a superior beastman assault force. In accordance with mission operatives, we [engaged the enemy in open battle/attempted to evade the enemy at all cost]."
235: 0x06F9 [0x23] WAIT_FOR_DIALOG_INTERACTION
236: 0x06FA [0x2B] Allied Commissary (ID: 17154827/0x0105C30B) [8008*]:
    → "By the good graces of the Goddess, we narrowly succeeded in throwing the beastmen ranks into chaos and disarray."
237: 0x0701 [0x23] WAIT_FOR_DIALOG_INTERACTION
238: 0x0702 [0x01] GOTO 0x08D8
239: 0x0705 [0x02] IF !(ExtData[1]->WorkLocal[1] == 8*) GOTO 0x0725
240: 0x070D [0x03] Work_Zone[2] = 1*
241: 0x0712 [0x2B] Allied Commissary (ID: 17154827/0x0105C30B) [8003*]:
    → "We encountered a beastman supply convoy, who was also made immediately aware of our presence. In accordance with mission operatives, we [engaged the enemy in open battle/attempted to evade the enemy at all cost]."
242: 0x0719 [0x23] WAIT_FOR_DIALOG_INTERACTION
243: 0x071A [0x2B] Allied Commissary (ID: 17154827/0x0105C30B) [8008*]:
    → "By the good graces of the Goddess, we narrowly succeeded in throwing the beastmen ranks into chaos and disarray."
244: 0x0721 [0x23] WAIT_FOR_DIALOG_INTERACTION
245: 0x0722 [0x01] GOTO 0x08D8
246: 0x0725 [0x02] IF !(ExtData[1]->WorkLocal[1] == 9*) GOTO 0x0745
247: 0x072D [0x03] Work_Zone[2] = 1*
248: 0x0732 [0x2B] Allied Commissary (ID: 17154827/0x0105C30B) [8004*]:
    → "We encountered a substantial force under the direct command of a beastman general. In accordance with mission operatives, we [engaged the enemy in open battle/attempted to evade the enemy at all cost]."
249: 0x0739 [0x23] WAIT_FOR_DIALOG_INTERACTION
250: 0x073A [0x2B] Allied Commissary (ID: 17154827/0x0105C30B) [8008*]:
    → "By the good graces of the Goddess, we narrowly succeeded in throwing the beastmen ranks into chaos and disarray."
251: 0x0741 [0x23] WAIT_FOR_DIALOG_INTERACTION
252: 0x0742 [0x01] GOTO 0x08D8
253: 0x0745 [0x02] IF !(ExtData[1]->WorkLocal[1] == 10*) GOTO 0x0765
254: 0x074D [0x03] Work_Zone[2] = 1*
255: 0x0752 [0x2B] Allied Commissary (ID: 17154827/0x0105C30B) [8001*]:
    → "We encountered considerable beastman opposition. In accordance with mission operatives, we [engaged the enemy in open battle/attempted to evade the enemy at all cost]."
256: 0x0759 [0x23] WAIT_FOR_DIALOG_INTERACTION
257: 0x075A [0x2B] Allied Commissary (ID: 17154827/0x0105C30B) [8009*]:
    → "By the good graces of the Goddess, we somehow staved off the beastman attack and shook free. However, we were forced to abandon a portion of our cargo in the process."
258: 0x0761 [0x23] WAIT_FOR_DIALOG_INTERACTION
259: 0x0762 [0x01] GOTO 0x08D8
260: 0x0765 [0x02] IF !(ExtData[1]->WorkLocal[1] == 11*) GOTO 0x0785
261: 0x076D [0x03] Work_Zone[2] = 1*
262: 0x0772 [0x2B] Allied Commissary (ID: 17154827/0x0105C30B) [8002*]:
    → "We encountered a superior beastman assault force. In accordance with mission operatives, we [engaged the enemy in open battle/attempted to evade the enemy at all cost]."
263: 0x0779 [0x23] WAIT_FOR_DIALOG_INTERACTION
264: 0x077A [0x2B] Allied Commissary (ID: 17154827/0x0105C30B) [8009*]:
    → "By the good graces of the Goddess, we somehow staved off the beastman attack and shook free. However, we were forced to abandon a portion of our cargo in the process."
265: 0x0781 [0x23] WAIT_FOR_DIALOG_INTERACTION
266: 0x0782 [0x01] GOTO 0x08D8
267: 0x0785 [0x02] IF !(ExtData[1]->WorkLocal[1] == 12*) GOTO 0x07A5
268: 0x078D [0x03] Work_Zone[2] = 1*
269: 0x0792 [0x2B] Allied Commissary (ID: 17154827/0x0105C30B) [8003*]:
    → "We encountered a beastman supply convoy, who was also made immediately aware of our presence. In accordance with mission operatives, we [engaged the enemy in open battle/attempted to evade the enemy at all cost]."
270: 0x0799 [0x23] WAIT_FOR_DIALOG_INTERACTION
271: 0x079A [0x2B] Allied Commissary (ID: 17154827/0x0105C30B) [8009*]:
    → "By the good graces of the Goddess, we somehow staved off the beastman attack and shook free. However, we were forced to abandon a portion of our cargo in the process."
272: 0x07A1 [0x23] WAIT_FOR_DIALOG_INTERACTION
273: 0x07A2 [0x01] GOTO 0x08D8
274: 0x07A5 [0x02] IF !(ExtData[1]->WorkLocal[1] == 13*) GOTO 0x07C5
275: 0x07AD [0x03] Work_Zone[2] = 1*
276: 0x07B2 [0x2B] Allied Commissary (ID: 17154827/0x0105C30B) [8004*]:
    → "We encountered a substantial force under the direct command of a beastman general. In accordance with mission operatives, we [engaged the enemy in open battle/attempted to evade the enemy at all cost]."
277: 0x07B9 [0x23] WAIT_FOR_DIALOG_INTERACTION
278: 0x07BA [0x2B] Allied Commissary (ID: 17154827/0x0105C30B) [8009*]:
    → "By the good graces of the Goddess, we somehow staved off the beastman attack and shook free. However, we were forced to abandon a portion of our cargo in the process."
279: 0x07C1 [0x23] WAIT_FOR_DIALOG_INTERACTION
280: 0x07C2 [0x01] GOTO 0x08D8
281: 0x07C5 [0x02] IF !(ExtData[1]->WorkLocal[1] == 16*) GOTO 0x07E5
282: 0x07CD [0x03] Work_Zone[2] = 0*
283: 0x07D2 [0x2B] Allied Commissary (ID: 17154827/0x0105C30B) [8001*]:
    → "We encountered considerable beastman opposition. In accordance with mission operatives, we [engaged the enemy in open battle/attempted to evade the enemy at all cost]."
284: 0x07D9 [0x23] WAIT_FOR_DIALOG_INTERACTION
285: 0x07DA [0x2B] Allied Commissary (ID: 17154827/0x0105C30B) [8007*]:
    → "However, despite our best efforts, our convoy was utterly defeated. All of our cargo was lost to the enemy horde."
286: 0x07E1 [0x23] WAIT_FOR_DIALOG_INTERACTION
287: 0x07E2 [0x01] GOTO 0x08D8
288: 0x07E5 [0x02] IF !(ExtData[1]->WorkLocal[1] == 17*) GOTO 0x0805
289: 0x07ED [0x03] Work_Zone[2] = 0*
290: 0x07F2 [0x2B] Allied Commissary (ID: 17154827/0x0105C30B) [8002*]:
    → "We encountered a superior beastman assault force. In accordance with mission operatives, we [engaged the enemy in open battle/attempted to evade the enemy at all cost]."
291: 0x07F9 [0x23] WAIT_FOR_DIALOG_INTERACTION
292: 0x07FA [0x2B] Allied Commissary (ID: 17154827/0x0105C30B) [8007*]:
    → "However, despite our best efforts, our convoy was utterly defeated. All of our cargo was lost to the enemy horde."
293: 0x0801 [0x23] WAIT_FOR_DIALOG_INTERACTION
294: 0x0802 [0x01] GOTO 0x08D8
295: 0x0805 [0x02] IF !(ExtData[1]->WorkLocal[1] == 18*) GOTO 0x0825
296: 0x080D [0x03] Work_Zone[2] = 0*
297: 0x0812 [0x2B] Allied Commissary (ID: 17154827/0x0105C30B) [8003*]:
    → "We encountered a beastman supply convoy, who was also made immediately aware of our presence. In accordance with mission operatives, we [engaged the enemy in open battle/attempted to evade the enemy at all cost]."
298: 0x0819 [0x23] WAIT_FOR_DIALOG_INTERACTION
299: 0x081A [0x2B] Allied Commissary (ID: 17154827/0x0105C30B) [8007*]:
    → "However, despite our best efforts, our convoy was utterly defeated. All of our cargo was lost to the enemy horde."
300: 0x0821 [0x23] WAIT_FOR_DIALOG_INTERACTION
301: 0x0822 [0x01] GOTO 0x08D8
302: 0x0825 [0x02] IF !(ExtData[1]->WorkLocal[1] == 14*) GOTO 0x0845
303: 0x082D [0x03] Work_Zone[2] = 0*
304: 0x0832 [0x2B] Allied Commissary (ID: 17154827/0x0105C30B) [8004*]:
    → "We encountered a substantial force under the direct command of a beastman general. In accordance with mission operatives, we [engaged the enemy in open battle/attempted to evade the enemy at all cost]."
305: 0x0839 [0x23] WAIT_FOR_DIALOG_INTERACTION
306: 0x083A [0x2B] Allied Commissary (ID: 17154827/0x0105C30B) [8007*]:
    → "However, despite our best efforts, our convoy was utterly defeated. All of our cargo was lost to the enemy horde."
307: 0x0841 [0x23] WAIT_FOR_DIALOG_INTERACTION
308: 0x0842 [0x01] GOTO 0x08D8
309: 0x0845 [0x02] IF !(ExtData[1]->WorkLocal[1] == 19*) GOTO 0x0865
310: 0x084D [0x03] Work_Zone[2] = 1*
311: 0x0852 [0x2B] Allied Commissary (ID: 17154827/0x0105C30B) [8001*]:
    → "We encountered considerable beastman opposition. In accordance with mission operatives, we [engaged the enemy in open battle/attempted to evade the enemy at all cost]."
312: 0x0859 [0x23] WAIT_FOR_DIALOG_INTERACTION
313: 0x085A [0x2B] Allied Commissary (ID: 17154827/0x0105C30B) [8010*]:
    → "However, we were unable to repel the beastman's relentless pursuit, and in the end our convoy was scattered. All of our cargo was lost to the enemy horde."
314: 0x0861 [0x23] WAIT_FOR_DIALOG_INTERACTION
315: 0x0862 [0x01] GOTO 0x08D8
316: 0x0865 [0x02] IF !(ExtData[1]->WorkLocal[1] == 20*) GOTO 0x0885
317: 0x086D [0x03] Work_Zone[2] = 1*
318: 0x0872 [0x2B] Allied Commissary (ID: 17154827/0x0105C30B) [8002*]:
    → "We encountered a superior beastman assault force. In accordance with mission operatives, we [engaged the enemy in open battle/attempted to evade the enemy at all cost]."
319: 0x0879 [0x23] WAIT_FOR_DIALOG_INTERACTION
320: 0x087A [0x2B] Allied Commissary (ID: 17154827/0x0105C30B) [8010*]:
    → "However, we were unable to repel the beastman's relentless pursuit, and in the end our convoy was scattered. All of our cargo was lost to the enemy horde."
321: 0x0881 [0x23] WAIT_FOR_DIALOG_INTERACTION
322: 0x0882 [0x01] GOTO 0x08D8
323: 0x0885 [0x02] IF !(ExtData[1]->WorkLocal[1] == 21*) GOTO 0x08A5
324: 0x088D [0x03] Work_Zone[2] = 1*
325: 0x0892 [0x2B] Allied Commissary (ID: 17154827/0x0105C30B) [8003*]:
    → "We encountered a beastman supply convoy, who was also made immediately aware of our presence. In accordance with mission operatives, we [engaged the enemy in open battle/attempted to evade the enemy at all cost]."
326: 0x0899 [0x23] WAIT_FOR_DIALOG_INTERACTION
327: 0x089A [0x2B] Allied Commissary (ID: 17154827/0x0105C30B) [8010*]:
    → "However, we were unable to repel the beastman's relentless pursuit, and in the end our convoy was scattered. All of our cargo was lost to the enemy horde."
328: 0x08A1 [0x23] WAIT_FOR_DIALOG_INTERACTION
329: 0x08A2 [0x01] GOTO 0x08D8
330: 0x08A5 [0x02] IF !(ExtData[1]->WorkLocal[1] == 15*) GOTO 0x08C5
331: 0x08AD [0x03] Work_Zone[2] = 1*
332: 0x08B2 [0x2B] Allied Commissary (ID: 17154827/0x0105C30B) [8004*]:
    → "We encountered a substantial force under the direct command of a beastman general. In accordance with mission operatives, we [engaged the enemy in open battle/attempted to evade the enemy at all cost]."
333: 0x08B9 [0x23] WAIT_FOR_DIALOG_INTERACTION
334: 0x08BA [0x2B] Allied Commissary (ID: 17154827/0x0105C30B) [8010*]:
    → "However, we were unable to repel the beastman's relentless pursuit, and in the end our convoy was scattered. All of our cargo was lost to the enemy horde."
335: 0x08C1 [0x23] WAIT_FOR_DIALOG_INTERACTION
336: 0x08C2 [0x01] GOTO 0x08D8
337: 0x08C5 [0x02] IF !(ExtData[1]->WorkLocal[1] == 22*) GOTO 0x08D8
338: 0x08CD [0x2B] Allied Commissary (ID: 17154827/0x0105C30B) [8000*]:
    → "Most regrettably, we encountered an accident and lost out entire load of cargo."
339: 0x08D4 [0x23] WAIT_FOR_DIALOG_INTERACTION
340: 0x08D5 [0x01] GOTO 0x08D8

SUBROUTINE_08D8:
341: 0x08D8 [0x1B] RETURN
```

#### Data or dead code:

```
# Dead code (unreachable instructions):
     0x08D9 [0x03] ExtData[1]->WorkLocal[22] = Work_Zone[4]
     0x08DE [0x20] SET_CLI_EVENT_UC_FLAG: Lock player control
     0x08E0 [0x1E] EventEntity looks at LocalPlayer and starts talking
     0x08E5 [0x6F] WAIT_FRAME_DELAY: Yield until WaitTime reaches zero
     0x08E6 [0x70] WAIT_ENTITY_RENDER_FLAG: Wait while EventEntity->Render.Flags3 bit 2 is set (cancel turn if not)
     0x08E7 [0x02] IF !(ExtData[1]->WorkLocal[14] == 0*) GOTO 0x08F9
     0x08EF [0x1D] PRINT_EVENT_MESSAGE(message_id=7086*)
    → "Greetings. I am % of the San d'Orian Provincial Knights."
     0x08F2 [0x23] WAIT_FOR_DIALOG_INTERACTION
     0x08F3 [0x01] GOTO 0x092F
     0x08F6 [0x01] GOTO 0x092F
     0x08F9 [0x02] IF !(ExtData[1]->WorkLocal[14] == 1*) GOTO 0x090B
     0x0901 [0x1D] PRINT_EVENT_MESSAGE(message_id=7087*)
    → "Greetings. I am % of the Bastokan Legion."
     0x0904 [0x23] WAIT_FOR_DIALOG_INTERACTION
     0x0905 [0x01] GOTO 0x092F
     0x0908 [0x01] GOTO 0x092F
     0x090B [0x02] IF !(ExtData[1]->WorkLocal[14] == 2*) GOTO 0x091D
     0x0913 [0x1D] PRINT_EVENT_MESSAGE(message_id=7088*)
    → "Greetings. I am % of the Federation of Windurst."
     0x0916 [0x23] WAIT_FOR_DIALOG_INTERACTION
     0x0917 [0x01] GOTO 0x092F
     0x091A [0x01] GOTO 0x092F
     0x091D [0x02] IF !(ExtData[1]->WorkLocal[14] == 4*) GOTO 0x092F
     0x0925 [0x1D] PRINT_EVENT_MESSAGE(message_id=7089*)
    → "Greetings. I am %, Campaign Arbiter for the Allied Forces."
     0x0928 [0x23] WAIT_FOR_DIALOG_INTERACTION
     0x0929 [0x01] GOTO 0x092F
     0x092C [0x01] GOTO 0x092F
     0x092F [0x03] ExtData[1]->WorkLocal[15] = 0*
     0x0934 [0x3E] IF !(Work_Zone[3] bit 0*) GOTO 0x093E
     0x093B [0x01] GOTO 0x0945
     0x093E [0x3C] SET_BIT_FLAG_CONDITIONAL(target_work_offset=ExtData[1]->WorkLocal[15], bit_index_work_offset=3*, condition_work_offset=1*)
     0x0945 [0x3E] IF !(Work_Zone[3] bit 2*) GOTO 0x094F
     0x094C [0x01] GOTO 0x095D
     0x094F [0x3C] SET_BIT_FLAG_CONDITIONAL(target_work_offset=ExtData[1]->WorkLocal[15], bit_index_work_offset=2*, condition_work_offset=1*)
     0x0956 [0x3C] SET_BIT_FLAG_CONDITIONAL(target_work_offset=ExtData[1]->WorkLocal[15], bit_index_work_offset=3*, condition_work_offset=1*)
     0x095D [0x3E] IF !(Work_Zone[3] bit 3*) GOTO 0x096C
     0x0964 [0x03] ExtData[1]->WorkLocal[18] = 1*
     0x0969 [0x01] GOTO 0x0971
     0x096C [0x03] ExtData[1]->WorkLocal[18] = 0*
     0x0971 [0x3E] IF !(Work_Zone[3] bit 4*) GOTO 0x0982
     0x0978 [0x3C] SET_BIT_FLAG_CONDITIONAL(target_work_offset=ExtData[1]->WorkLocal[15], bit_index_work_offset=2*, condition_work_offset=1*)
     0x097F [0x01] GOTO 0x0997
     0x0982 [0x3C] SET_BIT_FLAG_CONDITIONAL(target_work_offset=ExtData[1]->WorkLocal[15], bit_index_work_offset=1*, condition_work_offset=1*)
     0x0989 [0x3C] SET_BIT_FLAG_CONDITIONAL(target_work_offset=ExtData[1]->WorkLocal[15], bit_index_work_offset=3*, condition_work_offset=1*)
     0x0990 [0x3C] SET_BIT_FLAG_CONDITIONAL(target_work_offset=ExtData[1]->WorkLocal[15], bit_index_work_offset=4*, condition_work_offset=1*)
     0x0997 [0x3E] IF !(Work_Zone[3] bit 5*) GOTO 0x09A5
     0x099E [0x3C] SET_BIT_FLAG_CONDITIONAL(target_work_offset=ExtData[1]->WorkLocal[15], bit_index_work_offset=5*, condition_work_offset=1*)
     0x09A5 [0x3E] IF !(Work_Zone[3] bit 6*) GOTO 0x09B2
     0x09AC [0x05] ExtData[1]->WorkLocal[24] = 1
     0x09AF [0x01] GOTO 0x09B5
     0x09B2 [0x06] ExtData[1]->WorkLocal[24] = 0
     0x09B5 [0x41] ExtData[1]->WorkLocal[17] = Work_Zone[7] (bits 0*-15*)
     0x09BE [0x41] ExtData[1]->WorkLocal[16] = Work_Zone[7] (bits 16*-31*)
     0x09C7 [0x02] IF !(ExtData[1]->WorkLocal[16] == 0*) GOTO 0x09D6
     0x09CF [0x3C] SET_BIT_FLAG_CONDITIONAL(target_work_offset=ExtData[1]->WorkLocal[15], bit_index_work_offset=3*, condition_work_offset=1*)
     0x09D6 [0x03] ExtData[1]->WorkLocal[19] = 0*
     0x09DB [0x0E] ExtData[1]->WorkLocal[19] |= 2124167461*
     0x09E0 [0x0E] ExtData[1]->WorkLocal[19] |= 4292746*
     0x09E5 [0x0E] ExtData[1]->WorkLocal[19] |= 19023440*
     0x09EA [0x03] ExtData[1]->WorkLocal[20] = 0*
     0x09EF [0x0E] ExtData[1]->WorkLocal[20] |= 0*
     0x09F4 [0x0E] ExtData[1]->WorkLocal[20] |= 0*
     0x09F9 [0x0E] ExtData[1]->WorkLocal[20] |= 0*
     0x09FE [0x02] IF !(Work_Zone[8] == ExtData[1]->WorkLocal[19]) GOTO 0x0A15
     0x0A06 [0x02] IF !(Work_Zone[9] == ExtData[1]->WorkLocal[20]) GOTO 0x0A15
     0x0A0E [0x3C] SET_BIT_FLAG_CONDITIONAL(target_work_offset=ExtData[1]->WorkLocal[15], bit_index_work_offset=3*, condition_work_offset=1*)
     0x0A15 [0x24] CREATE_DIALOG(message_id=7090*, default_option=0*, option_flags=ExtData[1]->WorkLocal[15])
    → "What can I help you with? [Nothing./Performance assessment./New Allied Tags./Temporary items./Union registration./Teleportation./Information on the Allied Campaign.]"
     0x0A1C [0x25] WAIT_DIALOG_SELECT()
     0x0A1D [0x02] IF !(Work_Zone[0] == 0*) GOTO 0x0A28
     0x0A25 [0x01] GOTO 0x0AC0
     0x0A28 [0x02] IF !(Work_Zone[0] == 1*) GOTO 0x0A36
     0x0A30 [0x1A] CALL_SUBROUTINE(address=0x0AC5)
     0x0A33 [0x01] GOTO 0x0AC0
     0x0A36 [0x02] IF !(Work_Zone[0] == 2*) GOTO 0x0A62
     0x0A3E [0x02] IF !(ExtData[1]->WorkLocal[18] == 0*) GOTO 0x0A5B
     0x0A46 [0x02] IF !(ExtData[1]->WorkLocal[24] == 0*) GOTO 0x0A54
     0x0A4E [0x1A] CALL_SUBROUTINE(address=0x0AD0)
     0x0A51 [0x01] GOTO 0x0A58
     0x0A54 [0x1D] PRINT_EVENT_MESSAGE(message_id=7096*)
    → "You've already undergone an evaluation for this battle, or had you forgotten? As much as I'd like to, I'm forbidden from providing you with a new set of Allied Taegs until the next battle begins."
     0x0A57 [0x23] WAIT_FOR_DIALOG_INTERACTION
     0x0A58 [0x01] GOTO 0x0A5F
     0x0A5B [0x1D] PRINT_EVENT_MESSAGE(message_id=7136*)
    → "I am sorry, <Player>, but your campaign medal has expired. I cannot issue tags to anyone not authorized by the Allied Forces. Return to your nation's capital and speak with a Campaign Evaluation Official."
     0x0A5E [0x23] WAIT_FOR_DIALOG_INTERACTION
     0x0A5F [0x01] GOTO 0x0AC0
     0x0A62 [0x02] IF !(Work_Zone[0] == 3*) GOTO 0x0A7F
     0x0A6A [0x02] IF !(ExtData[1]->WorkLocal[18] == 0*) GOTO 0x0A78
     0x0A72 [0x1A] CALL_SUBROUTINE(address=0x0AE9)
     0x0A75 [0x01] GOTO 0x0A7C
     0x0A78 [0x1D] PRINT_EVENT_MESSAGE(message_id=7136*)
    → "I am sorry, <Player>, but your campaign medal has expired. I cannot issue tags to anyone not authorized by the Allied Forces. Return to your nation's capital and speak with a Campaign Evaluation Official."
     0x0A7B [0x23] WAIT_FOR_DIALOG_INTERACTION
     0x0A7C [0x01] GOTO 0x0AC0
     0x0A7F [0x02] IF !(Work_Zone[0] == 4*) GOTO 0x0AA4
     0x0A87 [0x03] Work_Zone[1] = 111*
     0x0A8C [0x43] SEND_EVENT_UPDATE: Send pending tag to server (packet 0x005B)
     0x0A8E [0x43] SEND_EVENT_UPDATE: Check pending flag (skip if not pending)
     0x0A90 [0x02] IF !(Work_Zone[4] == 0*) GOTO 0x0A9E
     0x0A98 [0x1A] CALL_SUBROUTINE(address=0x156D)
     0x0A9B [0x01] GOTO 0x0AA1
     0x0A9E [0x01] GOTO 0x0AC3
     0x0AA1 [0x01] GOTO 0x0AC0
     0x0AA4 [0x02] IF !(Work_Zone[0] == 5*) GOTO 0x0AB2
     0x0AAC [0x1A] CALL_SUBROUTINE(address=0x1793)
     0x0AAF [0x01] GOTO 0x0AC0
     0x0AB2 [0x02] IF !(Work_Zone[0] == 6*) GOTO 0x0AC0
     0x0ABA [0x1A] CALL_SUBROUTINE(address=0x1854)
     0x0ABD [0x01] GOTO 0x0AC0
     0x0AC0 [0x01] GOTO 0x0AC3
     0x0AC3 [0x21] END_EVENT
     0x0AC4 [0x1B] RETURN
     0x0AC5 [0x42] SET_CLI_EVENT_CANCEL_DATA()
     0x0AC6 [0x1D] PRINT_EVENT_MESSAGE(message_id=7093*)
    → "Understood. I shall now judge your performance and award the proper remuneration."
     0x0AC9 [0x23] WAIT_FOR_DIALOG_INTERACTION
     0x0ACA [0x03] Work_Zone[1] = 5*
     0x0ACF [0x1B] RETURN
     0x0AD0 [0x42] SET_CLI_EVENT_CANCEL_DATA()
     0x0AD1 [0x1D] PRINT_EVENT_MESSAGE(message_id=7095*)
    → "Understood. I shall prepare a new set of tags for you now."
     0x0AD4 [0x23] WAIT_FOR_DIALOG_INTERACTION
     0x0AD5 [0x73] EventEntity casts magic 483* on LocalPlayer
     0x0AE0 [0x1C] WAIT(260* ticks)
     0x0AE3 [0x03] Work_Zone[1] = 3*
     0x0AE8 [0x1B] RETURN
     0x0AE9 [0x03] ExtData[1]->WorkLocal[33] = 0*
     0x0AEE [0x03] ExtData[1]->WorkLocal[29] = 0*
     0x0AF3 [0x03] ExtData[1]->WorkLocal[25] = 0*
     0x0AF8 [0x03] ExtData[1]->WorkLocal[26] = 0*
     0x0AFD [0x03] ExtData[1]->WorkLocal[27] = 0*
     0x0B02 [0x03] ExtData[1]->WorkLocal[28] = 0*
     0x0B07 [0x03] ExtData[1]->WorkLocal[36] = 0*
     0x0B0C [0x03] ExtData[1]->WorkLocal[34] = 0*
     0x0B11 [0x03] ExtData[1]->WorkLocal[38] = 2124167461*
     0x0B16 [0x02] IF !(ExtData[1]->WorkLocal[36] >= 32*) GOTO 0x0C2D
     0x0B1E [0x3E] IF !(ExtData[1]->WorkLocal[38] bit ExtData[1]->WorkLocal[36]) GOTO 0x0C27
     0x0B25 [0x03] ExtData[1]->WorkLocal[23] = 0*
     0x0B2A [0x02] IF !(ExtData[1]->WorkLocal[36] < 11*) GOTO 0x0B4B
     0x0B32 [0x02] IF !(ExtData[1]->WorkLocal[36] >= 18*) GOTO 0x0B4B
     0x0B3A [0x03] ExtData[1]->WorkLocal[23] = 1*
     0x0B3F [0x3E] IF !(Work_Zone[5] bit 0*) GOTO 0x0B4B
     0x0B46 [0x03] ExtData[1]->WorkLocal[23] = 0*
     0x0B4B [0x02] IF !(ExtData[1]->WorkLocal[36] < 18*) GOTO 0x0B6C
     0x0B53 [0x02] IF !(ExtData[1]->WorkLocal[36] >= 25*) GOTO 0x0B6C
     0x0B5B [0x03] ExtData[1]->WorkLocal[23] = 1*
     0x0B60 [0x3E] IF !(Work_Zone[5] bit 1*) GOTO 0x0B6C
     0x0B67 [0x03] ExtData[1]->WorkLocal[23] = 0*
     0x0B6C [0x02] IF !(ExtData[1]->WorkLocal[36] < 25*) GOTO 0x0B8D
     0x0B74 [0x02] IF !(ExtData[1]->WorkLocal[36] >= 27*) GOTO 0x0B8D
     0x0B7C [0x03] ExtData[1]->WorkLocal[23] = 1*
     0x0B81 [0x3E] IF !(Work_Zone[5] bit 2*) GOTO 0x0B8D
     0x0B88 [0x03] ExtData[1]->WorkLocal[23] = 0*
     0x0B8D [0x02] IF !(ExtData[1]->WorkLocal[36] < 27*) GOTO 0x0BAE
     0x0B95 [0x02] IF !(ExtData[1]->WorkLocal[36] >= 28*) GOTO 0x0BAE
     0x0B9D [0x03] ExtData[1]->WorkLocal[23] = 1*
     0x0BA2 [0x3E] IF !(Work_Zone[5] bit 3*) GOTO 0x0BAE
     0x0BA9 [0x03] ExtData[1]->WorkLocal[23] = 0*
     0x0BAE [0x02] IF !(ExtData[1]->WorkLocal[36] < 28*) GOTO 0x0BCF
     0x0BB6 [0x02] IF !(ExtData[1]->WorkLocal[36] >= 29*) GOTO 0x0BCF
     0x0BBE [0x03] ExtData[1]->WorkLocal[23] = 1*
     0x0BC3 [0x3E] IF !(Work_Zone[5] bit 4*) GOTO 0x0BCF
     0x0BCA [0x03] ExtData[1]->WorkLocal[23] = 0*
     0x0BCF [0x02] IF !(ExtData[1]->WorkLocal[36] < 29*) GOTO 0x0BF0
     0x0BD7 [0x02] IF !(ExtData[1]->WorkLocal[36] >= 30*) GOTO 0x0BF0
     0x0BDF [0x03] ExtData[1]->WorkLocal[23] = 1*
     0x0BE4 [0x3E] IF !(Work_Zone[5] bit 5*) GOTO 0x0BF0
     0x0BEB [0x03] ExtData[1]->WorkLocal[23] = 0*
     0x0BF0 [0x02] IF !(ExtData[1]->WorkLocal[36] < 30*) GOTO 0x0C09
     0x0BF8 [0x03] ExtData[1]->WorkLocal[23] = 1*
     0x0BFD [0x3E] IF !(Work_Zone[5] bit 6*) GOTO 0x0C09
     0x0C04 [0x03] ExtData[1]->WorkLocal[23] = 0*
     0x0C09 [0x3E] IF !(Work_Zone[8] bit ExtData[1]->WorkLocal[36]) GOTO 0x0C15
     0x0C10 [0x03] ExtData[1]->WorkLocal[23] = 1*
     0x0C15 [0x02] IF !(ExtData[1]->WorkLocal[23] == 0*) GOTO 0x0C24
     0x0C1D [0x3C] SET_BIT_FLAG_CONDITIONAL(target_work_offset=ExtData[1]->WorkLocal[26], bit_index_work_offset=ExtData[1]->WorkLocal[34], condition_work_offset=1*)
     0x0C24 [0x0B] ExtData[1]->WorkLocal[34]++
     0x0C27 [0x0B] ExtData[1]->WorkLocal[36]++
     0x0C2A [0x01] GOTO 0x0B16
     0x0C2D [0x03] ExtData[1]->WorkLocal[36] = 0*
     0x0C32 [0x03] ExtData[1]->WorkLocal[38] = 0*
     0x0C37 [0x02] IF !(ExtData[1]->WorkLocal[36] >= 32*) GOTO 0x0D58
     0x0C3F [0x3E] IF !(ExtData[1]->WorkLocal[38] bit ExtData[1]->WorkLocal[36]) GOTO 0x0D52
     0x0C46 [0x03] ExtData[1]->WorkLocal[23] = 0*
     0x0C4B [0x03] ExtData[1]->WorkLocal[37] = ExtData[1]->WorkLocal[36]
     0x0C50 [0x07] ExtData[1]->WorkLocal[37] += 32*
     0x0C55 [0x02] IF !(ExtData[1]->WorkLocal[37] < 11*) GOTO 0x0C76
     0x0C5D [0x02] IF !(ExtData[1]->WorkLocal[37] >= 18*) GOTO 0x0C76
     0x0C65 [0x03] ExtData[1]->WorkLocal[23] = 1*
     0x0C6A [0x3E] IF !(Work_Zone[5] bit 0*) GOTO 0x0C76
     0x0C71 [0x03] ExtData[1]->WorkLocal[23] = 0*
     0x0C76 [0x02] IF !(ExtData[1]->WorkLocal[37] < 18*) GOTO 0x0C97
     0x0C7E [0x02] IF !(ExtData[1]->WorkLocal[37] >= 25*) GOTO 0x0C97
     0x0C86 [0x03] ExtData[1]->WorkLocal[23] = 1*
     0x0C8B [0x3E] IF !(Work_Zone[5] bit 1*) GOTO 0x0C97
     0x0C92 [0x03] ExtData[1]->WorkLocal[23] = 0*
     0x0C97 [0x02] IF !(ExtData[1]->WorkLocal[37] < 25*) GOTO 0x0CB8
     0x0C9F [0x02] IF !(ExtData[1]->WorkLocal[37] >= 27*) GOTO 0x0CB8
     0x0CA7 [0x03] ExtData[1]->WorkLocal[23] = 1*
     0x0CAC [0x3E] IF !(Work_Zone[5] bit 2*) GOTO 0x0CB8
     0x0CB3 [0x03] ExtData[1]->WorkLocal[23] = 0*
     0x0CB8 [0x02] IF !(ExtData[1]->WorkLocal[37] < 27*) GOTO 0x0CD9
     0x0CC0 [0x02] IF !(ExtData[1]->WorkLocal[37] >= 28*) GOTO 0x0CD9
     0x0CC8 [0x03] ExtData[1]->WorkLocal[23] = 1*
     0x0CCD [0x3E] IF !(Work_Zone[5] bit 3*) GOTO 0x0CD9
     0x0CD4 [0x03] ExtData[1]->WorkLocal[23] = 0*
     0x0CD9 [0x02] IF !(ExtData[1]->WorkLocal[37] < 28*) GOTO 0x0CFA
     0x0CE1 [0x02] IF !(ExtData[1]->WorkLocal[37] >= 29*) GOTO 0x0CFA
     0x0CE9 [0x03] ExtData[1]->WorkLocal[23] = 1*
     0x0CEE [0x3E] IF !(Work_Zone[5] bit 4*) GOTO 0x0CFA
     0x0CF5 [0x03] ExtData[1]->WorkLocal[23] = 0*
     0x0CFA [0x02] IF !(ExtData[1]->WorkLocal[37] < 29*) GOTO 0x0D1B
     0x0D02 [0x02] IF !(ExtData[1]->WorkLocal[37] >= 30*) GOTO 0x0D1B
     0x0D0A [0x03] ExtData[1]->WorkLocal[23] = 1*
     0x0D0F [0x3E] IF !(Work_Zone[5] bit 5*) GOTO 0x0D1B
     0x0D16 [0x03] ExtData[1]->WorkLocal[23] = 0*
     0x0D1B [0x02] IF !(ExtData[1]->WorkLocal[37] < 30*) GOTO 0x0D34
     0x0D23 [0x03] ExtData[1]->WorkLocal[23] = 1*
     0x0D28 [0x3E] IF !(Work_Zone[5] bit 6*) GOTO 0x0D34
     0x0D2F [0x03] ExtData[1]->WorkLocal[23] = 0*
     0x0D34 [0x3E] IF !(Work_Zone[9] bit ExtData[1]->WorkLocal[36]) GOTO 0x0D40
     0x0D3B [0x03] ExtData[1]->WorkLocal[23] = 1*
     0x0D40 [0x02] IF !(ExtData[1]->WorkLocal[23] == 0*) GOTO 0x0D4F
     0x0D48 [0x3C] SET_BIT_FLAG_CONDITIONAL(target_work_offset=ExtData[1]->WorkLocal[26], bit_index_work_offset=ExtData[1]->WorkLocal[34], condition_work_offset=1*)
     0x0D4F [0x0B] ExtData[1]->WorkLocal[34]++
     0x0D52 [0x0B] ExtData[1]->WorkLocal[36]++
     0x0D55 [0x01] GOTO 0x0C37
     0x0D58 [0x0F] ExtData[1]->WorkLocal[26] ^= 4294967295*
     0x0D5D [0x10] ExtData[1]->WorkLocal[26] <<= 1*
