# 17154860 - 01

## Common Data

| Field            | Value                 |
|------------------|-----------------------|
| Zone             | Beadeaux [S] (ID: 92) |
| Block Size       | 68 bytes              |
| Total Events     | 4                     |
| References Count | 3                     |

## List of Events

| Event ID                 | Entrypoint   |   Size |   Instructions |
|--------------------------|--------------|--------|----------------|
| [1](#event-1)            | 0x0000       |      1 |              1 |
| [65535](#event-65535)    | 0x0001       |     10 |              2 |
| [65535.1](#event-655351) | 0x000B       |     10 |              2 |

## DAT References (imed_data)

|   Index | Hex Value   |   Dec Value |
|---------|-------------|-------------|
|       0 | 0x0000      |           0 |
|       1 | 0x0001      |           1 |
|       2 | 0x0080      |         128 |

## Events

### Event 1

#### Metadata

| Field        | Value   |
|--------------|---------|
| Entrypoint   | 0x0000  |
| Data Size    | 1 bytes |
| Instructions | 1       |

```
      00 01 02 03 04 05 06 07  08 09 0A 0B 0C 0D 0E 0F
      -- -- -- -- -- -- -- --  -- -- -- -- -- -- -- --
0000: 00                                                .               
```

#### Opcodes

```
  0: 0x0000 [0x00] END_REQSTACK()
```

### Event 65535

#### Metadata

| Field        | Value    |
|--------------|----------|
| Entrypoint   | 0x0001   |
| Data Size    | 10 bytes |
| Instructions | 2        |

```
      00 01 02 03 04 05 06 07  08 09 0A 0B 0C 0D 0E 0F
      -- -- -- -- -- -- -- --  -- -- -- -- -- -- -- --
0000:    6C 2C C3 05 01 00 80  01 80 00                  l,........     
```

#### Opcodes

```
  0: 0x0001 [0x6C] FADE_ENTITY_COLOR(entity_id=01 (ID: 17154860/0x0105C32C), end_alpha=0*, fade_time=1*)
  1: 0x000A [0x00] END_REQSTACK()
```

### Event 65535.1

#### Metadata

| Field        | Value    |
|--------------|----------|
| Entrypoint   | 0x000B   |
| Data Size    | 10 bytes |
| Instructions | 2        |

```
      00 01 02 03 04 05 06 07  08 09 0A 0B 0C 0D 0E 0F
      -- -- -- -- -- -- -- --  -- -- -- -- -- -- -- --
0000:                                   6C 2C C3 05 01             l,...
0010: 02 80 01 80 00                                    .....           
```

#### Opcodes

```
  0: 0x000B [0x6C] FADE_ENTITY_COLOR(entity_id=01 (ID: 17154860/0x0105C32C), end_alpha=128*, fade_time=1*)
  1: 0x0014 [0x00] END_REQSTACK()
```
