# 17154854 - HeishiA

## Common Data

| Field            | Value                 |
|------------------|-----------------------|
| Zone             | Beadeaux [S] (ID: 92) |
| Block Size       | 200 bytes             |
| Total Events     | 5                     |
| References Count | 18                    |

## List of Events

| Event ID                 | Entrypoint   |   Size |   Instructions |
|--------------------------|--------------|--------|----------------|
| [65535](#event-65535)    | 0x0000       |      1 |              1 |
| [1](#event-1)            | 0x0001       |      1 |              1 |
| [65535.1](#event-655351) | 0x0002       |     13 |              3 |
| [65535.2](#event-655352) | 0x000F       |     43 |             11 |
| [65535.3](#event-655353) | 0x003A       |     34 |              8 |

## DAT References (imed_data)

|   Index | Hex Value   |   Dec Value |
|---------|-------------|-------------|
|       0 | 0x0019      |          25 |
|       1 | 0x0029      |          41 |
|       2 | 0xFFFCB67E  |  4294751870 |
|       3 | 0xFB95      |       64405 |
|       4 | 0x03EB      |        1003 |
|       5 | 0x000D      |          13 |
|       6 | 0xFFFCB289  |  4294750857 |
|       7 | 0xF825      |       63525 |
|       8 | 0x003C      |          60 |
|       9 | 0x0102      |         258 |
|      10 | 0x0028      |          40 |
|      11 | 0xFFFCD5D8  |  4294759896 |
|      12 | 0x111C4     |       70084 |
|      13 | 0x03E7      |         999 |
|      14 | 0xFFFCF5AB  |  4294768043 |
|      15 | 0x10E7C     |       69244 |
|      16 | 0xFFFD1680  |  4294776448 |
|      17 | 0xEC8E      |       60558 |

## Events

### Event 65535

#### Metadata

| Field        | Value   |
|--------------|---------|
| Entrypoint   | 0x0000  |
| Data Size    | 1 bytes |
| Instructions | 1       |

```
      00 01 02 03 04 05 06 07  08 09 0A 0B 0C 0D 0E 0F
      -- -- -- -- -- -- -- --  -- -- -- -- -- -- -- --
0000: 00                                                .               
```

#### Opcodes

```
  0: 0x0000 [0x00] END_REQSTACK()
```

### Event 1

#### Metadata

| Field        | Value   |
|--------------|---------|
| Entrypoint   | 0x0001  |
| Data Size    | 1 bytes |
| Instructions | 1       |

```
      00 01 02 03 04 05 06 07  08 09 0A 0B 0C 0D 0E 0F
      -- -- -- -- -- -- -- --  -- -- -- -- -- -- -- --
0000:    00                                              .              
```

#### Opcodes

```
  0: 0x0001 [0x00] END_REQSTACK()
```

### Event 65535.1

#### Metadata

| Field        | Value    |
|--------------|----------|
| Entrypoint   | 0x0002   |
| Data Size    | 13 bytes |
| Instructions | 3        |

```
      00 01 02 03 04 05 06 07  08 09 0A 0B 0C 0D 0E 0F
      -- -- -- -- -- -- -- --  -- -- -- -- -- -- -- --
0000:       6E 26 C3 05 01 00  80 99 26 C3 05 01 00       n&......&.... 
```

#### Opcodes

```
  0: 0x0002 [0x6E] HeishiA (ID: 17154854/0x0105C326) uses emote 25*
  1: 0x0009 [0x99] Wait for HeishiA (ID: 17154854/0x0105C326) animation to complete
  2: 0x000E [0x00] END_REQSTACK()
```

### Event 65535.2

#### Metadata

| Field        | Value    |
|--------------|----------|
| Entrypoint   | 0x000F   |
| Data Size    | 43 bytes |
| Instructions | 11       |

```
      00 01 02 03 04 05 06 07  08 09 0A 0B 0C 0D 0E 0F
      -- -- -- -- -- -- -- --  -- -- -- -- -- -- -- --
0000:                                               32                 2
0010: 01 80 1F 00 02 80 03 80  04 80 1F 01 32 05 80 1F  ............2...
0020: 00 06 80 07 80 04 80 1F  01 6F 1C 08 80 6E 26 C3  .........o...n&.
0030: 05 01 09 80 99 26 C3 05  01 00                    .....&....      
```

#### Opcodes

```
  0: 0x000F [0x32] ExtData[1]->MainSpeed = 41* * 0.1
  1: 0x0012 [0x1F] MOVE_ENTITY: EventEntity moves to X=-215.426*, Z=64.405*, Y=1.003*
  2: 0x001A [0x1F] MOVE_ENTITY: Update entity position (mode=1)
  3: 0x001C [0x32] ExtData[1]->MainSpeed = 13* * 0.1
  4: 0x001F [0x1F] MOVE_ENTITY: EventEntity moves to X=-216.439*, Z=63.525*, Y=1.003*
  5: 0x0027 [0x1F] MOVE_ENTITY: Update entity position (mode=1)
  6: 0x0029 [0x6F] WAIT_FRAME_DELAY: Yield until WaitTime reaches zero
  7: 0x002A [0x1C] WAIT(60* ticks)
  8: 0x002D [0x6E] HeishiA (ID: 17154854/0x0105C326) uses emote 258*
  9: 0x0034 [0x99] Wait for HeishiA (ID: 17154854/0x0105C326) animation to complete
 10: 0x0039 [0x00] END_REQSTACK()
```

### Event 65535.3

#### Metadata

| Field        | Value    |
|--------------|----------|
| Entrypoint   | 0x003A   |
| Data Size    | 34 bytes |
| Instructions | 8        |

```
      00 01 02 03 04 05 06 07  08 09 0A 0B 0C 0D 0E 0F
      -- -- -- -- -- -- -- --  -- -- -- -- -- -- -- --
0030:                                32 0A 80 1F 00 0B            2.....
0040: 80 0C 80 0D 80 1F 01 1F  00 0E 80 0F 80 0D 80 1F  ................
0050: 01 1F 00 10 80 11 80 0D  80 1F 01 00              ............    
```

#### Opcodes

```
  0: 0x003A [0x32] ExtData[1]->MainSpeed = 40* * 0.1
  1: 0x003D [0x1F] MOVE_ENTITY: EventEntity moves to X=-207.400*, Z=70.084*, Y=0.999*
  2: 0x0045 [0x1F] MOVE_ENTITY: Update entity position (mode=1)
  3: 0x0047 [0x1F] MOVE_ENTITY: EventEntity moves to X=-199.253*, Z=69.244*, Y=0.999*
  4: 0x004F [0x1F] MOVE_ENTITY: Update entity position (mode=1)
  5: 0x0051 [0x1F] MOVE_ENTITY: EventEntity moves to X=-190.848*, Z=60.558*, Y=0.999*
  6: 0x0059 [0x1F] MOVE_ENTITY: Update entity position (mode=1)
  7: 0x005B [0x00] END_REQSTACK()
```
