# 0x7FFFFFF0 - Zone Events

## Common Data

| Field            | Value                 |
|------------------|-----------------------|
| Zone             | Beadeaux [S] (ID: 92) |
| Block Size       | 5980 bytes            |
| Total Events     | 11                    |
| References Count | 157                   |

## List of Events

| Event ID                 | Entrypoint   |   Size |   Instructions |
|--------------------------|--------------|--------|----------------|
| [65535](#event-65535)    | 0x0000       |      1 |              1 |
| [65534](#event-65534)    | 0x0001       |      1 |              1 |
| [65535.1](#event-655351) | 0x0002       |     19 |              5 |
| [65535.2](#event-655352) | 0x0015       |      6 |              2 |
| [65535.3](#event-655353) | 0x001B       |     16 |              3 |
| [65535.4](#event-655354) | 0x002B       |     16 |              3 |
| [32000](#event-32000)    | 0x003B       |   2162 |            413 |
| [32002](#event-32002)    | 0x08AD       |    494 |             83 |
| [32001](#event-32001)    | 0x0A9B       |    819 |            139 |
| [32003](#event-32003)    | 0x0DCE       |    435 |             77 |
| [32004](#event-32004)    | 0x0F81       |   1322 |            172 |

## DAT References (imed_data)

|   Index | Hex Value   |   Dec Value |
|---------|-------------|-------------|
|       0 | 0x0028      |          40 |
|       1 | 0xFFFCAC2C  |  4294749228 |
|       2 | 0xFD45      |       64837 |
|       3 | 0x03E9      |        1001 |
|       4 | 0x0000      |           0 |
|       5 | 0x0001      |           1 |
|       6 | 0x0080      |         128 |
|       7 | 0x000F      |          15 |
|       8 | 0x0010      |          16 |
|       9 | 0x001F      |          31 |
|      10 | 0xFFFFFFFF  |  4294967295 |
|      11 | 0x1F22      |        7970 |
|      12 | 0x1F15      |        7957 |
|      13 | 0x0005      |           5 |
|      14 | 0x0002      |           2 |
|      15 | 0x0003      |           3 |
|      16 | 0x0004      |           4 |
|      17 | 0x1DA6      |        7590 |
|      18 | 0x00FF      |         255 |
|      19 | 0x00C8      |         200 |
|      20 | 0x0013      |          19 |
|      21 | 0x0008      |           8 |
|      22 | 0x0009      |           9 |
|      23 | 0x000B      |          11 |
|      24 | 0x83F03     |      540419 |
|      25 | 0x50384     |      328580 |
|      26 | 0xFFFF63B0  |  4294927280 |
|      27 | 0x0C00      |        3072 |
|      28 | 0x531D0     |      340432 |
|      29 | 0xFFFB3F4B  |  4294655819 |
|      30 | 0xFFFE2B32  |  4294847282 |
|      31 | 0xFFFB3FBE  |  4294655934 |
|      32 | 0xFFFCF2AE  |  4294767278 |
|      33 | 0x1DB1      |        7601 |
|      34 | 0x1DB2      |        7602 |
|      35 | 0x1DB3      |        7603 |
|      36 | 0x1DB4      |        7604 |
|      37 | 0x1DD8      |        7640 |
|      38 | 0x0006      |           6 |
|      39 | 0x0012      |          18 |
|      40 | 0x0007      |           7 |
|      41 | 0x000A      |          10 |
|      42 | 0x000C      |          12 |
|      43 | 0x000D      |          13 |
|      44 | 0x000E      |          14 |
|      45 | 0x0011      |          17 |
|      46 | 0x0014      |          20 |
|      47 | 0x0015      |          21 |
|      48 | 0x0016      |          22 |
|      49 | 0x0017      |          23 |
|      50 | 0x0018      |          24 |
|      51 | 0x0019      |          25 |
|      52 | 0x001A      |          26 |
|      53 | 0x001B      |          27 |
|      54 | 0x001C      |          28 |
|      55 | 0x001D      |          29 |
|      56 | 0x001E      |          30 |
|      57 | 0x1F0D      |        7949 |
|      58 | 0x003C      |          60 |
|      59 | 0x0064      |         100 |
|      60 | 0x1EF9      |        7929 |
|      61 | 0x00D9      |         217 |
|      62 | 0x1DA9      |        7593 |
|      63 | 0x00C9      |         201 |
|      64 | 0x00B4      |         180 |
|      65 | 0xFFF6C42B  |  4294362155 |
|      66 | 0x752B9     |      479929 |
|      67 | 0xFFFFA767  |  4294944615 |
|      68 | 0x03E0      |         992 |
|      69 | 0xFFFBFE43  |  4294704707 |
|      70 | 0x5C401     |      377857 |
|      71 | 0xFFFDE79F  |  4294829983 |
|      72 | 0x0D92      |        3474 |
|      73 | 0x47AC      |       18348 |
|      74 | 0x76E1C     |      486940 |
|      75 | 0xFFFC93B2  |  4294742962 |
|      76 | 0x00C2      |         194 |
|      77 | 0x388A9     |      231593 |
|      78 | 0x57E9E     |      360094 |
|      79 | 0xFFFD59FC  |  4294793724 |
|      80 | 0x0726      |        1830 |
|      81 | 0x872C0     |      553664 |
|      82 | 0x7FEA3     |      523939 |
|      83 | 0xFFFF6AC3  |  4294929091 |
|      84 | 0x0A65      |        2661 |
|      85 | 0x49310     |      299792 |
|      86 | 0x8CCF      |       36047 |
|      87 | 0x9C81      |       40065 |
|      88 | 0x03DF      |         991 |
|      89 | 0xFFF2A593  |  4294092179 |
|      90 | 0xFFFF548C  |  4294923404 |
|      91 | 0xFFFF442C  |  4294919212 |
|      92 | 0x0201      |         513 |
|      93 | 0xFFF478D5  |  4294211797 |
|      94 | 0x89AEB     |      563947 |
|      95 | 0xFFFE4A5D  |  4294855261 |
|      96 | 0x0DEF      |        3567 |
|      97 | 0x1E173     |      123251 |
|      98 | 0xB8221     |      754209 |
|      99 | 0xFFFD5FA4  |  4294795172 |
|     100 | 0x01B8      |         440 |
|     101 | 0xFFF81ECC  |  4294450892 |
|     102 | 0xFFF3BE05  |  4294163973 |
|     103 | 0x5E8E      |       24206 |
|     104 | 0x01B5      |         437 |
|     105 | 0x012C      |         300 |
|     106 | 0xFFF690A7  |  4294348967 |
|     107 | 0xFFF62CE4  |  4294323428 |
|     108 | 0xFFFF9B33  |  4294941491 |
|     109 | 0x0EB1      |        3761 |
|     110 | 0xFFFAEE7D  |  4294635133 |
|     111 | 0xFFF941C6  |  4294525382 |
|     112 | 0xFFFE8CB1  |  4294872241 |
|     113 | 0x0EB0      |        3760 |
|     114 | 0xFFFFCF50  |  4294954832 |
|     115 | 0xFFF61B47  |  4294318919 |
|     116 | 0xFFFD07BB  |  4294772667 |
|     117 | 0x0EBA      |        3770 |
|     118 | 0x4EF35     |      323381 |
|     119 | 0xFFF93A6F  |  4294523503 |
|     120 | 0xFFFE5868  |  4294858856 |
|     121 | 0x0EA0      |        3744 |
|     122 | 0x92763     |      599907 |
|     123 | 0xFFF5AB97  |  4294290327 |
|     124 | 0xFFFFA837  |  4294944823 |
|     125 | 0x0EB3      |        3763 |
|     126 | 0x36BA7     |      224167 |
|     127 | 0xFFFFAFE9  |  4294946793 |
|     128 | 0x05E9      |        1513 |
|     129 | 0x087C      |        2172 |
|     130 | 0x00A8      |         168 |
|     131 | 0x30D7B     |      200059 |
|     132 | 0xFFFFAA3A  |  4294945338 |
|     133 | 0xFFFFFF06  |  4294967046 |
|     134 | 0x0411      |        1041 |
|     135 | 0x1EFB      |        7931 |
|     136 | 0x1EFA      |        7930 |
|     137 | 0x1F1E      |        7966 |
|     138 | 0x49265     |      299621 |
|     139 | 0x96F5      |       38645 |
|     140 | 0x9B45      |       39749 |
|     141 | 0x0145      |         325 |
|     142 | 0x49217     |      299543 |
|     143 | 0xA4EE      |       42222 |
|     144 | 0x9C00      |       39936 |
|     145 | 0x0078      |         120 |
|     146 | 0x1DA7      |        7591 |
|     147 | 0x83C00     |      539648 |
|     148 | 0x4E960     |      321888 |
|     149 | 0xFFFF6315  |  4294927125 |
|     150 | 0x0406      |        1030 |
|     151 | 0x83BBE     |      539582 |
|     152 | 0x4D6ED     |      317165 |
|     153 | 0xFFFF63FF  |  4294927359 |
|     154 | 0x006C      |         108 |
|     155 | 0x002D      |          45 |
|     156 | 0x00D7      |         215 |

## String References

- **7590**: Enter the battlefield? [Enter./Decline.]
- **7591**: Leave the battlefield? [Run away./Stay.]
- **7593**: You cannot enter the battlefield at present. Please wait a little longer.
- **7601**: You are cleared to enter the battlefield, but you cannot while party members are engaged in combat.
- **7602**: You are cleared to enter the battlefield, but you cannot while party members are engaged in combat.
- **7603**: You are cleared to enter the battlefield, but you cannot while party members are engaged in combat.
- **7604**: You are cleared to enter the battlefield, but you cannot while party members are engaged in combat.
- **7640**: You do not meet the requirements to enter the battlefield. Access is denied.
- **7929**: Skip the event? [Yes./No.]
- **7930**: Battlefield clear time: $3 second[/s]!
- **7931**: Battlefield clear time: $3 minute[/s], $2 second[/s]!
- **7949**: Only $3 [member/members] have clearance to enter the battlefield. This room has reached its maximum capacity.
- **7957**: Select difficulty. [Very difficult. (Level: ???)/Difficult. (Level: ???)/Normal. (Level: $18)/Easy. (Level: $17)/Very Easy. (Level: $16)/Leave.]
- **7966**: You have broken the clear time record for "[Cracking Shells (B)/The Buried God]"!
- **7970**: Which battlefield will you enter? [None./Cracking Shells (B)./The Buried God./././././././././././././././././././././././././././././]

## Events

### Event 65535

#### Metadata

| Field        | Value   |
|--------------|---------|
| Entrypoint   | 0x0000  |
| Data Size    | 1 bytes |
| Instructions | 1       |

```
      00 01 02 03 04 05 06 07  08 09 0A 0B 0C 0D 0E 0F
      -- -- -- -- -- -- -- --  -- -- -- -- -- -- -- --
0000: 00                                                .               
```

#### Opcodes

```
  0: 0x0000 [0x00] END_REQSTACK()
```

### Event 65534

#### Metadata

| Field        | Value   |
|--------------|---------|
| Entrypoint   | 0x0001  |
| Data Size    | 1 bytes |
| Instructions | 1       |

```
      00 01 02 03 04 05 06 07  08 09 0A 0B 0C 0D 0E 0F
      -- -- -- -- -- -- -- --  -- -- -- -- -- -- -- --
0000:    00                                              .              
```

#### Opcodes

```
  0: 0x0001 [0x00] END_REQSTACK()
```

### Event 65535.1

#### Metadata

| Field        | Value    |
|--------------|----------|
| Entrypoint   | 0x0002   |
| Data Size    | 19 bytes |
| Instructions | 5        |

```
      00 01 02 03 04 05 06 07  08 09 0A 0B 0C 0D 0E 0F
      -- -- -- -- -- -- -- --  -- -- -- -- -- -- -- --
0000:       32 00 80 1F 00 01  80 02 80 03 80 1F 01 1E    2.............
0010: 23 C3 05 01 00                                    #....           
```

#### Opcodes

```
  0: 0x0002 [0x32] ExtData[1]->MainSpeed = 40* * 0.1
  1: 0x0005 [0x1F] MOVE_ENTITY: EventEntity moves to X=-218.068*, Z=64.837*, Y=1.001*
  2: 0x000D [0x1F] MOVE_ENTITY: Update entity position (mode=1)
  3: 0x000F [0x1E] EventEntity looks at Rainer (ID: 17154851/0x0105C323) and starts talking
  4: 0x0014 [0x00] END_REQSTACK()
```

### Event 65535.2

#### Metadata

| Field        | Value   |
|--------------|---------|
| Entrypoint   | 0x0015  |
| Data Size    | 6 bytes |
| Instructions | 2       |

```
      00 01 02 03 04 05 06 07  08 09 0A 0B 0C 0D 0E 0F
      -- -- -- -- -- -- -- --  -- -- -- -- -- -- -- --
0010:                03 02 10  07 7F 00                      ......     
```

#### Opcodes

```
  0: 0x0015 [0x03] Work_Zone[2] = Entity->Race
  1: 0x001A [0x00] END_REQSTACK()
```

### Event 65535.3

#### Metadata

| Field        | Value    |
|--------------|----------|
| Entrypoint   | 0x001B   |
| Data Size    | 16 bytes |
| Instructions | 3        |

```
      00 01 02 03 04 05 06 07  08 09 0A 0B 0C 0D 0E 0F
      -- -- -- -- -- -- -- --  -- -- -- -- -- -- -- --
0010:                                   6C F0 FF FF 7F             l....
0020: 04 80 05 80 92 01 F0 FF  FF 7F 00                 ...........     
```

#### Opcodes

```
  0: 0x001B [0x6C] FADE_ENTITY_COLOR(entity_id=LocalPlayer, end_alpha=0*, fade_time=1*)
  1: 0x0024 [0x92] LocalPlayer->Render.Flags3 ^= 0x01
  2: 0x002A [0x00] END_REQSTACK()
```

### Event 65535.4

#### Metadata

| Field        | Value    |
|--------------|----------|
| Entrypoint   | 0x002B   |
| Data Size    | 16 bytes |
| Instructions | 3        |

```
      00 01 02 03 04 05 06 07  08 09 0A 0B 0C 0D 0E 0F
      -- -- -- -- -- -- -- --  -- -- -- -- -- -- -- --
0020:                                   6C F0 FF FF 7F             l....
0030: 06 80 05 80 92 00 F0 FF  FF 7F 00                 ...........     
```

#### Opcodes

```
  0: 0x002B [0x6C] FADE_ENTITY_COLOR(entity_id=LocalPlayer, end_alpha=128*, fade_time=1*)
  1: 0x0034 [0x92] LocalPlayer->Render.Flags3 = Flags3  // No change (flag=0)
  2: 0x003A [0x00] END_REQSTACK()
```

### Event 32000

#### Metadata

| Field        | Value      |
|--------------|------------|
| Entrypoint   | 0x003B     |
| Data Size    | 2162 bytes |
| Instructions | 287        |

```
      00 01 02 03 04 05 06 07  08 09 0A 0B 0C 0D 0E 0F
      -- -- -- -- -- -- -- --  -- -- -- -- -- -- -- --
0030:                                   20 01 79 00 F0              .y..
0040: FF FF 7F F0 FF FF 7F 03  02 00 02 10 03 03 00 03  ................
0050: 10 03 05 00 04 10 03 06  00 05 10 03 0F 00 06 10  ................
0060: 03 10 00 07 10 03 11 00  08 10 41 04 80 07 80 09  ..........A.....
0070: 10 07 00 41 08 80 09 80  09 10 06 10 06 01 00 02  ...A............
0080: 07 00 04 80 00 7B 01 03  08 00 0A 80 0F 08 00 06  .....{..........
0090: 00 10 08 00 05 80 24 0B  80 04 80 08 00 25 02 00  ......$......%..
00A0: 10 04 80 00 AC 00 01 92  08 01 7B 01 03 03 00 00  ..........{.....
00B0: 10 0C 03 00 06 15 00 3E  0F 00 03 00 57 01 06 0F  .......>....W...
00C0: 00 06 08 00 3E 11 00 03  00 CE 00 01 D5 00 3C 08  ....>.........<.
00D0: 00 04 80 05 80 3E 10 00  03 00 DF 00 01 E6 00 3C  .....>.........<
00E0: 08 00 05 80 05 80 1A 7F  11 24 0C 80 0D 80 08 00  .........$......
00F0: 25 02 00 10 04 80 00 01  01 03 0F 00 05 80 01 54  %..............T
0100: 01 02 00 10 05 80 00 11  01 03 0F 00 0E 80 01 54  ...............T
0110: 01 02 00 10 0E 80 00 21  01 03 0F 00 0F 80 01 54  .......!.......T
0120: 01 02 00 10 0F 80 00 31  01 03 0F 00 10 80 01 54  .......1.......T
0130: 01 02 00 10 10 80 00 41  01 03 0F 00 0D 80 01 54  .......A.......T
0140: 01 02 00 10 0D 80 00 4F  01 01 92 08 01 54 01 03  .......O.....T..
0150: 0F 00 0F 80 01 7B 01 06  0F 00 1A AC 08 02 15 00  .....{..........
0160: 05 80 00 7B 01 24 11 80  05 80 04 80 25 02 00 10  ...{.$......%...
0170: 05 80 00 7B 01 01 92 08  01 7B 01 42 03 01 10 12  ...{.....{.B....
0180: 80 43 00 43 01 06 01 10  45 13 80 F0 FF FF 7F F0  .C.C....E.......
0190: FF FF 7F 66 64 6F 31 04  80 55 13 80 F0 FF FF 7F  ...fdo1..U......
01A0: F0 FF FF 7F 66 64 6F 31  3B F0 FF FF 7F 25 10 26  ....fdo1;....%.&
01B0: 10 27 10 38 14 80 02 07  00 05 80 00 D5 01 03 00  .'.8............
01C0: 00 05 80 03 04 00 03 00  03 02 00 04 80 03 1B 00  ................
01D0: 04 80 01 C6 05 03 00 00  05 80 02 00 00 0F 80 05  ................
01E0: 5B 08 02 04 80 05 80 00  EF 01 03 00 00 05 00 40  [..............@
01F0: 04 80 0F 80 01 10 00 00  40 10 80 15 80 01 10 03  ........@.......
0200: 00 40 16 80 17 80 01 10  0F 00 06 02 10 06 03 10  .@..............
0210: 06 04 10 02 00 00 05 80  80 32 02 03 09 00 18 80  .........2......
0220: 03 0A 00 19 80 03 0B 00  1A 80 03 0C 00 1B 80 01  ................
0230: 8F 02 02 00 00 0E 80 80  51 02 03 09 00 1C 80 03  ........Q.......
0240: 0A 00 1D 80 03 0B 00 1E  80 03 0C 00 1B 80 01 8F  ................
0250: 02 02 00 00 0F 80 80 70  02 03 09 00 18 80 03 0A  .......p........
0260: 00 1F 80 03 0B 00 20 80  03 0C 00 1B 80 01 8F 02  ...... .........
0270: 02 00 00 10 80 80 8F 02  03 09 00 04 80 03 0A 00  ................
0280: 04 80 03 0B 00 04 80 03  0C 00 04 80 01 8F 02 47  ...............G
0290: 00 09 00 0A 00 0B 00 0C  00 47 01 03 04 00 03 10  .........G......
02A0: 03 02 00 04 10 03 19 00  05 10 03 0D 00 06 10 03  ................
02B0: 0E 00 07 10 03 1B 00 09  10 02 02 10 05 80 80 C4  ................
02C0: 02 01 48 08 02 02 10 10  80 80 0E 03 02 00 00 05  ..H.............
02D0: 80 80 DB 02 48 21 80 23  01 08 03 02 00 00 0E 80  ....H!.#........
02E0: 80 EA 02 48 22 80 23 01  08 03 02 00 00 0F 80 80  ...H".#.........
02F0: F9 02 48 23 80 23 01 08  03 02 00 00 10 80 80 08  ..H#.#..........
0300: 03 48 24 80 23 01 08 03  01 5F 08 01 48 08 02 02  .H$.#...._..H...
0310: 10 0D 80 80 20 03 48 25  80 23 01 5F 08 01 48 08  .... .H%.#._..H.
0320: 02 02 10 26 80 80 22 05  02 04 00 04 80 80 38 03  ...&..".......8.
0330: 03 05 10 26 80 01 18 05  02 04 00 05 80 80 48 03  ...&..........H.
0340: 03 05 10 27 80 01 18 05  02 04 00 0E 80 80 58 03  ...'..........X.
0350: 03 05 10 04 80 01 18 05  02 04 00 0F 80 80 68 03  ..............h.
0360: 03 05 10 04 80 01 18 05  02 04 00 10 80 80 78 03  ..............x.
0370: 03 05 10 04 80 01 18 05  02 04 00 0D 80 80 88 03  ................
0380: 03 05 10 04 80 01 18 05  02 04 00 26 80 80 98 03  ...........&....
0390: 03 05 10 04 80 01 18 05  02 04 00 28 80 80 A8 03  ...........(....
03A0: 03 05 10 04 80 01 18 05  02 04 00 15 80 80 B8 03  ................
03B0: 03 05 10 04 80 01 18 05  02 04 00 16 80 80 C8 03  ................
03C0: 03 05 10 04 80 01 18 05  02 04 00 29 80 80 D8 03  ...........)....
03D0: 03 05 10 04 80 01 18 05  02 04 00 17 80 80 E8 03  ................
03E0: 03 05 10 04 80 01 18 05  02 04 00 2A 80 80 F8 03  ...........*....
03F0: 03 05 10 04 80 01 18 05  02 04 00 2B 80 80 08 04  ...........+....
0400: 03 05 10 04 80 01 18 05  02 04 00 2C 80 80 18 04  ...........,....
0410: 03 05 10 04 80 01 18 05  02 04 00 07 80 80 28 04  ..............(.
0420: 03 05 10 04 80 01 18 05  02 04 00 08 80 80 38 04  ..............8.
0430: 03 05 10 04 80 01 18 05  02 04 00 2D 80 80 48 04  ...........-..H.
0440: 03 05 10 04 80 01 18 05  02 04 00 27 80 80 58 04  ...........'..X.
0450: 03 05 10 04 80 01 18 05  02 04 00 14 80 80 68 04  ..............h.
0460: 03 05 10 04 80 01 18 05  02 04 00 2E 80 80 78 04  ..............x.
0470: 03 05 10 04 80 01 18 05  02 04 00 2F 80 80 88 04  .........../....
0480: 03 05 10 04 80 01 18 05  02 04 00 30 80 80 98 04  ...........0....
0490: 03 05 10 04 80 01 18 05  02 04 00 31 80 80 A8 04  ...........1....
04A0: 03 05 10 04 80 01 18 05  02 04 00 32 80 80 B8 04  ...........2....
04B0: 03 05 10 04 80 01 18 05  02 04 00 33 80 80 C8 04  ...........3....
04C0: 03 05 10 04 80 01 18 05  02 04 00 34 80 80 D8 04  ...........4....
04D0: 03 05 10 04 80 01 18 05  02 04 00 35 80 80 E8 04  ...........5....
04E0: 03 05 10 04 80 01 18 05  02 04 00 36 80 80 F8 04  ...........6....
04F0: 03 05 10 04 80 01 18 05  02 04 00 37 80 80 08 05  ...........7....
0500: 03 05 10 04 80 01 18 05  02 04 00 38 80 80 18 05  ...........8....
0510: 03 05 10 04 80 01 18 05  48 39 80 23 01 5F 08 01  ........H9.#._..
0520: 48 08 02 02 10 0F 80 80  30 05 01 D5 01 01 48 08  H.......0.....H.
0530: 02 02 10 0E 80 80 48 08  02 0D 00 04 80 01 7C 05  ......H.......|.
0540: 03 05 10 19 00 02 19 00  04 80 02 64 05 02 19 00  ...........d....
0550: 3A 80 04 64 05 3F 04 10  05 10 3A 80 15 05 10 3A  :..d.?....:....:
0560: 80 01 64 05 02 0D 00 05  80 05 6F 05 01 7C 05 03  ..d.......o..|..
0570: 06 10 0D 00 0C 06 10 03  07 10 0D 00 03 03 00 04  ................
0580: 00 03 13 00 3B 80 07 13  00 03 00 02 02 00 13 00  ....;...........
0590: 00 9B 05 03 02 00 05 80  01 A0 05 03 02 00 04 80  ................
05A0: 02 02 00 04 80 00 C6 05  02 0E 00 05 80 00 C6 05  ................
05B0: 24 3C 80 05 80 04 80 25  02 00 10 04 80 00 C6 05  $<.....%........
05C0: 05 02 00 01 C6 05 06 14  00 02 04 00 04 80 80 D9  ................
05D0: 05 03 14 00 04 80 01 BE  07 02 04 00 05 80 80 E9  ................
05E0: 05 03 14 00 04 80 01 BE  07 02 04 00 0E 80 80 F9  ................
05F0: 05 03 14 00 04 80 01 BE  07 02 04 00 0F 80 80 09  ................
0600: 06 03 14 00 04 80 01 BE  07 02 04 00 10 80 80 19  ................
0610: 06 03 14 00 04 80 01 BE  07 02 04 00 0D 80 80 29  ...............)
0620: 06 03 14 00 04 80 01 BE  07 02 04 00 26 80 80 39  ............&..9
0630: 06 03 14 00 04 80 01 BE  07 02 04 00 28 80 80 49  ............(..I
0640: 06 03 14 00 04 80 01 BE  07 02 04 00 15 80 80 59  ...............Y
0650: 06 03 14 00 04 80 01 BE  07 02 04 00 16 80 80 69  ...............i
0660: 06 03 14 00 04 80 01 BE  07 02 04 00 29 80 80 79  ............)..y
0670: 06 03 14 00 04 80 01 BE  07 02 04 00 17 80 80 89  ................
0680: 06 03 14 00 04 80 01 BE  07 02 04 00 2A 80 80 99  ............*...
0690: 06 03 14 00 04 80 01 BE  07 02 04 00 2B 80 80 A9  ............+...
06A0: 06 03 14 00 04 80 01 BE  07 02 04 00 2C 80 80 B9  ............,...
06B0: 06 03 14 00 04 80 01 BE  07 02 04 00 07 80 80 C9  ................
06C0: 06 03 14 00 04 80 01 BE  07 02 04 00 08 80 80 D9  ................
06D0: 06 03 14 00 04 80 01 BE  07 02 04 00 2D 80 80 E9  ............-...
06E0: 06 03 14 00 04 80 01 BE  07 02 04 00 27 80 80 F9  ............'...
06F0: 06 03 14 00 04 80 01 BE  07 02 04 00 14 80 80 09  ................
0700: 07 03 14 00 04 80 01 BE  07 02 04 00 2E 80 80 19  ................
0710: 07 03 14 00 04 80 01 BE  07 02 04 00 2F 80 80 29  ............/..)
0720: 07 03 14 00 04 80 01 BE  07 02 04 00 30 80 80 39  ............0..9
0730: 07 03 14 00 04 80 01 BE  07 02 04 00 31 80 80 49  ............1..I
0740: 07 03 14 00 04 80 01 BE  07 02 04 00 32 80 80 59  ............2..Y
0750: 07 03 14 00 04 80 01 BE  07 02 04 00 33 80 80 69  ............3..i
0760: 07 03 14 00 04 80 01 BE  07 02 04 00 34 80 80 79  ............4..y
0770: 07 03 14 00 04 80 01 BE  07 02 04 00 35 80 80 89  ............5...
0780: 07 03 14 00 04 80 01 BE  07 02 04 00 36 80 80 99  ............6...
0790: 07 03 14 00 04 80 01 BE  07 02 04 00 37 80 80 A9  ............7...
07A0: 07 03 14 00 04 80 01 BE  07 02 04 00 38 80 80 B9  ............8...
07B0: 07 03 14 00 04 80 01 BE  07 03 14 00 04 80 02 02  ................
07C0: 00 05 80 00 D9 07 5C 00  3D 80 5C 01 3D 80 5C 02  ......\.=.\.=.\.
07D0: 3D 80 5C 03 3D 80 01 F1  07 02 14 00 04 80 00 F1  =.\.=...........
07E0: 07 5C 00 3D 80 5C 01 3D  80 5C 02 3D 80 5C 03 3D  .\.=.\.=.\.=.\.=
07F0: 80 02 02 00 04 80 00 FF  07 1A 9A 0F 01 38 08 6C  .............8.l
0800: F0 FF FF 7F 04 80 05 80  62 0E 80 F0 FF FF 7F F0  ........b.......
0810: FF FF 7F 6D 61 69 6E 04  80 45 13 80 F0 FF FF 7F  ...main..E......
0820: F0 FF FF 7F 6F 76 6C 31  04 80 46 02 12 00 02 12  ....ovl1..F.....
0830: 00 04 80 00 38 08 46 00  03 01 10 3B 80 07 01 10  ....8.F....;....
0840: 03 00 01 5F 08 01 48 08  0B 00 00 02 04 80 05 80  ..._..H.........
0850: 00 58 08 03 00 00 10 80  01 DA 01 48 3E 80 23 45  .X.........H>.#E
0860: 3F 80 F0 FF FF 7F F0 FF  FF 7F 77 68 69 31 04 80  ?.........whi1..
0870: 45 13 80 F0 FF FF 7F F0  FF FF 7F 62 6C 6F 66 04  E..........blof.
0880: 80 45 13 80 F0 FF FF 7F  F0 FF FF 7F 66 64 69 30  .E..........fdi0
0890: 04 80 02 07 00 05 80 00  AA 08 5C 00 04 80 5C 01  ..........\...\.
08A0: 04 80 5C 02 3D 80 5C 03  3D 80 21 00 1B           ..\.=.\.=.!..   
```

#### Opcodes

```
  0: 0x003B [0x20] SET_CLI_EVENT_UC_FLAG: Lock player control
  1: 0x003D [0x79] LocalPlayer looks at LocalPlayer (Basic look)
  2: 0x0047 [0x03] ExtData[1]->WorkLocal[2] = Work_Zone[2]
  3: 0x004C [0x03] ExtData[1]->WorkLocal[3] = Work_Zone[3]
  4: 0x0051 [0x03] ExtData[1]->WorkLocal[5] = Work_Zone[4]
  5: 0x0056 [0x03] ExtData[1]->WorkLocal[6] = Work_Zone[5]
  6: 0x005B [0x03] ExtData[1]->WorkLocal[15] = Work_Zone[6]
  7: 0x0060 [0x03] ExtData[1]->WorkLocal[16] = Work_Zone[7]
  8: 0x0065 [0x03] ExtData[1]->WorkLocal[17] = Work_Zone[8]
  9: 0x006A [0x41] ExtData[1]->WorkLocal[7] = Work_Zone[9] (bits 0*-15*)
 10: 0x0073 [0x41] Work_Zone[6] = Work_Zone[9] (bits 16*-31*)
 11: 0x007C [0x06] ExtData[1]->WorkLocal[1] = 0
 12: 0x007F [0x02] IF !(ExtData[1]->WorkLocal[7] == 0*) GOTO 0x017B
 13: 0x0087 [0x03] ExtData[1]->WorkLocal[8] = 4294967295*
 14: 0x008C [0x0F] ExtData[1]->WorkLocal[8] ^= ExtData[1]->WorkLocal[6]
 15: 0x0091 [0x10] ExtData[1]->WorkLocal[8] <<= 1*
 16: 0x0096 [0x24] CREATE_DIALOG(message_id=7970*, default_option=0*, option_flags=ExtData[1]->WorkLocal[8])
    → "Which battlefield will you enter? [None./Cracking Shells (B)./The Buried God./././././././././././././././././././././././././././././]"
 17: 0x009D [0x25] WAIT_DIALOG_SELECT()
 18: 0x009E [0x02] IF !(Work_Zone[0] == 0*) GOTO 0x00AC
 19: 0x00A6 [0x01] GOTO 0x0892

SUBROUTINE_00D5:
 20: 0x00D5 [0x3E] IF !(ExtData[1]->WorkLocal[16] bit ExtData[1]->WorkLocal[3]) GOTO 0x00DF
 21: 0x00DC [0x01] GOTO 0x00E6
 22: 0x00DF [0x3C] SET_BIT_FLAG_CONDITIONAL(target_work_offset=ExtData[1]->WorkLocal[8], bit_index_work_offset=1*, condition_work_offset=1*)

SUBROUTINE_00E6:
 23: 0x00E6 [0x1A] CALL_SUBROUTINE(address=0x117F)
 24: 0x00E9 [0x24] CREATE_DIALOG(message_id=7957*, default_option=5*, option_flags=ExtData[1]->WorkLocal[8])
    → "Select difficulty. [Very difficult. (Level: ???)/Difficult. (Level: ???)/Normal. (Level: $18)/Easy. (Level: $17)/Very Easy. (Level: $16)/Leave.]"
 25: 0x00F0 [0x25] WAIT_DIALOG_SELECT()
 26: 0x00F1 [0x02] IF !(Work_Zone[0] == 0*) GOTO 0x0101
 27: 0x00F9 [0x03] ExtData[1]->WorkLocal[15] = 1*
 28: 0x00FE [0x01] GOTO 0x0154
 29: 0x0101 [0x02] IF !(Work_Zone[0] == 1*) GOTO 0x0111
 30: 0x0109 [0x03] ExtData[1]->WorkLocal[15] = 2*
 31: 0x010E [0x01] GOTO 0x0154
 32: 0x0111 [0x02] IF !(Work_Zone[0] == 2*) GOTO 0x0121
 33: 0x0119 [0x03] ExtData[1]->WorkLocal[15] = 3*
 34: 0x011E [0x01] GOTO 0x0154
 35: 0x0121 [0x02] IF !(Work_Zone[0] == 3*) GOTO 0x0131
 36: 0x0129 [0x03] ExtData[1]->WorkLocal[15] = 4*
 37: 0x012E [0x01] GOTO 0x0154
 38: 0x0131 [0x02] IF !(Work_Zone[0] == 4*) GOTO 0x0141
 39: 0x0139 [0x03] ExtData[1]->WorkLocal[15] = 5*
 40: 0x013E [0x01] GOTO 0x0154
 41: 0x0141 [0x02] IF !(Work_Zone[0] == 5*) GOTO 0x014F
 42: 0x0149 [0x01] GOTO 0x0892

SUBROUTINE_0154:
 43: 0x0154 [0x01] GOTO 0x017B
 44: 0x0157 [0x06] ExtData[1]->WorkLocal[15] = 0
 45: 0x015A [0x1A] CALL_SUBROUTINE(address=0x08AC)
 46: 0x015D [0x02] IF !(ExtData[1]->WorkLocal[21] == 1*) GOTO 0x017B
 47: 0x0165 [0x24] CREATE_DIALOG(message_id=7590*, default_option=1*, option_flags=0*)
    → "Enter the battlefield? [Enter./Decline.]"
 48: 0x016C [0x25] WAIT_DIALOG_SELECT()
 49: 0x016D [0x02] IF !(Work_Zone[0] == 1*) GOTO 0x017B
 50: 0x0175 [0x01] GOTO 0x0892

SUBROUTINE_017B:
 51: 0x017B [0x42] SET_CLI_EVENT_CANCEL_DATA()
 52: 0x017C [0x03] Work_Zone[1] = 255*
 53: 0x0181 [0x43] SEND_EVENT_UPDATE: Send pending tag to server (packet 0x005B)
 54: 0x0183 [0x43] SEND_EVENT_UPDATE: Check pending flag (skip if not pending)
 55: 0x0185 [0x06] Work_Zone[1] = 0
 56: 0x0188 [0x45] LOAD_SCHEDULED_TASK: Load scheduler "fdo1" with entities [LocalPlayer, LocalPlayer], work=[200*, 0*]
 57: 0x0199 [0x55] WAIT_LOAD_SCHEDULER: Wait for scheduler "fdo1" with entities [LocalPlayer, LocalPlayer], work=200*
 58: 0x01A8 [0x3B] GET_ENTITY_POSITION(entity=LocalPlayer, x_destination=Work_Zone[37], y_destination=Work_Zone[38], z_destination=Work_Zone[39])
 59: 0x01B3 [0x38] SET_CLIENT_EVENT_MODE(mode=19*)
 60: 0x01B6 [0x02] IF !(ExtData[1]->WorkLocal[7] == 1*) GOTO 0x01D5
 61: 0x01BE [0x03] ExtData[1]->WorkLocal[0] = 1*
 62: 0x01C3 [0x03] ExtData[1]->WorkLocal[4] = ExtData[1]->WorkLocal[3]
 63: 0x01C8 [0x03] ExtData[1]->WorkLocal[2] = 0*
 64: 0x01CD [0x03] ExtData[1]->WorkLocal[27] = 0*
 65: 0x01D2 [0x01] GOTO 0x05C6

SUBROUTINE_01D5:
 66: 0x01D5 [0x03] ExtData[1]->WorkLocal[0] = 1*

SUBROUTINE_01DA:
 67: 0x01DA [0x02] IF !(ExtData[1]->WorkLocal[0] > 3*) GOTO 0x085B
 68: 0x01E2 [0x02] IF !(0* == 1*) GOTO 0x01EF
 69: 0x01EA [0x03] ExtData[1]->WorkLocal[0] = ExtData[1]->WorkLocal[5]
 70: 0x01EF [0x40] SET_BIT_WORK_RANGE(start_bit=0*, end_bit=3*, target=Work_Zone[1], source=ExtData[1]->WorkLocal[0])
 71: 0x01F8 [0x40] SET_BIT_WORK_RANGE(start_bit=4*, end_bit=8*, target=Work_Zone[1], source=ExtData[1]->WorkLocal[3])
 72: 0x0201 [0x40] SET_BIT_WORK_RANGE(start_bit=9*, end_bit=11*, target=Work_Zone[1], source=ExtData[1]->WorkLocal[15])
 73: 0x020A [0x06] Work_Zone[2] = 0
 74: 0x020D [0x06] Work_Zone[3] = 0
 75: 0x0210 [0x06] Work_Zone[4] = 0
 76: 0x0213 [0x02] IF !(ExtData[1]->WorkLocal[0] == 1*) GOTO 0x0232
 77: 0x021B [0x03] ExtData[1]->WorkLocal[9] = 540419*
 78: 0x0220 [0x03] ExtData[1]->WorkLocal[10] = 328580*
 79: 0x0225 [0x03] ExtData[1]->WorkLocal[11] = 4294927280*
 80: 0x022A [0x03] ExtData[1]->WorkLocal[12] = 3072*
 81: 0x022F [0x01] GOTO 0x028F
 82: 0x0232 [0x02] IF !(ExtData[1]->WorkLocal[0] == 2*) GOTO 0x0251
 83: 0x023A [0x03] ExtData[1]->WorkLocal[9] = 340432*
 84: 0x023F [0x03] ExtData[1]->WorkLocal[10] = 4294655819*
 85: 0x0244 [0x03] ExtData[1]->WorkLocal[11] = 4294847282*
 86: 0x0249 [0x03] ExtData[1]->WorkLocal[12] = 3072*
 87: 0x024E [0x01] GOTO 0x028F
 88: 0x0251 [0x02] IF !(ExtData[1]->WorkLocal[0] == 3*) GOTO 0x0270
 89: 0x0259 [0x03] ExtData[1]->WorkLocal[9] = 540419*
 90: 0x025E [0x03] ExtData[1]->WorkLocal[10] = 4294655934*
 91: 0x0263 [0x03] ExtData[1]->WorkLocal[11] = 4294767278*
 92: 0x0268 [0x03] ExtData[1]->WorkLocal[12] = 3072*
 93: 0x026D [0x01] GOTO 0x028F
 94: 0x0270 [0x02] IF !(ExtData[1]->WorkLocal[0] == 4*) GOTO 0x028F
 95: 0x0278 [0x03] ExtData[1]->WorkLocal[9] = 0*
 96: 0x027D [0x03] ExtData[1]->WorkLocal[10] = 0*
 97: 0x0282 [0x03] ExtData[1]->WorkLocal[11] = 0*
 98: 0x0287 [0x03] ExtData[1]->WorkLocal[12] = 0*
 99: 0x028C [0x01] GOTO 0x028F

SUBROUTINE_028F:
100: 0x028F [0x47] UPDATE_PLAYER_POS(ExtData[1]->WorkLocal[9], ExtData[1]->WorkLocal[10], ExtData[1]->WorkLocal[11], yaw=ExtData[1]->WorkLocal[12])
101: 0x0299 [0x47] WAIT_PLAYER_POS_UPDATE
102: 0x029B [0x03] ExtData[1]->WorkLocal[4] = Work_Zone[3]
103: 0x02A0 [0x03] ExtData[1]->WorkLocal[2] = Work_Zone[4]
104: 0x02A5 [0x03] ExtData[1]->WorkLocal[25] = Work_Zone[5]
105: 0x02AA [0x03] ExtData[1]->WorkLocal[13] = Work_Zone[6]
106: 0x02AF [0x03] ExtData[1]->WorkLocal[14] = Work_Zone[7]
107: 0x02B4 [0x03] ExtData[1]->WorkLocal[27] = Work_Zone[9]
108: 0x02B9 [0x02] IF !(Work_Zone[2] == 1*) GOTO 0x02C4
109: 0x02C1 [0x01] GOTO 0x0848
110: 0x02C4 [0x02] IF !(Work_Zone[2] == 4*) GOTO 0x030E
111: 0x02CC [0x02] IF !(ExtData[1]->WorkLocal[0] == 1*) GOTO 0x02DB
112: 0x02D4 [0x48] [System] [7601*]:
    → "You are cleared to enter the battlefield, but you cannot while party members are engaged in combat."
113: 0x02D7 [0x23] WAIT_FOR_DIALOG_INTERACTION
114: 0x02D8 [0x01] GOTO 0x0308
115: 0x02DB [0x02] IF !(ExtData[1]->WorkLocal[0] == 2*) GOTO 0x02EA
116: 0x02E3 [0x48] [System] [7602*]:
    → "You are cleared to enter the battlefield, but you cannot while party members are engaged in combat."
117: 0x02E6 [0x23] WAIT_FOR_DIALOG_INTERACTION
118: 0x02E7 [0x01] GOTO 0x0308
119: 0x02EA [0x02] IF !(ExtData[1]->WorkLocal[0] == 3*) GOTO 0x02F9
120: 0x02F2 [0x48] [System] [7603*]:
    → "You are cleared to enter the battlefield, but you cannot while party members are engaged in combat."
121: 0x02F5 [0x23] WAIT_FOR_DIALOG_INTERACTION
122: 0x02F6 [0x01] GOTO 0x0308
123: 0x02F9 [0x02] IF !(ExtData[1]->WorkLocal[0] == 4*) GOTO 0x0308
124: 0x0301 [0x48] [System] [7604*]:
    → "You are cleared to enter the battlefield, but you cannot while party members are engaged in combat."
125: 0x0304 [0x23] WAIT_FOR_DIALOG_INTERACTION
126: 0x0305 [0x01] GOTO 0x0308

SUBROUTINE_0308:
127: 0x0308 [0x01] GOTO 0x085F

SUBROUTINE_0518:
128: 0x0518 [0x48] [System] [7949*]:
    → "Only $3 [member/members] have clearance to enter the battlefield. This room has reached its maximum capacity."
129: 0x051B [0x23] WAIT_FOR_DIALOG_INTERACTION
130: 0x051C [0x01] GOTO 0x085F

SUBROUTINE_0564:
131: 0x0564 [0x02] IF !(ExtData[1]->WorkLocal[13] > 1*) GOTO 0x056F
132: 0x056C [0x01] GOTO 0x057C
133: 0x056F [0x03] Work_Zone[6] = ExtData[1]->WorkLocal[13]
134: 0x0574 [0x0C] Work_Zone[6]--
135: 0x0577 [0x03] Work_Zone[7] = ExtData[1]->WorkLocal[13]

SUBROUTINE_057C:
136: 0x057C [0x03] ExtData[1]->WorkLocal[3] = ExtData[1]->WorkLocal[4]
137: 0x0581 [0x03] ExtData[1]->WorkLocal[19] = 100*
138: 0x0586 [0x07] ExtData[1]->WorkLocal[19] += ExtData[1]->WorkLocal[3]
139: 0x058B [0x02] IF !(ExtData[1]->WorkLocal[2] == ExtData[1]->WorkLocal[19]) GOTO 0x059B
140: 0x0593 [0x03] ExtData[1]->WorkLocal[2] = 1*
141: 0x0598 [0x01] GOTO 0x05A0
142: 0x059B [0x03] ExtData[1]->WorkLocal[2] = 0*

SUBROUTINE_05A0:
143: 0x05A0 [0x02] IF !(ExtData[1]->WorkLocal[2] == 0*) GOTO 0x05C6
144: 0x05A8 [0x02] IF !(ExtData[1]->WorkLocal[14] == 1*) GOTO 0x05C6
145: 0x05B0 [0x24] CREATE_DIALOG(message_id=7929*, default_option=1*, option_flags=0*)
    → "Skip the event? [Yes./No.]"
146: 0x05B7 [0x25] WAIT_DIALOG_SELECT()
147: 0x05B8 [0x02] IF !(Work_Zone[0] == 0*) GOTO 0x05C6
148: 0x05C0 [0x05] ExtData[1]->WorkLocal[2] = 1
149: 0x05C3 [0x01] GOTO 0x05C6

SUBROUTINE_05C6:
150: 0x05C6 [0x06] ExtData[1]->WorkLocal[20] = 0
151: 0x05C9 [0x02] IF !(ExtData[1]->WorkLocal[4] == 0*) GOTO 0x05D9
152: 0x05D1 [0x03] ExtData[1]->WorkLocal[20] = 0*
153: 0x05D6 [0x01] GOTO 0x07BE
154: 0x05D9 [0x02] IF !(ExtData[1]->WorkLocal[4] == 1*) GOTO 0x05E9
155: 0x05E1 [0x03] ExtData[1]->WorkLocal[20] = 0*
156: 0x05E6 [0x01] GOTO 0x07BE
157: 0x05E9 [0x02] IF !(ExtData[1]->WorkLocal[4] == 2*) GOTO 0x05F9
158: 0x05F1 [0x03] ExtData[1]->WorkLocal[20] = 0*
159: 0x05F6 [0x01] GOTO 0x07BE
160: 0x05F9 [0x02] IF !(ExtData[1]->WorkLocal[4] == 3*) GOTO 0x0609
161: 0x0601 [0x03] ExtData[1]->WorkLocal[20] = 0*
162: 0x0606 [0x01] GOTO 0x07BE
163: 0x0609 [0x02] IF !(ExtData[1]->WorkLocal[4] == 4*) GOTO 0x0619
164: 0x0611 [0x03] ExtData[1]->WorkLocal[20] = 0*
165: 0x0616 [0x01] GOTO 0x07BE
166: 0x0619 [0x02] IF !(ExtData[1]->WorkLocal[4] == 5*) GOTO 0x0629
167: 0x0621 [0x03] ExtData[1]->WorkLocal[20] = 0*
168: 0x0626 [0x01] GOTO 0x07BE
169: 0x0629 [0x02] IF !(ExtData[1]->WorkLocal[4] == 6*) GOTO 0x0639
170: 0x0631 [0x03] ExtData[1]->WorkLocal[20] = 0*
171: 0x0636 [0x01] GOTO 0x07BE
172: 0x0639 [0x02] IF !(ExtData[1]->WorkLocal[4] == 7*) GOTO 0x0649
173: 0x0641 [0x03] ExtData[1]->WorkLocal[20] = 0*
174: 0x0646 [0x01] GOTO 0x07BE
175: 0x0649 [0x02] IF !(ExtData[1]->WorkLocal[4] == 8*) GOTO 0x0659
176: 0x0651 [0x03] ExtData[1]->WorkLocal[20] = 0*
177: 0x0656 [0x01] GOTO 0x07BE
178: 0x0659 [0x02] IF !(ExtData[1]->WorkLocal[4] == 9*) GOTO 0x0669
179: 0x0661 [0x03] ExtData[1]->WorkLocal[20] = 0*
180: 0x0666 [0x01] GOTO 0x07BE
181: 0x0669 [0x02] IF !(ExtData[1]->WorkLocal[4] == 10*) GOTO 0x0679
182: 0x0671 [0x03] ExtData[1]->WorkLocal[20] = 0*
183: 0x0676 [0x01] GOTO 0x07BE
184: 0x0679 [0x02] IF !(ExtData[1]->WorkLocal[4] == 11*) GOTO 0x0689
185: 0x0681 [0x03] ExtData[1]->WorkLocal[20] = 0*
186: 0x0686 [0x01] GOTO 0x07BE
187: 0x0689 [0x02] IF !(ExtData[1]->WorkLocal[4] == 12*) GOTO 0x0699
188: 0x0691 [0x03] ExtData[1]->WorkLocal[20] = 0*
189: 0x0696 [0x01] GOTO 0x07BE
190: 0x0699 [0x02] IF !(ExtData[1]->WorkLocal[4] == 13*) GOTO 0x06A9
191: 0x06A1 [0x03] ExtData[1]->WorkLocal[20] = 0*
192: 0x06A6 [0x01] GOTO 0x07BE
193: 0x06A9 [0x02] IF !(ExtData[1]->WorkLocal[4] == 14*) GOTO 0x06B9
194: 0x06B1 [0x03] ExtData[1]->WorkLocal[20] = 0*
195: 0x06B6 [0x01] GOTO 0x07BE
196: 0x06B9 [0x02] IF !(ExtData[1]->WorkLocal[4] == 15*) GOTO 0x06C9
197: 0x06C1 [0x03] ExtData[1]->WorkLocal[20] = 0*
198: 0x06C6 [0x01] GOTO 0x07BE
199: 0x06C9 [0x02] IF !(ExtData[1]->WorkLocal[4] == 16*) GOTO 0x06D9
200: 0x06D1 [0x03] ExtData[1]->WorkLocal[20] = 0*
201: 0x06D6 [0x01] GOTO 0x07BE
202: 0x06D9 [0x02] IF !(ExtData[1]->WorkLocal[4] == 17*) GOTO 0x06E9
203: 0x06E1 [0x03] ExtData[1]->WorkLocal[20] = 0*
204: 0x06E6 [0x01] GOTO 0x07BE
205: 0x06E9 [0x02] IF !(ExtData[1]->WorkLocal[4] == 18*) GOTO 0x06F9
206: 0x06F1 [0x03] ExtData[1]->WorkLocal[20] = 0*
207: 0x06F6 [0x01] GOTO 0x07BE
208: 0x06F9 [0x02] IF !(ExtData[1]->WorkLocal[4] == 19*) GOTO 0x0709
209: 0x0701 [0x03] ExtData[1]->WorkLocal[20] = 0*
210: 0x0706 [0x01] GOTO 0x07BE
211: 0x0709 [0x02] IF !(ExtData[1]->WorkLocal[4] == 20*) GOTO 0x0719
212: 0x0711 [0x03] ExtData[1]->WorkLocal[20] = 0*
213: 0x0716 [0x01] GOTO 0x07BE
214: 0x0719 [0x02] IF !(ExtData[1]->WorkLocal[4] == 21*) GOTO 0x0729
215: 0x0721 [0x03] ExtData[1]->WorkLocal[20] = 0*
216: 0x0726 [0x01] GOTO 0x07BE
217: 0x0729 [0x02] IF !(ExtData[1]->WorkLocal[4] == 22*) GOTO 0x0739
218: 0x0731 [0x03] ExtData[1]->WorkLocal[20] = 0*
219: 0x0736 [0x01] GOTO 0x07BE
220: 0x0739 [0x02] IF !(ExtData[1]->WorkLocal[4] == 23*) GOTO 0x0749
221: 0x0741 [0x03] ExtData[1]->WorkLocal[20] = 0*
222: 0x0746 [0x01] GOTO 0x07BE
223: 0x0749 [0x02] IF !(ExtData[1]->WorkLocal[4] == 24*) GOTO 0x0759
224: 0x0751 [0x03] ExtData[1]->WorkLocal[20] = 0*
225: 0x0756 [0x01] GOTO 0x07BE
226: 0x0759 [0x02] IF !(ExtData[1]->WorkLocal[4] == 25*) GOTO 0x0769
227: 0x0761 [0x03] ExtData[1]->WorkLocal[20] = 0*
228: 0x0766 [0x01] GOTO 0x07BE
229: 0x0769 [0x02] IF !(ExtData[1]->WorkLocal[4] == 26*) GOTO 0x0779
230: 0x0771 [0x03] ExtData[1]->WorkLocal[20] = 0*
231: 0x0776 [0x01] GOTO 0x07BE
232: 0x0779 [0x02] IF !(ExtData[1]->WorkLocal[4] == 27*) GOTO 0x0789
233: 0x0781 [0x03] ExtData[1]->WorkLocal[20] = 0*
234: 0x0786 [0x01] GOTO 0x07BE
235: 0x0789 [0x02] IF !(ExtData[1]->WorkLocal[4] == 28*) GOTO 0x0799
236: 0x0791 [0x03] ExtData[1]->WorkLocal[20] = 0*
237: 0x0796 [0x01] GOTO 0x07BE
238: 0x0799 [0x02] IF !(ExtData[1]->WorkLocal[4] == 29*) GOTO 0x07A9
239: 0x07A1 [0x03] ExtData[1]->WorkLocal[20] = 0*
240: 0x07A6 [0x01] GOTO 0x07BE
241: 0x07A9 [0x02] IF !(ExtData[1]->WorkLocal[4] == 30*) GOTO 0x07B9
242: 0x07B1 [0x03] ExtData[1]->WorkLocal[20] = 0*
243: 0x07B6 [0x01] GOTO 0x07BE
244: 0x07B9 [0x03] ExtData[1]->WorkLocal[20] = 0*

SUBROUTINE_07BE:
245: 0x07BE [0x02] IF !(ExtData[1]->WorkLocal[2] == 1*) GOTO 0x07D9
246: 0x07C6 [0x5C] MUSIC_CONTROL: Set Idle (Day) music to song 217*
247: 0x07CA [0x5C] MUSIC_CONTROL: Set Idle (Night) music to song 217*
248: 0x07CE [0x5C] MUSIC_CONTROL: Set Combat (Solo) music to song 217*
249: 0x07D2 [0x5C] MUSIC_CONTROL: Set Combat (Party) music to song 217*
250: 0x07D6 [0x01] GOTO 0x07F1
251: 0x07D9 [0x02] IF !(ExtData[1]->WorkLocal[20] == 0*) GOTO 0x07F1
252: 0x07E1 [0x5C] MUSIC_CONTROL: Set Idle (Day) music to song 217*
253: 0x07E5 [0x5C] MUSIC_CONTROL: Set Idle (Night) music to song 217*
254: 0x07E9 [0x5C] MUSIC_CONTROL: Set Combat (Solo) music to song 217*
255: 0x07ED [0x5C] MUSIC_CONTROL: Set Combat (Party) music to song 217*

SUBROUTINE_07F1:
256: 0x07F1 [0x02] IF !(ExtData[1]->WorkLocal[2] == 0*) GOTO 0x07FF
257: 0x07F9 [0x1A] CALL_SUBROUTINE(address=0x0F9A)
258: 0x07FC [0x01] GOTO 0x0838
259: 0x07FF [0x6C] FADE_ENTITY_COLOR(entity_id=LocalPlayer, end_alpha=0*, fade_time=1*)
260: 0x0808 [0x62] LOAD_EVENT_SCHEDULER: Load scheduler "main" with entities [LocalPlayer, LocalPlayer], work=[2*, 0*]
261: 0x0819 [0x45] LOAD_SCHEDULED_TASK: Load scheduler "ovl1" with entities [LocalPlayer, LocalPlayer], work=[200*, 0*]
262: 0x082A [0x46] CAMERA_CONTROL: Query status
263: 0x082C [0x12] 0x0200 = rand()
264: 0x082F [0x12] 0x0400 = rand()
265: 0x0832 [0x80] LOAD_WAIT(entity=Unknown NPC (ID: 1174943744/0x46083800))
266: 0x0837 [0x00] END_REQSTACK()

SUBROUTINE_0838:
267: 0x0838 [0x03] Work_Zone[1] = 100*
268: 0x083D [0x07] Work_Zone[1] += ExtData[1]->WorkLocal[3]
269: 0x0842 [0x01] GOTO 0x085F

SUBROUTINE_0848:
270: 0x0848 [0x0B] ExtData[1]->WorkLocal[0]++
271: 0x084B [0x02] IF !(0* == 1*) GOTO 0x0858
272: 0x0853 [0x03] ExtData[1]->WorkLocal[0] = 4*
273: 0x0858 [0x01] GOTO 0x01DA
274: 0x085B [0x48] [System] [7593*]:
    → "You cannot enter the battlefield at present. Please wait a little longer."
275: 0x085E [0x23] WAIT_FOR_DIALOG_INTERACTION

SUBROUTINE_085F:
276: 0x085F [0x45] LOAD_SCHEDULED_TASK: Load scheduler "whi1" with entities [LocalPlayer, LocalPlayer], work=[201*, 0*]
277: 0x0870 [0x45] LOAD_SCHEDULED_TASK: Load scheduler "blof" with entities [LocalPlayer, LocalPlayer], work=[200*, 0*]
278: 0x0881 [0x45] LOAD_SCHEDULED_TASK: Load scheduler "fdi0" with entities [LocalPlayer, LocalPlayer], work=[200*, 0*]

SUBROUTINE_0892:
279: 0x0892 [0x02] IF !(ExtData[1]->WorkLocal[7] == 1*) GOTO 0x08AA
280: 0x089A [0x5C] MUSIC_CONTROL: Set Idle (Day) music to song 0*
281: 0x089E [0x5C] MUSIC_CONTROL: Set Idle (Night) music to song 0*
282: 0x08A2 [0x5C] MUSIC_CONTROL: Set Combat (Solo) music to song 217*
283: 0x08A6 [0x5C] MUSIC_CONTROL: Set Combat (Party) music to song 217*
284: 0x08AA [0x21] END_EVENT
285: 0x08AB [0x00] END_REQSTACK()

SUBROUTINE_08AC:
286: 0x08AC [0x1B] RETURN
```

#### Data or dead code:

```
# Dead code (unreachable instructions):
     0x00A9 [0x01] GOTO 0x017B
# Dead code (unreachable instructions):
     0x014C [0x01] GOTO 0x0154
# Dead code (unreachable instructions):
     0x0178 [0x01] GOTO 0x017B
# Dead code (unreachable instructions):
     0x030B [0x01] GOTO 0x0848
     0x031D [0x01] GOTO 0x0848
# Dead code (unreachable instructions):
     0x051F [0x01] GOTO 0x0848
     0x052D [0x01] GOTO 0x0848
# Dead code (unreachable instructions):
     0x0845 [0x01] GOTO 0x0848
```

### Event 32002

#### Metadata

| Field        | Value     |
|--------------|-----------|
| Entrypoint   | 0x08AD    |
| Data Size    | 494 bytes |
| Instructions | 83        |

```
      00 01 02 03 04 05 06 07  08 09 0A 0B 0C 0D 0E 0F
      -- -- -- -- -- -- -- --  -- -- -- -- -- -- -- --
08A0:                                         03 05 00               ...
08B0: 06 10 03 20 00 07 10 03  1F 00 08 10 20 01 42 3B  ... ........ .B;
08C0: F0 FF FF 7F 25 10 26 10  27 10 3A F0 FF FF 7F 28  ....%.&.'.:....(
08D0: 10 45 13 80 F0 FF FF 7F  F0 FF FF 7F 66 64 6F 31  .E..........fdo1
08E0: 04 80 55 13 80 F0 FF FF  7F F0 FF FF 7F 66 64 6F  ..U..........fdo
08F0: 31 02 04 80 05 80 00 58  09 02 05 00 05 80 80 10  1......X........
0900: 09 47 00 04 80 04 80 04  80 04 80 47 01 01 55 09  .G.........G..U.
0910: 02 05 00 0E 80 80 27 09  47 00 04 80 04 80 04 80  ......'.G.......
0920: 04 80 47 01 01 55 09 02  05 00 0F 80 80 3E 09 47  ..G..U.......>.G
0930: 00 04 80 04 80 04 80 04  80 47 01 01 55 09 02 05  .........G..U...
0940: 00 10 80 80 55 09 47 00  04 80 04 80 04 80 04 80  ....U.G.........
0950: 47 01 01 55 09 01 61 0A  02 1F 00 40 80 80 E2 09  G..U..a....@....
0960: 02 20 00 04 80 80 77 09  47 00 41 80 42 80 43 80  . ....w.G.A.B.C.
0970: 44 80 47 01 01 DF 09 02  20 00 05 80 80 8E 09 47  D.G..... ......G
0980: 00 45 80 46 80 47 80 48  80 47 01 01 DF 09 02 20  .E.F.G.H.G..... 
0990: 00 0E 80 80 A5 09 47 00  49 80 4A 80 4B 80 4C 80  ......G.I.J.K.L.
09A0: 47 01 01 DF 09 02 20 00  0F 80 80 BC 09 47 00 4D  G..... ......G.M
09B0: 80 4E 80 4F 80 50 80 47  01 01 DF 09 02 20 00 10  .N.O.P.G..... ..
09C0: 80 80 D3 09 47 00 51 80  52 80 53 80 54 80 47 01  ....G.Q.R.S.T.G.
09D0: 01 DF 09 47 00 55 80 56  80 57 80 58 80 47 01 01  ...G.U.V.W.X.G..
09E0: 61 0A 02 1F 00 26 80 80  55 0A 02 20 00 05 80 80  a....&..U.. ....
09F0: 01 0A 47 00 59 80 5A 80  5B 80 5C 80 47 01 01 52  ..G.Y.Z.[.\.G..R
0A00: 0A 02 20 00 0E 80 80 18  0A 47 00 5D 80 5E 80 5F  .. ......G.].^._
0A10: 80 60 80 47 01 01 52 0A  02 20 00 0F 80 80 2F 0A  .`.G..R.. ..../.
0A20: 47 00 61 80 62 80 63 80  64 80 47 01 01 52 0A 02  G.a.b.c.d.G..R..
0A30: 20 00 10 80 80 46 0A 47  00 65 80 66 80 67 80 68   ....F.G.e.f.g.h
0A40: 80 47 01 01 52 0A 47 00  55 80 56 80 57 80 58 80  .G..R.G.U.V.W.X.
0A50: 47 01 01 61 0A 47 00 55  80 56 80 57 80 58 80 47  G..a.G.U.V.W.X.G
0A60: 01 38 14 80 1A 37 11 45  3F 80 F0 FF FF 7F F0 FF  .8...7.E?.......
0A70: FF 7F 77 68 69 31 04 80  45 13 80 F0 FF FF 7F F0  ..whi1..E.......
0A80: FF FF 7F 62 6C 6F 66 04  80 5C 00 04 80 5C 01 04  ...blof..\...\..
0A90: 80 5C 02 3D 80 5C 03 3D  80 21 00                 .\.=.\.=.!.     
```

#### Opcodes

```
  0: 0x08AD [0x03] ExtData[1]->WorkLocal[5] = Work_Zone[6]
  1: 0x08B2 [0x03] ExtData[1]->WorkLocal[32] = Work_Zone[7]
  2: 0x08B7 [0x03] ExtData[1]->WorkLocal[31] = Work_Zone[8]
  3: 0x08BC [0x20] SET_CLI_EVENT_UC_FLAG: Lock player control
  4: 0x08BE [0x42] SET_CLI_EVENT_CANCEL_DATA()
  5: 0x08BF [0x3B] GET_ENTITY_POSITION(entity=LocalPlayer, x_destination=Work_Zone[37], y_destination=Work_Zone[38], z_destination=Work_Zone[39])
  6: 0x08CA [0x3A] CONVERT_YAW_TO_BYTE(entity=LocalPlayer, result_destination=Work_Zone[40])
  7: 0x08D1 [0x45] LOAD_SCHEDULED_TASK: Load scheduler "fdo1" with entities [LocalPlayer, LocalPlayer], work=[200*, 0*]
  8: 0x08E2 [0x55] WAIT_LOAD_SCHEDULER: Wait for scheduler "fdo1" with entities [LocalPlayer, LocalPlayer], work=200*
  9: 0x08F1 [0x02] IF !(0* == 1*) GOTO 0x0958
 10: 0x08F9 [0x02] IF !(ExtData[1]->WorkLocal[5] == 1*) GOTO 0x0910
 11: 0x0901 [0x47] UPDATE_PLAYER_POS(0.000*, 0.000*, 0.000*, yaw=0.0°*)
 12: 0x090B [0x47] WAIT_PLAYER_POS_UPDATE
 13: 0x090D [0x01] GOTO 0x0955
 14: 0x0910 [0x02] IF !(ExtData[1]->WorkLocal[5] == 2*) GOTO 0x0927
 15: 0x0918 [0x47] UPDATE_PLAYER_POS(0.000*, 0.000*, 0.000*, yaw=0.0°*)
 16: 0x0922 [0x47] WAIT_PLAYER_POS_UPDATE
 17: 0x0924 [0x01] GOTO 0x0955
 18: 0x0927 [0x02] IF !(ExtData[1]->WorkLocal[5] == 3*) GOTO 0x093E
 19: 0x092F [0x47] UPDATE_PLAYER_POS(0.000*, 0.000*, 0.000*, yaw=0.0°*)
 20: 0x0939 [0x47] WAIT_PLAYER_POS_UPDATE
 21: 0x093B [0x01] GOTO 0x0955
 22: 0x093E [0x02] IF !(ExtData[1]->WorkLocal[5] == 4*) GOTO 0x0955
 23: 0x0946 [0x47] UPDATE_PLAYER_POS(0.000*, 0.000*, 0.000*, yaw=0.0°*)
 24: 0x0950 [0x47] WAIT_PLAYER_POS_UPDATE
 25: 0x0952 [0x01] GOTO 0x0955

SUBROUTINE_0955:
 26: 0x0955 [0x01] GOTO 0x0A61
 27: 0x0958 [0x02] IF !(ExtData[1]->WorkLocal[31] == 180*) GOTO 0x09E2
 28: 0x0960 [0x02] IF !(ExtData[1]->WorkLocal[32] == 0*) GOTO 0x0977
 29: 0x0968 [0x47] UPDATE_PLAYER_POS(-605.141*, 479.929*, -22.681*, yaw=87.2°*)
 30: 0x0972 [0x47] WAIT_PLAYER_POS_UPDATE
 31: 0x0974 [0x01] GOTO 0x09DF
 32: 0x0977 [0x02] IF !(ExtData[1]->WorkLocal[32] == 1*) GOTO 0x098E
 33: 0x097F [0x47] UPDATE_PLAYER_POS(-262.589*, 377.857*, -137.313*, yaw=305.3°*)
 34: 0x0989 [0x47] WAIT_PLAYER_POS_UPDATE
 35: 0x098B [0x01] GOTO 0x09DF
 36: 0x098E [0x02] IF !(ExtData[1]->WorkLocal[32] == 2*) GOTO 0x09A5
 37: 0x0996 [0x47] UPDATE_PLAYER_POS(18.348*, 486.940*, -224.334*, yaw=17.1°*)
 38: 0x09A0 [0x47] WAIT_PLAYER_POS_UPDATE
 39: 0x09A2 [0x01] GOTO 0x09DF
 40: 0x09A5 [0x02] IF !(ExtData[1]->WorkLocal[32] == 3*) GOTO 0x09BC
 41: 0x09AD [0x47] UPDATE_PLAYER_POS(231.593*, 360.094*, -173.572*, yaw=160.8°*)
 42: 0x09B7 [0x47] WAIT_PLAYER_POS_UPDATE
 43: 0x09B9 [0x01] GOTO 0x09DF
 44: 0x09BC [0x02] IF !(ExtData[1]->WorkLocal[32] == 4*) GOTO 0x09D3
 45: 0x09C4 [0x47] UPDATE_PLAYER_POS(553.664*, 523.939*, -38.205*, yaw=233.9°*)
 46: 0x09CE [0x47] WAIT_PLAYER_POS_UPDATE
 47: 0x09D0 [0x01] GOTO 0x09DF
 48: 0x09D3 [0x47] UPDATE_PLAYER_POS(299.792*, 36.047*, 40.065*, yaw=87.1°*)
 49: 0x09DD [0x47] WAIT_PLAYER_POS_UPDATE

SUBROUTINE_09DF:
 50: 0x09DF [0x01] GOTO 0x0A61
 51: 0x09E2 [0x02] IF !(ExtData[1]->WorkLocal[31] == 6*) GOTO 0x0A55
 52: 0x09EA [0x02] IF !(ExtData[1]->WorkLocal[32] == 1*) GOTO 0x0A01
 53: 0x09F2 [0x47] UPDATE_PLAYER_POS(-875.117*, -43.892*, -48.084*, yaw=45.1°*)
 54: 0x09FC [0x47] WAIT_PLAYER_POS_UPDATE
 55: 0x09FE [0x01] GOTO 0x0A52
 56: 0x0A01 [0x02] IF !(ExtData[1]->WorkLocal[32] == 2*) GOTO 0x0A18
 57: 0x0A09 [0x47] UPDATE_PLAYER_POS(-755.499*, 563.947*, -112.035*, yaw=313.5°*)
 58: 0x0A13 [0x47] WAIT_PLAYER_POS_UPDATE
 59: 0x0A15 [0x01] GOTO 0x0A52
 60: 0x0A18 [0x02] IF !(ExtData[1]->WorkLocal[32] == 3*) GOTO 0x0A2F
 61: 0x0A20 [0x47] UPDATE_PLAYER_POS(123.251*, 754.209*, -172.124*, yaw=38.7°*)
 62: 0x0A2A [0x47] WAIT_PLAYER_POS_UPDATE
 63: 0x0A2C [0x01] GOTO 0x0A52
 64: 0x0A2F [0x02] IF !(ExtData[1]->WorkLocal[32] == 4*) GOTO 0x0A46
 65: 0x0A37 [0x47] UPDATE_PLAYER_POS(-516.404*, -803.323*, 24.206*, yaw=38.4°*)
 66: 0x0A41 [0x47] WAIT_PLAYER_POS_UPDATE
 67: 0x0A43 [0x01] GOTO 0x0A52
 68: 0x0A46 [0x47] UPDATE_PLAYER_POS(299.792*, 36.047*, 40.065*, yaw=87.1°*)
 69: 0x0A50 [0x47] WAIT_PLAYER_POS_UPDATE

SUBROUTINE_0A52:
 70: 0x0A52 [0x01] GOTO 0x0A61
 71: 0x0A55 [0x47] UPDATE_PLAYER_POS(299.792*, 36.047*, 40.065*, yaw=87.1°*)
 72: 0x0A5F [0x47] WAIT_PLAYER_POS_UPDATE

SUBROUTINE_0A61:
 73: 0x0A61 [0x38] SET_CLIENT_EVENT_MODE(mode=19*)
 74: 0x0A64 [0x1A] CALL_SUBROUTINE(address=0x1137)
 75: 0x0A67 [0x45] LOAD_SCHEDULED_TASK: Load scheduler "whi1" with entities [LocalPlayer, LocalPlayer], work=[201*, 0*]
 76: 0x0A78 [0x45] LOAD_SCHEDULED_TASK: Load scheduler "blof" with entities [LocalPlayer, LocalPlayer], work=[200*, 0*]
 77: 0x0A89 [0x5C] MUSIC_CONTROL: Set Idle (Day) music to song 0*
 78: 0x0A8D [0x5C] MUSIC_CONTROL: Set Idle (Night) music to song 0*
 79: 0x0A91 [0x5C] MUSIC_CONTROL: Set Combat (Solo) music to song 217*
 80: 0x0A95 [0x5C] MUSIC_CONTROL: Set Combat (Party) music to song 217*
 81: 0x0A99 [0x21] END_EVENT
 82: 0x0A9A [0x00] END_REQSTACK()
```

### Event 32001

#### Metadata

| Field        | Value     |
|--------------|-----------|
| Entrypoint   | 0x0A9B    |
| Data Size    | 819 bytes |
| Instructions | 137       |

```
      00 01 02 03 04 05 06 07  08 09 0A 0B 0C 0D 0E 0F
      -- -- -- -- -- -- -- --  -- -- -- -- -- -- -- --
0A90:                                   79 00 F0 FF FF             y....
0AA0: 7F F0 FF FF 7F 03 20 00  02 10 03 19 00 03 10 03  ...... .........
0AB0: 1A 00 05 10 03 1F 00 06  10 03 18 00 07 10 03 16  ................
0AC0: 00 08 10 03 1B 00 09 10  20 01 42 3B F0 FF FF 7F  ........ .B;....
0AD0: 25 10 26 10 27 10 3A F0  FF FF 7F 28 10 02 1F 00  %.&.'.:....(....
0AE0: 40 80 01 E8 0A 1C 69 80  45 3F 80 F0 FF FF 7F F0  @.....i.E?......
0AF0: FF FF 7F 77 68 69 31 04  80 45 13 80 F0 FF FF 7F  ...whi1..E......
0B00: F0 FF FF 7F 62 6C 6F 66  04 80 45 13 80 F0 FF FF  ....blof..E.....
0B10: 7F F0 FF FF 7F 66 64 6F  31 04 80 55 13 80 F0 FF  .....fdo1..U....
0B20: FF 7F F0 FF FF 7F 66 64  6F 31 6C F0 FF FF 7F 06  ......fdo1l.....
0B30: 80 05 80 06 01 10 02 16  00 04 80 03 41 0B 01 05  ............A...
0B40: 0C 02 1F 00 40 80 80 CB  0B 02 20 00 04 80 80 60  ....@..... ....`
0B50: 0B 47 00 6A 80 6B 80 6C  80 6D 80 47 01 01 C8 0B  .G.j.k.l.m.G....
0B60: 02 20 00 05 80 80 77 0B  47 00 6E 80 6F 80 70 80  . ....w.G.n.o.p.
0B70: 71 80 47 01 01 C8 0B 02  20 00 0E 80 80 8E 0B 47  q.G..... ......G
0B80: 00 72 80 73 80 74 80 75  80 47 01 01 C8 0B 02 20  .r.s.t.u.G..... 
0B90: 00 0F 80 80 A5 0B 47 00  76 80 77 80 78 80 79 80  ......G.v.w.x.y.
0BA0: 47 01 01 C8 0B 02 20 00  10 80 80 BC 0B 47 00 7A  G..... ......G.z
0BB0: 80 7B 80 7C 80 7D 80 47  01 01 C8 0B 47 00 7E 80  .{.|.}.G....G.~.
0BC0: 7F 80 80 80 81 80 47 01  01 05 0C 02 1F 00 82 80  ......G.........
0BD0: 80 F9 0B 02 18 00 04 80  80 EA 0B 47 00 7E 80 7F  ...........G.~..
0BE0: 80 80 80 81 80 47 01 01  F6 0B 47 00 83 80 84 80  .....G....G.....
0BF0: 85 80 86 80 47 01 01 05  0C 47 00 7E 80 7F 80 80  ....G....G.~....
0C00: 80 81 80 47 01 38 14 80  02 16 00 0E 80 00 13 0C  ...G.8..........
0C10: 01 2E 0C 02 16 00 05 80  00 DE 0C 1C 07 80 24 3C  ..............$<
0C20: 80 05 80 04 80 25 02 00  10 04 80 00 DE 0C 02 1F  .....%..........
0C30: 00 40 80 00 9A 0C 02 20  00 04 80 80 48 0C 36 6A  .@..... ....H.6j
0C40: 80 6B 80 6C 80 01 97 0C  02 20 00 05 80 80 5A 0C  .k.l..... ....Z.
0C50: 36 6E 80 6F 80 70 80 01  97 0C 02 20 00 0E 80 80  6n.o.p..... ....
0C60: 6C 0C 36 72 80 73 80 74  80 01 97 0C 02 20 00 0F  l.6r.s.t..... ..
0C70: 80 80 7E 0C 36 76 80 77  80 78 80 01 97 0C 02 20  ..~.6v.w.x..... 
0C80: 00 10 80 80 90 0C 36 7A  80 7B 80 7C 80 01 97 0C  ......6z.{.|....
0C90: 36 7E 80 7F 80 80 80 01  A3 0C 37 7E 80 7F 80 80  6~........7~....
0CA0: 80 81 80 80 F0 FF FF 7F  62 0E 80 F0 FF FF 7F F0  ........b.......
0CB0: FF FF 7F 6D 61 69 6E 04  80 45 13 80 F0 FF FF 7F  ...main..E......
0CC0: F0 FF FF 7F 66 64 69 32  04 80 46 02 12 00 02 12  ....fdi2..F.....
0CD0: 00 04 80 00 D8 0C 46 00  01 05 0D 01 DE 0C 02 16  ......F.........
0CE0: 00 0A 80 04 F7 0C 5C 00  3D 80 5C 01 3D 80 5C 02  ......\.=.\.=.\.
0CF0: 3D 80 5C 03 3D 80 9A 1A  33 10 02 16 00 04 80 03  =.\.=...3.......
0D00: 05 0D 01 66 0D 03 05 10  1A 00 02 05 10 04 80 02  ...f............
0D10: 66 0D 02 05 10 3A 80 04  2D 0D 3F 04 10 05 10 3A  f....:..-.?....:
0D20: 80 15 05 10 3A 80 48 87  80 23 01 31 0D 48 88 80  ....:.H..#.1.H..
0D30: 23 02 1A 00 19 00 05 45  0D 03 07 10 18 00 48 89  #......E......H.
0D40: 80 23 01 66 0D 02 19 00  3A 80 04 61 0D 03 05 10  .#.f....:..a....
0D50: 19 00 3F 04 10 05 10 3A  80 15 05 10 3A 80 01 66  ..?....:....:..f
0D60: 0D 03 05 10 19 00 02 17  00 04 80 00 7E 0D 5C 00  ............~.\.
0D70: 04 80 5C 01 04 80 5C 02  3D 80 5C 03 3D 80 02 16  ..\...\.=.\.=...
0D80: 00 04 80 03 A7 0D 45 13  80 F0 FF FF 7F F0 FF FF  ......E.........
0D90: 7F 66 64 69 32 04 80 5C  00 04 80 5C 01 04 80 5C  .fdi2..\...\...\
0DA0: 02 3D 80 5C 03 3D 80 06  17 00 45 3F 80 F0 FF FF  .=.\.=....E?....
0DB0: 7F F0 FF FF 7F 77 68 69  31 04 80 45 13 80 F0 FF  .....whi1..E....
0DC0: FF 7F F0 FF FF 7F 62 6C  6F 66 04 80 21 00        ......blof..!.  
```

#### Opcodes

```
  0: 0x0A9B [0x79] LocalPlayer looks at LocalPlayer (Basic look)
  1: 0x0AA5 [0x03] ExtData[1]->WorkLocal[32] = Work_Zone[2]
  2: 0x0AAA [0x03] ExtData[1]->WorkLocal[25] = Work_Zone[3]
  3: 0x0AAF [0x03] ExtData[1]->WorkLocal[26] = Work_Zone[5]
  4: 0x0AB4 [0x03] ExtData[1]->WorkLocal[31] = Work_Zone[6]
  5: 0x0AB9 [0x03] ExtData[1]->WorkLocal[24] = Work_Zone[7]
  6: 0x0ABE [0x03] ExtData[1]->WorkLocal[22] = Work_Zone[8]
  7: 0x0AC3 [0x03] ExtData[1]->WorkLocal[27] = Work_Zone[9]
  8: 0x0AC8 [0x20] SET_CLI_EVENT_UC_FLAG: Lock player control
  9: 0x0ACA [0x42] SET_CLI_EVENT_CANCEL_DATA()
 10: 0x0ACB [0x3B] GET_ENTITY_POSITION(entity=LocalPlayer, x_destination=Work_Zone[37], y_destination=Work_Zone[38], z_destination=Work_Zone[39])
 11: 0x0AD6 [0x3A] CONVERT_YAW_TO_BYTE(entity=LocalPlayer, result_destination=Work_Zone[40])
 12: 0x0ADD [0x02] IF !(ExtData[1]->WorkLocal[31] == 180*) GOTO 0x0AE8
 13: 0x0AE5 [0x1C] WAIT(300* ticks)
 14: 0x0AE8 [0x45] LOAD_SCHEDULED_TASK: Load scheduler "whi1" with entities [LocalPlayer, LocalPlayer], work=[201*, 0*]
 15: 0x0AF9 [0x45] LOAD_SCHEDULED_TASK: Load scheduler "blof" with entities [LocalPlayer, LocalPlayer], work=[200*, 0*]
 16: 0x0B0A [0x45] LOAD_SCHEDULED_TASK: Load scheduler "fdo1" with entities [LocalPlayer, LocalPlayer], work=[200*, 0*]
 17: 0x0B1B [0x55] WAIT_LOAD_SCHEDULER: Wait for scheduler "fdo1" with entities [LocalPlayer, LocalPlayer], work=200*
 18: 0x0B2A [0x6C] FADE_ENTITY_COLOR(entity_id=LocalPlayer, end_alpha=128*, fade_time=1*)
 19: 0x0B33 [0x06] Work_Zone[1] = 0
 20: 0x0B36 [0x02] IF !(ExtData[1]->WorkLocal[22] >= 0*) GOTO 0x0B41
 21: 0x0B3E [0x01] GOTO 0x0C05
 22: 0x0B41 [0x02] IF !(ExtData[1]->WorkLocal[31] == 180*) GOTO 0x0BCB
 23: 0x0B49 [0x02] IF !(ExtData[1]->WorkLocal[32] == 0*) GOTO 0x0B60
 24: 0x0B51 [0x47] UPDATE_PLAYER_POS(-618.329*, -643.868*, -25.805*, yaw=330.5°*)
 25: 0x0B5B [0x47] WAIT_PLAYER_POS_UPDATE
 26: 0x0B5D [0x01] GOTO 0x0BC8
 27: 0x0B60 [0x02] IF !(ExtData[1]->WorkLocal[32] == 1*) GOTO 0x0B77
 28: 0x0B68 [0x47] UPDATE_PLAYER_POS(-332.163*, -441.914*, -95.055*, yaw=330.5°*)
 29: 0x0B72 [0x47] WAIT_PLAYER_POS_UPDATE
 30: 0x0B74 [0x01] GOTO 0x0BC8
 31: 0x0B77 [0x02] IF !(ExtData[1]->WorkLocal[32] == 2*) GOTO 0x0B8E
 32: 0x0B7F [0x47] UPDATE_PLAYER_POS(-12.464*, -648.377*, -194.629*, yaw=331.3°*)
 33: 0x0B89 [0x47] WAIT_PLAYER_POS_UPDATE
 34: 0x0B8B [0x01] GOTO 0x0BC8
 35: 0x0B8E [0x02] IF !(ExtData[1]->WorkLocal[32] == 3*) GOTO 0x0BA5
 36: 0x0B96 [0x47] UPDATE_PLAYER_POS(323.381*, -443.793*, -108.440*, yaw=329.1°*)
 37: 0x0BA0 [0x47] WAIT_PLAYER_POS_UPDATE
 38: 0x0BA2 [0x01] GOTO 0x0BC8
 39: 0x0BA5 [0x02] IF !(ExtData[1]->WorkLocal[32] == 4*) GOTO 0x0BBC
 40: 0x0BAD [0x47] UPDATE_PLAYER_POS(599.907*, -676.969*, -22.473*, yaw=330.7°*)
 41: 0x0BB7 [0x47] WAIT_PLAYER_POS_UPDATE
 42: 0x0BB9 [0x01] GOTO 0x0BC8
 43: 0x0BBC [0x47] UPDATE_PLAYER_POS(224.167*, -20.503*, 1.513*, yaw=190.9°*)
 44: 0x0BC6 [0x47] WAIT_PLAYER_POS_UPDATE

SUBROUTINE_0BC8:
 45: 0x0BC8 [0x01] GOTO 0x0C05
 46: 0x0BCB [0x02] IF !(ExtData[1]->WorkLocal[31] == 168*) GOTO 0x0BF9
 47: 0x0BD3 [0x02] IF !(ExtData[1]->WorkLocal[24] == 0*) GOTO 0x0BEA
 48: 0x0BDB [0x47] UPDATE_PLAYER_POS(224.167*, -20.503*, 1.513*, yaw=190.9°*)
 49: 0x0BE5 [0x47] WAIT_PLAYER_POS_UPDATE
 50: 0x0BE7 [0x01] GOTO 0x0BF6
 51: 0x0BEA [0x47] UPDATE_PLAYER_POS(200.059*, -21.958*, -0.250*, yaw=91.5°*)
 52: 0x0BF4 [0x47] WAIT_PLAYER_POS_UPDATE

SUBROUTINE_0BF6:
 53: 0x0BF6 [0x01] GOTO 0x0C05
 54: 0x0BF9 [0x47] UPDATE_PLAYER_POS(224.167*, -20.503*, 1.513*, yaw=190.9°*)
 55: 0x0C03 [0x47] WAIT_PLAYER_POS_UPDATE

SUBROUTINE_0C05:
 56: 0x0C05 [0x38] SET_CLIENT_EVENT_MODE(mode=19*)
 57: 0x0C08 [0x02] IF !(ExtData[1]->WorkLocal[22] == 2*) GOTO 0x0C13
 58: 0x0C10 [0x01] GOTO 0x0C2E
 59: 0x0C13 [0x02] IF !(ExtData[1]->WorkLocal[22] == 1*) GOTO 0x0CDE
 60: 0x0C1B [0x1C] WAIT(15* ticks)
 61: 0x0C1E [0x24] CREATE_DIALOG(message_id=7929*, default_option=1*, option_flags=0*)
    → "Skip the event? [Yes./No.]"
 62: 0x0C25 [0x25] WAIT_DIALOG_SELECT()
 63: 0x0C26 [0x02] IF !(Work_Zone[0] == 0*) GOTO 0x0CDE

SUBROUTINE_0C2E:
 64: 0x0C2E [0x02] IF !(ExtData[1]->WorkLocal[31] == 180*) GOTO 0x0C9A
 65: 0x0C36 [0x02] IF !(ExtData[1]->WorkLocal[32] == 0*) GOTO 0x0C48
 66: 0x0C3E [0x36] SET_ENTITY_EVENT_POSITION(pos_x=-618.329*, pos_z=-643.868*, pos_y=-25.805*)
 67: 0x0C45 [0x01] GOTO 0x0C97
 68: 0x0C48 [0x02] IF !(ExtData[1]->WorkLocal[32] == 1*) GOTO 0x0C5A
 69: 0x0C50 [0x36] SET_ENTITY_EVENT_POSITION(pos_x=-332.163*, pos_z=-441.914*, pos_y=-95.055*)
 70: 0x0C57 [0x01] GOTO 0x0C97
 71: 0x0C5A [0x02] IF !(ExtData[1]->WorkLocal[32] == 2*) GOTO 0x0C6C
 72: 0x0C62 [0x36] SET_ENTITY_EVENT_POSITION(pos_x=-12.464*, pos_z=-648.377*, pos_y=-194.629*)
 73: 0x0C69 [0x01] GOTO 0x0C97
 74: 0x0C6C [0x02] IF !(ExtData[1]->WorkLocal[32] == 3*) GOTO 0x0C7E
 75: 0x0C74 [0x36] SET_ENTITY_EVENT_POSITION(pos_x=323.381*, pos_z=-443.793*, pos_y=-108.440*)
 76: 0x0C7B [0x01] GOTO 0x0C97
 77: 0x0C7E [0x02] IF !(ExtData[1]->WorkLocal[32] == 4*) GOTO 0x0C90
 78: 0x0C86 [0x36] SET_ENTITY_EVENT_POSITION(pos_x=599.907*, pos_z=-676.969*, pos_y=-22.473*)
 79: 0x0C8D [0x01] GOTO 0x0C97
 80: 0x0C90 [0x36] SET_ENTITY_EVENT_POSITION(pos_x=224.167*, pos_z=-20.503*, pos_y=1.513*)

SUBROUTINE_0C97:
 81: 0x0C97 [0x01] GOTO 0x0CA3
 82: 0x0C9A [0x37] UPDATE_EVENT_POSITION_AND_DIR: x=224.167*, z=-20.503*, y=1.513*, direction=190.9°*

SUBROUTINE_0CA3:
 83: 0x0CA3 [0x80] LOAD_WAIT(entity=LocalPlayer)
 84: 0x0CA8 [0x62] LOAD_EVENT_SCHEDULER: Load scheduler "main" with entities [LocalPlayer, LocalPlayer], work=[2*, 0*]
 85: 0x0CB9 [0x45] LOAD_SCHEDULED_TASK: Load scheduler "fdi2" with entities [LocalPlayer, LocalPlayer], work=[200*, 0*]
 86: 0x0CCA [0x46] CAMERA_CONTROL: Query status
 87: 0x0CCC [0x12] 0x0200 = rand()
 88: 0x0CCF [0x12] 0x0400 = rand()
 89: 0x0CD2 [0x80] LOAD_WAIT(entity=Unknown NPC (ID: 1175246848/0x460CD800))
 90: 0x0CD7 [0x00] END_REQSTACK()

SUBROUTINE_0CDE:
 91: 0x0CDE [0x02] IF !(ExtData[1]->WorkLocal[22] < 4294967295*) GOTO 0x0CF7
 92: 0x0CE6 [0x5C] MUSIC_CONTROL: Set Idle (Day) music to song 217*
 93: 0x0CEA [0x5C] MUSIC_CONTROL: Set Idle (Night) music to song 217*
 94: 0x0CEE [0x5C] MUSIC_CONTROL: Set Combat (Solo) music to song 217*
 95: 0x0CF2 [0x5C] MUSIC_CONTROL: Set Combat (Party) music to song 217*
 96: 0x0CF6 [0x9A] WAIT_MUSIC_SERVER()
 97: 0x0CF7 [0x1A] CALL_SUBROUTINE(address=0x1033)
 98: 0x0CFA [0x02] IF !(ExtData[1]->WorkLocal[22] >= 0*) GOTO 0x0D05
 99: 0x0D02 [0x01] GOTO 0x0D66

SUBROUTINE_0D05:
100: 0x0D05 [0x03] Work_Zone[5] = ExtData[1]->WorkLocal[26]
101: 0x0D0A [0x02] IF !(Work_Zone[5] <= 0*) GOTO 0x0D66
102: 0x0D12 [0x02] IF !(Work_Zone[5] < 60*) GOTO 0x0D2D
103: 0x0D1A [0x3F] Work_Zone[4] = Work_Zone[5] % 60*
104: 0x0D21 [0x15] Work_Zone[5] /= 60*
105: 0x0D26 [0x48] [System] [7931*]:
    → "Battlefield clear time: $3 minute[/s], $2 second[/s]!"
106: 0x0D29 [0x23] WAIT_FOR_DIALOG_INTERACTION
107: 0x0D2A [0x01] GOTO 0x0D31
108: 0x0D2D [0x48] [System] [7930*]:
    → "Battlefield clear time: $3 second[/s]!"
109: 0x0D30 [0x23] WAIT_FOR_DIALOG_INTERACTION

SUBROUTINE_0D31:
110: 0x0D31 [0x02] IF !(ExtData[1]->WorkLocal[26] > ExtData[1]->WorkLocal[25]) GOTO 0x0D45
111: 0x0D39 [0x03] Work_Zone[7] = ExtData[1]->WorkLocal[24]
112: 0x0D3E [0x48] [System] [7966*]:
    → "You have broken the clear time record for "[Cracking Shells (B)/The Buried God]"!"
113: 0x0D41 [0x23] WAIT_FOR_DIALOG_INTERACTION
114: 0x0D42 [0x01] GOTO 0x0D66
115: 0x0D45 [0x02] IF !(ExtData[1]->WorkLocal[25] < 60*) GOTO 0x0D61
116: 0x0D4D [0x03] Work_Zone[5] = ExtData[1]->WorkLocal[25]
117: 0x0D52 [0x3F] Work_Zone[4] = Work_Zone[5] % 60*
118: 0x0D59 [0x15] Work_Zone[5] /= 60*
119: 0x0D5E [0x01] GOTO 0x0D66
120: 0x0D61 [0x03] Work_Zone[5] = ExtData[1]->WorkLocal[25]

SUBROUTINE_0D66:
121: 0x0D66 [0x02] IF !(ExtData[1]->WorkLocal[23] == 0*) GOTO 0x0D7E
122: 0x0D6E [0x5C] MUSIC_CONTROL: Set Idle (Day) music to song 0*
123: 0x0D72 [0x5C] MUSIC_CONTROL: Set Idle (Night) music to song 0*
124: 0x0D76 [0x5C] MUSIC_CONTROL: Set Combat (Solo) music to song 217*
125: 0x0D7A [0x5C] MUSIC_CONTROL: Set Combat (Party) music to song 217*
126: 0x0D7E [0x02] IF !(ExtData[1]->WorkLocal[22] >= 0*) GOTO 0x0DA7
127: 0x0D86 [0x45] LOAD_SCHEDULED_TASK: Load scheduler "fdi2" with entities [LocalPlayer, LocalPlayer], work=[200*, 0*]
128: 0x0D97 [0x5C] MUSIC_CONTROL: Set Idle (Day) music to song 0*
129: 0x0D9B [0x5C] MUSIC_CONTROL: Set Idle (Night) music to song 0*
130: 0x0D9F [0x5C] MUSIC_CONTROL: Set Combat (Solo) music to song 217*
131: 0x0DA3 [0x5C] MUSIC_CONTROL: Set Combat (Party) music to song 217*
132: 0x0DA7 [0x06] ExtData[1]->WorkLocal[23] = 0
133: 0x0DAA [0x45] LOAD_SCHEDULED_TASK: Load scheduler "whi1" with entities [LocalPlayer, LocalPlayer], work=[201*, 0*]
134: 0x0DBB [0x45] LOAD_SCHEDULED_TASK: Load scheduler "blof" with entities [LocalPlayer, LocalPlayer], work=[200*, 0*]
135: 0x0DCC [0x21] END_EVENT
136: 0x0DCD [0x00] END_REQSTACK()
```

#### Data or dead code:

```
# Dead code (unreachable instructions):
     0x0CD8 [0x01] GOTO 0x0D05
     0x0CDB [0x01] GOTO 0x0CDE
```

### Event 32003

#### Metadata

| Field        | Value     |
|--------------|-----------|
| Entrypoint   | 0x0DCE    |
| Data Size    | 435 bytes |
| Instructions | 77        |

```
      00 01 02 03 04 05 06 07  08 09 0A 0B 0C 0D 0E 0F
      -- -- -- -- -- -- -- --  -- -- -- -- -- -- -- --
0DC0:                                            06 1C                ..
0DD0: 00 06 1D 00 03 20 00 06  10 03 1F 00 07 10 03 1E  ..... ..........
0DE0: 00 08 10 06 01 10 1A 9D  10 02 1C 00 05 80 00 7F  ................
0DF0: 0F 42 03 01 10 0E 80 43  00 43 01 03 01 10 0F 80  .B.....C.C......
0E00: 43 00 43 01 1A B4 10 02  1D 00 05 80 00 7F 0F 45  C.C............E
0E10: 13 80 F0 FF FF 7F F0 FF  FF 7F 66 64 6F 31 04 80  ..........fdo1..
0E20: 55 13 80 F0 FF FF 7F F0  FF FF 7F 66 64 6F 31 03  U..........fdo1.
0E30: 01 10 10 80 02 1F 00 40  80 80 BE 0E 02 20 00 04  .......@..... ..
0E40: 80 80 53 0E 47 00 41 80  42 80 43 80 44 80 47 01  ..S.G.A.B.C.D.G.
0E50: 01 BB 0E 02 20 00 05 80  80 6A 0E 47 00 45 80 46  .... ....j.G.E.F
0E60: 80 47 80 48 80 47 01 01  BB 0E 02 20 00 0E 80 80  .G.H.G..... ....
0E70: 81 0E 47 00 49 80 4A 80  4B 80 4C 80 47 01 01 BB  ..G.I.J.K.L.G...
0E80: 0E 02 20 00 0F 80 80 98  0E 47 00 4D 80 4E 80 4F  .. ......G.M.N.O
0E90: 80 50 80 47 01 01 BB 0E  02 20 00 10 80 80 AF 0E  .P.G..... ......
0EA0: 47 00 51 80 52 80 53 80  54 80 47 01 01 BB 0E 47  G.Q.R.S.T.G....G
0EB0: 00 55 80 56 80 57 80 58  80 47 01 01 3D 0F 02 1F  .U.V.W.X.G..=...
0EC0: 00 26 80 80 31 0F 02 1E  00 05 80 80 DD 0E 47 00  .&..1.........G.
0ED0: 59 80 5A 80 5B 80 5C 80  47 01 01 2E 0F 02 1E 00  Y.Z.[.\.G.......
0EE0: 0E 80 80 F4 0E 47 00 5D  80 5E 80 5F 80 60 80 47  .....G.].^._.`.G
0EF0: 01 01 2E 0F 02 1E 00 0F  80 80 0B 0F 47 00 61 80  ............G.a.
0F00: 62 80 63 80 64 80 47 01  01 2E 0F 02 1E 00 10 80  b.c.d.G.........
0F10: 80 22 0F 47 00 65 80 66  80 67 80 68 80 47 01 01  .".G.e.f.g.h.G..
0F20: 2E 0F 47 00 55 80 56 80  57 80 58 80 47 01 01 3D  ..G.U.V.W.X.G..=
0F30: 0F 47 00 55 80 56 80 57  80 58 80 47 01 38 14 80  .G.U.V.W.X.G.8..
0F40: 79 00 F0 FF FF 7F F0 FF  FF 7F 1A B8 10 45 3F 80  y............E?.
0F50: F0 FF FF 7F F0 FF FF 7F  77 68 69 31 04 80 45 13  ........whi1..E.
0F60: 80 F0 FF FF 7F F0 FF FF  7F 62 6C 6F 66 04 80 5C  .........blof..\
0F70: 00 04 80 5C 01 04 80 5C  02 3D 80 5C 03 3D 80 21  ...\...\.=.\.=.!
0F80: 00                                                .               
```

#### Opcodes

```
  0: 0x0DCE [0x06] ExtData[1]->WorkLocal[28] = 0
  1: 0x0DD1 [0x06] ExtData[1]->WorkLocal[29] = 0
  2: 0x0DD4 [0x03] ExtData[1]->WorkLocal[32] = Work_Zone[6]
  3: 0x0DD9 [0x03] ExtData[1]->WorkLocal[31] = Work_Zone[7]
  4: 0x0DDE [0x03] ExtData[1]->WorkLocal[30] = Work_Zone[8]
  5: 0x0DE3 [0x06] Work_Zone[1] = 0
  6: 0x0DE6 [0x1A] CALL_SUBROUTINE(address=0x109D)
  7: 0x0DE9 [0x02] IF !(ExtData[1]->WorkLocal[28] == 1*) GOTO 0x0F7F
  8: 0x0DF1 [0x42] SET_CLI_EVENT_CANCEL_DATA()
  9: 0x0DF2 [0x03] Work_Zone[1] = 2*
 10: 0x0DF7 [0x43] SEND_EVENT_UPDATE: Send pending tag to server (packet 0x005B)
 11: 0x0DF9 [0x43] SEND_EVENT_UPDATE: Check pending flag (skip if not pending)
 12: 0x0DFB [0x03] Work_Zone[1] = 3*
 13: 0x0E00 [0x43] SEND_EVENT_UPDATE: Send pending tag to server (packet 0x005B)
 14: 0x0E02 [0x43] SEND_EVENT_UPDATE: Check pending flag (skip if not pending)
 15: 0x0E04 [0x1A] CALL_SUBROUTINE(address=0x10B4)
 16: 0x0E07 [0x02] IF !(ExtData[1]->WorkLocal[29] == 1*) GOTO 0x0F7F
 17: 0x0E0F [0x45] LOAD_SCHEDULED_TASK: Load scheduler "fdo1" with entities [LocalPlayer, LocalPlayer], work=[200*, 0*]
 18: 0x0E20 [0x55] WAIT_LOAD_SCHEDULER: Wait for scheduler "fdo1" with entities [LocalPlayer, LocalPlayer], work=200*
 19: 0x0E2F [0x03] Work_Zone[1] = 4*
 20: 0x0E34 [0x02] IF !(ExtData[1]->WorkLocal[31] == 180*) GOTO 0x0EBE
 21: 0x0E3C [0x02] IF !(ExtData[1]->WorkLocal[32] == 0*) GOTO 0x0E53
 22: 0x0E44 [0x47] UPDATE_PLAYER_POS(-605.141*, 479.929*, -22.681*, yaw=87.2°*)
 23: 0x0E4E [0x47] WAIT_PLAYER_POS_UPDATE
 24: 0x0E50 [0x01] GOTO 0x0EBB
 25: 0x0E53 [0x02] IF !(ExtData[1]->WorkLocal[32] == 1*) GOTO 0x0E6A
 26: 0x0E5B [0x47] UPDATE_PLAYER_POS(-262.589*, 377.857*, -137.313*, yaw=305.3°*)
 27: 0x0E65 [0x47] WAIT_PLAYER_POS_UPDATE
 28: 0x0E67 [0x01] GOTO 0x0EBB
 29: 0x0E6A [0x02] IF !(ExtData[1]->WorkLocal[32] == 2*) GOTO 0x0E81
 30: 0x0E72 [0x47] UPDATE_PLAYER_POS(18.348*, 486.940*, -224.334*, yaw=17.1°*)
 31: 0x0E7C [0x47] WAIT_PLAYER_POS_UPDATE
 32: 0x0E7E [0x01] GOTO 0x0EBB
 33: 0x0E81 [0x02] IF !(ExtData[1]->WorkLocal[32] == 3*) GOTO 0x0E98
 34: 0x0E89 [0x47] UPDATE_PLAYER_POS(231.593*, 360.094*, -173.572*, yaw=160.8°*)
 35: 0x0E93 [0x47] WAIT_PLAYER_POS_UPDATE
 36: 0x0E95 [0x01] GOTO 0x0EBB
 37: 0x0E98 [0x02] IF !(ExtData[1]->WorkLocal[32] == 4*) GOTO 0x0EAF
 38: 0x0EA0 [0x47] UPDATE_PLAYER_POS(553.664*, 523.939*, -38.205*, yaw=233.9°*)
 39: 0x0EAA [0x47] WAIT_PLAYER_POS_UPDATE
 40: 0x0EAC [0x01] GOTO 0x0EBB
 41: 0x0EAF [0x47] UPDATE_PLAYER_POS(299.792*, 36.047*, 40.065*, yaw=87.1°*)
 42: 0x0EB9 [0x47] WAIT_PLAYER_POS_UPDATE

SUBROUTINE_0EBB:
 43: 0x0EBB [0x01] GOTO 0x0F3D
 44: 0x0EBE [0x02] IF !(ExtData[1]->WorkLocal[31] == 6*) GOTO 0x0F31
 45: 0x0EC6 [0x02] IF !(ExtData[1]->WorkLocal[30] == 1*) GOTO 0x0EDD
 46: 0x0ECE [0x47] UPDATE_PLAYER_POS(-875.117*, -43.892*, -48.084*, yaw=45.1°*)
 47: 0x0ED8 [0x47] WAIT_PLAYER_POS_UPDATE
 48: 0x0EDA [0x01] GOTO 0x0F2E
 49: 0x0EDD [0x02] IF !(ExtData[1]->WorkLocal[30] == 2*) GOTO 0x0EF4
 50: 0x0EE5 [0x47] UPDATE_PLAYER_POS(-755.499*, 563.947*, -112.035*, yaw=313.5°*)
 51: 0x0EEF [0x47] WAIT_PLAYER_POS_UPDATE
 52: 0x0EF1 [0x01] GOTO 0x0F2E
 53: 0x0EF4 [0x02] IF !(ExtData[1]->WorkLocal[30] == 3*) GOTO 0x0F0B
 54: 0x0EFC [0x47] UPDATE_PLAYER_POS(123.251*, 754.209*, -172.124*, yaw=38.7°*)
 55: 0x0F06 [0x47] WAIT_PLAYER_POS_UPDATE
 56: 0x0F08 [0x01] GOTO 0x0F2E
 57: 0x0F0B [0x02] IF !(ExtData[1]->WorkLocal[30] == 4*) GOTO 0x0F22
 58: 0x0F13 [0x47] UPDATE_PLAYER_POS(-516.404*, -803.323*, 24.206*, yaw=38.4°*)
 59: 0x0F1D [0x47] WAIT_PLAYER_POS_UPDATE
 60: 0x0F1F [0x01] GOTO 0x0F2E
 61: 0x0F22 [0x47] UPDATE_PLAYER_POS(299.792*, 36.047*, 40.065*, yaw=87.1°*)
 62: 0x0F2C [0x47] WAIT_PLAYER_POS_UPDATE

SUBROUTINE_0F2E:
 63: 0x0F2E [0x01] GOTO 0x0F3D
 64: 0x0F31 [0x47] UPDATE_PLAYER_POS(299.792*, 36.047*, 40.065*, yaw=87.1°*)
 65: 0x0F3B [0x47] WAIT_PLAYER_POS_UPDATE

SUBROUTINE_0F3D:
 66: 0x0F3D [0x38] SET_CLIENT_EVENT_MODE(mode=19*)
 67: 0x0F40 [0x79] LocalPlayer looks at LocalPlayer (Basic look)
 68: 0x0F4A [0x1A] CALL_SUBROUTINE(address=0x10B8)
 69: 0x0F4D [0x45] LOAD_SCHEDULED_TASK: Load scheduler "whi1" with entities [LocalPlayer, LocalPlayer], work=[201*, 0*]
 70: 0x0F5E [0x45] LOAD_SCHEDULED_TASK: Load scheduler "blof" with entities [LocalPlayer, LocalPlayer], work=[200*, 0*]
 71: 0x0F6F [0x5C] MUSIC_CONTROL: Set Idle (Day) music to song 0*
 72: 0x0F73 [0x5C] MUSIC_CONTROL: Set Idle (Night) music to song 0*
 73: 0x0F77 [0x5C] MUSIC_CONTROL: Set Combat (Solo) music to song 217*
 74: 0x0F7B [0x5C] MUSIC_CONTROL: Set Combat (Party) music to song 217*
 75: 0x0F7F [0x21] END_EVENT
 76: 0x0F80 [0x00] END_REQSTACK()
```

### Event 32004

#### Metadata

| Field        | Value      |
|--------------|------------|
| Entrypoint   | 0x0F81     |
| Data Size    | 1322 bytes |
| Instructions | 2          |

```
      00 01 02 03 04 05 06 07  08 09 0A 0B 0C 0D 0E 0F
      -- -- -- -- -- -- -- --  -- -- -- -- -- -- -- --
0F80:    21 00 24 11 80 05 80  04 80 25 02 00 10 04 80   !.$......%.....
0F90: 00 99 0F 05 01 00 01 99  0F 1B 79 00 F0 FF FF 7F  ..........y.....
0FA0: F0 FF FF 7F 42 46 01 02  03 00 38 80 80 B2 0F 01  ....BF....8.....
0FB0: FE 0F 37 8A 80 8B 80 8C  80 1B 80 45 8D 80 F0 FF  ..7........E....
0FC0: FF 7F F0 FF FF 7F 62 39  32 61 04 80 1A DF 11 27  ......b92a.....'
0FD0: 03 03 C3 05 01 02 1C 3A  80 32 2B 80 45 13 80 F0  .......:.2+.E...
0FE0: FF FF 7F F0 FF FF 7F 66  64 6F 31 04 80 1F 00 8E  .......fdo1.....
0FF0: 80 8F 80 90 80 1F 01 27  05 03 C3 05 01 03 78 37  .......'......x7
1000: 18 80 19 80 1A 80 1B 80  1C 29 80 1A 8B 11 62 0E  .........)....b.
1010: 80 F0 FF FF 7F F0 FF FF  7F 6D 61 69 6E 04 80 46  .........main..F
1020: 00 45 13 80 F0 FF FF 7F  F0 FF FF 7F 66 64 69 32  .E..........fdi2
1030: 04 80 1B 02 18 00 38 80  80 3E 10 01 60 10 46 01  ......8..>..`.F.
1040: 45 13 80 F0 FF FF 7F F0  FF FF 7F 66 64 6F 32 04  E..........fdo2.
1050: 80 55 13 80 F0 FF FF 7F  F0 FF FF 7F 66 64 6F 32  .U..........fdo2
1060: 92 01 F0 FF FF 7F 37 7E  80 7F 80 80 80 81 80 1C  ......7~........
1070: 29 80 1A 8B 11 45 13 80  F0 FF FF 7F F0 FF FF 7F  )....E..........
1080: 66 64 69 32 04 80 62 0E  80 F0 FF FF 7F F0 FF FF  fdi2..b.........
1090: 7F 6D 61 69 6E 04 80 1C  91 80 46 00 1B 24 92 80  .main.....F..$..
10A0: 05 80 04 80 25 02 00 10  04 80 00 B3 10 05 1C 00  ....%...........
10B0: 01 B3 10 1B 05 1D 00 1B  46 01 37 93 80 94 80 95  ........F.7.....
10C0: 80 96 80 1C 29 80 1A 8B  11 45 13 80 F0 FF FF 7F  ....)....E......
10D0: F0 FF FF 7F 66 64 69 31  04 80 27 03 04 C3 05 01  ....fdi1..'.....
10E0: 02 1C 3A 80 32 00 80 45  13 80 F0 FF FF 7F F0 FF  ..:.2..E........
10F0: FF 7F 66 64 6F 31 04 80  1F 00 97 80 98 80 99 80  ..fdo1..........
1100: 1F 01 27 05 04 C3 05 01  03 37 55 80 56 80 57 80  ..'......7U.V.W.
1110: 58 80 62 0E 80 F0 FF FF  7F F0 FF FF 7F 6D 61 69  X.b..........mai
1120: 6E 04 80 46 00 45 13 80  F0 FF FF 7F F0 FF FF 7F  n..F.E..........
1130: 66 64 69 32 04 80 1B 6C  F0 FF FF 7F 04 80 05 80  fdi2...l........
1140: 46 01 92 01 F0 FF FF 7F  37 55 80 56 80 57 80 58  F.......7U.V.W.X
1150: 80 1C 29 80 1A 8B 11 45  13 80 F0 FF FF 7F F0 FF  ..)....E........
1160: FF 7F 66 64 69 32 04 80  62 0E 80 F0 FF FF 7F F0  ..fdi2..b.......
1170: FF FF 7F 6D 61 69 6E 04  80 1C 91 80 46 00 1B 02  ...main.....F...
1180: 03 00 04 80 80 8A 11 01  8A 11 1B 45 9A 80 F0 FF  ...........E....
1190: FF 7F F0 FF FF 7F 62 61  63 6B 04 80 1B 45 13 80  ......back...E..
11A0: F0 FF FF 7F F0 FF FF 7F  66 64 69 30 04 80 55 13  ........fdi0..U.
11B0: 80 F0 FF FF 7F F0 FF FF  7F 66 64 69 30 1B 45 13  .........fdi0.E.
11C0: 80 F0 FF FF 7F F0 FF FF  7F 66 64 6F 30 04 80 55  .........fdo0..U
11D0: 13 80 F0 FF FF 7F F0 FF  FF 7F 66 64 6F 30 1B 45  ..........fdo0.E
11E0: 13 80 F0 FF FF 7F F0 FF  FF 7F 66 64 69 31 04 80  ..........fdi1..
11F0: 55 13 80 F0 FF FF 7F F0  FF FF 7F 66 64 69 31 1B  U..........fdi1.
1200: 45 13 80 F0 FF FF 7F F0  FF FF 7F 66 64 6F 31 04  E..........fdo1.
1210: 80 55 13 80 F0 FF FF 7F  F0 FF FF 7F 66 64 6F 31  .U..........fdo1
1220: 1B 45 3F 80 F0 FF FF 7F  F0 FF FF 7F 77 68 69 31  .E?.........whi1
1230: 04 80 55 3F 80 F0 FF FF  7F F0 FF FF 7F 77 68 69  ..U?.........whi
1240: 31 1B 45 3F 80 F0 FF FF  7F F0 FF FF 7F 77 68 6F  1.E?.........who
1250: 31 04 80 55 3F 80 F0 FF  FF 7F F0 FF FF 7F 77 68  1..U?.........wh
1260: 6F 31 1B 45 3F 80 F0 FF  FF 7F F0 FF FF 7F 77 68  o1.E?.........wh
1270: 6F 32 04 80 55 3F 80 F0  FF FF 7F F0 FF FF 7F 77  o2..U?.........w
1280: 68 6F 32 1B 45 3F 80 F0  FF FF 7F F0 FF FF 7F 77  ho2.E?.........w
1290: 68 6F 33 04 80 55 3F 80  F0 FF FF 7F F0 FF FF 7F  ho3..U?.........
12A0: 77 68 6F 33 1B 62 05 80  F0 FF FF 7F F0 FF FF 7F  who3.b..........
12B0: 6D 61 69 6E 04 80 1C 9B  80 45 13 80 F0 FF FF 7F  main.....E......
12C0: F0 FF FF 7F 66 64 6F 31  04 80 55 13 80 F0 FF FF  ....fdo1..U.....
12D0: 7F F0 FF FF 7F 66 64 6F  31 1B 45 13 80 F0 FF FF  .....fdo1.E.....
12E0: 7F F0 FF FF 7F 66 64 69  31 04 80 62 0E 80 F0 FF  .....fdi1..b....
12F0: FF 7F F0 FF FF 7F 6D 61  69 6E 04 80 1C 38 80 55  ......main...8.U
1300: 13 80 F0 FF FF 7F F0 FF  FF 7F 66 64 69 31 1B 45  ..........fdi1.E
1310: 13 80 F0 FF FF 7F F0 FF  FF 7F 62 6C 6F 6E 04 80  ..........blon..
1320: 45 3F 80 F0 FF FF 7F F0  FF FF 7F 62 6C 6F 6E 04  E?.........blon.
1330: 80 1B 45 3F 80 F0 FF FF  7F F0 FF FF 7F 77 68 69  ..E?.........whi
1340: 30 04 80 55 3F 80 F0 FF  FF 7F F0 FF FF 7F 77 68  0..U?.........wh
1350: 69 30 1B 45 3F 80 F0 FF  FF 7F F0 FF FF 7F 77 68  i0.E?.........wh
1360: 6F 30 04 80 55 3F 80 F0  FF FF 7F F0 FF FF 7F 77  o0..U?.........w
1370: 68 6F 30 1B 45 9C 80 F0  FF FF 7F F0 FF FF 7F 65  ho0.E..........e
1380: 66 6F 6E 04 80 55 9C 80  F0 FF FF 7F F0 FF FF 7F  fon..U..........
1390: 65 66 6F 6E 1B 45 13 80  F0 FF FF 7F F0 FF FF 7F  efon.E..........
13A0: 66 64 69 73 04 80 1B 45  13 80 F0 FF FF 7F F0 FF  fdis...E........
13B0: FF 7F 66 64 6F 73 04 80  55 13 80 F0 FF FF 7F F0  ..fdos..U.......
13C0: FF FF 7F 66 64 6F 73 1B  45 13 80 F0 FF FF 7F F0  ...fdos.E.......
13D0: FF FF 7F 66 64 69 66 04  80 1B 45 13 80 F0 FF FF  ...fdif...E.....
13E0: 7F F0 FF FF 7F 66 64 6F  66 04 80 55 13 80 F0 FF  .....fdof..U....
13F0: FF 7F F0 FF FF 7F 66 64  6F 66 1B 45 13 80 F0 FF  ......fdof.E....
1400: FF 7F F0 FF FF 7F 66 64  69 70 04 80 1B 45 13 80  ......fdip...E..
1410: F0 FF FF 7F F0 FF FF 7F  66 64 6F 70 04 80 55 13  ........fdop..U.
1420: 80 F0 FF FF 7F F0 FF FF  7F 66 64 6F 70 1B 02 00  .........fdop...
1430: 00 05 80 80 4D 14 03 09  00 18 80 03 0A 00 19 80  ....M...........
1440: 03 0B 00 1A 80 03 0C 00  1B 80 01 AA 14 02 00 00  ................
1450: 0E 80 80 6C 14 03 09 00  1C 80 03 0A 00 1D 80 03  ...l............
1460: 0B 00 1E 80 03 0C 00 1B  80 01 AA 14 02 00 00 0F  ................
1470: 80 80 8B 14 03 09 00 18  80 03 0A 00 1F 80 03 0B  ................
1480: 00 20 80 03 0C 00 1B 80  01 AA 14 02 00 00 10 80  . ..............
1490: 80 AA 14 03 09 00 04 80  03 0A 00 04 80 03 0B 00  ................
14A0: 04 80 03 0C 00 04 80 01  AA 14 1B                 ...........     
```

#### Opcodes

```
  0: 0x0F81 [0x21] END_EVENT
  1: 0x0F82 [0x00] END_REQSTACK()
```

#### Data or dead code:

```
# Dead code (unreachable instructions):
     0x0F83 [0x24] CREATE_DIALOG(message_id=7590*, default_option=1*, option_flags=0*)
    → "Enter the battlefield? [Enter./Decline.]"
     0x0F8A [0x25] WAIT_DIALOG_SELECT()
     0x0F8B [0x02] IF !(Work_Zone[0] == 0*) GOTO 0x0F99
     0x0F93 [0x05] ExtData[1]->WorkLocal[1] = 1
     0x0F96 [0x01] GOTO 0x0F99
     0x0F99 [0x1B] RETURN
     0x0F9A [0x79] LocalPlayer looks at LocalPlayer (Basic look)
     0x0FA4 [0x42] SET_CLI_EVENT_CANCEL_DATA()
     0x0FA5 [0x46] CAMERA_CONTROL: Disable user control
     0x0FA7 [0x02] IF !(ExtData[1]->WorkLocal[3] == 30*) GOTO 0x0FB2
     0x0FAF [0x01] GOTO 0x0FFE
     0x0FB2 [0x37] UPDATE_EVENT_POSITION_AND_DIR: x=299.621*, z=38.645*, y=39.749*, direction=270.0°*
     0x0FBB [0x45] LOAD_SCHEDULED_TASK: Load scheduler "b92a" with entities [LocalPlayer, LocalPlayer], work=[325*, 0*]
     0x0FCC [0x1A] CALL_SUBROUTINE(address=0x11DF)
     0x0FCF [0x27] REQ_SET(priority=0x03, entity_id=Ironbound Gate (ID: 17154819/0x0105C303), tag_num=0x02)
     0x0FD6 [0x1C] WAIT(60* ticks)
     0x0FD9 [0x32] ExtData[1]->MainSpeed = 13* * 0.1
     0x0FDC [0x45] LOAD_SCHEDULED_TASK: Load scheduler "fdo1" with entities [LocalPlayer, LocalPlayer], work=[200*, 0*]
     0x0FED [0x1F] MOVE_ENTITY: EventEntity moves to X=299.543*, Z=42.222*, Y=39.936*
     0x0FF5 [0x1F] MOVE_ENTITY: Update entity position (mode=1)
     0x0FF7 [0x27] REQ_SET(priority=0x05, entity_id=Ironbound Gate (ID: 17154819/0x0105C303), tag_num=0x03)
     0x0FFE [0x78] ENABLE_GAME_TIMER_RESET_WEATHER()
     0x0FFF [0x37] UPDATE_EVENT_POSITION_AND_DIR: x=540.419*, z=328.580*, y=-40.016*, direction=270.0°*
     0x1008 [0x1C] WAIT(10* ticks)
     0x100B [0x1A] CALL_SUBROUTINE(address=0x118B)
     0x100E [0x62] LOAD_EVENT_SCHEDULER: Load scheduler "main" with entities [LocalPlayer, LocalPlayer], work=[2*, 0*]
     0x101F [0x46] CAMERA_CONTROL: Restore default settings
     0x1021 [0x45] LOAD_SCHEDULED_TASK: Load scheduler "fdi2" with entities [LocalPlayer, LocalPlayer], work=[200*, 0*]
     0x1032 [0x1B] RETURN
     0x1033 [0x02] IF !(ExtData[1]->WorkLocal[24] == 30*) GOTO 0x103E
     0x103B [0x01] GOTO 0x1060
     0x103E [0x46] CAMERA_CONTROL: Disable user control
     0x1040 [0x45] LOAD_SCHEDULED_TASK: Load scheduler "fdo2" with entities [LocalPlayer, LocalPlayer], work=[200*, 0*]
     0x1051 [0x55] WAIT_LOAD_SCHEDULER: Wait for scheduler "fdo2" with entities [LocalPlayer, LocalPlayer], work=200*
     0x1060 [0x92] LocalPlayer->Render.Flags3 ^= 0x01
     0x1066 [0x37] UPDATE_EVENT_POSITION_AND_DIR: x=224.167*, z=-20.503*, y=1.513*, direction=190.9°*
     0x106F [0x1C] WAIT(10* ticks)
     0x1072 [0x1A] CALL_SUBROUTINE(address=0x118B)
     0x1075 [0x45] LOAD_SCHEDULED_TASK: Load scheduler "fdi2" with entities [LocalPlayer, LocalPlayer], work=[200*, 0*]
     0x1086 [0x62] LOAD_EVENT_SCHEDULER: Load scheduler "main" with entities [LocalPlayer, LocalPlayer], work=[2*, 0*]
     0x1097 [0x1C] WAIT(120* ticks)
     0x109A [0x46] CAMERA_CONTROL: Restore default settings
     0x109C [0x1B] RETURN
     0x109D [0x24] CREATE_DIALOG(message_id=7591*, default_option=1*, option_flags=0*)
    → "Leave the battlefield? [Run away./Stay.]"
     0x10A4 [0x25] WAIT_DIALOG_SELECT()
     0x10A5 [0x02] IF !(Work_Zone[0] == 0*) GOTO 0x10B3
     0x10AD [0x05] ExtData[1]->WorkLocal[28] = 1
     0x10B0 [0x01] GOTO 0x10B3
     0x10B3 [0x1B] RETURN
     0x10B4 [0x05] ExtData[1]->WorkLocal[29] = 1
     0x10B7 [0x1B] RETURN
     0x10B8 [0x46] CAMERA_CONTROL: Disable user control
     0x10BA [0x37] UPDATE_EVENT_POSITION_AND_DIR: x=539.648*, z=321.888*, y=-40.171*, direction=90.5°*
     0x10C3 [0x1C] WAIT(10* ticks)
     0x10C6 [0x1A] CALL_SUBROUTINE(address=0x118B)
     0x10C9 [0x45] LOAD_SCHEDULED_TASK: Load scheduler "fdi1" with entities [LocalPlayer, LocalPlayer], work=[200*, 0*]
     0x10DA [0x27] REQ_SET(priority=0x03, entity_id=Ironbound Gate (ID: 17154820/0x0105C304), tag_num=0x02)
     0x10E1 [0x1C] WAIT(60* ticks)
     0x10E4 [0x32] ExtData[1]->MainSpeed = 40* * 0.1
     0x10E7 [0x45] LOAD_SCHEDULED_TASK: Load scheduler "fdo1" with entities [LocalPlayer, LocalPlayer], work=[200*, 0*]
     0x10F8 [0x1F] MOVE_ENTITY: EventEntity moves to X=539.582*, Z=317.165*, Y=-39.937*
     0x1100 [0x1F] MOVE_ENTITY: Update entity position (mode=1)
     0x1102 [0x27] REQ_SET(priority=0x05, entity_id=Ironbound Gate (ID: 17154820/0x0105C304), tag_num=0x03)
     0x1109 [0x37] UPDATE_EVENT_POSITION_AND_DIR: x=299.792*, z=36.047*, y=40.065*, direction=87.1°*
     0x1112 [0x62] LOAD_EVENT_SCHEDULER: Load scheduler "main" with entities [LocalPlayer, LocalPlayer], work=[2*, 0*]
     0x1123 [0x46] CAMERA_CONTROL: Restore default settings
     0x1125 [0x45] LOAD_SCHEDULED_TASK: Load scheduler "fdi2" with entities [LocalPlayer, LocalPlayer], work=[200*, 0*]
     0x1136 [0x1B] RETURN
     0x1137 [0x6C] FADE_ENTITY_COLOR(entity_id=LocalPlayer, end_alpha=0*, fade_time=1*)
     0x1140 [0x46] CAMERA_CONTROL: Disable user control
     0x1142 [0x92] LocalPlayer->Render.Flags3 ^= 0x01
     0x1148 [0x37] UPDATE_EVENT_POSITION_AND_DIR: x=299.792*, z=36.047*, y=40.065*, direction=87.1°*
     0x1151 [0x1C] WAIT(10* ticks)
     0x1154 [0x1A] CALL_SUBROUTINE(address=0x118B)
     0x1157 [0x45] LOAD_SCHEDULED_TASK: Load scheduler "fdi2" with entities [LocalPlayer, LocalPlayer], work=[200*, 0*]
     0x1168 [0x62] LOAD_EVENT_SCHEDULER: Load scheduler "main" with entities [LocalPlayer, LocalPlayer], work=[2*, 0*]
     0x1179 [0x1C] WAIT(120* ticks)
     0x117C [0x46] CAMERA_CONTROL: Restore default settings
     0x117E [0x1B] RETURN
     0x117F [0x02] IF !(ExtData[1]->WorkLocal[3] == 0*) GOTO 0x118A
     0x1187 [0x01] GOTO 0x118A
     0x118A [0x1B] RETURN
     0x118B [0x45] LOAD_SCHEDULED_TASK: Load scheduler "back" with entities [LocalPlayer, LocalPlayer], work=[108*, 0*]
     0x119C [0x1B] RETURN
     0x119D [0x45] LOAD_SCHEDULED_TASK: Load scheduler "fdi0" with entities [LocalPlayer, LocalPlayer], work=[200*, 0*]
     0x11AE [0x55] WAIT_LOAD_SCHEDULER: Wait for scheduler "fdi0" with entities [LocalPlayer, LocalPlayer], work=200*
     0x11BD [0x1B] RETURN
     0x11BE [0x45] LOAD_SCHEDULED_TASK: Load scheduler "fdo0" with entities [LocalPlayer, LocalPlayer], work=[200*, 0*]
     0x11CF [0x55] WAIT_LOAD_SCHEDULER: Wait for scheduler "fdo0" with entities [LocalPlayer, LocalPlayer], work=200*
     0x11DE [0x1B] RETURN
     0x11DF [0x45] LOAD_SCHEDULED_TASK: Load scheduler "fdi1" with entities [LocalPlayer, LocalPlayer], work=[200*, 0*]
     0x11F0 [0x55] WAIT_LOAD_SCHEDULER: Wait for scheduler "fdi1" with entities [LocalPlayer, LocalPlayer], work=200*
     0x11FF [0x1B] RETURN
     0x1200 [0x45] LOAD_SCHEDULED_TASK: Load scheduler "fdo1" with entities [LocalPlayer, LocalPlayer], work=[200*, 0*]
     0x1211 [0x55] WAIT_LOAD_SCHEDULER: Wait for scheduler "fdo1" with entities [LocalPlayer, LocalPlayer], work=200*
     0x1220 [0x1B] RETURN
     0x1221 [0x45] LOAD_SCHEDULED_TASK: Load scheduler "whi1" with entities [LocalPlayer, LocalPlayer], work=[201*, 0*]
     0x1232 [0x55] WAIT_LOAD_SCHEDULER: Wait for scheduler "whi1" with entities [LocalPlayer, LocalPlayer], work=201*
     0x1241 [0x1B] RETURN
     0x1242 [0x45] LOAD_SCHEDULED_TASK: Load scheduler "who1" with entities [LocalPlayer, LocalPlayer], work=[201*, 0*]
     0x1253 [0x55] WAIT_LOAD_SCHEDULER: Wait for scheduler "who1" with entities [LocalPlayer, LocalPlayer], work=201*
     0x1262 [0x1B] RETURN
     0x1263 [0x45] LOAD_SCHEDULED_TASK: Load scheduler "who2" with entities [LocalPlayer, LocalPlayer], work=[201*, 0*]
     0x1274 [0x55] WAIT_LOAD_SCHEDULER: Wait for scheduler "who2" with entities [LocalPlayer, LocalPlayer], work=201*
     0x1283 [0x1B] RETURN
     0x1284 [0x45] LOAD_SCHEDULED_TASK: Load scheduler "who3" with entities [LocalPlayer, LocalPlayer], work=[201*, 0*]
     0x1295 [0x55] WAIT_LOAD_SCHEDULER: Wait for scheduler "who3" with entities [LocalPlayer, LocalPlayer], work=201*
     0x12A4 [0x1B] RETURN
     0x12A5 [0x62] LOAD_EVENT_SCHEDULER: Load scheduler "main" with entities [LocalPlayer, LocalPlayer], work=[1*, 0*]
     0x12B6 [0x1C] WAIT(45* ticks)
     0x12B9 [0x45] LOAD_SCHEDULED_TASK: Load scheduler "fdo1" with entities [LocalPlayer, LocalPlayer], work=[200*, 0*]
     0x12CA [0x55] WAIT_LOAD_SCHEDULER: Wait for scheduler "fdo1" with entities [LocalPlayer, LocalPlayer], work=200*
     0x12D9 [0x1B] RETURN
     0x12DA [0x45] LOAD_SCHEDULED_TASK: Load scheduler "fdi1" with entities [LocalPlayer, LocalPlayer], work=[200*, 0*]
     0x12EB [0x62] LOAD_EVENT_SCHEDULER: Load scheduler "main" with entities [LocalPlayer, LocalPlayer], work=[2*, 0*]
     0x12FC [0x1C] WAIT(30* ticks)
     0x12FF [0x55] WAIT_LOAD_SCHEDULER: Wait for scheduler "fdi1" with entities [LocalPlayer, LocalPlayer], work=200*
     0x130E [0x1B] RETURN
     0x130F [0x45] LOAD_SCHEDULED_TASK: Load scheduler "blon" with entities [LocalPlayer, LocalPlayer], work=[200*, 0*]
     0x1320 [0x45] LOAD_SCHEDULED_TASK: Load scheduler "blon" with entities [LocalPlayer, LocalPlayer], work=[201*, 0*]
     0x1331 [0x1B] RETURN
     0x1332 [0x45] LOAD_SCHEDULED_TASK: Load scheduler "whi0" with entities [LocalPlayer, LocalPlayer], work=[201*, 0*]
     0x1343 [0x55] WAIT_LOAD_SCHEDULER: Wait for scheduler "whi0" with entities [LocalPlayer, LocalPlayer], work=201*
     0x1352 [0x1B] RETURN
     0x1353 [0x45] LOAD_SCHEDULED_TASK: Load scheduler "who0" with entities [LocalPlayer, LocalPlayer], work=[201*, 0*]
     0x1364 [0x55] WAIT_LOAD_SCHEDULER: Wait for scheduler "who0" with entities [LocalPlayer, LocalPlayer], work=201*
     0x1373 [0x1B] RETURN
     0x1374 [0x45] LOAD_SCHEDULED_TASK: Load scheduler "efon" with entities [LocalPlayer, LocalPlayer], work=[215*, 0*]
     0x1385 [0x55] WAIT_LOAD_SCHEDULER: Wait for scheduler "efon" with entities [LocalPlayer, LocalPlayer], work=215*
     0x1394 [0x1B] RETURN
     0x1395 [0x45] LOAD_SCHEDULED_TASK: Load scheduler "fdis" with entities [LocalPlayer, LocalPlayer], work=[200*, 0*]
     0x13A6 [0x1B] RETURN
     0x13A7 [0x45] LOAD_SCHEDULED_TASK: Load scheduler "fdos" with entities [LocalPlayer, LocalPlayer], work=[200*, 0*]
     0x13B8 [0x55] WAIT_LOAD_SCHEDULER: Wait for scheduler "fdos" with entities [LocalPlayer, LocalPlayer], work=200*
     0x13C7 [0x1B] RETURN
     0x13C8 [0x45] LOAD_SCHEDULED_TASK: Load scheduler "fdif" with entities [LocalPlayer, LocalPlayer], work=[200*, 0*]
     0x13D9 [0x1B] RETURN
     0x13DA [0x45] LOAD_SCHEDULED_TASK: Load scheduler "fdof" with entities [LocalPlayer, LocalPlayer], work=[200*, 0*]
     0x13EB [0x55] WAIT_LOAD_SCHEDULER: Wait for scheduler "fdof" with entities [LocalPlayer, LocalPlayer], work=200*
     0x13FA [0x1B] RETURN
     0x13FB [0x45] LOAD_SCHEDULED_TASK: Load scheduler "fdip" with entities [LocalPlayer, LocalPlayer], work=[200*, 0*]
     0x140C [0x1B] RETURN
     0x140D [0x45] LOAD_SCHEDULED_TASK: Load scheduler "fdop" with entities [LocalPlayer, LocalPlayer], work=[200*, 0*]
     0x141E [0x55] WAIT_LOAD_SCHEDULER: Wait for scheduler "fdop" with entities [LocalPlayer, LocalPlayer], work=200*
     0x142D [0x1B] RETURN
     0x142E [0x02] IF !(ExtData[1]->WorkLocal[0] == 1*) GOTO 0x144D
     0x1436 [0x03] ExtData[1]->WorkLocal[9] = 540419*
     0x143B [0x03] ExtData[1]->WorkLocal[10] = 328580*
     0x1440 [0x03] ExtData[1]->WorkLocal[11] = 4294927280*
     0x1445 [0x03] ExtData[1]->WorkLocal[12] = 3072*
     0x144A [0x01] GOTO 0x14AA
     0x144D [0x02] IF !(ExtData[1]->WorkLocal[0] == 2*) GOTO 0x146C
     0x1455 [0x03] ExtData[1]->WorkLocal[9] = 340432*
     0x145A [0x03] ExtData[1]->WorkLocal[10] = 4294655819*
     0x145F [0x03] ExtData[1]->WorkLocal[11] = 4294847282*
     0x1464 [0x03] ExtData[1]->WorkLocal[12] = 3072*
     0x1469 [0x01] GOTO 0x14AA
     0x146C [0x02] IF !(ExtData[1]->WorkLocal[0] == 3*) GOTO 0x148B
     0x1474 [0x03] ExtData[1]->WorkLocal[9] = 540419*
     0x1479 [0x03] ExtData[1]->WorkLocal[10] = 4294655934*
     0x147E [0x03] ExtData[1]->WorkLocal[11] = 4294767278*
     0x1483 [0x03] ExtData[1]->WorkLocal[12] = 3072*
     0x1488 [0x01] GOTO 0x14AA
     0x148B [0x02] IF !(ExtData[1]->WorkLocal[0] == 4*) GOTO 0x14AA
     0x1493 [0x03] ExtData[1]->WorkLocal[9] = 0*
     0x1498 [0x03] ExtData[1]->WorkLocal[10] = 0*
     0x149D [0x03] ExtData[1]->WorkLocal[11] = 0*
     0x14A2 [0x03] ExtData[1]->WorkLocal[12] = 0*
     0x14A7 [0x01] GOTO 0x14AA
     0x14AA [0x1B] RETURN
```
