# Event 65535

## Metadata

| Field           | Value    |
|-----------------|----------|
| Event Index     | 34/39    |
| Offset          | 0x0209   |
| Data Size       | 79 bytes |
| Calculated Size | 79 bytes |
| Instructions    | 11       |

```
      00 01 02 03 04 05 06 07  08 09 0A 0B 0C 0D 0E 0F
      -- -- -- -- -- -- -- --  -- -- -- -- -- -- -- --
0200:                             39 29 80 1C 05 80 66           9)....f
0210: 01 80 F8 FF FF 7F F8 FF  FF 7F 73 68 61 30 1C 2A  ..........sha0.*
0220: 80 66 01 80 F8 FF FF 7F  F8 FF FF 7F 73 69 72 30  .f..........sir0
0230: 1C 05 80 66 01 80 F8 FF  FF 7F F8 FF FF 7F 73 69  ...f..........si
0240: 72 31 1C 2B 80 66 01 80  F8 FF FF 7F F8 FF FF 7F  r1.+.f..........
0250: 73 68 61 31 1C 2A 80 00                           sha1.*..        
```

## Opcodes

```
  0: 0x0209 [0x39] SET_ENTITY_DIRECTION(direction=10.5°*)
  1: 0x020C [0x1C] WAIT(60* ticks)
  2: 0x020F [0x66] LOAD_EXT_SCHEDULER_MAIN(work_offset=9*, entity1=EventEntity, entity2=EventEntity, action="sha0")
  3: 0x021E [0x1C] WAIT(120* ticks)
  4: 0x0221 [0x66] LOAD_EXT_SCHEDULER_MAIN(work_offset=9*, entity1=EventEntity, entity2=EventEntity, action="sir0")
  5: 0x0230 [0x1C] WAIT(60* ticks)
  6: 0x0233 [0x66] LOAD_EXT_SCHEDULER_MAIN(work_offset=9*, entity1=EventEntity, entity2=EventEntity, action="sir1")
  7: 0x0242 [0x1C] WAIT(30* ticks)
  8: 0x0245 [0x66] LOAD_EXT_SCHEDULER_MAIN(work_offset=9*, entity1=EventEntity, entity2=EventEntity, action="sha1")
  9: 0x0254 [0x1C] WAIT(120* ticks)
 10: 0x0257 [0x00] END_REQSTACK()
```
