# Event 65535

## Metadata

| Field           | Value    |
|-----------------|----------|
| Event Index     | 39/39    |
| Offset          | 0x028A   |
| Data Size       | 50 bytes |
| Calculated Size | 50 bytes |
| Instructions    | 12       |

```
      00 01 02 03 04 05 06 07  08 09 0A 0B 0C 0D 0E 0F
      -- -- -- -- -- -- -- --  -- -- -- -- -- -- -- --
0280:                                39 32 80 1C 33 80            92..3.
0290: 32 0C 80 1F 00 34 80 35  80 36 80 1F 01 1F 00 37  2....4.5.6.....7
02A0: 80 38 80 39 80 1F 01 1F  00 3A 80 3B 80 3C 80 1F  .8.9.....:.;.<..
02B0: 01 1F 00 3D 80 3E 80 3F  80 1F 01 00              ...=.>.?....    
```

## Opcodes

```
  0: 0x028A [0x39] SET_ENTITY_DIRECTION(direction=355.1°*)
  1: 0x028D [0x1C] WAIT(5* ticks)
  2: 0x0290 [0x32] ExtData[1]->MainSpeed = 40* * 0.1
  3: 0x0293 [0x1F] MOVE_ENTITY: EventEntity moves to X=168.450*, Z=167.490*, Y=0.090*
  4: 0x029B [0x1F] MOVE_ENTITY: Update entity position (mode=1)
  5: 0x029D [0x1F] MOVE_ENTITY: EventEntity moves to X=171.380*, Z=175.240*, Y=0.580*
  6: 0x02A5 [0x1F] MOVE_ENTITY: Update entity position (mode=1)
  7: 0x02A7 [0x1F] MOVE_ENTITY: EventEntity moves to X=176.410*, Z=184.100*, Y=1.080*
  8: 0x02AF [0x1F] MOVE_ENTITY: Update entity position (mode=1)
  9: 0x02B1 [0x1F] MOVE_ENTITY: EventEntity moves to X=202.650*, Z=205.880*, Y=0.140*
 10: 0x02B9 [0x1F] MOVE_ENTITY: Update entity position (mode=1)
 11: 0x02BB [0x00] END_REQSTACK()
```
