# Event 65535

## Metadata

| Field           | Value    |
|-----------------|----------|
| Event Index     | 18/111   |
| Offset          | 0x0246   |
| Data Size       | 35 bytes |
| Calculated Size | 35 bytes |
| Instructions    | 8        |

```
      00 01 02 03 04 05 06 07  08 09 0A 0B 0C 0D 0E 0F
      -- -- -- -- -- -- -- --  -- -- -- -- -- -- -- --
0240:                   32 1C  80 33 01 37 3A 80 3B 80        2..3.7:.;.
0250: 3C 80 3D 80 5A 00 3E 80  3F 80 40 80 5A 01 1F 00  <.=.Z.>.?.@.Z...
0260: 41 80 3F 80 40 80 1F 01  00                       A.?.@....       
```

## Opcodes

```
  0: 0x0246 [0x32] ExtData[1]->MainSpeed = 13* * 0.1
  1: 0x0249 [0x33] EventEntity->Render.Flags0 |= 0x200000 // Bit 21 (flag=0x01)
  2: 0x024B [0x37] UPDATE_EVENT_POSITION_AND_DIR: x=91.535*, z=32.010*, y=-14.000*, direction=356.0°*
  3: 0x0254 [0x5A] UPDATE_EVENT_POSITION: Set EventEntity MovePosition to X=99.557*, Z=32.245*, Y=-16.984*
  4: 0x025C [0x5A] UPDATE_EVENT_POSITION: Move EventEntity incrementally towards MovePosition
  5: 0x025E [0x1F] MOVE_ENTITY: EventEntity moves to X=99.757*, Z=32.245*, Y=-16.984*
  6: 0x0266 [0x1F] MOVE_ENTITY: Update entity position (mode=1)
  7: 0x0268 [0x00] END_REQSTACK()
```
