# Event 804

## Metadata

| Field           | Value    |
|-----------------|----------|
| Event Index     | 38/111   |
| Offset          | 0x037E   |
| Data Size       | 46 bytes |
| Calculated Size | 46 bytes |
| Instructions    | 10       |

```
      00 01 02 03 04 05 06 07  08 09 0A 0B 0C 0D 0E 0F
      -- -- -- -- -- -- -- --  -- -- -- -- -- -- -- --
0370:                                            1E F0                ..
0380: FF FF 7F 6F 70 66 09 80  2F D0 0E 01 2F D0 0E 01  ...opf../.../...
0390: 74 68 6B 31 1D 73 80 23  66 09 80 2F D0 0E 01 2F  thk1.s.#f../.../
03A0: D0 0E 01 74 68 6B 32 1C  5C 80 21 00              ...thk2.\.!.    
```

## Opcodes

```
  0: 0x037E [0x1E] EventEntity looks at LocalPlayer and starts talking
  1: 0x0383 [0x6F] WAIT_FRAME_DELAY: Yield until WaitTime reaches zero
  2: 0x0384 [0x70] WAIT_ENTITY_RENDER_FLAG: Wait while EventEntity->Render.Flags3 bit 2 is set (cancel turn if not)
  3: 0x0385 [0x66] LOAD_EXT_SCHEDULER_MAIN(work_offset=10*, entity1=Ayame (ID: 17748015/0x010ED02F), entity2=Ayame (ID: 17748015/0x010ED02F), action="thk1")
  4: 0x0394 [0x1D] PRINT_EVENT_MESSAGE(message_id=9102*)
    → "Viresefilant...?\u0007What is going on here?\u0007I must speak with Senator Alois...\u007F1\u0000\u0007"
  5: 0x0397 [0x23] WAIT_FOR_DIALOG_INTERACTION
  6: 0x0398 [0x66] LOAD_EXT_SCHEDULER_MAIN(work_offset=10*, entity1=Ayame (ID: 17748015/0x010ED02F), entity2=Ayame (ID: 17748015/0x010ED02F), action="thk2")
  7: 0x03A7 [0x1C] WAIT(30* ticks)
  8: 0x03AA [0x21] END_EVENT
  9: 0x03AB [0x00] END_REQSTACK()
```
