# Event 876

## Metadata

| Field           | Value    |
|-----------------|----------|
| Event Index     | 99/111   |
| Offset          | 0x073E   |
| Data Size       | 23 bytes |
| Calculated Size | 23 bytes |
| Instructions    | 12       |

```
      00 01 02 03 04 05 06 07  08 09 0A 0B 0C 0D 0E 0F
      -- -- -- -- -- -- -- --  -- -- -- -- -- -- -- --
0730:                                            1E F0                ..
0740: FF FF 7F 6F 70 1D 85 80  23 1D 86 80 23 1D 87 80  ...op...#...#...
0750: 23 20 00 21 00                                    # .!.           
```

## Opcodes

```
  0: 0x073E [0x1E] EventEntity looks at LocalPlayer and starts talking
  1: 0x0743 [0x6F] WAIT_FRAME_DELAY: Yield until WaitTime reaches zero
  2: 0x0744 [0x70] WAIT_ENTITY_RENDER_FLAG: Wait while EventEntity->Render.Flags3 bit 2 is set (cancel turn if not)
  3: 0x0745 [0x1D] PRINT_EVENT_MESSAGE(message_id=10000*)
    → "Virnage, a priest staying at the Bat's Lair in the Mines District, has shown an interest in the book of worship the Moblins were keeping in Movalpolos.\u007F1\u0000\u0007"
  4: 0x0748 [0x23] WAIT_FOR_DIALOG_INTERACTION
  5: 0x0749 [0x1D] PRINT_EVENT_MESSAGE(message_id=9998*)
    → "He would like to employ an adventurer to communicate with the Moblins.\u007F1\u0000\u0007"
  6: 0x074C [0x23] WAIT_FOR_DIALOG_INTERACTION
  7: 0x074D [0x1D] PRINT_EVENT_MESSAGE(message_id=9999*)
    → "Virnage is willing to pay a reward for your services, so it could be worth your while to hear his proposal.\u007F1\u0000\u0007"
  8: 0x0750 [0x23] WAIT_FOR_DIALOG_INTERACTION
  9: 0x0751 [0x20] SET_CLI_EVENT_UC_FLAG: Unlock player control
 10: 0x0753 [0x21] END_EVENT
 11: 0x0754 [0x00] END_REQSTACK()
```
