# Event 880

## Metadata

| Field           | Value    |
|-----------------|----------|
| Event Index     | 101/111  |
| Offset          | 0x0756   |
| Data Size       | 42 bytes |
| Calculated Size | 42 bytes |
| Instructions    | 14       |

```
      00 01 02 03 04 05 06 07  08 09 0A 0B 0C 0D 0E 0F
      -- -- -- -- -- -- -- --  -- -- -- -- -- -- -- --
0750:                   1E F0  FF FF 7F 6F 70 1D 88 80        .....op...
0760: 23 02 02 10 06 80 00 74  07 2B 2F D0 0E 01 89 80  #......t.+/.....
0770: 23 01 7C 07 2B 2F D0 0E  01 8A 80 23 20 00 21 00  #.|.+/.....# .!.
```

## Opcodes

```
  0: 0x0756 [0x1E] EventEntity looks at LocalPlayer and starts talking
  1: 0x075B [0x6F] WAIT_FRAME_DELAY: Yield until WaitTime reaches zero
  2: 0x075C [0x70] WAIT_ENTITY_RENDER_FLAG: Wait while EventEntity->Render.Flags3 bit 2 is set (cancel turn if not)
  3: 0x075D [0x1D] PRINT_EVENT_MESSAGE(message_id=10023*)
    → "Find the one in Movalpolos who can help us with the Moblin language.\u007F1\u0000\u0007"
  4: 0x0760 [0x23] WAIT_FOR_DIALOG_INTERACTION
  5: 0x0761 [0x02] IF !(Work_Zone[2] == 0*) GOTO 0x0774
  6: 0x0769 [0x2B] Ayame (ID: 17748015/0x010ED02F) [10021*]:
    → "You must track down this person again and investigate what exactly is going on in the tunnels of Movalpolos.\u007F1\u0000\u0007"
  7: 0x0770 [0x23] WAIT_FOR_DIALOG_INTERACTION
  8: 0x0771 [0x01] GOTO 0x077C
  9: 0x0774 [0x2B] Ayame (ID: 17748015/0x010ED02F) [10022*]:
    → "Return to Movalpolos and seek out the one who aided you. Find out what is happening in those tunnels.\u007F1\u0000\u0007"
 10: 0x077B [0x23] WAIT_FOR_DIALOG_INTERACTION
 11: 0x077C [0x20] SET_CLI_EVENT_UC_FLAG: Unlock player control
 12: 0x077E [0x21] END_EVENT
 13: 0x077F [0x00] END_REQSTACK()
```
