# Event 65535

## Metadata

| Field           | Value    |
|-----------------|----------|
| Event Index     | 31/45    |
| Offset          | 0x03E1   |
| Data Size       | 54 bytes |
| Calculated Size | 54 bytes |
| Instructions    | 12       |

```
      00 01 02 03 04 05 06 07  08 09 0A 0B 0C 0D 0E 0F
      -- -- -- -- -- -- -- --  -- -- -- -- -- -- -- --
03E0:    1C 13 80 1F 00 36 80  37 80 38 80 1F 01 1F 00   .....6.7.8.....
03F0: 39 80 3A 80 3B 80 1F 01  1F 00 3C 80 3D 80 3B 80  9.:.;.....<.=.;.
0400: 1F 01 1F 00 3E 80 3F 80  3B 80 1F 01 1F 00 40 80  ....>.?.;.....@.
0410: 41 80 42 80 1F 01 00                              A.B....         
```

## Opcodes

```
  0: 0x03E1 [0x1C] WAIT(10* ticks)
  1: 0x03E4 [0x1F] MOVE_ENTITY: EventEntity moves to X=221.604*, Z=22.963*, Y=-24.010*
  2: 0x03EC [0x1F] MOVE_ENTITY: Update entity position (mode=1)
  3: 0x03EE [0x1F] MOVE_ENTITY: EventEntity moves to X=220.164*, Z=21.302*, Y=-24.000*
  4: 0x03F6 [0x1F] MOVE_ENTITY: Update entity position (mode=1)
  5: 0x03F8 [0x1F] MOVE_ENTITY: EventEntity moves to X=218.361*, Z=19.977*, Y=-24.000*
  6: 0x0400 [0x1F] MOVE_ENTITY: Update entity position (mode=1)
  7: 0x0402 [0x1F] MOVE_ENTITY: EventEntity moves to X=215.977*, Z=19.272*, Y=-24.000*
  8: 0x040A [0x1F] MOVE_ENTITY: Update entity position (mode=1)
  9: 0x040C [0x1F] MOVE_ENTITY: EventEntity moves to X=191.710*, Z=18.930*, Y=-24.006*
 10: 0x0414 [0x1F] MOVE_ENTITY: Update entity position (mode=1)
 11: 0x0416 [0x00] END_REQSTACK()
```
