# Event 65535

## Metadata

| Field           | Value    |
|-----------------|----------|
| Event Index     | 9/13     |
| Offset          | 0x0169   |
| Data Size       | 47 bytes |
| Calculated Size | 47 bytes |
| Instructions    | 11       |

```
      00 01 02 03 04 05 06 07  08 09 0A 0B 0C 0D 0E 0F
      -- -- -- -- -- -- -- --  -- -- -- -- -- -- -- --
0160:                             32 25 80 1F 00 26 80           2%...&.
0170: 27 80 1D 80 1F 01 6F 4A  21 E1 0E 01 F0 FF FF 7F  '.....oJ!.......
0180: 6F 70 1C 28 80 5B 19 80  21 E1 0E 01 21 E1 0E 01  op.(.[..!...!...
0190: 74 6C 6B 30 1C 29 80 00                           tlk0.)..        
```

## Opcodes

```
  0: 0x0169 [0x32] ExtData[1]->MainSpeed = 10* * 0.1
  1: 0x016C [0x1F] MOVE_ENTITY: EventEntity moves to X=9.419*, Z=20.242*, Y=-1.000*
  2: 0x0174 [0x1F] MOVE_ENTITY: Update entity position (mode=1)
  3: 0x0176 [0x6F] WAIT_FRAME_DELAY: Yield until WaitTime reaches zero
  4: 0x0177 [0x4A] Babban Ny Mheillea (ID: 17752353/0x010EE121) looks at LocalPlayer
  5: 0x0180 [0x6F] WAIT_FRAME_DELAY: Yield until WaitTime reaches zero
  6: 0x0181 [0x70] WAIT_ENTITY_RENDER_FLAG: Wait while EventEntity->Render.Flags3 bit 2 is set (cancel turn if not)
  7: 0x0182 [0x1C] WAIT(30* ticks)
  8: 0x0185 [0x5B] LOAD_EXT_SCHEDULER: Load scheduler "tlk0" with entities [Babban Ny Mheillea (ID: 17752353/0x010EE121), Babban Ny Mheillea (ID: 17752353/0x010EE121)], work=2161*
  9: 0x0194 [0x1C] WAIT(150* ticks)
 10: 0x0197 [0x00] END_REQSTACK()
```
