# Event 65535

## Metadata

| Field           | Value    |
|-----------------|----------|
| Event Index     | 4/13     |
| Offset          | 0x00C8   |
| Data Size       | 58 bytes |
| Calculated Size | 58 bytes |
| Instructions    | 8        |

```
      00 01 02 03 04 05 06 07  08 09 0A 0B 0C 0D 0E 0F
      -- -- -- -- -- -- -- --  -- -- -- -- -- -- -- --
00C0:                          2F 00 21 E1 0E 01 4E 00          /.!...N.
00D0: 21 E1 0E 01 94 01 21 E1  0E 01 92 01 21 E1 0E 01  !.....!.....!...
00E0: BA 21 E1 0E 01 16 80 17  80 18 80 08 80 80 21 E1  .!............!.
00F0: 0E 01 5B 19 80 21 E1 0E  01 21 E1 0E 01 73 6B 79  ..[..!...!...sky
0100: 30 00                                             0.              
```

## Opcodes

```
  0: 0x00C8 [0x2F] Babban Ny Mheillea (ID: 17752353/0x010EE121)->Render.Flags0 &= ~0x80000 // Bit 19
  1: 0x00CE [0x4E] SET_ENTITY_HIDE_FLAG: Show Babban Ny Mheillea (ID: 17752353/0x010EE121)
  2: 0x00D4 [0x94] Babban Ny Mheillea (ID: 17752353/0x010EE121)->Render.Flags3 ^= 0x01
  3: 0x00DA [0x92] Babban Ny Mheillea (ID: 17752353/0x010EE121)->Render.Flags3 ^= 0x01
  4: 0x00E0 [0xBA] SET_ENTITY_POSITION(entity_id=References[17719585], pos_x=677.634*, pos_z=589.082*, pos_y=-41.000*, direction=223.8°*)
  5: 0x00ED [0x80] LOAD_WAIT(entity=Babban Ny Mheillea (ID: 17752353/0x010EE121))
  6: 0x00F2 [0x5B] LOAD_EXT_SCHEDULER: Load scheduler "sky0" with entities [Babban Ny Mheillea (ID: 17752353/0x010EE121), Babban Ny Mheillea (ID: 17752353/0x010EE121)], work=2161*
  7: 0x0101 [0x00] END_REQSTACK()
```
