# Event 5

## Metadata

| Field           | Value    |
|-----------------|----------|
| Event Index     | 9/9      |
| Offset          | 0x0091   |
| Data Size       | 29 bytes |
| Calculated Size | 29 bytes |
| Instructions    | 7        |

```
      00 01 02 03 04 05 06 07  08 09 0A 0B 0C 0D 0E 0F
      -- -- -- -- -- -- -- --  -- -- -- -- -- -- -- --
0090:    1E F0 FF FF 7F 1C 00  80 5B 07 80 03 33 05 01   ........[...3..
00A0: 03 33 05 01 68 61 70 30  1D 0A 80 23 21 00        .3..hap0...#!.  
```

## Opcodes

```
  0: 0x0091 [0x1E] EventEntity looks at LocalPlayer and starts talking
  1: 0x0096 [0x1C] WAIT(30* ticks)
  2: 0x0099 [0x5B] LOAD_EXT_SCHEDULER(work_offset=216*, entity1=Leadavox (ID: 17117955/0x01053303), entity2=Leadavox (ID: 17117955/0x01053303), action="hap0")
  3: 0x00A8 [0x1D] PRINT_EVENT_MESSAGE(message_id=8104*)
    → "Add a pinch of this, if you're having a good time.\u0001t\u0007And a dash of that, if ya know that ya feel fine.\u0001t\u007F1\u0000\u0007"
  4: 0x00AB [0x23] WAIT_FOR_DIALOG_INTERACTION
  5: 0x00AC [0x21] END_EVENT
  6: 0x00AD [0x00] END_REQSTACK()
```
