# Event 103

## Metadata

| Field           | Value    |
|-----------------|----------|
| Event Index     | 72/79    |
| Offset          | 0x0481   |
| Data Size       | 29 bytes |
| Calculated Size | 29 bytes |
| Instructions    | 10       |

```
      00 01 02 03 04 05 06 07  08 09 0A 0B 0C 0D 0E 0F
      -- -- -- -- -- -- -- --  -- -- -- -- -- -- -- --
0480:    1E F0 FF FF 7F 6F 70  29 08 6C F1 06 01 01 1D   .....op).l.....
0490: 0D 80 23 29 08 6C F1 06  01 02 20 00 21 00        ..#).l.... .!.  
```

## Opcodes

```
  0: 0x0481 [0x1E] EventEntity looks at LocalPlayer and starts talking
  1: 0x0486 [0x6F] WAIT_FRAME_DELAY: Yield until WaitTime reaches zero
  2: 0x0487 [0x70] WAIT_ENTITY_RENDER_FLAG: Wait while EventEntity->Render.Flags3 bit 2 is set (cancel turn if not)
  3: 0x0488 [0x29] REQ_SET_WAIT(priority=0x08, entity_id=Leigon-Moigon (ID: 17232236/0x0106F16C), tag_num=0x01)
  4: 0x048F [0x1D] PRINT_EVENT_MESSAGE(message_id=7452*)
    → "We are researchers f-f-from the Rhinostery in Windurst, assisting M-m-minister Rukususu with unraveling the m-m-mystery that surrounds this p-p-place.\u0007Our p-p-progress has b-b-been somewhat f-f-frozen, though...\u007F1\u0000\u0007"
  5: 0x0492 [0x23] WAIT_FOR_DIALOG_INTERACTION
  6: 0x0493 [0x29] REQ_SET_WAIT(priority=0x08, entity_id=Leigon-Moigon (ID: 17232236/0x0106F16C), tag_num=0x02)
  7: 0x049A [0x20] SET_CLI_EVENT_UC_FLAG: Unlock player control
  8: 0x049C [0x21] END_EVENT
  9: 0x049D [0x00] END_REQSTACK()
```
