# Event 110

## Metadata

| Field           | Value    |
|-----------------|----------|
| Event Index     | 68/114   |
| Offset          | 0x0D52   |
| Data Size       | 33 bytes |
| Calculated Size | 33 bytes |
| Instructions    | 12       |

```
      00 01 02 03 04 05 06 07  08 09 0A 0B 0C 0D 0E 0F
      -- -- -- -- -- -- -- --  -- -- -- -- -- -- -- --
0D50:       1E F0 FF FF 7F 6F  70 29 08 0D 00 0F 01 01    .....op)......
0D60: 1D 4D 80 23 1D 4E 80 23  29 08 0D 00 0F 01 02 20  .M.#.N.#)...... 
0D70: 00 21 00                                          .!.             
```

## Opcodes

```
  0: 0x0D52 [0x1E] EventEntity looks at LocalPlayer and starts talking
  1: 0x0D57 [0x6F] WAIT_FRAME_DELAY: Yield until WaitTime reaches zero
  2: 0x0D58 [0x70] WAIT_ENTITY_RENDER_FLAG: Wait while EventEntity->Render.Flags3 bit 2 is set (cancel turn if not)
  3: 0x0D59 [0x29] REQ_SET_WAIT(priority=0x08, entity_id=Janshura-Rashura (ID: 17760269/0x010F000D), tag_num=0x01)
  4: 0x0D60 [0x1D] PRINT_EVENT_MESSAGE(message_id=3418*)
    → "For crying-wrying out loud!\u0007I told you... First head to the Rhinostery's biological laboratory in Windurst Waters, and pick up the food offerings to be taken to the Yagudo.\u007F1\u0000\u0007"
  5: 0x0D63 [0x23] WAIT_FOR_DIALOG_INTERACTION
  6: 0x0D64 [0x1D] PRINT_EVENT_MESSAGE(message_id=3419*)
    → "The Rhinostery is more like a botanical garden than a research institute. It's by far the plainest of the five ministries.\u007F1\u0000\u0007"
  7: 0x0D67 [0x23] WAIT_FOR_DIALOG_INTERACTION
  8: 0x0D68 [0x29] REQ_SET_WAIT(priority=0x08, entity_id=Janshura-Rashura (ID: 17760269/0x010F000D), tag_num=0x02)
  9: 0x0D6F [0x20] SET_CLI_EVENT_UC_FLAG: Unlock player control
 10: 0x0D71 [0x21] END_EVENT
 11: 0x0D72 [0x00] END_REQSTACK()
```
