# Event 133

## Metadata

| Field           | Value    |
|-----------------|----------|
| Event Index     | 79/114   |
| Offset          | 0x108F   |
| Data Size       | 33 bytes |
| Calculated Size | 33 bytes |
| Instructions    | 12       |

```
      00 01 02 03 04 05 06 07  08 09 0A 0B 0C 0D 0E 0F
      -- -- -- -- -- -- -- --  -- -- -- -- -- -- -- --
1080:                                               1E                 .
1090: F0 FF FF 7F 6F 70 29 08  0D 00 0F 01 01 1D 60 80  ....op).......`.
10A0: 23 1D 61 80 23 29 08 0D  00 0F 01 02 20 00 21 00  #.a.#)...... .!.
```

## Opcodes

```
  0: 0x108F [0x1E] EventEntity looks at LocalPlayer and starts talking
  1: 0x1094 [0x6F] WAIT_FRAME_DELAY: Yield until WaitTime reaches zero
  2: 0x1095 [0x70] WAIT_ENTITY_RENDER_FLAG: Wait while EventEntity->Render.Flags3 bit 2 is set (cancel turn if not)
  3: 0x1096 [0x29] REQ_SET_WAIT(priority=0x08, entity_id=Janshura-Rashura (ID: 17760269/0x010F000D), tag_num=0x01)
  4: 0x109D [0x1D] PRINT_EVENT_MESSAGE(message_id=3452*)
    → "The Aurastery's School of Magic is on the eastern side of Windurst Waters. Take the opposite road to the one that leads to the residential area's Mog Houses, and head far up north.\u007F1\u0000\u0007"
  5: 0x10A0 [0x23] WAIT_FOR_DIALOG_INTERACTION
  6: 0x10A1 [0x1D] PRINT_EVENT_MESSAGE(message_id=3453*)
    → "Oh, and a word of friendly-wriendly advice--the teachers there will probably test your patience more than the actual mission, but don't give up!\u0001t\u007F1\u0000\u0007"
  7: 0x10A4 [0x23] WAIT_FOR_DIALOG_INTERACTION
  8: 0x10A5 [0x29] REQ_SET_WAIT(priority=0x08, entity_id=Janshura-Rashura (ID: 17760269/0x010F000D), tag_num=0x02)
  9: 0x10AC [0x20] SET_CLI_EVENT_UC_FLAG: Unlock player control
 10: 0x10AE [0x21] END_EVENT
 11: 0x10AF [0x00] END_REQSTACK()
```
