# Event 65535

## Metadata

| Field           | Value    |
|-----------------|----------|
| Event Index     | 38/114   |
| Offset          | 0x04C4   |
| Data Size       | 42 bytes |
| Calculated Size | 42 bytes |
| Instructions    | 10       |

```
      00 01 02 03 04 05 06 07  08 09 0A 0B 0C 0D 0E 0F
      -- -- -- -- -- -- -- --  -- -- -- -- -- -- -- --
04C0:             03 01 10 00  10 02 01 10 0D 80 01 ED      ............
04D0: 04 24 20 80 05 80 05 80  25 02 00 10 0E 80 00 ED  .$ .....%.......
04E0: 04 03 01 10 0D 80 20 00  21 00 01 ED 04 00        ...... .!.....  
```

## Opcodes

```
  0: 0x04C4 [0x03] Work_Zone[1] = Work_Zone[0]
  1: 0x04C9 [0x02] IF !(Work_Zone[1] == 31*) GOTO 0x04ED
  2: 0x04D1 [0x24] CREATE_DIALOG(message_id=11173*, default_option=0*, option_flags=0*)
    → "Accept this mission?\u0007\u000BYes.\u0007No.\u007F1\u0000\u0007"
  3: 0x04D8 [0x25] WAIT_DIALOG_SELECT()
  4: 0x04D9 [0x02] IF !(Work_Zone[0] == 1*) GOTO 0x04ED
  5: 0x04E1 [0x03] Work_Zone[1] = 31*
  6: 0x04E6 [0x20] SET_CLI_EVENT_UC_FLAG: Unlock player control
  7: 0x04E8 [0x21] END_EVENT
  8: 0x04E9 [0x00] END_REQSTACK()

SUBROUTINE_04ED:
  9: 0x04ED [0x00] END_REQSTACK()
```

## Data or dead code:

```
# Dead code (unreachable instructions):
     0x04EA [0x01] GOTO 0x04ED
```