# Event 65535

## Metadata

| Field           | Value    |
|-----------------|----------|
| Event Index     | 33/36    |
| Offset          | 0x03DB   |
| Data Size       | 51 bytes |
| Calculated Size | 51 bytes |
| Instructions    | 11       |

```
      00 01 02 03 04 05 06 07  08 09 0A 0B 0C 0D 0E 0F
      -- -- -- -- -- -- -- --  -- -- -- -- -- -- -- --
03D0:                                   32 05 80 1F 00             2....
03E0: 71 80 72 80 05 80 1F 01  1F 00 73 80 74 80 75 80  q.r.......s.t.u.
03F0: 1F 01 1F 00 76 80 77 80  78 80 1F 01 1E 44 10 0F  ....v.w.x....D..
0400: 01 1C 4E 80 4A 44 10 0F  01 46 10 0F 01 00        ..N.JD...F....  
```

## Opcodes

```
  0: 0x03DB [0x32] ExtData[1]->MainSpeed = 57* * 0.1
  1: 0x03DE [0x1F] MOVE_ENTITY: EventEntity moves to X=-604.257*, Z=586.573*, Y=0.057*
  2: 0x03E6 [0x1F] MOVE_ENTITY: Update entity position (mode=1)
  3: 0x03E8 [0x1F] MOVE_ENTITY: EventEntity moves to X=-603.318*, Z=588.527*, Y=0.196*
  4: 0x03F0 [0x1F] MOVE_ENTITY: Update entity position (mode=1)
  5: 0x03F2 [0x1F] MOVE_ENTITY: EventEntity moves to X=-601.495*, Z=586.040*, Y=0.496*
  6: 0x03FA [0x1F] MOVE_ENTITY: Update entity position (mode=1)
  7: 0x03FC [0x1E] EventEntity looks at Unnamed NPC (ID: 17764420/0x010F1044) and starts talking
  8: 0x0401 [0x1C] WAIT(30* ticks)
  9: 0x0404 [0x4A] Unnamed NPC (ID: 17764420/0x010F1044) looks at Unnamed NPC (ID: 17764422/0x010F1046)
 10: 0x040D [0x00] END_REQSTACK()
```
