# Event 65535

## Metadata

| Field           | Value    |
|-----------------|----------|
| Event Index     | 24/36    |
| Offset          | 0x024B   |
| Data Size       | 66 bytes |
| Calculated Size | 66 bytes |
| Instructions    | 16       |

```
      00 01 02 03 04 05 06 07  08 09 0A 0B 0C 0D 0E 0F
      -- -- -- -- -- -- -- --  -- -- -- -- -- -- -- --
0240:                                   32 3D 80 1F 00             2=...
0250: 42 80 43 80 44 80 1F 01  1C 4E 80 1F 00 45 80 46  B.C.D....N...E.F
0260: 80 47 80 1F 01 1C 4E 80  1F 00 48 80 49 80 4A 80  .G....N...H.I.J.
0270: 1F 01 1C 4E 80 1F 00 4B  80 4C 80 4D 80 1F 01 1C  ...N...K.L.M....
0280: 4E 80 1F 00 3E 80 3F 80  40 80 1F 01 00           N...>.?.@....   
```

## Opcodes

```
  0: 0x024B [0x32] ExtData[1]->MainSpeed = 19* * 0.1
  1: 0x024E [0x1F] MOVE_ENTITY: EventEntity moves to X=-601.910*, Z=587.743*, Y=0.274*
  2: 0x0256 [0x1F] MOVE_ENTITY: Update entity position (mode=1)
  3: 0x0258 [0x1C] WAIT(30* ticks)
  4: 0x025B [0x1F] MOVE_ENTITY: EventEntity moves to X=-600.199*, Z=588.994*, Y=0.347*
  5: 0x0263 [0x1F] MOVE_ENTITY: Update entity position (mode=1)
  6: 0x0265 [0x1C] WAIT(30* ticks)
  7: 0x0268 [0x1F] MOVE_ENTITY: EventEntity moves to X=-599.211*, Z=586.089*, Y=0.586*
  8: 0x0270 [0x1F] MOVE_ENTITY: Update entity position (mode=1)
  9: 0x0272 [0x1C] WAIT(30* ticks)
 10: 0x0275 [0x1F] MOVE_ENTITY: EventEntity moves to X=-599.391*, Z=583.375*, Y=0.830*
 11: 0x027D [0x1F] MOVE_ENTITY: Update entity position (mode=1)
 12: 0x027F [0x1C] WAIT(30* ticks)
 13: 0x0282 [0x1F] MOVE_ENTITY: EventEntity moves to X=-600.128*, Z=585.578*, Y=0.628*
 14: 0x028A [0x1F] MOVE_ENTITY: Update entity position (mode=1)
 15: 0x028C [0x00] END_REQSTACK()
```
