# Event 65535

## Metadata

| Field           | Value    |
|-----------------|----------|
| Event Index     | 23/36    |
| Offset          | 0x0215   |
| Data Size       | 54 bytes |
| Calculated Size | 54 bytes |
| Instructions    | 12       |

```
      00 01 02 03 04 05 06 07  08 09 0A 0B 0C 0D 0E 0F
      -- -- -- -- -- -- -- --  -- -- -- -- -- -- -- --
0210:                32 33 80  1F 00 42 80 43 80 44 80       23...B.C.D.
0220: 1F 01 1F 00 45 80 46 80  47 80 1F 01 1F 00 48 80  ....E.F.G.....H.
0230: 49 80 4A 80 1F 01 1F 00  4B 80 4C 80 4D 80 1F 01  I.J.....K.L.M...
0240: 1F 00 3E 80 3F 80 40 80  1F 01 00                 ..>.?.@....     
```

## Opcodes

```
  0: 0x0215 [0x32] ExtData[1]->MainSpeed = 10* * 0.1
  1: 0x0218 [0x1F] MOVE_ENTITY: EventEntity moves to X=-601.910*, Z=587.743*, Y=0.274*
  2: 0x0220 [0x1F] MOVE_ENTITY: Update entity position (mode=1)
  3: 0x0222 [0x1F] MOVE_ENTITY: EventEntity moves to X=-600.199*, Z=588.994*, Y=0.347*
  4: 0x022A [0x1F] MOVE_ENTITY: Update entity position (mode=1)
  5: 0x022C [0x1F] MOVE_ENTITY: EventEntity moves to X=-599.211*, Z=586.089*, Y=0.586*
  6: 0x0234 [0x1F] MOVE_ENTITY: Update entity position (mode=1)
  7: 0x0236 [0x1F] MOVE_ENTITY: EventEntity moves to X=-599.391*, Z=583.375*, Y=0.830*
  8: 0x023E [0x1F] MOVE_ENTITY: Update entity position (mode=1)
  9: 0x0240 [0x1F] MOVE_ENTITY: EventEntity moves to X=-600.128*, Z=585.578*, Y=0.628*
 10: 0x0248 [0x1F] MOVE_ENTITY: Update entity position (mode=1)
 11: 0x024A [0x00] END_REQSTACK()
```
