# Event 65535

## Metadata

| Field           | Value    |
|-----------------|----------|
| Event Index     | 28/36    |
| Offset          | 0x0317   |
| Data Size       | 50 bytes |
| Calculated Size | 50 bytes |
| Instructions    | 12       |

```
      00 01 02 03 04 05 06 07  08 09 0A 0B 0C 0D 0E 0F
      -- -- -- -- -- -- -- --  -- -- -- -- -- -- -- --
0310:                      32  3D 80 1F 00 5E 80 5F 80         2=...^._.
0320: 60 80 1F 01 1C 3C 80 1F  00 5A 80 5B 80 5C 80 1F  `....<...Z.[.\..
0330: 01 1C 3C 80 1F 00 3E 80  3F 80 40 80 1F 01 4B 46  ..<...>.?.@...KF
0340: 10 0F 01 5D 80 1C 3C 80  00                       ...]..<..       
```

## Opcodes

```
  0: 0x0317 [0x32] ExtData[1]->MainSpeed = 19* * 0.1
  1: 0x031A [0x1F] MOVE_ENTITY: EventEntity moves to X=-599.892*, Z=588.477*, Y=0.373*
  2: 0x0322 [0x1F] MOVE_ENTITY: Update entity position (mode=1)
  3: 0x0324 [0x1C] WAIT(60* ticks)
  4: 0x0327 [0x1F] MOVE_ENTITY: EventEntity moves to X=-602.144*, Z=586.825*, Y=0.376*
  5: 0x032F [0x1F] MOVE_ENTITY: Update entity position (mode=1)
  6: 0x0331 [0x1C] WAIT(60* ticks)
  7: 0x0334 [0x1F] MOVE_ENTITY: EventEntity moves to X=-600.128*, Z=585.578*, Y=0.628*
  8: 0x033C [0x1F] MOVE_ENTITY: Update entity position (mode=1)
  9: 0x033E [0x4B] UPDATE_ENTITY_YAW(entity=Unnamed NPC (ID: 17764422/0x010F1046), yaw=11.8°*)
 10: 0x0345 [0x1C] WAIT(60* ticks)
 11: 0x0348 [0x00] END_REQSTACK()
```
