# Event 65535

## Metadata

| Field           | Value    |
|-----------------|----------|
| Event Index     | 29/36    |
| Offset          | 0x0349   |
| Data Size       | 67 bytes |
| Calculated Size | 67 bytes |
| Instructions    | 15       |

```
      00 01 02 03 04 05 06 07  08 09 0A 0B 0C 0D 0E 0F
      -- -- -- -- -- -- -- --  -- -- -- -- -- -- -- --
0340:                             32 05 80 1F 00 61 80           2....a.
0350: 62 80 63 80 1F 01 4B 46  10 0F 01 64 80 1C 3C 80  b.c...KF...d..<.
0360: 1F 00 65 80 66 80 67 80  1F 01 4B 46 10 0F 01 68  ..e.f.g...KF...h
0370: 80 1C 69 80 1F 00 6A 80  6B 80 6C 80 1F 01 1C 4E  ..i...j.k.l....N
0380: 80 4B 46 10 0F 01 6D 80  1C 3C 80 00              .KF...m..<..    
```

## Opcodes

```
  0: 0x0349 [0x32] ExtData[1]->MainSpeed = 57* * 0.1
  1: 0x034C [0x1F] MOVE_ENTITY: EventEntity moves to X=-599.295*, Z=590.678*, Y=0.264*
  2: 0x0354 [0x1F] MOVE_ENTITY: Update entity position (mode=1)
  3: 0x0356 [0x4B] UPDATE_ENTITY_YAW(entity=Unnamed NPC (ID: 17764422/0x010F1046), yaw=5.3°*)
  4: 0x035D [0x1C] WAIT(60* ticks)
  5: 0x0360 [0x1F] MOVE_ENTITY: EventEntity moves to X=-604.353*, Z=586.292*, Y=0.138*
  6: 0x0368 [0x1F] MOVE_ENTITY: Update entity position (mode=1)
  7: 0x036A [0x4B] UPDATE_ENTITY_YAW(entity=Unnamed NPC (ID: 17764422/0x010F1046), yaw=0.2°*)
  8: 0x0371 [0x1C] WAIT(240* ticks)
  9: 0x0374 [0x1F] MOVE_ENTITY: EventEntity moves to X=-600.328*, Z=582.410*, Y=0.802*
 10: 0x037C [0x1F] MOVE_ENTITY: Update entity position (mode=1)
 11: 0x037E [0x1C] WAIT(30* ticks)
 12: 0x0381 [0x4B] UPDATE_ENTITY_YAW(entity=Unnamed NPC (ID: 17764422/0x010F1046), yaw=16.6°*)
 13: 0x0388 [0x1C] WAIT(60* ticks)
 14: 0x038B [0x00] END_REQSTACK()
```
