# Event 65535

## Metadata

| Field           | Value    |
|-----------------|----------|
| Event Index     | 20/36    |
| Offset          | 0x01D0   |
| Data Size       | 48 bytes |
| Calculated Size | 48 bytes |
| Instructions    | 11       |

```
      00 01 02 03 04 05 06 07  08 09 0A 0B 0C 0D 0E 0F
      -- -- -- -- -- -- -- --  -- -- -- -- -- -- -- --
01D0: 02 04 00 32 80 01 FF 01  32 3D 80 1F 00 34 80 35  ...2....2=...4.5
01E0: 80 36 80 1F 01 1F 00 37  80 38 80 00 80 1F 01 1F  .6.....7.8......
01F0: 00 39 80 3A 80 3B 80 1F  01 1C 3C 80 01 D0 01 00  .9.:.;....<.....
```

## Opcodes

```
  0: 0x01D0 [0x02] IF !(ExtData[1]->WorkLocal[4] == 2*) GOTO 0x01FF
  1: 0x01D8 [0x32] ExtData[1]->MainSpeed = 19* * 0.1
  2: 0x01DB [0x1F] MOVE_ENTITY: EventEntity moves to X=-604.741*, Z=603.338*, Y=0.035*
  3: 0x01E3 [0x1F] MOVE_ENTITY: Update entity position (mode=1)
  4: 0x01E5 [0x1F] MOVE_ENTITY: EventEntity moves to X=-601.147*, Z=602.770*, Y=0.000*
  5: 0x01ED [0x1F] MOVE_ENTITY: Update entity position (mode=1)
  6: 0x01EF [0x1F] MOVE_ENTITY: EventEntity moves to X=-598.147*, Z=604.645*, Y=0.031*
  7: 0x01F7 [0x1F] MOVE_ENTITY: Update entity position (mode=1)
  8: 0x01F9 [0x1C] WAIT(60* ticks)
  9: 0x01FC [0x01] GOTO 0x01D0
 10: 0x01FF [0x00] END_REQSTACK()
```
