# Event 65535

## Metadata

| Field           | Value    |
|-----------------|----------|
| Event Index     | 27/36    |
| Offset          | 0x02E5   |
| Data Size       | 50 bytes |
| Calculated Size | 50 bytes |
| Instructions    | 12       |

```
      00 01 02 03 04 05 06 07  08 09 0A 0B 0C 0D 0E 0F
      -- -- -- -- -- -- -- --  -- -- -- -- -- -- -- --
02E0:                32 33 80  1F 00 57 80 58 80 59 80       23...W.X.Y.
02F0: 1F 01 1C 3C 80 1F 00 5A  80 5B 80 5C 80 1F 01 1C  ...<...Z.[.\....
0300: 3C 80 1F 00 3E 80 3F 80  40 80 1F 01 4B 46 10 0F  <...>.?.@...KF..
0310: 01 5D 80 1C 3C 80 00                              .]..<..         
```

## Opcodes

```
  0: 0x02E5 [0x32] ExtData[1]->MainSpeed = 10* * 0.1
  1: 0x02E8 [0x1F] MOVE_ENTITY: EventEntity moves to X=-600.221*, Z=588.558*, Y=0.369*
  2: 0x02F0 [0x1F] MOVE_ENTITY: Update entity position (mode=1)
  3: 0x02F2 [0x1C] WAIT(60* ticks)
  4: 0x02F5 [0x1F] MOVE_ENTITY: EventEntity moves to X=-602.144*, Z=586.825*, Y=0.376*
  5: 0x02FD [0x1F] MOVE_ENTITY: Update entity position (mode=1)
  6: 0x02FF [0x1C] WAIT(60* ticks)
  7: 0x0302 [0x1F] MOVE_ENTITY: EventEntity moves to X=-600.128*, Z=585.578*, Y=0.628*
  8: 0x030A [0x1F] MOVE_ENTITY: Update entity position (mode=1)
  9: 0x030C [0x4B] UPDATE_ENTITY_YAW(entity=Unnamed NPC (ID: 17764422/0x010F1046), yaw=11.79°*)
 10: 0x0313 [0x1C] WAIT(60* ticks)
 11: 0x0316 [0x00] END_REQSTACK()
```
