# Event 356

## Metadata

| Field           | Value    |
|-----------------|----------|
| Event Index     | 12/13    |
| Offset          | 0x05CC   |
| Data Size       | 52 bytes |
| Calculated Size | 52 bytes |
| Instructions    | 12       |

```
      00 01 02 03 04 05 06 07  08 09 0A 0B 0C 0D 0E 0F
      -- -- -- -- -- -- -- --  -- -- -- -- -- -- -- --
05C0:                                      42 48 60 80              BH`.
05D0: 1E F0 FF FF 7F 1C 33 80  1D 61 80 23 5B 01 80 40  ......3..a.#[..@
05E0: C0 0E 01 40 C0 0E 01 74  68 6B 31 1D 62 80 23 5B  ...@...thk1.b.#[
05F0: 01 80 40 C0 0E 01 40 C0  0E 01 74 68 6B 32 21 00  ..@...@...thk2!.
```

## Opcodes

```
  0: 0x05CC [0x42] SET_CLI_EVENT_CANCEL_DATA()
  1: 0x05CD [0x48] [System] [9990*]:
    → "\u001F\u000F\u0008's badge flashes brightly.\u007F1\u0000\u0007"
  2: 0x05D0 [0x1E] EventEntity looks at LocalPlayer and starts talking
  3: 0x05D5 [0x1C] WAIT(30* ticks)
  4: 0x05D8 [0x1D] PRINT_EVENT_MESSAGE(message_id=9999*)
    → "I'm pretty sure someone mentioned something about a nation called the \u00072Empire of Aht Urhgan\u00073 to me before...\u007F1\u0000\u0007"
  5: 0x05DB [0x23] WAIT_FOR_DIALOG_INTERACTION
  6: 0x05DC [0x5B] LOAD_EXT_SCHEDULER: Load scheduler "thk1" with entities [Hilda (ID: 17743936/0x010EC040), Hilda (ID: 17743936/0x010EC040)], work=0*
  7: 0x05EB [0x1D] PRINT_EVENT_MESSAGE(message_id=10000*)
    → "Now who was that, again...?\u007F1\u0000\u0007"
  8: 0x05EE [0x23] WAIT_FOR_DIALOG_INTERACTION
  9: 0x05EF [0x5B] LOAD_EXT_SCHEDULER: Load scheduler "thk2" with entities [Hilda (ID: 17743936/0x010EC040), Hilda (ID: 17743936/0x010EC040)], work=0*
 10: 0x05FE [0x21] END_EVENT
 11: 0x05FF [0x00] END_REQSTACK()
```
