# Event 4

## Metadata

| Field           | Value    |
|-----------------|----------|
| Event Index     | 7/26     |
| Offset          | 0x010B   |
| Data Size       | 25 bytes |
| Calculated Size | 25 bytes |
| Instructions    | 10       |

```
      00 01 02 03 04 05 06 07  08 09 0A 0B 0C 0D 0E 0F
      -- -- -- -- -- -- -- --  -- -- -- -- -- -- -- --
0100:                                   20 01 1E F0 FF              ....
0110: FF 7F 6F 70 03 03 10 13  80 03 04 10 14 80 1D 15  ..op............
0120: 80 23 21 00                                       .#!.            
```

## Opcodes

```
  0: 0x010B [0x20] SET_CLI_EVENT_UC_FLAG: Lock player control
  1: 0x010D [0x1E] EventEntity looks at LocalPlayer and starts talking
  2: 0x0112 [0x6F] WAIT_FRAME_DELAY: Yield until WaitTime reaches zero
  3: 0x0113 [0x70] WAIT_ENTITY_RENDER_FLAG: Wait while EventEntity->Render.Flags3 bit 2 is set (cancel turn if not)
  4: 0x0114 [0x03] Work_Zone[3] = 344*
  5: 0x0119 [0x03] Work_Zone[4] = 345*
  6: 0x011E [0x1D] PRINT_EVENT_MESSAGE(message_id=7411*)
    → "Journey to the Den of Rancor with this \u0001\u00053\u0002\u0001\u0000\u0000 and obtain the \u0001\u00053\u0002\u0002\u0000\u0000. When you have bound the evil in the scythe, your exertions will be at an end.\u007F1\u0000\u0007"
  7: 0x0121 [0x23] WAIT_FOR_DIALOG_INTERACTION
  8: 0x0122 [0x21] END_EVENT
  9: 0x0123 [0x00] END_REQSTACK()
```
