# Event 65535

## Metadata

| Field           | Value     |
|-----------------|-----------|
| Event Index     | 23/26     |
| Offset          | 0x0783    |
| Data Size       | 161 bytes |
| Calculated Size | 161 bytes |
| Instructions    | 4         |

```
      00 01 02 03 04 05 06 07  08 09 0A 0B 0C 0D 0E 0F
      -- -- -- -- -- -- -- --  -- -- -- -- -- -- -- --
0780:          66 0B 80 F8 FF  FF 7F F8 FF FF 7F 73 68     f..........sh
0790: 61 31 53 F8 FF FF 7F F8  FF FF 7F 73 68 61 31 00  a1S........sha1.
07A0: 45 2E 80 F0 FF FF 7F F0  FF FF 7F 66 64 69 30 06  E..........fdi0.
07B0: 80 55 2E 80 F0 FF FF 7F  F0 FF FF 7F 66 64 69 30  .U..........fdi0
07C0: 1B 45 2E 80 F0 FF FF 7F  F0 FF FF 7F 66 64 6F 30  .E..........fdo0
07D0: 06 80 55 2E 80 F0 FF FF  7F F0 FF FF 7F 66 64 6F  ..U..........fdo
07E0: 30 1B 45 2E 80 F0 FF FF  7F F0 FF FF 7F 66 64 69  0.E..........fdi
07F0: 31 06 80 55 2E 80 F0 FF  FF 7F F0 FF FF 7F 66 64  1..U..........fd
0800: 69 31 1B 45 2E 80 F0 FF  FF 7F F0 FF FF 7F 66 64  i1.E..........fd
0810: 6F 31 06 80 55 2E 80 F0  FF FF 7F F0 FF FF 7F 66  o1..U..........f
0820: 64 6F 31 1B                                       do1.            
```

## Opcodes

```
  0: 0x0783 [0x66] LOAD_EXT_SCHEDULER_MAIN: Load scheduler "sha1" with entities [EventEntity, EventEntity], work=29*
  1: 0x0792 [0x53] WAIT_SCHEDULER_TASK: Wait for scheduler "sha1" with entities [EventEntity, EventEntity]
  2: 0x079F [0x00] END_REQSTACK()
```

## Data or dead code:

```
# Data Section: 0x07A0 (132 bytes)
     0x07A0: 45 2E 80 F0 FF FF 7F F0 FF FF 7F 66 64 69 30 06
     0x07B0: 80 55 2E 80 F0 FF FF 7F F0 FF FF 7F 66 64 69 30
     0x07C0: 1B 45 2E 80 F0 FF FF 7F F0 FF FF 7F 66 64 6F 30
     0x07D0: 06 80 55 2E 80 F0 FF FF 7F F0 FF FF 7F 66 64 6F
     0x07E0: 30 1B 45 2E 80 F0 FF FF 7F F0 FF FF 7F 66 64 69
     0x07F0: 31 06 80 55 2E 80 F0 FF FF 7F F0 FF FF 7F 66 64
     0x0800: 69 31 1B 45 2E 80 F0 FF FF 7F F0 FF FF 7F 66 64
     0x0810: 6F 31 06 80 55 2E 80 F0 FF FF 7F F0 FF FF 7F 66
     0x0820: 64 6F 31 1B
```