# 17183569 - Romaa Mihgo

## Common Data

| Field            | Value                       |
|------------------|-----------------------------|
| Zone             | Castle Oztroja [S] (ID: 99) |
| Block Size       | 992 bytes                   |
| Total Events     | 28                          |
| References Count | 70                          |

## List of Events

| Event ID                   | Entrypoint   |   Size |   Instructions |
|----------------------------|--------------|--------|----------------|
| [65535](#event-65535)      | 0x0000       |      1 |              1 |
| [100](#event-100)          | 0x0001       |      1 |              1 |
| [65535.1](#event-655351)   | 0x0002       |     29 |              7 |
| [104](#event-104)          | 0x001F       |      1 |              1 |
| [105](#event-105)          | 0x0020       |      1 |              1 |
| [106](#event-106)          | 0x0021       |      1 |              1 |
| [107](#event-107)          | 0x0022       |      1 |              1 |
| [65535.2](#event-655352)   | 0x0023       |     30 |              6 |
| [65535.3](#event-655353)   | 0x0041       |     16 |              4 |
| [65535.4](#event-655354)   | 0x0051       |     30 |              7 |
| [65535.5](#event-655355)   | 0x006F       |     20 |              5 |
| [65535.6](#event-655356)   | 0x0083       |     53 |             10 |
| [65535.7](#event-655357)   | 0x00B8       |     47 |              8 |
| [65535.8](#event-655358)   | 0x00E7       |     20 |              5 |
| [65535.9](#event-655359)   | 0x00FB       |     47 |              6 |
| [65535.10](#event-6553510) | 0x012A       |     20 |              5 |
| [65535.11](#event-6553511) | 0x013E       |     20 |              5 |
| [65535.12](#event-6553512) | 0x0152       |     20 |              5 |
| [65535.13](#event-6553513) | 0x0166       |     50 |              9 |
| [65535.14](#event-6553514) | 0x0198       |     35 |              6 |
| [65535.15](#event-6553515) | 0x01BB       |     71 |             16 |
| [65535.16](#event-6553516) | 0x0202       |      1 |              1 |
| [65535.17](#event-6553517) | 0x0203       |     18 |              4 |
| [65535.18](#event-6553518) | 0x0215       |     10 |              2 |
| [65535.19](#event-6553519) | 0x021F       |      9 |              3 |
| [65535.20](#event-6553520) | 0x0228       |      9 |              3 |
| [65535.21](#event-6553521) | 0x0231       |     10 |              2 |
| [65535.22](#event-6553522) | 0x023B       |     10 |              2 |

## DAT References (imed_data)

|   Index | Hex Value   |   Dec Value |
|---------|-------------|-------------|
|       0 | 0xFFFDF6F9  |  4294833913 |
|       1 | 0xFFFFDF38  |  4294958904 |
|       2 | 0x004C      |          76 |
|       3 | 0x01A1      |         417 |
|       4 | 0x0028      |          40 |
|       5 | 0xFFFDFC25  |  4294835237 |
|       6 | 0xFFFFBF4A  |  4294950730 |
|       7 | 0x0055      |          85 |
|       8 | 0xFFFC9C2A  |  4294745130 |
|       9 | 0xFFFFACFD  |  4294946045 |
|      10 | 0x0123      |         291 |
|      11 | 0x0005      |           5 |
|      12 | 0x0007      |           7 |
|      13 | 0x000E      |          14 |
|      14 | 0xFFFCA58F  |  4294747535 |
|      15 | 0xFFFFAC4C  |  4294945868 |
|      16 | 0x010E      |         270 |
|      17 | 0xFFFCA64A  |  4294747722 |
|      18 | 0xFFFFAC83  |  4294945923 |
|      19 | 0x0110      |         272 |
|      20 | 0x002A      |          42 |
|      21 | 0xFFFCDCB6  |  4294761654 |
|      22 | 0xFFFFAFD4  |  4294946772 |
|      23 | 0xFFFFFF93  |  4294967187 |
|      24 | 0xFFFD0728  |  4294772520 |
|      25 | 0xFFFFC4A3  |  4294952099 |
|      26 | 0x0113      |         275 |
|      27 | 0x0CAF      |        3247 |
|      28 | 0x003B      |          59 |
|      29 | 0x000D      |          13 |
|      30 | 0x0078      |         120 |
|      31 | 0xB313      |       45843 |
|      32 | 0xFFFE9156  |  4294873430 |
|      33 | 0xFFFFC181  |  4294951297 |
|      34 | 0xA8F0      |       43248 |
|      35 | 0xFFFE89E3  |  4294871523 |
|      36 | 0xFFFFC180  |  4294951296 |
|      37 | 0x0046      |          70 |
|      38 | 0x0064      |         100 |
|      39 | 0xAD48      |       44360 |
|      40 | 0xFFFE9761  |  4294874977 |
|      41 | 0xFFFFC187  |  4294951303 |
|      42 | 0xAE23      |       44579 |
|      43 | 0xFFFE91B2  |  4294873522 |
|      44 | 0xFFFFC184  |  4294951300 |
|      45 | 0xACE3      |       44259 |
|      46 | 0xFFFE91E1  |  4294873569 |
|      47 | 0xAC2F      |       44079 |
|      48 | 0xFFFE8DA3  |  4294872483 |
|      49 | 0xFFFFC183  |  4294951299 |
|      50 | 0x007F      |         127 |
|      51 | 0x052F      |        1327 |
|      52 | 0xC5D4      |       50644 |
|      53 | 0xFFFE95A2  |  4294874530 |
|      54 | 0xDE06      |       56838 |
|      55 | 0xFFFE8F05  |  4294872837 |
|      56 | 0x1088A     |       67722 |
|      57 | 0xFFFE907F  |  4294873215 |
|      58 | 0x164C8     |       91336 |
|      59 | 0xFFFE9791  |  4294875025 |
|      60 | 0xFFFFC091  |  4294951057 |
|      61 | 0x1740E     |       95246 |
|      62 | 0xFFFE8B41  |  4294871873 |
|      63 | 0xFFFFC0DA  |  4294951130 |
|      64 | 0x19AB9     |      105145 |
|      65 | 0xFFFE904E  |  4294873166 |
|      66 | 0xFFFFC04B  |  4294950987 |
|      67 | 0x0000      |           0 |
|      68 | 0x0001      |           1 |
|      69 | 0x0080      |         128 |

## Events

### Event 65535

#### Metadata

| Field        | Value   |
|--------------|---------|
| Entrypoint   | 0x0000  |
| Data Size    | 1 bytes |
| Instructions | 1       |

```
      00 01 02 03 04 05 06 07  08 09 0A 0B 0C 0D 0E 0F
      -- -- -- -- -- -- -- --  -- -- -- -- -- -- -- --
0000: 00                                                .               
```

#### Opcodes

```
  0: 0x0000 [0x00] END_REQSTACK()
```

### Event 100

#### Metadata

| Field        | Value   |
|--------------|---------|
| Entrypoint   | 0x0001  |
| Data Size    | 1 bytes |
| Instructions | 1       |

```
      00 01 02 03 04 05 06 07  08 09 0A 0B 0C 0D 0E 0F
      -- -- -- -- -- -- -- --  -- -- -- -- -- -- -- --
0000:    00                                              .              
```

#### Opcodes

```
  0: 0x0001 [0x00] END_REQSTACK()
```

### Event 65535.1

#### Metadata

| Field        | Value    |
|--------------|----------|
| Entrypoint   | 0x0002   |
| Data Size    | 29 bytes |
| Instructions | 7        |

```
      00 01 02 03 04 05 06 07  08 09 0A 0B 0C 0D 0E 0F
      -- -- -- -- -- -- -- --  -- -- -- -- -- -- -- --
0000:       37 00 80 01 80 02  80 03 80 32 04 80 1F 00    7........2....
0010: 05 80 06 80 07 80 1F 01  6F 1E 50 33 06 01 00     ........o.P3... 
```

#### Opcodes

```
  0: 0x0002 [0x37] UPDATE_EVENT_POSITION_AND_DIR: x=-133.383*, z=-8.392*, y=0.076*, direction=36.6°*
  1: 0x000B [0x32] ExtData[1]->MainSpeed = 40* * 0.1
  2: 0x000E [0x1F] MOVE_ENTITY: EventEntity moves to X=-132.059*, Z=-16.566*, Y=0.085*
  3: 0x0016 [0x1F] MOVE_ENTITY: Update entity position (mode=1)
  4: 0x0018 [0x6F] WAIT_FRAME_DELAY: Yield until WaitTime reaches zero
  5: 0x0019 [0x1E] EventEntity looks at Nhiko Rhaabel (ID: 17183568/0x01063350) and starts talking
  6: 0x001E [0x00] END_REQSTACK()
```

### Event 104

#### Metadata

| Field        | Value   |
|--------------|---------|
| Entrypoint   | 0x001F  |
| Data Size    | 1 bytes |
| Instructions | 1       |

```
      00 01 02 03 04 05 06 07  08 09 0A 0B 0C 0D 0E 0F
      -- -- -- -- -- -- -- --  -- -- -- -- -- -- -- --
0010:                                               00                 .
```

#### Opcodes

```
  0: 0x001F [0x00] END_REQSTACK()
```

### Event 105

#### Metadata

| Field        | Value   |
|--------------|---------|
| Entrypoint   | 0x0020  |
| Data Size    | 1 bytes |
| Instructions | 1       |

```
      00 01 02 03 04 05 06 07  08 09 0A 0B 0C 0D 0E 0F
      -- -- -- -- -- -- -- --  -- -- -- -- -- -- -- --
0020: 00                                                .               
```

#### Opcodes

```
  0: 0x0020 [0x00] END_REQSTACK()
```

### Event 106

#### Metadata

| Field        | Value   |
|--------------|---------|
| Entrypoint   | 0x0021  |
| Data Size    | 1 bytes |
| Instructions | 1       |

```
      00 01 02 03 04 05 06 07  08 09 0A 0B 0C 0D 0E 0F
      -- -- -- -- -- -- -- --  -- -- -- -- -- -- -- --
0020:    00                                              .              
```

#### Opcodes

```
  0: 0x0021 [0x00] END_REQSTACK()
```

### Event 107

#### Metadata

| Field        | Value   |
|--------------|---------|
| Entrypoint   | 0x0022  |
| Data Size    | 1 bytes |
| Instructions | 1       |

```
      00 01 02 03 04 05 06 07  08 09 0A 0B 0C 0D 0E 0F
      -- -- -- -- -- -- -- --  -- -- -- -- -- -- -- --
0020:       00                                            .             
```

#### Opcodes

```
  0: 0x0022 [0x00] END_REQSTACK()
```

### Event 65535.2

#### Metadata

| Field        | Value    |
|--------------|----------|
| Entrypoint   | 0x0023   |
| Data Size    | 30 bytes |
| Instructions | 6        |

```
      00 01 02 03 04 05 06 07  08 09 0A 0B 0C 0D 0E 0F
      -- -- -- -- -- -- -- --  -- -- -- -- -- -- -- --
0020:          59 04 F8 FF FF  7F 04 80 1F 00 08 80 09     Y............
0030: 80 0A 80 1F 01 6F 79 00  F8 FF FF 7F 70 33 06 01  .....oy.....p3..
0040: 00                                                .               
```

#### Opcodes

```
  0: 0x0023 [0x59] UPDATE_ENTITY_DATA: Set EventEntity main speed = 40* * 0.1
  1: 0x002B [0x1F] MOVE_ENTITY: EventEntity moves to X=-222.166*, Z=-21.251*, Y=0.291*
  2: 0x0033 [0x1F] MOVE_ENTITY: Update entity position (mode=1)
  3: 0x0035 [0x6F] WAIT_FRAME_DELAY: Yield until WaitTime reaches zero
  4: 0x0036 [0x79] EventEntity looks at Lehko Habhoka (ID: 17183600/0x01063370) (Basic look)
  5: 0x0040 [0x00] END_REQSTACK()
```

### Event 65535.3

#### Metadata

| Field        | Value    |
|--------------|----------|
| Entrypoint   | 0x0041   |
| Data Size    | 16 bytes |
| Instructions | 4        |

```
      00 01 02 03 04 05 06 07  08 09 0A 0B 0C 0D 0E 0F
      -- -- -- -- -- -- -- --  -- -- -- -- -- -- -- --
0040:    1C 0B 80 6E F8 FF FF  7F 0C 80 99 F8 FF FF 7F   ...n...........
0050: 00                                                .               
```

#### Opcodes

```
  0: 0x0041 [0x1C] WAIT(5* ticks)
  1: 0x0044 [0x6E] EventEntity uses emote 7*
  2: 0x004B [0x99] Wait for EventEntity animation to complete
  3: 0x0050 [0x00] END_REQSTACK()
```

### Event 65535.4

#### Metadata

| Field        | Value    |
|--------------|----------|
| Entrypoint   | 0x0051   |
| Data Size    | 30 bytes |
| Instructions | 7        |

```
      00 01 02 03 04 05 06 07  08 09 0A 0B 0C 0D 0E 0F
      -- -- -- -- -- -- -- --  -- -- -- -- -- -- -- --
0050:    59 04 F8 FF FF 7F 0D  80 1F 00 0E 80 0F 80 10   Y..............
0060: 80 1F 01 1F 00 11 80 12  80 13 80 1F 01 6F 00     .............o. 
```

#### Opcodes

```
  0: 0x0051 [0x59] UPDATE_ENTITY_DATA: Set EventEntity main speed = 14* * 0.1
  1: 0x0059 [0x1F] MOVE_ENTITY: EventEntity moves to X=-219.761*, Z=-21.428*, Y=0.270*
  2: 0x0061 [0x1F] MOVE_ENTITY: Update entity position (mode=1)
  3: 0x0063 [0x1F] MOVE_ENTITY: EventEntity moves to X=-219.574*, Z=-21.373*, Y=0.272*
  4: 0x006B [0x1F] MOVE_ENTITY: Update entity position (mode=1)
  5: 0x006D [0x6F] WAIT_FRAME_DELAY: Yield until WaitTime reaches zero
  6: 0x006E [0x00] END_REQSTACK()
```

### Event 65535.5

#### Metadata

| Field        | Value    |
|--------------|----------|
| Entrypoint   | 0x006F   |
| Data Size    | 20 bytes |
| Instructions | 5        |

```
      00 01 02 03 04 05 06 07  08 09 0A 0B 0C 0D 0E 0F
      -- -- -- -- -- -- -- --  -- -- -- -- -- -- -- --
0060:                                               59                 Y
0070: 04 F8 FF FF 7F 14 80 1F  00 15 80 16 80 17 80 1F  ................
0080: 01 6F 00                                          .o.             
```

#### Opcodes

```
  0: 0x006F [0x59] UPDATE_ENTITY_DATA: Set EventEntity main speed = 42* * 0.1
  1: 0x0077 [0x1F] MOVE_ENTITY: EventEntity moves to X=-205.642*, Z=-20.524*, Y=-0.109*
  2: 0x007F [0x1F] MOVE_ENTITY: Update entity position (mode=1)
  3: 0x0081 [0x6F] WAIT_FRAME_DELAY: Yield until WaitTime reaches zero
  4: 0x0082 [0x00] END_REQSTACK()
```

### Event 65535.6

#### Metadata

| Field        | Value    |
|--------------|----------|
| Entrypoint   | 0x0083   |
| Data Size    | 53 bytes |
| Instructions | 10       |

```
      00 01 02 03 04 05 06 07  08 09 0A 0B 0C 0D 0E 0F
      -- -- -- -- -- -- -- --  -- -- -- -- -- -- -- --
0080:          59 04 F8 FF FF  7F 14 80 1F 00 18 80 19     Y............
0090: 80 1A 80 1F 01 6F 4B F8  FF FF 7F 1B 80 7B F8 FF  .....oK......{..
00A0: FF 7F 6F 76 F8 FF FF 7F  66 1C 80 F8 FF FF 7F F8  ..ov....f.......
00B0: FF FF 7F 73 68 61 30 00                           ...sha0.        
```

#### Opcodes

```
  0: 0x0083 [0x59] UPDATE_ENTITY_DATA: Set EventEntity main speed = 42* * 0.1
  1: 0x008B [0x1F] MOVE_ENTITY: EventEntity moves to X=-194.776*, Z=-15.197*, Y=0.275*
  2: 0x0093 [0x1F] MOVE_ENTITY: Update entity position (mode=1)
  3: 0x0095 [0x6F] WAIT_FRAME_DELAY: Yield until WaitTime reaches zero
  4: 0x0096 [0x4B] UPDATE_ENTITY_YAW(entity=EventEntity, yaw=17.8°*)
  5: 0x009D [0x7B] EventEntity stops talking
  6: 0x00A2 [0x6F] WAIT_FRAME_DELAY: Yield until WaitTime reaches zero
  7: 0x00A3 [0x76] CHECK_ENTITY_RENDER_FLAGS: Wait until EventEntity Render.Flags0 and Render.Flags3 conditions are met
  8: 0x00A8 [0x66] LOAD_EXT_SCHEDULER_MAIN: Load scheduler "sha0" with entities [EventEntity, EventEntity], work=59*
  9: 0x00B7 [0x00] END_REQSTACK()
```

### Event 65535.7

#### Metadata

| Field        | Value    |
|--------------|----------|
| Entrypoint   | 0x00B8   |
| Data Size    | 47 bytes |
| Instructions | 8        |

```
      00 01 02 03 04 05 06 07  08 09 0A 0B 0C 0D 0E 0F
      -- -- -- -- -- -- -- --  -- -- -- -- -- -- -- --
00B0:                          59 04 F8 FF FF 7F 1D 80          Y.......
00C0: 66 1C 80 51 33 06 01 51  33 06 01 73 68 61 31 1C  f..Q3..Q3..sha1.
00D0: 1E 80 1F 00 1F 80 20 80  21 80 1F 01 6F 4A F8 FF  ...... .!...oJ..
00E0: FF 7F 9A 33 06 01 00                              ...3...         
```

#### Opcodes

```
  0: 0x00B8 [0x59] UPDATE_ENTITY_DATA: Set EventEntity main speed = 13* * 0.1
  1: 0x00C0 [0x66] LOAD_EXT_SCHEDULER_MAIN: Load scheduler "sha1" with entities [Romaa Mihgo (ID: 17183569/0x01063351), Romaa Mihgo (ID: 17183569/0x01063351)], work=59*
  2: 0x00CF [0x1C] WAIT(120* ticks)
  3: 0x00D2 [0x1F] MOVE_ENTITY: EventEntity moves to X=45.843*, Z=-93.866*, Y=-15.999*
  4: 0x00DA [0x1F] MOVE_ENTITY: Update entity position (mode=1)
  5: 0x00DC [0x6F] WAIT_FRAME_DELAY: Yield until WaitTime reaches zero
  6: 0x00DD [0x4A] EventEntity looks at Ruah Chodran (ID: 17183642/0x0106339A)
  7: 0x00E6 [0x00] END_REQSTACK()
```

### Event 65535.8

#### Metadata

| Field        | Value    |
|--------------|----------|
| Entrypoint   | 0x00E7   |
| Data Size    | 20 bytes |
| Instructions | 5        |

```
      00 01 02 03 04 05 06 07  08 09 0A 0B 0C 0D 0E 0F
      -- -- -- -- -- -- -- --  -- -- -- -- -- -- -- --
00E0:                      59  04 F8 FF FF 7F 1D 80 1F         Y........
00F0: 00 22 80 23 80 24 80 1F  01 6F 00                 .".#.$...o.     
```

#### Opcodes

```
  0: 0x00E7 [0x59] UPDATE_ENTITY_DATA: Set EventEntity main speed = 13* * 0.1
  1: 0x00EF [0x1F] MOVE_ENTITY: EventEntity moves to X=43.248*, Z=-95.773*, Y=-16.000*
  2: 0x00F7 [0x1F] MOVE_ENTITY: Update entity position (mode=1)
  3: 0x00F9 [0x6F] WAIT_FRAME_DELAY: Yield until WaitTime reaches zero
  4: 0x00FA [0x00] END_REQSTACK()
```

### Event 65535.9

#### Metadata

| Field        | Value    |
|--------------|----------|
| Entrypoint   | 0x00FB   |
| Data Size    | 47 bytes |
| Instructions | 6        |

```
      00 01 02 03 04 05 06 07  08 09 0A 0B 0C 0D 0E 0F
      -- -- -- -- -- -- -- --  -- -- -- -- -- -- -- --
00F0:                                   66 1C 80 51 33             f..Q3
0100: 06 01 51 33 06 01 73 69  72 31 1C 25 80 66 1C 80  ..Q3..sir1.%.f..
0110: 51 33 06 01 51 33 06 01  73 68 61 31 1C 26 80 79  Q3..Q3..sha1.&.y
0120: 00 F8 FF FF 7F 9B 33 06  01 00                    ......3...      
```

#### Opcodes

```
  0: 0x00FB [0x66] LOAD_EXT_SCHEDULER_MAIN: Load scheduler "sir1" with entities [Romaa Mihgo (ID: 17183569/0x01063351), Romaa Mihgo (ID: 17183569/0x01063351)], work=59*
  1: 0x010A [0x1C] WAIT(70* ticks)
  2: 0x010D [0x66] LOAD_EXT_SCHEDULER_MAIN: Load scheduler "sha1" with entities [Romaa Mihgo (ID: 17183569/0x01063351), Romaa Mihgo (ID: 17183569/0x01063351)], work=59*
  3: 0x011C [0x1C] WAIT(100* ticks)
  4: 0x011F [0x79] EventEntity looks at Sooph Mreeblih (ID: 17183643/0x0106339B) (Basic look)
  5: 0x0129 [0x00] END_REQSTACK()
```

### Event 65535.10

#### Metadata

| Field        | Value    |
|--------------|----------|
| Entrypoint   | 0x012A   |
| Data Size    | 20 bytes |
| Instructions | 5        |

```
      00 01 02 03 04 05 06 07  08 09 0A 0B 0C 0D 0E 0F
      -- -- -- -- -- -- -- --  -- -- -- -- -- -- -- --
0120:                                59 04 F8 FF FF 7F            Y.....
0130: 1D 80 1F 00 27 80 28 80  29 80 1F 01 6F 00        ....'.(.)...o.  
```

#### Opcodes

```
  0: 0x012A [0x59] UPDATE_ENTITY_DATA: Set EventEntity main speed = 13* * 0.1
  1: 0x0132 [0x1F] MOVE_ENTITY: EventEntity moves to X=44.360*, Z=-92.319*, Y=-15.993*
  2: 0x013A [0x1F] MOVE_ENTITY: Update entity position (mode=1)
  3: 0x013C [0x6F] WAIT_FRAME_DELAY: Yield until WaitTime reaches zero
  4: 0x013D [0x00] END_REQSTACK()
```

### Event 65535.11

#### Metadata

| Field        | Value    |
|--------------|----------|
| Entrypoint   | 0x013E   |
| Data Size    | 20 bytes |
| Instructions | 5        |

```
      00 01 02 03 04 05 06 07  08 09 0A 0B 0C 0D 0E 0F
      -- -- -- -- -- -- -- --  -- -- -- -- -- -- -- --
0130:                                            59 04                Y.
0140: F8 FF FF 7F 1D 80 1F 00  2A 80 2B 80 2C 80 1F 01  ........*.+.,...
0150: 6F 00                                             o.              
```

#### Opcodes

```
  0: 0x013E [0x59] UPDATE_ENTITY_DATA: Set EventEntity main speed = 13* * 0.1
  1: 0x0146 [0x1F] MOVE_ENTITY: EventEntity moves to X=44.579*, Z=-93.774*, Y=-15.996*
  2: 0x014E [0x1F] MOVE_ENTITY: Update entity position (mode=1)
  3: 0x0150 [0x6F] WAIT_FRAME_DELAY: Yield until WaitTime reaches zero
  4: 0x0151 [0x00] END_REQSTACK()
```

### Event 65535.12

#### Metadata

| Field        | Value    |
|--------------|----------|
| Entrypoint   | 0x0152   |
| Data Size    | 20 bytes |
| Instructions | 5        |

```
      00 01 02 03 04 05 06 07  08 09 0A 0B 0C 0D 0E 0F
      -- -- -- -- -- -- -- --  -- -- -- -- -- -- -- --
0150:       59 04 F8 FF FF 7F  1D 80 1F 00 2D 80 2E 80    Y.........-...
0160: 2C 80 1F 01 6F 00                                 ,...o.          
```

#### Opcodes

```
  0: 0x0152 [0x59] UPDATE_ENTITY_DATA: Set EventEntity main speed = 13* * 0.1
  1: 0x015A [0x1F] MOVE_ENTITY: EventEntity moves to X=44.259*, Z=-93.727*, Y=-15.996*
  2: 0x0162 [0x1F] MOVE_ENTITY: Update entity position (mode=1)
  3: 0x0164 [0x6F] WAIT_FRAME_DELAY: Yield until WaitTime reaches zero
  4: 0x0165 [0x00] END_REQSTACK()
```

### Event 65535.13

#### Metadata

| Field        | Value    |
|--------------|----------|
| Entrypoint   | 0x0166   |
| Data Size    | 50 bytes |
| Instructions | 9        |

```
      00 01 02 03 04 05 06 07  08 09 0A 0B 0C 0D 0E 0F
      -- -- -- -- -- -- -- --  -- -- -- -- -- -- -- --
0160:                   59 04  F8 FF FF 7F 1D 80 1F 00        Y.........
0170: 2F 80 30 80 31 80 1F 01  6F 4A F8 FF FF 7F F0 FF  /.0.1...oJ......
0180: FF 7F 6F 76 F8 FF FF 7F  66 32 80 51 33 06 01 51  ..ov....f2.Q3..Q
0190: 33 06 01 70 61 73 30 00                           3..pas0.        
```

#### Opcodes

```
  0: 0x0166 [0x59] UPDATE_ENTITY_DATA: Set EventEntity main speed = 13* * 0.1
  1: 0x016E [0x1F] MOVE_ENTITY: EventEntity moves to X=44.079*, Z=-94.813*, Y=-15.997*
  2: 0x0176 [0x1F] MOVE_ENTITY: Update entity position (mode=1)
  3: 0x0178 [0x6F] WAIT_FRAME_DELAY: Yield until WaitTime reaches zero
  4: 0x0179 [0x4A] EventEntity looks at LocalPlayer
  5: 0x0182 [0x6F] WAIT_FRAME_DELAY: Yield until WaitTime reaches zero
  6: 0x0183 [0x76] CHECK_ENTITY_RENDER_FLAGS: Wait until EventEntity Render.Flags0 and Render.Flags3 conditions are met
  7: 0x0188 [0x66] LOAD_EXT_SCHEDULER_MAIN: Load scheduler "pas0" with entities [Romaa Mihgo (ID: 17183569/0x01063351), Romaa Mihgo (ID: 17183569/0x01063351)], work=127*
  8: 0x0197 [0x00] END_REQSTACK()
```

### Event 65535.14

#### Metadata

| Field        | Value    |
|--------------|----------|
| Entrypoint   | 0x0198   |
| Data Size    | 35 bytes |
| Instructions | 6        |

```
      00 01 02 03 04 05 06 07  08 09 0A 0B 0C 0D 0E 0F
      -- -- -- -- -- -- -- --  -- -- -- -- -- -- -- --
0190:                          59 04 F8 FF FF 7F 1D 80          Y.......
01A0: 1F 00 2A 80 2B 80 2C 80  1F 01 6F 5B 33 80 51 33  ..*.+.,...o[3.Q3
01B0: 06 01 51 33 06 01 73 74  61 30 00                 ..Q3..sta0.     
```

#### Opcodes

```
  0: 0x0198 [0x59] UPDATE_ENTITY_DATA: Set EventEntity main speed = 13* * 0.1
  1: 0x01A0 [0x1F] MOVE_ENTITY: EventEntity moves to X=44.579*, Z=-93.774*, Y=-15.996*
  2: 0x01A8 [0x1F] MOVE_ENTITY: Update entity position (mode=1)
  3: 0x01AA [0x6F] WAIT_FRAME_DELAY: Yield until WaitTime reaches zero
  4: 0x01AB [0x5B] LOAD_EXT_SCHEDULER: Load scheduler "sta0" with entities [Romaa Mihgo (ID: 17183569/0x01063351), Romaa Mihgo (ID: 17183569/0x01063351)], work=1327*
  5: 0x01BA [0x00] END_REQSTACK()
```

### Event 65535.15

#### Metadata

| Field        | Value    |
|--------------|----------|
| Entrypoint   | 0x01BB   |
| Data Size    | 71 bytes |
| Instructions | 16       |

```
      00 01 02 03 04 05 06 07  08 09 0A 0B 0C 0D 0E 0F
      -- -- -- -- -- -- -- --  -- -- -- -- -- -- -- --
01B0:                                   59 04 F8 FF FF             Y....
01C0: 7F 1D 80 1F 00 34 80 35  80 24 80 1F 01 1F 00 36  .....4.5.$.....6
01D0: 80 37 80 24 80 1F 01 1F  00 38 80 39 80 24 80 1F  .7.$.....8.9.$..
01E0: 01 6F 1F 00 3A 80 3B 80  3C 80 1F 01 1F 00 3D 80  .o..:.;.<.....=.
01F0: 3E 80 3F 80 1F 01 1F 00  40 80 41 80 42 80 1F 01  >.?.....@.A.B...
0200: 6F 00                                             o.              
```

#### Opcodes

```
  0: 0x01BB [0x59] UPDATE_ENTITY_DATA: Set EventEntity main speed = 13* * 0.1
  1: 0x01C3 [0x1F] MOVE_ENTITY: EventEntity moves to X=50.644*, Z=-92.766*, Y=-16.000*
  2: 0x01CB [0x1F] MOVE_ENTITY: Update entity position (mode=1)
  3: 0x01CD [0x1F] MOVE_ENTITY: EventEntity moves to X=56.838*, Z=-94.459*, Y=-16.000*
  4: 0x01D5 [0x1F] MOVE_ENTITY: Update entity position (mode=1)
  5: 0x01D7 [0x1F] MOVE_ENTITY: EventEntity moves to X=67.722*, Z=-94.081*, Y=-16.000*
  6: 0x01DF [0x1F] MOVE_ENTITY: Update entity position (mode=1)
  7: 0x01E1 [0x6F] WAIT_FRAME_DELAY: Yield until WaitTime reaches zero
  8: 0x01E2 [0x1F] MOVE_ENTITY: EventEntity moves to X=91.336*, Z=-92.271*, Y=-16.239*
  9: 0x01EA [0x1F] MOVE_ENTITY: Update entity position (mode=1)
 10: 0x01EC [0x1F] MOVE_ENTITY: EventEntity moves to X=95.246*, Z=-95.423*, Y=-16.166*
 11: 0x01F4 [0x1F] MOVE_ENTITY: Update entity position (mode=1)
 12: 0x01F6 [0x1F] MOVE_ENTITY: EventEntity moves to X=105.145*, Z=-94.130*, Y=-16.309*
 13: 0x01FE [0x1F] MOVE_ENTITY: Update entity position (mode=1)
 14: 0x0200 [0x6F] WAIT_FRAME_DELAY: Yield until WaitTime reaches zero
 15: 0x0201 [0x00] END_REQSTACK()
```

### Event 65535.16

#### Metadata

| Field        | Value   |
|--------------|---------|
| Entrypoint   | 0x0202  |
| Data Size    | 1 bytes |
| Instructions | 1       |

```
      00 01 02 03 04 05 06 07  08 09 0A 0B 0C 0D 0E 0F
      -- -- -- -- -- -- -- --  -- -- -- -- -- -- -- --
0200:       00                                            .             
```

#### Opcodes

```
  0: 0x0202 [0x00] END_REQSTACK()
```

### Event 65535.17

#### Metadata

| Field        | Value    |
|--------------|----------|
| Entrypoint   | 0x0203   |
| Data Size    | 18 bytes |
| Instructions | 4        |

```
      00 01 02 03 04 05 06 07  08 09 0A 0B 0C 0D 0E 0F
      -- -- -- -- -- -- -- --  -- -- -- -- -- -- -- --
0200:          22 00 2F 00 F8  FF FF 7F 6C F8 FF FF 7F     "./.....l....
0210: 43 80 44 80 00                                    C.D..           
```

#### Opcodes

```
  0: 0x0203 [0x22] ENTITY_HIDE_FLAG(enabled=0x00)
  1: 0x0205 [0x2F] EventEntity->Render.Flags0 &= ~0x80000 // Bit 19
  2: 0x020B [0x6C] FADE_ENTITY_COLOR(entity_id=EventEntity, end_alpha=0*, fade_time=1*)
  3: 0x0214 [0x00] END_REQSTACK()
```

### Event 65535.18

#### Metadata

| Field        | Value    |
|--------------|----------|
| Entrypoint   | 0x0215   |
| Data Size    | 10 bytes |
| Instructions | 2        |

```
      00 01 02 03 04 05 06 07  08 09 0A 0B 0C 0D 0E 0F
      -- -- -- -- -- -- -- --  -- -- -- -- -- -- -- --
0210:                6C F8 FF  FF 7F 45 80 44 80 00          l....E.D.. 
```

#### Opcodes

```
  0: 0x0215 [0x6C] FADE_ENTITY_COLOR(entity_id=EventEntity, end_alpha=128*, fade_time=1*)
  1: 0x021E [0x00] END_REQSTACK()
```

### Event 65535.19

#### Metadata

| Field        | Value   |
|--------------|---------|
| Entrypoint   | 0x021F  |
| Data Size    | 9 bytes |
| Instructions | 3       |

```
      00 01 02 03 04 05 06 07  08 09 0A 0B 0C 0D 0E 0F
      -- -- -- -- -- -- -- --  -- -- -- -- -- -- -- --
0210:                                               22                 "
0220: 00 2F 00 F8 FF FF 7F 00                           ./......        
```

#### Opcodes

```
  0: 0x021F [0x22] ENTITY_HIDE_FLAG(enabled=0x00)
  1: 0x0221 [0x2F] EventEntity->Render.Flags0 &= ~0x80000 // Bit 19
  2: 0x0227 [0x00] END_REQSTACK()
```

### Event 65535.20

#### Metadata

| Field        | Value   |
|--------------|---------|
| Entrypoint   | 0x0228  |
| Data Size    | 9 bytes |
| Instructions | 3       |

```
      00 01 02 03 04 05 06 07  08 09 0A 0B 0C 0D 0E 0F
      -- -- -- -- -- -- -- --  -- -- -- -- -- -- -- --
0220:                          22 01 2F 01 F8 FF FF 7F          "./.....
0230: 00                                                .               
```

#### Opcodes

```
  0: 0x0228 [0x22] ENTITY_HIDE_FLAG(enabled=0x01)
  1: 0x022A [0x2F] EventEntity->Render.Flags0 |= 0x80000 // Bit 19
  2: 0x0230 [0x00] END_REQSTACK()
```

### Event 65535.21

#### Metadata

| Field        | Value    |
|--------------|----------|
| Entrypoint   | 0x0231   |
| Data Size    | 10 bytes |
| Instructions | 2        |

```
      00 01 02 03 04 05 06 07  08 09 0A 0B 0C 0D 0E 0F
      -- -- -- -- -- -- -- --  -- -- -- -- -- -- -- --
0230:    6C F8 FF FF 7F 43 80  44 80 00                  l....C.D..     
```

#### Opcodes

```
  0: 0x0231 [0x6C] FADE_ENTITY_COLOR(entity_id=EventEntity, end_alpha=0*, fade_time=1*)
  1: 0x023A [0x00] END_REQSTACK()
```

### Event 65535.22

#### Metadata

| Field        | Value    |
|--------------|----------|
| Entrypoint   | 0x023B   |
| Data Size    | 10 bytes |
| Instructions | 2        |

```
      00 01 02 03 04 05 06 07  08 09 0A 0B 0C 0D 0E 0F
      -- -- -- -- -- -- -- --  -- -- -- -- -- -- -- --
0230:                                   6C F8 FF FF 7F             l....
0240: 45 80 44 80 00                                    E.D..           
```

#### Opcodes

```
  0: 0x023B [0x6C] FADE_ENTITY_COLOR(entity_id=EventEntity, end_alpha=128*, fade_time=1*)
  1: 0x0244 [0x00] END_REQSTACK()
```
