# 17183473

## Common Data

| Field            | Value                       |
|------------------|-----------------------------|
| Zone             | Castle Oztroja [S] (ID: 99) |
| Block Size       | 2980 bytes                  |
| Total Events     | 5                           |
| References Count | 82                          |

## List of Events

| Event ID              | Entrypoint   |   Size |   Instructions |
|-----------------------|--------------|--------|----------------|
| [65535](#event-65535) | 0x0000       |      1 |              1 |
| [460](#event-460)     | 0x0001       |    552 |            102 |
| [101](#event-101)     | 0x0229       |   1197 |            131 |
| [103](#event-103)     | 0x06D6       |    539 |             62 |
| [102](#event-102)     | 0x08F1       |    326 |             37 |

## DAT References (imed_data)

|   Index | Hex Value   |   Dec Value |
|---------|-------------|-------------|
|       0 | 0x0000      |           0 |
|       1 | 0x0001      |           1 |
|       2 | 0x0002      |           2 |
|       3 | 0x0003      |           3 |
|       4 | 0x0005      |           5 |
|       5 | 0x0006      |           6 |
|       6 | 0x000B      |          11 |
|       7 | 0x000C      |          12 |
|       8 | 0x0011      |          17 |
|       9 | 0x0012      |          18 |
|      10 | 0x0017      |          23 |
|      11 | 0x0018      |          24 |
|      12 | 0x001D      |          29 |
|      13 | 0x003C      |          60 |
|      14 | 0x1DF9      |        7673 |
|      15 | 0x03E7      |         999 |
|      16 | 0x1DFA      |        7674 |
|      17 | 0x1DFB      |        7675 |
|      18 | 0x1DFC      |        7676 |
|      19 | 0x0032      |          50 |
|      20 | 0x0004      |           4 |
|      21 | 0x111110    |     1118480 |
|      22 | 0x1E01      |        7681 |
|      23 | 0x1DFD      |        7677 |
|      24 | 0x00C8      |         200 |
|      25 | 0x0013      |          19 |
|      26 | 0xFFFDCA88  |  4294822536 |
|      27 | 0x1873A     |      100154 |
|      28 | 0x0127      |         295 |
|      29 | 0x0FCC      |        4044 |
|      30 | 0xFFFDC1FC  |  4294820348 |
|      31 | 0x18B71     |      101233 |
|      32 | 0x00FA      |         250 |
|      33 | 0x080C      |        2060 |
|      34 | 0xFFFDE7F2  |  4294830066 |
|      35 | 0x18757     |      100183 |
|      36 | 0x00F9      |         249 |
|      37 | 0x0FE4      |        4068 |
|      38 | 0x0133      |         307 |
|      39 | 0x000F      |          15 |
|      40 | 0x1FDA      |        8154 |
|      41 | 0x001E      |          30 |
|      42 | 0x0050      |          80 |
|      43 | 0x0439      |        1081 |
|      44 | 0x1FDB      |        8155 |
|      45 | 0x00FE      |         254 |
|      46 | 0x1FDC      |        8156 |
|      47 | 0x0359      |         857 |
|      48 | 0x1FDD      |        8157 |
|      49 | 0x1FDE      |        8158 |
|      50 | 0x1FDF      |        8159 |
|      51 | 0x1FE0      |        8160 |
|      52 | 0x1FE1      |        8161 |
|      53 | 0x1FE2      |        8162 |
|      54 | 0x00B4      |         180 |
|      55 | 0x005A      |          90 |
|      56 | 0xFFFDD7BF  |  4294825919 |
|      57 | 0x1883D     |      100413 |
|      58 | 0x07F5      |        2037 |
|      59 | 0x1FE3      |        8163 |
|      60 | 0x1FE4      |        8164 |
|      61 | 0x1FE5      |        8165 |
|      62 | 0x1FE6      |        8166 |
|      63 | 0x1FE7      |        8167 |
|      64 | 0x1FE8      |        8168 |
|      65 | 0xFFFDDE3B  |  4294827579 |
|      66 | 0x1897C     |      100732 |
|      67 | 0xFFFFFF45  |  4294967109 |
|      68 | 0x07FD      |        2045 |
|      69 | 0x1FEC      |        8172 |
|      70 | 0x1FED      |        8173 |
|      71 | 0x05F2      |        1522 |
|      72 | 0x0078      |         120 |
|      73 | 0x0076      |         118 |
|      74 | 0x018F      |         399 |
|      75 | 0x1FEE      |        8174 |
|      76 | 0x1FEF      |        8175 |
|      77 | 0x1FF0      |        8176 |
|      78 | 0x1FF1      |        8177 |
|      79 | 0x1FE9      |        8169 |
|      80 | 0x1FEA      |        8170 |
|      81 | 0x1FEB      |        8171 |

## String References

- **7673**: Register for a union? [No./Yes.]
- **7674**: What will you do? [Nothing./Transfer to another union./Resign union membership.]
- **7675**: Your steadfast efforts have earned you a claim to share in your union's spoils of war. By [transferring to another union/resigning from your union], you will relinquish this right. It is not my place to question your decision, but I suggest you pay the matter due heed.
- **7676**: [Transfer unions/Resign from your current union]? [No./Yes.]
- **7677**: Register for which union? [None./Adder Union ($0 [member/members])./Bison Union ($1 [member/members])./Coyote Union ($2 [member/members])./Dhole Union ($3 [member/members])./Eland Union ($4 [member/members]).]
- **7681**: I am afraid that all unions are currently at their maximum enrollment, and unable to accept new recruits. For better or for worse, though, I suspect it shall not be long before we are in need of some new blood. Such is the nature of war...

## Events

### Event 65535

#### Metadata

| Field        | Value   |
|--------------|---------|
| Entrypoint   | 0x0000  |
| Data Size    | 1 bytes |
| Instructions | 1       |

```
      00 01 02 03 04 05 06 07  08 09 0A 0B 0C 0D 0E 0F
      -- -- -- -- -- -- -- --  -- -- -- -- -- -- -- --
0000: 00                                                .               
```

#### Opcodes

```
  0: 0x0000 [0x00] END_REQSTACK()
```

### Event 460

#### Metadata

| Field        | Value     |
|--------------|-----------|
| Entrypoint   | 0x0001    |
| Data Size    | 552 bytes |
| Instructions | 102       |

```
      00 01 02 03 04 05 06 07  08 09 0A 0B 0C 0D 0E 0F
      -- -- -- -- -- -- -- --  -- -- -- -- -- -- -- --
0000:    41 00 80 00 80 02 10  00 00 41 01 80 02 80 02   A........A.....
0010: 10 01 00 41 03 80 04 80  02 10 02 00 41 05 80 05  ...A........A...
0020: 80 02 10 03 00 41 00 80  04 80 03 10 04 00 41 05  .....A........A.
0030: 80 06 80 03 10 05 00 41  07 80 08 80 03 10 06 00  .......A........
0040: 41 09 80 0A 80 03 10 07  00 41 0B 80 0C 80 03 10  A........A......
0050: 08 00 20 01 1C 0D 80 03  09 00 00 80 02 00 00 00  .. .............
0060: 80 00 8F 00 24 0E 80 00  80 00 80 25 02 00 10 00  ....$......%....
0070: 80 00 7C 00 03 01 10 0F  80 01 8C 00 02 00 10 01  ..|.............
0080: 80 00 8C 00 03 09 00 01  80 01 8C 00 01 39 01 24  .............9.$
0090: 10 80 00 80 00 80 25 02  00 10 00 80 00 A7 00 03  ......%.........
00A0: 01 10 0F 80 01 39 01 02  00 10 01 80 00 F0 00 02  .....9..........
00B0: 03 00 01 80 00 C0 00 03  02 10 00 80 1D 11 80 23  ...............#
00C0: 03 02 10 00 80 24 12 80  00 80 00 80 25 02 00 10  .....$......%...
00D0: 00 80 00 DD 00 03 01 10  0F 80 01 ED 00 02 00 10  ................
00E0: 01 80 00 ED 00 03 09 00  01 80 01 ED 00 01 39 01  ..............9.
00F0: 02 00 10 02 80 00 39 01  02 03 00 01 80 00 09 01  ......9.........
0100: 03 02 10 01 80 1D 11 80  23 03 02 10 01 80 24 12  ........#.....$.
0110: 80 00 80 00 80 25 02 00  10 00 80 00 26 01 03 01  .....%......&...
0120: 10 0F 80 01 36 01 02 00  10 01 80 00 36 01 03 01  ....6.......6...
0130: 10 05 80 01 36 01 01 39  01 02 09 00 01 80 00 26  ....6..9.......&
0140: 02 03 0A 00 00 80 03 02  10 04 00 03 03 10 05 00  ................
0150: 03 04 10 06 00 03 05 10  07 00 03 06 10 08 00 02  ................
0160: 04 00 13 80 04 6E 01 3C  0A 00 01 80 01 80 02 05  .....n.<........
0170: 00 13 80 04 7D 01 3C 0A  00 02 80 01 80 02 06 00  ....}.<.........
0180: 13 80 04 8C 01 3C 0A 00  03 80 01 80 02 07 00 13  .....<..........
0190: 80 04 9B 01 3C 0A 00 14  80 01 80 02 08 00 13 80  ....<...........
01A0: 04 AA 01 3C 0A 00 04 80  01 80 02 0A 00 15 80 00  ...<............
01B0: BE 01 1D 16 80 23 03 01  10 0F 80 01 26 02 24 17  .....#......&.$.
01C0: 80 00 80 0A 00 25 02 00  10 00 80 00 D6 01 03 01  .....%..........
01D0: 10 0F 80 01 26 02 02 00  10 01 80 00 E6 01 03 01  ....&...........
01E0: 10 01 80 01 26 02 02 00  10 02 80 00 F6 01 03 01  ....&...........
01F0: 10 02 80 01 26 02 02 00  10 03 80 00 06 02 03 01  ....&...........
0200: 10 03 80 01 26 02 02 00  10 14 80 00 16 02 03 01  ....&...........
0210: 10 14 80 01 26 02 02 00  10 04 80 00 26 02 03 01  ....&.......&...
0220: 10 04 80 01 26 02 42 21  00                       ....&.B!.       
```

#### Opcodes

```
  0: 0x0001 [0x41] ExtData[1]->WorkLocal[0] = Work_Zone[2] (bits 0*-0*)
  1: 0x000A [0x41] ExtData[1]->WorkLocal[1] = Work_Zone[2] (bits 1*-2*)
  2: 0x0013 [0x41] ExtData[1]->WorkLocal[2] = Work_Zone[2] (bits 3*-5*)
  3: 0x001C [0x41] ExtData[1]->WorkLocal[3] = Work_Zone[2] (bits 6*-6*)
  4: 0x0025 [0x41] ExtData[1]->WorkLocal[4] = Work_Zone[3] (bits 0*-5*)
  5: 0x002E [0x41] ExtData[1]->WorkLocal[5] = Work_Zone[3] (bits 6*-11*)
  6: 0x0037 [0x41] ExtData[1]->WorkLocal[6] = Work_Zone[3] (bits 12*-17*)
  7: 0x0040 [0x41] ExtData[1]->WorkLocal[7] = Work_Zone[3] (bits 18*-23*)
  8: 0x0049 [0x41] ExtData[1]->WorkLocal[8] = Work_Zone[3] (bits 24*-29*)
  9: 0x0052 [0x20] SET_CLI_EVENT_UC_FLAG: Lock player control
 10: 0x0054 [0x1C] WAIT(60* ticks)
 11: 0x0057 [0x03] ExtData[1]->WorkLocal[9] = 0*
 12: 0x005C [0x02] IF !(ExtData[1]->WorkLocal[0] == 0*) GOTO 0x008F
 13: 0x0064 [0x24] CREATE_DIALOG(message_id=7673*, default_option=0*, option_flags=0*)
    → "Register for a union? [No./Yes.]"
 14: 0x006B [0x25] WAIT_DIALOG_SELECT()
 15: 0x006C [0x02] IF !(Work_Zone[0] == 0*) GOTO 0x007C
 16: 0x0074 [0x03] Work_Zone[1] = 999*
 17: 0x0079 [0x01] GOTO 0x008C
 18: 0x007C [0x02] IF !(Work_Zone[0] == 1*) GOTO 0x008C
 19: 0x0084 [0x03] ExtData[1]->WorkLocal[9] = 1*
 20: 0x0089 [0x01] GOTO 0x008C

SUBROUTINE_008C:
 21: 0x008C [0x01] GOTO 0x0139
 22: 0x008F [0x24] CREATE_DIALOG(message_id=7674*, default_option=0*, option_flags=0*)
    → "What will you do? [Nothing./Transfer to another union./Resign union membership.]"
 23: 0x0096 [0x25] WAIT_DIALOG_SELECT()
 24: 0x0097 [0x02] IF !(Work_Zone[0] == 0*) GOTO 0x00A7
 25: 0x009F [0x03] Work_Zone[1] = 999*
 26: 0x00A4 [0x01] GOTO 0x0139
 27: 0x00A7 [0x02] IF !(Work_Zone[0] == 1*) GOTO 0x00F0
 28: 0x00AF [0x02] IF !(ExtData[1]->WorkLocal[3] == 1*) GOTO 0x00C0
 29: 0x00B7 [0x03] Work_Zone[2] = 0*
 30: 0x00BC [0x1D] PRINT_EVENT_MESSAGE(message_id=7675*)
    → "Your steadfast efforts have earned you a claim to share in your union's spoils of war. By [transferring to another union/resigning from your union], you will relinquish this right. It is not my place to question your decision, but I suggest you pay the matter due heed."
 31: 0x00BF [0x23] WAIT_FOR_DIALOG_INTERACTION
 32: 0x00C0 [0x03] Work_Zone[2] = 0*
 33: 0x00C5 [0x24] CREATE_DIALOG(message_id=7676*, default_option=0*, option_flags=0*)
    → "[Transfer unions/Resign from your current union]? [No./Yes.]"
 34: 0x00CC [0x25] WAIT_DIALOG_SELECT()
 35: 0x00CD [0x02] IF !(Work_Zone[0] == 0*) GOTO 0x00DD
 36: 0x00D5 [0x03] Work_Zone[1] = 999*
 37: 0x00DA [0x01] GOTO 0x00ED
 38: 0x00DD [0x02] IF !(Work_Zone[0] == 1*) GOTO 0x00ED
 39: 0x00E5 [0x03] ExtData[1]->WorkLocal[9] = 1*
 40: 0x00EA [0x01] GOTO 0x00ED

SUBROUTINE_00ED:
 41: 0x00ED [0x01] GOTO 0x0139
 42: 0x00F0 [0x02] IF !(Work_Zone[0] == 2*) GOTO 0x0139
 43: 0x00F8 [0x02] IF !(ExtData[1]->WorkLocal[3] == 1*) GOTO 0x0109
 44: 0x0100 [0x03] Work_Zone[2] = 1*
 45: 0x0105 [0x1D] PRINT_EVENT_MESSAGE(message_id=7675*)
    → "Your steadfast efforts have earned you a claim to share in your union's spoils of war. By [transferring to another union/resigning from your union], you will relinquish this right. It is not my place to question your decision, but I suggest you pay the matter due heed."
 46: 0x0108 [0x23] WAIT_FOR_DIALOG_INTERACTION
 47: 0x0109 [0x03] Work_Zone[2] = 1*
 48: 0x010E [0x24] CREATE_DIALOG(message_id=7676*, default_option=0*, option_flags=0*)
    → "[Transfer unions/Resign from your current union]? [No./Yes.]"
 49: 0x0115 [0x25] WAIT_DIALOG_SELECT()
 50: 0x0116 [0x02] IF !(Work_Zone[0] == 0*) GOTO 0x0126
 51: 0x011E [0x03] Work_Zone[1] = 999*
 52: 0x0123 [0x01] GOTO 0x0136
 53: 0x0126 [0x02] IF !(Work_Zone[0] == 1*) GOTO 0x0136
 54: 0x012E [0x03] Work_Zone[1] = 6*
 55: 0x0133 [0x01] GOTO 0x0136

SUBROUTINE_0136:
 56: 0x0136 [0x01] GOTO 0x0139

SUBROUTINE_0139:
 57: 0x0139 [0x02] IF !(ExtData[1]->WorkLocal[9] == 1*) GOTO 0x0226
 58: 0x0141 [0x03] ExtData[1]->WorkLocal[10] = 0*
 59: 0x0146 [0x03] Work_Zone[2] = ExtData[1]->WorkLocal[4]
 60: 0x014B [0x03] Work_Zone[3] = ExtData[1]->WorkLocal[5]
 61: 0x0150 [0x03] Work_Zone[4] = ExtData[1]->WorkLocal[6]
 62: 0x0155 [0x03] Work_Zone[5] = ExtData[1]->WorkLocal[7]
 63: 0x015A [0x03] Work_Zone[6] = ExtData[1]->WorkLocal[8]
 64: 0x015F [0x02] IF !(ExtData[1]->WorkLocal[4] < 50*) GOTO 0x016E
 65: 0x0167 [0x3C] SET_BIT_FLAG_CONDITIONAL(target_work_offset=ExtData[1]->WorkLocal[10], bit_index_work_offset=1*, condition_work_offset=1*)
 66: 0x016E [0x02] IF !(ExtData[1]->WorkLocal[5] < 50*) GOTO 0x017D
 67: 0x0176 [0x3C] SET_BIT_FLAG_CONDITIONAL(target_work_offset=ExtData[1]->WorkLocal[10], bit_index_work_offset=2*, condition_work_offset=1*)
 68: 0x017D [0x02] IF !(ExtData[1]->WorkLocal[6] < 50*) GOTO 0x018C
 69: 0x0185 [0x3C] SET_BIT_FLAG_CONDITIONAL(target_work_offset=ExtData[1]->WorkLocal[10], bit_index_work_offset=3*, condition_work_offset=1*)
 70: 0x018C [0x02] IF !(ExtData[1]->WorkLocal[7] < 50*) GOTO 0x019B
 71: 0x0194 [0x3C] SET_BIT_FLAG_CONDITIONAL(target_work_offset=ExtData[1]->WorkLocal[10], bit_index_work_offset=4*, condition_work_offset=1*)
 72: 0x019B [0x02] IF !(ExtData[1]->WorkLocal[8] < 50*) GOTO 0x01AA
 73: 0x01A3 [0x3C] SET_BIT_FLAG_CONDITIONAL(target_work_offset=ExtData[1]->WorkLocal[10], bit_index_work_offset=5*, condition_work_offset=1*)
 74: 0x01AA [0x02] IF !(ExtData[1]->WorkLocal[10] == 1118480*) GOTO 0x01BE
 75: 0x01B2 [0x1D] PRINT_EVENT_MESSAGE(message_id=7681*)
    → "I am afraid that all unions are currently at their maximum enrollment, and unable to accept new recruits. For better or for worse, though, I suspect it shall not be long before we are in need of some new blood. Such is the nature of war..."
 76: 0x01B5 [0x23] WAIT_FOR_DIALOG_INTERACTION
 77: 0x01B6 [0x03] Work_Zone[1] = 999*
 78: 0x01BB [0x01] GOTO 0x0226
 79: 0x01BE [0x24] CREATE_DIALOG(message_id=7677*, default_option=0*, option_flags=ExtData[1]->WorkLocal[10])
    → "Register for which union? [None./Adder Union ($0 [member/members])./Bison Union ($1 [member/members])./Coyote Union ($2 [member/members])./Dhole Union ($3 [member/members])./Eland Union ($4 [member/members]).]"
 80: 0x01C5 [0x25] WAIT_DIALOG_SELECT()
 81: 0x01C6 [0x02] IF !(Work_Zone[0] == 0*) GOTO 0x01D6
 82: 0x01CE [0x03] Work_Zone[1] = 999*
 83: 0x01D3 [0x01] GOTO 0x0226
 84: 0x01D6 [0x02] IF !(Work_Zone[0] == 1*) GOTO 0x01E6
 85: 0x01DE [0x03] Work_Zone[1] = 1*
 86: 0x01E3 [0x01] GOTO 0x0226
 87: 0x01E6 [0x02] IF !(Work_Zone[0] == 2*) GOTO 0x01F6
 88: 0x01EE [0x03] Work_Zone[1] = 2*
 89: 0x01F3 [0x01] GOTO 0x0226
 90: 0x01F6 [0x02] IF !(Work_Zone[0] == 3*) GOTO 0x0206
 91: 0x01FE [0x03] Work_Zone[1] = 3*
 92: 0x0203 [0x01] GOTO 0x0226
 93: 0x0206 [0x02] IF !(Work_Zone[0] == 4*) GOTO 0x0216
 94: 0x020E [0x03] Work_Zone[1] = 4*
 95: 0x0213 [0x01] GOTO 0x0226
 96: 0x0216 [0x02] IF !(Work_Zone[0] == 5*) GOTO 0x0226
 97: 0x021E [0x03] Work_Zone[1] = 5*
 98: 0x0223 [0x01] GOTO 0x0226

SUBROUTINE_0226:
 99: 0x0226 [0x42] SET_CLI_EVENT_CANCEL_DATA()
100: 0x0227 [0x21] END_EVENT
101: 0x0228 [0x00] END_REQSTACK()
```

### Event 101

#### Metadata

| Field        | Value      |
|--------------|------------|
| Entrypoint   | 0x0229     |
| Data Size    | 1197 bytes |
| Instructions | 131        |

```
      00 01 02 03 04 05 06 07  08 09 0A 0B 0C 0D 0E 0F
      -- -- -- -- -- -- -- --  -- -- -- -- -- -- -- --
0220:                             42 45 18 80 F8 FF FF           BE.....
0230: 7F F8 FF FF 7F 66 64 6F  31 00 80 55 18 80 F8 FF  .....fdo1..U....
0240: FF 7F F8 FF FF 7F 66 64  6F 31 46 01 38 19 80 2F  ......fdo1F.8../
0250: 00 53 33 06 01 2F 00 54  33 06 01 4E 00 53 33 06  .S3../.T3..N.S3.
0260: 01 BA 53 33 06 01 1A 80  1B 80 1C 80 1D 80 BA 54  ..S3...........T
0270: 33 06 01 1E 80 1F 80 20  80 21 80 BA F0 FF FF 7F  3...... .!......
0280: 22 80 23 80 24 80 25 80  80 53 33 06 01 80 F0 FF  ".#.$.%..S3.....
0290: FF 7F 45 26 80 F8 FF FF  7F F8 FF FF 7F 61 30 30  ..E&.........a00
02A0: 30 00 80 1C 27 80 45 18  80 F8 FF FF 7F F8 FF FF  0...'.E.........
02B0: 7F 66 64 69 31 00 80 55  18 80 F8 FF FF 7F F8 FF  .fdi1..U........
02C0: FF 7F 66 64 69 31 1C 0D  80 4A F0 FF FF 7F 53 33  ..fdi1...J....S3
02D0: 06 01 27 05 53 33 06 01  03 2B 53 33 06 01 28 80  ..'.S3...+S3..(.
02E0: 23 2A 05 53 33 06 01 52  26 80 F8 FF FF 7F F8 FF  #*.S3..R&.......
02F0: FF 7F 61 30 30 30 02 87  7F 04 80 80 12 03 45 26  ..a000........E&
0300: 80 F8 FF FF 7F F8 FF FF  7F 61 30 30 31 00 80 01  .........a001...
0310: 3F 03 02 87 7F 05 80 80  2E 03 45 26 80 F8 FF FF  ?.........E&....
0320: 7F F8 FF FF 7F 61 30 30  31 00 80 01 3F 03 45 26  .....a001...?.E&
0330: 80 F8 FF FF 7F F8 FF FF  7F 61 30 30 32 00 80 1C  .........a002...
0340: 29 80 27 05 F0 FF FF 7F  0E 1C 2A 80 27 05 F0 FF  ).'.......*.'...
0350: FF 7F 0F 1C 0D 80 52 26  80 F8 FF FF 7F F8 FF FF  ......R&........
0360: 7F 61 30 30 31 52 26 80  F8 FF FF 7F F8 FF FF 7F  .a001R&.........
0370: 61 30 30 32 45 26 80 F8  FF FF 7F F8 FF FF 7F 61  a002E&.........a
0380: 30 30 33 00 80 03 02 10  2B 80 2B 53 33 06 01 2C  003.....+.+S3..,
0390: 80 23 52 26 80 F8 FF FF  7F F8 FF FF 7F 61 30 30  .#R&.........a00
03A0: 33 45 26 80 F8 FF FF 7F  F8 FF FF 7F 61 30 30 34  3E&.........a004
03B0: 00 80 5B 2D 80 53 33 06  01 53 33 06 01 74 6C 6B  ..[-.S3..S3..tlk
03C0: 30 2B 53 33 06 01 2E 80  23 5B 2D 80 53 33 06 01  0+S3....#[-.S3..
03D0: 53 33 06 01 74 6C 6B 31  1C 27 80 5B 2F 80 53 33  S3..tlk1.'.[/.S3
03E0: 06 01 53 33 06 01 77 6E  64 31 52 26 80 F8 FF FF  ..S3..wnd1R&....
03F0: 7F F8 FF FF 7F 61 30 30  34 45 26 80 F8 FF FF 7F  .....a004E&.....
0400: F8 FF FF 7F 61 30 30 35  00 80 2B 53 33 06 01 30  ....a005..+S3..0
0410: 80 23 1C 27 80 52 26 80  F8 FF FF 7F F8 FF FF 7F  .#.'.R&.........
0420: 61 30 30 35 45 26 80 F8  FF FF 7F F8 FF FF 7F 61  a005E&.........a
0430: 30 30 36 00 80 4E 00 54  33 06 01 80 54 33 06 01  006..N.T3...T3..
0440: 27 05 54 33 06 01 02 1C  0D 80 2B 54 33 06 01 31  '.T3......+T3..1
0450: 80 23 2A 05 54 33 06 01  52 26 80 F8 FF FF 7F F8  .#*.T3..R&......
0460: FF FF 7F 61 30 30 36 45  26 80 F8 FF FF 7F F8 FF  ...a006E&.......
0470: FF 7F 61 30 30 37 00 80  6B 69 64 6C 30 53 33 06  ..a007..kidl0S3.
0480: 01 2A 05 54 33 06 01 4A  53 33 06 01 54 33 06 01  .*.T3..JS3..T3..
0490: 2B 53 33 06 01 32 80 23  1C 27 80 52 26 80 F8 FF  +S3..2.#.'.R&...
04A0: FF 7F F8 FF FF 7F 61 30  30 37 45 26 80 F8 FF FF  ......a007E&....
04B0: 7F F8 FF FF 7F 61 30 30  38 00 80 1C 27 80 2B 54  .....a008...'.+T
04C0: 33 06 01 33 80 23 52 26  80 F8 FF FF 7F F8 FF FF  3..3.#R&........
04D0: 7F 61 30 30 38 45 26 80  F8 FF FF 7F F8 FF FF 7F  .a008E&.........
04E0: 61 30 30 39 00 80 2B 54  33 06 01 34 80 23 52 26  a009..+T3..4.#R&
04F0: 80 F8 FF FF 7F F8 FF FF  7F 61 30 30 39 45 26 80  .........a009E&.
0500: F8 FF FF 7F F8 FF FF 7F  61 30 31 31 00 80 4A F0  ........a011..J.
0510: FF FF 7F 54 33 06 01 2B  53 33 06 01 35 80 23 52  ...T3..+S3..5.#R
0520: 26 80 F8 FF FF 7F F8 FF  FF 7F 61 30 31 31 45 26  &.........a011E&
0530: 80 F8 FF FF 7F F8 FF FF  7F 61 30 31 30 00 80 27  .........a010..'
0540: 05 53 33 06 01 04 1C 36  80 45 18 80 F8 FF FF 7F  .S3....6.E......
0550: F8 FF FF 7F 66 64 6F 31  00 80 55 18 80 F8 FF FF  ....fdo1..U.....
0560: 7F F8 FF FF 7F 66 64 6F  31 52 26 80 F8 FF FF 7F  .....fdo1R&.....
0570: F8 FF FF 7F 61 30 31 30  1C 37 80 BA 54 33 06 01  ....a010.7..T3..
0580: 38 80 39 80 24 80 3A 80  BA F0 FF FF 7F 22 80 23  8.9.$.:......".#
0590: 80 24 80 25 80 4A 54 33  06 01 F0 FF FF 7F 4A F0  .$.%.JT3......J.
05A0: FF FF 7F 54 33 06 01 4E  01 53 33 06 01 45 26 80  ...T3..N.S3..E&.
05B0: F8 FF FF 7F F8 FF FF 7F  61 30 31 32 00 80 45 18  ........a012..E.
05C0: 80 F8 FF FF 7F F8 FF FF  7F 66 64 69 31 00 80 55  .........fdi1..U
05D0: 18 80 F8 FF FF 7F F8 FF  FF 7F 66 64 69 31 1C 27  ..........fdi1.'
05E0: 80 1C 0D 80 2B 54 33 06  01 3B 80 23 52 26 80 F8  ....+T3..;.#R&..
05F0: FF FF 7F F8 FF FF 7F 61  30 31 32 45 26 80 F8 FF  .......a012E&...
0600: FF 7F F8 FF FF 7F 61 30  31 33 00 80 2B 54 33 06  ......a013..+T3.
0610: 01 3C 80 23 2B 54 33 06  01 3D 80 23 52 26 80 F8  .<.#+T3..=.#R&..
0620: FF FF 7F F8 FF FF 7F 61  30 31 33 45 26 80 F8 FF  .......a013E&...
0630: FF 7F F8 FF FF 7F 61 30  31 34 00 80 5B 2D 80 54  ......a014..[-.T
0640: 33 06 01 54 33 06 01 74  6C 6B 30 2B 54 33 06 01  3..T3..tlk0+T3..
0650: 3E 80 23 2B 54 33 06 01  3F 80 23 5B 2D 80 54 33  >.#+T3..?.#[-.T3
0660: 06 01 54 33 06 01 74 6C  6B 31 52 26 80 F8 FF FF  ..T3..tlk1R&....
0670: 7F F8 FF FF 7F 61 30 31  34 45 26 80 F8 FF FF 7F  .....a014E&.....
0680: F8 FF FF 7F 61 30 31 35  00 80 2B 54 33 06 01 40  ....a015..+T3..@
0690: 80 23 45 18 80 F8 FF FF  7F F8 FF FF 7F 66 64 6F  .#E..........fdo
06A0: 31 00 80 55 18 80 F8 FF  FF 7F F8 FF FF 7F 66 64  1..U..........fd
06B0: 6F 31 52 26 80 F8 FF FF  7F F8 FF FF 7F 61 30 31  o1R&.........a01
06C0: 35 46 00 45 18 80 F0 FF  FF 7F F0 FF FF 7F 66 64  5F.E..........fd
06D0: 69 32 00 80 21 00                                 i2..!.          
```

#### Opcodes

```
  0: 0x0229 [0x42] SET_CLI_EVENT_CANCEL_DATA()
  1: 0x022A [0x45] LOAD_SCHEDULED_TASK: Load scheduler "fdo1" with entities [EventEntity, EventEntity], work=[200*, 0*]
  2: 0x023B [0x55] WAIT_LOAD_SCHEDULER: Wait for scheduler "fdo1" with entities [EventEntity, EventEntity], work=200*
  3: 0x024A [0x46] CAMERA_CONTROL: Disable user control
  4: 0x024C [0x38] SET_CLIENT_EVENT_MODE(mode=19*)
  5: 0x024F [0x2F] Boo Kyeko the Ironfaith (ID: 17183571/0x01063353)->Render.Flags0 &= ~0x80000 // Bit 19
  6: 0x0255 [0x2F] Kaa Toru the Just (ID: 17183572/0x01063354)->Render.Flags0 &= ~0x80000 // Bit 19
  7: 0x025B [0x4E] SET_ENTITY_HIDE_FLAG: Show Boo Kyeko the Ironfaith (ID: 17183571/0x01063353)
  8: 0x0261 [0xBA] SET_ENTITY_POSITION(entity_id=Boo Kyeko the Ironfaith (ID: 17183571/0x01063353), pos_x=-144.760*, pos_z=100.154*, pos_y=0.295*, direction=355.4°*)
  9: 0x026E [0xBA] SET_ENTITY_POSITION(entity_id=Kaa Toru the Just (ID: 17183572/0x01063354), pos_x=-146.948*, pos_z=101.233*, pos_y=0.250*, direction=181.0°*)
 10: 0x027B [0xBA] SET_ENTITY_POSITION(entity_id=LocalPlayer, pos_x=-137.230*, pos_z=100.183*, pos_y=0.249*, direction=357.5°*)
 11: 0x0288 [0x80] LOAD_WAIT(entity=Boo Kyeko the Ironfaith (ID: 17183571/0x01063353))
 12: 0x028D [0x80] LOAD_WAIT(entity=LocalPlayer)
 13: 0x0292 [0x45] LOAD_SCHEDULED_TASK: Load scheduler "a000" with entities [EventEntity, EventEntity], work=[307*, 0*]
 14: 0x02A3 [0x1C] WAIT(15* ticks)
 15: 0x02A6 [0x45] LOAD_SCHEDULED_TASK: Load scheduler "fdi1" with entities [EventEntity, EventEntity], work=[200*, 0*]
 16: 0x02B7 [0x55] WAIT_LOAD_SCHEDULER: Wait for scheduler "fdi1" with entities [EventEntity, EventEntity], work=200*
 17: 0x02C6 [0x1C] WAIT(60* ticks)
 18: 0x02C9 [0x4A] LocalPlayer looks at Boo Kyeko the Ironfaith (ID: 17183571/0x01063353)
 19: 0x02D2 [0x27] REQ_SET(priority=0x05, entity_id=Boo Kyeko the Ironfaith (ID: 17183571/0x01063353), tag_num=0x03)
 20: 0x02D9 [0x2B] Boo Kyeko the Ironfaith (ID: 17183571/0x01063353) [8154*]:
    → "Kyah-kyah. What brings you to our nest, smoothskin?"
 21: 0x02E0 [0x23] WAIT_FOR_DIALOG_INTERACTION
 22: 0x02E1 [0x2A] GET_REQ_LEVEL(level=5, entity_id=Boo Kyeko the Ironfaith (ID: 17183571/0x01063353))
 23: 0x02E7 [0x52] END_LOAD_SCHEDULER: End scheduler "a000" with entities [EventEntity, EventEntity], work=307*
 24: 0x02F6 [0x02] IF !(LocalPlayer->Race == 5*) GOTO 0x0312
 25: 0x02FE [0x45] LOAD_SCHEDULED_TASK: Load scheduler "a001" with entities [EventEntity, EventEntity], work=[307*, 0*]
 26: 0x030F [0x01] GOTO 0x033F
 27: 0x0312 [0x02] IF !(LocalPlayer->Race == 6*) GOTO 0x032E
 28: 0x031A [0x45] LOAD_SCHEDULED_TASK: Load scheduler "a001" with entities [EventEntity, EventEntity], work=[307*, 0*]
 29: 0x032B [0x01] GOTO 0x033F
 30: 0x032E [0x45] LOAD_SCHEDULED_TASK: Load scheduler "a002" with entities [EventEntity, EventEntity], work=[307*, 0*]

SUBROUTINE_033F:
 31: 0x033F [0x1C] WAIT(30* ticks)
 32: 0x0342 [0x27] REQ_SET(priority=0x05, entity_id=LocalPlayer, tag_num=0x0E)
 33: 0x0349 [0x1C] WAIT(80* ticks)
 34: 0x034C [0x27] REQ_SET(priority=0x05, entity_id=LocalPlayer, tag_num=0x0F)
 35: 0x0353 [0x1C] WAIT(60* ticks)
 36: 0x0356 [0x52] END_LOAD_SCHEDULER: End scheduler "a001" with entities [EventEntity, EventEntity], work=307*
 37: 0x0365 [0x52] END_LOAD_SCHEDULER: End scheduler "a002" with entities [EventEntity, EventEntity], work=307*
 38: 0x0374 [0x45] LOAD_SCHEDULED_TASK: Load scheduler "a003" with entities [EventEntity, EventEntity], work=[307*, 0*]
 39: 0x0385 [0x03] Work_Zone[2] = 1081*
 40: 0x038A [0x2B] Boo Kyeko the Ironfaith (ID: 17183571/0x01063353) [8155*]:
    → "You seek $3, you say? Kyah-hah-hah!"
 41: 0x0391 [0x23] WAIT_FOR_DIALOG_INTERACTION
 42: 0x0392 [0x52] END_LOAD_SCHEDULER: End scheduler "a003" with entities [EventEntity, EventEntity], work=307*
 43: 0x03A1 [0x45] LOAD_SCHEDULED_TASK: Load scheduler "a004" with entities [EventEntity, EventEntity], work=[307*, 0*]
 44: 0x03B2 [0x5B] LOAD_EXT_SCHEDULER: Load scheduler "tlk0" with entities [Boo Kyeko the Ironfaith (ID: 17183571/0x01063353), Boo Kyeko the Ironfaith (ID: 17183571/0x01063353)], work=254*
 45: 0x03C1 [0x2B] Boo Kyeko the Ironfaith (ID: 17183571/0x01063353) [8156*]:
    → "Squawk! A fool you are. Fool-fool-fool. You would trespass so deep into our holy ground in search of some trinket from an old hen's tale?"
 46: 0x03C8 [0x23] WAIT_FOR_DIALOG_INTERACTION
 47: 0x03C9 [0x5B] LOAD_EXT_SCHEDULER: Load scheduler "tlk1" with entities [Boo Kyeko the Ironfaith (ID: 17183571/0x01063353), Boo Kyeko the Ironfaith (ID: 17183571/0x01063353)], work=254*
 48: 0x03D8 [0x1C] WAIT(15* ticks)
 49: 0x03DB [0x5B] LOAD_EXT_SCHEDULER: Load scheduler "wnd1" with entities [Boo Kyeko the Ironfaith (ID: 17183571/0x01063353), Boo Kyeko the Ironfaith (ID: 17183571/0x01063353)], work=857*
 50: 0x03EA [0x52] END_LOAD_SCHEDULER: End scheduler "a004" with entities [EventEntity, EventEntity], work=307*
 51: 0x03F9 [0x45] LOAD_SCHEDULED_TASK: Load scheduler "a005" with entities [EventEntity, EventEntity], work=[307*, 0*]
 52: 0x040A [0x2B] Boo Kyeko the Ironfaith (ID: 17183571/0x01063353) [8157*]:
    → "Kyah! You will die like the infidel you are!"
 53: 0x0411 [0x23] WAIT_FOR_DIALOG_INTERACTION
 54: 0x0412 [0x1C] WAIT(15* ticks)
 55: 0x0415 [0x52] END_LOAD_SCHEDULER: End scheduler "a005" with entities [EventEntity, EventEntity], work=307*
 56: 0x0424 [0x45] LOAD_SCHEDULED_TASK: Load scheduler "a006" with entities [EventEntity, EventEntity], work=[307*, 0*]
 57: 0x0435 [0x4E] SET_ENTITY_HIDE_FLAG: Show Kaa Toru the Just (ID: 17183572/0x01063354)
 58: 0x043B [0x80] LOAD_WAIT(entity=Kaa Toru the Just (ID: 17183572/0x01063354))
 59: 0x0440 [0x27] REQ_SET(priority=0x05, entity_id=Kaa Toru the Just (ID: 17183572/0x01063354), tag_num=0x02)
 60: 0x0447 [0x1C] WAIT(60* ticks)
 61: 0x044A [0x2B] Kaa Toru the Just (ID: 17183572/0x01063354) [8158*]:
    → "Lower your weapon."
 62: 0x0451 [0x23] WAIT_FOR_DIALOG_INTERACTION
 63: 0x0452 [0x2A] GET_REQ_LEVEL(level=5, entity_id=Kaa Toru the Just (ID: 17183572/0x01063354))
 64: 0x0458 [0x52] END_LOAD_SCHEDULER: End scheduler "a006" with entities [EventEntity, EventEntity], work=307*
 65: 0x0467 [0x45] LOAD_SCHEDULED_TASK: Load scheduler "a007" with entities [EventEntity, EventEntity], work=[307*, 0*]
 66: 0x0478 [0x6B] STOP_AND_IDLE: Boo Kyeko the Ironfaith (ID: 17183571/0x01063353) stops current action and resets to idle (animation="idl0")
 67: 0x0481 [0x2A] GET_REQ_LEVEL(level=5, entity_id=Kaa Toru the Just (ID: 17183572/0x01063354))
 68: 0x0487 [0x4A] Boo Kyeko the Ironfaith (ID: 17183571/0x01063353) looks at Kaa Toru the Just (ID: 17183572/0x01063354)
 69: 0x0490 [0x2B] Boo Kyeko the Ironfaith (ID: 17183571/0x01063353) [8159*]:
    → "Kakwah? My lord?"
 70: 0x0497 [0x23] WAIT_FOR_DIALOG_INTERACTION
 71: 0x0498 [0x1C] WAIT(15* ticks)
 72: 0x049B [0x52] END_LOAD_SCHEDULER: End scheduler "a007" with entities [EventEntity, EventEntity], work=307*
 73: 0x04AA [0x45] LOAD_SCHEDULED_TASK: Load scheduler "a008" with entities [EventEntity, EventEntity], work=[307*, 0*]
 74: 0x04BB [0x1C] WAIT(15* ticks)
 75: 0x04BE [0x2B] Kaa Toru the Just (ID: 17183572/0x01063354) [8160*]:
    → "Have you forgotten the pact!? Kyah! Your insolence knows no bounds!"
 76: 0x04C5 [0x23] WAIT_FOR_DIALOG_INTERACTION
 77: 0x04C6 [0x52] END_LOAD_SCHEDULER: End scheduler "a008" with entities [EventEntity, EventEntity], work=307*
 78: 0x04D5 [0x45] LOAD_SCHEDULED_TASK: Load scheduler "a009" with entities [EventEntity, EventEntity], work=[307*, 0*]
 79: 0x04E6 [0x2B] Kaa Toru the Just (ID: 17183572/0x01063354) [8161*]:
    → "Are we Yagudo not the most proud and honorable of the races? Pray that I do not inform Tzee Xicu of your affront!"
 80: 0x04ED [0x23] WAIT_FOR_DIALOG_INTERACTION
 81: 0x04EE [0x52] END_LOAD_SCHEDULER: End scheduler "a009" with entities [EventEntity, EventEntity], work=307*
 82: 0x04FD [0x45] LOAD_SCHEDULED_TASK: Load scheduler "a011" with entities [EventEntity, EventEntity], work=[307*, 0*]
 83: 0x050E [0x4A] LocalPlayer looks at Kaa Toru the Just (ID: 17183572/0x01063354)
 84: 0x0517 [0x2B] Boo Kyeko the Ironfaith (ID: 17183571/0x01063353) [8162*]:
    → "...Kyah."
 85: 0x051E [0x23] WAIT_FOR_DIALOG_INTERACTION
 86: 0x051F [0x52] END_LOAD_SCHEDULER: End scheduler "a011" with entities [EventEntity, EventEntity], work=307*
 87: 0x052E [0x45] LOAD_SCHEDULED_TASK: Load scheduler "a010" with entities [EventEntity, EventEntity], work=[307*, 0*]
 88: 0x053F [0x27] REQ_SET(priority=0x05, entity_id=Boo Kyeko the Ironfaith (ID: 17183571/0x01063353), tag_num=0x04)
 89: 0x0546 [0x1C] WAIT(180* ticks)
 90: 0x0549 [0x45] LOAD_SCHEDULED_TASK: Load scheduler "fdo1" with entities [EventEntity, EventEntity], work=[200*, 0*]
 91: 0x055A [0x55] WAIT_LOAD_SCHEDULER: Wait for scheduler "fdo1" with entities [EventEntity, EventEntity], work=200*
 92: 0x0569 [0x52] END_LOAD_SCHEDULER: End scheduler "a010" with entities [EventEntity, EventEntity], work=307*
 93: 0x0578 [0x1C] WAIT(90* ticks)
 94: 0x057B [0xBA] SET_ENTITY_POSITION(entity_id=Kaa Toru the Just (ID: 17183572/0x01063354), pos_x=-141.377*, pos_z=100.413*, pos_y=0.249*, direction=179.0°*)
 95: 0x0588 [0xBA] SET_ENTITY_POSITION(entity_id=LocalPlayer, pos_x=-137.230*, pos_z=100.183*, pos_y=0.249*, direction=357.5°*)
 96: 0x0595 [0x4A] Kaa Toru the Just (ID: 17183572/0x01063354) looks at LocalPlayer
 97: 0x059E [0x4A] LocalPlayer looks at Kaa Toru the Just (ID: 17183572/0x01063354)
 98: 0x05A7 [0x4E] SET_ENTITY_HIDE_FLAG: Hide Boo Kyeko the Ironfaith (ID: 17183571/0x01063353)
 99: 0x05AD [0x45] LOAD_SCHEDULED_TASK: Load scheduler "a012" with entities [EventEntity, EventEntity], work=[307*, 0*]
100: 0x05BE [0x45] LOAD_SCHEDULED_TASK: Load scheduler "fdi1" with entities [EventEntity, EventEntity], work=[200*, 0*]
101: 0x05CF [0x55] WAIT_LOAD_SCHEDULER: Wait for scheduler "fdi1" with entities [EventEntity, EventEntity], work=200*
102: 0x05DE [0x1C] WAIT(15* ticks)
103: 0x05E1 [0x1C] WAIT(60* ticks)
104: 0x05E4 [0x2B] Kaa Toru the Just (ID: 17183572/0x01063354) [8163*]:
    → "Yes, I know the relic of which you speak, entrusted to us by our "friends" of old. It is an ancient, ancient tale, written off by all as pure fable."
105: 0x05EB [0x23] WAIT_FOR_DIALOG_INTERACTION
106: 0x05EC [0x52] END_LOAD_SCHEDULER: End scheduler "a012" with entities [EventEntity, EventEntity], work=307*
107: 0x05FB [0x45] LOAD_SCHEDULED_TASK: Load scheduler "a013" with entities [EventEntity, EventEntity], work=[307*, 0*]
108: 0x060C [0x2B] Kaa Toru the Just (ID: 17183572/0x01063354) [8164*]:
    → "All save for I...for I am Kaa Toru the Just."
109: 0x0613 [0x23] WAIT_FOR_DIALOG_INTERACTION
110: 0x0614 [0x2B] Kaa Toru the Just (ID: 17183572/0x01063354) [8165*]:
    → "I give fair hearing to all who come before me, even a smoothskin such as you."
111: 0x061B [0x23] WAIT_FOR_DIALOG_INTERACTION
112: 0x061C [0x52] END_LOAD_SCHEDULER: End scheduler "a013" with entities [EventEntity, EventEntity], work=307*
113: 0x062B [0x45] LOAD_SCHEDULED_TASK: Load scheduler "a014" with entities [EventEntity, EventEntity], work=[307*, 0*]
114: 0x063C [0x5B] LOAD_EXT_SCHEDULER: Load scheduler "tlk0" with entities [Kaa Toru the Just (ID: 17183572/0x01063354), Kaa Toru the Just (ID: 17183572/0x01063354)], work=254*
115: 0x064B [0x2B] Kaa Toru the Just (ID: 17183572/0x01063354) [8166*]:
    → "But in exchange for my fair judgment, my demands are stern."
116: 0x0652 [0x23] WAIT_FOR_DIALOG_INTERACTION
117: 0x0653 [0x2B] Kaa Toru the Just (ID: 17183572/0x01063354) [8167*]:
    → "Bring proof that you are truly the promised one, and your cause shall be heard."
118: 0x065A [0x23] WAIT_FOR_DIALOG_INTERACTION
119: 0x065B [0x5B] LOAD_EXT_SCHEDULER: Load scheduler "tlk1" with entities [Kaa Toru the Just (ID: 17183572/0x01063354), Kaa Toru the Just (ID: 17183572/0x01063354)], work=254*
120: 0x066A [0x52] END_LOAD_SCHEDULER: End scheduler "a014" with entities [EventEntity, EventEntity], work=307*
121: 0x0679 [0x45] LOAD_SCHEDULED_TASK: Load scheduler "a015" with entities [EventEntity, EventEntity], work=[307*, 0*]
122: 0x068A [0x2B] Kaa Toru the Just (ID: 17183572/0x01063354) [8168*]:
    → "But be forewarned. If your heart is deemed deceitful, my brethren will pick the flesh from your bones. Kyah!"
123: 0x0691 [0x23] WAIT_FOR_DIALOG_INTERACTION
124: 0x0692 [0x45] LOAD_SCHEDULED_TASK: Load scheduler "fdo1" with entities [EventEntity, EventEntity], work=[200*, 0*]
125: 0x06A3 [0x55] WAIT_LOAD_SCHEDULER: Wait for scheduler "fdo1" with entities [EventEntity, EventEntity], work=200*
126: 0x06B2 [0x52] END_LOAD_SCHEDULER: End scheduler "a015" with entities [EventEntity, EventEntity], work=307*
127: 0x06C1 [0x46] CAMERA_CONTROL: Restore default settings
128: 0x06C3 [0x45] LOAD_SCHEDULED_TASK: Load scheduler "fdi2" with entities [LocalPlayer, LocalPlayer], work=[200*, 0*]
129: 0x06D4 [0x21] END_EVENT
130: 0x06D5 [0x00] END_REQSTACK()
```

### Event 103

#### Metadata

| Field        | Value     |
|--------------|-----------|
| Entrypoint   | 0x06D6    |
| Data Size    | 539 bytes |
| Instructions | 62        |

```
      00 01 02 03 04 05 06 07  08 09 0A 0B 0C 0D 0E 0F
      -- -- -- -- -- -- -- --  -- -- -- -- -- -- -- --
06D0:                   42 45  18 80 F8 FF FF 7F F8 FF        BE........
06E0: FF 7F 66 64 6F 31 00 80  55 18 80 F8 FF FF 7F F8  ..fdo1..U.......
06F0: FF FF 7F 66 64 6F 31 46  01 38 19 80 2F 00 54 33  ...fdo1F.8../.T3
0700: 06 01 4E 00 54 33 06 01  59 05 4C 33 06 01 01 BA  ..N.T3..Y.L3....
0710: 4C 33 06 01 41 80 42 80  43 80 44 80 BA 54 33 06  L3..A.B.C.D..T3.
0720: 01 1A 80 1B 80 1C 80 1D  80 BA F0 FF FF 7F 22 80  ..............".
0730: 23 80 24 80 25 80 80 4C  33 06 01 80 54 33 06 01  #.$.%..L3...T3..
0740: 80 F0 FF FF 7F A4 01 4A  54 33 06 01 F0 FF FF 7F  .......JT3......
0750: 4A F0 FF FF 7F 54 33 06  01 1C 29 80 45 26 80 F8  J....T3...).E&..
0760: FF FF 7F F8 FF FF 7F 61  30 31 36 00 80 1C 27 80  .......a016...'.
0770: 27 10 54 33 06 01 06 45  18 80 F8 FF FF 7F F8 FF  '.T3...E........
0780: FF 7F 66 64 69 31 00 80  55 18 80 F8 FF FF 7F F8  ..fdi1..U.......
0790: FF FF 7F 66 64 69 31 1C  0D 80 2B 54 33 06 01 45  ...fdi1...+T3..E
07A0: 80 23 52 26 80 F8 FF FF  7F F8 FF FF 7F 61 30 31  .#R&.........a01
07B0: 36 45 26 80 F8 FF FF 7F  F8 FF FF 7F 61 30 31 37  6E&.........a017
07C0: 00 80 2B 54 33 06 01 46  80 23 5B 47 80 54 33 06  ..+T3..F.#[G.T3.
07D0: 01 54 33 06 01 70 61 73  30 1C 48 80 C5 49 80 4C  .T3..pas0.H..I.L
07E0: 33 06 01 4C 33 06 01 73  30 30 30 00 80 45 4A 80  3..L3..s000..EJ.
07F0: F8 FF FF 7F F8 FF FF 7F  79 61 67 30 00 80 2B 54  ........yag0..+T
0800: 33 06 01 4B 80 23 53 54  33 06 01 54 33 06 01 70  3..K.#ST3..T3..p
0810: 61 73 30 5B 47 80 54 33  06 01 54 33 06 01 70 61  as0[G.T3..T3..pa
0820: 73 31 C5 49 80 4C 33 06  01 4C 33 06 01 73 30 30  s1.I.L3..L3..s00
0830: 31 00 80 45 4A 80 F8 FF  FF 7F F8 FF FF 7F 79 61  1..EJ.........ya
0840: 67 31 00 80 1C 0D 80 52  26 80 F8 FF FF 7F F8 FF  g1.....R&.......
0850: FF 7F 61 30 31 37 45 26  80 F8 FF FF 7F F8 FF FF  ..a017E&........
0860: 7F 61 30 31 38 00 80 2B  54 33 06 01 4C 80 23 2B  .a018..+T3..L.#+
0870: 54 33 06 01 4D 80 23 52  26 80 F8 FF FF 7F F8 FF  T3..M.#R&.......
0880: FF 7F 61 30 31 38 45 26  80 F8 FF FF 7F F8 FF FF  ..a018E&........
0890: 7F 61 30 31 39 00 80 1C  29 80 2B 54 33 06 01 4E  .a019...).+T3..N
08A0: 80 23 27 10 54 33 06 01  07 1C 48 80 45 18 80 F8  .#'.T3....H.E...
08B0: FF FF 7F F8 FF FF 7F 66  64 6F 31 00 80 55 18 80  .......fdo1..U..
08C0: F8 FF FF 7F F8 FF FF 7F  66 64 6F 31 52 26 80 F8  ........fdo1R&..
08D0: FF FF 7F F8 FF FF 7F 61  30 31 39 9A 46 00 45 18  .......a019.F.E.
08E0: 80 F0 FF FF 7F F0 FF FF  7F 66 64 69 32 00 80 21  .........fdi2..!
08F0: 00                                                .               
```

#### Opcodes

```
  0: 0x06D6 [0x42] SET_CLI_EVENT_CANCEL_DATA()
  1: 0x06D7 [0x45] LOAD_SCHEDULED_TASK: Load scheduler "fdo1" with entities [EventEntity, EventEntity], work=[200*, 0*]
  2: 0x06E8 [0x55] WAIT_LOAD_SCHEDULER: Wait for scheduler "fdo1" with entities [EventEntity, EventEntity], work=200*
  3: 0x06F7 [0x46] CAMERA_CONTROL: Disable user control
  4: 0x06F9 [0x38] SET_CLIENT_EVENT_MODE(mode=19*)
  5: 0x06FC [0x2F] Kaa Toru the Just (ID: 17183572/0x01063354)->Render.Flags0 &= ~0x80000 // Bit 19
  6: 0x0702 [0x4E] SET_ENTITY_HIDE_FLAG: Show Kaa Toru the Just (ID: 17183572/0x01063354)
  7: 0x0708 [0x59] UPDATE_ENTITY_DATA: Writhing Flame (ID: 17183564/0x0106334C)->Render.Flags0 |= 0x200000
  8: 0x070F [0xBA] SET_ENTITY_POSITION(entity_id=Writhing Flame (ID: 17183564/0x0106334C), pos_x=-139.717*, pos_z=100.732*, pos_y=-0.187*, direction=179.7°*)
  9: 0x071C [0xBA] SET_ENTITY_POSITION(entity_id=Kaa Toru the Just (ID: 17183572/0x01063354), pos_x=-144.760*, pos_z=100.154*, pos_y=0.295*, direction=355.4°*)
 10: 0x0729 [0xBA] SET_ENTITY_POSITION(entity_id=LocalPlayer, pos_x=-137.230*, pos_z=100.183*, pos_y=0.249*, direction=357.5°*)
 11: 0x0736 [0x80] LOAD_WAIT(entity=Writhing Flame (ID: 17183564/0x0106334C))
 12: 0x073B [0x80] LOAD_WAIT(entity=Kaa Toru the Just (ID: 17183572/0x01063354))
 13: 0x0740 [0x80] LOAD_WAIT(entity=LocalPlayer)
 14: 0x0745 [0xA4] EventEntity->Flags3.unknown_3_2 = 1
 15: 0x0747 [0x4A] Kaa Toru the Just (ID: 17183572/0x01063354) looks at LocalPlayer
 16: 0x0750 [0x4A] LocalPlayer looks at Kaa Toru the Just (ID: 17183572/0x01063354)
 17: 0x0759 [0x1C] WAIT(30* ticks)
 18: 0x075C [0x45] LOAD_SCHEDULED_TASK: Load scheduler "a016" with entities [EventEntity, EventEntity], work=[307*, 0*]
 19: 0x076D [0x1C] WAIT(15* ticks)
 20: 0x0770 [0x27] REQ_SET(priority=0x10, entity_id=Kaa Toru the Just (ID: 17183572/0x01063354), tag_num=0x06)
 21: 0x0777 [0x45] LOAD_SCHEDULED_TASK: Load scheduler "fdi1" with entities [EventEntity, EventEntity], work=[200*, 0*]
 22: 0x0788 [0x55] WAIT_LOAD_SCHEDULER: Wait for scheduler "fdi1" with entities [EventEntity, EventEntity], work=200*
 23: 0x0797 [0x1C] WAIT(60* ticks)
 24: 0x079A [0x2B] Kaa Toru the Just (ID: 17183572/0x01063354) [8172*]:
    → "I see."
 25: 0x07A1 [0x23] WAIT_FOR_DIALOG_INTERACTION
 26: 0x07A2 [0x52] END_LOAD_SCHEDULER: End scheduler "a016" with entities [EventEntity, EventEntity], work=307*
 27: 0x07B1 [0x45] LOAD_SCHEDULED_TASK: Load scheduler "a017" with entities [EventEntity, EventEntity], work=[307*, 0*]
 28: 0x07C2 [0x2B] Kaa Toru the Just (ID: 17183572/0x01063354) [8173*]:
    → "I deem you worthy. You are indeed [he/she] of whom the legends spoke."
 29: 0x07C9 [0x23] WAIT_FOR_DIALOG_INTERACTION
 30: 0x07CA [0x5B] LOAD_EXT_SCHEDULER: Load scheduler "pas0" with entities [Kaa Toru the Just (ID: 17183572/0x01063354), Kaa Toru the Just (ID: 17183572/0x01063354)], work=1522*
 31: 0x07D9 [0x1C] WAIT(120* ticks)
 32: 0x07DC [0xC5] LOAD_SCHEDULED_TASK_ALT3: Load scheduler 0x80003030 for entities [Writhing Flame (ID: 17183564/0x0106334C), Writhing Flame (ID: 17183564/0x0106334C)], work=118*, param=12403
 33: 0x07ED [0x45] LOAD_SCHEDULED_TASK: Load scheduler "yag0" with entities [EventEntity, EventEntity], work=[399*, 0*]
 34: 0x07FE [0x2B] Kaa Toru the Just (ID: 17183572/0x01063354) [8174*]:
    → "Take it. It is yours."
 35: 0x0805 [0x23] WAIT_FOR_DIALOG_INTERACTION
 36: 0x0806 [0x53] WAIT_SCHEDULER_TASK: Wait for scheduler "pas0" with entities [Kaa Toru the Just (ID: 17183572/0x01063354), Kaa Toru the Just (ID: 17183572/0x01063354)]
 37: 0x0813 [0x5B] LOAD_EXT_SCHEDULER: Load scheduler "pas1" with entities [Kaa Toru the Just (ID: 17183572/0x01063354), Kaa Toru the Just (ID: 17183572/0x01063354)], work=1522*
 38: 0x0822 [0xC5] LOAD_SCHEDULED_TASK_ALT3: Load scheduler 0x80003130 for entities [Writhing Flame (ID: 17183564/0x0106334C), Writhing Flame (ID: 17183564/0x0106334C)], work=118*, param=12403
 39: 0x0833 [0x45] LOAD_SCHEDULED_TASK: Load scheduler "yag1" with entities [EventEntity, EventEntity], work=[399*, 0*]
 40: 0x0844 [0x1C] WAIT(60* ticks)
 41: 0x0847 [0x52] END_LOAD_SCHEDULER: End scheduler "a017" with entities [EventEntity, EventEntity], work=307*
 42: 0x0856 [0x45] LOAD_SCHEDULED_TASK: Load scheduler "a018" with entities [EventEntity, EventEntity], work=[307*, 0*]
 43: 0x0867 [0x2B] Kaa Toru the Just (ID: 17183572/0x01063354) [8175*]:
    → "Do not fool yourself into thinking that anything has changed. You and your kind remain our bitter enemy. So were you yesterday, and so shall you be tomorrow."
 44: 0x086E [0x23] WAIT_FOR_DIALOG_INTERACTION
 45: 0x086F [0x2B] Kaa Toru the Just (ID: 17183572/0x01063354) [8176*]:
    → "I performed my duty. That is all."
 46: 0x0876 [0x23] WAIT_FOR_DIALOG_INTERACTION
 47: 0x0877 [0x52] END_LOAD_SCHEDULER: End scheduler "a018" with entities [EventEntity, EventEntity], work=307*
 48: 0x0886 [0x45] LOAD_SCHEDULED_TASK: Load scheduler "a019" with entities [EventEntity, EventEntity], work=[307*, 0*]
 49: 0x0897 [0x1C] WAIT(30* ticks)
 50: 0x089A [0x2B] Kaa Toru the Just (ID: 17183572/0x01063354) [8177*]:
    → "Now begone from our holy ground at once. You will find no more favors here. Kyah-kyah!"
 51: 0x08A1 [0x23] WAIT_FOR_DIALOG_INTERACTION
 52: 0x08A2 [0x27] REQ_SET(priority=0x10, entity_id=Kaa Toru the Just (ID: 17183572/0x01063354), tag_num=0x07)
 53: 0x08A9 [0x1C] WAIT(120* ticks)
 54: 0x08AC [0x45] LOAD_SCHEDULED_TASK: Load scheduler "fdo1" with entities [EventEntity, EventEntity], work=[200*, 0*]
 55: 0x08BD [0x55] WAIT_LOAD_SCHEDULER: Wait for scheduler "fdo1" with entities [EventEntity, EventEntity], work=200*
 56: 0x08CC [0x52] END_LOAD_SCHEDULER: End scheduler "a019" with entities [EventEntity, EventEntity], work=307*
 57: 0x08DB [0x9A] WAIT_MUSIC_SERVER()
 58: 0x08DC [0x46] CAMERA_CONTROL: Restore default settings
 59: 0x08DE [0x45] LOAD_SCHEDULED_TASK: Load scheduler "fdi2" with entities [LocalPlayer, LocalPlayer], work=[200*, 0*]
 60: 0x08EF [0x21] END_EVENT
 61: 0x08F0 [0x00] END_REQSTACK()
```

### Event 102

#### Metadata

| Field        | Value     |
|--------------|-----------|
| Entrypoint   | 0x08F1    |
| Data Size    | 326 bytes |
| Instructions | 37        |

```
      00 01 02 03 04 05 06 07  08 09 0A 0B 0C 0D 0E 0F
      -- -- -- -- -- -- -- --  -- -- -- -- -- -- -- --
08F0:    42 45 18 80 F8 FF FF  7F F8 FF FF 7F 66 64 6F   BE..........fdo
0900: 31 00 80 55 18 80 F8 FF  FF 7F F8 FF FF 7F 66 64  1..U..........fd
0910: 6F 31 46 01 38 19 80 2F  00 54 33 06 01 4E 00 54  o1F.8../.T3..N.T
0920: 33 06 01 BA 54 33 06 01  1A 80 1B 80 1C 80 1D 80  3...T3..........
0930: BA F0 FF FF 7F 22 80 23  80 24 80 25 80 80 54 33  .....".#.$.%..T3
0940: 06 01 80 F0 FF FF 7F 4A  54 33 06 01 F0 FF FF 7F  .......JT3......
0950: 4A F0 FF FF 7F 54 33 06  01 1C 29 80 45 26 80 F8  J....T3...).E&..
0960: FF FF 7F F8 FF FF 7F 61  30 31 36 00 80 1C 27 80  .......a016...'.
0970: 27 10 54 33 06 01 06 45  18 80 F8 FF FF 7F F8 FF  '.T3...E........
0980: FF 7F 66 64 69 31 00 80  55 18 80 F8 FF FF 7F F8  ..fdi1..U.......
0990: FF FF 7F 66 64 69 31 2A  10 54 33 06 01 5B 2D 80  ...fdi1*.T3..[-.
09A0: 54 33 06 01 54 33 06 01  74 6C 6B 30 2B 54 33 06  T3..T3..tlk0+T3.
09B0: 01 4F 80 23 5B 2D 80 54  33 06 01 54 33 06 01 74  .O.#[-.T3..T3..t
09C0: 6C 6B 31 2B 54 33 06 01  50 80 23 52 26 80 F8 FF  lk1+T3..P.#R&...
09D0: FF 7F F8 FF FF 7F 61 30  31 36 45 26 80 F8 FF FF  ......a016E&....
09E0: 7F F8 FF FF 7F 61 30 32  30 00 80 2B 54 33 06 01  .....a020..+T3..
09F0: 51 80 23 45 18 80 F8 FF  FF 7F F8 FF FF 7F 66 64  Q.#E..........fd
0A00: 6F 31 00 80 55 18 80 F8  FF FF 7F F8 FF FF 7F 66  o1..U..........f
0A10: 64 6F 31 52 26 80 F8 FF  FF 7F F8 FF FF 7F 61 30  do1R&.........a0
0A20: 32 30 46 00 45 18 80 F0  FF FF 7F F0 FF FF 7F 66  20F.E..........f
0A30: 64 69 32 00 80 21 00                              di2..!.         
```

#### Opcodes

```
  0: 0x08F1 [0x42] SET_CLI_EVENT_CANCEL_DATA()
  1: 0x08F2 [0x45] LOAD_SCHEDULED_TASK: Load scheduler "fdo1" with entities [EventEntity, EventEntity], work=[200*, 0*]
  2: 0x0903 [0x55] WAIT_LOAD_SCHEDULER: Wait for scheduler "fdo1" with entities [EventEntity, EventEntity], work=200*
  3: 0x0912 [0x46] CAMERA_CONTROL: Disable user control
  4: 0x0914 [0x38] SET_CLIENT_EVENT_MODE(mode=19*)
  5: 0x0917 [0x2F] Kaa Toru the Just (ID: 17183572/0x01063354)->Render.Flags0 &= ~0x80000 // Bit 19
  6: 0x091D [0x4E] SET_ENTITY_HIDE_FLAG: Show Kaa Toru the Just (ID: 17183572/0x01063354)
  7: 0x0923 [0xBA] SET_ENTITY_POSITION(entity_id=Kaa Toru the Just (ID: 17183572/0x01063354), pos_x=-144.760*, pos_z=100.154*, pos_y=0.295*, direction=355.4°*)
  8: 0x0930 [0xBA] SET_ENTITY_POSITION(entity_id=LocalPlayer, pos_x=-137.230*, pos_z=100.183*, pos_y=0.249*, direction=357.5°*)
  9: 0x093D [0x80] LOAD_WAIT(entity=Kaa Toru the Just (ID: 17183572/0x01063354))
 10: 0x0942 [0x80] LOAD_WAIT(entity=LocalPlayer)
 11: 0x0947 [0x4A] Kaa Toru the Just (ID: 17183572/0x01063354) looks at LocalPlayer
 12: 0x0950 [0x4A] LocalPlayer looks at Kaa Toru the Just (ID: 17183572/0x01063354)
 13: 0x0959 [0x1C] WAIT(30* ticks)
 14: 0x095C [0x45] LOAD_SCHEDULED_TASK: Load scheduler "a016" with entities [EventEntity, EventEntity], work=[307*, 0*]
 15: 0x096D [0x1C] WAIT(15* ticks)
 16: 0x0970 [0x27] REQ_SET(priority=0x10, entity_id=Kaa Toru the Just (ID: 17183572/0x01063354), tag_num=0x06)
 17: 0x0977 [0x45] LOAD_SCHEDULED_TASK: Load scheduler "fdi1" with entities [EventEntity, EventEntity], work=[200*, 0*]
 18: 0x0988 [0x55] WAIT_LOAD_SCHEDULER: Wait for scheduler "fdi1" with entities [EventEntity, EventEntity], work=200*
 19: 0x0997 [0x2A] GET_REQ_LEVEL(level=16, entity_id=Kaa Toru the Just (ID: 17183572/0x01063354))
 20: 0x099D [0x5B] LOAD_EXT_SCHEDULER: Load scheduler "tlk0" with entities [Kaa Toru the Just (ID: 17183572/0x01063354), Kaa Toru the Just (ID: 17183572/0x01063354)], work=254*
 21: 0x09AC [0x2B] Kaa Toru the Just (ID: 17183572/0x01063354) [8169*]:
    → "I give fair hearing to all who come before me, even a smoothskin such as you."
 22: 0x09B3 [0x23] WAIT_FOR_DIALOG_INTERACTION
 23: 0x09B4 [0x5B] LOAD_EXT_SCHEDULER: Load scheduler "tlk1" with entities [Kaa Toru the Just (ID: 17183572/0x01063354), Kaa Toru the Just (ID: 17183572/0x01063354)], work=254*
 24: 0x09C3 [0x2B] Kaa Toru the Just (ID: 17183572/0x01063354) [8170*]:
    → "Bring proof that you are truly the promised one, and your cause shall be heard."
 25: 0x09CA [0x23] WAIT_FOR_DIALOG_INTERACTION
 26: 0x09CB [0x52] END_LOAD_SCHEDULER: End scheduler "a016" with entities [EventEntity, EventEntity], work=307*
 27: 0x09DA [0x45] LOAD_SCHEDULED_TASK: Load scheduler "a020" with entities [EventEntity, EventEntity], work=[307*, 0*]
 28: 0x09EB [0x2B] Kaa Toru the Just (ID: 17183572/0x01063354) [8171*]:
    → "But be forewarned. If your heart is deemed deceitful, my brethren will pick the flesh from your bones. Kyah!"
 29: 0x09F2 [0x23] WAIT_FOR_DIALOG_INTERACTION
 30: 0x09F3 [0x45] LOAD_SCHEDULED_TASK: Load scheduler "fdo1" with entities [EventEntity, EventEntity], work=[200*, 0*]
 31: 0x0A04 [0x55] WAIT_LOAD_SCHEDULER: Wait for scheduler "fdo1" with entities [EventEntity, EventEntity], work=200*
 32: 0x0A13 [0x52] END_LOAD_SCHEDULER: End scheduler "a020" with entities [EventEntity, EventEntity], work=307*
 33: 0x0A22 [0x46] CAMERA_CONTROL: Restore default settings
 34: 0x0A24 [0x45] LOAD_SCHEDULED_TASK: Load scheduler "fdi2" with entities [LocalPlayer, LocalPlayer], work=[200*, 0*]
 35: 0x0A35 [0x21] END_EVENT
 36: 0x0A36 [0x00] END_REQSTACK()
```
