# 17183591

## Common Data

| Field            | Value                       |
|------------------|-----------------------------|
| Zone             | Castle Oztroja [S] (ID: 99) |
| Block Size       | 17552 bytes                 |
| Total Events     | 6                           |
| References Count | 511                         |

## List of Events

| Event ID              | Entrypoint   |   Size |   Instructions |
|-----------------------|--------------|--------|----------------|
| [65535](#event-65535) | 0x0000       |    172 |             38 |
| [104](#event-104)     | 0x00AC       |   2051 |            273 |
| [105](#event-105)     | 0x08AF       |    858 |            110 |
| [106](#event-106)     | 0x0C09       |   1044 |            132 |
| [107](#event-107)     | 0x101D       |   4697 |            578 |
| [108](#event-108)     | 0x2276       |   6643 |            693 |

## DAT References (imed_data)

|   Index | Hex Value   |   Dec Value |
|---------|-------------|-------------|
|       0 | 0x0001      |           1 |
|       1 | 0x0008      |           8 |
|       2 | 0x0013      |          19 |
|       3 | 0x0005      |           5 |
|       4 | 0xFFFC6D10  |  4294733072 |
|       5 | 0xFFFFAD7C  |  4294946172 |
|       6 | 0x00FA      |         250 |
|       7 | 0x0000      |           0 |
|       8 | 0xFFFC7FBB  |  4294737851 |
|       9 | 0xFFFFB00B  |  4294946827 |
|      10 | 0x0128      |         296 |
|      11 | 0xFFFC6282  |  4294730370 |
|      12 | 0xFFFFAD77  |  4294946167 |
|      13 | 0x0163      |         355 |
|      14 | 0xFFFC5CA2  |  4294728866 |
|      15 | 0xFFFFB1CC  |  4294947276 |
|      16 | 0x0136      |         310 |
|      17 | 0xFFFC51EA  |  4294726122 |
|      18 | 0xFFFFB664  |  4294948452 |
|      19 | 0xFFFC4A0F  |  4294724111 |
|      20 | 0xFFFFB1D1  |  4294947281 |
|      21 | 0xFFFD04FB  |  4294771963 |
|      22 | 0xFFFFC7AA  |  4294952874 |
|      23 | 0x00F9      |         249 |
|      24 | 0x089B      |        2203 |
|      25 | 0x0B97      |        2967 |
|      26 | 0x021A      |         538 |
|      27 | 0x001E      |          30 |
|      28 | 0x0C4A      |        3146 |
|      29 | 0x003C      |          60 |
|      30 | 0x200A      |        8202 |
|      31 | 0x200B      |        8203 |
|      32 | 0x05A3      |        1443 |
|      33 | 0x082C      |        2092 |
|      34 | 0x200C      |        8204 |
|      35 | 0x0007      |           7 |
|      36 | 0x005A      |          90 |
|      37 | 0x000F      |          15 |
|      38 | 0xFFFCABC7  |  4294749127 |
|      39 | 0xFFFFAD9A  |  4294946202 |
|      40 | 0x006E      |         110 |
|      41 | 0xFFFCBCAD  |  4294753453 |
|      42 | 0xFFFFAD66  |  4294946150 |
|      43 | 0xFFFCB3C4  |  4294751172 |
|      44 | 0xFFFFB0B2  |  4294946994 |
|      45 | 0xFFFCBCD6  |  4294753494 |
|      46 | 0xFFFFB561  |  4294948193 |
|      47 | 0x006D      |         109 |
|      48 | 0xFFFCA718  |  4294747928 |
|      49 | 0xFFFFB331  |  4294947633 |
|      50 | 0x012C      |         300 |
|      51 | 0x0074      |         116 |
|      52 | 0xFFFCA0CA  |  4294746314 |
|      53 | 0xFFFFAF64  |  4294946660 |
|      54 | 0x00EA      |         234 |
|      55 | 0x04B3      |        1203 |
|      56 | 0x0037      |          55 |
|      57 | 0x00C8      |         200 |
|      58 | 0x070F      |        1807 |
|      59 | 0x0975      |        2421 |
|      60 | 0x0028      |          40 |
|      61 | 0x0003      |           3 |
|      62 | 0x0002      |           2 |
|      63 | 0x200D      |        8205 |
|      64 | 0x200E      |        8206 |
|      65 | 0x0A88      |        2696 |
|      66 | 0x200F      |        8207 |
|      67 | 0x2010      |        8208 |
|      68 | 0x2011      |        8209 |
|      69 | 0x003B      |          59 |
|      70 | 0xFFFD0B24  |  4294773540 |
|      71 | 0xFFFFC6F6  |  4294952694 |
|      72 | 0x00E6      |         230 |
|      73 | 0x04B7      |        1207 |
|      74 | 0xFFFD0D07  |  4294774023 |
|      75 | 0xFFFFC416  |  4294951958 |
|      76 | 0x0B43      |        2883 |
|      77 | 0xFFFD0BE9  |  4294773737 |
|      78 | 0xFFFFC9E6  |  4294953446 |
|      79 | 0x0476      |        1142 |
|      80 | 0x0908      |        2312 |
|      81 | 0x2012      |        8210 |
|      82 | 0xFFFD06B3  |  4294772403 |
|      83 | 0xFFFFBE17  |  4294950423 |
|      84 | 0x0DD9      |        3545 |
|      85 | 0x0A07      |        2567 |
|      86 | 0x2013      |        8211 |
|      87 | 0x0907      |        2311 |
|      88 | 0x0B96      |        2966 |
|      89 | 0x2014      |        8212 |
|      90 | 0x2015      |        8213 |
|      91 | 0x0024      |          36 |
|      92 | 0xA843      |       43075 |
|      93 | 0xFFFE9106  |  4294873350 |
|      94 | 0xFFFFC183  |  4294951299 |
|      95 | 0x0D8A      |        3466 |
|      96 | 0xA9AC      |       43436 |
|      97 | 0xFFFE873D  |  4294870845 |
|      98 | 0xFFFFC15B  |  4294951259 |
|      99 | 0x0D8B      |        3467 |
|     100 | 0xA660      |       42592 |
|     101 | 0xFFFE8667  |  4294870631 |
|     102 | 0xFFFFC14A  |  4294951242 |
|     103 | 0xAD93      |       44435 |
|     104 | 0xFFFE8F13  |  4294872851 |
|     105 | 0x0CA5      |        3237 |
|     106 | 0xAD7E      |       44414 |
|     107 | 0xFFFE8A8D  |  4294871693 |
|     108 | 0xFFFFC180  |  4294951296 |
|     109 | 0x0C09      |        3081 |
|     110 | 0xA916      |       43286 |
|     111 | 0xFFFE8CA4  |  4294872228 |
|     112 | 0x0D01      |        3329 |
|     113 | 0xA386      |       41862 |
|     114 | 0xFFFE94AA  |  4294874282 |
|     115 | 0xFFFFC182  |  4294951298 |
|     116 | 0x0A94      |        2708 |
|     117 | 0x0571      |        1393 |
|     118 | 0x099B      |        2459 |
|     119 | 0x2016      |        8214 |
|     120 | 0xADFA      |       44538 |
|     121 | 0xFFFE963B  |  4294874683 |
|     122 | 0xFFFFC186  |  4294951302 |
|     123 | 0x00FC      |         252 |
|     124 | 0xB35C      |       45916 |
|     125 | 0xFFFE98A0  |  4294875296 |
|     126 | 0xFFFFC185  |  4294951301 |
|     127 | 0x03B2      |         946 |
|     128 | 0x2017      |        8215 |
|     129 | 0x052F      |        1327 |
|     130 | 0x2018      |        8216 |
|     131 | 0x2019      |        8217 |
|     132 | 0x201A      |        8218 |
|     133 | 0xA5D4      |       42452 |
|     134 | 0xFFFE97EB  |  4294875115 |
|     135 | 0xB043      |       45123 |
|     136 | 0xFFFE9459  |  4294874201 |
|     137 | 0xFFFFC184  |  4294951300 |
|     138 | 0x0BE9      |        3049 |
|     139 | 0xA31F      |       41759 |
|     140 | 0xFFFE93D8  |  4294874072 |
|     141 | 0xA5F2      |       42482 |
|     142 | 0xFFFE8601  |  4294870529 |
|     143 | 0xFFFFC142  |  4294951234 |
|     144 | 0xA30B      |       41739 |
|     145 | 0xFFFE8AD6  |  4294871766 |
|     146 | 0x0FF3      |        4083 |
|     147 | 0xB4FF      |       46335 |
|     148 | 0xFFFE93D6  |  4294874070 |
|     149 | 0xFFFFC181  |  4294951297 |
|     150 | 0x0A3F      |        2623 |
|     151 | 0xAF84      |       44932 |
|     152 | 0xFFFE981E  |  4294875166 |
|     153 | 0x01C9      |         457 |
|     154 | 0xB2E7      |       45799 |
|     155 | 0xFFFE95B0  |  4294874544 |
|     156 | 0x0B2E      |        2862 |
|     157 | 0xB106      |       45318 |
|     158 | 0xFFFE967E  |  4294874750 |
|     159 | 0x0D18      |        3352 |
|     160 | 0x05A6      |        1446 |
|     161 | 0x0171      |         369 |
|     162 | 0x0A91      |        2705 |
|     163 | 0x0C4E      |        3150 |
|     164 | 0x0504      |        1284 |
|     165 | 0x201B      |        8219 |
|     166 | 0x201C      |        8220 |
|     167 | 0x201D      |        8221 |
|     168 | 0x0195      |         405 |
|     169 | 0x201E      |        8222 |
|     170 | 0x0824      |        2084 |
|     171 | 0x201F      |        8223 |
|     172 | 0x0006      |           6 |
|     173 | 0x0078      |         120 |
|     174 | 0xA7E7      |       42983 |
|     175 | 0xFFFE8782  |  4294870914 |
|     176 | 0xFFFFC161  |  4294951265 |
|     177 | 0x0D6D      |        3437 |
|     178 | 0xA373      |       41843 |
|     179 | 0xFFFE89A5  |  4294871461 |
|     180 | 0x0E8E      |        3726 |
|     181 | 0xB54B      |       46411 |
|     182 | 0xFFFE995E  |  4294875486 |
|     183 | 0x07A8      |        1960 |
|     184 | 0x0E4E      |        3662 |
|     185 | 0xB1CF      |       45519 |
|     186 | 0xFFFE9731  |  4294874929 |
|     187 | 0x0B83      |        2947 |
|     188 | 0xA9D8      |       43480 |
|     189 | 0xFFFE932E  |  4294873902 |
|     190 | 0x09E2      |        2530 |
|     191 | 0x0064      |         100 |
|     192 | 0x2020      |        8224 |
|     193 | 0x2021      |        8225 |
|     194 | 0x002D      |          45 |
|     195 | 0x05A2      |        1442 |
|     196 | 0x0996      |        2454 |
|     197 | 0x2022      |        8226 |
|     198 | 0x00CE      |         206 |
|     199 | 0xACFA      |       44282 |
|     200 | 0xFFFE9748  |  4294874952 |
|     201 | 0xFFFFC187  |  4294951303 |
|     202 | 0x0316      |         790 |
|     203 | 0xAEC0      |       44736 |
|     204 | 0xFFFE9666  |  4294874726 |
|     205 | 0x0698      |        1688 |
|     206 | 0x000A      |          10 |
|     207 | 0x2023      |        8227 |
|     208 | 0x0530      |        1328 |
|     209 | 0x2024      |        8228 |
|     210 | 0x0080      |         128 |
|     211 | 0x0032      |          50 |
|     212 | 0x1044      |        4164 |
|     213 | 0x1045      |        4165 |
|     214 | 0x2025      |        8229 |
|     215 | 0x2026      |        8230 |
|     216 | 0xBAEA      |       47850 |
|     217 | 0xFFFE8F70  |  4294872944 |
|     218 | 0x0A6A      |        2666 |
|     219 | 0xA358      |       41816 |
|     220 | 0xFFFE90DF  |  4294873311 |
|     221 | 0x0F86      |        3974 |
|     222 | 0x0550      |        1360 |
|     223 | 0xB1A9      |       45481 |
|     224 | 0xFFFE9420  |  4294874144 |
|     225 | 0x060F      |        1551 |
|     226 | 0xB807      |       47111 |
|     227 | 0xFFFE9916  |  4294875414 |
|     228 | 0x0796      |        1942 |
|     229 | 0xB994      |       47508 |
|     230 | 0xFFFE9329  |  4294873897 |
|     231 | 0x0708      |        1800 |
|     232 | 0xB73E      |       46910 |
|     233 | 0xFFFE96B8  |  4294874808 |
|     234 | 0x0154      |         340 |
|     235 | 0xAF59      |       44889 |
|     236 | 0xFFFE8C6A  |  4294872170 |
|     237 | 0x0CF5      |        3317 |
|     238 | 0xAB00      |       43776 |
|     239 | 0xFFFE8CE7  |  4294872295 |
|     240 | 0x0DE2      |        3554 |
|     241 | 0xB42B      |       46123 |
|     242 | 0xFFFE8DAE  |  4294872494 |
|     243 | 0x0B82      |        2946 |
|     244 | 0xA856      |       43094 |
|     245 | 0xFFFE9385  |  4294873989 |
|     246 | 0x0F97      |        3991 |
|     247 | 0x0053      |          83 |
|     248 | 0x0014      |          20 |
|     249 | 0x2029      |        8233 |
|     250 | 0xFFFFFF38  |  4294967096 |
|     251 | 0x202A      |        8234 |
|     252 | 0x202B      |        8235 |
|     253 | 0x202C      |        8236 |
|     254 | 0x202D      |        8237 |
|     255 | 0x202E      |        8238 |
|     256 | 0xA93D      |       43325 |
|     257 | 0xFFFE9337  |  4294873911 |
|     258 | 0x0155      |         341 |
|     259 | 0x202F      |        8239 |
|     260 | 0x0015      |          21 |
|     261 | 0x004B      |          75 |
|     262 | 0xA8A9      |       43177 |
|     263 | 0xFFFE88CF  |  4294871247 |
|     264 | 0xFFFFC17C  |  4294951292 |
|     265 | 0x0160      |         352 |
|     266 | 0xAE21      |       44577 |
|     267 | 0xFFFE8A74  |  4294871668 |
|     268 | 0x05E3      |        1507 |
|     269 | 0xAD45      |       44357 |
|     270 | 0xFFFE7E71  |  4294868593 |
|     271 | 0xFFFFC09F  |  4294951071 |
|     272 | 0x0406      |        1030 |
|     273 | 0xB9D9      |       47577 |
|     274 | 0xFFFE95A2  |  4294874530 |
|     275 | 0x092C      |        2348 |
|     276 | 0x0A97      |        2711 |
|     277 | 0x007F      |         127 |
|     278 | 0x0050      |          80 |
|     279 | 0x01F4      |         500 |
|     280 | 0xA669      |       42601 |
|     281 | 0xFFFE7D70  |  4294868336 |
|     282 | 0x2030      |        8240 |
|     283 | 0x2031      |        8241 |
|     284 | 0x2032      |        8242 |
|     285 | 0x2033      |        8243 |
|     286 | 0xAA79      |       43641 |
|     287 | 0xFFFE8C0B  |  4294872075 |
|     288 | 0x035E      |         862 |
|     289 | 0x2034      |        8244 |
|     290 | 0xAFDE      |       45022 |
|     291 | 0xFFFE8721  |  4294870817 |
|     292 | 0xFFFFC159  |  4294951257 |
|     293 | 0x2035      |        8245 |
|     294 | 0x2036      |        8246 |
|     295 | 0x2037      |        8247 |
|     296 | 0x2038      |        8248 |
|     297 | 0x2039      |        8249 |
|     298 | 0x203A      |        8250 |
|     299 | 0x203B      |        8251 |
|     300 | 0x203C      |        8252 |
|     301 | 0xAA57      |       43607 |
|     302 | 0xFFFE8915  |  4294871317 |
|     303 | 0xFFFFC17F  |  4294951295 |
|     304 | 0x0D5C      |        3420 |
|     305 | 0x203D      |        8253 |
|     306 | 0x0096      |         150 |
|     307 | 0x203E      |        8254 |
|     308 | 0x203F      |        8255 |
|     309 | 0x2040      |        8256 |
|     310 | 0x2041      |        8257 |
|     311 | 0x2042      |        8258 |
|     312 | 0x2043      |        8259 |
|     313 | 0xB283      |       45699 |
|     314 | 0xFFFE8514  |  4294870292 |
|     315 | 0xFFFFC12F  |  4294951215 |
|     316 | 0xA805      |       43013 |
|     317 | 0xFFFE7D48  |  4294868296 |
|     318 | 0xFFFFC09A  |  4294951066 |
|     319 | 0x0527      |        1319 |
|     320 | 0x0041      |          65 |
|     321 | 0x0019      |          25 |
|     322 | 0x2044      |        8260 |
|     323 | 0x0180      |         384 |
|     324 | 0xFFFE794B  |  4294867275 |
|     325 | 0xA02C      |       41004 |
|     326 | 0xFFFF1697  |  4294907543 |
|     327 | 0x0C2A      |        3114 |
|     328 | 0xFFFE7E52  |  4294868562 |
|     329 | 0xA05D      |       41053 |
|     330 | 0xFFFF167F  |  4294907519 |
|     331 | 0x0C2B      |        3115 |
|     332 | 0xFFFE750F  |  4294866191 |
|     333 | 0xA32A      |       41770 |
|     334 | 0xFFFF1535  |  4294907189 |
|     335 | 0xFFFEAC78  |  4294880376 |
|     336 | 0xE36B      |       58219 |
|     337 | 0xFFFF0B40  |  4294904640 |
|     338 | 0x01E8      |         488 |
|     339 | 0xFFFE79B0  |  4294867376 |
|     340 | 0xE312      |       58130 |
|     341 | 0xFFFF0954  |  4294904148 |
|     342 | 0x0A48      |        2632 |
|     343 | 0xFFFE7EAB  |  4294868651 |
|     344 | 0xEAC9      |       60105 |
|     345 | 0xFFFF0941  |  4294904129 |
|     346 | 0x0780      |        1920 |
|     347 | 0xFFFE6721  |  4294862625 |
|     348 | 0xE671      |       58993 |
|     349 | 0xFFFF09C0  |  4294904256 |
|     350 | 0x0782      |        1922 |
|     351 | 0xFFFE9150  |  4294873424 |
|     352 | 0xDC3A      |       56378 |
|     353 | 0xFFFF0998  |  4294904216 |
|     354 | 0x0176      |         374 |
|     355 | 0xFFFED67A  |  4294891130 |
|     356 | 0xEF0D      |       61197 |
|     357 | 0xFFFF0E5D  |  4294905437 |
|     358 | 0x0BB1      |        2993 |
|     359 | 0xFFFE7960  |  4294867296 |
|     360 | 0x14C08     |       85000 |
|     361 | 0xFFFEEE90  |  4294897296 |
|     362 | 0x03FC      |        1020 |
|     363 | 0xFFFE13D0  |  4294841296 |
|     364 | 0x10022     |       65570 |
|     365 | 0xFFFCF2C0  |  4294767296 |
|     366 | 0x0BB8      |        3000 |
|     367 | 0xFFFEC8F6  |  4294887670 |
|     368 | 0x130D7     |       78039 |
|     369 | 0xFFFF2541  |  4294911297 |
|     370 | 0xFFFECC50  |  4294888528 |
|     371 | 0xD1D7      |       53719 |
|     372 | 0xFFFF2540  |  4294911296 |
|     373 | 0x03D5      |         981 |
|     374 | 0x04FA      |        1274 |
|     375 | 0x0BDF      |        3039 |
|     376 | 0x04F0      |        1264 |
|     377 | 0x0821      |        2081 |
|     378 | 0x021B      |         539 |
|     379 | 0x00B4      |         180 |
|     380 | 0x2045      |        8261 |
|     381 | 0x02B2      |         690 |
|     382 | 0xFFFE765D  |  4294866525 |
|     383 | 0xC44A      |       50250 |
|     384 | 0xFFFF0A10  |  4294904336 |
|     385 | 0x0BF9      |        3065 |
|     386 | 0x2046      |        8262 |
|     387 | 0x00F7      |         247 |
|     388 | 0xFFFE7863  |  4294867043 |
|     389 | 0xF52C      |       62764 |
|     390 | 0xFFFF0973  |  4294904179 |
|     391 | 0xFFFE7CC2  |  4294868162 |
|     392 | 0xF8E2      |       63714 |
|     393 | 0xFFFF099D  |  4294904221 |
|     394 | 0x0C41      |        3137 |
|     395 | 0x0B7C      |        2940 |
|     396 | 0x2047      |        8263 |
|     397 | 0x2048      |        8264 |
|     398 | 0x2049      |        8265 |
|     399 | 0x04F1      |        1265 |
|     400 | 0x094D      |        2381 |
|     401 | 0xFFFE64AC  |  4294861996 |
|     402 | 0x11C60     |       72800 |
|     403 | 0xFFFED84C  |  4294891596 |
|     404 | 0x071C      |        1820 |
|     405 | 0x124F8     |       75000 |
|     406 | 0xFFFEF278  |  4294898296 |
|     407 | 0x0455      |        1109 |
|     408 | 0x0B86      |        2950 |
|     409 | 0x00D8      |         216 |
|     410 | 0x004A      |          74 |
|     411 | 0xFFFEDB08  |  4294892296 |
|     412 | 0xFFFE7E62  |  4294868578 |
|     413 | 0xF7DB      |       63451 |
|     414 | 0xFFFF0994  |  4294904212 |
|     415 | 0x0924      |        2340 |
|     416 | 0x092E      |        2350 |
|     417 | 0x00F0      |         240 |
|     418 | 0x204A      |        8266 |
|     419 | 0x204B      |        8267 |
|     420 | 0x204C      |        8268 |
|     421 | 0x204D      |        8269 |
|     422 | 0x0528      |        1320 |
|     423 | 0x204E      |        8270 |
|     424 | 0x204F      |        8271 |
|     425 | 0xFFFEC94D  |  4294887757 |
|     426 | 0x1367C     |       79484 |
|     427 | 0x0C66      |        3174 |
|     428 | 0x0140      |         320 |
|     429 | 0xFFFE8177  |  4294869367 |
|     430 | 0xFC42      |       64578 |
|     431 | 0xFFFF09C4  |  4294904260 |
|     432 | 0x0D71      |        3441 |
|     433 | 0x00DC      |         220 |
|     434 | 0x00A0      |         160 |
|     435 | 0x2050      |        8272 |
|     436 | 0x0A98      |        2712 |
|     437 | 0xFFFEC51D  |  4294886685 |
|     438 | 0x12D44     |       77124 |
|     439 | 0x02FB      |         763 |
|     440 | 0xFFFEBB44  |  4294884164 |
|     441 | 0x12B66     |       76646 |
|     442 | 0x072E      |        1838 |
|     443 | 0xFFFEC689  |  4294887049 |
|     444 | 0x1347F     |       78975 |
|     445 | 0x2051      |        8273 |
|     446 | 0x2052      |        8274 |
|     447 | 0x0145      |         325 |
|     448 | 0xFFFEDEF1  |  4294893297 |
|     449 | 0x12790     |       75664 |
|     450 | 0xFFFED026  |  4294889510 |
|     451 | 0x137DD     |       79837 |
|     452 | 0xFFFECEEA  |  4294889194 |
|     453 | 0x130BF     |       78015 |
|     454 | 0x0820      |        2080 |
|     455 | 0x00E1      |         225 |
|     456 | 0x2054      |        8276 |
|     457 | 0x2053      |        8275 |
|     458 | 0x0049      |          73 |
|     459 | 0x0334      |         820 |
|     460 | 0xFFFE86C0  |  4294870720 |
|     461 | 0xFFBF      |       65471 |
|     462 | 0xFFFF0995  |  4294904213 |
|     463 | 0x0DB0      |        3504 |
|     464 | 0xFFFE8DFB  |  4294872571 |
|     465 | 0xFF67      |       65383 |
|     466 | 0xFFFF0913  |  4294904083 |
|     467 | 0x0F98      |        3992 |
|     468 | 0xFFFE881C  |  4294871068 |
|     469 | 0x1049F     |       66719 |
|     470 | 0xFFFF0919  |  4294904089 |
|     471 | 0x0EC1      |        3777 |
|     472 | 0x0004      |           4 |
|     473 | 0x0346      |         838 |
|     474 | 0x0082      |         130 |
|     475 | 0x0822      |        2082 |
|     476 | 0x2056      |        8278 |
|     477 | 0x0B88      |        2952 |
|     478 | 0x00D9      |         217 |
|     479 | 0x0C45      |        3141 |
|     480 | 0x0044      |          68 |
|     481 | 0xFFFE8502  |  4294870274 |
|     482 | 0x10DEC     |       69100 |
|     483 | 0xFFFF08F6  |  4294904054 |
|     484 | 0x0E5A      |        3674 |
|     485 | 0x2057      |        8279 |
|     486 | 0x0B7D      |        2941 |
|     487 | 0x000D      |          13 |
|     488 | 0xFFFEE6C0  |  4294895296 |
|     489 | 0x2058      |        8280 |
|     490 | 0xFFFE875E  |  4294870878 |
|     491 | 0xFFDA      |       65498 |
|     492 | 0xFFFF0986  |  4294904198 |
|     493 | 0x0E26      |        3622 |
|     494 | 0xFFFE8621  |  4294870561 |
|     495 | 0x10809     |       67593 |
|     496 | 0xFFFF091A  |  4294904090 |
|     497 | 0xFFFE8173  |  4294869363 |
|     498 | 0x10043     |       65603 |
|     499 | 0xFFFF09E5  |  4294904293 |
|     500 | 0x0C46      |        3142 |
|     501 | 0x2059      |        8281 |
|     502 | 0x0AC2      |        2754 |
|     503 | 0x09EF      |        2543 |
|     504 | 0x0B04      |        2820 |
|     505 | 0x205A      |        8282 |
|     506 | 0x04E9      |        1257 |
|     507 | 0x205B      |        8283 |
|     508 | 0x205C      |        8284 |
|     509 | 0x00C9      |         201 |
|     510 | 0x00D7      |         215 |

## Events

### Event 65535

#### Metadata

| Field        | Value     |
|--------------|-----------|
| Entrypoint   | 0x0000    |
| Data Size    | 172 bytes |
| Instructions | 1         |

```
      00 01 02 03 04 05 06 07  08 09 0A 0B 0C 0D 0E 0F
      -- -- -- -- -- -- -- --  -- -- -- -- -- -- -- --
0000: 00 29 10 F0 FF FF 7F 09  03 04 10 02 10 1B 29 10  .)............).
0010: F0 FF FF 7F 08 03 07 10  02 10 1A 01 00 02 04 10  ................
0020: 00 80 00 32 00 02 07 10  01 80 01 32 00 07 07 10  ...2.......2....
0030: 04 10 29 10 F0 FF FF 7F  08 1B 27 10 F0 FF FF 7F  ..).......'.....
0040: 22 1B 79 00 F0 FF FF 7F  70 33 06 01 1B 27 10 F0  ".y.....p3...'..
0050: FF FF 7F 23 1B 27 10 F0  FF FF 7F 24 1B 27 10 F0  ...#.'.....$.'..
0060: FF FF 7F 25 1B 1A 0E 00  02 07 10 01 80 80 7A 00  ...%..........z.
0070: 27 10 F0 FF FF 7F 28 01  81 00 27 10 F0 FF FF 7F  '.....(...'.....
0080: 27 1B 27 10 F0 FF FF 7F  29 1B 27 10 F0 FF FF 7F  '.'.....).'.....
0090: 2A 1B 4A F0 FF FF 7F 51  33 06 01 1B 27 10 F0 FF  *.J....Q3...'...
00A0: FF 7F 2B 1B 27 10 F0 FF  FF 7F 2E 1B              ..+.'.......    
```

#### Opcodes

```
  0: 0x0000 [0x00] END_REQSTACK()
```

#### Data or dead code:

```
# Dead code (unreachable instructions):
     0x0001 [0x29] REQ_SET_WAIT(priority=0x10, entity_id=LocalPlayer, tag_num=0x09)
     0x0008 [0x03] Work_Zone[4] = Work_Zone[2]
     0x000D [0x1B] RETURN
     0x000E [0x29] REQ_SET_WAIT(priority=0x10, entity_id=LocalPlayer, tag_num=0x08)
     0x0015 [0x03] Work_Zone[7] = Work_Zone[2]
     0x001A [0x1A] CALL_SUBROUTINE(address=0x0001)
     0x001D [0x02] IF !(Work_Zone[4] == 1*) GOTO 0x0032
     0x0025 [0x02] IF !(Work_Zone[7] == 8*) GOTO 0x0032
     0x002D [0x07] Work_Zone[7] += Work_Zone[4]
     0x0032 [0x29] REQ_SET_WAIT(priority=0x10, entity_id=LocalPlayer, tag_num=0x08)
     0x0039 [0x1B] RETURN
     0x003A [0x27] REQ_SET(priority=0x10, entity_id=LocalPlayer, tag_num=0x22)
     0x0041 [0x1B] RETURN
     0x0042 [0x79] LocalPlayer looks at Lehko Habhoka (ID: 17183600/0x01063370) (Basic look)
     0x004C [0x1B] RETURN
     0x004D [0x27] REQ_SET(priority=0x10, entity_id=LocalPlayer, tag_num=0x23)
     0x0054 [0x1B] RETURN
     0x0055 [0x27] REQ_SET(priority=0x10, entity_id=LocalPlayer, tag_num=0x24)
     0x005C [0x1B] RETURN
     0x005D [0x27] REQ_SET(priority=0x10, entity_id=LocalPlayer, tag_num=0x25)
     0x0064 [0x1B] RETURN
     0x0065 [0x1A] CALL_SUBROUTINE(address=0x000E)
     0x0068 [0x02] IF !(Work_Zone[7] == 8*) GOTO 0x007A
     0x0070 [0x27] REQ_SET(priority=0x10, entity_id=LocalPlayer, tag_num=0x28)
     0x0077 [0x01] GOTO 0x0081
     0x007A [0x27] REQ_SET(priority=0x10, entity_id=LocalPlayer, tag_num=0x27)
     0x0081 [0x1B] RETURN
     0x0082 [0x27] REQ_SET(priority=0x10, entity_id=LocalPlayer, tag_num=0x29)
     0x0089 [0x1B] RETURN
     0x008A [0x27] REQ_SET(priority=0x10, entity_id=LocalPlayer, tag_num=0x2A)
     0x0091 [0x1B] RETURN
     0x0092 [0x4A] LocalPlayer looks at Romaa Mihgo (ID: 17183569/0x01063351)
     0x009B [0x1B] RETURN
     0x009C [0x27] REQ_SET(priority=0x10, entity_id=LocalPlayer, tag_num=0x2B)
     0x00A3 [0x1B] RETURN
     0x00A4 [0x27] REQ_SET(priority=0x10, entity_id=LocalPlayer, tag_num=0x2E)
     0x00AB [0x1B] RETURN
```

### Event 104

#### Metadata

| Field        | Value      |
|--------------|------------|
| Entrypoint   | 0x00AC     |
| Data Size    | 2051 bytes |
| Instructions | 273        |

```
      00 01 02 03 04 05 06 07  08 09 0A 0B 0C 0D 0E 0F
      -- -- -- -- -- -- -- --  -- -- -- -- -- -- -- --
00A0:                                      42 1A 3B 3A              B.;:
00B0: 46 01 38 02 80 4E 00 F0  FF FF 7F 27 10 51 33 06  F.8..N.....'.Q3.
00C0: 01 18 27 10 70 33 06 01  04 27 10 73 33 06 01 04  ..'.p3...'.s3...
00D0: 27 10 9F 33 06 01 04 27  10 A1 33 06 01 04 27 10  '..3...'..3...'.
00E0: A2 33 06 01 04 2F 00 18  33 06 01 4E 00 18 33 06  .3.../..3..N..3.
00F0: 01 92 01 51 33 06 01 92  01 70 33 06 01 92 01 73  ...Q3....p3....s
0100: 33 06 01 92 01 9F 33 06  01 92 01 A1 33 06 01 92  3.....3.....3...
0110: 01 A2 33 06 01 92 01 18  33 06 01 94 01 F0 FF FF  ..3.....3.......
0120: 7F 94 01 51 33 06 01 94  01 70 33 06 01 94 01 73  ...Q3....p3....s
0130: 33 06 01 94 01 9F 33 06  01 94 01 A1 33 06 01 94  3.....3.....3...
0140: 01 A2 33 06 01 94 01 18  33 06 01 80 F0 FF FF 7F  ..3.....3.......
0150: 80 51 33 06 01 80 70 33  06 01 80 73 33 06 01 80  .Q3...p3...s3...
0160: 9F 33 06 01 80 A1 33 06  01 80 A2 33 06 01 1C 03  .3....3....3....
0170: 80 BA F0 FF FF 7F 04 80  05 80 06 80 07 80 BA 70  ...............p
0180: 33 06 01 08 80 09 80 0A  80 07 80 BA 51 33 06 01  3...........Q3..
0190: 0B 80 0C 80 06 80 0D 80  BA 73 33 06 01 0E 80 0F  .........s3.....
01A0: 80 10 80 07 80 BA A1 33  06 01 11 80 12 80 06 80  .......3........
01B0: 07 80 BA A2 33 06 01 13  80 14 80 06 80 07 80 BA  ....3...........
01C0: 9F 33 06 01 15 80 16 80  17 80 18 80 1C 03 80 2C  .3.............,
01D0: 73 33 06 01 73 33 06 01  77 70 6F 31 2C 73 33 06  s3..s3..wpo1,s3.
01E0: 01 73 33 06 01 77 70 66  32 27 10 18 33 06 01 04  .s3..wpf2'..3...
01F0: 27 10 70 33 06 01 17 1C  03 80 27 10 73 33 06 01  '.p3......'.s3..
0200: 12 1C 03 80 1A 3A 00 1C  03 80 27 10 51 33 06 01  .....:....'.Q3..
0210: 07 27 10 A1 33 06 01 0C  27 10 A2 33 06 01 0C 5B  .'..3...'..3...[
0220: 19 80 9F 33 06 01 9F 33  06 01 68 6F 75 30 45 1A  ...3...3..hou0E.
0230: 80 F0 FF FF 7F F0 FF FF  7F 6B 30 32 30 07 80 1A  .........k020...
0240: 1A 3A 52 1A 80 F0 FF FF  7F F0 FF FF 7F 6B 30 32  .:R..........k02
0250: 30 45 1A 80 F0 FF FF 7F  F0 FF FF 7F 6B 30 31 35  0E..........k015
0260: 07 80 2A 10 70 33 06 01  1C 1B 80 5B 1C 80 70 33  ..*.p3.....[..p3
0270: 06 01 70 33 06 01 73 74  70 30 1C 1B 80 52 1A 80  ..p3..stp0...R..
0280: F0 FF FF 7F F0 FF FF 7F  6B 30 31 35 45 1A 80 F0  ........k015E...
0290: FF FF 7F F0 FF FF 7F 6B  30 31 30 07 80 1C 1D 80  .......k010.....
02A0: 1A 42 00 79 00 73 33 06  01 70 33 06 01 79 00 A1  .B.y.s3..p3..y..
02B0: 33 06 01 70 33 06 01 79  00 A2 33 06 01 70 33 06  3..p3..y..3..p3.
02C0: 01 2B 70 33 06 01 1E 80  23 1C 1B 80 4A 51 33 06  .+p3....#...JQ3.
02D0: 01 70 33 06 01 1A 4D 00  52 1A 80 F0 FF FF 7F F0  .p3...M.R.......
02E0: FF FF 7F 6B 30 31 30 45  1A 80 F0 FF FF 7F F0 FF  ...k010E........
02F0: FF 7F 6B 30 34 30 07 80  6B 69 64 6C 30 70 33 06  ..k040..kidl0p3.
0300: 01 27 10 70 33 06 01 18  1C 1B 80 2B 70 33 06 01  .'.p3......+p3..
0310: 1F 80 23 7B 73 33 06 01  1C 1B 80 5B 20 80 70 33  ..#{s3.....[ .p3
0320: 06 01 70 33 06 01 74 6C  62 31 52 1A 80 F0 FF FF  ..p3..tlb1R.....
0330: 7F F0 FF FF 7F 6B 30 34  30 45 1A 80 F0 FF FF 7F  .....k040E......
0340: F0 FF FF 7F 6B 30 35 30  07 80 5B 21 80 73 33 06  ....k050..[!.s3.
0350: 01 73 33 06 01 74 6C 6B  30 1C 1B 80 2B 73 33 06  .s3..tlk0...+s3.
0360: 01 22 80 23 5B 21 80 73  33 06 01 73 33 06 01 74  .".#[!.s3..s3..t
0370: 6C 6B 31 52 1A 80 F0 FF  FF 7F F0 FF FF 7F 6B 30  lk1R..........k0
0380: 35 30 45 1A 80 F0 FF FF  7F F0 FF FF 7F 6B 30 33  50E..........k03
0390: 30 07 80 79 00 73 33 06  01 51 33 06 01 27 10 51  0..y.s3..Q3..'.Q
03A0: 33 06 01 08 6E F0 FF FF  7F 23 80 99 F0 FF FF 7F  3...n....#......
03B0: 1C 24 80 7B 51 33 06 01  7B 73 33 06 01 7B F0 FF  .$.{Q3..{s3..{..
03C0: FF 7F 27 10 51 33 06 01  09 1C 1B 80 1A 92 00 1C  ..'.Q3..........
03D0: 25 80 27 10 70 33 06 01  19 2A 10 51 33 06 01 1C  %.'.p3...*.Q3...
03E0: 25 80 27 10 51 33 06 01  0A 1C 03 80 27 10 70 33  %.'.Q3......'.p3
03F0: 06 01 1A 1C 03 80 27 10  73 33 06 01 14 1C 03 80  ......'.s3......
0400: 1A 55 00 1C 03 80 52 1A  80 F0 FF FF 7F F0 FF FF  .U....R.........
0410: 7F 6B 30 33 30 45 1A 80  F0 FF FF 7F F0 FF FF 7F  .k030E..........
0420: 6B 31 31 30 07 80 1C 03  80 7A 00 51 33 06 01 7A  k110.....z.Q3..z
0430: 00 70 33 06 01 7A 00 73  33 06 01 7A 00 F0 FF FF  .p3..z.s3..z....
0440: 7F 1C 03 80 7B 73 33 06  01 BA F0 FF FF 7F 26 80  ....{s3.......&.
0450: 27 80 17 80 28 80 BA 51  33 06 01 29 80 2A 80 06  '...(..Q3..).*..
0460: 80 28 80 BA 70 33 06 01  2B 80 2C 80 17 80 28 80  .(..p3..+.,...(.
0470: BA 73 33 06 01 2D 80 2E  80 17 80 2F 80 BA A1 33  .s3..-...../...3
0480: 06 01 30 80 31 80 32 80  33 80 BA A2 33 06 01 34  ..0.1.2.3...3..4
0490: 80 35 80 36 80 28 80 BA  9F 33 06 01 15 80 16 80  .5.6.(...3......
04A0: 17 80 37 80 1C 03 80 27  10 51 33 06 01 0A 1C 03  ..7....'.Q3.....
04B0: 80 27 10 70 33 06 01 1A  1C 03 80 27 10 73 33 06  .'.p3......'.s3.
04C0: 01 14 1C 03 80 1A 55 00  1C 03 80 27 10 A1 33 06  ......U....'..3.
04D0: 01 0D 1C 03 80 27 10 A2  33 06 01 0D 1C 38 80 5B  .....'..3....8.[
04E0: 19 80 9F 33 06 01 9F 33  06 01 68 6F 75 30 1C 03  ...3...3..hou0..
04F0: 80 27 10 18 33 06 01 03  55 1A 80 F0 FF FF 7F F0  .'..3...U.......
0500: FF FF 7F 6B 31 31 30 52  1A 80 F0 FF FF 7F F0 FF  ...k110R........
0510: FF 7F 6B 31 31 30 45 1A  80 F0 FF FF 7F F0 FF FF  ..k110E.........
0520: 7F 6B 31 30 30 07 80 1C  00 80 59 05 9F 33 06 01  .k100.....Y..3..
0530: 01 1C 00 80 BA 9F 33 06  01 15 80 16 80 39 80 3A  ......3......9.:
0540: 80 1C 00 80 5B 3B 80 9F  33 06 01 9F 33 06 01 67  ....[;..3...3..g
0550: 61 6B 31 1C 3C 80 27 10  73 33 06 01 15 1C 3D 80  ak1.<.'.s3....=.
0560: 1A 5D 00 1C 3E 80 27 10  51 33 06 01 0B 1C 03 80  .]..>.'.Q3......
0570: 27 10 70 33 06 01 1B 1C  3E 80 27 10 A1 33 06 01  '.p3....>.'..3..
0580: 0E 1C 3E 80 27 10 A2 33  06 01 0E 79 00 73 33 06  ..>.'..3...y.s3.
0590: 01 9F 33 06 01 79 00 70  33 06 01 9F 33 06 01 79  ..3..y.p3...3..y
05A0: 00 F0 FF FF 7F 9F 33 06  01 79 00 A1 33 06 01 9F  ......3..y..3...
05B0: 33 06 01 79 00 A2 33 06  01 9F 33 06 01 55 1A 80  3..y..3...3..U..
05C0: F0 FF FF 7F F0 FF FF 7F  6B 31 30 30 52 1A 80 F0  ........k100R...
05D0: FF FF 7F F0 FF FF 7F 6B  31 30 30 45 1A 80 F0 FF  .......k100E....
05E0: FF 7F F0 FF FF 7F 6B 31  32 30 07 80 1C 1D 80 5B  ......k120.....[
05F0: 3B 80 9F 33 06 01 9F 33  06 01 67 61 6B 32 2B 9F  ;..3...3..gak2+.
0600: 33 06 01 3F 80 23 2B 51  33 06 01 40 80 23 52 1A  3..?.#+Q3..@.#R.
0610: 80 F0 FF FF 7F F0 FF FF  7F 6B 31 32 30 45 1A 80  .........k120E..
0620: F0 FF FF 7F F0 FF FF 7F  6B 31 33 30 07 80 1C 1B  ........k130....
0630: 80 27 10 A2 33 06 01 0F  1C 25 80 27 10 A1 33 06  .'..3....%.'..3.
0640: 01 0F 1C 25 80 5B 41 80  9F 33 06 01 9F 33 06 01  ...%.[A..3...3..
0650: 70 6F 6E 30 2B 9F 33 06  01 42 80 23 1C 1B 80 52  pon0+.3..B.#...R
0660: 1A 80 F0 FF FF 7F F0 FF  FF 7F 6B 31 33 30 45 1A  ..........k130E.
0670: 80 F0 FF FF 7F F0 FF FF  7F 6B 31 34 30 07 80 1C  .........k140...
0680: 1B 80 2B 9F 33 06 01 43  80 23 5B 41 80 9F 33 06  ..+.3..C.#[A..3.
0690: 01 9F 33 06 01 70 6F 6E  31 1C 1B 80 2B 9F 33 06  ..3..pon1...+.3.
06A0: 01 44 80 23 66 45 80 51  33 06 01 51 33 06 01 73  .D.#fE.Q3..Q3..s
06B0: 68 61 31 1C 1B 80 52 1A  80 F0 FF FF 7F F0 FF FF  ha1...R.........
06C0: 7F 6B 31 34 30 45 1A 80  F0 FF FF 7F F0 FF FF 7F  .k140E..........
06D0: 6B 31 35 30 07 80 1C 00  80 7A 00 A1 33 06 01 7A  k150.....z..3..z
06E0: 00 A2 33 06 01 BA 9F 33  06 01 46 80 47 80 48 80  ..3....3..F.G.H.
06F0: 49 80 1C 00 80 BA A2 33  06 01 4A 80 4B 80 17 80  I......3..J.K...
0700: 4C 80 BA A1 33 06 01 4D  80 4E 80 17 80 4F 80 5B  L...3..M.N...O.[
0710: 50 80 9F 33 06 01 9F 33  06 01 73 68 6F 30 2B 51  P..3...3..sho0+Q
0720: 33 06 01 51 80 23 4A A1  33 06 01 9F 33 06 01 52  3..Q.#J.3...3..R
0730: 1A 80 F0 FF FF 7F F0 FF  FF 7F 6B 31 35 30 45 1A  ..........k150E.
0740: 80 F0 FF FF 7F F0 FF FF  7F 6B 31 36 30 07 80 5B  .........k160..[
0750: 50 80 9F 33 06 01 9F 33  06 01 73 68 6F 31 1C 00  P..3...3..sho1..
0760: 80 BA F0 FF FF 7F 52 80  53 80 06 80 54 80 4A 51  ......R.S...T.JQ
0770: 33 06 01 9F 33 06 01 4A  73 33 06 01 9F 33 06 01  3...3..Js3...3..
0780: 4A 70 33 06 01 9F 33 06  01 4A F0 FF FF 7F 9F 33  Jp3...3..J.....3
0790: 06 01 7B 51 33 06 01 7B  73 33 06 01 7B 70 33 06  ..{Q3..{s3..{p3.
07A0: 01 7B F0 FF FF 7F 03 02  10 55 80 2B 9F 33 06 01  .{.......U.+.3..
07B0: 56 80 23 52 1A 80 F0 FF  FF 7F F0 FF FF 7F 6B 31  V.#R..........k1
07C0: 36 30 45 1A 80 F0 FF FF  7F F0 FF FF 7F 6B 31 35  60E..........k15
07D0: 30 07 80 1C 00 80 BA A1  33 06 01 46 80 47 80 48  0.......3..F.G.H
07E0: 80 49 80 1C 00 80 5B 57  80 9F 33 06 01 9F 33 06  .I....[W..3...3.
07F0: 01 68 65 74 63 5B 58 80  A1 33 06 01 A1 33 06 01  .hetc[X..3...3..
0800: 6B 61 69 6C 66 45 80 A2  33 06 01 A2 33 06 01 73  kailfE..3...3..s
0810: 68 61 30 7B A2 33 06 01  7B A1 33 06 01 27 10 51  ha0{.3..{.3..'.Q
0820: 33 06 01 08 2B 51 33 06  01 59 80 1C 1D 80 23 4A  3...+Q3..Y....#J
0830: 51 33 06 01 70 33 06 01  52 1A 80 F0 FF FF 7F F0  Q3..p3..R.......
0840: FF FF 7F 6B 31 35 30 45  1A 80 F0 FF FF 7F F0 FF  ...k150E........
0850: FF 7F 6B 31 37 30 07 80  6F 76 51 33 06 01 2B 51  ..k170..ovQ3..+Q
0860: 33 06 01 5A 80 1C 1B 80  6E 51 33 06 01 5B 80 99  3..Z....nQ3..[..
0870: 51 33 06 01 1C 1B 80 23  1C 1D 80 1A 3B 3A 1C 1B  Q3.....#....;:..
0880: 80 52 1A 80 F0 FF FF 7F  F0 FF FF 7F 6B 30 31 30  .R..........k010
0890: 1C 1B 80 AB 11 07 80 1C  00 80 46 00 45 39 80 F0  ..........F.E9..
08A0: FF FF 7F F0 FF FF 7F 66  64 69 32 07 80 21 00     .......fdi2..!. 
```

#### Opcodes

```
  0: 0x00AC [0x42] SET_CLI_EVENT_CANCEL_DATA()
  1: 0x00AD [0x1A] CALL_SUBROUTINE(address=0x3A3B)
  2: 0x00B0 [0x46] CAMERA_CONTROL: Disable user control
  3: 0x00B2 [0x38] SET_CLIENT_EVENT_MODE(mode=19*)
  4: 0x00B5 [0x4E] SET_ENTITY_HIDE_FLAG: Show LocalPlayer
  5: 0x00BB [0x27] REQ_SET(priority=0x10, entity_id=Romaa Mihgo (ID: 17183569/0x01063351), tag_num=0x18)
  6: 0x00C2 [0x27] REQ_SET(priority=0x10, entity_id=Lehko Habhoka (ID: 17183600/0x01063370), tag_num=0x04)
  7: 0x00C9 [0x27] REQ_SET(priority=0x10, entity_id=Perih Vashai (ID: 17183603/0x01063373), tag_num=0x04)
  8: 0x00D0 [0x27] REQ_SET(priority=0x10, entity_id=Mahk Rhyonja (ID: 17183647/0x0106339F), tag_num=0x04)
  9: 0x00D7 [0x27] REQ_SET(priority=0x10, entity_id=hei01 (ID: 17183649/0x010633A1), tag_num=0x04)
 10: 0x00DE [0x27] REQ_SET(priority=0x10, entity_id=hei02 (ID: 17183650/0x010633A2), tag_num=0x04)
 11: 0x00E5 [0x2F] Brass Door (ID: 17183512/0x01063318)->Render.Flags0 &= ~0x80000 // Bit 19
 12: 0x00EB [0x4E] SET_ENTITY_HIDE_FLAG: Show Brass Door (ID: 17183512/0x01063318)
 13: 0x00F1 [0x92] Romaa Mihgo (ID: 17183569/0x01063351)->Render.Flags3 ^= 0x01
 14: 0x00F7 [0x92] Lehko Habhoka (ID: 17183600/0x01063370)->Render.Flags3 ^= 0x01
 15: 0x00FD [0x92] Perih Vashai (ID: 17183603/0x01063373)->Render.Flags3 ^= 0x01
 16: 0x0103 [0x92] Mahk Rhyonja (ID: 17183647/0x0106339F)->Render.Flags3 ^= 0x01
 17: 0x0109 [0x92] hei01 (ID: 17183649/0x010633A1)->Render.Flags3 ^= 0x01
 18: 0x010F [0x92] hei02 (ID: 17183650/0x010633A2)->Render.Flags3 ^= 0x01
 19: 0x0115 [0x92] Brass Door (ID: 17183512/0x01063318)->Render.Flags3 ^= 0x01
 20: 0x011B [0x94] LocalPlayer->Render.Flags3 ^= 0x01
 21: 0x0121 [0x94] Romaa Mihgo (ID: 17183569/0x01063351)->Render.Flags3 ^= 0x01
 22: 0x0127 [0x94] Lehko Habhoka (ID: 17183600/0x01063370)->Render.Flags3 ^= 0x01
 23: 0x012D [0x94] Perih Vashai (ID: 17183603/0x01063373)->Render.Flags3 ^= 0x01
 24: 0x0133 [0x94] Mahk Rhyonja (ID: 17183647/0x0106339F)->Render.Flags3 ^= 0x01
 25: 0x0139 [0x94] hei01 (ID: 17183649/0x010633A1)->Render.Flags3 ^= 0x01
 26: 0x013F [0x94] hei02 (ID: 17183650/0x010633A2)->Render.Flags3 ^= 0x01
 27: 0x0145 [0x94] Brass Door (ID: 17183512/0x01063318)->Render.Flags3 ^= 0x01
 28: 0x014B [0x80] LOAD_WAIT(entity=LocalPlayer)
 29: 0x0150 [0x80] LOAD_WAIT(entity=Romaa Mihgo (ID: 17183569/0x01063351))
 30: 0x0155 [0x80] LOAD_WAIT(entity=Lehko Habhoka (ID: 17183600/0x01063370))
 31: 0x015A [0x80] LOAD_WAIT(entity=Perih Vashai (ID: 17183603/0x01063373))
 32: 0x015F [0x80] LOAD_WAIT(entity=Mahk Rhyonja (ID: 17183647/0x0106339F))
 33: 0x0164 [0x80] LOAD_WAIT(entity=hei01 (ID: 17183649/0x010633A1))
 34: 0x0169 [0x80] LOAD_WAIT(entity=hei02 (ID: 17183650/0x010633A2))
 35: 0x016E [0x1C] WAIT(5* ticks)
 36: 0x0171 [0xBA] SET_ENTITY_POSITION(entity_id=LocalPlayer, pos_x=-234.224*, pos_z=-21.124*, pos_y=0.250*, direction=0.0°*)
 37: 0x017E [0xBA] SET_ENTITY_POSITION(entity_id=Lehko Habhoka (ID: 17183600/0x01063370), pos_x=-229.445*, pos_z=-20.469*, pos_y=0.296*, direction=0.0°*)
 38: 0x018B [0xBA] SET_ENTITY_POSITION(entity_id=Romaa Mihgo (ID: 17183569/0x01063351), pos_x=-236.926*, pos_z=-21.129*, pos_y=0.250*, direction=31.2°*)
 39: 0x0198 [0xBA] SET_ENTITY_POSITION(entity_id=Perih Vashai (ID: 17183603/0x01063373), pos_x=-238.430*, pos_z=-20.020*, pos_y=0.310*, direction=0.0°*)
 40: 0x01A5 [0xBA] SET_ENTITY_POSITION(entity_id=hei01 (ID: 17183649/0x010633A1), pos_x=-241.174*, pos_z=-18.844*, pos_y=0.250*, direction=0.0°*)
 41: 0x01B2 [0xBA] SET_ENTITY_POSITION(entity_id=hei02 (ID: 17183650/0x010633A2), pos_x=-243.185*, pos_z=-20.015*, pos_y=0.250*, direction=0.0°*)
 42: 0x01BF [0xBA] SET_ENTITY_POSITION(entity_id=Mahk Rhyonja (ID: 17183647/0x0106339F), pos_x=-195.333*, pos_z=-14.422*, pos_y=0.249*, direction=193.6°*)
 43: 0x01CC [0x1C] WAIT(5* ticks)
 44: 0x01CF [0x2C] CREATE_SCHEDULER_TASK: Create scheduler "wpo1" with entities [Perih Vashai (ID: 17183603/0x01063373), Perih Vashai (ID: 17183603/0x01063373)]
 45: 0x01DC [0x2C] CREATE_SCHEDULER_TASK: Create scheduler "wpf2" with entities [Perih Vashai (ID: 17183603/0x01063373), Perih Vashai (ID: 17183603/0x01063373)]
 46: 0x01E9 [0x27] REQ_SET(priority=0x10, entity_id=Brass Door (ID: 17183512/0x01063318), tag_num=0x04)
 47: 0x01F0 [0x27] REQ_SET(priority=0x10, entity_id=Lehko Habhoka (ID: 17183600/0x01063370), tag_num=0x17)
 48: 0x01F7 [0x1C] WAIT(5* ticks)
 49: 0x01FA [0x27] REQ_SET(priority=0x10, entity_id=Perih Vashai (ID: 17183603/0x01063373), tag_num=0x12)
 50: 0x0201 [0x1C] WAIT(5* ticks)
 51: 0x0204 [0x1A] CALL_SUBROUTINE(address=0x003A)
 52: 0x0207 [0x1C] WAIT(5* ticks)
 53: 0x020A [0x27] REQ_SET(priority=0x10, entity_id=Romaa Mihgo (ID: 17183569/0x01063351), tag_num=0x07)
 54: 0x0211 [0x27] REQ_SET(priority=0x10, entity_id=hei01 (ID: 17183649/0x010633A1), tag_num=0x0C)
 55: 0x0218 [0x27] REQ_SET(priority=0x10, entity_id=hei02 (ID: 17183650/0x010633A2), tag_num=0x0C)
 56: 0x021F [0x5B] LOAD_EXT_SCHEDULER: Load scheduler "hou0" with entities [Mahk Rhyonja (ID: 17183647/0x0106339F), Mahk Rhyonja (ID: 17183647/0x0106339F)], work=2967*
 57: 0x022E [0x45] LOAD_SCHEDULED_TASK: Load scheduler "k020" with entities [LocalPlayer, LocalPlayer], work=[538*, 0*]
 58: 0x023F [0x1A] CALL_SUBROUTINE(address=0x3A1A)
 59: 0x0242 [0x52] END_LOAD_SCHEDULER: End scheduler "k020" with entities [LocalPlayer, LocalPlayer], work=538*
 60: 0x0251 [0x45] LOAD_SCHEDULED_TASK: Load scheduler "k015" with entities [LocalPlayer, LocalPlayer], work=[538*, 0*]
 61: 0x0262 [0x2A] GET_REQ_LEVEL(level=16, entity_id=Lehko Habhoka (ID: 17183600/0x01063370))
 62: 0x0268 [0x1C] WAIT(30* ticks)
 63: 0x026B [0x5B] LOAD_EXT_SCHEDULER: Load scheduler "stp0" with entities [Lehko Habhoka (ID: 17183600/0x01063370), Lehko Habhoka (ID: 17183600/0x01063370)], work=3146*
 64: 0x027A [0x1C] WAIT(30* ticks)
 65: 0x027D [0x52] END_LOAD_SCHEDULER: End scheduler "k015" with entities [LocalPlayer, LocalPlayer], work=538*
 66: 0x028C [0x45] LOAD_SCHEDULED_TASK: Load scheduler "k010" with entities [LocalPlayer, LocalPlayer], work=[538*, 0*]
 67: 0x029D [0x1C] WAIT(60* ticks)
 68: 0x02A0 [0x1A] CALL_SUBROUTINE(address=0x0042)
 69: 0x02A3 [0x79] Perih Vashai (ID: 17183603/0x01063373) looks at Lehko Habhoka (ID: 17183600/0x01063370) (Basic look)
 70: 0x02AD [0x79] hei01 (ID: 17183649/0x010633A1) looks at Lehko Habhoka (ID: 17183600/0x01063370) (Basic look)
 71: 0x02B7 [0x79] hei02 (ID: 17183650/0x010633A2) looks at Lehko Habhoka (ID: 17183600/0x01063370) (Basic look)
 72: 0x02C1 [0x2B] Lehko Habhoka (ID: 17183600/0x01063370) [8202*]:
    → "Trrread carefully here. Their ranks may be thinned, but the crows will be no less fierce in defending their nest."
 73: 0x02C8 [0x23] WAIT_FOR_DIALOG_INTERACTION
 74: 0x02C9 [0x1C] WAIT(30* ticks)
 75: 0x02CC [0x4A] Romaa Mihgo (ID: 17183569/0x01063351) looks at Lehko Habhoka (ID: 17183600/0x01063370)
 76: 0x02D5 [0x1A] CALL_SUBROUTINE(address=0x004D)
 77: 0x02D8 [0x52] END_LOAD_SCHEDULER: End scheduler "k010" with entities [LocalPlayer, LocalPlayer], work=538*
 78: 0x02E7 [0x45] LOAD_SCHEDULED_TASK: Load scheduler "k040" with entities [LocalPlayer, LocalPlayer], work=[538*, 0*]
 79: 0x02F8 [0x6B] STOP_AND_IDLE: Lehko Habhoka (ID: 17183600/0x01063370) stops current action and resets to idle (animation="idl0")
 80: 0x0301 [0x27] REQ_SET(priority=0x10, entity_id=Lehko Habhoka (ID: 17183600/0x01063370), tag_num=0x18)
 81: 0x0308 [0x1C] WAIT(30* ticks)
 82: 0x030B [0x2B] Lehko Habhoka (ID: 17183600/0x01063370) [8203*]:
    → "Drawing any attention to ourselves could prove fatal. Move silently, and avoid unnecessary confrontations at all costs."
 83: 0x0312 [0x23] WAIT_FOR_DIALOG_INTERACTION
 84: 0x0313 [0x7B] Perih Vashai (ID: 17183603/0x01063373) stops talking
 85: 0x0318 [0x1C] WAIT(30* ticks)
 86: 0x031B [0x5B] LOAD_EXT_SCHEDULER: Load scheduler "tlb1" with entities [Lehko Habhoka (ID: 17183600/0x01063370), Lehko Habhoka (ID: 17183600/0x01063370)], work=1443*
 87: 0x032A [0x52] END_LOAD_SCHEDULER: End scheduler "k040" with entities [LocalPlayer, LocalPlayer], work=538*
 88: 0x0339 [0x45] LOAD_SCHEDULED_TASK: Load scheduler "k050" with entities [LocalPlayer, LocalPlayer], work=[538*, 0*]
 89: 0x034A [0x5B] LOAD_EXT_SCHEDULER: Load scheduler "tlk0" with entities [Perih Vashai (ID: 17183603/0x01063373), Perih Vashai (ID: 17183603/0x01063373)], work=2092*
 90: 0x0359 [0x1C] WAIT(30* ticks)
 91: 0x035C [0x2B] Perih Vashai (ID: 17183603/0x01063373) [8204*]:
    → "The castle is vast. To search it as a unit would require time we do not have. I say we split up."
 92: 0x0363 [0x23] WAIT_FOR_DIALOG_INTERACTION
 93: 0x0364 [0x5B] LOAD_EXT_SCHEDULER: Load scheduler "tlk1" with entities [Perih Vashai (ID: 17183603/0x01063373), Perih Vashai (ID: 17183603/0x01063373)], work=2092*
 94: 0x0373 [0x52] END_LOAD_SCHEDULER: End scheduler "k050" with entities [LocalPlayer, LocalPlayer], work=538*
 95: 0x0382 [0x45] LOAD_SCHEDULED_TASK: Load scheduler "k030" with entities [LocalPlayer, LocalPlayer], work=[538*, 0*]
 96: 0x0393 [0x79] Perih Vashai (ID: 17183603/0x01063373) looks at Romaa Mihgo (ID: 17183569/0x01063351) (Basic look)
 97: 0x039D [0x27] REQ_SET(priority=0x10, entity_id=Romaa Mihgo (ID: 17183569/0x01063351), tag_num=0x08)
 98: 0x03A4 [0x6E] LocalPlayer uses emote 7*
 99: 0x03AB [0x99] Wait for LocalPlayer animation to complete
100: 0x03B0 [0x1C] WAIT(90* ticks)
101: 0x03B3 [0x7B] Romaa Mihgo (ID: 17183569/0x01063351) stops talking
102: 0x03B8 [0x7B] Perih Vashai (ID: 17183603/0x01063373) stops talking
103: 0x03BD [0x7B] LocalPlayer stops talking
104: 0x03C2 [0x27] REQ_SET(priority=0x10, entity_id=Romaa Mihgo (ID: 17183569/0x01063351), tag_num=0x09)
105: 0x03C9 [0x1C] WAIT(30* ticks)
106: 0x03CC [0x1A] CALL_SUBROUTINE(address=0x0092)
107: 0x03CF [0x1C] WAIT(15* ticks)
108: 0x03D2 [0x27] REQ_SET(priority=0x10, entity_id=Lehko Habhoka (ID: 17183600/0x01063370), tag_num=0x19)
109: 0x03D9 [0x2A] GET_REQ_LEVEL(level=16, entity_id=Romaa Mihgo (ID: 17183569/0x01063351))
110: 0x03DF [0x1C] WAIT(15* ticks)
111: 0x03E2 [0x27] REQ_SET(priority=0x10, entity_id=Romaa Mihgo (ID: 17183569/0x01063351), tag_num=0x0A)
112: 0x03E9 [0x1C] WAIT(5* ticks)
113: 0x03EC [0x27] REQ_SET(priority=0x10, entity_id=Lehko Habhoka (ID: 17183600/0x01063370), tag_num=0x1A)
114: 0x03F3 [0x1C] WAIT(5* ticks)
115: 0x03F6 [0x27] REQ_SET(priority=0x10, entity_id=Perih Vashai (ID: 17183603/0x01063373), tag_num=0x14)
116: 0x03FD [0x1C] WAIT(5* ticks)
117: 0x0400 [0x1A] CALL_SUBROUTINE(address=0x0055)
118: 0x0403 [0x1C] WAIT(5* ticks)
119: 0x0406 [0x52] END_LOAD_SCHEDULER: End scheduler "k030" with entities [LocalPlayer, LocalPlayer], work=538*
120: 0x0415 [0x45] LOAD_SCHEDULED_TASK: Load scheduler "k110" with entities [LocalPlayer, LocalPlayer], work=[538*, 0*]
121: 0x0426 [0x1C] WAIT(5* ticks)
122: 0x0429 [0x7A] VM_CONTROL: Reset VM for Romaa Mihgo (ID: 17183569/0x01063351)
123: 0x042F [0x7A] VM_CONTROL: Reset VM for Lehko Habhoka (ID: 17183600/0x01063370)
124: 0x0435 [0x7A] VM_CONTROL: Reset VM for Perih Vashai (ID: 17183603/0x01063373)
125: 0x043B [0x7A] VM_CONTROL: Reset VM for LocalPlayer
126: 0x0441 [0x1C] WAIT(5* ticks)
127: 0x0444 [0x7B] Perih Vashai (ID: 17183603/0x01063373) stops talking
128: 0x0449 [0xBA] SET_ENTITY_POSITION(entity_id=LocalPlayer, pos_x=-218.169*, pos_z=-21.094*, pos_y=0.249*, direction=9.7°*)
129: 0x0456 [0xBA] SET_ENTITY_POSITION(entity_id=Romaa Mihgo (ID: 17183569/0x01063351), pos_x=-213.843*, pos_z=-21.146*, pos_y=0.250*, direction=9.7°*)
130: 0x0463 [0xBA] SET_ENTITY_POSITION(entity_id=Lehko Habhoka (ID: 17183600/0x01063370), pos_x=-216.124*, pos_z=-20.302*, pos_y=0.249*, direction=9.7°*)
131: 0x0470 [0xBA] SET_ENTITY_POSITION(entity_id=Perih Vashai (ID: 17183603/0x01063373), pos_x=-213.802*, pos_z=-19.103*, pos_y=0.249*, direction=9.6°*)
132: 0x047D [0xBA] SET_ENTITY_POSITION(entity_id=hei01 (ID: 17183649/0x010633A1), pos_x=-219.368*, pos_z=-19.663*, pos_y=0.300*, direction=10.2°*)
133: 0x048A [0xBA] SET_ENTITY_POSITION(entity_id=hei02 (ID: 17183650/0x010633A2), pos_x=-220.982*, pos_z=-20.636*, pos_y=0.234*, direction=9.7°*)
134: 0x0497 [0xBA] SET_ENTITY_POSITION(entity_id=Mahk Rhyonja (ID: 17183647/0x0106339F), pos_x=-195.333*, pos_z=-14.422*, pos_y=0.249*, direction=105.7°*)
135: 0x04A4 [0x1C] WAIT(5* ticks)
136: 0x04A7 [0x27] REQ_SET(priority=0x10, entity_id=Romaa Mihgo (ID: 17183569/0x01063351), tag_num=0x0A)
137: 0x04AE [0x1C] WAIT(5* ticks)
138: 0x04B1 [0x27] REQ_SET(priority=0x10, entity_id=Lehko Habhoka (ID: 17183600/0x01063370), tag_num=0x1A)
139: 0x04B8 [0x1C] WAIT(5* ticks)
140: 0x04BB [0x27] REQ_SET(priority=0x10, entity_id=Perih Vashai (ID: 17183603/0x01063373), tag_num=0x14)
141: 0x04C2 [0x1C] WAIT(5* ticks)
142: 0x04C5 [0x1A] CALL_SUBROUTINE(address=0x0055)
143: 0x04C8 [0x1C] WAIT(5* ticks)
144: 0x04CB [0x27] REQ_SET(priority=0x10, entity_id=hei01 (ID: 17183649/0x010633A1), tag_num=0x0D)
145: 0x04D2 [0x1C] WAIT(5* ticks)
146: 0x04D5 [0x27] REQ_SET(priority=0x10, entity_id=hei02 (ID: 17183650/0x010633A2), tag_num=0x0D)
147: 0x04DC [0x1C] WAIT(55* ticks)
148: 0x04DF [0x5B] LOAD_EXT_SCHEDULER: Load scheduler "hou0" with entities [Mahk Rhyonja (ID: 17183647/0x0106339F), Mahk Rhyonja (ID: 17183647/0x0106339F)], work=2967*
149: 0x04EE [0x1C] WAIT(5* ticks)
150: 0x04F1 [0x27] REQ_SET(priority=0x10, entity_id=Brass Door (ID: 17183512/0x01063318), tag_num=0x03)
151: 0x04F8 [0x55] WAIT_LOAD_SCHEDULER: Wait for scheduler "k110" with entities [LocalPlayer, LocalPlayer], work=538*
152: 0x0507 [0x52] END_LOAD_SCHEDULER: End scheduler "k110" with entities [LocalPlayer, LocalPlayer], work=538*
153: 0x0516 [0x45] LOAD_SCHEDULED_TASK: Load scheduler "k100" with entities [LocalPlayer, LocalPlayer], work=[538*, 0*]
154: 0x0527 [0x1C] WAIT(1* ticks)
155: 0x052A [0x59] UPDATE_ENTITY_DATA: Mahk Rhyonja (ID: 17183647/0x0106339F)->Render.Flags0 |= 0x200000
156: 0x0531 [0x1C] WAIT(1* ticks)
157: 0x0534 [0xBA] SET_ENTITY_POSITION(entity_id=Mahk Rhyonja (ID: 17183647/0x0106339F), pos_x=-195.333*, pos_z=-14.422*, pos_y=0.200*, direction=158.8°*)
158: 0x0541 [0x1C] WAIT(1* ticks)
159: 0x0544 [0x5B] LOAD_EXT_SCHEDULER: Load scheduler "gak1" with entities [Mahk Rhyonja (ID: 17183647/0x0106339F), Mahk Rhyonja (ID: 17183647/0x0106339F)], work=2421*
160: 0x0553 [0x1C] WAIT(40* ticks)
161: 0x0556 [0x27] REQ_SET(priority=0x10, entity_id=Perih Vashai (ID: 17183603/0x01063373), tag_num=0x15)
162: 0x055D [0x1C] WAIT(3* ticks)
163: 0x0560 [0x1A] CALL_SUBROUTINE(address=0x005D)
164: 0x0563 [0x1C] WAIT(2* ticks)
165: 0x0566 [0x27] REQ_SET(priority=0x10, entity_id=Romaa Mihgo (ID: 17183569/0x01063351), tag_num=0x0B)
166: 0x056D [0x1C] WAIT(5* ticks)
167: 0x0570 [0x27] REQ_SET(priority=0x10, entity_id=Lehko Habhoka (ID: 17183600/0x01063370), tag_num=0x1B)
168: 0x0577 [0x1C] WAIT(2* ticks)
169: 0x057A [0x27] REQ_SET(priority=0x10, entity_id=hei01 (ID: 17183649/0x010633A1), tag_num=0x0E)
170: 0x0581 [0x1C] WAIT(2* ticks)
171: 0x0584 [0x27] REQ_SET(priority=0x10, entity_id=hei02 (ID: 17183650/0x010633A2), tag_num=0x0E)
172: 0x058B [0x79] Perih Vashai (ID: 17183603/0x01063373) looks at Mahk Rhyonja (ID: 17183647/0x0106339F) (Basic look)
173: 0x0595 [0x79] Lehko Habhoka (ID: 17183600/0x01063370) looks at Mahk Rhyonja (ID: 17183647/0x0106339F) (Basic look)
174: 0x059F [0x79] LocalPlayer looks at Mahk Rhyonja (ID: 17183647/0x0106339F) (Basic look)
175: 0x05A9 [0x79] hei01 (ID: 17183649/0x010633A1) looks at Mahk Rhyonja (ID: 17183647/0x0106339F) (Basic look)
176: 0x05B3 [0x79] hei02 (ID: 17183650/0x010633A2) looks at Mahk Rhyonja (ID: 17183647/0x0106339F) (Basic look)
177: 0x05BD [0x55] WAIT_LOAD_SCHEDULER: Wait for scheduler "k100" with entities [LocalPlayer, LocalPlayer], work=538*
178: 0x05CC [0x52] END_LOAD_SCHEDULER: End scheduler "k100" with entities [LocalPlayer, LocalPlayer], work=538*
179: 0x05DB [0x45] LOAD_SCHEDULED_TASK: Load scheduler "k120" with entities [LocalPlayer, LocalPlayer], work=[538*, 0*]
180: 0x05EC [0x1C] WAIT(60* ticks)
181: 0x05EF [0x5B] LOAD_EXT_SCHEDULER: Load scheduler "gak2" with entities [Mahk Rhyonja (ID: 17183647/0x0106339F), Mahk Rhyonja (ID: 17183647/0x0106339F)], work=2421*
182: 0x05FE [0x2B] Mahk Rhyonja (ID: 17183647/0x0106339F) [8205*]:
    → "You...! Tell me you're here...to rescue us!"
183: 0x0605 [0x23] WAIT_FOR_DIALOG_INTERACTION
184: 0x0606 [0x2B] Romaa Mihgo (ID: 17183569/0x01063351) [8206*]:
    → "One of the prisoners! Are you all right!?"
185: 0x060D [0x23] WAIT_FOR_DIALOG_INTERACTION
186: 0x060E [0x52] END_LOAD_SCHEDULER: End scheduler "k120" with entities [LocalPlayer, LocalPlayer], work=538*
187: 0x061D [0x45] LOAD_SCHEDULED_TASK: Load scheduler "k130" with entities [LocalPlayer, LocalPlayer], work=[538*, 0*]
188: 0x062E [0x1C] WAIT(30* ticks)
189: 0x0631 [0x27] REQ_SET(priority=0x10, entity_id=hei02 (ID: 17183650/0x010633A2), tag_num=0x0F)
190: 0x0638 [0x1C] WAIT(15* ticks)
191: 0x063B [0x27] REQ_SET(priority=0x10, entity_id=hei01 (ID: 17183649/0x010633A1), tag_num=0x0F)
192: 0x0642 [0x1C] WAIT(15* ticks)
193: 0x0645 [0x5B] LOAD_EXT_SCHEDULER: Load scheduler "pon0" with entities [Mahk Rhyonja (ID: 17183647/0x0106339F), Mahk Rhyonja (ID: 17183647/0x0106339F)], work=2696*
194: 0x0654 [0x2B] Mahk Rhyonja (ID: 17183647/0x0106339F) [8207*]:
    → "Yes...somehow."
195: 0x065B [0x23] WAIT_FOR_DIALOG_INTERACTION
196: 0x065C [0x1C] WAIT(30* ticks)
197: 0x065F [0x52] END_LOAD_SCHEDULER: End scheduler "k130" with entities [LocalPlayer, LocalPlayer], work=538*
198: 0x066E [0x45] LOAD_SCHEDULED_TASK: Load scheduler "k140" with entities [LocalPlayer, LocalPlayer], work=[538*, 0*]
199: 0x067F [0x1C] WAIT(30* ticks)
200: 0x0682 [0x2B] Mahk Rhyonja (ID: 17183647/0x0106339F) [8208*]:
    → "There was a loose bar...in my cell...<cough>... I slipped out unseen...during the changing of the guarrrd..."
201: 0x0689 [0x23] WAIT_FOR_DIALOG_INTERACTION
202: 0x068A [0x5B] LOAD_EXT_SCHEDULER: Load scheduler "pon1" with entities [Mahk Rhyonja (ID: 17183647/0x0106339F), Mahk Rhyonja (ID: 17183647/0x0106339F)], work=2696*
203: 0x0699 [0x1C] WAIT(30* ticks)
204: 0x069C [0x2B] Mahk Rhyonja (ID: 17183647/0x0106339F) [8209*]:
    → "My companion, Koh...the others...they have not been so fortunate. P-please...you must help them!"
205: 0x06A3 [0x23] WAIT_FOR_DIALOG_INTERACTION
206: 0x06A4 [0x66] LOAD_EXT_SCHEDULER_MAIN: Load scheduler "sha1" with entities [Romaa Mihgo (ID: 17183569/0x01063351), Romaa Mihgo (ID: 17183569/0x01063351)], work=59*
207: 0x06B3 [0x1C] WAIT(30* ticks)
208: 0x06B6 [0x52] END_LOAD_SCHEDULER: End scheduler "k140" with entities [LocalPlayer, LocalPlayer], work=538*
209: 0x06C5 [0x45] LOAD_SCHEDULED_TASK: Load scheduler "k150" with entities [LocalPlayer, LocalPlayer], work=[538*, 0*]
210: 0x06D6 [0x1C] WAIT(1* ticks)
211: 0x06D9 [0x7A] VM_CONTROL: Reset VM for hei01 (ID: 17183649/0x010633A1)
212: 0x06DF [0x7A] VM_CONTROL: Reset VM for hei02 (ID: 17183650/0x010633A2)
213: 0x06E5 [0xBA] SET_ENTITY_POSITION(entity_id=Mahk Rhyonja (ID: 17183647/0x0106339F), pos_x=-193.756*, pos_z=-14.602*, pos_y=0.230*, direction=106.1°*)
214: 0x06F2 [0x1C] WAIT(1* ticks)
215: 0x06F5 [0xBA] SET_ENTITY_POSITION(entity_id=hei02 (ID: 17183650/0x010633A2), pos_x=-193.273*, pos_z=-15.338*, pos_y=0.249*, direction=253.4°*)
216: 0x0702 [0xBA] SET_ENTITY_POSITION(entity_id=hei01 (ID: 17183649/0x010633A1), pos_x=-193.559*, pos_z=-13.850*, pos_y=0.249*, direction=100.4°*)
217: 0x070F [0x5B] LOAD_EXT_SCHEDULER: Load scheduler "sho0" with entities [Mahk Rhyonja (ID: 17183647/0x0106339F), Mahk Rhyonja (ID: 17183647/0x0106339F)], work=2312*
218: 0x071E [0x2B] Romaa Mihgo (ID: 17183569/0x01063351) [8210*]:
    → "You can rrrest easy, friend. You'll be safe now. And don't you worry; we'll see to your companions."
219: 0x0725 [0x23] WAIT_FOR_DIALOG_INTERACTION
220: 0x0726 [0x4A] hei01 (ID: 17183649/0x010633A1) looks at Mahk Rhyonja (ID: 17183647/0x0106339F)
221: 0x072F [0x52] END_LOAD_SCHEDULER: End scheduler "k150" with entities [LocalPlayer, LocalPlayer], work=538*
222: 0x073E [0x45] LOAD_SCHEDULED_TASK: Load scheduler "k160" with entities [LocalPlayer, LocalPlayer], work=[538*, 0*]
223: 0x074F [0x5B] LOAD_EXT_SCHEDULER: Load scheduler "sho1" with entities [Mahk Rhyonja (ID: 17183647/0x0106339F), Mahk Rhyonja (ID: 17183647/0x0106339F)], work=2312*
224: 0x075E [0x1C] WAIT(1* ticks)
225: 0x0761 [0xBA] SET_ENTITY_POSITION(entity_id=LocalPlayer, pos_x=-194.893*, pos_z=-16.873*, pos_y=0.250*, direction=311.6°*)
226: 0x076E [0x4A] Romaa Mihgo (ID: 17183569/0x01063351) looks at Mahk Rhyonja (ID: 17183647/0x0106339F)
227: 0x0777 [0x4A] Perih Vashai (ID: 17183603/0x01063373) looks at Mahk Rhyonja (ID: 17183647/0x0106339F)
228: 0x0780 [0x4A] Lehko Habhoka (ID: 17183600/0x01063370) looks at Mahk Rhyonja (ID: 17183647/0x0106339F)
229: 0x0789 [0x4A] LocalPlayer looks at Mahk Rhyonja (ID: 17183647/0x0106339F)
230: 0x0792 [0x7B] Romaa Mihgo (ID: 17183569/0x01063351) stops talking
231: 0x0797 [0x7B] Perih Vashai (ID: 17183603/0x01063373) stops talking
232: 0x079C [0x7B] Lehko Habhoka (ID: 17183600/0x01063370) stops talking
233: 0x07A1 [0x7B] LocalPlayer stops talking
234: 0x07A6 [0x03] Work_Zone[2] = 2567*
235: 0x07AB [0x2B] Mahk Rhyonja (ID: 17183647/0x0106339F) [8211*]:
    → "The $0... Without it...the other cells...too sturrrdy to force..."
236: 0x07B2 [0x23] WAIT_FOR_DIALOG_INTERACTION
237: 0x07B3 [0x52] END_LOAD_SCHEDULER: End scheduler "k160" with entities [LocalPlayer, LocalPlayer], work=538*
238: 0x07C2 [0x45] LOAD_SCHEDULED_TASK: Load scheduler "k150" with entities [LocalPlayer, LocalPlayer], work=[538*, 0*]
239: 0x07D3 [0x1C] WAIT(1* ticks)
240: 0x07D6 [0xBA] SET_ENTITY_POSITION(entity_id=hei01 (ID: 17183649/0x010633A1), pos_x=-193.756*, pos_z=-14.602*, pos_y=0.230*, direction=106.1°*)
241: 0x07E3 [0x1C] WAIT(1* ticks)
242: 0x07E6 [0x5B] LOAD_EXT_SCHEDULER: Load scheduler "hetc" with entities [Mahk Rhyonja (ID: 17183647/0x0106339F), Mahk Rhyonja (ID: 17183647/0x0106339F)], work=2311*
243: 0x07F5 [0x5B] LOAD_EXT_SCHEDULER: Load scheduler "kail" with entities [hei01 (ID: 17183649/0x010633A1), hei01 (ID: 17183649/0x010633A1)], work=2966*
244: 0x0804 [0x66] LOAD_EXT_SCHEDULER_MAIN: Load scheduler "sha0" with entities [hei02 (ID: 17183650/0x010633A2), hei02 (ID: 17183650/0x010633A2)], work=59*
245: 0x0813 [0x7B] hei02 (ID: 17183650/0x010633A2) stops talking
246: 0x0818 [0x7B] hei01 (ID: 17183649/0x010633A1) stops talking
247: 0x081D [0x27] REQ_SET(priority=0x10, entity_id=Romaa Mihgo (ID: 17183569/0x01063351), tag_num=0x08)
248: 0x0824 [0x2B] Romaa Mihgo (ID: 17183569/0x01063351) [8212*]:
    → "Got it."
249: 0x082B [0x1C] WAIT(60* ticks)
250: 0x082E [0x23] WAIT_FOR_DIALOG_INTERACTION
251: 0x082F [0x4A] Romaa Mihgo (ID: 17183569/0x01063351) looks at Lehko Habhoka (ID: 17183600/0x01063370)
252: 0x0838 [0x52] END_LOAD_SCHEDULER: End scheduler "k150" with entities [LocalPlayer, LocalPlayer], work=538*
253: 0x0847 [0x45] LOAD_SCHEDULED_TASK: Load scheduler "k170" with entities [LocalPlayer, LocalPlayer], work=[538*, 0*]
254: 0x0858 [0x6F] WAIT_FRAME_DELAY: Yield until WaitTime reaches zero
255: 0x0859 [0x76] CHECK_ENTITY_RENDER_FLAGS: Wait until Romaa Mihgo (ID: 17183569/0x01063351) Render.Flags0 and Render.Flags3 conditions are met
256: 0x085E [0x2B] Romaa Mihgo (ID: 17183569/0x01063351) [8213*]:
    → "You heard her, people. First orrrder of business is to find this $0, and quickly. Now let's move!"
257: 0x0865 [0x1C] WAIT(30* ticks)
258: 0x0868 [0x6E] Romaa Mihgo (ID: 17183569/0x01063351) uses emote 36*
259: 0x086F [0x99] Wait for Romaa Mihgo (ID: 17183569/0x01063351) animation to complete
260: 0x0874 [0x1C] WAIT(30* ticks)
261: 0x0877 [0x23] WAIT_FOR_DIALOG_INTERACTION
262: 0x0878 [0x1C] WAIT(60* ticks)
263: 0x087B [0x1A] CALL_SUBROUTINE(address=0x3A3B)
264: 0x087E [0x1C] WAIT(30* ticks)
265: 0x0881 [0x52] END_LOAD_SCHEDULER: End scheduler "k010" with entities [LocalPlayer, LocalPlayer], work=538*
266: 0x0890 [0x1C] WAIT(30* ticks)
267: 0x0893 [0xAB] EventEntity->DespawnValue = 0* // Set despawn value
268: 0x0897 [0x1C] WAIT(1* ticks)
269: 0x089A [0x46] CAMERA_CONTROL: Restore default settings
270: 0x089C [0x45] LOAD_SCHEDULED_TASK: Load scheduler "fdi2" with entities [LocalPlayer, LocalPlayer], work=[200*, 0*]
271: 0x08AD [0x21] END_EVENT
272: 0x08AE [0x00] END_REQSTACK()
```

### Event 105

#### Metadata

| Field        | Value     |
|--------------|-----------|
| Entrypoint   | 0x08AF    |
| Data Size    | 858 bytes |
| Instructions | 110       |

```
      00 01 02 03 04 05 06 07  08 09 0A 0B 0C 0D 0E 0F
      -- -- -- -- -- -- -- --  -- -- -- -- -- -- -- --
08A0:                                               42                 B
08B0: 1A 3B 3A 46 01 38 02 80  27 10 51 33 06 01 18 27  .;:F.8..'.Q3...'
08C0: 10 70 33 06 01 04 27 10  73 33 06 01 04 27 10 99  .p3...'.s3...'..
08D0: 33 06 01 04 27 10 A1 33  06 01 04 27 10 A2 33 06  3...'..3...'..3.
08E0: 01 04 92 01 51 33 06 01  92 01 70 33 06 01 92 01  ....Q3....p3....
08F0: 73 33 06 01 92 01 99 33  06 01 92 01 A1 33 06 01  s3.....3.....3..
0900: 92 01 A2 33 06 01 94 01  F0 FF FF 7F 94 01 51 33  ...3..........Q3
0910: 06 01 94 01 70 33 06 01  94 01 73 33 06 01 94 01  ....p3....s3....
0920: 99 33 06 01 94 01 A1 33  06 01 94 01 A2 33 06 01  .3.....3.....3..
0930: 80 F0 FF FF 7F 80 51 33  06 01 80 70 33 06 01 80  ......Q3...p3...
0940: 73 33 06 01 80 99 33 06  01 80 A1 33 06 01 80 A2  s3....3....3....
0950: 33 06 01 1C 03 80 BA F0  FF FF 7F 5C 80 5D 80 5E  3..........\.].^
0960: 80 5F 80 BA A1 33 06 01  60 80 61 80 62 80 63 80  ._...3..`.a.b.c.
0970: BA A2 33 06 01 64 80 65  80 66 80 5F 80 BA 51 33  ..3..d.e.f._..Q3
0980: 06 01 67 80 68 80 5E 80  69 80 BA 70 33 06 01 6A  ..g.h.^.i..p3..j
0990: 80 6B 80 6C 80 6D 80 BA  73 33 06 01 6E 80 6F 80  .k.l.m..s3..n.o.
09A0: 6C 80 70 80 BA 99 33 06  01 71 80 72 80 73 80 63  l.p...3..q.r.s.c
09B0: 80 1C 03 80 2C 73 33 06  01 73 33 06 01 77 70 6F  ....,s3..s3..wpo
09C0: 31 2C 73 33 06 01 73 33  06 01 77 70 66 32 1C 03  1,s3..s3..wpf2..
09D0: 80 5B 74 80 51 33 06 01  51 33 06 01 72 75 70 30  .[t.Q3..Q3..rup0
09E0: 5B 75 80 73 33 06 01 73  33 06 01 70 75 70 6C 5B  [u.s3..s3..pupl[
09F0: 76 80 70 33 06 01 70 33  06 01 6C 75 70 30 29 10  v.p3..p3..lup0).
0A00: F0 FF FF 7F 26 1C 03 80  45 1A 80 F0 FF FF 7F F0  ....&...E.......
0A10: FF FF 7F 6A 30 36 30 07  80 1A 1A 3A 55 1A 80 F0  ...j060....:U...
0A20: FF FF 7F F0 FF FF 7F 6A  30 36 30 52 1A 80 F0 FF  .......j060R....
0A30: FF 7F F0 FF FF 7F 6A 30  36 30 45 1A 80 F0 FF FF  ......j060E.....
0A40: 7F F0 FF FF 7F 6A 30 35  30 07 80 1C 1B 80 2B 51  .....j050.....+Q
0A50: 33 06 01 77 80 23 1C 1B  80 1A 3B 3A 1C 1D 80 6B  3..w.#....;:...k
0A60: 69 64 6C 30 51 33 06 01  6B 69 64 6C 30 73 33 06  idl0Q3..kidl0s3.
0A70: 01 6B 69 64 6C 30 70 33  06 01 6B 69 64 6C 30 F0  .kidl0p3..kidl0.
0A80: FF FF 7F 1C 03 80 BA A1  33 06 01 78 80 79 80 7A  ........3..x.y.z
0A90: 80 7B 80 BA A2 33 06 01  7C 80 7D 80 7E 80 7F 80  .{...3..|.}.~...
0AA0: BA 51 33 06 01 5C 80 5D  80 5E 80 5F 80 BA F0 FF  .Q3..\.].^._....
0AB0: FF 7F 67 80 68 80 5E 80  69 80 1C 03 80 4A A1 33  ..g.h.^.i....J.3
0AC0: 06 01 99 33 06 01 4A A2  33 06 01 99 33 06 01 4A  ...3..J.3...3..J
0AD0: 51 33 06 01 99 33 06 01  4A 73 33 06 01 99 33 06  Q3...3..Js3...3.
0AE0: 01 4A 70 33 06 01 99 33  06 01 4A F0 FF FF 7F 99  .Jp3...3..J.....
0AF0: 33 06 01 4A 99 33 06 01  51 33 06 01 52 1A 80 F0  3..J.3..Q3..R...
0B00: FF FF 7F F0 FF FF 7F 6A  30 35 30 45 1A 80 F0 FF  .......j050E....
0B10: FF 7F F0 FF FF 7F 6A 30  38 30 07 80 1A 1A 3A 1C  ......j080....:.
0B20: 1B 80 27 10 99 33 06 01  0C 2B 99 33 06 01 80 80  ..'..3...+.3....
0B30: 1C 24 80 23 52 1A 80 F0  FF FF 7F F0 FF FF 7F 6A  .$.#R..........j
0B40: 30 38 30 45 1A 80 F0 FF  FF 7F F0 FF FF 7F 6A 30  080E..........j0
0B50: 37 30 07 80 5B 81 80 51  33 06 01 51 33 06 01 73  70..[..Q3..Q3..s
0B60: 74 61 30 1C 1B 80 2B 51  33 06 01 82 80 23 27 10  ta0...+Q3....#'.
0B70: 99 33 06 01 0B 2B 99 33  06 01 83 80 23 52 1A 80  .3...+.3....#R..
0B80: F0 FF FF 7F F0 FF FF 7F  6A 30 37 30 45 1A 80 F0  ........j070E...
0B90: FF FF 7F F0 FF FF 7F 6A  30 38 35 07 80 66 45 80  .......j085..fE.
0BA0: 99 33 06 01 99 33 06 01  74 6C 6B 30 2B 99 33 06  .3...3..tlk0+.3.
0BB0: 01 84 80 23 66 45 80 99  33 06 01 99 33 06 01 74  ...#fE..3...3..t
0BC0: 6C 6B 31 1C 1D 80 1A 3B  3A 1C 1B 80 52 1A 80 F0  lk1....;:...R...
0BD0: FF FF 7F F0 FF FF 7F 6A  30 38 35 52 1A 80 F0 FF  .......j085R....
0BE0: FF 7F F0 FF FF 7F 6A 30  37 30 1C 1B 80 AB 11 07  ......j070......
0BF0: 80 1C 00 80 46 00 45 39  80 F0 FF FF 7F F0 FF FF  ....F.E9........
0C00: 7F 66 64 69 32 07 80 21  00                       .fdi2..!.       
```

#### Opcodes

```
  0: 0x08AF [0x42] SET_CLI_EVENT_CANCEL_DATA()
  1: 0x08B0 [0x1A] CALL_SUBROUTINE(address=0x3A3B)
  2: 0x08B3 [0x46] CAMERA_CONTROL: Disable user control
  3: 0x08B5 [0x38] SET_CLIENT_EVENT_MODE(mode=19*)
  4: 0x08B8 [0x27] REQ_SET(priority=0x10, entity_id=Romaa Mihgo (ID: 17183569/0x01063351), tag_num=0x18)
  5: 0x08BF [0x27] REQ_SET(priority=0x10, entity_id=Lehko Habhoka (ID: 17183600/0x01063370), tag_num=0x04)
  6: 0x08C6 [0x27] REQ_SET(priority=0x10, entity_id=Perih Vashai (ID: 17183603/0x01063373), tag_num=0x04)
  7: 0x08CD [0x27] REQ_SET(priority=0x10, entity_id=Pedh Zhkek (ID: 17183641/0x01063399), tag_num=0x04)
  8: 0x08D4 [0x27] REQ_SET(priority=0x10, entity_id=hei01 (ID: 17183649/0x010633A1), tag_num=0x04)
  9: 0x08DB [0x27] REQ_SET(priority=0x10, entity_id=hei02 (ID: 17183650/0x010633A2), tag_num=0x04)
 10: 0x08E2 [0x92] Romaa Mihgo (ID: 17183569/0x01063351)->Render.Flags3 ^= 0x01
 11: 0x08E8 [0x92] Lehko Habhoka (ID: 17183600/0x01063370)->Render.Flags3 ^= 0x01
 12: 0x08EE [0x92] Perih Vashai (ID: 17183603/0x01063373)->Render.Flags3 ^= 0x01
 13: 0x08F4 [0x92] Pedh Zhkek (ID: 17183641/0x01063399)->Render.Flags3 ^= 0x01
 14: 0x08FA [0x92] hei01 (ID: 17183649/0x010633A1)->Render.Flags3 ^= 0x01
 15: 0x0900 [0x92] hei02 (ID: 17183650/0x010633A2)->Render.Flags3 ^= 0x01
 16: 0x0906 [0x94] LocalPlayer->Render.Flags3 ^= 0x01
 17: 0x090C [0x94] Romaa Mihgo (ID: 17183569/0x01063351)->Render.Flags3 ^= 0x01
 18: 0x0912 [0x94] Lehko Habhoka (ID: 17183600/0x01063370)->Render.Flags3 ^= 0x01
 19: 0x0918 [0x94] Perih Vashai (ID: 17183603/0x01063373)->Render.Flags3 ^= 0x01
 20: 0x091E [0x94] Pedh Zhkek (ID: 17183641/0x01063399)->Render.Flags3 ^= 0x01
 21: 0x0924 [0x94] hei01 (ID: 17183649/0x010633A1)->Render.Flags3 ^= 0x01
 22: 0x092A [0x94] hei02 (ID: 17183650/0x010633A2)->Render.Flags3 ^= 0x01
 23: 0x0930 [0x80] LOAD_WAIT(entity=LocalPlayer)
 24: 0x0935 [0x80] LOAD_WAIT(entity=Romaa Mihgo (ID: 17183569/0x01063351))
 25: 0x093A [0x80] LOAD_WAIT(entity=Lehko Habhoka (ID: 17183600/0x01063370))
 26: 0x093F [0x80] LOAD_WAIT(entity=Perih Vashai (ID: 17183603/0x01063373))
 27: 0x0944 [0x80] LOAD_WAIT(entity=Pedh Zhkek (ID: 17183641/0x01063399))
 28: 0x0949 [0x80] LOAD_WAIT(entity=hei01 (ID: 17183649/0x010633A1))
 29: 0x094E [0x80] LOAD_WAIT(entity=hei02 (ID: 17183650/0x010633A2))
 30: 0x0953 [0x1C] WAIT(5* ticks)
 31: 0x0956 [0xBA] SET_ENTITY_POSITION(entity_id=LocalPlayer, pos_x=43.075*, pos_z=-93.946*, pos_y=-15.997*, direction=304.6°*)
 32: 0x0963 [0xBA] SET_ENTITY_POSITION(entity_id=hei01 (ID: 17183649/0x010633A1), pos_x=43.436*, pos_z=-96.451*, pos_y=-16.037*, direction=304.7°*)
 33: 0x0970 [0xBA] SET_ENTITY_POSITION(entity_id=hei02 (ID: 17183650/0x010633A2), pos_x=42.592*, pos_z=-96.665*, pos_y=-16.054*, direction=304.6°*)
 34: 0x097D [0xBA] SET_ENTITY_POSITION(entity_id=Romaa Mihgo (ID: 17183569/0x01063351), pos_x=44.435*, pos_z=-94.445*, pos_y=-15.997*, direction=284.5°*)
 35: 0x098A [0xBA] SET_ENTITY_POSITION(entity_id=Lehko Habhoka (ID: 17183600/0x01063370), pos_x=44.414*, pos_z=-95.603*, pos_y=-16.000*, direction=270.8°*)
 36: 0x0997 [0xBA] SET_ENTITY_POSITION(entity_id=Perih Vashai (ID: 17183603/0x01063373), pos_x=43.286*, pos_z=-95.068*, pos_y=-16.000*, direction=292.6°*)
 37: 0x09A4 [0xBA] SET_ENTITY_POSITION(entity_id=Pedh Zhkek (ID: 17183641/0x01063399), pos_x=41.862*, pos_z=-93.014*, pos_y=-15.998*, direction=304.7°*)
 38: 0x09B1 [0x1C] WAIT(5* ticks)
 39: 0x09B4 [0x2C] CREATE_SCHEDULER_TASK: Create scheduler "wpo1" with entities [Perih Vashai (ID: 17183603/0x01063373), Perih Vashai (ID: 17183603/0x01063373)]
 40: 0x09C1 [0x2C] CREATE_SCHEDULER_TASK: Create scheduler "wpf2" with entities [Perih Vashai (ID: 17183603/0x01063373), Perih Vashai (ID: 17183603/0x01063373)]
 41: 0x09CE [0x1C] WAIT(5* ticks)
 42: 0x09D1 [0x5B] LOAD_EXT_SCHEDULER: Load scheduler "rup0" with entities [Romaa Mihgo (ID: 17183569/0x01063351), Romaa Mihgo (ID: 17183569/0x01063351)], work=2708*
 43: 0x09E0 [0x5B] LOAD_EXT_SCHEDULER: Load scheduler "pupl" with entities [Perih Vashai (ID: 17183603/0x01063373), Perih Vashai (ID: 17183603/0x01063373)], work=1393*
 44: 0x09EF [0x5B] LOAD_EXT_SCHEDULER: Load scheduler "lup0" with entities [Lehko Habhoka (ID: 17183600/0x01063370), Lehko Habhoka (ID: 17183600/0x01063370)], work=2459*
 45: 0x09FE [0x29] REQ_SET_WAIT(priority=0x10, entity_id=LocalPlayer, tag_num=0x26)
 46: 0x0A05 [0x1C] WAIT(5* ticks)
 47: 0x0A08 [0x45] LOAD_SCHEDULED_TASK: Load scheduler "j060" with entities [LocalPlayer, LocalPlayer], work=[538*, 0*]
 48: 0x0A19 [0x1A] CALL_SUBROUTINE(address=0x3A1A)
 49: 0x0A1C [0x55] WAIT_LOAD_SCHEDULER: Wait for scheduler "j060" with entities [LocalPlayer, LocalPlayer], work=538*
 50: 0x0A2B [0x52] END_LOAD_SCHEDULER: End scheduler "j060" with entities [LocalPlayer, LocalPlayer], work=538*
 51: 0x0A3A [0x45] LOAD_SCHEDULED_TASK: Load scheduler "j050" with entities [LocalPlayer, LocalPlayer], work=[538*, 0*]
 52: 0x0A4B [0x1C] WAIT(30* ticks)
 53: 0x0A4E [0x2B] Romaa Mihgo (ID: 17183569/0x01063351) [8214*]:
    → "Can you hear us, frrriend? We've come to rescue you!"
 54: 0x0A55 [0x23] WAIT_FOR_DIALOG_INTERACTION
 55: 0x0A56 [0x1C] WAIT(30* ticks)
 56: 0x0A59 [0x1A] CALL_SUBROUTINE(address=0x3A3B)
 57: 0x0A5C [0x1C] WAIT(60* ticks)
 58: 0x0A5F [0x6B] STOP_AND_IDLE: Romaa Mihgo (ID: 17183569/0x01063351) stops current action and resets to idle (animation="idl0")
 59: 0x0A68 [0x6B] STOP_AND_IDLE: Perih Vashai (ID: 17183603/0x01063373) stops current action and resets to idle (animation="idl0")
 60: 0x0A71 [0x6B] STOP_AND_IDLE: Lehko Habhoka (ID: 17183600/0x01063370) stops current action and resets to idle (animation="idl0")
 61: 0x0A7A [0x6B] STOP_AND_IDLE: LocalPlayer stops current action and resets to idle (animation="idl0")
 62: 0x0A83 [0x1C] WAIT(5* ticks)
 63: 0x0A86 [0xBA] SET_ENTITY_POSITION(entity_id=hei01 (ID: 17183649/0x010633A1), pos_x=44.538*, pos_z=-92.613*, pos_y=-15.994*, direction=22.1°*)
 64: 0x0A93 [0xBA] SET_ENTITY_POSITION(entity_id=hei02 (ID: 17183650/0x010633A2), pos_x=45.916*, pos_z=-92.000*, pos_y=-15.995*, direction=83.1°*)
 65: 0x0AA0 [0xBA] SET_ENTITY_POSITION(entity_id=Romaa Mihgo (ID: 17183569/0x01063351), pos_x=43.075*, pos_z=-93.946*, pos_y=-15.997*, direction=304.6°*)
 66: 0x0AAD [0xBA] SET_ENTITY_POSITION(entity_id=LocalPlayer, pos_x=44.435*, pos_z=-94.445*, pos_y=-15.997*, direction=284.5°*)
 67: 0x0ABA [0x1C] WAIT(5* ticks)
 68: 0x0ABD [0x4A] hei01 (ID: 17183649/0x010633A1) looks at Pedh Zhkek (ID: 17183641/0x01063399)
 69: 0x0AC6 [0x4A] hei02 (ID: 17183650/0x010633A2) looks at Pedh Zhkek (ID: 17183641/0x01063399)
 70: 0x0ACF [0x4A] Romaa Mihgo (ID: 17183569/0x01063351) looks at Pedh Zhkek (ID: 17183641/0x01063399)
 71: 0x0AD8 [0x4A] Perih Vashai (ID: 17183603/0x01063373) looks at Pedh Zhkek (ID: 17183641/0x01063399)
 72: 0x0AE1 [0x4A] Lehko Habhoka (ID: 17183600/0x01063370) looks at Pedh Zhkek (ID: 17183641/0x01063399)
 73: 0x0AEA [0x4A] LocalPlayer looks at Pedh Zhkek (ID: 17183641/0x01063399)
 74: 0x0AF3 [0x4A] Pedh Zhkek (ID: 17183641/0x01063399) looks at Romaa Mihgo (ID: 17183569/0x01063351)
 75: 0x0AFC [0x52] END_LOAD_SCHEDULER: End scheduler "j050" with entities [LocalPlayer, LocalPlayer], work=538*
 76: 0x0B0B [0x45] LOAD_SCHEDULED_TASK: Load scheduler "j080" with entities [LocalPlayer, LocalPlayer], work=[538*, 0*]
 77: 0x0B1C [0x1A] CALL_SUBROUTINE(address=0x3A1A)
 78: 0x0B1F [0x1C] WAIT(30* ticks)
 79: 0x0B22 [0x27] REQ_SET(priority=0x10, entity_id=Pedh Zhkek (ID: 17183641/0x01063399), tag_num=0x0C)
 80: 0x0B29 [0x2B] Pedh Zhkek (ID: 17183641/0x01063399) [8215*]:
    → "Oh, thank you! Thank you so much! I thought I would neverrr see the light of day again!"
 81: 0x0B30 [0x1C] WAIT(90* ticks)
 82: 0x0B33 [0x23] WAIT_FOR_DIALOG_INTERACTION
 83: 0x0B34 [0x52] END_LOAD_SCHEDULER: End scheduler "j080" with entities [LocalPlayer, LocalPlayer], work=538*
 84: 0x0B43 [0x45] LOAD_SCHEDULED_TASK: Load scheduler "j070" with entities [LocalPlayer, LocalPlayer], work=[538*, 0*]
 85: 0x0B54 [0x5B] LOAD_EXT_SCHEDULER: Load scheduler "sta0" with entities [Romaa Mihgo (ID: 17183569/0x01063351), Romaa Mihgo (ID: 17183569/0x01063351)], work=1327*
 86: 0x0B63 [0x1C] WAIT(30* ticks)
 87: 0x0B66 [0x2B] Romaa Mihgo (ID: 17183569/0x01063351) [8216*]:
    → "Our regiment has made camp in the Meriphataud Mountains. You will be safe there. Can you make the trip alone?"
 88: 0x0B6D [0x23] WAIT_FOR_DIALOG_INTERACTION
 89: 0x0B6E [0x27] REQ_SET(priority=0x10, entity_id=Pedh Zhkek (ID: 17183641/0x01063399), tag_num=0x0B)
 90: 0x0B75 [0x2B] Pedh Zhkek (ID: 17183641/0x01063399) [8217*]:
    → "Yes... Yes, I think so. Oh, thank you ever so much!"
 91: 0x0B7C [0x23] WAIT_FOR_DIALOG_INTERACTION
 92: 0x0B7D [0x52] END_LOAD_SCHEDULER: End scheduler "j070" with entities [LocalPlayer, LocalPlayer], work=538*
 93: 0x0B8C [0x45] LOAD_SCHEDULED_TASK: Load scheduler "j085" with entities [LocalPlayer, LocalPlayer], work=[538*, 0*]
 94: 0x0B9D [0x66] LOAD_EXT_SCHEDULER_MAIN: Load scheduler "tlk0" with entities [Pedh Zhkek (ID: 17183641/0x01063399), Pedh Zhkek (ID: 17183641/0x01063399)], work=59*
 95: 0x0BAC [0x2B] Pedh Zhkek (ID: 17183641/0x01063399) [8218*]:
    → "My companions are still imprisoned in the other cells! Please, you must save them too!"
 96: 0x0BB3 [0x23] WAIT_FOR_DIALOG_INTERACTION
 97: 0x0BB4 [0x66] LOAD_EXT_SCHEDULER_MAIN: Load scheduler "tlk1" with entities [Pedh Zhkek (ID: 17183641/0x01063399), Pedh Zhkek (ID: 17183641/0x01063399)], work=59*
 98: 0x0BC3 [0x1C] WAIT(60* ticks)
 99: 0x0BC6 [0x1A] CALL_SUBROUTINE(address=0x3A3B)
100: 0x0BC9 [0x1C] WAIT(30* ticks)
101: 0x0BCC [0x52] END_LOAD_SCHEDULER: End scheduler "j085" with entities [LocalPlayer, LocalPlayer], work=538*
102: 0x0BDB [0x52] END_LOAD_SCHEDULER: End scheduler "j070" with entities [LocalPlayer, LocalPlayer], work=538*
103: 0x0BEA [0x1C] WAIT(30* ticks)
104: 0x0BED [0xAB] EventEntity->DespawnValue = 0* // Set despawn value
105: 0x0BF1 [0x1C] WAIT(1* ticks)
106: 0x0BF4 [0x46] CAMERA_CONTROL: Restore default settings
107: 0x0BF6 [0x45] LOAD_SCHEDULED_TASK: Load scheduler "fdi2" with entities [LocalPlayer, LocalPlayer], work=[200*, 0*]
108: 0x0C07 [0x21] END_EVENT
109: 0x0C08 [0x00] END_REQSTACK()
```

### Event 106

#### Metadata

| Field        | Value      |
|--------------|------------|
| Entrypoint   | 0x0C09     |
| Data Size    | 1044 bytes |
| Instructions | 132        |

```
      00 01 02 03 04 05 06 07  08 09 0A 0B 0C 0D 0E 0F
      -- -- -- -- -- -- -- --  -- -- -- -- -- -- -- --
0C00:                             42 1A 3B 3A 46 01 38           B.;:F.8
0C10: 02 80 27 10 51 33 06 01  18 27 10 70 33 06 01 04  ..'.Q3...'.p3...
0C20: 27 10 73 33 06 01 04 27  10 9C 33 06 01 04 27 10  '.s3...'..3...'.
0C30: 9A 33 06 01 04 27 10 9D  33 06 01 04 27 10 A0 33  .3...'..3...'..3
0C40: 06 01 04 27 10 A1 33 06  01 04 27 10 A2 33 06 01  ...'..3...'..3..
0C50: 04 92 01 51 33 06 01 92  01 70 33 06 01 92 01 73  ...Q3....p3....s
0C60: 33 06 01 92 01 9C 33 06  01 92 01 9A 33 06 01 92  3.....3.....3...
0C70: 01 9D 33 06 01 92 01 A0  33 06 01 92 01 A1 33 06  ..3.....3.....3.
0C80: 01 92 01 A2 33 06 01 94  01 F0 FF FF 7F 94 01 51  ....3..........Q
0C90: 33 06 01 94 01 70 33 06  01 94 01 73 33 06 01 94  3....p3....s3...
0CA0: 01 9C 33 06 01 94 01 9A  33 06 01 94 01 9D 33 06  ..3.....3.....3.
0CB0: 01 94 01 A0 33 06 01 94  01 A1 33 06 01 94 01 A2  ....3.....3.....
0CC0: 33 06 01 80 F0 FF FF 7F  80 51 33 06 01 80 70 33  3........Q3...p3
0CD0: 06 01 80 73 33 06 01 80  9C 33 06 01 80 9A 33 06  ...s3....3....3.
0CE0: 01 80 9D 33 06 01 80 A0  33 06 01 80 A1 33 06 01  ...3....3....3..
0CF0: 80 A2 33 06 01 1C 03 80  BA F0 FF FF 7F 85 80 86  ..3.............
0D00: 80 7E 80 07 80 BA 51 33  06 01 87 80 88 80 89 80  .~....Q3........
0D10: 8A 80 BA 70 33 06 01 8B  80 8C 80 73 80 07 80 BA  ...p3......s....
0D20: 73 33 06 01 8D 80 8E 80  8F 80 07 80 BA A1 33 06  s3............3.
0D30: 01 90 80 91 80 6C 80 92  80 BA A2 33 06 01 93 80  .....l.....3....
0D40: 94 80 95 80 96 80 BA 9C  33 06 01 7C 80 7D 80 7E  ........3..|.}.~
0D50: 80 7F 80 BA 9A 33 06 01  97 80 98 80 7A 80 99 80  .....3......z...
0D60: BA 9D 33 06 01 9A 80 9B  80 5E 80 9C 80 BA A0 33  ..3......^.....3
0D70: 06 01 9D 80 9E 80 7E 80  9F 80 1C 03 80 2C 73 33  ......~......,s3
0D80: 06 01 73 33 06 01 77 70  6F 31 2C 73 33 06 01 73  ..s3..wpo1,s3..s
0D90: 33 06 01 77 70 66 32 1C  03 80 4A 70 33 06 01 9A  3..wpf2...Jp3...
0DA0: 33 06 01 4A F0 FF FF 7F  9A 33 06 01 1C 03 80 5B  3..J.....3.....[
0DB0: A0 80 70 33 06 01 70 33  06 01 74 68 62 30 5B A1  ..p3..p3..thb0[.
0DC0: 80 9A 33 06 01 9A 33 06  01 72 6C 78 30 5B A2 80  ..3...3..rlx0[..
0DD0: 9C 33 06 01 9C 33 06 01  68 62 61 30 5B A3 80 A0  .3...3..hba0[...
0DE0: 33 06 01 A0 33 06 01 67  73 6E 30 5B A4 80 9D 33  3...3..gsn0[...3
0DF0: 06 01 9D 33 06 01 67 75  75 30 66 45 80 51 33 06  ...3..guu0fE.Q3.
0E00: 01 51 33 06 01 73 68 61  30 1C 03 80 7B F0 FF FF  .Q3..sha0...{...
0E10: 7F 7B 70 33 06 01 45 1A  80 F0 FF FF 7F F0 FF FF  .{p3..E.........
0E20: 7F 6A 30 34 30 07 80 1A  1A 3A 1C 39 80 5B A1 80  .j040....:.9.[..
0E30: 9A 33 06 01 9A 33 06 01  72 6C 78 31 79 00 73 33  .3...3..rlx1y.s3
0E40: 06 01 9A 33 06 01 1C 1D  80 55 1A 80 F0 FF FF 7F  ...3.....U......
0E50: F0 FF FF 7F 6A 30 34 30  27 10 51 33 06 01 0C 27  ....j040'.Q3...'
0E60: 10 A1 33 06 01 10 27 10  73 33 06 01 16 52 1A 80  ..3...'.s3...R..
0E70: F0 FF FF 7F F0 FF FF 7F  6A 30 34 30 45 1A 80 F0  ........j040E...
0E80: FF FF 7F F0 FF FF 7F 6A  30 33 30 07 80 2B 73 33  .......j030..+s3
0E90: 06 01 A5 80 23 29 10 9A  33 06 01 0B 1C 1B 80 2B  ....#)..3......+
0EA0: 9A 33 06 01 A6 80 23 4A  9A 33 06 01 73 33 06 01  .3....#J.3..s3..
0EB0: 4A F0 FF FF 7F 9A 33 06  01 52 1A 80 F0 FF FF 7F  J.....3..R......
0EC0: F0 FF FF 7F 6A 30 33 30  45 1A 80 F0 FF FF 7F F0  ....j030E.......
0ED0: FF FF 7F 6A 30 32 31 07  80 6F 76 9A 33 06 01 6E  ...j021..ov.3..n
0EE0: 9A 33 06 01 23 80 99 9A  33 06 01 2B 9A 33 06 01  .3..#...3..+.3..
0EF0: A7 80 23 5B A8 80 73 33  06 01 73 33 06 01 74 6C  ..#[..s3..s3..tl
0F00: 63 30 2B 73 33 06 01 A9  80 23 1C 03 80 52 1A 80  c0+s3....#...R..
0F10: F0 FF FF 7F F0 FF FF 7F  6A 30 32 31 45 1A 80 F0  ........j021E...
0F20: FF FF 7F F0 FF FF 7F 6A  30 32 30 07 80 1C 03 80  .......j020.....
0F30: 7B 73 33 06 01 5B AA 80  73 33 06 01 73 33 06 01  {s3..[..s3..s3..
0F40: 68 6B 61 30 2C 73 33 06  01 73 33 06 01 77 70 6F  hka0,s3..s3..wpo
0F50: 66 66 45 80 9A 33 06 01  9A 33 06 01 74 6C 6B 30  ffE..3...3..tlk0
0F60: 2B 9A 33 06 01 AB 80 23  66 45 80 9A 33 06 01 9A  +.3....#fE..3...
0F70: 33 06 01 74 6C 6B 31 52  1A 80 F0 FF FF 7F F0 FF  3..tlk1R........
0F80: FF 7F 6A 30 32 30 1A 0E  00 02 07 10 AC 80 80 A5  ..j020..........
0F90: 0F 45 1A 80 F0 FF FF 7F  F0 FF FF 7F 6A 30 32 35  .E..........j025
0FA0: 07 80 01 B6 0F 45 1A 80  F0 FF FF 7F F0 FF FF 7F  .....E..........
0FB0: 6A 30 32 38 07 80 5B 21  80 73 33 06 01 73 33 06  j028..[!.s3..s3.
0FC0: 01 74 6C 61 30 1C AD 80  5B 21 80 73 33 06 01 73  .tla0...[!.s3..s
0FD0: 33 06 01 74 6C 61 31 1C  1D 80 1A 3B 3A 1C 1B 80  3..tla1....;:...
0FE0: 52 1A 80 F0 FF FF 7F F0  FF FF 7F 6A 30 32 35 52  R..........j025R
0FF0: 1A 80 F0 FF FF 7F F0 FF  FF 7F 6A 30 32 38 1C 1B  ..........j028..
1000: 80 AB 11 07 80 1C 00 80  46 00 45 39 80 F0 FF FF  ........F.E9....
1010: 7F F0 FF FF 7F 66 64 69  32 07 80 21 00           .....fdi2..!.   
```

#### Opcodes

```
  0: 0x0C09 [0x42] SET_CLI_EVENT_CANCEL_DATA()
  1: 0x0C0A [0x1A] CALL_SUBROUTINE(address=0x3A3B)
  2: 0x0C0D [0x46] CAMERA_CONTROL: Disable user control
  3: 0x0C0F [0x38] SET_CLIENT_EVENT_MODE(mode=19*)
  4: 0x0C12 [0x27] REQ_SET(priority=0x10, entity_id=Romaa Mihgo (ID: 17183569/0x01063351), tag_num=0x18)
  5: 0x0C19 [0x27] REQ_SET(priority=0x10, entity_id=Lehko Habhoka (ID: 17183600/0x01063370), tag_num=0x04)
  6: 0x0C20 [0x27] REQ_SET(priority=0x10, entity_id=Perih Vashai (ID: 17183603/0x01063373), tag_num=0x04)
  7: 0x0C27 [0x27] REQ_SET(priority=0x10, entity_id=Koh Lenbalalako (ID: 17183644/0x0106339C), tag_num=0x04)
  8: 0x0C2E [0x27] REQ_SET(priority=0x10, entity_id=Ruah Chodran (ID: 17183642/0x0106339A), tag_num=0x04)
  9: 0x0C35 [0x27] REQ_SET(priority=0x10, entity_id=05 (ID: 17183645/0x0106339D), tag_num=0x04)
 10: 0x0C3C [0x27] REQ_SET(priority=0x10, entity_id=08 (ID: 17183648/0x010633A0), tag_num=0x04)
 11: 0x0C43 [0x27] REQ_SET(priority=0x10, entity_id=hei01 (ID: 17183649/0x010633A1), tag_num=0x04)
 12: 0x0C4A [0x27] REQ_SET(priority=0x10, entity_id=hei02 (ID: 17183650/0x010633A2), tag_num=0x04)
 13: 0x0C51 [0x92] Romaa Mihgo (ID: 17183569/0x01063351)->Render.Flags3 ^= 0x01
 14: 0x0C57 [0x92] Lehko Habhoka (ID: 17183600/0x01063370)->Render.Flags3 ^= 0x01
 15: 0x0C5D [0x92] Perih Vashai (ID: 17183603/0x01063373)->Render.Flags3 ^= 0x01
 16: 0x0C63 [0x92] Koh Lenbalalako (ID: 17183644/0x0106339C)->Render.Flags3 ^= 0x01
 17: 0x0C69 [0x92] Ruah Chodran (ID: 17183642/0x0106339A)->Render.Flags3 ^= 0x01
 18: 0x0C6F [0x92] 05 (ID: 17183645/0x0106339D)->Render.Flags3 ^= 0x01
 19: 0x0C75 [0x92] 08 (ID: 17183648/0x010633A0)->Render.Flags3 ^= 0x01
 20: 0x0C7B [0x92] hei01 (ID: 17183649/0x010633A1)->Render.Flags3 ^= 0x01
 21: 0x0C81 [0x92] hei02 (ID: 17183650/0x010633A2)->Render.Flags3 ^= 0x01
 22: 0x0C87 [0x94] LocalPlayer->Render.Flags3 ^= 0x01
 23: 0x0C8D [0x94] Romaa Mihgo (ID: 17183569/0x01063351)->Render.Flags3 ^= 0x01
 24: 0x0C93 [0x94] Lehko Habhoka (ID: 17183600/0x01063370)->Render.Flags3 ^= 0x01
 25: 0x0C99 [0x94] Perih Vashai (ID: 17183603/0x01063373)->Render.Flags3 ^= 0x01
 26: 0x0C9F [0x94] Koh Lenbalalako (ID: 17183644/0x0106339C)->Render.Flags3 ^= 0x01
 27: 0x0CA5 [0x94] Ruah Chodran (ID: 17183642/0x0106339A)->Render.Flags3 ^= 0x01
 28: 0x0CAB [0x94] 05 (ID: 17183645/0x0106339D)->Render.Flags3 ^= 0x01
 29: 0x0CB1 [0x94] 08 (ID: 17183648/0x010633A0)->Render.Flags3 ^= 0x01
 30: 0x0CB7 [0x94] hei01 (ID: 17183649/0x010633A1)->Render.Flags3 ^= 0x01
 31: 0x0CBD [0x94] hei02 (ID: 17183650/0x010633A2)->Render.Flags3 ^= 0x01
 32: 0x0CC3 [0x80] LOAD_WAIT(entity=LocalPlayer)
 33: 0x0CC8 [0x80] LOAD_WAIT(entity=Romaa Mihgo (ID: 17183569/0x01063351))
 34: 0x0CCD [0x80] LOAD_WAIT(entity=Lehko Habhoka (ID: 17183600/0x01063370))
 35: 0x0CD2 [0x80] LOAD_WAIT(entity=Perih Vashai (ID: 17183603/0x01063373))
 36: 0x0CD7 [0x80] LOAD_WAIT(entity=Koh Lenbalalako (ID: 17183644/0x0106339C))
 37: 0x0CDC [0x80] LOAD_WAIT(entity=Ruah Chodran (ID: 17183642/0x0106339A))
 38: 0x0CE1 [0x80] LOAD_WAIT(entity=05 (ID: 17183645/0x0106339D))
 39: 0x0CE6 [0x80] LOAD_WAIT(entity=08 (ID: 17183648/0x010633A0))
 40: 0x0CEB [0x80] LOAD_WAIT(entity=hei01 (ID: 17183649/0x010633A1))
 41: 0x0CF0 [0x80] LOAD_WAIT(entity=hei02 (ID: 17183650/0x010633A2))
 42: 0x0CF5 [0x1C] WAIT(5* ticks)
 43: 0x0CF8 [0xBA] SET_ENTITY_POSITION(entity_id=LocalPlayer, pos_x=42.452*, pos_z=-92.181*, pos_y=-15.995*, direction=0.0°*)
 44: 0x0D05 [0xBA] SET_ENTITY_POSITION(entity_id=Romaa Mihgo (ID: 17183569/0x01063351), pos_x=45.123*, pos_z=-93.095*, pos_y=-15.996*, direction=268.0°*)
 45: 0x0D12 [0xBA] SET_ENTITY_POSITION(entity_id=Lehko Habhoka (ID: 17183600/0x01063370), pos_x=41.759*, pos_z=-93.224*, pos_y=-15.998*, direction=0.0°*)
 46: 0x0D1F [0xBA] SET_ENTITY_POSITION(entity_id=Perih Vashai (ID: 17183603/0x01063373), pos_x=42.482*, pos_z=-96.767*, pos_y=-16.062*, direction=0.0°*)
 47: 0x0D2C [0xBA] SET_ENTITY_POSITION(entity_id=hei01 (ID: 17183649/0x010633A1), pos_x=41.739*, pos_z=-95.530*, pos_y=-16.000*, direction=358.8°*)
 48: 0x0D39 [0xBA] SET_ENTITY_POSITION(entity_id=hei02 (ID: 17183650/0x010633A2), pos_x=46.335*, pos_z=-93.226*, pos_y=-15.999*, direction=230.5°*)
 49: 0x0D46 [0xBA] SET_ENTITY_POSITION(entity_id=Koh Lenbalalako (ID: 17183644/0x0106339C), pos_x=45.916*, pos_z=-92.000*, pos_y=-15.995*, direction=83.1°*)
 50: 0x0D53 [0xBA] SET_ENTITY_POSITION(entity_id=Ruah Chodran (ID: 17183642/0x0106339A), pos_x=44.932*, pos_z=-92.130*, pos_y=-15.994*, direction=40.2°*)
 51: 0x0D60 [0xBA] SET_ENTITY_POSITION(entity_id=05 (ID: 17183645/0x0106339D), pos_x=45.799*, pos_z=-92.752*, pos_y=-15.997*, direction=251.5°*)
 52: 0x0D6D [0xBA] SET_ENTITY_POSITION(entity_id=08 (ID: 17183648/0x010633A0), pos_x=45.318*, pos_z=-92.546*, pos_y=-15.995*, direction=294.6°*)
 53: 0x0D7A [0x1C] WAIT(5* ticks)
 54: 0x0D7D [0x2C] CREATE_SCHEDULER_TASK: Create scheduler "wpo1" with entities [Perih Vashai (ID: 17183603/0x01063373), Perih Vashai (ID: 17183603/0x01063373)]
 55: 0x0D8A [0x2C] CREATE_SCHEDULER_TASK: Create scheduler "wpf2" with entities [Perih Vashai (ID: 17183603/0x01063373), Perih Vashai (ID: 17183603/0x01063373)]
 56: 0x0D97 [0x1C] WAIT(5* ticks)
 57: 0x0D9A [0x4A] Lehko Habhoka (ID: 17183600/0x01063370) looks at Ruah Chodran (ID: 17183642/0x0106339A)
 58: 0x0DA3 [0x4A] LocalPlayer looks at Ruah Chodran (ID: 17183642/0x0106339A)
 59: 0x0DAC [0x1C] WAIT(5* ticks)
 60: 0x0DAF [0x5B] LOAD_EXT_SCHEDULER: Load scheduler "thb0" with entities [Lehko Habhoka (ID: 17183600/0x01063370), Lehko Habhoka (ID: 17183600/0x01063370)], work=1446*
 61: 0x0DBE [0x5B] LOAD_EXT_SCHEDULER: Load scheduler "rlx0" with entities [Ruah Chodran (ID: 17183642/0x0106339A), Ruah Chodran (ID: 17183642/0x0106339A)], work=369*
 62: 0x0DCD [0x5B] LOAD_EXT_SCHEDULER: Load scheduler "hba0" with entities [Koh Lenbalalako (ID: 17183644/0x0106339C), Koh Lenbalalako (ID: 17183644/0x0106339C)], work=2705*
 63: 0x0DDC [0x5B] LOAD_EXT_SCHEDULER: Load scheduler "gsn0" with entities [08 (ID: 17183648/0x010633A0), 08 (ID: 17183648/0x010633A0)], work=3150*
 64: 0x0DEB [0x5B] LOAD_EXT_SCHEDULER: Load scheduler "guu0" with entities [05 (ID: 17183645/0x0106339D), 05 (ID: 17183645/0x0106339D)], work=1284*
 65: 0x0DFA [0x66] LOAD_EXT_SCHEDULER_MAIN: Load scheduler "sha0" with entities [Romaa Mihgo (ID: 17183569/0x01063351), Romaa Mihgo (ID: 17183569/0x01063351)], work=59*
 66: 0x0E09 [0x1C] WAIT(5* ticks)
 67: 0x0E0C [0x7B] LocalPlayer stops talking
 68: 0x0E11 [0x7B] Lehko Habhoka (ID: 17183600/0x01063370) stops talking
 69: 0x0E16 [0x45] LOAD_SCHEDULED_TASK: Load scheduler "j040" with entities [LocalPlayer, LocalPlayer], work=[538*, 0*]
 70: 0x0E27 [0x1A] CALL_SUBROUTINE(address=0x3A1A)
 71: 0x0E2A [0x1C] WAIT(200* ticks)
 72: 0x0E2D [0x5B] LOAD_EXT_SCHEDULER: Load scheduler "rlx1" with entities [Ruah Chodran (ID: 17183642/0x0106339A), Ruah Chodran (ID: 17183642/0x0106339A)], work=369*
 73: 0x0E3C [0x79] Perih Vashai (ID: 17183603/0x01063373) looks at Ruah Chodran (ID: 17183642/0x0106339A) (Basic look)
 74: 0x0E46 [0x1C] WAIT(60* ticks)
 75: 0x0E49 [0x55] WAIT_LOAD_SCHEDULER: Wait for scheduler "j040" with entities [LocalPlayer, LocalPlayer], work=538*
 76: 0x0E58 [0x27] REQ_SET(priority=0x10, entity_id=Romaa Mihgo (ID: 17183569/0x01063351), tag_num=0x0C)
 77: 0x0E5F [0x27] REQ_SET(priority=0x10, entity_id=hei01 (ID: 17183649/0x010633A1), tag_num=0x10)
 78: 0x0E66 [0x27] REQ_SET(priority=0x10, entity_id=Perih Vashai (ID: 17183603/0x01063373), tag_num=0x16)
 79: 0x0E6D [0x52] END_LOAD_SCHEDULER: End scheduler "j040" with entities [LocalPlayer, LocalPlayer], work=538*
 80: 0x0E7C [0x45] LOAD_SCHEDULED_TASK: Load scheduler "j030" with entities [LocalPlayer, LocalPlayer], work=[538*, 0*]
 81: 0x0E8D [0x2B] Perih Vashai (ID: 17183603/0x01063373) [8219*]:
    → "Are you safe, frrriends?"
 82: 0x0E94 [0x23] WAIT_FOR_DIALOG_INTERACTION
 83: 0x0E95 [0x29] REQ_SET_WAIT(priority=0x10, entity_id=Ruah Chodran (ID: 17183642/0x0106339A), tag_num=0x0B)
 84: 0x0E9C [0x1C] WAIT(30* ticks)
 85: 0x0E9F [0x2B] Ruah Chodran (ID: 17183642/0x0106339A) [8220*]:
    → "Could it be...Perih Vashai of the Anaconda Mercenaries!?"
 86: 0x0EA6 [0x23] WAIT_FOR_DIALOG_INTERACTION
 87: 0x0EA7 [0x4A] Ruah Chodran (ID: 17183642/0x0106339A) looks at Perih Vashai (ID: 17183603/0x01063373)
 88: 0x0EB0 [0x4A] LocalPlayer looks at Ruah Chodran (ID: 17183642/0x0106339A)
 89: 0x0EB9 [0x52] END_LOAD_SCHEDULER: End scheduler "j030" with entities [LocalPlayer, LocalPlayer], work=538*
 90: 0x0EC8 [0x45] LOAD_SCHEDULED_TASK: Load scheduler "j021" with entities [LocalPlayer, LocalPlayer], work=[538*, 0*]
 91: 0x0ED9 [0x6F] WAIT_FRAME_DELAY: Yield until WaitTime reaches zero
 92: 0x0EDA [0x76] CHECK_ENTITY_RENDER_FLAGS: Wait until Ruah Chodran (ID: 17183642/0x0106339A) Render.Flags0 and Render.Flags3 conditions are met
 93: 0x0EDF [0x6E] Ruah Chodran (ID: 17183642/0x0106339A) uses emote 7*
 94: 0x0EE6 [0x99] Wait for Ruah Chodran (ID: 17183642/0x0106339A) animation to complete
 95: 0x0EEB [0x2B] Ruah Chodran (ID: 17183642/0x0106339A) [8221*]:
    → "I...I can scarcely believe our fortune... We thought we were done forrr..."
 96: 0x0EF2 [0x23] WAIT_FOR_DIALOG_INTERACTION
 97: 0x0EF3 [0x5B] LOAD_EXT_SCHEDULER: Load scheduler "tlc0" with entities [Perih Vashai (ID: 17183603/0x01063373), Perih Vashai (ID: 17183603/0x01063373)], work=405*
 98: 0x0F02 [0x2B] Perih Vashai (ID: 17183603/0x01063373) [8222*]:
    → "You need fear no longer. Make for our camp in Meriphataud. There is food and medicine for you there."
 99: 0x0F09 [0x23] WAIT_FOR_DIALOG_INTERACTION
100: 0x0F0A [0x1C] WAIT(5* ticks)
101: 0x0F0D [0x52] END_LOAD_SCHEDULER: End scheduler "j021" with entities [LocalPlayer, LocalPlayer], work=538*
102: 0x0F1C [0x45] LOAD_SCHEDULED_TASK: Load scheduler "j020" with entities [LocalPlayer, LocalPlayer], work=[538*, 0*]
103: 0x0F2D [0x1C] WAIT(5* ticks)
104: 0x0F30 [0x7B] Perih Vashai (ID: 17183603/0x01063373) stops talking
105: 0x0F35 [0x5B] LOAD_EXT_SCHEDULER: Load scheduler "hka0" with entities [Perih Vashai (ID: 17183603/0x01063373), Perih Vashai (ID: 17183603/0x01063373)], work=2084*
106: 0x0F44 [0x2C] CREATE_SCHEDULER_TASK: Create scheduler "wpof" with entities [Perih Vashai (ID: 17183603/0x01063373), Perih Vashai (ID: 17183603/0x01063373)]
107: 0x0F51 [0x66] LOAD_EXT_SCHEDULER_MAIN: Load scheduler "tlk0" with entities [Ruah Chodran (ID: 17183642/0x0106339A), Ruah Chodran (ID: 17183642/0x0106339A)], work=59*
108: 0x0F60 [0x2B] Ruah Chodran (ID: 17183642/0x0106339A) [8223*]:
    → "Thank you...so much... Our friends...are still in captivity in the other cells... Prrromise you won't leave them behind!"
109: 0x0F67 [0x23] WAIT_FOR_DIALOG_INTERACTION
110: 0x0F68 [0x66] LOAD_EXT_SCHEDULER_MAIN: Load scheduler "tlk1" with entities [Ruah Chodran (ID: 17183642/0x0106339A), Ruah Chodran (ID: 17183642/0x0106339A)], work=59*
111: 0x0F77 [0x52] END_LOAD_SCHEDULER: End scheduler "j020" with entities [LocalPlayer, LocalPlayer], work=538*
112: 0x0F86 [0x1A] CALL_SUBROUTINE(address=0x000E)
113: 0x0F89 [0x02] IF !(Work_Zone[7] == 6*) GOTO 0x0FA5
114: 0x0F91 [0x45] LOAD_SCHEDULED_TASK: Load scheduler "j025" with entities [LocalPlayer, LocalPlayer], work=[538*, 0*]
115: 0x0FA2 [0x01] GOTO 0x0FB6
116: 0x0FA5 [0x45] LOAD_SCHEDULED_TASK: Load scheduler "j028" with entities [LocalPlayer, LocalPlayer], work=[538*, 0*]

SUBROUTINE_0FB6:
117: 0x0FB6 [0x5B] LOAD_EXT_SCHEDULER: Load scheduler "tla0" with entities [Perih Vashai (ID: 17183603/0x01063373), Perih Vashai (ID: 17183603/0x01063373)], work=2092*
118: 0x0FC5 [0x1C] WAIT(120* ticks)
119: 0x0FC8 [0x5B] LOAD_EXT_SCHEDULER: Load scheduler "tla1" with entities [Perih Vashai (ID: 17183603/0x01063373), Perih Vashai (ID: 17183603/0x01063373)], work=2092*
120: 0x0FD7 [0x1C] WAIT(60* ticks)
121: 0x0FDA [0x1A] CALL_SUBROUTINE(address=0x3A3B)
122: 0x0FDD [0x1C] WAIT(30* ticks)
123: 0x0FE0 [0x52] END_LOAD_SCHEDULER: End scheduler "j025" with entities [LocalPlayer, LocalPlayer], work=538*
124: 0x0FEF [0x52] END_LOAD_SCHEDULER: End scheduler "j028" with entities [LocalPlayer, LocalPlayer], work=538*
125: 0x0FFE [0x1C] WAIT(30* ticks)
126: 0x1001 [0xAB] EventEntity->DespawnValue = 0* // Set despawn value
127: 0x1005 [0x1C] WAIT(1* ticks)
128: 0x1008 [0x46] CAMERA_CONTROL: Restore default settings
129: 0x100A [0x45] LOAD_SCHEDULED_TASK: Load scheduler "fdi2" with entities [LocalPlayer, LocalPlayer], work=[200*, 0*]
130: 0x101B [0x21] END_EVENT
131: 0x101C [0x00] END_REQSTACK()
```

### Event 107

#### Metadata

| Field        | Value      |
|--------------|------------|
| Entrypoint   | 0x101D     |
| Data Size    | 4697 bytes |
| Instructions | 578        |

```
      00 01 02 03 04 05 06 07  08 09 0A 0B 0C 0D 0E 0F
      -- -- -- -- -- -- -- --  -- -- -- -- -- -- -- --
1010:                                         42 1A 3B               B.;
1020: 3A 46 01 38 02 80 27 10  51 33 06 01 18 27 10 70  :F.8..'.Q3...'.p
1030: 33 06 01 04 27 10 73 33  06 01 04 27 10 99 33 06  3...'.s3...'..3.
1040: 01 02 27 10 9A 33 06 01  02 27 10 9B 33 06 01 04  ..'..3...'..3...
1050: 27 10 9C 33 06 01 02 27  10 9D 33 06 01 02 27 10  '..3...'..3...'.
1060: 9E 33 06 01 04 27 10 9F  33 06 01 02 27 10 A0 33  .3...'..3...'..3
1070: 06 01 02 27 10 A1 33 06  01 04 27 10 A2 33 06 01  ...'..3...'..3..
1080: 04 2F 00 A3 33 06 01 4E  00 A3 33 06 01 92 01 51  ./..3..N..3....Q
1090: 33 06 01 92 01 70 33 06  01 92 01 73 33 06 01 92  3....p3....s3...
10A0: 01 99 33 06 01 92 01 9A  33 06 01 92 01 9B 33 06  ..3.....3.....3.
10B0: 01 92 01 9C 33 06 01 92  01 9D 33 06 01 92 01 9E  ....3.....3.....
10C0: 33 06 01 92 01 9F 33 06  01 92 01 A0 33 06 01 92  3.....3.....3...
10D0: 01 A1 33 06 01 92 01 A2  33 06 01 92 01 A3 33 06  ..3.....3.....3.
10E0: 01 94 01 F0 FF FF 7F 94  01 51 33 06 01 94 01 70  .........Q3....p
10F0: 33 06 01 94 01 73 33 06  01 94 01 99 33 06 01 94  3....s3.....3...
1100: 01 9A 33 06 01 94 01 9B  33 06 01 94 01 9C 33 06  ..3.....3.....3.
1110: 01 94 01 9D 33 06 01 94  01 9E 33 06 01 94 01 9F  ....3.....3.....
1120: 33 06 01 94 01 A0 33 06  01 94 01 A1 33 06 01 94  3.....3.....3...
1130: 01 A2 33 06 01 94 01 A3  33 06 01 80 F0 FF FF 7F  ..3.....3.......
1140: 80 51 33 06 01 80 70 33  06 01 80 73 33 06 01 80  .Q3...p3...s3...
1150: 99 33 06 01 80 9A 33 06  01 80 9B 33 06 01 80 9C  .3....3....3....
1160: 33 06 01 80 9D 33 06 01  80 9E 33 06 01 80 9F 33  3....3....3....3
1170: 06 01 80 A0 33 06 01 80  A1 33 06 01 80 A2 33 06  ....3....3....3.
1180: 01 80 A3 33 06 01 1C 03  80 BA F0 FF FF 7F 8B 80  ...3............
1190: 8C 80 73 80 07 80 BA 51  33 06 01 AE 80 AF 80 B0  ..s....Q3.......
11A0: 80 B1 80 BA 70 33 06 01  B2 80 B3 80 6C 80 B4 80  ....p3......l...
11B0: BA 73 33 06 01 8D 80 8E  80 8F 80 07 80 BA A1 33  .s3............3
11C0: 06 01 B5 80 B6 80 89 80  B7 80 BA A2 33 06 01 93  ............3...
11D0: 80 94 80 95 80 96 80 BA  9B 33 06 01 97 80 98 80  .........3......
11E0: 7A 80 B8 80 BA 9E 33 06  01 B9 80 BA 80 7E 80 BB  z.....3......~..
11F0: 80 BA A3 33 06 01 BC 80  BD 80 6C 80 BE 80 1C 03  ...3......l.....
1200: 80 4A 70 33 06 01 9B 33  06 01 4A F0 FF FF 7F 9B  .Jp3...3..J.....
1210: 33 06 01 4A 73 33 06 01  9B 33 06 01 1C 03 80 5B  3..Js3...3.....[
1220: A1 80 9B 33 06 01 9B 33  06 01 72 6C 78 30 66 45  ...3...3..rlx0fE
1230: 80 9E 33 06 01 9E 33 06  01 73 68 61 30 1C 03 80  ..3...3..sha0...
1240: 79 00 A1 33 06 01 9B 33  06 01 7B F0 FF FF 7F 7B  y..3...3..{....{
1250: 70 33 06 01 2C 73 33 06  01 73 33 06 01 77 70 6F  p3..,s3..s3..wpo
1260: 31 2C 73 33 06 01 73 33  06 01 77 70 66 32 1C 1D  1,s3..s3..wpf2..
1270: 80 27 10 51 33 06 01 0D  45 1A 80 F0 FF FF 7F F0  .'.Q3...E.......
1280: FF FF 7F 6A 31 33 30 07  80 1A 1A 3A 27 10 70 33  ...j130....:'.p3
1290: 06 01 1C 1C BF 80 2B 51  33 06 01 C0 80 23 27 10  ......+Q3....#'.
12A0: 70 33 06 01 1D 1C 1B 80  52 1A 80 F0 FF FF 7F F0  p3......R.......
12B0: FF FF 7F 6A 31 33 30 45  1A 80 F0 FF FF 7F F0 FF  ...j130E........
12C0: FF 7F 6A 30 39 30 07 80  79 00 A1 33 06 01 70 33  ..j090..y..3..p3
12D0: 06 01 2A 10 70 33 06 01  1C 1B 80 52 1A 80 F0 FF  ..*.p3.....R....
12E0: FF 7F F0 FF FF 7F 6A 30  39 30 45 1A 80 F0 FF FF  ......j090E.....
12F0: 7F F0 FF FF 7F 6A 30 39  35 07 80 1C 1B 80 2B 70  .....j095.....+p
1300: 33 06 01 C1 80 23 66 45  80 9E 33 06 01 9E 33 06  3....#fE..3...3.
1310: 01 73 69 72 31 1C C2 80  5B A1 80 9B 33 06 01 9B  .sir1...[...3...
1320: 33 06 01 72 6C 78 31 52  1A 80 F0 FF FF 7F F0 FF  3..rlx1R........
1330: FF 7F 6A 30 39 35 45 1A  80 F0 FF FF 7F F0 FF FF  ..j095E.........
1340: 7F 6A 30 31 30 07 80 1C  1B 80 5B C3 80 70 33 06  .j010.....[..p3.
1350: 01 70 33 06 01 66 64 30  30 66 45 80 9E 33 06 01  .p3..fd00fE..3..
1360: 9E 33 06 01 73 68 61 31  1C 25 80 5B C4 80 70 33  .3..sha1.%.[..p3
1370: 06 01 70 33 06 01 73 68  61 31 53 9B 33 06 01 9B  ..p3..sha1S.3...
1380: 33 06 01 72 6C 78 31 4A  9B 33 06 01 70 33 06 01  3..rlx1J.3..p3..
1390: 1C 1B 80 4A 9E 33 06 01  70 33 06 01 2B 9B 33 06  ...J.3..p3..+.3.
13A0: 01 C5 80 23 1C C2 80 52  1A 80 F0 FF FF 7F F0 FF  ...#...R........
13B0: FF 7F 6A 30 31 30 45 1A  80 F0 FF FF 7F F0 FF FF  ..j010E.........
13C0: 7F 6A 31 30 30 07 80 BB  C6 80 F0 FF FF 7F F0 FF  .j100...........
13D0: FF 7F 73 65 66 30 07 80  BB C6 80 70 33 06 01 70  ..sef0.....p3..p
13E0: 33 06 01 73 65 66 31 07  80 1C 00 80 6C 51 33 06  3..sef1.....lQ3.
13F0: 01 07 80 00 80 1C 00 80  BA 51 33 06 01 C7 80 C8  .........Q3.....
1400: 80 C9 80 CA 80 BA 9B 33  06 01 CB 80 CC 80 7A 80  .......3......z.
1410: CD 80 1C 00 80 4A 9B 33  06 01 70 33 06 01 66 45  .....J.3..p3..fE
1420: 80 51 33 06 01 51 33 06  01 73 69 72 30 1C CE 80  .Q3..Q3..sir0...
1430: 27 10 70 33 06 01 21 2B  70 33 06 01 CF 80 23 7A  '.p3..!+p3....#z
1440: 00 70 33 06 01 5B C3 80  70 33 06 01 70 33 06 01  .p3..[..p3..p3..
1450: 66 64 30 30 5B D0 80 9B  33 06 01 9B 33 06 01 69  fd00[...3...3..i
1460: 72 6F 30 1C 1B 80 52 1A  80 F0 FF FF 7F F0 FF FF  ro0...R.........
1470: 7F 6A 31 30 30 45 1A 80  F0 FF FF 7F F0 FF FF 7F  .j100E..........
1480: 6A 31 31 30 07 80 BB C6  80 F0 FF FF 7F F0 FF FF  j110............
1490: 7F 6B 69 6C 73 07 80 BB  C6 80 70 33 06 01 70 33  .kils.....p3..p3
14A0: 06 01 6B 69 6C 73 07 80  1C 00 80 4A 70 33 06 01  ..kils.....Jp3..
14B0: 9B 33 06 01 5B D0 80 9E  33 06 01 9E 33 06 01 69  .3..[...3...3..i
14C0: 72 6F 30 1C 03 80 5B C3  80 70 33 06 01 70 33 06  ro0...[..p3..p3.
14D0: 01 66 30 30 30 27 10 9B  33 06 01 0A 2B 9B 33 06  .f000'..3...+.3.
14E0: 01 D1 80 23 7C 01 9B 33  06 01 52 1A 80 F0 FF FF  ...#|..3..R.....
14F0: 7F F0 FF FF 7F 6A 31 31  30 45 1A 80 F0 FF FF 7F  .....j110E......
1500: F0 FF FF 7F 6A 31 32 36  07 80 6C 51 33 06 01 D2  ....j126..lQ3...
1510: 80 00 80 1C BF 80 27 10  51 33 06 01 0E 1C D3 80  ......'.Q3......
1520: 03 02 10 D4 80 03 03 10  D5 80 2B 51 33 06 01 D6  ..........+Q3...
1530: 80 23 5B D0 80 9B 33 06  01 9B 33 06 01 69 72 6F  .#[...3...3..iro
1540: 31 79 00 9B 33 06 01 51  33 06 01 1C 1D 80 2B 9B  1y..3..Q3.....+.
1550: 33 06 01 D7 80 23 1C 1D  80 1A 3B 3A 1C 1D 80 7B  3....#....;:...{
1560: A1 33 06 01 27 10 99 33  06 01 03 27 10 9A 33 06  .3..'..3...'..3.
1570: 01 03 27 10 9D 33 06 01  03 27 10 9C 33 06 01 03  ..'..3...'..3...
1580: 27 10 9F 33 06 01 03 27  10 A0 33 06 01 03 BA A1  '..3...'..3.....
1590: 33 06 01 D8 80 D9 80 6C  80 DA 80 BA A2 33 06 01  3......l.....3..
15A0: DB 80 DC 80 6C 80 DD 80  BA 9D 33 06 01 B5 80 B6  ....l.....3.....
15B0: 80 89 80 DE 80 BA 9E 33  06 01 93 80 94 80 95 80  .......3........
15C0: 96 80 BA 9C 33 06 01 CB  80 CC 80 7A 80 CD 80 BA  ....3......z....
15D0: 9B 33 06 01 B9 80 BA 80  7E 80 BB 80 BA 99 33 06  .3......~.....3.
15E0: 01 DF 80 E0 80 5E 80 E1  80 BA 9A 33 06 01 E2 80  .....^.....3....
15F0: E3 80 73 80 E4 80 BA 9F  33 06 01 E5 80 E6 80 6C  ..s.....3......l
1600: 80 E7 80 BA A0 33 06 01  E8 80 E9 80 73 80 EA 80  .....3......s...
1610: BA 51 33 06 01 EB 80 EC  80 6C 80 ED 80 BA 70 33  .Q3......l....p3
1620: 06 01 EE 80 EF 80 73 80  F0 80 BA 73 33 06 01 F1  ......s....s3...
1630: 80 F2 80 6C 80 F3 80 BA  F0 FF FF 7F F4 80 F5 80  ...l............
1640: 89 80 F6 80 6B 69 64 6C  30 9E 33 06 01 1C 03 80  ....kidl0.3.....
1650: 4A 9B 33 06 01 70 33 06  01 4A 9C 33 06 01 70 33  J.3..p3..J.3..p3
1660: 06 01 4A 99 33 06 01 70  33 06 01 4A 9A 33 06 01  ..J.3..p3..J.3..
1670: 70 33 06 01 4A A0 33 06  01 9D 33 06 01 7B A0 33  p3..J.3...3..{.3
1680: 06 01 5B A3 80 9D 33 06  01 9D 33 06 01 67 73 6E  ..[...3...3..gsn
1690: 30 5B F7 80 A0 33 06 01  A0 33 06 01 66 71 30 33  0[...3...3..fq03
16A0: 5B A1 80 9E 33 06 01 9E  33 06 01 72 6C 78 30 5B  [...3...3..rlx0[
16B0: 3B 80 9F 33 06 01 9F 33  06 01 67 61 6B 31 1C 03  ;..3...3..gak1..
16C0: 80 79 00 F0 FF FF 7F 9C  33 06 01 1C F8 80 52 1A  .y......3.....R.
16D0: 80 F0 FF FF 7F F0 FF FF  7F 6A 31 32 36 45 1A 80  .........j126E..
16E0: F0 FF FF 7F F0 FF FF 7F  6A 31 34 35 07 80 1A 1A  ........j145....
16F0: 3A 2B 51 33 06 01 F9 80  23 79 00 9C 33 06 01 51  :+Q3....#y..3..Q
1700: 33 06 01 27 10 9C 33 06  01 0B 1C 1B 80 52 1A 80  3..'..3......R..
1710: F0 FF FF 7F F0 FF FF 7F  6A 31 34 35 45 1A 80 F0  ........j145E...
1720: FF FF 7F F0 FF FF 7F 6A  31 34 30 07 80 1C F8 80  .......j140.....
1730: 79 02 9B 33 06 01 FA 80  39 80 1C CE 80 2B 9C 33  y..3....9....+.3
1740: 06 01 FB 80 23 79 02 9A  33 06 01 FA 80 07 80 52  ....#y..3......R
1750: 1A 80 F0 FF FF 7F F0 FF  FF 7F 6A 31 34 30 45 1A  ..........j140E.
1760: 80 F0 FF FF 7F F0 FF FF  7F 6A 31 35 30 07 80 79  .........j150..y
1770: 02 9C 33 06 01 FA 80 FA  80 1C 1B 80 79 02 99 33  ..3.........y..3
1780: 06 01 FA 80 FA 80 2B 9C  33 06 01 FC 80 23 52 1A  ......+.3....#R.
1790: 80 F0 FF FF 7F F0 FF FF  7F 6A 31 35 30 45 1A 80  .........j150E..
17A0: F0 FF FF 7F F0 FF FF 7F  6A 31 36 30 07 80 1C 1B  ........j160....
