# 17183600 - Lehko Habhoka

## Common Data

| Field            | Value                       |
|------------------|-----------------------------|
| Zone             | Castle Oztroja [S] (ID: 99) |
| Block Size       | 1204 bytes                  |
| Total Events     | 44                          |
| References Count | 83                          |

## List of Events

| Event ID                   | Entrypoint   |   Size |   Instructions |
|----------------------------|--------------|--------|----------------|
| [65535](#event-65535)      | 0x0000       |      1 |              1 |
| [65535.1](#event-655351)   | 0x0001       |      1 |              1 |
| [65535.2](#event-655352)   | 0x0002       |     18 |              4 |
| [65535.3](#event-655353)   | 0x0014       |     10 |              2 |
| [65535.4](#event-655354)   | 0x001E       |      9 |              3 |
| [65535.5](#event-655355)   | 0x0027       |      9 |              3 |
| [65535.6](#event-655356)   | 0x0030       |     10 |              2 |
| [65535.7](#event-655357)   | 0x003A       |     10 |              2 |
| [108](#event-108)          | 0x0044       |      1 |              1 |
| [110](#event-110)          | 0x0045       |      1 |              1 |
| [65535.8](#event-655358)   | 0x0046       |      4 |              2 |
| [65535.9](#event-655359)   | 0x004A       |      2 |              2 |
| [65535.10](#event-6553510) | 0x004C       |     10 |              2 |
| [65535.11](#event-6553511) | 0x0056       |     10 |              2 |
| [65535.12](#event-6553512) | 0x0060       |     14 |              4 |
| [65535.13](#event-6553513) | 0x006E       |     15 |              5 |
| [65535.14](#event-6553514) | 0x007D       |     15 |              5 |
| [65535.15](#event-6553515) | 0x008C       |     26 |              8 |
| [65535.16](#event-6553516) | 0x00A6       |     14 |              4 |
| [65535.17](#event-6553517) | 0x00B4       |      3 |              2 |
| [65535.18](#event-6553518) | 0x00B7       |     15 |              5 |
| [65535.19](#event-6553519) | 0x00C6       |     20 |              6 |
| [65535.20](#event-6553520) | 0x00DA       |     36 |             10 |
| [65535.21](#event-6553521) | 0x00FE       |     20 |              5 |
| [65535.22](#event-6553522) | 0x0112       |     35 |              6 |
| [65535.23](#event-6553523) | 0x0135       |     20 |              5 |
| [65535.24](#event-6553524) | 0x0149       |     20 |              5 |
| [65535.25](#event-6553525) | 0x015D       |     20 |              5 |
| [65535.26](#event-6553526) | 0x0171       |     20 |              5 |
| [65535.27](#event-6553527) | 0x0185       |     42 |              7 |
| [65535.28](#event-6553528) | 0x01AF       |     35 |              6 |
| [65535.29](#event-6553529) | 0x01D2       |     20 |              5 |
| [65535.30](#event-6553530) | 0x01E6       |     20 |              5 |
| [65535.31](#event-6553531) | 0x01FA       |     34 |              4 |
| [65535.32](#event-6553532) | 0x021C       |     20 |              5 |
| [65535.33](#event-6553533) | 0x0230       |     45 |              8 |
| [65535.34](#event-6553534) | 0x025D       |     68 |             11 |
| [104](#event-104)          | 0x02A1       |      1 |              1 |
| [105](#event-105)          | 0x02A2       |      1 |              1 |
| [106](#event-106)          | 0x02A3       |      1 |              1 |
| [107](#event-107)          | 0x02A4       |      1 |              1 |
| [111](#event-111)          | 0x02A5       |      1 |              1 |
| [112](#event-112)          | 0x02A6       |      1 |              1 |
| [32000](#event-32000)      | 0x02A7       |      1 |              1 |

## DAT References (imed_data)

|   Index | Hex Value   |   Dec Value |
|---------|-------------|-------------|
|       0 | 0x0000      |           0 |
|       1 | 0x0001      |           1 |
|       2 | 0x0080      |         128 |
|       3 | 0x0002      |           2 |
|       4 | 0x0028      |          40 |
|       5 | 0xFFFE7904  |  4294867204 |
|       6 | 0x1D211     |      119313 |
|       7 | 0xFFFF263A  |  4294911546 |
|       8 | 0x0026      |          38 |
|       9 | 0xFFFE7814  |  4294866964 |
|      10 | 0x1DB14     |      121620 |
|      11 | 0xFFFE789A  |  4294867098 |
|      12 | 0x1E242     |      123458 |
|      13 | 0xFFFF263B  |  4294911547 |
|      14 | 0x000B      |          11 |
|      15 | 0x1E1AC     |      123308 |
|      16 | 0xFFFE7810  |  4294866960 |
|      17 | 0x22F41     |      143169 |
|      18 | 0xFFFF13A1  |  4294906785 |
|      19 | 0x000D      |          13 |
|      20 | 0xFFFE7767  |  4294866791 |
|      21 | 0xFFFFB5E1  |  4294948321 |
|      22 | 0xFFFEE3D0  |  4294894544 |
|      23 | 0x000C      |          12 |
|      24 | 0xFFFE7EBA  |  4294868666 |
|      25 | 0x1012C     |       65836 |
|      26 | 0xFFFF09EA  |  4294904298 |
|      27 | 0xFFFE7282  |  4294865538 |
|      28 | 0xC31F      |       49951 |
|      29 | 0xFFFF0973  |  4294904179 |
|      30 | 0xFFFE7348  |  4294865736 |
|      31 | 0xDC7C      |       56444 |
|      32 | 0xFFFF099C  |  4294904220 |
|      33 | 0x0029      |          41 |
|      34 | 0xFFFCA0F3  |  4294746355 |
|      35 | 0xFFFFB056  |  4294946902 |
|      36 | 0x0111      |         273 |
|      37 | 0xFFFC9E34  |  4294745652 |
|      38 | 0xFFFFAFCE  |  4294946766 |
|      39 | 0x00F2      |         242 |
|      40 | 0x05A3      |        1443 |
|      41 | 0xFFFCD64E  |  4294760014 |
|      42 | 0xFFFFB3A4  |  4294947748 |
|      43 | 0x0045      |          69 |
|      44 | 0xFFFCFFD9  |  4294770649 |
|      45 | 0xFFFFC360  |  4294951776 |
|      46 | 0x00F9      |         249 |
|      47 | 0xA6B2      |       42674 |
|      48 | 0xFFFE8C75  |  4294872181 |
|      49 | 0xFFFFC180  |  4294951296 |
|      50 | 0xAC26      |       44070 |
|      51 | 0xFFFE9534  |  4294874420 |
|      52 | 0xFFFFC186  |  4294951302 |
|      53 | 0x0EC7      |        3783 |
|      54 | 0x0996      |        2454 |
|      55 | 0xA805      |       43013 |
|      56 | 0xFFFE7D48  |  4294868296 |
|      57 | 0xFFFFC09A  |  4294951066 |
|      58 | 0x05A6      |        1446 |
|      59 | 0xA6F5      |       42741 |
|      60 | 0xAB57      |       43863 |
|      61 | 0xFFFE851B  |  4294870299 |
|      62 | 0xFFFFC130  |  4294951216 |
|      63 | 0x05A2      |        1442 |
|      64 | 0x0096      |         150 |
|      65 | 0xFFFE7CED  |  4294868205 |
|      66 | 0xC234      |       49716 |
|      67 | 0xFFFF09DF  |  4294904287 |
|      68 | 0xFFFE7D09  |  4294868233 |
|      69 | 0xD356      |       54102 |
|      70 | 0xFFFF09EB  |  4294904299 |
|      71 | 0xFFFE7F1C  |  4294868764 |
|      72 | 0xE81D      |       59421 |
|      73 | 0xFFFF094A  |  4294904138 |
|      74 | 0xFFFE82BA  |  4294869690 |
|      75 | 0xE8B3      |       59571 |
|      76 | 0xFFFF096A  |  4294904170 |
|      77 | 0xFFFE840C  |  4294870028 |
|      78 | 0xEF08      |       61192 |
|      79 | 0xFFFF097C  |  4294904188 |
|      80 | 0xFFFE7E60  |  4294868576 |
|      81 | 0x10780     |       67456 |
|      82 | 0xFFFF09F9  |  4294904313 |

## Events

### Event 65535

#### Metadata

| Field        | Value   |
|--------------|---------|
| Entrypoint   | 0x0000  |
| Data Size    | 1 bytes |
| Instructions | 1       |

```
      00 01 02 03 04 05 06 07  08 09 0A 0B 0C 0D 0E 0F
      -- -- -- -- -- -- -- --  -- -- -- -- -- -- -- --
0000: 00                                                .               
```

#### Opcodes

```
  0: 0x0000 [0x00] END_REQSTACK()
```

### Event 65535.1

#### Metadata

| Field        | Value   |
|--------------|---------|
| Entrypoint   | 0x0001  |
| Data Size    | 1 bytes |
| Instructions | 1       |

```
      00 01 02 03 04 05 06 07  08 09 0A 0B 0C 0D 0E 0F
      -- -- -- -- -- -- -- --  -- -- -- -- -- -- -- --
0000:    00                                              .              
```

#### Opcodes

```
  0: 0x0001 [0x00] END_REQSTACK()
```

### Event 65535.2

#### Metadata

| Field        | Value    |
|--------------|----------|
| Entrypoint   | 0x0002   |
| Data Size    | 18 bytes |
| Instructions | 4        |

```
      00 01 02 03 04 05 06 07  08 09 0A 0B 0C 0D 0E 0F
      -- -- -- -- -- -- -- --  -- -- -- -- -- -- -- --
0000:       22 00 2F 00 F8 FF  FF 7F 6C F8 FF FF 7F 00    "./.....l.....
0010: 80 01 80 00                                       ....            
```

#### Opcodes

```
  0: 0x0002 [0x22] ENTITY_HIDE_FLAG(enabled=0x00)
  1: 0x0004 [0x2F] EventEntity->Render.Flags0 &= ~0x80000 // Bit 19
  2: 0x000A [0x6C] FADE_ENTITY_COLOR(entity_id=EventEntity, end_alpha=0*, fade_time=1*)
  3: 0x0013 [0x00] END_REQSTACK()
```

### Event 65535.3

#### Metadata

| Field        | Value    |
|--------------|----------|
| Entrypoint   | 0x0014   |
| Data Size    | 10 bytes |
| Instructions | 2        |

```
      00 01 02 03 04 05 06 07  08 09 0A 0B 0C 0D 0E 0F
      -- -- -- -- -- -- -- --  -- -- -- -- -- -- -- --
0010:             6C F8 FF FF  7F 02 80 01 80 00            l.........  
```

#### Opcodes

```
  0: 0x0014 [0x6C] FADE_ENTITY_COLOR(entity_id=EventEntity, end_alpha=128*, fade_time=1*)
  1: 0x001D [0x00] END_REQSTACK()
```

### Event 65535.4

#### Metadata

| Field        | Value   |
|--------------|---------|
| Entrypoint   | 0x001E  |
| Data Size    | 9 bytes |
| Instructions | 3       |

```
      00 01 02 03 04 05 06 07  08 09 0A 0B 0C 0D 0E 0F
      -- -- -- -- -- -- -- --  -- -- -- -- -- -- -- --
0010:                                            22 00                ".
0020: 2F 00 F8 FF FF 7F 00                              /......         
```

#### Opcodes

```
  0: 0x001E [0x22] ENTITY_HIDE_FLAG(enabled=0x00)
  1: 0x0020 [0x2F] EventEntity->Render.Flags0 &= ~0x80000 // Bit 19
  2: 0x0026 [0x00] END_REQSTACK()
```

### Event 65535.5

#### Metadata

| Field        | Value   |
|--------------|---------|
| Entrypoint   | 0x0027  |
| Data Size    | 9 bytes |
| Instructions | 3       |

```
      00 01 02 03 04 05 06 07  08 09 0A 0B 0C 0D 0E 0F
      -- -- -- -- -- -- -- --  -- -- -- -- -- -- -- --
0020:                      22  01 2F 01 F8 FF FF 7F 00         "./......
```

#### Opcodes

```
  0: 0x0027 [0x22] ENTITY_HIDE_FLAG(enabled=0x01)
  1: 0x0029 [0x2F] EventEntity->Render.Flags0 |= 0x80000 // Bit 19
  2: 0x002F [0x00] END_REQSTACK()
```

### Event 65535.6

#### Metadata

| Field        | Value    |
|--------------|----------|
| Entrypoint   | 0x0030   |
| Data Size    | 10 bytes |
| Instructions | 2        |

```
      00 01 02 03 04 05 06 07  08 09 0A 0B 0C 0D 0E 0F
      -- -- -- -- -- -- -- --  -- -- -- -- -- -- -- --
0030: 6C F8 FF FF 7F 00 80 01  80 00                    l.........      
```

#### Opcodes

```
  0: 0x0030 [0x6C] FADE_ENTITY_COLOR(entity_id=EventEntity, end_alpha=0*, fade_time=1*)
  1: 0x0039 [0x00] END_REQSTACK()
```

### Event 65535.7

#### Metadata

| Field        | Value    |
|--------------|----------|
| Entrypoint   | 0x003A   |
| Data Size    | 10 bytes |
| Instructions | 2        |

```
      00 01 02 03 04 05 06 07  08 09 0A 0B 0C 0D 0E 0F
      -- -- -- -- -- -- -- --  -- -- -- -- -- -- -- --
0030:                                6C F8 FF FF 7F 02            l.....
0040: 80 01 80 00                                       ....            
```

#### Opcodes

```
  0: 0x003A [0x6C] FADE_ENTITY_COLOR(entity_id=EventEntity, end_alpha=128*, fade_time=1*)
  1: 0x0043 [0x00] END_REQSTACK()
```

### Event 108

#### Metadata

| Field        | Value   |
|--------------|---------|
| Entrypoint   | 0x0044  |
| Data Size    | 1 bytes |
| Instructions | 1       |

```
      00 01 02 03 04 05 06 07  08 09 0A 0B 0C 0D 0E 0F
      -- -- -- -- -- -- -- --  -- -- -- -- -- -- -- --
0040:             00                                        .           
```

#### Opcodes

```
  0: 0x0044 [0x00] END_REQSTACK()
```

### Event 110

#### Metadata

| Field        | Value   |
|--------------|---------|
| Entrypoint   | 0x0045  |
| Data Size    | 1 bytes |
| Instructions | 1       |

```
      00 01 02 03 04 05 06 07  08 09 0A 0B 0C 0D 0E 0F
      -- -- -- -- -- -- -- --  -- -- -- -- -- -- -- --
0040:                00                                      .          
```

#### Opcodes

```
  0: 0x0045 [0x00] END_REQSTACK()
```

### Event 65535.8

#### Metadata

| Field        | Value   |
|--------------|---------|
| Entrypoint   | 0x0046  |
| Data Size    | 4 bytes |
| Instructions | 2       |

```
      00 01 02 03 04 05 06 07  08 09 0A 0B 0C 0D 0E 0F
      -- -- -- -- -- -- -- --  -- -- -- -- -- -- -- --
0040:                   95 03  80 00                          ....      
```

#### Opcodes

```
  0: 0x0046 [0x95] SETUP_EVENT_NPC: Prepare NPC for event (Render.Flags3 = 2*)
  1: 0x0049 [0x00] END_REQSTACK()
```

### Event 65535.9

#### Metadata

| Field        | Value   |
|--------------|---------|
| Entrypoint   | 0x004A  |
| Data Size    | 2 bytes |
| Instructions | 2       |

```
      00 01 02 03 04 05 06 07  08 09 0A 0B 0C 0D 0E 0F
      -- -- -- -- -- -- -- --  -- -- -- -- -- -- -- --
0040:                                96 00                        ..    
```

#### Opcodes

```
  0: 0x004A [0x96] UNSET_EVENT_NPC: Restore NPC after event (removes event NPC status)
  1: 0x004B [0x00] END_REQSTACK()
```

### Event 65535.10

#### Metadata

| Field        | Value    |
|--------------|----------|
| Entrypoint   | 0x004C   |
| Data Size    | 10 bytes |
| Instructions | 2        |

```
      00 01 02 03 04 05 06 07  08 09 0A 0B 0C 0D 0E 0F
      -- -- -- -- -- -- -- --  -- -- -- -- -- -- -- --
0040:                                      6C F8 FF FF              l...
0050: 7F 00 80 01 80 00                                 ......          
```

#### Opcodes

```
  0: 0x004C [0x6C] FADE_ENTITY_COLOR(entity_id=EventEntity, end_alpha=0*, fade_time=1*)
  1: 0x0055 [0x00] END_REQSTACK()
```

### Event 65535.11

#### Metadata

| Field        | Value    |
|--------------|----------|
| Entrypoint   | 0x0056   |
| Data Size    | 10 bytes |
| Instructions | 2        |

```
      00 01 02 03 04 05 06 07  08 09 0A 0B 0C 0D 0E 0F
      -- -- -- -- -- -- -- --  -- -- -- -- -- -- -- --
0050:                   6C F8  FF FF 7F 02 80 01 80 00        l.........
```

#### Opcodes

```
  0: 0x0056 [0x6C] FADE_ENTITY_COLOR(entity_id=EventEntity, end_alpha=128*, fade_time=1*)
  1: 0x005F [0x00] END_REQSTACK()
```

### Event 65535.12

#### Metadata

| Field        | Value    |
|--------------|----------|
| Entrypoint   | 0x0060   |
| Data Size    | 14 bytes |
| Instructions | 4        |

```
      00 01 02 03 04 05 06 07  08 09 0A 0B 0C 0D 0E 0F
      -- -- -- -- -- -- -- --  -- -- -- -- -- -- -- --
0060: 32 04 80 1F 00 05 80 06  80 07 80 1F 01 00        2.............  
```

#### Opcodes

```
  0: 0x0060 [0x32] ExtData[1]->MainSpeed = 40* * 0.1
  1: 0x0063 [0x1F] MOVE_ENTITY: EventEntity moves to X=-100.092*, Z=119.313*, Y=-55.750*
  2: 0x006B [0x1F] MOVE_ENTITY: Update entity position (mode=1)
  3: 0x006D [0x00] END_REQSTACK()
```

### Event 65535.13

#### Metadata

| Field        | Value    |
|--------------|----------|
| Entrypoint   | 0x006E   |
| Data Size    | 15 bytes |
| Instructions | 5        |

```
      00 01 02 03 04 05 06 07  08 09 0A 0B 0C 0D 0E 0F
      -- -- -- -- -- -- -- --  -- -- -- -- -- -- -- --
0060:                                            32 08                2.
0070: 80 1F 00 09 80 0A 80 07  80 1F 01 6F 00           ...........o.   
```

#### Opcodes

```
  0: 0x006E [0x32] ExtData[1]->MainSpeed = 38* * 0.1
  1: 0x0071 [0x1F] MOVE_ENTITY: EventEntity moves to X=-100.332*, Z=121.620*, Y=-55.750*
  2: 0x0079 [0x1F] MOVE_ENTITY: Update entity position (mode=1)
  3: 0x007B [0x6F] WAIT_FRAME_DELAY: Yield until WaitTime reaches zero
  4: 0x007C [0x00] END_REQSTACK()
```

### Event 65535.14

#### Metadata

| Field        | Value    |
|--------------|----------|
| Entrypoint   | 0x007D   |
| Data Size    | 15 bytes |
| Instructions | 5        |

```
      00 01 02 03 04 05 06 07  08 09 0A 0B 0C 0D 0E 0F
      -- -- -- -- -- -- -- --  -- -- -- -- -- -- -- --
0070:                                         32 08 80               2..
0080: 1F 00 0B 80 0C 80 0D 80  1F 01 6F 00              ..........o.    
```

#### Opcodes

```
  0: 0x007D [0x32] ExtData[1]->MainSpeed = 38* * 0.1
  1: 0x0080 [0x1F] MOVE_ENTITY: EventEntity moves to X=-100.198*, Z=123.458*, Y=-55.749*
  2: 0x0088 [0x1F] MOVE_ENTITY: Update entity position (mode=1)
  3: 0x008A [0x6F] WAIT_FRAME_DELAY: Yield until WaitTime reaches zero
  4: 0x008B [0x00] END_REQSTACK()
```

### Event 65535.15

#### Metadata

| Field        | Value    |
|--------------|----------|
| Entrypoint   | 0x008C   |
| Data Size    | 26 bytes |
| Instructions | 8        |

```
      00 01 02 03 04 05 06 07  08 09 0A 0B 0C 0D 0E 0F
      -- -- -- -- -- -- -- --  -- -- -- -- -- -- -- --
0080:                                      32 0E 80 1F              2...
0090: 00 0B 80 0F 80 07 80 1F  01 6F 1E F0 FF FF 7F 6F  .........o.....o
00A0: 76 F8 FF FF 7F 00                                 v.....          
```

#### Opcodes

```
  0: 0x008C [0x32] ExtData[1]->MainSpeed = 11* * 0.1
  1: 0x008F [0x1F] MOVE_ENTITY: EventEntity moves to X=-100.198*, Z=123.308*, Y=-55.750*
  2: 0x0097 [0x1F] MOVE_ENTITY: Update entity position (mode=1)
  3: 0x0099 [0x6F] WAIT_FRAME_DELAY: Yield until WaitTime reaches zero
  4: 0x009A [0x1E] EventEntity looks at LocalPlayer and starts talking
  5: 0x009F [0x6F] WAIT_FRAME_DELAY: Yield until WaitTime reaches zero
  6: 0x00A0 [0x76] CHECK_ENTITY_RENDER_FLAGS: Wait until EventEntity Render.Flags0 and Render.Flags3 conditions are met
  7: 0x00A5 [0x00] END_REQSTACK()
```

### Event 65535.16

#### Metadata

| Field        | Value    |
|--------------|----------|
| Entrypoint   | 0x00A6   |
| Data Size    | 14 bytes |
| Instructions | 4        |

```
      00 01 02 03 04 05 06 07  08 09 0A 0B 0C 0D 0E 0F
      -- -- -- -- -- -- -- --  -- -- -- -- -- -- -- --
00A0:                   32 04  80 1F 00 10 80 11 80 12        2.........
00B0: 80 1F 01 00                                       ....            
```

#### Opcodes

```
  0: 0x00A6 [0x32] ExtData[1]->MainSpeed = 40* * 0.1
  1: 0x00A9 [0x1F] MOVE_ENTITY: EventEntity moves to X=-100.336*, Z=143.169*, Y=-60.511*
  2: 0x00B1 [0x1F] MOVE_ENTITY: Update entity position (mode=1)
  3: 0x00B3 [0x00] END_REQSTACK()
```

### Event 65535.17

#### Metadata

| Field        | Value   |
|--------------|---------|
| Entrypoint   | 0x00B4  |
| Data Size    | 3 bytes |
| Instructions | 2       |

```
      00 01 02 03 04 05 06 07  08 09 0A 0B 0C 0D 0E 0F
      -- -- -- -- -- -- -- --  -- -- -- -- -- -- -- --
00B0:             A4 01 00                                  ...         
```

#### Opcodes

```
  0: 0x00B4 [0xA4] EventEntity->Flags3.unknown_3_2 = 1
  1: 0x00B6 [0x00] END_REQSTACK()
```

### Event 65535.18

#### Metadata

| Field        | Value    |
|--------------|----------|
| Entrypoint   | 0x00B7   |
| Data Size    | 15 bytes |
| Instructions | 5        |

```
      00 01 02 03 04 05 06 07  08 09 0A 0B 0C 0D 0E 0F
      -- -- -- -- -- -- -- --  -- -- -- -- -- -- -- --
00B0:                      32  13 80 1F 00 14 80 15 80         2........
00C0: 16 80 1F 01 6F 00                                 ....o.          
```

#### Opcodes

```
  0: 0x00B7 [0x32] ExtData[1]->MainSpeed = 13* * 0.1
  1: 0x00BA [0x1F] MOVE_ENTITY: EventEntity moves to X=-100.505*, Z=-18.975*, Y=-72.752*
  2: 0x00C2 [0x1F] MOVE_ENTITY: Update entity position (mode=1)
  3: 0x00C4 [0x6F] WAIT_FRAME_DELAY: Yield until WaitTime reaches zero
  4: 0x00C5 [0x00] END_REQSTACK()
```

### Event 65535.19

#### Metadata

| Field        | Value    |
|--------------|----------|
| Entrypoint   | 0x00C6   |
| Data Size    | 20 bytes |
| Instructions | 6        |

```
      00 01 02 03 04 05 06 07  08 09 0A 0B 0C 0D 0E 0F
      -- -- -- -- -- -- -- --  -- -- -- -- -- -- -- --
00C0:                   32 17  80 1F 00 18 80 19 80 1A        2.........
00D0: 80 1F 01 6F 1E 78 33 06  01 00                    ...o.x3...      
```

#### Opcodes

```
  0: 0x00C6 [0x32] ExtData[1]->MainSpeed = 12* * 0.1
  1: 0x00C9 [0x1F] MOVE_ENTITY: EventEntity moves to X=-98.630*, Z=65.836*, Y=-62.998*
  2: 0x00D1 [0x1F] MOVE_ENTITY: Update entity position (mode=1)
  3: 0x00D3 [0x6F] WAIT_FRAME_DELAY: Yield until WaitTime reaches zero
  4: 0x00D4 [0x1E] EventEntity looks at Tzee Xicu the Manifest (ID: 17183608/0x01063378) and starts talking
  5: 0x00D9 [0x00] END_REQSTACK()
```

### Event 65535.20

#### Metadata

| Field        | Value    |
|--------------|----------|
| Entrypoint   | 0x00DA   |
| Data Size    | 36 bytes |
| Instructions | 10       |

```
      00 01 02 03 04 05 06 07  08 09 0A 0B 0C 0D 0E 0F
      -- -- -- -- -- -- -- --  -- -- -- -- -- -- -- --
00D0:                                32 08 80 5A 00 1B            2..Z..
00E0: 80 1C 80 1D 80 5A 01 1F  00 1E 80 1F 80 20 80 1F  .....Z....... ..
00F0: 01 6F 1E 77 33 06 01 6F  76 F8 FF FF 7F 00        .o.w3..ov.....  
```

#### Opcodes

```
  0: 0x00DA [0x32] ExtData[1]->MainSpeed = 38* * 0.1
  1: 0x00DD [0x5A] UPDATE_EVENT_POSITION: Set EventEntity MovePosition to X=-101.758*, Z=49.951*, Y=-63.117*
  2: 0x00E5 [0x5A] UPDATE_EVENT_POSITION: Move EventEntity incrementally towards MovePosition
  3: 0x00E7 [0x1F] MOVE_ENTITY: EventEntity moves to X=-101.560*, Z=56.444*, Y=-63.076*
  4: 0x00EF [0x1F] MOVE_ENTITY: Update entity position (mode=1)
  5: 0x00F1 [0x6F] WAIT_FRAME_DELAY: Yield until WaitTime reaches zero
  6: 0x00F2 [0x1E] EventEntity looks at Fenrir (ID: 17183607/0x01063377) and starts talking
  7: 0x00F7 [0x6F] WAIT_FRAME_DELAY: Yield until WaitTime reaches zero
  8: 0x00F8 [0x76] CHECK_ENTITY_RENDER_FLAGS: Wait until EventEntity Render.Flags0 and Render.Flags3 conditions are met
  9: 0x00FD [0x00] END_REQSTACK()
```

### Event 65535.21

#### Metadata

| Field        | Value    |
|--------------|----------|
| Entrypoint   | 0x00FE   |
| Data Size    | 20 bytes |
| Instructions | 5        |

```
      00 01 02 03 04 05 06 07  08 09 0A 0B 0C 0D 0E 0F
      -- -- -- -- -- -- -- --  -- -- -- -- -- -- -- --
00F0:                                            59 04                Y.
0100: F8 FF FF 7F 21 80 1F 00  22 80 23 80 24 80 1F 01  ....!...".#.$...
0110: 6F 00                                             o.              
```

#### Opcodes

```
  0: 0x00FE [0x59] UPDATE_ENTITY_DATA: Set EventEntity main speed = 41* * 0.1
  1: 0x0106 [0x1F] MOVE_ENTITY: EventEntity moves to X=-220.941*, Z=-20.394*, Y=0.273*
  2: 0x010E [0x1F] MOVE_ENTITY: Update entity position (mode=1)
  3: 0x0110 [0x6F] WAIT_FRAME_DELAY: Yield until WaitTime reaches zero
  4: 0x0111 [0x00] END_REQSTACK()
```

### Event 65535.22

#### Metadata

| Field        | Value    |
|--------------|----------|
| Entrypoint   | 0x0112   |
| Data Size    | 35 bytes |
| Instructions | 6        |

```
      00 01 02 03 04 05 06 07  08 09 0A 0B 0C 0D 0E 0F
      -- -- -- -- -- -- -- --  -- -- -- -- -- -- -- --
0110:       59 04 F8 FF FF 7F  13 80 1F 00 25 80 26 80    Y.........%.&.
0120: 27 80 1F 01 6F 5B 28 80  F8 FF FF 7F F8 FF FF 7F  '...o[(.........
0130: 74 6C 62 30 00                                    tlb0.           
```

#### Opcodes

```
  0: 0x0112 [0x59] UPDATE_ENTITY_DATA: Set EventEntity main speed = 13* * 0.1
  1: 0x011A [0x1F] MOVE_ENTITY: EventEntity moves to X=-221.644*, Z=-20.530*, Y=0.242*
  2: 0x0122 [0x1F] MOVE_ENTITY: Update entity position (mode=1)
  3: 0x0124 [0x6F] WAIT_FRAME_DELAY: Yield until WaitTime reaches zero
  4: 0x0125 [0x5B] LOAD_EXT_SCHEDULER: Load scheduler "tlb0" with entities [EventEntity, EventEntity], work=1443*
  5: 0x0134 [0x00] END_REQSTACK()
```

### Event 65535.23

#### Metadata

| Field        | Value    |
|--------------|----------|
| Entrypoint   | 0x0135   |
| Data Size    | 20 bytes |
| Instructions | 5        |

```
      00 01 02 03 04 05 06 07  08 09 0A 0B 0C 0D 0E 0F
      -- -- -- -- -- -- -- --  -- -- -- -- -- -- -- --
0130:                59 04 F8  FF FF 7F 21 80 1F 00 22       Y.....!..."
0140: 80 23 80 24 80 1F 01 6F  00                       .#.$...o.       
```

#### Opcodes

```
  0: 0x0135 [0x59] UPDATE_ENTITY_DATA: Set EventEntity main speed = 41* * 0.1
  1: 0x013D [0x1F] MOVE_ENTITY: EventEntity moves to X=-220.941*, Z=-20.394*, Y=0.273*
  2: 0x0145 [0x1F] MOVE_ENTITY: Update entity position (mode=1)
  3: 0x0147 [0x6F] WAIT_FRAME_DELAY: Yield until WaitTime reaches zero
  4: 0x0148 [0x00] END_REQSTACK()
```

### Event 65535.24

#### Metadata

| Field        | Value    |
|--------------|----------|
| Entrypoint   | 0x0149   |
| Data Size    | 20 bytes |
| Instructions | 5        |

```
      00 01 02 03 04 05 06 07  08 09 0A 0B 0C 0D 0E 0F
      -- -- -- -- -- -- -- --  -- -- -- -- -- -- -- --
0140:                             59 04 F8 FF FF 7F 04           Y......
0150: 80 1F 00 29 80 2A 80 2B  80 1F 01 6F 00           ...).*.+...o.   
```

#### Opcodes

```
  0: 0x0149 [0x59] UPDATE_ENTITY_DATA: Set EventEntity main speed = 40* * 0.1
  1: 0x0151 [0x1F] MOVE_ENTITY: EventEntity moves to X=-207.282*, Z=-19.548*, Y=0.069*
  2: 0x0159 [0x1F] MOVE_ENTITY: Update entity position (mode=1)
  3: 0x015B [0x6F] WAIT_FRAME_DELAY: Yield until WaitTime reaches zero
  4: 0x015C [0x00] END_REQSTACK()
```

### Event 65535.25

#### Metadata

| Field        | Value    |
|--------------|----------|
| Entrypoint   | 0x015D   |
| Data Size    | 20 bytes |
| Instructions | 5        |

```
      00 01 02 03 04 05 06 07  08 09 0A 0B 0C 0D 0E 0F
      -- -- -- -- -- -- -- --  -- -- -- -- -- -- -- --
0150:                                         59 04 F8               Y..
0160: FF FF 7F 04 80 1F 00 2C  80 2D 80 2E 80 1F 01 6F  .......,.-.....o
0170: 00                                                .               
```

#### Opcodes

```
  0: 0x015D [0x59] UPDATE_ENTITY_DATA: Set EventEntity main speed = 40* * 0.1
  1: 0x0165 [0x1F] MOVE_ENTITY: EventEntity moves to X=-196.647*, Z=-15.520*, Y=0.249*
  2: 0x016D [0x1F] MOVE_ENTITY: Update entity position (mode=1)
  3: 0x016F [0x6F] WAIT_FRAME_DELAY: Yield until WaitTime reaches zero
  4: 0x0170 [0x00] END_REQSTACK()
```

### Event 65535.26

#### Metadata

| Field        | Value    |
|--------------|----------|
| Entrypoint   | 0x0171   |
| Data Size    | 20 bytes |
| Instructions | 5        |

```
      00 01 02 03 04 05 06 07  08 09 0A 0B 0C 0D 0E 0F
      -- -- -- -- -- -- -- --  -- -- -- -- -- -- -- --
0170:    59 04 F8 FF FF 7F 13  80 1F 00 2F 80 30 80 31   Y........./.0.1
0180: 80 1F 01 6F 00                                    ...o.           
```

#### Opcodes

```
  0: 0x0171 [0x59] UPDATE_ENTITY_DATA: Set EventEntity main speed = 13* * 0.1
  1: 0x0179 [0x1F] MOVE_ENTITY: EventEntity moves to X=42.674*, Z=-95.115*, Y=-16.000*
  2: 0x0181 [0x1F] MOVE_ENTITY: Update entity position (mode=1)
  3: 0x0183 [0x6F] WAIT_FRAME_DELAY: Yield until WaitTime reaches zero
  4: 0x0184 [0x00] END_REQSTACK()
```

### Event 65535.27

#### Metadata

| Field        | Value    |
|--------------|----------|
| Entrypoint   | 0x0185   |
| Data Size    | 42 bytes |
| Instructions | 7        |

```
      00 01 02 03 04 05 06 07  08 09 0A 0B 0C 0D 0E 0F
      -- -- -- -- -- -- -- --  -- -- -- -- -- -- -- --
0180:                59 04 F8  FF FF 7F 13 80 1F 00 32       Y.........2
0190: 80 33 80 34 80 1F 01 6F  4B F8 FF FF 7F 35 80 5B  .3.4...oK....5.[
01A0: 36 80 F8 FF FF 7F F8 FF  FF 7F 73 68 61 30 00     6.........sha0. 
```

#### Opcodes

```
  0: 0x0185 [0x59] UPDATE_ENTITY_DATA: Set EventEntity main speed = 13* * 0.1
  1: 0x018D [0x1F] MOVE_ENTITY: EventEntity moves to X=44.070*, Z=-92.876*, Y=-15.994*
  2: 0x0195 [0x1F] MOVE_ENTITY: Update entity position (mode=1)
  3: 0x0197 [0x6F] WAIT_FRAME_DELAY: Yield until WaitTime reaches zero
  4: 0x0198 [0x4B] UPDATE_ENTITY_YAW(entity=EventEntity, yaw=20.8°*)
  5: 0x019F [0x5B] LOAD_EXT_SCHEDULER: Load scheduler "sha0" with entities [EventEntity, EventEntity], work=2454*
  6: 0x01AE [0x00] END_REQSTACK()
```

### Event 65535.28

#### Metadata

| Field        | Value    |
|--------------|----------|
| Entrypoint   | 0x01AF   |
| Data Size    | 35 bytes |
| Instructions | 6        |

```
      00 01 02 03 04 05 06 07  08 09 0A 0B 0C 0D 0E 0F
      -- -- -- -- -- -- -- --  -- -- -- -- -- -- -- --
01A0:                                               59                 Y
01B0: 04 F8 FF FF 7F 13 80 1F  00 37 80 38 80 39 80 1F  .........7.8.9..
01C0: 01 6F 5B 3A 80 F8 FF FF  7F F8 FF FF 7F 74 68 62  .o[:.........thb
01D0: 30 00                                             0.              
```

#### Opcodes

```
  0: 0x01AF [0x59] UPDATE_ENTITY_DATA: Set EventEntity main speed = 13* * 0.1
  1: 0x01B7 [0x1F] MOVE_ENTITY: EventEntity moves to X=43.013*, Z=-99.000*, Y=-16.230*
  2: 0x01BF [0x1F] MOVE_ENTITY: Update entity position (mode=1)
  3: 0x01C1 [0x6F] WAIT_FRAME_DELAY: Yield until WaitTime reaches zero
  4: 0x01C2 [0x5B] LOAD_EXT_SCHEDULER: Load scheduler "thb0" with entities [EventEntity, EventEntity], work=1446*
  5: 0x01D1 [0x00] END_REQSTACK()
```

### Event 65535.29

#### Metadata

| Field        | Value    |
|--------------|----------|
| Entrypoint   | 0x01D2   |
| Data Size    | 20 bytes |
| Instructions | 5        |

```
      00 01 02 03 04 05 06 07  08 09 0A 0B 0C 0D 0E 0F
      -- -- -- -- -- -- -- --  -- -- -- -- -- -- -- --
01D0:       59 04 F8 FF FF 7F  13 80 1F 00 3B 80 38 80    Y.........;.8.
01E0: 31 80 1F 01 6F 00                                 1...o.          
```

#### Opcodes

```
  0: 0x01D2 [0x59] UPDATE_ENTITY_DATA: Set EventEntity main speed = 13* * 0.1
  1: 0x01DA [0x1F] MOVE_ENTITY: EventEntity moves to X=42.741*, Z=-99.000*, Y=-16.000*
  2: 0x01E2 [0x1F] MOVE_ENTITY: Update entity position (mode=1)
  3: 0x01E4 [0x6F] WAIT_FRAME_DELAY: Yield until WaitTime reaches zero
  4: 0x01E5 [0x00] END_REQSTACK()
```

### Event 65535.30

#### Metadata

| Field        | Value    |
|--------------|----------|
| Entrypoint   | 0x01E6   |
| Data Size    | 20 bytes |
| Instructions | 5        |

```
      00 01 02 03 04 05 06 07  08 09 0A 0B 0C 0D 0E 0F
      -- -- -- -- -- -- -- --  -- -- -- -- -- -- -- --
01E0:                   59 04  F8 FF FF 7F 13 80 1F 00        Y.........
01F0: 3C 80 3D 80 3E 80 1F 01  6F 00                    <.=.>...o.      
```

#### Opcodes

```
  0: 0x01E6 [0x59] UPDATE_ENTITY_DATA: Set EventEntity main speed = 13* * 0.1
  1: 0x01EE [0x1F] MOVE_ENTITY: EventEntity moves to X=43.863*, Z=-96.997*, Y=-16.080*
  2: 0x01F6 [0x1F] MOVE_ENTITY: Update entity position (mode=1)
  3: 0x01F8 [0x6F] WAIT_FRAME_DELAY: Yield until WaitTime reaches zero
  4: 0x01F9 [0x00] END_REQSTACK()
```

### Event 65535.31

#### Metadata

| Field        | Value    |
|--------------|----------|
| Entrypoint   | 0x01FA   |
| Data Size    | 34 bytes |
| Instructions | 4        |

```
      00 01 02 03 04 05 06 07  08 09 0A 0B 0C 0D 0E 0F
      -- -- -- -- -- -- -- --  -- -- -- -- -- -- -- --
01F0:                                5B 3F 80 F8 FF FF            [?....
0200: 7F F8 FF FF 7F 66 64 30  31 1C 40 80 5B 3F 80 F8  .....fd01.@.[?..
0210: FF FF 7F F8 FF FF 7F 66  64 30 30 00              .......fd00.    
```

#### Opcodes

```
  0: 0x01FA [0x5B] LOAD_EXT_SCHEDULER: Load scheduler "fd01" with entities [EventEntity, EventEntity], work=1442*
  1: 0x0209 [0x1C] WAIT(150* ticks)
  2: 0x020C [0x5B] LOAD_EXT_SCHEDULER: Load scheduler "fd00" with entities [EventEntity, EventEntity], work=1442*
  3: 0x021B [0x00] END_REQSTACK()
```

### Event 65535.32

#### Metadata

| Field        | Value    |
|--------------|----------|
| Entrypoint   | 0x021C   |
| Data Size    | 20 bytes |
| Instructions | 5        |

```
      00 01 02 03 04 05 06 07  08 09 0A 0B 0C 0D 0E 0F
      -- -- -- -- -- -- -- --  -- -- -- -- -- -- -- --
0210:                                      59 04 F8 FF              Y...
0220: FF 7F 04 80 1F 00 41 80  42 80 43 80 1F 01 6F 00  ......A.B.C...o.
```

#### Opcodes

```
  0: 0x021C [0x59] UPDATE_ENTITY_DATA: Set EventEntity main speed = 40* * 0.1
  1: 0x0224 [0x1F] MOVE_ENTITY: EventEntity moves to X=-99.091*, Z=49.716*, Y=-63.009*
  2: 0x022C [0x1F] MOVE_ENTITY: Update entity position (mode=1)
  3: 0x022E [0x6F] WAIT_FRAME_DELAY: Yield until WaitTime reaches zero
  4: 0x022F [0x00] END_REQSTACK()
```

### Event 65535.33

#### Metadata

| Field        | Value    |
|--------------|----------|
| Entrypoint   | 0x0230   |
| Data Size    | 45 bytes |
| Instructions | 8        |

```
      00 01 02 03 04 05 06 07  08 09 0A 0B 0C 0D 0E 0F
      -- -- -- -- -- -- -- --  -- -- -- -- -- -- -- --
0230: 59 04 F8 FF FF 7F 13 80  1F 00 44 80 45 80 46 80  Y.........D.E.F.
0240: 1F 01 1F 00 47 80 48 80  49 80 1F 01 6F 5B 36 80  ....G.H.I...o[6.
0250: F8 FF FF 7F F8 FF FF 7F  73 68 61 30 00           ........sha0.   
```

#### Opcodes

```
  0: 0x0230 [0x59] UPDATE_ENTITY_DATA: Set EventEntity main speed = 13* * 0.1
  1: 0x0238 [0x1F] MOVE_ENTITY: EventEntity moves to X=-99.063*, Z=54.102*, Y=-62.997*
  2: 0x0240 [0x1F] MOVE_ENTITY: Update entity position (mode=1)
  3: 0x0242 [0x1F] MOVE_ENTITY: EventEntity moves to X=-98.532*, Z=59.421*, Y=-63.158*
  4: 0x024A [0x1F] MOVE_ENTITY: Update entity position (mode=1)
  5: 0x024C [0x6F] WAIT_FRAME_DELAY: Yield until WaitTime reaches zero
  6: 0x024D [0x5B] LOAD_EXT_SCHEDULER: Load scheduler "sha0" with entities [EventEntity, EventEntity], work=2454*
  7: 0x025C [0x00] END_REQSTACK()
```

### Event 65535.34

#### Metadata

| Field        | Value    |
|--------------|----------|
| Entrypoint   | 0x025D   |
| Data Size    | 68 bytes |
| Instructions | 11       |

```
      00 01 02 03 04 05 06 07  08 09 0A 0B 0C 0D 0E 0F
      -- -- -- -- -- -- -- --  -- -- -- -- -- -- -- --
0250:                                         5B 36 80               [6.
0260: F8 FF FF 7F F8 FF FF 7F  73 68 61 31 53 F8 FF FF  ........sha1S...
0270: 7F F8 FF FF 7F 73 68 61  31 59 04 F8 FF FF 7F 13  .....sha1Y......
0280: 80 1F 00 4A 80 4B 80 4C  80 1F 01 1F 00 4D 80 4E  ...J.K.L.....M.N
0290: 80 4F 80 1F 01 1F 00 50  80 51 80 52 80 1F 01 6F  .O.....P.Q.R...o
02A0: 00                                                .               
```

#### Opcodes

```
  0: 0x025D [0x5B] LOAD_EXT_SCHEDULER: Load scheduler "sha1" with entities [EventEntity, EventEntity], work=2454*
  1: 0x026C [0x53] WAIT_SCHEDULER_TASK: Wait for scheduler "sha1" with entities [EventEntity, EventEntity]
  2: 0x0279 [0x59] UPDATE_ENTITY_DATA: Set EventEntity main speed = 13* * 0.1
  3: 0x0281 [0x1F] MOVE_ENTITY: EventEntity moves to X=-97.606*, Z=59.571*, Y=-63.126*
  4: 0x0289 [0x1F] MOVE_ENTITY: Update entity position (mode=1)
  5: 0x028B [0x1F] MOVE_ENTITY: EventEntity moves to X=-97.268*, Z=61.192*, Y=-63.108*
  6: 0x0293 [0x1F] MOVE_ENTITY: Update entity position (mode=1)
  7: 0x0295 [0x1F] MOVE_ENTITY: EventEntity moves to X=-98.720*, Z=67.456*, Y=-62.983*
  8: 0x029D [0x1F] MOVE_ENTITY: Update entity position (mode=1)
  9: 0x029F [0x6F] WAIT_FRAME_DELAY: Yield until WaitTime reaches zero
 10: 0x02A0 [0x00] END_REQSTACK()
```

### Event 104

#### Metadata

| Field        | Value   |
|--------------|---------|
| Entrypoint   | 0x02A1  |
| Data Size    | 1 bytes |
| Instructions | 1       |

```
      00 01 02 03 04 05 06 07  08 09 0A 0B 0C 0D 0E 0F
      -- -- -- -- -- -- -- --  -- -- -- -- -- -- -- --
02A0:    00                                              .              
```

#### Opcodes

```
  0: 0x02A1 [0x00] END_REQSTACK()
```

### Event 105

#### Metadata

| Field        | Value   |
|--------------|---------|
| Entrypoint   | 0x02A2  |
| Data Size    | 1 bytes |
| Instructions | 1       |

```
      00 01 02 03 04 05 06 07  08 09 0A 0B 0C 0D 0E 0F
      -- -- -- -- -- -- -- --  -- -- -- -- -- -- -- --
02A0:       00                                            .             
```

#### Opcodes

```
  0: 0x02A2 [0x00] END_REQSTACK()
```

### Event 106

#### Metadata

| Field        | Value   |
|--------------|---------|
| Entrypoint   | 0x02A3  |
| Data Size    | 1 bytes |
| Instructions | 1       |

```
      00 01 02 03 04 05 06 07  08 09 0A 0B 0C 0D 0E 0F
      -- -- -- -- -- -- -- --  -- -- -- -- -- -- -- --
02A0:          00                                          .            
```

#### Opcodes

```
  0: 0x02A3 [0x00] END_REQSTACK()
```

### Event 107

#### Metadata

| Field        | Value   |
|--------------|---------|
| Entrypoint   | 0x02A4  |
| Data Size    | 1 bytes |
| Instructions | 1       |

```
      00 01 02 03 04 05 06 07  08 09 0A 0B 0C 0D 0E 0F
      -- -- -- -- -- -- -- --  -- -- -- -- -- -- -- --
02A0:             00                                        .           
```

#### Opcodes

```
  0: 0x02A4 [0x00] END_REQSTACK()
```

### Event 111

#### Metadata

| Field        | Value   |
|--------------|---------|
| Entrypoint   | 0x02A5  |
| Data Size    | 1 bytes |
| Instructions | 1       |

```
      00 01 02 03 04 05 06 07  08 09 0A 0B 0C 0D 0E 0F
      -- -- -- -- -- -- -- --  -- -- -- -- -- -- -- --
02A0:                00                                      .          
```

#### Opcodes

```
  0: 0x02A5 [0x00] END_REQSTACK()
```

### Event 112

#### Metadata

| Field        | Value   |
|--------------|---------|
| Entrypoint   | 0x02A6  |
| Data Size    | 1 bytes |
| Instructions | 1       |

```
      00 01 02 03 04 05 06 07  08 09 0A 0B 0C 0D 0E 0F
      -- -- -- -- -- -- -- --  -- -- -- -- -- -- -- --
02A0:                   00                                    .         
```

#### Opcodes

```
  0: 0x02A6 [0x00] END_REQSTACK()
```

### Event 32000

#### Metadata

| Field        | Value   |
|--------------|---------|
| Entrypoint   | 0x02A7  |
| Data Size    | 1 bytes |
| Instructions | 1       |

```
      00 01 02 03 04 05 06 07  08 09 0A 0B 0C 0D 0E 0F
      -- -- -- -- -- -- -- --  -- -- -- -- -- -- -- --
02A0:                      00                                  .        
```

#### Opcodes

```
  0: 0x02A7 [0x00] END_REQSTACK()
```
