# 0x7FFFFFF0 - Zone Events

## Common Data

| Field            | Value                       |
|------------------|-----------------------------|
| Zone             | Castle Oztroja [S] (ID: 99) |
| Block Size       | 7908 bytes                  |
| Total Events     | 49                          |
| References Count | 239                         |

## List of Events

| Event ID                   | Entrypoint   |   Size |   Instructions |
|----------------------------|--------------|--------|----------------|
| [65535](#event-65535)      | 0x0000       |      1 |              1 |
| [65534](#event-65534)      | 0x0001       |      1 |              1 |
| [32000](#event-32000)      | 0x0002       |   2162 |            413 |
| [32002](#event-32002)      | 0x0874       |    494 |             83 |
| [32001](#event-32001)      | 0x0A62       |    819 |            139 |
| [32003](#event-32003)      | 0x0D95       |    435 |             77 |
| [32004](#event-32004)      | 0x0F48       |   1655 |            240 |
| [65535.1](#event-655351)   | 0x15BF       |     29 |              7 |
| [65535.2](#event-655352)   | 0x15DC       |      6 |              2 |
| [65535.3](#event-655353)   | 0x15E2       |      6 |              2 |
| [65535.4](#event-655354)   | 0x15E8       |      7 |              3 |
| [65535.5](#event-655355)   | 0x15EF       |      7 |              3 |
| [65535.6](#event-655356)   | 0x15F6       |     37 |              5 |
| [65535.7](#event-655357)   | 0x161B       |    185 |             37 |
| [65535.8](#event-655358)   | 0x16D4       |     24 |              4 |
| [65535.9](#event-655359)   | 0x16EC       |     24 |              4 |
| [65535.10](#event-6553510) | 0x1704       |     38 |              5 |
| [65535.11](#event-6553511) | 0x172A       |     38 |              5 |
| [65535.12](#event-6553512) | 0x1750       |     38 |              5 |
| [65535.13](#event-6553513) | 0x1776       |     37 |              5 |
| [65535.14](#event-6553514) | 0x179B       |     37 |              5 |
| [65535.15](#event-6553515) | 0x17C0       |     42 |              6 |
| [65535.16](#event-6553516) | 0x17EA       |     15 |              5 |
| [65535.17](#event-6553517) | 0x17F9       |     42 |              6 |
| [65535.18](#event-6553518) | 0x1823       |     29 |              5 |
| [65535.19](#event-6553519) | 0x1840       |     24 |              6 |
| [65535.20](#event-6553520) | 0x1858       |     29 |              9 |
| [65535.21](#event-6553521) | 0x1875       |     14 |              4 |
| [65535.22](#event-6553522) | 0x1883       |     20 |              6 |
| [65535.23](#event-6553523) | 0x1897       |     10 |              2 |
| [65535.24](#event-6553524) | 0x18A1       |     10 |              2 |
| [65535.25](#event-6553525) | 0x18AB       |     19 |              5 |
| [65535.26](#event-6553526) | 0x18BE       |     16 |              4 |
| [65535.27](#event-6553527) | 0x18CE       |     30 |              8 |
| [65535.28](#event-6553528) | 0x18EC       |     30 |              7 |
| [65535.29](#event-6553529) | 0x190A       |     20 |              5 |
| [65535.30](#event-6553530) | 0x191E       |     20 |              5 |
| [65535.31](#event-6553531) | 0x1932       |     29 |              6 |
| [65535.32](#event-6553532) | 0x194F       |     29 |              5 |
| [65535.33](#event-6553533) | 0x196C       |     30 |              7 |
| [65535.34](#event-6553534) | 0x198A       |     37 |              8 |
| [65535.35](#event-6553535) | 0x19AF       |     44 |              9 |
| [65535.36](#event-6553536) | 0x19DB       |     27 |              6 |
| [65535.37](#event-6553537) | 0x19F6       |     20 |              5 |
| [65535.38](#event-6553538) | 0x1A0A       |     20 |              5 |
| [65535.39](#event-6553539) | 0x1A1E       |     20 |              5 |
| [65535.40](#event-6553540) | 0x1A32       |     20 |              5 |
| [65535.41](#event-6553541) | 0x1A46       |      7 |              3 |
| [65535.42](#event-6553542) | 0x1A4D       |      7 |              3 |

## DAT References (imed_data)

|   Index | Hex Value   |   Dec Value |
|---------|-------------|-------------|
|       0 | 0x0000      |           0 |
|       1 | 0x000F      |          15 |
|       2 | 0x0010      |          16 |
|       3 | 0x001F      |          31 |
|       4 | 0xFFFFFFFF  |  4294967295 |
|       5 | 0x0001      |           1 |
|       6 | 0x1F86      |        8070 |
|       7 | 0x1F79      |        8057 |
|       8 | 0x0005      |           5 |
|       9 | 0x0002      |           2 |
|      10 | 0x0003      |           3 |
|      11 | 0x0004      |           4 |
|      12 | 0x1E0A      |        7690 |
|      13 | 0x00FF      |         255 |
|      14 | 0x00C8      |         200 |
|      15 | 0x0013      |          19 |
|      16 | 0x0008      |           8 |
|      17 | 0x0009      |           9 |
|      18 | 0x000B      |          11 |
|      19 | 0xFFFC0872  |  4294707314 |
|      20 | 0x6025B     |      393819 |
|      21 | 0xFFFDEDBA  |  4294831546 |
|      22 | 0x0C00      |        3072 |
|      23 | 0x4E2F      |       20015 |
|      24 | 0x60284     |      393860 |
|      25 | 0xFFFCB53B  |  4294751547 |
|      26 | 0x493F2     |      300018 |
|      27 | 0x6028F     |      393871 |
|      28 | 0xFFFB7CBB  |  4294671547 |
|      29 | 0x1E15      |        7701 |
|      30 | 0x1E16      |        7702 |
|      31 | 0x1E17      |        7703 |
|      32 | 0x1E18      |        7704 |
|      33 | 0x1E3C      |        7740 |
|      34 | 0x0006      |           6 |
|      35 | 0x0012      |          18 |
|      36 | 0x0007      |           7 |
|      37 | 0x000A      |          10 |
|      38 | 0x000C      |          12 |
|      39 | 0x000D      |          13 |
|      40 | 0x000E      |          14 |
|      41 | 0x0011      |          17 |
|      42 | 0x0014      |          20 |
|      43 | 0x0015      |          21 |
|      44 | 0x0016      |          22 |
|      45 | 0x0017      |          23 |
|      46 | 0x0018      |          24 |
|      47 | 0x0019      |          25 |
|      48 | 0x001A      |          26 |
|      49 | 0x001B      |          27 |
|      50 | 0x001C      |          28 |
|      51 | 0x001D      |          29 |
|      52 | 0x001E      |          30 |
|      53 | 0x1F71      |        8049 |
|      54 | 0x003C      |          60 |
|      55 | 0x0064      |         100 |
|      56 | 0x1F5D      |        8029 |
|      57 | 0x00D9      |         217 |
|      58 | 0x1E0D      |        7693 |
|      59 | 0x00C9      |         201 |
|      60 | 0x00B4      |         180 |
|      61 | 0xFFF6C42B  |  4294362155 |
|      62 | 0x752B9     |      479929 |
|      63 | 0xFFFFA767  |  4294944615 |
|      64 | 0x03E0      |         992 |
|      65 | 0xFFFBFE43  |  4294704707 |
|      66 | 0x5C401     |      377857 |
|      67 | 0xFFFDE79F  |  4294829983 |
|      68 | 0x0D92      |        3474 |
|      69 | 0x47AC      |       18348 |
|      70 | 0x76E1C     |      486940 |
|      71 | 0xFFFC93B2  |  4294742962 |
|      72 | 0x00C2      |         194 |
|      73 | 0x388A9     |      231593 |
|      74 | 0x57E9E     |      360094 |
|      75 | 0xFFFD59FC  |  4294793724 |
|      76 | 0x0726      |        1830 |
|      77 | 0x872C0     |      553664 |
|      78 | 0x7FEA3     |      523939 |
|      79 | 0xFFFF6AC3  |  4294929091 |
|      80 | 0x0A65      |        2661 |
|      81 | 0xFFFE7965  |  4294867301 |
|      82 | 0xFFFF951F  |  4294939935 |
|      83 | 0xFFFEE7BB  |  4294895547 |
|      84 | 0x0400      |        1024 |
|      85 | 0xFFF2A593  |  4294092179 |
|      86 | 0xFFFF548C  |  4294923404 |
|      87 | 0xFFFF442C  |  4294919212 |
|      88 | 0x0201      |         513 |
|      89 | 0xFFF478D5  |  4294211797 |
|      90 | 0x89AEB     |      563947 |
|      91 | 0xFFFE4A5D  |  4294855261 |
|      92 | 0x0DEF      |        3567 |
|      93 | 0x1E173     |      123251 |
|      94 | 0xB8221     |      754209 |
|      95 | 0xFFFD5FA4  |  4294795172 |
|      96 | 0x01B8      |         440 |
|      97 | 0xFFF81ECC  |  4294450892 |
|      98 | 0xFFF3BE05  |  4294163973 |
|      99 | 0x5E8E      |       24206 |
|     100 | 0x01B5      |         437 |
|     101 | 0x012C      |         300 |
|     102 | 0x0080      |         128 |
|     103 | 0xFFF690A7  |  4294348967 |
|     104 | 0xFFF62CE4  |  4294323428 |
|     105 | 0xFFFF9B33  |  4294941491 |
|     106 | 0x0EB1      |        3761 |
|     107 | 0xFFFAEE7D  |  4294635133 |
|     108 | 0xFFF941C6  |  4294525382 |
|     109 | 0xFFFE8CB1  |  4294872241 |
|     110 | 0x0EB0      |        3760 |
|     111 | 0xFFFFCF50  |  4294954832 |
|     112 | 0xFFF61B47  |  4294318919 |
|     113 | 0xFFFD07BB  |  4294772667 |
|     114 | 0x0EBA      |        3770 |
|     115 | 0x4EF35     |      323381 |
|     116 | 0xFFF93A6F  |  4294523503 |
|     117 | 0xFFFE5868  |  4294858856 |
|     118 | 0x0EA0      |        3744 |
|     119 | 0x92763     |      599907 |
|     120 | 0xFFF5AB97  |  4294290327 |
|     121 | 0xFFFFA837  |  4294944823 |
|     122 | 0x0EB3      |        3763 |
|     123 | 0xFFFE7829  |  4294866985 |
|     124 | 0x26DEE     |      159214 |
|     125 | 0xFFFF263A  |  4294911546 |
|     126 | 0x00A8      |         168 |
|     127 | 0x30D7B     |      200059 |
|     128 | 0xFFFFAA3A  |  4294945338 |
|     129 | 0xFFFFFF06  |  4294967046 |
|     130 | 0x0411      |        1041 |
|     131 | 0x1F5F      |        8031 |
|     132 | 0x1F5E      |        8030 |
|     133 | 0x1F82      |        8066 |
|     134 | 0x0401      |        1025 |
|     135 | 0xFFFE798D  |  4294867341 |
|     136 | 0xFFFFB17D  |  4294947197 |
|     137 | 0xFFFEE3D0  |  4294894544 |
|     138 | 0x0BFA      |        3066 |
|     139 | 0x0145      |         325 |
|     140 | 0x005A      |          90 |
|     141 | 0x0078      |         120 |
|     142 | 0x1E0B      |        7691 |
|     143 | 0xFFFC082E  |  4294707246 |
|     144 | 0x5D226     |      381478 |
|     145 | 0xFFFDEDBB  |  4294831547 |
|     146 | 0x03F7      |        1015 |
|     147 | 0x006C      |         108 |
|     148 | 0x002D      |          45 |
|     149 | 0x00D7      |         215 |
|     150 | 0xFFFDEF6C  |  4294831980 |
|     151 | 0x0077      |         119 |
|     152 | 0x00F9      |         249 |
|     153 | 0x0590      |        1424 |
|     154 | 0x0028      |          40 |
|     155 | 0xFFFDF5D6  |  4294833622 |
|     156 | 0xFFFFC0E7  |  4294951143 |
|     157 | 0x004E      |          78 |
|     158 | 0x0046      |          70 |
|     159 | 0x008C      |         140 |
|     160 | 0x00D2      |         210 |
|     161 | 0x0091      |         145 |
|     162 | 0x004F      |          79 |
|     163 | 0x004C      |          76 |
|     164 | 0x0020      |          32 |
|     165 | 0x0030      |          48 |
|     166 | 0x0040      |          64 |
|     167 | 0x27AC      |       10156 |
|     168 | 0x0585      |        1413 |
|     169 | 0xFFFE7D47  |  4294868295 |
|     170 | 0x1C515     |      115989 |
|     171 | 0xFFFF2611  |  4294911505 |
|     172 | 0xFFFE7D19  |  4294868249 |
|     173 | 0x1C9F7     |      117239 |
|     174 | 0x0027      |          39 |
|     175 | 0xFFFE7DB2  |  4294868402 |
|     176 | 0x23088     |      143496 |
|     177 | 0xFFFF1337  |  4294906679 |
|     178 | 0x0025      |          37 |
|     179 | 0xFFFE798C  |  4294867340 |
|     180 | 0xFFFFA155  |  4294943061 |
|     181 | 0xFFFEE3D2  |  4294894546 |
|     182 | 0xFFFE7CF9  |  4294868217 |
|     183 | 0x1BECA     |      114378 |
|     184 | 0xFFFF258C  |  4294911372 |
|     185 | 0x0032      |          50 |
|     186 | 0x0026      |          38 |
|     187 | 0xFFFE7FF8  |  4294868984 |
|     188 | 0xC143      |       49475 |
|     189 | 0xFFFF0A22  |  4294904354 |
|     190 | 0xFFFE7ED0  |  4294868688 |
|     191 | 0xDBEC      |       56300 |
|     192 | 0xFFFF099E  |  4294904222 |
|     193 | 0xFFFC9910  |  4294744336 |
|     194 | 0xFFFFA8AB  |  4294944939 |
|     195 | 0x0136      |         310 |
|     196 | 0xFFFCA064  |  4294746212 |
|     197 | 0xFFFFA895  |  4294944917 |
|     198 | 0x0121      |         289 |
|     199 | 0xFFFC9F8B  |  4294745995 |
|     200 | 0xFFFFA8F7  |  4294945015 |
|     201 | 0x0129      |         297 |
|     202 | 0xFFFCD631  |  4294759985 |
|     203 | 0xFFFFAD7D  |  4294946173 |
|     204 | 0xFFFD03CE  |  4294771662 |
|     205 | 0xFFFFBEAB  |  4294950571 |
|     206 | 0x00EB      |         235 |
|     207 | 0xABF7      |       44023 |
|     208 | 0xFFFE8554  |  4294870356 |
|     209 | 0xFFFFC134  |  4294951220 |
|     210 | 0xABE4      |       44004 |
|     211 | 0xFFFE7E71  |  4294868593 |
|     212 | 0xFFFFC0A5  |  4294951077 |
|     213 | 0xADB0      |       44464 |
|     214 | 0xFFFE7F16  |  4294868758 |
|     215 | 0xFFFFC09E  |  4294951070 |
|     216 | 0x047E      |        1150 |
|     217 | 0xB0CD      |       45261 |
|     218 | 0xFFFE82DD  |  4294869725 |
|     219 | 0xFFFFC0EA  |  4294951146 |
|     220 | 0xB4C3      |       46275 |
|     221 | 0xFFFE8482  |  4294870146 |
|     222 | 0xFFFFC121  |  4294951201 |
|     223 | 0xB284      |       45700 |
|     224 | 0xFFFE7F37  |  4294868791 |
|     225 | 0xFFFFC0DD  |  4294951133 |
|     226 | 0x0406      |        1030 |
|     227 | 0xFFFE790C  |  4294867212 |
|     228 | 0xB757      |       46935 |
|     229 | 0xFFFF0D8E  |  4294905230 |
|     230 | 0xFFFE789B  |  4294867099 |
|     231 | 0xBD6D      |       48493 |
|     232 | 0xFFFF0B6A  |  4294904682 |
|     233 | 0xFFFE778F  |  4294866831 |
|     234 | 0xB7B8      |       47032 |
|     235 | 0xFFFF0D70  |  4294905200 |
|     236 | 0xFFFE794C  |  4294867276 |
|     237 | 0xD6D6      |       54998 |
|     238 | 0xFFFF09C5  |  4294904261 |

## String References

- **7690**: Enter the battlefield? [Enter./Decline.]
- **7691**: Leave the battlefield? [Run away./Stay.]
- **7693**: You cannot enter the battlefield at present. Please wait a little longer.
- **7701**: You are cleared to enter the battlefield, but you cannot while party members are engaged in combat.
- **7702**: You are cleared to enter the battlefield, but you cannot while party members are engaged in combat.
- **7703**: You are cleared to enter the battlefield, but you cannot while party members are engaged in combat.
- **7704**: You are cleared to enter the battlefield, but you cannot while party members are engaged in combat.
- **7740**: You do not meet the requirements to enter the battlefield. Access is denied.
- **8029**: Skip the event? [Yes./No.]
- **8030**: Battlefield clear time: $3 second[/s]!
- **8031**: Battlefield clear time: $3 minute[/s], $2 second[/s]!
- **8049**: Only $3 [member/members] have clearance to enter the battlefield. This room has reached its maximum capacity.
- **8057**: Select difficulty. [Very difficult. (Level: ???)/Difficult. (Level: ???)/Normal. (Level: $18)/Easy. (Level: $17)/Very Easy. (Level: $16)/Leave.]
- **8066**: You have broken the clear time record for "[Plucking Wings (W)/A Malicious Manifest/Manifest Destiny/At Journey's End]"!
- **8070**: Which battlefield will you enter? [None./Plucking Wings (W)./A Malicious Manifest./Manifest Destiny./At Journey's End./././././././././././././././././././././././././././]

## Events

### Event 65535

#### Metadata

| Field        | Value   |
|--------------|---------|
| Entrypoint   | 0x0000  |
| Data Size    | 1 bytes |
| Instructions | 1       |

```
      00 01 02 03 04 05 06 07  08 09 0A 0B 0C 0D 0E 0F
      -- -- -- -- -- -- -- --  -- -- -- -- -- -- -- --
0000: 00                                                .               
```

#### Opcodes

```
  0: 0x0000 [0x00] END_REQSTACK()
```

### Event 65534

#### Metadata

| Field        | Value   |
|--------------|---------|
| Entrypoint   | 0x0001  |
| Data Size    | 1 bytes |
| Instructions | 1       |

```
      00 01 02 03 04 05 06 07  08 09 0A 0B 0C 0D 0E 0F
      -- -- -- -- -- -- -- --  -- -- -- -- -- -- -- --
0000:    00                                              .              
```

#### Opcodes

```
  0: 0x0001 [0x00] END_REQSTACK()
```

### Event 32000

#### Metadata

| Field        | Value      |
|--------------|------------|
| Entrypoint   | 0x0002     |
| Data Size    | 2162 bytes |
| Instructions | 287        |

```
      00 01 02 03 04 05 06 07  08 09 0A 0B 0C 0D 0E 0F
      -- -- -- -- -- -- -- --  -- -- -- -- -- -- -- --
0000:       20 01 79 00 F0 FF  FF 7F F0 FF FF 7F 03 02     .y...........
0010: 00 02 10 03 03 00 03 10  03 05 00 04 10 03 06 00  ................
0020: 05 10 03 0F 00 06 10 03  10 00 07 10 03 11 00 08  ................
0030: 10 41 00 80 01 80 09 10  07 00 41 02 80 03 80 09  .A........A.....
0040: 10 06 10 06 01 00 02 07  00 00 80 00 42 01 03 08  ............B...
0050: 00 04 80 0F 08 00 06 00  10 08 00 05 80 24 06 80  .............$..
0060: 00 80 08 00 25 02 00 10  00 80 00 73 00 01 59 08  ....%......s..Y.
0070: 01 42 01 03 03 00 00 10  0C 03 00 06 15 00 3E 0F  .B............>.
0080: 00 03 00 1E 01 06 0F 00  06 08 00 3E 11 00 03 00  ...........>....
0090: 95 00 01 9C 00 3C 08 00  00 80 05 80 3E 10 00 03  .....<......>...
00A0: 00 A6 00 01 AD 00 3C 08  00 05 80 05 80 1A 93 12  ......<.........
00B0: 24 07 80 08 80 08 00 25  02 00 10 00 80 00 C8 00  $......%........
00C0: 03 0F 00 05 80 01 1B 01  02 00 10 05 80 00 D8 00  ................
00D0: 03 0F 00 09 80 01 1B 01  02 00 10 09 80 00 E8 00  ................
00E0: 03 0F 00 0A 80 01 1B 01  02 00 10 0A 80 00 F8 00  ................
00F0: 03 0F 00 0B 80 01 1B 01  02 00 10 0B 80 00 08 01  ................
0100: 03 0F 00 08 80 01 1B 01  02 00 10 08 80 00 16 01  ................
0110: 01 59 08 01 1B 01 03 0F  00 0A 80 01 42 01 06 0F  .Y..........B...
0120: 00 1A 73 08 02 15 00 05  80 00 42 01 24 0C 80 05  ..s.......B.$...
0130: 80 00 80 25 02 00 10 05  80 00 42 01 01 59 08 01  ...%......B..Y..
0140: 42 01 42 03 01 10 0D 80  43 00 43 01 06 01 10 45  B.B.....C.C....E
0150: 0E 80 F0 FF FF 7F F0 FF  FF 7F 66 64 6F 31 00 80  ..........fdo1..
0160: 55 0E 80 F0 FF FF 7F F0  FF FF 7F 66 64 6F 31 3B  U..........fdo1;
0170: F0 FF FF 7F 25 10 26 10  27 10 38 0F 80 02 07 00  ....%.&.'.8.....
0180: 05 80 00 9C 01 03 00 00  05 80 03 04 00 03 00 03  ................
0190: 02 00 00 80 03 1B 00 00  80 01 8D 05 03 00 00 05  ................
01A0: 80 02 00 00 0A 80 05 22  08 02 00 80 05 80 00 B6  ......."........
01B0: 01 03 00 00 05 00 40 00  80 0A 80 01 10 00 00 40  ......@........@
01C0: 0B 80 10 80 01 10 03 00  40 11 80 12 80 01 10 0F  ........@.......
01D0: 00 06 02 10 06 03 10 06  04 10 02 00 00 05 80 80  ................
01E0: F9 01 03 09 00 13 80 03  0A 00 14 80 03 0B 00 15  ................
01F0: 80 03 0C 00 16 80 01 56  02 02 00 00 09 80 80 18  .......V........
0200: 02 03 09 00 17 80 03 0A  00 18 80 03 0B 00 19 80  ................
0210: 03 0C 00 16 80 01 56 02  02 00 00 0A 80 80 37 02  ......V.......7.
0220: 03 09 00 1A 80 03 0A 00  1B 80 03 0B 00 1C 80 03  ................
0230: 0C 00 16 80 01 56 02 02  00 00 0B 80 80 56 02 03  .....V.......V..
0240: 09 00 00 80 03 0A 00 00  80 03 0B 00 00 80 03 0C  ................
0250: 00 00 80 01 56 02 47 00  09 00 0A 00 0B 00 0C 00  ....V.G.........
0260: 47 01 03 04 00 03 10 03  02 00 04 10 03 19 00 05  G...............
0270: 10 03 0D 00 06 10 03 0E  00 07 10 03 1B 00 09 10  ................
0280: 02 02 10 05 80 80 8B 02  01 0F 08 02 02 10 0B 80  ................
0290: 80 D5 02 02 00 00 05 80  80 A2 02 48 1D 80 23 01  ...........H..#.
02A0: CF 02 02 00 00 09 80 80  B1 02 48 1E 80 23 01 CF  ..........H..#..
02B0: 02 02 00 00 0A 80 80 C0  02 48 1F 80 23 01 CF 02  .........H..#...
02C0: 02 00 00 0B 80 80 CF 02  48 20 80 23 01 CF 02 01  ........H .#....
02D0: 26 08 01 0F 08 02 02 10  08 80 80 E7 02 48 21 80  &............H!.
02E0: 23 01 26 08 01 0F 08 02  02 10 22 80 80 E9 04 02  #.&.......".....
02F0: 04 00 00 80 80 FF 02 03  05 10 22 80 01 DF 04 02  ..........".....
0300: 04 00 05 80 80 0F 03 03  05 10 23 80 01 DF 04 02  ..........#.....
0310: 04 00 09 80 80 1F 03 03  05 10 22 80 01 DF 04 02  ..........".....
0320: 04 00 0A 80 80 2F 03 03  05 10 22 80 01 DF 04 02  ...../....".....
0330: 04 00 0B 80 80 3F 03 03  05 10 00 80 01 DF 04 02  .....?..........
0340: 04 00 08 80 80 4F 03 03  05 10 00 80 01 DF 04 02  .....O..........
0350: 04 00 22 80 80 5F 03 03  05 10 00 80 01 DF 04 02  ..".._..........
0360: 04 00 24 80 80 6F 03 03  05 10 00 80 01 DF 04 02  ..$..o..........
0370: 04 00 10 80 80 7F 03 03  05 10 00 80 01 DF 04 02  ................
0380: 04 00 11 80 80 8F 03 03  05 10 00 80 01 DF 04 02  ................
0390: 04 00 25 80 80 9F 03 03  05 10 00 80 01 DF 04 02  ..%.............
03A0: 04 00 12 80 80 AF 03 03  05 10 00 80 01 DF 04 02  ................
03B0: 04 00 26 80 80 BF 03 03  05 10 00 80 01 DF 04 02  ..&.............
03C0: 04 00 27 80 80 CF 03 03  05 10 00 80 01 DF 04 02  ..'.............
03D0: 04 00 28 80 80 DF 03 03  05 10 00 80 01 DF 04 02  ..(.............
03E0: 04 00 01 80 80 EF 03 03  05 10 00 80 01 DF 04 02  ................
03F0: 04 00 02 80 80 FF 03 03  05 10 00 80 01 DF 04 02  ................
0400: 04 00 29 80 80 0F 04 03  05 10 00 80 01 DF 04 02  ..).............
0410: 04 00 23 80 80 1F 04 03  05 10 00 80 01 DF 04 02  ..#.............
0420: 04 00 0F 80 80 2F 04 03  05 10 00 80 01 DF 04 02  ...../..........
0430: 04 00 2A 80 80 3F 04 03  05 10 00 80 01 DF 04 02  ..*..?..........
0440: 04 00 2B 80 80 4F 04 03  05 10 00 80 01 DF 04 02  ..+..O..........
0450: 04 00 2C 80 80 5F 04 03  05 10 00 80 01 DF 04 02  ..,.._..........
0460: 04 00 2D 80 80 6F 04 03  05 10 00 80 01 DF 04 02  ..-..o..........
0470: 04 00 2E 80 80 7F 04 03  05 10 00 80 01 DF 04 02  ................
0480: 04 00 2F 80 80 8F 04 03  05 10 00 80 01 DF 04 02  ../.............
0490: 04 00 30 80 80 9F 04 03  05 10 00 80 01 DF 04 02  ..0.............
04A0: 04 00 31 80 80 AF 04 03  05 10 00 80 01 DF 04 02  ..1.............
04B0: 04 00 32 80 80 BF 04 03  05 10 00 80 01 DF 04 02  ..2.............
04C0: 04 00 33 80 80 CF 04 03  05 10 00 80 01 DF 04 02  ..3.............
04D0: 04 00 34 80 80 DF 04 03  05 10 00 80 01 DF 04 48  ..4............H
04E0: 35 80 23 01 26 08 01 0F  08 02 02 10 0A 80 80 F7  5.#.&...........
04F0: 04 01 9C 01 01 0F 08 02  02 10 09 80 80 0F 08 02  ................
0500: 0D 00 00 80 01 43 05 03  05 10 19 00 02 19 00 00  .....C..........
0510: 80 02 2B 05 02 19 00 36  80 04 2B 05 3F 04 10 05  ..+....6..+.?...
0520: 10 36 80 15 05 10 36 80  01 2B 05 02 0D 00 05 80  .6....6..+......
0530: 05 36 05 01 43 05 03 06  10 0D 00 0C 06 10 03 07  .6..C...........
0540: 10 0D 00 03 03 00 04 00  03 13 00 37 80 07 13 00  ...........7....
0550: 03 00 02 02 00 13 00 00  62 05 03 02 00 05 80 01  ........b.......
0560: 67 05 03 02 00 00 80 02  02 00 00 80 00 8D 05 02  g...............
0570: 0E 00 05 80 00 8D 05 24  38 80 05 80 00 80 25 02  .......$8.....%.
0580: 00 10 00 80 00 8D 05 05  02 00 01 8D 05 06 14 00  ................
0590: 02 04 00 00 80 80 A0 05  03 14 00 00 80 01 85 07  ................
05A0: 02 04 00 05 80 80 B0 05  03 14 00 00 80 01 85 07  ................
05B0: 02 04 00 09 80 80 C0 05  03 14 00 00 80 01 85 07  ................
05C0: 02 04 00 0A 80 80 D0 05  03 14 00 00 80 01 85 07  ................
05D0: 02 04 00 0B 80 80 E0 05  03 14 00 00 80 01 85 07  ................
05E0: 02 04 00 08 80 80 F0 05  03 14 00 00 80 01 85 07  ................
05F0: 02 04 00 22 80 80 00 06  03 14 00 00 80 01 85 07  ..."............
0600: 02 04 00 24 80 80 10 06  03 14 00 00 80 01 85 07  ...$............
0610: 02 04 00 10 80 80 20 06  03 14 00 00 80 01 85 07  ...... .........
0620: 02 04 00 11 80 80 30 06  03 14 00 00 80 01 85 07  ......0.........
0630: 02 04 00 25 80 80 40 06  03 14 00 00 80 01 85 07  ...%..@.........
0640: 02 04 00 12 80 80 50 06  03 14 00 00 80 01 85 07  ......P.........
0650: 02 04 00 26 80 80 60 06  03 14 00 00 80 01 85 07  ...&..`.........
0660: 02 04 00 27 80 80 70 06  03 14 00 00 80 01 85 07  ...'..p.........
0670: 02 04 00 28 80 80 80 06  03 14 00 00 80 01 85 07  ...(............
0680: 02 04 00 01 80 80 90 06  03 14 00 00 80 01 85 07  ................
0690: 02 04 00 02 80 80 A0 06  03 14 00 00 80 01 85 07  ................
06A0: 02 04 00 29 80 80 B0 06  03 14 00 00 80 01 85 07  ...)............
06B0: 02 04 00 23 80 80 C0 06  03 14 00 00 80 01 85 07  ...#............
06C0: 02 04 00 0F 80 80 D0 06  03 14 00 00 80 01 85 07  ................
06D0: 02 04 00 2A 80 80 E0 06  03 14 00 00 80 01 85 07  ...*............
06E0: 02 04 00 2B 80 80 F0 06  03 14 00 00 80 01 85 07  ...+............
06F0: 02 04 00 2C 80 80 00 07  03 14 00 00 80 01 85 07  ...,............
0700: 02 04 00 2D 80 80 10 07  03 14 00 00 80 01 85 07  ...-............
0710: 02 04 00 2E 80 80 20 07  03 14 00 00 80 01 85 07  ...... .........
0720: 02 04 00 2F 80 80 30 07  03 14 00 00 80 01 85 07  .../..0.........
0730: 02 04 00 30 80 80 40 07  03 14 00 00 80 01 85 07  ...0..@.........
0740: 02 04 00 31 80 80 50 07  03 14 00 00 80 01 85 07  ...1..P.........
0750: 02 04 00 32 80 80 60 07  03 14 00 00 80 01 85 07  ...2..`.........
0760: 02 04 00 33 80 80 70 07  03 14 00 00 80 01 85 07  ...3..p.........
0770: 02 04 00 34 80 80 80 07  03 14 00 00 80 01 85 07  ...4............
0780: 03 14 00 00 80 02 02 00  05 80 00 A0 07 5C 00 39  .............\.9
0790: 80 5C 01 39 80 5C 02 39  80 5C 03 39 80 01 B8 07  .\.9.\.9.\.9....
07A0: 02 14 00 00 80 00 B8 07  5C 00 39 80 5C 01 39 80  ........\.9.\.9.
07B0: 5C 02 39 80 5C 03 39 80  02 02 00 00 80 00 C6 07  \.9.\.9.........
07C0: 1A 61 0F 01 FF 07 6C F0  FF FF 7F 00 80 05 80 62  .a....l........b
07D0: 09 80 F0 FF FF 7F F0 FF  FF 7F 6D 61 69 6E 00 80  ..........main..
07E0: 45 0E 80 F0 FF FF 7F F0  FF FF 7F 6F 76 6C 31 00  E..........ovl1.
07F0: 80 46 02 12 00 02 12 00  00 80 00 FF 07 46 00 03  .F...........F..
0800: 01 10 37 80 07 01 10 03  00 01 26 08 01 0F 08 0B  ..7.......&.....
0810: 00 00 02 00 80 05 80 00  1F 08 03 00 00 0B 80 01  ................
0820: A1 01 48 3A 80 23 45 3B  80 F0 FF FF 7F F0 FF FF  ..H:.#E;........
0830: 7F 77 68 69 31 00 80 45  0E 80 F0 FF FF 7F F0 FF  .whi1..E........
0840: FF 7F 62 6C 6F 66 00 80  45 0E 80 F0 FF FF 7F F0  ..blof..E.......
0850: FF FF 7F 66 64 69 30 00  80 02 07 00 05 80 00 71  ...fdi0........q
0860: 08 5C 00 00 80 5C 01 00  80 5C 02 39 80 5C 03 39  .\...\...\.9.\.9
0870: 80 21 00 1B                                       .!..            
```

#### Opcodes

```
  0: 0x0002 [0x20] SET_CLI_EVENT_UC_FLAG: Lock player control
  1: 0x0004 [0x79] LocalPlayer looks at LocalPlayer (Basic look)
  2: 0x000E [0x03] ExtData[1]->WorkLocal[2] = Work_Zone[2]
  3: 0x0013 [0x03] ExtData[1]->WorkLocal[3] = Work_Zone[3]
  4: 0x0018 [0x03] ExtData[1]->WorkLocal[5] = Work_Zone[4]
  5: 0x001D [0x03] ExtData[1]->WorkLocal[6] = Work_Zone[5]
  6: 0x0022 [0x03] ExtData[1]->WorkLocal[15] = Work_Zone[6]
  7: 0x0027 [0x03] ExtData[1]->WorkLocal[16] = Work_Zone[7]
  8: 0x002C [0x03] ExtData[1]->WorkLocal[17] = Work_Zone[8]
  9: 0x0031 [0x41] ExtData[1]->WorkLocal[7] = Work_Zone[9] (bits 0*-15*)
 10: 0x003A [0x41] Work_Zone[6] = Work_Zone[9] (bits 16*-31*)
 11: 0x0043 [0x06] ExtData[1]->WorkLocal[1] = 0
 12: 0x0046 [0x02] IF !(ExtData[1]->WorkLocal[7] == 0*) GOTO 0x0142
 13: 0x004E [0x03] ExtData[1]->WorkLocal[8] = 4294967295*
 14: 0x0053 [0x0F] ExtData[1]->WorkLocal[8] ^= ExtData[1]->WorkLocal[6]
 15: 0x0058 [0x10] ExtData[1]->WorkLocal[8] <<= 1*
 16: 0x005D [0x24] CREATE_DIALOG(message_id=8070*, default_option=0*, option_flags=ExtData[1]->WorkLocal[8])
    → "Which battlefield will you enter? [None./Plucking Wings (W)./A Malicious Manifest./Manifest Destiny./At Journey's End./././././././././././././././././././././././././././]"
 17: 0x0064 [0x25] WAIT_DIALOG_SELECT()
 18: 0x0065 [0x02] IF !(Work_Zone[0] == 0*) GOTO 0x0073
 19: 0x006D [0x01] GOTO 0x0859

SUBROUTINE_009C:
 20: 0x009C [0x3E] IF !(ExtData[1]->WorkLocal[16] bit ExtData[1]->WorkLocal[3]) GOTO 0x00A6
 21: 0x00A3 [0x01] GOTO 0x00AD
 22: 0x00A6 [0x3C] SET_BIT_FLAG_CONDITIONAL(target_work_offset=ExtData[1]->WorkLocal[8], bit_index_work_offset=1*, condition_work_offset=1*)

SUBROUTINE_00AD:
 23: 0x00AD [0x1A] CALL_SUBROUTINE(address=0x1293)
 24: 0x00B0 [0x24] CREATE_DIALOG(message_id=8057*, default_option=5*, option_flags=ExtData[1]->WorkLocal[8])
    → "Select difficulty. [Very difficult. (Level: ???)/Difficult. (Level: ???)/Normal. (Level: $18)/Easy. (Level: $17)/Very Easy. (Level: $16)/Leave.]"
 25: 0x00B7 [0x25] WAIT_DIALOG_SELECT()
 26: 0x00B8 [0x02] IF !(Work_Zone[0] == 0*) GOTO 0x00C8
 27: 0x00C0 [0x03] ExtData[1]->WorkLocal[15] = 1*
 28: 0x00C5 [0x01] GOTO 0x011B
 29: 0x00C8 [0x02] IF !(Work_Zone[0] == 1*) GOTO 0x00D8
 30: 0x00D0 [0x03] ExtData[1]->WorkLocal[15] = 2*
 31: 0x00D5 [0x01] GOTO 0x011B
 32: 0x00D8 [0x02] IF !(Work_Zone[0] == 2*) GOTO 0x00E8
 33: 0x00E0 [0x03] ExtData[1]->WorkLocal[15] = 3*
 34: 0x00E5 [0x01] GOTO 0x011B
 35: 0x00E8 [0x02] IF !(Work_Zone[0] == 3*) GOTO 0x00F8
 36: 0x00F0 [0x03] ExtData[1]->WorkLocal[15] = 4*
 37: 0x00F5 [0x01] GOTO 0x011B
 38: 0x00F8 [0x02] IF !(Work_Zone[0] == 4*) GOTO 0x0108
 39: 0x0100 [0x03] ExtData[1]->WorkLocal[15] = 5*
 40: 0x0105 [0x01] GOTO 0x011B
 41: 0x0108 [0x02] IF !(Work_Zone[0] == 5*) GOTO 0x0116
 42: 0x0110 [0x01] GOTO 0x0859

SUBROUTINE_011B:
 43: 0x011B [0x01] GOTO 0x0142
 44: 0x011E [0x06] ExtData[1]->WorkLocal[15] = 0
 45: 0x0121 [0x1A] CALL_SUBROUTINE(address=0x0873)
 46: 0x0124 [0x02] IF !(ExtData[1]->WorkLocal[21] == 1*) GOTO 0x0142
 47: 0x012C [0x24] CREATE_DIALOG(message_id=7690*, default_option=1*, option_flags=0*)
    → "Enter the battlefield? [Enter./Decline.]"
 48: 0x0133 [0x25] WAIT_DIALOG_SELECT()
 49: 0x0134 [0x02] IF !(Work_Zone[0] == 1*) GOTO 0x0142
 50: 0x013C [0x01] GOTO 0x0859

SUBROUTINE_0142:
 51: 0x0142 [0x42] SET_CLI_EVENT_CANCEL_DATA()
 52: 0x0143 [0x03] Work_Zone[1] = 255*
 53: 0x0148 [0x43] SEND_EVENT_UPDATE: Send pending tag to server (packet 0x005B)
 54: 0x014A [0x43] SEND_EVENT_UPDATE: Check pending flag (skip if not pending)
 55: 0x014C [0x06] Work_Zone[1] = 0
 56: 0x014F [0x45] LOAD_SCHEDULED_TASK: Load scheduler "fdo1" with entities [LocalPlayer, LocalPlayer], work=[200*, 0*]
 57: 0x0160 [0x55] WAIT_LOAD_SCHEDULER: Wait for scheduler "fdo1" with entities [LocalPlayer, LocalPlayer], work=200*
 58: 0x016F [0x3B] GET_ENTITY_POSITION(entity=LocalPlayer, x_destination=Work_Zone[37], y_destination=Work_Zone[38], z_destination=Work_Zone[39])
 59: 0x017A [0x38] SET_CLIENT_EVENT_MODE(mode=19*)
 60: 0x017D [0x02] IF !(ExtData[1]->WorkLocal[7] == 1*) GOTO 0x019C
 61: 0x0185 [0x03] ExtData[1]->WorkLocal[0] = 1*
 62: 0x018A [0x03] ExtData[1]->WorkLocal[4] = ExtData[1]->WorkLocal[3]
 63: 0x018F [0x03] ExtData[1]->WorkLocal[2] = 0*
 64: 0x0194 [0x03] ExtData[1]->WorkLocal[27] = 0*
 65: 0x0199 [0x01] GOTO 0x058D

SUBROUTINE_019C:
 66: 0x019C [0x03] ExtData[1]->WorkLocal[0] = 1*

SUBROUTINE_01A1:
 67: 0x01A1 [0x02] IF !(ExtData[1]->WorkLocal[0] > 3*) GOTO 0x0822
 68: 0x01A9 [0x02] IF !(0* == 1*) GOTO 0x01B6
 69: 0x01B1 [0x03] ExtData[1]->WorkLocal[0] = ExtData[1]->WorkLocal[5]
 70: 0x01B6 [0x40] SET_BIT_WORK_RANGE(start_bit=0*, end_bit=3*, target=Work_Zone[1], source=ExtData[1]->WorkLocal[0])
 71: 0x01BF [0x40] SET_BIT_WORK_RANGE(start_bit=4*, end_bit=8*, target=Work_Zone[1], source=ExtData[1]->WorkLocal[3])
 72: 0x01C8 [0x40] SET_BIT_WORK_RANGE(start_bit=9*, end_bit=11*, target=Work_Zone[1], source=ExtData[1]->WorkLocal[15])
 73: 0x01D1 [0x06] Work_Zone[2] = 0
 74: 0x01D4 [0x06] Work_Zone[3] = 0
 75: 0x01D7 [0x06] Work_Zone[4] = 0
 76: 0x01DA [0x02] IF !(ExtData[1]->WorkLocal[0] == 1*) GOTO 0x01F9
 77: 0x01E2 [0x03] ExtData[1]->WorkLocal[9] = 4294707314*
 78: 0x01E7 [0x03] ExtData[1]->WorkLocal[10] = 393819*
 79: 0x01EC [0x03] ExtData[1]->WorkLocal[11] = 4294831546*
 80: 0x01F1 [0x03] ExtData[1]->WorkLocal[12] = 3072*
 81: 0x01F6 [0x01] GOTO 0x0256
 82: 0x01F9 [0x02] IF !(ExtData[1]->WorkLocal[0] == 2*) GOTO 0x0218
 83: 0x0201 [0x03] ExtData[1]->WorkLocal[9] = 20015*
 84: 0x0206 [0x03] ExtData[1]->WorkLocal[10] = 393860*
 85: 0x020B [0x03] ExtData[1]->WorkLocal[11] = 4294751547*
 86: 0x0210 [0x03] ExtData[1]->WorkLocal[12] = 3072*
 87: 0x0215 [0x01] GOTO 0x0256
 88: 0x0218 [0x02] IF !(ExtData[1]->WorkLocal[0] == 3*) GOTO 0x0237
 89: 0x0220 [0x03] ExtData[1]->WorkLocal[9] = 300018*
 90: 0x0225 [0x03] ExtData[1]->WorkLocal[10] = 393871*
 91: 0x022A [0x03] ExtData[1]->WorkLocal[11] = 4294671547*
 92: 0x022F [0x03] ExtData[1]->WorkLocal[12] = 3072*
 93: 0x0234 [0x01] GOTO 0x0256
 94: 0x0237 [0x02] IF !(ExtData[1]->WorkLocal[0] == 4*) GOTO 0x0256
 95: 0x023F [0x03] ExtData[1]->WorkLocal[9] = 0*
 96: 0x0244 [0x03] ExtData[1]->WorkLocal[10] = 0*
 97: 0x0249 [0x03] ExtData[1]->WorkLocal[11] = 0*
 98: 0x024E [0x03] ExtData[1]->WorkLocal[12] = 0*
 99: 0x0253 [0x01] GOTO 0x0256

SUBROUTINE_0256:
100: 0x0256 [0x47] UPDATE_PLAYER_POS(ExtData[1]->WorkLocal[9], ExtData[1]->WorkLocal[10], ExtData[1]->WorkLocal[11], yaw=ExtData[1]->WorkLocal[12])
101: 0x0260 [0x47] WAIT_PLAYER_POS_UPDATE
102: 0x0262 [0x03] ExtData[1]->WorkLocal[4] = Work_Zone[3]
103: 0x0267 [0x03] ExtData[1]->WorkLocal[2] = Work_Zone[4]
104: 0x026C [0x03] ExtData[1]->WorkLocal[25] = Work_Zone[5]
105: 0x0271 [0x03] ExtData[1]->WorkLocal[13] = Work_Zone[6]
106: 0x0276 [0x03] ExtData[1]->WorkLocal[14] = Work_Zone[7]
107: 0x027B [0x03] ExtData[1]->WorkLocal[27] = Work_Zone[9]
108: 0x0280 [0x02] IF !(Work_Zone[2] == 1*) GOTO 0x028B
109: 0x0288 [0x01] GOTO 0x080F
110: 0x028B [0x02] IF !(Work_Zone[2] == 4*) GOTO 0x02D5
111: 0x0293 [0x02] IF !(ExtData[1]->WorkLocal[0] == 1*) GOTO 0x02A2
112: 0x029B [0x48] [System] [7701*]:
    → "You are cleared to enter the battlefield, but you cannot while party members are engaged in combat."
113: 0x029E [0x23] WAIT_FOR_DIALOG_INTERACTION
114: 0x029F [0x01] GOTO 0x02CF
115: 0x02A2 [0x02] IF !(ExtData[1]->WorkLocal[0] == 2*) GOTO 0x02B1
116: 0x02AA [0x48] [System] [7702*]:
    → "You are cleared to enter the battlefield, but you cannot while party members are engaged in combat."
117: 0x02AD [0x23] WAIT_FOR_DIALOG_INTERACTION
118: 0x02AE [0x01] GOTO 0x02CF
119: 0x02B1 [0x02] IF !(ExtData[1]->WorkLocal[0] == 3*) GOTO 0x02C0
120: 0x02B9 [0x48] [System] [7703*]:
    → "You are cleared to enter the battlefield, but you cannot while party members are engaged in combat."
121: 0x02BC [0x23] WAIT_FOR_DIALOG_INTERACTION
122: 0x02BD [0x01] GOTO 0x02CF
123: 0x02C0 [0x02] IF !(ExtData[1]->WorkLocal[0] == 4*) GOTO 0x02CF
124: 0x02C8 [0x48] [System] [7704*]:
    → "You are cleared to enter the battlefield, but you cannot while party members are engaged in combat."
125: 0x02CB [0x23] WAIT_FOR_DIALOG_INTERACTION
126: 0x02CC [0x01] GOTO 0x02CF

SUBROUTINE_02CF:
127: 0x02CF [0x01] GOTO 0x0826

SUBROUTINE_04DF:
128: 0x04DF [0x48] [System] [8049*]:
    → "Only $3 [member/members] have clearance to enter the battlefield. This room has reached its maximum capacity."
129: 0x04E2 [0x23] WAIT_FOR_DIALOG_INTERACTION
130: 0x04E3 [0x01] GOTO 0x0826

SUBROUTINE_052B:
131: 0x052B [0x02] IF !(ExtData[1]->WorkLocal[13] > 1*) GOTO 0x0536
132: 0x0533 [0x01] GOTO 0x0543
133: 0x0536 [0x03] Work_Zone[6] = ExtData[1]->WorkLocal[13]
134: 0x053B [0x0C] Work_Zone[6]--
135: 0x053E [0x03] Work_Zone[7] = ExtData[1]->WorkLocal[13]

SUBROUTINE_0543:
136: 0x0543 [0x03] ExtData[1]->WorkLocal[3] = ExtData[1]->WorkLocal[4]
137: 0x0548 [0x03] ExtData[1]->WorkLocal[19] = 100*
138: 0x054D [0x07] ExtData[1]->WorkLocal[19] += ExtData[1]->WorkLocal[3]
139: 0x0552 [0x02] IF !(ExtData[1]->WorkLocal[2] == ExtData[1]->WorkLocal[19]) GOTO 0x0562
140: 0x055A [0x03] ExtData[1]->WorkLocal[2] = 1*
141: 0x055F [0x01] GOTO 0x0567
142: 0x0562 [0x03] ExtData[1]->WorkLocal[2] = 0*

SUBROUTINE_0567:
143: 0x0567 [0x02] IF !(ExtData[1]->WorkLocal[2] == 0*) GOTO 0x058D
144: 0x056F [0x02] IF !(ExtData[1]->WorkLocal[14] == 1*) GOTO 0x058D
145: 0x0577 [0x24] CREATE_DIALOG(message_id=8029*, default_option=1*, option_flags=0*)
    → "Skip the event? [Yes./No.]"
146: 0x057E [0x25] WAIT_DIALOG_SELECT()
147: 0x057F [0x02] IF !(Work_Zone[0] == 0*) GOTO 0x058D
148: 0x0587 [0x05] ExtData[1]->WorkLocal[2] = 1
149: 0x058A [0x01] GOTO 0x058D

SUBROUTINE_058D:
150: 0x058D [0x06] ExtData[1]->WorkLocal[20] = 0
151: 0x0590 [0x02] IF !(ExtData[1]->WorkLocal[4] == 0*) GOTO 0x05A0
152: 0x0598 [0x03] ExtData[1]->WorkLocal[20] = 0*
153: 0x059D [0x01] GOTO 0x0785
154: 0x05A0 [0x02] IF !(ExtData[1]->WorkLocal[4] == 1*) GOTO 0x05B0
155: 0x05A8 [0x03] ExtData[1]->WorkLocal[20] = 0*
156: 0x05AD [0x01] GOTO 0x0785
157: 0x05B0 [0x02] IF !(ExtData[1]->WorkLocal[4] == 2*) GOTO 0x05C0
158: 0x05B8 [0x03] ExtData[1]->WorkLocal[20] = 0*
159: 0x05BD [0x01] GOTO 0x0785
160: 0x05C0 [0x02] IF !(ExtData[1]->WorkLocal[4] == 3*) GOTO 0x05D0
161: 0x05C8 [0x03] ExtData[1]->WorkLocal[20] = 0*
162: 0x05CD [0x01] GOTO 0x0785
163: 0x05D0 [0x02] IF !(ExtData[1]->WorkLocal[4] == 4*) GOTO 0x05E0
164: 0x05D8 [0x03] ExtData[1]->WorkLocal[20] = 0*
165: 0x05DD [0x01] GOTO 0x0785
166: 0x05E0 [0x02] IF !(ExtData[1]->WorkLocal[4] == 5*) GOTO 0x05F0
167: 0x05E8 [0x03] ExtData[1]->WorkLocal[20] = 0*
168: 0x05ED [0x01] GOTO 0x0785
169: 0x05F0 [0x02] IF !(ExtData[1]->WorkLocal[4] == 6*) GOTO 0x0600
170: 0x05F8 [0x03] ExtData[1]->WorkLocal[20] = 0*
171: 0x05FD [0x01] GOTO 0x0785
172: 0x0600 [0x02] IF !(ExtData[1]->WorkLocal[4] == 7*) GOTO 0x0610
173: 0x0608 [0x03] ExtData[1]->WorkLocal[20] = 0*
174: 0x060D [0x01] GOTO 0x0785
175: 0x0610 [0x02] IF !(ExtData[1]->WorkLocal[4] == 8*) GOTO 0x0620
176: 0x0618 [0x03] ExtData[1]->WorkLocal[20] = 0*
177: 0x061D [0x01] GOTO 0x0785
178: 0x0620 [0x02] IF !(ExtData[1]->WorkLocal[4] == 9*) GOTO 0x0630
179: 0x0628 [0x03] ExtData[1]->WorkLocal[20] = 0*
180: 0x062D [0x01] GOTO 0x0785
181: 0x0630 [0x02] IF !(ExtData[1]->WorkLocal[4] == 10*) GOTO 0x0640
182: 0x0638 [0x03] ExtData[1]->WorkLocal[20] = 0*
183: 0x063D [0x01] GOTO 0x0785
184: 0x0640 [0x02] IF !(ExtData[1]->WorkLocal[4] == 11*) GOTO 0x0650
185: 0x0648 [0x03] ExtData[1]->WorkLocal[20] = 0*
186: 0x064D [0x01] GOTO 0x0785
187: 0x0650 [0x02] IF !(ExtData[1]->WorkLocal[4] == 12*) GOTO 0x0660
188: 0x0658 [0x03] ExtData[1]->WorkLocal[20] = 0*
189: 0x065D [0x01] GOTO 0x0785
190: 0x0660 [0x02] IF !(ExtData[1]->WorkLocal[4] == 13*) GOTO 0x0670
191: 0x0668 [0x03] ExtData[1]->WorkLocal[20] = 0*
192: 0x066D [0x01] GOTO 0x0785
193: 0x0670 [0x02] IF !(ExtData[1]->WorkLocal[4] == 14*) GOTO 0x0680
194: 0x0678 [0x03] ExtData[1]->WorkLocal[20] = 0*
195: 0x067D [0x01] GOTO 0x0785
196: 0x0680 [0x02] IF !(ExtData[1]->WorkLocal[4] == 15*) GOTO 0x0690
197: 0x0688 [0x03] ExtData[1]->WorkLocal[20] = 0*
198: 0x068D [0x01] GOTO 0x0785
199: 0x0690 [0x02] IF !(ExtData[1]->WorkLocal[4] == 16*) GOTO 0x06A0
200: 0x0698 [0x03] ExtData[1]->WorkLocal[20] = 0*
201: 0x069D [0x01] GOTO 0x0785
202: 0x06A0 [0x02] IF !(ExtData[1]->WorkLocal[4] == 17*) GOTO 0x06B0
203: 0x06A8 [0x03] ExtData[1]->WorkLocal[20] = 0*
204: 0x06AD [0x01] GOTO 0x0785
205: 0x06B0 [0x02] IF !(ExtData[1]->WorkLocal[4] == 18*) GOTO 0x06C0
206: 0x06B8 [0x03] ExtData[1]->WorkLocal[20] = 0*
207: 0x06BD [0x01] GOTO 0x0785
208: 0x06C0 [0x02] IF !(ExtData[1]->WorkLocal[4] == 19*) GOTO 0x06D0
209: 0x06C8 [0x03] ExtData[1]->WorkLocal[20] = 0*
210: 0x06CD [0x01] GOTO 0x0785
211: 0x06D0 [0x02] IF !(ExtData[1]->WorkLocal[4] == 20*) GOTO 0x06E0
212: 0x06D8 [0x03] ExtData[1]->WorkLocal[20] = 0*
213: 0x06DD [0x01] GOTO 0x0785
214: 0x06E0 [0x02] IF !(ExtData[1]->WorkLocal[4] == 21*) GOTO 0x06F0
215: 0x06E8 [0x03] ExtData[1]->WorkLocal[20] = 0*
216: 0x06ED [0x01] GOTO 0x0785
217: 0x06F0 [0x02] IF !(ExtData[1]->WorkLocal[4] == 22*) GOTO 0x0700
218: 0x06F8 [0x03] ExtData[1]->WorkLocal[20] = 0*
219: 0x06FD [0x01] GOTO 0x0785
220: 0x0700 [0x02] IF !(ExtData[1]->WorkLocal[4] == 23*) GOTO 0x0710
221: 0x0708 [0x03] ExtData[1]->WorkLocal[20] = 0*
222: 0x070D [0x01] GOTO 0x0785
223: 0x0710 [0x02] IF !(ExtData[1]->WorkLocal[4] == 24*) GOTO 0x0720
224: 0x0718 [0x03] ExtData[1]->WorkLocal[20] = 0*
225: 0x071D [0x01] GOTO 0x0785
226: 0x0720 [0x02] IF !(ExtData[1]->WorkLocal[4] == 25*) GOTO 0x0730
227: 0x0728 [0x03] ExtData[1]->WorkLocal[20] = 0*
228: 0x072D [0x01] GOTO 0x0785
229: 0x0730 [0x02] IF !(ExtData[1]->WorkLocal[4] == 26*) GOTO 0x0740
230: 0x0738 [0x03] ExtData[1]->WorkLocal[20] = 0*
231: 0x073D [0x01] GOTO 0x0785
232: 0x0740 [0x02] IF !(ExtData[1]->WorkLocal[4] == 27*) GOTO 0x0750
233: 0x0748 [0x03] ExtData[1]->WorkLocal[20] = 0*
234: 0x074D [0x01] GOTO 0x0785
235: 0x0750 [0x02] IF !(ExtData[1]->WorkLocal[4] == 28*) GOTO 0x0760
236: 0x0758 [0x03] ExtData[1]->WorkLocal[20] = 0*
237: 0x075D [0x01] GOTO 0x0785
238: 0x0760 [0x02] IF !(ExtData[1]->WorkLocal[4] == 29*) GOTO 0x0770
239: 0x0768 [0x03] ExtData[1]->WorkLocal[20] = 0*
240: 0x076D [0x01] GOTO 0x0785
241: 0x0770 [0x02] IF !(ExtData[1]->WorkLocal[4] == 30*) GOTO 0x0780
242: 0x0778 [0x03] ExtData[1]->WorkLocal[20] = 0*
243: 0x077D [0x01] GOTO 0x0785
244: 0x0780 [0x03] ExtData[1]->WorkLocal[20] = 0*

SUBROUTINE_0785:
245: 0x0785 [0x02] IF !(ExtData[1]->WorkLocal[2] == 1*) GOTO 0x07A0
246: 0x078D [0x5C] MUSIC_CONTROL: Set Idle (Day) music to song 217*
247: 0x0791 [0x5C] MUSIC_CONTROL: Set Idle (Night) music to song 217*
248: 0x0795 [0x5C] MUSIC_CONTROL: Set Combat (Solo) music to song 217*
249: 0x0799 [0x5C] MUSIC_CONTROL: Set Combat (Party) music to song 217*
250: 0x079D [0x01] GOTO 0x07B8
251: 0x07A0 [0x02] IF !(ExtData[1]->WorkLocal[20] == 0*) GOTO 0x07B8
252: 0x07A8 [0x5C] MUSIC_CONTROL: Set Idle (Day) music to song 217*
253: 0x07AC [0x5C] MUSIC_CONTROL: Set Idle (Night) music to song 217*
254: 0x07B0 [0x5C] MUSIC_CONTROL: Set Combat (Solo) music to song 217*
255: 0x07B4 [0x5C] MUSIC_CONTROL: Set Combat (Party) music to song 217*

SUBROUTINE_07B8:
256: 0x07B8 [0x02] IF !(ExtData[1]->WorkLocal[2] == 0*) GOTO 0x07C6
257: 0x07C0 [0x1A] CALL_SUBROUTINE(address=0x0F61)
258: 0x07C3 [0x01] GOTO 0x07FF
259: 0x07C6 [0x6C] FADE_ENTITY_COLOR(entity_id=LocalPlayer, end_alpha=0*, fade_time=1*)
260: 0x07CF [0x62] LOAD_EVENT_SCHEDULER: Load scheduler "main" with entities [LocalPlayer, LocalPlayer], work=[2*, 0*]
261: 0x07E0 [0x45] LOAD_SCHEDULED_TASK: Load scheduler "ovl1" with entities [LocalPlayer, LocalPlayer], work=[200*, 0*]
262: 0x07F1 [0x46] CAMERA_CONTROL: Query status
263: 0x07F3 [0x12] 0x0200 = rand()
264: 0x07F6 [0x12] ExtData[1]->WorkLocal[0] = rand()
265: 0x07F9 [0x80] LOAD_WAIT(entity=Unknown NPC (ID: 1174929152/0x4607FF00))
266: 0x07FE [0x00] END_REQSTACK()

SUBROUTINE_07FF:
267: 0x07FF [0x03] Work_Zone[1] = 100*
268: 0x0804 [0x07] Work_Zone[1] += ExtData[1]->WorkLocal[3]
269: 0x0809 [0x01] GOTO 0x0826

SUBROUTINE_080F:
270: 0x080F [0x0B] ExtData[1]->WorkLocal[0]++
271: 0x0812 [0x02] IF !(0* == 1*) GOTO 0x081F
272: 0x081A [0x03] ExtData[1]->WorkLocal[0] = 4*
273: 0x081F [0x01] GOTO 0x01A1
274: 0x0822 [0x48] [System] [7693*]:
    → "You cannot enter the battlefield at present. Please wait a little longer."
275: 0x0825 [0x23] WAIT_FOR_DIALOG_INTERACTION

SUBROUTINE_0826:
276: 0x0826 [0x45] LOAD_SCHEDULED_TASK: Load scheduler "whi1" with entities [LocalPlayer, LocalPlayer], work=[201*, 0*]
277: 0x0837 [0x45] LOAD_SCHEDULED_TASK: Load scheduler "blof" with entities [LocalPlayer, LocalPlayer], work=[200*, 0*]
278: 0x0848 [0x45] LOAD_SCHEDULED_TASK: Load scheduler "fdi0" with entities [LocalPlayer, LocalPlayer], work=[200*, 0*]

SUBROUTINE_0859:
279: 0x0859 [0x02] IF !(ExtData[1]->WorkLocal[7] == 1*) GOTO 0x0871
280: 0x0861 [0x5C] MUSIC_CONTROL: Set Idle (Day) music to song 0*
281: 0x0865 [0x5C] MUSIC_CONTROL: Set Idle (Night) music to song 0*
282: 0x0869 [0x5C] MUSIC_CONTROL: Set Combat (Solo) music to song 217*
283: 0x086D [0x5C] MUSIC_CONTROL: Set Combat (Party) music to song 217*
284: 0x0871 [0x21] END_EVENT
285: 0x0872 [0x00] END_REQSTACK()

SUBROUTINE_0873:
286: 0x0873 [0x1B] RETURN
```

#### Data or dead code:

```
# Dead code (unreachable instructions):
     0x0070 [0x01] GOTO 0x0142
# Dead code (unreachable instructions):
     0x0113 [0x01] GOTO 0x011B
# Dead code (unreachable instructions):
     0x013F [0x01] GOTO 0x0142
# Dead code (unreachable instructions):
     0x02D2 [0x01] GOTO 0x080F
     0x02E4 [0x01] GOTO 0x080F
# Dead code (unreachable instructions):
     0x04E6 [0x01] GOTO 0x080F
     0x04F4 [0x01] GOTO 0x080F
# Dead code (unreachable instructions):
     0x080C [0x01] GOTO 0x080F
```

### Event 32002

#### Metadata

| Field        | Value     |
|--------------|-----------|
| Entrypoint   | 0x0874    |
| Data Size    | 494 bytes |
| Instructions | 83        |

```
      00 01 02 03 04 05 06 07  08 09 0A 0B 0C 0D 0E 0F
      -- -- -- -- -- -- -- --  -- -- -- -- -- -- -- --
0870:             03 05 00 06  10 03 20 00 07 10 03 1F      ...... .....
0880: 00 08 10 20 01 42 3B F0  FF FF 7F 25 10 26 10 27  ... .B;....%.&.'
0890: 10 3A F0 FF FF 7F 28 10  45 0E 80 F0 FF FF 7F F0  .:....(.E.......
08A0: FF FF 7F 66 64 6F 31 00  80 55 0E 80 F0 FF FF 7F  ...fdo1..U......
08B0: F0 FF FF 7F 66 64 6F 31  02 00 80 05 80 00 1F 09  ....fdo1........
08C0: 02 05 00 05 80 80 D7 08  47 00 00 80 00 80 00 80  ........G.......
08D0: 00 80 47 01 01 1C 09 02  05 00 09 80 80 EE 08 47  ..G............G
08E0: 00 00 80 00 80 00 80 00  80 47 01 01 1C 09 02 05  .........G......
08F0: 00 0A 80 80 05 09 47 00  00 80 00 80 00 80 00 80  ......G.........
0900: 47 01 01 1C 09 02 05 00  0B 80 80 1C 09 47 00 00  G............G..
0910: 80 00 80 00 80 00 80 47  01 01 1C 09 01 28 0A 02  .......G.....(..
0920: 1F 00 3C 80 80 A9 09 02  20 00 00 80 80 3E 09 47  ..<..... ....>.G
0930: 00 3D 80 3E 80 3F 80 40  80 47 01 01 A6 09 02 20  .=.>.?.@.G..... 
0940: 00 05 80 80 55 09 47 00  41 80 42 80 43 80 44 80  ....U.G.A.B.C.D.
0950: 47 01 01 A6 09 02 20 00  09 80 80 6C 09 47 00 45  G..... ....l.G.E
0960: 80 46 80 47 80 48 80 47  01 01 A6 09 02 20 00 0A  .F.G.H.G..... ..
0970: 80 80 83 09 47 00 49 80  4A 80 4B 80 4C 80 47 01  ....G.I.J.K.L.G.
0980: 01 A6 09 02 20 00 0B 80  80 9A 09 47 00 4D 80 4E  .... ......G.M.N
0990: 80 4F 80 50 80 47 01 01  A6 09 47 00 51 80 52 80  .O.P.G....G.Q.R.
09A0: 53 80 54 80 47 01 01 28  0A 02 1F 00 22 80 80 1C  S.T.G..(...."...
09B0: 0A 02 20 00 05 80 80 C8  09 47 00 55 80 56 80 57  .. ......G.U.V.W
09C0: 80 58 80 47 01 01 19 0A  02 20 00 09 80 80 DF 09  .X.G..... ......
09D0: 47 00 59 80 5A 80 5B 80  5C 80 47 01 01 19 0A 02  G.Y.Z.[.\.G.....
09E0: 20 00 0A 80 80 F6 09 47  00 5D 80 5E 80 5F 80 60   ......G.].^._.`
09F0: 80 47 01 01 19 0A 02 20  00 0B 80 80 0D 0A 47 00  .G..... ......G.
0A00: 61 80 62 80 63 80 64 80  47 01 01 19 0A 47 00 51  a.b.c.d.G....G.Q
0A10: 80 52 80 53 80 54 80 47  01 01 28 0A 47 00 51 80  .R.S.T.G..(.G.Q.
0A20: 52 80 53 80 54 80 47 01  38 0F 80 1A 4B 12 45 3B  R.S.T.G.8...K.E;
0A30: 80 F0 FF FF 7F F0 FF FF  7F 77 68 69 31 00 80 45  .........whi1..E
0A40: 0E 80 F0 FF FF 7F F0 FF  FF 7F 62 6C 6F 66 00 80  ..........blof..
0A50: 5C 00 00 80 5C 01 00 80  5C 02 39 80 5C 03 39 80  \...\...\.9.\.9.
0A60: 21 00                                             !.              
```

#### Opcodes

```
  0: 0x0874 [0x03] ExtData[1]->WorkLocal[5] = Work_Zone[6]
  1: 0x0879 [0x03] ExtData[1]->WorkLocal[32] = Work_Zone[7]
  2: 0x087E [0x03] ExtData[1]->WorkLocal[31] = Work_Zone[8]
  3: 0x0883 [0x20] SET_CLI_EVENT_UC_FLAG: Lock player control
  4: 0x0885 [0x42] SET_CLI_EVENT_CANCEL_DATA()
  5: 0x0886 [0x3B] GET_ENTITY_POSITION(entity=LocalPlayer, x_destination=Work_Zone[37], y_destination=Work_Zone[38], z_destination=Work_Zone[39])
  6: 0x0891 [0x3A] CONVERT_YAW_TO_BYTE(entity=LocalPlayer, result_destination=Work_Zone[40])
  7: 0x0898 [0x45] LOAD_SCHEDULED_TASK: Load scheduler "fdo1" with entities [LocalPlayer, LocalPlayer], work=[200*, 0*]
  8: 0x08A9 [0x55] WAIT_LOAD_SCHEDULER: Wait for scheduler "fdo1" with entities [LocalPlayer, LocalPlayer], work=200*
  9: 0x08B8 [0x02] IF !(0* == 1*) GOTO 0x091F
 10: 0x08C0 [0x02] IF !(ExtData[1]->WorkLocal[5] == 1*) GOTO 0x08D7
 11: 0x08C8 [0x47] UPDATE_PLAYER_POS(0.000*, 0.000*, 0.000*, yaw=0.0°*)
 12: 0x08D2 [0x47] WAIT_PLAYER_POS_UPDATE
 13: 0x08D4 [0x01] GOTO 0x091C
 14: 0x08D7 [0x02] IF !(ExtData[1]->WorkLocal[5] == 2*) GOTO 0x08EE
 15: 0x08DF [0x47] UPDATE_PLAYER_POS(0.000*, 0.000*, 0.000*, yaw=0.0°*)
 16: 0x08E9 [0x47] WAIT_PLAYER_POS_UPDATE
 17: 0x08EB [0x01] GOTO 0x091C
 18: 0x08EE [0x02] IF !(ExtData[1]->WorkLocal[5] == 3*) GOTO 0x0905
 19: 0x08F6 [0x47] UPDATE_PLAYER_POS(0.000*, 0.000*, 0.000*, yaw=0.0°*)
 20: 0x0900 [0x47] WAIT_PLAYER_POS_UPDATE
 21: 0x0902 [0x01] GOTO 0x091C
 22: 0x0905 [0x02] IF !(ExtData[1]->WorkLocal[5] == 4*) GOTO 0x091C
 23: 0x090D [0x47] UPDATE_PLAYER_POS(0.000*, 0.000*, 0.000*, yaw=0.0°*)
 24: 0x0917 [0x47] WAIT_PLAYER_POS_UPDATE
 25: 0x0919 [0x01] GOTO 0x091C

SUBROUTINE_091C:
 26: 0x091C [0x01] GOTO 0x0A28
 27: 0x091F [0x02] IF !(ExtData[1]->WorkLocal[31] == 180*) GOTO 0x09A9
 28: 0x0927 [0x02] IF !(ExtData[1]->WorkLocal[32] == 0*) GOTO 0x093E
 29: 0x092F [0x47] UPDATE_PLAYER_POS(-605.141*, 479.929*, -22.681*, yaw=87.2°*)
 30: 0x0939 [0x47] WAIT_PLAYER_POS_UPDATE
 31: 0x093B [0x01] GOTO 0x09A6
 32: 0x093E [0x02] IF !(ExtData[1]->WorkLocal[32] == 1*) GOTO 0x0955
 33: 0x0946 [0x47] UPDATE_PLAYER_POS(-262.589*, 377.857*, -137.313*, yaw=305.3°*)
 34: 0x0950 [0x47] WAIT_PLAYER_POS_UPDATE
 35: 0x0952 [0x01] GOTO 0x09A6
 36: 0x0955 [0x02] IF !(ExtData[1]->WorkLocal[32] == 2*) GOTO 0x096C
 37: 0x095D [0x47] UPDATE_PLAYER_POS(18.348*, 486.940*, -224.334*, yaw=17.1°*)
 38: 0x0967 [0x47] WAIT_PLAYER_POS_UPDATE
 39: 0x0969 [0x01] GOTO 0x09A6
 40: 0x096C [0x02] IF !(ExtData[1]->WorkLocal[32] == 3*) GOTO 0x0983
 41: 0x0974 [0x47] UPDATE_PLAYER_POS(231.593*, 360.094*, -173.572*, yaw=160.8°*)
 42: 0x097E [0x47] WAIT_PLAYER_POS_UPDATE
 43: 0x0980 [0x01] GOTO 0x09A6
 44: 0x0983 [0x02] IF !(ExtData[1]->WorkLocal[32] == 4*) GOTO 0x099A
 45: 0x098B [0x47] UPDATE_PLAYER_POS(553.664*, 523.939*, -38.205*, yaw=233.9°*)
 46: 0x0995 [0x47] WAIT_PLAYER_POS_UPDATE
 47: 0x0997 [0x01] GOTO 0x09A6
 48: 0x099A [0x47] UPDATE_PLAYER_POS(-99.995*, -27.361*, -71.749*, yaw=90.0°*)
 49: 0x09A4 [0x47] WAIT_PLAYER_POS_UPDATE

SUBROUTINE_09A6:
 50: 0x09A6 [0x01] GOTO 0x0A28
 51: 0x09A9 [0x02] IF !(ExtData[1]->WorkLocal[31] == 6*) GOTO 0x0A1C
 52: 0x09B1 [0x02] IF !(ExtData[1]->WorkLocal[32] == 1*) GOTO 0x09C8
 53: 0x09B9 [0x47] UPDATE_PLAYER_POS(-875.117*, -43.892*, -48.084*, yaw=45.1°*)
 54: 0x09C3 [0x47] WAIT_PLAYER_POS_UPDATE
 55: 0x09C5 [0x01] GOTO 0x0A19
 56: 0x09C8 [0x02] IF !(ExtData[1]->WorkLocal[32] == 2*) GOTO 0x09DF
 57: 0x09D0 [0x47] UPDATE_PLAYER_POS(-755.499*, 563.947*, -112.035*, yaw=313.5°*)
 58: 0x09DA [0x47] WAIT_PLAYER_POS_UPDATE
 59: 0x09DC [0x01] GOTO 0x0A19
 60: 0x09DF [0x02] IF !(ExtData[1]->WorkLocal[32] == 3*) GOTO 0x09F6
 61: 0x09E7 [0x47] UPDATE_PLAYER_POS(123.251*, 754.209*, -172.124*, yaw=38.7°*)
 62: 0x09F1 [0x47] WAIT_PLAYER_POS_UPDATE
 63: 0x09F3 [0x01] GOTO 0x0A19
 64: 0x09F6 [0x02] IF !(ExtData[1]->WorkLocal[32] == 4*) GOTO 0x0A0D
 65: 0x09FE [0x47] UPDATE_PLAYER_POS(-516.404*, -803.323*, 24.206*, yaw=38.4°*)
 66: 0x0A08 [0x47] WAIT_PLAYER_POS_UPDATE
 67: 0x0A0A [0x01] GOTO 0x0A19
 68: 0x0A0D [0x47] UPDATE_PLAYER_POS(-99.995*, -27.361*, -71.749*, yaw=90.0°*)
 69: 0x0A17 [0x47] WAIT_PLAYER_POS_UPDATE

SUBROUTINE_0A19:
 70: 0x0A19 [0x01] GOTO 0x0A28
 71: 0x0A1C [0x47] UPDATE_PLAYER_POS(-99.995*, -27.361*, -71.749*, yaw=90.0°*)
 72: 0x0A26 [0x47] WAIT_PLAYER_POS_UPDATE

SUBROUTINE_0A28:
 73: 0x0A28 [0x38] SET_CLIENT_EVENT_MODE(mode=19*)
 74: 0x0A2B [0x1A] CALL_SUBROUTINE(address=0x124B)
 75: 0x0A2E [0x45] LOAD_SCHEDULED_TASK: Load scheduler "whi1" with entities [LocalPlayer, LocalPlayer], work=[201*, 0*]
 76: 0x0A3F [0x45] LOAD_SCHEDULED_TASK: Load scheduler "blof" with entities [LocalPlayer, LocalPlayer], work=[200*, 0*]
 77: 0x0A50 [0x5C] MUSIC_CONTROL: Set Idle (Day) music to song 0*
 78: 0x0A54 [0x5C] MUSIC_CONTROL: Set Idle (Night) music to song 0*
 79: 0x0A58 [0x5C] MUSIC_CONTROL: Set Combat (Solo) music to song 217*
 80: 0x0A5C [0x5C] MUSIC_CONTROL: Set Combat (Party) music to song 217*
 81: 0x0A60 [0x21] END_EVENT
 82: 0x0A61 [0x00] END_REQSTACK()
```

### Event 32001

#### Metadata

| Field        | Value     |
|--------------|-----------|
| Entrypoint   | 0x0A62    |
| Data Size    | 819 bytes |
| Instructions | 137       |

```
      00 01 02 03 04 05 06 07  08 09 0A 0B 0C 0D 0E 0F
      -- -- -- -- -- -- -- --  -- -- -- -- -- -- -- --
0A60:       79 00 F0 FF FF 7F  F0 FF FF 7F 03 20 00 02    y.......... ..
0A70: 10 03 19 00 03 10 03 1A  00 05 10 03 1F 00 06 10  ................
0A80: 03 18 00 07 10 03 16 00  08 10 03 1B 00 09 10 20  ............... 
0A90: 01 42 3B F0 FF FF 7F 25  10 26 10 27 10 3A F0 FF  .B;....%.&.'.:..
0AA0: FF 7F 28 10 02 1F 00 3C  80 01 AF 0A 1C 65 80 45  ..(....<.....e.E
0AB0: 3B 80 F0 FF FF 7F F0 FF  FF 7F 77 68 69 31 00 80  ;.........whi1..
0AC0: 45 0E 80 F0 FF FF 7F F0  FF FF 7F 62 6C 6F 66 00  E..........blof.
0AD0: 80 45 0E 80 F0 FF FF 7F  F0 FF FF 7F 66 64 6F 31  .E..........fdo1
0AE0: 00 80 55 0E 80 F0 FF FF  7F F0 FF FF 7F 66 64 6F  ..U..........fdo
0AF0: 31 6C F0 FF FF 7F 66 80  05 80 06 01 10 02 16 00  1l....f.........
0B00: 00 80 03 08 0B 01 CC 0B  02 1F 00 3C 80 80 92 0B  ...........<....
0B10: 02 20 00 00 80 80 27 0B  47 00 67 80 68 80 69 80  . ....'.G.g.h.i.
0B20: 6A 80 47 01 01 8F 0B 02  20 00 05 80 80 3E 0B 47  j.G..... ....>.G
0B30: 00 6B 80 6C 80 6D 80 6E  80 47 01 01 8F 0B 02 20  .k.l.m.n.G..... 
0B40: 00 09 80 80 55 0B 47 00  6F 80 70 80 71 80 72 80  ....U.G.o.p.q.r.
0B50: 47 01 01 8F 0B 02 20 00  0A 80 80 6C 0B 47 00 73  G..... ....l.G.s
0B60: 80 74 80 75 80 76 80 47  01 01 8F 0B 02 20 00 0B  .t.u.v.G..... ..
0B70: 80 80 83 0B 47 00 77 80  78 80 79 80 7A 80 47 01  ....G.w.x.y.z.G.
0B80: 01 8F 0B 47 00 7B 80 7C  80 7D 80 16 80 47 01 01  ...G.{.|.}...G..
0B90: CC 0B 02 1F 00 7E 80 80  C0 0B 02 18 00 00 80 80  .....~..........
0BA0: B1 0B 47 00 7B 80 7C 80  7D 80 16 80 47 01 01 BD  ..G.{.|.}...G...
0BB0: 0B 47 00 7F 80 80 80 81  80 82 80 47 01 01 CC 0B  .G.........G....
0BC0: 47 00 7B 80 7C 80 7D 80  16 80 47 01 38 0F 80 02  G.{.|.}...G.8...
0BD0: 16 00 09 80 00 DA 0B 01  F5 0B 02 16 00 05 80 00  ................
0BE0: A5 0C 1C 01 80 24 38 80  05 80 00 80 25 02 00 10  .....$8.....%...
0BF0: 00 80 00 A5 0C 02 1F 00  3C 80 00 61 0C 02 20 00  ........<..a.. .
0C00: 00 80 80 0F 0C 36 67 80  68 80 69 80 01 5E 0C 02  .....6g.h.i..^..
0C10: 20 00 05 80 80 21 0C 36  6B 80 6C 80 6D 80 01 5E   ....!.6k.l.m..^
0C20: 0C 02 20 00 09 80 80 33  0C 36 6F 80 70 80 71 80  .. ....3.6o.p.q.
0C30: 01 5E 0C 02 20 00 0A 80  80 45 0C 36 73 80 74 80  .^.. ....E.6s.t.
0C40: 75 80 01 5E 0C 02 20 00  0B 80 80 57 0C 36 77 80  u..^.. ....W.6w.
0C50: 78 80 79 80 01 5E 0C 36  7B 80 7C 80 7D 80 01 6A  x.y..^.6{.|.}..j
0C60: 0C 37 7B 80 7C 80 7D 80  16 80 80 F0 FF FF 7F 62  .7{.|.}........b
0C70: 09 80 F0 FF FF 7F F0 FF  FF 7F 6D 61 69 6E 00 80  ..........main..
0C80: 45 0E 80 F0 FF FF 7F F0  FF FF 7F 66 64 69 32 00  E..........fdi2.
0C90: 80 46 02 12 00 02 12 00  00 80 00 9F 0C 46 00 01  .F...........F..
0CA0: CC 0C 01 A5 0C 02 16 00  04 80 04 BE 0C 5C 00 39  .............\.9
0CB0: 80 5C 01 39 80 5C 02 39  80 5C 03 39 80 9A 1A D5  .\.9.\.9.\.9....
0CC0: 10 02 16 00 00 80 03 CC  0C 01 2D 0D 03 05 10 1A  ..........-.....
0CD0: 00 02 05 10 00 80 02 2D  0D 02 05 10 36 80 04 F4  .......-....6...
0CE0: 0C 3F 04 10 05 10 36 80  15 05 10 36 80 48 83 80  .?....6....6.H..
0CF0: 23 01 F8 0C 48 84 80 23  02 1A 00 19 00 05 0C 0D  #...H..#........
0D00: 03 07 10 18 00 48 85 80  23 01 2D 0D 02 19 00 36  .....H..#.-....6
0D10: 80 04 28 0D 03 05 10 19  00 3F 04 10 05 10 36 80  ..(......?....6.
0D20: 15 05 10 36 80 01 2D 0D  03 05 10 19 00 02 17 00  ...6..-.........
0D30: 00 80 00 45 0D 5C 00 00  80 5C 01 00 80 5C 02 39  ...E.\...\...\.9
0D40: 80 5C 03 39 80 02 16 00  00 80 03 6E 0D 45 0E 80  .\.9.......n.E..
0D50: F0 FF FF 7F F0 FF FF 7F  66 64 69 32 00 80 5C 00  ........fdi2..\.
0D60: 00 80 5C 01 00 80 5C 02  39 80 5C 03 39 80 06 17  ..\...\.9.\.9...
0D70: 00 45 3B 80 F0 FF FF 7F  F0 FF FF 7F 77 68 69 31  .E;.........whi1
0D80: 00 80 45 0E 80 F0 FF FF  7F F0 FF FF 7F 62 6C 6F  ..E..........blo
0D90: 66 00 80 21 00                                    f..!.           
```

#### Opcodes

```
  0: 0x0A62 [0x79] LocalPlayer looks at LocalPlayer (Basic look)
  1: 0x0A6C [0x03] ExtData[1]->WorkLocal[32] = Work_Zone[2]
  2: 0x0A71 [0x03] ExtData[1]->WorkLocal[25] = Work_Zone[3]
  3: 0x0A76 [0x03] ExtData[1]->WorkLocal[26] = Work_Zone[5]
  4: 0x0A7B [0x03] ExtData[1]->WorkLocal[31] = Work_Zone[6]
  5: 0x0A80 [0x03] ExtData[1]->WorkLocal[24] = Work_Zone[7]
  6: 0x0A85 [0x03] ExtData[1]->WorkLocal[22] = Work_Zone[8]
  7: 0x0A8A [0x03] ExtData[1]->WorkLocal[27] = Work_Zone[9]
  8: 0x0A8F [0x20] SET_CLI_EVENT_UC_FLAG: Lock player control
  9: 0x0A91 [0x42] SET_CLI_EVENT_CANCEL_DATA()
 10: 0x0A92 [0x3B] GET_ENTITY_POSITION(entity=LocalPlayer, x_destination=Work_Zone[37], y_destination=Work_Zone[38], z_destination=Work_Zone[39])
 11: 0x0A9D [0x3A] CONVERT_YAW_TO_BYTE(entity=LocalPlayer, result_destination=Work_Zone[40])
 12: 0x0AA4 [0x02] IF !(ExtData[1]->WorkLocal[31] == 180*) GOTO 0x0AAF
 13: 0x0AAC [0x1C] WAIT(300* ticks)
 14: 0x0AAF [0x45] LOAD_SCHEDULED_TASK: Load scheduler "whi1" with entities [LocalPlayer, LocalPlayer], work=[201*, 0*]
 15: 0x0AC0 [0x45] LOAD_SCHEDULED_TASK: Load scheduler "blof" with entities [LocalPlayer, LocalPlayer], work=[200*, 0*]
 16: 0x0AD1 [0x45] LOAD_SCHEDULED_TASK: Load scheduler "fdo1" with entities [LocalPlayer, LocalPlayer], work=[200*, 0*]
 17: 0x0AE2 [0x55] WAIT_LOAD_SCHEDULER: Wait for scheduler "fdo1" with entities [LocalPlayer, LocalPlayer], work=200*
 18: 0x0AF1 [0x6C] FADE_ENTITY_COLOR(entity_id=LocalPlayer, end_alpha=128*, fade_time=1*)
 19: 0x0AFA [0x06] Work_Zone[1] = 0
 20: 0x0AFD [0x02] IF !(ExtData[1]->WorkLocal[22] >= 0*) GOTO 0x0B08
 21: 0x0B05 [0x01] GOTO 0x0BCC
 22: 0x0B08 [0x02] IF !(ExtData[1]->WorkLocal[31] == 180*) GOTO 0x0B92
 23: 0x0B10 [0x02] IF !(ExtData[1]->WorkLocal[32] == 0*) GOTO 0x0B27
 24: 0x0B18 [0x47] UPDATE_PLAYER_POS(-618.329*, -643.868*, -25.805*, yaw=330.5°*)
 25: 0x0B22 [0x47] WAIT_PLAYER_POS_UPDATE
 26: 0x0B24 [0x01] GOTO 0x0B8F
 27: 0x0B27 [0x02] IF !(ExtData[1]->WorkLocal[32] == 1*) GOTO 0x0B3E
 28: 0x0B2F [0x47] UPDATE_PLAYER_POS(-332.163*, -441.914*, -95.055*, yaw=330.5°*)
 29: 0x0B39 [0x47] WAIT_PLAYER_POS_UPDATE
 30: 0x0B3B [0x01] GOTO 0x0B8F
 31: 0x0B3E [0x02] IF !(ExtData[1]->WorkLocal[32] == 2*) GOTO 0x0B55
 32: 0x0B46 [0x47] UPDATE_PLAYER_POS(-12.464*, -648.377*, -194.629*, yaw=331.3°*)
 33: 0x0B50 [0x47] WAIT_PLAYER_POS_UPDATE
 34: 0x0B52 [0x01] GOTO 0x0B8F
 35: 0x0B55 [0x02] IF !(ExtData[1]->WorkLocal[32] == 3*) GOTO 0x0B6C
 36: 0x0B5D [0x47] UPDATE_PLAYER_POS(323.381*, -443.793*, -108.440*, yaw=329.1°*)
 37: 0x0B67 [0x47] WAIT_PLAYER_POS_UPDATE
 38: 0x0B69 [0x01] GOTO 0x0B8F
 39: 0x0B6C [0x02] IF !(ExtData[1]->WorkLocal[32] == 4*) GOTO 0x0B83
 40: 0x0B74 [0x47] UPDATE_PLAYER_POS(599.907*, -676.969*, -22.473*, yaw=330.7°*)
 41: 0x0B7E [0x47] WAIT_PLAYER_POS_UPDATE
 42: 0x0B80 [0x01] GOTO 0x0B8F
 43: 0x0B83 [0x47] UPDATE_PLAYER_POS(-100.311*, 159.214*, -55.750*, yaw=270.0°*)
 44: 0x0B8D [0x47] WAIT_PLAYER_POS_UPDATE

SUBROUTINE_0B8F:
 45: 0x0B8F [0x01] GOTO 0x0BCC
 46: 0x0B92 [0x02] IF !(ExtData[1]->WorkLocal[31] == 168*) GOTO 0x0BC0
 47: 0x0B9A [0x02] IF !(ExtData[1]->WorkLocal[24] == 0*) GOTO 0x0BB1
 48: 0x0BA2 [0x47] UPDATE_PLAYER_POS(-100.311*, 159.214*, -55.750*, yaw=270.0°*)
 49: 0x0BAC [0x47] WAIT_PLAYER_POS_UPDATE
 50: 0x0BAE [0x01] GOTO 0x0BBD
 51: 0x0BB1 [0x47] UPDATE_PLAYER_POS(200.059*, -21.958*, -0.250*, yaw=91.5°*)
 52: 0x0BBB [0x47] WAIT_PLAYER_POS_UPDATE

SUBROUTINE_0BBD:
 53: 0x0BBD [0x01] GOTO 0x0BCC
 54: 0x0BC0 [0x47] UPDATE_PLAYER_POS(-100.311*, 159.214*, -55.750*, yaw=270.0°*)
 55: 0x0BCA [0x47] WAIT_PLAYER_POS_UPDATE

SUBROUTINE_0BCC:
 56: 0x0BCC [0x38] SET_CLIENT_EVENT_MODE(mode=19*)
 57: 0x0BCF [0x02] IF !(ExtData[1]->WorkLocal[22] == 2*) GOTO 0x0BDA
 58: 0x0BD7 [0x01] GOTO 0x0BF5
 59: 0x0BDA [0x02] IF !(ExtData[1]->WorkLocal[22] == 1*) GOTO 0x0CA5
 60: 0x0BE2 [0x1C] WAIT(15* ticks)
 61: 0x0BE5 [0x24] CREATE_DIALOG(message_id=8029*, default_option=1*, option_flags=0*)
    → "Skip the event? [Yes./No.]"
 62: 0x0BEC [0x25] WAIT_DIALOG_SELECT()
 63: 0x0BED [0x02] IF !(Work_Zone[0] == 0*) GOTO 0x0CA5

SUBROUTINE_0BF5:
 64: 0x0BF5 [0x02] IF !(ExtData[1]->WorkLocal[31] == 180*) GOTO 0x0C61
 65: 0x0BFD [0x02] IF !(ExtData[1]->WorkLocal[32] == 0*) GOTO 0x0C0F
 66: 0x0C05 [0x36] SET_ENTITY_EVENT_POSITION(pos_x=-618.329*, pos_z=-643.868*, pos_y=-25.805*)
 67: 0x0C0C [0x01] GOTO 0x0C5E
 68: 0x0C0F [0x02] IF !(ExtData[1]->WorkLocal[32] == 1*) GOTO 0x0C21
 69: 0x0C17 [0x36] SET_ENTITY_EVENT_POSITION(pos_x=-332.163*, pos_z=-441.914*, pos_y=-95.055*)
 70: 0x0C1E [0x01] GOTO 0x0C5E
 71: 0x0C21 [0x02] IF !(ExtData[1]->WorkLocal[32] == 2*) GOTO 0x0C33
 72: 0x0C29 [0x36] SET_ENTITY_EVENT_POSITION(pos_x=-12.464*, pos_z=-648.377*, pos_y=-194.629*)
 73: 0x0C30 [0x01] GOTO 0x0C5E
 74: 0x0C33 [0x02] IF !(ExtData[1]->WorkLocal[32] == 3*) GOTO 0x0C45
 75: 0x0C3B [0x36] SET_ENTITY_EVENT_POSITION(pos_x=323.381*, pos_z=-443.793*, pos_y=-108.440*)
 76: 0x0C42 [0x01] GOTO 0x0C5E
 77: 0x0C45 [0x02] IF !(ExtData[1]->WorkLocal[32] == 4*) GOTO 0x0C57
 78: 0x0C4D [0x36] SET_ENTITY_EVENT_POSITION(pos_x=599.907*, pos_z=-676.969*, pos_y=-22.473*)
 79: 0x0C54 [0x01] GOTO 0x0C5E
 80: 0x0C57 [0x36] SET_ENTITY_EVENT_POSITION(pos_x=-100.311*, pos_z=159.214*, pos_y=-55.750*)

SUBROUTINE_0C5E:
 81: 0x0C5E [0x01] GOTO 0x0C6A
 82: 0x0C61 [0x37] UPDATE_EVENT_POSITION_AND_DIR: x=-100.311*, z=159.214*, y=-55.750*, direction=270.0°*

SUBROUTINE_0C6A:
 83: 0x0C6A [0x80] LOAD_WAIT(entity=LocalPlayer)
 84: 0x0C6F [0x62] LOAD_EVENT_SCHEDULER: Load scheduler "main" with entities [LocalPlayer, LocalPlayer], work=[2*, 0*]
 85: 0x0C80 [0x45] LOAD_SCHEDULED_TASK: Load scheduler "fdi2" with entities [LocalPlayer, LocalPlayer], work=[200*, 0*]
 86: 0x0C91 [0x46] CAMERA_CONTROL: Query status
 87: 0x0C93 [0x12] 0x0200 = rand()
 88: 0x0C96 [0x12] ExtData[1]->WorkLocal[0] = rand()
 89: 0x0C99 [0x80] LOAD_WAIT(entity=Unknown NPC (ID: 1175232256/0x460C9F00))
 90: 0x0C9E [0x00] END_REQSTACK()

SUBROUTINE_0CA5:
 91: 0x0CA5 [0x02] IF !(ExtData[1]->WorkLocal[22] < 4294967295*) GOTO 0x0CBE
 92: 0x0CAD [0x5C] MUSIC_CONTROL: Set Idle (Day) music to song 217*
 93: 0x0CB1 [0x5C] MUSIC_CONTROL: Set Idle (Night) music to song 217*
 94: 0x0CB5 [0x5C] MUSIC_CONTROL: Set Combat (Solo) music to song 217*
 95: 0x0CB9 [0x5C] MUSIC_CONTROL: Set Combat (Party) music to song 217*
 96: 0x0CBD [0x9A] WAIT_MUSIC_SERVER()
 97: 0x0CBE [0x1A] CALL_SUBROUTINE(address=0x10D5)
 98: 0x0CC1 [0x02] IF !(ExtData[1]->WorkLocal[22] >= 0*) GOTO 0x0CCC
 99: 0x0CC9 [0x01] GOTO 0x0D2D

SUBROUTINE_0CCC:
100: 0x0CCC [0x03] Work_Zone[5] = ExtData[1]->WorkLocal[26]
101: 0x0CD1 [0x02] IF !(Work_Zone[5] <= 0*) GOTO 0x0D2D
102: 0x0CD9 [0x02] IF !(Work_Zone[5] < 60*) GOTO 0x0CF4
103: 0x0CE1 [0x3F] Work_Zone[4] = Work_Zone[5] % 60*
104: 0x0CE8 [0x15] Work_Zone[5] /= 60*
105: 0x0CED [0x48] [System] [8031*]:
    → "Battlefield clear time: $3 minute[/s], $2 second[/s]!"
106: 0x0CF0 [0x23] WAIT_FOR_DIALOG_INTERACTION
107: 0x0CF1 [0x01] GOTO 0x0CF8
108: 0x0CF4 [0x48] [System] [8030*]:
    → "Battlefield clear time: $3 second[/s]!"
109: 0x0CF7 [0x23] WAIT_FOR_DIALOG_INTERACTION

SUBROUTINE_0CF8:
110: 0x0CF8 [0x02] IF !(ExtData[1]->WorkLocal[26] > ExtData[1]->WorkLocal[25]) GOTO 0x0D0C
111: 0x0D00 [0x03] Work_Zone[7] = ExtData[1]->WorkLocal[24]
112: 0x0D05 [0x48] [System] [8066*]:
    → "You have broken the clear time record for "[Plucking Wings (W)/A Malicious Manifest/Manifest Destiny/At Journey's End]"!"
113: 0x0D08 [0x23] WAIT_FOR_DIALOG_INTERACTION
114: 0x0D09 [0x01] GOTO 0x0D2D
115: 0x0D0C [0x02] IF !(ExtData[1]->WorkLocal[25] < 60*) GOTO 0x0D28
116: 0x0D14 [0x03] Work_Zone[5] = ExtData[1]->WorkLocal[25]
117: 0x0D19 [0x3F] Work_Zone[4] = Work_Zone[5] % 60*
118: 0x0D20 [0x15] Work_Zone[5] /= 60*
119: 0x0D25 [0x01] GOTO 0x0D2D
120: 0x0D28 [0x03] Work_Zone[5] = ExtData[1]->WorkLocal[25]

SUBROUTINE_0D2D:
121: 0x0D2D [0x02] IF !(ExtData[1]->WorkLocal[23] == 0*) GOTO 0x0D45
122: 0x0D35 [0x5C] MUSIC_CONTROL: Set Idle (Day) music to song 0*
123: 0x0D39 [0x5C] MUSIC_CONTROL: Set Idle (Night) music to song 0*
124: 0x0D3D [0x5C] MUSIC_CONTROL: Set Combat (Solo) music to song 217*
125: 0x0D41 [0x5C] MUSIC_CONTROL: Set Combat (Party) music to song 217*
126: 0x0D45 [0x02] IF !(ExtData[1]->WorkLocal[22] >= 0*) GOTO 0x0D6E
127: 0x0D4D [0x45] LOAD_SCHEDULED_TASK: Load scheduler "fdi2" with entities [LocalPlayer, LocalPlayer], work=[200*, 0*]
128: 0x0D5E [0x5C] MUSIC_CONTROL: Set Idle (Day) music to song 0*
129: 0x0D62 [0x5C] MUSIC_CONTROL: Set Idle (Night) music to song 0*
130: 0x0D66 [0x5C] MUSIC_CONTROL: Set Combat (Solo) music to song 217*
131: 0x0D6A [0x5C] MUSIC_CONTROL: Set Combat (Party) music to song 217*
132: 0x0D6E [0x06] ExtData[1]->WorkLocal[23] = 0
133: 0x0D71 [0x45] LOAD_SCHEDULED_TASK: Load scheduler "whi1" with entities [LocalPlayer, LocalPlayer], work=[201*, 0*]
134: 0x0D82 [0x45] LOAD_SCHEDULED_TASK: Load scheduler "blof" with entities [LocalPlayer, LocalPlayer], work=[200*, 0*]
135: 0x0D93 [0x21] END_EVENT
136: 0x0D94 [0x00] END_REQSTACK()
```

#### Data or dead code:

```
# Dead code (unreachable instructions):
     0x0C9F [0x01] GOTO 0x0CCC
     0x0CA2 [0x01] GOTO 0x0CA5
```

### Event 32003

#### Metadata

| Field        | Value     |
|--------------|-----------|
| Entrypoint   | 0x0D95    |
| Data Size    | 435 bytes |
| Instructions | 77        |

```
      00 01 02 03 04 05 06 07  08 09 0A 0B 0C 0D 0E 0F
      -- -- -- -- -- -- -- --  -- -- -- -- -- -- -- --
0D90:                06 1C 00  06 1D 00 03 20 00 06 10       ....... ...
0DA0: 03 1F 00 07 10 03 1E 00  08 10 06 01 10 1A CB 11  ................
0DB0: 02 1C 00 05 80 00 46 0F  42 03 01 10 09 80 43 00  ......F.B.....C.
0DC0: 43 01 03 01 10 0A 80 43  00 43 01 1A E2 11 02 1D  C......C.C......
0DD0: 00 05 80 00 46 0F 45 0E  80 F0 FF FF 7F F0 FF FF  ....F.E.........
0DE0: 7F 66 64 6F 31 00 80 55  0E 80 F0 FF FF 7F F0 FF  .fdo1..U........
0DF0: FF 7F 66 64 6F 31 03 01  10 0B 80 02 1F 00 3C 80  ..fdo1........<.
0E00: 80 85 0E 02 20 00 00 80  80 1A 0E 47 00 3D 80 3E  .... ......G.=.>
0E10: 80 3F 80 40 80 47 01 01  82 0E 02 20 00 05 80 80  .?.@.G..... ....
0E20: 31 0E 47 00 41 80 42 80  43 80 44 80 47 01 01 82  1.G.A.B.C.D.G...
0E30: 0E 02 20 00 09 80 80 48  0E 47 00 45 80 46 80 47  .. ....H.G.E.F.G
0E40: 80 48 80 47 01 01 82 0E  02 20 00 0A 80 80 5F 0E  .H.G..... ...._.
0E50: 47 00 49 80 4A 80 4B 80  4C 80 47 01 01 82 0E 02  G.I.J.K.L.G.....
0E60: 20 00 0B 80 80 76 0E 47  00 4D 80 4E 80 4F 80 50   ....v.G.M.N.O.P
0E70: 80 47 01 01 82 0E 47 00  51 80 52 80 53 80 54 80  .G....G.Q.R.S.T.
0E80: 47 01 01 04 0F 02 1F 00  22 80 80 F8 0E 02 1E 00  G.......".......
0E90: 05 80 80 A4 0E 47 00 55  80 56 80 57 80 58 80 47  .....G.U.V.W.X.G
0EA0: 01 01 F5 0E 02 1E 00 09  80 80 BB 0E 47 00 59 80  ............G.Y.
0EB0: 5A 80 5B 80 5C 80 47 01  01 F5 0E 02 1E 00 0A 80  Z.[.\.G.........
0EC0: 80 D2 0E 47 00 5D 80 5E  80 5F 80 60 80 47 01 01  ...G.].^._.`.G..
0ED0: F5 0E 02 1E 00 0B 80 80  E9 0E 47 00 61 80 62 80  ..........G.a.b.
0EE0: 63 80 64 80 47 01 01 F5  0E 47 00 51 80 52 80 53  c.d.G....G.Q.R.S
0EF0: 80 54 80 47 01 01 04 0F  47 00 51 80 52 80 53 80  .T.G....G.Q.R.S.
0F00: 54 80 47 01 38 0F 80 79  00 F0 FF FF 7F F0 FF FF  T.G.8..y........
0F10: 7F 1A E6 11 45 3B 80 F0  FF FF 7F F0 FF FF 7F 77  ....E;.........w
0F20: 68 69 31 00 80 45 0E 80  F0 FF FF 7F F0 FF FF 7F  hi1..E..........
0F30: 62 6C 6F 66 00 80 5C 00  00 80 5C 01 00 80 5C 02  blof..\...\...\.
0F40: 39 80 5C 03 39 80 21 00                           9.\.9.!.        
```

#### Opcodes

```
  0: 0x0D95 [0x06] ExtData[1]->WorkLocal[28] = 0
  1: 0x0D98 [0x06] ExtData[1]->WorkLocal[29] = 0
  2: 0x0D9B [0x03] ExtData[1]->WorkLocal[32] = Work_Zone[6]
  3: 0x0DA0 [0x03] ExtData[1]->WorkLocal[31] = Work_Zone[7]
  4: 0x0DA5 [0x03] ExtData[1]->WorkLocal[30] = Work_Zone[8]
  5: 0x0DAA [0x06] Work_Zone[1] = 0
  6: 0x0DAD [0x1A] CALL_SUBROUTINE(address=0x11CB)
  7: 0x0DB0 [0x02] IF !(ExtData[1]->WorkLocal[28] == 1*) GOTO 0x0F46
  8: 0x0DB8 [0x42] SET_CLI_EVENT_CANCEL_DATA()
  9: 0x0DB9 [0x03] Work_Zone[1] = 2*
 10: 0x0DBE [0x43] SEND_EVENT_UPDATE: Send pending tag to server (packet 0x005B)
 11: 0x0DC0 [0x43] SEND_EVENT_UPDATE: Check pending flag (skip if not pending)
 12: 0x0DC2 [0x03] Work_Zone[1] = 3*
 13: 0x0DC7 [0x43] SEND_EVENT_UPDATE: Send pending tag to server (packet 0x005B)
 14: 0x0DC9 [0x43] SEND_EVENT_UPDATE: Check pending flag (skip if not pending)
 15: 0x0DCB [0x1A] CALL_SUBROUTINE(address=0x11E2)
 16: 0x0DCE [0x02] IF !(ExtData[1]->WorkLocal[29] == 1*) GOTO 0x0F46
 17: 0x0DD6 [0x45] LOAD_SCHEDULED_TASK: Load scheduler "fdo1" with entities [LocalPlayer, LocalPlayer], work=[200*, 0*]
 18: 0x0DE7 [0x55] WAIT_LOAD_SCHEDULER: Wait for scheduler "fdo1" with entities [LocalPlayer, LocalPlayer], work=200*
 19: 0x0DF6 [0x03] Work_Zone[1] = 4*
 20: 0x0DFB [0x02] IF !(ExtData[1]->WorkLocal[31] == 180*) GOTO 0x0E85
 21: 0x0E03 [0x02] IF !(ExtData[1]->WorkLocal[32] == 0*) GOTO 0x0E1A
 22: 0x0E0B [0x47] UPDATE_PLAYER_POS(-605.141*, 479.929*, -22.681*, yaw=87.2°*)
 23: 0x0E15 [0x47] WAIT_PLAYER_POS_UPDATE
 24: 0x0E17 [0x01] GOTO 0x0E82
 25: 0x0E1A [0x02] IF !(ExtData[1]->WorkLocal[32] == 1*) GOTO 0x0E31
 26: 0x0E22 [0x47] UPDATE_PLAYER_POS(-262.589*, 377.857*, -137.313*, yaw=305.3°*)
 27: 0x0E2C [0x47] WAIT_PLAYER_POS_UPDATE
 28: 0x0E2E [0x01] GOTO 0x0E82
 29: 0x0E31 [0x02] IF !(ExtData[1]->WorkLocal[32] == 2*) GOTO 0x0E48
 30: 0x0E39 [0x47] UPDATE_PLAYER_POS(18.348*, 486.940*, -224.334*, yaw=17.1°*)
 31: 0x0E43 [0x47] WAIT_PLAYER_POS_UPDATE
 32: 0x0E45 [0x01] GOTO 0x0E82
 33: 0x0E48 [0x02] IF !(ExtData[1]->WorkLocal[32] == 3*) GOTO 0x0E5F
 34: 0x0E50 [0x47] UPDATE_PLAYER_POS(231.593*, 360.094*, -173.572*, yaw=160.8°*)
 35: 0x0E5A [0x47] WAIT_PLAYER_POS_UPDATE
 36: 0x0E5C [0x01] GOTO 0x0E82
 37: 0x0E5F [0x02] IF !(ExtData[1]->WorkLocal[32] == 4*) GOTO 0x0E76
 38: 0x0E67 [0x47] UPDATE_PLAYER_POS(553.664*, 523.939*, -38.205*, yaw=233.9°*)
 39: 0x0E71 [0x47] WAIT_PLAYER_POS_UPDATE
 40: 0x0E73 [0x01] GOTO 0x0E82
 41: 0x0E76 [0x47] UPDATE_PLAYER_POS(-99.995*, -27.361*, -71.749*, yaw=90.0°*)
 42: 0x0E80 [0x47] WAIT_PLAYER_POS_UPDATE

SUBROUTINE_0E82:
 43: 0x0E82 [0x01] GOTO 0x0F04
 44: 0x0E85 [0x02] IF !(ExtData[1]->WorkLocal[31] == 6*) GOTO 0x0EF8
 45: 0x0E8D [0x02] IF !(ExtData[1]->WorkLocal[30] == 1*) GOTO 0x0EA4
 46: 0x0E95 [0x47] UPDATE_PLAYER_POS(-875.117*, -43.892*, -48.084*, yaw=45.1°*)
 47: 0x0E9F [0x47] WAIT_PLAYER_POS_UPDATE
 48: 0x0EA1 [0x01] GOTO 0x0EF5
 49: 0x0EA4 [0x02] IF !(ExtData[1]->WorkLocal[30] == 2*) GOTO 0x0EBB
 50: 0x0EAC [0x47] UPDATE_PLAYER_POS(-755.499*, 563.947*, -112.035*, yaw=313.5°*)
 51: 0x0EB6 [0x47] WAIT_PLAYER_POS_UPDATE
 52: 0x0EB8 [0x01] GOTO 0x0EF5
 53: 0x0EBB [0x02] IF !(ExtData[1]->WorkLocal[30] == 3*) GOTO 0x0ED2
 54: 0x0EC3 [0x47] UPDATE_PLAYER_POS(123.251*, 754.209*, -172.124*, yaw=38.7°*)
 55: 0x0ECD [0x47] WAIT_PLAYER_POS_UPDATE
 56: 0x0ECF [0x01] GOTO 0x0EF5
 57: 0x0ED2 [0x02] IF !(ExtData[1]->WorkLocal[30] == 4*) GOTO 0x0EE9
 58: 0x0EDA [0x47] UPDATE_PLAYER_POS(-516.404*, -803.323*, 24.206*, yaw=38.4°*)
 59: 0x0EE4 [0x47] WAIT_PLAYER_POS_UPDATE
 60: 0x0EE6 [0x01] GOTO 0x0EF5
 61: 0x0EE9 [0x47] UPDATE_PLAYER_POS(-99.995*, -27.361*, -71.749*, yaw=90.0°*)
 62: 0x0EF3 [0x47] WAIT_PLAYER_POS_UPDATE

SUBROUTINE_0EF5:
 63: 0x0EF5 [0x01] GOTO 0x0F04
 64: 0x0EF8 [0x47] UPDATE_PLAYER_POS(-99.995*, -27.361*, -71.749*, yaw=90.0°*)
 65: 0x0F02 [0x47] WAIT_PLAYER_POS_UPDATE

SUBROUTINE_0F04:
 66: 0x0F04 [0x38] SET_CLIENT_EVENT_MODE(mode=19*)
 67: 0x0F07 [0x79] LocalPlayer looks at LocalPlayer (Basic look)
 68: 0x0F11 [0x1A] CALL_SUBROUTINE(address=0x11E6)
 69: 0x0F14 [0x45] LOAD_SCHEDULED_TASK: Load scheduler "whi1" with entities [LocalPlayer, LocalPlayer], work=[201*, 0*]
 70: 0x0F25 [0x45] LOAD_SCHEDULED_TASK: Load scheduler "blof" with entities [LocalPlayer, LocalPlayer], work=[200*, 0*]
 71: 0x0F36 [0x5C] MUSIC_CONTROL: Set Idle (Day) music to song 0*
 72: 0x0F3A [0x5C] MUSIC_CONTROL: Set Idle (Night) music to song 0*
 73: 0x0F3E [0x5C] MUSIC_CONTROL: Set Combat (Solo) music to song 217*
 74: 0x0F42 [0x5C] MUSIC_CONTROL: Set Combat (Party) music to song 217*
 75: 0x0F46 [0x21] END_EVENT
 76: 0x0F47 [0x00] END_REQSTACK()
```

### Event 32004

#### Metadata

| Field        | Value      |
|--------------|------------|
| Entrypoint   | 0x0F48     |
| Data Size    | 1655 bytes |
| Instructions | 2          |

```
      00 01 02 03 04 05 06 07  08 09 0A 0B 0C 0D 0E 0F
      -- -- -- -- -- -- -- --  -- -- -- -- -- -- -- --
0F40:                          21 00 24 0C 80 05 80 00          !.$.....
0F50: 80 25 02 00 10 00 80 00  60 0F 05 01 00 01 60 0F  .%......`.....`.
0F60: 1B 06 22 00 06 21 00 79  00 F0 FF FF 7F F0 FF FF  .."..!.y........
0F70: 7F 42 46 01 02 03 00 0A  80 80 03 10 06 02 10 03  .BF.............
0F80: 23 00 01 10 03 01 10 86  80 43 00 43 01 02 02 10  #........C.C....
0F90: 05 80 00 F4 0F 24 38 80  05 80 00 80 25 02 00 10  .....$8.....%...
0FA0: 00 80 00 DF 0F 37 87 80  88 80 89 80 8A 80 45 8B  .....7........E.
0FB0: 80 F0 FF FF 7F F0 FF FF  7F 62 39 39 61 00 80 1A  .........b99a...
0FC0: F3 12 1C 34 80 27 03 3B  33 06 01 02 1C 8C 80 27  ...4.'.;3......'
0FD0: 05 3B 33 06 01 03 1C 34  80 1A 14 13 01 F1 0F 02  .;3....4........
0FE0: 00 10 05 80 00 F1 0F 29  10 6E 33 06 01 04 01 F1  .......).n3.....
0FF0: 0F 01 FB 0F 29 10 6E 33  06 01 04 03 01 10 23 00  ....).n3......#.
1000: 01 45 10 02 03 00 34 80  80 0E 10 01 45 10 37 87  .E....4.....E.7.
1010: 80 88 80 89 80 8A 80 45  8B 80 F0 FF FF 7F F0 FF  .......E........
1020: FF 7F 62 39 39 61 00 80  1A F3 12 1C 34 80 27 03  ..b99a......4.'.
1030: 3B 33 06 01 02 1C 8C 80  27 05 3B 33 06 01 03 1C  ;3......'.;3....
1040: 34 80 1A 14 13 78 02 21  00 05 80 00 A1 10 02 00  4....x.!........
1050: 00 05 80 80 62 10 37 13  80 14 80 15 80 16 80 01  ....b.7.........
1060: 9E 10 02 00 00 09 80 80  76 10 37 17 80 18 80 19  ........v.7.....
1070: 80 16 80 01 9E 10 02 00  00 0A 80 80 8A 10 37 1A  ..............7.
1080: 80 1B 80 1C 80 16 80 01  9E 10 02 00 00 0B 80 80  ................
1090: 9E 10 37 00 80 00 80 00  80 00 80 01 9E 10 01 AA  ..7.............
10A0: 10 37 13 80 14 80 15 80  16 80 1C 25 80 1A 9F 12  .7.........%....
10B0: 62 09 80 F0 FF FF 7F F0  FF FF 7F 6D 61 69 6E 00  b..........main.
10C0: 80 46 00 45 0E 80 F0 FF  FF 7F F0 FF FF 7F 66 64  .F.E..........fd
10D0: 69 32 00 80 1B 02 18 00  34 80 80 E0 10 01 8E 11  i2......4.......
10E0: 02 18 00 09 80 80 26 11  06 02 10 03 01 10 12 80  ......&.........
10F0: 43 00 43 01 02 02 10 05  80 00 01 11 30 1B 01 23  C.C.........0..#
1100: 11 46 01 45 0E 80 F0 FF  FF 7F F0 FF FF 7F 66 64  .F.E..........fd
1110: 6F 32 00 80 55 0E 80 F0  FF FF 7F F0 FF FF 7F 66  o2..U..........f
1120: 64 6F 32 01 8E 11 02 18  00 0A 80 80 6C 11 06 02  do2.........l...
1130: 10 03 01 10 26 80 43 00  43 01 02 02 10 05 80 00  ....&.C.C.......
1140: 47 11 30 1B 01 69 11 46  01 45 0E 80 F0 FF FF 7F  G.0..i.F.E......
1150: F0 FF FF 7F 66 64 6F 32  00 80 55 0E 80 F0 FF FF  ....fdo2..U.....
1160: 7F F0 FF FF 7F 66 64 6F  32 01 8E 11 46 01 45 0E  .....fdo2...F.E.
1170: 80 F0 FF FF 7F F0 FF FF  7F 66 64 6F 32 00 80 55  .........fdo2..U
1180: 0E 80 F0 FF FF 7F F0 FF  FF 7F 66 64 6F 32 92 01  ..........fdo2..
1190: F0 FF FF 7F 37 7B 80 7C  80 7D 80 16 80 1C 25 80  ....7{.|.}....%.
11A0: 1A 9F 12 45 0E 80 F0 FF  FF 7F F0 FF FF 7F 66 64  ...E..........fd
11B0: 69 32 00 80 62 09 80 F0  FF FF 7F F0 FF FF 7F 6D  i2..b..........m
11C0: 61 69 6E 00 80 1C 8D 80  46 00 1B 24 8E 80 05 80  ain.....F..$....
11D0: 00 80 25 02 00 10 00 80  00 E1 11 05 1C 00 01 E1  ..%.............
11E0: 11 1B 05 1D 00 1B 46 01  37 8F 80 90 80 91 80 92  ......F.7.......
11F0: 80 1C 25 80 1A 9F 12 1C  25 80 45 0E 80 F0 FF FF  ..%.....%.E.....
1200: 7F F0 FF FF 7F 66 64 69  31 00 80 1C 36 80 1A 56  .....fdi1...6..V
1210: 13 1C 36 80 1A D2 12 1A  35 13 1C 34 80 37 51 80  ..6.....5..4.7Q.
1220: 52 80 53 80 54 80 62 09  80 F0 FF FF 7F F0 FF FF  R.S.T.b.........
1230: 7F 6D 61 69 6E 00 80 46  00 45 0E 80 F0 FF FF 7F  .main..F.E......
1240: F0 FF FF 7F 66 64 69 32  00 80 1B 6C F0 FF FF 7F  ....fdi2...l....
1250: 00 80 05 80 46 01 92 01  F0 FF FF 7F 37 51 80 52  ....F.......7Q.R
1260: 80 53 80 54 80 1C 25 80  1A 9F 12 45 0E 80 F0 FF  .S.T..%....E....
1270: FF 7F F0 FF FF 7F 66 64  69 32 00 80 62 09 80 F0  ......fdi2..b...
1280: FF FF 7F F0 FF FF 7F 6D  61 69 6E 00 80 1C 8D 80  .......main.....
1290: 46 00 1B 02 03 00 00 80  80 9E 12 01 9E 12 1B 45  F..............E
12A0: 93 80 F0 FF FF 7F F0 FF  FF 7F 62 61 63 6B 00 80  ..........back..
12B0: 1B 45 0E 80 F0 FF FF 7F  F0 FF FF 7F 66 64 69 30  .E..........fdi0
12C0: 00 80 55 0E 80 F0 FF FF  7F F0 FF FF 7F 66 64 69  ..U..........fdi
12D0: 30 1B 45 0E 80 F0 FF FF  7F F0 FF FF 7F 66 64 6F  0.E..........fdo
12E0: 30 00 80 55 0E 80 F0 FF  FF 7F F0 FF FF 7F 66 64  0..U..........fd
12F0: 6F 30 1B 45 0E 80 F0 FF  FF 7F F0 FF FF 7F 66 64  o0.E..........fd
1300: 69 31 00 80 55 0E 80 F0  FF FF 7F F0 FF FF 7F 66  i1..U..........f
1310: 64 69 31 1B 45 0E 80 F0  FF FF 7F F0 FF FF 7F 66  di1.E..........f
1320: 64 6F 31 00 80 55 0E 80  F0 FF FF 7F F0 FF FF 7F  do1..U..........
1330: 66 64 6F 31 1B 45 3B 80  F0 FF FF 7F F0 FF FF 7F  fdo1.E;.........
1340: 77 68 69 31 00 80 55 3B  80 F0 FF FF 7F F0 FF FF  whi1..U;........
1350: 7F 77 68 69 31 1B 45 3B  80 F0 FF FF 7F F0 FF FF  .whi1.E;........
1360: 7F 77 68 6F 31 00 80 55  3B 80 F0 FF FF 7F F0 FF  .who1..U;.......
1370: FF 7F 77 68 6F 31 1B 45  3B 80 F0 FF FF 7F F0 FF  ..who1.E;.......
1380: FF 7F 77 68 6F 32 00 80  55 3B 80 F0 FF FF 7F F0  ..who2..U;......
1390: FF FF 7F 77 68 6F 32 1B  45 3B 80 F0 FF FF 7F F0  ...who2.E;......
13A0: FF FF 7F 77 68 6F 33 00  80 55 3B 80 F0 FF FF 7F  ...who3..U;.....
13B0: F0 FF FF 7F 77 68 6F 33  1B 62 05 80 F0 FF FF 7F  ....who3.b......
13C0: F0 FF FF 7F 6D 61 69 6E  00 80 1C 94 80 45 0E 80  ....main.....E..
13D0: F0 FF FF 7F F0 FF FF 7F  66 64 6F 31 00 80 55 0E  ........fdo1..U.
13E0: 80 F0 FF FF 7F F0 FF FF  7F 66 64 6F 31 1B 45 0E  .........fdo1.E.
13F0: 80 F0 FF FF 7F F0 FF FF  7F 66 64 69 31 00 80 62  .........fdi1..b
1400: 09 80 F0 FF FF 7F F0 FF  FF 7F 6D 61 69 6E 00 80  ..........main..
1410: 1C 34 80 55 0E 80 F0 FF  FF 7F F0 FF FF 7F 66 64  .4.U..........fd
1420: 69 31 1B 45 0E 80 F0 FF  FF 7F F0 FF FF 7F 62 6C  i1.E..........bl
1430: 6F 6E 00 80 45 3B 80 F0  FF FF 7F F0 FF FF 7F 62  on..E;.........b
1440: 6C 6F 6E 00 80 1B 45 3B  80 F0 FF FF 7F F0 FF FF  lon...E;........
1450: 7F 77 68 69 30 00 80 55  3B 80 F0 FF FF 7F F0 FF  .whi0..U;.......
1460: FF 7F 77 68 69 30 1B 45  3B 80 F0 FF FF 7F F0 FF  ..whi0.E;.......
1470: FF 7F 77 68 6F 30 00 80  55 3B 80 F0 FF FF 7F F0  ..who0..U;......
1480: FF FF 7F 77 68 6F 30 1B  45 95 80 F0 FF FF 7F F0  ...who0.E.......
1490: FF FF 7F 65 66 6F 6E 00  80 55 95 80 F0 FF FF 7F  ...efon..U......
14A0: F0 FF FF 7F 65 66 6F 6E  1B 45 0E 80 F0 FF FF 7F  ....efon.E......
14B0: F0 FF FF 7F 66 64 69 73  00 80 1B 45 0E 80 F0 FF  ....fdis...E....
14C0: FF 7F F0 FF FF 7F 66 64  6F 73 00 80 55 0E 80 F0  ......fdos..U...
14D0: FF FF 7F F0 FF FF 7F 66  64 6F 73 1B 45 0E 80 F0  .......fdos.E...
14E0: FF FF 7F F0 FF FF 7F 66  64 69 66 00 80 1B 45 0E  .......fdif...E.
14F0: 80 F0 FF FF 7F F0 FF FF  7F 66 64 6F 66 00 80 55  .........fdof..U
1500: 0E 80 F0 FF FF 7F F0 FF  FF 7F 66 64 6F 66 1B 45  ..........fdof.E
1510: 0E 80 F0 FF FF 7F F0 FF  FF 7F 66 64 69 70 00 80  ..........fdip..
1520: 1B 45 0E 80 F0 FF FF 7F  F0 FF FF 7F 66 64 6F 70  .E..........fdop
1530: 00 80 55 0E 80 F0 FF FF  7F F0 FF FF 7F 66 64 6F  ..U..........fdo
1540: 70 1B 02 00 00 05 80 80  61 15 03 09 00 13 80 03  p.......a.......
1550: 0A 00 14 80 03 0B 00 15  80 03 0C 00 16 80 01 BE  ................
1560: 15 02 00 00 09 80 80 80  15 03 09 00 17 80 03 0A  ................
1570: 00 18 80 03 0B 00 19 80  03 0C 00 16 80 01 BE 15  ................
1580: 02 00 00 0A 80 80 9F 15  03 09 00 1A 80 03 0A 00  ................
1590: 1B 80 03 0B 00 1C 80 03  0C 00 16 80 01 BE 15 02  ................
15A0: 00 00 0B 80 80 BE 15 03  09 00 00 80 03 0A 00 00  ................
15B0: 80 03 0B 00 00 80 03 0C  00 00 80 01 BE 15 1B     ............... 
```

#### Opcodes

```
  0: 0x0F48 [0x21] END_EVENT
  1: 0x0F49 [0x00] END_REQSTACK()
```

#### Data or dead code:

```
# Dead code (unreachable instructions):
     0x0F4A [0x24] CREATE_DIALOG(message_id=7690*, default_option=1*, option_flags=0*)
    → "Enter the battlefield? [Enter./Decline.]"
     0x0F51 [0x25] WAIT_DIALOG_SELECT()
     0x0F52 [0x02] IF !(Work_Zone[0] == 0*) GOTO 0x0F60
     0x0F5A [0x05] ExtData[1]->WorkLocal[1] = 1
     0x0F5D [0x01] GOTO 0x0F60
     0x0F60 [0x1B] RETURN
     0x0F61 [0x06] ExtData[1]->WorkLocal[34] = 0
     0x0F64 [0x06] ExtData[1]->WorkLocal[33] = 0
     0x0F67 [0x79] LocalPlayer looks at LocalPlayer (Basic look)
     0x0F71 [0x42] SET_CLI_EVENT_CANCEL_DATA()
     0x0F72 [0x46] CAMERA_CONTROL: Disable user control
     0x0F74 [0x02] IF !(ExtData[1]->WorkLocal[3] == 3*) GOTO 0x1003
     0x0F7C [0x06] Work_Zone[2] = 0
     0x0F7F [0x03] ExtData[1]->WorkLocal[35] = Work_Zone[1]
     0x0F84 [0x03] Work_Zone[1] = 1025*
     0x0F89 [0x43] SEND_EVENT_UPDATE: Send pending tag to server (packet 0x005B)
     0x0F8B [0x43] SEND_EVENT_UPDATE: Check pending flag (skip if not pending)
     0x0F8D [0x02] IF !(Work_Zone[2] == 1*) GOTO 0x0FF4
     0x0F95 [0x24] CREATE_DIALOG(message_id=8029*, default_option=1*, option_flags=0*)
    → "Skip the event? [Yes./No.]"
     0x0F9C [0x25] WAIT_DIALOG_SELECT()
     0x0F9D [0x02] IF !(Work_Zone[0] == 0*) GOTO 0x0FDF
     0x0FA5 [0x37] UPDATE_EVENT_POSITION_AND_DIR: x=-99.955*, z=-20.099*, y=-72.752*, direction=269.5°*
     0x0FAE [0x45] LOAD_SCHEDULED_TASK: Load scheduler "b99a" with entities [LocalPlayer, LocalPlayer], work=[325*, 0*]
     0x0FBF [0x1A] CALL_SUBROUTINE(address=0x12F3)
     0x0FC2 [0x1C] WAIT(30* ticks)
     0x0FC5 [0x27] REQ_SET(priority=0x03, entity_id=Collapsing Floor (ID: 17183547/0x0106333B), tag_num=0x02)
     0x0FCC [0x1C] WAIT(90* ticks)
     0x0FCF [0x27] REQ_SET(priority=0x05, entity_id=Collapsing Floor (ID: 17183547/0x0106333B), tag_num=0x03)
     0x0FD6 [0x1C] WAIT(30* ticks)
     0x0FD9 [0x1A] CALL_SUBROUTINE(address=0x1314)
     0x0FDC [0x01] GOTO 0x0FF1
     0x0FDF [0x02] IF !(Work_Zone[0] == 1*) GOTO 0x0FF1
     0x0FE7 [0x29] REQ_SET_WAIT(priority=0x10, entity_id=Unnamed NPC (ID: 17183598/0x0106336E), tag_num=0x04)
     0x0FEE [0x01] GOTO 0x0FF1
     0x0FF1 [0x01] GOTO 0x0FFB
     0x0FF4 [0x29] REQ_SET_WAIT(priority=0x10, entity_id=Unnamed NPC (ID: 17183598/0x0106336E), tag_num=0x04)
     0x0FFB [0x03] Work_Zone[1] = ExtData[1]->WorkLocal[35]
     0x1000 [0x01] GOTO 0x1045
     0x1003 [0x02] IF !(ExtData[1]->WorkLocal[3] == 30*) GOTO 0x100E
     0x100B [0x01] GOTO 0x1045
     0x100E [0x37] UPDATE_EVENT_POSITION_AND_DIR: x=-99.955*, z=-20.099*, y=-72.752*, direction=269.5°*
     0x1017 [0x45] LOAD_SCHEDULED_TASK: Load scheduler "b99a" with entities [LocalPlayer, LocalPlayer], work=[325*, 0*]
     0x1028 [0x1A] CALL_SUBROUTINE(address=0x12F3)
     0x102B [0x1C] WAIT(30* ticks)
     0x102E [0x27] REQ_SET(priority=0x03, entity_id=Collapsing Floor (ID: 17183547/0x0106333B), tag_num=0x02)
     0x1035 [0x1C] WAIT(90* ticks)
     0x1038 [0x27] REQ_SET(priority=0x05, entity_id=Collapsing Floor (ID: 17183547/0x0106333B), tag_num=0x03)
     0x103F [0x1C] WAIT(30* ticks)
     0x1042 [0x1A] CALL_SUBROUTINE(address=0x1314)
     0x1045 [0x78] ENABLE_GAME_TIMER_RESET_WEATHER()
     0x1046 [0x02] IF !(ExtData[1]->WorkLocal[33] == 1*) GOTO 0x10A1
     0x104E [0x02] IF !(ExtData[1]->WorkLocal[0] == 1*) GOTO 0x1062
     0x1056 [0x37] UPDATE_EVENT_POSITION_AND_DIR: x=-259.982*, z=393.819*, y=-135.750*, direction=270.0°*
     0x105F [0x01] GOTO 0x109E
     0x1062 [0x02] IF !(ExtData[1]->WorkLocal[0] == 2*) GOTO 0x1076
     0x106A [0x37] UPDATE_EVENT_POSITION_AND_DIR: x=20.015*, z=393.860*, y=-215.749*, direction=270.0°*
     0x1073 [0x01] GOTO 0x109E
     0x1076 [0x02] IF !(ExtData[1]->WorkLocal[0] == 3*) GOTO 0x108A
     0x107E [0x37] UPDATE_EVENT_POSITION_AND_DIR: x=300.018*, z=393.871*, y=-295.749*, direction=270.0°*
     0x1087 [0x01] GOTO 0x109E
     0x108A [0x02] IF !(ExtData[1]->WorkLocal[0] == 4*) GOTO 0x109E
     0x1092 [0x37] UPDATE_EVENT_POSITION_AND_DIR: x=0.000*, z=0.000*, y=0.000*, direction=0.0°*
     0x109B [0x01] GOTO 0x109E
     0x109E [0x01] GOTO 0x10AA
     0x10A1 [0x37] UPDATE_EVENT_POSITION_AND_DIR: x=-259.982*, z=393.819*, y=-135.750*, direction=270.0°*
     0x10AA [0x1C] WAIT(10* ticks)
     0x10AD [0x1A] CALL_SUBROUTINE(address=0x129F)
     0x10B0 [0x62] LOAD_EVENT_SCHEDULER: Load scheduler "main" with entities [LocalPlayer, LocalPlayer], work=[2*, 0*]
     0x10C1 [0x46] CAMERA_CONTROL: Restore default settings
     0x10C3 [0x45] LOAD_SCHEDULED_TASK: Load scheduler "fdi2" with entities [LocalPlayer, LocalPlayer], work=[200*, 0*]
     0x10D4 [0x1B] RETURN
     0x10D5 [0x02] IF !(ExtData[1]->WorkLocal[24] == 30*) GOTO 0x10E0
     0x10DD [0x01] GOTO 0x118E
     0x10E0 [0x02] IF !(ExtData[1]->WorkLocal[24] == 2*) GOTO 0x1126
     0x10E8 [0x06] Work_Zone[2] = 0
     0x10EB [0x03] Work_Zone[1] = 11*
     0x10F0 [0x43] SEND_EVENT_UPDATE: Send pending tag to server (packet 0x005B)
     0x10F2 [0x43] SEND_EVENT_UPDATE: Check pending flag (skip if not pending)
     0x10F4 [0x02] IF !(Work_Zone[2] == 1*) GOTO 0x1101
     0x10FC [0x30] SET_UCOFF_CONTINUE_ZERO()
     0x10FD [0x1B] RETURN
     0x10FE [0x01] GOTO 0x1123
     0x1101 [0x46] CAMERA_CONTROL: Disable user control
     0x1103 [0x45] LOAD_SCHEDULED_TASK: Load scheduler "fdo2" with entities [LocalPlayer, LocalPlayer], work=[200*, 0*]
     0x1114 [0x55] WAIT_LOAD_SCHEDULER: Wait for scheduler "fdo2" with entities [LocalPlayer, LocalPlayer], work=200*
     0x1123 [0x01] GOTO 0x118E
     0x1126 [0x02] IF !(ExtData[1]->WorkLocal[24] == 3*) GOTO 0x116C
     0x112E [0x06] Work_Zone[2] = 0
     0x1131 [0x03] Work_Zone[1] = 12*
     0x1136 [0x43] SEND_EVENT_UPDATE: Send pending tag to server (packet 0x005B)
     0x1138 [0x43] SEND_EVENT_UPDATE: Check pending flag (skip if not pending)
     0x113A [0x02] IF !(Work_Zone[2] == 1*) GOTO 0x1147
     0x1142 [0x30] SET_UCOFF_CONTINUE_ZERO()
     0x1143 [0x1B] RETURN
     0x1144 [0x01] GOTO 0x1169
     0x1147 [0x46] CAMERA_CONTROL: Disable user control
     0x1149 [0x45] LOAD_SCHEDULED_TASK: Load scheduler "fdo2" with entities [LocalPlayer, LocalPlayer], work=[200*, 0*]
     0x115A [0x55] WAIT_LOAD_SCHEDULER: Wait for scheduler "fdo2" with entities [LocalPlayer, LocalPlayer], work=200*
     0x1169 [0x01] GOTO 0x118E
     0x116C [0x46] CAMERA_CONTROL: Disable user control
     0x116E [0x45] LOAD_SCHEDULED_TASK: Load scheduler "fdo2" with entities [LocalPlayer, LocalPlayer], work=[200*, 0*]
     0x117F [0x55] WAIT_LOAD_SCHEDULER: Wait for scheduler "fdo2" with entities [LocalPlayer, LocalPlayer], work=200*
     0x118E [0x92] LocalPlayer->Render.Flags3 ^= 0x01
     0x1194 [0x37] UPDATE_EVENT_POSITION_AND_DIR: x=-100.311*, z=159.214*, y=-55.750*, direction=270.0°*
     0x119D [0x1C] WAIT(10* ticks)
     0x11A0 [0x1A] CALL_SUBROUTINE(address=0x129F)
     0x11A3 [0x45] LOAD_SCHEDULED_TASK: Load scheduler "fdi2" with entities [LocalPlayer, LocalPlayer], work=[200*, 0*]
     0x11B4 [0x62] LOAD_EVENT_SCHEDULER: Load scheduler "main" with entities [LocalPlayer, LocalPlayer], work=[2*, 0*]
     0x11C5 [0x1C] WAIT(120* ticks)
     0x11C8 [0x46] CAMERA_CONTROL: Restore default settings
     0x11CA [0x1B] RETURN
     0x11CB [0x24] CREATE_DIALOG(message_id=7691*, default_option=1*, option_flags=0*)
    → "Leave the battlefield? [Run away./Stay.]"
     0x11D2 [0x25] WAIT_DIALOG_SELECT()
     0x11D3 [0x02] IF !(Work_Zone[0] == 0*) GOTO 0x11E1
     0x11DB [0x05] ExtData[1]->WorkLocal[28] = 1
     0x11DE [0x01] GOTO 0x11E1
     0x11E1 [0x1B] RETURN
     0x11E2 [0x05] ExtData[1]->WorkLocal[29] = 1
     0x11E5 [0x1B] RETURN
     0x11E6 [0x46] CAMERA_CONTROL: Disable user control
     0x11E8 [0x37] UPDATE_EVENT_POSITION_AND_DIR: x=-260.050*, z=381.478*, y=-135.749*, direction=89.2°*
     0x11F1 [0x1C] WAIT(10* ticks)
     0x11F4 [0x1A] CALL_SUBROUTINE(address=0x129F)
     0x11F7 [0x1C] WAIT(10* ticks)
     0x11FA [0x45] LOAD_SCHEDULED_TASK: Load scheduler "fdi1" with entities [LocalPlayer, LocalPlayer], work=[200*, 0*]
     0x120B [0x1C] WAIT(60* ticks)
     0x120E [0x1A] CALL_SUBROUTINE(address=0x1356)
     0x1211 [0x1C] WAIT(60* ticks)
     0x1214 [0x1A] CALL_SUBROUTINE(address=0x12D2)
     0x1217 [0x1A] CALL_SUBROUTINE(address=0x1335)
     0x121A [0x1C] WAIT(30* ticks)
     0x121D [0x37] UPDATE_EVENT_POSITION_AND_DIR: x=-99.995*, z=-27.361*, y=-71.749*, direction=90.0°*
     0x1226 [0x62] LOAD_EVENT_SCHEDULER: Load scheduler "main" with entities [LocalPlayer, LocalPlayer], work=[2*, 0*]
     0x1237 [0x46] CAMERA_CONTROL: Restore default settings
     0x1239 [0x45] LOAD_SCHEDULED_TASK: Load scheduler "fdi2" with entities [LocalPlayer, LocalPlayer], work=[200*, 0*]
     0x124A [0x1B] RETURN
     0x124B [0x6C] FADE_ENTITY_COLOR(entity_id=LocalPlayer, end_alpha=0*, fade_time=1*)
     0x1254 [0x46] CAMERA_CONTROL: Disable user control
     0x1256 [0x92] LocalPlayer->Render.Flags3 ^= 0x01
     0x125C [0x37] UPDATE_EVENT_POSITION_AND_DIR: x=-99.995*, z=-27.361*, y=-71.749*, direction=90.0°*
     0x1265 [0x1C] WAIT(10* ticks)
     0x1268 [0x1A] CALL_SUBROUTINE(address=0x129F)
     0x126B [0x45] LOAD_SCHEDULED_TASK: Load scheduler "fdi2" with entities [LocalPlayer, LocalPlayer], work=[200*, 0*]
     0x127C [0x62] LOAD_EVENT_SCHEDULER: Load scheduler "main" with entities [LocalPlayer, LocalPlayer], work=[2*, 0*]
     0x128D [0x1C] WAIT(120* ticks)
     0x1290 [0x46] CAMERA_CONTROL: Restore default settings
     0x1292 [0x1B] RETURN
     0x1293 [0x02] IF !(ExtData[1]->WorkLocal[3] == 0*) GOTO 0x129E
     0x129B [0x01] GOTO 0x129E
     0x129E [0x1B] RETURN
     0x129F [0x45] LOAD_SCHEDULED_TASK: Load scheduler "back" with entities [LocalPlayer, LocalPlayer], work=[108*, 0*]
     0x12B0 [0x1B] RETURN
     0x12B1 [0x45] LOAD_SCHEDULED_TASK: Load scheduler "fdi0" with entities [LocalPlayer, LocalPlayer], work=[200*, 0*]
     0x12C2 [0x55] WAIT_LOAD_SCHEDULER: Wait for scheduler "fdi0" with entities [LocalPlayer, LocalPlayer], work=200*
     0x12D1 [0x1B] RETURN
     0x12D2 [0x45] LOAD_SCHEDULED_TASK: Load scheduler "fdo0" with entities [LocalPlayer, LocalPlayer], work=[200*, 0*]
     0x12E3 [0x55] WAIT_LOAD_SCHEDULER: Wait for scheduler "fdo0" with entities [LocalPlayer, LocalPlayer], work=200*
     0x12F2 [0x1B] RETURN
     0x12F3 [0x45] LOAD_SCHEDULED_TASK: Load scheduler "fdi1" with entities [LocalPlayer, LocalPlayer], work=[200*, 0*]
     0x1304 [0x55] WAIT_LOAD_SCHEDULER: Wait for scheduler "fdi1" with entities [LocalPlayer, LocalPlayer], work=200*
     0x1313 [0x1B] RETURN
     0x1314 [0x45] LOAD_SCHEDULED_TASK: Load scheduler "fdo1" with entities [LocalPlayer, LocalPlayer], work=[200*, 0*]
     0x1325 [0x55] WAIT_LOAD_SCHEDULER: Wait for scheduler "fdo1" with entities [LocalPlayer, LocalPlayer], work=200*
     0x1334 [0x1B] RETURN
     0x1335 [0x45] LOAD_SCHEDULED_TASK: Load scheduler "whi1" with entities [LocalPlayer, LocalPlayer], work=[201*, 0*]
     0x1346 [0x55] WAIT_LOAD_SCHEDULER: Wait for scheduler "whi1" with entities [LocalPlayer, LocalPlayer], work=201*
     0x1355 [0x1B] RETURN
     0x1356 [0x45] LOAD_SCHEDULED_TASK: Load scheduler "who1" with entities [LocalPlayer, LocalPlayer], work=[201*, 0*]
     0x1367 [0x55] WAIT_LOAD_SCHEDULER: Wait for scheduler "who1" with entities [LocalPlayer, LocalPlayer], work=201*
     0x1376 [0x1B] RETURN
     0x1377 [0x45] LOAD_SCHEDULED_TASK: Load scheduler "who2" with entities [LocalPlayer, LocalPlayer], work=[201*, 0*]
     0x1388 [0x55] WAIT_LOAD_SCHEDULER: Wait for scheduler "who2" with entities [LocalPlayer, LocalPlayer], work=201*
     0x1397 [0x1B] RETURN
     0x1398 [0x45] LOAD_SCHEDULED_TASK: Load scheduler "who3" with entities [LocalPlayer, LocalPlayer], work=[201*, 0*]
     0x13A9 [0x55] WAIT_LOAD_SCHEDULER: Wait for scheduler "who3" with entities [LocalPlayer, LocalPlayer], work=201*
     0x13B8 [0x1B] RETURN
     0x13B9 [0x62] LOAD_EVENT_SCHEDULER: Load scheduler "main" with entities [LocalPlayer, LocalPlayer], work=[1*, 0*]
     0x13CA [0x1C] WAIT(45* ticks)
     0x13CD [0x45] LOAD_SCHEDULED_TASK: Load scheduler "fdo1" with entities [LocalPlayer, LocalPlayer], work=[200*, 0*]
     0x13DE [0x55] WAIT_LOAD_SCHEDULER: Wait for scheduler "fdo1" with entities [LocalPlayer, LocalPlayer], work=200*
     0x13ED [0x1B] RETURN
     0x13EE [0x45] LOAD_SCHEDULED_TASK: Load scheduler "fdi1" with entities [LocalPlayer, LocalPlayer], work=[200*, 0*]
     0x13FF [0x62] LOAD_EVENT_SCHEDULER: Load scheduler "main" with entities [LocalPlayer, LocalPlayer], work=[2*, 0*]
     0x1410 [0x1C] WAIT(30* ticks)
     0x1413 [0x55] WAIT_LOAD_SCHEDULER: Wait for scheduler "fdi1" with entities [LocalPlayer, LocalPlayer], work=200*
     0x1422 [0x1B] RETURN
     0x1423 [0x45] LOAD_SCHEDULED_TASK: Load scheduler "blon" with entities [LocalPlayer, LocalPlayer], work=[200*, 0*]
     0x1434 [0x45] LOAD_SCHEDULED_TASK: Load scheduler "blon" with entities [LocalPlayer, LocalPlayer], work=[201*, 0*]
     0x1445 [0x1B] RETURN
     0x1446 [0x45] LOAD_SCHEDULED_TASK: Load scheduler "whi0" with entities [LocalPlayer, LocalPlayer], work=[201*, 0*]
     0x1457 [0x55] WAIT_LOAD_SCHEDULER: Wait for scheduler "whi0" with entities [LocalPlayer, LocalPlayer], work=201*
     0x1466 [0x1B] RETURN
     0x1467 [0x45] LOAD_SCHEDULED_TASK: Load scheduler "who0" with entities [LocalPlayer, LocalPlayer], work=[201*, 0*]
     0x1478 [0x55] WAIT_LOAD_SCHEDULER: Wait for scheduler "who0" with entities [LocalPlayer, LocalPlayer], work=201*
     0x1487 [0x1B] RETURN
     0x1488 [0x45] LOAD_SCHEDULED_TASK: Load scheduler "efon" with entities [LocalPlayer, LocalPlayer], work=[215*, 0*]
     0x1499 [0x55] WAIT_LOAD_SCHEDULER: Wait for scheduler "efon" with entities [LocalPlayer, LocalPlayer], work=215*
     0x14A8 [0x1B] RETURN
     0x14A9 [0x45] LOAD_SCHEDULED_TASK: Load scheduler "fdis" with entities [LocalPlayer, LocalPlayer], work=[200*, 0*]
     0x14BA [0x1B] RETURN
     0x14BB [0x45] LOAD_SCHEDULED_TASK: Load scheduler "fdos" with entities [LocalPlayer, LocalPlayer], work=[200*, 0*]
     0x14CC [0x55] WAIT_LOAD_SCHEDULER: Wait for scheduler "fdos" with entities [LocalPlayer, LocalPlayer], work=200*
     0x14DB [0x1B] RETURN
     0x14DC [0x45] LOAD_SCHEDULED_TASK: Load scheduler "fdif" with entities [LocalPlayer, LocalPlayer], work=[200*, 0*]
     0x14ED [0x1B] RETURN
     0x14EE [0x45] LOAD_SCHEDULED_TASK: Load scheduler "fdof" with entities [LocalPlayer, LocalPlayer], work=[200*, 0*]
     0x14FF [0x55] WAIT_LOAD_SCHEDULER: Wait for scheduler "fdof" with entities [LocalPlayer, LocalPlayer], work=200*
     0x150E [0x1B] RETURN
     0x150F [0x45] LOAD_SCHEDULED_TASK: Load scheduler "fdip" with entities [LocalPlayer, LocalPlayer], work=[200*, 0*]
     0x1520 [0x1B] RETURN
     0x1521 [0x45] LOAD_SCHEDULED_TASK: Load scheduler "fdop" with entities [LocalPlayer, LocalPlayer], work=[200*, 0*]
     0x1532 [0x55] WAIT_LOAD_SCHEDULER: Wait for scheduler "fdop" with entities [LocalPlayer, LocalPlayer], work=200*
     0x1541 [0x1B] RETURN
     0x1542 [0x02] IF !(ExtData[1]->WorkLocal[0] == 1*) GOTO 0x1561
     0x154A [0x03] ExtData[1]->WorkLocal[9] = 4294707314*
     0x154F [0x03] ExtData[1]->WorkLocal[10] = 393819*
     0x1554 [0x03] ExtData[1]->WorkLocal[11] = 4294831546*
     0x1559 [0x03] ExtData[1]->WorkLocal[12] = 3072*
     0x155E [0x01] GOTO 0x15BE
     0x1561 [0x02] IF !(ExtData[1]->WorkLocal[0] == 2*) GOTO 0x1580
     0x1569 [0x03] ExtData[1]->WorkLocal[9] = 20015*
     0x156E [0x03] ExtData[1]->WorkLocal[10] = 393860*
     0x1573 [0x03] ExtData[1]->WorkLocal[11] = 4294751547*
     0x1578 [0x03] ExtData[1]->WorkLocal[12] = 3072*
     0x157D [0x01] GOTO 0x15BE
     0x1580 [0x02] IF !(ExtData[1]->WorkLocal[0] == 3*) GOTO 0x159F
     0x1588 [0x03] ExtData[1]->WorkLocal[9] = 300018*
     0x158D [0x03] ExtData[1]->WorkLocal[10] = 393871*
     0x1592 [0x03] ExtData[1]->WorkLocal[11] = 4294671547*
     0x1597 [0x03] ExtData[1]->WorkLocal[12] = 3072*
     0x159C [0x01] GOTO 0x15BE
     0x159F [0x02] IF !(ExtData[1]->WorkLocal[0] == 4*) GOTO 0x15BE
     0x15A7 [0x03] ExtData[1]->WorkLocal[9] = 0*
     0x15AC [0x03] ExtData[1]->WorkLocal[10] = 0*
     0x15B1 [0x03] ExtData[1]->WorkLocal[11] = 0*
     0x15B6 [0x03] ExtData[1]->WorkLocal[12] = 0*
     0x15BB [0x01] GOTO 0x15BE
     0x15BE [0x1B] RETURN
```

### Event 65535.1

#### Metadata

| Field        | Value    |
|--------------|----------|
| Entrypoint   | 0x15BF   |
| Data Size    | 29 bytes |
| Instructions | 7        |

```
      00 01 02 03 04 05 06 07  08 09 0A 0B 0C 0D 0E 0F
      -- -- -- -- -- -- -- --  -- -- -- -- -- -- -- --
15B0:                                               37                 7
15C0: 96 80 97 80 98 80 99 80  32 9A 80 1F 00 9B 80 9C  ........2.......
15D0: 80 9D 80 1F 01 6F 1E 50  33 06 01 00              .....o.P3...    
```

#### Opcodes

```
  0: 0x15BF [0x37] UPDATE_EVENT_POSITION_AND_DIR: x=-135.316*, z=0.119*, y=0.249*, direction=125.2°*
  1: 0x15C8 [0x32] ExtData[1]->MainSpeed = 40* * 0.1
  2: 0x15CB [0x1F] MOVE_ENTITY: EventEntity moves to X=-133.674*, Z=-16.153*, Y=0.078*
  3: 0x15D3 [0x1F] MOVE_ENTITY: Update entity position (mode=1)
  4: 0x15D5 [0x6F] WAIT_FRAME_DELAY: Yield until WaitTime reaches zero
  5: 0x15D6 [0x1E] EventEntity looks at Nhiko Rhaabel (ID: 17183568/0x01063350) and starts talking
  6: 0x15DB [0x00] END_REQSTACK()
```

### Event 65535.2

#### Metadata

| Field        | Value   |
|--------------|---------|
| Entrypoint   | 0x15DC  |
| Data Size    | 6 bytes |
| Instructions | 2       |

```
      00 01 02 03 04 05 06 07  08 09 0A 0B 0C 0D 0E 0F
      -- -- -- -- -- -- -- --  -- -- -- -- -- -- -- --
15D0:                                      03 02 10 07              ....
15E0: 7F 00                                             ..              
```

#### Opcodes

```
  0: 0x15DC [0x03] Work_Zone[2] = Entity->Race
  1: 0x15E1 [0x00] END_REQSTACK()
```

### Event 65535.3

#### Metadata

| Field        | Value   |
|--------------|---------|
| Entrypoint   | 0x15E2  |
| Data Size    | 6 bytes |
| Instructions | 2       |

```
      00 01 02 03 04 05 06 07  08 09 0A 0B 0C 0D 0E 0F
      -- -- -- -- -- -- -- --  -- -- -- -- -- -- -- --
15E0:       03 02 10 0B 7F 00                             ......        
```

#### Opcodes

```
  0: 0x15E2 [0x03] Work_Zone[2] = (Entity->Render.Flags01 >> 25) & 1
  1: 0x15E7 [0x00] END_REQSTACK()
```

### Event 65535.4

#### Metadata

| Field        | Value   |
|--------------|---------|
| Entrypoint   | 0x15E8  |
| Data Size    | 7 bytes |
| Instructions | 3       |

```
      00 01 02 03 04 05 06 07  08 09 0A 0B 0C 0D 0E 0F
      -- -- -- -- -- -- -- --  -- -- -- -- -- -- -- --
15E0:                          AB 03 AC 01 05 80 00             ....... 
```

#### Opcodes

```
  0: 0x15E8 [0xAB] EventEntity->Render.Flags0 ^= 0x20000 // Toggle bit 17
  1: 0x15EA [0xAC] EventEntity->StatusEvent = 1*
  2: 0x15EE [0x00] END_REQSTACK()
```

### Event 65535.5

#### Metadata

| Field        | Value   |
|--------------|---------|
| Entrypoint   | 0x15EF  |
| Data Size    | 7 bytes |
| Instructions | 3       |

```
      00 01 02 03 04 05 06 07  08 09 0A 0B 0C 0D 0E 0F
      -- -- -- -- -- -- -- --  -- -- -- -- -- -- -- --
15E0:                                               AC                 .
15F0: 01 00 80 AB 04 00                                 ......          
```

#### Opcodes

```
  0: 0x15EF [0xAC] EventEntity->StatusEvent = 0*
  1: 0x15F3 [0xAB] EventEntity->Render.Flags0 |= 0x40000 // Set bit 18
  2: 0x15F5 [0x00] END_REQSTACK()
```

### Event 65535.6

#### Metadata

| Field        | Value    |
|--------------|----------|
| Entrypoint   | 0x15F6   |
| Data Size    | 37 bytes |
| Instructions | 5        |

```
      00 01 02 03 04 05 06 07  08 09 0A 0B 0C 0D 0E 0F
      -- -- -- -- -- -- -- --  -- -- -- -- -- -- -- --
15F0:                   03 24  00 07 7F 1A 40 16 66 25        .$....@.f%
1600: 00 F8 FF FF 7F F8 FF FF  7F 73 68 61 30 53 F8 FF  .........sha0S..
