# 17596828

## Common Data

| Field            | Value                      |
|------------------|----------------------------|
| Zone             | Garlaige Citadel (ID: 200) |
| Block Size       | 220 bytes                  |
| Total Events     | 2                          |
| References Count | 10                         |

## List of Events

| Event ID              | Entrypoint   |   Size |   Instructions |
|-----------------------|--------------|--------|----------------|
| [65535](#event-65535) | 0x0000       |      1 |              1 |
| [52](#event-52)       | 0x0001       |    154 |             28 |

## DAT References (imed_data)

|   Index | Hex Value   |   Dec Value |
|---------|-------------|-------------|
|       0 | 0x1C94      |        7316 |
|       1 | 0x0000      |           0 |
|       2 | 0x00C8      |         200 |
|       3 | 0x003C      |          60 |
|       4 | 0x0013      |          19 |
|       5 | 0x005E      |          94 |
|       6 | 0x1C95      |        7317 |
|       7 | 0x00B4      |         180 |
|       8 | 0x1C96      |        7318 |
|       9 | 0x0001      |           1 |

## String References

- **7316**: Use $6? [Yes./No.]
- **7317**: You face the hole in the ceiling and use $6.
- **7318**: Perhaps you should stand back and have a look.

## Events

### Event 65535

#### Metadata

| Field        | Value   |
|--------------|---------|
| Entrypoint   | 0x0000  |
| Data Size    | 1 bytes |
| Instructions | 1       |

```
      00 01 02 03 04 05 06 07  08 09 0A 0B 0C 0D 0E 0F
      -- -- -- -- -- -- -- --  -- -- -- -- -- -- -- --
0000: 00                                                .               
```

#### Opcodes

```
  0: 0x0000 [0x00] END_REQSTACK()
```

### Event 52

#### Metadata

| Field        | Value     |
|--------------|-----------|
| Entrypoint   | 0x0001    |
| Data Size    | 154 bytes |
| Instructions | 28        |

```
      00 01 02 03 04 05 06 07  08 09 0A 0B 0C 0D 0E 0F
      -- -- -- -- -- -- -- --  -- -- -- -- -- -- -- --
0000:    20 01 42 24 00 80 01  80 01 80 25 02 00 10 01    .B$......%....
0010: 80 00 8C 00 43 00 43 01  46 01 45 02 80 F0 FF FF  ....C.C.F.E.....
0020: 7F F0 FF FF 7F 66 64 6F  31 01 80 1C 03 80 38 04  .....fdo1.....8.
0030: 80 45 02 80 F0 FF FF 7F  F0 FF FF 7F 66 64 69 31  .E..........fdi1
0040: 01 80 45 05 80 F0 FF FF  7F F0 FF FF 7F 61 6E 61  ..E..........ana
0050: 30 01 80 48 06 80 1C 07  80 45 02 80 F0 FF FF 7F  0..H.....E......
0060: F0 FF FF 7F 66 64 6F 31  01 80 1C 03 80 46 00 45  ....fdo1.....F.E
0070: 02 80 F0 FF FF 7F F0 FF  FF 7F 66 64 69 31 01 80  ..........fdi1..
0080: 48 08 80 23 03 01 10 09  80 01 97 00 02 00 10 09  H..#............
0090: 80 00 97 00 01 97 00 20  00 21 00                 ....... .!.     
```

#### Opcodes

```
  0: 0x0001 [0x20] SET_CLI_EVENT_UC_FLAG: Lock player control
  1: 0x0003 [0x42] SET_CLI_EVENT_CANCEL_DATA()
  2: 0x0004 [0x24] CREATE_DIALOG(message_id=7316*, default_option=0*, option_flags=0*)
    → "Use $6? [Yes./No.]"
  3: 0x000B [0x25] WAIT_DIALOG_SELECT()
  4: 0x000C [0x02] IF !(Work_Zone[0] == 0*) GOTO 0x008C
  5: 0x0014 [0x43] SEND_EVENT_UPDATE: Send pending tag to server (packet 0x005B)
  6: 0x0016 [0x43] SEND_EVENT_UPDATE: Check pending flag (skip if not pending)
  7: 0x0018 [0x46] CAMERA_CONTROL: Disable user control
  8: 0x001A [0x45] LOAD_SCHEDULED_TASK: Load scheduler "fdo1" with entities [LocalPlayer, LocalPlayer], work=[200*, 0*]
  9: 0x002B [0x1C] WAIT(60* ticks)
 10: 0x002E [0x38] SET_CLIENT_EVENT_MODE(mode=19*)
 11: 0x0031 [0x45] LOAD_SCHEDULED_TASK: Load scheduler "fdi1" with entities [LocalPlayer, LocalPlayer], work=[200*, 0*]
 12: 0x0042 [0x45] LOAD_SCHEDULED_TASK: Load scheduler "ana0" with entities [LocalPlayer, LocalPlayer], work=[94*, 0*]
 13: 0x0053 [0x48] [System] [7317*]:
    → "You face the hole in the ceiling and use $6."
 14: 0x0056 [0x1C] WAIT(180* ticks)
 15: 0x0059 [0x45] LOAD_SCHEDULED_TASK: Load scheduler "fdo1" with entities [LocalPlayer, LocalPlayer], work=[200*, 0*]
 16: 0x006A [0x1C] WAIT(60* ticks)
 17: 0x006D [0x46] CAMERA_CONTROL: Restore default settings
 18: 0x006F [0x45] LOAD_SCHEDULED_TASK: Load scheduler "fdi1" with entities [LocalPlayer, LocalPlayer], work=[200*, 0*]
 19: 0x0080 [0x48] [System] [7318*]:
    → "Perhaps you should stand back and have a look."
 20: 0x0083 [0x23] WAIT_FOR_DIALOG_INTERACTION
 21: 0x0084 [0x03] Work_Zone[1] = 1*
 22: 0x0089 [0x01] GOTO 0x0097
 23: 0x008C [0x02] IF !(Work_Zone[0] == 1*) GOTO 0x0097
 24: 0x0094 [0x01] GOTO 0x0097

SUBROUTINE_0097:
 25: 0x0097 [0x20] SET_CLI_EVENT_UC_FLAG: Unlock player control
 26: 0x0099 [0x21] END_EVENT
 27: 0x009A [0x00] END_REQSTACK()
```
