# Event 65535

## Metadata

| Field           | Value    |
|-----------------|----------|
| Event Index     | 25/28    |
| Offset          | 0x017E   |
| Data Size       | 43 bytes |
| Calculated Size | 43 bytes |
| Instructions    | 7        |

```
      00 01 02 03 04 05 06 07  08 09 0A 0B 0C 0D 0E 0F
      -- -- -- -- -- -- -- --  -- -- -- -- -- -- -- --
0170:                                            32 09                2.
0180: 80 1F 00 0A 80 0B 80 0C  80 1F 01 6F 5B 00 80 F8  ...........o[...
0190: FF FF 7F F8 FF FF 7F 64  65 64 30 53 F8 FF FF 7F  .......ded0S....
01A0: F8 FF FF 7F 64 65 64 30  00                       ....ded0.       
```

## Opcodes

```
  0: 0x017E [0x32] ExtData[1]->MainSpeed = 40* * 0.1
  1: 0x0181 [0x1F] MOVE_ENTITY: EventEntity moves to X=-58.187*, Z=38.777*, Y=9.420*
  2: 0x0189 [0x1F] MOVE_ENTITY: Update entity position (mode=1)
  3: 0x018B [0x6F] WAIT_FRAME_DELAY: Yield until WaitTime reaches zero
  4: 0x018C [0x5B] LOAD_EXT_SCHEDULER(work_offset=181*, entity1=EventEntity, entity2=EventEntity, action="ded0")
  5: 0x019B [0x53] WAIT_SCHEDULER_TASK(entity1=EventEntity, entity2=EventEntity, action_id="ded0")
  6: 0x01A8 [0x00] END_REQSTACK()
```
