# Event 65535

## Metadata

| Field           | Value    |
|-----------------|----------|
| Event Index     | 24/28    |
| Offset          | 0x0153   |
| Data Size       | 43 bytes |
| Calculated Size | 43 bytes |
| Instructions    | 9        |

```
      00 01 02 03 04 05 06 07  08 09 0A 0B 0C 0D 0E 0F
      -- -- -- -- -- -- -- --  -- -- -- -- -- -- -- --
0150:          32 06 80 3B F8  FF FF 7F 00 00 02 00 01     2..;.........
0160: 00 08 00 00 08 80 08 02  00 08 80 1F 00 00 00 02  ................
0170: 00 01 00 1F 01 6F 29 08  B1 A0 0A 01 02 00        .....o).......  
```

## Opcodes

```
  0: 0x0153 [0x32] ExtData[1]->MainSpeed = 13* * 0.1
  1: 0x0156 [0x3B] GET_ENTITY_POSITION(entity=EventEntity, x_destination=ExtData[1]->WorkLocal[0], y_destination=ExtData[1]->WorkLocal[2], z_destination=ExtData[1]->WorkLocal[1])
  2: 0x0161 [0x08] ExtData[1]->WorkLocal[0] -= 500*
  3: 0x0166 [0x08] ExtData[1]->WorkLocal[2] -= 500*
  4: 0x016B [0x1F] MOVE_ENTITY: EventEntity moves to X=ExtData[1]->WorkLocal[0], Z=ExtData[1]->WorkLocal[2], Y=ExtData[1]->WorkLocal[1]
  5: 0x0173 [0x1F] MOVE_ENTITY: Update entity position (mode=1)
  6: 0x0175 [0x6F] WAIT_FRAME_DELAY: Yield until WaitTime reaches zero
  7: 0x0176 [0x29] REQ_SET_WAIT(priority=0x08, entity_id=Queen of Wands (ID: 17473713/0x010AA0B1), tag_num=0x02)
  8: 0x017D [0x00] END_REQSTACK()
```
