# Event 17

## Metadata

| Field           | Value    |
|-----------------|----------|
| Event Index     | 34/48    |
| Offset          | 0x0559   |
| Data Size       | 53 bytes |
| Calculated Size | 53 bytes |
| Instructions    | 16       |

```
      00 01 02 03 04 05 06 07  08 09 0A 0B 0C 0D 0E 0F
      -- -- -- -- -- -- -- --  -- -- -- -- -- -- -- --
0550:                             42 03 09 10 69 80 02           B...i..
0560: 02 10 06 80 80 6E 05 48  6F 80 23 01 8C 05 02 02  .....n.Ho.#.....
0570: 10 47 80 80 7D 05 48 6F  80 23 01 8C 05 02 02 10  .G..}.Ho.#......
0580: 48 80 80 8C 05 48 70 80  23 01 8C 05 21 00        H....Hp.#...!.  
```

## Opcodes

```
  0: 0x0559 [0x42] SET_CLI_EVENT_CANCEL_DATA()
  1: 0x055A [0x03] Work_Zone[9] = 876*
  2: 0x055F [0x02] IF !(Work_Zone[2] == 0*) GOTO 0x056E
  3: 0x0567 [0x48] [System] [7707*]:
    → "There is a sparse patch of mushrooms growing here.\u007F1\u0000\u0007"
  4: 0x056A [0x23] WAIT_FOR_DIALOG_INTERACTION
  5: 0x056B [0x01] GOTO 0x058C
  6: 0x056E [0x02] IF !(Work_Zone[2] == 1*) GOTO 0x057D
  7: 0x0576 [0x48] [System] [7707*]:
    → "There is a sparse patch of mushrooms growing here.\u007F1\u0000\u0007"
  8: 0x0579 [0x23] WAIT_FOR_DIALOG_INTERACTION
  9: 0x057A [0x01] GOTO 0x058C
 10: 0x057D [0x02] IF !(Work_Zone[2] == 2*) GOTO 0x058C
 11: 0x0585 [0x48] [System] [7708*]:
    → "There is a dense patch of mushrooms growing here.\u007F1\u0000\u0007"
 12: 0x0588 [0x23] WAIT_FOR_DIALOG_INTERACTION
 13: 0x0589 [0x01] GOTO 0x058C

SUBROUTINE_058C:
 14: 0x058C [0x21] END_EVENT
 15: 0x058D [0x00] END_REQSTACK()
```
