# Event 298

## Metadata

| Field           | Value    |
|-----------------|----------|
| Event Index     | 8/15     |
| Offset          | 0x0046   |
| Data Size       | 36 bytes |
| Calculated Size | 36 bytes |
| Instructions    | 11       |

```
      00 01 02 03 04 05 06 07  08 09 0A 0B 0C 0D 0E 0F
      -- -- -- -- -- -- -- --  -- -- -- -- -- -- -- --
0040:                   1E F0  FF FF 7F 6F 70 29 0B 34        .....op).4
0050: F0 0E 01 02 1D 04 80 23  29 0B 34 F0 0E 01 03 29  .......#).4....)
0060: 0B 34 F0 0E 01 04 20 00  21 00                    .4.... .!.      
```

## Opcodes

```
  0: 0x0046 [0x1E] EventEntity looks at LocalPlayer and starts talking
  1: 0x004B [0x6F] WAIT_FRAME_DELAY: Yield until WaitTime reaches zero
  2: 0x004C [0x70] WAIT_ENTITY_RENDER_FLAG: Wait while EventEntity->Render.Flags3 bit 2 is set (cancel turn if not)
  3: 0x004D [0x29] REQ_SET_WAIT(priority=0x0B, entity_id=Kalupa-Tawalupa (ID: 17756212/0x010EF034), tag_num=0x02)
  4: 0x0054 [0x1D] PRINT_EVENT_MESSAGE(message_id=7897*)
    → "I hear that the beastmen are on the move in every region lately. Even though Windurst has amicable relations with our local beastmen, the Yagudo, we still can't be sure if or when we are going to get pulled back into a full-scale war.\u007F1\u0000\u0007"
  5: 0x0057 [0x23] WAIT_FOR_DIALOG_INTERACTION
  6: 0x0058 [0x29] REQ_SET_WAIT(priority=0x0B, entity_id=Kalupa-Tawalupa (ID: 17756212/0x010EF034), tag_num=0x03)
  7: 0x005F [0x29] REQ_SET_WAIT(priority=0x0B, entity_id=Kalupa-Tawalupa (ID: 17756212/0x010EF034), tag_num=0x04)
  8: 0x0066 [0x20] SET_CLI_EVENT_UC_FLAG: Unlock player control
  9: 0x0068 [0x21] END_EVENT
 10: 0x0069 [0x00] END_REQSTACK()
```
