# Event 65535

## Metadata

| Field           | Value    |
|-----------------|----------|
| Event Index     | 11/137   |
| Offset          | 0x008F   |
| Data Size       | 77 bytes |
| Calculated Size | 77 bytes |
| Instructions    | 9        |

```
      00 01 02 03 04 05 06 07  08 09 0A 0B 0C 0D 0E 0F
      -- -- -- -- -- -- -- --  -- -- -- -- -- -- -- --
0080:                                               32                 2
0090: 04 80 45 05 80 F8 FF FF  7F F8 FF FF 7F 73 30 38  ..E..........s08
00A0: 36 02 80 37 0E 80 0F 80  08 80 10 80 1F 00 11 80  6..7............
00B0: 12 80 08 80 1F 01 52 05  80 F8 FF FF 7F F8 FF FF  ......R.........
00C0: 7F 73 30 38 36 45 05 80  F8 FF FF 7F F8 FF FF 7F  .s086E..........
00D0: 73 30 38 37 02 80 1E 3F  10 0F 01 00              s087...?....    
```

## Opcodes

```
  0: 0x008F [0x32] ExtData[1]->MainSpeed = 13* * 0.1
  1: 0x0092 [0x45] LOAD_SCHEDULED_TASK(work_offset1=141*, entity1=EventEntity, entity2=EventEntity, scheduler_id="s086", work_offset2=0*)
  2: 0x00A3 [0x37] UPDATE_EVENT_POSITION_AND_DIR: x=138.012*, z=-126.892*, y=-5.250*, direction=331.8°*
  3: 0x00AC [0x1F] MOVE_ENTITY: EventEntity moves to X=139.454*, Z=-126.955*, Y=-5.250*
  4: 0x00B4 [0x1F] MOVE_ENTITY: Update entity position (mode=1)
  5: 0x00B6 [0x52] END_LOAD_SCHEDULER: End scheduler "s086" with entities [EventEntity, EventEntity], work=141*
  6: 0x00C5 [0x45] LOAD_SCHEDULED_TASK(work_offset1=141*, entity1=EventEntity, entity2=EventEntity, scheduler_id="s087", work_offset2=0*)
  7: 0x00D6 [0x1E] EventEntity looks at Chocobo (ID: 17764415/0x010F103F) and starts talking
  8: 0x00DB [0x00] END_REQSTACK()
```
