# Event 65535

## Metadata

| Field           | Value    |
|-----------------|----------|
| Event Index     | 69/137   |
| Offset          | 0x03F5   |
| Data Size       | 87 bytes |
| Calculated Size | 87 bytes |
| Instructions    | 7        |

```
      00 01 02 03 04 05 06 07  08 09 0A 0B 0C 0D 0E 0F
      -- -- -- -- -- -- -- --  -- -- -- -- -- -- -- --
03F0:                45 24 80  F0 FF FF 7F F0 FF FF 7F       E$.........
0400: 6F 76 6C 31 02 80 45 24  80 F0 FF FF 7F F0 FF FF  ovl1..E$........
0410: 7F 62 6C 6F 6E 02 80 45  AF 80 F0 FF FF 7F F0 FF  .blon..E........
0420: FF 7F 73 30 39 36 02 80  1C 88 80 45 24 80 F0 FF  ..s096.....E$...
0430: FF 7F F0 FF FF 7F 62 6C  6F 66 02 80 52 AF 80 F0  ......blof..R...
0440: FF FF 7F F0 FF FF 7F 73  30 39 36 00              .......s096.    
```

## Opcodes

```
  0: 0x03F5 [0x45] LOAD_SCHEDULED_TASK(work_offset1=200*, entity1=LocalPlayer, entity2=LocalPlayer, scheduler_id="ovl1", work_offset2=0*)
  1: 0x0406 [0x45] LOAD_SCHEDULED_TASK(work_offset1=200*, entity1=LocalPlayer, entity2=LocalPlayer, scheduler_id="blon", work_offset2=0*)
  2: 0x0417 [0x45] LOAD_SCHEDULED_TASK(work_offset1=251*, entity1=LocalPlayer, entity2=LocalPlayer, scheduler_id="s096", work_offset2=0*)
  3: 0x0428 [0x1C] WAIT(30* ticks)
  4: 0x042B [0x45] LOAD_SCHEDULED_TASK(work_offset1=200*, entity1=LocalPlayer, entity2=LocalPlayer, scheduler_id="blof", work_offset2=0*)
  5: 0x043C [0x52] END_LOAD_SCHEDULER: End scheduler "s096" with entities [LocalPlayer, LocalPlayer], work=251*
  6: 0x044B [0x00] END_REQSTACK()
```
