# Event 65535

## Metadata

| Field           | Value    |
|-----------------|----------|
| Event Index     | 98/137   |
| Offset          | 0x073B   |
| Data Size       | 33 bytes |
| Calculated Size | 33 bytes |
| Instructions    | 7        |

```
      00 01 02 03 04 05 06 07  08 09 0A 0B 0C 0D 0E 0F
      -- -- -- -- -- -- -- --  -- -- -- -- -- -- -- --
0730:                                   37 1D 81 1E 81             7....
0740: 1F 81 20 81 80 F8 FF FF  7F 32 04 80 1F 00 21 81  .. ......2....!.
0750: 22 81 23 81 1F 01 1E 45  10 0F 01 00              ".#....E....    
```

## Opcodes

```
  0: 0x073B [0x37] UPDATE_EVENT_POSITION_AND_DIR: x=-80.309*, z=-699.518*, y=8.645*, direction=236.5°*
  1: 0x0744 [0x80] LOAD_WAIT(entity=EventEntity)
  2: 0x0749 [0x32] ExtData[1]->MainSpeed = 13* * 0.1
  3: 0x074C [0x1F] MOVE_ENTITY: EventEntity moves to X=-82.804*, Z=-698.733*, Y=8.497*
  4: 0x0754 [0x1F] MOVE_ENTITY: Update entity position (mode=1)
  5: 0x0756 [0x1E] EventEntity looks at Unnamed NPC (ID: 17764421/0x010F1045) and starts talking
  6: 0x075B [0x00] END_REQSTACK()
```
