# Event 5052

## Metadata

| Field           | Value    |
|-----------------|----------|
| Event Index     | 5/25     |
| Offset          | 0x094D   |
| Data Size       | 44 bytes |
| Calculated Size | 44 bytes |
| Instructions    | 12       |

```
      00 01 02 03 04 05 06 07  08 09 0A 0B 0C 0D 0E 0F
      -- -- -- -- -- -- -- --  -- -- -- -- -- -- -- --
0940:                                         1E F0 FF               ...
0950: FF 7F 6F 70 6E F8 FF FF  7F 3F 80 99 F8 FF FF 7F  ..opn....?......
0960: 1D 40 80 23 66 27 80 F8  FF FF 7F F8 FF FF 7F 74  .@.#f'.........t
0970: 6C 6B 30 1D 41 80 23 21  00                       lk0.A.#!.       
```

## Opcodes

```
  0: 0x094D [0x1E] EventEntity looks at LocalPlayer and starts talking
  1: 0x0952 [0x6F] WAIT_FRAME_DELAY: Yield until WaitTime reaches zero
  2: 0x0953 [0x70] WAIT_ENTITY_RENDER_FLAG: Wait while EventEntity->Render.Flags3 bit 2 is set (cancel turn if not)
  3: 0x0954 [0x6E] EventEntity uses emote 26*
  4: 0x095B [0x99] Wait for EventEntity animation to complete
  5: 0x0960 [0x1D] PRINT_EVENT_MESSAGE(message_id=10259*)
    → "<Mutter> With those two running around, I can't even focus on my worrrk...\u007F1\u0000\u0007"
  6: 0x0963 [0x23] WAIT_FOR_DIALOG_INTERACTION
  7: 0x0964 [0x66] LOAD_EXT_SCHEDULER_MAIN(work_offset=59*, entity1=EventEntity, entity2=EventEntity, action="tlk0")
  8: 0x0973 [0x1D] PRINT_EVENT_MESSAGE(message_id=10260*)
    → "\u0008! Don't forrrget the most important task at hand--keep Tarutaru Sauce out of trouble, or your days as an apprentice manager are numbered!\u007F1\u0000\u0007"
  9: 0x0976 [0x23] WAIT_FOR_DIALOG_INTERACTION
 10: 0x0977 [0x21] END_EVENT
 11: 0x0978 [0x00] END_REQSTACK()
```
