# Event 5097

## Metadata

| Field           | Value    |
|-----------------|----------|
| Event Index     | 15/25    |
| Offset          | 0x1651   |
| Data Size       | 32 bytes |
| Calculated Size | 32 bytes |
| Instructions    | 10       |

```
      00 01 02 03 04 05 06 07  08 09 0A 0B 0C 0D 0E 0F
      -- -- -- -- -- -- -- --  -- -- -- -- -- -- -- --
1650:    1E F0 FF FF 7F 6F 70  66 27 80 F8 FF FF 7F F8   .....opf'......
1660: FF FF 7F 74 6C 6B 30 1D  41 80 23 1D 8E 80 23 21  ...tlk0.A.#...#!
1670: 00                                                .               
```

## Opcodes

```
  0: 0x1651 [0x1E] EventEntity looks at LocalPlayer and starts talking
  1: 0x1656 [0x6F] WAIT_FRAME_DELAY: Yield until WaitTime reaches zero
  2: 0x1657 [0x70] WAIT_ENTITY_RENDER_FLAG: Wait while EventEntity->Render.Flags3 bit 2 is set (cancel turn if not)
  3: 0x1658 [0x66] LOAD_EXT_SCHEDULER_MAIN: Load scheduler "tlk0" with entities [EventEntity, EventEntity], work=59*
  4: 0x1667 [0x1D] PRINT_EVENT_MESSAGE(message_id=10260*)
    → "\u0008! Don't forrrget the most important task at hand--keep Tarutaru Sauce out of trouble, or your days as an apprentice manager are numbered!\u007F1\u0000\u0007"
  5: 0x166A [0x23] WAIT_FOR_DIALOG_INTERACTION
  6: 0x166B [0x1D] PRINT_EVENT_MESSAGE(message_id=10451*)
    → "Owwwwww...\u0007Those fools made me thrrrow my back out!\u007F1\u0000\u0007"
  7: 0x166E [0x23] WAIT_FOR_DIALOG_INTERACTION
  8: 0x166F [0x21] END_EVENT
  9: 0x1670 [0x00] END_REQSTACK()
```
