# Event 340

## Metadata

| Field           | Value    |
|-----------------|----------|
| Event Index     | 72/78    |
| Offset          | 0x0712   |
| Data Size       | 31 bytes |
| Calculated Size | 31 bytes |
| Instructions    | 9        |

```
      00 01 02 03 04 05 06 07  08 09 0A 0B 0C 0D 0E 0F
      -- -- -- -- -- -- -- --  -- -- -- -- -- -- -- --
0710:       29 0F 8B 50 03 01  25 1D 14 80 23 1D 15 80    )..P..%...#...
0720: 23 29 0F 8B 50 03 01 26  29 0F 8B 50 03 01 27 21  #)..P..&)..P..'!
0730: 00                                                .               
```

## Opcodes

```
  0: 0x0712 [0x29] REQ_SET_WAIT(priority=0x0F, entity_id=Shelu-Mapelu (ID: 16994443/0x0103508B), tag_num=0x25)
  1: 0x0719 [0x1D] PRINT_EVENT_MESSAGE(message_id=11982*)
    → "Eep! \u0007Pay me no heed.\u007F1\u0000\u0007"
  2: 0x071C [0x23] WAIT_FOR_DIALOG_INTERACTION
  3: 0x071D [0x1D] PRINT_EVENT_MESSAGE(message_id=11983*)
    → "I seek...the power of the peach...so that I can stop the transformation...and remain human evermore.\u007F1\u0000\u0007"
  4: 0x0720 [0x23] WAIT_FOR_DIALOG_INTERACTION
  5: 0x0721 [0x29] REQ_SET_WAIT(priority=0x0F, entity_id=Shelu-Mapelu (ID: 16994443/0x0103508B), tag_num=0x26)
  6: 0x0728 [0x29] REQ_SET_WAIT(priority=0x0F, entity_id=Shelu-Mapelu (ID: 16994443/0x0103508B), tag_num=0x27)
  7: 0x072F [0x21] END_EVENT
  8: 0x0730 [0x00] END_REQSTACK()
```
