# Event 343

## Metadata

| Field           | Value    |
|-----------------|----------|
| Event Index     | 78/78    |
| Offset          | 0x0773   |
| Data Size       | 22 bytes |
| Calculated Size | 22 bytes |
| Instructions    | 12       |

```
      00 01 02 03 04 05 06 07  08 09 0A 0B 0C 0D 0E 0F
      -- -- -- -- -- -- -- --  -- -- -- -- -- -- -- --
0770:          42 1E F0 FF FF  7F 6F 70 1D 1D 80 23 1D     B.....op...#.
0780: 1E 80 23 1D 1F 80 23 21  00                       ..#...#!.       
```

## Opcodes

```
  0: 0x0773 [0x42] SET_CLI_EVENT_CANCEL_DATA()
  1: 0x0774 [0x1E] EventEntity looks at LocalPlayer and starts talking
  2: 0x0779 [0x6F] WAIT_FRAME_DELAY: Yield until WaitTime reaches zero
  3: 0x077A [0x70] WAIT_ENTITY_RENDER_FLAG: Wait while EventEntity->Render.Flags3 bit 2 is set (cancel turn if not)
  4: 0x077B [0x1D] PRINT_EVENT_MESSAGE(message_id=11998*)
    → "You...you found the peach thing I seek?\u007F1\u0000\u0007"
  5: 0x077E [0x23] WAIT_FOR_DIALOG_INTERACTION
  6: 0x077F [0x1D] PRINT_EVENT_MESSAGE(message_id=11999*)
    → "Then I give this to you in return. Perhaps...it will serve you better than me.\u007F1\u0000\u0007"
  7: 0x0782 [0x23] WAIT_FOR_DIALOG_INTERACTION
  8: 0x0783 [0x1D] PRINT_EVENT_MESSAGE(message_id=12000*)
    → "And my journey...to prevent the transformation...continues.\u007F1\u0000\u0007"
  9: 0x0786 [0x23] WAIT_FOR_DIALOG_INTERACTION
 10: 0x0787 [0x21] END_EVENT
 11: 0x0788 [0x00] END_REQSTACK()
```
