# Event 35

## Metadata

| Field           | Value    |
|-----------------|----------|
| Event Index     | 38/49    |
| Offset          | 0x01B1   |
| Data Size       | 34 bytes |
| Calculated Size | 34 bytes |
| Instructions    | 10       |

```
      00 01 02 03 04 05 06 07  08 09 0A 0B 0C 0D 0E 0F
      -- -- -- -- -- -- -- --  -- -- -- -- -- -- -- --
01B0:    1E F0 FF FF 7F 1C 00  80 2B FF E1 05 01 27 80   ........+....'.
01C0: 23 2B FF E1 05 01 28 80  23 2B FF E1 05 01 29 80  #+....(.#+....).
01D0: 23 21 00                                          #!.             
```

## Opcodes

```
  0: 0x01B1 [0x1E] EventEntity looks at LocalPlayer and starts talking
  1: 0x01B6 [0x1C] WAIT(30* ticks)
  2: 0x01B9 [0x2B] Dhea Prandoleh (ID: 17162751/0x0105E1FF) [13902*]:
    → "Master Lehko's f-fine. Yes, I'm s-surrre of it...\u0007He...\u007F1\u0000\u0007"
  3: 0x01C0 [0x23] WAIT_FOR_DIALOG_INTERACTION
  4: 0x01C1 [0x2B] Dhea Prandoleh (ID: 17162751/0x0105E1FF) [13903*]:
    → "Oh, it's no use, \u0008. I can't stop worrrying about him...\u0007Perhaps you could head to Sarutabaruta to take a look?\u007F1\u0000\u0007"
  5: 0x01C8 [0x23] WAIT_FOR_DIALOG_INTERACTION
  6: 0x01C9 [0x2B] Dhea Prandoleh (ID: 17162751/0x0105E1FF) [13904*]:
    → "Then again, maybe he doesn't want to be found?\u0007Oh, whatever shall we do...?\u007F1\u0000\u0007"
  7: 0x01D0 [0x23] WAIT_FOR_DIALOG_INTERACTION
  8: 0x01D1 [0x21] END_EVENT
  9: 0x01D2 [0x00] END_REQSTACK()
```
