# Event 65535

## Metadata

| Field           | Value    |
|-----------------|----------|
| Event Index     | 134/136  |
| Offset          | 0x2504   |
| Data Size       | 48 bytes |
| Calculated Size | 48 bytes |
| Instructions    | 12       |

```
      00 01 02 03 04 05 06 07  08 09 0A 0B 0C 0D 0E 0F
      -- -- -- -- -- -- -- --  -- -- -- -- -- -- -- --
2500:             4A 30 E0 0E  01 01 E1 0E 01 6F 76 30      J0.......ov0
2510: E0 0E 01 1C 02 80 32 00  80 1F 00 D3 80 D4 80 38  ......2........8
2520: 80 1F 01 6F 4A 30 E0 0E  01 01 E1 0E 01 6F 76 30  ...oJ0.......ov0
2530: E0 0E 01 00                                       ....            
```

## Opcodes

```
  0: 0x2504 [0x4A] Leepe-Hoppe (ID: 17752112/0x010EE030) looks at Ildy-Goldy (ID: 17752321/0x010EE101)
  1: 0x250D [0x6F] WAIT_FRAME_DELAY: Yield until WaitTime reaches zero
  2: 0x250E [0x76] CHECK_ENTITY_RENDER_FLAGS: Wait until Leepe-Hoppe (ID: 17752112/0x010EE030) Render.Flags0 and Render.Flags3 conditions are met
  3: 0x2513 [0x1C] WAIT(60* ticks)
  4: 0x2516 [0x32] ExtData[1]->MainSpeed = 40* * 0.1
  5: 0x2519 [0x1F] MOVE_ENTITY: EventEntity moves to X=15.496*, Z=-198.037*, Y=-9.749*
  6: 0x2521 [0x1F] MOVE_ENTITY: Update entity position (mode=1)
  7: 0x2523 [0x6F] WAIT_FRAME_DELAY: Yield until WaitTime reaches zero
  8: 0x2524 [0x4A] Leepe-Hoppe (ID: 17752112/0x010EE030) looks at Ildy-Goldy (ID: 17752321/0x010EE101)
  9: 0x252D [0x6F] WAIT_FRAME_DELAY: Yield until WaitTime reaches zero
 10: 0x252E [0x76] CHECK_ENTITY_RENDER_FLAGS: Wait until Leepe-Hoppe (ID: 17752112/0x010EE030) Render.Flags0 and Render.Flags3 conditions are met
 11: 0x2533 [0x00] END_REQSTACK()
```
