# Event 65535

## Metadata

| Field           | Value    |
|-----------------|----------|
| Event Index     | 88/136   |
| Offset          | 0x06C7   |
| Data Size       | 44 bytes |
| Calculated Size | 44 bytes |
| Instructions    | 10       |

```
      00 01 02 03 04 05 06 07  08 09 0A 0B 0C 0D 0E 0F
      -- -- -- -- -- -- -- --  -- -- -- -- -- -- -- --
06C0:                      29  08 30 E0 0E 01 01 1D 2B         ).0.....+
06D0: 80 23 29 08 30 E0 0E 01  02 29 08 30 E0 0E 01 3F  .#).0....).0...?
06E0: 1D 2C 80 23 29 08 30 E0  0E 01 41 29 08 30 E0 0E  .,.#).0...A).0..
06F0: 01 42 00                                          .B.             
```

## Opcodes

```
  0: 0x06C7 [0x29] REQ_SET_WAIT(priority=0x08, entity_id=Leepe-Hoppe (ID: 17752112/0x010EE030), tag_num=0x01)
  1: 0x06CE [0x1D] PRINT_EVENT_MESSAGE(message_id=7629*)
    → "Anyway, your task's complete, your mission done,\u0007so return to the gatehouse where you begun.\u007F1\u0000\u0007"
  2: 0x06D1 [0x23] WAIT_FOR_DIALOG_INTERACTION
  3: 0x06D2 [0x29] REQ_SET_WAIT(priority=0x08, entity_id=Leepe-Hoppe (ID: 17752112/0x010EE030), tag_num=0x02)
  4: 0x06D9 [0x29] REQ_SET_WAIT(priority=0x08, entity_id=Leepe-Hoppe (ID: 17752112/0x010EE030), tag_num=0x3F)
  5: 0x06E0 [0x1D] PRINT_EVENT_MESSAGE(message_id=7630*)
    → "Ha-ha! I'm sure something great,\u0007awaits you back at the gate!\u007F1\u0000\u0007"
  6: 0x06E3 [0x23] WAIT_FOR_DIALOG_INTERACTION
  7: 0x06E4 [0x29] REQ_SET_WAIT(priority=0x08, entity_id=Leepe-Hoppe (ID: 17752112/0x010EE030), tag_num=0x41)
  8: 0x06EB [0x29] REQ_SET_WAIT(priority=0x08, entity_id=Leepe-Hoppe (ID: 17752112/0x010EE030), tag_num=0x42)
  9: 0x06F2 [0x00] END_REQSTACK()
```
