# Event 734

## Metadata

| Field           | Value    |
|-----------------|----------|
| Event Index     | 90/136   |
| Offset          | 0x0722   |
| Data Size       | 53 bytes |
| Calculated Size | 53 bytes |
| Instructions    | 12       |

```
      00 01 02 03 04 05 06 07  08 09 0A 0B 0C 0D 0E 0F
      -- -- -- -- -- -- -- --  -- -- -- -- -- -- -- --
0720:       1E F0 FF FF 7F 6F  70 29 08 30 E0 0E 01 01    .....op).0....
0730: 29 0B 30 E0 0E 01 5A 29  08 30 E0 0E 01 02 29 08  ).0...Z).0....).
0740: 30 E0 0E 01 1D 29 0B 30  E0 0E 01 5B 29 08 30 E0  0....).0...[).0.
0750: 0E 01 1E 20 00 21 00                              ... .!.         
```

## Opcodes

```
  0: 0x0722 [0x1E] EventEntity looks at LocalPlayer and starts talking
  1: 0x0727 [0x6F] WAIT_FRAME_DELAY: Yield until WaitTime reaches zero
  2: 0x0728 [0x70] WAIT_ENTITY_RENDER_FLAG: Wait while EventEntity->Render.Flags3 bit 2 is set (cancel turn if not)
  3: 0x0729 [0x29] REQ_SET_WAIT(priority=0x08, entity_id=Leepe-Hoppe (ID: 17752112/0x010EE030), tag_num=0x01)
  4: 0x0730 [0x29] REQ_SET_WAIT(priority=0x0B, entity_id=Leepe-Hoppe (ID: 17752112/0x010EE030), tag_num=0x5A)
  5: 0x0737 [0x29] REQ_SET_WAIT(priority=0x08, entity_id=Leepe-Hoppe (ID: 17752112/0x010EE030), tag_num=0x02)
  6: 0x073E [0x29] REQ_SET_WAIT(priority=0x08, entity_id=Leepe-Hoppe (ID: 17752112/0x010EE030), tag_num=0x1D)
  7: 0x0745 [0x29] REQ_SET_WAIT(priority=0x0B, entity_id=Leepe-Hoppe (ID: 17752112/0x010EE030), tag_num=0x5B)
  8: 0x074C [0x29] REQ_SET_WAIT(priority=0x08, entity_id=Leepe-Hoppe (ID: 17752112/0x010EE030), tag_num=0x1E)
  9: 0x0753 [0x20] SET_CLI_EVENT_UC_FLAG: Unlock player control
 10: 0x0755 [0x21] END_EVENT
 11: 0x0756 [0x00] END_REQSTACK()
```
