# Event 65535

## Metadata

| Field           | Value    |
|-----------------|----------|
| Event Index     | 18/25    |
| Offset          | 0x00B1   |
| Data Size       | 43 bytes |
| Calculated Size | 43 bytes |
| Instructions    | 7        |

```
      00 01 02 03 04 05 06 07  08 09 0A 0B 0C 0D 0E 0F
      -- -- -- -- -- -- -- --  -- -- -- -- -- -- -- --
00B0:    32 07 80 1F 00 0D 80  14 80 15 80 1F 01 1C 16   2..............
00C0: 80 2C D1 31 0C 01 D1 31  0C 01 72 65 73 30 53 F8  .,.1...1..res0S.
00D0: FF FF 7F F8 FF FF 7F 72  65 73 30 00              .......res0.    
```

## Opcodes

```
  0: 0x00B1 [0x32] ExtData[1]->MainSpeed = 13* * 0.1
  1: 0x00B4 [0x1F] MOVE_ENTITY: EventEntity moves to X=167.800*, Z=-86.558*, Y=-27.455*
  2: 0x00BC [0x1F] MOVE_ENTITY: Update entity position (mode=1)
  3: 0x00BE [0x1C] WAIT(40* ticks)
  4: 0x00C1 [0x2C] CREATE_SCHEDULER_TASK: Create scheduler "res0" with entities [Shikaree M (ID: 17576401/0x010C31D1), Shikaree M (ID: 17576401/0x010C31D1)]
  5: 0x00CE [0x53] WAIT_SCHEDULER_TASK: Wait for scheduler "res0" with entities [EventEntity, EventEntity]
  6: 0x00DB [0x00] END_REQSTACK()
```
