# Event 4

## Metadata

| Field           | Value    |
|-----------------|----------|
| Event Index     | 5/7      |
| Offset          | 0x00E0   |
| Data Size       | 42 bytes |
| Calculated Size | 42 bytes |
| Instructions    | 12       |

```
      00 01 02 03 04 05 06 07  08 09 0A 0B 0C 0D 0E 0F
      -- -- -- -- -- -- -- --  -- -- -- -- -- -- -- --
00E0: 20 01 42 06 01 10 03 02  10 08 80 03 03 10 09 80   .B.............
00F0: 24 0A 80 01 80 0B 80 25  02 00 10 0B 80 00 08 01  $......%........
0100: 03 01 10 01 80 01 08 01  21 00                    ........!.      
```

## Opcodes

```
  0: 0x00E0 [0x20] SET_CLI_EVENT_UC_FLAG: Lock player control
  1: 0x00E2 [0x42] SET_CLI_EVENT_CANCEL_DATA()
  2: 0x00E3 [0x06] Work_Zone[1] = 0
  3: 0x00E6 [0x03] Work_Zone[2] = 198*
  4: 0x00EB [0x03] Work_Zone[3] = 201*
  5: 0x00F0 [0x24] CREATE_DIALOG(message_id=7281*, default_option=1*, option_flags=0*)
    → "Bury \u0001\u00053\u0002\u0000\u0000\u0000 & \u0001\u00053\u0002\u0001\u0000\u0000?\u0007\u000BYes.\u0007No.\u007F1\u0000\u0007"
  6: 0x00F7 [0x25] WAIT_DIALOG_SELECT()
  7: 0x00F8 [0x02] IF !(Work_Zone[0] == 0*) GOTO 0x0108
  8: 0x0100 [0x03] Work_Zone[1] = 1*
  9: 0x0105 [0x01] GOTO 0x0108

SUBROUTINE_0108:
 10: 0x0108 [0x21] END_EVENT
 11: 0x0109 [0x00] END_REQSTACK()
```
