# Event 65535

## Metadata

| Field           | Value    |
|-----------------|----------|
| Event Index     | 20/28    |
| Offset          | 0x012E   |
| Data Size       | 47 bytes |
| Calculated Size | 47 bytes |
| Instructions    | 15       |

```
      00 01 02 03 04 05 06 07  08 09 0A 0B 0C 0D 0E 0F
      -- -- -- -- -- -- -- --  -- -- -- -- -- -- -- --
0120:                                            1E 05                ..
0130: B0 11 01 6F 70 1C 06 80  32 07 80 1F 00 08 80 09  ...op...2.......
0140: 80 03 80 1F 01 6F 1F 00  0A 80 0B 80 0C 80 1F 01  .....o..........
0150: 6F 1F 00 0D 80 0E 80 0F  80 1F 01 6F 00           o..........o.   
```

## Opcodes

```
  0: 0x012E [0x1E] EventEntity looks at Dusky Forest (ID: 17936389/0x0111B005) and starts talking
  1: 0x0133 [0x6F] WAIT_FRAME_DELAY: Yield until WaitTime reaches zero
  2: 0x0134 [0x70] WAIT_ENTITY_RENDER_FLAG: Wait while EventEntity->Render.Flags3 bit 2 is set (cancel turn if not)
  3: 0x0135 [0x1C] WAIT(30* ticks)
  4: 0x0138 [0x32] ExtData[1]->MainSpeed = 13* * 0.1
  5: 0x013B [0x1F] MOVE_ENTITY: EventEntity moves to X=-39.397*, Z=38.670*, Y=1.349*
  6: 0x0143 [0x1F] MOVE_ENTITY: Update entity position (mode=1)
  7: 0x0145 [0x6F] WAIT_FRAME_DELAY: Yield until WaitTime reaches zero
  8: 0x0146 [0x1F] MOVE_ENTITY: EventEntity moves to X=-40.636*, Z=45.396*, Y=-0.649*
  9: 0x014E [0x1F] MOVE_ENTITY: Update entity position (mode=1)
 10: 0x0150 [0x6F] WAIT_FRAME_DELAY: Yield until WaitTime reaches zero
 11: 0x0151 [0x1F] MOVE_ENTITY: EventEntity moves to X=-44.497*, Z=46.560*, Y=-0.661*
 12: 0x0159 [0x1F] MOVE_ENTITY: Update entity position (mode=1)
 13: 0x015B [0x6F] WAIT_FRAME_DELAY: Yield until WaitTime reaches zero
 14: 0x015C [0x00] END_REQSTACK()
```
