# Event 65535

## Metadata

| Field           | Value    |
|-----------------|----------|
| Event Index     | 63/68    |
| Offset          | 0x05E7   |
| Data Size       | 81 bytes |
| Calculated Size | 81 bytes |
| Instructions    | 9        |

```
      00 01 02 03 04 05 06 07  08 09 0A 0B 0C 0D 0E 0F
      -- -- -- -- -- -- -- --  -- -- -- -- -- -- -- --
05E0:                      1C  11 80 9F 0B 80 F8 FF FF         .........
05F0: 7F F8 FF FF 7F 73 74 72  30 00 80 1C 03 80 9F 0B  .....str0.......
0600: 80 F8 FF FF 7F F8 FF FF  7F 6B 69 6C 6C 00 80 1C  .........kill...
0610: 10 80 9F 0B 80 F8 FF FF  7F F8 FF FF 7F 73 74 72  .............str
0620: 30 00 80 1C 0A 80 9F 0B  80 F8 FF FF 7F F8 FF FF  0...............
0630: 7F 6B 69 6C 6C 00 80 00                           .kill...        
```

## Opcodes

```
  0: 0x05E7 [0x1C] WAIT(150* ticks)
  1: 0x05EA [0x9F] LOAD_SCHEDULED_TASK_ALT: Load scheduler "str0" with entities [EventEntity, EventEntity], work=[127*, 0*]
  2: 0x05FB [0x1C] WAIT(30* ticks)
  3: 0x05FE [0x9F] LOAD_SCHEDULED_TASK_ALT: Load scheduler "kill" with entities [EventEntity, EventEntity], work=[127*, 0*]
  4: 0x060F [0x1C] WAIT(90* ticks)
  5: 0x0612 [0x9F] LOAD_SCHEDULED_TASK_ALT: Load scheduler "str0" with entities [EventEntity, EventEntity], work=[127*, 0*]
  6: 0x0623 [0x1C] WAIT(60* ticks)
  7: 0x0626 [0x9F] LOAD_SCHEDULED_TASK_ALT: Load scheduler "kill" with entities [EventEntity, EventEntity], work=[127*, 0*]
  8: 0x0637 [0x00] END_REQSTACK()
```
