# Event 65535

## Metadata

| Field           | Value    |
|-----------------|----------|
| Event Index     | 62/68    |
| Offset          | 0x0596   |
| Data Size       | 81 bytes |
| Calculated Size | 81 bytes |
| Instructions    | 9        |

```
      00 01 02 03 04 05 06 07  08 09 0A 0B 0C 0D 0E 0F
      -- -- -- -- -- -- -- --  -- -- -- -- -- -- -- --
0590:                   1C 17  80 9F 0B 80 F8 FF FF 7F        ..........
05A0: F8 FF FF 7F 73 74 72 30  00 80 1C 03 80 9F 0B 80  ....str0........
05B0: F8 FF FF 7F F8 FF FF 7F  6B 69 6C 6C 00 80 1C 0A  ........kill....
05C0: 80 9F 0B 80 F8 FF FF 7F  F8 FF FF 7F 73 74 72 30  ............str0
05D0: 00 80 1C 03 80 9F 0B 80  F8 FF FF 7F F8 FF FF 7F  ................
05E0: 6B 69 6C 6C 00 80 00                              kill...         
```

## Opcodes

```
  0: 0x0596 [0x1C] WAIT(70* ticks)
  1: 0x0599 [0x9F] LOAD_SCHEDULED_TASK_ALT: Load scheduler "str0" with entities [EventEntity, EventEntity], work=[127*, 0*]
  2: 0x05AA [0x1C] WAIT(30* ticks)
  3: 0x05AD [0x9F] LOAD_SCHEDULED_TASK_ALT: Load scheduler "kill" with entities [EventEntity, EventEntity], work=[127*, 0*]
  4: 0x05BE [0x1C] WAIT(60* ticks)
  5: 0x05C1 [0x9F] LOAD_SCHEDULED_TASK_ALT: Load scheduler "str0" with entities [EventEntity, EventEntity], work=[127*, 0*]
  6: 0x05D2 [0x1C] WAIT(30* ticks)
  7: 0x05D5 [0x9F] LOAD_SCHEDULED_TASK_ALT: Load scheduler "kill" with entities [EventEntity, EventEntity], work=[127*, 0*]
  8: 0x05E6 [0x00] END_REQSTACK()
```
