# Event 65535

## Metadata

| Field           | Value    |
|-----------------|----------|
| Event Index     | 3/3      |
| Offset          | 0x000B   |
| Data Size       | 39 bytes |
| Calculated Size | 39 bytes |
| Instructions    | 10       |

```
      00 01 02 03 04 05 06 07  08 09 0A 0B 0C 0D 0E 0F
      -- -- -- -- -- -- -- --  -- -- -- -- -- -- -- --
0000:                                   1C 04 80 32 05             ...2.
0010: 80 1F 00 06 80 07 80 08  80 1F 01 1F 00 09 80 0A  ................
0020: 80 0B 80 1F 01 1F 00 0C  80 0D 80 0E 80 1F 01 22  ..............."
0030: 01 00                                             ..              
```

## Opcodes

```
  0: 0x000B [0x1C] WAIT(10* ticks)
  1: 0x000E [0x32] ExtData[1]->MainSpeed = 40* * 0.1
  2: 0x0011 [0x1F] MOVE_ENTITY: EventEntity moves to X=153.200*, Z=-19.142*, Y=-19.777*
  3: 0x0019 [0x1F] MOVE_ENTITY: Update entity position (mode=1)
  4: 0x001B [0x1F] MOVE_ENTITY: EventEntity moves to X=129.616*, Z=-9.148*, Y=-20.054*
  5: 0x0023 [0x1F] MOVE_ENTITY: Update entity position (mode=1)
  6: 0x0025 [0x1F] MOVE_ENTITY: EventEntity moves to X=75.008*, Z=25.884*, Y=-19.551*
  7: 0x002D [0x1F] MOVE_ENTITY: Update entity position (mode=1)
  8: 0x002F [0x22] ENTITY_HIDE_FLAG(enabled=0x01)
  9: 0x0031 [0x00] END_REQSTACK()
```
