# Event 115

## Metadata

| Field           | Value    |
|-----------------|----------|
| Event Index     | 7/11     |
| Offset          | 0x0161   |
| Data Size       | 40 bytes |
| Calculated Size | 40 bytes |
| Instructions    | 13       |

```
      00 01 02 03 04 05 06 07  08 09 0A 0B 0C 0D 0E 0F
      -- -- -- -- -- -- -- --  -- -- -- -- -- -- -- --
0160:    20 01 42 1E F0 FF FF  7F 6F 70 5B 00 80 F8 FF    .B.....op[....
0170: FF 7F F8 FF FF 7F 74 6C  6B 30 1D 15 80 23 03 02  ......tlk0...#..
0180: 10 0F 80 1D 10 80 23 21  00                       ......#!.       
```

## Opcodes

```
  0: 0x0161 [0x20] SET_CLI_EVENT_UC_FLAG: Lock player control
  1: 0x0163 [0x42] SET_CLI_EVENT_CANCEL_DATA()
  2: 0x0164 [0x1E] EventEntity looks at LocalPlayer and starts talking
  3: 0x0169 [0x6F] WAIT_FRAME_DELAY: Yield until WaitTime reaches zero
  4: 0x016A [0x70] WAIT_ENTITY_RENDER_FLAG: Wait while EventEntity->Render.Flags3 bit 2 is set (cancel turn if not)
  5: 0x016B [0x5B] LOAD_EXT_SCHEDULER(work_offset=30*, entity1=EventEntity, entity2=EventEntity, action="tlk0")
  6: 0x017A [0x1D] PRINT_EVENT_MESSAGE(message_id=6862*)
    → "Yes, this will do. I next desire \u0001\u0001\u0001 \u0001\u0005$\u0002\u0000\u0000\u0000.\u007F1\u0000\u0007"
  7: 0x017D [0x23] WAIT_FOR_DIALOG_INTERACTION
  8: 0x017E [0x03] Work_Zone[2] = 2825*
  9: 0x0183 [0x1D] PRINT_EVENT_MESSAGE(message_id=6859*)
    → "\u007F\u0000\u0001\u0001\u00056\u0002\u0000\u0000\u0000 would be fine, too...if you can find one.\u007F1\u0000\u0007"
 10: 0x0186 [0x23] WAIT_FOR_DIALOG_INTERACTION
 11: 0x0187 [0x21] END_EVENT
 12: 0x0188 [0x00] END_REQSTACK()
```
