# Event 116

## Metadata

| Field           | Value    |
|-----------------|----------|
| Event Index     | 8/11     |
| Offset          | 0x0189   |
| Data Size       | 40 bytes |
| Calculated Size | 40 bytes |
| Instructions    | 13       |

```
      00 01 02 03 04 05 06 07  08 09 0A 0B 0C 0D 0E 0F
      -- -- -- -- -- -- -- --  -- -- -- -- -- -- -- --
0180:                             20 01 42 1E F0 FF FF            .B....
0190: 7F 6F 70 5B 00 80 F8 FF  FF 7F F8 FF FF 7F 74 6C  .op[..........tl
01A0: 6B 30 1D 16 80 23 03 02  10 0F 80 1D 10 80 23 21  k0...#........#!
01B0: 00                                                .               
```

## Opcodes

```
  0: 0x0189 [0x20] SET_CLI_EVENT_UC_FLAG: Lock player control
  1: 0x018B [0x42] SET_CLI_EVENT_CANCEL_DATA()
  2: 0x018C [0x1E] EventEntity looks at LocalPlayer and starts talking
  3: 0x0191 [0x6F] WAIT_FRAME_DELAY: Yield until WaitTime reaches zero
  4: 0x0192 [0x70] WAIT_ENTITY_RENDER_FLAG: Wait while EventEntity->Render.Flags3 bit 2 is set (cancel turn if not)
  5: 0x0193 [0x5B] LOAD_EXT_SCHEDULER(work_offset=30*, entity1=EventEntity, entity2=EventEntity, action="tlk0")
  6: 0x01A2 [0x1D] PRINT_EVENT_MESSAGE(message_id=6863*)
    → "Well done! Now for your final test. Bring me \u0001\u0001\u0001 \u0001\u0005$\u0002\u0000\u0000\u0000. Then you will gain what you desire.\u007F1\u0000\u0007"
  7: 0x01A5 [0x23] WAIT_FOR_DIALOG_INTERACTION
  8: 0x01A6 [0x03] Work_Zone[2] = 2825*
  9: 0x01AB [0x1D] PRINT_EVENT_MESSAGE(message_id=6859*)
    → "\u007F\u0000\u0001\u0001\u00056\u0002\u0000\u0000\u0000 would be fine, too...if you can find one.\u007F1\u0000\u0007"
 10: 0x01AE [0x23] WAIT_FOR_DIALOG_INTERACTION
 11: 0x01AF [0x21] END_EVENT
 12: 0x01B0 [0x00] END_REQSTACK()
```
