# Event 118

## Metadata

| Field           | Value    |
|-----------------|----------|
| Event Index     | 10/11    |
| Offset          | 0x0252   |
| Data Size       | 28 bytes |
| Calculated Size | 28 bytes |
| Instructions    | 8        |

```
      00 01 02 03 04 05 06 07  08 09 0A 0B 0C 0D 0E 0F
      -- -- -- -- -- -- -- --  -- -- -- -- -- -- -- --
0250:       1E F0 FF FF 7F 6F  70 5B 00 80 F8 FF FF 7F    .....op[......
0260: F8 FF FF 7F 74 6C 6B 30  1D 25 80 23 21 00        ....tlk0.%.#!.  
```

## Opcodes

```
  0: 0x0252 [0x1E] EventEntity looks at LocalPlayer and starts talking
  1: 0x0257 [0x6F] WAIT_FRAME_DELAY: Yield until WaitTime reaches zero
  2: 0x0258 [0x70] WAIT_ENTITY_RENDER_FLAG: Wait while EventEntity->Render.Flags3 bit 2 is set (cancel turn if not)
  3: 0x0259 [0x5B] LOAD_EXT_SCHEDULER(work_offset=30*, entity1=EventEntity, entity2=EventEntity, action="tlk0")
  4: 0x0268 [0x1D] PRINT_EVENT_MESSAGE(message_id=6846*)
    → "Oh, it's you again. There is nothing more I can teach you. Now go, and may Altana smile upon you.\u007F1\u0000\u0007"
  5: 0x026B [0x23] WAIT_FOR_DIALOG_INTERACTION
  6: 0x026C [0x21] END_EVENT
  7: 0x026D [0x00] END_REQSTACK()
```
