# Event 128

## Metadata

| Field           | Value    |
|-----------------|----------|
| Event Index     | 7/8      |
| Offset          | 0x0184   |
| Data Size       | 41 bytes |
| Calculated Size | 41 bytes |
| Instructions    | 13       |

```
      00 01 02 03 04 05 06 07  08 09 0A 0B 0C 0D 0E 0F
      -- -- -- -- -- -- -- --  -- -- -- -- -- -- -- --
0180:             1E F0 FF FF  7F 6F 70 5B 00 80 F8 FF      .....op[....
0190: FF 7F F8 FF FF 7F 74 6C  6B 30 1D 0F 80 23 1D 10  ......tlk0...#..
01A0: 80 23 1D 11 80 23 03 01  10 12 80 21 00           .#...#.....!.   
```

## Opcodes

```
  0: 0x0184 [0x1E] EventEntity looks at LocalPlayer and starts talking
  1: 0x0189 [0x6F] WAIT_FRAME_DELAY: Yield until WaitTime reaches zero
  2: 0x018A [0x70] WAIT_ENTITY_RENDER_FLAG: Wait while EventEntity->Render.Flags3 bit 2 is set (cancel turn if not)
  3: 0x018B [0x5B] LOAD_EXT_SCHEDULER(work_offset=70*, entity1=EventEntity, entity2=EventEntity, action="tlk0")
  4: 0x019A [0x1D] PRINT_EVENT_MESSAGE(message_id=7015*)
    → "Hello again.\u0007Thank you for helping us. Hm? What am I still doing here?\u007F1\u0000\u0007"
  5: 0x019D [0x23] WAIT_FOR_DIALOG_INTERACTION
  6: 0x019E [0x1D] PRINT_EVENT_MESSAGE(message_id=7016*)
    → "It's a funny story, really. The people who work here told me it's just not the same without me around.\u007F1\u0000\u0007"
  7: 0x01A1 [0x23] WAIT_FOR_DIALOG_INTERACTION
  8: 0x01A2 [0x1D] PRINT_EVENT_MESSAGE(message_id=7017*)
    → "So I've decided to stand here and pray for the safety of all who make their living out on the sea.\u007F1\u0000\u0007"
  9: 0x01A5 [0x23] WAIT_FOR_DIALOG_INTERACTION
 10: 0x01A6 [0x03] Work_Zone[1] = 12*
 11: 0x01AB [0x21] END_EVENT
 12: 0x01AC [0x00] END_REQSTACK()
```
