# Event 65535

## Metadata

| Field           | Value     |
|-----------------|-----------|
| Event Index     | 6/59      |
| Offset          | 0x0053    |
| Data Size       | 155 bytes |
| Calculated Size | 155 bytes |
| Instructions    | 3         |

```
      00 01 02 03 04 05 06 07  08 09 0A 0B 0C 0D 0E 0F
      -- -- -- -- -- -- -- --  -- -- -- -- -- -- -- --
0050:          AC 01 01 80 AB  04 00 03 01 00 00 00 02     .............
0060: 01 00 02 80 05 6F 00 08  01 00 00 80 01 74 00 08  .....o.......t..
0070: 01 00 03 80 14 01 00 04  80 07 01 00 05 80 1B 03  ................
0080: 01 00 00 00 02 01 00 02  80 05 94 00 08 01 00 00  ................
0090: 80 01 99 00 08 01 00 03  80 14 01 00 04 80 07 01  ................
00A0: 00 06 80 1B 03 01 00 00  00 02 01 00 02 80 05 B9  ................
00B0: 00 08 01 00 00 80 01 BE  00 08 01 00 03 80 14 01  ................
00C0: 00 04 80 07 01 00 07 80  1B 03 01 00 00 00 02 01  ................
00D0: 00 02 80 05 DE 00 08 01  00 00 80 01 E3 00 08 01  ................
00E0: 00 03 80 14 01 00 04 80  07 01 00 08 80 1B        ..............  
```

## Opcodes

```
  0: 0x0053 [0xAC] EventEntity->StatusEvent = 0*
  1: 0x0057 [0xAB] EventEntity->Render.Flags0 |= 0x40000 // Set bit 18
  2: 0x0059 [0x00] END_REQSTACK()
```

## Data or dead code:

```
# Dead code (unreachable instructions):
     0x005A [0x03] ExtData[1]->WorkLocal[1] = ExtData[1]->WorkLocal[0]
     0x005F [0x02] IF !(ExtData[1]->WorkLocal[1] > 5*) GOTO 0x006F
     0x0067 [0x08] ExtData[1]->WorkLocal[1] -= 1*
     0x006C [0x01] GOTO 0x0074
     0x006F [0x08] ExtData[1]->WorkLocal[1] -= 2*
     0x0074 [0x14] ExtData[1]->WorkLocal[1] *= 10*
     0x0079 [0x07] ExtData[1]->WorkLocal[1] += 9*
     0x007E [0x1B] RETURN
     0x007F [0x03] ExtData[1]->WorkLocal[1] = ExtData[1]->WorkLocal[0]
     0x0084 [0x02] IF !(ExtData[1]->WorkLocal[1] > 5*) GOTO 0x0094
     0x008C [0x08] ExtData[1]->WorkLocal[1] -= 1*
     0x0091 [0x01] GOTO 0x0099
     0x0094 [0x08] ExtData[1]->WorkLocal[1] -= 2*
     0x0099 [0x14] ExtData[1]->WorkLocal[1] *= 10*
     0x009E [0x07] ExtData[1]->WorkLocal[1] += 70*
     0x00A3 [0x1B] RETURN
     0x00A4 [0x03] ExtData[1]->WorkLocal[1] = ExtData[1]->WorkLocal[0]
     0x00A9 [0x02] IF !(ExtData[1]->WorkLocal[1] > 5*) GOTO 0x00B9
     0x00B1 [0x08] ExtData[1]->WorkLocal[1] -= 1*
     0x00B6 [0x01] GOTO 0x00BE
     0x00B9 [0x08] ExtData[1]->WorkLocal[1] -= 2*
     0x00BE [0x14] ExtData[1]->WorkLocal[1] *= 10*
     0x00C3 [0x07] ExtData[1]->WorkLocal[1] += 140*
     0x00C8 [0x1B] RETURN
     0x00C9 [0x03] ExtData[1]->WorkLocal[1] = ExtData[1]->WorkLocal[0]
     0x00CE [0x02] IF !(ExtData[1]->WorkLocal[1] > 5*) GOTO 0x00DE
     0x00D6 [0x08] ExtData[1]->WorkLocal[1] -= 1*
     0x00DB [0x01] GOTO 0x00E3
     0x00DE [0x08] ExtData[1]->WorkLocal[1] -= 2*
     0x00E3 [0x14] ExtData[1]->WorkLocal[1] *= 10*
     0x00E8 [0x07] ExtData[1]->WorkLocal[1] += 210*
     0x00ED [0x1B] RETURN
```