# Event 65535

## Metadata

| Field           | Value     |
|-----------------|-----------|
| Event Index     | 6/59      |
| Offset          | 0x0053    |
| Data Size       | 155 bytes |
| Calculated Size | 155 bytes |
| Instructions    | 4         |

```
      00 01 02 03 04 05 06 07  08 09 0A 0B 0C 0D 0E 0F
      -- -- -- -- -- -- -- --  -- -- -- -- -- -- -- --
0050:          AC 01 01 80 AB  04 00 03 01 00 00 00 02     .............
0060: 01 00 02 80 05 6F 00 08  01 00 00 80 01 74 00 08  .....o.......t..
0070: 01 00 03 80 14 01 00 04  80 07 01 00 05 80 1B 03  ................
0080: 01 00 00 00 02 01 00 02  80 05 94 00 08 01 00 00  ................
0090: 80 01 99 00 08 01 00 03  80 14 01 00 04 80 07 01  ................
00A0: 00 06 80 1B 03 01 00 00  00 02 01 00 02 80 05 B9  ................
00B0: 00 08 01 00 00 80 01 BE  00 08 01 00 03 80 14 01  ................
00C0: 00 04 80 07 01 00 07 80  1B 03 01 00 00 00 02 01  ................
00D0: 00 02 80 05 DE 00 08 01  00 00 80 01 E3 00 08 01  ................
00E0: 00 03 80 14 01 00 04 80  07 01 00 08 80 1B        ..............  
```

## Opcodes

```
  0: 0x0053 [0xAC] EventEntity->StatusEvent = 0*
  1: 0x0057 [0xAB] EventEntity->Render.Flags0 |= 0x40000 // Set bit 18
  2: 0x0059 [0x00] END_REQSTACK()
```

## Data or dead code:

```
# Data Section: 0x005A (148 bytes)
     0x005A: 03 01 00 00 00 02 01 00 02 80 05 6F 00 08 01 00
     0x006A: 00 80 01 74 00 08 01 00 03 80 14 01 00 04 80 07
     0x007A: 01 00 05 80 1B 03 01 00 00 00 02 01 00 02 80 05
     0x008A: 94 00 08 01 00 00 80 01 99 00 08 01 00 03 80 14
     0x009A: 01 00 04 80 07 01 00 06 80 1B 03 01 00 00 00 02
     0x00AA: 01 00 02 80 05 B9 00 08 01 00 00 80 01 BE 00 08
     0x00BA: 01 00 03 80 14 01 00 04 80 07 01 00 07 80 1B 03
     0x00CA: 01 00 00 00 02 01 00 02 80 05 DE 00 08 01 00 00
     0x00DA: 80 01 E3 00 08 01 00 03 80 14 01 00 04 80 07 01
     0x00EA: 00 08 80 1B
```