# Event 32

## Metadata

| Field           | Value    |
|-----------------|----------|
| Event Index     | 13/15    |
| Offset          | 0x0DF0   |
| Data Size       | 39 bytes |
| Calculated Size | 39 bytes |
| Instructions    | 9        |

```
      00 01 02 03 04 05 06 07  08 09 0A 0B 0C 0D 0E 0F
      -- -- -- -- -- -- -- --  -- -- -- -- -- -- -- --
0DF0: 42 1E F0 FF FF 7F 5B 07  80 5E 50 03 01 5E 50 03  B.....[..^P..^P.
0E00: 01 68 61 70 30 2B 5E 50  03 01 46 80 23 2B 5E 50  .hap0+^P..F.#+^P
0E10: 03 01 47 80 23 21 00                              ..G.#!.         
```

## Opcodes

```
  0: 0x0DF0 [0x42] SET_CLI_EVENT_CANCEL_DATA()
  1: 0x0DF1 [0x1E] EventEntity looks at LocalPlayer and starts talking
  2: 0x0DF6 [0x5B] LOAD_EXT_SCHEDULER(work_offset=843*, entity1=Paparoon (ID: 16994398/0x0103505E), entity2=Paparoon (ID: 16994398/0x0103505E), action="hap0")
  3: 0x0E05 [0x2B] Paparoon (ID: 16994398/0x0103505E) [11787*]:
    → "Oooh! Yooo really something, Paparoon thinks.\u0007Where yooo find this eyepatch!? This is Balrahn's eyepatch, yes!?\u007F1\u0000\u0007"
  4: 0x0E0C [0x23] WAIT_FOR_DIALOG_INTERACTION
  5: 0x0E0D [0x2B] Paparoon (ID: 16994398/0x0103505E) [11788*]:
    → "Yooo sooo nice to trouble yoooself with finding it.\u0007Paparoon verrry grateful to you. Thank yooo, thank yooo!\u007F1\u0000\u0007"
  6: 0x0E14 [0x23] WAIT_FOR_DIALOG_INTERACTION
  7: 0x0E15 [0x21] END_EVENT
  8: 0x0E16 [0x00] END_REQSTACK()
```
