# Event 110

## Metadata

| Field           | Value    |
|-----------------|----------|
| Event Index     | 3/3      |
| Offset          | 0x002F   |
| Data Size       | 46 bytes |
| Calculated Size | 46 bytes |
| Instructions    | 12       |

```
      00 01 02 03 04 05 06 07  08 09 0A 0B 0C 0D 0E 0F
      -- -- -- -- -- -- -- --  -- -- -- -- -- -- -- --
0020:                                               1E                 .
0030: F0 FF FF 7F 1C 00 80 6E  F8 FF FF 7F 01 80 99 F8  .......n........
0040: FF FF 7F 2B F8 FF FF 7F  05 80 23 2B F8 FF FF 7F  ...+......#+....
0050: 06 80 23 2B F8 FF FF 7F  07 80 23 21 00           ..#+......#!.   
```

## Opcodes

```
  0: 0x002F [0x1E] EventEntity looks at LocalPlayer and starts talking
  1: 0x0034 [0x1C] WAIT(30* ticks)
  2: 0x0037 [0x6E] EventEntity uses emote 21*
  3: 0x003E [0x99] Wait for EventEntity animation to complete
  4: 0x0043 [0x2B] EventEntity [8184*]:
    → "The San d'Orian Royal Knights have pried the fort from the claws of the Yagudo! Tales of their bravery will be told for a hundred years to come!\u007F1\u0000\u0007"
  5: 0x004A [0x23] WAIT_FOR_DIALOG_INTERACTION
  6: 0x004B [0x2B] EventEntity [8185*]:
    → "I always thought of the Elvaan as a selfish, haughty people. I guess I was wrong...\u007F1\u0000\u0007"
  7: 0x0052 [0x23] WAIT_FOR_DIALOG_INTERACTION
  8: 0x0053 [0x2B] EventEntity [8186*]:
    → "This battle will be the turning point for the Allied Forces of Altana. You mark my words!\u007F1\u0000\u0007"
  9: 0x005A [0x23] WAIT_FOR_DIALOG_INTERACTION
 10: 0x005B [0x21] END_EVENT
 11: 0x005C [0x00] END_REQSTACK()
```
