# Event 65535

## Metadata

| Field           | Value    |
|-----------------|----------|
| Event Index     | 24/124   |
| Offset          | 0x00C7   |
| Data Size       | 72 bytes |
| Calculated Size | 72 bytes |
| Instructions    | 6        |

```
      00 01 02 03 04 05 06 07  08 09 0A 0B 0C 0D 0E 0F
      -- -- -- -- -- -- -- --  -- -- -- -- -- -- -- --
00C0:                      5B  16 80 09 02 05 01 09 02         [........
00D0: 05 01 6C 61 75 30 53 09  02 05 01 09 02 05 01 6C  ..lau0S........l
00E0: 61 75 30 5B 17 80 09 02  05 01 09 02 05 01 74 6C  au0[..........tl
00F0: 62 30 53 09 02 05 01 09  02 05 01 74 6C 62 30 5B  b0S........tlb0[
0100: 17 80 09 02 05 01 09 02  05 01 74 6C 62 31 00     ..........tlb1. 
```

## Opcodes

```
  0: 0x00C7 [0x5B] LOAD_EXT_SCHEDULER(work_offset=2349*, entity1=Rahal (ID: 17105417/0x01050209), entity2=Rahal (ID: 17105417/0x01050209), action="lau0")
  1: 0x00D6 [0x53] WAIT_SCHEDULER_TASK(entity1=Rahal (ID: 17105417/0x01050209), entity2=Rahal (ID: 17105417/0x01050209), action_id="lau0")
  2: 0x00E3 [0x5B] LOAD_EXT_SCHEDULER(work_offset=1272*, entity1=Rahal (ID: 17105417/0x01050209), entity2=Rahal (ID: 17105417/0x01050209), action="tlb0")
  3: 0x00F2 [0x53] WAIT_SCHEDULER_TASK(entity1=Rahal (ID: 17105417/0x01050209), entity2=Rahal (ID: 17105417/0x01050209), action_id="tlb0")
  4: 0x00FF [0x5B] LOAD_EXT_SCHEDULER(work_offset=1272*, entity1=Rahal (ID: 17105417/0x01050209), entity2=Rahal (ID: 17105417/0x01050209), action="tlb1")
  5: 0x010E [0x00] END_REQSTACK()
```
