# Event 65535

## Metadata

| Field           | Value    |
|-----------------|----------|
| Event Index     | 4/5      |
| Offset          | 0x00CD   |
| Data Size       | 51 bytes |
| Calculated Size | 51 bytes |
| Instructions    | 12       |

```
      00 01 02 03 04 05 06 07  08 09 0A 0B 0C 0D 0E 0F
      -- -- -- -- -- -- -- --  -- -- -- -- -- -- -- --
00C0:                                         24 09 80               $..
00D0: 01 80 01 80 25 02 00 10  01 80 00 E5 00 03 01 10  ....%...........
00E0: 0A 80 01 FC 00 02 00 10  02 80 00 FC 00 29 09 F0  .............)..
00F0: FF FF 7F 0B 03 01 10 0B  80 01 FC 00 20 00 21 00  ............ .!.
```

## Opcodes

```
  0: 0x00CD [0x24] CREATE_DIALOG(message_id=7437*, default_option=0*, option_flags=0*)
    → "\u0001@\u0002G\u0002L\u0003N\u0003G\u0003X\u0003g\u0003U\u0001[\u0003}\u0003X\u0001H\u0007\u000Bme001:\u000CC\u00156\u000F\u0011\u0002L	p\u0013G\u0007hi001:\u00162\u0002L\u0002 \u0002F\u007F1\u0000\u0007"
  1: 0x00D4 [0x25] WAIT_DIALOG_SELECT()
  2: 0x00D5 [0x02] IF !(Work_Zone[0] == 0*) GOTO 0x00E5
  3: 0x00DD [0x03] Work_Zone[1] = 11*
  4: 0x00E2 [0x01] GOTO 0x00FC

SUBROUTINE_00E5:
  5: 0x00E5 [0x02] IF !(Work_Zone[0] == 1*) GOTO 0x00FC
  6: 0x00ED [0x29] REQ_SET_WAIT(priority=0x09, entity_id=LocalPlayer, tag_num=0x0B)
  7: 0x00F4 [0x03] Work_Zone[1] = 12*
  8: 0x00F9 [0x01] GOTO 0x00FC

SUBROUTINE_00FC:
  9: 0x00FC [0x20] SET_CLI_EVENT_UC_FLAG: Unlock player control
 10: 0x00FE [0x21] END_EVENT
 11: 0x00FF [0x00] END_REQSTACK()
```
