# Event 136

## Metadata

| Field           | Value    |
|-----------------|----------|
| Event Index     | 13/24    |
| Offset          | 0x0124   |
| Data Size       | 56 bytes |
| Calculated Size | 56 bytes |
| Instructions    | 12       |

```
      00 01 02 03 04 05 06 07  08 09 0A 0B 0C 0D 0E 0F
      -- -- -- -- -- -- -- --  -- -- -- -- -- -- -- --
0120:             4A F0 FF FF  7F F8 FF FF 7F 1E F0 FF      J...........
0130: FF 7F 6F 70 66 04 80 F8  FF FF 7F F8 FF FF 7F 74  ..opf..........t
0140: 6C 6B 30 1D 0C 80 23 66  04 80 F8 FF FF 7F F8 FF  lk0...#f........
0150: FF 7F 74 68 6B 31 1D 0D  80 23 21 00              ..thk1...#!.    
```

## Opcodes

```
  0: 0x0124 [0x4A] LocalPlayer looks at EventEntity
  1: 0x012D [0x1E] EventEntity looks at LocalPlayer and starts talking
  2: 0x0132 [0x6F] WAIT_FRAME_DELAY: Yield until WaitTime reaches zero
  3: 0x0133 [0x70] WAIT_ENTITY_RENDER_FLAG: Wait while EventEntity->Render.Flags3 bit 2 is set (cancel turn if not)
  4: 0x0134 [0x66] LOAD_EXT_SCHEDULER_MAIN(work_offset=20*, entity1=EventEntity, entity2=EventEntity, action="tlk0")
  5: 0x0143 [0x1D] PRINT_EVENT_MESSAGE(message_id=10140*)
    → "Excellent work. How fares the archduke?\u007F1\u0000\u0007"
  6: 0x0146 [0x23] WAIT_FOR_DIALOG_INTERACTION
  7: 0x0147 [0x66] LOAD_EXT_SCHEDULER_MAIN(work_offset=20*, entity1=EventEntity, entity2=EventEntity, action="thk1")
  8: 0x0156 [0x1D] PRINT_EVENT_MESSAGE(message_id=10141*)
    → "He wants you to gather the magicite? I know nothing about objects of lore, but perhaps you should try learning more about Davoi, Beadeaux, and Castle Oztroja.\u007F1\u0000\u0007"
  9: 0x0159 [0x23] WAIT_FOR_DIALOG_INTERACTION
 10: 0x015A [0x21] END_EVENT
 11: 0x015B [0x00] END_REQSTACK()
```
