# Event 67

## Metadata

| Field           | Value    |
|-----------------|----------|
| Event Index     | 6/24     |
| Offset          | 0x0041   |
| Data Size       | 41 bytes |
| Calculated Size | 41 bytes |
| Instructions    | 11       |

```
      00 01 02 03 04 05 06 07  08 09 0A 0B 0C 0D 0E 0F
      -- -- -- -- -- -- -- --  -- -- -- -- -- -- -- --
0040:    4A F0 FF FF 7F F8 FF  FF 7F 1E F0 FF FF 7F 6F   J.............o
0050: 70 66 04 80 F8 FF FF 7F  F8 FF FF 7F 74 6C 6B 30  pf..........tlk0
0060: 1D 05 80 23 1D 06 80 23  21 00                    ...#...#!.      
```

## Opcodes

```
  0: 0x0041 [0x4A] LocalPlayer looks at EventEntity
  1: 0x004A [0x1E] EventEntity looks at LocalPlayer and starts talking
  2: 0x004F [0x6F] WAIT_FRAME_DELAY: Yield until WaitTime reaches zero
  3: 0x0050 [0x70] WAIT_ENTITY_RENDER_FLAG: Wait while EventEntity->Render.Flags3 bit 2 is set (cancel turn if not)
  4: 0x0051 [0x66] LOAD_EXT_SCHEDULER_MAIN: Load scheduler "tlk0" with entities [EventEntity, EventEntity], work=20*
  5: 0x0060 [0x1D] PRINT_EVENT_MESSAGE(message_id=10048*)
    → "Delkfutt's Tower is on the island of Qufim. Avail yourself of the merchants in town, and assemble a party of fellow adventurers.\u007F1\u0000\u0007"
  6: 0x0063 [0x23] WAIT_FOR_DIALOG_INTERACTION
  7: 0x0064 [0x1D] PRINT_EVENT_MESSAGE(message_id=10049*)
    → "Foul beasts lurk around every corner. Be on your guard.\u007F1\u0000\u0007"
  8: 0x0067 [0x23] WAIT_FOR_DIALOG_INTERACTION
  9: 0x0068 [0x21] END_EVENT
 10: 0x0069 [0x00] END_REQSTACK()
```
