# 16892144 - Switch

## Common Data

| Field            | Value              |
|------------------|--------------------|
| Zone             | Sacrarium (ID: 28) |
| Block Size       | 60 bytes           |
| Total Events     | 2                  |
| References Count | 2                  |

## List of Events

| Event ID              | Entrypoint   |   Size |   Instructions |
|-----------------------|--------------|--------|----------------|
| [65535](#event-65535) | 0x0000       |      1 |              1 |
| [102](#event-102)     | 0x0001       |     24 |              6 |

## DAT References (imed_data)

|   Index | Hex Value   |   Dec Value |
|---------|-------------|-------------|
|       0 | 0x00A0      |         160 |
|       1 | 0x0000      |           0 |

## Events

### Event 65535

#### Metadata

| Field        | Value   |
|--------------|---------|
| Entrypoint   | 0x0000  |
| Data Size    | 1 bytes |
| Instructions | 1       |

```
      00 01 02 03 04 05 06 07  08 09 0A 0B 0C 0D 0E 0F
      -- -- -- -- -- -- -- --  -- -- -- -- -- -- -- --
0000: 00                                                .               
```

#### Opcodes

```
  0: 0x0000 [0x00] END_REQSTACK()
```

### Event 102

#### Metadata

| Field        | Value    |
|--------------|----------|
| Entrypoint   | 0x0001   |
| Data Size    | 24 bytes |
| Instructions | 6        |

```
      00 01 02 03 04 05 06 07  08 09 0A 0B 0C 0D 0E 0F
      -- -- -- -- -- -- -- --  -- -- -- -- -- -- -- --
0000:    20 01 42 45 00 80 F8  FF FF 7F F8 FF FF 7F 32    .BE..........2
0010: 37 73 77 01 80 20 00 21  00                       7sw.. .!.       
```

#### Opcodes

```
  0: 0x0001 [0x20] SET_CLI_EVENT_UC_FLAG: Lock player control
  1: 0x0003 [0x42] SET_CLI_EVENT_CANCEL_DATA()
  2: 0x0004 [0x45] LOAD_SCHEDULED_TASK: Load scheduler "27sw" with entities [EventEntity, EventEntity], work=[160*, 0*]
  3: 0x0015 [0x20] SET_CLI_EVENT_UC_FLAG: Unlock player control
  4: 0x0017 [0x21] END_EVENT
  5: 0x0018 [0x00] END_REQSTACK()
```
