# 16892148

## Common Data

| Field            | Value              |
|------------------|--------------------|
| Zone             | Sacrarium (ID: 28) |
| Block Size       | 8552 bytes         |
| Total Events     | 7                  |
| References Count | 164                |

## List of Events

| Event ID                 | Entrypoint   |   Size |   Instructions |
|--------------------------|--------------|--------|----------------|
| [65535](#event-65535)    | 0x0000       |      1 |              1 |
| [65535.1](#event-655351) | 0x0001       |     10 |              2 |
| [65535.2](#event-655352) | 0x000B       |     10 |              2 |
| [65535.3](#event-655353) | 0x0015       |     10 |              2 |
| [65535.4](#event-655354) | 0x001F       |     10 |              2 |
| [6](#event-6)            | 0x0029       |   1303 |            178 |
| [5](#event-5)            | 0x0540       |   6508 |            785 |

## DAT References (imed_data)

|   Index | Hex Value   |   Dec Value |
|---------|-------------|-------------|
|       0 | 0x89FD      |       35325 |
|       1 | 0x2866      |       10342 |
|       2 | 0x0000      |           0 |
|       3 | 0x0BD0      |        3024 |
|       4 | 0x3EF2      |       16114 |
|       5 | 0xFFFFE660  |  4294960736 |
|       6 | 0xFFFFF42B  |  4294964267 |
|       7 | 0x0854      |        2132 |
|       8 | 0x40B6      |       16566 |
|       9 | 0x13C3      |        5059 |
|      10 | 0xFFFFF821  |  4294965281 |
|      11 | 0x072A      |        1834 |
|      12 | 0x2B48      |       11080 |
|      13 | 0x0140      |         320 |
|      14 | 0x03E8      |        1000 |
|      15 | 0x07BD      |        1981 |
|      16 | 0x00C8      |         200 |
|      17 | 0x003C      |          60 |
|      18 | 0x0013      |          19 |
|      19 | 0x00E7      |         231 |
|      20 | 0x0064      |         100 |
|      21 | 0x0078      |         120 |
|      22 | 0x1C5E      |        7262 |
|      23 | 0x1C5F      |        7263 |
|      24 | 0x1C60      |        7264 |
|      25 | 0x1C61      |        7265 |
|      26 | 0x1C62      |        7266 |
|      27 | 0x000A      |          10 |
|      28 | 0x0005      |           5 |
|      29 | 0x0006      |           6 |
|      30 | 0x0E9D      |        3741 |
|      31 | 0x0028      |          40 |
|      32 | 0x1C63      |        7267 |
|      33 | 0x1C64      |        7268 |
|      34 | 0x1C65      |        7269 |
|      35 | 0x1C66      |        7270 |
|      36 | 0x1C67      |        7271 |
|      37 | 0x0CBF      |        3263 |
|      38 | 0x1C68      |        7272 |
|      39 | 0x1C69      |        7273 |
|      40 | 0x1C6A      |        7274 |
|      41 | 0x0008      |           8 |
|      42 | 0x04DA      |        1242 |
|      43 | 0x1C6B      |        7275 |
|      44 | 0x1C6C      |        7276 |
|      45 | 0x0053      |          83 |
|      46 | 0x00BE      |         190 |
|      47 | 0x1C71      |        7281 |
|      48 | 0x0050      |          80 |
|      49 | 0x0014      |          20 |
|      50 | 0x00E0      |         224 |
|      51 | 0x1C72      |        7282 |
|      52 | 0x1C73      |        7283 |
|      53 | 0x1C74      |        7284 |
|      54 | 0x1C75      |        7285 |
|      55 | 0x1C76      |        7286 |
|      56 | 0x1C77      |        7287 |
|      57 | 0x001E      |          30 |
|      58 | 0x1C78      |        7288 |
|      59 | 0x1C79      |        7289 |
|      60 | 0x1C7A      |        7290 |
|      61 | 0x1C7B      |        7291 |
|      62 | 0x1C7C      |        7292 |
|      63 | 0x1C7D      |        7293 |
|      64 | 0x1C7F      |        7295 |
|      65 | 0x1C80      |        7296 |
|      66 | 0x1C81      |        7297 |
|      67 | 0x0400      |        1024 |
|      68 | 0x0C00      |        3072 |
|      69 | 0x1C82      |        7298 |
|      70 | 0x1C83      |        7299 |
|      71 | 0x1C84      |        7300 |
|      72 | 0x00B4      |         180 |
|      73 | 0x1C85      |        7301 |
|      74 | 0x1C86      |        7302 |
|      75 | 0x1C87      |        7303 |
|      76 | 0x005A      |          90 |
|      77 | 0x00C9      |         201 |
|      78 | 0x1C88      |        7304 |
|      79 | 0x000C      |          12 |
|      80 | 0x0001      |           1 |
|      81 | 0x00F4      |         244 |
|      82 | 0x003D      |          61 |
|      83 | 0x0169      |         361 |
|      84 | 0x0075      |         117 |
|      85 | 0x012C      |         300 |
|      86 | 0x1C89      |        7305 |
|      87 | 0x1C8A      |        7306 |
|      88 | 0x1C8B      |        7307 |
|      89 | 0x1C8C      |        7308 |
|      90 | 0x1C8D      |        7309 |
|      91 | 0x1C8E      |        7310 |
|      92 | 0x1C8F      |        7311 |
|      93 | 0x1C90      |        7312 |
|      94 | 0x0046      |          70 |
|      95 | 0x1C91      |        7313 |
|      96 | 0x1C92      |        7314 |
|      97 | 0x1C93      |        7315 |
|      98 | 0x0222      |         546 |
|      99 | 0x0054      |          84 |
|     100 | 0x0032      |          50 |
|     101 | 0x0096      |         150 |
|     102 | 0x1C94      |        7316 |
|     103 | 0x1C95      |        7317 |
|     104 | 0x1C96      |        7318 |
|     105 | 0x1C97      |        7319 |
|     106 | 0x1C98      |        7320 |
|     107 | 0x1C99      |        7321 |
|     108 | 0x1C9A      |        7322 |
|     109 | 0x1C9B      |        7323 |
|     110 | 0x1C9C      |        7324 |
|     111 | 0x1C9D      |        7325 |
|     112 | 0x1C9E      |        7326 |
|     113 | 0x1C9F      |        7327 |
|     114 | 0x1CA0      |        7328 |
|     115 | 0x021F      |         543 |
|     116 | 0xFFFFE37C  |  4294959996 |
|     117 | 0xFFFFCCB8  |  4294954168 |
|     118 | 0x1CA1      |        7329 |
|     119 | 0x0D8A      |        3466 |
|     120 | 0xFFFFE75D  |  4294960989 |
|     121 | 0xFFFFCD38  |  4294954296 |
|     122 | 0x0450      |        1104 |
|     123 | 0x1CA2      |        7330 |
|     124 | 0x1CA3      |        7331 |
|     125 | 0x0208      |         520 |
|     126 | 0x0B0D      |        2829 |
|     127 | 0xFFFFF2D2  |  4294963922 |
|     128 | 0x0FCA      |        4042 |
|     129 | 0x1CA4      |        7332 |
|     130 | 0x1CA5      |        7333 |
|     131 | 0xFFFFFFF9  |  4294967289 |
|     132 | 0xFFFFE245  |  4294959685 |
|     133 | 0x0346      |         838 |
|     134 | 0x1CA6      |        7334 |
|     135 | 0x1CA7      |        7335 |
|     136 | 0x1CA8      |        7336 |
|     137 | 0x1CA9      |        7337 |
|     138 | 0x1CAA      |        7338 |
|     139 | 0x1CAB      |        7339 |
|     140 | 0x1CAC      |        7340 |
|     141 | 0x001C      |          28 |
|     142 | 0x0093      |         147 |
|     143 | 0x1CAD      |        7341 |
|     144 | 0x1CAE      |        7342 |
|     145 | 0x1CAF      |        7343 |
|     146 | 0x1CB0      |        7344 |
|     147 | 0x1CB1      |        7345 |
|     148 | 0x1CB2      |        7346 |
|     149 | 0x1CB3      |        7347 |
|     150 | 0x1CB4      |        7348 |
|     151 | 0x1CB5      |        7349 |
|     152 | 0x1CB6      |        7350 |
|     153 | 0x1CB7      |        7351 |
|     154 | 0x1CB8      |        7352 |
|     155 | 0x1CB9      |        7353 |
|     156 | 0x082F      |        2095 |
|     157 | 0x1CBA      |        7354 |
|     158 | 0x1CBB      |        7355 |
|     159 | 0x1CBC      |        7356 |
|     160 | 0x1CBD      |        7357 |
|     161 | 0x1CBE      |        7358 |
|     162 | 0x1CBF      |        7359 |
|     163 | 0x1CC0      |        7360 |

## String References

- **7305**: So this is the Tavnazian child known as the abhorrent one.
- **7306**: It seems she caused a terrible accident during the baptismal ceremony.
- **7307**: Many of the clergy lost their lives during the incident, and those who survived told of terrifying dreams of the cursed deity...
- **7308**: What truly proves this child's damnation is her ever youthful form. That, and the rumors of her ability to read people's minds...
- **7309**: Why does this new cardinal allow the child to walk freely after the cathedral had taken steps to ensure her eternal confinement? And why bring her here to San d'Oria...?
- **7314**: Prishe, you are a child of destiny.
- **7315**: However, your part in this is over. There is nothing left within you...
- **7320**: Battle? What battle is this?

## Events

### Event 65535

#### Metadata

| Field        | Value   |
|--------------|---------|
| Entrypoint   | 0x0000  |
| Data Size    | 1 bytes |
| Instructions | 1       |

```
      00 01 02 03 04 05 06 07  08 09 0A 0B 0C 0D 0E 0F
      -- -- -- -- -- -- -- --  -- -- -- -- -- -- -- --
0000: 00                                                .               
```

#### Opcodes

```
  0: 0x0000 [0x00] END_REQSTACK()
```

### Event 65535.1

#### Metadata

| Field        | Value    |
|--------------|----------|
| Entrypoint   | 0x0001   |
| Data Size    | 10 bytes |
| Instructions | 2        |

```
      00 01 02 03 04 05 06 07  08 09 0A 0B 0C 0D 0E 0F
      -- -- -- -- -- -- -- --  -- -- -- -- -- -- -- --
0000:    37 00 80 01 80 02 80  03 80 00                  7.........     
```

#### Opcodes

```
  0: 0x0001 [0x37] UPDATE_EVENT_POSITION_AND_DIR: x=35.325*, z=10.342*, y=0.000*, direction=265.8°*
  1: 0x000A [0x00] END_REQSTACK()
```

### Event 65535.2

#### Metadata

| Field        | Value    |
|--------------|----------|
| Entrypoint   | 0x000B   |
| Data Size    | 10 bytes |
| Instructions | 2        |

```
      00 01 02 03 04 05 06 07  08 09 0A 0B 0C 0D 0E 0F
      -- -- -- -- -- -- -- --  -- -- -- -- -- -- -- --
0000:                                   37 04 80 05 80             7....
0010: 06 80 07 80 00                                    .....           
```

#### Opcodes

```
  0: 0x000B [0x37] UPDATE_EVENT_POSITION_AND_DIR: x=16.114*, z=-6.560*, y=-3.029*, direction=187.4°*
  1: 0x0014 [0x00] END_REQSTACK()
```

### Event 65535.3

#### Metadata

| Field        | Value    |
|--------------|----------|
| Entrypoint   | 0x0015   |
| Data Size    | 10 bytes |
| Instructions | 2        |

```
      00 01 02 03 04 05 06 07  08 09 0A 0B 0C 0D 0E 0F
      -- -- -- -- -- -- -- --  -- -- -- -- -- -- -- --
0010:                37 08 80  09 80 0A 80 0B 80 00          7......... 
```

#### Opcodes

```
  0: 0x0015 [0x37] UPDATE_EVENT_POSITION_AND_DIR: x=16.566*, z=5.059*, y=-2.015*, direction=161.2°*
  1: 0x001E [0x00] END_REQSTACK()
```

### Event 65535.4

#### Metadata

| Field        | Value    |
|--------------|----------|
| Entrypoint   | 0x001F   |
| Data Size    | 10 bytes |
| Instructions | 2        |

```
      00 01 02 03 04 05 06 07  08 09 0A 0B 0C 0D 0E 0F
      -- -- -- -- -- -- -- --  -- -- -- -- -- -- -- --
0010:                                               37                 7
0020: 0C 80 0D 80 0E 80 0F 80  00                       .........       
```

#### Opcodes

```
  0: 0x001F [0x37] UPDATE_EVENT_POSITION_AND_DIR: x=11.080*, z=0.320*, y=1.000*, direction=174.1°*
  1: 0x0028 [0x00] END_REQSTACK()
```

### Event 6

#### Metadata

| Field        | Value      |
|--------------|------------|
| Entrypoint   | 0x0029     |
| Data Size    | 1303 bytes |
| Instructions | 178        |

```
      00 01 02 03 04 05 06 07  08 09 0A 0B 0C 0D 0E 0F
      -- -- -- -- -- -- -- --  -- -- -- -- -- -- -- --
0020:                             20 01 42 46 01 45 10            .BF.E.
0030: 80 F8 FF FF 7F F8 FF FF  7F 66 64 6F 31 02 80 1C  .........fdo1...
0040: 11 80 38 12 80 29 08 F0  FF FF 7F 04 94 01 F0 FF  ..8..)..........
0050: FF 7F 5C 00 13 80 5C 01  13 80 1C 14 80 4E 00 F2  ..\...\......N..
0060: C0 01 01 4E 00 F3 C0 01  01 80 F2 C0 01 01 80 F3  ...N............
0070: C0 01 01 29 0B F2 C0 01  01 99 29 0B F3 C0 01 01  ...)......).....
0080: 3F 29 0B F0 FF FF 7F 0D  4E 01 F0 FF FF 7F 29 08  ?)......N.....).
0090: F2 C0 01 01 3D 29 08 F2  C0 01 01 3E 45 15 80 F8  ....=).....>E...
00A0: FF FF 7F F8 FF FF 7F 73  65 37 39 02 80 1C 10 80  .......se79.....
00B0: 29 08 F3 C0 01 01 01 45  15 80 F8 FF FF 7F F8 FF  )......E........
00C0: FF 7F 73 30 37 39 02 80  45 10 80 F8 FF FF 7F F8  ..s079..E.......
00D0: FF FF 7F 66 64 69 31 02  80 2B F2 C0 01 01 16 80  ...fdi1..+......
00E0: 23 29 08 F3 C0 01 01 02  29 08 F3 C0 01 01 03 2B  #)......)......+
00F0: F3 C0 01 01 17 80 23 29  08 F3 C0 01 01 04 52 15  ......#)......R.
0100: 80 F8 FF FF 7F F8 FF FF  7F 73 30 37 39 45 15 80  .........s079E..
0110: F8 FF FF 7F F8 FF FF 7F  73 30 38 30 02 80 79 00  ........s080..y.
0120: F3 C0 01 01 F2 C0 01 01  79 00 F2 C0 01 01 F3 C0  ........y.......
0130: 01 01 27 0B F3 C0 01 01  40 2B F3 C0 01 01 18 80  ..'.....@+......
0140: 23 2A 0B F3 C0 01 01 29  08 F2 C0 01 01 3F 2B F2  #*.....).....?+.
0150: C0 01 01 19 80 23 7C 00  F3 C0 01 01 2B F3 C0 01  .....#|.....+...
0160: 01 1A 80 23 7C 01 F3 C0  01 01 79 00 F0 FF FF 7F  ...#|.....y.....
0170: F2 C0 01 01 27 0B F0 FF  FF 7F 0E 1C 1B 80 52 15  ....'.........R.
0180: 80 F8 FF FF 7F F8 FF FF  7F 73 30 38 30 02 09 10  .........s080...
0190: 1C 80 00 A9 01 45 15 80  F8 FF FF 7F F8 FF FF 7F  .....E..........
01A0: 73 30 38 33 02 80 01 D6  01 02 09 10 1D 80 00 C5  s083............
01B0: 01 45 15 80 F8 FF FF 7F  F8 FF FF 7F 73 30 38 33  .E..........s083
01C0: 02 80 01 D6 01 45 15 80  F8 FF FF 7F F8 FF FF 7F  .....E..........
01D0: 73 30 38 31 02 80 4E 00  F0 FF FF 7F 80 F0 FF FF  s081..N.........
01E0: 7F 79 00 F3 C0 01 01 F0  FF FF 7F 29 08 F2 C0 01  .y.........)....
01F0: 01 40 4B F2 C0 01 01 1E  80 6F 76 F2 C0 01 01 79  .@K......ov....y
0200: 00 F2 C0 01 01 F0 FF FF  7F 1C 1F 80 27 0B F2 C0  ............'...
0210: 01 01 9A 2A 0B F2 C0 01  01 2B F2 C0 01 01 20 80  ...*.....+.... .
0220: 23 2A 0B F0 FF FF 7F 02  09 10 1C 80 00 41 02 52  #*...........A.R
0230: 15 80 F8 FF FF 7F F8 FF  FF 7F 73 30 38 33 01 6A  ..........s083.j
0240: 02 02 09 10 1D 80 00 5B  02 52 15 80 F8 FF FF 7F  .......[.R......
0250: F8 FF FF 7F 73 30 38 33  01 6A 02 52 15 80 F8 FF  ....s083.j.R....
0260: FF 7F F8 FF FF 7F 73 30  38 31 45 10 80 F0 FF FF  ......s081E.....
0270: 7F F0 FF FF 7F 6F 76 6C  31 02 80 45 15 80 F8 FF  .....ovl1..E....
0280: FF 7F F8 FF FF 7F 73 30  38 36 02 80 7B F2 C0 01  ......s086..{...
0290: 01 79 00 F3 C0 01 01 F2  C0 01 01 29 08 F2 C0 01  .y.........)....
02A0: 01 17 2B F2 C0 01 01 21  80 23 29 08 F2 C0 01 01  ..+....!.#).....
02B0: 18 79 00 F2 C0 01 01 F3  C0 01 01 29 08 F2 C0 01  .y.........)....
02C0: 01 19 27 0B F3 C0 01 01  42 2B F3 C0 01 01 22 80  ..'.....B+....".
02D0: 23 2A 0B F3 C0 01 01 29  08 F2 C0 01 01 1A 52 15  #*.....)......R.
02E0: 80 F8 FF FF 7F F8 FF FF  7F 73 30 38 36 45 15 80  .........s086E..
02F0: F8 FF FF 7F F8 FF FF 7F  73 30 38 32 02 80 4A F2  ........s082..J.
0300: C0 01 01 F3 C0 01 01 6F  76 F2 C0 01 01 27 0B F2  .......ov....'..
0310: C0 01 01 95 2B F2 C0 01  01 23 80 23 29 08 F3 C0  ....+....#.#)...
0320: 01 01 15 2B F3 C0 01 01  24 80 23 52 15 80 F8 FF  ...+....$.#R....
0330: FF 7F F8 FF FF 7F 73 30  38 32 45 15 80 F8 FF FF  ......s082E.....
0340: 7F F8 FF FF 7F 73 30 38  37 02 80 2A 0B F2 C0 01  .....s087..*....
0350: 01 27 0B F3 C0 01 01 41  79 00 F2 C0 01 01 F0 FF  .'.....Ay.......
0360: FF 7F 4B F2 C0 01 01 25  80 6F 76 F2 C0 01 01 2B  ..K....%.ov....+
0370: F2 C0 01 01 26 80 23 2A  0B F3 C0 01 01 52 15 80  ....&.#*.....R..
0380: F8 FF FF 7F F8 FF FF 7F  73 30 38 37 45 15 80 F8  ........s087E...
0390: FF FF 7F F8 FF FF 7F 73  30 38 34 02 80 27 0B F2  .......s084..'..
03A0: C0 01 01 9B 27 0B F0 FF  FF 7F 0F 2B F2 C0 01 01  ....'......+....
03B0: 27 80 23 1C 11 80 7B F3  C0 01 01 27 0B F3 C0 01  '.#...{....'....
03C0: 01 43 2B F3 C0 01 01 28  80 23 2A 0B F0 FF FF 7F  .C+....(.#*.....
03D0: 2A 0B F3 C0 01 01 2A 0B  F2 C0 01 01 4E 01 F2 C0  *.....*.....N...
03E0: 01 01 52 15 80 F8 FF FF  7F F8 FF FF 7F 73 30 38  ..R..........s08
03F0: 34 02 09 10 1C 80 00 0D  04 45 15 80 F8 FF FF 7F  4........E......
0400: F8 FF FF 7F 73 30 38 38  02 80 01 56 04 02 09 10  ....s088...V....
0410: 1D 80 00 29 04 45 15 80  F8 FF FF 7F F8 FF FF 7F  ...).E..........
0420: 73 30 38 38 02 80 01 56  04 02 09 10 29 80 00 45  s088...V....)..E
0430: 04 45 15 80 F8 FF FF 7F  F8 FF FF 7F 73 30 38 39  .E..........s089
0440: 02 80 01 56 04 45 15 80  F8 FF FF 7F F8 FF FF 7F  ...V.E..........
0450: 73 30 38 35 02 80 79 00  F0 FF FF 7F F3 C0 01 01  s085..y.........
0460: 79 00 F3 C0 01 01 F0 FF  FF 7F 4B F0 FF FF 7F 2A  y.........K....*
0470: 80 6F 76 F0 FF FF 7F 27  0B F3 C0 01 01 44 2B F3  .ov....'.....D+.
0480: C0 01 01 2B 80 23 2A 0B  F3 C0 01 01 29 08 F3 C0  ...+.#*.....)...
0490: 01 01 01 2B F3 C0 01 01  2C 80 23 29 08 F3 C0 01  ...+....,.#)....
04A0: 01 02 45 10 80 F0 FF FF  7F F0 FF FF 7F 66 64 6F  ..E..........fdo
04B0: 31 02 80 1C 11 80 02 09  10 1C 80 00 D0 04 52 15  1.............R.
04C0: 80 F8 FF FF 7F F8 FF FF  7F 73 30 38 38 01 13 05  .........s088...
04D0: 02 09 10 1D 80 00 EA 04  52 15 80 F8 FF FF 7F F8  ........R.......
04E0: FF FF 7F 73 30 38 38 01  13 05 02 09 10 29 80 00  ...s088......)..
04F0: 04 05 52 15 80 F8 FF FF  7F F8 FF FF 7F 73 30 38  ..R..........s08
0500: 39 01 13 05 52 15 80 F8  FF FF 7F F8 FF FF 7F 73  9...R..........s
0510: 30 38 35 4E 00 F0 FF FF  7F 80 F0 FF FF 7F 5C 00  085N..........\.
0520: 02 80 5C 01 02 80 1C 14  80 46 00 45 10 80 F0 FF  ..\......F.E....
0530: FF 7F F0 FF FF 7F 66 64  69 31 02 80 20 00 21 00  ......fdi1.. .!.
```

#### Opcodes

```
  0: 0x0029 [0x20] SET_CLI_EVENT_UC_FLAG: Lock player control
  1: 0x002B [0x42] SET_CLI_EVENT_CANCEL_DATA()
  2: 0x002C [0x46] CAMERA_CONTROL: Disable user control
  3: 0x002E [0x45] LOAD_SCHEDULED_TASK: Load scheduler "fdo1" with entities [EventEntity, EventEntity], work=[200*, 0*]
  4: 0x003F [0x1C] WAIT(60* ticks)
  5: 0x0042 [0x38] SET_CLIENT_EVENT_MODE(mode=19*)
  6: 0x0045 [0x29] REQ_SET_WAIT(priority=0x08, entity_id=LocalPlayer, tag_num=0x04)
  7: 0x004C [0x94] LocalPlayer->Render.Flags3 ^= 0x01
  8: 0x0052 [0x5C] MUSIC_CONTROL: Set Idle (Day) music to song 231*
  9: 0x0056 [0x5C] MUSIC_CONTROL: Set Idle (Night) music to song 231*
 10: 0x005A [0x1C] WAIT(100* ticks)
 11: 0x005D [0x4E] SET_ENTITY_HIDE_FLAG: Show Prishe (ID: 16892146/0x0101C0F2)
 12: 0x0063 [0x4E] SET_ENTITY_HIDE_FLAG: Show Tenzen (ID: 16892147/0x0101C0F3)
 13: 0x0069 [0x80] LOAD_WAIT(entity=Prishe (ID: 16892146/0x0101C0F2))
 14: 0x006E [0x80] LOAD_WAIT(entity=Tenzen (ID: 16892147/0x0101C0F3))
 15: 0x0073 [0x29] REQ_SET_WAIT(priority=0x0B, entity_id=Prishe (ID: 16892146/0x0101C0F2), tag_num=0x99)
 16: 0x007A [0x29] REQ_SET_WAIT(priority=0x0B, entity_id=Tenzen (ID: 16892147/0x0101C0F3), tag_num=0x3F)
 17: 0x0081 [0x29] REQ_SET_WAIT(priority=0x0B, entity_id=LocalPlayer, tag_num=0x0D)
 18: 0x0088 [0x4E] SET_ENTITY_HIDE_FLAG: Hide LocalPlayer
 19: 0x008E [0x29] REQ_SET_WAIT(priority=0x08, entity_id=Prishe (ID: 16892146/0x0101C0F2), tag_num=0x3D)
 20: 0x0095 [0x29] REQ_SET_WAIT(priority=0x08, entity_id=Prishe (ID: 16892146/0x0101C0F2), tag_num=0x3E)
 21: 0x009C [0x45] LOAD_SCHEDULED_TASK: Load scheduler "se79" with entities [EventEntity, EventEntity], work=[120*, 0*]
 22: 0x00AD [0x1C] WAIT(200* ticks)
 23: 0x00B0 [0x29] REQ_SET_WAIT(priority=0x08, entity_id=Tenzen (ID: 16892147/0x0101C0F3), tag_num=0x01)
 24: 0x00B7 [0x45] LOAD_SCHEDULED_TASK: Load scheduler "s079" with entities [EventEntity, EventEntity], work=[120*, 0*]
 25: 0x00C8 [0x45] LOAD_SCHEDULED_TASK: Load scheduler "fdi1" with entities [EventEntity, EventEntity], work=[200*, 0*]
 26: 0x00D9 [0x2B] Prishe (ID: 16892146/0x0101C0F2) [7262*]:
    → "Can't we get this thing open?"
 27: 0x00E0 [0x23] WAIT_FOR_DIALOG_INTERACTION
 28: 0x00E1 [0x29] REQ_SET_WAIT(priority=0x08, entity_id=Tenzen (ID: 16892147/0x0101C0F3), tag_num=0x02)
 29: 0x00E8 [0x29] REQ_SET_WAIT(priority=0x08, entity_id=Tenzen (ID: 16892147/0x0101C0F3), tag_num=0x03)
 30: 0x00EF [0x2B] Tenzen (ID: 16892147/0x0101C0F3) [7263*]:
    → "It cannot be forced."
 31: 0x00F6 [0x23] WAIT_FOR_DIALOG_INTERACTION
 32: 0x00F7 [0x29] REQ_SET_WAIT(priority=0x08, entity_id=Tenzen (ID: 16892147/0x0101C0F3), tag_num=0x04)
 33: 0x00FE [0x52] END_LOAD_SCHEDULER: End scheduler "s079" with entities [EventEntity, EventEntity], work=120*
 34: 0x010D [0x45] LOAD_SCHEDULED_TASK: Load scheduler "s080" with entities [EventEntity, EventEntity], work=[120*, 0*]
 35: 0x011E [0x79] Tenzen (ID: 16892147/0x0101C0F3) looks at Prishe (ID: 16892146/0x0101C0F2) (Basic look)
 36: 0x0128 [0x79] Prishe (ID: 16892146/0x0101C0F2) looks at Tenzen (ID: 16892147/0x0101C0F3) (Basic look)
 37: 0x0132 [0x27] REQ_SET(priority=0x0B, entity_id=Tenzen (ID: 16892147/0x0101C0F3), tag_num=0x40)
 38: 0x0139 [0x2B] Tenzen (ID: 16892147/0x0101C0F3) [7264*]:
    → "You say the reliquiarium lies beyond this gate, but what business do we have inside, Lady Prishe?"
 39: 0x0140 [0x23] WAIT_FOR_DIALOG_INTERACTION
 40: 0x0141 [0x2A] GET_REQ_LEVEL(level=11, entity_id=Tenzen (ID: 16892147/0x0101C0F3))
 41: 0x0147 [0x29] REQ_SET_WAIT(priority=0x08, entity_id=Prishe (ID: 16892146/0x0101C0F2), tag_num=0x3F)
 42: 0x014E [0x2B] Prishe (ID: 16892146/0x0101C0F2) [7265*]:
    → "Isn't it obvious? This is where we're gonna find Promathia."
 43: 0x0155 [0x23] WAIT_FOR_DIALOG_INTERACTION
 44: 0x0156 [0x7C] Tenzen (ID: 16892147/0x0101C0F3)->Render.Flags2 |= 0x00
 45: 0x015C [0x2B] Tenzen (ID: 16892147/0x0101C0F3) [7266*]:
    → "!?"
 46: 0x0163 [0x23] WAIT_FOR_DIALOG_INTERACTION
 47: 0x0164 [0x7C] Tenzen (ID: 16892147/0x0101C0F3)->Render.Flags2 |= 0x01
 48: 0x016A [0x79] LocalPlayer looks at Prishe (ID: 16892146/0x0101C0F2) (Basic look)
 49: 0x0174 [0x27] REQ_SET(priority=0x0B, entity_id=LocalPlayer, tag_num=0x0E)
 50: 0x017B [0x1C] WAIT(10* ticks)
 51: 0x017E [0x52] END_LOAD_SCHEDULER: End scheduler "s080" with entities [EventEntity, EventEntity], work=120*
 52: 0x018D [0x02] IF !(Work_Zone[9] == 5*) GOTO 0x01A9
 53: 0x0195 [0x45] LOAD_SCHEDULED_TASK: Load scheduler "s083" with entities [EventEntity, EventEntity], work=[120*, 0*]
 54: 0x01A6 [0x01] GOTO 0x01D6
 55: 0x01A9 [0x02] IF !(Work_Zone[9] == 6*) GOTO 0x01C5
 56: 0x01B1 [0x45] LOAD_SCHEDULED_TASK: Load scheduler "s083" with entities [EventEntity, EventEntity], work=[120*, 0*]
 57: 0x01C2 [0x01] GOTO 0x01D6
 58: 0x01C5 [0x45] LOAD_SCHEDULED_TASK: Load scheduler "s081" with entities [EventEntity, EventEntity], work=[120*, 0*]

SUBROUTINE_01D6:
 59: 0x01D6 [0x4E] SET_ENTITY_HIDE_FLAG: Show LocalPlayer
 60: 0x01DC [0x80] LOAD_WAIT(entity=LocalPlayer)
 61: 0x01E1 [0x79] Tenzen (ID: 16892147/0x0101C0F3) looks at LocalPlayer (Basic look)
 62: 0x01EB [0x29] REQ_SET_WAIT(priority=0x08, entity_id=Prishe (ID: 16892146/0x0101C0F2), tag_num=0x40)
 63: 0x01F2 [0x4B] UPDATE_ENTITY_YAW(entity=Prishe (ID: 16892146/0x0101C0F2), yaw=20.5°*)
 64: 0x01F9 [0x6F] WAIT_FRAME_DELAY: Yield until WaitTime reaches zero
 65: 0x01FA [0x76] CHECK_ENTITY_RENDER_FLAGS: Wait until Prishe (ID: 16892146/0x0101C0F2) Render.Flags0 and Render.Flags3 conditions are met
 66: 0x01FF [0x79] Prishe (ID: 16892146/0x0101C0F2) looks at LocalPlayer (Basic look)
 67: 0x0209 [0x1C] WAIT(40* ticks)
 68: 0x020C [0x27] REQ_SET(priority=0x0B, entity_id=Prishe (ID: 16892146/0x0101C0F2), tag_num=0x9A)
 69: 0x0213 [0x2A] GET_REQ_LEVEL(level=11, entity_id=Prishe (ID: 16892146/0x0101C0F2))
 70: 0x0219 [0x2B] Prishe (ID: 16892146/0x0101C0F2) [7267*]:
    → "Hey, <Player>! You're just in time."
 71: 0x0220 [0x23] WAIT_FOR_DIALOG_INTERACTION
 72: 0x0221 [0x2A] GET_REQ_LEVEL(level=11, entity_id=LocalPlayer)
 73: 0x0227 [0x02] IF !(Work_Zone[9] == 5*) GOTO 0x0241
 74: 0x022F [0x52] END_LOAD_SCHEDULER: End scheduler "s083" with entities [EventEntity, EventEntity], work=120*
 75: 0x023E [0x01] GOTO 0x026A
 76: 0x0241 [0x02] IF !(Work_Zone[9] == 6*) GOTO 0x025B
 77: 0x0249 [0x52] END_LOAD_SCHEDULER: End scheduler "s083" with entities [EventEntity, EventEntity], work=120*
 78: 0x0258 [0x01] GOTO 0x026A
 79: 0x025B [0x52] END_LOAD_SCHEDULER: End scheduler "s081" with entities [EventEntity, EventEntity], work=120*

SUBROUTINE_026A:
 80: 0x026A [0x45] LOAD_SCHEDULED_TASK: Load scheduler "ovl1" with entities [LocalPlayer, LocalPlayer], work=[200*, 0*]
 81: 0x027B [0x45] LOAD_SCHEDULED_TASK: Load scheduler "s086" with entities [EventEntity, EventEntity], work=[120*, 0*]
 82: 0x028C [0x7B] Prishe (ID: 16892146/0x0101C0F2) stops talking
 83: 0x0291 [0x79] Tenzen (ID: 16892147/0x0101C0F3) looks at Prishe (ID: 16892146/0x0101C0F2) (Basic look)
 84: 0x029B [0x29] REQ_SET_WAIT(priority=0x08, entity_id=Prishe (ID: 16892146/0x0101C0F2), tag_num=0x17)
 85: 0x02A2 [0x2B] Prishe (ID: 16892146/0x0101C0F2) [7268*]:
    → "You can help us open this gate. We're almost at the end of our quest."
 86: 0x02A9 [0x23] WAIT_FOR_DIALOG_INTERACTION
 87: 0x02AA [0x29] REQ_SET_WAIT(priority=0x08, entity_id=Prishe (ID: 16892146/0x0101C0F2), tag_num=0x18)
 88: 0x02B1 [0x79] Prishe (ID: 16892146/0x0101C0F2) looks at Tenzen (ID: 16892147/0x0101C0F3) (Basic look)
 89: 0x02BB [0x29] REQ_SET_WAIT(priority=0x08, entity_id=Prishe (ID: 16892146/0x0101C0F2), tag_num=0x19)
 90: 0x02C2 [0x27] REQ_SET(priority=0x0B, entity_id=Tenzen (ID: 16892147/0x0101C0F3), tag_num=0x42)
 91: 0x02C9 [0x2B] Tenzen (ID: 16892147/0x0101C0F3) [7269*]:
    → "One moment, Lady Prishe. If Promathia is behind this gate as you say, would there not be some powerful seal in effect?"
 92: 0x02D0 [0x23] WAIT_FOR_DIALOG_INTERACTION
 93: 0x02D1 [0x2A] GET_REQ_LEVEL(level=11, entity_id=Tenzen (ID: 16892147/0x0101C0F3))
 94: 0x02D7 [0x29] REQ_SET_WAIT(priority=0x08, entity_id=Prishe (ID: 16892146/0x0101C0F2), tag_num=0x1A)
 95: 0x02DE [0x52] END_LOAD_SCHEDULER: End scheduler "s086" with entities [EventEntity, EventEntity], work=120*
 96: 0x02ED [0x45] LOAD_SCHEDULED_TASK: Load scheduler "s082" with entities [EventEntity, EventEntity], work=[120*, 0*]
 97: 0x02FE [0x4A] Prishe (ID: 16892146/0x0101C0F2) looks at Tenzen (ID: 16892147/0x0101C0F3)
 98: 0x0307 [0x6F] WAIT_FRAME_DELAY: Yield until WaitTime reaches zero
 99: 0x0308 [0x76] CHECK_ENTITY_RENDER_FLAGS: Wait until Prishe (ID: 16892146/0x0101C0F2) Render.Flags0 and Render.Flags3 conditions are met
100: 0x030D [0x27] REQ_SET(priority=0x0B, entity_id=Prishe (ID: 16892146/0x0101C0F2), tag_num=0x95)
101: 0x0314 [0x2B] Prishe (ID: 16892146/0x0101C0F2) [7270*]:
    → "Oh yeah, now I remember! I think I locked this gate after the war."
102: 0x031B [0x23] WAIT_FOR_DIALOG_INTERACTION
103: 0x031C [0x29] REQ_SET_WAIT(priority=0x08, entity_id=Tenzen (ID: 16892147/0x0101C0F3), tag_num=0x15)
104: 0x0323 [0x2B] Tenzen (ID: 16892147/0x0101C0F3) [7271*]:
    → "Locked it...?"
105: 0x032A [0x23] WAIT_FOR_DIALOG_INTERACTION
106: 0x032B [0x52] END_LOAD_SCHEDULER: End scheduler "s082" with entities [EventEntity, EventEntity], work=120*
107: 0x033A [0x45] LOAD_SCHEDULED_TASK: Load scheduler "s087" with entities [EventEntity, EventEntity], work=[120*, 0*]
108: 0x034B [0x2A] GET_REQ_LEVEL(level=11, entity_id=Prishe (ID: 16892146/0x0101C0F2))
109: 0x0351 [0x27] REQ_SET(priority=0x0B, entity_id=Tenzen (ID: 16892147/0x0101C0F3), tag_num=0x41)
110: 0x0358 [0x79] Prishe (ID: 16892146/0x0101C0F2) looks at LocalPlayer (Basic look)
111: 0x0362 [0x4B] UPDATE_ENTITY_YAW(entity=Prishe (ID: 16892146/0x0101C0F2), yaw=17.9°*)
112: 0x0369 [0x6F] WAIT_FRAME_DELAY: Yield until WaitTime reaches zero
113: 0x036A [0x76] CHECK_ENTITY_RENDER_FLAGS: Wait until Prishe (ID: 16892146/0x0101C0F2) Render.Flags0 and Render.Flags3 conditions are met
114: 0x036F [0x2B] Prishe (ID: 16892146/0x0101C0F2) [7272*]:
    → "<Player>, you and Tenzen go find the $3. It's somewhere in the communion hall."
115: 0x0376 [0x23] WAIT_FOR_DIALOG_INTERACTION
116: 0x0377 [0x2A] GET_REQ_LEVEL(level=11, entity_id=Tenzen (ID: 16892147/0x0101C0F3))
117: 0x037D [0x52] END_LOAD_SCHEDULER: End scheduler "s087" with entities [EventEntity, EventEntity], work=120*
118: 0x038C [0x45] LOAD_SCHEDULED_TASK: Load scheduler "s084" with entities [EventEntity, EventEntity], work=[120*, 0*]
119: 0x039D [0x27] REQ_SET(priority=0x0B, entity_id=Prishe (ID: 16892146/0x0101C0F2), tag_num=0x9B)
120: 0x03A4 [0x27] REQ_SET(priority=0x0B, entity_id=LocalPlayer, tag_num=0x0F)
121: 0x03AB [0x2B] Prishe (ID: 16892146/0x0101C0F2) [7273*]:
    → "Off you go now!"
122: 0x03B2 [0x23] WAIT_FOR_DIALOG_INTERACTION
123: 0x03B3 [0x1C] WAIT(60* ticks)
124: 0x03B6 [0x7B] Tenzen (ID: 16892147/0x0101C0F3) stops talking
125: 0x03BB [0x27] REQ_SET(priority=0x0B, entity_id=Tenzen (ID: 16892147/0x0101C0F3), tag_num=0x43)
126: 0x03C2 [0x2B] Tenzen (ID: 16892147/0x0101C0F3) [7274*]:
    → "Lady Prishe!?"
127: 0x03C9 [0x23] WAIT_FOR_DIALOG_INTERACTION
128: 0x03CA [0x2A] GET_REQ_LEVEL(level=11, entity_id=LocalPlayer)
129: 0x03D0 [0x2A] GET_REQ_LEVEL(level=11, entity_id=Tenzen (ID: 16892147/0x0101C0F3))
130: 0x03D6 [0x2A] GET_REQ_LEVEL(level=11, entity_id=Prishe (ID: 16892146/0x0101C0F2))
131: 0x03DC [0x4E] SET_ENTITY_HIDE_FLAG: Hide Prishe (ID: 16892146/0x0101C0F2)
132: 0x03E2 [0x52] END_LOAD_SCHEDULER: End scheduler "s084" with entities [EventEntity, EventEntity], work=120*
133: 0x03F1 [0x02] IF !(Work_Zone[9] == 5*) GOTO 0x040D
134: 0x03F9 [0x45] LOAD_SCHEDULED_TASK: Load scheduler "s088" with entities [EventEntity, EventEntity], work=[120*, 0*]
135: 0x040A [0x01] GOTO 0x0456
136: 0x040D [0x02] IF !(Work_Zone[9] == 6*) GOTO 0x0429
137: 0x0415 [0x45] LOAD_SCHEDULED_TASK: Load scheduler "s088" with entities [EventEntity, EventEntity], work=[120*, 0*]
138: 0x0426 [0x01] GOTO 0x0456
139: 0x0429 [0x02] IF !(Work_Zone[9] == 8*) GOTO 0x0445
140: 0x0431 [0x45] LOAD_SCHEDULED_TASK: Load scheduler "s089" with entities [EventEntity, EventEntity], work=[120*, 0*]
141: 0x0442 [0x01] GOTO 0x0456
142: 0x0445 [0x45] LOAD_SCHEDULED_TASK: Load scheduler "s085" with entities [EventEntity, EventEntity], work=[120*, 0*]

SUBROUTINE_0456:
143: 0x0456 [0x79] LocalPlayer looks at Tenzen (ID: 16892147/0x0101C0F3) (Basic look)
144: 0x0460 [0x79] Tenzen (ID: 16892147/0x0101C0F3) looks at LocalPlayer (Basic look)
145: 0x046A [0x4B] UPDATE_ENTITY_YAW(entity=LocalPlayer, yaw=6.8°*)
146: 0x0471 [0x6F] WAIT_FRAME_DELAY: Yield until WaitTime reaches zero
147: 0x0472 [0x76] CHECK_ENTITY_RENDER_FLAGS: Wait until LocalPlayer Render.Flags0 and Render.Flags3 conditions are met
148: 0x0477 [0x27] REQ_SET(priority=0x0B, entity_id=Tenzen (ID: 16892147/0x0101C0F3), tag_num=0x44)
149: 0x047E [0x2B] Tenzen (ID: 16892147/0x0101C0F3) [7275*]:
    → "<Sigh> Let us begin our search for this $3 she speaks of."
150: 0x0485 [0x23] WAIT_FOR_DIALOG_INTERACTION
151: 0x0486 [0x2A] GET_REQ_LEVEL(level=11, entity_id=Tenzen (ID: 16892147/0x0101C0F3))
152: 0x048C [0x29] REQ_SET_WAIT(priority=0x08, entity_id=Tenzen (ID: 16892147/0x0101C0F3), tag_num=0x01)
153: 0x0493 [0x2B] Tenzen (ID: 16892147/0x0101C0F3) [7276*]:
    → "She is such a demanding young lady. And I believed the imperious princesses of the Far East were hard on their subjects!"
154: 0x049A [0x23] WAIT_FOR_DIALOG_INTERACTION
155: 0x049B [0x29] REQ_SET_WAIT(priority=0x08, entity_id=Tenzen (ID: 16892147/0x0101C0F3), tag_num=0x02)
156: 0x04A2 [0x45] LOAD_SCHEDULED_TASK: Load scheduler "fdo1" with entities [LocalPlayer, LocalPlayer], work=[200*, 0*]
157: 0x04B3 [0x1C] WAIT(60* ticks)
158: 0x04B6 [0x02] IF !(Work_Zone[9] == 5*) GOTO 0x04D0
159: 0x04BE [0x52] END_LOAD_SCHEDULER: End scheduler "s088" with entities [EventEntity, EventEntity], work=120*
160: 0x04CD [0x01] GOTO 0x0513
161: 0x04D0 [0x02] IF !(Work_Zone[9] == 6*) GOTO 0x04EA
162: 0x04D8 [0x52] END_LOAD_SCHEDULER: End scheduler "s088" with entities [EventEntity, EventEntity], work=120*
163: 0x04E7 [0x01] GOTO 0x0513
164: 0x04EA [0x02] IF !(Work_Zone[9] == 8*) GOTO 0x0504
165: 0x04F2 [0x52] END_LOAD_SCHEDULER: End scheduler "s089" with entities [EventEntity, EventEntity], work=120*
166: 0x0501 [0x01] GOTO 0x0513
167: 0x0504 [0x52] END_LOAD_SCHEDULER: End scheduler "s085" with entities [EventEntity, EventEntity], work=120*

SUBROUTINE_0513:
168: 0x0513 [0x4E] SET_ENTITY_HIDE_FLAG: Show LocalPlayer
169: 0x0519 [0x80] LOAD_WAIT(entity=LocalPlayer)
170: 0x051E [0x5C] MUSIC_CONTROL: Set Idle (Day) music to song 0*
171: 0x0522 [0x5C] MUSIC_CONTROL: Set Idle (Night) music to song 0*
172: 0x0526 [0x1C] WAIT(100* ticks)
173: 0x0529 [0x46] CAMERA_CONTROL: Restore default settings
174: 0x052B [0x45] LOAD_SCHEDULED_TASK: Load scheduler "fdi1" with entities [LocalPlayer, LocalPlayer], work=[200*, 0*]
175: 0x053C [0x20] SET_CLI_EVENT_UC_FLAG: Unlock player control
176: 0x053E [0x21] END_EVENT
177: 0x053F [0x00] END_REQSTACK()
```

### Event 5

#### Metadata

| Field        | Value      |
|--------------|------------|
| Entrypoint   | 0x0540     |
| Data Size    | 6508 bytes |
| Instructions | 785        |

```
      00 01 02 03 04 05 06 07  08 09 0A 0B 0C 0D 0E 0F
      -- -- -- -- -- -- -- --  -- -- -- -- -- -- -- --
0540: 20 01 42 46 01 45 10 80  F8 FF FF 7F F8 FF FF 7F   .BF.E..........
0550: 66 64 6F 31 02 80 1C 11  80 38 12 80 29 08 F0 FF  fdo1.....8..)...
0560: FF 7F 04 33 01 29 0B F0  FF FF 7F 07 29 0B F3 C0  ...3.)......)...
0570: 01 01 38 29 0B F2 C0 01  01 8F 4E 00 F2 C0 01 01  ..8)......N.....
0580: 4E 00 F3 C0 01 01 80 F2  C0 01 01 80 F3 C0 01 01  N...............
0590: 29 0B E9 C0 01 01 02 1C  15 80 79 00 F3 C0 01 01  ).........y.....
05A0: F2 C0 01 01 27 0B F3 C0  01 01 39 27 0B F2 C0 01  ....'.....9'....
05B0: 01 90 4E 01 F0 FF FF 7F  9F 2D 80 F8 FF FF 7F F8  ..N......-......
05C0: FF FF 7F 6B 69 6C 6C 02  80 45 10 80 F0 FF FF 7F  ...kill..E......
05D0: F0 FF FF 7F 62 6C 6F 66  02 80 45 15 80 F8 FF FF  ....blof..E.....
05E0: 7F F8 FF FF 7F 73 30 35  38 02 80 45 10 80 F8 FF  .....s058..E....
05F0: FF 7F F8 FF FF 7F 66 64  69 31 02 80 1C 2E 80 52  ......fdi1.....R
0600: 15 80 F8 FF FF 7F F8 FF  FF 7F 73 30 35 38 45 15  ..........s058E.
0610: 80 F8 FF FF 7F F8 FF FF  7F 73 30 39 39 02 80 29  .........s099..)
0620: 0B F4 C0 01 01 01 1C 14  80 79 00 F3 C0 01 01 F4  .........y......
0630: C0 01 01 2B F3 C0 01 01  2F 80 23 4E 00 F0 FF FF  ...+..../.#N....
0640: 7F 27 0B F0 FF FF 7F 08  1C 30 80 29 0B E9 C0 01  .'.......0.)....
0650: 01 03 1C 11 80 52 15 80  F8 FF FF 7F F8 FF FF 7F  .....R..........
0660: 73 30 39 39 45 15 80 F8  FF FF 7F F8 FF FF 7F 73  s099E..........s
0670: 30 36 30 02 80 7B F3 C0  01 01 29 0B F4 C0 01 01  060..{....).....
0680: 02 1C 11 80 4E 01 F2 C0  01 01 1C 1B 80 79 00 F3  ....N........y..
0690: C0 01 01 F4 C0 01 01 1C  31 80 52 15 80 F8 FF FF  ........1.R.....
06A0: 7F F8 FF FF 7F 73 30 36  30 45 10 80 F0 FF FF 7F  .....s060E......
06B0: F0 FF FF 7F 6F 76 6C 31  02 80 45 15 80 F8 FF FF  ....ovl1..E.....
06C0: 7F F8 FF FF 7F 73 30 36  31 02 80 2A 0B F3 C0 01  .....s061..*....
06D0: 01 4A F3 C0 01 01 F4 C0  01 01 6F 76 F3 C0 01 01  .J........ov....
06E0: 5C 00 32 80 5C 01 32 80  29 08 F3 C0 01 01 15 2B  \.2.\.2.)......+
06F0: F3 C0 01 01 33 80 23 29  08 F3 C0 01 01 16 52 15  ....3.#)......R.
0700: 80 F8 FF FF 7F F8 FF FF  7F 73 30 36 31 45 10 80  .........s061E..
0710: F0 FF FF 7F F0 FF FF 7F  6F 76 6C 31 02 80 45 15  ........ovl1..E.
0720: 80 F8 FF FF 7F F8 FF FF  7F 73 30 36 32 02 80 1C  .........s062...
0730: 2E 80 52 15 80 F8 FF FF  7F F8 FF FF 7F 73 30 36  ..R..........s06
0740: 32 45 10 80 F0 FF FF 7F  F0 FF FF 7F 6F 76 6C 31  2E..........ovl1
0750: 02 80 45 15 80 F8 FF FF  7F F8 FF FF 7F 73 30 36  ..E..........s06
0760: 33 02 80 1C 2E 80 52 15  80 F8 FF FF 7F F8 FF FF  3.....R.........
0770: 7F 73 30 36 33 45 10 80  F0 FF FF 7F F0 FF FF 7F  .s063E..........
0780: 6F 76 6C 31 02 80 45 15  80 F8 FF FF 7F F8 FF FF  ovl1..E.........
0790: 7F 73 30 36 34 02 80 1C  10 80 4E 00 F2 C0 01 01  .s064.....N.....
07A0: 80 F2 C0 01 01 29 0B F0  FF FF 7F 09 29 0B F3 C0  .....)......)...
07B0: 01 01 3A 29 0B F2 C0 01  01 91 29 0B F4 C0 01 01  ..:)......).....
07C0: 03 79 00 F0 FF FF 7F F4  C0 01 01 79 00 F2 C0 01  .y.........y....
07D0: 01 F4 C0 01 01 79 00 F3  C0 01 01 F4 C0 01 01 52  .....y.........R
07E0: 15 80 F8 FF FF 7F F8 FF  FF 7F 73 30 36 34 27 0B  ..........s064'.
07F0: F3 C0 01 01 3B 1C 1B 80  45 10 80 F0 FF FF 7F F0  ....;...E.......
0800: FF FF 7F 6F 76 6C 31 02  80 45 15 80 F8 FF FF 7F  ...ovl1..E......
0810: F8 FF FF 7F 73 30 37 33  02 80 1C 14 80 2A 0B F3  ....s073.....*..
0820: C0 01 01 52 15 80 F8 FF  FF 7F F8 FF FF 7F 73 30  ...R..........s0
0830: 37 33 1C 1B 80 45 10 80  F0 FF FF 7F F0 FF FF 7F  73...E..........
0840: 6F 76 6C 31 02 80 45 15  80 F8 FF FF 7F F8 FF FF  ovl1..E.........
0850: 7F 73 30 36 36 02 80 29  0B F0 FF FF 7F 0A 2B F3  .s066..)......+.
0860: C0 01 01 34 80 23 29 08  F2 C0 01 01 23 2B F2 C0  ...4.#).....#+..
0870: 01 01 35 80 23 29 08 F2  C0 01 01 24 79 00 F3 C0  ..5.#).....$y...
0880: 01 01 F2 C0 01 01 52 15  80 F8 FF FF 7F F8 FF FF  ......R.........
0890: 7F 73 30 36 36 45 15 80  F8 FF FF 7F F8 FF FF 7F  .s066E..........
08A0: 73 30 36 39 02 80 29 08  F3 C0 01 01 01 2B F3 C0  s069..)......+..
08B0: 01 01 36 80 23 29 08 F3  C0 01 01 02 7B F2 C0 01  ..6.#)......{...
08C0: 01 29 08 F2 C0 01 01 33  2B F2 C0 01 01 37 80 23  .).....3+....7.#
08D0: 29 08 F2 C0 01 01 34 7B  F3 C0 01 01 29 08 F3 C0  ).....4{....)...
08E0: 01 01 11 2B F3 C0 01 01  38 80 23 29 08 F3 C0 01  ...+....8.#)....
08F0: 01 12 79 00 F3 C0 01 01  F2 C0 01 01 29 08 F2 C0  ..y.........)...
0900: 01 01 31 29 08 F2 C0 01  01 32 29 08 F3 C0 01 01  ..1).....2).....
0910: 13 27 0B F2 C0 01 01 92  1C 39 80 52 15 80 F8 FF  .'.......9.R....
0920: FF 7F F8 FF FF 7F 73 30  36 39 45 15 80 F8 FF FF  ......s069E.....
0930: 7F F8 FF FF 7F 73 30 37  37 02 80 29 0B F0 FF FF  .....s077..)....
0940: 7F 0B 2B F2 C0 01 01 3A  80 23 2A 0B F2 C0 01 01  ..+....:.#*.....
0950: 29 08 F3 C0 01 01 14 52  15 80 F8 FF FF 7F F8 FF  )......R........
0960: FF 7F 73 30 37 37 45 10  80 F0 FF FF 7F F0 FF FF  ..s077E.........
0970: 7F 6F 76 6C 31 02 80 45  15 80 F8 FF FF 7F F8 FF  .ovl1..E........
0980: FF 7F 73 30 37 32 02 80  79 00 F0 FF FF 7F F2 C0  ..s072..y.......
0990: 01 01 29 08 F2 C0 01 01  27 2B F2 C0 01 01 3B 80  ..).....'+....;.
09A0: 23 29 08 F2 C0 01 01 28  29 08 F2 C0 01 01 35 2B  #).....().....5+
09B0: F2 C0 01 01 3C 80 23 29  08 F2 C0 01 01 36 52 15  ....<.#).....6R.
09C0: 80 F8 FF FF 7F F8 FF FF  7F 73 30 37 32 45 15 80  .........s072E..
09D0: F8 FF FF 7F F8 FF FF 7F  73 30 37 30 02 80 2B F2  ........s070..+.
09E0: C0 01 01 3D 80 23 2B F2  C0 01 01 3E 80 23 2B F2  ...=.#+....>.#+.
09F0: C0 01 01 3F 80 23 29 0B  F4 C0 01 01 04 29 0B F2  ...?.#)......)..
0A00: C0 01 01 93 52 15 80 F8  FF FF 7F F8 FF FF 7F 73  ....R..........s
0A10: 30 37 30 45 15 80 F8 FF  FF 7F F8 FF FF 7F 73 30  070E..........s0
0A20: 36 37 02 80 27 0B F2 C0  01 01 94 2B F2 C0 01 01  67..'......+....
0A30: 40 80 23 2A 0B F2 C0 01  01 79 00 F2 C0 01 01 F4  @.#*.....y......
0A40: C0 01 01 2B F2 C0 01 01  41 80 23 52 15 80 F8 FF  ...+....A.#R....
0A50: FF 7F F8 FF FF 7F 73 30  36 37 45 10 80 F0 FF FF  ......s067E.....
0A60: 7F F0 FF FF 7F 6F 76 6C  31 02 80 45 15 80 F8 FF  .....ovl1..E....
0A70: FF 7F F8 FF FF 7F 73 30  37 31 02 80 7B F2 C0 01  ......s071..{...
0A80: 01 29 0B F4 C0 01 01 03  29 08 F2 C0 01 01 0D 2B  .)......)......+
0A90: F2 C0 01 01 42 80 23 29  08 F2 C0 01 01 0E 7B F2  ....B.#)......{.
0AA0: C0 01 01 52 15 80 F8 FF  FF 7F F8 FF FF 7F 73 30  ...R..........s0
0AB0: 37 31 45 15 80 F8 FF FF  7F F8 FF FF 7F 73 30 37  71E..........s07
0AC0: 34 02 80 7B F3 C0 01 01  4B F3 C0 01 01 43 80 4B  4..{....K....C.K
0AD0: F2 C0 01 01 44 80 6F 76  F2 C0 01 01 29 08 F3 C0  ....D.ov....)...
0AE0: 01 01 15 2B F2 C0 01 01  45 80 23 2B F2 C0 01 01  ...+....E.#+....
0AF0: 46 80 23 29 08 F3 C0 01  01 16 6F 76 F3 C0 01 01  F.#)......ov....
0B00: 52 15 80 F8 FF FF 7F F8  FF FF 7F 73 30 37 34 45  R..........s074E
0B10: 10 80 F0 FF FF 7F F0 FF  FF 7F 6F 76 6C 31 02 80  ..........ovl1..
0B20: 02 09 10 1C 80 00 3C 0B  45 15 80 F8 FF FF 7F F8  ......<.E.......
0B30: FF FF 7F 73 30 36 38 02  80 01 69 0B 02 09 10 1D  ...s068...i.....
0B40: 80 00 58 0B 45 15 80 F8  FF FF 7F F8 FF FF 7F 73  ..X.E..........s
0B50: 30 36 38 02 80 01 69 0B  45 15 80 F8 FF FF 7F F8  068...i.E.......
0B60: FF FF 7F 73 30 37 38 02  80 29 08 F3 C0 01 01 19  ...s078..)......
0B70: 2B F3 C0 01 01 47 80 23  29 08 F3 C0 01 01 1A 02  +....G.#).......
0B80: 09 10 1C 80 00 99 0B 52  15 80 F8 FF FF 7F F8 FF  .......R........
0B90: FF 7F 73 30 36 38 01 C2  0B 02 09 10 1D 80 00 B3  ..s068..........
0BA0: 0B 52 15 80 F8 FF FF 7F  F8 FF FF 7F 73 30 36 38  .R..........s068
0BB0: 01 C2 0B 52 15 80 F8 FF  FF 7F F8 FF FF 7F 73 30  ...R..........s0
0BC0: 37 38 5D 02 80 48 80 45  15 80 F8 FF FF 7F F8 FF  78]..H.E........
0BD0: FF 7F 73 30 39 35 02 80  4B F2 C0 01 01 02 80 6F  ..s095..K......o
0BE0: 76 F2 C0 01 01 79 00 F0  FF FF 7F F2 C0 01 01 29  v....y.........)
0BF0: 08 F2 C0 01 01 56 2B F2  C0 01 01 49 80 23 29 08  .....V+....I.#).
0C00: F2 C0 01 01 57 29 08 F2  C0 01 01 58 2B F2 C0 01  ....W).....X+...
0C10: 01 4A 80 23 29 08 F2 C0  01 01 59 29 08 F2 C0 01  .J.#).....Y)....
0C20: 01 5A 1C 39 80 52 15 80  F8 FF FF 7F F8 FF FF 7F  .Z.9.R..........
0C30: 73 30 39 35 45 15 80 F8  FF FF 7F F8 FF FF 7F 73  s095E..........s
0C40: 30 37 36 02 80 2B F2 C0  01 01 4B 80 23 1C 48 80  076..+....K.#.H.
0C50: 9F 2D 80 F8 FF FF 7F F8  FF FF 7F 7A 73 74 30 02  .-.........zst0.
0C60: 80 9F 2D 80 F2 C0 01 01  F2 C0 01 01 70 73 74 30  ..-.........pst0
0C70: 02 80 45 15 80 F8 FF FF  7F F8 FF FF 7F 73 65 32  ..E..........se2
0C80: 39 02 80 1C 4C 80 52 15  80 F8 FF FF 7F F8 FF FF  9...L.R.........
0C90: 7F 73 30 37 36 45 10 80  F0 FF FF 7F F0 FF FF 7F  .s076E..........
0CA0: 62 6C 6F 6E 02 80 45 4D  80 F0 FF FF 7F F0 FF FF  blon..EM........
0CB0: 7F 62 6C 6F 6E 02 80 45  15 80 F8 FF FF 7F F8 FF  .blon..E........
0CC0: FF 7F 73 30 36 35 02 80  45 15 80 F8 FF FF 7F F8  ..s065..E.......
0CD0: FF FF 7F 73 65 33 30 02  80 1C 30 80 9F 2D 80 F8  ...se30...0..-..
0CE0: FF FF 7F F8 FF FF 7F 70  73 74 31 02 80 9F 2D 80  .......pst1...-.
0CF0: F8 FF FF 7F F8 FF FF 7F  7A 73 74 31 02 80 52 15  ........zst1..R.
0D00: 80 F8 FF FF 7F F8 FF FF  7F 73 30 36 35 45 15 80  .........s065E..
0D10: F8 FF FF 7F F8 FF FF 7F  73 30 39 36 02 80 45 15  ........s096..E.
0D20: 80 F8 FF FF 7F F8 FF FF  7F 73 65 33 31 02 80 29  .........se31..)
0D30: 08 F3 C0 01 01 0B 1C 4C  80 29 08 F3 C0 01 01 0C  .......L.)......
0D40: 52 15 80 F8 FF FF 7F F8  FF FF 7F 73 30 39 36 45  R..........s096E
0D50: 10 80 F0 FF FF 7F F0 FF  FF 7F 6F 76 6C 31 02 80  ..........ovl1..
0D60: 45 15 80 F8 FF FF 7F F8  FF FF 7F 73 30 39 38 02  E..........s098.
0D70: 80 45 15 80 F8 FF FF 7F  F8 FF FF 7F 73 65 33 32  .E..........se32
0D80: 02 80 27 0B F3 C0 01 01  3D 2B F3 C0 01 01 4E 80  ..'.....=+....N.
0D90: 23 1C 1F 80 45 4D 80 F0  FF FF 7F F0 FF FF 7F 77  #...EM.........w
0DA0: 68 6F 31 02 80 45 15 80  F8 FF FF 7F F8 FF FF 7F  ho1..E..........
0DB0: 73 65 39 65 02 80 1C 11  80 45 10 80 F0 FF FF 7F  se9e.....E......
0DC0: F0 FF FF 7F 62 6C 6F 66  02 80 9F 2D 80 F8 FF FF  ....blof...-....
0DD0: 7F F8 FF FF 7F 6B 69 6C  6C 02 80 52 15 80 F8 FF  .....kill..R....
0DE0: FF 7F F8 FF FF 7F 73 30  39 37 2A 0B F3 C0 01 01  ......s097*.....
0DF0: 4E 01 F0 FF FF 7F 34 13  80 77 4F 80 50 80 1C 11  N.....4..wO.P...
0E00: 80 5C 00 51 80 5C 01 51  80 4E 00 F2 C0 01 01 4E  .\.Q.\.Q.N.....N
0E10: 00 03 C1 01 01 4E 00 04  C1 01 01 4E 00 05 C1 01  .....N.....N....
0E20: 01 80 F2 C0 01 01 80 03  C1 01 01 80 04 C1 01 01  ................
0E30: 80 05 C1 01 01 29 0B F2  C0 01 01 A0 29 0B 02 C1  .....)......)...
0E40: 01 01 02 29 0B 03 C1 01  01 15 29 0B 04 C1 01 01  ...)......).....
0E50: 15 29 0B 05 C1 01 01 15  9F 52 80 F2 C0 01 01 F2  .).......R......
0E60: C0 01 01 73 74 72 30 02  80 4E 01 02 C1 01 01 75  ...str0..N.....u
0E70: 00 53 80 75 01 1C 14 80  45 54 80 F8 FF FF 7F F8  .S.u....ET......
0E80: FF FF 7F 73 30 35 30 02  80 45 4D 80 F0 FF FF 7F  ...s050..EM.....
0E90: F0 FF FF 7F 77 68 69 31  02 80 1C 55 80 52 54 80  ....whi1...U.RT.
0EA0: F8 FF FF 7F F8 FF FF 7F  73 30 35 30 45 10 80 F0  ........s050E...
0EB0: FF FF 7F F0 FF FF 7F 6F  76 6C 31 02 80 45 54 80  .......ovl1..ET.
0EC0: F8 FF FF 7F F8 FF FF 7F  73 30 35 31 02 80 1C 55  ........s051...U
0ED0: 80 1D 56 80 23 52 54 80  F8 FF FF 7F F8 FF FF 7F  ..V.#RT.........
0EE0: 73 30 35 31 45 10 80 F0  FF FF 7F F0 FF FF 7F 6F  s051E..........o
0EF0: 76 6C 31 02 80 45 54 80  F8 FF FF 7F F8 FF FF 7F  vl1..ET.........
0F00: 73 30 35 32 02 80 27 08  03 C1 01 01 05 1D 57 80  s052..'.......W.
0F10: 23 1D 58 80 23 52 54 80  F8 FF FF 7F F8 FF FF 7F  #.X.#RT.........
0F20: 73 30 35 32 45 10 80 F0  FF FF 7F F0 FF FF 7F 6F  s052E..........o
0F30: 76 6C 31 02 80 45 54 80  F8 FF FF 7F F8 FF FF 7F  vl1..ET.........
0F40: 73 30 35 33 02 80 27 08  04 C1 01 01 05 1D 59 80  s053..'.......Y.
0F50: 23 29 08 05 C1 01 01 08  1D 5A 80 23 29 08 05 C1  #).......Z.#)...
0F60: 01 01 09 2A 08 03 C1 01  01 52 54 80 F8 FF FF 7F  ...*.....RT.....
0F70: F8 FF FF 7F 73 30 35 33  45 10 80 F0 FF FF 7F F0  ....s053E.......
0F80: FF FF 7F 6F 76 6C 31 02  80 45 54 80 F8 FF FF 7F  ...ovl1..ET.....
0F90: F8 FF FF 7F 73 30 35 35  02 80 29 08 05 C1 01 01  ....s055..).....
0FA0: 0A 2B 02 C1 01 01 5B 80  23 52 54 80 F8 FF FF 7F  .+....[.#RT.....
0FB0: F8 FF FF 7F 73 30 35 35  45 10 80 F0 FF FF 7F F0  ....s055E.......
0FC0: FF FF 7F 6F 76 6C 31 02  80 45 54 80 F8 FF FF 7F  ...ovl1..ET.....
0FD0: F8 FF FF 7F 73 30 35 36  02 80 29 08 F2 C0 01 01  ....s056..).....
0FE0: 2F 2B 02 C1 01 01 5C 80  23 29 08 05 C1 01 01 0B  /+....\.#)......
0FF0: 2B 02 C1 01 01 5D 80 23  2A 08 04 C1 01 01 29 08  +....].#*.....).
1000: F2 C0 01 01 30 45 10 80  06 C1 01 01 06 C1 01 01  ....0E..........
1010: 66 64 6F 31 02 80 1C 11  80 52 54 80 F8 FF FF 7F  fdo1.....RT.....
1020: F8 FF FF 7F 73 30 35 36  27 0B 06 C1 01 01 06 1C  ....s056'.......
1030: 5E 80 29 0B 07 C1 01 01  02 1C 11 80 2B 02 C1 01  ^.).........+...
1040: 01 5F 80 23 2A 0B 06 C1  01 01 52 54 80 06 C1 01  ._.#*.....RT....
1050: 01 06 C1 01 01 73 30 35  34 1C 10 80 45 54 80 F8  .....s054...ET..
1060: FF FF 7F F8 FF FF 7F 73  30 35 37 02 80 45 10 80  .......s057..E..
1070: 06 C1 01 01 06 C1 01 01  66 64 69 31 02 80 45 54  ........fdi1..ET
1080: 80 F8 FF FF 7F F8 FF FF  7F 73 65 31 38 02 80 1C  .........se18...
1090: 10 80 52 54 80 F8 FF FF  7F F8 FF FF 7F 73 30 35  ..RT.........s05
10A0: 37 45 10 80 F0 FF FF 7F  F0 FF FF 7F 6F 76 6C 31  7E..........ovl1
10B0: 02 80 45 54 80 F8 FF FF  7F F8 FF FF 7F 73 30 35  ..ET.........s05
10C0: 38 02 80 45 54 80 F8 FF  FF 7F F8 FF FF 7F 73 65  8..ET.........se
10D0: 31 38 02 80 4E 00 06 C1  01 01 29 08 F2 C0 01 01  18..N.....).....
10E0: 31 29 08 F2 C0 01 01 32  29 08 F2 C0 01 01 47 1C  1).....2).....G.
10F0: 30 80 80 06 C1 01 01 52  54 80 F8 FF FF 7F F8 FF  0......RT.......
1100: FF 7F 73 30 35 38 45 10  80 F0 FF FF 7F F0 FF FF  ..s058E.........
1110: 7F 6F 76 6C 31 02 80 45  54 80 F8 FF FF 7F F8 FF  .ovl1..ET.......
1120: FF 7F 73 30 35 39 02 80  45 54 80 F8 FF FF 7F F8  ..s059..ET......
1130: FF FF 7F 73 65 31 39 02  80 27 0B 06 C1 01 01 07  ...se19..'......
1140: 1C 10 80 27 0B 03 C1 01  01 17 1D 60 80 23 2A 0B  ...'.......`.#*.
1150: 06 C1 01 01 29 08 F2 C0  01 01 48 29 08 06 C1 01  ....).....H)....
1160: 01 03 29 08 F2 C0 01 01  49 81 00 F2 C0 01 01 1D  ..).....I.......
1170: 61 80 23 29 08 F2 C0 01  01 4A 29 08 06 C1 01 01  a.#).....J).....
1180: 04 52 54 80 F8 FF FF 7F  F8 FF FF 7F 73 30 35 39  .RT.........s059
1190: 45 4D 80 F0 FF FF 7F F0  FF FF 7F 77 68 6F 31 02  EM.........who1.
11A0: 80 1C 11 80 9F 52 80 F2  C0 01 01 F2 C0 01 01 6B  .....R.........k
11B0: 69 6C 6C 02 80 34 62 80  77 4F 80 12 80 1C 14 80  ill..4b.wO......
11C0: 4E 01 06 C1 01 01 4E 01  03 C1 01 01 4E 01 04 C1  N.....N.....N...
11D0: 01 01 4E 01 05 C1 01 01  4E 01 02 C1 01 01 81 01  ..N.....N.......
11E0: F2 C0 01 01 29 0B 08 C1  01 01 06 29 0B 0B C1 01  ....)......)....
11F0: 01 31 29 0B F2 C0 01 01  A2 4A F2 C0 01 01 08 C1  .1)......J......
1200: 01 01 4E 01 F2 C0 01 01  4E 00 08 C1 01 01 4E 00  ..N.....N.....N.
1210: 09 C1 01 01 4E 00 0A C1  01 01 4E 00 0B C1 01 01  ....N.....N.....
1220: 4E 00 F2 C0 01 01 80 09  C1 01 01 80 0A C1 01 01  N...............
1230: 80 0B C1 01 01 6C 08 C1  01 01 02 80 50 80 6C 09  .....l......P.l.
1240: C1 01 01 02 80 50 80 6C  0A C1 01 01 02 80 50 80  .....P.l......P.
1250: 9F 52 80 F2 C0 01 01 F2  C0 01 01 73 74 72 30 02  .R.........str0.
1260: 80 4E 01 F0 FF FF 7F 27  0B 0B C1 01 01 32 27 0B  .N.....'.....2'.
1270: F2 C0 01 01 A3 1C 1B 80  45 54 80 F8 FF FF 7F F8  ........ET......
1280: FF FF 7F 73 30 36 30 02  80 45 4D 80 F0 FF FF 7F  ...s060..EM.....
1290: F0 FF FF 7F 77 68 69 31  02 80 1C 14 80 9F 63 80  ....whi1......c.
12A0: 08 C1 01 01 08 C1 01 01  6D 61 69 6E 02 80 1C 14  ........main....
12B0: 80 2A 0B 0B C1 01 01 45  10 80 F0 FF FF 7F F0 FF  .*.....E........
12C0: FF 7F 6F 76 6C 31 02 80  45 10 80 F0 FF FF 7F F0  ..ovl1..E.......
12D0: FF FF 7F 62 6C 6F 6E 02  80 45 4D 80 F0 FF FF 7F  ...blon..EM.....
12E0: F0 FF FF 7F 62 6C 6F 6E  02 80 45 54 80 F8 FF FF  ....blon..ET....
12F0: 7F F8 FF FF 7F 73 30 36  31 02 80 1C 64 80 45 10  .....s061...d.E.
1300: 80 F0 FF FF 7F F0 FF FF  7F 62 6C 6F 66 02 80 1C  .........blof...
1310: 65 80 4A 0B C1 01 01 08  C1 01 01 2B 08 C1 01 01  e.J........+....
1320: 66 80 23 2B 08 C1 01 01  67 80 23 6F 76 0B C1 01  f.#+....g.#ov...
1330: 01 52 54 80 F8 FF FF 7F  F8 FF FF 7F 73 30 36 31  .RT.........s061
1340: 45 10 80 F0 FF FF 7F F0  FF FF 7F 6F 76 6C 31 02  E..........ovl1.
1350: 80 45 54 80 F8 FF FF 7F  F8 FF FF 7F 73 30 36 32  .ET.........s062
1360: 02 80 2B 08 C1 01 01 68  80 23 52 54 80 F8 FF FF  ..+....h.#RT....
1370: 7F F8 FF FF 7F 73 30 36  32 45 10 80 F0 FF FF 7F  .....s062E......
1380: F0 FF FF 7F 6F 76 6C 31  02 80 45 54 80 F8 FF FF  ....ovl1..ET....
1390: 7F F8 FF FF 7F 73 30 36  33 02 80 29 0B 08 C1 01  .....s063..)....
13A0: 01 07 2B 08 C1 01 01 69  80 23 1D 6A 80 23 52 54  ..+....i.#.j.#RT
13B0: 80 F8 FF FF 7F F8 FF FF  7F 73 30 36 33 45 10 80  .........s063E..
13C0: F0 FF FF 7F F0 FF FF 7F  62 6C 6F 6E 02 80 45 4D  ........blon..EM
13D0: 80 F0 FF FF 7F F0 FF FF  7F 62 6C 6F 6E 02 80 45  .........blon..E
13E0: 54 80 F8 FF FF 7F F8 FF  FF 7F 73 30 36 34 02 80  T.........s064..
13F0: 1C 39 80 45 10 80 F0 FF  FF 7F F0 FF FF 7F 62 6C  .9.E..........bl
1400: 6F 66 02 80 2B 08 C1 01  01 6B 80 23 2B 08 C1 01  of..+....k.#+...
1410: 01 6C 80 23 52 54 80 F8  FF FF 7F F8 FF FF 7F 73  .l.#RT.........s
1420: 30 36 34 45 10 80 F0 FF  FF 7F F0 FF FF 7F 6F 76  064E..........ov
1430: 6C 31 02 80 45 54 80 F8  FF FF 7F F8 FF FF 7F 73  l1..ET.........s
1440: 30 36 35 02 80 7C 00 0B  C1 01 01 2B 0B C1 01 01  065..|.....+....
1450: 6D 80 23 7C 01 0B C1 01  01 9F 63 80 09 C1 01 01  m.#|......c.....
1460: 09 C1 01 01 6D 61 69 6E  02 80 1C 39 80 52 54 80  ....main...9.RT.
1470: F8 FF FF 7F F8 FF FF 7F  73 30 36 35 45 54 80 F8  ........s065ET..
1480: FF FF 7F F8 FF FF 7F 73  31 30 34 02 80 4A 0B C1  .......s104..J..
1490: 01 01 09 C1 01 01 2B 08  C1 01 01 6E 80 23 29 0B  ......+....n.#).
14A0: F2 C0 01 01 A4 52 54 80  F8 FF FF 7F F8 FF FF 7F  .....RT.........
14B0: 73 31 30 34 45 10 80 F0  FF FF 7F F0 FF FF 7F 6F  s104E..........o
14C0: 76 6C 31 02 80 45 54 80  F8 FF FF 7F F8 FF FF 7F  vl1..ET.........
14D0: 73 30 36 37 02 80 9F 63  80 0A C1 01 01 0A C1 01  s067...c........
14E0: 01 6D 61 69 6E 02 80 4A  0B C1 01 01 0A C1 01 01  .main..J........
14F0: 2B 08 C1 01 01 6F 80 23  7B 0B C1 01 01 29 08 0B  +....o.#{....)..
1500: C1 01 01 0F 29 08 0B C1  01 01 10 2B 0B C1 01 01  ....)......+....
1510: 70 80 23 2B 08 C1 01 01  71 80 23 52 54 80 F8 FF  p.#+....q.#RT...
1520: FF 7F F8 FF FF 7F 73 30  36 37 45 10 80 F0 FF FF  ......s067E.....
1530: 7F F0 FF FF 7F 6F 76 6C  31 02 80 45 54 80 F8 FF  .....ovl1..ET...
1540: FF 7F F8 FF FF 7F 73 30  36 36 02 80 29 08 0B C1  ......s066..)...
1550: 01 01 19 2B 0B C1 01 01  72 80 23 29 08 0B C1 01  ...+....r.#)....
1560: 01 1A 45 4D 80 F0 FF FF  7F F0 FF FF 7F 77 68 6F  ..EM.........who
1570: 31 02 80 1C 11 80 9F 52  80 F2 C0 01 01 F2 C0 01  1......R........
1580: 01 6B 69 6C 6C 02 80 52  54 80 F8 FF FF 7F F8 FF  .kill..RT.......
1590: FF 7F 73 30 36 36 34 73  80 77 4F 80 50 80 1C 14  ..s0664s.wO.P...
15A0: 80 4E 01 08 C1 01 01 4E  01 09 C1 01 01 4E 01 0A  .N.....N.....N..
15B0: C1 01 01 4E 01 F2 C0 01  01 37 02 80 74 80 75 80  ...N.....7..t.u.
15C0: 44 80 29 0B 0B C1 01 01  34 4E 00 0C C1 01 01 1C  D.).....4N......
15D0: 11 80 4E 01 F0 FF FF 7F  4E 01 0B C1 01 01 80 0C  ..N.....N.......
15E0: C1 01 01 9F 52 80 0C C1  01 01 0C C1 01 01 73 74  ....R.........st
15F0: 72 30 02 80 79 00 0C C1  01 01 F4 C0 01 01 45 54  r0..y.........ET
1600: 80 F8 FF FF 7F F8 FF FF  7F 73 30 36 38 02 80 1C  .........s068...
1610: 14 80 45 4D 80 F0 FF FF  7F F0 FF FF 7F 77 68 69  ..EM.........whi
1620: 31 02 80 55 54 80 F8 FF  FF 7F F8 FF FF 7F 73 30  1..UT.........s0
1630: 36 38 45 10 80 F0 FF FF  7F F0 FF FF 7F 6F 76 6C  68E..........ovl
1640: 31 02 80 45 54 80 F8 FF  FF 7F F8 FF FF 7F 73 30  1..ET.........s0
1650: 36 39 02 80 27 0B 0C C1  01 01 06 1C 11 80 52 54  69..'.........RT
1660: 80 F8 FF FF 7F F8 FF FF  7F 73 30 36 39 45 10 80  .........s069E..
1670: F0 FF FF 7F F0 FF FF 7F  6F 76 6C 31 02 80 45 54  ........ovl1..ET
1680: 80 F8 FF FF 7F F8 FF FF  7F 73 30 37 30 02 80 1C  .........s070...
1690: 11 80 2A 0B 0C C1 01 01  55 54 80 F8 FF FF 7F F8  ..*.....UT......
16A0: FF FF 7F 73 30 37 30 45  10 80 F0 FF FF 7F F0 FF  ...s070E........
16B0: FF 7F 6F 76 6C 31 02 80  45 54 80 F8 FF FF 7F F8  ..ovl1..ET......
16C0: FF FF 7F 73 30 37 31 02  80 2B 0C C1 01 01 76 80  ...s071..+....v.
16D0: 23 52 54 80 F8 FF FF 7F  F8 FF FF 7F 73 30 37 31  #RT.........s071
16E0: 45 10 80 F0 FF FF 7F F0  FF FF 7F 6F 76 6C 31 02  E..........ovl1.
16F0: 80 45 54 80 F8 FF FF 7F  F8 FF FF 7F 73 30 37 32  .ET.........s072
1700: 02 80 37 77 80 78 80 79  80 7A 80 2B 0B C1 01 01  ..7w.x.y.z.+....
1710: 7B 80 23 2B 0B C1 01 01  7C 80 23 52 54 80 F8 FF  {.#+....|.#RT...
1720: FF 7F F8 FF FF 7F 73 30  37 32 45 10 80 F0 FF FF  ......s072E.....
1730: 7F F0 FF FF 7F 6F 76 6C  31 02 80 45 54 80 F8 FF  .....ovl1..ET...
1740: FF 7F F8 FF FF 7F 73 30  37 33 02 80 4B 0C C1 01  ......s073..K...
1750: 01 7D 80 37 7E 80 7F 80  79 80 80 80 2B 0B C1 01  .}.7~...y...+...
1760: 01 81 80 23 2B 0B C1 01  01 82 80 23 37 83 80 84  ...#+......#7...
1770: 80 75 80 85 80 2B 0C C1  01 01 86 80 23 6F 76 0C  .u...+......#ov.
1780: C1 01 01 52 54 80 F8 FF  FF 7F F8 FF FF 7F 73 30  ...RT.........s0
1790: 37 33 45 10 80 F0 FF FF  7F F0 FF FF 7F 6F 76 6C  73E..........ovl
17A0: 31 02 80 45 54 80 F8 FF  FF 7F F8 FF FF 7F 73 30  1..ET.........s0
17B0: 37 34 02 80 2B 0C C1 01  01 87 80 23 2B 0B C1 01  74..+......#+...
17C0: 01 88 80 23 52 54 80 F8  FF FF 7F F8 FF FF 7F 73  ...#RT.........s
17D0: 30 37 34 45 10 80 F0 FF  FF 7F F0 FF FF 7F 6F 76  074E..........ov
17E0: 6C 31 02 80 45 54 80 F8  FF FF 7F F8 FF FF 7F 73  l1..ET.........s
17F0: 30 37 35 02 80 4B 0C C1  01 01 44 80 2B 0C C1 01  075..K....D.+...
1800: 01 89 80 23 2B 0C C1 01  01 8A 80 23 6F 76 0C C1  ...#+......#ov..
1810: 01 01 52 54 80 F8 FF FF  7F F8 FF FF 7F 73 30 37  ..RT.........s07
1820: 35 45 10 80 F0 FF FF 7F  F0 FF FF 7F 6F 76 6C 31  5E..........ovl1
1830: 02 80 45 54 80 F8 FF FF  7F F8 FF FF 7F 73 30 37  ..ET.........s07
1840: 36 02 80 2B 0C C1 01 01  8B 80 23 29 08 0C C1 01  6..+......#)....
1850: 01 03 2B 0C C1 01 01 8C  80 23 5D 02 80 15 80 45  ..+......#]....E
1860: 4D 80 F0 FF FF 7F F0 FF  FF 7F 77 68 6F 31 02 80  M.........who1..
1870: 1C 15 80 29 08 0C C1 01  01 04 52 54 80 F8 FF FF  ...)......RT....
1880: 7F F8 FF FF 7F 73 30 37  36 9F 52 80 0C C1 01 01  .....s076.R.....
1890: 0C C1 01 01 6B 69 6C 6C  02 80 35 8D 80 78 1C 14  ....kill..5..x..
18A0: 80 1C 14 80 45 10 80 F8  FF FF 7F F8 FF FF 7F 66  ....E..........f
18B0: 64 6F 31 02 80 1C 11 80  45 4D 80 F0 FF FF 7F F0  do1.....EM......
18C0: FF FF 7F 77 68 69 31 02  80 1C 11 80 4E 00 F3 C0  ...whi1.....N...
18D0: 01 01 4E 00 F5 C0 01 01  4E 00 F2 C0 01 01 4E 00  ..N.....N.....N.
18E0: FA C0 01 01 4E 00 F6 C0  01 01 4E 00 F7 C0 01 01  ....N.....N.....
18F0: 4E 00 FB C0 01 01 4E 00  F9 C0 01 01 4E 00 F0 FF  N.....N.....N...
1900: FF 7F 4E 00 F8 C0 01 01  79 00 F6 C0 01 01 F2 C0  ..N.....y.......
1910: 01 01 79 00 F7 C0 01 01  F2 C0 01 01 80 F3 C0 01  ..y.............
1920: 01 80 F5 C0 01 01 80 F2  C0 01 01 80 FA C0 01 01  ................
1930: 80 F6 C0 01 01 80 F7 C0  01 01 80 FB C0 01 01 80  ................
1940: F9 C0 01 01 80 F8 C0 01  01 80 F0 FF FF 7F 29 0B  ..............).
1950: F0 FF FF 7F 10 29 0B F2  C0 01 01 9D 29 0B FA C0  .....)......)...
1960: 01 01 03 29 0B FB C0 01  01 03 29 0B F9 C0 01 01  ...)......).....
1970: 03 29 0B F8 C0 01 01 03  29 0B F7 C0 01 01 03 29  .)......)......)
1980: 0B F6 C0 01 01 2B 29 0B  F5 C0 01 01 44 29 0B F0  .....+).....D)..
1990: FF FF 7F 13 29 0B F3 C0  01 01 46 29 08 F2 C0 01  ....).....F)....
19A0: 01 4B 29 08 F2 C0 01 01  4C 4A F3 C0 01 01 F0 FF  .K).....LJ......
19B0: FF 7F 6F 76 F3 C0 01 01  45 8E 80 F8 FF FF 7F F8  ..ov....E.......
19C0: FF FF 7F 73 30 30 30 02  80 45 10 80 F8 FF FF 7F  ...s000..E......
19D0: F8 FF FF 7F 66 64 69 31  02 80 1C 15 80 2B F3 C0  ....fdi1.....+..
19E0: 01 01 8F 80 23 52 8E 80  F8 FF FF 7F F8 FF FF 7F  ....#R..........
19F0: 73 30 30 30 45 10 80 F0  FF FF 7F F0 FF FF 7F 6F  s000E..........o
1A00: 76 6C 31 02 80 45 8E 80  F8 FF FF 7F F8 FF FF 7F  vl1..E..........
1A10: 73 30 30 31 02 80 29 08  F5 C0 01 01 2F 79 00 F3  s001..)...../y..
1A20: C0 01 01 F2 C0 01 01 27  0B F0 FF FF 7F 14 2B F3  .......'......+.
1A30: C0 01 01 90 80 23 2A 0B  F0 FF FF 7F 29 08 F5 C0  .....#*.....)...
1A40: 01 01 30 4A F0 FF FF 7F  F5 C0 01 01 1C 1B 80 52  ..0J...........R
1A50: 8E 80 F8 FF FF 7F F8 FF  FF 7F 73 30 30 31 45 8E  ..........s001E.
1A60: 80 F8 FF FF 7F F8 FF FF  7F 73 30 30 32 02 80 5C  .........s002..\
1A70: 00 13 80 5C 01 13 80 4A  F3 C0 01 01 F2 C0 01 01  ...\...J........
1A80: 2B F5 C0 01 01 91 80 23  29 08 F5 C0 01 01 37 2B  +......#).....7+
1A90: F5 C0 01 01 92 80 23 29  08 F5 C0 01 01 38 6F 76  ......#).....8ov
1AA0: F3 C0 01 01 6F 76 F5 C0  01 01 52 8E 80 F8 FF FF  ....ov....R.....
1AB0: 7F F8 FF FF 7F 73 30 30  32 45 10 80 F0 FF FF 7F  .....s002E......
1AC0: F0 FF FF 7F 6F 76 6C 31  02 80 45 8E 80 F8 FF FF  ....ovl1..E.....
1AD0: 7F F8 FF FF 7F 73 30 30  34 02 80 2B F5 C0 01 01  .....s004..+....
1AE0: 93 80 23 29 08 F5 C0 01  01 39 2B F5 C0 01 01 94  ..#).....9+.....
1AF0: 80 23 29 08 F5 C0 01 01  3A 52 8E 80 F8 FF FF 7F  .#).....:R......
1B00: F8 FF FF 7F 73 30 30 34  45 10 80 F0 FF FF 7F F0  ....s004E.......
1B10: FF FF 7F 6F 76 6C 31 02  80 45 8E 80 F8 FF FF 7F  ...ovl1..E......
1B20: F8 FF FF 7F 73 30 30 33  02 80 2B F2 C0 01 01 95  ....s003..+.....
1B30: 80 23 29 08 F5 C0 01 01  31 29 08 F2 C0 01 01 4D  .#).....1).....M
1B40: 2B F2 C0 01 01 96 80 23  29 08 F2 C0 01 01 4E 29  +......#).....N)
1B50: 08 F5 C0 01 01 32 29 0B  F3 C0 01 01 47 29 0B F0  .....2).....G)..
1B60: FF FF 7F 11 4A F3 C0 01  01 F2 C0 01 01 6F 76 F3  ....J........ov.
1B70: C0 01 01 7B F3 C0 01 01  4E 01 F0 FF FF 7F 52 8E  ...{....N.....R.
1B80: 80 F8 FF FF 7F F8 FF FF  7F 73 30 30 33 45 8E 80  .........s003E..
1B90: F8 FF FF 7F F8 FF FF 7F  73 30 30 35 02 80 29 08  ........s005..).
1BA0: F2 C0 01 01 4D 29 08 F3  C0 01 01 11 2B F3 C0 01  ....M)......+...
1BB0: 01 97 80 23 29 08 F3 C0  01 01 12 29 08 F2 C0 01  ...#)......)....
1BC0: 01 4E 52 8E 80 F8 FF FF  7F F8 FF FF 7F 73 30 30  .NR..........s00
1BD0: 35 45 8E 80 F8 FF FF 7F  F8 FF FF 7F 73 30 30 36  5E..........s006
1BE0: 02 80 79 00 F5 C0 01 01  F6 C0 01 01 27 0B F6 C0  ..y.........'...
1BF0: 01 01 2C 2B F6 C0 01 01  98 80 23 2A 0B F6 C0 01  ..,+......#*....
1C00: 01 7B F5 C0 01 01 29 08  F2 C0 01 01 4F 2B F2 C0  .{....).....O+..
1C10: 01 01 99 80 23 29 08 F3  C0 01 01 13 29 08 F5 C0  ....#)......)...
1C20: 01 01 09 29 08 F2 C0 01  01 50 2B F5 C0 01 01 9A  ...).....P+.....
1C30: 80 23 29 08 F5 C0 01 01  0A 29 08 F3 C0 01 01 14  .#)......)......
1C40: 52 8E 80 F8 FF FF 7F F8  FF FF 7F 73 30 30 36 45  R..........s006E
1C50: 8E 80 F8 FF FF 7F F8 FF  FF 7F 73 30 30 37 02 80  ..........s007..
1C60: 29 08 F5 C0 01 01 0B 29  08 F2 C0 01 01 51 2B F2  )......).....Q+.
1C70: C0 01 01 9B 80 23 29 08  F2 C0 01 01 52 29 08 F5  .....#).....R)..
1C80: C0 01 01 0C 52 8E 80 F8  FF FF 7F F8 FF FF 7F 73  ....R..........s
1C90: 30 30 37 45 10 80 F0 FF  FF 7F F0 FF FF 7F 6F 76  007E..........ov
1CA0: 6C 31 02 80 45 8E 80 F8  FF FF 7F F8 FF FF 7F 73  l1..E..........s
1CB0: 30 30 38 02 80 4B F6 C0  01 01 9C 80 27 08 F2 C0  008..K......'...
1CC0: 01 01 8D 4E 00 F0 FF FF  7F 29 08 F5 C0 01 01 33  ...N.....).....3
1CD0: 2B F5 C0 01 01 9D 80 23  29 08 F5 C0 01 01 34 2B  +......#).....4+
1CE0: F5 C0 01 01 9E 80 23 2A  08 F2 C0 01 01 6F 76 F6  ......#*.....ov.
1CF0: C0 01 01 52 8E 80 F8 FF  FF 7F F8 FF FF 7F 73 30  ...R..........s0
1D00: 30 38 45 10 80 F0 FF FF  7F F0 FF FF 7F 6F 76 6C  08E..........ovl
1D10: 31 02 80 45 8E 80 F8 FF  FF 7F F8 FF FF 7F 73 30  1..E..........s0
1D20: 30 39 02 80 29 08 F5 C0  01 01 35 29 08 F2 C0 01  09..).....5)....
1D30: 01 0F 2B F2 C0 01 01 9F  80 23 29 08 F2 C0 01 01  ..+......#).....
1D40: 10 29 08 F5 C0 01 01 36  29 08 F5 C0 01 01 2B 2B  .).....6).....++
1D50: F5 C0 01 01 A0 80 23 29  08 F5 C0 01 01 2C 52 8E  ......#).....,R.
1D60: 80 F8 FF FF 7F F8 FF FF  7F 73 30 30 39 45 8E 80  .........s009E..
1D70: F8 FF FF 7F F8 FF FF 7F  73 30 31 30 02 80 29 08  ........s010..).
1D80: F2 C0 01 01 11 29 08 F5  C0 01 01 2D 29 08 F5 C0  .....).....-)...
1D90: 01 01 2E 79 00 F3 C0 01  01 F5 C0 01 01 79 00 F0  ...y.........y..
1DA0: FF FF 7F F5 C0 01 01 79  00 FA C0 01 01 F5 C0 01  .......y........
1DB0: 01 79 00 F9 C0 01 01 F5  C0 01 01 79 00 FB C0 01  .y.........y....
1DC0: 01 F5 C0 01 01 79 00 F8  C0 01 01 F5 C0 01 01 79  .....y.........y
1DD0: 00 F7 C0 01 01 F5 C0 01  01 79 00 F6 C0 01 01 F5  .........y......
1DE0: C0 01 01 29 0B F5 C0 01  01 45 29 08 F5 C0 01 01  ...).....E).....
1DF0: 05 2B F5 C0 01 01 A1 80  23 29 08 F5 C0 01 01 06  .+......#)......
1E00: 29 08 F2 C0 01 01 12 27  0B F2 C0 01 01 9E 2B F2  )......'......+.
1E10: C0 01 01 A2 80 23 2A 0B  F2 C0 01 01 52 8E 80 F8  .....#*.....R...
1E20: FF FF 7F F8 FF FF 7F 73  30 31 30 45 10 80 F0 FF  .......s010E....
1E30: FF 7F F0 FF FF 7F 6F 76  6C 31 02 80 45 8E 80 F8  ......ovl1..E...
1E40: FF FF 7F F8 FF FF 7F 73  30 31 31 02 80 79 00 F6  .......s011..y..
1E50: C0 01 01 F2 C0 01 01 2B  F6 C0 01 01 A3 80 23 45  .......+......#E
1E60: 10 80 F0 FF FF 7F F0 FF  FF 7F 66 64 6F 31 02 80  ..........fdo1..
1E70: 1C 11 80 02 06 10 02 80  00 82 1E 29 0B F0 FF FF  ...........)....
1E80: 7F 0C 5C 00 02 80 5C 01  02 80 4E 00 F0 FF FF 7F  ..\...\...N.....
1E90: 80 F0 FF FF 7F 46 00 45  10 80 F0 FF FF 7F F0 FF  .....F.E........
1EA0: FF 7F 66 64 69 31 02 80  20 00 21 00              ..fdi1.. .!.    
```

#### Opcodes

```
  0: 0x0540 [0x20] SET_CLI_EVENT_UC_FLAG: Lock player control
  1: 0x0542 [0x42] SET_CLI_EVENT_CANCEL_DATA()
  2: 0x0543 [0x46] CAMERA_CONTROL: Disable user control
  3: 0x0545 [0x45] LOAD_SCHEDULED_TASK: Load scheduler "fdo1" with entities [EventEntity, EventEntity], work=[200*, 0*]
  4: 0x0556 [0x1C] WAIT(60* ticks)
  5: 0x0559 [0x38] SET_CLIENT_EVENT_MODE(mode=19*)
  6: 0x055C [0x29] REQ_SET_WAIT(priority=0x08, entity_id=LocalPlayer, tag_num=0x04)
  7: 0x0563 [0x33] EventEntity->Render.Flags0 |= 0x200000 // Bit 21 (flag=0x01)
  8: 0x0565 [0x29] REQ_SET_WAIT(priority=0x0B, entity_id=LocalPlayer, tag_num=0x07)
  9: 0x056C [0x29] REQ_SET_WAIT(priority=0x0B, entity_id=Tenzen (ID: 16892147/0x0101C0F3), tag_num=0x38)
 10: 0x0573 [0x29] REQ_SET_WAIT(priority=0x0B, entity_id=Prishe (ID: 16892146/0x0101C0F2), tag_num=0x8F)
 11: 0x057A [0x4E] SET_ENTITY_HIDE_FLAG: Show Prishe (ID: 16892146/0x0101C0F2)
 12: 0x0580 [0x4E] SET_ENTITY_HIDE_FLAG: Show Tenzen (ID: 16892147/0x0101C0F3)
 13: 0x0586 [0x80] LOAD_WAIT(entity=Prishe (ID: 16892146/0x0101C0F2))
 14: 0x058B [0x80] LOAD_WAIT(entity=Tenzen (ID: 16892147/0x0101C0F3))
 15: 0x0590 [0x29] REQ_SET_WAIT(priority=0x0B, entity_id=Wooden Gate (ID: 16892137/0x0101C0E9), tag_num=0x02)
 16: 0x0597 [0x1C] WAIT(120* ticks)
 17: 0x059A [0x79] Tenzen (ID: 16892147/0x0101C0F3) looks at Prishe (ID: 16892146/0x0101C0F2) (Basic look)
 18: 0x05A4 [0x27] REQ_SET(priority=0x0B, entity_id=Tenzen (ID: 16892147/0x0101C0F3), tag_num=0x39)
 19: 0x05AB [0x27] REQ_SET(priority=0x0B, entity_id=Prishe (ID: 16892146/0x0101C0F2), tag_num=0x90)
 20: 0x05B2 [0x4E] SET_ENTITY_HIDE_FLAG: Hide LocalPlayer
 21: 0x05B8 [0x9F] LOAD_SCHEDULED_TASK_ALT: Load scheduler "kill" with entities [EventEntity, EventEntity], work=[83*, 0*]
 22: 0x05C9 [0x45] LOAD_SCHEDULED_TASK: Load scheduler "blof" with entities [LocalPlayer, LocalPlayer], work=[200*, 0*]
 23: 0x05DA [0x45] LOAD_SCHEDULED_TASK: Load scheduler "s058" with entities [EventEntity, EventEntity], work=[120*, 0*]
 24: 0x05EB [0x45] LOAD_SCHEDULED_TASK: Load scheduler "fdi1" with entities [EventEntity, EventEntity], work=[200*, 0*]
 25: 0x05FC [0x1C] WAIT(190* ticks)
 26: 0x05FF [0x52] END_LOAD_SCHEDULER: End scheduler "s058" with entities [EventEntity, EventEntity], work=120*
 27: 0x060E [0x45] LOAD_SCHEDULED_TASK: Load scheduler "s099" with entities [EventEntity, EventEntity], work=[120*, 0*]
 28: 0x061F [0x29] REQ_SET_WAIT(priority=0x0B, entity_id=??? (ID: 16892148/0x0101C0F4), tag_num=0x01)
 29: 0x0626 [0x1C] WAIT(100* ticks)
 30: 0x0629 [0x79] Tenzen (ID: 16892147/0x0101C0F3) looks at ??? (ID: 16892148/0x0101C0F4) (Basic look)
 31: 0x0633 [0x2B] Tenzen (ID: 16892147/0x0101C0F3) [7281*]:
    → "This appears to be some sort of storage room. Can the God of Twilight truly reside here...?"
 32: 0x063A [0x23] WAIT_FOR_DIALOG_INTERACTION
 33: 0x063B [0x4E] SET_ENTITY_HIDE_FLAG: Show LocalPlayer
 34: 0x0641 [0x27] REQ_SET(priority=0x0B, entity_id=LocalPlayer, tag_num=0x08)
 35: 0x0648 [0x1C] WAIT(80* ticks)
 36: 0x064B [0x29] REQ_SET_WAIT(priority=0x0B, entity_id=Wooden Gate (ID: 16892137/0x0101C0E9), tag_num=0x03)
 37: 0x0652 [0x1C] WAIT(60* ticks)
 38: 0x0655 [0x52] END_LOAD_SCHEDULER: End scheduler "s099" with entities [EventEntity, EventEntity], work=120*
 39: 0x0664 [0x45] LOAD_SCHEDULED_TASK: Load scheduler "s060" with entities [EventEntity, EventEntity], work=[120*, 0*]
 40: 0x0675 [0x7B] Tenzen (ID: 16892147/0x0101C0F3) stops talking
 41: 0x067A [0x29] REQ_SET_WAIT(priority=0x0B, entity_id=??? (ID: 16892148/0x0101C0F4), tag_num=0x02)
 42: 0x0681 [0x1C] WAIT(60* ticks)
 43: 0x0684 [0x4E] SET_ENTITY_HIDE_FLAG: Hide Prishe (ID: 16892146/0x0101C0F2)
 44: 0x068A [0x1C] WAIT(10* ticks)
 45: 0x068D [0x79] Tenzen (ID: 16892147/0x0101C0F3) looks at ??? (ID: 16892148/0x0101C0F4) (Basic look)
 46: 0x0697 [0x1C] WAIT(20* ticks)
 47: 0x069A [0x52] END_LOAD_SCHEDULER: End scheduler "s060" with entities [EventEntity, EventEntity], work=120*
 48: 0x06A9 [0x45] LOAD_SCHEDULED_TASK: Load scheduler "ovl1" with entities [LocalPlayer, LocalPlayer], work=[200*, 0*]
 49: 0x06BA [0x45] LOAD_SCHEDULED_TASK: Load scheduler "s061" with entities [EventEntity, EventEntity], work=[120*, 0*]
 50: 0x06CB [0x2A] GET_REQ_LEVEL(level=11, entity_id=Tenzen (ID: 16892147/0x0101C0F3))
 51: 0x06D1 [0x4A] Tenzen (ID: 16892147/0x0101C0F3) looks at ??? (ID: 16892148/0x0101C0F4)
 52: 0x06DA [0x6F] WAIT_FRAME_DELAY: Yield until WaitTime reaches zero
 53: 0x06DB [0x76] CHECK_ENTITY_RENDER_FLAGS: Wait until Tenzen (ID: 16892147/0x0101C0F3) Render.Flags0 and Render.Flags3 conditions are met
 54: 0x06E0 [0x5C] MUSIC_CONTROL: Set Idle (Day) music to song 224*
 55: 0x06E4 [0x5C] MUSIC_CONTROL: Set Idle (Night) music to song 224*
 56: 0x06E8 [0x29] REQ_SET_WAIT(priority=0x08, entity_id=Tenzen (ID: 16892147/0x0101C0F3), tag_num=0x15)
 57: 0x06EF [0x2B] Tenzen (ID: 16892147/0x0101C0F3) [7282*]:
    → "!?"
 58: 0x06F6 [0x23] WAIT_FOR_DIALOG_INTERACTION
 59: 0x06F7 [0x29] REQ_SET_WAIT(priority=0x08, entity_id=Tenzen (ID: 16892147/0x0101C0F3), tag_num=0x16)
 60: 0x06FE [0x52] END_LOAD_SCHEDULER: End scheduler "s061" with entities [EventEntity, EventEntity], work=120*
 61: 0x070D [0x45] LOAD_SCHEDULED_TASK: Load scheduler "ovl1" with entities [LocalPlayer, LocalPlayer], work=[200*, 0*]
 62: 0x071E [0x45] LOAD_SCHEDULED_TASK: Load scheduler "s062" with entities [EventEntity, EventEntity], work=[120*, 0*]
 63: 0x072F [0x1C] WAIT(190* ticks)
 64: 0x0732 [0x52] END_LOAD_SCHEDULER: End scheduler "s062" with entities [EventEntity, EventEntity], work=120*
 65: 0x0741 [0x45] LOAD_SCHEDULED_TASK: Load scheduler "ovl1" with entities [LocalPlayer, LocalPlayer], work=[200*, 0*]
 66: 0x0752 [0x45] LOAD_SCHEDULED_TASK: Load scheduler "s063" with entities [EventEntity, EventEntity], work=[120*, 0*]
 67: 0x0763 [0x1C] WAIT(190* ticks)
 68: 0x0766 [0x52] END_LOAD_SCHEDULER: End scheduler "s063" with entities [EventEntity, EventEntity], work=120*
 69: 0x0775 [0x45] LOAD_SCHEDULED_TASK: Load scheduler "ovl1" with entities [LocalPlayer, LocalPlayer], work=[200*, 0*]
 70: 0x0786 [0x45] LOAD_SCHEDULED_TASK: Load scheduler "s064" with entities [EventEntity, EventEntity], work=[120*, 0*]
 71: 0x0797 [0x1C] WAIT(200* ticks)
 72: 0x079A [0x4E] SET_ENTITY_HIDE_FLAG: Show Prishe (ID: 16892146/0x0101C0F2)
 73: 0x07A0 [0x80] LOAD_WAIT(entity=Prishe (ID: 16892146/0x0101C0F2))
 74: 0x07A5 [0x29] REQ_SET_WAIT(priority=0x0B, entity_id=LocalPlayer, tag_num=0x09)
 75: 0x07AC [0x29] REQ_SET_WAIT(priority=0x0B, entity_id=Tenzen (ID: 16892147/0x0101C0F3), tag_num=0x3A)
 76: 0x07B3 [0x29] REQ_SET_WAIT(priority=0x0B, entity_id=Prishe (ID: 16892146/0x0101C0F2), tag_num=0x91)
 77: 0x07BA [0x29] REQ_SET_WAIT(priority=0x0B, entity_id=??? (ID: 16892148/0x0101C0F4), tag_num=0x03)
 78: 0x07C1 [0x79] LocalPlayer looks at ??? (ID: 16892148/0x0101C0F4) (Basic look)
 79: 0x07CB [0x79] Prishe (ID: 16892146/0x0101C0F2) looks at ??? (ID: 16892148/0x0101C0F4) (Basic look)
 80: 0x07D5 [0x79] Tenzen (ID: 16892147/0x0101C0F3) looks at ??? (ID: 16892148/0x0101C0F4) (Basic look)
 81: 0x07DF [0x52] END_LOAD_SCHEDULER: End scheduler "s064" with entities [EventEntity, EventEntity], work=120*
 82: 0x07EE [0x27] REQ_SET(priority=0x0B, entity_id=Tenzen (ID: 16892147/0x0101C0F3), tag_num=0x3B)
 83: 0x07F5 [0x1C] WAIT(10* ticks)
 84: 0x07F8 [0x45] LOAD_SCHEDULED_TASK: Load scheduler "ovl1" with entities [LocalPlayer, LocalPlayer], work=[200*, 0*]
 85: 0x0809 [0x45] LOAD_SCHEDULED_TASK: Load scheduler "s073" with entities [EventEntity, EventEntity], work=[120*, 0*]
 86: 0x081A [0x1C] WAIT(100* ticks)
 87: 0x081D [0x2A] GET_REQ_LEVEL(level=11, entity_id=Tenzen (ID: 16892147/0x0101C0F3))
 88: 0x0823 [0x52] END_LOAD_SCHEDULER: End scheduler "s073" with entities [EventEntity, EventEntity], work=120*
 89: 0x0832 [0x1C] WAIT(10* ticks)
 90: 0x0835 [0x45] LOAD_SCHEDULED_TASK: Load scheduler "ovl1" with entities [LocalPlayer, LocalPlayer], work=[200*, 0*]
 91: 0x0846 [0x45] LOAD_SCHEDULED_TASK: Load scheduler "s066" with entities [EventEntity, EventEntity], work=[120*, 0*]
 92: 0x0857 [0x29] REQ_SET_WAIT(priority=0x0B, entity_id=LocalPlayer, tag_num=0x0A)
 93: 0x085E [0x2B] Tenzen (ID: 16892147/0x0101C0F3) [7283*]:
    → "Is this the Twilight God, Promathia...?"
 94: 0x0865 [0x23] WAIT_FOR_DIALOG_INTERACTION
 95: 0x0866 [0x29] REQ_SET_WAIT(priority=0x08, entity_id=Prishe (ID: 16892146/0x0101C0F2), tag_num=0x23)
 96: 0x086D [0x2B] Prishe (ID: 16892146/0x0101C0F2) [7284*]:
    → "There you go."
 97: 0x0874 [0x23] WAIT_FOR_DIALOG_INTERACTION
 98: 0x0875 [0x29] REQ_SET_WAIT(priority=0x08, entity_id=Prishe (ID: 16892146/0x0101C0F2), tag_num=0x24)
 99: 0x087C [0x79] Tenzen (ID: 16892147/0x0101C0F3) looks at Prishe (ID: 16892146/0x0101C0F2) (Basic look)
100: 0x0886 [0x52] END_LOAD_SCHEDULER: End scheduler "s066" with entities [EventEntity, EventEntity], work=120*
101: 0x0895 [0x45] LOAD_SCHEDULED_TASK: Load scheduler "s069" with entities [EventEntity, EventEntity], work=[120*, 0*]
102: 0x08A6 [0x29] REQ_SET_WAIT(priority=0x08, entity_id=Tenzen (ID: 16892147/0x0101C0F3), tag_num=0x01)
103: 0x08AD [0x2B] Tenzen (ID: 16892147/0x0101C0F3) [7285*]:
    → "But... But this is nothing more than a statue!"
104: 0x08B4 [0x23] WAIT_FOR_DIALOG_INTERACTION
105: 0x08B5 [0x29] REQ_SET_WAIT(priority=0x08, entity_id=Tenzen (ID: 16892147/0x0101C0F3), tag_num=0x02)
106: 0x08BC [0x7B] Prishe (ID: 16892146/0x0101C0F2) stops talking
107: 0x08C1 [0x29] REQ_SET_WAIT(priority=0x08, entity_id=Prishe (ID: 16892146/0x0101C0F2), tag_num=0x33)
108: 0x08C8 [0x2B] Prishe (ID: 16892146/0x0101C0F2) [7286*]:
    → "Uh-huh. It was found by some thieves with more curiosity than sense. Lots of people lost their lives before this was finally brought here."
109: 0x08CF [0x23] WAIT_FOR_DIALOG_INTERACTION
110: 0x08D0 [0x29] REQ_SET_WAIT(priority=0x08, entity_id=Prishe (ID: 16892146/0x0101C0F2), tag_num=0x34)
111: 0x08D7 [0x7B] Tenzen (ID: 16892147/0x0101C0F3) stops talking
112: 0x08DC [0x29] REQ_SET_WAIT(priority=0x08, entity_id=Tenzen (ID: 16892147/0x0101C0F3), tag_num=0x11)
113: 0x08E3 [0x2B] Tenzen (ID: 16892147/0x0101C0F3) [7287*]:
    → "I see. I have heard tell that the nation of Tavnazia had strong ties with pirates and other bandit groups."
114: 0x08EA [0x23] WAIT_FOR_DIALOG_INTERACTION
115: 0x08EB [0x29] REQ_SET_WAIT(priority=0x08, entity_id=Tenzen (ID: 16892147/0x0101C0F3), tag_num=0x12)
116: 0x08F2 [0x79] Tenzen (ID: 16892147/0x0101C0F3) looks at Prishe (ID: 16892146/0x0101C0F2) (Basic look)
117: 0x08FC [0x29] REQ_SET_WAIT(priority=0x08, entity_id=Prishe (ID: 16892146/0x0101C0F2), tag_num=0x31)
118: 0x0903 [0x29] REQ_SET_WAIT(priority=0x08, entity_id=Prishe (ID: 16892146/0x0101C0F2), tag_num=0x32)
119: 0x090A [0x29] REQ_SET_WAIT(priority=0x08, entity_id=Tenzen (ID: 16892147/0x0101C0F3), tag_num=0x13)
120: 0x0911 [0x27] REQ_SET(priority=0x0B, entity_id=Prishe (ID: 16892146/0x0101C0F2), tag_num=0x92)
121: 0x0918 [0x1C] WAIT(30* ticks)
122: 0x091B [0x52] END_LOAD_SCHEDULER: End scheduler "s069" with entities [EventEntity, EventEntity], work=120*
123: 0x092A [0x45] LOAD_SCHEDULED_TASK: Load scheduler "s077" with entities [EventEntity, EventEntity], work=[120*, 0*]
124: 0x093B [0x29] REQ_SET_WAIT(priority=0x0B, entity_id=LocalPlayer, tag_num=0x0B)
125: 0x0942 [0x2B] Prishe (ID: 16892146/0x0101C0F2) [7288*]:
    → "The Tavnazian Cathedral used to buy up weird artifacts all the time to give its researchers something to study."
126: 0x0949 [0x23] WAIT_FOR_DIALOG_INTERACTION
127: 0x094A [0x2A] GET_REQ_LEVEL(level=11, entity_id=Prishe (ID: 16892146/0x0101C0F2))
128: 0x0950 [0x29] REQ_SET_WAIT(priority=0x08, entity_id=Tenzen (ID: 16892147/0x0101C0F3), tag_num=0x14)
129: 0x0957 [0x52] END_LOAD_SCHEDULER: End scheduler "s077" with entities [EventEntity, EventEntity], work=120*
130: 0x0966 [0x45] LOAD_SCHEDULED_TASK: Load scheduler "ovl1" with entities [LocalPlayer, LocalPlayer], work=[200*, 0*]
131: 0x0977 [0x45] LOAD_SCHEDULED_TASK: Load scheduler "s072" with entities [EventEntity, EventEntity], work=[120*, 0*]
132: 0x0988 [0x79] LocalPlayer looks at Prishe (ID: 16892146/0x0101C0F2) (Basic look)
133: 0x0992 [0x29] REQ_SET_WAIT(priority=0x08, entity_id=Prishe (ID: 16892146/0x0101C0F2), tag_num=0x27)
134: 0x0999 [0x2B] Prishe (ID: 16892146/0x0101C0F2) [7289*]:
    → "It all began as a search for the "Paradise" of legend."
135: 0x09A0 [0x23] WAIT_FOR_DIALOG_INTERACTION
136: 0x09A1 [0x29] REQ_SET_WAIT(priority=0x08, entity_id=Prishe (ID: 16892146/0x0101C0F2), tag_num=0x28)
137: 0x09A8 [0x29] REQ_SET_WAIT(priority=0x08, entity_id=Prishe (ID: 16892146/0x0101C0F2), tag_num=0x35)
138: 0x09AF [0x2B] Prishe (ID: 16892146/0x0101C0F2) [7290*]:
    → "You know, the place those ancient people tried to get to--the thing that ticked off Promathia so much."
139: 0x09B6 [0x23] WAIT_FOR_DIALOG_INTERACTION
140: 0x09B7 [0x29] REQ_SET_WAIT(priority=0x08, entity_id=Prishe (ID: 16892146/0x0101C0F2), tag_num=0x36)
141: 0x09BE [0x52] END_LOAD_SCHEDULER: End scheduler "s072" with entities [EventEntity, EventEntity], work=120*
142: 0x09CD [0x45] LOAD_SCHEDULED_TASK: Load scheduler "s070" with entities [EventEntity, EventEntity], work=[120*, 0*]
143: 0x09DE [0x2B] Prishe (ID: 16892146/0x0101C0F2) [7291*]:
    → "It is said that the gods sleep in Paradise."
144: 0x09E5 [0x23] WAIT_FOR_DIALOG_INTERACTION
145: 0x09E6 [0x2B] Prishe (ID: 16892146/0x0101C0F2) [7292*]:
    → "The former Tavnazian theologians thought they could go there and ask Altana to remove the curse of Promathia."
146: 0x09ED [0x23] WAIT_FOR_DIALOG_INTERACTION
147: 0x09EE [0x2B] Prishe (ID: 16892146/0x0101C0F2) [7293*]:
    → "If the curse of war and conflict vanished from the world, we would no longer have to fear the threat of the beastmen."
148: 0x09F5 [0x23] WAIT_FOR_DIALOG_INTERACTION
149: 0x09F6 [0x29] REQ_SET_WAIT(priority=0x0B, entity_id=??? (ID: 16892148/0x0101C0F4), tag_num=0x04)
150: 0x09FD [0x29] REQ_SET_WAIT(priority=0x0B, entity_id=Prishe (ID: 16892146/0x0101C0F2), tag_num=0x93)
151: 0x0A04 [0x52] END_LOAD_SCHEDULER: End scheduler "s070" with entities [EventEntity, EventEntity], work=120*
152: 0x0A13 [0x45] LOAD_SCHEDULED_TASK: Load scheduler "s067" with entities [EventEntity, EventEntity], work=[120*, 0*]
153: 0x0A24 [0x27] REQ_SET(priority=0x0B, entity_id=Prishe (ID: 16892146/0x0101C0F2), tag_num=0x94)
154: 0x0A2B [0x2B] Prishe (ID: 16892146/0x0101C0F2) [7295*]:
    → "But as things progressed, the aim of the cathedral's research shifted."
155: 0x0A32 [0x23] WAIT_FOR_DIALOG_INTERACTION
156: 0x0A33 [0x2A] GET_REQ_LEVEL(level=11, entity_id=Prishe (ID: 16892146/0x0101C0F2))
157: 0x0A39 [0x79] Prishe (ID: 16892146/0x0101C0F2) looks at ??? (ID: 16892148/0x0101C0F4) (Basic look)
158: 0x0A43 [0x2B] Prishe (ID: 16892146/0x0101C0F2) [7296*]:
    → "As they continued to investigate the objects left by the ancient people, the theologians realized that the older civilization was way more advanced than their own."
159: 0x0A4A [0x23] WAIT_FOR_DIALOG_INTERACTION
160: 0x0A4B [0x52] END_LOAD_SCHEDULER: End scheduler "s067" with entities [EventEntity, EventEntity], work=120*
161: 0x0A5A [0x45] LOAD_SCHEDULED_TASK: Load scheduler "ovl1" with entities [LocalPlayer, LocalPlayer], work=[200*, 0*]
162: 0x0A6B [0x45] LOAD_SCHEDULED_TASK: Load scheduler "s071" with entities [EventEntity, EventEntity], work=[120*, 0*]
163: 0x0A7C [0x7B] Prishe (ID: 16892146/0x0101C0F2) stops talking
164: 0x0A81 [0x29] REQ_SET_WAIT(priority=0x0B, entity_id=??? (ID: 16892148/0x0101C0F4), tag_num=0x03)
165: 0x0A88 [0x29] REQ_SET_WAIT(priority=0x08, entity_id=Prishe (ID: 16892146/0x0101C0F2), tag_num=0x0D)
166: 0x0A8F [0x2B] Prishe (ID: 16892146/0x0101C0F2) [7297*]:
    → "Even with their advanced culture, however, they were no match for Promathia. Their city was obliterated..."
167: 0x0A96 [0x23] WAIT_FOR_DIALOG_INTERACTION
168: 0x0A97 [0x29] REQ_SET_WAIT(priority=0x08, entity_id=Prishe (ID: 16892146/0x0101C0F2), tag_num=0x0E)
169: 0x0A9E [0x7B] Prishe (ID: 16892146/0x0101C0F2) stops talking
170: 0x0AA3 [0x52] END_LOAD_SCHEDULER: End scheduler "s071" with entities [EventEntity, EventEntity], work=120*
171: 0x0AB2 [0x45] LOAD_SCHEDULED_TASK: Load scheduler "s074" with entities [EventEntity, EventEntity], work=[120*, 0*]
172: 0x0AC3 [0x7B] Tenzen (ID: 16892147/0x0101C0F3) stops talking
173: 0x0AC8 [0x4B] UPDATE_ENTITY_YAW(entity=Tenzen (ID: 16892147/0x0101C0F3), yaw=5.6°*)
174: 0x0ACF [0x4B] UPDATE_ENTITY_YAW(entity=Prishe (ID: 16892146/0x0101C0F2), yaw=16.9°*)
175: 0x0AD6 [0x6F] WAIT_FRAME_DELAY: Yield until WaitTime reaches zero
176: 0x0AD7 [0x76] CHECK_ENTITY_RENDER_FLAGS: Wait until Prishe (ID: 16892146/0x0101C0F2) Render.Flags0 and Render.Flags3 conditions are met
177: 0x0ADC [0x29] REQ_SET_WAIT(priority=0x08, entity_id=Tenzen (ID: 16892147/0x0101C0F3), tag_num=0x15)
178: 0x0AE3 [0x2B] Prishe (ID: 16892146/0x0101C0F2) [7298*]:
    → "So this is what the elders of the Tavnazian Cathedral proposed:"
179: 0x0AEA [0x23] WAIT_FOR_DIALOG_INTERACTION
180: 0x0AEB [0x2B] Prishe (ID: 16892146/0x0101C0F2) [7299*]:
    → "What if they were to invite the Dawn Goddess to cross over into our world?"
181: 0x0AF2 [0x23] WAIT_FOR_DIALOG_INTERACTION
182: 0x0AF3 [0x29] REQ_SET_WAIT(priority=0x08, entity_id=Tenzen (ID: 16892147/0x0101C0F3), tag_num=0x16)
183: 0x0AFA [0x6F] WAIT_FRAME_DELAY: Yield until WaitTime reaches zero
184: 0x0AFB [0x76] CHECK_ENTITY_RENDER_FLAGS: Wait until Tenzen (ID: 16892147/0x0101C0F3) Render.Flags0 and Render.Flags3 conditions are met
185: 0x0B00 [0x52] END_LOAD_SCHEDULER: End scheduler "s074" with entities [EventEntity, EventEntity], work=120*
186: 0x0B0F [0x45] LOAD_SCHEDULED_TASK: Load scheduler "ovl1" with entities [LocalPlayer, LocalPlayer], work=[200*, 0*]
187: 0x0B20 [0x02] IF !(Work_Zone[9] == 5*) GOTO 0x0B3C
188: 0x0B28 [0x45] LOAD_SCHEDULED_TASK: Load scheduler "s068" with entities [EventEntity, EventEntity], work=[120*, 0*]
189: 0x0B39 [0x01] GOTO 0x0B69
190: 0x0B3C [0x02] IF !(Work_Zone[9] == 6*) GOTO 0x0B58
191: 0x0B44 [0x45] LOAD_SCHEDULED_TASK: Load scheduler "s068" with entities [EventEntity, EventEntity], work=[120*, 0*]
192: 0x0B55 [0x01] GOTO 0x0B69
193: 0x0B58 [0x45] LOAD_SCHEDULED_TASK: Load scheduler "s078" with entities [EventEntity, EventEntity], work=[120*, 0*]

SUBROUTINE_0B69:
194: 0x0B69 [0x29] REQ_SET_WAIT(priority=0x08, entity_id=Tenzen (ID: 16892147/0x0101C0F3), tag_num=0x19)
195: 0x0B70 [0x2B] Tenzen (ID: 16892147/0x0101C0F3) [7300*]:
    → "Invite the Goddess...!?"
196: 0x0B77 [0x23] WAIT_FOR_DIALOG_INTERACTION
197: 0x0B78 [0x29] REQ_SET_WAIT(priority=0x08, entity_id=Tenzen (ID: 16892147/0x0101C0F3), tag_num=0x1A)
198: 0x0B7F [0x02] IF !(Work_Zone[9] == 5*) GOTO 0x0B99
199: 0x0B87 [0x52] END_LOAD_SCHEDULER: End scheduler "s068" with entities [EventEntity, EventEntity], work=120*
200: 0x0B96 [0x01] GOTO 0x0BC2
201: 0x0B99 [0x02] IF !(Work_Zone[9] == 6*) GOTO 0x0BB3
202: 0x0BA1 [0x52] END_LOAD_SCHEDULER: End scheduler "s068" with entities [EventEntity, EventEntity], work=120*
203: 0x0BB0 [0x01] GOTO 0x0BC2
204: 0x0BB3 [0x52] END_LOAD_SCHEDULER: End scheduler "s078" with entities [EventEntity, EventEntity], work=120*

SUBROUTINE_0BC2:
205: 0x0BC2 [0x5D] SET_MUSIC_VOLUME(volume=0*, fade_time=180*)
206: 0x0BC7 [0x45] LOAD_SCHEDULED_TASK: Load scheduler "s095" with entities [EventEntity, EventEntity], work=[120*, 0*]
207: 0x0BD8 [0x4B] UPDATE_ENTITY_YAW(entity=Prishe (ID: 16892146/0x0101C0F2), yaw=0.0°*)
208: 0x0BDF [0x6F] WAIT_FRAME_DELAY: Yield until WaitTime reaches zero
209: 0x0BE0 [0x76] CHECK_ENTITY_RENDER_FLAGS: Wait until Prishe (ID: 16892146/0x0101C0F2) Render.Flags0 and Render.Flags3 conditions are met
210: 0x0BE5 [0x79] LocalPlayer looks at Prishe (ID: 16892146/0x0101C0F2) (Basic look)
211: 0x0BEF [0x29] REQ_SET_WAIT(priority=0x08, entity_id=Prishe (ID: 16892146/0x0101C0F2), tag_num=0x56)
212: 0x0BF6 [0x2B] Prishe (ID: 16892146/0x0101C0F2) [7301*]:
    → "But before this incredible event was to happen, Cardinal Mildaurion arrived, and Tavnazia was destroyed not long after."
213: 0x0BFD [0x23] WAIT_FOR_DIALOG_INTERACTION
214: 0x0BFE [0x29] REQ_SET_WAIT(priority=0x08, entity_id=Prishe (ID: 16892146/0x0101C0F2), tag_num=0x57)
215: 0x0C05 [0x29] REQ_SET_WAIT(priority=0x08, entity_id=Prishe (ID: 16892146/0x0101C0F2), tag_num=0x58)
216: 0x0C0C [0x2B] Prishe (ID: 16892146/0x0101C0F2) [7302*]:
    → "Anyway, I found out something that'd give Ulmia's granpere a heart attack."
217: 0x0C13 [0x23] WAIT_FOR_DIALOG_INTERACTION
218: 0x0C14 [0x29] REQ_SET_WAIT(priority=0x08, entity_id=Prishe (ID: 16892146/0x0101C0F2), tag_num=0x59)
219: 0x0C1B [0x29] REQ_SET_WAIT(priority=0x08, entity_id=Prishe (ID: 16892146/0x0101C0F2), tag_num=0x5A)
220: 0x0C22 [0x1C] WAIT(30* ticks)
221: 0x0C25 [0x52] END_LOAD_SCHEDULER: End scheduler "s095" with entities [EventEntity, EventEntity], work=120*
222: 0x0C34 [0x45] LOAD_SCHEDULED_TASK: Load scheduler "s076" with entities [EventEntity, EventEntity], work=[120*, 0*]
223: 0x0C45 [0x2B] Prishe (ID: 16892146/0x0101C0F2) [7303*]:
    → "You see that glowing stone stuck in there? If you stand here and do this, you can hear the voice of Promathia..."
224: 0x0C4C [0x23] WAIT_FOR_DIALOG_INTERACTION
225: 0x0C4D [0x1C] WAIT(180* ticks)
226: 0x0C50 [0x9F] LOAD_SCHEDULED_TASK_ALT: Load scheduler "zst0" with entities [EventEntity, EventEntity], work=[83*, 0*]
227: 0x0C61 [0x9F] LOAD_SCHEDULED_TASK_ALT: Load scheduler "pst0" with entities [Prishe (ID: 16892146/0x0101C0F2), Prishe (ID: 16892146/0x0101C0F2)], work=[83*, 0*]
228: 0x0C72 [0x45] LOAD_SCHEDULED_TASK: Load scheduler "se29" with entities [EventEntity, EventEntity], work=[120*, 0*]
229: 0x0C83 [0x1C] WAIT(90* ticks)
230: 0x0C86 [0x52] END_LOAD_SCHEDULER: End scheduler "s076" with entities [EventEntity, EventEntity], work=120*
231: 0x0C95 [0x45] LOAD_SCHEDULED_TASK: Load scheduler "blon" with entities [LocalPlayer, LocalPlayer], work=[200*, 0*]
232: 0x0CA6 [0x45] LOAD_SCHEDULED_TASK: Load scheduler "blon" with entities [LocalPlayer, LocalPlayer], work=[201*, 0*]
233: 0x0CB7 [0x45] LOAD_SCHEDULED_TASK: Load scheduler "s065" with entities [EventEntity, EventEntity], work=[120*, 0*]
234: 0x0CC8 [0x45] LOAD_SCHEDULED_TASK: Load scheduler "se30" with entities [EventEntity, EventEntity], work=[120*, 0*]
235: 0x0CD9 [0x1C] WAIT(80* ticks)
236: 0x0CDC [0x9F] LOAD_SCHEDULED_TASK_ALT: Load scheduler "pst1" with entities [EventEntity, EventEntity], work=[83*, 0*]
237: 0x0CED [0x9F] LOAD_SCHEDULED_TASK_ALT: Load scheduler "zst1" with entities [EventEntity, EventEntity], work=[83*, 0*]
238: 0x0CFE [0x52] END_LOAD_SCHEDULER: End scheduler "s065" with entities [EventEntity, EventEntity], work=120*
239: 0x0D0D [0x45] LOAD_SCHEDULED_TASK: Load scheduler "s096" with entities [EventEntity, EventEntity], work=[120*, 0*]
240: 0x0D1E [0x45] LOAD_SCHEDULED_TASK: Load scheduler "se31" with entities [EventEntity, EventEntity], work=[120*, 0*]
241: 0x0D2F [0x29] REQ_SET_WAIT(priority=0x08, entity_id=Tenzen (ID: 16892147/0x0101C0F3), tag_num=0x0B)
242: 0x0D36 [0x1C] WAIT(90* ticks)
243: 0x0D39 [0x29] REQ_SET_WAIT(priority=0x08, entity_id=Tenzen (ID: 16892147/0x0101C0F3), tag_num=0x0C)
244: 0x0D40 [0x52] END_LOAD_SCHEDULER: End scheduler "s096" with entities [EventEntity, EventEntity], work=120*
245: 0x0D4F [0x45] LOAD_SCHEDULED_TASK: Load scheduler "ovl1" with entities [LocalPlayer, LocalPlayer], work=[200*, 0*]
246: 0x0D60 [0x45] LOAD_SCHEDULED_TASK: Load scheduler "s098" with entities [EventEntity, EventEntity], work=[120*, 0*]
247: 0x0D71 [0x45] LOAD_SCHEDULED_TASK: Load scheduler "se32" with entities [EventEntity, EventEntity], work=[120*, 0*]
248: 0x0D82 [0x27] REQ_SET(priority=0x0B, entity_id=Tenzen (ID: 16892147/0x0101C0F3), tag_num=0x3D)
249: 0x0D89 [0x2B] Tenzen (ID: 16892147/0x0101C0F3) [7304*]:
    → "Lady Prishe!?"
250: 0x0D90 [0x23] WAIT_FOR_DIALOG_INTERACTION
251: 0x0D91 [0x1C] WAIT(40* ticks)
252: 0x0D94 [0x45] LOAD_SCHEDULED_TASK: Load scheduler "who1" with entities [LocalPlayer, LocalPlayer], work=[201*, 0*]
253: 0x0DA5 [0x45] LOAD_SCHEDULED_TASK: Load scheduler "se9e" with entities [EventEntity, EventEntity], work=[120*, 0*]
254: 0x0DB6 [0x1C] WAIT(60* ticks)
255: 0x0DB9 [0x45] LOAD_SCHEDULED_TASK: Load scheduler "blof" with entities [LocalPlayer, LocalPlayer], work=[200*, 0*]
256: 0x0DCA [0x9F] LOAD_SCHEDULED_TASK_ALT: Load scheduler "kill" with entities [EventEntity, EventEntity], work=[83*, 0*]
257: 0x0DDB [0x52] END_LOAD_SCHEDULER: End scheduler "s097" with entities [EventEntity, EventEntity], work=120*
258: 0x0DEA [0x2A] GET_REQ_LEVEL(level=11, entity_id=Tenzen (ID: 16892147/0x0101C0F3))
259: 0x0DF0 [0x4E] SET_ENTITY_HIDE_FLAG: Hide LocalPlayer
260: 0x0DF6 [0x34] LOAD_UNLOAD_ZONE(zone_id=231*)
261: 0x0DF9 [0x77] SET_EVENT_TIME_WEATHER(hour=12*, weather=1*)
262: 0x0DFE [0x1C] WAIT(60* ticks)
263: 0x0E01 [0x5C] MUSIC_CONTROL: Set Idle (Day) music to song 244*
264: 0x0E05 [0x5C] MUSIC_CONTROL: Set Idle (Night) music to song 244*
265: 0x0E09 [0x4E] SET_ENTITY_HIDE_FLAG: Show Prishe (ID: 16892146/0x0101C0F2)
266: 0x0E0F [0x4E] SET_ENTITY_HIDE_FLAG: Show Chasalvige (ID: 16892163/0x0101C103)
267: 0x0E15 [0x4E] SET_ENTITY_HIDE_FLAG: Show Halaviabeau (ID: 16892164/0x0101C104)
268: 0x0E1B [0x4E] SET_ENTITY_HIDE_FLAG: Show Olbergieut (ID: 16892165/0x0101C105)
269: 0x0E21 [0x80] LOAD_WAIT(entity=Prishe (ID: 16892146/0x0101C0F2))
270: 0x0E26 [0x80] LOAD_WAIT(entity=Chasalvige (ID: 16892163/0x0101C103))
271: 0x0E2B [0x80] LOAD_WAIT(entity=Halaviabeau (ID: 16892164/0x0101C104))
272: 0x0E30 [0x80] LOAD_WAIT(entity=Olbergieut (ID: 16892165/0x0101C105))
273: 0x0E35 [0x29] REQ_SET_WAIT(priority=0x0B, entity_id=Prishe (ID: 16892146/0x0101C0F2), tag_num=0xA0)
274: 0x0E3C [0x29] REQ_SET_WAIT(priority=0x0B, entity_id=Muchavatte (ID: 16892162/0x0101C102), tag_num=0x02)
275: 0x0E43 [0x29] REQ_SET_WAIT(priority=0x0B, entity_id=Chasalvige (ID: 16892163/0x0101C103), tag_num=0x15)
276: 0x0E4A [0x29] REQ_SET_WAIT(priority=0x0B, entity_id=Halaviabeau (ID: 16892164/0x0101C104), tag_num=0x15)
277: 0x0E51 [0x29] REQ_SET_WAIT(priority=0x0B, entity_id=Olbergieut (ID: 16892165/0x0101C105), tag_num=0x15)
278: 0x0E58 [0x9F] LOAD_SCHEDULED_TASK_ALT: Load scheduler "str0" with entities [Prishe (ID: 16892146/0x0101C0F2), Prishe (ID: 16892146/0x0101C0F2)], work=[61*, 0*]
279: 0x0E69 [0x4E] SET_ENTITY_HIDE_FLAG: Hide Muchavatte (ID: 16892162/0x0101C102)
280: 0x0E6F [0x75] LOAD_ROOM(Load indoor room, room=361*)
281: 0x0E73 [0x75] LOAD_ROOM(No action)
282: 0x0E75 [0x1C] WAIT(100* ticks)
283: 0x0E78 [0x45] LOAD_SCHEDULED_TASK: Load scheduler "s050" with entities [EventEntity, EventEntity], work=[117*, 0*]
284: 0x0E89 [0x45] LOAD_SCHEDULED_TASK: Load scheduler "whi1" with entities [LocalPlayer, LocalPlayer], work=[201*, 0*]
285: 0x0E9A [0x1C] WAIT(300* ticks)
286: 0x0E9D [0x52] END_LOAD_SCHEDULER: End scheduler "s050" with entities [EventEntity, EventEntity], work=117*
287: 0x0EAC [0x45] LOAD_SCHEDULED_TASK: Load scheduler "ovl1" with entities [LocalPlayer, LocalPlayer], work=[200*, 0*]
288: 0x0EBD [0x45] LOAD_SCHEDULED_TASK: Load scheduler "s051" with entities [EventEntity, EventEntity], work=[117*, 0*]
289: 0x0ECE [0x1C] WAIT(300* ticks)
290: 0x0ED1 [0x1D] PRINT_EVENT_MESSAGE(message_id=7305*)
    → "So this is the Tavnazian child known as the abhorrent one."
291: 0x0ED4 [0x23] WAIT_FOR_DIALOG_INTERACTION
292: 0x0ED5 [0x52] END_LOAD_SCHEDULER: End scheduler "s051" with entities [EventEntity, EventEntity], work=117*
293: 0x0EE4 [0x45] LOAD_SCHEDULED_TASK: Load scheduler "ovl1" with entities [LocalPlayer, LocalPlayer], work=[200*, 0*]
294: 0x0EF5 [0x45] LOAD_SCHEDULED_TASK: Load scheduler "s052" with entities [EventEntity, EventEntity], work=[117*, 0*]
295: 0x0F06 [0x27] REQ_SET(priority=0x08, entity_id=Chasalvige (ID: 16892163/0x0101C103), tag_num=0x05)
296: 0x0F0D [0x1D] PRINT_EVENT_MESSAGE(message_id=7306*)
    → "It seems she caused a terrible accident during the baptismal ceremony."
297: 0x0F10 [0x23] WAIT_FOR_DIALOG_INTERACTION
298: 0x0F11 [0x1D] PRINT_EVENT_MESSAGE(message_id=7307*)
    → "Many of the clergy lost their lives during the incident, and those who survived told of terrifying dreams of the cursed deity..."
299: 0x0F14 [0x23] WAIT_FOR_DIALOG_INTERACTION
300: 0x0F15 [0x52] END_LOAD_SCHEDULER: End scheduler "s052" with entities [EventEntity, EventEntity], work=117*
301: 0x0F24 [0x45] LOAD_SCHEDULED_TASK: Load scheduler "ovl1" with entities [LocalPlayer, LocalPlayer], work=[200*, 0*]
302: 0x0F35 [0x45] LOAD_SCHEDULED_TASK: Load scheduler "s053" with entities [EventEntity, EventEntity], work=[117*, 0*]
303: 0x0F46 [0x27] REQ_SET(priority=0x08, entity_id=Halaviabeau (ID: 16892164/0x0101C104), tag_num=0x05)
304: 0x0F4D [0x1D] PRINT_EVENT_MESSAGE(message_id=7308*)
    → "What truly proves this child's damnation is her ever youthful form. That, and the rumors of her ability to read people's minds..."
305: 0x0F50 [0x23] WAIT_FOR_DIALOG_INTERACTION
306: 0x0F51 [0x29] REQ_SET_WAIT(priority=0x08, entity_id=Olbergieut (ID: 16892165/0x0101C105), tag_num=0x08)
307: 0x0F58 [0x1D] PRINT_EVENT_MESSAGE(message_id=7309*)
    → "Why does this new cardinal allow the child to walk freely after the cathedral had taken steps to ensure her eternal confinement? And why bring her here to San d'Oria...?"
308: 0x0F5B [0x23] WAIT_FOR_DIALOG_INTERACTION
309: 0x0F5C [0x29] REQ_SET_WAIT(priority=0x08, entity_id=Olbergieut (ID: 16892165/0x0101C105), tag_num=0x09)
310: 0x0F63 [0x2A] GET_REQ_LEVEL(level=8, entity_id=Chasalvige (ID: 16892163/0x0101C103))
311: 0x0F69 [0x52] END_LOAD_SCHEDULER: End scheduler "s053" with entities [EventEntity, EventEntity], work=117*
312: 0x0F78 [0x45] LOAD_SCHEDULED_TASK: Load scheduler "ovl1" with entities [LocalPlayer, LocalPlayer], work=[200*, 0*]
313: 0x0F89 [0x45] LOAD_SCHEDULED_TASK: Load scheduler "s055" with entities [EventEntity, EventEntity], work=[117*, 0*]
314: 0x0F9A [0x29] REQ_SET_WAIT(priority=0x08, entity_id=Olbergieut (ID: 16892165/0x0101C105), tag_num=0x0A)
315: 0x0FA1 [0x2B] Muchavatte (ID: 16892162/0x0101C102) [7310*]:
    → "According to Cardinal Mildaurion, the birth of such a child is a sign that our most desperate wish is about to be granted."
316: 0x0FA8 [0x23] WAIT_FOR_DIALOG_INTERACTION
317: 0x0FA9 [0x52] END_LOAD_SCHEDULER: End scheduler "s055" with entities [EventEntity, EventEntity], work=117*
318: 0x0FB8 [0x45] LOAD_SCHEDULED_TASK: Load scheduler "ovl1" with entities [LocalPlayer, LocalPlayer], work=[200*, 0*]
319: 0x0FC9 [0x45] LOAD_SCHEDULED_TASK: Load scheduler "s056" with entities [EventEntity, EventEntity], work=[117*, 0*]
320: 0x0FDA [0x29] REQ_SET_WAIT(priority=0x08, entity_id=Prishe (ID: 16892146/0x0101C0F2), tag_num=0x2F)
321: 0x0FE1 [0x2B] Muchavatte (ID: 16892162/0x0101C102) [7311*]:
    → "I speak of the treasure entrusted to Tavnazia."
322: 0x0FE8 [0x23] WAIT_FOR_DIALOG_INTERACTION
323: 0x0FE9 [0x29] REQ_SET_WAIT(priority=0x08, entity_id=Olbergieut (ID: 16892165/0x0101C105), tag_num=0x0B)
324: 0x0FF0 [0x2B] Muchavatte (ID: 16892162/0x0101C102) [7312*]:
    → "What generations of cardinals have hidden from in fear, this Mildaurion has chosen to reveal to the San d'Orian Cathedral."
325: 0x0FF7 [0x23] WAIT_FOR_DIALOG_INTERACTION
326: 0x0FF8 [0x2A] GET_REQ_LEVEL(level=8, entity_id=Halaviabeau (ID: 16892164/0x0101C104))
327: 0x0FFE [0x29] REQ_SET_WAIT(priority=0x08, entity_id=Prishe (ID: 16892146/0x0101C0F2), tag_num=0x30)
328: 0x1005 [0x45] LOAD_SCHEDULED_TASK: Load scheduler "fdo1" with entities [Mildaurion (ID: 16892166/0x0101C106), Mildaurion (ID: 16892166/0x0101C106)], work=[200*, 0*]
329: 0x1016 [0x1C] WAIT(60* ticks)
330: 0x1019 [0x52] END_LOAD_SCHEDULER: End scheduler "s056" with entities [EventEntity, EventEntity], work=117*
331: 0x1028 [0x27] REQ_SET(priority=0x0B, entity_id=Mildaurion (ID: 16892166/0x0101C106), tag_num=0x06)
332: 0x102F [0x1C] WAIT(70* ticks)
333: 0x1032 [0x29] REQ_SET_WAIT(priority=0x0B, entity_id=Door:Papal Chambers (ID: 16892167/0x0101C107), tag_num=0x02)
334: 0x1039 [0x1C] WAIT(60* ticks)
335: 0x103C [0x2B] Muchavatte (ID: 16892162/0x0101C102) [7313*]:
    → "If Tavnazia's treasure is brought together with the holy artifact we hold, the Gates of Paradise will not long remain closed..."
336: 0x1043 [0x23] WAIT_FOR_DIALOG_INTERACTION
337: 0x1044 [0x2A] GET_REQ_LEVEL(level=11, entity_id=Mildaurion (ID: 16892166/0x0101C106))
338: 0x104A [0x52] END_LOAD_SCHEDULER: End scheduler "s054" with entities [Mildaurion (ID: 16892166/0x0101C106), Mildaurion (ID: 16892166/0x0101C106)], work=117*
339: 0x1059 [0x1C] WAIT(200* ticks)
340: 0x105C [0x45] LOAD_SCHEDULED_TASK: Load scheduler "s057" with entities [EventEntity, EventEntity], work=[117*, 0*]
341: 0x106D [0x45] LOAD_SCHEDULED_TASK: Load scheduler "fdi1" with entities [Mildaurion (ID: 16892166/0x0101C106), Mildaurion (ID: 16892166/0x0101C106)], work=[200*, 0*]
342: 0x107E [0x45] LOAD_SCHEDULED_TASK: Load scheduler "se18" with entities [EventEntity, EventEntity], work=[117*, 0*]
343: 0x108F [0x1C] WAIT(200* ticks)
344: 0x1092 [0x52] END_LOAD_SCHEDULER: End scheduler "s057" with entities [EventEntity, EventEntity], work=117*
345: 0x10A1 [0x45] LOAD_SCHEDULED_TASK: Load scheduler "ovl1" with entities [LocalPlayer, LocalPlayer], work=[200*, 0*]
346: 0x10B2 [0x45] LOAD_SCHEDULED_TASK: Load scheduler "s058" with entities [EventEntity, EventEntity], work=[117*, 0*]
347: 0x10C3 [0x45] LOAD_SCHEDULED_TASK: Load scheduler "se18" with entities [EventEntity, EventEntity], work=[117*, 0*]
348: 0x10D4 [0x4E] SET_ENTITY_HIDE_FLAG: Show Mildaurion (ID: 16892166/0x0101C106)
349: 0x10DA [0x29] REQ_SET_WAIT(priority=0x08, entity_id=Prishe (ID: 16892146/0x0101C0F2), tag_num=0x31)
350: 0x10E1 [0x29] REQ_SET_WAIT(priority=0x08, entity_id=Prishe (ID: 16892146/0x0101C0F2), tag_num=0x32)
351: 0x10E8 [0x29] REQ_SET_WAIT(priority=0x08, entity_id=Prishe (ID: 16892146/0x0101C0F2), tag_num=0x47)
352: 0x10EF [0x1C] WAIT(80* ticks)
353: 0x10F2 [0x80] LOAD_WAIT(entity=Mildaurion (ID: 16892166/0x0101C106))
354: 0x10F7 [0x52] END_LOAD_SCHEDULER: End scheduler "s058" with entities [EventEntity, EventEntity], work=117*
355: 0x1106 [0x45] LOAD_SCHEDULED_TASK: Load scheduler "ovl1" with entities [LocalPlayer, LocalPlayer], work=[200*, 0*]
356: 0x1117 [0x45] LOAD_SCHEDULED_TASK: Load scheduler "s059" with entities [EventEntity, EventEntity], work=[117*, 0*]
357: 0x1128 [0x45] LOAD_SCHEDULED_TASK: Load scheduler "se19" with entities [EventEntity, EventEntity], work=[117*, 0*]
358: 0x1139 [0x27] REQ_SET(priority=0x0B, entity_id=Mildaurion (ID: 16892166/0x0101C106), tag_num=0x07)
359: 0x1140 [0x1C] WAIT(200* ticks)
360: 0x1143 [0x27] REQ_SET(priority=0x0B, entity_id=Chasalvige (ID: 16892163/0x0101C103), tag_num=0x17)
361: 0x114A [0x1D] PRINT_EVENT_MESSAGE(message_id=7314*)
    → "Prishe, you are a child of destiny."
362: 0x114D [0x23] WAIT_FOR_DIALOG_INTERACTION
363: 0x114E [0x2A] GET_REQ_LEVEL(level=11, entity_id=Mildaurion (ID: 16892166/0x0101C106))
364: 0x1154 [0x29] REQ_SET_WAIT(priority=0x08, entity_id=Prishe (ID: 16892146/0x0101C0F2), tag_num=0x48)
365: 0x115B [0x29] REQ_SET_WAIT(priority=0x08, entity_id=Mildaurion (ID: 16892166/0x0101C106), tag_num=0x03)
366: 0x1162 [0x29] REQ_SET_WAIT(priority=0x08, entity_id=Prishe (ID: 16892146/0x0101C0F2), tag_num=0x49)
367: 0x1169 [0x81] SET_ENTITY_BLINKING(blink_flag=0x00, entity=Prishe (ID: 16892146/0x0101C0F2))
368: 0x116F [0x1D] PRINT_EVENT_MESSAGE(message_id=7315*)
    → "However, your part in this is over. There is nothing left within you..."
369: 0x1172 [0x23] WAIT_FOR_DIALOG_INTERACTION
370: 0x1173 [0x29] REQ_SET_WAIT(priority=0x08, entity_id=Prishe (ID: 16892146/0x0101C0F2), tag_num=0x4A)
371: 0x117A [0x29] REQ_SET_WAIT(priority=0x08, entity_id=Mildaurion (ID: 16892166/0x0101C106), tag_num=0x04)
372: 0x1181 [0x52] END_LOAD_SCHEDULER: End scheduler "s059" with entities [EventEntity, EventEntity], work=117*
373: 0x1190 [0x45] LOAD_SCHEDULED_TASK: Load scheduler "who1" with entities [LocalPlayer, LocalPlayer], work=[201*, 0*]
374: 0x11A1 [0x1C] WAIT(60* ticks)
375: 0x11A4 [0x9F] LOAD_SCHEDULED_TASK_ALT: Load scheduler "kill" with entities [Prishe (ID: 16892146/0x0101C0F2), Prishe (ID: 16892146/0x0101C0F2)], work=[61*, 0*]
376: 0x11B5 [0x34] LOAD_UNLOAD_ZONE(zone_id=546*)
377: 0x11B8 [0x77] SET_EVENT_TIME_WEATHER(hour=12*, weather=19*)
378: 0x11BD [0x1C] WAIT(100* ticks)
379: 0x11C0 [0x4E] SET_ENTITY_HIDE_FLAG: Hide Mildaurion (ID: 16892166/0x0101C106)
380: 0x11C6 [0x4E] SET_ENTITY_HIDE_FLAG: Hide Chasalvige (ID: 16892163/0x0101C103)
381: 0x11CC [0x4E] SET_ENTITY_HIDE_FLAG: Hide Halaviabeau (ID: 16892164/0x0101C104)
382: 0x11D2 [0x4E] SET_ENTITY_HIDE_FLAG: Hide Olbergieut (ID: 16892165/0x0101C105)
383: 0x11D8 [0x4E] SET_ENTITY_HIDE_FLAG: Hide Muchavatte (ID: 16892162/0x0101C102)
384: 0x11DE [0x81] SET_ENTITY_BLINKING(blink_flag=0x01, entity=Prishe (ID: 16892146/0x0101C0F2))
385: 0x11E4 [0x29] REQ_SET_WAIT(priority=0x0B, entity_id=Diabolos (ID: 16892168/0x0101C108), tag_num=0x06)
386: 0x11EB [0x29] REQ_SET_WAIT(priority=0x0B, entity_id=??? (ID: 16892171/0x0101C10B), tag_num=0x31)
387: 0x11F2 [0x29] REQ_SET_WAIT(priority=0x0B, entity_id=Prishe (ID: 16892146/0x0101C0F2), tag_num=0xA2)
388: 0x11F9 [0x4A] Prishe (ID: 16892146/0x0101C0F2) looks at Diabolos (ID: 16892168/0x0101C108)
389: 0x1202 [0x4E] SET_ENTITY_HIDE_FLAG: Hide Prishe (ID: 16892146/0x0101C0F2)
390: 0x1208 [0x4E] SET_ENTITY_HIDE_FLAG: Show Diabolos (ID: 16892168/0x0101C108)
391: 0x120E [0x4E] SET_ENTITY_HIDE_FLAG: Show Diabolos (ID: 16892169/0x0101C109)
392: 0x1214 [0x4E] SET_ENTITY_HIDE_FLAG: Show Diabolos (ID: 16892170/0x0101C10A)
