# 16892147 - Tenzen

## Common Data

| Field            | Value              |
|------------------|--------------------|
| Zone             | Sacrarium (ID: 28) |
| Block Size       | 1552 bytes         |
| Total Events     | 72                 |
| References Count | 41                 |

## List of Events

| Event ID                   | Entrypoint   |   Size |   Instructions |
|----------------------------|--------------|--------|----------------|
| [65535](#event-65535)      | 0x0000       |      1 |              1 |
| [65535.1](#event-655351)   | 0x0001       |     16 |              2 |
| [65535.2](#event-655352)   | 0x0011       |     14 |              2 |
| [65535.3](#event-655353)   | 0x001F       |     16 |              2 |
| [65535.4](#event-655354)   | 0x002F       |     14 |              2 |
| [65535.5](#event-655355)   | 0x003D       |     16 |              2 |
| [65535.6](#event-655356)   | 0x004D       |     14 |              2 |
| [65535.7](#event-655357)   | 0x005B       |     16 |              2 |
| [65535.8](#event-655358)   | 0x006B       |     14 |              2 |
| [65535.9](#event-655359)   | 0x0079       |     16 |              2 |
| [65535.10](#event-6553510) | 0x0089       |     14 |              2 |
| [65535.11](#event-6553511) | 0x0097       |     16 |              2 |
| [65535.12](#event-6553512) | 0x00A7       |     14 |              2 |
| [65535.13](#event-6553513) | 0x00B5       |     16 |              2 |
| [65535.14](#event-6553514) | 0x00C5       |     14 |              2 |
| [65535.15](#event-6553515) | 0x00D3       |     16 |              2 |
| [65535.16](#event-6553516) | 0x00E3       |     14 |              2 |
| [65535.17](#event-6553517) | 0x00F1       |     16 |              2 |
| [65535.18](#event-6553518) | 0x0101       |     14 |              2 |
| [65535.19](#event-6553519) | 0x010F       |     16 |              2 |
| [65535.20](#event-6553520) | 0x011F       |     14 |              2 |
| [65535.21](#event-6553521) | 0x012D       |     16 |              2 |
| [65535.22](#event-6553522) | 0x013D       |     14 |              2 |
| [65535.23](#event-6553523) | 0x014B       |     16 |              2 |
| [65535.24](#event-6553524) | 0x015B       |     14 |              2 |
| [65535.25](#event-6553525) | 0x0169       |     16 |              2 |
| [65535.26](#event-6553526) | 0x0179       |     14 |              2 |
| [65535.27](#event-6553527) | 0x0187       |     16 |              2 |
| [65535.28](#event-6553528) | 0x0197       |     14 |              2 |
| [65535.29](#event-6553529) | 0x01A5       |     16 |              2 |
| [65535.30](#event-6553530) | 0x01B5       |     14 |              2 |
| [65535.31](#event-6553531) | 0x01C3       |     16 |              2 |
| [65535.32](#event-6553532) | 0x01D3       |     14 |              2 |
| [65535.33](#event-6553533) | 0x01E1       |     16 |              2 |
| [65535.34](#event-6553534) | 0x01F1       |     14 |              2 |
| [65535.35](#event-6553535) | 0x01FF       |     16 |              2 |
| [65535.36](#event-6553536) | 0x020F       |     14 |              2 |
| [65535.37](#event-6553537) | 0x021D       |     57 |              5 |
| [65535.38](#event-6553538) | 0x0256       |     16 |              2 |
| [65535.39](#event-6553539) | 0x0266       |     14 |              2 |
| [65535.40](#event-6553540) | 0x0274       |     16 |              2 |
| [65535.41](#event-6553541) | 0x0284       |     14 |              2 |
| [65535.42](#event-6553542) | 0x0292       |     16 |              2 |
| [65535.43](#event-6553543) | 0x02A2       |     14 |              2 |
| [65535.44](#event-6553544) | 0x02B0       |     16 |              2 |
| [65535.45](#event-6553545) | 0x02C0       |     14 |              2 |
| [65535.46](#event-6553546) | 0x02CE       |     16 |              2 |
| [65535.47](#event-6553547) | 0x02DE       |     14 |              2 |
| [65535.48](#event-6553548) | 0x02EC       |     16 |              2 |
| [65535.49](#event-6553549) | 0x02FC       |     14 |              2 |
| [65535.50](#event-6553550) | 0x030A       |     16 |              2 |
| [65535.51](#event-6553551) | 0x031A       |     14 |              2 |
| [65535.52](#event-6553552) | 0x0328       |     16 |              2 |
| [65535.53](#event-6553553) | 0x0338       |     14 |              2 |
| [65535.54](#event-6553554) | 0x0346       |      9 |              3 |
| [5](#event-5)              | 0x034F       |      7 |              2 |
| [65535.55](#event-6553555) | 0x0356       |     10 |              2 |
| [65535.56](#event-6553556) | 0x0360       |     34 |              8 |
| [65535.57](#event-6553557) | 0x0382       |     10 |              2 |
| [65535.58](#event-6553558) | 0x038C       |     15 |              5 |
| [65535.59](#event-6553559) | 0x039B       |     15 |              5 |
| [65535.60](#event-6553560) | 0x03AA       |     18 |              6 |
| [6](#event-6)              | 0x03BC       |      7 |              2 |
| [65535.61](#event-6553561) | 0x03C3       |     10 |              2 |
| [65535.62](#event-6553562) | 0x03CD       |     15 |              5 |
| [65535.63](#event-6553563) | 0x03DC       |     22 |              4 |
| [65535.64](#event-6553564) | 0x03F2       |     15 |              5 |
| [65535.65](#event-6553565) | 0x0401       |     15 |              5 |
| [65535.66](#event-6553566) | 0x0410       |     15 |              5 |
| [7](#event-7)              | 0x041F       |      7 |              2 |
| [65535.67](#event-6553567) | 0x0426       |     10 |              2 |
| [65535.68](#event-6553568) | 0x0430       |     10 |              2 |

## DAT References (imed_data)

|   Index | Hex Value   |   Dec Value |
|---------|-------------|-------------|
|       0 | 0x01A9      |         425 |
|       1 | 0x01AB      |         427 |
|       2 | 0x01AA      |         426 |
|       3 | 0x01AC      |         428 |
|       4 | 0x0280      |         640 |
|       5 | 0x001E      |          30 |
|       6 | 0xA6B1      |       42673 |
|       7 | 0x31D2      |       12754 |
|       8 | 0x0000      |           0 |
|       9 | 0x0B25      |        2853 |
|      10 | 0x000D      |          13 |
|      11 | 0x98E0      |       39136 |
|      12 | 0x3497      |       13463 |
|      13 | 0x834F      |       33615 |
|      14 | 0x36B0      |       14000 |
|      15 | 0x7C21      |       31777 |
|      16 | 0x4B67      |       19303 |
|      17 | 0x33D0      |       13264 |
|      18 | 0x07CF      |        1999 |
|      19 | 0x04F2      |        1266 |
|      20 | 0x42E9      |       17129 |
|      21 | 0x27D9      |       10201 |
|      22 | 0x0028      |          40 |
|      23 | 0x2009      |        8201 |
|      24 | 0x000A      |          10 |
|      25 | 0x1069      |        4201 |
|      26 | 0xB478      |       46200 |
|      27 | 0x270B      |        9995 |
|      28 | 0x0816      |        2070 |
|      29 | 0xBB80      |       48000 |
|      30 | 0x24B8      |        9400 |
|      31 | 0xBF04      |       48900 |
|      32 | 0x2454      |        9300 |
|      33 | 0xC350      |       50000 |
|      34 | 0xC738      |       51000 |
|      35 | 0x47CC      |       18380 |
|      36 | 0xFFFFF9DE  |  4294965726 |
|      37 | 0x0DE9      |        3561 |
|      38 | 0x448E      |       17550 |
|      39 | 0xFFFFFAEC  |  4294965996 |
|      40 | 0x0C48      |        3144 |

## Events

### Event 65535

#### Metadata

| Field        | Value   |
|--------------|---------|
| Entrypoint   | 0x0000  |
| Data Size    | 1 bytes |
| Instructions | 1       |

```
      00 01 02 03 04 05 06 07  08 09 0A 0B 0C 0D 0E 0F
      -- -- -- -- -- -- -- --  -- -- -- -- -- -- -- --
0000: 00                                                .               
```

#### Opcodes

```
  0: 0x0000 [0x00] END_REQSTACK()
```

### Event 65535.1

#### Metadata

| Field        | Value    |
|--------------|----------|
| Entrypoint   | 0x0001   |
| Data Size    | 16 bytes |
| Instructions | 2        |

```
      00 01 02 03 04 05 06 07  08 09 0A 0B 0C 0D 0E 0F
      -- -- -- -- -- -- -- --  -- -- -- -- -- -- -- --
0000:    5B 00 80 F8 FF FF 7F  F8 FF FF 7F 74 6C 61 30   [..........tla0
0010: 00                                                .               
```

#### Opcodes

```
  0: 0x0001 [0x5B] LOAD_EXT_SCHEDULER: Load scheduler "tla0" with entities [EventEntity, EventEntity], work=425*
  1: 0x0010 [0x00] END_REQSTACK()
```

### Event 65535.2

#### Metadata

| Field        | Value    |
|--------------|----------|
| Entrypoint   | 0x0011   |
| Data Size    | 14 bytes |
| Instructions | 2        |

```
      00 01 02 03 04 05 06 07  08 09 0A 0B 0C 0D 0E 0F
      -- -- -- -- -- -- -- --  -- -- -- -- -- -- -- --
0010:    53 F8 FF FF 7F F8 FF  FF 7F 74 6C 61 30 00      S........tla0. 
```

#### Opcodes

```
  0: 0x0011 [0x53] WAIT_SCHEDULER_TASK: Wait for scheduler "tla0" with entities [EventEntity, EventEntity]
  1: 0x001E [0x00] END_REQSTACK()
```

### Event 65535.3

#### Metadata

| Field        | Value    |
|--------------|----------|
| Entrypoint   | 0x001F   |
| Data Size    | 16 bytes |
| Instructions | 2        |

```
      00 01 02 03 04 05 06 07  08 09 0A 0B 0C 0D 0E 0F
      -- -- -- -- -- -- -- --  -- -- -- -- -- -- -- --
0010:                                               5B                 [
0020: 00 80 F8 FF FF 7F F8 FF  FF 7F 74 6C 61 31 00     ..........tla1. 
```

#### Opcodes

```
  0: 0x001F [0x5B] LOAD_EXT_SCHEDULER: Load scheduler "tla1" with entities [EventEntity, EventEntity], work=425*
  1: 0x002E [0x00] END_REQSTACK()
```

### Event 65535.4

#### Metadata

| Field        | Value    |
|--------------|----------|
| Entrypoint   | 0x002F   |
| Data Size    | 14 bytes |
| Instructions | 2        |

```
      00 01 02 03 04 05 06 07  08 09 0A 0B 0C 0D 0E 0F
      -- -- -- -- -- -- -- --  -- -- -- -- -- -- -- --
0020:                                               53                 S
0030: F8 FF FF 7F F8 FF FF 7F  74 6C 61 31 00           ........tla1.   
```

#### Opcodes

```
  0: 0x002F [0x53] WAIT_SCHEDULER_TASK: Wait for scheduler "tla1" with entities [EventEntity, EventEntity]
  1: 0x003C [0x00] END_REQSTACK()
```

### Event 65535.5

#### Metadata

| Field        | Value    |
|--------------|----------|
| Entrypoint   | 0x003D   |
| Data Size    | 16 bytes |
| Instructions | 2        |

```
      00 01 02 03 04 05 06 07  08 09 0A 0B 0C 0D 0E 0F
      -- -- -- -- -- -- -- --  -- -- -- -- -- -- -- --
0030:                                         5B 00 80               [..
0040: F8 FF FF 7F F8 FF FF 7F  74 6C 62 30 00           ........tlb0.   
```

#### Opcodes

```
  0: 0x003D [0x5B] LOAD_EXT_SCHEDULER: Load scheduler "tlb0" with entities [EventEntity, EventEntity], work=425*
  1: 0x004C [0x00] END_REQSTACK()
```

### Event 65535.6

#### Metadata

| Field        | Value    |
|--------------|----------|
| Entrypoint   | 0x004D   |
| Data Size    | 14 bytes |
| Instructions | 2        |

```
      00 01 02 03 04 05 06 07  08 09 0A 0B 0C 0D 0E 0F
      -- -- -- -- -- -- -- --  -- -- -- -- -- -- -- --
0040:                                         53 F8 FF               S..
0050: FF 7F F8 FF FF 7F 74 6C  62 30 00                 ......tlb0.     
```

#### Opcodes

```
  0: 0x004D [0x53] WAIT_SCHEDULER_TASK: Wait for scheduler "tlb0" with entities [EventEntity, EventEntity]
  1: 0x005A [0x00] END_REQSTACK()
```

### Event 65535.7

#### Metadata

| Field        | Value    |
|--------------|----------|
| Entrypoint   | 0x005B   |
| Data Size    | 16 bytes |
| Instructions | 2        |

```
      00 01 02 03 04 05 06 07  08 09 0A 0B 0C 0D 0E 0F
      -- -- -- -- -- -- -- --  -- -- -- -- -- -- -- --
0050:                                   5B 00 80 F8 FF             [....
0060: FF 7F F8 FF FF 7F 74 6C  62 31 00                 ......tlb1.     
```

#### Opcodes

```
  0: 0x005B [0x5B] LOAD_EXT_SCHEDULER: Load scheduler "tlb1" with entities [EventEntity, EventEntity], work=425*
  1: 0x006A [0x00] END_REQSTACK()
```

### Event 65535.8

#### Metadata

| Field        | Value    |
|--------------|----------|
| Entrypoint   | 0x006B   |
| Data Size    | 14 bytes |
| Instructions | 2        |

```
      00 01 02 03 04 05 06 07  08 09 0A 0B 0C 0D 0E 0F
      -- -- -- -- -- -- -- --  -- -- -- -- -- -- -- --
0060:                                   53 F8 FF FF 7F             S....
0070: F8 FF FF 7F 74 6C 62 31  00                       ....tlb1.       
```

#### Opcodes

```
  0: 0x006B [0x53] WAIT_SCHEDULER_TASK: Wait for scheduler "tlb1" with entities [EventEntity, EventEntity]
  1: 0x0078 [0x00] END_REQSTACK()
```

### Event 65535.9

#### Metadata

| Field        | Value    |
|--------------|----------|
| Entrypoint   | 0x0079   |
| Data Size    | 16 bytes |
| Instructions | 2        |

```
      00 01 02 03 04 05 06 07  08 09 0A 0B 0C 0D 0E 0F
      -- -- -- -- -- -- -- --  -- -- -- -- -- -- -- --
0070:                             5B 01 80 F8 FF FF 7F           [......
0080: F8 FF FF 7F 74 6C 63 30  00                       ....tlc0.       
```

#### Opcodes

```
  0: 0x0079 [0x5B] LOAD_EXT_SCHEDULER: Load scheduler "tlc0" with entities [EventEntity, EventEntity], work=427*
  1: 0x0088 [0x00] END_REQSTACK()
```

### Event 65535.10

#### Metadata

| Field        | Value    |
|--------------|----------|
| Entrypoint   | 0x0089   |
| Data Size    | 14 bytes |
| Instructions | 2        |

```
      00 01 02 03 04 05 06 07  08 09 0A 0B 0C 0D 0E 0F
      -- -- -- -- -- -- -- --  -- -- -- -- -- -- -- --
0080:                             53 F8 FF FF 7F F8 FF           S......
0090: FF 7F 74 6C 63 30 00                              ..tlc0.         
```

#### Opcodes

```
  0: 0x0089 [0x53] WAIT_SCHEDULER_TASK: Wait for scheduler "tlc0" with entities [EventEntity, EventEntity]
  1: 0x0096 [0x00] END_REQSTACK()
```

### Event 65535.11

#### Metadata

| Field        | Value    |
|--------------|----------|
| Entrypoint   | 0x0097   |
| Data Size    | 16 bytes |
| Instructions | 2        |

```
      00 01 02 03 04 05 06 07  08 09 0A 0B 0C 0D 0E 0F
      -- -- -- -- -- -- -- --  -- -- -- -- -- -- -- --
0090:                      5B  01 80 F8 FF FF 7F F8 FF         [........
00A0: FF 7F 74 6C 63 31 00                              ..tlc1.         
```

#### Opcodes

```
  0: 0x0097 [0x5B] LOAD_EXT_SCHEDULER: Load scheduler "tlc1" with entities [EventEntity, EventEntity], work=427*
  1: 0x00A6 [0x00] END_REQSTACK()
```

### Event 65535.12

#### Metadata

| Field        | Value    |
|--------------|----------|
| Entrypoint   | 0x00A7   |
| Data Size    | 14 bytes |
| Instructions | 2        |

```
      00 01 02 03 04 05 06 07  08 09 0A 0B 0C 0D 0E 0F
      -- -- -- -- -- -- -- --  -- -- -- -- -- -- -- --
00A0:                      53  F8 FF FF 7F F8 FF FF 7F         S........
00B0: 74 6C 63 31 00                                    tlc1.           
```

#### Opcodes

```
  0: 0x00A7 [0x53] WAIT_SCHEDULER_TASK: Wait for scheduler "tlc1" with entities [EventEntity, EventEntity]
  1: 0x00B4 [0x00] END_REQSTACK()
```

### Event 65535.13

#### Metadata

| Field        | Value    |
|--------------|----------|
| Entrypoint   | 0x00B5   |
| Data Size    | 16 bytes |
| Instructions | 2        |

```
      00 01 02 03 04 05 06 07  08 09 0A 0B 0C 0D 0E 0F
      -- -- -- -- -- -- -- --  -- -- -- -- -- -- -- --
00B0:                5B 00 80  F8 FF FF 7F F8 FF FF 7F       [..........
00C0: 74 61 74 68 00                                    tath.           
```

#### Opcodes

```
  0: 0x00B5 [0x5B] LOAD_EXT_SCHEDULER: Load scheduler "tath" with entities [EventEntity, EventEntity], work=425*
  1: 0x00C4 [0x00] END_REQSTACK()
```

### Event 65535.14

#### Metadata

| Field        | Value    |
|--------------|----------|
| Entrypoint   | 0x00C5   |
| Data Size    | 14 bytes |
| Instructions | 2        |

```
      00 01 02 03 04 05 06 07  08 09 0A 0B 0C 0D 0E 0F
      -- -- -- -- -- -- -- --  -- -- -- -- -- -- -- --
00C0:                53 F8 FF  FF 7F F8 FF FF 7F 74 61       S........ta
00D0: 74 68 00                                          th.             
```

#### Opcodes

```
  0: 0x00C5 [0x53] WAIT_SCHEDULER_TASK: Wait for scheduler "tath" with entities [EventEntity, EventEntity]
  1: 0x00D2 [0x00] END_REQSTACK()
```

### Event 65535.15

#### Metadata

| Field        | Value    |
|--------------|----------|
| Entrypoint   | 0x00D3   |
| Data Size    | 16 bytes |
| Instructions | 2        |

```
      00 01 02 03 04 05 06 07  08 09 0A 0B 0C 0D 0E 0F
      -- -- -- -- -- -- -- --  -- -- -- -- -- -- -- --
00D0:          5B 00 80 F8 FF  FF 7F F8 FF FF 7F 74 62     [..........tb
00E0: 61 30 00                                          a0.             
```

#### Opcodes

```
  0: 0x00D3 [0x5B] LOAD_EXT_SCHEDULER: Load scheduler "tba0" with entities [EventEntity, EventEntity], work=425*
  1: 0x00E2 [0x00] END_REQSTACK()
```

### Event 65535.16

#### Metadata

| Field        | Value    |
|--------------|----------|
| Entrypoint   | 0x00E3   |
| Data Size    | 14 bytes |
| Instructions | 2        |

```
      00 01 02 03 04 05 06 07  08 09 0A 0B 0C 0D 0E 0F
      -- -- -- -- -- -- -- --  -- -- -- -- -- -- -- --
00E0:          53 F8 FF FF 7F  F8 FF FF 7F 74 62 61 30     S........tba0
00F0: 00                                                .               
```

#### Opcodes

```
  0: 0x00E3 [0x53] WAIT_SCHEDULER_TASK: Wait for scheduler "tba0" with entities [EventEntity, EventEntity]
  1: 0x00F0 [0x00] END_REQSTACK()
```

### Event 65535.17

#### Metadata

| Field        | Value    |
|--------------|----------|
| Entrypoint   | 0x00F1   |
| Data Size    | 16 bytes |
| Instructions | 2        |

```
      00 01 02 03 04 05 06 07  08 09 0A 0B 0C 0D 0E 0F
      -- -- -- -- -- -- -- --  -- -- -- -- -- -- -- --
00F0:    5B 00 80 F8 FF FF 7F  F8 FF FF 7F 74 68 6B 30   [..........thk0
0100: 00                                                .               
```

#### Opcodes

```
  0: 0x00F1 [0x5B] LOAD_EXT_SCHEDULER: Load scheduler "thk0" with entities [EventEntity, EventEntity], work=425*
  1: 0x0100 [0x00] END_REQSTACK()
```

### Event 65535.18

#### Metadata

| Field        | Value    |
|--------------|----------|
| Entrypoint   | 0x0101   |
| Data Size    | 14 bytes |
| Instructions | 2        |

```
      00 01 02 03 04 05 06 07  08 09 0A 0B 0C 0D 0E 0F
      -- -- -- -- -- -- -- --  -- -- -- -- -- -- -- --
0100:    53 F8 FF FF 7F F8 FF  FF 7F 74 68 6B 30 00      S........thk0. 
```

#### Opcodes

```
  0: 0x0101 [0x53] WAIT_SCHEDULER_TASK: Wait for scheduler "thk0" with entities [EventEntity, EventEntity]
  1: 0x010E [0x00] END_REQSTACK()
```

### Event 65535.19

#### Metadata

| Field        | Value    |
|--------------|----------|
| Entrypoint   | 0x010F   |
| Data Size    | 16 bytes |
| Instructions | 2        |

```
      00 01 02 03 04 05 06 07  08 09 0A 0B 0C 0D 0E 0F
      -- -- -- -- -- -- -- --  -- -- -- -- -- -- -- --
0100:                                               5B                 [
0110: 00 80 F8 FF FF 7F F8 FF  FF 7F 74 68 6B 31 00     ..........thk1. 
```

#### Opcodes

```
  0: 0x010F [0x5B] LOAD_EXT_SCHEDULER: Load scheduler "thk1" with entities [EventEntity, EventEntity], work=425*
  1: 0x011E [0x00] END_REQSTACK()
```

### Event 65535.20

#### Metadata

| Field        | Value    |
|--------------|----------|
| Entrypoint   | 0x011F   |
| Data Size    | 14 bytes |
| Instructions | 2        |

```
      00 01 02 03 04 05 06 07  08 09 0A 0B 0C 0D 0E 0F
      -- -- -- -- -- -- -- --  -- -- -- -- -- -- -- --
0110:                                               53                 S
0120: F8 FF FF 7F F8 FF FF 7F  74 68 6B 31 00           ........thk1.   
```

#### Opcodes

```
  0: 0x011F [0x53] WAIT_SCHEDULER_TASK: Wait for scheduler "thk1" with entities [EventEntity, EventEntity]
  1: 0x012C [0x00] END_REQSTACK()
```

### Event 65535.21

#### Metadata

| Field        | Value    |
|--------------|----------|
| Entrypoint   | 0x012D   |
| Data Size    | 16 bytes |
| Instructions | 2        |

```
      00 01 02 03 04 05 06 07  08 09 0A 0B 0C 0D 0E 0F
      -- -- -- -- -- -- -- --  -- -- -- -- -- -- -- --
0120:                                         5B 01 80               [..
0130: F8 FF FF 7F F8 FF FF 7F  6F 64 6F 30 00           ........odo0.   
```

#### Opcodes

```
  0: 0x012D [0x5B] LOAD_EXT_SCHEDULER: Load scheduler "odo0" with entities [EventEntity, EventEntity], work=427*
  1: 0x013C [0x00] END_REQSTACK()
```

### Event 65535.22

#### Metadata

| Field        | Value    |
|--------------|----------|
| Entrypoint   | 0x013D   |
| Data Size    | 14 bytes |
| Instructions | 2        |

```
      00 01 02 03 04 05 06 07  08 09 0A 0B 0C 0D 0E 0F
      -- -- -- -- -- -- -- --  -- -- -- -- -- -- -- --
0130:                                         53 F8 FF               S..
0140: FF 7F F8 FF FF 7F 6F 64  6F 30 00                 ......odo0.     
```

#### Opcodes

```
  0: 0x013D [0x53] WAIT_SCHEDULER_TASK: Wait for scheduler "odo0" with entities [EventEntity, EventEntity]
  1: 0x014A [0x00] END_REQSTACK()
```

### Event 65535.23

#### Metadata

| Field        | Value    |
|--------------|----------|
| Entrypoint   | 0x014B   |
| Data Size    | 16 bytes |
| Instructions | 2        |

```
      00 01 02 03 04 05 06 07  08 09 0A 0B 0C 0D 0E 0F
      -- -- -- -- -- -- -- --  -- -- -- -- -- -- -- --
0140:                                   5B 01 80 F8 FF             [....
0150: FF 7F F8 FF FF 7F 6F 64  6F 31 00                 ......odo1.     
```

#### Opcodes

```
  0: 0x014B [0x5B] LOAD_EXT_SCHEDULER: Load scheduler "odo1" with entities [EventEntity, EventEntity], work=427*
  1: 0x015A [0x00] END_REQSTACK()
```

### Event 65535.24

#### Metadata

| Field        | Value    |
|--------------|----------|
| Entrypoint   | 0x015B   |
| Data Size    | 14 bytes |
| Instructions | 2        |

```
      00 01 02 03 04 05 06 07  08 09 0A 0B 0C 0D 0E 0F
      -- -- -- -- -- -- -- --  -- -- -- -- -- -- -- --
0150:                                   53 F8 FF FF 7F             S....
0160: F8 FF FF 7F 6F 64 6F 31  00                       ....odo1.       
```

#### Opcodes

```
  0: 0x015B [0x53] WAIT_SCHEDULER_TASK: Wait for scheduler "odo1" with entities [EventEntity, EventEntity]
  1: 0x0168 [0x00] END_REQSTACK()
```

### Event 65535.25

#### Metadata

| Field        | Value    |
|--------------|----------|
| Entrypoint   | 0x0169   |
| Data Size    | 16 bytes |
| Instructions | 2        |

```
      00 01 02 03 04 05 06 07  08 09 0A 0B 0C 0D 0E 0F
      -- -- -- -- -- -- -- --  -- -- -- -- -- -- -- --
0160:                             5B 01 80 F8 FF FF 7F           [......
0170: F8 FF FF 7F 6F 64 74 63  00                       ....odtc.       
```

#### Opcodes

```
  0: 0x0169 [0x5B] LOAD_EXT_SCHEDULER: Load scheduler "odtc" with entities [EventEntity, EventEntity], work=427*
  1: 0x0178 [0x00] END_REQSTACK()
```

### Event 65535.26

#### Metadata

| Field        | Value    |
|--------------|----------|
| Entrypoint   | 0x0179   |
| Data Size    | 14 bytes |
| Instructions | 2        |

```
      00 01 02 03 04 05 06 07  08 09 0A 0B 0C 0D 0E 0F
      -- -- -- -- -- -- -- --  -- -- -- -- -- -- -- --
0170:                             53 F8 FF FF 7F F8 FF           S......
0180: FF 7F 6F 64 74 63 00                              ..odtc.         
```

#### Opcodes

```
  0: 0x0179 [0x53] WAIT_SCHEDULER_TASK: Wait for scheduler "odtc" with entities [EventEntity, EventEntity]
  1: 0x0186 [0x00] END_REQSTACK()
```

### Event 65535.27

#### Metadata

| Field        | Value    |
|--------------|----------|
| Entrypoint   | 0x0187   |
| Data Size    | 16 bytes |
| Instructions | 2        |

```
      00 01 02 03 04 05 06 07  08 09 0A 0B 0C 0D 0E 0F
      -- -- -- -- -- -- -- --  -- -- -- -- -- -- -- --
0180:                      5B  01 80 F8 FF FF 7F F8 FF         [........
0190: FF 7F 74 63 6F 64 00                              ..tcod.         
```

#### Opcodes

```
  0: 0x0187 [0x5B] LOAD_EXT_SCHEDULER: Load scheduler "tcod" with entities [EventEntity, EventEntity], work=427*
  1: 0x0196 [0x00] END_REQSTACK()
```

### Event 65535.28

#### Metadata

| Field        | Value    |
|--------------|----------|
| Entrypoint   | 0x0197   |
| Data Size    | 14 bytes |
| Instructions | 2        |

```
      00 01 02 03 04 05 06 07  08 09 0A 0B 0C 0D 0E 0F
      -- -- -- -- -- -- -- --  -- -- -- -- -- -- -- --
0190:                      53  F8 FF FF 7F F8 FF FF 7F         S........
01A0: 74 63 6F 64 00                                    tcod.           
```

#### Opcodes

```
  0: 0x0197 [0x53] WAIT_SCHEDULER_TASK: Wait for scheduler "tcod" with entities [EventEntity, EventEntity]
  1: 0x01A4 [0x00] END_REQSTACK()
```

### Event 65535.29

#### Metadata

| Field        | Value    |
|--------------|----------|
| Entrypoint   | 0x01A5   |
| Data Size    | 16 bytes |
| Instructions | 2        |

```
      00 01 02 03 04 05 06 07  08 09 0A 0B 0C 0D 0E 0F
      -- -- -- -- -- -- -- --  -- -- -- -- -- -- -- --
01A0:                5B 02 80  F8 FF FF 7F F8 FF FF 7F       [..........
01B0: 73 72 61 30 00                                    sra0.           
```

#### Opcodes

```
  0: 0x01A5 [0x5B] LOAD_EXT_SCHEDULER: Load scheduler "sra0" with entities [EventEntity, EventEntity], work=426*
  1: 0x01B4 [0x00] END_REQSTACK()
```

### Event 65535.30

#### Metadata

| Field        | Value    |
|--------------|----------|
| Entrypoint   | 0x01B5   |
| Data Size    | 14 bytes |
| Instructions | 2        |

```
      00 01 02 03 04 05 06 07  08 09 0A 0B 0C 0D 0E 0F
      -- -- -- -- -- -- -- --  -- -- -- -- -- -- -- --
01B0:                53 F8 FF  FF 7F F8 FF FF 7F 73 72       S........sr
01C0: 61 30 00                                          a0.             
```

#### Opcodes

```
  0: 0x01B5 [0x53] WAIT_SCHEDULER_TASK: Wait for scheduler "sra0" with entities [EventEntity, EventEntity]
  1: 0x01C2 [0x00] END_REQSTACK()
```

### Event 65535.31

#### Metadata

| Field        | Value    |
|--------------|----------|
| Entrypoint   | 0x01C3   |
| Data Size    | 16 bytes |
| Instructions | 2        |

```
      00 01 02 03 04 05 06 07  08 09 0A 0B 0C 0D 0E 0F
      -- -- -- -- -- -- -- --  -- -- -- -- -- -- -- --
01C0:          5B 02 80 F8 FF  FF 7F F8 FF FF 7F 73 72     [..........sr
01D0: 61 31 00                                          a1.             
```

#### Opcodes

```
  0: 0x01C3 [0x5B] LOAD_EXT_SCHEDULER: Load scheduler "sra1" with entities [EventEntity, EventEntity], work=426*
  1: 0x01D2 [0x00] END_REQSTACK()
```

### Event 65535.32

#### Metadata

| Field        | Value    |
|--------------|----------|
| Entrypoint   | 0x01D3   |
| Data Size    | 14 bytes |
| Instructions | 2        |

```
      00 01 02 03 04 05 06 07  08 09 0A 0B 0C 0D 0E 0F
      -- -- -- -- -- -- -- --  -- -- -- -- -- -- -- --
01D0:          53 F8 FF FF 7F  F8 FF FF 7F 73 72 61 31     S........sra1
01E0: 00                                                .               
```

#### Opcodes

```
  0: 0x01D3 [0x53] WAIT_SCHEDULER_TASK: Wait for scheduler "sra1" with entities [EventEntity, EventEntity]
  1: 0x01E0 [0x00] END_REQSTACK()
```

### Event 65535.33

#### Metadata

| Field        | Value    |
|--------------|----------|
| Entrypoint   | 0x01E1   |
| Data Size    | 16 bytes |
| Instructions | 2        |

```
      00 01 02 03 04 05 06 07  08 09 0A 0B 0C 0D 0E 0F
      -- -- -- -- -- -- -- --  -- -- -- -- -- -- -- --
01E0:    5B 03 80 F8 FF FF 7F  F8 FF FF 7F 6B 74 6E 30   [..........ktn0
01F0: 00                                                .               
```

#### Opcodes

```
  0: 0x01E1 [0x5B] LOAD_EXT_SCHEDULER: Load scheduler "ktn0" with entities [EventEntity, EventEntity], work=428*
  1: 0x01F0 [0x00] END_REQSTACK()
```

### Event 65535.34

#### Metadata

| Field        | Value    |
|--------------|----------|
| Entrypoint   | 0x01F1   |
| Data Size    | 14 bytes |
| Instructions | 2        |

```
      00 01 02 03 04 05 06 07  08 09 0A 0B 0C 0D 0E 0F
      -- -- -- -- -- -- -- --  -- -- -- -- -- -- -- --
01F0:    53 F8 FF FF 7F F8 FF  FF 7F 6B 74 6E 30 00      S........ktn0. 
```

#### Opcodes

```
  0: 0x01F1 [0x53] WAIT_SCHEDULER_TASK: Wait for scheduler "ktn0" with entities [EventEntity, EventEntity]
  1: 0x01FE [0x00] END_REQSTACK()
```

### Event 65535.35

#### Metadata

| Field        | Value    |
|--------------|----------|
| Entrypoint   | 0x01FF   |
| Data Size    | 16 bytes |
| Instructions | 2        |

```
      00 01 02 03 04 05 06 07  08 09 0A 0B 0C 0D 0E 0F
      -- -- -- -- -- -- -- --  -- -- -- -- -- -- -- --
01F0:                                               5B                 [
0200: 03 80 F8 FF FF 7F F8 FF  FF 7F 6B 74 6E 31 00     ..........ktn1. 
```

#### Opcodes

```
  0: 0x01FF [0x5B] LOAD_EXT_SCHEDULER: Load scheduler "ktn1" with entities [EventEntity, EventEntity], work=428*
  1: 0x020E [0x00] END_REQSTACK()
```

### Event 65535.36

#### Metadata

| Field        | Value    |
|--------------|----------|
| Entrypoint   | 0x020F   |
| Data Size    | 14 bytes |
| Instructions | 2        |

```
      00 01 02 03 04 05 06 07  08 09 0A 0B 0C 0D 0E 0F
      -- -- -- -- -- -- -- --  -- -- -- -- -- -- -- --
0200:                                               53                 S
0210: F8 FF FF 7F F8 FF FF 7F  6B 74 6E 31 00           ........ktn1.   
```

#### Opcodes

```
  0: 0x020F [0x53] WAIT_SCHEDULER_TASK: Wait for scheduler "ktn1" with entities [EventEntity, EventEntity]
  1: 0x021C [0x00] END_REQSTACK()
```

### Event 65535.37

#### Metadata

| Field        | Value    |
|--------------|----------|
| Entrypoint   | 0x021D   |
| Data Size    | 57 bytes |
| Instructions | 5        |

```
      00 01 02 03 04 05 06 07  08 09 0A 0B 0C 0D 0E 0F
      -- -- -- -- -- -- -- --  -- -- -- -- -- -- -- --
0210:                                         5B 03 80               [..
0220: F8 FF FF 7F F8 FF FF 7F  6B 74 6E 30 53 F8 FF FF  ........ktn0S...
0230: 7F F8 FF FF 7F 6B 74 6E  30 5B 03 80 F8 FF FF 7F  .....ktn0[......
0240: F8 FF FF 7F 6B 74 6E 31  53 F8 FF FF 7F F8 FF FF  ....ktn1S.......
0250: 7F 6B 74 6E 31 00                                 .ktn1.          
```

#### Opcodes

```
  0: 0x021D [0x5B] LOAD_EXT_SCHEDULER: Load scheduler "ktn0" with entities [EventEntity, EventEntity], work=428*
  1: 0x022C [0x53] WAIT_SCHEDULER_TASK: Wait for scheduler "ktn0" with entities [EventEntity, EventEntity]
  2: 0x0239 [0x5B] LOAD_EXT_SCHEDULER: Load scheduler "ktn1" with entities [EventEntity, EventEntity], work=428*
  3: 0x0248 [0x53] WAIT_SCHEDULER_TASK: Wait for scheduler "ktn1" with entities [EventEntity, EventEntity]
  4: 0x0255 [0x00] END_REQSTACK()
```

### Event 65535.38

#### Metadata

| Field        | Value    |
|--------------|----------|
| Entrypoint   | 0x0256   |
| Data Size    | 16 bytes |
| Instructions | 2        |

```
      00 01 02 03 04 05 06 07  08 09 0A 0B 0C 0D 0E 0F
      -- -- -- -- -- -- -- --  -- -- -- -- -- -- -- --
0250:                   5B 04  80 F8 FF FF 7F F8 FF FF        [.........
0260: 7F 74 6C 68 32 00                                 .tlh2.          
```

#### Opcodes

```
  0: 0x0256 [0x5B] LOAD_EXT_SCHEDULER: Load scheduler "tlh2" with entities [EventEntity, EventEntity], work=640*
  1: 0x0265 [0x00] END_REQSTACK()
```

### Event 65535.39

#### Metadata

| Field        | Value    |
|--------------|----------|
| Entrypoint   | 0x0266   |
| Data Size    | 14 bytes |
| Instructions | 2        |

```
      00 01 02 03 04 05 06 07  08 09 0A 0B 0C 0D 0E 0F
      -- -- -- -- -- -- -- --  -- -- -- -- -- -- -- --
0260:                   53 F8  FF FF 7F F8 FF FF 7F 74        S........t
0270: 6C 68 32 00                                       lh2.            
```

#### Opcodes

```
  0: 0x0266 [0x53] WAIT_SCHEDULER_TASK: Wait for scheduler "tlh2" with entities [EventEntity, EventEntity]
  1: 0x0273 [0x00] END_REQSTACK()
```

### Event 65535.40

#### Metadata

| Field        | Value    |
|--------------|----------|
| Entrypoint   | 0x0274   |
| Data Size    | 16 bytes |
| Instructions | 2        |

```
      00 01 02 03 04 05 06 07  08 09 0A 0B 0C 0D 0E 0F
      -- -- -- -- -- -- -- --  -- -- -- -- -- -- -- --
0270:             5B 04 80 F8  FF FF 7F F8 FF FF 7F 74      [..........t
0280: 6C 68 33 00                                       lh3.            
```

#### Opcodes

```
  0: 0x0274 [0x5B] LOAD_EXT_SCHEDULER: Load scheduler "tlh3" with entities [EventEntity, EventEntity], work=640*
  1: 0x0283 [0x00] END_REQSTACK()
```

### Event 65535.41

#### Metadata

| Field        | Value    |
|--------------|----------|
| Entrypoint   | 0x0284   |
| Data Size    | 14 bytes |
| Instructions | 2        |

```
      00 01 02 03 04 05 06 07  08 09 0A 0B 0C 0D 0E 0F
      -- -- -- -- -- -- -- --  -- -- -- -- -- -- -- --
0280:             53 F8 FF FF  7F F8 FF FF 7F 74 6C 68      S........tlh
0290: 33 00                                             3.              
```

#### Opcodes

```
  0: 0x0284 [0x53] WAIT_SCHEDULER_TASK: Wait for scheduler "tlh3" with entities [EventEntity, EventEntity]
  1: 0x0291 [0x00] END_REQSTACK()
```

### Event 65535.42

#### Metadata

| Field        | Value    |
|--------------|----------|
| Entrypoint   | 0x0292   |
| Data Size    | 16 bytes |
| Instructions | 2        |

```
      00 01 02 03 04 05 06 07  08 09 0A 0B 0C 0D 0E 0F
      -- -- -- -- -- -- -- --  -- -- -- -- -- -- -- --
0290:       5B 04 80 F8 FF FF  7F F8 FF FF 7F 74 6C 68    [..........tlh
02A0: 30 00                                             0.              
```

#### Opcodes

```
  0: 0x0292 [0x5B] LOAD_EXT_SCHEDULER: Load scheduler "tlh0" with entities [EventEntity, EventEntity], work=640*
  1: 0x02A1 [0x00] END_REQSTACK()
```

### Event 65535.43

#### Metadata

| Field        | Value    |
|--------------|----------|
| Entrypoint   | 0x02A2   |
| Data Size    | 14 bytes |
| Instructions | 2        |

```
      00 01 02 03 04 05 06 07  08 09 0A 0B 0C 0D 0E 0F
      -- -- -- -- -- -- -- --  -- -- -- -- -- -- -- --
02A0:       53 F8 FF FF 7F F8  FF FF 7F 74 6C 68 30 00    S........tlh0.
```

#### Opcodes

```
  0: 0x02A2 [0x53] WAIT_SCHEDULER_TASK: Wait for scheduler "tlh0" with entities [EventEntity, EventEntity]
  1: 0x02AF [0x00] END_REQSTACK()
```

### Event 65535.44

#### Metadata

| Field        | Value    |
|--------------|----------|
| Entrypoint   | 0x02B0   |
| Data Size    | 16 bytes |
| Instructions | 2        |

```
      00 01 02 03 04 05 06 07  08 09 0A 0B 0C 0D 0E 0F
      -- -- -- -- -- -- -- --  -- -- -- -- -- -- -- --
02B0: 5B 04 80 F8 FF FF 7F F8  FF FF 7F 74 6C 68 31 00  [..........tlh1.
```

#### Opcodes

```
  0: 0x02B0 [0x5B] LOAD_EXT_SCHEDULER: Load scheduler "tlh1" with entities [EventEntity, EventEntity], work=640*
  1: 0x02BF [0x00] END_REQSTACK()
```

### Event 65535.45

#### Metadata

| Field        | Value    |
|--------------|----------|
| Entrypoint   | 0x02C0   |
| Data Size    | 14 bytes |
| Instructions | 2        |

```
      00 01 02 03 04 05 06 07  08 09 0A 0B 0C 0D 0E 0F
      -- -- -- -- -- -- -- --  -- -- -- -- -- -- -- --
02C0: 53 F8 FF FF 7F F8 FF FF  7F 74 6C 68 31 00        S........tlh1.  
```

#### Opcodes

```
  0: 0x02C0 [0x53] WAIT_SCHEDULER_TASK: Wait for scheduler "tlh1" with entities [EventEntity, EventEntity]
  1: 0x02CD [0x00] END_REQSTACK()
```

### Event 65535.46

#### Metadata

| Field        | Value    |
|--------------|----------|
| Entrypoint   | 0x02CE   |
| Data Size    | 16 bytes |
| Instructions | 2        |

```
      00 01 02 03 04 05 06 07  08 09 0A 0B 0C 0D 0E 0F
      -- -- -- -- -- -- -- --  -- -- -- -- -- -- -- --
02C0:                                            5B 01                [.
02D0: 80 F8 FF FF 7F F8 FF FF  7F 69 61 69 30 00        .........iai0.  
```

#### Opcodes

```
  0: 0x02CE [0x5B] LOAD_EXT_SCHEDULER: Load scheduler "iai0" with entities [EventEntity, EventEntity], work=427*
  1: 0x02DD [0x00] END_REQSTACK()
```

### Event 65535.47

#### Metadata

| Field        | Value    |
|--------------|----------|
| Entrypoint   | 0x02DE   |
| Data Size    | 14 bytes |
| Instructions | 2        |

```
      00 01 02 03 04 05 06 07  08 09 0A 0B 0C 0D 0E 0F
      -- -- -- -- -- -- -- --  -- -- -- -- -- -- -- --
02D0:                                            53 F8                S.
02E0: FF FF 7F F8 FF FF 7F 69  61 69 30 00              .......iai0.    
```

#### Opcodes

```
  0: 0x02DE [0x53] WAIT_SCHEDULER_TASK: Wait for scheduler "iai0" with entities [EventEntity, EventEntity]
  1: 0x02EB [0x00] END_REQSTACK()
```

### Event 65535.48

#### Metadata

| Field        | Value    |
|--------------|----------|
| Entrypoint   | 0x02EC   |
| Data Size    | 16 bytes |
| Instructions | 2        |

```
      00 01 02 03 04 05 06 07  08 09 0A 0B 0C 0D 0E 0F
      -- -- -- -- -- -- -- --  -- -- -- -- -- -- -- --
02E0:                                      5B 01 80 F8              [...
02F0: FF FF 7F F8 FF FF 7F 69  61 69 31 00              .......iai1.    
```

#### Opcodes

```
  0: 0x02EC [0x5B] LOAD_EXT_SCHEDULER: Load scheduler "iai1" with entities [EventEntity, EventEntity], work=427*
  1: 0x02FB [0x00] END_REQSTACK()
```

### Event 65535.49

#### Metadata

| Field        | Value    |
|--------------|----------|
| Entrypoint   | 0x02FC   |
| Data Size    | 14 bytes |
| Instructions | 2        |

```
      00 01 02 03 04 05 06 07  08 09 0A 0B 0C 0D 0E 0F
      -- -- -- -- -- -- -- --  -- -- -- -- -- -- -- --
02F0:                                      53 F8 FF FF              S...
0300: 7F F8 FF FF 7F 69 61 69  31 00                    .....iai1.      
```

#### Opcodes

```
  0: 0x02FC [0x53] WAIT_SCHEDULER_TASK: Wait for scheduler "iai1" with entities [EventEntity, EventEntity]
  1: 0x0309 [0x00] END_REQSTACK()
```

### Event 65535.50

#### Metadata

| Field        | Value    |
|--------------|----------|
| Entrypoint   | 0x030A   |
| Data Size    | 16 bytes |
| Instructions | 2        |

```
      00 01 02 03 04 05 06 07  08 09 0A 0B 0C 0D 0E 0F
      -- -- -- -- -- -- -- --  -- -- -- -- -- -- -- --
0300:                                5B 01 80 F8 FF FF            [.....
0310: 7F F8 FF FF 7F 72 65 69  30 00                    .....rei0.      
```

#### Opcodes

```
  0: 0x030A [0x5B] LOAD_EXT_SCHEDULER: Load scheduler "rei0" with entities [EventEntity, EventEntity], work=427*
  1: 0x0319 [0x00] END_REQSTACK()
```

### Event 65535.51

#### Metadata

| Field        | Value    |
|--------------|----------|
| Entrypoint   | 0x031A   |
| Data Size    | 14 bytes |
| Instructions | 2        |

```
      00 01 02 03 04 05 06 07  08 09 0A 0B 0C 0D 0E 0F
      -- -- -- -- -- -- -- --  -- -- -- -- -- -- -- --
0310:                                53 F8 FF FF 7F F8            S.....
0320: FF FF 7F 72 65 69 30 00                           ...rei0.        
```

#### Opcodes

```
  0: 0x031A [0x53] WAIT_SCHEDULER_TASK: Wait for scheduler "rei0" with entities [EventEntity, EventEntity]
  1: 0x0327 [0x00] END_REQSTACK()
```

### Event 65535.52

#### Metadata

| Field        | Value    |
|--------------|----------|
| Entrypoint   | 0x0328   |
| Data Size    | 16 bytes |
| Instructions | 2        |

```
      00 01 02 03 04 05 06 07  08 09 0A 0B 0C 0D 0E 0F
      -- -- -- -- -- -- -- --  -- -- -- -- -- -- -- --
0320:                          5B 01 80 F8 FF FF 7F F8          [.......
0330: FF FF 7F 72 65 69 31 00                           ...rei1.        
```

#### Opcodes

```
  0: 0x0328 [0x5B] LOAD_EXT_SCHEDULER: Load scheduler "rei1" with entities [EventEntity, EventEntity], work=427*
  1: 0x0337 [0x00] END_REQSTACK()
```

### Event 65535.53

#### Metadata

| Field        | Value    |
|--------------|----------|
| Entrypoint   | 0x0338   |
| Data Size    | 14 bytes |
| Instructions | 2        |

```
      00 01 02 03 04 05 06 07  08 09 0A 0B 0C 0D 0E 0F
      -- -- -- -- -- -- -- --  -- -- -- -- -- -- -- --
0330:                          53 F8 FF FF 7F F8 FF FF          S.......
0340: 7F 72 65 69 31 00                                 .rei1.          
```

#### Opcodes

```
  0: 0x0338 [0x53] WAIT_SCHEDULER_TASK: Wait for scheduler "rei1" with entities [EventEntity, EventEntity]
  1: 0x0345 [0x00] END_REQSTACK()
```

### Event 65535.54

#### Metadata

| Field        | Value   |
|--------------|---------|
| Entrypoint   | 0x0346  |
| Data Size    | 9 bytes |
| Instructions | 3       |

```
      00 01 02 03 04 05 06 07  08 09 0A 0B 0C 0D 0E 0F
      -- -- -- -- -- -- -- --  -- -- -- -- -- -- -- --
0340:                   5E 69  64 6C 30 1C 05 80 00           ^idl0.... 
```

#### Opcodes

```
  0: 0x0346 [0x5E] EventEntity goes idle (kills current action) (animation: "idl0")
  1: 0x034B [0x1C] WAIT(30* ticks)
  2: 0x034E [0x00] END_REQSTACK()
```

### Event 5

#### Metadata

| Field        | Value   |
|--------------|---------|
| Entrypoint   | 0x034F  |
| Data Size    | 7 bytes |
| Instructions | 2       |

```
      00 01 02 03 04 05 06 07  08 09 0A 0B 0C 0D 0E 0F
      -- -- -- -- -- -- -- --  -- -- -- -- -- -- -- --
0340:                                               92                 .
0350: 01 F8 FF FF 7F 00                                 ......          
```

#### Opcodes

```
  0: 0x034F [0x92] EventEntity->Render.Flags3 ^= 0x01
  1: 0x0355 [0x00] END_REQSTACK()
```

### Event 65535.55

#### Metadata

| Field        | Value    |
|--------------|----------|
| Entrypoint   | 0x0356   |
| Data Size    | 10 bytes |
| Instructions | 2        |

```
      00 01 02 03 04 05 06 07  08 09 0A 0B 0C 0D 0E 0F
      -- -- -- -- -- -- -- --  -- -- -- -- -- -- -- --
0350:                   37 06  80 07 80 08 80 09 80 00        7.........
```

#### Opcodes

```
  0: 0x0356 [0x37] UPDATE_EVENT_POSITION_AND_DIR: x=42.673*, z=12.754*, y=0.000*, direction=250.7°*
  1: 0x035F [0x00] END_REQSTACK()
```

### Event 65535.56

#### Metadata

| Field        | Value    |
|--------------|----------|
| Entrypoint   | 0x0360   |
| Data Size    | 34 bytes |
| Instructions | 8        |

```
      00 01 02 03 04 05 06 07  08 09 0A 0B 0C 0D 0E 0F
      -- -- -- -- -- -- -- --  -- -- -- -- -- -- -- --
0360: 32 0A 80 1F 00 0B 80 0C  80 08 80 1F 01 1F 00 0D  2...............
0370: 80 0E 80 08 80 1F 01 1F  00 0F 80 0E 80 08 80 1F  ................
0380: 01 00                                             ..              
```

#### Opcodes

```
  0: 0x0360 [0x32] ExtData[1]->MainSpeed = 13* * 0.1
  1: 0x0363 [0x1F] MOVE_ENTITY: EventEntity moves to X=39.136*, Z=13.463*, Y=0.000*
  2: 0x036B [0x1F] MOVE_ENTITY: Update entity position (mode=1)
  3: 0x036D [0x1F] MOVE_ENTITY: EventEntity moves to X=33.615*, Z=14.000*, Y=0.000*
  4: 0x0375 [0x1F] MOVE_ENTITY: Update entity position (mode=1)
  5: 0x0377 [0x1F] MOVE_ENTITY: EventEntity moves to X=31.777*, Z=14.000*, Y=0.000*
  6: 0x037F [0x1F] MOVE_ENTITY: Update entity position (mode=1)
  7: 0x0381 [0x00] END_REQSTACK()
```

### Event 65535.57

#### Metadata

| Field        | Value    |
|--------------|----------|
| Entrypoint   | 0x0382   |
| Data Size    | 10 bytes |
| Instructions | 2        |

```
      00 01 02 03 04 05 06 07  08 09 0A 0B 0C 0D 0E 0F
      -- -- -- -- -- -- -- --  -- -- -- -- -- -- -- --
0380:       37 10 80 11 80 12  80 13 80 00                7.........    
```

#### Opcodes

```
  0: 0x0382 [0x37] UPDATE_EVENT_POSITION_AND_DIR: x=19.303*, z=13.264*, y=1.999*, direction=111.3°*
  1: 0x038B [0x00] END_REQSTACK()
```

### Event 65535.58

#### Metadata

| Field        | Value    |
|--------------|----------|
| Entrypoint   | 0x038C   |
| Data Size    | 15 bytes |
| Instructions | 5        |

```
      00 01 02 03 04 05 06 07  08 09 0A 0B 0C 0D 0E 0F
      -- -- -- -- -- -- -- --  -- -- -- -- -- -- -- --
0380:                                      32 0A 80 1F              2...
0390: 00 14 80 15 80 12 80 1F  01 6F 00                 .........o.     
```

#### Opcodes

```
  0: 0x038C [0x32] ExtData[1]->MainSpeed = 13* * 0.1
  1: 0x038F [0x1F] MOVE_ENTITY: EventEntity moves to X=17.129*, Z=10.201*, Y=1.999*
  2: 0x0397 [0x1F] MOVE_ENTITY: Update entity position (mode=1)
  3: 0x0399 [0x6F] WAIT_FRAME_DELAY: Yield until WaitTime reaches zero
  4: 0x039A [0x00] END_REQSTACK()
```

### Event 65535.59

#### Metadata

| Field        | Value    |
|--------------|----------|
| Entrypoint   | 0x039B   |
| Data Size    | 15 bytes |
| Instructions | 5        |

```
      00 01 02 03 04 05 06 07  08 09 0A 0B 0C 0D 0E 0F
      -- -- -- -- -- -- -- --  -- -- -- -- -- -- -- --
0390:                                   32 16 80 1F 00             2....
03A0: 14 80 17 80 12 80 1F 01  6F 00                    ........o.      
```

#### Opcodes

```
  0: 0x039B [0x32] ExtData[1]->MainSpeed = 40* * 0.1
  1: 0x039E [0x1F] MOVE_ENTITY: EventEntity moves to X=17.129*, Z=8.201*, Y=1.999*
  2: 0x03A6 [0x1F] MOVE_ENTITY: Update entity position (mode=1)
  3: 0x03A8 [0x6F] WAIT_FRAME_DELAY: Yield until WaitTime reaches zero
  4: 0x03A9 [0x00] END_REQSTACK()
```

### Event 65535.60

#### Metadata

| Field        | Value    |
|--------------|----------|
| Entrypoint   | 0x03AA   |
| Data Size    | 18 bytes |
| Instructions | 6        |

```
      00 01 02 03 04 05 06 07  08 09 0A 0B 0C 0D 0E 0F
      -- -- -- -- -- -- -- --  -- -- -- -- -- -- -- --
03A0:                                1C 18 80 32 16 80            ...2..
03B0: 1F 00 14 80 19 80 12 80  1F 01 6F 00              ..........o.    
```

#### Opcodes

```
  0: 0x03AA [0x1C] WAIT(10* ticks)
  1: 0x03AD [0x32] ExtData[1]->MainSpeed = 40* * 0.1
  2: 0x03B0 [0x1F] MOVE_ENTITY: EventEntity moves to X=17.129*, Z=4.201*, Y=1.999*
  3: 0x03B8 [0x1F] MOVE_ENTITY: Update entity position (mode=1)
  4: 0x03BA [0x6F] WAIT_FRAME_DELAY: Yield until WaitTime reaches zero
  5: 0x03BB [0x00] END_REQSTACK()
```

### Event 6

#### Metadata

| Field        | Value   |
|--------------|---------|
| Entrypoint   | 0x03BC  |
| Data Size    | 7 bytes |
| Instructions | 2       |

```
      00 01 02 03 04 05 06 07  08 09 0A 0B 0C 0D 0E 0F
      -- -- -- -- -- -- -- --  -- -- -- -- -- -- -- --
03B0:                                      92 01 F8 FF              ....
03C0: FF 7F 00                                          ...             
```

#### Opcodes

```
  0: 0x03BC [0x92] EventEntity->Render.Flags3 ^= 0x01
  1: 0x03C2 [0x00] END_REQSTACK()
```

### Event 65535.61

#### Metadata

| Field        | Value    |
|--------------|----------|
| Entrypoint   | 0x03C3   |
| Data Size    | 10 bytes |
| Instructions | 2        |

```
      00 01 02 03 04 05 06 07  08 09 0A 0B 0C 0D 0E 0F
      -- -- -- -- -- -- -- --  -- -- -- -- -- -- -- --
03C0:          37 1A 80 1B 80  08 80 1C 80 00              7.........   
```

#### Opcodes

```
  0: 0x03C3 [0x37] UPDATE_EVENT_POSITION_AND_DIR: x=46.200*, z=9.995*, y=0.000*, direction=181.9°*
  1: 0x03CC [0x00] END_REQSTACK()
```

### Event 65535.62

#### Metadata

| Field        | Value    |
|--------------|----------|
| Entrypoint   | 0x03CD   |
| Data Size    | 15 bytes |
| Instructions | 5        |

```
      00 01 02 03 04 05 06 07  08 09 0A 0B 0C 0D 0E 0F
      -- -- -- -- -- -- -- --  -- -- -- -- -- -- -- --
03C0:                                         32 0A 80               2..
03D0: 1F 00 1D 80 1E 80 08 80  1F 01 6F 00              ..........o.    
```

#### Opcodes

```
  0: 0x03CD [0x32] ExtData[1]->MainSpeed = 13* * 0.1
  1: 0x03D0 [0x1F] MOVE_ENTITY: EventEntity moves to X=48.000*, Z=9.400*, Y=0.000*
  2: 0x03D8 [0x1F] MOVE_ENTITY: Update entity position (mode=1)
  3: 0x03DA [0x6F] WAIT_FRAME_DELAY: Yield until WaitTime reaches zero
  4: 0x03DB [0x00] END_REQSTACK()
```

### Event 65535.63

#### Metadata

| Field        | Value    |
|--------------|----------|
| Entrypoint   | 0x03DC   |
| Data Size    | 22 bytes |
| Instructions | 4        |

```
      00 01 02 03 04 05 06 07  08 09 0A 0B 0C 0D 0E 0F
      -- -- -- -- -- -- -- --  -- -- -- -- -- -- -- --
03D0:                                      29 08 F3 C0              )...
03E0: 01 01 16 29 08 F3 C0 01  01 17 29 08 F3 C0 01 01  ...)......).....
03F0: 18 00                                             ..              
```

#### Opcodes

```
  0: 0x03DC [0x29] REQ_SET_WAIT(priority=0x08, entity_id=Tenzen (ID: 16892147/0x0101C0F3), tag_num=0x16)
  1: 0x03E3 [0x29] REQ_SET_WAIT(priority=0x08, entity_id=Tenzen (ID: 16892147/0x0101C0F3), tag_num=0x17)
  2: 0x03EA [0x29] REQ_SET_WAIT(priority=0x08, entity_id=Tenzen (ID: 16892147/0x0101C0F3), tag_num=0x18)
  3: 0x03F1 [0x00] END_REQSTACK()
```

### Event 65535.64

#### Metadata

| Field        | Value    |
|--------------|----------|
| Entrypoint   | 0x03F2   |
| Data Size    | 15 bytes |
| Instructions | 5        |

```
      00 01 02 03 04 05 06 07  08 09 0A 0B 0C 0D 0E 0F
      -- -- -- -- -- -- -- --  -- -- -- -- -- -- -- --
03F0:       32 0A 80 1F 00 1F  80 20 80 08 80 1F 01 6F    2...... .....o
0400: 00                                                .               
```

#### Opcodes

```
  0: 0x03F2 [0x32] ExtData[1]->MainSpeed = 13* * 0.1
  1: 0x03F5 [0x1F] MOVE_ENTITY: EventEntity moves to X=48.900*, Z=9.300*, Y=0.000*
  2: 0x03FD [0x1F] MOVE_ENTITY: Update entity position (mode=1)
  3: 0x03FF [0x6F] WAIT_FRAME_DELAY: Yield until WaitTime reaches zero
  4: 0x0400 [0x00] END_REQSTACK()
```

### Event 65535.65

#### Metadata

| Field        | Value    |
|--------------|----------|
| Entrypoint   | 0x0401   |
| Data Size    | 15 bytes |
| Instructions | 5        |

```
      00 01 02 03 04 05 06 07  08 09 0A 0B 0C 0D 0E 0F
      -- -- -- -- -- -- -- --  -- -- -- -- -- -- -- --
0400:    32 0A 80 1F 00 21 80  20 80 08 80 1F 01 6F 00   2....!. .....o.
```

#### Opcodes

```
  0: 0x0401 [0x32] ExtData[1]->MainSpeed = 13* * 0.1
  1: 0x0404 [0x1F] MOVE_ENTITY: EventEntity moves to X=50.000*, Z=9.300*, Y=0.000*
  2: 0x040C [0x1F] MOVE_ENTITY: Update entity position (mode=1)
  3: 0x040E [0x6F] WAIT_FRAME_DELAY: Yield until WaitTime reaches zero
  4: 0x040F [0x00] END_REQSTACK()
```

### Event 65535.66

#### Metadata

| Field        | Value    |
|--------------|----------|
| Entrypoint   | 0x0410   |
| Data Size    | 15 bytes |
| Instructions | 5        |

```
      00 01 02 03 04 05 06 07  08 09 0A 0B 0C 0D 0E 0F
      -- -- -- -- -- -- -- --  -- -- -- -- -- -- -- --
0410: 32 0A 80 1F 00 22 80 20  80 08 80 1F 01 6F 00     2....". .....o. 
```

#### Opcodes

```
  0: 0x0410 [0x32] ExtData[1]->MainSpeed = 13* * 0.1
  1: 0x0413 [0x1F] MOVE_ENTITY: EventEntity moves to X=51.000*, Z=9.300*, Y=0.000*
  2: 0x041B [0x1F] MOVE_ENTITY: Update entity position (mode=1)
  3: 0x041D [0x6F] WAIT_FRAME_DELAY: Yield until WaitTime reaches zero
  4: 0x041E [0x00] END_REQSTACK()
```

### Event 7

#### Metadata

| Field        | Value   |
|--------------|---------|
| Entrypoint   | 0x041F  |
| Data Size    | 7 bytes |
| Instructions | 2       |

```
      00 01 02 03 04 05 06 07  08 09 0A 0B 0C 0D 0E 0F
      -- -- -- -- -- -- -- --  -- -- -- -- -- -- -- --
0410:                                               92                 .
0420: 01 F8 FF FF 7F 00                                 ......          
```

#### Opcodes

```
  0: 0x041F [0x92] EventEntity->Render.Flags3 ^= 0x01
  1: 0x0425 [0x00] END_REQSTACK()
```

### Event 65535.67

#### Metadata

| Field        | Value    |
|--------------|----------|
| Entrypoint   | 0x0426   |
| Data Size    | 10 bytes |
| Instructions | 2        |

```
      00 01 02 03 04 05 06 07  08 09 0A 0B 0C 0D 0E 0F
      -- -- -- -- -- -- -- --  -- -- -- -- -- -- -- --
0420:                   37 23  80 24 80 12 80 25 80 00        7#.$...%..
```

#### Opcodes

```
  0: 0x0426 [0x37] UPDATE_EVENT_POSITION_AND_DIR: x=18.380*, z=-1.570*, y=1.999*, direction=313.0°*
  1: 0x042F [0x00] END_REQSTACK()
```

### Event 65535.68

#### Metadata

| Field        | Value    |
|--------------|----------|
| Entrypoint   | 0x0430   |
| Data Size    | 10 bytes |
| Instructions | 2        |

```
      00 01 02 03 04 05 06 07  08 09 0A 0B 0C 0D 0E 0F
      -- -- -- -- -- -- -- --  -- -- -- -- -- -- -- --
0430: 37 26 80 27 80 12 80 28  80 00                    7&.'...(..      
```

#### Opcodes

```
  0: 0x0430 [0x37] UPDATE_EVENT_POSITION_AND_DIR: x=17.550*, z=-1.300*, y=1.999*, direction=276.3°*
  1: 0x0439 [0x00] END_REQSTACK()
```
