# Event 372

## Metadata

| Field           | Value    |
|-----------------|----------|
| Event Index     | 30/110   |
| Offset          | 0x0233   |
| Data Size       | 33 bytes |
| Calculated Size | 33 bytes |
| Instructions    | 12       |

```
      00 01 02 03 04 05 06 07  08 09 0A 0B 0C 0D 0E 0F
      -- -- -- -- -- -- -- --  -- -- -- -- -- -- -- --
0230:          1E F0 FF FF 7F  6F 70 29 08 53 00 0F 01     .....op).S...
0240: 01 1D 13 80 23 1D 14 80  23 29 08 53 00 0F 01 02  ....#...#).S....
0250: 20 00 21 00                                        .!.            
```

## Opcodes

```
  0: 0x0233 [0x1E] EventEntity looks at LocalPlayer and starts talking
  1: 0x0238 [0x6F] WAIT_FRAME_DELAY: Yield until WaitTime reaches zero
  2: 0x0239 [0x70] WAIT_ENTITY_RENDER_FLAG: Wait while EventEntity->Render.Flags3 bit 2 is set (cancel turn if not)
  3: 0x023A [0x29] REQ_SET_WAIT(priority=0x08, entity_id=Papo-Hopo (ID: 17760339/0x010F0053), tag_num=0x01)
  4: 0x0241 [0x1D] PRINT_EVENT_MESSAGE(message_id=4201*)
    → "Pichichi's mother wuns the hostelwy in Windurst Waters, wight?\u007F1\u0000\u0007"
  5: 0x0244 [0x23] WAIT_FOR_DIALOG_INTERACTION
  6: 0x0245 [0x1D] PRINT_EVENT_MESSAGE(message_id=4202*)
    → "Maybe dat's a clue as to what kind of tail she wants?\u007F1\u0000\u0007"
  7: 0x0248 [0x23] WAIT_FOR_DIALOG_INTERACTION
  8: 0x0249 [0x29] REQ_SET_WAIT(priority=0x08, entity_id=Papo-Hopo (ID: 17760339/0x010F0053), tag_num=0x02)
  9: 0x0250 [0x20] SET_CLI_EVENT_UC_FLAG: Unlock player control
 10: 0x0252 [0x21] END_EVENT
 11: 0x0253 [0x00] END_REQSTACK()
```
