# Event 501

## Metadata

| Field           | Value    |
|-----------------|----------|
| Event Index     | 81/110   |
| Offset          | 0x055D   |
| Data Size       | 33 bytes |
| Calculated Size | 33 bytes |
| Instructions    | 12       |

```
      00 01 02 03 04 05 06 07  08 09 0A 0B 0C 0D 0E 0F
      -- -- -- -- -- -- -- --  -- -- -- -- -- -- -- --
0550:                                         1E F0 FF               ...
0560: FF 7F 6F 70 29 08 53 00  0F 01 01 1D 74 80 23 1D  ..op).S.....t.#.
0570: 75 80 23 29 08 53 00 0F  01 02 20 00 21 00        u.#).S.... .!.  
```

## Opcodes

```
  0: 0x055D [0x1E] EventEntity looks at LocalPlayer and starts talking
  1: 0x0562 [0x6F] WAIT_FRAME_DELAY: Yield until WaitTime reaches zero
  2: 0x0563 [0x70] WAIT_ENTITY_RENDER_FLAG: Wait while EventEntity->Render.Flags3 bit 2 is set (cancel turn if not)
  3: 0x0564 [0x29] REQ_SET_WAIT(priority=0x08, entity_id=Papo-Hopo (ID: 17760339/0x010F0053), tag_num=0x01)
  4: 0x056B [0x1D] PRINT_EVENT_MESSAGE(message_id=12431*)
    → "Da old rich guy dat lives in Windurst Waters is called Honoi-Gomoi, I think.\u007F1\u0000\u0007"
  5: 0x056E [0x23] WAIT_FOR_DIALOG_INTERACTION
  6: 0x056F [0x1D] PRINT_EVENT_MESSAGE(message_id=12432*)
    → "His ancestors were supposed to be a bunch of whiz-bang wizards, so dat's why he's so rich now.\u007F1\u0000\u0007"
  7: 0x0572 [0x23] WAIT_FOR_DIALOG_INTERACTION
  8: 0x0573 [0x29] REQ_SET_WAIT(priority=0x08, entity_id=Papo-Hopo (ID: 17760339/0x010F0053), tag_num=0x02)
  9: 0x057A [0x20] SET_CLI_EVENT_UC_FLAG: Unlock player control
 10: 0x057C [0x21] END_EVENT
 11: 0x057D [0x00] END_REQSTACK()
```
