# Event 65535

## Metadata

| Field           | Value    |
|-----------------|----------|
| Event Index     | 57/110   |
| Offset          | 0x0404   |
| Data Size       | 49 bytes |
| Calculated Size | 49 bytes |
| Instructions    | 9        |

```
      00 01 02 03 04 05 06 07  08 09 0A 0B 0C 0D 0E 0F
      -- -- -- -- -- -- -- --  -- -- -- -- -- -- -- --
0400:             1C 37 80 4A  53 00 0F 01 5A 00 0F 01      .7.JS...Z...
0410: 1C 09 80 4A 53 00 0F 01  5A 00 0F 01 1C 37 80 4A  ...JS...Z....7.J
0420: 53 00 0F 01 5A 00 0F 01  1C 09 80 4A 53 00 0F 01  S...Z......JS...
0430: 5A 00 0F 01 00                                    Z....           
```

## Opcodes

```
  0: 0x0404 [0x1C] WAIT(100* ticks)
  1: 0x0407 [0x4A] Papo-Hopo (ID: 17760339/0x010F0053) looks at Nanaa Mihgo (ID: 17760346/0x010F005A)
  2: 0x0410 [0x1C] WAIT(50* ticks)
  3: 0x0413 [0x4A] Papo-Hopo (ID: 17760339/0x010F0053) looks at Nanaa Mihgo (ID: 17760346/0x010F005A)
  4: 0x041C [0x1C] WAIT(100* ticks)
  5: 0x041F [0x4A] Papo-Hopo (ID: 17760339/0x010F0053) looks at Nanaa Mihgo (ID: 17760346/0x010F005A)
  6: 0x0428 [0x1C] WAIT(50* ticks)
  7: 0x042B [0x4A] Papo-Hopo (ID: 17760339/0x010F0053) looks at Nanaa Mihgo (ID: 17760346/0x010F005A)
  8: 0x0434 [0x00] END_REQSTACK()
```
