# Event 65535

## Metadata

| Field           | Value    |
|-----------------|----------|
| Event Index     | 93/110   |
| Offset          | 0x0638   |
| Data Size       | 88 bytes |
| Calculated Size | 88 bytes |
| Instructions    | 10       |

```
      00 01 02 03 04 05 06 07  08 09 0A 0B 0C 0D 0E 0F
      -- -- -- -- -- -- -- --  -- -- -- -- -- -- -- --
0630:                          45 87 80 F0 FF FF 7F F0          E.......
0640: FF FF 7F 73 30 37 35 84  80 1C 88 80 4A B1 00 0F  ...s075.....J...
0650: 01 58 00 0F 01 52 87 80  F0 FF FF 7F F0 FF FF 7F  .X...R..........
0660: 73 30 37 35 45 89 80 F0  FF FF 7F F0 FF FF 7F 6F  s075E..........o
0670: 76 6C 31 84 80 45 87 80  F0 FF FF 7F F0 FF FF 7F  vl1..E..........
0680: 73 30 37 37 84 80 6F 76  B1 00 0F 01 1C 37 80 00  s077..ov.....7..
```

## Opcodes

```
  0: 0x0638 [0x45] LOAD_SCHEDULED_TASK: Load scheduler "s075" with entities [LocalPlayer, LocalPlayer], work=[247*, 0*]
  1: 0x0649 [0x1C] WAIT(150* ticks)
  2: 0x064C [0x4A] Ace of Wands (ID: 17760433/0x010F00B1) looks at Shanruru (ID: 17760344/0x010F0058)
  3: 0x0655 [0x52] END_LOAD_SCHEDULER: End scheduler "s075" with entities [LocalPlayer, LocalPlayer], work=247*
  4: 0x0664 [0x45] LOAD_SCHEDULED_TASK: Load scheduler "ovl1" with entities [LocalPlayer, LocalPlayer], work=[200*, 0*]
  5: 0x0675 [0x45] LOAD_SCHEDULED_TASK: Load scheduler "s077" with entities [LocalPlayer, LocalPlayer], work=[247*, 0*]
  6: 0x0686 [0x6F] WAIT_FRAME_DELAY: Yield until WaitTime reaches zero
  7: 0x0687 [0x76] CHECK_ENTITY_RENDER_FLAGS: Wait until Ace of Wands (ID: 17760433/0x010F00B1) Render.Flags0 and Render.Flags3 conditions are met
  8: 0x068C [0x1C] WAIT(100* ticks)
  9: 0x068F [0x00] END_REQSTACK()
```
