# Event 65535

## Metadata

| Field           | Value    |
|-----------------|----------|
| Event Index     | 34/110   |
| Offset          | 0x0277   |
| Data Size       | 33 bytes |
| Calculated Size | 33 bytes |
| Instructions    | 7        |

```
      00 01 02 03 04 05 06 07  08 09 0A 0B 0C 0D 0E 0F
      -- -- -- -- -- -- -- --  -- -- -- -- -- -- -- --
0270:                      29  08 53 00 0F 01 03 1D 17         ).S......
0280: 80 23 29 08 53 00 0F 01  04 29 08 53 00 0F 01 05  .#).S....).S....
0290: 29 08 53 00 0F 01 06 00                           ).S.....        
```

## Opcodes

```
  0: 0x0277 [0x29] REQ_SET_WAIT(priority=0x08, entity_id=Papo-Hopo (ID: 17760339/0x010F0053), tag_num=0x03)
  1: 0x027E [0x1D] PRINT_EVENT_MESSAGE(message_id=4255*)
    → "Da ghosty house in Windurst Walls...? Wasn't dat owiginally supposed to be de doctor's wesidence for the minister of de Optistewy?\u007F1\u0000\u0007"
  2: 0x0281 [0x23] WAIT_FOR_DIALOG_INTERACTION
  3: 0x0282 [0x29] REQ_SET_WAIT(priority=0x08, entity_id=Papo-Hopo (ID: 17760339/0x010F0053), tag_num=0x04)
  4: 0x0289 [0x29] REQ_SET_WAIT(priority=0x08, entity_id=Papo-Hopo (ID: 17760339/0x010F0053), tag_num=0x05)
  5: 0x0290 [0x29] REQ_SET_WAIT(priority=0x08, entity_id=Papo-Hopo (ID: 17760339/0x010F0053), tag_num=0x06)
  6: 0x0297 [0x00] END_REQSTACK()
```
