# Event 65535

## Metadata

| Field           | Value    |
|-----------------|----------|
| Event Index     | 95/110   |
| Offset          | 0x0710   |
| Data Size       | 85 bytes |
| Calculated Size | 85 bytes |
| Instructions    | 11       |

```
      00 01 02 03 04 05 06 07  08 09 0A 0B 0C 0D 0E 0F
      -- -- -- -- -- -- -- --  -- -- -- -- -- -- -- --
0710: 27 0D B1 00 0F 01 18 27  0D B2 00 0F 01 14 27 0D  '......'......'.
0720: B0 00 0F 01 08 45 87 80  F0 FF FF 7F F0 FF FF 7F  .....E..........
0730: 73 30 38 38 84 80 2B 52  00 0F 01 8C 80 23 1C 8D  s088..+R.....#..
0740: 80 45 89 80 F8 FF FF 7F  F8 FF FF 7F 66 64 6F 31  .E..........fdo1
0750: 84 80 1C 45 80 52 87 80  F0 FF FF 7F F0 FF FF 7F  ...E.R..........
0760: 73 30 38 38 00                                    s088.           
```

## Opcodes

```
  0: 0x0710 [0x27] REQ_SET(priority=0x0D, entity_id=Ace of Wands (ID: 17760433/0x010F00B1), tag_num=0x18)
  1: 0x0717 [0x27] REQ_SET(priority=0x0D, entity_id=Ace of Swords (ID: 17760434/0x010F00B2), tag_num=0x14)
  2: 0x071E [0x27] REQ_SET(priority=0x0D, entity_id=Ace of Cups (ID: 17760432/0x010F00B0), tag_num=0x08)
  3: 0x0725 [0x45] LOAD_SCHEDULED_TASK: Load scheduler "s088" with entities [LocalPlayer, LocalPlayer], work=[247*, 0*]
  4: 0x0736 [0x2B] Kohlo-Lakolo (ID: 17760338/0x010F0052) [12532*]:
    → "...Jo, Joker...\u007F1\u0000\u0007"
  5: 0x073D [0x23] WAIT_FOR_DIALOG_INTERACTION
  6: 0x073E [0x1C] WAIT(120* ticks)
  7: 0x0741 [0x45] LOAD_SCHEDULED_TASK: Load scheduler "fdo1" with entities [EventEntity, EventEntity], work=[200*, 0*]
  8: 0x0752 [0x1C] WAIT(60* ticks)
  9: 0x0755 [0x52] END_LOAD_SCHEDULER: End scheduler "s088" with entities [LocalPlayer, LocalPlayer], work=247*
 10: 0x0764 [0x00] END_REQSTACK()
```
