# Event 65535

## Metadata

| Field           | Value    |
|-----------------|----------|
| Event Index     | 6/8      |
| Offset          | 0x0084   |
| Data Size       | 67 bytes |
| Calculated Size | 67 bytes |
| Instructions    | 12       |

```
      00 01 02 03 04 05 06 07  08 09 0A 0B 0C 0D 0E 0F
      -- -- -- -- -- -- -- --  -- -- -- -- -- -- -- --
0080:             3B F8 FF FF  7F 02 00 03 00 04 00 03      ;...........
0090: 01 00 06 80 02 01 00 0A  80 05 C6 00 16 00 00 01  ................
00A0: 00 07 80 08 00 00 07 80  03 04 00 04 80 07 04 00  ................
00B0: 00 00 37 02 00 03 00 04  00 00 80 07 01 00 08 80  ..7.............
00C0: 1C 09 80 01 94 00 00                              .......         
```

## Opcodes

```
  0: 0x0084 [0x3B] GET_ENTITY_POSITION(entity=EventEntity, x_destination=ExtData[1]->WorkLocal[2], y_destination=ExtData[1]->WorkLocal[3], z_destination=ExtData[1]->WorkLocal[4])
  1: 0x008F [0x03] ExtData[1]->WorkLocal[1] = 3072*
  2: 0x0094 [0x02] IF !(ExtData[1]->WorkLocal[1] > 5120*) GOTO 0x00C6
  3: 0x009C [0x16] ExtData[1]->WorkLocal[0] = sin(ExtData[1]->WorkLocal[1]) * 15000*
  4: 0x00A3 [0x08] ExtData[1]->WorkLocal[0] -= 15000*
  5: 0x00A8 [0x03] ExtData[1]->WorkLocal[4] = 65000*
  6: 0x00AD [0x07] ExtData[1]->WorkLocal[4] += ExtData[1]->WorkLocal[0]
  7: 0x00B2 [0x37] UPDATE_EVENT_POSITION_AND_DIR: x=ExtData[1]->WorkLocal[2], z=ExtData[1]->WorkLocal[3], y=ExtData[1]->WorkLocal[4], direction=0.0°*
  8: 0x00BB [0x07] ExtData[1]->WorkLocal[1] += 16*
  9: 0x00C0 [0x1C] WAIT(1* ticks)
 10: 0x00C3 [0x01] GOTO 0x0094

SUBROUTINE_00C6:
 11: 0x00C6 [0x00] END_REQSTACK()
```
