# Event 364

## Metadata

| Field           | Value    |
|-----------------|----------|
| Event Index     | 5/12     |
| Offset          | 0x04C2   |
| Data Size       | 51 bytes |
| Calculated Size | 51 bytes |
| Instructions    | 11       |

```
      00 01 02 03 04 05 06 07  08 09 0A 0B 0C 0D 0E 0F
      -- -- -- -- -- -- -- --  -- -- -- -- -- -- -- --
04C0:       42 1E F0 FF FF 7F  66 01 80 F8 FF FF 7F F8    B.....f.......
04D0: FF FF 7F 74 6C 6B 30 1D  2A 80 23 1D 2B 80 23 1A  ...tlk0.*.#.+.#.
04E0: 79 05 45 2C 80 F8 FF FF  7F F8 FF FF 7F 71 73 74  y.E,.........qst
04F0: 63 00 80 21 00                                    c..!.           
```

## Opcodes

```
  0: 0x04C2 [0x42] SET_CLI_EVENT_CANCEL_DATA()
  1: 0x04C3 [0x1E] EventEntity looks at LocalPlayer and starts talking
  2: 0x04C8 [0x66] LOAD_EXT_SCHEDULER_MAIN: Load scheduler "tlk0" with entities [EventEntity, EventEntity], work=19*
  3: 0x04D7 [0x1D] PRINT_EVENT_MESSAGE(message_id=8485*)
    → "Thank you so much for watching over my brother. Now that the test is over, he seems to be in a much better mood.\u007F1\u0000\u0007"
  4: 0x04DA [0x23] WAIT_FOR_DIALOG_INTERACTION
  5: 0x04DB [0x1D] PRINT_EVENT_MESSAGE(message_id=8486*)
    → "Here is the reward I promised you.\u007F1\u0000\u0007"
  6: 0x04DE [0x23] WAIT_FOR_DIALOG_INTERACTION
  7: 0x04DF [0x1A] CALL_SUBROUTINE(address=0x0579)
  8: 0x04E2 [0x45] LOAD_SCHEDULED_TASK: Load scheduler "qstc" with entities [EventEntity, EventEntity], work=[201*, 0*]
  9: 0x04F3 [0x21] END_EVENT
 10: 0x04F4 [0x00] END_REQSTACK()
```
