# Event 366

## Metadata

| Field           | Value     |
|-----------------|-----------|
| Event Index     | 7/12      |
| Offset          | 0x0561    |
| Data Size       | 108 bytes |
| Calculated Size | 108 bytes |
| Instructions    | 11        |

```
      00 01 02 03 04 05 06 07  08 09 0A 0B 0C 0D 0E 0F
      -- -- -- -- -- -- -- --  -- -- -- -- -- -- -- --
0560:    66 01 80 F8 FF FF 7F  F8 FF FF 7F 74 6C 6B 30   f..........tlk0
0570: 1D 31 80 23 1A 79 05 21  00 53 F8 FF FF 7F F8 FF  .1.#.y.!.S......
0580: FF 7F 74 6C 6B 30 66 01  80 F8 FF FF 7F F8 FF FF  ..tlk0f.........
0590: 7F 74 6C 6B 31 53 F8 FF  FF 7F F8 FF FF 7F 74 6C  .tlk1S........tl
05A0: 6B 31 1B 53 75 B0 0E 01  75 B0 0E 01 74 6C 6B 30  k1.Su...u...tlk0
05B0: 66 03 80 75 B0 0E 01 75  B0 0E 01 74 6C 6B 31 53  f..u...u...tlk1S
05C0: 75 B0 0E 01 75 B0 0E 01  74 6C 6B 31 1B           u...u...tlk1.   
```

## Opcodes

```
  0: 0x0561 [0x66] LOAD_EXT_SCHEDULER_MAIN(work_offset=19*, entity1=EventEntity, entity2=EventEntity, action="tlk0")
  1: 0x0570 [0x1D] PRINT_EVENT_MESSAGE(message_id=8488*)
    → "I do hope that you pass...\u007F1\u0000\u0007"
  2: 0x0573 [0x23] WAIT_FOR_DIALOG_INTERACTION
  3: 0x0574 [0x1A] CALL_SUBROUTINE(address=0x0579)
  4: 0x0577 [0x21] END_EVENT
  5: 0x0578 [0x00] END_REQSTACK()

SUBROUTINE_0579:
  6: 0x0579 [0x53] WAIT_SCHEDULER_TASK(entity1=EventEntity, entity2=EventEntity, action_id="tlk0")
  7: 0x0586 [0x66] LOAD_EXT_SCHEDULER_MAIN(work_offset=19*, entity1=EventEntity, entity2=EventEntity, action="tlk1")
  8: 0x0595 [0x53] WAIT_SCHEDULER_TASK(entity1=EventEntity, entity2=EventEntity, action_id="tlk1")
  9: 0x05A2 [0x1B] RETURN
```

## Data or dead code:

```
# Data Section: 0x05A3 (42 bytes)
     0x05A3: 53 75 B0 0E 01 75 B0 0E 01 74 6C 6B 30 66 03 80
     0x05B3: 75 B0 0E 01 75 B0 0E 01 74 6C 6B 31 53 75 B0 0E
     0x05C3: 01 75 B0 0E 01 74 6C 6B 31 1B
```