# 16871597

## Common Data

| Field            | Value                   |
|------------------|-------------------------|
| Zone             | Spire of Vahzl (ID: 23) |
| Block Size       | 864 bytes               |
| Total Events     | 5                       |
| References Count | 16                      |

## List of Events

| Event ID                 | Entrypoint   |   Size |   Instructions |
|--------------------------|--------------|--------|----------------|
| [65535](#event-65535)    | 0x0000       |      1 |              1 |
| [65534](#event-65534)    | 0x0001       |      1 |              1 |
| [65535.1](#event-655351) | 0x0002       |      7 |              3 |
| [65535.2](#event-655352) | 0x0009       |     10 |              2 |
| [65535.3](#event-655353) | 0x0013       |    743 |             69 |

## DAT References (imed_data)

|   Index | Hex Value   |   Dec Value |
|---------|-------------|-------------|
|       0 | 0x0078      |         120 |
|       1 | 0x0000      |           0 |
|       2 | 0x003C      |          60 |
|       3 | 0x01A8      |         424 |
|       4 | 0x00D2      |         210 |
|       5 | 0x009A      |         154 |
|       6 | 0x01AD      |         429 |
|       7 | 0x0003      |           3 |
|       8 | 0x01A2      |         418 |
|       9 | 0x00C8      |         200 |
|      10 | 0x00C9      |         201 |
|      11 | 0x0001      |           1 |
|      12 | 0x002D      |          45 |
|      13 | 0x0002      |           2 |
|      14 | 0x001E      |          30 |
|      15 | 0x00D7      |         215 |

## Events

### Event 65535

#### Metadata

| Field        | Value   |
|--------------|---------|
| Entrypoint   | 0x0000  |
| Data Size    | 1 bytes |
| Instructions | 1       |

```
      00 01 02 03 04 05 06 07  08 09 0A 0B 0C 0D 0E 0F
      -- -- -- -- -- -- -- --  -- -- -- -- -- -- -- --
0000: 00                                                .               
```

#### Opcodes

```
  0: 0x0000 [0x00] END_REQSTACK()
```

### Event 65534

#### Metadata

| Field        | Value   |
|--------------|---------|
| Entrypoint   | 0x0001  |
| Data Size    | 1 bytes |
| Instructions | 1       |

```
      00 01 02 03 04 05 06 07  08 09 0A 0B 0C 0D 0E 0F
      -- -- -- -- -- -- -- --  -- -- -- -- -- -- -- --
0000:    00                                              .              
```

#### Opcodes

```
  0: 0x0001 [0x00] END_REQSTACK()
```

### Event 65535.1

#### Metadata

| Field        | Value   |
|--------------|---------|
| Entrypoint   | 0x0002  |
| Data Size    | 7 bytes |
| Instructions | 3       |

```
      00 01 02 03 04 05 06 07  08 09 0A 0B 0C 0D 0E 0F
      -- -- -- -- -- -- -- --  -- -- -- -- -- -- -- --
0000:       1C 00 80 1A CC 00  00                         .......       
```

#### Opcodes

```
  0: 0x0002 [0x1C] WAIT(120* ticks)
  1: 0x0005 [0x1A] CALL_SUBROUTINE(address=0x00CC)
  2: 0x0008 [0x00] END_REQSTACK()
```

### Event 65535.2

#### Metadata

| Field        | Value    |
|--------------|----------|
| Entrypoint   | 0x0009   |
| Data Size    | 10 bytes |
| Instructions | 2        |

```
      00 01 02 03 04 05 06 07  08 09 0A 0B 0C 0D 0E 0F
      -- -- -- -- -- -- -- --  -- -- -- -- -- -- -- --
0000:                             6C F0 FF FF 7F 01 80           l......
0010: 02 80 00                                          ...             
```

#### Opcodes

```
  0: 0x0009 [0x6C] FADE_ENTITY_COLOR(entity_id=LocalPlayer, end_alpha=0*, fade_time=60*)
  1: 0x0012 [0x00] END_REQSTACK()
```

### Event 65535.3

#### Metadata

| Field        | Value     |
|--------------|-----------|
| Entrypoint   | 0x0013    |
| Data Size    | 743 bytes |
| Instructions | 8         |

```
      00 01 02 03 04 05 06 07  08 09 0A 0B 0C 0D 0E 0F
      -- -- -- -- -- -- -- --  -- -- -- -- -- -- -- --
0010:          5B 03 80 B1 70  01 01 B1 70 01 01 63 34     [...p...p..c4
0020: 30 30 1C 04 80 45 05 80  F0 FF FF 7F F0 FF FF 7F  00...E..........
0030: 73 30 34 35 01 80 5B 06  80 B0 70 01 01 B0 70 01  s045..[...p...p.
0040: 01 63 34 30 30 1C 07 80  45 05 80 F0 FF FF 7F F0  .c400...E.......
0050: FF FF 7F 73 30 34 36 01  80 5B 08 80 B3 70 01 01  ...s046..[...p..
0060: B3 70 01 01 6B 65 69 30  00 45 09 80 F0 FF FF 7F  .p..kei0.E......
0070: F0 FF FF 7F 66 64 69 30  01 80 55 09 80 F0 FF FF  ....fdi0..U.....
0080: 7F F0 FF FF 7F 66 64 69  30 1B 45 09 80 F0 FF FF  .....fdi0.E.....
0090: 7F F0 FF FF 7F 66 64 6F  30 01 80 55 09 80 F0 FF  .....fdo0..U....
00A0: FF 7F F0 FF FF 7F 66 64  6F 30 1B 45 09 80 F0 FF  ......fdo0.E....
00B0: FF 7F F0 FF FF 7F 66 64  69 31 01 80 55 09 80 F0  ......fdi1..U...
00C0: FF FF 7F F0 FF FF 7F 66  64 69 31 1B 45 09 80 F0  .......fdi1.E...
00D0: FF FF 7F F0 FF FF 7F 66  64 6F 31 01 80 55 09 80  .......fdo1..U..
00E0: F0 FF FF 7F F0 FF FF 7F  66 64 6F 31 1B 45 0A 80  ........fdo1.E..
00F0: F0 FF FF 7F F0 FF FF 7F  77 68 69 31 01 80 55 0A  ........whi1..U.
0100: 80 F0 FF FF 7F F0 FF FF  7F 77 68 69 31 1B 45 0A  .........whi1.E.
0110: 80 F0 FF FF 7F F0 FF FF  7F 77 68 6F 31 01 80 55  .........who1..U
0120: 0A 80 F0 FF FF 7F F0 FF  FF 7F 77 68 6F 31 1B 45  ..........who1.E
0130: 0A 80 F0 FF FF 7F F0 FF  FF 7F 77 68 6F 32 01 80  ..........who2..
0140: 55 0A 80 F0 FF FF 7F F0  FF FF 7F 77 68 6F 32 1B  U..........who2.
0150: 45 0A 80 F0 FF FF 7F F0  FF FF 7F 77 68 6F 33 01  E..........who3.
0160: 80 55 0A 80 F0 FF FF 7F  F0 FF FF 7F 77 68 6F 33  .U..........who3
0170: 1B 62 0B 80 F0 FF FF 7F  F0 FF FF 7F 6D 61 69 6E  .b..........main
0180: 01 80 1C 0C 80 45 09 80  F0 FF FF 7F F0 FF FF 7F  .....E..........
0190: 66 64 6F 31 01 80 55 09  80 F0 FF FF 7F F0 FF FF  fdo1..U.........
01A0: 7F 66 64 6F 31 1B 45 09  80 F0 FF FF 7F F0 FF FF  .fdo1.E.........
01B0: 7F 66 64 69 31 01 80 62  0D 80 F0 FF FF 7F F0 FF  .fdi1..b........
01C0: FF 7F 6D 61 69 6E 01 80  1C 0E 80 55 09 80 F0 FF  ..main.....U....
01D0: FF 7F F0 FF FF 7F 66 64  69 31 1B 45 09 80 F0 FF  ......fdi1.E....
01E0: FF 7F F0 FF FF 7F 62 6C  6F 6E 01 80 45 0A 80 F0  ......blon..E...
01F0: FF FF 7F F0 FF FF 7F 62  6C 6F 6E 01 80 1B 45 0A  .......blon...E.
0200: 80 F0 FF FF 7F F0 FF FF  7F 77 68 69 30 01 80 55  .........whi0..U
0210: 0A 80 F0 FF FF 7F F0 FF  FF 7F 77 68 69 30 1B 45  ..........whi0.E
0220: 0A 80 F0 FF FF 7F F0 FF  FF 7F 77 68 6F 30 01 80  ..........who0..
0230: 55 0A 80 F0 FF FF 7F F0  FF FF 7F 77 68 6F 30 1B  U..........who0.
0240: 45 0F 80 F0 FF FF 7F F0  FF FF 7F 65 66 6F 6E 01  E..........efon.
0250: 80 55 0F 80 F0 FF FF 7F  F0 FF FF 7F 65 66 6F 6E  .U..........efon
0260: 1B 45 09 80 F0 FF FF 7F  F0 FF FF 7F 66 64 69 73  .E..........fdis
0270: 01 80 1B 45 09 80 F0 FF  FF 7F F0 FF FF 7F 66 64  ...E..........fd
0280: 6F 73 01 80 55 09 80 F0  FF FF 7F F0 FF FF 7F 66  os..U..........f
0290: 64 6F 73 1B 45 09 80 F0  FF FF 7F F0 FF FF 7F 66  dos.E..........f
02A0: 64 69 66 01 80 1B 45 09  80 F0 FF FF 7F F0 FF FF  dif...E.........
02B0: 7F 66 64 6F 66 01 80 55  09 80 F0 FF FF 7F F0 FF  .fdof..U........
02C0: FF 7F 66 64 6F 66 1B 45  09 80 F0 FF FF 7F F0 FF  ..fdof.E........
02D0: FF 7F 66 64 69 70 01 80  1B 45 09 80 F0 FF FF 7F  ..fdip...E......
02E0: F0 FF FF 7F 66 64 6F 70  01 80 55 09 80 F0 FF FF  ....fdop..U.....
02F0: 7F F0 FF FF 7F 66 64 6F  70 1B                    .....fdop.      
```

#### Opcodes

```
  0: 0x0013 [0x5B] LOAD_EXT_SCHEDULER: Load scheduler "c400" with entities [Ulmia (ID: 16871601/0x010170B1), Ulmia (ID: 16871601/0x010170B1)], work=424*
  1: 0x0022 [0x1C] WAIT(210* ticks)
  2: 0x0025 [0x45] LOAD_SCHEDULED_TASK: Load scheduler "s045" with entities [LocalPlayer, LocalPlayer], work=[154*, 0*]
  3: 0x0036 [0x5B] LOAD_EXT_SCHEDULER: Load scheduler "c400" with entities [Tenzen (ID: 16871600/0x010170B0), Tenzen (ID: 16871600/0x010170B0)], work=429*
  4: 0x0045 [0x1C] WAIT(3* ticks)
  5: 0x0048 [0x45] LOAD_SCHEDULED_TASK: Load scheduler "s046" with entities [LocalPlayer, LocalPlayer], work=[154*, 0*]
  6: 0x0059 [0x5B] LOAD_EXT_SCHEDULER: Load scheduler "kei0" with entities [Louverance (ID: 16871603/0x010170B3), Louverance (ID: 16871603/0x010170B3)], work=418*
  7: 0x0068 [0x00] END_REQSTACK()
```

#### Data or dead code:

```
# Dead code (unreachable instructions):
     0x0069 [0x45] LOAD_SCHEDULED_TASK: Load scheduler "fdi0" with entities [LocalPlayer, LocalPlayer], work=[200*, 0*]
     0x007A [0x55] WAIT_LOAD_SCHEDULER: Wait for scheduler "fdi0" with entities [LocalPlayer, LocalPlayer], work=200*
     0x0089 [0x1B] RETURN
     0x008A [0x45] LOAD_SCHEDULED_TASK: Load scheduler "fdo0" with entities [LocalPlayer, LocalPlayer], work=[200*, 0*]
     0x009B [0x55] WAIT_LOAD_SCHEDULER: Wait for scheduler "fdo0" with entities [LocalPlayer, LocalPlayer], work=200*
     0x00AA [0x1B] RETURN
     0x00AB [0x45] LOAD_SCHEDULED_TASK: Load scheduler "fdi1" with entities [LocalPlayer, LocalPlayer], work=[200*, 0*]
     0x00BC [0x55] WAIT_LOAD_SCHEDULER: Wait for scheduler "fdi1" with entities [LocalPlayer, LocalPlayer], work=200*
     0x00CB [0x1B] RETURN
     0x00CC [0x45] LOAD_SCHEDULED_TASK: Load scheduler "fdo1" with entities [LocalPlayer, LocalPlayer], work=[200*, 0*]
     0x00DD [0x55] WAIT_LOAD_SCHEDULER: Wait for scheduler "fdo1" with entities [LocalPlayer, LocalPlayer], work=200*
     0x00EC [0x1B] RETURN
     0x00ED [0x45] LOAD_SCHEDULED_TASK: Load scheduler "whi1" with entities [LocalPlayer, LocalPlayer], work=[201*, 0*]
     0x00FE [0x55] WAIT_LOAD_SCHEDULER: Wait for scheduler "whi1" with entities [LocalPlayer, LocalPlayer], work=201*
     0x010D [0x1B] RETURN
     0x010E [0x45] LOAD_SCHEDULED_TASK: Load scheduler "who1" with entities [LocalPlayer, LocalPlayer], work=[201*, 0*]
     0x011F [0x55] WAIT_LOAD_SCHEDULER: Wait for scheduler "who1" with entities [LocalPlayer, LocalPlayer], work=201*
     0x012E [0x1B] RETURN
     0x012F [0x45] LOAD_SCHEDULED_TASK: Load scheduler "who2" with entities [LocalPlayer, LocalPlayer], work=[201*, 0*]
     0x0140 [0x55] WAIT_LOAD_SCHEDULER: Wait for scheduler "who2" with entities [LocalPlayer, LocalPlayer], work=201*
     0x014F [0x1B] RETURN
     0x0150 [0x45] LOAD_SCHEDULED_TASK: Load scheduler "who3" with entities [LocalPlayer, LocalPlayer], work=[201*, 0*]
     0x0161 [0x55] WAIT_LOAD_SCHEDULER: Wait for scheduler "who3" with entities [LocalPlayer, LocalPlayer], work=201*
     0x0170 [0x1B] RETURN
     0x0171 [0x62] LOAD_EVENT_SCHEDULER: Load scheduler "main" with entities [LocalPlayer, LocalPlayer], work=[1*, 0*]
     0x0182 [0x1C] WAIT(45* ticks)
     0x0185 [0x45] LOAD_SCHEDULED_TASK: Load scheduler "fdo1" with entities [LocalPlayer, LocalPlayer], work=[200*, 0*]
     0x0196 [0x55] WAIT_LOAD_SCHEDULER: Wait for scheduler "fdo1" with entities [LocalPlayer, LocalPlayer], work=200*
     0x01A5 [0x1B] RETURN
     0x01A6 [0x45] LOAD_SCHEDULED_TASK: Load scheduler "fdi1" with entities [LocalPlayer, LocalPlayer], work=[200*, 0*]
     0x01B7 [0x62] LOAD_EVENT_SCHEDULER: Load scheduler "main" with entities [LocalPlayer, LocalPlayer], work=[2*, 0*]
     0x01C8 [0x1C] WAIT(30* ticks)
     0x01CB [0x55] WAIT_LOAD_SCHEDULER: Wait for scheduler "fdi1" with entities [LocalPlayer, LocalPlayer], work=200*
     0x01DA [0x1B] RETURN
     0x01DB [0x45] LOAD_SCHEDULED_TASK: Load scheduler "blon" with entities [LocalPlayer, LocalPlayer], work=[200*, 0*]
     0x01EC [0x45] LOAD_SCHEDULED_TASK: Load scheduler "blon" with entities [LocalPlayer, LocalPlayer], work=[201*, 0*]
     0x01FD [0x1B] RETURN
     0x01FE [0x45] LOAD_SCHEDULED_TASK: Load scheduler "whi0" with entities [LocalPlayer, LocalPlayer], work=[201*, 0*]
     0x020F [0x55] WAIT_LOAD_SCHEDULER: Wait for scheduler "whi0" with entities [LocalPlayer, LocalPlayer], work=201*
     0x021E [0x1B] RETURN
     0x021F [0x45] LOAD_SCHEDULED_TASK: Load scheduler "who0" with entities [LocalPlayer, LocalPlayer], work=[201*, 0*]
     0x0230 [0x55] WAIT_LOAD_SCHEDULER: Wait for scheduler "who0" with entities [LocalPlayer, LocalPlayer], work=201*
     0x023F [0x1B] RETURN
     0x0240 [0x45] LOAD_SCHEDULED_TASK: Load scheduler "efon" with entities [LocalPlayer, LocalPlayer], work=[215*, 0*]
     0x0251 [0x55] WAIT_LOAD_SCHEDULER: Wait for scheduler "efon" with entities [LocalPlayer, LocalPlayer], work=215*
     0x0260 [0x1B] RETURN
     0x0261 [0x45] LOAD_SCHEDULED_TASK: Load scheduler "fdis" with entities [LocalPlayer, LocalPlayer], work=[200*, 0*]
     0x0272 [0x1B] RETURN
     0x0273 [0x45] LOAD_SCHEDULED_TASK: Load scheduler "fdos" with entities [LocalPlayer, LocalPlayer], work=[200*, 0*]
     0x0284 [0x55] WAIT_LOAD_SCHEDULER: Wait for scheduler "fdos" with entities [LocalPlayer, LocalPlayer], work=200*
     0x0293 [0x1B] RETURN
     0x0294 [0x45] LOAD_SCHEDULED_TASK: Load scheduler "fdif" with entities [LocalPlayer, LocalPlayer], work=[200*, 0*]
     0x02A5 [0x1B] RETURN
     0x02A6 [0x45] LOAD_SCHEDULED_TASK: Load scheduler "fdof" with entities [LocalPlayer, LocalPlayer], work=[200*, 0*]
     0x02B7 [0x55] WAIT_LOAD_SCHEDULER: Wait for scheduler "fdof" with entities [LocalPlayer, LocalPlayer], work=200*
     0x02C6 [0x1B] RETURN
     0x02C7 [0x45] LOAD_SCHEDULED_TASK: Load scheduler "fdip" with entities [LocalPlayer, LocalPlayer], work=[200*, 0*]
     0x02D8 [0x1B] RETURN
     0x02D9 [0x45] LOAD_SCHEDULED_TASK: Load scheduler "fdop" with entities [LocalPlayer, LocalPlayer], work=[200*, 0*]
     0x02EA [0x55] WAIT_LOAD_SCHEDULER: Wait for scheduler "fdop" with entities [LocalPlayer, LocalPlayer], work=200*
     0x02F9 [0x1B] RETURN
```
