# 16871588 - Bridge

## Common Data

| Field            | Value                   |
|------------------|-------------------------|
| Zone             | Spire of Vahzl (ID: 23) |
| Block Size       | 136 bytes               |
| Total Events     | 2                       |
| References Count | 6                       |

## List of Events

| Event ID              | Entrypoint   |   Size |   Instructions |
|-----------------------|--------------|--------|----------------|
| [65535](#event-65535) | 0x0000       |      1 |              1 |
| [14](#event-14)       | 0x0001       |     87 |             17 |

## DAT References (imed_data)

|   Index | Hex Value   |   Dec Value |
|---------|-------------|-------------|
|       0 | 0x0258      |         600 |
|       1 | 0x1DCB      |        7627 |
|       2 | 0x00C8      |         200 |
|       3 | 0x0000      |           0 |
|       4 | 0x00B4      |         180 |
|       5 | 0x003C      |          60 |

## String References

- **7627**: Press a button to continue.

## Events

### Event 65535

#### Metadata

| Field        | Value   |
|--------------|---------|
| Entrypoint   | 0x0000  |
| Data Size    | 1 bytes |
| Instructions | 1       |

```
      00 01 02 03 04 05 06 07  08 09 0A 0B 0C 0D 0E 0F
      -- -- -- -- -- -- -- --  -- -- -- -- -- -- -- --
0000: 00                                                .               
```

#### Opcodes

```
  0: 0x0000 [0x00] END_REQSTACK()
```

### Event 14

#### Metadata

| Field        | Value    |
|--------------|----------|
| Entrypoint   | 0x0001   |
| Data Size    | 87 bytes |
| Instructions | 17       |

```
      00 01 02 03 04 05 06 07  08 09 0A 0B 0C 0D 0E 0F
      -- -- -- -- -- -- -- --  -- -- -- -- -- -- -- --
0000:    20 01 46 01 42 2D F8  FF FF 7F F8 FF FF 7F 73    .F.B-........s
0010: 74 30 31 1C 00 80 1D 01  80 23 45 02 80 F0 FF FF  t01......#E.....
0020: 7F F0 FF FF 7F 66 64 6F  31 03 80 1C 04 80 2D F8  .....fdo1.....-.
0030: FF FF 7F F8 FF FF 7F 6B  69 6C 6C 1C 05 80 45 02  .......kill...E.
0040: 80 F0 FF FF 7F F0 FF FF  7F 66 64 69 31 03 80 1C  .........fdi1...
0050: 05 80 46 00 20 00 21 00                           ..F. .!.        
```

#### Opcodes

```
  0: 0x0001 [0x20] SET_CLI_EVENT_UC_FLAG: Lock player control
  1: 0x0003 [0x46] CAMERA_CONTROL: Disable user control
  2: 0x0005 [0x42] SET_CLI_EVENT_CANCEL_DATA()
  3: 0x0006 [0x2D] CREATE_ZONE_SCHEDULER_TASK: Create scheduler "st01" with entities [EventEntity, EventEntity]
  4: 0x0013 [0x1C] WAIT(600* ticks)
  5: 0x0016 [0x1D] PRINT_EVENT_MESSAGE(message_id=7627*)
    → "Press a button to continue."
  6: 0x0019 [0x23] WAIT_FOR_DIALOG_INTERACTION
  7: 0x001A [0x45] LOAD_SCHEDULED_TASK: Load scheduler "fdo1" with entities [LocalPlayer, LocalPlayer], work=[200*, 0*]
  8: 0x002B [0x1C] WAIT(180* ticks)
  9: 0x002E [0x2D] CREATE_ZONE_SCHEDULER_TASK: Create scheduler "kill" with entities [EventEntity, EventEntity]
 10: 0x003B [0x1C] WAIT(60* ticks)
 11: 0x003E [0x45] LOAD_SCHEDULED_TASK: Load scheduler "fdi1" with entities [LocalPlayer, LocalPlayer], work=[200*, 0*]
 12: 0x004F [0x1C] WAIT(60* ticks)
 13: 0x0052 [0x46] CAMERA_CONTROL: Restore default settings
 14: 0x0054 [0x20] SET_CLI_EVENT_UC_FLAG: Unlock player control
 15: 0x0056 [0x21] END_EVENT
 16: 0x0057 [0x00] END_REQSTACK()
```
