# 16871595 - BOX2

## Common Data

| Field            | Value                   |
|------------------|-------------------------|
| Zone             | Spire of Vahzl (ID: 23) |
| Block Size       | 172 bytes               |
| Total Events     | 7                       |
| References Count | 7                       |

## List of Events

| Event ID                 | Entrypoint   |   Size |   Instructions |
|--------------------------|--------------|--------|----------------|
| [65535](#event-65535)    | 0x0000       |      1 |              1 |
| [65535.1](#event-655351) | 0x0001       |     16 |              2 |
| [65535.2](#event-655352) | 0x0011       |     16 |              2 |
| [65535.3](#event-655353) | 0x0021       |     16 |              2 |
| [65535.4](#event-655354) | 0x0031       |     18 |              2 |
| [65535.5](#event-655355) | 0x0043       |     14 |              2 |
| [20](#event-20)          | 0x0051       |     16 |              3 |

## DAT References (imed_data)

|   Index | Hex Value   |   Dec Value |
|---------|-------------|-------------|
|       0 | 0x01EF      |         495 |
|       1 | 0x005D      |          93 |
|       2 | 0x0000      |           0 |
|       3 | 0x3A980     |      240000 |
|       4 | 0xFFFC5A68  |  4294728296 |
|       5 | 0xFFFFFED4  |  4294966996 |
|       6 | 0x0400      |        1024 |

## Events

### Event 65535

#### Metadata

| Field        | Value   |
|--------------|---------|
| Entrypoint   | 0x0000  |
| Data Size    | 1 bytes |
| Instructions | 1       |

```
      00 01 02 03 04 05 06 07  08 09 0A 0B 0C 0D 0E 0F
      -- -- -- -- -- -- -- --  -- -- -- -- -- -- -- --
0000: 00                                                .               
```

#### Opcodes

```
  0: 0x0000 [0x00] END_REQSTACK()
```

### Event 65535.1

#### Metadata

| Field        | Value    |
|--------------|----------|
| Entrypoint   | 0x0001   |
| Data Size    | 16 bytes |
| Instructions | 2        |

```
      00 01 02 03 04 05 06 07  08 09 0A 0B 0C 0D 0E 0F
      -- -- -- -- -- -- -- --  -- -- -- -- -- -- -- --
0000:    5B 00 80 F8 FF FF 7F  F8 FF FF 7F 65 69 64 6C   [..........eidl
0010: 00                                                .               
```

#### Opcodes

```
  0: 0x0001 [0x5B] LOAD_EXT_SCHEDULER: Load scheduler "eidl" with entities [EventEntity, EventEntity], work=495*
  1: 0x0010 [0x00] END_REQSTACK()
```

### Event 65535.2

#### Metadata

| Field        | Value    |
|--------------|----------|
| Entrypoint   | 0x0011   |
| Data Size    | 16 bytes |
| Instructions | 2        |

```
      00 01 02 03 04 05 06 07  08 09 0A 0B 0C 0D 0E 0F
      -- -- -- -- -- -- -- --  -- -- -- -- -- -- -- --
0010:    5B 00 80 F8 FF FF 7F  F8 FF FF 7F 6B 69 6C 6C   [..........kill
0020: 00                                                .               
```

#### Opcodes

```
  0: 0x0011 [0x5B] LOAD_EXT_SCHEDULER: Load scheduler "kill" with entities [EventEntity, EventEntity], work=495*
  1: 0x0020 [0x00] END_REQSTACK()
```

### Event 65535.3

#### Metadata

| Field        | Value    |
|--------------|----------|
| Entrypoint   | 0x0021   |
| Data Size    | 16 bytes |
| Instructions | 2        |

```
      00 01 02 03 04 05 06 07  08 09 0A 0B 0C 0D 0E 0F
      -- -- -- -- -- -- -- --  -- -- -- -- -- -- -- --
0020:    5B 00 80 F8 FF FF 7F  F8 FF FF 7F 68 69 64 6C   [..........hidl
0030: 00                                                .               
```

#### Opcodes

```
  0: 0x0021 [0x5B] LOAD_EXT_SCHEDULER: Load scheduler "hidl" with entities [EventEntity, EventEntity], work=495*
  1: 0x0030 [0x00] END_REQSTACK()
```

### Event 65535.4

#### Metadata

| Field        | Value    |
|--------------|----------|
| Entrypoint   | 0x0031   |
| Data Size    | 18 bytes |
| Instructions | 2        |

```
      00 01 02 03 04 05 06 07  08 09 0A 0B 0C 0D 0E 0F
      -- -- -- -- -- -- -- --  -- -- -- -- -- -- -- --
0030:    9F 01 80 F8 FF FF 7F  F8 FF FF 7F 6D 61 69 6E   ...........main
0040: 02 80 00                                          ...             
```

#### Opcodes

```
  0: 0x0031 [0x9F] LOAD_SCHEDULED_TASK_ALT: Load scheduler "main" with entities [EventEntity, EventEntity], work=[93*, 0*]
  1: 0x0042 [0x00] END_REQSTACK()
```

### Event 65535.5

#### Metadata

| Field        | Value    |
|--------------|----------|
| Entrypoint   | 0x0043   |
| Data Size    | 14 bytes |
| Instructions | 2        |

```
      00 01 02 03 04 05 06 07  08 09 0A 0B 0C 0D 0E 0F
      -- -- -- -- -- -- -- --  -- -- -- -- -- -- -- --
0040:          53 F8 FF FF 7F  F8 FF FF 7F 6F 65 70 6E     S........oepn
0050: 00                                                .               
```

#### Opcodes

```
  0: 0x0043 [0x53] WAIT_SCHEDULER_TASK: Wait for scheduler "oepn" with entities [EventEntity, EventEntity]
  1: 0x0050 [0x00] END_REQSTACK()
```

### Event 20

#### Metadata

| Field        | Value    |
|--------------|----------|
| Entrypoint   | 0x0051   |
| Data Size    | 16 bytes |
| Instructions | 3        |

```
      00 01 02 03 04 05 06 07  08 09 0A 0B 0C 0D 0E 0F
      -- -- -- -- -- -- -- --  -- -- -- -- -- -- -- --
0050:    92 01 F8 FF FF 7F 37  03 80 04 80 05 80 06 80   ......7........
0060: 00                                                .               
```

#### Opcodes

```
  0: 0x0051 [0x92] EventEntity->Render.Flags3 ^= 0x01
  1: 0x0057 [0x37] UPDATE_EVENT_POSITION_AND_DIR: x=240.000*, z=-239.000*, y=-0.300*, direction=90.0°*
  2: 0x0060 [0x00] END_REQSTACK()
```
