# 0x7FFFFFF0 - Zone Events

## Common Data

| Field            | Value                   |
|------------------|-------------------------|
| Zone             | Spire of Vahzl (ID: 23) |
| Block Size       | 10596 bytes             |
| Total Events     | 24                      |
| References Count | 280                     |

## List of Events

| Event ID                   | Entrypoint   |   Size |   Instructions |
|----------------------------|--------------|--------|----------------|
| [65535](#event-65535)      | 0x0000       |      1 |              1 |
| [65534](#event-65534)      | 0x0001       |      1 |              1 |
| [32000](#event-32000)      | 0x0002       |   2169 |            427 |
| [32002](#event-32002)      | 0x087B       |    494 |             83 |
| [32001](#event-32001)      | 0x0A69       |   1195 |            218 |
| [32003](#event-32003)      | 0x0F14       |    435 |             77 |
| [32004](#event-32004)      | 0x10C7       |   4851 |            592 |
| [65535.1](#event-655351)   | 0x23BA       |      6 |              2 |
| [65535.2](#event-655352)   | 0x23C0       |      6 |              2 |
| [65535.3](#event-655353)   | 0x23C6       |      6 |              2 |
| [65535.4](#event-655354)   | 0x23CC       |      6 |              2 |
| [65535.5](#event-655355)   | 0x23D2       |      6 |              2 |
| [65535.6](#event-655356)   | 0x23D8       |     10 |              2 |
| [65535.7](#event-655357)   | 0x23E2       |     59 |             10 |
| [65535.8](#event-655358)   | 0x241D       |     10 |              2 |
| [65535.9](#event-655359)   | 0x2427       |     10 |              2 |
| [65535.10](#event-6553510) | 0x2431       |     10 |              2 |
| [65535.11](#event-6553511) | 0x243B       |     10 |              2 |
| [65535.12](#event-6553512) | 0x2445       |     14 |              4 |
| [65535.13](#event-6553513) | 0x2453       |     14 |              4 |
| [65535.14](#event-6553514) | 0x2461       |     10 |              2 |
| [65535.15](#event-6553515) | 0x246B       |     15 |              5 |
| [65535.16](#event-6553516) | 0x247A       |     15 |              3 |
| [65535.17](#event-6553517) | 0x2489       |     10 |              2 |

## DAT References (imed_data)

|   Index | Hex Value   |   Dec Value |
|---------|-------------|-------------|
|       0 | 0x0000      |           0 |
|       1 | 0x000F      |          15 |
|       2 | 0x0010      |          16 |
|       3 | 0x001F      |          31 |
|       4 | 0xFFFFFFFF  |  4294967295 |
|       5 | 0x0001      |           1 |
|       6 | 0x1DC9      |        7625 |
|       7 | 0x1D0A      |        7434 |
|       8 | 0x0005      |           5 |
|       9 | 0x0002      |           2 |
|      10 | 0x0003      |           3 |
|      11 | 0x0004      |           4 |
|      12 | 0x1B9C      |        7068 |
|      13 | 0x00FF      |         255 |
|      14 | 0x00C8      |         200 |
|      15 | 0x0013      |          19 |
|      16 | 0x0008      |           8 |
|      17 | 0x0009      |           9 |
|      18 | 0x000B      |          11 |
|      19 | 0x1BA7      |        7079 |
|      20 | 0x1BA8      |        7080 |
|      21 | 0x1BA9      |        7081 |
|      22 | 0x1BAA      |        7082 |
|      23 | 0x1BCE      |        7118 |
|      24 | 0x0006      |           6 |
|      25 | 0x0012      |          18 |
|      26 | 0x0007      |           7 |
|      27 | 0x000A      |          10 |
|      28 | 0x000C      |          12 |
|      29 | 0x000D      |          13 |
|      30 | 0x000E      |          14 |
|      31 | 0x0011      |          17 |
|      32 | 0x0014      |          20 |
|      33 | 0x0015      |          21 |
|      34 | 0x0016      |          22 |
|      35 | 0x0017      |          23 |
|      36 | 0x0018      |          24 |
|      37 | 0x0019      |          25 |
|      38 | 0x001A      |          26 |
|      39 | 0x001B      |          27 |
|      40 | 0x001C      |          28 |
|      41 | 0x001D      |          29 |
|      42 | 0x001E      |          30 |
|      43 | 0x1D03      |        7427 |
|      44 | 0x1E25      |        7717 |
|      45 | 0x1D08      |        7432 |
|      46 | 0x1D07      |        7431 |
|      47 | 0x003C      |          60 |
|      48 | 0x1DC7      |        7623 |
|      49 | 0x1DC6      |        7622 |
|      50 | 0x0064      |         100 |
|      51 | 0x1CEF      |        7407 |
|      52 | 0x00DC      |         220 |
|      53 | 0x1B9F      |        7071 |
|      54 | 0x00C9      |         201 |
|      55 | 0x1DCA      |        7626 |
|      56 | 0x1E24      |        7716 |
|      57 | 0x00B4      |         180 |
|      58 | 0xFFF6C42B  |  4294362155 |
|      59 | 0x752B9     |      479929 |
|      60 | 0xFFFFA767  |  4294944615 |
|      61 | 0x03E0      |         992 |
|      62 | 0xFFFBFE43  |  4294704707 |
|      63 | 0x5C401     |      377857 |
|      64 | 0xFFFDE79F  |  4294829983 |
|      65 | 0x0D92      |        3474 |
|      66 | 0x47AC      |       18348 |
|      67 | 0x76E1C     |      486940 |
|      68 | 0xFFFC93B2  |  4294742962 |
|      69 | 0x00C2      |         194 |
|      70 | 0x388A9     |      231593 |
|      71 | 0x57E9E     |      360094 |
|      72 | 0xFFFD59FC  |  4294793724 |
|      73 | 0x0726      |        1830 |
|      74 | 0x872C0     |      553664 |
|      75 | 0x7FEA3     |      523939 |
|      76 | 0xFFFF6AC3  |  4294929091 |
|      77 | 0x0A65      |        2661 |
|      78 | 0xFFFFFF47  |  4294967111 |
|      79 | 0x3EF08     |      257800 |
|      80 | 0xFFFFFC18  |  4294966296 |
|      81 | 0x0C00      |        3072 |
|      82 | 0xFFF2A593  |  4294092179 |
|      83 | 0xFFFF548C  |  4294923404 |
|      84 | 0xFFFF442C  |  4294919212 |
|      85 | 0x0201      |         513 |
|      86 | 0xFFF478D5  |  4294211797 |
|      87 | 0x89AEB     |      563947 |
|      88 | 0xFFFE4A5D  |  4294855261 |
|      89 | 0x0DEF      |        3567 |
|      90 | 0x1E173     |      123251 |
|      91 | 0xB8221     |      754209 |
|      92 | 0xFFFD5FA4  |  4294795172 |
|      93 | 0x01B8      |         440 |
|      94 | 0xFFF81ECC  |  4294450892 |
|      95 | 0xFFF3BE05  |  4294163973 |
|      96 | 0x5E8E      |       24206 |
|      97 | 0x01B5      |         437 |
|      98 | 0x012C      |         300 |
|      99 | 0x0080      |         128 |
|     100 | 0xFFF690A7  |  4294348967 |
|     101 | 0xFFF62CE4  |  4294323428 |
|     102 | 0xFFFF9B33  |  4294941491 |
|     103 | 0x0EB1      |        3761 |
|     104 | 0xFFFAEE7D  |  4294635133 |
|     105 | 0xFFF941C6  |  4294525382 |
|     106 | 0xFFFE8CB1  |  4294872241 |
|     107 | 0x0EB0      |        3760 |
|     108 | 0xFFFFCF50  |  4294954832 |
|     109 | 0xFFF61B47  |  4294318919 |
|     110 | 0xFFFD07BB  |  4294772667 |
|     111 | 0x0EBA      |        3770 |
|     112 | 0x4EF35     |      323381 |
|     113 | 0xFFF93A6F  |  4294523503 |
|     114 | 0xFFFE5868  |  4294858856 |
|     115 | 0x0EA0      |        3744 |
|     116 | 0x92763     |      599907 |
|     117 | 0xFFF5AB97  |  4294290327 |
|     118 | 0xFFFFA837  |  4294944823 |
|     119 | 0x0EB3      |        3763 |
|     120 | 0x002B      |          43 |
|     121 | 0xFFFA9D4F  |  4294614351 |
|     122 | 0xFFFE2E2F  |  4294848047 |
|     123 | 0x0400      |        1024 |
|     124 | 0x00A8      |         168 |
|     125 | 0x30D7B     |      200059 |
|     126 | 0xFFFFAA3A  |  4294945338 |
|     127 | 0xFFFFFF06  |  4294967046 |
|     128 | 0x0411      |        1041 |
|     129 | 0x00CA      |         202 |
|     130 | 0x837EC     |      538604 |
|     131 | 0x7A88C     |      501900 |
|     132 | 0xFFFFC98A  |  4294953354 |
|     133 | 0x0CBC      |        3260 |
|     134 | 0x00CB      |         203 |
|     135 | 0x870F5     |      553205 |
|     136 | 0x8FF41     |      589633 |
|     137 | 0xFFFFFFEB  |  4294967275 |
|     138 | 0x0587      |        1415 |
|     139 | 0x00D3      |         211 |
|     140 | 0x8AF88     |      569224 |
|     141 | 0x85E6E     |      548462 |
|     142 | 0x8FE5      |       36837 |
|     143 | 0x02A1      |         673 |
|     144 | 0x0024      |          36 |
|     145 | 0x1E2F      |        7727 |
|     146 | 0x1E30      |        7728 |
|     147 | 0x1CF1      |        7409 |
|     148 | 0x1CF0      |        7408 |
|     149 | 0x1DC5      |        7621 |
|     150 | 0x1CF3      |        7411 |
|     151 | 0x1CF2      |        7410 |
|     152 | 0x3C31B     |      246555 |
|     153 | 0xFFFFF831  |  4294965297 |
|     154 | 0x03FB      |        1019 |
|     155 | 0x009A      |         154 |
|     156 | 0x00F0      |         240 |
|     157 | 0x002E      |          46 |
|     158 | 0x3B1BE     |      242110 |
|     159 | 0x3AB25     |      240421 |
|     160 | 0xFFFC563F  |  4294727231 |
|     161 | 0x8D26      |       36134 |
|     162 | 0xE290      |       58000 |
|     163 | 0x01CA      |         458 |
|     164 | 0x0028      |          40 |
|     165 | 0xFFFC5737  |  4294727479 |
|     166 | 0x6047      |       24647 |
|     167 | 0xE28F      |       57999 |
|     168 | 0x1DE0      |        7648 |
|     169 | 0x1DE1      |        7649 |
|     170 | 0x004F      |          79 |
|     171 | 0x0078      |         120 |
|     172 | 0x01D3      |         467 |
|     173 | 0x005E      |          94 |
|     174 | 0x0168      |         360 |
|     175 | 0x0272      |         626 |
|     176 | 0xFFFA9D18  |  4294614296 |
|     177 | 0xFFFE2E2E  |  4294848046 |
|     178 | 0x0054      |          84 |
|     179 | 0x0077      |         119 |
|     180 | 0x1DE2      |        7650 |
|     181 | 0x006E      |         110 |
|     182 | 0x01A4      |         420 |
|     183 | 0x1DE3      |        7651 |
|     184 | 0x1DE4      |        7652 |
|     185 | 0x1DE5      |        7653 |
|     186 | 0x1DE6      |        7654 |
|     187 | 0x01D1      |         465 |
|     188 | 0x1DE7      |        7655 |
|     189 | 0x01A9      |         425 |
|     190 | 0x1DE8      |        7656 |
|     191 | 0x022B      |         555 |
|     192 | 0x1DE9      |        7657 |
|     193 | 0x1DEA      |        7658 |
|     194 | 0x1DEB      |        7659 |
|     195 | 0x03E7      |         999 |
|     196 | 0x1DEC      |        7660 |
|     197 | 0x1DED      |        7661 |
|     198 | 0x1DEE      |        7662 |
|     199 | 0x1DEF      |        7663 |
|     200 | 0x1DF0      |        7664 |
|     201 | 0x1DF1      |        7665 |
|     202 | 0x0280      |         640 |
|     203 | 0x1DF2      |        7666 |
|     204 | 0x1DF3      |        7667 |
|     205 | 0x01FD      |         509 |
|     206 | 0x1DF4      |        7668 |
|     207 | 0x1DF5      |        7669 |
|     208 | 0x1DF6      |        7670 |
|     209 | 0x002D      |          45 |
|     210 | 0x1DF7      |        7671 |
|     211 | 0x1DF8      |        7672 |
|     212 | 0x1DF9      |        7673 |
|     213 | 0x0309      |         777 |
|     214 | 0x1DFA      |        7674 |
|     215 | 0x1DFB      |        7675 |
|     216 | 0x0096      |         150 |
|     217 | 0x1DFC      |        7676 |
|     218 | 0x1DFD      |        7677 |
|     219 | 0x1DFE      |        7678 |
|     220 | 0x1DFF      |        7679 |
|     221 | 0x1E00      |        7680 |
|     222 | 0x1E01      |        7681 |
|     223 | 0x1E02      |        7682 |
|     224 | 0x1E03      |        7683 |
|     225 | 0x1E04      |        7684 |
|     226 | 0x1E05      |        7685 |
|     227 | 0x1E06      |        7686 |
|     228 | 0x005A      |          90 |
|     229 | 0x01E0      |         480 |
|     230 | 0x1E11      |        7697 |
|     231 | 0x1E07      |        7687 |
|     232 | 0x00EB      |         235 |
|     233 | 0x1E08      |        7688 |
|     234 | 0x0270      |         624 |
|     235 | 0x1E09      |        7689 |
|     236 | 0x1E0A      |        7690 |
|     237 | 0x1E0B      |        7691 |
|     238 | 0x0269      |         617 |
|     239 | 0x1E0C      |        7692 |
|     240 | 0x1E0D      |        7693 |
|     241 | 0x1E0E      |        7694 |
|     242 | 0x1E0F      |        7695 |
|     243 | 0x1E10      |        7696 |
|     244 | 0x010E      |         270 |
|     245 | 0x1B9D      |        7069 |
|     246 | 0xFFFC5663  |  4294727267 |
|     247 | 0x9681      |       38529 |
|     248 | 0x0BFF      |        3071 |
|     249 | 0xFFFC56AB  |  4294727339 |
|     250 | 0xA124      |       41252 |
|     251 | 0xFFFC5635  |  4294727221 |
|     252 | 0xBA91      |       47761 |
|     253 | 0x00D7      |         215 |
|     254 | 0xFFFFFFB2  |  4294967218 |
|     255 | 0x8D67      |       36199 |
|     256 | 0xFFFFF830  |  4294965296 |
|     257 | 0x3A986     |      240006 |
|     258 | 0x8D8B      |       36235 |
|     259 | 0xFFFF0DD0  |  4294905296 |
|     260 | 0x3ABD8     |      240600 |
|     261 | 0xFFFC7E2D  |  4294737453 |
|     262 | 0x0404      |        1028 |
|     263 | 0xFFFC77B4  |  4294735796 |
|     264 | 0xFFFFFC19  |  4294966297 |
|     265 | 0x3B051     |      241745 |
|     266 | 0x08FC      |        2300 |
|     267 | 0x3B024     |      241700 |
|     268 | 0x0614      |        1556 |
|     269 | 0x3AD68     |      241000 |
|     270 | 0x3A980     |      240000 |
|     271 | 0xFFFC9CC5  |  4294745285 |
|     272 | 0x8B3F      |       35647 |
|     273 | 0x03FA      |        1018 |
|     274 | 0xFFFC5A4E  |  4294728270 |
|     275 | 0x3D80      |       15744 |
|     276 | 0xEA5F      |       59999 |
|     277 | 0x039E      |         926 |
|     278 | 0xFFFAA9D2  |  4294617554 |
|     279 | 0x03FC      |        1020 |

## String References

- **7068**: Enter the battlefield? [Enter./Decline.]
- **7069**: Leave the battlefield? [Run away./Stay.]
- **7071**: You cannot enter the battlefield at present. Please wait a little longer.
- **7079**: You are cleared to enter the battlefield, but you cannot while party members are engaged in combat.
- **7080**: You are cleared to enter the battlefield, but you cannot while party members are engaged in combat.
- **7081**: You are cleared to enter the battlefield, but you cannot while party members are engaged in combat.
- **7082**: You are cleared to enter the battlefield, but you cannot while party members are engaged in combat.
- **7118**: You do not meet the requirements to enter the battlefield. Access is denied.
- **7407**: Skip the event? [Yes./No.]
- **7408**: Battlefield clear time: $3 second[/s]!
- **7409**: Battlefield clear time: $3 minute[/s], $2 second[/s]!
- **7410**: The current battlefield clear time record is $3 second[/s].
- **7411**: The current battlefield clear time record is $3 minute[/s] $2 second[/s].
- **7427**: Only $3 [member/members] have clearance to enter the battlefield. This room has reached its maximum capacity.
- **7431**: That record is held by $5 adventurers, including %0!
- **7432**: That record is held by %0!
- **7434**: Select difficulty. [Very difficult. (Level: ???)/Difficult. (Level: ???)/Normal. (Level: $18)/Easy. (Level: $17)/Very Easy. (Level: $16)/Leave.]
- **7621**: You have broken the clear time record for "[Desires of Emptiness/Pulling the Plug/Empty Aspirations]"!
- **7622**: The current battlefield clear time record for "[Desires of Emptiness/Pulling the Plug/Empty Aspirations]" is $3 second[/s].
- **7623**: The current battlefield clear time record for "[Desires of Emptiness/Pulling the Plug/Empty Aspirations]" is $3 minute[/s] $2 second[/s].
- **7625**: Which battlefield will you enter? [None./Desires of Emptiness./Pulling the Plug./Empty Aspirations././././././././././././././././././././././././././././]
- **7626**: Level limit of 50. The experience point reward for this battlefield will be reduced for parties of seven or more members.
- **7697**: 
- **7716**: You will be rewarded upon completion with as many as $0 [item/items]. Sort your inventory in advance to ensure that you can claim your reward.
- **7717**: The current record for "[Empty Hopes/Empty Dreams/Empty Desires/Empty Aspirations]" is $3 [memory/memories].
- **7727**: You collected $3 [memory/memories] in this battle.
- **7728**: A new record has been set for "[Empty Hopes/Empty Dreams/Empty Desires/Empty Aspirations]"!

## Events

### Event 65535

#### Metadata

| Field        | Value   |
|--------------|---------|
| Entrypoint   | 0x0000  |
| Data Size    | 1 bytes |
| Instructions | 1       |

```
      00 01 02 03 04 05 06 07  08 09 0A 0B 0C 0D 0E 0F
      -- -- -- -- -- -- -- --  -- -- -- -- -- -- -- --
0000: 00                                                .               
```

#### Opcodes

```
  0: 0x0000 [0x00] END_REQSTACK()
```

### Event 65534

#### Metadata

| Field        | Value   |
|--------------|---------|
| Entrypoint   | 0x0001  |
| Data Size    | 1 bytes |
| Instructions | 1       |

```
      00 01 02 03 04 05 06 07  08 09 0A 0B 0C 0D 0E 0F
      -- -- -- -- -- -- -- --  -- -- -- -- -- -- -- --
0000:    00                                              .              
```

#### Opcodes

```
  0: 0x0001 [0x00] END_REQSTACK()
```

### Event 32000

#### Metadata

| Field        | Value      |
|--------------|------------|
| Entrypoint   | 0x0002     |
| Data Size    | 2169 bytes |
| Instructions | 291        |

```
      00 01 02 03 04 05 06 07  08 09 0A 0B 0C 0D 0E 0F
      -- -- -- -- -- -- -- --  -- -- -- -- -- -- -- --
0000:       20 01 79 00 F0 FF  FF 7F F0 FF FF 7F 03 02     .y...........
0010: 00 02 10 03 03 00 03 10  03 05 00 04 10 03 06 00  ................
0020: 05 10 03 0F 00 06 10 03  10 00 07 10 03 11 00 08  ................
0030: 10 41 00 80 01 80 09 10  07 00 41 02 80 03 80 09  .A........A.....
0040: 10 06 10 06 01 00 02 07  00 00 80 00 45 01 03 08  ............E...
0050: 00 04 80 0F 08 00 06 00  10 08 00 05 80 24 06 80  .............$..
0060: 00 80 08 00 25 02 00 10  00 80 00 73 00 01 34 08  ....%......s..4.
0070: 01 45 01 03 03 00 00 10  0C 03 00 06 16 00 06 13  .E..............
0080: 00 3E 0F 00 03 00 21 01  06 0F 00 06 08 00 3E 11  .>....!.......>.
0090: 00 03 00 98 00 01 9F 00  3C 08 00 00 80 05 80 3E  ........<......>
00A0: 10 00 03 00 A9 00 01 B0  00 3C 08 00 05 80 05 80  .........<......
00B0: 1A A0 20 24 07 80 08 80  08 00 25 02 00 10 00 80  .. $......%.....
00C0: 00 CB 00 03 0F 00 05 80  01 1E 01 02 00 10 05 80  ................
00D0: 00 DB 00 03 0F 00 09 80  01 1E 01 02 00 10 09 80  ................
00E0: 00 EB 00 03 0F 00 0A 80  01 1E 01 02 00 10 0A 80  ................
00F0: 00 FB 00 03 0F 00 0B 80  01 1E 01 02 00 10 0B 80  ................
0100: 00 0B 01 03 0F 00 08 80  01 1E 01 02 00 10 08 80  ................
0110: 00 19 01 01 34 08 01 1E  01 03 0F 00 0A 80 01 45  ....4..........E
0120: 01 06 0F 00 1A 4E 08 02  16 00 05 80 00 45 01 24  .....N.......E.$
0130: 0C 80 05 80 00 80 25 02  00 10 05 80 00 45 01 01  ......%......E..
0140: 34 08 01 45 01 42 03 01  10 0D 80 43 00 43 01 06  4..E.B.....C.C..
0150: 01 10 45 0E 80 F0 FF FF  7F F0 FF FF 7F 66 64 6F  ..E..........fdo
0160: 31 00 80 55 0E 80 F0 FF  FF 7F F0 FF FF 7F 66 64  1..U..........fd
0170: 6F 31 3B F0 FF FF 7F 20  10 21 10 22 10 38 0F 80  o1;.... .!.".8..
0180: 02 07 00 05 80 00 9F 01  03 00 00 05 80 03 04 00  ................
0190: 03 00 03 02 00 00 80 03  1C 00 00 80 01 68 05 03  .............h..
01A0: 00 00 05 80 02 00 00 0A  80 05 FD 07 02 00 80 05  ................
01B0: 80 00 B9 01 03 00 00 05  00 40 00 80 0A 80 01 10  .........@......
01C0: 00 00 40 0B 80 10 80 01  10 03 00 40 11 80 12 80  ..@........@....
01D0: 01 10 0F 00 06 02 10 06  03 10 06 04 10 1A 3D 23  ..............=#
01E0: 47 00 09 00 0A 00 0B 00  0C 00 47 01 03 04 00 03  G.........G.....
01F0: 10 03 02 00 04 10 03 1A  00 05 10 03 0D 00 06 10  ................
0200: 03 0E 00 07 10 03 1C 00  09 10 02 02 10 05 80 80  ................
0210: 15 02 01 EA 07 02 02 10  0B 80 80 5F 02 02 00 00  ..........._....
0220: 05 80 80 2C 02 48 13 80  23 01 59 02 02 00 00 09  ...,.H..#.Y.....
0230: 80 80 3B 02 48 14 80 23  01 59 02 02 00 00 0A 80  ..;.H..#.Y......
0240: 80 4A 02 48 15 80 23 01  59 02 02 00 00 0B 80 80  .J.H..#.Y.......
0250: 59 02 48 16 80 23 01 59  02 01 01 08 01 EA 07 02  Y.H..#.Y........
0260: 02 10 08 80 80 71 02 48  17 80 23 01 01 08 01 EA  .....q.H..#.....
0270: 07 02 02 10 18 80 80 73  04 02 04 00 00 80 80 89  .......s........
0280: 02 03 05 10 18 80 01 69  04 02 04 00 05 80 80 99  .......i........
0290: 02 03 05 10 19 80 01 69  04 02 04 00 09 80 80 A9  .......i........
02A0: 02 03 05 10 18 80 01 69  04 02 04 00 0A 80 80 B9  .......i........
02B0: 02 03 05 10 00 80 01 69  04 02 04 00 0B 80 80 C9  .......i........
02C0: 02 03 05 10 00 80 01 69  04 02 04 00 08 80 80 D9  .......i........
02D0: 02 03 05 10 00 80 01 69  04 02 04 00 18 80 80 E9  .......i........
02E0: 02 03 05 10 00 80 01 69  04 02 04 00 1A 80 80 F9  .......i........
02F0: 02 03 05 10 00 80 01 69  04 02 04 00 10 80 80 09  .......i........
0300: 03 03 05 10 00 80 01 69  04 02 04 00 11 80 80 19  .......i........
0310: 03 03 05 10 00 80 01 69  04 02 04 00 1B 80 80 29  .......i.......)
0320: 03 03 05 10 00 80 01 69  04 02 04 00 12 80 80 39  .......i.......9
0330: 03 03 05 10 00 80 01 69  04 02 04 00 1C 80 80 49  .......i.......I
0340: 03 03 05 10 00 80 01 69  04 02 04 00 1D 80 80 59  .......i.......Y
0350: 03 03 05 10 00 80 01 69  04 02 04 00 1E 80 80 69  .......i.......i
0360: 03 03 05 10 00 80 01 69  04 02 04 00 01 80 80 79  .......i.......y
0370: 03 03 05 10 00 80 01 69  04 02 04 00 02 80 80 89  .......i........
0380: 03 03 05 10 00 80 01 69  04 02 04 00 1F 80 80 99  .......i........
0390: 03 03 05 10 00 80 01 69  04 02 04 00 19 80 80 A9  .......i........
03A0: 03 03 05 10 00 80 01 69  04 02 04 00 0F 80 80 B9  .......i........
03B0: 03 03 05 10 00 80 01 69  04 02 04 00 20 80 80 C9  .......i.... ...
03C0: 03 03 05 10 00 80 01 69  04 02 04 00 21 80 80 D9  .......i....!...
03D0: 03 03 05 10 00 80 01 69  04 02 04 00 22 80 80 E9  .......i...."...
03E0: 03 03 05 10 00 80 01 69  04 02 04 00 23 80 80 F9  .......i....#...
03F0: 03 03 05 10 00 80 01 69  04 02 04 00 24 80 80 09  .......i....$...
0400: 04 03 05 10 00 80 01 69  04 02 04 00 25 80 80 19  .......i....%...
0410: 04 03 05 10 00 80 01 69  04 02 04 00 26 80 80 29  .......i....&..)
0420: 04 03 05 10 00 80 01 69  04 02 04 00 27 80 80 39  .......i....'..9
0430: 04 03 05 10 00 80 01 69  04 02 04 00 28 80 80 49  .......i....(..I
0440: 04 03 05 10 00 80 01 69  04 02 04 00 29 80 80 59  .......i....)..Y
0450: 04 03 05 10 00 80 01 69  04 02 04 00 2A 80 80 69  .......i....*..i
0460: 04 03 05 10 00 80 01 69  04 48 2B 80 23 01 01 08  .......i.H+.#...
0470: 01 EA 07 02 02 10 0A 80  80 81 04 01 9F 01 01 EA  ................
0480: 07 02 02 10 09 80 80 EA  07 02 0D 00 00 80 01 1E  ................
0490: 05 02 13 00 00 80 01 D2  04 03 05 10 1A 00 02 1A  ................
04A0: 00 00 80 02 AF 04 03 04  10 0A 80 48 2C 80 23 02  ...........H,.#.
04B0: 0D 00 05 80 05 BE 04 48  2D 80 23 01 CF 04 03 06  .......H-.#.....
04C0: 10 0D 00 0C 06 10 03 07  10 0D 00 48 2E 80 23 01  ...........H..#.
04D0: 1E 05 03 05 10 1A 00 02  1A 00 00 80 02 FE 04 02  ................
04E0: 1A 00 2F 80 04 FA 04 3F  04 10 05 10 2F 80 15 05  ../....?..../...
04F0: 10 2F 80 48 30 80 23 01  FE 04 48 31 80 23 02 0D  ./.H0.#...H1.#..
0500: 00 05 80 05 0D 05 48 2D  80 23 01 1E 05 03 06 10  ......H-.#......
0510: 0D 00 0C 06 10 03 07 10  0D 00 48 2E 80 23 03 03  ..........H..#..
0520: 00 04 00 03 14 00 32 80  07 14 00 03 00 02 02 00  ......2.........
0530: 14 00 00 3D 05 03 02 00  05 80 01 42 05 03 02 00  ...=.......B....
0540: 00 80 02 02 00 00 80 00  68 05 02 0E 00 05 80 00  ........h.......
0550: 68 05 24 33 80 05 80 00  80 25 02 00 10 00 80 00  h.$3.....%......
0560: 68 05 05 02 00 01 68 05  06 15 00 02 04 00 00 80  h.....h.........
0570: 80 7B 05 03 15 00 00 80  01 60 07 02 04 00 05 80  .{.......`......
0580: 80 8B 05 03 15 00 00 80  01 60 07 02 04 00 09 80  .........`......
0590: 80 9B 05 03 15 00 00 80  01 60 07 02 04 00 0A 80  .........`......
05A0: 80 AB 05 03 15 00 00 80  01 60 07 02 04 00 0B 80  .........`......
05B0: 80 BB 05 03 15 00 00 80  01 60 07 02 04 00 08 80  .........`......
05C0: 80 CB 05 03 15 00 00 80  01 60 07 02 04 00 18 80  .........`......
05D0: 80 DB 05 03 15 00 00 80  01 60 07 02 04 00 1A 80  .........`......
05E0: 80 EB 05 03 15 00 00 80  01 60 07 02 04 00 10 80  .........`......
05F0: 80 FB 05 03 15 00 00 80  01 60 07 02 04 00 11 80  .........`......
0600: 80 0B 06 03 15 00 00 80  01 60 07 02 04 00 1B 80  .........`......
0610: 80 1B 06 03 15 00 00 80  01 60 07 02 04 00 12 80  .........`......
0620: 80 2B 06 03 15 00 00 80  01 60 07 02 04 00 1C 80  .+.......`......
0630: 80 3B 06 03 15 00 00 80  01 60 07 02 04 00 1D 80  .;.......`......
0640: 80 4B 06 03 15 00 00 80  01 60 07 02 04 00 1E 80  .K.......`......
0650: 80 5B 06 03 15 00 00 80  01 60 07 02 04 00 01 80  .[.......`......
0660: 80 6B 06 03 15 00 00 80  01 60 07 02 04 00 02 80  .k.......`......
0670: 80 7B 06 03 15 00 00 80  01 60 07 02 04 00 1F 80  .{.......`......
0680: 80 8B 06 03 15 00 00 80  01 60 07 02 04 00 19 80  .........`......
0690: 80 9B 06 03 15 00 00 80  01 60 07 02 04 00 0F 80  .........`......
06A0: 80 AB 06 03 15 00 00 80  01 60 07 02 04 00 20 80  .........`.... .
06B0: 80 BB 06 03 15 00 00 80  01 60 07 02 04 00 21 80  .........`....!.
06C0: 80 CB 06 03 15 00 00 80  01 60 07 02 04 00 22 80  .........`....".
06D0: 80 DB 06 03 15 00 00 80  01 60 07 02 04 00 23 80  .........`....#.
06E0: 80 EB 06 03 15 00 00 80  01 60 07 02 04 00 24 80  .........`....$.
06F0: 80 FB 06 03 15 00 00 80  01 60 07 02 04 00 25 80  .........`....%.
0700: 80 0B 07 03 15 00 00 80  01 60 07 02 04 00 26 80  .........`....&.
0710: 80 1B 07 03 15 00 00 80  01 60 07 02 04 00 27 80  .........`....'.
0720: 80 2B 07 03 15 00 00 80  01 60 07 02 04 00 28 80  .+.......`....(.
0730: 80 3B 07 03 15 00 00 80  01 60 07 02 04 00 29 80  .;.......`....).
0740: 80 4B 07 03 15 00 00 80  01 60 07 02 04 00 2A 80  .K.......`....*.
0750: 80 5B 07 03 15 00 00 80  01 60 07 03 15 00 00 80  .[.......`......
0760: 02 02 00 05 80 00 7B 07  5C 00 34 80 5C 01 34 80  ......{.\.4.\.4.
0770: 5C 02 34 80 5C 03 34 80  01 93 07 02 15 00 00 80  \.4.\.4.........
0780: 00 93 07 5C 00 34 80 5C  01 34 80 5C 02 34 80 5C  ...\.4.\.4.\.4.\
0790: 03 34 80 02 02 00 00 80  00 A1 07 1A E0 10 01 DA  .4..............
07A0: 07 6C F0 FF FF 7F 00 80  05 80 62 09 80 F0 FF FF  .l........b.....
07B0: 7F F0 FF FF 7F 6D 61 69  6E 00 80 45 0E 80 F0 FF  .....main..E....
07C0: FF 7F F0 FF FF 7F 6F 76  6C 31 00 80 46 02 12 00  ......ovl1..F...
07D0: 02 12 00 00 80 00 DA 07  46 00 03 01 10 32 80 07  ........F....2..
07E0: 01 10 03 00 01 01 08 01  EA 07 0B 00 00 02 00 80  ................
07F0: 05 80 00 FA 07 03 00 00  0B 80 01 A4 01 48 35 80  .............H5.
0800: 23 45 36 80 F0 FF FF 7F  F0 FF FF 7F 77 68 69 31  #E6.........whi1
0810: 00 80 45 0E 80 F0 FF FF  7F F0 FF FF 7F 62 6C 6F  ..E..........blo
0820: 66 00 80 45 0E 80 F0 FF  FF 7F F0 FF FF 7F 66 64  f..E..........fd
0830: 69 30 00 80 02 07 00 05  80 00 4C 08 5C 00 00 80  i0........L.\...
0840: 5C 01 00 80 5C 02 34 80  5C 03 34 80 21 00 02 03  \...\.4.\.4.!...
0850: 00 05 80 80 60 08 48 37  80 23 05 16 00 01 7A 08  ....`.H7.#....z.
0860: 02 03 00 09 80 80 7A 08  03 02 10 09 80 48 38 80  ......z......H8.
0870: 23 05 16 00 05 13 00 01  7A 08 1B                 #.......z..     
```

#### Opcodes

```
  0: 0x0002 [0x20] SET_CLI_EVENT_UC_FLAG: Lock player control
  1: 0x0004 [0x79] LocalPlayer looks at LocalPlayer (Basic look)
  2: 0x000E [0x03] ExtData[1]->WorkLocal[2] = Work_Zone[2]
  3: 0x0013 [0x03] ExtData[1]->WorkLocal[3] = Work_Zone[3]
  4: 0x0018 [0x03] ExtData[1]->WorkLocal[5] = Work_Zone[4]
  5: 0x001D [0x03] ExtData[1]->WorkLocal[6] = Work_Zone[5]
  6: 0x0022 [0x03] ExtData[1]->WorkLocal[15] = Work_Zone[6]
  7: 0x0027 [0x03] ExtData[1]->WorkLocal[16] = Work_Zone[7]
  8: 0x002C [0x03] ExtData[1]->WorkLocal[17] = Work_Zone[8]
  9: 0x0031 [0x41] ExtData[1]->WorkLocal[7] = Work_Zone[9] (bits 0*-15*)
 10: 0x003A [0x41] Work_Zone[6] = Work_Zone[9] (bits 16*-31*)
 11: 0x0043 [0x06] ExtData[1]->WorkLocal[1] = 0
 12: 0x0046 [0x02] IF !(ExtData[1]->WorkLocal[7] == 0*) GOTO 0x0145
 13: 0x004E [0x03] ExtData[1]->WorkLocal[8] = 4294967295*
 14: 0x0053 [0x0F] ExtData[1]->WorkLocal[8] ^= ExtData[1]->WorkLocal[6]
 15: 0x0058 [0x10] ExtData[1]->WorkLocal[8] <<= 1*
 16: 0x005D [0x24] CREATE_DIALOG(message_id=7625*, default_option=0*, option_flags=ExtData[1]->WorkLocal[8])
    → "Which battlefield will you enter? [None./Desires of Emptiness./Pulling the Plug./Empty Aspirations././././././././././././././././././././././././././././]"
 17: 0x0064 [0x25] WAIT_DIALOG_SELECT()
 18: 0x0065 [0x02] IF !(Work_Zone[0] == 0*) GOTO 0x0073
 19: 0x006D [0x01] GOTO 0x0834

SUBROUTINE_009F:
 20: 0x009F [0x3E] IF !(ExtData[1]->WorkLocal[16] bit ExtData[1]->WorkLocal[3]) GOTO 0x00A9
 21: 0x00A6 [0x01] GOTO 0x00B0
 22: 0x00A9 [0x3C] SET_BIT_FLAG_CONDITIONAL(target_work_offset=ExtData[1]->WorkLocal[8], bit_index_work_offset=1*, condition_work_offset=1*)

SUBROUTINE_00B0:
 23: 0x00B0 [0x1A] CALL_SUBROUTINE(address=0x20A0)
 24: 0x00B3 [0x24] CREATE_DIALOG(message_id=7434*, default_option=5*, option_flags=ExtData[1]->WorkLocal[8])
    → "Select difficulty. [Very difficult. (Level: ???)/Difficult. (Level: ???)/Normal. (Level: $18)/Easy. (Level: $17)/Very Easy. (Level: $16)/Leave.]"
 25: 0x00BA [0x25] WAIT_DIALOG_SELECT()
 26: 0x00BB [0x02] IF !(Work_Zone[0] == 0*) GOTO 0x00CB
 27: 0x00C3 [0x03] ExtData[1]->WorkLocal[15] = 1*
 28: 0x00C8 [0x01] GOTO 0x011E
 29: 0x00CB [0x02] IF !(Work_Zone[0] == 1*) GOTO 0x00DB
 30: 0x00D3 [0x03] ExtData[1]->WorkLocal[15] = 2*
 31: 0x00D8 [0x01] GOTO 0x011E
 32: 0x00DB [0x02] IF !(Work_Zone[0] == 2*) GOTO 0x00EB
 33: 0x00E3 [0x03] ExtData[1]->WorkLocal[15] = 3*
 34: 0x00E8 [0x01] GOTO 0x011E
 35: 0x00EB [0x02] IF !(Work_Zone[0] == 3*) GOTO 0x00FB
 36: 0x00F3 [0x03] ExtData[1]->WorkLocal[15] = 4*
 37: 0x00F8 [0x01] GOTO 0x011E
 38: 0x00FB [0x02] IF !(Work_Zone[0] == 4*) GOTO 0x010B
 39: 0x0103 [0x03] ExtData[1]->WorkLocal[15] = 5*
 40: 0x0108 [0x01] GOTO 0x011E
 41: 0x010B [0x02] IF !(Work_Zone[0] == 5*) GOTO 0x0119
 42: 0x0113 [0x01] GOTO 0x0834

SUBROUTINE_011E:
 43: 0x011E [0x01] GOTO 0x0145
 44: 0x0121 [0x06] ExtData[1]->WorkLocal[15] = 0
 45: 0x0124 [0x1A] CALL_SUBROUTINE(address=0x084E)
 46: 0x0127 [0x02] IF !(ExtData[1]->WorkLocal[22] == 1*) GOTO 0x0145
 47: 0x012F [0x24] CREATE_DIALOG(message_id=7068*, default_option=1*, option_flags=0*)
    → "Enter the battlefield? [Enter./Decline.]"
 48: 0x0136 [0x25] WAIT_DIALOG_SELECT()
 49: 0x0137 [0x02] IF !(Work_Zone[0] == 1*) GOTO 0x0145
 50: 0x013F [0x01] GOTO 0x0834

SUBROUTINE_0145:
 51: 0x0145 [0x42] SET_CLI_EVENT_CANCEL_DATA()
 52: 0x0146 [0x03] Work_Zone[1] = 255*
 53: 0x014B [0x43] SEND_EVENT_UPDATE: Send pending tag to server (packet 0x005B)
 54: 0x014D [0x43] SEND_EVENT_UPDATE: Check pending flag (skip if not pending)
 55: 0x014F [0x06] Work_Zone[1] = 0
 56: 0x0152 [0x45] LOAD_SCHEDULED_TASK: Load scheduler "fdo1" with entities [LocalPlayer, LocalPlayer], work=[200*, 0*]
 57: 0x0163 [0x55] WAIT_LOAD_SCHEDULER: Wait for scheduler "fdo1" with entities [LocalPlayer, LocalPlayer], work=200*
 58: 0x0172 [0x3B] GET_ENTITY_POSITION(entity=LocalPlayer, x_destination=Work_Zone[32], y_destination=Work_Zone[33], z_destination=Work_Zone[34])
 59: 0x017D [0x38] SET_CLIENT_EVENT_MODE(mode=19*)
 60: 0x0180 [0x02] IF !(ExtData[1]->WorkLocal[7] == 1*) GOTO 0x019F
 61: 0x0188 [0x03] ExtData[1]->WorkLocal[0] = 1*
 62: 0x018D [0x03] ExtData[1]->WorkLocal[4] = ExtData[1]->WorkLocal[3]
 63: 0x0192 [0x03] ExtData[1]->WorkLocal[2] = 0*
 64: 0x0197 [0x03] ExtData[1]->WorkLocal[28] = 0*
 65: 0x019C [0x01] GOTO 0x0568

SUBROUTINE_019F:
 66: 0x019F [0x03] ExtData[1]->WorkLocal[0] = 1*

SUBROUTINE_01A4:
 67: 0x01A4 [0x02] IF !(ExtData[1]->WorkLocal[0] > 3*) GOTO 0x07FD
 68: 0x01AC [0x02] IF !(0* == 1*) GOTO 0x01B9
 69: 0x01B4 [0x03] ExtData[1]->WorkLocal[0] = ExtData[1]->WorkLocal[5]
 70: 0x01B9 [0x40] SET_BIT_WORK_RANGE(start_bit=0*, end_bit=3*, target=Work_Zone[1], source=ExtData[1]->WorkLocal[0])
 71: 0x01C2 [0x40] SET_BIT_WORK_RANGE(start_bit=4*, end_bit=8*, target=Work_Zone[1], source=ExtData[1]->WorkLocal[3])
 72: 0x01CB [0x40] SET_BIT_WORK_RANGE(start_bit=9*, end_bit=11*, target=Work_Zone[1], source=ExtData[1]->WorkLocal[15])
 73: 0x01D4 [0x06] Work_Zone[2] = 0
 74: 0x01D7 [0x06] Work_Zone[3] = 0
 75: 0x01DA [0x06] Work_Zone[4] = 0
 76: 0x01DD [0x1A] CALL_SUBROUTINE(address=0x233D)
 77: 0x01E0 [0x47] UPDATE_PLAYER_POS(ExtData[1]->WorkLocal[9], ExtData[1]->WorkLocal[10], ExtData[1]->WorkLocal[11], yaw=ExtData[1]->WorkLocal[12])
 78: 0x01EA [0x47] WAIT_PLAYER_POS_UPDATE
 79: 0x01EC [0x03] ExtData[1]->WorkLocal[4] = Work_Zone[3]
 80: 0x01F1 [0x03] ExtData[1]->WorkLocal[2] = Work_Zone[4]
 81: 0x01F6 [0x03] ExtData[1]->WorkLocal[26] = Work_Zone[5]
 82: 0x01FB [0x03] ExtData[1]->WorkLocal[13] = Work_Zone[6]
 83: 0x0200 [0x03] ExtData[1]->WorkLocal[14] = Work_Zone[7]
 84: 0x0205 [0x03] ExtData[1]->WorkLocal[28] = Work_Zone[9]
 85: 0x020A [0x02] IF !(Work_Zone[2] == 1*) GOTO 0x0215
 86: 0x0212 [0x01] GOTO 0x07EA
 87: 0x0215 [0x02] IF !(Work_Zone[2] == 4*) GOTO 0x025F
 88: 0x021D [0x02] IF !(ExtData[1]->WorkLocal[0] == 1*) GOTO 0x022C
 89: 0x0225 [0x48] [System] [7079*]:
    → "You are cleared to enter the battlefield, but you cannot while party members are engaged in combat."
 90: 0x0228 [0x23] WAIT_FOR_DIALOG_INTERACTION
 91: 0x0229 [0x01] GOTO 0x0259
 92: 0x022C [0x02] IF !(ExtData[1]->WorkLocal[0] == 2*) GOTO 0x023B
 93: 0x0234 [0x48] [System] [7080*]:
    → "You are cleared to enter the battlefield, but you cannot while party members are engaged in combat."
 94: 0x0237 [0x23] WAIT_FOR_DIALOG_INTERACTION
 95: 0x0238 [0x01] GOTO 0x0259
 96: 0x023B [0x02] IF !(ExtData[1]->WorkLocal[0] == 3*) GOTO 0x024A
 97: 0x0243 [0x48] [System] [7081*]:
    → "You are cleared to enter the battlefield, but you cannot while party members are engaged in combat."
 98: 0x0246 [0x23] WAIT_FOR_DIALOG_INTERACTION
 99: 0x0247 [0x01] GOTO 0x0259
100: 0x024A [0x02] IF !(ExtData[1]->WorkLocal[0] == 4*) GOTO 0x0259
101: 0x0252 [0x48] [System] [7082*]:
    → "You are cleared to enter the battlefield, but you cannot while party members are engaged in combat."
102: 0x0255 [0x23] WAIT_FOR_DIALOG_INTERACTION
103: 0x0256 [0x01] GOTO 0x0259

SUBROUTINE_0259:
104: 0x0259 [0x01] GOTO 0x0801

SUBROUTINE_0469:
105: 0x0469 [0x48] [System] [7427*]:
    → "Only $3 [member/members] have clearance to enter the battlefield. This room has reached its maximum capacity."
106: 0x046C [0x23] WAIT_FOR_DIALOG_INTERACTION
107: 0x046D [0x01] GOTO 0x0801

SUBROUTINE_04CF:
108: 0x04CF [0x01] GOTO 0x051E
109: 0x04D2 [0x03] Work_Zone[5] = ExtData[1]->WorkLocal[26]
110: 0x04D7 [0x02] IF !(ExtData[1]->WorkLocal[26] <= 0*) GOTO 0x04FE
111: 0x04DF [0x02] IF !(ExtData[1]->WorkLocal[26] < 60*) GOTO 0x04FA
112: 0x04E7 [0x3F] Work_Zone[4] = Work_Zone[5] % 60*
113: 0x04EE [0x15] Work_Zone[5] /= 60*
114: 0x04F3 [0x48] [System] [7623*]:
    → "The current battlefield clear time record for "[Desires of Emptiness/Pulling the Plug/Empty Aspirations]" is $3 minute[/s] $2 second[/s]."
115: 0x04F6 [0x23] WAIT_FOR_DIALOG_INTERACTION
116: 0x04F7 [0x01] GOTO 0x04FE
117: 0x04FA [0x48] [System] [7622*]:
    → "The current battlefield clear time record for "[Desires of Emptiness/Pulling the Plug/Empty Aspirations]" is $3 second[/s]."
118: 0x04FD [0x23] WAIT_FOR_DIALOG_INTERACTION

SUBROUTINE_04FE:
119: 0x04FE [0x02] IF !(ExtData[1]->WorkLocal[13] > 1*) GOTO 0x050D
120: 0x0506 [0x48] [System] [7432*]:
    → "That record is held by %0!"
121: 0x0509 [0x23] WAIT_FOR_DIALOG_INTERACTION
122: 0x050A [0x01] GOTO 0x051E
123: 0x050D [0x03] Work_Zone[6] = ExtData[1]->WorkLocal[13]
124: 0x0512 [0x0C] Work_Zone[6]--
125: 0x0515 [0x03] Work_Zone[7] = ExtData[1]->WorkLocal[13]
126: 0x051A [0x48] [System] [7431*]:
    → "That record is held by $5 adventurers, including %0!"
127: 0x051D [0x23] WAIT_FOR_DIALOG_INTERACTION

SUBROUTINE_051E:
128: 0x051E [0x03] ExtData[1]->WorkLocal[3] = ExtData[1]->WorkLocal[4]
129: 0x0523 [0x03] ExtData[1]->WorkLocal[20] = 100*
130: 0x0528 [0x07] ExtData[1]->WorkLocal[20] += ExtData[1]->WorkLocal[3]
131: 0x052D [0x02] IF !(ExtData[1]->WorkLocal[2] == ExtData[1]->WorkLocal[20]) GOTO 0x053D
132: 0x0535 [0x03] ExtData[1]->WorkLocal[2] = 1*
133: 0x053A [0x01] GOTO 0x0542
134: 0x053D [0x03] ExtData[1]->WorkLocal[2] = 0*

SUBROUTINE_0542:
135: 0x0542 [0x02] IF !(ExtData[1]->WorkLocal[2] == 0*) GOTO 0x0568
136: 0x054A [0x02] IF !(ExtData[1]->WorkLocal[14] == 1*) GOTO 0x0568
137: 0x0552 [0x24] CREATE_DIALOG(message_id=7407*, default_option=1*, option_flags=0*)
    → "Skip the event? [Yes./No.]"
138: 0x0559 [0x25] WAIT_DIALOG_SELECT()
139: 0x055A [0x02] IF !(Work_Zone[0] == 0*) GOTO 0x0568
140: 0x0562 [0x05] ExtData[1]->WorkLocal[2] = 1
141: 0x0565 [0x01] GOTO 0x0568

SUBROUTINE_0568:
142: 0x0568 [0x06] ExtData[1]->WorkLocal[21] = 0
143: 0x056B [0x02] IF !(ExtData[1]->WorkLocal[4] == 0*) GOTO 0x057B
144: 0x0573 [0x03] ExtData[1]->WorkLocal[21] = 0*
145: 0x0578 [0x01] GOTO 0x0760
146: 0x057B [0x02] IF !(ExtData[1]->WorkLocal[4] == 1*) GOTO 0x058B
147: 0x0583 [0x03] ExtData[1]->WorkLocal[21] = 0*
148: 0x0588 [0x01] GOTO 0x0760
149: 0x058B [0x02] IF !(ExtData[1]->WorkLocal[4] == 2*) GOTO 0x059B
150: 0x0593 [0x03] ExtData[1]->WorkLocal[21] = 0*
151: 0x0598 [0x01] GOTO 0x0760
152: 0x059B [0x02] IF !(ExtData[1]->WorkLocal[4] == 3*) GOTO 0x05AB
153: 0x05A3 [0x03] ExtData[1]->WorkLocal[21] = 0*
154: 0x05A8 [0x01] GOTO 0x0760
155: 0x05AB [0x02] IF !(ExtData[1]->WorkLocal[4] == 4*) GOTO 0x05BB
156: 0x05B3 [0x03] ExtData[1]->WorkLocal[21] = 0*
157: 0x05B8 [0x01] GOTO 0x0760
158: 0x05BB [0x02] IF !(ExtData[1]->WorkLocal[4] == 5*) GOTO 0x05CB
159: 0x05C3 [0x03] ExtData[1]->WorkLocal[21] = 0*
160: 0x05C8 [0x01] GOTO 0x0760
161: 0x05CB [0x02] IF !(ExtData[1]->WorkLocal[4] == 6*) GOTO 0x05DB
162: 0x05D3 [0x03] ExtData[1]->WorkLocal[21] = 0*
163: 0x05D8 [0x01] GOTO 0x0760
164: 0x05DB [0x02] IF !(ExtData[1]->WorkLocal[4] == 7*) GOTO 0x05EB
165: 0x05E3 [0x03] ExtData[1]->WorkLocal[21] = 0*
166: 0x05E8 [0x01] GOTO 0x0760
167: 0x05EB [0x02] IF !(ExtData[1]->WorkLocal[4] == 8*) GOTO 0x05FB
168: 0x05F3 [0x03] ExtData[1]->WorkLocal[21] = 0*
169: 0x05F8 [0x01] GOTO 0x0760
170: 0x05FB [0x02] IF !(ExtData[1]->WorkLocal[4] == 9*) GOTO 0x060B
171: 0x0603 [0x03] ExtData[1]->WorkLocal[21] = 0*
172: 0x0608 [0x01] GOTO 0x0760
173: 0x060B [0x02] IF !(ExtData[1]->WorkLocal[4] == 10*) GOTO 0x061B
174: 0x0613 [0x03] ExtData[1]->WorkLocal[21] = 0*
175: 0x0618 [0x01] GOTO 0x0760
176: 0x061B [0x02] IF !(ExtData[1]->WorkLocal[4] == 11*) GOTO 0x062B
177: 0x0623 [0x03] ExtData[1]->WorkLocal[21] = 0*
178: 0x0628 [0x01] GOTO 0x0760
179: 0x062B [0x02] IF !(ExtData[1]->WorkLocal[4] == 12*) GOTO 0x063B
180: 0x0633 [0x03] ExtData[1]->WorkLocal[21] = 0*
181: 0x0638 [0x01] GOTO 0x0760
182: 0x063B [0x02] IF !(ExtData[1]->WorkLocal[4] == 13*) GOTO 0x064B
183: 0x0643 [0x03] ExtData[1]->WorkLocal[21] = 0*
184: 0x0648 [0x01] GOTO 0x0760
185: 0x064B [0x02] IF !(ExtData[1]->WorkLocal[4] == 14*) GOTO 0x065B
186: 0x0653 [0x03] ExtData[1]->WorkLocal[21] = 0*
187: 0x0658 [0x01] GOTO 0x0760
188: 0x065B [0x02] IF !(ExtData[1]->WorkLocal[4] == 15*) GOTO 0x066B
189: 0x0663 [0x03] ExtData[1]->WorkLocal[21] = 0*
190: 0x0668 [0x01] GOTO 0x0760
191: 0x066B [0x02] IF !(ExtData[1]->WorkLocal[4] == 16*) GOTO 0x067B
192: 0x0673 [0x03] ExtData[1]->WorkLocal[21] = 0*
193: 0x0678 [0x01] GOTO 0x0760
194: 0x067B [0x02] IF !(ExtData[1]->WorkLocal[4] == 17*) GOTO 0x068B
195: 0x0683 [0x03] ExtData[1]->WorkLocal[21] = 0*
196: 0x0688 [0x01] GOTO 0x0760
197: 0x068B [0x02] IF !(ExtData[1]->WorkLocal[4] == 18*) GOTO 0x069B
198: 0x0693 [0x03] ExtData[1]->WorkLocal[21] = 0*
199: 0x0698 [0x01] GOTO 0x0760
200: 0x069B [0x02] IF !(ExtData[1]->WorkLocal[4] == 19*) GOTO 0x06AB
201: 0x06A3 [0x03] ExtData[1]->WorkLocal[21] = 0*
202: 0x06A8 [0x01] GOTO 0x0760
203: 0x06AB [0x02] IF !(ExtData[1]->WorkLocal[4] == 20*) GOTO 0x06BB
204: 0x06B3 [0x03] ExtData[1]->WorkLocal[21] = 0*
205: 0x06B8 [0x01] GOTO 0x0760
206: 0x06BB [0x02] IF !(ExtData[1]->WorkLocal[4] == 21*) GOTO 0x06CB
207: 0x06C3 [0x03] ExtData[1]->WorkLocal[21] = 0*
208: 0x06C8 [0x01] GOTO 0x0760
209: 0x06CB [0x02] IF !(ExtData[1]->WorkLocal[4] == 22*) GOTO 0x06DB
210: 0x06D3 [0x03] ExtData[1]->WorkLocal[21] = 0*
211: 0x06D8 [0x01] GOTO 0x0760
212: 0x06DB [0x02] IF !(ExtData[1]->WorkLocal[4] == 23*) GOTO 0x06EB
213: 0x06E3 [0x03] ExtData[1]->WorkLocal[21] = 0*
214: 0x06E8 [0x01] GOTO 0x0760
215: 0x06EB [0x02] IF !(ExtData[1]->WorkLocal[4] == 24*) GOTO 0x06FB
216: 0x06F3 [0x03] ExtData[1]->WorkLocal[21] = 0*
217: 0x06F8 [0x01] GOTO 0x0760
218: 0x06FB [0x02] IF !(ExtData[1]->WorkLocal[4] == 25*) GOTO 0x070B
219: 0x0703 [0x03] ExtData[1]->WorkLocal[21] = 0*
220: 0x0708 [0x01] GOTO 0x0760
221: 0x070B [0x02] IF !(ExtData[1]->WorkLocal[4] == 26*) GOTO 0x071B
222: 0x0713 [0x03] ExtData[1]->WorkLocal[21] = 0*
223: 0x0718 [0x01] GOTO 0x0760
224: 0x071B [0x02] IF !(ExtData[1]->WorkLocal[4] == 27*) GOTO 0x072B
225: 0x0723 [0x03] ExtData[1]->WorkLocal[21] = 0*
226: 0x0728 [0x01] GOTO 0x0760
227: 0x072B [0x02] IF !(ExtData[1]->WorkLocal[4] == 28*) GOTO 0x073B
228: 0x0733 [0x03] ExtData[1]->WorkLocal[21] = 0*
229: 0x0738 [0x01] GOTO 0x0760
230: 0x073B [0x02] IF !(ExtData[1]->WorkLocal[4] == 29*) GOTO 0x074B
231: 0x0743 [0x03] ExtData[1]->WorkLocal[21] = 0*
232: 0x0748 [0x01] GOTO 0x0760
233: 0x074B [0x02] IF !(ExtData[1]->WorkLocal[4] == 30*) GOTO 0x075B
234: 0x0753 [0x03] ExtData[1]->WorkLocal[21] = 0*
235: 0x0758 [0x01] GOTO 0x0760
236: 0x075B [0x03] ExtData[1]->WorkLocal[21] = 0*

SUBROUTINE_0760:
237: 0x0760 [0x02] IF !(ExtData[1]->WorkLocal[2] == 1*) GOTO 0x077B
238: 0x0768 [0x5C] MUSIC_CONTROL: Set Idle (Day) music to song 220*
239: 0x076C [0x5C] MUSIC_CONTROL: Set Idle (Night) music to song 220*
240: 0x0770 [0x5C] MUSIC_CONTROL: Set Combat (Solo) music to song 220*
241: 0x0774 [0x5C] MUSIC_CONTROL: Set Combat (Party) music to song 220*
242: 0x0778 [0x01] GOTO 0x0793
243: 0x077B [0x02] IF !(ExtData[1]->WorkLocal[21] == 0*) GOTO 0x0793
244: 0x0783 [0x5C] MUSIC_CONTROL: Set Idle (Day) music to song 220*
245: 0x0787 [0x5C] MUSIC_CONTROL: Set Idle (Night) music to song 220*
246: 0x078B [0x5C] MUSIC_CONTROL: Set Combat (Solo) music to song 220*
247: 0x078F [0x5C] MUSIC_CONTROL: Set Combat (Party) music to song 220*

SUBROUTINE_0793:
248: 0x0793 [0x02] IF !(ExtData[1]->WorkLocal[2] == 0*) GOTO 0x07A1
249: 0x079B [0x1A] CALL_SUBROUTINE(address=0x10E0)
250: 0x079E [0x01] GOTO 0x07DA
251: 0x07A1 [0x6C] FADE_ENTITY_COLOR(entity_id=LocalPlayer, end_alpha=0*, fade_time=1*)
252: 0x07AA [0x62] LOAD_EVENT_SCHEDULER: Load scheduler "main" with entities [LocalPlayer, LocalPlayer], work=[2*, 0*]
253: 0x07BB [0x45] LOAD_SCHEDULED_TASK: Load scheduler "ovl1" with entities [LocalPlayer, LocalPlayer], work=[200*, 0*]
254: 0x07CC [0x46] CAMERA_CONTROL: Query status
255: 0x07CE [0x12] 0x0200 = rand()
256: 0x07D1 [0x12] ExtData[1]->WorkLocal[0] = rand()
257: 0x07D4 [0x80] LOAD_WAIT(entity=Unknown NPC (ID: 1174919680/0x4607DA00))
258: 0x07D9 [0x00] END_REQSTACK()

SUBROUTINE_07DA:
259: 0x07DA [0x03] Work_Zone[1] = 100*
260: 0x07DF [0x07] Work_Zone[1] += ExtData[1]->WorkLocal[3]
261: 0x07E4 [0x01] GOTO 0x0801

SUBROUTINE_07EA:
262: 0x07EA [0x0B] ExtData[1]->WorkLocal[0]++
263: 0x07ED [0x02] IF !(0* == 1*) GOTO 0x07FA
264: 0x07F5 [0x03] ExtData[1]->WorkLocal[0] = 4*
265: 0x07FA [0x01] GOTO 0x01A4
266: 0x07FD [0x48] [System] [7071*]:
    → "You cannot enter the battlefield at present. Please wait a little longer."
267: 0x0800 [0x23] WAIT_FOR_DIALOG_INTERACTION

SUBROUTINE_0801:
268: 0x0801 [0x45] LOAD_SCHEDULED_TASK: Load scheduler "whi1" with entities [LocalPlayer, LocalPlayer], work=[201*, 0*]
269: 0x0812 [0x45] LOAD_SCHEDULED_TASK: Load scheduler "blof" with entities [LocalPlayer, LocalPlayer], work=[200*, 0*]
270: 0x0823 [0x45] LOAD_SCHEDULED_TASK: Load scheduler "fdi0" with entities [LocalPlayer, LocalPlayer], work=[200*, 0*]

SUBROUTINE_0834:
271: 0x0834 [0x02] IF !(ExtData[1]->WorkLocal[7] == 1*) GOTO 0x084C
272: 0x083C [0x5C] MUSIC_CONTROL: Set Idle (Day) music to song 0*
273: 0x0840 [0x5C] MUSIC_CONTROL: Set Idle (Night) music to song 0*
274: 0x0844 [0x5C] MUSIC_CONTROL: Set Combat (Solo) music to song 220*
275: 0x0848 [0x5C] MUSIC_CONTROL: Set Combat (Party) music to song 220*
276: 0x084C [0x21] END_EVENT
277: 0x084D [0x00] END_REQSTACK()

SUBROUTINE_084E:
278: 0x084E [0x02] IF !(ExtData[1]->WorkLocal[3] == 1*) GOTO 0x0860
279: 0x0856 [0x48] [System] [7626*]:
    → "Level limit of 50. The experience point reward for this battlefield will be reduced for parties of seven or more members."
280: 0x0859 [0x23] WAIT_FOR_DIALOG_INTERACTION
281: 0x085A [0x05] ExtData[1]->WorkLocal[22] = 1
282: 0x085D [0x01] GOTO 0x087A
283: 0x0860 [0x02] IF !(ExtData[1]->WorkLocal[3] == 2*) GOTO 0x087A
284: 0x0868 [0x03] Work_Zone[2] = 2*
285: 0x086D [0x48] [System] [7716*]:
    → "You will be rewarded upon completion with as many as $0 [item/items]. Sort your inventory in advance to ensure that you can claim your reward."
286: 0x0870 [0x23] WAIT_FOR_DIALOG_INTERACTION
287: 0x0871 [0x05] ExtData[1]->WorkLocal[22] = 1
288: 0x0874 [0x05] ExtData[1]->WorkLocal[19] = 1
289: 0x0877 [0x01] GOTO 0x087A

SUBROUTINE_087A:
290: 0x087A [0x1B] RETURN
```

#### Data or dead code:

```
# Dead code (unreachable instructions):
     0x0070 [0x01] GOTO 0x0145
# Dead code (unreachable instructions):
     0x0116 [0x01] GOTO 0x011E
# Dead code (unreachable instructions):
     0x0142 [0x01] GOTO 0x0145
# Dead code (unreachable instructions):
     0x025C [0x01] GOTO 0x07EA
     0x026E [0x01] GOTO 0x07EA
# Dead code (unreachable instructions):
     0x0470 [0x01] GOTO 0x07EA
     0x047E [0x01] GOTO 0x07EA
# Dead code (unreachable instructions):
     0x07E7 [0x01] GOTO 0x07EA
```

### Event 32002

#### Metadata

| Field        | Value     |
|--------------|-----------|
| Entrypoint   | 0x087B    |
| Data Size    | 494 bytes |
| Instructions | 83        |

```
      00 01 02 03 04 05 06 07  08 09 0A 0B 0C 0D 0E 0F
      -- -- -- -- -- -- -- --  -- -- -- -- -- -- -- --
0870:                                   03 05 00 06 10             .....
0880: 03 21 00 07 10 03 20 00  08 10 20 01 42 3B F0 FF  .!.... ... .B;..
0890: FF 7F 20 10 21 10 22 10  3A F0 FF FF 7F 23 10 45  .. .!.".:....#.E
08A0: 0E 80 F0 FF FF 7F F0 FF  FF 7F 66 64 6F 31 00 80  ..........fdo1..
08B0: 55 0E 80 F0 FF FF 7F F0  FF FF 7F 66 64 6F 31 02  U..........fdo1.
08C0: 00 80 05 80 00 26 09 02  05 00 05 80 80 DE 08 47  .....&.........G
08D0: 00 00 80 00 80 00 80 00  80 47 01 01 23 09 02 05  .........G..#...
08E0: 00 09 80 80 F5 08 47 00  00 80 00 80 00 80 00 80  ......G.........
08F0: 47 01 01 23 09 02 05 00  0A 80 80 0C 09 47 00 00  G..#.........G..
0900: 80 00 80 00 80 00 80 47  01 01 23 09 02 05 00 0B  .......G..#.....
0910: 80 80 23 09 47 00 00 80  00 80 00 80 00 80 47 01  ..#.G.........G.
0920: 01 23 09 01 2F 0A 02 20  00 39 80 80 B0 09 02 21  .#../.. .9.....!
0930: 00 00 80 80 45 09 47 00  3A 80 3B 80 3C 80 3D 80  ....E.G.:.;.<.=.
0940: 47 01 01 AD 09 02 21 00  05 80 80 5C 09 47 00 3E  G.....!....\.G.>
0950: 80 3F 80 40 80 41 80 47  01 01 AD 09 02 21 00 09  .?.@.A.G.....!..
0960: 80 80 73 09 47 00 42 80  43 80 44 80 45 80 47 01  ..s.G.B.C.D.E.G.
0970: 01 AD 09 02 21 00 0A 80  80 8A 09 47 00 46 80 47  ....!......G.F.G
0980: 80 48 80 49 80 47 01 01  AD 09 02 21 00 0B 80 80  .H.I.G.....!....
0990: A1 09 47 00 4A 80 4B 80  4C 80 4D 80 47 01 01 AD  ..G.J.K.L.M.G...
09A0: 09 47 00 4E 80 4F 80 50  80 51 80 47 01 01 2F 0A  .G.N.O.P.Q.G../.
09B0: 02 20 00 18 80 80 23 0A  02 21 00 05 80 80 CF 09  . ....#..!......
09C0: 47 00 52 80 53 80 54 80  55 80 47 01 01 20 0A 02  G.R.S.T.U.G.. ..
09D0: 21 00 09 80 80 E6 09 47  00 56 80 57 80 58 80 59  !......G.V.W.X.Y
09E0: 80 47 01 01 20 0A 02 21  00 0A 80 80 FD 09 47 00  .G.. ..!......G.
09F0: 5A 80 5B 80 5C 80 5D 80  47 01 01 20 0A 02 21 00  Z.[.\.].G.. ..!.
0A00: 0B 80 80 14 0A 47 00 5E  80 5F 80 60 80 61 80 47  .....G.^._.`.a.G
0A10: 01 01 20 0A 47 00 4E 80  4F 80 50 80 51 80 47 01  .. .G.N.O.P.Q.G.
0A20: 01 2F 0A 47 00 4E 80 4F  80 50 80 51 80 47 01 38  ./.G.N.O.P.Q.G.8
0A30: 0F 80 1A 5C 20 45 36 80  F0 FF FF 7F F0 FF FF 7F  ...\ E6.........
0A40: 77 68 69 31 00 80 45 0E  80 F0 FF FF 7F F0 FF FF  whi1..E.........
0A50: 7F 62 6C 6F 66 00 80 5C  00 00 80 5C 01 00 80 5C  .blof..\...\...\
0A60: 02 34 80 5C 03 34 80 21  00                       .4.\.4.!.       
```

#### Opcodes

```
  0: 0x087B [0x03] ExtData[1]->WorkLocal[5] = Work_Zone[6]
  1: 0x0880 [0x03] ExtData[1]->WorkLocal[33] = Work_Zone[7]
  2: 0x0885 [0x03] ExtData[1]->WorkLocal[32] = Work_Zone[8]
  3: 0x088A [0x20] SET_CLI_EVENT_UC_FLAG: Lock player control
  4: 0x088C [0x42] SET_CLI_EVENT_CANCEL_DATA()
  5: 0x088D [0x3B] GET_ENTITY_POSITION(entity=LocalPlayer, x_destination=Work_Zone[32], y_destination=Work_Zone[33], z_destination=Work_Zone[34])
  6: 0x0898 [0x3A] CONVERT_YAW_TO_BYTE(entity=LocalPlayer, result_destination=Work_Zone[35])
  7: 0x089F [0x45] LOAD_SCHEDULED_TASK: Load scheduler "fdo1" with entities [LocalPlayer, LocalPlayer], work=[200*, 0*]
  8: 0x08B0 [0x55] WAIT_LOAD_SCHEDULER: Wait for scheduler "fdo1" with entities [LocalPlayer, LocalPlayer], work=200*
  9: 0x08BF [0x02] IF !(0* == 1*) GOTO 0x0926
 10: 0x08C7 [0x02] IF !(ExtData[1]->WorkLocal[5] == 1*) GOTO 0x08DE
 11: 0x08CF [0x47] UPDATE_PLAYER_POS(0.000*, 0.000*, 0.000*, yaw=0.0°*)
 12: 0x08D9 [0x47] WAIT_PLAYER_POS_UPDATE
 13: 0x08DB [0x01] GOTO 0x0923
 14: 0x08DE [0x02] IF !(ExtData[1]->WorkLocal[5] == 2*) GOTO 0x08F5
 15: 0x08E6 [0x47] UPDATE_PLAYER_POS(0.000*, 0.000*, 0.000*, yaw=0.0°*)
 16: 0x08F0 [0x47] WAIT_PLAYER_POS_UPDATE
 17: 0x08F2 [0x01] GOTO 0x0923
 18: 0x08F5 [0x02] IF !(ExtData[1]->WorkLocal[5] == 3*) GOTO 0x090C
 19: 0x08FD [0x47] UPDATE_PLAYER_POS(0.000*, 0.000*, 0.000*, yaw=0.0°*)
 20: 0x0907 [0x47] WAIT_PLAYER_POS_UPDATE
 21: 0x0909 [0x01] GOTO 0x0923
 22: 0x090C [0x02] IF !(ExtData[1]->WorkLocal[5] == 4*) GOTO 0x0923
 23: 0x0914 [0x47] UPDATE_PLAYER_POS(0.000*, 0.000*, 0.000*, yaw=0.0°*)
 24: 0x091E [0x47] WAIT_PLAYER_POS_UPDATE
 25: 0x0920 [0x01] GOTO 0x0923

SUBROUTINE_0923:
 26: 0x0923 [0x01] GOTO 0x0A2F
 27: 0x0926 [0x02] IF !(ExtData[1]->WorkLocal[32] == 180*) GOTO 0x09B0
 28: 0x092E [0x02] IF !(ExtData[1]->WorkLocal[33] == 0*) GOTO 0x0945
 29: 0x0936 [0x47] UPDATE_PLAYER_POS(-605.141*, 479.929*, -22.681*, yaw=87.2°*)
 30: 0x0940 [0x47] WAIT_PLAYER_POS_UPDATE
 31: 0x0942 [0x01] GOTO 0x09AD
 32: 0x0945 [0x02] IF !(ExtData[1]->WorkLocal[33] == 1*) GOTO 0x095C
 33: 0x094D [0x47] UPDATE_PLAYER_POS(-262.589*, 377.857*, -137.313*, yaw=305.3°*)
 34: 0x0957 [0x47] WAIT_PLAYER_POS_UPDATE
 35: 0x0959 [0x01] GOTO 0x09AD
 36: 0x095C [0x02] IF !(ExtData[1]->WorkLocal[33] == 2*) GOTO 0x0973
 37: 0x0964 [0x47] UPDATE_PLAYER_POS(18.348*, 486.940*, -224.334*, yaw=17.1°*)
 38: 0x096E [0x47] WAIT_PLAYER_POS_UPDATE
 39: 0x0970 [0x01] GOTO 0x09AD
 40: 0x0973 [0x02] IF !(ExtData[1]->WorkLocal[33] == 3*) GOTO 0x098A
 41: 0x097B [0x47] UPDATE_PLAYER_POS(231.593*, 360.094*, -173.572*, yaw=160.8°*)
 42: 0x0985 [0x47] WAIT_PLAYER_POS_UPDATE
 43: 0x0987 [0x01] GOTO 0x09AD
 44: 0x098A [0x02] IF !(ExtData[1]->WorkLocal[33] == 4*) GOTO 0x09A1
 45: 0x0992 [0x47] UPDATE_PLAYER_POS(553.664*, 523.939*, -38.205*, yaw=233.9°*)
 46: 0x099C [0x47] WAIT_PLAYER_POS_UPDATE
 47: 0x099E [0x01] GOTO 0x09AD
 48: 0x09A1 [0x47] UPDATE_PLAYER_POS(-0.185*, 257.800*, -1.000*, yaw=270.0°*)
 49: 0x09AB [0x47] WAIT_PLAYER_POS_UPDATE

SUBROUTINE_09AD:
 50: 0x09AD [0x01] GOTO 0x0A2F
 51: 0x09B0 [0x02] IF !(ExtData[1]->WorkLocal[32] == 6*) GOTO 0x0A23
 52: 0x09B8 [0x02] IF !(ExtData[1]->WorkLocal[33] == 1*) GOTO 0x09CF
 53: 0x09C0 [0x47] UPDATE_PLAYER_POS(-875.117*, -43.892*, -48.084*, yaw=45.1°*)
 54: 0x09CA [0x47] WAIT_PLAYER_POS_UPDATE
 55: 0x09CC [0x01] GOTO 0x0A20
 56: 0x09CF [0x02] IF !(ExtData[1]->WorkLocal[33] == 2*) GOTO 0x09E6
 57: 0x09D7 [0x47] UPDATE_PLAYER_POS(-755.499*, 563.947*, -112.035*, yaw=313.5°*)
 58: 0x09E1 [0x47] WAIT_PLAYER_POS_UPDATE
 59: 0x09E3 [0x01] GOTO 0x0A20
 60: 0x09E6 [0x02] IF !(ExtData[1]->WorkLocal[33] == 3*) GOTO 0x09FD
 61: 0x09EE [0x47] UPDATE_PLAYER_POS(123.251*, 754.209*, -172.124*, yaw=38.7°*)
 62: 0x09F8 [0x47] WAIT_PLAYER_POS_UPDATE
 63: 0x09FA [0x01] GOTO 0x0A20
 64: 0x09FD [0x02] IF !(ExtData[1]->WorkLocal[33] == 4*) GOTO 0x0A14
 65: 0x0A05 [0x47] UPDATE_PLAYER_POS(-516.404*, -803.323*, 24.206*, yaw=38.4°*)
 66: 0x0A0F [0x47] WAIT_PLAYER_POS_UPDATE
 67: 0x0A11 [0x01] GOTO 0x0A20
 68: 0x0A14 [0x47] UPDATE_PLAYER_POS(-0.185*, 257.800*, -1.000*, yaw=270.0°*)
 69: 0x0A1E [0x47] WAIT_PLAYER_POS_UPDATE

SUBROUTINE_0A20:
 70: 0x0A20 [0x01] GOTO 0x0A2F
 71: 0x0A23 [0x47] UPDATE_PLAYER_POS(-0.185*, 257.800*, -1.000*, yaw=270.0°*)
 72: 0x0A2D [0x47] WAIT_PLAYER_POS_UPDATE

SUBROUTINE_0A2F:
 73: 0x0A2F [0x38] SET_CLIENT_EVENT_MODE(mode=19*)
 74: 0x0A32 [0x1A] CALL_SUBROUTINE(address=0x205C)
 75: 0x0A35 [0x45] LOAD_SCHEDULED_TASK: Load scheduler "whi1" with entities [LocalPlayer, LocalPlayer], work=[201*, 0*]
 76: 0x0A46 [0x45] LOAD_SCHEDULED_TASK: Load scheduler "blof" with entities [LocalPlayer, LocalPlayer], work=[200*, 0*]
 77: 0x0A57 [0x5C] MUSIC_CONTROL: Set Idle (Day) music to song 0*
 78: 0x0A5B [0x5C] MUSIC_CONTROL: Set Idle (Night) music to song 0*
 79: 0x0A5F [0x5C] MUSIC_CONTROL: Set Combat (Solo) music to song 220*
 80: 0x0A63 [0x5C] MUSIC_CONTROL: Set Combat (Party) music to song 220*
 81: 0x0A67 [0x21] END_EVENT
 82: 0x0A68 [0x00] END_REQSTACK()
```

### Event 32001

#### Metadata

| Field        | Value      |
|--------------|------------|
| Entrypoint   | 0x0A69     |
| Data Size    | 1195 bytes |
| Instructions | 216        |

```
      00 01 02 03 04 05 06 07  08 09 0A 0B 0C 0D 0E 0F
      -- -- -- -- -- -- -- --  -- -- -- -- -- -- -- --
0A60:                             79 00 F0 FF FF 7F F0           y......
0A70: FF FF 7F 03 21 00 02 10  03 1A 00 03 10 03 1B 00  ....!...........
0A80: 05 10 03 20 00 06 10 03  19 00 07 10 03 17 00 08  ... ............
0A90: 10 02 17 00 0A 80 04 9E  0A 03 17 00 00 80 03 1C  ................
0AA0: 00 09 10 20 01 42 3B F0  FF FF 7F 20 10 21 10 22  ... .B;.... .!."
0AB0: 10 3A F0 FF FF 7F 23 10  02 20 00 39 80 01 C3 0A  .:....#.. .9....
0AC0: 1C 62 80 45 36 80 F0 FF  FF 7F F0 FF FF 7F 77 68  .b.E6.........wh
0AD0: 69 31 00 80 45 0E 80 F0  FF FF 7F F0 FF FF 7F 62  i1..E..........b
0AE0: 6C 6F 66 00 80 45 0E 80  F0 FF FF 7F F0 FF FF 7F  lof..E..........
0AF0: 66 64 6F 31 00 80 55 0E  80 F0 FF FF 7F F0 FF FF  fdo1..U.........
0B00: 7F 66 64 6F 31 6C F0 FF  FF 7F 63 80 05 80 06 01  .fdo1l....c.....
0B10: 10 02 17 00 00 80 03 1C  0B 01 6A 0C 02 20 00 39  ..........j.. .9
0B20: 80 80 A6 0B 02 21 00 00  80 80 3B 0B 47 00 64 80  .....!....;.G.d.
0B30: 65 80 66 80 67 80 47 01  01 A3 0B 02 21 00 05 80  e.f.g.G.....!...
0B40: 80 52 0B 47 00 68 80 69  80 6A 80 6B 80 47 01 01  .R.G.h.i.j.k.G..
0B50: A3 0B 02 21 00 09 80 80  69 0B 47 00 6C 80 6D 80  ...!....i.G.l.m.
0B60: 6E 80 6F 80 47 01 01 A3  0B 02 21 00 0A 80 80 80  n.o.G.....!.....
0B70: 0B 47 00 70 80 71 80 72  80 73 80 47 01 01 A3 0B  .G.p.q.r.s.G....
0B80: 02 21 00 0B 80 80 97 0B  47 00 74 80 75 80 76 80  .!......G.t.u.v.
0B90: 77 80 47 01 01 A3 0B 47  00 78 80 79 80 7A 80 7B  w.G....G.x.y.z.{
0BA0: 80 47 01 01 6A 0C 02 20  00 7C 80 80 D4 0B 02 19  .G..j.. .|......
0BB0: 00 00 80 80 C5 0B 47 00  78 80 79 80 7A 80 7B 80  ......G.x.y.z.{.
0BC0: 47 01 01 D1 0B 47 00 7D  80 7E 80 7F 80 80 80 47  G....G.}.~.....G
0BD0: 01 01 6A 0C 02 20 00 81  80 80 02 0C 02 19 00 0B  ..j.. ..........
0BE0: 80 80 F3 0B 47 00 82 80  83 80 84 80 85 80 47 01  ....G.........G.
0BF0: 01 FF 0B 47 00 78 80 79  80 7A 80 7B 80 47 01 01  ...G.x.y.z.{.G..
0C00: 6A 0C 02 20 00 86 80 80  30 0C 02 19 00 0B 80 80  j.. ....0.......
0C10: 21 0C 47 00 87 80 88 80  89 80 8A 80 47 01 01 2D  !.G.........G..-
0C20: 0C 47 00 78 80 79 80 7A  80 7B 80 47 01 01 6A 0C  .G.x.y.z.{.G..j.
0C30: 02 20 00 8B 80 80 5E 0C  02 19 00 0A 80 80 4F 0C  . ....^.......O.
0C40: 47 00 8C 80 8D 80 8E 80  8F 80 47 01 01 5B 0C 47  G.........G..[.G
0C50: 00 78 80 79 80 7A 80 7B  80 47 01 01 6A 0C 47 00  .x.y.z.{.G..j.G.
0C60: 78 80 79 80 7A 80 7B 80  47 01 38 0F 80 02 17 00  x.y.z.{.G.8.....
0C70: 09 80 00 78 0C 01 93 0C  02 17 00 05 80 00 43 0D  ...x..........C.
0C80: 1C 01 80 24 33 80 05 80  00 80 25 02 00 10 00 80  ...$3.....%.....
0C90: 00 43 0D 02 20 00 39 80  00 FF 0C 02 21 00 00 80  .C.. .9.....!...
0CA0: 80 AD 0C 36 64 80 65 80  66 80 01 FC 0C 02 21 00  ...6d.e.f.....!.
0CB0: 05 80 80 BF 0C 36 68 80  69 80 6A 80 01 FC 0C 02  .....6h.i.j.....
0CC0: 21 00 09 80 80 D1 0C 36  6C 80 6D 80 6E 80 01 FC  !......6l.m.n...
0CD0: 0C 02 21 00 0A 80 80 E3  0C 36 70 80 71 80 72 80  ..!......6p.q.r.
0CE0: 01 FC 0C 02 21 00 0B 80  80 F5 0C 36 74 80 75 80  ....!......6t.u.
0CF0: 76 80 01 FC 0C 36 78 80  79 80 7A 80 01 08 0D 37  v....6x.y.z....7
0D00: 78 80 79 80 7A 80 7B 80  80 F0 FF FF 7F 62 09 80  x.y.z.{......b..
0D10: F0 FF FF 7F F0 FF FF 7F  6D 61 69 6E 00 80 45 0E  ........main..E.
0D20: 80 F0 FF FF 7F F0 FF FF  7F 66 64 69 32 00 80 46  .........fdi2..F
0D30: 02 12 00 02 12 00 00 80  00 3D 0D 46 00 01 6A 0D  .........=.F..j.
0D40: 01 43 0D 02 17 00 04 80  04 5C 0D 5C 00 34 80 5C  .C.......\.\.4.\
0D50: 01 34 80 5C 02 34 80 5C  03 34 80 9A 1A 4A 14 02  .4.\.4.\.4...J..
0D60: 17 00 00 80 03 6A 0D 01  AC 0E 02 20 00 90 80 80  .....j..... ....
0D70: 75 0D 01 75 0D 02 20 00  1F 80 80 80 0D 01 AC 0E  u..u.. .........
0D80: 02 20 00 0F 80 80 8B 0D  01 AC 0E 02 20 00 21 80  . .......... .!.
0D90: 80 96 0D 01 AC 0E 02 20  00 23 80 80 43 0E 02 19  ....... .#..C...
0DA0: 00 09 80 00 D7 0D 03 05  10 1B 00 02 05 10 00 80  ................
0DB0: 02 D4 0D 48 91 80 23 03  04 10 0A 80 02 1B 00 1A  ...H..#.........
0DC0: 00 04 CB 0D 48 92 80 23  01 D4 0D 03 05 10 1A 00  ....H..#........
0DD0: 48 2C 80 23 01 40 0E 03  05 10 1B 00 02 05 10 00  H,.#.@..........
0DE0: 80 02 40 0E 02 05 10 2F  80 04 FF 0D 3F 04 10 05  ..@..../....?...
0DF0: 10 2F 80 15 05 10 2F 80  48 93 80 23 01 03 0E 48  ./..../.H..#...H
0E00: 94 80 23 02 1B 00 1A 00  05 17 0E 03 07 10 19 00  ..#.............
0E10: 48 95 80 23 01 40 0E 02  1A 00 2F 80 04 37 0E 03  H..#.@..../..7..
0E20: 05 10 1A 00 3F 04 10 05  10 2F 80 15 05 10 2F 80  ....?..../..../.
0E30: 48 96 80 23 01 40 0E 03  05 10 1A 00 48 97 80 23  H..#.@......H..#
0E40: 01 AC 0E 03 05 10 1B 00  02 05 10 00 80 02 AC 0E  ................
0E50: 02 05 10 2F 80 04 6B 0E  3F 04 10 05 10 2F 80 15  .../..k.?..../..
0E60: 05 10 2F 80 48 93 80 23  01 6F 0E 48 94 80 23 02  ../.H..#.o.H..#.
0E70: 1B 00 1A 00 05 83 0E 03  07 10 19 00 48 95 80 23  ............H..#
0E80: 01 AC 0E 02 1A 00 2F 80  04 A3 0E 03 05 10 1A 00  ....../.........
0E90: 3F 04 10 05 10 2F 80 15  05 10 2F 80 48 96 80 23  ?..../..../.H..#
0EA0: 01 AC 0E 03 05 10 1A 00  48 97 80 23 02 18 00 00  ........H..#....
0EB0: 80 00 C4 0E 5C 00 00 80  5C 01 00 80 5C 02 34 80  ....\...\...\.4.
0EC0: 5C 03 34 80 02 17 00 00  80 03 ED 0E 45 0E 80 F0  \.4.........E...
0ED0: FF FF 7F F0 FF FF 7F 66  64 69 32 00 80 5C 00 00  .......fdi2..\..
0EE0: 80 5C 01 00 80 5C 02 34  80 5C 03 34 80 06 18 00  .\...\.4.\.4....
0EF0: 45 36 80 F0 FF FF 7F F0  FF FF 7F 77 68 69 31 00  E6.........whi1.
0F00: 80 45 0E 80 F0 FF FF 7F  F0 FF FF 7F 62 6C 6F 66  .E..........blof
0F10: 00 80 21 00                                       ..!.            
```

#### Opcodes

```
  0: 0x0A69 [0x79] LocalPlayer looks at LocalPlayer (Basic look)
  1: 0x0A73 [0x03] ExtData[1]->WorkLocal[33] = Work_Zone[2]
  2: 0x0A78 [0x03] ExtData[1]->WorkLocal[26] = Work_Zone[3]
  3: 0x0A7D [0x03] ExtData[1]->WorkLocal[27] = Work_Zone[5]
  4: 0x0A82 [0x03] ExtData[1]->WorkLocal[32] = Work_Zone[6]
  5: 0x0A87 [0x03] ExtData[1]->WorkLocal[25] = Work_Zone[7]
  6: 0x0A8C [0x03] ExtData[1]->WorkLocal[23] = Work_Zone[8]
  7: 0x0A91 [0x02] IF !(ExtData[1]->WorkLocal[23] < 3*) GOTO 0x0A9E
  8: 0x0A99 [0x03] ExtData[1]->WorkLocal[23] = 0*
  9: 0x0A9E [0x03] ExtData[1]->WorkLocal[28] = Work_Zone[9]
 10: 0x0AA3 [0x20] SET_CLI_EVENT_UC_FLAG: Lock player control
 11: 0x0AA5 [0x42] SET_CLI_EVENT_CANCEL_DATA()
 12: 0x0AA6 [0x3B] GET_ENTITY_POSITION(entity=LocalPlayer, x_destination=Work_Zone[32], y_destination=Work_Zone[33], z_destination=Work_Zone[34])
 13: 0x0AB1 [0x3A] CONVERT_YAW_TO_BYTE(entity=LocalPlayer, result_destination=Work_Zone[35])
 14: 0x0AB8 [0x02] IF !(ExtData[1]->WorkLocal[32] == 180*) GOTO 0x0AC3
 15: 0x0AC0 [0x1C] WAIT(300* ticks)
 16: 0x0AC3 [0x45] LOAD_SCHEDULED_TASK: Load scheduler "whi1" with entities [LocalPlayer, LocalPlayer], work=[201*, 0*]
 17: 0x0AD4 [0x45] LOAD_SCHEDULED_TASK: Load scheduler "blof" with entities [LocalPlayer, LocalPlayer], work=[200*, 0*]
 18: 0x0AE5 [0x45] LOAD_SCHEDULED_TASK: Load scheduler "fdo1" with entities [LocalPlayer, LocalPlayer], work=[200*, 0*]
 19: 0x0AF6 [0x55] WAIT_LOAD_SCHEDULER: Wait for scheduler "fdo1" with entities [LocalPlayer, LocalPlayer], work=200*
 20: 0x0B05 [0x6C] FADE_ENTITY_COLOR(entity_id=LocalPlayer, end_alpha=128*, fade_time=1*)
 21: 0x0B0E [0x06] Work_Zone[1] = 0
 22: 0x0B11 [0x02] IF !(ExtData[1]->WorkLocal[23] >= 0*) GOTO 0x0B1C
 23: 0x0B19 [0x01] GOTO 0x0C6A
 24: 0x0B1C [0x02] IF !(ExtData[1]->WorkLocal[32] == 180*) GOTO 0x0BA6
 25: 0x0B24 [0x02] IF !(ExtData[1]->WorkLocal[33] == 0*) GOTO 0x0B3B
 26: 0x0B2C [0x47] UPDATE_PLAYER_POS(-618.329*, -643.868*, -25.805*, yaw=330.5°*)
 27: 0x0B36 [0x47] WAIT_PLAYER_POS_UPDATE
 28: 0x0B38 [0x01] GOTO 0x0BA3
 29: 0x0B3B [0x02] IF !(ExtData[1]->WorkLocal[33] == 1*) GOTO 0x0B52
 30: 0x0B43 [0x47] UPDATE_PLAYER_POS(-332.163*, -441.914*, -95.055*, yaw=330.5°*)
 31: 0x0B4D [0x47] WAIT_PLAYER_POS_UPDATE
 32: 0x0B4F [0x01] GOTO 0x0BA3
 33: 0x0B52 [0x02] IF !(ExtData[1]->WorkLocal[33] == 2*) GOTO 0x0B69
 34: 0x0B5A [0x47] UPDATE_PLAYER_POS(-12.464*, -648.377*, -194.629*, yaw=331.3°*)
 35: 0x0B64 [0x47] WAIT_PLAYER_POS_UPDATE
 36: 0x0B66 [0x01] GOTO 0x0BA3
 37: 0x0B69 [0x02] IF !(ExtData[1]->WorkLocal[33] == 3*) GOTO 0x0B80
 38: 0x0B71 [0x47] UPDATE_PLAYER_POS(323.381*, -443.793*, -108.440*, yaw=329.1°*)
 39: 0x0B7B [0x47] WAIT_PLAYER_POS_UPDATE
 40: 0x0B7D [0x01] GOTO 0x0BA3
 41: 0x0B80 [0x02] IF !(ExtData[1]->WorkLocal[33] == 4*) GOTO 0x0B97
 42: 0x0B88 [0x47] UPDATE_PLAYER_POS(599.907*, -676.969*, -22.473*, yaw=330.7°*)
 43: 0x0B92 [0x47] WAIT_PLAYER_POS_UPDATE
 44: 0x0B94 [0x01] GOTO 0x0BA3
 45: 0x0B97 [0x47] UPDATE_PLAYER_POS(0.043*, -352.945*, -119.249*, yaw=90.0°*)
 46: 0x0BA1 [0x47] WAIT_PLAYER_POS_UPDATE

SUBROUTINE_0BA3:
 47: 0x0BA3 [0x01] GOTO 0x0C6A
 48: 0x0BA6 [0x02] IF !(ExtData[1]->WorkLocal[32] == 168*) GOTO 0x0BD4
 49: 0x0BAE [0x02] IF !(ExtData[1]->WorkLocal[25] == 0*) GOTO 0x0BC5
 50: 0x0BB6 [0x47] UPDATE_PLAYER_POS(0.043*, -352.945*, -119.249*, yaw=90.0°*)
 51: 0x0BC0 [0x47] WAIT_PLAYER_POS_UPDATE
 52: 0x0BC2 [0x01] GOTO 0x0BD1
 53: 0x0BC5 [0x47] UPDATE_PLAYER_POS(200.059*, -21.958*, -0.250*, yaw=91.5°*)
 54: 0x0BCF [0x47] WAIT_PLAYER_POS_UPDATE

SUBROUTINE_0BD1:
 55: 0x0BD1 [0x01] GOTO 0x0C6A
 56: 0x0BD4 [0x02] IF !(ExtData[1]->WorkLocal[32] == 202*) GOTO 0x0C02
 57: 0x0BDC [0x02] IF !(ExtData[1]->WorkLocal[25] == 4*) GOTO 0x0BF3
 58: 0x0BE4 [0x47] UPDATE_PLAYER_POS(538.604*, 501.900*, -13.942*, yaw=286.5°*)
 59: 0x0BEE [0x47] WAIT_PLAYER_POS_UPDATE
 60: 0x0BF0 [0x01] GOTO 0x0BFF
 61: 0x0BF3 [0x47] UPDATE_PLAYER_POS(0.043*, -352.945*, -119.249*, yaw=90.0°*)
 62: 0x0BFD [0x47] WAIT_PLAYER_POS_UPDATE

SUBROUTINE_0BFF:
 63: 0x0BFF [0x01] GOTO 0x0C6A
 64: 0x0C02 [0x02] IF !(ExtData[1]->WorkLocal[32] == 203*) GOTO 0x0C30
 65: 0x0C0A [0x02] IF !(ExtData[1]->WorkLocal[25] == 4*) GOTO 0x0C21
 66: 0x0C12 [0x47] UPDATE_PLAYER_POS(553.205*, 589.633*, -0.021*, yaw=124.4°*)
 67: 0x0C1C [0x47] WAIT_PLAYER_POS_UPDATE
 68: 0x0C1E [0x01] GOTO 0x0C2D
 69: 0x0C21 [0x47] UPDATE_PLAYER_POS(0.043*, -352.945*, -119.249*, yaw=90.0°*)
 70: 0x0C2B [0x47] WAIT_PLAYER_POS_UPDATE

SUBROUTINE_0C2D:
 71: 0x0C2D [0x01] GOTO 0x0C6A
 72: 0x0C30 [0x02] IF !(ExtData[1]->WorkLocal[32] == 211*) GOTO 0x0C5E
 73: 0x0C38 [0x02] IF !(ExtData[1]->WorkLocal[25] == 3*) GOTO 0x0C4F
 74: 0x0C40 [0x47] UPDATE_PLAYER_POS(569.224*, 548.462*, 36.837*, yaw=59.1°*)
 75: 0x0C4A [0x47] WAIT_PLAYER_POS_UPDATE
 76: 0x0C4C [0x01] GOTO 0x0C5B
 77: 0x0C4F [0x47] UPDATE_PLAYER_POS(0.043*, -352.945*, -119.249*, yaw=90.0°*)
 78: 0x0C59 [0x47] WAIT_PLAYER_POS_UPDATE

SUBROUTINE_0C5B:
 79: 0x0C5B [0x01] GOTO 0x0C6A
 80: 0x0C5E [0x47] UPDATE_PLAYER_POS(0.043*, -352.945*, -119.249*, yaw=90.0°*)
 81: 0x0C68 [0x47] WAIT_PLAYER_POS_UPDATE

SUBROUTINE_0C6A:
 82: 0x0C6A [0x38] SET_CLIENT_EVENT_MODE(mode=19*)
 83: 0x0C6D [0x02] IF !(ExtData[1]->WorkLocal[23] == 2*) GOTO 0x0C78
 84: 0x0C75 [0x01] GOTO 0x0C93
 85: 0x0C78 [0x02] IF !(ExtData[1]->WorkLocal[23] == 1*) GOTO 0x0D43
 86: 0x0C80 [0x1C] WAIT(15* ticks)
 87: 0x0C83 [0x24] CREATE_DIALOG(message_id=7407*, default_option=1*, option_flags=0*)
    → "Skip the event? [Yes./No.]"
 88: 0x0C8A [0x25] WAIT_DIALOG_SELECT()
 89: 0x0C8B [0x02] IF !(Work_Zone[0] == 0*) GOTO 0x0D43

SUBROUTINE_0C93:
 90: 0x0C93 [0x02] IF !(ExtData[1]->WorkLocal[32] == 180*) GOTO 0x0CFF
 91: 0x0C9B [0x02] IF !(ExtData[1]->WorkLocal[33] == 0*) GOTO 0x0CAD
 92: 0x0CA3 [0x36] SET_ENTITY_EVENT_POSITION(pos_x=-618.329*, pos_z=-643.868*, pos_y=-25.805*)
 93: 0x0CAA [0x01] GOTO 0x0CFC
 94: 0x0CAD [0x02] IF !(ExtData[1]->WorkLocal[33] == 1*) GOTO 0x0CBF
 95: 0x0CB5 [0x36] SET_ENTITY_EVENT_POSITION(pos_x=-332.163*, pos_z=-441.914*, pos_y=-95.055*)
 96: 0x0CBC [0x01] GOTO 0x0CFC
 97: 0x0CBF [0x02] IF !(ExtData[1]->WorkLocal[33] == 2*) GOTO 0x0CD1
 98: 0x0CC7 [0x36] SET_ENTITY_EVENT_POSITION(pos_x=-12.464*, pos_z=-648.377*, pos_y=-194.629*)
 99: 0x0CCE [0x01] GOTO 0x0CFC
100: 0x0CD1 [0x02] IF !(ExtData[1]->WorkLocal[33] == 3*) GOTO 0x0CE3
101: 0x0CD9 [0x36] SET_ENTITY_EVENT_POSITION(pos_x=323.381*, pos_z=-443.793*, pos_y=-108.440*)
102: 0x0CE0 [0x01] GOTO 0x0CFC
103: 0x0CE3 [0x02] IF !(ExtData[1]->WorkLocal[33] == 4*) GOTO 0x0CF5
104: 0x0CEB [0x36] SET_ENTITY_EVENT_POSITION(pos_x=599.907*, pos_z=-676.969*, pos_y=-22.473*)
105: 0x0CF2 [0x01] GOTO 0x0CFC
106: 0x0CF5 [0x36] SET_ENTITY_EVENT_POSITION(pos_x=0.043*, pos_z=-352.945*, pos_y=-119.249*)

SUBROUTINE_0CFC:
107: 0x0CFC [0x01] GOTO 0x0D08
108: 0x0CFF [0x37] UPDATE_EVENT_POSITION_AND_DIR: x=0.043*, z=-352.945*, y=-119.249*, direction=90.0°*

SUBROUTINE_0D08:
109: 0x0D08 [0x80] LOAD_WAIT(entity=LocalPlayer)
110: 0x0D0D [0x62] LOAD_EVENT_SCHEDULER: Load scheduler "main" with entities [LocalPlayer, LocalPlayer], work=[2*, 0*]
111: 0x0D1E [0x45] LOAD_SCHEDULED_TASK: Load scheduler "fdi2" with entities [LocalPlayer, LocalPlayer], work=[200*, 0*]
112: 0x0D2F [0x46] CAMERA_CONTROL: Query status
113: 0x0D31 [0x12] 0x0200 = rand()
114: 0x0D34 [0x12] ExtData[1]->WorkLocal[0] = rand()
115: 0x0D37 [0x80] LOAD_WAIT(entity=Unknown NPC (ID: 1175272704/0x460D3D00))
116: 0x0D3C [0x00] END_REQSTACK()

SUBROUTINE_0D43:
117: 0x0D43 [0x02] IF !(ExtData[1]->WorkLocal[23] < 4294967295*) GOTO 0x0D5C
118: 0x0D4B [0x5C] MUSIC_CONTROL: Set Idle (Day) music to song 220*
119: 0x0D4F [0x5C] MUSIC_CONTROL: Set Idle (Night) music to song 220*
120: 0x0D53 [0x5C] MUSIC_CONTROL: Set Combat (Solo) music to song 220*
121: 0x0D57 [0x5C] MUSIC_CONTROL: Set Combat (Party) music to song 220*
122: 0x0D5B [0x9A] WAIT_MUSIC_SERVER()
123: 0x0D5C [0x1A] CALL_SUBROUTINE(address=0x144A)
124: 0x0D5F [0x02] IF !(ExtData[1]->WorkLocal[23] >= 0*) GOTO 0x0D6A
125: 0x0D67 [0x01] GOTO 0x0EAC

SUBROUTINE_0D6A:
126: 0x0D6A [0x02] IF !(ExtData[1]->WorkLocal[32] == 36*) GOTO 0x0D75
127: 0x0D72 [0x01] GOTO 0x0D75

SUBROUTINE_0D75:
128: 0x0D75 [0x02] IF !(ExtData[1]->WorkLocal[32] == 17*) GOTO 0x0D80
129: 0x0D7D [0x01] GOTO 0x0EAC
130: 0x0D80 [0x02] IF !(ExtData[1]->WorkLocal[32] == 19*) GOTO 0x0D8B
131: 0x0D88 [0x01] GOTO 0x0EAC
132: 0x0D8B [0x02] IF !(ExtData[1]->WorkLocal[32] == 21*) GOTO 0x0D96
133: 0x0D93 [0x01] GOTO 0x0EAC
134: 0x0D96 [0x02] IF !(ExtData[1]->WorkLocal[32] == 23*) GOTO 0x0E43
135: 0x0D9E [0x02] IF !(ExtData[1]->WorkLocal[25] == 2*) GOTO 0x0DD7
136: 0x0DA6 [0x03] Work_Zone[5] = ExtData[1]->WorkLocal[27]
137: 0x0DAB [0x02] IF !(Work_Zone[5] <= 0*) GOTO 0x0DD4
138: 0x0DB3 [0x48] [System] [7727*]:
    → "You collected $3 [memory/memories] in this battle."
139: 0x0DB6 [0x23] WAIT_FOR_DIALOG_INTERACTION
140: 0x0DB7 [0x03] Work_Zone[4] = 3*
141: 0x0DBC [0x02] IF !(ExtData[1]->WorkLocal[27] < ExtData[1]->WorkLocal[26]) GOTO 0x0DCB
142: 0x0DC4 [0x48] [System] [7728*]:
    → "A new record has been set for "[Empty Hopes/Empty Dreams/Empty Desires/Empty Aspirations]"!"
143: 0x0DC7 [0x23] WAIT_FOR_DIALOG_INTERACTION
144: 0x0DC8 [0x01] GOTO 0x0DD4
145: 0x0DCB [0x03] Work_Zone[5] = ExtData[1]->WorkLocal[26]
146: 0x0DD0 [0x48] [System] [7717*]:
    → "The current record for "[Empty Hopes/Empty Dreams/Empty Desires/Empty Aspirations]" is $3 [memory/memories]."
147: 0x0DD3 [0x23] WAIT_FOR_DIALOG_INTERACTION

SUBROUTINE_0DD4:
148: 0x0DD4 [0x01] GOTO 0x0E40
149: 0x0DD7 [0x03] Work_Zone[5] = ExtData[1]->WorkLocal[27]
150: 0x0DDC [0x02] IF !(Work_Zone[5] <= 0*) GOTO 0x0E40
151: 0x0DE4 [0x02] IF !(Work_Zone[5] < 60*) GOTO 0x0DFF
152: 0x0DEC [0x3F] Work_Zone[4] = Work_Zone[5] % 60*
153: 0x0DF3 [0x15] Work_Zone[5] /= 60*
154: 0x0DF8 [0x48] [System] [7409*]:
    → "Battlefield clear time: $3 minute[/s], $2 second[/s]!"
155: 0x0DFB [0x23] WAIT_FOR_DIALOG_INTERACTION
156: 0x0DFC [0x01] GOTO 0x0E03
157: 0x0DFF [0x48] [System] [7408*]:
    → "Battlefield clear time: $3 second[/s]!"
158: 0x0E02 [0x23] WAIT_FOR_DIALOG_INTERACTION

SUBROUTINE_0E03:
159: 0x0E03 [0x02] IF !(ExtData[1]->WorkLocal[27] > ExtData[1]->WorkLocal[26]) GOTO 0x0E17
160: 0x0E0B [0x03] Work_Zone[7] = ExtData[1]->WorkLocal[25]
161: 0x0E10 [0x48] [System] [7621*]:
    → "You have broken the clear time record for "[Desires of Emptiness/Pulling the Plug/Empty Aspirations]"!"
162: 0x0E13 [0x23] WAIT_FOR_DIALOG_INTERACTION
163: 0x0E14 [0x01] GOTO 0x0E40
164: 0x0E17 [0x02] IF !(ExtData[1]->WorkLocal[26] < 60*) GOTO 0x0E37
165: 0x0E1F [0x03] Work_Zone[5] = ExtData[1]->WorkLocal[26]
166: 0x0E24 [0x3F] Work_Zone[4] = Work_Zone[5] % 60*
167: 0x0E2B [0x15] Work_Zone[5] /= 60*
168: 0x0E30 [0x48] [System] [7411*]:
    → "The current battlefield clear time record is $3 minute[/s] $2 second[/s]."
169: 0x0E33 [0x23] WAIT_FOR_DIALOG_INTERACTION
170: 0x0E34 [0x01] GOTO 0x0E40
171: 0x0E37 [0x03] Work_Zone[5] = ExtData[1]->WorkLocal[26]
172: 0x0E3C [0x48] [System] [7410*]:
    → "The current battlefield clear time record is $3 second[/s]."
173: 0x0E3F [0x23] WAIT_FOR_DIALOG_INTERACTION

SUBROUTINE_0E40:
174: 0x0E40 [0x01] GOTO 0x0EAC
175: 0x0E43 [0x03] Work_Zone[5] = ExtData[1]->WorkLocal[27]
176: 0x0E48 [0x02] IF !(Work_Zone[5] <= 0*) GOTO 0x0EAC
177: 0x0E50 [0x02] IF !(Work_Zone[5] < 60*) GOTO 0x0E6B
178: 0x0E58 [0x3F] Work_Zone[4] = Work_Zone[5] % 60*
179: 0x0E5F [0x15] Work_Zone[5] /= 60*
180: 0x0E64 [0x48] [System] [7409*]:
    → "Battlefield clear time: $3 minute[/s], $2 second[/s]!"
181: 0x0E67 [0x23] WAIT_FOR_DIALOG_INTERACTION
182: 0x0E68 [0x01] GOTO 0x0E6F
183: 0x0E6B [0x48] [System] [7408*]:
    → "Battlefield clear time: $3 second[/s]!"
184: 0x0E6E [0x23] WAIT_FOR_DIALOG_INTERACTION

SUBROUTINE_0E6F:
185: 0x0E6F [0x02] IF !(ExtData[1]->WorkLocal[27] > ExtData[1]->WorkLocal[26]) GOTO 0x0E83
186: 0x0E77 [0x03] Work_Zone[7] = ExtData[1]->WorkLocal[25]
187: 0x0E7C [0x48] [System] [7621*]:
    → "You have broken the clear time record for "[Desires of Emptiness/Pulling the Plug/Empty Aspirations]"!"
188: 0x0E7F [0x23] WAIT_FOR_DIALOG_INTERACTION
189: 0x0E80 [0x01] GOTO 0x0EAC
190: 0x0E83 [0x02] IF !(ExtData[1]->WorkLocal[26] < 60*) GOTO 0x0EA3
191: 0x0E8B [0x03] Work_Zone[5] = ExtData[1]->WorkLocal[26]
192: 0x0E90 [0x3F] Work_Zone[4] = Work_Zone[5] % 60*
193: 0x0E97 [0x15] Work_Zone[5] /= 60*
194: 0x0E9C [0x48] [System] [7411*]:
    → "The current battlefield clear time record is $3 minute[/s] $2 second[/s]."
195: 0x0E9F [0x23] WAIT_FOR_DIALOG_INTERACTION
196: 0x0EA0 [0x01] GOTO 0x0EAC
197: 0x0EA3 [0x03] Work_Zone[5] = ExtData[1]->WorkLocal[26]
198: 0x0EA8 [0x48] [System] [7410*]:
    → "The current battlefield clear time record is $3 second[/s]."
199: 0x0EAB [0x23] WAIT_FOR_DIALOG_INTERACTION

SUBROUTINE_0EAC:
200: 0x0EAC [0x02] IF !(ExtData[1]->WorkLocal[24] == 0*) GOTO 0x0EC4
201: 0x0EB4 [0x5C] MUSIC_CONTROL: Set Idle (Day) music to song 0*
202: 0x0EB8 [0x5C] MUSIC_CONTROL: Set Idle (Night) music to song 0*
203: 0x0EBC [0x5C] MUSIC_CONTROL: Set Combat (Solo) music to song 220*
204: 0x0EC0 [0x5C] MUSIC_CONTROL: Set Combat (Party) music to song 220*
205: 0x0EC4 [0x02] IF !(ExtData[1]->WorkLocal[23] >= 0*) GOTO 0x0EED
206: 0x0ECC [0x45] LOAD_SCHEDULED_TASK: Load scheduler "fdi2" with entities [LocalPlayer, LocalPlayer], work=[200*, 0*]
207: 0x0EDD [0x5C] MUSIC_CONTROL: Set Idle (Day) music to song 0*
208: 0x0EE1 [0x5C] MUSIC_CONTROL: Set Idle (Night) music to song 0*
209: 0x0EE5 [0x5C] MUSIC_CONTROL: Set Combat (Solo) music to song 220*
210: 0x0EE9 [0x5C] MUSIC_CONTROL: Set Combat (Party) music to song 220*
211: 0x0EED [0x06] ExtData[1]->WorkLocal[24] = 0
212: 0x0EF0 [0x45] LOAD_SCHEDULED_TASK: Load scheduler "whi1" with entities [LocalPlayer, LocalPlayer], work=[201*, 0*]
213: 0x0F01 [0x45] LOAD_SCHEDULED_TASK: Load scheduler "blof" with entities [LocalPlayer, LocalPlayer], work=[200*, 0*]
214: 0x0F12 [0x21] END_EVENT
215: 0x0F13 [0x00] END_REQSTACK()
```

#### Data or dead code:

```
# Dead code (unreachable instructions):
     0x0D3D [0x01] GOTO 0x0D6A
     0x0D40 [0x01] GOTO 0x0D43
```

### Event 32003

#### Metadata

| Field        | Value     |
|--------------|-----------|
| Entrypoint   | 0x0F14    |
| Data Size    | 435 bytes |
| Instructions | 77        |

```
      00 01 02 03 04 05 06 07  08 09 0A 0B 0C 0D 0E 0F
      -- -- -- -- -- -- -- --  -- -- -- -- -- -- -- --
0F10:             06 1D 00 06  1E 00 03 21 00 06 10 03      .......!....
0F20: 20 00 07 10 03 1F 00 08  10 06 01 10 1A 88 1F 02   ...............
0F30: 1D 00 05 80 00 C5 10 42  03 01 10 09 80 43 00 43  .......B.....C.C
0F40: 01 03 01 10 0A 80 43 00  43 01 1A 9F 1F 02 1E 00  ......C.C.......
0F50: 05 80 00 C5 10 45 0E 80  F0 FF FF 7F F0 FF FF 7F  .....E..........
0F60: 66 64 6F 31 00 80 55 0E  80 F0 FF FF 7F F0 FF FF  fdo1..U.........
0F70: 7F 66 64 6F 31 03 01 10  0B 80 02 20 00 39 80 80  .fdo1...... .9..
0F80: 04 10 02 21 00 00 80 80  99 0F 47 00 3A 80 3B 80  ...!......G.:.;.
0F90: 3C 80 3D 80 47 01 01 01  10 02 21 00 05 80 80 B0  <.=.G.....!.....
0FA0: 0F 47 00 3E 80 3F 80 40  80 41 80 47 01 01 01 10  .G.>.?.@.A.G....
0FB0: 02 21 00 09 80 80 C7 0F  47 00 42 80 43 80 44 80  .!......G.B.C.D.
0FC0: 45 80 47 01 01 01 10 02  21 00 0A 80 80 DE 0F 47  E.G.....!......G
0FD0: 00 46 80 47 80 48 80 49  80 47 01 01 01 10 02 21  .F.G.H.I.G.....!
0FE0: 00 0B 80 80 F5 0F 47 00  4A 80 4B 80 4C 80 4D 80  ......G.J.K.L.M.
0FF0: 47 01 01 01 10 47 00 4E  80 4F 80 50 80 51 80 47  G....G.N.O.P.Q.G
1000: 01 01 83 10 02 20 00 18  80 80 77 10 02 1F 00 05  ..... ....w.....
1010: 80 80 23 10 47 00 52 80  53 80 54 80 55 80 47 01  ..#.G.R.S.T.U.G.
1020: 01 74 10 02 1F 00 09 80  80 3A 10 47 00 56 80 57  .t.......:.G.V.W
1030: 80 58 80 59 80 47 01 01  74 10 02 1F 00 0A 80 80  .X.Y.G..t.......
1040: 51 10 47 00 5A 80 5B 80  5C 80 5D 80 47 01 01 74  Q.G.Z.[.\.].G..t
1050: 10 02 1F 00 0B 80 80 68  10 47 00 5E 80 5F 80 60  .......h.G.^._.`
1060: 80 61 80 47 01 01 74 10  47 00 4E 80 4F 80 50 80  .a.G..t.G.N.O.P.
1070: 51 80 47 01 01 83 10 47  00 4E 80 4F 80 50 80 51  Q.G....G.N.O.P.Q
1080: 80 47 01 38 0F 80 79 00  F0 FF FF 7F F0 FF FF 7F  .G.8..y.........
1090: 1A A3 1F 45 36 80 F0 FF  FF 7F F0 FF FF 7F 77 68  ...E6.........wh
10A0: 69 31 00 80 45 0E 80 F0  FF FF 7F F0 FF FF 7F 62  i1..E..........b
10B0: 6C 6F 66 00 80 5C 00 00  80 5C 01 00 80 5C 02 34  lof..\...\...\.4
10C0: 80 5C 03 34 80 21 00                              .\.4.!.         
```

#### Opcodes

```
  0: 0x0F14 [0x06] ExtData[1]->WorkLocal[29] = 0
  1: 0x0F17 [0x06] ExtData[1]->WorkLocal[30] = 0
  2: 0x0F1A [0x03] ExtData[1]->WorkLocal[33] = Work_Zone[6]
  3: 0x0F1F [0x03] ExtData[1]->WorkLocal[32] = Work_Zone[7]
  4: 0x0F24 [0x03] ExtData[1]->WorkLocal[31] = Work_Zone[8]
  5: 0x0F29 [0x06] Work_Zone[1] = 0
  6: 0x0F2C [0x1A] CALL_SUBROUTINE(address=0x1F88)
  7: 0x0F2F [0x02] IF !(ExtData[1]->WorkLocal[29] == 1*) GOTO 0x10C5
  8: 0x0F37 [0x42] SET_CLI_EVENT_CANCEL_DATA()
  9: 0x0F38 [0x03] Work_Zone[1] = 2*
 10: 0x0F3D [0x43] SEND_EVENT_UPDATE: Send pending tag to server (packet 0x005B)
 11: 0x0F3F [0x43] SEND_EVENT_UPDATE: Check pending flag (skip if not pending)
 12: 0x0F41 [0x03] Work_Zone[1] = 3*
 13: 0x0F46 [0x43] SEND_EVENT_UPDATE: Send pending tag to server (packet 0x005B)
 14: 0x0F48 [0x43] SEND_EVENT_UPDATE: Check pending flag (skip if not pending)
 15: 0x0F4A [0x1A] CALL_SUBROUTINE(address=0x1F9F)
 16: 0x0F4D [0x02] IF !(ExtData[1]->WorkLocal[30] == 1*) GOTO 0x10C5
 17: 0x0F55 [0x45] LOAD_SCHEDULED_TASK: Load scheduler "fdo1" with entities [LocalPlayer, LocalPlayer], work=[200*, 0*]
 18: 0x0F66 [0x55] WAIT_LOAD_SCHEDULER: Wait for scheduler "fdo1" with entities [LocalPlayer, LocalPlayer], work=200*
 19: 0x0F75 [0x03] Work_Zone[1] = 4*
 20: 0x0F7A [0x02] IF !(ExtData[1]->WorkLocal[32] == 180*) GOTO 0x1004
 21: 0x0F82 [0x02] IF !(ExtData[1]->WorkLocal[33] == 0*) GOTO 0x0F99
 22: 0x0F8A [0x47] UPDATE_PLAYER_POS(-605.141*, 479.929*, -22.681*, yaw=87.2°*)
 23: 0x0F94 [0x47] WAIT_PLAYER_POS_UPDATE
 24: 0x0F96 [0x01] GOTO 0x1001
 25: 0x0F99 [0x02] IF !(ExtData[1]->WorkLocal[33] == 1*) GOTO 0x0FB0
 26: 0x0FA1 [0x47] UPDATE_PLAYER_POS(-262.589*, 377.857*, -137.313*, yaw=305.3°*)
 27: 0x0FAB [0x47] WAIT_PLAYER_POS_UPDATE
 28: 0x0FAD [0x01] GOTO 0x1001
 29: 0x0FB0 [0x02] IF !(ExtData[1]->WorkLocal[33] == 2*) GOTO 0x0FC7
 30: 0x0FB8 [0x47] UPDATE_PLAYER_POS(18.348*, 486.940*, -224.334*, yaw=17.1°*)
 31: 0x0FC2 [0x47] WAIT_PLAYER_POS_UPDATE
 32: 0x0FC4 [0x01] GOTO 0x1001
 33: 0x0FC7 [0x02] IF !(ExtData[1]->WorkLocal[33] == 3*) GOTO 0x0FDE
 34: 0x0FCF [0x47] UPDATE_PLAYER_POS(231.593*, 360.094*, -173.572*, yaw=160.8°*)
 35: 0x0FD9 [0x47] WAIT_PLAYER_POS_UPDATE
 36: 0x0FDB [0x01] GOTO 0x1001
 37: 0x0FDE [0x02] IF !(ExtData[1]->WorkLocal[33] == 4*) GOTO 0x0FF5
 38: 0x0FE6 [0x47] UPDATE_PLAYER_POS(553.664*, 523.939*, -38.205*, yaw=233.9°*)
 39: 0x0FF0 [0x47] WAIT_PLAYER_POS_UPDATE
 40: 0x0FF2 [0x01] GOTO 0x1001
 41: 0x0FF5 [0x47] UPDATE_PLAYER_POS(-0.185*, 257.800*, -1.000*, yaw=270.0°*)
 42: 0x0FFF [0x47] WAIT_PLAYER_POS_UPDATE

SUBROUTINE_1001:
 43: 0x1001 [0x01] GOTO 0x1083
 44: 0x1004 [0x02] IF !(ExtData[1]->WorkLocal[32] == 6*) GOTO 0x1077
 45: 0x100C [0x02] IF !(ExtData[1]->WorkLocal[31] == 1*) GOTO 0x1023
 46: 0x1014 [0x47] UPDATE_PLAYER_POS(-875.117*, -43.892*, -48.084*, yaw=45.1°*)
 47: 0x101E [0x47] WAIT_PLAYER_POS_UPDATE
 48: 0x1020 [0x01] GOTO 0x1074
 49: 0x1023 [0x02] IF !(ExtData[1]->WorkLocal[31] == 2*) GOTO 0x103A
 50: 0x102B [0x47] UPDATE_PLAYER_POS(-755.499*, 563.947*, -112.035*, yaw=313.5°*)
 51: 0x1035 [0x47] WAIT_PLAYER_POS_UPDATE
 52: 0x1037 [0x01] GOTO 0x1074
 53: 0x103A [0x02] IF !(ExtData[1]->WorkLocal[31] == 3*) GOTO 0x1051
 54: 0x1042 [0x47] UPDATE_PLAYER_POS(123.251*, 754.209*, -172.124*, yaw=38.7°*)
 55: 0x104C [0x47] WAIT_PLAYER_POS_UPDATE
 56: 0x104E [0x01] GOTO 0x1074
 57: 0x1051 [0x02] IF !(ExtData[1]->WorkLocal[31] == 4*) GOTO 0x1068
 58: 0x1059 [0x47] UPDATE_PLAYER_POS(-516.404*, -803.323*, 24.206*, yaw=38.4°*)
 59: 0x1063 [0x47] WAIT_PLAYER_POS_UPDATE
 60: 0x1065 [0x01] GOTO 0x1074
 61: 0x1068 [0x47] UPDATE_PLAYER_POS(-0.185*, 257.800*, -1.000*, yaw=270.0°*)
 62: 0x1072 [0x47] WAIT_PLAYER_POS_UPDATE

SUBROUTINE_1074:
 63: 0x1074 [0x01] GOTO 0x1083
 64: 0x1077 [0x47] UPDATE_PLAYER_POS(-0.185*, 257.800*, -1.000*, yaw=270.0°*)
 65: 0x1081 [0x47] WAIT_PLAYER_POS_UPDATE

SUBROUTINE_1083:
 66: 0x1083 [0x38] SET_CLIENT_EVENT_MODE(mode=19*)
 67: 0x1086 [0x79] LocalPlayer looks at LocalPlayer (Basic look)
 68: 0x1090 [0x1A] CALL_SUBROUTINE(address=0x1FA3)
 69: 0x1093 [0x45] LOAD_SCHEDULED_TASK: Load scheduler "whi1" with entities [LocalPlayer, LocalPlayer], work=[201*, 0*]
 70: 0x10A4 [0x45] LOAD_SCHEDULED_TASK: Load scheduler "blof" with entities [LocalPlayer, LocalPlayer], work=[200*, 0*]
 71: 0x10B5 [0x5C] MUSIC_CONTROL: Set Idle (Day) music to song 0*
 72: 0x10B9 [0x5C] MUSIC_CONTROL: Set Idle (Night) music to song 0*
 73: 0x10BD [0x5C] MUSIC_CONTROL: Set Combat (Solo) music to song 220*
 74: 0x10C1 [0x5C] MUSIC_CONTROL: Set Combat (Party) music to song 220*
 75: 0x10C5 [0x21] END_EVENT
 76: 0x10C6 [0x00] END_REQSTACK()
```

### Event 32004

#### Metadata

| Field        | Value      |
|--------------|------------|
| Entrypoint   | 0x10C7     |
| Data Size    | 4851 bytes |
| Instructions | 2          |

```
      00 01 02 03 04 05 06 07  08 09 0A 0B 0C 0D 0E 0F
      -- -- -- -- -- -- -- --  -- -- -- -- -- -- -- --
10C0:                      21  00 24 0C 80 05 80 00 80         !.$......
10D0: 25 02 00 10 00 80 00 DF  10 05 01 00 01 DF 10 1B  %...............
10E0: 1A CD 20 46 01 38 0F 80  79 00 F0 FF FF 7F F0 FF  .. F.8..y.......
10F0: FF 7F 37 1D 80 98 80 99  80 9A 80 27 10 9B 70 01  ..7........'..p.
1100: 01 03 45 9B 80 F0 FF FF  7F F0 FF FF 7F 7A 32 73  ..E..........z2s
1110: 30 00 80 1A EE 20 1C 9C  80 32 1D 80 1F 00 9D 80  0.... ...2......
1120: 9E 80 99 80 1F 01 27 10  AD 70 01 01 03 1F 00 2F  ......'..p...../
1130: 80 9F 80 99 80 1F 01 6F  1A CD 20 55 9B 80 F0 FF  .......o.. U....
1140: FF 7F F0 FF FF 7F 7A 32  73 30 27 10 9B 70 01 01  ......z2s0'..p..
1150: 04 2D F8 FF FF 7F F8 FF  FF 7F 73 74 61 31 6C F0  .-........sta1l.
1160: FF FF 7F 63 80 05 80 02  03 00 00 80 80 75 11 1A  ...c.........u..
1170: B4 11 01 75 11 94 01 F0  FF FF 7F 79 00 F0 FF FF  ...u.......y....
1180: 7F F0 FF FF 7F 37 A0 80  A1 80 A2 80 7B 80 45 9B  .....7......{.E.
1190: 80 F0 FF FF 7F F0 FF FF  7F 7A 32 61 30 00 80 1A  .........z2a0...
11A0: E9 21 55 9B 80 F0 FF FF  7F F0 FF FF 7F 7A 32 61  .!U..........z2a
11B0: 30 46 00 1B 27 10 B0 70  01 01 04 27 10 B1 70 01  0F..'..p...'..p.
11C0: 01 04 27 10 B2 70 01 01  04 27 10 B3 70 01 01 04  ..'..p...'..p...
11D0: 27 10 B5 70 01 01 02 27  10 B6 70 01 01 02 92 01  '..p...'..p.....
11E0: B0 70 01 01 92 01 B1 70  01 01 92 01 B2 70 01 01  .p.....p.....p..
11F0: 92 01 B3 70 01 01 27 10  F0 FF FF 7F 14 27 10 B0  ...p..'......'..
1200: 70 01 01 0C 27 10 B1 70  01 01 0C 27 10 B2 70 01  p...'..p...'..p.
1210: 01 0C 27 10 B3 70 01 01  0C 27 10 B5 70 01 01 0A  ..'..p...'..p...
1220: 27 10 B6 70 01 01 0A 80  F0 FF FF 7F 5B A3 80 B5  '..p........[...
1230: 70 01 01 B5 70 01 01 63  34 6C 31 1C 01 80 45 0E  p...p..c4l1...E.
1240: 80 F0 FF FF 7F F0 FF FF  7F 66 64 69 32 00 80 45  .........fdi2..E
1250: 9B 80 F0 FF FF 7F F0 FF  FF 7F 64 73 30 30 00 80  ..........ds00..
1260: 27 10 B2 70 01 01 0D 27  10 B3 70 01 01 0D 27 10  '..p...'..p...'.
1270: B0 70 01 01 0D 27 10 B1  70 01 01 0D 27 10 AD 70  .p...'..p...'..p
1280: 01 01 02 32 A4 80 1F 00  A5 80 A6 80 A7 80 1F 01  ...2............
1290: 6F 2A 10 AD 70 01 01 1C  2A 80 27 10 B2 70 01 01  o*..p...*.'..p..
12A0: 0E 27 10 B3 70 01 01 0E  27 10 B0 70 01 01 0E 27  .'..p...'..p...'
12B0: 10 B1 70 01 01 0E 27 10  F0 FF FF 7F 16 94 01 B2  ..p...'.........
12C0: 70 01 01 94 01 B3 70 01  01 94 01 B0 70 01 01 1C  p.....p.....p...
12D0: 01 80 52 9B 80 F0 FF FF  7F F0 FF FF 7F 64 73 30  ..R..........ds0
12E0: 30 45 9B 80 F0 FF FF 7F  F0 FF FF 7F 64 73 30 31  0E..........ds01
12F0: 00 80 1A EE 20 1C 2F 80  2B B2 70 01 01 A8 80 23  .... ./.+.p....#
1300: 52 9B 80 F0 FF FF 7F F0  FF FF 7F 64 73 30 31 45  R..........ds01E
1310: 9B 80 F0 FF FF 7F F0 FF  FF 7F 64 73 30 33 00 80  ..........ds03..
1320: 2B B2 70 01 01 A9 80 23  4A B0 70 01 01 B5 70 01  +.p....#J.p...p.
1330: 01 4A B1 70 01 01 B5 70  01 01 4A B3 70 01 01 B5  .J.p...p..J.p...
1340: 70 01 01 52 9B 80 F0 FF  FF 7F F0 FF FF 7F 64 73  p..R..........ds
1350: 30 33 45 9B 80 F0 FF FF  7F F0 FF FF 7F 64 73 30  03E..........ds0
1360: 32 00 80 45 9B 80 F0 FF  FF 7F F0 FF FF 7F 73 31  2..E..........s1
1370: 32 33 00 80 9F AA 80 B5  70 01 01 B5 70 01 01 73  23......p...p..s
1380: 74 72 31 00 80 1C AB 80  5B AC 80 B2 70 01 01 B2  tr1.....[...p...
1390: 70 01 01 62 69 6E 30 45  9B 80 F0 FF FF 7F F0 FF  p..bin0E........
13A0: FF 7F 73 30 37 36 00 80  9F AD 80 B6 70 01 01 B6  ..s076......p...
13B0: 70 01 01 73 74 72 30 00  80 27 10 AD 70 01 01 04  p..str0..'..p...
13C0: 1C AE 80 1A 0F 21 1C 2A  80 27 10 B0 70 01 01 02  .....!.*.'..p...
13D0: 27 10 B1 70 01 01 02 27  10 B2 70 01 01 02 27 10  '..p...'..p...'.
13E0: B3 70 01 01 02 45 9B 80  F0 FF FF 7F F0 FF FF 7F  .p...E..........
13F0: 6F 62 6C 66 00 80 52 9B  80 F0 FF FF 7F F0 FF FF  oblf..R.........
1400: 7F 64 73 30 32 45 9B 80  F0 FF FF 7F F0 FF FF 7F  .ds02E..........
1410: 6B 31 32 33 00 80 9F AA  80 B5 70 01 01 B5 70 01  k123......p...p.
1420: 01 6B 69 6C 6C 00 80 45  9B 80 F0 FF FF 7F F0 FF  .kill..E........
1430: FF 7F 6B 30 37 36 00 80  9F AD 80 B6 70 01 01 B6  ..k076......p...
1440: 70 01 01 6B 69 6C 6C 00  80 1B 02 19 00 00 80 80  p..kill.........
1450: A2 14 1A E1 14 02 17 00  00 80 80 61 14 30 01 9D  ...........a.0..
1460: 14 94 01 F0 FF FF 7F 79  00 F0 FF FF 7F F0 FF FF  .......y........
1470: 7F 37 78 80 79 80 7A 80  7B 80 45 9B 80 F0 FF FF  .7x.y.z.{.E.....
1480: 7F F0 FF FF 7F 7A 32 77  30 00 80 1A E9 21 55 9B  .....z2w0....!U.
1490: 80 F0 FF FF 7F F0 FF FF  7F 7A 32 77 30 46 00 01  .........z2w0F..
14A0: E0 14 94 01 F0 FF FF 7F  79 00 F0 FF FF 7F F0 FF  ........y.......
14B0: FF 7F 37 78 80 79 80 7A  80 7B 80 45 9B 80 F0 FF  ..7x.y.z.{.E....
14C0: FF 7F F0 FF FF 7F 7A 32  77 30 00 80 1A E9 21 55  ......z2w0....!U
14D0: 9B 80 F0 FF FF 7F F0 FF  FF 7F 7A 32 77 30 46 00  ..........z2w0F.
14E0: 1B 42 1A 0F 21 46 01 38  0F 80 1C 01 80 79 00 F0  .B..!F.8.....y..
14F0: FF FF 7F F0 FF FF 7F 27  10 AF 70 01 01 02 27 10  .......'..p...'.
1500: B0 70 01 01 04 27 10 B1  70 01 01 04 27 10 B2 70  .p...'..p...'..p
1510: 01 01 04 27 10 B3 70 01  01 04 27 10 B4 70 01 01  ...'..p...'..p..
1520: 02 92 01 AF 70 01 01 92  01 B0 70 01 01 92 01 B1  ....p.....p.....
1530: 70 01 01 92 01 B2 70 01  01 92 01 B3 70 01 01 92  p.....p.....p...
1540: 01 B4 70 01 01 27 10 F0  FF FF 7F 17 27 10 AF 70  ..p..'......'..p
1550: 01 01 0A 27 10 B0 70 01  01 0F 27 10 B1 70 01 01  ...'..p...'..p..
1560: 0F 27 10 B2 70 01 01 0F  27 10 B3 70 01 01 0F 27  .'..p...'..p...'
1570: 10 B4 70 01 01 0A 80 F0  FF FF 7F 80 AF 70 01 01  ..p..........p..
1580: 1C 01 80 94 01 AF 70 01  01 94 01 B4 70 01 01 81  ......p.....p...
1590: 00 AF 70 01 01 5B AF 80  AF 70 01 01 AF 70 01 01  ..p..[...p...p..
15A0: 70 6B 61 30 1C 01 80 45  0E 80 F0 FF FF 7F F0 FF  pka0...E........
15B0: FF 7F 66 64 69 32 00 80  45 9B 80 F0 FF FF 7F F0  ..fdi2..E.......
15C0: FF FF 7F 64 62 34 30 00  80 1C 01 80 32 12 80 1F  ...db40.....2...
15D0: 00 00 80 B0 80 B1 80 1F  01 6F 9F B2 80 B4 70 01  .........o....p.
15E0: 01 B4 70 01 01 6D 61 69  6E 00 80 52 9B 80 F0 FF  ..p..main..R....
15F0: FF 7F F0 FF FF 7F 64 62  34 30 45 9B 80 F0 FF FF  ......db40E.....
1600: 7F F0 FF FF 7F 64 62 30  30 00 80 79 00 F0 FF FF  .....db00..y....
1610: 7F B4 70 01 01 79 00 B1  70 01 01 B4 70 01 01 79  ..p..y..p...p..y
1620: 00 B0 70 01 01 B4 70 01  01 79 00 B3 70 01 01 B4  ..p...p..y..p...
1630: 70 01 01 79 00 B2 70 01  01 B4 70 01 01 55 9B 80  p..y..p...p..U..
1640: F0 FF FF 7F F0 FF FF 7F  64 62 30 30 45 9B 80 F0  ........db00E...
1650: FF FF 7F F0 FF FF 7F 64  62 30 31 00 80 27 10 B4  .......db01..'..
1660: 70 01 01 0B 1C 2A 80 5C  00 B3 80 5C 01 B3 80 5C  p....*.\...\...\
1670: 02 B3 80 5C 03 B3 80 9A  2B B0 70 01 01 B4 80 23  ...\....+.p....#
1680: 52 9B 80 F0 FF FF 7F F0  FF FF 7F 64 62 30 31 45  R..........db01E
1690: 9B 80 F0 FF FF 7F F0 FF  FF 7F 64 62 30 33 00 80  ..........db03..
16A0: 1C 2A 80 45 9B 80 F0 FF  FF 7F F0 FF FF 7F 73 32  .*.E..........s2
16B0: 39 37 00 80 9F B5 80 AF  70 01 01 AF 70 01 01 6D  97......p...p..m
16C0: 61 69 6E 00 80 5B B6 80  B1 70 01 01 B1 70 01 01  ain..[...p...p..
16D0: 62 69 6B 30 1C 2A 80 52  9B 80 F0 FF FF 7F F0 FF  bik0.*.R........
16E0: FF 7F 64 62 30 33 45 9B  80 F0 FF FF 7F F0 FF FF  ..db03E.........
16F0: 7F 64 62 30 34 00 80 2B  B1 70 01 01 B7 80 23 55  .db04..+.p....#U
1700: 9B 80 F0 FF FF 7F F0 FF  FF 7F 64 62 30 34 45 9B  ..........db04E.
1710: 80 F0 FF FF 7F F0 FF FF  7F 64 62 30 38 00 80 2B  .........db08..+
1720: B4 70 01 01 B8 80 23 2B  B4 70 01 01 B9 80 23 2B  .p....#+.p....#+
1730: B4 70 01 01 BA 80 23 52  9B 80 F0 FF FF 7F F0 FF  .p....#R........
1740: FF 7F 64 62 30 38 45 9B  80 F0 FF FF 7F F0 FF FF  ..db08E.........
1750: 7F 64 62 30 36 00 80 5B  BB 80 B2 70 01 01 B2 70  .db06..[...p...p
1760: 01 01 74 6C 61 30 2B B2  70 01 01 BC 80 23 52 9B  ..tla0+.p....#R.
1770: 80 F0 FF FF 7F F0 FF FF  7F 64 62 30 36 45 9B 80  .........db06E..
1780: F0 FF FF 7F F0 FF FF 7F  64 62 30 37 00 80 5B BD  ........db07..[.
1790: 80 B0 70 01 01 B0 70 01  01 74 6C 61 30 2B B0 70  ..p...p..tla0+.p
17A0: 01 01 BE 80 23 5B BD 80  B0 70 01 01 B0 70 01 01  ....#[...p...p..
17B0: 74 6C 61 31 6A BF 80 2F  80 10 80 52 9B 80 F0 FF  tla1j../...R....
17C0: FF 7F F0 FF FF 7F 64 62  30 37 45 9B 80 F0 FF FF  ......db07E.....
17D0: 7F F0 FF FF 7F 64 62 30  39 00 80 2B B4 70 01 01  .....db09..+.p..
17E0: C0 80 23 52 9B 80 F0 FF  FF 7F F0 FF FF 7F 64 62  ..#R..........db
17F0: 30 39 45 9B 80 F0 FF FF  7F F0 FF FF 7F 64 62 31  09E..........db1
1800: 34 00 80 2B B4 70 01 01  C1 80 23 2B B4 70 01 01  4..+.p....#+.p..
1810: C2 80 23 6A C3 80 2F 80  10 80 52 9B 80 F0 FF FF  ..#j../...R.....
1820: 7F F0 FF FF 7F 64 62 31  34 45 9B 80 F0 FF FF 7F  .....db14E......
1830: F0 FF FF 7F 64 62 31 30  00 80 5B BB 80 B2 70 01  ....db10..[...p.
1840: 01 B2 70 01 01 74 61 62  30 2B B2 70 01 01 C4 80  ..p..tab0+.p....
1850: 23 2B B2 70 01 01 C5 80  23 6A BF 80 2F 80 10 80  #+.p....#j../...
1860: 52 9B 80 F0 FF FF 7F F0  FF FF 7F 64 62 31 30 45  R..........db10E
1870: 9B 80 F0 FF FF 7F F0 FF  FF 7F 64 62 31 31 00 80  ..........db11..
1880: 5B BB 80 B2 70 01 01 B2  70 01 01 74 6C 62 31 2B  [...p...p..tlb1+
1890: B4 70 01 01 C6 80 23 52  9B 80 F0 FF FF 7F F0 FF  .p....#R........
18A0: FF 7F 64 62 31 31 45 9B  80 F0 FF FF 7F F0 FF FF  ..db11E.........
18B0: 7F 64 62 31 33 00 80 5B  BB 80 B2 70 01 01 B2 70  .db13..[...p...p
18C0: 01 01 74 68 61 30 2B B2  70 01 01 C7 80 23 6A C3  ..tha0+.p....#j.
18D0: 80 2F 80 10 80 52 9B 80  F0 FF FF 7F F0 FF FF 7F  ./...R..........
18E0: 64 62 31 33 45 9B 80 F0  FF FF 7F F0 FF FF 7F 64  db13E..........d
18F0: 62 30 35 00 80 2B B4 70  01 01 C8 80 23 2B B4 70  b05..+.p....#+.p
1900: 01 01 C9 80 23 52 9B 80  F0 FF FF 7F F0 FF FF 7F  ....#R..........
1910: 64 62 30 35 45 9B 80 F0  FF FF 7F F0 FF FF 7F 64  db05E..........d
1920: 62 31 35 00 80 5B CA 80  B0 70 01 01 B0 70 01 01  b15..[...p...p..
1930: 74 6C 68 30 2B B0 70 01  01 CB 80 23 52 9B 80 F0  tlh0+.p....#R...
1940: FF FF 7F F0 FF FF 7F 64  62 31 35 45 9B 80 F0 FF  .......db15E....
1950: FF 7F F0 FF FF 7F 64 62  31 36 00 80 5B CA 80 B0  ......db16..[...
1960: 70 01 01 B0 70 01 01 74  6C 68 31 7B B3 70 01 01  p...p..tlh1{.p..
1970: 66 29 80 B3 70 01 01 B3  70 01 01 74 68 6B 31 2B  f)..p...p..thk1+
1980: B3 70 01 01 CC 80 23 6A  BF 80 2F 80 10 80 52 9B  .p....#j../...R.
1990: 80 F0 FF FF 7F F0 FF FF  7F 64 62 31 36 45 9B 80  .........db16E..
19A0: F0 FF FF 7F F0 FF FF 7F  64 62 31 37 00 80 5B CD  ........db17..[.
19B0: 80 B4 70 01 01 B4 70 01  01 6C 61 75 30 2B B4 70  ..p...p..lau0+.p
19C0: 01 01 CE 80 23 2B B4 70  01 01 CF 80 23 6A C3 80  ....#+.p....#j..
19D0: 2F 80 10 80 52 9B 80 F0  FF FF 7F F0 FF FF 7F 64  /...R..........d
19E0: 62 31 37 45 9B 80 F0 FF  FF 7F F0 FF FF 7F 64 62  b17E..........db
19F0: 31 38 00 80 5B BB 80 B2  70 01 01 B2 70 01 01 74  18..[...p...p..t
1A00: 68 61 31 66 29 80 B3 70  01 01 B3 70 01 01 74 68  ha1f)..p...p..th
1A10: 6B 32 79 00 B3 70 01 01  B4 70 01 01 2B B3 70 01  k2y..p...p..+.p.
1A20: 01 D0 80 1C D1 80 2B B4  70 01 01 D2 80 23 2B B4  ......+.p....#+.
1A30: 70 01 01 D3 80 23 52 9B  80 F0 FF FF 7F F0 FF FF  p....#R.........
1A40: 7F 64 62 31 38 45 9B 80  F0 FF FF 7F F0 FF FF 7F  .db18E..........
1A50: 64 62 31 39 00 80 7B B0  70 01 01 2B B1 70 01 01  db19..{.p..+.p..
1A60: D4 80 23 6A D5 80 2F 80  10 80 52 9B 80 F0 FF FF  ..#j../...R.....
1A70: 7F F0 FF FF 7F 64 62 31  39 45 9B 80 F0 FF FF 7F  .....db19E......
1A80: F0 FF FF 7F 64 62 32 30  00 80 5B BD 80 B0 70 01  ....db20..[...p.
1A90: 01 B0 70 01 01 74 68 6B  30 1C D1 80 2B B0 70 01  ..p..thk0...+.p.
1AA0: 01 D6 80 23 52 9B 80 F0  FF FF 7F F0 FF FF 7F 64  ...#R..........d
1AB0: 62 32 30 45 9B 80 F0 FF  FF 7F F0 FF FF 7F 64 62  b20E..........db
1AC0: 32 31 00 80 5B BD 80 B0  70 01 01 B0 70 01 01 68  21..[...p...p..h
1AD0: 74 61 30 79 00 B0 70 01  01 B4 70 01 01 2B B0 70  ta0y..p...p..+.p
1AE0: 01 01 D7 80 23 6A BF 80  2F 80 10 80 52 9B 80 F0  ....#j../...R...
1AF0: FF FF 7F F0 FF FF 7F 64  62 32 31 45 9B 80 F0 FF  .......db21E....
1B00: FF 7F F0 FF FF 7F 64 62  32 32 00 80 5B BD 80 B0  ......db22..[...
1B10: 70 01 01 B0 70 01 01 74  6C 61 31 1C D8 80 2B B4  p...p..tla1...+.
1B20: 70 01 01 D9 80 23 7B B2  70 01 01 5B BB 80 B2 70  p....#{.p..[...p
1B30: 01 01 B2 70 01 01 74 68  62 30 2B B4 70 01 01 DA  ...p..thb0+.p...
1B40: 80 23 6A C3 80 2F 80 10  80 52 9B 80 F0 FF FF 7F  .#j../...R......
1B50: F0 FF FF 7F 64 62 32 32  45 9B 80 F0 FF FF 7F F0  ....db22E.......
1B60: FF FF 7F 64 62 32 33 00  80 7C 00 B2 70 01 01 2B  ...db23..|..p..+
1B70: B2 70 01 01 DB 80 23 7C  01 B2 70 01 01 6A BF 80  .p....#|..p..j..
1B80: 2F 80 10 80 52 9B 80 F0  FF FF 7F F0 FF FF 7F 64  /...R..........d
1B90: 62 32 33 45 9B 80 F0 FF  FF 7F F0 FF FF 7F 64 62  b23E..........db
1BA0: 32 34 00 80 2B B4 70 01  01 DC 80 23 2B B4 70 01  24..+.p....#+.p.
1BB0: 01 DD 80 23 6A C3 80 2F  80 10 80 52 9B 80 F0 FF  ...#j../...R....
1BC0: FF 7F F0 FF FF 7F 64 62  32 34 45 9B 80 F0 FF FF  ......db24E.....
1BD0: 7F F0 FF FF 7F 64 62 32  35 00 80 5B CA 80 B0 70  .....db25..[...p
1BE0: 01 01 B0 70 01 01 74 6C  68 32 2B B0 70 01 01 DE  ...p..tlh2+.p...
1BF0: 80 23 2B B0 70 01 01 DF  80 23 6A BF 80 2F 80 10  .#+.p....#j../..
1C00: 80 52 9B 80 F0 FF FF 7F  F0 FF FF 7F 64 62 32 35  .R..........db25
1C10: 45 9B 80 F0 FF FF 7F F0  FF FF 7F 64 62 32 36 00  E..........db26.
1C20: 80 5B CA 80 B0 70 01 01  B0 70 01 01 74 6C 68 33  .[...p...p..tlh3
1C30: 2B B4 70 01 01 E0 80 23  2B B4 70 01 01 E1 80 23  +.p....#+.p....#
1C40: 6A C3 80 2F 80 10 80 52  9B 80 F0 FF FF 7F F0 FF  j../...R........
1C50: FF 7F 64 62 32 36 45 9B  80 F0 FF FF 7F F0 FF FF  ..db26E.........
1C60: 7F 64 62 32 37 00 80 2B  B4 70 01 01 E2 80 23 2B  .db27..+.p....#+
1C70: B4 70 01 01 E3 80 23 5D  00 80 39 80 1A 0F 21 1C  .p....#]..9...!.
1C80: E4 80 52 9B 80 F0 FF FF  7F F0 FF FF 7F 64 62 32  ..R..........db2
1C90: 37 45 9B 80 F0 FF FF 7F  F0 FF FF 7F 30 62 6C 66  7E..........0blf
1CA0: 00 80 27 10 AF 70 01 01  0B 80 AF 70 01 01 79 00  ..'..p.....p..y.
1CB0: F0 FF FF 7F AF 70 01 01  79 00 B1 70 01 01 AF 70  .....p..y..p...p
1CC0: 01 01 79 00 B0 70 01 01  AF 70 01 01 79 00 B3 70  ..y..p...p..y..p
1CD0: 01 01 AF 70 01 01 79 00  B2 70 01 01 AF 70 01 01  ...p..y..p...p..
1CE0: 5B B6 80 B1 70 01 01 B1  70 01 01 62 69 6B 31 5B  [...p...p..bik1[
1CF0: E5 80 AF 70 01 01 AF 70  01 01 75 6B 75 31 5B BB  ...p...p..uku1[.
1D00: 80 B2 70 01 01 B2 70 01  01 74 68 62 31 81 01 AF  ..p...p..thb1...
1D10: 70 01 01 48 E6 80 23 2B  AE 70 01 01 E7 80 23 5C  p..H..#+.p....#\
1D20: 00 E8 80 5C 01 E8 80 5C  02 E8 80 5C 03 E8 80 9A  ...\...\...\....
1D30: 45 9B 80 F0 FF FF 7F F0  FF FF 7F 70 72 30 30 00  E..........pr00.
1D40: 80 1A EE 20 5B E5 80 AF  70 01 01 AF 70 01 01 75  ... [...p...p..u
1D50: 6B 75 32 55 9B 80 F0 FF  FF 7F F0 FF FF 7F 70 72  ku2U..........pr
1D60: 30 30 27 10 B1 70 01 01  10 2B B1 70 01 01 E9 80  00'..p...+.p....
1D70: 23 45 9B 80 F0 FF FF 7F  F0 FF FF 7F 64 62 32 38  #E..........db28
1D80: 00 80 29 10 AF 70 01 01  0C 1C 01 80 52 9B 80 F0  ..)..p......R...
1D90: FF FF 7F F0 FF FF 7F 64  62 32 38 45 9B 80 F0 FF  .......db28E....
1DA0: FF 7F F0 FF FF 7F 64 62  33 30 00 80 4A AF 70 01  ......db30..J.p.
1DB0: 01 B4 70 01 01 1C 01 80  5B EA 80 AF 70 01 01 AF  ..p.....[...p...
1DC0: 70 01 01 6F 72 61 30 2B  AF 70 01 01 EB 80 23 55  p..ora0+.p....#U
1DD0: 9B 80 F0 FF FF 7F F0 FF  FF 7F 64 62 33 30 45 9B  ..........db30E.
1DE0: 80 F0 FF FF 7F F0 FF FF  7F 64 62 33 33 00 80 5B  .........db33..[
1DF0: EA 80 AF 70 01 01 AF 70  01 01 6F 72 61 31 2B AF  ...p...p..ora1+.
1E00: 70 01 01 EC 80 23 55 9B  80 F0 FF FF 7F F0 FF FF  p....#U.........
1E10: 7F 64 62 33 33 45 9B 80  F0 FF FF 7F F0 FF FF 7F  .db33E..........
1E20: 64 62 33 35 00 80 2B AF  70 01 01 ED 80 23 6A BF  db35..+.p....#j.
1E30: 80 2F 80 10 80 52 9B 80  F0 FF FF 7F F0 FF FF 7F  ./...R..........
1E40: 64 62 33 35 45 9B 80 F0  FF FF 7F F0 FF FF 7F 64  db35E..........d
1E50: 62 33 31 00 80 5B EE 80  AF 70 01 01 AF 70 01 01  b31..[...p...p..
1E60: 63 34 31 32 5B CD 80 B4  70 01 01 B4 70 01 01 61  c412[...p...p..a
1E70: 6E 67 30 2B B4 70 01 01  EF 80 23 2B B4 70 01 01  ng0+.p....#+.p..
1E80: F0 80 23 52 9B 80 F0 FF  FF 7F F0 FF FF 7F 64 62  ..#R..........db
1E90: 33 31 45 9B 80 F0 FF FF  7F F0 FF FF 7F 64 62 33  31E..........db3
1EA0: 32 00 80 5B CD 80 B4 70  01 01 B4 70 01 01 69 72  2..[...p...p..ir
1EB0: 61 30 2B B4 70 01 01 F1  80 23 6A C3 80 2F 80 10  a0+.p....#j../..
1EC0: 80 52 9B 80 F0 FF FF 7F  F0 FF FF 7F 64 62 33 32  .R..........db32
1ED0: 45 9B 80 F0 FF FF 7F F0  FF FF 7F 64 62 33 34 00  E..........db34.
1EE0: 80 7B AF 70 01 01 2B AF  70 01 01 F2 80 23 2B AF  .{.p..+.p....#+.
1EF0: 70 01 01 F3 80 55 9B 80  F0 FF FF 7F F0 FF FF 7F  p....U..........
1F00: 64 62 33 34 45 9B 80 F0  FF FF 7F F0 FF FF 7F 64  db34E..........d
1F10: 62 33 36 00 80 5D 00 80  F4 80 1C 9C 80 1A 51 21  b36..]........Q!
1F20: 1C E4 80 5C 00 00 80 5C  01 00 80 5C 02 34 80 5C  ...\...\...\.4.\
1F30: 03 34 80 9A 52 9B 80 F0  FF FF 7F F0 FF FF 7F 64  .4..R..........d
1F40: 62 33 36 45 9B 80 F0 FF  FF 7F F0 FF FF 7F 30 62  b36E..........0b
1F50: 6C 66 00 80 1A 0F 21 1A  30 21 1C 2A 80 27 10 AF  lf....!.0!.*.'..
1F60: 70 01 01 05 27 10 B0 70  01 01 05 27 10 B1 70 01  p...'..p...'..p.
1F70: 01 05 27 10 B2 70 01 01  05 27 10 B3 70 01 01 05  ..'..p...'..p...
1F80: 27 10 B4 70 01 01 05 1B  24 F5 80 05 80 00 80 25  '..p....$......%
1F90: 02 00 10 00 80 00 9E 1F  05 1D 00 01 9E 1F 1B 05  ................
1FA0: 1E 00 1B 1A CD 20 46 01  37 F6 80 F7 80 A7 80 F8  ..... F.7.......
1FB0: 80 27 10 9C 70 01 01 03  45 9B 80 F0 FF FF 7F F0  .'..p...E.......
1FC0: FF FF 7F 7A 32 65 30 00  80 1A EE 20 1C 9C 80 32  ...z2e0.... ...2
1FD0: A4 80 1F 00 F9 80 FA 80  A7 80 1F 01 27 10 AD 70  ............'..p
1FE0: 01 01 03 1F 00 FB 80 FC  80 A7 80 1F 01 6F 1A CD  .............o..
1FF0: 20 55 9B 80 F0 FF FF 7F  F0 FF FF 7F 7A 32 65 30   U..........z2e0
2000: 27 10 9C 70 01 01 04 2D  F8 FF FF 7F F8 FF FF 7F  '..p...-........
2010: 73 74 73 32 6C F0 FF FF  7F 63 80 05 80 94 01 F0  sts2l....c......
2020: FF FF 7F 79 00 F0 FF FF  7F F0 FF FF 7F 37 4E 80  ...y.........7N.
2030: 4F 80 50 80 51 80 45 9B  80 F0 FF FF 7F F0 FF FF  O.P.Q.E.........
2040: 7F 7A 32 65 31 00 80 1A  E9 21 55 9B 80 F0 FF FF  .z2e1....!U.....
2050: 7F F0 FF FF 7F 7A 32 65  31 46 00 1B 1A CD 20 46  .....z2e1F.... F
2060: 01 94 01 F0 FF FF 7F 79  00 F0 FF FF 7F F0 FF FF  .......y........
2070: 7F 37 4E 80 4F 80 50 80  51 80 45 9B 80 F0 FF FF  .7N.O.P.Q.E.....
2080: 7F F0 FF FF 7F 7A 32 65  31 00 80 1A E9 21 55 9B  .....z2e1....!U.
2090: 80 F0 FF FF 7F F0 FF FF  7F 7A 32 65 31 46 00 1B  .........z2e1F..
20A0: 02 03 00 00 80 80 AB 20  01 AB 20 1B 45 0E 80 F0  ....... .. .E...
20B0: FF FF 7F F0 FF FF 7F 66  64 69 30 00 80 55 0E 80  .......fdi0..U..
20C0: F0 FF FF 7F F0 FF FF 7F  66 64 69 30 1B 45 0E 80  ........fdi0.E..
20D0: F0 FF FF 7F F0 FF FF 7F  66 64 6F 30 00 80 55 0E  ........fdo0..U.
20E0: 80 F0 FF FF 7F F0 FF FF  7F 66 64 6F 30 1B 45 0E  .........fdo0.E.
20F0: 80 F0 FF FF 7F F0 FF FF  7F 66 64 69 31 00 80 55  .........fdi1..U
2100: 0E 80 F0 FF FF 7F F0 FF  FF 7F 66 64 69 31 1B 45  ..........fdi1.E
2110: 0E 80 F0 FF FF 7F F0 FF  FF 7F 66 64 6F 31 00 80  ..........fdo1..
2120: 55 0E 80 F0 FF FF 7F F0  FF FF 7F 66 64 6F 31 1B  U..........fdo1.
2130: 45 36 80 F0 FF FF 7F F0  FF FF 7F 77 68 69 31 00  E6.........whi1.
2140: 80 55 36 80 F0 FF FF 7F  F0 FF FF 7F 77 68 69 31  .U6.........whi1
