# Event 219

## Metadata

| Field           | Value    |
|-----------------|----------|
| Event Index     | 5/5      |
| Offset          | 0x0034   |
| Data Size       | 67 bytes |
| Calculated Size | 67 bytes |
| Instructions    | 12       |

```
      00 01 02 03 04 05 06 07  08 09 0A 0B 0C 0D 0E 0F
      -- -- -- -- -- -- -- --  -- -- -- -- -- -- -- --
0030:             20 01 42 03  09 10 02 80 1E F0 FF FF       .B.........
0040: 7F 1C 06 80 5B 07 80 F8  FF FF 7F F8 FF FF 7F 70  ....[..........p
0050: 61 73 30 1D 08 80 23 53  F8 FF FF 7F F8 FF FF 7F  as0...#S........
0060: 70 61 73 30 45 09 80 F0  FF FF 7F F0 FF FF 7F 71  pas0E..........q
0070: 73 74 63 0A 80 21 00                              stc..!.         
```

## Opcodes

```
  0: 0x0034 [0x20] SET_CLI_EVENT_UC_FLAG: Lock player control
  1: 0x0036 [0x42] SET_CLI_EVENT_CANCEL_DATA()
  2: 0x0037 [0x03] Work_Zone[9] = 768*
  3: 0x003C [0x1E] EventEntity looks at LocalPlayer and starts talking
  4: 0x0041 [0x1C] WAIT(5* ticks)
  5: 0x0044 [0x5B] LOAD_EXT_SCHEDULER: Load scheduler "pas0" with entities [EventEntity, EventEntity], work=70*
  6: 0x0053 [0x1D] PRINT_EVENT_MESSAGE(message_id=7527*)
    → "Great! Thank you!\u0007Here's your money.\u0007Now, stand back! It's cooking time!\u007F1\u0000\u0007"
  7: 0x0056 [0x23] WAIT_FOR_DIALOG_INTERACTION
  8: 0x0057 [0x53] WAIT_SCHEDULER_TASK: Wait for scheduler "pas0" with entities [EventEntity, EventEntity]
  9: 0x0064 [0x45] LOAD_SCHEDULED_TASK: Load scheduler "qstc" with entities [LocalPlayer, LocalPlayer], work=[201*, 0*]
 10: 0x0075 [0x21] END_EVENT
 11: 0x0076 [0x00] END_REQSTACK()
```
