# Event 390

## Metadata

| Field           | Value    |
|-----------------|----------|
| Event Index     | 11/13    |
| Offset          | 0x0105   |
| Data Size       | 33 bytes |
| Calculated Size | 33 bytes |
| Instructions    | 12       |

```
      00 01 02 03 04 05 06 07  08 09 0A 0B 0C 0D 0E 0F
      -- -- -- -- -- -- -- --  -- -- -- -- -- -- -- --
0100:                1E F0 FF  FF 7F 6F 70 29 08 89 10       .....op)...
0110: 0F 01 01 1D 10 80 23 1D  11 80 23 29 08 89 10 0F  ......#...#)....
0120: 01 03 20 00 21 00                                 .. .!.          
```

## Opcodes

```
  0: 0x0105 [0x1E] EventEntity looks at LocalPlayer and starts talking
  1: 0x010A [0x6F] WAIT_FRAME_DELAY: Yield until WaitTime reaches zero
  2: 0x010B [0x70] WAIT_ENTITY_RENDER_FLAG: Wait while EventEntity->Render.Flags3 bit 2 is set (cancel turn if not)
  3: 0x010C [0x29] REQ_SET_WAIT(priority=0x08, entity_id=Umumu (ID: 17764489/0x010F1089), tag_num=0x01)
  4: 0x0113 [0x1D] PRINT_EVENT_MESSAGE(message_id=8445*)
    → "What do you mean, my scoop expos\u0008i has been stolen!?\u007F1\u0000\u0007"
  5: 0x0116 [0x23] WAIT_FOR_DIALOG_INTERACTION
  6: 0x0117 [0x1D] PRINT_EVENT_MESSAGE(message_id=8446*)
    → "That dirty, rotten, low-down Cat Burglar! She's made a preemptive strike so as not to be caught outaru. This is a cat-astrophe!\u007F1\u0000\u0007"
  7: 0x011A [0x23] WAIT_FOR_DIALOG_INTERACTION
  8: 0x011B [0x29] REQ_SET_WAIT(priority=0x08, entity_id=Umumu (ID: 17764489/0x010F1089), tag_num=0x03)
  9: 0x0122 [0x20] SET_CLI_EVENT_UC_FLAG: Unlock player control
 10: 0x0124 [0x21] END_EVENT
 11: 0x0125 [0x00] END_REQSTACK()
```
