# Event 65535

## Metadata

| Field           | Value    |
|-----------------|----------|
| Event Index     | 27/84    |
| Offset          | 0x01B0   |
| Data Size       | 45 bytes |
| Calculated Size | 45 bytes |
| Instructions    | 7        |

```
      00 01 02 03 04 05 06 07  08 09 0A 0B 0C 0D 0E 0F
      -- -- -- -- -- -- -- --  -- -- -- -- -- -- -- --
01B0: 32 05 80 1F 00 1B 80 1C  80 1D 80 1F 01 1C 17 80  2...............
01C0: 5B 00 80 F8 FF FF 7F F8  FF FF 7F 62 69 6B 30 53  [..........bik0S
01D0: F8 FF FF 7F F8 FF FF 7F  62 69 6B 30 00           ........bik0.   
```

## Opcodes

```
  0: 0x01B0 [0x32] ExtData[1]->MainSpeed = 40* * 0.1
  1: 0x01B3 [0x1F] MOVE_ENTITY: EventEntity moves to X=-6.490*, Z=6.459*, Y=0.435*
  2: 0x01BB [0x1F] MOVE_ENTITY: Update entity position (mode=1)
  3: 0x01BD [0x1C] WAIT(20* ticks)
  4: 0x01C0 [0x5B] LOAD_EXT_SCHEDULER(work_offset=3566*, entity1=EventEntity, entity2=EventEntity, action="bik0")
  5: 0x01CF [0x53] WAIT_SCHEDULER_TASK(entity1=EventEntity, entity2=EventEntity, action_id="bik0")
  6: 0x01DC [0x00] END_REQSTACK()
```
