# Event 65535

## Metadata

| Field           | Value    |
|-----------------|----------|
| Event Index     | 64/84    |
| Offset          | 0x0385   |
| Data Size       | 32 bytes |
| Calculated Size | 32 bytes |
| Instructions    | 8        |

```
      00 01 02 03 04 05 06 07  08 09 0A 0B 0C 0D 0E 0F
      -- -- -- -- -- -- -- --  -- -- -- -- -- -- -- --
0380:                32 09 80  1F 00 67 80 68 80 69 80       2....g.h.i.
0390: 1F 01 1C 17 80 4A F8 FF  FF 7F 52 80 11 01 6F 76  .....J....R...ov
03A0: F8 FF FF 7F 00                                    .....           
```

## Opcodes

```
  0: 0x0385 [0x32] ExtData[1]->MainSpeed = 13* * 0.1
  1: 0x0388 [0x1F] MOVE_ENTITY: EventEntity moves to X=10.626*, Z=-18.181*, Y=1.424*
  2: 0x0390 [0x1F] MOVE_ENTITY: Update entity position (mode=1)
  3: 0x0392 [0x1C] WAIT(20* ticks)
  4: 0x0395 [0x4A] EventEntity looks at KANI01 (ID: 17924178/0x01118052)
  5: 0x039E [0x6F] WAIT_FRAME_DELAY: Yield until WaitTime reaches zero
  6: 0x039F [0x76] CHECK_ENTITY_RENDER_FLAGS: Wait until EventEntity Render.Flags0 and Render.Flags3 conditions are met
  7: 0x03A4 [0x00] END_REQSTACK()
```
