# Event 65535

## Metadata

| Field           | Value    |
|-----------------|----------|
| Event Index     | 15/15    |
| Offset          | 0x00C6   |
| Data Size       | 52 bytes |
| Calculated Size | 52 bytes |
| Instructions    | 10       |

```
      00 01 02 03 04 05 06 07  08 09 0A 0B 0C 0D 0E 0F
      -- -- -- -- -- -- -- --  -- -- -- -- -- -- -- --
00C0:                   03 00  00 1E 80 03 01 00 22 80        ........".
00D0: 02 00 00 1E 80 00 F9 00  07 01 00 23 80 37 24 80  ...........#.7$.
00E0: 01 00 25 80 26 80 02 01  00 27 80 00 F3 00 03 00  ..%.&....'......
00F0: 00 28 80 1C 28 80 01 D0  00 00                    .(..(.....      
```

## Opcodes

```
  0: 0x00C6 [0x03] ExtData[1]->WorkLocal[0] = 0*
  1: 0x00CB [0x03] ExtData[1]->WorkLocal[1] = 156779*
  2: 0x00D0 [0x02] IF !(ExtData[1]->WorkLocal[0] == 0*) GOTO 0x00F9
  3: 0x00D8 [0x07] ExtData[1]->WorkLocal[1] += 180*
  4: 0x00DD [0x37] UPDATE_EVENT_POSITION_AND_DIR: x=378.860*, z=ExtData[1]->WorkLocal[1], y=2.212*, direction=265.8°*
  5: 0x00E6 [0x02] IF !(ExtData[1]->WorkLocal[1] == 170579*) GOTO 0x00F3
  6: 0x00EE [0x03] ExtData[1]->WorkLocal[0] = 1*
  7: 0x00F3 [0x1C] WAIT(1* ticks)
  8: 0x00F6 [0x01] GOTO 0x00D0

SUBROUTINE_00F9:
  9: 0x00F9 [0x00] END_REQSTACK()
```
