# Event 65535

## Metadata

| Field           | Value    |
|-----------------|----------|
| Event Index     | 5/9      |
| Offset          | 0x007B   |
| Data Size       | 67 bytes |
| Calculated Size | 67 bytes |
| Instructions    | 9        |

```
      00 01 02 03 04 05 06 07  08 09 0A 0B 0C 0D 0E 0F
      -- -- -- -- -- -- -- --  -- -- -- -- -- -- -- --
0070:                                   5B 06 80 F8 FF             [....
0080: FF 7F F8 FF FF 7F 74 6C  62 30 1D 0A 80 23 1D 0B  ......tlb0...#..
0090: 80 23 53 F8 FF FF 7F F8  FF FF 7F 74 6C 62 30 55  .#S........tlb0U
00A0: 00 80 F0 FF FF 7F F0 FF  FF 7F 73 65 30 38 5B 06  ..........se08[.
00B0: 80 F8 FF FF 7F F8 FF FF  7F 6F 74 69 30 00        .........oti0.  
```

## Opcodes

```
  0: 0x007B [0x5B] LOAD_EXT_SCHEDULER(work_offset=70*, entity1=EventEntity, entity2=EventEntity, action="tlb0")
  1: 0x008A [0x1D] PRINT_EVENT_MESSAGE(message_id=6998*)
    → "Th-that \u0001\u0005#\u0002\u0001\u0000\u0000!\u0007Where did you...?\u007F1\u0000\u0007"
  2: 0x008D [0x23] WAIT_FOR_DIALOG_INTERACTION
  3: 0x008E [0x1D] PRINT_EVENT_MESSAGE(message_id=6999*)
    → "From a pirate...!?\u0007Then he's really...\u007F1\u0000\u0007"
  4: 0x0091 [0x23] WAIT_FOR_DIALOG_INTERACTION
  5: 0x0092 [0x53] WAIT_SCHEDULER_TASK(entity1=EventEntity, entity2=EventEntity, action_id="tlb0")
  6: 0x009F [0x55] WAIT_LOAD_SCHEDULER(work_offset=149*, entity1=LocalPlayer, entity2=LocalPlayer, scheduler_id="se08")
  7: 0x00AE [0x5B] LOAD_EXT_SCHEDULER(work_offset=70*, entity1=EventEntity, entity2=EventEntity, action="oti0")
  8: 0x00BD [0x00] END_REQSTACK()
```
