# Event 65535

## Metadata

| Field           | Value    |
|-----------------|----------|
| Event Index     | 10/10    |
| Offset          | 0x0044   |
| Data Size       | 39 bytes |
| Calculated Size | 39 bytes |
| Instructions    | 9        |

```
      00 01 02 03 04 05 06 07  08 09 0A 0B 0C 0D 0E 0F
      -- -- -- -- -- -- -- --  -- -- -- -- -- -- -- --
0040:             59 04 F8 FF  FF 7F 03 80 1F 00 04 80      Y...........
0050: 05 80 06 80 1F 01 6F 59  04 F8 FF FF 7F 07 80 1F  ......oY........
0060: 00 08 80 09 80 06 80 1F  01 6F 00                 .........o.     
```

## Opcodes

```
  0: 0x0044 [0x59] UPDATE_ENTITY_DATA: Set EventEntity main speed = 40* * 0.1
  1: 0x004C [0x1F] MOVE_ENTITY: EventEntity moves to X=-44.677*, Z=59.402*, Y=-3.499*
  2: 0x0054 [0x1F] MOVE_ENTITY: Update entity position (mode=1)
  3: 0x0056 [0x6F] WAIT_FRAME_DELAY: Yield until WaitTime reaches zero
  4: 0x0057 [0x59] UPDATE_ENTITY_DATA: Set EventEntity main speed = 13* * 0.1
  5: 0x005F [0x1F] MOVE_ENTITY: EventEntity moves to X=-49.091*, Z=50.124*, Y=-3.499*
  6: 0x0067 [0x1F] MOVE_ENTITY: Update entity position (mode=1)
  7: 0x0069 [0x6F] WAIT_FRAME_DELAY: Yield until WaitTime reaches zero
  8: 0x006A [0x00] END_REQSTACK()
```
