# Event 5058

## Metadata

| Field           | Value    |
|-----------------|----------|
| Event Index     | 24/37    |
| Offset          | 0x013D   |
| Data Size       | 59 bytes |
| Calculated Size | 59 bytes |
| Instructions    | 9        |

```
      00 01 02 03 04 05 06 07  08 09 0A 0B 0C 0D 0E 0F
      -- -- -- -- -- -- -- --  -- -- -- -- -- -- -- --
0130:                                         66 00 80               f..
0140: F8 FF FF 7F F8 FF FF 7F  74 6C 6B 30 1D 05 80 23  ........tlk0...#
0150: 66 00 80 F8 FF FF 7F F8  FF FF 7F 74 6C 6B 31 66  f..........tlk1f
0160: 06 80 F5 10 10 01 F5 10  10 01 74 6C 6B 30 2B F2  ..........tlk0+.
0170: 10 10 01 07 80 23 21 00                           .....#!.        
```

## Opcodes

```
  0: 0x013D [0x66] LOAD_EXT_SCHEDULER_MAIN(work_offset=199*, entity1=EventEntity, entity2=EventEntity, action="tlk0")
  1: 0x014C [0x1D] PRINT_EVENT_MESSAGE(message_id=10238*)
    → "I heard the Scouts' Coalition is wrrriting a piece on Robertioux.\u007F1\u0000\u0007"
  2: 0x014F [0x23] WAIT_FOR_DIALOG_INTERACTION
  3: 0x0150 [0x66] LOAD_EXT_SCHEDULER_MAIN(work_offset=199*, entity1=EventEntity, entity2=EventEntity, action="tlk1")
  4: 0x015F [0x66] LOAD_EXT_SCHEDULER_MAIN(work_offset=179*, entity1=Adelise (ID: 17830133/0x011010F5), entity2=Adelise (ID: 17830133/0x011010F5), action="tlk0")
  5: 0x016E [0x2B] Rigobertine (ID: 17830130/0x011010F2) [10239*]:
    → "That is simply wonderful!\u0007I cannot recall the last time that one of us Weatherspoon members was featured in any publication.\u007F1\u0000\u0007"
  6: 0x0175 [0x23] WAIT_FOR_DIALOG_INTERACTION
  7: 0x0176 [0x21] END_EVENT
  8: 0x0177 [0x00] END_REQSTACK()
```
