# Event 65535

## Metadata

| Field           | Value    |
|-----------------|----------|
| Event Index     | 31/68    |
| Offset          | 0x03B5   |
| Data Size       | 57 bytes |
| Calculated Size | 57 bytes |
| Instructions    | 9        |

```
      00 01 02 03 04 05 06 07  08 09 0A 0B 0C 0D 0E 0F
      -- -- -- -- -- -- -- --  -- -- -- -- -- -- -- --
03B0:                32 22 80  1F 00 6D 80 6E 80 6F 80       2"...m.n.o.
03C0: 1F 01 4B 44 10 0F 01 70  80 1C 26 80 5B 25 80 44  ..KD...p..&.[%.D
03D0: 10 0F 01 44 10 0F 01 6B  75 65 30 1C 26 80 5B 27  ...D...kue0.&.['
03E0: 80 44 10 0F 01 44 10 0F  01 31 30 30 39 00        .D...D...1009.  
```

## Opcodes

```
  0: 0x03B5 [0x32] ExtData[1]->MainSpeed = 19* * 0.1
  1: 0x03B8 [0x1F] MOVE_ENTITY: EventEntity moves to X=-63.510*, Z=-699.499*, Y=8.792*
  2: 0x03C0 [0x1F] MOVE_ENTITY: Update entity position (mode=1)
  3: 0x03C2 [0x4B] UPDATE_ENTITY_YAW(entity=Unnamed NPC (ID: 17764420/0x010F1044), yaw=1.6°*)
  4: 0x03C9 [0x1C] WAIT(60* ticks)
  5: 0x03CC [0x5B] LOAD_EXT_SCHEDULER: Load scheduler "kue0" with entities [Unnamed NPC (ID: 17764420/0x010F1044), Unnamed NPC (ID: 17764420/0x010F1044)], work=875*
  6: 0x03DB [0x1C] WAIT(60* ticks)
  7: 0x03DE [0x5B] LOAD_EXT_SCHEDULER: Load scheduler "1009" with entities [Unnamed NPC (ID: 17764420/0x010F1044), Unnamed NPC (ID: 17764420/0x010F1044)], work=224*
  8: 0x03ED [0x00] END_REQSTACK()
```
