# Event 65535

## Metadata

| Field           | Value    |
|-----------------|----------|
| Event Index     | 33/68    |
| Offset          | 0x03FA   |
| Data Size       | 68 bytes |
| Calculated Size | 68 bytes |
| Instructions    | 12       |

```
      00 01 02 03 04 05 06 07  08 09 0A 0B 0C 0D 0E 0F
      -- -- -- -- -- -- -- --  -- -- -- -- -- -- -- --
03F0:                                32 22 80 5A 00 75            2".Z.u
0400: 80 76 80 77 80 5A 01 5A  00 78 80 79 80 7A 80 5A  .v.w.Z.Z.x.y.z.Z
0410: 01 1C 1C 80 1E F0 FF FF  7F 1C 1C 80 5B 25 80 44  ............[%.D
0420: 10 0F 01 44 10 0F 01 6B  75 65 30 1C 26 80 5B 27  ...D...kue0.&.['
0430: 80 44 10 0F 01 44 10 0F  01 31 30 30 39 00        .D...D...1009.  
```

## Opcodes

```
  0: 0x03FA [0x32] ExtData[1]->MainSpeed = 19* * 0.1
  1: 0x03FD [0x5A] UPDATE_EVENT_POSITION: Set EventEntity MovePosition to X=-33.518*, Z=-584.644*, Y=31.775*
  2: 0x0405 [0x5A] UPDATE_EVENT_POSITION: Move EventEntity incrementally towards MovePosition
  3: 0x0407 [0x5A] UPDATE_EVENT_POSITION: Set EventEntity MovePosition to X=-32.172*, Z=-587.202*, Y=30.496*
  4: 0x040F [0x5A] UPDATE_EVENT_POSITION: Move EventEntity incrementally towards MovePosition
  5: 0x0411 [0x1C] WAIT(30* ticks)
  6: 0x0414 [0x1E] EventEntity looks at LocalPlayer and starts talking
  7: 0x0419 [0x1C] WAIT(30* ticks)
  8: 0x041C [0x5B] LOAD_EXT_SCHEDULER: Load scheduler "kue0" with entities [Unnamed NPC (ID: 17764420/0x010F1044), Unnamed NPC (ID: 17764420/0x010F1044)], work=875*
  9: 0x042B [0x1C] WAIT(60* ticks)
 10: 0x042E [0x5B] LOAD_EXT_SCHEDULER: Load scheduler "1009" with entities [Unnamed NPC (ID: 17764420/0x010F1044), Unnamed NPC (ID: 17764420/0x010F1044)], work=224*
 11: 0x043D [0x00] END_REQSTACK()
```
