# Event 65535

## Metadata

| Field           | Value    |
|-----------------|----------|
| Event Index     | 56/68    |
| Offset          | 0x0682   |
| Data Size       | 54 bytes |
| Calculated Size | 54 bytes |
| Instructions    | 12       |

```
      00 01 02 03 04 05 06 07  08 09 0A 0B 0C 0D 0E 0F
      -- -- -- -- -- -- -- --  -- -- -- -- -- -- -- --
0680:       32 15 80 1F 00 C4  80 C5 80 C6 80 1F 01 1F    2.............
0690: 00 C7 80 C8 80 C9 80 1F  01 1F 00 CA 80 CB 80 CC  ................
06A0: 80 1F 01 1F 00 CD 80 CE  80 CF 80 1F 01 1F 00 C0  ................
06B0: 80 C1 80 C2 80 1F 01 00                           ........        
```

## Opcodes

```
  0: 0x0682 [0x32] ExtData[1]->MainSpeed = 10* * 0.1
  1: 0x0685 [0x1F] MOVE_ENTITY: EventEntity moves to X=-601.910*, Z=587.743*, Y=0.274*
  2: 0x068D [0x1F] MOVE_ENTITY: Update entity position (mode=1)
  3: 0x068F [0x1F] MOVE_ENTITY: EventEntity moves to X=-600.199*, Z=588.994*, Y=0.347*
  4: 0x0697 [0x1F] MOVE_ENTITY: Update entity position (mode=1)
  5: 0x0699 [0x1F] MOVE_ENTITY: EventEntity moves to X=-599.211*, Z=586.089*, Y=0.586*
  6: 0x06A1 [0x1F] MOVE_ENTITY: Update entity position (mode=1)
  7: 0x06A3 [0x1F] MOVE_ENTITY: EventEntity moves to X=-599.391*, Z=583.375*, Y=0.830*
  8: 0x06AB [0x1F] MOVE_ENTITY: Update entity position (mode=1)
  9: 0x06AD [0x1F] MOVE_ENTITY: EventEntity moves to X=-600.128*, Z=585.578*, Y=0.628*
 10: 0x06B5 [0x1F] MOVE_ENTITY: Update entity position (mode=1)
 11: 0x06B7 [0x00] END_REQSTACK()
```
