# Event 65535

## Metadata

| Field           | Value    |
|-----------------|----------|
| Event Index     | 62/68    |
| Offset          | 0x07BA   |
| Data Size       | 67 bytes |
| Calculated Size | 67 bytes |
| Instructions    | 15       |

```
      00 01 02 03 04 05 06 07  08 09 0A 0B 0C 0D 0E 0F
      -- -- -- -- -- -- -- --  -- -- -- -- -- -- -- --
07B0:                                32 2B 80 1F 00 DF            2+....
07C0: 80 E0 80 E1 80 1F 01 4B  44 10 0F 01 E2 80 1C 26  .......KD......&
07D0: 80 1F 00 E3 80 E4 80 E5  80 1F 01 4B 44 10 0F 01  ...........KD...
07E0: E6 80 1C E7 80 1F 00 E8  80 E9 80 EA 80 1F 01 1C  ................
07F0: 1C 80 4B 44 10 0F 01 EB  80 1C 26 80 00           ..KD......&..   
```

## Opcodes

```
  0: 0x07BA [0x32] ExtData[1]->MainSpeed = 57* * 0.1
  1: 0x07BD [0x1F] MOVE_ENTITY: EventEntity moves to X=-599.295*, Z=590.678*, Y=0.264*
  2: 0x07C5 [0x1F] MOVE_ENTITY: Update entity position (mode=1)
  3: 0x07C7 [0x4B] UPDATE_ENTITY_YAW(entity=Unnamed NPC (ID: 17764420/0x010F1044), yaw=5.27°*)
  4: 0x07CE [0x1C] WAIT(60* ticks)
  5: 0x07D1 [0x1F] MOVE_ENTITY: EventEntity moves to X=-604.353*, Z=586.292*, Y=0.138*
  6: 0x07D9 [0x1F] MOVE_ENTITY: Update entity position (mode=1)
  7: 0x07DB [0x4B] UPDATE_ENTITY_YAW(entity=Unnamed NPC (ID: 17764420/0x010F1044), yaw=0.20°*)
  8: 0x07E2 [0x1C] WAIT(240* ticks)
  9: 0x07E5 [0x1F] MOVE_ENTITY: EventEntity moves to X=-600.328*, Z=582.410*, Y=0.802*
 10: 0x07ED [0x1F] MOVE_ENTITY: Update entity position (mode=1)
 11: 0x07EF [0x1C] WAIT(30* ticks)
 12: 0x07F2 [0x4B] UPDATE_ENTITY_YAW(entity=Unnamed NPC (ID: 17764420/0x010F1044), yaw=16.63°*)
 13: 0x07F9 [0x1C] WAIT(60* ticks)
 14: 0x07FC [0x00] END_REQSTACK()
```
