# Event 65535

## Metadata

| Field           | Value    |
|-----------------|----------|
| Event Index     | 52/68    |
| Offset          | 0x0637   |
| Data Size       | 48 bytes |
| Calculated Size | 48 bytes |
| Instructions    | 11       |

```
      00 01 02 03 04 05 06 07  08 09 0A 0B 0C 0D 0E 0F
      -- -- -- -- -- -- -- --  -- -- -- -- -- -- -- --
0630:                      02  04 00 B6 80 01 66 06 32         ......f.2
0640: 22 80 1F 00 B7 80 B8 80  B9 80 1F 01 1C 26 80 1F  "............&..
0650: 00 BA 80 BB 80 BC 80 1F  01 1F 00 BD 80 BE 80 BF  ................
0660: 80 1F 01 01 37 06 00                              ....7..         
```

## Opcodes

```
  0: 0x0637 [0x02] IF !(ExtData[1]->WorkLocal[4] == 1*) GOTO 0x0666
  1: 0x063F [0x32] ExtData[1]->MainSpeed = 19* * 0.1
  2: 0x0642 [0x1F] MOVE_ENTITY: EventEntity moves to X=-604.743*, Z=600.818*, Y=0.035*
  3: 0x064A [0x1F] MOVE_ENTITY: Update entity position (mode=1)
  4: 0x064C [0x1C] WAIT(60* ticks)
  5: 0x064F [0x1F] MOVE_ENTITY: EventEntity moves to X=-608.317*, Z=600.631*, Y=0.214*
  6: 0x0657 [0x1F] MOVE_ENTITY: Update entity position (mode=1)
  7: 0x0659 [0x1F] MOVE_ENTITY: EventEntity moves to X=-606.086*, Z=601.808*, Y=0.102*
  8: 0x0661 [0x1F] MOVE_ENTITY: Update entity position (mode=1)
  9: 0x0663 [0x01] GOTO 0x0637
 10: 0x0666 [0x00] END_REQSTACK()
```
