# Event 65535

## Metadata

| Field           | Value    |
|-----------------|----------|
| Event Index     | 61/68    |
| Offset          | 0x0788   |
| Data Size       | 50 bytes |
| Calculated Size | 50 bytes |
| Instructions    | 12       |

```
      00 01 02 03 04 05 06 07  08 09 0A 0B 0C 0D 0E 0F
      -- -- -- -- -- -- -- --  -- -- -- -- -- -- -- --
0780:                          32 22 80 1F 00 DC 80 DD          2"......
0790: 80 DE 80 1F 01 1C 26 80  1F 00 D8 80 D9 80 DA 80  ......&.........
07A0: 1F 01 1C 26 80 1F 00 C0  80 C1 80 C2 80 1F 01 4B  ...&...........K
07B0: 44 10 0F 01 DB 80 1C 26  80 00                    D......&..      
```

## Opcodes

```
  0: 0x0788 [0x32] ExtData[1]->MainSpeed = 19* * 0.1
  1: 0x078B [0x1F] MOVE_ENTITY: EventEntity moves to X=-599.892*, Z=588.477*, Y=0.373*
  2: 0x0793 [0x1F] MOVE_ENTITY: Update entity position (mode=1)
  3: 0x0795 [0x1C] WAIT(60* ticks)
  4: 0x0798 [0x1F] MOVE_ENTITY: EventEntity moves to X=-602.144*, Z=586.825*, Y=0.376*
  5: 0x07A0 [0x1F] MOVE_ENTITY: Update entity position (mode=1)
  6: 0x07A2 [0x1C] WAIT(60* ticks)
  7: 0x07A5 [0x1F] MOVE_ENTITY: EventEntity moves to X=-600.128*, Z=585.578*, Y=0.628*
  8: 0x07AD [0x1F] MOVE_ENTITY: Update entity position (mode=1)
  9: 0x07AF [0x4B] UPDATE_ENTITY_YAW(entity=Unnamed NPC (ID: 17764420/0x010F1044), yaw=11.79°*)
 10: 0x07B6 [0x1C] WAIT(60* ticks)
 11: 0x07B9 [0x00] END_REQSTACK()
```
