# Event 65535

## Metadata

| Field           | Value    |
|-----------------|----------|
| Event Index     | 57/68    |
| Offset          | 0x06B8   |
| Data Size       | 66 bytes |
| Calculated Size | 66 bytes |
| Instructions    | 16       |

```
      00 01 02 03 04 05 06 07  08 09 0A 0B 0C 0D 0E 0F
      -- -- -- -- -- -- -- --  -- -- -- -- -- -- -- --
06B0:                          32 22 80 1F 00 C4 80 C5          2"......
06C0: 80 C6 80 1F 01 1C 1C 80  1F 00 C7 80 C8 80 C9 80  ................
06D0: 1F 01 1C 1C 80 1F 00 CA  80 CB 80 CC 80 1F 01 1C  ................
06E0: 1C 80 1F 00 CD 80 CE 80  CF 80 1F 01 1C 1C 80 1F  ................
06F0: 00 C0 80 C1 80 C2 80 1F  01 00                    ..........      
```

## Opcodes

```
  0: 0x06B8 [0x32] ExtData[1]->MainSpeed = 19* * 0.1
  1: 0x06BB [0x1F] MOVE_ENTITY: EventEntity moves to X=-601.910*, Z=587.743*, Y=0.274*
  2: 0x06C3 [0x1F] MOVE_ENTITY: Update entity position (mode=1)
  3: 0x06C5 [0x1C] WAIT(30* ticks)
  4: 0x06C8 [0x1F] MOVE_ENTITY: EventEntity moves to X=-600.199*, Z=588.994*, Y=0.347*
  5: 0x06D0 [0x1F] MOVE_ENTITY: Update entity position (mode=1)
  6: 0x06D2 [0x1C] WAIT(30* ticks)
  7: 0x06D5 [0x1F] MOVE_ENTITY: EventEntity moves to X=-599.211*, Z=586.089*, Y=0.586*
  8: 0x06DD [0x1F] MOVE_ENTITY: Update entity position (mode=1)
  9: 0x06DF [0x1C] WAIT(30* ticks)
 10: 0x06E2 [0x1F] MOVE_ENTITY: EventEntity moves to X=-599.391*, Z=583.375*, Y=0.830*
 11: 0x06EA [0x1F] MOVE_ENTITY: Update entity position (mode=1)
 12: 0x06EC [0x1C] WAIT(30* ticks)
 13: 0x06EF [0x1F] MOVE_ENTITY: EventEntity moves to X=-600.128*, Z=585.578*, Y=0.628*
 14: 0x06F7 [0x1F] MOVE_ENTITY: Update entity position (mode=1)
 15: 0x06F9 [0x00] END_REQSTACK()
```
