# Event 65535

## Metadata

| Field           | Value    |
|-----------------|----------|
| Event Index     | 14/68    |
| Offset          | 0x0070   |
| Data Size       | 52 bytes |
| Calculated Size | 52 bytes |
| Instructions    | 10       |

```
      00 01 02 03 04 05 06 07  08 09 0A 0B 0C 0D 0E 0F
      -- -- -- -- -- -- -- --  -- -- -- -- -- -- -- --
0070: 32 15 80 5A 00 16 80 17  80 18 80 5A 01 5A 00 19  2..Z.......Z.Z..
0080: 80 1A 80 18 80 5A 01 4B  44 10 0F 01 1B 80 1C 1C  .....Z.KD.......
0090: 80 5B 1D 80 44 10 0F 01  44 10 0F 01 68 69 30 39  .[..D...D...hi09
00A0: 1C 1B 80 00                                       ....            
```

## Opcodes

```
  0: 0x0070 [0x32] ExtData[1]->MainSpeed = 10* * 0.1
  1: 0x0073 [0x5A] UPDATE_EVENT_POSITION: Set EventEntity MovePosition to X=119.223*, Z=-128.820*, Y=-5.000*
  2: 0x007B [0x5A] UPDATE_EVENT_POSITION: Move EventEntity incrementally towards MovePosition
  3: 0x007D [0x5A] UPDATE_EVENT_POSITION: Set EventEntity MovePosition to X=118.907*, Z=-125.693*, Y=-5.000*
  4: 0x0085 [0x5A] UPDATE_EVENT_POSITION: Move EventEntity incrementally towards MovePosition
  5: 0x0087 [0x4B] UPDATE_ENTITY_YAW(entity=Unnamed NPC (ID: 17764420/0x010F1044), yaw=0.66°*)
  6: 0x008E [0x1C] WAIT(30* ticks)
  7: 0x0091 [0x5B] LOAD_EXT_SCHEDULER(work_offset=872*, entity1=Unnamed NPC (ID: 17764420/0x010F1044), entity2=Unnamed NPC (ID: 17764420/0x010F1044), action="hi09")
  8: 0x00A0 [0x1C] WAIT(120* ticks)
  9: 0x00A3 [0x00] END_REQSTACK()
```
