# Event 65535

## Metadata

| Field           | Value    |
|-----------------|----------|
| Event Index     | 60/68    |
| Offset          | 0x0756   |
| Data Size       | 50 bytes |
| Calculated Size | 50 bytes |
| Instructions    | 12       |

```
      00 01 02 03 04 05 06 07  08 09 0A 0B 0C 0D 0E 0F
      -- -- -- -- -- -- -- --  -- -- -- -- -- -- -- --
0750:                   32 15  80 1F 00 D5 80 D6 80 D7        2.........
0760: 80 1F 01 1C 26 80 1F 00  D8 80 D9 80 DA 80 1F 01  ....&...........
0770: 1C 26 80 1F 00 C0 80 C1  80 C2 80 1F 01 4B 44 10  .&...........KD.
0780: 0F 01 DB 80 1C 26 80 00                           .....&..        
```

## Opcodes

```
  0: 0x0756 [0x32] ExtData[1]->MainSpeed = 10* * 0.1
  1: 0x0759 [0x1F] MOVE_ENTITY: EventEntity moves to X=-600.221*, Z=588.558*, Y=0.369*
  2: 0x0761 [0x1F] MOVE_ENTITY: Update entity position (mode=1)
  3: 0x0763 [0x1C] WAIT(60* ticks)
  4: 0x0766 [0x1F] MOVE_ENTITY: EventEntity moves to X=-602.144*, Z=586.825*, Y=0.376*
  5: 0x076E [0x1F] MOVE_ENTITY: Update entity position (mode=1)
  6: 0x0770 [0x1C] WAIT(60* ticks)
  7: 0x0773 [0x1F] MOVE_ENTITY: EventEntity moves to X=-600.128*, Z=585.578*, Y=0.628*
  8: 0x077B [0x1F] MOVE_ENTITY: Update entity position (mode=1)
  9: 0x077D [0x4B] UPDATE_ENTITY_YAW(entity=Unnamed NPC (ID: 17764420/0x010F1044), yaw=11.8°*)
 10: 0x0784 [0x1C] WAIT(60* ticks)
 11: 0x0787 [0x00] END_REQSTACK()
```
