# Event 65535

## Metadata

| Field           | Value    |
|-----------------|----------|
| Event Index     | 51/68    |
| Offset          | 0x0607   |
| Data Size       | 48 bytes |
| Calculated Size | 48 bytes |
| Instructions    | 11       |

```
      00 01 02 03 04 05 06 07  08 09 0A 0B 0C 0D 0E 0F
      -- -- -- -- -- -- -- --  -- -- -- -- -- -- -- --
0600:                      02  04 00 B6 80 01 36 06 32         ......6.2
0610: 15 80 1F 00 B7 80 B8 80  B9 80 1F 01 1C 26 80 1F  .............&..
0620: 00 BA 80 BB 80 BC 80 1F  01 1F 00 BD 80 BE 80 BF  ................
0630: 80 1F 01 01 07 06 00                              .......         
```

## Opcodes

```
  0: 0x0607 [0x02] IF !(ExtData[1]->WorkLocal[4] == 1*) GOTO 0x0636
  1: 0x060F [0x32] ExtData[1]->MainSpeed = 10* * 0.1
  2: 0x0612 [0x1F] MOVE_ENTITY: EventEntity moves to X=-604.743*, Z=600.818*, Y=0.035*
  3: 0x061A [0x1F] MOVE_ENTITY: Update entity position (mode=1)
  4: 0x061C [0x1C] WAIT(60* ticks)
  5: 0x061F [0x1F] MOVE_ENTITY: EventEntity moves to X=-608.317*, Z=600.631*, Y=0.214*
  6: 0x0627 [0x1F] MOVE_ENTITY: Update entity position (mode=1)
  7: 0x0629 [0x1F] MOVE_ENTITY: EventEntity moves to X=-606.086*, Z=601.808*, Y=0.102*
  8: 0x0631 [0x1F] MOVE_ENTITY: Update entity position (mode=1)
  9: 0x0633 [0x01] GOTO 0x0607

SUBROUTINE_0636:
 10: 0x0636 [0x00] END_REQSTACK()
```
