# Event 10149

## Metadata

| Field           | Value    |
|-----------------|----------|
| Event Index     | 6/29     |
| Offset          | 0x15B8   |
| Data Size       | 41 bytes |
| Calculated Size | 41 bytes |
| Instructions    | 12       |

```
      00 01 02 03 04 05 06 07  08 09 0A 0B 0C 0D 0E 0F
      -- -- -- -- -- -- -- --  -- -- -- -- -- -- -- --
15B0:                          2E 03 05 00 02 10 1E F0          ........
15C0: FF FF 7F 79 00 F8 FF FF  7F F0 FF FF 7F 03 02 10  ...y............
15D0: 00 80 1D 93 82 23 03 02  10 05 00 1D 94 82 23 21  .....#........#!
15E0: 00                                                .               
```

## Opcodes

```
  0: 0x15B8 [0x2E] SET_CLI_EVENT_CANCEL_FLAGS()
  1: 0x15B9 [0x03] ExtData[1]->WorkLocal[5] = Work_Zone[2]
  2: 0x15BE [0x1E] EventEntity looks at LocalPlayer and starts talking
  3: 0x15C3 [0x79] EventEntity looks at LocalPlayer (Basic look)
  4: 0x15CD [0x03] Work_Zone[2] = 1261*
  5: 0x15D2 [0x1D] PRINT_EVENT_MESSAGE(message_id=14655*)
    → "It looks like you finished your objectives. Omedetou!\u0007Sugoi, that \u0001\u00053\u0002\u0000\u0000\u0000 is totally bursting with power.\u007F1\u0000\u0007"
  6: 0x15D5 [0x23] WAIT_FOR_DIALOG_INTERACTION
  7: 0x15D6 [0x03] Work_Zone[2] = ExtData[1]->WorkLocal[5]
  8: 0x15DB [0x1D] PRINT_EVENT_MESSAGE(message_id=14669*)
    → "Uh, you've already got \u0001\u0001\u0001 \u0001\u0005$\u0002\u0000\u0000\u0000.\u0007Dakara, you'll have to get rid of it before you get another.\u007F1\u0000\u0007"
  9: 0x15DE [0x23] WAIT_FOR_DIALOG_INTERACTION
 10: 0x15DF [0x21] END_EVENT
 11: 0x15E0 [0x00] END_REQSTACK()
```
