# 16900377 - Ulmia

## Common Data

| Field            | Value                        |
|------------------|------------------------------|
| Zone             | Riverne - Site #A01 (ID: 30) |
| Block Size       | 428 bytes                    |
| Total Events     | 10                           |
| References Count | 12                           |

## List of Events

| Event ID                 | Entrypoint   |   Size |   Instructions |
|--------------------------|--------------|--------|----------------|
| [65535](#event-65535)    | 0x0000       |     13 |              3 |
| [100](#event-100)        | 0x000D       |     30 |              6 |
| [65535.1](#event-655351) | 0x002B       |     52 |             10 |
| [65535.2](#event-655352) | 0x005F       |     91 |             19 |
| [65535.3](#event-655353) | 0x00BA       |     16 |              2 |
| [65535.4](#event-655354) | 0x00CA       |     29 |              3 |
| [65535.5](#event-655355) | 0x00E7       |     16 |              2 |
| [65535.6](#event-655356) | 0x00F7       |     29 |              3 |
| [65535.7](#event-655357) | 0x0114       |     16 |              2 |
| [65535.8](#event-655358) | 0x0124       |     29 |              3 |

## DAT References (imed_data)

|   Index | Hex Value   |   Dec Value |
|---------|-------------|-------------|
|       0 | 0xA8111     |      688401 |
|       1 | 0xFFF86D40  |  4294470976 |
|       2 | 0xFFFF83E8  |  4294935528 |
|       3 | 0x0A41      |        2625 |
|       4 | 0xFFFFF060  |  4294963296 |
|       5 | 0x000D      |          13 |
|       6 | 0x0000      |           0 |
|       7 | 0x0048      |          72 |
|       8 | 0x0078      |         120 |
|       9 | 0x0FA0      |        4000 |
|      10 | 0xC350      |       50000 |
|      11 | 0x01A4      |         420 |

## Events

### Event 65535

#### Metadata

| Field        | Value    |
|--------------|----------|
| Entrypoint   | 0x0000   |
| Data Size    | 13 bytes |
| Instructions | 3        |

```
      00 01 02 03 04 05 06 07  08 09 0A 0B 0C 0D 0E 0F
      -- -- -- -- -- -- -- --  -- -- -- -- -- -- -- --
0000: 92 01 F8 FF FF 7F 94 00  F8 FF FF 7F 00           .............   
```

#### Opcodes

```
  0: 0x0000 [0x92] EventEntity->Render.Flags3 ^= 0x01
  1: 0x0006 [0x94] EventEntity->Render.Flags3 = Flags3  // No change (flag=0)
  2: 0x000C [0x00] END_REQSTACK()
```

### Event 100

#### Metadata

| Field        | Value    |
|--------------|----------|
| Entrypoint   | 0x000D   |
| Data Size    | 30 bytes |
| Instructions | 6        |

```
      00 01 02 03 04 05 06 07  08 09 0A 0B 0C 0D 0E 0F
      -- -- -- -- -- -- -- --  -- -- -- -- -- -- -- --
0000:                                         37 00 80               7..
0010: 01 80 02 80 03 80 03 00  00 04 80 1A 76 00 32 05  ............v.2.
0020: 80 37 01 00 02 00 03 00  04 00 00                 .7.........     
```

#### Opcodes

```
  0: 0x000D [0x37] UPDATE_EVENT_POSITION_AND_DIR: x=688.401*, z=-496.320*, y=-31.768*, direction=230.7°*
  1: 0x0016 [0x03] ExtData[1]->WorkLocal[0] = 4294963296*
  2: 0x001B [0x1A] CALL_SUBROUTINE(address=0x0076)
  3: 0x001E [0x32] ExtData[1]->MainSpeed = 13* * 0.1
  4: 0x0021 [0x37] UPDATE_EVENT_POSITION_AND_DIR: x=ExtData[1]->WorkLocal[1], z=ExtData[1]->WorkLocal[2], y=ExtData[1]->WorkLocal[3], direction=ExtData[1]->WorkLocal[4]
  5: 0x002A [0x00] END_REQSTACK()
```

### Event 65535.1

#### Metadata

| Field        | Value    |
|--------------|----------|
| Entrypoint   | 0x002B   |
| Data Size    | 52 bytes |
| Instructions | 10       |

```
      00 01 02 03 04 05 06 07  08 09 0A 0B 0C 0D 0E 0F
      -- -- -- -- -- -- -- --  -- -- -- -- -- -- -- --
0020:                                   6C F8 FF FF 7F             l....
0030: 06 80 06 80 9F 07 80 F8  FF FF 7F F8 FF FF 7F 6D  ...............m
0040: 61 69 6E 06 80 1C 08 80  03 00 00 09 80 1A 76 00  ain...........v.
0050: 32 05 80 1F 00 01 00 02  00 03 00 1F 01 6F 00     2............o. 
```

#### Opcodes

```
  0: 0x002B [0x6C] FADE_ENTITY_COLOR(entity_id=EventEntity, end_alpha=0*, fade_time=0*)
  1: 0x0034 [0x9F] LOAD_SCHEDULED_TASK_ALT: Load scheduler "main" with entities [EventEntity, EventEntity], work=[72*, 0*]
  2: 0x0045 [0x1C] WAIT(120* ticks)
  3: 0x0048 [0x03] ExtData[1]->WorkLocal[0] = 4000*
  4: 0x004D [0x1A] CALL_SUBROUTINE(address=0x0076)
  5: 0x0050 [0x32] ExtData[1]->MainSpeed = 13* * 0.1
  6: 0x0053 [0x1F] MOVE_ENTITY: EventEntity moves to X=ExtData[1]->WorkLocal[1], Z=ExtData[1]->WorkLocal[2], Y=ExtData[1]->WorkLocal[3]
  7: 0x005B [0x1F] MOVE_ENTITY: Update entity position (mode=1)
  8: 0x005D [0x6F] WAIT_FRAME_DELAY: Yield until WaitTime reaches zero
  9: 0x005E [0x00] END_REQSTACK()
```

### Event 65535.2

#### Metadata

| Field        | Value    |
|--------------|----------|
| Entrypoint   | 0x005F   |
| Data Size    | 91 bytes |
| Instructions | 14       |

```
      00 01 02 03 04 05 06 07  08 09 0A 0B 0C 0D 0E 0F
      -- -- -- -- -- -- -- --  -- -- -- -- -- -- -- --
0050:                                               03                 .
0060: 00 00 0A 80 1A 76 00 32  05 80 1F 00 01 00 02 00  .....v.2........
0070: 03 00 1F 01 6F 00 3B F8  FF FF 7F 01 00 02 00 03  ....o.;.........
0080: 00 3A F8 FF FF 7F 04 00  17 05 00 04 00 00 00 16  .:..............
0090: 06 00 04 00 00 00 07 01  00 05 00 07 02 00 06 00  ................
00A0: 1B 17 05 00 04 00 00 00  16 06 00 04 00 00 00 07  ................
00B0: 01 00 05 00 07 02 00 06  00 1B                    ..........      
```

#### Opcodes

```
  0: 0x005F [0x03] ExtData[1]->WorkLocal[0] = 50000*
  1: 0x0064 [0x1A] CALL_SUBROUTINE(address=0x0076)
  2: 0x0067 [0x32] ExtData[1]->MainSpeed = 13* * 0.1
  3: 0x006A [0x1F] MOVE_ENTITY: EventEntity moves to X=ExtData[1]->WorkLocal[1], Z=ExtData[1]->WorkLocal[2], Y=ExtData[1]->WorkLocal[3]
  4: 0x0072 [0x1F] MOVE_ENTITY: Update entity position (mode=1)
  5: 0x0074 [0x6F] WAIT_FRAME_DELAY: Yield until WaitTime reaches zero
  6: 0x0075 [0x00] END_REQSTACK()

SUBROUTINE_0076:
  7: 0x0076 [0x3B] GET_ENTITY_POSITION(entity=EventEntity, x_destination=ExtData[1]->WorkLocal[1], y_destination=ExtData[1]->WorkLocal[2], z_destination=ExtData[1]->WorkLocal[3])
  8: 0x0081 [0x3A] CONVERT_YAW_TO_BYTE(entity=EventEntity, result_destination=ExtData[1]->WorkLocal[4])
  9: 0x0088 [0x17] ExtData[1]->WorkLocal[5] = cos(ExtData[1]->WorkLocal[4]) * ExtData[1]->WorkLocal[0]
 10: 0x008F [0x16] ExtData[1]->WorkLocal[6] = sin(ExtData[1]->WorkLocal[4]) * ExtData[1]->WorkLocal[0]
 11: 0x0096 [0x07] ExtData[1]->WorkLocal[1] += ExtData[1]->WorkLocal[5]
 12: 0x009B [0x07] ExtData[1]->WorkLocal[2] += ExtData[1]->WorkLocal[6]
 13: 0x00A0 [0x1B] RETURN
```

#### Data or dead code:

```
# Dead code (unreachable instructions):
     0x00A1 [0x17] ExtData[1]->WorkLocal[5] = cos(ExtData[1]->WorkLocal[4]) * ExtData[1]->WorkLocal[0]
     0x00A8 [0x16] ExtData[1]->WorkLocal[6] = sin(ExtData[1]->WorkLocal[4]) * ExtData[1]->WorkLocal[0]
     0x00AF [0x07] ExtData[1]->WorkLocal[1] += ExtData[1]->WorkLocal[5]
     0x00B4 [0x07] ExtData[1]->WorkLocal[2] += ExtData[1]->WorkLocal[6]
     0x00B9 [0x1B] RETURN
```

### Event 65535.3

#### Metadata

| Field        | Value    |
|--------------|----------|
| Entrypoint   | 0x00BA   |
| Data Size    | 16 bytes |
| Instructions | 2        |

```
      00 01 02 03 04 05 06 07  08 09 0A 0B 0C 0D 0E 0F
      -- -- -- -- -- -- -- --  -- -- -- -- -- -- -- --
00B0:                                5B 0B 80 F8 FF FF            [.....
00C0: 7F F8 FF FF 7F 74 6C 63  30 00                    .....tlc0.      
```

#### Opcodes

```
  0: 0x00BA [0x5B] LOAD_EXT_SCHEDULER: Load scheduler "tlc0" with entities [EventEntity, EventEntity], work=420*
  1: 0x00C9 [0x00] END_REQSTACK()
```

### Event 65535.4

#### Metadata

| Field        | Value    |
|--------------|----------|
| Entrypoint   | 0x00CA   |
| Data Size    | 29 bytes |
| Instructions | 3        |

```
      00 01 02 03 04 05 06 07  08 09 0A 0B 0C 0D 0E 0F
      -- -- -- -- -- -- -- --  -- -- -- -- -- -- -- --
00C0:                                5B 0B 80 F8 FF FF            [.....
00D0: 7F F8 FF FF 7F 74 6C 63  31 53 F8 FF FF 7F F8 FF  .....tlc1S......
00E0: FF 7F 74 6C 63 31 00                              ..tlc1.         
```

#### Opcodes

```
  0: 0x00CA [0x5B] LOAD_EXT_SCHEDULER: Load scheduler "tlc1" with entities [EventEntity, EventEntity], work=420*
  1: 0x00D9 [0x53] WAIT_SCHEDULER_TASK: Wait for scheduler "tlc1" with entities [EventEntity, EventEntity]
  2: 0x00E6 [0x00] END_REQSTACK()
```

### Event 65535.5

#### Metadata

| Field        | Value    |
|--------------|----------|
| Entrypoint   | 0x00E7   |
| Data Size    | 16 bytes |
| Instructions | 2        |

```
      00 01 02 03 04 05 06 07  08 09 0A 0B 0C 0D 0E 0F
      -- -- -- -- -- -- -- --  -- -- -- -- -- -- -- --
00E0:                      5B  0B 80 F8 FF FF 7F F8 FF         [........
00F0: FF 7F 74 6C 61 30 00                              ..tla0.         
```

#### Opcodes

```
  0: 0x00E7 [0x5B] LOAD_EXT_SCHEDULER: Load scheduler "tla0" with entities [EventEntity, EventEntity], work=420*
  1: 0x00F6 [0x00] END_REQSTACK()
```

### Event 65535.6

#### Metadata

| Field        | Value    |
|--------------|----------|
| Entrypoint   | 0x00F7   |
| Data Size    | 29 bytes |
| Instructions | 3        |

```
      00 01 02 03 04 05 06 07  08 09 0A 0B 0C 0D 0E 0F
      -- -- -- -- -- -- -- --  -- -- -- -- -- -- -- --
00F0:                      5B  0B 80 F8 FF FF 7F F8 FF         [........
0100: FF 7F 74 6C 61 31 53 F8  FF FF 7F F8 FF FF 7F 74  ..tla1S........t
0110: 6C 61 31 00                                       la1.            
```

#### Opcodes

```
  0: 0x00F7 [0x5B] LOAD_EXT_SCHEDULER: Load scheduler "tla1" with entities [EventEntity, EventEntity], work=420*
  1: 0x0106 [0x53] WAIT_SCHEDULER_TASK: Wait for scheduler "tla1" with entities [EventEntity, EventEntity]
  2: 0x0113 [0x00] END_REQSTACK()
```

### Event 65535.7

#### Metadata

| Field        | Value    |
|--------------|----------|
| Entrypoint   | 0x0114   |
| Data Size    | 16 bytes |
| Instructions | 2        |

```
      00 01 02 03 04 05 06 07  08 09 0A 0B 0C 0D 0E 0F
      -- -- -- -- -- -- -- --  -- -- -- -- -- -- -- --
0110:             5B 0B 80 F8  FF FF 7F F8 FF FF 7F 74      [..........t
0120: 6C 62 30 00                                       lb0.            
```

#### Opcodes

```
  0: 0x0114 [0x5B] LOAD_EXT_SCHEDULER: Load scheduler "tlb0" with entities [EventEntity, EventEntity], work=420*
  1: 0x0123 [0x00] END_REQSTACK()
```

### Event 65535.8

#### Metadata

| Field        | Value    |
|--------------|----------|
| Entrypoint   | 0x0124   |
| Data Size    | 29 bytes |
| Instructions | 3        |

```
      00 01 02 03 04 05 06 07  08 09 0A 0B 0C 0D 0E 0F
      -- -- -- -- -- -- -- --  -- -- -- -- -- -- -- --
0120:             5B 0B 80 F8  FF FF 7F F8 FF FF 7F 74      [..........t
0130: 6C 62 31 53 F8 FF FF 7F  F8 FF FF 7F 74 6C 62 31  lb1S........tlb1
0140: 00                                                .               
```

#### Opcodes

```
  0: 0x0124 [0x5B] LOAD_EXT_SCHEDULER: Load scheduler "tlb1" with entities [EventEntity, EventEntity], work=420*
  1: 0x0133 [0x53] WAIT_SCHEDULER_TASK: Wait for scheduler "tlb1" with entities [EventEntity, EventEntity]
  2: 0x0140 [0x00] END_REQSTACK()
```
