# 16900398

## Common Data

| Field            | Value                        |
|------------------|------------------------------|
| Zone             | Riverne - Site #A01 (ID: 30) |
| Block Size       | 532 bytes                    |
| Total Events     | 16                           |
| References Count | 44                           |

## List of Events

| Event ID                   | Entrypoint   |   Size |   Instructions |
|----------------------------|--------------|--------|----------------|
| [65535](#event-65535)      | 0x0000       |      1 |              1 |
| [101](#event-101)          | 0x0001       |      1 |              1 |
| [65535.1](#event-655351)   | 0x0002       |     12 |              3 |
| [65535.2](#event-655352)   | 0x000E       |     48 |             10 |
| [65535.3](#event-655353)   | 0x003E       |     16 |              5 |
| [65535.4](#event-655354)   | 0x004E       |     16 |              5 |
| [65535.5](#event-655355)   | 0x005E       |     16 |              5 |
| [65535.6](#event-655356)   | 0x006E       |     16 |              5 |
| [65535.7](#event-655357)   | 0x007E       |     16 |              5 |
| [65535.8](#event-655358)   | 0x008E       |     12 |              3 |
| [102](#event-102)          | 0x009A       |      1 |              1 |
| [103](#event-103)          | 0x009B       |      1 |              1 |
| [65535.9](#event-655359)   | 0x009C       |     48 |             10 |
| [65535.10](#event-6553510) | 0x00CC       |     14 |              4 |
| [65535.11](#event-6553511) | 0x00DA       |     48 |             10 |
| [65535.12](#event-6553512) | 0x010A       |     10 |              2 |

## DAT References (imed_data)

|   Index | Hex Value   |   Dec Value |
|---------|-------------|-------------|
|       0 | 0x0050      |          80 |
|       1 | 0x003C      |          60 |
|       2 | 0xFFF4BF58  |  4294229848 |
|       3 | 0xFFFB6897  |  4294666391 |
|       4 | 0xFFFF5420  |  4294923296 |
|       5 | 0x02E2      |         738 |
|       6 | 0x0014      |          20 |
|       7 | 0x000D      |          13 |
|       8 | 0xFFF4C763  |  4294231907 |
|       9 | 0xFFFB582E  |  4294662190 |
|      10 | 0xFFFF54E8  |  4294923496 |
|      11 | 0xFFF4D5CF  |  4294235599 |
|      12 | 0xFFFB558A  |  4294661514 |
|      13 | 0xFFFF55AF  |  4294923695 |
|      14 | 0xFFF4DAEC  |  4294236908 |
|      15 | 0xFFFB677F  |  4294666111 |
|      16 | 0xFFF4EE9A  |  4294241946 |
|      17 | 0xFFFB6556  |  4294665558 |
|      18 | 0xFFFF5741  |  4294924097 |
|      19 | 0xFFF4E801  |  4294240257 |
|      20 | 0xFFFB6138  |  4294664504 |
|      21 | 0xFFF4E546  |  4294239558 |
|      22 | 0xFFFB56B1  |  4294661809 |
|      23 | 0x0000      |           0 |
|      24 | 0x0168      |         360 |
|      25 | 0xFFF4EE29  |  4294241833 |
|      26 | 0xFFFB54A9  |  4294661289 |
|      27 | 0x08A4      |        2212 |
|      28 | 0x0028      |          40 |
|      29 | 0xFFF4DC6A  |  4294237290 |
|      30 | 0xFFFB5717  |  4294661911 |
|      31 | 0xFFF4DE71  |  4294237809 |
|      32 | 0xFFFB6711  |  4294666001 |
|      33 | 0xFFFF5421  |  4294923297 |
|      34 | 0xFFF4A115  |  4294222101 |
|      35 | 0xFFFB4D96  |  4294659478 |
|      36 | 0x085E      |        2142 |
|      37 | 0x0046      |          70 |
|      38 | 0x0078      |         120 |
|      39 | 0xFFF4B76A  |  4294227818 |
|      40 | 0xFFFB4D49  |  4294659401 |
|      41 | 0xFFF4A130  |  4294222128 |
|      42 | 0xFFFB5216  |  4294660630 |
|      43 | 0x0515      |        1301 |

## Events

### Event 65535

#### Metadata

| Field        | Value   |
|--------------|---------|
| Entrypoint   | 0x0000  |
| Data Size    | 1 bytes |
| Instructions | 1       |

```
      00 01 02 03 04 05 06 07  08 09 0A 0B 0C 0D 0E 0F
      -- -- -- -- -- -- -- --  -- -- -- -- -- -- -- --
0000: 00                                                .               
```

#### Opcodes

```
  0: 0x0000 [0x00] END_REQSTACK()
```

### Event 101

#### Metadata

| Field        | Value   |
|--------------|---------|
| Entrypoint   | 0x0001  |
| Data Size    | 1 bytes |
| Instructions | 1       |

```
      00 01 02 03 04 05 06 07  08 09 0A 0B 0C 0D 0E 0F
      -- -- -- -- -- -- -- --  -- -- -- -- -- -- -- --
0000:    00                                              .              
```

#### Opcodes

```
  0: 0x0001 [0x00] END_REQSTACK()
```

### Event 65535.1

#### Metadata

| Field        | Value    |
|--------------|----------|
| Entrypoint   | 0x0002   |
| Data Size    | 12 bytes |
| Instructions | 3        |

```
      00 01 02 03 04 05 06 07  08 09 0A 0B 0C 0D 0E 0F
      -- -- -- -- -- -- -- --  -- -- -- -- -- -- -- --
0000:       A5 01 6C 2E E1 01  01 00 80 01 80 00          ..l.........  
```

#### Opcodes

```
  0: 0x0002 [0xA5] EventEntity->Flags3.BallistaTeam |= 0x08  // Set bit 3 of BallistaTeam
  1: 0x0004 [0x6C] FADE_ENTITY_COLOR(entity_id=??? (ID: 16900398/0x0101E12E), end_alpha=80*, fade_time=60*)
  2: 0x000D [0x00] END_REQSTACK()
```

### Event 65535.2

#### Metadata

| Field        | Value    |
|--------------|----------|
| Entrypoint   | 0x000E   |
| Data Size    | 48 bytes |
| Instructions | 10       |

```
      00 01 02 03 04 05 06 07  08 09 0A 0B 0C 0D 0E 0F
      -- -- -- -- -- -- -- --  -- -- -- -- -- -- -- --
0000:                                            37 02                7.
0010: 80 03 80 04 80 05 80 2F  00 2E E1 01 01 6C 2E E1  ......./.....l..
0020: 01 01 06 80 01 80 4E 00  2E E1 01 01 A5 01 61 00  ......N.......a.
0030: 32 07 80 1F 00 08 80 09  80 0A 80 1F 01 00        2.............  
```

#### Opcodes

```
  0: 0x000E [0x37] UPDATE_EVENT_POSITION_AND_DIR: x=-737.448*, z=-300.905*, y=-44.000*, direction=64.9째*
  1: 0x0017 [0x2F] ??? (ID: 16900398/0x0101E12E)->Render.Flags0 &= ~0x80000 // Bit 19
  2: 0x001D [0x6C] FADE_ENTITY_COLOR(entity_id=??? (ID: 16900398/0x0101E12E), end_alpha=20*, fade_time=60*)
  3: 0x0026 [0x4E] SET_ENTITY_HIDE_FLAG: Show ??? (ID: 16900398/0x0101E12E)
  4: 0x002C [0xA5] EventEntity->Flags3.BallistaTeam |= 0x08  // Set bit 3 of BallistaTeam
  5: 0x002E [0x61] EventEntity->Render.Flags2 &= ~0x00000001
  6: 0x0030 [0x32] ExtData[1]->MainSpeed = 13* * 0.1
  7: 0x0033 [0x1F] MOVE_ENTITY: EventEntity moves to X=-735.389*, Z=-305.106*, Y=-43.800*
  8: 0x003B [0x1F] MOVE_ENTITY: Update entity position (mode=1)
  9: 0x003D [0x00] END_REQSTACK()
```

### Event 65535.3

#### Metadata

| Field        | Value    |
|--------------|----------|
| Entrypoint   | 0x003E   |
| Data Size    | 16 bytes |
| Instructions | 5        |

```
      00 01 02 03 04 05 06 07  08 09 0A 0B 0C 0D 0E 0F
      -- -- -- -- -- -- -- --  -- -- -- -- -- -- -- --
0030:                                            61 00                a.
0040: 32 07 80 1F 00 0B 80 0C  80 0D 80 1F 01 00        2.............  
```

#### Opcodes

```
  0: 0x003E [0x61] EventEntity->Render.Flags2 &= ~0x00000001
  1: 0x0040 [0x32] ExtData[1]->MainSpeed = 13* * 0.1
  2: 0x0043 [0x1F] MOVE_ENTITY: EventEntity moves to X=-731.697*, Z=-305.782*, Y=-43.601*
  3: 0x004B [0x1F] MOVE_ENTITY: Update entity position (mode=1)
  4: 0x004D [0x00] END_REQSTACK()
```

### Event 65535.4

#### Metadata

| Field        | Value    |
|--------------|----------|
| Entrypoint   | 0x004E   |
| Data Size    | 16 bytes |
| Instructions | 5        |

```
      00 01 02 03 04 05 06 07  08 09 0A 0B 0C 0D 0E 0F
      -- -- -- -- -- -- -- --  -- -- -- -- -- -- -- --
0040:                                            61 00                a.
0050: 32 07 80 1F 00 0E 80 0F  80 04 80 1F 01 00        2.............  
```

#### Opcodes

```
  0: 0x004E [0x61] EventEntity->Render.Flags2 &= ~0x00000001
  1: 0x0050 [0x32] ExtData[1]->MainSpeed = 13* * 0.1
  2: 0x0053 [0x1F] MOVE_ENTITY: EventEntity moves to X=-730.388*, Z=-301.185*, Y=-44.000*
  3: 0x005B [0x1F] MOVE_ENTITY: Update entity position (mode=1)
  4: 0x005D [0x00] END_REQSTACK()
```

### Event 65535.5

#### Metadata

| Field        | Value    |
|--------------|----------|
| Entrypoint   | 0x005E   |
| Data Size    | 16 bytes |
| Instructions | 5        |

```
      00 01 02 03 04 05 06 07  08 09 0A 0B 0C 0D 0E 0F
      -- -- -- -- -- -- -- --  -- -- -- -- -- -- -- --
0050:                                            61 00                a.
0060: 32 07 80 1F 00 10 80 11  80 12 80 1F 01 00        2.............  
```

#### Opcodes

```
  0: 0x005E [0x61] EventEntity->Render.Flags2 &= ~0x00000001
  1: 0x0060 [0x32] ExtData[1]->MainSpeed = 13* * 0.1
  2: 0x0063 [0x1F] MOVE_ENTITY: EventEntity moves to X=-725.350*, Z=-301.738*, Y=-43.199*
  3: 0x006B [0x1F] MOVE_ENTITY: Update entity position (mode=1)
  4: 0x006D [0x00] END_REQSTACK()
```

### Event 65535.6

#### Metadata

| Field        | Value    |
|--------------|----------|
| Entrypoint   | 0x006E   |
| Data Size    | 16 bytes |
| Instructions | 5        |

```
      00 01 02 03 04 05 06 07  08 09 0A 0B 0C 0D 0E 0F
      -- -- -- -- -- -- -- --  -- -- -- -- -- -- -- --
0060:                                            61 00                a.
0070: 32 07 80 1F 00 13 80 14  80 0D 80 1F 01 00        2.............  
```

#### Opcodes

```
  0: 0x006E [0x61] EventEntity->Render.Flags2 &= ~0x00000001
  1: 0x0070 [0x32] ExtData[1]->MainSpeed = 13* * 0.1
  2: 0x0073 [0x1F] MOVE_ENTITY: EventEntity moves to X=-727.039*, Z=-302.792*, Y=-43.601*
  3: 0x007B [0x1F] MOVE_ENTITY: Update entity position (mode=1)
  4: 0x007D [0x00] END_REQSTACK()
```

### Event 65535.7

#### Metadata

| Field        | Value    |
|--------------|----------|
| Entrypoint   | 0x007E   |
| Data Size    | 16 bytes |
| Instructions | 5        |

```
      00 01 02 03 04 05 06 07  08 09 0A 0B 0C 0D 0E 0F
      -- -- -- -- -- -- -- --  -- -- -- -- -- -- -- --
0070:                                            61 00                a.
0080: 32 07 80 1F 00 15 80 16  80 0D 80 1F 01 00        2.............  
```

#### Opcodes

```
  0: 0x007E [0x61] EventEntity->Render.Flags2 &= ~0x00000001
  1: 0x0080 [0x32] ExtData[1]->MainSpeed = 13* * 0.1
  2: 0x0083 [0x1F] MOVE_ENTITY: EventEntity moves to X=-727.738*, Z=-305.487*, Y=-43.601*
  3: 0x008B [0x1F] MOVE_ENTITY: Update entity position (mode=1)
  4: 0x008D [0x00] END_REQSTACK()
```

### Event 65535.8

#### Metadata

| Field        | Value    |
|--------------|----------|
| Entrypoint   | 0x008E   |
| Data Size    | 12 bytes |
| Instructions | 3        |

```
      00 01 02 03 04 05 06 07  08 09 0A 0B 0C 0D 0E 0F
      -- -- -- -- -- -- -- --  -- -- -- -- -- -- -- --
0080:                                            A5 01                ..
0090: 6C 2E E1 01 01 17 80 18  80 00                    l.........      
```

#### Opcodes

```
  0: 0x008E [0xA5] EventEntity->Flags3.BallistaTeam |= 0x08  // Set bit 3 of BallistaTeam
  1: 0x0090 [0x6C] FADE_ENTITY_COLOR(entity_id=??? (ID: 16900398/0x0101E12E), end_alpha=0*, fade_time=360*)
  2: 0x0099 [0x00] END_REQSTACK()
```

### Event 102

#### Metadata

| Field        | Value   |
|--------------|---------|
| Entrypoint   | 0x009A  |
| Data Size    | 1 bytes |
| Instructions | 1       |

```
      00 01 02 03 04 05 06 07  08 09 0A 0B 0C 0D 0E 0F
      -- -- -- -- -- -- -- --  -- -- -- -- -- -- -- --
0090:                                00                           .     
```

#### Opcodes

```
  0: 0x009A [0x00] END_REQSTACK()
```

### Event 103

#### Metadata

| Field        | Value   |
|--------------|---------|
| Entrypoint   | 0x009B  |
| Data Size    | 1 bytes |
| Instructions | 1       |

```
      00 01 02 03 04 05 06 07  08 09 0A 0B 0C 0D 0E 0F
      -- -- -- -- -- -- -- --  -- -- -- -- -- -- -- --
0090:                                   00                         .    
```

#### Opcodes

```
  0: 0x009B [0x00] END_REQSTACK()
```

### Event 65535.9

#### Metadata

| Field        | Value    |
|--------------|----------|
| Entrypoint   | 0x009C   |
| Data Size    | 48 bytes |
| Instructions | 10       |

```
      00 01 02 03 04 05 06 07  08 09 0A 0B 0C 0D 0E 0F
      -- -- -- -- -- -- -- --  -- -- -- -- -- -- -- --
0090:                                      37 19 80 1A              7...
00A0: 80 12 80 1B 80 2F 00 2E  E1 01 01 4E 00 2E E1 01  ...../.....N....
00B0: 01 6C 2E E1 01 01 1C 80  01 80 A5 01 61 00 32 07  .l..........a.2.
00C0: 80 1F 00 1D 80 1E 80 0D  80 1F 01 00              ............    
```

#### Opcodes

```
  0: 0x009C [0x37] UPDATE_EVENT_POSITION_AND_DIR: x=-725.463*, z=-306.007*, y=-43.199*, direction=194.4째*
  1: 0x00A5 [0x2F] ??? (ID: 16900398/0x0101E12E)->Render.Flags0 &= ~0x80000 // Bit 19
  2: 0x00AB [0x4E] SET_ENTITY_HIDE_FLAG: Show ??? (ID: 16900398/0x0101E12E)
  3: 0x00B1 [0x6C] FADE_ENTITY_COLOR(entity_id=??? (ID: 16900398/0x0101E12E), end_alpha=40*, fade_time=60*)
  4: 0x00BA [0xA5] EventEntity->Flags3.BallistaTeam |= 0x08  // Set bit 3 of BallistaTeam
  5: 0x00BC [0x61] EventEntity->Render.Flags2 &= ~0x00000001
  6: 0x00BE [0x32] ExtData[1]->MainSpeed = 13* * 0.1
  7: 0x00C1 [0x1F] MOVE_ENTITY: EventEntity moves to X=-730.006*, Z=-305.385*, Y=-43.601*
  8: 0x00C9 [0x1F] MOVE_ENTITY: Update entity position (mode=1)
  9: 0x00CB [0x00] END_REQSTACK()
```

### Event 65535.10

#### Metadata

| Field        | Value    |
|--------------|----------|
| Entrypoint   | 0x00CC   |
| Data Size    | 14 bytes |
| Instructions | 4        |

```
      00 01 02 03 04 05 06 07  08 09 0A 0B 0C 0D 0E 0F
      -- -- -- -- -- -- -- --  -- -- -- -- -- -- -- --
00C0:                                      32 07 80 1F              2...
00D0: 00 1F 80 20 80 21 80 1F  01 00                    ... .!....      
```

#### Opcodes

```
  0: 0x00CC [0x32] ExtData[1]->MainSpeed = 13* * 0.1
  1: 0x00CF [0x1F] MOVE_ENTITY: EventEntity moves to X=-729.487*, Z=-301.295*, Y=-43.999*
  2: 0x00D7 [0x1F] MOVE_ENTITY: Update entity position (mode=1)
  3: 0x00D9 [0x00] END_REQSTACK()
```

### Event 65535.11

#### Metadata

| Field        | Value    |
|--------------|----------|
| Entrypoint   | 0x00DA   |
| Data Size    | 48 bytes |
| Instructions | 10       |

```
      00 01 02 03 04 05 06 07  08 09 0A 0B 0C 0D 0E 0F
      -- -- -- -- -- -- -- --  -- -- -- -- -- -- -- --
00D0:                                37 22 80 23 80 0A            7".#..
00E0: 80 24 80 2F 00 2E E1 01  01 4E 00 2E E1 01 01 6C  .$./.....N.....l
00F0: 2E E1 01 01 25 80 26 80  A5 01 61 00 32 07 80 1F  ....%.&...a.2...
0100: 00 27 80 28 80 0A 80 1F  01 00                    .'.(......      
```

#### Opcodes

```
  0: 0x00DA [0x37] UPDATE_EVENT_POSITION_AND_DIR: x=-745.195*, z=-307.818*, y=-43.800*, direction=188.3째*
  1: 0x00E3 [0x2F] ??? (ID: 16900398/0x0101E12E)->Render.Flags0 &= ~0x80000 // Bit 19
  2: 0x00E9 [0x4E] SET_ENTITY_HIDE_FLAG: Show ??? (ID: 16900398/0x0101E12E)
  3: 0x00EF [0x6C] FADE_ENTITY_COLOR(entity_id=??? (ID: 16900398/0x0101E12E), end_alpha=70*, fade_time=120*)
  4: 0x00F8 [0xA5] EventEntity->Flags3.BallistaTeam |= 0x08  // Set bit 3 of BallistaTeam
  5: 0x00FA [0x61] EventEntity->Render.Flags2 &= ~0x00000001
  6: 0x00FC [0x32] ExtData[1]->MainSpeed = 13* * 0.1
  7: 0x00FF [0x1F] MOVE_ENTITY: EventEntity moves to X=-739.478*, Z=-307.895*, Y=-43.800*
  8: 0x0107 [0x1F] MOVE_ENTITY: Update entity position (mode=1)
  9: 0x0109 [0x00] END_REQSTACK()
```

### Event 65535.12

#### Metadata

| Field        | Value    |
|--------------|----------|
| Entrypoint   | 0x010A   |
| Data Size    | 10 bytes |
| Instructions | 2        |

```
      00 01 02 03 04 05 06 07  08 09 0A 0B 0C 0D 0E 0F
      -- -- -- -- -- -- -- --  -- -- -- -- -- -- -- --
0100:                                37 29 80 2A 80 0A            7).*..
0110: 80 2B 80 00                                       .+..            
```

#### Opcodes

```
  0: 0x010A [0x37] UPDATE_EVENT_POSITION_AND_DIR: x=-745.168*, z=-306.666*, y=-43.800*, direction=114.3째*
  1: 0x0113 [0x00] END_REQSTACK()
```
