# 16900394

## Common Data

| Field            | Value                        |
|------------------|------------------------------|
| Zone             | Riverne - Site #A01 (ID: 30) |
| Block Size       | 2588 bytes                   |
| Total Events     | 3                            |
| References Count | 53                           |

## List of Events

| Event ID              | Entrypoint   |   Size |   Instructions |
|-----------------------|--------------|--------|----------------|
| [65535](#event-65535) | 0x0000       |      1 |              1 |
| [40](#event-40)       | 0x0001       |   1518 |            219 |
| [41](#event-41)       | 0x05EF       |    829 |            114 |

## DAT References (imed_data)

|   Index | Hex Value   |   Dec Value |
|---------|-------------|-------------|
|       0 | 0x0000      |           0 |
|       1 | 0x1DBC      |        7612 |
|       2 | 0x0001      |           1 |
|       3 | 0x0078      |         120 |
|       4 | 0x0047      |          71 |
|       5 | 0x00B4      |         180 |
|       6 | 0x00C8      |         200 |
|       7 | 0x003C      |          60 |
|       8 | 0x0014      |          20 |
|       9 | 0x0002      |           2 |
|      10 | 0x0013      |          19 |
|      11 | 0x00A3      |         163 |
|      12 | 0x0016      |          22 |
|      13 | 0x1DE8      |        7656 |
|      14 | 0x1DE9      |        7657 |
|      15 | 0x07A4      |        1956 |
|      16 | 0x1DEA      |        7658 |
|      17 | 0x0768      |        1896 |
|      18 | 0x1DEB      |        7659 |
|      19 | 0x1DEC      |        7660 |
|      20 | 0x1DED      |        7661 |
|      21 | 0x1DEE      |        7662 |
|      22 | 0x1DEF      |        7663 |
|      23 | 0x1DF0      |        7664 |
|      24 | 0x1DF1      |        7665 |
|      25 | 0x1DF2      |        7666 |
|      26 | 0x1DF3      |        7667 |
|      27 | 0x1DF4      |        7668 |
|      28 | 0x1DF5      |        7669 |
|      29 | 0x1DF6      |        7670 |
|      30 | 0x0003      |           3 |
|      31 | 0x0008      |           8 |
|      32 | 0x1DF7      |        7671 |
|      33 | 0x1DF8      |        7672 |
|      34 | 0x1DF9      |        7673 |
|      35 | 0x001E      |          30 |
|      36 | 0x1DFA      |        7674 |
|      37 | 0x3473A     |      214842 |
|      38 | 0xFFF25C1F  |  4294073375 |
|      39 | 0x1750B     |       95499 |
|      40 | 0x0959      |        2393 |
|      41 | 0x1DFC      |        7676 |
|      42 | 0x0005      |           5 |
|      43 | 0x0006      |           6 |
|      44 | 0x1DFD      |        7677 |
|      45 | 0x1DFE      |        7678 |
|      46 | 0x1DFF      |        7679 |
|      47 | 0x1E00      |        7680 |
|      48 | 0x1E01      |        7681 |
|      49 | 0x1E02      |        7682 |
|      50 | 0x1E03      |        7683 |
|      51 | 0x1E04      |        7684 |
|      52 | 0x1E05      |        7685 |

## String References

- **7612**: Enter the displacement? [Yes./No.]
- **7676**: You open the trunk with the key!

## Events

### Event 65535

#### Metadata

| Field        | Value   |
|--------------|---------|
| Entrypoint   | 0x0000  |
| Data Size    | 1 bytes |
| Instructions | 1       |

```
      00 01 02 03 04 05 06 07  08 09 0A 0B 0C 0D 0E 0F
      -- -- -- -- -- -- -- --  -- -- -- -- -- -- -- --
0000: 00                                                .               
```

#### Opcodes

```
  0: 0x0000 [0x00] END_REQSTACK()
```

### Event 40

#### Metadata

| Field        | Value      |
|--------------|------------|
| Entrypoint   | 0x0001     |
| Data Size    | 1518 bytes |
| Instructions | 216        |

```
      00 01 02 03 04 05 06 07  08 09 0A 0B 0C 0D 0E 0F
      -- -- -- -- -- -- -- --  -- -- -- -- -- -- -- --
0000:    03 01 10 00 80 02 07  10 00 80 00 80 00 24 01   .............$.
0010: 80 02 80 00 80 25 02 00  10 00 80 00 5B 00 20 01  .....%......[. .
0020: 42 1C 03 80 43 00 43 01  03 01 10 02 80 9F 04 80  B...C.C.........
0030: F8 FF FF 7F F8 FF FF 7F  6D 61 69 6E 00 80 1C 05  ........main....
0040: 80 45 06 80 F0 FF FF 7F  F0 FF FF 7F 66 64 6F 31  .E..........fdo1
0050: 00 80 1C 07 80 1C 08 80  01 80 00 02 00 10 02 80  ................
0060: 00 80 00 45 06 80 F0 FF  FF 7F F0 FF FF 7F 66 64  ...E..........fd
0070: 69 31 00 80 03 01 10 09  80 21 20 00 00 01 80 00  i1.......! .....
0080: 20 01 42 46 01 5D 00 80  03 80 45 06 80 F8 FF FF   .BF.]....E.....
0090: 7F F8 FF FF 7F 66 64 6F  31 00 80 1C 03 80 38 0A  .....fdo1.....8.
00A0: 80 29 08 F0 FF FF 7F 2F  29 0B 2C E1 01 01 37 29  .)...../).,...7)
00B0: 0B 2D E1 01 01 1B 29 0B  F0 FF FF 7F 31 4E 00 2C  .-....).....1N.,
00C0: E1 01 01 4E 00 2D E1 01  01 80 2C E1 01 01 80 2D  ...N.-....,....-
00D0: E1 01 01 5C 00 0B 80 5C  01 0B 80 92 01 2C E1 01  ...\...\.....,..
00E0: 01 92 01 2D E1 01 01 27  0B 2C E1 01 01 38 27 0B  ...-...'.,...8'.
00F0: 2D E1 01 01 1C 45 0C 80  F8 FF FF 7F F8 FF FF 7F  -....E..........
0100: 73 30 31 39 00 80 45 06  80 F8 FF FF 7F F8 FF FF  s019..E.........
0110: 7F 66 64 69 31 00 80 2B  2C E1 01 01 0D 80 23 2A  .fdi1..+,.....#*
0120: 0B 2C E1 01 01 79 00 2C  E1 01 01 2D E1 01 01 2B  .,...y.,...-...+
0130: 2D E1 01 01 0E 80 23 2A  0B 2D E1 01 01 52 0C 80  -.....#*.-...R..
0140: F8 FF FF 7F F8 FF FF 7F  73 30 31 39 45 06 80 F0  ........s019E...
0150: FF FF 7F F0 FF FF 7F 6F  76 6C 31 00 80 45 0C 80  .......ovl1..E..
0160: F8 FF FF 7F F8 FF FF 7F  73 30 32 30 00 80 1C 08  ........s020....
0170: 80 7B 2C E1 01 01 4B 2D  E1 01 01 0F 80 2B 2D E1  .{,...K-.....+-.
0180: 01 01 10 80 23 4B 2C E1  01 01 11 80 1C 03 80 4A  ....#K,........J
0190: 2D E1 01 01 2C E1 01 01  2B 2D E1 01 01 12 80 23  -...,...+-.....#
01A0: 27 0B 2D E1 01 01 1D 27  0B 2C E1 01 01 39 2B 2D  '.-....'.,...9+-
01B0: E1 01 01 13 80 23 2A 0B  2C E1 01 01 2A 0B 2D E1  .....#*.,...*.-.
01C0: 01 01 29 08 2C E1 01 01  23 2B 2C E1 01 01 14 80  ..).,...#+,.....
01D0: 23 29 08 2C E1 01 01 24  4A 2D E1 01 01 2C E1 01  #).,...$J-...,..
01E0: 01 1C 08 80 52 0C 80 F8  FF FF 7F F8 FF FF 7F 73  ....R..........s
01F0: 30 32 30 45 0C 80 F8 FF  FF 7F F8 FF FF 7F 73 30  020E..........s0
0200: 32 31 00 80 2B 2C E1 01  01 15 80 23 6F 76 2D E1  21..+,.....#ov-.
0210: 01 01 52 0C 80 F8 FF FF  7F F8 FF FF 7F 73 30 32  ..R..........s02
0220: 31 45 0C 80 F8 FF FF 7F  F8 FF FF 7F 73 30 32 32  1E..........s022
0230: 00 80 79 00 F0 FF FF 7F  2D E1 01 01 27 0B F0 FF  ..y.....-...'...
0240: FF 7F 32 29 08 2C E1 01  01 25 29 08 2C E1 01 01  ..2).,...%).,...
0250: 26 4A 2C E1 01 01 F0 FF  FF 7F 4A 2D E1 01 01 F0  &J,.......J-....
0260: FF FF 7F 2B 2D E1 01 01  16 80 23 6F 76 2D E1 01  ...+-.....#ov-..
0270: 01 2A 0B F0 FF FF 7F 29  08 2D E1 01 01 11 2B 2D  .*.....).-....+-
0280: E1 01 01 17 80 23 29 08  2D E1 01 01 12 52 0C 80  .....#).-....R..
0290: F8 FF FF 7F F8 FF FF 7F  73 30 32 32 45 0C 80 F8  ........s022E...
02A0: FF FF 7F F8 FF FF 7F 73  30 32 33 00 80 4E 01 F0  .......s023..N..
02B0: FF FF 7F 2B 2D E1 01 01  18 80 23 45 06 80 F8 FF  ...+-.....#E....
02C0: FF 7F F8 FF FF 7F 66 64  6F 31 00 80 1C 03 80 29  ......fdo1.....)
02D0: 08 2D E1 01 01 13 29 08  2D E1 01 01 14 4E 00 F0  .-....).-....N..
02E0: FF FF 7F 52 0C 80 F8 FF  FF 7F F8 FF FF 7F 73 30  ...R..........s0
02F0: 32 33 7B 2C E1 01 01 29  0B 2C E1 01 01 3A 29 0B  23{,...).,...:).
0300: 2D E1 01 01 1E 4A 2D E1  01 01 2C E1 01 01 4A F0  -....J-...,...J.
0310: FF FF 7F 2C E1 01 01 6F  76 F0 FF FF 7F 6F 76 2D  ...,...ov....ov-
0320: E1 01 01 45 0C 80 F8 FF  FF 7F F8 FF FF 7F 73 30  ...E..........s0
0330: 32 34 00 80 45 06 80 F8  FF FF 7F F8 FF FF 7F 66  24..E..........f
0340: 64 69 31 00 80 1C 06 80  52 0C 80 F8 FF FF 7F F8  di1.....R.......
0350: FF FF 7F 73 30 32 34 45  0C 80 F8 FF FF 7F F8 FF  ...s024E........
0360: FF 7F 73 30 32 35 00 80  2B 2C E1 01 01 19 80 23  ..s025..+,.....#
0370: 29 08 2C E1 01 01 01 2B  2C E1 01 01 1A 80 23 52  ).,....+,.....#R
0380: 0C 80 F8 FF FF 7F F8 FF  FF 7F 73 30 32 35 45 0C  ..........s025E.
0390: 80 F8 FF FF 7F F8 FF FF  7F 73 30 32 36 00 80 4A  .........s026..J
03A0: 2D E1 01 01 F0 FF FF 7F  6F 76 2D E1 01 01 29 08  -.......ov-...).
03B0: 2D E1 01 01 05 2B 2D E1  01 01 1B 80 23 29 08 2D  -....+-.....#).-
03C0: E1 01 01 06 79 00 2C E1  01 01 2D E1 01 01 29 08  ....y.,...-...).
03D0: 2C E1 01 01 03 29 08 2D  E1 01 01 07 2B 2D E1 01  ,....).-....+-..
03E0: 01 1C 80 23 29 08 2D E1  01 01 08 29 08 2C E1 01  ...#).-....).,..
03F0: 01 04 4A 2C E1 01 01 2D  E1 01 01 6F 76 2C E1 01  ..J,...-...ov,..
0400: 01 7B 2C E1 01 01 27 0B  2D E1 01 01 1F 2B 2C E1  .{,...'.-....+,.
0410: 01 01 1D 80 23 2A 0B 2D  E1 01 01 52 0C 80 F8 FF  ....#*.-...R....
0420: FF 7F F8 FF FF 7F 73 30  32 36 02 09 10 1E 80 00  ......s026......
0430: 46 04 45 0C 80 F8 FF FF  7F F8 FF FF 7F 73 30 35  F.E..........s05
0440: 39 00 80 01 73 04 02 09  10 1F 80 00 62 04 45 0C  9...s.......b.E.
0450: 80 F8 FF FF 7F F8 FF FF  7F 73 30 35 39 00 80 01  .........s059...
0460: 73 04 45 0C 80 F8 FF FF  7F F8 FF FF 7F 73 30 32  s.E..........s02
0470: 37 00 80 79 00 F0 FF FF  7F 2D E1 01 01 79 00 2C  7..y.....-...y.,
0480: E1 01 01 F0 FF FF 7F 2B  2D E1 01 01 20 80 23 79  .......+-... .#y
0490: 00 F0 FF FF 7F 2C E1 01  01 4A 2C E1 01 01 F0 FF  .....,...J,.....
04A0: FF 7F 2B 2C E1 01 01 21  80 23 6F 76 2C E1 01 01  ..+,...!.#ov,...
04B0: 02 09 10 1E 80 00 CA 04  52 0C 80 F8 FF FF 7F F8  ........R.......
04C0: FF FF 7F 73 30 35 39 01  F3 04 02 09 10 1F 80 00  ...s059.........
04D0: E4 04 52 0C 80 F8 FF FF  7F F8 FF FF 7F 73 30 35  ..R..........s05
04E0: 39 01 F3 04 52 0C 80 F8  FF FF 7F F8 FF FF 7F 73  9...R..........s
04F0: 30 32 37 45 0C 80 F8 FF  FF 7F F8 FF FF 7F 73 30  027E..........s0
0500: 32 36 00 80 4A 2D E1 01  01 2C E1 01 01 6F 76 2D  26..J-...,...ov-
0510: E1 01 01 29 08 2D E1 01  01 05 2B 2D E1 01 01 22  ...).-....+-..."
0520: 80 23 4A 2C E1 01 01 2D  E1 01 01 6F 76 2C E1 01  .#J,...-...ov,..
0530: 01 29 08 2C E1 01 01 01  1C 23 80 2B 2C E1 01 01  .).,.....#.+,...
0540: 24 80 23 52 0C 80 F8 FF  FF 7F F8 FF FF 7F 73 30  $.#R..........s0
0550: 32 36 45 0C 80 F8 FF FF  7F F8 FF FF 7F 73 30 32  26E..........s02
0560: 34 00 80 29 08 2D E1 01  01 06 29 08 2C E1 01 01  4..).-....).,...
0570: 03 29 08 2C E1 01 01 04  27 0B 2C E1 01 01 3B 1C  .).,....'.,...;.
0580: 03 80 27 0B 2D E1 01 01  20 5D 00 80 03 80 45 06  ..'.-... ]....E.
0590: 80 F0 FF FF 7F F0 FF FF  7F 66 64 6F 31 00 80 1C  .........fdo1...
05A0: 03 80 02 07 10 00 80 00  B6 05 47 00 25 80 26 80  ..........G.%.&.
05B0: 27 80 28 80 47 01 52 0C  80 F8 FF FF 7F F8 FF FF  '.(.G.R.........
05C0: 7F 73 30 32 34 5C 00 00  80 5C 01 00 80 4E 00 F0  .s024\...\...N..
05D0: FF FF 7F 80 F0 FF FF 7F  46 00 45 06 80 F0 FF FF  ........F.E.....
05E0: 7F F0 FF FF 7F 66 64 69  31 00 80 20 00 21 00     .....fdi1.. .!. 
```

#### Opcodes

```
  0: 0x0001 [0x03] Work_Zone[1] = 0*
  1: 0x0006 [0x02] IF !(Work_Zone[7] == 0*) GOTO 0x0080
  2: 0x000E [0x24] CREATE_DIALOG(message_id=7612*, default_option=1*, option_flags=0*)
    → "Enter the displacement? [Yes./No.]"
  3: 0x0015 [0x25] WAIT_DIALOG_SELECT()
  4: 0x0016 [0x02] IF !(Work_Zone[0] == 0*) GOTO 0x005B
  5: 0x001E [0x20] SET_CLI_EVENT_UC_FLAG: Lock player control
  6: 0x0020 [0x42] SET_CLI_EVENT_CANCEL_DATA()
  7: 0x0021 [0x1C] WAIT(120* ticks)
  8: 0x0024 [0x43] SEND_EVENT_UPDATE: Send pending tag to server (packet 0x005B)
  9: 0x0026 [0x43] SEND_EVENT_UPDATE: Check pending flag (skip if not pending)
 10: 0x0028 [0x03] Work_Zone[1] = 1*
 11: 0x002D [0x9F] LOAD_SCHEDULED_TASK_ALT: Load scheduler "main" with entities [EventEntity, EventEntity], work=[71*, 0*]
 12: 0x003E [0x1C] WAIT(180* ticks)
 13: 0x0041 [0x45] LOAD_SCHEDULED_TASK: Load scheduler "fdo1" with entities [LocalPlayer, LocalPlayer], work=[200*, 0*]
 14: 0x0052 [0x1C] WAIT(60* ticks)
 15: 0x0055 [0x1C] WAIT(20* ticks)
 16: 0x0058 [0x01] GOTO 0x0080
 17: 0x005B [0x02] IF !(Work_Zone[0] == 1*) GOTO 0x0080
 18: 0x0063 [0x45] LOAD_SCHEDULED_TASK: Load scheduler "fdi1" with entities [LocalPlayer, LocalPlayer], work=[200*, 0*]
 19: 0x0074 [0x03] Work_Zone[1] = 2*
 20: 0x0079 [0x21] END_EVENT

SUBROUTINE_0080:
 21: 0x0080 [0x20] SET_CLI_EVENT_UC_FLAG: Lock player control
 22: 0x0082 [0x42] SET_CLI_EVENT_CANCEL_DATA()
 23: 0x0083 [0x46] CAMERA_CONTROL: Disable user control
 24: 0x0085 [0x5D] SET_MUSIC_VOLUME(volume=0*, fade_time=120*)
 25: 0x008A [0x45] LOAD_SCHEDULED_TASK: Load scheduler "fdo1" with entities [EventEntity, EventEntity], work=[200*, 0*]
 26: 0x009B [0x1C] WAIT(120* ticks)
 27: 0x009E [0x38] SET_CLIENT_EVENT_MODE(mode=19*)
 28: 0x00A1 [0x29] REQ_SET_WAIT(priority=0x08, entity_id=LocalPlayer, tag_num=0x2F)
 29: 0x00A8 [0x29] REQ_SET_WAIT(priority=0x0B, entity_id=Sanctia (ID: 16900396/0x0101E12C), tag_num=0x37)
 30: 0x00AF [0x29] REQ_SET_WAIT(priority=0x0B, entity_id=Novice Moogle (ID: 16900397/0x0101E12D), tag_num=0x1B)
 31: 0x00B6 [0x29] REQ_SET_WAIT(priority=0x0B, entity_id=LocalPlayer, tag_num=0x31)
 32: 0x00BD [0x4E] SET_ENTITY_HIDE_FLAG: Show Sanctia (ID: 16900396/0x0101E12C)
 33: 0x00C3 [0x4E] SET_ENTITY_HIDE_FLAG: Show Novice Moogle (ID: 16900397/0x0101E12D)
 34: 0x00C9 [0x80] LOAD_WAIT(entity=Sanctia (ID: 16900396/0x0101E12C))
 35: 0x00CE [0x80] LOAD_WAIT(entity=Novice Moogle (ID: 16900397/0x0101E12D))
 36: 0x00D3 [0x5C] MUSIC_CONTROL: Set Idle (Day) music to song 163*
 37: 0x00D7 [0x5C] MUSIC_CONTROL: Set Idle (Night) music to song 163*
 38: 0x00DB [0x92] Sanctia (ID: 16900396/0x0101E12C)->Render.Flags3 ^= 0x01
 39: 0x00E1 [0x92] Novice Moogle (ID: 16900397/0x0101E12D)->Render.Flags3 ^= 0x01
 40: 0x00E7 [0x27] REQ_SET(priority=0x0B, entity_id=Sanctia (ID: 16900396/0x0101E12C), tag_num=0x38)
 41: 0x00EE [0x27] REQ_SET(priority=0x0B, entity_id=Novice Moogle (ID: 16900397/0x0101E12D), tag_num=0x1C)
 42: 0x00F5 [0x45] LOAD_SCHEDULED_TASK: Load scheduler "s019" with entities [EventEntity, EventEntity], work=[22*, 0*]
 43: 0x0106 [0x45] LOAD_SCHEDULED_TASK: Load scheduler "fdi1" with entities [EventEntity, EventEntity], work=[200*, 0*]
 44: 0x0117 [0x2B] Sanctia (ID: 16900396/0x0101E12C) [7656*]:
    → "It's the same as everywhere else. Everything in ruins..."
 45: 0x011E [0x23] WAIT_FOR_DIALOG_INTERACTION
 46: 0x011F [0x2A] GET_REQ_LEVEL(level=11, entity_id=Sanctia (ID: 16900396/0x0101E12C))
 47: 0x0125 [0x79] Sanctia (ID: 16900396/0x0101E12C) looks at Novice Moogle (ID: 16900397/0x0101E12D) (Basic look)
 48: 0x012F [0x2B] Novice Moogle (ID: 16900397/0x0101E12D) [7657*]:
    → "All the villagers had to abandon their homes when the war began, kupopo."
 49: 0x0136 [0x23] WAIT_FOR_DIALOG_INTERACTION
 50: 0x0137 [0x2A] GET_REQ_LEVEL(level=11, entity_id=Novice Moogle (ID: 16900397/0x0101E12D))
 51: 0x013D [0x52] END_LOAD_SCHEDULER: End scheduler "s019" with entities [EventEntity, EventEntity], work=22*
 52: 0x014C [0x45] LOAD_SCHEDULED_TASK: Load scheduler "ovl1" with entities [LocalPlayer, LocalPlayer], work=[200*, 0*]
 53: 0x015D [0x45] LOAD_SCHEDULED_TASK: Load scheduler "s020" with entities [EventEntity, EventEntity], work=[22*, 0*]
 54: 0x016E [0x1C] WAIT(20* ticks)
 55: 0x0171 [0x7B] Sanctia (ID: 16900396/0x0101E12C) stops talking
 56: 0x0176 [0x4B] UPDATE_ENTITY_YAW(entity=Novice Moogle (ID: 16900397/0x0101E12D), yaw=10.7°*)
 57: 0x017D [0x2B] Novice Moogle (ID: 16900397/0x0101E12D) [7658*]:
    → "And not so long ago the Wyrmking returned, causing all...this, kupopo."
 58: 0x0184 [0x23] WAIT_FOR_DIALOG_INTERACTION
 59: 0x0185 [0x4B] UPDATE_ENTITY_YAW(entity=Sanctia (ID: 16900396/0x0101E12C), yaw=10.4°*)
 60: 0x018C [0x1C] WAIT(120* ticks)
 61: 0x018F [0x4A] Novice Moogle (ID: 16900397/0x0101E12D) looks at Sanctia (ID: 16900396/0x0101E12C)
 62: 0x0198 [0x2B] Novice Moogle (ID: 16900397/0x0101E12D) [7659*]:
    → "I think we can safely assume there are no bounty hunters here. Let's get back to ground that's, well, on the ground, kupopo."
 63: 0x019F [0x23] WAIT_FOR_DIALOG_INTERACTION
 64: 0x01A0 [0x27] REQ_SET(priority=0x0B, entity_id=Novice Moogle (ID: 16900397/0x0101E12D), tag_num=0x1D)
 65: 0x01A7 [0x27] REQ_SET(priority=0x0B, entity_id=Sanctia (ID: 16900396/0x0101E12C), tag_num=0x39)
 66: 0x01AE [0x2B] Novice Moogle (ID: 16900397/0x0101E12D) [7660*]:
    → "This is the territory of the Wyrmking. Even a moogle like me can't match the power of Bahamut."
 67: 0x01B5 [0x23] WAIT_FOR_DIALOG_INTERACTION
 68: 0x01B6 [0x2A] GET_REQ_LEVEL(level=11, entity_id=Sanctia (ID: 16900396/0x0101E12C))
 69: 0x01BC [0x2A] GET_REQ_LEVEL(level=11, entity_id=Novice Moogle (ID: 16900397/0x0101E12D))
 70: 0x01C2 [0x29] REQ_SET_WAIT(priority=0x08, entity_id=Sanctia (ID: 16900396/0x0101E12C), tag_num=0x23)
 71: 0x01C9 [0x2B] Sanctia (ID: 16900396/0x0101E12C) [7661*]:
    → "No. I have to find Goldmane, no matter what."
 72: 0x01D0 [0x23] WAIT_FOR_DIALOG_INTERACTION
 73: 0x01D1 [0x29] REQ_SET_WAIT(priority=0x08, entity_id=Sanctia (ID: 16900396/0x0101E12C), tag_num=0x24)
 74: 0x01D8 [0x4A] Novice Moogle (ID: 16900397/0x0101E12D) looks at Sanctia (ID: 16900396/0x0101E12C)
 75: 0x01E1 [0x1C] WAIT(20* ticks)
 76: 0x01E4 [0x52] END_LOAD_SCHEDULER: End scheduler "s020" with entities [EventEntity, EventEntity], work=22*
 77: 0x01F3 [0x45] LOAD_SCHEDULED_TASK: Load scheduler "s021" with entities [EventEntity, EventEntity], work=[22*, 0*]
 78: 0x0204 [0x2B] Sanctia (ID: 16900396/0x0101E12C) [7662*]:
    → "I'm not leaving until I find some clues."
 79: 0x020B [0x23] WAIT_FOR_DIALOG_INTERACTION
 80: 0x020C [0x6F] WAIT_FRAME_DELAY: Yield until WaitTime reaches zero
 81: 0x020D [0x76] CHECK_ENTITY_RENDER_FLAGS: Wait until Novice Moogle (ID: 16900397/0x0101E12D) Render.Flags0 and Render.Flags3 conditions are met
 82: 0x0212 [0x52] END_LOAD_SCHEDULER: End scheduler "s021" with entities [EventEntity, EventEntity], work=22*
 83: 0x0221 [0x45] LOAD_SCHEDULED_TASK: Load scheduler "s022" with entities [EventEntity, EventEntity], work=[22*, 0*]
 84: 0x0232 [0x79] LocalPlayer looks at Novice Moogle (ID: 16900397/0x0101E12D) (Basic look)
 85: 0x023C [0x27] REQ_SET(priority=0x0B, entity_id=LocalPlayer, tag_num=0x32)
 86: 0x0243 [0x29] REQ_SET_WAIT(priority=0x08, entity_id=Sanctia (ID: 16900396/0x0101E12C), tag_num=0x25)
 87: 0x024A [0x29] REQ_SET_WAIT(priority=0x08, entity_id=Sanctia (ID: 16900396/0x0101E12C), tag_num=0x26)
 88: 0x0251 [0x4A] Sanctia (ID: 16900396/0x0101E12C) looks at LocalPlayer
 89: 0x025A [0x4A] Novice Moogle (ID: 16900397/0x0101E12D) looks at LocalPlayer
 90: 0x0263 [0x2B] Novice Moogle (ID: 16900397/0x0101E12D) [7663*]:
    → "Kupopo?"
 91: 0x026A [0x23] WAIT_FOR_DIALOG_INTERACTION
 92: 0x026B [0x6F] WAIT_FRAME_DELAY: Yield until WaitTime reaches zero
 93: 0x026C [0x76] CHECK_ENTITY_RENDER_FLAGS: Wait until Novice Moogle (ID: 16900397/0x0101E12D) Render.Flags0 and Render.Flags3 conditions are met
 94: 0x0271 [0x2A] GET_REQ_LEVEL(level=11, entity_id=LocalPlayer)
 95: 0x0277 [0x29] REQ_SET_WAIT(priority=0x08, entity_id=Novice Moogle (ID: 16900397/0x0101E12D), tag_num=0x11)
 96: 0x027E [0x2B] Novice Moogle (ID: 16900397/0x0101E12D) [7664*]:
    → "Look, Sanctia, it's the adventurer that was searching for you, kupopo!"
 97: 0x0285 [0x23] WAIT_FOR_DIALOG_INTERACTION
 98: 0x0286 [0x29] REQ_SET_WAIT(priority=0x08, entity_id=Novice Moogle (ID: 16900397/0x0101E12D), tag_num=0x12)
 99: 0x028D [0x52] END_LOAD_SCHEDULER: End scheduler "s022" with entities [EventEntity, EventEntity], work=22*
100: 0x029C [0x45] LOAD_SCHEDULED_TASK: Load scheduler "s023" with entities [EventEntity, EventEntity], work=[22*, 0*]
101: 0x02AD [0x4E] SET_ENTITY_HIDE_FLAG: Hide LocalPlayer
102: 0x02B3 [0x2B] Novice Moogle (ID: 16900397/0x0101E12D) [7665*]:
    → "Have you come to make sure she's okay again, kupopo?"
103: 0x02BA [0x23] WAIT_FOR_DIALOG_INTERACTION
104: 0x02BB [0x45] LOAD_SCHEDULED_TASK: Load scheduler "fdo1" with entities [EventEntity, EventEntity], work=[200*, 0*]
105: 0x02CC [0x1C] WAIT(120* ticks)
106: 0x02CF [0x29] REQ_SET_WAIT(priority=0x08, entity_id=Novice Moogle (ID: 16900397/0x0101E12D), tag_num=0x13)
107: 0x02D6 [0x29] REQ_SET_WAIT(priority=0x08, entity_id=Novice Moogle (ID: 16900397/0x0101E12D), tag_num=0x14)
108: 0x02DD [0x4E] SET_ENTITY_HIDE_FLAG: Show LocalPlayer
109: 0x02E3 [0x52] END_LOAD_SCHEDULER: End scheduler "s023" with entities [EventEntity, EventEntity], work=22*
110: 0x02F2 [0x7B] Sanctia (ID: 16900396/0x0101E12C) stops talking
111: 0x02F7 [0x29] REQ_SET_WAIT(priority=0x0B, entity_id=Sanctia (ID: 16900396/0x0101E12C), tag_num=0x3A)
112: 0x02FE [0x29] REQ_SET_WAIT(priority=0x0B, entity_id=Novice Moogle (ID: 16900397/0x0101E12D), tag_num=0x1E)
113: 0x0305 [0x4A] Novice Moogle (ID: 16900397/0x0101E12D) looks at Sanctia (ID: 16900396/0x0101E12C)
114: 0x030E [0x4A] LocalPlayer looks at Sanctia (ID: 16900396/0x0101E12C)
115: 0x0317 [0x6F] WAIT_FRAME_DELAY: Yield until WaitTime reaches zero
116: 0x0318 [0x76] CHECK_ENTITY_RENDER_FLAGS: Wait until LocalPlayer Render.Flags0 and Render.Flags3 conditions are met
117: 0x031D [0x6F] WAIT_FRAME_DELAY: Yield until WaitTime reaches zero
118: 0x031E [0x76] CHECK_ENTITY_RENDER_FLAGS: Wait until Novice Moogle (ID: 16900397/0x0101E12D) Render.Flags0 and Render.Flags3 conditions are met
119: 0x0323 [0x45] LOAD_SCHEDULED_TASK: Load scheduler "s024" with entities [EventEntity, EventEntity], work=[22*, 0*]
120: 0x0334 [0x45] LOAD_SCHEDULED_TASK: Load scheduler "fdi1" with entities [EventEntity, EventEntity], work=[200*, 0*]
121: 0x0345 [0x1C] WAIT(200* ticks)
122: 0x0348 [0x52] END_LOAD_SCHEDULER: End scheduler "s024" with entities [EventEntity, EventEntity], work=22*
123: 0x0357 [0x45] LOAD_SCHEDULED_TASK: Load scheduler "s025" with entities [EventEntity, EventEntity], work=[22*, 0*]
124: 0x0368 [0x2B] Sanctia (ID: 16900396/0x0101E12C) [7666*]:
    → "I see where this is going."
125: 0x036F [0x23] WAIT_FOR_DIALOG_INTERACTION
126: 0x0370 [0x29] REQ_SET_WAIT(priority=0x08, entity_id=Sanctia (ID: 16900396/0x0101E12C), tag_num=0x01)
127: 0x0377 [0x2B] Sanctia (ID: 16900396/0x0101E12C) [7667*]:
    → "But I don't need your help. I have to be wary of people I don't know in this line of work."
128: 0x037E [0x23] WAIT_FOR_DIALOG_INTERACTION
129: 0x037F [0x52] END_LOAD_SCHEDULER: End scheduler "s025" with entities [EventEntity, EventEntity], work=22*
130: 0x038E [0x45] LOAD_SCHEDULED_TASK: Load scheduler "s026" with entities [EventEntity, EventEntity], work=[22*, 0*]
131: 0x039F [0x4A] Novice Moogle (ID: 16900397/0x0101E12D) looks at LocalPlayer
132: 0x03A8 [0x6F] WAIT_FRAME_DELAY: Yield until WaitTime reaches zero
133: 0x03A9 [0x76] CHECK_ENTITY_RENDER_FLAGS: Wait until Novice Moogle (ID: 16900397/0x0101E12D) Render.Flags0 and Render.Flags3 conditions are met
134: 0x03AE [0x29] REQ_SET_WAIT(priority=0x08, entity_id=Novice Moogle (ID: 16900397/0x0101E12D), tag_num=0x05)
135: 0x03B5 [0x2B] Novice Moogle (ID: 16900397/0x0101E12D) [7668*]:
    → "I'm really sorry about this, kupopo."
136: 0x03BC [0x23] WAIT_FOR_DIALOG_INTERACTION
137: 0x03BD [0x29] REQ_SET_WAIT(priority=0x08, entity_id=Novice Moogle (ID: 16900397/0x0101E12D), tag_num=0x06)
138: 0x03C4 [0x79] Sanctia (ID: 16900396/0x0101E12C) looks at Novice Moogle (ID: 16900397/0x0101E12D) (Basic look)
139: 0x03CE [0x29] REQ_SET_WAIT(priority=0x08, entity_id=Sanctia (ID: 16900396/0x0101E12C), tag_num=0x03)
140: 0x03D5 [0x29] REQ_SET_WAIT(priority=0x08, entity_id=Novice Moogle (ID: 16900397/0x0101E12D), tag_num=0x07)
141: 0x03DC [0x2B] Novice Moogle (ID: 16900397/0x0101E12D) [7669*]:
    → "We'll at least take the package you brought from Sanctia's dad, kupopo."
142: 0x03E3 [0x23] WAIT_FOR_DIALOG_INTERACTION
143: 0x03E4 [0x29] REQ_SET_WAIT(priority=0x08, entity_id=Novice Moogle (ID: 16900397/0x0101E12D), tag_num=0x08)
144: 0x03EB [0x29] REQ_SET_WAIT(priority=0x08, entity_id=Sanctia (ID: 16900396/0x0101E12C), tag_num=0x04)
145: 0x03F2 [0x4A] Sanctia (ID: 16900396/0x0101E12C) looks at Novice Moogle (ID: 16900397/0x0101E12D)
146: 0x03FB [0x6F] WAIT_FRAME_DELAY: Yield until WaitTime reaches zero
147: 0x03FC [0x76] CHECK_ENTITY_RENDER_FLAGS: Wait until Sanctia (ID: 16900396/0x0101E12C) Render.Flags0 and Render.Flags3 conditions are met
148: 0x0401 [0x7B] Sanctia (ID: 16900396/0x0101E12C) stops talking
149: 0x0406 [0x27] REQ_SET(priority=0x0B, entity_id=Novice Moogle (ID: 16900397/0x0101E12D), tag_num=0x1F)
150: 0x040D [0x2B] Sanctia (ID: 16900396/0x0101E12C) [7670*]:
    → "I don't need that either."
151: 0x0414 [0x23] WAIT_FOR_DIALOG_INTERACTION
152: 0x0415 [0x2A] GET_REQ_LEVEL(level=11, entity_id=Novice Moogle (ID: 16900397/0x0101E12D))
153: 0x041B [0x52] END_LOAD_SCHEDULER: End scheduler "s026" with entities [EventEntity, EventEntity], work=22*
154: 0x042A [0x02] IF !(Work_Zone[9] == 3*) GOTO 0x0446
155: 0x0432 [0x45] LOAD_SCHEDULED_TASK: Load scheduler "s059" with entities [EventEntity, EventEntity], work=[22*, 0*]
156: 0x0443 [0x01] GOTO 0x0473
157: 0x0446 [0x02] IF !(Work_Zone[9] == 8*) GOTO 0x0462
158: 0x044E [0x45] LOAD_SCHEDULED_TASK: Load scheduler "s059" with entities [EventEntity, EventEntity], work=[22*, 0*]
159: 0x045F [0x01] GOTO 0x0473
160: 0x0462 [0x45] LOAD_SCHEDULED_TASK: Load scheduler "s027" with entities [EventEntity, EventEntity], work=[22*, 0*]

SUBROUTINE_0473:
161: 0x0473 [0x79] LocalPlayer looks at Novice Moogle (ID: 16900397/0x0101E12D) (Basic look)
162: 0x047D [0x79] Sanctia (ID: 16900396/0x0101E12C) looks at LocalPlayer (Basic look)
163: 0x0487 [0x2B] Novice Moogle (ID: 16900397/0x0101E12D) [7671*]:
    → "But, Sanctia! This poor adventurer has traveled across half the world to deliver this to you, kupopo!"
164: 0x048E [0x23] WAIT_FOR_DIALOG_INTERACTION
165: 0x048F [0x79] LocalPlayer looks at Sanctia (ID: 16900396/0x0101E12C) (Basic look)
166: 0x0499 [0x4A] Sanctia (ID: 16900396/0x0101E12C) looks at LocalPlayer
167: 0x04A2 [0x2B] Sanctia (ID: 16900396/0x0101E12C) [7672*]:
    → "Fine. If you find something around here that belonged to Goldmane, I'll take the package off your hands."
168: 0x04A9 [0x23] WAIT_FOR_DIALOG_INTERACTION
169: 0x04AA [0x6F] WAIT_FRAME_DELAY: Yield until WaitTime reaches zero
170: 0x04AB [0x76] CHECK_ENTITY_RENDER_FLAGS: Wait until Sanctia (ID: 16900396/0x0101E12C) Render.Flags0 and Render.Flags3 conditions are met
171: 0x04B0 [0x02] IF !(Work_Zone[9] == 3*) GOTO 0x04CA
172: 0x04B8 [0x52] END_LOAD_SCHEDULER: End scheduler "s059" with entities [EventEntity, EventEntity], work=22*
173: 0x04C7 [0x01] GOTO 0x04F3
174: 0x04CA [0x02] IF !(Work_Zone[9] == 8*) GOTO 0x04E4
175: 0x04D2 [0x52] END_LOAD_SCHEDULER: End scheduler "s059" with entities [EventEntity, EventEntity], work=22*
176: 0x04E1 [0x01] GOTO 0x04F3
177: 0x04E4 [0x52] END_LOAD_SCHEDULER: End scheduler "s027" with entities [EventEntity, EventEntity], work=22*

SUBROUTINE_04F3:
178: 0x04F3 [0x45] LOAD_SCHEDULED_TASK: Load scheduler "s026" with entities [EventEntity, EventEntity], work=[22*, 0*]
179: 0x0504 [0x4A] Novice Moogle (ID: 16900397/0x0101E12D) looks at Sanctia (ID: 16900396/0x0101E12C)
180: 0x050D [0x6F] WAIT_FRAME_DELAY: Yield until WaitTime reaches zero
181: 0x050E [0x76] CHECK_ENTITY_RENDER_FLAGS: Wait until Novice Moogle (ID: 16900397/0x0101E12D) Render.Flags0 and Render.Flags3 conditions are met
182: 0x0513 [0x29] REQ_SET_WAIT(priority=0x08, entity_id=Novice Moogle (ID: 16900397/0x0101E12D), tag_num=0x05)
183: 0x051A [0x2B] Novice Moogle (ID: 16900397/0x0101E12D) [7673*]:
    → "Why are you being so difficult, kupopo!?"
184: 0x0521 [0x23] WAIT_FOR_DIALOG_INTERACTION
185: 0x0522 [0x4A] Sanctia (ID: 16900396/0x0101E12C) looks at Novice Moogle (ID: 16900397/0x0101E12D)
186: 0x052B [0x6F] WAIT_FRAME_DELAY: Yield until WaitTime reaches zero
187: 0x052C [0x76] CHECK_ENTITY_RENDER_FLAGS: Wait until Sanctia (ID: 16900396/0x0101E12C) Render.Flags0 and Render.Flags3 conditions are met
188: 0x0531 [0x29] REQ_SET_WAIT(priority=0x08, entity_id=Sanctia (ID: 16900396/0x0101E12C), tag_num=0x01)
189: 0x0538 [0x1C] WAIT(30* ticks)
190: 0x053B [0x2B] Sanctia (ID: 16900396/0x0101E12C) [7674*]:
    → "I don't think I'm being difficult."
191: 0x0542 [0x23] WAIT_FOR_DIALOG_INTERACTION
192: 0x0543 [0x52] END_LOAD_SCHEDULER: End scheduler "s026" with entities [EventEntity, EventEntity], work=22*
193: 0x0552 [0x45] LOAD_SCHEDULED_TASK: Load scheduler "s024" with entities [EventEntity, EventEntity], work=[22*, 0*]
194: 0x0563 [0x29] REQ_SET_WAIT(priority=0x08, entity_id=Novice Moogle (ID: 16900397/0x0101E12D), tag_num=0x06)
195: 0x056A [0x29] REQ_SET_WAIT(priority=0x08, entity_id=Sanctia (ID: 16900396/0x0101E12C), tag_num=0x03)
196: 0x0571 [0x29] REQ_SET_WAIT(priority=0x08, entity_id=Sanctia (ID: 16900396/0x0101E12C), tag_num=0x04)
197: 0x0578 [0x27] REQ_SET(priority=0x0B, entity_id=Sanctia (ID: 16900396/0x0101E12C), tag_num=0x3B)
198: 0x057F [0x1C] WAIT(120* ticks)
199: 0x0582 [0x27] REQ_SET(priority=0x0B, entity_id=Novice Moogle (ID: 16900397/0x0101E12D), tag_num=0x20)
200: 0x0589 [0x5D] SET_MUSIC_VOLUME(volume=0*, fade_time=120*)
201: 0x058E [0x45] LOAD_SCHEDULED_TASK: Load scheduler "fdo1" with entities [LocalPlayer, LocalPlayer], work=[200*, 0*]
202: 0x059F [0x1C] WAIT(120* ticks)
203: 0x05A2 [0x02] IF !(Work_Zone[7] == 0*) GOTO 0x05B6
204: 0x05AA [0x47] UPDATE_PLAYER_POS(214.842*, -893.921*, 95.499*, yaw=210.3°*)
205: 0x05B4 [0x47] WAIT_PLAYER_POS_UPDATE
206: 0x05B6 [0x52] END_LOAD_SCHEDULER: End scheduler "s024" with entities [EventEntity, EventEntity], work=22*
207: 0x05C5 [0x5C] MUSIC_CONTROL: Set Idle (Day) music to song 0*
208: 0x05C9 [0x5C] MUSIC_CONTROL: Set Idle (Night) music to song 0*
209: 0x05CD [0x4E] SET_ENTITY_HIDE_FLAG: Show LocalPlayer
210: 0x05D3 [0x80] LOAD_WAIT(entity=LocalPlayer)
211: 0x05D8 [0x46] CAMERA_CONTROL: Restore default settings
212: 0x05DA [0x45] LOAD_SCHEDULED_TASK: Load scheduler "fdi1" with entities [LocalPlayer, LocalPlayer], work=[200*, 0*]
213: 0x05EB [0x20] SET_CLI_EVENT_UC_FLAG: Unlock player control
214: 0x05ED [0x21] END_EVENT
215: 0x05EE [0x00] END_REQSTACK()
```

#### Data or dead code:

```
# Dead code (unreachable instructions):
     0x007A [0x20] SET_CLI_EVENT_UC_FLAG: Unlock player control
     0x007C [0x00] END_REQSTACK()
     0x007D [0x01] GOTO 0x0080
```

### Event 41

#### Metadata

| Field        | Value     |
|--------------|-----------|
| Entrypoint   | 0x05EF    |
| Data Size    | 829 bytes |
| Instructions | 114       |

```
      00 01 02 03 04 05 06 07  08 09 0A 0B 0C 0D 0E 0F
      -- -- -- -- -- -- -- --  -- -- -- -- -- -- -- --
05E0:                                               20                  
05F0: 01 42 46 01 5D 00 80 03  80 45 06 80 F8 FF FF 7F  .BF.]....E......
0600: F8 FF FF 7F 66 64 6F 31  00 80 1C 03 80 48 29 80  ....fdo1.....H).
0610: 23 38 0A 80 29 08 F0 FF  FF 7F 2F 29 0B 2C E1 01  #8..)...../).,..
0620: 01 3C 29 0B 2D E1 01 01  21 29 0B F0 FF FF 7F 33  .<).-...!).....3
0630: 4E 00 2C E1 01 01 4E 00  2D E1 01 01 4E 00 2B E1  N.,...N.-...N.+.
0640: 01 01 80 2B E1 01 01 80  2C E1 01 01 80 2D E1 01  ...+....,....-..
0650: 01 92 01 2C E1 01 01 92  01 2D E1 01 01 92 01 2B  ...,.....-.....+
0660: E1 01 01 29 0B 2B E1 01  01 02 27 0B 2C E1 01 01  ...).+....'.,...
0670: 3D 02 09 10 2A 80 00 8D  06 45 0C 80 F8 FF FF 7F  =...*....E......
0680: F8 FF FF 7F 73 30 33 34  00 80 01 BA 06 02 09 10  ....s034........
0690: 2B 80 00 A9 06 45 0C 80  F8 FF FF 7F F8 FF FF 7F  +....E..........
06A0: 73 30 33 34 00 80 01 BA  06 45 0C 80 F8 FF FF 7F  s034.....E......
06B0: F8 FF FF 7F 73 30 32 38  00 80 45 06 80 F8 FF FF  ....s028..E.....
06C0: 7F F8 FF FF 7F 66 64 69  31 00 80 2B 2C E1 01 01  .....fdi1..+,...
06D0: 2C 80 23 4A F0 FF FF 7F  2C E1 01 01 6F 76 F0 FF  ,.#J....,...ov..
06E0: FF 7F 2A 0B 2C E1 01 01  02 09 10 2A 80 00 02 07  ..*.,......*....
06F0: 52 0C 80 F8 FF FF 7F F8  FF FF 7F 73 30 33 34 01  R..........s034.
0700: 2B 07 02 09 10 2B 80 00  1C 07 52 0C 80 F8 FF FF  +....+....R.....
0710: 7F F8 FF FF 7F 73 30 33  34 01 2B 07 52 0C 80 F8  .....s034.+.R...
0720: FF FF 7F F8 FF FF 7F 73  30 32 38 45 0C 80 F8 FF  .......s028E....
0730: FF 7F F8 FF FF 7F 73 30  32 39 00 80 27 0B 2C E1  ......s029..'.,.
0740: 01 01 3E 27 0B F0 FF FF  7F 34 27 0B 2D E1 01 01  ..>'.....4'.-...
0750: 22 2B 2C E1 01 01 2D 80  23 45 06 80 F8 FF FF 7F  "+,...-.#E......
0760: F8 FF FF 7F 66 64 6F 31  00 80 1C 03 80 2A 0B 2C  ....fdo1.....*.,
0770: E1 01 01 2A 0B F0 FF FF  7F 2A 0B 2D E1 01 01 5C  ...*.....*.-...\
0780: 00 0B 80 5C 01 0B 80 29  0B 2C E1 01 01 3F 29 0B  ...\...).,...?).
0790: 2D E1 01 01 23 29 0B F0  FF FF 7F 35 29 08 2C E1  -...#).....5).,.
07A0: 01 01 40 52 0C 80 F8 FF  FF 7F F8 FF FF 7F 73 30  ..@R..........s0
07B0: 32 39 45 0C 80 F8 FF FF  7F F8 FF FF 7F 73 30 33  29E..........s03
07C0: 30 00 80 45 06 80 F8 FF  FF 7F F8 FF FF 7F 66 64  0..E..........fd
07D0: 69 31 00 80 2B 2C E1 01  01 2E 80 23 2B 2C E1 01  i1..+,.....#+,..
07E0: 01 2F 80 23 27 08 2C E1  01 01 41 2A 08 2C E1 01  ./.#'.,...A*.,..
07F0: 01 52 0C 80 F8 FF FF 7F  F8 FF FF 7F 73 30 33 30  .R..........s030
0800: 45 0C 80 F8 FF FF 7F F8  FF FF 7F 73 30 33 31 00  E..........s031.
0810: 80 2B 2C E1 01 01 30 80  23 29 08 2C E1 01 01 1B  .+,...0.#).,....
0820: 2B 2C E1 01 01 31 80 23  29 08 2C E1 01 01 1C 52  +,...1.#).,....R
0830: 0C 80 F8 FF FF 7F F8 FF  FF 7F 73 30 33 31 45 0C  ..........s031E.
0840: 80 F8 FF FF 7F F8 FF FF  7F 73 30 33 32 00 80 29  .........s032..)
0850: 08 2C E1 01 01 1D 29 08  2C E1 01 01 1E 27 0B 2C  .,....).,....'.,
0860: E1 01 01 42 27 0B 2D E1  01 01 1F 2B 2C E1 01 01  ...B'.-....+,...
0870: 32 80 23 2A 0B 2C E1 01  01 2A 0B 2D E1 01 01 4A  2.#*.,...*.-...J
0880: F0 FF FF 7F 2C E1 01 01  52 0C 80 F8 FF FF 7F F8  ....,...R.......
0890: FF FF 7F 73 30 33 32 45  0C 80 F8 FF FF 7F F8 FF  ...s032E........
08A0: FF 7F 73 30 33 33 00 80  27 0B 2C E1 01 01 43 27  ..s033..'.,...C'
08B0: 0B 2D E1 01 01 24 2B 2D  E1 01 01 33 80 23 2A 0B  .-...$+-...3.#*.
08C0: 2D E1 01 01 29 08 2D E1  01 01 05 2B 2D E1 01 01  -...).-....+-...
08D0: 34 80 23 52 0C 80 F8 FF  FF 7F F8 FF FF 7F 73 30  4.#R..........s0
08E0: 33 33 5D 00 80 03 80 45  06 80 F0 FF FF 7F F0 FF  33]....E........
08F0: FF 7F 66 64 6F 31 00 80  1C 03 80 29 08 2D E1 01  ..fdo1.....).-..
0900: 01 06 5C 00 00 80 5C 01  00 80 4E 00 F0 FF FF 7F  ..\...\...N.....
0910: 80 F0 FF FF 7F 46 00 45  06 80 F0 FF FF 7F F0 FF  .....F.E........
0920: FF 7F 66 64 69 31 00 80  20 00 21 00              ..fdi1.. .!.    
```

#### Opcodes

```
  0: 0x05EF [0x20] SET_CLI_EVENT_UC_FLAG: Lock player control
  1: 0x05F1 [0x42] SET_CLI_EVENT_CANCEL_DATA()
  2: 0x05F2 [0x46] CAMERA_CONTROL: Disable user control
  3: 0x05F4 [0x5D] SET_MUSIC_VOLUME(volume=0*, fade_time=120*)
  4: 0x05F9 [0x45] LOAD_SCHEDULED_TASK: Load scheduler "fdo1" with entities [EventEntity, EventEntity], work=[200*, 0*]
  5: 0x060A [0x1C] WAIT(120* ticks)
  6: 0x060D [0x48] [System] [7676*]:
    → "You open the trunk with the key!"
  7: 0x0610 [0x23] WAIT_FOR_DIALOG_INTERACTION
  8: 0x0611 [0x38] SET_CLIENT_EVENT_MODE(mode=19*)
  9: 0x0614 [0x29] REQ_SET_WAIT(priority=0x08, entity_id=LocalPlayer, tag_num=0x2F)
 10: 0x061B [0x29] REQ_SET_WAIT(priority=0x0B, entity_id=Sanctia (ID: 16900396/0x0101E12C), tag_num=0x3C)
 11: 0x0622 [0x29] REQ_SET_WAIT(priority=0x0B, entity_id=Novice Moogle (ID: 16900397/0x0101E12D), tag_num=0x21)
 12: 0x0629 [0x29] REQ_SET_WAIT(priority=0x0B, entity_id=LocalPlayer, tag_num=0x33)
 13: 0x0630 [0x4E] SET_ENTITY_HIDE_FLAG: Show Sanctia (ID: 16900396/0x0101E12C)
 14: 0x0636 [0x4E] SET_ENTITY_HIDE_FLAG: Show Novice Moogle (ID: 16900397/0x0101E12D)
 15: 0x063C [0x4E] SET_ENTITY_HIDE_FLAG: Show Trunk (ID: 16900395/0x0101E12B)
 16: 0x0642 [0x80] LOAD_WAIT(entity=Trunk (ID: 16900395/0x0101E12B))
 17: 0x0647 [0x80] LOAD_WAIT(entity=Sanctia (ID: 16900396/0x0101E12C))
 18: 0x064C [0x80] LOAD_WAIT(entity=Novice Moogle (ID: 16900397/0x0101E12D))
 19: 0x0651 [0x92] Sanctia (ID: 16900396/0x0101E12C)->Render.Flags3 ^= 0x01
 20: 0x0657 [0x92] Novice Moogle (ID: 16900397/0x0101E12D)->Render.Flags3 ^= 0x01
 21: 0x065D [0x92] Trunk (ID: 16900395/0x0101E12B)->Render.Flags3 ^= 0x01
 22: 0x0663 [0x29] REQ_SET_WAIT(priority=0x0B, entity_id=Trunk (ID: 16900395/0x0101E12B), tag_num=0x02)
 23: 0x066A [0x27] REQ_SET(priority=0x0B, entity_id=Sanctia (ID: 16900396/0x0101E12C), tag_num=0x3D)
 24: 0x0671 [0x02] IF !(Work_Zone[9] == 5*) GOTO 0x068D
 25: 0x0679 [0x45] LOAD_SCHEDULED_TASK: Load scheduler "s034" with entities [EventEntity, EventEntity], work=[22*, 0*]
 26: 0x068A [0x01] GOTO 0x06BA
 27: 0x068D [0x02] IF !(Work_Zone[9] == 6*) GOTO 0x06A9
 28: 0x0695 [0x45] LOAD_SCHEDULED_TASK: Load scheduler "s034" with entities [EventEntity, EventEntity], work=[22*, 0*]
 29: 0x06A6 [0x01] GOTO 0x06BA
 30: 0x06A9 [0x45] LOAD_SCHEDULED_TASK: Load scheduler "s028" with entities [EventEntity, EventEntity], work=[22*, 0*]

SUBROUTINE_06BA:
 31: 0x06BA [0x45] LOAD_SCHEDULED_TASK: Load scheduler "fdi1" with entities [EventEntity, EventEntity], work=[200*, 0*]
 32: 0x06CB [0x2B] Sanctia (ID: 16900396/0x0101E12C) [7677*]:
    → "Oooh!"
 33: 0x06D2 [0x23] WAIT_FOR_DIALOG_INTERACTION
 34: 0x06D3 [0x4A] LocalPlayer looks at Sanctia (ID: 16900396/0x0101E12C)
 35: 0x06DC [0x6F] WAIT_FRAME_DELAY: Yield until WaitTime reaches zero
 36: 0x06DD [0x76] CHECK_ENTITY_RENDER_FLAGS: Wait until LocalPlayer Render.Flags0 and Render.Flags3 conditions are met
 37: 0x06E2 [0x2A] GET_REQ_LEVEL(level=11, entity_id=Sanctia (ID: 16900396/0x0101E12C))
 38: 0x06E8 [0x02] IF !(Work_Zone[9] == 5*) GOTO 0x0702
 39: 0x06F0 [0x52] END_LOAD_SCHEDULER: End scheduler "s034" with entities [EventEntity, EventEntity], work=22*
 40: 0x06FF [0x01] GOTO 0x072B
 41: 0x0702 [0x02] IF !(Work_Zone[9] == 6*) GOTO 0x071C
 42: 0x070A [0x52] END_LOAD_SCHEDULER: End scheduler "s034" with entities [EventEntity, EventEntity], work=22*
 43: 0x0719 [0x01] GOTO 0x072B
 44: 0x071C [0x52] END_LOAD_SCHEDULER: End scheduler "s028" with entities [EventEntity, EventEntity], work=22*

SUBROUTINE_072B:
 45: 0x072B [0x45] LOAD_SCHEDULED_TASK: Load scheduler "s029" with entities [EventEntity, EventEntity], work=[22*, 0*]
 46: 0x073C [0x27] REQ_SET(priority=0x0B, entity_id=Sanctia (ID: 16900396/0x0101E12C), tag_num=0x3E)
 47: 0x0743 [0x27] REQ_SET(priority=0x0B, entity_id=LocalPlayer, tag_num=0x34)
 48: 0x074A [0x27] REQ_SET(priority=0x0B, entity_id=Novice Moogle (ID: 16900397/0x0101E12D), tag_num=0x22)
 49: 0x0751 [0x2B] Sanctia (ID: 16900396/0x0101E12C) [7678*]:
    → "I saw that! What did you find? Lemme see! Is it anything to do with Goldmane!?"
 50: 0x0758 [0x23] WAIT_FOR_DIALOG_INTERACTION
 51: 0x0759 [0x45] LOAD_SCHEDULED_TASK: Load scheduler "fdo1" with entities [EventEntity, EventEntity], work=[200*, 0*]
 52: 0x076A [0x1C] WAIT(120* ticks)
 53: 0x076D [0x2A] GET_REQ_LEVEL(level=11, entity_id=Sanctia (ID: 16900396/0x0101E12C))
 54: 0x0773 [0x2A] GET_REQ_LEVEL(level=11, entity_id=LocalPlayer)
 55: 0x0779 [0x2A] GET_REQ_LEVEL(level=11, entity_id=Novice Moogle (ID: 16900397/0x0101E12D))
 56: 0x077F [0x5C] MUSIC_CONTROL: Set Idle (Day) music to song 163*
 57: 0x0783 [0x5C] MUSIC_CONTROL: Set Idle (Night) music to song 163*
 58: 0x0787 [0x29] REQ_SET_WAIT(priority=0x0B, entity_id=Sanctia (ID: 16900396/0x0101E12C), tag_num=0x3F)
 59: 0x078E [0x29] REQ_SET_WAIT(priority=0x0B, entity_id=Novice Moogle (ID: 16900397/0x0101E12D), tag_num=0x23)
 60: 0x0795 [0x29] REQ_SET_WAIT(priority=0x0B, entity_id=LocalPlayer, tag_num=0x35)
 61: 0x079C [0x29] REQ_SET_WAIT(priority=0x08, entity_id=Sanctia (ID: 16900396/0x0101E12C), tag_num=0x40)
 62: 0x07A3 [0x52] END_LOAD_SCHEDULER: End scheduler "s029" with entities [EventEntity, EventEntity], work=22*
 63: 0x07B2 [0x45] LOAD_SCHEDULED_TASK: Load scheduler "s030" with entities [EventEntity, EventEntity], work=[22*, 0*]
 64: 0x07C3 [0x45] LOAD_SCHEDULED_TASK: Load scheduler "fdi1" with entities [EventEntity, EventEntity], work=[200*, 0*]
 65: 0x07D4 [0x2B] Sanctia (ID: 16900396/0x0101E12C) [7679*]:
    → "A picture of three kids and...a letter."
 66: 0x07DB [0x23] WAIT_FOR_DIALOG_INTERACTION
 67: 0x07DC [0x2B] Sanctia (ID: 16900396/0x0101E12C) [7680*]:
    → "Let's see here... This is from Naval Recruit Training Officer Vladinek, of the Bastokan navy."
 68: 0x07E3 [0x23] WAIT_FOR_DIALOG_INTERACTION
 69: 0x07E4 [0x27] REQ_SET(priority=0x08, entity_id=Sanctia (ID: 16900396/0x0101E12C), tag_num=0x41)
 70: 0x07EB [0x2A] GET_REQ_LEVEL(level=8, entity_id=Sanctia (ID: 16900396/0x0101E12C))
 71: 0x07F1 [0x52] END_LOAD_SCHEDULER: End scheduler "s030" with entities [EventEntity, EventEntity], work=22*
 72: 0x0800 [0x45] LOAD_SCHEDULED_TASK: Load scheduler "s031" with entities [EventEntity, EventEntity], work=[22*, 0*]
 73: 0x0811 [0x2B] Sanctia (ID: 16900396/0x0101E12C) [7681*]:
    → "That's it! Goldmane is under the protection of the Bastokan navy!"
 74: 0x0818 [0x23] WAIT_FOR_DIALOG_INTERACTION
 75: 0x0819 [0x29] REQ_SET_WAIT(priority=0x08, entity_id=Sanctia (ID: 16900396/0x0101E12C), tag_num=0x1B)
 76: 0x0820 [0x2B] Sanctia (ID: 16900396/0x0101E12C) [7682*]:
    → "Since the navy is always at sea, no one can ever find him!"
 77: 0x0827 [0x23] WAIT_FOR_DIALOG_INTERACTION
 78: 0x0828 [0x29] REQ_SET_WAIT(priority=0x08, entity_id=Sanctia (ID: 16900396/0x0101E12C), tag_num=0x1C)
 79: 0x082F [0x52] END_LOAD_SCHEDULER: End scheduler "s031" with entities [EventEntity, EventEntity], work=22*
 80: 0x083E [0x45] LOAD_SCHEDULED_TASK: Load scheduler "s032" with entities [EventEntity, EventEntity], work=[22*, 0*]
 81: 0x084F [0x29] REQ_SET_WAIT(priority=0x08, entity_id=Sanctia (ID: 16900396/0x0101E12C), tag_num=0x1D)
 82: 0x0856 [0x29] REQ_SET_WAIT(priority=0x08, entity_id=Sanctia (ID: 16900396/0x0101E12C), tag_num=0x1E)
 83: 0x085D [0x27] REQ_SET(priority=0x0B, entity_id=Sanctia (ID: 16900396/0x0101E12C), tag_num=0x42)
 84: 0x0864 [0x27] REQ_SET(priority=0x0B, entity_id=Novice Moogle (ID: 16900397/0x0101E12D), tag_num=0x1F)
 85: 0x086B [0x2B] Sanctia (ID: 16900396/0x0101E12C) [7683*]:
    → "Right, it's off to Bastok."
 86: 0x0872 [0x23] WAIT_FOR_DIALOG_INTERACTION
 87: 0x0873 [0x2A] GET_REQ_LEVEL(level=11, entity_id=Sanctia (ID: 16900396/0x0101E12C))
 88: 0x0879 [0x2A] GET_REQ_LEVEL(level=11, entity_id=Novice Moogle (ID: 16900397/0x0101E12D))
 89: 0x087F [0x4A] LocalPlayer looks at Sanctia (ID: 16900396/0x0101E12C)
 90: 0x0888 [0x52] END_LOAD_SCHEDULER: End scheduler "s032" with entities [EventEntity, EventEntity], work=22*
 91: 0x0897 [0x45] LOAD_SCHEDULED_TASK: Load scheduler "s033" with entities [EventEntity, EventEntity], work=[22*, 0*]
 92: 0x08A8 [0x27] REQ_SET(priority=0x0B, entity_id=Sanctia (ID: 16900396/0x0101E12C), tag_num=0x43)
 93: 0x08AF [0x27] REQ_SET(priority=0x0B, entity_id=Novice Moogle (ID: 16900397/0x0101E12D), tag_num=0x24)
 94: 0x08B6 [0x2B] Novice Moogle (ID: 16900397/0x0101E12D) [7684*]:
    → "Just a... Hey, wait for me, kupopopopopo!"
 95: 0x08BD [0x23] WAIT_FOR_DIALOG_INTERACTION
 96: 0x08BE [0x2A] GET_REQ_LEVEL(level=11, entity_id=Novice Moogle (ID: 16900397/0x0101E12D))
 97: 0x08C4 [0x29] REQ_SET_WAIT(priority=0x08, entity_id=Novice Moogle (ID: 16900397/0x0101E12D), tag_num=0x05)
 98: 0x08CB [0x2B] Novice Moogle (ID: 16900397/0x0101E12D) [7685*]:
    → "What about the package the adventurer brought, kupopo!?"
 99: 0x08D2 [0x23] WAIT_FOR_DIALOG_INTERACTION
100: 0x08D3 [0x52] END_LOAD_SCHEDULER: End scheduler "s033" with entities [EventEntity, EventEntity], work=22*
101: 0x08E2 [0x5D] SET_MUSIC_VOLUME(volume=0*, fade_time=120*)
102: 0x08E7 [0x45] LOAD_SCHEDULED_TASK: Load scheduler "fdo1" with entities [LocalPlayer, LocalPlayer], work=[200*, 0*]
103: 0x08F8 [0x1C] WAIT(120* ticks)
104: 0x08FB [0x29] REQ_SET_WAIT(priority=0x08, entity_id=Novice Moogle (ID: 16900397/0x0101E12D), tag_num=0x06)
105: 0x0902 [0x5C] MUSIC_CONTROL: Set Idle (Day) music to song 0*
106: 0x0906 [0x5C] MUSIC_CONTROL: Set Idle (Night) music to song 0*
107: 0x090A [0x4E] SET_ENTITY_HIDE_FLAG: Show LocalPlayer
108: 0x0910 [0x80] LOAD_WAIT(entity=LocalPlayer)
109: 0x0915 [0x46] CAMERA_CONTROL: Restore default settings
110: 0x0917 [0x45] LOAD_SCHEDULED_TASK: Load scheduler "fdi1" with entities [LocalPlayer, LocalPlayer], work=[200*, 0*]
111: 0x0928 [0x20] SET_CLI_EVENT_UC_FLAG: Unlock player control
112: 0x092A [0x21] END_EVENT
113: 0x092B [0x00] END_REQSTACK()
```
