# 16900376 - Prishe

## Common Data

| Field            | Value                        |
|------------------|------------------------------|
| Zone             | Riverne - Site #A01 (ID: 30) |
| Block Size       | 612 bytes                    |
| Total Events     | 18                           |
| References Count | 18                           |

## List of Events

| Event ID                   | Entrypoint   |   Size |   Instructions |
|----------------------------|--------------|--------|----------------|
| [65535](#event-65535)      | 0x0000       |     13 |              3 |
| [100](#event-100)          | 0x000D       |     27 |              5 |
| [65535.1](#event-655351)   | 0x0028       |     55 |             11 |
| [65535.2](#event-655352)   | 0x005F       |     91 |             19 |
| [65535.3](#event-655353)   | 0x00BA       |     36 |              4 |
| [65535.4](#event-655354)   | 0x00DE       |     36 |              4 |
| [65535.5](#event-655355)   | 0x0102       |     16 |              2 |
| [65535.6](#event-655356)   | 0x0112       |     16 |              2 |
| [65535.7](#event-655357)   | 0x0122       |     16 |              2 |
| [65535.8](#event-655358)   | 0x0132       |     16 |              2 |
| [65535.9](#event-655359)   | 0x0142       |     16 |              2 |
| [65535.10](#event-6553510) | 0x0152       |     16 |              2 |
| [65535.11](#event-6553511) | 0x0162       |     16 |              2 |
| [65535.12](#event-6553512) | 0x0172       |     16 |              2 |
| [65535.13](#event-6553513) | 0x0182       |     16 |              2 |
| [65535.14](#event-6553514) | 0x0192       |     16 |              2 |
| [65535.15](#event-6553515) | 0x01A2       |     16 |              2 |
| [65535.16](#event-6553516) | 0x01B2       |     16 |              2 |

## DAT References (imed_data)

|   Index | Hex Value   |   Dec Value |
|---------|-------------|-------------|
|       0 | 0xA7FAC     |      688044 |
|       1 | 0xFFF8741D  |  4294472733 |
|       2 | 0xFFFF8427  |  4294935591 |
|       3 | 0x0A33      |        2611 |
|       4 | 0xFFFFEC78  |  4294962296 |
|       5 | 0x0000      |           0 |
|       6 | 0x0048      |          72 |
|       7 | 0x0078      |         120 |
|       8 | 0x1388      |        5000 |
|       9 | 0x0036      |          54 |
|      10 | 0x000A      |          10 |
|      11 | 0xC350      |       50000 |
|      12 | 0x026C      |         620 |
|      13 | 0x0023      |          35 |
|      14 | 0x0072      |         114 |
|      15 | 0x001E      |          30 |
|      16 | 0x01DB      |         475 |
|      17 | 0x0270      |         624 |

## Events

### Event 65535

#### Metadata

| Field        | Value    |
|--------------|----------|
| Entrypoint   | 0x0000   |
| Data Size    | 13 bytes |
| Instructions | 3        |

```
      00 01 02 03 04 05 06 07  08 09 0A 0B 0C 0D 0E 0F
      -- -- -- -- -- -- -- --  -- -- -- -- -- -- -- --
0000: 92 01 F8 FF FF 7F 94 00  F8 FF FF 7F 00           .............   
```

#### Opcodes

```
  0: 0x0000 [0x92] EventEntity->Render.Flags3 ^= 0x01
  1: 0x0006 [0x94] EventEntity->Render.Flags3 = Flags3  // No change (flag=0)
  2: 0x000C [0x00] END_REQSTACK()
```

### Event 100

#### Metadata

| Field        | Value    |
|--------------|----------|
| Entrypoint   | 0x000D   |
| Data Size    | 27 bytes |
| Instructions | 5        |

```
      00 01 02 03 04 05 06 07  08 09 0A 0B 0C 0D 0E 0F
      -- -- -- -- -- -- -- --  -- -- -- -- -- -- -- --
0000:                                         37 00 80               7..
0010: 01 80 02 80 03 80 03 00  00 04 80 1A 76 00 37 01  ............v.7.
0020: 00 02 00 03 00 04 00 00                           ........        
```

#### Opcodes

```
  0: 0x000D [0x37] UPDATE_EVENT_POSITION_AND_DIR: x=688.044*, z=-494.563*, y=-31.705*, direction=229.5°*
  1: 0x0016 [0x03] ExtData[1]->WorkLocal[0] = 4294962296*
  2: 0x001B [0x1A] CALL_SUBROUTINE(address=0x0076)
  3: 0x001E [0x37] UPDATE_EVENT_POSITION_AND_DIR: x=ExtData[1]->WorkLocal[1], z=ExtData[1]->WorkLocal[2], y=ExtData[1]->WorkLocal[3], direction=ExtData[1]->WorkLocal[4]
  4: 0x0027 [0x00] END_REQSTACK()
```

### Event 65535.1

#### Metadata

| Field        | Value    |
|--------------|----------|
| Entrypoint   | 0x0028   |
| Data Size    | 55 bytes |
| Instructions | 11       |

```
      00 01 02 03 04 05 06 07  08 09 0A 0B 0C 0D 0E 0F
      -- -- -- -- -- -- -- --  -- -- -- -- -- -- -- --
0020:                          6C F8 FF FF 7F 05 80 05          l.......
0030: 80 9F 06 80 F8 FF FF 7F  F8 FF FF 7F 6D 61 69 6E  ............main
0040: 05 80 1C 07 80 03 00 00  08 80 1A 76 00 32 09 80  ...........v.2..
0050: 1F 00 01 00 02 00 03 00  1F 01 6F 1C 0A 80 00     ..........o.... 
```

#### Opcodes

```
  0: 0x0028 [0x6C] FADE_ENTITY_COLOR(entity_id=EventEntity, end_alpha=0*, fade_time=0*)
  1: 0x0031 [0x9F] LOAD_SCHEDULED_TASK_ALT: Load scheduler "main" with entities [EventEntity, EventEntity], work=[72*, 0*]
  2: 0x0042 [0x1C] WAIT(120* ticks)
  3: 0x0045 [0x03] ExtData[1]->WorkLocal[0] = 5000*
  4: 0x004A [0x1A] CALL_SUBROUTINE(address=0x0076)
  5: 0x004D [0x32] ExtData[1]->MainSpeed = 54* * 0.1
  6: 0x0050 [0x1F] MOVE_ENTITY: EventEntity moves to X=ExtData[1]->WorkLocal[1], Z=ExtData[1]->WorkLocal[2], Y=ExtData[1]->WorkLocal[3]
  7: 0x0058 [0x1F] MOVE_ENTITY: Update entity position (mode=1)
  8: 0x005A [0x6F] WAIT_FRAME_DELAY: Yield until WaitTime reaches zero
  9: 0x005B [0x1C] WAIT(10* ticks)
 10: 0x005E [0x00] END_REQSTACK()
```

### Event 65535.2

#### Metadata

| Field        | Value    |
|--------------|----------|
| Entrypoint   | 0x005F   |
| Data Size    | 91 bytes |
| Instructions | 14       |

```
      00 01 02 03 04 05 06 07  08 09 0A 0B 0C 0D 0E 0F
      -- -- -- -- -- -- -- --  -- -- -- -- -- -- -- --
0050:                                               03                 .
0060: 00 00 0B 80 1A 76 00 32  09 80 1F 00 01 00 02 00  .....v.2........
0070: 03 00 1F 01 6F 00 3B F8  FF FF 7F 01 00 02 00 03  ....o.;.........
0080: 00 3A F8 FF FF 7F 04 00  17 05 00 04 00 00 00 16  .:..............
0090: 06 00 04 00 00 00 07 01  00 05 00 07 02 00 06 00  ................
00A0: 1B 17 05 00 04 00 00 00  16 06 00 04 00 00 00 07  ................
00B0: 01 00 05 00 07 02 00 06  00 1B                    ..........      
```

#### Opcodes

```
  0: 0x005F [0x03] ExtData[1]->WorkLocal[0] = 50000*
  1: 0x0064 [0x1A] CALL_SUBROUTINE(address=0x0076)
  2: 0x0067 [0x32] ExtData[1]->MainSpeed = 54* * 0.1
  3: 0x006A [0x1F] MOVE_ENTITY: EventEntity moves to X=ExtData[1]->WorkLocal[1], Z=ExtData[1]->WorkLocal[2], Y=ExtData[1]->WorkLocal[3]
  4: 0x0072 [0x1F] MOVE_ENTITY: Update entity position (mode=1)
  5: 0x0074 [0x6F] WAIT_FRAME_DELAY: Yield until WaitTime reaches zero
  6: 0x0075 [0x00] END_REQSTACK()

SUBROUTINE_0076:
  7: 0x0076 [0x3B] GET_ENTITY_POSITION(entity=EventEntity, x_destination=ExtData[1]->WorkLocal[1], y_destination=ExtData[1]->WorkLocal[2], z_destination=ExtData[1]->WorkLocal[3])
  8: 0x0081 [0x3A] CONVERT_YAW_TO_BYTE(entity=EventEntity, result_destination=ExtData[1]->WorkLocal[4])
  9: 0x0088 [0x17] ExtData[1]->WorkLocal[5] = cos(ExtData[1]->WorkLocal[4]) * ExtData[1]->WorkLocal[0]
 10: 0x008F [0x16] ExtData[1]->WorkLocal[6] = sin(ExtData[1]->WorkLocal[4]) * ExtData[1]->WorkLocal[0]
 11: 0x0096 [0x07] ExtData[1]->WorkLocal[1] += ExtData[1]->WorkLocal[5]
 12: 0x009B [0x07] ExtData[1]->WorkLocal[2] += ExtData[1]->WorkLocal[6]
 13: 0x00A0 [0x1B] RETURN
```

#### Data or dead code:

```
# Dead code (unreachable instructions):
     0x00A1 [0x17] ExtData[1]->WorkLocal[5] = cos(ExtData[1]->WorkLocal[4]) * ExtData[1]->WorkLocal[0]
     0x00A8 [0x16] ExtData[1]->WorkLocal[6] = sin(ExtData[1]->WorkLocal[4]) * ExtData[1]->WorkLocal[0]
     0x00AF [0x07] ExtData[1]->WorkLocal[1] += ExtData[1]->WorkLocal[5]
     0x00B4 [0x07] ExtData[1]->WorkLocal[2] += ExtData[1]->WorkLocal[6]
     0x00B9 [0x1B] RETURN
```

### Event 65535.3

#### Metadata

| Field        | Value    |
|--------------|----------|
| Entrypoint   | 0x00BA   |
| Data Size    | 36 bytes |
| Instructions | 4        |

```
      00 01 02 03 04 05 06 07  08 09 0A 0B 0C 0D 0E 0F
      -- -- -- -- -- -- -- --  -- -- -- -- -- -- -- --
00B0:                                5B 0C 80 F8 FF FF            [.....
00C0: 7F F8 FF FF 7F 66 6E 64  30 1C 0D 80 45 0E 80 F0  .....fnd0...E...
00D0: FF FF 7F F0 FF FF 7F 73  30 32 31 05 80 00        .......s021...  
```

#### Opcodes

```
  0: 0x00BA [0x5B] LOAD_EXT_SCHEDULER: Load scheduler "fnd0" with entities [EventEntity, EventEntity], work=620*
  1: 0x00C9 [0x1C] WAIT(35* ticks)
  2: 0x00CC [0x45] LOAD_SCHEDULED_TASK: Load scheduler "s021" with entities [LocalPlayer, LocalPlayer], work=[114*, 0*]
  3: 0x00DD [0x00] END_REQSTACK()
```

### Event 65535.4

#### Metadata

| Field        | Value    |
|--------------|----------|
| Entrypoint   | 0x00DE   |
| Data Size    | 36 bytes |
| Instructions | 4        |

```
      00 01 02 03 04 05 06 07  08 09 0A 0B 0C 0D 0E 0F
      -- -- -- -- -- -- -- --  -- -- -- -- -- -- -- --
00D0:                                            5B 0C                [.
00E0: 80 F8 FF FF 7F F8 FF FF  7F 66 6E 73 70 1C 0F 80  .........fnsp...
00F0: 45 0E 80 F0 FF FF 7F F0  FF FF 7F 73 30 32 32 05  E..........s022.
0100: 80 00                                             ..              
```

#### Opcodes

```
  0: 0x00DE [0x5B] LOAD_EXT_SCHEDULER: Load scheduler "fnsp" with entities [EventEntity, EventEntity], work=620*
  1: 0x00ED [0x1C] WAIT(30* ticks)
  2: 0x00F0 [0x45] LOAD_SCHEDULED_TASK: Load scheduler "s022" with entities [LocalPlayer, LocalPlayer], work=[114*, 0*]
  3: 0x0101 [0x00] END_REQSTACK()
```

### Event 65535.5

#### Metadata

| Field        | Value    |
|--------------|----------|
| Entrypoint   | 0x0102   |
| Data Size    | 16 bytes |
| Instructions | 2        |

```
      00 01 02 03 04 05 06 07  08 09 0A 0B 0C 0D 0E 0F
      -- -- -- -- -- -- -- --  -- -- -- -- -- -- -- --
0100:       5B 0C 80 F8 FF FF  7F F8 FF FF 7F 66 6E 64    [..........fnd
0110: 31 00                                             1.              
```

#### Opcodes

```
  0: 0x0102 [0x5B] LOAD_EXT_SCHEDULER: Load scheduler "fnd1" with entities [EventEntity, EventEntity], work=620*
  1: 0x0111 [0x00] END_REQSTACK()
```

### Event 65535.6

#### Metadata

| Field        | Value    |
|--------------|----------|
| Entrypoint   | 0x0112   |
| Data Size    | 16 bytes |
| Instructions | 2        |

```
      00 01 02 03 04 05 06 07  08 09 0A 0B 0C 0D 0E 0F
      -- -- -- -- -- -- -- --  -- -- -- -- -- -- -- --
0110:       5B 10 80 F8 FF FF  7F F8 FF FF 7F 74 6C 64    [..........tld
0120: 30 00                                             0.              
```

#### Opcodes

```
  0: 0x0112 [0x5B] LOAD_EXT_SCHEDULER: Load scheduler "tld0" with entities [EventEntity, EventEntity], work=475*
  1: 0x0121 [0x00] END_REQSTACK()
```

### Event 65535.7

#### Metadata

| Field        | Value    |
|--------------|----------|
| Entrypoint   | 0x0122   |
| Data Size    | 16 bytes |
| Instructions | 2        |

```
      00 01 02 03 04 05 06 07  08 09 0A 0B 0C 0D 0E 0F
      -- -- -- -- -- -- -- --  -- -- -- -- -- -- -- --
0120:       5B 10 80 F8 FF FF  7F F8 FF FF 7F 74 6C 64    [..........tld
0130: 31 00                                             1.              
```

#### Opcodes

```
  0: 0x0122 [0x5B] LOAD_EXT_SCHEDULER: Load scheduler "tld1" with entities [EventEntity, EventEntity], work=475*
  1: 0x0131 [0x00] END_REQSTACK()
```

### Event 65535.8

#### Metadata

| Field        | Value    |
|--------------|----------|
| Entrypoint   | 0x0132   |
| Data Size    | 16 bytes |
| Instructions | 2        |

```
      00 01 02 03 04 05 06 07  08 09 0A 0B 0C 0D 0E 0F
      -- -- -- -- -- -- -- --  -- -- -- -- -- -- -- --
0130:       5B 10 80 F8 FF FF  7F F8 FF FF 7F 74 6C 62    [..........tlb
0140: 30 00                                             0.              
```

#### Opcodes

```
  0: 0x0132 [0x5B] LOAD_EXT_SCHEDULER: Load scheduler "tlb0" with entities [EventEntity, EventEntity], work=475*
  1: 0x0141 [0x00] END_REQSTACK()
```

### Event 65535.9

#### Metadata

| Field        | Value    |
|--------------|----------|
| Entrypoint   | 0x0142   |
| Data Size    | 16 bytes |
| Instructions | 2        |

```
      00 01 02 03 04 05 06 07  08 09 0A 0B 0C 0D 0E 0F
      -- -- -- -- -- -- -- --  -- -- -- -- -- -- -- --
0140:       5B 10 80 F8 FF FF  7F F8 FF FF 7F 74 6C 62    [..........tlb
0150: 31 00                                             1.              
```

#### Opcodes

```
  0: 0x0142 [0x5B] LOAD_EXT_SCHEDULER: Load scheduler "tlb1" with entities [EventEntity, EventEntity], work=475*
  1: 0x0151 [0x00] END_REQSTACK()
```

### Event 65535.10

#### Metadata

| Field        | Value    |
|--------------|----------|
| Entrypoint   | 0x0152   |
| Data Size    | 16 bytes |
| Instructions | 2        |

```
      00 01 02 03 04 05 06 07  08 09 0A 0B 0C 0D 0E 0F
      -- -- -- -- -- -- -- --  -- -- -- -- -- -- -- --
0150:       5B 10 80 F8 FF FF  7F F8 FF FF 7F 74 6C 62    [..........tlb
0160: 30 00                                             0.              
```

#### Opcodes

```
  0: 0x0152 [0x5B] LOAD_EXT_SCHEDULER: Load scheduler "tlb0" with entities [EventEntity, EventEntity], work=475*
  1: 0x0161 [0x00] END_REQSTACK()
```

### Event 65535.11

#### Metadata

| Field        | Value    |
|--------------|----------|
| Entrypoint   | 0x0162   |
| Data Size    | 16 bytes |
| Instructions | 2        |

```
      00 01 02 03 04 05 06 07  08 09 0A 0B 0C 0D 0E 0F
      -- -- -- -- -- -- -- --  -- -- -- -- -- -- -- --
0160:       5B 10 80 F8 FF FF  7F F8 FF FF 7F 74 6C 62    [..........tlb
0170: 31 00                                             1.              
```

#### Opcodes

```
  0: 0x0162 [0x5B] LOAD_EXT_SCHEDULER: Load scheduler "tlb1" with entities [EventEntity, EventEntity], work=475*
  1: 0x0171 [0x00] END_REQSTACK()
```

### Event 65535.12

#### Metadata

| Field        | Value    |
|--------------|----------|
| Entrypoint   | 0x0172   |
| Data Size    | 16 bytes |
| Instructions | 2        |

```
      00 01 02 03 04 05 06 07  08 09 0A 0B 0C 0D 0E 0F
      -- -- -- -- -- -- -- --  -- -- -- -- -- -- -- --
0170:       5B 10 80 F8 FF FF  7F F8 FF FF 7F 74 6C 65    [..........tle
0180: 30 00                                             0.              
```

#### Opcodes

```
  0: 0x0172 [0x5B] LOAD_EXT_SCHEDULER: Load scheduler "tle0" with entities [EventEntity, EventEntity], work=475*
  1: 0x0181 [0x00] END_REQSTACK()
```

### Event 65535.13

#### Metadata

| Field        | Value    |
|--------------|----------|
| Entrypoint   | 0x0182   |
| Data Size    | 16 bytes |
| Instructions | 2        |

```
      00 01 02 03 04 05 06 07  08 09 0A 0B 0C 0D 0E 0F
      -- -- -- -- -- -- -- --  -- -- -- -- -- -- -- --
0180:       5B 10 80 F8 FF FF  7F F8 FF FF 7F 74 6C 65    [..........tle
0190: 31 00                                             1.              
```

#### Opcodes

```
  0: 0x0182 [0x5B] LOAD_EXT_SCHEDULER: Load scheduler "tle1" with entities [EventEntity, EventEntity], work=475*
  1: 0x0191 [0x00] END_REQSTACK()
```

### Event 65535.14

#### Metadata

| Field        | Value    |
|--------------|----------|
| Entrypoint   | 0x0192   |
| Data Size    | 16 bytes |
| Instructions | 2        |

```
      00 01 02 03 04 05 06 07  08 09 0A 0B 0C 0D 0E 0F
      -- -- -- -- -- -- -- --  -- -- -- -- -- -- -- --
0190:       5B 11 80 F8 FF FF  7F F8 FF FF 7F 6F 72 61    [..........ora
01A0: 30 00                                             0.              
```

#### Opcodes

```
  0: 0x0192 [0x5B] LOAD_EXT_SCHEDULER: Load scheduler "ora0" with entities [EventEntity, EventEntity], work=624*
  1: 0x01A1 [0x00] END_REQSTACK()
```

### Event 65535.15

#### Metadata

| Field        | Value    |
|--------------|----------|
| Entrypoint   | 0x01A2   |
| Data Size    | 16 bytes |
| Instructions | 2        |

```
      00 01 02 03 04 05 06 07  08 09 0A 0B 0C 0D 0E 0F
      -- -- -- -- -- -- -- --  -- -- -- -- -- -- -- --
01A0:       5B 11 80 F8 FF FF  7F F8 FF FF 7F 6F 72 61    [..........ora
01B0: 31 00                                             1.              
```

#### Opcodes

```
  0: 0x01A2 [0x5B] LOAD_EXT_SCHEDULER: Load scheduler "ora1" with entities [EventEntity, EventEntity], work=624*
  1: 0x01B1 [0x00] END_REQSTACK()
```

### Event 65535.16

#### Metadata

| Field        | Value    |
|--------------|----------|
| Entrypoint   | 0x01B2   |
| Data Size    | 16 bytes |
| Instructions | 2        |

```
      00 01 02 03 04 05 06 07  08 09 0A 0B 0C 0D 0E 0F
      -- -- -- -- -- -- -- --  -- -- -- -- -- -- -- --
01B0:       5B 11 80 F8 FF FF  7F F8 FF FF 7F 6F 72 61    [..........ora
01C0: 33 00                                             3.              
```

#### Opcodes

```
  0: 0x01B2 [0x5B] LOAD_EXT_SCHEDULER: Load scheduler "ora3" with entities [EventEntity, EventEntity], work=624*
  1: 0x01C1 [0x00] END_REQSTACK()
```
