# 16900399 - Albanus

## Common Data

| Field            | Value                        |
|------------------|------------------------------|
| Zone             | Riverne - Site #A01 (ID: 30) |
| Block Size       | 208 bytes                    |
| Total Events     | 8                            |
| References Count | 18                           |

## List of Events

| Event ID                 | Entrypoint   |   Size |   Instructions |
|--------------------------|--------------|--------|----------------|
| [65535](#event-65535)    | 0x0000       |      1 |              1 |
| [102](#event-102)        | 0x0001       |      1 |              1 |
| [103](#event-103)        | 0x0002       |      1 |              1 |
| [65535.1](#event-655351) | 0x0003       |     29 |              6 |
| [65535.2](#event-655352) | 0x0020       |     14 |              4 |
| [65535.3](#event-655353) | 0x002E       |     16 |              5 |
| [65535.4](#event-655354) | 0x003E       |     14 |              4 |
| [65535.5](#event-655355) | 0x004C       |     10 |              2 |

## DAT References (imed_data)

|   Index | Hex Value   |   Dec Value |
|---------|-------------|-------------|
|       0 | 0xFFF4CA24  |  4294232612 |
|       1 | 0xFFFB5264  |  4294660708 |
|       2 | 0xFFFF5359  |  4294923097 |
|       3 | 0x078D      |        1933 |
|       4 | 0x0046      |          70 |
|       5 | 0x0078      |         120 |
|       6 | 0x000D      |          13 |
|       7 | 0xFFF4C181  |  4294230401 |
|       8 | 0xFFFB52B5  |  4294660789 |
|       9 | 0xFFFF54E8  |  4294923496 |
|      10 | 0xFFF4CB67  |  4294232935 |
|      11 | 0xFFFB5545  |  4294661445 |
|      12 | 0xFFF4E7C4  |  4294240196 |
|      13 | 0xFFFB57ED  |  4294662125 |
|      14 | 0xFFFF55AF  |  4294923695 |
|      15 | 0xFFF4A251  |  4294222417 |
|      16 | 0xFFFB4AA9  |  4294658729 |
|      17 | 0x0A6D      |        2669 |

## Events

### Event 65535

#### Metadata

| Field        | Value   |
|--------------|---------|
| Entrypoint   | 0x0000  |
| Data Size    | 1 bytes |
| Instructions | 1       |

```
      00 01 02 03 04 05 06 07  08 09 0A 0B 0C 0D 0E 0F
      -- -- -- -- -- -- -- --  -- -- -- -- -- -- -- --
0000: 00                                                .               
```

#### Opcodes

```
  0: 0x0000 [0x00] END_REQSTACK()
```

### Event 102

#### Metadata

| Field        | Value   |
|--------------|---------|
| Entrypoint   | 0x0001  |
| Data Size    | 1 bytes |
| Instructions | 1       |

```
      00 01 02 03 04 05 06 07  08 09 0A 0B 0C 0D 0E 0F
      -- -- -- -- -- -- -- --  -- -- -- -- -- -- -- --
0000:    00                                              .              
```

#### Opcodes

```
  0: 0x0001 [0x00] END_REQSTACK()
```

### Event 103

#### Metadata

| Field        | Value   |
|--------------|---------|
| Entrypoint   | 0x0002  |
| Data Size    | 1 bytes |
| Instructions | 1       |

```
      00 01 02 03 04 05 06 07  08 09 0A 0B 0C 0D 0E 0F
      -- -- -- -- -- -- -- --  -- -- -- -- -- -- -- --
0000:       00                                            .             
```

#### Opcodes

```
  0: 0x0002 [0x00] END_REQSTACK()
```

### Event 65535.1

#### Metadata

| Field        | Value    |
|--------------|----------|
| Entrypoint   | 0x0003   |
| Data Size    | 29 bytes |
| Instructions | 6        |

```
      00 01 02 03 04 05 06 07  08 09 0A 0B 0C 0D 0E 0F
      -- -- -- -- -- -- -- --  -- -- -- -- -- -- -- --
0000:          37 00 80 01 80  02 80 03 80 2F 00 2F E1     7.......././.
0010: 01 01 22 00 A5 01 6C 2F  E1 01 01 04 80 05 80 00  .."...l/........
```

#### Opcodes

```
  0: 0x0003 [0x37] UPDATE_EVENT_POSITION_AND_DIR: x=-734.684*, z=-306.588*, y=-44.199*, direction=169.9°*
  1: 0x000C [0x2F] Albanus (ID: 16900399/0x0101E12F)->Render.Flags0 &= ~0x80000 // Bit 19
  2: 0x0012 [0x22] ENTITY_HIDE_FLAG(enabled=0x00)
  3: 0x0014 [0xA5] EventEntity->Flags3.BallistaTeam |= 0x08  // Set bit 3 of BallistaTeam
  4: 0x0016 [0x6C] FADE_ENTITY_COLOR(entity_id=Albanus (ID: 16900399/0x0101E12F), end_alpha=70*, fade_time=120*)
  5: 0x001F [0x00] END_REQSTACK()
```

### Event 65535.2

#### Metadata

| Field        | Value    |
|--------------|----------|
| Entrypoint   | 0x0020   |
| Data Size    | 14 bytes |
| Instructions | 4        |

```
      00 01 02 03 04 05 06 07  08 09 0A 0B 0C 0D 0E 0F
      -- -- -- -- -- -- -- --  -- -- -- -- -- -- -- --
0020: 32 06 80 1F 00 07 80 08  80 09 80 1F 01 00        2.............  
```

#### Opcodes

```
  0: 0x0020 [0x32] ExtData[1]->MainSpeed = 13* * 0.1
  1: 0x0023 [0x1F] MOVE_ENTITY: EventEntity moves to X=-736.895*, Z=-306.507*, Y=-43.800*
  2: 0x002B [0x1F] MOVE_ENTITY: Update entity position (mode=1)
  3: 0x002D [0x00] END_REQSTACK()
```

### Event 65535.3

#### Metadata

| Field        | Value    |
|--------------|----------|
| Entrypoint   | 0x002E   |
| Data Size    | 16 bytes |
| Instructions | 5        |

```
      00 01 02 03 04 05 06 07  08 09 0A 0B 0C 0D 0E 0F
      -- -- -- -- -- -- -- --  -- -- -- -- -- -- -- --
0020:                                            61 00                a.
0030: 32 06 80 1F 00 0A 80 0B  80 09 80 1F 01 00        2.............  
```

#### Opcodes

```
  0: 0x002E [0x61] EventEntity->Render.Flags2 &= ~0x00000001
  1: 0x0030 [0x32] ExtData[1]->MainSpeed = 13* * 0.1
  2: 0x0033 [0x1F] MOVE_ENTITY: EventEntity moves to X=-734.361*, Z=-305.851*, Y=-43.800*
  3: 0x003B [0x1F] MOVE_ENTITY: Update entity position (mode=1)
  4: 0x003D [0x00] END_REQSTACK()
```

### Event 65535.4

#### Metadata

| Field        | Value    |
|--------------|----------|
| Entrypoint   | 0x003E   |
| Data Size    | 14 bytes |
| Instructions | 4        |

```
      00 01 02 03 04 05 06 07  08 09 0A 0B 0C 0D 0E 0F
      -- -- -- -- -- -- -- --  -- -- -- -- -- -- -- --
0030:                                            32 06                2.
0040: 80 1F 00 0C 80 0D 80 0E  80 1F 01 00              ............    
```

#### Opcodes

```
  0: 0x003E [0x32] ExtData[1]->MainSpeed = 13* * 0.1
  1: 0x0041 [0x1F] MOVE_ENTITY: EventEntity moves to X=-727.100*, Z=-305.171*, Y=-43.601*
  2: 0x0049 [0x1F] MOVE_ENTITY: Update entity position (mode=1)
  3: 0x004B [0x00] END_REQSTACK()
```

### Event 65535.5

#### Metadata

| Field        | Value    |
|--------------|----------|
| Entrypoint   | 0x004C   |
| Data Size    | 10 bytes |
| Instructions | 2        |

```
      00 01 02 03 04 05 06 07  08 09 0A 0B 0C 0D 0E 0F
      -- -- -- -- -- -- -- --  -- -- -- -- -- -- -- --
0040:                                      37 0F 80 10              7...
0050: 80 09 80 11 80 00                                 ......          
```

#### Opcodes

```
  0: 0x004C [0x37] UPDATE_EVENT_POSITION_AND_DIR: x=-744.879*, z=-308.567*, y=-43.800*, direction=234.6°*
  1: 0x0055 [0x00] END_REQSTACK()
```
