# Event 636

## Metadata

| Field           | Value    |
|-----------------|----------|
| Event Index     | 22/24    |
| Offset          | 0x0163   |
| Data Size       | 37 bytes |
| Calculated Size | 37 bytes |
| Instructions    | 14       |

```
      00 01 02 03 04 05 06 07  08 09 0A 0B 0C 0D 0E 0F
      -- -- -- -- -- -- -- --  -- -- -- -- -- -- -- --
0160:          1E F0 FF FF 7F  6F 70 29 08 83 70 0E 01     .....op)..p..
0170: 01 1D 07 80 23 1D 08 80  23 1D 09 80 23 29 08 83  ....#...#...#)..
0180: 70 0E 01 02 20 00 21 00                           p... .!.        
```

## Opcodes

```
  0: 0x0163 [0x1E] EventEntity looks at LocalPlayer and starts talking
  1: 0x0168 [0x6F] WAIT_FRAME_DELAY: Yield until WaitTime reaches zero
  2: 0x0169 [0x70] WAIT_ENTITY_RENDER_FLAG: Wait while EventEntity->Render.Flags3 bit 2 is set (cancel turn if not)
  3: 0x016A [0x29] REQ_SET_WAIT(priority=0x08, entity_id=Morunaude (ID: 17723523/0x010E7083), tag_num=0x01)
  4: 0x0171 [0x1D] PRINT_EVENT_MESSAGE(message_id=7202*)
    → "That \u0001\u0005#\u0002\u0002\u0000\u0000 you found was crafted of old. I would love to hear the history behind it.\u007F1\u0000\u0007"
  5: 0x0174 [0x23] WAIT_FOR_DIALOG_INTERACTION
  6: 0x0175 [0x1D] PRINT_EVENT_MESSAGE(message_id=7203*)
    → "Few pieces of such age and quality remain.\u007F1\u0000\u0007"
  7: 0x0178 [0x23] WAIT_FOR_DIALOG_INTERACTION
  8: 0x0179 [0x1D] PRINT_EVENT_MESSAGE(message_id=7204*)
    → "Shame on Calovour! Hawking such a treasure as if it were junk!\u007F1\u0000\u0007"
  9: 0x017C [0x23] WAIT_FOR_DIALOG_INTERACTION
 10: 0x017D [0x29] REQ_SET_WAIT(priority=0x08, entity_id=Morunaude (ID: 17723523/0x010E7083), tag_num=0x02)
 11: 0x0184 [0x20] SET_CLI_EVENT_UC_FLAG: Unlock player control
 12: 0x0186 [0x21] END_EVENT
 13: 0x0187 [0x00] END_REQSTACK()
```
