# Event 65535

## Metadata

| Field           | Value    |
|-----------------|----------|
| Event Index     | 21/24    |
| Offset          | 0x013E   |
| Data Size       | 37 bytes |
| Calculated Size | 37 bytes |
| Instructions    | 9        |

```
      00 01 02 03 04 05 06 07  08 09 0A 0B 0C 0D 0E 0F
      -- -- -- -- -- -- -- --  -- -- -- -- -- -- -- --
0130:                                            29 08                ).
0140: 83 70 0E 01 03 29 08 83  70 0E 01 04 29 08 83 70  .p...)..p...)..p
0150: 0E 01 05 1D 05 80 23 29  08 83 70 0E 01 06 1D 06  ......#)..p.....
0160: 80 23 00                                          .#.             
```

## Opcodes

```
  0: 0x013E [0x29] REQ_SET_WAIT(priority=0x08, entity_id=Morunaude (ID: 17723523/0x010E7083), tag_num=0x03)
  1: 0x0145 [0x29] REQ_SET_WAIT(priority=0x08, entity_id=Morunaude (ID: 17723523/0x010E7083), tag_num=0x04)
  2: 0x014C [0x29] REQ_SET_WAIT(priority=0x08, entity_id=Morunaude (ID: 17723523/0x010E7083), tag_num=0x05)
  3: 0x0153 [0x1D] PRINT_EVENT_MESSAGE(message_id=7200*)
    → "Yes, as I thought! This is the mark of the royal family. This is a teacup of noble lineage!\u007F1\u0000\u0007"
  4: 0x0156 [0x23] WAIT_FOR_DIALOG_INTERACTION
  5: 0x0157 [0x29] REQ_SET_WAIT(priority=0x08, entity_id=Morunaude (ID: 17723523/0x010E7083), tag_num=0x06)
  6: 0x015E [0x1D] PRINT_EVENT_MESSAGE(message_id=7201*)
    → "You must return it to its rightful owner, wherever he or she might be.\u007F1\u0000\u0007"
  7: 0x0161 [0x23] WAIT_FOR_DIALOG_INTERACTION
  8: 0x0162 [0x00] END_REQSTACK()
```
