# Event 65535

## Metadata

| Field           | Value    |
|-----------------|----------|
| Event Index     | 26/40    |
| Offset          | 0x01A3   |
| Data Size       | 58 bytes |
| Calculated Size | 58 bytes |
| Instructions    | 10       |

```
      00 01 02 03 04 05 06 07  08 09 0A 0B 0C 0D 0E 0F
      -- -- -- -- -- -- -- --  -- -- -- -- -- -- -- --
01A0:          32 0C 80 37 40  80 41 80 02 80 42 80 84     2..7@.A...B..
01B0: 1F 00 43 80 44 80 02 80  1F 01 6F 5B 45 80 2A D0  ..C.D.....o[E.*.
01C0: 0E 01 2A D0 0E 01 73 69  7A 30 1C 46 80 5B 45 80  ..*...siz0.F.[E.
01D0: 2A D0 0E 01 2A D0 0E 01  73 69 7A 31 00           *...*...siz1.   
```

## Opcodes

```
  0: 0x01A3 [0x32] ExtData[1]->MainSpeed = 13* * 0.1
  1: 0x01A6 [0x37] UPDATE_EVENT_POSITION_AND_DIR: x=113.684*, z=-4.089*, y=-20.170*, direction=102.0°*
  2: 0x01AF [0x84] ADJUST_RENDER_FLAGS3_BIT0()
  3: 0x01B0 [0x1F] MOVE_ENTITY: EventEntity moves to X=112.879*, Z=-7.985*, Y=-20.170*
  4: 0x01B8 [0x1F] MOVE_ENTITY: Update entity position (mode=1)
  5: 0x01BA [0x6F] WAIT_FRAME_DELAY: Yield until WaitTime reaches zero
  6: 0x01BB [0x5B] LOAD_EXT_SCHEDULER(work_offset=150*, entity1=Karst (ID: 17748010/0x010ED02A), entity2=Karst (ID: 17748010/0x010ED02A), action="siz0")
  7: 0x01CA [0x1C] WAIT(120* ticks)
  8: 0x01CD [0x5B] LOAD_EXT_SCHEDULER(work_offset=150*, entity1=Karst (ID: 17748010/0x010ED02A), entity2=Karst (ID: 17748010/0x010ED02A), action="siz1")
  9: 0x01DC [0x00] END_REQSTACK()
```
