# Event 65535

## Metadata

| Field           | Value    |
|-----------------|----------|
| Event Index     | 22/40    |
| Offset          | 0x0152   |
| Data Size       | 65 bytes |
| Calculated Size | 65 bytes |
| Instructions    | 11       |

```
      00 01 02 03 04 05 06 07  08 09 0A 0B 0C 0D 0E 0F
      -- -- -- -- -- -- -- --  -- -- -- -- -- -- -- --
0150:       32 0C 80 37 38 80  39 80 3A 80 3B 80 84 1C    2..78.9.:.;...
0160: 2F 80 4A 18 D0 0E 01 2A  D0 0E 01 79 00 2E D0 0E  /.J....*...y....
0170: 01 2A D0 0E 01 79 00 2B  D0 0E 01 2A D0 0E 01 4A  .*...y.+...*...J
0180: F0 FF FF 7F 2A D0 0E 01  1F 00 3C 80 3D 80 3A 80  ....*.....<.=.:.
0190: 1F 01 00                                          ...             
```

## Opcodes

```
  0: 0x0152 [0x32] ExtData[1]->MainSpeed = 13* * 0.1
  1: 0x0155 [0x37] UPDATE_EVENT_POSITION_AND_DIR: x=105.935*, z=4.280*, y=-20.168*, direction=109.1°*
  2: 0x015E [0x84] ADJUST_RENDER_FLAGS3_BIT0()
  3: 0x015F [0x1C] WAIT(30* ticks)
  4: 0x0162 [0x4A] Lucius (ID: 17747992/0x010ED018) looks at Karst (ID: 17748010/0x010ED02A)
  5: 0x016B [0x79] Volker (ID: 17748014/0x010ED02E) looks at Karst (ID: 17748010/0x010ED02A) (Basic look)
  6: 0x0175 [0x79] Cid (ID: 17748011/0x010ED02B) looks at Karst (ID: 17748010/0x010ED02A) (Basic look)
  7: 0x017F [0x4A] LocalPlayer looks at Karst (ID: 17748010/0x010ED02A)
  8: 0x0188 [0x1F] MOVE_ENTITY: EventEntity moves to X=103.348*, Z=0.022*, Y=-20.168*
  9: 0x0190 [0x1F] MOVE_ENTITY: Update entity position (mode=1)
 10: 0x0192 [0x00] END_REQSTACK()
```
