# Event 65535

## Metadata

| Field           | Value    |
|-----------------|----------|
| Event Index     | 12/40    |
| Offset          | 0x0084   |
| Data Size       | 71 bytes |
| Calculated Size | 71 bytes |
| Instructions    | 12       |

```
      00 01 02 03 04 05 06 07  08 09 0A 0B 0C 0D 0E 0F
      -- -- -- -- -- -- -- --  -- -- -- -- -- -- -- --
0080:             22 00 32 0C  80 37 15 80 16 80 02 80      ".2..7......
0090: 17 80 1F 00 18 80 19 80  02 80 1F 01 4A 2B D0 0E  ............J+..
00A0: 01 2A D0 0E 01 4A 30 D0  0E 01 2A D0 0E 01 4A 2E  .*...J0...*...J.
00B0: D0 0E 01 2A D0 0E 01 4A  32 D0 0E 01 2A D0 0E 01  ...*...J2...*...
00C0: 1F 00 1A 80 1B 80 02 80  1F 01 00                 ...........     
```

## Opcodes

```
  0: 0x0084 [0x22] ENTITY_HIDE_FLAG(enabled=0x00)
  1: 0x0086 [0x32] ExtData[1]->MainSpeed = 13* * 0.1
  2: 0x0089 [0x37] UPDATE_EVENT_POSITION_AND_DIR: x=108.000*, z=4.514*, y=-20.170*, direction=182.1°*
  3: 0x0092 [0x1F] MOVE_ENTITY: EventEntity moves to X=106.375*, Z=4.319*, Y=-20.170*
  4: 0x009A [0x1F] MOVE_ENTITY: Update entity position (mode=1)
  5: 0x009C [0x4A] Cid (ID: 17748011/0x010ED02B) looks at Karst (ID: 17748010/0x010ED02A)
  6: 0x00A5 [0x4A] Iron Eater (ID: 17748016/0x010ED030) looks at Karst (ID: 17748010/0x010ED02A)
  7: 0x00AE [0x4A] Volker (ID: 17748014/0x010ED02E) looks at Karst (ID: 17748010/0x010ED02A)
  8: 0x00B7 [0x4A] Cornelia (ID: 17748018/0x010ED032) looks at Karst (ID: 17748010/0x010ED02A)
  9: 0x00C0 [0x1F] MOVE_ENTITY: EventEntity moves to X=103.497*, Z=3.170*, Y=-20.170*
 10: 0x00C8 [0x1F] MOVE_ENTITY: Update entity position (mode=1)
 11: 0x00CA [0x00] END_REQSTACK()
```
