# Event 65535

## Metadata

| Field           | Value    |
|-----------------|----------|
| Event Index     | 27/28    |
| Offset          | 0x04F5   |
| Data Size       | 61 bytes |
| Calculated Size | 61 bytes |
| Instructions    | 5        |

```
      00 01 02 03 04 05 06 07  08 09 0A 0B 0C 0D 0E 0F
      -- -- -- -- -- -- -- --  -- -- -- -- -- -- -- --
04F0:                5B 1C 80  E3 02 06 01 E3 02 06 01       [..........
0500: 30 64 64 30 5B 1C 80 E4  02 06 01 E4 02 06 01 30  0dd0[..........0
0510: 64 64 31 5B 1D 80 E6 02  06 01 E6 02 06 01 30 61  dd1[..........0a
0520: 64 30 5B 1D 80 E7 02 06  01 E7 02 06 01 30 61 64  d0[..........0ad
0530: 31 00                                             1.              
```

## Opcodes

```
  0: 0x04F5 [0x5B] LOAD_EXT_SCHEDULER: Load scheduler "0dd0" with entities [01 (ID: 17171171/0x010602E3), 01 (ID: 17171171/0x010602E3)], work=2228*
  1: 0x0504 [0x5B] LOAD_EXT_SCHEDULER: Load scheduler "0dd1" with entities [02 (ID: 17171172/0x010602E4), 02 (ID: 17171172/0x010602E4)], work=2228*
  2: 0x0513 [0x5B] LOAD_EXT_SCHEDULER: Load scheduler "0ad0" with entities [04 (ID: 17171174/0x010602E6), 04 (ID: 17171174/0x010602E6)], work=2373*
  3: 0x0522 [0x5B] LOAD_EXT_SCHEDULER: Load scheduler "0ad1" with entities [05 (ID: 17171175/0x010602E7), 05 (ID: 17171175/0x010602E7)], work=2373*
  4: 0x0531 [0x00] END_REQSTACK()
```
