# Event 65535

## Metadata

| Field           | Value    |
|-----------------|----------|
| Event Index     | 22/28    |
| Offset          | 0x036F   |
| Data Size       | 67 bytes |
| Calculated Size | 67 bytes |
| Instructions    | 12       |

```
      00 01 02 03 04 05 06 07  08 09 0A 0B 0C 0D 0E 0F
      -- -- -- -- -- -- -- --  -- -- -- -- -- -- -- --
0360:                                               4E                 N
0370: 01 23 03 06 01 4E 01 E3  02 06 01 4E 01 E4 02 06  .#...N.....N....
0380: 01 4E 01 E5 02 06 01 4E  01 E6 02 06 01 4E 01 E7  .N.....N.....N..
0390: 02 06 01 4E 01 E8 02 06  01 4E 01 EA 02 06 01 4E  ...N.....N.....N
03A0: 01 EB 02 06 01 4E 01 18  03 06 01 4E 01 19 03 06  .....N.....N....
03B0: 01 00                                             ..              
```

## Opcodes

```
  0: 0x036F [0x4E] SET_ENTITY_HIDE_FLAG: Hide Lehko Habhoka (ID: 17171235/0x01060323)
  1: 0x0375 [0x4E] SET_ENTITY_HIDE_FLAG: Hide 01 (ID: 17171171/0x010602E3)
  2: 0x037B [0x4E] SET_ENTITY_HIDE_FLAG: Hide 02 (ID: 17171172/0x010602E4)
  3: 0x0381 [0x4E] SET_ENTITY_HIDE_FLAG: Hide 03 (ID: 17171173/0x010602E5)
  4: 0x0387 [0x4E] SET_ENTITY_HIDE_FLAG: Hide 04 (ID: 17171174/0x010602E6)
  5: 0x038D [0x4E] SET_ENTITY_HIDE_FLAG: Hide 05 (ID: 17171175/0x010602E7)
  6: 0x0393 [0x4E] SET_ENTITY_HIDE_FLAG: Hide 06 (ID: 17171176/0x010602E8)
  7: 0x0399 [0x4E] SET_ENTITY_HIDE_FLAG: Hide 10 (ID: 17171178/0x010602EA)
  8: 0x039F [0x4E] SET_ENTITY_HIDE_FLAG: Hide 11 (ID: 17171179/0x010602EB)
  9: 0x03A5 [0x4E] SET_ENTITY_HIDE_FLAG: Hide Tihl Midurhi (ID: 17171224/0x01060318)
 10: 0x03AB [0x4E] SET_ENTITY_HIDE_FLAG: Hide Mihl Pakorhma (ID: 17171225/0x01060319)
 11: 0x03B1 [0x00] END_REQSTACK()
```
