# Event 65535

## Metadata

| Field           | Value    |
|-----------------|----------|
| Event Index     | 25/28    |
| Offset          | 0x0457   |
| Data Size       | 67 bytes |
| Calculated Size | 67 bytes |
| Instructions    | 7        |

```
      00 01 02 03 04 05 06 07  08 09 0A 0B 0C 0D 0E 0F
      -- -- -- -- -- -- -- --  -- -- -- -- -- -- -- --
0450:                      BA  E3 02 06 01 11 80 12 80         .........
0460: 13 80 14 80 BA E4 02 06  01 15 80 16 80 13 80 17  ................
0470: 80 BA E5 02 06 01 18 80  19 80 1A 80 1B 80 6B 69  ..............ki
0480: 64 6C 30 E3 02 06 01 6B  69 64 6C 30 E4 02 06 01  dl0....kidl0....
0490: 6B 69 64 6C 30 E5 02 06  01 00                    kidl0.....      
```

## Opcodes

```
  0: 0x0457 [0xBA] SET_ENTITY_POSITION(entity_id=01 (ID: 17171171/0x010602E3), pos_x=-111.368*, pos_z=-58.345*, pos_y=-67.999*, direction=355.7°*)
  1: 0x0464 [0xBA] SET_ENTITY_POSITION(entity_id=02 (ID: 17171172/0x010602E4), pos_x=-109.815*, pos_z=-60.032*, pos_y=-67.999*, direction=355.5°*)
  2: 0x0471 [0xBA] SET_ENTITY_POSITION(entity_id=03 (ID: 17171173/0x010602E5), pos_x=-110.668*, pos_z=-53.751*, pos_y=-67.907*, direction=19.2°*)
  3: 0x047E [0x6B] STOP_AND_IDLE: 01 (ID: 17171171/0x010602E3) stops current action and resets to idle (animation="idl0")
  4: 0x0487 [0x6B] STOP_AND_IDLE: 02 (ID: 17171172/0x010602E4) stops current action and resets to idle (animation="idl0")
  5: 0x0490 [0x6B] STOP_AND_IDLE: 03 (ID: 17171173/0x010602E5) stops current action and resets to idle (animation="idl0")
  6: 0x0499 [0x00] END_REQSTACK()
```
