# Event 65535

## Metadata

| Field           | Value    |
|-----------------|----------|
| Event Index     | 13/28    |
| Offset          | 0x028C   |
| Data Size       | 68 bytes |
| Calculated Size | 68 bytes |
| Instructions    | 6        |

```
      00 01 02 03 04 05 06 07  08 09 0A 0B 0C 0D 0E 0F
      -- -- -- -- -- -- -- --  -- -- -- -- -- -- -- --
0280:                                      5B 0B 80 02              [...
0290: 03 06 01 02 03 06 01 67  75 6E 31 C5 01 80 02 03  .......gun1.....
02A0: 06 01 02 03 06 01 73 63  30 31 0A 80 1C 08 80 5B  ......sc01.....[
02B0: 0C 80 03 03 06 01 03 03  06 01 68 69 72 32 C5 01  ..........hir2..
02C0: 80 03 03 06 01 03 03 06  01 73 63 30 30 0A 80 00  .........sc00...
```

## Opcodes

```
  0: 0x028C [0x5B] LOAD_EXT_SCHEDULER(work_offset=2313*, entity1=02 (ID: 17171202/0x01060302), entity2=02 (ID: 17171202/0x01060302), action="gun1")
  1: 0x029B [0xC5] LOAD_SCHEDULED_TASK_ALT3: Load scheduler 0x800A3130 for entities [02 (ID: 17171202/0x01060302), 02 (ID: 17171202/0x01060302)], work=2*, param=25459
  2: 0x02AC [0x1C] WAIT(15* ticks)
  3: 0x02AF [0x5B] LOAD_EXT_SCHEDULER(work_offset=2062*, entity1=03 (ID: 17171203/0x01060303), entity2=03 (ID: 17171203/0x01060303), action="hir2")
  4: 0x02BE [0xC5] LOAD_SCHEDULED_TASK_ALT3: Load scheduler 0x800A3030 for entities [03 (ID: 17171203/0x01060303), 03 (ID: 17171203/0x01060303)], work=2*, param=25459
  5: 0x02CF [0x00] END_REQSTACK()
```
