# Event 65535

## Metadata

| Field           | Value    |
|-----------------|----------|
| Event Index     | 14/28    |
| Offset          | 0x02D0   |
| Data Size       | 86 bytes |
| Calculated Size | 86 bytes |
| Instructions    | 8        |

```
      00 01 02 03 04 05 06 07  08 09 0A 0B 0C 0D 0E 0F
      -- -- -- -- -- -- -- --  -- -- -- -- -- -- -- --
02D0: 5B 0C 80 01 03 06 01 01  03 06 01 68 69 72 32 C5  [..........hir2.
02E0: 01 80 01 03 06 01 01 03  06 01 73 63 30 30 0A 80  ..........sc00..
02F0: 1C 08 80 5B 0B 80 25 03  06 01 25 03 06 01 67 75  ...[..%...%...gu
0300: 6E 31 C5 01 80 25 03 06  01 25 03 06 01 73 63 30  n1...%...%...sc0
0310: 31 0A 80 1C 0D 80 5B 0C  80 01 03 06 01 01 03 06  1.....[.........
0320: 01 68 69 72 33 00                                 .hir3.          
```

## Opcodes

```
  0: 0x02D0 [0x5B] LOAD_EXT_SCHEDULER: Load scheduler "hir2" with entities [01 (ID: 17171201/0x01060301), 01 (ID: 17171201/0x01060301)], work=2062*
  1: 0x02DF [0xC5] LOAD_SCHEDULED_TASK_ALT3: Load scheduler 0x800A3030 for entities [01 (ID: 17171201/0x01060301), 01 (ID: 17171201/0x01060301)], work=2*, param=25459
  2: 0x02F0 [0x1C] WAIT(15* ticks)
  3: 0x02F3 [0x5B] LOAD_EXT_SCHEDULER: Load scheduler "gun1" with entities [Naho Gwanboh (ID: 17171237/0x01060325), Naho Gwanboh (ID: 17171237/0x01060325)], work=2313*
  4: 0x0302 [0xC5] LOAD_SCHEDULED_TASK_ALT3: Load scheduler 0x800A3130 for entities [Naho Gwanboh (ID: 17171237/0x01060325), Naho Gwanboh (ID: 17171237/0x01060325)], work=2*, param=25459
  5: 0x0313 [0x1C] WAIT(45* ticks)
  6: 0x0316 [0x5B] LOAD_EXT_SCHEDULER: Load scheduler "hir3" with entities [01 (ID: 17171201/0x01060301), 01 (ID: 17171201/0x01060301)], work=2062*
  7: 0x0325 [0x00] END_REQSTACK()
```
