# Event 65535

## Metadata

| Field           | Value    |
|-----------------|----------|
| Event Index     | 12/28    |
| Offset          | 0x0248   |
| Data Size       | 68 bytes |
| Calculated Size | 68 bytes |
| Instructions    | 6        |

```
      00 01 02 03 04 05 06 07  08 09 0A 0B 0C 0D 0E 0F
      -- -- -- -- -- -- -- --  -- -- -- -- -- -- -- --
0240:                          5B 0B 80 25 03 06 01 25          [..%...%
0250: 03 06 01 67 75 6E 31 C5  01 80 25 03 06 01 25 03  ...gun1...%...%.
0260: 06 01 73 63 30 31 0A 80  1C 08 80 5B 0C 80 01 03  ..sc01.....[....
0270: 06 01 01 03 06 01 68 69  72 32 C5 01 80 01 03 06  ......hir2......
0280: 01 01 03 06 01 73 63 30  30 0A 80 00              .....sc00...    
```

## Opcodes

```
  0: 0x0248 [0x5B] LOAD_EXT_SCHEDULER(work_offset=2313*, entity1=Naho Gwanboh (ID: 17171237/0x01060325), entity2=Naho Gwanboh (ID: 17171237/0x01060325), action="gun1")
  1: 0x0257 [0xC5] LOAD_SCHEDULED_TASK_ALT3: Load scheduler 0x800A3130 for entities [Naho Gwanboh (ID: 17171237/0x01060325), Naho Gwanboh (ID: 17171237/0x01060325)], work=2*, param=25459
  2: 0x0268 [0x1C] WAIT(15* ticks)
  3: 0x026B [0x5B] LOAD_EXT_SCHEDULER(work_offset=2062*, entity1=01 (ID: 17171201/0x01060301), entity2=01 (ID: 17171201/0x01060301), action="hir2")
  4: 0x027A [0xC5] LOAD_SCHEDULED_TASK_ALT3: Load scheduler 0x800A3030 for entities [01 (ID: 17171201/0x01060301), 01 (ID: 17171201/0x01060301)], work=2*, param=25459
  5: 0x028B [0x00] END_REQSTACK()
```
