# Event 65535

## Metadata

| Field           | Value    |
|-----------------|----------|
| Event Index     | 23/28    |
| Offset          | 0x03B2   |
| Data Size       | 67 bytes |
| Calculated Size | 67 bytes |
| Instructions    | 12       |

```
      00 01 02 03 04 05 06 07  08 09 0A 0B 0C 0D 0E 0F
      -- -- -- -- -- -- -- --  -- -- -- -- -- -- -- --
03B0:       4E 00 23 03 06 01  4E 00 E3 02 06 01 4E 00    N.#...N.....N.
03C0: E4 02 06 01 4E 00 E5 02  06 01 4E 00 E6 02 06 01  ....N.....N.....
03D0: 4E 00 E7 02 06 01 4E 00  E8 02 06 01 4E 00 EA 02  N.....N.....N...
03E0: 06 01 4E 00 EB 02 06 01  4E 00 18 03 06 01 4E 00  ..N.....N.....N.
03F0: 19 03 06 01 00                                    .....           
```

## Opcodes

```
  0: 0x03B2 [0x4E] SET_ENTITY_HIDE_FLAG: Show Lehko Habhoka (ID: 17171235/0x01060323)
  1: 0x03B8 [0x4E] SET_ENTITY_HIDE_FLAG: Show 01 (ID: 17171171/0x010602E3)
  2: 0x03BE [0x4E] SET_ENTITY_HIDE_FLAG: Show 02 (ID: 17171172/0x010602E4)
  3: 0x03C4 [0x4E] SET_ENTITY_HIDE_FLAG: Show 03 (ID: 17171173/0x010602E5)
  4: 0x03CA [0x4E] SET_ENTITY_HIDE_FLAG: Show 04 (ID: 17171174/0x010602E6)
  5: 0x03D0 [0x4E] SET_ENTITY_HIDE_FLAG: Show 05 (ID: 17171175/0x010602E7)
  6: 0x03D6 [0x4E] SET_ENTITY_HIDE_FLAG: Show 06 (ID: 17171176/0x010602E8)
  7: 0x03DC [0x4E] SET_ENTITY_HIDE_FLAG: Show 10 (ID: 17171178/0x010602EA)
  8: 0x03E2 [0x4E] SET_ENTITY_HIDE_FLAG: Show 11 (ID: 17171179/0x010602EB)
  9: 0x03E8 [0x4E] SET_ENTITY_HIDE_FLAG: Show Tihl Midurhi (ID: 17171224/0x01060318)
 10: 0x03EE [0x4E] SET_ENTITY_HIDE_FLAG: Show Mihl Pakorhma (ID: 17171225/0x01060319)
 11: 0x03F4 [0x00] END_REQSTACK()
```
