# Event 65535

## Metadata

| Field           | Value    |
|-----------------|----------|
| Event Index     | 37/52    |
| Offset          | 0x0299   |
| Data Size       | 42 bytes |
| Calculated Size | 42 bytes |
| Instructions    | 8        |

```
      00 01 02 03 04 05 06 07  08 09 0A 0B 0C 0D 0E 0F
      -- -- -- -- -- -- -- --  -- -- -- -- -- -- -- --
0290:                             1F 00 56 80 57 80 58           ..V.W.X
02A0: 80 1F 01 6F 4A 1B D2 03  01 F8 D1 03 01 6F 76 1B  ...oJ........ov.
02B0: D2 03 01 5B 52 80 1B D2  03 01 1B D2 03 01 73 74  ...[R.........st
02C0: 66 31 00                                          f1.             
```

## Opcodes

```
  0: 0x0299 [0x1F] MOVE_ENTITY: EventEntity moves to X=-599.352*, Z=-367.440*, Y=-16.434*
  1: 0x02A1 [0x1F] MOVE_ENTITY: Update entity position (mode=1)
  2: 0x02A3 [0x6F] WAIT_FRAME_DELAY: Yield until WaitTime reaches zero
  3: 0x02A4 [0x4A] yagu3 (ID: 17027611/0x0103D21B) looks at Shayeeha (ID: 17027576/0x0103D1F8)
  4: 0x02AD [0x6F] WAIT_FRAME_DELAY: Yield until WaitTime reaches zero
  5: 0x02AE [0x76] CHECK_ENTITY_RENDER_FLAGS: Wait until yagu3 (ID: 17027611/0x0103D21B) Render.Flags0 and Render.Flags3 conditions are met
  6: 0x02B3 [0x5B] LOAD_EXT_SCHEDULER(work_offset=857*, entity1=yagu3 (ID: 17027611/0x0103D21B), entity2=yagu3 (ID: 17027611/0x0103D21B), action="stf1")
  7: 0x02C2 [0x00] END_REQSTACK()
```
