# Event 175

## Metadata

| Field           | Value    |
|-----------------|----------|
| Event Index     | 11/25    |
| Offset          | 0x00F5   |
| Data Size       | 33 bytes |
| Calculated Size | 33 bytes |
| Instructions    | 12       |

```
      00 01 02 03 04 05 06 07  08 09 0A 0B 0C 0D 0E 0F
      -- -- -- -- -- -- -- --  -- -- -- -- -- -- -- --
00F0:                1E F0 FF  FF 7F 6F 70 29 08 74 10       .....op).t.
0100: 0F 01 01 1D 0D 80 23 1D  0E 80 23 29 08 74 10 0F  ......#...#).t..
0110: 01 02 20 00 21 00                                 .. .!.          
```

## Opcodes

```
  0: 0x00F5 [0x1E] EventEntity looks at LocalPlayer and starts talking
  1: 0x00FA [0x6F] WAIT_FRAME_DELAY: Yield until WaitTime reaches zero
  2: 0x00FB [0x70] WAIT_ENTITY_RENDER_FLAG: Wait while EventEntity->Render.Flags3 bit 2 is set (cancel turn if not)
  3: 0x00FC [0x29] REQ_SET_WAIT(priority=0x08, entity_id=Cha Lebagta (ID: 17764468/0x010F1074), tag_num=0x01)
  4: 0x0103 [0x1D] PRINT_EVENT_MESSAGE(message_id=7848*)
    → "I meowed her once, I meowed her a thousand times. We should stop putting our paws on anything that smells of Carrrdians.\u007F1\u0000\u0007"
  5: 0x0106 [0x23] WAIT_FOR_DIALOG_INTERACTION
  6: 0x0107 [0x1D] PRINT_EVENT_MESSAGE(message_id=7849*)
    → "I neverrr want to go through that sorrrt of thing again!\u007F1\u0000\u0007"
  7: 0x010A [0x23] WAIT_FOR_DIALOG_INTERACTION
  8: 0x010B [0x29] REQ_SET_WAIT(priority=0x08, entity_id=Cha Lebagta (ID: 17764468/0x010F1074), tag_num=0x02)
  9: 0x0112 [0x20] SET_CLI_EVENT_UC_FLAG: Unlock player control
 10: 0x0114 [0x21] END_EVENT
 11: 0x0115 [0x00] END_REQSTACK()
```
