# Event 507

## Metadata

| Field           | Value    |
|-----------------|----------|
| Event Index     | 18/25    |
| Offset          | 0x0173   |
| Data Size       | 19 bytes |
| Calculated Size | 19 bytes |
| Instructions    | 10       |

```
      00 01 02 03 04 05 06 07  08 09 0A 0B 0C 0D 0E 0F
      -- -- -- -- -- -- -- --  -- -- -- -- -- -- -- --
0170:          1E F0 FF FF 7F  6F 70 1D 1A 80 23 1D 1B     .....op...#..
0180: 80 23 20 00 21 00                                 .# .!.          
```

## Opcodes

```
  0: 0x0173 [0x1E] EventEntity looks at LocalPlayer and starts talking
  1: 0x0178 [0x6F] WAIT_FRAME_DELAY: Yield until WaitTime reaches zero
  2: 0x0179 [0x70] WAIT_ENTITY_RENDER_FLAG: Wait while EventEntity->Render.Flags3 bit 2 is set (cancel turn if not)
  3: 0x017A [0x1D] PRINT_EVENT_MESSAGE(message_id=8864*)
    → "Just a minute!\u0007I completely forgot. To climb the towerrr in Sauromugue Champaign, you need to have \u0001\u0001\u0001 \u0001\u0005$\u0002\u0001\u0000\u0000.\u007F1\u0000\u0007"
  4: 0x017D [0x23] WAIT_FOR_DIALOG_INTERACTION
  5: 0x017E [0x1D] PRINT_EVENT_MESSAGE(message_id=8865*)
    → "But even if you have one, you won't be getting up that tower if you're a fat cat!\u007F1\u0000\u0007"
  6: 0x0181 [0x23] WAIT_FOR_DIALOG_INTERACTION
  7: 0x0182 [0x20] SET_CLI_EVENT_UC_FLAG: Unlock player control
  8: 0x0184 [0x21] END_EVENT
  9: 0x0185 [0x00] END_REQSTACK()
```
