# Event 91

## Metadata

| Field           | Value    |
|-----------------|----------|
| Event Index     | 6/25     |
| Offset          | 0x0058   |
| Data Size       | 33 bytes |
| Calculated Size | 33 bytes |
| Instructions    | 12       |

```
      00 01 02 03 04 05 06 07  08 09 0A 0B 0C 0D 0E 0F
      -- -- -- -- -- -- -- --  -- -- -- -- -- -- -- --
0050:                          1E F0 FF FF 7F 6F 70 29          .....op)
0060: 08 74 10 0F 01 01 1D 05  80 23 1D 06 80 23 29 08  .t.......#...#).
0070: 74 10 0F 01 02 20 00 21  00                       t.... .!.       
```

## Opcodes

```
  0: 0x0058 [0x1E] EventEntity looks at LocalPlayer and starts talking
  1: 0x005D [0x6F] WAIT_FRAME_DELAY: Yield until WaitTime reaches zero
  2: 0x005E [0x70] WAIT_ENTITY_RENDER_FLAG: Wait while EventEntity->Render.Flags3 bit 2 is set (cancel turn if not)
  3: 0x005F [0x29] REQ_SET_WAIT(priority=0x08, entity_id=Cha Lebagta (ID: 17764468/0x010F1074), tag_num=0x01)
  4: 0x0066 [0x1D] PRINT_EVENT_MESSAGE(message_id=7620*)
    → "Humph!\u0007You just did as I said and gave the top cat some \u0001\u0005%\u0002\u0001\u0000\u0000, didn't you?\u007F1\u0000\u0007"
  5: 0x0069 [0x23] WAIT_FOR_DIALOG_INTERACTION
  6: 0x006A [0x1D] PRINT_EVENT_MESSAGE(message_id=7621*)
    → "Well, that's just being a copycat! Don't think you're any better than us, or else fur will fly!\u007F1\u0000\u0007"
  7: 0x006D [0x23] WAIT_FOR_DIALOG_INTERACTION
  8: 0x006E [0x29] REQ_SET_WAIT(priority=0x08, entity_id=Cha Lebagta (ID: 17764468/0x010F1074), tag_num=0x02)
  9: 0x0075 [0x20] SET_CLI_EVENT_UC_FLAG: Unlock player control
 10: 0x0077 [0x21] END_EVENT
 11: 0x0078 [0x00] END_REQSTACK()
```
