# Event 59

## Metadata

| Field           | Value    |
|-----------------|----------|
| Event Index     | 3/6      |
| Offset          | 0x0008   |
| Data Size       | 48 bytes |
| Calculated Size | 48 bytes |
| Instructions    | 12       |

```
      00 01 02 03 04 05 06 07  08 09 0A 0B 0C 0D 0E 0F
      -- -- -- -- -- -- -- --  -- -- -- -- -- -- -- --
0000:                          1E F0 FF FF 7F 1C 00 80          ........
0010: 66 01 80 F8 FF FF 7F F8  FF FF 7F 74 6C 6B 30 03  f..........tlk0.
0020: 02 10 02 80 03 03 10 03  80 03 04 10 04 80 1D 05  ................
0030: 80 23 1D 06 80 23 21 00                           .#...#!.        
```

## Opcodes

```
  0: 0x0008 [0x1E] EventEntity looks at LocalPlayer and starts talking
  1: 0x000D [0x1C] WAIT(30* ticks)
  2: 0x0010 [0x66] LOAD_EXT_SCHEDULER_MAIN: Load scheduler "tlk0" with entities [EventEntity, EventEntity], work=69*
  3: 0x001F [0x03] Work_Zone[2] = 3927*
  4: 0x0024 [0x03] Work_Zone[3] = 658*
  5: 0x0029 [0x03] Work_Zone[4] = 4096*
  6: 0x002E [0x1D] PRINT_EVENT_MESSAGE(message_id=8080*)
    → "To make a pickaxe, we'll need \u0001\u0001\u0001 \u0001\u0005$\u0002\u0000\u0000\u0000, \u0001\u0001\u0001 \u0001\u0005$\u0002\u0001\u0000\u0000, and \u0001\u0001\u0001 \u0001\u0005$\u0002\u0002\u0000\u0000.\u007F1\u0000\u0007"
  7: 0x0031 [0x23] WAIT_FOR_DIALOG_INTERACTION
  8: 0x0032 [0x1D] PRINT_EVENT_MESSAGE(message_id=8084*)
    → "Get your butt to the Inventors' Coalition and then bring the pickaxe to Logan.\u007F1\u0000\u0007"
  9: 0x0035 [0x23] WAIT_FOR_DIALOG_INTERACTION
 10: 0x0036 [0x21] END_EVENT
 11: 0x0037 [0x00] END_REQSTACK()
```
