# Event 65535

## Metadata

| Field           | Value    |
|-----------------|----------|
| Event Index     | 5/10     |
| Offset          | 0x0019   |
| Data Size       | 43 bytes |
| Calculated Size | 43 bytes |
| Instructions    | 12       |

```
      00 01 02 03 04 05 06 07  08 09 0A 0B 0C 0D 0E 0F
      -- -- -- -- -- -- -- --  -- -- -- -- -- -- -- --
0010:                             1C 04 80 32 05 80 33           ...2..3
0020: 01 5A 00 06 80 07 80 08  80 5A 01 5A 00 09 80 0A  .Z.......Z.Z....
0030: 80 0B 80 5A 01 5A 00 0C  80 0D 80 0E 80 5A 01 33  ...Z.Z.......Z.3
0040: 00 22 01 00                                       ."..            
```

## Opcodes

```
  0: 0x0019 [0x1C] WAIT(10* ticks)
  1: 0x001C [0x32] ExtData[1]->MainSpeed = 40* * 0.1
  2: 0x001F [0x33] EventEntity->Render.Flags0 |= 0x200000 // Bit 21 (flag=0x01)
  3: 0x0021 [0x5A] UPDATE_EVENT_POSITION: Set EventEntity MovePosition to X=153.200*, Z=-19.142*, Y=-19.777*
  4: 0x0029 [0x5A] UPDATE_EVENT_POSITION: Move EventEntity incrementally towards MovePosition
  5: 0x002B [0x5A] UPDATE_EVENT_POSITION: Set EventEntity MovePosition to X=129.616*, Z=-9.148*, Y=-20.054*
  6: 0x0033 [0x5A] UPDATE_EVENT_POSITION: Move EventEntity incrementally towards MovePosition
  7: 0x0035 [0x5A] UPDATE_EVENT_POSITION: Set EventEntity MovePosition to X=75.008*, Z=25.884*, Y=-19.551*
  8: 0x003D [0x5A] UPDATE_EVENT_POSITION: Move EventEntity incrementally towards MovePosition
  9: 0x003F [0x33] EventEntity->Render.Flags0 &= ~ 0x200000 // Bit 21 (flag=0x00)
 10: 0x0041 [0x22] ENTITY_HIDE_FLAG(enabled=0x01)
 11: 0x0043 [0x00] END_REQSTACK()
```
