# 17756318

## Common Data

| Field            | Value                    |
|------------------|--------------------------|
| Zone             | Windurst Walls (ID: 239) |
| Block Size       | 10840 bytes              |
| Total Events     | 6                        |
| References Count | 179                      |

## List of Events

| Event ID              | Entrypoint   |   Size |   Instructions |
|-----------------------|--------------|--------|----------------|
| [65535](#event-65535) | 0x0000       |      1 |              1 |
| [469](#event-469)     | 0x0001       |   3298 |            480 |
| [470](#event-470)     | 0x0CE3       |    472 |             71 |
| [471](#event-471)     | 0x0EBB       |    428 |             63 |
| [472](#event-472)     | 0x1067       |    757 |            114 |
| [473](#event-473)     | 0x135C       |   5128 |            693 |

## DAT References (imed_data)

|   Index | Hex Value   |   Dec Value |
|---------|-------------|-------------|
|       0 | 0x0000      |           0 |
|       1 | 0x0064      |         100 |
|       2 | 0x00C8      |         200 |
|       3 | 0x003C      |          60 |
|       4 | 0x0013      |          19 |
|       5 | 0x0192      |         402 |
|       6 | 0x0005      |           5 |
|       7 | 0x0078      |         120 |
|       8 | 0x0006      |           6 |
|       9 | 0x24AF      |        9391 |
|      10 | 0x00A3      |         163 |
|      11 | 0x0014      |          20 |
|      12 | 0x24B0      |        9392 |
|      13 | 0x0032      |          50 |
|      14 | 0x24B1      |        9393 |
|      15 | 0x000A      |          10 |
|      16 | 0x24B2      |        9394 |
|      17 | 0x24B3      |        9395 |
|      18 | 0x24B4      |        9396 |
|      19 | 0x24B5      |        9397 |
|      20 | 0x24B6      |        9398 |
|      21 | 0x24B7      |        9399 |
|      22 | 0x24B8      |        9400 |
|      23 | 0x24B9      |        9401 |
|      24 | 0x24BA      |        9402 |
|      25 | 0x24BB      |        9403 |
|      26 | 0x24BC      |        9404 |
|      27 | 0x24BD      |        9405 |
|      28 | 0x24BE      |        9406 |
|      29 | 0x24BF      |        9407 |
|      30 | 0x24C0      |        9408 |
|      31 | 0x24C1      |        9409 |
|      32 | 0x24C2      |        9410 |
|      33 | 0x24C3      |        9411 |
|      34 | 0x24C4      |        9412 |
|      35 | 0x24C5      |        9413 |
|      36 | 0x24C6      |        9414 |
|      37 | 0x24C7      |        9415 |
|      38 | 0x24C8      |        9416 |
|      39 | 0x01D6      |         470 |
|      40 | 0x24C9      |        9417 |
|      41 | 0x0360      |         864 |
|      42 | 0x0898      |        2200 |
|      43 | 0x0E69      |        3689 |
|      44 | 0x24CA      |        9418 |
|      45 | 0x24CB      |        9419 |
|      46 | 0x24CC      |        9420 |
|      47 | 0x24CD      |        9421 |
|      48 | 0x24CE      |        9422 |
|      49 | 0x24CF      |        9423 |
|      50 | 0x24D0      |        9424 |
|      51 | 0x0050      |          80 |
|      52 | 0x24D1      |        9425 |
|      53 | 0x24D2      |        9426 |
|      54 | 0x05EC      |        1516 |
|      55 | 0x24D3      |        9427 |
|      56 | 0x005A      |          90 |
|      57 | 0x24D4      |        9428 |
|      58 | 0x24D5      |        9429 |
|      59 | 0x24D6      |        9430 |
|      60 | 0x24D7      |        9431 |
|      61 | 0x24D8      |        9432 |
|      62 | 0x001E      |          30 |
|      63 | 0x24D9      |        9433 |
|      64 | 0x24DA      |        9434 |
|      65 | 0x24DB      |        9435 |
|      66 | 0x24DC      |        9436 |
|      67 | 0x24DD      |        9437 |
|      68 | 0x24DE      |        9438 |
|      69 | 0x24DF      |        9439 |
|      70 | 0x24E0      |        9440 |
|      71 | 0x24E1      |        9441 |
|      72 | 0x0097      |         151 |
|      73 | 0x24E8      |        9448 |
|      74 | 0x24E9      |        9449 |
|      75 | 0x24EA      |        9450 |
|      76 | 0x24EB      |        9451 |
|      77 | 0x24EC      |        9452 |
|      78 | 0x24ED      |        9453 |
|      79 | 0x24EE      |        9454 |
|      80 | 0x24EF      |        9455 |
|      81 | 0x24F0      |        9456 |
|      82 | 0x00EA      |         234 |
|      83 | 0x24F1      |        9457 |
|      84 | 0x24F2      |        9458 |
|      85 | 0x24F3      |        9459 |
|      86 | 0x24F4      |        9460 |
|      87 | 0x24F5      |        9461 |
|      88 | 0x24F6      |        9462 |
|      89 | 0x007F      |         127 |
|      90 | 0x24F7      |        9463 |
|      91 | 0x24F8      |        9464 |
|      92 | 0x24F9      |        9465 |
|      93 | 0x24FA      |        9466 |
|      94 | 0x24FB      |        9467 |
|      95 | 0x24FC      |        9468 |
|      96 | 0x24FD      |        9469 |
|      97 | 0xFFFE71D8  |  4294865368 |
|      98 | 0x30BFD     |      199677 |
|      99 | 0xFFFFCD38  |  4294954296 |
|     100 | 0x02C0      |         704 |
|     101 | 0x2502      |        9474 |
|     102 | 0x2503      |        9475 |
|     103 | 0x2504      |        9476 |
|     104 | 0x0080      |         128 |
|     105 | 0x2505      |        9477 |
|     106 | 0x2506      |        9478 |
|     107 | 0x2507      |        9479 |
|     108 | 0x2508      |        9480 |
|     109 | 0x2509      |        9481 |
|     110 | 0x250A      |        9482 |
|     111 | 0x250B      |        9483 |
|     112 | 0x250C      |        9484 |
|     113 | 0x250D      |        9485 |
|     114 | 0x00E7      |         231 |
|     115 | 0x012C      |         300 |
|     116 | 0x250E      |        9486 |
|     117 | 0x250F      |        9487 |
|     118 | 0x2510      |        9488 |
|     119 | 0x2511      |        9489 |
|     120 | 0x2512      |        9490 |
|     121 | 0x2513      |        9491 |
|     122 | 0x2514      |        9492 |
|     123 | 0x2515      |        9493 |
|     124 | 0x2516      |        9494 |
|     125 | 0x2517      |        9495 |
|     126 | 0x098B      |        2443 |
|     127 | 0x2518      |        9496 |
|     128 | 0x2519      |        9497 |
|     129 | 0x251A      |        9498 |
|     130 | 0x251B      |        9499 |
|     131 | 0x251C      |        9500 |
|     132 | 0x251D      |        9501 |
|     133 | 0x251E      |        9502 |
|     134 | 0x251F      |        9503 |
|     135 | 0x0028      |          40 |
|     136 | 0x2520      |        9504 |
|     137 | 0x2521      |        9505 |
|     138 | 0x2522      |        9506 |
|     139 | 0x2523      |        9507 |
|     140 | 0x2524      |        9508 |
|     141 | 0x0096      |         150 |
|     142 | 0x2525      |        9509 |
|     143 | 0x2526      |        9510 |
|     144 | 0x2527      |        9511 |
|     145 | 0x2528      |        9512 |
|     146 | 0x2529      |        9513 |
|     147 | 0x252A      |        9514 |
|     148 | 0x252B      |        9515 |
|     149 | 0x252C      |        9516 |
|     150 | 0x252D      |        9517 |
|     151 | 0x252E      |        9518 |
|     152 | 0x252F      |        9519 |
|     153 | 0x00A0      |         160 |
|     154 | 0x2530      |        9520 |
|     155 | 0x2531      |        9521 |
|     156 | 0x0082      |         130 |
|     157 | 0x2532      |        9522 |
|     158 | 0x2533      |        9523 |
|     159 | 0x2534      |        9524 |
|     160 | 0x2535      |        9525 |
|     161 | 0x2536      |        9526 |
|     162 | 0x2537      |        9527 |
|     163 | 0x2538      |        9528 |
|     164 | 0x2539      |        9529 |
|     165 | 0x253A      |        9530 |
|     166 | 0x0E74      |        3700 |
|     167 | 0x253B      |        9531 |
|     168 | 0x253C      |        9532 |
|     169 | 0x253D      |        9533 |
|     170 | 0x253E      |        9534 |
|     171 | 0x253F      |        9535 |
|     172 | 0x2540      |        9536 |
|     173 | 0x2541      |        9537 |
|     174 | 0x2542      |        9538 |
|     175 | 0x2543      |        9539 |
|     176 | 0x2544      |        9540 |
|     177 | 0x2545      |        9541 |
|     178 | 0x2546      |        9542 |

## String References

- **9502**: Heh heh heh... You're way off the mark, ladies!

## Events

### Event 65535

#### Metadata

| Field        | Value   |
|--------------|---------|
| Entrypoint   | 0x0000  |
| Data Size    | 1 bytes |
| Instructions | 1       |

```
      00 01 02 03 04 05 06 07  08 09 0A 0B 0C 0D 0E 0F
      -- -- -- -- -- -- -- --  -- -- -- -- -- -- -- --
0000: 00                                                .               
```

#### Opcodes

```
  0: 0x0000 [0x00] END_REQSTACK()
```

### Event 469

#### Metadata

| Field        | Value      |
|--------------|------------|
| Entrypoint   | 0x0001     |
| Data Size    | 3298 bytes |
| Instructions | 480        |

```
      00 01 02 03 04 05 06 07  08 09 0A 0B 0C 0D 0E 0F
      -- -- -- -- -- -- -- --  -- -- -- -- -- -- -- --
0000:    20 01 42 46 01 5D 00  80 01 80 45 02 80 F8 FF    .BF.]....E....
0010: FF 7F F8 FF FF 7F 66 64  6F 31 00 80 1C 03 80 38  ......fdo1.....8
0020: 04 80 29 08 F0 FF FF 7F  05 29 0B 9F F0 0E 01 48  ..)......).....H
0030: 29 0B A0 F0 0E 01 48 29  0B A1 F0 0E 01 49 29 0B  ).....H).....I).
0040: F0 FF FF 7F 69 29 0B 89  F0 0E 01 2F 29 0B 1A F0  ....i)...../)...
0050: 0E 01 8C 29 0B 1C F0 0E  01 63 1C 03 80 75 00 05  ...).....c...u..
0060: 80 75 01 1C 03 80 4E 01  1A F0 0E 01 4E 01 89 F0  .u....N.....N...
0070: 0E 01 4E 00 9F F0 0E 01  4E 00 A0 F0 0E 01 4E 00  ..N.....N.....N.
0080: A1 F0 0E 01 80 9F F0 0E  01 80 A0 F0 0E 01 80 A1  ................
0090: F0 0E 01 4A 1C F0 0E 01  F0 FF FF 7F 6F 76 1C F0  ...J........ov..
00A0: 0E 01 02 09 10 06 80 00  BE 00 45 07 80 F8 FF FF  ..........E.....
00B0: 7F F8 FF FF 7F 73 31 30  35 00 80 01 EB 00 02 09  .....s105.......
00C0: 10 08 80 00 DA 00 45 07  80 F8 FF FF 7F F8 FF FF  ......E.........
00D0: 7F 73 31 30 35 00 80 01  EB 00 45 07 80 F8 FF FF  .s105.....E.....
00E0: 7F F8 FF FF 7F 73 30 33  35 00 80 45 02 80 F8 FF  .....s035..E....
00F0: FF 7F F8 FF FF 7F 66 64  69 31 00 80 2B 1C F0 0E  ......fdi1..+...
0100: 01 09 80 23 27 0D 73 F0  0E 01 04 79 00 1C F0 0E  ...#'.s....y....
0110: 01 9F F0 0E 01 5C 00 0A  80 5C 01 0A 80 27 0B 9F  .....\...\...'..
0120: F0 0E 01 49 27 0B A0 F0  0E 01 49 27 0B A1 F0 0E  ...I'.....I'....
0130: 01 4A 1C 0B 80 4A F0 FF  FF 7F 9F F0 0E 01 02 09  .J...J..........
0140: 10 06 80 00 58 01 52 07  80 F8 FF FF 7F F8 FF FF  ....X.R.........
0150: 7F 73 31 30 35 01 81 01  02 09 10 08 80 00 72 01  .s105.........r.
0160: 52 07 80 F8 FF FF 7F F8  FF FF 7F 73 31 30 35 01  R..........s105.
0170: 81 01 52 07 80 F8 FF FF  7F F8 FF FF 7F 73 30 33  ..R..........s03
0180: 35 45 07 80 F8 FF FF 7F  F8 FF FF 7F 73 30 33 34  5E..........s034
0190: 00 80 2B A1 F0 0E 01 0C  80 23 1C 0D 80 1C 0D 80  ..+......#......
01A0: 2B A0 F0 0E 01 0E 80 23  2A 0B 9F F0 0E 01 2A 0B  +......#*.....*.
01B0: A0 F0 0E 01 2A 0B A1 F0  0E 01 1C 0F 80 29 08 9F  ....*........)..
01C0: F0 0E 01 08 29 08 A0 F0  0E 01 08 29 08 A1 F0 0E  ....)......)....
01D0: 01 0C 2B 9F F0 0E 01 10  80 23 2A 0D 73 F0 0E 01  ..+......#*.s...
01E0: 45 02 80 F8 FF FF 7F F8  FF FF 7F 66 64 6F 31 00  E..........fdo1.
01F0: 80 1C 03 80 52 07 80 F8  FF FF 7F F8 FF FF 7F 73  ....R..........s
0200: 30 33 34 6F 76 F0 FF FF  7F 29 0B 1C F0 0E 01 64  034ov....).....d
0210: 29 0B F0 FF FF 7F 6A 29  08 9F F0 0E 01 46 29 08  ).....j).....F).
0220: A0 F0 0E 01 46 29 08 A1  F0 0E 01 47 29 0B A1 F0  ....F).....G)...
0230: 0E 01 4B 29 0B A0 F0 0E  01 4A 29 0B 9F F0 0E 01  ..K).....J).....
0240: 4A 4A 9F F0 0E 01 1C F0  0E 01 4A A0 F0 0E 01 1C  JJ........J.....
0250: F0 0E 01 4A A1 F0 0E 01  1C F0 0E 01 6F 76 9F F0  ...J........ov..
0260: 0E 01 6F 76 A0 F0 0E 01  6F 76 A1 F0 0E 01 45 07  ..ov....ov....E.
0270: 80 F8 FF FF 7F F8 FF FF  7F 73 30 33 36 00 80 45  .........s036..E
0280: 02 80 F8 FF FF 7F F8 FF  FF 7F 66 64 69 31 00 80  ..........fdi1..
0290: 29 0B 1C F0 0E 01 65 4A  1C F0 0E 01 9F F0 0E 01  ).....eJ........
02A0: 6F 76 1C F0 0E 01 29 08  1C F0 0E 01 1D 2B 1C F0  ov....)......+..
02B0: 0E 01 11 80 23 29 08 1C  F0 0E 01 1E 29 08 1C F0  ....#)......)...
02C0: 0E 01 0B 2B 1C F0 0E 01  12 80 23 29 08 1C F0 0E  ...+......#)....
02D0: 01 0C 52 07 80 F8 FF FF  7F F8 FF FF 7F 73 30 33  ..R..........s03
02E0: 36 45 07 80 F8 FF FF 7F  F8 FF FF 7F 73 30 33 37  6E..........s037
02F0: 00 80 29 08 9F F0 0E 01  01 2B 9F F0 0E 01 13 80  ..)......+......
0300: 23 29 08 9F F0 0E 01 02  29 08 A1 F0 0E 01 01 2B  #)......)......+
0310: A1 F0 0E 01 14 80 23 29  08 A1 F0 0E 01 02 29 08  ......#)......).
0320: A0 F0 0E 01 01 2B A0 F0  0E 01 15 80 23 29 08 A0  .....+......#)..
0330: F0 0E 01 02 29 08 A1 F0  0E 01 01 2B A1 F0 0E 01  ....)......+....
0340: 16 80 23 29 08 A1 F0 0E  01 02 52 07 80 F8 FF FF  ..#)......R.....
0350: 7F F8 FF FF 7F 73 30 33  37 45 07 80 F8 FF FF 7F  .....s037E......
0360: F8 FF FF 7F 73 30 33 38  00 80 27 0D 73 F0 0E 01  ....s038..'.s...
0370: 04 4E 00 1A F0 0E 01 4E  00 89 F0 0E 01 80 1A F0  .N.....N........
0380: 0E 01 80 89 F0 0E 01 79  00 1A F0 0E 01 1C F0 0E  .......y........
0390: 01 79 00 89 F0 0E 01 1C  F0 0E 01 27 0B 1A F0 0E  .y.........'....
03A0: 01 8D 27 0B 89 F0 0E 01  30 4A 1C F0 0E 01 1A F0  ..'.....0J......
03B0: 0E 01 4A F0 FF FF 7F 1A  F0 0E 01 79 00 9F F0 0E  ..J........y....
03C0: 01 1A F0 0E 01 79 00 A0  F0 0E 01 1A F0 0E 01 79  .....y.........y
03D0: 00 A1 F0 0E 01 1A F0 0E  01 2B 89 F0 0E 01 17 80  .........+......
03E0: 23 2B 1A F0 0E 01 18 80  23 2A 0D 73 F0 0E 01 29  #+......#*.s...)
03F0: 0B 1C F0 0E 01 66 29 08  1C F0 0E 01 1D 2B 1C F0  .....f)......+..
0400: 0E 01 19 80 23 29 08 1C  F0 0E 01 1E 2A 0B 1A F0  ....#)......*...
0410: 0E 01 2A 0B 89 F0 0E 01  29 08 1A F0 0E 01 29 2B  ..*.....).....)+
0420: 1A F0 0E 01 1A 80 23 29  08 1C F0 0E 01 07 29 08  ......#)......).
0430: 1C F0 0E 01 08 45 02 80  F8 FF FF 7F F8 FF FF 7F  .....E..........
0440: 66 64 6F 31 00 80 1C 07  80 52 07 80 F8 FF FF 7F  fdo1.....R......
0450: F8 FF FF 7F 73 30 33 38  29 08 1A F0 0E 01 2A 29  ....s038).....*)
0460: 0B 1C F0 0E 01 67 29 08  1C F0 0E 01 03 29 08 1C  .....g)......)..
0470: F0 0E 01 04 29 0B F0 FF  FF 7F 6B 29 0B 89 F0 0E  ....).....k)....
0480: 01 31 7B 1C F0 0E 01 4A  1A F0 0E 01 1C F0 0E 01  .1{....J........
0490: 4A 89 F0 0E 01 1C F0 0E  01 79 00 9F F0 0E 01 1C  J........y......
04A0: F0 0E 01 79 00 A0 F0 0E  01 1C F0 0E 01 79 00 A1  ...y.........y..
04B0: F0 0E 01 1C F0 0E 01 6F  76 1A F0 0E 01 6F 76 89  .......ov....ov.
04C0: F0 0E 01 45 07 80 F8 FF  FF 7F F8 FF FF 7F 73 30  ...E..........s0
04D0: 34 31 00 80 45 02 80 F8  FF FF 7F F8 FF FF 7F 66  41..E..........f
04E0: 64 69 31 00 80 2B 1C F0  0E 01 1B 80 23 52 07 80  di1..+......#R..
04F0: F8 FF FF 7F F8 FF FF 7F  73 30 34 31 45 07 80 F8  ........s041E...
0500: FF FF 7F F8 FF FF 7F 73  30 34 32 00 80 29 08 1C  .......s042..)..
0510: F0 0E 01 05 29 08 1C F0  0E 01 06 29 0B 1C F0 0E  ....)......)....
0520: 01 68 1C 0F 80 29 08 1C  F0 0E 01 1D 2B 1C F0 0E  .h...)......+...
0530: 01 1C 80 23 29 08 1C F0  0E 01 1E 29 08 1C F0 0E  ...#)......)....
0540: 01 01 2B 1C F0 0E 01 1D  80 23 2B 1C F0 0E 01 1E  ..+......#+.....
0550: 80 23 29 08 1C F0 0E 01  02 29 08 1C F0 0E 01 0B  .#)......)......
0560: 2B 1C F0 0E 01 1F 80 23  29 08 1C F0 0E 01 0C 29  +......#)......)
0570: 08 1C F0 0E 01 03 2B 1C  F0 0E 01 20 80 23 29 08  ......+.... .#).
0580: 1C F0 0E 01 04 52 07 80  F8 FF FF 7F F8 FF FF 7F  .....R..........
0590: 73 30 34 32 45 02 80 F0  FF FF 7F F0 FF FF 7F 6F  s042E..........o
05A0: 76 6C 31 00 80 45 07 80  F8 FF FF 7F F8 FF FF 7F  vl1..E..........
05B0: 73 30 34 30 00 80 29 08  89 F0 0E 01 01 2B 89 F0  s040..)......+..
05C0: 0E 01 21 80 23 29 08 89  F0 0E 01 02 29 08 1C F0  ..!.#)......)...
05D0: 0E 01 05 29 08 1C F0 0E  01 06 4A 1C F0 0E 01 89  ...)......J.....
05E0: F0 0E 01 6F 76 1C F0 0E  01 29 08 1C F0 0E 01 09  ...ov....)......
05F0: 2B 1C F0 0E 01 22 80 23  29 08 1C F0 0E 01 0A 79  +....".#)......y
0600: 00 1C F0 0E 01 1A F0 0E  01 79 00 89 F0 0E 01 1A  .........y......
0610: F0 0E 01 29 08 1A F0 0E  01 09 2B 1A F0 0E 01 23  ...)......+....#
0620: 80 23 29 08 1A F0 0E 01  0A 52 07 80 F8 FF FF 7F  .#)......R......
0630: F8 FF FF 7F 73 30 34 30  45 07 80 F8 FF FF 7F F8  ....s040E.......
0640: FF FF 7F 73 30 34 33 00  80 4A 1C F0 0E 01 1A F0  ...s043..J......
0650: 0E 01 4A 89 F0 0E 01 1A  F0 0E 01 27 0B 1A F0 0E  ..J........'....
0660: 01 8E 2B 1A F0 0E 01 24  80 23 2A 0B 1A F0 0E 01  ..+....$.#*.....
0670: 6F 76 1C F0 0E 01 6F 76  89 F0 0E 01 7B 1A F0 0E  ov....ov....{...
0680: 01 29 08 1A F0 0E 01 29  2B 1A F0 0E 01 25 80 23  .).....)+....%.#
0690: 6F 76 1C F0 0E 01 29 08  1C F0 0E 01 1D 2B 1C F0  ov....)......+..
06A0: 0E 01 26 80 23 29 08 1C  F0 0E 01 1E 52 07 80 F8  ..&.#)......R...
06B0: FF FF 7F F8 FF FF 7F 73  30 34 33 45 07 80 F8 FF  .......s043E....
06C0: FF 7F F8 FF FF 7F 73 30  34 34 00 80 29 0B 1A F0  ......s044..)...
06D0: 0E 01 8F 7B 1C F0 0E 01  4B 1C F0 0E 01 27 80 6F  ...{....K....'.o
06E0: 76 1C F0 0E 01 4A 89 F0  0E 01 1C F0 0E 01 2B 1C  v....J........+.
06F0: F0 0E 01 28 80 23 7B A1  F0 0E 01 7B 9F F0 0E 01  ...(.#{....{....
0700: 7B A0 F0 0E 01 4B A0 F0  0E 01 29 80 4B A1 F0 0E  {....K....).K...
0710: 01 2A 80 4B 9F F0 0E 01  2B 80 29 08 1C F0 0E 01  .*.K....+.).....
0720: 09 2B 1C F0 0E 01 2C 80  23 29 08 1C F0 0E 01 0A  .+....,.#)......
0730: 29 08 1A F0 0E 01 2A 6F  76 9F F0 0E 01 6F 76 A0  ).....*ov....ov.
0740: F0 0E 01 6F 76 A1 F0 0E  01 52 07 80 F8 FF FF 7F  ...ov....R......
0750: F8 FF FF 7F 73 30 34 34  45 07 80 F8 FF FF 7F F8  ....s044E.......
0760: FF FF 7F 73 30 33 39 00  80 79 00 1C F0 0E 01 89  ...s039..y......
0770: F0 0E 01 27 0B 89 F0 0E  01 32 2B 89 F0 0E 01 2D  ...'.....2+....-
0780: 80 23 2A 0B 89 F0 0E 01  4A 89 F0 0E 01 1C F0 0E  .#*.....J.......
0790: 01 27 08 1C F0 0E 01 2F  2B 1C F0 0E 01 2E 80 23  .'...../+......#
07A0: 2A 08 1C F0 0E 01 6F 76  89 F0 0E 01 52 07 80 F8  *.....ov....R...
07B0: FF FF 7F F8 FF FF 7F 73  30 33 39 45 07 80 F8 FF  .......s039E....
07C0: FF 7F F8 FF FF 7F 73 30  34 35 00 80 29 08 89 F0  ......s045..)...
07D0: 0E 01 03 2B 89 F0 0E 01  2F 80 23 29 08 89 F0 0E  ...+..../.#)....
07E0: 01 04 4A 1A F0 0E 01 1C  F0 0E 01 29 08 89 F0 0E  ..J........)....
07F0: 01 05 2B 89 F0 0E 01 30  80 23 29 08 89 F0 0E 01  ..+....0.#).....
0800: 06 6F 76 1A F0 0E 01 29  08 1C F0 0E 01 01 2B 1C  .ov....)......+.
0810: F0 0E 01 31 80 23 29 08  1C F0 0E 01 02 52 07 80  ...1.#)......R..
0820: F8 FF FF 7F F8 FF FF 7F  73 30 34 35 45 07 80 F8  ........s045E...
0830: FF FF 7F F8 FF FF 7F 73  30 34 36 00 80 79 00 1C  .......s046..y..
0840: F0 0E 01 1A F0 0E 01 27  0B 1A F0 0E 01 90 2B 1A  .......'......+.
0850: F0 0E 01 32 80 23 2A 0B  1A F0 0E 01 29 08 1C F0  ...2.#*.....)...
0860: 0E 01 07 29 08 1C F0 0E  01 08 1C 33 80 29 08 1C  ...).......3.)..
0870: F0 0E 01 2C 2B 1C F0 0E  01 34 80 23 29 08 1C F0  ...,+....4.#)...
0880: 0E 01 2D 52 07 80 F8 FF  FF 7F F8 FF FF 7F 73 30  ..-R..........s0
0890: 34 36 45 07 80 F8 FF FF  7F F8 FF FF 7F 73 30 34  46E..........s04
08A0: 37 00 80 4E 01 89 F0 0E  01 4A 1A F0 0E 01 9F F0  7..N.....J......
08B0: 0E 01 29 08 1C F0 0E 01  34 4A 1C F0 0E 01 9F F0  ..).....4J......
08C0: 0E 01 2B 1C F0 0E 01 35  80 23 6F 76 1C F0 0E 01  ..+....5.#ov....
08D0: 4B 9F F0 0E 01 36 80 79  00 A0 F0 0E 01 1C F0 0E  K....6.y........
08E0: 01 79 00 A1 F0 0E 01 1C  F0 0E 01 29 08 1C F0 0E  .y.........)....
08F0: 01 1D 2B 1C F0 0E 01 37  80 23 29 08 1C F0 0E 01  ..+....7.#).....
0900: 1E 4E 00 89 F0 0E 01 80  89 F0 0E 01 52 07 80 F8  .N..........R...
0910: FF FF 7F F8 FF FF 7F 73  30 34 37 45 02 80 F0 FF  .......s047E....
0920: FF 7F F0 FF FF 7F 6F 76  6C 31 00 80 45 07 80 F8  ......ovl1..E...
0930: FF FF 7F F8 FF FF 7F 73  30 33 37 00 80 4A 89 F0  .......s037..J..
0940: 0E 01 9F F0 0E 01 4A F0  FF FF 7F 9F F0 0E 01 1C  ......J.........
0950: 38 80 29 08 A1 F0 0E 01  25 2B A1 F0 0E 01 39 80  8.).....%+....9.
0960: 23 29 08 A0 F0 0E 01 2D  2B A0 F0 0E 01 3A 80 23  #).....-+....:.#
0970: 6F 76 9F F0 0E 01 29 08  9F F0 0E 01 2D 2B 9F F0  ov....).....-+..
0980: 0E 01 3B 80 23 6F 76 89  F0 0E 01 6F 76 F0 FF FF  ..;.#ov....ov...
0990: 7F 4E 01 1A F0 0E 01 1C  0B 80 52 07 80 F8 FF FF  .N........R.....
09A0: 7F F8 FF FF 7F 73 30 33  37 45 07 80 F8 FF FF 7F  .....s037E......
09B0: F8 FF FF 7F 73 30 34 38  00 80 29 08 1C F0 0E 01  ....s048..).....
09C0: 1D 2B 1C F0 0E 01 3C 80  23 29 08 1C F0 0E 01 1E  .+....<.#)......
09D0: 45 02 80 F0 FF FF 7F F0  FF FF 7F 66 64 6F 31 00  E..........fdo1.
09E0: 80 1C 03 80 52 07 80 F8  FF FF 7F F8 FF FF 7F 73  ....R..........s
09F0: 30 34 38 4E 00 1A F0 0E  01 45 07 80 F8 FF FF 7F  048N.....E......
0A00: F8 FF FF 7F 73 31 30 34  00 80 45 02 80 F0 FF FF  ....s104..E.....
0A10: 7F F0 FF FF 7F 66 64 69  31 00 80 29 0D 73 F0 0E  .....fdi1..).s..
0A20: 01 02 1C 38 80 27 0B 9F  F0 0E 01 4B 27 0B A1 F0  ...8.'.....K'...
0A30: 0E 01 4C 27 0B A0 F0 0E  01 4B 27 0B 1A F0 0E 01  ..L'.....K'.....
0A40: 91 27 0B 89 F0 0E 01 33  2B 9F F0 0E 01 3D 80 23  .'.....3+....=.#
0A50: 1C 3E 80 2B A0 F0 0E 01  3F 80 23 1C 3E 80 2B A1  .>.+....?.#.>.+.
0A60: F0 0E 01 40 80 23 1C 3E  80 45 02 80 F0 FF FF 7F  ...@.#.>.E......
0A70: F0 FF FF 7F 66 64 6F 31  00 80 1C 07 80 52 07 80  ....fdo1.....R..
0A80: F8 FF FF 7F F8 FF FF 7F  73 31 30 34 2A 0B 9F F0  ........s104*...
0A90: 0E 01 2A 0B A1 F0 0E 01  2A 0B A0 F0 0E 01 4E 01  ..*.....*.....N.
0AA0: 1A F0 0E 01 4E 01 89 F0  0E 01 4E 01 9F F0 0E 01  ....N.....N.....
0AB0: 4E 01 A0 F0 0E 01 4E 01  A1 F0 0E 01 29 0D 73 F0  N.....N.....).s.
0AC0: 0E 01 03 29 0B F0 FF FF  7F 6C 29 0B 1C F0 0E 01  ...).....l).....
0AD0: 69 4A F0 FF FF 7F 1C F0  0E 01 6F 76 F0 FF FF 7F  iJ........ov....
0AE0: 29 08 1C F0 0E 01 25 45  07 80 F8 FF FF 7F F8 FF  ).....%E........
0AF0: FF 7F 73 31 30 30 00 80  45 02 80 F8 FF FF 7F F8  ..s100..E.......
0B00: FF FF 7F 66 64 69 31 00  80 1C 01 80 2B 1C F0 0E  ...fdi1.....+...
0B10: 01 41 80 23 1C 02 80 29  08 1C F0 0E 01 26 29 08  .A.#...).....&).
0B20: 1C F0 0E 01 27 29 08 1C  F0 0E 01 28 52 07 80 F8  ....').....(R...
0B30: FF FF 7F F8 FF FF 7F 73  31 30 30 45 07 80 F8 FF  .......s100E....
0B40: FF 7F F8 FF FF 7F 73 31  30 31 00 80 29 08 1C F0  ......s101..)...
0B50: 0E 01 2C 2B 1C F0 0E 01  42 80 23 2B 1C F0 0E 01  ..,+....B.#+....
0B60: 43 80 23 29 08 1C F0 0E  01 2D 52 07 80 F8 FF FF  C.#).....-R.....
0B70: 7F F8 FF FF 7F 73 31 30  31 02 09 10 06 80 00 95  .....s101.......
0B80: 0B 45 07 80 F8 FF FF 7F  F8 FF FF 7F 73 31 30 36  .E..........s106
0B90: 00 80 01 C2 0B 02 09 10  08 80 00 B1 0B 45 07 80  .............E..
0BA0: F8 FF FF 7F F8 FF FF 7F  73 31 30 36 00 80 01 C2  ........s106....
0BB0: 0B 45 07 80 F8 FF FF 7F  F8 FF FF 7F 73 31 30 32  .E..........s102
0BC0: 00 80 29 08 1C F0 0E 01  34 1C 0D 80 4A 1C F0 0E  ..).....4...J...
0BD0: 01 F0 FF FF 7F 6F 76 1C  F0 0E 01 29 08 1C F0 0E  .....ov....)....
0BE0: 01 07 2B 1C F0 0E 01 44  80 23 29 08 1C F0 0E 01  ..+....D.#).....
0BF0: 08 29 08 1C F0 0E 01 1D  2B 1C F0 0E 01 45 80 23  .)......+....E.#
0C00: 29 08 1C F0 0E 01 1E 02  09 10 06 80 00 21 0C 52  )............!.R
0C10: 07 80 F8 FF FF 7F F8 FF  FF 7F 73 31 30 36 01 4A  ..........s106.J
0C20: 0C 02 09 10 08 80 00 3B  0C 52 07 80 F8 FF FF 7F  .......;.R......
0C30: F8 FF FF 7F 73 31 30 36  01 4A 0C 52 07 80 F8 FF  ....s106.J.R....
0C40: FF 7F F8 FF FF 7F 73 31  30 32 45 07 80 F8 FF FF  ......s102E.....
0C50: 7F F8 FF FF 7F 73 31 30  33 00 80 29 08 1C F0 0E  .....s103..)....
0C60: 01 03 2B 1C F0 0E 01 46  80 23 29 08 1C F0 0E 01  ..+....F.#).....
0C70: 04 29 08 1C F0 0E 01 05  2B 1C F0 0E 01 47 80 23  .)......+....G.#
0C80: 29 08 1C F0 0E 01 06 5D  00 80 07 80 45 02 80 F0  )......]....E...
0C90: FF FF 7F F0 FF FF 7F 66  64 6F 31 00 80 1C 03 80  .......fdo1.....
0CA0: 52 07 80 F8 FF FF 7F F8  FF FF 7F 73 31 30 33 29  R..........s103)
0CB0: 08 89 F0 0E 01 1A 5C 00  48 80 5C 01 48 80 1C 01  ......\.H.\.H...
0CC0: 80 4E 00 F0 FF FF 7F 80  F0 FF FF 7F 46 00 45 02  .N..........F.E.
0CD0: 80 F0 FF FF 7F F0 FF FF  7F 66 64 69 31 00 80 20  .........fdi1.. 
0CE0: 00 21 00                                          .!.             
```

#### Opcodes

```
  0: 0x0001 [0x20] SET_CLI_EVENT_UC_FLAG: Lock player control
  1: 0x0003 [0x42] SET_CLI_EVENT_CANCEL_DATA()
  2: 0x0004 [0x46] CAMERA_CONTROL: Disable user control
  3: 0x0006 [0x5D] SET_MUSIC_VOLUME(volume=0*, fade_time=100*)
  4: 0x000B [0x45] LOAD_SCHEDULED_TASK: Load scheduler "fdo1" with entities [EventEntity, EventEntity], work=[200*, 0*]
  5: 0x001C [0x1C] WAIT(60* ticks)
  6: 0x001F [0x38] SET_CLIENT_EVENT_MODE(mode=19*)
  7: 0x0022 [0x29] REQ_SET_WAIT(priority=0x08, entity_id=LocalPlayer, tag_num=0x05)
  8: 0x0029 [0x29] REQ_SET_WAIT(priority=0x0B, entity_id=Makki-Chebukki (ID: 17756319/0x010EF09F), tag_num=0x48)
  9: 0x0030 [0x29] REQ_SET_WAIT(priority=0x0B, entity_id=Kukki-Chebukki (ID: 17756320/0x010EF0A0), tag_num=0x48)
 10: 0x0037 [0x29] REQ_SET_WAIT(priority=0x0B, entity_id=Cherukiki (ID: 17756321/0x010EF0A1), tag_num=0x49)
 11: 0x003E [0x29] REQ_SET_WAIT(priority=0x0B, entity_id=LocalPlayer, tag_num=0x69)
 12: 0x0045 [0x29] REQ_SET_WAIT(priority=0x0B, entity_id=Koru-Moru (ID: 17756297/0x010EF089), tag_num=0x2F)
 13: 0x004C [0x29] REQ_SET_WAIT(priority=0x0B, entity_id=Shantotto (ID: 17756186/0x010EF01A), tag_num=0x8C)
 14: 0x0053 [0x29] REQ_SET_WAIT(priority=0x0B, entity_id=Yoran-Oran (ID: 17756188/0x010EF01C), tag_num=0x63)
 15: 0x005A [0x1C] WAIT(60* ticks)
 16: 0x005D [0x75] LOAD_ROOM(Load indoor room, room=402*)
 17: 0x0061 [0x75] LOAD_ROOM(No action)
 18: 0x0063 [0x1C] WAIT(60* ticks)
 19: 0x0066 [0x4E] SET_ENTITY_HIDE_FLAG: Hide Shantotto (ID: 17756186/0x010EF01A)
 20: 0x006C [0x4E] SET_ENTITY_HIDE_FLAG: Hide Koru-Moru (ID: 17756297/0x010EF089)
 21: 0x0072 [0x4E] SET_ENTITY_HIDE_FLAG: Show Makki-Chebukki (ID: 17756319/0x010EF09F)
 22: 0x0078 [0x4E] SET_ENTITY_HIDE_FLAG: Show Kukki-Chebukki (ID: 17756320/0x010EF0A0)
 23: 0x007E [0x4E] SET_ENTITY_HIDE_FLAG: Show Cherukiki (ID: 17756321/0x010EF0A1)
 24: 0x0084 [0x80] LOAD_WAIT(entity=Makki-Chebukki (ID: 17756319/0x010EF09F))
 25: 0x0089 [0x80] LOAD_WAIT(entity=Kukki-Chebukki (ID: 17756320/0x010EF0A0))
 26: 0x008E [0x80] LOAD_WAIT(entity=Cherukiki (ID: 17756321/0x010EF0A1))
 27: 0x0093 [0x4A] Yoran-Oran (ID: 17756188/0x010EF01C) looks at LocalPlayer
 28: 0x009C [0x6F] WAIT_FRAME_DELAY: Yield until WaitTime reaches zero
 29: 0x009D [0x76] CHECK_ENTITY_RENDER_FLAGS: Wait until Yoran-Oran (ID: 17756188/0x010EF01C) Render.Flags0 and Render.Flags3 conditions are met
 30: 0x00A2 [0x02] IF !(Work_Zone[9] == 5*) GOTO 0x00BE
 31: 0x00AA [0x45] LOAD_SCHEDULED_TASK: Load scheduler "s105" with entities [EventEntity, EventEntity], work=[120*, 0*]
 32: 0x00BB [0x01] GOTO 0x00EB
 33: 0x00BE [0x02] IF !(Work_Zone[9] == 6*) GOTO 0x00DA
 34: 0x00C6 [0x45] LOAD_SCHEDULED_TASK: Load scheduler "s105" with entities [EventEntity, EventEntity], work=[120*, 0*]
 35: 0x00D7 [0x01] GOTO 0x00EB
 36: 0x00DA [0x45] LOAD_SCHEDULED_TASK: Load scheduler "s035" with entities [EventEntity, EventEntity], work=[120*, 0*]

SUBROUTINE_00EB:
 37: 0x00EB [0x45] LOAD_SCHEDULED_TASK: Load scheduler "fdi1" with entities [EventEntity, EventEntity], work=[200*, 0*]
 38: 0x00FC [0x2B] Yoran-Oran (ID: 17756188/0x010EF01C) [9391*]:
    → "Can I help-ethy you? I am Yoran-Oran, former Minister of the Rhinostery..."
 39: 0x0103 [0x23] WAIT_FOR_DIALOG_INTERACTION
 40: 0x0104 [0x27] REQ_SET(priority=0x0D, entity_id=Door:Yoran-Oran's Manor (ID: 17756275/0x010EF073), tag_num=0x04)
 41: 0x010B [0x79] Yoran-Oran (ID: 17756188/0x010EF01C) looks at Makki-Chebukki (ID: 17756319/0x010EF09F) (Basic look)
 42: 0x0115 [0x5C] MUSIC_CONTROL: Set Idle (Day) music to song 163*
 43: 0x0119 [0x5C] MUSIC_CONTROL: Set Idle (Night) music to song 163*
 44: 0x011D [0x27] REQ_SET(priority=0x0B, entity_id=Makki-Chebukki (ID: 17756319/0x010EF09F), tag_num=0x49)
 45: 0x0124 [0x27] REQ_SET(priority=0x0B, entity_id=Kukki-Chebukki (ID: 17756320/0x010EF0A0), tag_num=0x49)
 46: 0x012B [0x27] REQ_SET(priority=0x0B, entity_id=Cherukiki (ID: 17756321/0x010EF0A1), tag_num=0x4A)
 47: 0x0132 [0x1C] WAIT(20* ticks)
 48: 0x0135 [0x4A] LocalPlayer looks at Makki-Chebukki (ID: 17756319/0x010EF09F)
 49: 0x013E [0x02] IF !(Work_Zone[9] == 5*) GOTO 0x0158
 50: 0x0146 [0x52] END_LOAD_SCHEDULER: End scheduler "s105" with entities [EventEntity, EventEntity], work=120*
 51: 0x0155 [0x01] GOTO 0x0181
 52: 0x0158 [0x02] IF !(Work_Zone[9] == 6*) GOTO 0x0172
 53: 0x0160 [0x52] END_LOAD_SCHEDULER: End scheduler "s105" with entities [EventEntity, EventEntity], work=120*
 54: 0x016F [0x01] GOTO 0x0181
 55: 0x0172 [0x52] END_LOAD_SCHEDULER: End scheduler "s035" with entities [EventEntity, EventEntity], work=120*

SUBROUTINE_0181:
 56: 0x0181 [0x45] LOAD_SCHEDULED_TASK: Load scheduler "s034" with entities [EventEntity, EventEntity], work=[120*, 0*]
 57: 0x0192 [0x2B] Cherukiki (ID: 17756321/0x010EF0A1) [9392*]:
    → "Father!"
 58: 0x0199 [0x23] WAIT_FOR_DIALOG_INTERACTION
 59: 0x019A [0x1C] WAIT(50* ticks)
 60: 0x019D [0x1C] WAIT(50* ticks)
 61: 0x01A0 [0x2B] Kukki-Chebukki (ID: 17756320/0x010EF0A0) [9393*]:
    → "Dad, we missed you!"
 62: 0x01A7 [0x23] WAIT_FOR_DIALOG_INTERACTION
 63: 0x01A8 [0x2A] GET_REQ_LEVEL(level=11, entity_id=Makki-Chebukki (ID: 17756319/0x010EF09F))
 64: 0x01AE [0x2A] GET_REQ_LEVEL(level=11, entity_id=Kukki-Chebukki (ID: 17756320/0x010EF0A0))
 65: 0x01B4 [0x2A] GET_REQ_LEVEL(level=11, entity_id=Cherukiki (ID: 17756321/0x010EF0A1))
 66: 0x01BA [0x1C] WAIT(10* ticks)
 67: 0x01BD [0x29] REQ_SET_WAIT(priority=0x08, entity_id=Makki-Chebukki (ID: 17756319/0x010EF09F), tag_num=0x08)
 68: 0x01C4 [0x29] REQ_SET_WAIT(priority=0x08, entity_id=Kukki-Chebukki (ID: 17756320/0x010EF0A0), tag_num=0x08)
 69: 0x01CB [0x29] REQ_SET_WAIT(priority=0x08, entity_id=Cherukiki (ID: 17756321/0x010EF0A1), tag_num=0x0C)
 70: 0x01D2 [0x2B] Makki-Chebukki (ID: 17756319/0x010EF09F) [9394*]:
    → "Daddy, your beautiful children are here!"
 71: 0x01D9 [0x23] WAIT_FOR_DIALOG_INTERACTION
 72: 0x01DA [0x2A] GET_REQ_LEVEL(level=13, entity_id=Door:Yoran-Oran's Manor (ID: 17756275/0x010EF073))
 73: 0x01E0 [0x45] LOAD_SCHEDULED_TASK: Load scheduler "fdo1" with entities [EventEntity, EventEntity], work=[200*, 0*]
 74: 0x01F1 [0x1C] WAIT(60* ticks)
 75: 0x01F4 [0x52] END_LOAD_SCHEDULER: End scheduler "s034" with entities [EventEntity, EventEntity], work=120*
 76: 0x0203 [0x6F] WAIT_FRAME_DELAY: Yield until WaitTime reaches zero
 77: 0x0204 [0x76] CHECK_ENTITY_RENDER_FLAGS: Wait until LocalPlayer Render.Flags0 and Render.Flags3 conditions are met
 78: 0x0209 [0x29] REQ_SET_WAIT(priority=0x0B, entity_id=Yoran-Oran (ID: 17756188/0x010EF01C), tag_num=0x64)
 79: 0x0210 [0x29] REQ_SET_WAIT(priority=0x0B, entity_id=LocalPlayer, tag_num=0x6A)
 80: 0x0217 [0x29] REQ_SET_WAIT(priority=0x08, entity_id=Makki-Chebukki (ID: 17756319/0x010EF09F), tag_num=0x46)
 81: 0x021E [0x29] REQ_SET_WAIT(priority=0x08, entity_id=Kukki-Chebukki (ID: 17756320/0x010EF0A0), tag_num=0x46)
 82: 0x0225 [0x29] REQ_SET_WAIT(priority=0x08, entity_id=Cherukiki (ID: 17756321/0x010EF0A1), tag_num=0x47)
 83: 0x022C [0x29] REQ_SET_WAIT(priority=0x0B, entity_id=Cherukiki (ID: 17756321/0x010EF0A1), tag_num=0x4B)
 84: 0x0233 [0x29] REQ_SET_WAIT(priority=0x0B, entity_id=Kukki-Chebukki (ID: 17756320/0x010EF0A0), tag_num=0x4A)
 85: 0x023A [0x29] REQ_SET_WAIT(priority=0x0B, entity_id=Makki-Chebukki (ID: 17756319/0x010EF09F), tag_num=0x4A)
 86: 0x0241 [0x4A] Makki-Chebukki (ID: 17756319/0x010EF09F) looks at Yoran-Oran (ID: 17756188/0x010EF01C)
 87: 0x024A [0x4A] Kukki-Chebukki (ID: 17756320/0x010EF0A0) looks at Yoran-Oran (ID: 17756188/0x010EF01C)
 88: 0x0253 [0x4A] Cherukiki (ID: 17756321/0x010EF0A1) looks at Yoran-Oran (ID: 17756188/0x010EF01C)
 89: 0x025C [0x6F] WAIT_FRAME_DELAY: Yield until WaitTime reaches zero
 90: 0x025D [0x76] CHECK_ENTITY_RENDER_FLAGS: Wait until Makki-Chebukki (ID: 17756319/0x010EF09F) Render.Flags0 and Render.Flags3 conditions are met
 91: 0x0262 [0x6F] WAIT_FRAME_DELAY: Yield until WaitTime reaches zero
 92: 0x0263 [0x76] CHECK_ENTITY_RENDER_FLAGS: Wait until Kukki-Chebukki (ID: 17756320/0x010EF0A0) Render.Flags0 and Render.Flags3 conditions are met
 93: 0x0268 [0x6F] WAIT_FRAME_DELAY: Yield until WaitTime reaches zero
 94: 0x0269 [0x76] CHECK_ENTITY_RENDER_FLAGS: Wait until Cherukiki (ID: 17756321/0x010EF0A1) Render.Flags0 and Render.Flags3 conditions are met
 95: 0x026E [0x45] LOAD_SCHEDULED_TASK: Load scheduler "s036" with entities [EventEntity, EventEntity], work=[120*, 0*]
 96: 0x027F [0x45] LOAD_SCHEDULED_TASK: Load scheduler "fdi1" with entities [EventEntity, EventEntity], work=[200*, 0*]
 97: 0x0290 [0x29] REQ_SET_WAIT(priority=0x0B, entity_id=Yoran-Oran (ID: 17756188/0x010EF01C), tag_num=0x65)
 98: 0x0297 [0x4A] Yoran-Oran (ID: 17756188/0x010EF01C) looks at Makki-Chebukki (ID: 17756319/0x010EF09F)
 99: 0x02A0 [0x6F] WAIT_FRAME_DELAY: Yield until WaitTime reaches zero
100: 0x02A1 [0x76] CHECK_ENTITY_RENDER_FLAGS: Wait until Yoran-Oran (ID: 17756188/0x010EF01C) Render.Flags0 and Render.Flags3 conditions are met
101: 0x02A6 [0x29] REQ_SET_WAIT(priority=0x08, entity_id=Yoran-Oran (ID: 17756188/0x010EF01C), tag_num=0x1D)
102: 0x02AD [0x2B] Yoran-Oran (ID: 17756188/0x010EF01C) [9395*]:
    → "Wh-wh-what...what-ethy?"
103: 0x02B4 [0x23] WAIT_FOR_DIALOG_INTERACTION
104: 0x02B5 [0x29] REQ_SET_WAIT(priority=0x08, entity_id=Yoran-Oran (ID: 17756188/0x010EF01C), tag_num=0x1E)
105: 0x02BC [0x29] REQ_SET_WAIT(priority=0x08, entity_id=Yoran-Oran (ID: 17756188/0x010EF01C), tag_num=0x0B)
106: 0x02C3 [0x2B] Yoran-Oran (ID: 17756188/0x010EF01C) [9396*]:
    → "What is the meaning of this barging-ethy into people's homes? And why are you calling-ethy me "Daddy"?"
107: 0x02CA [0x23] WAIT_FOR_DIALOG_INTERACTION
108: 0x02CB [0x29] REQ_SET_WAIT(priority=0x08, entity_id=Yoran-Oran (ID: 17756188/0x010EF01C), tag_num=0x0C)
109: 0x02D2 [0x52] END_LOAD_SCHEDULER: End scheduler "s036" with entities [EventEntity, EventEntity], work=120*
110: 0x02E1 [0x45] LOAD_SCHEDULED_TASK: Load scheduler "s037" with entities [EventEntity, EventEntity], work=[120*, 0*]
111: 0x02F2 [0x29] REQ_SET_WAIT(priority=0x08, entity_id=Makki-Chebukki (ID: 17756319/0x010EF09F), tag_num=0x01)
112: 0x02F9 [0x2B] Makki-Chebukki (ID: 17756319/0x010EF09F) [9397*]:
    → "You probably didn't know it, Father, but we were in Mother's tummy when you were separated."
113: 0x0300 [0x23] WAIT_FOR_DIALOG_INTERACTION
114: 0x0301 [0x29] REQ_SET_WAIT(priority=0x08, entity_id=Makki-Chebukki (ID: 17756319/0x010EF09F), tag_num=0x02)
115: 0x0308 [0x29] REQ_SET_WAIT(priority=0x08, entity_id=Cherukiki (ID: 17756321/0x010EF0A1), tag_num=0x01)
116: 0x030F [0x2B] Cherukiki (ID: 17756321/0x010EF0A1) [9398*]:
    → "In Mommy's tummy!"
117: 0x0316 [0x23] WAIT_FOR_DIALOG_INTERACTION
118: 0x0317 [0x29] REQ_SET_WAIT(priority=0x08, entity_id=Cherukiki (ID: 17756321/0x010EF0A1), tag_num=0x02)
119: 0x031E [0x29] REQ_SET_WAIT(priority=0x08, entity_id=Kukki-Chebukki (ID: 17756320/0x010EF0A0), tag_num=0x01)
120: 0x0325 [0x2B] Kukki-Chebukki (ID: 17756320/0x010EF0A0) [9399*]:
    → "And that's why we've been looking for you all this time!"
121: 0x032C [0x23] WAIT_FOR_DIALOG_INTERACTION
122: 0x032D [0x29] REQ_SET_WAIT(priority=0x08, entity_id=Kukki-Chebukki (ID: 17756320/0x010EF0A0), tag_num=0x02)
123: 0x0334 [0x29] REQ_SET_WAIT(priority=0x08, entity_id=Cherukiki (ID: 17756321/0x010EF0A1), tag_num=0x01)
124: 0x033B [0x2B] Cherukiki (ID: 17756321/0x010EF0A1) [9400*]:
    → "Looking for you, Daddy!"
125: 0x0342 [0x23] WAIT_FOR_DIALOG_INTERACTION
126: 0x0343 [0x29] REQ_SET_WAIT(priority=0x08, entity_id=Cherukiki (ID: 17756321/0x010EF0A1), tag_num=0x02)
127: 0x034A [0x52] END_LOAD_SCHEDULER: End scheduler "s037" with entities [EventEntity, EventEntity], work=120*
128: 0x0359 [0x45] LOAD_SCHEDULED_TASK: Load scheduler "s038" with entities [EventEntity, EventEntity], work=[120*, 0*]
129: 0x036A [0x27] REQ_SET(priority=0x0D, entity_id=Door:Yoran-Oran's Manor (ID: 17756275/0x010EF073), tag_num=0x04)
130: 0x0371 [0x4E] SET_ENTITY_HIDE_FLAG: Show Shantotto (ID: 17756186/0x010EF01A)
131: 0x0377 [0x4E] SET_ENTITY_HIDE_FLAG: Show Koru-Moru (ID: 17756297/0x010EF089)
132: 0x037D [0x80] LOAD_WAIT(entity=Shantotto (ID: 17756186/0x010EF01A))
133: 0x0382 [0x80] LOAD_WAIT(entity=Koru-Moru (ID: 17756297/0x010EF089))
134: 0x0387 [0x79] Shantotto (ID: 17756186/0x010EF01A) looks at Yoran-Oran (ID: 17756188/0x010EF01C) (Basic look)
135: 0x0391 [0x79] Koru-Moru (ID: 17756297/0x010EF089) looks at Yoran-Oran (ID: 17756188/0x010EF01C) (Basic look)
136: 0x039B [0x27] REQ_SET(priority=0x0B, entity_id=Shantotto (ID: 17756186/0x010EF01A), tag_num=0x8D)
137: 0x03A2 [0x27] REQ_SET(priority=0x0B, entity_id=Koru-Moru (ID: 17756297/0x010EF089), tag_num=0x30)
138: 0x03A9 [0x4A] Yoran-Oran (ID: 17756188/0x010EF01C) looks at Shantotto (ID: 17756186/0x010EF01A)
139: 0x03B2 [0x4A] LocalPlayer looks at Shantotto (ID: 17756186/0x010EF01A)
140: 0x03BB [0x79] Makki-Chebukki (ID: 17756319/0x010EF09F) looks at Shantotto (ID: 17756186/0x010EF01A) (Basic look)
141: 0x03C5 [0x79] Kukki-Chebukki (ID: 17756320/0x010EF0A0) looks at Shantotto (ID: 17756186/0x010EF01A) (Basic look)
142: 0x03CF [0x79] Cherukiki (ID: 17756321/0x010EF0A1) looks at Shantotto (ID: 17756186/0x010EF01A) (Basic look)
143: 0x03D9 [0x2B] Koru-Moru (ID: 17756297/0x010EF089) [9401*]:
    → "Why, Doctor-doodly Yoran-Oran! Who would've thought you'd have such cute-tootlin' kiddly-winks!?"
144: 0x03E0 [0x23] WAIT_FOR_DIALOG_INTERACTION
145: 0x03E1 [0x2B] Shantotto (ID: 17756186/0x010EF01A) [9402*]:
    → "So many children, you devious creature! We must have the Tarutaru Times write up a feature!"
146: 0x03E8 [0x23] WAIT_FOR_DIALOG_INTERACTION
147: 0x03E9 [0x2A] GET_REQ_LEVEL(level=13, entity_id=Door:Yoran-Oran's Manor (ID: 17756275/0x010EF073))
148: 0x03EF [0x29] REQ_SET_WAIT(priority=0x0B, entity_id=Yoran-Oran (ID: 17756188/0x010EF01C), tag_num=0x66)
149: 0x03F6 [0x29] REQ_SET_WAIT(priority=0x08, entity_id=Yoran-Oran (ID: 17756188/0x010EF01C), tag_num=0x1D)
150: 0x03FD [0x2B] Yoran-Oran (ID: 17756188/0x010EF01C) [9403*]:
    → "I have-ethy no idea what's going on here! There must-ethy be some sort of mistake!"
151: 0x0404 [0x23] WAIT_FOR_DIALOG_INTERACTION
152: 0x0405 [0x29] REQ_SET_WAIT(priority=0x08, entity_id=Yoran-Oran (ID: 17756188/0x010EF01C), tag_num=0x1E)
153: 0x040C [0x2A] GET_REQ_LEVEL(level=11, entity_id=Shantotto (ID: 17756186/0x010EF01A))
154: 0x0412 [0x2A] GET_REQ_LEVEL(level=11, entity_id=Koru-Moru (ID: 17756297/0x010EF089))
155: 0x0418 [0x29] REQ_SET_WAIT(priority=0x08, entity_id=Shantotto (ID: 17756186/0x010EF01A), tag_num=0x29)
156: 0x041F [0x2B] Shantotto (ID: 17756186/0x010EF01A) [9404*]:
    → "Ohoho! You men are all the same. Not one of you ever wants to take the blame!"
157: 0x0426 [0x23] WAIT_FOR_DIALOG_INTERACTION
158: 0x0427 [0x29] REQ_SET_WAIT(priority=0x08, entity_id=Yoran-Oran (ID: 17756188/0x010EF01C), tag_num=0x07)
159: 0x042E [0x29] REQ_SET_WAIT(priority=0x08, entity_id=Yoran-Oran (ID: 17756188/0x010EF01C), tag_num=0x08)
160: 0x0435 [0x45] LOAD_SCHEDULED_TASK: Load scheduler "fdo1" with entities [EventEntity, EventEntity], work=[200*, 0*]
161: 0x0446 [0x1C] WAIT(120* ticks)
162: 0x0449 [0x52] END_LOAD_SCHEDULER: End scheduler "s038" with entities [EventEntity, EventEntity], work=120*
163: 0x0458 [0x29] REQ_SET_WAIT(priority=0x08, entity_id=Shantotto (ID: 17756186/0x010EF01A), tag_num=0x2A)
164: 0x045F [0x29] REQ_SET_WAIT(priority=0x0B, entity_id=Yoran-Oran (ID: 17756188/0x010EF01C), tag_num=0x67)
165: 0x0466 [0x29] REQ_SET_WAIT(priority=0x08, entity_id=Yoran-Oran (ID: 17756188/0x010EF01C), tag_num=0x03)
166: 0x046D [0x29] REQ_SET_WAIT(priority=0x08, entity_id=Yoran-Oran (ID: 17756188/0x010EF01C), tag_num=0x04)
167: 0x0474 [0x29] REQ_SET_WAIT(priority=0x0B, entity_id=LocalPlayer, tag_num=0x6B)
168: 0x047B [0x29] REQ_SET_WAIT(priority=0x0B, entity_id=Koru-Moru (ID: 17756297/0x010EF089), tag_num=0x31)
169: 0x0482 [0x7B] Yoran-Oran (ID: 17756188/0x010EF01C) stops talking
170: 0x0487 [0x4A] Shantotto (ID: 17756186/0x010EF01A) looks at Yoran-Oran (ID: 17756188/0x010EF01C)
171: 0x0490 [0x4A] Koru-Moru (ID: 17756297/0x010EF089) looks at Yoran-Oran (ID: 17756188/0x010EF01C)
172: 0x0499 [0x79] Makki-Chebukki (ID: 17756319/0x010EF09F) looks at Yoran-Oran (ID: 17756188/0x010EF01C) (Basic look)
173: 0x04A3 [0x79] Kukki-Chebukki (ID: 17756320/0x010EF0A0) looks at Yoran-Oran (ID: 17756188/0x010EF01C) (Basic look)
174: 0x04AD [0x79] Cherukiki (ID: 17756321/0x010EF0A1) looks at Yoran-Oran (ID: 17756188/0x010EF01C) (Basic look)
175: 0x04B7 [0x6F] WAIT_FRAME_DELAY: Yield until WaitTime reaches zero
176: 0x04B8 [0x76] CHECK_ENTITY_RENDER_FLAGS: Wait until Shantotto (ID: 17756186/0x010EF01A) Render.Flags0 and Render.Flags3 conditions are met
177: 0x04BD [0x6F] WAIT_FRAME_DELAY: Yield until WaitTime reaches zero
178: 0x04BE [0x76] CHECK_ENTITY_RENDER_FLAGS: Wait until Koru-Moru (ID: 17756297/0x010EF089) Render.Flags0 and Render.Flags3 conditions are met
179: 0x04C3 [0x45] LOAD_SCHEDULED_TASK: Load scheduler "s041" with entities [EventEntity, EventEntity], work=[120*, 0*]
180: 0x04D4 [0x45] LOAD_SCHEDULED_TASK: Load scheduler "fdi1" with entities [EventEntity, EventEntity], work=[200*, 0*]
181: 0x04E5 [0x2B] Yoran-Oran (ID: 17756188/0x010EF01C) [9405*]:
    → "I understand-ethy now. Yes, I did travel to Tavnazia once, many years ago."
182: 0x04EC [0x23] WAIT_FOR_DIALOG_INTERACTION
183: 0x04ED [0x52] END_LOAD_SCHEDULER: End scheduler "s041" with entities [EventEntity, EventEntity], work=120*
184: 0x04FC [0x45] LOAD_SCHEDULED_TASK: Load scheduler "s042" with entities [EventEntity, EventEntity], work=[120*, 0*]
185: 0x050D [0x29] REQ_SET_WAIT(priority=0x08, entity_id=Yoran-Oran (ID: 17756188/0x010EF01C), tag_num=0x05)
186: 0x0514 [0x29] REQ_SET_WAIT(priority=0x08, entity_id=Yoran-Oran (ID: 17756188/0x010EF01C), tag_num=0x06)
187: 0x051B [0x29] REQ_SET_WAIT(priority=0x0B, entity_id=Yoran-Oran (ID: 17756188/0x010EF01C), tag_num=0x68)
188: 0x0522 [0x1C] WAIT(10* ticks)
189: 0x0525 [0x29] REQ_SET_WAIT(priority=0x08, entity_id=Yoran-Oran (ID: 17756188/0x010EF01C), tag_num=0x1D)
190: 0x052C [0x2B] Yoran-Oran (ID: 17756188/0x010EF01C) [9406*]:
    → "But that was only for the purpose-ethy of appraising a rare discovery."
191: 0x0533 [0x23] WAIT_FOR_DIALOG_INTERACTION
192: 0x0534 [0x29] REQ_SET_WAIT(priority=0x08, entity_id=Yoran-Oran (ID: 17756188/0x010EF01C), tag_num=0x1E)
193: 0x053B [0x29] REQ_SET_WAIT(priority=0x08, entity_id=Yoran-Oran (ID: 17756188/0x010EF01C), tag_num=0x01)
194: 0x0542 [0x2B] Yoran-Oran (ID: 17756188/0x010EF01C) [9407*]:
    → "Pirates, thieves, and all kinds of treasure hunters had brought-ethy unusual items from all over the world to the Marquisate..."
195: 0x0549 [0x23] WAIT_FOR_DIALOG_INTERACTION
196: 0x054A [0x2B] Yoran-Oran (ID: 17756188/0x010EF01C) [9408*]:
    → "These items had been hidden-ethy in a chamber beneath the Tavnazian Sacrarium."
197: 0x0551 [0x23] WAIT_FOR_DIALOG_INTERACTION
198: 0x0552 [0x29] REQ_SET_WAIT(priority=0x08, entity_id=Yoran-Oran (ID: 17756188/0x010EF01C), tag_num=0x02)
199: 0x0559 [0x29] REQ_SET_WAIT(priority=0x08, entity_id=Yoran-Oran (ID: 17756188/0x010EF01C), tag_num=0x0B)
200: 0x0560 [0x2B] Yoran-Oran (ID: 17756188/0x010EF01C) [9409*]:
    → "I was led-ethy to that reliquiarium only after agreeing-ethy to never speak of the objects I would see."
201: 0x0567 [0x23] WAIT_FOR_DIALOG_INTERACTION
202: 0x0568 [0x29] REQ_SET_WAIT(priority=0x08, entity_id=Yoran-Oran (ID: 17756188/0x010EF01C), tag_num=0x0C)
203: 0x056F [0x29] REQ_SET_WAIT(priority=0x08, entity_id=Yoran-Oran (ID: 17756188/0x010EF01C), tag_num=0x03)
204: 0x0576 [0x2B] Yoran-Oran (ID: 17756188/0x010EF01C) [9410*]:
    → "When we entered the chamber, I was asked to look at a frightening-ethy statue that had been dug up from some goddess-forsaken labyrinth..."
205: 0x057D [0x23] WAIT_FOR_DIALOG_INTERACTION
206: 0x057E [0x29] REQ_SET_WAIT(priority=0x08, entity_id=Yoran-Oran (ID: 17756188/0x010EF01C), tag_num=0x04)
207: 0x0585 [0x52] END_LOAD_SCHEDULER: End scheduler "s042" with entities [EventEntity, EventEntity], work=120*
208: 0x0594 [0x45] LOAD_SCHEDULED_TASK: Load scheduler "ovl1" with entities [LocalPlayer, LocalPlayer], work=[200*, 0*]
209: 0x05A5 [0x45] LOAD_SCHEDULED_TASK: Load scheduler "s040" with entities [EventEntity, EventEntity], work=[120*, 0*]
210: 0x05B6 [0x29] REQ_SET_WAIT(priority=0x08, entity_id=Koru-Moru (ID: 17756297/0x010EF089), tag_num=0x01)
211: 0x05BD [0x2B] Koru-Moru (ID: 17756297/0x010EF089) [9411*]:
    → "Frightening statue? Well, spring-spillingly-spill it, man! What kind of slap-daddily statue was it?"
212: 0x05C4 [0x23] WAIT_FOR_DIALOG_INTERACTION
213: 0x05C5 [0x29] REQ_SET_WAIT(priority=0x08, entity_id=Koru-Moru (ID: 17756297/0x010EF089), tag_num=0x02)
214: 0x05CC [0x29] REQ_SET_WAIT(priority=0x08, entity_id=Yoran-Oran (ID: 17756188/0x010EF01C), tag_num=0x05)
215: 0x05D3 [0x29] REQ_SET_WAIT(priority=0x08, entity_id=Yoran-Oran (ID: 17756188/0x010EF01C), tag_num=0x06)
216: 0x05DA [0x4A] Yoran-Oran (ID: 17756188/0x010EF01C) looks at Koru-Moru (ID: 17756297/0x010EF089)
217: 0x05E3 [0x6F] WAIT_FRAME_DELAY: Yield until WaitTime reaches zero
218: 0x05E4 [0x76] CHECK_ENTITY_RENDER_FLAGS: Wait until Yoran-Oran (ID: 17756188/0x010EF01C) Render.Flags0 and Render.Flags3 conditions are met
219: 0x05E9 [0x29] REQ_SET_WAIT(priority=0x08, entity_id=Yoran-Oran (ID: 17756188/0x010EF01C), tag_num=0x09)
220: 0x05F0 [0x2B] Yoran-Oran (ID: 17756188/0x010EF01C) [9412*]:
    → "I...I'm not sure."
221: 0x05F7 [0x23] WAIT_FOR_DIALOG_INTERACTION
222: 0x05F8 [0x29] REQ_SET_WAIT(priority=0x08, entity_id=Yoran-Oran (ID: 17756188/0x010EF01C), tag_num=0x0A)
223: 0x05FF [0x79] Yoran-Oran (ID: 17756188/0x010EF01C) looks at Shantotto (ID: 17756186/0x010EF01A) (Basic look)
224: 0x0609 [0x79] Koru-Moru (ID: 17756297/0x010EF089) looks at Shantotto (ID: 17756186/0x010EF01A) (Basic look)
225: 0x0613 [0x29] REQ_SET_WAIT(priority=0x08, entity_id=Shantotto (ID: 17756186/0x010EF01A), tag_num=0x09)
226: 0x061A [0x2B] Shantotto (ID: 17756186/0x010EF01A) [9413*]:
    → "You were invited to the faraway land of Tavnazia and you gave them a "not sure"? All I have to say is, "What an amateur!""
227: 0x0621 [0x23] WAIT_FOR_DIALOG_INTERACTION
228: 0x0622 [0x29] REQ_SET_WAIT(priority=0x08, entity_id=Shantotto (ID: 17756186/0x010EF01A), tag_num=0x0A)
229: 0x0629 [0x52] END_LOAD_SCHEDULER: End scheduler "s040" with entities [EventEntity, EventEntity], work=120*
230: 0x0638 [0x45] LOAD_SCHEDULED_TASK: Load scheduler "s043" with entities [EventEntity, EventEntity], work=[120*, 0*]
231: 0x0649 [0x4A] Yoran-Oran (ID: 17756188/0x010EF01C) looks at Shantotto (ID: 17756186/0x010EF01A)
232: 0x0652 [0x4A] Koru-Moru (ID: 17756297/0x010EF089) looks at Shantotto (ID: 17756186/0x010EF01A)
233: 0x065B [0x27] REQ_SET(priority=0x0B, entity_id=Shantotto (ID: 17756186/0x010EF01A), tag_num=0x8E)
234: 0x0662 [0x2B] Shantotto (ID: 17756186/0x010EF01A) [9414*]:
    → "An embarrassment to the ministers of Windurst, an absolutaru disgrace. You've gone and smeared mud on our collective face."
235: 0x0669 [0x23] WAIT_FOR_DIALOG_INTERACTION
236: 0x066A [0x2A] GET_REQ_LEVEL(level=11, entity_id=Shantotto (ID: 17756186/0x010EF01A))
237: 0x0670 [0x6F] WAIT_FRAME_DELAY: Yield until WaitTime reaches zero
238: 0x0671 [0x76] CHECK_ENTITY_RENDER_FLAGS: Wait until Yoran-Oran (ID: 17756188/0x010EF01C) Render.Flags0 and Render.Flags3 conditions are met
239: 0x0676 [0x6F] WAIT_FRAME_DELAY: Yield until WaitTime reaches zero
240: 0x0677 [0x76] CHECK_ENTITY_RENDER_FLAGS: Wait until Koru-Moru (ID: 17756297/0x010EF089) Render.Flags0 and Render.Flags3 conditions are met
241: 0x067C [0x7B] Shantotto (ID: 17756186/0x010EF01A) stops talking
242: 0x0681 [0x29] REQ_SET_WAIT(priority=0x08, entity_id=Shantotto (ID: 17756186/0x010EF01A), tag_num=0x29)
243: 0x0688 [0x2B] Shantotto (ID: 17756186/0x010EF01A) [9415*]:
    → "And now hear these poor fatherless children's wailings. Is there no end to your dismal failings?"
244: 0x068F [0x23] WAIT_FOR_DIALOG_INTERACTION
245: 0x0690 [0x6F] WAIT_FRAME_DELAY: Yield until WaitTime reaches zero
246: 0x0691 [0x76] CHECK_ENTITY_RENDER_FLAGS: Wait until Yoran-Oran (ID: 17756188/0x010EF01C) Render.Flags0 and Render.Flags3 conditions are met
247: 0x0696 [0x29] REQ_SET_WAIT(priority=0x08, entity_id=Yoran-Oran (ID: 17756188/0x010EF01C), tag_num=0x1D)
248: 0x069D [0x2B] Yoran-Oran (ID: 17756188/0x010EF01C) [9416*]:
    → "I'm telling-ethy you, I am not their father!"
249: 0x06A4 [0x23] WAIT_FOR_DIALOG_INTERACTION
250: 0x06A5 [0x29] REQ_SET_WAIT(priority=0x08, entity_id=Yoran-Oran (ID: 17756188/0x010EF01C), tag_num=0x1E)
251: 0x06AC [0x52] END_LOAD_SCHEDULER: End scheduler "s043" with entities [EventEntity, EventEntity], work=120*
252: 0x06BB [0x45] LOAD_SCHEDULED_TASK: Load scheduler "s044" with entities [EventEntity, EventEntity], work=[120*, 0*]
253: 0x06CC [0x29] REQ_SET_WAIT(priority=0x0B, entity_id=Shantotto (ID: 17756186/0x010EF01A), tag_num=0x8F)
254: 0x06D3 [0x7B] Yoran-Oran (ID: 17756188/0x010EF01C) stops talking
255: 0x06D8 [0x4B] UPDATE_ENTITY_YAW(entity=Yoran-Oran (ID: 17756188/0x010EF01C), yaw=2.6°*)
256: 0x06DF [0x6F] WAIT_FRAME_DELAY: Yield until WaitTime reaches zero
257: 0x06E0 [0x76] CHECK_ENTITY_RENDER_FLAGS: Wait until Yoran-Oran (ID: 17756188/0x010EF01C) Render.Flags0 and Render.Flags3 conditions are met
258: 0x06E5 [0x4A] Koru-Moru (ID: 17756297/0x010EF089) looks at Yoran-Oran (ID: 17756188/0x010EF01C)
259: 0x06EE [0x2B] Yoran-Oran (ID: 17756188/0x010EF01C) [9417*]:
    → "And I was not called-ethy to Tavnazia to appraise the nature of that statue."
260: 0x06F5 [0x23] WAIT_FOR_DIALOG_INTERACTION
261: 0x06F6 [0x7B] Cherukiki (ID: 17756321/0x010EF0A1) stops talking
262: 0x06FB [0x7B] Makki-Chebukki (ID: 17756319/0x010EF09F) stops talking
263: 0x0700 [0x7B] Kukki-Chebukki (ID: 17756320/0x010EF0A0) stops talking
264: 0x0705 [0x4B] UPDATE_ENTITY_YAW(entity=Kukki-Chebukki (ID: 17756320/0x010EF0A0), yaw=4.7°*)
265: 0x070C [0x4B] UPDATE_ENTITY_YAW(entity=Cherukiki (ID: 17756321/0x010EF0A1), yaw=12.1°*)
266: 0x0713 [0x4B] UPDATE_ENTITY_YAW(entity=Makki-Chebukki (ID: 17756319/0x010EF09F), yaw=20.3°*)
267: 0x071A [0x29] REQ_SET_WAIT(priority=0x08, entity_id=Yoran-Oran (ID: 17756188/0x010EF01C), tag_num=0x09)
268: 0x0721 [0x2B] Yoran-Oran (ID: 17756188/0x010EF01C) [9418*]:
    → "My task was to discern-ethy where it had been excavated from by analyzing the traces of soil that still clung-ethy to its surface."
269: 0x0728 [0x23] WAIT_FOR_DIALOG_INTERACTION
270: 0x0729 [0x29] REQ_SET_WAIT(priority=0x08, entity_id=Yoran-Oran (ID: 17756188/0x010EF01C), tag_num=0x0A)
271: 0x0730 [0x29] REQ_SET_WAIT(priority=0x08, entity_id=Shantotto (ID: 17756186/0x010EF01A), tag_num=0x2A)
272: 0x0737 [0x6F] WAIT_FRAME_DELAY: Yield until WaitTime reaches zero
273: 0x0738 [0x76] CHECK_ENTITY_RENDER_FLAGS: Wait until Makki-Chebukki (ID: 17756319/0x010EF09F) Render.Flags0 and Render.Flags3 conditions are met
274: 0x073D [0x6F] WAIT_FRAME_DELAY: Yield until WaitTime reaches zero
275: 0x073E [0x76] CHECK_ENTITY_RENDER_FLAGS: Wait until Kukki-Chebukki (ID: 17756320/0x010EF0A0) Render.Flags0 and Render.Flags3 conditions are met
276: 0x0743 [0x6F] WAIT_FRAME_DELAY: Yield until WaitTime reaches zero
277: 0x0744 [0x76] CHECK_ENTITY_RENDER_FLAGS: Wait until Cherukiki (ID: 17756321/0x010EF0A1) Render.Flags0 and Render.Flags3 conditions are met
278: 0x0749 [0x52] END_LOAD_SCHEDULER: End scheduler "s044" with entities [EventEntity, EventEntity], work=120*
279: 0x0758 [0x45] LOAD_SCHEDULED_TASK: Load scheduler "s039" with entities [EventEntity, EventEntity], work=[120*, 0*]
280: 0x0769 [0x79] Yoran-Oran (ID: 17756188/0x010EF01C) looks at Koru-Moru (ID: 17756297/0x010EF089) (Basic look)
281: 0x0773 [0x27] REQ_SET(priority=0x0B, entity_id=Koru-Moru (ID: 17756297/0x010EF089), tag_num=0x32)
282: 0x077A [0x2B] Koru-Moru (ID: 17756297/0x010EF089) [9419*]:
    → "And did you flang-fig-figurey out where the soil was from?"
283: 0x0781 [0x23] WAIT_FOR_DIALOG_INTERACTION
284: 0x0782 [0x2A] GET_REQ_LEVEL(level=11, entity_id=Koru-Moru (ID: 17756297/0x010EF089))
285: 0x0788 [0x4A] Koru-Moru (ID: 17756297/0x010EF089) looks at Yoran-Oran (ID: 17756188/0x010EF01C)
286: 0x0791 [0x27] REQ_SET(priority=0x08, entity_id=Yoran-Oran (ID: 17756188/0x010EF01C), tag_num=0x2F)
287: 0x0798 [0x2B] Yoran-Oran (ID: 17756188/0x010EF01C) [9420*]:
    → "Of course I did. It was silt from the bottom-ethy of the sea. From the Sea of Shu'Meyo, I believe."
288: 0x079F [0x23] WAIT_FOR_DIALOG_INTERACTION
289: 0x07A0 [0x2A] GET_REQ_LEVEL(level=8, entity_id=Yoran-Oran (ID: 17756188/0x010EF01C))
290: 0x07A6 [0x6F] WAIT_FRAME_DELAY: Yield until WaitTime reaches zero
291: 0x07A7 [0x76] CHECK_ENTITY_RENDER_FLAGS: Wait until Koru-Moru (ID: 17756297/0x010EF089) Render.Flags0 and Render.Flags3 conditions are met
292: 0x07AC [0x52] END_LOAD_SCHEDULER: End scheduler "s039" with entities [EventEntity, EventEntity], work=120*
293: 0x07BB [0x45] LOAD_SCHEDULED_TASK: Load scheduler "s045" with entities [EventEntity, EventEntity], work=[120*, 0*]
294: 0x07CC [0x29] REQ_SET_WAIT(priority=0x08, entity_id=Koru-Moru (ID: 17756297/0x010EF089), tag_num=0x03)
295: 0x07D3 [0x2B] Koru-Moru (ID: 17756297/0x010EF089) [9421*]:
    → "The Sea of Shu'Meyo... The inland-ified sea north of Jeuno."
296: 0x07DA [0x23] WAIT_FOR_DIALOG_INTERACTION
297: 0x07DB [0x29] REQ_SET_WAIT(priority=0x08, entity_id=Koru-Moru (ID: 17756297/0x010EF089), tag_num=0x04)
298: 0x07E2 [0x4A] Shantotto (ID: 17756186/0x010EF01A) looks at Yoran-Oran (ID: 17756188/0x010EF01C)
299: 0x07EB [0x29] REQ_SET_WAIT(priority=0x08, entity_id=Koru-Moru (ID: 17756297/0x010EF089), tag_num=0x05)
300: 0x07F2 [0x2B] Koru-Moru (ID: 17756297/0x010EF089) [9422*]:
    → "Isn't that body of water non-stoppingly-notorious for ships sinking on even the calm-balmiest of days?"
301: 0x07F9 [0x23] WAIT_FOR_DIALOG_INTERACTION
302: 0x07FA [0x29] REQ_SET_WAIT(priority=0x08, entity_id=Koru-Moru (ID: 17756297/0x010EF089), tag_num=0x06)
303: 0x0801 [0x6F] WAIT_FRAME_DELAY: Yield until WaitTime reaches zero
304: 0x0802 [0x76] CHECK_ENTITY_RENDER_FLAGS: Wait until Shantotto (ID: 17756186/0x010EF01A) Render.Flags0 and Render.Flags3 conditions are met
305: 0x0807 [0x29] REQ_SET_WAIT(priority=0x08, entity_id=Yoran-Oran (ID: 17756188/0x010EF01C), tag_num=0x01)
306: 0x080E [0x2B] Yoran-Oran (ID: 17756188/0x010EF01C) [9423*]:
    → "It is indeed-ethy. What's more, the statue was said to be found-ethy not in the sea, but deep-ethy within the earth."
307: 0x0815 [0x23] WAIT_FOR_DIALOG_INTERACTION
308: 0x0816 [0x29] REQ_SET_WAIT(priority=0x08, entity_id=Yoran-Oran (ID: 17756188/0x010EF01C), tag_num=0x02)
309: 0x081D [0x52] END_LOAD_SCHEDULER: End scheduler "s045" with entities [EventEntity, EventEntity], work=120*
310: 0x082C [0x45] LOAD_SCHEDULED_TASK: Load scheduler "s046" with entities [EventEntity, EventEntity], work=[120*, 0*]
311: 0x083D [0x79] Yoran-Oran (ID: 17756188/0x010EF01C) looks at Shantotto (ID: 17756186/0x010EF01A) (Basic look)
312: 0x0847 [0x27] REQ_SET(priority=0x0B, entity_id=Shantotto (ID: 17756186/0x010EF01A), tag_num=0x90)
313: 0x084E [0x2B] Shantotto (ID: 17756186/0x010EF01A) [9424*]:
    → "What a fascinating tale, I must conclude. And after unfurling this mystery, you were elated enough to start your own brood?"
314: 0x0855 [0x23] WAIT_FOR_DIALOG_INTERACTION
315: 0x0856 [0x2A] GET_REQ_LEVEL(level=11, entity_id=Shantotto (ID: 17756186/0x010EF01A))
316: 0x085C [0x29] REQ_SET_WAIT(priority=0x08, entity_id=Yoran-Oran (ID: 17756188/0x010EF01C), tag_num=0x07)
317: 0x0863 [0x29] REQ_SET_WAIT(priority=0x08, entity_id=Yoran-Oran (ID: 17756188/0x010EF01C), tag_num=0x08)
318: 0x086A [0x1C] WAIT(80* ticks)
319: 0x086D [0x29] REQ_SET_WAIT(priority=0x08, entity_id=Yoran-Oran (ID: 17756188/0x010EF01C), tag_num=0x2C)
320: 0x0874 [0x2B] Yoran-Oran (ID: 17756188/0x010EF01C) [9425*]:
    → "Would you give it a rest-ethy!"
321: 0x087B [0x23] WAIT_FOR_DIALOG_INTERACTION
322: 0x087C [0x29] REQ_SET_WAIT(priority=0x08, entity_id=Yoran-Oran (ID: 17756188/0x010EF01C), tag_num=0x2D)
323: 0x0883 [0x52] END_LOAD_SCHEDULER: End scheduler "s046" with entities [EventEntity, EventEntity], work=120*
324: 0x0892 [0x45] LOAD_SCHEDULED_TASK: Load scheduler "s047" with entities [EventEntity, EventEntity], work=[120*, 0*]
325: 0x08A3 [0x4E] SET_ENTITY_HIDE_FLAG: Hide Koru-Moru (ID: 17756297/0x010EF089)
326: 0x08A9 [0x4A] Shantotto (ID: 17756186/0x010EF01A) looks at Makki-Chebukki (ID: 17756319/0x010EF09F)
327: 0x08B2 [0x29] REQ_SET_WAIT(priority=0x08, entity_id=Yoran-Oran (ID: 17756188/0x010EF01C), tag_num=0x34)
328: 0x08B9 [0x4A] Yoran-Oran (ID: 17756188/0x010EF01C) looks at Makki-Chebukki (ID: 17756319/0x010EF09F)
329: 0x08C2 [0x2B] Yoran-Oran (ID: 17756188/0x010EF01C) [9426*]:
    → "Do you see-ethy what you've done! My reputation is in ruins!"
330: 0x08C9 [0x23] WAIT_FOR_DIALOG_INTERACTION
331: 0x08CA [0x6F] WAIT_FRAME_DELAY: Yield until WaitTime reaches zero
332: 0x08CB [0x76] CHECK_ENTITY_RENDER_FLAGS: Wait until Yoran-Oran (ID: 17756188/0x010EF01C) Render.Flags0 and Render.Flags3 conditions are met
333: 0x08D0 [0x4B] UPDATE_ENTITY_YAW(entity=Makki-Chebukki (ID: 17756319/0x010EF09F), yaw=8.3°*)
334: 0x08D7 [0x79] Kukki-Chebukki (ID: 17756320/0x010EF0A0) looks at Yoran-Oran (ID: 17756188/0x010EF01C) (Basic look)
335: 0x08E1 [0x79] Cherukiki (ID: 17756321/0x010EF0A1) looks at Yoran-Oran (ID: 17756188/0x010EF01C) (Basic look)
336: 0x08EB [0x29] REQ_SET_WAIT(priority=0x08, entity_id=Yoran-Oran (ID: 17756188/0x010EF01C), tag_num=0x1D)
337: 0x08F2 [0x2B] Yoran-Oran (ID: 17756188/0x010EF01C) [9427*]:
    → "Now explain-ethy yourselves!"
338: 0x08F9 [0x23] WAIT_FOR_DIALOG_INTERACTION
339: 0x08FA [0x29] REQ_SET_WAIT(priority=0x08, entity_id=Yoran-Oran (ID: 17756188/0x010EF01C), tag_num=0x1E)
340: 0x0901 [0x4E] SET_ENTITY_HIDE_FLAG: Show Koru-Moru (ID: 17756297/0x010EF089)
341: 0x0907 [0x80] LOAD_WAIT(entity=Koru-Moru (ID: 17756297/0x010EF089))
342: 0x090C [0x52] END_LOAD_SCHEDULER: End scheduler "s047" with entities [EventEntity, EventEntity], work=120*
343: 0x091B [0x45] LOAD_SCHEDULED_TASK: Load scheduler "ovl1" with entities [LocalPlayer, LocalPlayer], work=[200*, 0*]
344: 0x092C [0x45] LOAD_SCHEDULED_TASK: Load scheduler "s037" with entities [EventEntity, EventEntity], work=[120*, 0*]
345: 0x093D [0x4A] Koru-Moru (ID: 17756297/0x010EF089) looks at Makki-Chebukki (ID: 17756319/0x010EF09F)
346: 0x0946 [0x4A] LocalPlayer looks at Makki-Chebukki (ID: 17756319/0x010EF09F)
347: 0x094F [0x1C] WAIT(90* ticks)
348: 0x0952 [0x29] REQ_SET_WAIT(priority=0x08, entity_id=Cherukiki (ID: 17756321/0x010EF0A1), tag_num=0x25)
349: 0x0959 [0x2B] Cherukiki (ID: 17756321/0x010EF0A1) [9428*]:
    → "We're sta`rving."
350: 0x0960 [0x23] WAIT_FOR_DIALOG_INTERACTION
351: 0x0961 [0x29] REQ_SET_WAIT(priority=0x08, entity_id=Kukki-Chebukki (ID: 17756320/0x010EF0A0), tag_num=0x2D)
352: 0x0968 [0x2B] Kukki-Chebukki (ID: 17756320/0x010EF0A0) [9429*]:
    → "I feel...faint. No energy...to talk."
353: 0x096F [0x23] WAIT_FOR_DIALOG_INTERACTION
354: 0x0970 [0x6F] WAIT_FRAME_DELAY: Yield until WaitTime reaches zero
355: 0x0971 [0x76] CHECK_ENTITY_RENDER_FLAGS: Wait until Makki-Chebukki (ID: 17756319/0x010EF09F) Render.Flags0 and Render.Flags3 conditions are met
356: 0x0976 [0x29] REQ_SET_WAIT(priority=0x08, entity_id=Makki-Chebukki (ID: 17756319/0x010EF09F), tag_num=0x2D)
357: 0x097D [0x2B] Makki-Chebukki (ID: 17756319/0x010EF09F) [9430*]:
    → "I feel dizzy..."
358: 0x0984 [0x23] WAIT_FOR_DIALOG_INTERACTION
359: 0x0985 [0x6F] WAIT_FRAME_DELAY: Yield until WaitTime reaches zero
360: 0x0986 [0x76] CHECK_ENTITY_RENDER_FLAGS: Wait until Koru-Moru (ID: 17756297/0x010EF089) Render.Flags0 and Render.Flags3 conditions are met
361: 0x098B [0x6F] WAIT_FRAME_DELAY: Yield until WaitTime reaches zero
362: 0x098C [0x76] CHECK_ENTITY_RENDER_FLAGS: Wait until LocalPlayer Render.Flags0 and Render.Flags3 conditions are met
363: 0x0991 [0x4E] SET_ENTITY_HIDE_FLAG: Hide Shantotto (ID: 17756186/0x010EF01A)
364: 0x0997 [0x1C] WAIT(20* ticks)
365: 0x099A [0x52] END_LOAD_SCHEDULER: End scheduler "s037" with entities [EventEntity, EventEntity], work=120*
366: 0x09A9 [0x45] LOAD_SCHEDULED_TASK: Load scheduler "s048" with entities [EventEntity, EventEntity], work=[120*, 0*]
367: 0x09BA [0x29] REQ_SET_WAIT(priority=0x08, entity_id=Yoran-Oran (ID: 17756188/0x010EF01C), tag_num=0x1D)
368: 0x09C1 [0x2B] Yoran-Oran (ID: 17756188/0x010EF01C) [9431*]:
    → "Fine! There's a restaurant in Windurst Waters. Come back-ethy after you've had something to eat!"
369: 0x09C8 [0x23] WAIT_FOR_DIALOG_INTERACTION
370: 0x09C9 [0x29] REQ_SET_WAIT(priority=0x08, entity_id=Yoran-Oran (ID: 17756188/0x010EF01C), tag_num=0x1E)
371: 0x09D0 [0x45] LOAD_SCHEDULED_TASK: Load scheduler "fdo1" with entities [LocalPlayer, LocalPlayer], work=[200*, 0*]
372: 0x09E1 [0x1C] WAIT(60* ticks)
373: 0x09E4 [0x52] END_LOAD_SCHEDULER: End scheduler "s048" with entities [EventEntity, EventEntity], work=120*
374: 0x09F3 [0x4E] SET_ENTITY_HIDE_FLAG: Show Shantotto (ID: 17756186/0x010EF01A)
375: 0x09F9 [0x45] LOAD_SCHEDULED_TASK: Load scheduler "s104" with entities [EventEntity, EventEntity], work=[120*, 0*]
376: 0x0A0A [0x45] LOAD_SCHEDULED_TASK: Load scheduler "fdi1" with entities [LocalPlayer, LocalPlayer], work=[200*, 0*]
377: 0x0A1B [0x29] REQ_SET_WAIT(priority=0x0D, entity_id=Door:Yoran-Oran's Manor (ID: 17756275/0x010EF073), tag_num=0x02)
378: 0x0A22 [0x1C] WAIT(90* ticks)
379: 0x0A25 [0x27] REQ_SET(priority=0x0B, entity_id=Makki-Chebukki (ID: 17756319/0x010EF09F), tag_num=0x4B)
380: 0x0A2C [0x27] REQ_SET(priority=0x0B, entity_id=Cherukiki (ID: 17756321/0x010EF0A1), tag_num=0x4C)
381: 0x0A33 [0x27] REQ_SET(priority=0x0B, entity_id=Kukki-Chebukki (ID: 17756320/0x010EF0A0), tag_num=0x4B)
382: 0x0A3A [0x27] REQ_SET(priority=0x0B, entity_id=Shantotto (ID: 17756186/0x010EF01A), tag_num=0x91)
383: 0x0A41 [0x27] REQ_SET(priority=0x0B, entity_id=Koru-Moru (ID: 17756297/0x010EF089), tag_num=0x33)
384: 0x0A48 [0x2B] Makki-Chebukki (ID: 17756319/0x010EF09F) [9432*]:
    → "Yay!"
385: 0x0A4F [0x23] WAIT_FOR_DIALOG_INTERACTION
386: 0x0A50 [0x1C] WAIT(30* ticks)
387: 0x0A53 [0x2B] Kukki-Chebukki (ID: 17756320/0x010EF0A0) [9433*]:
    → "All right!"
388: 0x0A5A [0x23] WAIT_FOR_DIALOG_INTERACTION
389: 0x0A5B [0x1C] WAIT(30* ticks)
390: 0x0A5E [0x2B] Cherukiki (ID: 17756321/0x010EF0A1) [9434*]:
    → "Food!"
391: 0x0A65 [0x23] WAIT_FOR_DIALOG_INTERACTION
392: 0x0A66 [0x1C] WAIT(30* ticks)
393: 0x0A69 [0x45] LOAD_SCHEDULED_TASK: Load scheduler "fdo1" with entities [LocalPlayer, LocalPlayer], work=[200*, 0*]
394: 0x0A7A [0x1C] WAIT(120* ticks)
395: 0x0A7D [0x52] END_LOAD_SCHEDULER: End scheduler "s104" with entities [EventEntity, EventEntity], work=120*
396: 0x0A8C [0x2A] GET_REQ_LEVEL(level=11, entity_id=Makki-Chebukki (ID: 17756319/0x010EF09F))
397: 0x0A92 [0x2A] GET_REQ_LEVEL(level=11, entity_id=Cherukiki (ID: 17756321/0x010EF0A1))
398: 0x0A98 [0x2A] GET_REQ_LEVEL(level=11, entity_id=Kukki-Chebukki (ID: 17756320/0x010EF0A0))
399: 0x0A9E [0x4E] SET_ENTITY_HIDE_FLAG: Hide Shantotto (ID: 17756186/0x010EF01A)
400: 0x0AA4 [0x4E] SET_ENTITY_HIDE_FLAG: Hide Koru-Moru (ID: 17756297/0x010EF089)
401: 0x0AAA [0x4E] SET_ENTITY_HIDE_FLAG: Hide Makki-Chebukki (ID: 17756319/0x010EF09F)
402: 0x0AB0 [0x4E] SET_ENTITY_HIDE_FLAG: Hide Kukki-Chebukki (ID: 17756320/0x010EF0A0)
403: 0x0AB6 [0x4E] SET_ENTITY_HIDE_FLAG: Hide Cherukiki (ID: 17756321/0x010EF0A1)
404: 0x0ABC [0x29] REQ_SET_WAIT(priority=0x0D, entity_id=Door:Yoran-Oran's Manor (ID: 17756275/0x010EF073), tag_num=0x03)
405: 0x0AC3 [0x29] REQ_SET_WAIT(priority=0x0B, entity_id=LocalPlayer, tag_num=0x6C)
406: 0x0ACA [0x29] REQ_SET_WAIT(priority=0x0B, entity_id=Yoran-Oran (ID: 17756188/0x010EF01C), tag_num=0x69)
407: 0x0AD1 [0x4A] LocalPlayer looks at Yoran-Oran (ID: 17756188/0x010EF01C)
408: 0x0ADA [0x6F] WAIT_FRAME_DELAY: Yield until WaitTime reaches zero
409: 0x0ADB [0x76] CHECK_ENTITY_RENDER_FLAGS: Wait until LocalPlayer Render.Flags0 and Render.Flags3 conditions are met
410: 0x0AE0 [0x29] REQ_SET_WAIT(priority=0x08, entity_id=Yoran-Oran (ID: 17756188/0x010EF01C), tag_num=0x25)
411: 0x0AE7 [0x45] LOAD_SCHEDULED_TASK: Load scheduler "s100" with entities [EventEntity, EventEntity], work=[120*, 0*]
412: 0x0AF8 [0x45] LOAD_SCHEDULED_TASK: Load scheduler "fdi1" with entities [EventEntity, EventEntity], work=[200*, 0*]
413: 0x0B09 [0x1C] WAIT(100* ticks)
414: 0x0B0C [0x2B] Yoran-Oran (ID: 17756188/0x010EF01C) [9435*]:
    → "Why me...?"
415: 0x0B13 [0x23] WAIT_FOR_DIALOG_INTERACTION
416: 0x0B14 [0x1C] WAIT(200* ticks)
417: 0x0B17 [0x29] REQ_SET_WAIT(priority=0x08, entity_id=Yoran-Oran (ID: 17756188/0x010EF01C), tag_num=0x26)
418: 0x0B1E [0x29] REQ_SET_WAIT(priority=0x08, entity_id=Yoran-Oran (ID: 17756188/0x010EF01C), tag_num=0x27)
419: 0x0B25 [0x29] REQ_SET_WAIT(priority=0x08, entity_id=Yoran-Oran (ID: 17756188/0x010EF01C), tag_num=0x28)
420: 0x0B2C [0x52] END_LOAD_SCHEDULER: End scheduler "s100" with entities [EventEntity, EventEntity], work=120*
421: 0x0B3B [0x45] LOAD_SCHEDULED_TASK: Load scheduler "s101" with entities [EventEntity, EventEntity], work=[120*, 0*]
422: 0x0B4C [0x29] REQ_SET_WAIT(priority=0x08, entity_id=Yoran-Oran (ID: 17756188/0x010EF01C), tag_num=0x2C)
423: 0x0B53 [0x2B] Yoran-Oran (ID: 17756188/0x010EF01C) [9436*]:
    → "What-ethy a calamity! My pristine-ethy image has been sullied!"
424: 0x0B5A [0x23] WAIT_FOR_DIALOG_INTERACTION
425: 0x0B5B [0x2B] Yoran-Oran (ID: 17756188/0x010EF01C) [9437*]:
    → "No good-ethy! No good-ethy! I must restore-ethy my high standing in the community!"
426: 0x0B62 [0x23] WAIT_FOR_DIALOG_INTERACTION
427: 0x0B63 [0x29] REQ_SET_WAIT(priority=0x08, entity_id=Yoran-Oran (ID: 17756188/0x010EF01C), tag_num=0x2D)
428: 0x0B6A [0x52] END_LOAD_SCHEDULER: End scheduler "s101" with entities [EventEntity, EventEntity], work=120*
429: 0x0B79 [0x02] IF !(Work_Zone[9] == 5*) GOTO 0x0B95
430: 0x0B81 [0x45] LOAD_SCHEDULED_TASK: Load scheduler "s106" with entities [EventEntity, EventEntity], work=[120*, 0*]
431: 0x0B92 [0x01] GOTO 0x0BC2
432: 0x0B95 [0x02] IF !(Work_Zone[9] == 6*) GOTO 0x0BB1
433: 0x0B9D [0x45] LOAD_SCHEDULED_TASK: Load scheduler "s106" with entities [EventEntity, EventEntity], work=[120*, 0*]
434: 0x0BAE [0x01] GOTO 0x0BC2
435: 0x0BB1 [0x45] LOAD_SCHEDULED_TASK: Load scheduler "s102" with entities [EventEntity, EventEntity], work=[120*, 0*]

SUBROUTINE_0BC2:
436: 0x0BC2 [0x29] REQ_SET_WAIT(priority=0x08, entity_id=Yoran-Oran (ID: 17756188/0x010EF01C), tag_num=0x34)
437: 0x0BC9 [0x1C] WAIT(50* ticks)
438: 0x0BCC [0x4A] Yoran-Oran (ID: 17756188/0x010EF01C) looks at LocalPlayer
439: 0x0BD5 [0x6F] WAIT_FRAME_DELAY: Yield until WaitTime reaches zero
440: 0x0BD6 [0x76] CHECK_ENTITY_RENDER_FLAGS: Wait until Yoran-Oran (ID: 17756188/0x010EF01C) Render.Flags0 and Render.Flags3 conditions are met
441: 0x0BDB [0x29] REQ_SET_WAIT(priority=0x08, entity_id=Yoran-Oran (ID: 17756188/0x010EF01C), tag_num=0x07)
442: 0x0BE2 [0x2B] Yoran-Oran (ID: 17756188/0x010EF01C) [9438*]:
    → "That's it! The Mimeo Mirror! Its memory-viewing powers are perfect-ethy for this situation!"
443: 0x0BE9 [0x23] WAIT_FOR_DIALOG_INTERACTION
444: 0x0BEA [0x29] REQ_SET_WAIT(priority=0x08, entity_id=Yoran-Oran (ID: 17756188/0x010EF01C), tag_num=0x08)
445: 0x0BF1 [0x29] REQ_SET_WAIT(priority=0x08, entity_id=Yoran-Oran (ID: 17756188/0x010EF01C), tag_num=0x1D)
446: 0x0BF8 [0x2B] Yoran-Oran (ID: 17756188/0x010EF01C) [9439*]:
    → "I'll use the mirror to show-ethy all my memories of Tavnazia! I'll prove-ethy my innocence to the world!"
447: 0x0BFF [0x23] WAIT_FOR_DIALOG_INTERACTION
448: 0x0C00 [0x29] REQ_SET_WAIT(priority=0x08, entity_id=Yoran-Oran (ID: 17756188/0x010EF01C), tag_num=0x1E)
449: 0x0C07 [0x02] IF !(Work_Zone[9] == 5*) GOTO 0x0C21
450: 0x0C0F [0x52] END_LOAD_SCHEDULER: End scheduler "s106" with entities [EventEntity, EventEntity], work=120*
451: 0x0C1E [0x01] GOTO 0x0C4A
452: 0x0C21 [0x02] IF !(Work_Zone[9] == 6*) GOTO 0x0C3B
453: 0x0C29 [0x52] END_LOAD_SCHEDULER: End scheduler "s106" with entities [EventEntity, EventEntity], work=120*
454: 0x0C38 [0x01] GOTO 0x0C4A
455: 0x0C3B [0x52] END_LOAD_SCHEDULER: End scheduler "s102" with entities [EventEntity, EventEntity], work=120*

SUBROUTINE_0C4A:
456: 0x0C4A [0x45] LOAD_SCHEDULED_TASK: Load scheduler "s103" with entities [EventEntity, EventEntity], work=[120*, 0*]
457: 0x0C5B [0x29] REQ_SET_WAIT(priority=0x08, entity_id=Yoran-Oran (ID: 17756188/0x010EF01C), tag_num=0x03)
458: 0x0C62 [0x2B] Yoran-Oran (ID: 17756188/0x010EF01C) [9440*]:
    → "Now if I can just remember-ethy the person who owned a Mimeo Mirror. I seem to recall-ethy a rather unpleasant personage boasting about his possessions a while back..."
459: 0x0C69 [0x23] WAIT_FOR_DIALOG_INTERACTION
460: 0x0C6A [0x29] REQ_SET_WAIT(priority=0x08, entity_id=Yoran-Oran (ID: 17756188/0x010EF01C), tag_num=0x04)
461: 0x0C71 [0x29] REQ_SET_WAIT(priority=0x08, entity_id=Yoran-Oran (ID: 17756188/0x010EF01C), tag_num=0x05)
462: 0x0C78 [0x2B] Yoran-Oran (ID: 17756188/0x010EF01C) [9441*]:
    → "Calm-ethy yourself, Yoran-Oran. You're too worked up-ethy to think straight..."
463: 0x0C7F [0x23] WAIT_FOR_DIALOG_INTERACTION
464: 0x0C80 [0x29] REQ_SET_WAIT(priority=0x08, entity_id=Yoran-Oran (ID: 17756188/0x010EF01C), tag_num=0x06)
465: 0x0C87 [0x5D] SET_MUSIC_VOLUME(volume=0*, fade_time=120*)
466: 0x0C8C [0x45] LOAD_SCHEDULED_TASK: Load scheduler "fdo1" with entities [LocalPlayer, LocalPlayer], work=[200*, 0*]
467: 0x0C9D [0x1C] WAIT(60* ticks)
468: 0x0CA0 [0x52] END_LOAD_SCHEDULER: End scheduler "s103" with entities [EventEntity, EventEntity], work=120*
469: 0x0CAF [0x29] REQ_SET_WAIT(priority=0x08, entity_id=Koru-Moru (ID: 17756297/0x010EF089), tag_num=0x1A)
470: 0x0CB6 [0x5C] MUSIC_CONTROL: Set Idle (Day) music to song 151*
471: 0x0CBA [0x5C] MUSIC_CONTROL: Set Idle (Night) music to song 151*
472: 0x0CBE [0x1C] WAIT(100* ticks)
473: 0x0CC1 [0x4E] SET_ENTITY_HIDE_FLAG: Show LocalPlayer
474: 0x0CC7 [0x80] LOAD_WAIT(entity=LocalPlayer)
475: 0x0CCC [0x46] CAMERA_CONTROL: Restore default settings
476: 0x0CCE [0x45] LOAD_SCHEDULED_TASK: Load scheduler "fdi1" with entities [LocalPlayer, LocalPlayer], work=[200*, 0*]
477: 0x0CDF [0x20] SET_CLI_EVENT_UC_FLAG: Unlock player control
478: 0x0CE1 [0x21] END_EVENT
479: 0x0CE2 [0x00] END_REQSTACK()
```

### Event 470

#### Metadata

| Field        | Value     |
|--------------|-----------|
| Entrypoint   | 0x0CE3    |
| Data Size    | 472 bytes |
| Instructions | 71        |

```
      00 01 02 03 04 05 06 07  08 09 0A 0B 0C 0D 0E 0F
      -- -- -- -- -- -- -- --  -- -- -- -- -- -- -- --
0CE0:          20 01 42 46 01  5D 00 80 07 80 45 02 80      .BF.]....E..
0CF0: F8 FF FF 7F F8 FF FF 7F  66 64 6F 31 00 80 1C 07  ........fdo1....
0D00: 80 38 04 80 29 08 F0 FF  FF 7F 05 75 00 05 80 75  .8..)......u...u
0D10: 01 1C 03 80 5C 00 0A 80  5C 01 0A 80 29 0B F0 FF  ....\...\...)...
0D20: FF 7F 69 4A 1C F0 0E 01  F0 FF FF 7F 6F 76 1C F0  ..iJ........ov..
0D30: 0E 01 92 01 1C F0 0E 01  29 08 1C F0 0E 01 34 02  ........).....4.
0D40: 09 10 06 80 00 5B 0D 45  07 80 F8 FF FF 7F F8 FF  .....[.E........
0D50: FF 7F 73 31 30 35 00 80  01 88 0D 02 09 10 08 80  ..s105..........
0D60: 00 77 0D 45 07 80 F8 FF  FF 7F F8 FF FF 7F 73 31  .w.E..........s1
0D70: 30 35 00 80 01 88 0D 45  07 80 F8 FF FF 7F F8 FF  05.....E........
0D80: FF 7F 73 30 33 35 00 80  45 02 80 F8 FF FF 7F F8  ..s035..E.......
0D90: FF FF 7F 66 64 69 31 00  80 29 08 1C F0 0E 01 07  ...fdi1..)......
0DA0: 2B 1C F0 0E 01 49 80 23  29 08 1C F0 0E 01 08 29  +....I.#)......)
0DB0: 08 1C F0 0E 01 03 2B 1C  F0 0E 01 4A 80 23 29 08  ......+....J.#).
0DC0: 1C F0 0E 01 04 02 09 10  06 80 00 DF 0D 52 07 80  .............R..
0DD0: F8 FF FF 7F F8 FF FF 7F  73 31 30 35 01 08 0E 02  ........s105....
0DE0: 09 10 08 80 00 F9 0D 52  07 80 F8 FF FF 7F F8 FF  .......R........
0DF0: FF 7F 73 31 30 35 01 08  0E 52 07 80 F8 FF FF 7F  ..s105...R......
0E00: F8 FF FF 7F 73 30 33 35  45 07 80 F8 FF FF 7F F8  ....s035E.......
0E10: FF FF 7F 73 30 39 30 00  80 4E 01 F0 FF FF 7F 29  ...s090..N.....)
0E20: 08 1C F0 0E 01 05 2B 1C  F0 0E 01 4B 80 23 29 08  ......+....K.#).
0E30: 1C F0 0E 01 06 29 08 1C  F0 0E 01 01 2B 1C F0 0E  .....)......+...
0E40: 01 4C 80 23 2B 1C F0 0E  01 4D 80 23 29 08 1C F0  .L.#+....M.#)...
0E50: 0E 01 02 29 08 1C F0 0E  01 2C 2B 1C F0 0E 01 4E  ...).....,+....N
0E60: 80 23 29 08 1C F0 0E 01  2D 5D 00 80 07 80 45 02  .#).....-]....E.
0E70: 80 F0 FF FF 7F F0 FF FF  7F 66 64 6F 31 00 80 1C  .........fdo1...
0E80: 07 80 52 07 80 F8 FF FF  7F F8 FF FF 7F 73 30 39  ..R..........s09
0E90: 30 5C 00 48 80 5C 01 48  80 4E 00 F0 FF FF 7F 80  0\.H.\.H.N......
0EA0: F0 FF FF 7F 46 00 45 02  80 F0 FF FF 7F F0 FF FF  ....F.E.........
0EB0: 7F 66 64 69 31 00 80 20  00 21 00                 .fdi1.. .!.     
```

#### Opcodes

```
  0: 0x0CE3 [0x20] SET_CLI_EVENT_UC_FLAG: Lock player control
  1: 0x0CE5 [0x42] SET_CLI_EVENT_CANCEL_DATA()
  2: 0x0CE6 [0x46] CAMERA_CONTROL: Disable user control
  3: 0x0CE8 [0x5D] SET_MUSIC_VOLUME(volume=0*, fade_time=120*)
  4: 0x0CED [0x45] LOAD_SCHEDULED_TASK: Load scheduler "fdo1" with entities [EventEntity, EventEntity], work=[200*, 0*]
  5: 0x0CFE [0x1C] WAIT(120* ticks)
  6: 0x0D01 [0x38] SET_CLIENT_EVENT_MODE(mode=19*)
  7: 0x0D04 [0x29] REQ_SET_WAIT(priority=0x08, entity_id=LocalPlayer, tag_num=0x05)
  8: 0x0D0B [0x75] LOAD_ROOM(Load indoor room, room=402*)
  9: 0x0D0F [0x75] LOAD_ROOM(No action)
 10: 0x0D11 [0x1C] WAIT(60* ticks)
 11: 0x0D14 [0x5C] MUSIC_CONTROL: Set Idle (Day) music to song 163*
 12: 0x0D18 [0x5C] MUSIC_CONTROL: Set Idle (Night) music to song 163*
 13: 0x0D1C [0x29] REQ_SET_WAIT(priority=0x0B, entity_id=LocalPlayer, tag_num=0x69)
 14: 0x0D23 [0x4A] Yoran-Oran (ID: 17756188/0x010EF01C) looks at LocalPlayer
 15: 0x0D2C [0x6F] WAIT_FRAME_DELAY: Yield until WaitTime reaches zero
 16: 0x0D2D [0x76] CHECK_ENTITY_RENDER_FLAGS: Wait until Yoran-Oran (ID: 17756188/0x010EF01C) Render.Flags0 and Render.Flags3 conditions are met
 17: 0x0D32 [0x92] Yoran-Oran (ID: 17756188/0x010EF01C)->Render.Flags3 ^= 0x01
 18: 0x0D38 [0x29] REQ_SET_WAIT(priority=0x08, entity_id=Yoran-Oran (ID: 17756188/0x010EF01C), tag_num=0x34)
 19: 0x0D3F [0x02] IF !(Work_Zone[9] == 5*) GOTO 0x0D5B
 20: 0x0D47 [0x45] LOAD_SCHEDULED_TASK: Load scheduler "s105" with entities [EventEntity, EventEntity], work=[120*, 0*]
 21: 0x0D58 [0x01] GOTO 0x0D88
 22: 0x0D5B [0x02] IF !(Work_Zone[9] == 6*) GOTO 0x0D77
 23: 0x0D63 [0x45] LOAD_SCHEDULED_TASK: Load scheduler "s105" with entities [EventEntity, EventEntity], work=[120*, 0*]
 24: 0x0D74 [0x01] GOTO 0x0D88
 25: 0x0D77 [0x45] LOAD_SCHEDULED_TASK: Load scheduler "s035" with entities [EventEntity, EventEntity], work=[120*, 0*]

SUBROUTINE_0D88:
 26: 0x0D88 [0x45] LOAD_SCHEDULED_TASK: Load scheduler "fdi1" with entities [EventEntity, EventEntity], work=[200*, 0*]
 27: 0x0D99 [0x29] REQ_SET_WAIT(priority=0x08, entity_id=Yoran-Oran (ID: 17756188/0x010EF01C), tag_num=0x07)
 28: 0x0DA0 [0x2B] Yoran-Oran (ID: 17756188/0x010EF01C) [9448*]:
    → "Hm!? Honoi-Gomoi entrusted-ethy you with $6? But this is no good-ethy if it's broken!"
 29: 0x0DA7 [0x23] WAIT_FOR_DIALOG_INTERACTION
 30: 0x0DA8 [0x29] REQ_SET_WAIT(priority=0x08, entity_id=Yoran-Oran (ID: 17756188/0x010EF01C), tag_num=0x08)
 31: 0x0DAF [0x29] REQ_SET_WAIT(priority=0x08, entity_id=Yoran-Oran (ID: 17756188/0x010EF01C), tag_num=0x03)
 32: 0x0DB6 [0x2B] Yoran-Oran (ID: 17756188/0x010EF01C) [9449*]:
    → "No good-ethy! No good-ethy! Think-ethy, Yoran-Oran! Think-ethy!"
 33: 0x0DBD [0x23] WAIT_FOR_DIALOG_INTERACTION
 34: 0x0DBE [0x29] REQ_SET_WAIT(priority=0x08, entity_id=Yoran-Oran (ID: 17756188/0x010EF01C), tag_num=0x04)
 35: 0x0DC5 [0x02] IF !(Work_Zone[9] == 5*) GOTO 0x0DDF
 36: 0x0DCD [0x52] END_LOAD_SCHEDULER: End scheduler "s105" with entities [EventEntity, EventEntity], work=120*
 37: 0x0DDC [0x01] GOTO 0x0E08
 38: 0x0DDF [0x02] IF !(Work_Zone[9] == 6*) GOTO 0x0DF9
 39: 0x0DE7 [0x52] END_LOAD_SCHEDULER: End scheduler "s105" with entities [EventEntity, EventEntity], work=120*
 40: 0x0DF6 [0x01] GOTO 0x0E08
 41: 0x0DF9 [0x52] END_LOAD_SCHEDULER: End scheduler "s035" with entities [EventEntity, EventEntity], work=120*

SUBROUTINE_0E08:
 42: 0x0E08 [0x45] LOAD_SCHEDULED_TASK: Load scheduler "s090" with entities [EventEntity, EventEntity], work=[120*, 0*]
 43: 0x0E19 [0x4E] SET_ENTITY_HIDE_FLAG: Hide LocalPlayer
 44: 0x0E1F [0x29] REQ_SET_WAIT(priority=0x08, entity_id=Yoran-Oran (ID: 17756188/0x010EF01C), tag_num=0x05)
 45: 0x0E26 [0x2B] Yoran-Oran (ID: 17756188/0x010EF01C) [9450*]:
    → "I have it! To fix the Mimeo Mirror, we will need-ethy $6 formed from $6. Better make that three of them!"
 46: 0x0E2D [0x23] WAIT_FOR_DIALOG_INTERACTION
 47: 0x0E2E [0x29] REQ_SET_WAIT(priority=0x08, entity_id=Yoran-Oran (ID: 17756188/0x010EF01C), tag_num=0x06)
 48: 0x0E35 [0x29] REQ_SET_WAIT(priority=0x08, entity_id=Yoran-Oran (ID: 17756188/0x010EF01C), tag_num=0x01)
 49: 0x0E3C [0x2B] Yoran-Oran (ID: 17756188/0x010EF01C) [9451*]:
    → "Adventurer! You must-ethy go to the Attohwa Chasm and obtain-ethy yourself some Mimeo Jewels!"
 50: 0x0E43 [0x23] WAIT_FOR_DIALOG_INTERACTION
 51: 0x0E44 [0x2B] Yoran-Oran (ID: 17756188/0x010EF01C) [9452*]:
    → "Then take-ethy them to the tippity-top of Parradamo Tor to transform-ethy them into Mimeo Feathers! Remember, I need-ethy three of them!"
 52: 0x0E4B [0x23] WAIT_FOR_DIALOG_INTERACTION
 53: 0x0E4C [0x29] REQ_SET_WAIT(priority=0x08, entity_id=Yoran-Oran (ID: 17756188/0x010EF01C), tag_num=0x02)
 54: 0x0E53 [0x29] REQ_SET_WAIT(priority=0x08, entity_id=Yoran-Oran (ID: 17756188/0x010EF01C), tag_num=0x2C)
 55: 0x0E5A [0x2B] Yoran-Oran (ID: 17756188/0x010EF01C) [9453*]:
    → "It will take-ethy all your skills and more to accomplish-ethy this task, but I know you can do it! You must-ethy be able to do it! I need-ethy you to be able to do it!"
 56: 0x0E61 [0x23] WAIT_FOR_DIALOG_INTERACTION
 57: 0x0E62 [0x29] REQ_SET_WAIT(priority=0x08, entity_id=Yoran-Oran (ID: 17756188/0x010EF01C), tag_num=0x2D)
 58: 0x0E69 [0x5D] SET_MUSIC_VOLUME(volume=0*, fade_time=120*)
 59: 0x0E6E [0x45] LOAD_SCHEDULED_TASK: Load scheduler "fdo1" with entities [LocalPlayer, LocalPlayer], work=[200*, 0*]
 60: 0x0E7F [0x1C] WAIT(120* ticks)
 61: 0x0E82 [0x52] END_LOAD_SCHEDULER: End scheduler "s090" with entities [EventEntity, EventEntity], work=120*
 62: 0x0E91 [0x5C] MUSIC_CONTROL: Set Idle (Day) music to song 151*
 63: 0x0E95 [0x5C] MUSIC_CONTROL: Set Idle (Night) music to song 151*
 64: 0x0E99 [0x4E] SET_ENTITY_HIDE_FLAG: Show LocalPlayer
 65: 0x0E9F [0x80] LOAD_WAIT(entity=LocalPlayer)
 66: 0x0EA4 [0x46] CAMERA_CONTROL: Restore default settings
 67: 0x0EA6 [0x45] LOAD_SCHEDULED_TASK: Load scheduler "fdi1" with entities [LocalPlayer, LocalPlayer], work=[200*, 0*]
 68: 0x0EB7 [0x20] SET_CLI_EVENT_UC_FLAG: Unlock player control
 69: 0x0EB9 [0x21] END_EVENT
 70: 0x0EBA [0x00] END_REQSTACK()
```

### Event 471

#### Metadata

| Field        | Value     |
|--------------|-----------|
| Entrypoint   | 0x0EBB    |
| Data Size    | 428 bytes |
| Instructions | 63        |

```
      00 01 02 03 04 05 06 07  08 09 0A 0B 0C 0D 0E 0F
      -- -- -- -- -- -- -- --  -- -- -- -- -- -- -- --
0EB0:                                   20 01 42 46 01              .BF.
0EC0: 4A 1C F0 0E 01 F0 FF FF  7F 5D 00 80 07 80 45 02  J........]....E.
0ED0: 80 F8 FF FF 7F F8 FF FF  7F 66 64 6F 31 00 80 1C  .........fdo1...
0EE0: 07 80 6F 76 1C F0 0E 01  38 04 80 29 08 F0 FF FF  ..ov....8..)....
0EF0: 7F 05 75 00 05 80 75 01  1C 03 80 5C 00 0A 80 5C  ..u...u....\...\
0F00: 01 0A 80 29 0B F0 FF FF  7F 69 4A 1C F0 0E 01 F0  ...).....iJ.....
0F10: FF FF 7F 6F 76 1C F0 0E  01 92 01 1C F0 0E 01 02  ...ov...........
0F20: 09 10 06 80 00 3B 0F 45  07 80 F8 FF FF 7F F8 FF  .....;.E........
0F30: FF 7F 73 31 30 35 00 80  01 68 0F 02 09 10 08 80  ..s105...h......
0F40: 00 57 0F 45 07 80 F8 FF  FF 7F F8 FF FF 7F 73 31  .W.E..........s1
0F50: 30 35 00 80 01 68 0F 45  07 80 F8 FF FF 7F F8 FF  05...h.E........
0F60: FF 7F 73 30 33 35 00 80  45 02 80 F8 FF FF 7F F8  ..s035..E.......
0F70: FF FF 7F 66 64 69 31 00  80 29 08 1C F0 0E 01 07  ...fdi1..)......
0F80: 2B 1C F0 0E 01 4F 80 23  29 08 1C F0 0E 01 08 29  +....O.#)......)
0F90: 08 1C F0 0E 01 0B 2B 1C  F0 0E 01 50 80 23 29 08  ......+....P.#).
0FA0: 1C F0 0E 01 0C 02 09 10  06 80 00 BF 0F 52 07 80  .............R..
0FB0: F8 FF FF 7F F8 FF FF 7F  73 31 30 35 01 E8 0F 02  ........s105....
0FC0: 09 10 08 80 00 D9 0F 52  07 80 F8 FF FF 7F F8 FF  .......R........
0FD0: FF 7F 73 31 30 35 01 E8  0F 52 07 80 F8 FF FF 7F  ..s105...R......
0FE0: F8 FF FF 7F 73 30 33 35  45 07 80 F8 FF FF 7F F8  ....s035E.......
0FF0: FF FF 7F 73 30 39 30 00  80 4E 01 F0 FF FF 7F 29  ...s090..N.....)
1000: 08 1C F0 0E 01 0F 2B 1C  F0 0E 01 51 80 23 29 08  ......+....Q.#).
1010: 1C F0 0E 01 10 5D 00 80  07 80 45 02 80 F0 FF FF  .....]....E.....
1020: 7F F0 FF FF 7F 66 64 6F  31 00 80 1C 07 80 52 07  .....fdo1.....R.
1030: 80 F8 FF FF 7F F8 FF FF  7F 73 30 39 30 5C 00 48  .........s090\.H
1040: 80 5C 01 48 80 4E 00 F0  FF FF 7F 80 F0 FF FF 7F  .\.H.N..........
1050: 46 00 45 02 80 F0 FF FF  7F F0 FF FF 7F 66 64 69  F.E..........fdi
1060: 31 00 80 20 00 21 00                              1.. .!.         
```

#### Opcodes

```
  0: 0x0EBB [0x20] SET_CLI_EVENT_UC_FLAG: Lock player control
  1: 0x0EBD [0x42] SET_CLI_EVENT_CANCEL_DATA()
  2: 0x0EBE [0x46] CAMERA_CONTROL: Disable user control
  3: 0x0EC0 [0x4A] Yoran-Oran (ID: 17756188/0x010EF01C) looks at LocalPlayer
  4: 0x0EC9 [0x5D] SET_MUSIC_VOLUME(volume=0*, fade_time=120*)
  5: 0x0ECE [0x45] LOAD_SCHEDULED_TASK: Load scheduler "fdo1" with entities [EventEntity, EventEntity], work=[200*, 0*]
  6: 0x0EDF [0x1C] WAIT(120* ticks)
  7: 0x0EE2 [0x6F] WAIT_FRAME_DELAY: Yield until WaitTime reaches zero
  8: 0x0EE3 [0x76] CHECK_ENTITY_RENDER_FLAGS: Wait until Yoran-Oran (ID: 17756188/0x010EF01C) Render.Flags0 and Render.Flags3 conditions are met
  9: 0x0EE8 [0x38] SET_CLIENT_EVENT_MODE(mode=19*)
 10: 0x0EEB [0x29] REQ_SET_WAIT(priority=0x08, entity_id=LocalPlayer, tag_num=0x05)
 11: 0x0EF2 [0x75] LOAD_ROOM(Load indoor room, room=402*)
 12: 0x0EF6 [0x75] LOAD_ROOM(No action)
 13: 0x0EF8 [0x1C] WAIT(60* ticks)
 14: 0x0EFB [0x5C] MUSIC_CONTROL: Set Idle (Day) music to song 163*
 15: 0x0EFF [0x5C] MUSIC_CONTROL: Set Idle (Night) music to song 163*
 16: 0x0F03 [0x29] REQ_SET_WAIT(priority=0x0B, entity_id=LocalPlayer, tag_num=0x69)
 17: 0x0F0A [0x4A] Yoran-Oran (ID: 17756188/0x010EF01C) looks at LocalPlayer
 18: 0x0F13 [0x6F] WAIT_FRAME_DELAY: Yield until WaitTime reaches zero
 19: 0x0F14 [0x76] CHECK_ENTITY_RENDER_FLAGS: Wait until Yoran-Oran (ID: 17756188/0x010EF01C) Render.Flags0 and Render.Flags3 conditions are met
 20: 0x0F19 [0x92] Yoran-Oran (ID: 17756188/0x010EF01C)->Render.Flags3 ^= 0x01
 21: 0x0F1F [0x02] IF !(Work_Zone[9] == 5*) GOTO 0x0F3B
 22: 0x0F27 [0x45] LOAD_SCHEDULED_TASK: Load scheduler "s105" with entities [EventEntity, EventEntity], work=[120*, 0*]
 23: 0x0F38 [0x01] GOTO 0x0F68
 24: 0x0F3B [0x02] IF !(Work_Zone[9] == 6*) GOTO 0x0F57
 25: 0x0F43 [0x45] LOAD_SCHEDULED_TASK: Load scheduler "s105" with entities [EventEntity, EventEntity], work=[120*, 0*]
 26: 0x0F54 [0x01] GOTO 0x0F68
 27: 0x0F57 [0x45] LOAD_SCHEDULED_TASK: Load scheduler "s035" with entities [EventEntity, EventEntity], work=[120*, 0*]

SUBROUTINE_0F68:
 28: 0x0F68 [0x45] LOAD_SCHEDULED_TASK: Load scheduler "fdi1" with entities [EventEntity, EventEntity], work=[200*, 0*]
 29: 0x0F79 [0x29] REQ_SET_WAIT(priority=0x08, entity_id=Yoran-Oran (ID: 17756188/0x010EF01C), tag_num=0x07)
 30: 0x0F80 [0x2B] Yoran-Oran (ID: 17756188/0x010EF01C) [9454*]:
    → "Excellent, this is everything I need-ethy! I'll get straight-ethy to work!"
 31: 0x0F87 [0x23] WAIT_FOR_DIALOG_INTERACTION
 32: 0x0F88 [0x29] REQ_SET_WAIT(priority=0x08, entity_id=Yoran-Oran (ID: 17756188/0x010EF01C), tag_num=0x08)
 33: 0x0F8F [0x29] REQ_SET_WAIT(priority=0x08, entity_id=Yoran-Oran (ID: 17756188/0x010EF01C), tag_num=0x0B)
 34: 0x0F96 [0x2B] Yoran-Oran (ID: 17756188/0x010EF01C) [9455*]:
    → "Oh, and make sure you find-ethy those three troublemakers before I finish repairing-ethy the mirror!"
 35: 0x0F9D [0x23] WAIT_FOR_DIALOG_INTERACTION
 36: 0x0F9E [0x29] REQ_SET_WAIT(priority=0x08, entity_id=Yoran-Oran (ID: 17756188/0x010EF01C), tag_num=0x0C)
 37: 0x0FA5 [0x02] IF !(Work_Zone[9] == 5*) GOTO 0x0FBF
 38: 0x0FAD [0x52] END_LOAD_SCHEDULER: End scheduler "s105" with entities [EventEntity, EventEntity], work=120*
 39: 0x0FBC [0x01] GOTO 0x0FE8
 40: 0x0FBF [0x02] IF !(Work_Zone[9] == 6*) GOTO 0x0FD9
 41: 0x0FC7 [0x52] END_LOAD_SCHEDULER: End scheduler "s105" with entities [EventEntity, EventEntity], work=120*
 42: 0x0FD6 [0x01] GOTO 0x0FE8
 43: 0x0FD9 [0x52] END_LOAD_SCHEDULER: End scheduler "s035" with entities [EventEntity, EventEntity], work=120*

SUBROUTINE_0FE8:
 44: 0x0FE8 [0x45] LOAD_SCHEDULED_TASK: Load scheduler "s090" with entities [EventEntity, EventEntity], work=[120*, 0*]
 45: 0x0FF9 [0x4E] SET_ENTITY_HIDE_FLAG: Hide LocalPlayer
 46: 0x0FFF [0x29] REQ_SET_WAIT(priority=0x08, entity_id=Yoran-Oran (ID: 17756188/0x010EF01C), tag_num=0x0F)
 47: 0x1006 [0x2B] Yoran-Oran (ID: 17756188/0x010EF01C) [9456*]:
    → "I must fix-ethy this mirror! I need to fix-ethy this mirror! I will fix-ethy this mirror!"
 48: 0x100D [0x23] WAIT_FOR_DIALOG_INTERACTION
 49: 0x100E [0x29] REQ_SET_WAIT(priority=0x08, entity_id=Yoran-Oran (ID: 17756188/0x010EF01C), tag_num=0x10)
 50: 0x1015 [0x5D] SET_MUSIC_VOLUME(volume=0*, fade_time=120*)
 51: 0x101A [0x45] LOAD_SCHEDULED_TASK: Load scheduler "fdo1" with entities [LocalPlayer, LocalPlayer], work=[200*, 0*]
 52: 0x102B [0x1C] WAIT(120* ticks)
 53: 0x102E [0x52] END_LOAD_SCHEDULER: End scheduler "s090" with entities [EventEntity, EventEntity], work=120*
 54: 0x103D [0x5C] MUSIC_CONTROL: Set Idle (Day) music to song 151*
 55: 0x1041 [0x5C] MUSIC_CONTROL: Set Idle (Night) music to song 151*
 56: 0x1045 [0x4E] SET_ENTITY_HIDE_FLAG: Show LocalPlayer
 57: 0x104B [0x80] LOAD_WAIT(entity=LocalPlayer)
 58: 0x1050 [0x46] CAMERA_CONTROL: Restore default settings
 59: 0x1052 [0x45] LOAD_SCHEDULED_TASK: Load scheduler "fdi1" with entities [LocalPlayer, LocalPlayer], work=[200*, 0*]
 60: 0x1063 [0x20] SET_CLI_EVENT_UC_FLAG: Unlock player control
 61: 0x1065 [0x21] END_EVENT
 62: 0x1066 [0x00] END_REQSTACK()
```

### Event 472

#### Metadata

| Field        | Value     |
|--------------|-----------|
| Entrypoint   | 0x1067    |
| Data Size    | 757 bytes |
| Instructions | 114       |

```
      00 01 02 03 04 05 06 07  08 09 0A 0B 0C 0D 0E 0F
      -- -- -- -- -- -- -- --  -- -- -- -- -- -- -- --
1060:                      20  01 42 46 01 5D 00 80 07          .BF.]...
1070: 80 45 02 80 F8 FF FF 7F  F8 FF FF 7F 66 64 6F 31  .E..........fdo1
1080: 00 80 1C 03 80 38 04 80  29 08 F0 FF FF 7F 05 75  .....8..)......u
1090: 00 05 80 75 01 1C 03 80  92 01 1C F0 0E 01 29 0B  ...u..........).
10A0: F0 FF FF 7F 69 4A 1C F0  0E 01 F0 FF FF 7F 6F 76  ....iJ........ov
10B0: 1C F0 0E 01 5C 00 52 80  5C 01 52 80 45 07 80 F8  ....\.R.\.R.E...
10C0: FF FF 7F F8 FF FF 7F 73  30 39 30 00 80 45 02 80  .......s090..E..
10D0: F8 FF FF 7F F8 FF FF 7F  66 64 69 31 00 80 29 08  ........fdi1..).
10E0: 1C F0 0E 01 21 2B 1C F0  0E 01 53 80 23 29 08 1C  ....!+....S.#)..
10F0: F0 0E 01 22 52 07 80 F8  FF FF 7F F8 FF FF 7F 73  ..."R..........s
1100: 30 39 30 45 07 80 F8 FF  FF 7F F8 FF FF 7F 73 30  090E..........s0
1110: 39 31 00 80 29 08 1C F0  0E 01 23 2B 1C F0 0E 01  91..).....#+....
1120: 54 80 23 29 08 1C F0 0E  01 24 29 08 1C F0 0E 01  T.#).....$).....
1130: 0B 2B 1C F0 0E 01 55 80  23 29 08 1C F0 0E 01 0C  .+....U.#)......
1140: 52 07 80 F8 FF FF 7F F8  FF FF 7F 73 30 39 31 5D  R..........s091]
1150: 00 80 07 80 45 02 80 F8  FF FF 7F F8 FF FF 7F 66  ....E..........f
1160: 64 6F 31 00 80 1C 07 80  29 08 1C F0 0E 01 25 29  do1.....).....%)
1170: 08 1C F0 0E 01 26 4B 1C  F0 0E 01 00 80 6F 76 1C  .....&K......ov.
1180: F0 0E 01 45 07 80 F8 FF  FF 7F F8 FF FF 7F 73 30  ...E..........s0
1190: 39 32 00 80 45 02 80 F8  FF FF 7F F8 FF FF 7F 66  92..E..........f
11A0: 64 69 31 00 80 1C 38 80  29 08 1C F0 0E 01 07 2B  di1...8.)......+
11B0: 1C F0 0E 01 56 80 23 29  08 1C F0 0E 01 08 29 08  ....V.#)......).
11C0: 1C F0 0E 01 27 2B 1C F0  0E 01 57 80 23 29 08 1C  ....'+....W.#)..
11D0: F0 0E 01 28 4A 1C F0 0E  01 F0 FF FF 7F 6F 76 1C  ...(J........ov.
11E0: F0 0E 01 2B 1C F0 0E 01  58 80 23 52 07 80 F8 FF  ...+....X.#R....
11F0: FF 7F F8 FF FF 7F 73 30  39 32 45 07 80 F8 FF FF  ......s092E.....
1200: 7F F8 FF FF 7F 73 30 39  30 00 80 5C 00 59 80 5C  .....s090..\.Y.\
1210: 01 59 80 29 08 1C F0 0E  01 03 2B 1C F0 0E 01 5A  .Y.)......+....Z
1220: 80 23 29 08 1C F0 0E 01  04 29 08 1C F0 0E 01 05  .#)......)......
1230: 2B 1C F0 0E 01 5B 80 23  29 08 1C F0 0E 01 06 52  +....[.#)......R
1240: 07 80 F8 FF FF 7F F8 FF  FF 7F 73 30 39 30 45 07  ..........s090E.
1250: 80 F8 FF FF 7F F8 FF FF  7F 73 30 39 33 00 80 27  .........s093..'
1260: 0B 1C F0 0E 01 70 2B 1C  F0 0E 01 5C 80 23 2A 0B  .....p+....\.#*.
1270: 1C F0 0E 01 4A F0 FF FF  7F 1C F0 0E 01 6F 76 F0  ....J........ov.
1280: FF FF 7F 29 08 1C F0 0E  01 03 2B 1C F0 0E 01 5D  ...)......+....]
1290: 80 23 29 08 1C F0 0E 01  04 29 08 1C F0 0E 01 05  .#)......)......
12A0: 2B 1C F0 0E 01 5E 80 23  29 08 1C F0 0E 01 06 52  +....^.#)......R
12B0: 07 80 F8 FF FF 7F F8 FF  FF 7F 73 30 39 33 45 07  ..........s093E.
12C0: 80 F8 FF FF 7F F8 FF FF  7F 73 30 39 34 00 80 4A  .........s094..J
12D0: 1C F0 0E 01 F0 FF FF 7F  6F 76 1C F0 0E 01 29 08  ........ov....).
12E0: 1C F0 0E 01 01 2B 1C F0  0E 01 5F 80 23 29 08 1C  .....+...._.#)..
12F0: F0 0E 01 02 29 08 1C F0  0E 01 09 2B 1C F0 0E 01  ....)......+....
1300: 60 80 23 29 08 1C F0 0E  01 0A 5D 00 80 07 80 45  `.#)......]....E
1310: 02 80 F0 FF FF 7F F0 FF  FF 7F 66 64 6F 31 00 80  ..........fdo1..
1320: 1C 07 80 52 07 80 F8 FF  FF 7F F8 FF FF 7F 73 30  ...R..........s0
1330: 39 34 5C 00 48 80 5C 01  48 80 4E 00 F0 FF FF 7F  94\.H.\.H.N.....
1340: 80 F0 FF FF 7F 46 00 45  02 80 F0 FF FF 7F F0 FF  .....F.E........
1350: FF 7F 66 64 69 31 00 80  20 00 21 00              ..fdi1.. .!.    
```

#### Opcodes

```
  0: 0x1067 [0x20] SET_CLI_EVENT_UC_FLAG: Lock player control
  1: 0x1069 [0x42] SET_CLI_EVENT_CANCEL_DATA()
  2: 0x106A [0x46] CAMERA_CONTROL: Disable user control
  3: 0x106C [0x5D] SET_MUSIC_VOLUME(volume=0*, fade_time=120*)
  4: 0x1071 [0x45] LOAD_SCHEDULED_TASK: Load scheduler "fdo1" with entities [EventEntity, EventEntity], work=[200*, 0*]
  5: 0x1082 [0x1C] WAIT(60* ticks)
  6: 0x1085 [0x38] SET_CLIENT_EVENT_MODE(mode=19*)
  7: 0x1088 [0x29] REQ_SET_WAIT(priority=0x08, entity_id=LocalPlayer, tag_num=0x05)
  8: 0x108F [0x75] LOAD_ROOM(Load indoor room, room=402*)
  9: 0x1093 [0x75] LOAD_ROOM(No action)
 10: 0x1095 [0x1C] WAIT(60* ticks)
 11: 0x1098 [0x92] Yoran-Oran (ID: 17756188/0x010EF01C)->Render.Flags3 ^= 0x01
 12: 0x109E [0x29] REQ_SET_WAIT(priority=0x0B, entity_id=LocalPlayer, tag_num=0x69)
 13: 0x10A5 [0x4A] Yoran-Oran (ID: 17756188/0x010EF01C) looks at LocalPlayer
 14: 0x10AE [0x6F] WAIT_FRAME_DELAY: Yield until WaitTime reaches zero
 15: 0x10AF [0x76] CHECK_ENTITY_RENDER_FLAGS: Wait until Yoran-Oran (ID: 17756188/0x010EF01C) Render.Flags0 and Render.Flags3 conditions are met
 16: 0x10B4 [0x5C] MUSIC_CONTROL: Set Idle (Day) music to song 234*
 17: 0x10B8 [0x5C] MUSIC_CONTROL: Set Idle (Night) music to song 234*
 18: 0x10BC [0x45] LOAD_SCHEDULED_TASK: Load scheduler "s090" with entities [EventEntity, EventEntity], work=[120*, 0*]
 19: 0x10CD [0x45] LOAD_SCHEDULED_TASK: Load scheduler "fdi1" with entities [EventEntity, EventEntity], work=[200*, 0*]
 20: 0x10DE [0x29] REQ_SET_WAIT(priority=0x08, entity_id=Yoran-Oran (ID: 17756188/0x010EF01C), tag_num=0x21)
 21: 0x10E5 [0x2B] Yoran-Oran (ID: 17756188/0x010EF01C) [9457*]:
    → "It's fixed! I've fixed it! I've repaired-ethy the mirror!"
 22: 0x10EC [0x23] WAIT_FOR_DIALOG_INTERACTION
 23: 0x10ED [0x29] REQ_SET_WAIT(priority=0x08, entity_id=Yoran-Oran (ID: 17756188/0x010EF01C), tag_num=0x22)
 24: 0x10F4 [0x52] END_LOAD_SCHEDULER: End scheduler "s090" with entities [EventEntity, EventEntity], work=120*
 25: 0x1103 [0x45] LOAD_SCHEDULED_TASK: Load scheduler "s091" with entities [EventEntity, EventEntity], work=[120*, 0*]
 26: 0x1114 [0x29] REQ_SET_WAIT(priority=0x08, entity_id=Yoran-Oran (ID: 17756188/0x010EF01C), tag_num=0x23)
 27: 0x111B [0x2B] Yoran-Oran (ID: 17756188/0x010EF01C) [9458*]:
    → "Now, adventurer, it is time to put-ethy these false accusations to rest."
 28: 0x1122 [0x23] WAIT_FOR_DIALOG_INTERACTION
 29: 0x1123 [0x29] REQ_SET_WAIT(priority=0x08, entity_id=Yoran-Oran (ID: 17756188/0x010EF01C), tag_num=0x24)
 30: 0x112A [0x29] REQ_SET_WAIT(priority=0x08, entity_id=Yoran-Oran (ID: 17756188/0x010EF01C), tag_num=0x0B)
 31: 0x1131 [0x2B] Yoran-Oran (ID: 17756188/0x010EF01C) [9459*]:
    → "We must bring-ethy everyone here. Professor Koru-Moru, Doctor Shantotto, the Tarutaru Times, and of course, those three reputation-ruining children from Tavnazia..."
 32: 0x1138 [0x23] WAIT_FOR_DIALOG_INTERACTION
 33: 0x1139 [0x29] REQ_SET_WAIT(priority=0x08, entity_id=Yoran-Oran (ID: 17756188/0x010EF01C), tag_num=0x0C)
 34: 0x1140 [0x52] END_LOAD_SCHEDULER: End scheduler "s091" with entities [EventEntity, EventEntity], work=120*
 35: 0x114F [0x5D] SET_MUSIC_VOLUME(volume=0*, fade_time=120*)
 36: 0x1154 [0x45] LOAD_SCHEDULED_TASK: Load scheduler "fdo1" with entities [EventEntity, EventEntity], work=[200*, 0*]
 37: 0x1165 [0x1C] WAIT(120* ticks)
 38: 0x1168 [0x29] REQ_SET_WAIT(priority=0x08, entity_id=Yoran-Oran (ID: 17756188/0x010EF01C), tag_num=0x25)
 39: 0x116F [0x29] REQ_SET_WAIT(priority=0x08, entity_id=Yoran-Oran (ID: 17756188/0x010EF01C), tag_num=0x26)
 40: 0x1176 [0x4B] UPDATE_ENTITY_YAW(entity=Yoran-Oran (ID: 17756188/0x010EF01C), yaw=0.0°*)
 41: 0x117D [0x6F] WAIT_FRAME_DELAY: Yield until WaitTime reaches zero
 42: 0x117E [0x76] CHECK_ENTITY_RENDER_FLAGS: Wait until Yoran-Oran (ID: 17756188/0x010EF01C) Render.Flags0 and Render.Flags3 conditions are met
 43: 0x1183 [0x45] LOAD_SCHEDULED_TASK: Load scheduler "s092" with entities [EventEntity, EventEntity], work=[120*, 0*]
 44: 0x1194 [0x45] LOAD_SCHEDULED_TASK: Load scheduler "fdi1" with entities [EventEntity, EventEntity], work=[200*, 0*]
 45: 0x11A5 [0x1C] WAIT(90* ticks)
 46: 0x11A8 [0x29] REQ_SET_WAIT(priority=0x08, entity_id=Yoran-Oran (ID: 17756188/0x010EF01C), tag_num=0x07)
 47: 0x11AF [0x2B] Yoran-Oran (ID: 17756188/0x010EF01C) [9460*]:
    → "What-ethy? They've already left!? What about-ethy this matter of questionable parentage!?"
 48: 0x11B6 [0x23] WAIT_FOR_DIALOG_INTERACTION
 49: 0x11B7 [0x29] REQ_SET_WAIT(priority=0x08, entity_id=Yoran-Oran (ID: 17756188/0x010EF01C), tag_num=0x08)
 50: 0x11BE [0x29] REQ_SET_WAIT(priority=0x08, entity_id=Yoran-Oran (ID: 17756188/0x010EF01C), tag_num=0x27)
 51: 0x11C5 [0x2B] Yoran-Oran (ID: 17756188/0x010EF01C) [9461*]:
    → "Simply astonishing-ethy. Who would've guessed-ethy they were the children of Karaha-Baruha..."
 52: 0x11CC [0x23] WAIT_FOR_DIALOG_INTERACTION
 53: 0x11CD [0x29] REQ_SET_WAIT(priority=0x08, entity_id=Yoran-Oran (ID: 17756188/0x010EF01C), tag_num=0x28)
 54: 0x11D4 [0x4A] Yoran-Oran (ID: 17756188/0x010EF01C) looks at LocalPlayer
 55: 0x11DD [0x6F] WAIT_FRAME_DELAY: Yield until WaitTime reaches zero
 56: 0x11DE [0x76] CHECK_ENTITY_RENDER_FLAGS: Wait until Yoran-Oran (ID: 17756188/0x010EF01C) Render.Flags0 and Render.Flags3 conditions are met
 57: 0x11E3 [0x2B] Yoran-Oran (ID: 17756188/0x010EF01C) [9462*]:
    → "Oh dear-ethy. I think-ethy all this excitement has finally caught up to me... So, what was it you wanted from me, then?"
 58: 0x11EA [0x23] WAIT_FOR_DIALOG_INTERACTION
 59: 0x11EB [0x52] END_LOAD_SCHEDULER: End scheduler "s092" with entities [EventEntity, EventEntity], work=120*
 60: 0x11FA [0x45] LOAD_SCHEDULED_TASK: Load scheduler "s090" with entities [EventEntity, EventEntity], work=[120*, 0*]
 61: 0x120B [0x5C] MUSIC_CONTROL: Set Idle (Day) music to song 127*
 62: 0x120F [0x5C] MUSIC_CONTROL: Set Idle (Night) music to song 127*
 63: 0x1213 [0x29] REQ_SET_WAIT(priority=0x08, entity_id=Yoran-Oran (ID: 17756188/0x010EF01C), tag_num=0x03)
 64: 0x121A [0x2B] Yoran-Oran (ID: 17756188/0x010EF01C) [9463*]:
    → "The Rhinostery directed-ethy you here? Ah, you wish to know-ethy about the allied expedition to the Northlands?"
 65: 0x1221 [0x23] WAIT_FOR_DIALOG_INTERACTION
 66: 0x1222 [0x29] REQ_SET_WAIT(priority=0x08, entity_id=Yoran-Oran (ID: 17756188/0x010EF01C), tag_num=0x04)
 67: 0x1229 [0x29] REQ_SET_WAIT(priority=0x08, entity_id=Yoran-Oran (ID: 17756188/0x010EF01C), tag_num=0x05)
 68: 0x1230 [0x2B] Yoran-Oran (ID: 17756188/0x010EF01C) [9464*]:
    → "Since you assisted-ethy me in my recent crisis, I suppose-ethy I can tell you what I know. I must-ethy warn you, though, that precious little was discovered."
 69: 0x1237 [0x23] WAIT_FOR_DIALOG_INTERACTION
 70: 0x1238 [0x29] REQ_SET_WAIT(priority=0x08, entity_id=Yoran-Oran (ID: 17756188/0x010EF01C), tag_num=0x06)
 71: 0x123F [0x52] END_LOAD_SCHEDULER: End scheduler "s090" with entities [EventEntity, EventEntity], work=120*
 72: 0x124E [0x45] LOAD_SCHEDULED_TASK: Load scheduler "s093" with entities [EventEntity, EventEntity], work=[120*, 0*]
 73: 0x125F [0x27] REQ_SET(priority=0x0B, entity_id=Yoran-Oran (ID: 17756188/0x010EF01C), tag_num=0x70)
 74: 0x1266 [0x2B] Yoran-Oran (ID: 17756188/0x010EF01C) [9465*]:
    → "That expedition mostly served to prove-ethy the evil of the Northlands when two of the musketeers from the Bastokan contingent failed-ethy to return."
 75: 0x126D [0x23] WAIT_FOR_DIALOG_INTERACTION
 76: 0x126E [0x2A] GET_REQ_LEVEL(level=11, entity_id=Yoran-Oran (ID: 17756188/0x010EF01C))
 77: 0x1274 [0x4A] LocalPlayer looks at Yoran-Oran (ID: 17756188/0x010EF01C)
 78: 0x127D [0x6F] WAIT_FRAME_DELAY: Yield until WaitTime reaches zero
 79: 0x127E [0x76] CHECK_ENTITY_RENDER_FLAGS: Wait until LocalPlayer Render.Flags0 and Render.Flags3 conditions are met
 80: 0x1283 [0x29] REQ_SET_WAIT(priority=0x08, entity_id=Yoran-Oran (ID: 17756188/0x010EF01C), tag_num=0x03)
 81: 0x128A [0x2B] Yoran-Oran (ID: 17756188/0x010EF01C) [9466*]:
    → "The terrible power in that land has been whispered-ethy about for many years, but I do not believe-ethy that anyone has yet managed to discern where or what this power truly is."
 82: 0x1291 [0x23] WAIT_FOR_DIALOG_INTERACTION
 83: 0x1292 [0x29] REQ_SET_WAIT(priority=0x08, entity_id=Yoran-Oran (ID: 17756188/0x010EF01C), tag_num=0x04)
 84: 0x1299 [0x29] REQ_SET_WAIT(priority=0x08, entity_id=Yoran-Oran (ID: 17756188/0x010EF01C), tag_num=0x05)
 85: 0x12A0 [0x2B] Yoran-Oran (ID: 17756188/0x010EF01C) [9467*]:
    → "Minister Rukususu of the Rhinostery is continuing the investigation of the Northlands, but has discovered-ethy nothing more than a few trivial elements..."
 86: 0x12A7 [0x23] WAIT_FOR_DIALOG_INTERACTION
 87: 0x12A8 [0x29] REQ_SET_WAIT(priority=0x08, entity_id=Yoran-Oran (ID: 17756188/0x010EF01C), tag_num=0x06)
 88: 0x12AF [0x52] END_LOAD_SCHEDULER: End scheduler "s093" with entities [EventEntity, EventEntity], work=120*
 89: 0x12BE [0x45] LOAD_SCHEDULED_TASK: Load scheduler "s094" with entities [EventEntity, EventEntity], work=[120*, 0*]
 90: 0x12CF [0x4A] Yoran-Oran (ID: 17756188/0x010EF01C) looks at LocalPlayer
 91: 0x12D8 [0x6F] WAIT_FRAME_DELAY: Yield until WaitTime reaches zero
 92: 0x12D9 [0x76] CHECK_ENTITY_RENDER_FLAGS: Wait until Yoran-Oran (ID: 17756188/0x010EF01C) Render.Flags0 and Render.Flags3 conditions are met
 93: 0x12DE [0x29] REQ_SET_WAIT(priority=0x08, entity_id=Yoran-Oran (ID: 17756188/0x010EF01C), tag_num=0x01)
 94: 0x12E5 [0x2B] Yoran-Oran (ID: 17756188/0x010EF01C) [9468*]:
    → "All I know-ethy is that it was the suspicious actions of Bastok that interfered-ethy with the original expedition."
 95: 0x12EC [0x23] WAIT_FOR_DIALOG_INTERACTION
 96: 0x12ED [0x29] REQ_SET_WAIT(priority=0x08, entity_id=Yoran-Oran (ID: 17756188/0x010EF01C), tag_num=0x02)
