# 17756342 - 9

## Common Data

| Field            | Value                    |
|------------------|--------------------------|
| Zone             | Windurst Walls (ID: 239) |
| Block Size       | 248 bytes                |
| Total Events     | 11                       |
| References Count | 6                        |

## List of Events

| Event ID                 | Entrypoint   |   Size |   Instructions |
|--------------------------|--------------|--------|----------------|
| [65535](#event-65535)    | 0x0000       |      1 |              1 |
| [510](#event-510)        | 0x0001       |      1 |              1 |
| [514](#event-514)        | 0x0002       |      1 |              1 |
| [65535.1](#event-655351) | 0x0003       |     39 |              6 |
| [65535.2](#event-655352) | 0x002A       |     30 |              3 |
| [65535.3](#event-655353) | 0x0048       |     18 |              2 |
| [65535.4](#event-655354) | 0x005A       |     18 |              2 |
| [65535.5](#event-655355) | 0x006C       |     18 |              2 |
| [65535.6](#event-655356) | 0x007E       |     18 |              2 |
| [65535.7](#event-655357) | 0x0090       |     18 |              2 |
| [511](#event-511)        | 0x00A2       |      1 |              1 |

## DAT References (imed_data)

|   Index | Hex Value   |   Dec Value |
|---------|-------------|-------------|
|       0 | 0x0005      |           5 |
|       1 | 0x001D      |          29 |
|       2 | 0x0013      |          19 |
|       3 | 0x0000      |           0 |
|       4 | 0x00B4      |         180 |
|       5 | 0x00C7      |         199 |

## Events

### Event 65535

#### Metadata

| Field        | Value   |
|--------------|---------|
| Entrypoint   | 0x0000  |
| Data Size    | 1 bytes |
| Instructions | 1       |

```
      00 01 02 03 04 05 06 07  08 09 0A 0B 0C 0D 0E 0F
      -- -- -- -- -- -- -- --  -- -- -- -- -- -- -- --
0000: 00                                                .               
```

#### Opcodes

```
  0: 0x0000 [0x00] END_REQSTACK()
```

### Event 510

#### Metadata

| Field        | Value   |
|--------------|---------|
| Entrypoint   | 0x0001  |
| Data Size    | 1 bytes |
| Instructions | 1       |

```
      00 01 02 03 04 05 06 07  08 09 0A 0B 0C 0D 0E 0F
      -- -- -- -- -- -- -- --  -- -- -- -- -- -- -- --
0000:    00                                              .              
```

#### Opcodes

```
  0: 0x0001 [0x00] END_REQSTACK()
```

### Event 514

#### Metadata

| Field        | Value   |
|--------------|---------|
| Entrypoint   | 0x0002  |
| Data Size    | 1 bytes |
| Instructions | 1       |

```
      00 01 02 03 04 05 06 07  08 09 0A 0B 0C 0D 0E 0F
      -- -- -- -- -- -- -- --  -- -- -- -- -- -- -- --
0000:       00                                            .             
```

#### Opcodes

```
  0: 0x0002 [0x00] END_REQSTACK()
```

### Event 65535.1

#### Metadata

| Field        | Value    |
|--------------|----------|
| Entrypoint   | 0x0003   |
| Data Size    | 39 bytes |
| Instructions | 6        |

```
      00 01 02 03 04 05 06 07  08 09 0A 0B 0C 0D 0E 0F
      -- -- -- -- -- -- -- --  -- -- -- -- -- -- -- --
0000:          B4 00 00 00 3F  3F 3F 00 00 00 00 00 00     ....???......
0010: 00 00 00 00 00 00 00 B5  00 00 00 22 00 92 01 F8  ..........."....
0020: FF FF 7F 94 01 F8 FF FF  7F 00                    ..........      
```

#### Opcodes

```
  0: 0x0003 [0xB4] UI_WINDOW_STRING_HANDLER(case=0x00 - Copy string from opcode, work_offset=ExtData[1]->WorkLocal[0], string="???")
  1: 0x0017 [0xB5] SET_EVENT_ENTITY_NAME: Change EventEntity name to ExtData[1]->WorkLocal[0]
  2: 0x001B [0x22] ENTITY_HIDE_FLAG(enabled=0x00)
  3: 0x001D [0x92] EventEntity->Render.Flags3 ^= 0x01
  4: 0x0023 [0x94] EventEntity->Render.Flags3 ^= 0x01
  5: 0x0029 [0x00] END_REQSTACK()
```

### Event 65535.2

#### Metadata

| Field        | Value    |
|--------------|----------|
| Entrypoint   | 0x002A   |
| Data Size    | 30 bytes |
| Instructions | 3        |

```
      00 01 02 03 04 05 06 07  08 09 0A 0B 0C 0D 0E 0F
      -- -- -- -- -- -- -- --  -- -- -- -- -- -- -- --
0020:                                B6 0B 00 80 01 80            ......
0030: 02 80 02 80 02 80 02 80  02 80 03 80 03 80 6C F8  ..............l.
0040: FF FF 7F 03 80 03 80 00                           ........        
```

#### Opcodes

```
  0: 0x002A [0xB6] ENTITY_APPEARANCE_HANDLER(case=Full entity look, race=5*, hair=29*, head=19*, body=19*, hands=19*, legs=19*, feet=19*, main=0*, sub=0*)
  1: 0x003E [0x6C] FADE_ENTITY_COLOR(entity_id=EventEntity, end_alpha=0*, fade_time=0*)
  2: 0x0047 [0x00] END_REQSTACK()
```

### Event 65535.3

#### Metadata

| Field        | Value    |
|--------------|----------|
| Entrypoint   | 0x0048   |
| Data Size    | 18 bytes |
| Instructions | 2        |

```
      00 01 02 03 04 05 06 07  08 09 0A 0B 0C 0D 0E 0F
      -- -- -- -- -- -- -- --  -- -- -- -- -- -- -- --
0040:                          C5 04 80 F8 FF FF 7F F8          ........
0050: FF FF 7F 73 30 30 30 03  80 00                    ...s000...      
```

#### Opcodes

```
  0: 0x0048 [0xC5] LOAD_SCHEDULED_TASK_ALT3: Load scheduler 0x80033030 for entities [EventEntity, EventEntity], work=180*, param=12403
  1: 0x0059 [0x00] END_REQSTACK()
```

### Event 65535.4

#### Metadata

| Field        | Value    |
|--------------|----------|
| Entrypoint   | 0x005A   |
| Data Size    | 18 bytes |
| Instructions | 2        |

```
      00 01 02 03 04 05 06 07  08 09 0A 0B 0C 0D 0E 0F
      -- -- -- -- -- -- -- --  -- -- -- -- -- -- -- --
0050:                                C5 04 80 F8 FF FF            ......
0060: 7F F8 FF FF 7F 73 30 30  31 03 80 00              .....s001...    
```

#### Opcodes

```
  0: 0x005A [0xC5] LOAD_SCHEDULED_TASK_ALT3: Load scheduler 0x80033130 for entities [EventEntity, EventEntity], work=180*, param=12403
  1: 0x006B [0x00] END_REQSTACK()
```

### Event 65535.5

#### Metadata

| Field        | Value    |
|--------------|----------|
| Entrypoint   | 0x006C   |
| Data Size    | 18 bytes |
| Instructions | 2        |

```
      00 01 02 03 04 05 06 07  08 09 0A 0B 0C 0D 0E 0F
      -- -- -- -- -- -- -- --  -- -- -- -- -- -- -- --
0060:                                      C5 04 80 F8              ....
0070: FF FF 7F F8 FF FF 7F 6B  69 6C 30 03 80 00        .......kil0...  
```

#### Opcodes

```
  0: 0x006C [0xC5] LOAD_SCHEDULED_TASK_ALT3: Load scheduler 0x8003306C for entities [EventEntity, EventEntity], work=180*, param=26987
  1: 0x007D [0x00] END_REQSTACK()
```

### Event 65535.6

#### Metadata

| Field        | Value    |
|--------------|----------|
| Entrypoint   | 0x007E   |
| Data Size    | 18 bytes |
| Instructions | 2        |

```
      00 01 02 03 04 05 06 07  08 09 0A 0B 0C 0D 0E 0F
      -- -- -- -- -- -- -- --  -- -- -- -- -- -- -- --
0070:                                            BB 05                ..
0080: 80 F8 FF FF 7F F8 FF FF  7F 73 30 30 30 03 80 00  .........s000...
```

#### Opcodes

```
  0: 0x007E [0xBB] LOAD_EVENT_SCHEDULER_ALT: Load scheduler "s000" with entities [EventEntity, EventEntity], work=[199*, 0*]
  1: 0x008F [0x00] END_REQSTACK()
```

### Event 65535.7

#### Metadata

| Field        | Value    |
|--------------|----------|
| Entrypoint   | 0x0090   |
| Data Size    | 18 bytes |
| Instructions | 2        |

```
      00 01 02 03 04 05 06 07  08 09 0A 0B 0C 0D 0E 0F
      -- -- -- -- -- -- -- --  -- -- -- -- -- -- -- --
0090: BB 05 80 F8 FF FF 7F F8  FF FF 7F 6B 6C 30 30 03  ...........kl00.
00A0: 80 00                                             ..              
```

#### Opcodes

```
  0: 0x0090 [0xBB] LOAD_EVENT_SCHEDULER_ALT: Load scheduler "kl00" with entities [EventEntity, EventEntity], work=[199*, 0*]
  1: 0x00A1 [0x00] END_REQSTACK()
```

### Event 511

#### Metadata

| Field        | Value   |
|--------------|---------|
| Entrypoint   | 0x00A2  |
| Data Size    | 1 bytes |
| Instructions | 1       |

```
      00 01 02 03 04 05 06 07  08 09 0A 0B 0C 0D 0E 0F
      -- -- -- -- -- -- -- --  -- -- -- -- -- -- -- --
00A0:       00                                            .             
```

#### Opcodes

```
  0: 0x00A2 [0x00] END_REQSTACK()
```
