# 17756186 - Shantotto

## Common Data

| Field            | Value                    |
|------------------|--------------------------|
| Zone             | Windurst Walls (ID: 239) |
| Block Size       | 11084 bytes              |
| Total Events     | 236                      |
| References Count | 327                      |

## List of Events

| Event ID                     | Entrypoint   |   Size |   Instructions |
|------------------------------|--------------|--------|----------------|
| [65535](#event-65535)        | 0x0000       |      1 |              1 |
| [65535.1](#event-655351)     | 0x0001       |     16 |              2 |
| [65535.2](#event-655352)     | 0x0011       |     42 |              4 |
| [65535.3](#event-655353)     | 0x003B       |     16 |              2 |
| [65535.4](#event-655354)     | 0x004B       |     14 |              2 |
| [65535.5](#event-655355)     | 0x0059       |     16 |              2 |
| [65535.6](#event-655356)     | 0x0069       |     14 |              2 |
| [65535.7](#event-655357)     | 0x0077       |     16 |              2 |
| [65535.8](#event-655358)     | 0x0087       |     14 |              2 |
| [65535.9](#event-655359)     | 0x0095       |     16 |              2 |
| [65535.10](#event-6553510)   | 0x00A5       |     14 |              2 |
| [65535.11](#event-6553511)   | 0x00B3       |     16 |              2 |
| [65535.12](#event-6553512)   | 0x00C3       |     14 |              2 |
| [65535.13](#event-6553513)   | 0x00D1       |     16 |              2 |
| [65535.14](#event-6553514)   | 0x00E1       |     14 |              2 |
| [65535.15](#event-6553515)   | 0x00EF       |     16 |              2 |
| [65535.16](#event-6553516)   | 0x00FF       |     14 |              2 |
| [65535.17](#event-6553517)   | 0x010D       |     16 |              2 |
| [65535.18](#event-6553518)   | 0x011D       |     14 |              2 |
| [65535.19](#event-6553519)   | 0x012B       |     16 |              2 |
| [65535.20](#event-6553520)   | 0x013B       |     22 |              4 |
| [65535.21](#event-6553521)   | 0x0151       |     16 |              2 |
| [65535.22](#event-6553522)   | 0x0161       |     14 |              2 |
| [65535.23](#event-6553523)   | 0x016F       |     16 |              2 |
| [65535.24](#event-6553524)   | 0x017F       |     14 |              2 |
| [65535.25](#event-6553525)   | 0x018D       |     16 |              2 |
| [65535.26](#event-6553526)   | 0x019D       |     22 |              4 |
| [65535.27](#event-6553527)   | 0x01B3       |     16 |              2 |
| [65535.28](#event-6553528)   | 0x01C3       |     14 |              2 |
| [65535.29](#event-6553529)   | 0x01D1       |     16 |              2 |
| [65535.30](#event-6553530)   | 0x01E1       |     14 |              2 |
| [65535.31](#event-6553531)   | 0x01EF       |     16 |              2 |
| [65535.32](#event-6553532)   | 0x01FF       |     14 |              2 |
| [65535.33](#event-6553533)   | 0x020D       |     16 |              2 |
| [65535.34](#event-6553534)   | 0x021D       |     14 |              2 |
| [65535.35](#event-6553535)   | 0x022B       |     16 |              2 |
| [65535.36](#event-6553536)   | 0x023B       |     14 |              2 |
| [65535.37](#event-6553537)   | 0x0249       |     16 |              2 |
| [65535.38](#event-6553538)   | 0x0259       |     14 |              2 |
| [65535.39](#event-6553539)   | 0x0267       |     16 |              2 |
| [65535.40](#event-6553540)   | 0x0277       |     14 |              2 |
| [65535.41](#event-6553541)   | 0x0285       |     16 |              2 |
| [65535.42](#event-6553542)   | 0x0295       |     22 |              4 |
| [65535.43](#event-6553543)   | 0x02AB       |     44 |              4 |
| [65535.44](#event-6553544)   | 0x02D7       |     16 |              2 |
| [65535.45](#event-6553545)   | 0x02E7       |     14 |              2 |
| [65535.46](#event-6553546)   | 0x02F5       |     18 |              4 |
| [65535.47](#event-6553547)   | 0x0307       |     18 |              4 |
| [65535.48](#event-6553548)   | 0x0319       |     18 |              4 |
| [65535.49](#event-6553549)   | 0x032B       |     18 |              4 |
| [65535.50](#event-6553550)   | 0x033D       |     18 |              4 |
| [65535.51](#event-6553551)   | 0x034F       |     27 |              3 |
| [65535.52](#event-6553552)   | 0x036A       |      9 |              3 |
| [65535.53](#event-6553553)   | 0x0373       |     16 |              2 |
| [65535.54](#event-6553554)   | 0x0383       |     14 |              2 |
| [65535.55](#event-6553555)   | 0x0391       |     16 |              2 |
| [65535.56](#event-6553556)   | 0x03A1       |     14 |              2 |
| [65535.57](#event-6553557)   | 0x03AF       |     16 |              2 |
| [65535.58](#event-6553558)   | 0x03BF       |     14 |              2 |
| [65535.59](#event-6553559)   | 0x03CD       |     16 |              2 |
| [65535.60](#event-6553560)   | 0x03DD       |     14 |              2 |
| [65535.61](#event-6553561)   | 0x03EB       |     16 |              2 |
| [65535.62](#event-6553562)   | 0x03FB       |     14 |              2 |
| [65535.63](#event-6553563)   | 0x0409       |     16 |              2 |
| [65535.64](#event-6553564)   | 0x0419       |     14 |              2 |
| [65535.65](#event-6553565)   | 0x0427       |     16 |              2 |
| [65535.66](#event-6553566)   | 0x0437       |     14 |              2 |
| [65535.67](#event-6553567)   | 0x0445       |     16 |              2 |
| [65535.68](#event-6553568)   | 0x0455       |     14 |              2 |
| [65535.69](#event-6553569)   | 0x0463       |     16 |              2 |
| [65535.70](#event-6553570)   | 0x0473       |     14 |              2 |
| [443](#event-443)            | 0x0481       |     16 |              3 |
| [163](#event-163)            | 0x0491       |     33 |             12 |
| [164](#event-164)            | 0x04B2       |     29 |             10 |
| [165](#event-165)            | 0x04CF       |     29 |             10 |
| [171](#event-171)            | 0x04EC       |    132 |             35 |
| [172](#event-172)            | 0x0570       |     29 |             10 |
| [173](#event-173)            | 0x058D       |     72 |             18 |
| [65535.71](#event-6553571)   | 0x05D5       |      5 |              3 |
| [174](#event-174)            | 0x05DA       |     29 |             10 |
| [177](#event-177)            | 0x05F7       |     51 |             16 |
| [178](#event-178)            | 0x062A       |     33 |             12 |
| [180](#event-180)            | 0x064B       |    101 |             24 |
| [65535.72](#event-6553572)   | 0x06B0       |    125 |             24 |
| [65535.73](#event-6553573)   | 0x072D       |     23 |              7 |
| [65535.74](#event-6553574)   | 0x0744       |     23 |              7 |
| [65535.75](#event-6553575)   | 0x075B       |     23 |              7 |
| [65535.76](#event-6553576)   | 0x0772       |     23 |              7 |
| [65535.77](#event-6553577)   | 0x0789       |     19 |              5 |
| [65535.78](#event-6553578)   | 0x079C       |     19 |              5 |
| [65535.79](#event-6553579)   | 0x07AF       |     19 |              5 |
| [65535.80](#event-6553580)   | 0x07C2       |     19 |              5 |
| [65535.81](#event-6553581)   | 0x07D5       |     23 |              7 |
| [181](#event-181)            | 0x07EC       |     33 |             12 |
| [183](#event-183)            | 0x080D       |     80 |             16 |
| [65535.82](#event-6553582)   | 0x085D       |     19 |              5 |
| [65535.83](#event-6553583)   | 0x0870       |     37 |              9 |
| [65535.84](#event-6553584)   | 0x0895       |     23 |              7 |
| [65535.85](#event-6553585)   | 0x08AC       |     23 |              7 |
| [65535.86](#event-6553586)   | 0x08C3       |     37 |              9 |
| [184](#event-184)            | 0x08E8       |     33 |             12 |
| [340](#event-340)            | 0x0909       |    180 |             37 |
| [65535.87](#event-6553587)   | 0x09BD       |      5 |              3 |
| [65535.88](#event-6553588)   | 0x09C2       |     37 |              9 |
| [65535.89](#event-6553589)   | 0x09E7       |     37 |              9 |
| [65535.90](#event-6553590)   | 0x0A0C       |     37 |              9 |
| [65535.91](#event-6553591)   | 0x0A31       |     23 |              7 |
| [65535.92](#event-6553592)   | 0x0A48       |     19 |              5 |
| [65535.93](#event-6553593)   | 0x0A5B       |     23 |              7 |
| [65535.94](#event-6553594)   | 0x0A72       |      5 |              3 |
| [65535.95](#event-6553595)   | 0x0A77       |     19 |              5 |
| [341](#event-341)            | 0x0A8A       |     51 |             16 |
| [342](#event-342)            | 0x0ABD       |    565 |             80 |
| [65535.96](#event-6553596)   | 0x0CF2       |     15 |              5 |
| [65535.97](#event-6553597)   | 0x0D01       |     21 |              5 |
| [65535.98](#event-6553598)   | 0x0D16       |     30 |              8 |
| [343](#event-343)            | 0x0D34       |     33 |             12 |
| [231](#event-231)            | 0x0D55       |     32 |              9 |
| [65535.99](#event-6553599)   | 0x0D75       |     19 |              5 |
| [65535.100](#event-65535100) | 0x0D88       |     37 |              9 |
| [65535.101](#event-65535101) | 0x0DAD       |     37 |              9 |
| [344](#event-344)            | 0x0DD2       |     33 |             12 |
| [347](#event-347)            | 0x0DF3       |     33 |             12 |
| [396](#event-396)            | 0x0E14       |    382 |             54 |
| [397](#event-397)            | 0x0F92       |    538 |             74 |
| [398](#event-398)            | 0x11AC       |     51 |             16 |
| [399](#event-399)            | 0x11DF       |    105 |             28 |
| [409](#event-409)            | 0x1248       |     83 |             22 |
| [421](#event-421)            | 0x129B       |     48 |             15 |
| [444](#event-444)            | 0x12CB       |     65 |             18 |
| [440](#event-440)            | 0x130C       |     84 |             23 |
| [445](#event-445)            | 0x1360       |    341 |             59 |
| [446](#event-446)            | 0x14B5       |    280 |             66 |
| [447](#event-447)            | 0x15CD       |     29 |             10 |
| [448](#event-448)            | 0x15EA       |    515 |             77 |
| [65535.102](#event-65535102) | 0x17ED       |     14 |              4 |
| [65535.103](#event-65535103) | 0x17FB       |     10 |              2 |
| [449](#event-449)            | 0x1805       |     36 |             11 |
| [450](#event-450)            | 0x1829       |    468 |             71 |
| [469](#event-469)            | 0x19FD       |     13 |              3 |
| [65535.104](#event-65535104) | 0x1A0A       |     10 |              2 |
| [65535.105](#event-65535105) | 0x1A14       |     15 |              5 |
| [65535.106](#event-65535106) | 0x1A23       |     15 |              5 |
| [65535.107](#event-65535107) | 0x1A32       |     10 |              2 |
| [65535.108](#event-65535108) | 0x1A3C       |     15 |              5 |
| [65535.109](#event-65535109) | 0x1A4B       |     26 |              6 |
| [475](#event-475)            | 0x1A65       |     69 |             20 |
| [473](#event-473)            | 0x1AAA       |     13 |              3 |
| [65535.110](#event-65535110) | 0x1AB7       |     10 |              2 |
| [65535.111](#event-65535111) | 0x1AC1       |     22 |              8 |
| [65535.112](#event-65535112) | 0x1AD7       |     14 |              4 |
| [65535.113](#event-65535113) | 0x1AE5       |     15 |              5 |
| [65535.114](#event-65535114) | 0x1AF4       |     10 |              2 |
| [480](#event-480)            | 0x1AFE       |     91 |             26 |
| [10008](#event-10008)        | 0x1B59       |    436 |             72 |
| [498](#event-498)            | 0x1D0D       |     88 |             16 |
| [508](#event-508)            | 0x1D65       |     62 |             12 |
| [509](#event-509)            | 0x1DA3       |     54 |             12 |
| [512](#event-512)            | 0x1DD9       |     49 |             11 |
| [506](#event-506)            | 0x1E0A       |      1 |              1 |
| [507](#event-507)            | 0x1E0B       |      1 |              1 |
| [65535.115](#event-65535115) | 0x1E0C       |     15 |              4 |
| [65535.116](#event-65535116) | 0x1E1B       |     19 |              3 |
| [65535.117](#event-65535117) | 0x1E2E       |     19 |              3 |
| [65535.118](#event-65535118) | 0x1E41       |     16 |              2 |
| [65535.119](#event-65535119) | 0x1E51       |     18 |              2 |
| [65535.120](#event-65535120) | 0x1E63       |     18 |              2 |
| [65535.121](#event-65535121) | 0x1E75       |     16 |              2 |
| [65535.122](#event-65535122) | 0x1E85       |     16 |              2 |
| [65535.123](#event-65535123) | 0x1E95       |     19 |              3 |
| [65535.124](#event-65535124) | 0x1EA8       |     16 |              2 |
| [65535.125](#event-65535125) | 0x1EB8       |     16 |              2 |
| [65535.126](#event-65535126) | 0x1EC8       |     16 |              2 |
| [65535.127](#event-65535127) | 0x1ED8       |     16 |              2 |
| [65535.128](#event-65535128) | 0x1EE8       |     16 |              2 |
| [65535.129](#event-65535129) | 0x1EF8       |     16 |              2 |
| [65535.130](#event-65535130) | 0x1F08       |     19 |              3 |
| [65535.131](#event-65535131) | 0x1F1B       |     33 |              3 |
| [65535.132](#event-65535132) | 0x1F3C       |     39 |              5 |
| [65535.133](#event-65535133) | 0x1F63       |     39 |              5 |
| [65535.134](#event-65535134) | 0x1F8A       |     19 |              3 |
| [65535.135](#event-65535135) | 0x1F9D       |     16 |              2 |
| [65535.136](#event-65535136) | 0x1FAD       |     22 |              4 |
| [65535.137](#event-65535137) | 0x1FC3       |     15 |              4 |
| [65535.138](#event-65535138) | 0x1FD2       |     21 |              2 |
| [65535.139](#event-65535139) | 0x1FE7       |     10 |              2 |
| [65535.140](#event-65535140) | 0x1FF1       |     10 |              2 |
| [510](#event-510)            | 0x1FFB       |      1 |              1 |
| [65535.141](#event-65535141) | 0x1FFC       |     15 |              5 |
| [65535.142](#event-65535142) | 0x200B       |     16 |              2 |
| [65535.143](#event-65535143) | 0x201B       |     16 |              2 |
| [65535.144](#event-65535144) | 0x202B       |     16 |              2 |
| [65535.145](#event-65535145) | 0x203B       |     16 |              2 |
| [65535.146](#event-65535146) | 0x204B       |     16 |              2 |
| [65535.147](#event-65535147) | 0x205B       |     16 |              2 |
| [65535.148](#event-65535148) | 0x206B       |     19 |              3 |
| [65535.149](#event-65535149) | 0x207E       |     19 |              3 |
| [65535.150](#event-65535150) | 0x2091       |     16 |              4 |
| [65535.151](#event-65535151) | 0x20A1       |     29 |              3 |
| [65535.152](#event-65535152) | 0x20BE       |     16 |              2 |
| [511](#event-511)            | 0x20CE       |      1 |              1 |
| [65535.153](#event-65535153) | 0x20CF       |     24 |              6 |
| [65535.154](#event-65535154) | 0x20E7       |     15 |              5 |
| [65535.155](#event-65535155) | 0x20F6       |     15 |              5 |
| [65535.156](#event-65535156) | 0x2105       |     25 |              4 |
| [529](#event-529)            | 0x211E       |      1 |              1 |
| [65535.157](#event-65535157) | 0x211F       |     14 |              4 |
| [65535.158](#event-65535158) | 0x212D       |     14 |              4 |
| [535](#event-535)            | 0x213B       |      1 |              1 |
| [548](#event-548)            | 0x213C       |      1 |              1 |
| [65535.159](#event-65535159) | 0x213D       |     35 |              7 |
| [559](#event-559)            | 0x2160       |      1 |              1 |
| [560](#event-560)            | 0x2161       |      1 |              1 |
| [65535.160](#event-65535160) | 0x2162       |     15 |              5 |
| [65535.161](#event-65535161) | 0x2171       |     15 |              5 |
| [561](#event-561)            | 0x2180       |      1 |              1 |
| [562](#event-562)            | 0x2181       |      1 |              1 |
| [65535.162](#event-65535162) | 0x2182       |     15 |              5 |
| [65535.163](#event-65535163) | 0x2191       |     28 |              8 |
| [65535.164](#event-65535164) | 0x21AD       |     15 |              5 |
| [569](#event-569)            | 0x21BC       |      1 |              1 |
| [65535.165](#event-65535165) | 0x21BD       |     15 |              5 |
| [65535.166](#event-65535166) | 0x21CC       |     32 |             10 |
| [65535.167](#event-65535167) | 0x21EC       |     15 |              5 |
| [65535.168](#event-65535168) | 0x21FB       |     15 |              5 |
| [65535.169](#event-65535169) | 0x220A       |     15 |              5 |
| [65535.170](#event-65535170) | 0x2219       |     15 |              5 |
| [65535.171](#event-65535171) | 0x2228       |     22 |              8 |
| [570](#event-570)            | 0x223E       |      1 |              1 |
| [571](#event-571)            | 0x223F       |      1 |              1 |
| [574](#event-574)            | 0x2240       |      1 |              1 |
| [575](#event-575)            | 0x2241       |      1 |              1 |
| [576](#event-576)            | 0x2242       |      1 |              1 |
| [65535.172](#event-65535172) | 0x2243       |     15 |              5 |
| [65535.173](#event-65535173) | 0x2252       |     15 |              5 |
| [65535.174](#event-65535174) | 0x2261       |     15 |              5 |

## DAT References (imed_data)

|   Index | Hex Value   |   Dec Value |
|---------|-------------|-------------|
|       0 | 0x0028      |          40 |
|       1 | 0x0029      |          41 |
|       2 | 0x003C      |          60 |
|       3 | 0x002A      |          42 |
|       4 | 0x0001      |           1 |
|       5 | 0x0007      |           7 |
|       6 | 0x0006      |           6 |
|       7 | 0x0008      |           8 |
|       8 | 0x000D      |          13 |
|       9 | 0x002B      |          43 |
|      10 | 0x01AE      |         430 |
|      11 | 0x01AF      |         431 |
|      12 | 0x002E      |          46 |
|      13 | 0xFFFEC0BE  |  4294885566 |
|      14 | 0x1EB4E     |      125774 |
|      15 | 0xFFFFEAE1  |  4294961889 |
|      16 | 0x0626      |        1574 |
|      17 | 0x1D24      |        7460 |
|      18 | 0x1D26      |        7462 |
|      19 | 0x1D25      |        7461 |
|      20 | 0x1D30      |        7472 |
|      21 | 0x1D31      |        7473 |
|      22 | 0x1D32      |        7474 |
|      23 | 0x1D33      |        7475 |
|      24 | 0x0000      |           0 |
|      25 | 0x0003      |           3 |
|      26 | 0x1D34      |        7476 |
|      27 | 0x1D35      |        7477 |
|      28 | 0x1D36      |        7478 |
|      29 | 0x1D37      |        7479 |
|      30 | 0x1D38      |        7480 |
|      31 | 0x00E6      |         230 |
|      32 | 0x012C      |         300 |
|      33 | 0x1D39      |        7481 |
|      34 | 0x00C9      |         201 |
|      35 | 0x1D3A      |        7482 |
|      36 | 0x1D3B      |        7483 |
|      37 | 0x1D40      |        7488 |
|      38 | 0x1D41      |        7489 |
|      39 | 0x1D42      |        7490 |
|      40 | 0x1D43      |        7491 |
|      41 | 0x1D44      |        7492 |
|      42 | 0x1D46      |        7494 |
|      43 | 0x1D47      |        7495 |
|      44 | 0x1D48      |        7496 |
|      45 | 0x1D49      |        7497 |
|      46 | 0x1D55      |        7509 |
|      47 | 0x0004      |           4 |
|      48 | 0x1D4A      |        7498 |
|      49 | 0x1D4B      |        7499 |
|      50 | 0x1D4C      |        7500 |
|      51 | 0x1D4D      |        7501 |
|      52 | 0x1D4E      |        7502 |
|      53 | 0x1D4F      |        7503 |
|      54 | 0x1D50      |        7504 |
|      55 | 0x1D51      |        7505 |
|      56 | 0x1D52      |        7506 |
|      57 | 0x1D53      |        7507 |
|      58 | 0x1D56      |        7510 |
|      59 | 0x1D57      |        7511 |
|      60 | 0x1D58      |        7512 |
|      61 | 0x1D59      |        7513 |
|      62 | 0x1D5A      |        7514 |
|      63 | 0x1D5B      |        7515 |
|      64 | 0x0014      |          20 |
|      65 | 0x1D5D      |        7517 |
|      66 | 0x1D5E      |        7518 |
|      67 | 0x1D5F      |        7519 |
|      68 | 0x1D60      |        7520 |
|      69 | 0x1D61      |        7521 |
|      70 | 0x1D62      |        7522 |
|      71 | 0x1D63      |        7523 |
|      72 | 0x1D64      |        7524 |
|      73 | 0x1D65      |        7525 |
|      74 | 0x1D66      |        7526 |
|      75 | 0x1D67      |        7527 |
|      76 | 0x1FA8      |        8104 |
|      77 | 0x1FAF      |        8111 |
|      78 | 0x1FB5      |        8117 |
|      79 | 0x1FA5      |        8101 |
|      80 | 0x1FA6      |        8102 |
|      81 | 0x1FA7      |        8103 |
|      82 | 0x1FA9      |        8105 |
|      83 | 0x1FAA      |        8106 |
|      84 | 0x1FAB      |        8107 |
|      85 | 0x1FAC      |        8108 |
|      86 | 0x1FAD      |        8109 |
|      87 | 0x1FAE      |        8110 |
|      88 | 0x1FB0      |        8112 |
|      89 | 0x1FB1      |        8113 |
|      90 | 0x1FB2      |        8114 |
|      91 | 0x1FB3      |        8115 |
|      92 | 0x1FB4      |        8116 |
|      93 | 0x1FB6      |        8118 |
|      94 | 0x1FB7      |        8119 |
|      95 | 0x1FB8      |        8120 |
|      96 | 0x00C8      |         200 |
|      97 | 0x0195      |         405 |
|      98 | 0x008B      |         139 |
|      99 | 0x1FB9      |        8121 |
|     100 | 0x1FBA      |        8122 |
|     101 | 0x0064      |         100 |
|     102 | 0x1FBB      |        8123 |
|     103 | 0x1FC5      |        8133 |
|     104 | 0x1FBC      |        8124 |
|     105 | 0x0ACA      |        2762 |
|     106 | 0x1FBE      |        8126 |
|     107 | 0x1FBF      |        8127 |
|     108 | 0x1FC0      |        8128 |
|     109 | 0x1DF10     |      122640 |
|     110 | 0x1BBC6     |      113606 |
|     111 | 0xFFFFF448  |  4294964296 |
|     112 | 0x0062      |          98 |
|     113 | 0x1DDC2     |      122306 |
|     114 | 0x1B822     |      112674 |
|     115 | 0xFFFFF449  |  4294964297 |
|     116 | 0x1E3E1     |      123873 |
|     117 | 0x1C44A     |      115786 |
|     118 | 0x1FC1      |        8129 |
|     119 | 0x1FC2      |        8130 |
|     120 | 0x1FC3      |        8131 |
|     121 | 0x1FC4      |        8132 |
|     122 | 0x1DC8      |        7624 |
|     123 | 0x1DC9      |        7625 |
|     124 | 0x1DCA      |        7626 |
|     125 | 0x1DCB      |        7627 |
|     126 | 0x1DCC      |        7628 |
|     127 | 0x2074      |        8308 |
|     128 | 0x2075      |        8309 |
|     129 | 0x207B      |        8315 |
|     130 | 0x207C      |        8316 |
|     131 | 0x0013      |          19 |
|     132 | 0x2289      |        8841 |
|     133 | 0x228A      |        8842 |
|     134 | 0x228B      |        8843 |
|     135 | 0x228C      |        8844 |
|     136 | 0x228D      |        8845 |
|     137 | 0x228E      |        8846 |
|     138 | 0x228F      |        8847 |
|     139 | 0x2290      |        8848 |
|     140 | 0x2291      |        8849 |
|     141 | 0x2292      |        8850 |
|     142 | 0x000E      |          14 |
|     143 | 0x2293      |        8851 |
|     144 | 0x2294      |        8852 |
|     145 | 0x2295      |        8853 |
|     146 | 0x2296      |        8854 |
|     147 | 0x2299      |        8857 |
|     148 | 0x229A      |        8858 |
|     149 | 0x229B      |        8859 |
|     150 | 0x229C      |        8860 |
|     151 | 0x229D      |        8861 |
|     152 | 0x229E      |        8862 |
|     153 | 0x22E0      |        8928 |
|     154 | 0x22E1      |        8929 |
|     155 | 0x22E2      |        8930 |
|     156 | 0x22E3      |        8931 |
|     157 | 0x2325      |        8997 |
|     158 | 0x2326      |        8998 |
|     159 | 0x233F      |        9023 |
|     160 | 0x2340      |        9024 |
|     161 | 0x2341      |        9025 |
|     162 | 0x2359      |        9049 |
|     163 | 0x235A      |        9050 |
|     164 | 0x235B      |        9051 |
|     165 | 0x235C      |        9052 |
|     166 | 0x0078      |         120 |
|     167 | 0x00A3      |         163 |
|     168 | 0x236A      |        9066 |
|     169 | 0x236B      |        9067 |
|     170 | 0x236C      |        9068 |
|     171 | 0x236D      |        9069 |
|     172 | 0x236E      |        9070 |
|     173 | 0x0B55      |        2901 |
|     174 | 0x000A      |          10 |
|     175 | 0x236F      |        9071 |
|     176 | 0x0097      |         151 |
|     177 | 0x2370      |        9072 |
|     178 | 0x2371      |        9073 |
|     179 | 0x237B      |        9083 |
|     180 | 0x2372      |        9074 |
|     181 | 0x2373      |        9075 |
|     182 | 0x2374      |        9076 |
|     183 | 0x0002      |           2 |
|     184 | 0x2375      |        9077 |
|     185 | 0x2376      |        9078 |
|     186 | 0x2377      |        9079 |
|     187 | 0x2378      |        9080 |
|     188 | 0x2379      |        9081 |
|     189 | 0x237A      |        9082 |
|     190 | 0x237C      |        9084 |
|     191 | 0x0005      |           5 |
|     192 | 0x237D      |        9085 |
|     193 | 0x237E      |        9086 |
|     194 | 0x237F      |        9087 |
|     195 | 0x2380      |        9088 |
|     196 | 0x1DDFF     |      122367 |
|     197 | 0x1B7AF     |      112559 |
|     198 | 0x2381      |        9089 |
|     199 | 0x2383      |        9091 |
|     200 | 0x2384      |        9092 |
|     201 | 0x2385      |        9093 |
|     202 | 0x2386      |        9094 |
|     203 | 0x2387      |        9095 |
|     204 | 0x2388      |        9096 |
|     205 | 0xFFFE8AF4  |  4294871796 |
|     206 | 0x2EE00     |      192000 |
|     207 | 0xFFFFCD38  |  4294954296 |
|     208 | 0x0A8B      |        2699 |
|     209 | 0xFFFE744C  |  4294865996 |
|     210 | 0x3091C     |      198940 |
|     211 | 0xFFFFD120  |  4294955296 |
|     212 | 0xFFFE7838  |  4294867000 |
|     213 | 0x309B2     |      199090 |
|     214 | 0xFFFE7A3A  |  4294867514 |
|     215 | 0x30BDB     |      199643 |
|     216 | 0x00A0      |         160 |
|     217 | 0xFFFE744E  |  4294865998 |
|     218 | 0x30E55     |      200277 |
|     219 | 0xFFFFD121  |  4294955297 |
|     220 | 0xFFFE851E  |  4294870302 |
|     221 | 0x2F4F0     |      193776 |
|     222 | 0x01CF      |         463 |
|     223 | 0xFFFE9B9D  |  4294876061 |
|     224 | 0x2DB73     |      187251 |
|     225 | 0xFFFFCF2C  |  4294954796 |
|     226 | 0x24E2      |        9442 |
|     227 | 0x24E3      |        9443 |
|     228 | 0x24E4      |        9444 |
|     229 | 0x24E5      |        9445 |
|     230 | 0xFFFE85C5  |  4294870469 |
|     231 | 0x2F52D     |      193837 |
|     232 | 0xFFFE7C52  |  4294868050 |
|     233 | 0x2FF2F     |      196399 |
|     234 | 0xFFFE73EB  |  4294865899 |
|     235 | 0x30991     |      199057 |
|     236 | 0xFFFE6F5F  |  4294864735 |
|     237 | 0x30AFA     |      199418 |
|     238 | 0x01E3      |         483 |
|     239 | 0x254A      |        9546 |
|     240 | 0x254B      |        9547 |
|     241 | 0x254C      |        9548 |
|     242 | 0x254D      |        9549 |
|     243 | 0x254E      |        9550 |
|     244 | 0x254F      |        9551 |
|     245 | 0x0403      |        1027 |
|     246 | 0x00EF      |         239 |
|     247 | 0x001E      |          30 |
|     248 | 0x2565      |        9573 |
|     249 | 0x2566      |        9574 |
|     250 | 0x2567      |        9575 |
|     251 | 0x2568      |        9576 |
|     252 | 0x2569      |        9577 |
|     253 | 0x256A      |        9578 |
|     254 | 0x256B      |        9579 |
|     255 | 0x256C      |        9580 |
|     256 | 0x256D      |        9581 |
|     257 | 0x0D1C      |        3356 |
|     258 | 0x256E      |        9582 |
|     259 | 0x256F      |        9583 |
|     260 | 0x2588      |        9608 |
|     261 | 0x258E      |        9614 |
|     262 | 0x258F      |        9615 |
|     263 | 0x25EA      |        9706 |
|     264 | 0x0477      |        1143 |
|     265 | 0x25EB      |        9707 |
|     266 | 0x25ED      |        9709 |
|     267 | 0x25EE      |        9710 |
|     268 | 0x25F2      |        9714 |
|     269 | 0x25F3      |        9715 |
|     270 | 0x0801      |        2049 |
|     271 | 0x0055      |          85 |
|     272 | 0x0050      |          80 |
|     273 | 0x0012      |          18 |
|     274 | 0x0031      |          49 |
|     275 | 0x0ACF      |        2767 |
|     276 | 0x00B5      |         181 |
|     277 | 0x002D      |          45 |
|     278 | 0x001B      |          27 |
|     279 | 0x00B4      |         180 |
|     280 | 0x0074      |         116 |
|     281 | 0x0128      |         296 |
|     282 | 0x0017      |          23 |
|     283 | 0x000B      |          11 |
|     284 | 0x0080      |         128 |
|     285 | 0xFFFE5ED0  |  4294860496 |
|     286 | 0x2FAE4     |      195300 |
|     287 | 0x055D      |        1373 |
|     288 | 0xFFFE6B3C  |  4294863676 |
|     289 | 0x32780     |      206720 |
|     290 | 0xFFFE5DDE  |  4294860254 |
|     291 | 0x31BCB     |      203723 |
|     292 | 0xFFFE8ACB  |  4294871755 |
|     293 | 0x2EE7B     |      192123 |
|     294 | 0xFFFE84E5  |  4294870245 |
|     295 | 0x2F53F     |      193855 |
|     296 | 0x0AD2      |        2770 |
|     297 | 0x007D      |         125 |
|     298 | 0x1DA3B     |      121403 |
|     299 | 0x1BC4D     |      113741 |
|     300 | 0x1DA98     |      121496 |
|     301 | 0x1BC64     |      113764 |
|     302 | 0x1DEED     |      122605 |
|     303 | 0x1B3DC     |      111580 |
|     304 | 0x1DA86     |      121478 |
|     305 | 0x1BE68     |      114280 |
|     306 | 0x1DAC4     |      121540 |
|     307 | 0x1BA3E     |      113214 |
|     308 | 0x041A      |        1050 |
|     309 | 0x1CC6F     |      117871 |
|     310 | 0x1AD8F     |      109967 |
|     311 | 0xFFFFF830  |  4294965296 |
|     312 | 0x1C90C     |      117004 |
|     313 | 0x1B2D0     |      111312 |
|     314 | 0x1C06D     |      114797 |
|     315 | 0x1BBFF     |      113663 |
|     316 | 0xFFFFF831  |  4294965297 |
|     317 | 0x1C4FA     |      115962 |
|     318 | 0x1BA52     |      113234 |
|     319 | 0x1C29B     |      115355 |
|     320 | 0x1BD52     |      114002 |
|     321 | 0x1C3C9     |      115657 |
|     322 | 0x1B8B5     |      112821 |
|     323 | 0x1C4D5     |      115925 |
|     324 | 0x1B685     |      112261 |
|     325 | 0x1DD56     |      122198 |
|     326 | 0x1B8CE     |      112846 |

## String References

- **7460**: Why, hello\`! And, oh...goodbye!
- **7461**: Well, excu\`se me, [Mister/Ms.] So-and-so! You shouldn't be walking into these premises without permission, you know! Ohoho...Ignorance is no excuse. No, no!
- **7462**: This manor is where scholars, who have rendered many years of noble service to their ministry, can further enjoy the pursuit of knowledge in peace and quiet as a reward. It is not a place where plebeians like you should enter on your own accord!
- **7472**: Lately, my dear, I have the most unpleasant feeling, you see... I feel as though someone is constantly watching me!
- **7473**: It must be one of my many admirers, or maybe, I dare to think, even a spy! It is giving me the jimjams! I'm not a cheap street show, am I?
- **7474**: I say... Would you like to help me, my dear? I'm thinking of showing that Peeping Tom just who he's up against...you hear!?
- **7475**: Agree to help? [Yes./No.]
- **7476**: Jolly well! Now grab a quill and jot these down. I'll need $6 and two $7! Ohoho... This will be quite a sight to see, so stick around!
- **7477**: How dare you turn a poor, defenseless old lady like ME down? Do you think something so unpleasant will befall me that you'd rather watch from the sidelines than get involved? You clown!
- **7478**: Most unforgivable, [I'm glad I'm not your sister/you big sissy]! Perhaps you should watch your back too, [mister/missy]!
- **7479**: Ohoho... Still haven't found me my $6 and two $7 yet? Well, I'm incensed! Hurry up. I can't wait to show my little voyeur just who he's up against!
- **7480**: Oh, goody. You've brought me my $6 and $7, I see. Now to put these straight to good use... Ho\`cus-po\`cus, boogy-bogey fo\`cus!!!
- **7481**: Here, dear, take this as your reward. Ohohohoho!
- **7482**: You should have a little check around town tomorrow and see who's not doing so fine. Whoever has been spying on me will be having a most bone-boogying time!
- **7483**: You should have a little check around town tomorrow and see who's not doing so fine. Whoever has been spying on me will be having a most bone-boogying time!
- **7488**: Ohoho! Our peeping Tom's been enjoying that Skeleton Dance curse I placed on him, no? But don't feel too sorry for him, as it'll wear off within a day or so.
- **7489**: But, my, haven't I mellowed with age?
- **7490**: You should have seen me back when I was the Minister of the Orastery. I pulled no punches at that stage. Ohohohoho\`!
- **7491**: Oh? You didn't see anyone doing the old Skeleton Dance, eh?
- **7492**: That's most strange indeed...I say. It sure felt as if my curse had taken effect...well, either way...
- **7494**: Ah! Thank goodness...there you are! I've been looking all over Windurst for you! Ha\`h!
- **7495**: Say...you don't happen to have any dependents, do you? Like, would anyone be saddened if you were put behind bars? Would anyone grieve if you, er...disappeared to the stars?
- **7496**: If you went missing, people would... [Cry in despair./Cry out in joy!]
- **7497**: Well, no matter, either way. That doesn't concern me today.
- **7498**: Personally, I don't want to rot in prison, you see...! So, it's inevitable that you're the one who'll take the fall for me.
- **7499**: Hey, you were my accomplice, you know!? You cannot say that it's not so.
- **7500**: If you recall, without pride or plom... you're the one who helped me cast a curse on that peeping Tom!
- **7501**: You know...the Skeleton Dance curse, you cur!? I used your $4 and $5, along with my misery staff, to vex the voyeur.
- **7502**: Well, the truth is, that wasn't the "Skeleton Dance" curse I cast. It seems I did the old "Invoke the Grip of Death" curse, oh blast! (An honest mistake...that anyone would make...)
- **7503**: So, we actually have hexed the person to death, I fear. Quite a disagreeable aftertaste for an act of sweet vengeance, dear.
- **7504**: But maybe Death hasn't taken a complete hold of him yet. We might still have time to save him, so don't sweat!
- **7505**: Oh, but to undo the curse, we'll need two $6, $7 and next... a lock of hair of the unfortunate person we hexed.
- **7506**: $7 are quite hard to come by and it's impossible to remove a lock of the cursed person's hair without them noticing, I dread...
- **7507**: So I guess we may as well give up on that plan and just have you take the blame for the both of us and go to jail instead!
- **7509**: Agree to go to jail? [No way! Not on your life!/Well, OK. If you say so...]
- **7510**: Ohoho! I'm glad you're so understanding. It makes matters as simple as you are, darling. All you have to do is go to the local gatehouse, confess to the crime, and turn yourself in.
- **7511**: O\`h! You're making me lose my temper, dear!
- **7512**: Fine! If you want to avoid imprisonment, you'll just have to go find: two $6, $7, and a lock of hair of the cursed person...if you don't mind.
- **7513**: If you can do that impossible feat, I'll smooth things over for you, nice and neat!
- **7514**: If you want to avoid imprisonment, you'll just have to go find: two $6, $7, and a lock of hair of the cursed person...if you don't mind.
- **7515**: If you can do that impossible feat, I'll smooth things over for you, nice and neat!
- **7517**: Oh, wow! You really found all the things we need...but how?
- **7518**: Oh, and gee...! You even managed to obtain the hair, I see... Which means he's still alive, and well, is he?
- **7519**: Which means neither of us need to go to jail after all! Ohoho! I'm so glad I don't have to wear a chain and ball.
- **7520**: Here. Let me remove that nasty curse without a moment's delay. For even as we speak, the seconds to his death are still ticking away...
- **7521**: I hope I'm not too late, dearie... Here it goes... Wha\`mm\`y!!!
- **7522**: ...Ohoho. Well, that cleared that right up.
- **7523**: I'm glad I've a knack for undoing hexes. It sure gets me out of such little vexes.
- **7524**: Anyway, I've had enough of cursing for the time being. Here, I'll give you this Misery Staff...if you're agreeing.
- **7525**: After all, it won't hurt to dispose of the evidence. Especially if the victim takes offense...ohohoho!
- **7526**: Ohoho! Don't get angry with me for that little disgrace. It was the Orastery's mages who found that miserable staff in the first place.
- **7527**: But don't you worry about it. Control your lividity. I'll make sure they pay dearly for their stupidity. Ohohohoho!
- **7624**: Ohoho! Your reason for bargy-wargying into my home like this had better be fitting.
- **7625**: Alchemy? Ohohoho! You've got to be kidding!
- **7626**: There is no place for such circus tricks in Windurst! Just the talk of the subject makes my side burst!
- **7627**: Long ago, there was a student who did give the crazy subject a try...
- **7628**: Well, if I was a professor at the School of Magic, I would fail that lunatic in the blink of an eye!
- **8101**: Ah, it's you again, my dear. And to tell you the truth, I'm glad you're here.
- **8102**: Right now I am looking for someone who can do me a favor... Namely, anyone who can manage to reach the Beaucedine Glacier.
- **8103**: Do you have a friend who is a black mage? One worthy of meeting me, the "Great Sage"?
- **8104**: Introduce a black mage friend to her? [Of course!/Ask if you're worthy.]
- **8105**: When you see that friend, tell them to hurry. There is no need for you to accompany them, so please don't worry.
- **8106**: Now, off with you, dear, my schedule is very tight. Ohoho-whoo! I have no time to waste changing the diapers of total losers like you.
- **8107**: Yo\`u!?
- **8108**: Ohohohohoho! A marvelous joke! Ohoho! You adventurers are such amusing folk!
- **8109**: The place is terrible, as far as I can tell. From the beasts to the weather, the Northlands are a snow-white hell.
- **8110**: It's a place where an onion adventurer like you could perish, and you probably would. So, go on home now, and act like a total loser should.
- **8111**: Act like a total loser should? [Yes, mommy./Whatchu talkin' 'bout Shantotto?]
- **8112**: Ohoho! Well, I expected you to step back and cower. But, I guess I will put a little faith into your loser power.
- **8113**: You know of those magic towers in Sarutabaruta? Well, the Beaucedine Glacier has some, too. Go there and you will find researchers working with the Rhinostery minister, Rukususu.
- **8114**: I want you to ask her something, if you'd be so kind. Please inquire if that new magic of mine is working fine.
- **8115**: Oh, and one more thing I'd like you to tell her before you come back to Windurst... Tell her if she doesn't reply soon, she'll find herself cursed.
- **8116**: Ohoho! Rukususu is terrified of onions and ghosts. So, I'll conjure up a curse with the things she hates the most.
- **8117**: Ohoho! I am so evil!
- **8118**: You know of those magic towers in Sarutabaruta? Well, the Beaucedine Glacier has some, too. Go there and you will find researchers working with the Rhinostery minister, Rukususu.
- **8119**: I want you to ask her something, if you'd be so kind. Please inquire if that new magic of mine is working fine.
- **8120**: Oh, and one more thing I'd like you to tell her before you come back to Windurst... Tell her if she doesn't reply soon, she'll find herself cursed.
- **8121**: Dear, did you come to apologize for your failure?
- **8122**: Ohoho! My new curse will work just as fine on you, I'm sure.
- **8123**: What is this you're saying? The tome vanishes after fighting the golems in Fei'Yin?
- **8124**: Those brutes don't know what a nuisance they're being!
- **8126**: So, how was Rukususu, the old air-head? For being deathly afraid of the undead, she's sure spent much time away from her Windurstian bed.
- **8127**: It must be the thought of getting revenge...I dread... for what happened to her professor, Iru-Kuiru, that drives her instead.
- **8128**: I guess I must present you with a reward for your deed. I will bestow upon you my special magic, which I'm sure you'll need.
- **8129**: Ohoho! This version should stand up to even the strongest golem magic.
- **8130**: Use it well, and maybe your days as a total loser won't be so tragic.
- **8131**: Ohoho! Have you been using my magic?
- **8132**: Use it well, and maybe your days as a total loser won't be so tragic.
- **8133**: I doubt a total loser like you would have noticed if it was true what they were saying... But I wonder if that magic tome really vanishes when you fight the golems in Fei'Yin...
- **8308**: You haven't forgotten about our business at the star tree, have you, you big lard?
- **8309**: Throw $2 into the aurora crevice in Xarcabard. Then, take the $1 that comes out to Chumimi... That isn't so hard.
- **8315**: How many times must I inform you of your task? Go to Castle Zvahl, and find that magic doll, blast! It's probably in one of the rooms there, if you must ask.
- **8316**: And when you retrieve it, do not bring it to me, please. Take it straight to the Tarutaru in Heavens Tower who are raising the little star trees.
- **8841**: You said something!? You've collected all five of the minister rings!?
- **8842**: ...Well, well, well. I never believed you would actually get them all. Come on then, let's have a look at them, don't stall.
- **8843**: This $3 is worthless. It looks like $6 from an older age, more or less.
- **8844**: This mission will create quite a stir. We must involve Minister Apururu and all the ministers.
- **8845**: The Minister of the Optistery is the oldest and most stubborn of the lot. Make sure you get the $3 from that old crack-pot.
- **8846**: ...You've done well. But the fact that a ragtag adventurer such as you could bring together all five rings... Something about that just chills my bones and makes me cringe.
- **8847**: This undertaking will most likely leave a mark on Windurst's history.
- **8848**: And now that we have all of the ministers in on the act, Apururu won't have to shoulder all the blame, will she?
- **8849**: ...Right, then. Let's complete the final preparations.
- **8850**: Hocus-pocus circularum-focus!
- **8851**: Ohohoho! Behold, the forbidden $3! Now all that's left is for you to take this to Apururu.
- **8852**: Wearing all five ministry rings at once is something I wouldn't recommend. The combined power consumes your body and you go up in flames--meaning your end.
- **8853**: To prevent this, I have created the $3. I've always wanted to try out this power for myself, but Karaha-Baruha would never lend me his $3...
- **8854**: Ooh! Just thinking about that makes me want to lash out and curse someone! If only I'd had that $3 back then... Oh, what I would have done!
- **8857**: Ohohohoho! It looks like my $3 had the desired effect!
- **8858**: Ajido-Marujido's failure to regain consciousness is the only slight complication I was able to detect...
- **8859**: But you don't need to go and start worrying. Why, it would take more than that to finish off a mage that had survived my tutelage and training!
- **8860**: ...Now, about the $3.
- **8861**: Due to a slight miscalculation on my part, the rings have become fused to the glove, I see. But don't worry. With a few twists, I'll soon have them free.
- **8862**: I'll just hold on to the ministry rings for a little while longer. Ohohoho!
- **8928**: You want to know where to find Sunny-Pabonny? How am I supposed to know where he is at?
- **8929**: He went off last month... Or was it earlier than that?
- **8930**: Anyway, he went to San d'Oria to find some sort of armor, and I haven't heard from him since.
- **8931**: Ohohoho! He'll show up when you least expect it, I'm convinced.
- **8997**: I can't stand waiting here, sitting on our hands. It's taken months to reconstruct those plans. Months to decipher the code. Months to journy this far down the road...
- **8998**: How long is it going to take until the brilliant armor designed by Karaha-Baruha is done!?
- **9023**: How disappointing. Ajido-Marujido woke up on his own before I could think of some new spells to fling.
- **9024**: I'm achy-waking to grill him on what he saw in the Book of the Gods, but I supppose I'll give him some time to recover.
- **9025**: The word "restraint" doesn'taru exist in my dictionary, you'll discover. Ohohoho!
- **9049**: Ah, it's such a waste. Such a wonderful glove that can never be replaced.
- **9050**: I would have gladly blasty-wasted a hundred people to keep it mine to use... But since Apururu offered me three years' worth of the Manustery's budgetaru, how could I refuse?
- **9051**: Things have worked out for the bestaru. I'm not even upset that I wasn't called to join the Full Moon Fountain battle.
- **9052**: I'll just weave some curses to give their nerves a little rattle. Ohohohoho!
- **9066**: You there. You appear to carry yourself with a certain flair.
- **9067**: The snap in the wrist, a sturdy arm. Your breathing, controlled and calm...
- **9068**: Justaru the type for wielding heavy, blunt, pain-inflictaruing objects... I would even go so far as to say you were born to swing the staff. You'll be the perfect addition to my team of test subjects!
- **9069**: For someone like you, I have just the thing. Here's a new toy. Go on, give it a swing!
- **9070**: Beyond what you'd expect? The rightaru length, the rightaru weight, and the balance is perfect... What you now hold is my made-to-order, specialized training staff!
- **9071**: Don'taru just stand there like a doe-eyed calf! Go out and pound with that pole until you can pound no more! Go on! Shoo! What are you waiting for? Ohohohohohohoho!
- **9072**: What's this? There's no chat-watting during training. Is something amiss?
- **9073**: Is something amiss? [No, everything's justaru fine./I lostaru the $1.../I can'taru go on.]
- **9074**: You lostaru it!?
- **9075**: Let me think for a bit. Could you perhaps have been swing-winging too hard? I myself have been known to send a staff flying into someone's backyard.
- **9076**: Well, it's good to see that you have fight-smiting spirit. Even if you are somewhat lacking in wit. Ohohoho!
- **9077**: You're giving up!?
- **9078**: Give up on the quest? [I've had enough./Not just yet.]
- **9079**: This kind of specialized training is not for everyone. Only the very bestaru staff-wielders are left standing when the day is done.
- **9080**: I understand your position. Allow me to leave you with these words of wisdom:
- **9081**: Give up, you loser! Throw that staff away! That poor length of wood mustaru be ashamed to be swung by such a wimp, anyway!
- **9082**: Ohohoho! I'm really getting the hang of this evil coach deal! You get rid of that staff, and this time it's over for real.
- **9083**: When that staff can be swung no more, bring it here to me. Now get back out there and train harder, my little prodigy! Ohohoho!
- **9084**: What's this I see? Justaru glancing at that staff tells me your training lacks intensity!
- **9085**: Oho! You've done a masterful job of demolishing that staff! After watching your maniacal training, I hope your friends were still able to laugh...
- **9086**: Well, your friends are not importantaru now. Let's see what you've learned. Show me some ka-pow!
- **9087**: The test of your newfound proficiency will take place at the Cauldron of Ifrit. Make sure to bring back $6, and try not to get turned into mincemeat.
- **9088**: Train hard, and ka-blam, you've suddenly learned a new technique. That's what tests are greataru for--along with my detailed critique. Ohohohoho!
- **9089**: The time for the test is upon you. Journey to Ifrit's Cauldron and discover that new skill. Ta-taru!
- **9091**: Oho! The triumphantaru hero has returned! Let's see what amazing-wazing new tricks you've learned!
- **9092**: Were you hit by a bolt of inspiration-wation? Absolutaruly nothing? Did the battle lack the required level of desperation?
- **9093**: You really are a sorry case. Well, let me teach you a technique I discovered, a fight-wighting move with both power and grace.
- **9094**: When your back's against the wall and there's no escape from the dragon's lair, justaru pretend this skill was taught to you by a beautiful goddess that appeared out of thin air.
- **9095**: Ohohohoho! Another member for my team with a wondrous tale to tell! We're really gonna give those Orastery mages hell!
- **9096**: The Martial Mages Mortal Mashfest will be a grand affair! Those weakling wizards need a good blood-soaked battle to toughen them up, a little scare!
- **9442**: This story would surely be a scoop for the press. How will he get himself out of this mess?
- **9443**: A doctor is expected to show a good example to the up and coming mages. I'm sure he doesn't wantaru this recorded in Windurst's history pages.
- **9444**: Of course, I asked his children what kind of curse I should cast on their dad. But they don't seem to want to cause harm to the cad.
- **9445**: That's what you call familial piety. Another chance lost to increase my notoriety! Ohohohohoho!
- **9546**: We couldn't allow that Elvaan girl to stay with old Yoran-Oran. He has enough child problems to fill his little hands.
- **9547**: I brought her to my house, but I found myself in the proverbial rut. It took quite a few Fire spells to thaw out her frozen butt.
- **9548**: But I guess it was all worth my while. In the end I was able to hear the wonderful tale of her meeting with Diabolos and the following trial.
- **9549**: The magicite locked in her chest is more than what it seems. That stone is what pulled her into Diabolos's land of dreams.
- **9550**: However, her potty-mouthed highness obviously made the ruler of dreams quite upset. She lost her right to live in the strifeless world of Dynamis like that!
- **9551**: But she had the right idea, if you ask me. Where's the fun in living within a world without curses or misery!?
- **9573**: I have all the data on your adventuring activity. But I'm only interested in how many enemies you've crushed and your KO'd loser proclivity.
- **9574**: Let's start out with your enemy carnage-warnage amounts... My, my. Either you justaru like to hide, or are not particular about large body counts.
- **9575**: Let's start out with your defeated enemy score... Oh. How very average. Wake me up if I startaru to snore.
- **9576**: Let's start out with your defeated enemy score... Oho, this is close to the figure I racked up during the Great War.
- **9577**: And now for your frequency of KO'd occasions... It seems that you've mastered the art of escapes and evasions! Your ability to survive must really irky-wirk your friends. Especially when you leave them behind to meet grisly ends!
- **9578**: And now for your frequency of KO'd occasions... A typical number, but you should learn to warp away from impending invasions! That is the reason the spell was invented. So many pointless defeats could have been easily prevented.
- **9579**: And now for your frequency of KO'd occasions... Oho, what a loser! I need no more persuasion. You must be the victim of some tasty-wasty curse! In all my years, I don't think I've seen a number much worse!
- **9580**: My last advice to you is to take a chance with an unfamiliar group. You mightaru find it refreshing to get out of your usual loop.
- **9581**: I have one piece of advice concerning your party today. Trusting in the strength of diversity won't lead you astray.
- **9582**: Visitaru every nation representative before you see the moogle again. Your evaluation from me here is done. But then...
- **9583**: No, you're not the one I was waiting to blast. You mightaru have gained another point to your KO'd score if I had miscast! Ohohohoho!
- **9608**: <Player>'s badge flashes brightly.
- **9614**: Ohohoho! Such a tatty old badge, but you're proud--can this be? You're baring your nature--no shame--for all to see!
- **9615**: If you become an Orastery mercenary and change your foul ways, you can wear the strongest equipment for the rest of your days! That does mean, although, if your days aren't yet done, you won't be able to remove it, but that's part of the fun!
- **9709**: Excellent, and very well! Now, off to Jeuno--we've a curse to dispel!
- **9710**: Why don't you go on ahead? I must find someone to watch over the laboratory in my stead.
- **9714**: <Ahem>--Allow me to say this with consummate clarity. I am not in the business of running a charity!
- **9715**: If you're too cheap to pay, then off with you.

## Events

### Event 65535

#### Metadata

| Field        | Value   |
|--------------|---------|
| Entrypoint   | 0x0000  |
| Data Size    | 1 bytes |
| Instructions | 1       |

```
      00 01 02 03 04 05 06 07  08 09 0A 0B 0C 0D 0E 0F
      -- -- -- -- -- -- -- --  -- -- -- -- -- -- -- --
0000: 00                                                .               
```

#### Opcodes

```
  0: 0x0000 [0x00] END_REQSTACK()
```

### Event 65535.1

#### Metadata

| Field        | Value    |
|--------------|----------|
| Entrypoint   | 0x0001   |
| Data Size    | 16 bytes |
| Instructions | 2        |

```
      00 01 02 03 04 05 06 07  08 09 0A 0B 0C 0D 0E 0F
      -- -- -- -- -- -- -- --  -- -- -- -- -- -- -- --
0000:    66 00 80 F8 FF FF 7F  F8 FF FF 7F 74 6C 6B 30   f..........tlk0
0010: 00                                                .               
```

#### Opcodes

```
  0: 0x0001 [0x66] LOAD_EXT_SCHEDULER_MAIN: Load scheduler "tlk0" with entities [EventEntity, EventEntity], work=40*
  1: 0x0010 [0x00] END_REQSTACK()
```

### Event 65535.2

#### Metadata

| Field        | Value    |
|--------------|----------|
| Entrypoint   | 0x0011   |
| Data Size    | 42 bytes |
| Instructions | 4        |

```
      00 01 02 03 04 05 06 07  08 09 0A 0B 0C 0D 0E 0F
      -- -- -- -- -- -- -- --  -- -- -- -- -- -- -- --
0010:    53 F8 FF FF 7F F8 FF  FF 7F 74 6C 6B 30 66 00   S........tlk0f.
0020: 80 F8 FF FF 7F F8 FF FF  7F 74 6C 6B 31 53 F8 FF  .........tlk1S..
0030: FF 7F F8 FF FF 7F 74 6C  6B 31 00                 ......tlk1.     
```

#### Opcodes

```
  0: 0x0011 [0x53] WAIT_SCHEDULER_TASK: Wait for scheduler "tlk0" with entities [EventEntity, EventEntity]
  1: 0x001E [0x66] LOAD_EXT_SCHEDULER_MAIN: Load scheduler "tlk1" with entities [EventEntity, EventEntity], work=40*
  2: 0x002D [0x53] WAIT_SCHEDULER_TASK: Wait for scheduler "tlk1" with entities [EventEntity, EventEntity]
  3: 0x003A [0x00] END_REQSTACK()
```

### Event 65535.3

#### Metadata

| Field        | Value    |
|--------------|----------|
| Entrypoint   | 0x003B   |
| Data Size    | 16 bytes |
| Instructions | 2        |

```
      00 01 02 03 04 05 06 07  08 09 0A 0B 0C 0D 0E 0F
      -- -- -- -- -- -- -- --  -- -- -- -- -- -- -- --
0030:                                   66 00 80 F8 FF             f....
0040: FF 7F F8 FF FF 7F 74 68  6B 31 00                 ......thk1.     
```

#### Opcodes

```
  0: 0x003B [0x66] LOAD_EXT_SCHEDULER_MAIN: Load scheduler "thk1" with entities [EventEntity, EventEntity], work=40*
  1: 0x004A [0x00] END_REQSTACK()
```

### Event 65535.4

#### Metadata

| Field        | Value    |
|--------------|----------|
| Entrypoint   | 0x004B   |
| Data Size    | 14 bytes |
| Instructions | 2        |

```
      00 01 02 03 04 05 06 07  08 09 0A 0B 0C 0D 0E 0F
      -- -- -- -- -- -- -- --  -- -- -- -- -- -- -- --
0040:                                   53 F8 FF FF 7F             S....
0050: F8 FF FF 7F 74 68 6B 31  00                       ....thk1.       
```

#### Opcodes

```
  0: 0x004B [0x53] WAIT_SCHEDULER_TASK: Wait for scheduler "thk1" with entities [EventEntity, EventEntity]
  1: 0x0058 [0x00] END_REQSTACK()
```

### Event 65535.5

#### Metadata

| Field        | Value    |
|--------------|----------|
| Entrypoint   | 0x0059   |
| Data Size    | 16 bytes |
| Instructions | 2        |

```
      00 01 02 03 04 05 06 07  08 09 0A 0B 0C 0D 0E 0F
      -- -- -- -- -- -- -- --  -- -- -- -- -- -- -- --
0050:                             66 00 80 F8 FF FF 7F           f......
0060: F8 FF FF 7F 74 68 6B 32  00                       ....thk2.       
```

#### Opcodes

```
  0: 0x0059 [0x66] LOAD_EXT_SCHEDULER_MAIN: Load scheduler "thk2" with entities [EventEntity, EventEntity], work=40*
  1: 0x0068 [0x00] END_REQSTACK()
```

### Event 65535.6

#### Metadata

| Field        | Value    |
|--------------|----------|
| Entrypoint   | 0x0069   |
| Data Size    | 14 bytes |
| Instructions | 2        |

```
      00 01 02 03 04 05 06 07  08 09 0A 0B 0C 0D 0E 0F
      -- -- -- -- -- -- -- --  -- -- -- -- -- -- -- --
0060:                             53 F8 FF FF 7F F8 FF           S......
0070: FF 7F 74 68 6B 32 00                              ..thk2.         
```

#### Opcodes

```
  0: 0x0069 [0x53] WAIT_SCHEDULER_TASK: Wait for scheduler "thk2" with entities [EventEntity, EventEntity]
  1: 0x0076 [0x00] END_REQSTACK()
```

### Event 65535.7

#### Metadata

| Field        | Value    |
|--------------|----------|
| Entrypoint   | 0x0077   |
| Data Size    | 16 bytes |
| Instructions | 2        |

```
      00 01 02 03 04 05 06 07  08 09 0A 0B 0C 0D 0E 0F
      -- -- -- -- -- -- -- --  -- -- -- -- -- -- -- --
0070:                      66  01 80 F8 FF FF 7F F8 FF         f........
0080: FF 7F 73 68 6B 30 00                              ..shk0.         
```

#### Opcodes

```
  0: 0x0077 [0x66] LOAD_EXT_SCHEDULER_MAIN: Load scheduler "shk0" with entities [EventEntity, EventEntity], work=41*
  1: 0x0086 [0x00] END_REQSTACK()
```

### Event 65535.8

#### Metadata

| Field        | Value    |
|--------------|----------|
| Entrypoint   | 0x0087   |
| Data Size    | 14 bytes |
| Instructions | 2        |

```
      00 01 02 03 04 05 06 07  08 09 0A 0B 0C 0D 0E 0F
      -- -- -- -- -- -- -- --  -- -- -- -- -- -- -- --
0080:                      53  F8 FF FF 7F F8 FF FF 7F         S........
0090: 73 68 6B 30 00                                    shk0.           
```

#### Opcodes

```
  0: 0x0087 [0x53] WAIT_SCHEDULER_TASK: Wait for scheduler "shk0" with entities [EventEntity, EventEntity]
  1: 0x0094 [0x00] END_REQSTACK()
```

### Event 65535.9

#### Metadata

| Field        | Value    |
|--------------|----------|
| Entrypoint   | 0x0095   |
| Data Size    | 16 bytes |
| Instructions | 2        |

```
      00 01 02 03 04 05 06 07  08 09 0A 0B 0C 0D 0E 0F
      -- -- -- -- -- -- -- --  -- -- -- -- -- -- -- --
0090:                66 00 80  F8 FF FF 7F F8 FF FF 7F       f..........
00A0: 64 69 73 30 00                                    dis0.           
```

#### Opcodes

```
  0: 0x0095 [0x66] LOAD_EXT_SCHEDULER_MAIN: Load scheduler "dis0" with entities [EventEntity, EventEntity], work=40*
  1: 0x00A4 [0x00] END_REQSTACK()
```

### Event 65535.10

#### Metadata

| Field        | Value    |
|--------------|----------|
| Entrypoint   | 0x00A5   |
| Data Size    | 14 bytes |
| Instructions | 2        |

```
      00 01 02 03 04 05 06 07  08 09 0A 0B 0C 0D 0E 0F
      -- -- -- -- -- -- -- --  -- -- -- -- -- -- -- --
00A0:                53 F8 FF  FF 7F F8 FF FF 7F 64 69       S........di
00B0: 73 30 00                                          s0.             
```

#### Opcodes

```
  0: 0x00A5 [0x53] WAIT_SCHEDULER_TASK: Wait for scheduler "dis0" with entities [EventEntity, EventEntity]
  1: 0x00B2 [0x00] END_REQSTACK()
```

### Event 65535.11

#### Metadata

| Field        | Value    |
|--------------|----------|
| Entrypoint   | 0x00B3   |
| Data Size    | 16 bytes |
| Instructions | 2        |

```
      00 01 02 03 04 05 06 07  08 09 0A 0B 0C 0D 0E 0F
      -- -- -- -- -- -- -- --  -- -- -- -- -- -- -- --
00B0:          66 00 80 F8 FF  FF 7F F8 FF FF 7F 70 6F     f..........po
00C0: 69 30 00                                          i0.             
```

#### Opcodes

```
  0: 0x00B3 [0x66] LOAD_EXT_SCHEDULER_MAIN: Load scheduler "poi0" with entities [EventEntity, EventEntity], work=40*
  1: 0x00C2 [0x00] END_REQSTACK()
```

### Event 65535.12

#### Metadata

| Field        | Value    |
|--------------|----------|
| Entrypoint   | 0x00C3   |
| Data Size    | 14 bytes |
| Instructions | 2        |

```
      00 01 02 03 04 05 06 07  08 09 0A 0B 0C 0D 0E 0F
      -- -- -- -- -- -- -- --  -- -- -- -- -- -- -- --
00C0:          53 F8 FF FF 7F  F8 FF FF 7F 70 6F 69 30     S........poi0
00D0: 00                                                .               
```

#### Opcodes

```
  0: 0x00C3 [0x53] WAIT_SCHEDULER_TASK: Wait for scheduler "poi0" with entities [EventEntity, EventEntity]
  1: 0x00D0 [0x00] END_REQSTACK()
```

### Event 65535.13

#### Metadata

| Field        | Value    |
|--------------|----------|
| Entrypoint   | 0x00D1   |
| Data Size    | 16 bytes |
| Instructions | 2        |

```
      00 01 02 03 04 05 06 07  08 09 0A 0B 0C 0D 0E 0F
      -- -- -- -- -- -- -- --  -- -- -- -- -- -- -- --
00D0:    66 00 80 F8 FF FF 7F  F8 FF FF 7F 70 61 73 30   f..........pas0
00E0: 00                                                .               
```

#### Opcodes

```
  0: 0x00D1 [0x66] LOAD_EXT_SCHEDULER_MAIN: Load scheduler "pas0" with entities [EventEntity, EventEntity], work=40*
  1: 0x00E0 [0x00] END_REQSTACK()
```

### Event 65535.14

#### Metadata

| Field        | Value    |
|--------------|----------|
| Entrypoint   | 0x00E1   |
| Data Size    | 14 bytes |
| Instructions | 2        |

```
      00 01 02 03 04 05 06 07  08 09 0A 0B 0C 0D 0E 0F
      -- -- -- -- -- -- -- --  -- -- -- -- -- -- -- --
00E0:    53 F8 FF FF 7F F8 FF  FF 7F 70 61 73 30 00      S........pas0. 
```

#### Opcodes

```
  0: 0x00E1 [0x53] WAIT_SCHEDULER_TASK: Wait for scheduler "pas0" with entities [EventEntity, EventEntity]
  1: 0x00EE [0x00] END_REQSTACK()
```

### Event 65535.15

#### Metadata

| Field        | Value    |
|--------------|----------|
| Entrypoint   | 0x00EF   |
| Data Size    | 16 bytes |
| Instructions | 2        |

```
      00 01 02 03 04 05 06 07  08 09 0A 0B 0C 0D 0E 0F
      -- -- -- -- -- -- -- --  -- -- -- -- -- -- -- --
00E0:                                               66                 f
00F0: 00 80 F8 FF FF 7F F8 FF  FF 7F 73 79 75 30 00     ..........syu0. 
```

#### Opcodes

```
  0: 0x00EF [0x66] LOAD_EXT_SCHEDULER_MAIN: Load scheduler "syu0" with entities [EventEntity, EventEntity], work=40*
  1: 0x00FE [0x00] END_REQSTACK()
```

### Event 65535.16

#### Metadata

| Field        | Value    |
|--------------|----------|
| Entrypoint   | 0x00FF   |
| Data Size    | 14 bytes |
| Instructions | 2        |

```
      00 01 02 03 04 05 06 07  08 09 0A 0B 0C 0D 0E 0F
      -- -- -- -- -- -- -- --  -- -- -- -- -- -- -- --
00F0:                                               53                 S
0100: F8 FF FF 7F F8 FF FF 7F  73 79 75 30 00           ........syu0.   
```

#### Opcodes

```
  0: 0x00FF [0x53] WAIT_SCHEDULER_TASK: Wait for scheduler "syu0" with entities [EventEntity, EventEntity]
  1: 0x010C [0x00] END_REQSTACK()
```

### Event 65535.17

#### Metadata

| Field        | Value    |
|--------------|----------|
| Entrypoint   | 0x010D   |
| Data Size    | 16 bytes |
| Instructions | 2        |

```
      00 01 02 03 04 05 06 07  08 09 0A 0B 0C 0D 0E 0F
      -- -- -- -- -- -- -- --  -- -- -- -- -- -- -- --
0100:                                         66 00 80               f..
0110: F8 FF FF 7F F8 FF FF 7F  77 61 76 30 00           ........wav0.   
```

#### Opcodes

```
  0: 0x010D [0x66] LOAD_EXT_SCHEDULER_MAIN: Load scheduler "wav0" with entities [EventEntity, EventEntity], work=40*
  1: 0x011C [0x00] END_REQSTACK()
```

### Event 65535.18

#### Metadata

| Field        | Value    |
|--------------|----------|
| Entrypoint   | 0x011D   |
| Data Size    | 14 bytes |
| Instructions | 2        |

```
      00 01 02 03 04 05 06 07  08 09 0A 0B 0C 0D 0E 0F
      -- -- -- -- -- -- -- --  -- -- -- -- -- -- -- --
0110:                                         53 F8 FF               S..
0120: FF 7F F8 FF FF 7F 77 61  76 30 00                 ......wav0.     
```

#### Opcodes

```
  0: 0x011D [0x53] WAIT_SCHEDULER_TASK: Wait for scheduler "wav0" with entities [EventEntity, EventEntity]
  1: 0x012A [0x00] END_REQSTACK()
```

### Event 65535.19

#### Metadata

| Field        | Value    |
|--------------|----------|
| Entrypoint   | 0x012B   |
| Data Size    | 16 bytes |
| Instructions | 2        |

```
      00 01 02 03 04 05 06 07  08 09 0A 0B 0C 0D 0E 0F
      -- -- -- -- -- -- -- --  -- -- -- -- -- -- -- --
0120:                                   66 01 80 F8 FF             f....
0130: FF 7F F8 FF FF 7F 65 68  6E 30 00                 ......ehn0.     
```

#### Opcodes

```
  0: 0x012B [0x66] LOAD_EXT_SCHEDULER_MAIN: Load scheduler "ehn0" with entities [EventEntity, EventEntity], work=41*
  1: 0x013A [0x00] END_REQSTACK()
```

### Event 65535.20

#### Metadata

| Field        | Value    |
|--------------|----------|
| Entrypoint   | 0x013B   |
| Data Size    | 22 bytes |
| Instructions | 4        |

```
      00 01 02 03 04 05 06 07  08 09 0A 0B 0C 0D 0E 0F
      -- -- -- -- -- -- -- --  -- -- -- -- -- -- -- --
0130:                                   53 F8 FF FF 7F             S....
0140: F8 FF FF 7F 65 68 6E 30  5E 69 64 6C 30 1C 02 80  ....ehn0^idl0...
0150: 00                                                .               
```

#### Opcodes

```
  0: 0x013B [0x53] WAIT_SCHEDULER_TASK: Wait for scheduler "ehn0" with entities [EventEntity, EventEntity]
  1: 0x0148 [0x5E] EventEntity goes idle (kills current action) (animation: "idl0")
  2: 0x014D [0x1C] WAIT(60* ticks)
  3: 0x0150 [0x00] END_REQSTACK()
```

### Event 65535.21

#### Metadata

| Field        | Value    |
|--------------|----------|
| Entrypoint   | 0x0151   |
| Data Size    | 16 bytes |
| Instructions | 2        |

```
      00 01 02 03 04 05 06 07  08 09 0A 0B 0C 0D 0E 0F
      -- -- -- -- -- -- -- --  -- -- -- -- -- -- -- --
0150:    66 01 80 F8 FF FF 7F  F8 FF FF 7F 65 68 6E 31   f..........ehn1
0160: 00                                                .               
```

#### Opcodes

```
  0: 0x0151 [0x66] LOAD_EXT_SCHEDULER_MAIN: Load scheduler "ehn1" with entities [EventEntity, EventEntity], work=41*
  1: 0x0160 [0x00] END_REQSTACK()
```

### Event 65535.22

#### Metadata

| Field        | Value    |
|--------------|----------|
| Entrypoint   | 0x0161   |
| Data Size    | 14 bytes |
| Instructions | 2        |

```
      00 01 02 03 04 05 06 07  08 09 0A 0B 0C 0D 0E 0F
      -- -- -- -- -- -- -- --  -- -- -- -- -- -- -- --
0160:    53 F8 FF FF 7F F8 FF  FF 7F 65 68 6E 31 00      S........ehn1. 
```

#### Opcodes

```
  0: 0x0161 [0x53] WAIT_SCHEDULER_TASK: Wait for scheduler "ehn1" with entities [EventEntity, EventEntity]
  1: 0x016E [0x00] END_REQSTACK()
```

### Event 65535.23

#### Metadata

| Field        | Value    |
|--------------|----------|
| Entrypoint   | 0x016F   |
| Data Size    | 16 bytes |
| Instructions | 2        |

```
      00 01 02 03 04 05 06 07  08 09 0A 0B 0C 0D 0E 0F
      -- -- -- -- -- -- -- --  -- -- -- -- -- -- -- --
0160:                                               66                 f
0170: 03 80 F8 FF FF 7F F8 FF  FF 7F 6D 73 75 30 00     ..........msu0. 
```

#### Opcodes

```
  0: 0x016F [0x66] LOAD_EXT_SCHEDULER_MAIN: Load scheduler "msu0" with entities [EventEntity, EventEntity], work=42*
  1: 0x017E [0x00] END_REQSTACK()
```

### Event 65535.24

#### Metadata

| Field        | Value    |
|--------------|----------|
| Entrypoint   | 0x017F   |
| Data Size    | 14 bytes |
| Instructions | 2        |

```
      00 01 02 03 04 05 06 07  08 09 0A 0B 0C 0D 0E 0F
      -- -- -- -- -- -- -- --  -- -- -- -- -- -- -- --
0170:                                               53                 S
0180: F8 FF FF 7F F8 FF FF 7F  6D 73 75 30 00           ........msu0.   
```

#### Opcodes

```
  0: 0x017F [0x53] WAIT_SCHEDULER_TASK: Wait for scheduler "msu0" with entities [EventEntity, EventEntity]
  1: 0x018C [0x00] END_REQSTACK()
```

### Event 65535.25

#### Metadata

| Field        | Value    |
|--------------|----------|
| Entrypoint   | 0x018D   |
| Data Size    | 16 bytes |
| Instructions | 2        |

```
      00 01 02 03 04 05 06 07  08 09 0A 0B 0C 0D 0E 0F
      -- -- -- -- -- -- -- --  -- -- -- -- -- -- -- --
0180:                                         66 03 80               f..
0190: F8 FF FF 7F F8 FF FF 7F  6D 73 75 31 00           ........msu1.   
```

#### Opcodes

```
  0: 0x018D [0x66] LOAD_EXT_SCHEDULER_MAIN: Load scheduler "msu1" with entities [EventEntity, EventEntity], work=42*
  1: 0x019C [0x00] END_REQSTACK()
```

### Event 65535.26

#### Metadata

| Field        | Value    |
|--------------|----------|
| Entrypoint   | 0x019D   |
| Data Size    | 22 bytes |
| Instructions | 4        |

```
      00 01 02 03 04 05 06 07  08 09 0A 0B 0C 0D 0E 0F
      -- -- -- -- -- -- -- --  -- -- -- -- -- -- -- --
0190:                                         53 F8 FF               S..
01A0: FF 7F F8 FF FF 7F 6D 73  75 31 5E 69 64 6C 30 1C  ......msu1^idl0.
01B0: 02 80 00                                          ...             
```

#### Opcodes

```
  0: 0x019D [0x53] WAIT_SCHEDULER_TASK: Wait for scheduler "msu1" with entities [EventEntity, EventEntity]
  1: 0x01AA [0x5E] EventEntity goes idle (kills current action) (animation: "idl0")
  2: 0x01AF [0x1C] WAIT(60* ticks)
  3: 0x01B2 [0x00] END_REQSTACK()
```

### Event 65535.27

#### Metadata

| Field        | Value    |
|--------------|----------|
| Entrypoint   | 0x01B3   |
| Data Size    | 16 bytes |
| Instructions | 2        |

```
      00 01 02 03 04 05 06 07  08 09 0A 0B 0C 0D 0E 0F
      -- -- -- -- -- -- -- --  -- -- -- -- -- -- -- --
01B0:          66 01 80 F8 FF  FF 7F F8 FF FF 7F 67 68     f..........gh
01C0: 6E 31 00                                          n1.             
```

#### Opcodes

```
  0: 0x01B3 [0x66] LOAD_EXT_SCHEDULER_MAIN: Load scheduler "ghn1" with entities [EventEntity, EventEntity], work=41*
  1: 0x01C2 [0x00] END_REQSTACK()
```

### Event 65535.28

#### Metadata

| Field        | Value    |
|--------------|----------|
| Entrypoint   | 0x01C3   |
| Data Size    | 14 bytes |
| Instructions | 2        |

```
      00 01 02 03 04 05 06 07  08 09 0A 0B 0C 0D 0E 0F
      -- -- -- -- -- -- -- --  -- -- -- -- -- -- -- --
01C0:          53 F8 FF FF 7F  F8 FF FF 7F 67 68 6E 31     S........ghn1
01D0: 00                                                .               
```

#### Opcodes

```
  0: 0x01C3 [0x53] WAIT_SCHEDULER_TASK: Wait for scheduler "ghn1" with entities [EventEntity, EventEntity]
  1: 0x01D0 [0x00] END_REQSTACK()
```

### Event 65535.29

#### Metadata

| Field        | Value    |
|--------------|----------|
| Entrypoint   | 0x01D1   |
| Data Size    | 16 bytes |
| Instructions | 2        |

```
      00 01 02 03 04 05 06 07  08 09 0A 0B 0C 0D 0E 0F
      -- -- -- -- -- -- -- --  -- -- -- -- -- -- -- --
01D0:    66 00 80 F8 FF FF 7F  F8 FF FF 7F 69 72 6F 30   f..........iro0
01E0: 00                                                .               
```

#### Opcodes

```
  0: 0x01D1 [0x66] LOAD_EXT_SCHEDULER_MAIN: Load scheduler "iro0" with entities [EventEntity, EventEntity], work=40*
  1: 0x01E0 [0x00] END_REQSTACK()
```

### Event 65535.30

#### Metadata

| Field        | Value    |
|--------------|----------|
| Entrypoint   | 0x01E1   |
| Data Size    | 14 bytes |
| Instructions | 2        |

```
      00 01 02 03 04 05 06 07  08 09 0A 0B 0C 0D 0E 0F
      -- -- -- -- -- -- -- --  -- -- -- -- -- -- -- --
01E0:    53 F8 FF FF 7F F8 FF  FF 7F 69 72 6F 30 00      S........iro0. 
```

#### Opcodes

```
  0: 0x01E1 [0x53] WAIT_SCHEDULER_TASK: Wait for scheduler "iro0" with entities [EventEntity, EventEntity]
  1: 0x01EE [0x00] END_REQSTACK()
```

### Event 65535.31

#### Metadata

| Field        | Value    |
|--------------|----------|
| Entrypoint   | 0x01EF   |
| Data Size    | 16 bytes |
| Instructions | 2        |

```
      00 01 02 03 04 05 06 07  08 09 0A 0B 0C 0D 0E 0F
      -- -- -- -- -- -- -- --  -- -- -- -- -- -- -- --
01E0:                                               66                 f
01F0: 00 80 F8 FF FF 7F F8 FF  FF 7F 77 61 69 30 00     ..........wai0. 
```

#### Opcodes

```
  0: 0x01EF [0x66] LOAD_EXT_SCHEDULER_MAIN: Load scheduler "wai0" with entities [EventEntity, EventEntity], work=40*
  1: 0x01FE [0x00] END_REQSTACK()
```

### Event 65535.32

#### Metadata

| Field        | Value    |
|--------------|----------|
| Entrypoint   | 0x01FF   |
| Data Size    | 14 bytes |
| Instructions | 2        |

```
      00 01 02 03 04 05 06 07  08 09 0A 0B 0C 0D 0E 0F
      -- -- -- -- -- -- -- --  -- -- -- -- -- -- -- --
01F0:                                               53                 S
0200: F8 FF FF 7F F8 FF FF 7F  77 61 69 30 00           ........wai0.   
```

#### Opcodes

```
  0: 0x01FF [0x53] WAIT_SCHEDULER_TASK: Wait for scheduler "wai0" with entities [EventEntity, EventEntity]
  1: 0x020C [0x00] END_REQSTACK()
```

### Event 65535.33

#### Metadata

| Field        | Value    |
|--------------|----------|
| Entrypoint   | 0x020D   |
| Data Size    | 16 bytes |
| Instructions | 2        |

```
      00 01 02 03 04 05 06 07  08 09 0A 0B 0C 0D 0E 0F
      -- -- -- -- -- -- -- --  -- -- -- -- -- -- -- --
0200:                                         66 03 80               f..
0210: F8 FF FF 7F F8 FF FF 7F  62 69 6B 30 00           ........bik0.   
```

#### Opcodes

```
  0: 0x020D [0x66] LOAD_EXT_SCHEDULER_MAIN: Load scheduler "bik0" with entities [EventEntity, EventEntity], work=42*
  1: 0x021C [0x00] END_REQSTACK()
```

### Event 65535.34

#### Metadata

| Field        | Value    |
|--------------|----------|
| Entrypoint   | 0x021D   |
| Data Size    | 14 bytes |
| Instructions | 2        |

```
      00 01 02 03 04 05 06 07  08 09 0A 0B 0C 0D 0E 0F
      -- -- -- -- -- -- -- --  -- -- -- -- -- -- -- --
0210:                                         53 F8 FF               S..
0220: FF 7F F8 FF FF 7F 62 69  6B 30 00                 ......bik0.     
```

#### Opcodes

```
  0: 0x021D [0x53] WAIT_SCHEDULER_TASK: Wait for scheduler "bik0" with entities [EventEntity, EventEntity]
  1: 0x022A [0x00] END_REQSTACK()
```

### Event 65535.35

#### Metadata

| Field        | Value    |
|--------------|----------|
| Entrypoint   | 0x022B   |
| Data Size    | 16 bytes |
| Instructions | 2        |

```
      00 01 02 03 04 05 06 07  08 09 0A 0B 0C 0D 0E 0F
      -- -- -- -- -- -- -- --  -- -- -- -- -- -- -- --
0220:                                   66 03 80 F8 FF             f....
0230: FF 7F F8 FF FF 7F 62 69  6B 31 00                 ......bik1.     
```

#### Opcodes

```
  0: 0x022B [0x66] LOAD_EXT_SCHEDULER_MAIN: Load scheduler "bik1" with entities [EventEntity, EventEntity], work=42*
  1: 0x023A [0x00] END_REQSTACK()
```

### Event 65535.36

#### Metadata

| Field        | Value    |
|--------------|----------|
| Entrypoint   | 0x023B   |
| Data Size    | 14 bytes |
| Instructions | 2        |

```
      00 01 02 03 04 05 06 07  08 09 0A 0B 0C 0D 0E 0F
      -- -- -- -- -- -- -- --  -- -- -- -- -- -- -- --
0230:                                   53 F8 FF FF 7F             S....
0240: F8 FF FF 7F 62 69 6B 31  00                       ....bik1.       
```

#### Opcodes

```
  0: 0x023B [0x53] WAIT_SCHEDULER_TASK: Wait for scheduler "bik1" with entities [EventEntity, EventEntity]
  1: 0x0248 [0x00] END_REQSTACK()
```

### Event 65535.37

#### Metadata

| Field        | Value    |
|--------------|----------|
| Entrypoint   | 0x0249   |
| Data Size    | 16 bytes |
| Instructions | 2        |

```
      00 01 02 03 04 05 06 07  08 09 0A 0B 0C 0D 0E 0F
      -- -- -- -- -- -- -- --  -- -- -- -- -- -- -- --
0240:                             66 00 80 F8 FF FF 7F           f......
0250: F8 FF FF 7F 67 6B 72 30  00                       ....gkr0.       
```

#### Opcodes

```
  0: 0x0249 [0x66] LOAD_EXT_SCHEDULER_MAIN: Load scheduler "gkr0" with entities [EventEntity, EventEntity], work=40*
  1: 0x0258 [0x00] END_REQSTACK()
```

### Event 65535.38

#### Metadata

| Field        | Value    |
|--------------|----------|
| Entrypoint   | 0x0259   |
| Data Size    | 14 bytes |
| Instructions | 2        |

```
      00 01 02 03 04 05 06 07  08 09 0A 0B 0C 0D 0E 0F
      -- -- -- -- -- -- -- --  -- -- -- -- -- -- -- --
0250:                             53 F8 FF FF 7F F8 FF           S......
0260: FF 7F 67 6B 72 30 00                              ..gkr0.         
```

#### Opcodes

```
  0: 0x0259 [0x53] WAIT_SCHEDULER_TASK: Wait for scheduler "gkr0" with entities [EventEntity, EventEntity]
  1: 0x0266 [0x00] END_REQSTACK()
```

### Event 65535.39

#### Metadata

| Field        | Value    |
|--------------|----------|
| Entrypoint   | 0x0267   |
| Data Size    | 16 bytes |
| Instructions | 2        |

```
      00 01 02 03 04 05 06 07  08 09 0A 0B 0C 0D 0E 0F
      -- -- -- -- -- -- -- --  -- -- -- -- -- -- -- --
0260:                      66  00 80 F8 FF FF 7F F8 FF         f........
0270: FF 7F 67 6B 72 31 00                              ..gkr1.         
```

#### Opcodes

```
  0: 0x0267 [0x66] LOAD_EXT_SCHEDULER_MAIN: Load scheduler "gkr1" with entities [EventEntity, EventEntity], work=40*
  1: 0x0276 [0x00] END_REQSTACK()
```

### Event 65535.40

#### Metadata

| Field        | Value    |
|--------------|----------|
| Entrypoint   | 0x0277   |
| Data Size    | 14 bytes |
| Instructions | 2        |

```
      00 01 02 03 04 05 06 07  08 09 0A 0B 0C 0D 0E 0F
      -- -- -- -- -- -- -- --  -- -- -- -- -- -- -- --
0270:                      53  F8 FF FF 7F F8 FF FF 7F         S........
0280: 67 6B 72 31 00                                    gkr1.           
```

#### Opcodes

```
  0: 0x0277 [0x53] WAIT_SCHEDULER_TASK: Wait for scheduler "gkr1" with entities [EventEntity, EventEntity]
  1: 0x0284 [0x00] END_REQSTACK()
```

### Event 65535.41

#### Metadata

| Field        | Value    |
|--------------|----------|
| Entrypoint   | 0x0285   |
| Data Size    | 16 bytes |
| Instructions | 2        |

```
      00 01 02 03 04 05 06 07  08 09 0A 0B 0C 0D 0E 0F
      -- -- -- -- -- -- -- --  -- -- -- -- -- -- -- --
0280:                66 01 80  F8 FF FF 7F F8 FF FF 7F       f..........
0290: 6F 68 68 30 00                                    ohh0.           
```

#### Opcodes

```
  0: 0x0285 [0x66] LOAD_EXT_SCHEDULER_MAIN: Load scheduler "ohh0" with entities [EventEntity, EventEntity], work=41*
  1: 0x0294 [0x00] END_REQSTACK()
```

### Event 65535.42

#### Metadata

| Field        | Value    |
|--------------|----------|
| Entrypoint   | 0x0295   |
| Data Size    | 22 bytes |
| Instructions | 4        |

```
      00 01 02 03 04 05 06 07  08 09 0A 0B 0C 0D 0E 0F
      -- -- -- -- -- -- -- --  -- -- -- -- -- -- -- --
0290:                53 F8 FF  FF 7F F8 FF FF 7F 6F 68       S........oh
02A0: 68 30 5E 69 64 6C 30 1C  02 80 00                 h0^idl0....     
```

#### Opcodes

```
  0: 0x0295 [0x53] WAIT_SCHEDULER_TASK: Wait for scheduler "ohh0" with entities [EventEntity, EventEntity]
  1: 0x02A2 [0x5E] EventEntity goes idle (kills current action) (animation: "idl0")
  2: 0x02A7 [0x1C] WAIT(60* ticks)
  3: 0x02AA [0x00] END_REQSTACK()
```

### Event 65535.43

#### Metadata

| Field        | Value    |
|--------------|----------|
| Entrypoint   | 0x02AB   |
| Data Size    | 44 bytes |
| Instructions | 4        |

```
      00 01 02 03 04 05 06 07  08 09 0A 0B 0C 0D 0E 0F
      -- -- -- -- -- -- -- --  -- -- -- -- -- -- -- --
02A0:                                   66 01 80 F8 FF             f....
02B0: FF 7F F8 FF FF 7F 73 68  6B 30 53 F8 FF FF 7F F8  ......shk0S.....
02C0: FF FF 7F 73 68 6B 30 66  00 80 F8 FF FF 7F F8 FF  ...shk0f........
02D0: FF 7F 7A 69 74 30 00                              ..zit0.         
```

#### Opcodes

```
  0: 0x02AB [0x66] LOAD_EXT_SCHEDULER_MAIN: Load scheduler "shk0" with entities [EventEntity, EventEntity], work=41*
  1: 0x02BA [0x53] WAIT_SCHEDULER_TASK: Wait for scheduler "shk0" with entities [EventEntity, EventEntity]
  2: 0x02C7 [0x66] LOAD_EXT_SCHEDULER_MAIN: Load scheduler "zit0" with entities [EventEntity, EventEntity], work=40*
  3: 0x02D6 [0x00] END_REQSTACK()
```

### Event 65535.44

#### Metadata

| Field        | Value    |
|--------------|----------|
| Entrypoint   | 0x02D7   |
| Data Size    | 16 bytes |
| Instructions | 2        |

```
      00 01 02 03 04 05 06 07  08 09 0A 0B 0C 0D 0E 0F
      -- -- -- -- -- -- -- --  -- -- -- -- -- -- -- --
02D0:                      66  00 80 F8 FF FF 7F F8 FF         f........
02E0: FF 7F 7A 69 74 30 00                              ..zit0.         
```

#### Opcodes

```
  0: 0x02D7 [0x66] LOAD_EXT_SCHEDULER_MAIN: Load scheduler "zit0" with entities [EventEntity, EventEntity], work=40*
  1: 0x02E6 [0x00] END_REQSTACK()
```

### Event 65535.45

#### Metadata

| Field        | Value    |
|--------------|----------|
| Entrypoint   | 0x02E7   |
| Data Size    | 14 bytes |
| Instructions | 2        |

```
      00 01 02 03 04 05 06 07  08 09 0A 0B 0C 0D 0E 0F
      -- -- -- -- -- -- -- --  -- -- -- -- -- -- -- --
02E0:                      53  F8 FF FF 7F F8 FF FF 7F         S........
02F0: 7A 69 74 30 00                                    zit0.           
```

#### Opcodes

```
  0: 0x02E7 [0x53] WAIT_SCHEDULER_TASK: Wait for scheduler "zit0" with entities [EventEntity, EventEntity]
  1: 0x02F4 [0x00] END_REQSTACK()
```

### Event 65535.46

#### Metadata

| Field        | Value    |
|--------------|----------|
| Entrypoint   | 0x02F5   |
| Data Size    | 18 bytes |
| Instructions | 4        |

```
      00 01 02 03 04 05 06 07  08 09 0A 0B 0C 0D 0E 0F
      -- -- -- -- -- -- -- --  -- -- -- -- -- -- -- --
02F0:                6E F8 FF  FF 7F 04 80 99 F8 FF FF       n..........
0300: 7F 99 F8 FF FF 7F 00                              .......         
```

#### Opcodes

```
  0: 0x02F5 [0x6E] EventEntity uses emote 1*
  1: 0x02FC [0x99] Wait for EventEntity animation to complete
  2: 0x0301 [0x99] Wait for EventEntity animation to complete
  3: 0x0306 [0x00] END_REQSTACK()
```

### Event 65535.47

#### Metadata

| Field        | Value    |
|--------------|----------|
| Entrypoint   | 0x0307   |
| Data Size    | 18 bytes |
| Instructions | 4        |

```
      00 01 02 03 04 05 06 07  08 09 0A 0B 0C 0D 0E 0F
      -- -- -- -- -- -- -- --  -- -- -- -- -- -- -- --
0300:                      6E  F8 FF FF 7F 05 80 99 F8         n........
0310: FF FF 7F 99 F8 FF FF 7F  00                       .........       
```

#### Opcodes

```
  0: 0x0307 [0x6E] EventEntity uses emote 7*
  1: 0x030E [0x99] Wait for EventEntity animation to complete
  2: 0x0313 [0x99] Wait for EventEntity animation to complete
  3: 0x0318 [0x00] END_REQSTACK()
```

### Event 65535.48

#### Metadata

| Field        | Value    |
|--------------|----------|
| Entrypoint   | 0x0319   |
| Data Size    | 18 bytes |
| Instructions | 4        |

```
      00 01 02 03 04 05 06 07  08 09 0A 0B 0C 0D 0E 0F
      -- -- -- -- -- -- -- --  -- -- -- -- -- -- -- --
0310:                             6E F8 FF FF 7F 06 80           n......
0320: 99 F8 FF FF 7F 99 F8 FF  FF 7F 00                 ...........     
```

#### Opcodes

```
  0: 0x0319 [0x6E] EventEntity uses emote 6*
  1: 0x0320 [0x99] Wait for EventEntity animation to complete
  2: 0x0325 [0x99] Wait for EventEntity animation to complete
  3: 0x032A [0x00] END_REQSTACK()
```

### Event 65535.49

#### Metadata

| Field        | Value    |
|--------------|----------|
| Entrypoint   | 0x032B   |
| Data Size    | 18 bytes |
| Instructions | 4        |

```
      00 01 02 03 04 05 06 07  08 09 0A 0B 0C 0D 0E 0F
      -- -- -- -- -- -- -- --  -- -- -- -- -- -- -- --
0320:                                   6E F8 FF FF 7F             n....
0330: 07 80 99 F8 FF FF 7F 99  F8 FF FF 7F 00           .............   
```

#### Opcodes

```
  0: 0x032B [0x6E] EventEntity uses emote 8*
  1: 0x0332 [0x99] Wait for EventEntity animation to complete
  2: 0x0337 [0x99] Wait for EventEntity animation to complete
  3: 0x033C [0x00] END_REQSTACK()
```

### Event 65535.50

#### Metadata

| Field        | Value    |
|--------------|----------|
| Entrypoint   | 0x033D   |
| Data Size    | 18 bytes |
| Instructions | 4        |

```
      00 01 02 03 04 05 06 07  08 09 0A 0B 0C 0D 0E 0F
      -- -- -- -- -- -- -- --  -- -- -- -- -- -- -- --
0330:                                         6E F8 FF               n..
0340: FF 7F 08 80 99 F8 FF FF  7F 99 F8 FF FF 7F 00     ............... 
```

#### Opcodes

```
  0: 0x033D [0x6E] EventEntity uses emote 13*
  1: 0x0344 [0x99] Wait for EventEntity animation to complete
  2: 0x0349 [0x99] Wait for EventEntity animation to complete
  3: 0x034E [0x00] END_REQSTACK()
```

### Event 65535.51

#### Metadata

| Field        | Value    |
|--------------|----------|
| Entrypoint   | 0x034F   |
| Data Size    | 27 bytes |
| Instructions | 3        |

```
      00 01 02 03 04 05 06 07  08 09 0A 0B 0C 0D 0E 0F
      -- -- -- -- -- -- -- --  -- -- -- -- -- -- -- --
0340:                                               2C                 ,
0350: F8 FF FF 7F F8 FF FF 7F  64 65 61 64 53 F8 FF FF  ........deadS...
0360: 7F F8 FF FF 7F 64 65 61  64 00                    .....dead.      
```

#### Opcodes

```
  0: 0x034F [0x2C] CREATE_SCHEDULER_TASK: Create scheduler "dead" with entities [EventEntity, EventEntity]
  1: 0x035C [0x53] WAIT_SCHEDULER_TASK: Wait for scheduler "dead" with entities [EventEntity, EventEntity]
  2: 0x0369 [0x00] END_REQSTACK()
```

### Event 65535.52

#### Metadata

| Field        | Value   |
|--------------|---------|
| Entrypoint   | 0x036A  |
| Data Size    | 9 bytes |
| Instructions | 3       |

```
      00 01 02 03 04 05 06 07  08 09 0A 0B 0C 0D 0E 0F
      -- -- -- -- -- -- -- --  -- -- -- -- -- -- -- --
0360:                                5E 69 64 6C 30 1C            ^idl0.
0370: 02 80 00                                          ...             
```

#### Opcodes

```
  0: 0x036A [0x5E] EventEntity goes idle (kills current action) (animation: "idl0")
  1: 0x036F [0x1C] WAIT(60* ticks)
  2: 0x0372 [0x00] END_REQSTACK()
```

### Event 65535.53

#### Metadata

| Field        | Value    |
|--------------|----------|
| Entrypoint   | 0x0373   |
| Data Size    | 16 bytes |
| Instructions | 2        |

```
      00 01 02 03 04 05 06 07  08 09 0A 0B 0C 0D 0E 0F
      -- -- -- -- -- -- -- --  -- -- -- -- -- -- -- --
0370:          66 01 80 F8 FF  FF 7F F8 FF FF 7F 63 61     f..........ca
0380: 62 6B 00                                          bk.             
```

#### Opcodes

```
  0: 0x0373 [0x66] LOAD_EXT_SCHEDULER_MAIN: Load scheduler "cabk" with entities [EventEntity, EventEntity], work=41*
  1: 0x0382 [0x00] END_REQSTACK()
```

### Event 65535.54

#### Metadata

| Field        | Value    |
|--------------|----------|
| Entrypoint   | 0x0383   |
| Data Size    | 14 bytes |
| Instructions | 2        |

```
      00 01 02 03 04 05 06 07  08 09 0A 0B 0C 0D 0E 0F
      -- -- -- -- -- -- -- --  -- -- -- -- -- -- -- --
0380:          53 F8 FF FF 7F  F8 FF FF 7F 63 61 62 6B     S........cabk
0390: 00                                                .               
```

#### Opcodes

```
  0: 0x0383 [0x53] WAIT_SCHEDULER_TASK: Wait for scheduler "cabk" with entities [EventEntity, EventEntity]
  1: 0x0390 [0x00] END_REQSTACK()
```

### Event 65535.55

#### Metadata

| Field        | Value    |
|--------------|----------|
| Entrypoint   | 0x0391   |
| Data Size    | 16 bytes |
| Instructions | 2        |

```
      00 01 02 03 04 05 06 07  08 09 0A 0B 0C 0D 0E 0F
      -- -- -- -- -- -- -- --  -- -- -- -- -- -- -- --
0390:    66 09 80 F8 FF FF 7F  F8 FF FF 7F 73 70 65 66   f..........spef
03A0: 00                                                .               
```

#### Opcodes

```
  0: 0x0391 [0x66] LOAD_EXT_SCHEDULER_MAIN: Load scheduler "spef" with entities [EventEntity, EventEntity], work=43*
  1: 0x03A0 [0x00] END_REQSTACK()
```

### Event 65535.56

#### Metadata

| Field        | Value    |
|--------------|----------|
| Entrypoint   | 0x03A1   |
| Data Size    | 14 bytes |
| Instructions | 2        |

```
      00 01 02 03 04 05 06 07  08 09 0A 0B 0C 0D 0E 0F
      -- -- -- -- -- -- -- --  -- -- -- -- -- -- -- --
03A0:    53 F8 FF FF 7F F8 FF  FF 7F 73 70 65 66 00      S........spef. 
```

#### Opcodes

```
  0: 0x03A1 [0x53] WAIT_SCHEDULER_TASK: Wait for scheduler "spef" with entities [EventEntity, EventEntity]
  1: 0x03AE [0x00] END_REQSTACK()
```

### Event 65535.57

#### Metadata

| Field        | Value    |
|--------------|----------|
| Entrypoint   | 0x03AF   |
| Data Size    | 16 bytes |
| Instructions | 2        |

```
      00 01 02 03 04 05 06 07  08 09 0A 0B 0C 0D 0E 0F
      -- -- -- -- -- -- -- --  -- -- -- -- -- -- -- --
03A0:                                               5B                 [
03B0: 0A 80 F8 FF FF 7F F8 FF  FF 7F 6F 6B 69 72 00     ..........okir. 
```

#### Opcodes

```
  0: 0x03AF [0x5B] LOAD_EXT_SCHEDULER: Load scheduler "okir" with entities [EventEntity, EventEntity], work=430*
  1: 0x03BE [0x00] END_REQSTACK()
```

### Event 65535.58

#### Metadata

| Field        | Value    |
|--------------|----------|
| Entrypoint   | 0x03BF   |
| Data Size    | 14 bytes |
| Instructions | 2        |

```
      00 01 02 03 04 05 06 07  08 09 0A 0B 0C 0D 0E 0F
      -- -- -- -- -- -- -- --  -- -- -- -- -- -- -- --
03B0:                                               53                 S
03C0: F8 FF FF 7F F8 FF FF 7F  6F 6B 69 72 00           ........okir.   
```

#### Opcodes

```
  0: 0x03BF [0x53] WAIT_SCHEDULER_TASK: Wait for scheduler "okir" with entities [EventEntity, EventEntity]
  1: 0x03CC [0x00] END_REQSTACK()
```

### Event 65535.59

#### Metadata

| Field        | Value    |
|--------------|----------|
| Entrypoint   | 0x03CD   |
| Data Size    | 16 bytes |
| Instructions | 2        |

```
      00 01 02 03 04 05 06 07  08 09 0A 0B 0C 0D 0E 0F
      -- -- -- -- -- -- -- --  -- -- -- -- -- -- -- --
03C0:                                         5B 0B 80               [..
03D0: F8 FF FF 7F F8 FF FF 7F  75 73 69 30 00           ........usi0.   
```

#### Opcodes

```
  0: 0x03CD [0x5B] LOAD_EXT_SCHEDULER: Load scheduler "usi0" with entities [EventEntity, EventEntity], work=431*
  1: 0x03DC [0x00] END_REQSTACK()
```

### Event 65535.60

#### Metadata

| Field        | Value    |
|--------------|----------|
| Entrypoint   | 0x03DD   |
| Data Size    | 14 bytes |
| Instructions | 2        |

```
      00 01 02 03 04 05 06 07  08 09 0A 0B 0C 0D 0E 0F
      -- -- -- -- -- -- -- --  -- -- -- -- -- -- -- --
03D0:                                         53 F8 FF               S..
03E0: FF 7F F8 FF FF 7F 75 73  69 30 00                 ......usi0.     
```

#### Opcodes

```
  0: 0x03DD [0x53] WAIT_SCHEDULER_TASK: Wait for scheduler "usi0" with entities [EventEntity, EventEntity]
  1: 0x03EA [0x00] END_REQSTACK()
```

### Event 65535.61

#### Metadata

| Field        | Value    |
|--------------|----------|
| Entrypoint   | 0x03EB   |
| Data Size    | 16 bytes |
| Instructions | 2        |

```
      00 01 02 03 04 05 06 07  08 09 0A 0B 0C 0D 0E 0F
      -- -- -- -- -- -- -- --  -- -- -- -- -- -- -- --
03E0:                                   5B 0B 80 F8 FF             [....
03F0: FF 7F F8 FF FF 7F 75 73  69 31 00                 ......usi1.     
```

#### Opcodes

```
  0: 0x03EB [0x5B] LOAD_EXT_SCHEDULER: Load scheduler "usi1" with entities [EventEntity, EventEntity], work=431*
  1: 0x03FA [0x00] END_REQSTACK()
```

### Event 65535.62

#### Metadata

| Field        | Value    |
|--------------|----------|
| Entrypoint   | 0x03FB   |
| Data Size    | 14 bytes |
| Instructions | 2        |

```
      00 01 02 03 04 05 06 07  08 09 0A 0B 0C 0D 0E 0F
      -- -- -- -- -- -- -- --  -- -- -- -- -- -- -- --
03F0:                                   53 F8 FF FF 7F             S....
0400: F8 FF FF 7F 75 73 69 31  00                       ....usi1.       
```

#### Opcodes

```
  0: 0x03FB [0x53] WAIT_SCHEDULER_TASK: Wait for scheduler "usi1" with entities [EventEntity, EventEntity]
  1: 0x0408 [0x00] END_REQSTACK()
```

### Event 65535.63

#### Metadata

| Field        | Value    |
|--------------|----------|
| Entrypoint   | 0x0409   |
| Data Size    | 16 bytes |
| Instructions | 2        |

```
      00 01 02 03 04 05 06 07  08 09 0A 0B 0C 0D 0E 0F
      -- -- -- -- -- -- -- --  -- -- -- -- -- -- -- --
0400:                             66 03 80 F8 FF FF 7F           f......
0410: F8 FF FF 7F 74 65 68 30  00                       ....teh0.       
```

#### Opcodes

```
  0: 0x0409 [0x66] LOAD_EXT_SCHEDULER_MAIN: Load scheduler "teh0" with entities [EventEntity, EventEntity], work=42*
  1: 0x0418 [0x00] END_REQSTACK()
```

### Event 65535.64

#### Metadata

| Field        | Value    |
|--------------|----------|
| Entrypoint   | 0x0419   |
| Data Size    | 14 bytes |
| Instructions | 2        |

```
      00 01 02 03 04 05 06 07  08 09 0A 0B 0C 0D 0E 0F
      -- -- -- -- -- -- -- --  -- -- -- -- -- -- -- --
0410:                             53 F8 FF FF 7F F8 FF           S......
0420: FF 7F 74 65 68 30 00                              ..teh0.         
```

#### Opcodes

```
  0: 0x0419 [0x53] WAIT_SCHEDULER_TASK: Wait for scheduler "teh0" with entities [EventEntity, EventEntity]
  1: 0x0426 [0x00] END_REQSTACK()
```

### Event 65535.65

#### Metadata

| Field        | Value    |
|--------------|----------|
| Entrypoint   | 0x0427   |
| Data Size    | 16 bytes |
| Instructions | 2        |

```
      00 01 02 03 04 05 06 07  08 09 0A 0B 0C 0D 0E 0F
      -- -- -- -- -- -- -- --  -- -- -- -- -- -- -- --
0420:                      66  03 80 F8 FF FF 7F F8 FF         f........
0430: FF 7F 74 65 68 31 00                              ..teh1.         
```

#### Opcodes

```
  0: 0x0427 [0x66] LOAD_EXT_SCHEDULER_MAIN: Load scheduler "teh1" with entities [EventEntity, EventEntity], work=42*
  1: 0x0436 [0x00] END_REQSTACK()
```

### Event 65535.66

#### Metadata

| Field        | Value    |
|--------------|----------|
| Entrypoint   | 0x0437   |
| Data Size    | 14 bytes |
| Instructions | 2        |

```
      00 01 02 03 04 05 06 07  08 09 0A 0B 0C 0D 0E 0F
      -- -- -- -- -- -- -- --  -- -- -- -- -- -- -- --
0430:                      53  F8 FF FF 7F F8 FF FF 7F         S........
0440: 74 65 68 31 00                                    teh1.           
```

#### Opcodes

```
  0: 0x0437 [0x53] WAIT_SCHEDULER_TASK: Wait for scheduler "teh1" with entities [EventEntity, EventEntity]
  1: 0x0444 [0x00] END_REQSTACK()
```

### Event 65535.67

#### Metadata

| Field        | Value    |
|--------------|----------|
| Entrypoint   | 0x0445   |
| Data Size    | 16 bytes |
| Instructions | 2        |

```
      00 01 02 03 04 05 06 07  08 09 0A 0B 0C 0D 0E 0F
      -- -- -- -- -- -- -- --  -- -- -- -- -- -- -- --
0440:                66 0C 80  F8 FF FF 7F F8 FF FF 7F       f..........
0450: 6D 64 71 30 00                                    mdq0.           
```

#### Opcodes

```
  0: 0x0445 [0x66] LOAD_EXT_SCHEDULER_MAIN: Load scheduler "mdq0" with entities [EventEntity, EventEntity], work=46*
  1: 0x0454 [0x00] END_REQSTACK()
```

### Event 65535.68

#### Metadata

| Field        | Value    |
|--------------|----------|
| Entrypoint   | 0x0455   |
| Data Size    | 14 bytes |
| Instructions | 2        |

```
      00 01 02 03 04 05 06 07  08 09 0A 0B 0C 0D 0E 0F
      -- -- -- -- -- -- -- --  -- -- -- -- -- -- -- --
0450:                53 F8 FF  FF 7F F8 FF FF 7F 6D 64       S........md
0460: 71 30 00                                          q0.             
```

#### Opcodes

```
  0: 0x0455 [0x53] WAIT_SCHEDULER_TASK: Wait for scheduler "mdq0" with entities [EventEntity, EventEntity]
  1: 0x0462 [0x00] END_REQSTACK()
```

### Event 65535.69

#### Metadata

| Field        | Value    |
|--------------|----------|
| Entrypoint   | 0x0463   |
| Data Size    | 16 bytes |
| Instructions | 2        |

```
      00 01 02 03 04 05 06 07  08 09 0A 0B 0C 0D 0E 0F
      -- -- -- -- -- -- -- --  -- -- -- -- -- -- -- --
0460:          66 0C 80 F8 FF  FF 7F F8 FF FF 7F 6D 64     f..........md
0470: 71 33 00                                          q3.             
```

#### Opcodes

```
  0: 0x0463 [0x66] LOAD_EXT_SCHEDULER_MAIN: Load scheduler "mdq3" with entities [EventEntity, EventEntity], work=46*
  1: 0x0472 [0x00] END_REQSTACK()
```

### Event 65535.70

#### Metadata

| Field        | Value    |
|--------------|----------|
| Entrypoint   | 0x0473   |
| Data Size    | 14 bytes |
| Instructions | 2        |

```
      00 01 02 03 04 05 06 07  08 09 0A 0B 0C 0D 0E 0F
      -- -- -- -- -- -- -- --  -- -- -- -- -- -- -- --
0470:          53 F8 FF FF 7F  F8 FF FF 7F 6D 64 71 33     S........mdq3
0480: 00                                                .               
```

#### Opcodes

```
  0: 0x0473 [0x53] WAIT_SCHEDULER_TASK: Wait for scheduler "mdq3" with entities [EventEntity, EventEntity]
  1: 0x0480 [0x00] END_REQSTACK()
```

### Event 443

#### Metadata

| Field        | Value    |
|--------------|----------|
| Entrypoint   | 0x0481   |
| Data Size    | 16 bytes |
| Instructions | 3        |

```
      00 01 02 03 04 05 06 07  08 09 0A 0B 0C 0D 0E 0F
      -- -- -- -- -- -- -- --  -- -- -- -- -- -- -- --
0480:    92 01 F8 FF FF 7F 37  0D 80 0E 80 0F 80 10 80   ......7........
0490: 00                                                .               
```

#### Opcodes

```
  0: 0x0481 [0x92] EventEntity->Render.Flags3 ^= 0x01
  1: 0x0487 [0x37] UPDATE_EVENT_POSITION_AND_DIR: x=-81.730*, z=125.774*, y=-5.407*, direction=138.3*
  2: 0x0490 [0x00] END_REQSTACK()
```

### Event 163

#### Metadata

| Field        | Value    |
|--------------|----------|
| Entrypoint   | 0x0491   |
| Data Size    | 33 bytes |
| Instructions | 12       |

```
      00 01 02 03 04 05 06 07  08 09 0A 0B 0C 0D 0E 0F
      -- -- -- -- -- -- -- --  -- -- -- -- -- -- -- --
0490:    1E F0 FF FF 7F 6F 70  29 08 1A F0 0E 01 01 1D   .....op).......
04A0: 11 80 23 1D 12 80 23 29  08 1A F0 0E 01 02 20 00  ..#...#)...... .
04B0: 21 00                                             !.              
```

#### Opcodes

```
  0: 0x0491 [0x1E] EventEntity looks at LocalPlayer and starts talking
  1: 0x0496 [0x6F] WAIT_FRAME_DELAY: Yield until WaitTime reaches zero
  2: 0x0497 [0x70] WAIT_ENTITY_RENDER_FLAG: Wait while EventEntity->Render.Flags3 bit 2 is set (cancel turn if not)
  3: 0x0498 [0x29] REQ_SET_WAIT(priority=0x08, entity_id=Shantotto (ID: 17756186/0x010EF01A), tag_num=0x01)
  4: 0x049F [0x1D] PRINT_EVENT_MESSAGE(message_id=7460*)
     "Why, hello`! And, oh...goodbye!"
  5: 0x04A2 [0x23] WAIT_FOR_DIALOG_INTERACTION
  6: 0x04A3 [0x1D] PRINT_EVENT_MESSAGE(message_id=7462*)
