# 17756178 - Kohlo-Lakolo

## Common Data

| Field            | Value                    |
|------------------|--------------------------|
| Zone             | Windurst Walls (ID: 239) |
| Block Size       | 1812 bytes               |
| Total Events     | 75                       |
| References Count | 100                      |

## List of Events

| Event ID                   | Entrypoint   |   Size |   Instructions |
|----------------------------|--------------|--------|----------------|
| [65535](#event-65535)      | 0x0000       |      1 |              1 |
| [65535.1](#event-655351)   | 0x0001       |     16 |              2 |
| [65535.2](#event-655352)   | 0x0011       |     22 |              4 |
| [65535.3](#event-655353)   | 0x0027       |     16 |              2 |
| [65535.4](#event-655354)   | 0x0037       |     14 |              2 |
| [65535.5](#event-655355)   | 0x0045       |     16 |              2 |
| [65535.6](#event-655356)   | 0x0055       |     14 |              2 |
| [65535.7](#event-655357)   | 0x0063       |     22 |              3 |
| [65535.8](#event-655358)   | 0x0079       |     20 |              3 |
| [65535.9](#event-655359)   | 0x008D       |     16 |              2 |
| [65535.10](#event-6553510) | 0x009D       |     22 |              4 |
| [65535.11](#event-6553511) | 0x00B3       |     16 |              2 |
| [65535.12](#event-6553512) | 0x00C3       |     22 |              4 |
| [65535.13](#event-6553513) | 0x00D9       |     22 |              3 |
| [65535.14](#event-6553514) | 0x00EF       |     20 |              3 |
| [65535.15](#event-6553515) | 0x0103       |     16 |              2 |
| [65535.16](#event-6553516) | 0x0113       |     14 |              2 |
| [65535.17](#event-6553517) | 0x0121       |     16 |              2 |
| [65535.18](#event-6553518) | 0x0131       |     14 |              2 |
| [65535.19](#event-6553519) | 0x013F       |     16 |              2 |
| [65535.20](#event-6553520) | 0x014F       |     14 |              2 |
| [65535.21](#event-6553521) | 0x015D       |     16 |              2 |
| [65535.22](#event-6553522) | 0x016D       |     14 |              2 |
| [65535.23](#event-6553523) | 0x017B       |      9 |              3 |
| [289](#event-289)          | 0x0184       |      1 |              1 |
| [65535.24](#event-6553524) | 0x0185       |     10 |              2 |
| [65535.25](#event-6553525) | 0x018F       |     37 |              9 |
| [65535.26](#event-6553526) | 0x01B4       |     15 |              5 |
| [65535.27](#event-6553527) | 0x01C3       |     18 |              6 |
| [65535.28](#event-6553528) | 0x01D5       |     22 |              4 |
| [65535.29](#event-6553529) | 0x01EB       |      5 |              3 |
| [65535.30](#event-6553530) | 0x01F0       |     37 |              9 |
| [65535.31](#event-6553531) | 0x0215       |     23 |              7 |
| [65535.32](#event-6553532) | 0x022C       |      5 |              3 |
| [65535.33](#event-6553533) | 0x0231       |      5 |              3 |
| [65535.34](#event-6553534) | 0x0236       |      5 |              3 |
| [65535.35](#event-6553535) | 0x023B       |      5 |              3 |
| [65535.36](#event-6553536) | 0x0240       |      5 |              3 |
| [65535.37](#event-6553537) | 0x0245       |     19 |              5 |
| [65535.38](#event-6553538) | 0x0258       |     19 |              5 |
| [65535.39](#event-6553539) | 0x026B       |     19 |              5 |
| [65535.40](#event-6553540) | 0x027E       |      5 |              3 |
| [65535.41](#event-6553541) | 0x0283       |     10 |              2 |
| [65535.42](#event-6553542) | 0x028D       |     10 |              2 |
| [65535.43](#event-6553543) | 0x0297       |     15 |              5 |
| [65535.44](#event-6553544) | 0x02A6       |     15 |              5 |
| [65535.45](#event-6553545) | 0x02B5       |     24 |              6 |
| [65535.46](#event-6553546) | 0x02CD       |      5 |              3 |
| [65535.47](#event-6553547) | 0x02D2       |     19 |              5 |
| [65535.48](#event-6553548) | 0x02E5       |     19 |              5 |
| [65535.49](#event-6553549) | 0x02F8       |     19 |              5 |
| [65535.50](#event-6553550) | 0x030B       |     33 |              7 |
| [65535.51](#event-6553551) | 0x032C       |      5 |              3 |
| [65535.52](#event-6553552) | 0x0331       |     27 |              7 |
| [65535.53](#event-6553553) | 0x034C       |     17 |              6 |
| [65535.54](#event-6553554) | 0x035D       |     19 |              5 |
| [65535.55](#event-6553555) | 0x0370       |      5 |              3 |
| [65535.56](#event-6553556) | 0x0375       |      5 |              3 |
| [288](#event-288)          | 0x037A       |      1 |              1 |
| [65535.57](#event-6553557) | 0x037B       |     10 |              2 |
| [65535.58](#event-6553558) | 0x0385       |     43 |              9 |
| [65535.59](#event-6553559) | 0x03B0       |     15 |              5 |
| [65535.60](#event-6553560) | 0x03BF       |     10 |              2 |
| [65535.61](#event-6553561) | 0x03C9       |     15 |              5 |
| [65535.62](#event-6553562) | 0x03D8       |      5 |              3 |
| [65535.63](#event-6553563) | 0x03DD       |      5 |              3 |
| [65535.64](#event-6553564) | 0x03E2       |      5 |              3 |
| [65535.65](#event-6553565) | 0x03E7       |      5 |              3 |
| [65535.66](#event-6553566) | 0x03EC       |     19 |              5 |
| [65535.67](#event-6553567) | 0x03FF       |      5 |              3 |
| [65535.68](#event-6553568) | 0x0404       |     19 |              5 |
| [65535.69](#event-6553569) | 0x0417       |      5 |              3 |
| [65535.70](#event-6553570) | 0x041C       |     19 |              5 |
| [65535.71](#event-6553571) | 0x042F       |     19 |              5 |
| [65535.72](#event-6553572) | 0x0442       |      5 |              3 |

## DAT References (imed_data)

|   Index | Hex Value   |   Dec Value |
|---------|-------------|-------------|
|       0 | 0x0055      |          85 |
|       1 | 0x001E      |          30 |
|       2 | 0x0058      |          88 |
|       3 | 0xFFFF9EDD  |  4294942429 |
|       4 | 0x424DF     |      271583 |
|       5 | 0xFFFFD120  |  4294955296 |
|       6 | 0x03E8      |        1000 |
|       7 | 0xFFFF9AC2  |  4294941378 |
|       8 | 0x40F62     |      266082 |
|       9 | 0xFFFFCF2F  |  4294954799 |
|      10 | 0x0C44      |        3140 |
|      11 | 0x0015      |          21 |
|      12 | 0xFFFF9CA6  |  4294941862 |
|      13 | 0x421B6     |      270774 |
|      14 | 0xFFFFA2A3  |  4294943395 |
|      15 | 0x42635     |      271925 |
|      16 | 0x0E91      |        3729 |
|      17 | 0x0007      |           7 |
|      18 | 0xFFFFA3AA  |  4294943658 |
|      19 | 0x4290C     |      272652 |
|      20 | 0x0C7B      |        3195 |
|      21 | 0x0064      |         100 |
|      22 | 0x1E7D      |        7805 |
|      23 | 0x1E7E      |        7806 |
|      24 | 0x1E7F      |        7807 |
|      25 | 0x1E81      |        7809 |
|      26 | 0x1E82      |        7810 |
|      27 | 0x1E85      |        7813 |
|      28 | 0x1E8A      |        7818 |
|      29 | 0x1E8D      |        7821 |
|      30 | 0x1E94      |        7828 |
|      31 | 0x1E95      |        7829 |
|      32 | 0x1E96      |        7830 |
|      33 | 0x1E97      |        7831 |
|      34 | 0x1E98      |        7832 |
|      35 | 0x1EAB      |        7851 |
|      36 | 0xFFFF8FD4  |  4294938580 |
|      37 | 0x45A1F     |      285215 |
|      38 | 0xFFFFCD39  |  4294954297 |
|      39 | 0x0A3D      |        2621 |
|      40 | 0xFFFF788D  |  4294932621 |
|      41 | 0x44FC8     |      282568 |
|      42 | 0x0BD7      |        3031 |
|      43 | 0xFFFF857D  |  4294935933 |
|      44 | 0x45348     |      283464 |
|      45 | 0xFFFF7AE5  |  4294933221 |
|      46 | 0x45227     |      283175 |
|      47 | 0xFFFFCD38  |  4294954296 |
|      48 | 0xFFFF905B  |  4294938715 |
|      49 | 0x45572     |      284018 |
|      50 | 0x1E99      |        7833 |
|      51 | 0x1EA2      |        7842 |
|      52 | 0x1EA4      |        7844 |
|      53 | 0x1EA6      |        7846 |
|      54 | 0x1EA8      |        7848 |
|      55 | 0x1EA9      |        7849 |
|      56 | 0xFFFF9A72  |  4294941298 |
|      57 | 0x3FCF4     |      261364 |
|      58 | 0x049A      |        1178 |
|      59 | 0xFFFF9A95  |  4294941333 |
|      60 | 0x3D345     |      250693 |
|      61 | 0xFFFFD018  |  4294955032 |
|      62 | 0x0C5D      |        3165 |
|      63 | 0xFFFF6844  |  4294928452 |
|      64 | 0x3B5A8     |      243112 |
|      65 | 0xFFFFCF2D  |  4294954797 |
|      66 | 0x1EB6      |        7862 |
|      67 | 0x1EBB      |        7867 |
|      68 | 0x1EBC      |        7868 |
|      69 | 0xFFFF9B01  |  4294941441 |
|      70 | 0x407D1     |      264145 |
|      71 | 0xFFFFB9B1  |  4294949297 |
|      72 | 0x03BD      |         957 |
|      73 | 0xFFFF89B3  |  4294937011 |
|      74 | 0x3CF54     |      249684 |
|      75 | 0xFFFFD004  |  4294955012 |
|      76 | 0x0E29      |        3625 |
|      77 | 0xFFFF9621  |  4294940193 |
|      78 | 0x3E317     |      254743 |
|      79 | 0xFFFFCF7E  |  4294954878 |
|      80 | 0xFFFF9A4E  |  4294941262 |
|      81 | 0x3EF1B     |      257819 |
|      82 | 0xFFFFCE0E  |  4294954510 |
|      83 | 0xFFFFB33D  |  4294947645 |
|      84 | 0x42C50     |      273488 |
|      85 | 0xFFFFBBA4  |  4294949796 |
|      86 | 0x0BEA      |        3050 |
|      87 | 0xFFFF9AE2  |  4294941410 |
|      88 | 0x3F3EF     |      259055 |
|      89 | 0x1E5C      |        7772 |
|      90 | 0x1E5D      |        7773 |
|      91 | 0x1E5E      |        7774 |
|      92 | 0x1E5F      |        7775 |
|      93 | 0x1E61      |        7777 |
|      94 | 0x1E63      |        7779 |
|      95 | 0x1E68      |        7784 |
|      96 | 0x1E6E      |        7790 |
|      97 | 0x1E6F      |        7791 |
|      98 | 0x1E75      |        7797 |
|      99 | 0x1E76      |        7798 |

## String References

- **7772**: I was able to make some pretty cool stinky-bombs with the $1 you brought us!
- **7773**: Star Onion Brigade, attentio\`n! "Operation Onion" will now begin!
- **7774**: The trap is set, and we're all in position! Now all we have to do is wait for the Cat Burglar to show!
- **7775**: Oi! Whoever's in charge of candy provisions! How about you deal out some candy now?
- **7777**: You idiot! You're pushing for a dishonorable discharge from the Star Onion Brigade for forgetting your candy responsibilities!
- **7779**: Wait till you see the whites of her eyes, then let her have it with our onion stinky-bombs!!!
- **7784**: Everybody, CHAAAAARRRGE!
- **7790**: (I think we knocked her out...!)
- **7791**: (Good. Now let's quietly approach her and tie her up with our ropey-rope!)
- **7797**: Waaa\`rgh!
- **7798**: Run for your li\`ves!
- **7805**: Ta-da\`! The Star Onion Brigade is on the scene!
- **7806**: Nanaa Mihgo! Otherwise known as the Cat Burglar! We're on your tail now!
- **7807**: We're not letting you out of here until you promise to give up your evil ways for good!
- **7809**: Bite your tongue! We're very busy-wusy fighting crime, you know?
- **7810**: We're the ones who solve all of Windurst's problems that grown-ups turn a blind eye to!
- **7813**: Huh? Is that true?
- **7818**: ......
- **7821**: Did the door just lock...?
- **7828**: ......
- **7829**: Zoinks...!
- **7830**: E-e-e-every-one re-m-m-main c-c-calm!
- **7831**: Th-there's no-no-no s-s-such th-things as g-ghosties! The C-cat Burglar is j-just trying t-to s-scare us!
- **7832**: Th-there's got to be a perfectly reasonable explanation for this! L-let's check out where the s-sound came from...e-everyone!
- **7833**: Looky-see... There's a gap behind this bookshelf!
- **7842**: A corpse!?
- **7844**: No, Pichichi! Keep back! It's too dangerous!
- **7846**: I, erh, guess not...but a ghosty may come out of it!
- **7848**: Um... Either way, I don't think it's wise to find out!
- **7849**: Ah...!
- **7851**: Wo-wo-wo-wo-whoah!
- **7862**: Yet another close call for the Star Onion Brigade!
- **7867**: And thanks to Joker, we were able to escape!
- **7868**: Well, that was more than enough adventure for today... Let's all head back to Star Onion headquarters at the port.

## Events

### Event 65535

#### Metadata

| Field        | Value   |
|--------------|---------|
| Entrypoint   | 0x0000  |
| Data Size    | 1 bytes |
| Instructions | 1       |

```
      00 01 02 03 04 05 06 07  08 09 0A 0B 0C 0D 0E 0F
      -- -- -- -- -- -- -- --  -- -- -- -- -- -- -- --
0000: 00                                                .               
```

#### Opcodes

```
  0: 0x0000 [0x00] END_REQSTACK()
```

### Event 65535.1

#### Metadata

| Field        | Value    |
|--------------|----------|
| Entrypoint   | 0x0001   |
| Data Size    | 16 bytes |
| Instructions | 2        |

```
      00 01 02 03 04 05 06 07  08 09 0A 0B 0C 0D 0E 0F
      -- -- -- -- -- -- -- --  -- -- -- -- -- -- -- --
0000:    5B 00 80 F8 FF FF 7F  F8 FF FF 7F 74 6C 6B 30   [..........tlk0
0010: 00                                                .               
```

#### Opcodes

```
  0: 0x0001 [0x5B] LOAD_EXT_SCHEDULER: Load scheduler "tlk0" with entities [EventEntity, EventEntity], work=85*
  1: 0x0010 [0x00] END_REQSTACK()
```

### Event 65535.2

#### Metadata

| Field        | Value    |
|--------------|----------|
| Entrypoint   | 0x0011   |
| Data Size    | 22 bytes |
| Instructions | 4        |

```
      00 01 02 03 04 05 06 07  08 09 0A 0B 0C 0D 0E 0F
      -- -- -- -- -- -- -- --  -- -- -- -- -- -- -- --
0010:    53 F8 FF FF 7F F8 FF  FF 7F 74 6C 6B 30 5E 69   S........tlk0^i
0020: 64 6C 30 1C 01 80 00                              dl0....         
```

#### Opcodes

```
  0: 0x0011 [0x53] WAIT_SCHEDULER_TASK: Wait for scheduler "tlk0" with entities [EventEntity, EventEntity]
  1: 0x001E [0x5E] EventEntity goes idle (kills current action) (animation: "idl0")
  2: 0x0023 [0x1C] WAIT(30* ticks)
  3: 0x0026 [0x00] END_REQSTACK()
```

### Event 65535.3

#### Metadata

| Field        | Value    |
|--------------|----------|
| Entrypoint   | 0x0027   |
| Data Size    | 16 bytes |
| Instructions | 2        |

```
      00 01 02 03 04 05 06 07  08 09 0A 0B 0C 0D 0E 0F
      -- -- -- -- -- -- -- --  -- -- -- -- -- -- -- --
0020:                      5B  00 80 F8 FF FF 7F F8 FF         [........
0030: FF 7F 74 68 6B 31 00                              ..thk1.         
```

#### Opcodes

```
  0: 0x0027 [0x5B] LOAD_EXT_SCHEDULER: Load scheduler "thk1" with entities [EventEntity, EventEntity], work=85*
  1: 0x0036 [0x00] END_REQSTACK()
```

### Event 65535.4

#### Metadata

| Field        | Value    |
|--------------|----------|
| Entrypoint   | 0x0037   |
| Data Size    | 14 bytes |
| Instructions | 2        |

```
      00 01 02 03 04 05 06 07  08 09 0A 0B 0C 0D 0E 0F
      -- -- -- -- -- -- -- --  -- -- -- -- -- -- -- --
0030:                      53  F8 FF FF 7F F8 FF FF 7F         S........
0040: 74 68 6B 31 00                                    thk1.           
```

#### Opcodes

```
  0: 0x0037 [0x53] WAIT_SCHEDULER_TASK: Wait for scheduler "thk1" with entities [EventEntity, EventEntity]
  1: 0x0044 [0x00] END_REQSTACK()
```

### Event 65535.5

#### Metadata

| Field        | Value    |
|--------------|----------|
| Entrypoint   | 0x0045   |
| Data Size    | 16 bytes |
| Instructions | 2        |

```
      00 01 02 03 04 05 06 07  08 09 0A 0B 0C 0D 0E 0F
      -- -- -- -- -- -- -- --  -- -- -- -- -- -- -- --
0040:                5B 00 80  F8 FF FF 7F F8 FF FF 7F       [..........
0050: 74 68 6B 32 00                                    thk2.           
```

#### Opcodes

```
  0: 0x0045 [0x5B] LOAD_EXT_SCHEDULER: Load scheduler "thk2" with entities [EventEntity, EventEntity], work=85*
  1: 0x0054 [0x00] END_REQSTACK()
```

### Event 65535.6

#### Metadata

| Field        | Value    |
|--------------|----------|
| Entrypoint   | 0x0055   |
| Data Size    | 14 bytes |
| Instructions | 2        |

```
      00 01 02 03 04 05 06 07  08 09 0A 0B 0C 0D 0E 0F
      -- -- -- -- -- -- -- --  -- -- -- -- -- -- -- --
0050:                53 F8 FF  FF 7F F8 FF FF 7F 74 68       S........th
0060: 6B 32 00                                          k2.             
```

#### Opcodes

```
  0: 0x0055 [0x53] WAIT_SCHEDULER_TASK: Wait for scheduler "thk2" with entities [EventEntity, EventEntity]
  1: 0x0062 [0x00] END_REQSTACK()
```

### Event 65535.7

#### Metadata

| Field        | Value    |
|--------------|----------|
| Entrypoint   | 0x0063   |
| Data Size    | 22 bytes |
| Instructions | 3        |

```
      00 01 02 03 04 05 06 07  08 09 0A 0B 0C 0D 0E 0F
      -- -- -- -- -- -- -- --  -- -- -- -- -- -- -- --
0060:          7C 00 F8 FF FF  7F 5B 00 80 F8 FF FF 7F     |.....[......
0070: F8 FF FF 7F 65 68 65 30  00                       ....ehe0.       
```

#### Opcodes

```
  0: 0x0063 [0x7C] EventEntity->Render.Flags2 |= 0x00
  1: 0x0069 [0x5B] LOAD_EXT_SCHEDULER: Load scheduler "ehe0" with entities [EventEntity, EventEntity], work=85*
  2: 0x0078 [0x00] END_REQSTACK()
```

### Event 65535.8

#### Metadata

| Field        | Value    |
|--------------|----------|
| Entrypoint   | 0x0079   |
| Data Size    | 20 bytes |
| Instructions | 3        |

```
      00 01 02 03 04 05 06 07  08 09 0A 0B 0C 0D 0E 0F
      -- -- -- -- -- -- -- --  -- -- -- -- -- -- -- --
0070:                             53 F8 FF FF 7F F8 FF           S......
0080: FF 7F 74 6C 6B 30 7C 01  F8 FF FF 7F 00           ..tlk0|......   
```

#### Opcodes

```
  0: 0x0079 [0x53] WAIT_SCHEDULER_TASK: Wait for scheduler "tlk0" with entities [EventEntity, EventEntity]
  1: 0x0086 [0x7C] EventEntity->Render.Flags2 |= 0x01
  2: 0x008C [0x00] END_REQSTACK()
```

### Event 65535.9

#### Metadata

| Field        | Value    |
|--------------|----------|
| Entrypoint   | 0x008D   |
| Data Size    | 16 bytes |
| Instructions | 2        |

```
      00 01 02 03 04 05 06 07  08 09 0A 0B 0C 0D 0E 0F
      -- -- -- -- -- -- -- --  -- -- -- -- -- -- -- --
0080:                                         5B 00 80               [..
0090: F8 FF FF 7F F8 FF FF 7F  61 6E 67 30 00           ........ang0.   
```

#### Opcodes

```
  0: 0x008D [0x5B] LOAD_EXT_SCHEDULER: Load scheduler "ang0" with entities [EventEntity, EventEntity], work=85*
  1: 0x009C [0x00] END_REQSTACK()
```

### Event 65535.10

#### Metadata

| Field        | Value    |
|--------------|----------|
| Entrypoint   | 0x009D   |
| Data Size    | 22 bytes |
| Instructions | 4        |

```
      00 01 02 03 04 05 06 07  08 09 0A 0B 0C 0D 0E 0F
      -- -- -- -- -- -- -- --  -- -- -- -- -- -- -- --
0090:                                         53 F8 FF               S..
00A0: FF 7F F8 FF FF 7F 61 6E  67 30 5E 69 64 6C 30 1C  ......ang0^idl0.
00B0: 01 80 00                                          ...             
```

#### Opcodes

```
  0: 0x009D [0x53] WAIT_SCHEDULER_TASK: Wait for scheduler "ang0" with entities [EventEntity, EventEntity]
  1: 0x00AA [0x5E] EventEntity goes idle (kills current action) (animation: "idl0")
  2: 0x00AF [0x1C] WAIT(30* ticks)
  3: 0x00B2 [0x00] END_REQSTACK()
```

### Event 65535.11

#### Metadata

| Field        | Value    |
|--------------|----------|
| Entrypoint   | 0x00B3   |
| Data Size    | 16 bytes |
| Instructions | 2        |

```
      00 01 02 03 04 05 06 07  08 09 0A 0B 0C 0D 0E 0F
      -- -- -- -- -- -- -- --  -- -- -- -- -- -- -- --
00B0:          5B 00 80 F8 FF  FF 7F F8 FF FF 7F 6B 6F     [..........ko
00C0: 77 30 00                                          w0.             
```

#### Opcodes

```
  0: 0x00B3 [0x5B] LOAD_EXT_SCHEDULER: Load scheduler "kow0" with entities [EventEntity, EventEntity], work=85*
  1: 0x00C2 [0x00] END_REQSTACK()
```

### Event 65535.12

#### Metadata

| Field        | Value    |
|--------------|----------|
| Entrypoint   | 0x00C3   |
| Data Size    | 22 bytes |
| Instructions | 4        |

```
      00 01 02 03 04 05 06 07  08 09 0A 0B 0C 0D 0E 0F
      -- -- -- -- -- -- -- --  -- -- -- -- -- -- -- --
00C0:          53 F8 FF FF 7F  F8 FF FF 7F 6B 6F 77 30     S........kow0
00D0: 5E 69 64 6C 30 1C 01 80  00                       ^idl0....       
```

#### Opcodes

```
  0: 0x00C3 [0x53] WAIT_SCHEDULER_TASK: Wait for scheduler "kow0" with entities [EventEntity, EventEntity]
  1: 0x00D0 [0x5E] EventEntity goes idle (kills current action) (animation: "idl0")
  2: 0x00D5 [0x1C] WAIT(30* ticks)
  3: 0x00D8 [0x00] END_REQSTACK()
```

### Event 65535.13

#### Metadata

| Field        | Value    |
|--------------|----------|
| Entrypoint   | 0x00D9   |
| Data Size    | 22 bytes |
| Instructions | 3        |

```
      00 01 02 03 04 05 06 07  08 09 0A 0B 0C 0D 0E 0F
      -- -- -- -- -- -- -- --  -- -- -- -- -- -- -- --
00D0:                             7C 00 F8 FF FF 7F 5B           |.....[
00E0: 00 80 F8 FF FF 7F F8 FF  FF 7F 73 75 72 30 00     ..........sur0. 
```

#### Opcodes

```
  0: 0x00D9 [0x7C] EventEntity->Render.Flags2 |= 0x00
  1: 0x00DF [0x5B] LOAD_EXT_SCHEDULER: Load scheduler "sur0" with entities [EventEntity, EventEntity], work=85*
  2: 0x00EE [0x00] END_REQSTACK()
```

### Event 65535.14

#### Metadata

| Field        | Value    |
|--------------|----------|
| Entrypoint   | 0x00EF   |
| Data Size    | 20 bytes |
| Instructions | 3        |

```
      00 01 02 03 04 05 06 07  08 09 0A 0B 0C 0D 0E 0F
      -- -- -- -- -- -- -- --  -- -- -- -- -- -- -- --
00E0:                                               53                 S
00F0: F8 FF FF 7F F8 FF FF 7F  73 75 72 30 7C 01 F8 FF  ........sur0|...
0100: FF 7F 00                                          ...             
```

#### Opcodes

```
  0: 0x00EF [0x53] WAIT_SCHEDULER_TASK: Wait for scheduler "sur0" with entities [EventEntity, EventEntity]
  1: 0x00FC [0x7C] EventEntity->Render.Flags2 |= 0x01
  2: 0x0102 [0x00] END_REQSTACK()
```

### Event 65535.15

#### Metadata

| Field        | Value    |
|--------------|----------|
| Entrypoint   | 0x0103   |
| Data Size    | 16 bytes |
| Instructions | 2        |

```
      00 01 02 03 04 05 06 07  08 09 0A 0B 0C 0D 0E 0F
      -- -- -- -- -- -- -- --  -- -- -- -- -- -- -- --
0100:          5B 00 80 F8 FF  FF 7F F8 FF FF 7F 70 61     [..........pa
0110: 6E 30 00                                          n0.             
```

#### Opcodes

```
  0: 0x0103 [0x5B] LOAD_EXT_SCHEDULER: Load scheduler "pan0" with entities [EventEntity, EventEntity], work=85*
  1: 0x0112 [0x00] END_REQSTACK()
```

### Event 65535.16

#### Metadata

| Field        | Value    |
|--------------|----------|
| Entrypoint   | 0x0113   |
| Data Size    | 14 bytes |
| Instructions | 2        |

```
      00 01 02 03 04 05 06 07  08 09 0A 0B 0C 0D 0E 0F
      -- -- -- -- -- -- -- --  -- -- -- -- -- -- -- --
0110:          53 F8 FF FF 7F  F8 FF FF 7F 70 61 6E 30     S........pan0
0120: 00                                                .               
```

#### Opcodes

```
  0: 0x0113 [0x53] WAIT_SCHEDULER_TASK: Wait for scheduler "pan0" with entities [EventEntity, EventEntity]
  1: 0x0120 [0x00] END_REQSTACK()
```

### Event 65535.17

#### Metadata

| Field        | Value    |
|--------------|----------|
| Entrypoint   | 0x0121   |
| Data Size    | 16 bytes |
| Instructions | 2        |

```
      00 01 02 03 04 05 06 07  08 09 0A 0B 0C 0D 0E 0F
      -- -- -- -- -- -- -- --  -- -- -- -- -- -- -- --
0120:    5B 00 80 F8 FF FF 7F  F8 FF FF 7F 6A 6D 70 30   [..........jmp0
0130: 00                                                .               
```

#### Opcodes

```
  0: 0x0121 [0x5B] LOAD_EXT_SCHEDULER: Load scheduler "jmp0" with entities [EventEntity, EventEntity], work=85*
  1: 0x0130 [0x00] END_REQSTACK()
```

### Event 65535.18

#### Metadata

| Field        | Value    |
|--------------|----------|
| Entrypoint   | 0x0131   |
| Data Size    | 14 bytes |
| Instructions | 2        |

```
      00 01 02 03 04 05 06 07  08 09 0A 0B 0C 0D 0E 0F
      -- -- -- -- -- -- -- --  -- -- -- -- -- -- -- --
0130:    53 F8 FF FF 7F F8 FF  FF 7F 6A 6D 70 30 00      S........jmp0. 
```

#### Opcodes

```
  0: 0x0131 [0x53] WAIT_SCHEDULER_TASK: Wait for scheduler "jmp0" with entities [EventEntity, EventEntity]
  1: 0x013E [0x00] END_REQSTACK()
```

### Event 65535.19

#### Metadata

| Field        | Value    |
|--------------|----------|
| Entrypoint   | 0x013F   |
| Data Size    | 16 bytes |
| Instructions | 2        |

```
      00 01 02 03 04 05 06 07  08 09 0A 0B 0C 0D 0E 0F
      -- -- -- -- -- -- -- --  -- -- -- -- -- -- -- --
0130:                                               5B                 [
0140: 02 80 F8 FF FF 7F F8 FF  FF 7F 66 6B 72 30 00     ..........fkr0. 
```

#### Opcodes

```
  0: 0x013F [0x5B] LOAD_EXT_SCHEDULER: Load scheduler "fkr0" with entities [EventEntity, EventEntity], work=88*
  1: 0x014E [0x00] END_REQSTACK()
```

### Event 65535.20

#### Metadata

| Field        | Value    |
|--------------|----------|
| Entrypoint   | 0x014F   |
| Data Size    | 14 bytes |
| Instructions | 2        |

```
      00 01 02 03 04 05 06 07  08 09 0A 0B 0C 0D 0E 0F
      -- -- -- -- -- -- -- --  -- -- -- -- -- -- -- --
0140:                                               53                 S
0150: F8 FF FF 7F F8 FF FF 7F  66 6B 72 30 00           ........fkr0.   
```

#### Opcodes

```
  0: 0x014F [0x53] WAIT_SCHEDULER_TASK: Wait for scheduler "fkr0" with entities [EventEntity, EventEntity]
  1: 0x015C [0x00] END_REQSTACK()
```

### Event 65535.21

#### Metadata

| Field        | Value    |
|--------------|----------|
| Entrypoint   | 0x015D   |
| Data Size    | 16 bytes |
| Instructions | 2        |

```
      00 01 02 03 04 05 06 07  08 09 0A 0B 0C 0D 0E 0F
      -- -- -- -- -- -- -- --  -- -- -- -- -- -- -- --
0150:                                         5B 02 80               [..
0160: F8 FF FF 7F F8 FF FF 7F  66 6B 72 31 00           ........fkr1.   
```

#### Opcodes

```
  0: 0x015D [0x5B] LOAD_EXT_SCHEDULER: Load scheduler "fkr1" with entities [EventEntity, EventEntity], work=88*
  1: 0x016C [0x00] END_REQSTACK()
```

### Event 65535.22

#### Metadata

| Field        | Value    |
|--------------|----------|
| Entrypoint   | 0x016D   |
| Data Size    | 14 bytes |
| Instructions | 2        |

```
      00 01 02 03 04 05 06 07  08 09 0A 0B 0C 0D 0E 0F
      -- -- -- -- -- -- -- --  -- -- -- -- -- -- -- --
0160:                                         53 F8 FF               S..
0170: FF 7F F8 FF FF 7F 66 6B  72 31 00                 ......fkr1.     
```

#### Opcodes

```
  0: 0x016D [0x53] WAIT_SCHEDULER_TASK: Wait for scheduler "fkr1" with entities [EventEntity, EventEntity]
  1: 0x017A [0x00] END_REQSTACK()
```

### Event 65535.23

#### Metadata

| Field        | Value   |
|--------------|---------|
| Entrypoint   | 0x017B  |
| Data Size    | 9 bytes |
| Instructions | 3       |

```
      00 01 02 03 04 05 06 07  08 09 0A 0B 0C 0D 0E 0F
      -- -- -- -- -- -- -- --  -- -- -- -- -- -- -- --
0170:                                   5E 69 64 6C 30             ^idl0
0180: 1C 01 80 00                                       ....            
```

#### Opcodes

```
  0: 0x017B [0x5E] EventEntity goes idle (kills current action) (animation: "idl0")
  1: 0x0180 [0x1C] WAIT(30* ticks)
  2: 0x0183 [0x00] END_REQSTACK()
```

### Event 289

#### Metadata

| Field        | Value   |
|--------------|---------|
| Entrypoint   | 0x0184  |
| Data Size    | 1 bytes |
| Instructions | 1       |

```
      00 01 02 03 04 05 06 07  08 09 0A 0B 0C 0D 0E 0F
      -- -- -- -- -- -- -- --  -- -- -- -- -- -- -- --
0180:             00                                        .           
```

#### Opcodes

```
  0: 0x0184 [0x00] END_REQSTACK()
```

### Event 65535.24

#### Metadata

| Field        | Value    |
|--------------|----------|
| Entrypoint   | 0x0185   |
| Data Size    | 10 bytes |
| Instructions | 2        |

```
      00 01 02 03 04 05 06 07  08 09 0A 0B 0C 0D 0E 0F
      -- -- -- -- -- -- -- --  -- -- -- -- -- -- -- --
0180:                37 03 80  04 80 05 80 06 80 00          7......... 
```

#### Opcodes

```
  0: 0x0185 [0x37] UPDATE_EVENT_POSITION_AND_DIR: x=-24.867*, z=271.583*, y=-12.000*, direction=87.9°*
  1: 0x018E [0x00] END_REQSTACK()
```

### Event 65535.25

#### Metadata

| Field        | Value    |
|--------------|----------|
| Entrypoint   | 0x018F   |
| Data Size    | 37 bytes |
| Instructions | 9        |

```
      00 01 02 03 04 05 06 07  08 09 0A 0B 0C 0D 0E 0F
      -- -- -- -- -- -- -- --  -- -- -- -- -- -- -- --
0180:                                               37                 7
0190: 07 80 08 80 09 80 0A 80  32 0B 80 1F 00 0C 80 0D  ........2.......
01A0: 80 05 80 1F 01 1F 00 0E  80 0F 80 05 80 1F 01 6F  ...............o
01B0: 39 10 80 00                                       9...            
```

#### Opcodes

```
  0: 0x018F [0x37] UPDATE_EVENT_POSITION_AND_DIR: x=-25.918*, z=266.082*, y=-12.497*, direction=276.0°*
  1: 0x0198 [0x32] ExtData[1]->MainSpeed = 21* * 0.1
  2: 0x019B [0x1F] MOVE_ENTITY: EventEntity moves to X=-25.434*, Z=270.774*, Y=-12.000*
  3: 0x01A3 [0x1F] MOVE_ENTITY: Update entity position (mode=1)
  4: 0x01A5 [0x1F] MOVE_ENTITY: EventEntity moves to X=-23.901*, Z=271.925*, Y=-12.000*
  5: 0x01AD [0x1F] MOVE_ENTITY: Update entity position (mode=1)
  6: 0x01AF [0x6F] WAIT_FRAME_DELAY: Yield until WaitTime reaches zero
  7: 0x01B0 [0x39] SET_ENTITY_DIRECTION(direction=20.5°*)
  8: 0x01B3 [0x00] END_REQSTACK()
```

### Event 65535.26

#### Metadata

| Field        | Value    |
|--------------|----------|
| Entrypoint   | 0x01B4   |
| Data Size    | 15 bytes |
| Instructions | 5        |

```
      00 01 02 03 04 05 06 07  08 09 0A 0B 0C 0D 0E 0F
      -- -- -- -- -- -- -- --  -- -- -- -- -- -- -- --
01B0:             32 11 80 1F  00 03 80 04 80 05 80 1F      2...........
01C0: 01 6F 00                                          .o.             
```

#### Opcodes

```
  0: 0x01B4 [0x32] ExtData[1]->MainSpeed = 7* * 0.1
  1: 0x01B7 [0x1F] MOVE_ENTITY: EventEntity moves to X=-24.867*, Z=271.583*, Y=-12.000*
  2: 0x01BF [0x1F] MOVE_ENTITY: Update entity position (mode=1)
  3: 0x01C1 [0x6F] WAIT_FRAME_DELAY: Yield until WaitTime reaches zero
  4: 0x01C2 [0x00] END_REQSTACK()
```

### Event 65535.27

#### Metadata

| Field        | Value    |
|--------------|----------|
| Entrypoint   | 0x01C3   |
| Data Size    | 18 bytes |
| Instructions | 6        |

```
      00 01 02 03 04 05 06 07  08 09 0A 0B 0C 0D 0E 0F
      -- -- -- -- -- -- -- --  -- -- -- -- -- -- -- --
01C0:          32 11 80 1F 00  12 80 13 80 05 80 1F 01     2............
01D0: 6F 39 14 80 00                                    o9...           
```

#### Opcodes

```
  0: 0x01C3 [0x32] ExtData[1]->MainSpeed = 7* * 0.1
  1: 0x01C6 [0x1F] MOVE_ENTITY: EventEntity moves to X=-23.638*, Z=272.652*, Y=-12.000*
  2: 0x01CE [0x1F] MOVE_ENTITY: Update entity position (mode=1)
  3: 0x01D0 [0x6F] WAIT_FRAME_DELAY: Yield until WaitTime reaches zero
  4: 0x01D1 [0x39] SET_ENTITY_DIRECTION(direction=17.6°*)
  5: 0x01D4 [0x00] END_REQSTACK()
```

### Event 65535.28

#### Metadata

| Field        | Value    |
|--------------|----------|
| Entrypoint   | 0x01D5   |
| Data Size    | 22 bytes |
| Instructions | 4        |

```
      00 01 02 03 04 05 06 07  08 09 0A 0B 0C 0D 0E 0F
      -- -- -- -- -- -- -- --  -- -- -- -- -- -- -- --
01D0:                4A 12 F0  0E 01 18 F0 0E 01 1C 15       J..........
01E0: 80 4A 12 F0 0E 01 18 F0  0E 01 00                 .J.........     
```

#### Opcodes

```
  0: 0x01D5 [0x4A] Kohlo-Lakolo (ID: 17756178/0x010EF012) looks at Nanaa Mihgo (ID: 17756184/0x010EF018)
  1: 0x01DE [0x1C] WAIT(100* ticks)
  2: 0x01E1 [0x4A] Kohlo-Lakolo (ID: 17756178/0x010EF012) looks at Nanaa Mihgo (ID: 17756184/0x010EF018)
  3: 0x01EA [0x00] END_REQSTACK()
```

### Event 65535.29

#### Metadata

| Field        | Value   |
|--------------|---------|
| Entrypoint   | 0x01EB  |
| Data Size    | 5 bytes |
| Instructions | 3       |

```
      00 01 02 03 04 05 06 07  08 09 0A 0B 0C 0D 0E 0F
      -- -- -- -- -- -- -- --  -- -- -- -- -- -- -- --
01E0:                                   1D 16 80 23 00             ...#.
```

#### Opcodes

```
  0: 0x01EB [0x1D] PRINT_EVENT_MESSAGE(message_id=7805*)
    → "Ta-da`! The Star Onion Brigade is on the scene!"
  1: 0x01EE [0x23] WAIT_FOR_DIALOG_INTERACTION
  2: 0x01EF [0x00] END_REQSTACK()
```

### Event 65535.30

#### Metadata

| Field        | Value    |
|--------------|----------|
| Entrypoint   | 0x01F0   |
| Data Size    | 37 bytes |
| Instructions | 9        |

```
      00 01 02 03 04 05 06 07  08 09 0A 0B 0C 0D 0E 0F
      -- -- -- -- -- -- -- --  -- -- -- -- -- -- -- --
01F0: 29 08 12 F0 0E 01 07 1D  17 80 23 29 08 12 F0 0E  ).........#)....
0200: 01 08 29 08 12 F0 0E 01  01 1D 18 80 23 29 08 12  ..).........#)..
0210: F0 0E 01 02 00                                    .....           
```

#### Opcodes

```
  0: 0x01F0 [0x29] REQ_SET_WAIT(priority=0x08, entity_id=Kohlo-Lakolo (ID: 17756178/0x010EF012), tag_num=0x07)
  1: 0x01F7 [0x1D] PRINT_EVENT_MESSAGE(message_id=7806*)
    → "Nanaa Mihgo! Otherwise known as the Cat Burglar! We're on your tail now!"
  2: 0x01FA [0x23] WAIT_FOR_DIALOG_INTERACTION
  3: 0x01FB [0x29] REQ_SET_WAIT(priority=0x08, entity_id=Kohlo-Lakolo (ID: 17756178/0x010EF012), tag_num=0x08)
  4: 0x0202 [0x29] REQ_SET_WAIT(priority=0x08, entity_id=Kohlo-Lakolo (ID: 17756178/0x010EF012), tag_num=0x01)
  5: 0x0209 [0x1D] PRINT_EVENT_MESSAGE(message_id=7807*)
    → "We're not letting you out of here until you promise to give up your evil ways for good!"
  6: 0x020C [0x23] WAIT_FOR_DIALOG_INTERACTION
  7: 0x020D [0x29] REQ_SET_WAIT(priority=0x08, entity_id=Kohlo-Lakolo (ID: 17756178/0x010EF012), tag_num=0x02)
  8: 0x0214 [0x00] END_REQSTACK()
```

### Event 65535.31

#### Metadata

| Field        | Value    |
|--------------|----------|
| Entrypoint   | 0x0215   |
| Data Size    | 23 bytes |
| Instructions | 7        |

```
      00 01 02 03 04 05 06 07  08 09 0A 0B 0C 0D 0E 0F
      -- -- -- -- -- -- -- --  -- -- -- -- -- -- -- --
0210:                29 08 12  F0 0E 01 09 1D 19 80 23       ).........#
0220: 1D 1A 80 23 29 08 12 F0  0E 01 0A 00              ...#).......    
```

#### Opcodes

```
  0: 0x0215 [0x29] REQ_SET_WAIT(priority=0x08, entity_id=Kohlo-Lakolo (ID: 17756178/0x010EF012), tag_num=0x09)
  1: 0x021C [0x1D] PRINT_EVENT_MESSAGE(message_id=7809*)
    → "Bite your tongue! We're very busy-wusy fighting crime, you know?"
  2: 0x021F [0x23] WAIT_FOR_DIALOG_INTERACTION
  3: 0x0220 [0x1D] PRINT_EVENT_MESSAGE(message_id=7810*)
    → "We're the ones who solve all of Windurst's problems that grown-ups turn a blind eye to!"
  4: 0x0223 [0x23] WAIT_FOR_DIALOG_INTERACTION
  5: 0x0224 [0x29] REQ_SET_WAIT(priority=0x08, entity_id=Kohlo-Lakolo (ID: 17756178/0x010EF012), tag_num=0x0A)
  6: 0x022B [0x00] END_REQSTACK()
```

### Event 65535.32

#### Metadata

| Field        | Value   |
|--------------|---------|
| Entrypoint   | 0x022C  |
| Data Size    | 5 bytes |
| Instructions | 3       |

```
      00 01 02 03 04 05 06 07  08 09 0A 0B 0C 0D 0E 0F
      -- -- -- -- -- -- -- --  -- -- -- -- -- -- -- --
0220:                                      1D 1B 80 23              ...#
0230: 00                                                .               
```

#### Opcodes

```
  0: 0x022C [0x1D] PRINT_EVENT_MESSAGE(message_id=7813*)
    → "Huh? Is that true?"
  1: 0x022F [0x23] WAIT_FOR_DIALOG_INTERACTION
  2: 0x0230 [0x00] END_REQSTACK()
```

### Event 65535.33

#### Metadata

| Field        | Value   |
|--------------|---------|
| Entrypoint   | 0x0231  |
| Data Size    | 5 bytes |
| Instructions | 3       |

```
      00 01 02 03 04 05 06 07  08 09 0A 0B 0C 0D 0E 0F
      -- -- -- -- -- -- -- --  -- -- -- -- -- -- -- --
0230:    1D 1C 80 23 00                                  ...#.          
```

#### Opcodes

```
  0: 0x0231 [0x1D] PRINT_EVENT_MESSAGE(message_id=7818*)
    → "......"
  1: 0x0234 [0x23] WAIT_FOR_DIALOG_INTERACTION
  2: 0x0235 [0x00] END_REQSTACK()
```

### Event 65535.34

#### Metadata

| Field        | Value   |
|--------------|---------|
| Entrypoint   | 0x0236  |
| Data Size    | 5 bytes |
| Instructions | 3       |

```
      00 01 02 03 04 05 06 07  08 09 0A 0B 0C 0D 0E 0F
      -- -- -- -- -- -- -- --  -- -- -- -- -- -- -- --
0230:                   1D 1D  80 23 00                       ...#.     
```

#### Opcodes

```
  0: 0x0236 [0x1D] PRINT_EVENT_MESSAGE(message_id=7821*)
    → "Did the door just lock...?"
  1: 0x0239 [0x23] WAIT_FOR_DIALOG_INTERACTION
  2: 0x023A [0x00] END_REQSTACK()
```

### Event 65535.35

#### Metadata

| Field        | Value   |
|--------------|---------|
| Entrypoint   | 0x023B  |
| Data Size    | 5 bytes |
| Instructions | 3       |

```
      00 01 02 03 04 05 06 07  08 09 0A 0B 0C 0D 0E 0F
      -- -- -- -- -- -- -- --  -- -- -- -- -- -- -- --
0230:                                   1D 1E 80 23 00             ...#.
```

#### Opcodes

```
  0: 0x023B [0x1D] PRINT_EVENT_MESSAGE(message_id=7828*)
    → "......"
  1: 0x023E [0x23] WAIT_FOR_DIALOG_INTERACTION
  2: 0x023F [0x00] END_REQSTACK()
```

### Event 65535.36

#### Metadata

| Field        | Value   |
|--------------|---------|
| Entrypoint   | 0x0240  |
| Data Size    | 5 bytes |
| Instructions | 3       |

```
      00 01 02 03 04 05 06 07  08 09 0A 0B 0C 0D 0E 0F
      -- -- -- -- -- -- -- --  -- -- -- -- -- -- -- --
0240: 1D 1F 80 23 00                                    ...#.           
```

#### Opcodes

```
  0: 0x0240 [0x1D] PRINT_EVENT_MESSAGE(message_id=7829*)
    → "Zoinks...!"
  1: 0x0243 [0x23] WAIT_FOR_DIALOG_INTERACTION
  2: 0x0244 [0x00] END_REQSTACK()
```

### Event 65535.37

#### Metadata

| Field        | Value    |
|--------------|----------|
| Entrypoint   | 0x0245   |
| Data Size    | 19 bytes |
| Instructions | 5        |

```
      00 01 02 03 04 05 06 07  08 09 0A 0B 0C 0D 0E 0F
      -- -- -- -- -- -- -- --  -- -- -- -- -- -- -- --
0240:                29 08 12  F0 0E 01 01 1D 20 80 23       )....... .#
0250: 29 08 12 F0 0E 01 02 00                           ).......        
```

#### Opcodes

```
  0: 0x0245 [0x29] REQ_SET_WAIT(priority=0x08, entity_id=Kohlo-Lakolo (ID: 17756178/0x010EF012), tag_num=0x01)
  1: 0x024C [0x1D] PRINT_EVENT_MESSAGE(message_id=7830*)
    → "E-e-e-every-one re-m-m-main c-c-calm!"
  2: 0x024F [0x23] WAIT_FOR_DIALOG_INTERACTION
  3: 0x0250 [0x29] REQ_SET_WAIT(priority=0x08, entity_id=Kohlo-Lakolo (ID: 17756178/0x010EF012), tag_num=0x02)
  4: 0x0257 [0x00] END_REQSTACK()
```

### Event 65535.38

#### Metadata

| Field        | Value    |
|--------------|----------|
| Entrypoint   | 0x0258   |
| Data Size    | 19 bytes |
| Instructions | 5        |

```
      00 01 02 03 04 05 06 07  08 09 0A 0B 0C 0D 0E 0F
      -- -- -- -- -- -- -- --  -- -- -- -- -- -- -- --
0250:                          29 08 12 F0 0E 01 01 1D          ).......
0260: 21 80 23 29 08 12 F0 0E  01 02 00                 !.#).......     
```

#### Opcodes

```
  0: 0x0258 [0x29] REQ_SET_WAIT(priority=0x08, entity_id=Kohlo-Lakolo (ID: 17756178/0x010EF012), tag_num=0x01)
  1: 0x025F [0x1D] PRINT_EVENT_MESSAGE(message_id=7831*)
    → "Th-there's no-no-no s-s-such th-things as g-ghosties! The C-cat Burglar is j-just trying t-to s-scare us!"
  2: 0x0262 [0x23] WAIT_FOR_DIALOG_INTERACTION
  3: 0x0263 [0x29] REQ_SET_WAIT(priority=0x08, entity_id=Kohlo-Lakolo (ID: 17756178/0x010EF012), tag_num=0x02)
  4: 0x026A [0x00] END_REQSTACK()
```

### Event 65535.39

#### Metadata

| Field        | Value    |
|--------------|----------|
| Entrypoint   | 0x026B   |
| Data Size    | 19 bytes |
| Instructions | 5        |

```
      00 01 02 03 04 05 06 07  08 09 0A 0B 0C 0D 0E 0F
      -- -- -- -- -- -- -- --  -- -- -- -- -- -- -- --
0260:                                   29 08 12 F0 0E             )....
0270: 01 01 1D 22 80 23 29 08  12 F0 0E 01 02 00        ...".#).......  
```

#### Opcodes

```
  0: 0x026B [0x29] REQ_SET_WAIT(priority=0x08, entity_id=Kohlo-Lakolo (ID: 17756178/0x010EF012), tag_num=0x01)
  1: 0x0272 [0x1D] PRINT_EVENT_MESSAGE(message_id=7832*)
    → "Th-there's got to be a perfectly reasonable explanation for this! L-let's check out where the s-sound came from...e-everyone!"
  2: 0x0275 [0x23] WAIT_FOR_DIALOG_INTERACTION
  3: 0x0276 [0x29] REQ_SET_WAIT(priority=0x08, entity_id=Kohlo-Lakolo (ID: 17756178/0x010EF012), tag_num=0x02)
  4: 0x027D [0x00] END_REQSTACK()
```

### Event 65535.40

#### Metadata

| Field        | Value   |
|--------------|---------|
| Entrypoint   | 0x027E  |
| Data Size    | 5 bytes |
| Instructions | 3       |

```
      00 01 02 03 04 05 06 07  08 09 0A 0B 0C 0D 0E 0F
      -- -- -- -- -- -- -- --  -- -- -- -- -- -- -- --
0270:                                            1D 23                .#
0280: 80 23 00                                          .#.             
```

#### Opcodes

```
  0: 0x027E [0x1D] PRINT_EVENT_MESSAGE(message_id=7851*)
    → "Wo-wo-wo-wo-whoah!"
  1: 0x0281 [0x23] WAIT_FOR_DIALOG_INTERACTION
  2: 0x0282 [0x00] END_REQSTACK()
```

### Event 65535.41

#### Metadata

| Field        | Value    |
|--------------|----------|
| Entrypoint   | 0x0283   |
| Data Size    | 10 bytes |
| Instructions | 2        |

```
      00 01 02 03 04 05 06 07  08 09 0A 0B 0C 0D 0E 0F
      -- -- -- -- -- -- -- --  -- -- -- -- -- -- -- --
0280:          37 24 80 25 80  26 80 27 80 00              7$.%.&.'..   
```

#### Opcodes

```
  0: 0x0283 [0x37] UPDATE_EVENT_POSITION_AND_DIR: x=-28.716*, z=285.215*, y=-12.999*, direction=230.4°*
  1: 0x028C [0x00] END_REQSTACK()
```

### Event 65535.42

#### Metadata

| Field        | Value    |
|--------------|----------|
| Entrypoint   | 0x028D   |
| Data Size    | 10 bytes |
| Instructions | 2        |

```
      00 01 02 03 04 05 06 07  08 09 0A 0B 0C 0D 0E 0F
      -- -- -- -- -- -- -- --  -- -- -- -- -- -- -- --
0280:                                         37 28 80               7(.
0290: 29 80 26 80 2A 80 00                              ).&.*..         
```

#### Opcodes

```
  0: 0x028D [0x37] UPDATE_EVENT_POSITION_AND_DIR: x=-34.675*, z=282.568*, y=-12.999*, direction=266.4°*
  1: 0x0296 [0x00] END_REQSTACK()
```

### Event 65535.43

#### Metadata

| Field        | Value    |
|--------------|----------|
| Entrypoint   | 0x0297   |
| Data Size    | 15 bytes |
| Instructions | 5        |

```
      00 01 02 03 04 05 06 07  08 09 0A 0B 0C 0D 0E 0F
      -- -- -- -- -- -- -- --  -- -- -- -- -- -- -- --
0290:                      32  0B 80 1F 00 2B 80 2C 80         2....+.,.
02A0: 26 80 1F 01 6F 00                                 &...o.          
```

#### Opcodes

```
  0: 0x0297 [0x32] ExtData[1]->MainSpeed = 21* * 0.1
  1: 0x029A [0x1F] MOVE_ENTITY: EventEntity moves to X=-31.363*, Z=283.464*, Y=-12.999*
  2: 0x02A2 [0x1F] MOVE_ENTITY: Update entity position (mode=1)
  3: 0x02A4 [0x6F] WAIT_FRAME_DELAY: Yield until WaitTime reaches zero
  4: 0x02A5 [0x00] END_REQSTACK()
```

### Event 65535.44

#### Metadata

| Field        | Value    |
|--------------|----------|
| Entrypoint   | 0x02A6   |
| Data Size    | 15 bytes |
| Instructions | 5        |

```
      00 01 02 03 04 05 06 07  08 09 0A 0B 0C 0D 0E 0F
      -- -- -- -- -- -- -- --  -- -- -- -- -- -- -- --
02A0:                   32 0B  80 1F 00 2D 80 2E 80 2F        2....-.../
02B0: 80 1F 01 6F 00                                    ...o.           
```

#### Opcodes

```
  0: 0x02A6 [0x32] ExtData[1]->MainSpeed = 21* * 0.1
  1: 0x02A9 [0x1F] MOVE_ENTITY: EventEntity moves to X=-34.075*, Z=283.175*, Y=-13.000*
  2: 0x02B1 [0x1F] MOVE_ENTITY: Update entity position (mode=1)
  3: 0x02B3 [0x6F] WAIT_FRAME_DELAY: Yield until WaitTime reaches zero
  4: 0x02B4 [0x00] END_REQSTACK()
```

### Event 65535.45

#### Metadata

| Field        | Value    |
|--------------|----------|
| Entrypoint   | 0x02B5   |
| Data Size    | 24 bytes |
| Instructions | 6        |

```
      00 01 02 03 04 05 06 07  08 09 0A 0B 0C 0D 0E 0F
      -- -- -- -- -- -- -- --  -- -- -- -- -- -- -- --
02B0:                32 11 80  37 24 80 25 80 26 80 27       2..7$.%.&.'
02C0: 80 1F 00 30 80 31 80 26  80 1F 01 6F 00           ...0.1.&...o.   
```

#### Opcodes

```
  0: 0x02B5 [0x32] ExtData[1]->MainSpeed = 7* * 0.1
  1: 0x02B8 [0x37] UPDATE_EVENT_POSITION_AND_DIR: x=-28.716*, z=285.215*, y=-12.999*, direction=230.4°*
  2: 0x02C1 [0x1F] MOVE_ENTITY: EventEntity moves to X=-28.581*, Z=284.018*, Y=-12.999*
  3: 0x02C9 [0x1F] MOVE_ENTITY: Update entity position (mode=1)
  4: 0x02CB [0x6F] WAIT_FRAME_DELAY: Yield until WaitTime reaches zero
  5: 0x02CC [0x00] END_REQSTACK()
```

### Event 65535.46

#### Metadata

| Field        | Value   |
|--------------|---------|
| Entrypoint   | 0x02CD  |
| Data Size    | 5 bytes |
| Instructions | 3       |

```
      00 01 02 03 04 05 06 07  08 09 0A 0B 0C 0D 0E 0F
      -- -- -- -- -- -- -- --  -- -- -- -- -- -- -- --
02C0:                                         1D 32 80               .2.
02D0: 23 00                                             #.              
```

#### Opcodes

```
  0: 0x02CD [0x1D] PRINT_EVENT_MESSAGE(message_id=7833*)
    → "Looky-see... There's a gap behind this bookshelf!"
  1: 0x02D0 [0x23] WAIT_FOR_DIALOG_INTERACTION
  2: 0x02D1 [0x00] END_REQSTACK()
```

### Event 65535.47

#### Metadata

| Field        | Value    |
|--------------|----------|
| Entrypoint   | 0x02D2   |
| Data Size    | 19 bytes |
| Instructions | 5        |

```
      00 01 02 03 04 05 06 07  08 09 0A 0B 0C 0D 0E 0F
      -- -- -- -- -- -- -- --  -- -- -- -- -- -- -- --
02D0:       29 08 12 F0 0E 01  11 1D 33 80 23 29 08 12    ).......3.#)..
02E0: F0 0E 01 12 00                                    .....           
```

#### Opcodes

```
  0: 0x02D2 [0x29] REQ_SET_WAIT(priority=0x08, entity_id=Kohlo-Lakolo (ID: 17756178/0x010EF012), tag_num=0x11)
  1: 0x02D9 [0x1D] PRINT_EVENT_MESSAGE(message_id=7842*)
    → "A corpse!?"
  2: 0x02DC [0x23] WAIT_FOR_DIALOG_INTERACTION
  3: 0x02DD [0x29] REQ_SET_WAIT(priority=0x08, entity_id=Kohlo-Lakolo (ID: 17756178/0x010EF012), tag_num=0x12)
  4: 0x02E4 [0x00] END_REQSTACK()
```

### Event 65535.48

#### Metadata

| Field        | Value    |
|--------------|----------|
| Entrypoint   | 0x02E5   |
| Data Size    | 19 bytes |
| Instructions | 5        |

```
      00 01 02 03 04 05 06 07  08 09 0A 0B 0C 0D 0E 0F
      -- -- -- -- -- -- -- --  -- -- -- -- -- -- -- --
02E0:                29 08 12  F0 0E 01 0F 1D 34 80 23       ).......4.#
02F0: 29 08 12 F0 0E 01 10 00                           ).......        
```

#### Opcodes

```
  0: 0x02E5 [0x29] REQ_SET_WAIT(priority=0x08, entity_id=Kohlo-Lakolo (ID: 17756178/0x010EF012), tag_num=0x0F)
  1: 0x02EC [0x1D] PRINT_EVENT_MESSAGE(message_id=7844*)
    → "No, Pichichi! Keep back! It's too dangerous!"
  2: 0x02EF [0x23] WAIT_FOR_DIALOG_INTERACTION
  3: 0x02F0 [0x29] REQ_SET_WAIT(priority=0x08, entity_id=Kohlo-Lakolo (ID: 17756178/0x010EF012), tag_num=0x10)
  4: 0x02F7 [0x00] END_REQSTACK()
```

### Event 65535.49

#### Metadata

| Field        | Value    |
|--------------|----------|
| Entrypoint   | 0x02F8   |
| Data Size    | 19 bytes |
| Instructions | 5        |

```
      00 01 02 03 04 05 06 07  08 09 0A 0B 0C 0D 0E 0F
      -- -- -- -- -- -- -- --  -- -- -- -- -- -- -- --
02F0:                          29 08 12 F0 0E 01 01 1D          ).......
0300: 35 80 23 29 08 12 F0 0E  01 02 00                 5.#).......     
```

#### Opcodes

```
  0: 0x02F8 [0x29] REQ_SET_WAIT(priority=0x08, entity_id=Kohlo-Lakolo (ID: 17756178/0x010EF012), tag_num=0x01)
  1: 0x02FF [0x1D] PRINT_EVENT_MESSAGE(message_id=7846*)
    → "I, erh, guess not...but a ghosty may come out of it!"
  2: 0x0302 [0x23] WAIT_FOR_DIALOG_INTERACTION
  3: 0x0303 [0x29] REQ_SET_WAIT(priority=0x08, entity_id=Kohlo-Lakolo (ID: 17756178/0x010EF012), tag_num=0x02)
  4: 0x030A [0x00] END_REQSTACK()
```

### Event 65535.50

#### Metadata

| Field        | Value    |
|--------------|----------|
| Entrypoint   | 0x030B   |
| Data Size    | 33 bytes |
| Instructions | 7        |

```
      00 01 02 03 04 05 06 07  08 09 0A 0B 0C 0D 0E 0F
      -- -- -- -- -- -- -- --  -- -- -- -- -- -- -- --
0300:                                   29 08 12 F0 0E             )....
0310: 01 03 1D 36 80 23 29 08  12 F0 0E 01 04 29 08 12  ...6.#)......)..
0320: F0 0E 01 05 29 08 12 F0  0E 01 06 00              ....).......    
```

#### Opcodes

```
  0: 0x030B [0x29] REQ_SET_WAIT(priority=0x08, entity_id=Kohlo-Lakolo (ID: 17756178/0x010EF012), tag_num=0x03)
  1: 0x0312 [0x1D] PRINT_EVENT_MESSAGE(message_id=7848*)
    → "Um... Either way, I don't think it's wise to find out!"
  2: 0x0315 [0x23] WAIT_FOR_DIALOG_INTERACTION
  3: 0x0316 [0x29] REQ_SET_WAIT(priority=0x08, entity_id=Kohlo-Lakolo (ID: 17756178/0x010EF012), tag_num=0x04)
  4: 0x031D [0x29] REQ_SET_WAIT(priority=0x08, entity_id=Kohlo-Lakolo (ID: 17756178/0x010EF012), tag_num=0x05)
  5: 0x0324 [0x29] REQ_SET_WAIT(priority=0x08, entity_id=Kohlo-Lakolo (ID: 17756178/0x010EF012), tag_num=0x06)
  6: 0x032B [0x00] END_REQSTACK()
```

### Event 65535.51

#### Metadata

| Field        | Value   |
|--------------|---------|
| Entrypoint   | 0x032C  |
| Data Size    | 5 bytes |
| Instructions | 3       |

```
      00 01 02 03 04 05 06 07  08 09 0A 0B 0C 0D 0E 0F
      -- -- -- -- -- -- -- --  -- -- -- -- -- -- -- --
0320:                                      1D 37 80 23              .7.#
0330: 00                                                .               
```

#### Opcodes

```
  0: 0x032C [0x1D] PRINT_EVENT_MESSAGE(message_id=7849*)
    → "Ah...!"
  1: 0x032F [0x23] WAIT_FOR_DIALOG_INTERACTION
  2: 0x0330 [0x00] END_REQSTACK()
```

### Event 65535.52

#### Metadata

| Field        | Value    |
|--------------|----------|
| Entrypoint   | 0x0331   |
| Data Size    | 27 bytes |
| Instructions | 7        |

```
      00 01 02 03 04 05 06 07  08 09 0A 0B 0C 0D 0E 0F
      -- -- -- -- -- -- -- --  -- -- -- -- -- -- -- --
0330:    37 38 80 39 80 2F 80  3A 80 32 0B 80 1F 00 3B   78.9./.:.2....;
0340: 80 3C 80 3D 80 1F 01 6F  39 3E 80 00              .<.=...o9>..    
```

#### Opcodes

```
  0: 0x0331 [0x37] UPDATE_EVENT_POSITION_AND_DIR: x=-25.998*, z=261.364*, y=-13.000*, direction=103.5°*
  1: 0x033A [0x32] ExtData[1]->MainSpeed = 21* * 0.1
  2: 0x033D [0x1F] MOVE_ENTITY: EventEntity moves to X=-25.963*, Z=250.693*, Y=-12.264*
  3: 0x0345 [0x1F] MOVE_ENTITY: Update entity position (mode=1)
  4: 0x0347 [0x6F] WAIT_FRAME_DELAY: Yield until WaitTime reaches zero
  5: 0x0348 [0x39] SET_ENTITY_DIRECTION(direction=17.4°*)
  6: 0x034B [0x00] END_REQSTACK()
```

### Event 65535.53

#### Metadata

| Field        | Value    |
|--------------|----------|
| Entrypoint   | 0x034C   |
| Data Size    | 17 bytes |
| Instructions | 6        |

```
      00 01 02 03 04 05 06 07  08 09 0A 0B 0C 0D 0E 0F
      -- -- -- -- -- -- -- --  -- -- -- -- -- -- -- --
0340:                                      32 0B 80 1F              2...
0350: 00 3F 80 40 80 41 80 1F  01 6F 22 01 00           .?.@.A...o"..   
```

#### Opcodes

```
  0: 0x034C [0x32] ExtData[1]->MainSpeed = 21* * 0.1
  1: 0x034F [0x1F] MOVE_ENTITY: EventEntity moves to X=-38.844*, Z=243.112*, Y=-12.499*
  2: 0x0357 [0x1F] MOVE_ENTITY: Update entity position (mode=1)
  3: 0x0359 [0x6F] WAIT_FRAME_DELAY: Yield until WaitTime reaches zero
  4: 0x035A [0x22] ENTITY_HIDE_FLAG(enabled=0x01)
  5: 0x035C [0x00] END_REQSTACK()
```

### Event 65535.54

#### Metadata

| Field        | Value    |
|--------------|----------|
| Entrypoint   | 0x035D   |
| Data Size    | 19 bytes |
| Instructions | 5        |

```
      00 01 02 03 04 05 06 07  08 09 0A 0B 0C 0D 0E 0F
      -- -- -- -- -- -- -- --  -- -- -- -- -- -- -- --
0350:                                         29 08 12               )..
0360: F0 0E 01 01 1D 42 80 23  29 08 12 F0 0E 01 02 00  .....B.#).......
```

#### Opcodes

```
  0: 0x035D [0x29] REQ_SET_WAIT(priority=0x08, entity_id=Kohlo-Lakolo (ID: 17756178/0x010EF012), tag_num=0x01)
  1: 0x0364 [0x1D] PRINT_EVENT_MESSAGE(message_id=7862*)
    → "Yet another close call for the Star Onion Brigade!"
  2: 0x0367 [0x23] WAIT_FOR_DIALOG_INTERACTION
  3: 0x0368 [0x29] REQ_SET_WAIT(priority=0x08, entity_id=Kohlo-Lakolo (ID: 17756178/0x010EF012), tag_num=0x02)
  4: 0x036F [0x00] END_REQSTACK()
```

### Event 65535.55

#### Metadata

| Field        | Value   |
|--------------|---------|
| Entrypoint   | 0x0370  |
| Data Size    | 5 bytes |
| Instructions | 3       |

```
      00 01 02 03 04 05 06 07  08 09 0A 0B 0C 0D 0E 0F
      -- -- -- -- -- -- -- --  -- -- -- -- -- -- -- --
0370: 1D 43 80 23 00                                    .C.#.           
```

#### Opcodes

```
  0: 0x0370 [0x1D] PRINT_EVENT_MESSAGE(message_id=7867*)
    → "And thanks to Joker, we were able to escape!"
  1: 0x0373 [0x23] WAIT_FOR_DIALOG_INTERACTION
  2: 0x0374 [0x00] END_REQSTACK()
```

### Event 65535.56

#### Metadata

| Field        | Value   |
|--------------|---------|
| Entrypoint   | 0x0375  |
| Data Size    | 5 bytes |
| Instructions | 3       |

```
      00 01 02 03 04 05 06 07  08 09 0A 0B 0C 0D 0E 0F
      -- -- -- -- -- -- -- --  -- -- -- -- -- -- -- --
0370:                1D 44 80  23 00                         .D.#.      
```

#### Opcodes

```
  0: 0x0375 [0x1D] PRINT_EVENT_MESSAGE(message_id=7868*)
    → "Well, that was more than enough adventure for today... Let's all head back to Star Onion headquarters at the port."
  1: 0x0378 [0x23] WAIT_FOR_DIALOG_INTERACTION
  2: 0x0379 [0x00] END_REQSTACK()
```

### Event 288

#### Metadata

| Field        | Value   |
|--------------|---------|
| Entrypoint   | 0x037A  |
| Data Size    | 1 bytes |
| Instructions | 1       |

```
      00 01 02 03 04 05 06 07  08 09 0A 0B 0C 0D 0E 0F
      -- -- -- -- -- -- -- --  -- -- -- -- -- -- -- --
0370:                                00                           .     
```

#### Opcodes

```
  0: 0x037A [0x00] END_REQSTACK()
```

### Event 65535.57

#### Metadata

| Field        | Value    |
|--------------|----------|
| Entrypoint   | 0x037B   |
| Data Size    | 10 bytes |
| Instructions | 2        |

```
      00 01 02 03 04 05 06 07  08 09 0A 0B 0C 0D 0E 0F
      -- -- -- -- -- -- -- --  -- -- -- -- -- -- -- --
0370:                                   37 45 80 46 80             7E.F.
0380: 47 80 48 80 00                                    G.H..           
```

#### Opcodes

```
  0: 0x037B [0x37] UPDATE_EVENT_POSITION_AND_DIR: x=-25.855*, z=264.145*, y=-17.999*, direction=84.1°*
  1: 0x0384 [0x00] END_REQSTACK()
```

### Event 65535.58

#### Metadata

| Field        | Value    |
|--------------|----------|
| Entrypoint   | 0x0385   |
| Data Size    | 43 bytes |
| Instructions | 9        |

```
      00 01 02 03 04 05 06 07  08 09 0A 0B 0C 0D 0E 0F
      -- -- -- -- -- -- -- --  -- -- -- -- -- -- -- --
0380:                37 49 80  4A 80 4B 80 4C 80 32 0B       7I.J.K.L.2.
0390: 80 1F 00 4D 80 4E 80 4F  80 1F 01 1F 00 50 80 51  ...M.N.O.....P.Q
03A0: 80 52 80 1F 01 6F 4A 12  F0 0E 01 F0 FF FF 7F 00  .R...oJ.........
```

#### Opcodes

```
  0: 0x0385 [0x37] UPDATE_EVENT_POSITION_AND_DIR: x=-30.285*, z=249.684*, y=-12.284*, direction=318.6°*
  1: 0x038E [0x32] ExtData[1]->MainSpeed = 21* * 0.1
  2: 0x0391 [0x1F] MOVE_ENTITY: EventEntity moves to X=-27.103*, Z=254.743*, Y=-12.418*
  3: 0x0399 [0x1F] MOVE_ENTITY: Update entity position (mode=1)
  4: 0x039B [0x1F] MOVE_ENTITY: EventEntity moves to X=-26.034*, Z=257.819*, Y=-12.786*
  5: 0x03A3 [0x1F] MOVE_ENTITY: Update entity position (mode=1)
  6: 0x03A5 [0x6F] WAIT_FRAME_DELAY: Yield until WaitTime reaches zero
  7: 0x03A6 [0x4A] Kohlo-Lakolo (ID: 17756178/0x010EF012) looks at LocalPlayer
  8: 0x03AF [0x00] END_REQSTACK()
```

### Event 65535.59

#### Metadata

| Field        | Value    |
|--------------|----------|
| Entrypoint   | 0x03B0   |
| Data Size    | 15 bytes |
| Instructions | 5        |

```
      00 01 02 03 04 05 06 07  08 09 0A 0B 0C 0D 0E 0F
      -- -- -- -- -- -- -- --  -- -- -- -- -- -- -- --
03B0: 32 0B 80 1F 00 53 80 54  80 55 80 1F 01 6F 00     2....S.T.U...o. 
```

#### Opcodes

```
  0: 0x03B0 [0x32] ExtData[1]->MainSpeed = 21* * 0.1
  1: 0x03B3 [0x1F] MOVE_ENTITY: EventEntity moves to X=-19.651*, Z=273.488*, Y=-17.500*
  2: 0x03BB [0x1F] MOVE_ENTITY: Update entity position (mode=1)
  3: 0x03BD [0x6F] WAIT_FRAME_DELAY: Yield until WaitTime reaches zero
  4: 0x03BE [0x00] END_REQSTACK()
```

### Event 65535.60

#### Metadata

| Field        | Value    |
|--------------|----------|
| Entrypoint   | 0x03BF   |
| Data Size    | 10 bytes |
| Instructions | 2        |

```
      00 01 02 03 04 05 06 07  08 09 0A 0B 0C 0D 0E 0F
      -- -- -- -- -- -- -- --  -- -- -- -- -- -- -- --
03B0:                                               37                 7
03C0: 50 80 51 80 52 80 56 80  00                       P.Q.R.V..       
```

#### Opcodes

```
  0: 0x03BF [0x37] UPDATE_EVENT_POSITION_AND_DIR: x=-26.034*, z=257.819*, y=-12.786*, direction=268.1°*
  1: 0x03C8 [0x00] END_REQSTACK()
```

### Event 65535.61

#### Metadata

| Field        | Value    |
|--------------|----------|
| Entrypoint   | 0x03C9   |
| Data Size    | 15 bytes |
| Instructions | 5        |

```
      00 01 02 03 04 05 06 07  08 09 0A 0B 0C 0D 0E 0F
      -- -- -- -- -- -- -- --  -- -- -- -- -- -- -- --
03C0:                             32 11 80 1F 00 57 80           2....W.
03D0: 58 80 26 80 1F 01 6F 00                           X.&...o.        
```

#### Opcodes

```
  0: 0x03C9 [0x32] ExtData[1]->MainSpeed = 7* * 0.1
  1: 0x03CC [0x1F] MOVE_ENTITY: EventEntity moves to X=-25.886*, Z=259.055*, Y=-12.999*
  2: 0x03D4 [0x1F] MOVE_ENTITY: Update entity position (mode=1)
  3: 0x03D6 [0x6F] WAIT_FRAME_DELAY: Yield until WaitTime reaches zero
  4: 0x03D7 [0x00] END_REQSTACK()
```

### Event 65535.62

#### Metadata

| Field        | Value   |
|--------------|---------|
| Entrypoint   | 0x03D8  |
| Data Size    | 5 bytes |
| Instructions | 3       |

```
      00 01 02 03 04 05 06 07  08 09 0A 0B 0C 0D 0E 0F
      -- -- -- -- -- -- -- --  -- -- -- -- -- -- -- --
03D0:                          1D 59 80 23 00                   .Y.#.   
```

#### Opcodes

```
  0: 0x03D8 [0x1D] PRINT_EVENT_MESSAGE(message_id=7772*)
    → "I was able to make some pretty cool stinky-bombs with the $1 you brought us!"
  1: 0x03DB [0x23] WAIT_FOR_DIALOG_INTERACTION
  2: 0x03DC [0x00] END_REQSTACK()
```

### Event 65535.63

#### Metadata

| Field        | Value   |
|--------------|---------|
| Entrypoint   | 0x03DD  |
| Data Size    | 5 bytes |
| Instructions | 3       |

```
      00 01 02 03 04 05 06 07  08 09 0A 0B 0C 0D 0E 0F
      -- -- -- -- -- -- -- --  -- -- -- -- -- -- -- --
03D0:                                         1D 5A 80               .Z.
03E0: 23 00                                             #.              
```

#### Opcodes

```
  0: 0x03DD [0x1D] PRINT_EVENT_MESSAGE(message_id=7773*)
    → "Star Onion Brigade, attentio`n! "Operation Onion" will now begin!"
  1: 0x03E0 [0x23] WAIT_FOR_DIALOG_INTERACTION
  2: 0x03E1 [0x00] END_REQSTACK()
```

### Event 65535.64

#### Metadata

| Field        | Value   |
|--------------|---------|
| Entrypoint   | 0x03E2  |
| Data Size    | 5 bytes |
| Instructions | 3       |

```
      00 01 02 03 04 05 06 07  08 09 0A 0B 0C 0D 0E 0F
      -- -- -- -- -- -- -- --  -- -- -- -- -- -- -- --
03E0:       1D 5B 80 23 00                                .[.#.         
```

#### Opcodes

```
  0: 0x03E2 [0x1D] PRINT_EVENT_MESSAGE(message_id=7774*)
    → "The trap is set, and we're all in position! Now all we have to do is wait for the Cat Burglar to show!"
  1: 0x03E5 [0x23] WAIT_FOR_DIALOG_INTERACTION
  2: 0x03E6 [0x00] END_REQSTACK()
```

### Event 65535.65

#### Metadata

| Field        | Value   |
|--------------|---------|
| Entrypoint   | 0x03E7  |
| Data Size    | 5 bytes |
| Instructions | 3       |

```
      00 01 02 03 04 05 06 07  08 09 0A 0B 0C 0D 0E 0F
      -- -- -- -- -- -- -- --  -- -- -- -- -- -- -- --
03E0:                      1D  5C 80 23 00                     .\.#.    
```

#### Opcodes

```
  0: 0x03E7 [0x1D] PRINT_EVENT_MESSAGE(message_id=7775*)
    → "Oi! Whoever's in charge of candy provisions! How about you deal out some candy now?"
  1: 0x03EA [0x23] WAIT_FOR_DIALOG_INTERACTION
  2: 0x03EB [0x00] END_REQSTACK()
```

### Event 65535.66

#### Metadata

| Field        | Value    |
|--------------|----------|
| Entrypoint   | 0x03EC   |
| Data Size    | 19 bytes |
| Instructions | 5        |

```
      00 01 02 03 04 05 06 07  08 09 0A 0B 0C 0D 0E 0F
      -- -- -- -- -- -- -- --  -- -- -- -- -- -- -- --
03E0:                                      29 08 12 F0              )...
03F0: 0E 01 09 1D 5D 80 23 29  08 12 F0 0E 01 0A 00     ....].#)....... 
```

#### Opcodes

```
  0: 0x03EC [0x29] REQ_SET_WAIT(priority=0x08, entity_id=Kohlo-Lakolo (ID: 17756178/0x010EF012), tag_num=0x09)
  1: 0x03F3 [0x1D] PRINT_EVENT_MESSAGE(message_id=7777*)
    → "You idiot! You're pushing for a dishonorable discharge from the Star Onion Brigade for forgetting your candy responsibilities!"
  2: 0x03F6 [0x23] WAIT_FOR_DIALOG_INTERACTION
  3: 0x03F7 [0x29] REQ_SET_WAIT(priority=0x08, entity_id=Kohlo-Lakolo (ID: 17756178/0x010EF012), tag_num=0x0A)
  4: 0x03FE [0x00] END_REQSTACK()
```

### Event 65535.67

#### Metadata

| Field        | Value   |
|--------------|---------|
| Entrypoint   | 0x03FF  |
| Data Size    | 5 bytes |
| Instructions | 3       |

```
      00 01 02 03 04 05 06 07  08 09 0A 0B 0C 0D 0E 0F
      -- -- -- -- -- -- -- --  -- -- -- -- -- -- -- --
03F0:                                               1D                 .
0400: 5E 80 23 00                                       ^.#.            
```

#### Opcodes

```
  0: 0x03FF [0x1D] PRINT_EVENT_MESSAGE(message_id=7779*)
    → "Wait till you see the whites of her eyes, then let her have it with our onion stinky-bombs!!!"
  1: 0x0402 [0x23] WAIT_FOR_DIALOG_INTERACTION
  2: 0x0403 [0x00] END_REQSTACK()
```

### Event 65535.68

#### Metadata

| Field        | Value    |
|--------------|----------|
| Entrypoint   | 0x0404   |
| Data Size    | 19 bytes |
| Instructions | 5        |

```
      00 01 02 03 04 05 06 07  08 09 0A 0B 0C 0D 0E 0F
      -- -- -- -- -- -- -- --  -- -- -- -- -- -- -- --
0400:             29 08 12 F0  0E 01 11 1D 5F 80 23 29      )......._.#)
0410: 08 12 F0 0E 01 12 00                              .......         
```

#### Opcodes

```
  0: 0x0404 [0x29] REQ_SET_WAIT(priority=0x08, entity_id=Kohlo-Lakolo (ID: 17756178/0x010EF012), tag_num=0x11)
  1: 0x040B [0x1D] PRINT_EVENT_MESSAGE(message_id=7784*)
    → "Everybody, CHAAAAARRRGE!"
  2: 0x040E [0x23] WAIT_FOR_DIALOG_INTERACTION
  3: 0x040F [0x29] REQ_SET_WAIT(priority=0x08, entity_id=Kohlo-Lakolo (ID: 17756178/0x010EF012), tag_num=0x12)
  4: 0x0416 [0x00] END_REQSTACK()
```

### Event 65535.69

#### Metadata

| Field        | Value   |
|--------------|---------|
| Entrypoint   | 0x0417  |
| Data Size    | 5 bytes |
| Instructions | 3       |

```
      00 01 02 03 04 05 06 07  08 09 0A 0B 0C 0D 0E 0F
      -- -- -- -- -- -- -- --  -- -- -- -- -- -- -- --
0410:                      1D  60 80 23 00                     .`.#.    
```

#### Opcodes

```
  0: 0x0417 [0x1D] PRINT_EVENT_MESSAGE(message_id=7790*)
    → "(I think we knocked her out...!)"
  1: 0x041A [0x23] WAIT_FOR_DIALOG_INTERACTION
  2: 0x041B [0x00] END_REQSTACK()
```

### Event 65535.70

#### Metadata

| Field        | Value    |
|--------------|----------|
| Entrypoint   | 0x041C   |
| Data Size    | 19 bytes |
| Instructions | 5        |

```
      00 01 02 03 04 05 06 07  08 09 0A 0B 0C 0D 0E 0F
      -- -- -- -- -- -- -- --  -- -- -- -- -- -- -- --
0410:                                      29 08 12 F0              )...
0420: 0E 01 01 1D 61 80 23 29  08 12 F0 0E 01 02 00     ....a.#)....... 
```

#### Opcodes

```
  0: 0x041C [0x29] REQ_SET_WAIT(priority=0x08, entity_id=Kohlo-Lakolo (ID: 17756178/0x010EF012), tag_num=0x01)
  1: 0x0423 [0x1D] PRINT_EVENT_MESSAGE(message_id=7791*)
    → "(Good. Now let's quietly approach her and tie her up with our ropey-rope!)"
  2: 0x0426 [0x23] WAIT_FOR_DIALOG_INTERACTION
  3: 0x0427 [0x29] REQ_SET_WAIT(priority=0x08, entity_id=Kohlo-Lakolo (ID: 17756178/0x010EF012), tag_num=0x02)
  4: 0x042E [0x00] END_REQSTACK()
```

### Event 65535.71

#### Metadata

| Field        | Value    |
|--------------|----------|
| Entrypoint   | 0x042F   |
| Data Size    | 19 bytes |
| Instructions | 5        |

```
      00 01 02 03 04 05 06 07  08 09 0A 0B 0C 0D 0E 0F
      -- -- -- -- -- -- -- --  -- -- -- -- -- -- -- --
0420:                                               29                 )
0430: 08 12 F0 0E 01 0D 1D 62  80 23 29 08 12 F0 0E 01  .......b.#).....
0440: 0E 00                                             ..              
```

#### Opcodes

```
  0: 0x042F [0x29] REQ_SET_WAIT(priority=0x08, entity_id=Kohlo-Lakolo (ID: 17756178/0x010EF012), tag_num=0x0D)
  1: 0x0436 [0x1D] PRINT_EVENT_MESSAGE(message_id=7797*)
    → "Waaa`rgh!"
  2: 0x0439 [0x23] WAIT_FOR_DIALOG_INTERACTION
  3: 0x043A [0x29] REQ_SET_WAIT(priority=0x08, entity_id=Kohlo-Lakolo (ID: 17756178/0x010EF012), tag_num=0x0E)
  4: 0x0441 [0x00] END_REQSTACK()
```

### Event 65535.72

#### Metadata

| Field        | Value   |
|--------------|---------|
| Entrypoint   | 0x0442  |
| Data Size    | 5 bytes |
| Instructions | 3       |

```
      00 01 02 03 04 05 06 07  08 09 0A 0B 0C 0D 0E 0F
      -- -- -- -- -- -- -- --  -- -- -- -- -- -- -- --
0440:       1D 63 80 23 00                                .c.#.         
```

#### Opcodes

```
  0: 0x0442 [0x1D] PRINT_EVENT_MESSAGE(message_id=7798*)
    → "Run for your li`ves!"
  1: 0x0445 [0x23] WAIT_FOR_DIALOG_INTERACTION
  2: 0x0446 [0x00] END_REQSTACK()
```
