# 17756193 - Koru-Moru

## Common Data

| Field            | Value                    |
|------------------|--------------------------|
| Zone             | Windurst Walls (ID: 239) |
| Block Size       | 11852 bytes              |
| Total Events     | 144                      |
| References Count | 278                      |

## List of Events

| Event ID                   | Entrypoint   |   Size |   Instructions |
|----------------------------|--------------|--------|----------------|
| [65535](#event-65535)      | 0x0000       |      1 |              1 |
| [65535.1](#event-655351)   | 0x0001       |     16 |              2 |
| [65535.2](#event-655352)   | 0x0011       |     22 |              4 |
| [65535.3](#event-655353)   | 0x0027       |     16 |              2 |
| [65535.4](#event-655354)   | 0x0037       |     14 |              2 |
| [65535.5](#event-655355)   | 0x0045       |     16 |              2 |
| [65535.6](#event-655356)   | 0x0055       |     14 |              2 |
| [65535.7](#event-655357)   | 0x0063       |     16 |              2 |
| [65535.8](#event-655358)   | 0x0073       |     22 |              4 |
| [65535.9](#event-655359)   | 0x0089       |     16 |              2 |
| [65535.10](#event-6553510) | 0x0099       |     14 |              2 |
| [65535.11](#event-6553511) | 0x00A7       |     16 |              2 |
| [65535.12](#event-6553512) | 0x00B7       |     14 |              2 |
| [65535.13](#event-6553513) | 0x00C5       |     16 |              2 |
| [65535.14](#event-6553514) | 0x00D5       |     14 |              2 |
| [65535.15](#event-6553515) | 0x00E3       |     16 |              2 |
| [65535.16](#event-6553516) | 0x00F3       |     14 |              2 |
| [65535.17](#event-6553517) | 0x0101       |     16 |              2 |
| [65535.18](#event-6553518) | 0x0111       |     14 |              2 |
| [65535.19](#event-6553519) | 0x011F       |     16 |              2 |
| [65535.20](#event-6553520) | 0x012F       |     14 |              2 |
| [65535.21](#event-6553521) | 0x013D       |     16 |              2 |
| [65535.22](#event-6553522) | 0x014D       |     22 |              4 |
| [65535.23](#event-6553523) | 0x0163       |     16 |              2 |
| [65535.24](#event-6553524) | 0x0173       |     14 |              2 |
| [65535.25](#event-6553525) | 0x0181       |     16 |              2 |
| [65535.26](#event-6553526) | 0x0191       |     14 |              2 |
| [65535.27](#event-6553527) | 0x019F       |     16 |              2 |
| [65535.28](#event-6553528) | 0x01AF       |     14 |              2 |
| [65535.29](#event-6553529) | 0x01BD       |     16 |              2 |
| [65535.30](#event-6553530) | 0x01CD       |     22 |              4 |
| [65535.31](#event-6553531) | 0x01E3       |     16 |              2 |
| [65535.32](#event-6553532) | 0x01F3       |     14 |              2 |
| [65535.33](#event-6553533) | 0x0201       |     27 |              3 |
| [65535.34](#event-6553534) | 0x021C       |     64 |              8 |
| [65535.35](#event-6553535) | 0x025C       |     31 |              3 |
| [65535.36](#event-6553536) | 0x027B       |     14 |              2 |
| [65535.37](#event-6553537) | 0x0289       |     16 |              2 |
| [65535.38](#event-6553538) | 0x0299       |     24 |              4 |
| [443](#event-443)          | 0x02B1       |     16 |              3 |
| [193](#event-193)          | 0x02C1       |     29 |             10 |
| [194](#event-194)          | 0x02DE       |     65 |             18 |
| [197](#event-197)          | 0x031F       |     72 |             17 |
| [65535.39](#event-6553539) | 0x0367       |     49 |             15 |
| [65535.40](#event-6553540) | 0x0398       |      5 |              3 |
| [65535.41](#event-6553541) | 0x039D       |     29 |             10 |
| [65535.42](#event-6553542) | 0x03BA       |     29 |             10 |
| [198](#event-198)          | 0x03D7       |     43 |             12 |
| [199](#event-199)          | 0x0402       |     34 |             13 |
| [211](#event-211)          | 0x0424       |     46 |             12 |
| [65535.43](#event-6553543) | 0x0452       |     19 |              5 |
| [65535.44](#event-6553544) | 0x0465       |     19 |              5 |
| [212](#event-212)          | 0x0478       |     50 |             13 |
| [213](#event-213)          | 0x04AA       |     55 |             18 |
| [214](#event-214)          | 0x04E1       |     79 |             18 |
| [65535.45](#event-6553545) | 0x0530       |     19 |              5 |
| [65535.46](#event-6553546) | 0x0543       |     23 |              7 |
| [65535.47](#event-6553547) | 0x055A       |     19 |              5 |
| [65535.48](#event-6553548) | 0x056D       |     23 |              7 |
| [215](#event-215)          | 0x0584       |     33 |             12 |
| [216](#event-216)          | 0x05A5       |     29 |             10 |
| [224](#event-224)          | 0x05C2       |     62 |             14 |
| [65535.49](#event-6553549) | 0x0600       |     37 |              9 |
| [65535.50](#event-6553550) | 0x0625       |     19 |              5 |
| [65535.51](#event-6553551) | 0x0638       |     26 |              6 |
| [225](#event-225)          | 0x0652       |     18 |              7 |
| [65535.52](#event-6553552) | 0x0664       |     33 |              7 |
| [226](#event-226)          | 0x0685       |     33 |             12 |
| [285](#event-285)          | 0x06A6       |     50 |             13 |
| [65535.53](#event-6553553) | 0x06D8       |     19 |              5 |
| [65535.54](#event-6553554) | 0x06EB       |     37 |              9 |
| [65535.55](#event-6553555) | 0x0710       |    127 |             29 |
| [65535.56](#event-6553556) | 0x078F       |     37 |              9 |
| [65535.57](#event-6553557) | 0x07B4       |     19 |              5 |
| [286](#event-286)          | 0x07C7       |     29 |             10 |
| [287](#event-287)          | 0x07E4       |     47 |             14 |
| [394](#event-394)          | 0x0813       |     29 |             10 |
| [227](#event-227)          | 0x0830       |    285 |             68 |
| [228](#event-228)          | 0x094D       |     47 |             14 |
| [237](#event-237)          | 0x097C       |    447 |             74 |
| [238](#event-238)          | 0x0B3B       |     47 |             14 |
| [239](#event-239)          | 0x0B6A       |    292 |             51 |
| [241](#event-241)          | 0x0C8E       |     47 |             14 |
| [242](#event-242)          | 0x0CBD       |    716 |             92 |
| [65535.58](#event-6553558) | 0x0F89       |     25 |              7 |
| [244](#event-244)          | 0x0FA2       |      8 |              5 |
| [345](#event-345)          | 0x0FAA       |     51 |             16 |
| [346](#event-346)          | 0x0FDD       |     33 |             12 |
| [348](#event-348)          | 0x0FFE       |     55 |             14 |
| [349](#event-349)          | 0x1035       |     42 |             13 |
| [404](#event-404)          | 0x105F       |    383 |             62 |
| [405](#event-405)          | 0x11DE       |     27 |             10 |
| [412](#event-412)          | 0x11F9       |    513 |             81 |
| [414](#event-414)          | 0x13FA       |     29 |             10 |
| [407](#event-407)          | 0x1417       |   2169 |            301 |
| [65535.59](#event-6553559) | 0x1C90       |     10 |              2 |
| [65535.60](#event-6553560) | 0x1C9A       |     28 |              8 |
| [408](#event-408)          | 0x1CB6       |     69 |             20 |
| [410](#event-410)          | 0x1CFB       |   1008 |            134 |
| [411](#event-411)          | 0x20EB       |     33 |             12 |
| [417](#event-417)          | 0x210C       |    776 |            113 |
| [65535.61](#event-6553561) | 0x2414       |     28 |              8 |
| [65535.62](#event-6553562) | 0x2430       |     10 |              2 |
| [416](#event-416)          | 0x243A       |     34 |             13 |
| [418](#event-418)          | 0x245C       |     47 |             14 |
| [419](#event-419)          | 0x248B       |      1 |              1 |
| [65535.63](#event-6553563) | 0x248C       |     10 |              2 |
| [65535.64](#event-6553564) | 0x2496       |     15 |              5 |
| [65535.65](#event-6553565) | 0x24A5       |     22 |              8 |
| [65535.66](#event-6553566) | 0x24BB       |     17 |              5 |
| [420](#event-420)          | 0x24CC       |     33 |             12 |
| [442](#event-442)          | 0x24ED       |    102 |             27 |
| [65535.67](#event-6553567) | 0x2553       |     33 |              3 |
| [65535.68](#event-6553568) | 0x2574       |     39 |              5 |
| [65535.69](#event-6553569) | 0x259B       |     39 |              5 |
| [65535.70](#event-6553570) | 0x25C2       |     19 |              3 |
| [65535.71](#event-6553571) | 0x25D5       |     16 |              2 |
| [65535.72](#event-6553572) | 0x25E5       |     22 |              4 |
| [65535.73](#event-6553573) | 0x25FB       |     15 |              4 |
| [65535.74](#event-6553574) | 0x260A       |     21 |              2 |
| [65535.75](#event-6553575) | 0x261F       |     10 |              2 |
| [65535.76](#event-6553576) | 0x2629       |     10 |              2 |
| [510](#event-510)          | 0x2633       |      1 |              1 |
| [65535.77](#event-6553577) | 0x2634       |     15 |              5 |
| [65535.78](#event-6553578) | 0x2643       |     16 |              2 |
| [65535.79](#event-6553579) | 0x2653       |     16 |              2 |
| [65535.80](#event-6553580) | 0x2663       |     16 |              2 |
| [65535.81](#event-6553581) | 0x2673       |     16 |              2 |
| [65535.82](#event-6553582) | 0x2683       |     16 |              2 |
| [65535.83](#event-6553583) | 0x2693       |     16 |              2 |
| [65535.84](#event-6553584) | 0x26A3       |     19 |              3 |
| [65535.85](#event-6553585) | 0x26B6       |     19 |              3 |
| [65535.86](#event-6553586) | 0x26C9       |     16 |              4 |
| [65535.87](#event-6553587) | 0x26D9       |     29 |              3 |
| [65535.88](#event-6553588) | 0x26F6       |     16 |              2 |
| [511](#event-511)          | 0x2706       |      1 |              1 |
| [65535.89](#event-6553589) | 0x2707       |     24 |              6 |
| [65535.90](#event-6553590) | 0x271F       |     15 |              5 |
| [65535.91](#event-6553591) | 0x272E       |     15 |              5 |
| [65535.92](#event-6553592) | 0x273D       |     25 |              4 |
| [548](#event-548)          | 0x2756       |     21 |              2 |
| [65535.93](#event-6553593) | 0x276B       |     35 |              7 |
| [65535.94](#event-6553594) | 0x278E       |     21 |              2 |
| [573](#event-573)          | 0x27A3       |      1 |              1 |

## DAT References (imed_data)

|   Index | Hex Value   |   Dec Value |
|---------|-------------|-------------|
|       0 | 0x0028      |          40 |
|       1 | 0x001E      |          30 |
|       2 | 0x0029      |          41 |
|       3 | 0x003C      |          60 |
|       4 | 0x002A      |          42 |
|       5 | 0x002E      |          46 |
|       6 | 0xFFFEAE3F  |  4294880831 |
|       7 | 0x1E6F0     |      124656 |
|       8 | 0xFFFFEAD1  |  4294961873 |
|       9 | 0x00C5      |         197 |
|      10 | 0x1D6A      |        7530 |
|      11 | 0x1D6B      |        7531 |
|      12 | 0x1D6C      |        7532 |
|      13 | 0x1D6D      |        7533 |
|      14 | 0x1D75      |        7541 |
|      15 | 0x0000      |           0 |
|      16 | 0x0001      |           1 |
|      17 | 0x1D70      |        7536 |
|      18 | 0x1D71      |        7537 |
|      19 | 0x1D72      |        7538 |
|      20 | 0x1D73      |        7539 |
|      21 | 0x1D74      |        7540 |
|      22 | 0x1D76      |        7542 |
|      23 | 0x1D77      |        7543 |
|      24 | 0x1D78      |        7544 |
|      25 | 0x1D79      |        7545 |
|      26 | 0x1D7A      |        7546 |
|      27 | 0x00C9      |         201 |
|      28 | 0x1D8D      |        7565 |
|      29 | 0x1D8E      |        7566 |
|      30 | 0x1D8F      |        7567 |
|      31 | 0x1D90      |        7568 |
|      32 | 0x1D91      |        7569 |
|      33 | 0x1D92      |        7570 |
|      34 | 0x1D93      |        7571 |
|      35 | 0x1D94      |        7572 |
|      36 | 0x1D98      |        7576 |
|      37 | 0x1D95      |        7573 |
|      38 | 0x1D96      |        7574 |
|      39 | 0x1D97      |        7575 |
|      40 | 0x1D99      |        7577 |
|      41 | 0x1D9A      |        7578 |
|      42 | 0x1D9B      |        7579 |
|      43 | 0x1D9C      |        7580 |
|      44 | 0x1D9D      |        7581 |
|      45 | 0x1D9E      |        7582 |
|      46 | 0x0088      |         136 |
|      47 | 0x1DAC      |        7596 |
|      48 | 0x1DAD      |        7597 |
|      49 | 0x1DAE      |        7598 |
|      50 | 0x1DAF      |        7599 |
|      51 | 0x1DB0      |        7600 |
|      52 | 0x1DB1      |        7601 |
|      53 | 0x1DB2      |        7602 |
|      54 | 0x0064      |         100 |
|      55 | 0x1E49      |        7753 |
|      56 | 0x1E4A      |        7754 |
|      57 | 0x1E4B      |        7755 |
|      58 | 0x1E4C      |        7756 |
|      59 | 0x1E4D      |        7757 |
|      60 | 0x1E4E      |        7758 |
|      61 | 0x1E4F      |        7759 |
|      62 | 0x1E50      |        7760 |
|      63 | 0x1E51      |        7761 |
|      64 | 0x1E52      |        7762 |
|      65 | 0x1E53      |        7763 |
|      66 | 0x1E54      |        7764 |
|      67 | 0x1E55      |        7765 |
|      68 | 0x1E56      |        7766 |
|      69 | 0x1E57      |        7767 |
|      70 | 0x1E58      |        7768 |
|      71 | 0x2218      |        8728 |
|      72 | 0x1DB3      |        7603 |
|      73 | 0x1DB4      |        7604 |
|      74 | 0x1DB5      |        7605 |
|      75 | 0x0006      |           6 |
|      76 | 0x1DB6      |        7606 |
|      77 | 0x1DB7      |        7607 |
|      78 | 0x1DB8      |        7608 |
|      79 | 0x1DB9      |        7609 |
|      80 | 0x1DBA      |        7610 |
|      81 | 0x1DBB      |        7611 |
|      82 | 0x1DBC      |        7612 |
|      83 | 0x1DBD      |        7613 |
|      84 | 0x0007      |           7 |
|      85 | 0x1DBF      |        7615 |
|      86 | 0x1DC0      |        7616 |
|      87 | 0x1DC1      |        7617 |
|      88 | 0x1DBE      |        7614 |
|      89 | 0x1DC2      |        7618 |
|      90 | 0x1DC3      |        7619 |
|      91 | 0x1DDA      |        7642 |
|      92 | 0x00C8      |         200 |
|      93 | 0x0191      |         401 |
|      94 | 0x1DDB      |        7643 |
|      95 | 0x0013      |          19 |
|      96 | 0x00A3      |         163 |
|      97 | 0x00D4      |         212 |
|      98 | 0x1DDC      |        7644 |
|      99 | 0x1DDD      |        7645 |
|     100 | 0x1DDE      |        7646 |
|     101 | 0x1DDF      |        7647 |
|     102 | 0x1DE0      |        7648 |
|     103 | 0x1DE1      |        7649 |
|     104 | 0x0097      |         151 |
|     105 | 0x007F      |         127 |
|     106 | 0x1DE2      |        7650 |
|     107 | 0x1DE3      |        7651 |
|     108 | 0x1DE4      |        7652 |
|     109 | 0x1DE5      |        7653 |
|     110 | 0x1DE6      |        7654 |
|     111 | 0x1DE7      |        7655 |
|     112 | 0x1DE8      |        7656 |
|     113 | 0x1DE9      |        7657 |
|     114 | 0xFFFE3A8E  |  4294851214 |
|     115 | 0x1CD2A     |      118058 |
|     116 | 0xFFFFEA85  |  4294961797 |
|     117 | 0x0D65      |        3429 |
|     118 | 0x1DEA      |        7658 |
|     119 | 0x1DEB      |        7659 |
|     120 | 0x1DEC      |        7660 |
|     121 | 0x1DED      |        7661 |
|     122 | 0x1DEE      |        7662 |
|     123 | 0x1DEF      |        7663 |
|     124 | 0x1DF0      |        7664 |
|     125 | 0x0078      |         120 |
|     126 | 0xFFFE52A1  |  4294857377 |
|     127 | 0x1CE7C     |      118396 |
|     128 | 0x02E9      |         745 |
|     129 | 0x2076      |        8310 |
|     130 | 0x2077      |        8311 |
|     131 | 0x2078      |        8312 |
|     132 | 0x2079      |        8313 |
|     133 | 0x207A      |        8314 |
|     134 | 0x207D      |        8317 |
|     135 | 0x207E      |        8318 |
|     136 | 0x207F      |        8319 |
|     137 | 0x2080      |        8320 |
|     138 | 0x0003      |           3 |
|     139 | 0x22A7      |        8871 |
|     140 | 0x22A8      |        8872 |
|     141 | 0x22A9      |        8873 |
|     142 | 0x22AA      |        8874 |
|     143 | 0x22AB      |        8875 |
|     144 | 0x22AC      |        8876 |
|     145 | 0x041D      |        1053 |
|     146 | 0x22AF      |        8879 |
|     147 | 0x22B0      |        8880 |
|     148 | 0x22B1      |        8881 |
|     149 | 0x22B2      |        8882 |
|     150 | 0x22B3      |        8883 |
|     151 | 0x22B4      |        8884 |
|     152 | 0x22B5      |        8885 |
|     153 | 0x22B6      |        8886 |
|     154 | 0x22B7      |        8887 |
|     155 | 0x0096      |         150 |
|     156 | 0x0011      |          17 |
|     157 | 0x22B8      |        8888 |
|     158 | 0x22B9      |        8889 |
|     159 | 0x22BA      |        8890 |
|     160 | 0x007C      |         124 |
|     161 | 0x22BB      |        8891 |
|     162 | 0x22BC      |        8892 |
|     163 | 0x22BD      |        8893 |
|     164 | 0x22BE      |        8894 |
|     165 | 0x22BF      |        8895 |
|     166 | 0x22C0      |        8896 |
|     167 | 0x0E7F      |        3711 |
|     168 | 0x22C1      |        8897 |
|     169 | 0x22C2      |        8898 |
|     170 | 0x000A      |          10 |
|     171 | 0x22C3      |        8899 |
|     172 | 0x22C4      |        8900 |
|     173 | 0x22C5      |        8901 |
|     174 | 0x22C8      |        8904 |
|     175 | 0x22C9      |        8905 |
|     176 | 0x22CC      |        8908 |
|     177 | 0x22CE      |        8910 |
|     178 | 0x22D0      |        8912 |
|     179 | 0x22D1      |        8913 |
|     180 | 0x22D2      |        8914 |
|     181 | 0x22D7      |        8919 |
|     182 | 0x22D8      |        8920 |
|     183 | 0x22D9      |        8921 |
|     184 | 0xFFFE2A3A  |  4294847034 |
|     185 | 0x1D420     |      119840 |
|     186 | 0x0067      |         103 |
|     187 | 0x000D      |          13 |
|     188 | 0xFFFE39AC  |  4294850988 |
|     189 | 0x1CC99     |      117913 |
|     190 | 0x0497      |        1175 |
|     191 | 0x22DC      |        8924 |
|     192 | 0x22DD      |        8925 |
|     193 | 0x22DE      |        8926 |
|     194 | 0x22DF      |        8927 |
|     195 | 0x22E4      |        8932 |
|     196 | 0x22E5      |        8933 |
|     197 | 0x22E7      |        8935 |
|     198 | 0x22E8      |        8936 |
|     199 | 0x22E9      |        8937 |
|     200 | 0x22EE      |        8942 |
|     201 | 0x22F0      |        8944 |
|     202 | 0x22F1      |        8945 |
|     203 | 0x22F2      |        8946 |
|     204 | 0x22F4      |        8948 |
|     205 | 0x22F5      |        8949 |
|     206 | 0x22F6      |        8950 |
|     207 | 0x22F7      |        8951 |
|     208 | 0x22FC      |        8956 |
|     209 | 0x22FD      |        8957 |
|     210 | 0x22FE      |        8958 |
|     211 | 0x22FF      |        8959 |
|     212 | 0x2300      |        8960 |
|     213 | 0x2301      |        8961 |
|     214 | 0x2303      |        8963 |
|     215 | 0x2304      |        8964 |
|     216 | 0x2305      |        8965 |
|     217 | 0x2306      |        8966 |
|     218 | 0x2307      |        8967 |
|     219 | 0xFFFE4E07  |  4294856199 |
|     220 | 0x1EA35     |      125493 |
|     221 | 0xFFFFEE6C  |  4294962796 |
|     222 | 0x0F47      |        3911 |
|     223 | 0xFFFE4B5F  |  4294855519 |
|     224 | 0x1E178     |      123256 |
|     225 | 0x0D69      |        3433 |
|     226 | 0x22FA      |        8954 |
|     227 | 0x22FB      |        8955 |
|     228 | 0x2308      |        8968 |
|     229 | 0x2309      |        8969 |
|     230 | 0xFFFE4F2B  |  4294856491 |
|     231 | 0x1ED89     |      126345 |
|     232 | 0x0F15      |        3861 |
|     233 | 0xFFFE484A  |  4294854730 |
|     234 | 0x1F6D0     |      128720 |
|     235 | 0xFFFE4D64  |  4294856036 |
|     236 | 0x1F28E     |      127630 |
|     237 | 0x231B      |        8987 |
|     238 | 0x2323      |        8995 |
|     239 | 0x2324      |        8996 |
|     240 | 0x2360      |        9056 |
|     241 | 0x2361      |        9057 |
|     242 | 0x2362      |        9058 |
|     243 | 0x2363      |        9059 |
|     244 | 0x2364      |        9060 |
|     245 | 0x0ACF      |        2767 |
|     246 | 0x00B5      |         181 |
|     247 | 0x002D      |          45 |
|     248 | 0x001B      |          27 |
|     249 | 0x00B4      |         180 |
|     250 | 0x0074      |         116 |
|     251 | 0x0128      |         296 |
|     252 | 0x0801      |        2049 |
|     253 | 0x002B      |          43 |
|     254 | 0x0005      |           5 |
|     255 | 0x0017      |          23 |
|     256 | 0x000B      |          11 |
|     257 | 0x0080      |         128 |
|     258 | 0xFFFE5ED0  |  4294860496 |
|     259 | 0x2FAE4     |      195300 |
|     260 | 0xFFFFCD38  |  4294954296 |
|     261 | 0x0031      |          49 |
|     262 | 0x055D      |        1373 |
|     263 | 0x0055      |          85 |
|     264 | 0x0050      |          80 |
|     265 | 0xFFFE6B3C  |  4294863676 |
|     266 | 0x32780     |      206720 |
|     267 | 0xFFFE5DDE  |  4294860254 |
|     268 | 0x31BCB     |      203723 |
|     269 | 0xFFFE8ACB  |  4294871755 |
|     270 | 0x2EE7B     |      192123 |
|     271 | 0xFFFE84E5  |  4294870245 |
|     272 | 0x2F53F     |      193855 |
|     273 | 0x0AD2      |        2770 |
|     274 | 0x007D      |         125 |
|     275 | 0x1E0B2     |      123058 |
|     276 | 0x1C245     |      115269 |
|     277 | 0xFFFFF448  |  4294964296 |

## String References

- **7530**: Ergh... Why, diddly-doodley, do you bother me? I was just riding on the back of a fire dragon as she flew off into the starry night, too...
- **7531**: Ergh... Why, diddly-doodley, do you bother me? I was just in mortal combat with the Shadow Lord, and about to receive a good-luck kiss from the maiden I saved, too...
- **7532**: ...Hm? You must be the diddly-doodley one. You know, the adventurer who defeated the flan-dangle-wangled Shadow Lord. Yeah...
- **7533**: Well, damn, good for you! Actually, a super-dooper-wooper spell to X-zone the Shadow Lord for good was supposed to be my twenty-three thousand thirty-fifth study subject, but you had to diddly-duddely go ahead and defeat him before I could complete it. Argh!
- **7536**: Ergh... Why, diddly-doodley, do you bother me? I was just riding on an ice dragon as she flew around a silver moon, too...
- **7537**: Hm? Wait a cotton-pickin' seconderoony. Why do you smell like my sweetie-pie pen-pal Mojiji!? Are you into wearing the same perfectareeno perfume as her?
- **7538**: Oh my dearily-doorily-dear! It's no time to be lost in flights of fantasy. I must finish that research as soon-a-roon as possible...
- **7539**: ...Hey, you there, heidely-ho! For you to suddenly appear-aroo in front of me at this particular time-a-riner must have been the will of the stars.
- **7540**: Quick-aroo! At the speed-a-reedero of light! You must search around Sarutabaruta and find me a rough black stone!
- **7541**: Agree to help? [Yes./No.]
- **7542**: What!? Why, you [wanna-be warrior/warrior wanna-be/novice monk/immature mage/amateur mage/greenhorn mage/naive thief/newbie adventurer]! How dare you turn-a-rurn me down-a-roo!
- **7543**: Good-o, great-o! Then hurry up and-a-get-a-going! That black stone-a-roo is the first step of my great ambition! It'll make me more famouseroony than the stars! Wahahaha!
- **7544**: Say, hey, doodily-do. Hurry up and find me that "rough black stone"-aroo I'm looking for! I'm way too busy-a-whizzy with my researcheroony to search myself!
- **7545**: Hey! Why do you have my love letter to my pen-pal sweet-eroony sweetie-pie Mojiji!?
- **7546**: I want it back-a-reeno! Here, I'll give you this for it, so hand it doodily-over.
- **7565**: Oh, sweet-aroo! What's that stone-a-roney you have there?
- **7566**: This is flanddandildelyagily it! It truly is a gift from heaven-areeno! Oh, and here's a diddly-doodley gift from me to you-aroo...
- **7567**: Hold diddly on-aron...! Is this really-doodily the stone-aroo I asked you for...? There's something odd-diddly-oddly here... Hmm...
- **7568**: Well, it diddley-doodily appears to be a stone-a-roney of some kind of strange power-a-wowser. See-o...it's made me a tinsy-weeny-bit hungry-areeno just looking at it-aroo.
- **7569**: Hoo-hoo-hoo-ho-hoo! I'm giddly-goodily glad you were able to fiddly-fondily find this stone-a-roney! My dufferoony students think that the reason the stars twinkle-a-winkle in the night sky-areeno is because they are made out of giant doodily-do jewels.
- **7570**: But you uncovered-eroony the truth-areeno that was out there-a-where! As a reward-aroo, I'll share a titsy-witsy wee bit of my research with you.
- **7571**: Be surprised-aroo... Be very surprised-arised-areeno-roo! I believe this stone-a-roney has the power to grantily-wantily-grant a person's wishes!
- **7572**: Hoo-hoo-hoo-ho-hoo! With this stone-areeno, my diddly-daddly-dear Mojiji, I'll make you mine-aroo! Hoo-hoo-hoo-a-hoo-hoo!
- **7573**: Ergh... Why, diddly-doodley, do you bother me? I was just swimming back-aroo through the stream-areemo of time, groping for lost memories.
- **7574**: But, heidely-hoddily! You're coming-a-rumming here was probably a result-areeno of some chain of wiggly-woggly events I triggered in the past-aroo.
- **7575**: So...are you skilled-a-willio at searching for stuff-areeno? The adventurers I meet-aroo are all supposed to be goodily-godily-good at finding a thing or two...
- **7576**: Good at finding things? [Yes./No.]
- **7577**: Then why-oh-googilyly-eye, did you come-reeno into my place of research-aroo for?
- **7578**: Good-o! Neat-o! Now hurry up and find-a-rindo me a burnite shell!
- **7579**: Burnite shells are extremely large, pointy-a-rointy shell-areenos. You'll know-a-wow when you diddley-doddily find one!
- **7580**: Hurry up and get-a-going-ing! We've got to get one before-a-wore Yoran-Oran realizes what I'm up to-aroo!
- **7581**: If he finds out-a-rout, then he'll never stop nagging-wagging-hagging-a-ragging me! I have no diddley-doddily time for people's chit-chat-areeno-roo!
- **7582**: Don't make a mistake-aroony! Be sure-diddly-oddily to get me a burnite shell, now! They are really big-areeno and pointy-spointy!
- **7596**: Ho-hoo! Well diddly-doodley done! This is it-aroo! This is the shell-areeno I was searching-a-urching for!
- **7597**: Will this doodily-do as payment-aroo for your labor? Come backety-back and help me out again-eroony someday, eh?
- **7598**: What-aroo? Would a fossil diddily-doodily-do? Hahaha! If you could find-a-wind a burnite shell that's not a fossil-a-fissil, you'd be a greater doctor-eroony than old Yoran-Oran and I put together-areeno!
- **7599**: Now to secretly return this to my neighbor-rino, Yoran-Oran's room, before he realizes his is gone-aroo... Mumble-grumble...
- **7600**: No, no! This ain't it-aroo! Didn't I tell-a-rell you? I'm after a really big-areeno and pointy-spointy shell!
- **7601**: What-aroo? Would a fossil diddily-doodily-do? Hahaha! If you could find-a-wind a burnite shell that's not a fossil-a-fissil, you'd be a greater doctor-eroony than old Yoran-Oran and I put together-areeno!
- **7602**: Now to secretly return this to my neighbor-reeno, Yoran-Oran's room, before he realizes his is gone-aroo... Mumble-grumble...
- **7603**: Diddily...doodily... Hmm? What's your hum-diddly business here? I was just searching the voidilly-void of nothingness to find the answer of how to make some-doodily-thing from nothing.
- **7604**: No bother-wother-aroo. So, why is it that you call-diddly-called on my home-areeno?
- **7605**: You couldn't be...a massager-messenger from the dark-doodily-voidilly!?
- **7606**: Well-eroony, before anybody-buddy takes-and-bakes me away to the other side-areeno, I need to fan-diddly-finish my project-aroo.
- **7607**: I'm on the verge-areeny of something big-aroo, but I first have to figure out what I needly-need to make my prod-proddily-project happen.
- **7608**: Long-dingly-dong ago, there was this scientificated scientist who was studilly-studying an ancient art-aroo called "alchemy."
- **7609**: This alchem-eeno sounds really-diddily close to what I'm trying to doodilly-do--make some-diddily-something out of nothing-eroo.
- **7610**: However, that scientist's project was a failure-eeno...
- **7611**: That's where I come in! Maybe I can succeed where that other guy couldn't!
- **7612**: And guess what? You're going to help me!
- **7613**: Help the professor? [Yes-areeno./No-aroo.]
- **7614**: You're not? Then why the flip-diddily-do did you come here?
- **7615**: Stupen-diddi-licious! Now go and find an authority on alchemy and squeeze all the secrets out of her.
- **7616**: Hmm? You say that alchemy is not an ancient art?
- **7617**: Wah-hah-hah! There is no past or present in science.
- **7618**: There's got to be somebodily-buddily out there secretly researching alchemy.
- **7619**: You go out there and find her and get her to spittily-spit out all she knows about the subject. I don't care if you have to tickle her to death.
- **7642**: Excellent-areeno! This is exact-diddily-idily what I was looking for! Hmm...wonderfullific writing! Whoever wrote this must have been one great-daidilly-straight-'A' student.
- **7643**: Hmmm... Uh-huh...didilly... Yes...doodily...
- **7644**: !!!
- **7645**: Eureka-riddily-roo! I've got it! Our little genius's theory-areeno goes something-a-ling like this:
- **7646**: Mix a little bit of "lifeforce" with a dibble-dabbledy-do of the "power of death," and don't forget to take "time" and "temperature" into consideration.
- **7647**: Lifeforce? Sounds like some kind of egg to me. And power of death? May-biddily-be a bone...
- **7648**: Well, you're the adventurer-eeno, not me. I'll let you handle the diddily-details.
- **7649**: Just bring-dingily-ding me back some "lifeforce" and some "power of death."
- **7650**: Bring-dingily-ding me back some "lifeforce" and some "power of death." I'll let you handle the diddily-details.
- **7651**: Lifeforce? Sounds like some kind of egg to me. And power of death? May-biddily-be a bone...
- **7652**: Ah-hah! I see! $1 is the lifeforce and $2 is the power of death.
- **7653**: Heh-heh-heh. While you were gone, I solved the mystery-eroony of "time" and "temperature." Now it is time to begin our twisty-turny-journey into the unknown!
- **7654**: This experiment will take some "time," so why don't you come smack-buggily-back in a few day-aroos?
- **7655**: So impatient, you adventurers. Greateriffic discover-iddilies take time!
- **7656**: Come back in a few day-aroos. I have nuttily-nothing to show you now... Mumble-grumble...
- **7657**: Ah, you're fine-dinally here! The experiment-eroony--it was a success-areeno!
- **7658**: Here, look! Lookity-look-a-look at this! Can't you see it?
- **7659**: I've created some-diddly-something out of nothing! Here, look at the little fuzzy green thingies. They weren't there last week-aroo!
- **7660**: Well, all the dat-daddily-data proves my success! As an expression of my grat-tittily-tat-itude, take this gil-areeno!
- **7661**: Now, where-illy where did I put my research notes? Ah, here they are...
- **7662**: ...Then it hip-hoppily-hit me--high temperature and high humidity were the missing link-eroony.
- **7663**: And after a week's time, little-bitty green fuzzy-wuzzy thingies started to materialize from nothing. Their appearance-areeno was not unlike the mold that grows on old bread...
- **7664**: The mold that grows on old bread...?
- **7753**: Ergh... Why, diddly-doodley, do you bother me? I was just chasing a white rabbit deep down into its burrow, too...
- **7754**: Ho-hoo! Are these the School of Magic's exam paper-reenos you have there-diddly-ere? Let me looky-loo... Ah, a black-whack-dackidly-dack magic test, eh? What's that-aroo? A monster-ino had them after they were stolen from the staff room-a-boom-boom?
- **7755**: So that's why they are so tattery-splat-dattery! Well, you've brought them to the right person-eroony. I can grade these and fill-a-in the teacher's results table in an instant-aroo!
- **7756**: Miss Kirarara... 100%!
- **7757**: Master Mashuu-Ajuu... 96%!
- **7758**: Miss Akkeke... 77%!
- **7759**: Master Foi-Mui... 81%!
- **7760**: Miss Koko Lihzeh... 65%!
- **7761**: Miss Rukuku... 88%!
- **7762**: Master Chomoro-Kyotoro...
- **7763**: Hmm? Oh, my-diddly-die. Master Chomoro-Kyotoro's seems to be missing-aroo.
- **7764**: My dear adventurer-ino. Can you go diddily-doddely back to the School of Magic and tell the teacher, Ms. Fuepepe, to make young Master Chomoro-Kyotoro take the test again-amain?
- **7765**: Oh, and also give-aroo Chomoro-Kyotoro this from me. Tell him he must hold-eroony on to it until he graduates from the School of Magic.
- **7766**: Off with you, now-arino. Can't you see I'm busy-a-wizzy? Oh, so biddily-boddily busy.
- **7767**: What's that-a-wat? Exam paper-inos from the School of Magic? Looks like the answer sheets to a black magic test-aroo to me.
- **7768**: If that's the case, then you should probably diddily-doddly take them to Ms. Fuepepe at the school-eroony.
- **8310**: Listen close, [Mister-arister/Miss-a-riss] Adventurer-wer-er. During the Great War twenty years ago-go, there was this Tarutaru researcher named Rasusu in Jeuno, y'know?
- **8311**: I want you to find-fiddily-ind her and tell her to return the $1 she has-a-was-waz. She'll know what you're flum-diddely talking about.
- **8312**: Then you take that $1 on over to Chumimi and tell-a-roo her you found-dillily-dood it under a rock somewhere.
- **8313**: Wowzer wowzy wow! I can't diddly-dant believe you found Rasusu! No, no, don't tell me. I don't diddly-don't want to know all the details.
- **8314**: Now all you have to do is scoot-dootily-doot over to the orchard in Heavens Tower and give that to Chumimi.
- **8317**: Hey! Hey-a-roo, you! Bring that $1 to my homely-home-ome!
- **8318**: If I'm right-a-roo, and I always am, there's no point-dointily-doint in you taking that to Chumimi.
- **8319**: This should fix the doll-doddily-do.
- **8320**: Well, your services are no longer needly-need-needed here. Why don't you go to Heavens Tower and try cheering up-a-roo-woo that worrywart Chumimi?
- **8728**: Ergh... Why, diddly-doodley, do you bother me? I was just cornering an evil wizard by the bank of a black stagnant pond...
- **8871**: ...What diddly-doodley can I do for you? You met a slam-dangly talented Tarutaru named Ildy-Goldy in Bastok, and he wants you to ask me about Uran-Mafran?
- **8872**: Not sure I can hip-helpily help you. I only remember the name-a-roonies of the cute girls who are connected with my research.
- **8873**: Uran-Mafran, Uran-Mafran... I'm sure I've heard that name around-a-doodily somewhere before.
- **8874**: Argh! I just can't remembereeno!
- **8875**: If you give me a little more time to think-dinkily-dink, you can have this. I get asked to do-a-diddy-do so many things, my brain is fit to bang-bustingly-burst!
- **8876**: ...Ergh! Just give me a little more time-a-rime. I get asked to do-a-diddy-do so many things at once, my brain is fit to bang-bustingly-burst!
- **8879**: ...Diddly-darn it! I don't get it... How do I complete this...?
- **8880**: Hmm...? Can I help you...? Right now I'm riding the train-areeno of depression into the wall of frustration.
- **8881**: At this rate, Professor Shantotto will...
- **8882**: The $3 falls to the ground and sparkles brilliantly.
- **8883**: Ah, that light!
- **8884**: ...Ah! That's it!
- **8885**: Bring me four $2! That's the key! The solution to my problem is at hand-aroony.
- **8886**: Back already? You adventurer-types know your stuff.
- **8887**: Now it's diddly-down to business. With these, I should be able to...
- **8888**: <groan>...
- **8889**: This shouldn't have...
- **8890**: Wait! I just remembered something!
- **8924**: Ildy-Goldy. Rukususu. Fuepepe. Furakku-Norakku. Sunny-Pabonny.
- **8925**: And lastly, Uran-Mafran.
- **8926**: These are the names of all the student-aroos who were in that advanced class. With all the terrible-ariffic goings-on in that generation of students, they became quite a tightly-knit bunch.
- **8927**: You must informly-form my formerly-former students of the reappearance of Uran-Mafran. Unlike me, they should remem-memberly-member who he is.
- **8950**: The power googily-gained from dip-doodily-defeating an avatar... Why would Uran-Mafran be gathering that energy?
- **8951**: I wonder if this has any connection-aroo to his sudden withdrawal-areeno from the Manustery minister position!
- **8954**: Oh, it's you. Accordily-cording to the staff at the Rhinostery, there's been an incident with one of their researcher-areenos.
- **8955**: It might be Uran-Mafran's diddily-doing. Hurry on over and see what's hap-happily-happened.
- **8956**: What the ding-daddily-doodily did you say!? Ildy-Goldy's was ensorcelled by some magicified doll, and taken away by Uran-Mafran!?
- **8957**: That slime-slamming-scoundrel! His sense of diddly-decency has completely rot-totily-totted away!
- **8960**: Rukususu!
- **8961**: What doodily-do you mean, suspicious? What did you find out?
- **8963**: Honoi-Gomoi...!? The dang-doodily-descendant of the famous Maelstrom Mage!
- **8964**: Ooooh, I've got a really bad-daddily-dad feeling about this!
- **8965**: The Manustery and the Maelstrom Mage! Uran-Mafran, you black-heart, what evil schemeroo are you half-bakingly hatching!?
- **8966**: Rukususu...adventurer...take this and go. Use it on Ildy-Goldy, and it should bash-bangingly-break whatever spell-aroo Uran-Mafran has over him.
- **8967**: Get out there and fine-diddly-find Uran-Mafran. We must prevent him from using the energy he's stored in that Mana Orb before it's too lateroo...!
- **8968**: The Manustery and the Maelstrom Mage! Uran-Mafran, you black-heart, what evil schemeroo are you half-bakingly hatching!?
- **8969**: Find Uran-Mafran! We must soop-stoopily-stop him from using the piddily-power he's accumulated...!
- **8987**: Yes. For the moment-aroo, we've foiled Uran-Mafran's ambitions, but you can be sure he won't give up that easily.
- **8995**: Few mages have fallen as far into black-broodily-darkness as Uran-Mafran.
- **8996**: He reminds me of that villain-areeno of the past, the Maelstrom Mage. Sends tingly-shivers down my spine-diddliy-hind.
- **9056**: Ergh... Why, diddly-doodley, do you bother me? I was just with a diddly-dear old buddily-buddy under a fling-dangly-full moon...
- **9057**: Oh, it's you, adventureeno. I heard from Karaha-Baruha how you play-doodily-played a major-mojo part in resurrecting the Great Beast-aroo.
- **9058**: Hrm? That's wang-diddly-weird. Karaha-Baruha's doot-doodily-deceased, isn't he? Did I dream-ify all that?
- **9059**: Well, even if it was a dazy-diddly-daydream, Karaha-Baruha wanted to thank you.
- **9060**: And he told me to goopily-give back the magicified doll I borrowed. Ahahaha!

## Events

### Event 65535

#### Metadata

| Field        | Value   |
|--------------|---------|
| Entrypoint   | 0x0000  |
| Data Size    | 1 bytes |
| Instructions | 1       |

```
      00 01 02 03 04 05 06 07  08 09 0A 0B 0C 0D 0E 0F
      -- -- -- -- -- -- -- --  -- -- -- -- -- -- -- --
0000: 00                                                .               
```

#### Opcodes

```
  0: 0x0000 [0x00] END_REQSTACK()
```

### Event 65535.1

#### Metadata

| Field        | Value    |
|--------------|----------|
| Entrypoint   | 0x0001   |
| Data Size    | 16 bytes |
| Instructions | 2        |

```
      00 01 02 03 04 05 06 07  08 09 0A 0B 0C 0D 0E 0F
      -- -- -- -- -- -- -- --  -- -- -- -- -- -- -- --
0000:    66 00 80 F8 FF FF 7F  F8 FF FF 7F 74 6C 6B 30   f..........tlk0
0010: 00                                                .               
```

#### Opcodes

```
  0: 0x0001 [0x66] LOAD_EXT_SCHEDULER_MAIN: Load scheduler "tlk0" with entities [EventEntity, EventEntity], work=40*
  1: 0x0010 [0x00] END_REQSTACK()
```

### Event 65535.2

#### Metadata

| Field        | Value    |
|--------------|----------|
| Entrypoint   | 0x0011   |
| Data Size    | 22 bytes |
| Instructions | 4        |

```
      00 01 02 03 04 05 06 07  08 09 0A 0B 0C 0D 0E 0F
      -- -- -- -- -- -- -- --  -- -- -- -- -- -- -- --
0010:    53 F8 FF FF 7F F8 FF  FF 7F 74 6C 6B 30 5E 69   S........tlk0^i
0020: 64 6C 30 1C 01 80 00                              dl0....         
```

#### Opcodes

```
  0: 0x0011 [0x53] WAIT_SCHEDULER_TASK: Wait for scheduler "tlk0" with entities [EventEntity, EventEntity]
  1: 0x001E [0x5E] EventEntity goes idle (kills current action) (animation: "idl0")
  2: 0x0023 [0x1C] WAIT(30* ticks)
  3: 0x0026 [0x00] END_REQSTACK()
```

### Event 65535.3

#### Metadata

| Field        | Value    |
|--------------|----------|
| Entrypoint   | 0x0027   |
| Data Size    | 16 bytes |
| Instructions | 2        |

```
      00 01 02 03 04 05 06 07  08 09 0A 0B 0C 0D 0E 0F
      -- -- -- -- -- -- -- --  -- -- -- -- -- -- -- --
0020:                      66  00 80 F8 FF FF 7F F8 FF         f........
0030: FF 7F 74 68 6B 31 00                              ..thk1.         
```

#### Opcodes

```
  0: 0x0027 [0x66] LOAD_EXT_SCHEDULER_MAIN: Load scheduler "thk1" with entities [EventEntity, EventEntity], work=40*
  1: 0x0036 [0x00] END_REQSTACK()
```

### Event 65535.4

#### Metadata

| Field        | Value    |
|--------------|----------|
| Entrypoint   | 0x0037   |
| Data Size    | 14 bytes |
| Instructions | 2        |

```
      00 01 02 03 04 05 06 07  08 09 0A 0B 0C 0D 0E 0F
      -- -- -- -- -- -- -- --  -- -- -- -- -- -- -- --
0030:                      53  F8 FF FF 7F F8 FF FF 7F         S........
0040: 74 68 6B 31 00                                    thk1.           
```

#### Opcodes

```
  0: 0x0037 [0x53] WAIT_SCHEDULER_TASK: Wait for scheduler "thk1" with entities [EventEntity, EventEntity]
  1: 0x0044 [0x00] END_REQSTACK()
```

### Event 65535.5

#### Metadata

| Field        | Value    |
|--------------|----------|
| Entrypoint   | 0x0045   |
| Data Size    | 16 bytes |
| Instructions | 2        |

```
      00 01 02 03 04 05 06 07  08 09 0A 0B 0C 0D 0E 0F
      -- -- -- -- -- -- -- --  -- -- -- -- -- -- -- --
0040:                66 00 80  F8 FF FF 7F F8 FF FF 7F       f..........
0050: 74 68 6B 32 00                                    thk2.           
```

#### Opcodes

```
  0: 0x0045 [0x66] LOAD_EXT_SCHEDULER_MAIN: Load scheduler "thk2" with entities [EventEntity, EventEntity], work=40*
  1: 0x0054 [0x00] END_REQSTACK()
```

### Event 65535.6

#### Metadata

| Field        | Value    |
|--------------|----------|
| Entrypoint   | 0x0055   |
| Data Size    | 14 bytes |
| Instructions | 2        |

```
      00 01 02 03 04 05 06 07  08 09 0A 0B 0C 0D 0E 0F
      -- -- -- -- -- -- -- --  -- -- -- -- -- -- -- --
0050:                53 F8 FF  FF 7F F8 FF FF 7F 74 68       S........th
0060: 6B 32 00                                          k2.             
```

#### Opcodes

```
  0: 0x0055 [0x53] WAIT_SCHEDULER_TASK: Wait for scheduler "thk2" with entities [EventEntity, EventEntity]
  1: 0x0062 [0x00] END_REQSTACK()
```

### Event 65535.7

#### Metadata

| Field        | Value    |
|--------------|----------|
| Entrypoint   | 0x0063   |
| Data Size    | 16 bytes |
| Instructions | 2        |

```
      00 01 02 03 04 05 06 07  08 09 0A 0B 0C 0D 0E 0F
      -- -- -- -- -- -- -- --  -- -- -- -- -- -- -- --
0060:          66 02 80 F8 FF  FF 7F F8 FF FF 7F 65 68     f..........eh
0070: 6E 30 00                                          n0.             
```

#### Opcodes

```
  0: 0x0063 [0x66] LOAD_EXT_SCHEDULER_MAIN: Load scheduler "ehn0" with entities [EventEntity, EventEntity], work=41*
  1: 0x0072 [0x00] END_REQSTACK()
```

### Event 65535.8

#### Metadata

| Field        | Value    |
|--------------|----------|
| Entrypoint   | 0x0073   |
| Data Size    | 22 bytes |
| Instructions | 4        |

```
      00 01 02 03 04 05 06 07  08 09 0A 0B 0C 0D 0E 0F
      -- -- -- -- -- -- -- --  -- -- -- -- -- -- -- --
0070:          53 F8 FF FF 7F  F8 FF FF 7F 65 68 6E 30     S........ehn0
0080: 5E 69 64 6C 30 1C 01 80  00                       ^idl0....       
```

#### Opcodes

```
  0: 0x0073 [0x53] WAIT_SCHEDULER_TASK: Wait for scheduler "ehn0" with entities [EventEntity, EventEntity]
  1: 0x0080 [0x5E] EventEntity goes idle (kills current action) (animation: "idl0")
  2: 0x0085 [0x1C] WAIT(30* ticks)
  3: 0x0088 [0x00] END_REQSTACK()
```

### Event 65535.9

#### Metadata

| Field        | Value    |
|--------------|----------|
| Entrypoint   | 0x0089   |
| Data Size    | 16 bytes |
| Instructions | 2        |

```
      00 01 02 03 04 05 06 07  08 09 0A 0B 0C 0D 0E 0F
      -- -- -- -- -- -- -- --  -- -- -- -- -- -- -- --
0080:                             66 00 80 F8 FF FF 7F           f......
0090: F8 FF FF 7F 67 68 6E 30  00                       ....ghn0.       
```

#### Opcodes

```
  0: 0x0089 [0x66] LOAD_EXT_SCHEDULER_MAIN: Load scheduler "ghn0" with entities [EventEntity, EventEntity], work=40*
  1: 0x0098 [0x00] END_REQSTACK()
```

### Event 65535.10

#### Metadata

| Field        | Value    |
|--------------|----------|
| Entrypoint   | 0x0099   |
| Data Size    | 14 bytes |
| Instructions | 2        |

```
      00 01 02 03 04 05 06 07  08 09 0A 0B 0C 0D 0E 0F
      -- -- -- -- -- -- -- --  -- -- -- -- -- -- -- --
0090:                             53 F8 FF FF 7F F8 FF           S......
00A0: FF 7F 67 68 6E 30 00                              ..ghn0.         
```

#### Opcodes

```
  0: 0x0099 [0x53] WAIT_SCHEDULER_TASK: Wait for scheduler "ghn0" with entities [EventEntity, EventEntity]
  1: 0x00A6 [0x00] END_REQSTACK()
```

### Event 65535.11

#### Metadata

| Field        | Value    |
|--------------|----------|
| Entrypoint   | 0x00A7   |
| Data Size    | 16 bytes |
| Instructions | 2        |

```
      00 01 02 03 04 05 06 07  08 09 0A 0B 0C 0D 0E 0F
      -- -- -- -- -- -- -- --  -- -- -- -- -- -- -- --
00A0:                      66  00 80 F8 FF FF 7F F8 FF         f........
00B0: FF 7F 77 61 76 30 00                              ..wav0.         
```

#### Opcodes

```
  0: 0x00A7 [0x66] LOAD_EXT_SCHEDULER_MAIN: Load scheduler "wav0" with entities [EventEntity, EventEntity], work=40*
  1: 0x00B6 [0x00] END_REQSTACK()
```

### Event 65535.12

#### Metadata

| Field        | Value    |
|--------------|----------|
| Entrypoint   | 0x00B7   |
| Data Size    | 14 bytes |
| Instructions | 2        |

```
      00 01 02 03 04 05 06 07  08 09 0A 0B 0C 0D 0E 0F
      -- -- -- -- -- -- -- --  -- -- -- -- -- -- -- --
00B0:                      53  F8 FF FF 7F F8 FF FF 7F         S........
00C0: 77 61 76 30 00                                    wav0.           
```

#### Opcodes

```
  0: 0x00B7 [0x53] WAIT_SCHEDULER_TASK: Wait for scheduler "wav0" with entities [EventEntity, EventEntity]
  1: 0x00C4 [0x00] END_REQSTACK()
```

### Event 65535.13

#### Metadata

| Field        | Value    |
|--------------|----------|
| Entrypoint   | 0x00C5   |
| Data Size    | 16 bytes |
| Instructions | 2        |

```
      00 01 02 03 04 05 06 07  08 09 0A 0B 0C 0D 0E 0F
      -- -- -- -- -- -- -- --  -- -- -- -- -- -- -- --
00C0:                66 00 80  F8 FF FF 7F F8 FF FF 7F       f..........
00D0: 73 79 75 30 00                                    syu0.           
```

#### Opcodes

```
  0: 0x00C5 [0x66] LOAD_EXT_SCHEDULER_MAIN: Load scheduler "syu0" with entities [EventEntity, EventEntity], work=40*
  1: 0x00D4 [0x00] END_REQSTACK()
```

### Event 65535.14

#### Metadata

| Field        | Value    |
|--------------|----------|
| Entrypoint   | 0x00D5   |
| Data Size    | 14 bytes |
| Instructions | 2        |

```
      00 01 02 03 04 05 06 07  08 09 0A 0B 0C 0D 0E 0F
      -- -- -- -- -- -- -- --  -- -- -- -- -- -- -- --
00D0:                53 F8 FF  FF 7F F8 FF FF 7F 73 79       S........sy
00E0: 75 30 00                                          u0.             
```

#### Opcodes

```
  0: 0x00D5 [0x53] WAIT_SCHEDULER_TASK: Wait for scheduler "syu0" with entities [EventEntity, EventEntity]
  1: 0x00E2 [0x00] END_REQSTACK()
```

### Event 65535.15

#### Metadata

| Field        | Value    |
|--------------|----------|
| Entrypoint   | 0x00E3   |
| Data Size    | 16 bytes |
| Instructions | 2        |

```
      00 01 02 03 04 05 06 07  08 09 0A 0B 0C 0D 0E 0F
      -- -- -- -- -- -- -- --  -- -- -- -- -- -- -- --
00E0:          66 00 80 F8 FF  FF 7F F8 FF FF 7F 69 72     f..........ir
00F0: 6F 30 00                                          o0.             
```

#### Opcodes

```
  0: 0x00E3 [0x66] LOAD_EXT_SCHEDULER_MAIN: Load scheduler "iro0" with entities [EventEntity, EventEntity], work=40*
  1: 0x00F2 [0x00] END_REQSTACK()
```

### Event 65535.16

#### Metadata

| Field        | Value    |
|--------------|----------|
| Entrypoint   | 0x00F3   |
| Data Size    | 14 bytes |
| Instructions | 2        |

```
      00 01 02 03 04 05 06 07  08 09 0A 0B 0C 0D 0E 0F
      -- -- -- -- -- -- -- --  -- -- -- -- -- -- -- --
00F0:          53 F8 FF FF 7F  F8 FF FF 7F 69 72 6F 30     S........iro0
0100: 00                                                .               
```

#### Opcodes

```
  0: 0x00F3 [0x53] WAIT_SCHEDULER_TASK: Wait for scheduler "iro0" with entities [EventEntity, EventEntity]
  1: 0x0100 [0x00] END_REQSTACK()
```

### Event 65535.17

#### Metadata

| Field        | Value    |
|--------------|----------|
| Entrypoint   | 0x0101   |
| Data Size    | 16 bytes |
| Instructions | 2        |

```
      00 01 02 03 04 05 06 07  08 09 0A 0B 0C 0D 0E 0F
      -- -- -- -- -- -- -- --  -- -- -- -- -- -- -- --
0100:    66 00 80 F8 FF FF 7F  F8 FF FF 7F 70 61 73 30   f..........pas0
0110: 00                                                .               
```

#### Opcodes

```
  0: 0x0101 [0x66] LOAD_EXT_SCHEDULER_MAIN: Load scheduler "pas0" with entities [EventEntity, EventEntity], work=40*
  1: 0x0110 [0x00] END_REQSTACK()
```

### Event 65535.18

#### Metadata

| Field        | Value    |
|--------------|----------|
| Entrypoint   | 0x0111   |
| Data Size    | 14 bytes |
| Instructions | 2        |

```
      00 01 02 03 04 05 06 07  08 09 0A 0B 0C 0D 0E 0F
      -- -- -- -- -- -- -- --  -- -- -- -- -- -- -- --
0110:    53 F8 FF FF 7F F8 FF  FF 7F 70 61 73 30 00      S........pas0. 
```

#### Opcodes

```
  0: 0x0111 [0x53] WAIT_SCHEDULER_TASK: Wait for scheduler "pas0" with entities [EventEntity, EventEntity]
  1: 0x011E [0x00] END_REQSTACK()
```

### Event 65535.19

#### Metadata

| Field        | Value    |
|--------------|----------|
| Entrypoint   | 0x011F   |
| Data Size    | 16 bytes |
| Instructions | 2        |

```
      00 01 02 03 04 05 06 07  08 09 0A 0B 0C 0D 0E 0F
      -- -- -- -- -- -- -- --  -- -- -- -- -- -- -- --
0110:                                               66                 f
0120: 00 80 F8 FF FF 7F F8 FF  FF 7F 70 6F 69 30 00     ..........poi0. 
```

#### Opcodes

```
  0: 0x011F [0x66] LOAD_EXT_SCHEDULER_MAIN: Load scheduler "poi0" with entities [EventEntity, EventEntity], work=40*
  1: 0x012E [0x00] END_REQSTACK()
```

### Event 65535.20

#### Metadata

| Field        | Value    |
|--------------|----------|
| Entrypoint   | 0x012F   |
| Data Size    | 14 bytes |
| Instructions | 2        |

```
      00 01 02 03 04 05 06 07  08 09 0A 0B 0C 0D 0E 0F
      -- -- -- -- -- -- -- --  -- -- -- -- -- -- -- --
0120:                                               53                 S
0130: F8 FF FF 7F F8 FF FF 7F  70 6F 69 30 00           ........poi0.   
```

#### Opcodes

```
  0: 0x012F [0x53] WAIT_SCHEDULER_TASK: Wait for scheduler "poi0" with entities [EventEntity, EventEntity]
  1: 0x013C [0x00] END_REQSTACK()
```

### Event 65535.21

#### Metadata

| Field        | Value    |
|--------------|----------|
| Entrypoint   | 0x013D   |
| Data Size    | 16 bytes |
| Instructions | 2        |

```
      00 01 02 03 04 05 06 07  08 09 0A 0B 0C 0D 0E 0F
      -- -- -- -- -- -- -- --  -- -- -- -- -- -- -- --
0130:                                         66 00 80               f..
0140: F8 FF FF 7F F8 FF FF 7F  7A 69 74 30 00           ........zit0.   
```

#### Opcodes

```
  0: 0x013D [0x66] LOAD_EXT_SCHEDULER_MAIN: Load scheduler "zit0" with entities [EventEntity, EventEntity], work=40*
  1: 0x014C [0x00] END_REQSTACK()
```

### Event 65535.22

#### Metadata

| Field        | Value    |
|--------------|----------|
| Entrypoint   | 0x014D   |
| Data Size    | 22 bytes |
| Instructions | 4        |

```
      00 01 02 03 04 05 06 07  08 09 0A 0B 0C 0D 0E 0F
      -- -- -- -- -- -- -- --  -- -- -- -- -- -- -- --
0140:                                         53 F8 FF               S..
0150: FF 7F F8 FF FF 7F 7A 69  74 30 5E 69 64 6C 30 1C  ......zit0^idl0.
0160: 01 80 00                                          ...             
```

#### Opcodes

```
  0: 0x014D [0x53] WAIT_SCHEDULER_TASK: Wait for scheduler "zit0" with entities [EventEntity, EventEntity]
  1: 0x015A [0x5E] EventEntity goes idle (kills current action) (animation: "idl0")
  2: 0x015F [0x1C] WAIT(30* ticks)
  3: 0x0162 [0x00] END_REQSTACK()
```

### Event 65535.23

#### Metadata

| Field        | Value    |
|--------------|----------|
| Entrypoint   | 0x0163   |
| Data Size    | 16 bytes |
| Instructions | 2        |

```
      00 01 02 03 04 05 06 07  08 09 0A 0B 0C 0D 0E 0F
      -- -- -- -- -- -- -- --  -- -- -- -- -- -- -- --
0160:          66 02 80 F8 FF  FF 7F F8 FF FF 7F 6E 6D     f..........nm
0170: 69 30 00                                          i0.             
```

#### Opcodes

```
  0: 0x0163 [0x66] LOAD_EXT_SCHEDULER_MAIN: Load scheduler "nmi0" with entities [EventEntity, EventEntity], work=41*
  1: 0x0172 [0x00] END_REQSTACK()
```

### Event 65535.24

#### Metadata

| Field        | Value    |
|--------------|----------|
| Entrypoint   | 0x0173   |
| Data Size    | 14 bytes |
| Instructions | 2        |

```
      00 01 02 03 04 05 06 07  08 09 0A 0B 0C 0D 0E 0F
      -- -- -- -- -- -- -- --  -- -- -- -- -- -- -- --
0170:          53 F8 FF FF 7F  F8 FF FF 7F 6E 6D 69 30     S........nmi0
0180: 00                                                .               
```

#### Opcodes

```
  0: 0x0173 [0x53] WAIT_SCHEDULER_TASK: Wait for scheduler "nmi0" with entities [EventEntity, EventEntity]
  1: 0x0180 [0x00] END_REQSTACK()
```

### Event 65535.25

#### Metadata

| Field        | Value    |
|--------------|----------|
| Entrypoint   | 0x0181   |
| Data Size    | 16 bytes |
| Instructions | 2        |

```
      00 01 02 03 04 05 06 07  08 09 0A 0B 0C 0D 0E 0F
      -- -- -- -- -- -- -- --  -- -- -- -- -- -- -- --
0180:    66 00 80 F8 FF FF 7F  F8 FF FF 7F 64 69 73 30   f..........dis0
0190: 00                                                .               
```

#### Opcodes

```
  0: 0x0181 [0x66] LOAD_EXT_SCHEDULER_MAIN: Load scheduler "dis0" with entities [EventEntity, EventEntity], work=40*
  1: 0x0190 [0x00] END_REQSTACK()
```

### Event 65535.26

#### Metadata

| Field        | Value    |
|--------------|----------|
| Entrypoint   | 0x0191   |
| Data Size    | 14 bytes |
| Instructions | 2        |

```
      00 01 02 03 04 05 06 07  08 09 0A 0B 0C 0D 0E 0F
      -- -- -- -- -- -- -- --  -- -- -- -- -- -- -- --
0190:    53 F8 FF FF 7F F8 FF  FF 7F 64 69 73 30 00      S........dis0. 
```

#### Opcodes

```
  0: 0x0191 [0x53] WAIT_SCHEDULER_TASK: Wait for scheduler "dis0" with entities [EventEntity, EventEntity]
  1: 0x019E [0x00] END_REQSTACK()
```

### Event 65535.27

#### Metadata

| Field        | Value    |
|--------------|----------|
| Entrypoint   | 0x019F   |
| Data Size    | 16 bytes |
| Instructions | 2        |

```
      00 01 02 03 04 05 06 07  08 09 0A 0B 0C 0D 0E 0F
      -- -- -- -- -- -- -- --  -- -- -- -- -- -- -- --
0190:                                               66                 f
01A0: 02 80 F8 FF FF 7F F8 FF  FF 7F 73 68 6B 30 00     ..........shk0. 
```

#### Opcodes

```
  0: 0x019F [0x66] LOAD_EXT_SCHEDULER_MAIN: Load scheduler "shk0" with entities [EventEntity, EventEntity], work=41*
  1: 0x01AE [0x00] END_REQSTACK()
```

### Event 65535.28

#### Metadata

| Field        | Value    |
|--------------|----------|
| Entrypoint   | 0x01AF   |
| Data Size    | 14 bytes |
| Instructions | 2        |

```
      00 01 02 03 04 05 06 07  08 09 0A 0B 0C 0D 0E 0F
      -- -- -- -- -- -- -- --  -- -- -- -- -- -- -- --
01A0:                                               53                 S
01B0: F8 FF FF 7F F8 FF FF 7F  73 68 6B 30 00           ........shk0.   
```

#### Opcodes

```
  0: 0x01AF [0x53] WAIT_SCHEDULER_TASK: Wait for scheduler "shk0" with entities [EventEntity, EventEntity]
  1: 0x01BC [0x00] END_REQSTACK()
```

### Event 65535.29

#### Metadata

| Field        | Value    |
|--------------|----------|
| Entrypoint   | 0x01BD   |
| Data Size    | 16 bytes |
| Instructions | 2        |

```
      00 01 02 03 04 05 06 07  08 09 0A 0B 0C 0D 0E 0F
      -- -- -- -- -- -- -- --  -- -- -- -- -- -- -- --
01B0:                                         66 02 80               f..
01C0: F8 FF FF 7F F8 FF FF 7F  67 6B 72 30 00           ........gkr0.   
```

#### Opcodes

```
  0: 0x01BD [0x66] LOAD_EXT_SCHEDULER_MAIN: Load scheduler "gkr0" with entities [EventEntity, EventEntity], work=41*
  1: 0x01CC [0x00] END_REQSTACK()
```

### Event 65535.30

#### Metadata

| Field        | Value    |
|--------------|----------|
| Entrypoint   | 0x01CD   |
| Data Size    | 22 bytes |
| Instructions | 4        |

```
      00 01 02 03 04 05 06 07  08 09 0A 0B 0C 0D 0E 0F
      -- -- -- -- -- -- -- --  -- -- -- -- -- -- -- --
01C0:                                         53 F8 FF               S..
01D0: FF 7F F8 FF FF 7F 67 6B  72 30 5E 69 64 6C 30 1C  ......gkr0^idl0.
01E0: 03 80 00                                          ...             
```

#### Opcodes

```
  0: 0x01CD [0x53] WAIT_SCHEDULER_TASK: Wait for scheduler "gkr0" with entities [EventEntity, EventEntity]
  1: 0x01DA [0x5E] EventEntity goes idle (kills current action) (animation: "idl0")
  2: 0x01DF [0x1C] WAIT(60* ticks)
  3: 0x01E2 [0x00] END_REQSTACK()
```

### Event 65535.31

#### Metadata

| Field        | Value    |
|--------------|----------|
| Entrypoint   | 0x01E3   |
| Data Size    | 16 bytes |
| Instructions | 2        |

```
      00 01 02 03 04 05 06 07  08 09 0A 0B 0C 0D 0E 0F
      -- -- -- -- -- -- -- --  -- -- -- -- -- -- -- --
01E0:          66 04 80 F8 FF  FF 7F F8 FF FF 7F 62 69     f..........bi
01F0: 6B 30 00                                          k0.             
```

#### Opcodes

```
  0: 0x01E3 [0x66] LOAD_EXT_SCHEDULER_MAIN: Load scheduler "bik0" with entities [EventEntity, EventEntity], work=42*
  1: 0x01F2 [0x00] END_REQSTACK()
```

### Event 65535.32

#### Metadata

| Field        | Value    |
|--------------|----------|
| Entrypoint   | 0x01F3   |
| Data Size    | 14 bytes |
| Instructions | 2        |

```
      00 01 02 03 04 05 06 07  08 09 0A 0B 0C 0D 0E 0F
      -- -- -- -- -- -- -- --  -- -- -- -- -- -- -- --
01F0:          53 F8 FF FF 7F  F8 FF FF 7F 62 69 6B 30     S........bik0
0200: 00                                                .               
```

#### Opcodes

```
  0: 0x01F3 [0x53] WAIT_SCHEDULER_TASK: Wait for scheduler "bik0" with entities [EventEntity, EventEntity]
  1: 0x0200 [0x00] END_REQSTACK()
```

### Event 65535.33

#### Metadata

| Field        | Value    |
|--------------|----------|
| Entrypoint   | 0x0201   |
| Data Size    | 27 bytes |
| Instructions | 3        |

```
      00 01 02 03 04 05 06 07  08 09 0A 0B 0C 0D 0E 0F
      -- -- -- -- -- -- -- --  -- -- -- -- -- -- -- --
0200:    2C F8 FF FF 7F F8 FF  FF 7F 63 6F 72 70 53 F8   ,........corpS.
0210: FF FF 7F F8 FF FF 7F 63  6F 72 70 00              .......corp.    
```

#### Opcodes

```
  0: 0x0201 [0x2C] CREATE_SCHEDULER_TASK: Create scheduler "corp" with entities [EventEntity, EventEntity]
  1: 0x020E [0x53] WAIT_SCHEDULER_TASK: Wait for scheduler "corp" with entities [EventEntity, EventEntity]
  2: 0x021B [0x00] END_REQSTACK()
```

### Event 65535.34

#### Metadata

| Field        | Value    |
|--------------|----------|
| Entrypoint   | 0x021C   |
| Data Size    | 64 bytes |
| Instructions | 8        |

```
      00 01 02 03 04 05 06 07  08 09 0A 0B 0C 0D 0E 0F
      -- -- -- -- -- -- -- --  -- -- -- -- -- -- -- --
0210:                                      66 00 80 F8              f...
0220: FF FF 7F F8 FF FF 7F 70  61 73 30 53 F8 FF FF 7F  .......pas0S....
0230: F8 FF FF 7F 70 61 73 30  1E F0 FF FF 7F 6F 70 66  ....pas0.....opf
0240: 00 80 F8 FF FF 7F F8 FF  FF 7F 70 61 73 30 53 F8  ..........pas0S.
0250: FF FF 7F F8 FF FF 7F 70  61 73 30 00              .......pas0.    
```

#### Opcodes

```
  0: 0x021C [0x66] LOAD_EXT_SCHEDULER_MAIN: Load scheduler "pas0" with entities [EventEntity, EventEntity], work=40*
  1: 0x022B [0x53] WAIT_SCHEDULER_TASK: Wait for scheduler "pas0" with entities [EventEntity, EventEntity]
  2: 0x0238 [0x1E] EventEntity looks at LocalPlayer and starts talking
  3: 0x023D [0x6F] WAIT_FRAME_DELAY: Yield until WaitTime reaches zero
  4: 0x023E [0x70] WAIT_ENTITY_RENDER_FLAG: Wait while EventEntity->Render.Flags3 bit 2 is set (cancel turn if not)
  5: 0x023F [0x66] LOAD_EXT_SCHEDULER_MAIN: Load scheduler "pas0" with entities [EventEntity, EventEntity], work=40*
  6: 0x024E [0x53] WAIT_SCHEDULER_TASK: Wait for scheduler "pas0" with entities [EventEntity, EventEntity]
  7: 0x025B [0x00] END_REQSTACK()
```

### Event 65535.35

#### Metadata

| Field        | Value    |
|--------------|----------|
| Entrypoint   | 0x025C   |
| Data Size    | 31 bytes |
| Instructions | 3        |

```
      00 01 02 03 04 05 06 07  08 09 0A 0B 0C 0D 0E 0F
      -- -- -- -- -- -- -- --  -- -- -- -- -- -- -- --
0250:                                      66 05 80 F8              f...
0260: FF FF 7F F8 FF FF 7F 6D  64 71 30 66 04 80 F8 FF  .......mdq0f....
0270: FF 7F F8 FF FF 7F 77 6F  6E 32 00                 ......won2.     
```

#### Opcodes

```
  0: 0x025C [0x66] LOAD_EXT_SCHEDULER_MAIN: Load scheduler "mdq0" with entities [EventEntity, EventEntity], work=46*
  1: 0x026B [0x66] LOAD_EXT_SCHEDULER_MAIN: Load scheduler "won2" with entities [EventEntity, EventEntity], work=42*
  2: 0x027A [0x00] END_REQSTACK()
```

### Event 65535.36

#### Metadata

| Field        | Value    |
|--------------|----------|
| Entrypoint   | 0x027B   |
| Data Size    | 14 bytes |
| Instructions | 2        |

```
      00 01 02 03 04 05 06 07  08 09 0A 0B 0C 0D 0E 0F
      -- -- -- -- -- -- -- --  -- -- -- -- -- -- -- --
0270:                                   53 F8 FF FF 7F             S....
0280: F8 FF FF 7F 6D 64 71 30  00                       ....mdq0.       
```

#### Opcodes

```
  0: 0x027B [0x53] WAIT_SCHEDULER_TASK: Wait for scheduler "mdq0" with entities [EventEntity, EventEntity]
  1: 0x0288 [0x00] END_REQSTACK()
```

### Event 65535.37

#### Metadata

| Field        | Value    |
|--------------|----------|
| Entrypoint   | 0x0289   |
| Data Size    | 16 bytes |
| Instructions | 2        |

```
      00 01 02 03 04 05 06 07  08 09 0A 0B 0C 0D 0E 0F
      -- -- -- -- -- -- -- --  -- -- -- -- -- -- -- --
0280:                             66 05 80 F8 FF FF 7F           f......
0290: F8 FF FF 7F 00 FE FE FE  00                       .........       
```

#### Opcodes

```
  0: 0x0289 [0x66] LOAD_EXT_SCHEDULER_MAIN: Load scheduler 0xFEFEFE00 with entities [EventEntity, EventEntity], work=46*
  1: 0x0298 [0x00] END_REQSTACK()
```

### Event 65535.38

#### Metadata

| Field        | Value    |
|--------------|----------|
| Entrypoint   | 0x0299   |
| Data Size    | 24 bytes |
| Instructions | 4        |

```
      00 01 02 03 04 05 06 07  08 09 0A 0B 0C 0D 0E 0F
      -- -- -- -- -- -- -- --  -- -- -- -- -- -- -- --
0290:                             66 04 80 F8 FF FF 7F           f......
02A0: F8 FF FF 7F 77 6F 66 32  5E 69 64 6C 30 1C 01 80  ....wof2^idl0...
02B0: 00                                                .               
```

#### Opcodes

```
  0: 0x0299 [0x66] LOAD_EXT_SCHEDULER_MAIN: Load scheduler "wof2" with entities [EventEntity, EventEntity], work=42*
  1: 0x02A8 [0x5E] EventEntity goes idle (kills current action) (animation: "idl0")
  2: 0x02AD [0x1C] WAIT(30* ticks)
  3: 0x02B0 [0x00] END_REQSTACK()
```

### Event 443

#### Metadata

| Field        | Value    |
|--------------|----------|
| Entrypoint   | 0x02B1   |
| Data Size    | 16 bytes |
| Instructions | 3        |

```
      00 01 02 03 04 05 06 07  08 09 0A 0B 0C 0D 0E 0F
      -- -- -- -- -- -- -- --  -- -- -- -- -- -- -- --
02B0:    92 01 F8 FF FF 7F 37  06 80 07 80 08 80 09 80   ......7........
02C0: 00                                                .               
```

#### Opcodes

```
  0: 0x02B1 [0x92] EventEntity->Render.Flags3 ^= 0x01
  1: 0x02B7 [0x37] UPDATE_EVENT_POSITION_AND_DIR: x=-86.465*, z=124.656*, y=-5.423*, direction=17.3*
  2: 0x02C0 [0x00] END_REQSTACK()
```

### Event 193

#### Metadata

| Field        | Value    |
|--------------|----------|
| Entrypoint   | 0x02C1   |
| Data Size    | 29 bytes |
| Instructions | 10       |

```
      00 01 02 03 04 05 06 07  08 09 0A 0B 0C 0D 0E 0F
      -- -- -- -- -- -- -- --  -- -- -- -- -- -- -- --
02C0:    1E F0 FF FF 7F 6F 70  29 08 21 F0 0E 01 17 1D   .....op).!.....
02D0: 0A 80 23 29 08 21 F0 0E  01 18 20 00 21 00        ..#).!.... .!.  
```

#### Opcodes

```
  0: 0x02C1 [0x1E] EventEntity looks at LocalPlayer and starts talking
  1: 0x02C6 [0x6F] WAIT_FRAME_DELAY: Yield until WaitTime reaches zero
  2: 0x02C7 [0x70] WAIT_ENTITY_RENDER_FLAG: Wait while EventEntity->Render.Flags3 bit 2 is set (cancel turn if not)
  3: 0x02C8 [0x29] REQ_SET_WAIT(priority=0x08, entity_id=Koru-Moru (ID: 17756193/0x010EF021), tag_num=0x17)
  4: 0x02CF [0x1D] PRINT_EVENT_MESSAGE(message_id=7530*)
     "Ergh... Why, diddly-doodley, do you bother me? I was just riding on the back of a fire dragon as she flew off into the starry night, too..."
  5: 0x02D2 [0x23] WAIT_FOR_DIALOG_INTERACTION
  6: 0x02D3 [0x29] REQ_SET_WAIT(priority=0x08, entity_id=Koru-Moru (ID: 17756193/0x010EF021), tag_num=0x18)
  7: 0x02DA [0x20] SET_CLI_EVENT_UC_FLAG: Unlock player control
  8: 0x02DC [0x21] END_EVENT
  9: 0x02DD [0x00] END_REQSTACK()
```

### Event 194

#### Metadata

| Field        | Value    |
|--------------|----------|
| Entrypoint   | 0x02DE   |
| Data Size    | 65 bytes |
| Instructions | 18       |

```
      00 01 02 03 04 05 06 07  08 09 0A 0B 0C 0D 0E 0F
      -- -- -- -- -- -- -- --  -- -- -- -- -- -- -- --
02D0:                                            1E F0                ..
02E0: FF FF 7F 6F 70 29 08 21  F0 0E 01 17 1D 0B 80 23  ...op).!.......#
02F0: 29 08 21 F0 0E 01 18 29  08 21 F0 0E 01 13 1D 0C  ).!....).!......
0300: 80 23 29 08 21 F0 0E 01  14 29 08 21 F0 0E 01 15  .#).!....).!....
0310: 1D 0D 80 23 29 08 21 F0  0E 01 16 20 00 21 00     ...#).!.... .!. 
```

#### Opcodes

```
  0: 0x02DE [0x1E] EventEntity looks at LocalPlayer and starts talking
  1: 0x02E3 [0x6F] WAIT_FRAME_DELAY: Yield until WaitTime reaches zero
  2: 0x02E4 [0x70] WAIT_ENTITY_RENDER_FLAG: Wait while EventEntity->Render.Flags3 bit 2 is set (cancel turn if not)
  3: 0x02E5 [0x29] REQ_SET_WAIT(priority=0x08, entity_id=Koru-Moru (ID: 17756193/0x010EF021), tag_num=0x17)
  4: 0x02EC [0x1D] PRINT_EVENT_MESSAGE(message_id=7531*)
     "Ergh... Why, diddly-doodley, do you bother me? I was just in mortal combat with the Shadow Lord, and about to receive a good-luck kiss from the maiden I saved, too..."
  5: 0x02EF [0x23] WAIT_FOR_DIALOG_INTERACTION
  6: 0x02F0 [0x29] REQ_SET_WAIT(priority=0x08, entity_id=Koru-Moru (ID: 17756193/0x010EF021), tag_num=0x18)
  7: 0x02F7 [0x29] REQ_SET_WAIT(priority=0x08, entity_id=Koru-Moru (ID: 17756193/0x010EF021), tag_num=0x13)
  8: 0x02FE [0x1D] PRINT_EVENT_MESSAGE(message_id=7532*)
     "...Hm? You must be the diddly-doodley one. You know, the adventurer who defeated the flan-dangle-wangled Shadow Lord. Yeah..."
  9: 0x0301 [0x23] WAIT_FOR_DIALOG_INTERACTION
 10: 0x0302 [0x29] REQ_SET_WAIT(priority=0x08, entity_id=Koru-Moru (ID: 17756193/0x010EF021), tag_num=0x14)
 11: 0x0309 [0x29] REQ_SET_WAIT(priority=0x08, entity_id=Koru-Moru (ID: 17756193/0x010EF021), tag_num=0x15)
 12: 0x0310 [0x1D] PRINT_EVENT_MESSAGE(message_id=7533*)
     "Well, damn, good for you! Actually, a super-dooper-wooper spell to X-zone the Shadow Lord for good was supposed to be my twenty-three thousand thirty-fifth study subject, but you had to diddly-duddely go ahead and defeat him before I could complete it. Argh!"
 13: 0x0313 [0x23] WAIT_FOR_DIALOG_INTERACTION
 14: 0x0314 [0x29] REQ_SET_WAIT(priority=0x08, entity_id=Koru-Moru (ID: 17756193/0x010EF021), tag_num=0x16)
 15: 0x031B [0x20] SET_CLI_EVENT_UC_FLAG: Unlock player control
 16: 0x031D [0x21] END_EVENT
 17: 0x031E [0x00] END_REQSTACK()
```

### Event 197

#### Metadata

| Field        | Value    |
|--------------|----------|
| Entrypoint   | 0x031F   |
| Data Size    | 72 bytes |
| Instructions | 17       |

```
      00 01 02 03 04 05 06 07  08 09 0A 0B 0C 0D 0E 0F
      -- -- -- -- -- -- -- --  -- -- -- -- -- -- -- --
0310:                                               1E                 .
0320: F0 FF FF 7F 6F 70 29 0B  21 F0 0E 01 2B 24 0E 80  ....op).!...+$..
0330: 0F 80 0F 80 25 02 00 10  0F 80 00 4C 03 03 01 10  ....%......L....
0340: 0F 80 29 0B 21 F0 0E 01  2E 01 63 03 02 00 10 10  ..).!.....c.....
0350: 80 00 63 03 03 01 10 10  80 29 0B 21 F0 0E 01 2D  ..c......).!...-
0360: 01 63 03 20 00 21 00                              .c. .!.         
```

#### Opcodes

```
  0: 0x031F [0x1E] EventEntity looks at LocalPlayer and starts talking
  1: 0x0324 [0x6F] WAIT_FRAME_DELAY: Yield until WaitTime reaches zero
  2: 0x0325 [0x70] WAIT_ENTITY_RENDER_FLAG: Wait while EventEntity->Render.Flags3 bit 2 is set (cancel turn if not)
  3: 0x0326 [0x29] REQ_SET_WAIT(priority=0x0B, entity_id=Koru-Moru (ID: 17756193/0x010EF021), tag_num=0x2B)
  4: 0x032D [0x24] CREATE_DIALOG(message_id=7541*, default_option=0*, option_flags=0*)
     "Agree to help? [Yes./No.]"
  5: 0x0334 [0x25] WAIT_DIALOG_SELECT()
  6: 0x0335 [0x02] IF !(Work_Zone[0] == 0*) GOTO 0x034C
  7: 0x033D [0x03] Work_Zone[1] = 0*
  8: 0x0342 [0x29] REQ_SET_WAIT(priority=0x0B, entity_id=Koru-Moru (ID: 17756193/0x010EF021), tag_num=0x2E)
  9: 0x0349 [0x01] GOTO 0x0363
 10: 0x034C [0x02] IF !(Work_Zone[0] == 1*) GOTO 0x0363
 11: 0x0354 [0x03] Work_Zone[1] = 1*
 12: 0x0359 [0x29] REQ_SET_WAIT(priority=0x0B, entity_id=Koru-Moru (ID: 17756193/0x010EF021), tag_num=0x2D)
 13: 0x0360 [0x01] GOTO 0x0363

SUBROUTINE_0363:
 14: 0x0363 [0x20] SET_CLI_EVENT_UC_FLAG: Unlock player control
 15: 0x0365 [0x21] END_EVENT
 16: 0x0366 [0x00] END_REQSTACK()
```

### Event 65535.39

#### Metadata

| Field        | Value    |
|--------------|----------|
| Entrypoint   | 0x0367   |
| Data Size    | 49 bytes |
| Instructions | 15       |

```
      00 01 02 03 04 05 06 07  08 09 0A 0B 0C 0D 0E 0F
      -- -- -- -- -- -- -- --  -- -- -- -- -- -- -- --
0360:                      29  08 21 F0 0E 01 17 1D 11         ).!......
0370: 80 23 29 08 21 F0 0E 01  18 29 08 21 F0 0E 01 01  .#).!....).!....
0380: 1D 12 80 23 1D 13 80 23  29 08 21 F0 0E 01 02 1D  ...#...#).!.....
0390: 14 80 23 1D 15 80 23 00                           ..#...#.        
```

#### Opcodes

```
  0: 0x0367 [0x29] REQ_SET_WAIT(priority=0x08, entity_id=Koru-Moru (ID: 17756193/0x010EF021), tag_num=0x17)
  1: 0x036E [0x1D] PRINT_EVENT_MESSAGE(message_id=7536*)
     "Ergh... Why, diddly-doodley, do you bother me? I was just riding on an ice dragon as she flew around a silver moon, too..."
  2: 0x0371 [0x23] WAIT_FOR_DIALOG_INTERACTION
  3: 0x0372 [0x29] REQ_SET_WAIT(priority=0x08, entity_id=Koru-Moru (ID: 17756193/0x010EF021), tag_num=0x18)
  4: 0x0379 [0x29] REQ_SET_WAIT(priority=0x08, entity_id=Koru-Moru (ID: 17756193/0x010EF021), tag_num=0x01)
  5: 0x0380 [0x1D] PRINT_EVENT_MESSAGE(message_id=7537*)
     "Hm? Wait a cotton-pickin' seconderoony. Why do you smell like my sweetie-pie pen-pal Mojiji!? Are you into wearing the same perfectareeno perfume as her?"
  6: 0x0383 [0x23] WAIT_FOR_DIALOG_INTERACTION
  7: 0x0384 [0x1D] PRINT_EVENT_MESSAGE(message_id=7538*)
     "Oh my dearily-doorily-dear! It's no time to be lost in flights of fantasy. I must finish that research as soon-a-roon as possible..."
  8: 0x0387 [0x23] WAIT_FOR_DIALOG_INTERACTION
  9: 0x0388 [0x29] REQ_SET_WAIT(priority=0x08, entity_id=Koru-Moru (ID: 17756193/0x010EF021), tag_num=0x02)
 10: 0x038F [0x1D] PRINT_EVENT_MESSAGE(message_id=7539*)
     "...Hey, you there, heidely-ho! For you to suddenly appear-aroo in front of me at this particular time-a-riner must have been the will of the stars."
 11: 0x0392 [0x23] WAIT_FOR_DIALOG_INTERACTION
 12: 0x0393 [0x1D] PRINT_EVENT_MESSAGE(message_id=7540*)
     "Quick-aroo! At the speed-a-reedero of light! You must search around Sarutabaruta and find me a rough black stone!"
 13: 0x0396 [0x23] WAIT_FOR_DIALOG_INTERACTION
 14: 0x0397 [0x00] END_REQSTACK()
```

### Event 65535.40

#### Metadata

| Field        | Value   |
|--------------|---------|
| Entrypoint   | 0x0398  |
| Data Size    | 5 bytes |
| Instructions | 3       |

```
      00 01 02 03 04 05 06 07  08 09 0A 0B 0C 0D 0E 0F
      -- -- -- -- -- -- -- --  -- -- -- -- -- -- -- --
0390:                          1D 12 80 23 00                   ...#.   
```

#### Opcodes

```
  0: 0x0398 [0x1D] PRINT_EVENT_MESSAGE(message_id=7537*)
     "Hm? Wait a cotton-pickin' seconderoony. Why do you smell like my sweetie-pie pen-pal Mojiji!? Are you into wearing the same perfectareeno perfume as her?"
  1: 0x039B [0x23] WAIT_FOR_DIALOG_INTERACTION
  2: 0x039C [0x00] END_REQSTACK()
```

### Event 65535.41

#### Metadata

| Field        | Value    |
|--------------|----------|
| Entrypoint   | 0x039D   |
| Data Size    | 29 bytes |
| Instructions | 10       |

```
      00 01 02 03 04 05 06 07  08 09 0A 0B 0C 0D 0E 0F
      -- -- -- -- -- -- -- --  -- -- -- -- -- -- -- --
0390:                                         1E F0 FF               ...
03A0: FF 7F 6F 70 29 08 21 F0  0E 01 0F 1D 16 80 23 29  ..op).!.......#)
03B0: 08 21 F0 0E 01 10 20 00  21 00                    .!.... .!.      
```

#### Opcodes

```
  0: 0x039D [0x1E] EventEntity looks at LocalPlayer and starts talking
  1: 0x03A2 [0x6F] WAIT_FRAME_DELAY: Yield until WaitTime reaches zero
  2: 0x03A3 [0x70] WAIT_ENTITY_RENDER_FLAG: Wait while EventEntity->Render.Flags3 bit 2 is set (cancel turn if not)
  3: 0x03A4 [0x29] REQ_SET_WAIT(priority=0x08, entity_id=Koru-Moru (ID: 17756193/0x010EF021), tag_num=0x0F)
  4: 0x03AB [0x1D] PRINT_EVENT_MESSAGE(message_id=7542*)
     "What!? Why, you [wanna-be warrior/warrior wanna-be/novice monk/immature mage/amateur mage/greenhorn mage/naive thief/newbie adventurer]! How dare you turn-a-rurn me down-a-roo!"
  5: 0x03AE [0x23] WAIT_FOR_DIALOG_INTERACTION
  6: 0x03AF [0x29] REQ_SET_WAIT(priority=0x08, entity_id=Koru-Moru (ID: 17756193/0x010EF021), tag_num=0x10)
  7: 0x03B6 [0x20] SET_CLI_EVENT_UC_FLAG: Unlock player control
  8: 0x03B8 [0x21] END_EVENT
  9: 0x03B9 [0x00] END_REQSTACK()
```

### Event 65535.42

#### Metadata

| Field        | Value    |
|--------------|----------|
| Entrypoint   | 0x03BA   |
| Data Size    | 29 bytes |
| Instructions | 10       |

```
      00 01 02 03 04 05 06 07  08 09 0A 0B 0C 0D 0E 0F
      -- -- -- -- -- -- -- --  -- -- -- -- -- -- -- --
03B0:                                1E F0 FF FF 7F 6F            .....o
03C0: 70 29 08 21 F0 0E 01 13  1D 17 80 23 29 08 21 F0  p).!.......#).!.
03D0: 0E 01 14 20 00 21 00                              ... .!.         
```

#### Opcodes

```
  0: 0x03BA [0x1E] EventEntity looks at LocalPlayer and starts talking
  1: 0x03BF [0x6F] WAIT_FRAME_DELAY: Yield until WaitTime reaches zero
  2: 0x03C0 [0x70] WAIT_ENTITY_RENDER_FLAG: Wait while EventEntity->Render.Flags3 bit 2 is set (cancel turn if not)
  3: 0x03C1 [0x29] REQ_SET_WAIT(priority=0x08, entity_id=Koru-Moru (ID: 17756193/0x010EF021), tag_num=0x13)
  4: 0x03C8 [0x1D] PRINT_EVENT_MESSAGE(message_id=7543*)
     "Good-o, great-o! Then hurry up and-a-get-a-going! That black stone-a-roo is the first step of my great ambition! It'll make me more famouseroony than the stars! Wahahaha!"
  5: 0x03CB [0x23] WAIT_FOR_DIALOG_INTERACTION
  6: 0x03CC [0x29] REQ_SET_WAIT(priority=0x08, entity_id=Koru-Moru (ID: 17756193/0x010EF021), tag_num=0x14)
  7: 0x03D3 [0x20] SET_CLI_EVENT_UC_FLAG: Unlock player control
  8: 0x03D5 [0x21] END_EVENT
  9: 0x03D6 [0x00] END_REQSTACK()
```

### Event 198

#### Metadata

| Field        | Value    |
|--------------|----------|
| Entrypoint   | 0x03D7   |
| Data Size    | 43 bytes |
| Instructions | 12       |

```
      00 01 02 03 04 05 06 07  08 09 0A 0B 0C 0D 0E 0F
      -- -- -- -- -- -- -- --  -- -- -- -- -- -- -- --
03D0:                      1E  F0 FF FF 7F 6F 70 29 08         .....op).
03E0: 21 F0 0E 01 03 1D 18 80  23 29 08 21 F0 0E 01 04  !.......#).!....
03F0: 29 08 21 F0 0E 01 05 29  08 21 F0 0E 01 06 20 00  ).!....).!.... .
0400: 21 00                                             !.              
```

#### Opcodes

```
  0: 0x03D7 [0x1E] EventEntity looks at LocalPlayer and starts talking
  1: 0x03DC [0x6F] WAIT_FRAME_DELAY: Yield until WaitTime reaches zero
  2: 0x03DD [0x70] WAIT_ENTITY_RENDER_FLAG: Wait while EventEntity->Render.Flags3 bit 2 is set (cancel turn if not)
  3: 0x03DE [0x29] REQ_SET_WAIT(priority=0x08, entity_id=Koru-Moru (ID: 17756193/0x010EF021), tag_num=0x03)
  4: 0x03E5 [0x1D] PRINT_EVENT_MESSAGE(message_id=7544*)
     "Say, hey, doodily-do. Hurry up and find me that "rough black stone"-aroo I'm looking for! I'm way too busy-a-whizzy with my researcheroony to search myself!"
  5: 0x03E8 [0x23] WAIT_FOR_DIALOG_INTERACTION
  6: 0x03E9 [0x29] REQ_SET_WAIT(priority=0x08, entity_id=Koru-Moru (ID: 17756193/0x010EF021), tag_num=0x04)
  7: 0x03F0 [0x29] REQ_SET_WAIT(priority=0x08, entity_id=Koru-Moru (ID: 17756193/0x010EF021), tag_num=0x05)
  8: 0x03F7 [0x29] REQ_SET_WAIT(priority=0x08, entity_id=Koru-Moru (ID: 17756193/0x010EF021), tag_num=0x06)
  9: 0x03FE [0x20] SET_CLI_EVENT_UC_FLAG: Unlock player control
 10: 0x0400 [0x21] END_EVENT
 11: 0x0401 [0x00] END_REQSTACK()
```

### Event 199

#### Metadata

| Field        | Value    |
|--------------|----------|
| Entrypoint   | 0x0402   |
| Data Size    | 34 bytes |
| Instructions | 13       |

```
      00 01 02 03 04 05 06 07  08 09 0A 0B 0C 0D 0E 0F
      -- -- -- -- -- -- -- --  -- -- -- -- -- -- -- --
0400:       42 1E F0 FF FF 7F  6F 70 29 08 21 F0 0E 01    B.....op).!...
0410: 01 1D 19 80 23 1D 1A 80  23 29 08 21 F0 0E 01 02  ....#...#).!....
0420: 20 00 21 00                                        .!.            
```

#### Opcodes

```
  0: 0x0402 [0x42] SET_CLI_EVENT_CANCEL_DATA()
  1: 0x0403 [0x1E] EventEntity looks at LocalPlayer and starts talking
  2: 0x0408 [0x6F] WAIT_FRAME_DELAY: Yield until WaitTime reaches zero
  3: 0x0409 [0x70] WAIT_ENTITY_RENDER_FLAG: Wait while EventEntity->Render.Flags3 bit 2 is set (cancel turn if not)
  4: 0x040A [0x29] REQ_SET_WAIT(priority=0x08, entity_id=Koru-Moru (ID: 17756193/0x010EF021), tag_num=0x01)
  5: 0x0411 [0x1D] PRINT_EVENT_MESSAGE(message_id=7545*)
     "Hey! Why do you have my love letter to my pen-pal sweet-eroony sweetie-pie Mojiji!?"
  6: 0x0414 [0x23] WAIT_FOR_DIALOG_INTERACTION
  7: 0x0415 [0x1D] PRINT_EVENT_MESSAGE(message_id=7546*)
     "I want it back-a-reeno! Here, I'll give you this for it, so hand it doodily-over."
  8: 0x0418 [0x23] WAIT_FOR_DIALOG_INTERACTION
  9: 0x0419 [0x29] REQ_SET_WAIT(priority=0x08, entity_id=Koru-Moru (ID: 17756193/0x010EF021), tag_num=0x02)
 10: 0x0420 [0x20] SET_CLI_EVENT_UC_FLAG: Unlock player control
 11: 0x0422 [0x21] END_EVENT
 12: 0x0423 [0x00] END_REQSTACK()
```

### Event 211

#### Metadata

| Field        | Value    |
|--------------|----------|
| Entrypoint   | 0x0424   |
| Data Size    | 46 bytes |
| Instructions | 12       |

```
      00 01 02 03 04 05 06 07  08 09 0A 0B 0C 0D 0E 0F
      -- -- -- -- -- -- -- --  -- -- -- -- -- -- -- --
0420:             42 20 01 1E  F0 FF FF 7F 6F 70 29 0B      B ......op).
0430: 21 F0 0E 01 32 29 0B 21  F0 0E 01 33 45 1B 80 F0  !...2).!...3E...
0440: FF FF 7F F0 FF FF 7F 71  73 74 63 0F 80 2E 20 00  .......qstc... .
0450: 21 00                                             !.              
```

#### Opcodes

```
  0: 0x0424 [0x42] SET_CLI_EVENT_CANCEL_DATA()
  1: 0x0425 [0x20] SET_CLI_EVENT_UC_FLAG: Lock player control
  2: 0x0427 [0x1E] EventEntity looks at LocalPlayer and starts talking
  3: 0x042C [0x6F] WAIT_FRAME_DELAY: Yield until WaitTime reaches zero
  4: 0x042D [0x70] WAIT_ENTITY_RENDER_FLAG: Wait while EventEntity->Render.Flags3 bit 2 is set (cancel turn if not)
  5: 0x042E [0x29] REQ_SET_WAIT(priority=0x0B, entity_id=Koru-Moru (ID: 17756193/0x010EF021), tag_num=0x32)
  6: 0x0435 [0x29] REQ_SET_WAIT(priority=0x0B, entity_id=Koru-Moru (ID: 17756193/0x010EF021), tag_num=0x33)
  7: 0x043C [0x45] LOAD_SCHEDULED_TASK: Load scheduler "qstc" with entities [LocalPlayer, LocalPlayer], work=[201*, 0*]
  8: 0x044D [0x2E] SET_CLI_EVENT_CANCEL_FLAGS()
  9: 0x044E [0x20] SET_CLI_EVENT_UC_FLAG: Unlock player control
 10: 0x0450 [0x21] END_EVENT
 11: 0x0451 [0x00] END_REQSTACK()
```

### Event 65535.43

#### Metadata

| Field        | Value    |
|--------------|----------|
| Entrypoint   | 0x0452   |
| Data Size    | 19 bytes |
| Instructions | 5        |

```
      00 01 02 03 04 05 06 07  08 09 0A 0B 0C 0D 0E 0F
      -- -- -- -- -- -- -- --  -- -- -- -- -- -- -- --
0450:       29 08 21 F0 0E 01  13 1D 1C 80 23 29 08 21    ).!.......#).!
0460: F0 0E 01 14 00                                    .....           
```

#### Opcodes

```
  0: 0x0452 [0x29] REQ_SET_WAIT(priority=0x08, entity_id=Koru-Moru (ID: 17756193/0x010EF021), tag_num=0x13)
  1: 0x0459 [0x1D] PRINT_EVENT_MESSAGE(message_id=7565*)
     "Oh, sweet-aroo! What's that stone-a-roney you have there?"
  2: 0x045C [0x23] WAIT_FOR_DIALOG_INTERACTION
  3: 0x045D [0x29] REQ_SET_WAIT(priority=0x08, entity_id=Koru-Moru (ID: 17756193/0x010EF021), tag_num=0x14)
  4: 0x0464 [0x00] END_REQSTACK()
```

### Event 65535.44

#### Metadata

| Field        | Value    |
|--------------|----------|
| Entrypoint   | 0x0465   |
| Data Size    | 19 bytes |
| Instructions | 5        |

```
      00 01 02 03 04 05 06 07  08 09 0A 0B 0C 0D 0E 0F
      -- -- -- -- -- -- -- --  -- -- -- -- -- -- -- --
0460:                29 08 21  F0 0E 01 07 1D 1D 80 23       ).!.......#
0470: 29 08 21 F0 0E 01 08 00                           ).!.....        
```

#### Opcodes

```
  0: 0x0465 [0x29] REQ_SET_WAIT(priority=0x08, entity_id=Koru-Moru (ID: 17756193/0x010EF021), tag_num=0x07)
  1: 0x046C [0x1D] PRINT_EVENT_MESSAGE(message_id=7566*)
     "This is flanddandildelyagily it! It truly is a gift from heaven-areeno! Oh, and here's a diddly-doodley gift from me to you-aroo..."
  2: 0x046F [0x23] WAIT_FOR_DIALOG_INTERACTION
  3: 0x0470 [0x29] REQ_SET_WAIT(priority=0x08, entity_id=Koru-Moru (ID: 17756193/0x010EF021), tag_num=0x08)
  4: 0x0477 [0x00] END_REQSTACK()
```

### Event 212

#### Metadata

| Field        | Value    |
|--------------|----------|
| Entrypoint   | 0x0478   |
| Data Size    | 50 bytes |
| Instructions | 13       |

```
      00 01 02 03 04 05 06 07  08 09 0A 0B 0C 0D 0E 0F
      -- -- -- -- -- -- -- --  -- -- -- -- -- -- -- --
0470:                          1E F0 FF FF 7F 6F 70 29          .....op)
0480: 08 21 F0 0E 01 01 1D 1E  80 23 1D 1F 80 23 29 08  .!.......#...#).
0490: 21 F0 0E 01 02 45 1B 80  F0 FF FF 7F F0 FF FF 7F  !....E..........
04A0: 71 73 74 63 0F 80 20 00  21 00                    qstc.. .!.      
```

#### Opcodes

```
  0: 0x0478 [0x1E] EventEntity looks at LocalPlayer and starts talking
  1: 0x047D [0x6F] WAIT_FRAME_DELAY: Yield until WaitTime reaches zero
  2: 0x047E [0x70] WAIT_ENTITY_RENDER_FLAG: Wait while EventEntity->Render.Flags3 bit 2 is set (cancel turn if not)
  3: 0x047F [0x29] REQ_SET_WAIT(priority=0x08, entity_id=Koru-Moru (ID: 17756193/0x010EF021), tag_num=0x01)
  4: 0x0486 [0x1D] PRINT_EVENT_MESSAGE(message_id=7567*)
     "Hold diddly on-aron...! Is this really-doodily the stone-aroo I asked you for...? There's something odd-diddly-oddly here... Hmm..."
  5: 0x0489 [0x23] WAIT_FOR_DIALOG_INTERACTION
  6: 0x048A [0x1D] PRINT_EVENT_MESSAGE(message_id=7568*)
     "Well, it diddley-doodily appears to be a stone-a-roney of some kind of strange power-a-wowser. See-o...it's made me a tinsy-weeny-bit hungry-areeno just looking at it-aroo."
  7: 0x048D [0x23] WAIT_FOR_DIALOG_INTERACTION
  8: 0x048E [0x29] REQ_SET_WAIT(priority=0x08, entity_id=Koru-Moru (ID: 17756193/0x010EF021), tag_num=0x02)
  9: 0x0495 [0x45] LOAD_SCHEDULED_TASK: Load scheduler "qstc" with entities [LocalPlayer, LocalPlayer], work=[201*, 0*]
 10: 0x04A6 [0x20] SET_CLI_EVENT_UC_FLAG: Unlock player control
 11: 0x04A8 [0x21] END_EVENT
 12: 0x04A9 [0x00] END_REQSTACK()
```

### Event 213

#### Metadata

| Field        | Value    |
|--------------|----------|
| Entrypoint   | 0x04AA   |
| Data Size    | 55 bytes |
| Instructions | 18       |

```
      00 01 02 03 04 05 06 07  08 09 0A 0B 0C 0D 0E 0F
      -- -- -- -- -- -- -- --  -- -- -- -- -- -- -- --
04A0:                                1E F0 FF FF 7F 6F            .....o
04B0: 70 29 08 21 F0 0E 01 07  1D 20 80 23 1D 21 80 23  p).!..... .#.!.#
04C0: 29 08 21 F0 0E 01 08 29  08 21 F0 0E 01 0D 1D 22  ).!....).!....."
04D0: 80 23 1D 23 80 23 29 08  21 F0 0E 01 0E 20 00 21  .#.#.#).!.... .!
04E0: 00                                                .               
```

#### Opcodes

```
  0: 0x04AA [0x1E] EventEntity looks at LocalPlayer and starts talking
  1: 0x04AF [0x6F] WAIT_FRAME_DELAY: Yield until WaitTime reaches zero
  2: 0x04B0 [0x70] WAIT_ENTITY_RENDER_FLAG: Wait while EventEntity->Render.Flags3 bit 2 is set (cancel turn if not)
  3: 0x04B1 [0x29] REQ_SET_WAIT(priority=0x08, entity_id=Koru-Moru (ID: 17756193/0x010EF021), tag_num=0x07)
  4: 0x04B8 [0x1D] PRINT_EVENT_MESSAGE(message_id=7569*)
     "Hoo-hoo-hoo-ho-hoo! I'm giddly-goodily glad you were able to fiddly-fondily find this stone-a-roney! My dufferoony students think that the reason the stars twinkle-a-winkle in the night sky-areeno is because they are made out of giant doodily-do jewels."
  5: 0x04BB [0x23] WAIT_FOR_DIALOG_INTERACTION
  6: 0x04BC [0x1D] PRINT_EVENT_MESSAGE(message_id=7570*)
     "But you uncovered-eroony the truth-areeno that was out there-a-where! As a reward-aroo, I'll share a titsy-witsy wee bit of my research with you."
  7: 0x04BF [0x23] WAIT_FOR_DIALOG_INTERACTION
  8: 0x04C0 [0x29] REQ_SET_WAIT(priority=0x08, entity_id=Koru-Moru (ID: 17756193/0x010EF021), tag_num=0x08)
  9: 0x04C7 [0x29] REQ_SET_WAIT(priority=0x08, entity_id=Koru-Moru (ID: 17756193/0x010EF021), tag_num=0x0D)
 10: 0x04CE [0x1D] PRINT_EVENT_MESSAGE(message_id=7571*)
     "Be surprised-aroo... Be very surprised-arised-areeno-roo! I believe this stone-a-roney has the power to grantily-wantily-grant a person's wishes!"
 11: 0x04D1 [0x23] WAIT_FOR_DIALOG_INTERACTION
 12: 0x04D2 [0x1D] PRINT_EVENT_MESSAGE(message_id=7572*)
     "Hoo-hoo-hoo-ho-hoo! With this stone-areeno, my diddly-daddly-dear Mojiji, I'll make you mine-aroo! Hoo-hoo-hoo-a-hoo-hoo!"
 13: 0x04D5 [0x23] WAIT_FOR_DIALOG_INTERACTION
 14: 0x04D6 [0x29] REQ_SET_WAIT(priority=0x08, entity_id=Koru-Moru (ID: 17756193/0x010EF021), tag_num=0x0E)
 15: 0x04DD [0x20] SET_CLI_EVENT_UC_FLAG: Unlock player control
 16: 0x04DF [0x21] END_EVENT
 17: 0x04E0 [0x00] END_REQSTACK()
```

### Event 214

#### Metadata

| Field        | Value    |
|--------------|----------|
| Entrypoint   | 0x04E1   |
| Data Size    | 79 bytes |
| Instructions | 18       |

```
      00 01 02 03 04 05 06 07  08 09 0A 0B 0C 0D 0E 0F
      -- -- -- -- -- -- -- --  -- -- -- -- -- -- -- --
04E0:    1E F0 FF FF 7F 6F 70  29 0B 21 F0 0E 01 37 29   .....op).!...7)
04F0: 0B 21 F0 0E 01 38 24 24  80 0F 80 0F 80 25 02 00  .!...8$$.....%..
0500: 10 0F 80 00 15 05 03 01  10 0F 80 29 0B 21 F0 0E  ...........).!..
0510: 01 3A 01 2C 05 02 00 10  10 80 00 2C 05 03 01 10  .:.,.......,....
0520: 10 80 29 0B 21 F0 0E 01  39 01 2C 05 20 00 21 00  ..).!...9.,. .!.
```

#### Opcodes

```
  0: 0x04E1 [0x1E] EventEntity looks at LocalPlayer and starts talking
  1: 0x04E6 [0x6F] WAIT_FRAME_DELAY: Yield until WaitTime reaches zero
  2: 0x04E7 [0x70] WAIT_ENTITY_RENDER_FLAG: Wait while EventEntity->Render.Flags3 bit 2 is set (cancel turn if not)
  3: 0x04E8 [0x29] REQ_SET_WAIT(priority=0x0B, entity_id=Koru-Moru (ID: 17756193/0x010EF021), tag_num=0x37)
  4: 0x04EF [0x29] REQ_SET_WAIT(priority=0x0B, entity_id=Koru-Moru (ID: 17756193/0x010EF021), tag_num=0x38)
  5: 0x04F6 [0x24] CREATE_DIALOG(message_id=7576*, default_option=0*, option_flags=0*)
     "Good at finding things? [Yes./No.]"
  6: 0x04FD [0x25] WAIT_DIALOG_SELECT()
  7: 0x04FE [0x02] IF !(Work_Zone[0] == 0*) GOTO 0x0515
  8: 0x0506 [0x03] Work_Zone[1] = 0*
  9: 0x050B [0x29] REQ_SET_WAIT(priority=0x0B, entity_id=Koru-Moru (ID: 17756193/0x010EF021), tag_num=0x3A)
 10: 0x0512 [0x01] GOTO 0x052C
 11: 0x0515 [0x02] IF !(Work_Zone[0] == 1*) GOTO 0x052C
 12: 0x051D [0x03] Work_Zone[1] = 1*
 13: 0x0522 [0x29] REQ_SET_WAIT(priority=0x0B, entity_id=Koru-Moru (ID: 17756193/0x010EF021), tag_num=0x39)
 14: 0x0529 [0x01] GOTO 0x052C

SUBROUTINE_052C:
 15: 0x052C [0x20] SET_CLI_EVENT_UC_FLAG: Unlock player control
 16: 0x052E [0x21] END_EVENT
 17: 0x052F [0x00] END_REQSTACK()
```

### Event 65535.45

#### Metadata

| Field        | Value    |
|--------------|----------|
| Entrypoint   | 0x0530   |
| Data Size    | 19 bytes |
| Instructions | 5        |

```
      00 01 02 03 04 05 06 07  08 09 0A 0B 0C 0D 0E 0F
      -- -- -- -- -- -- -- --  -- -- -- -- -- -- -- --
0530: 29 08 21 F0 0E 01 17 1D  25 80 23 29 08 21 F0 0E  ).!.....%.#).!..
0540: 01 18 00                                          ...             
```

#### Opcodes

```
  0: 0x0530 [0x29] REQ_SET_WAIT(priority=0x08, entity_id=Koru-Moru (ID: 17756193/0x010EF021), tag_num=0x17)
  1: 0x0537 [0x1D] PRINT_EVENT_MESSAGE(message_id=7573*)
     "Ergh... Why, diddly-doodley, do you bother me? I was just swimming back-aroo through the stream-areemo of time, groping for lost memories."
  2: 0x053A [0x23] WAIT_FOR_DIALOG_INTERACTION
  3: 0x053B [0x29] REQ_SET_WAIT(priority=0x08, entity_id=Koru-Moru (ID: 17756193/0x010EF021), tag_num=0x18)
  4: 0x0542 [0x00] END_REQSTACK()
```

### Event 65535.46

#### Metadata

| Field        | Value    |
|--------------|----------|
| Entrypoint   | 0x0543   |
| Data Size    | 23 bytes |
| Instructions | 7        |

```
      00 01 02 03 04 05 06 07  08 09 0A 0B 0C 0D 0E 0F
      -- -- -- -- -- -- -- --  -- -- -- -- -- -- -- --
0540:          29 08 21 F0 0E  01 01 1D 26 80 23 1D 27     ).!.....&.#.'
0550: 80 23 29 08 21 F0 0E 01  02 00                    .#).!.....      
```

#### Opcodes

```
  0: 0x0543 [0x29] REQ_SET_WAIT(priority=0x08, entity_id=Koru-Moru (ID: 17756193/0x010EF021), tag_num=0x01)
  1: 0x054A [0x1D] PRINT_EVENT_MESSAGE(message_id=7574*)
     "But, heidely-hoddily! You're coming-a-rumming here was probably a result-areeno of some chain of wiggly-woggly events I triggered in the past-aroo."
  2: 0x054D [0x23] WAIT_FOR_DIALOG_INTERACTION
  3: 0x054E [0x1D] PRINT_EVENT_MESSAGE(message_id=7575*)
     "So...are you skilled-a-willio at searching for stuff-areeno? The adventurers I meet-aroo are all supposed to be goodily-godily-good at finding a thing or two..."
  4: 0x0551 [0x23] WAIT_FOR_DIALOG_INTERACTION
  5: 0x0552 [0x29] REQ_SET_WAIT(priority=0x08, entity_id=Koru-Moru (ID: 17756193/0x010EF021), tag_num=0x02)
  6: 0x0559 [0x00] END_REQSTACK()
```

### Event 65535.47

#### Metadata

| Field        | Value    |
|--------------|----------|
| Entrypoint   | 0x055A   |
| Data Size    | 19 bytes |
| Instructions | 5        |

```
      00 01 02 03 04 05 06 07  08 09 0A 0B 0C 0D 0E 0F
      -- -- -- -- -- -- -- --  -- -- -- -- -- -- -- --
0550:                                29 08 21 F0 0E 01            ).!...
0560: 0F 1D 28 80 23 29 08 21  F0 0E 01 10 00           ..(.#).!.....   
```

#### Opcodes

```
  0: 0x055A [0x29] REQ_SET_WAIT(priority=0x08, entity_id=Koru-Moru (ID: 17756193/0x010EF021), tag_num=0x0F)
  1: 0x0561 [0x1D] PRINT_EVENT_MESSAGE(message_id=7577*)
     "Then why-oh-googilyly-eye, did you come-reeno into my place of research-aroo for?"
  2: 0x0564 [0x23] WAIT_FOR_DIALOG_INTERACTION
  3: 0x0565 [0x29] REQ_SET_WAIT(priority=0x08, entity_id=Koru-Moru (ID: 17756193/0x010EF021), tag_num=0x10)
  4: 0x056C [0x00] END_REQSTACK()
```

### Event 65535.48

#### Metadata

| Field        | Value    |
|--------------|----------|
| Entrypoint   | 0x056D   |
| Data Size    | 23 bytes |
| Instructions | 7        |

```
      00 01 02 03 04 05 06 07  08 09 0A 0B 0C 0D 0E 0F
      -- -- -- -- -- -- -- --  -- -- -- -- -- -- -- --
0560:                                         29 08 21               ).!
0570: F0 0E 01 13 1D 29 80 23  1D 2A 80 23 29 08 21 F0  .....).#.*.#).!.
0580: 0E 01 14 00                                       ....            
```

#### Opcodes

```
  0: 0x056D [0x29] REQ_SET_WAIT(priority=0x08, entity_id=Koru-Moru (ID: 17756193/0x010EF021), tag_num=0x13)
  1: 0x0574 [0x1D] PRINT_EVENT_MESSAGE(message_id=7578*)
     "Good-o! Neat-o! Now hurry up and find-a-rindo me a burnite shell!"
  2: 0x0577 [0x23] WAIT_FOR_DIALOG_INTERACTION
  3: 0x0578 [0x1D] PRINT_EVENT_MESSAGE(message_id=7579*)
     "Burnite shells are extremely large, pointy-a-rointy shell-areenos. You'll know-a-wow when you diddley-doddily find one!"
  4: 0x057B [0x23] WAIT_FOR_DIALOG_INTERACTION
  5: 0x057C [0x29] REQ_SET_WAIT(priority=0x08, entity_id=Koru-Moru (ID: 17756193/0x010EF021), tag_num=0x14)
  6: 0x0583 [0x00] END_REQSTACK()
```

### Event 215

#### Metadata

| Field        | Value    |
|--------------|----------|
| Entrypoint   | 0x0584   |
| Data Size    | 33 bytes |
| Instructions | 12       |

```
      00 01 02 03 04 05 06 07  08 09 0A 0B 0C 0D 0E 0F
      -- -- -- -- -- -- -- --  -- -- -- -- -- -- -- --
0580:             1E F0 FF FF  7F 6F 70 29 08 21 F0 0E      .....op).!..
0590: 01 01 1D 2B 80 23 1D 2C  80 23 29 08 21 F0 0E 01  ...+.#.,.#).!...
05A0: 02 20 00 21 00                                    . .!.           
```

#### Opcodes

```
  0: 0x0584 [0x1E] EventEntity looks at LocalPlayer and starts talking
  1: 0x0589 [0x6F] WAIT_FRAME_DELAY: Yield until WaitTime reaches zero
  2: 0x058A [0x70] WAIT_ENTITY_RENDER_FLAG: Wait while EventEntity->Render.Flags3 bit 2 is set (cancel turn if not)
  3: 0x058B [0x29] REQ_SET_WAIT(priority=0x08, entity_id=Koru-Moru (ID: 17756193/0x010EF021), tag_num=0x01)
  4: 0x0592 [0x1D] PRINT_EVENT_MESSAGE(message_id=7580*)
     "Hurry up and get-a-going-ing! We've got to get one before-a-wore Yoran-Oran realizes what I'm up to-aroo!"
  5: 0x0595 [0x23] WAIT_FOR_DIALOG_INTERACTION
  6: 0x0596 [0x1D] PRINT_EVENT_MESSAGE(message_id=7581*)
     "If he finds out-a-rout, then he'll never stop nagging-wagging-hagging-a-ragging me! I have no diddley-doddily time for people's chit-chat-areeno-roo!"
  7: 0x0599 [0x23] WAIT_FOR_DIALOG_INTERACTION
  8: 0x059A [0x29] REQ_SET_WAIT(priority=0x08, entity_id=Koru-Moru (ID: 17756193/0x010EF021), tag_num=0x02)
  9: 0x05A1 [0x20] SET_CLI_EVENT_UC_FLAG: Unlock player control
 10: 0x05A3 [0x21] END_EVENT
 11: 0x05A4 [0x00] END_REQSTACK()
```

### Event 216

#### Metadata

| Field        | Value    |
|--------------|----------|
| Entrypoint   | 0x05A5   |
| Data Size    | 29 bytes |
| Instructions | 10       |

```
      00 01 02 03 04 05 06 07  08 09 0A 0B 0C 0D 0E 0F
      -- -- -- -- -- -- -- --  -- -- -- -- -- -- -- --
05A0:                1E F0 FF  FF 7F 6F 70 29 08 21 F0       .....op).!.
05B0: 0E 01 0D 1D 2D 80 23 29  08 21 F0 0E 01 0E 20 00  ....-.#).!.... .
05C0: 21 00                                             !.              
```

#### Opcodes

```
  0: 0x05A5 [0x1E] EventEntity looks at LocalPlayer and starts talking
  1: 0x05AA [0x6F] WAIT_FRAME_DELAY: Yield until WaitTime reaches zero
  2: 0x05AB [0x70] WAIT_ENTITY_RENDER_FLAG: Wait while EventEntity->Render.Flags3 bit 2 is set (cancel turn if not)
  3: 0x05AC [0x29] REQ_SET_WAIT(priority=0x08, entity_id=Koru-Moru (ID: 17756193/0x010EF021), tag_num=0x0D)
  4: 0x05B3 [0x1D] PRINT_EVENT_MESSAGE(message_id=7582*)
     "Don't make a mistake-aroony! Be sure-diddly-oddily to get me a burnite shell, now! They are really big-areeno and pointy-spointy!"
  5: 0x05B6 [0x23] WAIT_FOR_DIALOG_INTERACTION
  6: 0x05B7 [0x29] REQ_SET_WAIT(priority=0x08, entity_id=Koru-Moru (ID: 17756193/0x010EF021), tag_num=0x0E)
  7: 0x05BE [0x20] SET_CLI_EVENT_UC_FLAG: Unlock player control
  8: 0x05C0 [0x21] END_EVENT
  9: 0x05C1 [0x00] END_REQSTACK()
```

### Event 224

#### Metadata

| Field        | Value    |
|--------------|----------|
| Entrypoint   | 0x05C2   |
| Data Size    | 62 bytes |
| Instructions | 14       |

```
      00 01 02 03 04 05 06 07  08 09 0A 0B 0C 0D 0E 0F
      -- -- -- -- -- -- -- --  -- -- -- -- -- -- -- --
05C0:       20 01 42 1E F0 FF  FF 7F 6F 70 29 0B 21 F0     .B.....op).!.
05D0: 0E 01 3E 29 0B 21 F0 0E  01 3F 4B 21 F0 0E 01 2E  ..>).!...?K!....
05E0: 80 1C 01 80 29 0B 21 F0  0E 01 40 45 1B 80 F0 FF  ....).!...@E....
05F0: FF 7F F0 FF FF 7F 71 73  74 63 0F 80 20 00 21 00  ......qstc.. .!.
```

#### Opcodes

```
  0: 0x05C2 [0x20] SET_CLI_EVENT_UC_FLAG: Lock player control
  1: 0x05C4 [0x42] SET_CLI_EVENT_CANCEL_DATA()
  2: 0x05C5 [0x1E] EventEntity looks at LocalPlayer and starts talking
  3: 0x05CA [0x6F] WAIT_FRAME_DELAY: Yield until WaitTime reaches zero
  4: 0x05CB [0x70] WAIT_ENTITY_RENDER_FLAG: Wait while EventEntity->Render.Flags3 bit 2 is set (cancel turn if not)
  5: 0x05CC [0x29] REQ_SET_WAIT(priority=0x0B, entity_id=Koru-Moru (ID: 17756193/0x010EF021), tag_num=0x3E)
  6: 0x05D3 [0x29] REQ_SET_WAIT(priority=0x0B, entity_id=Koru-Moru (ID: 17756193/0x010EF021), tag_num=0x3F)
  7: 0x05DA [0x4B] UPDATE_ENTITY_YAW(entity=Koru-Moru (ID: 17756193/0x010EF021), yaw=0.7*)
  8: 0x05E1 [0x1C] WAIT(30* ticks)
  9: 0x05E4 [0x29] REQ_SET_WAIT(priority=0x0B, entity_id=Koru-Moru (ID: 17756193/0x010EF021), tag_num=0x40)
 10: 0x05EB [0x45] LOAD_SCHEDULED_TASK: Load scheduler "qstc" with entities [LocalPlayer, LocalPlayer], work=[201*, 0*]
 11: 0x05FC [0x20] SET_CLI_EVENT_UC_FLAG: Unlock player control
 12: 0x05FE [0x21] END_EVENT
 13: 0x05FF [0x00] END_REQSTACK()
```

### Event 65535.49

#### Metadata

| Field        | Value    |
|--------------|----------|
| Entrypoint   | 0x0600   |
| Data Size    | 37 bytes |
| Instructions | 9        |

```
      00 01 02 03 04 05 06 07  08 09 0A 0B 0C 0D 0E 0F
      -- -- -- -- -- -- -- --  -- -- -- -- -- -- -- --
0600: 29 08 21 F0 0E 01 0D 1D  2F 80 23 29 08 21 F0 0E  ).!...../.#).!..
0610: 01 0E 29 08 21 F0 0E 01  11 1D 30 80 23 29 08 21  ..).!.....0.#).!
0620: F0 0E 01 12 00                                    .....           
```

#### Opcodes

```
  0: 0x0600 [0x29] REQ_SET_WAIT(priority=0x08, entity_id=Koru-Moru (ID: 17756193/0x010EF021), tag_num=0x0D)
  1: 0x0607 [0x1D] PRINT_EVENT_MESSAGE(message_id=7596*)
