# 17756172 - Pakke-Pokke

## Common Data

| Field            | Value                    |
|------------------|--------------------------|
| Zone             | Windurst Walls (ID: 239) |
| Block Size       | 2164 bytes               |
| Total Events     | 55                       |
| References Count | 83                       |

## List of Events

| Event ID                   | Entrypoint   |   Size |   Instructions |
|----------------------------|--------------|--------|----------------|
| [65535](#event-65535)      | 0x0000       |      1 |              1 |
| [65535.1](#event-655351)   | 0x0001       |     16 |              2 |
| [65535.2](#event-655352)   | 0x0011       |     22 |              4 |
| [65535.3](#event-655353)   | 0x0027       |     16 |              2 |
| [65535.4](#event-655354)   | 0x0037       |     14 |              2 |
| [65535.5](#event-655355)   | 0x0045       |     16 |              2 |
| [65535.6](#event-655356)   | 0x0055       |     22 |              4 |
| [65535.7](#event-655357)   | 0x006B       |     16 |              2 |
| [65535.8](#event-655358)   | 0x007B       |     14 |              2 |
| [65535.9](#event-655359)   | 0x0089       |     16 |              2 |
| [65535.10](#event-6553510) | 0x0099       |     14 |              2 |
| [65535.11](#event-6553511) | 0x00A7       |     16 |              2 |
| [65535.12](#event-6553512) | 0x00B7       |     14 |              2 |
| [65535.13](#event-6553513) | 0x00C5       |     16 |              2 |
| [65535.14](#event-6553514) | 0x00D5       |     14 |              2 |
| [65535.15](#event-6553515) | 0x00E3       |     16 |              2 |
| [65535.16](#event-6553516) | 0x00F3       |     14 |              2 |
| [65535.17](#event-6553517) | 0x0101       |      9 |              3 |
| [89](#event-89)            | 0x010A       |     29 |             10 |
| [90](#event-90)            | 0x0127       |     33 |             12 |
| [94](#event-94)            | 0x0148       |     29 |             10 |
| [96](#event-96)            | 0x0165       |      1 |              1 |
| [65535.18](#event-6553518) | 0x0166       |     15 |              5 |
| [65535.19](#event-6553519) | 0x0175       |     26 |              8 |
| [65535.20](#event-6553520) | 0x018F       |     44 |             12 |
| [101](#event-101)          | 0x01BB       |     51 |             16 |
| [104](#event-104)          | 0x01EE       |     29 |             10 |
| [109](#event-109)          | 0x020B       |     33 |             12 |
| [113](#event-113)          | 0x022C       |     33 |             12 |
| [119](#event-119)          | 0x024D       |     29 |             10 |
| [124](#event-124)          | 0x026A       |     33 |             12 |
| [129](#event-129)          | 0x028B       |     33 |             12 |
| [132](#event-132)          | 0x02AC       |     47 |             14 |
| [138](#event-138)          | 0x02DB       |     33 |             12 |
| [143](#event-143)          | 0x02FC       |     33 |             12 |
| [147](#event-147)          | 0x031D       |     33 |             12 |
| [151](#event-151)          | 0x033E       |     33 |             12 |
| [155](#event-155)          | 0x035F       |     33 |             12 |
| [159](#event-159)          | 0x0380       |     37 |             14 |
| [161](#event-161)          | 0x03A5       |     47 |             14 |
| [380](#event-380)          | 0x03D4       |     65 |             18 |
| [352](#event-352)          | 0x0415       |     33 |             12 |
| [358](#event-358)          | 0x0436       |     47 |             14 |
| [362](#event-362)          | 0x0465       |     47 |             14 |
| [367](#event-367)          | 0x0494       |     61 |             16 |
| [372](#event-372)          | 0x04D1       |     33 |             12 |
| [377](#event-377)          | 0x04F2       |     65 |             18 |
| [424](#event-424)          | 0x0533       |     65 |             18 |
| [432](#event-432)          | 0x0574       |     45 |             14 |
| [429](#event-429)          | 0x05A1       |     65 |             18 |
| [436](#event-436)          | 0x05E2       |     47 |             14 |
| [443](#event-443)          | 0x0611       |      7 |              2 |
| [65535.21](#event-6553521) | 0x0618       |     10 |              2 |
| [65535.22](#event-6553522) | 0x0622       |     14 |              4 |
| [65535.23](#event-6553523) | 0x0630       |     10 |              2 |

## DAT References (imed_data)

|   Index | Hex Value   |   Dec Value |
|---------|-------------|-------------|
|       0 | 0x0028      |          40 |
|       1 | 0x001E      |          30 |
|       2 | 0x002A      |          42 |
|       3 | 0x002D      |          45 |
|       4 | 0x1C75      |        7285 |
|       5 | 0x1C76      |        7286 |
|       6 | 0x1C77      |        7287 |
|       7 | 0x1C7C      |        7292 |
|       8 | 0x000D      |          13 |
|       9 | 0xFFFFF7BF  |  4294965183 |
|      10 | 0x1CE50     |      118352 |
|      11 | 0xFFFFC374  |  4294951796 |
|      12 | 0x1C89      |        7305 |
|      13 | 0x1C8A      |        7306 |
|      14 | 0x1C8B      |        7307 |
|      15 | 0x1C93      |        7315 |
|      16 | 0x1C94      |        7316 |
|      17 | 0x1C95      |        7317 |
|      18 | 0x1C98      |        7320 |
|      19 | 0x1CA4      |        7332 |
|      20 | 0x1CA5      |        7333 |
|      21 | 0x1CB3      |        7347 |
|      22 | 0x1CB4      |        7348 |
|      23 | 0x1CBE      |        7358 |
|      24 | 0x1CCB      |        7371 |
|      25 | 0x1CCC      |        7372 |
|      26 | 0x1CD8      |        7384 |
|      27 | 0x1CD9      |        7385 |
|      28 | 0x1CDE      |        7390 |
|      29 | 0x1CDF      |        7391 |
|      30 | 0x1CEB      |        7403 |
|      31 | 0x1CEC      |        7404 |
|      32 | 0x1CF6      |        7414 |
|      33 | 0x1CF7      |        7415 |
|      34 | 0x1CFF      |        7423 |
|      35 | 0x1D00      |        7424 |
|      36 | 0x1D06      |        7430 |
|      37 | 0x1D07      |        7431 |
|      38 | 0x1D12      |        7442 |
|      39 | 0x1D13      |        7443 |
|      40 | 0x1D1B      |        7451 |
|      41 | 0x1D1C      |        7452 |
|      42 | 0x1D1D      |        7453 |
|      43 | 0x1D20      |        7456 |
|      44 | 0x1D21      |        7457 |
|      45 | 0x2207      |        8711 |
|      46 | 0x2208      |        8712 |
|      47 | 0x2209      |        8713 |
|      48 | 0x2213      |        8723 |
|      49 | 0x2214      |        8724 |
|      50 | 0x2223      |        8739 |
|      51 | 0x2224      |        8740 |
|      52 | 0x222B      |        8747 |
|      53 | 0x222C      |        8748 |
|      54 | 0x2236      |        8758 |
|      55 | 0x2237      |        8759 |
|      56 | 0x2240      |        8768 |
|      57 | 0x2241      |        8769 |
|      58 | 0x224C      |        8780 |
|      59 | 0x224D      |        8781 |
|      60 | 0x224E      |        8782 |
|      61 | 0x232E      |        9006 |
|      62 | 0x232F      |        9007 |
|      63 | 0x2330      |        9008 |
|      64 | 0x000B      |          11 |
|      65 | 0x2335      |        9013 |
|      66 | 0x2336      |        9014 |
|      67 | 0x2348      |        9032 |
|      68 | 0x2349      |        9033 |
|      69 | 0x234A      |        9034 |
|      70 | 0x2353      |        9043 |
|      71 | 0x2354      |        9044 |
|      72 | 0xFFFF877F  |  4294936447 |
|      73 | 0x212CC     |      135884 |
|      74 | 0xFFFFC180  |  4294951296 |
|      75 | 0x069D      |        1693 |
|      76 | 0xFFFF48A1  |  4294920353 |
|      77 | 0x1EE83     |      126595 |
|      78 | 0xFFFFCB44  |  4294953796 |
|      79 | 0xFFFEB7E7  |  4294883303 |
|      80 | 0x20B99     |      134041 |
|      81 | 0xFFFFEB91  |  4294962065 |
|      82 | 0x0456      |        1110 |

## String References

- **7285**: You have some kinda business with us guards here? Then first you've gotta speak to Zokima-Rokima on the top of the steps there. He's our leader-reader!
- **7286**: A foreigner, eh? Do you have business here, or are you just a lost tourist-bourist? You're in Windurst Walls, by the way, and this is the Heavens Tower gatehouse.
- **7287**: Head west from here to go to Windurst Waters, south to go to Port Windurst, or step onto the magical blue circle-hircle at the end of the hall here to teleport inside of Heavens Tower.
- **7292**: You came to inquire about missions, huh? Then ask our guard leader-reader up there. He's certainly-mertainly a man with a mission or two.
- **7305**: Roger-dodger! Let me see... What do I have for a first rank weakling...erm, I mean, newbie wanna-be adventurer like you...
- **7306**: How about helping the Orastery to conduct a magic experiment? You might make a good guinea piggy-giggy.
- **7307**: Seems like it's going down in the eastern magical tower-zower of the Horutoto Ruins out in Sarutabaruta.
- **7315**: It's a long and higgledy-piggledy road to get the Orastery from here. First, you have to head south past the auction house and down the road that leads to Windurst Woods.
- **7316**: Then you have to pass through to the western side of Windurst Woods and head out the exit to Port Windurst. You should be able to find the building-duilding by the shore there.
- **7317**: I'm sure you're going to get totally-rotally lost, so make sure you check your map regularly, okay!?
- **7320**: Were the Horutoto Ruins as topsy-turvy confusing for you as they are for me? No matter how many times I go there, I still manage to get lost.
- **7332**: The automaton guards, known as Cardians, are the compilation of animation magic and are really-heally a remarkable invention.
- **7333**: When they are newly created, they are just like little baby-mabies. As we teach them how to speak and how to fight, they quickly grow smarter and smarter!
- **7347**: It's only natural that we need to keep patience-matience and put forth constant effort in order to be friends with the Yagudo.
- **7348**: We're talking about a pack of beastmen. Their way of thinking is totally different from us people-beople. The first and foremost thing to strive for is to understand-ermand the other party.
- **7358**: Congratulations on advancing-mancing in rank! Say, now that you mention-bention it...just how many ranks are there? I've given up hope of further promotion so have forgotten-rotten.
- **7371**: I wonder-zonder if it is really true that all of the knowledge of Windurst is stored away in the Library of Magic?
- **7372**: I've even heard-deard that a book written by the very first Star Sibyl is still preserved as new in there!
- **7384**: There are two grades of students in the School of Magic. The exceedingly brilliant children-shildren are placed in the advanced class.
- **7385**: On the other hand, the not-so-exceedingly brilliant students-dutents are placed into the beginners class. That's just the way the world works, I guess-fess...
- **7390**: I'd like a chance to try one of these large-scale missions, but I don't really think-fink I'm up to it.
- **7391**: You see, I'm the type of Tarutaru who can't sleep on a different pillow-billow, gets seasick and airsick, and is disliked by every chocobo-kookobo he comes across. I'm just not cut out to travel-ravel.
- **7403**: The Sibyl Guards are the Mithran warrior-borriors who serve the Star Sibyl.
- **7404**: They are all so serious-zerious and strong-drong and oh so cool-looking. Why, they are once...no, twice...no, thrice more fly than the other Mithra who stray about this town!
- **7414**: When I was selected to serve as a guard in front of Heavens Tower, I was over the moon-boon! Just the thought of becoming friend-priends with all those ladies-in-waiting...Hum-hmm...
- **7415**: That dream was soon shattered-splattered when mean old Zubaba cracked down on the young ladies-in-waiting going outside. It brings tears to my eyes-cries!
- **7423**: I'm not the least bit jealous-mealous! I've delivered a document with the star emblem on it to the minister-pinister of the Orastery before.
- **7424**: I can remember I was so nervous-dervous back then. I was in a cold sweat at the thought of what punishment-bunishment would await me if I lost the darned thing.
- **7430**: No matter how you look at it, you can't help but conclude something major-dajor is going down in Heavens Tower right now.
- **7431**: The head of the Sibyl Guards, Semih Lafihna, has been going-zoing in and out of here all day. My arms are tired from giving her the Windurstian salute-dalute each time she passes by.
- **7442**: Where in Vana'diel is this Fei'Yin place-blace? Huh? Way up north past-fast the Beaucedine Glacier?
- **7443**: That still doesn't tell-jell me where it is... All I can make out is that it's going to be a really cold-old place. Better pack-zack your long johns!
- **7451**: Don't you sometimes wonder whether people and beastmen can really ever understand one another-brother?
- **7452**: The Star Sibyl thought that someday we would understand-berstand one another and tried all manner of things to work to that goal, but nothing really changed.
- **7453**: I wonder-monder if it is, as they say, set in the stars? The movement of the stars never changes-shanges, does it?
- **7456**: Whether your name goes down in the history-mistory of Windurst or not doesn't matter. What you did was indeed a great deed-yeed!
- **7457**: Thank you, adventurer-henturer! Please keep using that mighty-righty power of yours for the peace of Windurst!
- **8711**: Kupipi was saying that there is no huge-luge difference between adventurers whose names go down in history, and those who are not mentioned at all-fall.
- **8712**: The only difference-mifference between them is that the adventurers whose names go down in history are the ones that remain in people's memories.
- **8713**: ...So, if it was you who we were talking about-pout, you would sorta be remembered. Vaguely.
- **8723**: Minister Ajido-Marujido has asked for you? My condolences. He really-deally bosses people around. The Ministers of the Orastery have always been meany-beanies.
- **8724**: Although with the members of the Mage Academy always on the front line of battle, I guess you gottaru be tough-rough or you couldn't cut it as the head honcho-poncho.
- **8739**: Even if he is Minister of the Orastery, Ajido-Marujido cannot be forgiven his transgressions. The word of Heavens Tower is the law of Windurst.
- **8740**: With Ajido-Marujido in the Dark Dungeon, who will become the next Minister of the Orastery? It will have to be a super-dooper wizard who can coordinate both the mighty-fighty War Warlocks and the Operations Division. ...Nobody really spring-pings to mind.
- **8747**: I havetaru clean my house, too. Adventurers have it easy, since they have moogles to look after their rooms. I'm so jealous-bealous.
- **8748**: I've heard that if adventurers put furniture in their rooms, the moogles sometimes find hidden items. Lucky-duckies!
- **8758**: Were you listening properly-doperly? You need to go ask the mission-fission details from Leepe-Hoppe on the second floor of the Rhinostery.
- **8759**: The Rhinostery probably wants you to help them with their research... They usually have their own adventurers to assist-list them though.
- **8768**: Out of the five ministries, the Aurastery issues the least mission-bissions.
- **8769**: When Professor Koru-Moru was actively performing his role as principal, there was all manner of trouble-bubbles... But these days it's been relatively quiet.
- **8780**: After the Great War twenty years ago, the Cardians started a rebellion-mellion and carried off the previous Manustery minister...
- **8781**: Following that chaos, the Manustery came to a complete standstill. Minister Apururu has worked extremely-zemely hard to get her ministry back into operation.
- **8782**: The Cardians created by the Manustery are made to act as shields for the guards. It's time we returned the favor!
- **9006**: According to the gossip-dossip of the ladies-in-waiting, Semih Lafihna has been to-ing and fro-ing all over the place trying to find information on the bearer of darkness that appeared in Heavens Tower.
- **9007**: I was standing rightaru here when all the fuss erupted, and I have no memory-zemory of letting such a creature pass into the tower. It must be some sort of ghosty-toasty...
- **9008**: You gotta hand it to those Mithra. She goes off in search of the thing when most normal people would be running in the other direction. Ghosties give me the shivers...
- **9013**: Hooray! I never thought that Minister Ajido-Marujido would be forgiven so quickly-trickly for his transgressions!
- **9014**: Were you there when he talked with the Star Sibyl? I heard that Minister Apururu said she has a lot to thank you for!
- **9032**: I heard from the ladies-in-waiting that they haven't seen the Star Sibyl around lately-dately.
- **9033**: You know, with Ajido-Marujido forgiven for his crimes and we guards going unpunished-bunished, I get the feeling that something more importantaru must be going on...
- **9034**: Maybe, just maybe... She's taking a secretaru vacation!? Hmm, not likely, huh...?
- **9043**: Lady Zubaba is being all naggy-haggy about the guards helping out with the Dark Dungeon jailbreak.
- **9044**: As soon as she has any free time on her hands, she uses it to picky-stick on other people's faults. I knew it was too good to lastaru...

## Events

### Event 65535

#### Metadata

| Field        | Value   |
|--------------|---------|
| Entrypoint   | 0x0000  |
| Data Size    | 1 bytes |
| Instructions | 1       |

```
      00 01 02 03 04 05 06 07  08 09 0A 0B 0C 0D 0E 0F
      -- -- -- -- -- -- -- --  -- -- -- -- -- -- -- --
0000: 00                                                .               
```

#### Opcodes

```
  0: 0x0000 [0x00] END_REQSTACK()
```

### Event 65535.1

#### Metadata

| Field        | Value    |
|--------------|----------|
| Entrypoint   | 0x0001   |
| Data Size    | 16 bytes |
| Instructions | 2        |

```
      00 01 02 03 04 05 06 07  08 09 0A 0B 0C 0D 0E 0F
      -- -- -- -- -- -- -- --  -- -- -- -- -- -- -- --
0000:    66 00 80 F8 FF FF 7F  F8 FF FF 7F 74 6C 6B 30   f..........tlk0
0010: 00                                                .               
```

#### Opcodes

```
  0: 0x0001 [0x66] LOAD_EXT_SCHEDULER_MAIN: Load scheduler "tlk0" with entities [EventEntity, EventEntity], work=40*
  1: 0x0010 [0x00] END_REQSTACK()
```

### Event 65535.2

#### Metadata

| Field        | Value    |
|--------------|----------|
| Entrypoint   | 0x0011   |
| Data Size    | 22 bytes |
| Instructions | 4        |

```
      00 01 02 03 04 05 06 07  08 09 0A 0B 0C 0D 0E 0F
      -- -- -- -- -- -- -- --  -- -- -- -- -- -- -- --
0010:    53 F8 FF FF 7F F8 FF  FF 7F 74 6C 6B 30 5E 69   S........tlk0^i
0020: 64 6C 30 1C 01 80 00                              dl0....         
```

#### Opcodes

```
  0: 0x0011 [0x53] WAIT_SCHEDULER_TASK: Wait for scheduler "tlk0" with entities [EventEntity, EventEntity]
  1: 0x001E [0x5E] EventEntity goes idle (kills current action) (animation: "idl0")
  2: 0x0023 [0x1C] WAIT(30* ticks)
  3: 0x0026 [0x00] END_REQSTACK()
```

### Event 65535.3

#### Metadata

| Field        | Value    |
|--------------|----------|
| Entrypoint   | 0x0027   |
| Data Size    | 16 bytes |
| Instructions | 2        |

```
      00 01 02 03 04 05 06 07  08 09 0A 0B 0C 0D 0E 0F
      -- -- -- -- -- -- -- --  -- -- -- -- -- -- -- --
0020:                      66  00 80 F8 FF FF 7F F8 FF         f........
0030: FF 7F 77 61 76 30 00                              ..wav0.         
```

#### Opcodes

```
  0: 0x0027 [0x66] LOAD_EXT_SCHEDULER_MAIN: Load scheduler "wav0" with entities [EventEntity, EventEntity], work=40*
  1: 0x0036 [0x00] END_REQSTACK()
```

### Event 65535.4

#### Metadata

| Field        | Value    |
|--------------|----------|
| Entrypoint   | 0x0037   |
| Data Size    | 14 bytes |
| Instructions | 2        |

```
      00 01 02 03 04 05 06 07  08 09 0A 0B 0C 0D 0E 0F
      -- -- -- -- -- -- -- --  -- -- -- -- -- -- -- --
0030:                      53  F8 FF FF 7F F8 FF FF 7F         S........
0040: 77 61 76 30 00                                    wav0.           
```

#### Opcodes

```
  0: 0x0037 [0x53] WAIT_SCHEDULER_TASK: Wait for scheduler "wav0" with entities [EventEntity, EventEntity]
  1: 0x0044 [0x00] END_REQSTACK()
```

### Event 65535.5

#### Metadata

| Field        | Value    |
|--------------|----------|
| Entrypoint   | 0x0045   |
| Data Size    | 16 bytes |
| Instructions | 2        |

```
      00 01 02 03 04 05 06 07  08 09 0A 0B 0C 0D 0E 0F
      -- -- -- -- -- -- -- --  -- -- -- -- -- -- -- --
0040:                66 02 80  F8 FF FF 7F F8 FF FF 7F       f..........
0050: 62 69 6B 30 00                                    bik0.           
```

#### Opcodes

```
  0: 0x0045 [0x66] LOAD_EXT_SCHEDULER_MAIN: Load scheduler "bik0" with entities [EventEntity, EventEntity], work=42*
  1: 0x0054 [0x00] END_REQSTACK()
```

### Event 65535.6

#### Metadata

| Field        | Value    |
|--------------|----------|
| Entrypoint   | 0x0055   |
| Data Size    | 22 bytes |
| Instructions | 4        |

```
      00 01 02 03 04 05 06 07  08 09 0A 0B 0C 0D 0E 0F
      -- -- -- -- -- -- -- --  -- -- -- -- -- -- -- --
0050:                53 F8 FF  FF 7F F8 FF FF 7F 62 69       S........bi
0060: 6B 30 5E 69 64 6C 30 1C  01 80 00                 k0^idl0....     
```

#### Opcodes

```
  0: 0x0055 [0x53] WAIT_SCHEDULER_TASK: Wait for scheduler "bik0" with entities [EventEntity, EventEntity]
  1: 0x0062 [0x5E] EventEntity goes idle (kills current action) (animation: "idl0")
  2: 0x0067 [0x1C] WAIT(30* ticks)
  3: 0x006A [0x00] END_REQSTACK()
```

### Event 65535.7

#### Metadata

| Field        | Value    |
|--------------|----------|
| Entrypoint   | 0x006B   |
| Data Size    | 16 bytes |
| Instructions | 2        |

```
      00 01 02 03 04 05 06 07  08 09 0A 0B 0C 0D 0E 0F
      -- -- -- -- -- -- -- --  -- -- -- -- -- -- -- --
0060:                                   66 00 80 F8 FF             f....
0070: FF 7F F8 FF FF 7F 74 68  6B 31 00                 ......thk1.     
```

#### Opcodes

```
  0: 0x006B [0x66] LOAD_EXT_SCHEDULER_MAIN: Load scheduler "thk1" with entities [EventEntity, EventEntity], work=40*
  1: 0x007A [0x00] END_REQSTACK()
```

### Event 65535.8

#### Metadata

| Field        | Value    |
|--------------|----------|
| Entrypoint   | 0x007B   |
| Data Size    | 14 bytes |
| Instructions | 2        |

```
      00 01 02 03 04 05 06 07  08 09 0A 0B 0C 0D 0E 0F
      -- -- -- -- -- -- -- --  -- -- -- -- -- -- -- --
0070:                                   53 F8 FF FF 7F             S....
0080: F8 FF FF 7F 74 68 6B 31  00                       ....thk1.       
```

#### Opcodes

```
  0: 0x007B [0x53] WAIT_SCHEDULER_TASK: Wait for scheduler "thk1" with entities [EventEntity, EventEntity]
  1: 0x0088 [0x00] END_REQSTACK()
```

### Event 65535.9

#### Metadata

| Field        | Value    |
|--------------|----------|
| Entrypoint   | 0x0089   |
| Data Size    | 16 bytes |
| Instructions | 2        |

```
      00 01 02 03 04 05 06 07  08 09 0A 0B 0C 0D 0E 0F
      -- -- -- -- -- -- -- --  -- -- -- -- -- -- -- --
0080:                             66 00 80 F8 FF FF 7F           f......
0090: F8 FF FF 7F 74 68 6B 32  00                       ....thk2.       
```

#### Opcodes

```
  0: 0x0089 [0x66] LOAD_EXT_SCHEDULER_MAIN: Load scheduler "thk2" with entities [EventEntity, EventEntity], work=40*
  1: 0x0098 [0x00] END_REQSTACK()
```

### Event 65535.10

#### Metadata

| Field        | Value    |
|--------------|----------|
| Entrypoint   | 0x0099   |
| Data Size    | 14 bytes |
| Instructions | 2        |

```
      00 01 02 03 04 05 06 07  08 09 0A 0B 0C 0D 0E 0F
      -- -- -- -- -- -- -- --  -- -- -- -- -- -- -- --
0090:                             53 F8 FF FF 7F F8 FF           S......
00A0: FF 7F 74 68 6B 32 00                              ..thk2.         
```

#### Opcodes

```
  0: 0x0099 [0x53] WAIT_SCHEDULER_TASK: Wait for scheduler "thk2" with entities [EventEntity, EventEntity]
  1: 0x00A6 [0x00] END_REQSTACK()
```

### Event 65535.11

#### Metadata

| Field        | Value    |
|--------------|----------|
| Entrypoint   | 0x00A7   |
| Data Size    | 16 bytes |
| Instructions | 2        |

```
      00 01 02 03 04 05 06 07  08 09 0A 0B 0C 0D 0E 0F
      -- -- -- -- -- -- -- --  -- -- -- -- -- -- -- --
00A0:                      66  03 80 F8 FF FF 7F F8 FF         f........
00B0: FF 7F 73 6C 33 30 00                              ..sl30.         
```

#### Opcodes

```
  0: 0x00A7 [0x66] LOAD_EXT_SCHEDULER_MAIN: Load scheduler "sl30" with entities [EventEntity, EventEntity], work=45*
  1: 0x00B6 [0x00] END_REQSTACK()
```

### Event 65535.12

#### Metadata

| Field        | Value    |
|--------------|----------|
| Entrypoint   | 0x00B7   |
| Data Size    | 14 bytes |
| Instructions | 2        |

```
      00 01 02 03 04 05 06 07  08 09 0A 0B 0C 0D 0E 0F
      -- -- -- -- -- -- -- --  -- -- -- -- -- -- -- --
00B0:                      53  F8 FF FF 7F F8 FF FF 7F         S........
00C0: 73 6C 33 30 00                                    sl30.           
```

#### Opcodes

```
  0: 0x00B7 [0x53] WAIT_SCHEDULER_TASK: Wait for scheduler "sl30" with entities [EventEntity, EventEntity]
  1: 0x00C4 [0x00] END_REQSTACK()
```

### Event 65535.13

#### Metadata

| Field        | Value    |
|--------------|----------|
| Entrypoint   | 0x00C5   |
| Data Size    | 16 bytes |
| Instructions | 2        |

```
      00 01 02 03 04 05 06 07  08 09 0A 0B 0C 0D 0E 0F
      -- -- -- -- -- -- -- --  -- -- -- -- -- -- -- --
00C0:                66 00 80  F8 FF FF 7F F8 FF FF 7F       f..........
00D0: 64 69 73 30 00                                    dis0.           
```

#### Opcodes

```
  0: 0x00C5 [0x66] LOAD_EXT_SCHEDULER_MAIN: Load scheduler "dis0" with entities [EventEntity, EventEntity], work=40*
  1: 0x00D4 [0x00] END_REQSTACK()
```

### Event 65535.14

#### Metadata

| Field        | Value    |
|--------------|----------|
| Entrypoint   | 0x00D5   |
| Data Size    | 14 bytes |
| Instructions | 2        |

```
      00 01 02 03 04 05 06 07  08 09 0A 0B 0C 0D 0E 0F
      -- -- -- -- -- -- -- --  -- -- -- -- -- -- -- --
00D0:                53 F8 FF  FF 7F F8 FF FF 7F 64 69       S........di
00E0: 73 30 00                                          s0.             
```

#### Opcodes

```
  0: 0x00D5 [0x53] WAIT_SCHEDULER_TASK: Wait for scheduler "dis0" with entities [EventEntity, EventEntity]
  1: 0x00E2 [0x00] END_REQSTACK()
```

### Event 65535.15

#### Metadata

| Field        | Value    |
|--------------|----------|
| Entrypoint   | 0x00E3   |
| Data Size    | 16 bytes |
| Instructions | 2        |

```
      00 01 02 03 04 05 06 07  08 09 0A 0B 0C 0D 0E 0F
      -- -- -- -- -- -- -- --  -- -- -- -- -- -- -- --
00E0:          66 00 80 F8 FF  FF 7F F8 FF FF 7F 69 72     f..........ir
00F0: 6F 30 00                                          o0.             
```

#### Opcodes

```
  0: 0x00E3 [0x66] LOAD_EXT_SCHEDULER_MAIN: Load scheduler "iro0" with entities [EventEntity, EventEntity], work=40*
  1: 0x00F2 [0x00] END_REQSTACK()
```

### Event 65535.16

#### Metadata

| Field        | Value    |
|--------------|----------|
| Entrypoint   | 0x00F3   |
| Data Size    | 14 bytes |
| Instructions | 2        |

```
      00 01 02 03 04 05 06 07  08 09 0A 0B 0C 0D 0E 0F
      -- -- -- -- -- -- -- --  -- -- -- -- -- -- -- --
00F0:          53 F8 FF FF 7F  F8 FF FF 7F 69 72 6F 30     S........iro0
0100: 00                                                .               
```

#### Opcodes

```
  0: 0x00F3 [0x53] WAIT_SCHEDULER_TASK: Wait for scheduler "iro0" with entities [EventEntity, EventEntity]
  1: 0x0100 [0x00] END_REQSTACK()
```

### Event 65535.17

#### Metadata

| Field        | Value   |
|--------------|---------|
| Entrypoint   | 0x0101  |
| Data Size    | 9 bytes |
| Instructions | 3       |

```
      00 01 02 03 04 05 06 07  08 09 0A 0B 0C 0D 0E 0F
      -- -- -- -- -- -- -- --  -- -- -- -- -- -- -- --
0100:    5E 69 64 6C 30 1C 01  80 00                     ^idl0....      
```

#### Opcodes

```
  0: 0x0101 [0x5E] EventEntity goes idle (kills current action) (animation: "idl0")
  1: 0x0106 [0x1C] WAIT(30* ticks)
  2: 0x0109 [0x00] END_REQSTACK()
```

### Event 89

#### Metadata

| Field        | Value    |
|--------------|----------|
| Entrypoint   | 0x010A   |
| Data Size    | 29 bytes |
| Instructions | 10       |

```
      00 01 02 03 04 05 06 07  08 09 0A 0B 0C 0D 0E 0F
      -- -- -- -- -- -- -- --  -- -- -- -- -- -- -- --
0100:                                1E F0 FF FF 7F 6F            .....o
0110: 70 29 08 0C F0 0E 01 01  1D 04 80 23 29 08 0C F0  p).........#)...
0120: 0E 01 02 20 00 21 00                              ... .!.         
```

#### Opcodes

```
  0: 0x010A [0x1E] EventEntity looks at LocalPlayer and starts talking
  1: 0x010F [0x6F] WAIT_FRAME_DELAY: Yield until WaitTime reaches zero
  2: 0x0110 [0x70] WAIT_ENTITY_RENDER_FLAG: Wait while EventEntity->Render.Flags3 bit 2 is set (cancel turn if not)
  3: 0x0111 [0x29] REQ_SET_WAIT(priority=0x08, entity_id=Pakke-Pokke (ID: 17756172/0x010EF00C), tag_num=0x01)
  4: 0x0118 [0x1D] PRINT_EVENT_MESSAGE(message_id=7285*)
    → "You have some kinda business with us guards here? Then first you've gotta speak to Zokima-Rokima on the top of the steps there. He's our leader-reader!"
  5: 0x011B [0x23] WAIT_FOR_DIALOG_INTERACTION
  6: 0x011C [0x29] REQ_SET_WAIT(priority=0x08, entity_id=Pakke-Pokke (ID: 17756172/0x010EF00C), tag_num=0x02)
  7: 0x0123 [0x20] SET_CLI_EVENT_UC_FLAG: Unlock player control
  8: 0x0125 [0x21] END_EVENT
  9: 0x0126 [0x00] END_REQSTACK()
```

### Event 90

#### Metadata

| Field        | Value    |
|--------------|----------|
| Entrypoint   | 0x0127   |
| Data Size    | 33 bytes |
| Instructions | 12       |

```
      00 01 02 03 04 05 06 07  08 09 0A 0B 0C 0D 0E 0F
      -- -- -- -- -- -- -- --  -- -- -- -- -- -- -- --
0120:                      1E  F0 FF FF 7F 6F 70 29 08         .....op).
0130: 0C F0 0E 01 01 1D 05 80  23 1D 06 80 23 29 08 0C  ........#...#)..
0140: F0 0E 01 02 20 00 21 00                           .... .!.        
```

#### Opcodes

```
  0: 0x0127 [0x1E] EventEntity looks at LocalPlayer and starts talking
  1: 0x012C [0x6F] WAIT_FRAME_DELAY: Yield until WaitTime reaches zero
  2: 0x012D [0x70] WAIT_ENTITY_RENDER_FLAG: Wait while EventEntity->Render.Flags3 bit 2 is set (cancel turn if not)
  3: 0x012E [0x29] REQ_SET_WAIT(priority=0x08, entity_id=Pakke-Pokke (ID: 17756172/0x010EF00C), tag_num=0x01)
  4: 0x0135 [0x1D] PRINT_EVENT_MESSAGE(message_id=7286*)
    → "A foreigner, eh? Do you have business here, or are you just a lost tourist-bourist? You're in Windurst Walls, by the way, and this is the Heavens Tower gatehouse."
  5: 0x0138 [0x23] WAIT_FOR_DIALOG_INTERACTION
  6: 0x0139 [0x1D] PRINT_EVENT_MESSAGE(message_id=7287*)
    → "Head west from here to go to Windurst Waters, south to go to Port Windurst, or step onto the magical blue circle-hircle at the end of the hall here to teleport inside of Heavens Tower."
  7: 0x013C [0x23] WAIT_FOR_DIALOG_INTERACTION
  8: 0x013D [0x29] REQ_SET_WAIT(priority=0x08, entity_id=Pakke-Pokke (ID: 17756172/0x010EF00C), tag_num=0x02)
  9: 0x0144 [0x20] SET_CLI_EVENT_UC_FLAG: Unlock player control
 10: 0x0146 [0x21] END_EVENT
 11: 0x0147 [0x00] END_REQSTACK()
```

### Event 94

#### Metadata

| Field        | Value    |
|--------------|----------|
| Entrypoint   | 0x0148   |
| Data Size    | 29 bytes |
| Instructions | 10       |

```
      00 01 02 03 04 05 06 07  08 09 0A 0B 0C 0D 0E 0F
      -- -- -- -- -- -- -- --  -- -- -- -- -- -- -- --
0140:                          1E F0 FF FF 7F 6F 70 29          .....op)
0150: 08 0C F0 0E 01 01 1D 07  80 23 29 08 0C F0 0E 01  .........#).....
0160: 02 20 00 21 00                                    . .!.           
```

#### Opcodes

```
  0: 0x0148 [0x1E] EventEntity looks at LocalPlayer and starts talking
  1: 0x014D [0x6F] WAIT_FRAME_DELAY: Yield until WaitTime reaches zero
  2: 0x014E [0x70] WAIT_ENTITY_RENDER_FLAG: Wait while EventEntity->Render.Flags3 bit 2 is set (cancel turn if not)
  3: 0x014F [0x29] REQ_SET_WAIT(priority=0x08, entity_id=Pakke-Pokke (ID: 17756172/0x010EF00C), tag_num=0x01)
  4: 0x0156 [0x1D] PRINT_EVENT_MESSAGE(message_id=7292*)
    → "You came to inquire about missions, huh? Then ask our guard leader-reader up there. He's certainly-mertainly a man with a mission or two."
  5: 0x0159 [0x23] WAIT_FOR_DIALOG_INTERACTION
  6: 0x015A [0x29] REQ_SET_WAIT(priority=0x08, entity_id=Pakke-Pokke (ID: 17756172/0x010EF00C), tag_num=0x02)
  7: 0x0161 [0x20] SET_CLI_EVENT_UC_FLAG: Unlock player control
  8: 0x0163 [0x21] END_EVENT
  9: 0x0164 [0x00] END_REQSTACK()
```

### Event 96

#### Metadata

| Field        | Value   |
|--------------|---------|
| Entrypoint   | 0x0165  |
| Data Size    | 1 bytes |
| Instructions | 1       |

```
      00 01 02 03 04 05 06 07  08 09 0A 0B 0C 0D 0E 0F
      -- -- -- -- -- -- -- --  -- -- -- -- -- -- -- --
0160:                00                                      .          
```

#### Opcodes

```
  0: 0x0165 [0x00] END_REQSTACK()
```

### Event 65535.18

#### Metadata

| Field        | Value    |
|--------------|----------|
| Entrypoint   | 0x0166   |
| Data Size    | 15 bytes |
| Instructions | 5        |

```
      00 01 02 03 04 05 06 07  08 09 0A 0B 0C 0D 0E 0F
      -- -- -- -- -- -- -- --  -- -- -- -- -- -- -- --
0160:                   32 08  80 1F 00 09 80 0A 80 0B        2.........
0170: 80 1F 01 6F 00                                    ...o.           
```

#### Opcodes

```
  0: 0x0166 [0x32] ExtData[1]->MainSpeed = 13* * 0.1
  1: 0x0169 [0x1F] MOVE_ENTITY: EventEntity moves to X=-2.113*, Z=118.352*, Y=-15.500*
  2: 0x0171 [0x1F] MOVE_ENTITY: Update entity position (mode=1)
  3: 0x0173 [0x6F] WAIT_FRAME_DELAY: Yield until WaitTime reaches zero
  4: 0x0174 [0x00] END_REQSTACK()
```

### Event 65535.19

#### Metadata

| Field        | Value    |
|--------------|----------|
| Entrypoint   | 0x0175   |
| Data Size    | 26 bytes |
| Instructions | 8        |

```
      00 01 02 03 04 05 06 07  08 09 0A 0B 0C 0D 0E 0F
      -- -- -- -- -- -- -- --  -- -- -- -- -- -- -- --
0170:                1E F0 FF  FF 7F 6F 70 29 08 0C F0       .....op)...
0180: 0E 01 07 1D 0C 80 23 29  08 0C F0 0E 01 08 00     ......#)....... 
```

#### Opcodes

```
  0: 0x0175 [0x1E] EventEntity looks at LocalPlayer and starts talking
  1: 0x017A [0x6F] WAIT_FRAME_DELAY: Yield until WaitTime reaches zero
  2: 0x017B [0x70] WAIT_ENTITY_RENDER_FLAG: Wait while EventEntity->Render.Flags3 bit 2 is set (cancel turn if not)
  3: 0x017C [0x29] REQ_SET_WAIT(priority=0x08, entity_id=Pakke-Pokke (ID: 17756172/0x010EF00C), tag_num=0x07)
  4: 0x0183 [0x1D] PRINT_EVENT_MESSAGE(message_id=7305*)
    → "Roger-dodger! Let me see... What do I have for a first rank weakling...erm, I mean, newbie wanna-be adventurer like you..."
  5: 0x0186 [0x23] WAIT_FOR_DIALOG_INTERACTION
  6: 0x0187 [0x29] REQ_SET_WAIT(priority=0x08, entity_id=Pakke-Pokke (ID: 17756172/0x010EF00C), tag_num=0x08)
  7: 0x018E [0x00] END_REQSTACK()
```

### Event 65535.20

#### Metadata

| Field        | Value    |
|--------------|----------|
| Entrypoint   | 0x018F   |
| Data Size    | 44 bytes |
| Instructions | 12       |

```
      00 01 02 03 04 05 06 07  08 09 0A 0B 0C 0D 0E 0F
      -- -- -- -- -- -- -- --  -- -- -- -- -- -- -- --
0180:                                               1E                 .
0190: F0 FF FF 7F 6F 70 29 08  0C F0 0E 01 09 1D 0D 80  ....op).........
01A0: 23 29 08 0C F0 0E 01 0A  29 08 0C F0 0E 01 01 1D  #)......).......
01B0: 0E 80 23 29 08 0C F0 0E  01 02 00                 ..#).......     
```

#### Opcodes

```
  0: 0x018F [0x1E] EventEntity looks at LocalPlayer and starts talking
  1: 0x0194 [0x6F] WAIT_FRAME_DELAY: Yield until WaitTime reaches zero
  2: 0x0195 [0x70] WAIT_ENTITY_RENDER_FLAG: Wait while EventEntity->Render.Flags3 bit 2 is set (cancel turn if not)
  3: 0x0196 [0x29] REQ_SET_WAIT(priority=0x08, entity_id=Pakke-Pokke (ID: 17756172/0x010EF00C), tag_num=0x09)
  4: 0x019D [0x1D] PRINT_EVENT_MESSAGE(message_id=7306*)
    → "How about helping the Orastery to conduct a magic experiment? You might make a good guinea piggy-giggy."
  5: 0x01A0 [0x23] WAIT_FOR_DIALOG_INTERACTION
  6: 0x01A1 [0x29] REQ_SET_WAIT(priority=0x08, entity_id=Pakke-Pokke (ID: 17756172/0x010EF00C), tag_num=0x0A)
  7: 0x01A8 [0x29] REQ_SET_WAIT(priority=0x08, entity_id=Pakke-Pokke (ID: 17756172/0x010EF00C), tag_num=0x01)
  8: 0x01AF [0x1D] PRINT_EVENT_MESSAGE(message_id=7307*)
    → "Seems like it's going down in the eastern magical tower-zower of the Horutoto Ruins out in Sarutabaruta."
  9: 0x01B2 [0x23] WAIT_FOR_DIALOG_INTERACTION
 10: 0x01B3 [0x29] REQ_SET_WAIT(priority=0x08, entity_id=Pakke-Pokke (ID: 17756172/0x010EF00C), tag_num=0x02)
 11: 0x01BA [0x00] END_REQSTACK()
```

### Event 101

#### Metadata

| Field        | Value    |
|--------------|----------|
| Entrypoint   | 0x01BB   |
| Data Size    | 51 bytes |
| Instructions | 16       |

```
      00 01 02 03 04 05 06 07  08 09 0A 0B 0C 0D 0E 0F
      -- -- -- -- -- -- -- --  -- -- -- -- -- -- -- --
01B0:                                   1E F0 FF FF 7F             .....
01C0: 6F 70 29 08 0C F0 0E 01  07 1D 0F 80 23 1D 10 80  op).........#...
01D0: 23 29 08 0C F0 0E 01 08  29 08 0C F0 0E 01 09 1D  #)......).......
01E0: 11 80 23 29 08 0C F0 0E  01 0A 20 00 21 00        ..#)...... .!.  
```

#### Opcodes

```
  0: 0x01BB [0x1E] EventEntity looks at LocalPlayer and starts talking
  1: 0x01C0 [0x6F] WAIT_FRAME_DELAY: Yield until WaitTime reaches zero
  2: 0x01C1 [0x70] WAIT_ENTITY_RENDER_FLAG: Wait while EventEntity->Render.Flags3 bit 2 is set (cancel turn if not)
  3: 0x01C2 [0x29] REQ_SET_WAIT(priority=0x08, entity_id=Pakke-Pokke (ID: 17756172/0x010EF00C), tag_num=0x07)
  4: 0x01C9 [0x1D] PRINT_EVENT_MESSAGE(message_id=7315*)
    → "It's a long and higgledy-piggledy road to get the Orastery from here. First, you have to head south past the auction house and down the road that leads to Windurst Woods."
  5: 0x01CC [0x23] WAIT_FOR_DIALOG_INTERACTION
  6: 0x01CD [0x1D] PRINT_EVENT_MESSAGE(message_id=7316*)
    → "Then you have to pass through to the western side of Windurst Woods and head out the exit to Port Windurst. You should be able to find the building-duilding by the shore there."
  7: 0x01D0 [0x23] WAIT_FOR_DIALOG_INTERACTION
  8: 0x01D1 [0x29] REQ_SET_WAIT(priority=0x08, entity_id=Pakke-Pokke (ID: 17756172/0x010EF00C), tag_num=0x08)
  9: 0x01D8 [0x29] REQ_SET_WAIT(priority=0x08, entity_id=Pakke-Pokke (ID: 17756172/0x010EF00C), tag_num=0x09)
 10: 0x01DF [0x1D] PRINT_EVENT_MESSAGE(message_id=7317*)
    → "I'm sure you're going to get totally-rotally lost, so make sure you check your map regularly, okay!?"
 11: 0x01E2 [0x23] WAIT_FOR_DIALOG_INTERACTION
 12: 0x01E3 [0x29] REQ_SET_WAIT(priority=0x08, entity_id=Pakke-Pokke (ID: 17756172/0x010EF00C), tag_num=0x0A)
 13: 0x01EA [0x20] SET_CLI_EVENT_UC_FLAG: Unlock player control
 14: 0x01EC [0x21] END_EVENT
 15: 0x01ED [0x00] END_REQSTACK()
```

### Event 104

#### Metadata

| Field        | Value    |
|--------------|----------|
| Entrypoint   | 0x01EE   |
| Data Size    | 29 bytes |
| Instructions | 10       |

```
      00 01 02 03 04 05 06 07  08 09 0A 0B 0C 0D 0E 0F
      -- -- -- -- -- -- -- --  -- -- -- -- -- -- -- --
01E0:                                            1E F0                ..
01F0: FF FF 7F 6F 70 29 08 0C  F0 0E 01 01 1D 12 80 23  ...op).........#
0200: 29 08 0C F0 0E 01 02 20  00 21 00                 )...... .!.     
```

#### Opcodes

```
  0: 0x01EE [0x1E] EventEntity looks at LocalPlayer and starts talking
  1: 0x01F3 [0x6F] WAIT_FRAME_DELAY: Yield until WaitTime reaches zero
  2: 0x01F4 [0x70] WAIT_ENTITY_RENDER_FLAG: Wait while EventEntity->Render.Flags3 bit 2 is set (cancel turn if not)
  3: 0x01F5 [0x29] REQ_SET_WAIT(priority=0x08, entity_id=Pakke-Pokke (ID: 17756172/0x010EF00C), tag_num=0x01)
  4: 0x01FC [0x1D] PRINT_EVENT_MESSAGE(message_id=7320*)
    → "Were the Horutoto Ruins as topsy-turvy confusing for you as they are for me? No matter how many times I go there, I still manage to get lost."
  5: 0x01FF [0x23] WAIT_FOR_DIALOG_INTERACTION
  6: 0x0200 [0x29] REQ_SET_WAIT(priority=0x08, entity_id=Pakke-Pokke (ID: 17756172/0x010EF00C), tag_num=0x02)
  7: 0x0207 [0x20] SET_CLI_EVENT_UC_FLAG: Unlock player control
  8: 0x0209 [0x21] END_EVENT
  9: 0x020A [0x00] END_REQSTACK()
```

### Event 109

#### Metadata

| Field        | Value    |
|--------------|----------|
| Entrypoint   | 0x020B   |
| Data Size    | 33 bytes |
| Instructions | 12       |

```
      00 01 02 03 04 05 06 07  08 09 0A 0B 0C 0D 0E 0F
      -- -- -- -- -- -- -- --  -- -- -- -- -- -- -- --
0200:                                   1E F0 FF FF 7F             .....
0210: 6F 70 29 08 0C F0 0E 01  01 1D 13 80 23 1D 14 80  op).........#...
0220: 23 29 08 0C F0 0E 01 02  20 00 21 00              #)...... .!.    
```

#### Opcodes

```
  0: 0x020B [0x1E] EventEntity looks at LocalPlayer and starts talking
  1: 0x0210 [0x6F] WAIT_FRAME_DELAY: Yield until WaitTime reaches zero
  2: 0x0211 [0x70] WAIT_ENTITY_RENDER_FLAG: Wait while EventEntity->Render.Flags3 bit 2 is set (cancel turn if not)
  3: 0x0212 [0x29] REQ_SET_WAIT(priority=0x08, entity_id=Pakke-Pokke (ID: 17756172/0x010EF00C), tag_num=0x01)
  4: 0x0219 [0x1D] PRINT_EVENT_MESSAGE(message_id=7332*)
    → "The automaton guards, known as Cardians, are the compilation of animation magic and are really-heally a remarkable invention."
  5: 0x021C [0x23] WAIT_FOR_DIALOG_INTERACTION
  6: 0x021D [0x1D] PRINT_EVENT_MESSAGE(message_id=7333*)
    → "When they are newly created, they are just like little baby-mabies. As we teach them how to speak and how to fight, they quickly grow smarter and smarter!"
  7: 0x0220 [0x23] WAIT_FOR_DIALOG_INTERACTION
  8: 0x0221 [0x29] REQ_SET_WAIT(priority=0x08, entity_id=Pakke-Pokke (ID: 17756172/0x010EF00C), tag_num=0x02)
  9: 0x0228 [0x20] SET_CLI_EVENT_UC_FLAG: Unlock player control
 10: 0x022A [0x21] END_EVENT
 11: 0x022B [0x00] END_REQSTACK()
```

### Event 113

#### Metadata

| Field        | Value    |
|--------------|----------|
| Entrypoint   | 0x022C   |
| Data Size    | 33 bytes |
| Instructions | 12       |

```
      00 01 02 03 04 05 06 07  08 09 0A 0B 0C 0D 0E 0F
      -- -- -- -- -- -- -- --  -- -- -- -- -- -- -- --
0220:                                      1E F0 FF FF              ....
0230: 7F 6F 70 29 08 0C F0 0E  01 01 1D 15 80 23 1D 16  .op).........#..
0240: 80 23 29 08 0C F0 0E 01  02 20 00 21 00           .#)...... .!.   
```

#### Opcodes

```
  0: 0x022C [0x1E] EventEntity looks at LocalPlayer and starts talking
  1: 0x0231 [0x6F] WAIT_FRAME_DELAY: Yield until WaitTime reaches zero
  2: 0x0232 [0x70] WAIT_ENTITY_RENDER_FLAG: Wait while EventEntity->Render.Flags3 bit 2 is set (cancel turn if not)
  3: 0x0233 [0x29] REQ_SET_WAIT(priority=0x08, entity_id=Pakke-Pokke (ID: 17756172/0x010EF00C), tag_num=0x01)
  4: 0x023A [0x1D] PRINT_EVENT_MESSAGE(message_id=7347*)
    → "It's only natural that we need to keep patience-matience and put forth constant effort in order to be friends with the Yagudo."
  5: 0x023D [0x23] WAIT_FOR_DIALOG_INTERACTION
  6: 0x023E [0x1D] PRINT_EVENT_MESSAGE(message_id=7348*)
    → "We're talking about a pack of beastmen. Their way of thinking is totally different from us people-beople. The first and foremost thing to strive for is to understand-ermand the other party."
  7: 0x0241 [0x23] WAIT_FOR_DIALOG_INTERACTION
  8: 0x0242 [0x29] REQ_SET_WAIT(priority=0x08, entity_id=Pakke-Pokke (ID: 17756172/0x010EF00C), tag_num=0x02)
  9: 0x0249 [0x20] SET_CLI_EVENT_UC_FLAG: Unlock player control
 10: 0x024B [0x21] END_EVENT
 11: 0x024C [0x00] END_REQSTACK()
```

### Event 119

#### Metadata

| Field        | Value    |
|--------------|----------|
| Entrypoint   | 0x024D   |
| Data Size    | 29 bytes |
| Instructions | 10       |

```
      00 01 02 03 04 05 06 07  08 09 0A 0B 0C 0D 0E 0F
      -- -- -- -- -- -- -- --  -- -- -- -- -- -- -- --
0240:                                         1E F0 FF               ...
0250: FF 7F 6F 70 29 08 0C F0  0E 01 01 1D 17 80 23 29  ..op).........#)
0260: 08 0C F0 0E 01 02 20 00  21 00                    ...... .!.      
```

#### Opcodes

```
  0: 0x024D [0x1E] EventEntity looks at LocalPlayer and starts talking
  1: 0x0252 [0x6F] WAIT_FRAME_DELAY: Yield until WaitTime reaches zero
  2: 0x0253 [0x70] WAIT_ENTITY_RENDER_FLAG: Wait while EventEntity->Render.Flags3 bit 2 is set (cancel turn if not)
  3: 0x0254 [0x29] REQ_SET_WAIT(priority=0x08, entity_id=Pakke-Pokke (ID: 17756172/0x010EF00C), tag_num=0x01)
  4: 0x025B [0x1D] PRINT_EVENT_MESSAGE(message_id=7358*)
    → "Congratulations on advancing-mancing in rank! Say, now that you mention-bention it...just how many ranks are there? I've given up hope of further promotion so have forgotten-rotten."
  5: 0x025E [0x23] WAIT_FOR_DIALOG_INTERACTION
  6: 0x025F [0x29] REQ_SET_WAIT(priority=0x08, entity_id=Pakke-Pokke (ID: 17756172/0x010EF00C), tag_num=0x02)
  7: 0x0266 [0x20] SET_CLI_EVENT_UC_FLAG: Unlock player control
  8: 0x0268 [0x21] END_EVENT
  9: 0x0269 [0x00] END_REQSTACK()
```

### Event 124

#### Metadata

| Field        | Value    |
|--------------|----------|
| Entrypoint   | 0x026A   |
| Data Size    | 33 bytes |
| Instructions | 12       |

```
      00 01 02 03 04 05 06 07  08 09 0A 0B 0C 0D 0E 0F
      -- -- -- -- -- -- -- --  -- -- -- -- -- -- -- --
0260:                                1E F0 FF FF 7F 6F            .....o
0270: 70 29 08 0C F0 0E 01 01  1D 18 80 23 1D 19 80 23  p).........#...#
0280: 29 08 0C F0 0E 01 02 20  00 21 00                 )...... .!.     
```

#### Opcodes

```
  0: 0x026A [0x1E] EventEntity looks at LocalPlayer and starts talking
  1: 0x026F [0x6F] WAIT_FRAME_DELAY: Yield until WaitTime reaches zero
  2: 0x0270 [0x70] WAIT_ENTITY_RENDER_FLAG: Wait while EventEntity->Render.Flags3 bit 2 is set (cancel turn if not)
  3: 0x0271 [0x29] REQ_SET_WAIT(priority=0x08, entity_id=Pakke-Pokke (ID: 17756172/0x010EF00C), tag_num=0x01)
  4: 0x0278 [0x1D] PRINT_EVENT_MESSAGE(message_id=7371*)
    → "I wonder-zonder if it is really true that all of the knowledge of Windurst is stored away in the Library of Magic?"
  5: 0x027B [0x23] WAIT_FOR_DIALOG_INTERACTION
  6: 0x027C [0x1D] PRINT_EVENT_MESSAGE(message_id=7372*)
    → "I've even heard-deard that a book written by the very first Star Sibyl is still preserved as new in there!"
  7: 0x027F [0x23] WAIT_FOR_DIALOG_INTERACTION
  8: 0x0280 [0x29] REQ_SET_WAIT(priority=0x08, entity_id=Pakke-Pokke (ID: 17756172/0x010EF00C), tag_num=0x02)
  9: 0x0287 [0x20] SET_CLI_EVENT_UC_FLAG: Unlock player control
 10: 0x0289 [0x21] END_EVENT
 11: 0x028A [0x00] END_REQSTACK()
```

### Event 129

#### Metadata

| Field        | Value    |
|--------------|----------|
| Entrypoint   | 0x028B   |
| Data Size    | 33 bytes |
| Instructions | 12       |

```
      00 01 02 03 04 05 06 07  08 09 0A 0B 0C 0D 0E 0F
      -- -- -- -- -- -- -- --  -- -- -- -- -- -- -- --
0280:                                   1E F0 FF FF 7F             .....
0290: 6F 70 29 08 0C F0 0E 01  01 1D 1A 80 23 1D 1B 80  op).........#...
02A0: 23 29 08 0C F0 0E 01 02  20 00 21 00              #)...... .!.    
```

#### Opcodes

```
  0: 0x028B [0x1E] EventEntity looks at LocalPlayer and starts talking
  1: 0x0290 [0x6F] WAIT_FRAME_DELAY: Yield until WaitTime reaches zero
  2: 0x0291 [0x70] WAIT_ENTITY_RENDER_FLAG: Wait while EventEntity->Render.Flags3 bit 2 is set (cancel turn if not)
  3: 0x0292 [0x29] REQ_SET_WAIT(priority=0x08, entity_id=Pakke-Pokke (ID: 17756172/0x010EF00C), tag_num=0x01)
  4: 0x0299 [0x1D] PRINT_EVENT_MESSAGE(message_id=7384*)
    → "There are two grades of students in the School of Magic. The exceedingly brilliant children-shildren are placed in the advanced class."
  5: 0x029C [0x23] WAIT_FOR_DIALOG_INTERACTION
  6: 0x029D [0x1D] PRINT_EVENT_MESSAGE(message_id=7385*)
    → "On the other hand, the not-so-exceedingly brilliant students-dutents are placed into the beginners class. That's just the way the world works, I guess-fess..."
  7: 0x02A0 [0x23] WAIT_FOR_DIALOG_INTERACTION
  8: 0x02A1 [0x29] REQ_SET_WAIT(priority=0x08, entity_id=Pakke-Pokke (ID: 17756172/0x010EF00C), tag_num=0x02)
  9: 0x02A8 [0x20] SET_CLI_EVENT_UC_FLAG: Unlock player control
 10: 0x02AA [0x21] END_EVENT
 11: 0x02AB [0x00] END_REQSTACK()
```

### Event 132

#### Metadata

| Field        | Value    |
|--------------|----------|
| Entrypoint   | 0x02AC   |
| Data Size    | 47 bytes |
| Instructions | 14       |

```
      00 01 02 03 04 05 06 07  08 09 0A 0B 0C 0D 0E 0F
      -- -- -- -- -- -- -- --  -- -- -- -- -- -- -- --
02A0:                                      1E F0 FF FF              ....
02B0: 7F 6F 70 29 08 0C F0 0E  01 07 1D 1C 80 23 29 08  .op).........#).
02C0: 0C F0 0E 01 08 29 08 0C  F0 0E 01 09 1D 1D 80 23  .....).........#
02D0: 29 08 0C F0 0E 01 0A 20  00 21 00                 )...... .!.     
```

#### Opcodes

```
  0: 0x02AC [0x1E] EventEntity looks at LocalPlayer and starts talking
  1: 0x02B1 [0x6F] WAIT_FRAME_DELAY: Yield until WaitTime reaches zero
  2: 0x02B2 [0x70] WAIT_ENTITY_RENDER_FLAG: Wait while EventEntity->Render.Flags3 bit 2 is set (cancel turn if not)
  3: 0x02B3 [0x29] REQ_SET_WAIT(priority=0x08, entity_id=Pakke-Pokke (ID: 17756172/0x010EF00C), tag_num=0x07)
  4: 0x02BA [0x1D] PRINT_EVENT_MESSAGE(message_id=7390*)
    → "I'd like a chance to try one of these large-scale missions, but I don't really think-fink I'm up to it."
  5: 0x02BD [0x23] WAIT_FOR_DIALOG_INTERACTION
  6: 0x02BE [0x29] REQ_SET_WAIT(priority=0x08, entity_id=Pakke-Pokke (ID: 17756172/0x010EF00C), tag_num=0x08)
  7: 0x02C5 [0x29] REQ_SET_WAIT(priority=0x08, entity_id=Pakke-Pokke (ID: 17756172/0x010EF00C), tag_num=0x09)
  8: 0x02CC [0x1D] PRINT_EVENT_MESSAGE(message_id=7391*)
    → "You see, I'm the type of Tarutaru who can't sleep on a different pillow-billow, gets seasick and airsick, and is disliked by every chocobo-kookobo he comes across. I'm just not cut out to travel-ravel."
  9: 0x02CF [0x23] WAIT_FOR_DIALOG_INTERACTION
 10: 0x02D0 [0x29] REQ_SET_WAIT(priority=0x08, entity_id=Pakke-Pokke (ID: 17756172/0x010EF00C), tag_num=0x0A)
 11: 0x02D7 [0x20] SET_CLI_EVENT_UC_FLAG: Unlock player control
 12: 0x02D9 [0x21] END_EVENT
 13: 0x02DA [0x00] END_REQSTACK()
```

### Event 138

#### Metadata

| Field        | Value    |
|--------------|----------|
| Entrypoint   | 0x02DB   |
| Data Size    | 33 bytes |
| Instructions | 12       |

```
      00 01 02 03 04 05 06 07  08 09 0A 0B 0C 0D 0E 0F
      -- -- -- -- -- -- -- --  -- -- -- -- -- -- -- --
02D0:                                   1E F0 FF FF 7F             .....
02E0: 6F 70 29 08 0C F0 0E 01  01 1D 1E 80 23 1D 1F 80  op).........#...
02F0: 23 29 08 0C F0 0E 01 02  20 00 21 00              #)...... .!.    
```

#### Opcodes

```
  0: 0x02DB [0x1E] EventEntity looks at LocalPlayer and starts talking
  1: 0x02E0 [0x6F] WAIT_FRAME_DELAY: Yield until WaitTime reaches zero
  2: 0x02E1 [0x70] WAIT_ENTITY_RENDER_FLAG: Wait while EventEntity->Render.Flags3 bit 2 is set (cancel turn if not)
  3: 0x02E2 [0x29] REQ_SET_WAIT(priority=0x08, entity_id=Pakke-Pokke (ID: 17756172/0x010EF00C), tag_num=0x01)
  4: 0x02E9 [0x1D] PRINT_EVENT_MESSAGE(message_id=7403*)
    → "The Sibyl Guards are the Mithran warrior-borriors who serve the Star Sibyl."
  5: 0x02EC [0x23] WAIT_FOR_DIALOG_INTERACTION
  6: 0x02ED [0x1D] PRINT_EVENT_MESSAGE(message_id=7404*)
    → "They are all so serious-zerious and strong-drong and oh so cool-looking. Why, they are once...no, twice...no, thrice more fly than the other Mithra who stray about this town!"
  7: 0x02F0 [0x23] WAIT_FOR_DIALOG_INTERACTION
  8: 0x02F1 [0x29] REQ_SET_WAIT(priority=0x08, entity_id=Pakke-Pokke (ID: 17756172/0x010EF00C), tag_num=0x02)
  9: 0x02F8 [0x20] SET_CLI_EVENT_UC_FLAG: Unlock player control
 10: 0x02FA [0x21] END_EVENT
 11: 0x02FB [0x00] END_REQSTACK()
```

### Event 143

#### Metadata

| Field        | Value    |
|--------------|----------|
| Entrypoint   | 0x02FC   |
| Data Size    | 33 bytes |
| Instructions | 12       |

```
      00 01 02 03 04 05 06 07  08 09 0A 0B 0C 0D 0E 0F
      -- -- -- -- -- -- -- --  -- -- -- -- -- -- -- --
02F0:                                      1E F0 FF FF              ....
0300: 7F 6F 70 29 08 0C F0 0E  01 01 1D 20 80 23 1D 21  .op)....... .#.!
0310: 80 23 29 08 0C F0 0E 01  02 20 00 21 00           .#)...... .!.   
```

#### Opcodes

```
  0: 0x02FC [0x1E] EventEntity looks at LocalPlayer and starts talking
  1: 0x0301 [0x6F] WAIT_FRAME_DELAY: Yield until WaitTime reaches zero
  2: 0x0302 [0x70] WAIT_ENTITY_RENDER_FLAG: Wait while EventEntity->Render.Flags3 bit 2 is set (cancel turn if not)
  3: 0x0303 [0x29] REQ_SET_WAIT(priority=0x08, entity_id=Pakke-Pokke (ID: 17756172/0x010EF00C), tag_num=0x01)
  4: 0x030A [0x1D] PRINT_EVENT_MESSAGE(message_id=7414*)
    → "When I was selected to serve as a guard in front of Heavens Tower, I was over the moon-boon! Just the thought of becoming friend-priends with all those ladies-in-waiting...Hum-hmm..."
  5: 0x030D [0x23] WAIT_FOR_DIALOG_INTERACTION
  6: 0x030E [0x1D] PRINT_EVENT_MESSAGE(message_id=7415*)
    → "That dream was soon shattered-splattered when mean old Zubaba cracked down on the young ladies-in-waiting going outside. It brings tears to my eyes-cries!"
  7: 0x0311 [0x23] WAIT_FOR_DIALOG_INTERACTION
  8: 0x0312 [0x29] REQ_SET_WAIT(priority=0x08, entity_id=Pakke-Pokke (ID: 17756172/0x010EF00C), tag_num=0x02)
  9: 0x0319 [0x20] SET_CLI_EVENT_UC_FLAG: Unlock player control
 10: 0x031B [0x21] END_EVENT
 11: 0x031C [0x00] END_REQSTACK()
```

### Event 147

#### Metadata

| Field        | Value    |
|--------------|----------|
| Entrypoint   | 0x031D   |
| Data Size    | 33 bytes |
| Instructions | 12       |

```
      00 01 02 03 04 05 06 07  08 09 0A 0B 0C 0D 0E 0F
      -- -- -- -- -- -- -- --  -- -- -- -- -- -- -- --
0310:                                         1E F0 FF               ...
0320: FF 7F 6F 70 29 08 0C F0  0E 01 01 1D 22 80 23 1D  ..op).......".#.
0330: 23 80 23 29 08 0C F0 0E  01 02 20 00 21 00        #.#)...... .!.  
```

#### Opcodes

```
  0: 0x031D [0x1E] EventEntity looks at LocalPlayer and starts talking
  1: 0x0322 [0x6F] WAIT_FRAME_DELAY: Yield until WaitTime reaches zero
  2: 0x0323 [0x70] WAIT_ENTITY_RENDER_FLAG: Wait while EventEntity->Render.Flags3 bit 2 is set (cancel turn if not)
  3: 0x0324 [0x29] REQ_SET_WAIT(priority=0x08, entity_id=Pakke-Pokke (ID: 17756172/0x010EF00C), tag_num=0x01)
  4: 0x032B [0x1D] PRINT_EVENT_MESSAGE(message_id=7423*)
    → "I'm not the least bit jealous-mealous! I've delivered a document with the star emblem on it to the minister-pinister of the Orastery before."
  5: 0x032E [0x23] WAIT_FOR_DIALOG_INTERACTION
  6: 0x032F [0x1D] PRINT_EVENT_MESSAGE(message_id=7424*)
    → "I can remember I was so nervous-dervous back then. I was in a cold sweat at the thought of what punishment-bunishment would await me if I lost the darned thing."
  7: 0x0332 [0x23] WAIT_FOR_DIALOG_INTERACTION
  8: 0x0333 [0x29] REQ_SET_WAIT(priority=0x08, entity_id=Pakke-Pokke (ID: 17756172/0x010EF00C), tag_num=0x02)
  9: 0x033A [0x20] SET_CLI_EVENT_UC_FLAG: Unlock player control
 10: 0x033C [0x21] END_EVENT
 11: 0x033D [0x00] END_REQSTACK()
```

### Event 151

#### Metadata

| Field        | Value    |
|--------------|----------|
| Entrypoint   | 0x033E   |
| Data Size    | 33 bytes |
| Instructions | 12       |

```
      00 01 02 03 04 05 06 07  08 09 0A 0B 0C 0D 0E 0F
      -- -- -- -- -- -- -- --  -- -- -- -- -- -- -- --
0330:                                            1E F0                ..
0340: FF FF 7F 6F 70 29 08 0C  F0 0E 01 01 1D 24 80 23  ...op).......$.#
0350: 1D 25 80 23 29 08 0C F0  0E 01 02 20 00 21 00     .%.#)...... .!. 
```

#### Opcodes

```
  0: 0x033E [0x1E] EventEntity looks at LocalPlayer and starts talking
  1: 0x0343 [0x6F] WAIT_FRAME_DELAY: Yield until WaitTime reaches zero
  2: 0x0344 [0x70] WAIT_ENTITY_RENDER_FLAG: Wait while EventEntity->Render.Flags3 bit 2 is set (cancel turn if not)
  3: 0x0345 [0x29] REQ_SET_WAIT(priority=0x08, entity_id=Pakke-Pokke (ID: 17756172/0x010EF00C), tag_num=0x01)
  4: 0x034C [0x1D] PRINT_EVENT_MESSAGE(message_id=7430*)
    → "No matter how you look at it, you can't help but conclude something major-dajor is going down in Heavens Tower right now."
  5: 0x034F [0x23] WAIT_FOR_DIALOG_INTERACTION
  6: 0x0350 [0x1D] PRINT_EVENT_MESSAGE(message_id=7431*)
    → "The head of the Sibyl Guards, Semih Lafihna, has been going-zoing in and out of here all day. My arms are tired from giving her the Windurstian salute-dalute each time she passes by."
  7: 0x0353 [0x23] WAIT_FOR_DIALOG_INTERACTION
  8: 0x0354 [0x29] REQ_SET_WAIT(priority=0x08, entity_id=Pakke-Pokke (ID: 17756172/0x010EF00C), tag_num=0x02)
  9: 0x035B [0x20] SET_CLI_EVENT_UC_FLAG: Unlock player control
 10: 0x035D [0x21] END_EVENT
 11: 0x035E [0x00] END_REQSTACK()
```

### Event 155

#### Metadata

| Field        | Value    |
|--------------|----------|
| Entrypoint   | 0x035F   |
| Data Size    | 33 bytes |
| Instructions | 12       |

```
      00 01 02 03 04 05 06 07  08 09 0A 0B 0C 0D 0E 0F
      -- -- -- -- -- -- -- --  -- -- -- -- -- -- -- --
0350:                                               1E                 .
0360: F0 FF FF 7F 6F 70 29 08  0C F0 0E 01 01 1D 26 80  ....op).......&.
0370: 23 1D 27 80 23 29 08 0C  F0 0E 01 02 20 00 21 00  #.'.#)...... .!.
```

#### Opcodes

```
  0: 0x035F [0x1E] EventEntity looks at LocalPlayer and starts talking
  1: 0x0364 [0x6F] WAIT_FRAME_DELAY: Yield until WaitTime reaches zero
  2: 0x0365 [0x70] WAIT_ENTITY_RENDER_FLAG: Wait while EventEntity->Render.Flags3 bit 2 is set (cancel turn if not)
  3: 0x0366 [0x29] REQ_SET_WAIT(priority=0x08, entity_id=Pakke-Pokke (ID: 17756172/0x010EF00C), tag_num=0x01)
  4: 0x036D [0x1D] PRINT_EVENT_MESSAGE(message_id=7442*)
    → "Where in Vana'diel is this Fei'Yin place-blace? Huh? Way up north past-fast the Beaucedine Glacier?"
  5: 0x0370 [0x23] WAIT_FOR_DIALOG_INTERACTION
  6: 0x0371 [0x1D] PRINT_EVENT_MESSAGE(message_id=7443*)
    → "That still doesn't tell-jell me where it is... All I can make out is that it's going to be a really cold-old place. Better pack-zack your long johns!"
  7: 0x0374 [0x23] WAIT_FOR_DIALOG_INTERACTION
  8: 0x0375 [0x29] REQ_SET_WAIT(priority=0x08, entity_id=Pakke-Pokke (ID: 17756172/0x010EF00C), tag_num=0x02)
  9: 0x037C [0x20] SET_CLI_EVENT_UC_FLAG: Unlock player control
 10: 0x037E [0x21] END_EVENT
 11: 0x037F [0x00] END_REQSTACK()
```

### Event 159

#### Metadata

| Field        | Value    |
|--------------|----------|
| Entrypoint   | 0x0380   |
| Data Size    | 37 bytes |
| Instructions | 14       |

```
      00 01 02 03 04 05 06 07  08 09 0A 0B 0C 0D 0E 0F
      -- -- -- -- -- -- -- --  -- -- -- -- -- -- -- --
0380: 1E F0 FF FF 7F 6F 70 29  08 0C F0 0E 01 01 1D 28  .....op).......(
0390: 80 23 1D 29 80 23 1D 2A  80 23 29 08 0C F0 0E 01  .#.).#.*.#).....
03A0: 02 20 00 21 00                                    . .!.           
```

#### Opcodes

```
  0: 0x0380 [0x1E] EventEntity looks at LocalPlayer and starts talking
  1: 0x0385 [0x6F] WAIT_FRAME_DELAY: Yield until WaitTime reaches zero
  2: 0x0386 [0x70] WAIT_ENTITY_RENDER_FLAG: Wait while EventEntity->Render.Flags3 bit 2 is set (cancel turn if not)
  3: 0x0387 [0x29] REQ_SET_WAIT(priority=0x08, entity_id=Pakke-Pokke (ID: 17756172/0x010EF00C), tag_num=0x01)
  4: 0x038E [0x1D] PRINT_EVENT_MESSAGE(message_id=7451*)
    → "Don't you sometimes wonder whether people and beastmen can really ever understand one another-brother?"
  5: 0x0391 [0x23] WAIT_FOR_DIALOG_INTERACTION
  6: 0x0392 [0x1D] PRINT_EVENT_MESSAGE(message_id=7452*)
    → "The Star Sibyl thought that someday we would understand-berstand one another and tried all manner of things to work to that goal, but nothing really changed."
  7: 0x0395 [0x23] WAIT_FOR_DIALOG_INTERACTION
  8: 0x0396 [0x1D] PRINT_EVENT_MESSAGE(message_id=7453*)
    → "I wonder-monder if it is, as they say, set in the stars? The movement of the stars never changes-shanges, does it?"
  9: 0x0399 [0x23] WAIT_FOR_DIALOG_INTERACTION
 10: 0x039A [0x29] REQ_SET_WAIT(priority=0x08, entity_id=Pakke-Pokke (ID: 17756172/0x010EF00C), tag_num=0x02)
 11: 0x03A1 [0x20] SET_CLI_EVENT_UC_FLAG: Unlock player control
 12: 0x03A3 [0x21] END_EVENT
 13: 0x03A4 [0x00] END_REQSTACK()
```

### Event 161

#### Metadata

| Field        | Value    |
|--------------|----------|
| Entrypoint   | 0x03A5   |
| Data Size    | 47 bytes |
| Instructions | 14       |

```
      00 01 02 03 04 05 06 07  08 09 0A 0B 0C 0D 0E 0F
      -- -- -- -- -- -- -- --  -- -- -- -- -- -- -- --
03A0:                1E F0 FF  FF 7F 6F 70 29 08 0C F0       .....op)...
03B0: 0E 01 01 1D 2B 80 23 29  08 0C F0 0E 01 02 29 08  ....+.#)......).
03C0: 0C F0 0E 01 0B 1D 2C 80  23 29 08 0C F0 0E 01 0C  ......,.#)......
03D0: 20 00 21 00                                        .!.            
```

#### Opcodes

```
  0: 0x03A5 [0x1E] EventEntity looks at LocalPlayer and starts talking
  1: 0x03AA [0x6F] WAIT_FRAME_DELAY: Yield until WaitTime reaches zero
  2: 0x03AB [0x70] WAIT_ENTITY_RENDER_FLAG: Wait while EventEntity->Render.Flags3 bit 2 is set (cancel turn if not)
  3: 0x03AC [0x29] REQ_SET_WAIT(priority=0x08, entity_id=Pakke-Pokke (ID: 17756172/0x010EF00C), tag_num=0x01)
  4: 0x03B3 [0x1D] PRINT_EVENT_MESSAGE(message_id=7456*)
    → "Whether your name goes down in the history-mistory of Windurst or not doesn't matter. What you did was indeed a great deed-yeed!"
  5: 0x03B6 [0x23] WAIT_FOR_DIALOG_INTERACTION
  6: 0x03B7 [0x29] REQ_SET_WAIT(priority=0x08, entity_id=Pakke-Pokke (ID: 17756172/0x010EF00C), tag_num=0x02)
  7: 0x03BE [0x29] REQ_SET_WAIT(priority=0x08, entity_id=Pakke-Pokke (ID: 17756172/0x010EF00C), tag_num=0x0B)
  8: 0x03C5 [0x1D] PRINT_EVENT_MESSAGE(message_id=7457*)
    → "Thank you, adventurer-henturer! Please keep using that mighty-righty power of yours for the peace of Windurst!"
  9: 0x03C8 [0x23] WAIT_FOR_DIALOG_INTERACTION
 10: 0x03C9 [0x29] REQ_SET_WAIT(priority=0x08, entity_id=Pakke-Pokke (ID: 17756172/0x010EF00C), tag_num=0x0C)
 11: 0x03D0 [0x20] SET_CLI_EVENT_UC_FLAG: Unlock player control
 12: 0x03D2 [0x21] END_EVENT
 13: 0x03D3 [0x00] END_REQSTACK()
```

### Event 380

#### Metadata

| Field        | Value    |
|--------------|----------|
| Entrypoint   | 0x03D4   |
| Data Size    | 65 bytes |
| Instructions | 18       |

```
      00 01 02 03 04 05 06 07  08 09 0A 0B 0C 0D 0E 0F
      -- -- -- -- -- -- -- --  -- -- -- -- -- -- -- --
03D0:             1E F0 FF FF  7F 6F 70 29 08 0C F0 0E      .....op)....
03E0: 01 01 1D 2D 80 23 1D 2E  80 23 29 08 0C F0 0E 01  ...-.#...#).....
03F0: 02 29 08 0C F0 0E 01 07  1D 2F 80 23 29 08 0C F0  .)......./.#)...
0400: 0E 01 08 29 08 0C F0 0E  01 09 29 08 0C F0 0E 01  ...)......).....
0410: 0A 20 00 21 00                                    . .!.           
```

#### Opcodes

```
  0: 0x03D4 [0x1E] EventEntity looks at LocalPlayer and starts talking
  1: 0x03D9 [0x6F] WAIT_FRAME_DELAY: Yield until WaitTime reaches zero
  2: 0x03DA [0x70] WAIT_ENTITY_RENDER_FLAG: Wait while EventEntity->Render.Flags3 bit 2 is set (cancel turn if not)
  3: 0x03DB [0x29] REQ_SET_WAIT(priority=0x08, entity_id=Pakke-Pokke (ID: 17756172/0x010EF00C), tag_num=0x01)
  4: 0x03E2 [0x1D] PRINT_EVENT_MESSAGE(message_id=8711*)
    → "Kupipi was saying that there is no huge-luge difference between adventurers whose names go down in history, and those who are not mentioned at all-fall."
  5: 0x03E5 [0x23] WAIT_FOR_DIALOG_INTERACTION
  6: 0x03E6 [0x1D] PRINT_EVENT_MESSAGE(message_id=8712*)
    → "The only difference-mifference between them is that the adventurers whose names go down in history are the ones that remain in people's memories."
  7: 0x03E9 [0x23] WAIT_FOR_DIALOG_INTERACTION
  8: 0x03EA [0x29] REQ_SET_WAIT(priority=0x08, entity_id=Pakke-Pokke (ID: 17756172/0x010EF00C), tag_num=0x02)
  9: 0x03F1 [0x29] REQ_SET_WAIT(priority=0x08, entity_id=Pakke-Pokke (ID: 17756172/0x010EF00C), tag_num=0x07)
 10: 0x03F8 [0x1D] PRINT_EVENT_MESSAGE(message_id=8713*)
    → "...So, if it was you who we were talking about-pout, you would sorta be remembered. Vaguely."
 11: 0x03FB [0x23] WAIT_FOR_DIALOG_INTERACTION
 12: 0x03FC [0x29] REQ_SET_WAIT(priority=0x08, entity_id=Pakke-Pokke (ID: 17756172/0x010EF00C), tag_num=0x08)
 13: 0x0403 [0x29] REQ_SET_WAIT(priority=0x08, entity_id=Pakke-Pokke (ID: 17756172/0x010EF00C), tag_num=0x09)
 14: 0x040A [0x29] REQ_SET_WAIT(priority=0x08, entity_id=Pakke-Pokke (ID: 17756172/0x010EF00C), tag_num=0x0A)
 15: 0x0411 [0x20] SET_CLI_EVENT_UC_FLAG: Unlock player control
 16: 0x0413 [0x21] END_EVENT
 17: 0x0414 [0x00] END_REQSTACK()
```

### Event 352

#### Metadata

| Field        | Value    |
|--------------|----------|
| Entrypoint   | 0x0415   |
| Data Size    | 33 bytes |
| Instructions | 12       |

```
      00 01 02 03 04 05 06 07  08 09 0A 0B 0C 0D 0E 0F
      -- -- -- -- -- -- -- --  -- -- -- -- -- -- -- --
0410:                1E F0 FF  FF 7F 6F 70 29 08 0C F0       .....op)...
0420: 0E 01 01 1D 30 80 23 1D  31 80 23 29 08 0C F0 0E  ....0.#.1.#)....
0430: 01 02 20 00 21 00                                 .. .!.          
```

#### Opcodes

```
  0: 0x0415 [0x1E] EventEntity looks at LocalPlayer and starts talking
  1: 0x041A [0x6F] WAIT_FRAME_DELAY: Yield until WaitTime reaches zero
  2: 0x041B [0x70] WAIT_ENTITY_RENDER_FLAG: Wait while EventEntity->Render.Flags3 bit 2 is set (cancel turn if not)
  3: 0x041C [0x29] REQ_SET_WAIT(priority=0x08, entity_id=Pakke-Pokke (ID: 17756172/0x010EF00C), tag_num=0x01)
  4: 0x0423 [0x1D] PRINT_EVENT_MESSAGE(message_id=8723*)
    → "Minister Ajido-Marujido has asked for you? My condolences. He really-deally bosses people around. The Ministers of the Orastery have always been meany-beanies."
  5: 0x0426 [0x23] WAIT_FOR_DIALOG_INTERACTION
  6: 0x0427 [0x1D] PRINT_EVENT_MESSAGE(message_id=8724*)
    → "Although with the members of the Mage Academy always on the front line of battle, I guess you gottaru be tough-rough or you couldn't cut it as the head honcho-poncho."
  7: 0x042A [0x23] WAIT_FOR_DIALOG_INTERACTION
  8: 0x042B [0x29] REQ_SET_WAIT(priority=0x08, entity_id=Pakke-Pokke (ID: 17756172/0x010EF00C), tag_num=0x02)
  9: 0x0432 [0x20] SET_CLI_EVENT_UC_FLAG: Unlock player control
 10: 0x0434 [0x21] END_EVENT
 11: 0x0435 [0x00] END_REQSTACK()
```

### Event 358

#### Metadata

| Field        | Value    |
|--------------|----------|
| Entrypoint   | 0x0436   |
| Data Size    | 47 bytes |
| Instructions | 14       |

```
      00 01 02 03 04 05 06 07  08 09 0A 0B 0C 0D 0E 0F
      -- -- -- -- -- -- -- --  -- -- -- -- -- -- -- --
0430:                   1E F0  FF FF 7F 6F 70 29 08 0C        .....op)..
0440: F0 0E 01 0D 1D 32 80 23  29 08 0C F0 0E 01 0E 29  .....2.#)......)
0450: 08 0C F0 0E 01 01 1D 33  80 23 29 08 0C F0 0E 01  .......3.#).....
0460: 02 20 00 21 00                                    . .!.           
```

#### Opcodes

```
  0: 0x0436 [0x1E] EventEntity looks at LocalPlayer and starts talking
  1: 0x043B [0x6F] WAIT_FRAME_DELAY: Yield until WaitTime reaches zero
  2: 0x043C [0x70] WAIT_ENTITY_RENDER_FLAG: Wait while EventEntity->Render.Flags3 bit 2 is set (cancel turn if not)
  3: 0x043D [0x29] REQ_SET_WAIT(priority=0x08, entity_id=Pakke-Pokke (ID: 17756172/0x010EF00C), tag_num=0x0D)
  4: 0x0444 [0x1D] PRINT_EVENT_MESSAGE(message_id=8739*)
    → "Even if he is Minister of the Orastery, Ajido-Marujido cannot be forgiven his transgressions. The word of Heavens Tower is the law of Windurst."
  5: 0x0447 [0x23] WAIT_FOR_DIALOG_INTERACTION
  6: 0x0448 [0x29] REQ_SET_WAIT(priority=0x08, entity_id=Pakke-Pokke (ID: 17756172/0x010EF00C), tag_num=0x0E)
  7: 0x044F [0x29] REQ_SET_WAIT(priority=0x08, entity_id=Pakke-Pokke (ID: 17756172/0x010EF00C), tag_num=0x01)
  8: 0x0456 [0x1D] PRINT_EVENT_MESSAGE(message_id=8740*)
    → "With Ajido-Marujido in the Dark Dungeon, who will become the next Minister of the Orastery? It will have to be a super-dooper wizard who can coordinate both the mighty-fighty War Warlocks and the Operations Division. ...Nobody really spring-pings to mind."
  9: 0x0459 [0x23] WAIT_FOR_DIALOG_INTERACTION
 10: 0x045A [0x29] REQ_SET_WAIT(priority=0x08, entity_id=Pakke-Pokke (ID: 17756172/0x010EF00C), tag_num=0x02)
 11: 0x0461 [0x20] SET_CLI_EVENT_UC_FLAG: Unlock player control
 12: 0x0463 [0x21] END_EVENT
 13: 0x0464 [0x00] END_REQSTACK()
```

### Event 362

#### Metadata

| Field        | Value    |
|--------------|----------|
| Entrypoint   | 0x0465   |
| Data Size    | 47 bytes |
| Instructions | 14       |

```
      00 01 02 03 04 05 06 07  08 09 0A 0B 0C 0D 0E 0F
      -- -- -- -- -- -- -- --  -- -- -- -- -- -- -- --
0460:                1E F0 FF  FF 7F 6F 70 29 08 0C F0       .....op)...
0470: 0E 01 07 1D 34 80 23 29  08 0C F0 0E 01 08 29 08  ....4.#)......).
0480: 0C F0 0E 01 09 1D 35 80  23 29 08 0C F0 0E 01 0A  ......5.#)......
0490: 20 00 21 00                                        .!.            
```

#### Opcodes

```
  0: 0x0465 [0x1E] EventEntity looks at LocalPlayer and starts talking
  1: 0x046A [0x6F] WAIT_FRAME_DELAY: Yield until WaitTime reaches zero
  2: 0x046B [0x70] WAIT_ENTITY_RENDER_FLAG: Wait while EventEntity->Render.Flags3 bit 2 is set (cancel turn if not)
  3: 0x046C [0x29] REQ_SET_WAIT(priority=0x08, entity_id=Pakke-Pokke (ID: 17756172/0x010EF00C), tag_num=0x07)
  4: 0x0473 [0x1D] PRINT_EVENT_MESSAGE(message_id=8747*)
    → "I havetaru clean my house, too. Adventurers have it easy, since they have moogles to look after their rooms. I'm so jealous-bealous."
  5: 0x0476 [0x23] WAIT_FOR_DIALOG_INTERACTION
  6: 0x0477 [0x29] REQ_SET_WAIT(priority=0x08, entity_id=Pakke-Pokke (ID: 17756172/0x010EF00C), tag_num=0x08)
  7: 0x047E [0x29] REQ_SET_WAIT(priority=0x08, entity_id=Pakke-Pokke (ID: 17756172/0x010EF00C), tag_num=0x09)
  8: 0x0485 [0x1D] PRINT_EVENT_MESSAGE(message_id=8748*)
    → "I've heard that if adventurers put furniture in their rooms, the moogles sometimes find hidden items. Lucky-duckies!"
  9: 0x0488 [0x23] WAIT_FOR_DIALOG_INTERACTION
 10: 0x0489 [0x29] REQ_SET_WAIT(priority=0x08, entity_id=Pakke-Pokke (ID: 17756172/0x010EF00C), tag_num=0x0A)
 11: 0x0490 [0x20] SET_CLI_EVENT_UC_FLAG: Unlock player control
 12: 0x0492 [0x21] END_EVENT
 13: 0x0493 [0x00] END_REQSTACK()
```

### Event 367

#### Metadata

| Field        | Value    |
|--------------|----------|
| Entrypoint   | 0x0494   |
| Data Size    | 61 bytes |
| Instructions | 16       |

```
      00 01 02 03 04 05 06 07  08 09 0A 0B 0C 0D 0E 0F
      -- -- -- -- -- -- -- --  -- -- -- -- -- -- -- --
0490:             1E F0 FF FF  7F 6F 70 29 08 0C F0 0E      .....op)....
04A0: 01 01 1D 36 80 23 29 08  0C F0 0E 01 02 29 08 0C  ...6.#)......)..
04B0: F0 0E 01 07 1D 37 80 23  29 08 0C F0 0E 01 08 29  .....7.#)......)
04C0: 08 0C F0 0E 01 09 29 08  0C F0 0E 01 0A 20 00 21  ......)...... .!
04D0: 00                                                .               
```

#### Opcodes

```
  0: 0x0494 [0x1E] EventEntity looks at LocalPlayer and starts talking
  1: 0x0499 [0x6F] WAIT_FRAME_DELAY: Yield until WaitTime reaches zero
  2: 0x049A [0x70] WAIT_ENTITY_RENDER_FLAG: Wait while EventEntity->Render.Flags3 bit 2 is set (cancel turn if not)
  3: 0x049B [0x29] REQ_SET_WAIT(priority=0x08, entity_id=Pakke-Pokke (ID: 17756172/0x010EF00C), tag_num=0x01)
  4: 0x04A2 [0x1D] PRINT_EVENT_MESSAGE(message_id=8758*)
    → "Were you listening properly-doperly? You need to go ask the mission-fission details from Leepe-Hoppe on the second floor of the Rhinostery."
  5: 0x04A5 [0x23] WAIT_FOR_DIALOG_INTERACTION
  6: 0x04A6 [0x29] REQ_SET_WAIT(priority=0x08, entity_id=Pakke-Pokke (ID: 17756172/0x010EF00C), tag_num=0x02)
  7: 0x04AD [0x29] REQ_SET_WAIT(priority=0x08, entity_id=Pakke-Pokke (ID: 17756172/0x010EF00C), tag_num=0x07)
  8: 0x04B4 [0x1D] PRINT_EVENT_MESSAGE(message_id=8759*)
    → "The Rhinostery probably wants you to help them with their research... They usually have their own adventurers to assist-list them though."
  9: 0x04B7 [0x23] WAIT_FOR_DIALOG_INTERACTION
 10: 0x04B8 [0x29] REQ_SET_WAIT(priority=0x08, entity_id=Pakke-Pokke (ID: 17756172/0x010EF00C), tag_num=0x08)
 11: 0x04BF [0x29] REQ_SET_WAIT(priority=0x08, entity_id=Pakke-Pokke (ID: 17756172/0x010EF00C), tag_num=0x09)
 12: 0x04C6 [0x29] REQ_SET_WAIT(priority=0x08, entity_id=Pakke-Pokke (ID: 17756172/0x010EF00C), tag_num=0x0A)
 13: 0x04CD [0x20] SET_CLI_EVENT_UC_FLAG: Unlock player control
 14: 0x04CF [0x21] END_EVENT
 15: 0x04D0 [0x00] END_REQSTACK()
```

### Event 372

#### Metadata

| Field        | Value    |
|--------------|----------|
| Entrypoint   | 0x04D1   |
| Data Size    | 33 bytes |
| Instructions | 12       |

```
      00 01 02 03 04 05 06 07  08 09 0A 0B 0C 0D 0E 0F
      -- -- -- -- -- -- -- --  -- -- -- -- -- -- -- --
04D0:    1E F0 FF FF 7F 6F 70  29 08 0C F0 0E 01 01 1D   .....op).......
04E0: 38 80 23 1D 39 80 23 29  08 0C F0 0E 01 02 20 00  8.#.9.#)...... .
04F0: 21 00                                             !.              
```

#### Opcodes

```
  0: 0x04D1 [0x1E] EventEntity looks at LocalPlayer and starts talking
  1: 0x04D6 [0x6F] WAIT_FRAME_DELAY: Yield until WaitTime reaches zero
  2: 0x04D7 [0x70] WAIT_ENTITY_RENDER_FLAG: Wait while EventEntity->Render.Flags3 bit 2 is set (cancel turn if not)
  3: 0x04D8 [0x29] REQ_SET_WAIT(priority=0x08, entity_id=Pakke-Pokke (ID: 17756172/0x010EF00C), tag_num=0x01)
  4: 0x04DF [0x1D] PRINT_EVENT_MESSAGE(message_id=8768*)
    → "Out of the five ministries, the Aurastery issues the least mission-bissions."
  5: 0x04E2 [0x23] WAIT_FOR_DIALOG_INTERACTION
  6: 0x04E3 [0x1D] PRINT_EVENT_MESSAGE(message_id=8769*)
    → "When Professor Koru-Moru was actively performing his role as principal, there was all manner of trouble-bubbles... But these days it's been relatively quiet."
  7: 0x04E6 [0x23] WAIT_FOR_DIALOG_INTERACTION
  8: 0x04E7 [0x29] REQ_SET_WAIT(priority=0x08, entity_id=Pakke-Pokke (ID: 17756172/0x010EF00C), tag_num=0x02)
  9: 0x04EE [0x20] SET_CLI_EVENT_UC_FLAG: Unlock player control
 10: 0x04F0 [0x21] END_EVENT
 11: 0x04F1 [0x00] END_REQSTACK()
```

### Event 377

#### Metadata

| Field        | Value    |
|--------------|----------|
| Entrypoint   | 0x04F2   |
| Data Size    | 65 bytes |
| Instructions | 18       |

```
      00 01 02 03 04 05 06 07  08 09 0A 0B 0C 0D 0E 0F
      -- -- -- -- -- -- -- --  -- -- -- -- -- -- -- --
04F0:       1E F0 FF FF 7F 6F  70 29 08 0C F0 0E 01 07    .....op)......
0500: 1D 3A 80 23 29 08 0C F0  0E 01 08 29 08 0C F0 0E  .:.#)......)....
0510: 01 09 1D 3B 80 23 29 08  0C F0 0E 01 0A 29 08 0C  ...;.#)......)..
0520: F0 0E 01 0F 1D 3C 80 23  29 08 0C F0 0E 01 10 20  .....<.#)...... 
0530: 00 21 00                                          .!.             
```

#### Opcodes

```
  0: 0x04F2 [0x1E] EventEntity looks at LocalPlayer and starts talking
  1: 0x04F7 [0x6F] WAIT_FRAME_DELAY: Yield until WaitTime reaches zero
  2: 0x04F8 [0x70] WAIT_ENTITY_RENDER_FLAG: Wait while EventEntity->Render.Flags3 bit 2 is set (cancel turn if not)
  3: 0x04F9 [0x29] REQ_SET_WAIT(priority=0x08, entity_id=Pakke-Pokke (ID: 17756172/0x010EF00C), tag_num=0x07)
  4: 0x0500 [0x1D] PRINT_EVENT_MESSAGE(message_id=8780*)
    → "After the Great War twenty years ago, the Cardians started a rebellion-mellion and carried off the previous Manustery minister..."
  5: 0x0503 [0x23] WAIT_FOR_DIALOG_INTERACTION
  6: 0x0504 [0x29] REQ_SET_WAIT(priority=0x08, entity_id=Pakke-Pokke (ID: 17756172/0x010EF00C), tag_num=0x08)
  7: 0x050B [0x29] REQ_SET_WAIT(priority=0x08, entity_id=Pakke-Pokke (ID: 17756172/0x010EF00C), tag_num=0x09)
  8: 0x0512 [0x1D] PRINT_EVENT_MESSAGE(message_id=8781*)
    → "Following that chaos, the Manustery came to a complete standstill. Minister Apururu has worked extremely-zemely hard to get her ministry back into operation."
  9: 0x0515 [0x23] WAIT_FOR_DIALOG_INTERACTION
 10: 0x0516 [0x29] REQ_SET_WAIT(priority=0x08, entity_id=Pakke-Pokke (ID: 17756172/0x010EF00C), tag_num=0x0A)
 11: 0x051D [0x29] REQ_SET_WAIT(priority=0x08, entity_id=Pakke-Pokke (ID: 17756172/0x010EF00C), tag_num=0x0F)
 12: 0x0524 [0x1D] PRINT_EVENT_MESSAGE(message_id=8782*)
    → "The Cardians created by the Manustery are made to act as shields for the guards. It's time we returned the favor!"
 13: 0x0527 [0x23] WAIT_FOR_DIALOG_INTERACTION
 14: 0x0528 [0x29] REQ_SET_WAIT(priority=0x08, entity_id=Pakke-Pokke (ID: 17756172/0x010EF00C), tag_num=0x10)
 15: 0x052F [0x20] SET_CLI_EVENT_UC_FLAG: Unlock player control
 16: 0x0531 [0x21] END_EVENT
 17: 0x0532 [0x00] END_REQSTACK()
```

### Event 424

#### Metadata

| Field        | Value    |
|--------------|----------|
| Entrypoint   | 0x0533   |
| Data Size    | 65 bytes |
| Instructions | 18       |

```
      00 01 02 03 04 05 06 07  08 09 0A 0B 0C 0D 0E 0F
      -- -- -- -- -- -- -- --  -- -- -- -- -- -- -- --
0530:          1E F0 FF FF 7F  6F 70 29 08 0C F0 0E 01     .....op).....
0540: 07 1D 3D 80 23 29 08 0C  F0 0E 01 08 29 08 0C F0  ..=.#)......)...
0550: 0E 01 09 1D 3E 80 23 29  08 0C F0 0E 01 0A 29 08  ....>.#)......).
0560: 0C F0 0E 01 0F 1D 3F 80  23 29 08 0C F0 0E 01 10  ......?.#)......
0570: 20 00 21 00                                        .!.            
```

#### Opcodes

```
  0: 0x0533 [0x1E] EventEntity looks at LocalPlayer and starts talking
  1: 0x0538 [0x6F] WAIT_FRAME_DELAY: Yield until WaitTime reaches zero
  2: 0x0539 [0x70] WAIT_ENTITY_RENDER_FLAG: Wait while EventEntity->Render.Flags3 bit 2 is set (cancel turn if not)
  3: 0x053A [0x29] REQ_SET_WAIT(priority=0x08, entity_id=Pakke-Pokke (ID: 17756172/0x010EF00C), tag_num=0x07)
  4: 0x0541 [0x1D] PRINT_EVENT_MESSAGE(message_id=9006*)
    → "According to the gossip-dossip of the ladies-in-waiting, Semih Lafihna has been to-ing and fro-ing all over the place trying to find information on the bearer of darkness that appeared in Heavens Tower."
  5: 0x0544 [0x23] WAIT_FOR_DIALOG_INTERACTION
  6: 0x0545 [0x29] REQ_SET_WAIT(priority=0x08, entity_id=Pakke-Pokke (ID: 17756172/0x010EF00C), tag_num=0x08)
  7: 0x054C [0x29] REQ_SET_WAIT(priority=0x08, entity_id=Pakke-Pokke (ID: 17756172/0x010EF00C), tag_num=0x09)
  8: 0x0553 [0x1D] PRINT_EVENT_MESSAGE(message_id=9007*)
    → "I was standing rightaru here when all the fuss erupted, and I have no memory-zemory of letting such a creature pass into the tower. It must be some sort of ghosty-toasty..."
  9: 0x0556 [0x23] WAIT_FOR_DIALOG_INTERACTION
 10: 0x0557 [0x29] REQ_SET_WAIT(priority=0x08, entity_id=Pakke-Pokke (ID: 17756172/0x010EF00C), tag_num=0x0A)
 11: 0x055E [0x29] REQ_SET_WAIT(priority=0x08, entity_id=Pakke-Pokke (ID: 17756172/0x010EF00C), tag_num=0x0F)
 12: 0x0565 [0x1D] PRINT_EVENT_MESSAGE(message_id=9008*)
    → "You gotta hand it to those Mithra. She goes off in search of the thing when most normal people would be running in the other direction. Ghosties give me the shivers..."
 13: 0x0568 [0x23] WAIT_FOR_DIALOG_INTERACTION
 14: 0x0569 [0x29] REQ_SET_WAIT(priority=0x08, entity_id=Pakke-Pokke (ID: 17756172/0x010EF00C), tag_num=0x10)
 15: 0x0570 [0x20] SET_CLI_EVENT_UC_FLAG: Unlock player control
 16: 0x0572 [0x21] END_EVENT
 17: 0x0573 [0x00] END_REQSTACK()
```

### Event 432

#### Metadata

| Field        | Value    |
|--------------|----------|
| Entrypoint   | 0x0574   |
| Data Size    | 45 bytes |
| Instructions | 14       |

```
      00 01 02 03 04 05 06 07  08 09 0A 0B 0C 0D 0E 0F
      -- -- -- -- -- -- -- --  -- -- -- -- -- -- -- --
0570:             1E F0 FF FF  7F 6F 70 6E F8 FF FF 7F      .....opn....
0580: 40 80 99 F8 FF FF 7F 1D  41 80 23 29 08 0C F0 0E  @.......A.#)....
0590: 01 01 1D 42 80 23 29 08  0C F0 0E 01 02 20 00 21  ...B.#)...... .!
05A0: 00                                                .               
```

#### Opcodes

```
  0: 0x0574 [0x1E] EventEntity looks at LocalPlayer and starts talking
  1: 0x0579 [0x6F] WAIT_FRAME_DELAY: Yield until WaitTime reaches zero
  2: 0x057A [0x70] WAIT_ENTITY_RENDER_FLAG: Wait while EventEntity->Render.Flags3 bit 2 is set (cancel turn if not)
  3: 0x057B [0x6E] EventEntity uses emote 11*
  4: 0x0582 [0x99] Wait for EventEntity animation to complete
  5: 0x0587 [0x1D] PRINT_EVENT_MESSAGE(message_id=9013*)
    → "Hooray! I never thought that Minister Ajido-Marujido would be forgiven so quickly-trickly for his transgressions!"
  6: 0x058A [0x23] WAIT_FOR_DIALOG_INTERACTION
  7: 0x058B [0x29] REQ_SET_WAIT(priority=0x08, entity_id=Pakke-Pokke (ID: 17756172/0x010EF00C), tag_num=0x01)
  8: 0x0592 [0x1D] PRINT_EVENT_MESSAGE(message_id=9014*)
    → "Were you there when he talked with the Star Sibyl? I heard that Minister Apururu said she has a lot to thank you for!"
  9: 0x0595 [0x23] WAIT_FOR_DIALOG_INTERACTION
 10: 0x0596 [0x29] REQ_SET_WAIT(priority=0x08, entity_id=Pakke-Pokke (ID: 17756172/0x010EF00C), tag_num=0x02)
 11: 0x059D [0x20] SET_CLI_EVENT_UC_FLAG: Unlock player control
 12: 0x059F [0x21] END_EVENT
 13: 0x05A0 [0x00] END_REQSTACK()
```

### Event 429

#### Metadata

| Field        | Value    |
|--------------|----------|
| Entrypoint   | 0x05A1   |
| Data Size    | 65 bytes |
| Instructions | 18       |

```
      00 01 02 03 04 05 06 07  08 09 0A 0B 0C 0D 0E 0F
      -- -- -- -- -- -- -- --  -- -- -- -- -- -- -- --
05A0:    1E F0 FF FF 7F 6F 70  29 08 0C F0 0E 01 07 1D   .....op).......
05B0: 43 80 23 29 08 0C F0 0E  01 08 29 08 0C F0 0E 01  C.#)......).....
05C0: 09 1D 44 80 23 29 08 0C  F0 0E 01 0A 29 08 0C F0  ..D.#)......)...
05D0: 0E 01 0F 1D 45 80 23 29  08 0C F0 0E 01 10 20 00  ....E.#)...... .
05E0: 21 00                                             !.              
```

#### Opcodes

```
  0: 0x05A1 [0x1E] EventEntity looks at LocalPlayer and starts talking
  1: 0x05A6 [0x6F] WAIT_FRAME_DELAY: Yield until WaitTime reaches zero
  2: 0x05A7 [0x70] WAIT_ENTITY_RENDER_FLAG: Wait while EventEntity->Render.Flags3 bit 2 is set (cancel turn if not)
  3: 0x05A8 [0x29] REQ_SET_WAIT(priority=0x08, entity_id=Pakke-Pokke (ID: 17756172/0x010EF00C), tag_num=0x07)
  4: 0x05AF [0x1D] PRINT_EVENT_MESSAGE(message_id=9032*)
    → "I heard from the ladies-in-waiting that they haven't seen the Star Sibyl around lately-dately."
  5: 0x05B2 [0x23] WAIT_FOR_DIALOG_INTERACTION
  6: 0x05B3 [0x29] REQ_SET_WAIT(priority=0x08, entity_id=Pakke-Pokke (ID: 17756172/0x010EF00C), tag_num=0x08)
  7: 0x05BA [0x29] REQ_SET_WAIT(priority=0x08, entity_id=Pakke-Pokke (ID: 17756172/0x010EF00C), tag_num=0x09)
  8: 0x05C1 [0x1D] PRINT_EVENT_MESSAGE(message_id=9033*)
    → "You know, with Ajido-Marujido forgiven for his crimes and we guards going unpunished-bunished, I get the feeling that something more importantaru must be going on..."
  9: 0x05C4 [0x23] WAIT_FOR_DIALOG_INTERACTION
 10: 0x05C5 [0x29] REQ_SET_WAIT(priority=0x08, entity_id=Pakke-Pokke (ID: 17756172/0x010EF00C), tag_num=0x0A)
 11: 0x05CC [0x29] REQ_SET_WAIT(priority=0x08, entity_id=Pakke-Pokke (ID: 17756172/0x010EF00C), tag_num=0x0F)
 12: 0x05D3 [0x1D] PRINT_EVENT_MESSAGE(message_id=9034*)
    → "Maybe, just maybe... She's taking a secretaru vacation!? Hmm, not likely, huh...?"
 13: 0x05D6 [0x23] WAIT_FOR_DIALOG_INTERACTION
 14: 0x05D7 [0x29] REQ_SET_WAIT(priority=0x08, entity_id=Pakke-Pokke (ID: 17756172/0x010EF00C), tag_num=0x10)
 15: 0x05DE [0x20] SET_CLI_EVENT_UC_FLAG: Unlock player control
 16: 0x05E0 [0x21] END_EVENT
 17: 0x05E1 [0x00] END_REQSTACK()
```

### Event 436

#### Metadata

| Field        | Value    |
|--------------|----------|
| Entrypoint   | 0x05E2   |
| Data Size    | 47 bytes |
| Instructions | 14       |

```
      00 01 02 03 04 05 06 07  08 09 0A 0B 0C 0D 0E 0F
      -- -- -- -- -- -- -- --  -- -- -- -- -- -- -- --
05E0:       1E F0 FF FF 7F 6F  70 29 08 0C F0 0E 01 01    .....op)......
05F0: 1D 46 80 23 29 08 0C F0  0E 01 02 29 08 0C F0 0E  .F.#)......)....
0600: 01 0D 1D 47 80 23 29 08  0C F0 0E 01 0E 20 00 21  ...G.#)...... .!
0610: 00                                                .               
```

#### Opcodes

```
  0: 0x05E2 [0x1E] EventEntity looks at LocalPlayer and starts talking
  1: 0x05E7 [0x6F] WAIT_FRAME_DELAY: Yield until WaitTime reaches zero
  2: 0x05E8 [0x70] WAIT_ENTITY_RENDER_FLAG: Wait while EventEntity->Render.Flags3 bit 2 is set (cancel turn if not)
  3: 0x05E9 [0x29] REQ_SET_WAIT(priority=0x08, entity_id=Pakke-Pokke (ID: 17756172/0x010EF00C), tag_num=0x01)
  4: 0x05F0 [0x1D] PRINT_EVENT_MESSAGE(message_id=9043*)
    → "Lady Zubaba is being all naggy-haggy about the guards helping out with the Dark Dungeon jailbreak."
  5: 0x05F3 [0x23] WAIT_FOR_DIALOG_INTERACTION
  6: 0x05F4 [0x29] REQ_SET_WAIT(priority=0x08, entity_id=Pakke-Pokke (ID: 17756172/0x010EF00C), tag_num=0x02)
  7: 0x05FB [0x29] REQ_SET_WAIT(priority=0x08, entity_id=Pakke-Pokke (ID: 17756172/0x010EF00C), tag_num=0x0D)
  8: 0x0602 [0x1D] PRINT_EVENT_MESSAGE(message_id=9044*)
    → "As soon as she has any free time on her hands, she uses it to picky-stick on other people's faults. I knew it was too good to lastaru..."
  9: 0x0605 [0x23] WAIT_FOR_DIALOG_INTERACTION
 10: 0x0606 [0x29] REQ_SET_WAIT(priority=0x08, entity_id=Pakke-Pokke (ID: 17756172/0x010EF00C), tag_num=0x0E)
 11: 0x060D [0x20] SET_CLI_EVENT_UC_FLAG: Unlock player control
 12: 0x060F [0x21] END_EVENT
 13: 0x0610 [0x00] END_REQSTACK()
```

### Event 443

#### Metadata

| Field        | Value   |
|--------------|---------|
| Entrypoint   | 0x0611  |
| Data Size    | 7 bytes |
| Instructions | 2       |

```
      00 01 02 03 04 05 06 07  08 09 0A 0B 0C 0D 0E 0F
      -- -- -- -- -- -- -- --  -- -- -- -- -- -- -- --
0610:    92 01 F8 FF FF 7F 00                            .......        
```

#### Opcodes

```
  0: 0x0611 [0x92] EventEntity->Render.Flags3 ^= 0x01
  1: 0x0617 [0x00] END_REQSTACK()
```

### Event 65535.21

#### Metadata

| Field        | Value    |
|--------------|----------|
| Entrypoint   | 0x0618   |
| Data Size    | 10 bytes |
| Instructions | 2        |

```
      00 01 02 03 04 05 06 07  08 09 0A 0B 0C 0D 0E 0F
      -- -- -- -- -- -- -- --  -- -- -- -- -- -- -- --
0610:                          37 48 80 49 80 4A 80 4B          7H.I.J.K
0620: 80 00                                             ..              
```

#### Opcodes

```
  0: 0x0618 [0x37] UPDATE_EVENT_POSITION_AND_DIR: x=-30.849*, z=135.884*, y=-16.000*, direction=148.8°*
  1: 0x0621 [0x00] END_REQSTACK()
```

### Event 65535.22

#### Metadata

| Field        | Value    |
|--------------|----------|
| Entrypoint   | 0x0622   |
| Data Size    | 14 bytes |
| Instructions | 4        |

```
      00 01 02 03 04 05 06 07  08 09 0A 0B 0C 0D 0E 0F
      -- -- -- -- -- -- -- --  -- -- -- -- -- -- -- --
0620:       32 08 80 5A 00 4C  80 4D 80 4E 80 5A 01 00    2..Z.L.M.N.Z..
```

#### Opcodes

```
  0: 0x0622 [0x32] ExtData[1]->MainSpeed = 13* * 0.1
  1: 0x0625 [0x5A] UPDATE_EVENT_POSITION: Set EventEntity MovePosition to X=-46.943*, Z=126.595*, Y=-13.500*
  2: 0x062D [0x5A] UPDATE_EVENT_POSITION: Move EventEntity incrementally towards MovePosition
  3: 0x062F [0x00] END_REQSTACK()
```

### Event 65535.23

#### Metadata

| Field        | Value    |
|--------------|----------|
| Entrypoint   | 0x0630   |
| Data Size    | 10 bytes |
| Instructions | 2        |

```
      00 01 02 03 04 05 06 07  08 09 0A 0B 0C 0D 0E 0F
      -- -- -- -- -- -- -- --  -- -- -- -- -- -- -- --
0630: 37 4F 80 50 80 51 80 52  80 00                    7O.P.Q.R..      
```

#### Opcodes

```
  0: 0x0630 [0x37] UPDATE_EVENT_POSITION_AND_DIR: x=-83.993*, z=134.041*, y=-5.231*, direction=97.6°*
  1: 0x0639 [0x00] END_REQSTACK()
```
