# 17756173 - Keo-Koruo

## Common Data

| Field            | Value                    |
|------------------|--------------------------|
| Zone             | Windurst Walls (ID: 239) |
| Block Size       | 1816 bytes               |
| Total Events     | 52                       |
| References Count | 67                       |

## List of Events

| Event ID                   | Entrypoint   |   Size |   Instructions |
|----------------------------|--------------|--------|----------------|
| [65535](#event-65535)      | 0x0000       |      1 |              1 |
| [65535.1](#event-655351)   | 0x0001       |     16 |              2 |
| [65535.2](#event-655352)   | 0x0011       |     22 |              4 |
| [65535.3](#event-655353)   | 0x0027       |     16 |              2 |
| [65535.4](#event-655354)   | 0x0037       |     14 |              2 |
| [65535.5](#event-655355)   | 0x0045       |     16 |              2 |
| [65535.6](#event-655356)   | 0x0055       |     14 |              2 |
| [65535.7](#event-655357)   | 0x0063       |     16 |              2 |
| [65535.8](#event-655358)   | 0x0073       |     22 |              4 |
| [65535.9](#event-655359)   | 0x0089       |     16 |              2 |
| [65535.10](#event-6553510) | 0x0099       |     14 |              2 |
| [65535.11](#event-6553511) | 0x00A7       |     16 |              2 |
| [65535.12](#event-6553512) | 0x00B7       |     14 |              2 |
| [65535.13](#event-6553513) | 0x00C5       |     16 |              2 |
| [65535.14](#event-6553514) | 0x00D5       |     14 |              2 |
| [65535.15](#event-6553515) | 0x00E3       |      9 |              3 |
| [65535.16](#event-6553516) | 0x00EC       |     16 |              2 |
| [65535.17](#event-6553517) | 0x00FC       |     22 |              4 |
| [65535.18](#event-6553518) | 0x0112       |     16 |              2 |
| [65535.19](#event-6553519) | 0x0122       |     14 |              2 |
| [88](#event-88)            | 0x0130       |     29 |             10 |
| [96](#event-96)            | 0x014D       |      1 |              1 |
| [100](#event-100)          | 0x014E       |     29 |             10 |
| [105](#event-105)          | 0x016B       |     29 |             10 |
| [108](#event-108)          | 0x0188       |     40 |             13 |
| [114](#event-114)          | 0x01B0       |     33 |             12 |
| [123](#event-123)          | 0x01D1       |     33 |             12 |
| [118](#event-118)          | 0x01F2       |     29 |             10 |
| [128](#event-128)          | 0x020F       |     33 |             12 |
| [133](#event-133)          | 0x0230       |     47 |             14 |
| [139](#event-139)          | 0x025F       |     33 |             12 |
| [144](#event-144)          | 0x0280       |     33 |             12 |
| [148](#event-148)          | 0x02A1       |     33 |             12 |
| [152](#event-152)          | 0x02C2       |     33 |             12 |
| [156](#event-156)          | 0x02E3       |     33 |             12 |
| [160](#event-160)          | 0x0304       |     33 |             12 |
| [162](#event-162)          | 0x0325       |     33 |             12 |
| [381](#event-381)          | 0x0346       |     33 |             12 |
| [353](#event-353)          | 0x0367       |     29 |             10 |
| [357](#event-357)          | 0x0384       |     47 |             14 |
| [363](#event-363)          | 0x03B3       |     47 |             14 |
| [368](#event-368)          | 0x03E2       |     33 |             12 |
| [373](#event-373)          | 0x0403       |     40 |             13 |
| [378](#event-378)          | 0x042B       |     47 |             14 |
| [425](#event-425)          | 0x045A       |     45 |             14 |
| [433](#event-433)          | 0x0487       |     47 |             14 |
| [430](#event-430)          | 0x04B6       |     29 |             10 |
| [437](#event-437)          | 0x04D3       |     47 |             14 |
| [443](#event-443)          | 0x0502       |      7 |              2 |
| [65535.20](#event-6553520) | 0x0509       |     10 |              2 |
| [65535.21](#event-6553521) | 0x0513       |     14 |              4 |
| [65535.22](#event-6553522) | 0x0521       |     10 |              2 |

## DAT References (imed_data)

|   Index | Hex Value   |   Dec Value |
|---------|-------------|-------------|
|       0 | 0x0028      |          40 |
|       1 | 0x001E      |          30 |
|       2 | 0x0029      |          41 |
|       3 | 0x002D      |          45 |
|       4 | 0x002A      |          42 |
|       5 | 0x1C74      |        7284 |
|       6 | 0x1C92      |        7314 |
|       7 | 0x1C99      |        7321 |
|       8 | 0x1CA2      |        7330 |
|       9 | 0x03BF      |         959 |
|      10 | 0x1CA3      |        7331 |
|      11 | 0x1CB5      |        7349 |
|      12 | 0x1CB6      |        7350 |
|      13 | 0x1CC9      |        7369 |
|      14 | 0x1CCA      |        7370 |
|      15 | 0x1CBD      |        7357 |
|      16 | 0x1CD6      |        7382 |
|      17 | 0x1CD7      |        7383 |
|      18 | 0x1CE0      |        7392 |
|      19 | 0x1CE1      |        7393 |
|      20 | 0x1CED      |        7405 |
|      21 | 0x1CEE      |        7406 |
|      22 | 0x1CF8      |        7416 |
|      23 | 0x1CF9      |        7417 |
|      24 | 0x1D01      |        7425 |
|      25 | 0x1D02      |        7426 |
|      26 | 0x1D08      |        7432 |
|      27 | 0x1D09      |        7433 |
|      28 | 0x1D14      |        7444 |
|      29 | 0x1D15      |        7445 |
|      30 | 0x1D1E      |        7454 |
|      31 | 0x1D1F      |        7455 |
|      32 | 0x1D22      |        7458 |
|      33 | 0x1D23      |        7459 |
|      34 | 0x220A      |        8714 |
|      35 | 0x220B      |        8715 |
|      36 | 0x2215      |        8725 |
|      37 | 0x2221      |        8737 |
|      38 | 0x2222      |        8738 |
|      39 | 0x222D      |        8749 |
|      40 | 0x222E      |        8750 |
|      41 | 0x2238      |        8760 |
|      42 | 0x2239      |        8761 |
|      43 | 0x2242      |        8770 |
|      44 | 0x2243      |        8771 |
|      45 | 0x224F      |        8783 |
|      46 | 0x2250      |        8784 |
|      47 | 0x2331      |        9009 |
|      48 | 0x0006      |           6 |
|      49 | 0x2332      |        9010 |
|      50 | 0x2337      |        9015 |
|      51 | 0x2338      |        9016 |
|      52 | 0x234B      |        9035 |
|      53 | 0x2355      |        9045 |
|      54 | 0x2356      |        9046 |
|      55 | 0xFFFF755A  |  4294931802 |
|      56 | 0x21487     |      136327 |
|      57 | 0xFFFFC181  |  4294951297 |
|      58 | 0x06A7      |        1703 |
|      59 | 0x000D      |          13 |
|      60 | 0xFFFF2796  |  4294911894 |
|      61 | 0x1E766     |      124774 |
|      62 | 0xFFFFCC6F  |  4294954095 |
|      63 | 0xFFFEC2B7  |  4294886071 |
|      64 | 0x1D9ED     |      121325 |
|      65 | 0xFFFFE8B3  |  4294961331 |
|      66 | 0x089B      |        2203 |

## String References

- **7284**: Help! I don't wantaruy be eaten by this angry Mithra womany! Please protectaruy me!
- **7314**: Gee...why didn'taruy they let me give you the mission briefingy? I'm sick of serving as the punching bag for this angry Mithra and her list of complaintaruys.
- **7321**: Somebody please do somethingy. I'm notaruy supposed to be the complaints desk, I'm supposed to be a hip and happening guardy!
- **7330**: Windurst Walls is the scariestaruy district of Windurstaruy. Mainly because it is filled with Mithra like this oney.
- **7331**: Ooopsy! I'm sorry! I didn'taruy mean to speak ill of the Mithra! Nice lady! Don'taruy bite me, lady!
- **7349**: Oh, greataruy! Now this Mithra woman is angry over the mission you were just assignedy.
- **7350**: Yes, we are providing notaruy only food, but weapons and armor, to the Yagudo. But such is the price of peacey.
- **7357**: You were promotarued to rank two? Boy, thataruy was quicky! Before I know it, you'll be a higher rank than me.
- **7369**: The books and scrolls made in Windurstaruy look justaruy like ordinary books and scrolls do. But what's inside is totally differentaruy!
- **7370**: It's kind of like the wands in the Mage Academy, in thataruy those library books are dangerous things to play withy. You simply don'taruy know what bizarre enchantment has been placed on themy.
- **7382**: Did you know thataruy the Principal of the School of Magic is the renowned Professor Koru-Moru?
- **7383**: Years ago, the person Professor Koru-Moru appointarued as his successor to become principal ran away. What an awkward position that put him iny.
- **7392**: Have you ever had the chance to talk to Ms. Kupipi up in the Clerical Chamber of Heavens Taruwer?
- **7393**: She may not look itaruy, but she has quite a noggin on her. Why, she's memorized all the names and faces of every guard and adventarurer in the whole of Windurstaruy!
- **7405**: Whenever you mention the Sibyl Guards to the other Mithra in this town, they screw their faces up into feline frowns.
- **7406**: Don'taruy ask me why... You'll have to find out for yourselfy. Just don'taruy ask that Mithra woman therey. She'll scratch your eyes out with her tempery!
- **7416**: Zubaba's been running things in Heavens Taruwer since the currentaruy Star Sibyl was a child...which makes her pretty old when you think aboutaruy ity!
- **7417**: It's a wonder she hasn'taruy become bored, locking herself up inside Heavens Taruwer for all that timey. I'm surprised she hasn'taruy turned into a mushroom by nowy!
- **7425**: The entrance to Heavens Taruwer is justaruy therey. Don'taruy stand out here wondering what to do. Hurry up and go insidey!
- **7426**: When you're up there in the Planetarium, could you please-blease make a wish for the peace of Windurstaruy?
- **7432**: The Minister of the Rhinostery, Ms. Rukususu, has come back to Windurstaruy.
- **7433**: Although she's been in the arctic for such a long time, she was still as beautaruful as every. Oh, gosh! I think I'm falling for hery...
- **7444**: I just overheard a littarul from the people coming out of Heavens Taruwer.
- **7445**: Sounds as if the very importarunt talisman that sealed away the spooky old lord of the beastmen has been stolen! Don'taruy tell me... You're being sent to retrieve it, rightaruy?
- **7454**: It seems thataruy the meeting of the five ministries ended all too soony.
- **7455**: Professor Koru-Moru turned up on time for once, and Minister Ajido-Marujido didn't even complainy! It was too quietaruy. I don'taruy like ity!
- **7458**: The ministaru of the Rhinostery, Ms. Rukususu, came out of Heavens Tower with the mostaruy cheerful look on her facey.
- **7459**: Now my heart, too, is as brightaruy and cheerful as Windurstaruy isy. There isn't a cloud in sightaruy nowy!
- **8714**: This is justaruy between you and me, but... I saw an adventurer passing throughy the Priming Gate here in Windurst Walls.
- **8715**: The Cardian guard justaruy let him throughy without a wordy. I guess thataruy means he had permission from Heavens Tower. I don'taruy really know, thoughy.
- **8725**: Minister Ajido-Marujido is notaruy as popular with the more hot-blooded Mithra as you would thinky.
- **8737**: The D-Dark D-Dungeon! Brrr, brrr, brrr!
- **8738**: I would rather becomey a guard in Windurst Woods than be throwny in there!
- **8749**: Have you heardy of the great genius Karaha-Baruha? Karaha-Baruha was the previous Minister of the Optistery.
- **8750**: In the northy of Windurst Walls you can find the House of the Hero. That is where the Ministers of the Optistery livey when they retirey. It's where Karaha-Baruha would have been livingy...
- **8760**: Speaking of the Rhinostery, how's Miss Kerutoto?
- **8761**: From the time she was a tiny Tarutaru, Kerutoto would come outy with the most frighteningy things all of a sudden. Such a strange little poppet.
- **8770**: I never went to schooly. But with all my intense training-waining, I've become a top-notchy guard.
- **8771**: I've even made friends with this Mithra lady-wady. All as a result of my hard worky and discipline!
- **8783**: Our biggest worry was Captain Rakoh Buuma in Windurst Woods. Being a Mithra, I didn'taru think she would understandy our desirey to help Minister Apururu.
- **8784**: But she was all for it! Now I think Mithra are the cat's pajamas!
- **9009**: I've heardy some disturbing rumors. Apparently Doctor Shantotto has been trying all sorts of things to rousey Ajido-Marujido from his slumbery...
- **9010**: The poor minister is probably in much more danger now than when he was languishingy in the Dark Dungeon... I'm terribly-werribly worried for him, but I'm petrifiedy of what I might see if I go to check!
- **9015**: The Orastery mages are relievedy that Minister Ajido-Marujido will be back to run the ministry just as he always has.
- **9016**: The boys in Operations were so afraidy that Doctor Shantotto would returny as minister, they started planning out Code E emergency procedures. ..Ahahaha... ...What? You think they were serious?
- **9035**: Oh, good griefy, the Mithra are getting all firedy up again. You can'taru mentiony the word "Yagudo" around them without sparks flying out of their ears!
- **9045**: Oh, <Player>! I heardy you were the one who saved the Star Sibyl!
- **9046**: Can I have your autography? It'll become a family heirloom! I'll keepy it locked in a treasure chest!

## Events

### Event 65535

#### Metadata

| Field        | Value   |
|--------------|---------|
| Entrypoint   | 0x0000  |
| Data Size    | 1 bytes |
| Instructions | 1       |

```
      00 01 02 03 04 05 06 07  08 09 0A 0B 0C 0D 0E 0F
      -- -- -- -- -- -- -- --  -- -- -- -- -- -- -- --
0000: 00                                                .               
```

#### Opcodes

```
  0: 0x0000 [0x00] END_REQSTACK()
```

### Event 65535.1

#### Metadata

| Field        | Value    |
|--------------|----------|
| Entrypoint   | 0x0001   |
| Data Size    | 16 bytes |
| Instructions | 2        |

```
      00 01 02 03 04 05 06 07  08 09 0A 0B 0C 0D 0E 0F
      -- -- -- -- -- -- -- --  -- -- -- -- -- -- -- --
0000:    66 00 80 F8 FF FF 7F  F8 FF FF 7F 74 6C 6B 30   f..........tlk0
0010: 00                                                .               
```

#### Opcodes

```
  0: 0x0001 [0x66] LOAD_EXT_SCHEDULER_MAIN: Load scheduler "tlk0" with entities [EventEntity, EventEntity], work=40*
  1: 0x0010 [0x00] END_REQSTACK()
```

### Event 65535.2

#### Metadata

| Field        | Value    |
|--------------|----------|
| Entrypoint   | 0x0011   |
| Data Size    | 22 bytes |
| Instructions | 4        |

```
      00 01 02 03 04 05 06 07  08 09 0A 0B 0C 0D 0E 0F
      -- -- -- -- -- -- -- --  -- -- -- -- -- -- -- --
0010:    53 F8 FF FF 7F F8 FF  FF 7F 74 6C 6B 30 5E 69   S........tlk0^i
0020: 64 6C 30 1C 01 80 00                              dl0....         
```

#### Opcodes

```
  0: 0x0011 [0x53] WAIT_SCHEDULER_TASK: Wait for scheduler "tlk0" with entities [EventEntity, EventEntity]
  1: 0x001E [0x5E] EventEntity goes idle (kills current action) (animation: "idl0")
  2: 0x0023 [0x1C] WAIT(30* ticks)
  3: 0x0026 [0x00] END_REQSTACK()
```

### Event 65535.3

#### Metadata

| Field        | Value    |
|--------------|----------|
| Entrypoint   | 0x0027   |
| Data Size    | 16 bytes |
| Instructions | 2        |

```
      00 01 02 03 04 05 06 07  08 09 0A 0B 0C 0D 0E 0F
      -- -- -- -- -- -- -- --  -- -- -- -- -- -- -- --
0020:                      66  00 80 F8 FF FF 7F F8 FF         f........
0030: FF 7F 74 68 6B 31 00                              ..thk1.         
```

#### Opcodes

```
  0: 0x0027 [0x66] LOAD_EXT_SCHEDULER_MAIN: Load scheduler "thk1" with entities [EventEntity, EventEntity], work=40*
  1: 0x0036 [0x00] END_REQSTACK()
```

### Event 65535.4

#### Metadata

| Field        | Value    |
|--------------|----------|
| Entrypoint   | 0x0037   |
| Data Size    | 14 bytes |
| Instructions | 2        |

```
      00 01 02 03 04 05 06 07  08 09 0A 0B 0C 0D 0E 0F
      -- -- -- -- -- -- -- --  -- -- -- -- -- -- -- --
0030:                      53  F8 FF FF 7F F8 FF FF 7F         S........
0040: 74 68 6B 31 00                                    thk1.           
```

#### Opcodes

```
  0: 0x0037 [0x53] WAIT_SCHEDULER_TASK: Wait for scheduler "thk1" with entities [EventEntity, EventEntity]
  1: 0x0044 [0x00] END_REQSTACK()
```

### Event 65535.5

#### Metadata

| Field        | Value    |
|--------------|----------|
| Entrypoint   | 0x0045   |
| Data Size    | 16 bytes |
| Instructions | 2        |

```
      00 01 02 03 04 05 06 07  08 09 0A 0B 0C 0D 0E 0F
      -- -- -- -- -- -- -- --  -- -- -- -- -- -- -- --
0040:                66 00 80  F8 FF FF 7F F8 FF FF 7F       f..........
0050: 74 68 6B 32 00                                    thk2.           
```

#### Opcodes

```
  0: 0x0045 [0x66] LOAD_EXT_SCHEDULER_MAIN: Load scheduler "thk2" with entities [EventEntity, EventEntity], work=40*
  1: 0x0054 [0x00] END_REQSTACK()
```

### Event 65535.6

#### Metadata

| Field        | Value    |
|--------------|----------|
| Entrypoint   | 0x0055   |
| Data Size    | 14 bytes |
| Instructions | 2        |

```
      00 01 02 03 04 05 06 07  08 09 0A 0B 0C 0D 0E 0F
      -- -- -- -- -- -- -- --  -- -- -- -- -- -- -- --
0050:                53 F8 FF  FF 7F F8 FF FF 7F 74 68       S........th
0060: 6B 32 00                                          k2.             
```

#### Opcodes

```
  0: 0x0055 [0x53] WAIT_SCHEDULER_TASK: Wait for scheduler "thk2" with entities [EventEntity, EventEntity]
  1: 0x0062 [0x00] END_REQSTACK()
```

### Event 65535.7

#### Metadata

| Field        | Value    |
|--------------|----------|
| Entrypoint   | 0x0063   |
| Data Size    | 16 bytes |
| Instructions | 2        |

```
      00 01 02 03 04 05 06 07  08 09 0A 0B 0C 0D 0E 0F
      -- -- -- -- -- -- -- --  -- -- -- -- -- -- -- --
0060:          66 00 80 F8 FF  FF 7F F8 FF FF 7F 6D 6F     f..........mo
0070: 6A 30 00                                          j0.             
```

#### Opcodes

```
  0: 0x0063 [0x66] LOAD_EXT_SCHEDULER_MAIN: Load scheduler "moj0" with entities [EventEntity, EventEntity], work=40*
  1: 0x0072 [0x00] END_REQSTACK()
```

### Event 65535.8

#### Metadata

| Field        | Value    |
|--------------|----------|
| Entrypoint   | 0x0073   |
| Data Size    | 22 bytes |
| Instructions | 4        |

```
      00 01 02 03 04 05 06 07  08 09 0A 0B 0C 0D 0E 0F
      -- -- -- -- -- -- -- --  -- -- -- -- -- -- -- --
0070:          53 F8 FF FF 7F  F8 FF FF 7F 6D 6F 6A 30     S........moj0
0080: 5E 69 64 6C 30 1C 01 80  00                       ^idl0....       
```

#### Opcodes

```
  0: 0x0073 [0x53] WAIT_SCHEDULER_TASK: Wait for scheduler "moj0" with entities [EventEntity, EventEntity]
  1: 0x0080 [0x5E] EventEntity goes idle (kills current action) (animation: "idl0")
  2: 0x0085 [0x1C] WAIT(30* ticks)
  3: 0x0088 [0x00] END_REQSTACK()
```

### Event 65535.9

#### Metadata

| Field        | Value    |
|--------------|----------|
| Entrypoint   | 0x0089   |
| Data Size    | 16 bytes |
| Instructions | 2        |

```
      00 01 02 03 04 05 06 07  08 09 0A 0B 0C 0D 0E 0F
      -- -- -- -- -- -- -- --  -- -- -- -- -- -- -- --
0080:                             66 02 80 F8 FF FF 7F           f......
0090: F8 FF FF 7F 73 68 6B 30  00                       ....shk0.       
```

#### Opcodes

```
  0: 0x0089 [0x66] LOAD_EXT_SCHEDULER_MAIN: Load scheduler "shk0" with entities [EventEntity, EventEntity], work=41*
  1: 0x0098 [0x00] END_REQSTACK()
```

### Event 65535.10

#### Metadata

| Field        | Value    |
|--------------|----------|
| Entrypoint   | 0x0099   |
| Data Size    | 14 bytes |
| Instructions | 2        |

```
      00 01 02 03 04 05 06 07  08 09 0A 0B 0C 0D 0E 0F
      -- -- -- -- -- -- -- --  -- -- -- -- -- -- -- --
0090:                             53 F8 FF FF 7F F8 FF           S......
00A0: FF 7F 73 68 6B 30 00                              ..shk0.         
```

#### Opcodes

```
  0: 0x0099 [0x53] WAIT_SCHEDULER_TASK: Wait for scheduler "shk0" with entities [EventEntity, EventEntity]
  1: 0x00A6 [0x00] END_REQSTACK()
```

### Event 65535.11

#### Metadata

| Field        | Value    |
|--------------|----------|
| Entrypoint   | 0x00A7   |
| Data Size    | 16 bytes |
| Instructions | 2        |

```
      00 01 02 03 04 05 06 07  08 09 0A 0B 0C 0D 0E 0F
      -- -- -- -- -- -- -- --  -- -- -- -- -- -- -- --
00A0:                      66  03 80 F8 FF FF 7F F8 FF         f........
00B0: FF 7F 73 6C 33 30 00                              ..sl30.         
```

#### Opcodes

```
  0: 0x00A7 [0x66] LOAD_EXT_SCHEDULER_MAIN: Load scheduler "sl30" with entities [EventEntity, EventEntity], work=45*
  1: 0x00B6 [0x00] END_REQSTACK()
```

### Event 65535.12

#### Metadata

| Field        | Value    |
|--------------|----------|
| Entrypoint   | 0x00B7   |
| Data Size    | 14 bytes |
| Instructions | 2        |

```
      00 01 02 03 04 05 06 07  08 09 0A 0B 0C 0D 0E 0F
      -- -- -- -- -- -- -- --  -- -- -- -- -- -- -- --
00B0:                      53  F8 FF FF 7F F8 FF FF 7F         S........
00C0: 73 6C 33 30 00                                    sl30.           
```

#### Opcodes

```
  0: 0x00B7 [0x53] WAIT_SCHEDULER_TASK: Wait for scheduler "sl30" with entities [EventEntity, EventEntity]
  1: 0x00C4 [0x00] END_REQSTACK()
```

### Event 65535.13

#### Metadata

| Field        | Value    |
|--------------|----------|
| Entrypoint   | 0x00C5   |
| Data Size    | 16 bytes |
| Instructions | 2        |

```
      00 01 02 03 04 05 06 07  08 09 0A 0B 0C 0D 0E 0F
      -- -- -- -- -- -- -- --  -- -- -- -- -- -- -- --
00C0:                66 00 80  F8 FF FF 7F F8 FF FF 7F       f..........
00D0: 77 61 69 30 00                                    wai0.           
```

#### Opcodes

```
  0: 0x00C5 [0x66] LOAD_EXT_SCHEDULER_MAIN: Load scheduler "wai0" with entities [EventEntity, EventEntity], work=40*
  1: 0x00D4 [0x00] END_REQSTACK()
```

### Event 65535.14

#### Metadata

| Field        | Value    |
|--------------|----------|
| Entrypoint   | 0x00D5   |
| Data Size    | 14 bytes |
| Instructions | 2        |

```
      00 01 02 03 04 05 06 07  08 09 0A 0B 0C 0D 0E 0F
      -- -- -- -- -- -- -- --  -- -- -- -- -- -- -- --
00D0:                53 F8 FF  FF 7F F8 FF FF 7F 77 61       S........wa
00E0: 69 30 00                                          i0.             
```

#### Opcodes

```
  0: 0x00D5 [0x53] WAIT_SCHEDULER_TASK: Wait for scheduler "wai0" with entities [EventEntity, EventEntity]
  1: 0x00E2 [0x00] END_REQSTACK()
```

### Event 65535.15

#### Metadata

| Field        | Value   |
|--------------|---------|
| Entrypoint   | 0x00E3  |
| Data Size    | 9 bytes |
| Instructions | 3       |

```
      00 01 02 03 04 05 06 07  08 09 0A 0B 0C 0D 0E 0F
      -- -- -- -- -- -- -- --  -- -- -- -- -- -- -- --
00E0:          5E 69 64 6C 30  1C 01 80 00                 ^idl0....    
```

#### Opcodes

```
  0: 0x00E3 [0x5E] EventEntity goes idle (kills current action) (animation: "idl0")
  1: 0x00E8 [0x1C] WAIT(30* ticks)
  2: 0x00EB [0x00] END_REQSTACK()
```

### Event 65535.16

#### Metadata

| Field        | Value    |
|--------------|----------|
| Entrypoint   | 0x00EC   |
| Data Size    | 16 bytes |
| Instructions | 2        |

```
      00 01 02 03 04 05 06 07  08 09 0A 0B 0C 0D 0E 0F
      -- -- -- -- -- -- -- --  -- -- -- -- -- -- -- --
00E0:                                      66 04 80 F8              f...
00F0: FF FF 7F F8 FF FF 7F 62  69 6B 30 00              .......bik0.    
```

#### Opcodes

```
  0: 0x00EC [0x66] LOAD_EXT_SCHEDULER_MAIN: Load scheduler "bik0" with entities [EventEntity, EventEntity], work=42*
  1: 0x00FB [0x00] END_REQSTACK()
```

### Event 65535.17

#### Metadata

| Field        | Value    |
|--------------|----------|
| Entrypoint   | 0x00FC   |
| Data Size    | 22 bytes |
| Instructions | 4        |

```
      00 01 02 03 04 05 06 07  08 09 0A 0B 0C 0D 0E 0F
      -- -- -- -- -- -- -- --  -- -- -- -- -- -- -- --
00F0:                                      53 F8 FF FF              S...
0100: 7F F8 FF FF 7F 62 69 6B  30 5E 69 64 6C 30 1C 01  .....bik0^idl0..
0110: 80 00                                             ..              
```

#### Opcodes

```
  0: 0x00FC [0x53] WAIT_SCHEDULER_TASK: Wait for scheduler "bik0" with entities [EventEntity, EventEntity]
  1: 0x0109 [0x5E] EventEntity goes idle (kills current action) (animation: "idl0")
  2: 0x010E [0x1C] WAIT(30* ticks)
  3: 0x0111 [0x00] END_REQSTACK()
```

### Event 65535.18

#### Metadata

| Field        | Value    |
|--------------|----------|
| Entrypoint   | 0x0112   |
| Data Size    | 16 bytes |
| Instructions | 2        |

```
      00 01 02 03 04 05 06 07  08 09 0A 0B 0C 0D 0E 0F
      -- -- -- -- -- -- -- --  -- -- -- -- -- -- -- --
0110:       66 00 80 F8 FF FF  7F F8 FF FF 7F 64 69 73    f..........dis
0120: 30 00                                             0.              
```

#### Opcodes

```
  0: 0x0112 [0x66] LOAD_EXT_SCHEDULER_MAIN: Load scheduler "dis0" with entities [EventEntity, EventEntity], work=40*
  1: 0x0121 [0x00] END_REQSTACK()
```

### Event 65535.19

#### Metadata

| Field        | Value    |
|--------------|----------|
| Entrypoint   | 0x0122   |
| Data Size    | 14 bytes |
| Instructions | 2        |

```
      00 01 02 03 04 05 06 07  08 09 0A 0B 0C 0D 0E 0F
      -- -- -- -- -- -- -- --  -- -- -- -- -- -- -- --
0120:       53 F8 FF FF 7F F8  FF FF 7F 64 69 73 30 00    S........dis0.
```

#### Opcodes

```
  0: 0x0122 [0x53] WAIT_SCHEDULER_TASK: Wait for scheduler "dis0" with entities [EventEntity, EventEntity]
  1: 0x012F [0x00] END_REQSTACK()
```

### Event 88

#### Metadata

| Field        | Value    |
|--------------|----------|
| Entrypoint   | 0x0130   |
| Data Size    | 29 bytes |
| Instructions | 10       |

```
      00 01 02 03 04 05 06 07  08 09 0A 0B 0C 0D 0E 0F
      -- -- -- -- -- -- -- --  -- -- -- -- -- -- -- --
0130: 1E F0 FF FF 7F 6F 70 29  08 0D F0 0E 01 07 1D 05  .....op)........
0140: 80 23 29 08 0D F0 0E 01  08 20 00 21 00           .#)...... .!.   
```

#### Opcodes

```
  0: 0x0130 [0x1E] EventEntity looks at LocalPlayer and starts talking
  1: 0x0135 [0x6F] WAIT_FRAME_DELAY: Yield until WaitTime reaches zero
  2: 0x0136 [0x70] WAIT_ENTITY_RENDER_FLAG: Wait while EventEntity->Render.Flags3 bit 2 is set (cancel turn if not)
  3: 0x0137 [0x29] REQ_SET_WAIT(priority=0x08, entity_id=Keo-Koruo (ID: 17756173/0x010EF00D), tag_num=0x07)
  4: 0x013E [0x1D] PRINT_EVENT_MESSAGE(message_id=7284*)
    → "Help! I don't wantaruy be eaten by this angry Mithra womany! Please protectaruy me!"
  5: 0x0141 [0x23] WAIT_FOR_DIALOG_INTERACTION
  6: 0x0142 [0x29] REQ_SET_WAIT(priority=0x08, entity_id=Keo-Koruo (ID: 17756173/0x010EF00D), tag_num=0x08)
  7: 0x0149 [0x20] SET_CLI_EVENT_UC_FLAG: Unlock player control
  8: 0x014B [0x21] END_EVENT
  9: 0x014C [0x00] END_REQSTACK()
```

### Event 96

#### Metadata

| Field        | Value   |
|--------------|---------|
| Entrypoint   | 0x014D  |
| Data Size    | 1 bytes |
| Instructions | 1       |

```
      00 01 02 03 04 05 06 07  08 09 0A 0B 0C 0D 0E 0F
      -- -- -- -- -- -- -- --  -- -- -- -- -- -- -- --
0140:                                         00                     .  
```

#### Opcodes

```
  0: 0x014D [0x00] END_REQSTACK()
```

### Event 100

#### Metadata

| Field        | Value    |
|--------------|----------|
| Entrypoint   | 0x014E   |
| Data Size    | 29 bytes |
| Instructions | 10       |

```
      00 01 02 03 04 05 06 07  08 09 0A 0B 0C 0D 0E 0F
      -- -- -- -- -- -- -- --  -- -- -- -- -- -- -- --
0140:                                            1E F0                ..
0150: FF FF 7F 6F 70 29 08 0D  F0 0E 01 07 1D 06 80 23  ...op).........#
0160: 29 08 0D F0 0E 01 08 20  00 21 00                 )...... .!.     
```

#### Opcodes

```
  0: 0x014E [0x1E] EventEntity looks at LocalPlayer and starts talking
  1: 0x0153 [0x6F] WAIT_FRAME_DELAY: Yield until WaitTime reaches zero
  2: 0x0154 [0x70] WAIT_ENTITY_RENDER_FLAG: Wait while EventEntity->Render.Flags3 bit 2 is set (cancel turn if not)
  3: 0x0155 [0x29] REQ_SET_WAIT(priority=0x08, entity_id=Keo-Koruo (ID: 17756173/0x010EF00D), tag_num=0x07)
  4: 0x015C [0x1D] PRINT_EVENT_MESSAGE(message_id=7314*)
    → "Gee...why didn'taruy they let me give you the mission briefingy? I'm sick of serving as the punching bag for this angry Mithra and her list of complaintaruys."
  5: 0x015F [0x23] WAIT_FOR_DIALOG_INTERACTION
  6: 0x0160 [0x29] REQ_SET_WAIT(priority=0x08, entity_id=Keo-Koruo (ID: 17756173/0x010EF00D), tag_num=0x08)
  7: 0x0167 [0x20] SET_CLI_EVENT_UC_FLAG: Unlock player control
  8: 0x0169 [0x21] END_EVENT
  9: 0x016A [0x00] END_REQSTACK()
```

### Event 105

#### Metadata

| Field        | Value    |
|--------------|----------|
| Entrypoint   | 0x016B   |
| Data Size    | 29 bytes |
| Instructions | 10       |

```
      00 01 02 03 04 05 06 07  08 09 0A 0B 0C 0D 0E 0F
      -- -- -- -- -- -- -- --  -- -- -- -- -- -- -- --
0160:                                   1E F0 FF FF 7F             .....
0170: 6F 70 29 08 0D F0 0E 01  07 1D 07 80 23 29 08 0D  op).........#)..
0180: F0 0E 01 08 20 00 21 00                           .... .!.        
```

#### Opcodes

```
  0: 0x016B [0x1E] EventEntity looks at LocalPlayer and starts talking
  1: 0x0170 [0x6F] WAIT_FRAME_DELAY: Yield until WaitTime reaches zero
  2: 0x0171 [0x70] WAIT_ENTITY_RENDER_FLAG: Wait while EventEntity->Render.Flags3 bit 2 is set (cancel turn if not)
  3: 0x0172 [0x29] REQ_SET_WAIT(priority=0x08, entity_id=Keo-Koruo (ID: 17756173/0x010EF00D), tag_num=0x07)
  4: 0x0179 [0x1D] PRINT_EVENT_MESSAGE(message_id=7321*)
    → "Somebody please do somethingy. I'm notaruy supposed to be the complaints desk, I'm supposed to be a hip and happening guardy!"
  5: 0x017C [0x23] WAIT_FOR_DIALOG_INTERACTION
  6: 0x017D [0x29] REQ_SET_WAIT(priority=0x08, entity_id=Keo-Koruo (ID: 17756173/0x010EF00D), tag_num=0x08)
  7: 0x0184 [0x20] SET_CLI_EVENT_UC_FLAG: Unlock player control
  8: 0x0186 [0x21] END_EVENT
  9: 0x0187 [0x00] END_REQSTACK()
```

### Event 108

#### Metadata

| Field        | Value    |
|--------------|----------|
| Entrypoint   | 0x0188   |
| Data Size    | 40 bytes |
| Instructions | 13       |

```
      00 01 02 03 04 05 06 07  08 09 0A 0B 0C 0D 0E 0F
      -- -- -- -- -- -- -- --  -- -- -- -- -- -- -- --
0180:                          1E F0 FF FF 7F 6F 70 29          .....op)
0190: 08 0D F0 0E 01 07 1D 08  80 23 29 08 0D F0 0E 01  .........#).....
01A0: 08 4B F8 FF FF 7F 09 80  1D 0A 80 23 20 00 21 00  .K.........# .!.
```

#### Opcodes

```
  0: 0x0188 [0x1E] EventEntity looks at LocalPlayer and starts talking
  1: 0x018D [0x6F] WAIT_FRAME_DELAY: Yield until WaitTime reaches zero
  2: 0x018E [0x70] WAIT_ENTITY_RENDER_FLAG: Wait while EventEntity->Render.Flags3 bit 2 is set (cancel turn if not)
  3: 0x018F [0x29] REQ_SET_WAIT(priority=0x08, entity_id=Keo-Koruo (ID: 17756173/0x010EF00D), tag_num=0x07)
  4: 0x0196 [0x1D] PRINT_EVENT_MESSAGE(message_id=7330*)
    → "Windurst Walls is the scariestaruy district of Windurstaruy. Mainly because it is filled with Mithra like this oney."
  5: 0x0199 [0x23] WAIT_FOR_DIALOG_INTERACTION
  6: 0x019A [0x29] REQ_SET_WAIT(priority=0x08, entity_id=Keo-Koruo (ID: 17756173/0x010EF00D), tag_num=0x08)
  7: 0x01A1 [0x4B] UPDATE_ENTITY_YAW(entity=EventEntity, yaw=5.3°*)
  8: 0x01A8 [0x1D] PRINT_EVENT_MESSAGE(message_id=7331*)
    → "Ooopsy! I'm sorry! I didn'taruy mean to speak ill of the Mithra! Nice lady! Don'taruy bite me, lady!"
  9: 0x01AB [0x23] WAIT_FOR_DIALOG_INTERACTION
 10: 0x01AC [0x20] SET_CLI_EVENT_UC_FLAG: Unlock player control
 11: 0x01AE [0x21] END_EVENT
 12: 0x01AF [0x00] END_REQSTACK()
```

### Event 114

#### Metadata

| Field        | Value    |
|--------------|----------|
| Entrypoint   | 0x01B0   |
| Data Size    | 33 bytes |
| Instructions | 12       |

```
      00 01 02 03 04 05 06 07  08 09 0A 0B 0C 0D 0E 0F
      -- -- -- -- -- -- -- --  -- -- -- -- -- -- -- --
01B0: 1E F0 FF FF 7F 6F 70 29  08 0D F0 0E 01 01 1D 0B  .....op)........
01C0: 80 23 1D 0C 80 23 29 08  0D F0 0E 01 0F 20 00 21  .#...#)...... .!
01D0: 00                                                .               
```

#### Opcodes

```
  0: 0x01B0 [0x1E] EventEntity looks at LocalPlayer and starts talking
  1: 0x01B5 [0x6F] WAIT_FRAME_DELAY: Yield until WaitTime reaches zero
  2: 0x01B6 [0x70] WAIT_ENTITY_RENDER_FLAG: Wait while EventEntity->Render.Flags3 bit 2 is set (cancel turn if not)
  3: 0x01B7 [0x29] REQ_SET_WAIT(priority=0x08, entity_id=Keo-Koruo (ID: 17756173/0x010EF00D), tag_num=0x01)
  4: 0x01BE [0x1D] PRINT_EVENT_MESSAGE(message_id=7349*)
    → "Oh, greataruy! Now this Mithra woman is angry over the mission you were just assignedy."
  5: 0x01C1 [0x23] WAIT_FOR_DIALOG_INTERACTION
  6: 0x01C2 [0x1D] PRINT_EVENT_MESSAGE(message_id=7350*)
    → "Yes, we are providing notaruy only food, but weapons and armor, to the Yagudo. But such is the price of peacey."
  7: 0x01C5 [0x23] WAIT_FOR_DIALOG_INTERACTION
  8: 0x01C6 [0x29] REQ_SET_WAIT(priority=0x08, entity_id=Keo-Koruo (ID: 17756173/0x010EF00D), tag_num=0x0F)
  9: 0x01CD [0x20] SET_CLI_EVENT_UC_FLAG: Unlock player control
 10: 0x01CF [0x21] END_EVENT
 11: 0x01D0 [0x00] END_REQSTACK()
```

### Event 123

#### Metadata

| Field        | Value    |
|--------------|----------|
| Entrypoint   | 0x01D1   |
| Data Size    | 33 bytes |
| Instructions | 12       |

```
      00 01 02 03 04 05 06 07  08 09 0A 0B 0C 0D 0E 0F
      -- -- -- -- -- -- -- --  -- -- -- -- -- -- -- --
01D0:    1E F0 FF FF 7F 6F 70  29 08 0D F0 0E 01 01 1D   .....op).......
01E0: 0D 80 23 1D 0E 80 23 29  08 0D F0 0E 01 0F 20 00  ..#...#)...... .
01F0: 21 00                                             !.              
```

#### Opcodes

```
  0: 0x01D1 [0x1E] EventEntity looks at LocalPlayer and starts talking
  1: 0x01D6 [0x6F] WAIT_FRAME_DELAY: Yield until WaitTime reaches zero
  2: 0x01D7 [0x70] WAIT_ENTITY_RENDER_FLAG: Wait while EventEntity->Render.Flags3 bit 2 is set (cancel turn if not)
  3: 0x01D8 [0x29] REQ_SET_WAIT(priority=0x08, entity_id=Keo-Koruo (ID: 17756173/0x010EF00D), tag_num=0x01)
  4: 0x01DF [0x1D] PRINT_EVENT_MESSAGE(message_id=7369*)
    → "The books and scrolls made in Windurstaruy look justaruy like ordinary books and scrolls do. But what's inside is totally differentaruy!"
  5: 0x01E2 [0x23] WAIT_FOR_DIALOG_INTERACTION
  6: 0x01E3 [0x1D] PRINT_EVENT_MESSAGE(message_id=7370*)
    → "It's kind of like the wands in the Mage Academy, in thataruy those library books are dangerous things to play withy. You simply don'taruy know what bizarre enchantment has been placed on themy."
  7: 0x01E6 [0x23] WAIT_FOR_DIALOG_INTERACTION
  8: 0x01E7 [0x29] REQ_SET_WAIT(priority=0x08, entity_id=Keo-Koruo (ID: 17756173/0x010EF00D), tag_num=0x0F)
  9: 0x01EE [0x20] SET_CLI_EVENT_UC_FLAG: Unlock player control
 10: 0x01F0 [0x21] END_EVENT
 11: 0x01F1 [0x00] END_REQSTACK()
```

### Event 118

#### Metadata

| Field        | Value    |
|--------------|----------|
| Entrypoint   | 0x01F2   |
| Data Size    | 29 bytes |
| Instructions | 10       |

```
      00 01 02 03 04 05 06 07  08 09 0A 0B 0C 0D 0E 0F
      -- -- -- -- -- -- -- --  -- -- -- -- -- -- -- --
01F0:       1E F0 FF FF 7F 6F  70 29 08 0D F0 0E 01 09    .....op)......
0200: 1D 0F 80 23 29 08 0D F0  0E 01 0F 20 00 21 00     ...#)...... .!. 
```

#### Opcodes

```
  0: 0x01F2 [0x1E] EventEntity looks at LocalPlayer and starts talking
  1: 0x01F7 [0x6F] WAIT_FRAME_DELAY: Yield until WaitTime reaches zero
  2: 0x01F8 [0x70] WAIT_ENTITY_RENDER_FLAG: Wait while EventEntity->Render.Flags3 bit 2 is set (cancel turn if not)
  3: 0x01F9 [0x29] REQ_SET_WAIT(priority=0x08, entity_id=Keo-Koruo (ID: 17756173/0x010EF00D), tag_num=0x09)
  4: 0x0200 [0x1D] PRINT_EVENT_MESSAGE(message_id=7357*)
    → "You were promotarued to rank two? Boy, thataruy was quicky! Before I know it, you'll be a higher rank than me."
  5: 0x0203 [0x23] WAIT_FOR_DIALOG_INTERACTION
  6: 0x0204 [0x29] REQ_SET_WAIT(priority=0x08, entity_id=Keo-Koruo (ID: 17756173/0x010EF00D), tag_num=0x0F)
  7: 0x020B [0x20] SET_CLI_EVENT_UC_FLAG: Unlock player control
  8: 0x020D [0x21] END_EVENT
  9: 0x020E [0x00] END_REQSTACK()
```

### Event 128

#### Metadata

| Field        | Value    |
|--------------|----------|
| Entrypoint   | 0x020F   |
| Data Size    | 33 bytes |
| Instructions | 12       |

```
      00 01 02 03 04 05 06 07  08 09 0A 0B 0C 0D 0E 0F
      -- -- -- -- -- -- -- --  -- -- -- -- -- -- -- --
0200:                                               1E                 .
0210: F0 FF FF 7F 6F 70 29 08  0D F0 0E 01 01 1D 10 80  ....op).........
0220: 23 1D 11 80 23 29 08 0D  F0 0E 01 0F 20 00 21 00  #...#)...... .!.
```

#### Opcodes

```
  0: 0x020F [0x1E] EventEntity looks at LocalPlayer and starts talking
  1: 0x0214 [0x6F] WAIT_FRAME_DELAY: Yield until WaitTime reaches zero
  2: 0x0215 [0x70] WAIT_ENTITY_RENDER_FLAG: Wait while EventEntity->Render.Flags3 bit 2 is set (cancel turn if not)
  3: 0x0216 [0x29] REQ_SET_WAIT(priority=0x08, entity_id=Keo-Koruo (ID: 17756173/0x010EF00D), tag_num=0x01)
  4: 0x021D [0x1D] PRINT_EVENT_MESSAGE(message_id=7382*)
    → "Did you know thataruy the Principal of the School of Magic is the renowned Professor Koru-Moru?"
  5: 0x0220 [0x23] WAIT_FOR_DIALOG_INTERACTION
  6: 0x0221 [0x1D] PRINT_EVENT_MESSAGE(message_id=7383*)
    → "Years ago, the person Professor Koru-Moru appointarued as his successor to become principal ran away. What an awkward position that put him iny."
  7: 0x0224 [0x23] WAIT_FOR_DIALOG_INTERACTION
  8: 0x0225 [0x29] REQ_SET_WAIT(priority=0x08, entity_id=Keo-Koruo (ID: 17756173/0x010EF00D), tag_num=0x0F)
  9: 0x022C [0x20] SET_CLI_EVENT_UC_FLAG: Unlock player control
 10: 0x022E [0x21] END_EVENT
 11: 0x022F [0x00] END_REQSTACK()
```

### Event 133

#### Metadata

| Field        | Value    |
|--------------|----------|
| Entrypoint   | 0x0230   |
| Data Size    | 47 bytes |
| Instructions | 14       |

```
      00 01 02 03 04 05 06 07  08 09 0A 0B 0C 0D 0E 0F
      -- -- -- -- -- -- -- --  -- -- -- -- -- -- -- --
0230: 1E F0 FF FF 7F 6F 70 29  08 0D F0 0E 01 07 1D 12  .....op)........
0240: 80 23 29 08 0D F0 0E 01  08 29 08 0D F0 0E 01 09  .#)......)......
0250: 1D 13 80 23 29 08 0D F0  0E 01 0A 20 00 21 00     ...#)...... .!. 
```

#### Opcodes

```
  0: 0x0230 [0x1E] EventEntity looks at LocalPlayer and starts talking
  1: 0x0235 [0x6F] WAIT_FRAME_DELAY: Yield until WaitTime reaches zero
  2: 0x0236 [0x70] WAIT_ENTITY_RENDER_FLAG: Wait while EventEntity->Render.Flags3 bit 2 is set (cancel turn if not)
  3: 0x0237 [0x29] REQ_SET_WAIT(priority=0x08, entity_id=Keo-Koruo (ID: 17756173/0x010EF00D), tag_num=0x07)
  4: 0x023E [0x1D] PRINT_EVENT_MESSAGE(message_id=7392*)
    → "Have you ever had the chance to talk to Ms. Kupipi up in the Clerical Chamber of Heavens Taruwer?"
  5: 0x0241 [0x23] WAIT_FOR_DIALOG_INTERACTION
  6: 0x0242 [0x29] REQ_SET_WAIT(priority=0x08, entity_id=Keo-Koruo (ID: 17756173/0x010EF00D), tag_num=0x08)
  7: 0x0249 [0x29] REQ_SET_WAIT(priority=0x08, entity_id=Keo-Koruo (ID: 17756173/0x010EF00D), tag_num=0x09)
  8: 0x0250 [0x1D] PRINT_EVENT_MESSAGE(message_id=7393*)
    → "She may not look itaruy, but she has quite a noggin on her. Why, she's memorized all the names and faces of every guard and adventarurer in the whole of Windurstaruy!"
  9: 0x0253 [0x23] WAIT_FOR_DIALOG_INTERACTION
 10: 0x0254 [0x29] REQ_SET_WAIT(priority=0x08, entity_id=Keo-Koruo (ID: 17756173/0x010EF00D), tag_num=0x0A)
 11: 0x025B [0x20] SET_CLI_EVENT_UC_FLAG: Unlock player control
 12: 0x025D [0x21] END_EVENT
 13: 0x025E [0x00] END_REQSTACK()
```

### Event 139

#### Metadata

| Field        | Value    |
|--------------|----------|
| Entrypoint   | 0x025F   |
| Data Size    | 33 bytes |
| Instructions | 12       |

```
      00 01 02 03 04 05 06 07  08 09 0A 0B 0C 0D 0E 0F
      -- -- -- -- -- -- -- --  -- -- -- -- -- -- -- --
0250:                                               1E                 .
0260: F0 FF FF 7F 6F 70 29 08  0D F0 0E 01 01 1D 14 80  ....op).........
0270: 23 1D 15 80 23 29 08 0D  F0 0E 01 0F 20 00 21 00  #...#)...... .!.
```

#### Opcodes

```
  0: 0x025F [0x1E] EventEntity looks at LocalPlayer and starts talking
  1: 0x0264 [0x6F] WAIT_FRAME_DELAY: Yield until WaitTime reaches zero
  2: 0x0265 [0x70] WAIT_ENTITY_RENDER_FLAG: Wait while EventEntity->Render.Flags3 bit 2 is set (cancel turn if not)
  3: 0x0266 [0x29] REQ_SET_WAIT(priority=0x08, entity_id=Keo-Koruo (ID: 17756173/0x010EF00D), tag_num=0x01)
  4: 0x026D [0x1D] PRINT_EVENT_MESSAGE(message_id=7405*)
    → "Whenever you mention the Sibyl Guards to the other Mithra in this town, they screw their faces up into feline frowns."
  5: 0x0270 [0x23] WAIT_FOR_DIALOG_INTERACTION
  6: 0x0271 [0x1D] PRINT_EVENT_MESSAGE(message_id=7406*)
    → "Don'taruy ask me why... You'll have to find out for yourselfy. Just don'taruy ask that Mithra woman therey. She'll scratch your eyes out with her tempery!"
  7: 0x0274 [0x23] WAIT_FOR_DIALOG_INTERACTION
  8: 0x0275 [0x29] REQ_SET_WAIT(priority=0x08, entity_id=Keo-Koruo (ID: 17756173/0x010EF00D), tag_num=0x0F)
  9: 0x027C [0x20] SET_CLI_EVENT_UC_FLAG: Unlock player control
 10: 0x027E [0x21] END_EVENT
 11: 0x027F [0x00] END_REQSTACK()
```

### Event 144

#### Metadata

| Field        | Value    |
|--------------|----------|
| Entrypoint   | 0x0280   |
| Data Size    | 33 bytes |
| Instructions | 12       |

```
      00 01 02 03 04 05 06 07  08 09 0A 0B 0C 0D 0E 0F
      -- -- -- -- -- -- -- --  -- -- -- -- -- -- -- --
0280: 1E F0 FF FF 7F 6F 70 29  08 0D F0 0E 01 09 1D 16  .....op)........
0290: 80 23 1D 17 80 23 29 08  0D F0 0E 01 0F 20 00 21  .#...#)...... .!
02A0: 00                                                .               
```

#### Opcodes

```
  0: 0x0280 [0x1E] EventEntity looks at LocalPlayer and starts talking
  1: 0x0285 [0x6F] WAIT_FRAME_DELAY: Yield until WaitTime reaches zero
  2: 0x0286 [0x70] WAIT_ENTITY_RENDER_FLAG: Wait while EventEntity->Render.Flags3 bit 2 is set (cancel turn if not)
  3: 0x0287 [0x29] REQ_SET_WAIT(priority=0x08, entity_id=Keo-Koruo (ID: 17756173/0x010EF00D), tag_num=0x09)
  4: 0x028E [0x1D] PRINT_EVENT_MESSAGE(message_id=7416*)
    → "Zubaba's been running things in Heavens Taruwer since the currentaruy Star Sibyl was a child...which makes her pretty old when you think aboutaruy ity!"
  5: 0x0291 [0x23] WAIT_FOR_DIALOG_INTERACTION
  6: 0x0292 [0x1D] PRINT_EVENT_MESSAGE(message_id=7417*)
    → "It's a wonder she hasn'taruy become bored, locking herself up inside Heavens Taruwer for all that timey. I'm surprised she hasn'taruy turned into a mushroom by nowy!"
  7: 0x0295 [0x23] WAIT_FOR_DIALOG_INTERACTION
  8: 0x0296 [0x29] REQ_SET_WAIT(priority=0x08, entity_id=Keo-Koruo (ID: 17756173/0x010EF00D), tag_num=0x0F)
  9: 0x029D [0x20] SET_CLI_EVENT_UC_FLAG: Unlock player control
 10: 0x029F [0x21] END_EVENT
 11: 0x02A0 [0x00] END_REQSTACK()
```

### Event 148

#### Metadata

| Field        | Value    |
|--------------|----------|
| Entrypoint   | 0x02A1   |
| Data Size    | 33 bytes |
| Instructions | 12       |

```
      00 01 02 03 04 05 06 07  08 09 0A 0B 0C 0D 0E 0F
      -- -- -- -- -- -- -- --  -- -- -- -- -- -- -- --
02A0:    1E F0 FF FF 7F 6F 70  29 08 0D F0 0E 01 01 1D   .....op).......
02B0: 18 80 23 1D 19 80 23 29  08 0D F0 0E 01 0F 20 00  ..#...#)...... .
02C0: 21 00                                             !.              
```

#### Opcodes

```
  0: 0x02A1 [0x1E] EventEntity looks at LocalPlayer and starts talking
  1: 0x02A6 [0x6F] WAIT_FRAME_DELAY: Yield until WaitTime reaches zero
  2: 0x02A7 [0x70] WAIT_ENTITY_RENDER_FLAG: Wait while EventEntity->Render.Flags3 bit 2 is set (cancel turn if not)
  3: 0x02A8 [0x29] REQ_SET_WAIT(priority=0x08, entity_id=Keo-Koruo (ID: 17756173/0x010EF00D), tag_num=0x01)
  4: 0x02AF [0x1D] PRINT_EVENT_MESSAGE(message_id=7425*)
    → "The entrance to Heavens Taruwer is justaruy therey. Don'taruy stand out here wondering what to do. Hurry up and go insidey!"
  5: 0x02B2 [0x23] WAIT_FOR_DIALOG_INTERACTION
  6: 0x02B3 [0x1D] PRINT_EVENT_MESSAGE(message_id=7426*)
    → "When you're up there in the Planetarium, could you please-blease make a wish for the peace of Windurstaruy?"
  7: 0x02B6 [0x23] WAIT_FOR_DIALOG_INTERACTION
  8: 0x02B7 [0x29] REQ_SET_WAIT(priority=0x08, entity_id=Keo-Koruo (ID: 17756173/0x010EF00D), tag_num=0x0F)
  9: 0x02BE [0x20] SET_CLI_EVENT_UC_FLAG: Unlock player control
 10: 0x02C0 [0x21] END_EVENT
 11: 0x02C1 [0x00] END_REQSTACK()
```

### Event 152

#### Metadata

| Field        | Value    |
|--------------|----------|
| Entrypoint   | 0x02C2   |
| Data Size    | 33 bytes |
| Instructions | 12       |

```
      00 01 02 03 04 05 06 07  08 09 0A 0B 0C 0D 0E 0F
      -- -- -- -- -- -- -- --  -- -- -- -- -- -- -- --
02C0:       1E F0 FF FF 7F 6F  70 29 08 0D F0 0E 01 01    .....op)......
02D0: 1D 1A 80 23 1D 1B 80 23  29 08 0D F0 0E 01 0F 20  ...#...#)...... 
02E0: 00 21 00                                          .!.             
```

#### Opcodes

```
  0: 0x02C2 [0x1E] EventEntity looks at LocalPlayer and starts talking
  1: 0x02C7 [0x6F] WAIT_FRAME_DELAY: Yield until WaitTime reaches zero
  2: 0x02C8 [0x70] WAIT_ENTITY_RENDER_FLAG: Wait while EventEntity->Render.Flags3 bit 2 is set (cancel turn if not)
  3: 0x02C9 [0x29] REQ_SET_WAIT(priority=0x08, entity_id=Keo-Koruo (ID: 17756173/0x010EF00D), tag_num=0x01)
  4: 0x02D0 [0x1D] PRINT_EVENT_MESSAGE(message_id=7432*)
    → "The Minister of the Rhinostery, Ms. Rukususu, has come back to Windurstaruy."
  5: 0x02D3 [0x23] WAIT_FOR_DIALOG_INTERACTION
  6: 0x02D4 [0x1D] PRINT_EVENT_MESSAGE(message_id=7433*)
    → "Although she's been in the arctic for such a long time, she was still as beautaruful as every. Oh, gosh! I think I'm falling for hery..."
  7: 0x02D7 [0x23] WAIT_FOR_DIALOG_INTERACTION
  8: 0x02D8 [0x29] REQ_SET_WAIT(priority=0x08, entity_id=Keo-Koruo (ID: 17756173/0x010EF00D), tag_num=0x0F)
  9: 0x02DF [0x20] SET_CLI_EVENT_UC_FLAG: Unlock player control
 10: 0x02E1 [0x21] END_EVENT
 11: 0x02E2 [0x00] END_REQSTACK()
```

### Event 156

#### Metadata

| Field        | Value    |
|--------------|----------|
| Entrypoint   | 0x02E3   |
| Data Size    | 33 bytes |
| Instructions | 12       |

```
      00 01 02 03 04 05 06 07  08 09 0A 0B 0C 0D 0E 0F
      -- -- -- -- -- -- -- --  -- -- -- -- -- -- -- --
02E0:          1E F0 FF FF 7F  6F 70 29 08 0D F0 0E 01     .....op).....
02F0: 07 1D 1C 80 23 1D 1D 80  23 29 08 0D F0 0E 01 0F  ....#...#)......
0300: 20 00 21 00                                        .!.            
```

#### Opcodes

```
  0: 0x02E3 [0x1E] EventEntity looks at LocalPlayer and starts talking
  1: 0x02E8 [0x6F] WAIT_FRAME_DELAY: Yield until WaitTime reaches zero
  2: 0x02E9 [0x70] WAIT_ENTITY_RENDER_FLAG: Wait while EventEntity->Render.Flags3 bit 2 is set (cancel turn if not)
  3: 0x02EA [0x29] REQ_SET_WAIT(priority=0x08, entity_id=Keo-Koruo (ID: 17756173/0x010EF00D), tag_num=0x07)
  4: 0x02F1 [0x1D] PRINT_EVENT_MESSAGE(message_id=7444*)
    → "I just overheard a littarul from the people coming out of Heavens Taruwer."
  5: 0x02F4 [0x23] WAIT_FOR_DIALOG_INTERACTION
  6: 0x02F5 [0x1D] PRINT_EVENT_MESSAGE(message_id=7445*)
    → "Sounds as if the very importarunt talisman that sealed away the spooky old lord of the beastmen has been stolen! Don'taruy tell me... You're being sent to retrieve it, rightaruy?"
  7: 0x02F8 [0x23] WAIT_FOR_DIALOG_INTERACTION
  8: 0x02F9 [0x29] REQ_SET_WAIT(priority=0x08, entity_id=Keo-Koruo (ID: 17756173/0x010EF00D), tag_num=0x0F)
  9: 0x0300 [0x20] SET_CLI_EVENT_UC_FLAG: Unlock player control
 10: 0x0302 [0x21] END_EVENT
 11: 0x0303 [0x00] END_REQSTACK()
```

### Event 160

#### Metadata

| Field        | Value    |
|--------------|----------|
| Entrypoint   | 0x0304   |
| Data Size    | 33 bytes |
| Instructions | 12       |

```
      00 01 02 03 04 05 06 07  08 09 0A 0B 0C 0D 0E 0F
      -- -- -- -- -- -- -- --  -- -- -- -- -- -- -- --
0300:             1E F0 FF FF  7F 6F 70 29 08 0D F0 0E      .....op)....
0310: 01 01 1D 1E 80 23 1D 1F  80 23 29 08 0D F0 0E 01  .....#...#).....
0320: 0F 20 00 21 00                                    . .!.           
```

#### Opcodes

```
  0: 0x0304 [0x1E] EventEntity looks at LocalPlayer and starts talking
  1: 0x0309 [0x6F] WAIT_FRAME_DELAY: Yield until WaitTime reaches zero
  2: 0x030A [0x70] WAIT_ENTITY_RENDER_FLAG: Wait while EventEntity->Render.Flags3 bit 2 is set (cancel turn if not)
  3: 0x030B [0x29] REQ_SET_WAIT(priority=0x08, entity_id=Keo-Koruo (ID: 17756173/0x010EF00D), tag_num=0x01)
  4: 0x0312 [0x1D] PRINT_EVENT_MESSAGE(message_id=7454*)
    → "It seems thataruy the meeting of the five ministries ended all too soony."
  5: 0x0315 [0x23] WAIT_FOR_DIALOG_INTERACTION
  6: 0x0316 [0x1D] PRINT_EVENT_MESSAGE(message_id=7455*)
    → "Professor Koru-Moru turned up on time for once, and Minister Ajido-Marujido didn't even complainy! It was too quietaruy. I don'taruy like ity!"
  7: 0x0319 [0x23] WAIT_FOR_DIALOG_INTERACTION
  8: 0x031A [0x29] REQ_SET_WAIT(priority=0x08, entity_id=Keo-Koruo (ID: 17756173/0x010EF00D), tag_num=0x0F)
  9: 0x0321 [0x20] SET_CLI_EVENT_UC_FLAG: Unlock player control
 10: 0x0323 [0x21] END_EVENT
 11: 0x0324 [0x00] END_REQSTACK()
```

### Event 162

#### Metadata

| Field        | Value    |
|--------------|----------|
| Entrypoint   | 0x0325   |
| Data Size    | 33 bytes |
| Instructions | 12       |

```
      00 01 02 03 04 05 06 07  08 09 0A 0B 0C 0D 0E 0F
      -- -- -- -- -- -- -- --  -- -- -- -- -- -- -- --
0320:                1E F0 FF  FF 7F 6F 70 29 08 0D F0       .....op)...
0330: 0E 01 01 1D 20 80 23 1D  21 80 23 29 08 0D F0 0E  .... .#.!.#)....
0340: 01 0F 20 00 21 00                                 .. .!.          
```

#### Opcodes

```
  0: 0x0325 [0x1E] EventEntity looks at LocalPlayer and starts talking
  1: 0x032A [0x6F] WAIT_FRAME_DELAY: Yield until WaitTime reaches zero
  2: 0x032B [0x70] WAIT_ENTITY_RENDER_FLAG: Wait while EventEntity->Render.Flags3 bit 2 is set (cancel turn if not)
  3: 0x032C [0x29] REQ_SET_WAIT(priority=0x08, entity_id=Keo-Koruo (ID: 17756173/0x010EF00D), tag_num=0x01)
  4: 0x0333 [0x1D] PRINT_EVENT_MESSAGE(message_id=7458*)
    → "The ministaru of the Rhinostery, Ms. Rukususu, came out of Heavens Tower with the mostaruy cheerful look on her facey."
  5: 0x0336 [0x23] WAIT_FOR_DIALOG_INTERACTION
  6: 0x0337 [0x1D] PRINT_EVENT_MESSAGE(message_id=7459*)
    → "Now my heart, too, is as brightaruy and cheerful as Windurstaruy isy. There isn't a cloud in sightaruy nowy!"
  7: 0x033A [0x23] WAIT_FOR_DIALOG_INTERACTION
  8: 0x033B [0x29] REQ_SET_WAIT(priority=0x08, entity_id=Keo-Koruo (ID: 17756173/0x010EF00D), tag_num=0x0F)
  9: 0x0342 [0x20] SET_CLI_EVENT_UC_FLAG: Unlock player control
 10: 0x0344 [0x21] END_EVENT
 11: 0x0345 [0x00] END_REQSTACK()
```

### Event 381

#### Metadata

| Field        | Value    |
|--------------|----------|
| Entrypoint   | 0x0346   |
| Data Size    | 33 bytes |
| Instructions | 12       |

```
      00 01 02 03 04 05 06 07  08 09 0A 0B 0C 0D 0E 0F
      -- -- -- -- -- -- -- --  -- -- -- -- -- -- -- --
0340:                   1E F0  FF FF 7F 6F 70 29 08 0D        .....op)..
0350: F0 0E 01 01 1D 22 80 23  1D 23 80 23 29 08 0D F0  .....".#.#.#)...
0360: 0E 01 02 20 00 21 00                              ... .!.         
```

#### Opcodes

```
  0: 0x0346 [0x1E] EventEntity looks at LocalPlayer and starts talking
  1: 0x034B [0x6F] WAIT_FRAME_DELAY: Yield until WaitTime reaches zero
  2: 0x034C [0x70] WAIT_ENTITY_RENDER_FLAG: Wait while EventEntity->Render.Flags3 bit 2 is set (cancel turn if not)
  3: 0x034D [0x29] REQ_SET_WAIT(priority=0x08, entity_id=Keo-Koruo (ID: 17756173/0x010EF00D), tag_num=0x01)
  4: 0x0354 [0x1D] PRINT_EVENT_MESSAGE(message_id=8714*)
    → "This is justaruy between you and me, but... I saw an adventurer passing throughy the Priming Gate here in Windurst Walls."
  5: 0x0357 [0x23] WAIT_FOR_DIALOG_INTERACTION
  6: 0x0358 [0x1D] PRINT_EVENT_MESSAGE(message_id=8715*)
    → "The Cardian guard justaruy let him throughy without a wordy. I guess thataruy means he had permission from Heavens Tower. I don'taruy really know, thoughy."
  7: 0x035B [0x23] WAIT_FOR_DIALOG_INTERACTION
  8: 0x035C [0x29] REQ_SET_WAIT(priority=0x08, entity_id=Keo-Koruo (ID: 17756173/0x010EF00D), tag_num=0x02)
  9: 0x0363 [0x20] SET_CLI_EVENT_UC_FLAG: Unlock player control
 10: 0x0365 [0x21] END_EVENT
 11: 0x0366 [0x00] END_REQSTACK()
```

### Event 353

#### Metadata

| Field        | Value    |
|--------------|----------|
| Entrypoint   | 0x0367   |
| Data Size    | 29 bytes |
| Instructions | 10       |

```
      00 01 02 03 04 05 06 07  08 09 0A 0B 0C 0D 0E 0F
      -- -- -- -- -- -- -- --  -- -- -- -- -- -- -- --
0360:                      1E  F0 FF FF 7F 6F 70 29 08         .....op).
0370: 0D F0 0E 01 01 1D 24 80  23 29 08 0D F0 0E 01 02  ......$.#)......
0380: 20 00 21 00                                        .!.            
```

#### Opcodes

```
  0: 0x0367 [0x1E] EventEntity looks at LocalPlayer and starts talking
  1: 0x036C [0x6F] WAIT_FRAME_DELAY: Yield until WaitTime reaches zero
  2: 0x036D [0x70] WAIT_ENTITY_RENDER_FLAG: Wait while EventEntity->Render.Flags3 bit 2 is set (cancel turn if not)
  3: 0x036E [0x29] REQ_SET_WAIT(priority=0x08, entity_id=Keo-Koruo (ID: 17756173/0x010EF00D), tag_num=0x01)
  4: 0x0375 [0x1D] PRINT_EVENT_MESSAGE(message_id=8725*)
    → "Minister Ajido-Marujido is notaruy as popular with the more hot-blooded Mithra as you would thinky."
  5: 0x0378 [0x23] WAIT_FOR_DIALOG_INTERACTION
  6: 0x0379 [0x29] REQ_SET_WAIT(priority=0x08, entity_id=Keo-Koruo (ID: 17756173/0x010EF00D), tag_num=0x02)
  7: 0x0380 [0x20] SET_CLI_EVENT_UC_FLAG: Unlock player control
  8: 0x0382 [0x21] END_EVENT
  9: 0x0383 [0x00] END_REQSTACK()
```

### Event 357

#### Metadata

| Field        | Value    |
|--------------|----------|
| Entrypoint   | 0x0384   |
| Data Size    | 47 bytes |
| Instructions | 14       |

```
      00 01 02 03 04 05 06 07  08 09 0A 0B 0C 0D 0E 0F
      -- -- -- -- -- -- -- --  -- -- -- -- -- -- -- --
0380:             1E F0 FF FF  7F 6F 70 29 08 0D F0 0E      .....op)....
0390: 01 09 1D 25 80 23 29 08  0D F0 0E 01 0A 29 08 0D  ...%.#)......)..
03A0: F0 0E 01 07 1D 26 80 23  29 08 0D F0 0E 01 08 20  .....&.#)...... 
03B0: 00 21 00                                          .!.             
```

#### Opcodes

```
  0: 0x0384 [0x1E] EventEntity looks at LocalPlayer and starts talking
  1: 0x0389 [0x6F] WAIT_FRAME_DELAY: Yield until WaitTime reaches zero
  2: 0x038A [0x70] WAIT_ENTITY_RENDER_FLAG: Wait while EventEntity->Render.Flags3 bit 2 is set (cancel turn if not)
  3: 0x038B [0x29] REQ_SET_WAIT(priority=0x08, entity_id=Keo-Koruo (ID: 17756173/0x010EF00D), tag_num=0x09)
  4: 0x0392 [0x1D] PRINT_EVENT_MESSAGE(message_id=8737*)
    → "The D-Dark D-Dungeon! Brrr, brrr, brrr!"
  5: 0x0395 [0x23] WAIT_FOR_DIALOG_INTERACTION
  6: 0x0396 [0x29] REQ_SET_WAIT(priority=0x08, entity_id=Keo-Koruo (ID: 17756173/0x010EF00D), tag_num=0x0A)
  7: 0x039D [0x29] REQ_SET_WAIT(priority=0x08, entity_id=Keo-Koruo (ID: 17756173/0x010EF00D), tag_num=0x07)
  8: 0x03A4 [0x1D] PRINT_EVENT_MESSAGE(message_id=8738*)
    → "I would rather becomey a guard in Windurst Woods than be throwny in there!"
  9: 0x03A7 [0x23] WAIT_FOR_DIALOG_INTERACTION
 10: 0x03A8 [0x29] REQ_SET_WAIT(priority=0x08, entity_id=Keo-Koruo (ID: 17756173/0x010EF00D), tag_num=0x08)
 11: 0x03AF [0x20] SET_CLI_EVENT_UC_FLAG: Unlock player control
 12: 0x03B1 [0x21] END_EVENT
 13: 0x03B2 [0x00] END_REQSTACK()
```

### Event 363

#### Metadata

| Field        | Value    |
|--------------|----------|
| Entrypoint   | 0x03B3   |
| Data Size    | 47 bytes |
| Instructions | 14       |

```
      00 01 02 03 04 05 06 07  08 09 0A 0B 0C 0D 0E 0F
      -- -- -- -- -- -- -- --  -- -- -- -- -- -- -- --
03B0:          1E F0 FF FF 7F  6F 70 29 08 0D F0 0E 01     .....op).....
03C0: 03 1D 27 80 23 29 08 0D  F0 0E 01 04 29 08 0D F0  ..'.#)......)...
03D0: 0E 01 05 1D 28 80 23 29  08 0D F0 0E 01 06 20 00  ....(.#)...... .
03E0: 21 00                                             !.              
```

#### Opcodes

```
  0: 0x03B3 [0x1E] EventEntity looks at LocalPlayer and starts talking
  1: 0x03B8 [0x6F] WAIT_FRAME_DELAY: Yield until WaitTime reaches zero
  2: 0x03B9 [0x70] WAIT_ENTITY_RENDER_FLAG: Wait while EventEntity->Render.Flags3 bit 2 is set (cancel turn if not)
  3: 0x03BA [0x29] REQ_SET_WAIT(priority=0x08, entity_id=Keo-Koruo (ID: 17756173/0x010EF00D), tag_num=0x03)
  4: 0x03C1 [0x1D] PRINT_EVENT_MESSAGE(message_id=8749*)
    → "Have you heardy of the great genius Karaha-Baruha? Karaha-Baruha was the previous Minister of the Optistery."
  5: 0x03C4 [0x23] WAIT_FOR_DIALOG_INTERACTION
  6: 0x03C5 [0x29] REQ_SET_WAIT(priority=0x08, entity_id=Keo-Koruo (ID: 17756173/0x010EF00D), tag_num=0x04)
  7: 0x03CC [0x29] REQ_SET_WAIT(priority=0x08, entity_id=Keo-Koruo (ID: 17756173/0x010EF00D), tag_num=0x05)
  8: 0x03D3 [0x1D] PRINT_EVENT_MESSAGE(message_id=8750*)
    → "In the northy of Windurst Walls you can find the House of the Hero. That is where the Ministers of the Optistery livey when they retirey. It's where Karaha-Baruha would have been livingy..."
  9: 0x03D6 [0x23] WAIT_FOR_DIALOG_INTERACTION
 10: 0x03D7 [0x29] REQ_SET_WAIT(priority=0x08, entity_id=Keo-Koruo (ID: 17756173/0x010EF00D), tag_num=0x06)
 11: 0x03DE [0x20] SET_CLI_EVENT_UC_FLAG: Unlock player control
 12: 0x03E0 [0x21] END_EVENT
 13: 0x03E1 [0x00] END_REQSTACK()
```

### Event 368

#### Metadata

| Field        | Value    |
|--------------|----------|
| Entrypoint   | 0x03E2   |
| Data Size    | 33 bytes |
| Instructions | 12       |

```
      00 01 02 03 04 05 06 07  08 09 0A 0B 0C 0D 0E 0F
      -- -- -- -- -- -- -- --  -- -- -- -- -- -- -- --
03E0:       1E F0 FF FF 7F 6F  70 29 08 0D F0 0E 01 01    .....op)......
03F0: 1D 29 80 23 1D 2A 80 23  29 08 0D F0 0E 01 02 20  .).#.*.#)...... 
0400: 00 21 00                                          .!.             
```

#### Opcodes

```
  0: 0x03E2 [0x1E] EventEntity looks at LocalPlayer and starts talking
  1: 0x03E7 [0x6F] WAIT_FRAME_DELAY: Yield until WaitTime reaches zero
  2: 0x03E8 [0x70] WAIT_ENTITY_RENDER_FLAG: Wait while EventEntity->Render.Flags3 bit 2 is set (cancel turn if not)
  3: 0x03E9 [0x29] REQ_SET_WAIT(priority=0x08, entity_id=Keo-Koruo (ID: 17756173/0x010EF00D), tag_num=0x01)
  4: 0x03F0 [0x1D] PRINT_EVENT_MESSAGE(message_id=8760*)
    → "Speaking of the Rhinostery, how's Miss Kerutoto?"
  5: 0x03F3 [0x23] WAIT_FOR_DIALOG_INTERACTION
  6: 0x03F4 [0x1D] PRINT_EVENT_MESSAGE(message_id=8761*)
    → "From the time she was a tiny Tarutaru, Kerutoto would come outy with the most frighteningy things all of a sudden. Such a strange little poppet."
  7: 0x03F7 [0x23] WAIT_FOR_DIALOG_INTERACTION
  8: 0x03F8 [0x29] REQ_SET_WAIT(priority=0x08, entity_id=Keo-Koruo (ID: 17756173/0x010EF00D), tag_num=0x02)
  9: 0x03FF [0x20] SET_CLI_EVENT_UC_FLAG: Unlock player control
 10: 0x0401 [0x21] END_EVENT
 11: 0x0402 [0x00] END_REQSTACK()
```

### Event 373

#### Metadata

| Field        | Value    |
|--------------|----------|
| Entrypoint   | 0x0403   |
| Data Size    | 40 bytes |
| Instructions | 13       |

```
      00 01 02 03 04 05 06 07  08 09 0A 0B 0C 0D 0E 0F
      -- -- -- -- -- -- -- --  -- -- -- -- -- -- -- --
0400:          1E F0 FF FF 7F  6F 70 29 08 0D F0 0E 01     .....op).....
0410: 01 1D 2B 80 23 29 08 0D  F0 0E 01 02 4B 0D F0 0E  ..+.#)......K...
0420: 01 09 80 1D 2C 80 23 20  00 21 00                 ....,.# .!.     
```

#### Opcodes

```
  0: 0x0403 [0x1E] EventEntity looks at LocalPlayer and starts talking
  1: 0x0408 [0x6F] WAIT_FRAME_DELAY: Yield until WaitTime reaches zero
  2: 0x0409 [0x70] WAIT_ENTITY_RENDER_FLAG: Wait while EventEntity->Render.Flags3 bit 2 is set (cancel turn if not)
  3: 0x040A [0x29] REQ_SET_WAIT(priority=0x08, entity_id=Keo-Koruo (ID: 17756173/0x010EF00D), tag_num=0x01)
  4: 0x0411 [0x1D] PRINT_EVENT_MESSAGE(message_id=8770*)
    → "I never went to schooly. But with all my intense training-waining, I've become a top-notchy guard."
  5: 0x0414 [0x23] WAIT_FOR_DIALOG_INTERACTION
  6: 0x0415 [0x29] REQ_SET_WAIT(priority=0x08, entity_id=Keo-Koruo (ID: 17756173/0x010EF00D), tag_num=0x02)
  7: 0x041C [0x4B] UPDATE_ENTITY_YAW(entity=Keo-Koruo (ID: 17756173/0x010EF00D), yaw=5.3°*)
  8: 0x0423 [0x1D] PRINT_EVENT_MESSAGE(message_id=8771*)
    → "I've even made friends with this Mithra lady-wady. All as a result of my hard worky and discipline!"
  9: 0x0426 [0x23] WAIT_FOR_DIALOG_INTERACTION
 10: 0x0427 [0x20] SET_CLI_EVENT_UC_FLAG: Unlock player control
 11: 0x0429 [0x21] END_EVENT
 12: 0x042A [0x00] END_REQSTACK()
```

### Event 378

#### Metadata

| Field        | Value    |
|--------------|----------|
| Entrypoint   | 0x042B   |
| Data Size    | 47 bytes |
| Instructions | 14       |

```
      00 01 02 03 04 05 06 07  08 09 0A 0B 0C 0D 0E 0F
      -- -- -- -- -- -- -- --  -- -- -- -- -- -- -- --
0420:                                   1E F0 FF FF 7F             .....
0430: 6F 70 29 08 0D F0 0E 01  01 1D 2D 80 23 29 08 0D  op).......-.#)..
0440: F0 0E 01 02 29 08 0D F0  0E 01 0D 1D 2E 80 23 29  ....).........#)
0450: 08 0D F0 0E 01 0E 20 00  21 00                    ...... .!.      
```

#### Opcodes

```
  0: 0x042B [0x1E] EventEntity looks at LocalPlayer and starts talking
  1: 0x0430 [0x6F] WAIT_FRAME_DELAY: Yield until WaitTime reaches zero
  2: 0x0431 [0x70] WAIT_ENTITY_RENDER_FLAG: Wait while EventEntity->Render.Flags3 bit 2 is set (cancel turn if not)
  3: 0x0432 [0x29] REQ_SET_WAIT(priority=0x08, entity_id=Keo-Koruo (ID: 17756173/0x010EF00D), tag_num=0x01)
  4: 0x0439 [0x1D] PRINT_EVENT_MESSAGE(message_id=8783*)
    → "Our biggest worry was Captain Rakoh Buuma in Windurst Woods. Being a Mithra, I didn'taru think she would understandy our desirey to help Minister Apururu."
  5: 0x043C [0x23] WAIT_FOR_DIALOG_INTERACTION
  6: 0x043D [0x29] REQ_SET_WAIT(priority=0x08, entity_id=Keo-Koruo (ID: 17756173/0x010EF00D), tag_num=0x02)
  7: 0x0444 [0x29] REQ_SET_WAIT(priority=0x08, entity_id=Keo-Koruo (ID: 17756173/0x010EF00D), tag_num=0x0D)
  8: 0x044B [0x1D] PRINT_EVENT_MESSAGE(message_id=8784*)
    → "But she was all for it! Now I think Mithra are the cat's pajamas!"
  9: 0x044E [0x23] WAIT_FOR_DIALOG_INTERACTION
 10: 0x044F [0x29] REQ_SET_WAIT(priority=0x08, entity_id=Keo-Koruo (ID: 17756173/0x010EF00D), tag_num=0x0E)
 11: 0x0456 [0x20] SET_CLI_EVENT_UC_FLAG: Unlock player control
 12: 0x0458 [0x21] END_EVENT
 13: 0x0459 [0x00] END_REQSTACK()
```

### Event 425

#### Metadata

| Field        | Value    |
|--------------|----------|
| Entrypoint   | 0x045A   |
| Data Size    | 45 bytes |
| Instructions | 14       |

```
      00 01 02 03 04 05 06 07  08 09 0A 0B 0C 0D 0E 0F
      -- -- -- -- -- -- -- --  -- -- -- -- -- -- -- --
0450:                                1E F0 FF FF 7F 6F            .....o
0460: 70 29 08 0D F0 0E 01 01  1D 2F 80 23 29 08 0D F0  p)......./.#)...
0470: 0E 01 02 6E F8 FF FF 7F  30 80 99 F8 FF FF 7F 1D  ...n....0.......
0480: 31 80 23 20 00 21 00                              1.# .!.         
```

#### Opcodes

```
  0: 0x045A [0x1E] EventEntity looks at LocalPlayer and starts talking
  1: 0x045F [0x6F] WAIT_FRAME_DELAY: Yield until WaitTime reaches zero
  2: 0x0460 [0x70] WAIT_ENTITY_RENDER_FLAG: Wait while EventEntity->Render.Flags3 bit 2 is set (cancel turn if not)
  3: 0x0461 [0x29] REQ_SET_WAIT(priority=0x08, entity_id=Keo-Koruo (ID: 17756173/0x010EF00D), tag_num=0x01)
  4: 0x0468 [0x1D] PRINT_EVENT_MESSAGE(message_id=9009*)
    → "I've heardy some disturbing rumors. Apparently Doctor Shantotto has been trying all sorts of things to rousey Ajido-Marujido from his slumbery..."
  5: 0x046B [0x23] WAIT_FOR_DIALOG_INTERACTION
  6: 0x046C [0x29] REQ_SET_WAIT(priority=0x08, entity_id=Keo-Koruo (ID: 17756173/0x010EF00D), tag_num=0x02)
  7: 0x0473 [0x6E] EventEntity uses emote 6*
  8: 0x047A [0x99] Wait for EventEntity animation to complete
  9: 0x047F [0x1D] PRINT_EVENT_MESSAGE(message_id=9010*)
    → "The poor minister is probably in much more danger now than when he was languishingy in the Dark Dungeon... I'm terribly-werribly worried for him, but I'm petrifiedy of what I might see if I go to check!"
 10: 0x0482 [0x23] WAIT_FOR_DIALOG_INTERACTION
 11: 0x0483 [0x20] SET_CLI_EVENT_UC_FLAG: Unlock player control
 12: 0x0485 [0x21] END_EVENT
 13: 0x0486 [0x00] END_REQSTACK()
```

### Event 433

#### Metadata

| Field        | Value    |
|--------------|----------|
| Entrypoint   | 0x0487   |
| Data Size    | 47 bytes |
| Instructions | 14       |

```
      00 01 02 03 04 05 06 07  08 09 0A 0B 0C 0D 0E 0F
      -- -- -- -- -- -- -- --  -- -- -- -- -- -- -- --
0480:                      1E  F0 FF FF 7F 6F 70 29 08         .....op).
0490: 0D F0 0E 01 12 1D 32 80  23 29 08 0D F0 0E 01 13  ......2.#)......
04A0: 29 08 0D F0 0E 01 10 1D  33 80 23 29 08 0D F0 0E  ).......3.#)....
04B0: 01 11 20 00 21 00                                 .. .!.          
```

#### Opcodes

```
  0: 0x0487 [0x1E] EventEntity looks at LocalPlayer and starts talking
  1: 0x048C [0x6F] WAIT_FRAME_DELAY: Yield until WaitTime reaches zero
  2: 0x048D [0x70] WAIT_ENTITY_RENDER_FLAG: Wait while EventEntity->Render.Flags3 bit 2 is set (cancel turn if not)
  3: 0x048E [0x29] REQ_SET_WAIT(priority=0x08, entity_id=Keo-Koruo (ID: 17756173/0x010EF00D), tag_num=0x12)
  4: 0x0495 [0x1D] PRINT_EVENT_MESSAGE(message_id=9015*)
    → "The Orastery mages are relievedy that Minister Ajido-Marujido will be back to run the ministry just as he always has."
  5: 0x0498 [0x23] WAIT_FOR_DIALOG_INTERACTION
  6: 0x0499 [0x29] REQ_SET_WAIT(priority=0x08, entity_id=Keo-Koruo (ID: 17756173/0x010EF00D), tag_num=0x13)
  7: 0x04A0 [0x29] REQ_SET_WAIT(priority=0x08, entity_id=Keo-Koruo (ID: 17756173/0x010EF00D), tag_num=0x10)
  8: 0x04A7 [0x1D] PRINT_EVENT_MESSAGE(message_id=9016*)
    → "The boys in Operations were so afraidy that Doctor Shantotto would returny as minister, they started planning out Code E emergency procedures. ..Ahahaha... ...What? You think they were serious?"
  9: 0x04AA [0x23] WAIT_FOR_DIALOG_INTERACTION
 10: 0x04AB [0x29] REQ_SET_WAIT(priority=0x08, entity_id=Keo-Koruo (ID: 17756173/0x010EF00D), tag_num=0x11)
 11: 0x04B2 [0x20] SET_CLI_EVENT_UC_FLAG: Unlock player control
 12: 0x04B4 [0x21] END_EVENT
 13: 0x04B5 [0x00] END_REQSTACK()
```

### Event 430

#### Metadata

| Field        | Value    |
|--------------|----------|
| Entrypoint   | 0x04B6   |
| Data Size    | 29 bytes |
| Instructions | 10       |

```
      00 01 02 03 04 05 06 07  08 09 0A 0B 0C 0D 0E 0F
      -- -- -- -- -- -- -- --  -- -- -- -- -- -- -- --
04B0:                   1E F0  FF FF 7F 6F 70 29 08 0D        .....op)..
04C0: F0 0E 01 10 1D 34 80 23  29 08 0D F0 0E 01 11 20  .....4.#)...... 
04D0: 00 21 00                                          .!.             
```

#### Opcodes

```
  0: 0x04B6 [0x1E] EventEntity looks at LocalPlayer and starts talking
  1: 0x04BB [0x6F] WAIT_FRAME_DELAY: Yield until WaitTime reaches zero
  2: 0x04BC [0x70] WAIT_ENTITY_RENDER_FLAG: Wait while EventEntity->Render.Flags3 bit 2 is set (cancel turn if not)
  3: 0x04BD [0x29] REQ_SET_WAIT(priority=0x08, entity_id=Keo-Koruo (ID: 17756173/0x010EF00D), tag_num=0x10)
  4: 0x04C4 [0x1D] PRINT_EVENT_MESSAGE(message_id=9035*)
    → "Oh, good griefy, the Mithra are getting all firedy up again. You can'taru mentiony the word "Yagudo" around them without sparks flying out of their ears!"
  5: 0x04C7 [0x23] WAIT_FOR_DIALOG_INTERACTION
  6: 0x04C8 [0x29] REQ_SET_WAIT(priority=0x08, entity_id=Keo-Koruo (ID: 17756173/0x010EF00D), tag_num=0x11)
  7: 0x04CF [0x20] SET_CLI_EVENT_UC_FLAG: Unlock player control
  8: 0x04D1 [0x21] END_EVENT
  9: 0x04D2 [0x00] END_REQSTACK()
```

### Event 437

#### Metadata

| Field        | Value    |
|--------------|----------|
| Entrypoint   | 0x04D3   |
| Data Size    | 47 bytes |
| Instructions | 14       |

```
      00 01 02 03 04 05 06 07  08 09 0A 0B 0C 0D 0E 0F
      -- -- -- -- -- -- -- --  -- -- -- -- -- -- -- --
04D0:          1E F0 FF FF 7F  6F 70 29 08 0D F0 0E 01     .....op).....
04E0: 10 1D 35 80 23 29 08 0D  F0 0E 01 11 29 08 0D F0  ..5.#)......)...
04F0: 0E 01 0D 1D 36 80 23 29  08 0D F0 0E 01 0E 20 00  ....6.#)...... .
0500: 21 00                                             !.              
```

#### Opcodes

```
  0: 0x04D3 [0x1E] EventEntity looks at LocalPlayer and starts talking
  1: 0x04D8 [0x6F] WAIT_FRAME_DELAY: Yield until WaitTime reaches zero
  2: 0x04D9 [0x70] WAIT_ENTITY_RENDER_FLAG: Wait while EventEntity->Render.Flags3 bit 2 is set (cancel turn if not)
  3: 0x04DA [0x29] REQ_SET_WAIT(priority=0x08, entity_id=Keo-Koruo (ID: 17756173/0x010EF00D), tag_num=0x10)
  4: 0x04E1 [0x1D] PRINT_EVENT_MESSAGE(message_id=9045*)
    → "Oh, <Player>! I heardy you were the one who saved the Star Sibyl!"
  5: 0x04E4 [0x23] WAIT_FOR_DIALOG_INTERACTION
  6: 0x04E5 [0x29] REQ_SET_WAIT(priority=0x08, entity_id=Keo-Koruo (ID: 17756173/0x010EF00D), tag_num=0x11)
  7: 0x04EC [0x29] REQ_SET_WAIT(priority=0x08, entity_id=Keo-Koruo (ID: 17756173/0x010EF00D), tag_num=0x0D)
  8: 0x04F3 [0x1D] PRINT_EVENT_MESSAGE(message_id=9046*)
    → "Can I have your autography? It'll become a family heirloom! I'll keepy it locked in a treasure chest!"
  9: 0x04F6 [0x23] WAIT_FOR_DIALOG_INTERACTION
 10: 0x04F7 [0x29] REQ_SET_WAIT(priority=0x08, entity_id=Keo-Koruo (ID: 17756173/0x010EF00D), tag_num=0x0E)
 11: 0x04FE [0x20] SET_CLI_EVENT_UC_FLAG: Unlock player control
 12: 0x0500 [0x21] END_EVENT
 13: 0x0501 [0x00] END_REQSTACK()
```

### Event 443

#### Metadata

| Field        | Value   |
|--------------|---------|
| Entrypoint   | 0x0502  |
| Data Size    | 7 bytes |
| Instructions | 2       |

```
      00 01 02 03 04 05 06 07  08 09 0A 0B 0C 0D 0E 0F
      -- -- -- -- -- -- -- --  -- -- -- -- -- -- -- --
0500:       92 01 F8 FF FF 7F  00                         .......       
```

#### Opcodes

```
  0: 0x0502 [0x92] EventEntity->Render.Flags3 ^= 0x01
  1: 0x0508 [0x00] END_REQSTACK()
```

### Event 65535.20

#### Metadata

| Field        | Value    |
|--------------|----------|
| Entrypoint   | 0x0509   |
| Data Size    | 10 bytes |
| Instructions | 2        |

```
      00 01 02 03 04 05 06 07  08 09 0A 0B 0C 0D 0E 0F
      -- -- -- -- -- -- -- --  -- -- -- -- -- -- -- --
0500:                             37 37 80 38 80 39 80           77.8.9.
0510: 3A 80 00                                          :..             
```

#### Opcodes

```
  0: 0x0509 [0x37] UPDATE_EVENT_POSITION_AND_DIR: x=-35.494*, z=136.327*, y=-15.999*, direction=149.7°*
  1: 0x0512 [0x00] END_REQSTACK()
```

### Event 65535.21

#### Metadata

| Field        | Value    |
|--------------|----------|
| Entrypoint   | 0x0513   |
| Data Size    | 14 bytes |
| Instructions | 4        |

```
      00 01 02 03 04 05 06 07  08 09 0A 0B 0C 0D 0E 0F
      -- -- -- -- -- -- -- --  -- -- -- -- -- -- -- --
0510:          32 3B 80 5A 00  3C 80 3D 80 3E 80 5A 01     2;.Z.<.=.>.Z.
0520: 00                                                .               
```

#### Opcodes

```
  0: 0x0513 [0x32] ExtData[1]->MainSpeed = 13* * 0.1
  1: 0x0516 [0x5A] UPDATE_EVENT_POSITION: Set EventEntity MovePosition to X=-55.402*, Z=124.774*, Y=-13.201*
  2: 0x051E [0x5A] UPDATE_EVENT_POSITION: Move EventEntity incrementally towards MovePosition
  3: 0x0520 [0x00] END_REQSTACK()
```

### Event 65535.22

#### Metadata

| Field        | Value    |
|--------------|----------|
| Entrypoint   | 0x0521   |
| Data Size    | 10 bytes |
| Instructions | 2        |

```
      00 01 02 03 04 05 06 07  08 09 0A 0B 0C 0D 0E 0F
      -- -- -- -- -- -- -- --  -- -- -- -- -- -- -- --
0520:    37 3F 80 40 80 41 80  42 80 00                  7?.@.A.B..     
```

#### Opcodes

```
  0: 0x0521 [0x37] UPDATE_EVENT_POSITION_AND_DIR: x=-81.225*, z=121.325*, y=-5.965*, direction=193.6°*
  1: 0x052A [0x00] END_REQSTACK()
```
