# 17756174 - Chawo Shipeynyo

## Common Data

| Field            | Value                    |
|------------------|--------------------------|
| Zone             | Windurst Walls (ID: 239) |
| Block Size       | 1100 bytes               |
| Total Events     | 27                       |
| References Count | 47                       |

## List of Events

| Event ID                 | Entrypoint   |   Size |   Instructions |
|--------------------------|--------------|--------|----------------|
| [65535](#event-65535)    | 0x0000       |      1 |              1 |
| [65535.1](#event-655351) | 0x0001       |     22 |              3 |
| [65535.2](#event-655352) | 0x0017       |     15 |              4 |
| [65535.3](#event-655353) | 0x0026       |     15 |              4 |
| [329](#event-329)        | 0x0035       |     26 |              9 |
| [110](#event-110)        | 0x004F       |     22 |              7 |
| [115](#event-115)        | 0x0065       |     41 |             11 |
| [120](#event-120)        | 0x008E       |     41 |             11 |
| [125](#event-125)        | 0x00B7       |     41 |             11 |
| [130](#event-130)        | 0x00E0       |     41 |             11 |
| [135](#event-135)        | 0x0109       |     41 |             11 |
| [140](#event-140)        | 0x0132       |     41 |             11 |
| [149](#event-149)        | 0x015B       |     37 |              9 |
| [382](#event-382)        | 0x0180       |     36 |             10 |
| [354](#event-354)        | 0x01A4       |     26 |              9 |
| [359](#event-359)        | 0x01BE       |     22 |              7 |
| [364](#event-364)        | 0x01D4       |     36 |             10 |
| [369](#event-369)        | 0x01F8       |     36 |             10 |
| [374](#event-374)        | 0x021C       |     36 |             10 |
| [379](#event-379)        | 0x0240       |     32 |              8 |
| [426](#event-426)        | 0x0260       |     36 |             10 |
| [434](#event-434)        | 0x0284       |     36 |             10 |
| [431](#event-431)        | 0x02A8       |     40 |             12 |
| [438](#event-438)        | 0x02D0       |     36 |             10 |
| [443](#event-443)        | 0x02F4       |      7 |              2 |
| [65535.4](#event-655354) | 0x02FB       |     10 |              2 |
| [65535.5](#event-655355) | 0x0305       |     14 |              4 |

## DAT References (imed_data)

|   Index | Hex Value   |   Dec Value |
|---------|-------------|-------------|
|       0 | 0x016F      |         367 |
|       1 | 0x001E      |          30 |
|       2 | 0x1F10      |        7952 |
|       3 | 0x1F11      |        7953 |
|       4 | 0x1CA6      |        7334 |
|       5 | 0x1CB7      |        7351 |
|       6 | 0x1CB8      |        7352 |
|       7 | 0x1CBF      |        7359 |
|       8 | 0x1CC0      |        7360 |
|       9 | 0x1CCD      |        7373 |
|      10 | 0x1CCE      |        7374 |
|      11 | 0x1CDA      |        7386 |
|      12 | 0x1CDB      |        7387 |
|      13 | 0x1CE4      |        7396 |
|      14 | 0x1CE5      |        7397 |
|      15 | 0x1CEF      |        7407 |
|      16 | 0x1CF0      |        7408 |
|      17 | 0x1D03      |        7427 |
|      18 | 0x220C      |        8716 |
|      19 | 0x220D      |        8717 |
|      20 | 0x2216      |        8726 |
|      21 | 0x2217      |        8727 |
|      22 | 0x2225      |        8741 |
|      23 | 0x222F      |        8751 |
|      24 | 0x2230      |        8752 |
|      25 | 0x223A      |        8762 |
|      26 | 0x223B      |        8763 |
|      27 | 0x2244      |        8772 |
|      28 | 0x2245      |        8773 |
|      29 | 0x2251      |        8785 |
|      30 | 0x2333      |        9011 |
|      31 | 0x2334      |        9012 |
|      32 | 0x2339      |        9017 |
|      33 | 0x233A      |        9018 |
|      34 | 0x234C      |        9036 |
|      35 | 0x234D      |        9037 |
|      36 | 0x234E      |        9038 |
|      37 | 0x2357      |        9047 |
|      38 | 0x2358      |        9048 |
|      39 | 0xFFFF74C8  |  4294931656 |
|      40 | 0x21757     |      137047 |
|      41 | 0xFFFFC180  |  4294951296 |
|      42 | 0x0415      |        1045 |
|      43 | 0x000D      |          13 |
|      44 | 0xFFFEFF1C  |  4294901532 |
|      45 | 0x1C453     |      115795 |
|      46 | 0xFFFFD7FB  |  4294957051 |

## String References

- **7334**: What's that you said? Don't you darrre rrrepeat that!
- **7351**: Don't you dare tell me you agrrreed to that mission of carrying offerrrings to the beastmen in Giddeus!?
- **7352**: Grrr... And you think I'm going to stand by and let you do that without giving you a piece of my mind!?
- **7359**: I don't give a damn whetherrr you went up to rrrank two or not.
- **7360**: I only wish you'd hurry up and make these slackerrrs underrrstand just how overrrly apathetic and laid-back Windurst has become.
- **7373**: A-hah!? Magic books, eh? I once hearrrd from someone that there was an uproarrr when a magic book fell into the hands of the Yagudo.
- **7374**: But that's beside the point. For crrrying out loud...would you shorrrties get out of my way and let me meet the Starrr Sibyl?
- **7386**: If you have enough time on yourrr hands to do that silly mission, why don't you lend us Mithra a hand forrr a change?
- **7387**: Oh, come on. Give me a brrreak! Grrr...I've had it with these guarrrds!
- **7396**: Hey! Just wherrre are you heading now?
- **7397**: Well, when you speak to the Tarutaru inside of herrre, tell them to go see forrr themselves just how equipped otherrr countries are to fight off the beastmen.
- **7407**: I hearrrd that! You'rrre talking about the Sibyl Guards, rrright?
- **7408**: They'rrre no Mithra, that mob. They werrre rrraised by the Tarutaru, so they have lost theirrr Mithran spirit! Why, they'rrre nothing more than a band of traitorrrs!
- **7427**: What's all the rrruckus about? Has something happened in Heavens Towerrr?
- **7952**: I came herrre to give that Star Sibyl a piece of my mind! Why do we have to be frrriends with those filthy Yagudo?
- **7953**: They continue rrravaging the countryside just because no one herrre in Windurst has the guts to stand up to them!
- **8716**: I've been thinking that the Star Sibyl must have some kind of strrrategy in mind for dealing with those treacherous Yagudo.
- **8717**: This whole "Okay, here's your tribute!" facade is just a stalling tactic. Or at least, that's what I'd like to think.
- **8726**: Ajido-Marujido? Yeah, I know him. He's the one that's always looking for Nanaa Mihgo.
- **8727**: I don't want anything to do with lowlives who willingly deal with the Cat Burrrglar.
- **8741**: What did you just say? You wanna try rrrepeating that?
- **8751**: I was told a lot of stories about the Grrreat War as a child, but only those that centered on Chieftainness Perih Vashai.
- **8752**: Although I did hear a story that Windurst was saved by a grrreat light that flowed out from the magic towers. I wonder what could've caused that light?
- **8762**: The Rhinostery? They have a long history with the Mithra.
- **8763**: Didn't you know? The first Tarutaru to visit us in our southern homeland were researchers from the Rhinostery.
- **8772**: I've just given in. Every time I talk to these little Tarutaru, I just can't seem to keep the edge on my words. I've lost my bite completely.
- **8773**: Maybe I need to focus myself and rrredo my basic training...
- **8785**: I don't want to burst their bubble, but I think the reason Captain Buuma is helping the Tarutaru is because she wants to tick off the Sibyl Guards.
- **9011**: You know, I've been thinking. If the Sibyl Guards are orrrphans of the Great War, then wouldn't they hate the Yagudo even more than us other Mithra?
- **9012**: I suppose that as a race, the Mithra don't hold much with grrrudges. Maybe their anger has cooled off over the years?
- **9017**: Chieftainness Perih Vashai is to seek an audience with the Star Sibyl concerning the events surrounding Orastery minister Ajido-Marujido.
- **9018**: Don't get me wrong--it's not like the chieftainness is a close friend of the minister or anything. These events have set something in motion. And I think we're about to find out what that something is...
- **9036**: Those black-blooded, back-stabbing Yagudo scum! We Mithra should wipe out the entire rrrace!
- **9037**: What is the Star Sibyl afrrraid of? Taking rrresponsiblity for a war? That Windurst would lose?
- **9038**: If fighting brrreaks out on the streets like it did twenty years ago, we should just blast the hell out of 'em with that summoning magic stuff.
- **9047**: We Mithra are going to be rrrunning wild in Windurst Woods again, so don't forget to stop by. Oh, and before you go...
- **9048**: ...can I have your autograph?

## Events

### Event 65535

#### Metadata

| Field        | Value   |
|--------------|---------|
| Entrypoint   | 0x0000  |
| Data Size    | 1 bytes |
| Instructions | 1       |

```
      00 01 02 03 04 05 06 07  08 09 0A 0B 0C 0D 0E 0F
      -- -- -- -- -- -- -- --  -- -- -- -- -- -- -- --
0000: 00                                                .               
```

#### Opcodes

```
  0: 0x0000 [0x00] END_REQSTACK()
```

### Event 65535.1

#### Metadata

| Field        | Value    |
|--------------|----------|
| Entrypoint   | 0x0001   |
| Data Size    | 22 bytes |
| Instructions | 3        |

```
      00 01 02 03 04 05 06 07  08 09 0A 0B 0C 0D 0E 0F
      -- -- -- -- -- -- -- --  -- -- -- -- -- -- -- --
0000:    81 00 F8 FF FF 7F 5B  00 80 F8 FF FF 7F F8 FF   ......[........
0010: FF 7F 74 6C 6B 30 00                              ..tlk0.         
```

#### Opcodes

```
  0: 0x0001 [0x81] SET_ENTITY_BLINKING(blink_flag=0x00, entity=EventEntity)
  1: 0x0007 [0x5B] LOAD_EXT_SCHEDULER: Load scheduler "tlk0" with entities [EventEntity, EventEntity], work=367*
  2: 0x0016 [0x00] END_REQSTACK()
```

### Event 65535.2

#### Metadata

| Field        | Value    |
|--------------|----------|
| Entrypoint   | 0x0017   |
| Data Size    | 15 bytes |
| Instructions | 4        |

```
      00 01 02 03 04 05 06 07  08 09 0A 0B 0C 0D 0E 0F
      -- -- -- -- -- -- -- --  -- -- -- -- -- -- -- --
0010:                      5E  69 64 6C 30 1C 01 80 81         ^idl0....
0020: 01 F8 FF FF 7F 00                                 ......          
```

#### Opcodes

```
  0: 0x0017 [0x5E] EventEntity goes idle (kills current action) (animation: "idl0")
  1: 0x001C [0x1C] WAIT(30* ticks)
  2: 0x001F [0x81] SET_ENTITY_BLINKING(blink_flag=0x01, entity=EventEntity)
  3: 0x0025 [0x00] END_REQSTACK()
```

### Event 65535.3

#### Metadata

| Field        | Value    |
|--------------|----------|
| Entrypoint   | 0x0026   |
| Data Size    | 15 bytes |
| Instructions | 4        |

```
      00 01 02 03 04 05 06 07  08 09 0A 0B 0C 0D 0E 0F
      -- -- -- -- -- -- -- --  -- -- -- -- -- -- -- --
0020:                   5E 69  64 6C 30 1C 01 80 81 01        ^idl0.....
0030: F8 FF FF 7F 00                                    .....           
```

#### Opcodes

```
  0: 0x0026 [0x5E] EventEntity goes idle (kills current action) (animation: "idl0")
  1: 0x002B [0x1C] WAIT(30* ticks)
  2: 0x002E [0x81] SET_ENTITY_BLINKING(blink_flag=0x01, entity=EventEntity)
  3: 0x0034 [0x00] END_REQSTACK()
```

### Event 329

#### Metadata

| Field        | Value    |
|--------------|----------|
| Entrypoint   | 0x0035   |
| Data Size    | 26 bytes |
| Instructions | 9        |

```
      00 01 02 03 04 05 06 07  08 09 0A 0B 0C 0D 0E 0F
      -- -- -- -- -- -- -- --  -- -- -- -- -- -- -- --
0030:                29 0B 0E  F0 0E 01 01 1D 02 80 23       ).........#
0040: 1D 03 80 23 29 0B 0E F0  0E 01 03 20 00 21 00     ...#)...... .!. 
```

#### Opcodes

```
  0: 0x0035 [0x29] REQ_SET_WAIT(priority=0x0B, entity_id=Chawo Shipeynyo (ID: 17756174/0x010EF00E), tag_num=0x01)
  1: 0x003C [0x1D] PRINT_EVENT_MESSAGE(message_id=7952*)
    → "I came herrre to give that Star Sibyl a piece of my mind! Why do we have to be frrriends with those filthy Yagudo?"
  2: 0x003F [0x23] WAIT_FOR_DIALOG_INTERACTION
  3: 0x0040 [0x1D] PRINT_EVENT_MESSAGE(message_id=7953*)
    → "They continue rrravaging the countryside just because no one herrre in Windurst has the guts to stand up to them!"
  4: 0x0043 [0x23] WAIT_FOR_DIALOG_INTERACTION
  5: 0x0044 [0x29] REQ_SET_WAIT(priority=0x0B, entity_id=Chawo Shipeynyo (ID: 17756174/0x010EF00E), tag_num=0x03)
  6: 0x004B [0x20] SET_CLI_EVENT_UC_FLAG: Unlock player control
  7: 0x004D [0x21] END_EVENT
  8: 0x004E [0x00] END_REQSTACK()
```

### Event 110

#### Metadata

| Field        | Value    |
|--------------|----------|
| Entrypoint   | 0x004F   |
| Data Size    | 22 bytes |
| Instructions | 7        |

```
      00 01 02 03 04 05 06 07  08 09 0A 0B 0C 0D 0E 0F
      -- -- -- -- -- -- -- --  -- -- -- -- -- -- -- --
0040:                                               29                 )
0050: 0B 0E F0 0E 01 01 1D 04  80 23 29 0B 0E F0 0E 01  .........#).....
0060: 02 20 00 21 00                                    . .!.           
```

#### Opcodes

```
  0: 0x004F [0x29] REQ_SET_WAIT(priority=0x0B, entity_id=Chawo Shipeynyo (ID: 17756174/0x010EF00E), tag_num=0x01)
  1: 0x0056 [0x1D] PRINT_EVENT_MESSAGE(message_id=7334*)
    → "What's that you said? Don't you darrre rrrepeat that!"
  2: 0x0059 [0x23] WAIT_FOR_DIALOG_INTERACTION
  3: 0x005A [0x29] REQ_SET_WAIT(priority=0x0B, entity_id=Chawo Shipeynyo (ID: 17756174/0x010EF00E), tag_num=0x02)
  4: 0x0061 [0x20] SET_CLI_EVENT_UC_FLAG: Unlock player control
  5: 0x0063 [0x21] END_EVENT
  6: 0x0064 [0x00] END_REQSTACK()
```

### Event 115

#### Metadata

| Field        | Value    |
|--------------|----------|
| Entrypoint   | 0x0065   |
| Data Size    | 41 bytes |
| Instructions | 11       |

```
      00 01 02 03 04 05 06 07  08 09 0A 0B 0C 0D 0E 0F
      -- -- -- -- -- -- -- --  -- -- -- -- -- -- -- --
0060:                79 00 F8  FF FF 7F F0 FF FF 7F 29       y.........)
0070: 0B 0E F0 0E 01 01 1D 05  80 23 1D 06 80 23 29 0B  .........#...#).
0080: 0E F0 0E 01 02 7B F8 FF  FF 7F 20 00 21 00        .....{.... .!.  
```

#### Opcodes

```
  0: 0x0065 [0x79] EventEntity looks at LocalPlayer (Basic look)
  1: 0x006F [0x29] REQ_SET_WAIT(priority=0x0B, entity_id=Chawo Shipeynyo (ID: 17756174/0x010EF00E), tag_num=0x01)
  2: 0x0076 [0x1D] PRINT_EVENT_MESSAGE(message_id=7351*)
    → "Don't you dare tell me you agrrreed to that mission of carrying offerrrings to the beastmen in Giddeus!?"
  3: 0x0079 [0x23] WAIT_FOR_DIALOG_INTERACTION
  4: 0x007A [0x1D] PRINT_EVENT_MESSAGE(message_id=7352*)
    → "Grrr... And you think I'm going to stand by and let you do that without giving you a piece of my mind!?"
  5: 0x007D [0x23] WAIT_FOR_DIALOG_INTERACTION
  6: 0x007E [0x29] REQ_SET_WAIT(priority=0x0B, entity_id=Chawo Shipeynyo (ID: 17756174/0x010EF00E), tag_num=0x02)
  7: 0x0085 [0x7B] EventEntity stops talking
  8: 0x008A [0x20] SET_CLI_EVENT_UC_FLAG: Unlock player control
  9: 0x008C [0x21] END_EVENT
 10: 0x008D [0x00] END_REQSTACK()
```

### Event 120

#### Metadata

| Field        | Value    |
|--------------|----------|
| Entrypoint   | 0x008E   |
| Data Size    | 41 bytes |
| Instructions | 11       |

```
      00 01 02 03 04 05 06 07  08 09 0A 0B 0C 0D 0E 0F
      -- -- -- -- -- -- -- --  -- -- -- -- -- -- -- --
0080:                                            79 00                y.
0090: F8 FF FF 7F F0 FF FF 7F  29 0B 0E F0 0E 01 01 1D  ........).......
00A0: 07 80 23 1D 08 80 23 29  0B 0E F0 0E 01 02 7B F8  ..#...#)......{.
00B0: FF FF 7F 20 00 21 00                              ... .!.         
```

#### Opcodes

```
  0: 0x008E [0x79] EventEntity looks at LocalPlayer (Basic look)
  1: 0x0098 [0x29] REQ_SET_WAIT(priority=0x0B, entity_id=Chawo Shipeynyo (ID: 17756174/0x010EF00E), tag_num=0x01)
  2: 0x009F [0x1D] PRINT_EVENT_MESSAGE(message_id=7359*)
    → "I don't give a damn whetherrr you went up to rrrank two or not."
  3: 0x00A2 [0x23] WAIT_FOR_DIALOG_INTERACTION
  4: 0x00A3 [0x1D] PRINT_EVENT_MESSAGE(message_id=7360*)
    → "I only wish you'd hurry up and make these slackerrrs underrrstand just how overrrly apathetic and laid-back Windurst has become."
  5: 0x00A6 [0x23] WAIT_FOR_DIALOG_INTERACTION
  6: 0x00A7 [0x29] REQ_SET_WAIT(priority=0x0B, entity_id=Chawo Shipeynyo (ID: 17756174/0x010EF00E), tag_num=0x02)
  7: 0x00AE [0x7B] EventEntity stops talking
  8: 0x00B3 [0x20] SET_CLI_EVENT_UC_FLAG: Unlock player control
  9: 0x00B5 [0x21] END_EVENT
 10: 0x00B6 [0x00] END_REQSTACK()
```

### Event 125

#### Metadata

| Field        | Value    |
|--------------|----------|
| Entrypoint   | 0x00B7   |
| Data Size    | 41 bytes |
| Instructions | 11       |

```
      00 01 02 03 04 05 06 07  08 09 0A 0B 0C 0D 0E 0F
      -- -- -- -- -- -- -- --  -- -- -- -- -- -- -- --
00B0:                      79  00 F8 FF FF 7F F0 FF FF         y........
00C0: 7F 29 0B 0E F0 0E 01 01  1D 09 80 23 29 0B 0E F0  .).........#)...
00D0: 0E 01 02 7B F8 FF FF 7F  1D 0A 80 23 20 00 21 00  ...{.......# .!.
```

#### Opcodes

```
  0: 0x00B7 [0x79] EventEntity looks at LocalPlayer (Basic look)
  1: 0x00C1 [0x29] REQ_SET_WAIT(priority=0x0B, entity_id=Chawo Shipeynyo (ID: 17756174/0x010EF00E), tag_num=0x01)
  2: 0x00C8 [0x1D] PRINT_EVENT_MESSAGE(message_id=7373*)
    → "A-hah!? Magic books, eh? I once hearrrd from someone that there was an uproarrr when a magic book fell into the hands of the Yagudo."
  3: 0x00CB [0x23] WAIT_FOR_DIALOG_INTERACTION
  4: 0x00CC [0x29] REQ_SET_WAIT(priority=0x0B, entity_id=Chawo Shipeynyo (ID: 17756174/0x010EF00E), tag_num=0x02)
  5: 0x00D3 [0x7B] EventEntity stops talking
  6: 0x00D8 [0x1D] PRINT_EVENT_MESSAGE(message_id=7374*)
    → "But that's beside the point. For crrrying out loud...would you shorrrties get out of my way and let me meet the Starrr Sibyl?"
  7: 0x00DB [0x23] WAIT_FOR_DIALOG_INTERACTION
  8: 0x00DC [0x20] SET_CLI_EVENT_UC_FLAG: Unlock player control
  9: 0x00DE [0x21] END_EVENT
 10: 0x00DF [0x00] END_REQSTACK()
```

### Event 130

#### Metadata

| Field        | Value    |
|--------------|----------|
| Entrypoint   | 0x00E0   |
| Data Size    | 41 bytes |
| Instructions | 11       |

```
      00 01 02 03 04 05 06 07  08 09 0A 0B 0C 0D 0E 0F
      -- -- -- -- -- -- -- --  -- -- -- -- -- -- -- --
00E0: 79 00 F8 FF FF 7F F0 FF  FF 7F 29 0B 0E F0 0E 01  y.........).....
00F0: 01 1D 0B 80 23 1D 0C 80  23 29 0B 0E F0 0E 01 02  ....#...#)......
0100: 7B F8 FF FF 7F 20 00 21  00                       {.... .!.       
```

#### Opcodes

```
  0: 0x00E0 [0x79] EventEntity looks at LocalPlayer (Basic look)
  1: 0x00EA [0x29] REQ_SET_WAIT(priority=0x0B, entity_id=Chawo Shipeynyo (ID: 17756174/0x010EF00E), tag_num=0x01)
  2: 0x00F1 [0x1D] PRINT_EVENT_MESSAGE(message_id=7386*)
    → "If you have enough time on yourrr hands to do that silly mission, why don't you lend us Mithra a hand forrr a change?"
  3: 0x00F4 [0x23] WAIT_FOR_DIALOG_INTERACTION
  4: 0x00F5 [0x1D] PRINT_EVENT_MESSAGE(message_id=7387*)
    → "Oh, come on. Give me a brrreak! Grrr...I've had it with these guarrrds!"
  5: 0x00F8 [0x23] WAIT_FOR_DIALOG_INTERACTION
  6: 0x00F9 [0x29] REQ_SET_WAIT(priority=0x0B, entity_id=Chawo Shipeynyo (ID: 17756174/0x010EF00E), tag_num=0x02)
  7: 0x0100 [0x7B] EventEntity stops talking
  8: 0x0105 [0x20] SET_CLI_EVENT_UC_FLAG: Unlock player control
  9: 0x0107 [0x21] END_EVENT
 10: 0x0108 [0x00] END_REQSTACK()
```

### Event 135

#### Metadata

| Field        | Value    |
|--------------|----------|
| Entrypoint   | 0x0109   |
| Data Size    | 41 bytes |
| Instructions | 11       |

```
      00 01 02 03 04 05 06 07  08 09 0A 0B 0C 0D 0E 0F
      -- -- -- -- -- -- -- --  -- -- -- -- -- -- -- --
0100:                             79 00 F8 FF FF 7F F0           y......
0110: FF FF 7F 29 0B 0E F0 0E  01 01 1D 0D 80 23 1D 0E  ...).........#..
0120: 80 23 29 0B 0E F0 0E 01  02 7B F8 FF FF 7F 20 00  .#)......{.... .
0130: 21 00                                             !.              
```

#### Opcodes

```
  0: 0x0109 [0x79] EventEntity looks at LocalPlayer (Basic look)
  1: 0x0113 [0x29] REQ_SET_WAIT(priority=0x0B, entity_id=Chawo Shipeynyo (ID: 17756174/0x010EF00E), tag_num=0x01)
  2: 0x011A [0x1D] PRINT_EVENT_MESSAGE(message_id=7396*)
    → "Hey! Just wherrre are you heading now?"
  3: 0x011D [0x23] WAIT_FOR_DIALOG_INTERACTION
  4: 0x011E [0x1D] PRINT_EVENT_MESSAGE(message_id=7397*)
    → "Well, when you speak to the Tarutaru inside of herrre, tell them to go see forrr themselves just how equipped otherrr countries are to fight off the beastmen."
  5: 0x0121 [0x23] WAIT_FOR_DIALOG_INTERACTION
  6: 0x0122 [0x29] REQ_SET_WAIT(priority=0x0B, entity_id=Chawo Shipeynyo (ID: 17756174/0x010EF00E), tag_num=0x02)
  7: 0x0129 [0x7B] EventEntity stops talking
  8: 0x012E [0x20] SET_CLI_EVENT_UC_FLAG: Unlock player control
  9: 0x0130 [0x21] END_EVENT
 10: 0x0131 [0x00] END_REQSTACK()
```

### Event 140

#### Metadata

| Field        | Value    |
|--------------|----------|
| Entrypoint   | 0x0132   |
| Data Size    | 41 bytes |
| Instructions | 11       |

```
      00 01 02 03 04 05 06 07  08 09 0A 0B 0C 0D 0E 0F
      -- -- -- -- -- -- -- --  -- -- -- -- -- -- -- --
0130:       79 00 F8 FF FF 7F  F0 FF FF 7F 29 0B 0E F0    y.........)...
0140: 0E 01 01 1D 0F 80 23 1D  10 80 23 29 0B 0E F0 0E  ......#...#)....
0150: 01 02 7B F8 FF FF 7F 20  00 21 00                 ..{.... .!.     
```

#### Opcodes

```
  0: 0x0132 [0x79] EventEntity looks at LocalPlayer (Basic look)
  1: 0x013C [0x29] REQ_SET_WAIT(priority=0x0B, entity_id=Chawo Shipeynyo (ID: 17756174/0x010EF00E), tag_num=0x01)
  2: 0x0143 [0x1D] PRINT_EVENT_MESSAGE(message_id=7407*)
    → "I hearrrd that! You'rrre talking about the Sibyl Guards, rrright?"
  3: 0x0146 [0x23] WAIT_FOR_DIALOG_INTERACTION
  4: 0x0147 [0x1D] PRINT_EVENT_MESSAGE(message_id=7408*)
    → "They'rrre no Mithra, that mob. They werrre rrraised by the Tarutaru, so they have lost theirrr Mithran spirit! Why, they'rrre nothing more than a band of traitorrrs!"
  5: 0x014A [0x23] WAIT_FOR_DIALOG_INTERACTION
  6: 0x014B [0x29] REQ_SET_WAIT(priority=0x0B, entity_id=Chawo Shipeynyo (ID: 17756174/0x010EF00E), tag_num=0x02)
  7: 0x0152 [0x7B] EventEntity stops talking
  8: 0x0157 [0x20] SET_CLI_EVENT_UC_FLAG: Unlock player control
  9: 0x0159 [0x21] END_EVENT
 10: 0x015A [0x00] END_REQSTACK()
```

### Event 149

#### Metadata

| Field        | Value    |
|--------------|----------|
| Entrypoint   | 0x015B   |
| Data Size    | 37 bytes |
| Instructions | 9        |

```
      00 01 02 03 04 05 06 07  08 09 0A 0B 0C 0D 0E 0F
      -- -- -- -- -- -- -- --  -- -- -- -- -- -- -- --
0150:                                   79 00 F8 FF FF             y....
0160: 7F F0 FF FF 7F 29 0B 0E  F0 0E 01 01 1D 11 80 23  .....).........#
0170: 29 0B 0E F0 0E 01 02 7B  F8 FF FF 7F 20 00 21 00  )......{.... .!.
```

#### Opcodes

```
  0: 0x015B [0x79] EventEntity looks at LocalPlayer (Basic look)
  1: 0x0165 [0x29] REQ_SET_WAIT(priority=0x0B, entity_id=Chawo Shipeynyo (ID: 17756174/0x010EF00E), tag_num=0x01)
  2: 0x016C [0x1D] PRINT_EVENT_MESSAGE(message_id=7427*)
    → "What's all the rrruckus about? Has something happened in Heavens Towerrr?"
  3: 0x016F [0x23] WAIT_FOR_DIALOG_INTERACTION
  4: 0x0170 [0x29] REQ_SET_WAIT(priority=0x0B, entity_id=Chawo Shipeynyo (ID: 17756174/0x010EF00E), tag_num=0x02)
  5: 0x0177 [0x7B] EventEntity stops talking
  6: 0x017C [0x20] SET_CLI_EVENT_UC_FLAG: Unlock player control
  7: 0x017E [0x21] END_EVENT
  8: 0x017F [0x00] END_REQSTACK()
```

### Event 382

#### Metadata

| Field        | Value    |
|--------------|----------|
| Entrypoint   | 0x0180   |
| Data Size    | 36 bytes |
| Instructions | 10       |

```
      00 01 02 03 04 05 06 07  08 09 0A 0B 0C 0D 0E 0F
      -- -- -- -- -- -- -- --  -- -- -- -- -- -- -- --
0180: 79 00 F8 FF FF 7F F0 FF  FF 7F 29 0B 0E F0 0E 01  y.........).....
0190: 01 1D 12 80 23 1D 13 80  23 29 0B 0E F0 0E 01 02  ....#...#)......
01A0: 20 00 21 00                                        .!.            
```

#### Opcodes

```
  0: 0x0180 [0x79] EventEntity looks at LocalPlayer (Basic look)
  1: 0x018A [0x29] REQ_SET_WAIT(priority=0x0B, entity_id=Chawo Shipeynyo (ID: 17756174/0x010EF00E), tag_num=0x01)
  2: 0x0191 [0x1D] PRINT_EVENT_MESSAGE(message_id=8716*)
    → "I've been thinking that the Star Sibyl must have some kind of strrrategy in mind for dealing with those treacherous Yagudo."
  3: 0x0194 [0x23] WAIT_FOR_DIALOG_INTERACTION
  4: 0x0195 [0x1D] PRINT_EVENT_MESSAGE(message_id=8717*)
    → "This whole "Okay, here's your tribute!" facade is just a stalling tactic. Or at least, that's what I'd like to think."
  5: 0x0198 [0x23] WAIT_FOR_DIALOG_INTERACTION
  6: 0x0199 [0x29] REQ_SET_WAIT(priority=0x0B, entity_id=Chawo Shipeynyo (ID: 17756174/0x010EF00E), tag_num=0x02)
  7: 0x01A0 [0x20] SET_CLI_EVENT_UC_FLAG: Unlock player control
  8: 0x01A2 [0x21] END_EVENT
  9: 0x01A3 [0x00] END_REQSTACK()
```

### Event 354

#### Metadata

| Field        | Value    |
|--------------|----------|
| Entrypoint   | 0x01A4   |
| Data Size    | 26 bytes |
| Instructions | 9        |

```
      00 01 02 03 04 05 06 07  08 09 0A 0B 0C 0D 0E 0F
      -- -- -- -- -- -- -- --  -- -- -- -- -- -- -- --
01A0:             29 0B 0E F0  0E 01 01 1D 14 80 23 1D      ).........#.
01B0: 15 80 23 29 0B 0E F0 0E  01 02 20 00 21 00        ..#)...... .!.  
```

#### Opcodes

```
  0: 0x01A4 [0x29] REQ_SET_WAIT(priority=0x0B, entity_id=Chawo Shipeynyo (ID: 17756174/0x010EF00E), tag_num=0x01)
  1: 0x01AB [0x1D] PRINT_EVENT_MESSAGE(message_id=8726*)
    → "Ajido-Marujido? Yeah, I know him. He's the one that's always looking for Nanaa Mihgo."
  2: 0x01AE [0x23] WAIT_FOR_DIALOG_INTERACTION
  3: 0x01AF [0x1D] PRINT_EVENT_MESSAGE(message_id=8727*)
    → "I don't want anything to do with lowlives who willingly deal with the Cat Burrrglar."
  4: 0x01B2 [0x23] WAIT_FOR_DIALOG_INTERACTION
  5: 0x01B3 [0x29] REQ_SET_WAIT(priority=0x0B, entity_id=Chawo Shipeynyo (ID: 17756174/0x010EF00E), tag_num=0x02)
  6: 0x01BA [0x20] SET_CLI_EVENT_UC_FLAG: Unlock player control
  7: 0x01BC [0x21] END_EVENT
  8: 0x01BD [0x00] END_REQSTACK()
```

### Event 359

#### Metadata

| Field        | Value    |
|--------------|----------|
| Entrypoint   | 0x01BE   |
| Data Size    | 22 bytes |
| Instructions | 7        |

```
      00 01 02 03 04 05 06 07  08 09 0A 0B 0C 0D 0E 0F
      -- -- -- -- -- -- -- --  -- -- -- -- -- -- -- --
01B0:                                            29 0B                ).
01C0: 0E F0 0E 01 01 1D 16 80  23 29 0B 0E F0 0E 01 02  ........#)......
01D0: 20 00 21 00                                        .!.            
```

#### Opcodes

```
  0: 0x01BE [0x29] REQ_SET_WAIT(priority=0x0B, entity_id=Chawo Shipeynyo (ID: 17756174/0x010EF00E), tag_num=0x01)
  1: 0x01C5 [0x1D] PRINT_EVENT_MESSAGE(message_id=8741*)
    → "What did you just say? You wanna try rrrepeating that?"
  2: 0x01C8 [0x23] WAIT_FOR_DIALOG_INTERACTION
  3: 0x01C9 [0x29] REQ_SET_WAIT(priority=0x0B, entity_id=Chawo Shipeynyo (ID: 17756174/0x010EF00E), tag_num=0x02)
  4: 0x01D0 [0x20] SET_CLI_EVENT_UC_FLAG: Unlock player control
  5: 0x01D2 [0x21] END_EVENT
  6: 0x01D3 [0x00] END_REQSTACK()
```

### Event 364

#### Metadata

| Field        | Value    |
|--------------|----------|
| Entrypoint   | 0x01D4   |
| Data Size    | 36 bytes |
| Instructions | 10       |

```
      00 01 02 03 04 05 06 07  08 09 0A 0B 0C 0D 0E 0F
      -- -- -- -- -- -- -- --  -- -- -- -- -- -- -- --
01D0:             79 00 F8 FF  FF 7F F0 FF FF 7F 29 0B      y.........).
01E0: 0E F0 0E 01 01 1D 17 80  23 1D 18 80 23 29 0B 0E  ........#...#)..
01F0: F0 0E 01 02 20 00 21 00                           .... .!.        
```

#### Opcodes

```
  0: 0x01D4 [0x79] EventEntity looks at LocalPlayer (Basic look)
  1: 0x01DE [0x29] REQ_SET_WAIT(priority=0x0B, entity_id=Chawo Shipeynyo (ID: 17756174/0x010EF00E), tag_num=0x01)
  2: 0x01E5 [0x1D] PRINT_EVENT_MESSAGE(message_id=8751*)
    → "I was told a lot of stories about the Grrreat War as a child, but only those that centered on Chieftainness Perih Vashai."
  3: 0x01E8 [0x23] WAIT_FOR_DIALOG_INTERACTION
  4: 0x01E9 [0x1D] PRINT_EVENT_MESSAGE(message_id=8752*)
    → "Although I did hear a story that Windurst was saved by a grrreat light that flowed out from the magic towers. I wonder what could've caused that light?"
  5: 0x01EC [0x23] WAIT_FOR_DIALOG_INTERACTION
  6: 0x01ED [0x29] REQ_SET_WAIT(priority=0x0B, entity_id=Chawo Shipeynyo (ID: 17756174/0x010EF00E), tag_num=0x02)
  7: 0x01F4 [0x20] SET_CLI_EVENT_UC_FLAG: Unlock player control
  8: 0x01F6 [0x21] END_EVENT
  9: 0x01F7 [0x00] END_REQSTACK()
```

### Event 369

#### Metadata

| Field        | Value    |
|--------------|----------|
| Entrypoint   | 0x01F8   |
| Data Size    | 36 bytes |
| Instructions | 10       |

```
      00 01 02 03 04 05 06 07  08 09 0A 0B 0C 0D 0E 0F
      -- -- -- -- -- -- -- --  -- -- -- -- -- -- -- --
01F0:                          79 00 F8 FF FF 7F F0 FF          y.......
0200: FF 7F 29 0B 0E F0 0E 01  01 1D 19 80 23 1D 1A 80  ..).........#...
0210: 23 29 0B 0E F0 0E 01 02  20 00 21 00              #)...... .!.    
```

#### Opcodes

```
  0: 0x01F8 [0x79] EventEntity looks at LocalPlayer (Basic look)
  1: 0x0202 [0x29] REQ_SET_WAIT(priority=0x0B, entity_id=Chawo Shipeynyo (ID: 17756174/0x010EF00E), tag_num=0x01)
  2: 0x0209 [0x1D] PRINT_EVENT_MESSAGE(message_id=8762*)
    → "The Rhinostery? They have a long history with the Mithra."
  3: 0x020C [0x23] WAIT_FOR_DIALOG_INTERACTION
  4: 0x020D [0x1D] PRINT_EVENT_MESSAGE(message_id=8763*)
    → "Didn't you know? The first Tarutaru to visit us in our southern homeland were researchers from the Rhinostery."
  5: 0x0210 [0x23] WAIT_FOR_DIALOG_INTERACTION
  6: 0x0211 [0x29] REQ_SET_WAIT(priority=0x0B, entity_id=Chawo Shipeynyo (ID: 17756174/0x010EF00E), tag_num=0x02)
  7: 0x0218 [0x20] SET_CLI_EVENT_UC_FLAG: Unlock player control
  8: 0x021A [0x21] END_EVENT
  9: 0x021B [0x00] END_REQSTACK()
```

### Event 374

#### Metadata

| Field        | Value    |
|--------------|----------|
| Entrypoint   | 0x021C   |
| Data Size    | 36 bytes |
| Instructions | 10       |

```
      00 01 02 03 04 05 06 07  08 09 0A 0B 0C 0D 0E 0F
      -- -- -- -- -- -- -- --  -- -- -- -- -- -- -- --
0210:                                      79 00 F8 FF              y...
0220: FF 7F F0 FF FF 7F 29 0B  0E F0 0E 01 01 1D 1B 80  ......).........
0230: 23 1D 1C 80 23 29 0B 0E  F0 0E 01 02 20 00 21 00  #...#)...... .!.
```

#### Opcodes

```
  0: 0x021C [0x79] EventEntity looks at LocalPlayer (Basic look)
  1: 0x0226 [0x29] REQ_SET_WAIT(priority=0x0B, entity_id=Chawo Shipeynyo (ID: 17756174/0x010EF00E), tag_num=0x01)
  2: 0x022D [0x1D] PRINT_EVENT_MESSAGE(message_id=8772*)
    → "I've just given in. Every time I talk to these little Tarutaru, I just can't seem to keep the edge on my words. I've lost my bite completely."
  3: 0x0230 [0x23] WAIT_FOR_DIALOG_INTERACTION
  4: 0x0231 [0x1D] PRINT_EVENT_MESSAGE(message_id=8773*)
    → "Maybe I need to focus myself and rrredo my basic training..."
  5: 0x0234 [0x23] WAIT_FOR_DIALOG_INTERACTION
  6: 0x0235 [0x29] REQ_SET_WAIT(priority=0x0B, entity_id=Chawo Shipeynyo (ID: 17756174/0x010EF00E), tag_num=0x02)
  7: 0x023C [0x20] SET_CLI_EVENT_UC_FLAG: Unlock player control
  8: 0x023E [0x21] END_EVENT
  9: 0x023F [0x00] END_REQSTACK()
```

### Event 379

#### Metadata

| Field        | Value    |
|--------------|----------|
| Entrypoint   | 0x0240   |
| Data Size    | 32 bytes |
| Instructions | 8        |

```
      00 01 02 03 04 05 06 07  08 09 0A 0B 0C 0D 0E 0F
      -- -- -- -- -- -- -- --  -- -- -- -- -- -- -- --
0240: 79 00 F8 FF FF 7F F0 FF  FF 7F 29 0B 0E F0 0E 01  y.........).....
0250: 01 1D 1D 80 23 29 0B 0E  F0 0E 01 02 20 00 21 00  ....#)...... .!.
```

#### Opcodes

```
  0: 0x0240 [0x79] EventEntity looks at LocalPlayer (Basic look)
  1: 0x024A [0x29] REQ_SET_WAIT(priority=0x0B, entity_id=Chawo Shipeynyo (ID: 17756174/0x010EF00E), tag_num=0x01)
  2: 0x0251 [0x1D] PRINT_EVENT_MESSAGE(message_id=8785*)
    → "I don't want to burst their bubble, but I think the reason Captain Buuma is helping the Tarutaru is because she wants to tick off the Sibyl Guards."
  3: 0x0254 [0x23] WAIT_FOR_DIALOG_INTERACTION
  4: 0x0255 [0x29] REQ_SET_WAIT(priority=0x0B, entity_id=Chawo Shipeynyo (ID: 17756174/0x010EF00E), tag_num=0x02)
  5: 0x025C [0x20] SET_CLI_EVENT_UC_FLAG: Unlock player control
  6: 0x025E [0x21] END_EVENT
  7: 0x025F [0x00] END_REQSTACK()
```

### Event 426

#### Metadata

| Field        | Value    |
|--------------|----------|
| Entrypoint   | 0x0260   |
| Data Size    | 36 bytes |
| Instructions | 10       |

```
      00 01 02 03 04 05 06 07  08 09 0A 0B 0C 0D 0E 0F
      -- -- -- -- -- -- -- --  -- -- -- -- -- -- -- --
0260: 79 00 F8 FF FF 7F F0 FF  FF 7F 29 0B 0E F0 0E 01  y.........).....
0270: 01 1D 1E 80 23 1D 1F 80  23 29 0B 0E F0 0E 01 02  ....#...#)......
0280: 20 00 21 00                                        .!.            
```

#### Opcodes

```
  0: 0x0260 [0x79] EventEntity looks at LocalPlayer (Basic look)
  1: 0x026A [0x29] REQ_SET_WAIT(priority=0x0B, entity_id=Chawo Shipeynyo (ID: 17756174/0x010EF00E), tag_num=0x01)
  2: 0x0271 [0x1D] PRINT_EVENT_MESSAGE(message_id=9011*)
    → "You know, I've been thinking. If the Sibyl Guards are orrrphans of the Great War, then wouldn't they hate the Yagudo even more than us other Mithra?"
  3: 0x0274 [0x23] WAIT_FOR_DIALOG_INTERACTION
  4: 0x0275 [0x1D] PRINT_EVENT_MESSAGE(message_id=9012*)
    → "I suppose that as a race, the Mithra don't hold much with grrrudges. Maybe their anger has cooled off over the years?"
  5: 0x0278 [0x23] WAIT_FOR_DIALOG_INTERACTION
  6: 0x0279 [0x29] REQ_SET_WAIT(priority=0x0B, entity_id=Chawo Shipeynyo (ID: 17756174/0x010EF00E), tag_num=0x02)
  7: 0x0280 [0x20] SET_CLI_EVENT_UC_FLAG: Unlock player control
  8: 0x0282 [0x21] END_EVENT
  9: 0x0283 [0x00] END_REQSTACK()
```

### Event 434

#### Metadata

| Field        | Value    |
|--------------|----------|
| Entrypoint   | 0x0284   |
| Data Size    | 36 bytes |
| Instructions | 10       |

```
      00 01 02 03 04 05 06 07  08 09 0A 0B 0C 0D 0E 0F
      -- -- -- -- -- -- -- --  -- -- -- -- -- -- -- --
0280:             79 00 F8 FF  FF 7F F0 FF FF 7F 29 0B      y.........).
0290: 0E F0 0E 01 01 1D 20 80  23 1D 21 80 23 29 0B 0E  ...... .#.!.#)..
02A0: F0 0E 01 02 20 00 21 00                           .... .!.        
```

#### Opcodes

```
  0: 0x0284 [0x79] EventEntity looks at LocalPlayer (Basic look)
  1: 0x028E [0x29] REQ_SET_WAIT(priority=0x0B, entity_id=Chawo Shipeynyo (ID: 17756174/0x010EF00E), tag_num=0x01)
  2: 0x0295 [0x1D] PRINT_EVENT_MESSAGE(message_id=9017*)
    → "Chieftainness Perih Vashai is to seek an audience with the Star Sibyl concerning the events surrounding Orastery minister Ajido-Marujido."
  3: 0x0298 [0x23] WAIT_FOR_DIALOG_INTERACTION
  4: 0x0299 [0x1D] PRINT_EVENT_MESSAGE(message_id=9018*)
    → "Don't get me wrong--it's not like the chieftainness is a close friend of the minister or anything. These events have set something in motion. And I think we're about to find out what that something is..."
  5: 0x029C [0x23] WAIT_FOR_DIALOG_INTERACTION
  6: 0x029D [0x29] REQ_SET_WAIT(priority=0x0B, entity_id=Chawo Shipeynyo (ID: 17756174/0x010EF00E), tag_num=0x02)
  7: 0x02A4 [0x20] SET_CLI_EVENT_UC_FLAG: Unlock player control
  8: 0x02A6 [0x21] END_EVENT
  9: 0x02A7 [0x00] END_REQSTACK()
```

### Event 431

#### Metadata

| Field        | Value    |
|--------------|----------|
| Entrypoint   | 0x02A8   |
| Data Size    | 40 bytes |
| Instructions | 12       |

```
      00 01 02 03 04 05 06 07  08 09 0A 0B 0C 0D 0E 0F
      -- -- -- -- -- -- -- --  -- -- -- -- -- -- -- --
02A0:                          79 00 F8 FF FF 7F F0 FF          y.......
02B0: FF 7F 29 0B 0E F0 0E 01  01 1D 22 80 23 1D 23 80  ..).......".#.#.
02C0: 23 1D 24 80 23 29 0B 0E  F0 0E 01 02 20 00 21 00  #.$.#)...... .!.
```

#### Opcodes

```
  0: 0x02A8 [0x79] EventEntity looks at LocalPlayer (Basic look)
  1: 0x02B2 [0x29] REQ_SET_WAIT(priority=0x0B, entity_id=Chawo Shipeynyo (ID: 17756174/0x010EF00E), tag_num=0x01)
  2: 0x02B9 [0x1D] PRINT_EVENT_MESSAGE(message_id=9036*)
    → "Those black-blooded, back-stabbing Yagudo scum! We Mithra should wipe out the entire rrrace!"
  3: 0x02BC [0x23] WAIT_FOR_DIALOG_INTERACTION
  4: 0x02BD [0x1D] PRINT_EVENT_MESSAGE(message_id=9037*)
    → "What is the Star Sibyl afrrraid of? Taking rrresponsiblity for a war? That Windurst would lose?"
  5: 0x02C0 [0x23] WAIT_FOR_DIALOG_INTERACTION
  6: 0x02C1 [0x1D] PRINT_EVENT_MESSAGE(message_id=9038*)
    → "If fighting brrreaks out on the streets like it did twenty years ago, we should just blast the hell out of 'em with that summoning magic stuff."
  7: 0x02C4 [0x23] WAIT_FOR_DIALOG_INTERACTION
  8: 0x02C5 [0x29] REQ_SET_WAIT(priority=0x0B, entity_id=Chawo Shipeynyo (ID: 17756174/0x010EF00E), tag_num=0x02)
  9: 0x02CC [0x20] SET_CLI_EVENT_UC_FLAG: Unlock player control
 10: 0x02CE [0x21] END_EVENT
 11: 0x02CF [0x00] END_REQSTACK()
```

### Event 438

#### Metadata

| Field        | Value    |
|--------------|----------|
| Entrypoint   | 0x02D0   |
| Data Size    | 36 bytes |
| Instructions | 10       |

```
      00 01 02 03 04 05 06 07  08 09 0A 0B 0C 0D 0E 0F
      -- -- -- -- -- -- -- --  -- -- -- -- -- -- -- --
02D0: 79 00 F8 FF FF 7F F0 FF  FF 7F 29 0B 0E F0 0E 01  y.........).....
02E0: 01 1D 25 80 23 29 0B 0E  F0 0E 01 02 1D 26 80 23  ..%.#).......&.#
02F0: 20 00 21 00                                        .!.            
```

#### Opcodes

```
  0: 0x02D0 [0x79] EventEntity looks at LocalPlayer (Basic look)
  1: 0x02DA [0x29] REQ_SET_WAIT(priority=0x0B, entity_id=Chawo Shipeynyo (ID: 17756174/0x010EF00E), tag_num=0x01)
  2: 0x02E1 [0x1D] PRINT_EVENT_MESSAGE(message_id=9047*)
    → "We Mithra are going to be rrrunning wild in Windurst Woods again, so don't forget to stop by. Oh, and before you go..."
  3: 0x02E4 [0x23] WAIT_FOR_DIALOG_INTERACTION
  4: 0x02E5 [0x29] REQ_SET_WAIT(priority=0x0B, entity_id=Chawo Shipeynyo (ID: 17756174/0x010EF00E), tag_num=0x02)
  5: 0x02EC [0x1D] PRINT_EVENT_MESSAGE(message_id=9048*)
    → "...can I have your autograph?"
  6: 0x02EF [0x23] WAIT_FOR_DIALOG_INTERACTION
  7: 0x02F0 [0x20] SET_CLI_EVENT_UC_FLAG: Unlock player control
  8: 0x02F2 [0x21] END_EVENT
  9: 0x02F3 [0x00] END_REQSTACK()
```

### Event 443

#### Metadata

| Field        | Value   |
|--------------|---------|
| Entrypoint   | 0x02F4  |
| Data Size    | 7 bytes |
| Instructions | 2       |

```
      00 01 02 03 04 05 06 07  08 09 0A 0B 0C 0D 0E 0F
      -- -- -- -- -- -- -- --  -- -- -- -- -- -- -- --
02F0:             92 01 F8 FF  FF 7F 00                     .......     
```

#### Opcodes

```
  0: 0x02F4 [0x92] EventEntity->Render.Flags3 ^= 0x01
  1: 0x02FA [0x00] END_REQSTACK()
```

### Event 65535.4

#### Metadata

| Field        | Value    |
|--------------|----------|
| Entrypoint   | 0x02FB   |
| Data Size    | 10 bytes |
| Instructions | 2        |

```
      00 01 02 03 04 05 06 07  08 09 0A 0B 0C 0D 0E 0F
      -- -- -- -- -- -- -- --  -- -- -- -- -- -- -- --
02F0:                                   37 27 80 28 80             7'.(.
0300: 29 80 2A 80 00                                    ).*..           
```

#### Opcodes

```
  0: 0x02FB [0x37] UPDATE_EVENT_POSITION_AND_DIR: x=-35.640*, z=137.047*, y=-16.000*, direction=91.8°*
  1: 0x0304 [0x00] END_REQSTACK()
```

### Event 65535.5

#### Metadata

| Field        | Value    |
|--------------|----------|
| Entrypoint   | 0x0305   |
| Data Size    | 14 bytes |
| Instructions | 4        |

```
      00 01 02 03 04 05 06 07  08 09 0A 0B 0C 0D 0E 0F
      -- -- -- -- -- -- -- --  -- -- -- -- -- -- -- --
0300:                32 2B 80  5A 00 2C 80 2D 80 2E 80       2+.Z.,.-...
0310: 5A 01 00                                          Z..             
```

#### Opcodes

```
  0: 0x0305 [0x32] ExtData[1]->MainSpeed = 13* * 0.1
  1: 0x0308 [0x5A] UPDATE_EVENT_POSITION: Set EventEntity MovePosition to X=-65.764*, Z=115.795*, Y=-10.245*
  2: 0x0310 [0x5A] UPDATE_EVENT_POSITION: Move EventEntity incrementally towards MovePosition
  3: 0x0312 [0x00] END_REQSTACK()
```
