# 17756240 - Purakoko

## Common Data

| Field            | Value                    |
|------------------|--------------------------|
| Zone             | Windurst Walls (ID: 239) |
| Block Size       | 172 bytes                |
| Total Events     | 6                        |
| References Count | 6                        |

## List of Events

| Event ID                 | Entrypoint   |   Size |   Instructions |
|--------------------------|--------------|--------|----------------|
| [65535](#event-65535)    | 0x0000       |      1 |              1 |
| [65535.1](#event-655351) | 0x0001       |     16 |              2 |
| [65535.2](#event-655352) | 0x0011       |      9 |              3 |
| [443](#event-443)        | 0x001A       |      7 |              2 |
| [318](#event-318)        | 0x0021       |     39 |             13 |
| [207](#event-207)        | 0x0048       |     33 |             12 |

## DAT References (imed_data)

|   Index | Hex Value   |   Dec Value |
|---------|-------------|-------------|
|       0 | 0x0055      |          85 |
|       1 | 0x001E      |          30 |
|       2 | 0x1EFC      |        7932 |
|       3 | 0x1EFD      |        7933 |
|       4 | 0x1D85      |        7557 |
|       5 | 0x1D86      |        7558 |

## String References

- **7557**: Did you know thith? Did you know thith? When you thee a falling thtar, if you thay a withh three timeth before it dithappearth, then your with will come true!
- **7558**: Tho pleathe tell me... What happenth to the thtar when it fallth to earth? Can it find itth way home back to the thky again?
- **7932**: Ithn't it biggy-wiggy? Ithn't it hugey-wugey? Can you thee it? Can you thee it? That'th the "Great Thtar Tree" that grew-and-grew out of and all over Heaventh Tower!
- **7933**: It grew thith big thankth to the magical blething of the thtars in the thky! I with they would help me grow up big thoon too!

## Events

### Event 65535

#### Metadata

| Field        | Value   |
|--------------|---------|
| Entrypoint   | 0x0000  |
| Data Size    | 1 bytes |
| Instructions | 1       |

```
      00 01 02 03 04 05 06 07  08 09 0A 0B 0C 0D 0E 0F
      -- -- -- -- -- -- -- --  -- -- -- -- -- -- -- --
0000: 00                                                .               
```

#### Opcodes

```
  0: 0x0000 [0x00] END_REQSTACK()
```

### Event 65535.1

#### Metadata

| Field        | Value    |
|--------------|----------|
| Entrypoint   | 0x0001   |
| Data Size    | 16 bytes |
| Instructions | 2        |

```
      00 01 02 03 04 05 06 07  08 09 0A 0B 0C 0D 0E 0F
      -- -- -- -- -- -- -- --  -- -- -- -- -- -- -- --
0000:    5B 00 80 F8 FF FF 7F  F8 FF FF 7F 74 6C 6B 30   [..........tlk0
0010: 00                                                .               
```

#### Opcodes

```
  0: 0x0001 [0x5B] LOAD_EXT_SCHEDULER: Load scheduler "tlk0" with entities [EventEntity, EventEntity], work=85*
  1: 0x0010 [0x00] END_REQSTACK()
```

### Event 65535.2

#### Metadata

| Field        | Value   |
|--------------|---------|
| Entrypoint   | 0x0011  |
| Data Size    | 9 bytes |
| Instructions | 3       |

```
      00 01 02 03 04 05 06 07  08 09 0A 0B 0C 0D 0E 0F
      -- -- -- -- -- -- -- --  -- -- -- -- -- -- -- --
0010:    5E 69 64 6C 30 1C 01  80 00                     ^idl0....      
```

#### Opcodes

```
  0: 0x0011 [0x5E] EventEntity goes idle (kills current action) (animation: "idl0")
  1: 0x0016 [0x1C] WAIT(30* ticks)
  2: 0x0019 [0x00] END_REQSTACK()
```

### Event 443

#### Metadata

| Field        | Value   |
|--------------|---------|
| Entrypoint   | 0x001A  |
| Data Size    | 7 bytes |
| Instructions | 2       |

```
      00 01 02 03 04 05 06 07  08 09 0A 0B 0C 0D 0E 0F
      -- -- -- -- -- -- -- --  -- -- -- -- -- -- -- --
0010:                                92 01 F8 FF FF 7F            ......
0020: 00                                                .               
```

#### Opcodes

```
  0: 0x001A [0x92] EventEntity->Render.Flags3 ^= 0x01
  1: 0x0020 [0x00] END_REQSTACK()
```

### Event 318

#### Metadata

| Field        | Value    |
|--------------|----------|
| Entrypoint   | 0x0021   |
| Data Size    | 39 bytes |
| Instructions | 13       |

```
      00 01 02 03 04 05 06 07  08 09 0A 0B 0C 0D 0E 0F
      -- -- -- -- -- -- -- --  -- -- -- -- -- -- -- --
0020:    86 00 F8 FF FF 7F 1E  F0 FF FF 7F 6F 70 29 0B   ...........op).
0030: 50 F0 0E 01 01 1D 02 80  23 1D 03 80 23 29 0B 50  P.......#...#).P
0040: F0 0E 01 02 20 00 21 00                           .... .!.        
```

#### Opcodes

```
  0: 0x0021 [0x86] EventEntity->Render.Flags3 = Flags3  // No change (flag=0)
  1: 0x0027 [0x1E] EventEntity looks at LocalPlayer and starts talking
  2: 0x002C [0x6F] WAIT_FRAME_DELAY: Yield until WaitTime reaches zero
  3: 0x002D [0x70] WAIT_ENTITY_RENDER_FLAG: Wait while EventEntity->Render.Flags3 bit 2 is set (cancel turn if not)
  4: 0x002E [0x29] REQ_SET_WAIT(priority=0x0B, entity_id=Purakoko (ID: 17756240/0x010EF050), tag_num=0x01)
  5: 0x0035 [0x1D] PRINT_EVENT_MESSAGE(message_id=7932*)
    → "Ithn't it biggy-wiggy? Ithn't it hugey-wugey? Can you thee it? Can you thee it? That'th the "Great Thtar Tree" that grew-and-grew out of and all over Heaventh Tower!"
  6: 0x0038 [0x23] WAIT_FOR_DIALOG_INTERACTION
  7: 0x0039 [0x1D] PRINT_EVENT_MESSAGE(message_id=7933*)
    → "It grew thith big thankth to the magical blething of the thtars in the thky! I with they would help me grow up big thoon too!"
  8: 0x003C [0x23] WAIT_FOR_DIALOG_INTERACTION
  9: 0x003D [0x29] REQ_SET_WAIT(priority=0x0B, entity_id=Purakoko (ID: 17756240/0x010EF050), tag_num=0x02)
 10: 0x0044 [0x20] SET_CLI_EVENT_UC_FLAG: Unlock player control
 11: 0x0046 [0x21] END_EVENT
 12: 0x0047 [0x00] END_REQSTACK()
```

### Event 207

#### Metadata

| Field        | Value    |
|--------------|----------|
| Entrypoint   | 0x0048   |
| Data Size    | 33 bytes |
| Instructions | 12       |

```
      00 01 02 03 04 05 06 07  08 09 0A 0B 0C 0D 0E 0F
      -- -- -- -- -- -- -- --  -- -- -- -- -- -- -- --
0040:                          1E F0 FF FF 7F 6F 70 29          .....op)
0050: 0B 50 F0 0E 01 01 1D 04  80 23 1D 05 80 23 29 0B  .P.......#...#).
0060: 50 F0 0E 01 02 20 00 21  00                       P.... .!.       
```

#### Opcodes

```
  0: 0x0048 [0x1E] EventEntity looks at LocalPlayer and starts talking
  1: 0x004D [0x6F] WAIT_FRAME_DELAY: Yield until WaitTime reaches zero
  2: 0x004E [0x70] WAIT_ENTITY_RENDER_FLAG: Wait while EventEntity->Render.Flags3 bit 2 is set (cancel turn if not)
  3: 0x004F [0x29] REQ_SET_WAIT(priority=0x0B, entity_id=Purakoko (ID: 17756240/0x010EF050), tag_num=0x01)
  4: 0x0056 [0x1D] PRINT_EVENT_MESSAGE(message_id=7557*)
    → "Did you know thith? Did you know thith? When you thee a falling thtar, if you thay a withh three timeth before it dithappearth, then your with will come true!"
  5: 0x0059 [0x23] WAIT_FOR_DIALOG_INTERACTION
  6: 0x005A [0x1D] PRINT_EVENT_MESSAGE(message_id=7558*)
    → "Tho pleathe tell me... What happenth to the thtar when it fallth to earth? Can it find itth way home back to the thky again?"
  7: 0x005D [0x23] WAIT_FOR_DIALOG_INTERACTION
  8: 0x005E [0x29] REQ_SET_WAIT(priority=0x0B, entity_id=Purakoko (ID: 17756240/0x010EF050), tag_num=0x02)
  9: 0x0065 [0x20] SET_CLI_EVENT_UC_FLAG: Unlock player control
 10: 0x0067 [0x21] END_EVENT
 11: 0x0068 [0x00] END_REQSTACK()
```
