# 17756473

## Common Data

| Field            | Value                    |
|------------------|--------------------------|
| Zone             | Windurst Walls (ID: 239) |
| Block Size       | 6756 bytes               |
| Total Events     | 12                       |
| References Count | 158                      |

## List of Events

| Event ID                 | Entrypoint   |   Size |   Instructions |
|--------------------------|--------------|--------|----------------|
| [65535](#event-65535)    | 0x0000       |      1 |              1 |
| [30035](#event-30035)    | 0x0001       |   1424 |            174 |
| [30036](#event-30036)    | 0x0591       |    655 |             82 |
| [30039](#event-30039)    | 0x0820       |    925 |            107 |
| [30040](#event-30040)    | 0x0BBD       |   1184 |            155 |
| [30041](#event-30041)    | 0x105D       |     23 |              6 |
| [30044](#event-30044)    | 0x1074       |    798 |             99 |
| [30045](#event-30045)    | 0x1392       |     23 |              6 |
| [30046](#event-30046)    | 0x13A9       |   1021 |            114 |
| [65535.1](#event-655351) | 0x17A6       |      1 |              1 |
| [65535.2](#event-655352) | 0x17A7       |      1 |              1 |
| [65535.3](#event-655353) | 0x17A8       |      1 |              1 |

## DAT References (imed_data)

|   Index | Hex Value   |   Dec Value |
|---------|-------------|-------------|
|       0 | 0x0000      |           0 |
|       1 | 0x0078      |         120 |
|       2 | 0x00C8      |         200 |
|       3 | 0x001B      |          27 |
|       4 | 0x2CB0      |       11440 |
|       5 | 0x2CB1      |       11441 |
|       6 | 0x0001      |           1 |
|       7 | 0x00E6      |         230 |
|       8 | 0x001E      |          30 |
|       9 | 0x0009      |           9 |
|      10 | 0xFFFF85EF  |  4294936047 |
|      11 | 0x8D42      |       36162 |
|      12 | 0x0002      |           2 |
|      13 | 0x00E7      |         231 |
|      14 | 0x4289      |       17033 |
|      15 | 0xFFFFB564  |  4294948196 |
|      16 | 0x0003      |           3 |
|      17 | 0x00E8      |         232 |
|      18 | 0xFFFFE1A0  |  4294959520 |
|      19 | 0xFFFE5E6A  |  4294860394 |
|      20 | 0x0004      |           4 |
|      21 | 0x00EA      |         234 |
|      22 | 0x515B      |       20827 |
|      23 | 0xFFFE77B8  |  4294866872 |
|      24 | 0x0005      |           5 |
|      25 | 0x00EB      |         235 |
|      26 | 0xFFFD565B  |  4294792795 |
|      27 | 0xFFFEEF8E  |  4294897550 |
|      28 | 0x0006      |           6 |
|      29 | 0x00EC      |         236 |
|      30 | 0xFFFD5494  |  4294792340 |
|      31 | 0xFFFFB939  |  4294949177 |
|      32 | 0x0007      |           7 |
|      33 | 0x00EE      |         238 |
|      34 | 0xFFFF5329  |  4294923049 |
|      35 | 0x33638     |      210488 |
|      36 | 0x0008      |           8 |
|      37 | 0x00EF      |         239 |
|      38 | 0xFFFD36DF  |  4294784735 |
|      39 | 0x2309B     |      143515 |
|      40 | 0x00F0      |         240 |
|      41 | 0xFFFCC57E  |  4294755710 |
|      42 | 0x2F904     |      194820 |
|      43 | 0x000A      |          10 |
|      44 | 0x00F1      |         241 |
|      45 | 0x16156     |       90454 |
|      46 | 0xFFFF7FBF  |  4294934463 |
|      47 | 0x2CB2      |       11442 |
|      48 | 0x00DC      |         220 |
|      49 | 0x25E9      |        9705 |
|      50 | 0xFFFFFFCE  |  4294967246 |
|      51 | 0x29CE      |       10702 |
|      52 | 0x021D      |         541 |
|      53 | 0x00FF      |         255 |
|      54 | 0xFFF9E56D  |  4294567277 |
|      55 | 0x5AEA2     |      372386 |
|      56 | 0xFFFFB565  |  4294948197 |
|      57 | 0x0C2A      |        3114 |
|      58 | 0x0F14      |        3860 |
|      59 | 0x003D      |          61 |
|      60 | 0x02F8      |         760 |
|      61 | 0x000F      |          15 |
|      62 | 0x0064      |         100 |
|      63 | 0x0096      |         150 |
|      64 | 0x0014      |          20 |
|      65 | 0x00AA      |         170 |
|      66 | 0x0F1A      |        3866 |
|      67 | 0x29CF      |       10703 |
|      68 | 0x00FA      |         250 |
|      69 | 0x29D0      |       10704 |
|      70 | 0x005A      |          90 |
|      71 | 0x0062      |          98 |
|      72 | 0x0063      |          99 |
|      73 | 0x026C      |         620 |
|      74 | 0x00C9      |         201 |
|      75 | 0x0097      |         151 |
|      76 | 0x6151D     |      398621 |
|      77 | 0xFFF90F9B  |  4294512539 |
|      78 | 0x0C1E      |        3102 |
|      79 | 0x619FB     |      399867 |
|      80 | 0xFFF90FEB  |  4294512619 |
|      81 | 0x0FEB      |        4075 |
|      82 | 0x620CB     |      401611 |
|      83 | 0xFFF90FF1  |  4294512625 |
|      84 | 0x0FAC      |        4012 |
|      85 | 0x0068      |         104 |
|      86 | 0x0F26      |        3878 |
|      87 | 0x0067      |         103 |
|      88 | 0x02FA      |         762 |
|      89 | 0x00B4      |         180 |
|      90 | 0x0F15      |        3861 |
|      91 | 0x29D1      |       10705 |
|      92 | 0x29D2      |       10706 |
|      93 | 0x29D3      |       10707 |
|      94 | 0x29D4      |       10708 |
|      95 | 0x29D5      |       10709 |
|      96 | 0x29D6      |       10710 |
|      97 | 0x29D7      |       10711 |
|      98 | 0x29D8      |       10712 |
|      99 | 0x02FC      |         764 |
|     100 | 0x29D9      |       10713 |
|     101 | 0x29DA      |       10714 |
|     102 | 0x29DB      |       10715 |
|     103 | 0x29DC      |       10716 |
|     104 | 0x0F12      |        3858 |
|     105 | 0x0F16      |        3862 |
|     106 | 0x008C      |         140 |
|     107 | 0x29DD      |       10717 |
|     108 | 0x29DE      |       10718 |
|     109 | 0x29DF      |       10719 |
|     110 | 0x0F19      |        3865 |
|     111 | 0x003C      |          60 |
|     112 | 0x0015      |          21 |
|     113 | 0x29E0      |       10720 |
|     114 | 0x29E1      |       10721 |
|     115 | 0x29E2      |       10722 |
|     116 | 0x29E3      |       10723 |
|     117 | 0x29E4      |       10724 |
|     118 | 0x29E5      |       10725 |
|     119 | 0x29E6      |       10726 |
|     120 | 0x29E7      |       10727 |
|     121 | 0x29E8      |       10728 |
|     122 | 0x29E9      |       10729 |
|     123 | 0x26548     |      157000 |
|     124 | 0xFFFFADF8  |  4294946296 |
|     125 | 0xFFFE3EC8  |  4294852296 |
|     126 | 0x0473      |        1139 |
|     127 | 0x0066      |         102 |
|     128 | 0x29EA      |       10730 |
|     129 | 0x29EB      |       10731 |
|     130 | 0x29EC      |       10732 |
|     131 | 0x29ED      |       10733 |
|     132 | 0x29EE      |       10734 |
|     133 | 0x29EF      |       10735 |
|     134 | 0x0304      |         772 |
|     135 | 0x2A36      |       10806 |
|     136 | 0x2A37      |       10807 |
|     137 | 0x2A38      |       10808 |
|     138 | 0x2A39      |       10809 |
|     139 | 0x2A3A      |       10810 |
|     140 | 0x0082      |         130 |
|     141 | 0x2A3B      |       10811 |
|     142 | 0x2A3C      |       10812 |
|     143 | 0x2A3D      |       10813 |
|     144 | 0x2A3E      |       10814 |
|     145 | 0x02E1      |         737 |
|     146 | 0x4E20      |       20000 |
|     147 | 0x7A120     |      500000 |
|     148 | 0x0BF1      |        3057 |
|     149 | 0x0F22      |        3874 |
|     150 | 0x2A3F      |       10815 |
|     151 | 0x2A40      |       10816 |
|     152 | 0x0306      |         774 |
|     153 | 0x2A41      |       10817 |
|     154 | 0x2A42      |       10818 |
|     155 | 0x012C      |         300 |
|     156 | 0x002D      |          45 |
|     157 | 0x00D7      |         215 |

## String References

- **9705**: 
- **10702**: The crystal resonates deep within your soul!
- **11440**: You are now able to enjoy a new storyline, Rhapsodies of Vana'diel.
- **11441**: Start Rhapsodies of Vana'diel? [Yes (View cutscene)./Maybe later.]
- **11442**: Examine the Tales' Beginning in the three nations when you wish to start Rhapsodies of Vana'diel.

## Events

### Event 65535

#### Metadata

| Field        | Value   |
|--------------|---------|
| Entrypoint   | 0x0000  |
| Data Size    | 1 bytes |
| Instructions | 1       |

```
      00 01 02 03 04 05 06 07  08 09 0A 0B 0C 0D 0E 0F
      -- -- -- -- -- -- -- --  -- -- -- -- -- -- -- --
0000: 00                                                .               
```

#### Opcodes

```
  0: 0x0000 [0x00] END_REQSTACK()
```

### Event 30035

#### Metadata

| Field        | Value      |
|--------------|------------|
| Entrypoint   | 0x0001     |
| Data Size    | 1424 bytes |
| Instructions | 173        |

```
      00 01 02 03 04 05 06 07  08 09 0A 0B 0C 0D 0E 0F
      -- -- -- -- -- -- -- --  -- -- -- -- -- -- -- --
0000:    42 5D 00 80 01 80 45  02 80 F8 FF FF 7F F8 FF   B]....E........
0010: FF 7F 66 64 6F 31 00 80  55 02 80 F8 FF FF 7F F8  ..fdo1..U.......
0020: FF FF 7F 66 64 6F 31 46  01 38 03 80 03 01 10 00  ...fdo1F.8......
0030: 80 43 00 43 01 03 05 00  04 10 03 06 00 06 10 02  .C.C............
0040: 05 10 00 80 00 5F 02 48  04 80 24 05 80 06 80 00  ....._.H..$.....
0050: 80 25 02 00 10 00 80 00  62 00 03 01 10 06 80 01  .%......b.......
0060: 5F 02 02 00 10 06 80 00  5F 02 03 01 10 00 80 02  _......._.......
0070: 05 00 06 80 00 43 02 02  06 00 06 80 80 A5 00 8D  .....C..........
0080: 07 80 06 80 1C 08 80 B8  07 80 00 80 09 80 0A 80  ................
0090: 0B 80 54 61 6C 65 73 27  42 65 67 69 6E 6E 69 6E  ..Tales'Beginnin
00A0: 67 00 01 43 02 02 06 00  0C 80 80 D3 00 8D 0D 80  g..C............
00B0: 06 80 1C 08 80 B8 0D 80  00 80 09 80 0E 80 0F 80  ................
00C0: 54 61 6C 65 73 27 42 65  67 69 6E 6E 69 6E 67 00  Tales'Beginning.
00D0: 01 43 02 02 06 00 10 80  80 01 01 8D 11 80 06 80  .C..............
00E0: 1C 08 80 B8 11 80 00 80  09 80 12 80 13 80 54 61  ..............Ta
00F0: 6C 65 73 27 42 65 67 69  6E 6E 69 6E 67 00 01 43  les'Beginning..C
0100: 02 02 06 00 14 80 80 2F  01 8D 15 80 06 80 1C 08  ......./........
0110: 80 B8 15 80 00 80 09 80  16 80 17 80 54 61 6C 65  ............Tale
0120: 73 27 42 65 67 69 6E 6E  69 6E 67 00 01 43 02 02  s'Beginning..C..
0130: 06 00 18 80 80 5D 01 8D  19 80 06 80 1C 08 80 B8  .....]..........
0140: 19 80 00 80 09 80 1A 80  1B 80 54 61 6C 65 73 27  ..........Tales'
0150: 42 65 67 69 6E 6E 69 6E  67 00 01 43 02 02 06 00  Beginning..C....
0160: 1C 80 80 8B 01 8D 1D 80  06 80 1C 08 80 B8 1D 80  ................
0170: 00 80 09 80 1E 80 1F 80  54 61 6C 65 73 27 42 65  ........Tales'Be
0180: 67 69 6E 6E 69 6E 67 00  01 43 02 02 06 00 20 80  ginning..C.... .
0190: 80 B9 01 8D 21 80 06 80  1C 08 80 B8 21 80 06 80  ....!.......!...
01A0: 09 80 22 80 23 80 54 61  6C 65 73 27 42 65 67 69  ..".#.Tales'Begi
01B0: 6E 6E 69 6E 67 00 01 43  02 02 06 00 24 80 80 E7  nning..C....$...
01C0: 01 8D 25 80 06 80 1C 08  80 B8 25 80 00 80 09 80  ..%.......%.....
01D0: 26 80 27 80 54 61 6C 65  73 27 42 65 67 69 6E 6E  &.'.Tales'Beginn
01E0: 69 6E 67 00 01 43 02 02  06 00 09 80 80 15 02 8D  ing..C..........
01F0: 28 80 06 80 1C 08 80 B8  28 80 00 80 09 80 29 80  (.......(.....).
0200: 2A 80 54 61 6C 65 73 27  42 65 67 69 6E 6E 69 6E  *.Tales'Beginnin
0210: 67 00 01 43 02 02 06 00  2B 80 80 43 02 8D 2C 80  g..C....+..C..,.
0220: 06 80 1C 08 80 B8 2C 80  00 80 09 80 2D 80 2E 80  ......,.....-...
0230: 54 61 6C 65 73 27 42 65  67 69 6E 6E 69 6E 67 00  Tales'Beginning.
0240: 01 43 02 48 2F 80 23 1C  30 80 02 05 00 06 80 00  .C.H/.#.0.......
0250: 53 02 8A 1C 08 80 48 31  80 01 6C 05 01 5F 02 9C  S.....H1..l.._..
0260: 00 00 67 32 80 32 80 48  33 80 23 1C 02 80 5C 00  ..g2.2.H3.#...\.
0270: 00 80 5C 01 00 80 9A 34  34 80 77 35 80 06 80 1C  ..\....44.w5....
0280: 06 80 2F 00 3A F1 0E 01  4E 00 3A F1 0E 01 92 01  ../.:...N.:.....
0290: 3A F1 0E 01 94 01 3A F1  0E 01 BA 3A F1 0E 01 36  :.....:....:...6
02A0: 80 37 80 38 80 39 80 80  3A F1 0E 01 29 10 3A F1  .7.8.9..:...).:.
02B0: 0E 01 0A 1C 08 80 81 00  3A F1 0E 01 5B 3A 80 3A  ........:...[:.:
02C0: F1 0E 01 3A F1 0E 01 77  61 70 6C 27 05 3A F1 0E  ...:...wapl'.:..
02D0: 01 03 9F 3B 80 F8 FF FF  7F F8 FF FF 7F 73 74 72  ...;.........str
02E0: 30 00 80 45 3C 80 F8 FF  FF 7F F8 FF FF 7F 73 30  0..E<.........s0
02F0: 36 33 00 80 1C 3D 80 45  02 80 F8 FF FF 7F F8 FF  63...=.E........
0300: FF 7F 66 64 69 31 00 80  1C 28 80 9F 3B 80 F8 FF  ..fdi1...(..;...
0310: FF 7F F8 FF FF 7F 6B 69  6C 6C 00 80 45 02 80 F0  ......kill..E...
0320: FF FF 7F F0 FF FF 7F 6F  76 6C 31 00 80 52 3C 80  .......ovl1..R<.
0330: F8 FF FF 7F F8 FF FF 7F  73 30 36 33 45 3C 80 F8  ........s063E<..
0340: FF FF 7F F8 FF FF 7F 73  30 36 34 00 80 D0 3E 80  .......s064...>.
0350: 3A F1 0E 01 3A F1 0E 01  73 30 30 30 00 80 1C 02  :...:...s000....
0360: 80 5B 3A 80 3A F1 0E 01  3A F1 0E 01 77 61 70 30  .[:.:...:...wap0
0370: 1C 3E 80 52 3C 80 F8 FF  FF 7F F8 FF FF 7F 73 30  .>.R<.........s0
0380: 36 34 45 3C 80 F8 FF FF  7F F8 FF FF 7F 73 30 36  64E<.........s06
0390: 35 00 80 1C 3F 80 52 3C  80 F8 FF FF 7F F8 FF FF  5...?.R<........
03A0: 7F 73 30 36 35 45 3C 80  F8 FF FF 7F F8 FF FF 7F  .s065E<.........
03B0: 73 30 36 36 00 80 1C 30  80 5B 3A 80 3A F1 0E 01  s066...0.[:.:...
03C0: 3A F1 0E 01 77 61 70 31  1C 40 80 52 3C 80 F8 FF  :...wap1.@.R<...
03D0: FF 7F F8 FF FF 7F 73 30  36 36 45 3C 80 F8 FF FF  ......s066E<....
03E0: 7F F8 FF FF 7F 73 30 36  37 00 80 7C 00 3A F1 0E  .....s067..|.:..
03F0: 01 1C 01 80 52 3C 80 F8  FF FF 7F F8 FF FF 7F 73  ....R<.........s
0400: 30 36 37 45 3C 80 F8 FF  FF 7F F8 FF FF 7F 73 30  067E<.........s0
0410: 36 38 00 80 1C 02 80 52  3C 80 F8 FF FF 7F F8 FF  68.....R<.......
0420: FF 7F 73 30 36 38 45 3C  80 F8 FF FF 7F F8 FF FF  ..s068E<........
0430: 7F 73 30 36 39 00 80 1C  41 80 7C 01 3A F1 0E 01  .s069...A.|.:...
0440: 5B 42 80 3A F1 0E 01 3A  F1 0E 01 77 61 70 6B 68  [B.:...:...wapkh
0450: 2B 3A F1 0E 01 43 80 1C  44 80 23 52 3C 80 F8 FF  +:...C..D.#R<...
0460: FF 7F F8 FF FF 7F 73 30  36 39 45 3C 80 F8 FF FF  ......s069E<....
0470: 7F F8 FF FF 7F 73 30 37  30 00 80 5B 3A 80 3A F1  .....s070..[:.:.
0480: 0E 01 3A F1 0E 01 77 61  70 32 2B 3A F1 0E 01 45  ..:...wap2+:...E
0490: 80 1C 3E 80 23 52 3C 80  F8 FF FF 7F F8 FF FF 7F  ..>.#R<.........
04A0: 73 30 37 30 45 3C 80 F8  FF FF 7F F8 FF FF 7F 73  s070E<.........s
04B0: 31 35 39 00 80 1C 2B 80  27 05 3A F1 0E 01 05 1C  159...+.'.:.....
04C0: 46 80 02 00 00 06 80 80  DE 04 D0 47 80 F8 FF FF  F..........G....
04D0: 7F F8 FF FF 7F 6D 61 69  6E 00 80 01 FA 04 02 00  .....main.......
04E0: 00 0C 80 80 FA 04 D0 48  80 F8 FF FF 7F F8 FF FF  .......H........
04F0: 7F 6D 61 69 6E 00 80 01  FA 04 1C 49 80 45 4A 80  .main......I.EJ.
0500: F0 FF FF 7F F0 FF FF 7F  77 68 6F 31 00 80 55 4A  ........who1..UJ
0510: 80 F0 FF FF 7F F0 FF FF  7F 77 68 6F 31 45 02 80  .........who1E..
0520: F8 FF FF 7F F8 FF FF 7F  66 64 6F 31 00 80 55 02  ........fdo1..U.
0530: 80 F8 FF FF 7F F8 FF FF  7F 66 64 6F 31 52 3C 80  .........fdo1R<.
0540: F8 FF FF 7F F8 FF FF 7F  73 31 35 39 45 4A 80 F0  ........s159EJ..
0550: FF FF 7F F0 FF FF 7F 77  68 69 31 00 80 55 4A 80  .......whi1..UJ.
0560: F0 FF FF 7F F0 FF FF 7F  77 68 69 31 35 25 80 78  ........whi15%.x
0570: 1C 06 80 5C 00 4B 80 5C  01 4B 80 9A 46 00 45 02  ...\.K.\.K..F.E.
0580: 80 F8 FF FF 7F F8 FF FF  7F 66 64 69 32 00 80 21  .........fdi2..!
0590: 00                                                .               
```

#### Opcodes

```
  0: 0x0001 [0x42] SET_CLI_EVENT_CANCEL_DATA()
  1: 0x0002 [0x5D] SET_MUSIC_VOLUME(volume=0*, fade_time=120*)
  2: 0x0007 [0x45] LOAD_SCHEDULED_TASK: Load scheduler "fdo1" with entities [EventEntity, EventEntity], work=[200*, 0*]
  3: 0x0018 [0x55] WAIT_LOAD_SCHEDULER: Wait for scheduler "fdo1" with entities [EventEntity, EventEntity], work=200*
  4: 0x0027 [0x46] CAMERA_CONTROL: Disable user control
  5: 0x0029 [0x38] SET_CLIENT_EVENT_MODE(mode=27*)
  6: 0x002C [0x03] Work_Zone[1] = 0*
  7: 0x0031 [0x43] SEND_EVENT_UPDATE: Send pending tag to server (packet 0x005B)
  8: 0x0033 [0x43] SEND_EVENT_UPDATE: Check pending flag (skip if not pending)
  9: 0x0035 [0x03] ExtData[1]->WorkLocal[5] = Work_Zone[4]
 10: 0x003A [0x03] ExtData[1]->WorkLocal[6] = Work_Zone[6]
 11: 0x003F [0x02] IF !(Work_Zone[5] == 0*) GOTO 0x025F
 12: 0x0047 [0x48] [System] [11440*]:
    → "You are now able to enjoy a new storyline, Rhapsodies of Vana'diel."
 13: 0x004A [0x24] CREATE_DIALOG(message_id=11441*, default_option=1*, option_flags=0*)
    → "Start Rhapsodies of Vana'diel? [Yes (View cutscene)./Maybe later.]"
 14: 0x0051 [0x25] WAIT_DIALOG_SELECT()
 15: 0x0052 [0x02] IF !(Work_Zone[0] == 0*) GOTO 0x0062
 16: 0x005A [0x03] Work_Zone[1] = 1*
 17: 0x005F [0x01] GOTO 0x025F
 18: 0x0062 [0x02] IF !(Work_Zone[0] == 1*) GOTO 0x025F
 19: 0x006A [0x03] Work_Zone[1] = 0*
 20: 0x006F [0x02] IF !(ExtData[1]->WorkLocal[5] == 1*) GOTO 0x0243
 21: 0x0077 [0x02] IF !(ExtData[1]->WorkLocal[6] == 1*) GOTO 0x00A5
 22: 0x007F [0x8D] OPEN_MAP_WITH_PROPERTIES(map_id=230*, properties=1*)
 23: 0x0084 [0x1C] WAIT(30* ticks)
 24: 0x0087 [0xB8] MAP_ADD_MARKER_WITH_NAME(zone=230*, submap=0*, marker_id=9*, x_pos=-31.249*, y_pos=36.162*, marker_name="Tales'Beginning")
 25: 0x00A2 [0x01] GOTO 0x0243
 26: 0x00A5 [0x02] IF !(ExtData[1]->WorkLocal[6] == 2*) GOTO 0x00D3
 27: 0x00AD [0x8D] OPEN_MAP_WITH_PROPERTIES(map_id=231*, properties=1*)
 28: 0x00B2 [0x1C] WAIT(30* ticks)
 29: 0x00B5 [0xB8] MAP_ADD_MARKER_WITH_NAME(zone=231*, submap=0*, marker_id=9*, x_pos=17.033*, y_pos=-19.100*, marker_name="Tales'Beginning")
 30: 0x00D0 [0x01] GOTO 0x0243
 31: 0x00D3 [0x02] IF !(ExtData[1]->WorkLocal[6] == 3*) GOTO 0x0101
 32: 0x00DB [0x8D] OPEN_MAP_WITH_PROPERTIES(map_id=232*, properties=1*)
 33: 0x00E0 [0x1C] WAIT(30* ticks)
 34: 0x00E3 [0xB8] MAP_ADD_MARKER_WITH_NAME(zone=232*, submap=0*, marker_id=9*, x_pos=-7.776*, y_pos=-106.902*, marker_name="Tales'Beginning")
 35: 0x00FE [0x01] GOTO 0x0243
 36: 0x0101 [0x02] IF !(ExtData[1]->WorkLocal[6] == 4*) GOTO 0x012F
 37: 0x0109 [0x8D] OPEN_MAP_WITH_PROPERTIES(map_id=234*, properties=1*)
 38: 0x010E [0x1C] WAIT(30* ticks)
 39: 0x0111 [0xB8] MAP_ADD_MARKER_WITH_NAME(zone=234*, submap=0*, marker_id=9*, x_pos=20.827*, y_pos=-100.424*, marker_name="Tales'Beginning")
 40: 0x012C [0x01] GOTO 0x0243
 41: 0x012F [0x02] IF !(ExtData[1]->WorkLocal[6] == 5*) GOTO 0x015D
 42: 0x0137 [0x8D] OPEN_MAP_WITH_PROPERTIES(map_id=235*, properties=1*)
 43: 0x013C [0x1C] WAIT(30* ticks)
 44: 0x013F [0xB8] MAP_ADD_MARKER_WITH_NAME(zone=235*, submap=0*, marker_id=9*, x_pos=-174.501*, y_pos=-69.746*, marker_name="Tales'Beginning")
 45: 0x015A [0x01] GOTO 0x0243
 46: 0x015D [0x02] IF !(ExtData[1]->WorkLocal[6] == 6*) GOTO 0x018B
 47: 0x0165 [0x8D] OPEN_MAP_WITH_PROPERTIES(map_id=236*, properties=1*)
 48: 0x016A [0x1C] WAIT(30* ticks)
 49: 0x016D [0xB8] MAP_ADD_MARKER_WITH_NAME(zone=236*, submap=0*, marker_id=9*, x_pos=-174.956*, y_pos=-18.119*, marker_name="Tales'Beginning")
 50: 0x0188 [0x01] GOTO 0x0243
 51: 0x018B [0x02] IF !(ExtData[1]->WorkLocal[6] == 7*) GOTO 0x01B9
 52: 0x0193 [0x8D] OPEN_MAP_WITH_PROPERTIES(map_id=238*, properties=1*)
 53: 0x0198 [0x1C] WAIT(30* ticks)
 54: 0x019B [0xB8] MAP_ADD_MARKER_WITH_NAME(zone=238*, submap=1*, marker_id=9*, x_pos=-44.247*, y_pos=210.488*, marker_name="Tales'Beginning")
 55: 0x01B6 [0x01] GOTO 0x0243
 56: 0x01B9 [0x02] IF !(ExtData[1]->WorkLocal[6] == 8*) GOTO 0x01E7
 57: 0x01C1 [0x8D] OPEN_MAP_WITH_PROPERTIES(map_id=239*, properties=1*)
 58: 0x01C6 [0x1C] WAIT(30* ticks)
 59: 0x01C9 [0xB8] MAP_ADD_MARKER_WITH_NAME(zone=239*, submap=0*, marker_id=9*, x_pos=-182.561*, y_pos=143.515*, marker_name="Tales'Beginning")
 60: 0x01E4 [0x01] GOTO 0x0243
 61: 0x01E7 [0x02] IF !(ExtData[1]->WorkLocal[6] == 9*) GOTO 0x0215
 62: 0x01EF [0x8D] OPEN_MAP_WITH_PROPERTIES(map_id=240*, properties=1*)
 63: 0x01F4 [0x1C] WAIT(30* ticks)
 64: 0x01F7 [0xB8] MAP_ADD_MARKER_WITH_NAME(zone=240*, submap=0*, marker_id=9*, x_pos=-211.586*, y_pos=194.820*, marker_name="Tales'Beginning")
 65: 0x0212 [0x01] GOTO 0x0243
 66: 0x0215 [0x02] IF !(ExtData[1]->WorkLocal[6] == 10*) GOTO 0x0243
 67: 0x021D [0x8D] OPEN_MAP_WITH_PROPERTIES(map_id=241*, properties=1*)
 68: 0x0222 [0x1C] WAIT(30* ticks)
 69: 0x0225 [0xB8] MAP_ADD_MARKER_WITH_NAME(zone=241*, submap=0*, marker_id=9*, x_pos=90.454*, y_pos=-32.833*, marker_name="Tales'Beginning")
 70: 0x0240 [0x01] GOTO 0x0243

SUBROUTINE_0243:
 71: 0x0243 [0x48] [System] [11442*]:
    → "Examine the Tales' Beginning in the three nations when you wish to start Rhapsodies of Vana'diel."
 72: 0x0246 [0x23] WAIT_FOR_DIALOG_INTERACTION
 73: 0x0247 [0x1C] WAIT(220* ticks)
 74: 0x024A [0x02] IF !(ExtData[1]->WorkLocal[5] == 1*) GOTO 0x0253
 75: 0x0252 [0x8A] CLOSE_MAP()
 76: 0x0253 [0x1C] WAIT(30* ticks)
 77: 0x0256 [0x48] [System] [9705*]:
    → ""
 78: 0x0259 [0x01] GOTO 0x056C

SUBROUTINE_025F:
 79: 0x025F [0x9C] STORE_CLIENT_LANGUAGE_ID(result=0x00)
 80: 0x0262 [0x67] HIDE_HUD_ELEMENTS(param1=0x8032, param2=0x8032)
 81: 0x0267 [0x48] [System] [10702*]:
    → "The crystal resonates deep within your soul!"
 82: 0x026A [0x23] WAIT_FOR_DIALOG_INTERACTION
 83: 0x026B [0x1C] WAIT(200* ticks)
 84: 0x026E [0x5C] MUSIC_CONTROL: Set Idle (Day) music to song 0*
 85: 0x0272 [0x5C] MUSIC_CONTROL: Set Idle (Night) music to song 0*
 86: 0x0276 [0x9A] WAIT_MUSIC_SERVER()
 87: 0x0277 [0x34] LOAD_UNLOAD_ZONE(zone_id=541*)
 88: 0x027A [0x77] SET_EVENT_TIME_WEATHER(hour=255*, weather=1*)
 89: 0x027F [0x1C] WAIT(1* ticks)
 90: 0x0282 [0x2F] Iroha (ID: 17756474/0x010EF13A)->Render.Flags0 &= ~0x80000 // Bit 19
 91: 0x0288 [0x4E] SET_ENTITY_HIDE_FLAG: Show Iroha (ID: 17756474/0x010EF13A)
 92: 0x028E [0x92] Iroha (ID: 17756474/0x010EF13A)->Render.Flags3 ^= 0x01
 93: 0x0294 [0x94] Iroha (ID: 17756474/0x010EF13A)->Render.Flags3 ^= 0x01
 94: 0x029A [0xBA] SET_ENTITY_POSITION(entity_id=Iroha (ID: 17756474/0x010EF13A), pos_x=-400.019*, pos_z=372.386*, pos_y=-19.099*, direction=273.7°*)
 95: 0x02A7 [0x80] LOAD_WAIT(entity=Iroha (ID: 17756474/0x010EF13A))
 96: 0x02AC [0x29] REQ_SET_WAIT(priority=0x10, entity_id=Iroha (ID: 17756474/0x010EF13A), tag_num=0x0A)
 97: 0x02B3 [0x1C] WAIT(30* ticks)
 98: 0x02B6 [0x81] SET_ENTITY_BLINKING(blink_flag=0x00, entity=Iroha (ID: 17756474/0x010EF13A))
 99: 0x02BC [0x5B] LOAD_EXT_SCHEDULER: Load scheduler "wapl" with entities [Iroha (ID: 17756474/0x010EF13A), Iroha (ID: 17756474/0x010EF13A)], work=3860*
100: 0x02CB [0x27] REQ_SET(priority=0x05, entity_id=Iroha (ID: 17756474/0x010EF13A), tag_num=0x03)
101: 0x02D2 [0x9F] LOAD_SCHEDULED_TASK_ALT: Load scheduler "str0" with entities [EventEntity, EventEntity], work=[61*, 0*]
102: 0x02E3 [0x45] LOAD_SCHEDULED_TASK: Load scheduler "s063" with entities [EventEntity, EventEntity], work=[760*, 0*]
103: 0x02F4 [0x1C] WAIT(15* ticks)
104: 0x02F7 [0x45] LOAD_SCHEDULED_TASK: Load scheduler "fdi1" with entities [EventEntity, EventEntity], work=[200*, 0*]
105: 0x0308 [0x1C] WAIT(240* ticks)
106: 0x030B [0x9F] LOAD_SCHEDULED_TASK_ALT: Load scheduler "kill" with entities [EventEntity, EventEntity], work=[61*, 0*]
107: 0x031C [0x45] LOAD_SCHEDULED_TASK: Load scheduler "ovl1" with entities [LocalPlayer, LocalPlayer], work=[200*, 0*]
108: 0x032D [0x52] END_LOAD_SCHEDULER: End scheduler "s063" with entities [EventEntity, EventEntity], work=760*
109: 0x033C [0x45] LOAD_SCHEDULED_TASK: Load scheduler "s064" with entities [EventEntity, EventEntity], work=[760*, 0*]
110: 0x034D [0xD0] LOAD_SCHEDULED_TASK_ALT5: Load scheduler "s000" with entities [Iroha (ID: 17756474/0x010EF13A), Iroha (ID: 17756474/0x010EF13A)], work=[100*, 0*]
111: 0x035E [0x1C] WAIT(200* ticks)
112: 0x0361 [0x5B] LOAD_EXT_SCHEDULER: Load scheduler "wap0" with entities [Iroha (ID: 17756474/0x010EF13A), Iroha (ID: 17756474/0x010EF13A)], work=3860*
113: 0x0370 [0x1C] WAIT(100* ticks)
114: 0x0373 [0x52] END_LOAD_SCHEDULER: End scheduler "s064" with entities [EventEntity, EventEntity], work=760*
115: 0x0382 [0x45] LOAD_SCHEDULED_TASK: Load scheduler "s065" with entities [EventEntity, EventEntity], work=[760*, 0*]
116: 0x0393 [0x1C] WAIT(150* ticks)
117: 0x0396 [0x52] END_LOAD_SCHEDULER: End scheduler "s065" with entities [EventEntity, EventEntity], work=760*
118: 0x03A5 [0x45] LOAD_SCHEDULED_TASK: Load scheduler "s066" with entities [EventEntity, EventEntity], work=[760*, 0*]
119: 0x03B6 [0x1C] WAIT(220* ticks)
120: 0x03B9 [0x5B] LOAD_EXT_SCHEDULER: Load scheduler "wap1" with entities [Iroha (ID: 17756474/0x010EF13A), Iroha (ID: 17756474/0x010EF13A)], work=3860*
121: 0x03C8 [0x1C] WAIT(20* ticks)
122: 0x03CB [0x52] END_LOAD_SCHEDULER: End scheduler "s066" with entities [EventEntity, EventEntity], work=760*
123: 0x03DA [0x45] LOAD_SCHEDULED_TASK: Load scheduler "s067" with entities [EventEntity, EventEntity], work=[760*, 0*]
124: 0x03EB [0x7C] Iroha (ID: 17756474/0x010EF13A)->Render.Flags2 |= 0x00
125: 0x03F1 [0x1C] WAIT(120* ticks)
126: 0x03F4 [0x52] END_LOAD_SCHEDULER: End scheduler "s067" with entities [EventEntity, EventEntity], work=760*
127: 0x0403 [0x45] LOAD_SCHEDULED_TASK: Load scheduler "s068" with entities [EventEntity, EventEntity], work=[760*, 0*]
128: 0x0414 [0x1C] WAIT(200* ticks)
129: 0x0417 [0x52] END_LOAD_SCHEDULER: End scheduler "s068" with entities [EventEntity, EventEntity], work=760*
130: 0x0426 [0x45] LOAD_SCHEDULED_TASK: Load scheduler "s069" with entities [EventEntity, EventEntity], work=[760*, 0*]
131: 0x0437 [0x1C] WAIT(170* ticks)
132: 0x043A [0x7C] Iroha (ID: 17756474/0x010EF13A)->Render.Flags2 |= 0x01
133: 0x0440 [0x5B] LOAD_EXT_SCHEDULER: Load scheduler "wapk" with entities [Iroha (ID: 17756474/0x010EF13A), Iroha (ID: 17756474/0x010EF13A)], work=3866*
134: 0x044F [0x68] SHOW_HUD_ELEMENTS()
135: 0x0450 [0x2B] Iroha (ID: 17756474/0x010EF13A) [10703*]:
    → "Vana'diel...in the year 898?"
136: 0x0457 [0x1C] WAIT(250* ticks)
137: 0x045A [0x23] WAIT_FOR_DIALOG_INTERACTION
138: 0x045B [0x52] END_LOAD_SCHEDULER: End scheduler "s069" with entities [EventEntity, EventEntity], work=760*
139: 0x046A [0x45] LOAD_SCHEDULED_TASK: Load scheduler "s070" with entities [EventEntity, EventEntity], work=[760*, 0*]
140: 0x047B [0x5B] LOAD_EXT_SCHEDULER: Load scheduler "wap2" with entities [Iroha (ID: 17756474/0x010EF13A), Iroha (ID: 17756474/0x010EF13A)], work=3860*
141: 0x048A [0x2B] Iroha (ID: 17756474/0x010EF13A) [10704*]:
    → "I must make haste for Reisenjima and find the master before..."
142: 0x0491 [0x1C] WAIT(100* ticks)
143: 0x0494 [0x23] WAIT_FOR_DIALOG_INTERACTION
144: 0x0495 [0x52] END_LOAD_SCHEDULER: End scheduler "s070" with entities [EventEntity, EventEntity], work=760*
145: 0x04A4 [0x45] LOAD_SCHEDULED_TASK: Load scheduler "s159" with entities [EventEntity, EventEntity], work=[760*, 0*]
146: 0x04B5 [0x1C] WAIT(10* ticks)
147: 0x04B8 [0x27] REQ_SET(priority=0x05, entity_id=Iroha (ID: 17756474/0x010EF13A), tag_num=0x05)
148: 0x04BF [0x1C] WAIT(90* ticks)
149: 0x04C2 [0x02] IF !(ExtData[1]->WorkLocal[0] == 1*) GOTO 0x04DE
150: 0x04CA [0xD0] LOAD_SCHEDULED_TASK_ALT5: Load scheduler "main" with entities [EventEntity, EventEntity], work=[98*, 0*]
151: 0x04DB [0x01] GOTO 0x04FA
152: 0x04DE [0x02] IF !(ExtData[1]->WorkLocal[0] == 2*) GOTO 0x04FA
153: 0x04E6 [0xD0] LOAD_SCHEDULED_TASK_ALT5: Load scheduler "main" with entities [EventEntity, EventEntity], work=[99*, 0*]
154: 0x04F7 [0x01] GOTO 0x04FA

SUBROUTINE_04FA:
155: 0x04FA [0x1C] WAIT(620* ticks)
156: 0x04FD [0x45] LOAD_SCHEDULED_TASK: Load scheduler "who1" with entities [LocalPlayer, LocalPlayer], work=[201*, 0*]
157: 0x050E [0x55] WAIT_LOAD_SCHEDULER: Wait for scheduler "who1" with entities [LocalPlayer, LocalPlayer], work=201*
158: 0x051D [0x45] LOAD_SCHEDULED_TASK: Load scheduler "fdo1" with entities [EventEntity, EventEntity], work=[200*, 0*]
159: 0x052E [0x55] WAIT_LOAD_SCHEDULER: Wait for scheduler "fdo1" with entities [EventEntity, EventEntity], work=200*
160: 0x053D [0x52] END_LOAD_SCHEDULER: End scheduler "s159" with entities [EventEntity, EventEntity], work=760*
161: 0x054C [0x45] LOAD_SCHEDULED_TASK: Load scheduler "whi1" with entities [LocalPlayer, LocalPlayer], work=[201*, 0*]
162: 0x055D [0x55] WAIT_LOAD_SCHEDULER: Wait for scheduler "whi1" with entities [LocalPlayer, LocalPlayer], work=201*

SUBROUTINE_056C:
163: 0x056C [0x35] LOAD_ZONE_NO_CLOSE(zone_id=239*)
164: 0x056F [0x78] ENABLE_GAME_TIMER_RESET_WEATHER()
165: 0x0570 [0x1C] WAIT(1* ticks)
166: 0x0573 [0x5C] MUSIC_CONTROL: Set Idle (Day) music to song 151*
167: 0x0577 [0x5C] MUSIC_CONTROL: Set Idle (Night) music to song 151*
168: 0x057B [0x9A] WAIT_MUSIC_SERVER()
169: 0x057C [0x46] CAMERA_CONTROL: Restore default settings
170: 0x057E [0x45] LOAD_SCHEDULED_TASK: Load scheduler "fdi2" with entities [EventEntity, EventEntity], work=[200*, 0*]
171: 0x058F [0x21] END_EVENT
172: 0x0590 [0x00] END_REQSTACK()
```

#### Data or dead code:

```
# Dead code (unreachable instructions):
     0x025C [0x01] GOTO 0x025F
```

### Event 30036

#### Metadata

| Field        | Value     |
|--------------|-----------|
| Entrypoint   | 0x0591    |
| Data Size    | 655 bytes |
| Instructions | 82        |

```
      00 01 02 03 04 05 06 07  08 09 0A 0B 0C 0D 0E 0F
      -- -- -- -- -- -- -- --  -- -- -- -- -- -- -- --
0590:    42 5D 00 80 01 80 45  02 80 F8 FF FF 7F F8 FF   B]....E........
05A0: FF 7F 66 64 6F 31 00 80  55 02 80 F8 FF FF 7F F8  ..fdo1..U.......
05B0: FF FF 7F 66 64 6F 31 46  01 38 03 80 34 34 80 77  ...fdo1F.8..44.w
05C0: 35 80 06 80 1C 06 80 2F  00 3A F1 0E 01 2F 00 3D  5....../.:.../.=
05D0: F1 0E 01 4E 00 3A F1 0E  01 4E 00 3D F1 0E 01 4E  ...N.:...N.=...N
05E0: 00 F0 FF FF 7F 92 01 3A  F1 0E 01 94 01 3A F1 0E  .......:.....:..
05F0: 01 94 01 3D F1 0E 01 94  01 F0 FF FF 7F 59 05 3D  ...=.........Y.=
0600: F1 0E 01 01 BA 3A F1 0E  01 4C 80 4D 80 38 80 4E  .....:...L.M.8.N
0610: 80 BA 3D F1 0E 01 4F 80  50 80 38 80 51 80 BA F0  ..=...O.P.8.Q...
0620: FF FF 7F 52 80 53 80 38  80 54 80 80 3A F1 0E 01  ...R.S.8.T..:...
0630: 80 3D F1 0E 01 80 F0 FF  FF 7F 5C 00 00 80 5C 01  .=........\...\.
0640: 00 80 9A 29 10 3A F1 0E  01 0B 4A F0 FF FF 7F 3A  ...).:....J....:
0650: F1 0E 01 4A 3A F1 0E 01  F0 FF FF 7F 1C 08 80 D0  ...J:...........
0660: 55 80 3A F1 0E 01 3A F1  0E 01 65 66 66 30 00 80  U.:...:...eff0..
0670: 5B 56 80 3D F1 0E 01 3D  F1 0E 01 75 6B 75 30 D0  [V.=...=...uku0.
0680: 57 80 3D F1 0E 01 3D F1  0E 01 73 74 61 72 00 80  W.=...=...star..
0690: 1C 08 80 45 58 80 F8 FF  FF 7F F8 FF FF 7F 73 30  ...EX.........s0
06A0: 33 30 00 80 1C 3D 80 45  02 80 F8 FF FF 7F F8 FF  30...=.E........
06B0: FF 7F 66 64 69 31 00 80  1C 59 80 52 58 80 F8 FF  ..fdi1...Y.RX...
06C0: FF 7F F8 FF FF 7F 73 30  33 30 45 58 80 F8 FF FF  ......s030EX....
06D0: 7F F8 FF FF 7F 73 30 33  31 00 80 5B 5A 80 3A F1  .....s031..[Z.:.
06E0: 0E 01 3A F1 0E 01 74 6C  6B 30 2B 3A F1 0E 01 5B  ..:...tlk0+:...[
06F0: 80 23 52 58 80 F8 FF FF  7F F8 FF FF 7F 73 30 33  .#RX.........s03
0700: 31 45 58 80 F8 FF FF 7F  F8 FF FF 7F 73 30 33 34  1EX.........s034
0710: 00 80 2B 3A F1 0E 01 5C  80 23 52 58 80 F8 FF FF  ..+:...\.#RX....
0720: 7F F8 FF FF 7F 73 30 33  34 45 58 80 F8 FF FF 7F  .....s034EX.....
0730: F8 FF FF 7F 73 30 33 32  00 80 2B 3A F1 0E 01 5D  ....s032..+:...]
0740: 80 23 2B 3A F1 0E 01 5E  80 23 52 58 80 F8 FF FF  .#+:...^.#RX....
0750: 7F F8 FF FF 7F 73 30 33  32 45 58 80 F8 FF FF 7F  .....s032EX.....
0760: F8 FF FF 7F 73 30 33 33  00 80 2B 3A F1 0E 01 5F  ....s033..+:..._
0770: 80 23 2B 3A F1 0E 01 60  80 23 52 58 80 F8 FF FF  .#+:...`.#RX....
0780: 7F F8 FF FF 7F 73 30 33  33 45 58 80 F8 FF FF 7F  .....s033EX.....
0790: F8 FF FF 7F 73 30 33 35  00 80 2B 3A F1 0E 01 61  ....s035..+:...a
07A0: 80 23 2B 3A F1 0E 01 62  80 23 45 02 80 F8 FF FF  .#+:...b.#E.....
07B0: 7F F8 FF FF 7F 66 64 6F  31 00 80 55 02 80 F8 FF  .....fdo1..U....
07C0: FF 7F F8 FF FF 7F 66 64  6F 31 52 58 80 F8 FF FF  ......fdo1RX....
07D0: 7F F8 FF FF 7F 73 30 33  35 D0 57 80 3D F1 0E 01  .....s035.W.=...
07E0: 3D F1 0E 01 6B 69 6C 6C  00 80 45 58 80 F8 FF FF  =...kill..EX....
07F0: 7F F8 FF FF 7F 62 6C 6F  66 00 80 35 25 80 78 1C  .....blof..5%.x.
0800: 06 80 5C 00 4B 80 5C 01  4B 80 9A 46 00 45 02 80  ..\.K.\.K..F.E..
0810: F8 FF FF 7F F8 FF FF 7F  66 64 69 32 00 80 21 00  ........fdi2..!.
```

#### Opcodes

```
  0: 0x0591 [0x42] SET_CLI_EVENT_CANCEL_DATA()
  1: 0x0592 [0x5D] SET_MUSIC_VOLUME(volume=0*, fade_time=120*)
  2: 0x0597 [0x45] LOAD_SCHEDULED_TASK: Load scheduler "fdo1" with entities [EventEntity, EventEntity], work=[200*, 0*]
  3: 0x05A8 [0x55] WAIT_LOAD_SCHEDULER: Wait for scheduler "fdo1" with entities [EventEntity, EventEntity], work=200*
  4: 0x05B7 [0x46] CAMERA_CONTROL: Disable user control
  5: 0x05B9 [0x38] SET_CLIENT_EVENT_MODE(mode=27*)
  6: 0x05BC [0x34] LOAD_UNLOAD_ZONE(zone_id=541*)
  7: 0x05BF [0x77] SET_EVENT_TIME_WEATHER(hour=255*, weather=1*)
  8: 0x05C4 [0x1C] WAIT(1* ticks)
  9: 0x05C7 [0x2F] Iroha (ID: 17756474/0x010EF13A)->Render.Flags0 &= ~0x80000 // Bit 19
 10: 0x05CD [0x2F] Unnamed NPC (ID: 17756477/0x010EF13D)->Render.Flags0 &= ~0x80000 // Bit 19
 11: 0x05D3 [0x4E] SET_ENTITY_HIDE_FLAG: Show Iroha (ID: 17756474/0x010EF13A)
 12: 0x05D9 [0x4E] SET_ENTITY_HIDE_FLAG: Show Unnamed NPC (ID: 17756477/0x010EF13D)
 13: 0x05DF [0x4E] SET_ENTITY_HIDE_FLAG: Show LocalPlayer
 14: 0x05E5 [0x92] Iroha (ID: 17756474/0x010EF13A)->Render.Flags3 ^= 0x01
 15: 0x05EB [0x94] Iroha (ID: 17756474/0x010EF13A)->Render.Flags3 ^= 0x01
 16: 0x05F1 [0x94] Unnamed NPC (ID: 17756477/0x010EF13D)->Render.Flags3 ^= 0x01
 17: 0x05F7 [0x94] LocalPlayer->Render.Flags3 ^= 0x01
 18: 0x05FD [0x59] UPDATE_ENTITY_DATA: Unnamed NPC (ID: 17756477/0x010EF13D)->Render.Flags0 |= 0x200000
 19: 0x0604 [0xBA] SET_ENTITY_POSITION(entity_id=Iroha (ID: 17756474/0x010EF13A), pos_x=398.621*, pos_z=-454.757*, pos_y=-19.099*, direction=272.6°*)
 20: 0x0611 [0xBA] SET_ENTITY_POSITION(entity_id=Unnamed NPC (ID: 17756477/0x010EF13D), pos_x=399.867*, pos_z=-454.677*, pos_y=-19.099*, direction=358.1°*)
 21: 0x061E [0xBA] SET_ENTITY_POSITION(entity_id=LocalPlayer, pos_x=401.611*, pos_z=-454.671*, pos_y=-19.099*, direction=352.6°*)
 22: 0x062B [0x80] LOAD_WAIT(entity=Iroha (ID: 17756474/0x010EF13A))
 23: 0x0630 [0x80] LOAD_WAIT(entity=Unnamed NPC (ID: 17756477/0x010EF13D))
 24: 0x0635 [0x80] LOAD_WAIT(entity=LocalPlayer)
 25: 0x063A [0x5C] MUSIC_CONTROL: Set Idle (Day) music to song 0*
 26: 0x063E [0x5C] MUSIC_CONTROL: Set Idle (Night) music to song 0*
 27: 0x0642 [0x9A] WAIT_MUSIC_SERVER()
 28: 0x0643 [0x29] REQ_SET_WAIT(priority=0x10, entity_id=Iroha (ID: 17756474/0x010EF13A), tag_num=0x0B)
 29: 0x064A [0x4A] LocalPlayer looks at Iroha (ID: 17756474/0x010EF13A)
 30: 0x0653 [0x4A] Iroha (ID: 17756474/0x010EF13A) looks at LocalPlayer
 31: 0x065C [0x1C] WAIT(30* ticks)
 32: 0x065F [0xD0] LOAD_SCHEDULED_TASK_ALT5: Load scheduler "eff0" with entities [Iroha (ID: 17756474/0x010EF13A), Iroha (ID: 17756474/0x010EF13A)], work=[104*, 0*]
 33: 0x0670 [0x5B] LOAD_EXT_SCHEDULER: Load scheduler "uku0" with entities [Unnamed NPC (ID: 17756477/0x010EF13D), Unnamed NPC (ID: 17756477/0x010EF13D)], work=3878*
 34: 0x067F [0xD0] LOAD_SCHEDULED_TASK_ALT5: Load scheduler "star" with entities [Unnamed NPC (ID: 17756477/0x010EF13D), Unnamed NPC (ID: 17756477/0x010EF13D)], work=[103*, 0*]
 35: 0x0690 [0x1C] WAIT(30* ticks)
 36: 0x0693 [0x45] LOAD_SCHEDULED_TASK: Load scheduler "s030" with entities [EventEntity, EventEntity], work=[762*, 0*]
 37: 0x06A4 [0x1C] WAIT(15* ticks)
 38: 0x06A7 [0x45] LOAD_SCHEDULED_TASK: Load scheduler "fdi1" with entities [EventEntity, EventEntity], work=[200*, 0*]
 39: 0x06B8 [0x1C] WAIT(180* ticks)
 40: 0x06BB [0x52] END_LOAD_SCHEDULER: End scheduler "s030" with entities [EventEntity, EventEntity], work=762*
 41: 0x06CA [0x45] LOAD_SCHEDULED_TASK: Load scheduler "s031" with entities [EventEntity, EventEntity], work=[762*, 0*]
 42: 0x06DB [0x5B] LOAD_EXT_SCHEDULER: Load scheduler "tlk0" with entities [Iroha (ID: 17756474/0x010EF13A), Iroha (ID: 17756474/0x010EF13A)], work=3861*
 43: 0x06EA [0x2B] Iroha (ID: 17756474/0x010EF13A) [10705*]:
    → "Master, look at the orb."
 44: 0x06F1 [0x23] WAIT_FOR_DIALOG_INTERACTION
 45: 0x06F2 [0x52] END_LOAD_SCHEDULER: End scheduler "s031" with entities [EventEntity, EventEntity], work=762*
 46: 0x0701 [0x45] LOAD_SCHEDULED_TASK: Load scheduler "s034" with entities [EventEntity, EventEntity], work=[762*, 0*]
 47: 0x0712 [0x2B] Iroha (ID: 17756474/0x010EF13A) [10706*]:
    → "You have set us on the proper course and passed through the first of many gates to come."
 48: 0x0719 [0x23] WAIT_FOR_DIALOG_INTERACTION
 49: 0x071A [0x52] END_LOAD_SCHEDULER: End scheduler "s034" with entities [EventEntity, EventEntity], work=762*
 50: 0x0729 [0x45] LOAD_SCHEDULED_TASK: Load scheduler "s032" with entities [EventEntity, EventEntity], work=[762*, 0*]
 51: 0x073A [0x2B] Iroha (ID: 17756474/0x010EF13A) [10707*]:
    → "This precious jewel is one of Reisenjima Sanctorium's most mystical treasures."
 52: 0x0741 [0x23] WAIT_FOR_DIALOG_INTERACTION
 53: 0x0742 [0x2B] Iroha (ID: 17756474/0x010EF13A) [10708*]:
    → "Our legends state that it was formed from the energies of a thousand different lives."
 54: 0x0749 [0x23] WAIT_FOR_DIALOG_INTERACTION
 55: 0x074A [0x52] END_LOAD_SCHEDULER: End scheduler "s032" with entities [EventEntity, EventEntity], work=762*
 56: 0x0759 [0x45] LOAD_SCHEDULED_TASK: Load scheduler "s033" with entities [EventEntity, EventEntity], work=[762*, 0*]
 57: 0x076A [0x2B] Iroha (ID: 17756474/0x010EF13A) [10709*]:
    → "Though it had originally been regarded as but a minor artifact, in the future you and my father had drawn forth its true power."
 58: 0x0771 [0x23] WAIT_FOR_DIALOG_INTERACTION
 59: 0x0772 [0x2B] Iroha (ID: 17756474/0x010EF13A) [10710*]:
    → "In reality, it is a piece of the mothercrystal."
 60: 0x0779 [0x23] WAIT_FOR_DIALOG_INTERACTION
 61: 0x077A [0x52] END_LOAD_SCHEDULER: End scheduler "s033" with entities [EventEntity, EventEntity], work=762*
 62: 0x0789 [0x45] LOAD_SCHEDULED_TASK: Load scheduler "s035" with entities [EventEntity, EventEntity], work=[762*, 0*]
 63: 0x079A [0x2B] Iroha (ID: 17756474/0x010EF13A) [10711*]:
    → "Please, Master. You may have taken the first steps, but I urge you to continue pressing on."
 64: 0x07A1 [0x23] WAIT_FOR_DIALOG_INTERACTION
 65: 0x07A2 [0x2B] Iroha (ID: 17756474/0x010EF13A) [10712*]:
    → "Gilgamesh awaits word in Norg."
 66: 0x07A9 [0x23] WAIT_FOR_DIALOG_INTERACTION
 67: 0x07AA [0x45] LOAD_SCHEDULED_TASK: Load scheduler "fdo1" with entities [EventEntity, EventEntity], work=[200*, 0*]
 68: 0x07BB [0x55] WAIT_LOAD_SCHEDULER: Wait for scheduler "fdo1" with entities [EventEntity, EventEntity], work=200*
 69: 0x07CA [0x52] END_LOAD_SCHEDULER: End scheduler "s035" with entities [EventEntity, EventEntity], work=762*
 70: 0x07D9 [0xD0] LOAD_SCHEDULED_TASK_ALT5: Load scheduler "kill" with entities [Unnamed NPC (ID: 17756477/0x010EF13D), Unnamed NPC (ID: 17756477/0x010EF13D)], work=[103*, 0*]
 71: 0x07EA [0x45] LOAD_SCHEDULED_TASK: Load scheduler "blof" with entities [EventEntity, EventEntity], work=[762*, 0*]
 72: 0x07FB [0x35] LOAD_ZONE_NO_CLOSE(zone_id=239*)
 73: 0x07FE [0x78] ENABLE_GAME_TIMER_RESET_WEATHER()
 74: 0x07FF [0x1C] WAIT(1* ticks)
 75: 0x0802 [0x5C] MUSIC_CONTROL: Set Idle (Day) music to song 151*
 76: 0x0806 [0x5C] MUSIC_CONTROL: Set Idle (Night) music to song 151*
 77: 0x080A [0x9A] WAIT_MUSIC_SERVER()
 78: 0x080B [0x46] CAMERA_CONTROL: Restore default settings
 79: 0x080D [0x45] LOAD_SCHEDULED_TASK: Load scheduler "fdi2" with entities [EventEntity, EventEntity], work=[200*, 0*]
 80: 0x081E [0x21] END_EVENT
 81: 0x081F [0x00] END_REQSTACK()
```

### Event 30039

#### Metadata

| Field        | Value     |
|--------------|-----------|
| Entrypoint   | 0x0820    |
| Data Size    | 925 bytes |
| Instructions | 107       |

```
      00 01 02 03 04 05 06 07  08 09 0A 0B 0C 0D 0E 0F
      -- -- -- -- -- -- -- --  -- -- -- -- -- -- -- --
0820: 42 5D 00 80 01 80 45 02  80 F8 FF FF 7F F8 FF FF  B]....E.........
0830: 7F 66 64 6F 31 00 80 55  02 80 F8 FF FF 7F F8 FF  .fdo1..U........
0840: FF 7F 66 64 6F 31 46 01  38 03 80 34 34 80 77 35  ..fdo1F.8..44.w5
0850: 80 06 80 1C 06 80 2F 00  3A F1 0E 01 2F 00 3D F1  ....../.:.../.=.
0860: 0E 01 4E 00 3A F1 0E 01  4E 00 3D F1 0E 01 4E 00  ..N.:...N.=...N.
0870: F0 FF FF 7F 92 01 3A F1  0E 01 92 01 3D F1 0E 01  ......:.....=...
0880: 94 01 3A F1 0E 01 94 01  3D F1 0E 01 94 01 F0 FF  ..:.....=.......
0890: FF 7F 59 05 3D F1 0E 01  01 BA 3A F1 0E 01 4C 80  ..Y.=.....:...L.
08A0: 4D 80 38 80 4E 80 BA 3D  F1 0E 01 4F 80 50 80 38  M.8.N..=...O.P.8
08B0: 80 51 80 BA F0 FF FF 7F  52 80 53 80 38 80 54 80  .Q......R.S.8.T.
08C0: 80 3A F1 0E 01 80 3D F1  0E 01 80 F0 FF FF 7F 5C  .:....=........\
08D0: 00 00 80 5C 01 00 80 9A  29 10 3A F1 0E 01 0B 4A  ...\....).:....J
08E0: F0 FF FF 7F 3A F1 0E 01  4A 3A F1 0E 01 F0 FF FF  ....:...J:......
08F0: 7F 1C 08 80 D0 55 80 3A  F1 0E 01 3A F1 0E 01 65  .....U.:...:...e
0900: 66 66 30 00 80 5B 56 80  3D F1 0E 01 3D F1 0E 01  ff0..[V.=...=...
0910: 75 6B 75 30 D0 57 80 3D  F1 0E 01 3D F1 0E 01 73  uku0.W.=...=...s
0920: 74 61 72 00 80 1C 08 80  45 63 80 F8 FF FF 7F F8  tar.....Ec......
0930: FF FF 7F 73 30 32 38 00  80 1C 3D 80 45 02 80 F8  ...s028...=.E...
0940: FF FF 7F F8 FF FF 7F 66  64 69 31 00 80 1C 59 80  .......fdi1...Y.
0950: 52 63 80 F8 FF FF 7F F8  FF FF 7F 73 30 32 38 45  Rc.........s028E
0960: 63 80 F8 FF FF 7F F8 FF  FF 7F 73 30 32 39 00 80  c.........s029..
0970: 5B 5A 80 3A F1 0E 01 3A  F1 0E 01 74 6C 6B 30 2B  [Z.:...:...tlk0+
0980: 3A F1 0E 01 64 80 23 52  63 80 F8 FF FF 7F F8 FF  :...d.#Rc.......
0990: FF 7F 73 30 32 39 45 63  80 F8 FF FF 7F F8 FF FF  ..s029Ec........
09A0: 7F 73 30 33 30 00 80 2B  3A F1 0E 01 65 80 23 52  .s030..+:...e.#R
09B0: 63 80 F8 FF FF 7F F8 FF  FF 7F 73 30 33 30 45 63  c.........s030Ec
09C0: 80 F8 FF FF 7F F8 FF FF  7F 73 30 33 31 00 80 5B  .........s031..[
09D0: 5A 80 3A F1 0E 01 3A F1  0E 01 74 6C 6B 31 2B 3A  Z.:...:...tlk1+:
09E0: F1 0E 01 66 80 23 2B 3A  F1 0E 01 67 80 23 52 63  ...f.#+:...g.#Rc
09F0: 80 F8 FF FF 7F F8 FF FF  7F 73 30 33 31 45 63 80  .........s031Ec.
0A00: F8 FF FF 7F F8 FF FF 7F  73 30 33 32 00 80 81 00  ........s032....
0A10: 3A F1 0E 01 7C 00 3A F1  0E 01 5B 68 80 3A F1 0E  :...|.:...[h.:..
0A20: 01 3A F1 0E 01 66 67 30  31 5F 05 69 80 3A F1 0E  .:...fg01_.i.:..
0A30: 01 3A F1 0E 01 6E 6F 6E  30 6A 80 2B 3A F1 0E 01  .:...non0j.+:...
0A40: 6B 80 23 2B 3A F1 0E 01  6C 80 23 5F 07 3A F1 0E  k.#+:...l.#_.:..
0A50: 01 3A F1 0E 01 6E 6F 6E  30 52 63 80 F8 FF FF 7F  .:...non0Rc.....
0A60: F8 FF FF 7F 73 30 33 32  45 63 80 F8 FF FF 7F F8  ....s032Ec......
0A70: FF FF 7F 73 30 33 33 00  80 5B 68 80 3A F1 0E 01  ...s033..[h.:...
0A80: 3A F1 0E 01 66 64 30 31  2B 3A F1 0E 01 6D 80 23  :...fd01+:...m.#
0A90: 5B 68 80 3A F1 0E 01 3A  F1 0E 01 66 64 30 30 5B  [h.:...:...fd00[
0AA0: 6E 80 3A F1 0E 01 3A F1  0E 01 68 69 7A 30 1C 6F  n.:...:...hiz0.o
0AB0: 80 52 63 80 F8 FF FF 7F  F8 FF FF 7F 73 30 33 33  .Rc.........s033
0AC0: 45 63 80 F8 FF FF 7F F8  FF FF 7F 73 30 33 34 00  Ec.........s034.
0AD0: 80 1C 6F 80 6E F0 FF FF  7F 70 80 99 F0 FF FF 7F  ..o.n....p......
0AE0: 1C 6F 80 2B 3A F1 0E 01  71 80 23 2B 3A F1 0E 01  .o.+:...q.#+:...
0AF0: 72 80 23 D0 55 80 3A F1  0E 01 3A F1 0E 01 6B 69  r.#.U.:...:...ki
0B00: 65 31 00 80 1C 28 80 45  4A 80 F0 FF FF 7F F0 FF  e1...(.EJ.......
0B10: FF 7F 77 68 6F 31 00 80  55 4A 80 F0 FF FF 7F F0  ..who1..UJ......
0B20: FF FF 7F 77 68 6F 31 45  02 80 F8 FF FF 7F F8 FF  ...who1E........
0B30: FF 7F 66 64 6F 31 00 80  55 02 80 F8 FF FF 7F F8  ..fdo1..U.......
0B40: FF FF 7F 66 64 6F 31 52  63 80 F8 FF FF 7F F8 FF  ...fdo1Rc.......
0B50: FF 7F 73 30 33 34 D0 57  80 3D F1 0E 01 3D F1 0E  ..s034.W.=...=..
0B60: 01 6B 69 6C 6C 00 80 45  63 80 F8 FF FF 7F F8 FF  .kill..Ec.......
0B70: FF 7F 62 6C 6F 66 00 80  45 4A 80 F0 FF FF 7F F0  ..blof..EJ......
0B80: FF FF 7F 77 68 69 30 00  80 55 4A 80 F0 FF FF 7F  ...whi0..UJ.....
0B90: F0 FF FF 7F 77 68 69 30  35 25 80 78 1C 06 80 5C  ....whi05%.x...\
0BA0: 00 4B 80 5C 01 4B 80 9A  46 00 45 02 80 F8 FF FF  .K.\.K..F.E.....
0BB0: 7F F8 FF FF 7F 66 64 69  32 00 80 21 00           .....fdi2..!.   
```

#### Opcodes

```
  0: 0x0820 [0x42] SET_CLI_EVENT_CANCEL_DATA()
  1: 0x0821 [0x5D] SET_MUSIC_VOLUME(volume=0*, fade_time=120*)
  2: 0x0826 [0x45] LOAD_SCHEDULED_TASK: Load scheduler "fdo1" with entities [EventEntity, EventEntity], work=[200*, 0*]
  3: 0x0837 [0x55] WAIT_LOAD_SCHEDULER: Wait for scheduler "fdo1" with entities [EventEntity, EventEntity], work=200*
  4: 0x0846 [0x46] CAMERA_CONTROL: Disable user control
  5: 0x0848 [0x38] SET_CLIENT_EVENT_MODE(mode=27*)
  6: 0x084B [0x34] LOAD_UNLOAD_ZONE(zone_id=541*)
  7: 0x084E [0x77] SET_EVENT_TIME_WEATHER(hour=255*, weather=1*)
  8: 0x0853 [0x1C] WAIT(1* ticks)
  9: 0x0856 [0x2F] Iroha (ID: 17756474/0x010EF13A)->Render.Flags0 &= ~0x80000 // Bit 19
 10: 0x085C [0x2F] Unnamed NPC (ID: 17756477/0x010EF13D)->Render.Flags0 &= ~0x80000 // Bit 19
 11: 0x0862 [0x4E] SET_ENTITY_HIDE_FLAG: Show Iroha (ID: 17756474/0x010EF13A)
 12: 0x0868 [0x4E] SET_ENTITY_HIDE_FLAG: Show Unnamed NPC (ID: 17756477/0x010EF13D)
 13: 0x086E [0x4E] SET_ENTITY_HIDE_FLAG: Show LocalPlayer
 14: 0x0874 [0x92] Iroha (ID: 17756474/0x010EF13A)->Render.Flags3 ^= 0x01
 15: 0x087A [0x92] Unnamed NPC (ID: 17756477/0x010EF13D)->Render.Flags3 ^= 0x01
 16: 0x0880 [0x94] Iroha (ID: 17756474/0x010EF13A)->Render.Flags3 ^= 0x01
 17: 0x0886 [0x94] Unnamed NPC (ID: 17756477/0x010EF13D)->Render.Flags3 ^= 0x01
 18: 0x088C [0x94] LocalPlayer->Render.Flags3 ^= 0x01
 19: 0x0892 [0x59] UPDATE_ENTITY_DATA: Unnamed NPC (ID: 17756477/0x010EF13D)->Render.Flags0 |= 0x200000
 20: 0x0899 [0xBA] SET_ENTITY_POSITION(entity_id=Iroha (ID: 17756474/0x010EF13A), pos_x=398.621*, pos_z=-454.757*, pos_y=-19.099*, direction=272.6°*)
 21: 0x08A6 [0xBA] SET_ENTITY_POSITION(entity_id=Unnamed NPC (ID: 17756477/0x010EF13D), pos_x=399.867*, pos_z=-454.677*, pos_y=-19.099*, direction=358.1°*)
 22: 0x08B3 [0xBA] SET_ENTITY_POSITION(entity_id=LocalPlayer, pos_x=401.611*, pos_z=-454.671*, pos_y=-19.099*, direction=352.6°*)
 23: 0x08C0 [0x80] LOAD_WAIT(entity=Iroha (ID: 17756474/0x010EF13A))
 24: 0x08C5 [0x80] LOAD_WAIT(entity=Unnamed NPC (ID: 17756477/0x010EF13D))
 25: 0x08CA [0x80] LOAD_WAIT(entity=LocalPlayer)
 26: 0x08CF [0x5C] MUSIC_CONTROL: Set Idle (Day) music to song 0*
 27: 0x08D3 [0x5C] MUSIC_CONTROL: Set Idle (Night) music to song 0*
 28: 0x08D7 [0x9A] WAIT_MUSIC_SERVER()
 29: 0x08D8 [0x29] REQ_SET_WAIT(priority=0x10, entity_id=Iroha (ID: 17756474/0x010EF13A), tag_num=0x0B)
 30: 0x08DF [0x4A] LocalPlayer looks at Iroha (ID: 17756474/0x010EF13A)
 31: 0x08E8 [0x4A] Iroha (ID: 17756474/0x010EF13A) looks at LocalPlayer
 32: 0x08F1 [0x1C] WAIT(30* ticks)
 33: 0x08F4 [0xD0] LOAD_SCHEDULED_TASK_ALT5: Load scheduler "eff0" with entities [Iroha (ID: 17756474/0x010EF13A), Iroha (ID: 17756474/0x010EF13A)], work=[104*, 0*]
 34: 0x0905 [0x5B] LOAD_EXT_SCHEDULER: Load scheduler "uku0" with entities [Unnamed NPC (ID: 17756477/0x010EF13D), Unnamed NPC (ID: 17756477/0x010EF13D)], work=3878*
 35: 0x0914 [0xD0] LOAD_SCHEDULED_TASK_ALT5: Load scheduler "star" with entities [Unnamed NPC (ID: 17756477/0x010EF13D), Unnamed NPC (ID: 17756477/0x010EF13D)], work=[103*, 0*]
 36: 0x0925 [0x1C] WAIT(30* ticks)
 37: 0x0928 [0x45] LOAD_SCHEDULED_TASK: Load scheduler "s028" with entities [EventEntity, EventEntity], work=[764*, 0*]
 38: 0x0939 [0x1C] WAIT(15* ticks)
 39: 0x093C [0x45] LOAD_SCHEDULED_TASK: Load scheduler "fdi1" with entities [EventEntity, EventEntity], work=[200*, 0*]
 40: 0x094D [0x1C] WAIT(180* ticks)
 41: 0x0950 [0x52] END_LOAD_SCHEDULER: End scheduler "s028" with entities [EventEntity, EventEntity], work=764*
 42: 0x095F [0x45] LOAD_SCHEDULED_TASK: Load scheduler "s029" with entities [EventEntity, EventEntity], work=[764*, 0*]
 43: 0x0970 [0x5B] LOAD_EXT_SCHEDULER: Load scheduler "tlk0" with entities [Iroha (ID: 17756474/0x010EF13A), Iroha (ID: 17756474/0x010EF13A)], work=3861*
 44: 0x097F [0x2B] Iroha (ID: 17756474/0x010EF13A) [10713*]:
    → "Master, behold your orb."
 45: 0x0986 [0x23] WAIT_FOR_DIALOG_INTERACTION
 46: 0x0987 [0x52] END_LOAD_SCHEDULER: End scheduler "s029" with entities [EventEntity, EventEntity], work=764*
 47: 0x0996 [0x45] LOAD_SCHEDULED_TASK: Load scheduler "s030" with entities [EventEntity, EventEntity], work=[764*, 0*]
 48: 0x09A7 [0x2B] Iroha (ID: 17756474/0x010EF13A) [10714*]:
    → "Your path remains steadfast, and you have successfully reached the third gate."
 49: 0x09AE [0x23] WAIT_FOR_DIALOG_INTERACTION
 50: 0x09AF [0x52] END_LOAD_SCHEDULER: End scheduler "s030" with entities [EventEntity, EventEntity], work=764*
 51: 0x09BE [0x45] LOAD_SCHEDULED_TASK: Load scheduler "s031" with entities [EventEntity, EventEntity], work=[764*, 0*]
 52: 0x09CF [0x5B] LOAD_EXT_SCHEDULER: Load scheduler "tlk1" with entities [Iroha (ID: 17756474/0x010EF13A), Iroha (ID: 17756474/0x010EF13A)], work=3861*
 53: 0x09DE [0x2B] Iroha (ID: 17756474/0x010EF13A) [10715*]:
    → "But the spirits which protect Reisenjima Sanctorium have gone silent..."
 54: 0x09E5 [0x23] WAIT_FOR_DIALOG_INTERACTION
 55: 0x09E6 [0x2B] Iroha (ID: 17756474/0x010EF13A) [10716*]:
    → "And I am unable to remain here in 884."
 56: 0x09ED [0x23] WAIT_FOR_DIALOG_INTERACTION
 57: 0x09EE [0x52] END_LOAD_SCHEDULER: End scheduler "s031" with entities [EventEntity, EventEntity], work=764*
 58: 0x09FD [0x45] LOAD_SCHEDULED_TASK: Load scheduler "s032" with entities [EventEntity, EventEntity], work=[764*, 0*]
 59: 0x0A0E [0x81] SET_ENTITY_BLINKING(blink_flag=0x00, entity=Iroha (ID: 17756474/0x010EF13A))
 60: 0x0A14 [0x7C] Iroha (ID: 17756474/0x010EF13A)->Render.Flags2 |= 0x00
 61: 0x0A1A [0x5B] LOAD_EXT_SCHEDULER: Load scheduler "fg01" with entities [Iroha (ID: 17756474/0x010EF13A), Iroha (ID: 17756474/0x010EF13A)], work=3858*
 62: 0x0A29 [0x5F] MULTI_HANDLER_COMPLEX(mode=0x05 - Load ext scheduler with flag (OpCode 0x5B mode 0, flag 1), ref=3862*, entity1=Iroha (ID: 17756474/0x010EF13A), entity2=Iroha (ID: 17756474/0x010EF13A), string="non0", extra=140*)
 63: 0x0A3B [0x2B] Iroha (ID: 17756474/0x010EF13A) [10717*]:
    → "My abject failure to guide you in your hour of need is a shame that I shall not overcome."
 64: 0x0A42 [0x23] WAIT_FOR_DIALOG_INTERACTION
 65: 0x0A43 [0x2B] Iroha (ID: 17756474/0x010EF13A) [10718*]:
    → "Had I been able to better serve you, then maybe..."
 66: 0x0A4A [0x23] WAIT_FOR_DIALOG_INTERACTION
 67: 0x0A4B [0x5F] MULTI_HANDLER_COMPLEX(mode=0x07 - Wait scheduler task (OpCode 0x53))
 68: 0x0A59 [0x52] END_LOAD_SCHEDULER: End scheduler "s032" with entities [EventEntity, EventEntity], work=764*
 69: 0x0A68 [0x45] LOAD_SCHEDULED_TASK: Load scheduler "s033" with entities [EventEntity, EventEntity], work=[764*, 0*]
 70: 0x0A79 [0x5B] LOAD_EXT_SCHEDULER: Load scheduler "fd01" with entities [Iroha (ID: 17756474/0x010EF13A), Iroha (ID: 17756474/0x010EF13A)], work=3858*
 71: 0x0A88 [0x2B] Iroha (ID: 17756474/0x010EF13A) [10719*]:
    → "But I can safely place my trust in you. You have come this far, and the orb grows stronger with each passing day. You will be ready when the world has reached the fulcrum."
 72: 0x0A8F [0x23] WAIT_FOR_DIALOG_INTERACTION
 73: 0x0A90 [0x5B] LOAD_EXT_SCHEDULER: Load scheduler "fd00" with entities [Iroha (ID: 17756474/0x010EF13A), Iroha (ID: 17756474/0x010EF13A)], work=3858*
 74: 0x0A9F [0x5B] LOAD_EXT_SCHEDULER: Load scheduler "hiz0" with entities [Iroha (ID: 17756474/0x010EF13A), Iroha (ID: 17756474/0x010EF13A)], work=3865*
 75: 0x0AAE [0x1C] WAIT(60* ticks)
 76: 0x0AB1 [0x52] END_LOAD_SCHEDULER: End scheduler "s033" with entities [EventEntity, EventEntity], work=764*
 77: 0x0AC0 [0x45] LOAD_SCHEDULED_TASK: Load scheduler "s034" with entities [EventEntity, EventEntity], work=[764*, 0*]
 78: 0x0AD1 [0x1C] WAIT(60* ticks)
 79: 0x0AD4 [0x6E] LocalPlayer uses emote 21*
 80: 0x0ADB [0x99] Wait for LocalPlayer animation to complete
 81: 0x0AE0 [0x1C] WAIT(60* ticks)
 82: 0x0AE3 [0x2B] Iroha (ID: 17756474/0x010EF13A) [10720*]:
    → "May your steps remain swift and true."
 83: 0x0AEA [0x23] WAIT_FOR_DIALOG_INTERACTION
 84: 0x0AEB [0x2B] Iroha (ID: 17756474/0x010EF13A) [10721*]:
    → "Head for...the palace..."
 85: 0x0AF2 [0x23] WAIT_FOR_DIALOG_INTERACTION
 86: 0x0AF3 [0xD0] LOAD_SCHEDULED_TASK_ALT5: Load scheduler "kie1" with entities [Iroha (ID: 17756474/0x010EF13A), Iroha (ID: 17756474/0x010EF13A)], work=[104*, 0*]
 87: 0x0B04 [0x1C] WAIT(240* ticks)
 88: 0x0B07 [0x45] LOAD_SCHEDULED_TASK: Load scheduler "who1" with entities [LocalPlayer, LocalPlayer], work=[201*, 0*]
 89: 0x0B18 [0x55] WAIT_LOAD_SCHEDULER: Wait for scheduler "who1" with entities [LocalPlayer, LocalPlayer], work=201*
 90: 0x0B27 [0x45] LOAD_SCHEDULED_TASK: Load scheduler "fdo1" with entities [EventEntity, EventEntity], work=[200*, 0*]
 91: 0x0B38 [0x55] WAIT_LOAD_SCHEDULER: Wait for scheduler "fdo1" with entities [EventEntity, EventEntity], work=200*
 92: 0x0B47 [0x52] END_LOAD_SCHEDULER: End scheduler "s034" with entities [EventEntity, EventEntity], work=764*
 93: 0x0B56 [0xD0] LOAD_SCHEDULED_TASK_ALT5: Load scheduler "kill" with entities [Unnamed NPC (ID: 17756477/0x010EF13D), Unnamed NPC (ID: 17756477/0x010EF13D)], work=[103*, 0*]
 94: 0x0B67 [0x45] LOAD_SCHEDULED_TASK: Load scheduler "blof" with entities [EventEntity, EventEntity], work=[764*, 0*]
 95: 0x0B78 [0x45] LOAD_SCHEDULED_TASK: Load scheduler "whi0" with entities [LocalPlayer, LocalPlayer], work=[201*, 0*]
 96: 0x0B89 [0x55] WAIT_LOAD_SCHEDULER: Wait for scheduler "whi0" with entities [LocalPlayer, LocalPlayer], work=201*
 97: 0x0B98 [0x35] LOAD_ZONE_NO_CLOSE(zone_id=239*)
 98: 0x0B9B [0x78] ENABLE_GAME_TIMER_RESET_WEATHER()
 99: 0x0B9C [0x1C] WAIT(1* ticks)
100: 0x0B9F [0x5C] MUSIC_CONTROL: Set Idle (Day) music to song 151*
101: 0x0BA3 [0x5C] MUSIC_CONTROL: Set Idle (Night) music to song 151*
102: 0x0BA7 [0x9A] WAIT_MUSIC_SERVER()
103: 0x0BA8 [0x46] CAMERA_CONTROL: Restore default settings
104: 0x0BAA [0x45] LOAD_SCHEDULED_TASK: Load scheduler "fdi2" with entities [EventEntity, EventEntity], work=[200*, 0*]
105: 0x0BBB [0x21] END_EVENT
106: 0x0BBC [0x00] END_REQSTACK()
```

### Event 30040

#### Metadata

| Field        | Value      |
|--------------|------------|
| Entrypoint   | 0x0BBD     |
| Data Size    | 1184 bytes |
| Instructions | 155        |

```
      00 01 02 03 04 05 06 07  08 09 0A 0B 0C 0D 0E 0F
      -- -- -- -- -- -- -- --  -- -- -- -- -- -- -- --
0BB0:                                         42 03 01               B..
0BC0: 10 06 80 43 00 43 01 03  01 00 02 10 03 03 00 03  ...C.C..........
0BD0: 10 5D 00 80 01 80 45 02  80 F8 FF FF 7F F8 FF FF  .]....E.........
0BE0: 7F 66 64 6F 31 00 80 55  02 80 F8 FF FF 7F F8 FF  .fdo1..U........
0BF0: FF 7F 66 64 6F 31 46 01  38 03 80 34 34 80 77 35  ..fdo1F.8..44.w5
0C00: 80 06 80 1C 06 80 2F 00  3A F1 0E 01 2F 00 3D F1  ....../.:.../.=.
0C10: 0E 01 4E 00 3A F1 0E 01  4E 00 3D F1 0E 01 4E 00  ..N.:...N.=...N.
0C20: F0 FF FF 7F 92 01 3D F1  0E 01 92 01 3A F1 0E 01  ......=.....:...
0C30: 94 01 3A F1 0E 01 94 01  3D F1 0E 01 94 01 F0 FF  ..:.....=.......
0C40: FF 7F 59 05 3D F1 0E 01  01 BA 3A F1 0E 01 4C 80  ..Y.=.....:...L.
0C50: 4D 80 38 80 4E 80 BA 3D  F1 0E 01 4F 80 50 80 38  M.8.N..=...O.P.8
0C60: 80 51 80 BA F0 FF FF 7F  52 80 53 80 38 80 54 80  .Q......R.S.8.T.
0C70: 80 3A F1 0E 01 80 3D F1  0E 01 80 F0 FF FF 7F 5C  .:....=........\
0C80: 00 00 80 5C 01 00 80 9A  29 10 3A F1 0E 01 0B 4A  ...\....).:....J
0C90: F0 FF FF 7F 3A F1 0E 01  4A 3A F1 0E 01 F0 FF FF  ....:...J:......
0CA0: 7F 1C 08 80 D0 55 80 3A  F1 0E 01 3A F1 0E 01 65  .....U.:...:...e
0CB0: 66 66 30 00 80 5B 56 80  3D F1 0E 01 3D F1 0E 01  ff0..[V.=...=...
0CC0: 75 6B 75 30 D0 57 80 3D  F1 0E 01 3D F1 0E 01 73  uku0.W.=...=...s
0CD0: 74 61 72 00 80 1C 08 80  45 63 80 F8 FF FF 7F F8  tar.....Ec......
0CE0: FF FF 7F 73 30 32 38 00  80 1C 3D 80 45 02 80 F8  ...s028...=.E...
0CF0: FF FF 7F F8 FF FF 7F 66  64 69 31 00 80 1C 59 80  .......fdi1...Y.
0D00: 52 63 80 F8 FF FF 7F F8  FF FF 7F 73 30 32 38 45  Rc.........s028E
0D10: 63 80 F8 FF FF 7F F8 FF  FF 7F 73 30 32 39 00 80  c.........s029..
0D20: 5B 5A 80 3A F1 0E 01 3A  F1 0E 01 74 6C 6B 30 2B  [Z.:...:...tlk0+
0D30: 3A F1 0E 01 73 80 23 52  63 80 F8 FF FF 7F F8 FF  :...s.#Rc.......
0D40: FF 7F 73 30 32 39 45 63  80 F8 FF FF 7F F8 FF FF  ..s029Ec........
0D50: 7F 73 30 33 30 00 80 2B  3A F1 0E 01 74 80 23 52  .s030..+:...t.#R
0D60: 63 80 F8 FF FF 7F F8 FF  FF 7F 73 30 33 30 45 63  c.........s030Ec
0D70: 80 F8 FF FF 7F F8 FF FF  7F 73 30 33 31 00 80 5B  .........s031..[
0D80: 5A 80 3A F1 0E 01 3A F1  0E 01 74 6C 6B 31 2B 3A  Z.:...:...tlk1+:
0D90: F1 0E 01 75 80 23 2B 3A  F1 0E 01 76 80 23 52 63  ...u.#+:...v.#Rc
0DA0: 80 F8 FF FF 7F F8 FF FF  7F 73 30 33 31 45 63 80  .........s031Ec.
0DB0: F8 FF FF 7F F8 FF FF 7F  73 30 33 32 00 80 81 00  ........s032....
0DC0: 3A F1 0E 01 7C 00 3A F1  0E 01 5B 68 80 3A F1 0E  :...|.:...[h.:..
0DD0: 01 3A F1 0E 01 66 67 30  31 5F 05 69 80 3A F1 0E  .:...fg01_.i.:..
0DE0: 01 3A F1 0E 01 6E 6F 6E  30 6A 80 2B 3A F1 0E 01  .:...non0j.+:...
0DF0: 77 80 23 2B 3A F1 0E 01  78 80 23 5F 07 3A F1 0E  w.#+:...x.#_.:..
0E00: 01 3A F1 0E 01 6E 6F 6E  30 5B 68 80 3A F1 0E 01  .:...non0[h.:...
0E10: 3A F1 0E 01 66 64 30 31  5B 6E 80 3A F1 0E 01 3A  :...fd01[n.:...:
0E20: F1 0E 01 68 69 7A 30 1C  6F 80 52 63 80 F8 FF FF  ...hiz0.o.Rc....
0E30: 7F F8 FF FF 7F 73 30 33  32 45 63 80 F8 FF FF 7F  .....s032Ec.....
0E40: F8 FF FF 7F 73 30 33 34  00 80 1C 6F 80 6E F0 FF  ....s034...o.n..
0E50: FF 7F 70 80 99 F0 FF FF  7F 1C 6F 80 2B 3A F1 0E  ..p.......o.+:..
0E60: 01 79 80 23 2B 3A F1 0E  01 7A 80 23 D0 55 80 3A  .y.#+:...z.#.U.:
0E70: F1 0E 01 3A F1 0E 01 6B  69 65 31 00 80 1C 28 80  ...:...kie1...(.
0E80: 45 4A 80 F0 FF FF 7F F0  FF FF 7F 77 68 6F 31 00  EJ.........who1.
0E90: 80 55 4A 80 F0 FF FF 7F  F0 FF FF 7F 77 68 6F 31  .UJ.........who1
0EA0: 52 63 80 F8 FF FF 7F F8  FF FF 7F 73 30 33 34 D0  Rc.........s034.
0EB0: 57 80 3D F1 0E 01 3D F1  0E 01 6B 69 6C 6C 00 80  W.=...=...kill..
0EC0: 45 63 80 F8 FF FF 7F F8  FF FF 7F 62 6C 6F 66 00  Ec.........blof.
0ED0: 80 2F 00 42 F1 0E 01 4E  00 42 F1 0E 01 22 00 92  ./.B...N.B..."..
0EE0: 01 42 F1 0E 01 94 01 42  F1 0E 01 59 05 42 F1 0E  .B.....B...Y.B..
0EF0: 01 01 33 01 37 7B 80 7C  80 7D 80 7E 80 BA 42 F1  ..3.7{.|.}.~..B.
0F00: 0E 01 7B 80 7C 80 7D 80  7E 80 80 42 F1 0E 01 1C  ..{.|.}.~..B....
0F10: 08 80 D0 7F 80 F8 FF FF  7F F8 FF FF 7F 6B 79 75  .............kyu
0F20: 30 00 80 1C 08 80 45 63  80 F8 FF FF 7F F8 FF FF  0.....Ec........
0F30: 7F 73 30 33 35 00 80 1C  3D 80 45 4A 80 F0 FF FF  .s035...=.EJ....
0F40: 7F F0 FF FF 7F 77 68 69  31 00 80 1C 01 80 52 63  .....whi1.....Rc
0F50: 80 F8 FF FF 7F F8 FF FF  7F 73 30 33 35 45 63 80  .........s035Ec.
0F60: F8 FF FF 7F F8 FF FF 7F  73 31 35 33 00 80 02 01  ........s153....
0F70: 00 00 80 80 81 0F 2B 42  F1 0E 01 80 80 23 01 F5  ......+B.....#..
0F80: 0F 02 01 00 06 80 80 94  0F 2B 42 F1 0E 01 81 80  .........+B.....
0F90: 23 01 F5 0F 02 01 00 0C  80 80 BC 0F 02 03 00 00  #...............
0FA0: 80 00 AC 0F 03 03 10 00  80 01 B1 0F 03 03 10 06  ................
0FB0: 80 2B 42 F1 0E 01 82 80  23 01 F5 0F 02 01 00 10  .+B.....#.......
0FC0: 80 80 CF 0F 2B 42 F1 0E  01 83 80 23 01 F5 0F 02  ....+B.....#....
0FD0: 01 00 14 80 80 E2 0F 2B  42 F1 0E 01 84 80 23 01  .......+B.....#.
0FE0: F5 0F 02 01 00 18 80 80  F5 0F 2B 42 F1 0E 01 85  ..........+B....
0FF0: 80 23 01 F5 0F 1C 6F 80  45 02 80 F8 FF FF 7F F8  .#....o.E.......
1000: FF FF 7F 66 64 6F 31 00  80 55 02 80 F8 FF FF 7F  ...fdo1..U......
1010: F8 FF FF 7F 66 64 6F 31  52 63 80 F8 FF FF 7F F8  ....fdo1Rc......
1020: FF FF 7F 73 31 35 33 D0  7F 80 F8 FF FF 7F F8 FF  ...s153.........
1030: FF 7F 6B 6C 6B 79 00 80  35 25 80 78 1C 06 80 5C  ..klky..5%.x...\
1040: 00 4B 80 5C 01 4B 80 9A  46 00 45 02 80 F8 FF FF  .K.\.K..F.E.....
1050: 7F F8 FF FF 7F 66 64 69  32 00 80 21 00           .....fdi2..!.   
```

#### Opcodes

```
  0: 0x0BBD [0x42] SET_CLI_EVENT_CANCEL_DATA()
  1: 0x0BBE [0x03] Work_Zone[1] = 1*
  2: 0x0BC3 [0x43] SEND_EVENT_UPDATE: Send pending tag to server (packet 0x005B)
  3: 0x0BC5 [0x43] SEND_EVENT_UPDATE: Check pending flag (skip if not pending)
  4: 0x0BC7 [0x03] ExtData[1]->WorkLocal[1] = Work_Zone[2]
  5: 0x0BCC [0x03] ExtData[1]->WorkLocal[3] = Work_Zone[3]
  6: 0x0BD1 [0x5D] SET_MUSIC_VOLUME(volume=0*, fade_time=120*)
  7: 0x0BD6 [0x45] LOAD_SCHEDULED_TASK: Load scheduler "fdo1" with entities [EventEntity, EventEntity], work=[200*, 0*]
  8: 0x0BE7 [0x55] WAIT_LOAD_SCHEDULER: Wait for scheduler "fdo1" with entities [EventEntity, EventEntity], work=200*
  9: 0x0BF6 [0x46] CAMERA_CONTROL: Disable user control
 10: 0x0BF8 [0x38] SET_CLIENT_EVENT_MODE(mode=27*)
 11: 0x0BFB [0x34] LOAD_UNLOAD_ZONE(zone_id=541*)
 12: 0x0BFE [0x77] SET_EVENT_TIME_WEATHER(hour=255*, weather=1*)
 13: 0x0C03 [0x1C] WAIT(1* ticks)
 14: 0x0C06 [0x2F] Iroha (ID: 17756474/0x010EF13A)->Render.Flags0 &= ~0x80000 // Bit 19
 15: 0x0C0C [0x2F] Unnamed NPC (ID: 17756477/0x010EF13D)->Render.Flags0 &= ~0x80000 // Bit 19
 16: 0x0C12 [0x4E] SET_ENTITY_HIDE_FLAG: Show Iroha (ID: 17756474/0x010EF13A)
 17: 0x0C18 [0x4E] SET_ENTITY_HIDE_FLAG: Show Unnamed NPC (ID: 17756477/0x010EF13D)
 18: 0x0C1E [0x4E] SET_ENTITY_HIDE_FLAG: Show LocalPlayer
 19: 0x0C24 [0x92] Unnamed NPC (ID: 17756477/0x010EF13D)->Render.Flags3 ^= 0x01
 20: 0x0C2A [0x92] Iroha (ID: 17756474/0x010EF13A)->Render.Flags3 ^= 0x01
 21: 0x0C30 [0x94] Iroha (ID: 17756474/0x010EF13A)->Render.Flags3 ^= 0x01
 22: 0x0C36 [0x94] Unnamed NPC (ID: 17756477/0x010EF13D)->Render.Flags3 ^= 0x01
 23: 0x0C3C [0x94] LocalPlayer->Render.Flags3 ^= 0x01
 24: 0x0C42 [0x59] UPDATE_ENTITY_DATA: Unnamed NPC (ID: 17756477/0x010EF13D)->Render.Flags0 |= 0x200000
 25: 0x0C49 [0xBA] SET_ENTITY_POSITION(entity_id=Iroha (ID: 17756474/0x010EF13A), pos_x=398.621*, pos_z=-454.757*, pos_y=-19.099*, direction=272.6°*)
 26: 0x0C56 [0xBA] SET_ENTITY_POSITION(entity_id=Unnamed NPC (ID: 17756477/0x010EF13D), pos_x=399.867*, pos_z=-454.677*, pos_y=-19.099*, direction=358.1°*)
 27: 0x0C63 [0xBA] SET_ENTITY_POSITION(entity_id=LocalPlayer, pos_x=401.611*, pos_z=-454.671*, pos_y=-19.099*, direction=352.6°*)
 28: 0x0C70 [0x80] LOAD_WAIT(entity=Iroha (ID: 17756474/0x010EF13A))
 29: 0x0C75 [0x80] LOAD_WAIT(entity=Unnamed NPC (ID: 17756477/0x010EF13D))
 30: 0x0C7A [0x80] LOAD_WAIT(entity=LocalPlayer)
 31: 0x0C7F [0x5C] MUSIC_CONTROL: Set Idle (Day) music to song 0*
 32: 0x0C83 [0x5C] MUSIC_CONTROL: Set Idle (Night) music to song 0*
 33: 0x0C87 [0x9A] WAIT_MUSIC_SERVER()
 34: 0x0C88 [0x29] REQ_SET_WAIT(priority=0x10, entity_id=Iroha (ID: 17756474/0x010EF13A), tag_num=0x0B)
 35: 0x0C8F [0x4A] LocalPlayer looks at Iroha (ID: 17756474/0x010EF13A)
 36: 0x0C98 [0x4A] Iroha (ID: 17756474/0x010EF13A) looks at LocalPlayer
 37: 0x0CA1 [0x1C] WAIT(30* ticks)
 38: 0x0CA4 [0xD0] LOAD_SCHEDULED_TASK_ALT5: Load scheduler "eff0" with entities [Iroha (ID: 17756474/0x010EF13A), Iroha (ID: 17756474/0x010EF13A)], work=[104*, 0*]
 39: 0x0CB5 [0x5B] LOAD_EXT_SCHEDULER: Load scheduler "uku0" with entities [Unnamed NPC (ID: 17756477/0x010EF13D), Unnamed NPC (ID: 17756477/0x010EF13D)], work=3878*
 40: 0x0CC4 [0xD0] LOAD_SCHEDULED_TASK_ALT5: Load scheduler "star" with entities [Unnamed NPC (ID: 17756477/0x010EF13D), Unnamed NPC (ID: 17756477/0x010EF13D)], work=[103*, 0*]
 41: 0x0CD5 [0x1C] WAIT(30* ticks)
 42: 0x0CD8 [0x45] LOAD_SCHEDULED_TASK: Load scheduler "s028" with entities [EventEntity, EventEntity], work=[764*, 0*]
 43: 0x0CE9 [0x1C] WAIT(15* ticks)
 44: 0x0CEC [0x45] LOAD_SCHEDULED_TASK: Load scheduler "fdi1" with entities [EventEntity, EventEntity], work=[200*, 0*]
 45: 0x0CFD [0x1C] WAIT(180* ticks)
 46: 0x0D00 [0x52] END_LOAD_SCHEDULER: End scheduler "s028" with entities [EventEntity, EventEntity], work=764*
 47: 0x0D0F [0x45] LOAD_SCHEDULED_TASK: Load scheduler "s029" with entities [EventEntity, EventEntity], work=[764*, 0*]
 48: 0x0D20 [0x5B] LOAD_EXT_SCHEDULER: Load scheduler "tlk0" with entities [Iroha (ID: 17756474/0x010EF13A), Iroha (ID: 17756474/0x010EF13A)], work=3861*
 49: 0x0D2F [0x2B] Iroha (ID: 17756474/0x010EF13A) [10722*]:
    → "Master, behold your orb."
 50: 0x0D36 [0x23] WAIT_FOR_DIALOG_INTERACTION
 51: 0x0D37 [0x52] END_LOAD_SCHEDULER: End scheduler "s029" with entities [EventEntity, EventEntity], work=764*
 52: 0x0D46 [0x45] LOAD_SCHEDULED_TASK: Load scheduler "s030" with entities [EventEntity, EventEntity], work=[764*, 0*]
 53: 0x0D57 [0x2B] Iroha (ID: 17756474/0x010EF13A) [10723*]:
    → "Your path remains steadfast, and you have successfully surpassed the third gate."
 54: 0x0D5E [0x23] WAIT_FOR_DIALOG_INTERACTION
 55: 0x0D5F [0x52] END_LOAD_SCHEDULER: End scheduler "s030" with entities [EventEntity, EventEntity], work=764*
 56: 0x0D6E [0x45] LOAD_SCHEDULED_TASK: Load scheduler "s031" with entities [EventEntity, EventEntity], work=[764*, 0*]
 57: 0x0D7F [0x5B] LOAD_EXT_SCHEDULER: Load scheduler "tlk1" with entities [Iroha (ID: 17756474/0x010EF13A), Iroha (ID: 17756474/0x010EF13A)], work=3861*
 58: 0x0D8E [0x2B] Iroha (ID: 17756474/0x010EF13A) [10724*]:
    → "But there remains one whom you have yet to meet. A young woman who plays a vital role in your story."
 59: 0x0D95 [0x23] WAIT_FOR_DIALOG_INTERACTION
 60: 0x0D96 [0x2B] Iroha (ID: 17756474/0x010EF13A) [10725*]:
    → "I am afraid that you will not be able to see her in the world's current state."
 61: 0x0D9D [0x23] WAIT_FOR_DIALOG_INTERACTION
 62: 0x0D9E [0x52] END_LOAD_SCHEDULER: End scheduler "s031" with entities [EventEntity, EventEntity], work=764*
 63: 0x0DAD [0x45] LOAD_SCHEDULED_TASK: Load scheduler "s032" with entities [EventEntity, EventEntity], work=[764*, 0*]
 64: 0x0DBE [0x81] SET_ENTITY_BLINKING(blink_flag=0x00, entity=Iroha (ID: 17756474/0x010EF13A))
 65: 0x0DC4 [0x7C] Iroha (ID: 17756474/0x010EF13A)->Render.Flags2 |= 0x00
 66: 0x0DCA [0x5B] LOAD_EXT_SCHEDULER: Load scheduler "fg01" with entities [Iroha (ID: 17756474/0x010EF13A), Iroha (ID: 17756474/0x010EF13A)], work=3858*
 67: 0x0DD9 [0x5F] MULTI_HANDLER_COMPLEX(mode=0x05 - Load ext scheduler with flag (OpCode 0x5B mode 0, flag 1), ref=3862*, entity1=Iroha (ID: 17756474/0x010EF13A), entity2=Iroha (ID: 17756474/0x010EF13A), string="non0", extra=140*)
 68: 0x0DEB [0x2B] Iroha (ID: 17756474/0x010EF13A) [10726*]:
    → "If only I could return to 884 and walk by your side once more!"
 69: 0x0DF2 [0x23] WAIT_FOR_DIALOG_INTERACTION
 70: 0x0DF3 [0x2B] Iroha (ID: 17756474/0x010EF13A) [10727*]:
    → "Yet my mind and body are crippled, and I can scarce muster this small advice--!"
 71: 0x0DFA [0x23] WAIT_FOR_DIALOG_INTERACTION
 72: 0x0DFB [0x5F] MULTI_HANDLER_COMPLEX(mode=0x07 - Wait scheduler task (OpCode 0x53))
 73: 0x0E09 [0x5B] LOAD_EXT_SCHEDULER: Load scheduler "fd01" with entities [Iroha (ID: 17756474/0x010EF13A), Iroha (ID: 17756474/0x010EF13A)], work=3858*
 74: 0x0E18 [0x5B] LOAD_EXT_SCHEDULER: Load scheduler "hiz0" with entities [Iroha (ID: 17756474/0x010EF13A), Iroha (ID: 17756474/0x010EF13A)], work=3865*
 75: 0x0E27 [0x1C] WAIT(60* ticks)
 76: 0x0E2A [0x52] END_LOAD_SCHEDULER: End scheduler "s032" with entities [EventEntity, EventEntity], work=764*
 77: 0x0E39 [0x45] LOAD_SCHEDULED_TASK: Load scheduler "s034" with entities [EventEntity, EventEntity], work=[764*, 0*]
 78: 0x0E4A [0x1C] WAIT(60* ticks)
 79: 0x0E4D [0x6E] LocalPlayer uses emote 21*
 80: 0x0E54 [0x99] Wait for LocalPlayer animation to complete
 81: 0x0E59 [0x1C] WAIT(60* ticks)
 82: 0x0E5C [0x2B] Iroha (ID: 17756474/0x010EF13A) [10728*]:
    → "Master...forgive me."
 83: 0x0E63 [0x23] WAIT_FOR_DIALOG_INTERACTION
 84: 0x0E64 [0x2B] Iroha (ID: 17756474/0x010EF13A) [10729*]:
    → "Lead Aht Urhgan out of the darkness and forge the bonds you were destined to."
 85: 0x0E6B [0x23] WAIT_FOR_DIALOG_INTERACTION
 86: 0x0E6C [0xD0] LOAD_SCHEDULED_TASK_ALT5: Load scheduler "kie1" with entities [Iroha (ID: 17756474/0x010EF13A), Iroha (ID: 17756474/0x010EF13A)], work=[104*, 0*]
 87: 0x0E7D [0x1C] WAIT(240* ticks)
 88: 0x0E80 [0x45] LOAD_SCHEDULED_TASK: Load scheduler "who1" with entities [LocalPlayer, LocalPlayer], work=[201*, 0*]
 89: 0x0E91 [0x55] WAIT_LOAD_SCHEDULER: Wait for scheduler "who1" with entities [LocalPlayer, LocalPlayer], work=201*
 90: 0x0EA0 [0x52] END_LOAD_SCHEDULER: End scheduler "s034" with entities [EventEntity, EventEntity], work=764*
 91: 0x0EAF [0xD0] LOAD_SCHEDULED_TASK_ALT5: Load scheduler "kill" with entities [Unnamed NPC (ID: 17756477/0x010EF13D), Unnamed NPC (ID: 17756477/0x010EF13D)], work=[103*, 0*]
 92: 0x0EC0 [0x45] LOAD_SCHEDULED_TASK: Load scheduler "blof" with entities [EventEntity, EventEntity], work=[764*, 0*]
 93: 0x0ED1 [0x2F] ??? (ID: 17756482/0x010EF142)->Render.Flags0 &= ~0x80000 // Bit 19
 94: 0x0ED7 [0x4E] SET_ENTITY_HIDE_FLAG: Show ??? (ID: 17756482/0x010EF142)
 95: 0x0EDD [0x22] ENTITY_HIDE_FLAG(enabled=0x00)
 96: 0x0EDF [0x92] ??? (ID: 17756482/0x010EF142)->Render.Flags3 ^= 0x01
 97: 0x0EE5 [0x94] ??? (ID: 17756482/0x010EF142)->Render.Flags3 ^= 0x01
 98: 0x0EEB [0x59] UPDATE_ENTITY_DATA: ??? (ID: 17756482/0x010EF142)->Render.Flags0 |= 0x200000
 99: 0x0EF2 [0x33] EventEntity->Render.Flags0 |= 0x200000 // Bit 21 (flag=0x01)
100: 0x0EF4 [0x37] UPDATE_EVENT_POSITION_AND_DIR: x=157.000*, z=-21.000*, y=-115.000*, direction=100.1°*
101: 0x0EFD [0xBA] SET_ENTITY_POSITION(entity_id=??? (ID: 17756482/0x010EF142), pos_x=157.000*, pos_z=-21.000*, pos_y=-115.000*, direction=100.1°*)
102: 0x0F0A [0x80] LOAD_WAIT(entity=??? (ID: 17756482/0x010EF142))
103: 0x0F0F [0x1C] WAIT(30* ticks)
104: 0x0F12 [0xD0] LOAD_SCHEDULED_TASK_ALT5: Load scheduler "kyu0" with entities [EventEntity, EventEntity], work=[102*, 0*]
105: 0x0F23 [0x1C] WAIT(30* ticks)
106: 0x0F26 [0x45] LOAD_SCHEDULED_TASK: Load scheduler "s035" with entities [EventEntity, EventEntity], work=[764*, 0*]
107: 0x0F37 [0x1C] WAIT(15* ticks)
108: 0x0F3A [0x45] LOAD_SCHEDULED_TASK: Load scheduler "whi1" with entities [LocalPlayer, LocalPlayer], work=[201*, 0*]
109: 0x0F4B [0x1C] WAIT(120* ticks)
110: 0x0F4E [0x52] END_LOAD_SCHEDULER: End scheduler "s035" with entities [EventEntity, EventEntity], work=764*
111: 0x0F5D [0x45] LOAD_SCHEDULED_TASK: Load scheduler "s153" with entities [EventEntity, EventEntity], work=[764*, 0*]
112: 0x0F6E [0x02] IF !(ExtData[1]->WorkLocal[1] == 0*) GOTO 0x0F81
113: 0x0F76 [0x2B] ??? (ID: 17756482/0x010EF142) [10730*]:
    → "I'm so hungry..."
114: 0x0F7D [0x23] WAIT_FOR_DIALOG_INTERACTION
115: 0x0F7E [0x01] GOTO 0x0FF5
116: 0x0F81 [0x02] IF !(ExtData[1]->WorkLocal[1] == 1*) GOTO 0x0F94
117: 0x0F89 [0x2B] ??? (ID: 17756482/0x010EF142) [10731*]:
    → "Ovjang...Ovjang, where are you?"
118: 0x0F90 [0x23] WAIT_FOR_DIALOG_INTERACTION
119: 0x0F91 [0x01] GOTO 0x0FF5
120: 0x0F94 [0x02] IF !(ExtData[1]->WorkLocal[1] == 2*) GOTO 0x0FBC
121: 0x0F9C [0x02] IF !(ExtData[1]->WorkLocal[3] == 0*) GOTO 0x0FAC
122: 0x0FA4 [0x03] Work_Zone[3] = 0*
123: 0x0FA9 [0x01] GOTO 0x0FB1
124: 0x0FAC [0x03] Work_Zone[3] = 1*

SUBROUTINE_0FB1:
125: 0x0FB1 [0x2B] ??? (ID: 17756482/0x010EF142) [10732*]:
    → "I'm here...[in Aydeewa Subterrane/on a pirate ship]..."
126: 0x0FB8 [0x23] WAIT_FOR_DIALOG_INTERACTION
127: 0x0FB9 [0x01] GOTO 0x0FF5
128: 0x0FBC [0x02] IF !(ExtData[1]->WorkLocal[1] == 3*) GOTO 0x0FCF
129: 0x0FC4 [0x2B] ??? (ID: 17756482/0x010EF142) [10733*]:
    → "Luzaf...I wish you were here..."
130: 0x0FCB [0x23] WAIT_FOR_DIALOG_INTERACTION
131: 0x0FCC [0x01] GOTO 0x0FF5
132: 0x0FCF [0x02] IF !(ExtData[1]->WorkLocal[1] == 4*) GOTO 0x0FE2
133: 0x0FD7 [0x2B] ??? (ID: 17756482/0x010EF142) [10734*]:
    → "Please...help me..."
134: 0x0FDE [0x23] WAIT_FOR_DIALOG_INTERACTION
135: 0x0FDF [0x01] GOTO 0x0FF5
136: 0x0FE2 [0x02] IF !(ExtData[1]->WorkLocal[1] == 5*) GOTO 0x0FF5
137: 0x0FEA [0x2B] ??? (ID: 17756482/0x010EF142) [10735*]:
    → "Razfahd must be stopped..."
138: 0x0FF1 [0x23] WAIT_FOR_DIALOG_INTERACTION
139: 0x0FF2 [0x01] GOTO 0x0FF5

SUBROUTINE_0FF5:
140: 0x0FF5 [0x1C] WAIT(60* ticks)
141: 0x0FF8 [0x45] LOAD_SCHEDULED_TASK: Load scheduler "fdo1" with entities [EventEntity, EventEntity], work=[200*, 0*]
142: 0x1009 [0x55] WAIT_LOAD_SCHEDULER: Wait for scheduler "fdo1" with entities [EventEntity, EventEntity], work=200*
143: 0x1018 [0x52] END_LOAD_SCHEDULER: End scheduler "s153" with entities [EventEntity, EventEntity], work=764*
144: 0x1027 [0xD0] LOAD_SCHEDULED_TASK_ALT5: Load scheduler "klky" with entities [EventEntity, EventEntity], work=[102*, 0*]
145: 0x1038 [0x35] LOAD_ZONE_NO_CLOSE(zone_id=239*)
146: 0x103B [0x78] ENABLE_GAME_TIMER_RESET_WEATHER()
147: 0x103C [0x1C] WAIT(1* ticks)
148: 0x103F [0x5C] MUSIC_CONTROL: Set Idle (Day) music to song 151*
149: 0x1043 [0x5C] MUSIC_CONTROL: Set Idle (Night) music to song 151*
150: 0x1047 [0x9A] WAIT_MUSIC_SERVER()
151: 0x1048 [0x46] CAMERA_CONTROL: Restore default settings
152: 0x104A [0x45] LOAD_SCHEDULED_TASK: Load scheduler "fdi2" with entities [EventEntity, EventEntity], work=[200*, 0*]
153: 0x105B [0x21] END_EVENT
154: 0x105C [0x00] END_REQSTACK()
```

### Event 30041

#### Metadata

| Field        | Value    |
|--------------|----------|
| Entrypoint   | 0x105D   |
| Data Size    | 23 bytes |
| Instructions | 6        |

```
      00 01 02 03 04 05 06 07  08 09 0A 0B 0C 0D 0E 0F
      -- -- -- -- -- -- -- --  -- -- -- -- -- -- -- --
1050:                                         42 9A 46               B.F
1060: 00 45 02 80 F8 FF FF 7F  F8 FF FF 7F 66 64 69 32  .E..........fdi2
1070: 00 80 21 00                                       ..!.            
```

#### Opcodes

```
  0: 0x105D [0x42] SET_CLI_EVENT_CANCEL_DATA()
  1: 0x105E [0x9A] WAIT_MUSIC_SERVER()
  2: 0x105F [0x46] CAMERA_CONTROL: Restore default settings
  3: 0x1061 [0x45] LOAD_SCHEDULED_TASK: Load scheduler "fdi2" with entities [EventEntity, EventEntity], work=[200*, 0*]
  4: 0x1072 [0x21] END_EVENT
  5: 0x1073 [0x00] END_REQSTACK()
```

### Event 30044

#### Metadata

| Field        | Value     |
|--------------|-----------|
| Entrypoint   | 0x1074    |
| Data Size    | 798 bytes |
| Instructions | 99        |

```
      00 01 02 03 04 05 06 07  08 09 0A 0B 0C 0D 0E 0F
      -- -- -- -- -- -- -- --  -- -- -- -- -- -- -- --
1070:             42 03 01 10  06 80 43 00 43 01 03 01      B.....C.C...
1080: 00 02 10 5D 00 80 01 80  45 02 80 F8 FF FF 7F F8  ...]....E.......
1090: FF FF 7F 66 64 6F 31 00  80 55 02 80 F8 FF FF 7F  ...fdo1..U......
10A0: F8 FF FF 7F 66 64 6F 31  46 01 38 03 80 34 34 80  ....fdo1F.8..44.
10B0: 77 35 80 06 80 1C 06 80  2F 00 3A F1 0E 01 2F 00  w5....../.:.../.
10C0: 3D F1 0E 01 4E 00 3A F1  0E 01 4E 00 3D F1 0E 01  =...N.:...N.=...
10D0: 4E 00 F0 FF FF 7F 92 01  3A F1 0E 01 92 01 3D F1  N.......:.....=.
10E0: 0E 01 94 01 3A F1 0E 01  94 01 3D F1 0E 01 94 01  ....:.....=.....
10F0: F0 FF FF 7F 59 05 3D F1  0E 01 01 BA 3A F1 0E 01  ....Y.=.....:...
1100: 4C 80 4D 80 38 80 4E 80  BA 3D F1 0E 01 4F 80 50  L.M.8.N..=...O.P
1110: 80 38 80 51 80 BA F0 FF  FF 7F 52 80 53 80 38 80  .8.Q......R.S.8.
1120: 54 80 80 3A F1 0E 01 80  3D F1 0E 01 80 F0 FF FF  T..:....=.......
1130: 7F 5C 00 00 80 5C 01 00  80 9A 29 10 3A F1 0E 01  .\...\....).:...
1140: 0B 4A F0 FF FF 7F 3A F1  0E 01 4A 3A F1 0E 01 F0  .J....:...J:....
1150: FF FF 7F 1C 08 80 D0 55  80 3A F1 0E 01 3A F1 0E  .......U.:...:..
1160: 01 65 66 66 30 00 80 5B  56 80 3D F1 0E 01 3D F1  .eff0..[V.=...=.
1170: 0E 01 75 6B 75 30 D0 57  80 3D F1 0E 01 3D F1 0E  ..uku0.W.=...=..
1180: 01 73 74 61 72 00 80 1C  08 80 45 86 80 F8 FF FF  .star.....E.....
1190: 7F F8 FF FF 7F 73 30 35  31 00 80 1C 3D 80 45 02  .....s051...=.E.
11A0: 80 F8 FF FF 7F F8 FF FF  7F 66 64 69 31 00 80 1C  .........fdi1...
11B0: 3F 80 52 86 80 F8 FF FF  7F F8 FF FF 7F 73 30 35  ?.R..........s05
11C0: 31 45 86 80 F8 FF FF 7F  F8 FF FF 7F 73 30 35 32  1E..........s052
11D0: 00 80 5B 5A 80 3A F1 0E  01 3A F1 0E 01 74 6C 6B  ..[Z.:...:...tlk
11E0: 30 2B 3A F1 0E 01 87 80  23 2B 3A F1 0E 01 88 80  0+:.....#+:.....
11F0: 23 52 86 80 F8 FF FF 7F  F8 FF FF 7F 73 30 35 32  #R..........s052
1200: 45 86 80 F8 FF FF 7F F8  FF FF 7F 73 30 35 33 00  E..........s053.
1210: 80 2B 3A F1 0E 01 89 80  23 5B 5A 80 3A F1 0E 01  .+:.....#[Z.:...
1220: 3A F1 0E 01 74 6C 6B 31  02 01 00 06 80 00 3A 12  :...tlk1......:.
1230: 2B 3A F1 0E 01 8A 80 01  41 12 2B 3A F1 0E 01 8B  +:......A.+:....
1240: 80 1C 8C 80 23 81 00 3A  F1 0E 01 7C 00 3A F1 0E  ....#..:...|.:..
1250: 01 5B 68 80 3A F1 0E 01  3A F1 0E 01 66 67 30 31  .[h.:...:...fg01
1260: 5F 05 69 80 3A F1 0E 01  3A F1 0E 01 6E 6F 6E 30  _.i.:...:...non0
1270: 6A 80 52 86 80 F8 FF FF  7F F8 FF FF 7F 73 30 35  j.R..........s05
1280: 33 45 86 80 F8 FF FF 7F  F8 FF FF 7F 73 30 35 34  3E..........s054
1290: 00 80 2B 3A F1 0E 01 8D  80 23 5F 07 3A F1 0E 01  ..+:.....#_.:...
12A0: 3A F1 0E 01 6E 6F 6E 30  52 86 80 F8 FF FF 7F F8  :...non0R.......
12B0: FF FF 7F 73 30 35 34 45  86 80 F8 FF FF 7F F8 FF  ...s054E........
12C0: FF 7F 73 30 35 35 00 80  5B 68 80 3A F1 0E 01 3A  ..s055..[h.:...:
12D0: F1 0E 01 66 64 30 31 5B  5A 80 3A F1 0E 01 3A F1  ...fd01[Z.:...:.
12E0: 0E 01 74 6C 6B 30 2B 3A  F1 0E 01 8E 80 23 2B 3A  ..tlk0+:.....#+:
12F0: F1 0E 01 8F 80 23 2B 3A  F1 0E 01 90 80 23 5B 68  .....#+:.....#[h
1300: 80 3A F1 0E 01 3A F1 0E  01 66 64 30 30 5B 5A 80  .:...:...fd00[Z.
1310: 3A F1 0E 01 3A F1 0E 01  74 6C 6B 31 45 02 80 F8  :...:...tlk1E...
1320: FF FF 7F F8 FF FF 7F 66  64 6F 31 00 80 55 02 80  .......fdo1..U..
1330: F8 FF FF 7F F8 FF FF 7F  66 64 6F 31 52 86 80 F8  ........fdo1R...
1340: FF FF 7F F8 FF FF 7F 73  30 35 35 D0 57 80 3D F1  .......s055.W.=.
1350: 0E 01 3D F1 0E 01 6B 69  6C 6C 00 80 45 58 80 F8  ..=...kill..EX..
1360: FF FF 7F F8 FF FF 7F 62  6C 6F 66 00 80 35 25 80  .......blof..5%.
1370: 78 1C 06 80 5C 00 4B 80  5C 01 4B 80 9A 46 00 45  x...\.K.\.K..F.E
1380: 02 80 F8 FF FF 7F F8 FF  FF 7F 66 64 69 32 00 80  ..........fdi2..
1390: 21 00                                             !.              
```

#### Opcodes

```
  0: 0x1074 [0x42] SET_CLI_EVENT_CANCEL_DATA()
  1: 0x1075 [0x03] Work_Zone[1] = 1*
  2: 0x107A [0x43] SEND_EVENT_UPDATE: Send pending tag to server (packet 0x005B)
  3: 0x107C [0x43] SEND_EVENT_UPDATE: Check pending flag (skip if not pending)
  4: 0x107E [0x03] ExtData[1]->WorkLocal[1] = Work_Zone[2]
  5: 0x1083 [0x5D] SET_MUSIC_VOLUME(volume=0*, fade_time=120*)
  6: 0x1088 [0x45] LOAD_SCHEDULED_TASK: Load scheduler "fdo1" with entities [EventEntity, EventEntity], work=[200*, 0*]
  7: 0x1099 [0x55] WAIT_LOAD_SCHEDULER: Wait for scheduler "fdo1" with entities [EventEntity, EventEntity], work=200*
  8: 0x10A8 [0x46] CAMERA_CONTROL: Disable user control
  9: 0x10AA [0x38] SET_CLIENT_EVENT_MODE(mode=27*)
 10: 0x10AD [0x34] LOAD_UNLOAD_ZONE(zone_id=541*)
 11: 0x10B0 [0x77] SET_EVENT_TIME_WEATHER(hour=255*, weather=1*)
 12: 0x10B5 [0x1C] WAIT(1* ticks)
 13: 0x10B8 [0x2F] Iroha (ID: 17756474/0x010EF13A)->Render.Flags0 &= ~0x80000 // Bit 19
 14: 0x10BE [0x2F] Unnamed NPC (ID: 17756477/0x010EF13D)->Render.Flags0 &= ~0x80000 // Bit 19
 15: 0x10C4 [0x4E] SET_ENTITY_HIDE_FLAG: Show Iroha (ID: 17756474/0x010EF13A)
 16: 0x10CA [0x4E] SET_ENTITY_HIDE_FLAG: Show Unnamed NPC (ID: 17756477/0x010EF13D)
 17: 0x10D0 [0x4E] SET_ENTITY_HIDE_FLAG: Show LocalPlayer
 18: 0x10D6 [0x92] Iroha (ID: 17756474/0x010EF13A)->Render.Flags3 ^= 0x01
 19: 0x10DC [0x92] Unnamed NPC (ID: 17756477/0x010EF13D)->Render.Flags3 ^= 0x01
 20: 0x10E2 [0x94] Iroha (ID: 17756474/0x010EF13A)->Render.Flags3 ^= 0x01
 21: 0x10E8 [0x94] Unnamed NPC (ID: 17756477/0x010EF13D)->Render.Flags3 ^= 0x01
 22: 0x10EE [0x94] LocalPlayer->Render.Flags3 ^= 0x01
 23: 0x10F4 [0x59] UPDATE_ENTITY_DATA: Unnamed NPC (ID: 17756477/0x010EF13D)->Render.Flags0 |= 0x200000
 24: 0x10FB [0xBA] SET_ENTITY_POSITION(entity_id=Iroha (ID: 17756474/0x010EF13A), pos_x=398.621*, pos_z=-454.757*, pos_y=-19.099*, direction=272.6°*)
 25: 0x1108 [0xBA] SET_ENTITY_POSITION(entity_id=Unnamed NPC (ID: 17756477/0x010EF13D), pos_x=399.867*, pos_z=-454.677*, pos_y=-19.099*, direction=358.1°*)
 26: 0x1115 [0xBA] SET_ENTITY_POSITION(entity_id=LocalPlayer, pos_x=401.611*, pos_z=-454.671*, pos_y=-19.099*, direction=352.6°*)
 27: 0x1122 [0x80] LOAD_WAIT(entity=Iroha (ID: 17756474/0x010EF13A))
 28: 0x1127 [0x80] LOAD_WAIT(entity=Unnamed NPC (ID: 17756477/0x010EF13D))
 29: 0x112C [0x80] LOAD_WAIT(entity=LocalPlayer)
 30: 0x1131 [0x5C] MUSIC_CONTROL: Set Idle (Day) music to song 0*
 31: 0x1135 [0x5C] MUSIC_CONTROL: Set Idle (Night) music to song 0*
 32: 0x1139 [0x9A] WAIT_MUSIC_SERVER()
 33: 0x113A [0x29] REQ_SET_WAIT(priority=0x10, entity_id=Iroha (ID: 17756474/0x010EF13A), tag_num=0x0B)
 34: 0x1141 [0x4A] LocalPlayer looks at Iroha (ID: 17756474/0x010EF13A)
 35: 0x114A [0x4A] Iroha (ID: 17756474/0x010EF13A) looks at LocalPlayer
 36: 0x1153 [0x1C] WAIT(30* ticks)
 37: 0x1156 [0xD0] LOAD_SCHEDULED_TASK_ALT5: Load scheduler "eff0" with entities [Iroha (ID: 17756474/0x010EF13A), Iroha (ID: 17756474/0x010EF13A)], work=[104*, 0*]
 38: 0x1167 [0x5B] LOAD_EXT_SCHEDULER: Load scheduler "uku0" with entities [Unnamed NPC (ID: 17756477/0x010EF13D), Unnamed NPC (ID: 17756477/0x010EF13D)], work=3878*
 39: 0x1176 [0xD0] LOAD_SCHEDULED_TASK_ALT5: Load scheduler "star" with entities [Unnamed NPC (ID: 17756477/0x010EF13D), Unnamed NPC (ID: 17756477/0x010EF13D)], work=[103*, 0*]
 40: 0x1187 [0x1C] WAIT(30* ticks)
 41: 0x118A [0x45] LOAD_SCHEDULED_TASK: Load scheduler "s051" with entities [EventEntity, EventEntity], work=[772*, 0*]
 42: 0x119B [0x1C] WAIT(15* ticks)
 43: 0x119E [0x45] LOAD_SCHEDULED_TASK: Load scheduler "fdi1" with entities [EventEntity, EventEntity], work=[200*, 0*]
 44: 0x11AF [0x1C] WAIT(150* ticks)
 45: 0x11B2 [0x52] END_LOAD_SCHEDULER: End scheduler "s051" with entities [EventEntity, EventEntity], work=772*
 46: 0x11C1 [0x45] LOAD_SCHEDULED_TASK: Load scheduler "s052" with entities [EventEntity, EventEntity], work=[772*, 0*]
 47: 0x11D2 [0x5B] LOAD_EXT_SCHEDULER: Load scheduler "tlk0" with entities [Iroha (ID: 17756474/0x010EF13A), Iroha (ID: 17756474/0x010EF13A)], work=3861*
 48: 0x11E1 [0x2B] Iroha (ID: 17756474/0x010EF13A) [10806*]:
    → "Master--the orb."
 49: 0x11E8 [0x23] WAIT_FOR_DIALOG_INTERACTION
 50: 0x11E9 [0x2B] Iroha (ID: 17756474/0x010EF13A) [10807*]:
    → "You have set history on its proper course yet again, having passed through the fourth gate that stood before you."
 51: 0x11F0 [0x23] WAIT_FOR_DIALOG_INTERACTION
 52: 0x11F1 [0x52] END_LOAD_SCHEDULER: End scheduler "s052" with entities [EventEntity, EventEntity], work=772*
 53: 0x1200 [0x45] LOAD_SCHEDULED_TASK: Load scheduler "s053" with entities [EventEntity, EventEntity], work=[772*, 0*]
 54: 0x1211 [0x2B] Iroha (ID: 17756474/0x010EF13A) [10808*]:
    → "Yet Selh'teus's words ring true--the darkness slumbering within you is great."
 55: 0x1218 [0x23] WAIT_FOR_DIALOG_INTERACTION
 56: 0x1219 [0x5B] LOAD_EXT_SCHEDULER: Load scheduler "tlk1" with entities [Iroha (ID: 17756474/0x010EF13A), Iroha (ID: 17756474/0x010EF13A)], work=3861*
 57: 0x1228 [0x02] IF !(ExtData[1]->WorkLocal[1] == 1*) GOTO 0x123A
 58: 0x1230 [0x2B] Iroha (ID: 17756474/0x010EF13A) [10809*]:
    → "He claims that not even the crystal is enough to illuminate it."
 59: 0x1237 [0x01] GOTO 0x1241
 60: 0x123A [0x2B] Iroha (ID: 17756474/0x010EF13A) [10810*]:
    → "I must confess my trepidation at the current state of affairs. What if the darkness overcomes you not in the future, but even earlier than I had anticipated?"

SUBROUTINE_1241:
 61: 0x1241 [0x1C] WAIT(130* ticks)
 62: 0x1244 [0x23] WAIT_FOR_DIALOG_INTERACTION
 63: 0x1245 [0x81] SET_ENTITY_BLINKING(blink_flag=0x00, entity=Iroha (ID: 17756474/0x010EF13A))
 64: 0x124B [0x7C] Iroha (ID: 17756474/0x010EF13A)->Render.Flags2 |= 0x00
 65: 0x1251 [0x5B] LOAD_EXT_SCHEDULER: Load scheduler "fg01" with entities [Iroha (ID: 17756474/0x010EF13A), Iroha (ID: 17756474/0x010EF13A)], work=3858*
 66: 0x1260 [0x5F] MULTI_HANDLER_COMPLEX(mode=0x05 - Load ext scheduler with flag (OpCode 0x5B mode 0, flag 1), ref=3862*, entity1=Iroha (ID: 17756474/0x010EF13A), entity2=Iroha (ID: 17756474/0x010EF13A), string="non0", extra=140*)
 67: 0x1272 [0x52] END_LOAD_SCHEDULER: End scheduler "s053" with entities [EventEntity, EventEntity], work=772*
 68: 0x1281 [0x45] LOAD_SCHEDULED_TASK: Load scheduler "s054" with entities [EventEntity, EventEntity], work=[772*, 0*]
 69: 0x1292 [0x2B] Iroha (ID: 17756474/0x010EF13A) [10811*]:
    → "What a morbid state of affairs we find ourselves in."
 70: 0x1299 [0x23] WAIT_FOR_DIALOG_INTERACTION
 71: 0x129A [0x5F] MULTI_HANDLER_COMPLEX(mode=0x07 - Wait scheduler task (OpCode 0x53))
 72: 0x12A8 [0x52] END_LOAD_SCHEDULER: End scheduler "s054" with entities [EventEntity, EventEntity], work=772*
 73: 0x12B7 [0x45] LOAD_SCHEDULED_TASK: Load scheduler "s055" with entities [EventEntity, EventEntity], work=[772*, 0*]
 74: 0x12C8 [0x5B] LOAD_EXT_SCHEDULER: Load scheduler "fd01" with entities [Iroha (ID: 17756474/0x010EF13A), Iroha (ID: 17756474/0x010EF13A)], work=3858*
 75: 0x12D7 [0x5B] LOAD_EXT_SCHEDULER: Load scheduler "tlk0" with entities [Iroha (ID: 17756474/0x010EF13A), Iroha (ID: 17756474/0x010EF13A)], work=3861*
 76: 0x12E6 [0x2B] Iroha (ID: 17756474/0x010EF13A) [10812*]:
    → "We must take solace in the hope that the orb will guide you to safety, so that you will be prepared for the Reckoning."
 77: 0x12ED [0x23] WAIT_FOR_DIALOG_INTERACTION
 78: 0x12EE [0x2B] Iroha (ID: 17756474/0x010EF13A) [10813*]:
    → "Until that time, your footsteps must remain unerring."
 79: 0x12F5 [0x23] WAIT_FOR_DIALOG_INTERACTION
 80: 0x12F6 [0x2B] Iroha (ID: 17756474/0x010EF13A) [10814*]:
    → "And so fate guides you to Ceizak Battlegrounds..."
 81: 0x12FD [0x23] WAIT_FOR_DIALOG_INTERACTION
 82: 0x12FE [0x5B] LOAD_EXT_SCHEDULER: Load scheduler "fd00" with entities [Iroha (ID: 17756474/0x010EF13A), Iroha (ID: 17756474/0x010EF13A)], work=3858*
 83: 0x130D [0x5B] LOAD_EXT_SCHEDULER: Load scheduler "tlk1" with entities [Iroha (ID: 17756474/0x010EF13A), Iroha (ID: 17756474/0x010EF13A)], work=3861*
 84: 0x131C [0x45] LOAD_SCHEDULED_TASK: Load scheduler "fdo1" with entities [EventEntity, EventEntity], work=[200*, 0*]
 85: 0x132D [0x55] WAIT_LOAD_SCHEDULER: Wait for scheduler "fdo1" with entities [EventEntity, EventEntity], work=200*
 86: 0x133C [0x52] END_LOAD_SCHEDULER: End scheduler "s055" with entities [EventEntity, EventEntity], work=772*
 87: 0x134B [0xD0] LOAD_SCHEDULED_TASK_ALT5: Load scheduler "kill" with entities [Unnamed NPC (ID: 17756477/0x010EF13D), Unnamed NPC (ID: 17756477/0x010EF13D)], work=[103*, 0*]
 88: 0x135C [0x45] LOAD_SCHEDULED_TASK: Load scheduler "blof" with entities [EventEntity, EventEntity], work=[762*, 0*]
 89: 0x136D [0x35] LOAD_ZONE_NO_CLOSE(zone_id=239*)
 90: 0x1370 [0x78] ENABLE_GAME_TIMER_RESET_WEATHER()
 91: 0x1371 [0x1C] WAIT(1* ticks)
 92: 0x1374 [0x5C] MUSIC_CONTROL: Set Idle (Day) music to song 151*
 93: 0x1378 [0x5C] MUSIC_CONTROL: Set Idle (Night) music to song 151*
 94: 0x137C [0x9A] WAIT_MUSIC_SERVER()
 95: 0x137D [0x46] CAMERA_CONTROL: Restore default settings
 96: 0x137F [0x45] LOAD_SCHEDULED_TASK: Load scheduler "fdi2" with entities [EventEntity, EventEntity], work=[200*, 0*]
 97: 0x1390 [0x21] END_EVENT
 98: 0x1391 [0x00] END_REQSTACK()
```

### Event 30045

#### Metadata

| Field        | Value    |
|--------------|----------|
| Entrypoint   | 0x1392   |
| Data Size    | 23 bytes |
| Instructions | 6        |

```
      00 01 02 03 04 05 06 07  08 09 0A 0B 0C 0D 0E 0F
      -- -- -- -- -- -- -- --  -- -- -- -- -- -- -- --
1390:       42 9A 46 00 45 02  80 F8 FF FF 7F F8 FF FF    B.F.E.........
13A0: 7F 66 64 69 32 00 80 21  00                       .fdi2..!.       
```

#### Opcodes

```
  0: 0x1392 [0x42] SET_CLI_EVENT_CANCEL_DATA()
  1: 0x1393 [0x9A] WAIT_MUSIC_SERVER()
  2: 0x1394 [0x46] CAMERA_CONTROL: Restore default settings
  3: 0x1396 [0x45] LOAD_SCHEDULED_TASK: Load scheduler "fdi2" with entities [EventEntity, EventEntity], work=[200*, 0*]
  4: 0x13A7 [0x21] END_EVENT
  5: 0x13A8 [0x00] END_REQSTACK()
```

### Event 30046

#### Metadata

| Field        | Value      |
|--------------|------------|
| Entrypoint   | 0x13A9     |
| Data Size    | 1021 bytes |
| Instructions | 53         |

```
      00 01 02 03 04 05 06 07  08 09 0A 0B 0C 0D 0E 0F
      -- -- -- -- -- -- -- --  -- -- -- -- -- -- -- --
13A0:                             42 5D 00 80 01 80 45           B]....E
13B0: 02 80 F8 FF FF 7F F8 FF  FF 7F 66 64 6F 31 00 80  ..........fdo1..
13C0: 55 02 80 F8 FF FF 7F F8  FF FF 7F 66 64 6F 31 46  U..........fdo1F
13D0: 01 38 03 80 34 91 80 77  35 80 0C 80 1C 06 80 2F  .8..4..w5....../
13E0: 00 3A F1 0E 01 4E 00 3A  F1 0E 01 92 01 3A F1 0E  .:...N.:.....:..
13F0: 01 94 01 3A F1 0E 01 59  05 3A F1 0E 01 01 BA 3A  ...:...Y.:.....:
1400: F1 0E 01 92 80 93 80 00  80 94 80 80 3A F1 0E 01  ............:...
1410: 5C 00 00 80 5C 01 00 80  9A 1C 08 80 81 00 3A F1  \...\.........:.
1420: 0E 01 5B 95 80 3A F1 0E  01 3A F1 0E 01 70 72 79  ..[..:...:...pry
1430: 30 1C 08 80 2B 3A F1 0E  01 96 80 23 2B 3A F1 0E  0...+:.....#+:..
1440: 01 97 80 23 45 98 80 F8  FF FF 7F F8 FF FF 7F 73  ...#E..........s
1450: 31 30 30 00 80 1C 3D 80  45 02 80 F8 FF FF 7F F8  100...=.E.......
1460: FF FF 7F 66 64 69 31 00  80 2B 3A F1 0E 01 99 80  ...fdi1..+:.....
1470: 23 2B 3A F1 0E 01 9A 80  23 55 98 80 F8 FF FF 7F  #+:.....#U......
1480: F8 FF FF 7F 73 31 30 30  45 98 80 F8 FF FF 7F F8  ....s100E.......
1490: FF FF 7F 73 31 30 31 00  80 1C 6F 80 D0 28 80 3A  ...s101...o..(.:
14A0: F1 0E 01 3A F1 0E 01 62  30 30 31 00 80 1C 9B 80  ...:...b001.....
14B0: 45 02 80 F8 FF FF 7F F8  FF FF 7F 66 64 6F 30 00  E..........fdo0.
14C0: 80 55 02 80 F8 FF FF 7F  F8 FF FF 7F 66 64 6F 30  .U..........fdo0
14D0: 52 98 80 F8 FF FF 7F F8  FF FF 7F 73 31 30 31 D0  R..........s101.
14E0: 28 80 3A F1 0E 01 3A F1  0E 01 62 6B 6C 31 00 80  (.:...:...bkl1..
14F0: 35 25 80 78 1C 06 80 5C  00 4B 80 5C 01 4B 80 9A  5%.x...\.K.\.K..
1500: 46 00 45 02 80 F8 FF FF  7F F8 FF FF 7F 66 64 69  F.E..........fdi
1510: 32 00 80 21 00 45 02 80  F0 FF FF 7F F0 FF FF 7F  2..!.E..........
1520: 66 64 69 30 00 80 55 02  80 F0 FF FF 7F F0 FF FF  fdi0..U.........
1530: 7F 66 64 69 30 1B 45 02  80 F0 FF FF 7F F0 FF FF  .fdi0.E.........
1540: 7F 66 64 6F 30 00 80 55  02 80 F0 FF FF 7F F0 FF  .fdo0..U........
1550: FF 7F 66 64 6F 30 1B 45  02 80 F0 FF FF 7F F0 FF  ..fdo0.E........
1560: FF 7F 66 64 69 31 00 80  55 02 80 F0 FF FF 7F F0  ..fdi1..U.......
1570: FF FF 7F 66 64 69 31 1B  45 02 80 F0 FF FF 7F F0  ...fdi1.E.......
1580: FF FF 7F 66 64 6F 31 00  80 55 02 80 F0 FF FF 7F  ...fdo1..U......
1590: F0 FF FF 7F 66 64 6F 31  1B 45 4A 80 F0 FF FF 7F  ....fdo1.EJ.....
15A0: F0 FF FF 7F 77 68 69 31  00 80 55 4A 80 F0 FF FF  ....whi1..UJ....
15B0: 7F F0 FF FF 7F 77 68 69  31 1B 45 4A 80 F0 FF FF  .....whi1.EJ....
15C0: 7F F0 FF FF 7F 77 68 6F  31 00 80 55 4A 80 F0 FF  .....who1..UJ...
15D0: FF 7F F0 FF FF 7F 77 68  6F 31 1B 45 4A 80 F0 FF  ......who1.EJ...
15E0: FF 7F F0 FF FF 7F 77 68  6F 32 00 80 55 4A 80 F0  ......who2..UJ..
15F0: FF FF 7F F0 FF FF 7F 77  68 6F 32 1B 45 4A 80 F0  .......who2.EJ..
1600: FF FF 7F F0 FF FF 7F 77  68 6F 33 00 80 55 4A 80  .......who3..UJ.
1610: F0 FF FF 7F F0 FF FF 7F  77 68 6F 33 1B 62 06 80  ........who3.b..
1620: F0 FF FF 7F F0 FF FF 7F  6D 61 69 6E 00 80 1C 9C  ........main....
1630: 80 45 02 80 F0 FF FF 7F  F0 FF FF 7F 66 64 6F 31  .E..........fdo1
1640: 00 80 55 02 80 F0 FF FF  7F F0 FF FF 7F 66 64 6F  ..U..........fdo
1650: 31 1B 45 02 80 F0 FF FF  7F F0 FF FF 7F 66 64 69  1.E..........fdi
1660: 31 00 80 62 0C 80 F0 FF  FF 7F F0 FF FF 7F 6D 61  1..b..........ma
1670: 69 6E 00 80 1C 08 80 55  02 80 F0 FF FF 7F F0 FF  in.....U........
1680: FF 7F 66 64 69 31 1B 45  02 80 F0 FF FF 7F F0 FF  ..fdi1.E........
1690: FF 7F 62 6C 6F 6E 00 80  45 4A 80 F0 FF FF 7F F0  ..blon..EJ......
16A0: FF FF 7F 62 6C 6F 6E 00  80 1B 45 4A 80 F0 FF FF  ...blon...EJ....
16B0: 7F F0 FF FF 7F 77 68 69  30 00 80 55 4A 80 F0 FF  .....whi0..UJ...
16C0: FF 7F F0 FF FF 7F 77 68  69 30 1B 45 4A 80 F0 FF  ......whi0.EJ...
16D0: FF 7F F0 FF FF 7F 77 68  6F 30 00 80 55 4A 80 F0  ......who0..UJ..
16E0: FF FF 7F F0 FF FF 7F 77  68 6F 30 1B 45 9D 80 F0  .......who0.E...
16F0: FF FF 7F F0 FF FF 7F 65  66 6F 6E 00 80 55 9D 80  .......efon..U..
1700: F0 FF FF 7F F0 FF FF 7F  65 66 6F 6E 1B 45 02 80  ........efon.E..
1710: F0 FF FF 7F F0 FF FF 7F  66 64 69 73 00 80 1B 45  ........fdis...E
1720: 02 80 F0 FF FF 7F F0 FF  FF 7F 66 64 6F 73 00 80  ..........fdos..
1730: 55 02 80 F0 FF FF 7F F0  FF FF 7F 66 64 6F 73 1B  U..........fdos.
1740: 45 02 80 F0 FF FF 7F F0  FF FF 7F 66 64 69 66 00  E..........fdif.
1750: 80 1B 45 02 80 F0 FF FF  7F F0 FF FF 7F 66 64 6F  ..E..........fdo
1760: 66 00 80 55 02 80 F0 FF  FF 7F F0 FF FF 7F 66 64  f..U..........fd
1770: 6F 66 1B 45 02 80 F0 FF  FF 7F F0 FF FF 7F 66 64  of.E..........fd
1780: 69 70 00 80 1B 45 02 80  F0 FF FF 7F F0 FF FF 7F  ip...E..........
1790: 66 64 6F 70 00 80 55 02  80 F0 FF FF 7F F0 FF FF  fdop..U.........
17A0: 7F 66 64 6F 70 1B                                 .fdop.          
```

#### Opcodes

```
  0: 0x13A9 [0x42] SET_CLI_EVENT_CANCEL_DATA()
  1: 0x13AA [0x5D] SET_MUSIC_VOLUME(volume=0*, fade_time=120*)
  2: 0x13AF [0x45] LOAD_SCHEDULED_TASK: Load scheduler "fdo1" with entities [EventEntity, EventEntity], work=[200*, 0*]
  3: 0x13C0 [0x55] WAIT_LOAD_SCHEDULER: Wait for scheduler "fdo1" with entities [EventEntity, EventEntity], work=200*
  4: 0x13CF [0x46] CAMERA_CONTROL: Disable user control
  5: 0x13D1 [0x38] SET_CLIENT_EVENT_MODE(mode=27*)
  6: 0x13D4 [0x34] LOAD_UNLOAD_ZONE(zone_id=737*)
  7: 0x13D7 [0x77] SET_EVENT_TIME_WEATHER(hour=255*, weather=2*)
  8: 0x13DC [0x1C] WAIT(1* ticks)
  9: 0x13DF [0x2F] Iroha (ID: 17756474/0x010EF13A)->Render.Flags0 &= ~0x80000 // Bit 19
 10: 0x13E5 [0x4E] SET_ENTITY_HIDE_FLAG: Show Iroha (ID: 17756474/0x010EF13A)
 11: 0x13EB [0x92] Iroha (ID: 17756474/0x010EF13A)->Render.Flags3 ^= 0x01
 12: 0x13F1 [0x94] Iroha (ID: 17756474/0x010EF13A)->Render.Flags3 ^= 0x01
 13: 0x13F7 [0x59] UPDATE_ENTITY_DATA: Iroha (ID: 17756474/0x010EF13A)->Render.Flags0 |= 0x200000
 14: 0x13FE [0xBA] SET_ENTITY_POSITION(entity_id=Iroha (ID: 17756474/0x010EF13A), pos_x=20.000*, pos_z=500.000*, pos_y=0.000*, direction=268.7°*)
 15: 0x140B [0x80] LOAD_WAIT(entity=Iroha (ID: 17756474/0x010EF13A))
 16: 0x1410 [0x5C] MUSIC_CONTROL: Set Idle (Day) music to song 0*
 17: 0x1414 [0x5C] MUSIC_CONTROL: Set Idle (Night) music to song 0*
 18: 0x1418 [0x9A] WAIT_MUSIC_SERVER()
 19: 0x1419 [0x1C] WAIT(30* ticks)
 20: 0x141C [0x81] SET_ENTITY_BLINKING(blink_flag=0x00, entity=Iroha (ID: 17756474/0x010EF13A))
 21: 0x1422 [0x5B] LOAD_EXT_SCHEDULER: Load scheduler "pry0" with entities [Iroha (ID: 17756474/0x010EF13A), Iroha (ID: 17756474/0x010EF13A)], work=3874*
 22: 0x1431 [0x1C] WAIT(30* ticks)
 23: 0x1434 [0x2B] Iroha (ID: 17756474/0x010EF13A) [10815*]:
    → "The future should have changed..."
 24: 0x143B [0x23] WAIT_FOR_DIALOG_INTERACTION
 25: 0x143C [0x2B] Iroha (ID: 17756474/0x010EF13A) [10816*]:
    → "...And I should have been dissolved into nothingness."
 26: 0x1443 [0x23] WAIT_FOR_DIALOG_INTERACTION
 27: 0x1444 [0x45] LOAD_SCHEDULED_TASK: Load scheduler "s100" with entities [EventEntity, EventEntity], work=[774*, 0*]
 28: 0x1455 [0x1C] WAIT(15* ticks)
 29: 0x1458 [0x45] LOAD_SCHEDULED_TASK: Load scheduler "fdi1" with entities [EventEntity, EventEntity], work=[200*, 0*]
 30: 0x1469 [0x2B] Iroha (ID: 17756474/0x010EF13A) [10817*]:
    → "Yet the crystal's clarion song has ceased."
 31: 0x1470 [0x23] WAIT_FOR_DIALOG_INTERACTION
 32: 0x1471 [0x2B] Iroha (ID: 17756474/0x010EF13A) [10818*]:
    → "And the Cloud of Darkness threatens the world once more."
 33: 0x1478 [0x23] WAIT_FOR_DIALOG_INTERACTION
 34: 0x1479 [0x55] WAIT_LOAD_SCHEDULER: Wait for scheduler "s100" with entities [EventEntity, EventEntity], work=774*
 35: 0x1488 [0x45] LOAD_SCHEDULED_TASK: Load scheduler "s101" with entities [EventEntity, EventEntity], work=[774*, 0*]
 36: 0x1499 [0x1C] WAIT(60* ticks)
 37: 0x149C [0xD0] LOAD_SCHEDULED_TASK_ALT5: Load scheduler "b001" with entities [Iroha (ID: 17756474/0x010EF13A), Iroha (ID: 17756474/0x010EF13A)], work=[240*, 0*]
 38: 0x14AD [0x1C] WAIT(300* ticks)
 39: 0x14B0 [0x45] LOAD_SCHEDULED_TASK: Load scheduler "fdo0" with entities [EventEntity, EventEntity], work=[200*, 0*]
 40: 0x14C1 [0x55] WAIT_LOAD_SCHEDULER: Wait for scheduler "fdo0" with entities [EventEntity, EventEntity], work=200*
 41: 0x14D0 [0x52] END_LOAD_SCHEDULER: End scheduler "s101" with entities [EventEntity, EventEntity], work=774*
 42: 0x14DF [0xD0] LOAD_SCHEDULED_TASK_ALT5: Load scheduler "bkl1" with entities [Iroha (ID: 17756474/0x010EF13A), Iroha (ID: 17756474/0x010EF13A)], work=[240*, 0*]
 43: 0x14F0 [0x35] LOAD_ZONE_NO_CLOSE(zone_id=239*)
 44: 0x14F3 [0x78] ENABLE_GAME_TIMER_RESET_WEATHER()
 45: 0x14F4 [0x1C] WAIT(1* ticks)
 46: 0x14F7 [0x5C] MUSIC_CONTROL: Set Idle (Day) music to song 151*
 47: 0x14FB [0x5C] MUSIC_CONTROL: Set Idle (Night) music to song 151*
 48: 0x14FF [0x9A] WAIT_MUSIC_SERVER()
 49: 0x1500 [0x46] CAMERA_CONTROL: Restore default settings
 50: 0x1502 [0x45] LOAD_SCHEDULED_TASK: Load scheduler "fdi2" with entities [EventEntity, EventEntity], work=[200*, 0*]
 51: 0x1513 [0x21] END_EVENT
 52: 0x1514 [0x00] END_REQSTACK()
```

#### Data or dead code:

```
# Dead code (unreachable instructions):
     0x1515 [0x45] LOAD_SCHEDULED_TASK: Load scheduler "fdi0" with entities [LocalPlayer, LocalPlayer], work=[200*, 0*]
     0x1526 [0x55] WAIT_LOAD_SCHEDULER: Wait for scheduler "fdi0" with entities [LocalPlayer, LocalPlayer], work=200*
     0x1535 [0x1B] RETURN
     0x1536 [0x45] LOAD_SCHEDULED_TASK: Load scheduler "fdo0" with entities [LocalPlayer, LocalPlayer], work=[200*, 0*]
     0x1547 [0x55] WAIT_LOAD_SCHEDULER: Wait for scheduler "fdo0" with entities [LocalPlayer, LocalPlayer], work=200*
     0x1556 [0x1B] RETURN
     0x1557 [0x45] LOAD_SCHEDULED_TASK: Load scheduler "fdi1" with entities [LocalPlayer, LocalPlayer], work=[200*, 0*]
     0x1568 [0x55] WAIT_LOAD_SCHEDULER: Wait for scheduler "fdi1" with entities [LocalPlayer, LocalPlayer], work=200*
     0x1577 [0x1B] RETURN
     0x1578 [0x45] LOAD_SCHEDULED_TASK: Load scheduler "fdo1" with entities [LocalPlayer, LocalPlayer], work=[200*, 0*]
     0x1589 [0x55] WAIT_LOAD_SCHEDULER: Wait for scheduler "fdo1" with entities [LocalPlayer, LocalPlayer], work=200*
     0x1598 [0x1B] RETURN
     0x1599 [0x45] LOAD_SCHEDULED_TASK: Load scheduler "whi1" with entities [LocalPlayer, LocalPlayer], work=[201*, 0*]
     0x15AA [0x55] WAIT_LOAD_SCHEDULER: Wait for scheduler "whi1" with entities [LocalPlayer, LocalPlayer], work=201*
     0x15B9 [0x1B] RETURN
     0x15BA [0x45] LOAD_SCHEDULED_TASK: Load scheduler "who1" with entities [LocalPlayer, LocalPlayer], work=[201*, 0*]
     0x15CB [0x55] WAIT_LOAD_SCHEDULER: Wait for scheduler "who1" with entities [LocalPlayer, LocalPlayer], work=201*
     0x15DA [0x1B] RETURN
     0x15DB [0x45] LOAD_SCHEDULED_TASK: Load scheduler "who2" with entities [LocalPlayer, LocalPlayer], work=[201*, 0*]
     0x15EC [0x55] WAIT_LOAD_SCHEDULER: Wait for scheduler "who2" with entities [LocalPlayer, LocalPlayer], work=201*
     0x15FB [0x1B] RETURN
     0x15FC [0x45] LOAD_SCHEDULED_TASK: Load scheduler "who3" with entities [LocalPlayer, LocalPlayer], work=[201*, 0*]
     0x160D [0x55] WAIT_LOAD_SCHEDULER: Wait for scheduler "who3" with entities [LocalPlayer, LocalPlayer], work=201*
     0x161C [0x1B] RETURN
     0x161D [0x62] LOAD_EVENT_SCHEDULER: Load scheduler "main" with entities [LocalPlayer, LocalPlayer], work=[1*, 0*]
     0x162E [0x1C] WAIT(45* ticks)
     0x1631 [0x45] LOAD_SCHEDULED_TASK: Load scheduler "fdo1" with entities [LocalPlayer, LocalPlayer], work=[200*, 0*]
     0x1642 [0x55] WAIT_LOAD_SCHEDULER: Wait for scheduler "fdo1" with entities [LocalPlayer, LocalPlayer], work=200*
     0x1651 [0x1B] RETURN
     0x1652 [0x45] LOAD_SCHEDULED_TASK: Load scheduler "fdi1" with entities [LocalPlayer, LocalPlayer], work=[200*, 0*]
     0x1663 [0x62] LOAD_EVENT_SCHEDULER: Load scheduler "main" with entities [LocalPlayer, LocalPlayer], work=[2*, 0*]
     0x1674 [0x1C] WAIT(30* ticks)
     0x1677 [0x55] WAIT_LOAD_SCHEDULER: Wait for scheduler "fdi1" with entities [LocalPlayer, LocalPlayer], work=200*
