# 17756168 - warp06

## Common Data

| Field            | Value                    |
|------------------|--------------------------|
| Zone             | Windurst Walls (ID: 239) |
| Block Size       | 120 bytes                |
| Total Events     | 2                        |
| References Count | 5                        |

## List of Events

| Event ID              | Entrypoint   |   Size |   Instructions |
|-----------------------|--------------|--------|----------------|
| [65535](#event-65535) | 0x0000       |      1 |              1 |
| [36](#event-36)       | 0x0001       |     75 |             16 |

## DAT References (imed_data)

|   Index | Hex Value   |   Dec Value |
|---------|-------------|-------------|
|       0 | 0x1A3D      |        6717 |
|       1 | 0x0000      |           0 |
|       2 | 0x0001      |           1 |
|       3 | 0x0002      |           2 |
|       4 | 0x0003      |           3 |

## String References

- **6717**: rank [1""/4/5/6/7/8/9/10]

## Events

### Event 65535

#### Metadata

| Field        | Value   |
|--------------|---------|
| Entrypoint   | 0x0000  |
| Data Size    | 1 bytes |
| Instructions | 1       |

```
      00 01 02 03 04 05 06 07  08 09 0A 0B 0C 0D 0E 0F
      -- -- -- -- -- -- -- --  -- -- -- -- -- -- -- --
0000: 00                                                .               
```

#### Opcodes

```
  0: 0x0000 [0x00] END_REQSTACK()
```

### Event 36

#### Metadata

| Field        | Value    |
|--------------|----------|
| Entrypoint   | 0x0001   |
| Data Size    | 75 bytes |
| Instructions | 16       |

```
      00 01 02 03 04 05 06 07  08 09 0A 0B 0C 0D 0E 0F
      -- -- -- -- -- -- -- --  -- -- -- -- -- -- -- --
0000:    24 00 80 01 80 01 80  25 02 00 10 01 80 00 1B   $......%.......
0010: 00 29 09 F0 FF FF 7F 0A  01 48 00 02 00 10 02 80  .).......H......
0020: 00 26 00 01 48 00 02 00  10 03 80 00 38 00 29 09  .&..H.......8.).
0030: F0 FF FF 7F 1A 01 48 00  02 00 10 04 80 00 48 00  ......H.......H.
0040: 03 01 10 02 80 01 48 00  20 00 21 00              ......H. .!.    
```

#### Opcodes

```
  0: 0x0001 [0x24] CREATE_DIALOG(message_id=6717*, default_option=0*, option_flags=0*)
    → "rank [1""/4/5/6/7/8/9/10]"
  1: 0x0008 [0x25] WAIT_DIALOG_SELECT()
  2: 0x0009 [0x02] IF !(Work_Zone[0] == 0*) GOTO 0x001B
  3: 0x0011 [0x29] REQ_SET_WAIT(priority=0x09, entity_id=LocalPlayer, tag_num=0x0A)
  4: 0x0018 [0x01] GOTO 0x0048
  5: 0x001B [0x02] IF !(Work_Zone[0] == 1*) GOTO 0x0026
  6: 0x0023 [0x01] GOTO 0x0048
  7: 0x0026 [0x02] IF !(Work_Zone[0] == 2*) GOTO 0x0038
  8: 0x002E [0x29] REQ_SET_WAIT(priority=0x09, entity_id=LocalPlayer, tag_num=0x1A)
  9: 0x0035 [0x01] GOTO 0x0048
 10: 0x0038 [0x02] IF !(Work_Zone[0] == 3*) GOTO 0x0048
 11: 0x0040 [0x03] Work_Zone[1] = 1*
 12: 0x0045 [0x01] GOTO 0x0048

SUBROUTINE_0048:
 13: 0x0048 [0x20] SET_CLI_EVENT_UC_FLAG: Unlock player control
 14: 0x004A [0x21] END_EVENT
 15: 0x004B [0x00] END_REQSTACK()
```
