# 17756213 - Raamimi

## Common Data

| Field            | Value                    |
|------------------|--------------------------|
| Zone             | Windurst Walls (ID: 239) |
| Block Size       | 264 bytes                |
| Total Events     | 9                        |
| References Count | 8                        |

## List of Events

| Event ID                 | Entrypoint   |   Size |   Instructions |
|--------------------------|--------------|--------|----------------|
| [65535](#event-65535)    | 0x0000       |      1 |              1 |
| [65535.1](#event-655351) | 0x0001       |     16 |              2 |
| [65535.2](#event-655352) | 0x0011       |      6 |              2 |
| [296](#event-296)        | 0x0017       |     29 |             10 |
| [64](#event-64)          | 0x0034       |      1 |              1 |
| [67](#event-67)          | 0x0035       |     33 |             12 |
| [68](#event-68)          | 0x0056       |     29 |             10 |
| [79](#event-79)          | 0x0073       |     29 |             10 |
| [80](#event-80)          | 0x0090       |     36 |             14 |

## DAT References (imed_data)

|   Index | Hex Value   |   Dec Value |
|---------|-------------|-------------|
|       0 | 0x0028      |          40 |
|       1 | 0x1ED6      |        7894 |
|       2 | 0x1C51      |        7249 |
|       3 | 0x1C52      |        7250 |
|       4 | 0x1C53      |        7251 |
|       5 | 0x1C65      |        7269 |
|       6 | 0x1C66      |        7270 |
|       7 | 0x1C67      |        7271 |

## String References

- **7249**: Oh, goodness-gracious me... I thought his audience's reaction was livelier than usual, but it seems that the old public speaker has gone and lost his voice.
- **7250**: Let me see... I guess this will have to make do. I was hoping to save it to make a nice drink out of, but that can wait. Here, give the old gent this and see if it helps...
- **7251**: If he swallows some of that honey, honey, it should fix his sore throat right up. Why, that's honey from the bees out in Sarutabaruta you're dealing with here!
- **7269**: Hmm... It's certainly got a lot quieter around here all of a sudden. I don't know whether to feel guilty or whether I did everyone a service by this.
- **7270**: Say... Just how much honey did you give the old guy? He must have sure enjoyed that honey if he ate so much it rotted his teeth!
- **7271**: Oh, but don't you be putting on that sad face now, dear. It wasn't your fault the old public speaker gave himself a toothache. Here, these will cheer you up...
- **7894**: Oh, no! That old gent those groupies call the "Great Teacher" has started up his speech again. I swear, my ears are suffering from repetitive strain injury from listening to him repeat the same old thing every time I have the misfortune of passing by here.

## Events

### Event 65535

#### Metadata

| Field        | Value   |
|--------------|---------|
| Entrypoint   | 0x0000  |
| Data Size    | 1 bytes |
| Instructions | 1       |

```
      00 01 02 03 04 05 06 07  08 09 0A 0B 0C 0D 0E 0F
      -- -- -- -- -- -- -- --  -- -- -- -- -- -- -- --
0000: 00                                                .               
```

#### Opcodes

```
  0: 0x0000 [0x00] END_REQSTACK()
```

### Event 65535.1

#### Metadata

| Field        | Value    |
|--------------|----------|
| Entrypoint   | 0x0001   |
| Data Size    | 16 bytes |
| Instructions | 2        |

```
      00 01 02 03 04 05 06 07  08 09 0A 0B 0C 0D 0E 0F
      -- -- -- -- -- -- -- --  -- -- -- -- -- -- -- --
0000:    66 00 80 F8 FF FF 7F  F8 FF FF 7F 74 6C 6B 30   f..........tlk0
0010: 00                                                .               
```

#### Opcodes

```
  0: 0x0001 [0x66] LOAD_EXT_SCHEDULER_MAIN: Load scheduler "tlk0" with entities [EventEntity, EventEntity], work=40*
  1: 0x0010 [0x00] END_REQSTACK()
```

### Event 65535.2

#### Metadata

| Field        | Value   |
|--------------|---------|
| Entrypoint   | 0x0011  |
| Data Size    | 6 bytes |
| Instructions | 2       |

```
      00 01 02 03 04 05 06 07  08 09 0A 0B 0C 0D 0E 0F
      -- -- -- -- -- -- -- --  -- -- -- -- -- -- -- --
0010:    5E 69 64 6C 30 00                               ^idl0.         
```

#### Opcodes

```
  0: 0x0011 [0x5E] EventEntity goes idle (kills current action) (animation: "idl0")
  1: 0x0016 [0x00] END_REQSTACK()
```

### Event 296

#### Metadata

| Field        | Value    |
|--------------|----------|
| Entrypoint   | 0x0017   |
| Data Size    | 29 bytes |
| Instructions | 10       |

```
      00 01 02 03 04 05 06 07  08 09 0A 0B 0C 0D 0E 0F
      -- -- -- -- -- -- -- --  -- -- -- -- -- -- -- --
0010:                      1E  F0 FF FF 7F 6F 70 29 0B         .....op).
0020: 35 F0 0E 01 01 1D 01 80  23 29 0B 35 F0 0E 01 02  5.......#).5....
0030: 20 00 21 00                                        .!.            
```

#### Opcodes

```
  0: 0x0017 [0x1E] EventEntity looks at LocalPlayer and starts talking
  1: 0x001C [0x6F] WAIT_FRAME_DELAY: Yield until WaitTime reaches zero
  2: 0x001D [0x70] WAIT_ENTITY_RENDER_FLAG: Wait while EventEntity->Render.Flags3 bit 2 is set (cancel turn if not)
  3: 0x001E [0x29] REQ_SET_WAIT(priority=0x0B, entity_id=Raamimi (ID: 17756213/0x010EF035), tag_num=0x01)
  4: 0x0025 [0x1D] PRINT_EVENT_MESSAGE(message_id=7894*)
    → "Oh, no! That old gent those groupies call the "Great Teacher" has started up his speech again. I swear, my ears are suffering from repetitive strain injury from listening to him repeat the same old thing every time I have the misfortune of passing by here."
  5: 0x0028 [0x23] WAIT_FOR_DIALOG_INTERACTION
  6: 0x0029 [0x29] REQ_SET_WAIT(priority=0x0B, entity_id=Raamimi (ID: 17756213/0x010EF035), tag_num=0x02)
  7: 0x0030 [0x20] SET_CLI_EVENT_UC_FLAG: Unlock player control
  8: 0x0032 [0x21] END_EVENT
  9: 0x0033 [0x00] END_REQSTACK()
```

### Event 64

#### Metadata

| Field        | Value   |
|--------------|---------|
| Entrypoint   | 0x0034  |
| Data Size    | 1 bytes |
| Instructions | 1       |

```
      00 01 02 03 04 05 06 07  08 09 0A 0B 0C 0D 0E 0F
      -- -- -- -- -- -- -- --  -- -- -- -- -- -- -- --
0030:             00                                        .           
```

#### Opcodes

```
  0: 0x0034 [0x00] END_REQSTACK()
```

### Event 67

#### Metadata

| Field        | Value    |
|--------------|----------|
| Entrypoint   | 0x0035   |
| Data Size    | 33 bytes |
| Instructions | 12       |

```
      00 01 02 03 04 05 06 07  08 09 0A 0B 0C 0D 0E 0F
      -- -- -- -- -- -- -- --  -- -- -- -- -- -- -- --
0030:                1E F0 FF  FF 7F 6F 70 29 0B 35 F0       .....op).5.
0040: 0E 01 01 1D 02 80 23 1D  03 80 23 29 0B 35 F0 0E  ......#...#).5..
0050: 01 02 20 00 21 00                                 .. .!.          
```

#### Opcodes

```
  0: 0x0035 [0x1E] EventEntity looks at LocalPlayer and starts talking
  1: 0x003A [0x6F] WAIT_FRAME_DELAY: Yield until WaitTime reaches zero
  2: 0x003B [0x70] WAIT_ENTITY_RENDER_FLAG: Wait while EventEntity->Render.Flags3 bit 2 is set (cancel turn if not)
  3: 0x003C [0x29] REQ_SET_WAIT(priority=0x0B, entity_id=Raamimi (ID: 17756213/0x010EF035), tag_num=0x01)
  4: 0x0043 [0x1D] PRINT_EVENT_MESSAGE(message_id=7249*)
    → "Oh, goodness-gracious me... I thought his audience's reaction was livelier than usual, but it seems that the old public speaker has gone and lost his voice."
  5: 0x0046 [0x23] WAIT_FOR_DIALOG_INTERACTION
  6: 0x0047 [0x1D] PRINT_EVENT_MESSAGE(message_id=7250*)
    → "Let me see... I guess this will have to make do. I was hoping to save it to make a nice drink out of, but that can wait. Here, give the old gent this and see if it helps..."
  7: 0x004A [0x23] WAIT_FOR_DIALOG_INTERACTION
  8: 0x004B [0x29] REQ_SET_WAIT(priority=0x0B, entity_id=Raamimi (ID: 17756213/0x010EF035), tag_num=0x02)
  9: 0x0052 [0x20] SET_CLI_EVENT_UC_FLAG: Unlock player control
 10: 0x0054 [0x21] END_EVENT
 11: 0x0055 [0x00] END_REQSTACK()
```

### Event 68

#### Metadata

| Field        | Value    |
|--------------|----------|
| Entrypoint   | 0x0056   |
| Data Size    | 29 bytes |
| Instructions | 10       |

```
      00 01 02 03 04 05 06 07  08 09 0A 0B 0C 0D 0E 0F
      -- -- -- -- -- -- -- --  -- -- -- -- -- -- -- --
0050:                   1E F0  FF FF 7F 6F 70 29 0B 35        .....op).5
0060: F0 0E 01 01 1D 04 80 23  29 0B 35 F0 0E 01 02 20  .......#).5.... 
0070: 00 21 00                                          .!.             
```

#### Opcodes

```
  0: 0x0056 [0x1E] EventEntity looks at LocalPlayer and starts talking
  1: 0x005B [0x6F] WAIT_FRAME_DELAY: Yield until WaitTime reaches zero
  2: 0x005C [0x70] WAIT_ENTITY_RENDER_FLAG: Wait while EventEntity->Render.Flags3 bit 2 is set (cancel turn if not)
  3: 0x005D [0x29] REQ_SET_WAIT(priority=0x0B, entity_id=Raamimi (ID: 17756213/0x010EF035), tag_num=0x01)
  4: 0x0064 [0x1D] PRINT_EVENT_MESSAGE(message_id=7251*)
    → "If he swallows some of that honey, honey, it should fix his sore throat right up. Why, that's honey from the bees out in Sarutabaruta you're dealing with here!"
  5: 0x0067 [0x23] WAIT_FOR_DIALOG_INTERACTION
  6: 0x0068 [0x29] REQ_SET_WAIT(priority=0x0B, entity_id=Raamimi (ID: 17756213/0x010EF035), tag_num=0x02)
  7: 0x006F [0x20] SET_CLI_EVENT_UC_FLAG: Unlock player control
  8: 0x0071 [0x21] END_EVENT
  9: 0x0072 [0x00] END_REQSTACK()
```

### Event 79

#### Metadata

| Field        | Value    |
|--------------|----------|
| Entrypoint   | 0x0073   |
| Data Size    | 29 bytes |
| Instructions | 10       |

```
      00 01 02 03 04 05 06 07  08 09 0A 0B 0C 0D 0E 0F
      -- -- -- -- -- -- -- --  -- -- -- -- -- -- -- --
0070:          1E F0 FF FF 7F  6F 70 29 0B 35 F0 0E 01     .....op).5...
0080: 01 1D 05 80 23 29 0B 35  F0 0E 01 02 20 00 21 00  ....#).5.... .!.
```

#### Opcodes

```
  0: 0x0073 [0x1E] EventEntity looks at LocalPlayer and starts talking
  1: 0x0078 [0x6F] WAIT_FRAME_DELAY: Yield until WaitTime reaches zero
  2: 0x0079 [0x70] WAIT_ENTITY_RENDER_FLAG: Wait while EventEntity->Render.Flags3 bit 2 is set (cancel turn if not)
  3: 0x007A [0x29] REQ_SET_WAIT(priority=0x0B, entity_id=Raamimi (ID: 17756213/0x010EF035), tag_num=0x01)
  4: 0x0081 [0x1D] PRINT_EVENT_MESSAGE(message_id=7269*)
    → "Hmm... It's certainly got a lot quieter around here all of a sudden. I don't know whether to feel guilty or whether I did everyone a service by this."
  5: 0x0084 [0x23] WAIT_FOR_DIALOG_INTERACTION
  6: 0x0085 [0x29] REQ_SET_WAIT(priority=0x0B, entity_id=Raamimi (ID: 17756213/0x010EF035), tag_num=0x02)
  7: 0x008C [0x20] SET_CLI_EVENT_UC_FLAG: Unlock player control
  8: 0x008E [0x21] END_EVENT
  9: 0x008F [0x00] END_REQSTACK()
```

### Event 80

#### Metadata

| Field        | Value    |
|--------------|----------|
| Entrypoint   | 0x0090   |
| Data Size    | 36 bytes |
| Instructions | 14       |

```
      00 01 02 03 04 05 06 07  08 09 0A 0B 0C 0D 0E 0F
      -- -- -- -- -- -- -- --  -- -- -- -- -- -- -- --
0090: 20 01 42 1E F0 FF FF 7F  6F 70 29 0B 35 F0 0E 01   .B.....op).5...
00A0: 01 1D 06 80 23 1D 07 80  23 29 0B 35 F0 0E 01 02  ....#...#).5....
00B0: 20 00 21 00                                        .!.            
```

#### Opcodes

```
  0: 0x0090 [0x20] SET_CLI_EVENT_UC_FLAG: Lock player control
  1: 0x0092 [0x42] SET_CLI_EVENT_CANCEL_DATA()
  2: 0x0093 [0x1E] EventEntity looks at LocalPlayer and starts talking
  3: 0x0098 [0x6F] WAIT_FRAME_DELAY: Yield until WaitTime reaches zero
  4: 0x0099 [0x70] WAIT_ENTITY_RENDER_FLAG: Wait while EventEntity->Render.Flags3 bit 2 is set (cancel turn if not)
  5: 0x009A [0x29] REQ_SET_WAIT(priority=0x0B, entity_id=Raamimi (ID: 17756213/0x010EF035), tag_num=0x01)
  6: 0x00A1 [0x1D] PRINT_EVENT_MESSAGE(message_id=7270*)
    → "Say... Just how much honey did you give the old guy? He must have sure enjoyed that honey if he ate so much it rotted his teeth!"
  7: 0x00A4 [0x23] WAIT_FOR_DIALOG_INTERACTION
  8: 0x00A5 [0x1D] PRINT_EVENT_MESSAGE(message_id=7271*)
    → "Oh, but don't you be putting on that sad face now, dear. It wasn't your fault the old public speaker gave himself a toothache. Here, these will cheer you up..."
  9: 0x00A8 [0x23] WAIT_FOR_DIALOG_INTERACTION
 10: 0x00A9 [0x29] REQ_SET_WAIT(priority=0x0B, entity_id=Raamimi (ID: 17756213/0x010EF035), tag_num=0x02)
 11: 0x00B0 [0x20] SET_CLI_EVENT_UC_FLAG: Unlock player control
 12: 0x00B2 [0x21] END_EVENT
 13: 0x00B3 [0x00] END_REQSTACK()
```
