# 17756259 - Shinchai-Tocchai

## Common Data

| Field            | Value                    |
|------------------|--------------------------|
| Zone             | Windurst Walls (ID: 239) |
| Block Size       | 832 bytes                |
| Total Events     | 16                       |
| References Count | 37                       |

## List of Events

| Event ID                 | Entrypoint   |   Size |   Instructions |
|--------------------------|--------------|--------|----------------|
| [65535](#event-65535)    | 0x0000       |      1 |              1 |
| [505](#event-505)        | 0x0001       |    208 |             50 |
| [276](#event-276)        | 0x00D1       |     72 |             17 |
| [277](#event-277)        | 0x0119       |     72 |             17 |
| [65535.1](#event-655351) | 0x0161       |      9 |              5 |
| [65535.2](#event-655352) | 0x016A       |     17 |              9 |
| [65535.3](#event-655353) | 0x017B       |      9 |              5 |
| [65535.4](#event-655354) | 0x0184       |      5 |              3 |
| [278](#event-278)        | 0x0189       |     73 |             18 |
| [65535.5](#event-655355) | 0x01D2       |     13 |              7 |
| [65535.6](#event-655356) | 0x01DF       |      5 |              3 |
| [279](#event-279)        | 0x01E4       |     18 |              7 |
| [65535.7](#event-655357) | 0x01F6       |      9 |              5 |
| [280](#event-280)        | 0x01FF       |     73 |             18 |
| [65535.8](#event-655358) | 0x0248       |     13 |              7 |
| [65535.9](#event-655359) | 0x0255       |      5 |              3 |

## DAT References (imed_data)

|   Index | Hex Value   |   Dec Value |
|---------|-------------|-------------|
|       0 | 0x0000      |           0 |
|       1 | 0x0006      |           6 |
|       2 | 0x0002      |           2 |
|       3 | 0x0001      |           1 |
|       4 | 0x25D5      |        9685 |
|       5 | 0x25D6      |        9686 |
|       6 | 0x25DE      |        9694 |
|       7 | 0x25DA      |        9690 |
|       8 | 0x25D7      |        9687 |
|       9 | 0x25D8      |        9688 |
|      10 | 0x25D9      |        9689 |
|      11 | 0x001F      |          31 |
|      12 | 0xFFFFFFFF  |  4294967295 |
|      13 | 0x25DF      |        9695 |
|      14 | 0x25DD      |        9693 |
|      15 | 0x1E2D      |        7725 |
|      16 | 0x1E2B      |        7723 |
|      17 | 0x1E2C      |        7724 |
|      18 | 0x1E2E      |        7726 |
|      19 | 0x1E2F      |        7727 |
|      20 | 0x1E30      |        7728 |
|      21 | 0x1E31      |        7729 |
|      22 | 0x1E32      |        7730 |
|      23 | 0x1E33      |        7731 |
|      24 | 0x1E34      |        7732 |
|      25 | 0x1E38      |        7736 |
|      26 | 0x1E35      |        7733 |
|      27 | 0x1E36      |        7734 |
|      28 | 0x1E37      |        7735 |
|      29 | 0x1E39      |        7737 |
|      30 | 0x1E3A      |        7738 |
|      31 | 0x1E3B      |        7739 |
|      32 | 0x1E3F      |        7743 |
|      33 | 0x1E3C      |        7740 |
|      34 | 0x1E3D      |        7741 |
|      35 | 0x1E3E      |        7742 |
|      36 | 0x1E40      |        7744 |

## String References

- **7723**: This is the entrance to Windurst's residential area, where there is a "Mog House" prepared for your use, taru.
- **7724**: Hey... I haven't told you about Mog Houses before, have I? Don't tell me you want me to explain it all to you, taru?
- **7725**: Listen to Mog House explanation? [Yes./No.]
- **7726**: A Mog House is your own personal apartment room provided for your convenience, taru.
- **7727**: Within your Mog House, you can store items, change jobs, heal your HP and MP, and so on, taru.
- **7728**: As you are a citizen of Windurst, you already have a Mog House prepared for you, beyond the entrance behind me, taru.
- **7729**: You are free to use the room as you please. Anyway, enough of my explanation. Go ahead and kupo-ing rest up, taru.
- **7730**: This is the entrance to Windurst's residential area where there is a "Mog House" prepared for your use, taru.
- **7731**: Hey... Don't tell me you want to hear my Mog House explanation again, taru?
- **7732**: Phew. Didn't want to put the both of us through that again, taru!
- **7733**: This is the entrance to Windurst's residential area, where there is a "Mog House" prepared for your use, taru.
- **7734**: Hey... You currently have a Rent-a-Room leased out in [San d'Oria/Bastok/Windurst/Jeuno/Kazham/Rabao/Norg/Al Zahbi], right, taru?
- **7735**: I suppose you want me to return the Rent-a-Room in [San d'Oria/Bastok/Windurst/Jeuno/Kazham/Rabao/Norg/Al Zahbi], and have all your belongings brought back from there to your Mog House here in Windurst for you, right, taru?
- **7736**: Move out of Rent-a-Room? [Yes./No.]
- **7737**: How typical! I knew you would make me do this...<Grumble-grumble>... There. The keys to your Rent-a-Room in [San d'Oria/Bastok/Windurst/Jeuno/Kazham/Rabao/Norg/Al Zahbi] have been returned, and you are now free to kupo-ing rest in your Mog House here again, taru.
- **7738**: This is the entrance to Windurst's residential area, where there are Mog Houses and Rent-a-Rooms available for your use, taru.
- **7739**: Hey... You already have a Rent-a-Room leased here at the moment, right? Well then, you are free to go in and use the Rent-a-Room as you would your Mog House back in your own country, taru.
- **7740**: This is the entrance to Windurst's residential area, where there are Mog Houses and Rent-a-Rooms available for people's use, taru.
- **7741**: Hey... You're no citizen of Windurst! That means you can only lease a Rent-a-Room, taru.
- **7742**: When you lease a Rent-a-Room here, you can use it as you would use your own personal Mog House back in your home country, taru. All the convenience of home, right here in ol' Windurst, taru.
- **7743**: Lease a Rent-a-Room? [Yes./No.]
- **7744**: Damn, I knew you'd make me do more paperwork... <Sigh> There... You now have your own Rent-a-Room prepared for your use in Windurst's residential area behind me here, taru. Have a kupo-ing nice stay.
- **9685**: This is the entrance to Windurst's residential area, where there is a "Mog House" prepared for your use, taru.
- **9686**: This is the entrance to Windurst's residential area, where there are Mog Houses and Rent-a-Rooms available for your use, taru.
- **9687**: A Mog House is your own personal apartment room provided for your convenience, taru.
- **9688**: Within your Mog House, you can store items, change jobs, heal your HP and MP, and so on, taru.
- **9689**: You are free to use the room as you please. Anyway, enough of my explanation. Go ahead and kupo-ing rest up, taru.
- **9690**: Phew. Didn't want to put the both of us through that again, taru!
- **9693**: Okay, follow me, taru.
- **9694**: What do you wish to do? [Nothing in particular./Ask for an explanation of Mog Houses./Visit the Mog House of a party member.]
- **9695**: Whose Mog House will you visit? [Never mind./%1/%2/%3/%4/%5/%6/%7/%8/%9/%10/%11/%12/%13/%14/%15/%16/%17]

## Events

### Event 65535

#### Metadata

| Field        | Value   |
|--------------|---------|
| Entrypoint   | 0x0000  |
| Data Size    | 1 bytes |
| Instructions | 1       |

```
      00 01 02 03 04 05 06 07  08 09 0A 0B 0C 0D 0E 0F
      -- -- -- -- -- -- -- --  -- -- -- -- -- -- -- --
0000: 00                                                .               
```

#### Opcodes

```
  0: 0x0000 [0x00] END_REQSTACK()
```

### Event 505

#### Metadata

| Field        | Value     |
|--------------|-----------|
| Entrypoint   | 0x0001    |
| Data Size    | 208 bytes |
| Instructions | 50        |

```
      00 01 02 03 04 05 06 07  08 09 0A 0B 0C 0D 0E 0F
      -- -- -- -- -- -- -- --  -- -- -- -- -- -- -- --
0000:    02 00 00 00 80 00 D0  00 03 01 10 00 80 03 02   ...............
0010: 00 01 80 C2 01 01 00 02  01 00 00 80 01 26 00 3D  .............&.=
0020: 02 00 02 80 03 80 1E F0  FF FF 7F 02 02 10 02 80  ................
0030: 00 41 00 1D 04 80 23 3D  02 00 03 80 03 80 01 45  .A....#=.......E
0040: 00 1D 05 80 23 02 02 00  01 80 01 CF 00 24 06 80  ....#........$..
0050: 00 80 02 00 25 02 00 10  00 80 00 64 00 1D 07 80  ....%......d....
0060: 23 01 CF 00 02 00 10 03  80 00 82 00 1D 08 80 23  #..............#
0070: 1D 09 80 23 1D 0A 80 23  3C 01 10 0B 80 03 80 01  ...#...#<.......
0080: CF 00 02 00 10 02 80 00  CF 00 C2 01 01 00 0F 01  ................
0090: 00 0C 80 3D 01 00 00 80  03 80 24 0D 80 00 80 01  ...=......$.....
00A0: 00 25 02 00 10 00 80 00  B1 00 1D 07 80 23 01 B1  .%...........#..
00B0: 00 02 00 10 00 80 00 C1  00 03 01 10 00 80 01 CC  ................
00C0: 00 42 1D 0E 80 23 C2 02  00 10 01 10 01 CF 00 21  .B...#.........!
00D0: 00                                                .               
```

#### Opcodes

```
  0: 0x0001 [0x02] IF !(ExtData[1]->WorkLocal[0] == 0*) GOTO 0x00D0
  1: 0x0009 [0x03] Work_Zone[1] = 0*
  2: 0x000E [0x03] ExtData[1]->WorkLocal[2] = 6*
  3: 0x0013 [0xC2] PARTY_STATE_CHECK: ExtData[1]->WorkLocal[1] = mask of visitable party members
  4: 0x0017 [0x02] IF !(ExtData[1]->WorkLocal[1] == 0*) GOTO 0x0026
  5: 0x001F [0x3D] CLEAR_BIT_FLAG_CONDITIONAL(target_work_offset=ExtData[1]->WorkLocal[2], bit_index_work_offset=2*, condition_work_offset=1*)
  6: 0x0026 [0x1E] EventEntity looks at LocalPlayer and starts talking
  7: 0x002B [0x02] IF !(Work_Zone[2] == 2*) GOTO 0x0041
  8: 0x0033 [0x1D] PRINT_EVENT_MESSAGE(message_id=9685*)
    → "This is the entrance to Windurst's residential area, where there is a "Mog House" prepared for your use, taru."
  9: 0x0036 [0x23] WAIT_FOR_DIALOG_INTERACTION
 10: 0x0037 [0x3D] CLEAR_BIT_FLAG_CONDITIONAL(target_work_offset=ExtData[1]->WorkLocal[2], bit_index_work_offset=1*, condition_work_offset=1*)
 11: 0x003E [0x01] GOTO 0x0045
 12: 0x0041 [0x1D] PRINT_EVENT_MESSAGE(message_id=9686*)
    → "This is the entrance to Windurst's residential area, where there are Mog Houses and Rent-a-Rooms available for your use, taru."
 13: 0x0044 [0x23] WAIT_FOR_DIALOG_INTERACTION

SUBROUTINE_0045:
 14: 0x0045 [0x02] IF !(ExtData[1]->WorkLocal[2] == 6*) GOTO 0x00CF
 15: 0x004D [0x24] CREATE_DIALOG(message_id=9694*, default_option=0*, option_flags=ExtData[1]->WorkLocal[2])
    → "What do you wish to do? [Nothing in particular./Ask for an explanation of Mog Houses./Visit the Mog House of a party member.]"
 16: 0x0054 [0x25] WAIT_DIALOG_SELECT()
 17: 0x0055 [0x02] IF !(Work_Zone[0] == 0*) GOTO 0x0064
 18: 0x005D [0x1D] PRINT_EVENT_MESSAGE(message_id=9690*)
    → "Phew. Didn't want to put the both of us through that again, taru!"
 19: 0x0060 [0x23] WAIT_FOR_DIALOG_INTERACTION
 20: 0x0061 [0x01] GOTO 0x00CF
 21: 0x0064 [0x02] IF !(Work_Zone[0] == 1*) GOTO 0x0082
 22: 0x006C [0x1D] PRINT_EVENT_MESSAGE(message_id=9687*)
    → "A Mog House is your own personal apartment room provided for your convenience, taru."
 23: 0x006F [0x23] WAIT_FOR_DIALOG_INTERACTION
 24: 0x0070 [0x1D] PRINT_EVENT_MESSAGE(message_id=9688*)
    → "Within your Mog House, you can store items, change jobs, heal your HP and MP, and so on, taru."
 25: 0x0073 [0x23] WAIT_FOR_DIALOG_INTERACTION
 26: 0x0074 [0x1D] PRINT_EVENT_MESSAGE(message_id=9689*)
    → "You are free to use the room as you please. Anyway, enough of my explanation. Go ahead and kupo-ing rest up, taru."
 27: 0x0077 [0x23] WAIT_FOR_DIALOG_INTERACTION
 28: 0x0078 [0x3C] SET_BIT_FLAG_CONDITIONAL(target_work_offset=Work_Zone[1], bit_index_work_offset=31*, condition_work_offset=1*)
 29: 0x007F [0x01] GOTO 0x00CF
 30: 0x0082 [0x02] IF !(Work_Zone[0] == 2*) GOTO 0x00CF
 31: 0x008A [0xC2] PARTY_STATE_CHECK: ExtData[1]->WorkLocal[1] = mask of visitable party members
 32: 0x008E [0x0F] ExtData[1]->WorkLocal[1] ^= 4294967295*
 33: 0x0093 [0x3D] CLEAR_BIT_FLAG_CONDITIONAL(target_work_offset=ExtData[1]->WorkLocal[1], bit_index_work_offset=0*, condition_work_offset=1*)
 34: 0x009A [0x24] CREATE_DIALOG(message_id=9695*, default_option=0*, option_flags=ExtData[1]->WorkLocal[1])
    → "Whose Mog House will you visit? [Never mind./%1/%2/%3/%4/%5/%6/%7/%8/%9/%10/%11/%12/%13/%14/%15/%16/%17]"
 35: 0x00A1 [0x25] WAIT_DIALOG_SELECT()
 36: 0x00A2 [0x02] IF !(Work_Zone[0] == 0*) GOTO 0x00B1
 37: 0x00AA [0x1D] PRINT_EVENT_MESSAGE(message_id=9690*)
    → "Phew. Didn't want to put the both of us through that again, taru!"
 38: 0x00AD [0x23] WAIT_FOR_DIALOG_INTERACTION
 39: 0x00AE [0x01] GOTO 0x00B1

SUBROUTINE_00B1:
 40: 0x00B1 [0x02] IF !(Work_Zone[0] == 0*) GOTO 0x00C1
 41: 0x00B9 [0x03] Work_Zone[1] = 0*
 42: 0x00BE [0x01] GOTO 0x00CC
 43: 0x00C1 [0x42] SET_CLI_EVENT_CANCEL_DATA()
 44: 0x00C2 [0x1D] PRINT_EVENT_MESSAGE(message_id=9693*)
    → "Okay, follow me, taru."
 45: 0x00C5 [0x23] WAIT_FOR_DIALOG_INTERACTION
 46: 0x00C6 [0xC2] PARTY_STATE_CHECK: Work_Zone[1] = check if party member (from Work_Zone[0]) house is open

SUBROUTINE_00CC:
 47: 0x00CC [0x01] GOTO 0x00CF

SUBROUTINE_00CF:
 48: 0x00CF [0x21] END_EVENT
 49: 0x00D0 [0x00] END_REQSTACK()
```

### Event 276

#### Metadata

| Field        | Value    |
|--------------|----------|
| Entrypoint   | 0x00D1   |
| Data Size    | 72 bytes |
| Instructions | 17       |

```
      00 01 02 03 04 05 06 07  08 09 0A 0B 0C 0D 0E 0F
      -- -- -- -- -- -- -- --  -- -- -- -- -- -- -- --
00D0:    1E F0 FF FF 7F 6F 70  29 0B 63 F0 0E 01 04 24   .....op).c....$
00E0: 0F 80 00 80 00 80 25 02  00 10 00 80 00 FE 00 03  ......%.........
00F0: 01 10 00 80 29 0B 63 F0  0E 01 05 01 15 01 02 00  ....).c.........
0100: 10 03 80 00 15 01 03 01  10 03 80 29 0B 63 F0 0E  ...........).c..
0110: 01 07 01 15 01 20 00 21  00                       ..... .!.       
```

#### Opcodes

```
  0: 0x00D1 [0x1E] EventEntity looks at LocalPlayer and starts talking
  1: 0x00D6 [0x6F] WAIT_FRAME_DELAY: Yield until WaitTime reaches zero
  2: 0x00D7 [0x70] WAIT_ENTITY_RENDER_FLAG: Wait while EventEntity->Render.Flags3 bit 2 is set (cancel turn if not)
  3: 0x00D8 [0x29] REQ_SET_WAIT(priority=0x0B, entity_id=Shinchai-Tocchai (ID: 17756259/0x010EF063), tag_num=0x04)
  4: 0x00DF [0x24] CREATE_DIALOG(message_id=7725*, default_option=0*, option_flags=0*)
    → "Listen to Mog House explanation? [Yes./No.]"
  5: 0x00E6 [0x25] WAIT_DIALOG_SELECT()
  6: 0x00E7 [0x02] IF !(Work_Zone[0] == 0*) GOTO 0x00FE
  7: 0x00EF [0x03] Work_Zone[1] = 0*
  8: 0x00F4 [0x29] REQ_SET_WAIT(priority=0x0B, entity_id=Shinchai-Tocchai (ID: 17756259/0x010EF063), tag_num=0x05)
  9: 0x00FB [0x01] GOTO 0x0115
 10: 0x00FE [0x02] IF !(Work_Zone[0] == 1*) GOTO 0x0115
 11: 0x0106 [0x03] Work_Zone[1] = 1*
 12: 0x010B [0x29] REQ_SET_WAIT(priority=0x0B, entity_id=Shinchai-Tocchai (ID: 17756259/0x010EF063), tag_num=0x07)
 13: 0x0112 [0x01] GOTO 0x0115

SUBROUTINE_0115:
 14: 0x0115 [0x20] SET_CLI_EVENT_UC_FLAG: Unlock player control
 15: 0x0117 [0x21] END_EVENT
 16: 0x0118 [0x00] END_REQSTACK()
```

### Event 277

#### Metadata

| Field        | Value    |
|--------------|----------|
| Entrypoint   | 0x0119   |
| Data Size    | 72 bytes |
| Instructions | 17       |

```
      00 01 02 03 04 05 06 07  08 09 0A 0B 0C 0D 0E 0F
      -- -- -- -- -- -- -- --  -- -- -- -- -- -- -- --
0110:                             1E F0 FF FF 7F 6F 70           .....op
0120: 29 0B 63 F0 0E 01 06 24  0F 80 03 80 00 80 25 02  ).c....$......%.
0130: 00 10 00 80 00 46 01 03  01 10 00 80 29 0B 63 F0  .....F......).c.
0140: 0E 01 05 01 5D 01 02 00  10 03 80 00 5D 01 03 01  ....].......]...
0150: 10 03 80 29 0B 63 F0 0E  01 07 01 5D 01 20 00 21  ...).c.....]. .!
0160: 00                                                .               
```

#### Opcodes

```
  0: 0x0119 [0x1E] EventEntity looks at LocalPlayer and starts talking
  1: 0x011E [0x6F] WAIT_FRAME_DELAY: Yield until WaitTime reaches zero
  2: 0x011F [0x70] WAIT_ENTITY_RENDER_FLAG: Wait while EventEntity->Render.Flags3 bit 2 is set (cancel turn if not)
  3: 0x0120 [0x29] REQ_SET_WAIT(priority=0x0B, entity_id=Shinchai-Tocchai (ID: 17756259/0x010EF063), tag_num=0x06)
  4: 0x0127 [0x24] CREATE_DIALOG(message_id=7725*, default_option=1*, option_flags=0*)
    → "Listen to Mog House explanation? [Yes./No.]"
  5: 0x012E [0x25] WAIT_DIALOG_SELECT()
  6: 0x012F [0x02] IF !(Work_Zone[0] == 0*) GOTO 0x0146
  7: 0x0137 [0x03] Work_Zone[1] = 0*
  8: 0x013C [0x29] REQ_SET_WAIT(priority=0x0B, entity_id=Shinchai-Tocchai (ID: 17756259/0x010EF063), tag_num=0x05)
  9: 0x0143 [0x01] GOTO 0x015D
 10: 0x0146 [0x02] IF !(Work_Zone[0] == 1*) GOTO 0x015D
 11: 0x014E [0x03] Work_Zone[1] = 1*
 12: 0x0153 [0x29] REQ_SET_WAIT(priority=0x0B, entity_id=Shinchai-Tocchai (ID: 17756259/0x010EF063), tag_num=0x07)
 13: 0x015A [0x01] GOTO 0x015D

SUBROUTINE_015D:
 14: 0x015D [0x20] SET_CLI_EVENT_UC_FLAG: Unlock player control
 15: 0x015F [0x21] END_EVENT
 16: 0x0160 [0x00] END_REQSTACK()
```

### Event 65535.1

#### Metadata

| Field        | Value   |
|--------------|---------|
| Entrypoint   | 0x0161  |
| Data Size    | 9 bytes |
| Instructions | 5       |

```
      00 01 02 03 04 05 06 07  08 09 0A 0B 0C 0D 0E 0F
      -- -- -- -- -- -- -- --  -- -- -- -- -- -- -- --
0160:    1D 10 80 23 1D 11 80  23 00                     ...#...#.      
```

#### Opcodes

```
  0: 0x0161 [0x1D] PRINT_EVENT_MESSAGE(message_id=7723*)
    → "This is the entrance to Windurst's residential area, where there is a "Mog House" prepared for your use, taru."
  1: 0x0164 [0x23] WAIT_FOR_DIALOG_INTERACTION
  2: 0x0165 [0x1D] PRINT_EVENT_MESSAGE(message_id=7724*)
    → "Hey... I haven't told you about Mog Houses before, have I? Don't tell me you want me to explain it all to you, taru?"
  3: 0x0168 [0x23] WAIT_FOR_DIALOG_INTERACTION
  4: 0x0169 [0x00] END_REQSTACK()
```

### Event 65535.2

#### Metadata

| Field        | Value    |
|--------------|----------|
| Entrypoint   | 0x016A   |
| Data Size    | 17 bytes |
| Instructions | 9        |

```
      00 01 02 03 04 05 06 07  08 09 0A 0B 0C 0D 0E 0F
      -- -- -- -- -- -- -- --  -- -- -- -- -- -- -- --
0160:                                1D 12 80 23 1D 13            ...#..
0170: 80 23 1D 14 80 23 1D 15  80 23 00                 .#...#...#.     
```

#### Opcodes

```
  0: 0x016A [0x1D] PRINT_EVENT_MESSAGE(message_id=7726*)
    → "A Mog House is your own personal apartment room provided for your convenience, taru."
  1: 0x016D [0x23] WAIT_FOR_DIALOG_INTERACTION
  2: 0x016E [0x1D] PRINT_EVENT_MESSAGE(message_id=7727*)
    → "Within your Mog House, you can store items, change jobs, heal your HP and MP, and so on, taru."
  3: 0x0171 [0x23] WAIT_FOR_DIALOG_INTERACTION
  4: 0x0172 [0x1D] PRINT_EVENT_MESSAGE(message_id=7728*)
    → "As you are a citizen of Windurst, you already have a Mog House prepared for you, beyond the entrance behind me, taru."
  5: 0x0175 [0x23] WAIT_FOR_DIALOG_INTERACTION
  6: 0x0176 [0x1D] PRINT_EVENT_MESSAGE(message_id=7729*)
    → "You are free to use the room as you please. Anyway, enough of my explanation. Go ahead and kupo-ing rest up, taru."
  7: 0x0179 [0x23] WAIT_FOR_DIALOG_INTERACTION
  8: 0x017A [0x00] END_REQSTACK()
```

### Event 65535.3

#### Metadata

| Field        | Value   |
|--------------|---------|
| Entrypoint   | 0x017B  |
| Data Size    | 9 bytes |
| Instructions | 5       |

```
      00 01 02 03 04 05 06 07  08 09 0A 0B 0C 0D 0E 0F
      -- -- -- -- -- -- -- --  -- -- -- -- -- -- -- --
0170:                                   1D 16 80 23 1D             ...#.
0180: 17 80 23 00                                       ..#.            
```

#### Opcodes

```
  0: 0x017B [0x1D] PRINT_EVENT_MESSAGE(message_id=7730*)
    → "This is the entrance to Windurst's residential area where there is a "Mog House" prepared for your use, taru."
  1: 0x017E [0x23] WAIT_FOR_DIALOG_INTERACTION
  2: 0x017F [0x1D] PRINT_EVENT_MESSAGE(message_id=7731*)
    → "Hey... Don't tell me you want to hear my Mog House explanation again, taru?"
  3: 0x0182 [0x23] WAIT_FOR_DIALOG_INTERACTION
  4: 0x0183 [0x00] END_REQSTACK()
```

### Event 65535.4

#### Metadata

| Field        | Value   |
|--------------|---------|
| Entrypoint   | 0x0184  |
| Data Size    | 5 bytes |
| Instructions | 3       |

```
      00 01 02 03 04 05 06 07  08 09 0A 0B 0C 0D 0E 0F
      -- -- -- -- -- -- -- --  -- -- -- -- -- -- -- --
0180:             1D 18 80 23  00                           ...#.       
```

#### Opcodes

```
  0: 0x0184 [0x1D] PRINT_EVENT_MESSAGE(message_id=7732*)
    → "Phew. Didn't want to put the both of us through that again, taru!"
  1: 0x0187 [0x23] WAIT_FOR_DIALOG_INTERACTION
  2: 0x0188 [0x00] END_REQSTACK()
```

### Event 278

#### Metadata

| Field        | Value    |
|--------------|----------|
| Entrypoint   | 0x0189   |
| Data Size    | 73 bytes |
| Instructions | 18       |

```
      00 01 02 03 04 05 06 07  08 09 0A 0B 0C 0D 0E 0F
      -- -- -- -- -- -- -- --  -- -- -- -- -- -- -- --
0180:                             1E F0 FF FF 7F 6F 70           .....op
0190: 29 0B 63 F0 0E 01 09 24  19 80 00 80 00 80 25 02  ).c....$......%.
01A0: 00 10 00 80 00 B7 01 42  03 01 10 00 80 29 0B 63  .......B.....).c
01B0: F0 0E 01 0A 01 CE 01 02  00 10 03 80 00 CE 01 03  ................
01C0: 01 10 03 80 29 0B 63 F0  0E 01 07 01 CE 01 20 00  ....).c....... .
01D0: 21 00                                             !.              
```

#### Opcodes

```
  0: 0x0189 [0x1E] EventEntity looks at LocalPlayer and starts talking
  1: 0x018E [0x6F] WAIT_FRAME_DELAY: Yield until WaitTime reaches zero
  2: 0x018F [0x70] WAIT_ENTITY_RENDER_FLAG: Wait while EventEntity->Render.Flags3 bit 2 is set (cancel turn if not)
  3: 0x0190 [0x29] REQ_SET_WAIT(priority=0x0B, entity_id=Shinchai-Tocchai (ID: 17756259/0x010EF063), tag_num=0x09)
  4: 0x0197 [0x24] CREATE_DIALOG(message_id=7736*, default_option=0*, option_flags=0*)
    → "Move out of Rent-a-Room? [Yes./No.]"
  5: 0x019E [0x25] WAIT_DIALOG_SELECT()
  6: 0x019F [0x02] IF !(Work_Zone[0] == 0*) GOTO 0x01B7
  7: 0x01A7 [0x42] SET_CLI_EVENT_CANCEL_DATA()
  8: 0x01A8 [0x03] Work_Zone[1] = 0*
  9: 0x01AD [0x29] REQ_SET_WAIT(priority=0x0B, entity_id=Shinchai-Tocchai (ID: 17756259/0x010EF063), tag_num=0x0A)
 10: 0x01B4 [0x01] GOTO 0x01CE
 11: 0x01B7 [0x02] IF !(Work_Zone[0] == 1*) GOTO 0x01CE
 12: 0x01BF [0x03] Work_Zone[1] = 1*
 13: 0x01C4 [0x29] REQ_SET_WAIT(priority=0x0B, entity_id=Shinchai-Tocchai (ID: 17756259/0x010EF063), tag_num=0x07)
 14: 0x01CB [0x01] GOTO 0x01CE

SUBROUTINE_01CE:
 15: 0x01CE [0x20] SET_CLI_EVENT_UC_FLAG: Unlock player control
 16: 0x01D0 [0x21] END_EVENT
 17: 0x01D1 [0x00] END_REQSTACK()
```

### Event 65535.5

#### Metadata

| Field        | Value    |
|--------------|----------|
| Entrypoint   | 0x01D2   |
| Data Size    | 13 bytes |
| Instructions | 7        |

```
      00 01 02 03 04 05 06 07  08 09 0A 0B 0C 0D 0E 0F
      -- -- -- -- -- -- -- --  -- -- -- -- -- -- -- --
01D0:       1D 1A 80 23 1D 1B  80 23 1D 1C 80 23 00       ...#...#...#. 
```

#### Opcodes

```
  0: 0x01D2 [0x1D] PRINT_EVENT_MESSAGE(message_id=7733*)
    → "This is the entrance to Windurst's residential area, where there is a "Mog House" prepared for your use, taru."
  1: 0x01D5 [0x23] WAIT_FOR_DIALOG_INTERACTION
  2: 0x01D6 [0x1D] PRINT_EVENT_MESSAGE(message_id=7734*)
    → "Hey... You currently have a Rent-a-Room leased out in [San d'Oria/Bastok/Windurst/Jeuno/Kazham/Rabao/Norg/Al Zahbi], right, taru?"
  3: 0x01D9 [0x23] WAIT_FOR_DIALOG_INTERACTION
  4: 0x01DA [0x1D] PRINT_EVENT_MESSAGE(message_id=7735*)
    → "I suppose you want me to return the Rent-a-Room in [San d'Oria/Bastok/Windurst/Jeuno/Kazham/Rabao/Norg/Al Zahbi], and have all your belongings brought back from there to your Mog House here in Windurst for you, right, taru?"
  5: 0x01DD [0x23] WAIT_FOR_DIALOG_INTERACTION
  6: 0x01DE [0x00] END_REQSTACK()
```

### Event 65535.6

#### Metadata

| Field        | Value   |
|--------------|---------|
| Entrypoint   | 0x01DF  |
| Data Size    | 5 bytes |
| Instructions | 3       |

```
      00 01 02 03 04 05 06 07  08 09 0A 0B 0C 0D 0E 0F
      -- -- -- -- -- -- -- --  -- -- -- -- -- -- -- --
01D0:                                               1D                 .
01E0: 1D 80 23 00                                       ..#.            
```

#### Opcodes

```
  0: 0x01DF [0x1D] PRINT_EVENT_MESSAGE(message_id=7737*)
    → "How typical! I knew you would make me do this...<Grumble-grumble>... There. The keys to your Rent-a-Room in [San d'Oria/Bastok/Windurst/Jeuno/Kazham/Rabao/Norg/Al Zahbi] have been returned, and you are now free to kupo-ing rest in your Mog House here again, taru."
  1: 0x01E2 [0x23] WAIT_FOR_DIALOG_INTERACTION
  2: 0x01E3 [0x00] END_REQSTACK()
```

### Event 279

#### Metadata

| Field        | Value    |
|--------------|----------|
| Entrypoint   | 0x01E4   |
| Data Size    | 18 bytes |
| Instructions | 7        |

```
      00 01 02 03 04 05 06 07  08 09 0A 0B 0C 0D 0E 0F
      -- -- -- -- -- -- -- --  -- -- -- -- -- -- -- --
01E0:             1E F0 FF FF  7F 6F 70 29 0B 63 F0 0E      .....op).c..
01F0: 01 0C 20 00 21 00                                 .. .!.          
```

#### Opcodes

```
  0: 0x01E4 [0x1E] EventEntity looks at LocalPlayer and starts talking
  1: 0x01E9 [0x6F] WAIT_FRAME_DELAY: Yield until WaitTime reaches zero
  2: 0x01EA [0x70] WAIT_ENTITY_RENDER_FLAG: Wait while EventEntity->Render.Flags3 bit 2 is set (cancel turn if not)
  3: 0x01EB [0x29] REQ_SET_WAIT(priority=0x0B, entity_id=Shinchai-Tocchai (ID: 17756259/0x010EF063), tag_num=0x0C)
  4: 0x01F2 [0x20] SET_CLI_EVENT_UC_FLAG: Unlock player control
  5: 0x01F4 [0x21] END_EVENT
  6: 0x01F5 [0x00] END_REQSTACK()
```

### Event 65535.7

#### Metadata

| Field        | Value   |
|--------------|---------|
| Entrypoint   | 0x01F6  |
| Data Size    | 9 bytes |
| Instructions | 5       |

```
      00 01 02 03 04 05 06 07  08 09 0A 0B 0C 0D 0E 0F
      -- -- -- -- -- -- -- --  -- -- -- -- -- -- -- --
01F0:                   1D 1E  80 23 1D 1F 80 23 00           ...#...#. 
```

#### Opcodes

```
  0: 0x01F6 [0x1D] PRINT_EVENT_MESSAGE(message_id=7738*)
    → "This is the entrance to Windurst's residential area, where there are Mog Houses and Rent-a-Rooms available for your use, taru."
  1: 0x01F9 [0x23] WAIT_FOR_DIALOG_INTERACTION
  2: 0x01FA [0x1D] PRINT_EVENT_MESSAGE(message_id=7739*)
    → "Hey... You already have a Rent-a-Room leased here at the moment, right? Well then, you are free to go in and use the Rent-a-Room as you would your Mog House back in your own country, taru."
  3: 0x01FD [0x23] WAIT_FOR_DIALOG_INTERACTION
  4: 0x01FE [0x00] END_REQSTACK()
```

### Event 280

#### Metadata

| Field        | Value    |
|--------------|----------|
| Entrypoint   | 0x01FF   |
| Data Size    | 73 bytes |
| Instructions | 18       |

```
      00 01 02 03 04 05 06 07  08 09 0A 0B 0C 0D 0E 0F
      -- -- -- -- -- -- -- --  -- -- -- -- -- -- -- --
01F0:                                               1E                 .
0200: F0 FF FF 7F 6F 70 29 0B  63 F0 0E 01 0E 24 20 80  ....op).c....$ .
0210: 00 80 00 80 25 02 00 10  00 80 00 2D 02 42 03 01  ....%......-.B..
0220: 10 00 80 29 0B 63 F0 0E  01 0F 01 44 02 02 00 10  ...).c.....D....
0230: 03 80 00 44 02 03 01 10  03 80 29 0B 63 F0 0E 01  ...D......).c...
0240: 07 01 44 02 20 00 21 00                           ..D. .!.        
```

#### Opcodes

```
  0: 0x01FF [0x1E] EventEntity looks at LocalPlayer and starts talking
  1: 0x0204 [0x6F] WAIT_FRAME_DELAY: Yield until WaitTime reaches zero
  2: 0x0205 [0x70] WAIT_ENTITY_RENDER_FLAG: Wait while EventEntity->Render.Flags3 bit 2 is set (cancel turn if not)
  3: 0x0206 [0x29] REQ_SET_WAIT(priority=0x0B, entity_id=Shinchai-Tocchai (ID: 17756259/0x010EF063), tag_num=0x0E)
  4: 0x020D [0x24] CREATE_DIALOG(message_id=7743*, default_option=0*, option_flags=0*)
    → "Lease a Rent-a-Room? [Yes./No.]"
  5: 0x0214 [0x25] WAIT_DIALOG_SELECT()
  6: 0x0215 [0x02] IF !(Work_Zone[0] == 0*) GOTO 0x022D
  7: 0x021D [0x42] SET_CLI_EVENT_CANCEL_DATA()
  8: 0x021E [0x03] Work_Zone[1] = 0*
  9: 0x0223 [0x29] REQ_SET_WAIT(priority=0x0B, entity_id=Shinchai-Tocchai (ID: 17756259/0x010EF063), tag_num=0x0F)
 10: 0x022A [0x01] GOTO 0x0244
 11: 0x022D [0x02] IF !(Work_Zone[0] == 1*) GOTO 0x0244
 12: 0x0235 [0x03] Work_Zone[1] = 1*
 13: 0x023A [0x29] REQ_SET_WAIT(priority=0x0B, entity_id=Shinchai-Tocchai (ID: 17756259/0x010EF063), tag_num=0x07)
 14: 0x0241 [0x01] GOTO 0x0244

SUBROUTINE_0244:
 15: 0x0244 [0x20] SET_CLI_EVENT_UC_FLAG: Unlock player control
 16: 0x0246 [0x21] END_EVENT
 17: 0x0247 [0x00] END_REQSTACK()
```

### Event 65535.8

#### Metadata

| Field        | Value    |
|--------------|----------|
| Entrypoint   | 0x0248   |
| Data Size    | 13 bytes |
| Instructions | 7        |

```
      00 01 02 03 04 05 06 07  08 09 0A 0B 0C 0D 0E 0F
      -- -- -- -- -- -- -- --  -- -- -- -- -- -- -- --
0240:                          1D 21 80 23 1D 22 80 23          .!.#.".#
0250: 1D 23 80 23 00                                    .#.#.           
```

#### Opcodes

```
  0: 0x0248 [0x1D] PRINT_EVENT_MESSAGE(message_id=7740*)
    → "This is the entrance to Windurst's residential area, where there are Mog Houses and Rent-a-Rooms available for people's use, taru."
  1: 0x024B [0x23] WAIT_FOR_DIALOG_INTERACTION
  2: 0x024C [0x1D] PRINT_EVENT_MESSAGE(message_id=7741*)
    → "Hey... You're no citizen of Windurst! That means you can only lease a Rent-a-Room, taru."
  3: 0x024F [0x23] WAIT_FOR_DIALOG_INTERACTION
  4: 0x0250 [0x1D] PRINT_EVENT_MESSAGE(message_id=7742*)
    → "When you lease a Rent-a-Room here, you can use it as you would use your own personal Mog House back in your home country, taru. All the convenience of home, right here in ol' Windurst, taru."
  5: 0x0253 [0x23] WAIT_FOR_DIALOG_INTERACTION
  6: 0x0254 [0x00] END_REQSTACK()
```

### Event 65535.9

#### Metadata

| Field        | Value   |
|--------------|---------|
| Entrypoint   | 0x0255  |
| Data Size    | 5 bytes |
| Instructions | 3       |

```
      00 01 02 03 04 05 06 07  08 09 0A 0B 0C 0D 0E 0F
      -- -- -- -- -- -- -- --  -- -- -- -- -- -- -- --
0250:                1D 24 80  23 00                         .$.#.      
```

#### Opcodes

```
  0: 0x0255 [0x1D] PRINT_EVENT_MESSAGE(message_id=7744*)
    → "Damn, I knew you'd make me do more paperwork... <Sigh> There... You now have your own Rent-a-Room prepared for your use in Windurst's residential area behind me here, taru. Have a kupo-ing nice stay."
  1: 0x0258 [0x23] WAIT_FOR_DIALOG_INTERACTION
  2: 0x0259 [0x00] END_REQSTACK()
```
