# 17756162 - DIRECTOR

## Common Data

| Field            | Value                    |
|------------------|--------------------------|
| Zone             | Windurst Walls (ID: 239) |
| Block Size       | 3860 bytes               |
| Total Events     | 31                       |
| References Count | 123                      |

## List of Events

| Event ID                   | Entrypoint   |   Size |   Instructions |
|----------------------------|--------------|--------|----------------|
| [65535](#event-65535)      | 0x0000       |      1 |              1 |
| [1](#event-1)              | 0x0001       |    132 |             26 |
| [65535.1](#event-655351)   | 0x0085       |    196 |             37 |
| [65535.2](#event-655352)   | 0x0149       |    125 |             24 |
| [65535.3](#event-655353)   | 0x01C6       |     53 |             12 |
| [65535.4](#event-655354)   | 0x01FB       |     48 |             11 |
| [65535.5](#event-655355)   | 0x022B       |    127 |             25 |
| [65535.6](#event-655356)   | 0x02AA       |     92 |             20 |
| [65535.7](#event-655357)   | 0x0306       |    174 |             32 |
| [65535.8](#event-655358)   | 0x03B4       |    170 |             34 |
| [65535.9](#event-655359)   | 0x045E       |    210 |             40 |
| [65535.10](#event-6553510) | 0x0530       |    192 |             40 |
| [6](#event-6)              | 0x05F0       |      8 |              5 |
| [65535.11](#event-6553511) | 0x05F8       |     13 |              6 |
| [65535.12](#event-6553512) | 0x0605       |    147 |             30 |
| [65535.13](#event-6553513) | 0x0698       |    127 |             25 |
| [65535.14](#event-6553514) | 0x0717       |    124 |             26 |
| [65535.15](#event-6553515) | 0x0793       |    147 |             30 |
| [65535.16](#event-6553516) | 0x0826       |    124 |             26 |
| [65535.17](#event-6553517) | 0x08A2       |    112 |             25 |
| [65535.18](#event-6553518) | 0x0912       |    170 |             34 |
| [65535.19](#event-6553519) | 0x09BC       |    124 |             26 |
| [65535.20](#event-6553520) | 0x0A38       |    193 |             38 |
| [65535.21](#event-6553521) | 0x0AF9       |    193 |             38 |
| [65535.22](#event-6553522) | 0x0BBA       |    124 |             26 |
| [65535.23](#event-6553523) | 0x0C36       |     60 |             14 |
| [21](#event-21)            | 0x0C72       |      8 |              5 |
| [22](#event-22)            | 0x0C7A       |      8 |              5 |
| [23](#event-23)            | 0x0C82       |      8 |              5 |
| [65535.24](#event-6553524) | 0x0C8A       |      9 |              4 |
| [65535.25](#event-6553525) | 0x0C93       |      9 |              4 |

## DAT References (imed_data)

|   Index | Hex Value   |   Dec Value |
|---------|-------------|-------------|
|       0 | 0x1F26      |        7974 |
|       1 | 0x0000      |           0 |
|       2 | 0x0001      |           1 |
|       3 | 0x0002      |           2 |
|       4 | 0x0003      |           3 |
|       5 | 0x0004      |           4 |
|       6 | 0x0063      |          99 |
|       7 | 0x0005      |           5 |
|       8 | 0x0064      |         100 |
|       9 | 0x0006      |           6 |
|      10 | 0x0065      |         101 |
|      11 | 0x1A3D      |        6717 |
|      12 | 0x0007      |           7 |
|      13 | 0x0008      |           8 |
|      14 | 0x0009      |           9 |
|      15 | 0x000A      |          10 |
|      16 | 0x1F28      |        7976 |
|      17 | 0x003F      |          63 |
|      18 | 0x1F29      |        7977 |
|      19 | 0x0040      |          64 |
|      20 | 0x1F2A      |        7978 |
|      21 | 0x1F25      |        7973 |
|      22 | 0x0046      |          70 |
|      23 | 0x0047      |          71 |
|      24 | 0x0048      |          72 |
|      25 | 0x0049      |          73 |
|      26 | 0x004A      |          74 |
|      27 | 0x1F2B      |        7979 |
|      28 | 0x0041      |          65 |
|      29 | 0x0042      |          66 |
|      30 | 0x0043      |          67 |
|      31 | 0x0044      |          68 |
|      32 | 0x0045      |          69 |
|      33 | 0x1F23      |        7971 |
|      34 | 0x1A38      |        6712 |
|      35 | 0x1F27      |        7975 |
|      36 | 0x1A24      |        6692 |
|      37 | 0x0131      |         305 |
|      38 | 0x0133      |         307 |
|      39 | 0x0132      |         306 |
|      40 | 0x012C      |         300 |
|      41 | 0x0134      |         308 |
|      42 | 0x0130      |         304 |
|      43 | 0x012D      |         301 |
|      44 | 0x012E      |         302 |
|      45 | 0x012F      |         303 |
|      46 | 0x1A56      |        6742 |
|      47 | 0x1F2C      |        7980 |
|      48 | 0x000B      |          11 |
|      49 | 0x000C      |          12 |
|      50 | 0x000D      |          13 |
|      51 | 0x000E      |          14 |
|      52 | 0x000F      |          15 |
|      53 | 0x1F2D      |        7981 |
|      54 | 0x00FA      |         250 |
|      55 | 0x00FB      |         251 |
|      56 | 0x00FC      |         252 |
|      57 | 0x00FD      |         253 |
|      58 | 0x00FE      |         254 |
|      59 | 0x1F2E      |        7982 |
|      60 | 0x0010      |          16 |
|      61 | 0x0011      |          17 |
|      62 | 0x0012      |          18 |
|      63 | 0x0013      |          19 |
|      64 | 0x1F2F      |        7983 |
|      65 | 0x0014      |          20 |
|      66 | 0x0015      |          21 |
|      67 | 0x0016      |          22 |
|      68 | 0x0017      |          23 |
|      69 | 0x0018      |          24 |
|      70 | 0x1F30      |        7984 |
|      71 | 0x0019      |          25 |
|      72 | 0x001A      |          26 |
|      73 | 0x001B      |          27 |
|      74 | 0x001C      |          28 |
|      75 | 0x1F31      |        7985 |
|      76 | 0x001E      |          30 |
|      77 | 0x001F      |          31 |
|      78 | 0x0020      |          32 |
|      79 | 0x0021      |          33 |
|      80 | 0x0022      |          34 |
|      81 | 0x1F32      |        7986 |
|      82 | 0x0023      |          35 |
|      83 | 0x0024      |          36 |
|      84 | 0x0025      |          37 |
|      85 | 0x0026      |          38 |
|      86 | 0x0027      |          39 |
|      87 | 0x0028      |          40 |
|      88 | 0x1F33      |        7987 |
|      89 | 0x0029      |          41 |
|      90 | 0x002A      |          42 |
|      91 | 0x002B      |          43 |
|      92 | 0x002C      |          44 |
|      93 | 0x1F34      |        7988 |
|      94 | 0x002D      |          45 |
|      95 | 0x002E      |          46 |
|      96 | 0x002F      |          47 |
|      97 | 0x0030      |          48 |
|      98 | 0x0031      |          49 |
|      99 | 0x0032      |          50 |
|     100 | 0x0033      |          51 |
|     101 | 0x1F35      |        7989 |
|     102 | 0x0034      |          52 |
|     103 | 0x0035      |          53 |
|     104 | 0x0036      |          54 |
|     105 | 0x0037      |          55 |
|     106 | 0x0038      |          56 |
|     107 | 0x0039      |          57 |
|     108 | 0x003A      |          58 |
|     109 | 0x1F36      |        7990 |
|     110 | 0x003B      |          59 |
|     111 | 0x003C      |          60 |
|     112 | 0x003D      |          61 |
|     113 | 0x003E      |          62 |
|     114 | 0x1A39      |        6713 |
|     115 | 0x0060      |          96 |
|     116 | 0x0061      |          97 |
|     117 | 0x0062      |          98 |
|     118 | 0x1A3A      |        6714 |
|     119 | 0x1A3B      |        6715 |
|     120 | 0x1A3C      |        6716 |
|     121 | 0x00FF      |         255 |
|     122 | 0x0100      |         256 |

## String References

- **6692**: Oh no! Your Adventurers' certificate vanished!
- **6712**: ex [u6-1:v$P12<$P11O/u6-2:v$P12<$P11O/u7-1:v$P12<$P11O/u7-2:v$P12<$P11O/u8-1:v$P12<$P11O/u8-2:v$P12<$P11O/u9-1:v$P12<$P11O/u9-2:v$P12<$P11O/u9-2:$6816365]
- **6713**: $P122$8n [@$n$P16{n/$3~$3b$3V$3/$3$12n/$3][$3$3t$3$3On]
- **6714**: U_START_WS_QSM$0@U_END_WS_QSM$1 U_SPECIAL_FLAGM$2@U_SPECIAL_FLAG2M$3 U_SPECIAL_BIT(2)M$4$330317 U_RANK_LEVEL_WSM$6@U_FAME_WS_COMMONM$7
- **6715**: U_MS_STARTM$0@U_END_WS_MSM$1 U_RANK_POINT_WSM$2@U_MS_COUNTERM$3 U_WS_FLAGSM$4@U_SPECIAL_FLAGM$5 U_RANK_LEVEL_WSM$6@U_FAME_WS_COMMONM$7
- **6716**: Z_ipc_id01M$0@Z_ipc_id02M$1 Z_ipc_id03M$2@Z_ipc_id04M$3 Z_ipc_id05M$4@Z_ipc_id06M$5 Z_ipc_id07M$6@Z_ANG_time01M$7
- **6717**: rank [1""/4/5/6/7/8/9/10]
- **6742**: $7p$hI$P13|j\\5=><Player>
- **7971**: G1V$3$1[$3vHL6a[H [$3V$3/$3b$3v$P11O/Shantotto$14$m/Koru-Moru$14$m/$P10/L$P11e$wiHeavensTowerj/ [#$4$10/TheConsulateofJeuno/$P103$P16J$L$j/$3}$3C$3 [[$3 /$3<Player>Ran$3IRan$14$m/$9$P10\`(63q/$"$+$mL%F]
- **7973**: $3$3$3N6 [oc006:/sk001:$?$26$3o[$3W$3/$3$7h006:$3X$3^[$3g$P12<$P11O/h006:%_$P156$3Q$3b$3g/h006:$EcL$3C$3x$3$3g]
- **7974**: G$7iB\`h$3U[TroutH [@Rank/$3N$3G$3X$3g/$3A$3C$3e$3 /$3$1[$3v/<Player>j$P13x$6750761$o=/$3N$3G$3X$3gFLAGL]reset/ZONE$3t$3$3O$P11S$20reset/$4$P122$8n/$4$3A$3b$3\`ni$3A$3C$3e$3 4-4-j/$4$3A$3b$3\`nQi$3t$3F$3C$3 $3\`$3F$3b$3N%pj]
- **7975**: GL$3N$3G$3X$3g$3U[TroutH [$6947437=$P14z$P12B<Player>uv/usi001:$3R$3b$3|$3 [L [O$P10Uv/$6029900H45v/$6750761L$P11!h$P15(v/uez001:$P14|$P10:LSusu$3$1v/uo001:$P10"$EIP$P10lE h="v/uh003:%_ [$2)gLDQ$P10:v/uh006:%B [\`$pL$@1v/uh008:$P10^$P16i$6L$v"$ov/uo003:$0$P10_L\\H45$6948976$P13xE\`$o=1FI7i/$3N$3G$3X$3gFLAGL]reset]
- **7976**: RankP [a001:$Pmj=$P14z$P12B<Player>u/si001:$3R$3b$3|$3 [L [O$P10U/o002:<Player>EL\\H45/h001:$P13V)gL$P11!h$P15(/ez001:$P14|$P10:LSusu$3$7oc002:$P13V$KL%F]
- **7977**: RankQ [o003:$0$P10_L\\H45/oc004:$3X$3^[$3I$3j$3I$3$3Y$k [@<Player>j$P14/]
- **7978**: $3$3$3N3 [h003:$3u$3 [$3i$3C$3g/h006: ()Q]
- **7979**: Rank$O [mi003:$T<Player>a"F%_?/km001:$s/=F1ST/km002:$s/=F1PKRMR/km002:$s/=F1QST/km003:$s/=F1KRMR]
- **7980**: $3t$3$3O%'DiE$3U[TroutH [h001OK$3t$3$3O/h001START$3t$3$3O/h&$P10N$3998261$3t$3$3O/iroiro$@1$3t$3$3O/h001END$P12<c$3t$3$3O/$3N$3G$3X$3gFLAGL]reset]
- **7981**: $P10FX$@1$3t$3$3O>AD3B [@clear A001 with a loveletter/clear A001 without a loveletter/have a loveletter after A001 with l/have a loveletter after A001 without l/dont clear A001... but have a loveletter]
- **7982**: $3t$3$3O%'DiE$3U[TroutH [@h003OK$3t$3$3O/h003START$3t$3$3O/%;$P10N$3998261$3t$3$3O/h003END$P12<c$3t$3$3O/$3N$3G$3X$3gFLAGL]reset]
- **7983**: $3t$3$3O%'DiE$3U[TroutH [@h006OK$3t$3$3O/h006START$3t$3$3O/%_$P156$3998261$3t$3$3O/$P16=n$3A$3C$3e$3 $P13n5=$3t$3$3O/END$P12<c$3t$3$3O/$3N$3G$3X$3gFLAGL]reset]
- **7984**: $3t$3$3O%'DiE$3U[TroutH [@h008OK$3t$3$3O/h008START$3t$3$3O/$;$3998261$3t$3$3O/h008END$P12<c$3t$3$3O/$3N$3G$3X$3gFLAGL]reset]
- **7985**: $3t$3$3O%'DiE$3U[TroutH [@o001OK$3t$3$3O/o001START$3t$3$3Oi3$P10l$P16Z$6816317$3A$3C$3e$3 $3998261$3t$3$3O/$Oj$3A$3C$3e$3 $3998261$3t$3$3O/o001END$P12<c$3t$3$3O/$3N$3G$3X$3gFLAGL]reset]
- **7986**: $3t$3$3O%'DiE$3U[TroutH [@a001OK$3t$3$3O/a001START$3t$3$3O/$h$61$P12J$3998261$3t$3$3O/$h$62$3998261$3t$3$3O/$h$64$P12J$3998261$3t$3$3O/a001END$P12<c$3t$3$3O/$3N$3G$3X$3gFLAGL]reset]
- **7987**: $3t$3$3O%'DiE$3U[TroutH [@o002OK$3t$3$3O/o002START$3t$3$3O/$3A$3C$3e$3 $hI$P13|j=$3t$3$3O/o002END$P12<c$3t$3$3O/$3N$3G$3X$3gFLAGL]reset]
- **7988**: $3t$3$3O%'DiE$3U[TroutH [@si001OK$3t$3$3O/si001START$3t$3$3O/$3A$3C$3e$3 1$P13|$h$3t$3$3O/$3A$3C$3e$3 2$P13|$h$3t$3$3O/$3A$3C$3e$3 3$P13|$h$3t$3$3O/$3A$3C$3e$3 4$P13|$h$3t$3$3O/si001END$P12<c$3t$3$3O/$3N$3G$3X$3gFLAGL]reset]
- **7989**: $3t$3$3O%'DiE$3U[TroutH [@ez001OK$3t$3$3O/ez001START$3t$3$3O/$3n$3\`$3~$3c1B 0=/$3n$3\`$3~$3c$P11fQ$P12i$K/$3n$3\`$3~$3c$P11fR$P12i$K/$3n$3\`$3~$3c$Ec\\E 0=/ez001END$P12<c$3t$3$3O/$3N$3G$3X$3gFLAGL]reset]
- **7990**: $3t$3$3O%'DiE$3U[TroutH [@o003OK$3t$3$3O/o003START$3t$3$3O/$3A$3C$3e$3 $3Q$3b$3g/o003END$P12<c$3t$3$3O/$3N$3G$3X$3gFLAGL]reset]

## Events

### Event 65535

#### Metadata

| Field        | Value   |
|--------------|---------|
| Entrypoint   | 0x0000  |
| Data Size    | 1 bytes |
| Instructions | 1       |

```
      00 01 02 03 04 05 06 07  08 09 0A 0B 0C 0D 0E 0F
      -- -- -- -- -- -- -- --  -- -- -- -- -- -- -- --
0000: 00                                                .               
```

#### Opcodes

```
  0: 0x0000 [0x00] END_REQSTACK()
```

### Event 1

#### Metadata

| Field        | Value     |
|--------------|-----------|
| Entrypoint   | 0x0001    |
| Data Size    | 132 bytes |
| Instructions | 26        |

```
      00 01 02 03 04 05 06 07  08 09 0A 0B 0C 0D 0E 0F
      -- -- -- -- -- -- -- --  -- -- -- -- -- -- -- --
0000:    24 00 80 01 80 01 80  25 02 00 10 01 80 00 1B   $......%.......
0010: 00 29 0D 02 F0 0E 01 09  01 81 00 02 00 10 02 80  .)..............
0020: 00 2D 00 29 0D 02 F0 0E  01 02 01 81 00 02 00 10  .-.)............
0030: 03 80 00 3F 00 29 0D 02  F0 0E 01 0B 01 81 00 02  ...?.)..........
0040: 00 10 04 80 00 51 00 29  0D 01 F0 0E 01 03 01 81  .....Q.)........
0050: 00 02 00 10 05 80 00 61  00 03 01 10 06 80 01 81  .......a........
0060: 00 02 00 10 07 80 00 71  00 03 01 10 08 80 01 81  .......q........
0070: 00 02 00 10 09 80 00 81  00 03 01 10 0A 80 01 81  ................
0080: 00 20 00 21 00                                    . .!.           
```

#### Opcodes

```
  0: 0x0001 [0x24] CREATE_DIALOG(message_id=7974*, default_option=0*, option_flags=0*)
    → "G$7iB`h$3U[TroutH [@Rank/$3N$3G$3X$3g/$3A$3C$3e$3 /$3$1[$3v/<Player>j$P13x$6750761$o=/$3N$3G$3X$3gFLAGL]reset/ZONE$3t$3$3O$P11S$20reset/$4$P122$8n/$4$3A$3b$3`ni$3A$3C$3e$3 4-4-j/$4$3A$3b$3`nQi$3t$3F$3C$3 $3`$3F$3b$3N%pj]"
  1: 0x0008 [0x25] WAIT_DIALOG_SELECT()
  2: 0x0009 [0x02] IF !(Work_Zone[0] == 0*) GOTO 0x001B
  3: 0x0011 [0x29] REQ_SET_WAIT(priority=0x0D, entity_id=DIRECTOR (ID: 17756162/0x010EF002), tag_num=0x09)
  4: 0x0018 [0x01] GOTO 0x0081
  5: 0x001B [0x02] IF !(Work_Zone[0] == 1*) GOTO 0x002D
  6: 0x0023 [0x29] REQ_SET_WAIT(priority=0x0D, entity_id=DIRECTOR (ID: 17756162/0x010EF002), tag_num=0x02)
  7: 0x002A [0x01] GOTO 0x0081
  8: 0x002D [0x02] IF !(Work_Zone[0] == 2*) GOTO 0x003F
  9: 0x0035 [0x29] REQ_SET_WAIT(priority=0x0D, entity_id=DIRECTOR (ID: 17756162/0x010EF002), tag_num=0x0B)
 10: 0x003C [0x01] GOTO 0x0081
 11: 0x003F [0x02] IF !(Work_Zone[0] == 3*) GOTO 0x0051
 12: 0x0047 [0x29] REQ_SET_WAIT(priority=0x0D, entity_id=PRODUCER (ID: 17756161/0x010EF001), tag_num=0x03)
 13: 0x004E [0x01] GOTO 0x0081
 14: 0x0051 [0x02] IF !(Work_Zone[0] == 4*) GOTO 0x0061
 15: 0x0059 [0x03] Work_Zone[1] = 99*
 16: 0x005E [0x01] GOTO 0x0081
 17: 0x0061 [0x02] IF !(Work_Zone[0] == 5*) GOTO 0x0071
 18: 0x0069 [0x03] Work_Zone[1] = 100*
 19: 0x006E [0x01] GOTO 0x0081
 20: 0x0071 [0x02] IF !(Work_Zone[0] == 6*) GOTO 0x0081
 21: 0x0079 [0x03] Work_Zone[1] = 101*
 22: 0x007E [0x01] GOTO 0x0081

SUBROUTINE_0081:
 23: 0x0081 [0x20] SET_CLI_EVENT_UC_FLAG: Unlock player control
 24: 0x0083 [0x21] END_EVENT
 25: 0x0084 [0x00] END_REQSTACK()
```

### Event 65535.1

#### Metadata

| Field        | Value     |
|--------------|-----------|
| Entrypoint   | 0x0085    |
| Data Size    | 196 bytes |
| Instructions | 37        |

```
      00 01 02 03 04 05 06 07  08 09 0A 0B 0C 0D 0E 0F
      -- -- -- -- -- -- -- --  -- -- -- -- -- -- -- --
0080:                24 0B 80  01 80 01 80 25 02 00 10       $......%...
0090: 01 80 00 9F 00 29 0B 02  F0 0E 01 03 01 47 01 02  .....).......G..
00A0: 00 10 02 80 00 B1 00 29  0B 02 F0 0E 01 04 01 47  .......).......G
00B0: 01 02 00 10 03 80 00 C3  00 29 0B 02 F0 0E 01 05  .........)......
00C0: 01 47 01 02 00 10 04 80  00 D3 00 03 01 10 04 80  .G..............
00D0: 01 47 01 02 00 10 05 80  00 E3 00 03 01 10 05 80  .G..............
00E0: 01 47 01 02 00 10 07 80  00 F5 00 29 0B 02 F0 0E  .G.........)....
00F0: 01 06 01 47 01 02 00 10  09 80 00 05 01 03 01 10  ...G............
0100: 09 80 01 47 01 02 00 10  0C 80 00 15 01 03 01 10  ...G............
0110: 0C 80 01 47 01 02 00 10  0D 80 00 25 01 03 01 10  ...G.......%....
0120: 0D 80 01 47 01 02 00 10  0E 80 00 35 01 03 01 10  ...G.......5....
0130: 0E 80 01 47 01 02 00 10  0F 80 00 47 01 29 0B 02  ...G.......G.)..
0140: F0 0E 01 07 01 47 01 21  00                       .....G.!.       
```

#### Opcodes

```
  0: 0x0085 [0x24] CREATE_DIALOG(message_id=6717*, default_option=0*, option_flags=0*)
    → "rank [1""/4/5/6/7/8/9/10]"
  1: 0x008C [0x25] WAIT_DIALOG_SELECT()
  2: 0x008D [0x02] IF !(Work_Zone[0] == 0*) GOTO 0x009F
  3: 0x0095 [0x29] REQ_SET_WAIT(priority=0x0B, entity_id=DIRECTOR (ID: 17756162/0x010EF002), tag_num=0x03)
  4: 0x009C [0x01] GOTO 0x0147
  5: 0x009F [0x02] IF !(Work_Zone[0] == 1*) GOTO 0x00B1
  6: 0x00A7 [0x29] REQ_SET_WAIT(priority=0x0B, entity_id=DIRECTOR (ID: 17756162/0x010EF002), tag_num=0x04)
  7: 0x00AE [0x01] GOTO 0x0147
  8: 0x00B1 [0x02] IF !(Work_Zone[0] == 2*) GOTO 0x00C3
  9: 0x00B9 [0x29] REQ_SET_WAIT(priority=0x0B, entity_id=DIRECTOR (ID: 17756162/0x010EF002), tag_num=0x05)
 10: 0x00C0 [0x01] GOTO 0x0147
 11: 0x00C3 [0x02] IF !(Work_Zone[0] == 3*) GOTO 0x00D3
 12: 0x00CB [0x03] Work_Zone[1] = 3*
 13: 0x00D0 [0x01] GOTO 0x0147
 14: 0x00D3 [0x02] IF !(Work_Zone[0] == 4*) GOTO 0x00E3
 15: 0x00DB [0x03] Work_Zone[1] = 4*
 16: 0x00E0 [0x01] GOTO 0x0147
 17: 0x00E3 [0x02] IF !(Work_Zone[0] == 5*) GOTO 0x00F5
 18: 0x00EB [0x29] REQ_SET_WAIT(priority=0x0B, entity_id=DIRECTOR (ID: 17756162/0x010EF002), tag_num=0x06)
 19: 0x00F2 [0x01] GOTO 0x0147
 20: 0x00F5 [0x02] IF !(Work_Zone[0] == 6*) GOTO 0x0105
 21: 0x00FD [0x03] Work_Zone[1] = 6*
 22: 0x0102 [0x01] GOTO 0x0147
 23: 0x0105 [0x02] IF !(Work_Zone[0] == 7*) GOTO 0x0115
 24: 0x010D [0x03] Work_Zone[1] = 7*
 25: 0x0112 [0x01] GOTO 0x0147
 26: 0x0115 [0x02] IF !(Work_Zone[0] == 8*) GOTO 0x0125
 27: 0x011D [0x03] Work_Zone[1] = 8*
 28: 0x0122 [0x01] GOTO 0x0147
 29: 0x0125 [0x02] IF !(Work_Zone[0] == 9*) GOTO 0x0135
 30: 0x012D [0x03] Work_Zone[1] = 9*
 31: 0x0132 [0x01] GOTO 0x0147
 32: 0x0135 [0x02] IF !(Work_Zone[0] == 10*) GOTO 0x0147
 33: 0x013D [0x29] REQ_SET_WAIT(priority=0x0B, entity_id=DIRECTOR (ID: 17756162/0x010EF002), tag_num=0x07)
 34: 0x0144 [0x01] GOTO 0x0147

SUBROUTINE_0147:
 35: 0x0147 [0x21] END_EVENT
 36: 0x0148 [0x00] END_REQSTACK()
```

### Event 65535.2

#### Metadata

| Field        | Value     |
|--------------|-----------|
| Entrypoint   | 0x0149    |
| Data Size    | 125 bytes |
| Instructions | 24        |

```
      00 01 02 03 04 05 06 07  08 09 0A 0B 0C 0D 0E 0F
      -- -- -- -- -- -- -- --  -- -- -- -- -- -- -- --
0140:                             24 10 80 01 80 01 80           $......
0150: 25 02 00 10 01 80 00 63  01 29 0A 02 F0 0E 01 14  %......c.)......
0160: 01 C2 01 02 00 10 02 80  00 75 01 29 0A 02 F0 0E  .........u.)....
0170: 01 16 01 C2 01 02 00 10  03 80 00 87 01 29 0A 02  .............)..
0180: F0 0E 01 15 01 C2 01 02  00 10 04 80 00 99 01 29  ...............)
0190: 0A 02 F0 0E 01 0E 01 C2  01 02 00 10 05 80 00 AB  ................
01A0: 01 29 0A 02 F0 0E 01 17  01 C2 01 02 00 10 07 80  .)..............
01B0: 00 C2 01 29 09 F0 FF FF  7F 1E 03 01 10 11 80 01  ...)............
01C0: C2 01 20 00 21 00                                 .. .!.          
```

#### Opcodes

```
  0: 0x0149 [0x24] CREATE_DIALOG(message_id=7976*, default_option=0*, option_flags=0*)
    → "RankP [a001:$Pmj=$P14z$P12B<Player>u/si001:$3R$3b$3|$3 [L [O$P10U/o002:<Player>EL\H45/h001:$P13V)gL$P11!h$P15(/ez001:$P14|$P10:LSusu$3$7oc002:$P13V$KL%F]"
  1: 0x0150 [0x25] WAIT_DIALOG_SELECT()
  2: 0x0151 [0x02] IF !(Work_Zone[0] == 0*) GOTO 0x0163
  3: 0x0159 [0x29] REQ_SET_WAIT(priority=0x0A, entity_id=DIRECTOR (ID: 17756162/0x010EF002), tag_num=0x14)
  4: 0x0160 [0x01] GOTO 0x01C2
  5: 0x0163 [0x02] IF !(Work_Zone[0] == 1*) GOTO 0x0175
  6: 0x016B [0x29] REQ_SET_WAIT(priority=0x0A, entity_id=DIRECTOR (ID: 17756162/0x010EF002), tag_num=0x16)
  7: 0x0172 [0x01] GOTO 0x01C2
  8: 0x0175 [0x02] IF !(Work_Zone[0] == 2*) GOTO 0x0187
  9: 0x017D [0x29] REQ_SET_WAIT(priority=0x0A, entity_id=DIRECTOR (ID: 17756162/0x010EF002), tag_num=0x15)
 10: 0x0184 [0x01] GOTO 0x01C2
 11: 0x0187 [0x02] IF !(Work_Zone[0] == 3*) GOTO 0x0199
 12: 0x018F [0x29] REQ_SET_WAIT(priority=0x0A, entity_id=DIRECTOR (ID: 17756162/0x010EF002), tag_num=0x0E)
 13: 0x0196 [0x01] GOTO 0x01C2
 14: 0x0199 [0x02] IF !(Work_Zone[0] == 4*) GOTO 0x01AB
 15: 0x01A1 [0x29] REQ_SET_WAIT(priority=0x0A, entity_id=DIRECTOR (ID: 17756162/0x010EF002), tag_num=0x17)
 16: 0x01A8 [0x01] GOTO 0x01C2
 17: 0x01AB [0x02] IF !(Work_Zone[0] == 5*) GOTO 0x01C2
 18: 0x01B3 [0x29] REQ_SET_WAIT(priority=0x09, entity_id=LocalPlayer, tag_num=0x1E)
 19: 0x01BA [0x03] Work_Zone[1] = 63*
 20: 0x01BF [0x01] GOTO 0x01C2

SUBROUTINE_01C2:
 21: 0x01C2 [0x20] SET_CLI_EVENT_UC_FLAG: Unlock player control
 22: 0x01C4 [0x21] END_EVENT
 23: 0x01C5 [0x00] END_REQSTACK()
```

### Event 65535.3

#### Metadata

| Field        | Value    |
|--------------|----------|
| Entrypoint   | 0x01C6   |
| Data Size    | 53 bytes |
| Instructions | 12       |

```
      00 01 02 03 04 05 06 07  08 09 0A 0B 0C 0D 0E 0F
      -- -- -- -- -- -- -- --  -- -- -- -- -- -- -- --
01C0:                   24 12  80 01 80 01 80 25 02 00        $......%..
01D0: 10 01 80 00 E0 01 29 0A  02 F0 0E 01 18 01 F7 01  ......).........
01E0: 02 00 10 02 80 00 F7 01  29 09 F0 FF FF 7F 1E 03  ........).......
01F0: 01 10 13 80 01 F7 01 20  00 21 00                 ....... .!.     
```

#### Opcodes

```
  0: 0x01C6 [0x24] CREATE_DIALOG(message_id=7977*, default_option=0*, option_flags=0*)
    → "RankQ [o003:$0$P10_L\H45/oc004:$3X$3^[$3I$3j$3I$3$3Y$k [@<Player>j$P14/]"
  1: 0x01CD [0x25] WAIT_DIALOG_SELECT()
  2: 0x01CE [0x02] IF !(Work_Zone[0] == 0*) GOTO 0x01E0
  3: 0x01D6 [0x29] REQ_SET_WAIT(priority=0x0A, entity_id=DIRECTOR (ID: 17756162/0x010EF002), tag_num=0x18)
  4: 0x01DD [0x01] GOTO 0x01F7
  5: 0x01E0 [0x02] IF !(Work_Zone[0] == 1*) GOTO 0x01F7
  6: 0x01E8 [0x29] REQ_SET_WAIT(priority=0x09, entity_id=LocalPlayer, tag_num=0x1E)
  7: 0x01EF [0x03] Work_Zone[1] = 64*
  8: 0x01F4 [0x01] GOTO 0x01F7

SUBROUTINE_01F7:
  9: 0x01F7 [0x20] SET_CLI_EVENT_UC_FLAG: Unlock player control
 10: 0x01F9 [0x21] END_EVENT
 11: 0x01FA [0x00] END_REQSTACK()
```

### Event 65535.4

#### Metadata

| Field        | Value    |
|--------------|----------|
| Entrypoint   | 0x01FB   |
| Data Size    | 48 bytes |
| Instructions | 11       |

```
      00 01 02 03 04 05 06 07  08 09 0A 0B 0C 0D 0E 0F
      -- -- -- -- -- -- -- --  -- -- -- -- -- -- -- --
01F0:                                   24 14 80 01 80             $....
0200: 01 80 25 02 00 10 01 80  00 15 02 29 0A 02 F0 0E  ..%........)....
0210: 01 10 01 27 02 02 00 10  02 80 00 27 02 29 0A 02  ...'.......'.)..
0220: F0 0E 01 11 01 27 02 20  00 21 00                 .....'. .!.     
```

#### Opcodes

```
  0: 0x01FB [0x24] CREATE_DIALOG(message_id=7978*, default_option=0*, option_flags=0*)
    → "$3$3$3N3 [h003:$3u$3 [$3i$3C$3g/h006: ()Q]"
  1: 0x0202 [0x25] WAIT_DIALOG_SELECT()
  2: 0x0203 [0x02] IF !(Work_Zone[0] == 0*) GOTO 0x0215
  3: 0x020B [0x29] REQ_SET_WAIT(priority=0x0A, entity_id=DIRECTOR (ID: 17756162/0x010EF002), tag_num=0x10)
  4: 0x0212 [0x01] GOTO 0x0227
  5: 0x0215 [0x02] IF !(Work_Zone[0] == 1*) GOTO 0x0227
  6: 0x021D [0x29] REQ_SET_WAIT(priority=0x0A, entity_id=DIRECTOR (ID: 17756162/0x010EF002), tag_num=0x11)
  7: 0x0224 [0x01] GOTO 0x0227

SUBROUTINE_0227:
  8: 0x0227 [0x20] SET_CLI_EVENT_UC_FLAG: Unlock player control
  9: 0x0229 [0x21] END_EVENT
 10: 0x022A [0x00] END_REQSTACK()
```

### Event 65535.5

#### Metadata

| Field        | Value     |
|--------------|-----------|
| Entrypoint   | 0x022B    |
| Data Size    | 127 bytes |
| Instructions | 25        |

```
      00 01 02 03 04 05 06 07  08 09 0A 0B 0C 0D 0E 0F
      -- -- -- -- -- -- -- --  -- -- -- -- -- -- -- --
0220:                                   24 15 80 01 80             $....
0230: 01 80 25 02 00 10 01 80  00 4A 02 03 01 10 16 80  ..%......J......
0240: 29 09 F0 FF FF 7F 1E 01  A6 02 02 00 10 02 80 00  )...............
0250: 61 02 03 01 10 17 80 29  09 F0 FF FF 7F 1E 01 A6  a......)........
0260: 02 02 00 10 03 80 00 78  02 03 01 10 18 80 29 09  .......x......).
0270: F0 FF FF 7F 16 01 A6 02  02 00 10 04 80 00 8F 02  ................
0280: 03 01 10 19 80 29 09 F0  FF FF 7F 16 01 A6 02 02  .....)..........
0290: 00 10 05 80 00 A6 02 03  01 10 1A 80 29 09 F0 FF  ............)...
02A0: FF 7F 16 01 A6 02 20 00  21 00                    ...... .!.      
```

#### Opcodes

```
  0: 0x022B [0x24] CREATE_DIALOG(message_id=7973*, default_option=0*, option_flags=0*)
    → "$3$3$3N6 [oc006:/sk001:$?$26$3o[$3W$3/$3$7h006:$3X$3^[$3g$P12<$P11O/h006:%_$P156$3Q$3b$3g/h006:$EcL$3C$3x$3$3g]"
  1: 0x0232 [0x25] WAIT_DIALOG_SELECT()
  2: 0x0233 [0x02] IF !(Work_Zone[0] == 0*) GOTO 0x024A
  3: 0x023B [0x03] Work_Zone[1] = 70*
  4: 0x0240 [0x29] REQ_SET_WAIT(priority=0x09, entity_id=LocalPlayer, tag_num=0x1E)
  5: 0x0247 [0x01] GOTO 0x02A6
  6: 0x024A [0x02] IF !(Work_Zone[0] == 1*) GOTO 0x0261
  7: 0x0252 [0x03] Work_Zone[1] = 71*
  8: 0x0257 [0x29] REQ_SET_WAIT(priority=0x09, entity_id=LocalPlayer, tag_num=0x1E)
  9: 0x025E [0x01] GOTO 0x02A6
 10: 0x0261 [0x02] IF !(Work_Zone[0] == 2*) GOTO 0x0278
 11: 0x0269 [0x03] Work_Zone[1] = 72*
 12: 0x026E [0x29] REQ_SET_WAIT(priority=0x09, entity_id=LocalPlayer, tag_num=0x16)
 13: 0x0275 [0x01] GOTO 0x02A6
 14: 0x0278 [0x02] IF !(Work_Zone[0] == 3*) GOTO 0x028F
 15: 0x0280 [0x03] Work_Zone[1] = 73*
 16: 0x0285 [0x29] REQ_SET_WAIT(priority=0x09, entity_id=LocalPlayer, tag_num=0x16)
 17: 0x028C [0x01] GOTO 0x02A6
 18: 0x028F [0x02] IF !(Work_Zone[0] == 4*) GOTO 0x02A6
 19: 0x0297 [0x03] Work_Zone[1] = 74*
 20: 0x029C [0x29] REQ_SET_WAIT(priority=0x09, entity_id=LocalPlayer, tag_num=0x16)
 21: 0x02A3 [0x01] GOTO 0x02A6

SUBROUTINE_02A6:
 22: 0x02A6 [0x20] SET_CLI_EVENT_UC_FLAG: Unlock player control
 23: 0x02A8 [0x21] END_EVENT
 24: 0x02A9 [0x00] END_REQSTACK()
```

### Event 65535.6

#### Metadata

| Field        | Value    |
|--------------|----------|
| Entrypoint   | 0x02AA   |
| Data Size    | 92 bytes |
| Instructions | 20       |

```
      00 01 02 03 04 05 06 07  08 09 0A 0B 0C 0D 0E 0F
      -- -- -- -- -- -- -- --  -- -- -- -- -- -- -- --
02A0:                                24 1B 80 01 80 01            $.....
02B0: 80 25 02 00 10 01 80 00  C2 02 03 01 10 1C 80 01  .%..............
02C0: 02 03 02 00 10 02 80 00  D2 02 03 01 10 1D 80 01  ................
02D0: 02 03 02 00 10 03 80 00  E2 02 03 01 10 1E 80 01  ................
02E0: 02 03 02 00 10 04 80 00  F2 02 03 01 10 1F 80 01  ................
02F0: 02 03 02 00 10 05 80 00  02 03 03 01 10 20 80 01  ............. ..
0300: 02 03 20 00 21 00                                 .. .!.          
```

#### Opcodes

```
  0: 0x02AA [0x24] CREATE_DIALOG(message_id=7979*, default_option=0*, option_flags=0*)
    → "Rank$O [mi003:$T<Player>a"F%_?/km001:$s/=F1ST/km002:$s/=F1PKRMR/km002:$s/=F1QST/km003:$s/=F1KRMR]"
  1: 0x02B1 [0x25] WAIT_DIALOG_SELECT()
  2: 0x02B2 [0x02] IF !(Work_Zone[0] == 0*) GOTO 0x02C2
  3: 0x02BA [0x03] Work_Zone[1] = 65*
  4: 0x02BF [0x01] GOTO 0x0302
  5: 0x02C2 [0x02] IF !(Work_Zone[0] == 1*) GOTO 0x02D2
  6: 0x02CA [0x03] Work_Zone[1] = 66*
  7: 0x02CF [0x01] GOTO 0x0302
  8: 0x02D2 [0x02] IF !(Work_Zone[0] == 2*) GOTO 0x02E2
  9: 0x02DA [0x03] Work_Zone[1] = 67*
 10: 0x02DF [0x01] GOTO 0x0302
 11: 0x02E2 [0x02] IF !(Work_Zone[0] == 3*) GOTO 0x02F2
 12: 0x02EA [0x03] Work_Zone[1] = 68*
 13: 0x02EF [0x01] GOTO 0x0302
 14: 0x02F2 [0x02] IF !(Work_Zone[0] == 4*) GOTO 0x0302
 15: 0x02FA [0x03] Work_Zone[1] = 69*
 16: 0x02FF [0x01] GOTO 0x0302

SUBROUTINE_0302:
 17: 0x0302 [0x20] SET_CLI_EVENT_UC_FLAG: Unlock player control
 18: 0x0304 [0x21] END_EVENT
 19: 0x0305 [0x00] END_REQSTACK()
```

### Event 65535.7

#### Metadata

| Field        | Value     |
|--------------|-----------|
| Entrypoint   | 0x0306    |
| Data Size    | 174 bytes |
| Instructions | 32        |

```
      00 01 02 03 04 05 06 07  08 09 0A 0B 0C 0D 0E 0F
      -- -- -- -- -- -- -- --  -- -- -- -- -- -- -- --
0300:                   24 21  80 01 80 01 80 25 02 00        $!.....%..
0310: 10 01 80 00 20 03 29 09  F0 FF FF 7F 09 01 B0 03  .... .).........
0320: 02 00 10 02 80 00 32 03  29 09 F0 FF FF 7F 17 01  ......2.).......
0330: B0 03 02 00 10 03 80 00  44 03 29 09 F0 FF FF 7F  ........D.).....
0340: 16 01 B0 03 02 00 10 04  80 00 56 03 29 09 F0 FF  ..........V.)...
0350: FF 7F 15 01 B0 03 02 00  10 05 80 00 68 03 29 09  ............h.).
0360: F0 FF FF 7F 19 01 B0 03  02 00 10 07 80 00 7A 03  ..............z.
0370: 29 09 F0 FF FF 7F 18 01  B0 03 02 00 10 09 80 00  )...............
0380: 8C 03 29 09 F0 FF FF 7F  1A 01 B0 03 02 00 10 0C  ..).............
0390: 80 00 9E 03 29 09 F0 FF  FF 7F 1B 01 B0 03 02 00  ....)...........
03A0: 10 0D 80 00 B0 03 29 09  F0 FF FF 7F 1C 01 B0 03  ......).........
03B0: 20 00 21 00                                        .!.            
```

#### Opcodes

```
  0: 0x0306 [0x24] CREATE_DIALOG(message_id=7971*, default_option=0*, option_flags=0*)
    → "G1V$3$1[$3vHL6a[H [$3V$3/$3b$3v$P11O/Shantotto$14$m/Koru-Moru$14$m/$P10/L$P11e$wiHeavensTowerj/ [#$4$10/TheConsulateofJeuno/$P103$P16J$L$j/$3}$3C$3 [[$3 /$3<Player>Ran$3IRan$14$m/$9$P10`(63q/$"$+$mL%F]"
  1: 0x030D [0x25] WAIT_DIALOG_SELECT()
  2: 0x030E [0x02] IF !(Work_Zone[0] == 0*) GOTO 0x0320
  3: 0x0316 [0x29] REQ_SET_WAIT(priority=0x09, entity_id=LocalPlayer, tag_num=0x09)
  4: 0x031D [0x01] GOTO 0x03B0
  5: 0x0320 [0x02] IF !(Work_Zone[0] == 1*) GOTO 0x0332
  6: 0x0328 [0x29] REQ_SET_WAIT(priority=0x09, entity_id=LocalPlayer, tag_num=0x17)
  7: 0x032F [0x01] GOTO 0x03B0
  8: 0x0332 [0x02] IF !(Work_Zone[0] == 2*) GOTO 0x0344
  9: 0x033A [0x29] REQ_SET_WAIT(priority=0x09, entity_id=LocalPlayer, tag_num=0x16)
 10: 0x0341 [0x01] GOTO 0x03B0
 11: 0x0344 [0x02] IF !(Work_Zone[0] == 3*) GOTO 0x0356
 12: 0x034C [0x29] REQ_SET_WAIT(priority=0x09, entity_id=LocalPlayer, tag_num=0x15)
 13: 0x0353 [0x01] GOTO 0x03B0
 14: 0x0356 [0x02] IF !(Work_Zone[0] == 4*) GOTO 0x0368
 15: 0x035E [0x29] REQ_SET_WAIT(priority=0x09, entity_id=LocalPlayer, tag_num=0x19)
 16: 0x0365 [0x01] GOTO 0x03B0
 17: 0x0368 [0x02] IF !(Work_Zone[0] == 5*) GOTO 0x037A
 18: 0x0370 [0x29] REQ_SET_WAIT(priority=0x09, entity_id=LocalPlayer, tag_num=0x18)
 19: 0x0377 [0x01] GOTO 0x03B0
 20: 0x037A [0x02] IF !(Work_Zone[0] == 6*) GOTO 0x038C
 21: 0x0382 [0x29] REQ_SET_WAIT(priority=0x09, entity_id=LocalPlayer, tag_num=0x1A)
 22: 0x0389 [0x01] GOTO 0x03B0
 23: 0x038C [0x02] IF !(Work_Zone[0] == 7*) GOTO 0x039E
 24: 0x0394 [0x29] REQ_SET_WAIT(priority=0x09, entity_id=LocalPlayer, tag_num=0x1B)
 25: 0x039B [0x01] GOTO 0x03B0
 26: 0x039E [0x02] IF !(Work_Zone[0] == 8*) GOTO 0x03B0
 27: 0x03A6 [0x29] REQ_SET_WAIT(priority=0x09, entity_id=LocalPlayer, tag_num=0x1C)
 28: 0x03AD [0x01] GOTO 0x03B0

SUBROUTINE_03B0:
 29: 0x03B0 [0x20] SET_CLI_EVENT_UC_FLAG: Unlock player control
 30: 0x03B2 [0x21] END_EVENT
 31: 0x03B3 [0x00] END_REQSTACK()
```

### Event 65535.8

#### Metadata

| Field        | Value     |
|--------------|-----------|
| Entrypoint   | 0x03B4    |
| Data Size    | 170 bytes |
| Instructions | 34        |

```
      00 01 02 03 04 05 06 07  08 09 0A 0B 0C 0D 0E 0F
      -- -- -- -- -- -- -- --  -- -- -- -- -- -- -- --
03B0:             24 22 80 01  80 01 80 25 02 00 10 01      $".....%....
03C0: 80 00 CC 03 03 01 10 01  80 01 5C 04 02 00 10 02  ..........\.....
03D0: 80 00 DC 03 03 01 10 02  80 01 5C 04 02 00 10 03  ..........\.....
03E0: 80 00 EC 03 03 01 10 03  80 01 5C 04 02 00 10 04  ..........\.....
03F0: 80 00 FC 03 03 01 10 04  80 01 5C 04 02 00 10 05  ..........\.....
0400: 80 00 0C 04 03 01 10 05  80 01 5C 04 02 00 10 07  ..........\.....
0410: 80 00 1C 04 03 01 10 07  80 01 5C 04 02 00 10 09  ..........\.....
0420: 80 00 2C 04 03 01 10 09  80 01 5C 04 02 00 10 0C  ..,.......\.....
0430: 80 00 3C 04 03 01 10 0C  80 01 5C 04 02 00 10 0D  ..<.......\.....
0440: 80 00 4C 04 03 01 10 0D  80 01 5C 04 02 00 10 0E  ..L.......\.....
0450: 80 00 5C 04 03 01 10 0E  80 01 5C 04 21 00        ..\.......\.!.  
```

#### Opcodes

```
  0: 0x03B4 [0x24] CREATE_DIALOG(message_id=6712*, default_option=0*, option_flags=0*)
    → "ex [u6-1:v$P12<$P11O/u6-2:v$P12<$P11O/u7-1:v$P12<$P11O/u7-2:v$P12<$P11O/u8-1:v$P12<$P11O/u8-2:v$P12<$P11O/u9-1:v$P12<$P11O/u9-2:v$P12<$P11O/u9-2:$6816365]"
  1: 0x03BB [0x25] WAIT_DIALOG_SELECT()
  2: 0x03BC [0x02] IF !(Work_Zone[0] == 0*) GOTO 0x03CC
  3: 0x03C4 [0x03] Work_Zone[1] = 0*
  4: 0x03C9 [0x01] GOTO 0x045C
  5: 0x03CC [0x02] IF !(Work_Zone[0] == 1*) GOTO 0x03DC
  6: 0x03D4 [0x03] Work_Zone[1] = 1*
  7: 0x03D9 [0x01] GOTO 0x045C
  8: 0x03DC [0x02] IF !(Work_Zone[0] == 2*) GOTO 0x03EC
  9: 0x03E4 [0x03] Work_Zone[1] = 2*
 10: 0x03E9 [0x01] GOTO 0x045C
 11: 0x03EC [0x02] IF !(Work_Zone[0] == 3*) GOTO 0x03FC
 12: 0x03F4 [0x03] Work_Zone[1] = 3*
 13: 0x03F9 [0x01] GOTO 0x045C
 14: 0x03FC [0x02] IF !(Work_Zone[0] == 4*) GOTO 0x040C
 15: 0x0404 [0x03] Work_Zone[1] = 4*
 16: 0x0409 [0x01] GOTO 0x045C
 17: 0x040C [0x02] IF !(Work_Zone[0] == 5*) GOTO 0x041C
 18: 0x0414 [0x03] Work_Zone[1] = 5*
 19: 0x0419 [0x01] GOTO 0x045C
 20: 0x041C [0x02] IF !(Work_Zone[0] == 6*) GOTO 0x042C
 21: 0x0424 [0x03] Work_Zone[1] = 6*
 22: 0x0429 [0x01] GOTO 0x045C
 23: 0x042C [0x02] IF !(Work_Zone[0] == 7*) GOTO 0x043C
 24: 0x0434 [0x03] Work_Zone[1] = 7*
 25: 0x0439 [0x01] GOTO 0x045C
 26: 0x043C [0x02] IF !(Work_Zone[0] == 8*) GOTO 0x044C
 27: 0x0444 [0x03] Work_Zone[1] = 8*
 28: 0x0449 [0x01] GOTO 0x045C
 29: 0x044C [0x02] IF !(Work_Zone[0] == 9*) GOTO 0x045C
 30: 0x0454 [0x03] Work_Zone[1] = 9*
 31: 0x0459 [0x01] GOTO 0x045C

SUBROUTINE_045C:
 32: 0x045C [0x21] END_EVENT
 33: 0x045D [0x00] END_REQSTACK()
```

### Event 65535.9

#### Metadata

| Field        | Value     |
|--------------|-----------|
| Entrypoint   | 0x045E    |
| Data Size    | 210 bytes |
| Instructions | 40        |

```
      00 01 02 03 04 05 06 07  08 09 0A 0B 0C 0D 0E 0F
      -- -- -- -- -- -- -- --  -- -- -- -- -- -- -- --
0450:                                            24 23                $#
0460: 80 01 80 01 80 25 02 00  10 01 80 00 78 04 29 0A  .....%......x.).
0470: 02 F0 0E 01 14 01 2C 05  02 00 10 02 80 00 8A 04  ......,.........
0480: 29 0A 02 F0 0E 01 16 01  2C 05 02 00 10 03 80 00  ).......,.......
0490: 9C 04 29 0A 02 F0 0E 01  15 01 2C 05 02 00 10 04  ..).......,.....
04A0: 80 00 AE 04 29 0A 02 F0  0E 01 0E 01 2C 05 02 00  ....).......,...
04B0: 10 05 80 00 C0 04 29 0A  02 F0 0E 01 17 01 2C 05  ......).......,.
04C0: 02 00 10 07 80 00 D2 04  29 0A 02 F0 0E 01 13 01  ........).......
04D0: 2C 05 02 00 10 09 80 00  E4 04 29 0A 02 F0 0E 01  ,.........).....
04E0: 10 01 2C 05 02 00 10 0C  80 00 F6 04 29 0A 02 F0  ..,.........)...
04F0: 0E 01 11 01 2C 05 02 00  10 0D 80 00 08 05 29 0A  ....,.........).
0500: 02 F0 0E 01 12 01 2C 05  02 00 10 0E 80 00 18 05  ......,.........
0510: 03 01 10 06 80 01 2C 05  02 00 10 0F 80 00 2C 05  ......,.......,.
0520: 1D 24 80 23 03 01 10 08  80 01 2C 05 20 00 21 00  .$.#......,. .!.
```

#### Opcodes

```
  0: 0x045E [0x24] CREATE_DIALOG(message_id=7975*, default_option=0*, option_flags=0*)
    → "GL$3N$3G$3X$3g$3U[TroutH [$6947437=$P14z$P12B<Player>uv/usi001:$3R$3b$3|$3 [L [O$P10Uv/$6029900H45v/$6750761L$P11!h$P15(v/uez001:$P14|$P10:LSusu$3$1v/uo001:$P10"$EIP$P10lE h="v/uh003:%_ [$2)gLDQ$P10:v/uh006:%B [`$pL$@1v/uh008:$P10^$P16i$6L$v"$ov/uo003:$0$P10_L\H45$6948976$P13xE`$o=1FI7i/$3N$3G$3X$3gFLAGL]reset]"
  1: 0x0465 [0x25] WAIT_DIALOG_SELECT()
  2: 0x0466 [0x02] IF !(Work_Zone[0] == 0*) GOTO 0x0478
  3: 0x046E [0x29] REQ_SET_WAIT(priority=0x0A, entity_id=DIRECTOR (ID: 17756162/0x010EF002), tag_num=0x14)
  4: 0x0475 [0x01] GOTO 0x052C
  5: 0x0478 [0x02] IF !(Work_Zone[0] == 1*) GOTO 0x048A
  6: 0x0480 [0x29] REQ_SET_WAIT(priority=0x0A, entity_id=DIRECTOR (ID: 17756162/0x010EF002), tag_num=0x16)
  7: 0x0487 [0x01] GOTO 0x052C
  8: 0x048A [0x02] IF !(Work_Zone[0] == 2*) GOTO 0x049C
  9: 0x0492 [0x29] REQ_SET_WAIT(priority=0x0A, entity_id=DIRECTOR (ID: 17756162/0x010EF002), tag_num=0x15)
 10: 0x0499 [0x01] GOTO 0x052C
 11: 0x049C [0x02] IF !(Work_Zone[0] == 3*) GOTO 0x04AE
 12: 0x04A4 [0x29] REQ_SET_WAIT(priority=0x0A, entity_id=DIRECTOR (ID: 17756162/0x010EF002), tag_num=0x0E)
 13: 0x04AB [0x01] GOTO 0x052C
 14: 0x04AE [0x02] IF !(Work_Zone[0] == 4*) GOTO 0x04C0
 15: 0x04B6 [0x29] REQ_SET_WAIT(priority=0x0A, entity_id=DIRECTOR (ID: 17756162/0x010EF002), tag_num=0x17)
 16: 0x04BD [0x01] GOTO 0x052C
 17: 0x04C0 [0x02] IF !(Work_Zone[0] == 5*) GOTO 0x04D2
 18: 0x04C8 [0x29] REQ_SET_WAIT(priority=0x0A, entity_id=DIRECTOR (ID: 17756162/0x010EF002), tag_num=0x13)
 19: 0x04CF [0x01] GOTO 0x052C
 20: 0x04D2 [0x02] IF !(Work_Zone[0] == 6*) GOTO 0x04E4
 21: 0x04DA [0x29] REQ_SET_WAIT(priority=0x0A, entity_id=DIRECTOR (ID: 17756162/0x010EF002), tag_num=0x10)
 22: 0x04E1 [0x01] GOTO 0x052C
 23: 0x04E4 [0x02] IF !(Work_Zone[0] == 7*) GOTO 0x04F6
 24: 0x04EC [0x29] REQ_SET_WAIT(priority=0x0A, entity_id=DIRECTOR (ID: 17756162/0x010EF002), tag_num=0x11)
 25: 0x04F3 [0x01] GOTO 0x052C
 26: 0x04F6 [0x02] IF !(Work_Zone[0] == 8*) GOTO 0x0508
 27: 0x04FE [0x29] REQ_SET_WAIT(priority=0x0A, entity_id=DIRECTOR (ID: 17756162/0x010EF002), tag_num=0x12)
 28: 0x0505 [0x01] GOTO 0x052C
 29: 0x0508 [0x02] IF !(Work_Zone[0] == 9*) GOTO 0x0518
 30: 0x0510 [0x03] Work_Zone[1] = 99*
 31: 0x0515 [0x01] GOTO 0x052C
 32: 0x0518 [0x02] IF !(Work_Zone[0] == 10*) GOTO 0x052C
 33: 0x0520 [0x1D] PRINT_EVENT_MESSAGE(message_id=6692*)
    → "Oh no! Your Adventurers' certificate vanished!"
 34: 0x0523 [0x23] WAIT_FOR_DIALOG_INTERACTION
 35: 0x0524 [0x03] Work_Zone[1] = 100*
 36: 0x0529 [0x01] GOTO 0x052C

SUBROUTINE_052C:
 37: 0x052C [0x20] SET_CLI_EVENT_UC_FLAG: Unlock player control
 38: 0x052E [0x21] END_EVENT
 39: 0x052F [0x00] END_REQSTACK()
```

### Event 65535.10

#### Metadata

| Field        | Value     |
|--------------|-----------|
| Entrypoint   | 0x0530    |
| Data Size    | 192 bytes |
| Instructions | 40        |

```
      00 01 02 03 04 05 06 07  08 09 0A 0B 0C 0D 0E 0F
      -- -- -- -- -- -- -- --  -- -- -- -- -- -- -- --
0530: 24 23 80 01 80 01 80 25  02 00 10 01 80 00 48 05  $#.....%......H.
0540: 03 01 10 25 80 01 EC 05  02 00 10 02 80 00 58 05  ...%..........X.
0550: 03 01 10 26 80 01 EC 05  02 00 10 03 80 00 68 05  ...&..........h.
0560: 03 01 10 27 80 01 EC 05  02 00 10 04 80 00 78 05  ...'..........x.
0570: 03 01 10 28 80 01 EC 05  02 00 10 05 80 00 88 05  ...(............
0580: 03 01 10 29 80 01 EC 05  02 00 10 07 80 00 98 05  ...)............
0590: 03 01 10 2A 80 01 EC 05  02 00 10 09 80 00 A8 05  ...*............
05A0: 03 01 10 2B 80 01 EC 05  02 00 10 0C 80 00 B8 05  ...+............
05B0: 03 01 10 2C 80 01 EC 05  02 00 10 0D 80 00 C8 05  ...,............
05C0: 03 01 10 2D 80 01 EC 05  02 00 10 0E 80 00 D8 05  ...-............
05D0: 03 01 10 06 80 01 EC 05  02 00 10 0F 80 00 EC 05  ................
05E0: 1D 24 80 23 03 01 10 08  80 01 EC 05 20 00 21 00  .$.#........ .!.
```

#### Opcodes

```
  0: 0x0530 [0x24] CREATE_DIALOG(message_id=7975*, default_option=0*, option_flags=0*)
    → "GL$3N$3G$3X$3g$3U[TroutH [$6947437=$P14z$P12B<Player>uv/usi001:$3R$3b$3|$3 [L [O$P10Uv/$6029900H45v/$6750761L$P11!h$P15(v/uez001:$P14|$P10:LSusu$3$1v/uo001:$P10"$EIP$P10lE h="v/uh003:%_ [$2)gLDQ$P10:v/uh006:%B [`$pL$@1v/uh008:$P10^$P16i$6L$v"$ov/uo003:$0$P10_L\H45$6948976$P13xE`$o=1FI7i/$3N$3G$3X$3gFLAGL]reset]"
  1: 0x0537 [0x25] WAIT_DIALOG_SELECT()
  2: 0x0538 [0x02] IF !(Work_Zone[0] == 0*) GOTO 0x0548
  3: 0x0540 [0x03] Work_Zone[1] = 305*
  4: 0x0545 [0x01] GOTO 0x05EC
  5: 0x0548 [0x02] IF !(Work_Zone[0] == 1*) GOTO 0x0558
  6: 0x0550 [0x03] Work_Zone[1] = 307*
  7: 0x0555 [0x01] GOTO 0x05EC
  8: 0x0558 [0x02] IF !(Work_Zone[0] == 2*) GOTO 0x0568
  9: 0x0560 [0x03] Work_Zone[1] = 306*
 10: 0x0565 [0x01] GOTO 0x05EC
 11: 0x0568 [0x02] IF !(Work_Zone[0] == 3*) GOTO 0x0578
 12: 0x0570 [0x03] Work_Zone[1] = 300*
 13: 0x0575 [0x01] GOTO 0x05EC
 14: 0x0578 [0x02] IF !(Work_Zone[0] == 4*) GOTO 0x0588
 15: 0x0580 [0x03] Work_Zone[1] = 308*
 16: 0x0585 [0x01] GOTO 0x05EC
 17: 0x0588 [0x02] IF !(Work_Zone[0] == 5*) GOTO 0x0598
 18: 0x0590 [0x03] Work_Zone[1] = 304*
 19: 0x0595 [0x01] GOTO 0x05EC
 20: 0x0598 [0x02] IF !(Work_Zone[0] == 6*) GOTO 0x05A8
 21: 0x05A0 [0x03] Work_Zone[1] = 301*
 22: 0x05A5 [0x01] GOTO 0x05EC
 23: 0x05A8 [0x02] IF !(Work_Zone[0] == 7*) GOTO 0x05B8
 24: 0x05B0 [0x03] Work_Zone[1] = 302*
 25: 0x05B5 [0x01] GOTO 0x05EC
 26: 0x05B8 [0x02] IF !(Work_Zone[0] == 8*) GOTO 0x05C8
 27: 0x05C0 [0x03] Work_Zone[1] = 303*
 28: 0x05C5 [0x01] GOTO 0x05EC
 29: 0x05C8 [0x02] IF !(Work_Zone[0] == 9*) GOTO 0x05D8
 30: 0x05D0 [0x03] Work_Zone[1] = 99*
 31: 0x05D5 [0x01] GOTO 0x05EC
 32: 0x05D8 [0x02] IF !(Work_Zone[0] == 10*) GOTO 0x05EC
 33: 0x05E0 [0x1D] PRINT_EVENT_MESSAGE(message_id=6692*)
    → "Oh no! Your Adventurers' certificate vanished!"
 34: 0x05E3 [0x23] WAIT_FOR_DIALOG_INTERACTION
 35: 0x05E4 [0x03] Work_Zone[1] = 100*
 36: 0x05E9 [0x01] GOTO 0x05EC

SUBROUTINE_05EC:
 37: 0x05EC [0x20] SET_CLI_EVENT_UC_FLAG: Unlock player control
 38: 0x05EE [0x21] END_EVENT
 39: 0x05EF [0x00] END_REQSTACK()
```

### Event 6

#### Metadata

| Field        | Value   |
|--------------|---------|
| Entrypoint   | 0x05F0  |
| Data Size    | 8 bytes |
| Instructions | 5       |

```
      00 01 02 03 04 05 06 07  08 09 0A 0B 0C 0D 0E 0F
      -- -- -- -- -- -- -- --  -- -- -- -- -- -- -- --
05F0: 1D 2E 80 23 20 00 21 00                           ...# .!.        
```

#### Opcodes

```
  0: 0x05F0 [0x1D] PRINT_EVENT_MESSAGE(message_id=6742*)
    → "$7p$hI$P13|j\5=><Player>"
  1: 0x05F3 [0x23] WAIT_FOR_DIALOG_INTERACTION
  2: 0x05F4 [0x20] SET_CLI_EVENT_UC_FLAG: Unlock player control
  3: 0x05F6 [0x21] END_EVENT
  4: 0x05F7 [0x00] END_REQSTACK()
```

### Event 65535.11

#### Metadata

| Field        | Value    |
|--------------|----------|
| Entrypoint   | 0x05F8   |
| Data Size    | 13 bytes |
| Instructions | 6        |

```
      00 01 02 03 04 05 06 07  08 09 0A 0B 0C 0D 0E 0F
      -- -- -- -- -- -- -- --  -- -- -- -- -- -- -- --
05F0:                          1D 24 80 23 03 01 10 08          .$.#....
0600: 80 20 00 21 00                                    . .!.           
```

#### Opcodes

```
  0: 0x05F8 [0x1D] PRINT_EVENT_MESSAGE(message_id=6692*)
    → "Oh no! Your Adventurers' certificate vanished!"
  1: 0x05FB [0x23] WAIT_FOR_DIALOG_INTERACTION
  2: 0x05FC [0x03] Work_Zone[1] = 100*
  3: 0x0601 [0x20] SET_CLI_EVENT_UC_FLAG: Unlock player control
  4: 0x0603 [0x21] END_EVENT
  5: 0x0604 [0x00] END_REQSTACK()
```

### Event 65535.12

#### Metadata

| Field        | Value     |
|--------------|-----------|
| Entrypoint   | 0x0605    |
| Data Size    | 147 bytes |
| Instructions | 30        |

```
      00 01 02 03 04 05 06 07  08 09 0A 0B 0C 0D 0E 0F
      -- -- -- -- -- -- -- --  -- -- -- -- -- -- -- --
0600:                24 2F 80  01 80 01 80 25 02 00 10       $/.....%...
0610: 01 80 00 24 06 29 09 F0  FF FF 7F 16 03 01 10 30  ...$.).........0
0620: 80 01 94 06 02 00 10 02  80 00 3B 06 29 09 F0 FF  ..........;.)...
0630: FF 7F 16 03 01 10 31 80  01 94 06 02 00 10 03 80  ......1.........
0640: 00 52 06 29 09 F0 FF FF  7F 16 03 01 10 32 80 01  .R.).........2..
0650: 94 06 02 00 10 04 80 00  69 06 29 09 02 F0 0E 01  ........i.).....
0660: 0F 03 01 10 33 80 01 94  06 02 00 10 05 80 00 80  ....3...........
0670: 06 29 09 F0 FF FF 7F 16  03 01 10 34 80 01 94 06  .).........4....
0680: 02 00 10 07 80 00 94 06  1D 24 80 23 03 01 10 08  .........$.#....
0690: 80 01 94 06 20 00 21 00                           .... .!.        
```

#### Opcodes

```
  0: 0x0605 [0x24] CREATE_DIALOG(message_id=7980*, default_option=0*, option_flags=0*)
    → "$3t$3$3O%'DiE$3U[TroutH [h001OK$3t$3$3O/h001START$3t$3$3O/h&$P10N$3998261$3t$3$3O/iroiro$@1$3t$3$3O/h001END$P12<c$3t$3$3O/$3N$3G$3X$3gFLAGL]reset]"
  1: 0x060C [0x25] WAIT_DIALOG_SELECT()
  2: 0x060D [0x02] IF !(Work_Zone[0] == 0*) GOTO 0x0624
  3: 0x0615 [0x29] REQ_SET_WAIT(priority=0x09, entity_id=LocalPlayer, tag_num=0x16)
  4: 0x061C [0x03] Work_Zone[1] = 11*
  5: 0x0621 [0x01] GOTO 0x0694
  6: 0x0624 [0x02] IF !(Work_Zone[0] == 1*) GOTO 0x063B
  7: 0x062C [0x29] REQ_SET_WAIT(priority=0x09, entity_id=LocalPlayer, tag_num=0x16)
  8: 0x0633 [0x03] Work_Zone[1] = 12*
  9: 0x0638 [0x01] GOTO 0x0694
 10: 0x063B [0x02] IF !(Work_Zone[0] == 2*) GOTO 0x0652
 11: 0x0643 [0x29] REQ_SET_WAIT(priority=0x09, entity_id=LocalPlayer, tag_num=0x16)
 12: 0x064A [0x03] Work_Zone[1] = 13*
 13: 0x064F [0x01] GOTO 0x0694
 14: 0x0652 [0x02] IF !(Work_Zone[0] == 3*) GOTO 0x0669
 15: 0x065A [0x29] REQ_SET_WAIT(priority=0x09, entity_id=DIRECTOR (ID: 17756162/0x010EF002), tag_num=0x0F)
 16: 0x0661 [0x03] Work_Zone[1] = 14*
 17: 0x0666 [0x01] GOTO 0x0694
 18: 0x0669 [0x02] IF !(Work_Zone[0] == 4*) GOTO 0x0680
 19: 0x0671 [0x29] REQ_SET_WAIT(priority=0x09, entity_id=LocalPlayer, tag_num=0x16)
 20: 0x0678 [0x03] Work_Zone[1] = 15*
 21: 0x067D [0x01] GOTO 0x0694
 22: 0x0680 [0x02] IF !(Work_Zone[0] == 5*) GOTO 0x0694
 23: 0x0688 [0x1D] PRINT_EVENT_MESSAGE(message_id=6692*)
    → "Oh no! Your Adventurers' certificate vanished!"
 24: 0x068B [0x23] WAIT_FOR_DIALOG_INTERACTION
 25: 0x068C [0x03] Work_Zone[1] = 100*
 26: 0x0691 [0x01] GOTO 0x0694

SUBROUTINE_0694:
 27: 0x0694 [0x20] SET_CLI_EVENT_UC_FLAG: Unlock player control
 28: 0x0696 [0x21] END_EVENT
 29: 0x0697 [0x00] END_REQSTACK()
```

### Event 65535.13

#### Metadata

| Field        | Value     |
|--------------|-----------|
| Entrypoint   | 0x0698    |
| Data Size    | 127 bytes |
| Instructions | 25        |

```
      00 01 02 03 04 05 06 07  08 09 0A 0B 0C 0D 0E 0F
      -- -- -- -- -- -- -- --  -- -- -- -- -- -- -- --
0690:                          24 35 80 01 80 01 80 25          $5.....%
06A0: 02 00 10 01 80 00 B7 06  29 09 F0 FF FF 7F 16 03  ........).......
06B0: 01 10 36 80 01 13 07 02  00 10 02 80 00 CE 06 29  ..6............)
06C0: 09 F0 FF FF 7F 16 03 01  10 37 80 01 13 07 02 00  .........7......
06D0: 10 03 80 00 E5 06 29 09  F0 FF FF 7F 16 03 01 10  ......).........
06E0: 38 80 01 13 07 02 00 10  04 80 00 FC 06 29 09 F0  8............)..
06F0: FF FF 7F 16 03 01 10 39  80 01 13 07 02 00 10 05  .......9........
0700: 80 00 13 07 29 09 F0 FF  FF 7F 16 03 01 10 3A 80  ....).........:.
0710: 01 13 07 20 00 21 00                              ... .!.         
```

#### Opcodes

```
  0: 0x0698 [0x24] CREATE_DIALOG(message_id=7981*, default_option=0*, option_flags=0*)
    → "$P10FX$@1$3t$3$3O>AD3B [@clear A001 with a loveletter/clear A001 without a loveletter/have a loveletter after A001 with l/have a loveletter after A001 without l/dont clear A001... but have a loveletter]"
  1: 0x069F [0x25] WAIT_DIALOG_SELECT()
  2: 0x06A0 [0x02] IF !(Work_Zone[0] == 0*) GOTO 0x06B7
  3: 0x06A8 [0x29] REQ_SET_WAIT(priority=0x09, entity_id=LocalPlayer, tag_num=0x16)
  4: 0x06AF [0x03] Work_Zone[1] = 250*
  5: 0x06B4 [0x01] GOTO 0x0713
  6: 0x06B7 [0x02] IF !(Work_Zone[0] == 1*) GOTO 0x06CE
  7: 0x06BF [0x29] REQ_SET_WAIT(priority=0x09, entity_id=LocalPlayer, tag_num=0x16)
  8: 0x06C6 [0x03] Work_Zone[1] = 251*
  9: 0x06CB [0x01] GOTO 0x0713
 10: 0x06CE [0x02] IF !(Work_Zone[0] == 2*) GOTO 0x06E5
 11: 0x06D6 [0x29] REQ_SET_WAIT(priority=0x09, entity_id=LocalPlayer, tag_num=0x16)
 12: 0x06DD [0x03] Work_Zone[1] = 252*
 13: 0x06E2 [0x01] GOTO 0x0713
 14: 0x06E5 [0x02] IF !(Work_Zone[0] == 3*) GOTO 0x06FC
 15: 0x06ED [0x29] REQ_SET_WAIT(priority=0x09, entity_id=LocalPlayer, tag_num=0x16)
 16: 0x06F4 [0x03] Work_Zone[1] = 253*
 17: 0x06F9 [0x01] GOTO 0x0713
 18: 0x06FC [0x02] IF !(Work_Zone[0] == 4*) GOTO 0x0713
 19: 0x0704 [0x29] REQ_SET_WAIT(priority=0x09, entity_id=LocalPlayer, tag_num=0x16)
 20: 0x070B [0x03] Work_Zone[1] = 254*
 21: 0x0710 [0x01] GOTO 0x0713

SUBROUTINE_0713:
 22: 0x0713 [0x20] SET_CLI_EVENT_UC_FLAG: Unlock player control
 23: 0x0715 [0x21] END_EVENT
 24: 0x0716 [0x00] END_REQSTACK()
```

### Event 65535.14

#### Metadata

| Field        | Value     |
|--------------|-----------|
| Entrypoint   | 0x0717    |
| Data Size    | 124 bytes |
| Instructions | 26        |

```
      00 01 02 03 04 05 06 07  08 09 0A 0B 0C 0D 0E 0F
      -- -- -- -- -- -- -- --  -- -- -- -- -- -- -- --
0710:                      24  3B 80 01 80 01 80 25 02         $;.....%.
0720: 00 10 01 80 00 36 07 29  09 F0 FF FF 7F 16 03 01  .....6.)........
0730: 10 3C 80 01 8F 07 02 00  10 02 80 00 4D 07 29 09  .<..........M.).
0740: F0 FF FF 7F 16 03 01 10  3D 80 01 8F 07 02 00 10  ........=.......
0750: 03 80 00 64 07 29 09 F0  FF FF 7F 16 03 01 10 3E  ...d.).........>
0760: 80 01 8F 07 02 00 10 04  80 00 7B 07 29 09 F0 FF  ..........{.)...
0770: FF 7F 16 03 01 10 3F 80  01 8F 07 02 00 10 05 80  ......?.........
0780: 00 8F 07 1D 24 80 23 03  01 10 08 80 01 8F 07 20  ....$.#........ 
0790: 00 21 00                                          .!.             
```

#### Opcodes

```
  0: 0x0717 [0x24] CREATE_DIALOG(message_id=7982*, default_option=0*, option_flags=0*)
    → "$3t$3$3O%'DiE$3U[TroutH [@h003OK$3t$3$3O/h003START$3t$3$3O/%;$P10N$3998261$3t$3$3O/h003END$P12<c$3t$3$3O/$3N$3G$3X$3gFLAGL]reset]"
  1: 0x071E [0x25] WAIT_DIALOG_SELECT()
  2: 0x071F [0x02] IF !(Work_Zone[0] == 0*) GOTO 0x0736
  3: 0x0727 [0x29] REQ_SET_WAIT(priority=0x09, entity_id=LocalPlayer, tag_num=0x16)
  4: 0x072E [0x03] Work_Zone[1] = 16*
  5: 0x0733 [0x01] GOTO 0x078F
  6: 0x0736 [0x02] IF !(Work_Zone[0] == 1*) GOTO 0x074D
  7: 0x073E [0x29] REQ_SET_WAIT(priority=0x09, entity_id=LocalPlayer, tag_num=0x16)
  8: 0x0745 [0x03] Work_Zone[1] = 17*
  9: 0x074A [0x01] GOTO 0x078F
 10: 0x074D [0x02] IF !(Work_Zone[0] == 2*) GOTO 0x0764
 11: 0x0755 [0x29] REQ_SET_WAIT(priority=0x09, entity_id=LocalPlayer, tag_num=0x16)
 12: 0x075C [0x03] Work_Zone[1] = 18*
 13: 0x0761 [0x01] GOTO 0x078F
 14: 0x0764 [0x02] IF !(Work_Zone[0] == 3*) GOTO 0x077B
 15: 0x076C [0x29] REQ_SET_WAIT(priority=0x09, entity_id=LocalPlayer, tag_num=0x16)
 16: 0x0773 [0x03] Work_Zone[1] = 19*
 17: 0x0778 [0x01] GOTO 0x078F
 18: 0x077B [0x02] IF !(Work_Zone[0] == 4*) GOTO 0x078F
 19: 0x0783 [0x1D] PRINT_EVENT_MESSAGE(message_id=6692*)
    → "Oh no! Your Adventurers' certificate vanished!"
 20: 0x0786 [0x23] WAIT_FOR_DIALOG_INTERACTION
 21: 0x0787 [0x03] Work_Zone[1] = 100*
 22: 0x078C [0x01] GOTO 0x078F

SUBROUTINE_078F:
 23: 0x078F [0x20] SET_CLI_EVENT_UC_FLAG: Unlock player control
 24: 0x0791 [0x21] END_EVENT
 25: 0x0792 [0x00] END_REQSTACK()
```

### Event 65535.15

#### Metadata

| Field        | Value     |
|--------------|-----------|
| Entrypoint   | 0x0793    |
| Data Size    | 147 bytes |
| Instructions | 30        |

```
      00 01 02 03 04 05 06 07  08 09 0A 0B 0C 0D 0E 0F
      -- -- -- -- -- -- -- --  -- -- -- -- -- -- -- --
0790:          24 40 80 01 80  01 80 25 02 00 10 01 80     $@.....%.....
07A0: 00 B2 07 29 09 F0 FF FF  7F 16 03 01 10 41 80 01  ...).........A..
07B0: 22 08 02 00 10 02 80 00  C9 07 29 09 F0 FF FF 7F  ".........).....
07C0: 16 03 01 10 42 80 01 22  08 02 00 10 03 80 00 E0  ....B.."........
07D0: 07 29 09 F0 FF FF 7F 16  03 01 10 43 80 01 22 08  .).........C..".
07E0: 02 00 10 04 80 00 F7 07  29 09 F0 FF FF 7F 16 03  ........).......
07F0: 01 10 44 80 01 22 08 02  00 10 05 80 00 0E 08 29  ..D..".........)
0800: 09 F0 FF FF 7F 16 03 01  10 45 80 01 22 08 02 00  .........E.."...
0810: 10 07 80 00 22 08 1D 24  80 23 03 01 10 08 80 01  ...."..$.#......
0820: 22 08 20 00 21 00                                 ". .!.          
```

#### Opcodes

```
  0: 0x0793 [0x24] CREATE_DIALOG(message_id=7983*, default_option=0*, option_flags=0*)
    → "$3t$3$3O%'DiE$3U[TroutH [@h006OK$3t$3$3O/h006START$3t$3$3O/%_$P156$3998261$3t$3$3O/$P16=n$3A$3C$3e$3 $P13n5=$3t$3$3O/END$P12<c$3t$3$3O/$3N$3G$3X$3gFLAGL]reset]"
  1: 0x079A [0x25] WAIT_DIALOG_SELECT()
  2: 0x079B [0x02] IF !(Work_Zone[0] == 0*) GOTO 0x07B2
  3: 0x07A3 [0x29] REQ_SET_WAIT(priority=0x09, entity_id=LocalPlayer, tag_num=0x16)
  4: 0x07AA [0x03] Work_Zone[1] = 20*
  5: 0x07AF [0x01] GOTO 0x0822
  6: 0x07B2 [0x02] IF !(Work_Zone[0] == 1*) GOTO 0x07C9
  7: 0x07BA [0x29] REQ_SET_WAIT(priority=0x09, entity_id=LocalPlayer, tag_num=0x16)
  8: 0x07C1 [0x03] Work_Zone[1] = 21*
  9: 0x07C6 [0x01] GOTO 0x0822
 10: 0x07C9 [0x02] IF !(Work_Zone[0] == 2*) GOTO 0x07E0
 11: 0x07D1 [0x29] REQ_SET_WAIT(priority=0x09, entity_id=LocalPlayer, tag_num=0x16)
 12: 0x07D8 [0x03] Work_Zone[1] = 22*
 13: 0x07DD [0x01] GOTO 0x0822
 14: 0x07E0 [0x02] IF !(Work_Zone[0] == 3*) GOTO 0x07F7
 15: 0x07E8 [0x29] REQ_SET_WAIT(priority=0x09, entity_id=LocalPlayer, tag_num=0x16)
 16: 0x07EF [0x03] Work_Zone[1] = 23*
 17: 0x07F4 [0x01] GOTO 0x0822
 18: 0x07F7 [0x02] IF !(Work_Zone[0] == 4*) GOTO 0x080E
 19: 0x07FF [0x29] REQ_SET_WAIT(priority=0x09, entity_id=LocalPlayer, tag_num=0x16)
 20: 0x0806 [0x03] Work_Zone[1] = 24*
 21: 0x080B [0x01] GOTO 0x0822
 22: 0x080E [0x02] IF !(Work_Zone[0] == 5*) GOTO 0x0822
 23: 0x0816 [0x1D] PRINT_EVENT_MESSAGE(message_id=6692*)
    → "Oh no! Your Adventurers' certificate vanished!"
 24: 0x0819 [0x23] WAIT_FOR_DIALOG_INTERACTION
 25: 0x081A [0x03] Work_Zone[1] = 100*
 26: 0x081F [0x01] GOTO 0x0822

SUBROUTINE_0822:
 27: 0x0822 [0x20] SET_CLI_EVENT_UC_FLAG: Unlock player control
 28: 0x0824 [0x21] END_EVENT
 29: 0x0825 [0x00] END_REQSTACK()
```

### Event 65535.16

#### Metadata

| Field        | Value     |
|--------------|-----------|
| Entrypoint   | 0x0826    |
| Data Size    | 124 bytes |
| Instructions | 26        |

```
      00 01 02 03 04 05 06 07  08 09 0A 0B 0C 0D 0E 0F
      -- -- -- -- -- -- -- --  -- -- -- -- -- -- -- --
0820:                   24 46  80 01 80 01 80 25 02 00        $F.....%..
0830: 10 01 80 00 45 08 29 09  F0 FF FF 7F 16 03 01 10  ....E.).........
0840: 47 80 01 9E 08 02 00 10  02 80 00 5C 08 29 09 F0  G..........\.)..
0850: FF FF 7F 16 03 01 10 48  80 01 9E 08 02 00 10 03  .......H........
0860: 80 00 73 08 29 09 F0 FF  FF 7F 16 03 01 10 49 80  ..s.).........I.
0870: 01 9E 08 02 00 10 04 80  00 8A 08 29 09 F0 FF FF  ...........)....
0880: 7F 16 03 01 10 4A 80 01  9E 08 02 00 10 05 80 00  .....J..........
0890: 9E 08 1D 24 80 23 03 01  10 08 80 01 9E 08 20 00  ...$.#........ .
08A0: 21 00                                             !.              
```

#### Opcodes

```
  0: 0x0826 [0x24] CREATE_DIALOG(message_id=7984*, default_option=0*, option_flags=0*)
    → "$3t$3$3O%'DiE$3U[TroutH [@h008OK$3t$3$3O/h008START$3t$3$3O/$;$3998261$3t$3$3O/h008END$P12<c$3t$3$3O/$3N$3G$3X$3gFLAGL]reset]"
  1: 0x082D [0x25] WAIT_DIALOG_SELECT()
  2: 0x082E [0x02] IF !(Work_Zone[0] == 0*) GOTO 0x0845
  3: 0x0836 [0x29] REQ_SET_WAIT(priority=0x09, entity_id=LocalPlayer, tag_num=0x16)
  4: 0x083D [0x03] Work_Zone[1] = 25*
  5: 0x0842 [0x01] GOTO 0x089E
  6: 0x0845 [0x02] IF !(Work_Zone[0] == 1*) GOTO 0x085C
  7: 0x084D [0x29] REQ_SET_WAIT(priority=0x09, entity_id=LocalPlayer, tag_num=0x16)
  8: 0x0854 [0x03] Work_Zone[1] = 26*
  9: 0x0859 [0x01] GOTO 0x089E
 10: 0x085C [0x02] IF !(Work_Zone[0] == 2*) GOTO 0x0873
 11: 0x0864 [0x29] REQ_SET_WAIT(priority=0x09, entity_id=LocalPlayer, tag_num=0x16)
 12: 0x086B [0x03] Work_Zone[1] = 27*
 13: 0x0870 [0x01] GOTO 0x089E
 14: 0x0873 [0x02] IF !(Work_Zone[0] == 3*) GOTO 0x088A
 15: 0x087B [0x29] REQ_SET_WAIT(priority=0x09, entity_id=LocalPlayer, tag_num=0x16)
 16: 0x0882 [0x03] Work_Zone[1] = 28*
 17: 0x0887 [0x01] GOTO 0x089E
 18: 0x088A [0x02] IF !(Work_Zone[0] == 4*) GOTO 0x089E
 19: 0x0892 [0x1D] PRINT_EVENT_MESSAGE(message_id=6692*)
    → "Oh no! Your Adventurers' certificate vanished!"
 20: 0x0895 [0x23] WAIT_FOR_DIALOG_INTERACTION
 21: 0x0896 [0x03] Work_Zone[1] = 100*
 22: 0x089B [0x01] GOTO 0x089E

SUBROUTINE_089E:
 23: 0x089E [0x20] SET_CLI_EVENT_UC_FLAG: Unlock player control
 24: 0x08A0 [0x21] END_EVENT
 25: 0x08A1 [0x00] END_REQSTACK()
```

### Event 65535.17

#### Metadata

| Field        | Value     |
|--------------|-----------|
| Entrypoint   | 0x08A2    |
| Data Size    | 112 bytes |
| Instructions | 25        |

```
      00 01 02 03 04 05 06 07  08 09 0A 0B 0C 0D 0E 0F
      -- -- -- -- -- -- -- --  -- -- -- -- -- -- -- --
08A0:       24 4B 80 01 80 01  80 25 02 00 10 01 80 00    $K.....%......
08B0: BA 08 03 01 10 4C 80 01  0E 09 02 00 10 02 80 00  .....L..........
08C0: CA 08 03 01 10 4D 80 01  0E 09 02 00 10 03 80 00  .....M..........
08D0: DA 08 03 01 10 4E 80 01  0E 09 02 00 10 04 80 00  .....N..........
08E0: EA 08 03 01 10 4F 80 01  0E 09 02 00 10 05 80 00  .....O..........
08F0: FA 08 03 01 10 50 80 01  0E 09 02 00 10 07 80 00  .....P..........
0900: 0E 09 1D 24 80 23 03 01  10 08 80 01 0E 09 20 00  ...$.#........ .
0910: 21 00                                             !.              
```

#### Opcodes

```
  0: 0x08A2 [0x24] CREATE_DIALOG(message_id=7985*, default_option=0*, option_flags=0*)
    → "$3t$3$3O%'DiE$3U[TroutH [@o001OK$3t$3$3O/o001START$3t$3$3Oi3$P10l$P16Z$6816317$3A$3C$3e$3 $3998261$3t$3$3O/$Oj$3A$3C$3e$3 $3998261$3t$3$3O/o001END$P12<c$3t$3$3O/$3N$3G$3X$3gFLAGL]reset]"
  1: 0x08A9 [0x25] WAIT_DIALOG_SELECT()
  2: 0x08AA [0x02] IF !(Work_Zone[0] == 0*) GOTO 0x08BA
  3: 0x08B2 [0x03] Work_Zone[1] = 30*
  4: 0x08B7 [0x01] GOTO 0x090E
  5: 0x08BA [0x02] IF !(Work_Zone[0] == 1*) GOTO 0x08CA
  6: 0x08C2 [0x03] Work_Zone[1] = 31*
  7: 0x08C7 [0x01] GOTO 0x090E
  8: 0x08CA [0x02] IF !(Work_Zone[0] == 2*) GOTO 0x08DA
  9: 0x08D2 [0x03] Work_Zone[1] = 32*
 10: 0x08D7 [0x01] GOTO 0x090E
 11: 0x08DA [0x02] IF !(Work_Zone[0] == 3*) GOTO 0x08EA
 12: 0x08E2 [0x03] Work_Zone[1] = 33*
 13: 0x08E7 [0x01] GOTO 0x090E
 14: 0x08EA [0x02] IF !(Work_Zone[0] == 4*) GOTO 0x08FA
 15: 0x08F2 [0x03] Work_Zone[1] = 34*
 16: 0x08F7 [0x01] GOTO 0x090E
 17: 0x08FA [0x02] IF !(Work_Zone[0] == 5*) GOTO 0x090E
 18: 0x0902 [0x1D] PRINT_EVENT_MESSAGE(message_id=6692*)
    → "Oh no! Your Adventurers' certificate vanished!"
 19: 0x0905 [0x23] WAIT_FOR_DIALOG_INTERACTION
 20: 0x0906 [0x03] Work_Zone[1] = 100*
 21: 0x090B [0x01] GOTO 0x090E

SUBROUTINE_090E:
 22: 0x090E [0x20] SET_CLI_EVENT_UC_FLAG: Unlock player control
 23: 0x0910 [0x21] END_EVENT
 24: 0x0911 [0x00] END_REQSTACK()
```

### Event 65535.18

#### Metadata

| Field        | Value     |
|--------------|-----------|
| Entrypoint   | 0x0912    |
| Data Size    | 170 bytes |
| Instructions | 34        |

```
      00 01 02 03 04 05 06 07  08 09 0A 0B 0C 0D 0E 0F
      -- -- -- -- -- -- -- --  -- -- -- -- -- -- -- --
0910:       24 51 80 01 80 01  80 25 02 00 10 01 80 00    $Q.....%......
0920: 31 09 29 09 F0 FF FF 7F  19 03 01 10 52 80 01 B8  1.).........R...
0930: 09 02 00 10 02 80 00 48  09 29 09 F0 FF FF 7F 19  .......H.)......
0940: 03 01 10 53 80 01 B8 09  02 00 10 03 80 00 5F 09  ...S.........._.
0950: 29 09 F0 FF FF 7F 19 03  01 10 54 80 01 B8 09 02  ).........T.....
0960: 00 10 04 80 00 76 09 29  09 F0 FF FF 7F 19 03 01  .....v.)........
0970: 10 55 80 01 B8 09 02 00  10 05 80 00 8D 09 29 09  .U............).
0980: F0 FF FF 7F 19 03 01 10  56 80 01 B8 09 02 00 10  ........V.......
0990: 07 80 00 A4 09 29 09 F0  FF FF 7F 19 03 01 10 57  .....).........W
09A0: 80 01 B8 09 02 00 10 09  80 00 B8 09 1D 24 80 23  .............$.#
09B0: 03 01 10 08 80 01 B8 09  20 00 21 00              ........ .!.    
```

#### Opcodes

```
  0: 0x0912 [0x24] CREATE_DIALOG(message_id=7986*, default_option=0*, option_flags=0*)
    → "$3t$3$3O%'DiE$3U[TroutH [@a001OK$3t$3$3O/a001START$3t$3$3O/$h$61$P12J$3998261$3t$3$3O/$h$62$3998261$3t$3$3O/$h$64$P12J$3998261$3t$3$3O/a001END$P12<c$3t$3$3O/$3N$3G$3X$3gFLAGL]reset]"
  1: 0x0919 [0x25] WAIT_DIALOG_SELECT()
  2: 0x091A [0x02] IF !(Work_Zone[0] == 0*) GOTO 0x0931
  3: 0x0922 [0x29] REQ_SET_WAIT(priority=0x09, entity_id=LocalPlayer, tag_num=0x19)
  4: 0x0929 [0x03] Work_Zone[1] = 35*
  5: 0x092E [0x01] GOTO 0x09B8
  6: 0x0931 [0x02] IF !(Work_Zone[0] == 1*) GOTO 0x0948
  7: 0x0939 [0x29] REQ_SET_WAIT(priority=0x09, entity_id=LocalPlayer, tag_num=0x19)
  8: 0x0940 [0x03] Work_Zone[1] = 36*
  9: 0x0945 [0x01] GOTO 0x09B8
 10: 0x0948 [0x02] IF !(Work_Zone[0] == 2*) GOTO 0x095F
 11: 0x0950 [0x29] REQ_SET_WAIT(priority=0x09, entity_id=LocalPlayer, tag_num=0x19)
 12: 0x0957 [0x03] Work_Zone[1] = 37*
 13: 0x095C [0x01] GOTO 0x09B8
 14: 0x095F [0x02] IF !(Work_Zone[0] == 3*) GOTO 0x0976
 15: 0x0967 [0x29] REQ_SET_WAIT(priority=0x09, entity_id=LocalPlayer, tag_num=0x19)
 16: 0x096E [0x03] Work_Zone[1] = 38*
 17: 0x0973 [0x01] GOTO 0x09B8
 18: 0x0976 [0x02] IF !(Work_Zone[0] == 4*) GOTO 0x098D
 19: 0x097E [0x29] REQ_SET_WAIT(priority=0x09, entity_id=LocalPlayer, tag_num=0x19)
 20: 0x0985 [0x03] Work_Zone[1] = 39*
 21: 0x098A [0x01] GOTO 0x09B8
 22: 0x098D [0x02] IF !(Work_Zone[0] == 5*) GOTO 0x09A4
 23: 0x0995 [0x29] REQ_SET_WAIT(priority=0x09, entity_id=LocalPlayer, tag_num=0x19)
 24: 0x099C [0x03] Work_Zone[1] = 40*
 25: 0x09A1 [0x01] GOTO 0x09B8
 26: 0x09A4 [0x02] IF !(Work_Zone[0] == 6*) GOTO 0x09B8
 27: 0x09AC [0x1D] PRINT_EVENT_MESSAGE(message_id=6692*)
    → "Oh no! Your Adventurers' certificate vanished!"
 28: 0x09AF [0x23] WAIT_FOR_DIALOG_INTERACTION
 29: 0x09B0 [0x03] Work_Zone[1] = 100*
 30: 0x09B5 [0x01] GOTO 0x09B8

SUBROUTINE_09B8:
 31: 0x09B8 [0x20] SET_CLI_EVENT_UC_FLAG: Unlock player control
 32: 0x09BA [0x21] END_EVENT
 33: 0x09BB [0x00] END_REQSTACK()
```

### Event 65535.19

#### Metadata

| Field        | Value     |
|--------------|-----------|
| Entrypoint   | 0x09BC    |
| Data Size    | 124 bytes |
| Instructions | 26        |

```
      00 01 02 03 04 05 06 07  08 09 0A 0B 0C 0D 0E 0F
      -- -- -- -- -- -- -- --  -- -- -- -- -- -- -- --
09B0:                                      24 58 80 01              $X..
09C0: 80 01 80 25 02 00 10 01  80 00 DB 09 29 09 F0 FF  ...%........)...
09D0: FF 7F 17 03 01 10 59 80  01 34 0A 02 00 10 02 80  ......Y..4......
09E0: 00 F2 09 29 09 F0 FF FF  7F 17 03 01 10 5A 80 01  ...).........Z..
09F0: 34 0A 02 00 10 03 80 00  09 0A 29 09 F0 FF FF 7F  4.........).....
0A00: 17 03 01 10 5B 80 01 34  0A 02 00 10 04 80 00 20  ....[..4....... 
0A10: 0A 29 09 F0 FF FF 7F 17  03 01 10 5C 80 01 34 0A  .).........\..4.
0A20: 02 00 10 05 80 00 34 0A  1D 24 80 23 03 01 10 08  ......4..$.#....
0A30: 80 01 34 0A 20 00 21 00                           ..4. .!.        
```

#### Opcodes

```
  0: 0x09BC [0x24] CREATE_DIALOG(message_id=7987*, default_option=0*, option_flags=0*)
    → "$3t$3$3O%'DiE$3U[TroutH [@o002OK$3t$3$3O/o002START$3t$3$3O/$3A$3C$3e$3 $hI$P13|j=$3t$3$3O/o002END$P12<c$3t$3$3O/$3N$3G$3X$3gFLAGL]reset]"
  1: 0x09C3 [0x25] WAIT_DIALOG_SELECT()
  2: 0x09C4 [0x02] IF !(Work_Zone[0] == 0*) GOTO 0x09DB
  3: 0x09CC [0x29] REQ_SET_WAIT(priority=0x09, entity_id=LocalPlayer, tag_num=0x17)
  4: 0x09D3 [0x03] Work_Zone[1] = 41*
  5: 0x09D8 [0x01] GOTO 0x0A34
  6: 0x09DB [0x02] IF !(Work_Zone[0] == 1*) GOTO 0x09F2
  7: 0x09E3 [0x29] REQ_SET_WAIT(priority=0x09, entity_id=LocalPlayer, tag_num=0x17)
  8: 0x09EA [0x03] Work_Zone[1] = 42*
  9: 0x09EF [0x01] GOTO 0x0A34
 10: 0x09F2 [0x02] IF !(Work_Zone[0] == 2*) GOTO 0x0A09
 11: 0x09FA [0x29] REQ_SET_WAIT(priority=0x09, entity_id=LocalPlayer, tag_num=0x17)
 12: 0x0A01 [0x03] Work_Zone[1] = 43*
 13: 0x0A06 [0x01] GOTO 0x0A34
 14: 0x0A09 [0x02] IF !(Work_Zone[0] == 3*) GOTO 0x0A20
 15: 0x0A11 [0x29] REQ_SET_WAIT(priority=0x09, entity_id=LocalPlayer, tag_num=0x17)
 16: 0x0A18 [0x03] Work_Zone[1] = 44*
 17: 0x0A1D [0x01] GOTO 0x0A34
 18: 0x0A20 [0x02] IF !(Work_Zone[0] == 4*) GOTO 0x0A34
 19: 0x0A28 [0x1D] PRINT_EVENT_MESSAGE(message_id=6692*)
    → "Oh no! Your Adventurers' certificate vanished!"
 20: 0x0A2B [0x23] WAIT_FOR_DIALOG_INTERACTION
 21: 0x0A2C [0x03] Work_Zone[1] = 100*
 22: 0x0A31 [0x01] GOTO 0x0A34

SUBROUTINE_0A34:
 23: 0x0A34 [0x20] SET_CLI_EVENT_UC_FLAG: Unlock player control
 24: 0x0A36 [0x21] END_EVENT
 25: 0x0A37 [0x00] END_REQSTACK()
```

### Event 65535.20

#### Metadata

| Field        | Value     |
|--------------|-----------|
| Entrypoint   | 0x0A38    |
| Data Size    | 193 bytes |
| Instructions | 38        |

```
      00 01 02 03 04 05 06 07  08 09 0A 0B 0C 0D 0E 0F
      -- -- -- -- -- -- -- --  -- -- -- -- -- -- -- --
0A30:                          24 5D 80 01 80 01 80 25          $].....%
0A40: 02 00 10 01 80 00 57 0A  29 09 F0 FF FF 7F 1C 03  ......W.).......
0A50: 01 10 5E 80 01 F5 0A 02  00 10 02 80 00 6E 0A 29  ..^..........n.)
0A60: 09 F0 FF FF 7F 1C 03 01  10 5F 80 01 F5 0A 02 00  ........._......
0A70: 10 03 80 00 85 0A 29 09  F0 FF FF 7F 1C 03 01 10  ......).........
0A80: 60 80 01 F5 0A 02 00 10  04 80 00 9C 0A 29 09 F0  `............)..
0A90: FF FF 7F 1C 03 01 10 61  80 01 F5 0A 02 00 10 05  .......a........
0AA0: 80 00 B3 0A 29 09 F0 FF  FF 7F 1C 03 01 10 62 80  ....).........b.
0AB0: 01 F5 0A 02 00 10 07 80  00 CA 0A 29 09 F0 FF FF  ...........)....
0AC0: 7F 1C 03 01 10 63 80 01  F5 0A 02 00 10 09 80 00  .....c..........
0AD0: E1 0A 29 09 F0 FF FF 7F  1C 03 01 10 64 80 01 F5  ..).........d...
0AE0: 0A 02 00 10 0C 80 00 F5  0A 1D 24 80 23 03 01 10  ..........$.#...
0AF0: 08 80 01 F5 0A 20 00 21  00                       ..... .!.       
```

#### Opcodes

```
  0: 0x0A38 [0x24] CREATE_DIALOG(message_id=7988*, default_option=0*, option_flags=0*)
    → "$3t$3$3O%'DiE$3U[TroutH [@si001OK$3t$3$3O/si001START$3t$3$3O/$3A$3C$3e$3 1$P13|$h$3t$3$3O/$3A$3C$3e$3 2$P13|$h$3t$3$3O/$3A$3C$3e$3 3$P13|$h$3t$3$3O/$3A$3C$3e$3 4$P13|$h$3t$3$3O/si001END$P12<c$3t$3$3O/$3N$3G$3X$3gFLAGL]reset]"
  1: 0x0A3F [0x25] WAIT_DIALOG_SELECT()
  2: 0x0A40 [0x02] IF !(Work_Zone[0] == 0*) GOTO 0x0A57
  3: 0x0A48 [0x29] REQ_SET_WAIT(priority=0x09, entity_id=LocalPlayer, tag_num=0x1C)
  4: 0x0A4F [0x03] Work_Zone[1] = 45*
  5: 0x0A54 [0x01] GOTO 0x0AF5
  6: 0x0A57 [0x02] IF !(Work_Zone[0] == 1*) GOTO 0x0A6E
  7: 0x0A5F [0x29] REQ_SET_WAIT(priority=0x09, entity_id=LocalPlayer, tag_num=0x1C)
  8: 0x0A66 [0x03] Work_Zone[1] = 46*
  9: 0x0A6B [0x01] GOTO 0x0AF5
 10: 0x0A6E [0x02] IF !(Work_Zone[0] == 2*) GOTO 0x0A85
 11: 0x0A76 [0x29] REQ_SET_WAIT(priority=0x09, entity_id=LocalPlayer, tag_num=0x1C)
 12: 0x0A7D [0x03] Work_Zone[1] = 47*
 13: 0x0A82 [0x01] GOTO 0x0AF5
 14: 0x0A85 [0x02] IF !(Work_Zone[0] == 3*) GOTO 0x0A9C
 15: 0x0A8D [0x29] REQ_SET_WAIT(priority=0x09, entity_id=LocalPlayer, tag_num=0x1C)
 16: 0x0A94 [0x03] Work_Zone[1] = 48*
 17: 0x0A99 [0x01] GOTO 0x0AF5
 18: 0x0A9C [0x02] IF !(Work_Zone[0] == 4*) GOTO 0x0AB3
 19: 0x0AA4 [0x29] REQ_SET_WAIT(priority=0x09, entity_id=LocalPlayer, tag_num=0x1C)
 20: 0x0AAB [0x03] Work_Zone[1] = 49*
 21: 0x0AB0 [0x01] GOTO 0x0AF5
 22: 0x0AB3 [0x02] IF !(Work_Zone[0] == 5*) GOTO 0x0ACA
 23: 0x0ABB [0x29] REQ_SET_WAIT(priority=0x09, entity_id=LocalPlayer, tag_num=0x1C)
 24: 0x0AC2 [0x03] Work_Zone[1] = 50*
 25: 0x0AC7 [0x01] GOTO 0x0AF5
 26: 0x0ACA [0x02] IF !(Work_Zone[0] == 6*) GOTO 0x0AE1
 27: 0x0AD2 [0x29] REQ_SET_WAIT(priority=0x09, entity_id=LocalPlayer, tag_num=0x1C)
 28: 0x0AD9 [0x03] Work_Zone[1] = 51*
 29: 0x0ADE [0x01] GOTO 0x0AF5
 30: 0x0AE1 [0x02] IF !(Work_Zone[0] == 7*) GOTO 0x0AF5
 31: 0x0AE9 [0x1D] PRINT_EVENT_MESSAGE(message_id=6692*)
    → "Oh no! Your Adventurers' certificate vanished!"
 32: 0x0AEC [0x23] WAIT_FOR_DIALOG_INTERACTION
 33: 0x0AED [0x03] Work_Zone[1] = 100*
 34: 0x0AF2 [0x01] GOTO 0x0AF5

SUBROUTINE_0AF5:
 35: 0x0AF5 [0x20] SET_CLI_EVENT_UC_FLAG: Unlock player control
 36: 0x0AF7 [0x21] END_EVENT
 37: 0x0AF8 [0x00] END_REQSTACK()
```

### Event 65535.21

#### Metadata

| Field        | Value     |
|--------------|-----------|
| Entrypoint   | 0x0AF9    |
| Data Size    | 193 bytes |
| Instructions | 38        |

```
      00 01 02 03 04 05 06 07  08 09 0A 0B 0C 0D 0E 0F
      -- -- -- -- -- -- -- --  -- -- -- -- -- -- -- --
0AF0:                             24 65 80 01 80 01 80           $e.....
0B00: 25 02 00 10 01 80 00 18  0B 29 09 F0 FF FF 7F 1D  %........)......
0B10: 03 01 10 66 80 01 B6 0B  02 00 10 02 80 00 2F 0B  ...f........../.
0B20: 29 09 F0 FF FF 7F 1D 03  01 10 67 80 01 B6 0B 02  ).........g.....
0B30: 00 10 03 80 00 46 0B 29  09 F0 FF FF 7F 1D 03 01  .....F.)........
0B40: 10 68 80 01 B6 0B 02 00  10 04 80 00 5D 0B 29 09  .h..........].).
0B50: F0 FF FF 7F 1D 03 01 10  69 80 01 B6 0B 02 00 10  ........i.......
0B60: 05 80 00 74 0B 29 09 F0  FF FF 7F 1D 03 01 10 6A  ...t.).........j
0B70: 80 01 B6 0B 02 00 10 07  80 00 8B 0B 29 09 F0 FF  ............)...
0B80: FF 7F 1D 03 01 10 6B 80  01 B6 0B 02 00 10 09 80  ......k.........
0B90: 00 A2 0B 29 09 F0 FF FF  7F 1D 03 01 10 6C 80 01  ...).........l..
0BA0: B6 0B 02 00 10 0C 80 00  B6 0B 1D 24 80 23 03 01  ...........$.#..
0BB0: 10 08 80 01 B6 0B 20 00  21 00                    ...... .!.      
```

#### Opcodes

```
  0: 0x0AF9 [0x24] CREATE_DIALOG(message_id=7989*, default_option=0*, option_flags=0*)
    → "$3t$3$3O%'DiE$3U[TroutH [@ez001OK$3t$3$3O/ez001START$3t$3$3O/$3n$3`$3~$3c1B 0=/$3n$3`$3~$3c$P11fQ$P12i$K/$3n$3`$3~$3c$P11fR$P12i$K/$3n$3`$3~$3c$Ec\E 0=/ez001END$P12<c$3t$3$3O/$3N$3G$3X$3gFLAGL]reset]"
  1: 0x0B00 [0x25] WAIT_DIALOG_SELECT()
  2: 0x0B01 [0x02] IF !(Work_Zone[0] == 0*) GOTO 0x0B18
  3: 0x0B09 [0x29] REQ_SET_WAIT(priority=0x09, entity_id=LocalPlayer, tag_num=0x1D)
  4: 0x0B10 [0x03] Work_Zone[1] = 52*
  5: 0x0B15 [0x01] GOTO 0x0BB6
  6: 0x0B18 [0x02] IF !(Work_Zone[0] == 1*) GOTO 0x0B2F
  7: 0x0B20 [0x29] REQ_SET_WAIT(priority=0x09, entity_id=LocalPlayer, tag_num=0x1D)
  8: 0x0B27 [0x03] Work_Zone[1] = 53*
  9: 0x0B2C [0x01] GOTO 0x0BB6
 10: 0x0B2F [0x02] IF !(Work_Zone[0] == 2*) GOTO 0x0B46
 11: 0x0B37 [0x29] REQ_SET_WAIT(priority=0x09, entity_id=LocalPlayer, tag_num=0x1D)
 12: 0x0B3E [0x03] Work_Zone[1] = 54*
 13: 0x0B43 [0x01] GOTO 0x0BB6
 14: 0x0B46 [0x02] IF !(Work_Zone[0] == 3*) GOTO 0x0B5D
 15: 0x0B4E [0x29] REQ_SET_WAIT(priority=0x09, entity_id=LocalPlayer, tag_num=0x1D)
 16: 0x0B55 [0x03] Work_Zone[1] = 55*
 17: 0x0B5A [0x01] GOTO 0x0BB6
 18: 0x0B5D [0x02] IF !(Work_Zone[0] == 4*) GOTO 0x0B74
 19: 0x0B65 [0x29] REQ_SET_WAIT(priority=0x09, entity_id=LocalPlayer, tag_num=0x1D)
 20: 0x0B6C [0x03] Work_Zone[1] = 56*
 21: 0x0B71 [0x01] GOTO 0x0BB6
 22: 0x0B74 [0x02] IF !(Work_Zone[0] == 5*) GOTO 0x0B8B
 23: 0x0B7C [0x29] REQ_SET_WAIT(priority=0x09, entity_id=LocalPlayer, tag_num=0x1D)
 24: 0x0B83 [0x03] Work_Zone[1] = 57*
 25: 0x0B88 [0x01] GOTO 0x0BB6
 26: 0x0B8B [0x02] IF !(Work_Zone[0] == 6*) GOTO 0x0BA2
 27: 0x0B93 [0x29] REQ_SET_WAIT(priority=0x09, entity_id=LocalPlayer, tag_num=0x1D)
 28: 0x0B9A [0x03] Work_Zone[1] = 58*
 29: 0x0B9F [0x01] GOTO 0x0BB6
 30: 0x0BA2 [0x02] IF !(Work_Zone[0] == 7*) GOTO 0x0BB6
 31: 0x0BAA [0x1D] PRINT_EVENT_MESSAGE(message_id=6692*)
    → "Oh no! Your Adventurers' certificate vanished!"
 32: 0x0BAD [0x23] WAIT_FOR_DIALOG_INTERACTION
 33: 0x0BAE [0x03] Work_Zone[1] = 100*
 34: 0x0BB3 [0x01] GOTO 0x0BB6

SUBROUTINE_0BB6:
 35: 0x0BB6 [0x20] SET_CLI_EVENT_UC_FLAG: Unlock player control
 36: 0x0BB8 [0x21] END_EVENT
 37: 0x0BB9 [0x00] END_REQSTACK()
```

### Event 65535.22

#### Metadata

| Field        | Value     |
|--------------|-----------|
| Entrypoint   | 0x0BBA    |
| Data Size    | 124 bytes |
| Instructions | 26        |

```
      00 01 02 03 04 05 06 07  08 09 0A 0B 0C 0D 0E 0F
      -- -- -- -- -- -- -- --  -- -- -- -- -- -- -- --
0BB0:                                24 6D 80 01 80 01            $m....
0BC0: 80 25 02 00 10 01 80 00  D9 0B 29 09 F0 FF FF 7F  .%........).....
0BD0: 17 03 01 10 6E 80 01 32  0C 02 00 10 02 80 00 F0  ....n..2........
0BE0: 0B 29 09 F0 FF FF 7F 17  03 01 10 6F 80 01 32 0C  .).........o..2.
0BF0: 02 00 10 03 80 00 07 0C  29 09 F0 FF FF 7F 17 03  ........).......
0C00: 01 10 70 80 01 32 0C 02  00 10 04 80 00 1E 0C 29  ..p..2.........)
0C10: 09 F0 FF FF 7F 17 03 01  10 71 80 01 32 0C 02 00  .........q..2...
0C20: 10 05 80 00 32 0C 1D 24  80 23 03 01 10 08 80 01  ....2..$.#......
0C30: 32 0C 20 00 21 00                                 2. .!.          
```

#### Opcodes

```
  0: 0x0BBA [0x24] CREATE_DIALOG(message_id=7990*, default_option=0*, option_flags=0*)
    → "$3t$3$3O%'DiE$3U[TroutH [@o003OK$3t$3$3O/o003START$3t$3$3O/$3A$3C$3e$3 $3Q$3b$3g/o003END$P12<c$3t$3$3O/$3N$3G$3X$3gFLAGL]reset]"
  1: 0x0BC1 [0x25] WAIT_DIALOG_SELECT()
  2: 0x0BC2 [0x02] IF !(Work_Zone[0] == 0*) GOTO 0x0BD9
  3: 0x0BCA [0x29] REQ_SET_WAIT(priority=0x09, entity_id=LocalPlayer, tag_num=0x17)
  4: 0x0BD1 [0x03] Work_Zone[1] = 59*
  5: 0x0BD6 [0x01] GOTO 0x0C32
  6: 0x0BD9 [0x02] IF !(Work_Zone[0] == 1*) GOTO 0x0BF0
  7: 0x0BE1 [0x29] REQ_SET_WAIT(priority=0x09, entity_id=LocalPlayer, tag_num=0x17)
  8: 0x0BE8 [0x03] Work_Zone[1] = 60*
  9: 0x0BED [0x01] GOTO 0x0C32
 10: 0x0BF0 [0x02] IF !(Work_Zone[0] == 2*) GOTO 0x0C07
 11: 0x0BF8 [0x29] REQ_SET_WAIT(priority=0x09, entity_id=LocalPlayer, tag_num=0x17)
 12: 0x0BFF [0x03] Work_Zone[1] = 61*
 13: 0x0C04 [0x01] GOTO 0x0C32
 14: 0x0C07 [0x02] IF !(Work_Zone[0] == 3*) GOTO 0x0C1E
 15: 0x0C0F [0x29] REQ_SET_WAIT(priority=0x09, entity_id=LocalPlayer, tag_num=0x17)
 16: 0x0C16 [0x03] Work_Zone[1] = 62*
 17: 0x0C1B [0x01] GOTO 0x0C32
 18: 0x0C1E [0x02] IF !(Work_Zone[0] == 4*) GOTO 0x0C32
 19: 0x0C26 [0x1D] PRINT_EVENT_MESSAGE(message_id=6692*)
    → "Oh no! Your Adventurers' certificate vanished!"
 20: 0x0C29 [0x23] WAIT_FOR_DIALOG_INTERACTION
 21: 0x0C2A [0x03] Work_Zone[1] = 100*
 22: 0x0C2F [0x01] GOTO 0x0C32

SUBROUTINE_0C32:
 23: 0x0C32 [0x20] SET_CLI_EVENT_UC_FLAG: Unlock player control
 24: 0x0C34 [0x21] END_EVENT
 25: 0x0C35 [0x00] END_REQSTACK()
```

### Event 65535.23

#### Metadata

| Field        | Value    |
|--------------|----------|
| Entrypoint   | 0x0C36   |
| Data Size    | 60 bytes |
| Instructions | 14       |

```
      00 01 02 03 04 05 06 07  08 09 0A 0B 0C 0D 0E 0F
      -- -- -- -- -- -- -- --  -- -- -- -- -- -- -- --
0C30:                   24 72  80 01 80 01 80 25 02 00        $r.....%..
0C40: 10 01 80 00 4E 0C 03 01  10 73 80 01 6E 0C 02 00  ....N....s..n...
0C50: 10 02 80 00 5E 0C 03 01  10 74 80 01 6E 0C 02 00  ....^....t..n...
0C60: 10 03 80 00 6E 0C 03 01  10 75 80 01 6E 0C 20 00  ....n....u..n. .
0C70: 21 00                                             !.              
```

#### Opcodes

```
  0: 0x0C36 [0x24] CREATE_DIALOG(message_id=6713*, default_option=0*, option_flags=0*)
    → "$P122$8n [@$n$P16{n/$3~$3b$3V$3/$3$12n/$3][$3$3t$3$3On]"
  1: 0x0C3D [0x25] WAIT_DIALOG_SELECT()
  2: 0x0C3E [0x02] IF !(Work_Zone[0] == 0*) GOTO 0x0C4E
  3: 0x0C46 [0x03] Work_Zone[1] = 96*
  4: 0x0C4B [0x01] GOTO 0x0C6E
  5: 0x0C4E [0x02] IF !(Work_Zone[0] == 1*) GOTO 0x0C5E
  6: 0x0C56 [0x03] Work_Zone[1] = 97*
  7: 0x0C5B [0x01] GOTO 0x0C6E
  8: 0x0C5E [0x02] IF !(Work_Zone[0] == 2*) GOTO 0x0C6E
  9: 0x0C66 [0x03] Work_Zone[1] = 98*
 10: 0x0C6B [0x01] GOTO 0x0C6E

SUBROUTINE_0C6E:
 11: 0x0C6E [0x20] SET_CLI_EVENT_UC_FLAG: Unlock player control
 12: 0x0C70 [0x21] END_EVENT
 13: 0x0C71 [0x00] END_REQSTACK()
```

### Event 21

#### Metadata

| Field        | Value   |
|--------------|---------|
| Entrypoint   | 0x0C72  |
| Data Size    | 8 bytes |
| Instructions | 5       |

```
      00 01 02 03 04 05 06 07  08 09 0A 0B 0C 0D 0E 0F
      -- -- -- -- -- -- -- --  -- -- -- -- -- -- -- --
0C70:       1D 76 80 23 20 00  21 00                      .v.# .!.      
```

#### Opcodes

```
  0: 0x0C72 [0x1D] PRINT_EVENT_MESSAGE(message_id=6714*)
    → "U_START_WS_QSM$0@U_END_WS_QSM$1 U_SPECIAL_FLAGM$2@U_SPECIAL_FLAG2M$3 U_SPECIAL_BIT(2)M$4$330317 U_RANK_LEVEL_WSM$6@U_FAME_WS_COMMONM$7"
  1: 0x0C75 [0x23] WAIT_FOR_DIALOG_INTERACTION
  2: 0x0C76 [0x20] SET_CLI_EVENT_UC_FLAG: Unlock player control
  3: 0x0C78 [0x21] END_EVENT
  4: 0x0C79 [0x00] END_REQSTACK()
```

### Event 22

#### Metadata

| Field        | Value   |
|--------------|---------|
| Entrypoint   | 0x0C7A  |
| Data Size    | 8 bytes |
| Instructions | 5       |

```
      00 01 02 03 04 05 06 07  08 09 0A 0B 0C 0D 0E 0F
      -- -- -- -- -- -- -- --  -- -- -- -- -- -- -- --
0C70:                                1D 77 80 23 20 00            .w.# .
0C80: 21 00                                             !.              
```

#### Opcodes

```
  0: 0x0C7A [0x1D] PRINT_EVENT_MESSAGE(message_id=6715*)
    → "U_MS_STARTM$0@U_END_WS_MSM$1 U_RANK_POINT_WSM$2@U_MS_COUNTERM$3 U_WS_FLAGSM$4@U_SPECIAL_FLAGM$5 U_RANK_LEVEL_WSM$6@U_FAME_WS_COMMONM$7"
  1: 0x0C7D [0x23] WAIT_FOR_DIALOG_INTERACTION
  2: 0x0C7E [0x20] SET_CLI_EVENT_UC_FLAG: Unlock player control
  3: 0x0C80 [0x21] END_EVENT
  4: 0x0C81 [0x00] END_REQSTACK()
```

### Event 23

#### Metadata

| Field        | Value   |
|--------------|---------|
| Entrypoint   | 0x0C82  |
| Data Size    | 8 bytes |
| Instructions | 5       |

```
      00 01 02 03 04 05 06 07  08 09 0A 0B 0C 0D 0E 0F
      -- -- -- -- -- -- -- --  -- -- -- -- -- -- -- --
0C80:       1D 78 80 23 20 00  21 00                      .x.# .!.      
```

#### Opcodes

```
  0: 0x0C82 [0x1D] PRINT_EVENT_MESSAGE(message_id=6716*)
    → "Z_ipc_id01M$0@Z_ipc_id02M$1 Z_ipc_id03M$2@Z_ipc_id04M$3 Z_ipc_id05M$4@Z_ipc_id06M$5 Z_ipc_id07M$6@Z_ANG_time01M$7"
  1: 0x0C85 [0x23] WAIT_FOR_DIALOG_INTERACTION
  2: 0x0C86 [0x20] SET_CLI_EVENT_UC_FLAG: Unlock player control
  3: 0x0C88 [0x21] END_EVENT
  4: 0x0C89 [0x00] END_REQSTACK()
```

### Event 65535.24

#### Metadata

| Field        | Value   |
|--------------|---------|
| Entrypoint   | 0x0C8A  |
| Data Size    | 9 bytes |
| Instructions | 4       |

```
      00 01 02 03 04 05 06 07  08 09 0A 0B 0C 0D 0E 0F
      -- -- -- -- -- -- -- --  -- -- -- -- -- -- -- --
0C80:                                03 01 10 79 80 20            ...y. 
0C90: 00 21 00                                          .!.             
```

#### Opcodes

```
  0: 0x0C8A [0x03] Work_Zone[1] = 255*
  1: 0x0C8F [0x20] SET_CLI_EVENT_UC_FLAG: Unlock player control
  2: 0x0C91 [0x21] END_EVENT
  3: 0x0C92 [0x00] END_REQSTACK()
```

### Event 65535.25

#### Metadata

| Field        | Value   |
|--------------|---------|
| Entrypoint   | 0x0C93  |
| Data Size    | 9 bytes |
| Instructions | 4       |

```
      00 01 02 03 04 05 06 07  08 09 0A 0B 0C 0D 0E 0F
      -- -- -- -- -- -- -- --  -- -- -- -- -- -- -- --
0C90:          03 01 10 7A 80  20 00 21 00                 ...z. .!.    
```

#### Opcodes

```
  0: 0x0C93 [0x03] Work_Zone[1] = 256*
  1: 0x0C98 [0x20] SET_CLI_EVENT_UC_FLAG: Unlock player control
  2: 0x0C9A [0x21] END_EVENT
  3: 0x0C9B [0x00] END_REQSTACK()
```
