# 17756341 - 8

## Common Data

| Field            | Value                    |
|------------------|--------------------------|
| Zone             | Windurst Walls (ID: 239) |
| Block Size       | 412 bytes                |
| Total Events     | 16                       |
| References Count | 12                       |

## List of Events

| Event ID                   | Entrypoint   |   Size |   Instructions |
|----------------------------|--------------|--------|----------------|
| [65535](#event-65535)      | 0x0000       |      1 |              1 |
| [514](#event-514)          | 0x0001       |      1 |              1 |
| [65535.1](#event-655351)   | 0x0002       |      2 |              2 |
| [65535.2](#event-655352)   | 0x0004       |     37 |              6 |
| [65535.3](#event-655353)   | 0x0029       |     17 |              5 |
| [65535.4](#event-655354)   | 0x003A       |     43 |              6 |
| [65535.5](#event-655355)   | 0x0065       |     19 |              3 |
| [65535.6](#event-655356)   | 0x0078       |     16 |              2 |
| [65535.7](#event-655357)   | 0x0088       |     19 |              3 |
| [65535.8](#event-655358)   | 0x009B       |     19 |              3 |
| [65535.9](#event-655359)   | 0x00AE       |     33 |              4 |
| [65535.10](#event-6553510) | 0x00CF       |     10 |              2 |
| [65535.11](#event-6553511) | 0x00D9       |     10 |              2 |
| [65535.12](#event-6553512) | 0x00E3       |     18 |              2 |
| [65535.13](#event-6553513) | 0x00F5       |     18 |              2 |
| [65535.14](#event-6553514) | 0x0107       |     18 |              2 |

## DAT References (imed_data)

|   Index | Hex Value   |   Dec Value |
|---------|-------------|-------------|
|       0 | 0x0005      |           5 |
|       1 | 0x001D      |          29 |
|       2 | 0x0013      |          19 |
|       3 | 0x0000      |           0 |
|       4 | 0x0001      |           1 |
|       5 | 0x0028      |          40 |
|       6 | 0x000F      |          15 |
|       7 | 0x0ADA      |        2778 |
|       8 | 0x0050      |          80 |
|       9 | 0x006F      |         111 |
|      10 | 0x0080      |         128 |
|      11 | 0x00B4      |         180 |

## Events

### Event 65535

#### Metadata

| Field        | Value   |
|--------------|---------|
| Entrypoint   | 0x0000  |
| Data Size    | 1 bytes |
| Instructions | 1       |

```
      00 01 02 03 04 05 06 07  08 09 0A 0B 0C 0D 0E 0F
      -- -- -- -- -- -- -- --  -- -- -- -- -- -- -- --
0000: 00                                                .               
```

#### Opcodes

```
  0: 0x0000 [0x00] END_REQSTACK()
```

### Event 514

#### Metadata

| Field        | Value   |
|--------------|---------|
| Entrypoint   | 0x0001  |
| Data Size    | 1 bytes |
| Instructions | 1       |

```
      00 01 02 03 04 05 06 07  08 09 0A 0B 0C 0D 0E 0F
      -- -- -- -- -- -- -- --  -- -- -- -- -- -- -- --
0000:    00                                              .              
```

#### Opcodes

```
  0: 0x0001 [0x00] END_REQSTACK()
```

### Event 65535.1

#### Metadata

| Field        | Value   |
|--------------|---------|
| Entrypoint   | 0x0002  |
| Data Size    | 2 bytes |
| Instructions | 2       |

```
      00 01 02 03 04 05 06 07  08 09 0A 0B 0C 0D 0E 0F
      -- -- -- -- -- -- -- --  -- -- -- -- -- -- -- --
0000:       84 00                                         ..            
```

#### Opcodes

```
  0: 0x0002 [0x84] ADJUST_RENDER_FLAGS3_BIT0()
  1: 0x0003 [0x00] END_REQSTACK()
```

### Event 65535.2

#### Metadata

| Field        | Value    |
|--------------|----------|
| Entrypoint   | 0x0004   |
| Data Size    | 37 bytes |
| Instructions | 6        |

```
      00 01 02 03 04 05 06 07  08 09 0A 0B 0C 0D 0E 0F
      -- -- -- -- -- -- -- --  -- -- -- -- -- -- -- --
0000:             B6 0B 00 80  01 80 02 80 02 80 02 80      ............
0010: 02 80 02 80 03 80 03 80  22 00 92 01 F8 FF FF 7F  ........".......
0020: 94 01 F8 FF FF 7F A4 01  00                       .........       
```

#### Opcodes

```
  0: 0x0004 [0xB6] ENTITY_APPEARANCE_HANDLER(case=Full entity look, race=5*, hair=29*, head=19*, body=19*, hands=19*, legs=19*, feet=19*, main=0*, sub=0*)
  1: 0x0018 [0x22] ENTITY_HIDE_FLAG(enabled=0x00)
  2: 0x001A [0x92] EventEntity->Render.Flags3 ^= 0x01
  3: 0x0020 [0x94] EventEntity->Render.Flags3 ^= 0x01
  4: 0x0026 [0xA4] EventEntity->Flags3.unknown_3_2 = 1
  5: 0x0028 [0x00] END_REQSTACK()
```

### Event 65535.3

#### Metadata

| Field        | Value    |
|--------------|----------|
| Entrypoint   | 0x0029   |
| Data Size    | 17 bytes |
| Instructions | 5        |

```
      00 01 02 03 04 05 06 07  08 09 0A 0B 0C 0D 0E 0F
      -- -- -- -- -- -- -- --  -- -- -- -- -- -- -- --
0020:                             22 00 92 01 F8 FF FF           "......
0030: 7F 94 01 F8 FF FF 7F A4  01 00                    ..........      
```

#### Opcodes

```
  0: 0x0029 [0x22] ENTITY_HIDE_FLAG(enabled=0x00)
  1: 0x002B [0x92] EventEntity->Render.Flags3 ^= 0x01
  2: 0x0031 [0x94] EventEntity->Render.Flags3 ^= 0x01
  3: 0x0037 [0xA4] EventEntity->Flags3.unknown_3_2 = 1
  4: 0x0039 [0x00] END_REQSTACK()
```

### Event 65535.4

#### Metadata

| Field        | Value    |
|--------------|----------|
| Entrypoint   | 0x003A   |
| Data Size    | 43 bytes |
| Instructions | 6        |

```
      00 01 02 03 04 05 06 07  08 09 0A 0B 0C 0D 0E 0F
      -- -- -- -- -- -- -- --  -- -- -- -- -- -- -- --
0030:                                02 04 80 04 80 00            ......
0040: 64 00 66 05 80 F8 FF FF  7F F8 FF FF 7F 73 79 75  d.f..........syu
0050: 30 53 F8 FF FF 7F F8 FF  FF 7F 73 79 75 30 1C 06  0S........syu0..
0060: 80 01 3A 00 00                                    ..:..           
```

#### Opcodes

```
  0: 0x003A [0x02] IF !(1* == 1*) GOTO 0x0064
  1: 0x0042 [0x66] LOAD_EXT_SCHEDULER_MAIN: Load scheduler "syu0" with entities [EventEntity, EventEntity], work=40*
  2: 0x0051 [0x53] WAIT_SCHEDULER_TASK: Wait for scheduler "syu0" with entities [EventEntity, EventEntity]
  3: 0x005E [0x1C] WAIT(15* ticks)
  4: 0x0061 [0x01] GOTO 0x003A
  5: 0x0064 [0x00] END_REQSTACK()
```

### Event 65535.5

#### Metadata

| Field        | Value    |
|--------------|----------|
| Entrypoint   | 0x0065   |
| Data Size    | 19 bytes |
| Instructions | 3        |

```
      00 01 02 03 04 05 06 07  08 09 0A 0B 0C 0D 0E 0F
      -- -- -- -- -- -- -- --  -- -- -- -- -- -- -- --
0060:                5B 07 80  F8 FF FF 7F F8 FF FF 7F       [..........
0070: 62 6B 61 30 1C 08 80 00                           bka0....        
```

#### Opcodes

```
  0: 0x0065 [0x5B] LOAD_EXT_SCHEDULER: Load scheduler "bka0" with entities [EventEntity, EventEntity], work=2778*
  1: 0x0074 [0x1C] WAIT(80* ticks)
  2: 0x0077 [0x00] END_REQSTACK()
```

### Event 65535.6

#### Metadata

| Field        | Value    |
|--------------|----------|
| Entrypoint   | 0x0078   |
| Data Size    | 16 bytes |
| Instructions | 2        |

```
      00 01 02 03 04 05 06 07  08 09 0A 0B 0C 0D 0E 0F
      -- -- -- -- -- -- -- --  -- -- -- -- -- -- -- --
0070:                          5B 07 80 F8 FF FF 7F F8          [.......
0080: FF FF 7F 62 6B 61 6C 00                           ...bkal.        
```

#### Opcodes

```
  0: 0x0078 [0x5B] LOAD_EXT_SCHEDULER: Load scheduler "bkal" with entities [EventEntity, EventEntity], work=2778*
  1: 0x0087 [0x00] END_REQSTACK()
```

### Event 65535.7

#### Metadata

| Field        | Value    |
|--------------|----------|
| Entrypoint   | 0x0088   |
| Data Size    | 19 bytes |
| Instructions | 3        |

```
      00 01 02 03 04 05 06 07  08 09 0A 0B 0C 0D 0E 0F
      -- -- -- -- -- -- -- --  -- -- -- -- -- -- -- --
0080:                          5B 07 80 F8 FF FF 7F F8          [.......
0090: FF FF 7F 62 6B 61 31 1C  09 80 00                 ...bka1....     
```

#### Opcodes

```
  0: 0x0088 [0x5B] LOAD_EXT_SCHEDULER: Load scheduler "bka1" with entities [EventEntity, EventEntity], work=2778*
  1: 0x0097 [0x1C] WAIT(111* ticks)
  2: 0x009A [0x00] END_REQSTACK()
```

### Event 65535.8

#### Metadata

| Field        | Value    |
|--------------|----------|
| Entrypoint   | 0x009B   |
| Data Size    | 19 bytes |
| Instructions | 3        |

```
      00 01 02 03 04 05 06 07  08 09 0A 0B 0C 0D 0E 0F
      -- -- -- -- -- -- -- --  -- -- -- -- -- -- -- --
0090:                                   5B 07 80 F8 FF             [....
00A0: FF 7F F8 FF FF 7F 62 6B  61 32 1C 05 80 00        ......bka2....  
```

#### Opcodes

```
  0: 0x009B [0x5B] LOAD_EXT_SCHEDULER: Load scheduler "bka2" with entities [EventEntity, EventEntity], work=2778*
  1: 0x00AA [0x1C] WAIT(40* ticks)
  2: 0x00AD [0x00] END_REQSTACK()
```

### Event 65535.9

#### Metadata

| Field        | Value    |
|--------------|----------|
| Entrypoint   | 0x00AE   |
| Data Size    | 33 bytes |
| Instructions | 4        |

```
      00 01 02 03 04 05 06 07  08 09 0A 0B 0C 0D 0E 0F
      -- -- -- -- -- -- -- --  -- -- -- -- -- -- -- --
00A0:                                            B6 0B                ..
00B0: 00 80 01 80 02 80 02 80  02 80 02 80 02 80 03 80  ................
00C0: 03 80 1C 06 80 6C F8 FF  FF 7F 03 80 03 80 00     .....l......... 
```

#### Opcodes

```
  0: 0x00AE [0xB6] ENTITY_APPEARANCE_HANDLER(case=Full entity look, race=5*, hair=29*, head=19*, body=19*, hands=19*, legs=19*, feet=19*, main=0*, sub=0*)
  1: 0x00C2 [0x1C] WAIT(15* ticks)
  2: 0x00C5 [0x6C] FADE_ENTITY_COLOR(entity_id=EventEntity, end_alpha=0*, fade_time=0*)
  3: 0x00CE [0x00] END_REQSTACK()
```

### Event 65535.10

#### Metadata

| Field        | Value    |
|--------------|----------|
| Entrypoint   | 0x00CF   |
| Data Size    | 10 bytes |
| Instructions | 2        |

```
      00 01 02 03 04 05 06 07  08 09 0A 0B 0C 0D 0E 0F
      -- -- -- -- -- -- -- --  -- -- -- -- -- -- -- --
00C0:                                               6C                 l
00D0: F8 FF FF 7F 03 80 03 80  00                       .........       
```

#### Opcodes

```
  0: 0x00CF [0x6C] FADE_ENTITY_COLOR(entity_id=EventEntity, end_alpha=0*, fade_time=0*)
  1: 0x00D8 [0x00] END_REQSTACK()
```

### Event 65535.11

#### Metadata

| Field        | Value    |
|--------------|----------|
| Entrypoint   | 0x00D9   |
| Data Size    | 10 bytes |
| Instructions | 2        |

```
      00 01 02 03 04 05 06 07  08 09 0A 0B 0C 0D 0E 0F
      -- -- -- -- -- -- -- --  -- -- -- -- -- -- -- --
00D0:                             6C F8 FF FF 7F 0A 80           l......
00E0: 03 80 00                                          ...             
```

#### Opcodes

```
  0: 0x00D9 [0x6C] FADE_ENTITY_COLOR(entity_id=EventEntity, end_alpha=128*, fade_time=0*)
  1: 0x00E2 [0x00] END_REQSTACK()
```

### Event 65535.12

#### Metadata

| Field        | Value    |
|--------------|----------|
| Entrypoint   | 0x00E3   |
| Data Size    | 18 bytes |
| Instructions | 2        |

```
      00 01 02 03 04 05 06 07  08 09 0A 0B 0C 0D 0E 0F
      -- -- -- -- -- -- -- --  -- -- -- -- -- -- -- --
00E0:          C5 0B 80 F8 FF  FF 7F F8 FF FF 7F 73 30     ...........s0
00F0: 30 30 03 80 00                                    00...           
```

#### Opcodes

```
  0: 0x00E3 [0xC5] LOAD_SCHEDULED_TASK_ALT3: Load scheduler 0x80033030 for entities [EventEntity, EventEntity], work=180*, param=12403
  1: 0x00F4 [0x00] END_REQSTACK()
```

### Event 65535.13

#### Metadata

| Field        | Value    |
|--------------|----------|
| Entrypoint   | 0x00F5   |
| Data Size    | 18 bytes |
| Instructions | 2        |

```
      00 01 02 03 04 05 06 07  08 09 0A 0B 0C 0D 0E 0F
      -- -- -- -- -- -- -- --  -- -- -- -- -- -- -- --
00F0:                C5 0B 80  F8 FF FF 7F F8 FF FF 7F       ...........
0100: 73 30 30 31 03 80 00                              s001...         
```

#### Opcodes

```
  0: 0x00F5 [0xC5] LOAD_SCHEDULED_TASK_ALT3: Load scheduler 0x80033130 for entities [EventEntity, EventEntity], work=180*, param=12403
  1: 0x0106 [0x00] END_REQSTACK()
```

### Event 65535.14

#### Metadata

| Field        | Value    |
|--------------|----------|
| Entrypoint   | 0x0107   |
| Data Size    | 18 bytes |
| Instructions | 2        |

```
      00 01 02 03 04 05 06 07  08 09 0A 0B 0C 0D 0E 0F
      -- -- -- -- -- -- -- --  -- -- -- -- -- -- -- --
0100:                      C5  0B 80 F8 FF FF 7F F8 FF         .........
0110: FF 7F 6B 69 6C 30 03 80  00                       ..kil0...       
```

#### Opcodes

```
  0: 0x0107 [0xC5] LOAD_SCHEDULED_TASK_ALT3: Load scheduler 0x8003306C for entities [EventEntity, EventEntity], work=180*, param=26987
  1: 0x0118 [0x00] END_REQSTACK()
```
