# 17756260

## Common Data

| Field            | Value                    |
|------------------|--------------------------|
| Zone             | Windurst Walls (ID: 239) |
| Block Size       | 8756 bytes               |
| Total Events     | 6                        |
| References Count | 132                      |

## List of Events

| Event ID                 | Entrypoint   |   Size |   Instructions |
|--------------------------|--------------|--------|----------------|
| [65535](#event-65535)    | 0x0000       |      1 |              1 |
| [11](#event-11)          | 0x0001       |      1 |              1 |
| [65535.1](#event-655351) | 0x0002       |     33 |              3 |
| [65535.2](#event-655352) | 0x0023       |     33 |              3 |
| [443](#event-443)        | 0x0044       |   1721 |            250 |
| [529](#event-529)        | 0x06FD       |   6397 |            709 |

## DAT References (imed_data)

|   Index | Hex Value   |   Dec Value |
|---------|-------------|-------------|
|       0 | 0x00C8      |         200 |
|       1 | 0x0000      |           0 |
|       2 | 0x000A      |          10 |
|       3 | 0x0003      |           3 |
|       4 | 0x0078      |         120 |
|       5 | 0x012C      |         300 |
|       6 | 0x00F9      |         249 |
|       7 | 0x0064      |         100 |
|       8 | 0x0050      |          80 |
|       9 | 0x001E      |          30 |
|      10 | 0x0028      |          40 |
|      11 | 0x003C      |          60 |
|      12 | 0x0154      |         340 |
|      13 | 0x1B3F      |        6975 |
|      14 | 0x005A      |          90 |
|      15 | 0x1B40      |        6976 |
|      16 | 0x0082      |         130 |
|      17 | 0x2365      |        9061 |
|      18 | 0x0073      |         115 |
|      19 | 0x000C      |          12 |
|      20 | 0x00A0      |         160 |
|      21 | 0x000F      |          15 |
|      22 | 0x2368      |        9064 |
|      23 | 0x2369      |        9065 |
|      24 | 0x00EF      |         239 |
|      25 | 0x0001      |           1 |
|      26 | 0x0097      |         151 |
|      27 | 0x0019      |          25 |
|      28 | 0x00C9      |         201 |
|      29 | 0x00F0      |         240 |
|      30 | 0x002A      |          42 |
|      31 | 0x28ED      |       10477 |
|      32 | 0x28EE      |       10478 |
|      33 | 0x09C1      |        2497 |
|      34 | 0x28EF      |       10479 |
|      35 | 0x001B      |          27 |
|      36 | 0x0195      |         405 |
|      37 | 0x1DE18     |      122392 |
|      38 | 0x1B0CB     |      110795 |
|      39 | 0xFFFFF449  |  4294964297 |
|      40 | 0x0C64      |        3172 |
|      41 | 0x02A0      |         672 |
|      42 | 0x00A3      |         163 |
|      43 | 0x007F      |         127 |
|      44 | 0x0002      |           2 |
|      45 | 0x0005      |           5 |
|      46 | 0x0006      |           6 |
|      47 | 0x28F0      |       10480 |
|      48 | 0x28F1      |       10481 |
|      49 | 0x28F2      |       10482 |
|      50 | 0x0008      |           8 |
|      51 | 0x28F3      |       10483 |
|      52 | 0x28F6      |       10486 |
|      53 | 0x28F7      |       10487 |
|      54 | 0x28F8      |       10488 |
|      55 | 0x28F9      |       10489 |
|      56 | 0x28FA      |       10490 |
|      57 | 0x28FB      |       10491 |
|      58 | 0x28FC      |       10492 |
|      59 | 0x28FD      |       10493 |
|      60 | 0x28FE      |       10494 |
|      61 | 0x28FF      |       10495 |
|      62 | 0x2900      |       10496 |
|      63 | 0x2901      |       10497 |
|      64 | 0x2902      |       10498 |
|      65 | 0x2903      |       10499 |
|      66 | 0x2904      |       10500 |
|      67 | 0x2905      |       10501 |
|      68 | 0x2906      |       10502 |
|      69 | 0x2907      |       10503 |
|      70 | 0x2908      |       10504 |
|      71 | 0x2909      |       10505 |
|      72 | 0x290A      |       10506 |
|      73 | 0x0004      |           4 |
|      74 | 0x290B      |       10507 |
|      75 | 0x290C      |       10508 |
|      76 | 0x290D      |       10509 |
|      77 | 0x290E      |       10510 |
|      78 | 0x290F      |       10511 |
|      79 | 0x0007      |           7 |
|      80 | 0x2910      |       10512 |
|      81 | 0x0029      |          41 |
|      82 | 0x2911      |       10513 |
|      83 | 0x2912      |       10514 |
|      84 | 0x2913      |       10515 |
|      85 | 0x2914      |       10516 |
|      86 | 0x2915      |       10517 |
|      87 | 0x00DB      |         219 |
|      88 | 0x2916      |       10518 |
|      89 | 0x00A5      |         165 |
|      90 | 0x2917      |       10519 |
|      91 | 0x2918      |       10520 |
|      92 | 0x2919      |       10521 |
|      93 | 0x291A      |       10522 |
|      94 | 0x291B      |       10523 |
|      95 | 0x291C      |       10524 |
|      96 | 0x291D      |       10525 |
|      97 | 0x291E      |       10526 |
|      98 | 0x291F      |       10527 |
|      99 | 0x2920      |       10528 |
|     100 | 0x2921      |       10529 |
|     101 | 0x2922      |       10530 |
|     102 | 0x2923      |       10531 |
|     103 | 0x2924      |       10532 |
|     104 | 0x2925      |       10533 |
|     105 | 0x2926      |       10534 |
|     106 | 0x2927      |       10535 |
|     107 | 0x2928      |       10536 |
|     108 | 0x2929      |       10537 |
|     109 | 0x292A      |       10538 |
|     110 | 0x002B      |          43 |
|     111 | 0x292B      |       10539 |
|     112 | 0x00AF      |         175 |
|     113 | 0x00B0      |         176 |
|     114 | 0x1DA14     |      121364 |
|     115 | 0x1B897     |      112791 |
|     116 | 0x00CB      |         203 |
|     117 | 0x00B1      |         177 |
|     118 | 0x0096      |         150 |
|     119 | 0x0273      |         627 |
|     120 | 0x292C      |       10540 |
|     121 | 0x292D      |       10541 |
|     122 | 0x292E      |       10542 |
|     123 | 0x292F      |       10543 |
|     124 | 0x2930      |       10544 |
|     125 | 0x2931      |       10545 |
|     126 | 0x2932      |       10546 |
|     127 | 0x2933      |       10547 |
|     128 | 0x2934      |       10548 |
|     129 | 0x2935      |       10549 |
|     130 | 0x28F4      |       10484 |
|     131 | 0x28F5      |       10485 |

## String References

- **6975**: d $3TThere is a legend in this country. In a time forgotten, a people forced to wander by starvation and cold were led to this land by a wondrous star.
- **6976**: R $3TWhen that star returned to the heavens, it sent to the earth a spiritual medium, the first Star Sibyl, who could hear its voice. She promised Windurst glory and prosperity.
- **9061**: V $3P An age passed, and a time of destruction drew near. The moon fell into shadow, the stars grew silent, and the people lost their way.
- **9064**: V $3P Once again, a star of hope has been born to this earth...
- **9065**: R $3TA new tale will begin here, woven by the myriad stars of this universe...
- **10483**: Attempt the ritual? [Yes./No./"Extreme" Trust?]
- **10488**: Attempt the ritual anyway? [Y-yes...?/I'm out.]
- **10497**: Do you understand? [P-probably.../What're you on about?]

## Events

### Event 65535

#### Metadata

| Field        | Value   |
|--------------|---------|
| Entrypoint   | 0x0000  |
| Data Size    | 1 bytes |
| Instructions | 1       |

```
      00 01 02 03 04 05 06 07  08 09 0A 0B 0C 0D 0E 0F
      -- -- -- -- -- -- -- --  -- -- -- -- -- -- -- --
0000: 00                                                .               
```

#### Opcodes

```
  0: 0x0000 [0x00] END_REQSTACK()
```

### Event 11

#### Metadata

| Field        | Value   |
|--------------|---------|
| Entrypoint   | 0x0001  |
| Data Size    | 1 bytes |
| Instructions | 1       |

```
      00 01 02 03 04 05 06 07  08 09 0A 0B 0C 0D 0E 0F
      -- -- -- -- -- -- -- --  -- -- -- -- -- -- -- --
0000:    00                                              .              
```

#### Opcodes

```
  0: 0x0001 [0x00] END_REQSTACK()
```

### Event 65535.1

#### Metadata

| Field        | Value    |
|--------------|----------|
| Entrypoint   | 0x0002   |
| Data Size    | 33 bytes |
| Instructions | 3        |

```
      00 01 02 03 04 05 06 07  08 09 0A 0B 0C 0D 0E 0F
      -- -- -- -- -- -- -- --  -- -- -- -- -- -- -- --
0000:       45 00 80 F0 FF FF  7F F0 FF FF 7F 66 64 69    E..........fdi
0010: 30 01 80 55 00 80 F0 FF  FF 7F F0 FF FF 7F 66 64  0..U..........fd
0020: 69 30 00                                          i0.             
```

#### Opcodes

```
  0: 0x0002 [0x45] LOAD_SCHEDULED_TASK: Load scheduler "fdi0" with entities [LocalPlayer, LocalPlayer], work=[200*, 0*]
  1: 0x0013 [0x55] WAIT_LOAD_SCHEDULER: Wait for scheduler "fdi0" with entities [LocalPlayer, LocalPlayer], work=200*
  2: 0x0022 [0x00] END_REQSTACK()
```

### Event 65535.2

#### Metadata

| Field        | Value    |
|--------------|----------|
| Entrypoint   | 0x0023   |
| Data Size    | 33 bytes |
| Instructions | 3        |

```
      00 01 02 03 04 05 06 07  08 09 0A 0B 0C 0D 0E 0F
      -- -- -- -- -- -- -- --  -- -- -- -- -- -- -- --
0020:          45 00 80 F0 FF  FF 7F F0 FF FF 7F 66 64     E..........fd
0030: 6F 30 01 80 55 00 80 F0  FF FF 7F F0 FF FF 7F 66  o0..U..........f
0040: 64 6F 30 00                                       do0.            
```

#### Opcodes

```
  0: 0x0023 [0x45] LOAD_SCHEDULED_TASK: Load scheduler "fdo0" with entities [LocalPlayer, LocalPlayer], work=[200*, 0*]
  1: 0x0034 [0x55] WAIT_LOAD_SCHEDULER: Wait for scheduler "fdo0" with entities [LocalPlayer, LocalPlayer], work=200*
  2: 0x0043 [0x00] END_REQSTACK()
```

### Event 443

#### Metadata

| Field        | Value      |
|--------------|------------|
| Entrypoint   | 0x0044     |
| Data Size    | 1721 bytes |
| Instructions | 250        |

```
      00 01 02 03 04 05 06 07  08 09 0A 0B 0C 0D 0E 0F
      -- -- -- -- -- -- -- --  -- -- -- -- -- -- -- --
0040:             46 01 42 5D  01 80 00 80 1C 00 80 02      F.B]........
0050: 09 10 02 80 00 5D 00 38  03 80 01 60 00 38 03 80  .....].8...`.8..
0060: 5C 00 04 80 5C 01 04 80  1C 05 80 4E 00 F0 FF FF  \...\......N....
0070: 7F 4E 00 8D F0 0E 01 80  F0 FF FF 7F 80 8D F0 0E  .N..............
0080: 01 29 0B F0 FF FF 7F 4A  29 0B 8D F0 0E 01 02 27  .).....J)......'
0090: 0B F0 FF FF 7F 4B 27 0B  8D F0 0E 01 03 45 06 80  .....K'......E..
00A0: F8 FF FF 7F F8 FF FF 7F  73 31 30 38 01 80 45 00  ........s108..E.
00B0: 80 F0 FF FF 7F F0 FF FF  7F 66 64 69 31 01 80 1C  .........fdi1...
00C0: 07 80 27 0D 86 F0 0E 01  49 67 08 80 08 80 4A 0B  ..'.....Ig....J.
00D0: F0 0E 01 F0 FF FF 7F 6F  76 0B F0 0E 01 27 0A 0B  .......ov....'..
00E0: F0 0E 01 13 1C 09 80 4A  0C F0 0E 01 F0 FF FF 7F  .......J........
00F0: 1C 09 80 4A 0D F0 0E 01  F0 FF FF 7F 79 00 0E F0  ...J........y...
0100: 0E 01 F0 FF FF 7F 1C 0A  80 1C 0B 80 45 00 80 F0  ............E...
0110: FF FF 7F F0 FF FF 7F 66  64 6F 31 01 80 1C 0B 80  .......fdo1.....
0120: 2A 0D 86 F0 0E 01 2A 0A  0B F0 0E 01 2A 0B F0 FF  *.....*.....*...
0130: FF 7F 2A 0B 8D F0 0E 01  29 0B F0 FF FF 7F 4C 29  ..*.....).....L)
0140: 0B 8D F0 0E 01 04 27 0B  8D F0 0E 01 05 27 0B F0  ......'......'..
0150: FF FF 7F 4D 52 06 80 F8  FF FF 7F F8 FF FF 7F 73  ...MR..........s
0160: 31 30 38 45 06 80 F8 FF  FF 7F F8 FF FF 7F 73 31  108E..........s1
0170: 30 39 01 80 45 00 80 F0  FF FF 7F F0 FF FF 7F 66  09..E..........f
0180: 64 69 31 01 80 1C 00 80  67 08 80 0C 80 48 0D 80  di1.....g....H..
0190: 23 1C 0B 80 45 00 80 F0  FF FF 7F F0 FF FF 7F 66  #...E..........f
01A0: 64 6F 31 01 80 1C 0B 80  2A 0B F0 FF FF 7F 2A 0B  do1.....*.....*.
01B0: 8D F0 0E 01 29 0B 38 F0  0E 01 04 29 0B 37 F0 0E  ....).8....).7..
01C0: 01 04 29 0B F0 FF FF 7F  4E 29 0B 8D F0 0E 01 06  ..).....N)......
01D0: 29 0B 0B F0 0E 01 14 29  0B 0C F0 0E 01 34 29 0B  )......).....4).
01E0: 0D F0 0E 01 31 29 0B 5D  F0 0E 01 04 29 0B 39 F0  ....1).]....).9.
01F0: 0E 01 04 29 0B 0E F0 0E  01 19 27 0B 0B F0 0E 01  ...)......'.....
0200: 15 27 0B 8D F0 0E 01 07  27 0B F0 FF FF 7F 4F 27  .'......'.....O'
0210: 0B 38 F0 0E 01 05 27 0B  37 F0 0E 01 05 27 0B 0D  .8....'.7....'..
0220: F0 0E 01 32 27 0B 0C F0  0E 01 35 52 06 80 F8 FF  ...2'.....5R....
0230: FF 7F F8 FF FF 7F 73 31  30 39 45 06 80 F8 FF FF  ......s109E.....
0240: 7F F8 FF FF 7F 73 31 31  30 01 80 45 00 80 F0 FF  .....s110..E....
0250: FF 7F F0 FF FF 7F 66 64  69 31 01 80 79 00 5D F0  ......fdi1..y.].
0260: 0E 01 8D F0 0E 01 79 00  0E F0 0E 01 8D F0 0E 01  ......y.........
0270: 27 0B 34 F0 0E 01 06 27  0B 33 F0 0E 01 04 27 0B  '.4....'.3....'.
0280: 57 F0 0E 01 04 1C 07 80  27 0B 39 F0 0E 01 05 1C  W.......'.9.....
0290: 07 80 67 0E 80 0C 80 48  0F 80 23 1C 0B 80 45 00  ..g....H..#...E.
02A0: 80 F0 FF FF 7F F0 FF FF  7F 66 64 6F 31 01 80 1C  .........fdo1...
02B0: 0B 80 4E 00 1A F0 0E 01  4E 00 1C F0 0E 01 4E 00  ..N.....N.....N.
02C0: 21 F0 0E 01 80 1A F0 0E  01 80 1C F0 0E 01 80 21  !..............!
02D0: F0 0E 01 2A 0B 8D F0 0E  01 2A 0B F0 FF FF 7F 2A  ...*.....*.....*
02E0: 0B 38 F0 0E 01 2A 0B 37  F0 0E 01 2A 0B 33 F0 0E  .8...*.7...*.3..
02F0: 01 2A 0B 0C F0 0E 01 2A  0B 0D F0 0E 01 29 0B 33  .*.....*.....).3
0300: F0 0E 01 05 29 0B 42 F0  0E 01 04 29 0B F0 FF FF  ....).B....)....
0310: 7F 50 29 0B 8D F0 0E 01  08 29 0B 43 F0 0E 01 04  .P)......).C....
0320: 29 0B 37 F0 0E 01 06 29  0B 0C F0 0E 01 36 29 0B  ).7....).....6).
0330: 0D F0 0E 01 33 29 0B 56  F0 0E 01 04 29 0B 38 F0  ....3).V....).8.
0340: 0E 01 06 27 0B 58 F0 0E  01 07 27 0B 33 F0 0E 01  ...'.X....'.3...
0350: 06 27 0B 8D F0 0E 01 09  27 0B F0 FF FF 7F 51 27  .'......'.....Q'
0360: 0B 42 F0 0E 01 05 27 0B  55 F0 0E 01 04 27 0B 23  .B....'.U....'.#
0370: F0 0E 01 05 27 0B 22 F0  0E 01 05 27 0B 43 F0 0E  ....'."....'.C..
0380: 01 05 27 0B 56 F0 0E 01  05 52 06 80 F8 FF FF 7F  ..'.V....R......
0390: F8 FF FF 7F 73 31 31 30  45 06 80 F8 FF FF 7F F8  ....s110E.......
03A0: FF FF 7F 73 31 31 31 01  80 45 00 80 F0 FF FF 7F  ...s111..E......
03B0: F0 FF FF 7F 66 64 69 31  01 80 1C 0B 80 4A 1A F0  ....fdi1.....J..
03C0: 0E 01 8D F0 0E 01 4A 1C  F0 0E 01 8D F0 0E 01 1C  ......J.........
03D0: 02 80 4A 21 F0 0E 01 8D  F0 0E 01 1C 10 80 48 11  ..J!..........H.
03E0: 80 23 1C 0B 80 45 00 80  F0 FF FF 7F F0 FF FF 7F  .#...E..........
03F0: 66 64 6F 31 01 80 1C 0B  80 2A 0B 8D F0 0E 01 2A  fdo1.....*.....*
0400: 0B F0 FF FF 7F 52 06 80  F8 FF FF 7F F8 FF FF 7F  .....R..........
0410: 73 31 31 31 34 12 80 77  13 80 01 80 1C 07 80 4E  s1114..w.......N
0420: 00 11 F0 0E 01 4E 00 86  F0 0E 01 4E 00 8C F0 0E  .....N.....N....
0430: 01 4E 00 8A F0 0E 01 4E  00 8B F0 0E 01 80 11 F0  .N.....N........
0440: 0E 01 80 8C F0 0E 01 80  86 F0 0E 01 80 8A F0 0E  ................
0450: 01 80 8B F0 0E 01 92 01  11 F0 0E 01 92 01 8C F0  ................
0460: 0E 01 92 01 86 F0 0E 01  92 01 8A F0 0E 01 92 01  ................
0470: 8B F0 0E 01 29 0B 8B F0  0E 01 01 29 0B 8C F0 0E  ....)......)....
0480: 01 02 29 0B 86 F0 0E 01  45 29 0B 11 F0 0E 01 44  ..).....E).....D
0490: 27 0B 86 F0 0E 01 46 45  06 80 F0 FF FF 7F F0 FF  '.....FE........
04A0: FF 7F 73 31 31 32 01 80  1C 0B 80 45 00 80 F0 FF  ..s112.....E....
04B0: FF 7F F0 FF FF 7F 66 64  69 31 01 80 1C 00 80 27  ......fdi1.....'
04C0: 0B 8D F0 0E 01 0A 1C 07  80 45 00 80 F0 FF FF 7F  .........E......
04D0: F0 FF FF 7F 66 64 6F 31  01 80 1C 04 80 52 06 80  ....fdo1.....R..
04E0: F0 FF FF 7F F0 FF FF 7F  73 31 31 32 45 06 80 F0  ........s112E...
04F0: FF FF 7F F0 FF FF 7F 73  31 31 33 01 80 45 00 80  .......s113..E..
0500: F0 FF FF 7F F0 FF FF 7F  66 64 69 31 01 80 67 08  ........fdi1..g.
0510: 80 08 80 27 0B 11 F0 0E  01 45 2A 0B 11 F0 0E 01  ...'.....E*.....
0520: 1C 04 80 45 00 80 F0 FF  FF 7F F0 FF FF 7F 66 64  ...E..........fd
0530: 6F 31 01 80 1C 04 80 2A  0B 8D F0 0E 01 2A 0B 86  o1.....*.....*..
0540: F0 0E 01 29 0B 86 F0 0E  01 47 52 06 80 F0 FF FF  ...).....GR.....
0550: 7F F0 FF FF 7F 73 31 31  33 45 06 80 F0 FF FF 7F  .....s113E......
0560: F0 FF FF 7F 73 31 31 34  01 80 27 0B 86 F0 0E 01  ....s114..'.....
0570: 48 45 00 80 F0 FF FF 7F  F0 FF FF 7F 66 64 69 31  HE..........fdi1
0580: 01 80 1C 0B 80 27 0D 8D  F0 0E 01 0B 27 0B 11 F0  .....'......'...
0590: 0E 01 46 1C 0B 80 45 00  80 F0 FF FF 7F F0 FF FF  ..F...E.........
05A0: 7F 66 64 6F 31 01 80 27  0B 8C F0 0E 01 03 27 0B  .fdo1..'......'.
05B0: 8B F0 0E 01 02 1C 04 80  52 06 80 F0 FF FF 7F F0  ........R.......
05C0: FF FF 7F 73 31 31 34 1C  02 80 45 06 80 F0 FF FF  ...s114...E.....
05D0: 7F F0 FF FF 7F 73 31 31  35 01 80 45 00 80 F0 FF  .....s115..E....
05E0: FF 7F F0 FF FF 7F 66 64  69 31 01 80 1C 14 80 79  ......fdi1.....y
05F0: 00 8C F0 0E 01 11 F0 0E  01 1C 15 80 45 00 80 F0  ............E...
0600: FF FF 7F F0 FF FF 7F 66  64 6F 31 01 80 1C 04 80  .......fdo1.....
0610: 2A 0B 8C F0 0E 01 6F 76  8C F0 0E 01 2A 0D 8D F0  *.....ov....*...
0620: 0E 01 52 06 80 F0 FF FF  7F F0 FF FF 7F 73 31 31  ..R..........s11
0630: 35 45 06 80 F0 FF FF 7F  F0 FF FF 7F 73 31 31 36  5E..........s116
0640: 01 80 45 00 80 F0 FF FF  7F F0 FF FF 7F 66 64 69  ..E..........fdi
0650: 31 01 80 67 08 80 04 80  48 16 80 23 1C 00 80 45  1..g....H..#...E
0660: 00 80 F0 FF FF 7F F0 FF  FF 7F 66 64 6F 31 01 80  ..........fdo1..
0670: 1C 00 80 52 06 80 F0 FF  FF 7F F0 FF FF 7F 73 31  ...R..........s1
0680: 31 36 67 04 80 08 80 48  17 80 23 5D 01 80 00 80  16g....H..#]....
0690: 1C 00 80 35 18 80 78 1C  00 80 29 0B F0 FF FF 7F  ...5..x...).....
06A0: 52 4E 00 F0 FF FF 7F 80  F0 FF FF 7F A6 00 A6 01  RN..............
06B0: A6 02 06 10 1C 19 80 75  00 06 10 75 01 5C 00 1A  .......u...u.\..
06C0: 80 5C 01 1A 80 1C 07 80  68 46 00 1C 07 80 45 00  .\......hF....E.
06D0: 80 F0 FF FF 7F F0 FF FF  7F 66 64 69 31 01 80 1C  .........fdi1...
06E0: 00 80 7D 1B 80 45 1C 80  F0 FF FF 7F F0 FF FF 7F  ..}..E..........
06F0: 71 73 74 63 01 80 1C 1D  80 20 00 21 00           qstc..... .!.   
```

#### Opcodes

```
  0: 0x0044 [0x46] CAMERA_CONTROL: Disable user control
  1: 0x0046 [0x42] SET_CLI_EVENT_CANCEL_DATA()
  2: 0x0047 [0x5D] SET_MUSIC_VOLUME(volume=0*, fade_time=200*)
  3: 0x004C [0x1C] WAIT(200* ticks)
  4: 0x004F [0x02] IF !(Work_Zone[9] == 10*) GOTO 0x005D
  5: 0x0057 [0x38] SET_CLIENT_EVENT_MODE(mode=3*)
  6: 0x005A [0x01] GOTO 0x0060
  7: 0x005D [0x38] SET_CLIENT_EVENT_MODE(mode=3*)

SUBROUTINE_0060:
  8: 0x0060 [0x5C] MUSIC_CONTROL: Set Idle (Day) music to song 120*
  9: 0x0064 [0x5C] MUSIC_CONTROL: Set Idle (Night) music to song 120*
 10: 0x0068 [0x1C] WAIT(300* ticks)
 11: 0x006B [0x4E] SET_ENTITY_HIDE_FLAG: Show LocalPlayer
 12: 0x0071 [0x4E] SET_ENTITY_HIDE_FLAG: Show Star Sibyl (ID: 17756301/0x010EF08D)
 13: 0x0077 [0x80] LOAD_WAIT(entity=LocalPlayer)
 14: 0x007C [0x80] LOAD_WAIT(entity=Star Sibyl (ID: 17756301/0x010EF08D))
 15: 0x0081 [0x29] REQ_SET_WAIT(priority=0x0B, entity_id=LocalPlayer, tag_num=0x4A)
 16: 0x0088 [0x29] REQ_SET_WAIT(priority=0x0B, entity_id=Star Sibyl (ID: 17756301/0x010EF08D), tag_num=0x02)
 17: 0x008F [0x27] REQ_SET(priority=0x0B, entity_id=LocalPlayer, tag_num=0x4B)
 18: 0x0096 [0x27] REQ_SET(priority=0x0B, entity_id=Star Sibyl (ID: 17756301/0x010EF08D), tag_num=0x03)
 19: 0x009D [0x45] LOAD_SCHEDULED_TASK: Load scheduler "s108" with entities [EventEntity, EventEntity], work=[249*, 0*]
 20: 0x00AE [0x45] LOAD_SCHEDULED_TASK: Load scheduler "fdi1" with entities [LocalPlayer, LocalPlayer], work=[200*, 0*]
 21: 0x00BF [0x1C] WAIT(100* ticks)
 22: 0x00C2 [0x27] REQ_SET(priority=0x0D, entity_id=Apururu (ID: 17756294/0x010EF086), tag_num=0x49)
 23: 0x00C9 [0x67] HIDE_HUD_ELEMENTS(param1=0x8008, param2=0x8008)
 24: 0x00CE [0x4A] Zokima-Rokima (ID: 17756171/0x010EF00B) looks at LocalPlayer
 25: 0x00D7 [0x6F] WAIT_FRAME_DELAY: Yield until WaitTime reaches zero
 26: 0x00D8 [0x76] CHECK_ENTITY_RENDER_FLAGS: Wait until Zokima-Rokima (ID: 17756171/0x010EF00B) Render.Flags0 and Render.Flags3 conditions are met
 27: 0x00DD [0x27] REQ_SET(priority=0x0A, entity_id=Zokima-Rokima (ID: 17756171/0x010EF00B), tag_num=0x13)
 28: 0x00E4 [0x1C] WAIT(30* ticks)
 29: 0x00E7 [0x4A] Pakke-Pokke (ID: 17756172/0x010EF00C) looks at LocalPlayer
 30: 0x00F0 [0x1C] WAIT(30* ticks)
 31: 0x00F3 [0x4A] Keo-Koruo (ID: 17756173/0x010EF00D) looks at LocalPlayer
 32: 0x00FC [0x79] Chawo Shipeynyo (ID: 17756174/0x010EF00E) looks at LocalPlayer (Basic look)
 33: 0x0106 [0x1C] WAIT(40* ticks)
 34: 0x0109 [0x1C] WAIT(60* ticks)
 35: 0x010C [0x45] LOAD_SCHEDULED_TASK: Load scheduler "fdo1" with entities [LocalPlayer, LocalPlayer], work=[200*, 0*]
 36: 0x011D [0x1C] WAIT(60* ticks)
 37: 0x0120 [0x2A] GET_REQ_LEVEL(level=13, entity_id=Apururu (ID: 17756294/0x010EF086))
 38: 0x0126 [0x2A] GET_REQ_LEVEL(level=10, entity_id=Zokima-Rokima (ID: 17756171/0x010EF00B))
 39: 0x012C [0x2A] GET_REQ_LEVEL(level=11, entity_id=LocalPlayer)
 40: 0x0132 [0x2A] GET_REQ_LEVEL(level=11, entity_id=Star Sibyl (ID: 17756301/0x010EF08D))
 41: 0x0138 [0x29] REQ_SET_WAIT(priority=0x0B, entity_id=LocalPlayer, tag_num=0x4C)
 42: 0x013F [0x29] REQ_SET_WAIT(priority=0x0B, entity_id=Star Sibyl (ID: 17756301/0x010EF08D), tag_num=0x04)
 43: 0x0146 [0x27] REQ_SET(priority=0x0B, entity_id=Star Sibyl (ID: 17756301/0x010EF08D), tag_num=0x05)
 44: 0x014D [0x27] REQ_SET(priority=0x0B, entity_id=LocalPlayer, tag_num=0x4D)
 45: 0x0154 [0x52] END_LOAD_SCHEDULER: End scheduler "s108" with entities [EventEntity, EventEntity], work=249*
 46: 0x0163 [0x45] LOAD_SCHEDULED_TASK: Load scheduler "s109" with entities [EventEntity, EventEntity], work=[249*, 0*]
 47: 0x0174 [0x45] LOAD_SCHEDULED_TASK: Load scheduler "fdi1" with entities [LocalPlayer, LocalPlayer], work=[200*, 0*]
 48: 0x0185 [0x1C] WAIT(200* ticks)
 49: 0x0188 [0x67] HIDE_HUD_ELEMENTS(param1=0x8008, param2=0x800C)
 50: 0x018D [0x48] [System] [6975*]:
    → "d $3TThere is a legend in this country. In a time forgotten, a people forced to wander by starvation and cold were led to this land by a wondrous star."
 51: 0x0190 [0x23] WAIT_FOR_DIALOG_INTERACTION
 52: 0x0191 [0x1C] WAIT(60* ticks)
 53: 0x0194 [0x45] LOAD_SCHEDULED_TASK: Load scheduler "fdo1" with entities [LocalPlayer, LocalPlayer], work=[200*, 0*]
 54: 0x01A5 [0x1C] WAIT(60* ticks)
 55: 0x01A8 [0x2A] GET_REQ_LEVEL(level=11, entity_id=LocalPlayer)
 56: 0x01AE [0x2A] GET_REQ_LEVEL(level=11, entity_id=Star Sibyl (ID: 17756301/0x010EF08D))
 57: 0x01B4 [0x29] REQ_SET_WAIT(priority=0x0B, entity_id=Yanakiki (ID: 17756216/0x010EF038), tag_num=0x04)
 58: 0x01BB [0x29] REQ_SET_WAIT(priority=0x0B, entity_id=Nozaza (ID: 17756215/0x010EF037), tag_num=0x04)
 59: 0x01C2 [0x29] REQ_SET_WAIT(priority=0x0B, entity_id=LocalPlayer, tag_num=0x4E)
 60: 0x01C9 [0x29] REQ_SET_WAIT(priority=0x0B, entity_id=Star Sibyl (ID: 17756301/0x010EF08D), tag_num=0x06)
 61: 0x01D0 [0x29] REQ_SET_WAIT(priority=0x0B, entity_id=Zokima-Rokima (ID: 17756171/0x010EF00B), tag_num=0x14)
 62: 0x01D7 [0x29] REQ_SET_WAIT(priority=0x0B, entity_id=Pakke-Pokke (ID: 17756172/0x010EF00C), tag_num=0x34)
 63: 0x01DE [0x29] REQ_SET_WAIT(priority=0x0B, entity_id=Keo-Koruo (ID: 17756173/0x010EF00D), tag_num=0x31)
 64: 0x01E5 [0x29] REQ_SET_WAIT(priority=0x0B, entity_id=Haah Chakaila (ID: 17756253/0x010EF05D), tag_num=0x04)
 65: 0x01EC [0x29] REQ_SET_WAIT(priority=0x0B, entity_id=Augu-Maugu (ID: 17756217/0x010EF039), tag_num=0x04)
 66: 0x01F3 [0x29] REQ_SET_WAIT(priority=0x0B, entity_id=Chawo Shipeynyo (ID: 17756174/0x010EF00E), tag_num=0x19)
 67: 0x01FA [0x27] REQ_SET(priority=0x0B, entity_id=Zokima-Rokima (ID: 17756171/0x010EF00B), tag_num=0x15)
 68: 0x0201 [0x27] REQ_SET(priority=0x0B, entity_id=Star Sibyl (ID: 17756301/0x010EF08D), tag_num=0x07)
 69: 0x0208 [0x27] REQ_SET(priority=0x0B, entity_id=LocalPlayer, tag_num=0x4F)
 70: 0x020F [0x27] REQ_SET(priority=0x0B, entity_id=Yanakiki (ID: 17756216/0x010EF038), tag_num=0x05)
 71: 0x0216 [0x27] REQ_SET(priority=0x0B, entity_id=Nozaza (ID: 17756215/0x010EF037), tag_num=0x05)
 72: 0x021D [0x27] REQ_SET(priority=0x0B, entity_id=Keo-Koruo (ID: 17756173/0x010EF00D), tag_num=0x32)
 73: 0x0224 [0x27] REQ_SET(priority=0x0B, entity_id=Pakke-Pokke (ID: 17756172/0x010EF00C), tag_num=0x35)
 74: 0x022B [0x52] END_LOAD_SCHEDULER: End scheduler "s109" with entities [EventEntity, EventEntity], work=249*
 75: 0x023A [0x45] LOAD_SCHEDULED_TASK: Load scheduler "s110" with entities [EventEntity, EventEntity], work=[249*, 0*]
 76: 0x024B [0x45] LOAD_SCHEDULED_TASK: Load scheduler "fdi1" with entities [LocalPlayer, LocalPlayer], work=[200*, 0*]
 77: 0x025C [0x79] Haah Chakaila (ID: 17756253/0x010EF05D) looks at Star Sibyl (ID: 17756301/0x010EF08D) (Basic look)
 78: 0x0266 [0x79] Chawo Shipeynyo (ID: 17756174/0x010EF00E) looks at Star Sibyl (ID: 17756301/0x010EF08D) (Basic look)
 79: 0x0270 [0x27] REQ_SET(priority=0x0B, entity_id=Kalupa-Tawalupa (ID: 17756212/0x010EF034), tag_num=0x06)
 80: 0x0277 [0x27] REQ_SET(priority=0x0B, entity_id=Rutango-Botango (ID: 17756211/0x010EF033), tag_num=0x04)
 81: 0x027E [0x27] REQ_SET(priority=0x0B, entity_id=Horuni-Mawoni (ID: 17756247/0x010EF057), tag_num=0x04)
 82: 0x0285 [0x1C] WAIT(100* ticks)
 83: 0x0288 [0x27] REQ_SET(priority=0x0B, entity_id=Augu-Maugu (ID: 17756217/0x010EF039), tag_num=0x05)
 84: 0x028F [0x1C] WAIT(100* ticks)
 85: 0x0292 [0x67] HIDE_HUD_ELEMENTS(param1=0x800E, param2=0x800C)
 86: 0x0297 [0x48] [System] [6976*]:
    → "R $3TWhen that star returned to the heavens, it sent to the earth a spiritual medium, the first Star Sibyl, who could hear its voice. She promised Windurst glory and prosperity."
 87: 0x029A [0x23] WAIT_FOR_DIALOG_INTERACTION
 88: 0x029B [0x1C] WAIT(60* ticks)
 89: 0x029E [0x45] LOAD_SCHEDULED_TASK: Load scheduler "fdo1" with entities [LocalPlayer, LocalPlayer], work=[200*, 0*]
 90: 0x02AF [0x1C] WAIT(60* ticks)
 91: 0x02B2 [0x4E] SET_ENTITY_HIDE_FLAG: Show Shantotto (ID: 17756186/0x010EF01A)
 92: 0x02B8 [0x4E] SET_ENTITY_HIDE_FLAG: Show Yoran-Oran (ID: 17756188/0x010EF01C)
 93: 0x02BE [0x4E] SET_ENTITY_HIDE_FLAG: Show Koru-Moru (ID: 17756193/0x010EF021)
 94: 0x02C4 [0x80] LOAD_WAIT(entity=Shantotto (ID: 17756186/0x010EF01A))
 95: 0x02C9 [0x80] LOAD_WAIT(entity=Yoran-Oran (ID: 17756188/0x010EF01C))
 96: 0x02CE [0x80] LOAD_WAIT(entity=Koru-Moru (ID: 17756193/0x010EF021))
 97: 0x02D3 [0x2A] GET_REQ_LEVEL(level=11, entity_id=Star Sibyl (ID: 17756301/0x010EF08D))
 98: 0x02D9 [0x2A] GET_REQ_LEVEL(level=11, entity_id=LocalPlayer)
 99: 0x02DF [0x2A] GET_REQ_LEVEL(level=11, entity_id=Yanakiki (ID: 17756216/0x010EF038))
100: 0x02E5 [0x2A] GET_REQ_LEVEL(level=11, entity_id=Nozaza (ID: 17756215/0x010EF037))
101: 0x02EB [0x2A] GET_REQ_LEVEL(level=11, entity_id=Rutango-Botango (ID: 17756211/0x010EF033))
102: 0x02F1 [0x2A] GET_REQ_LEVEL(level=11, entity_id=Pakke-Pokke (ID: 17756172/0x010EF00C))
103: 0x02F7 [0x2A] GET_REQ_LEVEL(level=11, entity_id=Keo-Koruo (ID: 17756173/0x010EF00D))
104: 0x02FD [0x29] REQ_SET_WAIT(priority=0x0B, entity_id=Rutango-Botango (ID: 17756211/0x010EF033), tag_num=0x05)
105: 0x0304 [0x29] REQ_SET_WAIT(priority=0x0B, entity_id=Suhie-Kaihie (ID: 17756226/0x010EF042), tag_num=0x04)
106: 0x030B [0x29] REQ_SET_WAIT(priority=0x0B, entity_id=LocalPlayer, tag_num=0x50)
107: 0x0312 [0x29] REQ_SET_WAIT(priority=0x0B, entity_id=Star Sibyl (ID: 17756301/0x010EF08D), tag_num=0x08)
108: 0x0319 [0x29] REQ_SET_WAIT(priority=0x0B, entity_id=Pakeke (ID: 17756227/0x010EF043), tag_num=0x04)
109: 0x0320 [0x29] REQ_SET_WAIT(priority=0x0B, entity_id=Nozaza (ID: 17756215/0x010EF037), tag_num=0x06)
110: 0x0327 [0x29] REQ_SET_WAIT(priority=0x0B, entity_id=Pakke-Pokke (ID: 17756172/0x010EF00C), tag_num=0x36)
111: 0x032E [0x29] REQ_SET_WAIT(priority=0x0B, entity_id=Keo-Koruo (ID: 17756173/0x010EF00D), tag_num=0x33)
112: 0x0335 [0x29] REQ_SET_WAIT(priority=0x0B, entity_id=Pantsa-Karutsa (ID: 17756246/0x010EF056), tag_num=0x04)
113: 0x033C [0x29] REQ_SET_WAIT(priority=0x0B, entity_id=Yanakiki (ID: 17756216/0x010EF038), tag_num=0x06)
114: 0x0343 [0x27] REQ_SET(priority=0x0B, entity_id=Kaaya Majiad (ID: 17756248/0x010EF058), tag_num=0x07)
115: 0x034A [0x27] REQ_SET(priority=0x0B, entity_id=Rutango-Botango (ID: 17756211/0x010EF033), tag_num=0x06)
116: 0x0351 [0x27] REQ_SET(priority=0x0B, entity_id=Star Sibyl (ID: 17756301/0x010EF08D), tag_num=0x09)
117: 0x0358 [0x27] REQ_SET(priority=0x0B, entity_id=LocalPlayer, tag_num=0x51)
118: 0x035F [0x27] REQ_SET(priority=0x0B, entity_id=Suhie-Kaihie (ID: 17756226/0x010EF042), tag_num=0x05)
119: 0x0366 [0x27] REQ_SET(priority=0x0B, entity_id=Malmi-Monmi (ID: 17756245/0x010EF055), tag_num=0x04)
120: 0x036D [0x27] REQ_SET(priority=0x0B, entity_id=Maan-Pokuun (ID: 17756195/0x010EF023), tag_num=0x05)
121: 0x0374 [0x27] REQ_SET(priority=0x0B, entity_id=Luuh Koplehn (ID: 17756194/0x010EF022), tag_num=0x05)
122: 0x037B [0x27] REQ_SET(priority=0x0B, entity_id=Pakeke (ID: 17756227/0x010EF043), tag_num=0x05)
123: 0x0382 [0x27] REQ_SET(priority=0x0B, entity_id=Pantsa-Karutsa (ID: 17756246/0x010EF056), tag_num=0x05)
124: 0x0389 [0x52] END_LOAD_SCHEDULER: End scheduler "s110" with entities [EventEntity, EventEntity], work=249*
125: 0x0398 [0x45] LOAD_SCHEDULED_TASK: Load scheduler "s111" with entities [EventEntity, EventEntity], work=[249*, 0*]
126: 0x03A9 [0x45] LOAD_SCHEDULED_TASK: Load scheduler "fdi1" with entities [LocalPlayer, LocalPlayer], work=[200*, 0*]
127: 0x03BA [0x1C] WAIT(60* ticks)
128: 0x03BD [0x4A] Shantotto (ID: 17756186/0x010EF01A) looks at Star Sibyl (ID: 17756301/0x010EF08D)
129: 0x03C6 [0x4A] Yoran-Oran (ID: 17756188/0x010EF01C) looks at Star Sibyl (ID: 17756301/0x010EF08D)
130: 0x03CF [0x1C] WAIT(10* ticks)
131: 0x03D2 [0x4A] Koru-Moru (ID: 17756193/0x010EF021) looks at Star Sibyl (ID: 17756301/0x010EF08D)
132: 0x03DB [0x1C] WAIT(130* ticks)
133: 0x03DE [0x48] [System] [9061*]:
    → "V $3P An age passed, and a time of destruction drew near. The moon fell into shadow, the stars grew silent, and the people lost their way."
134: 0x03E1 [0x23] WAIT_FOR_DIALOG_INTERACTION
135: 0x03E2 [0x1C] WAIT(60* ticks)
136: 0x03E5 [0x45] LOAD_SCHEDULED_TASK: Load scheduler "fdo1" with entities [LocalPlayer, LocalPlayer], work=[200*, 0*]
137: 0x03F6 [0x1C] WAIT(60* ticks)
138: 0x03F9 [0x2A] GET_REQ_LEVEL(level=11, entity_id=Star Sibyl (ID: 17756301/0x010EF08D))
139: 0x03FF [0x2A] GET_REQ_LEVEL(level=11, entity_id=LocalPlayer)
140: 0x0405 [0x52] END_LOAD_SCHEDULER: End scheduler "s111" with entities [EventEntity, EventEntity], work=249*
141: 0x0414 [0x34] LOAD_UNLOAD_ZONE(zone_id=115*)
142: 0x0417 [0x77] SET_EVENT_TIME_WEATHER(hour=12*, weather=0*)
143: 0x041C [0x1C] WAIT(100* ticks)
144: 0x041F [0x4E] SET_ENTITY_HIDE_FLAG: Show Ajido-Marujido (ID: 17756177/0x010EF011)
145: 0x0425 [0x4E] SET_ENTITY_HIDE_FLAG: Show Apururu (ID: 17756294/0x010EF086)
146: 0x042B [0x4E] SET_ENTITY_HIDE_FLAG: Show Semih Lafihna (ID: 17756300/0x010EF08C)
147: 0x0431 [0x4E] SET_ENTITY_HIDE_FLAG: Show Unnamed NPC (ID: 17756298/0x010EF08A)
148: 0x0437 [0x4E] SET_ENTITY_HIDE_FLAG: Show Unnamed NPC (ID: 17756299/0x010EF08B)
149: 0x043D [0x80] LOAD_WAIT(entity=Ajido-Marujido (ID: 17756177/0x010EF011))
150: 0x0442 [0x80] LOAD_WAIT(entity=Semih Lafihna (ID: 17756300/0x010EF08C))
151: 0x0447 [0x80] LOAD_WAIT(entity=Apururu (ID: 17756294/0x010EF086))
152: 0x044C [0x80] LOAD_WAIT(entity=Unnamed NPC (ID: 17756298/0x010EF08A))
153: 0x0451 [0x80] LOAD_WAIT(entity=Unnamed NPC (ID: 17756299/0x010EF08B))
154: 0x0456 [0x92] Ajido-Marujido (ID: 17756177/0x010EF011)->Render.Flags3 ^= 0x01
155: 0x045C [0x92] Semih Lafihna (ID: 17756300/0x010EF08C)->Render.Flags3 ^= 0x01
156: 0x0462 [0x92] Apururu (ID: 17756294/0x010EF086)->Render.Flags3 ^= 0x01
157: 0x0468 [0x92] Unnamed NPC (ID: 17756298/0x010EF08A)->Render.Flags3 ^= 0x01
158: 0x046E [0x92] Unnamed NPC (ID: 17756299/0x010EF08B)->Render.Flags3 ^= 0x01
159: 0x0474 [0x29] REQ_SET_WAIT(priority=0x0B, entity_id=Unnamed NPC (ID: 17756299/0x010EF08B), tag_num=0x01)
160: 0x047B [0x29] REQ_SET_WAIT(priority=0x0B, entity_id=Semih Lafihna (ID: 17756300/0x010EF08C), tag_num=0x02)
161: 0x0482 [0x29] REQ_SET_WAIT(priority=0x0B, entity_id=Apururu (ID: 17756294/0x010EF086), tag_num=0x45)
162: 0x0489 [0x29] REQ_SET_WAIT(priority=0x0B, entity_id=Ajido-Marujido (ID: 17756177/0x010EF011), tag_num=0x44)
163: 0x0490 [0x27] REQ_SET(priority=0x0B, entity_id=Apururu (ID: 17756294/0x010EF086), tag_num=0x46)
164: 0x0497 [0x45] LOAD_SCHEDULED_TASK: Load scheduler "s112" with entities [LocalPlayer, LocalPlayer], work=[249*, 0*]
165: 0x04A8 [0x1C] WAIT(60* ticks)
166: 0x04AB [0x45] LOAD_SCHEDULED_TASK: Load scheduler "fdi1" with entities [LocalPlayer, LocalPlayer], work=[200*, 0*]
167: 0x04BC [0x1C] WAIT(200* ticks)
168: 0x04BF [0x27] REQ_SET(priority=0x0B, entity_id=Star Sibyl (ID: 17756301/0x010EF08D), tag_num=0x0A)
169: 0x04C6 [0x1C] WAIT(100* ticks)
170: 0x04C9 [0x45] LOAD_SCHEDULED_TASK: Load scheduler "fdo1" with entities [LocalPlayer, LocalPlayer], work=[200*, 0*]
171: 0x04DA [0x1C] WAIT(120* ticks)
172: 0x04DD [0x52] END_LOAD_SCHEDULER: End scheduler "s112" with entities [LocalPlayer, LocalPlayer], work=249*
173: 0x04EC [0x45] LOAD_SCHEDULED_TASK: Load scheduler "s113" with entities [LocalPlayer, LocalPlayer], work=[249*, 0*]
174: 0x04FD [0x45] LOAD_SCHEDULED_TASK: Load scheduler "fdi1" with entities [LocalPlayer, LocalPlayer], work=[200*, 0*]
175: 0x050E [0x67] HIDE_HUD_ELEMENTS(param1=0x8008, param2=0x8008)
176: 0x0513 [0x27] REQ_SET(priority=0x0B, entity_id=Ajido-Marujido (ID: 17756177/0x010EF011), tag_num=0x45)
177: 0x051A [0x2A] GET_REQ_LEVEL(level=11, entity_id=Ajido-Marujido (ID: 17756177/0x010EF011))
178: 0x0520 [0x1C] WAIT(120* ticks)
179: 0x0523 [0x45] LOAD_SCHEDULED_TASK: Load scheduler "fdo1" with entities [LocalPlayer, LocalPlayer], work=[200*, 0*]
180: 0x0534 [0x1C] WAIT(120* ticks)
181: 0x0537 [0x2A] GET_REQ_LEVEL(level=11, entity_id=Star Sibyl (ID: 17756301/0x010EF08D))
182: 0x053D [0x2A] GET_REQ_LEVEL(level=11, entity_id=Apururu (ID: 17756294/0x010EF086))
183: 0x0543 [0x29] REQ_SET_WAIT(priority=0x0B, entity_id=Apururu (ID: 17756294/0x010EF086), tag_num=0x47)
184: 0x054A [0x52] END_LOAD_SCHEDULER: End scheduler "s113" with entities [LocalPlayer, LocalPlayer], work=249*
185: 0x0559 [0x45] LOAD_SCHEDULED_TASK: Load scheduler "s114" with entities [LocalPlayer, LocalPlayer], work=[249*, 0*]
186: 0x056A [0x27] REQ_SET(priority=0x0B, entity_id=Apururu (ID: 17756294/0x010EF086), tag_num=0x48)
187: 0x0571 [0x45] LOAD_SCHEDULED_TASK: Load scheduler "fdi1" with entities [LocalPlayer, LocalPlayer], work=[200*, 0*]
188: 0x0582 [0x1C] WAIT(60* ticks)
189: 0x0585 [0x27] REQ_SET(priority=0x0D, entity_id=Star Sibyl (ID: 17756301/0x010EF08D), tag_num=0x0B)
190: 0x058C [0x27] REQ_SET(priority=0x0B, entity_id=Ajido-Marujido (ID: 17756177/0x010EF011), tag_num=0x46)
191: 0x0593 [0x1C] WAIT(60* ticks)
192: 0x0596 [0x45] LOAD_SCHEDULED_TASK: Load scheduler "fdo1" with entities [LocalPlayer, LocalPlayer], work=[200*, 0*]
193: 0x05A7 [0x27] REQ_SET(priority=0x0B, entity_id=Semih Lafihna (ID: 17756300/0x010EF08C), tag_num=0x03)
194: 0x05AE [0x27] REQ_SET(priority=0x0B, entity_id=Unnamed NPC (ID: 17756299/0x010EF08B), tag_num=0x02)
195: 0x05B5 [0x1C] WAIT(120* ticks)
196: 0x05B8 [0x52] END_LOAD_SCHEDULER: End scheduler "s114" with entities [LocalPlayer, LocalPlayer], work=249*
197: 0x05C7 [0x1C] WAIT(10* ticks)
198: 0x05CA [0x45] LOAD_SCHEDULED_TASK: Load scheduler "s115" with entities [LocalPlayer, LocalPlayer], work=[249*, 0*]
199: 0x05DB [0x45] LOAD_SCHEDULED_TASK: Load scheduler "fdi1" with entities [LocalPlayer, LocalPlayer], work=[200*, 0*]
200: 0x05EC [0x1C] WAIT(160* ticks)
201: 0x05EF [0x79] Semih Lafihna (ID: 17756300/0x010EF08C) looks at Ajido-Marujido (ID: 17756177/0x010EF011) (Basic look)
202: 0x05F9 [0x1C] WAIT(15* ticks)
203: 0x05FC [0x45] LOAD_SCHEDULED_TASK: Load scheduler "fdo1" with entities [LocalPlayer, LocalPlayer], work=[200*, 0*]
204: 0x060D [0x1C] WAIT(120* ticks)
205: 0x0610 [0x2A] GET_REQ_LEVEL(level=11, entity_id=Semih Lafihna (ID: 17756300/0x010EF08C))
206: 0x0616 [0x6F] WAIT_FRAME_DELAY: Yield until WaitTime reaches zero
207: 0x0617 [0x76] CHECK_ENTITY_RENDER_FLAGS: Wait until Semih Lafihna (ID: 17756300/0x010EF08C) Render.Flags0 and Render.Flags3 conditions are met
208: 0x061C [0x2A] GET_REQ_LEVEL(level=13, entity_id=Star Sibyl (ID: 17756301/0x010EF08D))
209: 0x0622 [0x52] END_LOAD_SCHEDULER: End scheduler "s115" with entities [LocalPlayer, LocalPlayer], work=249*
210: 0x0631 [0x45] LOAD_SCHEDULED_TASK: Load scheduler "s116" with entities [LocalPlayer, LocalPlayer], work=[249*, 0*]
211: 0x0642 [0x45] LOAD_SCHEDULED_TASK: Load scheduler "fdi1" with entities [LocalPlayer, LocalPlayer], work=[200*, 0*]
212: 0x0653 [0x67] HIDE_HUD_ELEMENTS(param1=0x8008, param2=0x8004)
213: 0x0658 [0x48] [System] [9064*]:
    → "V $3P Once again, a star of hope has been born to this earth..."
214: 0x065B [0x23] WAIT_FOR_DIALOG_INTERACTION
215: 0x065C [0x1C] WAIT(200* ticks)
216: 0x065F [0x45] LOAD_SCHEDULED_TASK: Load scheduler "fdo1" with entities [LocalPlayer, LocalPlayer], work=[200*, 0*]
217: 0x0670 [0x1C] WAIT(200* ticks)
218: 0x0673 [0x52] END_LOAD_SCHEDULER: End scheduler "s116" with entities [LocalPlayer, LocalPlayer], work=249*
219: 0x0682 [0x67] HIDE_HUD_ELEMENTS(param1=0x8004, param2=0x8008)
220: 0x0687 [0x48] [System] [9065*]:
    → "R $3TA new tale will begin here, woven by the myriad stars of this universe..."
221: 0x068A [0x23] WAIT_FOR_DIALOG_INTERACTION
222: 0x068B [0x5D] SET_MUSIC_VOLUME(volume=0*, fade_time=200*)
223: 0x0690 [0x1C] WAIT(200* ticks)
224: 0x0693 [0x35] LOAD_ZONE_NO_CLOSE(zone_id=239*)
225: 0x0696 [0x78] ENABLE_GAME_TIMER_RESET_WEATHER()
226: 0x0697 [0x1C] WAIT(200* ticks)
227: 0x069A [0x29] REQ_SET_WAIT(priority=0x0B, entity_id=LocalPlayer, tag_num=0x52)
228: 0x06A1 [0x4E] SET_ENTITY_HIDE_FLAG: Show LocalPlayer
229: 0x06A7 [0x80] LOAD_WAIT(entity=LocalPlayer)
230: 0x06AC [0xA6] REQUEST_EVENT_MAP_NUMBER: Request map info from server (mode 0) (0x00EB packet)
231: 0x06AE [0xA6] REQUEST_EVENT_MAP_NUMBER: Request map info from server (mode 1) (0x00EB packet)
232: 0x06B0 [0xA6] REQUEST_EVENT_MAP_NUMBER: Work_Zone[6] = CurrentSubMapNum (mode 2)
233: 0x06B4 [0x1C] WAIT(1* ticks)
234: 0x06B7 [0x75] LOAD_ROOM(Load indoor room, room=Work_Zone[6])
235: 0x06BB [0x75] LOAD_ROOM(No action)
236: 0x06BD [0x5C] MUSIC_CONTROL: Set Idle (Day) music to song 151*
237: 0x06C1 [0x5C] MUSIC_CONTROL: Set Idle (Night) music to song 151*
238: 0x06C5 [0x1C] WAIT(100* ticks)
239: 0x06C8 [0x68] SHOW_HUD_ELEMENTS()
240: 0x06C9 [0x46] CAMERA_CONTROL: Restore default settings
241: 0x06CB [0x1C] WAIT(100* ticks)
242: 0x06CE [0x45] LOAD_SCHEDULED_TASK: Load scheduler "fdi1" with entities [LocalPlayer, LocalPlayer], work=[200*, 0*]
243: 0x06DF [0x1C] WAIT(200* ticks)
244: 0x06E2 [0x7D] LOAD_START_SCHEDULER_PLAYER: Load scheduler with animation_id 32795
245: 0x06E5 [0x45] LOAD_SCHEDULED_TASK: Load scheduler "qstc" with entities [LocalPlayer, LocalPlayer], work=[201*, 0*]
246: 0x06F6 [0x1C] WAIT(240* ticks)
247: 0x06F9 [0x20] SET_CLI_EVENT_UC_FLAG: Unlock player control
248: 0x06FB [0x21] END_EVENT
249: 0x06FC [0x00] END_REQSTACK()
```

### Event 529

#### Metadata

| Field        | Value      |
|--------------|------------|
| Entrypoint   | 0x06FD     |
| Data Size    | 6397 bytes |
| Instructions | 670        |

```
      00 01 02 03 04 05 06 07  08 09 0A 0B 0C 0D 0E 0F
      -- -- -- -- -- -- -- --  -- -- -- -- -- -- -- --
06F0:                                         03 00 00               ...
0700: 05 10 03 01 00 09 10 03  01 10 19 80 02 01 00 01  ................
0710: 80 00 5B 07 66 1E 80 1A  F0 0E 01 1A F0 0E 01 6E  ..[.f..........n
0720: 6D 6F 30 2B 1A F0 0E 01  1F 80 23 2B 1A F0 0E 01  mo0+......#+....
0730: 20 80 23 66 0A 80 1A F0  0E 01 1A F0 0E 01 74 68   .#f..........th
0740: 6B 31 03 03 10 21 80 2B  1A F0 0E 01 22 80 23 03  k1...!.+....".#.
0750: 01 10 19 80 20 00 21 00  01 F6 1F 42 5D 01 80 00  .... .!....B]...
0760: 80 45 00 80 F0 FF FF 7F  F0 FF FF 7F 66 64 6F 31  .E..........fdo1
0770: 01 80 55 00 80 F0 FF FF  7F F0 FF FF 7F 66 64 6F  ..U..........fdo
0780: 31 46 01 38 23 80 75 00  24 80 75 01 92 01 1A F0  1F.8#.u.$.u.....
0790: 0E 01 94 01 1A F0 0E 01  BA F0 FF FF 7F 25 80 26  .............%.&
07A0: 80 27 80 28 80 80 1A F0  0E 01 29 08 75 F0 0E 01  .'.(......).u...
07B0: 09 4A F0 FF FF 7F 1A F0  0E 01 45 29 80 F8 FF FF  .J........E)....
07C0: 7F F8 FF FF 7F 73 31 32  32 01 80 1C 15 80 45 00  .....s122.....E.
07D0: 80 F8 FF FF 7F F8 FF FF  7F 66 64 69 31 01 80 66  .........fdi1..f
07E0: 1E 80 1A F0 0E 01 1A F0  0E 01 6E 6D 6F 30 2B 1A  ..........nmo0+.
07F0: F0 0E 01 1F 80 23 2B 1A  F0 0E 01 20 80 23 53 1A  .....#+.... .#S.
0800: F0 0E 01 1A F0 0E 01 6E  6D 6F 30 5C 00 2A 80 5C  .......nmo0\.*.\
0810: 01 2A 80 9A 5D 2B 80 19  80 1C 2C 80 52 29 80 F8  .*..]+....,.R)..
0820: FF FF 7F F8 FF FF 7F 73  31 32 32 03 02 10 87 7F  .......s122.....
0830: 02 02 10 2D 80 00 4C 08  45 29 80 F8 FF FF 7F F8  ...-..L.E)......
0840: FF FF 7F 73 31 39 30 01  80 01 79 08 02 02 10 2E  ...s190...y.....
0850: 80 00 68 08 45 29 80 F8  FF FF 7F F8 FF FF 7F 73  ..h.E).........s
0860: 31 39 30 01 80 01 79 08  45 29 80 F8 FF FF 7F F8  190...y.E)......
0870: FF FF 7F 73 31 32 33 01  80 4A 1A F0 0E 01 F0 FF  ...s123..J......
0880: FF 7F 1C 09 80 2B 1A F0  0E 01 2F 80 23 66 0A 80  .....+..../.#f..
0890: 1A F0 0E 01 1A F0 0E 01  74 6C 6B 30 2B 1A F0 0E  ........tlk0+...
08A0: 01 30 80 23 2B 1A F0 0E  01 31 80 23 53 1A F0 0E  .0.#+....1.#S...
08B0: 01 1A F0 0E 01 74 6C 6B  30 66 0A 80 1A F0 0E 01  .....tlk0f......
08C0: 1A F0 0E 01 74 6C 6B 31  53 1A F0 0E 01 1A F0 0E  ....tlk1S.......
08D0: 01 74 6C 6B 31 02 02 10  2E 80 00 EF 08 52 29 80  .tlk1........R).
08E0: F8 FF FF 7F F8 FF FF 7F  73 31 39 30 01 18 09 02  ........s190....
08F0: 02 10 32 80 00 09 09 52  29 80 F8 FF FF 7F F8 FF  ..2....R).......
0900: FF 7F 73 31 39 30 01 18  09 52 29 80 F8 FF FF 7F  ..s190...R).....
0910: F8 FF FF 7F 73 31 32 33  03 03 10 01 80 02 02 10  ....s123........
0920: 2D 80 00 39 09 45 29 80  F8 FF FF 7F F8 FF FF 7F  -..9.E).........
0930: 73 31 39 31 01 80 01 66  09 02 02 10 2E 80 00 55  s191...f.......U
0940: 09 45 29 80 F8 FF FF 7F  F8 FF FF 7F 73 31 39 31  .E).........s191
0950: 01 80 01 66 09 45 29 80  F8 FF FF 7F F8 FF FF 7F  ...f.E).........
0960: 73 31 32 34 01 80 24 33  80 01 80 03 10 25 02 00  s124..$3.....%..
0970: 10 01 80 00 75 1E 02 02  10 2D 80 00 90 09 52 29  ....u....-....R)
0980: 80 F8 FF FF 7F F8 FF FF  7F 73 31 39 31 01 B9 09  .........s191...
0990: 02 02 10 2E 80 00 AA 09  52 29 80 F8 FF FF 7F F8  ........R)......
09A0: FF FF 7F 73 31 39 31 01  B9 09 52 29 80 F8 FF FF  ...s191...R)....
09B0: 7F F8 FF FF 7F 73 31 32  34 45 29 80 F8 FF FF 7F  .....s124E).....
09C0: F8 FF FF 7F 73 31 32 37  01 80 66 0A 80 1A F0 0E  ....s127..f.....
09D0: 01 1A F0 0E 01 74 6C 6B  30 2B 1A F0 0E 01 34 80  .....tlk0+....4.
09E0: 23 2B 1A F0 0E 01 35 80  23 53 1A F0 0E 01 1A F0  #+....5.#S......
09F0: 0E 01 74 6C 6B 30 66 0A  80 1A F0 0E 01 1A F0 0E  ..tlk0f.........
0A00: 01 74 6C 6B 31 53 1A F0  0E 01 1A F0 0E 01 74 6C  .tlk1S........tl
0A10: 6B 31 52 29 80 F8 FF FF  7F F8 FF FF 7F 73 31 32  k1R).........s12
0A20: 37 02 87 7F 2D 80 80 3D  0A 45 29 80 F8 FF FF 7F  7...-..=.E).....
0A30: F8 FF FF 7F 73 31 32 39  01 80 01 6A 0A 02 87 7F  ....s129...j....
0A40: 2E 80 80 59 0A 45 29 80  F8 FF FF 7F F8 FF FF 7F  ...Y.E).........
0A50: 73 31 32 39 01 80 01 6A  0A 45 29 80 F8 FF FF 7F  s129...j.E).....
0A60: F8 FF FF 7F 73 31 32 38  01 80 24 36 80 01 80 01  ....s128..$6....
0A70: 80 25 02 00 10 01 80 00  7D 0A 01 88 0A 02 00 10  .%......}.......
0A80: 19 80 00 88 0A 01 88 0A  52 29 80 F8 FF FF 7F F8  ........R)......
0A90: FF FF 7F 73 31 32 38 52  29 80 F8 FF FF 7F F8 FF  ...s128R).......
0AA0: FF 7F 73 31 32 39 45 29  80 F8 FF FF 7F F8 FF FF  ..s129E)........
0AB0: 7F 73 31 33 30 01 80 66  0A 80 1A F0 0E 01 1A F0  .s130..f........
0AC0: 0E 01 64 69 73 30 2B 1A  F0 0E 01 37 80 23 2B 1A  ..dis0+....7.#+.
0AD0: F0 0E 01 38 80 23 53 1A  F0 0E 01 1A F0 0E 01 64  ...8.#S........d
0AE0: 69 73 30 52 29 80 F8 FF  FF 7F F8 FF FF 7F 73 31  is0R).........s1
0AF0: 33 30 02 01 00 2C 80 00  25 0B 45 29 80 F8 FF FF  30...,..%.E)....
0B00: 7F F8 FF FF 7F 73 31 33  31 01 80 66 0A 80 1A F0  .....s131..f....
0B10: 0E 01 1A F0 0E 01 74 6C  6B 30 2B 1A F0 0E 01 39  ......tlk0+....9
0B20: 80 23 01 45 0B 45 29 80  F8 FF FF 7F F8 FF FF 7F  .#.E.E).........
0B30: 73 31 33 31 01 80 66 0A  80 1A F0 0E 01 1A F0 0E  s131..f.........
0B40: 01 74 6C 6B 30 2B 1A F0  0E 01 3A 80 23 2B 1A F0  .tlk0+....:.#+..
0B50: 0E 01 3B 80 23 66 0A 80  1A F0 0E 01 1A F0 0E 01  ..;.#f..........
0B60: 74 6C 6B 31 53 1A F0 0E  01 1A F0 0E 01 74 6C 6B  tlk1S........tlk
0B70: 31 52 29 80 F8 FF FF 7F  F8 FF FF 7F 73 31 33 31  1R).........s131
0B80: 45 29 80 F8 FF FF 7F F8  FF FF 7F 73 31 33 32 01  E).........s132.
0B90: 80 27 05 1A F0 0E 01 CE  2B 1A F0 0E 01 3C 80 23  .'......+....<.#
0BA0: 2B 1A F0 0E 01 3D 80 23  2A 05 1A F0 0E 01 52 29  +....=.#*.....R)
0BB0: 80 F8 FF FF 7F F8 FF FF  7F 73 31 33 32 02 02 10  .........s132...
0BC0: 2D 80 00 D9 0B 45 29 80  F8 FF FF 7F F8 FF FF 7F  -....E).........
0BD0: 73 31 39 32 01 80 01 06  0C 02 02 10 2E 80 00 F5  s192............
0BE0: 0B 45 29 80 F8 FF FF 7F  F8 FF FF 7F 73 31 39 32  .E).........s192
0BF0: 01 80 01 06 0C 45 29 80  F8 FF FF 7F F8 FF FF 7F  .....E).........
0C00: 73 31 33 33 01 80 4A 1A  F0 0E 01 F0 FF FF 7F 1C  s133..J.........
0C10: 09 80 66 0A 80 1A F0 0E  01 1A F0 0E 01 74 6C 6B  ..f..........tlk
0C20: 30 2B 1A F0 0E 01 3E 80  23 66 0A 80 1A F0 0E 01  0+....>.#f......
0C30: 1A F0 0E 01 74 6C 6B 31  24 3F 80 01 80 01 80 25  ....tlk1$?.....%
0C40: 02 00 10 01 80 00 C3 0C  02 02 10 2D 80 00 62 0C  ...........-..b.
0C50: 52 29 80 F8 FF FF 7F F8  FF FF 7F 73 31 39 32 01  R).........s192.
0C60: 8B 0C 02 02 10 2E 80 00  7C 0C 52 29 80 F8 FF FF  ........|.R)....
0C70: 7F F8 FF FF 7F 73 31 39  32 01 8B 0C 52 29 80 F8  .....s192...R)..
0C80: FF FF 7F F8 FF FF 7F 73  31 33 33 45 29 80 F8 FF  .......s133E)...
0C90: FF 7F F8 FF FF 7F 73 31  33 34 01 80 66 0A 80 1A  ......s134..f...
0CA0: F0 0E 01 1A F0 0E 01 64  69 73 30 2B 1A F0 0E 01  .......dis0+....
0CB0: 40 80 23 53 1A F0 0E 01  1A F0 0E 01 64 69 73 30  @.#S........dis0
0CC0: 01 46 0D 02 00 10 19 80  00 46 0D 02 02 10 2D 80  .F.......F....-.
0CD0: 00 E5 0C 52 29 80 F8 FF  FF 7F F8 FF FF 7F 73 31  ...R).........s1
0CE0: 39 32 01 0E 0D 02 02 10  2E 80 00 FF 0C 52 29 80  92...........R).
0CF0: F8 FF FF 7F F8 FF FF 7F  73 31 39 32 01 0E 0D 52  ........s192...R
0D00: 29 80 F8 FF FF 7F F8 FF  FF 7F 73 31 33 33 45 29  ).........s133E)
0D10: 80 F8 FF FF 7F F8 FF FF  7F 73 31 33 34 01 80 66  .........s134..f
0D20: 0A 80 1A F0 0E 01 1A F0  0E 01 64 69 73 30 2B 1A  ..........dis0+.
0D30: F0 0E 01 41 80 23 53 1A  F0 0E 01 1A F0 0E 01 64  ...A.#S........d
0D40: 69 73 30 01 46 0D 52 29  80 F8 FF FF 7F F8 FF FF  is0.F.R)........
0D50: 7F 73 31 33 34 02 02 10  2D 80 00 71 0D 45 29 80  .s134...-..q.E).
0D60: F8 FF FF 7F F8 FF FF 7F  73 31 39 33 01 80 01 9E  ........s193....
0D70: 0D 02 02 10 2E 80 00 8D  0D 45 29 80 F8 FF FF 7F  .........E).....
0D80: F8 FF FF 7F 73 31 39 33  01 80 01 9E 0D 45 29 80  ....s193.....E).
0D90: F8 FF FF 7F F8 FF FF 7F  73 31 33 35 01 80 66 0A  ........s135..f.
0DA0: 80 1A F0 0E 01 1A F0 0E  01 74 6C 6B 30 2B 1A F0  .........tlk0+..
0DB0: 0E 01 42 80 23 2B 1A F0  0E 01 43 80 23 53 1A F0  ..B.#+....C.#S..
0DC0: 0E 01 1A F0 0E 01 74 6C  6B 30 66 0A 80 1A F0 0E  ......tlk0f.....
0DD0: 01 1A F0 0E 01 74 6C 6B  31 53 1A F0 0E 01 1A F0  .....tlk1S......
0DE0: 0E 01 74 6C 6B 31 02 02  10 2D 80 00 00 0E 52 29  ..tlk1...-....R)
0DF0: 80 F8 FF FF 7F F8 FF FF  7F 73 31 39 33 01 29 0E  .........s193.).
0E00: 02 02 10 2E 80 00 1A 0E  52 29 80 F8 FF FF 7F F8  ........R)......
0E10: FF FF 7F 73 31 39 33 01  29 0E 52 29 80 F8 FF FF  ...s193.).R)....
0E20: 7F F8 FF FF 7F 73 31 33  35 45 29 80 F8 FF FF 7F  .....s135E).....
0E30: F8 FF FF 7F 73 30 30 32  01 80 2B 1A F0 0E 01 44  ....s002..+....D
0E40: 80 23 66 0A 80 1A F0 0E  01 1A F0 0E 01 74 68 6B  .#f..........thk
0E50: 31 52 29 80 F8 FF FF 7F  F8 FF FF 7F 73 30 30 32  1R).........s002
0E60: 45 29 80 F8 FF FF 7F F8  FF FF 7F 73 31 33 36 01  E).........s136.
0E70: 80 2B 1A F0 0E 01 45 80  23 53 1A F0 0E 01 1A F0  .+....E.#S......
0E80: 0E 01 74 68 6B 31 52 29  80 F8 FF FF 7F F8 FF FF  ..thk1R)........
0E90: 7F 73 31 33 36 45 29 80  F8 FF FF 7F F8 FF FF 7F  .s136E).........
0EA0: 73 31 33 37 01 80 66 0A  80 1A F0 0E 01 1A F0 0E  s137..f.........
0EB0: 01 74 68 6B 32 2B 1A F0  0E 01 46 80 23 53 1A F0  .thk2+....F.#S..
0EC0: 0E 01 1A F0 0E 01 74 68  6B 32 66 0A 80 1A F0 0E  ......thk2f.....
0ED0: 01 1A F0 0E 01 74 6C 6B  30 2B 1A F0 0E 01 47 80  .....tlk0+....G.
0EE0: 23 53 1A F0 0E 01 1A F0  0E 01 74 6C 6B 30 52 29  #S........tlk0R)
0EF0: 80 F8 FF FF 7F F8 FF FF  7F 73 31 33 37 45 29 80  .........s137E).
0F00: F8 FF FF 7F F8 FF FF 7F  73 30 30 31 01 80 2B 1A  ........s001..+.
0F10: F0 0E 01 48 80 23 52 29  80 F8 FF FF 7F F8 FF FF  ...H.#R)........
0F20: 7F 73 30 30 31 02 02 10  03 80 00 41 0F 45 29 80  .s001......A.E).
0F30: F8 FF FF 7F F8 FF FF 7F  73 30 30 34 01 80 01 C2  ........s004....
0F40: 0F 02 02 10 49 80 00 5D  0F 45 29 80 F8 FF FF 7F  ....I..].E).....
0F50: F8 FF FF 7F 73 30 30 34  01 80 01 C2 0F 02 02 10  ....s004........
0F60: 2D 80 00 79 0F 45 29 80  F8 FF FF 7F F8 FF FF 7F  -..y.E).........
0F70: 73 31 39 32 01 80 01 C2  0F 02 02 10 2E 80 00 95  s192............
0F80: 0F 45 29 80 F8 FF FF 7F  F8 FF FF 7F 73 31 39 32  .E).........s192
0F90: 01 80 01 C2 0F 02 02 10  32 80 00 B1 0F 45 29 80  ........2....E).
0FA0: F8 FF FF 7F F8 FF FF 7F  73 30 30 34 01 80 01 C2  ........s004....
0FB0: 0F 45 29 80 F8 FF FF 7F  F8 FF FF 7F 73 31 33 38  .E).........s138
0FC0: 01 80 2B 1A F0 0E 01 4A  80 23 2B 1A F0 0E 01 4B  ..+....J.#+....K
0FD0: 80 23 2B 1A F0 0E 01 4C  80 23 02 02 10 03 80 00  .#+....L.#......
0FE0: F4 0F 52 29 80 F8 FF FF  7F F8 FF FF 7F 73 30 30  ..R).........s00
0FF0: 34 01 6B 10 02 02 10 49  80 00 0E 10 52 29 80 F8  4.k....I....R)..
1000: FF FF 7F F8 FF FF 7F 73  30 30 34 01 6B 10 02 02  .......s004.k...
1010: 10 2D 80 00 28 10 52 29  80 F8 FF FF 7F F8 FF FF  .-..(.R)........
1020: 7F 73 31 39 32 01 6B 10  02 02 10 2E 80 00 42 10  .s192.k.......B.
1030: 52 29 80 F8 FF FF 7F F8  FF FF 7F 73 31 39 32 01  R).........s192.
1040: 6B 10 02 02 10 32 80 00  5C 10 52 29 80 F8 FF FF  k....2..\.R)....
1050: 7F F8 FF FF 7F 73 30 30  34 01 6B 10 52 29 80 F8  .....s004.k.R)..
1060: FF FF 7F F8 FF FF 7F 73  31 33 38 45 29 80 F8 FF  .......s138E)...
1070: FF 7F F8 FF FF 7F 73 31  33 39 01 80 66 0A 80 1A  ......s139..f...
1080: F0 0E 01 1A F0 0E 01 74  6C 6B 31 2B 1A F0 0E 01  .......tlk1+....
1090: 4D 80 23 52 29 80 F8 FF  FF 7F F8 FF FF 7F 73 31  M.#R).........s1
10A0: 33 39 45 29 80 F8 FF FF  7F F8 FF FF 7F 73 31 34  39E).........s14
10B0: 30 01 80 27 05 1A F0 0E  01 CF 7B 1A F0 0E 01 2B  0..'......{....+
10C0: 1A F0 0E 01 4E 80 23 2A  05 1A F0 0E 01 1C 02 80  ....N.#*........
10D0: 52 29 80 F8 FF FF 7F F8  FF FF 7F 73 31 34 30 45  R).........s140E
10E0: 29 80 F8 FF FF 7F F8 FF  FF 7F 73 30 30 33 01 80  ).........s003..
10F0: 6E 1A F0 0E 01 4F 80 99  1A F0 0E 01 2B 1A F0 0E  n....O......+...
1100: 01 50 80 1C 0E 80 23 52  29 80 F8 FF FF 7F F8 FF  .P....#R).......
1110: FF 7F 73 30 30 33 02 02  10 03 80 00 32 11 45 29  ..s003......2.E)
1120: 80 F8 FF FF 7F F8 FF FF  7F 73 30 30 35 01 80 01  .........s005...
1130: 97 11 02 02 10 2D 80 00  4E 11 45 29 80 F8 FF FF  .....-..N.E)....
1140: 7F F8 FF FF 7F 73 31 39  34 01 80 01 97 11 02 02  .....s194.......
1150: 10 2E 80 00 6A 11 45 29  80 F8 FF FF 7F F8 FF FF  ....j.E)........
1160: 7F 73 31 39 34 01 80 01  97 11 02 02 10 32 80 00  .s194........2..
1170: 86 11 45 29 80 F8 FF FF  7F F8 FF FF 7F 73 30 30  ..E).........s00
1180: 35 01 80 01 97 11 45 29  80 F8 FF FF 7F F8 FF FF  5.....E)........
1190: 7F 73 31 34 31 01 80 4A  1A F0 0E 01 F0 FF FF 7F  .s141..J........
11A0: 1C 09 80 7C 00 1A F0 0E  01 66 51 80 1A F0 0E 01  ...|.....fQ.....
11B0: 1A F0 0E 01 6F 68 68 30  2B 1A F0 0E 01 52 80 23  ....ohh0+....R.#
11C0: 02 02 10 03 80 00 DA 11  52 29 80 F8 FF FF 7F F8  ........R)......
11D0: FF FF 7F 73 30 30 35 01  37 12 02 02 10 2D 80 00  ...s005.7....-..
11E0: F4 11 52 29 80 F8 FF FF  7F F8 FF FF 7F 73 31 39  ..R).........s19
11F0: 34 01 37 12 02 02 10 2E  80 00 0E 12 52 29 80 F8  4.7.........R)..
1200: FF FF 7F F8 FF FF 7F 73  31 39 34 01 37 12 02 02  .......s194.7...
1210: 10 32 80 00 28 12 52 29  80 F8 FF FF 7F F8 FF FF  .2..(.R)........
1220: 7F 73 30 30 35 01 37 12  52 29 80 F8 FF FF 7F F8  .s005.7.R)......
1230: FF FF 7F 73 31 34 31 45  29 80 F8 FF FF 7F F8 FF  ...s141E).......
1240: FF 7F 73 31 34 32 01 80  2B 1A F0 0E 01 53 80 23  ..s142..+....S.#
1250: 5D 01 80 00 80 45 00 80  F8 FF FF 7F F8 FF FF 7F  ]....E..........
1260: 66 64 6F 31 01 80 1C 0B  80 1C 00 80 52 29 80 F8  fdo1........R)..
1270: FF FF 7F F8 FF FF 7F 73  31 34 32 6B 69 64 6C 30  .......s142kidl0
1280: 1A F0 0E 01 1C 0B 80 45  29 80 F8 FF FF 7F F8 FF  .......E).......
1290: FF 7F 73 65 30 31 01 80  45 29 80 F8 FF FF 7F F8  ..se01..E)......
12A0: FF FF 7F 73 31 34 33 01  80 1C 15 80 45 00 80 F8  ...s143.....E...
12B0: FF FF 7F F8 FF FF 7F 66  64 69 31 01 80 66 0A 80  .......fdi1..f..
12C0: 1A F0 0E 01 1A F0 0E 01  74 68 6B 31 7C 00 1A F0  ........thk1|...
12D0: 0E 01 1C 00 80 2B 1A F0  0E 01 54 80 23 7C 01 1A  .....+....T.#|..
12E0: F0 0E 01 2B 1A F0 0E 01  55 80 23 53 1A F0 0E 01  ...+....U.#S....
12F0: 1A F0 0E 01 74 68 6B 31  52 29 80 F8 FF FF 7F F8  ....thk1R)......
1300: FF FF 7F 73 31 34 33 45  29 80 F8 FF FF 7F F8 FF  ...s143E).......
1310: FF 7F 73 31 34 34 01 80  66 0A 80 1A F0 0E 01 1A  ..s144..f.......
1320: F0 0E 01 74 68 6B 32 2B  1A F0 0E 01 56 80 23 53  ...thk2+....V.#S
1330: 1A F0 0E 01 1A F0 0E 01  74 68 6B 32 45 00 80 F8  ........thk2E...
1340: FF FF 7F F8 FF FF 7F 66  64 6F 31 01 80 1C 04 80  .......fdo1.....
1350: 5C 00 2B 80 5C 01 2B 80  9A 5D 2B 80 19 80 1C 2C  \.+.\.+..]+....,
1360: 80 52 29 80 F8 FF FF 7F  F8 FF FF 7F 73 31 34 34  .R).........s144
1370: 66 0A 80 1A F0 0E 01 1A  F0 0E 01 74 68 6B 31 9F  f..........thk1.
1380: 57 80 F8 FF FF 7F F8 FF  FF 7F 62 6C 30 30 01 80  W.........bl00..
1390: 1C 0B 80 45 29 80 F8 FF  FF 7F F8 FF FF 7F 73 31  ...E).........s1
13A0: 34 35 01 80 45 00 80 F8  FF FF 7F F8 FF FF 7F 66  45..E..........f
13B0: 64 69 31 01 80 55 00 80  F8 FF FF 7F F8 FF FF 7F  di1..U..........
13C0: 66 64 69 31 2B 1A F0 0E  01 58 80 9F 57 80 F8 FF  fdi1+....X..W...
13D0: FF 7F F8 FF FF 7F 6F 70  65 6E 01 80 1C 59 80 9F  ......open...Y..
13E0: 57 80 F8 FF FF 7F F8 FF  FF 7F 63 6C 6F 73 01 80  W.........clos..
13F0: 1C 04 80 45 00 80 F8 FF  FF 7F F8 FF FF 7F 66 64  ...E..........fd
1400: 6F 31 01 80 55 00 80 F8  FF FF 7F F8 FF FF 7F 66  o1..U..........f
1410: 64 6F 31 52 29 80 F8 FF  FF 7F F8 FF FF 7F 73 31  do1R).........s1
1420: 34 35 9F 57 80 F8 FF FF  7F F8 FF FF 7F 6B 69 6C  45.W.........kil
1430: 6C 01 80 1C 09 80 23 9F  57 80 F8 FF FF 7F F8 FF  l.....#.W.......
1440: FF 7F 62 6C 30 30 01 80  1C 0B 80 45 29 80 F8 FF  ..bl00.....E)...
1450: FF 7F F8 FF FF 7F 73 31  34 36 01 80 45 00 80 F8  ......s146..E...
1460: FF FF 7F F8 FF FF 7F 66  64 69 31 01 80 55 00 80  .......fdi1..U..
1470: F8 FF FF 7F F8 FF FF 7F  66 64 69 31 2B 1A F0 0E  ........fdi1+...
1480: 01 5A 80 9F 57 80 F8 FF  FF 7F F8 FF FF 7F 6F 70  .Z..W.........op
1490: 65 6E 01 80 1C 59 80 9F  57 80 F8 FF FF 7F F8 FF  en...Y..W.......
14A0: FF 7F 63 6C 6F 73 01 80  1C 04 80 45 00 80 F8 FF  ..clos.....E....
14B0: FF 7F F8 FF FF 7F 66 64  6F 31 01 80 55 00 80 F8  ......fdo1..U...
14C0: FF FF 7F F8 FF FF 7F 66  64 6F 31 52 29 80 F8 FF  .......fdo1R)...
14D0: FF 7F F8 FF FF 7F 73 31  34 36 9F 57 80 F8 FF FF  ......s146.W....
14E0: 7F F8 FF FF 7F 6B 69 6C  6C 01 80 1C 09 80 23 45  .....kill.....#E
14F0: 29 80 F8 FF FF 7F F8 FF  FF 7F 73 31 34 37 01 80  ).........s147..
1500: 1C 15 80 45 00 80 F8 FF  FF 7F F8 FF FF 7F 66 64  ...E..........fd
1510: 69 31 01 80 27 05 F0 FF  FF 7F 76 1C 08 80 27 05  i1..'.....v...'.
1520: F0 FF FF 7F 77 1C 0A 80  66 0A 80 1A F0 0E 01 1A  ....w...f.......
1530: F0 0E 01 74 68 6B 32 2B  1A F0 0E 01 5B 80 23 53  ...thk2+....[.#S
1540: 1A F0 0E 01 1A F0 0E 01  74 68 6B 32 7C 00 1A F0  ........thk2|...
1550: 0E 01 66 51 80 1A F0 0E  01 1A F0 0E 01 6F 68 68  ..fQ.........ohh
1560: 30 2B 1A F0 0E 01 5C 80  23 53 1A F0 0E 01 1A F0  0+....\.#S......
1570: 0E 01 6F 68 68 30 66 51  80 1A F0 0E 01 1A F0 0E  ..ohh0fQ........
1580: 01 6F 68 68 31 53 1A F0  0E 01 1A F0 0E 01 6F 68  .ohh1S........oh
1590: 68 31 7C 01 1A F0 0E 01  52 29 80 F8 FF FF 7F F8  h1|.....R)......
15A0: FF FF 7F 73 31 34 37 03  06 10 01 80 03 04 10 01  ...s147.........
15B0: 80 3E 00 00 19 80 52 16  45 29 80 F8 FF FF 7F F8  .>....R.E)......
15C0: FF FF 7F 73 31 34 38 01  80 66 0A 80 1A F0 0E 01  ...s148..f......
15D0: 1A F0 0E 01 74 6C 6B 30  2B 1A F0 0E 01 5D 80 23  ....tlk0+....].#
15E0: 2B 1A F0 0E 01 5E 80 23  53 1A F0 0E 01 1A F0 0E  +....^.#S.......
15F0: 01 74 6C 6B 30 52 29 80  F8 FF FF 7F F8 FF FF 7F  .tlk0R).........
1600: 73 31 34 38 45 29 80 F8  FF FF 7F F8 FF FF 7F 73  s148E).........s
1610: 31 34 39 01 80 2B 1A F0  0E 01 5F 80 23 66 0A 80  149..+...._.#f..
1620: 1A F0 0E 01 1A F0 0E 01  74 6C 6B 31 53 1A F0 0E  ........tlk1S...
1630: 01 1A F0 0E 01 74 6C 6B  31 03 04 10 19 80 03 06  .....tlk1.......
1640: 10 19 80 52 29 80 F8 FF  FF 7F F8 FF FF 7F 73 31  ...R).........s1
1650: 34 39 3E 00 00 2C 80 17  17 45 29 80 F8 FF FF 7F  49>..,...E).....
1660: F8 FF FF 7F 73 31 35 30  01 80 66 0A 80 1A F0 0E  ....s150..f.....
1670: 01 1A F0 0E 01 74 6C 6B  30 2B 1A F0 0E 01 60 80  .....tlk0+....`.
1680: 23 2B 1A F0 0E 01 61 80  23 53 1A F0 0E 01 1A F0  #+....a.#S......
1690: 0E 01 74 6C 6B 30 66 0A  80 1A F0 0E 01 1A F0 0E  ..tlk0f.........
16A0: 01 74 6C 6B 31 53 1A F0  0E 01 1A F0 0E 01 74 6C  .tlk1S........tl
16B0: 6B 31 7C 00 1A F0 0E 01  66 51 80 1A F0 0E 01 1A  k1|.....fQ......
16C0: F0 0E 01 6F 68 68 30 2B  1A F0 0E 01 62 80 23 53  ...ohh0+....b.#S
16D0: 1A F0 0E 01 1A F0 0E 01  6F 68 68 30 66 51 80 1A  ........ohh0fQ..
16E0: F0 0E 01 1A F0 0E 01 6F  68 68 31 53 1A F0 0E 01  .......ohh1S....
16F0: 1A F0 0E 01 6F 68 68 31  7C 01 1A F0 0E 01 03 04  ....ohh1|.......
1700: 10 19 80 03 06 10 19 80  52 29 80 F8 FF FF 7F F8  ........R)......
1710: FF FF 7F 73 31 35 30 3E  00 00 03 80 04 18 02 02  ...s150>........
1720: 10 2D 80 00 3A 17 45 29  80 F8 FF FF 7F F8 FF FF  .-..:.E)........
1730: 7F 73 31 39 35 01 80 01  67 17 02 02 10 2E 80 00  .s195...g.......
1740: 56 17 45 29 80 F8 FF FF  7F F8 FF FF 7F 73 31 39  V.E).........s19
1750: 35 01 80 01 67 17 45 29  80 F8 FF FF 7F F8 FF FF  5...g.E)........
1760: 7F 73 31 35 31 01 80 66  0A 80 1A F0 0E 01 1A F0  .s151..f........
1770: 0E 01 74 68 6B 31 2B 1A  F0 0E 01 63 80 23 2B 1A  ..thk1+....c.#+.
1780: F0 0E 01 64 80 23 2B 1A  F0 0E 01 65 80 23 53 1A  ...d.#+....e.#S.
1790: F0 0E 01 1A F0 0E 01 74  68 6B 31 66 0A 80 1A F0  .......thk1f....
17A0: 0E 01 1A F0 0E 01 74 68  6B 32 53 1A F0 0E 01 1A  ......thk2S.....
17B0: F0 0E 01 74 68 6B 32 03  04 10 19 80 03 06 10 01  ...thk2.........
17C0: 80 02 02 10 2D 80 00 DB  17 52 29 80 F8 FF FF 7F  ....-....R).....
17D0: F8 FF FF 7F 73 31 39 35  01 04 18 02 02 10 2E 80  ....s195........
17E0: 00 F5 17 52 29 80 F8 FF  FF 7F F8 FF FF 7F 73 31  ...R).........s1
17F0: 39 35 01 04 18 52 29 80  F8 FF FF 7F F8 FF FF 7F  95...R).........
1800: 73 31 35 31 3E 00 00 49  80 61 18 45 29 80 F8 FF  s151>..I.a.E)...
1810: FF 7F F8 FF FF 7F 73 31  35 32 01 80 2B 1A F0 0E  ......s152..+...
1820: 01 66 80 23 66 0A 80 1A  F0 0E 01 1A F0 0E 01 64  .f.#f..........d
1830: 69 73 30 2B 1A F0 0E 01  67 80 23 53 1A F0 0E 01  is0+....g.#S....
1840: 1A F0 0E 01 64 69 73 30  03 04 10 19 80 03 06 10  ....dis0........
1850: 19 80 52 29 80 F8 FF FF  7F F8 FF FF 7F 73 31 35  ..R).........s15
1860: 32 3E 00 00 2D 80 E2 18  45 29 80 F8 FF FF 7F F8  2>..-...E)......
1870: FF FF 7F 73 31 35 33 01  80 66 0A 80 1A F0 0E 01  ...s153..f......
1880: 1A F0 0E 01 74 6C 6B 30  2B 1A F0 0E 01 68 80 23  ....tlk0+....h.#
1890: 2B 1A F0 0E 01 69 80 23  53 1A F0 0E 01 1A F0 0E  +....i.#S.......
18A0: 01 74 6C 6B 30 66 0A 80  1A F0 0E 01 1A F0 0E 01  .tlk0f..........
18B0: 74 6C 6B 31 2B 1A F0 0E  01 6A 80 23 53 1A F0 0E  tlk1+....j.#S...
18C0: 01 1A F0 0E 01 74 6C 6B  31 03 04 10 19 80 03 06  .....tlk1.......
18D0: 10 01 80 52 29 80 F8 FF  FF 7F F8 FF FF 7F 73 31  ...R).........s1
18E0: 35 33 3E 00 00 2E 80 7A  19 45 29 80 F8 FF FF 7F  53>....z.E).....
18F0: F8 FF FF 7F 73 31 35 34  01 80 66 0A 80 1A F0 0E  ....s154..f.....
1900: 01 1A F0 0E 01 64 69 73  30 2B 1A F0 0E 01 6B 80  .....dis0+....k.
1910: 23 53 1A F0 0E 01 1A F0  0E 01 64 69 73 30 66 0A  #S........dis0f.
1920: 80 1A F0 0E 01 1A F0 0E  01 74 6C 6B 30 2B 1A F0  .........tlk0+..
1930: 0E 01 6C 80 23 2B 1A F0  0E 01 6D 80 23 53 1A F0  ..l.#+....m.#S..
1940: 0E 01 1A F0 0E 01 74 6C  6B 30 66 0A 80 1A F0 0E  ......tlk0f.....
1950: 01 1A F0 0E 01 74 6C 6B  31 53 1A F0 0E 01 1A F0  .....tlk1S......
1960: 0E 01 74 6C 6B 31 03 04  10 19 80 52 29 80 F8 FF  ..tlk1.....R)...
1970: FF 7F F8 FF FF 7F 73 31  35 34 45 29 80 F8 FF FF  ......s154E)....
1980: 7F F8 FF FF 7F 73 31 39  36 01 80 5D 01 80 00 80  .....s196..]....
1990: 66 6E 80 1A F0 0E 01 1A  F0 0E 01 63 61 62 6B 2B  fn.........cabk+
19A0: 1A F0 0E 01 6F 80 1C 05  80 53 1A F0 0E 01 1A F0  ....o....S......
19B0: 0E 01 63 61 62 6B 23 66  6E 80 1A F0 0E 01 1A F0  ..cabk#fn.......
19C0: 0E 01 73 70 65 66 53 1A  F0 0E 01 1A F0 0E 01 73  ..spefS........s
19D0: 70 65 66 6B 69 64 6C 30  1A F0 0E 01 52 29 80 F8  pefkidl0....R)..
19E0: FF FF 7F F8 FF FF 7F 73  31 39 36 45 29 80 F8 FF  .......s196E)...
19F0: FF 7F F8 FF FF 7F 73 31  35 36 01 80 CD 70 80 F0  ......s156...p..
1A00: FF FF 7F F0 FF FF 7F 73  74 61 72 01 80 1C 71 80  .......star...q.
1A10: CD 70 80 F0 FF FF 7F F0  FF FF 7F 73 74 6F 70 01  .p.........stop.
1A20: 80 1C 04 80 45 1C 80 F0  FF FF 7F F0 FF FF 7F 77  ....E..........w
1A30: 68 6F 31 01 80 55 1C 80  F0 FF FF 7F F0 FF FF 7F  ho1..U..........
1A40: 77 68 6F 31 52 29 80 F8  FF FF 7F F8 FF FF 7F 73  who1R).........s
1A50: 31 35 36 2F 00 20 F0 0E  01 4E 00 20 F0 0E 01 92  156/. ...N. ....
1A60: 01 20 F0 0E 01 94 01 20  F0 0E 01 BA 20 F0 0E 01  . ..... .... ...
1A70: 72 80 73 80 27 80 74 80  80 20 F0 0E 01 4A 20 F0  r.s.'.t.. ...J .
1A80: 0E 01 F0 FF FF 7F 4A 1A  F0 0E 01 20 F0 0E 01 4A  ......J.... ...J
1A90: F0 FF FF 7F 20 F0 0E 01  1C 0B 80 45 29 80 F8 FF  .... ......E)...
1AA0: FF 7F F8 FF FF 7F 73 31  35 37 01 80 1C 15 80 45  ......s157.....E
1AB0: 1C 80 F0 FF FF 7F F0 FF  FF 7F 77 68 69 31 01 80  ..........whi1..
1AC0: CD 75 80 20 F0 0E 01 20  F0 0E 01 6D 61 69 6E 01  .u. ... ...main.
1AD0: 80 1C 76 80 52 77 80 F8  FF FF 7F F8 FF FF 7F 73  ..v.Rw.........s
1AE0: 31 35 37 45 29 80 F8 FF  FF 7F F8 FF FF 7F 73 31  157E).........s1
1AF0: 35 38 01 80 2B 1A F0 0E  01 78 80 23 4A F0 FF FF  58..+....x.#J...
1B00: 7F 1A F0 0E 01 7C 00 1A  F0 0E 01 66 51 80 1A F0  .....|.....fQ...
1B10: 0E 01 1A F0 0E 01 6F 68  68 30 2B 1A F0 0E 01 79  ......ohh0+....y
1B20: 80 23 53 1A F0 0E 01 1A  F0 0E 01 6F 68 68 30 66  .#S........ohh0f
1B30: 51 80 1A F0 0E 01 1A F0  0E 01 6F 68 68 31 5C 00  Q.........ohh1\.
1B40: 04 80 5C 01 04 80 9A 5D  2B 80 19 80 1C 2C 80 53  ..\....]+....,.S
1B50: 1A F0 0E 01 1A F0 0E 01  6F 68 68 31 52 29 80 F8  ........ohh1R)..
1B60: FF FF 7F F8 FF FF 7F 73  31 35 38 45 29 80 F8 FF  .......s158E)...
1B70: FF 7F F8 FF FF 7F 73 31  35 39 01 80 4A 1A F0 0E  ......s159..J...
1B80: 01 F0 FF FF 7F 6F 76 1A  F0 0E 01 7C 01 1A F0 0E  .....ov....|....
1B90: 01 66 0A 80 1A F0 0E 01  1A F0 0E 01 74 6C 6B 30  .f..........tlk0
1BA0: 2B 1A F0 0E 01 7A 80 23  53 1A F0 0E 01 1A F0 0E  +....z.#S.......
1BB0: 01 74 6C 6B 30 66 0A 80  1A F0 0E 01 1A F0 0E 01  .tlk0f..........
1BC0: 74 6C 6B 31 53 1A F0 0E  01 1A F0 0E 01 74 6C 6B  tlk1S........tlk
1BD0: 31 52 29 80 F8 FF FF 7F  F8 FF FF 7F 73 31 35 39  1R).........s159
1BE0: 45 29 80 F8 FF FF 7F F8  FF FF 7F 73 31 36 30 01  E).........s160.
1BF0: 80 4A 20 F0 0E 01 1A F0  0E 01 6F 76 20 F0 0E 01  .J .......ov ...
1C00: 4A 1A F0 0E 01 20 F0 0E  01 66 0A 80 20 F0 0E 01  J.... ...f.. ...
1C10: 20 F0 0E 01 74 6C 6B 30  2B 20 F0 0E 01 7B 80 23   ...tlk0+ ...{.#
1C20: 53 20 F0 0E 01 20 F0 0E  01 74 6C 6B 30 66 0A 80  S ... ...tlk0f..
1C30: 20 F0 0E 01 20 F0 0E 01  74 6C 6B 31 66 0A 80 1A   ... ...tlk1f...
1C40: F0 0E 01 1A F0 0E 01 74  68 6B 31 2B 1A F0 0E 01  .......thk1+....
1C50: 7C 80 23 53 20 F0 0E 01  20 F0 0E 01 74 6C 6B 31  |.#S ... ...tlk1
1C60: 52 29 80 F8 FF FF 7F F8  FF FF 7F 73 31 36 30 45  R).........s160E
1C70: 29 80 F8 FF FF 7F F8 FF  FF 7F 73 31 36 31 01 80  ).........s161..
1C80: 4A 20 F0 0E 01 F0 FF FF  7F 79 00 F0 FF FF 7F 20  J .......y..... 
1C90: F0 0E 01 1C 09 80 66 0A  80 20 F0 0E 01 20 F0 0E  ......f.. ... ..
1CA0: 01 74 6C 6B 30 2B 20 F0  0E 01 7D 80 23 53 20 F0  .tlk0+ ...}.#S .
1CB0: 0E 01 20 F0 0E 01 74 6C  6B 30 66 0A 80 20 F0 0E  .. ...tlk0f.. ..
1CC0: 01 20 F0 0E 01 74 6C 6B  31 53 1A F0 0E 01 1A F0  . ...tlk1S......
1CD0: 0E 01 74 68 6B 31 53 20  F0 0E 01 20 F0 0E 01 74  ..thk1S ... ...t
1CE0: 6C 6B 31 52 29 80 F8 FF  FF 7F F8 FF FF 7F 73 31  lk1R).........s1
1CF0: 36 31 02 02 10 2D 80 00  0E 1D 45 29 80 F8 FF FF  61...-....E)....
1D00: 7F F8 FF FF 7F 73 31 39  37 01 80 01 3B 1D 02 02  .....s197...;...
1D10: 10 2E 80 00 2A 1D 45 29  80 F8 FF FF 7F F8 FF FF  ....*.E)........
1D20: 7F 73 31 39 37 01 80 01  3B 1D 45 29 80 F8 FF FF  .s197...;.E)....
1D30: 7F F8 FF FF 7F 73 31 36  32 01 80 66 0A 80 1A F0  .....s162..f....
1D40: 0E 01 1A F0 0E 01 74 68  6B 32 79 00 F0 FF FF 7F  ......thk2y.....
1D50: 1A F0 0E 01 2B 1A F0 0E  01 7E 80 1C 09 80 4A 1A  ....+....~....J.
1D60: F0 0E 01 F0 FF FF 7F 1C  09 80 23 66 0A 80 1A F0  ..........#f....
1D70: 0E 01 1A F0 0E 01 74 6C  6B 30 2B 1A F0 0E 01 7F  ......tlk0+.....
1D80: 80 23 53 1A F0 0E 01 1A  F0 0E 01 74 6C 6B 30 66  .#S........tlk0f
1D90: 0A 80 1A F0 0E 01 1A F0  0E 01 74 6C 6B 31 02 02  ..........tlk1..
1DA0: 10 2D 80 00 B8 1D 52 29  80 F8 FF FF 7F F8 FF FF  .-....R)........
1DB0: 7F 73 31 39 37 01 E1 1D  02 02 10 2E 80 00 D2 1D  .s197...........
1DC0: 52 29 80 F8 FF FF 7F F8  FF FF 7F 73 31 39 37 01  R).........s197.
1DD0: E1 1D 52 29 80 F8 FF FF  7F F8 FF FF 7F 73 31 36  ..R).........s16
1DE0: 32 45 29 80 F8 FF FF 7F  F8 FF FF 7F 73 31 36 33  2E).........s163
1DF0: 01 80 2B 1A F0 0E 01 80  80 23 53 1A F0 0E 01 1A  ..+......#S.....
1E00: F0 0E 01 74 6C 6B 31 7C  00 1A F0 0E 01 7C 00 20  ...tlk1|.....|. 
1E10: F0 0E 01 66 51 80 1A F0  0E 01 1A F0 0E 01 6F 68  ...fQ.........oh
1E20: 68 30 1C 15 80 52 77 80  F8 FF FF 7F F8 FF FF 7F  h0...Rw.........
1E30: 73 31 36 33 45 29 80 F8  FF FF 7F F8 FF FF 7F 73  s163E).........s
1E40: 31 36 34 01 80 66 51 80  20 F0 0E 01 20 F0 0E 01  164..fQ. ... ...
1E50: 6F 68 68 30 2B 1A F0 0E  01 81 80 23 03 01 10 2C  ohh0+......#...,
1E60: 80 45 1C 80 F8 FF FF 7F  F8 FF FF 7F 71 73 74 63  .E..........qstc
1E70: 01 80 01 9B 1F 02 00 10  19 80 00 F0 1E 02 02 10  ................
1E80: 2D 80 00 97 1E 52 29 80  F8 FF FF 7F F8 FF FF 7F  -....R).........
1E90: 73 31 39 31 01 C0 1E 02  02 10 2E 80 00 B1 1E 52  s191...........R
1EA0: 29 80 F8 FF FF 7F F8 FF  FF 7F 73 31 39 31 01 C0  ).........s191..
1EB0: 1E 52 29 80 F8 FF FF 7F  F8 FF FF 7F 73 31 32 34  .R).........s124
1EC0: 45 29 80 F8 FF FF 7F F8  FF FF 7F 73 31 32 35 01  E).........s125.
1ED0: 80 66 1E 80 1A F0 0E 01  1A F0 0E 01 6D 73 75 30  .f..........msu0
1EE0: 2B 1A F0 0E 01 82 80 23  03 01 10 19 80 01 9B 1F  +......#........
1EF0: 02 00 10 2C 80 00 9B 1F  7C 00 1A F0 0E 01 66 51  ...,....|.....fQ
1F00: 80 1A F0 0E 01 1A F0 0E  01 6F 68 68 30 1C 15 80  .........ohh0...
1F10: 02 02 10 2D 80 00 2A 1F  52 29 80 F8 FF FF 7F F8  ...-..*.R)......
1F20: FF FF 7F 73 31 39 31 01  53 1F 02 02 10 2E 80 00  ...s191.S.......
1F30: 44 1F 52 29 80 F8 FF FF  7F F8 FF FF 7F 73 31 39  D.R).........s19
1F40: 31 01 53 1F 52 29 80 F8  FF FF 7F F8 FF FF 7F 73  1.S.R).........s
1F50: 31 32 34 45 29 80 F8 FF  FF 7F F8 FF FF 7F 73 31  124E).........s1
1F60: 32 36 01 80 2B 1A F0 0E  01 83 80 23 66 51 80 1A  26..+......#fQ..
1F70: F0 0E 01 1A F0 0E 01 6F  68 68 31 7C 01 1A F0 0E  .......ohh1|....
1F80: 01 52 29 80 F8 FF FF 7F  F8 FF FF 7F 73 31 32 36  .R).........s126
1F90: 03 03 10 49 80 01 1D 09  01 9B 1F 5D 01 80 00 80  ...I.......]....
1FA0: 45 00 80 F8 FF FF 7F F8  FF FF 7F 66 64 6F 31 01  E..........fdo1.
1FB0: 80 1C 07 80 52 29 80 F8  FF FF 7F F8 FF FF 7F 73  ....R).........s
1FC0: 31 32 35 52 29 80 F8 FF  FF 7F F8 FF FF 7F 73 31  125R).........s1
1FD0: 36 34 5C 00 1A 80 5C 01  1A 80 9A 5D 2B 80 19 80  64\...\....]+...
1FE0: 1C 00 80 46 00 45 00 80  F8 FF FF 7F F8 FF FF 7F  ...F.E..........
1FF0: 66 64 69 31 01 80 20 00  21 00                    fdi1.. .!.      
```

#### Opcodes

```
  0: 0x06FD [0x03] ExtData[1]->WorkLocal[0] = Work_Zone[5]
  1: 0x0702 [0x03] ExtData[1]->WorkLocal[1] = Work_Zone[9]
  2: 0x0707 [0x03] Work_Zone[1] = 1*
  3: 0x070C [0x02] IF !(ExtData[1]->WorkLocal[1] == 0*) GOTO 0x075B
  4: 0x0714 [0x66] LOAD_EXT_SCHEDULER_MAIN: Load scheduler "nmo0" with entities [Shantotto (ID: 17756186/0x010EF01A), Shantotto (ID: 17756186/0x010EF01A)], work=42*
  5: 0x0723 [0x2B] Shantotto (ID: 17756186/0x010EF01A) [10477*]:
    → "Those impudent fools from that Jeunoan institute. After their years of research, I'd thought them more astute."
  6: 0x072A [0x23] WAIT_FOR_DIALOG_INTERACTION
  7: 0x072B [0x2B] Shantotto (ID: 17756186/0x010EF01A) [10478*]:
    → "To let that rogue Ajido-Marujido in on the game, While I sit here dethroned, maligned, and shamed!"
  8: 0x0732 [0x23] WAIT_FOR_DIALOG_INTERACTION
  9: 0x0733 [0x66] LOAD_EXT_SCHEDULER_MAIN: Load scheduler "thk1" with entities [Shantotto (ID: 17756186/0x010EF01A), Shantotto (ID: 17756186/0x010EF01A)], work=40*
 10: 0x0742 [0x03] Work_Zone[3] = 2497*
 11: 0x0747 [0x2B] Shantotto (ID: 17756186/0x010EF01A) [10479*]:
    → "If an adventurer possessing $6 passed through my domain, It would give me no greater pleasure than to make them writhe in pain."
 12: 0x074E [0x23] WAIT_FOR_DIALOG_INTERACTION
 13: 0x074F [0x03] Work_Zone[1] = 1*
 14: 0x0754 [0x20] SET_CLI_EVENT_UC_FLAG: Unlock player control
 15: 0x0756 [0x21] END_EVENT
 16: 0x0757 [0x00] END_REQSTACK()

SUBROUTINE_0879:
 17: 0x0879 [0x4A] Shantotto (ID: 17756186/0x010EF01A) looks at LocalPlayer
 18: 0x0882 [0x1C] WAIT(30* ticks)
 19: 0x0885 [0x2B] Shantotto (ID: 17756186/0x010EF01A) [10480*]:
    → "Well, well, I see that <Player> has come to visit me. This is no pleasant surprise. My heart is filled with rage, not glee."
 20: 0x088C [0x23] WAIT_FOR_DIALOG_INTERACTION
 21: 0x088D [0x66] LOAD_EXT_SCHEDULER_MAIN: Load scheduler "tlk0" with entities [Shantotto (ID: 17756186/0x010EF01A), Shantotto (ID: 17756186/0x010EF01A)], work=40*
 22: 0x089C [0x2B] Shantotto (ID: 17756186/0x010EF01A) [10481*]:
    → "Yes, since you're here, I'll share with you my brilliance: I've a task here which will test your resilience."
 23: 0x08A3 [0x23] WAIT_FOR_DIALOG_INTERACTION
 24: 0x08A4 [0x2B] Shantotto (ID: 17756186/0x010EF01A) [10482*]:
    → "Together we are to undertake the ritual known as "Extreme Trust." If the ceremony fails, you are less than a blade covered in rust."
 25: 0x08AB [0x23] WAIT_FOR_DIALOG_INTERACTION
 26: 0x08AC [0x53] WAIT_SCHEDULER_TASK: Wait for scheduler "tlk0" with entities [Shantotto (ID: 17756186/0x010EF01A), Shantotto (ID: 17756186/0x010EF01A)]
 27: 0x08B9 [0x66] LOAD_EXT_SCHEDULER_MAIN: Load scheduler "tlk1" with entities [Shantotto (ID: 17756186/0x010EF01A), Shantotto (ID: 17756186/0x010EF01A)], work=40*
 28: 0x08C8 [0x53] WAIT_SCHEDULER_TASK: Wait for scheduler "tlk1" with entities [Shantotto (ID: 17756186/0x010EF01A), Shantotto (ID: 17756186/0x010EF01A)]
 29: 0x08D5 [0x02] IF !(Work_Zone[2] == 6*) GOTO 0x08EF
 30: 0x08DD [0x52] END_LOAD_SCHEDULER: End scheduler "s190" with entities [EventEntity, EventEntity], work=672*
 31: 0x08EC [0x01] GOTO 0x0918
 32: 0x08EF [0x02] IF !(Work_Zone[2] == 8*) GOTO 0x0909
 33: 0x08F7 [0x52] END_LOAD_SCHEDULER: End scheduler "s190" with entities [EventEntity, EventEntity], work=672*
 34: 0x0906 [0x01] GOTO 0x0918
 35: 0x0909 [0x52] END_LOAD_SCHEDULER: End scheduler "s123" with entities [EventEntity, EventEntity], work=672*

SUBROUTINE_0918:
 36: 0x0918 [0x03] Work_Zone[3] = 0*

SUBROUTINE_091D:
 37: 0x091D [0x02] IF !(Work_Zone[2] == 5*) GOTO 0x0939
 38: 0x0925 [0x45] LOAD_SCHEDULED_TASK: Load scheduler "s191" with entities [EventEntity, EventEntity], work=[672*, 0*]
 39: 0x0936 [0x01] GOTO 0x0966
 40: 0x0939 [0x02] IF !(Work_Zone[2] == 6*) GOTO 0x0955
 41: 0x0941 [0x45] LOAD_SCHEDULED_TASK: Load scheduler "s191" with entities [EventEntity, EventEntity], work=[672*, 0*]
 42: 0x0952 [0x01] GOTO 0x0966
 43: 0x0955 [0x45] LOAD_SCHEDULED_TASK: Load scheduler "s124" with entities [EventEntity, EventEntity], work=[672*, 0*]

SUBROUTINE_0966:
 44: 0x0966 [0x24] CREATE_DIALOG(message_id=10483*, default_option=0*, option_flags=Work_Zone[3])
    → "Attempt the ritual? [Yes./No./"Extreme" Trust?]"
 45: 0x096D [0x25] WAIT_DIALOG_SELECT()
 46: 0x096E [0x02] IF !(Work_Zone[0] == 0*) GOTO 0x1E75
 47: 0x0976 [0x02] IF !(Work_Zone[2] == 5*) GOTO 0x0990
 48: 0x097E [0x52] END_LOAD_SCHEDULER: End scheduler "s191" with entities [EventEntity, EventEntity], work=672*
 49: 0x098D [0x01] GOTO 0x09B9
 50: 0x0990 [0x02] IF !(Work_Zone[2] == 6*) GOTO 0x09AA
 51: 0x0998 [0x52] END_LOAD_SCHEDULER: End scheduler "s191" with entities [EventEntity, EventEntity], work=672*
 52: 0x09A7 [0x01] GOTO 0x09B9
 53: 0x09AA [0x52] END_LOAD_SCHEDULER: End scheduler "s124" with entities [EventEntity, EventEntity], work=672*

SUBROUTINE_09B9:
 54: 0x09B9 [0x45] LOAD_SCHEDULED_TASK: Load scheduler "s127" with entities [EventEntity, EventEntity], work=[672*, 0*]
 55: 0x09CA [0x66] LOAD_EXT_SCHEDULER_MAIN: Load scheduler "tlk0" with entities [Shantotto (ID: 17756186/0x010EF01A), Shantotto (ID: 17756186/0x010EF01A)], work=40*
 56: 0x09D9 [0x2B] Shantotto (ID: 17756186/0x010EF01A) [10486*]:
    → "Now that's the response one of my stature likes to hear. With someone as grand as me to guide you, there's surely naught to fear."
 57: 0x09E0 [0x23] WAIT_FOR_DIALOG_INTERACTION
 58: 0x09E1 [0x2B] Shantotto (ID: 17756186/0x010EF01A) [10487*]:
    → "However, let me first provide you with several words of warning. If this fails, it's on your head--and you won't live to see the morning."
 59: 0x09E8 [0x23] WAIT_FOR_DIALOG_INTERACTION
 60: 0x09E9 [0x53] WAIT_SCHEDULER_TASK: Wait for scheduler "tlk0" with entities [Shantotto (ID: 17756186/0x010EF01A), Shantotto (ID: 17756186/0x010EF01A)]
 61: 0x09F6 [0x66] LOAD_EXT_SCHEDULER_MAIN: Load scheduler "tlk1" with entities [Shantotto (ID: 17756186/0x010EF01A), Shantotto (ID: 17756186/0x010EF01A)], work=40*
 62: 0x0A05 [0x53] WAIT_SCHEDULER_TASK: Wait for scheduler "tlk1" with entities [Shantotto (ID: 17756186/0x010EF01A), Shantotto (ID: 17756186/0x010EF01A)]
 63: 0x0A12 [0x52] END_LOAD_SCHEDULER: End scheduler "s127" with entities [EventEntity, EventEntity], work=672*
 64: 0x0A21 [0x02] IF !(LocalPlayer->Race == 5*) GOTO 0x0A3D
 65: 0x0A29 [0x45] LOAD_SCHEDULED_TASK: Load scheduler "s129" with entities [EventEntity, EventEntity], work=[672*, 0*]
 66: 0x0A3A [0x01] GOTO 0x0A6A
 67: 0x0A3D [0x02] IF !(LocalPlayer->Race == 6*) GOTO 0x0A59
 68: 0x0A45 [0x45] LOAD_SCHEDULED_TASK: Load scheduler "s129" with entities [EventEntity, EventEntity], work=[672*, 0*]
 69: 0x0A56 [0x01] GOTO 0x0A6A
 70: 0x0A59 [0x45] LOAD_SCHEDULED_TASK: Load scheduler "s128" with entities [EventEntity, EventEntity], work=[672*, 0*]

SUBROUTINE_0A6A:
 71: 0x0A6A [0x24] CREATE_DIALOG(message_id=10488*, default_option=0*, option_flags=0*)
    → "Attempt the ritual anyway? [Y-yes...?/I'm out.]"
 72: 0x0A71 [0x25] WAIT_DIALOG_SELECT()
 73: 0x0A72 [0x02] IF !(Work_Zone[0] == 0*) GOTO 0x0A7D
 74: 0x0A7A [0x01] GOTO 0x0A88
 75: 0x0A7D [0x02] IF !(Work_Zone[0] == 1*) GOTO 0x0A88
 76: 0x0A85 [0x01] GOTO 0x0A88

SUBROUTINE_0A88:
 77: 0x0A88 [0x52] END_LOAD_SCHEDULER: End scheduler "s128" with entities [EventEntity, EventEntity], work=672*
 78: 0x0A97 [0x52] END_LOAD_SCHEDULER: End scheduler "s129" with entities [EventEntity, EventEntity], work=672*
 79: 0x0AA6 [0x45] LOAD_SCHEDULED_TASK: Load scheduler "s130" with entities [EventEntity, EventEntity], work=[672*, 0*]
 80: 0x0AB7 [0x66] LOAD_EXT_SCHEDULER_MAIN: Load scheduler "dis0" with entities [Shantotto (ID: 17756186/0x010EF01A), Shantotto (ID: 17756186/0x010EF01A)], work=40*
 81: 0x0AC6 [0x2B] Shantotto (ID: 17756186/0x010EF01A) [10489*]:
    → "This quaking and quavering of yours is not attractive whatsoever."
 82: 0x0ACD [0x23] WAIT_FOR_DIALOG_INTERACTION
 83: 0x0ACE [0x2B] Shantotto (ID: 17756186/0x010EF01A) [10490*]:
    → "Fear not, for there is a method behind the madness of this endeavor."
 84: 0x0AD5 [0x23] WAIT_FOR_DIALOG_INTERACTION
 85: 0x0AD6 [0x53] WAIT_SCHEDULER_TASK: Wait for scheduler "dis0" with entities [Shantotto (ID: 17756186/0x010EF01A), Shantotto (ID: 17756186/0x010EF01A)]
 86: 0x0AE3 [0x52] END_LOAD_SCHEDULER: End scheduler "s130" with entities [EventEntity, EventEntity], work=672*
 87: 0x0AF2 [0x02] IF !(ExtData[1]->WorkLocal[1] == 2*) GOTO 0x0B25
 88: 0x0AFA [0x45] LOAD_SCHEDULED_TASK: Load scheduler "s131" with entities [EventEntity, EventEntity], work=[672*, 0*]
 89: 0x0B0B [0x66] LOAD_EXT_SCHEDULER_MAIN: Load scheduler "tlk0" with entities [Shantotto (ID: 17756186/0x010EF01A), Shantotto (ID: 17756186/0x010EF01A)], work=40*
 90: 0x0B1A [0x2B] Shantotto (ID: 17756186/0x010EF01A) [10491*]:
    → "Surely you remember when others used my resplendent name for despicable acts. And yet, people laid the blame at my feet, ignoring all the facts."
 91: 0x0B21 [0x23] WAIT_FOR_DIALOG_INTERACTION
 92: 0x0B22 [0x01] GOTO 0x0B45
 93: 0x0B25 [0x45] LOAD_SCHEDULED_TASK: Load scheduler "s131" with entities [EventEntity, EventEntity], work=[672*, 0*]
 94: 0x0B36 [0x66] LOAD_EXT_SCHEDULER_MAIN: Load scheduler "tlk0" with entities [Shantotto (ID: 17756186/0x010EF01A), Shantotto (ID: 17756186/0x010EF01A)], work=40*

SUBROUTINE_0B45:
 95: 0x0B45 [0x2B] Shantotto (ID: 17756186/0x010EF01A) [10492*]:
    → "As an aside, one of my journeys of late took me to [//yet ]another world. Though far be it from me to mention what calamities may have occurred."
 96: 0x0B4C [0x23] WAIT_FOR_DIALOG_INTERACTION
 97: 0x0B4D [0x2B] Shantotto (ID: 17756186/0x010EF01A) [10493*]:
    → "There I discovered something wonderful--a vast sum of advanced erudition. The five ministries could work for millennia and still be no competition."
 98: 0x0B54 [0x23] WAIT_FOR_DIALOG_INTERACTION
 99: 0x0B55 [0x66] LOAD_EXT_SCHEDULER_MAIN: Load scheduler "tlk1" with entities [Shantotto (ID: 17756186/0x010EF01A), Shantotto (ID: 17756186/0x010EF01A)], work=40*
100: 0x0B64 [0x53] WAIT_SCHEDULER_TASK: Wait for scheduler "tlk1" with entities [Shantotto (ID: 17756186/0x010EF01A), Shantotto (ID: 17756186/0x010EF01A)]
101: 0x0B71 [0x52] END_LOAD_SCHEDULER: End scheduler "s131" with entities [EventEntity, EventEntity], work=672*
102: 0x0B80 [0x45] LOAD_SCHEDULED_TASK: Load scheduler "s132" with entities [EventEntity, EventEntity], work=[672*, 0*]
103: 0x0B91 [0x27] REQ_SET(priority=0x05, entity_id=Shantotto (ID: 17756186/0x010EF01A), tag_num=0xCE)
104: 0x0B98 [0x2B] Shantotto (ID: 17756186/0x010EF01A) [10494*]:
    → "The world that we know is far more expansive than we thought. All our treks, travels, and tomes--have our experiences been for naught?"
105: 0x0B9F [0x23] WAIT_FOR_DIALOG_INTERACTION
106: 0x0BA0 [0x2B] Shantotto (ID: 17756186/0x010EF01A) [10495*]:
    → "Though the distance at first seems uncrossable, When the universe is your oyster, nothing is impossible."
107: 0x0BA7 [0x23] WAIT_FOR_DIALOG_INTERACTION
108: 0x0BA8 [0x2A] GET_REQ_LEVEL(level=5, entity_id=Shantotto (ID: 17756186/0x010EF01A))
109: 0x0BAE [0x52] END_LOAD_SCHEDULER: End scheduler "s132" with entities [EventEntity, EventEntity], work=672*
110: 0x0BBD [0x02] IF !(Work_Zone[2] == 5*) GOTO 0x0BD9
111: 0x0BC5 [0x45] LOAD_SCHEDULED_TASK: Load scheduler "s192" with entities [EventEntity, EventEntity], work=[672*, 0*]
112: 0x0BD6 [0x01] GOTO 0x0C06
113: 0x0BD9 [0x02] IF !(Work_Zone[2] == 6*) GOTO 0x0BF5
114: 0x0BE1 [0x45] LOAD_SCHEDULED_TASK: Load scheduler "s192" with entities [EventEntity, EventEntity], work=[672*, 0*]
115: 0x0BF2 [0x01] GOTO 0x0C06
116: 0x0BF5 [0x45] LOAD_SCHEDULED_TASK: Load scheduler "s133" with entities [EventEntity, EventEntity], work=[672*, 0*]

SUBROUTINE_0C06:
117: 0x0C06 [0x4A] Shantotto (ID: 17756186/0x010EF01A) looks at LocalPlayer
118: 0x0C0F [0x1C] WAIT(30* ticks)
119: 0x0C12 [0x66] LOAD_EXT_SCHEDULER_MAIN: Load scheduler "tlk0" with entities [Shantotto (ID: 17756186/0x010EF01A), Shantotto (ID: 17756186/0x010EF01A)], work=40*
120: 0x0C21 [0x2B] Shantotto (ID: 17756186/0x010EF01A) [10496*]:
    → "Do you get what I am trying to say? We can cross whole dimensions--not in centuries, but today."
121: 0x0C28 [0x23] WAIT_FOR_DIALOG_INTERACTION
122: 0x0C29 [0x66] LOAD_EXT_SCHEDULER_MAIN: Load scheduler "tlk1" with entities [Shantotto (ID: 17756186/0x010EF01A), Shantotto (ID: 17756186/0x010EF01A)], work=40*
123: 0x0C38 [0x24] CREATE_DIALOG(message_id=10497*, default_option=0*, option_flags=0*)
    → "Do you understand? [P-probably.../What're you on about?]"
124: 0x0C3F [0x25] WAIT_DIALOG_SELECT()
125: 0x0C40 [0x02] IF !(Work_Zone[0] == 0*) GOTO 0x0CC3
126: 0x0C48 [0x02] IF !(Work_Zone[2] == 5*) GOTO 0x0C62
127: 0x0C50 [0x52] END_LOAD_SCHEDULER: End scheduler "s192" with entities [EventEntity, EventEntity], work=672*
128: 0x0C5F [0x01] GOTO 0x0C8B
129: 0x0C62 [0x02] IF !(Work_Zone[2] == 6*) GOTO 0x0C7C
130: 0x0C6A [0x52] END_LOAD_SCHEDULER: End scheduler "s192" with entities [EventEntity, EventEntity], work=672*
131: 0x0C79 [0x01] GOTO 0x0C8B
132: 0x0C7C [0x52] END_LOAD_SCHEDULER: End scheduler "s133" with entities [EventEntity, EventEntity], work=672*

SUBROUTINE_0C8B:
133: 0x0C8B [0x45] LOAD_SCHEDULED_TASK: Load scheduler "s134" with entities [EventEntity, EventEntity], work=[672*, 0*]
134: 0x0C9C [0x66] LOAD_EXT_SCHEDULER_MAIN: Load scheduler "dis0" with entities [Shantotto (ID: 17756186/0x010EF01A), Shantotto (ID: 17756186/0x010EF01A)], work=40*
135: 0x0CAB [0x2B] Shantotto (ID: 17756186/0x010EF01A) [10498*]:
    → "The panicked look in your eyes tells me all I need to know. To look smarter than you are, you decided to go with the flow."
136: 0x0CB2 [0x23] WAIT_FOR_DIALOG_INTERACTION
137: 0x0CB3 [0x53] WAIT_SCHEDULER_TASK: Wait for scheduler "dis0" with entities [Shantotto (ID: 17756186/0x010EF01A), Shantotto (ID: 17756186/0x010EF01A)]
138: 0x0CC0 [0x01] GOTO 0x0D46
139: 0x0CC3 [0x02] IF !(Work_Zone[0] == 1*) GOTO 0x0D46
140: 0x0CCB [0x02] IF !(Work_Zone[2] == 5*) GOTO 0x0CE5
141: 0x0CD3 [0x52] END_LOAD_SCHEDULER: End scheduler "s192" with entities [EventEntity, EventEntity], work=672*
142: 0x0CE2 [0x01] GOTO 0x0D0E
143: 0x0CE5 [0x02] IF !(Work_Zone[2] == 6*) GOTO 0x0CFF
144: 0x0CED [0x52] END_LOAD_SCHEDULER: End scheduler "s192" with entities [EventEntity, EventEntity], work=672*
145: 0x0CFC [0x01] GOTO 0x0D0E
146: 0x0CFF [0x52] END_LOAD_SCHEDULER: End scheduler "s133" with entities [EventEntity, EventEntity], work=672*

SUBROUTINE_0D0E:
147: 0x0D0E [0x45] LOAD_SCHEDULED_TASK: Load scheduler "s134" with entities [EventEntity, EventEntity], work=[672*, 0*]
148: 0x0D1F [0x66] LOAD_EXT_SCHEDULER_MAIN: Load scheduler "dis0" with entities [Shantotto (ID: 17756186/0x010EF01A), Shantotto (ID: 17756186/0x010EF01A)], work=40*
149: 0x0D2E [0x2B] Shantotto (ID: 17756186/0x010EF01A) [10499*]:
    → "You know the old saying, "appearances can be deceiving"? In your case, it's false, for your denseness is so obvious it's grieving."
150: 0x0D35 [0x23] WAIT_FOR_DIALOG_INTERACTION
151: 0x0D36 [0x53] WAIT_SCHEDULER_TASK: Wait for scheduler "dis0" with entities [Shantotto (ID: 17756186/0x010EF01A), Shantotto (ID: 17756186/0x010EF01A)]
152: 0x0D43 [0x01] GOTO 0x0D46

SUBROUTINE_0D46:
153: 0x0D46 [0x52] END_LOAD_SCHEDULER: End scheduler "s134" with entities [EventEntity, EventEntity], work=672*
154: 0x0D55 [0x02] IF !(Work_Zone[2] == 5*) GOTO 0x0D71
155: 0x0D5D [0x45] LOAD_SCHEDULED_TASK: Load scheduler "s193" with entities [EventEntity, EventEntity], work=[672*, 0*]
156: 0x0D6E [0x01] GOTO 0x0D9E
157: 0x0D71 [0x02] IF !(Work_Zone[2] == 6*) GOTO 0x0D8D
158: 0x0D79 [0x45] LOAD_SCHEDULED_TASK: Load scheduler "s193" with entities [EventEntity, EventEntity], work=[672*, 0*]
159: 0x0D8A [0x01] GOTO 0x0D9E
160: 0x0D8D [0x45] LOAD_SCHEDULED_TASK: Load scheduler "s135" with entities [EventEntity, EventEntity], work=[672*, 0*]

SUBROUTINE_0D9E:
161: 0x0D9E [0x66] LOAD_EXT_SCHEDULER_MAIN: Load scheduler "tlk0" with entities [Shantotto (ID: 17756186/0x010EF01A), Shantotto (ID: 17756186/0x010EF01A)], work=40*
162: 0x0DAD [0x2B] Shantotto (ID: 17756186/0x010EF01A) [10500*]:
    → "To be frank, it matters little whether or not you understand. If separate worlds are connected, then so is the common man."
163: 0x0DB4 [0x23] WAIT_FOR_DIALOG_INTERACTION
164: 0x0DB5 [0x2B] Shantotto (ID: 17756186/0x010EF01A) [10501*]:
    → "And what's more, this does not stop at Galka, Mithra, or Hume. All life is intertwined, like threads of wool on a loom."
165: 0x0DBC [0x23] WAIT_FOR_DIALOG_INTERACTION
166: 0x0DBD [0x53] WAIT_SCHEDULER_TASK: Wait for scheduler "tlk0" with entities [Shantotto (ID: 17756186/0x010EF01A), Shantotto (ID: 17756186/0x010EF01A)]
167: 0x0DCA [0x66] LOAD_EXT_SCHEDULER_MAIN: Load scheduler "tlk1" with entities [Shantotto (ID: 17756186/0x010EF01A), Shantotto (ID: 17756186/0x010EF01A)], work=40*
168: 0x0DD9 [0x53] WAIT_SCHEDULER_TASK: Wait for scheduler "tlk1" with entities [Shantotto (ID: 17756186/0x010EF01A), Shantotto (ID: 17756186/0x010EF01A)]
169: 0x0DE6 [0x02] IF !(Work_Zone[2] == 5*) GOTO 0x0E00
170: 0x0DEE [0x52] END_LOAD_SCHEDULER: End scheduler "s193" with entities [EventEntity, EventEntity], work=672*
171: 0x0DFD [0x01] GOTO 0x0E29
172: 0x0E00 [0x02] IF !(Work_Zone[2] == 6*) GOTO 0x0E1A
173: 0x0E08 [0x52] END_LOAD_SCHEDULER: End scheduler "s193" with entities [EventEntity, EventEntity], work=672*
174: 0x0E17 [0x01] GOTO 0x0E29
175: 0x0E1A [0x52] END_LOAD_SCHEDULER: End scheduler "s135" with entities [EventEntity, EventEntity], work=672*

SUBROUTINE_0E29:
176: 0x0E29 [0x45] LOAD_SCHEDULED_TASK: Load scheduler "s002" with entities [EventEntity, EventEntity], work=[672*, 0*]
177: 0x0E3A [0x2B] Shantotto (ID: 17756186/0x010EF01A) [10502*]:
    → "When I took the time to consider further, it gave me pause. Could I not utilize this knowledge to further my own cause?"
178: 0x0E41 [0x23] WAIT_FOR_DIALOG_INTERACTION
179: 0x0E42 [0x66] LOAD_EXT_SCHEDULER_MAIN: Load scheduler "thk1" with entities [Shantotto (ID: 17756186/0x010EF01A), Shantotto (ID: 17756186/0x010EF01A)], work=40*
180: 0x0E51 [0x52] END_LOAD_SCHEDULER: End scheduler "s002" with entities [EventEntity, EventEntity], work=672*
181: 0x0E60 [0x45] LOAD_SCHEDULED_TASK: Load scheduler "s136" with entities [EventEntity, EventEntity], work=[672*, 0*]
182: 0x0E71 [0x2B] Shantotto (ID: 17756186/0x010EF01A) [10503*]:
    → "For example, what if someone were to threaten my place in history? I could extract their mortal fears and make them writhe in misery."
183: 0x0E78 [0x23] WAIT_FOR_DIALOG_INTERACTION
184: 0x0E79 [0x53] WAIT_SCHEDULER_TASK: Wait for scheduler "thk1" with entities [Shantotto (ID: 17756186/0x010EF01A), Shantotto (ID: 17756186/0x010EF01A)]
185: 0x0E86 [0x52] END_LOAD_SCHEDULER: End scheduler "s136" with entities [EventEntity, EventEntity], work=672*
186: 0x0E95 [0x45] LOAD_SCHEDULED_TASK: Load scheduler "s137" with entities [EventEntity, EventEntity], work=[672*, 0*]
187: 0x0EA6 [0x66] LOAD_EXT_SCHEDULER_MAIN: Load scheduler "thk2" with entities [Shantotto (ID: 17756186/0x010EF01A), Shantotto (ID: 17756186/0x010EF01A)], work=40*
188: 0x0EB5 [0x2B] Shantotto (ID: 17756186/0x010EF01A) [10504*]:
    → "But while I was pondering this fantastic piece of news, The fools in Jeuno announced something similar, so I lose!"
189: 0x0EBC [0x23] WAIT_FOR_DIALOG_INTERACTION
190: 0x0EBD [0x53] WAIT_SCHEDULER_TASK: Wait for scheduler "thk2" with entities [Shantotto (ID: 17756186/0x010EF01A), Shantotto (ID: 17756186/0x010EF01A)]
191: 0x0ECA [0x66] LOAD_EXT_SCHEDULER_MAIN: Load scheduler "tlk0" with entities [Shantotto (ID: 17756186/0x010EF01A), Shantotto (ID: 17756186/0x010EF01A)], work=40*
192: 0x0ED9 [0x2B] Shantotto (ID: 17756186/0x010EF01A) [10505*]:
    → "Their methods are different: trust, friendship, and love. But the theory's the same--and it fits like a glove."
193: 0x0EE0 [0x23] WAIT_FOR_DIALOG_INTERACTION
194: 0x0EE1 [0x53] WAIT_SCHEDULER_TASK: Wait for scheduler "tlk0" with entities [Shantotto (ID: 17756186/0x010EF01A), Shantotto (ID: 17756186/0x010EF01A)]
195: 0x0EEE [0x52] END_LOAD_SCHEDULER: End scheduler "s137" with entities [EventEntity, EventEntity], work=672*
196: 0x0EFD [0x45] LOAD_SCHEDULED_TASK: Load scheduler "s001" with entities [EventEntity, EventEntity], work=[672*, 0*]
197: 0x0F0E [0x2B] Shantotto (ID: 17756186/0x010EF01A) [10506*]:
    → "Can you believe it? They stole the topic of my next dissertation! I've half a mind to make them the target of my next conflagration."
198: 0x0F15 [0x23] WAIT_FOR_DIALOG_INTERACTION
199: 0x0F16 [0x52] END_LOAD_SCHEDULER: End scheduler "s001" with entities [EventEntity, EventEntity], work=672*
200: 0x0F25 [0x02] IF !(Work_Zone[2] == 3*) GOTO 0x0F41
201: 0x0F2D [0x45] LOAD_SCHEDULED_TASK: Load scheduler "s004" with entities [EventEntity, EventEntity], work=[672*, 0*]
202: 0x0F3E [0x01] GOTO 0x0FC2
203: 0x0F41 [0x02] IF !(Work_Zone[2] == 4*) GOTO 0x0F5D
204: 0x0F49 [0x45] LOAD_SCHEDULED_TASK: Load scheduler "s004" with entities [EventEntity, EventEntity], work=[672*, 0*]
205: 0x0F5A [0x01] GOTO 0x0FC2
206: 0x0F5D [0x02] IF !(Work_Zone[2] == 5*) GOTO 0x0F79
207: 0x0F65 [0x45] LOAD_SCHEDULED_TASK: Load scheduler "s192" with entities [EventEntity, EventEntity], work=[672*, 0*]
208: 0x0F76 [0x01] GOTO 0x0FC2
209: 0x0F79 [0x02] IF !(Work_Zone[2] == 6*) GOTO 0x0F95
210: 0x0F81 [0x45] LOAD_SCHEDULED_TASK: Load scheduler "s192" with entities [EventEntity, EventEntity], work=[672*, 0*]
211: 0x0F92 [0x01] GOTO 0x0FC2
212: 0x0F95 [0x02] IF !(Work_Zone[2] == 8*) GOTO 0x0FB1
213: 0x0F9D [0x45] LOAD_SCHEDULED_TASK: Load scheduler "s004" with entities [EventEntity, EventEntity], work=[672*, 0*]
214: 0x0FAE [0x01] GOTO 0x0FC2
215: 0x0FB1 [0x45] LOAD_SCHEDULED_TASK: Load scheduler "s138" with entities [EventEntity, EventEntity], work=[672*, 0*]

SUBROUTINE_0FC2:
216: 0x0FC2 [0x2B] Shantotto (ID: 17756186/0x010EF01A) [10507*]:
    → "Imagine the nerve of those involved in the project! It was a major affront and a sign of total disrespect."
217: 0x0FC9 [0x23] WAIT_FOR_DIALOG_INTERACTION
218: 0x0FCA [0x2B] Shantotto (ID: 17756186/0x010EF01A) [10508*]:
    → "Those want-to-be wizards denied me my prize, When, in the grand scheme of things, they're disease-ridden flies."
219: 0x0FD1 [0x23] WAIT_FOR_DIALOG_INTERACTION
220: 0x0FD2 [0x2B] Shantotto (ID: 17756186/0x010EF01A) [10509*]:
    → "They refused to provide me with the fruits of my labor. I swear they will suffer--and I'm not rattling my saber!"
221: 0x0FD9 [0x23] WAIT_FOR_DIALOG_INTERACTION
222: 0x0FDA [0x02] IF !(Work_Zone[2] == 3*) GOTO 0x0FF4
223: 0x0FE2 [0x52] END_LOAD_SCHEDULER: End scheduler "s004" with entities [EventEntity, EventEntity], work=672*
224: 0x0FF1 [0x01] GOTO 0x106B
225: 0x0FF4 [0x02] IF !(Work_Zone[2] == 4*) GOTO 0x100E
226: 0x0FFC [0x52] END_LOAD_SCHEDULER: End scheduler "s004" with entities [EventEntity, EventEntity], work=672*
227: 0x100B [0x01] GOTO 0x106B
228: 0x100E [0x02] IF !(Work_Zone[2] == 5*) GOTO 0x1028
229: 0x1016 [0x52] END_LOAD_SCHEDULER: End scheduler "s192" with entities [EventEntity, EventEntity], work=672*
230: 0x1025 [0x01] GOTO 0x106B
231: 0x1028 [0x02] IF !(Work_Zone[2] == 6*) GOTO 0x1042
232: 0x1030 [0x52] END_LOAD_SCHEDULER: End scheduler "s192" with entities [EventEntity, EventEntity], work=672*
233: 0x103F [0x01] GOTO 0x106B
234: 0x1042 [0x02] IF !(Work_Zone[2] == 8*) GOTO 0x105C
235: 0x104A [0x52] END_LOAD_SCHEDULER: End scheduler "s004" with entities [EventEntity, EventEntity], work=672*
236: 0x1059 [0x01] GOTO 0x106B
237: 0x105C [0x52] END_LOAD_SCHEDULER: End scheduler "s138" with entities [EventEntity, EventEntity], work=672*

SUBROUTINE_106B:
238: 0x106B [0x45] LOAD_SCHEDULED_TASK: Load scheduler "s139" with entities [EventEntity, EventEntity], work=[672*, 0*]
239: 0x107C [0x66] LOAD_EXT_SCHEDULER_MAIN: Load scheduler "tlk1" with entities [Shantotto (ID: 17756186/0x010EF01A), Shantotto (ID: 17756186/0x010EF01A)], work=40*
240: 0x108B [0x2B] Shantotto (ID: 17756186/0x010EF01A) [10510*]:
    → "When all this is over, I will have been more than just cruel. Their leader shall cower before me! I pity the fool!"
241: 0x1092 [0x23] WAIT_FOR_DIALOG_INTERACTION
242: 0x1093 [0x52] END_LOAD_SCHEDULER: End scheduler "s139" with entities [EventEntity, EventEntity], work=672*
243: 0x10A2 [0x45] LOAD_SCHEDULED_TASK: Load scheduler "s140" with entities [EventEntity, EventEntity], work=[672*, 0*]
244: 0x10B3 [0x27] REQ_SET(priority=0x05, entity_id=Shantotto (ID: 17756186/0x010EF01A), tag_num=0xCF)
245: 0x10BA [0x7B] Shantotto (ID: 17756186/0x010EF01A) stops talking
246: 0x10BF [0x2B] Shantotto (ID: 17756186/0x010EF01A) [10511*]:
    → "Yet even that I am willing to overlook. For I shall have my way, by hook or by crook."
247: 0x10C6 [0x23] WAIT_FOR_DIALOG_INTERACTION
248: 0x10C7 [0x2A] GET_REQ_LEVEL(level=5, entity_id=Shantotto (ID: 17756186/0x010EF01A))
249: 0x10CD [0x1C] WAIT(10* ticks)
250: 0x10D0 [0x52] END_LOAD_SCHEDULER: End scheduler "s140" with entities [EventEntity, EventEntity], work=672*
251: 0x10DF [0x45] LOAD_SCHEDULED_TASK: Load scheduler "s003" with entities [EventEntity, EventEntity], work=[672*, 0*]
252: 0x10F0 [0x6E] Shantotto (ID: 17756186/0x010EF01A) uses emote 7*
253: 0x10F7 [0x99] Wait for Shantotto (ID: 17756186/0x010EF01A) animation to complete
254: 0x10FC [0x2B] Shantotto (ID: 17756186/0x010EF01A) [10512*]:
    → "So instead, I have chosen to develop the magic myself. Come, stand beside me. Leave your reservations on the shelf."
255: 0x1103 [0x1C] WAIT(90* ticks)
256: 0x1106 [0x23] WAIT_FOR_DIALOG_INTERACTION
257: 0x1107 [0x52] END_LOAD_SCHEDULER: End scheduler "s003" with entities [EventEntity, EventEntity], work=672*
258: 0x1116 [0x02] IF !(Work_Zone[2] == 3*) GOTO 0x1132
259: 0x111E [0x45] LOAD_SCHEDULED_TASK: Load scheduler "s005" with entities [EventEntity, EventEntity], work=[672*, 0*]
260: 0x112F [0x01] GOTO 0x1197
261: 0x1132 [0x02] IF !(Work_Zone[2] == 5*) GOTO 0x114E
262: 0x113A [0x45] LOAD_SCHEDULED_TASK: Load scheduler "s194" with entities [EventEntity, EventEntity], work=[672*, 0*]
263: 0x114B [0x01] GOTO 0x1197
264: 0x114E [0x02] IF !(Work_Zone[2] == 6*) GOTO 0x116A
265: 0x1156 [0x45] LOAD_SCHEDULED_TASK: Load scheduler "s194" with entities [EventEntity, EventEntity], work=[672*, 0*]
266: 0x1167 [0x01] GOTO 0x1197
267: 0x116A [0x02] IF !(Work_Zone[2] == 8*) GOTO 0x1186
268: 0x1172 [0x45] LOAD_SCHEDULED_TASK: Load scheduler "s005" with entities [EventEntity, EventEntity], work=[672*, 0*]
269: 0x1183 [0x01] GOTO 0x1197
270: 0x1186 [0x45] LOAD_SCHEDULED_TASK: Load scheduler "s141" with entities [EventEntity, EventEntity], work=[672*, 0*]

SUBROUTINE_1197:
271: 0x1197 [0x4A] Shantotto (ID: 17756186/0x010EF01A) looks at LocalPlayer
272: 0x11A0 [0x1C] WAIT(30* ticks)
273: 0x11A3 [0x7C] Shantotto (ID: 17756186/0x010EF01A)->Render.Flags2 |= 0x00
274: 0x11A9 [0x66] LOAD_EXT_SCHEDULER_MAIN: Load scheduler "ohh0" with entities [Shantotto (ID: 17756186/0x010EF01A), Shantotto (ID: 17756186/0x010EF01A)], work=41*
275: 0x11B8 [0x2B] Shantotto (ID: 17756186/0x010EF01A) [10513*]:
    → "Yes, <Player>, my first subject shall be you. There are many more worthy, but I suppose you will do."
276: 0x11BF [0x23] WAIT_FOR_DIALOG_INTERACTION
277: 0x11C0 [0x02] IF !(Work_Zone[2] == 3*) GOTO 0x11DA
278: 0x11C8 [0x52] END_LOAD_SCHEDULER: End scheduler "s005" with entities [EventEntity, EventEntity], work=672*
279: 0x11D7 [0x01] GOTO 0x1237
280: 0x11DA [0x02] IF !(Work_Zone[2] == 5*) GOTO 0x11F4
281: 0x11E2 [0x52] END_LOAD_SCHEDULER: End scheduler "s194" with entities [EventEntity, EventEntity], work=672*
282: 0x11F1 [0x01] GOTO 0x1237
283: 0x11F4 [0x02] IF !(Work_Zone[2] == 6*) GOTO 0x120E
284: 0x11FC [0x52] END_LOAD_SCHEDULER: End scheduler "s194" with entities [EventEntity, EventEntity], work=672*
285: 0x120B [0x01] GOTO 0x1237
286: 0x120E [0x02] IF !(Work_Zone[2] == 8*) GOTO 0x1228
287: 0x1216 [0x52] END_LOAD_SCHEDULER: End scheduler "s005" with entities [EventEntity, EventEntity], work=672*
288: 0x1225 [0x01] GOTO 0x1237
289: 0x1228 [0x52] END_LOAD_SCHEDULER: End scheduler "s141" with entities [EventEntity, EventEntity], work=672*

SUBROUTINE_1237:
290: 0x1237 [0x45] LOAD_SCHEDULED_TASK: Load scheduler "s142" with entities [EventEntity, EventEntity], work=[672*, 0*]
291: 0x1248 [0x2B] Shantotto (ID: 17756186/0x010EF01A) [10514*]:
    → "I command you to take a deep breath and close your eyes. Whether you will survive the process, I can only surmise."
292: 0x124F [0x23] WAIT_FOR_DIALOG_INTERACTION
293: 0x1250 [0x5D] SET_MUSIC_VOLUME(volume=0*, fade_time=200*)
294: 0x1255 [0x45] LOAD_SCHEDULED_TASK: Load scheduler "fdo1" with entities [EventEntity, EventEntity], work=[200*, 0*]
295: 0x1266 [0x1C] WAIT(60* ticks)
296: 0x1269 [0x1C] WAIT(200* ticks)
297: 0x126C [0x52] END_LOAD_SCHEDULER: End scheduler "s142" with entities [EventEntity, EventEntity], work=672*
298: 0x127B [0x6B] STOP_AND_IDLE: Shantotto (ID: 17756186/0x010EF01A) stops current action and resets to idle (animation="idl0")
299: 0x1284 [0x1C] WAIT(60* ticks)
300: 0x1287 [0x45] LOAD_SCHEDULED_TASK: Load scheduler "se01" with entities [EventEntity, EventEntity], work=[672*, 0*]
301: 0x1298 [0x45] LOAD_SCHEDULED_TASK: Load scheduler "s143" with entities [EventEntity, EventEntity], work=[672*, 0*]
302: 0x12A9 [0x1C] WAIT(15* ticks)
303: 0x12AC [0x45] LOAD_SCHEDULED_TASK: Load scheduler "fdi1" with entities [EventEntity, EventEntity], work=[200*, 0*]
304: 0x12BD [0x66] LOAD_EXT_SCHEDULER_MAIN: Load scheduler "thk1" with entities [Shantotto (ID: 17756186/0x010EF01A), Shantotto (ID: 17756186/0x010EF01A)], work=40*
305: 0x12CC [0x7C] Shantotto (ID: 17756186/0x010EF01A)->Render.Flags2 |= 0x00
306: 0x12D2 [0x1C] WAIT(200* ticks)
307: 0x12D5 [0x2B] Shantotto (ID: 17756186/0x010EF01A) [10515*]:
    → "Ohoho...hmm?"
308: 0x12DC [0x23] WAIT_FOR_DIALOG_INTERACTION
309: 0x12DD [0x7C] Shantotto (ID: 17756186/0x010EF01A)->Render.Flags2 |= 0x01
310: 0x12E3 [0x2B] Shantotto (ID: 17756186/0x010EF01A) [10516*]:
    → "Well, <Player>, now you've really got egg on your face. This can't be my fault, so it's you who's misplaced."
311: 0x12EA [0x23] WAIT_FOR_DIALOG_INTERACTION
312: 0x12EB [0x53] WAIT_SCHEDULER_TASK: Wait for scheduler "thk1" with entities [Shantotto (ID: 17756186/0x010EF01A), Shantotto (ID: 17756186/0x010EF01A)]
313: 0x12F8 [0x52] END_LOAD_SCHEDULER: End scheduler "s143" with entities [EventEntity, EventEntity], work=672*
314: 0x1307 [0x45] LOAD_SCHEDULED_TASK: Load scheduler "s144" with entities [EventEntity, EventEntity], work=[672*, 0*]
315: 0x1318 [0x66] LOAD_EXT_SCHEDULER_MAIN: Load scheduler "thk2" with entities [Shantotto (ID: 17756186/0x010EF01A), Shantotto (ID: 17756186/0x010EF01A)], work=40*
316: 0x1327 [0x2B] Shantotto (ID: 17756186/0x010EF01A) [10517*]:
    → "There is but one thing you can do, and it comes as no surprise. Let the cold darkness take you, and face your own demise!"
317: 0x132E [0x23] WAIT_FOR_DIALOG_INTERACTION
318: 0x132F [0x53] WAIT_SCHEDULER_TASK: Wait for scheduler "thk2" with entities [Shantotto (ID: 17756186/0x010EF01A), Shantotto (ID: 17756186/0x010EF01A)]
319: 0x133C [0x45] LOAD_SCHEDULED_TASK: Load scheduler "fdo1" with entities [EventEntity, EventEntity], work=[200*, 0*]
320: 0x134D [0x1C] WAIT(120* ticks)
321: 0x1350 [0x5C] MUSIC_CONTROL: Set Idle (Day) music to song 127*
322: 0x1354 [0x5C] MUSIC_CONTROL: Set Idle (Night) music to song 127*
323: 0x1358 [0x9A] WAIT_MUSIC_SERVER()
324: 0x1359 [0x5D] SET_MUSIC_VOLUME(volume=127*, fade_time=1*)
325: 0x135E [0x1C] WAIT(2* ticks)
