# 17756207 - Keir

## Common Data

| Field            | Value                    |
|------------------|--------------------------|
| Zone             | Windurst Walls (ID: 239) |
| Block Size       | 180 bytes                |
| Total Events     | 6                        |
| References Count | 6                        |

## List of Events

| Event ID                 | Entrypoint   |   Size |   Instructions |
|--------------------------|--------------|--------|----------------|
| [65535](#event-65535)    | 0x0000       |      1 |              1 |
| [65535.1](#event-655351) | 0x0001       |     16 |              2 |
| [65535.2](#event-655352) | 0x0011       |     22 |              4 |
| [65535.3](#event-655353) | 0x0027       |      9 |              3 |
| [270](#event-270)        | 0x0030       |     33 |             12 |
| [271](#event-271)        | 0x0051       |     33 |             12 |

## DAT References (imed_data)

|   Index | Hex Value   |   Dec Value |
|---------|-------------|-------------|
|       0 | 0x0000      |           0 |
|       1 | 0x001E      |          30 |
|       2 | 0x1E20      |        7712 |
|       3 | 0x1E21      |        7713 |
|       4 | 0x1E22      |        7714 |
|       5 | 0x1E23      |        7715 |

## String References

- **7712**: It's been about ten years since I left Jeuno to come to Windurst. In that period, I haven't had much of a chance to prove myself.
- **7713**: This country is too easy-going, and it's begun to rub off on me. I can't let that happen anymore. It is my ambition that's made me what I am!
- **7714**: What is my ambition? Do you think I'd be so brash as to tell the likes of you?
- **7715**: Why don't you go first? Come on. Tell us all what your ambitions are!

## Events

### Event 65535

#### Metadata

| Field        | Value   |
|--------------|---------|
| Entrypoint   | 0x0000  |
| Data Size    | 1 bytes |
| Instructions | 1       |

```
      00 01 02 03 04 05 06 07  08 09 0A 0B 0C 0D 0E 0F
      -- -- -- -- -- -- -- --  -- -- -- -- -- -- -- --
0000: 00                                                .               
```

#### Opcodes

```
  0: 0x0000 [0x00] END_REQSTACK()
```

### Event 65535.1

#### Metadata

| Field        | Value    |
|--------------|----------|
| Entrypoint   | 0x0001   |
| Data Size    | 16 bytes |
| Instructions | 2        |

```
      00 01 02 03 04 05 06 07  08 09 0A 0B 0C 0D 0E 0F
      -- -- -- -- -- -- -- --  -- -- -- -- -- -- -- --
0000:    66 00 80 F8 FF FF 7F  F8 FF FF 7F 74 6C 6B 30   f..........tlk0
0010: 00                                                .               
```

#### Opcodes

```
  0: 0x0001 [0x66] LOAD_EXT_SCHEDULER_MAIN: Load scheduler "tlk0" with entities [EventEntity, EventEntity], work=0*
  1: 0x0010 [0x00] END_REQSTACK()
```

### Event 65535.2

#### Metadata

| Field        | Value    |
|--------------|----------|
| Entrypoint   | 0x0011   |
| Data Size    | 22 bytes |
| Instructions | 4        |

```
      00 01 02 03 04 05 06 07  08 09 0A 0B 0C 0D 0E 0F
      -- -- -- -- -- -- -- --  -- -- -- -- -- -- -- --
0010:    53 F8 FF FF 7F F8 FF  FF 7F 74 6C 6B 30 5E 69   S........tlk0^i
0020: 64 6C 30 1C 01 80 00                              dl0....         
```

#### Opcodes

```
  0: 0x0011 [0x53] WAIT_SCHEDULER_TASK: Wait for scheduler "tlk0" with entities [EventEntity, EventEntity]
  1: 0x001E [0x5E] EventEntity goes idle (kills current action) (animation: "idl0")
  2: 0x0023 [0x1C] WAIT(30* ticks)
  3: 0x0026 [0x00] END_REQSTACK()
```

### Event 65535.3

#### Metadata

| Field        | Value   |
|--------------|---------|
| Entrypoint   | 0x0027  |
| Data Size    | 9 bytes |
| Instructions | 3       |

```
      00 01 02 03 04 05 06 07  08 09 0A 0B 0C 0D 0E 0F
      -- -- -- -- -- -- -- --  -- -- -- -- -- -- -- --
0020:                      5E  69 64 6C 30 1C 01 80 00         ^idl0....
```

#### Opcodes

```
  0: 0x0027 [0x5E] EventEntity goes idle (kills current action) (animation: "idl0")
  1: 0x002C [0x1C] WAIT(30* ticks)
  2: 0x002F [0x00] END_REQSTACK()
```

### Event 270

#### Metadata

| Field        | Value    |
|--------------|----------|
| Entrypoint   | 0x0030   |
| Data Size    | 33 bytes |
| Instructions | 12       |

```
      00 01 02 03 04 05 06 07  08 09 0A 0B 0C 0D 0E 0F
      -- -- -- -- -- -- -- --  -- -- -- -- -- -- -- --
0030: 1E F0 FF FF 7F 6F 70 29  08 2F F0 0E 01 01 1D 02  .....op)./......
0040: 80 23 1D 03 80 23 29 08  2F F0 0E 01 03 20 00 21  .#...#)./.... .!
0050: 00                                                .               
```

#### Opcodes

```
  0: 0x0030 [0x1E] EventEntity looks at LocalPlayer and starts talking
  1: 0x0035 [0x6F] WAIT_FRAME_DELAY: Yield until WaitTime reaches zero
  2: 0x0036 [0x70] WAIT_ENTITY_RENDER_FLAG: Wait while EventEntity->Render.Flags3 bit 2 is set (cancel turn if not)
  3: 0x0037 [0x29] REQ_SET_WAIT(priority=0x08, entity_id=Keir (ID: 17756207/0x010EF02F), tag_num=0x01)
  4: 0x003E [0x1D] PRINT_EVENT_MESSAGE(message_id=7712*)
    → "It's been about ten years since I left Jeuno to come to Windurst. In that period, I haven't had much of a chance to prove myself."
  5: 0x0041 [0x23] WAIT_FOR_DIALOG_INTERACTION
  6: 0x0042 [0x1D] PRINT_EVENT_MESSAGE(message_id=7713*)
    → "This country is too easy-going, and it's begun to rub off on me. I can't let that happen anymore. It is my ambition that's made me what I am!"
  7: 0x0045 [0x23] WAIT_FOR_DIALOG_INTERACTION
  8: 0x0046 [0x29] REQ_SET_WAIT(priority=0x08, entity_id=Keir (ID: 17756207/0x010EF02F), tag_num=0x03)
  9: 0x004D [0x20] SET_CLI_EVENT_UC_FLAG: Unlock player control
 10: 0x004F [0x21] END_EVENT
 11: 0x0050 [0x00] END_REQSTACK()
```

### Event 271

#### Metadata

| Field        | Value    |
|--------------|----------|
| Entrypoint   | 0x0051   |
| Data Size    | 33 bytes |
| Instructions | 12       |

```
      00 01 02 03 04 05 06 07  08 09 0A 0B 0C 0D 0E 0F
      -- -- -- -- -- -- -- --  -- -- -- -- -- -- -- --
0050:    1E F0 FF FF 7F 6F 70  29 08 2F F0 0E 01 01 1D   .....op)./.....
0060: 04 80 23 1D 05 80 23 29  08 2F F0 0E 01 03 20 00  ..#...#)./.... .
0070: 21 00                                             !.              
```

#### Opcodes

```
  0: 0x0051 [0x1E] EventEntity looks at LocalPlayer and starts talking
  1: 0x0056 [0x6F] WAIT_FRAME_DELAY: Yield until WaitTime reaches zero
  2: 0x0057 [0x70] WAIT_ENTITY_RENDER_FLAG: Wait while EventEntity->Render.Flags3 bit 2 is set (cancel turn if not)
  3: 0x0058 [0x29] REQ_SET_WAIT(priority=0x08, entity_id=Keir (ID: 17756207/0x010EF02F), tag_num=0x01)
  4: 0x005F [0x1D] PRINT_EVENT_MESSAGE(message_id=7714*)
    → "What is my ambition? Do you think I'd be so brash as to tell the likes of you?"
  5: 0x0062 [0x23] WAIT_FOR_DIALOG_INTERACTION
  6: 0x0063 [0x1D] PRINT_EVENT_MESSAGE(message_id=7715*)
    → "Why don't you go first? Come on. Tell us all what your ambitions are!"
  7: 0x0066 [0x23] WAIT_FOR_DIALOG_INTERACTION
  8: 0x0067 [0x29] REQ_SET_WAIT(priority=0x08, entity_id=Keir (ID: 17756207/0x010EF02F), tag_num=0x03)
  9: 0x006E [0x20] SET_CLI_EVENT_UC_FLAG: Unlock player control
 10: 0x0070 [0x21] END_EVENT
 11: 0x0071 [0x00] END_REQSTACK()
```
