# 17756495

## Common Data

| Field            | Value                    |
|------------------|--------------------------|
| Zone             | Windurst Walls (ID: 239) |
| Block Size       | 2932 bytes               |
| Total Events     | 2                        |
| References Count | 80                       |

## List of Events

| Event ID              | Entrypoint   |   Size |   Instructions |
|-----------------------|--------------|--------|----------------|
| [65535](#event-65535) | 0x0000       |      1 |              1 |
| [548](#event-548)     | 0x0001       |   2587 |            298 |

## DAT References (imed_data)

|   Index | Hex Value   |   Dec Value |
|---------|-------------|-------------|
|       0 | 0x00C8      |         200 |
|       1 | 0x0000      |           0 |
|       2 | 0x001B      |          27 |
|       3 | 0x0195      |         405 |
|       4 | 0x1D897     |      120983 |
|       5 | 0x1B276     |      111222 |
|       6 | 0xFFFFF449  |  4294964297 |
|       7 | 0x0E7E      |        3710 |
|       8 | 0x1DFA2     |      122786 |
|       9 | 0x1AE5E     |      110174 |
|      10 | 0x0C13      |        3091 |
|      11 | 0x1E303     |      123651 |
|      12 | 0x1C419     |      115737 |
|      13 | 0x03FB      |        1019 |
|      14 | 0x1E9CB     |      125387 |
|      15 | 0x1C4D7     |      115927 |
|      16 | 0x054F      |        1359 |
|      17 | 0x1DEB0     |      122544 |
|      18 | 0x1C0C6     |      114886 |
|      19 | 0xFFFFF63C  |  4294964796 |
|      20 | 0x0485      |        1157 |
|      21 | 0x001E      |          30 |
|      22 | 0x02FD      |         765 |
|      23 | 0x000F      |          15 |
|      24 | 0x0031      |          49 |
|      25 | 0x2A43      |       10819 |
|      26 | 0x2A44      |       10820 |
|      27 | 0x0050      |          80 |
|      28 | 0x003C      |          60 |
|      29 | 0x25E9      |        9705 |
|      30 | 0x0028      |          40 |
|      31 | 0x2A45      |       10821 |
|      32 | 0x2A46      |       10822 |
|      33 | 0x01A9      |         425 |
|      34 | 0x2A47      |       10823 |
|      35 | 0x2A48      |       10824 |
|      36 | 0x2A49      |       10825 |
|      37 | 0x2A4A      |       10826 |
|      38 | 0x001D      |          29 |
|      39 | 0x0078      |         120 |
|      40 | 0x2A4B      |       10827 |
|      41 | 0x2A4C      |       10828 |
|      42 | 0x2A4D      |       10829 |
|      43 | 0x2A4E      |       10830 |
|      44 | 0x2A4F      |       10831 |
|      45 | 0x005A      |          90 |
|      46 | 0x2A50      |       10832 |
|      47 | 0x0029      |          41 |
|      48 | 0x2A51      |       10833 |
|      49 | 0x2A52      |       10834 |
|      50 | 0x2A53      |       10835 |
|      51 | 0x2A54      |       10836 |
|      52 | 0x000A      |          10 |
|      53 | 0x2A55      |       10837 |
|      54 | 0x2A56      |       10838 |
|      55 | 0x2A57      |       10839 |
|      56 | 0x2A58      |       10840 |
|      57 | 0x2A59      |       10841 |
|      58 | 0x2A5A      |       10842 |
|      59 | 0x2A5B      |       10843 |
|      60 | 0x2A5C      |       10844 |
|      61 | 0x2A5D      |       10845 |
|      62 | 0x2A5E      |       10846 |
|      63 | 0x2A5F      |       10847 |
|      64 | 0x2A60      |       10848 |
|      65 | 0x0015      |          21 |
|      66 | 0x2A61      |       10849 |
|      67 | 0x2A62      |       10850 |
|      68 | 0x0007      |           7 |
|      69 | 0x2A63      |       10851 |
|      70 | 0x2A64      |       10852 |
|      71 | 0x2A65      |       10853 |
|      72 | 0x2A66      |       10854 |
|      73 | 0x2A67      |       10855 |
|      74 | 0x2A68      |       10856 |
|      75 | 0x2A69      |       10857 |
|      76 | 0x2A6A      |       10858 |
|      77 | 0x2A6B      |       10859 |
|      78 | 0x2A6C      |       10860 |
|      79 | 0x2A6D      |       10861 |

## String References

- **9705**: 

## Events

### Event 65535

#### Metadata

| Field        | Value   |
|--------------|---------|
| Entrypoint   | 0x0000  |
| Data Size    | 1 bytes |
| Instructions | 1       |

```
      00 01 02 03 04 05 06 07  08 09 0A 0B 0C 0D 0E 0F
      -- -- -- -- -- -- -- --  -- -- -- -- -- -- -- --
0000: 00                                                .               
```

#### Opcodes

```
  0: 0x0000 [0x00] END_REQSTACK()
```

### Event 548

#### Metadata

| Field        | Value      |
|--------------|------------|
| Entrypoint   | 0x0001     |
| Data Size    | 2587 bytes |
| Instructions | 298        |

```
      00 01 02 03 04 05 06 07  08 09 0A 0B 0C 0D 0E 0F
      -- -- -- -- -- -- -- --  -- -- -- -- -- -- -- --
0000:    42 45 00 80 F8 FF FF  7F F8 FF FF 7F 66 64 6F   BE..........fdo
0010: 31 01 80 55 00 80 F8 FF  FF 7F F8 FF FF 7F 66 64  1..U..........fd
0020: 6F 31 46 01 38 02 80 75  00 03 80 75 01 2F 00 50  o1F.8..u...u./.P
0030: F1 0E 01 2F 00 51 F1 0E  01 4E 00 50 F1 0E 01 4E  .../.Q...N.P...N
0040: 00 51 F1 0E 01 92 01 50  F1 0E 01 92 01 1A F0 0E  .Q.....P........
0050: 01 92 01 21 F0 0E 01 92  01 1C F0 0E 01 94 01 50  ...!...........P
0060: F1 0E 01 94 01 1A F0 0E  01 94 01 21 F0 0E 01 94  ...........!....
0070: 01 1C F0 0E 01 94 01 F0  FF FF 7F 94 01 51 F1 0E  .............Q..
0080: 01 59 05 51 F1 0E 01 01  27 05 51 F1 0E 01 02 BA  .Y.Q....'.Q.....
0090: 50 F1 0E 01 04 80 05 80  06 80 07 80 BA F0 FF FF  P...............
00A0: 7F 08 80 09 80 06 80 0A  80 BA 21 F0 0E 01 0B 80  ..........!.....
00B0: 0C 80 06 80 0D 80 BA 1C  F0 0E 01 0E 80 0F 80 06  ................
00C0: 80 10 80 BA 51 F1 0E 01  11 80 12 80 13 80 14 80  ....Q...........
00D0: 80 50 F1 0E 01 80 21 F0  0E 01 80 F0 FF FF 7F 80  .P....!.........
00E0: 1C F0 0E 01 80 1A F0 0E  01 80 51 F1 0E 01 4A 50  ..........Q...JP
00F0: F1 0E 01 1A F0 0E 01 4A  1C F0 0E 01 F0 FF FF 7F  .......J........
0100: 4A 21 F0 0E 01 F0 FF FF  7F 4A 1A F0 0E 01 F0 FF  J!.......J......
0110: FF 7F 4A F0 FF FF 7F 1A  F0 0E 01 1C 15 80 45 16  ..J...........E.
0120: 80 F8 FF FF 7F F8 FF FF  7F 73 31 33 32 01 80 1C  .........s132...
0130: 17 80 45 00 80 F8 FF FF  7F F8 FF FF 7F 66 64 69  ..E..........fdi
0140: 31 01 80 66 18 80 1A F0  0E 01 1A F0 0E 01 74 6C  1..f..........tl
0150: 6B 30 2B 1A F0 0E 01 19  80 23 2B 1A F0 0E 01 1A  k0+......#+.....
0160: 80 23 66 18 80 1A F0 0E  01 1A F0 0E 01 74 6C 6B  .#f..........tlk
0170: 31 27 05 F0 FF FF 7F 76  1C 1B 80 45 00 80 F8 FF  1'.....v...E....
0180: FF 7F F8 FF FF 7F 66 64  6F 31 01 80 55 00 80 F8  ......fdo1..U...
0190: FF FF 7F F8 FF FF 7F 66  64 6F 31 52 16 80 F8 FF  .......fdo1R....
01A0: FF 7F F8 FF FF 7F 73 31  33 32 27 05 F0 FF FF 7F  ......s132'.....
01B0: 77 1C 1C 80 48 1D 80 4A  1C F0 0E 01 50 F1 0E 01  w...H..J....P...
01C0: 4A 21 F0 0E 01 50 F1 0E  01 4A 1A F0 0E 01 50 F1  J!...P...J....P.
01D0: 0E 01 1C 1C 80 45 16 80  F8 FF FF 7F F8 FF FF 7F  .....E..........
01E0: 73 31 33 33 01 80 1C 17  80 45 00 80 F8 FF FF 7F  s133.....E......
01F0: F8 FF FF 7F 66 64 69 31  01 80 66 1E 80 1A F0 0E  ....fdi1..f.....
0200: 01 1A F0 0E 01 74 68 6B  31 2B 1A F0 0E 01 1F 80  .....thk1+......
0210: 23 66 1E 80 1C F0 0E 01  1C F0 0E 01 64 69 73 30  #f..........dis0
0220: 2B 1C F0 0E 01 20 80 23  52 16 80 F8 FF FF 7F F8  +.... .#R.......
0230: FF FF 7F 73 31 33 33 45  16 80 F8 FF FF 7F F8 FF  ...s133E........
0240: FF 7F 73 31 33 34 01 80  5B 21 80 50 F1 0E 01 50  ..s134..[!.P...P
0250: F1 0E 01 74 6C 61 30 2B  50 F1 0E 01 22 80 23 5B  ...tla0+P...".#[
0260: 21 80 50 F1 0E 01 50 F1  0E 01 74 6C 61 31 52 16  !.P...P...tla1R.
0270: 80 F8 FF FF 7F F8 FF FF  7F 73 31 33 34 45 16 80  .........s134E..
0280: F8 FF FF 7F F8 FF FF 7F  73 31 33 35 01 80 66 18  ........s135..f.
0290: 80 21 F0 0E 01 21 F0 0E  01 74 6C 6B 30 2B 21 F0  .!...!...tlk0+!.
02A0: 0E 01 23 80 23 2B 21 F0  0E 01 24 80 23 66 18 80  ..#.#+!...$.#f..
02B0: 21 F0 0E 01 21 F0 0E 01  74 6C 6B 31 52 16 80 F8  !...!...tlk1R...
02C0: FF FF 7F F8 FF FF 7F 73  31 33 35 45 16 80 F8 FF  .......s135E....
02D0: FF 7F F8 FF FF 7F 73 31  33 36 01 80 4A 1C F0 0E  ......s136..J...
02E0: 01 21 F0 0E 01 1C 15 80  6B 69 64 6C 30 1A F0 0E  .!......kidl0...
02F0: 01 66 1E 80 1C F0 0E 01  1C F0 0E 01 69 72 6F 30  .f..........iro0
0300: 2B 1C F0 0E 01 25 80 23  6E 21 F0 0E 01 26 80 99  +....%.#n!...&..
0310: 21 F0 0E 01 1C 27 80 52  16 80 F8 FF FF 7F F8 FF  !....'.R........
0320: FF 7F 73 31 33 36 45 16  80 F8 FF FF 7F F8 FF FF  ..s136E.........
0330: 7F 73 31 33 37 01 80 4A  1A F0 0E 01 21 F0 0E 01  .s137..J....!...
0340: 2B 1A F0 0E 01 28 80 23  52 16 80 F8 FF FF 7F F8  +....(.#R.......
0350: FF FF 7F 73 31 33 37 45  16 80 F8 FF FF 7F F8 FF  ...s137E........
0360: FF 7F 73 31 33 38 01 80  27 05 1A F0 0E 01 D2 2B  ..s138..'......+
0370: 1A F0 0E 01 29 80 23 2B  1A F0 0E 01 2A 80 23 2A  ....).#+....*.#*
0380: 05 1A F0 0E 01 66 1E 80  1A F0 0E 01 1A F0 0E 01  .....f..........
0390: 74 68 6B 31 2B 1A F0 0E  01 2B 80 23 52 16 80 F8  thk1+....+.#R...
03A0: FF FF 7F F8 FF FF 7F 73  31 33 38 45 16 80 F8 FF  .......s138E....
03B0: FF 7F F8 FF FF 7F 73 31  33 39 01 80 6E 1C F0 0E  ......s139..n...
03C0: 01 01 80 99 1C F0 0E 01  66 1E 80 1A F0 0E 01 1A  ........f.......
03D0: F0 0E 01 74 68 6B 32 2B  1C F0 0E 01 2C 80 1C 2D  ...thk2+....,..-
03E0: 80 23 4A 1A F0 0E 01 1C  F0 0E 01 1C 15 80 66 1E  .#J...........f.
03F0: 80 1A F0 0E 01 1A F0 0E  01 64 69 73 30 2B 1A F0  .........dis0+..
0400: 0E 01 2E 80 23 52 16 80  F8 FF FF 7F F8 FF FF 7F  ....#R..........
0410: 73 31 33 39 45 16 80 F8  FF FF 7F F8 FF FF 7F 73  s139E..........s
0420: 31 34 30 01 80 66 2F 80  1C F0 0E 01 1C F0 0E 01  140..f/.........
0430: 73 68 6B 30 2B 1C F0 0E  01 30 80 1C 2D 80 52 16  shk0+....0..-.R.
0440: 80 F8 FF FF 7F F8 FF FF  7F 73 31 34 30 45 16 80  .........s140E..
0450: F8 FF FF 7F F8 FF FF 7F  73 31 34 31 01 80 66 18  ........s141..f.
0460: 80 1A F0 0E 01 1A F0 0E  01 74 6C 6B 30 2B 1A F0  .........tlk0+..
0470: 0E 01 31 80 23 2B 1A F0  0E 01 32 80 23 2B 1A F0  ..1.#+....2.#+..
0480: 0E 01 33 80 23 66 18 80  1A F0 0E 01 1A F0 0E 01  ..3.#f..........
0490: 74 6C 6B 31 52 16 80 F8  FF FF 7F F8 FF FF 7F 73  tlk1R..........s
04A0: 31 34 31 45 16 80 F8 FF  FF 7F F8 FF FF 7F 73 31  141E..........s1
04B0: 34 32 01 80 6E 21 F0 0E  01 34 80 99 21 F0 0E 01  42..n!...4..!...
04C0: 2B 21 F0 0E 01 35 80 23  4A 1A F0 0E 01 21 F0 0E  +!...5.#J....!..
04D0: 01 1C 15 80 66 18 80 1A  F0 0E 01 1A F0 0E 01 74  ....f..........t
04E0: 6C 6B 30 2B 1A F0 0E 01  36 80 23 2B 1A F0 0E 01  lk0+....6.#+....
04F0: 37 80 23 66 18 80 1A F0  0E 01 1A F0 0E 01 74 6C  7.#f..........tl
0500: 6B 31 52 16 80 F8 FF FF  7F F8 FF FF 7F 73 31 34  k1R..........s14
0510: 32 45 16 80 F8 FF FF 7F  F8 FF FF 7F 73 31 34 33  2E..........s143
0520: 01 80 4A 1C F0 0E 01 21  F0 0E 01 1C 15 80 4A 21  ..J....!......J!
0530: F0 0E 01 1C F0 0E 01 66  18 80 1C F0 0E 01 1C F0  .......f........
0540: 0E 01 74 6C 6B 30 2B 1C  F0 0E 01 38 80 1C 15 80  ..tlk0+....8....
0550: 23 66 18 80 1C F0 0E 01  1C F0 0E 01 74 6C 6B 31  #f..........tlk1
0560: 66 2F 80 21 F0 0E 01 21  F0 0E 01 65 68 6E 30 2B  f/.!...!...ehn0+
0570: 21 F0 0E 01 39 80 23 66  1E 80 1C F0 0E 01 1C F0  !...9.#f........
0580: 0E 01 67 6B 72 30 1C 27  80 52 16 80 F8 FF FF 7F  ..gkr0.'.R......
0590: F8 FF FF 7F 73 31 34 33  45 16 80 F8 FF FF 7F F8  ....s143E.......
05A0: FF FF 7F 73 31 34 34 01  80 66 2F 80 21 F0 0E 01  ...s144..f/.!...
05B0: 21 F0 0E 01 65 68 6E 31  2B 21 F0 0E 01 3A 80 1C  !...ehn1+!...:..
05C0: 15 80 6B 69 64 6C 30 1C  F0 0E 01 79 00 F0 FF FF  ..kidl0....y....
05D0: 7F 21 F0 0E 01 79 00 50  F1 0E 01 21 F0 0E 01 1C  .!...y.P...!....
05E0: 1C 80 23 52 16 80 F8 FF  FF 7F F8 FF FF 7F 73 31  ..#R..........s1
05F0: 34 34 45 16 80 F8 FF FF  7F F8 FF FF 7F 73 31 34  44E..........s14
0600: 35 01 80 4A 21 F0 0E 01  F0 FF FF 7F 1C 15 80 66  5..J!..........f
0610: 18 80 21 F0 0E 01 21 F0  0E 01 74 6C 6B 30 2B 21  ..!...!...tlk0+!
0620: F0 0E 01 3B 80 23 2B 21  F0 0E 01 3C 80 23 52 16  ...;.#+!...<.#R.
0630: 80 F8 FF FF 7F F8 FF FF  7F 73 31 34 35 45 16 80  .........s145E..
0640: F8 FF FF 7F F8 FF FF 7F  73 31 34 36 01 80 2B 21  ........s146..+!
0650: F0 0E 01 3D 80 23 2B 21  F0 0E 01 3E 80 23 66 18  ...=.#+!...>.#f.
0660: 80 21 F0 0E 01 21 F0 0E  01 74 6C 6B 31 52 16 80  .!...!...tlk1R..
0670: F8 FF FF 7F F8 FF FF 7F  73 31 34 36 45 16 80 F8  ........s146E...
0680: FF FF 7F F8 FF FF 7F 73  31 34 37 01 80 66 1E 80  .......s147..f..
0690: 1C F0 0E 01 1C F0 0E 01  74 68 6B 31 2B 1C F0 0E  ........thk1+...
06A0: 01 3F 80 23 66 1E 80 1C  F0 0E 01 1C F0 0E 01 74  .?.#f..........t
06B0: 68 6B 32 52 16 80 F8 FF  FF 7F F8 FF FF 7F 73 31  hk2R..........s1
06C0: 34 37 45 16 80 F8 FF FF  7F F8 FF FF 7F 73 31 34  47E..........s14
06D0: 38 01 80 4A 21 F0 0E 01  1C F0 0E 01 1C 15 80 66  8..J!..........f
06E0: 2F 80 21 F0 0E 01 21 F0  0E 01 65 68 6E 30 2B 21  /.!...!...ehn0+!
06F0: F0 0E 01 40 80 23 6E 1C  F0 0E 01 41 80 99 1C F0  ...@.#n....A....
0700: 0E 01 1C 27 80 52 16 80  F8 FF FF 7F F8 FF FF 7F  ...'.R..........
0710: 73 31 34 38 45 16 80 F8  FF FF 7F F8 FF FF 7F 73  s148E..........s
0720: 31 34 39 01 80 66 2F 80  21 F0 0E 01 21 F0 0E 01  149..f/.!...!...
0730: 65 68 6E 31 2B 21 F0 0E  01 42 80 23 66 1E 80 1C  ehn1+!...B.#f...
0740: F0 0E 01 1C F0 0E 01 67  6B 72 30 1C 27 80 52 16  .......gkr0.'.R.
0750: 80 F8 FF FF 7F F8 FF FF  7F 73 31 34 39 45 16 80  .........s149E..
0760: F8 FF FF 7F F8 FF FF 7F  73 31 35 30 01 80 4A 21  ........s150..J!
0770: F0 0E 01 F0 FF FF 7F 1C  15 80 4A 1A F0 0E 01 F0  ..........J.....
0780: FF FF 7F 66 1E 80 1C F0  0E 01 1C F0 0E 01 67 6B  ...f..........gk
0790: 72 31 66 18 80 21 F0 0E  01 21 F0 0E 01 74 6C 6B  r1f..!...!...tlk
07A0: 30 2B 21 F0 0E 01 43 80  23 66 18 80 21 F0 0E 01  0+!...C.#f..!...
07B0: 21 F0 0E 01 74 6C 6B 31  79 00 F0 FF FF 7F 1A F0  !...tlk1y.......
07C0: 0E 01 79 00 50 F1 0E 01  1A F0 0E 01 6E 1A F0 0E  ..y.P.......n...
07D0: 01 44 80 99 1A F0 0E 01  2B 1A F0 0E 01 45 80 1C  .D......+....E..
07E0: 2D 80 23 52 16 80 F8 FF  FF 7F F8 FF FF 7F 73 31  -.#R..........s1
07F0: 35 30 45 16 80 F8 FF FF  7F F8 FF FF 7F 73 31 35  50E..........s15
0800: 31 01 80 27 05 51 F1 0E  01 03 66 2F 80 1A F0 0E  1..'.Q....f/....
0810: 01 1A F0 0E 01 6F 68 68  30 2B 1A F0 0E 01 46 80  .....ohh0+....F.
0820: 23 2A 05 51 F1 0E 01 27  05 21 F0 0E 01 8D 7B 21  #*.Q...'.!....{!
0830: F0 0E 01 2B 1A F0 0E 01  47 80 23 66 2F 80 1A F0  ...+....G.#f/...
0840: 0E 01 1A F0 0E 01 6F 68  68 31 2A 05 21 F0 0E 01  ......ohh1*.!...
0850: 52 16 80 F8 FF FF 7F F8  FF FF 7F 73 31 35 31 45  R..........s151E
0860: 16 80 F8 FF FF 7F F8 FF  FF 7F 73 31 35 32 01 80  ..........s152..
0870: 66 1E 80 1C F0 0E 01 1C  F0 0E 01 74 68 6B 31 2B  f..........thk1+
0880: 1C F0 0E 01 48 80 23 2B  1C F0 0E 01 49 80 23 52  ....H.#+....I.#R
0890: 16 80 F8 FF FF 7F F8 FF  FF 7F 73 31 35 32 45 16  ..........s152E.
08A0: 80 F8 FF FF 7F F8 FF FF  7F 73 31 35 33 01 80 4A  .........s153..J
08B0: 1A F0 0E 01 1C F0 0E 01  1C 15 80 66 1E 80 1A F0  ...........f....
08C0: 0E 01 1A F0 0E 01 64 69  73 30 2B 1A F0 0E 01 4A  ......dis0+....J
08D0: 80 23 2B 1A F0 0E 01 4B  80 23 66 1E 80 1C F0 0E  .#+....K.#f.....
08E0: 01 1C F0 0E 01 74 68 6B  32 52 16 80 F8 FF FF 7F  .....thk2R......
08F0: F8 FF FF 7F 73 31 35 33  45 16 80 F8 FF FF 7F F8  ....s153E.......
0900: FF FF 7F 73 31 35 34 01  80 79 00 F0 FF FF 7F 21  ...s154..y.....!
0910: F0 0E 01 2B 21 F0 0E 01  4C 80 23 52 16 80 F8 FF  ...+!...L.#R....
0920: FF 7F F8 FF FF 7F 73 31  35 34 45 16 80 F8 FF FF  ......s154E.....
0930: 7F F8 FF FF 7F 73 31 35  35 01 80 4A 1A F0 0E 01  .....s155..J....
0940: 21 F0 0E 01 1C 15 80 6E  1A F0 0E 01 44 80 99 1A  !......n....D...
0950: F0 0E 01 2B 1A F0 0E 01  4D 80 23 27 05 1C F0 0E  ...+....M.#'....
0960: 01 99 66 1E 80 21 F0 0E  01 21 F0 0E 01 74 6C 6B  ..f..!...!...tlk
0970: 31 2B 1C F0 0E 01 4E 80  23 2A 05 1C F0 0E 01 52  1+....N.#*.....R
0980: 16 80 F8 FF FF 7F F8 FF  FF 7F 73 31 35 35 45 16  ..........s155E.
0990: 80 F8 FF FF 7F F8 FF FF  7F 73 31 35 36 01 80 4A  .........s156..J
09A0: 21 F0 0E 01 F0 FF FF 7F  1C 15 80 66 18 80 21 F0  !..........f..!.
09B0: 0E 01 21 F0 0E 01 74 6C  6B 30 2B 21 F0 0E 01 4F  ..!...tlk0+!...O
09C0: 80 23 66 18 80 21 F0 0E  01 21 F0 0E 01 74 6C 6B  .#f..!...!...tlk
09D0: 31 45 00 80 F8 FF FF 7F  F8 FF FF 7F 66 64 6F 31  1E..........fdo1
09E0: 01 80 55 00 80 F8 FF FF  7F F8 FF FF 7F 66 64 6F  ..U..........fdo
09F0: 31 52 16 80 F8 FF FF 7F  F8 FF FF 7F 73 31 35 36  1R..........s156
0A00: 29 05 21 F0 0E 01 8E 46  00 45 00 80 F8 FF FF 7F  ).!....F.E......
0A10: F8 FF FF 7F 66 64 69 32  01 80 21 00              ....fdi2..!.    
```

#### Opcodes

```
  0: 0x0001 [0x42] SET_CLI_EVENT_CANCEL_DATA()
  1: 0x0002 [0x45] LOAD_SCHEDULED_TASK: Load scheduler "fdo1" with entities [EventEntity, EventEntity], work=[200*, 0*]
  2: 0x0013 [0x55] WAIT_LOAD_SCHEDULER: Wait for scheduler "fdo1" with entities [EventEntity, EventEntity], work=200*
  3: 0x0022 [0x46] CAMERA_CONTROL: Disable user control
  4: 0x0024 [0x38] SET_CLIENT_EVENT_MODE(mode=27*)
  5: 0x0027 [0x75] LOAD_ROOM(Load indoor room, room=405*)
  6: 0x002B [0x75] LOAD_ROOM(No action)
  7: 0x002D [0x2F] Tenzen (ID: 17756496/0x010EF150)->Render.Flags0 &= ~0x80000 // Bit 19
  8: 0x0033 [0x2F] Unnamed NPC (ID: 17756497/0x010EF151)->Render.Flags0 &= ~0x80000 // Bit 19
  9: 0x0039 [0x4E] SET_ENTITY_HIDE_FLAG: Show Tenzen (ID: 17756496/0x010EF150)
 10: 0x003F [0x4E] SET_ENTITY_HIDE_FLAG: Show Unnamed NPC (ID: 17756497/0x010EF151)
 11: 0x0045 [0x92] Tenzen (ID: 17756496/0x010EF150)->Render.Flags3 ^= 0x01
 12: 0x004B [0x92] Shantotto (ID: 17756186/0x010EF01A)->Render.Flags3 ^= 0x01
 13: 0x0051 [0x92] Koru-Moru (ID: 17756193/0x010EF021)->Render.Flags3 ^= 0x01
 14: 0x0057 [0x92] Yoran-Oran (ID: 17756188/0x010EF01C)->Render.Flags3 ^= 0x01
 15: 0x005D [0x94] Tenzen (ID: 17756496/0x010EF150)->Render.Flags3 ^= 0x01
 16: 0x0063 [0x94] Shantotto (ID: 17756186/0x010EF01A)->Render.Flags3 ^= 0x01
 17: 0x0069 [0x94] Koru-Moru (ID: 17756193/0x010EF021)->Render.Flags3 ^= 0x01
 18: 0x006F [0x94] Yoran-Oran (ID: 17756188/0x010EF01C)->Render.Flags3 ^= 0x01
 19: 0x0075 [0x94] LocalPlayer->Render.Flags3 ^= 0x01
 20: 0x007B [0x94] Unnamed NPC (ID: 17756497/0x010EF151)->Render.Flags3 ^= 0x01
 21: 0x0081 [0x59] UPDATE_ENTITY_DATA: Unnamed NPC (ID: 17756497/0x010EF151)->Render.Flags0 |= 0x200000
 22: 0x0088 [0x27] REQ_SET(priority=0x05, entity_id=Unnamed NPC (ID: 17756497/0x010EF151), tag_num=0x02)
 23: 0x008F [0xBA] SET_ENTITY_POSITION(entity_id=Tenzen (ID: 17756496/0x010EF150), pos_x=120.983*, pos_z=111.222*, pos_y=-2.999*, direction=326.1°*)
 24: 0x009C [0xBA] SET_ENTITY_POSITION(entity_id=LocalPlayer, pos_x=122.786*, pos_z=110.174*, pos_y=-2.999*, direction=271.7°*)
 25: 0x00A9 [0xBA] SET_ENTITY_POSITION(entity_id=Koru-Moru (ID: 17756193/0x010EF021), pos_x=123.651*, pos_z=115.737*, pos_y=-2.999*, direction=89.6°*)
 26: 0x00B6 [0xBA] SET_ENTITY_POSITION(entity_id=Yoran-Oran (ID: 17756188/0x010EF01C), pos_x=125.387*, pos_z=115.927*, pos_y=-2.999*, direction=119.4°*)
 27: 0x00C3 [0xBA] SET_ENTITY_POSITION(entity_id=Unnamed NPC (ID: 17756497/0x010EF151), pos_x=122.544*, pos_z=114.886*, pos_y=-2.500*, direction=101.7°*)
 28: 0x00D0 [0x80] LOAD_WAIT(entity=Tenzen (ID: 17756496/0x010EF150))
 29: 0x00D5 [0x80] LOAD_WAIT(entity=Koru-Moru (ID: 17756193/0x010EF021))
 30: 0x00DA [0x80] LOAD_WAIT(entity=LocalPlayer)
 31: 0x00DF [0x80] LOAD_WAIT(entity=Yoran-Oran (ID: 17756188/0x010EF01C))
 32: 0x00E4 [0x80] LOAD_WAIT(entity=Shantotto (ID: 17756186/0x010EF01A))
 33: 0x00E9 [0x80] LOAD_WAIT(entity=Unnamed NPC (ID: 17756497/0x010EF151))
 34: 0x00EE [0x4A] Tenzen (ID: 17756496/0x010EF150) looks at Shantotto (ID: 17756186/0x010EF01A)
 35: 0x00F7 [0x4A] Yoran-Oran (ID: 17756188/0x010EF01C) looks at LocalPlayer
 36: 0x0100 [0x4A] Koru-Moru (ID: 17756193/0x010EF021) looks at LocalPlayer
 37: 0x0109 [0x4A] Shantotto (ID: 17756186/0x010EF01A) looks at LocalPlayer
 38: 0x0112 [0x4A] LocalPlayer looks at Shantotto (ID: 17756186/0x010EF01A)
 39: 0x011B [0x1C] WAIT(30* ticks)
 40: 0x011E [0x45] LOAD_SCHEDULED_TASK: Load scheduler "s132" with entities [EventEntity, EventEntity], work=[765*, 0*]
 41: 0x012F [0x1C] WAIT(15* ticks)
 42: 0x0132 [0x45] LOAD_SCHEDULED_TASK: Load scheduler "fdi1" with entities [EventEntity, EventEntity], work=[200*, 0*]
 43: 0x0143 [0x66] LOAD_EXT_SCHEDULER_MAIN: Load scheduler "tlk0" with entities [Shantotto (ID: 17756186/0x010EF01A), Shantotto (ID: 17756186/0x010EF01A)], work=49*
 44: 0x0152 [0x2B] Shantotto (ID: 17756186/0x010EF01A) [10819*]:
    → "Ah, another adventurer come to invade my domain. Please stand over there and stop playing dumb games."
 45: 0x0159 [0x23] WAIT_FOR_DIALOG_INTERACTION
 46: 0x015A [0x2B] Shantotto (ID: 17756186/0x010EF01A) [10820*]:
    → "For your sake, I hope you aren't such a bore. I'm getting quite tired of cleaning blood off the floor."
 47: 0x0161 [0x23] WAIT_FOR_DIALOG_INTERACTION
 48: 0x0162 [0x66] LOAD_EXT_SCHEDULER_MAIN: Load scheduler "tlk1" with entities [Shantotto (ID: 17756186/0x010EF01A), Shantotto (ID: 17756186/0x010EF01A)], work=49*
 49: 0x0171 [0x27] REQ_SET(priority=0x05, entity_id=LocalPlayer, tag_num=0x76)
 50: 0x0178 [0x1C] WAIT(80* ticks)
 51: 0x017B [0x45] LOAD_SCHEDULED_TASK: Load scheduler "fdo1" with entities [EventEntity, EventEntity], work=[200*, 0*]
 52: 0x018C [0x55] WAIT_LOAD_SCHEDULER: Wait for scheduler "fdo1" with entities [EventEntity, EventEntity], work=200*
 53: 0x019B [0x52] END_LOAD_SCHEDULER: End scheduler "s132" with entities [EventEntity, EventEntity], work=765*
 54: 0x01AA [0x27] REQ_SET(priority=0x05, entity_id=LocalPlayer, tag_num=0x77)
 55: 0x01B1 [0x1C] WAIT(60* ticks)
 56: 0x01B4 [0x48] [System] [9705*]:
    → ""
 57: 0x01B7 [0x4A] Yoran-Oran (ID: 17756188/0x010EF01C) looks at Tenzen (ID: 17756496/0x010EF150)
 58: 0x01C0 [0x4A] Koru-Moru (ID: 17756193/0x010EF021) looks at Tenzen (ID: 17756496/0x010EF150)
 59: 0x01C9 [0x4A] Shantotto (ID: 17756186/0x010EF01A) looks at Tenzen (ID: 17756496/0x010EF150)
 60: 0x01D2 [0x1C] WAIT(60* ticks)
 61: 0x01D5 [0x45] LOAD_SCHEDULED_TASK: Load scheduler "s133" with entities [EventEntity, EventEntity], work=[765*, 0*]
 62: 0x01E6 [0x1C] WAIT(15* ticks)
 63: 0x01E9 [0x45] LOAD_SCHEDULED_TASK: Load scheduler "fdi1" with entities [EventEntity, EventEntity], work=[200*, 0*]
 64: 0x01FA [0x66] LOAD_EXT_SCHEDULER_MAIN: Load scheduler "thk1" with entities [Shantotto (ID: 17756186/0x010EF01A), Shantotto (ID: 17756186/0x010EF01A)], work=40*
 65: 0x0209 [0x2B] Shantotto (ID: 17756186/0x010EF01A) [10821*]:
    → "You have a girl from the future that has come to the past? I've seen this play out before--trust me, it won't last."
 66: 0x0210 [0x23] WAIT_FOR_DIALOG_INTERACTION
 67: 0x0211 [0x66] LOAD_EXT_SCHEDULER_MAIN: Load scheduler "dis0" with entities [Yoran-Oran (ID: 17756188/0x010EF01C), Yoran-Oran (ID: 17756188/0x010EF01C)], work=40*
 68: 0x0220 [0x2B] Yoran-Oran (ID: 17756188/0x010EF01C) [10822*]:
    → "Please, I beg-ethy you to calm down!"
 69: 0x0227 [0x23] WAIT_FOR_DIALOG_INTERACTION
 70: 0x0228 [0x52] END_LOAD_SCHEDULER: End scheduler "s133" with entities [EventEntity, EventEntity], work=765*
 71: 0x0237 [0x45] LOAD_SCHEDULED_TASK: Load scheduler "s134" with entities [EventEntity, EventEntity], work=[765*, 0*]
 72: 0x0248 [0x5B] LOAD_EXT_SCHEDULER: Load scheduler "tla0" with entities [Tenzen (ID: 17756496/0x010EF150), Tenzen (ID: 17756496/0x010EF150)], work=425*
 73: 0x0257 [0x2B] Tenzen (ID: 17756496/0x010EF150) [10823*]:
    → "Ah, Doctor Shantotto. Your laboratory smells quite lovely."
 74: 0x025E [0x23] WAIT_FOR_DIALOG_INTERACTION
 75: 0x025F [0x5B] LOAD_EXT_SCHEDULER: Load scheduler "tla1" with entities [Tenzen (ID: 17756496/0x010EF150), Tenzen (ID: 17756496/0x010EF150)], work=425*
 76: 0x026E [0x52] END_LOAD_SCHEDULER: End scheduler "s134" with entities [EventEntity, EventEntity], work=765*
 77: 0x027D [0x45] LOAD_SCHEDULED_TASK: Load scheduler "s135" with entities [EventEntity, EventEntity], work=[765*, 0*]
 78: 0x028E [0x66] LOAD_EXT_SCHEDULER_MAIN: Load scheduler "tlk0" with entities [Koru-Moru (ID: 17756193/0x010EF021), Koru-Moru (ID: 17756193/0x010EF021)], work=49*
 79: 0x029D [0x2B] Koru-Moru (ID: 17756193/0x010EF021) [10824*]:
    → "Why, that would be the splendoreeno aroma from this jar!"
 80: 0x02A4 [0x23] WAIT_FOR_DIALOG_INTERACTION
 81: 0x02A5 [0x2B] Koru-Moru (ID: 17756193/0x010EF021) [10825*]:
    → "It's been fourteen years since I've combined a splendid-widdly-wendid blend of herbs and spices, all sealed tight in this jar until right now, when--"
 82: 0x02AC [0x23] WAIT_FOR_DIALOG_INTERACTION
 83: 0x02AD [0x66] LOAD_EXT_SCHEDULER_MAIN: Load scheduler "tlk1" with entities [Koru-Moru (ID: 17756193/0x010EF021), Koru-Moru (ID: 17756193/0x010EF021)], work=49*
 84: 0x02BC [0x52] END_LOAD_SCHEDULER: End scheduler "s135" with entities [EventEntity, EventEntity], work=765*
 85: 0x02CB [0x45] LOAD_SCHEDULED_TASK: Load scheduler "s136" with entities [EventEntity, EventEntity], work=[765*, 0*]
 86: 0x02DC [0x4A] Yoran-Oran (ID: 17756188/0x010EF01C) looks at Koru-Moru (ID: 17756193/0x010EF021)
 87: 0x02E5 [0x1C] WAIT(30* ticks)
 88: 0x02E8 [0x6B] STOP_AND_IDLE: Shantotto (ID: 17756186/0x010EF01A) stops current action and resets to idle (animation="idl0")
 89: 0x02F1 [0x66] LOAD_EXT_SCHEDULER_MAIN: Load scheduler "iro0" with entities [Yoran-Oran (ID: 17756188/0x010EF01C), Yoran-Oran (ID: 17756188/0x010EF01C)], work=40*
 90: 0x0300 [0x2B] Yoran-Oran (ID: 17756188/0x010EF01C) [10826*]:
    → "Hush hush!!! The recipe is supposed to be a secret-ethy!"
 91: 0x0307 [0x23] WAIT_FOR_DIALOG_INTERACTION
 92: 0x0308 [0x6E] Koru-Moru (ID: 17756193/0x010EF021) uses emote 29*
 93: 0x030F [0x99] Wait for Koru-Moru (ID: 17756193/0x010EF021) animation to complete
 94: 0x0314 [0x1C] WAIT(120* ticks)
 95: 0x0317 [0x52] END_LOAD_SCHEDULER: End scheduler "s136" with entities [EventEntity, EventEntity], work=765*
 96: 0x0326 [0x45] LOAD_SCHEDULED_TASK: Load scheduler "s137" with entities [EventEntity, EventEntity], work=[765*, 0*]
 97: 0x0337 [0x4A] Shantotto (ID: 17756186/0x010EF01A) looks at Koru-Moru (ID: 17756193/0x010EF021)
 98: 0x0340 [0x2B] Shantotto (ID: 17756186/0x010EF01A) [10827*]:
    → "The two of you can sit here and argue for hours, But there are those in duress who have need of our powers."
 99: 0x0347 [0x23] WAIT_FOR_DIALOG_INTERACTION
100: 0x0348 [0x52] END_LOAD_SCHEDULER: End scheduler "s137" with entities [EventEntity, EventEntity], work=765*
101: 0x0357 [0x45] LOAD_SCHEDULED_TASK: Load scheduler "s138" with entities [EventEntity, EventEntity], work=[765*, 0*]
102: 0x0368 [0x27] REQ_SET(priority=0x05, entity_id=Shantotto (ID: 17756186/0x010EF01A), tag_num=0xD2)
103: 0x036F [0x2B] Shantotto (ID: 17756186/0x010EF01A) [10828*]:
    → "Though your orb is quite fascinating and has me perplexed, And your friend from the East I would love to dissect..."
104: 0x0376 [0x23] WAIT_FOR_DIALOG_INTERACTION
105: 0x0377 [0x2B] Shantotto (ID: 17756186/0x010EF01A) [10829*]:
    → "There are more pressing matters to which we must attend-- The issue of Selh'teus, to whose will the crystal shall bend."
106: 0x037E [0x23] WAIT_FOR_DIALOG_INTERACTION
107: 0x037F [0x2A] GET_REQ_LEVEL(level=5, entity_id=Shantotto (ID: 17756186/0x010EF01A))
108: 0x0385 [0x66] LOAD_EXT_SCHEDULER_MAIN: Load scheduler "thk1" with entities [Shantotto (ID: 17756186/0x010EF01A), Shantotto (ID: 17756186/0x010EF01A)], work=40*
109: 0x0394 [0x2B] Shantotto (ID: 17756186/0x010EF01A) [10830*]:
    → "This world of yours--Tartarus?--it has me intrigued. "Please, Shantotto, help us!" I can hear you plead."
110: 0x039B [0x23] WAIT_FOR_DIALOG_INTERACTION
111: 0x039C [0x52] END_LOAD_SCHEDULER: End scheduler "s138" with entities [EventEntity, EventEntity], work=765*
112: 0x03AB [0x45] LOAD_SCHEDULED_TASK: Load scheduler "s139" with entities [EventEntity, EventEntity], work=[765*, 0*]
113: 0x03BC [0x6E] Yoran-Oran (ID: 17756188/0x010EF01C) uses emote 0*
114: 0x03C3 [0x99] Wait for Yoran-Oran (ID: 17756188/0x010EF01C) animation to complete
115: 0x03C8 [0x66] LOAD_EXT_SCHEDULER_MAIN: Load scheduler "thk2" with entities [Shantotto (ID: 17756186/0x010EF01A), Shantotto (ID: 17756186/0x010EF01A)], work=40*
116: 0x03D7 [0x2B] Yoran-Oran (ID: 17756188/0x010EF01C) [10831*]:
    → "Now wait just a minute. Why haven't I heard-ethy of this "Tartarus"?"
117: 0x03DE [0x1C] WAIT(90* ticks)
118: 0x03E1 [0x23] WAIT_FOR_DIALOG_INTERACTION
119: 0x03E2 [0x4A] Shantotto (ID: 17756186/0x010EF01A) looks at Yoran-Oran (ID: 17756188/0x010EF01C)
120: 0x03EB [0x1C] WAIT(30* ticks)
121: 0x03EE [0x66] LOAD_EXT_SCHEDULER_MAIN: Load scheduler "dis0" with entities [Shantotto (ID: 17756186/0x010EF01A), Shantotto (ID: 17756186/0x010EF01A)], work=40*
122: 0x03FD [0x2B] Shantotto (ID: 17756186/0x010EF01A) [10832*]:
    → "Dear Yoran-Oran, of course I know of this world. They want to know more, with details unfurled."
123: 0x0404 [0x23] WAIT_FOR_DIALOG_INTERACTION
124: 0x0405 [0x52] END_LOAD_SCHEDULER: End scheduler "s139" with entities [EventEntity, EventEntity], work=765*
125: 0x0414 [0x45] LOAD_SCHEDULED_TASK: Load scheduler "s140" with entities [EventEntity, EventEntity], work=[765*, 0*]
126: 0x0425 [0x66] LOAD_EXT_SCHEDULER_MAIN: Load scheduler "shk0" with entities [Yoran-Oran (ID: 17756188/0x010EF01C), Yoran-Oran (ID: 17756188/0x010EF01C)], work=41*
127: 0x0434 [0x2B] Yoran-Oran (ID: 17756188/0x010EF01C) [10833*]:
    → "H-how do you know of it?"
128: 0x043B [0x1C] WAIT(90* ticks)
129: 0x043E [0x52] END_LOAD_SCHEDULER: End scheduler "s140" with entities [EventEntity, EventEntity], work=765*
130: 0x044D [0x45] LOAD_SCHEDULED_TASK: Load scheduler "s141" with entities [EventEntity, EventEntity], work=[765*, 0*]
131: 0x045E [0x66] LOAD_EXT_SCHEDULER_MAIN: Load scheduler "tlk0" with entities [Shantotto (ID: 17756186/0x010EF01A), Shantotto (ID: 17756186/0x010EF01A)], work=49*
132: 0x046D [0x2B] Shantotto (ID: 17756186/0x010EF01A) [10834*]:
    → "Vana'diel is in but one of countless dimensions. Though blessed by Altana, I must dutifully mention."
133: 0x0474 [0x23] WAIT_FOR_DIALOG_INTERACTION
134: 0x0475 [0x2B] Shantotto (ID: 17756186/0x010EF01A) [10835*]:
    → "Up until now I couldn't prove its existence, But help them I shall, if they need my assistance."
135: 0x047C [0x23] WAIT_FOR_DIALOG_INTERACTION
136: 0x047D [0x2B] Shantotto (ID: 17756186/0x010EF01A) [10836*]:
    → "The name by itself is a cause for alarm, And doubtless there are monsters who wish to cause harm."
137: 0x0484 [0x23] WAIT_FOR_DIALOG_INTERACTION
138: 0x0485 [0x66] LOAD_EXT_SCHEDULER_MAIN: Load scheduler "tlk1" with entities [Shantotto (ID: 17756186/0x010EF01A), Shantotto (ID: 17756186/0x010EF01A)], work=49*
139: 0x0494 [0x52] END_LOAD_SCHEDULER: End scheduler "s141" with entities [EventEntity, EventEntity], work=765*
140: 0x04A3 [0x45] LOAD_SCHEDULED_TASK: Load scheduler "s142" with entities [EventEntity, EventEntity], work=[765*, 0*]
141: 0x04B4 [0x6E] Koru-Moru (ID: 17756193/0x010EF021) uses emote 10*
142: 0x04BB [0x99] Wait for Koru-Moru (ID: 17756193/0x010EF021) animation to complete
143: 0x04C0 [0x2B] Koru-Moru (ID: 17756193/0x010EF021) [10837*]:
    → "Diddly-doo, the universe is such a big place!"
144: 0x04C7 [0x23] WAIT_FOR_DIALOG_INTERACTION
145: 0x04C8 [0x4A] Shantotto (ID: 17756186/0x010EF01A) looks at Koru-Moru (ID: 17756193/0x010EF021)
146: 0x04D1 [0x1C] WAIT(30* ticks)
147: 0x04D4 [0x66] LOAD_EXT_SCHEDULER_MAIN: Load scheduler "tlk0" with entities [Shantotto (ID: 17756186/0x010EF01A), Shantotto (ID: 17756186/0x010EF01A)], work=49*
148: 0x04E3 [0x2B] Shantotto (ID: 17756186/0x010EF01A) [10838*]:
    → "Koru-Moru, you act as if you're wholly disconnected, But how soon you forget that monstrosity you've erected."
149: 0x04EA [0x23] WAIT_FOR_DIALOG_INTERACTION
150: 0x04EB [0x2B] Shantotto (ID: 17756186/0x010EF01A) [10839*]:
    → "You're always involved in some monkey business, And to a more sorry sight I've never borne witness."
151: 0x04F2 [0x23] WAIT_FOR_DIALOG_INTERACTION
152: 0x04F3 [0x66] LOAD_EXT_SCHEDULER_MAIN: Load scheduler "tlk1" with entities [Shantotto (ID: 17756186/0x010EF01A), Shantotto (ID: 17756186/0x010EF01A)], work=49*
153: 0x0502 [0x52] END_LOAD_SCHEDULER: End scheduler "s142" with entities [EventEntity, EventEntity], work=765*
154: 0x0511 [0x45] LOAD_SCHEDULED_TASK: Load scheduler "s143" with entities [EventEntity, EventEntity], work=[765*, 0*]
155: 0x0522 [0x4A] Yoran-Oran (ID: 17756188/0x010EF01C) looks at Koru-Moru (ID: 17756193/0x010EF021)
156: 0x052B [0x1C] WAIT(30* ticks)
157: 0x052E [0x4A] Koru-Moru (ID: 17756193/0x010EF021) looks at Yoran-Oran (ID: 17756188/0x010EF01C)
158: 0x0537 [0x66] LOAD_EXT_SCHEDULER_MAIN: Load scheduler "tlk0" with entities [Yoran-Oran (ID: 17756188/0x010EF01C), Yoran-Oran (ID: 17756188/0x010EF01C)], work=49*
159: 0x0546 [0x2B] Yoran-Oran (ID: 17756188/0x010EF01C) [10840*]:
    → "What did you do this time?"
160: 0x054D [0x1C] WAIT(30* ticks)
161: 0x0550 [0x23] WAIT_FOR_DIALOG_INTERACTION
162: 0x0551 [0x66] LOAD_EXT_SCHEDULER_MAIN: Load scheduler "tlk1" with entities [Yoran-Oran (ID: 17756188/0x010EF01C), Yoran-Oran (ID: 17756188/0x010EF01C)], work=49*
163: 0x0560 [0x66] LOAD_EXT_SCHEDULER_MAIN: Load scheduler "ehn0" with entities [Koru-Moru (ID: 17756193/0x010EF021), Koru-Moru (ID: 17756193/0x010EF021)], work=41*
164: 0x056F [0x2B] Koru-Moru (ID: 17756193/0x010EF021) [10841*]:
    → "I made a won-diddly-onderful contraption...or so I had thought. Turned into one of my biggest mistakes in recent memory."
165: 0x0576 [0x23] WAIT_FOR_DIALOG_INTERACTION
166: 0x0577 [0x66] LOAD_EXT_SCHEDULER_MAIN: Load scheduler "gkr0" with entities [Yoran-Oran (ID: 17756188/0x010EF01C), Yoran-Oran (ID: 17756188/0x010EF01C)], work=40*
167: 0x0586 [0x1C] WAIT(120* ticks)
168: 0x0589 [0x52] END_LOAD_SCHEDULER: End scheduler "s143" with entities [EventEntity, EventEntity], work=765*
169: 0x0598 [0x45] LOAD_SCHEDULED_TASK: Load scheduler "s144" with entities [EventEntity, EventEntity], work=[765*, 0*]
170: 0x05A9 [0x66] LOAD_EXT_SCHEDULER_MAIN: Load scheduler "ehn1" with entities [Koru-Moru (ID: 17756193/0x010EF021), Koru-Moru (ID: 17756193/0x010EF021)], work=41*
171: 0x05B8 [0x2B] Koru-Moru (ID: 17756193/0x010EF021) [10842*]:
    → "The world is full of all mannerareeno of terrible creatures, and I weep for a land that never knows peace."
172: 0x05BF [0x1C] WAIT(30* ticks)
173: 0x05C2 [0x6B] STOP_AND_IDLE: Yoran-Oran (ID: 17756188/0x010EF01C) stops current action and resets to idle (animation="idl0")
174: 0x05CB [0x79] LocalPlayer looks at Koru-Moru (ID: 17756193/0x010EF021) (Basic look)
175: 0x05D5 [0x79] Tenzen (ID: 17756496/0x010EF150) looks at Koru-Moru (ID: 17756193/0x010EF021) (Basic look)
176: 0x05DF [0x1C] WAIT(60* ticks)
177: 0x05E2 [0x23] WAIT_FOR_DIALOG_INTERACTION
178: 0x05E3 [0x52] END_LOAD_SCHEDULER: End scheduler "s144" with entities [EventEntity, EventEntity], work=765*
179: 0x05F2 [0x45] LOAD_SCHEDULED_TASK: Load scheduler "s145" with entities [EventEntity, EventEntity], work=[765*, 0*]
180: 0x0603 [0x4A] Koru-Moru (ID: 17756193/0x010EF021) looks at LocalPlayer
181: 0x060C [0x1C] WAIT(30* ticks)
182: 0x060F [0x66] LOAD_EXT_SCHEDULER_MAIN: Load scheduler "tlk0" with entities [Koru-Moru (ID: 17756193/0x010EF021), Koru-Moru (ID: 17756193/0x010EF021)], work=49*
183: 0x061E [0x2B] Koru-Moru (ID: 17756193/0x010EF021) [10843*]:
    → "You know what I mean--you're an adventureeno!"
184: 0x0625 [0x23] WAIT_FOR_DIALOG_INTERACTION
185: 0x0626 [0x2B] Koru-Moru (ID: 17756193/0x010EF021) [10844*]:
    → "But the forces of light and dark must always be in balance, and one never wins out for very long."
186: 0x062D [0x23] WAIT_FOR_DIALOG_INTERACTION
187: 0x062E [0x52] END_LOAD_SCHEDULER: End scheduler "s145" with entities [EventEntity, EventEntity], work=765*
188: 0x063D [0x45] LOAD_SCHEDULED_TASK: Load scheduler "s146" with entities [EventEntity, EventEntity], work=[765*, 0*]
189: 0x064E [0x2B] Koru-Moru (ID: 17756193/0x010EF021) [10845*]:
    → "So if some diddly-darkness appears somewhere..."
190: 0x0655 [0x23] WAIT_FOR_DIALOG_INTERACTION
191: 0x0656 [0x2B] Koru-Moru (ID: 17756193/0x010EF021) [10846*]:
    → "Then there must be some way to seekareeno it out."
192: 0x065D [0x23] WAIT_FOR_DIALOG_INTERACTION
193: 0x065E [0x66] LOAD_EXT_SCHEDULER_MAIN: Load scheduler "tlk1" with entities [Koru-Moru (ID: 17756193/0x010EF021), Koru-Moru (ID: 17756193/0x010EF021)], work=49*
194: 0x066D [0x52] END_LOAD_SCHEDULER: End scheduler "s146" with entities [EventEntity, EventEntity], work=765*
195: 0x067C [0x45] LOAD_SCHEDULED_TASK: Load scheduler "s147" with entities [EventEntity, EventEntity], work=[765*, 0*]
196: 0x068D [0x66] LOAD_EXT_SCHEDULER_MAIN: Load scheduler "thk1" with entities [Yoran-Oran (ID: 17756188/0x010EF01C), Yoran-Oran (ID: 17756188/0x010EF01C)], work=40*
197: 0x069C [0x2B] Yoran-Oran (ID: 17756188/0x010EF01C) [10847*]:
    → "And you want to use that thing-ethy of yours to find the evil they're on the lookout for?"
198: 0x06A3 [0x23] WAIT_FOR_DIALOG_INTERACTION
199: 0x06A4 [0x66] LOAD_EXT_SCHEDULER_MAIN: Load scheduler "thk2" with entities [Yoran-Oran (ID: 17756188/0x010EF01C), Yoran-Oran (ID: 17756188/0x010EF01C)], work=40*
200: 0x06B3 [0x52] END_LOAD_SCHEDULER: End scheduler "s147" with entities [EventEntity, EventEntity], work=765*
201: 0x06C2 [0x45] LOAD_SCHEDULED_TASK: Load scheduler "s148" with entities [EventEntity, EventEntity], work=[765*, 0*]
202: 0x06D3 [0x4A] Koru-Moru (ID: 17756193/0x010EF021) looks at Yoran-Oran (ID: 17756188/0x010EF01C)
203: 0x06DC [0x1C] WAIT(30* ticks)
204: 0x06DF [0x66] LOAD_EXT_SCHEDULER_MAIN: Load scheduler "ehn0" with entities [Koru-Moru (ID: 17756193/0x010EF021), Koru-Moru (ID: 17756193/0x010EF021)], work=41*
205: 0x06EE [0x2B] Koru-Moru (ID: 17756193/0x010EF021) [10848*]:
    → "Just think-diddly-ink about it! What hero wouldn't want to get their hands on something that could seek out evil before it strikes?"
206: 0x06F5 [0x23] WAIT_FOR_DIALOG_INTERACTION
207: 0x06F6 [0x6E] Yoran-Oran (ID: 17756188/0x010EF01C) uses emote 21*
208: 0x06FD [0x99] Wait for Yoran-Oran (ID: 17756188/0x010EF01C) animation to complete
209: 0x0702 [0x1C] WAIT(120* ticks)
210: 0x0705 [0x52] END_LOAD_SCHEDULER: End scheduler "s148" with entities [EventEntity, EventEntity], work=765*
211: 0x0714 [0x45] LOAD_SCHEDULED_TASK: Load scheduler "s149" with entities [EventEntity, EventEntity], work=[765*, 0*]
212: 0x0725 [0x66] LOAD_EXT_SCHEDULER_MAIN: Load scheduler "ehn1" with entities [Koru-Moru (ID: 17756193/0x010EF021), Koru-Moru (ID: 17756193/0x010EF021)], work=41*
213: 0x0734 [0x2B] Koru-Moru (ID: 17756193/0x010EF021) [10849*]:
    → "...Though I had intended to use it to root out cheating studentareenos..."
214: 0x073B [0x23] WAIT_FOR_DIALOG_INTERACTION
215: 0x073C [0x66] LOAD_EXT_SCHEDULER_MAIN: Load scheduler "gkr0" with entities [Yoran-Oran (ID: 17756188/0x010EF01C), Yoran-Oran (ID: 17756188/0x010EF01C)], work=40*
216: 0x074B [0x1C] WAIT(120* ticks)
217: 0x074E [0x52] END_LOAD_SCHEDULER: End scheduler "s149" with entities [EventEntity, EventEntity], work=765*
218: 0x075D [0x45] LOAD_SCHEDULED_TASK: Load scheduler "s150" with entities [EventEntity, EventEntity], work=[765*, 0*]
219: 0x076E [0x4A] Koru-Moru (ID: 17756193/0x010EF021) looks at LocalPlayer
220: 0x0777 [0x1C] WAIT(30* ticks)
221: 0x077A [0x4A] Shantotto (ID: 17756186/0x010EF01A) looks at LocalPlayer
222: 0x0783 [0x66] LOAD_EXT_SCHEDULER_MAIN: Load scheduler "gkr1" with entities [Yoran-Oran (ID: 17756188/0x010EF01C), Yoran-Oran (ID: 17756188/0x010EF01C)], work=40*
223: 0x0792 [0x66] LOAD_EXT_SCHEDULER_MAIN: Load scheduler "tlk0" with entities [Koru-Moru (ID: 17756193/0x010EF021), Koru-Moru (ID: 17756193/0x010EF021)], work=49*
224: 0x07A1 [0x2B] Koru-Moru (ID: 17756193/0x010EF021) [10850*]:
    → "But it did the strange-diddly-angest thing when I brought it to life. It pointed in a really weird direction."
225: 0x07A8 [0x23] WAIT_FOR_DIALOG_INTERACTION
226: 0x07A9 [0x66] LOAD_EXT_SCHEDULER_MAIN: Load scheduler "tlk1" with entities [Koru-Moru (ID: 17756193/0x010EF021), Koru-Moru (ID: 17756193/0x010EF021)], work=49*
227: 0x07B8 [0x79] LocalPlayer looks at Shantotto (ID: 17756186/0x010EF01A) (Basic look)
228: 0x07C2 [0x79] Tenzen (ID: 17756496/0x010EF150) looks at Shantotto (ID: 17756186/0x010EF01A) (Basic look)
229: 0x07CC [0x6E] Shantotto (ID: 17756186/0x010EF01A) uses emote 7*
230: 0x07D3 [0x99] Wait for Shantotto (ID: 17756186/0x010EF01A) animation to complete
231: 0x07D8 [0x2B] Shantotto (ID: 17756186/0x010EF01A) [10851*]:
    → "And so when he brought it to me with a look of concern, I found what you call Tartarus, and much did I learn."
232: 0x07DF [0x1C] WAIT(90* ticks)
233: 0x07E2 [0x23] WAIT_FOR_DIALOG_INTERACTION
234: 0x07E3 [0x52] END_LOAD_SCHEDULER: End scheduler "s150" with entities [EventEntity, EventEntity], work=765*
235: 0x07F2 [0x45] LOAD_SCHEDULED_TASK: Load scheduler "s151" with entities [EventEntity, EventEntity], work=[765*, 0*]
236: 0x0803 [0x27] REQ_SET(priority=0x05, entity_id=Unnamed NPC (ID: 17756497/0x010EF151), tag_num=0x03)
237: 0x080A [0x66] LOAD_EXT_SCHEDULER_MAIN: Load scheduler "ohh0" with entities [Shantotto (ID: 17756186/0x010EF01A), Shantotto (ID: 17756186/0x010EF01A)], work=41*
238: 0x0819 [0x2B] Shantotto (ID: 17756186/0x010EF01A) [10852*]:
    → "Thus I present to you without further ado, His deranged contraption, with purpose anew."
239: 0x0820 [0x23] WAIT_FOR_DIALOG_INTERACTION
240: 0x0821 [0x2A] GET_REQ_LEVEL(level=5, entity_id=Unnamed NPC (ID: 17756497/0x010EF151))
241: 0x0827 [0x27] REQ_SET(priority=0x05, entity_id=Koru-Moru (ID: 17756193/0x010EF021), tag_num=0x8D)
242: 0x082E [0x7B] Koru-Moru (ID: 17756193/0x010EF021) stops talking
243: 0x0833 [0x2B] Shantotto (ID: 17756186/0x010EF01A) [10853*]:
    → "The very thought of this is enough to give pause, But I think it can help you, with all of its flaws."
244: 0x083A [0x23] WAIT_FOR_DIALOG_INTERACTION
245: 0x083B [0x66] LOAD_EXT_SCHEDULER_MAIN: Load scheduler "ohh1" with entities [Shantotto (ID: 17756186/0x010EF01A), Shantotto (ID: 17756186/0x010EF01A)], work=41*
246: 0x084A [0x2A] GET_REQ_LEVEL(level=5, entity_id=Koru-Moru (ID: 17756193/0x010EF021))
247: 0x0850 [0x52] END_LOAD_SCHEDULER: End scheduler "s151" with entities [EventEntity, EventEntity], work=765*
248: 0x085F [0x45] LOAD_SCHEDULED_TASK: Load scheduler "s152" with entities [EventEntity, EventEntity], work=[765*, 0*]
249: 0x0870 [0x66] LOAD_EXT_SCHEDULER_MAIN: Load scheduler "thk1" with entities [Yoran-Oran (ID: 17756188/0x010EF01C), Yoran-Oran (ID: 17756188/0x010EF01C)], work=40*
250: 0x087F [0x2B] Yoran-Oran (ID: 17756188/0x010EF01C) [10854*]:
    → "I agree-ethy. If it points to large upswells of magic-ethy, that might help you find where the energy of the crystals is being drained to."
251: 0x0886 [0x23] WAIT_FOR_DIALOG_INTERACTION
252: 0x0887 [0x2B] Yoran-Oran (ID: 17756188/0x010EF01C) [10855*]:
    → "And if the crystals were to fade-ethy...well, I hardly need spell out what that means."
253: 0x088E [0x23] WAIT_FOR_DIALOG_INTERACTION
254: 0x088F [0x52] END_LOAD_SCHEDULER: End scheduler "s152" with entities [EventEntity, EventEntity], work=765*
255: 0x089E [0x45] LOAD_SCHEDULED_TASK: Load scheduler "s153" with entities [EventEntity, EventEntity], work=[765*, 0*]
256: 0x08AF [0x4A] Shantotto (ID: 17756186/0x010EF01A) looks at Yoran-Oran (ID: 17756188/0x010EF01C)
257: 0x08B8 [0x1C] WAIT(30* ticks)
258: 0x08BB [0x66] LOAD_EXT_SCHEDULER_MAIN: Load scheduler "dis0" with entities [Shantotto (ID: 17756186/0x010EF01A), Shantotto (ID: 17756186/0x010EF01A)], work=40*
259: 0x08CA [0x2B] Shantotto (ID: 17756186/0x010EF01A) [10856*]:
    → "Though since Koru-Moru made it, I'd be remiss to assume That it will work without failure and not spell your doom."
260: 0x08D1 [0x23] WAIT_FOR_DIALOG_INTERACTION
261: 0x08D2 [0x2B] Shantotto (ID: 17756186/0x010EF01A) [10857*]:
    → "And if such a thing happens, I shall not feign surprise, For it wouldn't be the first time he caused someone's demise."
262: 0x08D9 [0x23] WAIT_FOR_DIALOG_INTERACTION
263: 0x08DA [0x66] LOAD_EXT_SCHEDULER_MAIN: Load scheduler "thk2" with entities [Yoran-Oran (ID: 17756188/0x010EF01C), Yoran-Oran (ID: 17756188/0x010EF01C)], work=40*
264: 0x08E9 [0x52] END_LOAD_SCHEDULER: End scheduler "s153" with entities [EventEntity, EventEntity], work=765*
265: 0x08F8 [0x45] LOAD_SCHEDULED_TASK: Load scheduler "s154" with entities [EventEntity, EventEntity], work=[765*, 0*]
266: 0x0909 [0x79] LocalPlayer looks at Koru-Moru (ID: 17756193/0x010EF021) (Basic look)
267: 0x0913 [0x2B] Koru-Moru (ID: 17756193/0x010EF021) [10858*]:
    → "Doctor Shantotto, please! Wait...it's pointing-areeno toward Misareaux Coast."
268: 0x091A [0x23] WAIT_FOR_DIALOG_INTERACTION
269: 0x091B [0x52] END_LOAD_SCHEDULER: End scheduler "s154" with entities [EventEntity, EventEntity], work=765*
270: 0x092A [0x45] LOAD_SCHEDULED_TASK: Load scheduler "s155" with entities [EventEntity, EventEntity], work=[765*, 0*]
271: 0x093B [0x4A] Shantotto (ID: 17756186/0x010EF01A) looks at Koru-Moru (ID: 17756193/0x010EF021)
272: 0x0944 [0x1C] WAIT(30* ticks)
273: 0x0947 [0x6E] Shantotto (ID: 17756186/0x010EF01A) uses emote 7*
274: 0x094E [0x99] Wait for Shantotto (ID: 17756186/0x010EF01A) animation to complete
275: 0x0953 [0x2B] Shantotto (ID: 17756186/0x010EF01A) [10859*]:
    → "Ah, but of course! It only makes sense. There's a vortex over there--how could I be so dense?"
276: 0x095A [0x23] WAIT_FOR_DIALOG_INTERACTION
277: 0x095B [0x27] REQ_SET(priority=0x05, entity_id=Yoran-Oran (ID: 17756188/0x010EF01C), tag_num=0x99)
278: 0x0962 [0x66] LOAD_EXT_SCHEDULER_MAIN: Load scheduler "tlk1" with entities [Koru-Moru (ID: 17756193/0x010EF021), Koru-Moru (ID: 17756193/0x010EF021)], work=40*
279: 0x0971 [0x2B] Yoran-Oran (ID: 17756188/0x010EF01C) [10860*]:
    → "There's been warnings-ethy about Escha all through the three nations. I'd be extra careful!"
280: 0x0978 [0x23] WAIT_FOR_DIALOG_INTERACTION
281: 0x0979 [0x2A] GET_REQ_LEVEL(level=5, entity_id=Yoran-Oran (ID: 17756188/0x010EF01C))
282: 0x097F [0x52] END_LOAD_SCHEDULER: End scheduler "s155" with entities [EventEntity, EventEntity], work=765*
283: 0x098E [0x45] LOAD_SCHEDULED_TASK: Load scheduler "s156" with entities [EventEntity, EventEntity], work=[765*, 0*]
284: 0x099F [0x4A] Koru-Moru (ID: 17756193/0x010EF021) looks at LocalPlayer
285: 0x09A8 [0x1C] WAIT(30* ticks)
286: 0x09AB [0x66] LOAD_EXT_SCHEDULER_MAIN: Load scheduler "tlk0" with entities [Koru-Moru (ID: 17756193/0x010EF021), Koru-Moru (ID: 17756193/0x010EF021)], work=49*
287: 0x09BA [0x2B] Koru-Moru (ID: 17756193/0x010EF021) [10861*]:
    → "So haul-diddly-daul tail!"
288: 0x09C1 [0x23] WAIT_FOR_DIALOG_INTERACTION
289: 0x09C2 [0x66] LOAD_EXT_SCHEDULER_MAIN: Load scheduler "tlk1" with entities [Koru-Moru (ID: 17756193/0x010EF021), Koru-Moru (ID: 17756193/0x010EF021)], work=49*
290: 0x09D1 [0x45] LOAD_SCHEDULED_TASK: Load scheduler "fdo1" with entities [EventEntity, EventEntity], work=[200*, 0*]
291: 0x09E2 [0x55] WAIT_LOAD_SCHEDULER: Wait for scheduler "fdo1" with entities [EventEntity, EventEntity], work=200*
292: 0x09F1 [0x52] END_LOAD_SCHEDULER: End scheduler "s156" with entities [EventEntity, EventEntity], work=765*
293: 0x0A00 [0x29] REQ_SET_WAIT(priority=0x05, entity_id=Koru-Moru (ID: 17756193/0x010EF021), tag_num=0x8E)
294: 0x0A07 [0x46] CAMERA_CONTROL: Restore default settings
295: 0x0A09 [0x45] LOAD_SCHEDULED_TASK: Load scheduler "fdi2" with entities [EventEntity, EventEntity], work=[200*, 0*]
296: 0x0A1A [0x21] END_EVENT
297: 0x0A1B [0x00] END_REQSTACK()
```
