# 17756184 - Nanaa Mihgo

## Common Data

| Field            | Value                    |
|------------------|--------------------------|
| Zone             | Windurst Walls (ID: 239) |
| Block Size       | 1144 bytes               |
| Total Events     | 46                       |
| References Count | 57                       |

## List of Events

| Event ID                   | Entrypoint   |   Size |   Instructions |
|----------------------------|--------------|--------|----------------|
| [65535](#event-65535)      | 0x0000       |      1 |              1 |
| [65535.1](#event-655351)   | 0x0001       |     16 |              2 |
| [65535.2](#event-655352)   | 0x0011       |     22 |              4 |
| [65535.3](#event-655353)   | 0x0027       |     27 |              4 |
| [65535.4](#event-655354)   | 0x0042       |     14 |              2 |
| [65535.5](#event-655355)   | 0x0050       |     16 |              2 |
| [65535.6](#event-655356)   | 0x0060       |     20 |              3 |
| [65535.7](#event-655357)   | 0x0074       |     16 |              2 |
| [65535.8](#event-655358)   | 0x0084       |     14 |              2 |
| [65535.9](#event-655359)   | 0x0092       |     16 |              2 |
| [65535.10](#event-6553510) | 0x00A2       |     14 |              2 |
| [65535.11](#event-6553511) | 0x00B0       |     16 |              2 |
| [65535.12](#event-6553512) | 0x00C0       |     14 |              2 |
| [65535.13](#event-6553513) | 0x00CE       |     16 |              2 |
| [65535.14](#event-6553514) | 0x00DE       |     14 |              2 |
| [65535.15](#event-6553515) | 0x00EC       |     16 |              2 |
| [65535.16](#event-6553516) | 0x00FC       |     14 |              2 |
| [65535.17](#event-6553517) | 0x010A       |     16 |              2 |
| [65535.18](#event-6553518) | 0x011A       |     14 |              2 |
| [65535.19](#event-6553519) | 0x0128       |     22 |              3 |
| [65535.20](#event-6553520) | 0x013E       |     14 |              2 |
| [65535.21](#event-6553521) | 0x014C       |     16 |              2 |
| [65535.22](#event-6553522) | 0x015C       |     20 |              3 |
| [65535.23](#event-6553523) | 0x0170       |      9 |              3 |
| [289](#event-289)          | 0x0179       |      1 |              1 |
| [65535.24](#event-6553524) | 0x017A       |     10 |              2 |
| [65535.25](#event-6553525) | 0x0184       |     18 |              6 |
| [65535.26](#event-6553526) | 0x0196       |     15 |              5 |
| [65535.27](#event-6553527) | 0x01A5       |     12 |              4 |
| [65535.28](#event-6553528) | 0x01B1       |     24 |              7 |
| [65535.29](#event-6553529) | 0x01C9       |      5 |              3 |
| [65535.30](#event-6553530) | 0x01CE       |     44 |             10 |
| [65535.31](#event-6553531) | 0x01FA       |      5 |              3 |
| [65535.32](#event-6553532) | 0x01FF       |      5 |              3 |
| [65535.33](#event-6553533) | 0x0204       |     37 |              9 |
| [65535.34](#event-6553534) | 0x0229       |      5 |              3 |
| [65535.35](#event-6553535) | 0x022E       |      9 |              5 |
| [288](#event-288)          | 0x0237       |      3 |              2 |
| [65535.36](#event-6553536) | 0x023A       |     12 |              3 |
| [65535.37](#event-6553537) | 0x0246       |     12 |              4 |
| [65535.38](#event-6553538) | 0x0252       |      6 |              3 |
| [65535.39](#event-6553539) | 0x0258       |     24 |              6 |
| [65535.40](#event-6553540) | 0x0270       |     10 |              2 |
| [65535.41](#event-6553541) | 0x027A       |     37 |             10 |
| [65535.42](#event-6553542) | 0x029F       |     40 |             11 |
| [65535.43](#event-6553543) | 0x02C7       |      5 |              3 |

## DAT References (imed_data)

|   Index | Hex Value   |   Dec Value |
|---------|-------------|-------------|
|       0 | 0x0172      |         370 |
|       1 | 0x001E      |          30 |
|       2 | 0x0166      |         358 |
|       3 | 0x0168      |         360 |
|       4 | 0xFFFFB0F7  |  4294947063 |
|       5 | 0x42BFA     |      273402 |
|       6 | 0xFFFFD120  |  4294955296 |
|       7 | 0x05D6      |        1494 |
|       8 | 0x000D      |          13 |
|       9 | 0xFFFFA763  |  4294944611 |
|      10 | 0x427E8     |      272360 |
|      11 | 0x0638      |        1592 |
|      12 | 0xFFFFA786  |  4294944646 |
|      13 | 0x41F75     |      270197 |
|      14 | 0xFFFFA23A  |  4294943290 |
|      15 | 0x41B14     |      269076 |
|      16 | 0xFFFF9DB4  |  4294942132 |
|      17 | 0x416AB     |      267947 |
|      18 | 0xFFFF9CB0  |  4294941872 |
|      19 | 0x40631     |      263729 |
|      20 | 0xFFFFCD38  |  4294954296 |
|      21 | 0x1E80      |        7808 |
|      22 | 0x1E83      |        7811 |
|      23 | 0x1E84      |        7812 |
|      24 | 0x1E88      |        7816 |
|      25 | 0x1E89      |        7817 |
|      26 | 0x1E8B      |        7819 |
|      27 | 0x1E8C      |        7820 |
|      28 | 0x1E90      |        7824 |
|      29 | 0x1E91      |        7825 |
|      30 | 0x1E92      |        7826 |
|      31 | 0xFFFF7651  |  4294932049 |
|      32 | 0x3C18D     |      246157 |
|      33 | 0xFFFFCF6A  |  4294954858 |
|      34 | 0x0E71      |        3697 |
|      35 | 0xFFFF98BE  |  4294940862 |
|      36 | 0x3F557     |      259415 |
|      37 | 0xFFFFC175  |  4294951285 |
|      38 | 0x000A      |          10 |
|      39 | 0xFFFF9472  |  4294939762 |
|      40 | 0x3E1D3     |      254419 |
|      41 | 0xFFFFCF8E  |  4294954894 |
|      42 | 0xFFFFCD2D  |  4294954285 |
|      43 | 0xFFFF9ACD  |  4294941389 |
|      44 | 0x3FAC5     |      260805 |
|      45 | 0xFFFFCD39  |  4294954297 |
|      46 | 0x0400      |        1024 |
|      47 | 0xFFFF998E  |  4294941070 |
|      48 | 0x3F4FC     |      259324 |
|      49 | 0xFFFF94F7  |  4294939895 |
|      50 | 0x3E787     |      255879 |
|      51 | 0xFFFFCF46  |  4294954822 |
|      52 | 0xFFFF6809  |  4294928393 |
|      53 | 0x3B94B     |      244043 |
|      54 | 0xFFFFCF2D  |  4294954797 |
|      55 | 0x0050      |          80 |
|      56 | 0x1E72      |        7794 |

## String References

- **7794**: Not you S.O.B.'s again! What in blazes did you do that for?
- **7808**: Not you brrrats again! Don't you have betterrr things to do all day than to rrrub my furrr the wrrrong way?
- **7811**: Oh, you'd betterrr be carrreful then. Sounds like you'rrre making me out to be some kind of baddy, or something?
- **7812**: If you're out to stop baddies, then you should be chasing after the Minister of the Orastery, Ajido-Marujido, not me! He's the one to watch, you know?
- **7816**: That evil little magician is abusing his authorrrity as ministerrr and acting out of line. But because he's a ministerrr, the Tarutaru grrrown-ups let him do as he pleases.
- **7817**: Is this the kind of thing the Starrr Onion Brrrigade can allow to happen?
- **7819**: Perrrhaps you had betterrr learn morrre about the ways of grrrown-ups beforrre you go too farrr. The adult worrrld isn't as simple as your children's worrrld is...
- **7820**: See you arrround, I suppose!
- **7824**: A-ha-ha! If you don't hurrrry up and learn the ways of grrrown-ups, you'll meet worrrse fates than this! I hope this has prrroven to be a valuable lesson!
- **7825**: Goodbye, my little kittens! This house is enchanted, so no matterrr how much noise you make, no one will everrr hearrr you!
- **7826**: I hope the ghost of the summonerrr doesn't eat you! Farrrewell!

## Events

### Event 65535

#### Metadata

| Field        | Value   |
|--------------|---------|
| Entrypoint   | 0x0000  |
| Data Size    | 1 bytes |
| Instructions | 1       |

```
      00 01 02 03 04 05 06 07  08 09 0A 0B 0C 0D 0E 0F
      -- -- -- -- -- -- -- --  -- -- -- -- -- -- -- --
0000: 00                                                .               
```

#### Opcodes

```
  0: 0x0000 [0x00] END_REQSTACK()
```

### Event 65535.1

#### Metadata

| Field        | Value    |
|--------------|----------|
| Entrypoint   | 0x0001   |
| Data Size    | 16 bytes |
| Instructions | 2        |

```
      00 01 02 03 04 05 06 07  08 09 0A 0B 0C 0D 0E 0F
      -- -- -- -- -- -- -- --  -- -- -- -- -- -- -- --
0000:    5B 00 80 F8 FF FF 7F  F8 FF FF 7F 74 6C 6B 30   [..........tlk0
0010: 00                                                .               
```

#### Opcodes

```
  0: 0x0001 [0x5B] LOAD_EXT_SCHEDULER: Load scheduler "tlk0" with entities [EventEntity, EventEntity], work=370*
  1: 0x0010 [0x00] END_REQSTACK()
```

### Event 65535.2

#### Metadata

| Field        | Value    |
|--------------|----------|
| Entrypoint   | 0x0011   |
| Data Size    | 22 bytes |
| Instructions | 4        |

```
      00 01 02 03 04 05 06 07  08 09 0A 0B 0C 0D 0E 0F
      -- -- -- -- -- -- -- --  -- -- -- -- -- -- -- --
0010:    53 F8 FF FF 7F F8 FF  FF 7F 74 6C 6B 30 5E 69   S........tlk0^i
0020: 64 6C 30 1C 01 80 00                              dl0....         
```

#### Opcodes

```
  0: 0x0011 [0x53] WAIT_SCHEDULER_TASK: Wait for scheduler "tlk0" with entities [EventEntity, EventEntity]
  1: 0x001E [0x5E] EventEntity goes idle (kills current action) (animation: "idl0")
  2: 0x0023 [0x1C] WAIT(30* ticks)
  3: 0x0026 [0x00] END_REQSTACK()
```

### Event 65535.3

#### Metadata

| Field        | Value    |
|--------------|----------|
| Entrypoint   | 0x0027   |
| Data Size    | 27 bytes |
| Instructions | 4        |

```
      00 01 02 03 04 05 06 07  08 09 0A 0B 0C 0D 0E 0F
      -- -- -- -- -- -- -- --  -- -- -- -- -- -- -- --
0020:                      7B  F8 FF FF 7F 81 00 F8 FF         {........
0030: FF 7F 5B 00 80 F8 FF FF  7F F8 FF FF 7F 6E 74 6F  ..[..........nto
0040: 30 00                                             0.              
```

#### Opcodes

```
  0: 0x0027 [0x7B] EventEntity stops talking
  1: 0x002C [0x81] SET_ENTITY_BLINKING(blink_flag=0x00, entity=EventEntity)
  2: 0x0032 [0x5B] LOAD_EXT_SCHEDULER: Load scheduler "nto0" with entities [EventEntity, EventEntity], work=370*
  3: 0x0041 [0x00] END_REQSTACK()
```

### Event 65535.4

#### Metadata

| Field        | Value    |
|--------------|----------|
| Entrypoint   | 0x0042   |
| Data Size    | 14 bytes |
| Instructions | 2        |

```
      00 01 02 03 04 05 06 07  08 09 0A 0B 0C 0D 0E 0F
      -- -- -- -- -- -- -- --  -- -- -- -- -- -- -- --
0040:       53 F8 FF FF 7F F8  FF FF 7F 6E 74 6F 30 00    S........nto0.
```

#### Opcodes

```
  0: 0x0042 [0x53] WAIT_SCHEDULER_TASK: Wait for scheduler "nto0" with entities [EventEntity, EventEntity]
  1: 0x004F [0x00] END_REQSTACK()
```

### Event 65535.5

#### Metadata

| Field        | Value    |
|--------------|----------|
| Entrypoint   | 0x0050   |
| Data Size    | 16 bytes |
| Instructions | 2        |

```
      00 01 02 03 04 05 06 07  08 09 0A 0B 0C 0D 0E 0F
      -- -- -- -- -- -- -- --  -- -- -- -- -- -- -- --
0050: 5B 00 80 F8 FF FF 7F F8  FF FF 7F 6E 74 6F 31 00  [..........nto1.
```

#### Opcodes

```
  0: 0x0050 [0x5B] LOAD_EXT_SCHEDULER: Load scheduler "nto1" with entities [EventEntity, EventEntity], work=370*
  1: 0x005F [0x00] END_REQSTACK()
```

### Event 65535.6

#### Metadata

| Field        | Value    |
|--------------|----------|
| Entrypoint   | 0x0060   |
| Data Size    | 20 bytes |
| Instructions | 3        |

```
      00 01 02 03 04 05 06 07  08 09 0A 0B 0C 0D 0E 0F
      -- -- -- -- -- -- -- --  -- -- -- -- -- -- -- --
0060: 53 F8 FF FF 7F F8 FF FF  7F 6E 74 6F 31 81 01 F8  S........nto1...
0070: FF FF 7F 00                                       ....            
```

#### Opcodes

```
  0: 0x0060 [0x53] WAIT_SCHEDULER_TASK: Wait for scheduler "nto1" with entities [EventEntity, EventEntity]
  1: 0x006D [0x81] SET_ENTITY_BLINKING(blink_flag=0x01, entity=EventEntity)
  2: 0x0073 [0x00] END_REQSTACK()
```

### Event 65535.7

#### Metadata

| Field        | Value    |
|--------------|----------|
| Entrypoint   | 0x0074   |
| Data Size    | 16 bytes |
| Instructions | 2        |

```
      00 01 02 03 04 05 06 07  08 09 0A 0B 0C 0D 0E 0F
      -- -- -- -- -- -- -- --  -- -- -- -- -- -- -- --
0070:             5B 02 80 F8  FF FF 7F F8 FF FF 7F 74      [..........t
0080: 68 6B 31 00                                       hk1.            
```

#### Opcodes

```
  0: 0x0074 [0x5B] LOAD_EXT_SCHEDULER: Load scheduler "thk1" with entities [EventEntity, EventEntity], work=358*
  1: 0x0083 [0x00] END_REQSTACK()
```

### Event 65535.8

#### Metadata

| Field        | Value    |
|--------------|----------|
| Entrypoint   | 0x0084   |
| Data Size    | 14 bytes |
| Instructions | 2        |

```
      00 01 02 03 04 05 06 07  08 09 0A 0B 0C 0D 0E 0F
      -- -- -- -- -- -- -- --  -- -- -- -- -- -- -- --
0080:             53 F8 FF FF  7F F8 FF FF 7F 74 68 6B      S........thk
0090: 31 00                                             1.              
```

#### Opcodes

```
  0: 0x0084 [0x53] WAIT_SCHEDULER_TASK: Wait for scheduler "thk1" with entities [EventEntity, EventEntity]
  1: 0x0091 [0x00] END_REQSTACK()
```

### Event 65535.9

#### Metadata

| Field        | Value    |
|--------------|----------|
| Entrypoint   | 0x0092   |
| Data Size    | 16 bytes |
| Instructions | 2        |

```
      00 01 02 03 04 05 06 07  08 09 0A 0B 0C 0D 0E 0F
      -- -- -- -- -- -- -- --  -- -- -- -- -- -- -- --
0090:       5B 02 80 F8 FF FF  7F F8 FF FF 7F 74 68 6B    [..........thk
00A0: 32 00                                             2.              
```

#### Opcodes

```
  0: 0x0092 [0x5B] LOAD_EXT_SCHEDULER: Load scheduler "thk2" with entities [EventEntity, EventEntity], work=358*
  1: 0x00A1 [0x00] END_REQSTACK()
```

### Event 65535.10

#### Metadata

| Field        | Value    |
|--------------|----------|
| Entrypoint   | 0x00A2   |
| Data Size    | 14 bytes |
| Instructions | 2        |

```
      00 01 02 03 04 05 06 07  08 09 0A 0B 0C 0D 0E 0F
      -- -- -- -- -- -- -- --  -- -- -- -- -- -- -- --
00A0:       53 F8 FF FF 7F F8  FF FF 7F 74 68 6B 32 00    S........thk2.
```

#### Opcodes

```
  0: 0x00A2 [0x53] WAIT_SCHEDULER_TASK: Wait for scheduler "thk2" with entities [EventEntity, EventEntity]
  1: 0x00AF [0x00] END_REQSTACK()
```

### Event 65535.11

#### Metadata

| Field        | Value    |
|--------------|----------|
| Entrypoint   | 0x00B0   |
| Data Size    | 16 bytes |
| Instructions | 2        |

```
      00 01 02 03 04 05 06 07  08 09 0A 0B 0C 0D 0E 0F
      -- -- -- -- -- -- -- --  -- -- -- -- -- -- -- --
00B0: 5B 02 80 F8 FF FF 7F F8  FF FF 7F 70 6F 69 30 00  [..........poi0.
```

#### Opcodes

```
  0: 0x00B0 [0x5B] LOAD_EXT_SCHEDULER: Load scheduler "poi0" with entities [EventEntity, EventEntity], work=358*
  1: 0x00BF [0x00] END_REQSTACK()
```

### Event 65535.12

#### Metadata

| Field        | Value    |
|--------------|----------|
| Entrypoint   | 0x00C0   |
| Data Size    | 14 bytes |
| Instructions | 2        |

```
      00 01 02 03 04 05 06 07  08 09 0A 0B 0C 0D 0E 0F
      -- -- -- -- -- -- -- --  -- -- -- -- -- -- -- --
00C0: 53 F8 FF FF 7F F8 FF FF  7F 70 6F 69 30 00        S........poi0.  
```

#### Opcodes

```
  0: 0x00C0 [0x53] WAIT_SCHEDULER_TASK: Wait for scheduler "poi0" with entities [EventEntity, EventEntity]
  1: 0x00CD [0x00] END_REQSTACK()
```

### Event 65535.13

#### Metadata

| Field        | Value    |
|--------------|----------|
| Entrypoint   | 0x00CE   |
| Data Size    | 16 bytes |
| Instructions | 2        |

```
      00 01 02 03 04 05 06 07  08 09 0A 0B 0C 0D 0E 0F
      -- -- -- -- -- -- -- --  -- -- -- -- -- -- -- --
00C0:                                            5B 03                [.
00D0: 80 F8 FF FF 7F F8 FF FF  7F 70 6F 69 31 00        .........poi1.  
```

#### Opcodes

```
  0: 0x00CE [0x5B] LOAD_EXT_SCHEDULER: Load scheduler "poi1" with entities [EventEntity, EventEntity], work=360*
  1: 0x00DD [0x00] END_REQSTACK()
```

### Event 65535.14

#### Metadata

| Field        | Value    |
|--------------|----------|
| Entrypoint   | 0x00DE   |
| Data Size    | 14 bytes |
| Instructions | 2        |

```
      00 01 02 03 04 05 06 07  08 09 0A 0B 0C 0D 0E 0F
      -- -- -- -- -- -- -- --  -- -- -- -- -- -- -- --
00D0:                                            53 F8                S.
00E0: FF FF 7F F8 FF FF 7F 70  6F 69 31 00              .......poi1.    
```

#### Opcodes

```
  0: 0x00DE [0x53] WAIT_SCHEDULER_TASK: Wait for scheduler "poi1" with entities [EventEntity, EventEntity]
  1: 0x00EB [0x00] END_REQSTACK()
```

### Event 65535.15

#### Metadata

| Field        | Value    |
|--------------|----------|
| Entrypoint   | 0x00EC   |
| Data Size    | 16 bytes |
| Instructions | 2        |

```
      00 01 02 03 04 05 06 07  08 09 0A 0B 0C 0D 0E 0F
      -- -- -- -- -- -- -- --  -- -- -- -- -- -- -- --
00E0:                                      5B 03 80 F8              [...
00F0: FF FF 7F F8 FF FF 7F 70  6F 69 33 00              .......poi3.    
```

#### Opcodes

```
  0: 0x00EC [0x5B] LOAD_EXT_SCHEDULER: Load scheduler "poi3" with entities [EventEntity, EventEntity], work=360*
  1: 0x00FB [0x00] END_REQSTACK()
```

### Event 65535.16

#### Metadata

| Field        | Value    |
|--------------|----------|
| Entrypoint   | 0x00FC   |
| Data Size    | 14 bytes |
| Instructions | 2        |

```
      00 01 02 03 04 05 06 07  08 09 0A 0B 0C 0D 0E 0F
      -- -- -- -- -- -- -- --  -- -- -- -- -- -- -- --
00F0:                                      53 F8 FF FF              S...
0100: 7F F8 FF FF 7F 70 6F 69  33 00                    .....poi3.      
```

#### Opcodes

```
  0: 0x00FC [0x53] WAIT_SCHEDULER_TASK: Wait for scheduler "poi3" with entities [EventEntity, EventEntity]
  1: 0x0109 [0x00] END_REQSTACK()
```

### Event 65535.17

#### Metadata

| Field        | Value    |
|--------------|----------|
| Entrypoint   | 0x010A   |
| Data Size    | 16 bytes |
| Instructions | 2        |

```
      00 01 02 03 04 05 06 07  08 09 0A 0B 0C 0D 0E 0F
      -- -- -- -- -- -- -- --  -- -- -- -- -- -- -- --
0100:                                5B 03 80 F8 FF FF            [.....
0110: 7F F8 FF FF 7F 64 69 73  30 00                    .....dis0.      
```

#### Opcodes

```
  0: 0x010A [0x5B] LOAD_EXT_SCHEDULER: Load scheduler "dis0" with entities [EventEntity, EventEntity], work=360*
  1: 0x0119 [0x00] END_REQSTACK()
```

### Event 65535.18

#### Metadata

| Field        | Value    |
|--------------|----------|
| Entrypoint   | 0x011A   |
| Data Size    | 14 bytes |
| Instructions | 2        |

```
      00 01 02 03 04 05 06 07  08 09 0A 0B 0C 0D 0E 0F
      -- -- -- -- -- -- -- --  -- -- -- -- -- -- -- --
0110:                                53 F8 FF FF 7F F8            S.....
0120: FF FF 7F 64 69 73 30 00                           ...dis0.        
```

#### Opcodes

```
  0: 0x011A [0x53] WAIT_SCHEDULER_TASK: Wait for scheduler "dis0" with entities [EventEntity, EventEntity]
  1: 0x0127 [0x00] END_REQSTACK()
```

### Event 65535.19

#### Metadata

| Field        | Value    |
|--------------|----------|
| Entrypoint   | 0x0128   |
| Data Size    | 22 bytes |
| Instructions | 3        |

```
      00 01 02 03 04 05 06 07  08 09 0A 0B 0C 0D 0E 0F
      -- -- -- -- -- -- -- --  -- -- -- -- -- -- -- --
0120:                          81 00 F8 FF FF 7F 5B 00          ......[.
0130: 80 F8 FF FF 7F F8 FF FF  7F 68 6E 61 30 00        .........hna0.  
```

#### Opcodes

```
  0: 0x0128 [0x81] SET_ENTITY_BLINKING(blink_flag=0x00, entity=EventEntity)
  1: 0x012E [0x5B] LOAD_EXT_SCHEDULER: Load scheduler "hna0" with entities [EventEntity, EventEntity], work=370*
  2: 0x013D [0x00] END_REQSTACK()
```

### Event 65535.20

#### Metadata

| Field        | Value    |
|--------------|----------|
| Entrypoint   | 0x013E   |
| Data Size    | 14 bytes |
| Instructions | 2        |

```
      00 01 02 03 04 05 06 07  08 09 0A 0B 0C 0D 0E 0F
      -- -- -- -- -- -- -- --  -- -- -- -- -- -- -- --
0130:                                            53 F8                S.
0140: FF FF 7F F8 FF FF 7F 68  6E 61 30 00              .......hna0.    
```

#### Opcodes

```
  0: 0x013E [0x53] WAIT_SCHEDULER_TASK: Wait for scheduler "hna0" with entities [EventEntity, EventEntity]
  1: 0x014B [0x00] END_REQSTACK()
```

### Event 65535.21

#### Metadata

| Field        | Value    |
|--------------|----------|
| Entrypoint   | 0x014C   |
| Data Size    | 16 bytes |
| Instructions | 2        |

```
      00 01 02 03 04 05 06 07  08 09 0A 0B 0C 0D 0E 0F
      -- -- -- -- -- -- -- --  -- -- -- -- -- -- -- --
0140:                                      5B 00 80 F8              [...
0150: FF FF 7F F8 FF FF 7F 68  6E 61 31 00              .......hna1.    
```

#### Opcodes

```
  0: 0x014C [0x5B] LOAD_EXT_SCHEDULER: Load scheduler "hna1" with entities [EventEntity, EventEntity], work=370*
  1: 0x015B [0x00] END_REQSTACK()
```

### Event 65535.22

#### Metadata

| Field        | Value    |
|--------------|----------|
| Entrypoint   | 0x015C   |
| Data Size    | 20 bytes |
| Instructions | 3        |

```
      00 01 02 03 04 05 06 07  08 09 0A 0B 0C 0D 0E 0F
      -- -- -- -- -- -- -- --  -- -- -- -- -- -- -- --
0150:                                      53 F8 FF FF              S...
0160: 7F F8 FF FF 7F 68 6E 61  30 81 01 F8 FF FF 7F 00  .....hna0.......
```

#### Opcodes

```
  0: 0x015C [0x53] WAIT_SCHEDULER_TASK: Wait for scheduler "hna0" with entities [EventEntity, EventEntity]
  1: 0x0169 [0x81] SET_ENTITY_BLINKING(blink_flag=0x01, entity=EventEntity)
  2: 0x016F [0x00] END_REQSTACK()
```

### Event 65535.23

#### Metadata

| Field        | Value   |
|--------------|---------|
| Entrypoint   | 0x0170  |
| Data Size    | 9 bytes |
| Instructions | 3       |

```
      00 01 02 03 04 05 06 07  08 09 0A 0B 0C 0D 0E 0F
      -- -- -- -- -- -- -- --  -- -- -- -- -- -- -- --
0170: 5E 69 64 6C 30 1C 01 80  00                       ^idl0....       
```

#### Opcodes

```
  0: 0x0170 [0x5E] EventEntity goes idle (kills current action) (animation: "idl0")
  1: 0x0175 [0x1C] WAIT(30* ticks)
  2: 0x0178 [0x00] END_REQSTACK()
```

### Event 289

#### Metadata

| Field        | Value   |
|--------------|---------|
| Entrypoint   | 0x0179  |
| Data Size    | 1 bytes |
| Instructions | 1       |

```
      00 01 02 03 04 05 06 07  08 09 0A 0B 0C 0D 0E 0F
      -- -- -- -- -- -- -- --  -- -- -- -- -- -- -- --
0170:                             00                             .      
```

#### Opcodes

```
  0: 0x0179 [0x00] END_REQSTACK()
```

### Event 65535.24

#### Metadata

| Field        | Value    |
|--------------|----------|
| Entrypoint   | 0x017A   |
| Data Size    | 10 bytes |
| Instructions | 2        |

```
      00 01 02 03 04 05 06 07  08 09 0A 0B 0C 0D 0E 0F
      -- -- -- -- -- -- -- --  -- -- -- -- -- -- -- --
0170:                                37 04 80 05 80 06            7.....
0180: 80 07 80 00                                       ....            
```

#### Opcodes

```
  0: 0x017A [0x37] UPDATE_EVENT_POSITION_AND_DIR: x=-20.233*, z=273.402*, y=-12.000*, direction=131.3°*
  1: 0x0183 [0x00] END_REQSTACK()
```

### Event 65535.25

#### Metadata

| Field        | Value    |
|--------------|----------|
| Entrypoint   | 0x0184   |
| Data Size    | 18 bytes |
| Instructions | 6        |

```
      00 01 02 03 04 05 06 07  08 09 0A 0B 0C 0D 0E 0F
      -- -- -- -- -- -- -- --  -- -- -- -- -- -- -- --
0180:             32 08 80 1F  00 09 80 0A 80 06 80 1F      2...........
0190: 01 6F 39 0B 80 00                                 .o9...          
```

#### Opcodes

```
  0: 0x0184 [0x32] ExtData[1]->MainSpeed = 13* * 0.1
  1: 0x0187 [0x1F] MOVE_ENTITY: EventEntity moves to X=-22.685*, Z=272.360*, Y=-12.000*
  2: 0x018F [0x1F] MOVE_ENTITY: Update entity position (mode=1)
  3: 0x0191 [0x6F] WAIT_FRAME_DELAY: Yield until WaitTime reaches zero
  4: 0x0192 [0x39] SET_ENTITY_DIRECTION(direction=8.7°*)
  5: 0x0195 [0x00] END_REQSTACK()
```

### Event 65535.26

#### Metadata

| Field        | Value    |
|--------------|----------|
| Entrypoint   | 0x0196   |
| Data Size    | 15 bytes |
| Instructions | 5        |

```
      00 01 02 03 04 05 06 07  08 09 0A 0B 0C 0D 0E 0F
      -- -- -- -- -- -- -- --  -- -- -- -- -- -- -- --
0190:                   32 08  80 1F 00 0C 80 0D 80 06        2.........
01A0: 80 1F 01 6F 00                                    ...o.           
```

#### Opcodes

```
  0: 0x0196 [0x32] ExtData[1]->MainSpeed = 13* * 0.1
  1: 0x0199 [0x1F] MOVE_ENTITY: EventEntity moves to X=-22.650*, Z=270.197*, Y=-12.000*
  2: 0x01A1 [0x1F] MOVE_ENTITY: Update entity position (mode=1)
  3: 0x01A3 [0x6F] WAIT_FRAME_DELAY: Yield until WaitTime reaches zero
  4: 0x01A4 [0x00] END_REQSTACK()
```

### Event 65535.27

#### Metadata

| Field        | Value    |
|--------------|----------|
| Entrypoint   | 0x01A5   |
| Data Size    | 12 bytes |
| Instructions | 4        |

```
      00 01 02 03 04 05 06 07  08 09 0A 0B 0C 0D 0E 0F
      -- -- -- -- -- -- -- --  -- -- -- -- -- -- -- --
01A0:                1F 00 0E  80 0F 80 06 80 1F 01 6F       ..........o
01B0: 00                                                .               
```

#### Opcodes

```
  0: 0x01A5 [0x1F] MOVE_ENTITY: EventEntity moves to X=-24.006*, Z=269.076*, Y=-12.000*
  1: 0x01AD [0x1F] MOVE_ENTITY: Update entity position (mode=1)
  2: 0x01AF [0x6F] WAIT_FRAME_DELAY: Yield until WaitTime reaches zero
  3: 0x01B0 [0x00] END_REQSTACK()
```

### Event 65535.28

#### Metadata

| Field        | Value    |
|--------------|----------|
| Entrypoint   | 0x01B1   |
| Data Size    | 24 bytes |
| Instructions | 7        |

```
      00 01 02 03 04 05 06 07  08 09 0A 0B 0C 0D 0E 0F
      -- -- -- -- -- -- -- --  -- -- -- -- -- -- -- --
01B0:    1F 00 10 80 11 80 06  80 1F 01 1F 00 12 80 13   ...............
01C0: 80 14 80 1F 01 6F 22 01  00                       .....o"..       
```

#### Opcodes

```
  0: 0x01B1 [0x1F] MOVE_ENTITY: EventEntity moves to X=-25.164*, Z=267.947*, Y=-12.000*
  1: 0x01B9 [0x1F] MOVE_ENTITY: Update entity position (mode=1)
  2: 0x01BB [0x1F] MOVE_ENTITY: EventEntity moves to X=-25.424*, Z=263.729*, Y=-13.000*
  3: 0x01C3 [0x1F] MOVE_ENTITY: Update entity position (mode=1)
  4: 0x01C5 [0x6F] WAIT_FRAME_DELAY: Yield until WaitTime reaches zero
  5: 0x01C6 [0x22] ENTITY_HIDE_FLAG(enabled=0x01)
  6: 0x01C8 [0x00] END_REQSTACK()
```

### Event 65535.29

#### Metadata

| Field        | Value   |
|--------------|---------|
| Entrypoint   | 0x01C9  |
| Data Size    | 5 bytes |
| Instructions | 3       |

```
      00 01 02 03 04 05 06 07  08 09 0A 0B 0C 0D 0E 0F
      -- -- -- -- -- -- -- --  -- -- -- -- -- -- -- --
01C0:                             1D 15 80 23 00                 ...#.  
```

#### Opcodes

```
  0: 0x01C9 [0x1D] PRINT_EVENT_MESSAGE(message_id=7808*)
    → "Not you brrrats again! Don't you have betterrr things to do all day than to rrrub my furrr the wrrrong way?"
  1: 0x01CC [0x23] WAIT_FOR_DIALOG_INTERACTION
  2: 0x01CD [0x00] END_REQSTACK()
```

### Event 65535.30

#### Metadata

| Field        | Value    |
|--------------|----------|
| Entrypoint   | 0x01CE   |
| Data Size    | 44 bytes |
| Instructions | 10       |

```
      00 01 02 03 04 05 06 07  08 09 0A 0B 0C 0D 0E 0F
      -- -- -- -- -- -- -- --  -- -- -- -- -- -- -- --
01C0:                                            29 08                ).
01D0: 18 F0 0E 01 03 1D 16 80  23 29 08 18 F0 0E 01 05  ........#)......
01E0: 29 08 18 F0 0E 01 06 29  08 18 F0 0E 01 01 1D 17  )......)........
01F0: 80 23 29 08 18 F0 0E 01  02 00                    .#).......      
```

#### Opcodes

```
  0: 0x01CE [0x29] REQ_SET_WAIT(priority=0x08, entity_id=Nanaa Mihgo (ID: 17756184/0x010EF018), tag_num=0x03)
  1: 0x01D5 [0x1D] PRINT_EVENT_MESSAGE(message_id=7811*)
    → "Oh, you'd betterrr be carrreful then. Sounds like you'rrre making me out to be some kind of baddy, or something?"
  2: 0x01D8 [0x23] WAIT_FOR_DIALOG_INTERACTION
  3: 0x01D9 [0x29] REQ_SET_WAIT(priority=0x08, entity_id=Nanaa Mihgo (ID: 17756184/0x010EF018), tag_num=0x05)
  4: 0x01E0 [0x29] REQ_SET_WAIT(priority=0x08, entity_id=Nanaa Mihgo (ID: 17756184/0x010EF018), tag_num=0x06)
  5: 0x01E7 [0x29] REQ_SET_WAIT(priority=0x08, entity_id=Nanaa Mihgo (ID: 17756184/0x010EF018), tag_num=0x01)
  6: 0x01EE [0x1D] PRINT_EVENT_MESSAGE(message_id=7812*)
    → "If you're out to stop baddies, then you should be chasing after the Minister of the Orastery, Ajido-Marujido, not me! He's the one to watch, you know?"
  7: 0x01F1 [0x23] WAIT_FOR_DIALOG_INTERACTION
  8: 0x01F2 [0x29] REQ_SET_WAIT(priority=0x08, entity_id=Nanaa Mihgo (ID: 17756184/0x010EF018), tag_num=0x02)
  9: 0x01F9 [0x00] END_REQSTACK()
```

### Event 65535.31

#### Metadata

| Field        | Value   |
|--------------|---------|
| Entrypoint   | 0x01FA  |
| Data Size    | 5 bytes |
| Instructions | 3       |

```
      00 01 02 03 04 05 06 07  08 09 0A 0B 0C 0D 0E 0F
      -- -- -- -- -- -- -- --  -- -- -- -- -- -- -- --
01F0:                                1D 18 80 23 00               ...#. 
```

#### Opcodes

```
  0: 0x01FA [0x1D] PRINT_EVENT_MESSAGE(message_id=7816*)
    → "That evil little magician is abusing his authorrrity as ministerrr and acting out of line. But because he's a ministerrr, the Tarutaru grrrown-ups let him do as he pleases."
  1: 0x01FD [0x23] WAIT_FOR_DIALOG_INTERACTION
  2: 0x01FE [0x00] END_REQSTACK()
```

### Event 65535.32

#### Metadata

| Field        | Value   |
|--------------|---------|
| Entrypoint   | 0x01FF  |
| Data Size    | 5 bytes |
| Instructions | 3       |

```
      00 01 02 03 04 05 06 07  08 09 0A 0B 0C 0D 0E 0F
      -- -- -- -- -- -- -- --  -- -- -- -- -- -- -- --
01F0:                                               1D                 .
0200: 19 80 23 00                                       ..#.            
```

#### Opcodes

```
  0: 0x01FF [0x1D] PRINT_EVENT_MESSAGE(message_id=7817*)
    → "Is this the kind of thing the Starrr Onion Brrrigade can allow to happen?"
  1: 0x0202 [0x23] WAIT_FOR_DIALOG_INTERACTION
  2: 0x0203 [0x00] END_REQSTACK()
```

### Event 65535.33

#### Metadata

| Field        | Value    |
|--------------|----------|
| Entrypoint   | 0x0204   |
| Data Size    | 37 bytes |
| Instructions | 9        |

```
      00 01 02 03 04 05 06 07  08 09 0A 0B 0C 0D 0E 0F
      -- -- -- -- -- -- -- --  -- -- -- -- -- -- -- --
0200:             29 08 18 F0  0E 01 03 1D 1A 80 23 29      ).........#)
0210: 08 18 F0 0E 01 04 29 08  18 F0 0E 01 05 1D 1B 80  ......).........
0220: 23 29 08 18 F0 0E 01 06  00                       #).......       
```

#### Opcodes

```
  0: 0x0204 [0x29] REQ_SET_WAIT(priority=0x08, entity_id=Nanaa Mihgo (ID: 17756184/0x010EF018), tag_num=0x03)
  1: 0x020B [0x1D] PRINT_EVENT_MESSAGE(message_id=7819*)
    → "Perrrhaps you had betterrr learn morrre about the ways of grrrown-ups beforrre you go too farrr. The adult worrrld isn't as simple as your children's worrrld is..."
  2: 0x020E [0x23] WAIT_FOR_DIALOG_INTERACTION
  3: 0x020F [0x29] REQ_SET_WAIT(priority=0x08, entity_id=Nanaa Mihgo (ID: 17756184/0x010EF018), tag_num=0x04)
  4: 0x0216 [0x29] REQ_SET_WAIT(priority=0x08, entity_id=Nanaa Mihgo (ID: 17756184/0x010EF018), tag_num=0x05)
  5: 0x021D [0x1D] PRINT_EVENT_MESSAGE(message_id=7820*)
    → "See you arrround, I suppose!"
  6: 0x0220 [0x23] WAIT_FOR_DIALOG_INTERACTION
  7: 0x0221 [0x29] REQ_SET_WAIT(priority=0x08, entity_id=Nanaa Mihgo (ID: 17756184/0x010EF018), tag_num=0x06)
  8: 0x0228 [0x00] END_REQSTACK()
```

### Event 65535.34

#### Metadata

| Field        | Value   |
|--------------|---------|
| Entrypoint   | 0x0229  |
| Data Size    | 5 bytes |
| Instructions | 3       |

```
      00 01 02 03 04 05 06 07  08 09 0A 0B 0C 0D 0E 0F
      -- -- -- -- -- -- -- --  -- -- -- -- -- -- -- --
0220:                             1D 1C 80 23 00                 ...#.  
```

#### Opcodes

```
  0: 0x0229 [0x1D] PRINT_EVENT_MESSAGE(message_id=7824*)
    → "A-ha-ha! If you don't hurrrry up and learn the ways of grrrown-ups, you'll meet worrrse fates than this! I hope this has prrroven to be a valuable lesson!"
  1: 0x022C [0x23] WAIT_FOR_DIALOG_INTERACTION
  2: 0x022D [0x00] END_REQSTACK()
```

### Event 65535.35

#### Metadata

| Field        | Value   |
|--------------|---------|
| Entrypoint   | 0x022E  |
| Data Size    | 9 bytes |
| Instructions | 5       |

```
      00 01 02 03 04 05 06 07  08 09 0A 0B 0C 0D 0E 0F
      -- -- -- -- -- -- -- --  -- -- -- -- -- -- -- --
0220:                                            1D 1D                ..
0230: 80 23 1D 1E 80 23 00                              .#...#.         
```

#### Opcodes

```
  0: 0x022E [0x1D] PRINT_EVENT_MESSAGE(message_id=7825*)
    → "Goodbye, my little kittens! This house is enchanted, so no matterrr how much noise you make, no one will everrr hearrr you!"
  1: 0x0231 [0x23] WAIT_FOR_DIALOG_INTERACTION
  2: 0x0232 [0x1D] PRINT_EVENT_MESSAGE(message_id=7826*)
    → "I hope the ghost of the summonerrr doesn't eat you! Farrrewell!"
  3: 0x0235 [0x23] WAIT_FOR_DIALOG_INTERACTION
  4: 0x0236 [0x00] END_REQSTACK()
```

### Event 288

#### Metadata

| Field        | Value   |
|--------------|---------|
| Entrypoint   | 0x0237  |
| Data Size    | 3 bytes |
| Instructions | 2       |

```
      00 01 02 03 04 05 06 07  08 09 0A 0B 0C 0D 0E 0F
      -- -- -- -- -- -- -- --  -- -- -- -- -- -- -- --
0230:                      22  01 00                           "..      
```

#### Opcodes

```
  0: 0x0237 [0x22] ENTITY_HIDE_FLAG(enabled=0x01)
  1: 0x0239 [0x00] END_REQSTACK()
```

### Event 65535.36

#### Metadata

| Field        | Value    |
|--------------|----------|
| Entrypoint   | 0x023A   |
| Data Size    | 12 bytes |
| Instructions | 3        |

```
      00 01 02 03 04 05 06 07  08 09 0A 0B 0C 0D 0E 0F
      -- -- -- -- -- -- -- --  -- -- -- -- -- -- -- --
0230:                                37 1F 80 20 80 21            7.. .!
0240: 80 22 80 22 00 00                                 ."."..          
```

#### Opcodes

```
  0: 0x023A [0x37] UPDATE_EVENT_POSITION_AND_DIR: x=-35.247*, z=246.157*, y=-12.438*, direction=324.9°*
  1: 0x0243 [0x22] ENTITY_HIDE_FLAG(enabled=0x00)
  2: 0x0245 [0x00] END_REQSTACK()
```

### Event 65535.37

#### Metadata

| Field        | Value    |
|--------------|----------|
| Entrypoint   | 0x0246   |
| Data Size    | 12 bytes |
| Instructions | 4        |

```
      00 01 02 03 04 05 06 07  08 09 0A 0B 0C 0D 0E 0F
      -- -- -- -- -- -- -- --  -- -- -- -- -- -- -- --
0240:                   33 01  36 23 80 24 80 25 80 33        3.6#.$.%.3
0250: 01 00                                             ..              
```

#### Opcodes

```
  0: 0x0246 [0x33] EventEntity->Render.Flags0 |= 0x200000 // Bit 21 (flag=0x01)
  1: 0x0248 [0x36] SET_ENTITY_EVENT_POSITION(pos_x=-26.434*, pos_z=259.415*, pos_y=-16.011*)
  2: 0x024F [0x33] EventEntity->Render.Flags0 |= 0x200000 // Bit 21 (flag=0x01)
  3: 0x0251 [0x00] END_REQSTACK()
```

### Event 65535.38

#### Metadata

| Field        | Value   |
|--------------|---------|
| Entrypoint   | 0x0252  |
| Data Size    | 6 bytes |
| Instructions | 3       |

```
      00 01 02 03 04 05 06 07  08 09 0A 0B 0C 0D 0E 0F
      -- -- -- -- -- -- -- --  -- -- -- -- -- -- -- --
0250:       33 00 1C 26 80 00                             3..&..        
```

#### Opcodes

```
  0: 0x0252 [0x33] EventEntity->Render.Flags0 &= ~ 0x200000 // Bit 21 (flag=0x00)
  1: 0x0254 [0x1C] WAIT(10* ticks)
  2: 0x0257 [0x00] END_REQSTACK()
```

### Event 65535.39

#### Metadata

| Field        | Value    |
|--------------|----------|
| Entrypoint   | 0x0258   |
| Data Size    | 24 bytes |
| Instructions | 6        |

```
      00 01 02 03 04 05 06 07  08 09 0A 0B 0C 0D 0E 0F
      -- -- -- -- -- -- -- --  -- -- -- -- -- -- -- --
0250:                          32 08 80 1F 00 27 80 28          2....'.(
0260: 80 29 80 1F 01 1F 00 23  80 24 80 2A 80 1F 01 00  .).....#.$.*....
```

#### Opcodes

```
  0: 0x0258 [0x32] ExtData[1]->MainSpeed = 13* * 0.1
  1: 0x025B [0x1F] MOVE_ENTITY: EventEntity moves to X=-27.534*, Z=254.419*, Y=-12.402*
  2: 0x0263 [0x1F] MOVE_ENTITY: Update entity position (mode=1)
  3: 0x0265 [0x1F] MOVE_ENTITY: EventEntity moves to X=-26.434*, Z=259.415*, Y=-13.011*
  4: 0x026D [0x1F] MOVE_ENTITY: Update entity position (mode=1)
  5: 0x026F [0x00] END_REQSTACK()
```

### Event 65535.40

#### Metadata

| Field        | Value    |
|--------------|----------|
| Entrypoint   | 0x0270   |
| Data Size    | 10 bytes |
| Instructions | 2        |

```
      00 01 02 03 04 05 06 07  08 09 0A 0B 0C 0D 0E 0F
      -- -- -- -- -- -- -- --  -- -- -- -- -- -- -- --
0270: 37 2B 80 2C 80 2D 80 2E  80 00                    7+.,.-....      
```

#### Opcodes

```
  0: 0x0270 [0x37] UPDATE_EVENT_POSITION_AND_DIR: x=-25.907*, z=260.805*, y=-12.999*, direction=90.0°*
  1: 0x0279 [0x00] END_REQSTACK()
```

### Event 65535.41

#### Metadata

| Field        | Value    |
|--------------|----------|
| Entrypoint   | 0x027A   |
| Data Size    | 37 bytes |
| Instructions | 10       |

```
      00 01 02 03 04 05 06 07  08 09 0A 0B 0C 0D 0E 0F
      -- -- -- -- -- -- -- --  -- -- -- -- -- -- -- --
0270:                                32 01 80 1F 00 2F            2..../
0280: 80 30 80 14 80 1F 01 1F  00 31 80 32 80 33 80 1F  .0.......1.2.3..
0290: 01 1F 00 34 80 35 80 36  80 1F 01 6F 22 01 00     ...4.5.6...o".. 
```

#### Opcodes

```
  0: 0x027A [0x32] ExtData[1]->MainSpeed = 30* * 0.1
  1: 0x027D [0x1F] MOVE_ENTITY: EventEntity moves to X=-26.226*, Z=259.324*, Y=-13.000*
  2: 0x0285 [0x1F] MOVE_ENTITY: Update entity position (mode=1)
  3: 0x0287 [0x1F] MOVE_ENTITY: EventEntity moves to X=-27.401*, Z=255.879*, Y=-12.474*
  4: 0x028F [0x1F] MOVE_ENTITY: Update entity position (mode=1)
  5: 0x0291 [0x1F] MOVE_ENTITY: EventEntity moves to X=-38.903*, Z=244.043*, Y=-12.499*
  6: 0x0299 [0x1F] MOVE_ENTITY: Update entity position (mode=1)
  7: 0x029B [0x6F] WAIT_FRAME_DELAY: Yield until WaitTime reaches zero
  8: 0x029C [0x22] ENTITY_HIDE_FLAG(enabled=0x01)
  9: 0x029E [0x00] END_REQSTACK()
```

### Event 65535.42

#### Metadata

| Field        | Value    |
|--------------|----------|
| Entrypoint   | 0x029F   |
| Data Size    | 40 bytes |
| Instructions | 11       |

```
      00 01 02 03 04 05 06 07  08 09 0A 0B 0C 0D 0E 0F
      -- -- -- -- -- -- -- --  -- -- -- -- -- -- -- --
0290:                                               1C                 .
02A0: 37 80 32 01 80 1F 00 2F  80 30 80 14 80 1F 01 1F  7.2..../.0......
02B0: 00 31 80 32 80 33 80 1F  01 1F 00 34 80 35 80 36  .1.2.3.....4.5.6
02C0: 80 1F 01 6F 22 01 00                              ...o"..         
```

#### Opcodes

```
  0: 0x029F [0x1C] WAIT(80* ticks)
  1: 0x02A2 [0x32] ExtData[1]->MainSpeed = 30* * 0.1
  2: 0x02A5 [0x1F] MOVE_ENTITY: EventEntity moves to X=-26.226*, Z=259.324*, Y=-13.000*
  3: 0x02AD [0x1F] MOVE_ENTITY: Update entity position (mode=1)
  4: 0x02AF [0x1F] MOVE_ENTITY: EventEntity moves to X=-27.401*, Z=255.879*, Y=-12.474*
  5: 0x02B7 [0x1F] MOVE_ENTITY: Update entity position (mode=1)
  6: 0x02B9 [0x1F] MOVE_ENTITY: EventEntity moves to X=-38.903*, Z=244.043*, Y=-12.499*
  7: 0x02C1 [0x1F] MOVE_ENTITY: Update entity position (mode=1)
  8: 0x02C3 [0x6F] WAIT_FRAME_DELAY: Yield until WaitTime reaches zero
  9: 0x02C4 [0x22] ENTITY_HIDE_FLAG(enabled=0x01)
 10: 0x02C6 [0x00] END_REQSTACK()
```

### Event 65535.43

#### Metadata

| Field        | Value   |
|--------------|---------|
| Entrypoint   | 0x02C7  |
| Data Size    | 5 bytes |
| Instructions | 3       |

```
      00 01 02 03 04 05 06 07  08 09 0A 0B 0C 0D 0E 0F
      -- -- -- -- -- -- -- --  -- -- -- -- -- -- -- --
02C0:                      1D  38 80 23 00                     .8.#.    
```

#### Opcodes

```
  0: 0x02C7 [0x1D] PRINT_EVENT_MESSAGE(message_id=7794*)
    → "Not you S.O.B.'s again! What in blazes did you do that for?"
  1: 0x02CA [0x23] WAIT_FOR_DIALOG_INTERACTION
  2: 0x02CB [0x00] END_REQSTACK()
```
