# 17756188 - Yoran-Oran

## Common Data

| Field            | Value                    |
|------------------|--------------------------|
| Zone             | Windurst Walls (ID: 239) |
| Block Size       | 4944 bytes               |
| Total Events     | 164                      |
| References Count | 180                      |

## List of Events

| Event ID                     | Entrypoint   |   Size |   Instructions |
|------------------------------|--------------|--------|----------------|
| [65535](#event-65535)        | 0x0000       |      1 |              1 |
| [65535.1](#event-655351)     | 0x0001       |     16 |              2 |
| [65535.2](#event-655352)     | 0x0011       |     42 |              4 |
| [65535.3](#event-655353)     | 0x003B       |     16 |              2 |
| [65535.4](#event-655354)     | 0x004B       |     14 |              2 |
| [65535.5](#event-655355)     | 0x0059       |     16 |              2 |
| [65535.6](#event-655356)     | 0x0069       |     14 |              2 |
| [65535.7](#event-655357)     | 0x0077       |     16 |              2 |
| [65535.8](#event-655358)     | 0x0087       |     14 |              2 |
| [65535.9](#event-655359)     | 0x0095       |     16 |              2 |
| [65535.10](#event-6553510)   | 0x00A5       |     14 |              2 |
| [65535.11](#event-6553511)   | 0x00B3       |     16 |              2 |
| [65535.12](#event-6553512)   | 0x00C3       |     14 |              2 |
| [65535.13](#event-6553513)   | 0x00D1       |     16 |              2 |
| [65535.14](#event-6553514)   | 0x00E1       |     14 |              2 |
| [65535.15](#event-6553515)   | 0x00EF       |     16 |              2 |
| [65535.16](#event-6553516)   | 0x00FF       |     14 |              2 |
| [65535.17](#event-6553517)   | 0x010D       |     16 |              2 |
| [65535.18](#event-6553518)   | 0x011D       |     14 |              2 |
| [65535.19](#event-6553519)   | 0x012B       |     16 |              2 |
| [65535.20](#event-6553520)   | 0x013B       |     22 |              4 |
| [65535.21](#event-6553521)   | 0x0151       |     16 |              2 |
| [65535.22](#event-6553522)   | 0x0161       |     14 |              2 |
| [65535.23](#event-6553523)   | 0x016F       |     16 |              2 |
| [65535.24](#event-6553524)   | 0x017F       |     14 |              2 |
| [65535.25](#event-6553525)   | 0x018D       |     16 |              2 |
| [65535.26](#event-6553526)   | 0x019D       |     22 |              4 |
| [65535.27](#event-6553527)   | 0x01B3       |     16 |              2 |
| [65535.28](#event-6553528)   | 0x01C3       |     14 |              2 |
| [65535.29](#event-6553529)   | 0x01D1       |     16 |              2 |
| [65535.30](#event-6553530)   | 0x01E1       |     14 |              2 |
| [65535.31](#event-6553531)   | 0x01EF       |     16 |              2 |
| [65535.32](#event-6553532)   | 0x01FF       |     14 |              2 |
| [65535.33](#event-6553533)   | 0x020D       |     16 |              2 |
| [65535.34](#event-6553534)   | 0x021D       |     14 |              2 |
| [65535.35](#event-6553535)   | 0x022B       |     16 |              2 |
| [65535.36](#event-6553536)   | 0x023B       |     14 |              2 |
| [65535.37](#event-6553537)   | 0x0249       |     16 |              2 |
| [65535.38](#event-6553538)   | 0x0259       |     14 |              2 |
| [65535.39](#event-6553539)   | 0x0267       |     16 |              2 |
| [65535.40](#event-6553540)   | 0x0277       |     14 |              2 |
| [65535.41](#event-6553541)   | 0x0285       |     16 |              2 |
| [65535.42](#event-6553542)   | 0x0295       |     22 |              4 |
| [65535.43](#event-6553543)   | 0x02AB       |     44 |              4 |
| [65535.44](#event-6553544)   | 0x02D7       |     16 |              2 |
| [65535.45](#event-6553545)   | 0x02E7       |     14 |              2 |
| [65535.46](#event-6553546)   | 0x02F5       |     18 |              4 |
| [65535.47](#event-6553547)   | 0x0307       |     18 |              4 |
| [65535.48](#event-6553548)   | 0x0319       |     18 |              4 |
| [65535.49](#event-6553549)   | 0x032B       |     18 |              4 |
| [65535.50](#event-6553550)   | 0x033D       |     18 |              4 |
| [65535.51](#event-6553551)   | 0x034F       |     27 |              3 |
| [65535.52](#event-6553552)   | 0x036A       |      9 |              3 |
| [65535.53](#event-6553553)   | 0x0373       |     16 |              2 |
| [65535.54](#event-6553554)   | 0x0383       |     14 |              2 |
| [65535.55](#event-6553555)   | 0x0391       |     16 |              2 |
| [65535.56](#event-6553556)   | 0x03A1       |     14 |              2 |
| [65535.57](#event-6553557)   | 0x03AF       |     16 |              2 |
| [65535.58](#event-6553558)   | 0x03BF       |     14 |              2 |
| [65535.59](#event-6553559)   | 0x03CD       |     16 |              2 |
| [65535.60](#event-6553560)   | 0x03DD       |     14 |              2 |
| [65535.61](#event-6553561)   | 0x03EB       |     16 |              2 |
| [65535.62](#event-6553562)   | 0x03FB       |     14 |              2 |
| [65535.63](#event-6553563)   | 0x0409       |     16 |              2 |
| [65535.64](#event-6553564)   | 0x0419       |     14 |              2 |
| [65535.65](#event-6553565)   | 0x0427       |     16 |              2 |
| [65535.66](#event-6553566)   | 0x0437       |     14 |              2 |
| [65535.67](#event-6553567)   | 0x0445       |     16 |              2 |
| [65535.68](#event-6553568)   | 0x0455       |     14 |              2 |
| [65535.69](#event-6553569)   | 0x0463       |     16 |              2 |
| [65535.70](#event-6553570)   | 0x0473       |     14 |              2 |
| [443](#event-443)            | 0x0481       |     16 |              3 |
| [245](#event-245)            | 0x0491       |     33 |             12 |
| [248](#event-248)            | 0x04B2       |     39 |             10 |
| [65535.71](#event-6553571)   | 0x04D9       |     23 |              7 |
| [65535.72](#event-6553572)   | 0x04F0       |      9 |              5 |
| [65535.73](#event-6553573)   | 0x04F9       |     23 |              7 |
| [65535.74](#event-6553574)   | 0x0510       |      5 |              3 |
| [249](#event-249)            | 0x0515       |     19 |             10 |
| [250](#event-250)            | 0x0528       |     15 |              8 |
| [251](#event-251)            | 0x0537       |     53 |             15 |
| [252](#event-252)            | 0x056C       |     57 |             17 |
| [253](#event-253)            | 0x05A5       |     71 |             19 |
| [255](#event-255)            | 0x05EC       |    122 |             24 |
| [254](#event-254)            | 0x0666       |     57 |             17 |
| [256](#event-256)            | 0x069F       |     33 |             13 |
| [217](#event-217)            | 0x06C0       |     37 |             14 |
| [221](#event-221)            | 0x06E5       |     40 |             11 |
| [222](#event-222)            | 0x070D       |     65 |             18 |
| [223](#event-223)            | 0x074E       |     33 |             12 |
| [232](#event-232)            | 0x076F       |     32 |              9 |
| [65535.75](#event-6553575)   | 0x078F       |     19 |              5 |
| [65535.76](#event-6553576)   | 0x07A2       |     23 |              7 |
| [65535.77](#event-6553577)   | 0x07B9       |     23 |              7 |
| [392](#event-392)            | 0x07D0       |     63 |             18 |
| [393](#event-393)            | 0x080F       |     45 |             14 |
| [439](#event-439)            | 0x083C       |     69 |             20 |
| [441](#event-441)            | 0x0881       |     66 |             19 |
| [469](#event-469)            | 0x08C3       |      7 |              2 |
| [65535.78](#event-6553578)   | 0x08CA       |     16 |              3 |
| [65535.79](#event-6553579)   | 0x08DA       |     10 |              2 |
| [65535.80](#event-6553580)   | 0x08E4       |     15 |              5 |
| [65535.81](#event-6553581)   | 0x08F3       |     15 |              5 |
| [65535.82](#event-6553582)   | 0x0902       |     10 |              2 |
| [65535.83](#event-6553583)   | 0x090C       |     15 |              5 |
| [65535.84](#event-6553584)   | 0x091B       |     10 |              2 |
| [474](#event-474)            | 0x0925       |     83 |             22 |
| [470](#event-470)            | 0x0978       |      7 |              2 |
| [476](#event-476)            | 0x097F       |     51 |             16 |
| [471](#event-471)            | 0x09B2       |      7 |              2 |
| [477](#event-477)            | 0x09B9       |     47 |             14 |
| [472](#event-472)            | 0x09E8       |      7 |              2 |
| [65535.85](#event-6553585)   | 0x09EF       |     15 |              5 |
| [478](#event-478)            | 0x09FE       |     69 |             20 |
| [473](#event-473)            | 0x0A43       |      7 |              2 |
| [65535.86](#event-6553586)   | 0x0A4A       |     16 |              3 |
| [65535.87](#event-6553587)   | 0x0A5A       |     15 |              5 |
| [65535.88](#event-6553588)   | 0x0A69       |     10 |              2 |
| [65535.89](#event-6553589)   | 0x0A73       |     36 |             10 |
| [65535.90](#event-6553590)   | 0x0A97       |     10 |              2 |
| [65535.91](#event-6553591)   | 0x0AA1       |     30 |              8 |
| [65535.92](#event-6553592)   | 0x0ABF       |     10 |              2 |
| [479](#event-479)            | 0x0AC9       |     65 |             18 |
| [481](#event-481)            | 0x0B0A       |     69 |             20 |
| [65535.93](#event-6553593)   | 0x0B4F       |     33 |              3 |
| [65535.94](#event-6553594)   | 0x0B70       |     39 |              5 |
| [65535.95](#event-6553595)   | 0x0B97       |     39 |              5 |
| [65535.96](#event-6553596)   | 0x0BBE       |     19 |              3 |
| [65535.97](#event-6553597)   | 0x0BD1       |     16 |              2 |
| [65535.98](#event-6553598)   | 0x0BE1       |     22 |              4 |
| [65535.99](#event-6553599)   | 0x0BF7       |     15 |              4 |
| [65535.100](#event-65535100) | 0x0C06       |     21 |              2 |
| [65535.101](#event-65535101) | 0x0C1B       |     10 |              2 |
| [65535.102](#event-65535102) | 0x0C25       |     10 |              2 |
| [510](#event-510)            | 0x0C2F       |      1 |              1 |
| [65535.103](#event-65535103) | 0x0C30       |     15 |              5 |
| [65535.104](#event-65535104) | 0x0C3F       |     16 |              2 |
| [65535.105](#event-65535105) | 0x0C4F       |     16 |              2 |
| [65535.106](#event-65535106) | 0x0C5F       |     16 |              2 |
| [65535.107](#event-65535107) | 0x0C6F       |     16 |              2 |
| [65535.108](#event-65535108) | 0x0C7F       |     16 |              2 |
| [65535.109](#event-65535109) | 0x0C8F       |     16 |              2 |
| [65535.110](#event-65535110) | 0x0C9F       |     19 |              3 |
| [65535.111](#event-65535111) | 0x0CB2       |     19 |              3 |
| [65535.112](#event-65535112) | 0x0CC5       |     16 |              4 |
| [65535.113](#event-65535113) | 0x0CD5       |     29 |              3 |
| [65535.114](#event-65535114) | 0x0CF2       |     16 |              2 |
| [511](#event-511)            | 0x0D02       |      1 |              1 |
| [65535.115](#event-65535115) | 0x0D03       |     24 |              6 |
| [65535.116](#event-65535116) | 0x0D1B       |     15 |              5 |
| [65535.117](#event-65535117) | 0x0D2A       |     15 |              5 |
| [65535.118](#event-65535118) | 0x0D39       |     25 |              4 |
| [548](#event-548)            | 0x0D52       |      1 |              1 |
| [65535.119](#event-65535119) | 0x0D53       |     32 |              8 |
| [569](#event-569)            | 0x0D73       |      1 |              1 |
| [65535.120](#event-65535120) | 0x0D74       |     15 |              5 |
| [65535.121](#event-65535121) | 0x0D83       |     15 |              5 |
| [570](#event-570)            | 0x0D92       |      1 |              1 |
| [65535.122](#event-65535122) | 0x0D93       |     15 |              5 |
| [65535.123](#event-65535123) | 0x0DA2       |     15 |              5 |
| [65535.124](#event-65535124) | 0x0DB1       |     15 |              5 |
| [65535.125](#event-65535125) | 0x0DC0       |     15 |              5 |
| [65535.126](#event-65535126) | 0x0DCF       |     14 |              4 |
| [572](#event-572)            | 0x0DDD       |      1 |              1 |

## DAT References (imed_data)

|   Index | Hex Value   |   Dec Value |
|---------|-------------|-------------|
|       0 | 0x0028      |          40 |
|       1 | 0x0029      |          41 |
|       2 | 0x003C      |          60 |
|       3 | 0x002A      |          42 |
|       4 | 0x0001      |           1 |
|       5 | 0x0007      |           7 |
|       6 | 0x0006      |           6 |
|       7 | 0x0008      |           8 |
|       8 | 0x000D      |          13 |
|       9 | 0x002B      |          43 |
|      10 | 0x01AE      |         430 |
|      11 | 0x01AF      |         431 |
|      12 | 0x002E      |          46 |
|      13 | 0xFFFEBDCF  |  4294884815 |
|      14 | 0x1E526     |      124198 |
|      15 | 0xFFFFEA38  |  4294961720 |
|      16 | 0x07D4      |        2004 |
|      17 | 0x1DF1      |        7665 |
|      18 | 0x1DF2      |        7666 |
|      19 | 0x1DF6      |        7670 |
|      20 | 0x1DF7      |        7671 |
|      21 | 0x1DF8      |        7672 |
|      22 | 0x1DF9      |        7673 |
|      23 | 0x1DFA      |        7674 |
|      24 | 0x1DFB      |        7675 |
|      25 | 0x1DFC      |        7676 |
|      26 | 0x1DFD      |        7677 |
|      27 | 0x1DFE      |        7678 |
|      28 | 0x1DFF      |        7679 |
|      29 | 0x1E00      |        7680 |
|      30 | 0x00C9      |         201 |
|      31 | 0x0000      |           0 |
|      32 | 0x1998      |        6552 |
|      33 | 0x1E01      |        7681 |
|      34 | 0x1E02      |        7682 |
|      35 | 0x1E03      |        7683 |
|      36 | 0x1E04      |        7684 |
|      37 | 0x1E07      |        7687 |
|      38 | 0x00C8      |         200 |
|      39 | 0x1E08      |        7688 |
|      40 | 0x1E05      |        7685 |
|      41 | 0x1E06      |        7686 |
|      42 | 0x1E09      |        7689 |
|      43 | 0x1D9F      |        7583 |
|      44 | 0x1DA0      |        7584 |
|      45 | 0x1DA1      |        7585 |
|      46 | 0x1DA7      |        7591 |
|      47 | 0x1DA8      |        7592 |
|      48 | 0x1DA9      |        7593 |
|      49 | 0x1DAA      |        7594 |
|      50 | 0x1DAB      |        7595 |
|      51 | 0x1DCD      |        7629 |
|      52 | 0x1DCE      |        7630 |
|      53 | 0x1DCF      |        7631 |
|      54 | 0x1DD0      |        7632 |
|      55 | 0x1DD1      |        7633 |
|      56 | 0x2282      |        8834 |
|      57 | 0x000E      |          14 |
|      58 | 0x2283      |        8835 |
|      59 | 0x2284      |        8836 |
|      60 | 0x2285      |        8837 |
|      61 | 0x2286      |        8838 |
|      62 | 0x233B      |        9019 |
|      63 | 0x233C      |        9020 |
|      64 | 0x233D      |        9021 |
|      65 | 0x233E      |        9022 |
|      66 | 0x235D      |        9053 |
|      67 | 0x235E      |        9054 |
|      68 | 0x235F      |        9055 |
|      69 | 0xFFFE525D  |  4294857309 |
|      70 | 0x31A4A     |      203338 |
|      71 | 0xFFFFCD38  |  4294954296 |
|      72 | 0x0D0C      |        3340 |
|      73 | 0xFFFE6ADA  |  4294863578 |
|      74 | 0x30B34     |      199476 |
|      75 | 0xFFFFD120  |  4294955296 |
|      76 | 0x0D76      |        3446 |
|      77 | 0xFFFE709F  |  4294865055 |
|      78 | 0x30FAF     |      200623 |
|      79 | 0xFFFE73B1  |  4294865841 |
|      80 | 0x30CB6     |      199862 |
|      81 | 0xFFFE6DF7  |  4294864375 |
|      82 | 0x312DC     |      201436 |
|      83 | 0x010D      |         269 |
|      84 | 0xFFFE7020  |  4294864928 |
|      85 | 0x311C2     |      201154 |
|      86 | 0x093A      |        2362 |
|      87 | 0x24DE      |        9438 |
|      88 | 0x24DF      |        9439 |
|      89 | 0x24E0      |        9440 |
|      90 | 0x24E6      |        9446 |
|      91 | 0x24EB      |        9451 |
|      92 | 0x24EC      |        9452 |
|      93 | 0x24ED      |        9453 |
|      94 | 0x24EF      |        9455 |
|      95 | 0x24F0      |        9456 |
|      96 | 0xFFFE4D7F  |  4294856063 |
|      97 | 0x315E3     |      202211 |
|      98 | 0xFFFFCD39  |  4294954297 |
|      99 | 0x24FE      |        9470 |
|     100 | 0x24FF      |        9471 |
|     101 | 0x2500      |        9472 |
|     102 | 0x2501      |        9473 |
|     103 | 0xFFFE4FD5  |  4294856661 |
|     104 | 0x3187F     |      202879 |
|     105 | 0x0195      |         405 |
|     106 | 0xFFFE56B1  |  4294858417 |
|     107 | 0x310CB     |      200907 |
|     108 | 0xFFFE6451  |  4294861905 |
|     109 | 0x30F0B     |      200459 |
|     110 | 0xFFFFD121  |  4294955297 |
|     111 | 0x0108      |         264 |
|     112 | 0xFFFE696F  |  4294863215 |
|     113 | 0x30AF4     |      199412 |
|     114 | 0xFFFE6FE2  |  4294864866 |
|     115 | 0x310BC     |      200892 |
|     116 | 0x0E47      |        3655 |
|     117 | 0xFFFE6AB9  |  4294863545 |
|     118 | 0x30C78     |      199800 |
|     119 | 0xFFFE6E52  |  4294864466 |
|     120 | 0x30FFA     |      200698 |
|     121 | 0x02AB      |         683 |
|     122 | 0x2547      |        9543 |
|     123 | 0x2548      |        9544 |
|     124 | 0x2549      |        9545 |
|     125 | 0x2550      |        9552 |
|     126 | 0x2551      |        9553 |
|     127 | 0x2552      |        9554 |
|     128 | 0x2553      |        9555 |
|     129 | 0x0ACF      |        2767 |
|     130 | 0x00B5      |         181 |
|     131 | 0x002D      |          45 |
|     132 | 0x001B      |          27 |
|     133 | 0x00B4      |         180 |
|     134 | 0x0074      |         116 |
|     135 | 0x0128      |         296 |
|     136 | 0x0801      |        2049 |
|     137 | 0x001E      |          30 |
|     138 | 0x0005      |           5 |
|     139 | 0x000A      |          10 |
|     140 | 0x0017      |          23 |
|     141 | 0x000B      |          11 |
|     142 | 0x0080      |         128 |
|     143 | 0xFFFE5ED0  |  4294860496 |
|     144 | 0x2FAE4     |      195300 |
|     145 | 0x0031      |          49 |
|     146 | 0x055D      |        1373 |
|     147 | 0x0055      |          85 |
|     148 | 0x0050      |          80 |
|     149 | 0xFFFE6B3C  |  4294863676 |
|     150 | 0x32780     |      206720 |
|     151 | 0xFFFE5DDE  |  4294860254 |
|     152 | 0x31BCB     |      203723 |
|     153 | 0xFFFE8ACB  |  4294871755 |
|     154 | 0x2EE7B     |      192123 |
|     155 | 0xFFFE84E5  |  4294870245 |
|     156 | 0x2F53F     |      193855 |
|     157 | 0x0AD2      |        2770 |
|     158 | 0x007D      |         125 |
|     159 | 0x1E53E     |      124222 |
|     160 | 0x1C2F2     |      115442 |
|     161 | 0xFFFFF448  |  4294964296 |
|     162 | 0x0024      |          36 |
|     163 | 0x005A      |          90 |
|     164 | 0x1BD63     |      114019 |
|     165 | 0x1BA61     |      113249 |
|     166 | 0xFFFFF830  |  4294965296 |
|     167 | 0x1C51B     |      115995 |
|     168 | 0x1BB5D     |      113501 |
|     169 | 0x1BB8B     |      113547 |
|     170 | 0x1BD32     |      113970 |
|     171 | 0xFFFFF831  |  4294965297 |
|     172 | 0x1C817     |      116759 |
|     173 | 0x1B61F     |      112159 |
|     174 | 0x1C258     |      115288 |
|     175 | 0x1B851     |      112721 |
|     176 | 0x1C794     |      116628 |
|     177 | 0x1B461     |      111713 |
|     178 | 0x1B9AC     |      113068 |
|     179 | 0x1BB7C     |      113532 |

## String References

- **6552**: Obtained $0 gil.
- **7583**: "...Time flow-ethy ever on and on, but the past is never-ethy gone."
- **7584**: "The past unceasingly-ethy piles up in toil, The lower layers decomposing-ethy into soil, Which supports-ethy this world's future yon..."
- **7585**: ...Hmm. Put it into writing-ethy and it comes out like this-ethy.
- **7591**: "...There are many-ethy a place which now is land, That was in antiquity submerged-ethy under the sea and sand."
- **7592**: "A prime example of such a place-ethy is the Maze of Shakhrami. You can find-ethy an array of fossilized sea life in the rocks there-ethy..."
- **7593**: ...Hmm. Now all I have to do-ethy is add an illustration of an ancient shell here-ethy as an example...
- **7594**: How peculiar-ethy! Why can't I find-ethy my fossil of a Burnite Shell? Where-ethy did it go-ethy?
- **7595**: Just when I was on a roll-ethy with my writing, too... Oh, damn-ethy, now I've lost-ethy all motivation.
- **7629**: "Alchemy"... I'd love to see-ethy the face of anyone crazy-hazy enough to still be researching that outdated science-ethy.
- **7630**: What? You say-ethy Koru-Moru is working on the subject-ethy?
- **7631**: Well, that's just like-ethy him--chasing after whatever is on his mind-ethy at the time.
- **7632**: Now that you mention it, I recall-ethy that the professor wrote-ethy a paper on the subject when he was still-ethy a student.
- **7633**: That imbecile-nibicile hasn't changed one bit-ethy since his school days. He's probably already forgot-ethy that he wrote-ethy that paper.
- **7665**: Huh? What business-ethy do you have with me-ethy? I'm Yoran-Oran, the former minister-ethy of the Rhinostery.
- **7666**: Have you been to see-ethy the Rhinostery's biological laboratory in Windurst Waters yet-ethy? Well, you should. It's like-ethy a magical botanical garden!
- **7670**: Huh? What business-ethy do you have with me-ethy? I'm Yoran-Oran, the former minister-ethy of the Rhinostery.
- **7671**: Have you been to see-ethy the Rhinostery's biological laboratory in Windurst Waters yet-ethy? Well, you should. It's like-ethy a magical botanical garden!
- **7672**: My old Rhinostery has come to resemble-ethy a botanical garden that specializes in plants, but it really is meant to be-ethy a biological laboratory.
- **7673**: Originally it was a biological research center that dealt-ethy with the entire ecosystem of plants and animals. Of course that included-ethy the roles of monsters in the system of things.
- **7674**: For example, take-ethy that wonderful little bean-being, the mandragora, that's found-ethy out in Sarutabaruta. Before the Great War they didn't exist-ethy in these parts, but their numbers have constantly increased-ethy over the last couple of decades.
- **7675**: That got me interested-ethy in where they're originally from and how they came to arrive-ethy in Sarutabaruta. So right now I'm thinking-ethy of carrying out a study on them.
- **7676**: If you come across-ethy any mandragora-related items that might assist me with my research, please bring-ethy them to me. I'll buy-ethy each and every one I can off of you.
- **7677**: I'm thinking of carrying-ethy out a study on where mandragora originally come-ethy from and how they arrived-ethy in Sarutabaruta.
- **7678**: If you come across-ethy any mandragora-related items that might assist me with my research, please bring-ethy them to me. I'll buy-ethy each and every one I can off of you.
- **7679**: That is a most unusual item, but it doesn't help-ethy me with my research. My research is not the collection-ethy of curiosities per se, now.
- **7680**: This is worthy of further investigation indeed-ethy. If you happen upon-ethy any more items such as this, please be sure to bring-ethy them to me.
- **7681**: Yes, yes! I was waiting-ethy for something like this. This is definitely not from-ethy Sarutabaruta.
- **7682**: Hmm...If you come across-ethy any more items such as this, please be sure to bring-ethy them here to me.
- **7683**: What are these-ethy? This-ethy is amazing-ethy! I never expected-ethy the mandragora in the Outlands would have evolved-ethy like this.
- **7684**: I'd better look-ethy into this right away. This could lead-ethy to some new discovery!
- **7685**: That is a rather rare mandragora-related thing, but it doesn't help-ethy me with my research.
- **7686**: However, they say these can bring-ethy luck, so I'll take it off of your hands. Who knows, it might just help me think-ethy things over a little better.
- **7687**: You say-ethy that mandragora had-ethy $1, eh? It would be strange-ethy enough-ethy for a Rarab to show interest in such-ethy a thing-ethy, but for a mandragora...!?
- **7688**: Interesting-ethy! No, intriguing-ethy! I think this could be the beginning-ethy of some remarkable research-ethy!
- **7689**: If mandragoras drop-ethy something that looks as if it could aid-ethy me in my research, then please be sure to bring-ethy it back here to me.
- **8834**: ...Yes, I heard-ethy the whole story from one of the young lads from the Rhinostery. Toraimarai Canal may be infested-ethy with starmites, he said.
- **8835**: That's my Rhinostery! Those young ones took-ethy fastaru and appropriataru action for the situation at hand. Coming to me for help-ethy was the right decision...
- **8836**: It's a critical situation, but working-ethy under pressure is one of the thrills of research, ha-ha-ha!
- **8837**: I'm making-ethy progress on my research into starmites, thanks in partaru to the information I had gathered-ethy on mandragoras. You see, all living things are connected.
- **8838**: You should-ethy remember this from time to time: You are connected-ethy to all other beings in Vana'diel.
- **9019**: I'm worried-ethy about Miss Apururu. I wish I had time to listen-ethy to her woes, but this thesis I'm writing takes up all my waking hours...
- **9020**: It concerns the research-ethy I'm doing on the mandragora that you adventurers have been helping-ethy me with. I've reached the point-ethy where I'm almost ready to publish-ethy my findings.
- **9021**: Let me tell you something I've discovered in my research. It appears that the Mandragora derive nourishment-ethy from $1.
- **9022**: They also have a great-ethy love for $2, but I have no idea where you might find one.
- **9053**: I heard-ethy from Apururu that Karaha-Baruha was brought-ethy back to life by the forbidden ritual of the Manustery.
- **9054**: Zonpa-Zippa had-ethy been in Karaha-Baruha's shadow ever since he was a studentaru. I wonder if he was the one who leaked-ethy the ritual?
- **9055**: If that's the case, Zonpa-Zippa is guilty of violating-ethy a law. It mightaru be best for him to stay where he is--locked-ethy up in the Boyahda Tree.
- **9438**: That's it! The Mimeo Mirror! Its memory-viewing powers are perfect-ethy for this situation!
- **9439**: I'll use the mirror to show-ethy all my memories of Tavnazia! I'll prove-ethy my innocence to the world!
- **9440**: Now if I can just remember-ethy the person who owned a Mimeo Mirror. I seem to recall-ethy a rather unpleasant personage boasting about his possessions a while back...
- **9446**: I must-ethy remember before those children return-ethy from the Windurst Waters restaurant...
- **9451**: Adventurer! You must-ethy go to the Attohwa Chasm and obtain-ethy yourself some Mimeo Jewels!
- **9452**: Then take-ethy them to the tippity-top of Parradamo Tor to transform-ethy them into Mimeo Feathers! Remember, I need-ethy three of them!
- **9453**: It will take-ethy all your skills and more to accomplish-ethy this task, but I know you can do it! You must-ethy be able to do it! I need-ethy you to be able to do it!
- **9455**: Oh, and make sure you find-ethy those three troublemakers before I finish repairing-ethy the mirror!
- **9456**: I must fix-ethy this mirror! I need to fix-ethy this mirror! I will fix-ethy this mirror!
- **9470**: All I know-ethy about the Multinational Expedition is that it was the suspicious actions of Bastok that interfered-ethy with the research of the other members.
- **9471**: But as for the details of what really happened-ethy back then, you should take-ethy your questions to Bastok or San d'Oria.
- **9472**: Hm? Hm? Hm? Now that you mention-ethy it, I seem to recall-ethy that Karaha-Baruha was only a child when he visited-ethy Tavnazia...
- **9473**: I remember-ethy fighting with Minister Shantotto over who got to eat the tasty souvenirs he brought-ethy back... But that would mean-ethy...
- **9543**: I wish you would stop-ethy using my house as a stage for your exhibitions!
- **9544**: Those three evil children... That nasty Mithran Tracker... Have you ever heard-ethy of trespassing!?
- **9545**: Now unless you want me to call-ethy the Sibyl Guards, I suggest-ethy you be on your way to Attohwa Chasm!
- **9552**: What now!? You want to know-ethy where the statue in Tavnazia came from?
- **9553**: I thought-ethy I already told you. The statue was covered in traces of soil similar to that found-ethy on the bottom of the Sea of Shu'Meyo.
- **9554**: But wait-ethy just a moment... Now that you mention it, there were also traces of Gustaberg soil mixed-ethy with the samples. I did not think-ethy anything of it at the time...
- **9555**: Why would-ethy there be two types of soil on the statue...?

## Events

### Event 65535

#### Metadata

| Field        | Value   |
|--------------|---------|
| Entrypoint   | 0x0000  |
| Data Size    | 1 bytes |
| Instructions | 1       |

```
      00 01 02 03 04 05 06 07  08 09 0A 0B 0C 0D 0E 0F
      -- -- -- -- -- -- -- --  -- -- -- -- -- -- -- --
0000: 00                                                .               
```

#### Opcodes

```
  0: 0x0000 [0x00] END_REQSTACK()
```

### Event 65535.1

#### Metadata

| Field        | Value    |
|--------------|----------|
| Entrypoint   | 0x0001   |
| Data Size    | 16 bytes |
| Instructions | 2        |

```
      00 01 02 03 04 05 06 07  08 09 0A 0B 0C 0D 0E 0F
      -- -- -- -- -- -- -- --  -- -- -- -- -- -- -- --
0000:    66 00 80 F8 FF FF 7F  F8 FF FF 7F 74 6C 6B 30   f..........tlk0
0010: 00                                                .               
```

#### Opcodes

```
  0: 0x0001 [0x66] LOAD_EXT_SCHEDULER_MAIN: Load scheduler "tlk0" with entities [EventEntity, EventEntity], work=40*
  1: 0x0010 [0x00] END_REQSTACK()
```

### Event 65535.2

#### Metadata

| Field        | Value    |
|--------------|----------|
| Entrypoint   | 0x0011   |
| Data Size    | 42 bytes |
| Instructions | 4        |

```
      00 01 02 03 04 05 06 07  08 09 0A 0B 0C 0D 0E 0F
      -- -- -- -- -- -- -- --  -- -- -- -- -- -- -- --
0010:    53 F8 FF FF 7F F8 FF  FF 7F 74 6C 6B 30 66 00   S........tlk0f.
0020: 80 F8 FF FF 7F F8 FF FF  7F 74 6C 6B 31 53 F8 FF  .........tlk1S..
0030: FF 7F F8 FF FF 7F 74 6C  6B 31 00                 ......tlk1.     
```

#### Opcodes

```
  0: 0x0011 [0x53] WAIT_SCHEDULER_TASK: Wait for scheduler "tlk0" with entities [EventEntity, EventEntity]
  1: 0x001E [0x66] LOAD_EXT_SCHEDULER_MAIN: Load scheduler "tlk1" with entities [EventEntity, EventEntity], work=40*
  2: 0x002D [0x53] WAIT_SCHEDULER_TASK: Wait for scheduler "tlk1" with entities [EventEntity, EventEntity]
  3: 0x003A [0x00] END_REQSTACK()
```

### Event 65535.3

#### Metadata

| Field        | Value    |
|--------------|----------|
| Entrypoint   | 0x003B   |
| Data Size    | 16 bytes |
| Instructions | 2        |

```
      00 01 02 03 04 05 06 07  08 09 0A 0B 0C 0D 0E 0F
      -- -- -- -- -- -- -- --  -- -- -- -- -- -- -- --
0030:                                   66 00 80 F8 FF             f....
0040: FF 7F F8 FF FF 7F 74 68  6B 31 00                 ......thk1.     
```

#### Opcodes

```
  0: 0x003B [0x66] LOAD_EXT_SCHEDULER_MAIN: Load scheduler "thk1" with entities [EventEntity, EventEntity], work=40*
  1: 0x004A [0x00] END_REQSTACK()
```

### Event 65535.4

#### Metadata

| Field        | Value    |
|--------------|----------|
| Entrypoint   | 0x004B   |
| Data Size    | 14 bytes |
| Instructions | 2        |

```
      00 01 02 03 04 05 06 07  08 09 0A 0B 0C 0D 0E 0F
      -- -- -- -- -- -- -- --  -- -- -- -- -- -- -- --
0040:                                   53 F8 FF FF 7F             S....
0050: F8 FF FF 7F 74 68 6B 31  00                       ....thk1.       
```

#### Opcodes

```
  0: 0x004B [0x53] WAIT_SCHEDULER_TASK: Wait for scheduler "thk1" with entities [EventEntity, EventEntity]
  1: 0x0058 [0x00] END_REQSTACK()
```

### Event 65535.5

#### Metadata

| Field        | Value    |
|--------------|----------|
| Entrypoint   | 0x0059   |
| Data Size    | 16 bytes |
| Instructions | 2        |

```
      00 01 02 03 04 05 06 07  08 09 0A 0B 0C 0D 0E 0F
      -- -- -- -- -- -- -- --  -- -- -- -- -- -- -- --
0050:                             66 00 80 F8 FF FF 7F           f......
0060: F8 FF FF 7F 74 68 6B 32  00                       ....thk2.       
```

#### Opcodes

```
  0: 0x0059 [0x66] LOAD_EXT_SCHEDULER_MAIN: Load scheduler "thk2" with entities [EventEntity, EventEntity], work=40*
  1: 0x0068 [0x00] END_REQSTACK()
```

### Event 65535.6

#### Metadata

| Field        | Value    |
|--------------|----------|
| Entrypoint   | 0x0069   |
| Data Size    | 14 bytes |
| Instructions | 2        |

```
      00 01 02 03 04 05 06 07  08 09 0A 0B 0C 0D 0E 0F
      -- -- -- -- -- -- -- --  -- -- -- -- -- -- -- --
0060:                             53 F8 FF FF 7F F8 FF           S......
0070: FF 7F 74 68 6B 32 00                              ..thk2.         
```

#### Opcodes

```
  0: 0x0069 [0x53] WAIT_SCHEDULER_TASK: Wait for scheduler "thk2" with entities [EventEntity, EventEntity]
  1: 0x0076 [0x00] END_REQSTACK()
```

### Event 65535.7

#### Metadata

| Field        | Value    |
|--------------|----------|
| Entrypoint   | 0x0077   |
| Data Size    | 16 bytes |
| Instructions | 2        |

```
      00 01 02 03 04 05 06 07  08 09 0A 0B 0C 0D 0E 0F
      -- -- -- -- -- -- -- --  -- -- -- -- -- -- -- --
0070:                      66  01 80 F8 FF FF 7F F8 FF         f........
0080: FF 7F 73 68 6B 30 00                              ..shk0.         
```

#### Opcodes

```
  0: 0x0077 [0x66] LOAD_EXT_SCHEDULER_MAIN: Load scheduler "shk0" with entities [EventEntity, EventEntity], work=41*
  1: 0x0086 [0x00] END_REQSTACK()
```

### Event 65535.8

#### Metadata

| Field        | Value    |
|--------------|----------|
| Entrypoint   | 0x0087   |
| Data Size    | 14 bytes |
| Instructions | 2        |

```
      00 01 02 03 04 05 06 07  08 09 0A 0B 0C 0D 0E 0F
      -- -- -- -- -- -- -- --  -- -- -- -- -- -- -- --
0080:                      53  F8 FF FF 7F F8 FF FF 7F         S........
0090: 73 68 6B 30 00                                    shk0.           
```

#### Opcodes

```
  0: 0x0087 [0x53] WAIT_SCHEDULER_TASK: Wait for scheduler "shk0" with entities [EventEntity, EventEntity]
  1: 0x0094 [0x00] END_REQSTACK()
```

### Event 65535.9

#### Metadata

| Field        | Value    |
|--------------|----------|
| Entrypoint   | 0x0095   |
| Data Size    | 16 bytes |
| Instructions | 2        |

```
      00 01 02 03 04 05 06 07  08 09 0A 0B 0C 0D 0E 0F
      -- -- -- -- -- -- -- --  -- -- -- -- -- -- -- --
0090:                66 00 80  F8 FF FF 7F F8 FF FF 7F       f..........
00A0: 64 69 73 30 00                                    dis0.           
```

#### Opcodes

```
  0: 0x0095 [0x66] LOAD_EXT_SCHEDULER_MAIN: Load scheduler "dis0" with entities [EventEntity, EventEntity], work=40*
  1: 0x00A4 [0x00] END_REQSTACK()
```

### Event 65535.10

#### Metadata

| Field        | Value    |
|--------------|----------|
| Entrypoint   | 0x00A5   |
| Data Size    | 14 bytes |
| Instructions | 2        |

```
      00 01 02 03 04 05 06 07  08 09 0A 0B 0C 0D 0E 0F
      -- -- -- -- -- -- -- --  -- -- -- -- -- -- -- --
00A0:                53 F8 FF  FF 7F F8 FF FF 7F 64 69       S........di
00B0: 73 30 00                                          s0.             
```

#### Opcodes

```
  0: 0x00A5 [0x53] WAIT_SCHEDULER_TASK: Wait for scheduler "dis0" with entities [EventEntity, EventEntity]
  1: 0x00B2 [0x00] END_REQSTACK()
```

### Event 65535.11

#### Metadata

| Field        | Value    |
|--------------|----------|
| Entrypoint   | 0x00B3   |
| Data Size    | 16 bytes |
| Instructions | 2        |

```
      00 01 02 03 04 05 06 07  08 09 0A 0B 0C 0D 0E 0F
      -- -- -- -- -- -- -- --  -- -- -- -- -- -- -- --
00B0:          66 00 80 F8 FF  FF 7F F8 FF FF 7F 70 6F     f..........po
00C0: 69 30 00                                          i0.             
```

#### Opcodes

```
  0: 0x00B3 [0x66] LOAD_EXT_SCHEDULER_MAIN: Load scheduler "poi0" with entities [EventEntity, EventEntity], work=40*
  1: 0x00C2 [0x00] END_REQSTACK()
```

### Event 65535.12

#### Metadata

| Field        | Value    |
|--------------|----------|
| Entrypoint   | 0x00C3   |
| Data Size    | 14 bytes |
| Instructions | 2        |

```
      00 01 02 03 04 05 06 07  08 09 0A 0B 0C 0D 0E 0F
      -- -- -- -- -- -- -- --  -- -- -- -- -- -- -- --
00C0:          53 F8 FF FF 7F  F8 FF FF 7F 70 6F 69 30     S........poi0
00D0: 00                                                .               
```

#### Opcodes

```
  0: 0x00C3 [0x53] WAIT_SCHEDULER_TASK: Wait for scheduler "poi0" with entities [EventEntity, EventEntity]
  1: 0x00D0 [0x00] END_REQSTACK()
```

### Event 65535.13

#### Metadata

| Field        | Value    |
|--------------|----------|
| Entrypoint   | 0x00D1   |
| Data Size    | 16 bytes |
| Instructions | 2        |

```
      00 01 02 03 04 05 06 07  08 09 0A 0B 0C 0D 0E 0F
      -- -- -- -- -- -- -- --  -- -- -- -- -- -- -- --
00D0:    66 00 80 F8 FF FF 7F  F8 FF FF 7F 70 61 73 30   f..........pas0
00E0: 00                                                .               
```

#### Opcodes

```
  0: 0x00D1 [0x66] LOAD_EXT_SCHEDULER_MAIN: Load scheduler "pas0" with entities [EventEntity, EventEntity], work=40*
  1: 0x00E0 [0x00] END_REQSTACK()
```

### Event 65535.14

#### Metadata

| Field        | Value    |
|--------------|----------|
| Entrypoint   | 0x00E1   |
| Data Size    | 14 bytes |
| Instructions | 2        |

```
      00 01 02 03 04 05 06 07  08 09 0A 0B 0C 0D 0E 0F
      -- -- -- -- -- -- -- --  -- -- -- -- -- -- -- --
00E0:    53 F8 FF FF 7F F8 FF  FF 7F 70 61 73 30 00      S........pas0. 
```

#### Opcodes

```
  0: 0x00E1 [0x53] WAIT_SCHEDULER_TASK: Wait for scheduler "pas0" with entities [EventEntity, EventEntity]
  1: 0x00EE [0x00] END_REQSTACK()
```

### Event 65535.15

#### Metadata

| Field        | Value    |
|--------------|----------|
| Entrypoint   | 0x00EF   |
| Data Size    | 16 bytes |
| Instructions | 2        |

```
      00 01 02 03 04 05 06 07  08 09 0A 0B 0C 0D 0E 0F
      -- -- -- -- -- -- -- --  -- -- -- -- -- -- -- --
00E0:                                               66                 f
00F0: 00 80 F8 FF FF 7F F8 FF  FF 7F 73 79 75 30 00     ..........syu0. 
```

#### Opcodes

```
  0: 0x00EF [0x66] LOAD_EXT_SCHEDULER_MAIN: Load scheduler "syu0" with entities [EventEntity, EventEntity], work=40*
  1: 0x00FE [0x00] END_REQSTACK()
```

### Event 65535.16

#### Metadata

| Field        | Value    |
|--------------|----------|
| Entrypoint   | 0x00FF   |
| Data Size    | 14 bytes |
| Instructions | 2        |

```
      00 01 02 03 04 05 06 07  08 09 0A 0B 0C 0D 0E 0F
      -- -- -- -- -- -- -- --  -- -- -- -- -- -- -- --
00F0:                                               53                 S
0100: F8 FF FF 7F F8 FF FF 7F  73 79 75 30 00           ........syu0.   
```

#### Opcodes

```
  0: 0x00FF [0x53] WAIT_SCHEDULER_TASK: Wait for scheduler "syu0" with entities [EventEntity, EventEntity]
  1: 0x010C [0x00] END_REQSTACK()
```

### Event 65535.17

#### Metadata

| Field        | Value    |
|--------------|----------|
| Entrypoint   | 0x010D   |
| Data Size    | 16 bytes |
| Instructions | 2        |

```
      00 01 02 03 04 05 06 07  08 09 0A 0B 0C 0D 0E 0F
      -- -- -- -- -- -- -- --  -- -- -- -- -- -- -- --
0100:                                         66 00 80               f..
0110: F8 FF FF 7F F8 FF FF 7F  77 61 76 30 00           ........wav0.   
```

#### Opcodes

```
  0: 0x010D [0x66] LOAD_EXT_SCHEDULER_MAIN: Load scheduler "wav0" with entities [EventEntity, EventEntity], work=40*
  1: 0x011C [0x00] END_REQSTACK()
```

### Event 65535.18

#### Metadata

| Field        | Value    |
|--------------|----------|
| Entrypoint   | 0x011D   |
| Data Size    | 14 bytes |
| Instructions | 2        |

```
      00 01 02 03 04 05 06 07  08 09 0A 0B 0C 0D 0E 0F
      -- -- -- -- -- -- -- --  -- -- -- -- -- -- -- --
0110:                                         53 F8 FF               S..
0120: FF 7F F8 FF FF 7F 77 61  76 30 00                 ......wav0.     
```

#### Opcodes

```
  0: 0x011D [0x53] WAIT_SCHEDULER_TASK: Wait for scheduler "wav0" with entities [EventEntity, EventEntity]
  1: 0x012A [0x00] END_REQSTACK()
```

### Event 65535.19

#### Metadata

| Field        | Value    |
|--------------|----------|
| Entrypoint   | 0x012B   |
| Data Size    | 16 bytes |
| Instructions | 2        |

```
      00 01 02 03 04 05 06 07  08 09 0A 0B 0C 0D 0E 0F
      -- -- -- -- -- -- -- --  -- -- -- -- -- -- -- --
0120:                                   66 01 80 F8 FF             f....
0130: FF 7F F8 FF FF 7F 65 68  6E 30 00                 ......ehn0.     
```

#### Opcodes

```
  0: 0x012B [0x66] LOAD_EXT_SCHEDULER_MAIN: Load scheduler "ehn0" with entities [EventEntity, EventEntity], work=41*
  1: 0x013A [0x00] END_REQSTACK()
```

### Event 65535.20

#### Metadata

| Field        | Value    |
|--------------|----------|
| Entrypoint   | 0x013B   |
| Data Size    | 22 bytes |
| Instructions | 4        |

```
      00 01 02 03 04 05 06 07  08 09 0A 0B 0C 0D 0E 0F
      -- -- -- -- -- -- -- --  -- -- -- -- -- -- -- --
0130:                                   53 F8 FF FF 7F             S....
0140: F8 FF FF 7F 65 68 6E 30  5E 69 64 6C 30 1C 02 80  ....ehn0^idl0...
0150: 00                                                .               
```

#### Opcodes

```
  0: 0x013B [0x53] WAIT_SCHEDULER_TASK: Wait for scheduler "ehn0" with entities [EventEntity, EventEntity]
  1: 0x0148 [0x5E] EventEntity goes idle (kills current action) (animation: "idl0")
  2: 0x014D [0x1C] WAIT(60* ticks)
  3: 0x0150 [0x00] END_REQSTACK()
```

### Event 65535.21

#### Metadata

| Field        | Value    |
|--------------|----------|
| Entrypoint   | 0x0151   |
| Data Size    | 16 bytes |
| Instructions | 2        |

```
      00 01 02 03 04 05 06 07  08 09 0A 0B 0C 0D 0E 0F
      -- -- -- -- -- -- -- --  -- -- -- -- -- -- -- --
0150:    66 01 80 F8 FF FF 7F  F8 FF FF 7F 65 68 6E 31   f..........ehn1
0160: 00                                                .               
```

#### Opcodes

```
  0: 0x0151 [0x66] LOAD_EXT_SCHEDULER_MAIN: Load scheduler "ehn1" with entities [EventEntity, EventEntity], work=41*
  1: 0x0160 [0x00] END_REQSTACK()
```

### Event 65535.22

#### Metadata

| Field        | Value    |
|--------------|----------|
| Entrypoint   | 0x0161   |
| Data Size    | 14 bytes |
| Instructions | 2        |

```
      00 01 02 03 04 05 06 07  08 09 0A 0B 0C 0D 0E 0F
      -- -- -- -- -- -- -- --  -- -- -- -- -- -- -- --
0160:    53 F8 FF FF 7F F8 FF  FF 7F 65 68 6E 31 00      S........ehn1. 
```

#### Opcodes

```
  0: 0x0161 [0x53] WAIT_SCHEDULER_TASK: Wait for scheduler "ehn1" with entities [EventEntity, EventEntity]
  1: 0x016E [0x00] END_REQSTACK()
```

### Event 65535.23

#### Metadata

| Field        | Value    |
|--------------|----------|
| Entrypoint   | 0x016F   |
| Data Size    | 16 bytes |
| Instructions | 2        |

```
      00 01 02 03 04 05 06 07  08 09 0A 0B 0C 0D 0E 0F
      -- -- -- -- -- -- -- --  -- -- -- -- -- -- -- --
0160:                                               66                 f
0170: 03 80 F8 FF FF 7F F8 FF  FF 7F 6D 73 75 30 00     ..........msu0. 
```

#### Opcodes

```
  0: 0x016F [0x66] LOAD_EXT_SCHEDULER_MAIN: Load scheduler "msu0" with entities [EventEntity, EventEntity], work=42*
  1: 0x017E [0x00] END_REQSTACK()
```

### Event 65535.24

#### Metadata

| Field        | Value    |
|--------------|----------|
| Entrypoint   | 0x017F   |
| Data Size    | 14 bytes |
| Instructions | 2        |

```
      00 01 02 03 04 05 06 07  08 09 0A 0B 0C 0D 0E 0F
      -- -- -- -- -- -- -- --  -- -- -- -- -- -- -- --
0170:                                               53                 S
0180: F8 FF FF 7F F8 FF FF 7F  6D 73 75 30 00           ........msu0.   
```

#### Opcodes

```
  0: 0x017F [0x53] WAIT_SCHEDULER_TASK: Wait for scheduler "msu0" with entities [EventEntity, EventEntity]
  1: 0x018C [0x00] END_REQSTACK()
```

### Event 65535.25

#### Metadata

| Field        | Value    |
|--------------|----------|
| Entrypoint   | 0x018D   |
| Data Size    | 16 bytes |
| Instructions | 2        |

```
      00 01 02 03 04 05 06 07  08 09 0A 0B 0C 0D 0E 0F
      -- -- -- -- -- -- -- --  -- -- -- -- -- -- -- --
0180:                                         66 03 80               f..
0190: F8 FF FF 7F F8 FF FF 7F  6D 73 75 31 00           ........msu1.   
```

#### Opcodes

```
  0: 0x018D [0x66] LOAD_EXT_SCHEDULER_MAIN: Load scheduler "msu1" with entities [EventEntity, EventEntity], work=42*
  1: 0x019C [0x00] END_REQSTACK()
```

### Event 65535.26

#### Metadata

| Field        | Value    |
|--------------|----------|
| Entrypoint   | 0x019D   |
| Data Size    | 22 bytes |
| Instructions | 4        |

```
      00 01 02 03 04 05 06 07  08 09 0A 0B 0C 0D 0E 0F
      -- -- -- -- -- -- -- --  -- -- -- -- -- -- -- --
0190:                                         53 F8 FF               S..
01A0: FF 7F F8 FF FF 7F 6D 73  75 31 5E 69 64 6C 30 1C  ......msu1^idl0.
01B0: 02 80 00                                          ...             
```

#### Opcodes

```
  0: 0x019D [0x53] WAIT_SCHEDULER_TASK: Wait for scheduler "msu1" with entities [EventEntity, EventEntity]
  1: 0x01AA [0x5E] EventEntity goes idle (kills current action) (animation: "idl0")
  2: 0x01AF [0x1C] WAIT(60* ticks)
  3: 0x01B2 [0x00] END_REQSTACK()
```

### Event 65535.27

#### Metadata

| Field        | Value    |
|--------------|----------|
| Entrypoint   | 0x01B3   |
| Data Size    | 16 bytes |
| Instructions | 2        |

```
      00 01 02 03 04 05 06 07  08 09 0A 0B 0C 0D 0E 0F
      -- -- -- -- -- -- -- --  -- -- -- -- -- -- -- --
01B0:          66 01 80 F8 FF  FF 7F F8 FF FF 7F 67 68     f..........gh
01C0: 6E 31 00                                          n1.             
```

#### Opcodes

```
  0: 0x01B3 [0x66] LOAD_EXT_SCHEDULER_MAIN: Load scheduler "ghn1" with entities [EventEntity, EventEntity], work=41*
  1: 0x01C2 [0x00] END_REQSTACK()
```

### Event 65535.28

#### Metadata

| Field        | Value    |
|--------------|----------|
| Entrypoint   | 0x01C3   |
| Data Size    | 14 bytes |
| Instructions | 2        |

```
      00 01 02 03 04 05 06 07  08 09 0A 0B 0C 0D 0E 0F
      -- -- -- -- -- -- -- --  -- -- -- -- -- -- -- --
01C0:          53 F8 FF FF 7F  F8 FF FF 7F 67 68 6E 31     S........ghn1
01D0: 00                                                .               
```

#### Opcodes

```
  0: 0x01C3 [0x53] WAIT_SCHEDULER_TASK: Wait for scheduler "ghn1" with entities [EventEntity, EventEntity]
  1: 0x01D0 [0x00] END_REQSTACK()
```

### Event 65535.29

#### Metadata

| Field        | Value    |
|--------------|----------|
| Entrypoint   | 0x01D1   |
| Data Size    | 16 bytes |
| Instructions | 2        |

```
      00 01 02 03 04 05 06 07  08 09 0A 0B 0C 0D 0E 0F
      -- -- -- -- -- -- -- --  -- -- -- -- -- -- -- --
01D0:    66 00 80 F8 FF FF 7F  F8 FF FF 7F 69 72 6F 30   f..........iro0
01E0: 00                                                .               
```

#### Opcodes

```
  0: 0x01D1 [0x66] LOAD_EXT_SCHEDULER_MAIN: Load scheduler "iro0" with entities [EventEntity, EventEntity], work=40*
  1: 0x01E0 [0x00] END_REQSTACK()
```

### Event 65535.30

#### Metadata

| Field        | Value    |
|--------------|----------|
| Entrypoint   | 0x01E1   |
| Data Size    | 14 bytes |
| Instructions | 2        |

```
      00 01 02 03 04 05 06 07  08 09 0A 0B 0C 0D 0E 0F
      -- -- -- -- -- -- -- --  -- -- -- -- -- -- -- --
01E0:    53 F8 FF FF 7F F8 FF  FF 7F 69 72 6F 30 00      S........iro0. 
```

#### Opcodes

```
  0: 0x01E1 [0x53] WAIT_SCHEDULER_TASK: Wait for scheduler "iro0" with entities [EventEntity, EventEntity]
  1: 0x01EE [0x00] END_REQSTACK()
```

### Event 65535.31

#### Metadata

| Field        | Value    |
|--------------|----------|
| Entrypoint   | 0x01EF   |
| Data Size    | 16 bytes |
| Instructions | 2        |

```
      00 01 02 03 04 05 06 07  08 09 0A 0B 0C 0D 0E 0F
      -- -- -- -- -- -- -- --  -- -- -- -- -- -- -- --
01E0:                                               66                 f
01F0: 00 80 F8 FF FF 7F F8 FF  FF 7F 77 61 69 30 00     ..........wai0. 
```

#### Opcodes

```
  0: 0x01EF [0x66] LOAD_EXT_SCHEDULER_MAIN: Load scheduler "wai0" with entities [EventEntity, EventEntity], work=40*
  1: 0x01FE [0x00] END_REQSTACK()
```

### Event 65535.32

#### Metadata

| Field        | Value    |
|--------------|----------|
| Entrypoint   | 0x01FF   |
| Data Size    | 14 bytes |
| Instructions | 2        |

```
      00 01 02 03 04 05 06 07  08 09 0A 0B 0C 0D 0E 0F
      -- -- -- -- -- -- -- --  -- -- -- -- -- -- -- --
01F0:                                               53                 S
0200: F8 FF FF 7F F8 FF FF 7F  77 61 69 30 00           ........wai0.   
```

#### Opcodes

```
  0: 0x01FF [0x53] WAIT_SCHEDULER_TASK: Wait for scheduler "wai0" with entities [EventEntity, EventEntity]
  1: 0x020C [0x00] END_REQSTACK()
```

### Event 65535.33

#### Metadata

| Field        | Value    |
|--------------|----------|
| Entrypoint   | 0x020D   |
| Data Size    | 16 bytes |
| Instructions | 2        |

```
      00 01 02 03 04 05 06 07  08 09 0A 0B 0C 0D 0E 0F
      -- -- -- -- -- -- -- --  -- -- -- -- -- -- -- --
0200:                                         66 03 80               f..
0210: F8 FF FF 7F F8 FF FF 7F  62 69 6B 30 00           ........bik0.   
```

#### Opcodes

```
  0: 0x020D [0x66] LOAD_EXT_SCHEDULER_MAIN: Load scheduler "bik0" with entities [EventEntity, EventEntity], work=42*
  1: 0x021C [0x00] END_REQSTACK()
```

### Event 65535.34

#### Metadata

| Field        | Value    |
|--------------|----------|
| Entrypoint   | 0x021D   |
| Data Size    | 14 bytes |
| Instructions | 2        |

```
      00 01 02 03 04 05 06 07  08 09 0A 0B 0C 0D 0E 0F
      -- -- -- -- -- -- -- --  -- -- -- -- -- -- -- --
0210:                                         53 F8 FF               S..
0220: FF 7F F8 FF FF 7F 62 69  6B 30 00                 ......bik0.     
```

#### Opcodes

```
  0: 0x021D [0x53] WAIT_SCHEDULER_TASK: Wait for scheduler "bik0" with entities [EventEntity, EventEntity]
  1: 0x022A [0x00] END_REQSTACK()
```

### Event 65535.35

#### Metadata

| Field        | Value    |
|--------------|----------|
| Entrypoint   | 0x022B   |
| Data Size    | 16 bytes |
| Instructions | 2        |

```
      00 01 02 03 04 05 06 07  08 09 0A 0B 0C 0D 0E 0F
      -- -- -- -- -- -- -- --  -- -- -- -- -- -- -- --
0220:                                   66 03 80 F8 FF             f....
0230: FF 7F F8 FF FF 7F 62 69  6B 31 00                 ......bik1.     
```

#### Opcodes

```
  0: 0x022B [0x66] LOAD_EXT_SCHEDULER_MAIN: Load scheduler "bik1" with entities [EventEntity, EventEntity], work=42*
  1: 0x023A [0x00] END_REQSTACK()
```

### Event 65535.36

#### Metadata

| Field        | Value    |
|--------------|----------|
| Entrypoint   | 0x023B   |
| Data Size    | 14 bytes |
| Instructions | 2        |

```
      00 01 02 03 04 05 06 07  08 09 0A 0B 0C 0D 0E 0F
      -- -- -- -- -- -- -- --  -- -- -- -- -- -- -- --
0230:                                   53 F8 FF FF 7F             S....
0240: F8 FF FF 7F 62 69 6B 31  00                       ....bik1.       
```

#### Opcodes

```
  0: 0x023B [0x53] WAIT_SCHEDULER_TASK: Wait for scheduler "bik1" with entities [EventEntity, EventEntity]
  1: 0x0248 [0x00] END_REQSTACK()
```

### Event 65535.37

#### Metadata

| Field        | Value    |
|--------------|----------|
| Entrypoint   | 0x0249   |
| Data Size    | 16 bytes |
| Instructions | 2        |

```
      00 01 02 03 04 05 06 07  08 09 0A 0B 0C 0D 0E 0F
      -- -- -- -- -- -- -- --  -- -- -- -- -- -- -- --
0240:                             66 00 80 F8 FF FF 7F           f......
0250: F8 FF FF 7F 67 6B 72 30  00                       ....gkr0.       
```

#### Opcodes

```
  0: 0x0249 [0x66] LOAD_EXT_SCHEDULER_MAIN: Load scheduler "gkr0" with entities [EventEntity, EventEntity], work=40*
  1: 0x0258 [0x00] END_REQSTACK()
```

### Event 65535.38

#### Metadata

| Field        | Value    |
|--------------|----------|
| Entrypoint   | 0x0259   |
| Data Size    | 14 bytes |
| Instructions | 2        |

```
      00 01 02 03 04 05 06 07  08 09 0A 0B 0C 0D 0E 0F
      -- -- -- -- -- -- -- --  -- -- -- -- -- -- -- --
0250:                             53 F8 FF FF 7F F8 FF           S......
0260: FF 7F 67 6B 72 30 00                              ..gkr0.         
```

#### Opcodes

```
  0: 0x0259 [0x53] WAIT_SCHEDULER_TASK: Wait for scheduler "gkr0" with entities [EventEntity, EventEntity]
  1: 0x0266 [0x00] END_REQSTACK()
```

### Event 65535.39

#### Metadata

| Field        | Value    |
|--------------|----------|
| Entrypoint   | 0x0267   |
| Data Size    | 16 bytes |
| Instructions | 2        |

```
      00 01 02 03 04 05 06 07  08 09 0A 0B 0C 0D 0E 0F
      -- -- -- -- -- -- -- --  -- -- -- -- -- -- -- --
0260:                      66  00 80 F8 FF FF 7F F8 FF         f........
0270: FF 7F 67 6B 72 31 00                              ..gkr1.         
```

#### Opcodes

```
  0: 0x0267 [0x66] LOAD_EXT_SCHEDULER_MAIN: Load scheduler "gkr1" with entities [EventEntity, EventEntity], work=40*
  1: 0x0276 [0x00] END_REQSTACK()
```

### Event 65535.40

#### Metadata

| Field        | Value    |
|--------------|----------|
| Entrypoint   | 0x0277   |
| Data Size    | 14 bytes |
| Instructions | 2        |

```
      00 01 02 03 04 05 06 07  08 09 0A 0B 0C 0D 0E 0F
      -- -- -- -- -- -- -- --  -- -- -- -- -- -- -- --
0270:                      53  F8 FF FF 7F F8 FF FF 7F         S........
0280: 67 6B 72 31 00                                    gkr1.           
```

#### Opcodes

```
  0: 0x0277 [0x53] WAIT_SCHEDULER_TASK: Wait for scheduler "gkr1" with entities [EventEntity, EventEntity]
  1: 0x0284 [0x00] END_REQSTACK()
```

### Event 65535.41

#### Metadata

| Field        | Value    |
|--------------|----------|
| Entrypoint   | 0x0285   |
| Data Size    | 16 bytes |
| Instructions | 2        |

```
      00 01 02 03 04 05 06 07  08 09 0A 0B 0C 0D 0E 0F
      -- -- -- -- -- -- -- --  -- -- -- -- -- -- -- --
0280:                66 01 80  F8 FF FF 7F F8 FF FF 7F       f..........
0290: 6F 68 68 30 00                                    ohh0.           
```

#### Opcodes

```
  0: 0x0285 [0x66] LOAD_EXT_SCHEDULER_MAIN: Load scheduler "ohh0" with entities [EventEntity, EventEntity], work=41*
  1: 0x0294 [0x00] END_REQSTACK()
```

### Event 65535.42

#### Metadata

| Field        | Value    |
|--------------|----------|
| Entrypoint   | 0x0295   |
| Data Size    | 22 bytes |
| Instructions | 4        |

```
      00 01 02 03 04 05 06 07  08 09 0A 0B 0C 0D 0E 0F
      -- -- -- -- -- -- -- --  -- -- -- -- -- -- -- --
0290:                53 F8 FF  FF 7F F8 FF FF 7F 6F 68       S........oh
02A0: 68 30 5E 69 64 6C 30 1C  02 80 00                 h0^idl0....     
```

#### Opcodes

```
  0: 0x0295 [0x53] WAIT_SCHEDULER_TASK: Wait for scheduler "ohh0" with entities [EventEntity, EventEntity]
  1: 0x02A2 [0x5E] EventEntity goes idle (kills current action) (animation: "idl0")
  2: 0x02A7 [0x1C] WAIT(60* ticks)
  3: 0x02AA [0x00] END_REQSTACK()
```

### Event 65535.43

#### Metadata

| Field        | Value    |
|--------------|----------|
| Entrypoint   | 0x02AB   |
| Data Size    | 44 bytes |
| Instructions | 4        |

```
      00 01 02 03 04 05 06 07  08 09 0A 0B 0C 0D 0E 0F
      -- -- -- -- -- -- -- --  -- -- -- -- -- -- -- --
02A0:                                   66 01 80 F8 FF             f....
02B0: FF 7F F8 FF FF 7F 73 68  6B 30 53 F8 FF FF 7F F8  ......shk0S.....
02C0: FF FF 7F 73 68 6B 30 66  00 80 F8 FF FF 7F F8 FF  ...shk0f........
02D0: FF 7F 7A 69 74 30 00                              ..zit0.         
```

#### Opcodes

```
  0: 0x02AB [0x66] LOAD_EXT_SCHEDULER_MAIN: Load scheduler "shk0" with entities [EventEntity, EventEntity], work=41*
  1: 0x02BA [0x53] WAIT_SCHEDULER_TASK: Wait for scheduler "shk0" with entities [EventEntity, EventEntity]
  2: 0x02C7 [0x66] LOAD_EXT_SCHEDULER_MAIN: Load scheduler "zit0" with entities [EventEntity, EventEntity], work=40*
  3: 0x02D6 [0x00] END_REQSTACK()
```

### Event 65535.44

#### Metadata

| Field        | Value    |
|--------------|----------|
| Entrypoint   | 0x02D7   |
| Data Size    | 16 bytes |
| Instructions | 2        |

```
      00 01 02 03 04 05 06 07  08 09 0A 0B 0C 0D 0E 0F
      -- -- -- -- -- -- -- --  -- -- -- -- -- -- -- --
02D0:                      66  00 80 F8 FF FF 7F F8 FF         f........
02E0: FF 7F 7A 69 74 30 00                              ..zit0.         
```

#### Opcodes

```
  0: 0x02D7 [0x66] LOAD_EXT_SCHEDULER_MAIN: Load scheduler "zit0" with entities [EventEntity, EventEntity], work=40*
  1: 0x02E6 [0x00] END_REQSTACK()
```

### Event 65535.45

#### Metadata

| Field        | Value    |
|--------------|----------|
| Entrypoint   | 0x02E7   |
| Data Size    | 14 bytes |
| Instructions | 2        |

```
      00 01 02 03 04 05 06 07  08 09 0A 0B 0C 0D 0E 0F
      -- -- -- -- -- -- -- --  -- -- -- -- -- -- -- --
02E0:                      53  F8 FF FF 7F F8 FF FF 7F         S........
02F0: 7A 69 74 30 00                                    zit0.           
```

#### Opcodes

```
  0: 0x02E7 [0x53] WAIT_SCHEDULER_TASK: Wait for scheduler "zit0" with entities [EventEntity, EventEntity]
  1: 0x02F4 [0x00] END_REQSTACK()
```

### Event 65535.46

#### Metadata

| Field        | Value    |
|--------------|----------|
| Entrypoint   | 0x02F5   |
| Data Size    | 18 bytes |
| Instructions | 4        |

```
      00 01 02 03 04 05 06 07  08 09 0A 0B 0C 0D 0E 0F
      -- -- -- -- -- -- -- --  -- -- -- -- -- -- -- --
02F0:                6E F8 FF  FF 7F 04 80 99 F8 FF FF       n..........
0300: 7F 99 F8 FF FF 7F 00                              .......         
```

#### Opcodes

```
  0: 0x02F5 [0x6E] EventEntity uses emote 1*
  1: 0x02FC [0x99] Wait for EventEntity animation to complete
  2: 0x0301 [0x99] Wait for EventEntity animation to complete
  3: 0x0306 [0x00] END_REQSTACK()
```

### Event 65535.47

#### Metadata

| Field        | Value    |
|--------------|----------|
| Entrypoint   | 0x0307   |
| Data Size    | 18 bytes |
| Instructions | 4        |

```
      00 01 02 03 04 05 06 07  08 09 0A 0B 0C 0D 0E 0F
      -- -- -- -- -- -- -- --  -- -- -- -- -- -- -- --
0300:                      6E  F8 FF FF 7F 05 80 99 F8         n........
0310: FF FF 7F 99 F8 FF FF 7F  00                       .........       
```

#### Opcodes

```
  0: 0x0307 [0x6E] EventEntity uses emote 7*
  1: 0x030E [0x99] Wait for EventEntity animation to complete
  2: 0x0313 [0x99] Wait for EventEntity animation to complete
  3: 0x0318 [0x00] END_REQSTACK()
```

### Event 65535.48

#### Metadata

| Field        | Value    |
|--------------|----------|
| Entrypoint   | 0x0319   |
| Data Size    | 18 bytes |
| Instructions | 4        |

```
      00 01 02 03 04 05 06 07  08 09 0A 0B 0C 0D 0E 0F
      -- -- -- -- -- -- -- --  -- -- -- -- -- -- -- --
0310:                             6E F8 FF FF 7F 06 80           n......
0320: 99 F8 FF FF 7F 99 F8 FF  FF 7F 00                 ...........     
```

#### Opcodes

```
  0: 0x0319 [0x6E] EventEntity uses emote 6*
  1: 0x0320 [0x99] Wait for EventEntity animation to complete
  2: 0x0325 [0x99] Wait for EventEntity animation to complete
  3: 0x032A [0x00] END_REQSTACK()
```

### Event 65535.49

#### Metadata

| Field        | Value    |
|--------------|----------|
| Entrypoint   | 0x032B   |
| Data Size    | 18 bytes |
| Instructions | 4        |

```
      00 01 02 03 04 05 06 07  08 09 0A 0B 0C 0D 0E 0F
      -- -- -- -- -- -- -- --  -- -- -- -- -- -- -- --
0320:                                   6E F8 FF FF 7F             n....
0330: 07 80 99 F8 FF FF 7F 99  F8 FF FF 7F 00           .............   
```

#### Opcodes

```
  0: 0x032B [0x6E] EventEntity uses emote 8*
  1: 0x0332 [0x99] Wait for EventEntity animation to complete
  2: 0x0337 [0x99] Wait for EventEntity animation to complete
  3: 0x033C [0x00] END_REQSTACK()
```

### Event 65535.50

#### Metadata

| Field        | Value    |
|--------------|----------|
| Entrypoint   | 0x033D   |
| Data Size    | 18 bytes |
| Instructions | 4        |

```
      00 01 02 03 04 05 06 07  08 09 0A 0B 0C 0D 0E 0F
      -- -- -- -- -- -- -- --  -- -- -- -- -- -- -- --
0330:                                         6E F8 FF               n..
0340: FF 7F 08 80 99 F8 FF FF  7F 99 F8 FF FF 7F 00     ............... 
```

#### Opcodes

```
  0: 0x033D [0x6E] EventEntity uses emote 13*
  1: 0x0344 [0x99] Wait for EventEntity animation to complete
  2: 0x0349 [0x99] Wait for EventEntity animation to complete
  3: 0x034E [0x00] END_REQSTACK()
```

### Event 65535.51

#### Metadata

| Field        | Value    |
|--------------|----------|
| Entrypoint   | 0x034F   |
| Data Size    | 27 bytes |
| Instructions | 3        |

```
      00 01 02 03 04 05 06 07  08 09 0A 0B 0C 0D 0E 0F
      -- -- -- -- -- -- -- --  -- -- -- -- -- -- -- --
0340:                                               2C                 ,
0350: F8 FF FF 7F F8 FF FF 7F  64 65 61 64 53 F8 FF FF  ........deadS...
0360: 7F F8 FF FF 7F 64 65 61  64 00                    .....dead.      
```

#### Opcodes

```
  0: 0x034F [0x2C] CREATE_SCHEDULER_TASK: Create scheduler "dead" with entities [EventEntity, EventEntity]
  1: 0x035C [0x53] WAIT_SCHEDULER_TASK: Wait for scheduler "dead" with entities [EventEntity, EventEntity]
  2: 0x0369 [0x00] END_REQSTACK()
```

### Event 65535.52

#### Metadata

| Field        | Value   |
|--------------|---------|
| Entrypoint   | 0x036A  |
| Data Size    | 9 bytes |
| Instructions | 3       |

```
      00 01 02 03 04 05 06 07  08 09 0A 0B 0C 0D 0E 0F
      -- -- -- -- -- -- -- --  -- -- -- -- -- -- -- --
0360:                                5E 69 64 6C 30 1C            ^idl0.
0370: 02 80 00                                          ...             
```

#### Opcodes

```
  0: 0x036A [0x5E] EventEntity goes idle (kills current action) (animation: "idl0")
  1: 0x036F [0x1C] WAIT(60* ticks)
  2: 0x0372 [0x00] END_REQSTACK()
```

### Event 65535.53

#### Metadata

| Field        | Value    |
|--------------|----------|
| Entrypoint   | 0x0373   |
| Data Size    | 16 bytes |
| Instructions | 2        |

```
      00 01 02 03 04 05 06 07  08 09 0A 0B 0C 0D 0E 0F
      -- -- -- -- -- -- -- --  -- -- -- -- -- -- -- --
0370:          66 01 80 F8 FF  FF 7F F8 FF FF 7F 63 61     f..........ca
0380: 62 6B 00                                          bk.             
```

#### Opcodes

```
  0: 0x0373 [0x66] LOAD_EXT_SCHEDULER_MAIN: Load scheduler "cabk" with entities [EventEntity, EventEntity], work=41*
  1: 0x0382 [0x00] END_REQSTACK()
```

### Event 65535.54

#### Metadata

| Field        | Value    |
|--------------|----------|
| Entrypoint   | 0x0383   |
| Data Size    | 14 bytes |
| Instructions | 2        |

```
      00 01 02 03 04 05 06 07  08 09 0A 0B 0C 0D 0E 0F
      -- -- -- -- -- -- -- --  -- -- -- -- -- -- -- --
0380:          53 F8 FF FF 7F  F8 FF FF 7F 63 61 62 6B     S........cabk
0390: 00                                                .               
```

#### Opcodes

```
  0: 0x0383 [0x53] WAIT_SCHEDULER_TASK: Wait for scheduler "cabk" with entities [EventEntity, EventEntity]
  1: 0x0390 [0x00] END_REQSTACK()
```

### Event 65535.55

#### Metadata

| Field        | Value    |
|--------------|----------|
| Entrypoint   | 0x0391   |
| Data Size    | 16 bytes |
| Instructions | 2        |

```
      00 01 02 03 04 05 06 07  08 09 0A 0B 0C 0D 0E 0F
      -- -- -- -- -- -- -- --  -- -- -- -- -- -- -- --
0390:    66 09 80 F8 FF FF 7F  F8 FF FF 7F 73 70 65 66   f..........spef
03A0: 00                                                .               
```

#### Opcodes

```
  0: 0x0391 [0x66] LOAD_EXT_SCHEDULER_MAIN: Load scheduler "spef" with entities [EventEntity, EventEntity], work=43*
  1: 0x03A0 [0x00] END_REQSTACK()
```

### Event 65535.56

#### Metadata

| Field        | Value    |
|--------------|----------|
| Entrypoint   | 0x03A1   |
| Data Size    | 14 bytes |
| Instructions | 2        |

```
      00 01 02 03 04 05 06 07  08 09 0A 0B 0C 0D 0E 0F
      -- -- -- -- -- -- -- --  -- -- -- -- -- -- -- --
03A0:    53 F8 FF FF 7F F8 FF  FF 7F 73 70 65 66 00      S........spef. 
```

#### Opcodes

```
  0: 0x03A1 [0x53] WAIT_SCHEDULER_TASK: Wait for scheduler "spef" with entities [EventEntity, EventEntity]
  1: 0x03AE [0x00] END_REQSTACK()
```

### Event 65535.57

#### Metadata

| Field        | Value    |
|--------------|----------|
| Entrypoint   | 0x03AF   |
| Data Size    | 16 bytes |
| Instructions | 2        |

```
      00 01 02 03 04 05 06 07  08 09 0A 0B 0C 0D 0E 0F
      -- -- -- -- -- -- -- --  -- -- -- -- -- -- -- --
03A0:                                               5B                 [
03B0: 0A 80 F8 FF FF 7F F8 FF  FF 7F 6F 6B 69 72 00     ..........okir. 
```

#### Opcodes

```
  0: 0x03AF [0x5B] LOAD_EXT_SCHEDULER: Load scheduler "okir" with entities [EventEntity, EventEntity], work=430*
  1: 0x03BE [0x00] END_REQSTACK()
```

### Event 65535.58

#### Metadata

| Field        | Value    |
|--------------|----------|
| Entrypoint   | 0x03BF   |
| Data Size    | 14 bytes |
| Instructions | 2        |

```
      00 01 02 03 04 05 06 07  08 09 0A 0B 0C 0D 0E 0F
      -- -- -- -- -- -- -- --  -- -- -- -- -- -- -- --
03B0:                                               53                 S
03C0: F8 FF FF 7F F8 FF FF 7F  6F 6B 69 72 00           ........okir.   
```

#### Opcodes

```
  0: 0x03BF [0x53] WAIT_SCHEDULER_TASK: Wait for scheduler "okir" with entities [EventEntity, EventEntity]
  1: 0x03CC [0x00] END_REQSTACK()
```

### Event 65535.59

#### Metadata

| Field        | Value    |
|--------------|----------|
| Entrypoint   | 0x03CD   |
| Data Size    | 16 bytes |
| Instructions | 2        |

```
      00 01 02 03 04 05 06 07  08 09 0A 0B 0C 0D 0E 0F
      -- -- -- -- -- -- -- --  -- -- -- -- -- -- -- --
03C0:                                         5B 0B 80               [..
03D0: F8 FF FF 7F F8 FF FF 7F  75 73 69 30 00           ........usi0.   
```

#### Opcodes

```
  0: 0x03CD [0x5B] LOAD_EXT_SCHEDULER: Load scheduler "usi0" with entities [EventEntity, EventEntity], work=431*
  1: 0x03DC [0x00] END_REQSTACK()
```

### Event 65535.60

#### Metadata

| Field        | Value    |
|--------------|----------|
| Entrypoint   | 0x03DD   |
| Data Size    | 14 bytes |
| Instructions | 2        |

```
      00 01 02 03 04 05 06 07  08 09 0A 0B 0C 0D 0E 0F
      -- -- -- -- -- -- -- --  -- -- -- -- -- -- -- --
03D0:                                         53 F8 FF               S..
03E0: FF 7F F8 FF FF 7F 75 73  69 30 00                 ......usi0.     
```

#### Opcodes

```
  0: 0x03DD [0x53] WAIT_SCHEDULER_TASK: Wait for scheduler "usi0" with entities [EventEntity, EventEntity]
  1: 0x03EA [0x00] END_REQSTACK()
```

### Event 65535.61

#### Metadata

| Field        | Value    |
|--------------|----------|
| Entrypoint   | 0x03EB   |
| Data Size    | 16 bytes |
| Instructions | 2        |

```
      00 01 02 03 04 05 06 07  08 09 0A 0B 0C 0D 0E 0F
      -- -- -- -- -- -- -- --  -- -- -- -- -- -- -- --
03E0:                                   5B 0B 80 F8 FF             [....
03F0: FF 7F F8 FF FF 7F 75 73  69 31 00                 ......usi1.     
```

#### Opcodes

```
  0: 0x03EB [0x5B] LOAD_EXT_SCHEDULER: Load scheduler "usi1" with entities [EventEntity, EventEntity], work=431*
  1: 0x03FA [0x00] END_REQSTACK()
```

### Event 65535.62

#### Metadata

| Field        | Value    |
|--------------|----------|
| Entrypoint   | 0x03FB   |
| Data Size    | 14 bytes |
| Instructions | 2        |

```
      00 01 02 03 04 05 06 07  08 09 0A 0B 0C 0D 0E 0F
      -- -- -- -- -- -- -- --  -- -- -- -- -- -- -- --
03F0:                                   53 F8 FF FF 7F             S....
0400: F8 FF FF 7F 75 73 69 31  00                       ....usi1.       
```

#### Opcodes

```
  0: 0x03FB [0x53] WAIT_SCHEDULER_TASK: Wait for scheduler "usi1" with entities [EventEntity, EventEntity]
  1: 0x0408 [0x00] END_REQSTACK()
```

### Event 65535.63

#### Metadata

| Field        | Value    |
|--------------|----------|
| Entrypoint   | 0x0409   |
| Data Size    | 16 bytes |
| Instructions | 2        |

```
      00 01 02 03 04 05 06 07  08 09 0A 0B 0C 0D 0E 0F
      -- -- -- -- -- -- -- --  -- -- -- -- -- -- -- --
0400:                             66 03 80 F8 FF FF 7F           f......
0410: F8 FF FF 7F 74 65 68 30  00                       ....teh0.       
```

#### Opcodes

```
  0: 0x0409 [0x66] LOAD_EXT_SCHEDULER_MAIN: Load scheduler "teh0" with entities [EventEntity, EventEntity], work=42*
  1: 0x0418 [0x00] END_REQSTACK()
```

### Event 65535.64

#### Metadata

| Field        | Value    |
|--------------|----------|
| Entrypoint   | 0x0419   |
| Data Size    | 14 bytes |
| Instructions | 2        |

```
      00 01 02 03 04 05 06 07  08 09 0A 0B 0C 0D 0E 0F
      -- -- -- -- -- -- -- --  -- -- -- -- -- -- -- --
0410:                             53 F8 FF FF 7F F8 FF           S......
0420: FF 7F 74 65 68 30 00                              ..teh0.         
```

#### Opcodes

```
  0: 0x0419 [0x53] WAIT_SCHEDULER_TASK: Wait for scheduler "teh0" with entities [EventEntity, EventEntity]
  1: 0x0426 [0x00] END_REQSTACK()
```

### Event 65535.65

#### Metadata

| Field        | Value    |
|--------------|----------|
| Entrypoint   | 0x0427   |
| Data Size    | 16 bytes |
| Instructions | 2        |

```
      00 01 02 03 04 05 06 07  08 09 0A 0B 0C 0D 0E 0F
      -- -- -- -- -- -- -- --  -- -- -- -- -- -- -- --
0420:                      66  03 80 F8 FF FF 7F F8 FF         f........
0430: FF 7F 74 65 68 31 00                              ..teh1.         
```

#### Opcodes

```
  0: 0x0427 [0x66] LOAD_EXT_SCHEDULER_MAIN: Load scheduler "teh1" with entities [EventEntity, EventEntity], work=42*
  1: 0x0436 [0x00] END_REQSTACK()
```

### Event 65535.66

#### Metadata

| Field        | Value    |
|--------------|----------|
| Entrypoint   | 0x0437   |
| Data Size    | 14 bytes |
| Instructions | 2        |

```
      00 01 02 03 04 05 06 07  08 09 0A 0B 0C 0D 0E 0F
      -- -- -- -- -- -- -- --  -- -- -- -- -- -- -- --
0430:                      53  F8 FF FF 7F F8 FF FF 7F         S........
0440: 74 65 68 31 00                                    teh1.           
```

#### Opcodes

```
  0: 0x0437 [0x53] WAIT_SCHEDULER_TASK: Wait for scheduler "teh1" with entities [EventEntity, EventEntity]
  1: 0x0444 [0x00] END_REQSTACK()
```

### Event 65535.67

#### Metadata

| Field        | Value    |
|--------------|----------|
| Entrypoint   | 0x0445   |
| Data Size    | 16 bytes |
| Instructions | 2        |

```
      00 01 02 03 04 05 06 07  08 09 0A 0B 0C 0D 0E 0F
      -- -- -- -- -- -- -- --  -- -- -- -- -- -- -- --
0440:                66 0C 80  F8 FF FF 7F F8 FF FF 7F       f..........
0450: 6D 64 71 30 00                                    mdq0.           
```

#### Opcodes

```
  0: 0x0445 [0x66] LOAD_EXT_SCHEDULER_MAIN: Load scheduler "mdq0" with entities [EventEntity, EventEntity], work=46*
  1: 0x0454 [0x00] END_REQSTACK()
```

### Event 65535.68

#### Metadata

| Field        | Value    |
|--------------|----------|
| Entrypoint   | 0x0455   |
| Data Size    | 14 bytes |
| Instructions | 2        |

```
      00 01 02 03 04 05 06 07  08 09 0A 0B 0C 0D 0E 0F
      -- -- -- -- -- -- -- --  -- -- -- -- -- -- -- --
0450:                53 F8 FF  FF 7F F8 FF FF 7F 6D 64       S........md
0460: 71 30 00                                          q0.             
```

#### Opcodes

```
  0: 0x0455 [0x53] WAIT_SCHEDULER_TASK: Wait for scheduler "mdq0" with entities [EventEntity, EventEntity]
  1: 0x0462 [0x00] END_REQSTACK()
```

### Event 65535.69

#### Metadata

| Field        | Value    |
|--------------|----------|
| Entrypoint   | 0x0463   |
| Data Size    | 16 bytes |
| Instructions | 2        |

```
      00 01 02 03 04 05 06 07  08 09 0A 0B 0C 0D 0E 0F
      -- -- -- -- -- -- -- --  -- -- -- -- -- -- -- --
0460:          66 0C 80 F8 FF  FF 7F F8 FF FF 7F 6D 64     f..........md
0470: 71 33 00                                          q3.             
```

#### Opcodes

```
  0: 0x0463 [0x66] LOAD_EXT_SCHEDULER_MAIN: Load scheduler "mdq3" with entities [EventEntity, EventEntity], work=46*
  1: 0x0472 [0x00] END_REQSTACK()
```

### Event 65535.70

#### Metadata

| Field        | Value    |
|--------------|----------|
| Entrypoint   | 0x0473   |
| Data Size    | 14 bytes |
| Instructions | 2        |

```
      00 01 02 03 04 05 06 07  08 09 0A 0B 0C 0D 0E 0F
      -- -- -- -- -- -- -- --  -- -- -- -- -- -- -- --
0470:          53 F8 FF FF 7F  F8 FF FF 7F 6D 64 71 33     S........mdq3
0480: 00                                                .               
```

#### Opcodes

```
  0: 0x0473 [0x53] WAIT_SCHEDULER_TASK: Wait for scheduler "mdq3" with entities [EventEntity, EventEntity]
  1: 0x0480 [0x00] END_REQSTACK()
```

### Event 443

#### Metadata

| Field        | Value    |
|--------------|----------|
| Entrypoint   | 0x0481   |
| Data Size    | 16 bytes |
| Instructions | 3        |

```
      00 01 02 03 04 05 06 07  08 09 0A 0B 0C 0D 0E 0F
      -- -- -- -- -- -- -- --  -- -- -- -- -- -- -- --
0480:    92 01 F8 FF FF 7F 37  0D 80 0E 80 0F 80 10 80   ......7........
0490: 00                                                .               
```

#### Opcodes

```
  0: 0x0481 [0x92] EventEntity->Render.Flags3 ^= 0x01
  1: 0x0487 [0x37] UPDATE_EVENT_POSITION_AND_DIR: x=-82.481*, z=124.198*, y=-5.576*, direction=176.1*
  2: 0x0490 [0x00] END_REQSTACK()
```

### Event 245

#### Metadata

| Field        | Value    |
|--------------|----------|
| Entrypoint   | 0x0491   |
| Data Size    | 33 bytes |
| Instructions | 12       |

```
      00 01 02 03 04 05 06 07  08 09 0A 0B 0C 0D 0E 0F
      -- -- -- -- -- -- -- --  -- -- -- -- -- -- -- --
0490:    1E F0 FF FF 7F 6F 70  29 08 1C F0 0E 01 01 1D   .....op).......
04A0: 11 80 23 1D 12 80 23 29  08 1C F0 0E 01 02 20 00  ..#...#)...... .
04B0: 21 00                                             !.              
```

#### Opcodes

```
  0: 0x0491 [0x1E] EventEntity looks at LocalPlayer and starts talking
  1: 0x0496 [0x6F] WAIT_FRAME_DELAY: Yield until WaitTime reaches zero
  2: 0x0497 [0x70] WAIT_ENTITY_RENDER_FLAG: Wait while EventEntity->Render.Flags3 bit 2 is set (cancel turn if not)
  3: 0x0498 [0x29] REQ_SET_WAIT(priority=0x08, entity_id=Yoran-Oran (ID: 17756188/0x010EF01C), tag_num=0x01)
  4: 0x049F [0x1D] PRINT_EVENT_MESSAGE(message_id=7665*)
     "Huh? What business-ethy do you have with me-ethy? I'm Yoran-Oran, the former minister-ethy of the Rhinostery."
  5: 0x04A2 [0x23] WAIT_FOR_DIALOG_INTERACTION
  6: 0x04A3 [0x1D] PRINT_EVENT_MESSAGE(message_id=7666*)
     "Have you been to see-ethy the Rhinostery's biological laboratory in Windurst Waters yet-ethy? Well, you should. It's like-ethy a magical botanical garden!"
  7: 0x04A6 [0x23] WAIT_FOR_DIALOG_INTERACTION
  8: 0x04A7 [0x29] REQ_SET_WAIT(priority=0x08, entity_id=Yoran-Oran (ID: 17756188/0x010EF01C), tag_num=0x02)
  9: 0x04AE [0x20] SET_CLI_EVENT_UC_FLAG: Unlock player control
 10: 0x04B0 [0x21] END_EVENT
 11: 0x04B1 [0x00] END_REQSTACK()
```

### Event 248

#### Metadata

| Field        | Value    |
|--------------|----------|
| Entrypoint   | 0x04B2   |
| Data Size    | 39 bytes |
| Instructions | 10       |

```
      00 01 02 03 04 05 06 07  08 09 0A 0B 0C 0D 0E 0F
      -- -- -- -- -- -- -- --  -- -- -- -- -- -- -- --
04B0:       1E F0 FF FF 7F 6F  70 29 0B 1C F0 0E 01 4A    .....op).....J
04C0: 29 0B 1C F0 0E 01 4B 29  0B 1C F0 0E 01 4C 29 0B  ).....K).....L).
04D0: 1C F0 0E 01 4D 20 00 21  00                       ....M .!.       
```

#### Opcodes

```
  0: 0x04B2 [0x1E] EventEntity looks at LocalPlayer and starts talking
  1: 0x04B7 [0x6F] WAIT_FRAME_DELAY: Yield until WaitTime reaches zero
  2: 0x04B8 [0x70] WAIT_ENTITY_RENDER_FLAG: Wait while EventEntity->Render.Flags3 bit 2 is set (cancel turn if not)
  3: 0x04B9 [0x29] REQ_SET_WAIT(priority=0x0B, entity_id=Yoran-Oran (ID: 17756188/0x010EF01C), tag_num=0x4A)
  4: 0x04C0 [0x29] REQ_SET_WAIT(priority=0x0B, entity_id=Yoran-Oran (ID: 17756188/0x010EF01C), tag_num=0x4B)
  5: 0x04C7 [0x29] REQ_SET_WAIT(priority=0x0B, entity_id=Yoran-Oran (ID: 17756188/0x010EF01C), tag_num=0x4C)
  6: 0x04CE [0x29] REQ_SET_WAIT(priority=0x0B, entity_id=Yoran-Oran (ID: 17756188/0x010EF01C), tag_num=0x4D)
  7: 0x04D5 [0x20] SET_CLI_EVENT_UC_FLAG: Unlock player control
  8: 0x04D7 [0x21] END_EVENT
  9: 0x04D8 [0x00] END_REQSTACK()
```

### Event 65535.71

#### Metadata

| Field        | Value    |
|--------------|----------|
| Entrypoint   | 0x04D9   |
| Data Size    | 23 bytes |
| Instructions | 7        |

```
      00 01 02 03 04 05 06 07  08 09 0A 0B 0C 0D 0E 0F
      -- -- -- -- -- -- -- --  -- -- -- -- -- -- -- --
04D0:                             29 08 1C F0 0E 01 01           )......
04E0: 1D 13 80 23 1D 14 80 23  29 08 1C F0 0E 01 02 00  ...#...#).......
```

#### Opcodes

```
  0: 0x04D9 [0x29] REQ_SET_WAIT(priority=0x08, entity_id=Yoran-Oran (ID: 17756188/0x010EF01C), tag_num=0x01)
  1: 0x04E0 [0x1D] PRINT_EVENT_MESSAGE(message_id=7670*)
     "Huh? What business-ethy do you have with me-ethy? I'm Yoran-Oran, the former minister-ethy of the Rhinostery."
  2: 0x04E3 [0x23] WAIT_FOR_DIALOG_INTERACTION
  3: 0x04E4 [0x1D] PRINT_EVENT_MESSAGE(message_id=7671*)
     "Have you been to see-ethy the Rhinostery's biological laboratory in Windurst Waters yet-ethy? Well, you should. It's like-ethy a magical botanical garden!"
  4: 0x04E7 [0x23] WAIT_FOR_DIALOG_INTERACTION
  5: 0x04E8 [0x29] REQ_SET_WAIT(priority=0x08, entity_id=Yoran-Oran (ID: 17756188/0x010EF01C), tag_num=0x02)
  6: 0x04EF [0x00] END_REQSTACK()
```

### Event 65535.72

#### Metadata

| Field        | Value   |
|--------------|---------|
| Entrypoint   | 0x04F0  |
| Data Size    | 9 bytes |
| Instructions | 5       |

```
      00 01 02 03 04 05 06 07  08 09 0A 0B 0C 0D 0E 0F
      -- -- -- -- -- -- -- --  -- -- -- -- -- -- -- --
04F0: 1D 15 80 23 1D 16 80 23  00                       ...#...#.       
```

#### Opcodes

```
  0: 0x04F0 [0x1D] PRINT_EVENT_MESSAGE(message_id=7672*)
     "My old Rhinostery has come to resemble-ethy a botanical garden that specializes in plants, but it really is meant to be-ethy a biological laboratory."
  1: 0x04F3 [0x23] WAIT_FOR_DIALOG_INTERACTION
  2: 0x04F4 [0x1D] PRINT_EVENT_MESSAGE(message_id=7673*)
     "Originally it was a biological research center that dealt-ethy with the entire ecosystem of plants and animals. Of course that included-ethy the roles of monsters in the system of things."
  3: 0x04F7 [0x23] WAIT_FOR_DIALOG_INTERACTION
  4: 0x04F8 [0x00] END_REQSTACK()
```

### Event 65535.73

#### Metadata

| Field        | Value    |
|--------------|----------|
| Entrypoint   | 0x04F9   |
| Data Size    | 23 bytes |
| Instructions | 7        |

```
      00 01 02 03 04 05 06 07  08 09 0A 0B 0C 0D 0E 0F
      -- -- -- -- -- -- -- --  -- -- -- -- -- -- -- --
04F0:                             29 08 1C F0 0E 01 03           )......
0500: 1D 17 80 23 1D 18 80 23  29 08 1C F0 0E 01 05 00  ...#...#).......
```

#### Opcodes

```
  0: 0x04F9 [0x29] REQ_SET_WAIT(priority=0x08, entity_id=Yoran-Oran (ID: 17756188/0x010EF01C), tag_num=0x03)
  1: 0x0500 [0x1D] PRINT_EVENT_MESSAGE(message_id=7674*)
     "For example, take-ethy that wonderful little bean-being, the mandragora, that's found-ethy out in Sarutabaruta. Before the Great War they didn't exist-ethy in these parts, but their numbers have constantly increased-ethy over the last couple of decades."
  2: 0x0503 [0x23] WAIT_FOR_DIALOG_INTERACTION
  3: 0x0504 [0x1D] PRINT_EVENT_MESSAGE(message_id=7675*)
     "That got me interested-ethy in where they're originally from and how they came to arrive-ethy in Sarutabaruta. So right now I'm thinking-ethy of carrying out a study on them."
  4: 0x0507 [0x23] WAIT_FOR_DIALOG_INTERACTION
  5: 0x0508 [0x29] REQ_SET_WAIT(priority=0x08, entity_id=Yoran-Oran (ID: 17756188/0x010EF01C), tag_num=0x05)
  6: 0x050F [0x00] END_REQSTACK()
```

### Event 65535.74

#### Metadata

| Field        | Value   |
|--------------|---------|
| Entrypoint   | 0x0510  |
| Data Size    | 5 bytes |
| Instructions | 3       |

```
      00 01 02 03 04 05 06 07  08 09 0A 0B 0C 0D 0E 0F
      -- -- -- -- -- -- -- --  -- -- -- -- -- -- -- --
0510: 1D 19 80 23 00                                    ...#.           
```

#### Opcodes

```
  0: 0x0510 [0x1D] PRINT_EVENT_MESSAGE(message_id=7676*)
     "If you come across-ethy any mandragora-related items that might assist me with my research, please bring-ethy them to me. I'll buy-ethy each and every one I can off of you."
  1: 0x0513 [0x23] WAIT_FOR_DIALOG_INTERACTION
  2: 0x0514 [0x00] END_REQSTACK()
```

### Event 249

#### Metadata

| Field        | Value    |
|--------------|----------|
| Entrypoint   | 0x0515   |
| Data Size    | 19 bytes |
| Instructions | 10       |

```
      00 01 02 03 04 05 06 07  08 09 0A 0B 0C 0D 0E 0F
      -- -- -- -- -- -- -- --  -- -- -- -- -- -- -- --
0510:                1E F0 FF  FF 7F 6F 70 1D 1A 80 23       .....op...#
0520: 1D 1B 80 23 20 00 21 00                           ...# .!.        
```

#### Opcodes

```
  0: 0x0515 [0x1E] EventEntity looks at LocalPlayer and starts talking
  1: 0x051A [0x6F] WAIT_FRAME_DELAY: Yield until WaitTime reaches zero
  2: 0x051B [0x70] WAIT_ENTITY_RENDER_FLAG: Wait while EventEntity->Render.Flags3 bit 2 is set (cancel turn if not)
  3: 0x051C [0x1D] PRINT_EVENT_MESSAGE(message_id=7677*)
     "I'm thinking of carrying-ethy out a study on where mandragora originally come-ethy from and how they arrived-ethy in Sarutabaruta."
  4: 0x051F [0x23] WAIT_FOR_DIALOG_INTERACTION
  5: 0x0520 [0x1D] PRINT_EVENT_MESSAGE(message_id=7678*)
     "If you come across-ethy any mandragora-related items that might assist me with my research, please bring-ethy them to me. I'll buy-ethy each and every one I can off of you."
  6: 0x0523 [0x23] WAIT_FOR_DIALOG_INTERACTION
  7: 0x0524 [0x20] SET_CLI_EVENT_UC_FLAG: Unlock player control
  8: 0x0526 [0x21] END_EVENT
  9: 0x0527 [0x00] END_REQSTACK()
```

### Event 250

#### Metadata

| Field        | Value    |
|--------------|----------|
| Entrypoint   | 0x0528   |
| Data Size    | 15 bytes |
| Instructions | 8        |

```
      00 01 02 03 04 05 06 07  08 09 0A 0B 0C 0D 0E 0F
      -- -- -- -- -- -- -- --  -- -- -- -- -- -- -- --
0520:                          1E F0 FF FF 7F 6F 70 1D          .....op.
0530: 1C 80 23 20 00 21 00                              ..# .!.         
```

#### Opcodes

```
  0: 0x0528 [0x1E] EventEntity looks at LocalPlayer and starts talking
  1: 0x052D [0x6F] WAIT_FRAME_DELAY: Yield until WaitTime reaches zero
  2: 0x052E [0x70] WAIT_ENTITY_RENDER_FLAG: Wait while EventEntity->Render.Flags3 bit 2 is set (cancel turn if not)
  3: 0x052F [0x1D] PRINT_EVENT_MESSAGE(message_id=7679*)
     "That is a most unusual item, but it doesn't help-ethy me with my research. My research is not the collection-ethy of curiosities per se, now."
  4: 0x0532 [0x23] WAIT_FOR_DIALOG_INTERACTION
  5: 0x0533 [0x20] SET_CLI_EVENT_UC_FLAG: Unlock player control
  6: 0x0535 [0x21] END_EVENT
  7: 0x0536 [0x00] END_REQSTACK()
```

### Event 251

#### Metadata

| Field        | Value    |
|--------------|----------|
| Entrypoint   | 0x0537   |
| Data Size    | 53 bytes |
| Instructions | 15       |

```
      00 01 02 03 04 05 06 07  08 09 0A 0B 0C 0D 0E 0F
      -- -- -- -- -- -- -- --  -- -- -- -- -- -- -- --
0530:                      20  01 42 1E F0 FF FF 7F 6F          .B.....o
0540: 70 29 08 1C F0 0E 01 03  1D 1D 80 23 29 08 1C F0  p).........#)...
0550: 0E 01 05 45 1E 80 F0 FF  FF 7F F0 FF FF 7F 71 73  ...E..........qs
0560: 74 63 1F 80 48 20 80 2E  20 00 21 00              tc..H .. .!.    
```

#### Opcodes

```
  0: 0x0537 [0x20] SET_CLI_EVENT_UC_FLAG: Lock player control
  1: 0x0539 [0x42] SET_CLI_EVENT_CANCEL_DATA()
  2: 0x053A [0x1E] EventEntity looks at LocalPlayer and starts talking
  3: 0x053F [0x6F] WAIT_FRAME_DELAY: Yield until WaitTime reaches zero
  4: 0x0540 [0x70] WAIT_ENTITY_RENDER_FLAG: Wait while EventEntity->Render.Flags3 bit 2 is set (cancel turn if not)
  5: 0x0541 [0x29] REQ_SET_WAIT(priority=0x08, entity_id=Yoran-Oran (ID: 17756188/0x010EF01C), tag_num=0x03)
  6: 0x0548 [0x1D] PRINT_EVENT_MESSAGE(message_id=7680*)
     "This is worthy of further investigation indeed-ethy. If you happen upon-ethy any more items such as this, please be sure to bring-ethy them to me."
  7: 0x054B [0x23] WAIT_FOR_DIALOG_INTERACTION
  8: 0x054C [0x29] REQ_SET_WAIT(priority=0x08, entity_id=Yoran-Oran (ID: 17756188/0x010EF01C), tag_num=0x05)
  9: 0x0553 [0x45] LOAD_SCHEDULED_TASK: Load scheduler "qstc" with entities [LocalPlayer, LocalPlayer], work=[201*, 0*]
 10: 0x0564 [0x48] [System] [6552*]:
     "Obtained $0 gil."
 11: 0x0567 [0x2E] SET_CLI_EVENT_CANCEL_FLAGS()
 12: 0x0568 [0x20] SET_CLI_EVENT_UC_FLAG: Unlock player control
 13: 0x056A [0x21] END_EVENT
 14: 0x056B [0x00] END_REQSTACK()
```

### Event 252

#### Metadata

| Field        | Value    |
|--------------|----------|
| Entrypoint   | 0x056C   |
| Data Size    | 57 bytes |
| Instructions | 17       |

```
      00 01 02 03 04 05 06 07  08 09 0A 0B 0C 0D 0E 0F
      -- -- -- -- -- -- -- --  -- -- -- -- -- -- -- --
0560:                                      42 20 01 1E              B ..
0570: F0 FF FF 7F 6F 70 29 08  1C F0 0E 01 01 1D 21 80  ....op).......!.
0580: 23 1D 22 80 23 29 08 1C  F0 0E 01 02 45 1E 80 F0  #.".#)......E...
0590: FF FF 7F F0 FF FF 7F 71  73 74 63 1F 80 48 20 80  .......qstc..H .
05A0: 2E 20 00 21 00                                    . .!.           
```

#### Opcodes

```
  0: 0x056C [0x42] SET_CLI_EVENT_CANCEL_DATA()
  1: 0x056D [0x20] SET_CLI_EVENT_UC_FLAG: Lock player control
  2: 0x056F [0x1E] EventEntity looks at LocalPlayer and starts talking
  3: 0x0574 [0x6F] WAIT_FRAME_DELAY: Yield until WaitTime reaches zero
  4: 0x0575 [0x70] WAIT_ENTITY_RENDER_FLAG: Wait while EventEntity->Render.Flags3 bit 2 is set (cancel turn if not)
  5: 0x0576 [0x29] REQ_SET_WAIT(priority=0x08, entity_id=Yoran-Oran (ID: 17756188/0x010EF01C), tag_num=0x01)
  6: 0x057D [0x1D] PRINT_EVENT_MESSAGE(message_id=7681*)
     "Yes, yes! I was waiting-ethy for something like this. This is definitely not from-ethy Sarutabaruta."
  7: 0x0580 [0x23] WAIT_FOR_DIALOG_INTERACTION
  8: 0x0581 [0x1D] PRINT_EVENT_MESSAGE(message_id=7682*)
     "Hmm...If you come across-ethy any more items such as this, please be sure to bring-ethy them here to me."
  9: 0x0584 [0x23] WAIT_FOR_DIALOG_INTERACTION
 10: 0x0585 [0x29] REQ_SET_WAIT(priority=0x08, entity_id=Yoran-Oran (ID: 17756188/0x010EF01C), tag_num=0x02)
 11: 0x058C [0x45] LOAD_SCHEDULED_TASK: Load scheduler "qstc" with entities [LocalPlayer, LocalPlayer], work=[201*, 0*]
 12: 0x059D [0x48] [System] [6552*]:
     "Obtained $0 gil."
 13: 0x05A0 [0x2E] SET_CLI_EVENT_CANCEL_FLAGS()
 14: 0x05A1 [0x20] SET_CLI_EVENT_UC_FLAG: Unlock player control
 15: 0x05A3 [0x21] END_EVENT
 16: 0x05A4 [0x00] END_REQSTACK()
```

### Event 253

#### Metadata

| Field        | Value    |
|--------------|----------|
| Entrypoint   | 0x05A5   |
| Data Size    | 71 bytes |
| Instructions | 19       |

```
      00 01 02 03 04 05 06 07  08 09 0A 0B 0C 0D 0E 0F
      -- -- -- -- -- -- -- --  -- -- -- -- -- -- -- --
05A0:                42 20 01  1E F0 FF FF 7F 6F 70 29       B ......op)
05B0: 08 1C F0 0E 01 03 1D 23  80 23 29 08 1C F0 0E 01  .......#.#).....
05C0: 04 29 08 1C F0 0E 01 05  1D 24 80 23 29 08 1C F0  .).......$.#)...
05D0: 0E 01 06 45 1E 80 F0 FF  FF 7F F0 FF FF 7F 71 73  ...E..........qs
05E0: 74 63 1F 80 48 20 80 2E  20 00 21 00              tc..H .. .!.    
```

#### Opcodes

```
  0: 0x05A5 [0x42] SET_CLI_EVENT_CANCEL_DATA()
  1: 0x05A6 [0x20] SET_CLI_EVENT_UC_FLAG: Lock player control
  2: 0x05A8 [0x1E] EventEntity looks at LocalPlayer and starts talking
  3: 0x05AD [0x6F] WAIT_FRAME_DELAY: Yield until WaitTime reaches zero
  4: 0x05AE [0x70] WAIT_ENTITY_RENDER_FLAG: Wait while EventEntity->Render.Flags3 bit 2 is set (cancel turn if not)
  5: 0x05AF [0x29] REQ_SET_WAIT(priority=0x08, entity_id=Yoran-Oran (ID: 17756188/0x010EF01C), tag_num=0x03)
  6: 0x05B6 [0x1D] PRINT_EVENT_MESSAGE(message_id=7683*)
     "What are these-ethy? This-ethy is amazing-ethy! I never expected-ethy the mandragora in the Outlands would have evolved-ethy like this."
  7: 0x05B9 [0x23] WAIT_FOR_DIALOG_INTERACTION
  8: 0x05BA [0x29] REQ_SET_WAIT(priority=0x08, entity_id=Yoran-Oran (ID: 17756188/0x010EF01C), tag_num=0x04)
  9: 0x05C1 [0x29] REQ_SET_WAIT(priority=0x08, entity_id=Yoran-Oran (ID: 17756188/0x010EF01C), tag_num=0x05)
 10: 0x05C8 [0x1D] PRINT_EVENT_MESSAGE(message_id=7684*)
     "I'd better look-ethy into this right away. This could lead-ethy to some new discovery!"
 11: 0x05CB [0x23] WAIT_FOR_DIALOG_INTERACTION
 12: 0x05CC [0x29] REQ_SET_WAIT(priority=0x08, entity_id=Yoran-Oran (ID: 17756188/0x010EF01C), tag_num=0x06)
 13: 0x05D3 [0x45] LOAD_SCHEDULED_TASK: Load scheduler "qstc" with entities [LocalPlayer, LocalPlayer], work=[201*, 0*]
 14: 0x05E4 [0x48] [System] [6552*]:
     "Obtained $0 gil."
 15: 0x05E7 [0x2E] SET_CLI_EVENT_CANCEL_FLAGS()
 16: 0x05E8 [0x20] SET_CLI_EVENT_UC_FLAG: Unlock player control
 17: 0x05EA [0x21] END_EVENT
 18: 0x05EB [0x00] END_REQSTACK()
```

### Event 255

#### Metadata

| Field        | Value     |
|--------------|-----------|
| Entrypoint   | 0x05EC    |
| Data Size    | 122 bytes |
| Instructions | 24        |

```
      00 01 02 03 04 05 06 07  08 09 0A 0B 0C 0D 0E 0F
      -- -- -- -- -- -- -- --  -- -- -- -- -- -- -- --
05E0:                                      42 20 01 1E              B ..
05F0: F0 FF FF 7F 6F 70 29 08  1C F0 0E 01 03 1D 25 80  ....op).......%.
0600: 23 29 08 1C F0 0E 01 04  45 26 80 F0 FF FF 7F F0  #)......E&......
0610: FF FF 7F 66 64 6F 31 1F  80 1C 26 80 29 08 1C F0  ...fdo1...&.)...
0620: 0E 01 05 29 08 1C F0 0E  01 06 45 26 80 F0 FF FF  ...)......E&....
0630: 7F F0 FF FF 7F 66 64 69  31 1F 80 29 08 1C F0 0E  .....fdi1..)....
0640: 01 07 1D 27 80 23 29 08  1C F0 0E 01 08 45 1E 80  ...'.#)......E..
0650: F0 FF FF 7F F0 FF FF 7F  71 73 74 63 1F 80 48 20  ........qstc..H 
0660: 80 2E 20 00 21 00                                 .. .!.          
```

#### Opcodes

```
  0: 0x05EC [0x42] SET_CLI_EVENT_CANCEL_DATA()
  1: 0x05ED [0x20] SET_CLI_EVENT_UC_FLAG: Lock player control
  2: 0x05EF [0x1E] EventEntity looks at LocalPlayer and starts talking
  3: 0x05F4 [0x6F] WAIT_FRAME_DELAY: Yield until WaitTime reaches zero
  4: 0x05F5 [0x70] WAIT_ENTITY_RENDER_FLAG: Wait while EventEntity->Render.Flags3 bit 2 is set (cancel turn if not)
  5: 0x05F6 [0x29] REQ_SET_WAIT(priority=0x08, entity_id=Yoran-Oran (ID: 17756188/0x010EF01C), tag_num=0x03)
  6: 0x05FD [0x1D] PRINT_EVENT_MESSAGE(message_id=7687*)
     "You say-ethy that mandragora had-ethy $1, eh? It would be strange-ethy enough-ethy for a Rarab to show interest in such-ethy a thing-ethy, but for a mandragora...!?"
  7: 0x0600 [0x23] WAIT_FOR_DIALOG_INTERACTION
  8: 0x0601 [0x29] REQ_SET_WAIT(priority=0x08, entity_id=Yoran-Oran (ID: 17756188/0x010EF01C), tag_num=0x04)
  9: 0x0608 [0x45] LOAD_SCHEDULED_TASK: Load scheduler "fdo1" with entities [LocalPlayer, LocalPlayer], work=[200*, 0*]
 10: 0x0619 [0x1C] WAIT(200* ticks)
 11: 0x061C [0x29] REQ_SET_WAIT(priority=0x08, entity_id=Yoran-Oran (ID: 17756188/0x010EF01C), tag_num=0x05)
 12: 0x0623 [0x29] REQ_SET_WAIT(priority=0x08, entity_id=Yoran-Oran (ID: 17756188/0x010EF01C), tag_num=0x06)
 13: 0x062A [0x45] LOAD_SCHEDULED_TASK: Load scheduler "fdi1" with entities [LocalPlayer, LocalPlayer], work=[200*, 0*]
 14: 0x063B [0x29] REQ_SET_WAIT(priority=0x08, entity_id=Yoran-Oran (ID: 17756188/0x010EF01C), tag_num=0x07)
 15: 0x0642 [0x1D] PRINT_EVENT_MESSAGE(message_id=7688*)
     "Interesting-ethy! No, intriguing-ethy! I think this could be the beginning-ethy of some remarkable research-ethy!"
 16: 0x0645 [0x23] WAIT_FOR_DIALOG_INTERACTION
 17: 0x0646 [0x29] REQ_SET_WAIT(priority=0x08, entity_id=Yoran-Oran (ID: 17756188/0x010EF01C), tag_num=0x08)
 18: 0x064D [0x45] LOAD_SCHEDULED_TASK: Load scheduler "qstc" with entities [LocalPlayer, LocalPlayer], work=[201*, 0*]
 19: 0x065E [0x48] [System] [6552*]:
     "Obtained $0 gil."
 20: 0x0661 [0x2E] SET_CLI_EVENT_CANCEL_FLAGS()
 21: 0x0662 [0x20] SET_CLI_EVENT_UC_FLAG: Unlock player control
 22: 0x0664 [0x21] END_EVENT
 23: 0x0665 [0x00] END_REQSTACK()
```

### Event 254

#### Metadata

| Field        | Value    |
|--------------|----------|
| Entrypoint   | 0x0666   |
| Data Size    | 57 bytes |
| Instructions | 17       |

```
      00 01 02 03 04 05 06 07  08 09 0A 0B 0C 0D 0E 0F
      -- -- -- -- -- -- -- --  -- -- -- -- -- -- -- --
0660:                   42 20  01 1E F0 FF FF 7F 6F 70        B ......op
0670: 29 08 1C F0 0E 01 01 1D  28 80 23 29 08 1C F0 0E  ).......(.#)....
0680: 01 02 1D 29 80 23 45 1E  80 F0 FF FF 7F F0 FF FF  ...).#E.........
0690: 7F 71 73 74 63 1F 80 48  20 80 2E 20 00 21 00     .qstc..H .. .!. 
```

#### Opcodes

```
  0: 0x0666 [0x42] SET_CLI_EVENT_CANCEL_DATA()
  1: 0x0667 [0x20] SET_CLI_EVENT_UC_FLAG: Lock player control
  2: 0x0669 [0x1E] EventEntity looks at LocalPlayer and starts talking
  3: 0x066E [0x6F] WAIT_FRAME_DELAY: Yield until WaitTime reaches zero
  4: 0x066F [0x70] WAIT_ENTITY_RENDER_FLAG: Wait while EventEntity->Render.Flags3 bit 2 is set (cancel turn if not)
  5: 0x0670 [0x29] REQ_SET_WAIT(priority=0x08, entity_id=Yoran-Oran (ID: 17756188/0x010EF01C), tag_num=0x01)
  6: 0x0677 [0x1D] PRINT_EVENT_MESSAGE(message_id=7685*)
     "That is a rather rare mandragora-related thing, but it doesn't help-ethy me with my research."
  7: 0x067A [0x23] WAIT_FOR_DIALOG_INTERACTION
  8: 0x067B [0x29] REQ_SET_WAIT(priority=0x08, entity_id=Yoran-Oran (ID: 17756188/0x010EF01C), tag_num=0x02)
  9: 0x0682 [0x1D] PRINT_EVENT_MESSAGE(message_id=7686*)
     "However, they say these can bring-ethy luck, so I'll take it off of your hands. Who knows, it might just help me think-ethy things over a little better."
 10: 0x0685 [0x23] WAIT_FOR_DIALOG_INTERACTION
 11: 0x0686 [0x45] LOAD_SCHEDULED_TASK: Load scheduler "qstc" with entities [LocalPlayer, LocalPlayer], work=[201*, 0*]
 12: 0x0697 [0x48] [System] [6552*]:
     "Obtained $0 gil."
 13: 0x069A [0x2E] SET_CLI_EVENT_CANCEL_FLAGS()
 14: 0x069B [0x20] SET_CLI_EVENT_UC_FLAG: Unlock player control
 15: 0x069D [0x21] END_EVENT
 16: 0x069E [0x00] END_REQSTACK()
```

### Event 256

#### Metadata

| Field        | Value    |
|--------------|----------|
| Entrypoint   | 0x069F   |
| Data Size    | 33 bytes |
| Instructions | 13       |

```
      00 01 02 03 04 05 06 07  08 09 0A 0B 0C 0D 0E 0F
      -- -- -- -- -- -- -- --  -- -- -- -- -- -- -- --
0690:                                               42                 B
06A0: 20 01 1E F0 FF FF 7F 6F  70 29 08 1C F0 0E 01 01   ......op)......
06B0: 1D 2A 80 23 29 08 1C F0  0E 01 02 2E 20 00 21 00  .*.#)....... .!.
```

#### Opcodes

```
  0: 0x069F [0x42] SET_CLI_EVENT_CANCEL_DATA()
  1: 0x06A0 [0x20] SET_CLI_EVENT_UC_FLAG: Lock player control
  2: 0x06A2 [0x1E] EventEntity looks at LocalPlayer and starts talking
  3: 0x06A7 [0x6F] WAIT_FRAME_DELAY: Yield until WaitTime reaches zero
  4: 0x06A8 [0x70] WAIT_ENTITY_RENDER_FLAG: Wait while EventEntity->Render.Flags3 bit 2 is set (cancel turn if not)
  5: 0x06A9 [0x29] REQ_SET_WAIT(priority=0x08, entity_id=Yoran-Oran (ID: 17756188/0x010EF01C), tag_num=0x01)
  6: 0x06B0 [0x1D] PRINT_EVENT_MESSAGE(message_id=7689*)
     "If mandragoras drop-ethy something that looks as if it could aid-ethy me in my research, then please be sure to bring-ethy it back here to me."
  7: 0x06B3 [0x23] WAIT_FOR_DIALOG_INTERACTION
  8: 0x06B4 [0x29] REQ_SET_WAIT(priority=0x08, entity_id=Yoran-Oran (ID: 17756188/0x010EF01C), tag_num=0x02)
  9: 0x06BB [0x2E] SET_CLI_EVENT_CANCEL_FLAGS()
 10: 0x06BC [0x20] SET_CLI_EVENT_UC_FLAG: Unlock player control
 11: 0x06BE [0x21] END_EVENT
 12: 0x06BF [0x00] END_REQSTACK()
```

### Event 217

#### Metadata

| Field        | Value    |
|--------------|----------|
| Entrypoint   | 0x06C0   |
| Data Size    | 37 bytes |
| Instructions | 14       |

```
      00 01 02 03 04 05 06 07  08 09 0A 0B 0C 0D 0E 0F
      -- -- -- -- -- -- -- --  -- -- -- -- -- -- -- --
06C0: 29 08 1C F0 0E 01 01 1D  2B 80 23 1D 2C 80 23 29  ).......+.#.,.#)
06D0: 08 1C F0 0E 01 02 1E F0  FF FF 7F 6F 70 1D 2D 80  ...........op.-.
06E0: 23 20 00 21 00                                    # .!.           
```

#### Opcodes

```
  0: 0x06C0 [0x29] REQ_SET_WAIT(priority=0x08, entity_id=Yoran-Oran (ID: 17756188/0x010EF01C), tag_num=0x01)
  1: 0x06C7 [0x1D] PRINT_EVENT_MESSAGE(message_id=7583*)
     ""...Time flow-ethy ever on and on, but the past is never-ethy gone.""
  2: 0x06CA [0x23] WAIT_FOR_DIALOG_INTERACTION
  3: 0x06CB [0x1D] PRINT_EVENT_MESSAGE(message_id=7584*)
     ""The past unceasingly-ethy piles up in toil, The lower layers decomposing-ethy into soil, Which supports-ethy this world's future yon...""
  4: 0x06CE [0x23] WAIT_FOR_DIALOG_INTERACTION
  5: 0x06CF [0x29] REQ_SET_WAIT(priority=0x08, entity_id=Yoran-Oran (ID: 17756188/0x010EF01C), tag_num=0x02)
  6: 0x06D6 [0x1E] EventEntity looks at LocalPlayer and starts talking
  7: 0x06DB [0x6F] WAIT_FRAME_DELAY: Yield until WaitTime reaches zero
  8: 0x06DC [0x70] WAIT_ENTITY_RENDER_FLAG: Wait while EventEntity->Render.Flags3 bit 2 is set (cancel turn if not)
  9: 0x06DD [0x1D] PRINT_EVENT_MESSAGE(message_id=7585*)
     "...Hmm. Put it into writing-ethy and it comes out like this-ethy."
 10: 0x06E0 [0x23] WAIT_FOR_DIALOG_INTERACTION
 11: 0x06E1 [0x20] SET_CLI_EVENT_UC_FLAG: Unlock player control
 12: 0x06E3 [0x21] END_EVENT
 13: 0x06E4 [0x00] END_REQSTACK()
```

### Event 221

#### Metadata

| Field        | Value    |
|--------------|----------|
| Entrypoint   | 0x06E5   |
| Data Size    | 40 bytes |
| Instructions | 11       |

```
      00 01 02 03 04 05 06 07  08 09 0A 0B 0C 0D 0E 0F
      -- -- -- -- -- -- -- --  -- -- -- -- -- -- -- --
06E0:                29 08 1C  F0 0E 01 03 1D 2E 80 23       ).........#
06F0: 1D 2F 80 23 29 08 1C F0  0E 01 04 29 08 1C F0 0E  ./.#)......)....
0700: 01 05 29 08 1C F0 0E 01  06 20 00 21 00           ..)...... .!.   
```

#### Opcodes

```
  0: 0x06E5 [0x29] REQ_SET_WAIT(priority=0x08, entity_id=Yoran-Oran (ID: 17756188/0x010EF01C), tag_num=0x03)
  1: 0x06EC [0x1D] PRINT_EVENT_MESSAGE(message_id=7591*)
     ""...There are many-ethy a place which now is land, That was in antiquity submerged-ethy under the sea and sand.""
  2: 0x06EF [0x23] WAIT_FOR_DIALOG_INTERACTION
  3: 0x06F0 [0x1D] PRINT_EVENT_MESSAGE(message_id=7592*)
     ""A prime example of such a place-ethy is the Maze of Shakhrami. You can find-ethy an array of fossilized sea life in the rocks there-ethy...""
  4: 0x06F3 [0x23] WAIT_FOR_DIALOG_INTERACTION
  5: 0x06F4 [0x29] REQ_SET_WAIT(priority=0x08, entity_id=Yoran-Oran (ID: 17756188/0x010EF01C), tag_num=0x04)
