# 17756292 - Burute-Sorute

## Common Data

| Field            | Value                    |
|------------------|--------------------------|
| Zone             | Windurst Walls (ID: 239) |
| Block Size       | 2728 bytes               |
| Total Events     | 3                        |
| References Count | 175                      |

## List of Events

| Event ID              | Entrypoint   |   Size |   Instructions |
|-----------------------|--------------|--------|----------------|
| [65535](#event-65535) | 0x0000       |      1 |              1 |
| [10003](#event-10003) | 0x0001       |     63 |             20 |
| [10004](#event-10004) | 0x0040       |   1936 |            438 |

## DAT References (imed_data)

|   Index | Hex Value   |   Dec Value |
|---------|-------------|-------------|
|       0 | 0x001E      |          30 |
|       1 | 0x0001      |           1 |
|       2 | 0x0000      |           0 |
|       3 | 0x1C1A      |        7194 |
|       4 | 0x1C1B      |        7195 |
|       5 | 0x1C1F      |        7199 |
|       6 | 0x001F      |          31 |
|       7 | 0x0007      |           7 |
|       8 | 0x0002      |           2 |
|       9 | 0x0008      |           8 |
|      10 | 0x1C1C      |        7196 |
|      11 | 0x1C1D      |        7197 |
|      12 | 0xFFFFFFFE  |  4294967294 |
|      13 | 0x0003      |           3 |
|      14 | 0x0004      |           4 |
|      15 | 0x0005      |           5 |
|      16 | 0x0006      |           6 |
|      17 | 0x00C8      |         200 |
|      18 | 0x012C      |         300 |
|      19 | 0x0190      |         400 |
|      20 | 0x01F4      |         500 |
|      21 | 0x0258      |         600 |
|      22 | 0x02BC      |         700 |
|      23 | 0x1C1E      |        7198 |
|      24 | 0x40000000  |  1073741824 |
|      25 | 0x1C25      |        7205 |
|      26 | 0x1C22      |        7202 |
|      27 | 0x1C23      |        7203 |
|      28 | 0xFFFFFFFF  |  4294967295 |
|      29 | 0x0012      |          18 |
|      30 | 0x0013      |          19 |
|      31 | 0x0020      |          32 |
|      32 | 0x0021      |          33 |
|      33 | 0x0010      |          16 |
|      34 | 0x0026      |          38 |
|      35 | 0x0027      |          39 |
|      36 | 0x0028      |          40 |
|      37 | 0x0029      |          41 |
|      38 | 0x0039      |          57 |
|      39 | 0x0016      |          22 |
|      40 | 0x1C29      |        7209 |
|      41 | 0x01A6      |         422 |
|      42 | 0x017A      |         378 |
|      43 | 0x012E      |         302 |
|      44 | 0x01B1      |         433 |
|      45 | 0x01D3      |         467 |
|      46 | 0x01D4      |         468 |
|      47 | 0x00A4      |         164 |
|      48 | 0x00A6      |         166 |
|      49 | 0x00A7      |         167 |
|      50 | 0x00A8      |         168 |
|      51 | 0x00A9      |         169 |
|      52 | 0x019B      |         411 |
|      53 | 0x1C26      |        7206 |
|      54 | 0x1C28      |        7208 |
|      55 | 0x0014      |          20 |
|      56 | 0x03AF      |         943 |
|      57 | 0x008A      |         138 |
|      58 | 0x0009      |           9 |
|      59 | 0x030D      |         781 |
|      60 | 0x0313      |         787 |
|      61 | 0x0240      |         576 |
|      62 | 0x038E      |         910 |
|      63 | 0x09C4      |        2500 |
|      64 | 0x0909      |        2313 |
|      65 | 0x3CAD      |       15533 |
|      66 | 0x1C27      |        7207 |
|      67 | 0x0011      |          17 |
|      68 | 0x1C21      |        7201 |
|      69 | 0x00CE      |         206 |
|      70 | 0x0073      |         115 |
|      71 | 0x0074      |         116 |
|      72 | 0x0078      |         120 |
|      73 | 0x007D      |         125 |
|      74 | 0x007E      |         126 |
|      75 | 0x0081      |         129 |
|      76 | 0x0084      |         132 |
|      77 | 0x0088      |         136 |
|      78 | 0x008C      |         140 |
|      79 | 0x0077      |         119 |
|      80 | 0x006F      |         111 |
|      81 | 0x0072      |         114 |
|      82 | 0x0070      |         112 |
|      83 | 0x0071      |         113 |
|      84 | 0x00D7      |         215 |
|      85 | 0x0124      |         292 |
|      86 | 0x012F      |         303 |
|      87 | 0x0130      |         304 |
|      88 | 0x0131      |         305 |
|      89 | 0x0253      |         595 |
|      90 | 0x037E      |         894 |
|      91 | 0x0075      |         117 |
|      92 | 0x0079      |         121 |
|      93 | 0x007A      |         122 |
|      94 | 0x007B      |         123 |
|      95 | 0x0085      |         133 |
|      96 | 0x0086      |         134 |
|      97 | 0x0087      |         135 |
|      98 | 0x00CF      |         207 |
|      99 | 0x002A      |          42 |
|     100 | 0x00D8      |         216 |
|     101 | 0x007C      |         124 |
|     102 | 0x0080      |         128 |
|     103 | 0x0032      |          50 |
|     104 | 0x002E      |          46 |
|     105 | 0x002F      |          47 |
|     106 | 0x00D3      |         211 |
|     107 | 0x00BE      |         190 |
|     108 | 0x0151      |         337 |
|     109 | 0x007F      |         127 |
|     110 | 0x0082      |         130 |
|     111 | 0x0083      |         131 |
|     112 | 0x0089      |         137 |
|     113 | 0x008B      |         139 |
|     114 | 0x00BB      |         187 |
|     115 | 0x00BC      |         188 |
|     116 | 0x00BD      |         189 |
|     117 | 0x0076      |         118 |
|     118 | 0x00D0      |         208 |
|     119 | 0x00D9      |         217 |
|     120 | 0x0152      |         338 |
|     121 | 0x0157      |         343 |
|     122 | 0x046A      |        1130 |
|     123 | 0x046B      |        1131 |
|     124 | 0x00DD      |         221 |
|     125 | 0x00DE      |         222 |
|     126 | 0x00C5      |         197 |
|     127 | 0x00CB      |         203 |
|     128 | 0x00AB      |         171 |
|     129 | 0x0104      |         260 |
|     130 | 0x011B      |         283 |
|     131 | 0x011C      |         284 |
|     132 | 0x00E0      |         224 |
|     133 | 0x011F      |         287 |
|     134 | 0x0107      |         263 |
|     135 | 0x0100      |         256 |
|     136 | 0x0125      |         293 |
|     137 | 0x0126      |         294 |
|     138 | 0x012B      |         299 |
|     139 | 0x01A8      |         424 |
|     140 | 0x0310      |         784 |
|     141 | 0x03B1      |         945 |
|     142 | 0x03B3      |         947 |
|     143 | 0x03D4      |         980 |
|     144 | 0x0401      |        1025 |
|     145 | 0x0402      |        1026 |
|     146 | 0x0403      |        1027 |
|     147 | 0x00F6      |         246 |
|     148 | 0x00F7      |         247 |
|     149 | 0x00F8      |         248 |
|     150 | 0x00F9      |         249 |
|     151 | 0x00FA      |         250 |
|     152 | 0x00FB      |         251 |
|     153 | 0x00FC      |         252 |
|     154 | 0x00FD      |         253 |
|     155 | 0x00FE      |         254 |
|     156 | 0x00FF      |         255 |
|     157 | 0x013F      |         319 |
|     158 | 0x0140      |         320 |
|     159 | 0x0141      |         321 |
|     160 | 0x0243      |         579 |
|     161 | 0x0145      |         325 |
|     162 | 0x0146      |         326 |
|     163 | 0x0147      |         327 |
|     164 | 0x0245      |         581 |
|     165 | 0x014B      |         331 |
|     166 | 0x014C      |         332 |
|     167 | 0x014D      |         333 |
|     168 | 0x0247      |         583 |
|     169 | 0x014E      |         334 |
|     170 | 0x014F      |         335 |
|     171 | 0x0150      |         336 |
|     172 | 0x0248      |         584 |
|     173 | 0x0269      |         617 |
|     174 | 0x026C      |         620 |

## String References

- **7194**: $6, a hero's story! The deeds of %0, in all their gloryt
- **7195**: A traveling bard walks far and near While wand'ring this celestial sphere From bustling towns to godforsaken lands. But none I love more than the swell Inhabitants of Vana'diel, Espec'lly when their gil comes to my hands.t
- **7196**: Pay me what you think I'm worth And songs of legend may spring forth.t
- **7197**: Open your ears and take a ration Of my melodic cantillation.t
- **7198**: How much will you give the bard? [Nothing./$0 gil./$1 gil./$2 gil./$3 gil./$4 gil./$5 gil./Let the bard decide your title./Unlock achievement.]
- **7199**: I cannot weave a ballad fair Out of moonbeams and thin air.t
- **7201**: Which title do you return to? [None./$1./$2./$3./$4./$5./$6./$7./$8./$9./$10./$11./$12./$13./$14./$15./$16./$17./$18./$19./$20./$21./$22./$23./$24./$25./$26./$27./$28.]
- **7202**: I'll add you to my repertoire And sing of you! So, au revoir!t
- **7203**: The power of song, a mystical thing That comes forth only when you sing. A minstrel's job in life is never done. So sing a doodle-doodle-lay And be upon your merry way-- And check your title, too, oh worthy one.t
- **7205**: Oh, what a soul, intrepid and bold To care not how your name is toldt
- **7206**: Unlock which achievement? [None./Job Level./Synthesis Skill 100./San d'Oria Rank 10./Bastok Rank 10./Windurst Rank 10./Zilart Missions./Promathia Missions./Aht Urhgan Missions./Mercenary Rank./$27./$28./$29./$30./$31./$32./$33./$34./$35./$36./$37./$38./View next page.]
- **7207**: Unlock which achievement? [None./Artifact related Quests./Guildworkers' Union Entry./Wings of the Goddess Missions./Past Vana'diel Nation Quests./$3./$3./$3./$3./$3./$3./$3./$3./Support Jobs./Extra Jobs./$16./$17./$18.]
- **7208**: Unlock which achievement? [None./Level 75 Warrior./Level 75 Monk./Level 75 White Mage./Level 75 Black Mage./Level 75 Red Mage./Level 75 Thief./Level 75 Paladin./Level 75 Dark Knight./Level 75 Beastmaster./Level 75 Bard./Level 75 Ranger./Level 75 Samurai./Level 75 Ninja./Level 75 Dragoon./Level 75 Summoner./Level 75 Blue Mage./Level 75 Corsair./Level 75 Puppetmaster./Level 75 Dancer./Level 75 Scholar.]
- **7209**: You have no achievements to unlock.

## Events

### Event 65535

#### Metadata

| Field        | Value   |
|--------------|---------|
| Entrypoint   | 0x0000  |
| Data Size    | 1 bytes |
| Instructions | 1       |

```
      00 01 02 03 04 05 06 07  08 09 0A 0B 0C 0D 0E 0F
      -- -- -- -- -- -- -- --  -- -- -- -- -- -- -- --
0000: 00                                                .               
```

#### Opcodes

```
  0: 0x0000 [0x00] END_REQSTACK()
```

### Event 10003

#### Metadata

| Field        | Value    |
|--------------|----------|
| Entrypoint   | 0x0001   |
| Data Size    | 63 bytes |
| Instructions | 20       |

```
      00 01 02 03 04 05 06 07  08 09 0A 0B 0C 0D 0E 0F
      -- -- -- -- -- -- -- --  -- -- -- -- -- -- -- --
0000:    1C 00 80 86 01 F8 FF  FF 7F 1E F0 FF FF 7F 6F   ..............o
0010: 70 3E 08 10 00 80 25 00  3D 08 10 00 80 01 80 05  p>....%.=.......
0020: 01 17 01 28 00 06 01 17  02 08 10 02 80 01 34 00  ...(..........4.
0030: 1D 03 80 23 1D 04 80 23  1D 05 80 23 20 00 21 00  ...#...#...# .!.
```

#### Opcodes

```
  0: 0x0001 [0x1C] WAIT(30* ticks)
  1: 0x0004 [0x86] EventEntity->Render.Flags3 ^= 0x01
  2: 0x000A [0x1E] EventEntity looks at LocalPlayer and starts talking
  3: 0x000F [0x6F] WAIT_FRAME_DELAY: Yield until WaitTime reaches zero
  4: 0x0010 [0x70] WAIT_ENTITY_RENDER_FLAG: Wait while EventEntity->Render.Flags3 bit 2 is set (cancel turn if not)
  5: 0x0011 [0x3E] IF !(Work_Zone[8] bit 30*) GOTO 0x0025
  6: 0x0018 [0x3D] CLEAR_BIT_FLAG_CONDITIONAL(target_work_offset=Work_Zone[8], bit_index_work_offset=30*, condition_work_offset=1*)
  7: 0x001F [0x05] Work_Zone_1700[1] = 1
  8: 0x0022 [0x01] GOTO 0x0028
  9: 0x0025 [0x06] Work_Zone_1700[1] = 0

SUBROUTINE_0028:
 10: 0x0028 [0x02] IF !(Work_Zone[8] == 0*) GOTO 0x0034
 11: 0x0030 [0x1D] PRINT_EVENT_MESSAGE(message_id=7194*)
    → "$6, a hero's story! The deeds of %0, in all their gloryt"
 12: 0x0033 [0x23] WAIT_FOR_DIALOG_INTERACTION
 13: 0x0034 [0x1D] PRINT_EVENT_MESSAGE(message_id=7195*)
    → "A traveling bard walks far and near While wand'ring this celestial sphere From bustling towns to godforsaken lands. But none I love more than the swell Inhabitants of Vana'diel, Espec'lly when their gil comes to my hands.t"
 14: 0x0037 [0x23] WAIT_FOR_DIALOG_INTERACTION
 15: 0x0038 [0x1D] PRINT_EVENT_MESSAGE(message_id=7199*)
    → "I cannot weave a ballad fair Out of moonbeams and thin air.t"
 16: 0x003B [0x23] WAIT_FOR_DIALOG_INTERACTION
 17: 0x003C [0x20] SET_CLI_EVENT_UC_FLAG: Unlock player control
 18: 0x003E [0x21] END_EVENT
 19: 0x003F [0x00] END_REQSTACK()
```

### Event 10004

#### Metadata

| Field        | Value      |
|--------------|------------|
| Entrypoint   | 0x0040     |
| Data Size    | 1936 bytes |
| Instructions | 316        |

```
      00 01 02 03 04 05 06 07  08 09 0A 0B 0C 0D 0E 0F
      -- -- -- -- -- -- -- --  -- -- -- -- -- -- -- --
0040: 1C 00 80 86 01 F8 FF FF  7F 1E F0 FF FF 7F 6F 70  ..............op
0050: 3E 08 10 00 80 64 00 3D  08 10 00 80 01 80 05 01  >....d.=........
0060: 17 01 67 00 06 01 17 06  00 00 3E 08 10 06 80 7B  ..g.......>....{
0070: 00 3D 08 10 06 80 01 80  01 82 00 3C 00 00 07 80  .=.........<....
0080: 01 80 B1 02 0A 00 02 0A  00 08 80 00 98 00 3D 00  ..............=.
0090: 00 09 80 01 80 01 9F 00  3C 00 00 09 80 01 80 02  ........<.......
00A0: 08 10 02 80 01 AB 00 1D  03 80 23 1D 04 80 23 1D  ..........#...#.
00B0: 0A 80 23 1D 0B 80 23 02  02 10 0C 80 00 C6 00 3C  ..#...#........<
00C0: 00 00 01 80 01 80 02 03  10 0C 80 00 D5 00 3C 00  ..............<.
00D0: 00 08 80 01 80 02 04 10  0C 80 00 E4 00 3C 00 00  .............<..
00E0: 0D 80 01 80 02 05 10 0C  80 00 F3 00 3C 00 00 0E  ............<...
00F0: 80 01 80 02 06 10 0C 80  00 02 01 3C 00 00 0F 80  ...........<....
0100: 01 80 02 07 10 0C 80 00  11 01 3C 00 00 10 80 01  ..........<.....
0110: 80 03 01 00 02 10 03 02  00 03 10 03 03 00 04 10  ................
0120: 03 04 00 05 10 03 05 00  06 10 03 06 00 07 10 03  ................
0130: 02 10 11 80 03 03 10 12  80 03 04 10 13 80 03 05  ................
0140: 10 14 80 03 06 10 15 80  03 07 10 16 80 24 17 80  .............$..
0150: 02 80 00 00 25 02 00 10  02 80 00 67 01 03 01 10  ....%......g....
0160: 18 80 21 00 01 1E 05 02  00 10 01 80 00 95 01 02  ..!.............
0170: 09 10 11 80 03 82 01 1D  05 80 23 03 01 10 18 80  ..........#.....
0180: 21 00 03 00 00 01 00 03  08 00 02 80 1A 56 05 1A  !............V..
0190: AE 05 01 1E 05 02 00 10  08 80 00 C3 01 02 09 10  ................
01A0: 12 80 03 B0 01 1D 05 80  23 03 01 10 18 80 21 00  ........#.....!.
01B0: 03 00 00 02 00 03 08 00  01 80 1A 56 05 1A 1D 06  ...........V....
01C0: 01 1E 05 02 00 10 0D 80  00 F1 01 02 09 10 13 80  ................
01D0: 03 DE 01 1D 05 80 23 03  01 10 18 80 21 00 03 00  ......#.....!...
01E0: 00 03 00 03 08 00 08 80  1A 56 05 1A 5A 06 01 1E  .........V..Z...
01F0: 05 02 00 10 0E 80 00 1F  02 02 09 10 14 80 03 0C  ................
0200: 02 1D 05 80 23 03 01 10  18 80 21 00 03 00 00 04  ....#.....!.....
0210: 00 03 08 00 0D 80 1A 56  05 1A CE 06 01 1E 05 02  .......V........
0220: 00 10 0F 80 00 4D 02 02  09 10 15 80 03 3A 02 1D  .....M.......:..
0230: 05 80 23 03 01 10 18 80  21 00 03 00 00 05 00 03  ..#.....!.......
0240: 08 00 0E 80 1A 56 05 1A  42 07 01 1E 05 02 00 10  .....V..B.......
0250: 10 80 00 7B 02 02 09 10  16 80 03 68 02 1D 05 80  ...{.......h....
0260: 23 03 01 10 18 80 21 00  03 00 00 06 00 03 08 00  #.....!.........
0270: 0F 80 1A 56 05 1A C5 07  01 1E 05 02 00 10 07 80  ...V............
0280: 00 99 02 1D 19 80 23 1D  1A 80 23 1D 1B 80 23 03  ......#...#...#.
0290: 01 10 1C 80 21 00 01 1E  05 02 00 10 09 80 00 1E  ....!...........
02A0: 05 43 00 43 01 B1 02 0A  00 02 0A 00 08 80 00 B1  .C.C............
02B0: 03 03 0F 00 01 80 06 0B  00 02 0F 00 1D 80 05 DC  ................
02C0: 02 B1 04 0F 00 10 00 02  10 00 02 80 01 D6 02 3C  ...............<
02D0: 0B 00 0F 00 01 80 0B 0F  00 01 B9 02 06 0C 00 03  ................
02E0: 0F 00 1E 80 03 0E 00 08  80 02 0F 00 1F 80 05 0F  ................
02F0: 03 B1 04 0F 00 10 00 02  10 00 02 80 01 06 03 3C  ...............<
0300: 0C 00 0E 00 01 80 0B 0F  00 0B 0E 00 01 E9 02 03  ................
0310: 0F 00 20 80 03 0E 00 21  80 02 0F 00 22 80 05 3F  .. ....!...."..?
0320: 03 B1 04 0F 00 10 00 02  10 00 02 80 01 36 03 3C  .............6.<
0330: 0C 00 0E 00 01 80 0B 0F  00 0B 0E 00 01 19 03 03  ................
0340: 0F 00 23 80 03 0E 00 1E  80 02 0F 00 24 80 05 6F  ..#.........$..o
0350: 03 B1 04 0F 00 10 00 02  10 00 02 80 01 66 03 3C  .............f.<
0360: 0B 00 0E 00 01 80 0B 0F  00 0B 0E 00 01 49 03 06  .............I..
0370: 0D 00 03 0F 00 25 80 03  0E 00 01 80 02 0F 00 26  .....%.........&
0380: 80 05 A2 03 B1 04 0F 00  10 00 02 10 00 02 80 01  ................
0390: 99 03 3C 0D 00 0E 00 01  80 0B 0F 00 0B 0E 00 01  ..<.............
03A0: 7C 03 0E 02 10 0B 00 0E  03 10 0C 00 0E 04 10 0D  |...............
03B0: 00 02 02 10 0C 80 00 C3  03 3C 03 10 01 80 01 80  .........<......
03C0: 01 CA 03 3D 03 10 01 80  01 80 02 04 10 0C 80 00  ...=............
03D0: DC 03 3C 03 10 27 80 01  80 01 E3 03 3D 03 10 27  ..<..'......=..'
03E0: 80 01 80 02 02 10 0C 80  00 01 04 02 03 10 0C 80  ................
03F0: 00 01 04 02 04 10 0C 80  00 01 04 1D 28 80 23 21  ............(.#!
0400: 00 03 13 17 29 80 03 14  17 2A 80 03 15 17 2B 80  ....)....*....+.
0410: 03 16 17 2C 80 03 17 17  2D 80 03 18 17 2E 80 03  ...,....-.......
0420: 19 17 2F 80 03 1A 17 30  80 03 1B 17 31 80 03 1C  ../....0....1...
0430: 17 32 80 03 1D 17 33 80  03 1E 17 34 80 24 35 80  .2....3....4.$5.
0440: 02 80 03 10 25 02 00 10  02 80 00 57 04 03 01 10  ....%......W....
0450: 18 80 21 00 01 FA 04 02  00 10 01 80 00 91 04 24  ..!............$
0460: 36 80 02 80 02 10 25 02  00 10 02 80 00 79 04 03  6.....%......y..
0470: 01 10 18 80 21 00 01 79  04 03 0F 00 00 10 02 00  ....!..y........
0480: 10 1D 80 02 8B 04 07 0F  00 37 80 01 04 05 01 FA  .........7......
0490: 04 02 00 10 27 80 00 FA  04 03 00 17 38 80 03 01  ....'.......8...
04A0: 17 39 80 03 02 17 09 80  03 03 17 3A 80 03 04 17  .9.........:....
04B0: 3B 80 03 05 17 3C 80 03  06 17 3D 80 03 07 17 3E  ;....<....=....>
04C0: 80 03 08 17 3F 80 03 09  17 40 80 03 0A 17 41 80  ....?....@....A.
04D0: 24 42 80 02 80 04 10 25  02 00 10 02 80 00 EA 04  $B.....%........
04E0: 03 01 10 18 80 21 00 01  EA 04 03 0F 00 00 10 07  .....!..........
04F0: 0F 00 24 80 01 04 05 01  FA 04 03 0F 00 00 10 07  ..$.............
0500: 0F 00 43 80 B1 04 0F 00  10 00 02 10 00 02 80 00  ..C.............
0510: 19 05 B1 03 0F 00 01 A5  02 21 00 01 1E 05 24 44  .........!....$D
0520: 80 02 80 00 00 25 02 00  10 02 80 00 38 05 03 01  .....%......8...
0530: 10 18 80 21 00 01 38 05  03 07 00 00 10 03 01 10  ...!..8.........
0540: 08 00 10 01 10 09 80 07  01 10 07 00 1D 1A 80 23  ...............#
0550: 1D 1B 80 23 21 00 06 02  10 06 03 10 06 04 10 06  ...#!...........
0560: 05 10 06 06 10 06 07 10  06 08 10 06 09 10 06 00  ................
0570: 17 06 01 17 06 02 17 06  03 17 06 04 17 06 05 17  ................
0580: 06 06 17 06 07 17 06 08  17 06 09 17 06 0A 17 06  ................
0590: 0B 17 06 0C 17 06 0D 17  06 0E 17 06 0F 17 06 10  ................
05A0: 17 06 11 17 06 12 17 06  13 17 06 14 17 1B 03 03  ................
05B0: 10 45 80 03 04 10 46 80  03 05 10 47 80 03 06 10  .E....F....G....
05C0: 48 80 03 07 10 49 80 03  08 10 4A 80 03 09 10 4B  H....I....J....K
05D0: 80 03 00 17 4C 80 03 01  17 4D 80 03 02 17 4E 80  ....L....M....N.
05E0: 03 03 17 4F 80 03 04 17  50 80 03 05 17 51 80 03  ...O....P....Q..
05F0: 06 17 52 80 03 07 17 53  80 03 08 17 54 80 03 09  ..R....S....T...
0600: 17 55 80 03 0A 17 56 80  03 0B 17 57 80 03 0C 17  .U....V....W....
0610: 58 80 03 0D 17 59 80 03  0E 17 5A 80 1B 03 03 10  X....Y....Z.....
0620: 5B 80 03 04 10 5C 80 03  05 10 5D 80 03 06 10 5E  [....\....]....^
0630: 80 03 07 10 5F 80 03 08  10 60 80 03 09 10 61 80  ...._....`....a.
0640: 03 00 17 25 80 03 01 17  62 80 03 02 17 63 80 03  ...%....b....c..
0650: 03 17 39 80 03 04 17 64  80 1B 03 03 10 65 80 03  ..9....d.....e..
0660: 04 10 66 80 03 05 10 67  80 03 06 10 68 80 03 07  ..f....g....h...
0670: 10 69 80 03 08 10 6A 80  03 09 10 6B 80 03 00 17  .i....j....k....
0680: 6C 80 03 01 17 6D 80 03  02 17 6E 80 03 03 17 6F  l....m....n....o
0690: 80 03 04 17 70 80 03 05  17 71 80 03 06 17 72 80  ....p....q....r.
06A0: 03 07 17 73 80 03 08 17  74 80 03 09 17 75 80 03  ...s....t....u..
06B0: 0A 17 76 80 03 0B 17 77  80 03 0C 17 78 80 03 0D  ..v....w....x...
06C0: 17 79 80 03 0E 17 7A 80  03 0F 17 7B 80 1B 03 03  .y....z....{....
06D0: 10 7C 80 03 04 10 7D 80  03 05 10 7E 80 03 06 10  .|....}....~....
06E0: 7F 80 03 07 10 80 80 03  08 10 81 80 03 09 10 82  ................
06F0: 80 03 00 17 83 80 03 01  17 84 80 03 02 17 85 80  ................
0700: 03 03 17 86 80 03 04 17  87 80 03 05 17 88 80 03  ................
0710: 06 17 89 80 03 07 17 8A  80 03 08 17 8B 80 03 09  ................
0720: 17 8C 80 03 0A 17 8D 80  03 0B 17 8E 80 03 0C 17  ................
0730: 8F 80 03 0D 17 90 80 03  0E 17 91 80 03 0F 17 92  ................
0740: 80 1B 03 03 10 93 80 03  04 10 94 80 03 05 10 95  ................
0750: 80 03 06 10 96 80 03 07  10 97 80 03 08 10 98 80  ................
0760: 03 09 10 99 80 03 00 17  9A 80 03 01 17 9B 80 03  ................
0770: 02 17 9C 80 03 03 17 9D  80 03 04 17 9E 80 03 05  ................
0780: 17 9F 80 03 06 17 A0 80  03 07 17 A1 80 03 08 17  ................
0790: A2 80 03 09 17 A3 80 03  0A 17 A4 80 03 0B 17 A5  ................
07A0: 80 03 0C 17 A6 80 03 0D  17 A7 80 03 0E 17 A8 80  ................
07B0: 03 0F 17 A9 80 03 10 17  AA 80 03 11 17 AB 80 03  ................
07C0: 12 17 AC 80 1B 03 03 10  AD 80 03 04 10 AE 80 1B  ................
```

#### Opcodes

```
  0: 0x0040 [0x1C] WAIT(30* ticks)
  1: 0x0043 [0x86] EventEntity->Render.Flags3 ^= 0x01
  2: 0x0049 [0x1E] EventEntity looks at LocalPlayer and starts talking
  3: 0x004E [0x6F] WAIT_FRAME_DELAY: Yield until WaitTime reaches zero
  4: 0x004F [0x70] WAIT_ENTITY_RENDER_FLAG: Wait while EventEntity->Render.Flags3 bit 2 is set (cancel turn if not)
  5: 0x0050 [0x3E] IF !(Work_Zone[8] bit 30*) GOTO 0x0064
  6: 0x0057 [0x3D] CLEAR_BIT_FLAG_CONDITIONAL(target_work_offset=Work_Zone[8], bit_index_work_offset=30*, condition_work_offset=1*)
  7: 0x005E [0x05] Work_Zone_1700[1] = 1
  8: 0x0061 [0x01] GOTO 0x0067
  9: 0x0064 [0x06] Work_Zone_1700[1] = 0

SUBROUTINE_0067:
 10: 0x0067 [0x06] ExtData[1]->WorkLocal[0] = 0
 11: 0x006A [0x3E] IF !(Work_Zone[8] bit 31*) GOTO 0x007B
 12: 0x0071 [0x3D] CLEAR_BIT_FLAG_CONDITIONAL(target_work_offset=Work_Zone[8], bit_index_work_offset=31*, condition_work_offset=1*)
 13: 0x0078 [0x01] GOTO 0x0082
 14: 0x007B [0x3C] SET_BIT_FLAG_CONDITIONAL(target_work_offset=ExtData[1]->WorkLocal[0], bit_index_work_offset=7*, condition_work_offset=1*)

SUBROUTINE_0082:
 15: 0x0082 [0xB1] GET_APP_FLAG(flag_type=0x02, dest_offset=0x0A)
 16: 0x0086 [0x02] IF !(ExtData[1]->WorkLocal[10] == 2*) GOTO 0x0098
 17: 0x008E [0x3D] CLEAR_BIT_FLAG_CONDITIONAL(target_work_offset=ExtData[1]->WorkLocal[0], bit_index_work_offset=8*, condition_work_offset=1*)
 18: 0x0095 [0x01] GOTO 0x009F
 19: 0x0098 [0x3C] SET_BIT_FLAG_CONDITIONAL(target_work_offset=ExtData[1]->WorkLocal[0], bit_index_work_offset=8*, condition_work_offset=1*)

SUBROUTINE_009F:
 20: 0x009F [0x02] IF !(Work_Zone[8] == 0*) GOTO 0x00AB
 21: 0x00A7 [0x1D] PRINT_EVENT_MESSAGE(message_id=7194*)
    → "$6, a hero's story! The deeds of %0, in all their gloryt"
 22: 0x00AA [0x23] WAIT_FOR_DIALOG_INTERACTION
 23: 0x00AB [0x1D] PRINT_EVENT_MESSAGE(message_id=7195*)
    → "A traveling bard walks far and near While wand'ring this celestial sphere From bustling towns to godforsaken lands. But none I love more than the swell Inhabitants of Vana'diel, Espec'lly when their gil comes to my hands.t"
 24: 0x00AE [0x23] WAIT_FOR_DIALOG_INTERACTION
 25: 0x00AF [0x1D] PRINT_EVENT_MESSAGE(message_id=7196*)
    → "Pay me what you think I'm worth And songs of legend may spring forth.t"
 26: 0x00B2 [0x23] WAIT_FOR_DIALOG_INTERACTION
 27: 0x00B3 [0x1D] PRINT_EVENT_MESSAGE(message_id=7197*)
    → "Open your ears and take a ration Of my melodic cantillation.t"
 28: 0x00B6 [0x23] WAIT_FOR_DIALOG_INTERACTION
 29: 0x00B7 [0x02] IF !(Work_Zone[2] == 4294967294*) GOTO 0x00C6
 30: 0x00BF [0x3C] SET_BIT_FLAG_CONDITIONAL(target_work_offset=ExtData[1]->WorkLocal[0], bit_index_work_offset=1*, condition_work_offset=1*)
 31: 0x00C6 [0x02] IF !(Work_Zone[3] == 4294967294*) GOTO 0x00D5
 32: 0x00CE [0x3C] SET_BIT_FLAG_CONDITIONAL(target_work_offset=ExtData[1]->WorkLocal[0], bit_index_work_offset=2*, condition_work_offset=1*)
 33: 0x00D5 [0x02] IF !(Work_Zone[4] == 4294967294*) GOTO 0x00E4
 34: 0x00DD [0x3C] SET_BIT_FLAG_CONDITIONAL(target_work_offset=ExtData[1]->WorkLocal[0], bit_index_work_offset=3*, condition_work_offset=1*)
 35: 0x00E4 [0x02] IF !(Work_Zone[5] == 4294967294*) GOTO 0x00F3
 36: 0x00EC [0x3C] SET_BIT_FLAG_CONDITIONAL(target_work_offset=ExtData[1]->WorkLocal[0], bit_index_work_offset=4*, condition_work_offset=1*)
 37: 0x00F3 [0x02] IF !(Work_Zone[6] == 4294967294*) GOTO 0x0102
 38: 0x00FB [0x3C] SET_BIT_FLAG_CONDITIONAL(target_work_offset=ExtData[1]->WorkLocal[0], bit_index_work_offset=5*, condition_work_offset=1*)
 39: 0x0102 [0x02] IF !(Work_Zone[7] == 4294967294*) GOTO 0x0111
 40: 0x010A [0x3C] SET_BIT_FLAG_CONDITIONAL(target_work_offset=ExtData[1]->WorkLocal[0], bit_index_work_offset=6*, condition_work_offset=1*)
 41: 0x0111 [0x03] ExtData[1]->WorkLocal[1] = Work_Zone[2]
 42: 0x0116 [0x03] ExtData[1]->WorkLocal[2] = Work_Zone[3]
 43: 0x011B [0x03] ExtData[1]->WorkLocal[3] = Work_Zone[4]
 44: 0x0120 [0x03] ExtData[1]->WorkLocal[4] = Work_Zone[5]
 45: 0x0125 [0x03] ExtData[1]->WorkLocal[5] = Work_Zone[6]
 46: 0x012A [0x03] ExtData[1]->WorkLocal[6] = Work_Zone[7]
 47: 0x012F [0x03] Work_Zone[2] = 200*
 48: 0x0134 [0x03] Work_Zone[3] = 300*
 49: 0x0139 [0x03] Work_Zone[4] = 400*
 50: 0x013E [0x03] Work_Zone[5] = 500*
 51: 0x0143 [0x03] Work_Zone[6] = 600*
 52: 0x0148 [0x03] Work_Zone[7] = 700*
 53: 0x014D [0x24] CREATE_DIALOG(message_id=7198*, default_option=0*, option_flags=ExtData[1]->WorkLocal[0])
    → "How much will you give the bard? [Nothing./$0 gil./$1 gil./$2 gil./$3 gil./$4 gil./$5 gil./Let the bard decide your title./Unlock achievement.]"
 54: 0x0154 [0x25] WAIT_DIALOG_SELECT()
 55: 0x0155 [0x02] IF !(Work_Zone[0] == 0*) GOTO 0x0167
 56: 0x015D [0x03] Work_Zone[1] = 1073741824*
 57: 0x0162 [0x21] END_EVENT
 58: 0x0163 [0x00] END_REQSTACK()

SUBROUTINE_02A5:
 59: 0x02A5 [0xB1] GET_APP_FLAG(flag_type=0x02, dest_offset=0x0A)
 60: 0x02A9 [0x02] IF !(ExtData[1]->WorkLocal[10] == 2*) GOTO 0x03B1
 61: 0x02B1 [0x03] ExtData[1]->WorkLocal[15] = 1*
 62: 0x02B6 [0x06] ExtData[1]->WorkLocal[11] = 0
 63: 0x02B9 [0x02] IF !(ExtData[1]->WorkLocal[15] > 18*) GOTO 0x02DC
 64: 0x02C1 [0xB1] GET_APP_FLAG(flag_type=0x04, dest_offset=0x0F)
 65: 0x02C5 [0x10] 0x0200 <<= ExtData[1]->WorkLocal[16]
 66: 0x02CA [0x02] IF !(0x0180 UNKNOWN_COND_12 0x02D6) GOTO 0x000B
 67: 0x02D2 [0x0F] 0x0100 ^= 0x0B80
 68: 0x02D7 [0x0F] 0x0100 ^= 0x02B9
 69: 0x02DC [0x06] ExtData[1]->WorkLocal[12] = 0
 70: 0x02DF [0x03] ExtData[1]->WorkLocal[15] = 19*
 71: 0x02E4 [0x03] ExtData[1]->WorkLocal[14] = 2*

SUBROUTINE_02E9:
 72: 0x02E9 [0x02] IF !(ExtData[1]->WorkLocal[15] > 32*) GOTO 0x030F
 73: 0x02F1 [0xB1] GET_APP_FLAG(flag_type=0x04, dest_offset=0x0F)
 74: 0x02F5 [0x10] 0x0200 <<= ExtData[1]->WorkLocal[16]
 75: 0x02FA [0x02] IF !(0x0180 UNKNOWN_COND_12 0x0306) GOTO 0x000C
 76: 0x0302 [0x0E] 0x0100 |= 0x0B80
 77: 0x0307 [0x0F] 0x0B00 ^= ExtData[1]->WorkLocal[14]
 78: 0x030C [0x01] GOTO 0x02E9
 79: 0x030F [0x03] ExtData[1]->WorkLocal[15] = 33*
 80: 0x0314 [0x03] ExtData[1]->WorkLocal[14] = 16*

SUBROUTINE_0319:
 81: 0x0319 [0x02] IF !(ExtData[1]->WorkLocal[15] > 38*) GOTO 0x033F
 82: 0x0321 [0xB1] GET_APP_FLAG(flag_type=0x04, dest_offset=0x0F)
 83: 0x0325 [0x10] 0x0200 <<= ExtData[1]->WorkLocal[16]
 84: 0x032A [0x02] IF !(0x0180 UNKNOWN_COND_12 0x0336) GOTO 0x000C
 85: 0x0332 [0x0E] 0x0100 |= 0x0B80
 86: 0x0337 [0x0F] 0x0B00 ^= ExtData[1]->WorkLocal[14]
 87: 0x033C [0x01] GOTO 0x0319
 88: 0x033F [0x03] ExtData[1]->WorkLocal[15] = 39*
 89: 0x0344 [0x03] ExtData[1]->WorkLocal[14] = 19*

SUBROUTINE_0349:
 90: 0x0349 [0x02] IF !(ExtData[1]->WorkLocal[15] > 40*) GOTO 0x036F
 91: 0x0351 [0xB1] GET_APP_FLAG(flag_type=0x04, dest_offset=0x0F)
 92: 0x0355 [0x10] 0x0200 <<= ExtData[1]->WorkLocal[16]
 93: 0x035A [0x02] IF !(0x0180 UNKNOWN_COND_12 0x0366) GOTO 0x000B
 94: 0x0362 [0x0E] 0x0100 |= 0x0B80
 95: 0x0367 [0x0F] 0x0B00 ^= ExtData[1]->WorkLocal[14]
 96: 0x036C [0x01] GOTO 0x0349
 97: 0x036F [0x06] ExtData[1]->WorkLocal[13] = 0
 98: 0x0372 [0x03] ExtData[1]->WorkLocal[15] = 41*
 99: 0x0377 [0x03] ExtData[1]->WorkLocal[14] = 1*

SUBROUTINE_037C:
100: 0x037C [0x02] IF !(ExtData[1]->WorkLocal[15] > 57*) GOTO 0x03A2
101: 0x0384 [0xB1] GET_APP_FLAG(flag_type=0x04, dest_offset=0x0F)
102: 0x0388 [0x10] 0x0200 <<= ExtData[1]->WorkLocal[16]
103: 0x038D [0x02] IF !(0x0180 UNKNOWN_COND_12 0x0399) GOTO 0x000D
104: 0x0395 [0x0E] 0x0100 |= 0x0B80
105: 0x039A [0x0F] 0x0B00 ^= ExtData[1]->WorkLocal[14]
106: 0x039F [0x01] GOTO 0x037C
107: 0x03A2 [0x0E] Work_Zone[2] |= ExtData[1]->WorkLocal[11]
108: 0x03A7 [0x0E] Work_Zone[3] |= ExtData[1]->WorkLocal[12]
109: 0x03AC [0x0E] Work_Zone[4] |= ExtData[1]->WorkLocal[13]
110: 0x03B1 [0x02] IF !(Work_Zone[2] == 4294967294*) GOTO 0x03C3
111: 0x03B9 [0x3C] SET_BIT_FLAG_CONDITIONAL(target_work_offset=Work_Zone[3], bit_index_work_offset=1*, condition_work_offset=1*)
112: 0x03C0 [0x01] GOTO 0x03CA
113: 0x03C3 [0x3D] CLEAR_BIT_FLAG_CONDITIONAL(target_work_offset=Work_Zone[3], bit_index_work_offset=1*, condition_work_offset=1*)

SUBROUTINE_03CA:
114: 0x03CA [0x02] IF !(Work_Zone[4] == 4294967294*) GOTO 0x03DC
115: 0x03D2 [0x3C] SET_BIT_FLAG_CONDITIONAL(target_work_offset=Work_Zone[3], bit_index_work_offset=22*, condition_work_offset=1*)
116: 0x03D9 [0x01] GOTO 0x03E3
117: 0x03DC [0x3D] CLEAR_BIT_FLAG_CONDITIONAL(target_work_offset=Work_Zone[3], bit_index_work_offset=22*, condition_work_offset=1*)

SUBROUTINE_03E3:
118: 0x03E3 [0x02] IF !(Work_Zone[2] == 4294967294*) GOTO 0x0401
119: 0x03EB [0x02] IF !(Work_Zone[3] == 4294967294*) GOTO 0x0401
120: 0x03F3 [0x02] IF !(Work_Zone[4] == 4294967294*) GOTO 0x0401
121: 0x03FB [0x1D] PRINT_EVENT_MESSAGE(message_id=7209*)
    → "You have no achievements to unlock."
122: 0x03FE [0x23] WAIT_FOR_DIALOG_INTERACTION
123: 0x03FF [0x21] END_EVENT
124: 0x0400 [0x00] END_REQSTACK()
125: 0x0401 [0x03] Work_Zone_1700[19] = 422*
126: 0x0406 [0x03] Work_Zone_1700[20] = 378*
127: 0x040B [0x03] Work_Zone_1700[21] = 302*
128: 0x0410 [0x03] Work_Zone_1700[22] = 433*
129: 0x0415 [0x03] Work_Zone_1700[23] = 467*
130: 0x041A [0x03] Work_Zone_1700[24] = 468*
131: 0x041F [0x03] Work_Zone_1700[25] = 164*
132: 0x0424 [0x03] Work_Zone_1700[26] = 166*
133: 0x0429 [0x03] Work_Zone_1700[27] = 167*
134: 0x042E [0x03] Work_Zone_1700[28] = 168*
135: 0x0433 [0x03] Work_Zone_1700[29] = 169*
136: 0x0438 [0x03] Work_Zone_1700[30] = 411*
137: 0x043D [0x24] CREATE_DIALOG(message_id=7206*, default_option=0*, option_flags=Work_Zone[3])
    → "Unlock which achievement? [None./Job Level./Synthesis Skill 100./San d'Oria Rank 10./Bastok Rank 10./Windurst Rank 10./Zilart Missions./Promathia Missions./Aht Urhgan Missions./Mercenary Rank./$27./$28./$29./$30./$31./$32./$33./$34./$35./$36./$37./$38./View next page.]"
138: 0x0444 [0x25] WAIT_DIALOG_SELECT()
139: 0x0445 [0x02] IF !(Work_Zone[0] == 0*) GOTO 0x0457
140: 0x044D [0x03] Work_Zone[1] = 1073741824*
141: 0x0452 [0x21] END_EVENT
142: 0x0453 [0x00] END_REQSTACK()

SUBROUTINE_0479:
143: 0x0479 [0x03] ExtData[1]->WorkLocal[15] = Work_Zone[0]
144: 0x047E [0x02] IF !(Work_Zone[0] <= 18*) GOTO 0x048B
145: 0x0486 [0x07] ExtData[1]->WorkLocal[15] += 20*
146: 0x048B [0x01] GOTO 0x0504

SUBROUTINE_04EA:
147: 0x04EA [0x03] ExtData[1]->WorkLocal[15] = Work_Zone[0]
148: 0x04EF [0x07] ExtData[1]->WorkLocal[15] += 40*
149: 0x04F4 [0x01] GOTO 0x0504

SUBROUTINE_04FA:
150: 0x04FA [0x03] ExtData[1]->WorkLocal[15] = Work_Zone[0]
151: 0x04FF [0x07] ExtData[1]->WorkLocal[15] += 17*

SUBROUTINE_0504:
152: 0x0504 [0xB1] GET_APP_FLAG(flag_type=0x04, dest_offset=0x0F)
153: 0x0508 [0x10] 0x0200 <<= ExtData[1]->WorkLocal[16]
154: 0x050D [0x02] IF !(0x80 == 0x0519) GOTO 0x0F03
155: 0x0515 [0x00] END_REQSTACK()

SUBROUTINE_051E:
156: 0x051E [0x24] CREATE_DIALOG(message_id=7201*, default_option=0*, option_flags=ExtData[1]->WorkLocal[0])
    → "Which title do you return to? [None./$1./$2./$3./$4./$5./$6./$7./$8./$9./$10./$11./$12./$13./$14./$15./$16./$17./$18./$19./$20./$21./$22./$23./$24./$25./$26./$27./$28.]"
157: 0x0525 [0x25] WAIT_DIALOG_SELECT()
158: 0x0526 [0x02] IF !(Work_Zone[0] == 0*) GOTO 0x0538
159: 0x052E [0x03] Work_Zone[1] = 1073741824*
160: 0x0533 [0x21] END_EVENT
161: 0x0534 [0x00] END_REQSTACK()

SUBROUTINE_0538:
162: 0x0538 [0x03] ExtData[1]->WorkLocal[7] = Work_Zone[0]
163: 0x053D [0x03] Work_Zone[1] = ExtData[1]->WorkLocal[8]
164: 0x0542 [0x10] Work_Zone[1] <<= 8*
165: 0x0547 [0x07] Work_Zone[1] += ExtData[1]->WorkLocal[7]
166: 0x054C [0x1D] PRINT_EVENT_MESSAGE(message_id=7202*)
    → "I'll add you to my repertoire And sing of you! So, au revoir!t"
167: 0x054F [0x23] WAIT_FOR_DIALOG_INTERACTION
168: 0x0550 [0x1D] PRINT_EVENT_MESSAGE(message_id=7203*)
    → "The power of song, a mystical thing That comes forth only when you sing. A minstrel's job in life is never done. So sing a doodle-doodle-lay And be upon your merry way-- And check your title, too, oh worthy one.t"
169: 0x0553 [0x23] WAIT_FOR_DIALOG_INTERACTION
170: 0x0554 [0x21] END_EVENT
171: 0x0555 [0x00] END_REQSTACK()

SUBROUTINE_0556:
172: 0x0556 [0x06] Work_Zone[2] = 0
173: 0x0559 [0x06] Work_Zone[3] = 0
174: 0x055C [0x06] Work_Zone[4] = 0
175: 0x055F [0x06] Work_Zone[5] = 0
176: 0x0562 [0x06] Work_Zone[6] = 0
177: 0x0565 [0x06] Work_Zone[7] = 0
178: 0x0568 [0x06] Work_Zone[8] = 0
179: 0x056B [0x06] Work_Zone[9] = 0
180: 0x056E [0x06] Work_Zone_1700[0] = 0
181: 0x0571 [0x06] Work_Zone_1700[1] = 0
182: 0x0574 [0x06] Work_Zone_1700[2] = 0
183: 0x0577 [0x06] Work_Zone_1700[3] = 0
184: 0x057A [0x06] Work_Zone_1700[4] = 0
185: 0x057D [0x06] Work_Zone_1700[5] = 0
186: 0x0580 [0x06] Work_Zone_1700[6] = 0
187: 0x0583 [0x06] Work_Zone_1700[7] = 0
188: 0x0586 [0x06] Work_Zone_1700[8] = 0
189: 0x0589 [0x06] Work_Zone_1700[9] = 0
190: 0x058C [0x06] Work_Zone_1700[10] = 0
191: 0x058F [0x06] Work_Zone_1700[11] = 0
192: 0x0592 [0x06] Work_Zone_1700[12] = 0
193: 0x0595 [0x06] Work_Zone_1700[13] = 0
194: 0x0598 [0x06] Work_Zone_1700[14] = 0
195: 0x059B [0x06] Work_Zone_1700[15] = 0
196: 0x059E [0x06] Work_Zone_1700[16] = 0
197: 0x05A1 [0x06] Work_Zone_1700[17] = 0
198: 0x05A4 [0x06] Work_Zone_1700[18] = 0
199: 0x05A7 [0x06] Work_Zone_1700[19] = 0
200: 0x05AA [0x06] Work_Zone_1700[20] = 0
201: 0x05AD [0x1B] RETURN

SUBROUTINE_05AE:
202: 0x05AE [0x03] Work_Zone[3] = 206*
203: 0x05B3 [0x03] Work_Zone[4] = 115*
204: 0x05B8 [0x03] Work_Zone[5] = 116*
205: 0x05BD [0x03] Work_Zone[6] = 120*
206: 0x05C2 [0x03] Work_Zone[7] = 125*
207: 0x05C7 [0x03] Work_Zone[8] = 126*
208: 0x05CC [0x03] Work_Zone[9] = 129*
209: 0x05D1 [0x03] Work_Zone_1700[0] = 132*
210: 0x05D6 [0x03] Work_Zone_1700[1] = 136*
211: 0x05DB [0x03] Work_Zone_1700[2] = 140*
212: 0x05E0 [0x03] Work_Zone_1700[3] = 119*
213: 0x05E5 [0x03] Work_Zone_1700[4] = 111*
214: 0x05EA [0x03] Work_Zone_1700[5] = 114*
215: 0x05EF [0x03] Work_Zone_1700[6] = 112*
216: 0x05F4 [0x03] Work_Zone_1700[7] = 113*
217: 0x05F9 [0x03] Work_Zone_1700[8] = 215*
218: 0x05FE [0x03] Work_Zone_1700[9] = 292*
219: 0x0603 [0x03] Work_Zone_1700[10] = 303*
220: 0x0608 [0x03] Work_Zone_1700[11] = 304*
221: 0x060D [0x03] Work_Zone_1700[12] = 305*
222: 0x0612 [0x03] Work_Zone_1700[13] = 595*
223: 0x0617 [0x03] Work_Zone_1700[14] = 894*
224: 0x061C [0x1B] RETURN

SUBROUTINE_061D:
225: 0x061D [0x03] Work_Zone[3] = 117*
226: 0x0622 [0x03] Work_Zone[4] = 121*
227: 0x0627 [0x03] Work_Zone[5] = 122*
228: 0x062C [0x03] Work_Zone[6] = 123*
229: 0x0631 [0x03] Work_Zone[7] = 133*
230: 0x0636 [0x03] Work_Zone[8] = 134*
231: 0x063B [0x03] Work_Zone[9] = 135*
232: 0x0640 [0x03] Work_Zone_1700[0] = 41*
233: 0x0645 [0x03] Work_Zone_1700[1] = 207*
234: 0x064A [0x03] Work_Zone_1700[2] = 42*
235: 0x064F [0x03] Work_Zone_1700[3] = 138*
236: 0x0654 [0x03] Work_Zone_1700[4] = 216*
237: 0x0659 [0x1B] RETURN

SUBROUTINE_065A:
238: 0x065A [0x03] Work_Zone[3] = 124*
239: 0x065F [0x03] Work_Zone[4] = 128*
240: 0x0664 [0x03] Work_Zone[5] = 50*
241: 0x0669 [0x03] Work_Zone[6] = 46*
242: 0x066E [0x03] Work_Zone[7] = 47*
243: 0x0673 [0x03] Work_Zone[8] = 211*
244: 0x0678 [0x03] Work_Zone[9] = 190*
245: 0x067D [0x03] Work_Zone_1700[0] = 337*
246: 0x0682 [0x03] Work_Zone_1700[1] = 127*
247: 0x0687 [0x03] Work_Zone_1700[2] = 130*
248: 0x068C [0x03] Work_Zone_1700[3] = 131*
249: 0x0691 [0x03] Work_Zone_1700[4] = 137*
250: 0x0696 [0x03] Work_Zone_1700[5] = 139*
251: 0x069B [0x03] Work_Zone_1700[6] = 187*
252: 0x06A0 [0x03] Work_Zone_1700[7] = 188*
253: 0x06A5 [0x03] Work_Zone_1700[8] = 189*
254: 0x06AA [0x03] Work_Zone_1700[9] = 118*
255: 0x06AF [0x03] Work_Zone_1700[10] = 208*
256: 0x06B4 [0x03] Work_Zone_1700[11] = 217*
257: 0x06B9 [0x03] Work_Zone_1700[12] = 338*
258: 0x06BE [0x03] Work_Zone_1700[13] = 343*
259: 0x06C3 [0x03] Work_Zone_1700[14] = 1130*
260: 0x06C8 [0x03] Work_Zone_1700[15] = 1131*
261: 0x06CD [0x1B] RETURN

SUBROUTINE_06CE:
262: 0x06CE [0x03] Work_Zone[3] = 221*
263: 0x06D3 [0x03] Work_Zone[4] = 222*
264: 0x06D8 [0x03] Work_Zone[5] = 197*
265: 0x06DD [0x03] Work_Zone[6] = 203*
266: 0x06E2 [0x03] Work_Zone[7] = 171*
267: 0x06E7 [0x03] Work_Zone[8] = 260*
268: 0x06EC [0x03] Work_Zone[9] = 283*
269: 0x06F1 [0x03] Work_Zone_1700[0] = 284*
270: 0x06F6 [0x03] Work_Zone_1700[1] = 224*
271: 0x06FB [0x03] Work_Zone_1700[2] = 287*
272: 0x0700 [0x03] Work_Zone_1700[3] = 263*
273: 0x0705 [0x03] Work_Zone_1700[4] = 256*
274: 0x070A [0x03] Work_Zone_1700[5] = 293*
275: 0x070F [0x03] Work_Zone_1700[6] = 294*
276: 0x0714 [0x03] Work_Zone_1700[7] = 299*
277: 0x0719 [0x03] Work_Zone_1700[8] = 424*
278: 0x071E [0x03] Work_Zone_1700[9] = 784*
279: 0x0723 [0x03] Work_Zone_1700[10] = 945*
280: 0x0728 [0x03] Work_Zone_1700[11] = 947*
281: 0x072D [0x03] Work_Zone_1700[12] = 980*
282: 0x0732 [0x03] Work_Zone_1700[13] = 1025*
283: 0x0737 [0x03] Work_Zone_1700[14] = 1026*
284: 0x073C [0x03] Work_Zone_1700[15] = 1027*
285: 0x0741 [0x1B] RETURN

SUBROUTINE_0742:
286: 0x0742 [0x03] Work_Zone[3] = 246*
287: 0x0747 [0x03] Work_Zone[4] = 247*
288: 0x074C [0x03] Work_Zone[5] = 248*
289: 0x0751 [0x03] Work_Zone[6] = 249*
290: 0x0756 [0x03] Work_Zone[7] = 250*
291: 0x075B [0x03] Work_Zone[8] = 251*
292: 0x0760 [0x03] Work_Zone[9] = 252*
293: 0x0765 [0x03] Work_Zone_1700[0] = 253*
294: 0x076A [0x03] Work_Zone_1700[1] = 254*
295: 0x076F [0x03] Work_Zone_1700[2] = 255*
296: 0x0774 [0x03] Work_Zone_1700[3] = 319*
297: 0x0779 [0x03] Work_Zone_1700[4] = 320*
298: 0x077E [0x03] Work_Zone_1700[5] = 321*
299: 0x0783 [0x03] Work_Zone_1700[6] = 579*
300: 0x0788 [0x03] Work_Zone_1700[7] = 325*
301: 0x078D [0x03] Work_Zone_1700[8] = 326*
302: 0x0792 [0x03] Work_Zone_1700[9] = 327*
303: 0x0797 [0x03] Work_Zone_1700[10] = 581*
304: 0x079C [0x03] Work_Zone_1700[11] = 331*
305: 0x07A1 [0x03] Work_Zone_1700[12] = 332*
306: 0x07A6 [0x03] Work_Zone_1700[13] = 333*
307: 0x07AB [0x03] Work_Zone_1700[14] = 583*
308: 0x07B0 [0x03] Work_Zone_1700[15] = 334*
309: 0x07B5 [0x03] Work_Zone_1700[16] = 335*
310: 0x07BA [0x03] Work_Zone_1700[17] = 336*
311: 0x07BF [0x03] Work_Zone_1700[18] = 584*
312: 0x07C4 [0x1B] RETURN

SUBROUTINE_07C5:
313: 0x07C5 [0x03] Work_Zone[3] = 617*
314: 0x07CA [0x03] Work_Zone[4] = 620*
315: 0x07CF [0x1B] RETURN
```

#### Data or dead code:

```
# Dead code (unreachable instructions):
     0x0164 [0x01] GOTO 0x051E
     0x0296 [0x01] GOTO 0x051E
# Dead code (unreachable instructions):
     0x0454 [0x01] GOTO 0x04FA
     0x0476 [0x01] GOTO 0x0479
# Dead code (unreachable instructions):
     0x048E [0x01] GOTO 0x04FA
     0x04E7 [0x01] GOTO 0x04EA
# Dead code (unreachable instructions):
     0x04F7 [0x01] GOTO 0x04FA
# Dead code (unreachable instructions):
     0x0516 [0x01] GOTO 0x02A5
     0x0519 [0x21] END_EVENT
     0x051A [0x00] END_REQSTACK()
     0x051B [0x01] GOTO 0x051E
# Dead code (unreachable instructions):
     0x0535 [0x01] GOTO 0x0538
```
