# 17756327 - Festive Moogle

## Common Data

| Field            | Value                    |
|------------------|--------------------------|
| Zone             | Windurst Walls (ID: 239) |
| Block Size       | 4696 bytes               |
| Total Events     | 4                        |
| References Count | 292                      |

## List of Events

| Event ID              | Entrypoint   |   Size |   Instructions |
|-----------------------|--------------|--------|----------------|
| [65535](#event-65535) | 0x0000       |      1 |              1 |
| [503](#event-503)     | 0x0001       |    173 |             31 |
| [504](#event-504)     | 0x00AE       |     25 |              9 |
| [531](#event-531)     | 0x00C7       |   3295 |            386 |

## DAT References (imed_data)

|   Index | Hex Value   |   Dec Value |
|---------|-------------|-------------|
|       0 | 0x0000      |           0 |
|       1 | 0x0001      |           1 |
|       2 | 0x0002      |           2 |
|       3 | 0x0003      |           3 |
|       4 | 0x0004      |           4 |
|       5 | 0x0005      |           5 |
|       6 | 0x0006      |           6 |
|       7 | 0x0007      |           7 |
|       8 | 0x0008      |           8 |
|       9 | 0x25A8      |        9640 |
|      10 | 0x25A9      |        9641 |
|      11 | 0x25AA      |        9642 |
|      12 | 0x40000000  |  1073741824 |
|      13 | 0x25AB      |        9643 |
|      14 | 0x220C      |        8716 |
|      15 | 0x25AD      |        9645 |
|      16 | 0x25AE      |        9646 |
|      17 | 0x25AF      |        9647 |
|      18 | 0x25B0      |        9648 |
|      19 | 0x0011      |          17 |
|      20 | 0x0012      |          18 |
|      21 | 0x0010      |          16 |
|      22 | 0x25B3      |        9651 |
|      23 | 0x25B4      |        9652 |
|      24 | 0x25B7      |        9655 |
|      25 | 0x000F      |          15 |
|      26 | 0x001F      |          31 |
|      27 | 0x0022      |          34 |
|      28 | 0x0016      |          22 |
|      29 | 0xFFFFFFFF  |  4294967295 |
|      30 | 0x25B1      |        9649 |
|      31 | 0x000B      |          11 |
|      32 | 0x000C      |          12 |
|      33 | 0x000A      |          10 |
|      34 | 0x25B5      |        9653 |
|      35 | 0x0037      |          55 |
|      36 | 0x003C      |          60 |
|      37 | 0x0015      |          21 |
|      38 | 0x0019      |          25 |
|      39 | 0x001D      |          29 |
|      40 | 0x25B2      |        9650 |
|      41 | 0x25B6      |        9654 |
|      42 | 0x0028      |          40 |
|      43 | 0x220A      |        8714 |
|      44 | 0x220B      |        8715 |
|      45 | 0x23C6      |        9158 |
|      46 | 0x23D6      |        9174 |
|      47 | 0x23C0      |        9152 |
|      48 | 0x23CE      |        9166 |
|      49 | 0x40AB      |       16555 |
|      50 | 0x44F4      |       17652 |
|      51 | 0x3212      |       12818 |
|      52 | 0x3008      |       12296 |
|      53 | 0x3192      |       12690 |
|      54 | 0x3292      |       12946 |
|      55 | 0x454A      |       17738 |
|      56 | 0x4551      |       17745 |
|      57 | 0x46C9      |       18121 |
|      58 | 0x47D1      |       18385 |
|      59 | 0x499F      |       18847 |
|      60 | 0x4ADB      |       19163 |
|      61 | 0x2C5A      |       11354 |
|      62 | 0x2CED      |       11501 |
|      63 | 0x6F70      |       28528 |
|      64 | 0x6BA4      |       27556 |
|      65 | 0x6BA5      |       27557 |
|      66 | 0x6CDA      |       27866 |
|      67 | 0x6CDB      |       27867 |
|      68 | 0x6C43      |       27715 |
|      69 | 0x6C44      |       27716 |
|      70 | 0x6845      |       26693 |
|      71 | 0x6BE9      |       27625 |
|      72 | 0x6BEF      |       27631 |
|      73 | 0x685D      |       26717 |
|      74 | 0x6CFB      |       27899 |
|      75 | 0x6E19      |       28185 |
|      76 | 0x6EA4      |       28324 |
|      77 | 0x5034      |       20532 |
|      78 | 0x6C45      |       27717 |
|      79 | 0x5273      |       21107 |
|      80 | 0x4820      |       18464 |
|      81 | 0x49E0      |       18912 |
|      82 | 0x4883      |       18563 |
|      83 | 0x4871      |       18545 |
|      84 | 0x49E1      |       18913 |
|      85 | 0x6C75      |       27765 |
|      86 | 0x6D07      |       27911 |
|      87 | 0x6C6D      |       27757 |
|      88 | 0x50E9      |       20713 |
|      89 | 0x6942      |       26946 |
|      90 | 0x6A91      |       27281 |
|      91 | 0x6B3F      |       27455 |
|      92 | 0x6954      |       26964 |
|      93 | 0x684F      |       26703 |
|      94 | 0x6872      |       26738 |
|      95 | 0x685F      |       26719 |
|      96 | 0x5267      |       21095 |
|      97 | 0x694C      |       26956 |
|      98 | 0x6F92      |       28562 |
|      99 | 0x6F93      |       28563 |
|     100 | 0x0466      |        1126 |
|     101 | 0x0467      |        1127 |
|     102 | 0x0B8B      |        2955 |
|     103 | 0x0B8C      |        2956 |
|     104 | 0x0B8D      |        2957 |
|     105 | 0x0FE0      |        4064 |
|     106 | 0x0FE1      |        4065 |
|     107 | 0x0FE2      |        4066 |
|     108 | 0x0FE3      |        4067 |
|     109 | 0x0FE4      |        4068 |
|     110 | 0x0F3A      |        3898 |
|     111 | 0x0F3F      |        3903 |
|     112 | 0x0F44      |        3908 |
|     113 | 0x0F49      |        3913 |
|     114 | 0x0FC8      |        4040 |
|     115 | 0x2228      |        8744 |
|     116 | 0x2306      |        8966 |
|     117 | 0x2307      |        8967 |
|     118 | 0x2308      |        8968 |
|     119 | 0x2309      |        8969 |
|     120 | 0x230A      |        8970 |
|     121 | 0x0F70      |        3952 |
|     122 | 0x22E3      |        8931 |
|     123 | 0x22E6      |        8934 |
|     124 | 0x22E9      |        8937 |
|     125 | 0x22EC      |        8940 |
|     126 | 0x22EF      |        8943 |
|     127 | 0x22F2      |        8946 |
|     128 | 0x22F5      |        8949 |
|     129 | 0x22F8      |        8952 |
|     130 | 0x22FB      |        8955 |
|     131 | 0x22FE      |        8958 |
|     132 | 0x2301      |        8961 |
|     133 | 0x2304      |        8964 |
|     134 | 0x0F6E      |        3950 |
|     135 | 0x0FC4      |        4036 |
|     136 | 0x235A      |        9050 |
|     137 | 0x2780      |       10112 |
|     138 | 0x2781      |       10113 |
|     139 | 0x2786      |       10118 |
|     140 | 0x2788      |       10120 |
|     141 | 0x278C      |       10124 |
|     142 | 0x278D      |       10125 |
|     143 | 0x278E      |       10126 |
|     144 | 0x278F      |       10127 |
|     145 | 0x2790      |       10128 |
|     146 | 0x2791      |       10129 |
|     147 | 0x2796      |       10134 |
|     148 | 0x2798      |       10136 |
|     149 | 0x279D      |       10141 |
|     150 | 0x279E      |       10142 |
|     151 | 0x27A0      |       10144 |
|     152 | 0x27A1      |       10145 |
|     153 | 0x27A5      |       10149 |
|     154 | 0x27A6      |       10150 |
|     155 | 0x27A7      |       10151 |
|     156 | 0x27AB      |       10155 |
|     157 | 0x27AC      |       10156 |
|     158 | 0x27B1      |       10161 |
|     159 | 0x27B2      |       10162 |
|     160 | 0x2207      |        8711 |
|     161 | 0x0E72      |        3698 |
|     162 | 0x0E79      |        3705 |
|     163 | 0x0032      |          50 |
|     164 | 0xC350      |       50000 |
|     165 | 0x2782      |       10114 |
|     166 | 0x2783      |       10115 |
|     167 | 0x2784      |       10116 |
|     168 | 0x2785      |       10117 |
|     169 | 0x2789      |       10121 |
|     170 | 0x278A      |       10122 |
|     171 | 0x278B      |       10123 |
|     172 | 0x2792      |       10130 |
|     173 | 0x2793      |       10131 |
|     174 | 0x2794      |       10132 |
|     175 | 0x2795      |       10133 |
|     176 | 0x2797      |       10135 |
|     177 | 0x279A      |       10138 |
|     178 | 0x279B      |       10139 |
|     179 | 0x279C      |       10140 |
|     180 | 0x279F      |       10143 |
|     181 | 0x27A2      |       10146 |
|     182 | 0x27A3      |       10147 |
|     183 | 0x27A4      |       10148 |
|     184 | 0x27A8      |       10152 |
|     185 | 0x27A9      |       10153 |
|     186 | 0x27AA      |       10154 |
|     187 | 0x27B3      |       10163 |
|     188 | 0x27B4      |       10164 |
|     189 | 0x27B5      |       10165 |
|     190 | 0x27B6      |       10166 |
|     191 | 0x27BE      |       10174 |
|     192 | 0x27BF      |       10175 |
|     193 | 0x27C0      |       10176 |
|     194 | 0x27C1      |       10177 |
|     195 | 0x27C2      |       10178 |
|     196 | 0x27C3      |       10179 |
|     197 | 0x27C4      |       10180 |
|     198 | 0x27C5      |       10181 |
|     199 | 0x27C6      |       10182 |
|     200 | 0x27C7      |       10183 |
|     201 | 0x27CB      |       10187 |
|     202 | 0x0109      |         265 |
|     203 | 0x010A      |         266 |
|     204 | 0x010B      |         267 |
|     205 | 0x010C      |         268 |
|     206 | 0x010D      |         269 |
|     207 | 0x010E      |         270 |
|     208 | 0x010F      |         271 |
|     209 | 0x0110      |         272 |
|     210 | 0x0111      |         273 |
|     211 | 0x0112      |         274 |
|     212 | 0x0113      |         275 |
|     213 | 0x0114      |         276 |
|     214 | 0x0115      |         277 |
|     215 | 0x0116      |         278 |
|     216 | 0x0117      |         279 |
|     217 | 0x0118      |         280 |
|     218 | 0x0119      |         281 |
|     219 | 0x011A      |         282 |
|     220 | 0x011C      |         284 |
|     221 | 0x0E6D      |        3693 |
|     222 | 0x0E6E      |        3694 |
|     223 | 0x47E1      |       18401 |
|     224 | 0x499A      |       18842 |
|     225 | 0x3EF6      |       16118 |
|     226 | 0x3EF7      |       16119 |
|     227 | 0x2C1A      |       11290 |
|     228 | 0x3F36      |       16182 |
|     229 | 0x3F37      |       16183 |
|     230 | 0x2CEC      |       11500 |
|     231 | 0x2E23      |       11811 |
|     232 | 0x49C0      |       18880 |
|     233 | 0x28BD      |       10429 |
|     234 | 0x280A      |       10250 |
|     235 | 0x4287      |       17031 |
|     236 | 0x4288      |       17032 |
|     237 | 0x49C1      |       18881 |
|     238 | 0x2A37      |       10807 |
|     239 | 0x2835      |       10293 |
|     240 | 0x6C6F      |       27759 |
|     241 | 0x5320      |       21280 |
|     242 | 0x51D9      |       20953 |
|     243 | 0x0140      |         320 |
|     244 | 0x0108      |         264 |
|     245 | 0x0E5D      |        3677 |
|     246 | 0x011E      |         286 |
|     247 | 0x011F      |         287 |
|     248 | 0x6686      |       26246 |
|     249 | 0x6687      |       26247 |
|     250 | 0x6688      |       26248 |
|     251 | 0x6689      |       26249 |
|     252 | 0x668A      |       26250 |
|     253 | 0x668B      |       26251 |
|     254 | 0x668C      |       26252 |
|     255 | 0x668D      |       26253 |
|     256 | 0x668E      |       26254 |
|     257 | 0x668F      |       26255 |
|     258 | 0x6690      |       26256 |
|     259 | 0x6691      |       26257 |
|     260 | 0x6692      |       26258 |
|     261 | 0x6693      |       26259 |
|     262 | 0x6694      |       26260 |
|     263 | 0x6695      |       26261 |
|     264 | 0x6696      |       26262 |
|     265 | 0x6697      |       26263 |
|     266 | 0x6698      |       26264 |
|     267 | 0x6699      |       26265 |
|     268 | 0x669A      |       26266 |
|     269 | 0x669B      |       26267 |
|     270 | 0x0E38      |        3640 |
|     271 | 0x0E43      |        3651 |
|     272 | 0x0E81      |        3713 |
|     273 | 0x0E82      |        3714 |
|     274 | 0x0E83      |        3715 |
|     275 | 0x0E85      |        3717 |
|     276 | 0x2404      |        9220 |
|     277 | 0x2405      |        9221 |
|     278 | 0x2407      |        9223 |
|     279 | 0x2406      |        9222 |
|     280 | 0x1964      |        6500 |
|     281 | 0x2409      |        9225 |
|     282 | 0x2413      |        9235 |
|     283 | 0x2414      |        9236 |
|     284 | 0x2415      |        9237 |
|     285 | 0x2416      |        9238 |
|     286 | 0x2417      |        9239 |
|     287 | 0x2742      |       10050 |
|     288 | 0x2743      |       10051 |
|     289 | 0x2744      |       10052 |
|     290 | 0x2745      |       10053 |
|     291 | 0x2748      |       10056 |

## String References

- **9640**: Hey! The MHMU has a basketful of special goodies for all the brave adventurers who work hard to protect the poor little moogles of Vana'diel, kupo.
- **9641**: Oh, and your name is on my list, <Player>! Let me show you the items you can choose from...
- **9642**: Choose wisely... [Never mind./$0./$1./$2./$3./$4./$5./$6./$7.]
- **9643**: Hey! The MHMU has a basketful of special goodies for all the brave adventurers who work hard to protect the poor little moogles of Vana'diel, kupo. Ah, but it looks like I have nothing for you! Sorry!
- **9645**: Should you get your mighty mitts on anything like $0, make it known by trading them to me. I'll give you a great gift in return, kupo.
- **9646**: So you've deemed it time to trade in a ticket-like $0, huh? For what exemplars of enjoyment will you exchange it, kupo?
- **9647**: What do you want in exchange? [Nothing./Equipment./Items./Currency.]
- **9648**: What equipment? [Never mind./$1./$2./$3./$4./$5./$6./$7./$8./$9./$10./$11./$12./$13./$14./$15./$16./Previous page./Next page.]
- **9649**: What item? [None./$1. ($11)/$2. ($12)/$3. ($13)/$4. ($14)/$5. ($15)/$6. ($16)/$7. ($17)/$8. ($18)/$9. ($19)/$10. ($20)/Previous page./Next page.]
- **9650**: What currency? [Never mind./Conquest Points. ($1)/Imperial Standing. ($2)/Allied Notes. ($3)/Bayld. ($4)/[Fishermen's Guild/Carpenters' Guild/Blacksmiths' Guild/Goldsmiths' Guild/Weavers' Guild/Tanners' Guild/Boneworkers' Guild/Alchemists' Guild/Culinarians' Guild] points. ($5)]
- **9651**: You can't carry any more $0, kupo. Please pick another provision.
- **9652**: You sure you're perfectly pleased with $0, kupo?
- **9653**: You sure you're perfectly pleased with $1 $0 , kupo?
- **9654**: Are you completely confident you want $1 [Conquest Points/Imperial Standing/Allied Notes/Bayld/Fishermen's Guild points/Carpenters' Guild points/Blacksmiths' Guild points/Goldsmiths' Guild points/Weavers' Guild points/Tanners' Guild points/Boneworkers' Guild points/Alchemists' Guild points/Culinarians' Guild points], kupo?
- **9655**: Well, are you? [You know it, poet./No, I'm not, tot.]

## Events

### Event 65535

#### Metadata

| Field        | Value   |
|--------------|---------|
| Entrypoint   | 0x0000  |
| Data Size    | 1 bytes |
| Instructions | 1       |

```
      00 01 02 03 04 05 06 07  08 09 0A 0B 0C 0D 0E 0F
      -- -- -- -- -- -- -- --  -- -- -- -- -- -- -- --
0000: 00                                                .               
```

#### Opcodes

```
  0: 0x0000 [0x00] END_REQSTACK()
```

### Event 503

#### Metadata

| Field        | Value     |
|--------------|-----------|
| Entrypoint   | 0x0001    |
| Data Size    | 173 bytes |
| Instructions | 31        |

```
      00 01 02 03 04 05 06 07  08 09 0A 0B 0C 0D 0E 0F
      -- -- -- -- -- -- -- --  -- -- -- -- -- -- -- --
0000:    42 02 02 10 00 80 00  11 00 3C 00 00 01 80 01   B........<.....
0010: 80 02 03 10 00 80 00 20  00 3C 00 00 02 80 01 80  ....... .<......
0020: 02 04 10 00 80 00 2F 00  3C 00 00 03 80 01 80 02  ....../.<.......
0030: 05 10 00 80 00 3E 00 3C  00 00 04 80 01 80 02 06  .....>.<........
0040: 10 00 80 00 4D 00 3C 00  00 05 80 01 80 02 07 10  ....M.<.........
0050: 00 80 00 5C 00 3C 00 00  06 80 01 80 02 08 10 00  ...\.<..........
0060: 80 00 6B 00 3C 00 00 07  80 01 80 02 09 10 00 80  ..k.<...........
0070: 00 7A 00 3C 00 00 08 80  01 80 1E F0 FF FF 7F 1D  .z.<............
0080: 09 80 23 1D 0A 80 23 24  0B 80 00 80 00 00 25 02  ..#...#$......%.
0090: 00 10 00 80 00 9F 00 03  01 10 0C 80 01 9F 00 02  ................
00A0: 00 10 00 80 02 AC 00 03  01 10 00 10 21 00        ............!.  
```

#### Opcodes

```
  0: 0x0001 [0x42] SET_CLI_EVENT_CANCEL_DATA()
  1: 0x0002 [0x02] IF !(Work_Zone[2] == 0*) GOTO 0x0011
  2: 0x000A [0x3C] SET_BIT_FLAG_CONDITIONAL(target_work_offset=ExtData[1]->WorkLocal[0], bit_index_work_offset=1*, condition_work_offset=1*)
  3: 0x0011 [0x02] IF !(Work_Zone[3] == 0*) GOTO 0x0020
  4: 0x0019 [0x3C] SET_BIT_FLAG_CONDITIONAL(target_work_offset=ExtData[1]->WorkLocal[0], bit_index_work_offset=2*, condition_work_offset=1*)
  5: 0x0020 [0x02] IF !(Work_Zone[4] == 0*) GOTO 0x002F
  6: 0x0028 [0x3C] SET_BIT_FLAG_CONDITIONAL(target_work_offset=ExtData[1]->WorkLocal[0], bit_index_work_offset=3*, condition_work_offset=1*)
  7: 0x002F [0x02] IF !(Work_Zone[5] == 0*) GOTO 0x003E
  8: 0x0037 [0x3C] SET_BIT_FLAG_CONDITIONAL(target_work_offset=ExtData[1]->WorkLocal[0], bit_index_work_offset=4*, condition_work_offset=1*)
  9: 0x003E [0x02] IF !(Work_Zone[6] == 0*) GOTO 0x004D
 10: 0x0046 [0x3C] SET_BIT_FLAG_CONDITIONAL(target_work_offset=ExtData[1]->WorkLocal[0], bit_index_work_offset=5*, condition_work_offset=1*)
 11: 0x004D [0x02] IF !(Work_Zone[7] == 0*) GOTO 0x005C
 12: 0x0055 [0x3C] SET_BIT_FLAG_CONDITIONAL(target_work_offset=ExtData[1]->WorkLocal[0], bit_index_work_offset=6*, condition_work_offset=1*)
 13: 0x005C [0x02] IF !(Work_Zone[8] == 0*) GOTO 0x006B
 14: 0x0064 [0x3C] SET_BIT_FLAG_CONDITIONAL(target_work_offset=ExtData[1]->WorkLocal[0], bit_index_work_offset=7*, condition_work_offset=1*)
 15: 0x006B [0x02] IF !(Work_Zone[9] == 0*) GOTO 0x007A
 16: 0x0073 [0x3C] SET_BIT_FLAG_CONDITIONAL(target_work_offset=ExtData[1]->WorkLocal[0], bit_index_work_offset=8*, condition_work_offset=1*)
 17: 0x007A [0x1E] EventEntity looks at LocalPlayer and starts talking
 18: 0x007F [0x1D] PRINT_EVENT_MESSAGE(message_id=9640*)
    → "Hey! The MHMU has a basketful of special goodies for all the brave adventurers who work hard to protect the poor little moogles of Vana'diel, kupo."
 19: 0x0082 [0x23] WAIT_FOR_DIALOG_INTERACTION
 20: 0x0083 [0x1D] PRINT_EVENT_MESSAGE(message_id=9641*)
    → "Oh, and your name is on my list, <Player>! Let me show you the items you can choose from..."
 21: 0x0086 [0x23] WAIT_FOR_DIALOG_INTERACTION
 22: 0x0087 [0x24] CREATE_DIALOG(message_id=9642*, default_option=0*, option_flags=ExtData[1]->WorkLocal[0])
    → "Choose wisely... [Never mind./$0./$1./$2./$3./$4./$5./$6./$7.]"
 23: 0x008E [0x25] WAIT_DIALOG_SELECT()
 24: 0x008F [0x02] IF !(Work_Zone[0] == 0*) GOTO 0x009F
 25: 0x0097 [0x03] Work_Zone[1] = 1073741824*
 26: 0x009C [0x01] GOTO 0x009F

SUBROUTINE_009F:
 27: 0x009F [0x02] IF !(Work_Zone[0] <= 0*) GOTO 0x00AC
 28: 0x00A7 [0x03] Work_Zone[1] = Work_Zone[0]
 29: 0x00AC [0x21] END_EVENT
 30: 0x00AD [0x00] END_REQSTACK()
```

### Event 504

#### Metadata

| Field        | Value    |
|--------------|----------|
| Entrypoint   | 0x00AE   |
| Data Size    | 25 bytes |
| Instructions | 9        |

```
      00 01 02 03 04 05 06 07  08 09 0A 0B 0C 0D 0E 0F
      -- -- -- -- -- -- -- --  -- -- -- -- -- -- -- --
00A0:                                            1E F0                ..
00B0: FF FF 7F 1D 0D 80 23 03  02 10 0E 80 1D 0F 80 23  ......#........#
00C0: 03 01 10 01 80 21 00                              .....!.         
```

#### Opcodes

```
  0: 0x00AE [0x1E] EventEntity looks at LocalPlayer and starts talking
  1: 0x00B3 [0x1D] PRINT_EVENT_MESSAGE(message_id=9643*)
    → "Hey! The MHMU has a basketful of special goodies for all the brave adventurers who work hard to protect the poor little moogles of Vana'diel, kupo. Ah, but it looks like I have nothing for you! Sorry!"
  2: 0x00B6 [0x23] WAIT_FOR_DIALOG_INTERACTION
  3: 0x00B7 [0x03] Work_Zone[2] = 8716*
  4: 0x00BC [0x1D] PRINT_EVENT_MESSAGE(message_id=9645*)
    → "Should you get your mighty mitts on anything like $0, make it known by trading them to me. I'll give you a great gift in return, kupo."
  5: 0x00BF [0x23] WAIT_FOR_DIALOG_INTERACTION
  6: 0x00C0 [0x03] Work_Zone[1] = 1*
  7: 0x00C5 [0x21] END_EVENT
  8: 0x00C6 [0x00] END_REQSTACK()
```

### Event 531

#### Metadata

| Field        | Value      |
|--------------|------------|
| Entrypoint   | 0x00C7     |
| Data Size    | 3295 bytes |
| Instructions | 385        |

```
      00 01 02 03 04 05 06 07  08 09 0A 0B 0C 0D 0E 0F
      -- -- -- -- -- -- -- --  -- -- -- -- -- -- -- --
00C0:                      42  03 01 00 03 10 03 02 00         B........
00D0: 04 10 03 03 00 05 10 03  04 00 06 10 1E F0 FF FF  ................
00E0: 7F 9D 00 06 09 02 10 01  00 1D 10 80 23 06 05 00  ............#...
00F0: 06 06 00 06 07 00 9D 00  16 09 07 00 01 00 02 05  ................
0100: 00 00 80 00 5B 01 24 11  80 06 00 07 00 25 02 00  ....[.$......%..
0110: 10 00 80 00 21 01 03 01  10 0C 80 05 05 00 01 21  ....!..........!
0120: 01 03 06 00 00 10 02 05  00 00 80 00 58 01 02 06  ............X...
0130: 00 01 80 80 3C 01 1A 5D  01 01 58 01 02 06 00 02  ....<..]..X.....
0140: 80 80 4A 01 1A E8 03 01  58 01 02 06 00 03 80 80  ..J.....X.......
0150: 58 01 1A 50 07 01 58 01  01 FE 00 21 00 06 08 00  X..P..X....!....
0160: 06 09 00 06 0A 00 06 0B  00 02 08 00 00 80 00 B5  ................
0170: 02 1A B6 02 24 12 80 09  00 0A 00 25 02 00 10 00  ....$......%....
0180: 80 00 8A 01 05 08 00 01  8A 01 03 09 00 00 10 02  ................
0190: 09 00 13 80 00 9D 01 0C  0B 00 06 09 00 02 09 00  ................
01A0: 14 80 00 AB 01 0B 0B 00  06 09 00 02 09 00 00 80  ................
01B0: 01 B2 02 03 10 00 0B 00  14 10 00 15 80 07 10 00  ................
01C0: 09 00 0C 10 00 02 01 00  00 80 80 D8 01 9D 00 26  ...............&
01D0: 09 12 00 10 00 01 11 02  02 01 00 01 80 80 EB 01  ................
01E0: 9D 00 46 09 12 00 10 00  01 11 02 02 01 00 02 80  ..F.............
01F0: 80 FE 01 9D 00 56 09 12  00 10 00 01 11 02 02 01  .....V..........
0200: 00 06 80 80 11 02 9D 00  F6 0C 12 00 10 00 01 11  ................
0210: 02 03 0C 00 09 00 0C 0C  00 02 0B 00 00 80 80 29  ...............)
0220: 02 03 0D 00 02 00 01 4E  02 02 0B 00 01 80 80 3E  .......N.......>
0230: 02 03 0D 00 02 00 07 0C  00 15 80 01 4E 02 02 0B  ............N...
0240: 00 02 80 80 4E 02 03 0D  00 03 00 01 4E 02 3E 0D  ....N.......N.>.
0250: 00 0C 00 61 02 03 02 10  12 00 1D 16 80 23 01 B2  ...a.........#..
0260: 02 03 02 10 12 00 93 12  00 1D 17 80 23 93 00 80  ............#...
0270: 24 18 80 01 80 00 80 25  02 00 10 00 80 00 A7 02  $......%........
0280: 06 01 10 40 00 80 07 80  01 10 01 80 40 08 80 19  ...@........@...
0290: 80 01 10 01 00 40 15 80  1A 80 01 10 10 00 05 08  .....@..........
02A0: 00 05 05 00 01 B2 02 02  00 10 01 80 00 B2 02 01  ................
02B0: B2 02 01 69 01 1B 1A 9C  08 02 01 00 00 80 80 CE  ...i............
02C0: 02 03 11 00 19 80 03 14  00 00 80 01 0D 03 02 01  ................
02D0: 00 01 80 80 E3 02 03 11  00 02 80 03 14 00 00 80  ................
02E0: 01 0D 03 02 01 00 02 80  80 F8 02 03 11 00 1B 80  ................
02F0: 03 14 00 02 80 01 0D 03  02 01 00 06 80 80 0D 03  ................
0300: 03 11 00 1C 80 03 14 00  01 80 01 0D 03 03 0E 00  ................
0310: 0B 00 14 0E 00 15 80 08  11 00 0E 00 02 11 00 15  ................
0320: 80 02 29 03 03 11 00 15  80 03 0A 00 1D 80 06 0E  ..).............
0330: 00 02 0E 00 11 00 03 BB  03 03 10 00 0B 00 14 10  ................
0340: 00 15 80 07 10 00 0E 00  02 01 00 00 80 80 5B 03  ..............[.
0350: 9D 00 26 09 12 00 10 00  01 94 03 02 01 00 01 80  ..&.............
0360: 80 6E 03 9D 00 46 09 12  00 10 00 01 94 03 02 01  .n...F..........
0370: 00 02 80 80 81 03 9D 00  56 09 12 00 10 00 01 94  ........V.......
0380: 03 02 01 00 06 80 80 94  03 9D 00 F6 0C 12 00 10  ................
0390: 00 01 94 03 02 12 00 00  80 02 AE 03 9D 05 B6 08  ................
03A0: 12 00 0E 00 3D 0A 00 0E  00 01 80 01 B5 03 3C 0A  ....=.........<.
03B0: 00 0E 00 01 80 0B 0E 00  01 31 03 40 11 00 1A 80  .........1.@....
03C0: 0A 00 1D 80 10 0A 00 01  80 02 0B 00 00 80 02 D8  ................
03D0: 03 3D 0A 00 13 80 01 80  02 0B 00 14 00 03 E7 03  .=..............
03E0: 3D 0A 00 14 80 01 80 1B  06 08 00 06 09 00 06 0A  =...............
03F0: 00 06 0B 00 02 08 00 00  80 00 66 05 1A 67 05 24  ..........f..g.$
0400: 1E 80 09 00 0A 00 25 02  00 10 00 80 00 15 04 05  ......%.........
0410: 08 00 01 15 04 03 09 00  00 10 02 09 00 1F 80 00  ................
0420: 28 04 0C 0B 00 06 09 00  02 09 00 20 80 00 36 04  (.......... ..6.
0430: 0B 0B 00 06 09 00 02 09  00 00 80 01 63 05 03 10  ............c...
0440: 00 0B 00 14 10 00 21 80  07 10 00 09 00 0C 10 00  ......!.........
0450: 02 01 00 00 80 80 6B 04  9D 00 A6 09 12 00 10 00  ......k.........
0460: 9D 00 46 0A 13 00 10 00  01 0D 05 02 01 00 01 80  ..F.............
0470: 80 86 04 9D 00 C6 09 12  00 10 00 9D 00 66 0A 13  .............f..
0480: 00 10 00 01 0D 05 02 01  00 02 80 80 A1 04 9D 00  ................
0490: 36 0A 12 00 10 00 9D 00  D6 0A 13 00 10 00 01 0D  6...............
04A0: 05 02 01 00 03 80 80 BC  04 9D 00 16 0B 12 00 10  ................
04B0: 00 9D 00 96 0B 13 00 10  00 01 0D 05 02 01 00 04  ................
04C0: 80 80 D7 04 9D 00 16 0C  12 00 10 00 9D 00 46 0C  ..............F.
04D0: 13 00 10 00 01 0D 05 02  01 00 05 80 80 F2 04 9D  ................
04E0: 00 76 0C 12 00 10 00 9D  00 B6 0C 13 00 10 00 01  .v..............
04F0: 0D 05 02 01 00 06 80 80  0D 05 9D 00 26 0D 12 00  ............&...
0500: 10 00 9D 00 66 0D 13 00  10 00 01 0D 05 03 02 10  ....f...........
0510: 12 00 03 03 10 13 00 93  12 00 1D 22 80 23 93 00  ...........".#..
0520: 80 24 18 80 01 80 00 80  25 02 00 10 00 80 00 58  .$......%......X
0530: 05 06 01 10 40 00 80 07  80 01 10 02 80 40 08 80  ....@........@..
0540: 19 80 01 10 01 00 40 15  80 1A 80 01 10 10 00 05  ......@.........
0550: 08 00 05 05 00 01 63 05  02 00 10 01 80 00 63 05  ......c.......c.
0560: 01 63 05 01 F4 03 1B 1A  9C 08 02 01 00 00 80 80  .c..............
0570: 7A 05 03 11 00 21 80 01  DA 05 02 01 00 01 80 80  z....!..........
0580: 8A 05 03 11 00 23 80 01  DA 05 02 01 00 02 80 80  .....#..........
0590: 9A 05 03 11 00 03 80 01  DA 05 02 01 00 03 80 80  ................
05A0: AA 05 03 11 00 24 80 01  DA 05 02 01 00 04 80 80  .....$..........
05B0: BA 05 03 11 00 25 80 01  DA 05 02 01 00 05 80 80  .....%..........
05C0: CA 05 03 11 00 26 80 01  DA 05 02 01 00 06 80 80  .....&..........
05D0: DA 05 03 11 00 27 80 01  DA 05 03 0E 00 0B 00 14  .....'..........
05E0: 0E 00 21 80 08 11 00 0E  00 02 11 00 21 80 02 F6  ..!.........!...
05F0: 05 03 11 00 21 80 06 0E  00 06 0F 00 02 0E 00 11  ....!...........
0600: 00 03 20 07 03 10 00 0B  00 14 10 00 21 80 07 10  .. .........!...
0610: 00 0E 00 02 01 00 00 80  80 33 06 9D 00 A6 09 12  .........3......
0620: 00 10 00 9D 00 46 0A 13  00 10 00 03 14 00 00 80  .....F..........
0630: 01 F3 06 02 01 00 01 80  80 53 06 9D 00 C6 09 12  .........S......
0640: 00 10 00 9D 00 66 0A 13  00 10 00 03 14 00 05 80  .....f..........
0650: 01 F3 06 02 01 00 02 80  80 73 06 9D 00 36 0A 12  .........s...6..
0660: 00 10 00 9D 00 D6 0A 13  00 10 00 03 14 00 00 80  ................
0670: 01 F3 06 02 01 00 03 80  80 93 06 9D 00 16 0B 12  ................
0680: 00 10 00 9D 00 96 0B 13  00 10 00 03 14 00 05 80  ................
0690: 01 F3 06 02 01 00 04 80  80 B3 06 9D 00 16 0C 12  ................
06A0: 00 10 00 9D 00 46 0C 13  00 10 00 03 14 00 02 80  .....F..........
06B0: 01 F3 06 02 01 00 05 80  80 D3 06 9D 00 76 0C 12  .............v..
06C0: 00 10 00 9D 00 B6 0C 13  00 10 00 03 14 00 02 80  ................
06D0: 01 F3 06 02 01 00 06 80  80 F3 06 9D 00 26 0D 12  .............&..
06E0: 00 10 00 9D 00 66 0D 13  00 10 00 03 14 00 02 80  .....f..........
06F0: 01 F3 06 03 0F 00 0E 00  9D 05 B6 08 12 00 0F 00  ................
0700: 07 0F 00 21 80 9D 05 B6  08 13 00 0F 00 07 0F 00  ...!............
0710: 21 80 9D 05 B6 08 00 80  0F 00 0B 0E 00 01 FC 05  !...............
0720: 06 0A 00 40 11 00 1A 80  0A 00 1D 80 10 0A 00 01  ...@............
0730: 80 02 0B 00 00 80 02 40  07 3D 0A 00 1F 80 01 80  .......@.=......
0740: 02 0B 00 14 00 03 4F 07  3D 0A 00 20 80 01 80 1B  ......O.=.. ....
0750: 06 08 00 06 09 00 06 0A  00 06 0B 00 02 08 00 00  ................
0760: 80 00 2B 08 1A 2C 08 24  28 80 09 00 0A 00 25 02  ..+..,.$(.....%.
0770: 00 10 00 80 00 7D 07 05  08 00 01 7D 07 03 09 00  .....}.....}....
0780: 00 10 02 09 00 00 80 01  28 08 03 10 00 09 00 0C  ........(.......
0790: 10 00 02 01 00 00 80 80  A5 07 9D 00 E6 0A 13 00  ................
07A0: 10 00 01 CB 07 02 01 00  01 80 80 B8 07 9D 00 F6  ................
07B0: 0A 13 00 10 00 01 CB 07  02 01 00 02 80 80 CB 07  ................
07C0: 9D 00 06 0B 13 00 10 00  01 CB 07 03 02 10 10 00  ................
07D0: 02 09 00 05 80 00 DD 07  07 02 10 04 00 03 03 10  ................
07E0: 13 00 1D 29 80 23 24 18  80 01 80 00 80 25 02 00  ...).#$......%..
07F0: 10 00 80 00 1D 08 06 01  10 40 00 80 07 80 01 10  .........@......
0800: 03 80 40 08 80 19 80 01  10 01 00 40 15 80 1A 80  ..@........@....
0810: 01 10 10 00 05 08 00 05  05 00 01 28 08 02 00 10  ...........(....
0820: 01 80 00 28 08 01 28 08  01 5C 07 1B 1A 9C 08 06  ...(..(..\......
0830: 0E 00 02 0E 00 05 80 03  81 08 02 01 00 00 80 80  ................
0840: 4D 08 9D 00 E6 0A 13 00  0E 00 01 73 08 02 01 00  M..........s....
0850: 01 80 80 60 08 9D 00 F6  0A 13 00 0E 00 01 73 08  ...`..........s.
0860: 02 01 00 02 80 80 73 08  9D 00 06 0B 13 00 0E 00  ......s.........
0870: 01 73 08 9D 05 B6 08 13  00 0E 00 0B 0E 00 01 32  .s.............2
0880: 08 06 0A 00 02 04 00 00  80 03 96 08 3C 0A 00 05  ............<...
0890: 80 01 80 01 9B 08 03 08  17 04 00 1B 06 0E 00 02  ................
08A0: 0E 00 2A 80 03 B5 08 9D  05 B6 08 00 80 0E 00 0B  ..*.............
08B0: 0E 00 01 9F 08 1B 03 10  04 10 05 10 06 10 07 10  ................
08C0: 08 10 09 10 00 17 01 17  02 17 03 17 04 17 05 17  ................
08D0: 06 17 07 17 08 17 09 17  0A 17 0B 17 0C 17 0D 17  ................
08E0: 0E 17 0F 17 10 17 11 17  12 17 13 17 14 17 15 17  ................
08F0: 16 17 17 17 18 17 19 17  1A 17 1B 17 1C 17 1D 17  ................
0900: 1E 17 1F 17 02 10 0E 80  2B 80 2C 80 2D 80 2E 80  ........+.,.-...
0910: 2F 80 30 80 00 80 00 80  08 80 08 80 21 80 21 80  /.0.........!.!.
0920: 21 80 08 80 00 80 31 80  32 80 33 80 34 80 35 80  !.....1.2.3.4.5.
0930: 36 80 37 80 38 80 39 80  3A 80 3B 80 3C 80 3D 80  6.7.8.9.:.;.<.=.
0940: 3E 80 3F 80 00 80 40 80  41 80 00 80 00 80 00 80  >.?...@.A.......
0950: 00 80 00 80 00 80 42 80  43 80 44 80 45 80 46 80  ......B.C.D.E.F.
0960: 47 80 48 80 49 80 4A 80  4B 80 4C 80 4D 80 4E 80  G.H.I.J.K.L.M.N.
0970: 4F 80 50 80 51 80 52 80  53 80 54 80 55 80 56 80  O.P.Q.R.S.T.U.V.
0980: 57 80 58 80 59 80 5A 80  5B 80 5C 80 5D 80 5E 80  W.X.Y.Z.[.\.].^.
0990: 5F 80 60 80 61 80 62 80  63 80 00 80 00 80 00 80  _.`.a.b.c.......
09A0: 00 80 00 80 00 80 64 80  65 80 66 80 67 80 68 80  ......d.e.f.g.h.
09B0: 69 80 6A 80 6B 80 6C 80  6D 80 00 80 00 80 00 80  i.j.k.l.m.......
09C0: 00 80 00 80 00 80 64 80  65 80 66 80 67 80 68 80  ......d.e.f.g.h.
09D0: 6E 80 6F 80 70 80 71 80  72 80 73 80 74 80 75 80  n.o.p.q.r.s.t.u.
09E0: 76 80 77 80 78 80 79 80  7A 80 7B 80 7C 80 7D 80  v.w.x.y.z.{.|.}.
09F0: 7E 80 7F 80 80 80 81 80  82 80 83 80 84 80 85 80  ~...............
0A00: 86 80 87 80 88 80 89 80  8A 80 8B 80 8C 80 8D 80  ................
0A10: 8E 80 8F 80 90 80 91 80  92 80 93 80 94 80 95 80  ................
0A20: 96 80 97 80 98 80 99 80  9A 80 9B 80 9C 80 9D 80  ................
0A30: 9E 80 9F 80 00 80 A0 80  A1 80 A2 80 00 80 00 80  ................
0A40: 00 80 00 80 00 80 A3 80  A3 80 A3 80 A3 80 A3 80  ................
0A50: 03 80 03 80 03 80 03 80  03 80 00 80 00 80 00 80  ................
0A60: 00 80 00 80 00 80 2A 80  2A 80 2A 80 2A 80 2A 80  ......*.*.*.*.*.
0A70: 01 80 01 80 01 80 01 80  01 80 01 80 01 80 01 80  ................
0A80: 01 80 01 80 01 80 20 80  20 80 20 80 20 80 20 80  ...... . . . . .
0A90: 20 80 20 80 20 80 20 80  20 80 20 80 20 80 20 80   . . . . . . . .
0AA0: 06 80 06 80 06 80 01 80  01 80 01 80 01 80 01 80  ................
0AB0: 01 80 01 80 01 80 01 80  01 80 01 80 01 80 01 80  ................
0AC0: 01 80 01 80 01 80 01 80  01 80 01 80 01 80 01 80  ................
0AD0: 01 80 01 80 00 80 21 80  01 80 01 80 00 80 00 80  ......!.........
0AE0: 00 80 00 80 00 80 A4 80  A4 80 A4 80 A4 80 A4 80  ................
0AF0: 00 80 00 80 00 80 00 80  00 80 00 80 00 80 00 80  ................
0B00: 00 80 00 80 00 80 00 80  00 80 00 80 00 80 00 80  ................
0B10: 00 80 00 80 00 80 89 80  8A 80 A5 80 A6 80 A7 80  ................
0B20: A8 80 8B 80 8C 80 A9 80  AA 80 AB 80 8D 80 8E 80  ................
0B30: 8F 80 90 80 91 80 92 80  AC 80 AD 80 AE 80 AF 80  ................
0B40: 93 80 B0 80 94 80 B1 80  B2 80 B3 80 95 80 96 80  ................
0B50: B4 80 97 80 98 80 B5 80  B6 80 B7 80 99 80 9A 80  ................
0B60: 9B 80 B8 80 B9 80 BA 80  9C 80 9D 80 9E 80 9F 80  ................
0B70: BB 80 BC 80 BD 80 BE 80  BF 80 C0 80 C1 80 C2 80  ................
0B80: C3 80 C4 80 C5 80 C6 80  C7 80 C8 80 C9 80 00 80  ................
0B90: 00 80 00 80 00 80 01 80  01 80 01 80 01 80 01 80  ................
0BA0: 01 80 01 80 01 80 01 80  01 80 01 80 01 80 01 80  ................
0BB0: 01 80 01 80 01 80 01 80  01 80 01 80 01 80 01 80  ................
0BC0: 01 80 01 80 01 80 01 80  01 80 01 80 01 80 01 80  ................
0BD0: 01 80 01 80 01 80 01 80  01 80 01 80 01 80 01 80  ................
0BE0: 01 80 01 80 01 80 01 80  01 80 01 80 01 80 01 80  ................
0BF0: 01 80 01 80 01 80 01 80  01 80 01 80 01 80 01 80  ................
0C00: 01 80 01 80 01 80 01 80  01 80 01 80 01 80 00 80  ................
0C10: 00 80 00 80 00 80 CA 80  CB 80 CC 80 CD 80 CE 80  ................
0C20: CF 80 D0 80 D1 80 D2 80  D3 80 D4 80 D5 80 D6 80  ................
0C30: D7 80 D8 80 D9 80 DA 80  DB 80 DC 80 DD 80 DE 80  ................
0C40: 00 80 00 80 00 80 01 80  01 80 01 80 01 80 01 80  ................
0C50: 01 80 01 80 01 80 01 80  01 80 01 80 01 80 01 80  ................
0C60: 01 80 01 80 01 80 01 80  01 80 01 80 01 80 01 80  ................
0C70: 00 80 00 80 00 80 DF 80  E0 80 E1 80 E2 80 E3 80  ................
0C80: E4 80 E5 80 E6 80 E7 80  E8 80 E9 80 EA 80 EB 80  ................
0C90: EC 80 ED 80 EE 80 EF 80  F0 80 F1 80 F2 80 F3 80  ................
0CA0: F4 80 F5 80 F6 80 F7 80  00 80 00 80 00 80 00 80  ................
0CB0: 00 80 00 80 00 80 01 80  01 80 01 80 01 80 01 80  ................
0CC0: 01 80 01 80 01 80 01 80  01 80 01 80 01 80 01 80  ................
0CD0: 01 80 01 80 01 80 01 80  01 80 01 80 01 80 01 80  ................
0CE0: 01 80 01 80 01 80 01 80  00 80 00 80 00 80 00 80  ................
0CF0: 00 80 00 80 00 80 F8 80  F9 80 FA 80 FB 80 FC 80  ................
0D00: FD 80 FE 80 FF 80 00 81  01 81 02 81 03 81 04 81  ................
0D10: 05 81 06 81 07 81 08 81  09 81 0A 81 0B 81 0C 81  ................
0D20: 0D 81 00 80 00 80 64 80  65 80 66 80 67 80 68 80  ......d.e.f.g.h.
0D30: 0E 81 0F 81 A1 80 A2 80  10 81 11 81 12 81 13 81  ................
0D40: 14 81 15 81 16 81 17 81  18 81 19 81 1A 81 1B 81  ................
0D50: 1C 81 1D 81 1E 81 1F 81  20 81 21 81 22 81 23 81  ........ .!.".#.
0D60: 00 80 00 80 00 80 24 80  24 80 24 80 24 80 24 80  ......$.$.$.$.$.
0D70: 01 80 01 80 01 80 01 80  01 80 01 80 01 80 01 80  ................
0D80: 21 80 21 80 05 80 03 80  02 80 01 80 01 80 01 80  !.!.............
0D90: 01 80 01 80 01 80 01 80  01 80 01 80 01 80 01 80  ................
0DA0: 00 80 00 80 00 80                                 ......          
```

#### Opcodes

```
  0: 0x00C7 [0x42] SET_CLI_EVENT_CANCEL_DATA()
  1: 0x00C8 [0x03] ExtData[1]->WorkLocal[1] = Work_Zone[3]
  2: 0x00CD [0x03] ExtData[1]->WorkLocal[2] = Work_Zone[4]
  3: 0x00D2 [0x03] ExtData[1]->WorkLocal[3] = Work_Zone[5]
  4: 0x00D7 [0x03] ExtData[1]->WorkLocal[4] = Work_Zone[6]
  5: 0x00DC [0x1E] EventEntity looks at LocalPlayer and starts talking
  6: 0x00E1 [0x9D] Work_Zone[2] = 0x0906[ExtData[1]->WorkLocal[1]] // Read WORD
  7: 0x00E9 [0x1D] PRINT_EVENT_MESSAGE(message_id=9646*)
    → "So you've deemed it time to trade in a ticket-like $0, huh? For what exemplars of enjoyment will you exchange it, kupo?"
  8: 0x00EC [0x23] WAIT_FOR_DIALOG_INTERACTION
  9: 0x00ED [0x06] ExtData[1]->WorkLocal[5] = 0
 10: 0x00F0 [0x06] ExtData[1]->WorkLocal[6] = 0
 11: 0x00F3 [0x06] ExtData[1]->WorkLocal[7] = 0
 12: 0x00F6 [0x9D] ExtData[1]->WorkLocal[7] = 0x0916[ExtData[1]->WorkLocal[1]] // Read WORD
 13: 0x00FE [0x02] IF !(ExtData[1]->WorkLocal[5] == 0*) GOTO 0x015B
 14: 0x0106 [0x24] CREATE_DIALOG(message_id=9647*, default_option=ExtData[1]->WorkLocal[6], option_flags=ExtData[1]->WorkLocal[7])
    → "What do you want in exchange? [Nothing./Equipment./Items./Currency.]"
 15: 0x010D [0x25] WAIT_DIALOG_SELECT()
 16: 0x010E [0x02] IF !(Work_Zone[0] == 0*) GOTO 0x0121
 17: 0x0116 [0x03] Work_Zone[1] = 1073741824*
 18: 0x011B [0x05] ExtData[1]->WorkLocal[5] = 1
 19: 0x011E [0x01] GOTO 0x0121

SUBROUTINE_0121:
 20: 0x0121 [0x03] ExtData[1]->WorkLocal[6] = Work_Zone[0]
 21: 0x0126 [0x02] IF !(ExtData[1]->WorkLocal[5] == 0*) GOTO 0x0158
 22: 0x012E [0x02] IF !(ExtData[1]->WorkLocal[6] == 1*) GOTO 0x013C
 23: 0x0136 [0x1A] CALL_SUBROUTINE(address=0x015D)
 24: 0x0139 [0x01] GOTO 0x0158
 25: 0x013C [0x02] IF !(ExtData[1]->WorkLocal[6] == 2*) GOTO 0x014A
 26: 0x0144 [0x1A] CALL_SUBROUTINE(address=0x03E8)
 27: 0x0147 [0x01] GOTO 0x0158
 28: 0x014A [0x02] IF !(ExtData[1]->WorkLocal[6] == 3*) GOTO 0x0158
 29: 0x0152 [0x1A] CALL_SUBROUTINE(address=0x0750)
 30: 0x0155 [0x01] GOTO 0x0158

SUBROUTINE_0158:
 31: 0x0158 [0x01] GOTO 0x00FE
 32: 0x015B [0x21] END_EVENT
 33: 0x015C [0x00] END_REQSTACK()

SUBROUTINE_015D:
 34: 0x015D [0x06] ExtData[1]->WorkLocal[8] = 0
 35: 0x0160 [0x06] ExtData[1]->WorkLocal[9] = 0
 36: 0x0163 [0x06] ExtData[1]->WorkLocal[10] = 0
 37: 0x0166 [0x06] ExtData[1]->WorkLocal[11] = 0

SUBROUTINE_0169:
 38: 0x0169 [0x02] IF !(ExtData[1]->WorkLocal[8] == 0*) GOTO 0x02B5
 39: 0x0171 [0x1A] CALL_SUBROUTINE(address=0x02B6)
 40: 0x0174 [0x24] CREATE_DIALOG(message_id=9648*, default_option=ExtData[1]->WorkLocal[9], option_flags=ExtData[1]->WorkLocal[10])
    → "What equipment? [Never mind./$1./$2./$3./$4./$5./$6./$7./$8./$9./$10./$11./$12./$13./$14./$15./$16./Previous page./Next page.]"
 41: 0x017B [0x25] WAIT_DIALOG_SELECT()
 42: 0x017C [0x02] IF !(Work_Zone[0] == 0*) GOTO 0x018A
 43: 0x0184 [0x05] ExtData[1]->WorkLocal[8] = 1
 44: 0x0187 [0x01] GOTO 0x018A

SUBROUTINE_018A:
 45: 0x018A [0x03] ExtData[1]->WorkLocal[9] = Work_Zone[0]
 46: 0x018F [0x02] IF !(ExtData[1]->WorkLocal[9] == 17*) GOTO 0x019D
 47: 0x0197 [0x0C] ExtData[1]->WorkLocal[11]--
 48: 0x019A [0x06] ExtData[1]->WorkLocal[9] = 0
 49: 0x019D [0x02] IF !(ExtData[1]->WorkLocal[9] == 18*) GOTO 0x01AB
 50: 0x01A5 [0x0B] ExtData[1]->WorkLocal[11]++
 51: 0x01A8 [0x06] ExtData[1]->WorkLocal[9] = 0
 52: 0x01AB [0x02] IF !(ExtData[1]->WorkLocal[9] == 0*) GOTO 0x02B2
 53: 0x01B3 [0x03] ExtData[1]->WorkLocal[16] = ExtData[1]->WorkLocal[11]
 54: 0x01B8 [0x14] ExtData[1]->WorkLocal[16] *= 16*
 55: 0x01BD [0x07] ExtData[1]->WorkLocal[16] += ExtData[1]->WorkLocal[9]
 56: 0x01C2 [0x0C] ExtData[1]->WorkLocal[16]--
 57: 0x01C5 [0x02] IF !(ExtData[1]->WorkLocal[1] == 0*) GOTO 0x01D8
 58: 0x01CD [0x9D] ExtData[1]->WorkLocal[18] = 0x0926[ExtData[1]->WorkLocal[16]] // Read WORD
 59: 0x01D5 [0x01] GOTO 0x0211
 60: 0x01D8 [0x02] IF !(ExtData[1]->WorkLocal[1] == 1*) GOTO 0x01EB
 61: 0x01E0 [0x9D] ExtData[1]->WorkLocal[18] = 0x0946[ExtData[1]->WorkLocal[16]] // Read WORD
 62: 0x01E8 [0x01] GOTO 0x0211
 63: 0x01EB [0x02] IF !(ExtData[1]->WorkLocal[1] == 2*) GOTO 0x01FE
 64: 0x01F3 [0x9D] ExtData[1]->WorkLocal[18] = 0x0956[ExtData[1]->WorkLocal[16]] // Read WORD
 65: 0x01FB [0x01] GOTO 0x0211
 66: 0x01FE [0x02] IF !(ExtData[1]->WorkLocal[1] == 6*) GOTO 0x0211
 67: 0x0206 [0x9D] ExtData[1]->WorkLocal[18] = 0x0CF6[ExtData[1]->WorkLocal[16]] // Read WORD
 68: 0x020E [0x01] GOTO 0x0211

SUBROUTINE_0211:
 69: 0x0211 [0x03] ExtData[1]->WorkLocal[12] = ExtData[1]->WorkLocal[9]
 70: 0x0216 [0x0C] ExtData[1]->WorkLocal[12]--
 71: 0x0219 [0x02] IF !(ExtData[1]->WorkLocal[11] == 0*) GOTO 0x0229
 72: 0x0221 [0x03] ExtData[1]->WorkLocal[13] = ExtData[1]->WorkLocal[2]
 73: 0x0226 [0x01] GOTO 0x024E
 74: 0x0229 [0x02] IF !(ExtData[1]->WorkLocal[11] == 1*) GOTO 0x023E
 75: 0x0231 [0x03] ExtData[1]->WorkLocal[13] = ExtData[1]->WorkLocal[2]
 76: 0x0236 [0x07] ExtData[1]->WorkLocal[12] += 16*
 77: 0x023B [0x01] GOTO 0x024E
 78: 0x023E [0x02] IF !(ExtData[1]->WorkLocal[11] == 2*) GOTO 0x024E
 79: 0x0246 [0x03] ExtData[1]->WorkLocal[13] = ExtData[1]->WorkLocal[3]
 80: 0x024B [0x01] GOTO 0x024E

SUBROUTINE_024E:
 81: 0x024E [0x3E] IF !(ExtData[1]->WorkLocal[13] bit ExtData[1]->WorkLocal[12]) GOTO 0x0261
 82: 0x0255 [0x03] Work_Zone[2] = ExtData[1]->WorkLocal[18]
 83: 0x025A [0x1D] PRINT_EVENT_MESSAGE(message_id=9651*)
    → "You can't carry any more $0, kupo. Please pick another provision."
 84: 0x025D [0x23] WAIT_FOR_DIALOG_INTERACTION
 85: 0x025E [0x01] GOTO 0x02B2
 86: 0x0261 [0x03] Work_Zone[2] = ExtData[1]->WorkLocal[18]
 87: 0x0266 [0x93] DISPLAY_ITEM_INFO(item_id=ExtData[1]->WorkLocal[18])
 88: 0x0269 [0x1D] PRINT_EVENT_MESSAGE(message_id=9652*)
    → "You sure you're perfectly pleased with $0, kupo?"
 89: 0x026C [0x23] WAIT_FOR_DIALOG_INTERACTION
 90: 0x026D [0x93] DISPLAY_ITEM_INFO(item_id=0*)
 91: 0x0270 [0x24] CREATE_DIALOG(message_id=9655*, default_option=1*, option_flags=0*)
    → "Well, are you? [You know it, poet./No, I'm not, tot.]"
 92: 0x0277 [0x25] WAIT_DIALOG_SELECT()
 93: 0x0278 [0x02] IF !(Work_Zone[0] == 0*) GOTO 0x02A7
 94: 0x0280 [0x06] Work_Zone[1] = 0
 95: 0x0283 [0x40] SET_BIT_WORK_RANGE(start_bit=0*, end_bit=7*, target=Work_Zone[1], source=1*)
 96: 0x028C [0x40] SET_BIT_WORK_RANGE(start_bit=8*, end_bit=15*, target=Work_Zone[1], source=ExtData[1]->WorkLocal[1])
 97: 0x0295 [0x40] SET_BIT_WORK_RANGE(start_bit=16*, end_bit=31*, target=Work_Zone[1], source=ExtData[1]->WorkLocal[16])
 98: 0x029E [0x05] ExtData[1]->WorkLocal[8] = 1
 99: 0x02A1 [0x05] ExtData[1]->WorkLocal[5] = 1
100: 0x02A4 [0x01] GOTO 0x02B2
101: 0x02A7 [0x02] IF !(Work_Zone[0] == 1*) GOTO 0x02B2
102: 0x02AF [0x01] GOTO 0x02B2

SUBROUTINE_02B2:
103: 0x02B2 [0x01] GOTO 0x0169
104: 0x02B5 [0x1B] RETURN

SUBROUTINE_02B6:
105: 0x02B6 [0x1A] CALL_SUBROUTINE(address=0x089C)
106: 0x02B9 [0x02] IF !(ExtData[1]->WorkLocal[1] == 0*) GOTO 0x02CE
107: 0x02C1 [0x03] ExtData[1]->WorkLocal[17] = 15*
108: 0x02C6 [0x03] ExtData[1]->WorkLocal[20] = 0*
109: 0x02CB [0x01] GOTO 0x030D
110: 0x02CE [0x02] IF !(ExtData[1]->WorkLocal[1] == 1*) GOTO 0x02E3
111: 0x02D6 [0x03] ExtData[1]->WorkLocal[17] = 2*
112: 0x02DB [0x03] ExtData[1]->WorkLocal[20] = 0*
113: 0x02E0 [0x01] GOTO 0x030D
114: 0x02E3 [0x02] IF !(ExtData[1]->WorkLocal[1] == 2*) GOTO 0x02F8
115: 0x02EB [0x03] ExtData[1]->WorkLocal[17] = 34*
116: 0x02F0 [0x03] ExtData[1]->WorkLocal[20] = 2*
117: 0x02F5 [0x01] GOTO 0x030D
118: 0x02F8 [0x02] IF !(ExtData[1]->WorkLocal[1] == 6*) GOTO 0x030D
119: 0x0300 [0x03] ExtData[1]->WorkLocal[17] = 22*
120: 0x0305 [0x03] ExtData[1]->WorkLocal[20] = 1*
121: 0x030A [0x01] GOTO 0x030D

SUBROUTINE_030D:
122: 0x030D [0x03] ExtData[1]->WorkLocal[14] = ExtData[1]->WorkLocal[11]
123: 0x0312 [0x14] ExtData[1]->WorkLocal[14] *= 16*
124: 0x0317 [0x08] ExtData[1]->WorkLocal[17] -= ExtData[1]->WorkLocal[14]
125: 0x031C [0x02] IF !(ExtData[1]->WorkLocal[17] <= 16*) GOTO 0x0329
126: 0x0324 [0x03] ExtData[1]->WorkLocal[17] = 16*
127: 0x0329 [0x03] ExtData[1]->WorkLocal[10] = 4294967295*
128: 0x032E [0x06] ExtData[1]->WorkLocal[14] = 0

SUBROUTINE_0331:
129: 0x0331 [0x02] IF !(ExtData[1]->WorkLocal[14] >= ExtData[1]->WorkLocal[17]) GOTO 0x03BB
130: 0x0339 [0x03] ExtData[1]->WorkLocal[16] = ExtData[1]->WorkLocal[11]
131: 0x033E [0x14] ExtData[1]->WorkLocal[16] *= 16*
132: 0x0343 [0x07] ExtData[1]->WorkLocal[16] += ExtData[1]->WorkLocal[14]
133: 0x0348 [0x02] IF !(ExtData[1]->WorkLocal[1] == 0*) GOTO 0x035B
134: 0x0350 [0x9D] ExtData[1]->WorkLocal[18] = 0x0926[ExtData[1]->WorkLocal[16]] // Read WORD
135: 0x0358 [0x01] GOTO 0x0394
136: 0x035B [0x02] IF !(ExtData[1]->WorkLocal[1] == 1*) GOTO 0x036E
137: 0x0363 [0x9D] ExtData[1]->WorkLocal[18] = 0x0946[ExtData[1]->WorkLocal[16]] // Read WORD
138: 0x036B [0x01] GOTO 0x0394
139: 0x036E [0x02] IF !(ExtData[1]->WorkLocal[1] == 2*) GOTO 0x0381
140: 0x0376 [0x9D] ExtData[1]->WorkLocal[18] = 0x0956[ExtData[1]->WorkLocal[16]] // Read WORD
141: 0x037E [0x01] GOTO 0x0394
142: 0x0381 [0x02] IF !(ExtData[1]->WorkLocal[1] == 6*) GOTO 0x0394
143: 0x0389 [0x9D] ExtData[1]->WorkLocal[18] = 0x0CF6[ExtData[1]->WorkLocal[16]] // Read WORD
144: 0x0391 [0x01] GOTO 0x0394

SUBROUTINE_0394:
145: 0x0394 [0x02] IF !(ExtData[1]->WorkLocal[18] <= 0*) GOTO 0x03AE
146: 0x039C [0x9D] 0x08B6[ExtData[1]->WorkLocal[14] * 2] = ExtData[1]->WorkLocal[18] // Write WORD
147: 0x03A4 [0x3D] CLEAR_BIT_FLAG_CONDITIONAL(target_work_offset=ExtData[1]->WorkLocal[10], bit_index_work_offset=ExtData[1]->WorkLocal[14], condition_work_offset=1*)
148: 0x03AB [0x01] GOTO 0x03B5
149: 0x03AE [0x3C] SET_BIT_FLAG_CONDITIONAL(target_work_offset=ExtData[1]->WorkLocal[10], bit_index_work_offset=ExtData[1]->WorkLocal[14], condition_work_offset=1*)

SUBROUTINE_03B5:
150: 0x03B5 [0x0B] ExtData[1]->WorkLocal[14]++
151: 0x03B8 [0x01] GOTO 0x0331
152: 0x03BB [0x40] SET_BIT_WORK_RANGE(start_bit=ExtData[1]->WorkLocal[17], end_bit=31*, target=ExtData[1]->WorkLocal[10], source=4294967295*)
153: 0x03C4 [0x10] ExtData[1]->WorkLocal[10] <<= 1*
154: 0x03C9 [0x02] IF !(ExtData[1]->WorkLocal[11] <= 0*) GOTO 0x03D8
155: 0x03D1 [0x3D] CLEAR_BIT_FLAG_CONDITIONAL(target_work_offset=ExtData[1]->WorkLocal[10], bit_index_work_offset=17*, condition_work_offset=1*)
156: 0x03D8 [0x02] IF !(ExtData[1]->WorkLocal[11] >= ExtData[1]->WorkLocal[20]) GOTO 0x03E7
157: 0x03E0 [0x3D] CLEAR_BIT_FLAG_CONDITIONAL(target_work_offset=ExtData[1]->WorkLocal[10], bit_index_work_offset=18*, condition_work_offset=1*)
158: 0x03E7 [0x1B] RETURN

SUBROUTINE_03E8:
159: 0x03E8 [0x06] ExtData[1]->WorkLocal[8] = 0
160: 0x03EB [0x06] ExtData[1]->WorkLocal[9] = 0
161: 0x03EE [0x06] ExtData[1]->WorkLocal[10] = 0
162: 0x03F1 [0x06] ExtData[1]->WorkLocal[11] = 0

SUBROUTINE_03F4:
163: 0x03F4 [0x02] IF !(ExtData[1]->WorkLocal[8] == 0*) GOTO 0x0566
164: 0x03FC [0x1A] CALL_SUBROUTINE(address=0x0567)
165: 0x03FF [0x24] CREATE_DIALOG(message_id=9649*, default_option=ExtData[1]->WorkLocal[9], option_flags=ExtData[1]->WorkLocal[10])
    → "What item? [None./$1. ($11)/$2. ($12)/$3. ($13)/$4. ($14)/$5. ($15)/$6. ($16)/$7. ($17)/$8. ($18)/$9. ($19)/$10. ($20)/Previous page./Next page.]"
166: 0x0406 [0x25] WAIT_DIALOG_SELECT()
167: 0x0407 [0x02] IF !(Work_Zone[0] == 0*) GOTO 0x0415
168: 0x040F [0x05] ExtData[1]->WorkLocal[8] = 1
169: 0x0412 [0x01] GOTO 0x0415

SUBROUTINE_0415:
170: 0x0415 [0x03] ExtData[1]->WorkLocal[9] = Work_Zone[0]
171: 0x041A [0x02] IF !(ExtData[1]->WorkLocal[9] == 11*) GOTO 0x0428
172: 0x0422 [0x0C] ExtData[1]->WorkLocal[11]--
173: 0x0425 [0x06] ExtData[1]->WorkLocal[9] = 0
174: 0x0428 [0x02] IF !(ExtData[1]->WorkLocal[9] == 12*) GOTO 0x0436
175: 0x0430 [0x0B] ExtData[1]->WorkLocal[11]++
176: 0x0433 [0x06] ExtData[1]->WorkLocal[9] = 0
177: 0x0436 [0x02] IF !(ExtData[1]->WorkLocal[9] == 0*) GOTO 0x0563
178: 0x043E [0x03] ExtData[1]->WorkLocal[16] = ExtData[1]->WorkLocal[11]
179: 0x0443 [0x14] ExtData[1]->WorkLocal[16] *= 10*
180: 0x0448 [0x07] ExtData[1]->WorkLocal[16] += ExtData[1]->WorkLocal[9]
181: 0x044D [0x0C] ExtData[1]->WorkLocal[16]--
182: 0x0450 [0x02] IF !(ExtData[1]->WorkLocal[1] == 0*) GOTO 0x046B
183: 0x0458 [0x9D] ExtData[1]->WorkLocal[18] = 0x09A6[ExtData[1]->WorkLocal[16]] // Read WORD
184: 0x0460 [0x9D] ExtData[1]->WorkLocal[19] = 0x0A46[ExtData[1]->WorkLocal[16]] // Read WORD
185: 0x0468 [0x01] GOTO 0x050D
186: 0x046B [0x02] IF !(ExtData[1]->WorkLocal[1] == 1*) GOTO 0x0486
187: 0x0473 [0x9D] ExtData[1]->WorkLocal[18] = 0x09C6[ExtData[1]->WorkLocal[16]] // Read WORD
188: 0x047B [0x9D] ExtData[1]->WorkLocal[19] = 0x0A66[ExtData[1]->WorkLocal[16]] // Read WORD
189: 0x0483 [0x01] GOTO 0x050D
190: 0x0486 [0x02] IF !(ExtData[1]->WorkLocal[1] == 2*) GOTO 0x04A1
191: 0x048E [0x9D] ExtData[1]->WorkLocal[18] = 0x0A36[ExtData[1]->WorkLocal[16]] // Read WORD
192: 0x0496 [0x9D] ExtData[1]->WorkLocal[19] = 0x0AD6[ExtData[1]->WorkLocal[16]] // Read WORD
193: 0x049E [0x01] GOTO 0x050D
194: 0x04A1 [0x02] IF !(ExtData[1]->WorkLocal[1] == 3*) GOTO 0x04BC
195: 0x04A9 [0x9D] ExtData[1]->WorkLocal[18] = 0x0B16[ExtData[1]->WorkLocal[16]] // Read WORD
196: 0x04B1 [0x9D] ExtData[1]->WorkLocal[19] = 0x0B96[ExtData[1]->WorkLocal[16]] // Read WORD
197: 0x04B9 [0x01] GOTO 0x050D
198: 0x04BC [0x02] IF !(ExtData[1]->WorkLocal[1] == 4*) GOTO 0x04D7
199: 0x04C4 [0x9D] ExtData[1]->WorkLocal[18] = 0x0C16[ExtData[1]->WorkLocal[16]] // Read WORD
200: 0x04CC [0x9D] ExtData[1]->WorkLocal[19] = 0x0C46[ExtData[1]->WorkLocal[16]] // Read WORD
201: 0x04D4 [0x01] GOTO 0x050D
202: 0x04D7 [0x02] IF !(ExtData[1]->WorkLocal[1] == 5*) GOTO 0x04F2
203: 0x04DF [0x9D] ExtData[1]->WorkLocal[18] = 0x0C76[ExtData[1]->WorkLocal[16]] // Read WORD
204: 0x04E7 [0x9D] ExtData[1]->WorkLocal[19] = 0x0CB6[ExtData[1]->WorkLocal[16]] // Read WORD
205: 0x04EF [0x01] GOTO 0x050D
206: 0x04F2 [0x02] IF !(ExtData[1]->WorkLocal[1] == 6*) GOTO 0x050D
207: 0x04FA [0x9D] ExtData[1]->WorkLocal[18] = 0x0D26[ExtData[1]->WorkLocal[16]] // Read WORD
208: 0x0502 [0x9D] ExtData[1]->WorkLocal[19] = 0x0D66[ExtData[1]->WorkLocal[16]] // Read WORD
209: 0x050A [0x01] GOTO 0x050D

SUBROUTINE_050D:
210: 0x050D [0x03] Work_Zone[2] = ExtData[1]->WorkLocal[18]
211: 0x0512 [0x03] Work_Zone[3] = ExtData[1]->WorkLocal[19]
212: 0x0517 [0x93] DISPLAY_ITEM_INFO(item_id=ExtData[1]->WorkLocal[18])
213: 0x051A [0x1D] PRINT_EVENT_MESSAGE(message_id=9653*)
    → "You sure you're perfectly pleased with $1 $0 , kupo?"
214: 0x051D [0x23] WAIT_FOR_DIALOG_INTERACTION
215: 0x051E [0x93] DISPLAY_ITEM_INFO(item_id=0*)
216: 0x0521 [0x24] CREATE_DIALOG(message_id=9655*, default_option=1*, option_flags=0*)
    → "Well, are you? [You know it, poet./No, I'm not, tot.]"
217: 0x0528 [0x25] WAIT_DIALOG_SELECT()
218: 0x0529 [0x02] IF !(Work_Zone[0] == 0*) GOTO 0x0558
219: 0x0531 [0x06] Work_Zone[1] = 0
220: 0x0534 [0x40] SET_BIT_WORK_RANGE(start_bit=0*, end_bit=7*, target=Work_Zone[1], source=2*)
221: 0x053D [0x40] SET_BIT_WORK_RANGE(start_bit=8*, end_bit=15*, target=Work_Zone[1], source=ExtData[1]->WorkLocal[1])
222: 0x0546 [0x40] SET_BIT_WORK_RANGE(start_bit=16*, end_bit=31*, target=Work_Zone[1], source=ExtData[1]->WorkLocal[16])
223: 0x054F [0x05] ExtData[1]->WorkLocal[8] = 1
224: 0x0552 [0x05] ExtData[1]->WorkLocal[5] = 1
225: 0x0555 [0x01] GOTO 0x0563
226: 0x0558 [0x02] IF !(Work_Zone[0] == 1*) GOTO 0x0563
227: 0x0560 [0x01] GOTO 0x0563

SUBROUTINE_0563:
228: 0x0563 [0x01] GOTO 0x03F4
229: 0x0566 [0x1B] RETURN

SUBROUTINE_0567:
230: 0x0567 [0x1A] CALL_SUBROUTINE(address=0x089C)
231: 0x056A [0x02] IF !(ExtData[1]->WorkLocal[1] == 0*) GOTO 0x057A
232: 0x0572 [0x03] ExtData[1]->WorkLocal[17] = 10*
233: 0x0577 [0x01] GOTO 0x05DA
234: 0x057A [0x02] IF !(ExtData[1]->WorkLocal[1] == 1*) GOTO 0x058A
235: 0x0582 [0x03] ExtData[1]->WorkLocal[17] = 55*
236: 0x0587 [0x01] GOTO 0x05DA
237: 0x058A [0x02] IF !(ExtData[1]->WorkLocal[1] == 2*) GOTO 0x059A
238: 0x0592 [0x03] ExtData[1]->WorkLocal[17] = 3*
239: 0x0597 [0x01] GOTO 0x05DA
240: 0x059A [0x02] IF !(ExtData[1]->WorkLocal[1] == 3*) GOTO 0x05AA
241: 0x05A2 [0x03] ExtData[1]->WorkLocal[17] = 60*
242: 0x05A7 [0x01] GOTO 0x05DA
243: 0x05AA [0x02] IF !(ExtData[1]->WorkLocal[1] == 4*) GOTO 0x05BA
244: 0x05B2 [0x03] ExtData[1]->WorkLocal[17] = 21*
245: 0x05B7 [0x01] GOTO 0x05DA
246: 0x05BA [0x02] IF !(ExtData[1]->WorkLocal[1] == 5*) GOTO 0x05CA
247: 0x05C2 [0x03] ExtData[1]->WorkLocal[17] = 25*
248: 0x05C7 [0x01] GOTO 0x05DA
249: 0x05CA [0x02] IF !(ExtData[1]->WorkLocal[1] == 6*) GOTO 0x05DA
250: 0x05D2 [0x03] ExtData[1]->WorkLocal[17] = 29*
251: 0x05D7 [0x01] GOTO 0x05DA

SUBROUTINE_05DA:
252: 0x05DA [0x03] ExtData[1]->WorkLocal[14] = ExtData[1]->WorkLocal[11]
253: 0x05DF [0x14] ExtData[1]->WorkLocal[14] *= 10*
254: 0x05E4 [0x08] ExtData[1]->WorkLocal[17] -= ExtData[1]->WorkLocal[14]
255: 0x05E9 [0x02] IF !(ExtData[1]->WorkLocal[17] <= 10*) GOTO 0x05F6
256: 0x05F1 [0x03] ExtData[1]->WorkLocal[17] = 10*
257: 0x05F6 [0x06] ExtData[1]->WorkLocal[14] = 0
258: 0x05F9 [0x06] ExtData[1]->WorkLocal[15] = 0

SUBROUTINE_05FC:
259: 0x05FC [0x02] IF !(ExtData[1]->WorkLocal[14] >= ExtData[1]->WorkLocal[17]) GOTO 0x0720
260: 0x0604 [0x03] ExtData[1]->WorkLocal[16] = ExtData[1]->WorkLocal[11]
261: 0x0609 [0x14] ExtData[1]->WorkLocal[16] *= 10*
262: 0x060E [0x07] ExtData[1]->WorkLocal[16] += ExtData[1]->WorkLocal[14]
263: 0x0613 [0x02] IF !(ExtData[1]->WorkLocal[1] == 0*) GOTO 0x0633
264: 0x061B [0x9D] ExtData[1]->WorkLocal[18] = 0x09A6[ExtData[1]->WorkLocal[16]] // Read WORD
265: 0x0623 [0x9D] ExtData[1]->WorkLocal[19] = 0x0A46[ExtData[1]->WorkLocal[16]] // Read WORD
266: 0x062B [0x03] ExtData[1]->WorkLocal[20] = 0*
267: 0x0630 [0x01] GOTO 0x06F3
268: 0x0633 [0x02] IF !(ExtData[1]->WorkLocal[1] == 1*) GOTO 0x0653
269: 0x063B [0x9D] ExtData[1]->WorkLocal[18] = 0x09C6[ExtData[1]->WorkLocal[16]] // Read WORD
270: 0x0643 [0x9D] ExtData[1]->WorkLocal[19] = 0x0A66[ExtData[1]->WorkLocal[16]] // Read WORD
271: 0x064B [0x03] ExtData[1]->WorkLocal[20] = 5*
272: 0x0650 [0x01] GOTO 0x06F3
273: 0x0653 [0x02] IF !(ExtData[1]->WorkLocal[1] == 2*) GOTO 0x0673
274: 0x065B [0x9D] ExtData[1]->WorkLocal[18] = 0x0A36[ExtData[1]->WorkLocal[16]] // Read WORD
275: 0x0663 [0x9D] ExtData[1]->WorkLocal[19] = 0x0AD6[ExtData[1]->WorkLocal[16]] // Read WORD
276: 0x066B [0x03] ExtData[1]->WorkLocal[20] = 0*
277: 0x0670 [0x01] GOTO 0x06F3
278: 0x0673 [0x02] IF !(ExtData[1]->WorkLocal[1] == 3*) GOTO 0x0693
279: 0x067B [0x9D] ExtData[1]->WorkLocal[18] = 0x0B16[ExtData[1]->WorkLocal[16]] // Read WORD
280: 0x0683 [0x9D] ExtData[1]->WorkLocal[19] = 0x0B96[ExtData[1]->WorkLocal[16]] // Read WORD
281: 0x068B [0x03] ExtData[1]->WorkLocal[20] = 5*
282: 0x0690 [0x01] GOTO 0x06F3
283: 0x0693 [0x02] IF !(ExtData[1]->WorkLocal[1] == 4*) GOTO 0x06B3
284: 0x069B [0x9D] ExtData[1]->WorkLocal[18] = 0x0C16[ExtData[1]->WorkLocal[16]] // Read WORD
285: 0x06A3 [0x9D] ExtData[1]->WorkLocal[19] = 0x0C46[ExtData[1]->WorkLocal[16]] // Read WORD
286: 0x06AB [0x03] ExtData[1]->WorkLocal[20] = 2*
287: 0x06B0 [0x01] GOTO 0x06F3
288: 0x06B3 [0x02] IF !(ExtData[1]->WorkLocal[1] == 5*) GOTO 0x06D3
289: 0x06BB [0x9D] ExtData[1]->WorkLocal[18] = 0x0C76[ExtData[1]->WorkLocal[16]] // Read WORD
290: 0x06C3 [0x9D] ExtData[1]->WorkLocal[19] = 0x0CB6[ExtData[1]->WorkLocal[16]] // Read WORD
291: 0x06CB [0x03] ExtData[1]->WorkLocal[20] = 2*
292: 0x06D0 [0x01] GOTO 0x06F3
293: 0x06D3 [0x02] IF !(ExtData[1]->WorkLocal[1] == 6*) GOTO 0x06F3
294: 0x06DB [0x9D] ExtData[1]->WorkLocal[18] = 0x0D26[ExtData[1]->WorkLocal[16]] // Read WORD
295: 0x06E3 [0x9D] ExtData[1]->WorkLocal[19] = 0x0D66[ExtData[1]->WorkLocal[16]] // Read WORD
296: 0x06EB [0x03] ExtData[1]->WorkLocal[20] = 2*
297: 0x06F0 [0x01] GOTO 0x06F3

SUBROUTINE_06F3:
298: 0x06F3 [0x03] ExtData[1]->WorkLocal[15] = ExtData[1]->WorkLocal[14]
299: 0x06F8 [0x9D] 0x08B6[ExtData[1]->WorkLocal[15] * 2] = ExtData[1]->WorkLocal[18] // Write WORD
300: 0x0700 [0x07] ExtData[1]->WorkLocal[15] += 10*
301: 0x0705 [0x9D] 0x08B6[ExtData[1]->WorkLocal[15] * 2] = ExtData[1]->WorkLocal[19] // Write WORD
302: 0x070D [0x07] ExtData[1]->WorkLocal[15] += 10*
303: 0x0712 [0x9D] 0x08B6[ExtData[1]->WorkLocal[15] * 2] = 0* // Write WORD
304: 0x071A [0x0B] ExtData[1]->WorkLocal[14]++
305: 0x071D [0x01] GOTO 0x05FC
306: 0x0720 [0x06] ExtData[1]->WorkLocal[10] = 0
307: 0x0723 [0x40] SET_BIT_WORK_RANGE(start_bit=ExtData[1]->WorkLocal[17], end_bit=31*, target=ExtData[1]->WorkLocal[10], source=4294967295*)
308: 0x072C [0x10] ExtData[1]->WorkLocal[10] <<= 1*
309: 0x0731 [0x02] IF !(ExtData[1]->WorkLocal[11] <= 0*) GOTO 0x0740
310: 0x0739 [0x3D] CLEAR_BIT_FLAG_CONDITIONAL(target_work_offset=ExtData[1]->WorkLocal[10], bit_index_work_offset=11*, condition_work_offset=1*)
311: 0x0740 [0x02] IF !(ExtData[1]->WorkLocal[11] >= ExtData[1]->WorkLocal[20]) GOTO 0x074F
312: 0x0748 [0x3D] CLEAR_BIT_FLAG_CONDITIONAL(target_work_offset=ExtData[1]->WorkLocal[10], bit_index_work_offset=12*, condition_work_offset=1*)
313: 0x074F [0x1B] RETURN

SUBROUTINE_0750:
314: 0x0750 [0x06] ExtData[1]->WorkLocal[8] = 0
315: 0x0753 [0x06] ExtData[1]->WorkLocal[9] = 0
316: 0x0756 [0x06] ExtData[1]->WorkLocal[10] = 0
317: 0x0759 [0x06] ExtData[1]->WorkLocal[11] = 0

SUBROUTINE_075C:
318: 0x075C [0x02] IF !(ExtData[1]->WorkLocal[8] == 0*) GOTO 0x082B
319: 0x0764 [0x1A] CALL_SUBROUTINE(address=0x082C)
320: 0x0767 [0x24] CREATE_DIALOG(message_id=9650*, default_option=ExtData[1]->WorkLocal[9], option_flags=ExtData[1]->WorkLocal[10])
    → "What currency? [Never mind./Conquest Points. ($1)/Imperial Standing. ($2)/Allied Notes. ($3)/Bayld. ($4)/[Fishermen's Guild/Carpenters' Guild/Blacksmiths' Guild/Goldsmiths' Guild/Weavers' Guild/Tanners' Guild/Boneworkers' Guild/Alchemists' Guild/Culinarians' Guild] points. ($5)]"
321: 0x076E [0x25] WAIT_DIALOG_SELECT()
322: 0x076F [0x02] IF !(Work_Zone[0] == 0*) GOTO 0x077D
323: 0x0777 [0x05] ExtData[1]->WorkLocal[8] = 1
324: 0x077A [0x01] GOTO 0x077D

SUBROUTINE_077D:
325: 0x077D [0x03] ExtData[1]->WorkLocal[9] = Work_Zone[0]
326: 0x0782 [0x02] IF !(ExtData[1]->WorkLocal[9] == 0*) GOTO 0x0828
327: 0x078A [0x03] ExtData[1]->WorkLocal[16] = ExtData[1]->WorkLocal[9]
328: 0x078F [0x0C] ExtData[1]->WorkLocal[16]--
329: 0x0792 [0x02] IF !(ExtData[1]->WorkLocal[1] == 0*) GOTO 0x07A5
330: 0x079A [0x9D] ExtData[1]->WorkLocal[19] = 0x0AE6[ExtData[1]->WorkLocal[16]] // Read WORD
331: 0x07A2 [0x01] GOTO 0x07CB
332: 0x07A5 [0x02] IF !(ExtData[1]->WorkLocal[1] == 1*) GOTO 0x07B8
333: 0x07AD [0x9D] ExtData[1]->WorkLocal[19] = 0x0AF6[ExtData[1]->WorkLocal[16]] // Read WORD
334: 0x07B5 [0x01] GOTO 0x07CB
335: 0x07B8 [0x02] IF !(ExtData[1]->WorkLocal[1] == 2*) GOTO 0x07CB
336: 0x07C0 [0x9D] ExtData[1]->WorkLocal[19] = 0x0B06[ExtData[1]->WorkLocal[16]] // Read WORD
337: 0x07C8 [0x01] GOTO 0x07CB

SUBROUTINE_07CB:
338: 0x07CB [0x03] Work_Zone[2] = ExtData[1]->WorkLocal[16]
339: 0x07D0 [0x02] IF !(ExtData[1]->WorkLocal[9] == 5*) GOTO 0x07DD
340: 0x07D8 [0x07] Work_Zone[2] += ExtData[1]->WorkLocal[4]
341: 0x07DD [0x03] Work_Zone[3] = ExtData[1]->WorkLocal[19]
342: 0x07E2 [0x1D] PRINT_EVENT_MESSAGE(message_id=9654*)
    → "Are you completely confident you want $1 [Conquest Points/Imperial Standing/Allied Notes/Bayld/Fishermen's Guild points/Carpenters' Guild points/Blacksmiths' Guild points/Goldsmiths' Guild points/Weavers' Guild points/Tanners' Guild points/Boneworkers' Guild points/Alchemists' Guild points/Culinarians' Guild points], kupo?"
343: 0x07E5 [0x23] WAIT_FOR_DIALOG_INTERACTION
344: 0x07E6 [0x24] CREATE_DIALOG(message_id=9655*, default_option=1*, option_flags=0*)
    → "Well, are you? [You know it, poet./No, I'm not, tot.]"
345: 0x07ED [0x25] WAIT_DIALOG_SELECT()
346: 0x07EE [0x02] IF !(Work_Zone[0] == 0*) GOTO 0x081D
347: 0x07F6 [0x06] Work_Zone[1] = 0
348: 0x07F9 [0x40] SET_BIT_WORK_RANGE(start_bit=0*, end_bit=7*, target=Work_Zone[1], source=3*)
349: 0x0802 [0x40] SET_BIT_WORK_RANGE(start_bit=8*, end_bit=15*, target=Work_Zone[1], source=ExtData[1]->WorkLocal[1])
350: 0x080B [0x40] SET_BIT_WORK_RANGE(start_bit=16*, end_bit=31*, target=Work_Zone[1], source=ExtData[1]->WorkLocal[16])
351: 0x0814 [0x05] ExtData[1]->WorkLocal[8] = 1
352: 0x0817 [0x05] ExtData[1]->WorkLocal[5] = 1
353: 0x081A [0x01] GOTO 0x0828
354: 0x081D [0x02] IF !(Work_Zone[0] == 1*) GOTO 0x0828
355: 0x0825 [0x01] GOTO 0x0828

SUBROUTINE_0828:
356: 0x0828 [0x01] GOTO 0x075C
357: 0x082B [0x1B] RETURN

SUBROUTINE_082C:
358: 0x082C [0x1A] CALL_SUBROUTINE(address=0x089C)
359: 0x082F [0x06] ExtData[1]->WorkLocal[14] = 0

SUBROUTINE_0832:
360: 0x0832 [0x02] IF !(ExtData[1]->WorkLocal[14] >= 5*) GOTO 0x0881
361: 0x083A [0x02] IF !(ExtData[1]->WorkLocal[1] == 0*) GOTO 0x084D
362: 0x0842 [0x9D] ExtData[1]->WorkLocal[19] = 0x0AE6[ExtData[1]->WorkLocal[14]] // Read WORD
363: 0x084A [0x01] GOTO 0x0873
364: 0x084D [0x02] IF !(ExtData[1]->WorkLocal[1] == 1*) GOTO 0x0860
365: 0x0855 [0x9D] ExtData[1]->WorkLocal[19] = 0x0AF6[ExtData[1]->WorkLocal[14]] // Read WORD
366: 0x085D [0x01] GOTO 0x0873
367: 0x0860 [0x02] IF !(ExtData[1]->WorkLocal[1] == 2*) GOTO 0x0873
368: 0x0868 [0x9D] ExtData[1]->WorkLocal[19] = 0x0B06[ExtData[1]->WorkLocal[14]] // Read WORD
369: 0x0870 [0x01] GOTO 0x0873

SUBROUTINE_0873:
370: 0x0873 [0x9D] 0x08B6[ExtData[1]->WorkLocal[14] * 2] = ExtData[1]->WorkLocal[19] // Write WORD
371: 0x087B [0x0B] ExtData[1]->WorkLocal[14]++
372: 0x087E [0x01] GOTO 0x0832
373: 0x0881 [0x06] ExtData[1]->WorkLocal[10] = 0
374: 0x0884 [0x02] IF !(ExtData[1]->WorkLocal[4] >= 0*) GOTO 0x0896
375: 0x088C [0x3C] SET_BIT_FLAG_CONDITIONAL(target_work_offset=ExtData[1]->WorkLocal[10], bit_index_work_offset=5*, condition_work_offset=1*)
376: 0x0893 [0x01] GOTO 0x089B
377: 0x0896 [0x03] Work_Zone_1700[8] = ExtData[1]->WorkLocal[4]

SUBROUTINE_089B:
378: 0x089B [0x1B] RETURN

SUBROUTINE_089C:
379: 0x089C [0x06] ExtData[1]->WorkLocal[14] = 0

SUBROUTINE_089F:
380: 0x089F [0x02] IF !(ExtData[1]->WorkLocal[14] >= 40*) GOTO 0x08B5
381: 0x08A7 [0x9D] 0x08B6[ExtData[1]->WorkLocal[14] * 2] = 0* // Write WORD
382: 0x08AF [0x0B] ExtData[1]->WorkLocal[14]++
383: 0x08B2 [0x01] GOTO 0x089F
384: 0x08B5 [0x1B] RETURN
```

#### Data or dead code:

```
# Data Section: 0x08B6 (1264 bytes)
     0x08B6: 03 10 04 10 05 10 06 10 07 10 08 10 09 10 00 17
     0x08C6: 01 17 02 17 03 17 04 17 05 17 06 17 07 17 08 17
     0x08D6: 09 17 0A 17 0B 17 0C 17 0D 17 0E 17 0F 17 10 17
     0x08E6: 11 17 12 17 13 17 14 17 15 17 16 17 17 17 18 17
     0x08F6: 19 17 1A 17 1B 17 1C 17 1D 17 1E 17 1F 17 02 10
     0x0906: 0E 80 2B 80 2C 80 2D 80 2E 80 2F 80 30 80 00 80
     0x0916: 00 80 08 80 08 80 21 80 21 80 21 80 08 80 00 80
     0x0926: 31 80 32 80 33 80 34 80 35 80 36 80 37 80 38 80
     0x0936: 39 80 3A 80 3B 80 3C 80 3D 80 3E 80 3F 80 00 80
     0x0946: 40 80 41 80 00 80 00 80 00 80 00 80 00 80 00 80
     0x0956: 42 80 43 80 44 80 45 80 46 80 47 80 48 80 49 80
     0x0966: 4A 80 4B 80 4C 80 4D 80 4E 80 4F 80 50 80 51 80
     0x0976: 52 80 53 80 54 80 55 80 56 80 57 80 58 80 59 80
     0x0986: 5A 80 5B 80 5C 80 5D 80 5E 80 5F 80 60 80 61 80
     0x0996: 62 80 63 80 00 80 00 80 00 80 00 80 00 80 00 80
     0x09A6: 64 80 65 80 66 80 67 80 68 80 69 80 6A 80 6B 80
     0x09B6: 6C 80 6D 80 00 80 00 80 00 80 00 80 00 80 00 80
     0x09C6: 64 80 65 80 66 80 67 80 68 80 6E 80 6F 80 70 80
     0x09D6: 71 80 72 80 73 80 74 80 75 80 76 80 77 80 78 80
     0x09E6: 79 80 7A 80 7B 80 7C 80 7D 80 7E 80 7F 80 80 80
     0x09F6: 81 80 82 80 83 80 84 80 85 80 86 80 87 80 88 80
     0x0A06: 89 80 8A 80 8B 80 8C 80 8D 80 8E 80 8F 80 90 80
     0x0A16: 91 80 92 80 93 80 94 80 95 80 96 80 97 80 98 80
     0x0A26: 99 80 9A 80 9B 80 9C 80 9D 80 9E 80 9F 80 00 80
     0x0A36: A0 80 A1 80 A2 80 00 80 00 80 00 80 00 80 00 80
     0x0A46: A3 80 A3 80 A3 80 A3 80 A3 80 03 80 03 80 03 80
     0x0A56: 03 80 03 80 00 80 00 80 00 80 00 80 00 80 00 80
     0x0A66: 2A 80 2A 80 2A 80 2A 80 2A 80 01 80 01 80 01 80
     0x0A76: 01 80 01 80 01 80 01 80 01 80 01 80 01 80 01 80
     0x0A86: 20 80 20 80 20 80 20 80 20 80 20 80 20 80 20 80
     0x0A96: 20 80 20 80 20 80 20 80 20 80 06 80 06 80 06 80
     0x0AA6: 01 80 01 80 01 80 01 80 01 80 01 80 01 80 01 80
     0x0AB6: 01 80 01 80 01 80 01 80 01 80 01 80 01 80 01 80
     0x0AC6: 01 80 01 80 01 80 01 80 01 80 01 80 01 80 00 80
     0x0AD6: 21 80 01 80 01 80 00 80 00 80 00 80 00 80 00 80
     0x0AE6: A4 80 A4 80 A4 80 A4 80 A4 80 00 80 00 80 00 80
     0x0AF6: 00 80 00 80 00 80 00 80 00 80 00 80 00 80 00 80
     0x0B06: 00 80 00 80 00 80 00 80 00 80 00 80 00 80 00 80
     0x0B16: 89 80 8A 80 A5 80 A6 80 A7 80 A8 80 8B 80 8C 80
     0x0B26: A9 80 AA 80 AB 80 8D 80 8E 80 8F 80 90 80 91 80
     0x0B36: 92 80 AC 80 AD 80 AE 80 AF 80 93 80 B0 80 94 80
     0x0B46: B1 80 B2 80 B3 80 95 80 96 80 B4 80 97 80 98 80
     0x0B56: B5 80 B6 80 B7 80 99 80 9A 80 9B 80 B8 80 B9 80
     0x0B66: BA 80 9C 80 9D 80 9E 80 9F 80 BB 80 BC 80 BD 80
     0x0B76: BE 80 BF 80 C0 80 C1 80 C2 80 C3 80 C4 80 C5 80
     0x0B86: C6 80 C7 80 C8 80 C9 80 00 80 00 80 00 80 00 80
     0x0B96: 01 80 01 80 01 80 01 80 01 80 01 80 01 80 01 80
     0x0BA6: 01 80 01 80 01 80 01 80 01 80 01 80 01 80 01 80
     0x0BB6: 01 80 01 80 01 80 01 80 01 80 01 80 01 80 01 80
     0x0BC6: 01 80 01 80 01 80 01 80 01 80 01 80 01 80 01 80
     0x0BD6: 01 80 01 80 01 80 01 80 01 80 01 80 01 80 01 80
     0x0BE6: 01 80 01 80 01 80 01 80 01 80 01 80 01 80 01 80
     0x0BF6: 01 80 01 80 01 80 01 80 01 80 01 80 01 80 01 80
     0x0C06: 01 80 01 80 01 80 01 80 00 80 00 80 00 80 00 80
     0x0C16: CA 80 CB 80 CC 80 CD 80 CE 80 CF 80 D0 80 D1 80
     0x0C26: D2 80 D3 80 D4 80 D5 80 D6 80 D7 80 D8 80 D9 80
     0x0C36: DA 80 DB 80 DC 80 DD 80 DE 80 00 80 00 80 00 80
     0x0C46: 01 80 01 80 01 80 01 80 01 80 01 80 01 80 01 80
     0x0C56: 01 80 01 80 01 80 01 80 01 80 01 80 01 80 01 80
     0x0C66: 01 80 01 80 01 80 01 80 01 80 00 80 00 80 00 80
     0x0C76: DF 80 E0 80 E1 80 E2 80 E3 80 E4 80 E5 80 E6 80
     0x0C86: E7 80 E8 80 E9 80 EA 80 EB 80 EC 80 ED 80 EE 80
     0x0C96: EF 80 F0 80 F1 80 F2 80 F3 80 F4 80 F5 80 F6 80
     0x0CA6: F7 80 00 80 00 80 00 80 00 80 00 80 00 80 00 80
     0x0CB6: 01 80 01 80 01 80 01 80 01 80 01 80 01 80 01 80
     0x0CC6: 01 80 01 80 01 80 01 80 01 80 01 80 01 80 01 80
     0x0CD6: 01 80 01 80 01 80 01 80 01 80 01 80 01 80 01 80
     0x0CE6: 01 80 00 80 00 80 00 80 00 80 00 80 00 80 00 80
     0x0CF6: F8 80 F9 80 FA 80 FB 80 FC 80 FD 80 FE 80 FF 80
     0x0D06: 00 81 01 81 02 81 03 81 04 81 05 81 06 81 07 81
     0x0D16: 08 81 09 81 0A 81 0B 81 0C 81 0D 81 00 80 00 80
     0x0D26: 64 80 65 80 66 80 67 80 68 80 0E 81 0F 81 A1 80
     0x0D36: A2 80 10 81 11 81 12 81 13 81 14 81 15 81 16 81
     0x0D46: 17 81 18 81 19 81 1A 81 1B 81 1C 81 1D 81 1E 81
     0x0D56: 1F 81 20 81 21 81 22 81 23 81 00 80 00 80 00 80
     0x0D66: 24 80 24 80 24 80 24 80 24 80 01 80 01 80 01 80
     0x0D76: 01 80 01 80 01 80 01 80 01 80 21 80 21 80 05 80
     0x0D86: 03 80 02 80 01 80 01 80 01 80 01 80 01 80 01 80
     0x0D96: 01 80 01 80 01 80 01 80 01 80 00 80 00 80 00 80
```
