# 17756237 - Mehruru

## Common Data

| Field            | Value                    |
|------------------|--------------------------|
| Zone             | Windurst Walls (ID: 239) |
| Block Size       | 364 bytes                |
| Total Events     | 13                       |
| References Count | 11                       |

## List of Events

| Event ID                 | Entrypoint   |   Size |   Instructions |
|--------------------------|--------------|--------|----------------|
| [65535](#event-65535)    | 0x0000       |      1 |              1 |
| [65535.1](#event-655351) | 0x0001       |     16 |              2 |
| [65535.2](#event-655352) | 0x0011       |      9 |              3 |
| [443](#event-443)        | 0x001A       |      7 |              2 |
| [315](#event-315)        | 0x0021       |     33 |             12 |
| [11](#event-11)          | 0x0042       |      1 |              1 |
| [46](#event-46)          | 0x0043       |     29 |             10 |
| [62](#event-62)          | 0x0060       |     29 |             10 |
| [166](#event-166)        | 0x007D       |     33 |             12 |
| [195](#event-195)        | 0x009E       |     29 |             10 |
| [246](#event-246)        | 0x00BB       |     29 |             10 |
| [203](#event-203)        | 0x00D8       |     29 |             10 |
| [532](#event-532)        | 0x00F5       |      7 |              2 |

## DAT References (imed_data)

|   Index | Hex Value   |   Dec Value |
|---------|-------------|-------------|
|       0 | 0x0028      |          40 |
|       1 | 0x001E      |          30 |
|       2 | 0x1EF7      |        7927 |
|       3 | 0x1EF8      |        7928 |
|       4 | 0x1C30      |        7216 |
|       5 | 0x1C4B      |        7243 |
|       6 | 0x1D27      |        7463 |
|       7 | 0x1D28      |        7464 |
|       8 | 0x1D6E      |        7534 |
|       9 | 0x1DF3      |        7667 |
|      10 | 0x1D7F      |        7551 |

## String References

- **7216**: Did you hear? Did you hear? The auctioneer over there--one of his deliverymen was attacked by a monster! What terribliociousness!
- **7243**: Just in front of the bridge over to Heavens Tower, there's an old man who is always giving public speeches. I'm surprised he doesn't get ill from standing outside and talking from that rock, day in day out. How devotionilicious he is!
- **7463**: The Tarutaru with titles such as doctor or professor are the learned ladies and intelli-gents who served as ministers of the five ministries of Windurst.
- **7464**: Do you know of the good Doctor Shantotto, my dear? Well, she was once the Minister of the Orastery, the ministry also known as the "Mage Academy," where all the most-powerful mages of Windurst train. That's what I call a "mage-or-leaguer"!
- **7534**: You know the manor just in front of the bridge that leads out to West Sarutabaruta? Well, that's where an eccentriperculiar old man called Professor Koru-Moru resides. For a school principal, he's not that schooled or principled!
- **7551**: Did you know? Did you know? If you say a wish three times before a falling star disappears, it will come true! However, I always screw it up and get angry... Perhaps I'm star-crossed?
- **7667**: Come to think of it... have you been to Doctor Yoran-Oran's manor lately? Such a lovely place with all those flowers blossoming there!t Oh, but some say it's blooming horridly florid!
- **7927**: My dream is to become a lady-in-waiting and serve the Star Sibyl, but I keep getting turned down by the head lady-in-waiting every time I ask for an interview. How dare she keep me waiting like this with those silly excuses of hers!
- **7928**: Flibbertigibbet, my word! What's wrong with a little gossiping, anyway? Actually, I think my spreading of information is a vital community service. Wouldn't you agree?

## Events

### Event 65535

#### Metadata

| Field        | Value   |
|--------------|---------|
| Entrypoint   | 0x0000  |
| Data Size    | 1 bytes |
| Instructions | 1       |

```
      00 01 02 03 04 05 06 07  08 09 0A 0B 0C 0D 0E 0F
      -- -- -- -- -- -- -- --  -- -- -- -- -- -- -- --
0000: 00                                                .               
```

#### Opcodes

```
  0: 0x0000 [0x00] END_REQSTACK()
```

### Event 65535.1

#### Metadata

| Field        | Value    |
|--------------|----------|
| Entrypoint   | 0x0001   |
| Data Size    | 16 bytes |
| Instructions | 2        |

```
      00 01 02 03 04 05 06 07  08 09 0A 0B 0C 0D 0E 0F
      -- -- -- -- -- -- -- --  -- -- -- -- -- -- -- --
0000:    66 00 80 F8 FF FF 7F  F8 FF FF 7F 74 6C 6B 30   f..........tlk0
0010: 00                                                .               
```

#### Opcodes

```
  0: 0x0001 [0x66] LOAD_EXT_SCHEDULER_MAIN: Load scheduler "tlk0" with entities [EventEntity, EventEntity], work=40*
  1: 0x0010 [0x00] END_REQSTACK()
```

### Event 65535.2

#### Metadata

| Field        | Value   |
|--------------|---------|
| Entrypoint   | 0x0011  |
| Data Size    | 9 bytes |
| Instructions | 3       |

```
      00 01 02 03 04 05 06 07  08 09 0A 0B 0C 0D 0E 0F
      -- -- -- -- -- -- -- --  -- -- -- -- -- -- -- --
0010:    5E 69 64 6C 30 1C 01  80 00                     ^idl0....      
```

#### Opcodes

```
  0: 0x0011 [0x5E] EventEntity goes idle (kills current action) (animation: "idl0")
  1: 0x0016 [0x1C] WAIT(30* ticks)
  2: 0x0019 [0x00] END_REQSTACK()
```

### Event 443

#### Metadata

| Field        | Value   |
|--------------|---------|
| Entrypoint   | 0x001A  |
| Data Size    | 7 bytes |
| Instructions | 2       |

```
      00 01 02 03 04 05 06 07  08 09 0A 0B 0C 0D 0E 0F
      -- -- -- -- -- -- -- --  -- -- -- -- -- -- -- --
0010:                                92 01 F8 FF FF 7F            ......
0020: 00                                                .               
```

#### Opcodes

```
  0: 0x001A [0x92] EventEntity->Render.Flags3 ^= 0x01
  1: 0x0020 [0x00] END_REQSTACK()
```

### Event 315

#### Metadata

| Field        | Value    |
|--------------|----------|
| Entrypoint   | 0x0021   |
| Data Size    | 33 bytes |
| Instructions | 12       |

```
      00 01 02 03 04 05 06 07  08 09 0A 0B 0C 0D 0E 0F
      -- -- -- -- -- -- -- --  -- -- -- -- -- -- -- --
0020:    1E F0 FF FF 7F 6F 70  29 0B 4D F0 0E 01 01 1D   .....op).M.....
0030: 02 80 23 1D 03 80 23 29  0B 4D F0 0E 01 02 20 00  ..#...#).M.... .
0040: 21 00                                             !.              
```

#### Opcodes

```
  0: 0x0021 [0x1E] EventEntity looks at LocalPlayer and starts talking
  1: 0x0026 [0x6F] WAIT_FRAME_DELAY: Yield until WaitTime reaches zero
  2: 0x0027 [0x70] WAIT_ENTITY_RENDER_FLAG: Wait while EventEntity->Render.Flags3 bit 2 is set (cancel turn if not)
  3: 0x0028 [0x29] REQ_SET_WAIT(priority=0x0B, entity_id=Mehruru (ID: 17756237/0x010EF04D), tag_num=0x01)
  4: 0x002F [0x1D] PRINT_EVENT_MESSAGE(message_id=7927*)
    → "My dream is to become a lady-in-waiting and serve the Star Sibyl, but I keep getting turned down by the head lady-in-waiting every time I ask for an interview. How dare she keep me waiting like this with those silly excuses of hers!"
  5: 0x0032 [0x23] WAIT_FOR_DIALOG_INTERACTION
  6: 0x0033 [0x1D] PRINT_EVENT_MESSAGE(message_id=7928*)
    → "Flibbertigibbet, my word! What's wrong with a little gossiping, anyway? Actually, I think my spreading of information is a vital community service. Wouldn't you agree?"
  7: 0x0036 [0x23] WAIT_FOR_DIALOG_INTERACTION
  8: 0x0037 [0x29] REQ_SET_WAIT(priority=0x0B, entity_id=Mehruru (ID: 17756237/0x010EF04D), tag_num=0x02)
  9: 0x003E [0x20] SET_CLI_EVENT_UC_FLAG: Unlock player control
 10: 0x0040 [0x21] END_EVENT
 11: 0x0041 [0x00] END_REQSTACK()
```

### Event 11

#### Metadata

| Field        | Value   |
|--------------|---------|
| Entrypoint   | 0x0042  |
| Data Size    | 1 bytes |
| Instructions | 1       |

```
      00 01 02 03 04 05 06 07  08 09 0A 0B 0C 0D 0E 0F
      -- -- -- -- -- -- -- --  -- -- -- -- -- -- -- --
0040:       00                                            .             
```

#### Opcodes

```
  0: 0x0042 [0x00] END_REQSTACK()
```

### Event 46

#### Metadata

| Field        | Value    |
|--------------|----------|
| Entrypoint   | 0x0043   |
| Data Size    | 29 bytes |
| Instructions | 10       |

```
      00 01 02 03 04 05 06 07  08 09 0A 0B 0C 0D 0E 0F
      -- -- -- -- -- -- -- --  -- -- -- -- -- -- -- --
0040:          1E F0 FF FF 7F  6F 70 29 0B 4D F0 0E 01     .....op).M...
0050: 01 1D 04 80 23 29 0B 4D  F0 0E 01 02 20 00 21 00  ....#).M.... .!.
```

#### Opcodes

```
  0: 0x0043 [0x1E] EventEntity looks at LocalPlayer and starts talking
  1: 0x0048 [0x6F] WAIT_FRAME_DELAY: Yield until WaitTime reaches zero
  2: 0x0049 [0x70] WAIT_ENTITY_RENDER_FLAG: Wait while EventEntity->Render.Flags3 bit 2 is set (cancel turn if not)
  3: 0x004A [0x29] REQ_SET_WAIT(priority=0x0B, entity_id=Mehruru (ID: 17756237/0x010EF04D), tag_num=0x01)
  4: 0x0051 [0x1D] PRINT_EVENT_MESSAGE(message_id=7216*)
    → "Did you hear? Did you hear? The auctioneer over there--one of his deliverymen was attacked by a monster! What terribliociousness!"
  5: 0x0054 [0x23] WAIT_FOR_DIALOG_INTERACTION
  6: 0x0055 [0x29] REQ_SET_WAIT(priority=0x0B, entity_id=Mehruru (ID: 17756237/0x010EF04D), tag_num=0x02)
  7: 0x005C [0x20] SET_CLI_EVENT_UC_FLAG: Unlock player control
  8: 0x005E [0x21] END_EVENT
  9: 0x005F [0x00] END_REQSTACK()
```

### Event 62

#### Metadata

| Field        | Value    |
|--------------|----------|
| Entrypoint   | 0x0060   |
| Data Size    | 29 bytes |
| Instructions | 10       |

```
      00 01 02 03 04 05 06 07  08 09 0A 0B 0C 0D 0E 0F
      -- -- -- -- -- -- -- --  -- -- -- -- -- -- -- --
0060: 1E F0 FF FF 7F 6F 70 29  0B 4D F0 0E 01 01 1D 05  .....op).M......
0070: 80 23 29 0B 4D F0 0E 01  02 20 00 21 00           .#).M.... .!.   
```

#### Opcodes

```
  0: 0x0060 [0x1E] EventEntity looks at LocalPlayer and starts talking
  1: 0x0065 [0x6F] WAIT_FRAME_DELAY: Yield until WaitTime reaches zero
  2: 0x0066 [0x70] WAIT_ENTITY_RENDER_FLAG: Wait while EventEntity->Render.Flags3 bit 2 is set (cancel turn if not)
  3: 0x0067 [0x29] REQ_SET_WAIT(priority=0x0B, entity_id=Mehruru (ID: 17756237/0x010EF04D), tag_num=0x01)
  4: 0x006E [0x1D] PRINT_EVENT_MESSAGE(message_id=7243*)
    → "Just in front of the bridge over to Heavens Tower, there's an old man who is always giving public speeches. I'm surprised he doesn't get ill from standing outside and talking from that rock, day in day out. How devotionilicious he is!"
  5: 0x0071 [0x23] WAIT_FOR_DIALOG_INTERACTION
  6: 0x0072 [0x29] REQ_SET_WAIT(priority=0x0B, entity_id=Mehruru (ID: 17756237/0x010EF04D), tag_num=0x02)
  7: 0x0079 [0x20] SET_CLI_EVENT_UC_FLAG: Unlock player control
  8: 0x007B [0x21] END_EVENT
  9: 0x007C [0x00] END_REQSTACK()
```

### Event 166

#### Metadata

| Field        | Value    |
|--------------|----------|
| Entrypoint   | 0x007D   |
| Data Size    | 33 bytes |
| Instructions | 12       |

```
      00 01 02 03 04 05 06 07  08 09 0A 0B 0C 0D 0E 0F
      -- -- -- -- -- -- -- --  -- -- -- -- -- -- -- --
0070:                                         1E F0 FF               ...
0080: FF 7F 6F 70 29 0B 4D F0  0E 01 01 1D 06 80 23 1D  ..op).M.......#.
0090: 07 80 23 29 0B 4D F0 0E  01 02 20 00 21 00        ..#).M.... .!.  
```

#### Opcodes

```
  0: 0x007D [0x1E] EventEntity looks at LocalPlayer and starts talking
  1: 0x0082 [0x6F] WAIT_FRAME_DELAY: Yield until WaitTime reaches zero
  2: 0x0083 [0x70] WAIT_ENTITY_RENDER_FLAG: Wait while EventEntity->Render.Flags3 bit 2 is set (cancel turn if not)
  3: 0x0084 [0x29] REQ_SET_WAIT(priority=0x0B, entity_id=Mehruru (ID: 17756237/0x010EF04D), tag_num=0x01)
  4: 0x008B [0x1D] PRINT_EVENT_MESSAGE(message_id=7463*)
    → "The Tarutaru with titles such as doctor or professor are the learned ladies and intelli-gents who served as ministers of the five ministries of Windurst."
  5: 0x008E [0x23] WAIT_FOR_DIALOG_INTERACTION
  6: 0x008F [0x1D] PRINT_EVENT_MESSAGE(message_id=7464*)
    → "Do you know of the good Doctor Shantotto, my dear? Well, she was once the Minister of the Orastery, the ministry also known as the "Mage Academy," where all the most-powerful mages of Windurst train. That's what I call a "mage-or-leaguer"!"
  7: 0x0092 [0x23] WAIT_FOR_DIALOG_INTERACTION
  8: 0x0093 [0x29] REQ_SET_WAIT(priority=0x0B, entity_id=Mehruru (ID: 17756237/0x010EF04D), tag_num=0x02)
  9: 0x009A [0x20] SET_CLI_EVENT_UC_FLAG: Unlock player control
 10: 0x009C [0x21] END_EVENT
 11: 0x009D [0x00] END_REQSTACK()
```

### Event 195

#### Metadata

| Field        | Value    |
|--------------|----------|
| Entrypoint   | 0x009E   |
| Data Size    | 29 bytes |
| Instructions | 10       |

```
      00 01 02 03 04 05 06 07  08 09 0A 0B 0C 0D 0E 0F
      -- -- -- -- -- -- -- --  -- -- -- -- -- -- -- --
0090:                                            1E F0                ..
00A0: FF FF 7F 6F 70 29 0B 4D  F0 0E 01 01 1D 08 80 23  ...op).M.......#
00B0: 29 0B 4D F0 0E 01 02 20  00 21 00                 ).M.... .!.     
```

#### Opcodes

```
  0: 0x009E [0x1E] EventEntity looks at LocalPlayer and starts talking
  1: 0x00A3 [0x6F] WAIT_FRAME_DELAY: Yield until WaitTime reaches zero
  2: 0x00A4 [0x70] WAIT_ENTITY_RENDER_FLAG: Wait while EventEntity->Render.Flags3 bit 2 is set (cancel turn if not)
  3: 0x00A5 [0x29] REQ_SET_WAIT(priority=0x0B, entity_id=Mehruru (ID: 17756237/0x010EF04D), tag_num=0x01)
  4: 0x00AC [0x1D] PRINT_EVENT_MESSAGE(message_id=7534*)
    → "You know the manor just in front of the bridge that leads out to West Sarutabaruta? Well, that's where an eccentriperculiar old man called Professor Koru-Moru resides. For a school principal, he's not that schooled or principled!"
  5: 0x00AF [0x23] WAIT_FOR_DIALOG_INTERACTION
  6: 0x00B0 [0x29] REQ_SET_WAIT(priority=0x0B, entity_id=Mehruru (ID: 17756237/0x010EF04D), tag_num=0x02)
  7: 0x00B7 [0x20] SET_CLI_EVENT_UC_FLAG: Unlock player control
  8: 0x00B9 [0x21] END_EVENT
  9: 0x00BA [0x00] END_REQSTACK()
```

### Event 246

#### Metadata

| Field        | Value    |
|--------------|----------|
| Entrypoint   | 0x00BB   |
| Data Size    | 29 bytes |
| Instructions | 10       |

```
      00 01 02 03 04 05 06 07  08 09 0A 0B 0C 0D 0E 0F
      -- -- -- -- -- -- -- --  -- -- -- -- -- -- -- --
00B0:                                   1E F0 FF FF 7F             .....
00C0: 6F 70 29 0B 4D F0 0E 01  01 1D 09 80 23 29 0B 4D  op).M.......#).M
00D0: F0 0E 01 02 20 00 21 00                           .... .!.        
```

#### Opcodes

```
  0: 0x00BB [0x1E] EventEntity looks at LocalPlayer and starts talking
  1: 0x00C0 [0x6F] WAIT_FRAME_DELAY: Yield until WaitTime reaches zero
  2: 0x00C1 [0x70] WAIT_ENTITY_RENDER_FLAG: Wait while EventEntity->Render.Flags3 bit 2 is set (cancel turn if not)
  3: 0x00C2 [0x29] REQ_SET_WAIT(priority=0x0B, entity_id=Mehruru (ID: 17756237/0x010EF04D), tag_num=0x01)
  4: 0x00C9 [0x1D] PRINT_EVENT_MESSAGE(message_id=7667*)
    → "Come to think of it... have you been to Doctor Yoran-Oran's manor lately? Such a lovely place with all those flowers blossoming there!t Oh, but some say it's blooming horridly florid!"
  5: 0x00CC [0x23] WAIT_FOR_DIALOG_INTERACTION
  6: 0x00CD [0x29] REQ_SET_WAIT(priority=0x0B, entity_id=Mehruru (ID: 17756237/0x010EF04D), tag_num=0x02)
  7: 0x00D4 [0x20] SET_CLI_EVENT_UC_FLAG: Unlock player control
  8: 0x00D6 [0x21] END_EVENT
  9: 0x00D7 [0x00] END_REQSTACK()
```

### Event 203

#### Metadata

| Field        | Value    |
|--------------|----------|
| Entrypoint   | 0x00D8   |
| Data Size    | 29 bytes |
| Instructions | 10       |

```
      00 01 02 03 04 05 06 07  08 09 0A 0B 0C 0D 0E 0F
      -- -- -- -- -- -- -- --  -- -- -- -- -- -- -- --
00D0:                          1E F0 FF FF 7F 6F 70 29          .....op)
00E0: 0B 4D F0 0E 01 01 1D 0A  80 23 29 0B 4D F0 0E 01  .M.......#).M...
00F0: 02 20 00 21 00                                    . .!.           
```

#### Opcodes

```
  0: 0x00D8 [0x1E] EventEntity looks at LocalPlayer and starts talking
  1: 0x00DD [0x6F] WAIT_FRAME_DELAY: Yield until WaitTime reaches zero
  2: 0x00DE [0x70] WAIT_ENTITY_RENDER_FLAG: Wait while EventEntity->Render.Flags3 bit 2 is set (cancel turn if not)
  3: 0x00DF [0x29] REQ_SET_WAIT(priority=0x0B, entity_id=Mehruru (ID: 17756237/0x010EF04D), tag_num=0x01)
  4: 0x00E6 [0x1D] PRINT_EVENT_MESSAGE(message_id=7551*)
    → "Did you know? Did you know? If you say a wish three times before a falling star disappears, it will come true! However, I always screw it up and get angry... Perhaps I'm star-crossed?"
  5: 0x00E9 [0x23] WAIT_FOR_DIALOG_INTERACTION
  6: 0x00EA [0x29] REQ_SET_WAIT(priority=0x0B, entity_id=Mehruru (ID: 17756237/0x010EF04D), tag_num=0x02)
  7: 0x00F1 [0x20] SET_CLI_EVENT_UC_FLAG: Unlock player control
  8: 0x00F3 [0x21] END_EVENT
  9: 0x00F4 [0x00] END_REQSTACK()
```

### Event 532

#### Metadata

| Field        | Value   |
|--------------|---------|
| Entrypoint   | 0x00F5  |
| Data Size    | 7 bytes |
| Instructions | 2       |

```
      00 01 02 03 04 05 06 07  08 09 0A 0B 0C 0D 0E 0F
      -- -- -- -- -- -- -- --  -- -- -- -- -- -- -- --
00F0:                92 01 F8  FF FF 7F 00                   .......    
```

#### Opcodes

```
  0: 0x00F5 [0x92] EventEntity->Render.Flags3 ^= 0x01
  1: 0x00FB [0x00] END_REQSTACK()
```
