# 17756171 - Zokima-Rokima

## Common Data

| Field            | Value                    |
|------------------|--------------------------|
| Zone             | Windurst Walls (ID: 239) |
| Block Size       | 8580 bytes               |
| Total Events     | 101                      |
| References Count | 190                      |

## List of Events

| Event ID                   | Entrypoint   |   Size |   Instructions |
|----------------------------|--------------|--------|----------------|
| [65535](#event-65535)      | 0x0000       |      1 |              1 |
| [65535.1](#event-655351)   | 0x0001       |     16 |              2 |
| [65535.2](#event-655352)   | 0x0011       |     22 |              4 |
| [65535.3](#event-655353)   | 0x0027       |     16 |              2 |
| [65535.4](#event-655354)   | 0x0037       |     14 |              2 |
| [65535.5](#event-655355)   | 0x0045       |     16 |              2 |
| [65535.6](#event-655356)   | 0x0055       |     14 |              2 |
| [65535.7](#event-655357)   | 0x0063       |     16 |              2 |
| [65535.8](#event-655358)   | 0x0073       |     14 |              2 |
| [65535.9](#event-655359)   | 0x0081       |     16 |              2 |
| [65535.10](#event-6553510) | 0x0091       |     14 |              2 |
| [65535.11](#event-6553511) | 0x009F       |     16 |              2 |
| [65535.12](#event-6553512) | 0x00AF       |     14 |              2 |
| [65535.13](#event-6553513) | 0x00BD       |     16 |              2 |
| [65535.14](#event-6553514) | 0x00CD       |     14 |              2 |
| [65535.15](#event-6553515) | 0x00DB       |     16 |              2 |
| [65535.16](#event-6553516) | 0x00EB       |     14 |              2 |
| [65535.17](#event-6553517) | 0x00F9       |      9 |              3 |
| [443](#event-443)          | 0x0102       |      7 |              2 |
| [65535.18](#event-6553518) | 0x0109       |     28 |              8 |
| [65535.19](#event-6553519) | 0x0125       |     10 |              2 |
| [65535.20](#event-6553520) | 0x012F       |     14 |              4 |
| [87](#event-87)            | 0x013D       |     33 |             12 |
| [93](#event-93)            | 0x015E       |    514 |             92 |
| [65535.21](#event-6553521) | 0x0360       |     42 |             11 |
| [91](#event-91)            | 0x038A       |     29 |             10 |
| [96](#event-96)            | 0x03A7       |    233 |             34 |
| [65535.22](#event-6553522) | 0x0490       |     62 |             12 |
| [97](#event-97)            | 0x04CE       |     69 |             13 |
| [98](#event-98)            | 0x0513       |    147 |             15 |
| [65535.23](#event-6553523) | 0x05A6       |     23 |              7 |
| [65535.24](#event-6553524) | 0x05BD       |     23 |              7 |
| [65535.25](#event-6553525) | 0x05D4       |     23 |              7 |
| [65535.26](#event-6553526) | 0x05EB       |     23 |              7 |
| [65535.27](#event-6553527) | 0x0602       |     23 |              7 |
| [65535.28](#event-6553528) | 0x0619       |      5 |              3 |
| [65535.29](#event-6553529) | 0x061E       |     23 |              7 |
| [99](#event-99)            | 0x0635       |     33 |             12 |
| [102](#event-102)          | 0x0656       |     29 |             10 |
| [103](#event-103)          | 0x0673       |     29 |             10 |
| [106](#event-106)          | 0x0690       |    219 |             34 |
| [65535.30](#event-6553530) | 0x076B       |     41 |             11 |
| [65535.31](#event-6553531) | 0x0794       |     23 |              7 |
| [107](#event-107)          | 0x07AB       |     33 |             12 |
| [111](#event-111)          | 0x07CC       |    246 |             33 |
| [65535.32](#event-6553532) | 0x08C2       |     23 |              7 |
| [65535.33](#event-6553533) | 0x08D9       |     23 |              7 |
| [65535.34](#event-6553534) | 0x08F0       |     19 |              5 |
| [65535.35](#event-6553535) | 0x0903       |     19 |              5 |
| [65535.36](#event-6553536) | 0x0916       |     23 |              7 |
| [65535.37](#event-6553537) | 0x092D       |     37 |              9 |
| [112](#event-112)          | 0x0952       |     33 |             12 |
| [116](#event-116)          | 0x0973       |    225 |             36 |
| [117](#event-117)          | 0x0A54       |     29 |             10 |
| [121](#event-121)          | 0x0A71       |    219 |             34 |
| [65535.38](#event-6553538) | 0x0B4C       |     27 |              9 |
| [65535.39](#event-6553539) | 0x0B67       |     23 |              7 |
| [122](#event-122)          | 0x0B7E       |     33 |             12 |
| [126](#event-126)          | 0x0B9F       |    219 |             34 |
| [65535.40](#event-6553540) | 0x0C7A       |     23 |              7 |
| [65535.41](#event-6553541) | 0x0C91       |     23 |              7 |
| [127](#event-127)          | 0x0CA8       |     33 |             12 |
| [131](#event-131)          | 0x0CC9       |    167 |             26 |
| [65535.42](#event-6553542) | 0x0D70       |     19 |              5 |
| [65535.43](#event-6553543) | 0x0D83       |     19 |              5 |
| [134](#event-134)          | 0x0D96       |     33 |             12 |
| [136](#event-136)          | 0x0DB7       |    225 |             36 |
| [137](#event-137)          | 0x0E98       |     33 |             12 |
| [141](#event-141)          | 0x0EB9       |    179 |             32 |
| [142](#event-142)          | 0x0F6C       |     33 |             12 |
| [145](#event-145)          | 0x0F8D       |    184 |             27 |
| [65535.44](#event-6553544) | 0x1045       |     33 |              7 |
| [65535.45](#event-6553545) | 0x1066       |     37 |              9 |
| [146](#event-146)          | 0x108B       |     33 |             12 |
| [150](#event-150)          | 0x10AC       |     33 |             12 |
| [153](#event-153)          | 0x10CD       |    208 |             29 |
| [65535.46](#event-6553546) | 0x119D       |     19 |              5 |
| [65535.47](#event-6553547) | 0x11B0       |     27 |              9 |
| [65535.48](#event-6553548) | 0x11CB       |     23 |              7 |
| [154](#event-154)          | 0x11E2       |     33 |             12 |
| [157](#event-157)          | 0x1203       |    152 |             25 |
| [65535.49](#event-6553549) | 0x129B       |     23 |              7 |
| [65535.50](#event-6553550) | 0x12B2       |     19 |              5 |
| [158](#event-158)          | 0x12C5       |     33 |             12 |
| [350](#event-350)          | 0x12E6       |    241 |             38 |
| [351](#event-351)          | 0x13D7       |     45 |             14 |
| [355](#event-355)          | 0x1404       |    344 |             53 |
| [356](#event-356)          | 0x155C       |     61 |             16 |
| [360](#event-360)          | 0x1599       |    255 |             40 |
| [361](#event-361)          | 0x1698       |     47 |             14 |
| [365](#event-365)          | 0x16C7       |    273 |             40 |
| [366](#event-366)          | 0x17D8       |     47 |             14 |
| [370](#event-370)          | 0x1807       |    172 |             31 |
| [371](#event-371)          | 0x18B3       |     33 |             12 |
| [375](#event-375)          | 0x18D4       |    302 |             47 |
| [376](#event-376)          | 0x1A02       |     47 |             14 |
| [422](#event-422)          | 0x1A31       |    257 |             42 |
| [423](#event-423)          | 0x1B32       |     33 |             12 |
| [427](#event-427)          | 0x1B53       |    304 |             45 |
| [428](#event-428)          | 0x1C83       |     33 |             12 |
| [435](#event-435)          | 0x1CA4       |     68 |             21 |

## DAT References (imed_data)

|   Index | Hex Value   |   Dec Value |
|---------|-------------|-------------|
|       0 | 0x0028      |          40 |
|       1 | 0x001E      |          30 |
|       2 | 0x002D      |          45 |
|       3 | 0x000D      |          13 |
|       4 | 0x04B0      |        1200 |
|       5 | 0x1F018     |      127000 |
|       6 | 0xFFFFBE93  |  4294950547 |
|       7 | 0x0800      |        2048 |
|       8 | 0xFFFF55E3  |  4294923747 |
|       9 | 0x1FCE6     |      130278 |
|      10 | 0xFFFFC706  |  4294952710 |
|      11 | 0x06AC      |        1708 |
|      12 | 0xFFFF1F8F  |  4294909839 |
|      13 | 0x1DBC0     |      121792 |
|      14 | 0xFFFFCEED  |  4294954733 |
|      15 | 0x1C72      |        7282 |
|      16 | 0x1C73      |        7283 |
|      17 | 0x1C7A      |        7290 |
|      18 | 0x1C7B      |        7291 |
|      19 | 0x001F      |          31 |
|      20 | 0x0001      |           1 |
|      21 | 0x0002      |           2 |
|      22 | 0x0003      |           3 |
|      23 | 0x0004      |           4 |
|      24 | 0x0005      |           5 |
|      25 | 0x000A      |          10 |
|      26 | 0x000B      |          11 |
|      27 | 0x000C      |          12 |
|      28 | 0x000E      |          14 |
|      29 | 0x000F      |          15 |
|      30 | 0x0010      |          16 |
|      31 | 0x0011      |          17 |
|      32 | 0x0012      |          18 |
|      33 | 0x0013      |          19 |
|      34 | 0x0014      |          20 |
|      35 | 0x0015      |          21 |
|      36 | 0x0016      |          22 |
|      37 | 0x0017      |          23 |
|      38 | 0x1A5D      |        6749 |
|      39 | 0x0000      |           0 |
|      40 | 0x1C79      |        7289 |
|      41 | 0x00C8      |         200 |
|      42 | 0x003C      |          60 |
|      43 | 0x008B      |         139 |
|      44 | 0x1C7F      |        7295 |
|      45 | 0x1C86      |        7302 |
|      46 | 0x1C88      |        7304 |
|      47 | 0x1C7D      |        7293 |
|      48 | 0x1C7E      |        7294 |
|      49 | 0x1C80      |        7296 |
|      50 | 0x1C81      |        7297 |
|      51 | 0x1C82      |        7298 |
|      52 | 0x1C83      |        7299 |
|      53 | 0x1C84      |        7300 |
|      54 | 0x1C85      |        7301 |
|      55 | 0x1C8E      |        7310 |
|      56 | 0x1C8F      |        7311 |
|      57 | 0x1C87      |        7303 |
|      58 | 0x1C8C      |        7308 |
|      59 | 0x1C8D      |        7309 |
|      60 | 0x1C90      |        7312 |
|      61 | 0x1C91      |        7313 |
|      62 | 0x1C96      |        7318 |
|      63 | 0x1C97      |        7319 |
|      64 | 0x1C9D      |        7325 |
|      65 | 0x1C9A      |        7322 |
|      66 | 0x1C9B      |        7323 |
|      67 | 0x1C9C      |        7324 |
|      68 | 0x1C9E      |        7326 |
|      69 | 0x1C9F      |        7327 |
|      70 | 0x1CA0      |        7328 |
|      71 | 0x1CA1      |        7329 |
|      72 | 0x1CA7      |        7335 |
|      73 | 0x1CA8      |        7336 |
|      74 | 0x1CA9      |        7337 |
|      75 | 0x1CAA      |        7338 |
|      76 | 0x1CAB      |        7339 |
|      77 | 0x1CAC      |        7340 |
|      78 | 0x1CAD      |        7341 |
|      79 | 0x1CAE      |        7342 |
|      80 | 0x1CAF      |        7343 |
|      81 | 0x1CB0      |        7344 |
|      82 | 0x1CB1      |        7345 |
|      83 | 0x1CB2      |        7346 |
|      84 | 0x1CB9      |        7353 |
|      85 | 0x1CBA      |        7354 |
|      86 | 0x1CBB      |        7355 |
|      87 | 0x00C9      |         201 |
|      88 | 0x1CBC      |        7356 |
|      89 | 0x1CC4      |        7364 |
|      90 | 0x1CC1      |        7361 |
|      91 | 0x1CC2      |        7362 |
|      92 | 0x1CC3      |        7363 |
|      93 | 0x1CC5      |        7365 |
|      94 | 0x1CC6      |        7366 |
|      95 | 0x1CC7      |        7367 |
|      96 | 0x1CC8      |        7368 |
|      97 | 0x1CD1      |        7377 |
|      98 | 0x1CCF      |        7375 |
|      99 | 0x1CD0      |        7376 |
|     100 | 0x1CD2      |        7378 |
|     101 | 0x1CD3      |        7379 |
|     102 | 0x1CD4      |        7380 |
|     103 | 0x1CD5      |        7381 |
|     104 | 0x1CDC      |        7388 |
|     105 | 0x1CDD      |        7389 |
|     106 | 0x1CE2      |        7394 |
|     107 | 0x1CE3      |        7395 |
|     108 | 0x1CE6      |        7398 |
|     109 | 0x1CE7      |        7399 |
|     110 | 0x1CE8      |        7400 |
|     111 | 0x1CE9      |        7401 |
|     112 | 0x1CEA      |        7402 |
|     113 | 0x1CF1      |        7409 |
|     114 | 0x1CF2      |        7410 |
|     115 | 0x1CF3      |        7411 |
|     116 | 0x1CF4      |        7412 |
|     117 | 0x1CF5      |        7413 |
|     118 | 0x1CFA      |        7418 |
|     119 | 0x1CFB      |        7419 |
|     120 | 0x1CFC      |        7420 |
|     121 | 0x1CFD      |        7421 |
|     122 | 0x1CFE      |        7422 |
|     123 | 0x1D04      |        7428 |
|     124 | 0x1D05      |        7429 |
|     125 | 0x1D0A      |        7434 |
|     126 | 0x1D0B      |        7435 |
|     127 | 0x1D0C      |        7436 |
|     128 | 0x1D0D      |        7437 |
|     129 | 0x1D0E      |        7438 |
|     130 | 0x1D0F      |        7439 |
|     131 | 0x1D10      |        7440 |
|     132 | 0x1D11      |        7441 |
|     133 | 0x1D16      |        7446 |
|     134 | 0x1D17      |        7447 |
|     135 | 0x1D18      |        7448 |
|     136 | 0x1D19      |        7449 |
|     137 | 0x1D1A      |        7450 |
|     138 | 0x220E      |        8718 |
|     139 | 0x220F      |        8719 |
|     140 | 0x2210      |        8720 |
|     141 | 0x2211      |        8721 |
|     142 | 0x0006      |           6 |
|     143 | 0x2212      |        8722 |
|     144 | 0x2219      |        8729 |
|     145 | 0x221A      |        8730 |
|     146 | 0x221B      |        8731 |
|     147 | 0x221C      |        8732 |
|     148 | 0x221D      |        8733 |
|     149 | 0x221E      |        8734 |
|     150 | 0x221F      |        8735 |
|     151 | 0x2220      |        8736 |
|     152 | 0x2226      |        8742 |
|     153 | 0x2227      |        8743 |
|     154 | 0x2228      |        8744 |
|     155 | 0x2229      |        8745 |
|     156 | 0x222A      |        8746 |
|     157 | 0x2231      |        8753 |
|     158 | 0x2232      |        8754 |
|     159 | 0x2233      |        8755 |
|     160 | 0x2234      |        8756 |
|     161 | 0x2235      |        8757 |
|     162 | 0x0007      |           7 |
|     163 | 0x223C      |        8764 |
|     164 | 0x223D      |        8765 |
|     165 | 0x223E      |        8766 |
|     166 | 0x223F      |        8767 |
|     167 | 0x2246      |        8774 |
|     168 | 0x2247      |        8775 |
|     169 | 0x2248      |        8776 |
|     170 | 0x2249      |        8777 |
|     171 | 0x007F      |         127 |
|     172 | 0x224A      |        8778 |
|     173 | 0x224B      |        8779 |
|     174 | 0x2328      |        9000 |
|     175 | 0x2329      |        9001 |
|     176 | 0x232A      |        9002 |
|     177 | 0x232B      |        9003 |
|     178 | 0x232C      |        9004 |
|     179 | 0x232D      |        9005 |
|     180 | 0x2342      |        9026 |
|     181 | 0x2343      |        9027 |
|     182 | 0x2344      |        9028 |
|     183 | 0x2345      |        9029 |
|     184 | 0x2346      |        9030 |
|     185 | 0x2347      |        9031 |
|     186 | 0x234F      |        9039 |
|     187 | 0x2350      |        9040 |
|     188 | 0x2351      |        9041 |
|     189 | 0x2352      |        9042 |

## String References

- **6749**: Accept this mission? [Yes./No.]
- **7282**: This is Windurst Walls, the centermost of the four districts that make up the Federation of Windurst. It is also the political centaru of Windurst.
- **7283**: If you need directions to make your way around Windurst Walls, go ask Jack of Diamonds in the open area down thattaru way.
- **7289**: You cannotaru accept more than one mission at a time. Please completaru your current mission before applying for the next.
- **7290**: Letaru me see... The missions you are able to receive...
- **7291**: Which mission will you accept? [The Horutoto Ruins Experiment./The Heart of the Matter./The Price of Peace./Lost for Words./A Testing Time./The Three Kingdoms./Mission 2-3-1A./Mission 2-3-1B./Mission 2-3-2A./Mission 2-3-2B./To Each His Own Right./Written in the Stars./A New Journey./Magicite./The Final Seal./The Shadow Awaits./Full Moon Fountain./Saintly Invitation./The Sixth Ministry./Awakening of the Gods./Vain./The Jester Who'd Be King./Doll of the Dead./Moon Reading./Dummy11./Dummy12./Dummy13./Dummy14./Dummy15./Dummy16./Dummy17./Decline mission.]
- **7293**: This is Heavens Tower's gatehouse, and we are the guards who protectaru Heavens Tower.
- **7294**: You look new around these partarus. Do you know aboutaru the role of the gatehouses?
- **7295**: Know much aboutaru gatehouses? [No, I don'taru./Yes, enough.]
- **7296**: Oh, so you know aboutaru us? Then let's give you a mission to try your hand ataru!
- **7297**: It's all aboutaru learning from experience. Don't worry aboutaru the details. Just accept a mission and see if you can completarue it.
- **7298**: Gatehouses are where we guards keep a round-the-clock vigil.
- **7299**: The role of guards is to protectaru Windurst from monsters and bad people. Or as we prefer to putaru it...we're the heroes of justaruice, libertaruy, and love.
- **7300**: Gatehouses also serve as the places where importantaru missions from the Federation of Windurst are received and handed out to adventarurers.
- **7301**: If you're a capable adventarurer, confidentaru in your own abilities, then why notaru take on a mission and serve to protectaru Windurst's justaruice, libertaruy, and love together with us?
- **7302**: Receive a mission? [Acceptaru./Decline.]
- **7303**: Okay then... Hey, Keo-Koruo...!
- **7308**: I thought thataru Orastery mob was beyond help, but it looks like they're asking for a hand. Well, let's make this your first mission anyway, and see how you go with itaru.
- **7309**: Head over to the Orastery building in Port Windurst and ask the minister there for the mission details.
- **7310**: No greataru loss... If someone doesn'taru have their heart in it, then you can hardly expectaru them to provide good results, now can you?
- **7311**: Anyway, come back and tell us when you feel like doing something for your country for a change.
- **7312**: Head over to the Orastery building in Port Windurst and ask the minister there for your mission details.
- **7313**: Oh, and just in case you didn'taru know... The Orastery is one of the five ministries of Windurst. It is also known as the "Mage Academy," as itaru is the place where they train the most powerful magic users to help serve the Federation.
- **7318**: Well done! We'll allocatarue you rank points according to our evaluation of your mission. Come back again soon and try your hand ataru another mission.
- **7319**: Well done! We'll allocatarue you rank points according to our evaluation of your mission. Come back again soon and try your hand ataru another mission.
- **7322**: Hmm... Nextaru we have a mission from the Manustery!
- **7323**: The Manustery is another one of the five ministries of Windurst. Seems they need assistance in the creation of automaton guards ataru their Cardian workshop.
- **7324**: Whataru do you reckon? Think you're up to this mission?
- **7325**: Acceptaru this mission? [Acceptaru./Decline.]
- **7326**: Greataru! Then head to the Manustery in Windurst Woods.
- **7327**: You should be able to see a building high on the hill when you look up from the Bomingo Round in Windurst Woods. Thataru's the Manustery, otherwise known as the Cardian workshop.
- **7328**: Go ask the staff who work ataru the Manustery's Cardian workshop in Windurst Woods for the details of your mission.
- **7329**: To getaru to Windurst Woods from here, just cross the bridge and head south. Keep heading south pastaru the auction house and across the bridge there. I recommend you keep checking your map so as not to getaru lost.
- **7335**: Seems like you've settled into your life in Windurst quitarue well. I hope your fighting skills have also improved.
- **7336**: We've prepared this nextaru mission for someone just like you.
- **7337**: Your destaruination will be Giddeus--home of the Yagudo beastmen--on the other side of West Sarutabaruta.
- **7338**: Windurst and the Yagudo have long been enemies, fightaruing over the riches of Sarutabaruta since ancient times.
- **7339**: But for the lastaru twenty years, since the war ended, Windurst has been working hard ataru maintaining peaceful relations with the Yagudo.
- **7340**: As a sign of our amicability, we provide them with food offerings. This is where your nextaru mission comes into the picture.
- **7341**: You are to go and receive some food offerings from the Rhinostery over in Windurst Waters and deliver them to Giddeus.
- **7342**: There are two altars for the offerings above ground before the entrances to inner Giddeus. In order to fulfill your mission, you are to place a food offering ataru each of these altars.
- **7343**: The problem is...even though we are supposed to have amicable relations with the Yagudo, they do not allow us people to enter Giddeus. So once you setaru foot in there, you're fair game.
- **7344**: I don'taru think we should have to risk our lives in order to deliver them a presentaru of food. But, oops, I've said too much. I never said thataru last bit, okay?
- **7345**: Head over to the Rhinostery in Windurst Waters and pick up the food offerings for the Yagudo. Then go deliver them to Giddeus.
- **7346**: Windurst Waters is west of where we stand in Windurst Walls. The quickestaru way to get there is to cross the bridge nextaru to Koru-Moru's manor.
- **7353**: Good, good... Thataru seemed to go withoutaru a hitch this time.
- **7354**: Oh, and congratarulations! Now thataru you've cleared three missions, you are entitled to advance to rank two!
- **7355**: Before I can issue you another mission, we require you to participate in the conquest campaign for a while in order to amass some rank points. Speak to the guard in charge of conquests for further details.
- **7356**: Let's keep working together to protectaru Windurst's justaruice, libertaruy, and love!
- **7361**: How unusual.. We have justaru received an urgentaru mission from the Optistery.
- **7362**: The Optistery runs the local Library of Magic and is the mostaru rigid of Windurst's ministries. They usually keep to themselves and don'taru cause any trouble.
- **7363**: Why don'taru you take up this rare chance of serving the Optistery, as it's sure got my interestaru plucked!
- **7364**: Acceptaru this mission? [Acceptaru./Decline.]
- **7365**: The Library of Magic thataru the Optistery runs is west of here, in Windurst Waters. To find out whataru the mission involves, speak to the Minister of the Optistery in the library there.
- **7366**: You remember how to getaru to Windurst Waters, rightaru? Head west and cross the bridge nextaru to old Koru-Moru's manor.
- **7367**: The Library of Magic thataru the Optistery runs is west of here, in Windurst Waters. To find outaru what your mission involves, speak to the Minister of the Optistery in the library there.
- **7368**: You remember how to getaru to Windurst Waters, rightaru? Head west and cross the bridge nextaru to old Koru-Moru's manor.
- **7375**: This mission will let you see the bestaru and worstaru of Windurst.
- **7376**: The Aurastery, the ministry thataru runs the School of Magic, has issued a large-scale mission. It looks like it'll consume a fair amountaru of time, but if you're still up for itaru...
- **7377**: Accept the mission? [Acceptaru./Decline.]
- **7378**: The School of Magic, as the name suggests, is where we educate our promising young magic users.
- **7379**: This mission will affectaru how these children will grow up, and therefore the whole future of Windurst. I pray you can putaru up a good fightaru!
- **7380**: The School of Magic is in the Windurst Waters district, west of here. Quitarue a number of child prodigies study within the school grounds.
- **7381**: Butaru to receive the details of this mission, you'll have to speak to the teachers in the staff room there. Good luck with this mission...for our children's future.
- **7388**: Looks like your time has finally come! Now's the startaru of an adventure that will take you all over the world!
- **7389**: To be briefed on whataru your next mission entails, head on into the Heavens Tower Clerical Chamber. So chop-chop, you've gotaru a long way to go once you step inside here...
- **7394**: Any adventarurer wants to travel around the whole world, butaru when you are asked to do itaru for your country, then it's like killing two jubjubs with one Stone spell!
- **7395**: Step inside Heavens Tower behind me and inquire ataru the Clerical Chamber to hear the full briefing of your mission. Hurry on up now!
- **7398**: Thank goodness you stopped by! You have been summoned to go inside Heavens Tower again!
- **7399**: And what's scarier still is thataru the person calling for you is none other than the Sibyl Guard Semih Lafihna, or as we at Heavens Tower call her...the defender of law and justaruice!
- **7400**: Hurry up and head inside Heavens Tower. Semih Lafihna is a busy lady, and notaru someone you wantaru to keep waiting.
- **7401**: As head of the Sibyl Guards, Semih Lafihna almostaru always carries out her investigations by herself.
- **7402**: Itaru is most unusual for her to issue a mission such as this. Itaru kind of makes you wonder whataru is going on...? But there I go saying too much again.
- **7409**: Woo-hoo... Guess who this mission is from!
- **7410**: Why, it's from the woman who has run the ladies-in-waiting with an iron fistaru for the last few decades, the oldest of the old guard, yes, it's the Star Sibyl's head lady-in-waiting, none other than Zubaba herself!
- **7411**: Anyway, she's waiting for you up in Heavens Tower's Vestal Vestibule. This is one old lady you don'taru want to keep waiting!
- **7412**: I don'taru think old Zubaba has ventured out from Heavens Tower for years now.
- **7413**: In fact, it may even be decades since she lastaru stepped out of there. Then again, Heavens Tower would never be the same withoutaru her, so I guess she feels she can'taru leave.
- **7418**: Hmm... This has to be a mistake. But I've checked itaru several times...
- **7419**: Itaru appears to be $6 addressed to you. A letter with the star emblem on itaru, signifying it's of the utmost importance, has been sentaru to you!
- **7420**: The mostaru revered person in all Windurst--if this isn'taru a mistake, thataru is--has summoned you!
- **7421**: Letters with the star emblem on them like this one are the most importantaru papers issued by Heavens Tower. Usually they are only sentaru to elite people such as the ministers of the five ministries.
- **7422**: Itaru is extremely rare for a star emblem letter to be issued to a lowly adventurer such as you... Hey, don'taru tell me you're an undercover agent checking up on us or something!?
- **7428**: Itaru's a pity I cannotaru welcome you back under better circumstances. If you haven'taru heard, Windurst is now officially in a state of emergency.
- **7429**: Emergency orders have been given to all guards and adventarurers most loyal to Windurst, and the issuance of missions has been stopped pending further instructions from Heavens Tower.
- **7434**: This is an urgentaru mission from Heavens Tower!
- **7435**: Your destination is the cursed Northlands...the ruins of Fei'Yin, northeastaru of the Beaucedine Glacier.
- **7436**: There aren'taru that many adventurers who could survive a journey like this.
- **7437**: I'm just relieved an adventarurer as strong as yourself has volunteered to make [himself/herself] available for this mission.
- **7438**: It seems you need to collectaru a seal from within Heavens Tower before you go, so you had better go do thataru now.
- **7439**: I pray you have a safe journey!
- **7440**: Your mission's destaruination is the cursed Northlands...the ruins of Fei'Yin, northeastaru of the Beaucedine Glacier.
- **7441**: If you don'taru have the necessary seal yetaru, then you should pick it up from within Heavens Tower before you departaru.
- **7446**: I have a bad feeling about this, butaru another $3 is addressed to you.
- **7447**: Maybe you are destined to carry out great deeds like the hero Karaha-Baruha, who saved Windurst twenty years ago.
- **7448**: Anyway, you had better proceed on into Heavens Tower. I assume the Star Sibyl is awaiting you.
- **7449**: The Star Sibyl is waitaruing for you in Heavens Tower. You'd better hurry and go inside.
- **7450**: Go on to do great deeds, my friend. Just like the hero Karaha-Baruha did twenty years ago.
- **8718**: The Minister of the Orastery, Ajido-Marujido, has issued a mission specifically for you.
- **8719**: I don'taru really like to say it, but... From where I stand, it looks as if he is in some sort of conflictaru with Heavens Tower.
- **8720**: You've acceptarued the mission and have to carry it out, but please be careful notaru step on anyone's toesy-wosies.
- **8721**: Minister Ajido-Marujido awaitarus you in the Orastery.
- **8722**: It's notaru my place to interfere, but... Please be careful notaru step on anyone's toesy-wosies.
- **8729**: Positively shocking. Did you hear aboutaru Minister Ajido-Marujido?
- **8730**: How many years has it been since someone was incarceratarued in the Dark Dungeon?
- **8731**: Apparentaruly, an adventurer was with Minister Ajido-Marujido when he was caughtaru.
- **8732**: Should that adventurer be sharing the blame, I wonder?
- **8733**: Anyway, leaving that talk aside, you have been summoned by the Star Sibyl.
- **8734**: Please proceed into Heavens Tower.
- **8735**: There is a summons for you from the Star Sibyl. Please proceed directaruly into Heavens Tower.
- **8736**: Will the adventurer who was with Minister Ajido-Marujido share his punishmentaru, I wonder?
- **8742**: I've been hearing rumors from Miss Kupipi. Sounds like you've been through a tough time.
- **8743**: Luckily, this nextaru mission from the Optistery is a little easier. They wantaru you to help with tidying up the book vault, so it should be a walk in the park for you.
- **8744**: But to ask a rank seven adventurer to help them... It may be thataru there's more to this mission than meets the eye.
- **8745**: The Optistery has issued a mission for a book vault tidy-up. You've acceptarued missions from the Optistery before, haven'taru you?
- **8746**: They seem to have been impressed with you. It's very rare for the Optistery to ask for an adventurer by name.
- **8753**: Are you acquaintarued with Minister Rukususu of the Rhinostery? The nextaru mission is from her ministry.
- **8754**: All it says here is that the Rhinostery is looking for your help. Please ask Leepe-Hoppe on the second floor of the Rhinostery for the details of the mission.
- **8755**: They seem to be in a quite a fluster-wuster, so please hurry on over to the Rhinostery.
- **8756**: The Rhinostery is a research facility where they study all living things. They have a greataru number of researchers scattered all over Vana'diel carrying on various investigations.
- **8757**: It's a difficult field, but as Yoran-Oran always says, "There's nothing-ethy like the feeling of solving-ethy the world's little mysteries."
- **8764**: Wowy-wow, you've reached rank eightaru already? Congratulations on your promotion.
- **8765**: Your nextaru mission has been issued by the Aurastery. Please ask the teachers at the School of Magic for the details.
- **8766**: This is a mission from the Aurastery, which basically means a mission from the School of Magic. Please talk to the teachers in the staff room.
- **8767**: Principal Koru-Moru resides in Windurst Walls, but... There probably wouldn't be much pointaru in asking him about the mission.
- **8774**: Firstaru, I must get you to promise something. You can't say anything aboutaru this mission to anyone.
- **8775**: This is a mission from Minister Apururu of the Manustery, but it hasn't been submitted to the Sibyl Guards for approval.
- **8776**: It's not very likely that the Sibyl Guards would allow this mission to be issued... After a lengthy discussion-wussion amongst the gatehouse guards, we decided to keep it quiet from them for the sake of Minister Apururu.
- **8777**: Please make your way to the Manustery. Minister Apururu is waiting for you.
- **8778**: This is a mission from Minister Apururu of the Manustery. Please take care not to blabby-wab to anyone about it.
- **8779**: Please hurry to the Manustery and keep a look out for any Sibyl Guards sniffing around.
- **9000**: ...... I can't really go into too much detail about this mission right in frontaru of Heavens Tower...
- **9001**: Minister Apururu wants you to hurry over to the Manustery.
- **9002**: It seems that Minister Ajido-Marujido may be on the verge of waking up from his coma...
- **9003**: That mightaru just be hopeful speculation on my part, but Miss Apururu has been seen hurry-scurrying back and forth between Windurst Woods and Windurst Walls.
- **9004**: This is a mission from Minister Apururu of the Manustery. Please keep the details tip-top secret.
- **9005**: Sibyl Guard Semih Lafihna has returned to Heavens Tower, but hopefully she won'taru be visiting the Dark Dungeon any time soon.
- **9026**: <Player>, you have orders to reportaru to Heavens Tower. Those pesky Yagudo are causing trouble again.
- **9027**: There has been a proposal addressed to the Star Sibyl for a revision-wision of the peace treaty between the Yagudo and Windurst.
- **9028**: Each proposal the Yagudo send is more demanding than the lastaru. It's like they're deliberataruly picking a fight with us.
- **9029**: ...With all this going on, how can we say that Windurst is really in a state of peace...? Um, please forget I said that. I was justaru thinking out loud...
- **9030**: A proposal has been sentaru to Heavens Tower for a revision of the peace treaty between the Yagudo and Windurst.
- **9031**: I justaru can't understand why the Yagudo are being so agressive-wessive. Is this their way of pulling a fastaru one on us?
- **9039**: I mightaru be a guard for Windurst Walls, but no one loves the entire city of Windurst more than me.
- **9040**: And that is why you have my most sincerest-werest gratitude. I can barely put into words how much I appreciataru what you have done.
- **9041**: I still remember hiding with my mother in Heavens Tower when the war was raging all aboutaru Windurst. I will never forgetaru the scene that met my eyes when I looked back from this spot.
- **9042**: Your adventures may take you to distantaru lands, but please don't forget the gentle breeze, clear blue skies, and beautiful vistas of Windurst.

## Events

### Event 65535

#### Metadata

| Field        | Value   |
|--------------|---------|
| Entrypoint   | 0x0000  |
| Data Size    | 1 bytes |
| Instructions | 1       |

```
      00 01 02 03 04 05 06 07  08 09 0A 0B 0C 0D 0E 0F
      -- -- -- -- -- -- -- --  -- -- -- -- -- -- -- --
0000: 00                                                .               
```

#### Opcodes

```
  0: 0x0000 [0x00] END_REQSTACK()
```

### Event 65535.1

#### Metadata

| Field        | Value    |
|--------------|----------|
| Entrypoint   | 0x0001   |
| Data Size    | 16 bytes |
| Instructions | 2        |

```
      00 01 02 03 04 05 06 07  08 09 0A 0B 0C 0D 0E 0F
      -- -- -- -- -- -- -- --  -- -- -- -- -- -- -- --
0000:    66 00 80 F8 FF FF 7F  F8 FF FF 7F 74 6C 6B 30   f..........tlk0
0010: 00                                                .               
```

#### Opcodes

```
  0: 0x0001 [0x66] LOAD_EXT_SCHEDULER_MAIN: Load scheduler "tlk0" with entities [EventEntity, EventEntity], work=40*
  1: 0x0010 [0x00] END_REQSTACK()
```

### Event 65535.2

#### Metadata

| Field        | Value    |
|--------------|----------|
| Entrypoint   | 0x0011   |
| Data Size    | 22 bytes |
| Instructions | 4        |

```
      00 01 02 03 04 05 06 07  08 09 0A 0B 0C 0D 0E 0F
      -- -- -- -- -- -- -- --  -- -- -- -- -- -- -- --
0010:    53 F8 FF FF 7F F8 FF  FF 7F 74 6C 6B 30 5E 69   S........tlk0^i
0020: 64 6C 30 1C 01 80 00                              dl0....         
```

#### Opcodes

```
  0: 0x0011 [0x53] WAIT_SCHEDULER_TASK: Wait for scheduler "tlk0" with entities [EventEntity, EventEntity]
  1: 0x001E [0x5E] EventEntity goes idle (kills current action) (animation: "idl0")
  2: 0x0023 [0x1C] WAIT(30* ticks)
  3: 0x0026 [0x00] END_REQSTACK()
```

### Event 65535.3

#### Metadata

| Field        | Value    |
|--------------|----------|
| Entrypoint   | 0x0027   |
| Data Size    | 16 bytes |
| Instructions | 2        |

```
      00 01 02 03 04 05 06 07  08 09 0A 0B 0C 0D 0E 0F
      -- -- -- -- -- -- -- --  -- -- -- -- -- -- -- --
0020:                      66  00 80 F8 FF FF 7F F8 FF         f........
0030: FF 7F 74 68 6B 31 00                              ..thk1.         
```

#### Opcodes

```
  0: 0x0027 [0x66] LOAD_EXT_SCHEDULER_MAIN: Load scheduler "thk1" with entities [EventEntity, EventEntity], work=40*
  1: 0x0036 [0x00] END_REQSTACK()
```

### Event 65535.4

#### Metadata

| Field        | Value    |
|--------------|----------|
| Entrypoint   | 0x0037   |
| Data Size    | 14 bytes |
| Instructions | 2        |

```
      00 01 02 03 04 05 06 07  08 09 0A 0B 0C 0D 0E 0F
      -- -- -- -- -- -- -- --  -- -- -- -- -- -- -- --
0030:                      53  F8 FF FF 7F F8 FF FF 7F         S........
0040: 74 68 6B 31 00                                    thk1.           
```

#### Opcodes

```
  0: 0x0037 [0x53] WAIT_SCHEDULER_TASK: Wait for scheduler "thk1" with entities [EventEntity, EventEntity]
  1: 0x0044 [0x00] END_REQSTACK()
```

### Event 65535.5

#### Metadata

| Field        | Value    |
|--------------|----------|
| Entrypoint   | 0x0045   |
| Data Size    | 16 bytes |
| Instructions | 2        |

```
      00 01 02 03 04 05 06 07  08 09 0A 0B 0C 0D 0E 0F
      -- -- -- -- -- -- -- --  -- -- -- -- -- -- -- --
0040:                66 00 80  F8 FF FF 7F F8 FF FF 7F       f..........
0050: 74 68 6B 32 00                                    thk2.           
```

#### Opcodes

```
  0: 0x0045 [0x66] LOAD_EXT_SCHEDULER_MAIN: Load scheduler "thk2" with entities [EventEntity, EventEntity], work=40*
  1: 0x0054 [0x00] END_REQSTACK()
```

### Event 65535.6

#### Metadata

| Field        | Value    |
|--------------|----------|
| Entrypoint   | 0x0055   |
| Data Size    | 14 bytes |
| Instructions | 2        |

```
      00 01 02 03 04 05 06 07  08 09 0A 0B 0C 0D 0E 0F
      -- -- -- -- -- -- -- --  -- -- -- -- -- -- -- --
0050:                53 F8 FF  FF 7F F8 FF FF 7F 74 68       S........th
0060: 6B 32 00                                          k2.             
```

#### Opcodes

```
  0: 0x0055 [0x53] WAIT_SCHEDULER_TASK: Wait for scheduler "thk2" with entities [EventEntity, EventEntity]
  1: 0x0062 [0x00] END_REQSTACK()
```

### Event 65535.7

#### Metadata

| Field        | Value    |
|--------------|----------|
| Entrypoint   | 0x0063   |
| Data Size    | 16 bytes |
| Instructions | 2        |

```
      00 01 02 03 04 05 06 07  08 09 0A 0B 0C 0D 0E 0F
      -- -- -- -- -- -- -- --  -- -- -- -- -- -- -- --
0060:          66 00 80 F8 FF  FF 7F F8 FF FF 7F 64 69     f..........di
0070: 73 30 00                                          s0.             
```

#### Opcodes

```
  0: 0x0063 [0x66] LOAD_EXT_SCHEDULER_MAIN: Load scheduler "dis0" with entities [EventEntity, EventEntity], work=40*
  1: 0x0072 [0x00] END_REQSTACK()
```

### Event 65535.8

#### Metadata

| Field        | Value    |
|--------------|----------|
| Entrypoint   | 0x0073   |
| Data Size    | 14 bytes |
| Instructions | 2        |

```
      00 01 02 03 04 05 06 07  08 09 0A 0B 0C 0D 0E 0F
      -- -- -- -- -- -- -- --  -- -- -- -- -- -- -- --
0070:          53 F8 FF FF 7F  F8 FF FF 7F 64 69 73 30     S........dis0
0080: 00                                                .               
```

#### Opcodes

```
  0: 0x0073 [0x53] WAIT_SCHEDULER_TASK: Wait for scheduler "dis0" with entities [EventEntity, EventEntity]
  1: 0x0080 [0x00] END_REQSTACK()
```

### Event 65535.9

#### Metadata

| Field        | Value    |
|--------------|----------|
| Entrypoint   | 0x0081   |
| Data Size    | 16 bytes |
| Instructions | 2        |

```
      00 01 02 03 04 05 06 07  08 09 0A 0B 0C 0D 0E 0F
      -- -- -- -- -- -- -- --  -- -- -- -- -- -- -- --
0080:    66 00 80 F8 FF FF 7F  F8 FF FF 7F 70 6F 69 30   f..........poi0
0090: 00                                                .               
```

#### Opcodes

```
  0: 0x0081 [0x66] LOAD_EXT_SCHEDULER_MAIN: Load scheduler "poi0" with entities [EventEntity, EventEntity], work=40*
  1: 0x0090 [0x00] END_REQSTACK()
```

### Event 65535.10

#### Metadata

| Field        | Value    |
|--------------|----------|
| Entrypoint   | 0x0091   |
| Data Size    | 14 bytes |
| Instructions | 2        |

```
      00 01 02 03 04 05 06 07  08 09 0A 0B 0C 0D 0E 0F
      -- -- -- -- -- -- -- --  -- -- -- -- -- -- -- --
0090:    53 F8 FF FF 7F F8 FF  FF 7F 70 6F 69 30 00      S........poi0. 
```

#### Opcodes

```
  0: 0x0091 [0x53] WAIT_SCHEDULER_TASK: Wait for scheduler "poi0" with entities [EventEntity, EventEntity]
  1: 0x009E [0x00] END_REQSTACK()
```

### Event 65535.11

#### Metadata

| Field        | Value    |
|--------------|----------|
| Entrypoint   | 0x009F   |
| Data Size    | 16 bytes |
| Instructions | 2        |

```
      00 01 02 03 04 05 06 07  08 09 0A 0B 0C 0D 0E 0F
      -- -- -- -- -- -- -- --  -- -- -- -- -- -- -- --
0090:                                               66                 f
00A0: 00 80 F8 FF FF 7F F8 FF  FF 7F 77 61 76 30 00     ..........wav0. 
```

#### Opcodes

```
  0: 0x009F [0x66] LOAD_EXT_SCHEDULER_MAIN: Load scheduler "wav0" with entities [EventEntity, EventEntity], work=40*
  1: 0x00AE [0x00] END_REQSTACK()
```

### Event 65535.12

#### Metadata

| Field        | Value    |
|--------------|----------|
| Entrypoint   | 0x00AF   |
| Data Size    | 14 bytes |
| Instructions | 2        |

```
      00 01 02 03 04 05 06 07  08 09 0A 0B 0C 0D 0E 0F
      -- -- -- -- -- -- -- --  -- -- -- -- -- -- -- --
00A0:                                               53                 S
00B0: F8 FF FF 7F F8 FF FF 7F  77 61 76 30 00           ........wav0.   
```

#### Opcodes

```
  0: 0x00AF [0x53] WAIT_SCHEDULER_TASK: Wait for scheduler "wav0" with entities [EventEntity, EventEntity]
  1: 0x00BC [0x00] END_REQSTACK()
```

### Event 65535.13

#### Metadata

| Field        | Value    |
|--------------|----------|
| Entrypoint   | 0x00BD   |
| Data Size    | 16 bytes |
| Instructions | 2        |

```
      00 01 02 03 04 05 06 07  08 09 0A 0B 0C 0D 0E 0F
      -- -- -- -- -- -- -- --  -- -- -- -- -- -- -- --
00B0:                                         66 00 80               f..
00C0: F8 FF FF 7F F8 FF FF 7F  69 72 6F 30 00           ........iro0.   
```

#### Opcodes

```
  0: 0x00BD [0x66] LOAD_EXT_SCHEDULER_MAIN: Load scheduler "iro0" with entities [EventEntity, EventEntity], work=40*
  1: 0x00CC [0x00] END_REQSTACK()
```

### Event 65535.14

#### Metadata

| Field        | Value    |
|--------------|----------|
| Entrypoint   | 0x00CD   |
| Data Size    | 14 bytes |
| Instructions | 2        |

```
      00 01 02 03 04 05 06 07  08 09 0A 0B 0C 0D 0E 0F
      -- -- -- -- -- -- -- --  -- -- -- -- -- -- -- --
00C0:                                         53 F8 FF               S..
00D0: FF 7F F8 FF FF 7F 69 72  6F 30 00                 ......iro0.     
```

#### Opcodes

```
  0: 0x00CD [0x53] WAIT_SCHEDULER_TASK: Wait for scheduler "iro0" with entities [EventEntity, EventEntity]
  1: 0x00DA [0x00] END_REQSTACK()
```

### Event 65535.15

#### Metadata

| Field        | Value    |
|--------------|----------|
| Entrypoint   | 0x00DB   |
| Data Size    | 16 bytes |
| Instructions | 2        |

```
      00 01 02 03 04 05 06 07  08 09 0A 0B 0C 0D 0E 0F
      -- -- -- -- -- -- -- --  -- -- -- -- -- -- -- --
00D0:                                   66 02 80 F8 FF             f....
00E0: FF 7F F8 FF FF 7F 73 6C  33 30 00                 ......sl30.     
```

#### Opcodes

```
  0: 0x00DB [0x66] LOAD_EXT_SCHEDULER_MAIN: Load scheduler "sl30" with entities [EventEntity, EventEntity], work=45*
  1: 0x00EA [0x00] END_REQSTACK()
```

### Event 65535.16

#### Metadata

| Field        | Value    |
|--------------|----------|
| Entrypoint   | 0x00EB   |
| Data Size    | 14 bytes |
| Instructions | 2        |

```
      00 01 02 03 04 05 06 07  08 09 0A 0B 0C 0D 0E 0F
      -- -- -- -- -- -- -- --  -- -- -- -- -- -- -- --
00E0:                                   53 F8 FF FF 7F             S....
00F0: F8 FF FF 7F 73 6C 33 30  00                       ....sl30.       
```

#### Opcodes

```
  0: 0x00EB [0x53] WAIT_SCHEDULER_TASK: Wait for scheduler "sl30" with entities [EventEntity, EventEntity]
  1: 0x00F8 [0x00] END_REQSTACK()
```

### Event 65535.17

#### Metadata

| Field        | Value   |
|--------------|---------|
| Entrypoint   | 0x00F9  |
| Data Size    | 9 bytes |
| Instructions | 3       |

```
      00 01 02 03 04 05 06 07  08 09 0A 0B 0C 0D 0E 0F
      -- -- -- -- -- -- -- --  -- -- -- -- -- -- -- --
00F0:                             5E 69 64 6C 30 1C 01           ^idl0..
0100: 80 00                                             ..              
```

#### Opcodes

```
  0: 0x00F9 [0x5E] EventEntity goes idle (kills current action) (animation: "idl0")
  1: 0x00FE [0x1C] WAIT(30* ticks)
  2: 0x0101 [0x00] END_REQSTACK()
```

### Event 443

#### Metadata

| Field        | Value   |
|--------------|---------|
| Entrypoint   | 0x0102  |
| Data Size    | 7 bytes |
| Instructions | 2       |

```
      00 01 02 03 04 05 06 07  08 09 0A 0B 0C 0D 0E 0F
      -- -- -- -- -- -- -- --  -- -- -- -- -- -- -- --
0100:       92 01 F8 FF FF 7F  00                         .......       
```

#### Opcodes

```
  0: 0x0102 [0x92] EventEntity->Render.Flags3 ^= 0x01
  1: 0x0108 [0x00] END_REQSTACK()
```

### Event 65535.18

#### Metadata

| Field        | Value    |
|--------------|----------|
| Entrypoint   | 0x0109   |
| Data Size    | 28 bytes |
| Instructions | 8        |

```
      00 01 02 03 04 05 06 07  08 09 0A 0B 0C 0D 0E 0F
      -- -- -- -- -- -- -- --  -- -- -- -- -- -- -- --
0100:                             32 03 80 1F 00 04 80           2......
0110: 05 80 06 80 1F 01 6F 4B  F8 FF FF 7F 07 80 6F 76  ......oK......ov
0120: F8 FF FF 7F 00                                    .....           
```

#### Opcodes

```
  0: 0x0109 [0x32] ExtData[1]->MainSpeed = 13* * 0.1
  1: 0x010C [0x1F] MOVE_ENTITY: EventEntity moves to X=1.200*, Z=127.000*, Y=-16.749*
  2: 0x0114 [0x1F] MOVE_ENTITY: Update entity position (mode=1)
  3: 0x0116 [0x6F] WAIT_FRAME_DELAY: Yield until WaitTime reaches zero
  4: 0x0117 [0x4B] UPDATE_ENTITY_YAW(entity=EventEntity, yaw=11.2°*)
  5: 0x011E [0x6F] WAIT_FRAME_DELAY: Yield until WaitTime reaches zero
  6: 0x011F [0x76] CHECK_ENTITY_RENDER_FLAGS: Wait until EventEntity Render.Flags0 and Render.Flags3 conditions are met
  7: 0x0124 [0x00] END_REQSTACK()
```

### Event 65535.19

#### Metadata

| Field        | Value    |
|--------------|----------|
| Entrypoint   | 0x0125   |
| Data Size    | 10 bytes |
| Instructions | 2        |

```
      00 01 02 03 04 05 06 07  08 09 0A 0B 0C 0D 0E 0F
      -- -- -- -- -- -- -- --  -- -- -- -- -- -- -- --
0120:                37 08 80  09 80 0A 80 0B 80 00          7......... 
```

#### Opcodes

```
  0: 0x0125 [0x37] UPDATE_EVENT_POSITION_AND_DIR: x=-43.549*, z=130.278*, y=-14.586*, direction=150.1°*
  1: 0x012E [0x00] END_REQSTACK()
```

### Event 65535.20

#### Metadata

| Field        | Value    |
|--------------|----------|
| Entrypoint   | 0x012F   |
| Data Size    | 14 bytes |
| Instructions | 4        |

```
      00 01 02 03 04 05 06 07  08 09 0A 0B 0C 0D 0E 0F
      -- -- -- -- -- -- -- --  -- -- -- -- -- -- -- --
0120:                                               32                 2
0130: 03 80 5A 00 0C 80 0D 80  0E 80 5A 01 00           ..Z.......Z..   
```

#### Opcodes

```
  0: 0x012F [0x32] ExtData[1]->MainSpeed = 13* * 0.1
  1: 0x0132 [0x5A] UPDATE_EVENT_POSITION: Set EventEntity MovePosition to X=-57.457*, Z=121.792*, Y=-12.563*
  2: 0x013A [0x5A] UPDATE_EVENT_POSITION: Move EventEntity incrementally towards MovePosition
  3: 0x013C [0x00] END_REQSTACK()
```

### Event 87

#### Metadata

| Field        | Value    |
|--------------|----------|
| Entrypoint   | 0x013D   |
| Data Size    | 33 bytes |
| Instructions | 12       |

```
      00 01 02 03 04 05 06 07  08 09 0A 0B 0C 0D 0E 0F
      -- -- -- -- -- -- -- --  -- -- -- -- -- -- -- --
0130:                                         1E F0 FF               ...
0140: FF 7F 6F 70 29 08 0B F0  0E 01 01 1D 0F 80 23 1D  ..op).........#.
0150: 10 80 23 29 08 0B F0 0E  01 02 20 00 21 00        ..#)...... .!.  
```

#### Opcodes

```
  0: 0x013D [0x1E] EventEntity looks at LocalPlayer and starts talking
  1: 0x0142 [0x6F] WAIT_FRAME_DELAY: Yield until WaitTime reaches zero
  2: 0x0143 [0x70] WAIT_ENTITY_RENDER_FLAG: Wait while EventEntity->Render.Flags3 bit 2 is set (cancel turn if not)
  3: 0x0144 [0x29] REQ_SET_WAIT(priority=0x08, entity_id=Zokima-Rokima (ID: 17756171/0x010EF00B), tag_num=0x01)
  4: 0x014B [0x1D] PRINT_EVENT_MESSAGE(message_id=7282*)
    → "This is Windurst Walls, the centermost of the four districts that make up the Federation of Windurst. It is also the political centaru of Windurst."
  5: 0x014E [0x23] WAIT_FOR_DIALOG_INTERACTION
  6: 0x014F [0x1D] PRINT_EVENT_MESSAGE(message_id=7283*)
    → "If you need directions to make your way around Windurst Walls, go ask Jack of Diamonds in the open area down thattaru way."
  7: 0x0152 [0x23] WAIT_FOR_DIALOG_INTERACTION
  8: 0x0153 [0x29] REQ_SET_WAIT(priority=0x08, entity_id=Zokima-Rokima (ID: 17756171/0x010EF00B), tag_num=0x02)
  9: 0x015A [0x20] SET_CLI_EVENT_UC_FLAG: Unlock player control
 10: 0x015C [0x21] END_EVENT
 11: 0x015D [0x00] END_REQSTACK()
```

### Event 93

#### Metadata

| Field        | Value     |
|--------------|-----------|
| Entrypoint   | 0x015E    |
| Data Size    | 514 bytes |
| Instructions | 91        |

```
      00 01 02 03 04 05 06 07  08 09 0A 0B 0C 0D 0E 0F
      -- -- -- -- -- -- -- --  -- -- -- -- -- -- -- --
0150:                                            1E F0                ..
0160: FF FF 7F 6F 70 1D 11 80  23 24 12 80 13 80 02 10  ...op...#$......
0170: 25 02 00 10 14 80 00 8A  01 29 0E 0B F0 0E 01 18  %........)......
0180: 29 0E 0B F0 0E 01 28 01  33 03 02 00 10 15 80 00  ).....(.3.......
0190: A3 01 29 0E 0B F0 0E 01  18 29 0E 0B F0 0E 01 2C  ..)......).....,
01A0: 01 33 03 02 00 10 16 80  00 BC 01 29 0E 0B F0 0E  .3.........)....
01B0: 01 18 29 0E 0B F0 0E 01  36 01 33 03 02 00 10 17  ..).....6.3.....
01C0: 80 00 D5 01 29 0E 0B F0  0E 01 18 29 0E 0B F0 0E  ....)......)....
01D0: 01 3A 01 33 03 02 00 10  18 80 00 EE 01 29 0E 0B  .:.3.........)..
01E0: F0 0E 01 18 29 0E 0B F0  0E 01 3E 01 33 03 02 00  ....).....>.3...
01F0: 10 19 80 00 07 02 29 0E  0B F0 0E 01 18 29 0E 0B  ......)......)..
0200: F0 0E 01 42 01 33 03 02  00 10 1A 80 00 20 02 29  ...B.3....... .)
0210: 0E 0B F0 0E 01 18 29 0E  0B F0 0E 01 44 01 33 03  ......).....D.3.
0220: 02 00 10 1B 80 00 39 02  29 0E 0B F0 0E 01 18 29  ......9.)......)
0230: 0E 0B F0 0E 01 46 01 33  03 02 00 10 1C 80 00 52  .....F.3.......R
0240: 02 29 0E 0B F0 0E 01 18  29 0E 0B F0 0E 01 4B 01  .)......).....K.
0250: 33 03 02 00 10 1D 80 00  6B 02 29 0E 0B F0 0E 01  3.......k.).....
0260: 18 29 0E 0B F0 0E 01 50  01 33 03 02 00 10 1E 80  .).....P.3......
0270: 00 84 02 29 0E 0B F0 0E  01 18 29 0E 0B F0 0E 01  ...)......).....
0280: 54 01 33 03 02 00 10 1F  80 00 9D 02 29 0E 0B F0  T.3.........)...
0290: 0E 01 18 29 0E 0B F0 0E  01 56 01 33 03 02 00 10  ...).....V.3....
02A0: 20 80 00 B6 02 29 0E 0B  F0 0E 01 18 29 0E 0B F0   ....)......)...
02B0: 0E 01 58 01 33 03 02 00  10 21 80 00 CF 02 29 0E  ..X.3....!....).
02C0: 0B F0 0E 01 18 29 0E 0B  F0 0E 01 5A 01 33 03 02  .....).....Z.3..
02D0: 00 10 22 80 00 E8 02 29  0E 0B F0 0E 01 18 29 0E  .."....)......).
02E0: 0B F0 0E 01 5C 01 33 03  02 00 10 23 80 00 01 03  ....\.3....#....
02F0: 29 0E 0B F0 0E 01 18 29  0E 0B F0 0E 01 5E 01 33  )......).....^.3
0300: 03 02 00 10 24 80 00 1A  03 29 0E 0B F0 0E 01 18  ....$....)......
0310: 29 0E 0B F0 0E 01 60 01  33 03 02 00 10 25 80 00  ).....`.3....%..
0320: 33 03 29 0E 0B F0 0E 01  18 29 0E 0B F0 0E 01 62  3.)......).....b
0330: 01 33 03 03 01 10 00 10  02 01 10 13 80 01 5C 03  .3............\.
0340: 24 26 80 27 80 27 80 25  02 00 10 14 80 00 5C 03  $&.'.'.%......\.
0350: 03 01 10 13 80 20 00 21  00 01 5C 03 20 00 21 00  ..... .!..\. .!.
```

#### Opcodes

```
  0: 0x015E [0x1E] EventEntity looks at LocalPlayer and starts talking
  1: 0x0163 [0x6F] WAIT_FRAME_DELAY: Yield until WaitTime reaches zero
  2: 0x0164 [0x70] WAIT_ENTITY_RENDER_FLAG: Wait while EventEntity->Render.Flags3 bit 2 is set (cancel turn if not)
  3: 0x0165 [0x1D] PRINT_EVENT_MESSAGE(message_id=7290*)
    → "Letaru me see... The missions you are able to receive..."
  4: 0x0168 [0x23] WAIT_FOR_DIALOG_INTERACTION
  5: 0x0169 [0x24] CREATE_DIALOG(message_id=7291*, default_option=31*, option_flags=Work_Zone[2])
    → "Which mission will you accept? [The Horutoto Ruins Experiment./The Heart of the Matter./The Price of Peace./Lost for Words./A Testing Time./The Three Kingdoms./Mission 2-3-1A./Mission 2-3-1B./Mission 2-3-2A./Mission 2-3-2B./To Each His Own Right./Written in the Stars./A New Journey./Magicite./The Final Seal./The Shadow Awaits./Full Moon Fountain./Saintly Invitation./The Sixth Ministry./Awakening of the Gods./Vain./The Jester Who'd Be King./Doll of the Dead./Moon Reading./Dummy11./Dummy12./Dummy13./Dummy14./Dummy15./Dummy16./Dummy17./Decline mission.]"
  6: 0x0170 [0x25] WAIT_DIALOG_SELECT()
  7: 0x0171 [0x02] IF !(Work_Zone[0] == 1*) GOTO 0x018A
  8: 0x0179 [0x29] REQ_SET_WAIT(priority=0x0E, entity_id=Zokima-Rokima (ID: 17756171/0x010EF00B), tag_num=0x18)
  9: 0x0180 [0x29] REQ_SET_WAIT(priority=0x0E, entity_id=Zokima-Rokima (ID: 17756171/0x010EF00B), tag_num=0x28)
 10: 0x0187 [0x01] GOTO 0x0333
 11: 0x018A [0x02] IF !(Work_Zone[0] == 2*) GOTO 0x01A3
 12: 0x0192 [0x29] REQ_SET_WAIT(priority=0x0E, entity_id=Zokima-Rokima (ID: 17756171/0x010EF00B), tag_num=0x18)
 13: 0x0199 [0x29] REQ_SET_WAIT(priority=0x0E, entity_id=Zokima-Rokima (ID: 17756171/0x010EF00B), tag_num=0x2C)
 14: 0x01A0 [0x01] GOTO 0x0333
 15: 0x01A3 [0x02] IF !(Work_Zone[0] == 3*) GOTO 0x01BC
 16: 0x01AB [0x29] REQ_SET_WAIT(priority=0x0E, entity_id=Zokima-Rokima (ID: 17756171/0x010EF00B), tag_num=0x18)
 17: 0x01B2 [0x29] REQ_SET_WAIT(priority=0x0E, entity_id=Zokima-Rokima (ID: 17756171/0x010EF00B), tag_num=0x36)
 18: 0x01B9 [0x01] GOTO 0x0333
 19: 0x01BC [0x02] IF !(Work_Zone[0] == 4*) GOTO 0x01D5
 20: 0x01C4 [0x29] REQ_SET_WAIT(priority=0x0E, entity_id=Zokima-Rokima (ID: 17756171/0x010EF00B), tag_num=0x18)
 21: 0x01CB [0x29] REQ_SET_WAIT(priority=0x0E, entity_id=Zokima-Rokima (ID: 17756171/0x010EF00B), tag_num=0x3A)
 22: 0x01D2 [0x01] GOTO 0x0333
 23: 0x01D5 [0x02] IF !(Work_Zone[0] == 5*) GOTO 0x01EE
 24: 0x01DD [0x29] REQ_SET_WAIT(priority=0x0E, entity_id=Zokima-Rokima (ID: 17756171/0x010EF00B), tag_num=0x18)
 25: 0x01E4 [0x29] REQ_SET_WAIT(priority=0x0E, entity_id=Zokima-Rokima (ID: 17756171/0x010EF00B), tag_num=0x3E)
 26: 0x01EB [0x01] GOTO 0x0333
 27: 0x01EE [0x02] IF !(Work_Zone[0] == 10*) GOTO 0x0207
 28: 0x01F6 [0x29] REQ_SET_WAIT(priority=0x0E, entity_id=Zokima-Rokima (ID: 17756171/0x010EF00B), tag_num=0x18)
 29: 0x01FD [0x29] REQ_SET_WAIT(priority=0x0E, entity_id=Zokima-Rokima (ID: 17756171/0x010EF00B), tag_num=0x42)
 30: 0x0204 [0x01] GOTO 0x0333
 31: 0x0207 [0x02] IF !(Work_Zone[0] == 11*) GOTO 0x0220
 32: 0x020F [0x29] REQ_SET_WAIT(priority=0x0E, entity_id=Zokima-Rokima (ID: 17756171/0x010EF00B), tag_num=0x18)
 33: 0x0216 [0x29] REQ_SET_WAIT(priority=0x0E, entity_id=Zokima-Rokima (ID: 17756171/0x010EF00B), tag_num=0x44)
 34: 0x021D [0x01] GOTO 0x0333
 35: 0x0220 [0x02] IF !(Work_Zone[0] == 12*) GOTO 0x0239
 36: 0x0228 [0x29] REQ_SET_WAIT(priority=0x0E, entity_id=Zokima-Rokima (ID: 17756171/0x010EF00B), tag_num=0x18)
 37: 0x022F [0x29] REQ_SET_WAIT(priority=0x0E, entity_id=Zokima-Rokima (ID: 17756171/0x010EF00B), tag_num=0x46)
 38: 0x0236 [0x01] GOTO 0x0333
 39: 0x0239 [0x02] IF !(Work_Zone[0] == 14*) GOTO 0x0252
 40: 0x0241 [0x29] REQ_SET_WAIT(priority=0x0E, entity_id=Zokima-Rokima (ID: 17756171/0x010EF00B), tag_num=0x18)
 41: 0x0248 [0x29] REQ_SET_WAIT(priority=0x0E, entity_id=Zokima-Rokima (ID: 17756171/0x010EF00B), tag_num=0x4B)
 42: 0x024F [0x01] GOTO 0x0333
 43: 0x0252 [0x02] IF !(Work_Zone[0] == 15*) GOTO 0x026B
 44: 0x025A [0x29] REQ_SET_WAIT(priority=0x0E, entity_id=Zokima-Rokima (ID: 17756171/0x010EF00B), tag_num=0x18)
 45: 0x0261 [0x29] REQ_SET_WAIT(priority=0x0E, entity_id=Zokima-Rokima (ID: 17756171/0x010EF00B), tag_num=0x50)
 46: 0x0268 [0x01] GOTO 0x0333
 47: 0x026B [0x02] IF !(Work_Zone[0] == 16*) GOTO 0x0284
 48: 0x0273 [0x29] REQ_SET_WAIT(priority=0x0E, entity_id=Zokima-Rokima (ID: 17756171/0x010EF00B), tag_num=0x18)
 49: 0x027A [0x29] REQ_SET_WAIT(priority=0x0E, entity_id=Zokima-Rokima (ID: 17756171/0x010EF00B), tag_num=0x54)
 50: 0x0281 [0x01] GOTO 0x0333
 51: 0x0284 [0x02] IF !(Work_Zone[0] == 17*) GOTO 0x029D
 52: 0x028C [0x29] REQ_SET_WAIT(priority=0x0E, entity_id=Zokima-Rokima (ID: 17756171/0x010EF00B), tag_num=0x18)
 53: 0x0293 [0x29] REQ_SET_WAIT(priority=0x0E, entity_id=Zokima-Rokima (ID: 17756171/0x010EF00B), tag_num=0x56)
 54: 0x029A [0x01] GOTO 0x0333
 55: 0x029D [0x02] IF !(Work_Zone[0] == 18*) GOTO 0x02B6
 56: 0x02A5 [0x29] REQ_SET_WAIT(priority=0x0E, entity_id=Zokima-Rokima (ID: 17756171/0x010EF00B), tag_num=0x18)
 57: 0x02AC [0x29] REQ_SET_WAIT(priority=0x0E, entity_id=Zokima-Rokima (ID: 17756171/0x010EF00B), tag_num=0x58)
 58: 0x02B3 [0x01] GOTO 0x0333
 59: 0x02B6 [0x02] IF !(Work_Zone[0] == 19*) GOTO 0x02CF
 60: 0x02BE [0x29] REQ_SET_WAIT(priority=0x0E, entity_id=Zokima-Rokima (ID: 17756171/0x010EF00B), tag_num=0x18)
 61: 0x02C5 [0x29] REQ_SET_WAIT(priority=0x0E, entity_id=Zokima-Rokima (ID: 17756171/0x010EF00B), tag_num=0x5A)
 62: 0x02CC [0x01] GOTO 0x0333
 63: 0x02CF [0x02] IF !(Work_Zone[0] == 20*) GOTO 0x02E8
 64: 0x02D7 [0x29] REQ_SET_WAIT(priority=0x0E, entity_id=Zokima-Rokima (ID: 17756171/0x010EF00B), tag_num=0x18)
 65: 0x02DE [0x29] REQ_SET_WAIT(priority=0x0E, entity_id=Zokima-Rokima (ID: 17756171/0x010EF00B), tag_num=0x5C)
 66: 0x02E5 [0x01] GOTO 0x0333
 67: 0x02E8 [0x02] IF !(Work_Zone[0] == 21*) GOTO 0x0301
 68: 0x02F0 [0x29] REQ_SET_WAIT(priority=0x0E, entity_id=Zokima-Rokima (ID: 17756171/0x010EF00B), tag_num=0x18)
 69: 0x02F7 [0x29] REQ_SET_WAIT(priority=0x0E, entity_id=Zokima-Rokima (ID: 17756171/0x010EF00B), tag_num=0x5E)
 70: 0x02FE [0x01] GOTO 0x0333
 71: 0x0301 [0x02] IF !(Work_Zone[0] == 22*) GOTO 0x031A
 72: 0x0309 [0x29] REQ_SET_WAIT(priority=0x0E, entity_id=Zokima-Rokima (ID: 17756171/0x010EF00B), tag_num=0x18)
 73: 0x0310 [0x29] REQ_SET_WAIT(priority=0x0E, entity_id=Zokima-Rokima (ID: 17756171/0x010EF00B), tag_num=0x60)
 74: 0x0317 [0x01] GOTO 0x0333
 75: 0x031A [0x02] IF !(Work_Zone[0] == 23*) GOTO 0x0333
 76: 0x0322 [0x29] REQ_SET_WAIT(priority=0x0E, entity_id=Zokima-Rokima (ID: 17756171/0x010EF00B), tag_num=0x18)
 77: 0x0329 [0x29] REQ_SET_WAIT(priority=0x0E, entity_id=Zokima-Rokima (ID: 17756171/0x010EF00B), tag_num=0x62)
 78: 0x0330 [0x01] GOTO 0x0333

SUBROUTINE_0333:
 79: 0x0333 [0x03] Work_Zone[1] = Work_Zone[0]
 80: 0x0338 [0x02] IF !(Work_Zone[1] == 31*) GOTO 0x035C
 81: 0x0340 [0x24] CREATE_DIALOG(message_id=6749*, default_option=0*, option_flags=0*)
    → "Accept this mission? [Yes./No.]"
 82: 0x0347 [0x25] WAIT_DIALOG_SELECT()
 83: 0x0348 [0x02] IF !(Work_Zone[0] == 1*) GOTO 0x035C
 84: 0x0350 [0x03] Work_Zone[1] = 31*
 85: 0x0355 [0x20] SET_CLI_EVENT_UC_FLAG: Unlock player control
 86: 0x0357 [0x21] END_EVENT
 87: 0x0358 [0x00] END_REQSTACK()

SUBROUTINE_035C:
 88: 0x035C [0x20] SET_CLI_EVENT_UC_FLAG: Unlock player control
 89: 0x035E [0x21] END_EVENT
 90: 0x035F [0x00] END_REQSTACK()
```

#### Data or dead code:

```
# Dead code (unreachable instructions):
     0x0359 [0x01] GOTO 0x035C
```

### Event 65535.21

#### Metadata

| Field        | Value    |
|--------------|----------|
| Entrypoint   | 0x0360   |
| Data Size    | 42 bytes |
| Instructions | 10       |

```
      00 01 02 03 04 05 06 07  08 09 0A 0B 0C 0D 0E 0F
      -- -- -- -- -- -- -- --  -- -- -- -- -- -- -- --
0360: 03 01 10 00 10 02 01 10  13 80 01 89 03 24 26 80  .............$&.
0370: 27 80 27 80 25 02 00 10  14 80 00 89 03 03 01 10  '.'.%...........
0380: 13 80 20 00 21 00 01 89  03 00                    .. .!.....      
```

#### Opcodes

```
  0: 0x0360 [0x03] Work_Zone[1] = Work_Zone[0]
  1: 0x0365 [0x02] IF !(Work_Zone[1] == 31*) GOTO 0x0389
  2: 0x036D [0x24] CREATE_DIALOG(message_id=6749*, default_option=0*, option_flags=0*)
    → "Accept this mission? [Yes./No.]"
  3: 0x0374 [0x25] WAIT_DIALOG_SELECT()
  4: 0x0375 [0x02] IF !(Work_Zone[0] == 1*) GOTO 0x0389
  5: 0x037D [0x03] Work_Zone[1] = 31*
  6: 0x0382 [0x20] SET_CLI_EVENT_UC_FLAG: Unlock player control
  7: 0x0384 [0x21] END_EVENT
  8: 0x0385 [0x00] END_REQSTACK()

SUBROUTINE_0389:
  9: 0x0389 [0x00] END_REQSTACK()
```

#### Data or dead code:

```
# Dead code (unreachable instructions):
     0x0386 [0x01] GOTO 0x0389
```

### Event 91

#### Metadata

| Field        | Value    |
|--------------|----------|
| Entrypoint   | 0x038A   |
| Data Size    | 29 bytes |
| Instructions | 10       |

```
      00 01 02 03 04 05 06 07  08 09 0A 0B 0C 0D 0E 0F
      -- -- -- -- -- -- -- --  -- -- -- -- -- -- -- --
0380:                                1E F0 FF FF 7F 6F            .....o
0390: 70 29 08 0B F0 0E 01 01  1D 28 80 23 29 08 0B F0  p).......(.#)...
03A0: 0E 01 02 20 00 21 00                              ... .!.         
```

#### Opcodes

```
  0: 0x038A [0x1E] EventEntity looks at LocalPlayer and starts talking
  1: 0x038F [0x6F] WAIT_FRAME_DELAY: Yield until WaitTime reaches zero
  2: 0x0390 [0x70] WAIT_ENTITY_RENDER_FLAG: Wait while EventEntity->Render.Flags3 bit 2 is set (cancel turn if not)
  3: 0x0391 [0x29] REQ_SET_WAIT(priority=0x08, entity_id=Zokima-Rokima (ID: 17756171/0x010EF00B), tag_num=0x01)
  4: 0x0398 [0x1D] PRINT_EVENT_MESSAGE(message_id=7289*)
    → "You cannotaru accept more than one mission at a time. Please completaru your current mission before applying for the next."
  5: 0x039B [0x23] WAIT_FOR_DIALOG_INTERACTION
  6: 0x039C [0x29] REQ_SET_WAIT(priority=0x08, entity_id=Zokima-Rokima (ID: 17756171/0x010EF00B), tag_num=0x02)
  7: 0x03A3 [0x20] SET_CLI_EVENT_UC_FLAG: Unlock player control
  8: 0x03A5 [0x21] END_EVENT
  9: 0x03A6 [0x00] END_REQSTACK()
```

### Event 96

#### Metadata

| Field        | Value     |
|--------------|-----------|
| Entrypoint   | 0x03A7    |
| Data Size    | 233 bytes |
| Instructions | 34        |

```
      00 01 02 03 04 05 06 07  08 09 0A 0B 0C 0D 0E 0F
      -- -- -- -- -- -- -- --  -- -- -- -- -- -- -- --
03A0:                      46  01 42 45 29 80 F8 FF FF         F.BE)....
03B0: 7F F8 FF FF 7F 66 64 6F  31 27 80 1C 2A 80 38 16  .....fdo1'..*.8.
03C0: 80 1E F0 FF FF 7F 6F 70  4A 0C F0 0E 01 F0 FF FF  ......opJ.......
03D0: 7F 29 0B F0 FF FF 7F 1F  1E F0 FF FF 7F 6F 70 45  .)...........opE
03E0: 2B 80 F8 FF FF 7F F8 FF  FF 7F 73 30 39 32 27 80  +.........s092'.
03F0: 45 29 80 F8 FF FF 7F F8  FF FF 7F 66 64 69 31 27  E).........fdi1'
0400: 80 29 0B 0B F0 0E 01 1E  52 2B 80 F8 FF FF 7F F8  .)......R+......
0410: FF FF 7F 73 30 39 32 24  2C 80 27 80 27 80 25 02  ...s092$,.'.'.%.
0420: 00 10 27 80 00 42 04 45  2B 80 F8 FF FF 7F F8 FF  ..'..B.E+.......
0430: FF 7F 73 30 39 33 27 80  29 0D 0B F0 0E 01 1C 01  ..s093'.).......
0440: 65 04 02 00 10 14 80 00  65 04 45 2B 80 F8 FF FF  e.......e.E+....
0450: 7F F8 FF FF 7F 73 30 39  33 27 80 29 0D 0B F0 0E  .....s093'.)....
0460: 01 1B 01 65 04 45 29 80  F8 FF FF 7F F8 FF FF 7F  ...e.E).........
0470: 66 64 6F 31 27 80 1C 2A  80 46 00 45 29 80 F8 FF  fdo1'..*.F.E)...
0480: FF 7F F8 FF FF 7F 66 64  69 31 27 80 20 00 21 00  ......fdi1'. .!.
```

#### Opcodes

```
  0: 0x03A7 [0x46] CAMERA_CONTROL: Disable user control
  1: 0x03A9 [0x42] SET_CLI_EVENT_CANCEL_DATA()
  2: 0x03AA [0x45] LOAD_SCHEDULED_TASK: Load scheduler "fdo1" with entities [EventEntity, EventEntity], work=[200*, 0*]
  3: 0x03BB [0x1C] WAIT(60* ticks)
  4: 0x03BE [0x38] SET_CLIENT_EVENT_MODE(mode=3*)
  5: 0x03C1 [0x1E] EventEntity looks at LocalPlayer and starts talking
  6: 0x03C6 [0x6F] WAIT_FRAME_DELAY: Yield until WaitTime reaches zero
  7: 0x03C7 [0x70] WAIT_ENTITY_RENDER_FLAG: Wait while EventEntity->Render.Flags3 bit 2 is set (cancel turn if not)
  8: 0x03C8 [0x4A] Pakke-Pokke (ID: 17756172/0x010EF00C) looks at LocalPlayer
  9: 0x03D1 [0x29] REQ_SET_WAIT(priority=0x0B, entity_id=LocalPlayer, tag_num=0x1F)
 10: 0x03D8 [0x1E] EventEntity looks at LocalPlayer and starts talking
 11: 0x03DD [0x6F] WAIT_FRAME_DELAY: Yield until WaitTime reaches zero
 12: 0x03DE [0x70] WAIT_ENTITY_RENDER_FLAG: Wait while EventEntity->Render.Flags3 bit 2 is set (cancel turn if not)
 13: 0x03DF [0x45] LOAD_SCHEDULED_TASK: Load scheduler "s092" with entities [EventEntity, EventEntity], work=[139*, 0*]
 14: 0x03F0 [0x45] LOAD_SCHEDULED_TASK: Load scheduler "fdi1" with entities [EventEntity, EventEntity], work=[200*, 0*]
 15: 0x0401 [0x29] REQ_SET_WAIT(priority=0x0B, entity_id=Zokima-Rokima (ID: 17756171/0x010EF00B), tag_num=0x1E)
 16: 0x0408 [0x52] END_LOAD_SCHEDULER: End scheduler "s092" with entities [EventEntity, EventEntity], work=139*
 17: 0x0417 [0x24] CREATE_DIALOG(message_id=7295*, default_option=0*, option_flags=0*)
    → "Know much aboutaru gatehouses? [No, I don'taru./Yes, enough.]"
 18: 0x041E [0x25] WAIT_DIALOG_SELECT()
 19: 0x041F [0x02] IF !(Work_Zone[0] == 0*) GOTO 0x0442
 20: 0x0427 [0x45] LOAD_SCHEDULED_TASK: Load scheduler "s093" with entities [EventEntity, EventEntity], work=[139*, 0*]
 21: 0x0438 [0x29] REQ_SET_WAIT(priority=0x0D, entity_id=Zokima-Rokima (ID: 17756171/0x010EF00B), tag_num=0x1C)
 22: 0x043F [0x01] GOTO 0x0465
 23: 0x0442 [0x02] IF !(Work_Zone[0] == 1*) GOTO 0x0465
 24: 0x044A [0x45] LOAD_SCHEDULED_TASK: Load scheduler "s093" with entities [EventEntity, EventEntity], work=[139*, 0*]
 25: 0x045B [0x29] REQ_SET_WAIT(priority=0x0D, entity_id=Zokima-Rokima (ID: 17756171/0x010EF00B), tag_num=0x1B)
 26: 0x0462 [0x01] GOTO 0x0465

SUBROUTINE_0465:
 27: 0x0465 [0x45] LOAD_SCHEDULED_TASK: Load scheduler "fdo1" with entities [EventEntity, EventEntity], work=[200*, 0*]
 28: 0x0476 [0x1C] WAIT(60* ticks)
 29: 0x0479 [0x46] CAMERA_CONTROL: Restore default settings
 30: 0x047B [0x45] LOAD_SCHEDULED_TASK: Load scheduler "fdi1" with entities [EventEntity, EventEntity], work=[200*, 0*]
 31: 0x048C [0x20] SET_CLI_EVENT_UC_FLAG: Unlock player control
 32: 0x048E [0x21] END_EVENT
 33: 0x048F [0x00] END_REQSTACK()
```

### Event 65535.22

#### Metadata

| Field        | Value    |
|--------------|----------|
| Entrypoint   | 0x0490   |
| Data Size    | 62 bytes |
| Instructions | 12       |

```
      00 01 02 03 04 05 06 07  08 09 0A 0B 0C 0D 0E 0F
      -- -- -- -- -- -- -- --  -- -- -- -- -- -- -- --
0490: 29 0B 0B F0 0E 01 1F 24  2D 80 27 80 27 80 25 02  )......$-.'.'.%.
04A0: 00 10 27 80 00 B6 04 03  01 10 14 80 29 0B 0B F0  ..'.........)...
04B0: 0E 01 1D 01 CD 04 02 00  10 14 80 00 CD 04 03 01  ................
04C0: 10 13 80 29 0B 0B F0 0E  01 22 01 CD 04 00        ...)....."....  
```

#### Opcodes

```
  0: 0x0490 [0x29] REQ_SET_WAIT(priority=0x0B, entity_id=Zokima-Rokima (ID: 17756171/0x010EF00B), tag_num=0x1F)
  1: 0x0497 [0x24] CREATE_DIALOG(message_id=7302*, default_option=0*, option_flags=0*)
    → "Receive a mission? [Acceptaru./Decline.]"
  2: 0x049E [0x25] WAIT_DIALOG_SELECT()
  3: 0x049F [0x02] IF !(Work_Zone[0] == 0*) GOTO 0x04B6
  4: 0x04A7 [0x03] Work_Zone[1] = 1*
  5: 0x04AC [0x29] REQ_SET_WAIT(priority=0x0B, entity_id=Zokima-Rokima (ID: 17756171/0x010EF00B), tag_num=0x1D)
  6: 0x04B3 [0x01] GOTO 0x04CD
  7: 0x04B6 [0x02] IF !(Work_Zone[0] == 1*) GOTO 0x04CD
  8: 0x04BE [0x03] Work_Zone[1] = 31*
  9: 0x04C3 [0x29] REQ_SET_WAIT(priority=0x0B, entity_id=Zokima-Rokima (ID: 17756171/0x010EF00B), tag_num=0x22)
 10: 0x04CA [0x01] GOTO 0x04CD

SUBROUTINE_04CD:
 11: 0x04CD [0x00] END_REQSTACK()
```

### Event 97

#### Metadata

| Field        | Value    |
|--------------|----------|
| Entrypoint   | 0x04CE   |
| Data Size    | 69 bytes |
| Instructions | 13       |

```
      00 01 02 03 04 05 06 07  08 09 0A 0B 0C 0D 0E 0F
      -- -- -- -- -- -- -- --  -- -- -- -- -- -- -- --
04C0:                                            29 0B                ).
04D0: 0B F0 0E 01 20 29 0B 0B  F0 0E 01 21 24 2D 80 27  .... ).....!$-.'
04E0: 80 27 80 25 02 00 10 27  80 00 FB 04 03 01 10 14  .'.%...'........
04F0: 80 29 0B 0B F0 0E 01 1D  01 12 05 02 00 10 14 80  .)..............
0500: 00 12 05 03 01 10 13 80  29 0B 0B F0 0E 01 22 01  ........).....".
0510: 12 05 00                                          ...             
```

#### Opcodes

```
  0: 0x04CE [0x29] REQ_SET_WAIT(priority=0x0B, entity_id=Zokima-Rokima (ID: 17756171/0x010EF00B), tag_num=0x20)
  1: 0x04D5 [0x29] REQ_SET_WAIT(priority=0x0B, entity_id=Zokima-Rokima (ID: 17756171/0x010EF00B), tag_num=0x21)
  2: 0x04DC [0x24] CREATE_DIALOG(message_id=7302*, default_option=0*, option_flags=0*)
    → "Receive a mission? [Acceptaru./Decline.]"
  3: 0x04E3 [0x25] WAIT_DIALOG_SELECT()
  4: 0x04E4 [0x02] IF !(Work_Zone[0] == 0*) GOTO 0x04FB
  5: 0x04EC [0x03] Work_Zone[1] = 1*
  6: 0x04F1 [0x29] REQ_SET_WAIT(priority=0x0B, entity_id=Zokima-Rokima (ID: 17756171/0x010EF00B), tag_num=0x1D)
  7: 0x04F8 [0x01] GOTO 0x0512
  8: 0x04FB [0x02] IF !(Work_Zone[0] == 1*) GOTO 0x0512
  9: 0x0503 [0x03] Work_Zone[1] = 31*
 10: 0x0508 [0x29] REQ_SET_WAIT(priority=0x0B, entity_id=Zokima-Rokima (ID: 17756171/0x010EF00B), tag_num=0x22)
 11: 0x050F [0x01] GOTO 0x0512

SUBROUTINE_0512:
 12: 0x0512 [0x00] END_REQSTACK()
```

### Event 98

#### Metadata

| Field        | Value     |
|--------------|-----------|
| Entrypoint   | 0x0513    |
| Data Size    | 147 bytes |
| Instructions | 15        |

```
      00 01 02 03 04 05 06 07  08 09 0A 0B 0C 0D 0E 0F
      -- -- -- -- -- -- -- --  -- -- -- -- -- -- -- --
0510:          45 2B 80 F8 FF  FF 7F F8 FF FF 7F 73 30     E+.........s0
0520: 39 34 27 80 4A 0B F0 0E  01 0D F0 0E 01 29 0A 0B  94'.J........)..
0530: F0 0E 01 23 45 2B 80 F8  FF FF 7F F8 FF FF 7F 73  ...#E+.........s
0540: 30 39 35 27 80 4A 0B F0  0E 01 0C F0 0E 01 2B 0B  095'.J........+.
0550: F0 0E 01 2E 80 23 45 2B  80 F8 FF FF 7F F8 FF FF  .....#E+........
0560: 7F 73 30 39 36 27 80 4A  0B F0 0E 01 F0 FF FF 7F  .s096'.J........
0570: 29 0A 0C F0 0E 01 17 29  0A 0C F0 0E 01 18 45 2B  )......)......E+
0580: 80 F8 FF FF 7F F8 FF FF  7F 73 30 39 32 27 80 29  .........s092'.)
0590: 0A 0B F0 0E 01 24 52 2B  80 F8 FF FF 7F F8 FF FF  .....$R+........
05A0: 7F 73 30 39 32 00                                 .s092.          
```

#### Opcodes

```
  0: 0x0513 [0x45] LOAD_SCHEDULED_TASK: Load scheduler "s094" with entities [EventEntity, EventEntity], work=[139*, 0*]
  1: 0x0524 [0x4A] Zokima-Rokima (ID: 17756171/0x010EF00B) looks at Keo-Koruo (ID: 17756173/0x010EF00D)
  2: 0x052D [0x29] REQ_SET_WAIT(priority=0x0A, entity_id=Zokima-Rokima (ID: 17756171/0x010EF00B), tag_num=0x23)
  3: 0x0534 [0x45] LOAD_SCHEDULED_TASK: Load scheduler "s095" with entities [EventEntity, EventEntity], work=[139*, 0*]
  4: 0x0545 [0x4A] Zokima-Rokima (ID: 17756171/0x010EF00B) looks at Pakke-Pokke (ID: 17756172/0x010EF00C)
  5: 0x054E [0x2B] Zokima-Rokima (ID: 17756171/0x010EF00B) [7304*]:
    → "...Looks like he's preoccupied. So, erm, hey Pakke-Pokke...! Give the newcomer a mission appropriatarue for [his/her] rank, please."
  6: 0x0555 [0x23] WAIT_FOR_DIALOG_INTERACTION
  7: 0x0556 [0x45] LOAD_SCHEDULED_TASK: Load scheduler "s096" with entities [EventEntity, EventEntity], work=[139*, 0*]
  8: 0x0567 [0x4A] Zokima-Rokima (ID: 17756171/0x010EF00B) looks at LocalPlayer
  9: 0x0570 [0x29] REQ_SET_WAIT(priority=0x0A, entity_id=Pakke-Pokke (ID: 17756172/0x010EF00C), tag_num=0x17)
 10: 0x0577 [0x29] REQ_SET_WAIT(priority=0x0A, entity_id=Pakke-Pokke (ID: 17756172/0x010EF00C), tag_num=0x18)
 11: 0x057E [0x45] LOAD_SCHEDULED_TASK: Load scheduler "s092" with entities [EventEntity, EventEntity], work=[139*, 0*]
 12: 0x058F [0x29] REQ_SET_WAIT(priority=0x0A, entity_id=Zokima-Rokima (ID: 17756171/0x010EF00B), tag_num=0x24)
 13: 0x0596 [0x52] END_LOAD_SCHEDULER: End scheduler "s092" with entities [EventEntity, EventEntity], work=139*
 14: 0x05A5 [0x00] END_REQSTACK()
```

### Event 65535.23

#### Metadata

| Field        | Value    |
|--------------|----------|
| Entrypoint   | 0x05A6   |
| Data Size    | 23 bytes |
| Instructions | 7        |

```
      00 01 02 03 04 05 06 07  08 09 0A 0B 0C 0D 0E 0F
      -- -- -- -- -- -- -- --  -- -- -- -- -- -- -- --
05A0:                   29 08  0B F0 0E 01 01 1D 2F 80        )......./.
05B0: 23 1D 30 80 23 29 08 0B  F0 0E 01 02 00           #.0.#).......   
```

#### Opcodes

```
  0: 0x05A6 [0x29] REQ_SET_WAIT(priority=0x08, entity_id=Zokima-Rokima (ID: 17756171/0x010EF00B), tag_num=0x01)
  1: 0x05AD [0x1D] PRINT_EVENT_MESSAGE(message_id=7293*)
    → "This is Heavens Tower's gatehouse, and we are the guards who protectaru Heavens Tower."
  2: 0x05B0 [0x23] WAIT_FOR_DIALOG_INTERACTION
  3: 0x05B1 [0x1D] PRINT_EVENT_MESSAGE(message_id=7294*)
    → "You look new around these partarus. Do you know aboutaru the role of the gatehouses?"
  4: 0x05B4 [0x23] WAIT_FOR_DIALOG_INTERACTION
  5: 0x05B5 [0x29] REQ_SET_WAIT(priority=0x08, entity_id=Zokima-Rokima (ID: 17756171/0x010EF00B), tag_num=0x02)
  6: 0x05BC [0x00] END_REQSTACK()
```

### Event 65535.24

#### Metadata

| Field        | Value    |
|--------------|----------|
| Entrypoint   | 0x05BD   |
| Data Size    | 23 bytes |
| Instructions | 7        |

```
      00 01 02 03 04 05 06 07  08 09 0A 0B 0C 0D 0E 0F
      -- -- -- -- -- -- -- --  -- -- -- -- -- -- -- --
05B0:                                         29 08 0B               )..
05C0: F0 0E 01 07 1D 31 80 23  1D 32 80 23 29 08 0B F0  .....1.#.2.#)...
05D0: 0E 01 08 00                                       ....            
```

#### Opcodes

```
  0: 0x05BD [0x29] REQ_SET_WAIT(priority=0x08, entity_id=Zokima-Rokima (ID: 17756171/0x010EF00B), tag_num=0x07)
  1: 0x05C4 [0x1D] PRINT_EVENT_MESSAGE(message_id=7296*)
    → "Oh, so you know aboutaru us? Then let's give you a mission to try your hand ataru!"
  2: 0x05C7 [0x23] WAIT_FOR_DIALOG_INTERACTION
  3: 0x05C8 [0x1D] PRINT_EVENT_MESSAGE(message_id=7297*)
    → "It's all aboutaru learning from experience. Don't worry aboutaru the details. Just accept a mission and see if you can completarue it."
  4: 0x05CB [0x23] WAIT_FOR_DIALOG_INTERACTION
  5: 0x05CC [0x29] REQ_SET_WAIT(priority=0x08, entity_id=Zokima-Rokima (ID: 17756171/0x010EF00B), tag_num=0x08)
  6: 0x05D3 [0x00] END_REQSTACK()
```

### Event 65535.25

#### Metadata

| Field        | Value    |
|--------------|----------|
| Entrypoint   | 0x05D4   |
| Data Size    | 23 bytes |
| Instructions | 7        |

```
      00 01 02 03 04 05 06 07  08 09 0A 0B 0C 0D 0E 0F
      -- -- -- -- -- -- -- --  -- -- -- -- -- -- -- --
05D0:             29 08 0B F0  0E 01 01 1D 33 80 23 1D      ).......3.#.
05E0: 34 80 23 29 08 0B F0 0E  01 02 00                 4.#).......     
```

#### Opcodes

```
  0: 0x05D4 [0x29] REQ_SET_WAIT(priority=0x08, entity_id=Zokima-Rokima (ID: 17756171/0x010EF00B), tag_num=0x01)
  1: 0x05DB [0x1D] PRINT_EVENT_MESSAGE(message_id=7298*)
    → "Gatehouses are where we guards keep a round-the-clock vigil."
  2: 0x05DE [0x23] WAIT_FOR_DIALOG_INTERACTION
  3: 0x05DF [0x1D] PRINT_EVENT_MESSAGE(message_id=7299*)
    → "The role of guards is to protectaru Windurst from monsters and bad people. Or as we prefer to putaru it...we're the heroes of justaruice, libertaruy, and love."
  4: 0x05E2 [0x23] WAIT_FOR_DIALOG_INTERACTION
  5: 0x05E3 [0x29] REQ_SET_WAIT(priority=0x08, entity_id=Zokima-Rokima (ID: 17756171/0x010EF00B), tag_num=0x02)
  6: 0x05EA [0x00] END_REQSTACK()
```

### Event 65535.26

#### Metadata

| Field        | Value    |
|--------------|----------|
| Entrypoint   | 0x05EB   |
| Data Size    | 23 bytes |
| Instructions | 7        |

```
      00 01 02 03 04 05 06 07  08 09 0A 0B 0C 0D 0E 0F
      -- -- -- -- -- -- -- --  -- -- -- -- -- -- -- --
05E0:                                   29 08 0B F0 0E             )....
05F0: 01 01 1D 35 80 23 1D 36  80 23 29 08 0B F0 0E 01  ...5.#.6.#).....
0600: 02 00                                             ..              
```

#### Opcodes

```
  0: 0x05EB [0x29] REQ_SET_WAIT(priority=0x08, entity_id=Zokima-Rokima (ID: 17756171/0x010EF00B), tag_num=0x01)
  1: 0x05F2 [0x1D] PRINT_EVENT_MESSAGE(message_id=7300*)
    → "Gatehouses also serve as the places where importantaru missions from the Federation of Windurst are received and handed out to adventarurers."
  2: 0x05F5 [0x23] WAIT_FOR_DIALOG_INTERACTION
  3: 0x05F6 [0x1D] PRINT_EVENT_MESSAGE(message_id=7301*)
    → "If you're a capable adventarurer, confidentaru in your own abilities, then why notaru take on a mission and serve to protectaru Windurst's justaruice, libertaruy, and love together with us?"
  4: 0x05F9 [0x23] WAIT_FOR_DIALOG_INTERACTION
  5: 0x05FA [0x29] REQ_SET_WAIT(priority=0x08, entity_id=Zokima-Rokima (ID: 17756171/0x010EF00B), tag_num=0x02)
  6: 0x0601 [0x00] END_REQSTACK()
```

### Event 65535.27

#### Metadata

| Field        | Value    |
|--------------|----------|
| Entrypoint   | 0x0602   |
| Data Size    | 23 bytes |
| Instructions | 7        |

```
      00 01 02 03 04 05 06 07  08 09 0A 0B 0C 0D 0E 0F
      -- -- -- -- -- -- -- --  -- -- -- -- -- -- -- --
0600:       29 08 0B F0 0E 01  01 1D 37 80 23 1D 38 80    ).......7.#.8.
0610: 23 29 08 0B F0 0E 01 02  00                       #).......       
```

#### Opcodes

```
  0: 0x0602 [0x29] REQ_SET_WAIT(priority=0x08, entity_id=Zokima-Rokima (ID: 17756171/0x010EF00B), tag_num=0x01)
  1: 0x0609 [0x1D] PRINT_EVENT_MESSAGE(message_id=7310*)
    → "No greataru loss... If someone doesn'taru have their heart in it, then you can hardly expectaru them to provide good results, now can you?"
  2: 0x060C [0x23] WAIT_FOR_DIALOG_INTERACTION
  3: 0x060D [0x1D] PRINT_EVENT_MESSAGE(message_id=7311*)
    → "Anyway, come back and tell us when you feel like doing something for your country for a change."
  4: 0x0610 [0x23] WAIT_FOR_DIALOG_INTERACTION
  5: 0x0611 [0x29] REQ_SET_WAIT(priority=0x08, entity_id=Zokima-Rokima (ID: 17756171/0x010EF00B), tag_num=0x02)
  6: 0x0618 [0x00] END_REQSTACK()
```

### Event 65535.28

#### Metadata

| Field        | Value   |
|--------------|---------|
| Entrypoint   | 0x0619  |
| Data Size    | 5 bytes |
| Instructions | 3       |

```
      00 01 02 03 04 05 06 07  08 09 0A 0B 0C 0D 0E 0F
      -- -- -- -- -- -- -- --  -- -- -- -- -- -- -- --
0610:                             1D 39 80 23 00                 .9.#.  
```

#### Opcodes

```
  0: 0x0619 [0x1D] PRINT_EVENT_MESSAGE(message_id=7303*)
    → "Okay then... Hey, Keo-Koruo...!"
  1: 0x061C [0x23] WAIT_FOR_DIALOG_INTERACTION
  2: 0x061D [0x00] END_REQSTACK()
```

### Event 65535.29

#### Metadata

| Field        | Value    |
|--------------|----------|
| Entrypoint   | 0x061E   |
| Data Size    | 23 bytes |
| Instructions | 7        |

```
      00 01 02 03 04 05 06 07  08 09 0A 0B 0C 0D 0E 0F
      -- -- -- -- -- -- -- --  -- -- -- -- -- -- -- --
0610:                                            29 08                ).
0620: 0B F0 0E 01 01 1D 3A 80  23 1D 3B 80 23 29 08 0B  ......:.#.;.#)..
0630: F0 0E 01 02 00                                    .....           
```

#### Opcodes

```
  0: 0x061E [0x29] REQ_SET_WAIT(priority=0x08, entity_id=Zokima-Rokima (ID: 17756171/0x010EF00B), tag_num=0x01)
  1: 0x0625 [0x1D] PRINT_EVENT_MESSAGE(message_id=7308*)
    → "I thought thataru Orastery mob was beyond help, but it looks like they're asking for a hand. Well, let's make this your first mission anyway, and see how you go with itaru."
  2: 0x0628 [0x23] WAIT_FOR_DIALOG_INTERACTION
  3: 0x0629 [0x1D] PRINT_EVENT_MESSAGE(message_id=7309*)
    → "Head over to the Orastery building in Port Windurst and ask the minister there for the mission details."
  4: 0x062C [0x23] WAIT_FOR_DIALOG_INTERACTION
  5: 0x062D [0x29] REQ_SET_WAIT(priority=0x08, entity_id=Zokima-Rokima (ID: 17756171/0x010EF00B), tag_num=0x02)
  6: 0x0634 [0x00] END_REQSTACK()
```

### Event 99

#### Metadata

| Field        | Value    |
|--------------|----------|
| Entrypoint   | 0x0635   |
| Data Size    | 33 bytes |
| Instructions | 12       |

```
      00 01 02 03 04 05 06 07  08 09 0A 0B 0C 0D 0E 0F
      -- -- -- -- -- -- -- --  -- -- -- -- -- -- -- --
0630:                1E F0 FF  FF 7F 6F 70 29 08 0B F0       .....op)...
0640: 0E 01 01 1D 3C 80 23 1D  3D 80 23 29 08 0B F0 0E  ....<.#.=.#)....
0650: 01 02 20 00 21 00                                 .. .!.          
```

#### Opcodes

```
  0: 0x0635 [0x1E] EventEntity looks at LocalPlayer and starts talking
  1: 0x063A [0x6F] WAIT_FRAME_DELAY: Yield until WaitTime reaches zero
  2: 0x063B [0x70] WAIT_ENTITY_RENDER_FLAG: Wait while EventEntity->Render.Flags3 bit 2 is set (cancel turn if not)
  3: 0x063C [0x29] REQ_SET_WAIT(priority=0x08, entity_id=Zokima-Rokima (ID: 17756171/0x010EF00B), tag_num=0x01)
  4: 0x0643 [0x1D] PRINT_EVENT_MESSAGE(message_id=7312*)
    → "Head over to the Orastery building in Port Windurst and ask the minister there for your mission details."
  5: 0x0646 [0x23] WAIT_FOR_DIALOG_INTERACTION
  6: 0x0647 [0x1D] PRINT_EVENT_MESSAGE(message_id=7313*)
    → "Oh, and just in case you didn'taru know... The Orastery is one of the five ministries of Windurst. It is also known as the "Mage Academy," as itaru is the place where they train the most powerful magic users to help serve the Federation."
  7: 0x064A [0x23] WAIT_FOR_DIALOG_INTERACTION
  8: 0x064B [0x29] REQ_SET_WAIT(priority=0x08, entity_id=Zokima-Rokima (ID: 17756171/0x010EF00B), tag_num=0x02)
  9: 0x0652 [0x20] SET_CLI_EVENT_UC_FLAG: Unlock player control
 10: 0x0654 [0x21] END_EVENT
 11: 0x0655 [0x00] END_REQSTACK()
```

### Event 102

#### Metadata

| Field        | Value    |
|--------------|----------|
| Entrypoint   | 0x0656   |
| Data Size    | 29 bytes |
| Instructions | 10       |

```
      00 01 02 03 04 05 06 07  08 09 0A 0B 0C 0D 0E 0F
      -- -- -- -- -- -- -- --  -- -- -- -- -- -- -- --
0650:                   1E F0  FF FF 7F 6F 70 29 08 0B        .....op)..
0660: F0 0E 01 01 1D 3E 80 23  29 08 0B F0 0E 01 02 20  .....>.#)...... 
0670: 00 21 00                                          .!.             
```

#### Opcodes

```
  0: 0x0656 [0x1E] EventEntity looks at LocalPlayer and starts talking
  1: 0x065B [0x6F] WAIT_FRAME_DELAY: Yield until WaitTime reaches zero
  2: 0x065C [0x70] WAIT_ENTITY_RENDER_FLAG: Wait while EventEntity->Render.Flags3 bit 2 is set (cancel turn if not)
  3: 0x065D [0x29] REQ_SET_WAIT(priority=0x08, entity_id=Zokima-Rokima (ID: 17756171/0x010EF00B), tag_num=0x01)
  4: 0x0664 [0x1D] PRINT_EVENT_MESSAGE(message_id=7318*)
    → "Well done! We'll allocatarue you rank points according to our evaluation of your mission. Come back again soon and try your hand ataru another mission."
  5: 0x0667 [0x23] WAIT_FOR_DIALOG_INTERACTION
  6: 0x0668 [0x29] REQ_SET_WAIT(priority=0x08, entity_id=Zokima-Rokima (ID: 17756171/0x010EF00B), tag_num=0x02)
  7: 0x066F [0x20] SET_CLI_EVENT_UC_FLAG: Unlock player control
  8: 0x0671 [0x21] END_EVENT
  9: 0x0672 [0x00] END_REQSTACK()
```

### Event 103

#### Metadata

| Field        | Value    |
|--------------|----------|
| Entrypoint   | 0x0673   |
| Data Size    | 29 bytes |
| Instructions | 10       |

```
      00 01 02 03 04 05 06 07  08 09 0A 0B 0C 0D 0E 0F
      -- -- -- -- -- -- -- --  -- -- -- -- -- -- -- --
0670:          1E F0 FF FF 7F  6F 70 29 08 0B F0 0E 01     .....op).....
0680: 01 1D 3F 80 23 29 08 0B  F0 0E 01 02 20 00 21 00  ..?.#)...... .!.
```

#### Opcodes

```
  0: 0x0673 [0x1E] EventEntity looks at LocalPlayer and starts talking
  1: 0x0678 [0x6F] WAIT_FRAME_DELAY: Yield until WaitTime reaches zero
  2: 0x0679 [0x70] WAIT_ENTITY_RENDER_FLAG: Wait while EventEntity->Render.Flags3 bit 2 is set (cancel turn if not)
  3: 0x067A [0x29] REQ_SET_WAIT(priority=0x08, entity_id=Zokima-Rokima (ID: 17756171/0x010EF00B), tag_num=0x01)
  4: 0x0681 [0x1D] PRINT_EVENT_MESSAGE(message_id=7319*)
    → "Well done! We'll allocatarue you rank points according to our evaluation of your mission. Come back again soon and try your hand ataru another mission."
  5: 0x0684 [0x23] WAIT_FOR_DIALOG_INTERACTION
  6: 0x0685 [0x29] REQ_SET_WAIT(priority=0x08, entity_id=Zokima-Rokima (ID: 17756171/0x010EF00B), tag_num=0x02)
  7: 0x068C [0x20] SET_CLI_EVENT_UC_FLAG: Unlock player control
  8: 0x068E [0x21] END_EVENT
  9: 0x068F [0x00] END_REQSTACK()
```

### Event 106

#### Metadata

| Field        | Value     |
|--------------|-----------|
| Entrypoint   | 0x0690    |
| Data Size    | 219 bytes |
| Instructions | 34        |

```
      00 01 02 03 04 05 06 07  08 09 0A 0B 0C 0D 0E 0F
      -- -- -- -- -- -- -- --  -- -- -- -- -- -- -- --
0690: 46 01 42 45 29 80 F8 FF  FF 7F F8 FF FF 7F 66 64  F.BE).........fd
06A0: 6F 31 27 80 1C 2A 80 38  16 80 1E F0 FF FF 7F 6F  o1'..*.8.......o
06B0: 70 4A 0C F0 0E 01 F0 FF  FF 7F 29 0B F0 FF FF 7F  pJ........).....
06C0: 1F 1E F0 FF FF 7F 6F 70  45 2B 80 F8 FF FF 7F F8  ......opE+......
06D0: FF FF 7F 73 30 39 32 27  80 45 29 80 F8 FF FF 7F  ...s092'.E).....
06E0: F8 FF FF 7F 66 64 69 31  27 80 29 0B 0B F0 0E 01  ....fdi1'.).....
06F0: 29 52 2B 80 F8 FF FF 7F  F8 FF FF 7F 73 30 39 32  )R+.........s092
0700: 24 40 80 27 80 27 80 25  02 00 10 27 80 00 30 07  $@.'.'.%...'..0.
0710: 45 2B 80 F8 FF FF 7F F8  FF FF 7F 73 30 39 33 27  E+.........s093'
0720: 80 29 0B 0B F0 0E 01 2A  03 01 10 14 80 01 40 07  .).....*......@.
0730: 02 00 10 14 80 00 40 07  03 01 10 13 80 01 40 07  ......@.......@.
0740: 45 29 80 F8 FF FF 7F F8  FF FF 7F 66 64 6F 31 27  E).........fdo1'
0750: 80 1C 2A 80 46 00 45 29  80 F8 FF FF 7F F8 FF FF  ..*.F.E)........
0760: 7F 66 64 69 31 27 80 20  00 21 00                 .fdi1'. .!.     
```

#### Opcodes

```
  0: 0x0690 [0x46] CAMERA_CONTROL: Disable user control
  1: 0x0692 [0x42] SET_CLI_EVENT_CANCEL_DATA()
  2: 0x0693 [0x45] LOAD_SCHEDULED_TASK: Load scheduler "fdo1" with entities [EventEntity, EventEntity], work=[200*, 0*]
  3: 0x06A4 [0x1C] WAIT(60* ticks)
  4: 0x06A7 [0x38] SET_CLIENT_EVENT_MODE(mode=3*)
  5: 0x06AA [0x1E] EventEntity looks at LocalPlayer and starts talking
  6: 0x06AF [0x6F] WAIT_FRAME_DELAY: Yield until WaitTime reaches zero
  7: 0x06B0 [0x70] WAIT_ENTITY_RENDER_FLAG: Wait while EventEntity->Render.Flags3 bit 2 is set (cancel turn if not)
  8: 0x06B1 [0x4A] Pakke-Pokke (ID: 17756172/0x010EF00C) looks at LocalPlayer
  9: 0x06BA [0x29] REQ_SET_WAIT(priority=0x0B, entity_id=LocalPlayer, tag_num=0x1F)
 10: 0x06C1 [0x1E] EventEntity looks at LocalPlayer and starts talking
 11: 0x06C6 [0x6F] WAIT_FRAME_DELAY: Yield until WaitTime reaches zero
 12: 0x06C7 [0x70] WAIT_ENTITY_RENDER_FLAG: Wait while EventEntity->Render.Flags3 bit 2 is set (cancel turn if not)
 13: 0x06C8 [0x45] LOAD_SCHEDULED_TASK: Load scheduler "s092" with entities [EventEntity, EventEntity], work=[139*, 0*]
 14: 0x06D9 [0x45] LOAD_SCHEDULED_TASK: Load scheduler "fdi1" with entities [EventEntity, EventEntity], work=[200*, 0*]
 15: 0x06EA [0x29] REQ_SET_WAIT(priority=0x0B, entity_id=Zokima-Rokima (ID: 17756171/0x010EF00B), tag_num=0x29)
 16: 0x06F1 [0x52] END_LOAD_SCHEDULER: End scheduler "s092" with entities [EventEntity, EventEntity], work=139*
 17: 0x0700 [0x24] CREATE_DIALOG(message_id=7325*, default_option=0*, option_flags=0*)
    → "Acceptaru this mission? [Acceptaru./Decline.]"
 18: 0x0707 [0x25] WAIT_DIALOG_SELECT()
 19: 0x0708 [0x02] IF !(Work_Zone[0] == 0*) GOTO 0x0730
 20: 0x0710 [0x45] LOAD_SCHEDULED_TASK: Load scheduler "s093" with entities [EventEntity, EventEntity], work=[139*, 0*]
 21: 0x0721 [0x29] REQ_SET_WAIT(priority=0x0B, entity_id=Zokima-Rokima (ID: 17756171/0x010EF00B), tag_num=0x2A)
 22: 0x0728 [0x03] Work_Zone[1] = 1*
 23: 0x072D [0x01] GOTO 0x0740
 24: 0x0730 [0x02] IF !(Work_Zone[0] == 1*) GOTO 0x0740
 25: 0x0738 [0x03] Work_Zone[1] = 31*
 26: 0x073D [0x01] GOTO 0x0740

SUBROUTINE_0740:
 27: 0x0740 [0x45] LOAD_SCHEDULED_TASK: Load scheduler "fdo1" with entities [EventEntity, EventEntity], work=[200*, 0*]
 28: 0x0751 [0x1C] WAIT(60* ticks)
 29: 0x0754 [0x46] CAMERA_CONTROL: Restore default settings
 30: 0x0756 [0x45] LOAD_SCHEDULED_TASK: Load scheduler "fdi1" with entities [EventEntity, EventEntity], work=[200*, 0*]
 31: 0x0767 [0x20] SET_CLI_EVENT_UC_FLAG: Unlock player control
 32: 0x0769 [0x21] END_EVENT
 33: 0x076A [0x00] END_REQSTACK()
```

### Event 65535.30

#### Metadata

| Field        | Value    |
|--------------|----------|
| Entrypoint   | 0x076B   |
| Data Size    | 41 bytes |
| Instructions | 11       |

```
      00 01 02 03 04 05 06 07  08 09 0A 0B 0C 0D 0E 0F
      -- -- -- -- -- -- -- --  -- -- -- -- -- -- -- --
0760:                                   29 08 0B F0 0E             )....
0770: 01 01 1D 41 80 23 1D 42  80 23 29 08 0B F0 0E 01  ...A.#.B.#).....
0780: 02 29 08 0B F0 0E 01 01  1D 43 80 23 29 08 0B F0  .).......C.#)...
0790: 0E 01 02 00                                       ....            
```

#### Opcodes

```
  0: 0x076B [0x29] REQ_SET_WAIT(priority=0x08, entity_id=Zokima-Rokima (ID: 17756171/0x010EF00B), tag_num=0x01)
  1: 0x0772 [0x1D] PRINT_EVENT_MESSAGE(message_id=7322*)
    → "Hmm... Nextaru we have a mission from the Manustery!"
  2: 0x0775 [0x23] WAIT_FOR_DIALOG_INTERACTION
  3: 0x0776 [0x1D] PRINT_EVENT_MESSAGE(message_id=7323*)
    → "The Manustery is another one of the five ministries of Windurst. Seems they need assistance in the creation of automaton guards ataru their Cardian workshop."
  4: 0x0779 [0x23] WAIT_FOR_DIALOG_INTERACTION
  5: 0x077A [0x29] REQ_SET_WAIT(priority=0x08, entity_id=Zokima-Rokima (ID: 17756171/0x010EF00B), tag_num=0x02)
  6: 0x0781 [0x29] REQ_SET_WAIT(priority=0x08, entity_id=Zokima-Rokima (ID: 17756171/0x010EF00B), tag_num=0x01)
  7: 0x0788 [0x1D] PRINT_EVENT_MESSAGE(message_id=7324*)
    → "Whataru do you reckon? Think you're up to this mission?"
  8: 0x078B [0x23] WAIT_FOR_DIALOG_INTERACTION
  9: 0x078C [0x29] REQ_SET_WAIT(priority=0x08, entity_id=Zokima-Rokima (ID: 17756171/0x010EF00B), tag_num=0x02)
 10: 0x0793 [0x00] END_REQSTACK()
```

### Event 65535.31

#### Metadata

| Field        | Value    |
|--------------|----------|
| Entrypoint   | 0x0794   |
| Data Size    | 23 bytes |
| Instructions | 7        |

```
      00 01 02 03 04 05 06 07  08 09 0A 0B 0C 0D 0E 0F
      -- -- -- -- -- -- -- --  -- -- -- -- -- -- -- --
0790:             29 08 0B F0  0E 01 01 1D 44 80 23 1D      ).......D.#.
07A0: 45 80 23 29 08 0B F0 0E  01 02 00                 E.#).......     
```

#### Opcodes

```
  0: 0x0794 [0x29] REQ_SET_WAIT(priority=0x08, entity_id=Zokima-Rokima (ID: 17756171/0x010EF00B), tag_num=0x01)
  1: 0x079B [0x1D] PRINT_EVENT_MESSAGE(message_id=7326*)
    → "Greataru! Then head to the Manustery in Windurst Woods."
  2: 0x079E [0x23] WAIT_FOR_DIALOG_INTERACTION
  3: 0x079F [0x1D] PRINT_EVENT_MESSAGE(message_id=7327*)
    → "You should be able to see a building high on the hill when you look up from the Bomingo Round in Windurst Woods. Thataru's the Manustery, otherwise known as the Cardian workshop."
  4: 0x07A2 [0x23] WAIT_FOR_DIALOG_INTERACTION
  5: 0x07A3 [0x29] REQ_SET_WAIT(priority=0x08, entity_id=Zokima-Rokima (ID: 17756171/0x010EF00B), tag_num=0x02)
  6: 0x07AA [0x00] END_REQSTACK()
```

### Event 107

#### Metadata

| Field        | Value    |
|--------------|----------|
| Entrypoint   | 0x07AB   |
| Data Size    | 33 bytes |
| Instructions | 12       |

```
      00 01 02 03 04 05 06 07  08 09 0A 0B 0C 0D 0E 0F
      -- -- -- -- -- -- -- --  -- -- -- -- -- -- -- --
07A0:                                   1E F0 FF FF 7F             .....
07B0: 6F 70 29 08 0B F0 0E 01  01 1D 46 80 23 1D 47 80  op).......F.#.G.
07C0: 23 29 08 0B F0 0E 01 02  20 00 21 00              #)...... .!.    
```

#### Opcodes

```
  0: 0x07AB [0x1E] EventEntity looks at LocalPlayer and starts talking
  1: 0x07B0 [0x6F] WAIT_FRAME_DELAY: Yield until WaitTime reaches zero
  2: 0x07B1 [0x70] WAIT_ENTITY_RENDER_FLAG: Wait while EventEntity->Render.Flags3 bit 2 is set (cancel turn if not)
  3: 0x07B2 [0x29] REQ_SET_WAIT(priority=0x08, entity_id=Zokima-Rokima (ID: 17756171/0x010EF00B), tag_num=0x01)
  4: 0x07B9 [0x1D] PRINT_EVENT_MESSAGE(message_id=7328*)
    → "Go ask the staff who work ataru the Manustery's Cardian workshop in Windurst Woods for the details of your mission."
  5: 0x07BC [0x23] WAIT_FOR_DIALOG_INTERACTION
  6: 0x07BD [0x1D] PRINT_EVENT_MESSAGE(message_id=7329*)
    → "To getaru to Windurst Woods from here, just cross the bridge and head south. Keep heading south pastaru the auction house and across the bridge there. I recommend you keep checking your map so as not to getaru lost."
  7: 0x07C0 [0x23] WAIT_FOR_DIALOG_INTERACTION
  8: 0x07C1 [0x29] REQ_SET_WAIT(priority=0x08, entity_id=Zokima-Rokima (ID: 17756171/0x010EF00B), tag_num=0x02)
  9: 0x07C8 [0x20] SET_CLI_EVENT_UC_FLAG: Unlock player control
 10: 0x07CA [0x21] END_EVENT
 11: 0x07CB [0x00] END_REQSTACK()
```

### Event 111

#### Metadata

| Field        | Value     |
|--------------|-----------|
| Entrypoint   | 0x07CC    |
| Data Size    | 246 bytes |
| Instructions | 33        |

```
      00 01 02 03 04 05 06 07  08 09 0A 0B 0C 0D 0E 0F
      -- -- -- -- -- -- -- --  -- -- -- -- -- -- -- --
07C0:                                      46 01 42 1E              F.B.
07D0: F0 FF FF 7F 6F 70 45 29  80 F8 FF FF 7F F8 FF FF  ....opE)........
07E0: 7F 66 64 6F 31 27 80 1C  2A 80 38 16 80 29 0B F0  .fdo1'..*.8..)..
07F0: FF FF 7F 1F 1E F0 FF FF  7F 6F 70 4A 0C F0 0E 01  .........opJ....
0800: F0 FF FF 7F 45 2B 80 F8  FF FF 7F F8 FF FF 7F 73  ....E+.........s
0810: 30 39 32 27 80 45 29 80  F8 FF FF 7F F8 FF FF 7F  092'.E).........
0820: 66 64 69 31 27 80 29 0B  0B F0 0E 01 2D 52 2B 80  fdi1'.).....-R+.
0830: F8 FF FF 7F F8 FF FF 7F  73 30 39 32 45 2B 80 F8  ........s092E+..
0840: FF FF 7F F8 FF FF 7F 73  30 39 33 27 80 29 0B 0B  .......s093'.)..
0850: F0 0E 01 2E 29 0B 0B F0  0E 01 2F 45 2B 80 F8 FF  ....)...../E+...
0860: FF 7F F8 FF FF 7F 73 30  39 37 27 80 29 0B 0B F0  ......s097'.)...
0870: 0E 01 30 29 0B 0B F0 0E  01 31 45 2B 80 F8 FF FF  ..0).....1E+....
0880: 7F F8 FF FF 7F 73 30 39  33 27 80 29 0B 0B F0 0E  .....s093'.)....
0890: 01 32 45 29 80 F8 FF FF  7F F8 FF FF 7F 66 64 6F  .2E).........fdo
08A0: 31 27 80 1C 2A 80 46 00  45 29 80 F8 FF FF 7F F8  1'..*.F.E)......
08B0: FF FF 7F 66 64 69 31 27  80 03 01 10 15 80 20 00  ...fdi1'...... .
08C0: 21 00                                             !.              
```

#### Opcodes

```
  0: 0x07CC [0x46] CAMERA_CONTROL: Disable user control
  1: 0x07CE [0x42] SET_CLI_EVENT_CANCEL_DATA()
  2: 0x07CF [0x1E] EventEntity looks at LocalPlayer and starts talking
  3: 0x07D4 [0x6F] WAIT_FRAME_DELAY: Yield until WaitTime reaches zero
  4: 0x07D5 [0x70] WAIT_ENTITY_RENDER_FLAG: Wait while EventEntity->Render.Flags3 bit 2 is set (cancel turn if not)
  5: 0x07D6 [0x45] LOAD_SCHEDULED_TASK: Load scheduler "fdo1" with entities [EventEntity, EventEntity], work=[200*, 0*]
  6: 0x07E7 [0x1C] WAIT(60* ticks)
  7: 0x07EA [0x38] SET_CLIENT_EVENT_MODE(mode=3*)
  8: 0x07ED [0x29] REQ_SET_WAIT(priority=0x0B, entity_id=LocalPlayer, tag_num=0x1F)
  9: 0x07F4 [0x1E] EventEntity looks at LocalPlayer and starts talking
 10: 0x07F9 [0x6F] WAIT_FRAME_DELAY: Yield until WaitTime reaches zero
 11: 0x07FA [0x70] WAIT_ENTITY_RENDER_FLAG: Wait while EventEntity->Render.Flags3 bit 2 is set (cancel turn if not)
 12: 0x07FB [0x4A] Pakke-Pokke (ID: 17756172/0x010EF00C) looks at LocalPlayer
 13: 0x0804 [0x45] LOAD_SCHEDULED_TASK: Load scheduler "s092" with entities [EventEntity, EventEntity], work=[139*, 0*]
 14: 0x0815 [0x45] LOAD_SCHEDULED_TASK: Load scheduler "fdi1" with entities [EventEntity, EventEntity], work=[200*, 0*]
 15: 0x0826 [0x29] REQ_SET_WAIT(priority=0x0B, entity_id=Zokima-Rokima (ID: 17756171/0x010EF00B), tag_num=0x2D)
 16: 0x082D [0x52] END_LOAD_SCHEDULER: End scheduler "s092" with entities [EventEntity, EventEntity], work=139*
 17: 0x083C [0x45] LOAD_SCHEDULED_TASK: Load scheduler "s093" with entities [EventEntity, EventEntity], work=[139*, 0*]
 18: 0x084D [0x29] REQ_SET_WAIT(priority=0x0B, entity_id=Zokima-Rokima (ID: 17756171/0x010EF00B), tag_num=0x2E)
 19: 0x0854 [0x29] REQ_SET_WAIT(priority=0x0B, entity_id=Zokima-Rokima (ID: 17756171/0x010EF00B), tag_num=0x2F)
 20: 0x085B [0x45] LOAD_SCHEDULED_TASK: Load scheduler "s097" with entities [EventEntity, EventEntity], work=[139*, 0*]
 21: 0x086C [0x29] REQ_SET_WAIT(priority=0x0B, entity_id=Zokima-Rokima (ID: 17756171/0x010EF00B), tag_num=0x30)
 22: 0x0873 [0x29] REQ_SET_WAIT(priority=0x0B, entity_id=Zokima-Rokima (ID: 17756171/0x010EF00B), tag_num=0x31)
 23: 0x087A [0x45] LOAD_SCHEDULED_TASK: Load scheduler "s093" with entities [EventEntity, EventEntity], work=[139*, 0*]
 24: 0x088B [0x29] REQ_SET_WAIT(priority=0x0B, entity_id=Zokima-Rokima (ID: 17756171/0x010EF00B), tag_num=0x32)
 25: 0x0892 [0x45] LOAD_SCHEDULED_TASK: Load scheduler "fdo1" with entities [EventEntity, EventEntity], work=[200*, 0*]
 26: 0x08A3 [0x1C] WAIT(60* ticks)
 27: 0x08A6 [0x46] CAMERA_CONTROL: Restore default settings
 28: 0x08A8 [0x45] LOAD_SCHEDULED_TASK: Load scheduler "fdi1" with entities [EventEntity, EventEntity], work=[200*, 0*]
 29: 0x08B9 [0x03] Work_Zone[1] = 2*
 30: 0x08BE [0x20] SET_CLI_EVENT_UC_FLAG: Unlock player control
 31: 0x08C0 [0x21] END_EVENT
 32: 0x08C1 [0x00] END_REQSTACK()
```

### Event 65535.32

#### Metadata

| Field        | Value    |
|--------------|----------|
| Entrypoint   | 0x08C2   |
| Data Size    | 23 bytes |
| Instructions | 7        |

```
      00 01 02 03 04 05 06 07  08 09 0A 0B 0C 0D 0E 0F
      -- -- -- -- -- -- -- --  -- -- -- -- -- -- -- --
08C0:       29 08 0B F0 0E 01  01 1D 48 80 23 1D 49 80    ).......H.#.I.
08D0: 23 29 08 0B F0 0E 01 02  00                       #).......       
```

#### Opcodes

```
  0: 0x08C2 [0x29] REQ_SET_WAIT(priority=0x08, entity_id=Zokima-Rokima (ID: 17756171/0x010EF00B), tag_num=0x01)
  1: 0x08C9 [0x1D] PRINT_EVENT_MESSAGE(message_id=7335*)
    → "Seems like you've settled into your life in Windurst quitarue well. I hope your fighting skills have also improved."
  2: 0x08CC [0x23] WAIT_FOR_DIALOG_INTERACTION
  3: 0x08CD [0x1D] PRINT_EVENT_MESSAGE(message_id=7336*)
    → "We've prepared this nextaru mission for someone just like you."
  4: 0x08D0 [0x23] WAIT_FOR_DIALOG_INTERACTION
  5: 0x08D1 [0x29] REQ_SET_WAIT(priority=0x08, entity_id=Zokima-Rokima (ID: 17756171/0x010EF00B), tag_num=0x02)
  6: 0x08D8 [0x00] END_REQSTACK()
```

### Event 65535.33

#### Metadata

| Field        | Value    |
|--------------|----------|
| Entrypoint   | 0x08D9   |
| Data Size    | 23 bytes |
| Instructions | 7        |

```
      00 01 02 03 04 05 06 07  08 09 0A 0B 0C 0D 0E 0F
      -- -- -- -- -- -- -- --  -- -- -- -- -- -- -- --
08D0:                             29 08 0B F0 0E 01 01           )......
08E0: 1D 4A 80 23 1D 4B 80 23  29 08 0B F0 0E 01 02 00  .J.#.K.#).......
```

#### Opcodes

```
