# 17756295 - Ildy-Goldy

## Common Data

| Field            | Value                    |
|------------------|--------------------------|
| Zone             | Windurst Walls (ID: 239) |
| Block Size       | 1140 bytes               |
| Total Events     | 56                       |
| References Count | 39                       |

## List of Events

| Event ID                   | Entrypoint   |   Size |   Instructions |
|----------------------------|--------------|--------|----------------|
| [65535](#event-65535)      | 0x0000       |      1 |              1 |
| [65535.1](#event-655351)   | 0x0001       |     16 |              2 |
| [65535.2](#event-655352)   | 0x0011       |     22 |              4 |
| [65535.3](#event-655353)   | 0x0027       |     16 |              2 |
| [65535.4](#event-655354)   | 0x0037       |     14 |              2 |
| [65535.5](#event-655355)   | 0x0045       |     16 |              2 |
| [65535.6](#event-655356)   | 0x0055       |     14 |              2 |
| [65535.7](#event-655357)   | 0x0063       |     16 |              2 |
| [65535.8](#event-655358)   | 0x0073       |     14 |              2 |
| [65535.9](#event-655359)   | 0x0081       |     16 |              2 |
| [65535.10](#event-6553510) | 0x0091       |     14 |              2 |
| [65535.11](#event-6553511) | 0x009F       |     16 |              2 |
| [65535.12](#event-6553512) | 0x00AF       |     14 |              2 |
| [65535.13](#event-6553513) | 0x00BD       |     16 |              2 |
| [65535.14](#event-6553514) | 0x00CD       |     14 |              2 |
| [65535.15](#event-6553515) | 0x00DB       |     16 |              2 |
| [65535.16](#event-6553516) | 0x00EB       |     14 |              2 |
| [65535.17](#event-6553517) | 0x00F9       |     16 |              2 |
| [65535.18](#event-6553518) | 0x0109       |     14 |              2 |
| [65535.19](#event-6553519) | 0x0117       |     16 |              2 |
| [65535.20](#event-6553520) | 0x0127       |     22 |              4 |
| [65535.21](#event-6553521) | 0x013D       |     16 |              2 |
| [65535.22](#event-6553522) | 0x014D       |     22 |              4 |
| [65535.23](#event-6553523) | 0x0163       |     16 |              2 |
| [65535.24](#event-6553524) | 0x0173       |     14 |              2 |
| [65535.25](#event-6553525) | 0x0181       |     16 |              2 |
| [65535.26](#event-6553526) | 0x0191       |     14 |              2 |
| [65535.27](#event-6553527) | 0x019F       |     16 |              2 |
| [65535.28](#event-6553528) | 0x01AF       |     14 |              2 |
| [65535.29](#event-6553529) | 0x01BD       |     16 |              2 |
| [65535.30](#event-6553530) | 0x01CD       |     14 |              2 |
| [65535.31](#event-6553531) | 0x01DB       |     13 |              3 |
| [407](#event-407)          | 0x01E8       |      1 |              1 |
| [65535.32](#event-6553532) | 0x01E9       |     10 |              2 |
| [65535.33](#event-6553533) | 0x01F3       |     21 |              7 |
| [65535.34](#event-6553534) | 0x0208       |     21 |              7 |
| [65535.35](#event-6553535) | 0x021D       |     19 |              5 |
| [65535.36](#event-6553536) | 0x0230       |      5 |              3 |
| [65535.37](#event-6553537) | 0x0235       |      5 |              3 |
| [65535.38](#event-6553538) | 0x023A       |     17 |              5 |
| [65535.39](#event-6553539) | 0x024B       |      5 |              3 |
| [65535.40](#event-6553540) | 0x0250       |      9 |              5 |
| [65535.41](#event-6553541) | 0x0259       |      5 |              3 |
| [65535.42](#event-6553542) | 0x025E       |     17 |              5 |
| [410](#event-410)          | 0x026F       |      1 |              1 |
| [65535.43](#event-6553543) | 0x0270       |     10 |              2 |
| [65535.44](#event-6553544) | 0x027A       |     14 |              4 |
| [65535.45](#event-6553545) | 0x0288       |     14 |              4 |
| [65535.46](#event-6553546) | 0x0296       |      9 |              5 |
| [65535.47](#event-6553547) | 0x029F       |      5 |              3 |
| [419](#event-419)          | 0x02A4       |      1 |              1 |
| [65535.48](#event-6553548) | 0x02A5       |     21 |              7 |
| [65535.49](#event-6553549) | 0x02BA       |      5 |              3 |
| [65535.50](#event-6553550) | 0x02BF       |     17 |              5 |
| [65535.51](#event-6553551) | 0x02D0       |      5 |              3 |
| [65535.52](#event-6553552) | 0x02D5       |     17 |              5 |

## DAT References (imed_data)

|   Index | Hex Value   |   Dec Value |
|---------|-------------|-------------|
|       0 | 0x0028      |          40 |
|       1 | 0x003C      |          60 |
|       2 | 0x002A      |          42 |
|       3 | 0x0029      |          41 |
|       4 | 0x0151      |         337 |
|       5 | 0x0155      |         341 |
|       6 | 0x0007      |           7 |
|       7 | 0xFFFE6F62  |  4294864738 |
|       8 | 0x1F7CE     |      128974 |
|       9 | 0xFFFFEA84  |  4294961796 |
|      10 | 0x0736      |        1846 |
|      11 | 0x000D      |          13 |
|      12 | 0xFFFE5ACB  |  4294859467 |
|      13 | 0x1F1B4     |      127412 |
|      14 | 0xFFFFEE6C  |  4294962796 |
|      15 | 0xFFFE55EB  |  4294858219 |
|      16 | 0x1EE5A     |      126554 |
|      17 | 0xFFFE52B0  |  4294857392 |
|      18 | 0x1F266     |      127590 |
|      19 | 0xFFFFEE6D  |  4294962797 |
|      20 | 0x22C7      |        8903 |
|      21 | 0x22CB      |        8907 |
|      22 | 0x0006      |           6 |
|      23 | 0x22CD      |        8909 |
|      24 | 0x22CF      |        8911 |
|      25 | 0x22D3      |        8915 |
|      26 | 0x22D4      |        8916 |
|      27 | 0x22D6      |        8918 |
|      28 | 0x22DB      |        8923 |
|      29 | 0x073F      |        1855 |
|      30 | 0xFFFE5203  |  4294857219 |
|      31 | 0x1F242     |      127554 |
|      32 | 0x22EC      |        8940 |
|      33 | 0x22ED      |        8941 |
|      34 | 0x22F2      |        8946 |
|      35 | 0x2310      |        8976 |
|      36 | 0x2316      |        8982 |
|      37 | 0x231A      |        8986 |
|      38 | 0x231D      |        8989 |

## String References

- **8903**: That svine is up to no good. He's using a magic doll to manipulate-vate a constant stream of adventurers into entering the crystals.
- **8907**: Avatars are generally in a deep-veep slumber, but if they are approached with the tuning forks created by the Rhinostery, they come raging forth, looking to do battle-vattle.
- **8909**: I don't really know. Something is supposed to happen, but I never felt anything...
- **8911**: Yes. But I have no idea vhy. I vould like to ask him about that, but he alvays runs from me.
- **8915**: Vhat a blast from the past. That nagging-vagging old Fuepepe continued on to the Aurastery, didn't she?
- **8916**: And let's see... Furakku-Norakku is probably half-asleep at his desk in the Optistery.
- **8918**: Ah, he's Minister Shantotto's... Vait, it's Professor Shantotto now, isn't it? Anyvay, Sunny-Pabonny was a hugey-vuge fan of hers, as I recall.
- **8923**: Coming, Principal!
- **8940**: If you defeat the avatars that reside vithin the protocrystals, then you are granted a portion-vortion of that avatar's power.
- **8941**: It appears that Uran-Mafran offers a reward to adventurers who have besty-vested the avatars, and then steals the power that they have gained.
- **8946**: ...Principal Koru-Moru, ve need to talk to Uran-Mafran directly. I vill see if I can track him down.
- **8976**: Bring somevone back to life!?
- **8982**: But if all that is true... Who on Vana'diel is Uran-Mafran trying to resurrect...?
- **8986**: Great mages of the past... You mean...
- **8989**: Of course, Principal.

## Events

### Event 65535

#### Metadata

| Field        | Value   |
|--------------|---------|
| Entrypoint   | 0x0000  |
| Data Size    | 1 bytes |
| Instructions | 1       |

```
      00 01 02 03 04 05 06 07  08 09 0A 0B 0C 0D 0E 0F
      -- -- -- -- -- -- -- --  -- -- -- -- -- -- -- --
0000: 00                                                .               
```

#### Opcodes

```
  0: 0x0000 [0x00] END_REQSTACK()
```

### Event 65535.1

#### Metadata

| Field        | Value    |
|--------------|----------|
| Entrypoint   | 0x0001   |
| Data Size    | 16 bytes |
| Instructions | 2        |

```
      00 01 02 03 04 05 06 07  08 09 0A 0B 0C 0D 0E 0F
      -- -- -- -- -- -- -- --  -- -- -- -- -- -- -- --
0000:    66 00 80 F8 FF FF 7F  F8 FF FF 7F 74 6C 6B 30   f..........tlk0
0010: 00                                                .               
```

#### Opcodes

```
  0: 0x0001 [0x66] LOAD_EXT_SCHEDULER_MAIN: Load scheduler "tlk0" with entities [EventEntity, EventEntity], work=40*
  1: 0x0010 [0x00] END_REQSTACK()
```

### Event 65535.2

#### Metadata

| Field        | Value    |
|--------------|----------|
| Entrypoint   | 0x0011   |
| Data Size    | 22 bytes |
| Instructions | 4        |

```
      00 01 02 03 04 05 06 07  08 09 0A 0B 0C 0D 0E 0F
      -- -- -- -- -- -- -- --  -- -- -- -- -- -- -- --
0010:    53 F8 FF FF 7F F8 FF  FF 7F 74 6C 6B 30 5E 69   S........tlk0^i
0020: 64 6C 30 1C 01 80 00                              dl0....         
```

#### Opcodes

```
  0: 0x0011 [0x53] WAIT_SCHEDULER_TASK: Wait for scheduler "tlk0" with entities [EventEntity, EventEntity]
  1: 0x001E [0x5E] EventEntity goes idle (kills current action) (animation: "idl0")
  2: 0x0023 [0x1C] WAIT(60* ticks)
  3: 0x0026 [0x00] END_REQSTACK()
```

### Event 65535.3

#### Metadata

| Field        | Value    |
|--------------|----------|
| Entrypoint   | 0x0027   |
| Data Size    | 16 bytes |
| Instructions | 2        |

```
      00 01 02 03 04 05 06 07  08 09 0A 0B 0C 0D 0E 0F
      -- -- -- -- -- -- -- --  -- -- -- -- -- -- -- --
0020:                      66  00 80 F8 FF FF 7F F8 FF         f........
0030: FF 7F 74 68 6B 31 00                              ..thk1.         
```

#### Opcodes

```
  0: 0x0027 [0x66] LOAD_EXT_SCHEDULER_MAIN: Load scheduler "thk1" with entities [EventEntity, EventEntity], work=40*
  1: 0x0036 [0x00] END_REQSTACK()
```

### Event 65535.4

#### Metadata

| Field        | Value    |
|--------------|----------|
| Entrypoint   | 0x0037   |
| Data Size    | 14 bytes |
| Instructions | 2        |

```
      00 01 02 03 04 05 06 07  08 09 0A 0B 0C 0D 0E 0F
      -- -- -- -- -- -- -- --  -- -- -- -- -- -- -- --
0030:                      53  F8 FF FF 7F F8 FF FF 7F         S........
0040: 74 68 6B 31 00                                    thk1.           
```

#### Opcodes

```
  0: 0x0037 [0x53] WAIT_SCHEDULER_TASK: Wait for scheduler "thk1" with entities [EventEntity, EventEntity]
  1: 0x0044 [0x00] END_REQSTACK()
```

### Event 65535.5

#### Metadata

| Field        | Value    |
|--------------|----------|
| Entrypoint   | 0x0045   |
| Data Size    | 16 bytes |
| Instructions | 2        |

```
      00 01 02 03 04 05 06 07  08 09 0A 0B 0C 0D 0E 0F
      -- -- -- -- -- -- -- --  -- -- -- -- -- -- -- --
0040:                66 00 80  F8 FF FF 7F F8 FF FF 7F       f..........
0050: 74 68 6B 32 00                                    thk2.           
```

#### Opcodes

```
  0: 0x0045 [0x66] LOAD_EXT_SCHEDULER_MAIN: Load scheduler "thk2" with entities [EventEntity, EventEntity], work=40*
  1: 0x0054 [0x00] END_REQSTACK()
```

### Event 65535.6

#### Metadata

| Field        | Value    |
|--------------|----------|
| Entrypoint   | 0x0055   |
| Data Size    | 14 bytes |
| Instructions | 2        |

```
      00 01 02 03 04 05 06 07  08 09 0A 0B 0C 0D 0E 0F
      -- -- -- -- -- -- -- --  -- -- -- -- -- -- -- --
0050:                53 F8 FF  FF 7F F8 FF FF 7F 74 68       S........th
0060: 6B 32 00                                          k2.             
```

#### Opcodes

```
  0: 0x0055 [0x53] WAIT_SCHEDULER_TASK: Wait for scheduler "thk2" with entities [EventEntity, EventEntity]
  1: 0x0062 [0x00] END_REQSTACK()
```

### Event 65535.7

#### Metadata

| Field        | Value    |
|--------------|----------|
| Entrypoint   | 0x0063   |
| Data Size    | 16 bytes |
| Instructions | 2        |

```
      00 01 02 03 04 05 06 07  08 09 0A 0B 0C 0D 0E 0F
      -- -- -- -- -- -- -- --  -- -- -- -- -- -- -- --
0060:          66 00 80 F8 FF  FF 7F F8 FF FF 7F 70 6F     f..........po
0070: 69 30 00                                          i0.             
```

#### Opcodes

```
  0: 0x0063 [0x66] LOAD_EXT_SCHEDULER_MAIN: Load scheduler "poi0" with entities [EventEntity, EventEntity], work=40*
  1: 0x0072 [0x00] END_REQSTACK()
```

### Event 65535.8

#### Metadata

| Field        | Value    |
|--------------|----------|
| Entrypoint   | 0x0073   |
| Data Size    | 14 bytes |
| Instructions | 2        |

```
      00 01 02 03 04 05 06 07  08 09 0A 0B 0C 0D 0E 0F
      -- -- -- -- -- -- -- --  -- -- -- -- -- -- -- --
0070:          53 F8 FF FF 7F  F8 FF FF 7F 70 6F 69 30     S........poi0
0080: 00                                                .               
```

#### Opcodes

```
  0: 0x0073 [0x53] WAIT_SCHEDULER_TASK: Wait for scheduler "poi0" with entities [EventEntity, EventEntity]
  1: 0x0080 [0x00] END_REQSTACK()
```

### Event 65535.9

#### Metadata

| Field        | Value    |
|--------------|----------|
| Entrypoint   | 0x0081   |
| Data Size    | 16 bytes |
| Instructions | 2        |

```
      00 01 02 03 04 05 06 07  08 09 0A 0B 0C 0D 0E 0F
      -- -- -- -- -- -- -- --  -- -- -- -- -- -- -- --
0080:    66 00 80 F8 FF FF 7F  F8 FF FF 7F 69 72 6F 30   f..........iro0
0090: 00                                                .               
```

#### Opcodes

```
  0: 0x0081 [0x66] LOAD_EXT_SCHEDULER_MAIN: Load scheduler "iro0" with entities [EventEntity, EventEntity], work=40*
  1: 0x0090 [0x00] END_REQSTACK()
```

### Event 65535.10

#### Metadata

| Field        | Value    |
|--------------|----------|
| Entrypoint   | 0x0091   |
| Data Size    | 14 bytes |
| Instructions | 2        |

```
      00 01 02 03 04 05 06 07  08 09 0A 0B 0C 0D 0E 0F
      -- -- -- -- -- -- -- --  -- -- -- -- -- -- -- --
0090:    53 F8 FF FF 7F F8 FF  FF 7F 69 72 6F 30 00      S........iro0. 
```

#### Opcodes

```
  0: 0x0091 [0x53] WAIT_SCHEDULER_TASK: Wait for scheduler "iro0" with entities [EventEntity, EventEntity]
  1: 0x009E [0x00] END_REQSTACK()
```

### Event 65535.11

#### Metadata

| Field        | Value    |
|--------------|----------|
| Entrypoint   | 0x009F   |
| Data Size    | 16 bytes |
| Instructions | 2        |

```
      00 01 02 03 04 05 06 07  08 09 0A 0B 0C 0D 0E 0F
      -- -- -- -- -- -- -- --  -- -- -- -- -- -- -- --
0090:                                               66                 f
00A0: 00 80 F8 FF FF 7F F8 FF  FF 7F 64 69 73 30 00     ..........dis0. 
```

#### Opcodes

```
  0: 0x009F [0x66] LOAD_EXT_SCHEDULER_MAIN: Load scheduler "dis0" with entities [EventEntity, EventEntity], work=40*
  1: 0x00AE [0x00] END_REQSTACK()
```

### Event 65535.12

#### Metadata

| Field        | Value    |
|--------------|----------|
| Entrypoint   | 0x00AF   |
| Data Size    | 14 bytes |
| Instructions | 2        |

```
      00 01 02 03 04 05 06 07  08 09 0A 0B 0C 0D 0E 0F
      -- -- -- -- -- -- -- --  -- -- -- -- -- -- -- --
00A0:                                               53                 S
00B0: F8 FF FF 7F F8 FF FF 7F  64 69 73 30 00           ........dis0.   
```

#### Opcodes

```
  0: 0x00AF [0x53] WAIT_SCHEDULER_TASK: Wait for scheduler "dis0" with entities [EventEntity, EventEntity]
  1: 0x00BC [0x00] END_REQSTACK()
```

### Event 65535.13

#### Metadata

| Field        | Value    |
|--------------|----------|
| Entrypoint   | 0x00BD   |
| Data Size    | 16 bytes |
| Instructions | 2        |

```
      00 01 02 03 04 05 06 07  08 09 0A 0B 0C 0D 0E 0F
      -- -- -- -- -- -- -- --  -- -- -- -- -- -- -- --
00B0:                                         66 02 80               f..
00C0: F8 FF FF 7F F8 FF FF 7F  74 65 68 30 00           ........teh0.   
```

#### Opcodes

```
  0: 0x00BD [0x66] LOAD_EXT_SCHEDULER_MAIN: Load scheduler "teh0" with entities [EventEntity, EventEntity], work=42*
  1: 0x00CC [0x00] END_REQSTACK()
```

### Event 65535.14

#### Metadata

| Field        | Value    |
|--------------|----------|
| Entrypoint   | 0x00CD   |
| Data Size    | 14 bytes |
| Instructions | 2        |

```
      00 01 02 03 04 05 06 07  08 09 0A 0B 0C 0D 0E 0F
      -- -- -- -- -- -- -- --  -- -- -- -- -- -- -- --
00C0:                                         53 F8 FF               S..
00D0: FF 7F F8 FF FF 7F 74 65  68 30 00                 ......teh0.     
```

#### Opcodes

```
  0: 0x00CD [0x53] WAIT_SCHEDULER_TASK: Wait for scheduler "teh0" with entities [EventEntity, EventEntity]
  1: 0x00DA [0x00] END_REQSTACK()
```

### Event 65535.15

#### Metadata

| Field        | Value    |
|--------------|----------|
| Entrypoint   | 0x00DB   |
| Data Size    | 16 bytes |
| Instructions | 2        |

```
      00 01 02 03 04 05 06 07  08 09 0A 0B 0C 0D 0E 0F
      -- -- -- -- -- -- -- --  -- -- -- -- -- -- -- --
00D0:                                   66 02 80 F8 FF             f....
00E0: FF 7F F8 FF FF 7F 74 65  68 31 00                 ......teh1.     
```

#### Opcodes

```
  0: 0x00DB [0x66] LOAD_EXT_SCHEDULER_MAIN: Load scheduler "teh1" with entities [EventEntity, EventEntity], work=42*
  1: 0x00EA [0x00] END_REQSTACK()
```

### Event 65535.16

#### Metadata

| Field        | Value    |
|--------------|----------|
| Entrypoint   | 0x00EB   |
| Data Size    | 14 bytes |
| Instructions | 2        |

```
      00 01 02 03 04 05 06 07  08 09 0A 0B 0C 0D 0E 0F
      -- -- -- -- -- -- -- --  -- -- -- -- -- -- -- --
00E0:                                   53 F8 FF FF 7F             S....
00F0: F8 FF FF 7F 74 65 68 31  00                       ....teh1.       
```

#### Opcodes

```
  0: 0x00EB [0x53] WAIT_SCHEDULER_TASK: Wait for scheduler "teh1" with entities [EventEntity, EventEntity]
  1: 0x00F8 [0x00] END_REQSTACK()
```

### Event 65535.17

#### Metadata

| Field        | Value    |
|--------------|----------|
| Entrypoint   | 0x00F9   |
| Data Size    | 16 bytes |
| Instructions | 2        |

```
      00 01 02 03 04 05 06 07  08 09 0A 0B 0C 0D 0E 0F
      -- -- -- -- -- -- -- --  -- -- -- -- -- -- -- --
00F0:                             66 03 80 F8 FF FF 7F           f......
0100: F8 FF FF 7F 73 68 6B 30  00                       ....shk0.       
```

#### Opcodes

```
  0: 0x00F9 [0x66] LOAD_EXT_SCHEDULER_MAIN: Load scheduler "shk0" with entities [EventEntity, EventEntity], work=41*
  1: 0x0108 [0x00] END_REQSTACK()
```

### Event 65535.18

#### Metadata

| Field        | Value    |
|--------------|----------|
| Entrypoint   | 0x0109   |
| Data Size    | 14 bytes |
| Instructions | 2        |

```
      00 01 02 03 04 05 06 07  08 09 0A 0B 0C 0D 0E 0F
      -- -- -- -- -- -- -- --  -- -- -- -- -- -- -- --
0100:                             53 F8 FF FF 7F F8 FF           S......
0110: FF 7F 73 68 6B 30 00                              ..shk0.         
```

#### Opcodes

```
  0: 0x0109 [0x53] WAIT_SCHEDULER_TASK: Wait for scheduler "shk0" with entities [EventEntity, EventEntity]
  1: 0x0116 [0x00] END_REQSTACK()
```

### Event 65535.19

#### Metadata

| Field        | Value    |
|--------------|----------|
| Entrypoint   | 0x0117   |
| Data Size    | 16 bytes |
| Instructions | 2        |

```
      00 01 02 03 04 05 06 07  08 09 0A 0B 0C 0D 0E 0F
      -- -- -- -- -- -- -- --  -- -- -- -- -- -- -- --
0110:                      66  00 80 F8 FF FF 7F F8 FF         f........
0120: FF 7F 7A 69 74 30 00                              ..zit0.         
```

#### Opcodes

```
  0: 0x0117 [0x66] LOAD_EXT_SCHEDULER_MAIN: Load scheduler "zit0" with entities [EventEntity, EventEntity], work=40*
  1: 0x0126 [0x00] END_REQSTACK()
```

### Event 65535.20

#### Metadata

| Field        | Value    |
|--------------|----------|
| Entrypoint   | 0x0127   |
| Data Size    | 22 bytes |
| Instructions | 4        |

```
      00 01 02 03 04 05 06 07  08 09 0A 0B 0C 0D 0E 0F
      -- -- -- -- -- -- -- --  -- -- -- -- -- -- -- --
0120:                      53  F8 FF FF 7F F8 FF FF 7F         S........
0130: 7A 69 74 30 5E 69 64 6C  30 1C 01 80 00           zit0^idl0....   
```

#### Opcodes

```
  0: 0x0127 [0x53] WAIT_SCHEDULER_TASK: Wait for scheduler "zit0" with entities [EventEntity, EventEntity]
  1: 0x0134 [0x5E] EventEntity goes idle (kills current action) (animation: "idl0")
  2: 0x0139 [0x1C] WAIT(60* ticks)
  3: 0x013C [0x00] END_REQSTACK()
```

### Event 65535.21

#### Metadata

| Field        | Value    |
|--------------|----------|
| Entrypoint   | 0x013D   |
| Data Size    | 16 bytes |
| Instructions | 2        |

```
      00 01 02 03 04 05 06 07  08 09 0A 0B 0C 0D 0E 0F
      -- -- -- -- -- -- -- --  -- -- -- -- -- -- -- --
0130:                                         5B 04 80               [..
0140: F8 FF FF 7F F8 FF FF 7F  67 6B 72 30 00           ........gkr0.   
```

#### Opcodes

```
  0: 0x013D [0x5B] LOAD_EXT_SCHEDULER: Load scheduler "gkr0" with entities [EventEntity, EventEntity], work=337*
  1: 0x014C [0x00] END_REQSTACK()
```

### Event 65535.22

#### Metadata

| Field        | Value    |
|--------------|----------|
| Entrypoint   | 0x014D   |
| Data Size    | 22 bytes |
| Instructions | 4        |

```
      00 01 02 03 04 05 06 07  08 09 0A 0B 0C 0D 0E 0F
      -- -- -- -- -- -- -- --  -- -- -- -- -- -- -- --
0140:                                         53 F8 FF               S..
0150: FF 7F F8 FF FF 7F 67 6B  72 30 5E 69 64 6C 30 1C  ......gkr0^idl0.
0160: 01 80 00                                          ...             
```

#### Opcodes

```
  0: 0x014D [0x53] WAIT_SCHEDULER_TASK: Wait for scheduler "gkr0" with entities [EventEntity, EventEntity]
  1: 0x015A [0x5E] EventEntity goes idle (kills current action) (animation: "idl0")
  2: 0x015F [0x1C] WAIT(60* ticks)
  3: 0x0162 [0x00] END_REQSTACK()
```

### Event 65535.23

#### Metadata

| Field        | Value    |
|--------------|----------|
| Entrypoint   | 0x0163   |
| Data Size    | 16 bytes |
| Instructions | 2        |

```
      00 01 02 03 04 05 06 07  08 09 0A 0B 0C 0D 0E 0F
      -- -- -- -- -- -- -- --  -- -- -- -- -- -- -- --
0160:          5B 05 80 F8 FF  FF 7F F8 FF FF 7F 6D 73     [..........ms
0170: 75 30 00                                          u0.             
```

#### Opcodes

```
  0: 0x0163 [0x5B] LOAD_EXT_SCHEDULER: Load scheduler "msu0" with entities [EventEntity, EventEntity], work=341*
  1: 0x0172 [0x00] END_REQSTACK()
```

### Event 65535.24

#### Metadata

| Field        | Value    |
|--------------|----------|
| Entrypoint   | 0x0173   |
| Data Size    | 14 bytes |
| Instructions | 2        |

```
      00 01 02 03 04 05 06 07  08 09 0A 0B 0C 0D 0E 0F
      -- -- -- -- -- -- -- --  -- -- -- -- -- -- -- --
0170:          53 F8 FF FF 7F  F8 FF FF 7F 6D 73 75 30     S........msu0
0180: 00                                                .               
```

#### Opcodes

```
  0: 0x0173 [0x53] WAIT_SCHEDULER_TASK: Wait for scheduler "msu0" with entities [EventEntity, EventEntity]
  1: 0x0180 [0x00] END_REQSTACK()
```

### Event 65535.25

#### Metadata

| Field        | Value    |
|--------------|----------|
| Entrypoint   | 0x0181   |
| Data Size    | 16 bytes |
| Instructions | 2        |

```
      00 01 02 03 04 05 06 07  08 09 0A 0B 0C 0D 0E 0F
      -- -- -- -- -- -- -- --  -- -- -- -- -- -- -- --
0180:    5B 05 80 F8 FF FF 7F  F8 FF FF 7F 6D 73 75 31   [..........msu1
0190: 00                                                .               
```

#### Opcodes

```
  0: 0x0181 [0x5B] LOAD_EXT_SCHEDULER: Load scheduler "msu1" with entities [EventEntity, EventEntity], work=341*
  1: 0x0190 [0x00] END_REQSTACK()
```

### Event 65535.26

#### Metadata

| Field        | Value    |
|--------------|----------|
| Entrypoint   | 0x0191   |
| Data Size    | 14 bytes |
| Instructions | 2        |

```
      00 01 02 03 04 05 06 07  08 09 0A 0B 0C 0D 0E 0F
      -- -- -- -- -- -- -- --  -- -- -- -- -- -- -- --
0190:    53 F8 FF FF 7F F8 FF  FF 7F 6D 73 75 31 00      S........msu1. 
```

#### Opcodes

```
  0: 0x0191 [0x53] WAIT_SCHEDULER_TASK: Wait for scheduler "msu1" with entities [EventEntity, EventEntity]
  1: 0x019E [0x00] END_REQSTACK()
```

### Event 65535.27

#### Metadata

| Field        | Value    |
|--------------|----------|
| Entrypoint   | 0x019F   |
| Data Size    | 16 bytes |
| Instructions | 2        |

```
      00 01 02 03 04 05 06 07  08 09 0A 0B 0C 0D 0E 0F
      -- -- -- -- -- -- -- --  -- -- -- -- -- -- -- --
0190:                                               5B                 [
01A0: 04 80 F8 FF FF 7F F8 FF  FF 7F 73 79 75 30 00     ..........syu0. 
```

#### Opcodes

```
  0: 0x019F [0x5B] LOAD_EXT_SCHEDULER: Load scheduler "syu0" with entities [EventEntity, EventEntity], work=337*
  1: 0x01AE [0x00] END_REQSTACK()
```

### Event 65535.28

#### Metadata

| Field        | Value    |
|--------------|----------|
| Entrypoint   | 0x01AF   |
| Data Size    | 14 bytes |
| Instructions | 2        |

```
      00 01 02 03 04 05 06 07  08 09 0A 0B 0C 0D 0E 0F
      -- -- -- -- -- -- -- --  -- -- -- -- -- -- -- --
01A0:                                               53                 S
01B0: F8 FF FF 7F F8 FF FF 7F  73 79 75 30 00           ........syu0.   
```

#### Opcodes

```
  0: 0x01AF [0x53] WAIT_SCHEDULER_TASK: Wait for scheduler "syu0" with entities [EventEntity, EventEntity]
  1: 0x01BC [0x00] END_REQSTACK()
```

### Event 65535.29

#### Metadata

| Field        | Value    |
|--------------|----------|
| Entrypoint   | 0x01BD   |
| Data Size    | 16 bytes |
| Instructions | 2        |

```
      00 01 02 03 04 05 06 07  08 09 0A 0B 0C 0D 0E 0F
      -- -- -- -- -- -- -- --  -- -- -- -- -- -- -- --
01B0:                                         5B 04 80               [..
01C0: F8 FF FF 7F F8 FF FF 7F  70 61 73 30 00           ........pas0.   
```

#### Opcodes

```
  0: 0x01BD [0x5B] LOAD_EXT_SCHEDULER: Load scheduler "pas0" with entities [EventEntity, EventEntity], work=337*
  1: 0x01CC [0x00] END_REQSTACK()
```

### Event 65535.30

#### Metadata

| Field        | Value    |
|--------------|----------|
| Entrypoint   | 0x01CD   |
| Data Size    | 14 bytes |
| Instructions | 2        |

```
      00 01 02 03 04 05 06 07  08 09 0A 0B 0C 0D 0E 0F
      -- -- -- -- -- -- -- --  -- -- -- -- -- -- -- --
01C0:                                         53 F8 FF               S..
01D0: FF 7F F8 FF FF 7F 70 61  73 30 00                 ......pas0.     
```

#### Opcodes

```
  0: 0x01CD [0x53] WAIT_SCHEDULER_TASK: Wait for scheduler "pas0" with entities [EventEntity, EventEntity]
  1: 0x01DA [0x00] END_REQSTACK()
```

### Event 65535.31

#### Metadata

| Field        | Value    |
|--------------|----------|
| Entrypoint   | 0x01DB   |
| Data Size    | 13 bytes |
| Instructions | 3        |

```
      00 01 02 03 04 05 06 07  08 09 0A 0B 0C 0D 0E 0F
      -- -- -- -- -- -- -- --  -- -- -- -- -- -- -- --
01D0:                                   6E F8 FF FF 7F             n....
01E0: 06 80 99 F8 FF FF 7F 00                           ........        
```

#### Opcodes

```
  0: 0x01DB [0x6E] EventEntity uses emote 7*
  1: 0x01E2 [0x99] Wait for EventEntity animation to complete
  2: 0x01E7 [0x00] END_REQSTACK()
```

### Event 407

#### Metadata

| Field        | Value   |
|--------------|---------|
| Entrypoint   | 0x01E8  |
| Data Size    | 1 bytes |
| Instructions | 1       |

```
      00 01 02 03 04 05 06 07  08 09 0A 0B 0C 0D 0E 0F
      -- -- -- -- -- -- -- --  -- -- -- -- -- -- -- --
01E0:                          00                               .       
```

#### Opcodes

```
  0: 0x01E8 [0x00] END_REQSTACK()
```

### Event 65535.32

#### Metadata

| Field        | Value    |
|--------------|----------|
| Entrypoint   | 0x01E9   |
| Data Size    | 10 bytes |
| Instructions | 2        |

```
      00 01 02 03 04 05 06 07  08 09 0A 0B 0C 0D 0E 0F
      -- -- -- -- -- -- -- --  -- -- -- -- -- -- -- --
01E0:                             37 07 80 08 80 09 80           7......
01F0: 0A 80 00                                          ...             
```

#### Opcodes

```
  0: 0x01E9 [0x37] UPDATE_EVENT_POSITION_AND_DIR: x=-102.558*, z=128.974*, y=-5.500*, direction=162.2°*
  1: 0x01F2 [0x00] END_REQSTACK()
```

### Event 65535.33

#### Metadata

| Field        | Value    |
|--------------|----------|
| Entrypoint   | 0x01F3   |
| Data Size    | 21 bytes |
| Instructions | 7        |

```
      00 01 02 03 04 05 06 07  08 09 0A 0B 0C 0D 0E 0F
      -- -- -- -- -- -- -- --  -- -- -- -- -- -- -- --
01F0:          32 0B 80 1F 00  0C 80 0D 80 0E 80 1F 01     2............
0200: 1E 89 F0 0E 01 6F 70 00                           .....op.        
```

#### Opcodes

```
  0: 0x01F3 [0x32] ExtData[1]->MainSpeed = 13* * 0.1
  1: 0x01F6 [0x1F] MOVE_ENTITY: EventEntity moves to X=-107.829*, Z=127.412*, Y=-4.500*
  2: 0x01FE [0x1F] MOVE_ENTITY: Update entity position (mode=1)
  3: 0x0200 [0x1E] EventEntity looks at Koru-Moru (ID: 17756297/0x010EF089) and starts talking
  4: 0x0205 [0x6F] WAIT_FRAME_DELAY: Yield until WaitTime reaches zero
  5: 0x0206 [0x70] WAIT_ENTITY_RENDER_FLAG: Wait while EventEntity->Render.Flags3 bit 2 is set (cancel turn if not)
  6: 0x0207 [0x00] END_REQSTACK()
```

### Event 65535.34

#### Metadata

| Field        | Value    |
|--------------|----------|
| Entrypoint   | 0x0208   |
| Data Size    | 21 bytes |
| Instructions | 7        |

```
      00 01 02 03 04 05 06 07  08 09 0A 0B 0C 0D 0E 0F
      -- -- -- -- -- -- -- --  -- -- -- -- -- -- -- --
0200:                          32 0B 80 1F 00 0F 80 10          2.......
0210: 80 0E 80 1F 01 1E 89 F0  0E 01 6F 70 00           ..........op.   
```

#### Opcodes

```
  0: 0x0208 [0x32] ExtData[1]->MainSpeed = 13* * 0.1
  1: 0x020B [0x1F] MOVE_ENTITY: EventEntity moves to X=-109.077*, Z=126.554*, Y=-4.500*
  2: 0x0213 [0x1F] MOVE_ENTITY: Update entity position (mode=1)
  3: 0x0215 [0x1E] EventEntity looks at Koru-Moru (ID: 17756297/0x010EF089) and starts talking
  4: 0x021A [0x6F] WAIT_FRAME_DELAY: Yield until WaitTime reaches zero
  5: 0x021B [0x70] WAIT_ENTITY_RENDER_FLAG: Wait while EventEntity->Render.Flags3 bit 2 is set (cancel turn if not)
  6: 0x021C [0x00] END_REQSTACK()
```

### Event 65535.35

#### Metadata

| Field        | Value    |
|--------------|----------|
| Entrypoint   | 0x021D   |
| Data Size    | 19 bytes |
| Instructions | 5        |

```
      00 01 02 03 04 05 06 07  08 09 0A 0B 0C 0D 0E 0F
      -- -- -- -- -- -- -- --  -- -- -- -- -- -- -- --
0210:                                         32 0B 80               2..
0220: 1F 00 11 80 12 80 13 80  1F 01 1E 89 F0 0E 01 00  ................
```

#### Opcodes

```
  0: 0x021D [0x32] ExtData[1]->MainSpeed = 13* * 0.1
  1: 0x0220 [0x1F] MOVE_ENTITY: EventEntity moves to X=-109.904*, Z=127.590*, Y=-4.499*
  2: 0x0228 [0x1F] MOVE_ENTITY: Update entity position (mode=1)
  3: 0x022A [0x1E] EventEntity looks at Koru-Moru (ID: 17756297/0x010EF089) and starts talking
  4: 0x022F [0x00] END_REQSTACK()
```

### Event 65535.36

#### Metadata

| Field        | Value   |
|--------------|---------|
| Entrypoint   | 0x0230  |
| Data Size    | 5 bytes |
| Instructions | 3       |

```
      00 01 02 03 04 05 06 07  08 09 0A 0B 0C 0D 0E 0F
      -- -- -- -- -- -- -- --  -- -- -- -- -- -- -- --
0230: 1D 14 80 23 00                                    ...#.           
```

#### Opcodes

```
  0: 0x0230 [0x1D] PRINT_EVENT_MESSAGE(message_id=8903*)
    → "That svine is up to no good. He's using a magic doll to manipulate-vate a constant stream of adventurers into entering the crystals."
  1: 0x0233 [0x23] WAIT_FOR_DIALOG_INTERACTION
  2: 0x0234 [0x00] END_REQSTACK()
```

### Event 65535.37

#### Metadata

| Field        | Value   |
|--------------|---------|
| Entrypoint   | 0x0235  |
| Data Size    | 5 bytes |
| Instructions | 3       |

```
      00 01 02 03 04 05 06 07  08 09 0A 0B 0C 0D 0E 0F
      -- -- -- -- -- -- -- --  -- -- -- -- -- -- -- --
0230:                1D 15 80  23 00                         ...#.      
```

#### Opcodes

```
  0: 0x0235 [0x1D] PRINT_EVENT_MESSAGE(message_id=8907*)
    → "Avatars are generally in a deep-veep slumber, but if they are approached with the tuning forks created by the Rhinostery, they come raging forth, looking to do battle-vattle."
  1: 0x0238 [0x23] WAIT_FOR_DIALOG_INTERACTION
  2: 0x0239 [0x00] END_REQSTACK()
```

### Event 65535.38

#### Metadata

| Field        | Value    |
|--------------|----------|
| Entrypoint   | 0x023A   |
| Data Size    | 17 bytes |
| Instructions | 5        |

```
      00 01 02 03 04 05 06 07  08 09 0A 0B 0C 0D 0E 0F
      -- -- -- -- -- -- -- --  -- -- -- -- -- -- -- --
0230:                                6E F8 FF FF 7F 16            n.....
0240: 80 99 F8 FF FF 7F 1D 17  80 23 00                 .........#.     
```

#### Opcodes

```
  0: 0x023A [0x6E] EventEntity uses emote 6*
  1: 0x0241 [0x99] Wait for EventEntity animation to complete
  2: 0x0246 [0x1D] PRINT_EVENT_MESSAGE(message_id=8909*)
    → "I don't really know. Something is supposed to happen, but I never felt anything..."
  3: 0x0249 [0x23] WAIT_FOR_DIALOG_INTERACTION
  4: 0x024A [0x00] END_REQSTACK()
```

### Event 65535.39

#### Metadata

| Field        | Value   |
|--------------|---------|
| Entrypoint   | 0x024B  |
| Data Size    | 5 bytes |
| Instructions | 3       |

```
      00 01 02 03 04 05 06 07  08 09 0A 0B 0C 0D 0E 0F
      -- -- -- -- -- -- -- --  -- -- -- -- -- -- -- --
0240:                                   1D 18 80 23 00             ...#.
```

#### Opcodes

```
  0: 0x024B [0x1D] PRINT_EVENT_MESSAGE(message_id=8911*)
    → "Yes. But I have no idea vhy. I vould like to ask him about that, but he alvays runs from me."
  1: 0x024E [0x23] WAIT_FOR_DIALOG_INTERACTION
  2: 0x024F [0x00] END_REQSTACK()
```

### Event 65535.40

#### Metadata

| Field        | Value   |
|--------------|---------|
| Entrypoint   | 0x0250  |
| Data Size    | 9 bytes |
| Instructions | 5       |

```
      00 01 02 03 04 05 06 07  08 09 0A 0B 0C 0D 0E 0F
      -- -- -- -- -- -- -- --  -- -- -- -- -- -- -- --
0250: 1D 19 80 23 1D 1A 80 23  00                       ...#...#.       
```

#### Opcodes

```
  0: 0x0250 [0x1D] PRINT_EVENT_MESSAGE(message_id=8915*)
    → "Vhat a blast from the past. That nagging-vagging old Fuepepe continued on to the Aurastery, didn't she?"
  1: 0x0253 [0x23] WAIT_FOR_DIALOG_INTERACTION
  2: 0x0254 [0x1D] PRINT_EVENT_MESSAGE(message_id=8916*)
    → "And let's see... Furakku-Norakku is probably half-asleep at his desk in the Optistery."
  3: 0x0257 [0x23] WAIT_FOR_DIALOG_INTERACTION
  4: 0x0258 [0x00] END_REQSTACK()
```

### Event 65535.41

#### Metadata

| Field        | Value   |
|--------------|---------|
| Entrypoint   | 0x0259  |
| Data Size    | 5 bytes |
| Instructions | 3       |

```
      00 01 02 03 04 05 06 07  08 09 0A 0B 0C 0D 0E 0F
      -- -- -- -- -- -- -- --  -- -- -- -- -- -- -- --
0250:                             1D 1B 80 23 00                 ...#.  
```

#### Opcodes

```
  0: 0x0259 [0x1D] PRINT_EVENT_MESSAGE(message_id=8918*)
    → "Ah, he's Minister Shantotto's... Vait, it's Professor Shantotto now, isn't it? Anyvay, Sunny-Pabonny was a hugey-vuge fan of hers, as I recall."
  1: 0x025C [0x23] WAIT_FOR_DIALOG_INTERACTION
  2: 0x025D [0x00] END_REQSTACK()
```

### Event 65535.42

#### Metadata

| Field        | Value    |
|--------------|----------|
| Entrypoint   | 0x025E   |
| Data Size    | 17 bytes |
| Instructions | 5        |

```
      00 01 02 03 04 05 06 07  08 09 0A 0B 0C 0D 0E 0F
      -- -- -- -- -- -- -- --  -- -- -- -- -- -- -- --
0250:                                            6E F8                n.
0260: FF FF 7F 06 80 99 F8 FF  FF 7F 1D 1C 80 23 00     .............#. 
```

#### Opcodes

```
  0: 0x025E [0x6E] EventEntity uses emote 7*
  1: 0x0265 [0x99] Wait for EventEntity animation to complete
  2: 0x026A [0x1D] PRINT_EVENT_MESSAGE(message_id=8923*)
    → "Coming, Principal!"
  3: 0x026D [0x23] WAIT_FOR_DIALOG_INTERACTION
  4: 0x026E [0x00] END_REQSTACK()
```

### Event 410

#### Metadata

| Field        | Value   |
|--------------|---------|
| Entrypoint   | 0x026F  |
| Data Size    | 1 bytes |
| Instructions | 1       |

```
      00 01 02 03 04 05 06 07  08 09 0A 0B 0C 0D 0E 0F
      -- -- -- -- -- -- -- --  -- -- -- -- -- -- -- --
0260:                                               00                 .
```

#### Opcodes

```
  0: 0x026F [0x00] END_REQSTACK()
```

### Event 65535.43

#### Metadata

| Field        | Value    |
|--------------|----------|
| Entrypoint   | 0x0270   |
| Data Size    | 10 bytes |
| Instructions | 2        |

```
      00 01 02 03 04 05 06 07  08 09 0A 0B 0C 0D 0E 0F
      -- -- -- -- -- -- -- --  -- -- -- -- -- -- -- --
0270: 37 0F 80 10 80 0E 80 1D  80 00                    7.........      
```

#### Opcodes

```
  0: 0x0270 [0x37] UPDATE_EVENT_POSITION_AND_DIR: x=-109.077*, z=126.554*, y=-4.500*, direction=163.0°*
  1: 0x0279 [0x00] END_REQSTACK()
```

### Event 65535.44

#### Metadata

| Field        | Value    |
|--------------|----------|
| Entrypoint   | 0x027A   |
| Data Size    | 14 bytes |
| Instructions | 4        |

```
      00 01 02 03 04 05 06 07  08 09 0A 0B 0C 0D 0E 0F
      -- -- -- -- -- -- -- --  -- -- -- -- -- -- -- --
0270:                                32 0B 80 1F 00 1E            2.....
0280: 80 1F 80 0E 80 1F 01 00                           ........        
```

#### Opcodes

```
  0: 0x027A [0x32] ExtData[1]->MainSpeed = 13* * 0.1
  1: 0x027D [0x1F] MOVE_ENTITY: EventEntity moves to X=-110.077*, Z=127.554*, Y=-4.500*
  2: 0x0285 [0x1F] MOVE_ENTITY: Update entity position (mode=1)
  3: 0x0287 [0x00] END_REQSTACK()
```

### Event 65535.45

#### Metadata

| Field        | Value    |
|--------------|----------|
| Entrypoint   | 0x0288   |
| Data Size    | 14 bytes |
| Instructions | 4        |

```
      00 01 02 03 04 05 06 07  08 09 0A 0B 0C 0D 0E 0F
      -- -- -- -- -- -- -- --  -- -- -- -- -- -- -- --
0280:                          32 0B 80 1F 00 07 80 08          2.......
0290: 80 09 80 1F 01 00                                 ......          
```

#### Opcodes

```
  0: 0x0288 [0x32] ExtData[1]->MainSpeed = 13* * 0.1
  1: 0x028B [0x1F] MOVE_ENTITY: EventEntity moves to X=-102.558*, Z=128.974*, Y=-5.500*
  2: 0x0293 [0x1F] MOVE_ENTITY: Update entity position (mode=1)
  3: 0x0295 [0x00] END_REQSTACK()
```

### Event 65535.46

#### Metadata

| Field        | Value   |
|--------------|---------|
| Entrypoint   | 0x0296  |
| Data Size    | 9 bytes |
| Instructions | 5       |

```
      00 01 02 03 04 05 06 07  08 09 0A 0B 0C 0D 0E 0F
      -- -- -- -- -- -- -- --  -- -- -- -- -- -- -- --
0290:                   1D 20  80 23 1D 21 80 23 00           . .#.!.#. 
```

#### Opcodes

```
  0: 0x0296 [0x1D] PRINT_EVENT_MESSAGE(message_id=8940*)
    → "If you defeat the avatars that reside vithin the protocrystals, then you are granted a portion-vortion of that avatar's power."
  1: 0x0299 [0x23] WAIT_FOR_DIALOG_INTERACTION
  2: 0x029A [0x1D] PRINT_EVENT_MESSAGE(message_id=8941*)
    → "It appears that Uran-Mafran offers a reward to adventurers who have besty-vested the avatars, and then steals the power that they have gained."
  3: 0x029D [0x23] WAIT_FOR_DIALOG_INTERACTION
  4: 0x029E [0x00] END_REQSTACK()
```

### Event 65535.47

#### Metadata

| Field        | Value   |
|--------------|---------|
| Entrypoint   | 0x029F  |
| Data Size    | 5 bytes |
| Instructions | 3       |

```
      00 01 02 03 04 05 06 07  08 09 0A 0B 0C 0D 0E 0F
      -- -- -- -- -- -- -- --  -- -- -- -- -- -- -- --
0290:                                               1D                 .
02A0: 22 80 23 00                                       ".#.            
```

#### Opcodes

```
  0: 0x029F [0x1D] PRINT_EVENT_MESSAGE(message_id=8946*)
    → "...Principal Koru-Moru, ve need to talk to Uran-Mafran directly. I vill see if I can track him down."
  1: 0x02A2 [0x23] WAIT_FOR_DIALOG_INTERACTION
  2: 0x02A3 [0x00] END_REQSTACK()
```

### Event 419

#### Metadata

| Field        | Value   |
|--------------|---------|
| Entrypoint   | 0x02A4  |
| Data Size    | 1 bytes |
| Instructions | 1       |

```
      00 01 02 03 04 05 06 07  08 09 0A 0B 0C 0D 0E 0F
      -- -- -- -- -- -- -- --  -- -- -- -- -- -- -- --
02A0:             00                                        .           
```

#### Opcodes

```
  0: 0x02A4 [0x00] END_REQSTACK()
```

### Event 65535.48

#### Metadata

| Field        | Value    |
|--------------|----------|
| Entrypoint   | 0x02A5   |
| Data Size    | 21 bytes |
| Instructions | 7        |

```
      00 01 02 03 04 05 06 07  08 09 0A 0B 0C 0D 0E 0F
      -- -- -- -- -- -- -- --  -- -- -- -- -- -- -- --
02A0:                32 0B 80  1F 00 0F 80 10 80 0E 80       2..........
02B0: 1F 01 1E 21 F0 0E 01 6F  70 00                    ...!...op.      
```

#### Opcodes

```
  0: 0x02A5 [0x32] ExtData[1]->MainSpeed = 13* * 0.1
  1: 0x02A8 [0x1F] MOVE_ENTITY: EventEntity moves to X=-109.077*, Z=126.554*, Y=-4.500*
  2: 0x02B0 [0x1F] MOVE_ENTITY: Update entity position (mode=1)
  3: 0x02B2 [0x1E] EventEntity looks at Koru-Moru (ID: 17756193/0x010EF021) and starts talking
  4: 0x02B7 [0x6F] WAIT_FRAME_DELAY: Yield until WaitTime reaches zero
  5: 0x02B8 [0x70] WAIT_ENTITY_RENDER_FLAG: Wait while EventEntity->Render.Flags3 bit 2 is set (cancel turn if not)
  6: 0x02B9 [0x00] END_REQSTACK()
```

### Event 65535.49

#### Metadata

| Field        | Value   |
|--------------|---------|
| Entrypoint   | 0x02BA  |
| Data Size    | 5 bytes |
| Instructions | 3       |

```
      00 01 02 03 04 05 06 07  08 09 0A 0B 0C 0D 0E 0F
      -- -- -- -- -- -- -- --  -- -- -- -- -- -- -- --
02B0:                                1D 23 80 23 00               .#.#. 
```

#### Opcodes

```
  0: 0x02BA [0x1D] PRINT_EVENT_MESSAGE(message_id=8976*)
    → "Bring somevone back to life!?"
  1: 0x02BD [0x23] WAIT_FOR_DIALOG_INTERACTION
  2: 0x02BE [0x00] END_REQSTACK()
```

### Event 65535.50

#### Metadata

| Field        | Value    |
|--------------|----------|
| Entrypoint   | 0x02BF   |
| Data Size    | 17 bytes |
| Instructions | 5        |

```
      00 01 02 03 04 05 06 07  08 09 0A 0B 0C 0D 0E 0F
      -- -- -- -- -- -- -- --  -- -- -- -- -- -- -- --
02B0:                                               6E                 n
02C0: F8 FF FF 7F 16 80 99 F8  FF FF 7F 1D 24 80 23 00  ............$.#.
```

#### Opcodes

```
  0: 0x02BF [0x6E] EventEntity uses emote 6*
  1: 0x02C6 [0x99] Wait for EventEntity animation to complete
  2: 0x02CB [0x1D] PRINT_EVENT_MESSAGE(message_id=8982*)
    → "But if all that is true... Who on Vana'diel is Uran-Mafran trying to resurrect...?"
  3: 0x02CE [0x23] WAIT_FOR_DIALOG_INTERACTION
  4: 0x02CF [0x00] END_REQSTACK()
```

### Event 65535.51

#### Metadata

| Field        | Value   |
|--------------|---------|
| Entrypoint   | 0x02D0  |
| Data Size    | 5 bytes |
| Instructions | 3       |

```
      00 01 02 03 04 05 06 07  08 09 0A 0B 0C 0D 0E 0F
      -- -- -- -- -- -- -- --  -- -- -- -- -- -- -- --
02D0: 1D 25 80 23 00                                    .%.#.           
```

#### Opcodes

```
  0: 0x02D0 [0x1D] PRINT_EVENT_MESSAGE(message_id=8986*)
    → "Great mages of the past... You mean..."
  1: 0x02D3 [0x23] WAIT_FOR_DIALOG_INTERACTION
  2: 0x02D4 [0x00] END_REQSTACK()
```

### Event 65535.52

#### Metadata

| Field        | Value    |
|--------------|----------|
| Entrypoint   | 0x02D5   |
| Data Size    | 17 bytes |
| Instructions | 5        |

```
      00 01 02 03 04 05 06 07  08 09 0A 0B 0C 0D 0E 0F
      -- -- -- -- -- -- -- --  -- -- -- -- -- -- -- --
02D0:                6E F8 FF  FF 7F 06 80 99 F8 FF FF       n..........
02E0: 7F 1D 26 80 23 00                                 ..&.#.          
```

#### Opcodes

```
  0: 0x02D5 [0x6E] EventEntity uses emote 7*
  1: 0x02DC [0x99] Wait for EventEntity animation to complete
  2: 0x02E1 [0x1D] PRINT_EVENT_MESSAGE(message_id=8989*)
    → "Of course, Principal."
  3: 0x02E4 [0x23] WAIT_FOR_DIALOG_INTERACTION
  4: 0x02E5 [0x00] END_REQSTACK()
```
