# 17756197 - Ambrosius

## Common Data

| Field            | Value                    |
|------------------|--------------------------|
| Zone             | Windurst Walls (ID: 239) |
| Block Size       | 1148 bytes               |
| Total Events     | 30                       |
| References Count | 38                       |

## List of Events

| Event ID                   | Entrypoint   |   Size |   Instructions |
|----------------------------|--------------|--------|----------------|
| [65535](#event-65535)      | 0x0000       |      1 |              1 |
| [65535.1](#event-655351)   | 0x0001       |     16 |              2 |
| [65535.2](#event-655352)   | 0x0011       |     22 |              4 |
| [65535.3](#event-655353)   | 0x0027       |     16 |              2 |
| [65535.4](#event-655354)   | 0x0037       |     14 |              2 |
| [65535.5](#event-655355)   | 0x0045       |     16 |              2 |
| [65535.6](#event-655356)   | 0x0055       |     14 |              2 |
| [65535.7](#event-655357)   | 0x0063       |      9 |              3 |
| [41](#event-41)            | 0x006C       |     33 |             12 |
| [11](#event-11)            | 0x008D       |      1 |              1 |
| [65535.8](#event-655358)   | 0x008E       |      1 |              1 |
| [65535.9](#event-655359)   | 0x008F       |     31 |              7 |
| [48](#event-48)            | 0x00AE       |     93 |             20 |
| [65535.10](#event-6553510) | 0x010B       |     41 |             11 |
| [65535.11](#event-6553511) | 0x0134       |      5 |              3 |
| [65535.12](#event-6553512) | 0x0139       |      5 |              3 |
| [65535.13](#event-6553513) | 0x013E       |     13 |              7 |
| [49](#event-49)            | 0x014B       |     33 |             12 |
| [52](#event-52)            | 0x016C       |     56 |             14 |
| [65535.14](#event-6553514) | 0x01A4       |      9 |              5 |
| [53](#event-53)            | 0x01AD       |     56 |             14 |
| [54](#event-54)            | 0x01E5       |     56 |             14 |
| [65535.15](#event-6553515) | 0x021D       |      9 |              5 |
| [55](#event-55)            | 0x0226       |     56 |             14 |
| [65535.16](#event-6553516) | 0x025E       |      9 |              5 |
| [56](#event-56)            | 0x0267       |     29 |             10 |
| [57](#event-57)            | 0x0284       |     53 |             15 |
| [58](#event-58)            | 0x02B9       |     53 |             15 |
| [59](#event-59)            | 0x02EE       |     53 |             15 |
| [60](#event-60)            | 0x0323       |     57 |             17 |

## DAT References (imed_data)

|   Index | Hex Value   |   Dec Value |
|---------|-------------|-------------|
|       0 | 0x00EE      |         238 |
|       1 | 0x001E      |          30 |
|       2 | 0x1C2A      |        7210 |
|       3 | 0x1C2B      |        7211 |
|       4 | 0x4ED9      |       20185 |
|       5 | 0xFFFF167E  |  4294907518 |
|       6 | 0xFFFFF62F  |  4294964783 |
|       7 | 0x0FE8      |        4072 |
|       8 | 0x000A      |          10 |
|       9 | 0xFE97      |       65175 |
|      10 | 0xFFFF0901  |  4294904065 |
|      11 | 0xFFFFF63D  |  4294964797 |
|      12 | 0x04CA      |        1226 |
|      13 | 0x1C36      |        7222 |
|      14 | 0x0000      |           0 |
|      15 | 0x0001      |           1 |
|      16 | 0x1C32      |        7218 |
|      17 | 0x1C33      |        7219 |
|      18 | 0x1C34      |        7220 |
|      19 | 0x1C35      |        7221 |
|      20 | 0x1C37      |        7223 |
|      21 | 0x1C38      |        7224 |
|      22 | 0x1C39      |        7225 |
|      23 | 0x1C3A      |        7226 |
|      24 | 0x1C3B      |        7227 |
|      25 | 0x1C3C      |        7228 |
|      26 | 0x00C9      |         201 |
|      27 | 0x1998      |        6552 |
|      28 | 0x1C3F      |        7231 |
|      29 | 0x1C40      |        7232 |
|      30 | 0x1C41      |        7233 |
|      31 | 0x1C42      |        7234 |
|      32 | 0x1C43      |        7235 |
|      33 | 0x1C44      |        7236 |
|      34 | 0x1C45      |        7237 |
|      35 | 0x1C46      |        7238 |
|      36 | 0x1C47      |        7239 |
|      37 | 0x1C48      |        7240 |

## String References

- **6552**: Obtained $0 gil.
- **7210**: This is Windurst's North Auction House. We can deliver your belongings to your home, or help you send presents to anyone in Vana'diel.
- **7211**: Our prices are most reasonable. There's no greater joy than the joy of giving, so ask one of my pretty little assistants to arrange your deliveries.
- **7218**: This is the North Auction House. We would like to transport your belongings to your home, or help you send presents to people...but...we're having problems delivering on that promise.
- **7219**: Alas... A terrible occurrence has befallen us.
- **7220**: You see, the other day, one of my deliverymen was attacked by a monster. And...we seem to have lost several of the letters he was carrying.
- **7221**: If I don't do something to retrieve the mail and deliver it to its rightful owners, the reliable name of my courier service will be ruined! Dear adventurer, would you be so kind as to help us find our lost mail?
- **7222**: Help find missing mail? [Yes./No.]
- **7223**: I see... Guess I'll have to ask someone else. Oh, where's a decent adventurer when you need one!?
- **7224**: Thank you! Thank you! Our deliveryman was ambushed where the Tahrongi Canyon meets East Sarutabaruta.
- **7225**: So if you can search high and low in both the Tahrongi Canyon and Sarutabaruta, hopefully you'll be able to find all the pieces of mail that were lost.
- **7226**: Please bring me back whatever you can find! Through rain and shine, monsters and beastmen, the mail must get through!
- **7227**: Seems that all of our deliverymen let down their guard when crossing between the Tahrongi Canyon and East Sarutabaruta. They must think they can outrun the monsters there or something.
- **7228**: Anyway, even if you find a single missing item of mail, please bring it back to me. Through rain and shine, monsters and beastmen, the mail must get through!
- **7231**: Thank you! Thank you! It's a miracle that even one of these letters came back to us safely. I had almost given up on the thought of seeing these ever again!
- **7232**: It's only a little, but please take it as a reward. We'll make sure that this mail gets delivered to the right person this time. Don't you worry about that!
- **7233**: Thank you! Thank you! You found $1 pieces of mail! I'm so glad to see these come back to me safely.
- **7234**: It's not much, but please accept this as a reward. We'll make sure that this mail gets delivered to the right person this time. Don't you worry about that!
- **7235**: Oh, thank you! Thank you! I can't believe you found four missing pieces of mail at once. Most delightful. Most delightful. Now this might not be much, but please accept it as a reward...
- **7236**: I can't wait to tell the deliveryman who was assaulted by those monsters that you found four pieces of mail! I'm sure the news will help speed up his recovery!
- **7237**: If you find any other missing pieces of mail, make sure you bring them to me. I'll do my best to make sure it's worth your while!
- **7238**: Oh, what's this? What's this? You've gone and found some more of my missing mail! Thank you! Thank you! Please accept this as your reward...
- **7239**: Oh, what's this? What's this? I can't believe you found four more missing pieces of mail. How splendid! Thank you! Oh, thank you! Here, please accept this as your well-earned reward...
- **7240**: Wait till the deliveryman who was assaulted by those monsters hears that you found four more pieces of mail! I'm sure the news will help speed up his recovery!

## Events

### Event 65535

#### Metadata

| Field        | Value   |
|--------------|---------|
| Entrypoint   | 0x0000  |
| Data Size    | 1 bytes |
| Instructions | 1       |

```
      00 01 02 03 04 05 06 07  08 09 0A 0B 0C 0D 0E 0F
      -- -- -- -- -- -- -- --  -- -- -- -- -- -- -- --
0000: 00                                                .               
```

#### Opcodes

```
  0: 0x0000 [0x00] END_REQSTACK()
```

### Event 65535.1

#### Metadata

| Field        | Value    |
|--------------|----------|
| Entrypoint   | 0x0001   |
| Data Size    | 16 bytes |
| Instructions | 2        |

```
      00 01 02 03 04 05 06 07  08 09 0A 0B 0C 0D 0E 0F
      -- -- -- -- -- -- -- --  -- -- -- -- -- -- -- --
0000:    5B 00 80 F8 FF FF 7F  F8 FF FF 7F 74 6C 6B 30   [..........tlk0
0010: 00                                                .               
```

#### Opcodes

```
  0: 0x0001 [0x5B] LOAD_EXT_SCHEDULER: Load scheduler "tlk0" with entities [EventEntity, EventEntity], work=238*
  1: 0x0010 [0x00] END_REQSTACK()
```

### Event 65535.2

#### Metadata

| Field        | Value    |
|--------------|----------|
| Entrypoint   | 0x0011   |
| Data Size    | 22 bytes |
| Instructions | 4        |

```
      00 01 02 03 04 05 06 07  08 09 0A 0B 0C 0D 0E 0F
      -- -- -- -- -- -- -- --  -- -- -- -- -- -- -- --
0010:    53 F8 FF FF 7F F8 FF  FF 7F 74 6C 6B 30 5E 69   S........tlk0^i
0020: 64 6C 30 1C 01 80 00                              dl0....         
```

#### Opcodes

```
  0: 0x0011 [0x53] WAIT_SCHEDULER_TASK: Wait for scheduler "tlk0" with entities [EventEntity, EventEntity]
  1: 0x001E [0x5E] EventEntity goes idle (kills current action) (animation: "idl0")
  2: 0x0023 [0x1C] WAIT(30* ticks)
  3: 0x0026 [0x00] END_REQSTACK()
```

### Event 65535.3

#### Metadata

| Field        | Value    |
|--------------|----------|
| Entrypoint   | 0x0027   |
| Data Size    | 16 bytes |
| Instructions | 2        |

```
      00 01 02 03 04 05 06 07  08 09 0A 0B 0C 0D 0E 0F
      -- -- -- -- -- -- -- --  -- -- -- -- -- -- -- --
0020:                      5B  00 80 F8 FF FF 7F F8 FF         [........
0030: FF 7F 74 68 6B 31 00                              ..thk1.         
```

#### Opcodes

```
  0: 0x0027 [0x5B] LOAD_EXT_SCHEDULER: Load scheduler "thk1" with entities [EventEntity, EventEntity], work=238*
  1: 0x0036 [0x00] END_REQSTACK()
```

### Event 65535.4

#### Metadata

| Field        | Value    |
|--------------|----------|
| Entrypoint   | 0x0037   |
| Data Size    | 14 bytes |
| Instructions | 2        |

```
      00 01 02 03 04 05 06 07  08 09 0A 0B 0C 0D 0E 0F
      -- -- -- -- -- -- -- --  -- -- -- -- -- -- -- --
0030:                      53  F8 FF FF 7F F8 FF FF 7F         S........
0040: 74 68 6B 31 00                                    thk1.           
```

#### Opcodes

```
  0: 0x0037 [0x53] WAIT_SCHEDULER_TASK: Wait for scheduler "thk1" with entities [EventEntity, EventEntity]
  1: 0x0044 [0x00] END_REQSTACK()
```

### Event 65535.5

#### Metadata

| Field        | Value    |
|--------------|----------|
| Entrypoint   | 0x0045   |
| Data Size    | 16 bytes |
| Instructions | 2        |

```
      00 01 02 03 04 05 06 07  08 09 0A 0B 0C 0D 0E 0F
      -- -- -- -- -- -- -- --  -- -- -- -- -- -- -- --
0040:                5B 00 80  F8 FF FF 7F F8 FF FF 7F       [..........
0050: 74 68 6B 32 00                                    thk2.           
```

#### Opcodes

```
  0: 0x0045 [0x5B] LOAD_EXT_SCHEDULER: Load scheduler "thk2" with entities [EventEntity, EventEntity], work=238*
  1: 0x0054 [0x00] END_REQSTACK()
```

### Event 65535.6

#### Metadata

| Field        | Value    |
|--------------|----------|
| Entrypoint   | 0x0055   |
| Data Size    | 14 bytes |
| Instructions | 2        |

```
      00 01 02 03 04 05 06 07  08 09 0A 0B 0C 0D 0E 0F
      -- -- -- -- -- -- -- --  -- -- -- -- -- -- -- --
0050:                53 F8 FF  FF 7F F8 FF FF 7F 74 68       S........th
0060: 6B 31 00                                          k1.             
```

#### Opcodes

```
  0: 0x0055 [0x53] WAIT_SCHEDULER_TASK: Wait for scheduler "thk1" with entities [EventEntity, EventEntity]
  1: 0x0062 [0x00] END_REQSTACK()
```

### Event 65535.7

#### Metadata

| Field        | Value   |
|--------------|---------|
| Entrypoint   | 0x0063  |
| Data Size    | 9 bytes |
| Instructions | 3       |

```
      00 01 02 03 04 05 06 07  08 09 0A 0B 0C 0D 0E 0F
      -- -- -- -- -- -- -- --  -- -- -- -- -- -- -- --
0060:          5E 69 64 6C 30  1C 01 80 00                 ^idl0....    
```

#### Opcodes

```
  0: 0x0063 [0x5E] EventEntity goes idle (kills current action) (animation: "idl0")
  1: 0x0068 [0x1C] WAIT(30* ticks)
  2: 0x006B [0x00] END_REQSTACK()
```

### Event 41

#### Metadata

| Field        | Value    |
|--------------|----------|
| Entrypoint   | 0x006C   |
| Data Size    | 33 bytes |
| Instructions | 12       |

```
      00 01 02 03 04 05 06 07  08 09 0A 0B 0C 0D 0E 0F
      -- -- -- -- -- -- -- --  -- -- -- -- -- -- -- --
0060:                                      1E F0 FF FF              ....
0070: 7F 6F 70 29 08 25 F0 0E  01 01 1D 02 80 23 1D 03  .op).%.......#..
0080: 80 23 29 08 25 F0 0E 01  02 20 00 21 00           .#).%.... .!.   
```

#### Opcodes

```
  0: 0x006C [0x1E] EventEntity looks at LocalPlayer and starts talking
  1: 0x0071 [0x6F] WAIT_FRAME_DELAY: Yield until WaitTime reaches zero
  2: 0x0072 [0x70] WAIT_ENTITY_RENDER_FLAG: Wait while EventEntity->Render.Flags3 bit 2 is set (cancel turn if not)
  3: 0x0073 [0x29] REQ_SET_WAIT(priority=0x08, entity_id=Ambrosius (ID: 17756197/0x010EF025), tag_num=0x01)
  4: 0x007A [0x1D] PRINT_EVENT_MESSAGE(message_id=7210*)
    → "This is Windurst's North Auction House. We can deliver your belongings to your home, or help you send presents to anyone in Vana'diel."
  5: 0x007D [0x23] WAIT_FOR_DIALOG_INTERACTION
  6: 0x007E [0x1D] PRINT_EVENT_MESSAGE(message_id=7211*)
    → "Our prices are most reasonable. There's no greater joy than the joy of giving, so ask one of my pretty little assistants to arrange your deliveries."
  7: 0x0081 [0x23] WAIT_FOR_DIALOG_INTERACTION
  8: 0x0082 [0x29] REQ_SET_WAIT(priority=0x08, entity_id=Ambrosius (ID: 17756197/0x010EF025), tag_num=0x02)
  9: 0x0089 [0x20] SET_CLI_EVENT_UC_FLAG: Unlock player control
 10: 0x008B [0x21] END_EVENT
 11: 0x008C [0x00] END_REQSTACK()
```

### Event 11

#### Metadata

| Field        | Value   |
|--------------|---------|
| Entrypoint   | 0x008D  |
| Data Size    | 1 bytes |
| Instructions | 1       |

```
      00 01 02 03 04 05 06 07  08 09 0A 0B 0C 0D 0E 0F
      -- -- -- -- -- -- -- --  -- -- -- -- -- -- -- --
0080:                                         00                     .  
```

#### Opcodes

```
  0: 0x008D [0x00] END_REQSTACK()
```

### Event 65535.8

#### Metadata

| Field        | Value   |
|--------------|---------|
| Entrypoint   | 0x008E  |
| Data Size    | 1 bytes |
| Instructions | 1       |

```
      00 01 02 03 04 05 06 07  08 09 0A 0B 0C 0D 0E 0F
      -- -- -- -- -- -- -- --  -- -- -- -- -- -- -- --
0080:                                            00                   . 
```

#### Opcodes

```
  0: 0x008E [0x00] END_REQSTACK()
```

### Event 65535.9

#### Metadata

| Field        | Value    |
|--------------|----------|
| Entrypoint   | 0x008F   |
| Data Size    | 31 bytes |
| Instructions | 7        |

```
      00 01 02 03 04 05 06 07  08 09 0A 0B 0C 0D 0E 0F
      -- -- -- -- -- -- -- --  -- -- -- -- -- -- -- --
0080:                                               37                 7
0090: 04 80 05 80 06 80 07 80  32 08 80 1F 00 09 80 0A  ........2.......
00A0: 80 0B 80 1F 01 6F 4B 25  F0 0E 01 0C 80 00        .....oK%......  
```

#### Opcodes

```
  0: 0x008F [0x37] UPDATE_EVENT_POSITION_AND_DIR: x=20.185*, z=-59.778*, y=-2.513*, direction=357.9°*
  1: 0x0098 [0x32] ExtData[1]->MainSpeed = 10* * 0.1
  2: 0x009B [0x1F] MOVE_ENTITY: EventEntity moves to X=65.175*, Z=-63.231*, Y=-2.499*
  3: 0x00A3 [0x1F] MOVE_ENTITY: Update entity position (mode=1)
  4: 0x00A5 [0x6F] WAIT_FRAME_DELAY: Yield until WaitTime reaches zero
  5: 0x00A6 [0x4B] UPDATE_ENTITY_YAW(entity=Ambrosius (ID: 17756197/0x010EF025), yaw=6.7°*)
  6: 0x00AD [0x00] END_REQSTACK()
```

### Event 48

#### Metadata

| Field        | Value    |
|--------------|----------|
| Entrypoint   | 0x00AE   |
| Data Size    | 93 bytes |
| Instructions | 20       |

```
      00 01 02 03 04 05 06 07  08 09 0A 0B 0C 0D 0E 0F
      -- -- -- -- -- -- -- --  -- -- -- -- -- -- -- --
00A0:                                            1E F0                ..
00B0: FF FF 7F 6F 70 29 0B 25  F0 0E 01 0D 29 08 25 F0  ...op).%....).%.
00C0: 0E 01 01 29 0B 25 F0 0E  01 0E 24 0D 80 0E 80 0E  ...).%....$.....
00D0: 80 25 02 00 10 0E 80 00  E9 00 03 01 10 0E 80 29  .%.............)
00E0: 0B 25 F0 0E 01 10 01 00  01 02 00 10 0F 80 00 00  .%..............
00F0: 01 03 01 10 0F 80 29 0B  25 F0 0E 01 0F 01 00 01  ......).%.......
0100: 29 08 25 F0 0E 01 07 20  00 21 00                 ).%.... .!.     
```

#### Opcodes

```
  0: 0x00AE [0x1E] EventEntity looks at LocalPlayer and starts talking
  1: 0x00B3 [0x6F] WAIT_FRAME_DELAY: Yield until WaitTime reaches zero
  2: 0x00B4 [0x70] WAIT_ENTITY_RENDER_FLAG: Wait while EventEntity->Render.Flags3 bit 2 is set (cancel turn if not)
  3: 0x00B5 [0x29] REQ_SET_WAIT(priority=0x0B, entity_id=Ambrosius (ID: 17756197/0x010EF025), tag_num=0x0D)
  4: 0x00BC [0x29] REQ_SET_WAIT(priority=0x08, entity_id=Ambrosius (ID: 17756197/0x010EF025), tag_num=0x01)
  5: 0x00C3 [0x29] REQ_SET_WAIT(priority=0x0B, entity_id=Ambrosius (ID: 17756197/0x010EF025), tag_num=0x0E)
  6: 0x00CA [0x24] CREATE_DIALOG(message_id=7222*, default_option=0*, option_flags=0*)
    → "Help find missing mail? [Yes./No.]"
  7: 0x00D1 [0x25] WAIT_DIALOG_SELECT()
  8: 0x00D2 [0x02] IF !(Work_Zone[0] == 0*) GOTO 0x00E9
  9: 0x00DA [0x03] Work_Zone[1] = 0*
 10: 0x00DF [0x29] REQ_SET_WAIT(priority=0x0B, entity_id=Ambrosius (ID: 17756197/0x010EF025), tag_num=0x10)
 11: 0x00E6 [0x01] GOTO 0x0100
 12: 0x00E9 [0x02] IF !(Work_Zone[0] == 1*) GOTO 0x0100
 13: 0x00F1 [0x03] Work_Zone[1] = 1*
 14: 0x00F6 [0x29] REQ_SET_WAIT(priority=0x0B, entity_id=Ambrosius (ID: 17756197/0x010EF025), tag_num=0x0F)
 15: 0x00FD [0x01] GOTO 0x0100

SUBROUTINE_0100:
 16: 0x0100 [0x29] REQ_SET_WAIT(priority=0x08, entity_id=Ambrosius (ID: 17756197/0x010EF025), tag_num=0x07)
 17: 0x0107 [0x20] SET_CLI_EVENT_UC_FLAG: Unlock player control
 18: 0x0109 [0x21] END_EVENT
 19: 0x010A [0x00] END_REQSTACK()
```

### Event 65535.10

#### Metadata

| Field        | Value    |
|--------------|----------|
| Entrypoint   | 0x010B   |
| Data Size    | 41 bytes |
| Instructions | 11       |

```
      00 01 02 03 04 05 06 07  08 09 0A 0B 0C 0D 0E 0F
      -- -- -- -- -- -- -- --  -- -- -- -- -- -- -- --
0100:                                   29 08 25 F0 0E             ).%..
0110: 01 03 1D 10 80 23 1D 11  80 23 29 08 25 F0 0E 01  .....#...#).%...
0120: 04 29 08 25 F0 0E 01 05  1D 12 80 23 29 08 25 F0  .).%.......#).%.
0130: 0E 01 06 00                                       ....            
```

#### Opcodes

```
  0: 0x010B [0x29] REQ_SET_WAIT(priority=0x08, entity_id=Ambrosius (ID: 17756197/0x010EF025), tag_num=0x03)
  1: 0x0112 [0x1D] PRINT_EVENT_MESSAGE(message_id=7218*)
    → "This is the North Auction House. We would like to transport your belongings to your home, or help you send presents to people...but...we're having problems delivering on that promise."
  2: 0x0115 [0x23] WAIT_FOR_DIALOG_INTERACTION
  3: 0x0116 [0x1D] PRINT_EVENT_MESSAGE(message_id=7219*)
    → "Alas... A terrible occurrence has befallen us."
  4: 0x0119 [0x23] WAIT_FOR_DIALOG_INTERACTION
  5: 0x011A [0x29] REQ_SET_WAIT(priority=0x08, entity_id=Ambrosius (ID: 17756197/0x010EF025), tag_num=0x04)
  6: 0x0121 [0x29] REQ_SET_WAIT(priority=0x08, entity_id=Ambrosius (ID: 17756197/0x010EF025), tag_num=0x05)
  7: 0x0128 [0x1D] PRINT_EVENT_MESSAGE(message_id=7220*)
    → "You see, the other day, one of my deliverymen was attacked by a monster. And...we seem to have lost several of the letters he was carrying."
  8: 0x012B [0x23] WAIT_FOR_DIALOG_INTERACTION
  9: 0x012C [0x29] REQ_SET_WAIT(priority=0x08, entity_id=Ambrosius (ID: 17756197/0x010EF025), tag_num=0x06)
 10: 0x0133 [0x00] END_REQSTACK()
```

### Event 65535.11

#### Metadata

| Field        | Value   |
|--------------|---------|
| Entrypoint   | 0x0134  |
| Data Size    | 5 bytes |
| Instructions | 3       |

```
      00 01 02 03 04 05 06 07  08 09 0A 0B 0C 0D 0E 0F
      -- -- -- -- -- -- -- --  -- -- -- -- -- -- -- --
0130:             1D 13 80 23  00                           ...#.       
```

#### Opcodes

```
  0: 0x0134 [0x1D] PRINT_EVENT_MESSAGE(message_id=7221*)
    → "If I don't do something to retrieve the mail and deliver it to its rightful owners, the reliable name of my courier service will be ruined! Dear adventurer, would you be so kind as to help us find our lost mail?"
  1: 0x0137 [0x23] WAIT_FOR_DIALOG_INTERACTION
  2: 0x0138 [0x00] END_REQSTACK()
```

### Event 65535.12

#### Metadata

| Field        | Value   |
|--------------|---------|
| Entrypoint   | 0x0139  |
| Data Size    | 5 bytes |
| Instructions | 3       |

```
      00 01 02 03 04 05 06 07  08 09 0A 0B 0C 0D 0E 0F
      -- -- -- -- -- -- -- --  -- -- -- -- -- -- -- --
0130:                             1D 14 80 23 00                 ...#.  
```

#### Opcodes

```
  0: 0x0139 [0x1D] PRINT_EVENT_MESSAGE(message_id=7223*)
    → "I see... Guess I'll have to ask someone else. Oh, where's a decent adventurer when you need one!?"
  1: 0x013C [0x23] WAIT_FOR_DIALOG_INTERACTION
  2: 0x013D [0x00] END_REQSTACK()
```

### Event 65535.13

#### Metadata

| Field        | Value    |
|--------------|----------|
| Entrypoint   | 0x013E   |
| Data Size    | 13 bytes |
| Instructions | 7        |

```
      00 01 02 03 04 05 06 07  08 09 0A 0B 0C 0D 0E 0F
      -- -- -- -- -- -- -- --  -- -- -- -- -- -- -- --
0130:                                            1D 15                ..
0140: 80 23 1D 16 80 23 1D 17  80 23 00                 .#...#...#.     
```

#### Opcodes

```
  0: 0x013E [0x1D] PRINT_EVENT_MESSAGE(message_id=7224*)
    → "Thank you! Thank you! Our deliveryman was ambushed where the Tahrongi Canyon meets East Sarutabaruta."
  1: 0x0141 [0x23] WAIT_FOR_DIALOG_INTERACTION
  2: 0x0142 [0x1D] PRINT_EVENT_MESSAGE(message_id=7225*)
    → "So if you can search high and low in both the Tahrongi Canyon and Sarutabaruta, hopefully you'll be able to find all the pieces of mail that were lost."
  3: 0x0145 [0x23] WAIT_FOR_DIALOG_INTERACTION
  4: 0x0146 [0x1D] PRINT_EVENT_MESSAGE(message_id=7226*)
    → "Please bring me back whatever you can find! Through rain and shine, monsters and beastmen, the mail must get through!"
  5: 0x0149 [0x23] WAIT_FOR_DIALOG_INTERACTION
  6: 0x014A [0x00] END_REQSTACK()
```

### Event 49

#### Metadata

| Field        | Value    |
|--------------|----------|
| Entrypoint   | 0x014B   |
| Data Size    | 33 bytes |
| Instructions | 12       |

```
      00 01 02 03 04 05 06 07  08 09 0A 0B 0C 0D 0E 0F
      -- -- -- -- -- -- -- --  -- -- -- -- -- -- -- --
0140:                                   1E F0 FF FF 7F             .....
0150: 6F 70 29 08 25 F0 0E 01  01 1D 18 80 23 1D 19 80  op).%.......#...
0160: 23 29 08 25 F0 0E 01 07  20 00 21 00              #).%.... .!.    
```

#### Opcodes

```
  0: 0x014B [0x1E] EventEntity looks at LocalPlayer and starts talking
  1: 0x0150 [0x6F] WAIT_FRAME_DELAY: Yield until WaitTime reaches zero
  2: 0x0151 [0x70] WAIT_ENTITY_RENDER_FLAG: Wait while EventEntity->Render.Flags3 bit 2 is set (cancel turn if not)
  3: 0x0152 [0x29] REQ_SET_WAIT(priority=0x08, entity_id=Ambrosius (ID: 17756197/0x010EF025), tag_num=0x01)
  4: 0x0159 [0x1D] PRINT_EVENT_MESSAGE(message_id=7227*)
    → "Seems that all of our deliverymen let down their guard when crossing between the Tahrongi Canyon and East Sarutabaruta. They must think they can outrun the monsters there or something."
  5: 0x015C [0x23] WAIT_FOR_DIALOG_INTERACTION
  6: 0x015D [0x1D] PRINT_EVENT_MESSAGE(message_id=7228*)
    → "Anyway, even if you find a single missing item of mail, please bring it back to me. Through rain and shine, monsters and beastmen, the mail must get through!"
  7: 0x0160 [0x23] WAIT_FOR_DIALOG_INTERACTION
  8: 0x0161 [0x29] REQ_SET_WAIT(priority=0x08, entity_id=Ambrosius (ID: 17756197/0x010EF025), tag_num=0x07)
  9: 0x0168 [0x20] SET_CLI_EVENT_UC_FLAG: Unlock player control
 10: 0x016A [0x21] END_EVENT
 11: 0x016B [0x00] END_REQSTACK()
```

### Event 52

#### Metadata

| Field        | Value    |
|--------------|----------|
| Entrypoint   | 0x016C   |
| Data Size    | 56 bytes |
| Instructions | 14       |

```
      00 01 02 03 04 05 06 07  08 09 0A 0B 0C 0D 0E 0F
      -- -- -- -- -- -- -- --  -- -- -- -- -- -- -- --
0160:                                      42 20 01 1E              B ..
0170: F0 FF FF 7F 6F 70 29 08  25 F0 0E 01 01 29 0B 25  ....op).%....).%
0180: F0 0E 01 13 29 08 25 F0  0E 01 07 45 1A 80 F0 FF  ....).%....E....
0190: FF 7F F0 FF FF 7F 71 73  74 63 0E 80 48 1B 80 2E  ......qstc..H...
01A0: 20 00 21 00                                        .!.            
```

#### Opcodes

```
  0: 0x016C [0x42] SET_CLI_EVENT_CANCEL_DATA()
  1: 0x016D [0x20] SET_CLI_EVENT_UC_FLAG: Lock player control
  2: 0x016F [0x1E] EventEntity looks at LocalPlayer and starts talking
  3: 0x0174 [0x6F] WAIT_FRAME_DELAY: Yield until WaitTime reaches zero
  4: 0x0175 [0x70] WAIT_ENTITY_RENDER_FLAG: Wait while EventEntity->Render.Flags3 bit 2 is set (cancel turn if not)
  5: 0x0176 [0x29] REQ_SET_WAIT(priority=0x08, entity_id=Ambrosius (ID: 17756197/0x010EF025), tag_num=0x01)
  6: 0x017D [0x29] REQ_SET_WAIT(priority=0x0B, entity_id=Ambrosius (ID: 17756197/0x010EF025), tag_num=0x13)
  7: 0x0184 [0x29] REQ_SET_WAIT(priority=0x08, entity_id=Ambrosius (ID: 17756197/0x010EF025), tag_num=0x07)
  8: 0x018B [0x45] LOAD_SCHEDULED_TASK: Load scheduler "qstc" with entities [LocalPlayer, LocalPlayer], work=[201*, 0*]
  9: 0x019C [0x48] [System] [6552*]:
    → "Obtained $0 gil."
 10: 0x019F [0x2E] SET_CLI_EVENT_CANCEL_FLAGS()
 11: 0x01A0 [0x20] SET_CLI_EVENT_UC_FLAG: Unlock player control
 12: 0x01A2 [0x21] END_EVENT
 13: 0x01A3 [0x00] END_REQSTACK()
```

### Event 65535.14

#### Metadata

| Field        | Value   |
|--------------|---------|
| Entrypoint   | 0x01A4  |
| Data Size    | 9 bytes |
| Instructions | 5       |

```
      00 01 02 03 04 05 06 07  08 09 0A 0B 0C 0D 0E 0F
      -- -- -- -- -- -- -- --  -- -- -- -- -- -- -- --
01A0:             1D 1C 80 23  1D 1D 80 23 00               ...#...#.   
```

#### Opcodes

```
  0: 0x01A4 [0x1D] PRINT_EVENT_MESSAGE(message_id=7231*)
    → "Thank you! Thank you! It's a miracle that even one of these letters came back to us safely. I had almost given up on the thought of seeing these ever again!"
  1: 0x01A7 [0x23] WAIT_FOR_DIALOG_INTERACTION
  2: 0x01A8 [0x1D] PRINT_EVENT_MESSAGE(message_id=7232*)
    → "It's only a little, but please take it as a reward. We'll make sure that this mail gets delivered to the right person this time. Don't you worry about that!"
  3: 0x01AB [0x23] WAIT_FOR_DIALOG_INTERACTION
  4: 0x01AC [0x00] END_REQSTACK()
```

### Event 53

#### Metadata

| Field        | Value    |
|--------------|----------|
| Entrypoint   | 0x01AD   |
| Data Size    | 56 bytes |
| Instructions | 14       |

```
      00 01 02 03 04 05 06 07  08 09 0A 0B 0C 0D 0E 0F
      -- -- -- -- -- -- -- --  -- -- -- -- -- -- -- --
01A0:                                         42 20 01               B .
01B0: 1E F0 FF FF 7F 6F 70 29  08 25 F0 0E 01 01 29 0B  .....op).%....).
01C0: 25 F0 0E 01 16 29 08 25  F0 0E 01 07 45 1A 80 F0  %....).%....E...
01D0: FF FF 7F F0 FF FF 7F 71  73 74 63 0E 80 48 1B 80  .......qstc..H..
01E0: 2E 20 00 21 00                                    . .!.           
```

#### Opcodes

```
  0: 0x01AD [0x42] SET_CLI_EVENT_CANCEL_DATA()
  1: 0x01AE [0x20] SET_CLI_EVENT_UC_FLAG: Lock player control
  2: 0x01B0 [0x1E] EventEntity looks at LocalPlayer and starts talking
  3: 0x01B5 [0x6F] WAIT_FRAME_DELAY: Yield until WaitTime reaches zero
  4: 0x01B6 [0x70] WAIT_ENTITY_RENDER_FLAG: Wait while EventEntity->Render.Flags3 bit 2 is set (cancel turn if not)
  5: 0x01B7 [0x29] REQ_SET_WAIT(priority=0x08, entity_id=Ambrosius (ID: 17756197/0x010EF025), tag_num=0x01)
  6: 0x01BE [0x29] REQ_SET_WAIT(priority=0x0B, entity_id=Ambrosius (ID: 17756197/0x010EF025), tag_num=0x16)
  7: 0x01C5 [0x29] REQ_SET_WAIT(priority=0x08, entity_id=Ambrosius (ID: 17756197/0x010EF025), tag_num=0x07)
  8: 0x01CC [0x45] LOAD_SCHEDULED_TASK: Load scheduler "qstc" with entities [LocalPlayer, LocalPlayer], work=[201*, 0*]
  9: 0x01DD [0x48] [System] [6552*]:
    → "Obtained $0 gil."
 10: 0x01E0 [0x2E] SET_CLI_EVENT_CANCEL_FLAGS()
 11: 0x01E1 [0x20] SET_CLI_EVENT_UC_FLAG: Unlock player control
 12: 0x01E3 [0x21] END_EVENT
 13: 0x01E4 [0x00] END_REQSTACK()
```

### Event 54

#### Metadata

| Field        | Value    |
|--------------|----------|
| Entrypoint   | 0x01E5   |
| Data Size    | 56 bytes |
| Instructions | 14       |

```
      00 01 02 03 04 05 06 07  08 09 0A 0B 0C 0D 0E 0F
      -- -- -- -- -- -- -- --  -- -- -- -- -- -- -- --
01E0:                42 20 01  1E F0 FF FF 7F 6F 70 29       B ......op)
01F0: 08 25 F0 0E 01 01 29 0B  25 F0 0E 01 16 29 08 25  .%....).%....).%
0200: F0 0E 01 07 45 1A 80 F0  FF FF 7F F0 FF FF 7F 71  ....E..........q
0210: 73 74 63 0E 80 48 1B 80  2E 20 00 21 00           stc..H... .!.   
```

#### Opcodes

```
  0: 0x01E5 [0x42] SET_CLI_EVENT_CANCEL_DATA()
  1: 0x01E6 [0x20] SET_CLI_EVENT_UC_FLAG: Lock player control
  2: 0x01E8 [0x1E] EventEntity looks at LocalPlayer and starts talking
  3: 0x01ED [0x6F] WAIT_FRAME_DELAY: Yield until WaitTime reaches zero
  4: 0x01EE [0x70] WAIT_ENTITY_RENDER_FLAG: Wait while EventEntity->Render.Flags3 bit 2 is set (cancel turn if not)
  5: 0x01EF [0x29] REQ_SET_WAIT(priority=0x08, entity_id=Ambrosius (ID: 17756197/0x010EF025), tag_num=0x01)
  6: 0x01F6 [0x29] REQ_SET_WAIT(priority=0x0B, entity_id=Ambrosius (ID: 17756197/0x010EF025), tag_num=0x16)
  7: 0x01FD [0x29] REQ_SET_WAIT(priority=0x08, entity_id=Ambrosius (ID: 17756197/0x010EF025), tag_num=0x07)
  8: 0x0204 [0x45] LOAD_SCHEDULED_TASK: Load scheduler "qstc" with entities [LocalPlayer, LocalPlayer], work=[201*, 0*]
  9: 0x0215 [0x48] [System] [6552*]:
    → "Obtained $0 gil."
 10: 0x0218 [0x2E] SET_CLI_EVENT_CANCEL_FLAGS()
 11: 0x0219 [0x20] SET_CLI_EVENT_UC_FLAG: Unlock player control
 12: 0x021B [0x21] END_EVENT
 13: 0x021C [0x00] END_REQSTACK()
```

### Event 65535.15

#### Metadata

| Field        | Value   |
|--------------|---------|
| Entrypoint   | 0x021D  |
| Data Size    | 9 bytes |
| Instructions | 5       |

```
      00 01 02 03 04 05 06 07  08 09 0A 0B 0C 0D 0E 0F
      -- -- -- -- -- -- -- --  -- -- -- -- -- -- -- --
0210:                                         1D 1E 80               ...
0220: 23 1D 1F 80 23 00                                 #...#.          
```

#### Opcodes

```
  0: 0x021D [0x1D] PRINT_EVENT_MESSAGE(message_id=7233*)
    → "Thank you! Thank you! You found $1 pieces of mail! I'm so glad to see these come back to me safely."
  1: 0x0220 [0x23] WAIT_FOR_DIALOG_INTERACTION
  2: 0x0221 [0x1D] PRINT_EVENT_MESSAGE(message_id=7234*)
    → "It's not much, but please accept this as a reward. We'll make sure that this mail gets delivered to the right person this time. Don't you worry about that!"
  3: 0x0224 [0x23] WAIT_FOR_DIALOG_INTERACTION
  4: 0x0225 [0x00] END_REQSTACK()
```

### Event 55

#### Metadata

| Field        | Value    |
|--------------|----------|
| Entrypoint   | 0x0226   |
| Data Size    | 56 bytes |
| Instructions | 14       |

```
      00 01 02 03 04 05 06 07  08 09 0A 0B 0C 0D 0E 0F
      -- -- -- -- -- -- -- --  -- -- -- -- -- -- -- --
0220:                   42 20  01 1E F0 FF FF 7F 6F 70        B ......op
0230: 29 08 25 F0 0E 01 01 29  0B 25 F0 0E 01 18 29 08  ).%....).%....).
0240: 25 F0 0E 01 07 45 1A 80  F0 FF FF 7F F0 FF FF 7F  %....E..........
0250: 71 73 74 63 0E 80 48 1B  80 2E 20 00 21 00        qstc..H... .!.  
```

#### Opcodes

```
  0: 0x0226 [0x42] SET_CLI_EVENT_CANCEL_DATA()
  1: 0x0227 [0x20] SET_CLI_EVENT_UC_FLAG: Lock player control
  2: 0x0229 [0x1E] EventEntity looks at LocalPlayer and starts talking
  3: 0x022E [0x6F] WAIT_FRAME_DELAY: Yield until WaitTime reaches zero
  4: 0x022F [0x70] WAIT_ENTITY_RENDER_FLAG: Wait while EventEntity->Render.Flags3 bit 2 is set (cancel turn if not)
  5: 0x0230 [0x29] REQ_SET_WAIT(priority=0x08, entity_id=Ambrosius (ID: 17756197/0x010EF025), tag_num=0x01)
  6: 0x0237 [0x29] REQ_SET_WAIT(priority=0x0B, entity_id=Ambrosius (ID: 17756197/0x010EF025), tag_num=0x18)
  7: 0x023E [0x29] REQ_SET_WAIT(priority=0x08, entity_id=Ambrosius (ID: 17756197/0x010EF025), tag_num=0x07)
  8: 0x0245 [0x45] LOAD_SCHEDULED_TASK: Load scheduler "qstc" with entities [LocalPlayer, LocalPlayer], work=[201*, 0*]
  9: 0x0256 [0x48] [System] [6552*]:
    → "Obtained $0 gil."
 10: 0x0259 [0x2E] SET_CLI_EVENT_CANCEL_FLAGS()
 11: 0x025A [0x20] SET_CLI_EVENT_UC_FLAG: Unlock player control
 12: 0x025C [0x21] END_EVENT
 13: 0x025D [0x00] END_REQSTACK()
```

### Event 65535.16

#### Metadata

| Field        | Value   |
|--------------|---------|
| Entrypoint   | 0x025E  |
| Data Size    | 9 bytes |
| Instructions | 5       |

```
      00 01 02 03 04 05 06 07  08 09 0A 0B 0C 0D 0E 0F
      -- -- -- -- -- -- -- --  -- -- -- -- -- -- -- --
0250:                                            1D 20                . 
0260: 80 23 1D 21 80 23 00                              .#.!.#.         
```

#### Opcodes

```
  0: 0x025E [0x1D] PRINT_EVENT_MESSAGE(message_id=7235*)
    → "Oh, thank you! Thank you! I can't believe you found four missing pieces of mail at once. Most delightful. Most delightful. Now this might not be much, but please accept it as a reward..."
  1: 0x0261 [0x23] WAIT_FOR_DIALOG_INTERACTION
  2: 0x0262 [0x1D] PRINT_EVENT_MESSAGE(message_id=7236*)
    → "I can't wait to tell the deliveryman who was assaulted by those monsters that you found four pieces of mail! I'm sure the news will help speed up his recovery!"
  3: 0x0265 [0x23] WAIT_FOR_DIALOG_INTERACTION
  4: 0x0266 [0x00] END_REQSTACK()
```

### Event 56

#### Metadata

| Field        | Value    |
|--------------|----------|
| Entrypoint   | 0x0267   |
| Data Size    | 29 bytes |
| Instructions | 10       |

```
      00 01 02 03 04 05 06 07  08 09 0A 0B 0C 0D 0E 0F
      -- -- -- -- -- -- -- --  -- -- -- -- -- -- -- --
0260:                      1E  F0 FF FF 7F 6F 70 29 08         .....op).
0270: 25 F0 0E 01 01 1D 22 80  23 29 08 25 F0 0E 01 07  %.....".#).%....
0280: 20 00 21 00                                        .!.            
```

#### Opcodes

```
  0: 0x0267 [0x1E] EventEntity looks at LocalPlayer and starts talking
  1: 0x026C [0x6F] WAIT_FRAME_DELAY: Yield until WaitTime reaches zero
  2: 0x026D [0x70] WAIT_ENTITY_RENDER_FLAG: Wait while EventEntity->Render.Flags3 bit 2 is set (cancel turn if not)
  3: 0x026E [0x29] REQ_SET_WAIT(priority=0x08, entity_id=Ambrosius (ID: 17756197/0x010EF025), tag_num=0x01)
  4: 0x0275 [0x1D] PRINT_EVENT_MESSAGE(message_id=7237*)
    → "If you find any other missing pieces of mail, make sure you bring them to me. I'll do my best to make sure it's worth your while!"
  5: 0x0278 [0x23] WAIT_FOR_DIALOG_INTERACTION
  6: 0x0279 [0x29] REQ_SET_WAIT(priority=0x08, entity_id=Ambrosius (ID: 17756197/0x010EF025), tag_num=0x07)
  7: 0x0280 [0x20] SET_CLI_EVENT_UC_FLAG: Unlock player control
  8: 0x0282 [0x21] END_EVENT
  9: 0x0283 [0x00] END_REQSTACK()
```

### Event 57

#### Metadata

| Field        | Value    |
|--------------|----------|
| Entrypoint   | 0x0284   |
| Data Size    | 53 bytes |
| Instructions | 15       |

```
      00 01 02 03 04 05 06 07  08 09 0A 0B 0C 0D 0E 0F
      -- -- -- -- -- -- -- --  -- -- -- -- -- -- -- --
0280:             42 20 01 1E  F0 FF FF 7F 6F 70 29 08      B ......op).
0290: 25 F0 0E 01 01 1D 23 80  23 29 08 25 F0 0E 01 07  %.....#.#).%....
02A0: 45 1A 80 F0 FF FF 7F F0  FF FF 7F 71 73 74 63 0E  E..........qstc.
02B0: 80 48 1B 80 2E 20 00 21  00                       .H... .!.       
```

#### Opcodes

```
  0: 0x0284 [0x42] SET_CLI_EVENT_CANCEL_DATA()
  1: 0x0285 [0x20] SET_CLI_EVENT_UC_FLAG: Lock player control
  2: 0x0287 [0x1E] EventEntity looks at LocalPlayer and starts talking
  3: 0x028C [0x6F] WAIT_FRAME_DELAY: Yield until WaitTime reaches zero
  4: 0x028D [0x70] WAIT_ENTITY_RENDER_FLAG: Wait while EventEntity->Render.Flags3 bit 2 is set (cancel turn if not)
  5: 0x028E [0x29] REQ_SET_WAIT(priority=0x08, entity_id=Ambrosius (ID: 17756197/0x010EF025), tag_num=0x01)
  6: 0x0295 [0x1D] PRINT_EVENT_MESSAGE(message_id=7238*)
    → "Oh, what's this? What's this? You've gone and found some more of my missing mail! Thank you! Thank you! Please accept this as your reward..."
  7: 0x0298 [0x23] WAIT_FOR_DIALOG_INTERACTION
  8: 0x0299 [0x29] REQ_SET_WAIT(priority=0x08, entity_id=Ambrosius (ID: 17756197/0x010EF025), tag_num=0x07)
  9: 0x02A0 [0x45] LOAD_SCHEDULED_TASK: Load scheduler "qstc" with entities [LocalPlayer, LocalPlayer], work=[201*, 0*]
 10: 0x02B1 [0x48] [System] [6552*]:
    → "Obtained $0 gil."
 11: 0x02B4 [0x2E] SET_CLI_EVENT_CANCEL_FLAGS()
 12: 0x02B5 [0x20] SET_CLI_EVENT_UC_FLAG: Unlock player control
 13: 0x02B7 [0x21] END_EVENT
 14: 0x02B8 [0x00] END_REQSTACK()
```

### Event 58

#### Metadata

| Field        | Value    |
|--------------|----------|
| Entrypoint   | 0x02B9   |
| Data Size    | 53 bytes |
| Instructions | 15       |

```
      00 01 02 03 04 05 06 07  08 09 0A 0B 0C 0D 0E 0F
      -- -- -- -- -- -- -- --  -- -- -- -- -- -- -- --
02B0:                             42 20 01 1E F0 FF FF           B .....
02C0: 7F 6F 70 29 08 25 F0 0E  01 01 1D 23 80 23 29 08  .op).%.....#.#).
02D0: 25 F0 0E 01 07 45 1A 80  F0 FF FF 7F F0 FF FF 7F  %....E..........
02E0: 71 73 74 63 0E 80 48 1B  80 2E 20 00 21 00        qstc..H... .!.  
```

#### Opcodes

```
  0: 0x02B9 [0x42] SET_CLI_EVENT_CANCEL_DATA()
  1: 0x02BA [0x20] SET_CLI_EVENT_UC_FLAG: Lock player control
  2: 0x02BC [0x1E] EventEntity looks at LocalPlayer and starts talking
  3: 0x02C1 [0x6F] WAIT_FRAME_DELAY: Yield until WaitTime reaches zero
  4: 0x02C2 [0x70] WAIT_ENTITY_RENDER_FLAG: Wait while EventEntity->Render.Flags3 bit 2 is set (cancel turn if not)
  5: 0x02C3 [0x29] REQ_SET_WAIT(priority=0x08, entity_id=Ambrosius (ID: 17756197/0x010EF025), tag_num=0x01)
  6: 0x02CA [0x1D] PRINT_EVENT_MESSAGE(message_id=7238*)
    → "Oh, what's this? What's this? You've gone and found some more of my missing mail! Thank you! Thank you! Please accept this as your reward..."
  7: 0x02CD [0x23] WAIT_FOR_DIALOG_INTERACTION
  8: 0x02CE [0x29] REQ_SET_WAIT(priority=0x08, entity_id=Ambrosius (ID: 17756197/0x010EF025), tag_num=0x07)
  9: 0x02D5 [0x45] LOAD_SCHEDULED_TASK: Load scheduler "qstc" with entities [LocalPlayer, LocalPlayer], work=[201*, 0*]
 10: 0x02E6 [0x48] [System] [6552*]:
    → "Obtained $0 gil."
 11: 0x02E9 [0x2E] SET_CLI_EVENT_CANCEL_FLAGS()
 12: 0x02EA [0x20] SET_CLI_EVENT_UC_FLAG: Unlock player control
 13: 0x02EC [0x21] END_EVENT
 14: 0x02ED [0x00] END_REQSTACK()
```

### Event 59

#### Metadata

| Field        | Value    |
|--------------|----------|
| Entrypoint   | 0x02EE   |
| Data Size    | 53 bytes |
| Instructions | 15       |

```
      00 01 02 03 04 05 06 07  08 09 0A 0B 0C 0D 0E 0F
      -- -- -- -- -- -- -- --  -- -- -- -- -- -- -- --
02E0:                                            42 20                B 
02F0: 01 1E F0 FF FF 7F 6F 70  29 08 25 F0 0E 01 01 1D  ......op).%.....
0300: 23 80 23 29 08 25 F0 0E  01 07 45 1A 80 F0 FF FF  #.#).%....E.....
0310: 7F F0 FF FF 7F 71 73 74  63 0E 80 48 1B 80 2E 20  .....qstc..H... 
0320: 00 21 00                                          .!.             
```

#### Opcodes

```
  0: 0x02EE [0x42] SET_CLI_EVENT_CANCEL_DATA()
  1: 0x02EF [0x20] SET_CLI_EVENT_UC_FLAG: Lock player control
  2: 0x02F1 [0x1E] EventEntity looks at LocalPlayer and starts talking
  3: 0x02F6 [0x6F] WAIT_FRAME_DELAY: Yield until WaitTime reaches zero
  4: 0x02F7 [0x70] WAIT_ENTITY_RENDER_FLAG: Wait while EventEntity->Render.Flags3 bit 2 is set (cancel turn if not)
  5: 0x02F8 [0x29] REQ_SET_WAIT(priority=0x08, entity_id=Ambrosius (ID: 17756197/0x010EF025), tag_num=0x01)
  6: 0x02FF [0x1D] PRINT_EVENT_MESSAGE(message_id=7238*)
    → "Oh, what's this? What's this? You've gone and found some more of my missing mail! Thank you! Thank you! Please accept this as your reward..."
  7: 0x0302 [0x23] WAIT_FOR_DIALOG_INTERACTION
  8: 0x0303 [0x29] REQ_SET_WAIT(priority=0x08, entity_id=Ambrosius (ID: 17756197/0x010EF025), tag_num=0x07)
  9: 0x030A [0x45] LOAD_SCHEDULED_TASK: Load scheduler "qstc" with entities [LocalPlayer, LocalPlayer], work=[201*, 0*]
 10: 0x031B [0x48] [System] [6552*]:
    → "Obtained $0 gil."
 11: 0x031E [0x2E] SET_CLI_EVENT_CANCEL_FLAGS()
 12: 0x031F [0x20] SET_CLI_EVENT_UC_FLAG: Unlock player control
 13: 0x0321 [0x21] END_EVENT
 14: 0x0322 [0x00] END_REQSTACK()
```

### Event 60

#### Metadata

| Field        | Value    |
|--------------|----------|
| Entrypoint   | 0x0323   |
| Data Size    | 57 bytes |
| Instructions | 17       |

```
      00 01 02 03 04 05 06 07  08 09 0A 0B 0C 0D 0E 0F
      -- -- -- -- -- -- -- --  -- -- -- -- -- -- -- --
0320:          42 20 01 1E F0  FF FF 7F 6F 70 29 08 25     B ......op).%
0330: F0 0E 01 01 1D 24 80 23  1D 25 80 23 29 08 25 F0  .....$.#.%.#).%.
0340: 0E 01 07 45 1A 80 F0 FF  FF 7F F0 FF FF 7F 71 73  ...E..........qs
0350: 74 63 0E 80 48 1B 80 2E  20 00 21 00              tc..H... .!.    
```

#### Opcodes

```
  0: 0x0323 [0x42] SET_CLI_EVENT_CANCEL_DATA()
  1: 0x0324 [0x20] SET_CLI_EVENT_UC_FLAG: Lock player control
  2: 0x0326 [0x1E] EventEntity looks at LocalPlayer and starts talking
  3: 0x032B [0x6F] WAIT_FRAME_DELAY: Yield until WaitTime reaches zero
  4: 0x032C [0x70] WAIT_ENTITY_RENDER_FLAG: Wait while EventEntity->Render.Flags3 bit 2 is set (cancel turn if not)
  5: 0x032D [0x29] REQ_SET_WAIT(priority=0x08, entity_id=Ambrosius (ID: 17756197/0x010EF025), tag_num=0x01)
  6: 0x0334 [0x1D] PRINT_EVENT_MESSAGE(message_id=7239*)
    → "Oh, what's this? What's this? I can't believe you found four more missing pieces of mail. How splendid! Thank you! Oh, thank you! Here, please accept this as your well-earned reward..."
  7: 0x0337 [0x23] WAIT_FOR_DIALOG_INTERACTION
  8: 0x0338 [0x1D] PRINT_EVENT_MESSAGE(message_id=7240*)
    → "Wait till the deliveryman who was assaulted by those monsters hears that you found four more pieces of mail! I'm sure the news will help speed up his recovery!"
  9: 0x033B [0x23] WAIT_FOR_DIALOG_INTERACTION
 10: 0x033C [0x29] REQ_SET_WAIT(priority=0x08, entity_id=Ambrosius (ID: 17756197/0x010EF025), tag_num=0x07)
 11: 0x0343 [0x45] LOAD_SCHEDULED_TASK: Load scheduler "qstc" with entities [LocalPlayer, LocalPlayer], work=[201*, 0*]
 12: 0x0354 [0x48] [System] [6552*]:
    → "Obtained $0 gil."
 13: 0x0357 [0x2E] SET_CLI_EVENT_CANCEL_FLAGS()
 14: 0x0358 [0x20] SET_CLI_EVENT_UC_FLAG: Unlock player control
 15: 0x035A [0x21] END_EVENT
 16: 0x035B [0x00] END_REQSTACK()
```
