# 17756180 - Gomada-Vulmada

## Common Data

| Field            | Value                    |
|------------------|--------------------------|
| Zone             | Windurst Walls (ID: 239) |
| Block Size       | 992 bytes                |
| Total Events     | 32                       |
| References Count | 69                       |

## List of Events

| Event ID                   | Entrypoint   |   Size |   Instructions |
|----------------------------|--------------|--------|----------------|
| [65535](#event-65535)      | 0x0000       |      1 |              1 |
| [65535.1](#event-655351)   | 0x0001       |     16 |              2 |
| [65535.2](#event-655352)   | 0x0011       |     22 |              4 |
| [65535.3](#event-655353)   | 0x0027       |     16 |              2 |
| [65535.4](#event-655354)   | 0x0037       |     22 |              4 |
| [65535.5](#event-655355)   | 0x004D       |     22 |              3 |
| [65535.6](#event-655356)   | 0x0063       |     20 |              3 |
| [65535.7](#event-655357)   | 0x0077       |     22 |              3 |
| [65535.8](#event-655358)   | 0x008D       |     20 |              3 |
| [65535.9](#event-655359)   | 0x00A1       |     16 |              2 |
| [65535.10](#event-6553510) | 0x00B1       |     14 |              2 |
| [65535.11](#event-6553511) | 0x00BF       |      9 |              3 |
| [288](#event-288)          | 0x00C8       |      1 |              1 |
| [65535.12](#event-6553512) | 0x00C9       |     10 |              2 |
| [65535.13](#event-6553513) | 0x00D3       |     43 |              9 |
| [65535.14](#event-6553514) | 0x00FE       |     10 |              2 |
| [65535.15](#event-6553515) | 0x0108       |     15 |              5 |
| [65535.16](#event-6553516) | 0x0117       |     10 |              2 |
| [65535.17](#event-6553517) | 0x0121       |     19 |              5 |
| [65535.18](#event-6553518) | 0x0134       |      5 |              3 |
| [289](#event-289)          | 0x0139       |      1 |              1 |
| [65535.19](#event-6553519) | 0x013A       |     10 |              2 |
| [65535.20](#event-6553520) | 0x0144       |     37 |              9 |
| [65535.21](#event-6553521) | 0x0169       |     49 |              9 |
| [65535.22](#event-6553522) | 0x019A       |     10 |              2 |
| [65535.23](#event-6553523) | 0x01A4       |     10 |              2 |
| [65535.24](#event-6553524) | 0x01AE       |     24 |              6 |
| [65535.25](#event-6553525) | 0x01C6       |     33 |              7 |
| [65535.26](#event-6553526) | 0x01E7       |     19 |              5 |
| [65535.27](#event-6553527) | 0x01FA       |     30 |              8 |
| [65535.28](#event-6553528) | 0x0218       |     17 |              6 |
| [65535.29](#event-6553529) | 0x0229       |     19 |              5 |

## DAT References (imed_data)

|   Index | Hex Value   |   Dec Value |
|---------|-------------|-------------|
|       0 | 0x0055      |          85 |
|       1 | 0x001E      |          30 |
|       2 | 0xFFFFA68E  |  4294944398 |
|       3 | 0x4093C     |      264508 |
|       4 | 0xFFFFB9B0  |  4294949296 |
|       5 | 0x0991      |        2449 |
|       6 | 0xFFFF88EE  |  4294936814 |
|       7 | 0x3C49F     |      246943 |
|       8 | 0xFFFFCF79  |  4294954873 |
|       9 | 0x0D54      |        3412 |
|      10 | 0x0015      |          21 |
|      11 | 0xFFFF8A56  |  4294937174 |
|      12 | 0x3CCA1     |      248993 |
|      13 | 0xFFFFD007  |  4294955015 |
|      14 | 0xFFFF9EAF  |  4294942383 |
|      15 | 0x3EC51     |      257105 |
|      16 | 0xFFFFCE98  |  4294954648 |
|      17 | 0xFFFFA17D  |  4294943101 |
|      18 | 0x408E8     |      264424 |
|      19 | 0x0400      |        1024 |
|      20 | 0xFFFFB33D  |  4294947645 |
|      21 | 0x42C50     |      273488 |
|      22 | 0xFFFFBBA4  |  4294949796 |
|      23 | 0xFFFF96ED  |  4294940397 |
|      24 | 0x3F03C     |      258108 |
|      25 | 0xFFFFCDCE  |  4294954446 |
|      26 | 0x0C93      |        3219 |
|      27 | 0x1E60      |        7776 |
|      28 | 0x1E6A      |        7786 |
|      29 | 0xFFFF988E  |  4294940814 |
|      30 | 0x428BB     |      272571 |
|      31 | 0xFFFFD120  |  4294955296 |
|      32 | 0x033A      |         826 |
|      33 | 0xFFFF98DC  |  4294940892 |
|      34 | 0x40986     |      264582 |
|      35 | 0xFFFFCCBC  |  4294954172 |
|      36 | 0x0C81      |        3201 |
|      37 | 0xFFFF9906  |  4294940934 |
|      38 | 0x420B6     |      270518 |
|      39 | 0xFFFF9F79  |  4294942585 |
|      40 | 0x428BE     |      272574 |
|      41 | 0x0127      |         295 |
|      42 | 0x000A      |          10 |
|      43 | 0x0064      |         100 |
|      44 | 0xFFFF8D89  |  4294937993 |
|      45 | 0x44DD3     |      282067 |
|      46 | 0xFFFFCD38  |  4294954296 |
|      47 | 0x0C92      |        3218 |
|      48 | 0xFFFF801E  |  4294934558 |
|      49 | 0x44255     |      279125 |
|      50 | 0x0A68      |        2664 |
|      51 | 0xFFFFAC4D  |  4294945869 |
|      52 | 0x44ABD     |      281277 |
|      53 | 0xFFFFCD39  |  4294954297 |
|      54 | 0xFFFF9E1A  |  4294942234 |
|      55 | 0x44795     |      280469 |
|      56 | 0x0FB5      |        4021 |
|      57 | 0x1E9B      |        7835 |
|      58 | 0xFFFF9C7D  |  4294941821 |
|      59 | 0x3FC80     |      261248 |
|      60 | 0x03F0      |        1008 |
|      61 | 0xFFFF9E6B  |  4294942315 |
|      62 | 0x3D861     |      252001 |
|      63 | 0xFFFFD01F  |  4294955039 |
|      64 | 0x05AB      |        1451 |
|      65 | 0xFFFF67E6  |  4294928358 |
|      66 | 0x3B1FD     |      242173 |
|      67 | 0xFFFFCF2D  |  4294954797 |
|      68 | 0x1EB8      |        7864 |

## String References

- **7776**: Oopsy-daisy!
- **7786**: Hi-ho Silver!
- **7835**: Phew...
- **7864**: But it was no ghosty-whosty, it was a Cardiany!

## Events

### Event 65535

#### Metadata

| Field        | Value   |
|--------------|---------|
| Entrypoint   | 0x0000  |
| Data Size    | 1 bytes |
| Instructions | 1       |

```
      00 01 02 03 04 05 06 07  08 09 0A 0B 0C 0D 0E 0F
      -- -- -- -- -- -- -- --  -- -- -- -- -- -- -- --
0000: 00                                                .               
```

#### Opcodes

```
  0: 0x0000 [0x00] END_REQSTACK()
```

### Event 65535.1

#### Metadata

| Field        | Value    |
|--------------|----------|
| Entrypoint   | 0x0001   |
| Data Size    | 16 bytes |
| Instructions | 2        |

```
      00 01 02 03 04 05 06 07  08 09 0A 0B 0C 0D 0E 0F
      -- -- -- -- -- -- -- --  -- -- -- -- -- -- -- --
0000:    5B 00 80 F8 FF FF 7F  F8 FF FF 7F 74 6C 6B 30   [..........tlk0
0010: 00                                                .               
```

#### Opcodes

```
  0: 0x0001 [0x5B] LOAD_EXT_SCHEDULER: Load scheduler "tlk0" with entities [EventEntity, EventEntity], work=85*
  1: 0x0010 [0x00] END_REQSTACK()
```

### Event 65535.2

#### Metadata

| Field        | Value    |
|--------------|----------|
| Entrypoint   | 0x0011   |
| Data Size    | 22 bytes |
| Instructions | 4        |

```
      00 01 02 03 04 05 06 07  08 09 0A 0B 0C 0D 0E 0F
      -- -- -- -- -- -- -- --  -- -- -- -- -- -- -- --
0010:    53 F8 FF FF 7F F8 FF  FF 7F 74 6C 6B 30 5E 69   S........tlk0^i
0020: 64 6C 30 1C 01 80 00                              dl0....         
```

#### Opcodes

```
  0: 0x0011 [0x53] WAIT_SCHEDULER_TASK: Wait for scheduler "tlk0" with entities [EventEntity, EventEntity]
  1: 0x001E [0x5E] EventEntity goes idle (kills current action) (animation: "idl0")
  2: 0x0023 [0x1C] WAIT(30* ticks)
  3: 0x0026 [0x00] END_REQSTACK()
```

### Event 65535.3

#### Metadata

| Field        | Value    |
|--------------|----------|
| Entrypoint   | 0x0027   |
| Data Size    | 16 bytes |
| Instructions | 2        |

```
      00 01 02 03 04 05 06 07  08 09 0A 0B 0C 0D 0E 0F
      -- -- -- -- -- -- -- --  -- -- -- -- -- -- -- --
0020:                      5B  00 80 F8 FF FF 7F F8 FF         [........
0030: FF 7F 6B 6F 77 30 00                              ..kow0.         
```

#### Opcodes

```
  0: 0x0027 [0x5B] LOAD_EXT_SCHEDULER: Load scheduler "kow0" with entities [EventEntity, EventEntity], work=85*
  1: 0x0036 [0x00] END_REQSTACK()
```

### Event 65535.4

#### Metadata

| Field        | Value    |
|--------------|----------|
| Entrypoint   | 0x0037   |
| Data Size    | 22 bytes |
| Instructions | 4        |

```
      00 01 02 03 04 05 06 07  08 09 0A 0B 0C 0D 0E 0F
      -- -- -- -- -- -- -- --  -- -- -- -- -- -- -- --
0030:                      53  F8 FF FF 7F F8 FF FF 7F         S........
0040: 6B 6F 77 30 5E 69 64 6C  30 1C 01 80 00           kow0^idl0....   
```

#### Opcodes

```
  0: 0x0037 [0x53] WAIT_SCHEDULER_TASK: Wait for scheduler "kow0" with entities [EventEntity, EventEntity]
  1: 0x0044 [0x5E] EventEntity goes idle (kills current action) (animation: "idl0")
  2: 0x0049 [0x1C] WAIT(30* ticks)
  3: 0x004C [0x00] END_REQSTACK()
```

### Event 65535.5

#### Metadata

| Field        | Value    |
|--------------|----------|
| Entrypoint   | 0x004D   |
| Data Size    | 22 bytes |
| Instructions | 3        |

```
      00 01 02 03 04 05 06 07  08 09 0A 0B 0C 0D 0E 0F
      -- -- -- -- -- -- -- --  -- -- -- -- -- -- -- --
0040:                                         7C 00 F8               |..
0050: FF FF 7F 5B 00 80 F8 FF  FF 7F F8 FF FF 7F 74 6C  ...[..........tl
0060: 6B 32 00                                          k2.             
```

#### Opcodes

```
  0: 0x004D [0x7C] EventEntity->Render.Flags2 |= 0x00
  1: 0x0053 [0x5B] LOAD_EXT_SCHEDULER: Load scheduler "tlk2" with entities [EventEntity, EventEntity], work=85*
  2: 0x0062 [0x00] END_REQSTACK()
```

### Event 65535.6

#### Metadata

| Field        | Value    |
|--------------|----------|
| Entrypoint   | 0x0063   |
| Data Size    | 20 bytes |
| Instructions | 3        |

```
      00 01 02 03 04 05 06 07  08 09 0A 0B 0C 0D 0E 0F
      -- -- -- -- -- -- -- --  -- -- -- -- -- -- -- --
0060:          53 F8 FF FF 7F  F8 FF FF 7F 74 6C 6B 32     S........tlk2
0070: 7C 01 F8 FF FF 7F 00                              |......         
```

#### Opcodes

```
  0: 0x0063 [0x53] WAIT_SCHEDULER_TASK: Wait for scheduler "tlk2" with entities [EventEntity, EventEntity]
  1: 0x0070 [0x7C] EventEntity->Render.Flags2 |= 0x01
  2: 0x0076 [0x00] END_REQSTACK()
```

### Event 65535.7

#### Metadata

| Field        | Value    |
|--------------|----------|
| Entrypoint   | 0x0077   |
| Data Size    | 22 bytes |
| Instructions | 3        |

```
      00 01 02 03 04 05 06 07  08 09 0A 0B 0C 0D 0E 0F
      -- -- -- -- -- -- -- --  -- -- -- -- -- -- -- --
0070:                      7C  00 F8 FF FF 7F 5B 00 80         |.....[..
0080: F8 FF FF 7F F8 FF FF 7F  73 75 72 30 00           ........sur0.   
```

#### Opcodes

```
  0: 0x0077 [0x7C] EventEntity->Render.Flags2 |= 0x00
  1: 0x007D [0x5B] LOAD_EXT_SCHEDULER: Load scheduler "sur0" with entities [EventEntity, EventEntity], work=85*
  2: 0x008C [0x00] END_REQSTACK()
```

### Event 65535.8

#### Metadata

| Field        | Value    |
|--------------|----------|
| Entrypoint   | 0x008D   |
| Data Size    | 20 bytes |
| Instructions | 3        |

```
      00 01 02 03 04 05 06 07  08 09 0A 0B 0C 0D 0E 0F
      -- -- -- -- -- -- -- --  -- -- -- -- -- -- -- --
0080:                                         53 F8 FF               S..
0090: FF 7F F8 FF FF 7F 73 75  72 30 7C 01 F8 FF FF 7F  ......sur0|.....
00A0: 00                                                .               
```

#### Opcodes

```
  0: 0x008D [0x53] WAIT_SCHEDULER_TASK: Wait for scheduler "sur0" with entities [EventEntity, EventEntity]
  1: 0x009A [0x7C] EventEntity->Render.Flags2 |= 0x01
  2: 0x00A0 [0x00] END_REQSTACK()
```

### Event 65535.9

#### Metadata

| Field        | Value    |
|--------------|----------|
| Entrypoint   | 0x00A1   |
| Data Size    | 16 bytes |
| Instructions | 2        |

```
      00 01 02 03 04 05 06 07  08 09 0A 0B 0C 0D 0E 0F
      -- -- -- -- -- -- -- --  -- -- -- -- -- -- -- --
00A0:    5B 00 80 F8 FF FF 7F  F8 FF FF 7F 6A 6D 70 30   [..........jmp0
00B0: 00                                                .               
```

#### Opcodes

```
  0: 0x00A1 [0x5B] LOAD_EXT_SCHEDULER: Load scheduler "jmp0" with entities [EventEntity, EventEntity], work=85*
  1: 0x00B0 [0x00] END_REQSTACK()
```

### Event 65535.10

#### Metadata

| Field        | Value    |
|--------------|----------|
| Entrypoint   | 0x00B1   |
| Data Size    | 14 bytes |
| Instructions | 2        |

```
      00 01 02 03 04 05 06 07  08 09 0A 0B 0C 0D 0E 0F
      -- -- -- -- -- -- -- --  -- -- -- -- -- -- -- --
00B0:    53 F8 FF FF 7F F8 FF  FF 7F 6A 6D 70 30 00      S........jmp0. 
```

#### Opcodes

```
  0: 0x00B1 [0x53] WAIT_SCHEDULER_TASK: Wait for scheduler "jmp0" with entities [EventEntity, EventEntity]
  1: 0x00BE [0x00] END_REQSTACK()
```

### Event 65535.11

#### Metadata

| Field        | Value   |
|--------------|---------|
| Entrypoint   | 0x00BF  |
| Data Size    | 9 bytes |
| Instructions | 3       |

```
      00 01 02 03 04 05 06 07  08 09 0A 0B 0C 0D 0E 0F
      -- -- -- -- -- -- -- --  -- -- -- -- -- -- -- --
00B0:                                               5E                 ^
00C0: 69 64 6C 30 1C 01 80 00                           idl0....        
```

#### Opcodes

```
  0: 0x00BF [0x5E] EventEntity goes idle (kills current action) (animation: "idl0")
  1: 0x00C4 [0x1C] WAIT(30* ticks)
  2: 0x00C7 [0x00] END_REQSTACK()
```

### Event 288

#### Metadata

| Field        | Value   |
|--------------|---------|
| Entrypoint   | 0x00C8  |
| Data Size    | 1 bytes |
| Instructions | 1       |

```
      00 01 02 03 04 05 06 07  08 09 0A 0B 0C 0D 0E 0F
      -- -- -- -- -- -- -- --  -- -- -- -- -- -- -- --
00C0:                          00                               .       
```

#### Opcodes

```
  0: 0x00C8 [0x00] END_REQSTACK()
```

### Event 65535.12

#### Metadata

| Field        | Value    |
|--------------|----------|
| Entrypoint   | 0x00C9   |
| Data Size    | 10 bytes |
| Instructions | 2        |

```
      00 01 02 03 04 05 06 07  08 09 0A 0B 0C 0D 0E 0F
      -- -- -- -- -- -- -- --  -- -- -- -- -- -- -- --
00C0:                             37 02 80 03 80 04 80           7......
00D0: 05 80 00                                          ...             
```

#### Opcodes

```
  0: 0x00C9 [0x37] UPDATE_EVENT_POSITION_AND_DIR: x=-22.898*, z=264.508*, y=-18.000*, direction=215.2°*
  1: 0x00D2 [0x00] END_REQSTACK()
```

### Event 65535.13

#### Metadata

| Field        | Value    |
|--------------|----------|
| Entrypoint   | 0x00D3   |
| Data Size    | 43 bytes |
| Instructions | 9        |

```
      00 01 02 03 04 05 06 07  08 09 0A 0B 0C 0D 0E 0F
      -- -- -- -- -- -- -- --  -- -- -- -- -- -- -- --
00D0:          37 06 80 07 80  08 80 09 80 32 0A 80 1F     7........2...
00E0: 00 0B 80 0C 80 0D 80 1F  01 1F 00 0E 80 0F 80 10  ................
00F0: 80 1F 01 6F 4A 14 F0 0E  01 F0 FF FF 7F 00        ...oJ.........  
```

#### Opcodes

```
  0: 0x00D3 [0x37] UPDATE_EVENT_POSITION_AND_DIR: x=-30.482*, z=246.943*, y=-12.423*, direction=299.9°*
  1: 0x00DC [0x32] ExtData[1]->MainSpeed = 21* * 0.1
  2: 0x00DF [0x1F] MOVE_ENTITY: EventEntity moves to X=-30.122*, Z=248.993*, Y=-12.281*
  3: 0x00E7 [0x1F] MOVE_ENTITY: Update entity position (mode=1)
  4: 0x00E9 [0x1F] MOVE_ENTITY: EventEntity moves to X=-24.913*, Z=257.105*, Y=-12.648*
  5: 0x00F1 [0x1F] MOVE_ENTITY: Update entity position (mode=1)
  6: 0x00F3 [0x6F] WAIT_FRAME_DELAY: Yield until WaitTime reaches zero
  7: 0x00F4 [0x4A] Gomada-Vulmada (ID: 17756180/0x010EF014) looks at LocalPlayer
  8: 0x00FD [0x00] END_REQSTACK()
```

### Event 65535.14

#### Metadata

| Field        | Value    |
|--------------|----------|
| Entrypoint   | 0x00FE   |
| Data Size    | 10 bytes |
| Instructions | 2        |

```
      00 01 02 03 04 05 06 07  08 09 0A 0B 0C 0D 0E 0F
      -- -- -- -- -- -- -- --  -- -- -- -- -- -- -- --
00F0:                                            37 11                7.
0100: 80 12 80 04 80 13 80 00                           ........        
```

#### Opcodes

```
  0: 0x00FE [0x37] UPDATE_EVENT_POSITION_AND_DIR: x=-24.195*, z=264.424*, y=-18.000*, direction=90.0°*
  1: 0x0107 [0x00] END_REQSTACK()
```

### Event 65535.15

#### Metadata

| Field        | Value    |
|--------------|----------|
| Entrypoint   | 0x0108   |
| Data Size    | 15 bytes |
| Instructions | 5        |

```
      00 01 02 03 04 05 06 07  08 09 0A 0B 0C 0D 0E 0F
      -- -- -- -- -- -- -- --  -- -- -- -- -- -- -- --
0100:                          32 0A 80 1F 00 14 80 15          2.......
0110: 80 16 80 1F 01 6F 00                              .....o.         
```

#### Opcodes

```
  0: 0x0108 [0x32] ExtData[1]->MainSpeed = 21* * 0.1
  1: 0x010B [0x1F] MOVE_ENTITY: EventEntity moves to X=-19.651*, Z=273.488*, Y=-17.500*
  2: 0x0113 [0x1F] MOVE_ENTITY: Update entity position (mode=1)
  3: 0x0115 [0x6F] WAIT_FRAME_DELAY: Yield until WaitTime reaches zero
  4: 0x0116 [0x00] END_REQSTACK()
```

### Event 65535.16

#### Metadata

| Field        | Value    |
|--------------|----------|
| Entrypoint   | 0x0117   |
| Data Size    | 10 bytes |
| Instructions | 2        |

```
      00 01 02 03 04 05 06 07  08 09 0A 0B 0C 0D 0E 0F
      -- -- -- -- -- -- -- --  -- -- -- -- -- -- -- --
0110:                      37  17 80 18 80 19 80 1A 80         7........
0120: 00                                                .               
```

#### Opcodes

```
  0: 0x0117 [0x37] UPDATE_EVENT_POSITION_AND_DIR: x=-26.899*, z=258.108*, y=-12.850*, direction=282.9°*
  1: 0x0120 [0x00] END_REQSTACK()
```

### Event 65535.17

#### Metadata

| Field        | Value    |
|--------------|----------|
| Entrypoint   | 0x0121   |
| Data Size    | 19 bytes |
| Instructions | 5        |

```
      00 01 02 03 04 05 06 07  08 09 0A 0B 0C 0D 0E 0F
      -- -- -- -- -- -- -- --  -- -- -- -- -- -- -- --
0120:    29 08 14 F0 0E 01 07  1D 1B 80 23 29 08 14 F0   ).........#)...
0130: 0E 01 08 00                                       ....            
```

#### Opcodes

```
  0: 0x0121 [0x29] REQ_SET_WAIT(priority=0x08, entity_id=Gomada-Vulmada (ID: 17756180/0x010EF014), tag_num=0x07)
  1: 0x0128 [0x1D] PRINT_EVENT_MESSAGE(message_id=7776*)
    → "Oopsy-daisy!"
  2: 0x012B [0x23] WAIT_FOR_DIALOG_INTERACTION
  3: 0x012C [0x29] REQ_SET_WAIT(priority=0x08, entity_id=Gomada-Vulmada (ID: 17756180/0x010EF014), tag_num=0x08)
  4: 0x0133 [0x00] END_REQSTACK()
```

### Event 65535.18

#### Metadata

| Field        | Value   |
|--------------|---------|
| Entrypoint   | 0x0134  |
| Data Size    | 5 bytes |
| Instructions | 3       |

```
      00 01 02 03 04 05 06 07  08 09 0A 0B 0C 0D 0E 0F
      -- -- -- -- -- -- -- --  -- -- -- -- -- -- -- --
0130:             1D 1C 80 23  00                           ...#.       
```

#### Opcodes

```
  0: 0x0134 [0x1D] PRINT_EVENT_MESSAGE(message_id=7786*)
    → "Hi-ho Silver!"
  1: 0x0137 [0x23] WAIT_FOR_DIALOG_INTERACTION
  2: 0x0138 [0x00] END_REQSTACK()
```

### Event 289

#### Metadata

| Field        | Value   |
|--------------|---------|
| Entrypoint   | 0x0139  |
| Data Size    | 1 bytes |
| Instructions | 1       |

```
      00 01 02 03 04 05 06 07  08 09 0A 0B 0C 0D 0E 0F
      -- -- -- -- -- -- -- --  -- -- -- -- -- -- -- --
0130:                             00                             .      
```

#### Opcodes

```
  0: 0x0139 [0x00] END_REQSTACK()
```

### Event 65535.19

#### Metadata

| Field        | Value    |
|--------------|----------|
| Entrypoint   | 0x013A   |
| Data Size    | 10 bytes |
| Instructions | 2        |

```
      00 01 02 03 04 05 06 07  08 09 0A 0B 0C 0D 0E 0F
      -- -- -- -- -- -- -- --  -- -- -- -- -- -- -- --
0130:                                37 1D 80 1E 80 1F            7.....
0140: 80 20 80 00                                       . ..            
```

#### Opcodes

```
  0: 0x013A [0x37] UPDATE_EVENT_POSITION_AND_DIR: x=-26.482*, z=272.571*, y=-12.000*, direction=72.6°*
  1: 0x0143 [0x00] END_REQSTACK()
```

### Event 65535.20

#### Metadata

| Field        | Value    |
|--------------|----------|
| Entrypoint   | 0x0144   |
| Data Size    | 37 bytes |
| Instructions | 9        |

```
      00 01 02 03 04 05 06 07  08 09 0A 0B 0C 0D 0E 0F
      -- -- -- -- -- -- -- --  -- -- -- -- -- -- -- --
0140:             37 21 80 22  80 23 80 24 80 32 0A 80      7!.".#.$.2..
0150: 1F 00 25 80 26 80 1F 80  1F 01 1F 00 27 80 28 80  ..%.&.......'.(.
0160: 1F 80 1F 01 6F 39 29 80  00                       ....o9)..       
```

#### Opcodes

```
  0: 0x0144 [0x37] UPDATE_EVENT_POSITION_AND_DIR: x=-26.404*, z=264.582*, y=-13.124*, direction=281.3°*
  1: 0x014D [0x32] ExtData[1]->MainSpeed = 21* * 0.1
  2: 0x0150 [0x1F] MOVE_ENTITY: EventEntity moves to X=-26.362*, Z=270.518*, Y=-12.000*
  3: 0x0158 [0x1F] MOVE_ENTITY: Update entity position (mode=1)
  4: 0x015A [0x1F] MOVE_ENTITY: EventEntity moves to X=-24.711*, Z=272.574*, Y=-12.000*
  5: 0x0162 [0x1F] MOVE_ENTITY: Update entity position (mode=1)
  6: 0x0164 [0x6F] WAIT_FRAME_DELAY: Yield until WaitTime reaches zero
  7: 0x0165 [0x39] SET_ENTITY_DIRECTION(direction=1.6°*)
  8: 0x0168 [0x00] END_REQSTACK()
```

### Event 65535.21

#### Metadata

| Field        | Value    |
|--------------|----------|
| Entrypoint   | 0x0169   |
| Data Size    | 49 bytes |
| Instructions | 9        |

```
      00 01 02 03 04 05 06 07  08 09 0A 0B 0C 0D 0E 0F
      -- -- -- -- -- -- -- --  -- -- -- -- -- -- -- --
0160:                             1C 2A 80 4A 14 F0 0E           .*.J...
0170: 01 18 F0 0E 01 1C 2B 80  4A 14 F0 0E 01 18 F0 0E  ......+.J.......
0180: 01 1C 2B 80 4A 14 F0 0E  01 18 F0 0E 01 1C 2B 80  ..+.J.........+.
0190: 4A 14 F0 0E 01 18 F0 0E  01 00                    J.........      
```

#### Opcodes

```
  0: 0x0169 [0x1C] WAIT(10* ticks)
  1: 0x016C [0x4A] Gomada-Vulmada (ID: 17756180/0x010EF014) looks at Nanaa Mihgo (ID: 17756184/0x010EF018)
  2: 0x0175 [0x1C] WAIT(100* ticks)
  3: 0x0178 [0x4A] Gomada-Vulmada (ID: 17756180/0x010EF014) looks at Nanaa Mihgo (ID: 17756184/0x010EF018)
  4: 0x0181 [0x1C] WAIT(100* ticks)
  5: 0x0184 [0x4A] Gomada-Vulmada (ID: 17756180/0x010EF014) looks at Nanaa Mihgo (ID: 17756184/0x010EF018)
  6: 0x018D [0x1C] WAIT(100* ticks)
  7: 0x0190 [0x4A] Gomada-Vulmada (ID: 17756180/0x010EF014) looks at Nanaa Mihgo (ID: 17756184/0x010EF018)
  8: 0x0199 [0x00] END_REQSTACK()
```

### Event 65535.22

#### Metadata

| Field        | Value    |
|--------------|----------|
| Entrypoint   | 0x019A   |
| Data Size    | 10 bytes |
| Instructions | 2        |

```
      00 01 02 03 04 05 06 07  08 09 0A 0B 0C 0D 0E 0F
      -- -- -- -- -- -- -- --  -- -- -- -- -- -- -- --
0190:                                37 2C 80 2D 80 2E            7,.-..
01A0: 80 2F 80 00                                       ./..            
```

#### Opcodes

```
  0: 0x019A [0x37] UPDATE_EVENT_POSITION_AND_DIR: x=-29.303*, z=282.067*, y=-13.000*, direction=282.8°*
  1: 0x01A3 [0x00] END_REQSTACK()
```

### Event 65535.23

#### Metadata

| Field        | Value    |
|--------------|----------|
| Entrypoint   | 0x01A4   |
| Data Size    | 10 bytes |
| Instructions | 2        |

```
      00 01 02 03 04 05 06 07  08 09 0A 0B 0C 0D 0E 0F
      -- -- -- -- -- -- -- --  -- -- -- -- -- -- -- --
01A0:             37 30 80 31  80 2E 80 32 80 00            70.1...2..  
```

#### Opcodes

```
  0: 0x01A4 [0x37] UPDATE_EVENT_POSITION_AND_DIR: x=-32.738*, z=279.125*, y=-13.000*, direction=234.1°*
  1: 0x01AD [0x00] END_REQSTACK()
```

### Event 65535.24

#### Metadata

| Field        | Value    |
|--------------|----------|
| Entrypoint   | 0x01AE   |
| Data Size    | 24 bytes |
| Instructions | 6        |

```
      00 01 02 03 04 05 06 07  08 09 0A 0B 0C 0D 0E 0F
      -- -- -- -- -- -- -- --  -- -- -- -- -- -- -- --
01A0:                                            32 0A                2.
01B0: 80 1F 00 33 80 34 80 35  80 1F 01 6F 4A 14 F0 0E  ...3.4.5...oJ...
01C0: 01 13 F0 0E 01 00                                 ......          
```

#### Opcodes

```
  0: 0x01AE [0x32] ExtData[1]->MainSpeed = 21* * 0.1
  1: 0x01B1 [0x1F] MOVE_ENTITY: EventEntity moves to X=-21.427*, Z=281.277*, Y=-12.999*
  2: 0x01B9 [0x1F] MOVE_ENTITY: Update entity position (mode=1)
  3: 0x01BB [0x6F] WAIT_FRAME_DELAY: Yield until WaitTime reaches zero
  4: 0x01BC [0x4A] Gomada-Vulmada (ID: 17756180/0x010EF014) looks at Papo-Hopo (ID: 17756179/0x010EF013)
  5: 0x01C5 [0x00] END_REQSTACK()
```

### Event 65535.25

#### Metadata

| Field        | Value    |
|--------------|----------|
| Entrypoint   | 0x01C6   |
| Data Size    | 33 bytes |
| Instructions | 7        |

```
      00 01 02 03 04 05 06 07  08 09 0A 0B 0C 0D 0E 0F
      -- -- -- -- -- -- -- --  -- -- -- -- -- -- -- --
01C0:                   37 36  80 37 80 35 80 38 80 32        76.7.5.8.2
01D0: 0A 80 1F 00 33 80 34 80  35 80 1F 01 6F 4A 14 F0  ....3.4.5...oJ..
01E0: 0E 01 13 F0 0E 01 00                              .......         
```

#### Opcodes

```
  0: 0x01C6 [0x37] UPDATE_EVENT_POSITION_AND_DIR: x=-25.062*, z=280.469*, y=-12.999*, direction=353.4°*
  1: 0x01CF [0x32] ExtData[1]->MainSpeed = 21* * 0.1
  2: 0x01D2 [0x1F] MOVE_ENTITY: EventEntity moves to X=-21.427*, Z=281.277*, Y=-12.999*
  3: 0x01DA [0x1F] MOVE_ENTITY: Update entity position (mode=1)
  4: 0x01DC [0x6F] WAIT_FRAME_DELAY: Yield until WaitTime reaches zero
  5: 0x01DD [0x4A] Gomada-Vulmada (ID: 17756180/0x010EF014) looks at Papo-Hopo (ID: 17756179/0x010EF013)
  6: 0x01E6 [0x00] END_REQSTACK()
```

### Event 65535.26

#### Metadata

| Field        | Value    |
|--------------|----------|
| Entrypoint   | 0x01E7   |
| Data Size    | 19 bytes |
| Instructions | 5        |

```
      00 01 02 03 04 05 06 07  08 09 0A 0B 0C 0D 0E 0F
      -- -- -- -- -- -- -- --  -- -- -- -- -- -- -- --
01E0:                      29  08 14 F0 0E 01 01 1D 39         ).......9
01F0: 80 23 29 08 14 F0 0E 01  02 00                    .#).......      
```

#### Opcodes

```
  0: 0x01E7 [0x29] REQ_SET_WAIT(priority=0x08, entity_id=Gomada-Vulmada (ID: 17756180/0x010EF014), tag_num=0x01)
  1: 0x01EE [0x1D] PRINT_EVENT_MESSAGE(message_id=7835*)
    → "Phew..."
  2: 0x01F1 [0x23] WAIT_FOR_DIALOG_INTERACTION
  3: 0x01F2 [0x29] REQ_SET_WAIT(priority=0x08, entity_id=Gomada-Vulmada (ID: 17756180/0x010EF014), tag_num=0x02)
  4: 0x01F9 [0x00] END_REQSTACK()
```

### Event 65535.27

#### Metadata

| Field        | Value    |
|--------------|----------|
| Entrypoint   | 0x01FA   |
| Data Size    | 30 bytes |
| Instructions | 8        |

```
      00 01 02 03 04 05 06 07  08 09 0A 0B 0C 0D 0E 0F
      -- -- -- -- -- -- -- --  -- -- -- -- -- -- -- --
01F0:                                1C 01 80 37 3A 80            ...7:.
0200: 3B 80 35 80 3C 80 32 0A  80 1F 00 3D 80 3E 80 3F  ;.5.<.2....=.>.?
0210: 80 1F 01 6F 39 40 80 00                           ...o9@..        
```

#### Opcodes

```
  0: 0x01FA [0x1C] WAIT(30* ticks)
  1: 0x01FD [0x37] UPDATE_EVENT_POSITION_AND_DIR: x=-25.475*, z=261.248*, y=-12.999*, direction=88.6°*
  2: 0x0206 [0x32] ExtData[1]->MainSpeed = 21* * 0.1
  3: 0x0209 [0x1F] MOVE_ENTITY: EventEntity moves to X=-24.981*, Z=252.001*, Y=-12.257*
  4: 0x0211 [0x1F] MOVE_ENTITY: Update entity position (mode=1)
  5: 0x0213 [0x6F] WAIT_FRAME_DELAY: Yield until WaitTime reaches zero
  6: 0x0214 [0x39] SET_ENTITY_DIRECTION(direction=8.0°*)
  7: 0x0217 [0x00] END_REQSTACK()
```

### Event 65535.28

#### Metadata

| Field        | Value    |
|--------------|----------|
| Entrypoint   | 0x0218   |
| Data Size    | 17 bytes |
| Instructions | 6        |

```
      00 01 02 03 04 05 06 07  08 09 0A 0B 0C 0D 0E 0F
      -- -- -- -- -- -- -- --  -- -- -- -- -- -- -- --
0210:                          32 0A 80 1F 00 41 80 42          2....A.B
0220: 80 43 80 1F 01 6F 22 01  00                       .C...o"..       
```

#### Opcodes

```
  0: 0x0218 [0x32] ExtData[1]->MainSpeed = 21* * 0.1
  1: 0x021B [0x1F] MOVE_ENTITY: EventEntity moves to X=-38.938*, Z=242.173*, Y=-12.499*
  2: 0x0223 [0x1F] MOVE_ENTITY: Update entity position (mode=1)
  3: 0x0225 [0x6F] WAIT_FRAME_DELAY: Yield until WaitTime reaches zero
  4: 0x0226 [0x22] ENTITY_HIDE_FLAG(enabled=0x01)
  5: 0x0228 [0x00] END_REQSTACK()
```

### Event 65535.29

#### Metadata

| Field        | Value    |
|--------------|----------|
| Entrypoint   | 0x0229   |
| Data Size    | 19 bytes |
| Instructions | 5        |

```
      00 01 02 03 04 05 06 07  08 09 0A 0B 0C 0D 0E 0F
      -- -- -- -- -- -- -- --  -- -- -- -- -- -- -- --
0220:                             29 08 14 F0 0E 01 01           )......
0230: 1D 44 80 23 29 08 14 F0  0E 01 02 00              .D.#).......    
```

#### Opcodes

```
  0: 0x0229 [0x29] REQ_SET_WAIT(priority=0x08, entity_id=Gomada-Vulmada (ID: 17756180/0x010EF014), tag_num=0x01)
  1: 0x0230 [0x1D] PRINT_EVENT_MESSAGE(message_id=7864*)
    → "But it was no ghosty-whosty, it was a Cardiany!"
  2: 0x0233 [0x23] WAIT_FOR_DIALOG_INTERACTION
  3: 0x0234 [0x29] REQ_SET_WAIT(priority=0x08, entity_id=Gomada-Vulmada (ID: 17756180/0x010EF014), tag_num=0x02)
  4: 0x023B [0x00] END_REQSTACK()
```
