# 17756187 - Hiwon-Biwon

## Common Data

| Field            | Value                    |
|------------------|--------------------------|
| Zone             | Windurst Walls (ID: 239) |
| Block Size       | 780 bytes                |
| Total Events     | 22                       |
| References Count | 26                       |

## List of Events

| Event ID                 | Entrypoint   |   Size |   Instructions |
|--------------------------|--------------|--------|----------------|
| [65535](#event-65535)    | 0x0000       |      1 |              1 |
| [65535.1](#event-655351) | 0x0001       |     16 |              2 |
| [65535.2](#event-655352) | 0x0011       |     22 |              4 |
| [65535.3](#event-655353) | 0x0027       |     16 |              2 |
| [65535.4](#event-655354) | 0x0037       |     22 |              4 |
| [65535.5](#event-655355) | 0x004D       |      9 |              3 |
| [305](#event-305)        | 0x0056       |     33 |             12 |
| [306](#event-306)        | 0x0077       |     29 |             10 |
| [168](#event-168)        | 0x0094       |     37 |             14 |
| [170](#event-170)        | 0x00B9       |     33 |             12 |
| [169](#event-169)        | 0x00DA       |     37 |             14 |
| [173](#event-173)        | 0x00FF       |      1 |              1 |
| [176](#event-176)        | 0x0100       |     33 |             12 |
| [175](#event-175)        | 0x0121       |     33 |             12 |
| [281](#event-281)        | 0x0142       |     33 |             12 |
| [282](#event-282)        | 0x0163       |     33 |             12 |
| [283](#event-283)        | 0x0184       |     33 |             12 |
| [284](#event-284)        | 0x01A5       |     33 |             12 |
| [179](#event-179)        | 0x01C6       |     29 |             10 |
| [182](#event-182)        | 0x01E3       |     29 |             10 |
| [185](#event-185)        | 0x0200       |     33 |             12 |
| [530](#event-530)        | 0x0221       |     26 |             11 |

## DAT References (imed_data)

|   Index | Hex Value   |   Dec Value |
|---------|-------------|-------------|
|       0 | 0x0028      |          40 |
|       1 | 0x001E      |          30 |
|       2 | 0x1EE6      |        7910 |
|       3 | 0x1EE7      |        7911 |
|       4 | 0x1EE9      |        7913 |
|       5 | 0x1D2A      |        7466 |
|       6 | 0x1D2B      |        7467 |
|       7 | 0x1D2C      |        7468 |
|       8 | 0x1D2E      |        7470 |
|       9 | 0x1D2F      |        7471 |
|      10 | 0x1D3E      |        7486 |
|      11 | 0x1D3F      |        7487 |
|      12 | 0x1D3C      |        7484 |
|      13 | 0x1D3D      |        7485 |
|      14 | 0x1E41      |        7745 |
|      15 | 0x1E42      |        7746 |
|      16 | 0x1E43      |        7747 |
|      17 | 0x1E44      |        7748 |
|      18 | 0x1E45      |        7749 |
|      19 | 0x1E46      |        7750 |
|      20 | 0x1D45      |        7493 |
|      21 | 0x1D5C      |        7516 |
|      22 | 0x1D68      |        7528 |
|      23 | 0x1D69      |        7529 |
|      24 | 0x2936      |       10550 |
|      25 | 0x2937      |       10551 |

## String References

- **7466**: Doctor Shantotto, the former Minister of the Orastery, or "Mage Academy," lives in this house here. I'm sure that she's hiding something-womething!
- **7467**: Who am I? Well, I'm the reporter who's waiting to get a tell-all interview with her! You see, I write for the Tarutaru Times' "Magic Paradise Weekly."
- **7468**: They say old Doc Shantotto's as high-and-mighty as Yutungah's firey mountain, and as rough-cut as the rocky Gustaberg Ranges-wanges.
- **7470**: No matter how scary they say old Doc Shantotto is, I should be okay...so long as I don't make her angry-wangry.
- **7471**: Standing around here trying to ward off the heebie-jeebies is only delaying me from writing the story of the century-wentury. I've got to pluck up the courage and go confront-awont her!
- **7484**: I've finally plucked up the courage-wourage. First thing tomorrow, I'm gonna walk in that door and conduct that interview with Doctor Shantotto!
- **7485**: Just standing here, staring at her house all day, every day... And I call myself a reporter? Well, as of tomorrow, it's no more procrastination-wation for me!
- **7486**: ...Erck! I haven't been feeling so good since the other night-wight...
- **7487**: Whenever I shut my eyes...like this, erck...I see these red eyes spinning around and around in the darkness...and, and my shoulders feel all weighed down-wown, and all...Woa\`h!
- **7493**: ...Erck...!
- **7516**: ...Erck...k...k...!
- **7528**: Phew... I think I'm feeling a little better now-wow.
- **7529**: It's like the mist has cleared from my eyes and the weight has been lifted from my shoulders. Why, it's almost as if that mystery illness never happened-wappened.
- **7745**: You were sent here by my editor-weditor? Oh, gee...I haven't been able to get the lowdown on old Doctor Shantotto yet!
- **7746**: We'll just have to run with what I've got-wot... Here, take this article back to the boss for me.
- **7747**: Getting back to the matter at hand-wand... How should I break the ice with Doctor Shantotto?
- **7748**: "I hope you're having a magical day-way?" ...Naw! "Thank you for sparing me your precious time-wime?" ...Nagh! Curses! What will become of me...?
- **7749**: ...Erck...!
- **7750**: My, my news s-scoop...? H-here...erck...t-take th-this...
- **7910**: Doctor Shantotto, the former Minister of the Orastery, or "Mage Academy," lives in this house here. I'm sure that she's hiding something-womething!
- **7911**: Who am I? Well, I'm the reporter who's waiting to get a tell-all interview with her! You see, I write for the Tarutaru Times' "Magic Paradise Weekly."
- **7913**: I guess it was wrong of me to start off by interviewing the people around her. The more I hear about the doctor, the less I want to meet her-wer.
- **10550**: Zzz... zzz... <Mmph>...
- **10551**: <Snore>... No, Shantotto...not...not the whip... Zzz...

## Events

### Event 65535

#### Metadata

| Field        | Value   |
|--------------|---------|
| Entrypoint   | 0x0000  |
| Data Size    | 1 bytes |
| Instructions | 1       |

```
      00 01 02 03 04 05 06 07  08 09 0A 0B 0C 0D 0E 0F
      -- -- -- -- -- -- -- --  -- -- -- -- -- -- -- --
0000: 00                                                .               
```

#### Opcodes

```
  0: 0x0000 [0x00] END_REQSTACK()
```

### Event 65535.1

#### Metadata

| Field        | Value    |
|--------------|----------|
| Entrypoint   | 0x0001   |
| Data Size    | 16 bytes |
| Instructions | 2        |

```
      00 01 02 03 04 05 06 07  08 09 0A 0B 0C 0D 0E 0F
      -- -- -- -- -- -- -- --  -- -- -- -- -- -- -- --
0000:    66 00 80 F8 FF FF 7F  F8 FF FF 7F 74 6C 6B 30   f..........tlk0
0010: 00                                                .               
```

#### Opcodes

```
  0: 0x0001 [0x66] LOAD_EXT_SCHEDULER_MAIN: Load scheduler "tlk0" with entities [EventEntity, EventEntity], work=40*
  1: 0x0010 [0x00] END_REQSTACK()
```

### Event 65535.2

#### Metadata

| Field        | Value    |
|--------------|----------|
| Entrypoint   | 0x0011   |
| Data Size    | 22 bytes |
| Instructions | 4        |

```
      00 01 02 03 04 05 06 07  08 09 0A 0B 0C 0D 0E 0F
      -- -- -- -- -- -- -- --  -- -- -- -- -- -- -- --
0010:    53 F8 FF FF 7F F8 FF  FF 7F 74 6C 6B 30 5E 69   S........tlk0^i
0020: 64 6C 30 1C 01 80 00                              dl0....         
```

#### Opcodes

```
  0: 0x0011 [0x53] WAIT_SCHEDULER_TASK: Wait for scheduler "tlk0" with entities [EventEntity, EventEntity]
  1: 0x001E [0x5E] EventEntity goes idle (kills current action) (animation: "idl0")
  2: 0x0023 [0x1C] WAIT(30* ticks)
  3: 0x0026 [0x00] END_REQSTACK()
```

### Event 65535.3

#### Metadata

| Field        | Value    |
|--------------|----------|
| Entrypoint   | 0x0027   |
| Data Size    | 16 bytes |
| Instructions | 2        |

```
      00 01 02 03 04 05 06 07  08 09 0A 0B 0C 0D 0E 0F
      -- -- -- -- -- -- -- --  -- -- -- -- -- -- -- --
0020:                      66  00 80 F8 FF FF 7F F8 FF         f........
0030: FF 7F 67 6B 72 30 00                              ..gkr0.         
```

#### Opcodes

```
  0: 0x0027 [0x66] LOAD_EXT_SCHEDULER_MAIN: Load scheduler "gkr0" with entities [EventEntity, EventEntity], work=40*
  1: 0x0036 [0x00] END_REQSTACK()
```

### Event 65535.4

#### Metadata

| Field        | Value    |
|--------------|----------|
| Entrypoint   | 0x0037   |
| Data Size    | 22 bytes |
| Instructions | 4        |

```
      00 01 02 03 04 05 06 07  08 09 0A 0B 0C 0D 0E 0F
      -- -- -- -- -- -- -- --  -- -- -- -- -- -- -- --
0030:                      53  F8 FF FF 7F F8 FF FF 7F         S........
0040: 67 6B 72 30 5E 69 64 6C  30 1C 01 80 00           gkr0^idl0....   
```

#### Opcodes

```
  0: 0x0037 [0x53] WAIT_SCHEDULER_TASK: Wait for scheduler "gkr0" with entities [EventEntity, EventEntity]
  1: 0x0044 [0x5E] EventEntity goes idle (kills current action) (animation: "idl0")
  2: 0x0049 [0x1C] WAIT(30* ticks)
  3: 0x004C [0x00] END_REQSTACK()
```

### Event 65535.5

#### Metadata

| Field        | Value   |
|--------------|---------|
| Entrypoint   | 0x004D  |
| Data Size    | 9 bytes |
| Instructions | 3       |

```
      00 01 02 03 04 05 06 07  08 09 0A 0B 0C 0D 0E 0F
      -- -- -- -- -- -- -- --  -- -- -- -- -- -- -- --
0040:                                         5E 69 64               ^id
0050: 6C 30 1C 01 80 00                                 l0....          
```

#### Opcodes

```
  0: 0x004D [0x5E] EventEntity goes idle (kills current action) (animation: "idl0")
  1: 0x0052 [0x1C] WAIT(30* ticks)
  2: 0x0055 [0x00] END_REQSTACK()
```

### Event 305

#### Metadata

| Field        | Value    |
|--------------|----------|
| Entrypoint   | 0x0056   |
| Data Size    | 33 bytes |
| Instructions | 12       |

```
      00 01 02 03 04 05 06 07  08 09 0A 0B 0C 0D 0E 0F
      -- -- -- -- -- -- -- --  -- -- -- -- -- -- -- --
0050:                   1E F0  FF FF 7F 6F 70 29 08 1B        .....op)..
0060: F0 0E 01 01 1D 02 80 23  1D 03 80 23 29 08 1B F0  .......#...#)...
0070: 0E 01 02 20 00 21 00                              ... .!.         
```

#### Opcodes

```
  0: 0x0056 [0x1E] EventEntity looks at LocalPlayer and starts talking
  1: 0x005B [0x6F] WAIT_FRAME_DELAY: Yield until WaitTime reaches zero
  2: 0x005C [0x70] WAIT_ENTITY_RENDER_FLAG: Wait while EventEntity->Render.Flags3 bit 2 is set (cancel turn if not)
  3: 0x005D [0x29] REQ_SET_WAIT(priority=0x08, entity_id=Hiwon-Biwon (ID: 17756187/0x010EF01B), tag_num=0x01)
  4: 0x0064 [0x1D] PRINT_EVENT_MESSAGE(message_id=7910*)
    → "Doctor Shantotto, the former Minister of the Orastery, or "Mage Academy," lives in this house here. I'm sure that she's hiding something-womething!"
  5: 0x0067 [0x23] WAIT_FOR_DIALOG_INTERACTION
  6: 0x0068 [0x1D] PRINT_EVENT_MESSAGE(message_id=7911*)
    → "Who am I? Well, I'm the reporter who's waiting to get a tell-all interview with her! You see, I write for the Tarutaru Times' "Magic Paradise Weekly.""
  7: 0x006B [0x23] WAIT_FOR_DIALOG_INTERACTION
  8: 0x006C [0x29] REQ_SET_WAIT(priority=0x08, entity_id=Hiwon-Biwon (ID: 17756187/0x010EF01B), tag_num=0x02)
  9: 0x0073 [0x20] SET_CLI_EVENT_UC_FLAG: Unlock player control
 10: 0x0075 [0x21] END_EVENT
 11: 0x0076 [0x00] END_REQSTACK()
```

### Event 306

#### Metadata

| Field        | Value    |
|--------------|----------|
| Entrypoint   | 0x0077   |
| Data Size    | 29 bytes |
| Instructions | 10       |

```
      00 01 02 03 04 05 06 07  08 09 0A 0B 0C 0D 0E 0F
      -- -- -- -- -- -- -- --  -- -- -- -- -- -- -- --
0070:                      1E  F0 FF FF 7F 6F 70 29 08         .....op).
0080: 1B F0 0E 01 01 1D 04 80  23 29 08 1B F0 0E 01 02  ........#)......
0090: 20 00 21 00                                        .!.            
```

#### Opcodes

```
  0: 0x0077 [0x1E] EventEntity looks at LocalPlayer and starts talking
  1: 0x007C [0x6F] WAIT_FRAME_DELAY: Yield until WaitTime reaches zero
  2: 0x007D [0x70] WAIT_ENTITY_RENDER_FLAG: Wait while EventEntity->Render.Flags3 bit 2 is set (cancel turn if not)
  3: 0x007E [0x29] REQ_SET_WAIT(priority=0x08, entity_id=Hiwon-Biwon (ID: 17756187/0x010EF01B), tag_num=0x01)
  4: 0x0085 [0x1D] PRINT_EVENT_MESSAGE(message_id=7913*)
    → "I guess it was wrong of me to start off by interviewing the people around her. The more I hear about the doctor, the less I want to meet her-wer."
  5: 0x0088 [0x23] WAIT_FOR_DIALOG_INTERACTION
  6: 0x0089 [0x29] REQ_SET_WAIT(priority=0x08, entity_id=Hiwon-Biwon (ID: 17756187/0x010EF01B), tag_num=0x02)
  7: 0x0090 [0x20] SET_CLI_EVENT_UC_FLAG: Unlock player control
  8: 0x0092 [0x21] END_EVENT
  9: 0x0093 [0x00] END_REQSTACK()
```

### Event 168

#### Metadata

| Field        | Value    |
|--------------|----------|
| Entrypoint   | 0x0094   |
| Data Size    | 37 bytes |
| Instructions | 14       |

```
      00 01 02 03 04 05 06 07  08 09 0A 0B 0C 0D 0E 0F
      -- -- -- -- -- -- -- --  -- -- -- -- -- -- -- --
0090:             1E F0 FF FF  7F 6F 70 29 08 1B F0 0E      .....op)....
00A0: 01 01 1D 05 80 23 1D 06  80 23 1D 07 80 23 29 08  .....#...#...#).
00B0: 1B F0 0E 01 02 20 00 21  00                       ..... .!.       
```

#### Opcodes

```
  0: 0x0094 [0x1E] EventEntity looks at LocalPlayer and starts talking
  1: 0x0099 [0x6F] WAIT_FRAME_DELAY: Yield until WaitTime reaches zero
  2: 0x009A [0x70] WAIT_ENTITY_RENDER_FLAG: Wait while EventEntity->Render.Flags3 bit 2 is set (cancel turn if not)
  3: 0x009B [0x29] REQ_SET_WAIT(priority=0x08, entity_id=Hiwon-Biwon (ID: 17756187/0x010EF01B), tag_num=0x01)
  4: 0x00A2 [0x1D] PRINT_EVENT_MESSAGE(message_id=7466*)
    → "Doctor Shantotto, the former Minister of the Orastery, or "Mage Academy," lives in this house here. I'm sure that she's hiding something-womething!"
  5: 0x00A5 [0x23] WAIT_FOR_DIALOG_INTERACTION
  6: 0x00A6 [0x1D] PRINT_EVENT_MESSAGE(message_id=7467*)
    → "Who am I? Well, I'm the reporter who's waiting to get a tell-all interview with her! You see, I write for the Tarutaru Times' "Magic Paradise Weekly.""
  7: 0x00A9 [0x23] WAIT_FOR_DIALOG_INTERACTION
  8: 0x00AA [0x1D] PRINT_EVENT_MESSAGE(message_id=7468*)
    → "They say old Doc Shantotto's as high-and-mighty as Yutungah's firey mountain, and as rough-cut as the rocky Gustaberg Ranges-wanges."
  9: 0x00AD [0x23] WAIT_FOR_DIALOG_INTERACTION
 10: 0x00AE [0x29] REQ_SET_WAIT(priority=0x08, entity_id=Hiwon-Biwon (ID: 17756187/0x010EF01B), tag_num=0x02)
 11: 0x00B5 [0x20] SET_CLI_EVENT_UC_FLAG: Unlock player control
 12: 0x00B7 [0x21] END_EVENT
 13: 0x00B8 [0x00] END_REQSTACK()
```

### Event 170

#### Metadata

| Field        | Value    |
|--------------|----------|
| Entrypoint   | 0x00B9   |
| Data Size    | 33 bytes |
| Instructions | 12       |

```
      00 01 02 03 04 05 06 07  08 09 0A 0B 0C 0D 0E 0F
      -- -- -- -- -- -- -- --  -- -- -- -- -- -- -- --
00B0:                             1E F0 FF FF 7F 6F 70           .....op
00C0: 29 08 1B F0 0E 01 01 1D  08 80 23 1D 09 80 23 29  ).........#...#)
00D0: 08 1B F0 0E 01 02 20 00  21 00                    ...... .!.      
```

#### Opcodes

```
  0: 0x00B9 [0x1E] EventEntity looks at LocalPlayer and starts talking
  1: 0x00BE [0x6F] WAIT_FRAME_DELAY: Yield until WaitTime reaches zero
  2: 0x00BF [0x70] WAIT_ENTITY_RENDER_FLAG: Wait while EventEntity->Render.Flags3 bit 2 is set (cancel turn if not)
  3: 0x00C0 [0x29] REQ_SET_WAIT(priority=0x08, entity_id=Hiwon-Biwon (ID: 17756187/0x010EF01B), tag_num=0x01)
  4: 0x00C7 [0x1D] PRINT_EVENT_MESSAGE(message_id=7470*)
    → "No matter how scary they say old Doc Shantotto is, I should be okay...so long as I don't make her angry-wangry."
  5: 0x00CA [0x23] WAIT_FOR_DIALOG_INTERACTION
  6: 0x00CB [0x1D] PRINT_EVENT_MESSAGE(message_id=7471*)
    → "Standing around here trying to ward off the heebie-jeebies is only delaying me from writing the story of the century-wentury. I've got to pluck up the courage and go confront-awont her!"
  7: 0x00CE [0x23] WAIT_FOR_DIALOG_INTERACTION
  8: 0x00CF [0x29] REQ_SET_WAIT(priority=0x08, entity_id=Hiwon-Biwon (ID: 17756187/0x010EF01B), tag_num=0x02)
  9: 0x00D6 [0x20] SET_CLI_EVENT_UC_FLAG: Unlock player control
 10: 0x00D8 [0x21] END_EVENT
 11: 0x00D9 [0x00] END_REQSTACK()
```

### Event 169

#### Metadata

| Field        | Value    |
|--------------|----------|
| Entrypoint   | 0x00DA   |
| Data Size    | 37 bytes |
| Instructions | 14       |

```
      00 01 02 03 04 05 06 07  08 09 0A 0B 0C 0D 0E 0F
      -- -- -- -- -- -- -- --  -- -- -- -- -- -- -- --
00D0:                                1E F0 FF FF 7F 6F            .....o
00E0: 70 29 08 1B F0 0E 01 01  1D 05 80 23 1D 06 80 23  p).........#...#
00F0: 1D 07 80 23 29 08 1B F0  0E 01 02 20 00 21 00     ...#)...... .!. 
```

#### Opcodes

```
  0: 0x00DA [0x1E] EventEntity looks at LocalPlayer and starts talking
  1: 0x00DF [0x6F] WAIT_FRAME_DELAY: Yield until WaitTime reaches zero
  2: 0x00E0 [0x70] WAIT_ENTITY_RENDER_FLAG: Wait while EventEntity->Render.Flags3 bit 2 is set (cancel turn if not)
  3: 0x00E1 [0x29] REQ_SET_WAIT(priority=0x08, entity_id=Hiwon-Biwon (ID: 17756187/0x010EF01B), tag_num=0x01)
  4: 0x00E8 [0x1D] PRINT_EVENT_MESSAGE(message_id=7466*)
    → "Doctor Shantotto, the former Minister of the Orastery, or "Mage Academy," lives in this house here. I'm sure that she's hiding something-womething!"
  5: 0x00EB [0x23] WAIT_FOR_DIALOG_INTERACTION
  6: 0x00EC [0x1D] PRINT_EVENT_MESSAGE(message_id=7467*)
    → "Who am I? Well, I'm the reporter who's waiting to get a tell-all interview with her! You see, I write for the Tarutaru Times' "Magic Paradise Weekly.""
  7: 0x00EF [0x23] WAIT_FOR_DIALOG_INTERACTION
  8: 0x00F0 [0x1D] PRINT_EVENT_MESSAGE(message_id=7468*)
    → "They say old Doc Shantotto's as high-and-mighty as Yutungah's firey mountain, and as rough-cut as the rocky Gustaberg Ranges-wanges."
  9: 0x00F3 [0x23] WAIT_FOR_DIALOG_INTERACTION
 10: 0x00F4 [0x29] REQ_SET_WAIT(priority=0x08, entity_id=Hiwon-Biwon (ID: 17756187/0x010EF01B), tag_num=0x02)
 11: 0x00FB [0x20] SET_CLI_EVENT_UC_FLAG: Unlock player control
 12: 0x00FD [0x21] END_EVENT
 13: 0x00FE [0x00] END_REQSTACK()
```

### Event 173

#### Metadata

| Field        | Value   |
|--------------|---------|
| Entrypoint   | 0x00FF  |
| Data Size    | 1 bytes |
| Instructions | 1       |

```
      00 01 02 03 04 05 06 07  08 09 0A 0B 0C 0D 0E 0F
      -- -- -- -- -- -- -- --  -- -- -- -- -- -- -- --
00F0:                                               00                 .
```

#### Opcodes

```
  0: 0x00FF [0x00] END_REQSTACK()
```

### Event 176

#### Metadata

| Field        | Value    |
|--------------|----------|
| Entrypoint   | 0x0100   |
| Data Size    | 33 bytes |
| Instructions | 12       |

```
      00 01 02 03 04 05 06 07  08 09 0A 0B 0C 0D 0E 0F
      -- -- -- -- -- -- -- --  -- -- -- -- -- -- -- --
0100: 1E F0 FF FF 7F 6F 70 29  08 1B F0 0E 01 03 1D 0A  .....op)........
0110: 80 23 1D 0B 80 23 29 08  1B F0 0E 01 04 20 00 21  .#...#)...... .!
0120: 00                                                .               
```

#### Opcodes

```
  0: 0x0100 [0x1E] EventEntity looks at LocalPlayer and starts talking
  1: 0x0105 [0x6F] WAIT_FRAME_DELAY: Yield until WaitTime reaches zero
  2: 0x0106 [0x70] WAIT_ENTITY_RENDER_FLAG: Wait while EventEntity->Render.Flags3 bit 2 is set (cancel turn if not)
  3: 0x0107 [0x29] REQ_SET_WAIT(priority=0x08, entity_id=Hiwon-Biwon (ID: 17756187/0x010EF01B), tag_num=0x03)
  4: 0x010E [0x1D] PRINT_EVENT_MESSAGE(message_id=7486*)
    → "...Erck! I haven't been feeling so good since the other night-wight..."
  5: 0x0111 [0x23] WAIT_FOR_DIALOG_INTERACTION
  6: 0x0112 [0x1D] PRINT_EVENT_MESSAGE(message_id=7487*)
    → "Whenever I shut my eyes...like this, erck...I see these red eyes spinning around and around in the darkness...and, and my shoulders feel all weighed down-wown, and all...Woa`h!"
  7: 0x0115 [0x23] WAIT_FOR_DIALOG_INTERACTION
  8: 0x0116 [0x29] REQ_SET_WAIT(priority=0x08, entity_id=Hiwon-Biwon (ID: 17756187/0x010EF01B), tag_num=0x04)
  9: 0x011D [0x20] SET_CLI_EVENT_UC_FLAG: Unlock player control
 10: 0x011F [0x21] END_EVENT
 11: 0x0120 [0x00] END_REQSTACK()
```

### Event 175

#### Metadata

| Field        | Value    |
|--------------|----------|
| Entrypoint   | 0x0121   |
| Data Size    | 33 bytes |
| Instructions | 12       |

```
      00 01 02 03 04 05 06 07  08 09 0A 0B 0C 0D 0E 0F
      -- -- -- -- -- -- -- --  -- -- -- -- -- -- -- --
0120:    1E F0 FF FF 7F 6F 70  29 08 1B F0 0E 01 01 1D   .....op).......
0130: 0C 80 23 1D 0D 80 23 29  08 1B F0 0E 01 02 20 00  ..#...#)...... .
0140: 21 00                                             !.              
```

#### Opcodes

```
  0: 0x0121 [0x1E] EventEntity looks at LocalPlayer and starts talking
  1: 0x0126 [0x6F] WAIT_FRAME_DELAY: Yield until WaitTime reaches zero
  2: 0x0127 [0x70] WAIT_ENTITY_RENDER_FLAG: Wait while EventEntity->Render.Flags3 bit 2 is set (cancel turn if not)
  3: 0x0128 [0x29] REQ_SET_WAIT(priority=0x08, entity_id=Hiwon-Biwon (ID: 17756187/0x010EF01B), tag_num=0x01)
  4: 0x012F [0x1D] PRINT_EVENT_MESSAGE(message_id=7484*)
    → "I've finally plucked up the courage-wourage. First thing tomorrow, I'm gonna walk in that door and conduct that interview with Doctor Shantotto!"
  5: 0x0132 [0x23] WAIT_FOR_DIALOG_INTERACTION
  6: 0x0133 [0x1D] PRINT_EVENT_MESSAGE(message_id=7485*)
    → "Just standing here, staring at her house all day, every day... And I call myself a reporter? Well, as of tomorrow, it's no more procrastination-wation for me!"
  7: 0x0136 [0x23] WAIT_FOR_DIALOG_INTERACTION
  8: 0x0137 [0x29] REQ_SET_WAIT(priority=0x08, entity_id=Hiwon-Biwon (ID: 17756187/0x010EF01B), tag_num=0x02)
  9: 0x013E [0x20] SET_CLI_EVENT_UC_FLAG: Unlock player control
 10: 0x0140 [0x21] END_EVENT
 11: 0x0141 [0x00] END_REQSTACK()
```

### Event 281

#### Metadata

| Field        | Value    |
|--------------|----------|
| Entrypoint   | 0x0142   |
| Data Size    | 33 bytes |
| Instructions | 12       |

```
      00 01 02 03 04 05 06 07  08 09 0A 0B 0C 0D 0E 0F
      -- -- -- -- -- -- -- --  -- -- -- -- -- -- -- --
0140:       1E F0 FF FF 7F 6F  70 29 08 1B F0 0E 01 01    .....op)......
0150: 1D 0E 80 23 1D 0F 80 23  29 08 1B F0 0E 01 02 20  ...#...#)...... 
0160: 00 21 00                                          .!.             
```

#### Opcodes

```
  0: 0x0142 [0x1E] EventEntity looks at LocalPlayer and starts talking
  1: 0x0147 [0x6F] WAIT_FRAME_DELAY: Yield until WaitTime reaches zero
  2: 0x0148 [0x70] WAIT_ENTITY_RENDER_FLAG: Wait while EventEntity->Render.Flags3 bit 2 is set (cancel turn if not)
  3: 0x0149 [0x29] REQ_SET_WAIT(priority=0x08, entity_id=Hiwon-Biwon (ID: 17756187/0x010EF01B), tag_num=0x01)
  4: 0x0150 [0x1D] PRINT_EVENT_MESSAGE(message_id=7745*)
    → "You were sent here by my editor-weditor? Oh, gee...I haven't been able to get the lowdown on old Doctor Shantotto yet!"
  5: 0x0153 [0x23] WAIT_FOR_DIALOG_INTERACTION
  6: 0x0154 [0x1D] PRINT_EVENT_MESSAGE(message_id=7746*)
    → "We'll just have to run with what I've got-wot... Here, take this article back to the boss for me."
  7: 0x0157 [0x23] WAIT_FOR_DIALOG_INTERACTION
  8: 0x0158 [0x29] REQ_SET_WAIT(priority=0x08, entity_id=Hiwon-Biwon (ID: 17756187/0x010EF01B), tag_num=0x02)
  9: 0x015F [0x20] SET_CLI_EVENT_UC_FLAG: Unlock player control
 10: 0x0161 [0x21] END_EVENT
 11: 0x0162 [0x00] END_REQSTACK()
```

### Event 282

#### Metadata

| Field        | Value    |
|--------------|----------|
| Entrypoint   | 0x0163   |
| Data Size    | 33 bytes |
| Instructions | 12       |

```
      00 01 02 03 04 05 06 07  08 09 0A 0B 0C 0D 0E 0F
      -- -- -- -- -- -- -- --  -- -- -- -- -- -- -- --
0160:          1E F0 FF FF 7F  6F 70 29 08 1B F0 0E 01     .....op).....
0170: 01 1D 10 80 23 1D 11 80  23 29 08 1B F0 0E 01 02  ....#...#)......
0180: 20 00 21 00                                        .!.            
```

#### Opcodes

```
  0: 0x0163 [0x1E] EventEntity looks at LocalPlayer and starts talking
  1: 0x0168 [0x6F] WAIT_FRAME_DELAY: Yield until WaitTime reaches zero
  2: 0x0169 [0x70] WAIT_ENTITY_RENDER_FLAG: Wait while EventEntity->Render.Flags3 bit 2 is set (cancel turn if not)
  3: 0x016A [0x29] REQ_SET_WAIT(priority=0x08, entity_id=Hiwon-Biwon (ID: 17756187/0x010EF01B), tag_num=0x01)
  4: 0x0171 [0x1D] PRINT_EVENT_MESSAGE(message_id=7747*)
    → "Getting back to the matter at hand-wand... How should I break the ice with Doctor Shantotto?"
  5: 0x0174 [0x23] WAIT_FOR_DIALOG_INTERACTION
  6: 0x0175 [0x1D] PRINT_EVENT_MESSAGE(message_id=7748*)
    → ""I hope you're having a magical day-way?" ...Naw! "Thank you for sparing me your precious time-wime?" ...Nagh! Curses! What will become of me...?"
  7: 0x0178 [0x23] WAIT_FOR_DIALOG_INTERACTION
  8: 0x0179 [0x29] REQ_SET_WAIT(priority=0x08, entity_id=Hiwon-Biwon (ID: 17756187/0x010EF01B), tag_num=0x02)
  9: 0x0180 [0x20] SET_CLI_EVENT_UC_FLAG: Unlock player control
 10: 0x0182 [0x21] END_EVENT
 11: 0x0183 [0x00] END_REQSTACK()
```

### Event 283

#### Metadata

| Field        | Value    |
|--------------|----------|
| Entrypoint   | 0x0184   |
| Data Size    | 33 bytes |
| Instructions | 12       |

```
      00 01 02 03 04 05 06 07  08 09 0A 0B 0C 0D 0E 0F
      -- -- -- -- -- -- -- --  -- -- -- -- -- -- -- --
0180:             1E F0 FF FF  7F 6F 70 29 08 1B F0 0E      .....op)....
0190: 01 03 1D 12 80 23 1D 13  80 23 29 08 1B F0 0E 01  .....#...#).....
01A0: 04 20 00 21 00                                    . .!.           
```

#### Opcodes

```
  0: 0x0184 [0x1E] EventEntity looks at LocalPlayer and starts talking
  1: 0x0189 [0x6F] WAIT_FRAME_DELAY: Yield until WaitTime reaches zero
  2: 0x018A [0x70] WAIT_ENTITY_RENDER_FLAG: Wait while EventEntity->Render.Flags3 bit 2 is set (cancel turn if not)
  3: 0x018B [0x29] REQ_SET_WAIT(priority=0x08, entity_id=Hiwon-Biwon (ID: 17756187/0x010EF01B), tag_num=0x03)
  4: 0x0192 [0x1D] PRINT_EVENT_MESSAGE(message_id=7749*)
    → "...Erck...!"
  5: 0x0195 [0x23] WAIT_FOR_DIALOG_INTERACTION
  6: 0x0196 [0x1D] PRINT_EVENT_MESSAGE(message_id=7750*)
    → "My, my news s-scoop...? H-here...erck...t-take th-this..."
  7: 0x0199 [0x23] WAIT_FOR_DIALOG_INTERACTION
  8: 0x019A [0x29] REQ_SET_WAIT(priority=0x08, entity_id=Hiwon-Biwon (ID: 17756187/0x010EF01B), tag_num=0x04)
  9: 0x01A1 [0x20] SET_CLI_EVENT_UC_FLAG: Unlock player control
 10: 0x01A3 [0x21] END_EVENT
 11: 0x01A4 [0x00] END_REQSTACK()
```

### Event 284

#### Metadata

| Field        | Value    |
|--------------|----------|
| Entrypoint   | 0x01A5   |
| Data Size    | 33 bytes |
| Instructions | 12       |

```
      00 01 02 03 04 05 06 07  08 09 0A 0B 0C 0D 0E 0F
      -- -- -- -- -- -- -- --  -- -- -- -- -- -- -- --
01A0:                1E F0 FF  FF 7F 6F 70 29 08 1B F0       .....op)...
01B0: 0E 01 03 1D 12 80 23 1D  13 80 23 29 08 1B F0 0E  ......#...#)....
01C0: 01 04 20 00 21 00                                 .. .!.          
```

#### Opcodes

```
  0: 0x01A5 [0x1E] EventEntity looks at LocalPlayer and starts talking
  1: 0x01AA [0x6F] WAIT_FRAME_DELAY: Yield until WaitTime reaches zero
  2: 0x01AB [0x70] WAIT_ENTITY_RENDER_FLAG: Wait while EventEntity->Render.Flags3 bit 2 is set (cancel turn if not)
  3: 0x01AC [0x29] REQ_SET_WAIT(priority=0x08, entity_id=Hiwon-Biwon (ID: 17756187/0x010EF01B), tag_num=0x03)
  4: 0x01B3 [0x1D] PRINT_EVENT_MESSAGE(message_id=7749*)
    → "...Erck...!"
  5: 0x01B6 [0x23] WAIT_FOR_DIALOG_INTERACTION
  6: 0x01B7 [0x1D] PRINT_EVENT_MESSAGE(message_id=7750*)
    → "My, my news s-scoop...? H-here...erck...t-take th-this..."
  7: 0x01BA [0x23] WAIT_FOR_DIALOG_INTERACTION
  8: 0x01BB [0x29] REQ_SET_WAIT(priority=0x08, entity_id=Hiwon-Biwon (ID: 17756187/0x010EF01B), tag_num=0x04)
  9: 0x01C2 [0x20] SET_CLI_EVENT_UC_FLAG: Unlock player control
 10: 0x01C4 [0x21] END_EVENT
 11: 0x01C5 [0x00] END_REQSTACK()
```

### Event 179

#### Metadata

| Field        | Value    |
|--------------|----------|
| Entrypoint   | 0x01C6   |
| Data Size    | 29 bytes |
| Instructions | 10       |

```
      00 01 02 03 04 05 06 07  08 09 0A 0B 0C 0D 0E 0F
      -- -- -- -- -- -- -- --  -- -- -- -- -- -- -- --
01C0:                   1E F0  FF FF 7F 6F 70 29 08 1B        .....op)..
01D0: F0 0E 01 03 1D 14 80 23  29 08 1B F0 0E 01 04 20  .......#)...... 
01E0: 00 21 00                                          .!.             
```

#### Opcodes

```
  0: 0x01C6 [0x1E] EventEntity looks at LocalPlayer and starts talking
  1: 0x01CB [0x6F] WAIT_FRAME_DELAY: Yield until WaitTime reaches zero
  2: 0x01CC [0x70] WAIT_ENTITY_RENDER_FLAG: Wait while EventEntity->Render.Flags3 bit 2 is set (cancel turn if not)
  3: 0x01CD [0x29] REQ_SET_WAIT(priority=0x08, entity_id=Hiwon-Biwon (ID: 17756187/0x010EF01B), tag_num=0x03)
  4: 0x01D4 [0x1D] PRINT_EVENT_MESSAGE(message_id=7493*)
    → "...Erck...!"
  5: 0x01D7 [0x23] WAIT_FOR_DIALOG_INTERACTION
  6: 0x01D8 [0x29] REQ_SET_WAIT(priority=0x08, entity_id=Hiwon-Biwon (ID: 17756187/0x010EF01B), tag_num=0x04)
  7: 0x01DF [0x20] SET_CLI_EVENT_UC_FLAG: Unlock player control
  8: 0x01E1 [0x21] END_EVENT
  9: 0x01E2 [0x00] END_REQSTACK()
```

### Event 182

#### Metadata

| Field        | Value    |
|--------------|----------|
| Entrypoint   | 0x01E3   |
| Data Size    | 29 bytes |
| Instructions | 10       |

```
      00 01 02 03 04 05 06 07  08 09 0A 0B 0C 0D 0E 0F
      -- -- -- -- -- -- -- --  -- -- -- -- -- -- -- --
01E0:          1E F0 FF FF 7F  6F 70 29 08 1B F0 0E 01     .....op).....
01F0: 03 1D 15 80 23 29 08 1B  F0 0E 01 04 20 00 21 00  ....#)...... .!.
```

#### Opcodes

```
  0: 0x01E3 [0x1E] EventEntity looks at LocalPlayer and starts talking
  1: 0x01E8 [0x6F] WAIT_FRAME_DELAY: Yield until WaitTime reaches zero
  2: 0x01E9 [0x70] WAIT_ENTITY_RENDER_FLAG: Wait while EventEntity->Render.Flags3 bit 2 is set (cancel turn if not)
  3: 0x01EA [0x29] REQ_SET_WAIT(priority=0x08, entity_id=Hiwon-Biwon (ID: 17756187/0x010EF01B), tag_num=0x03)
  4: 0x01F1 [0x1D] PRINT_EVENT_MESSAGE(message_id=7516*)
    → "...Erck...k...k...!"
  5: 0x01F4 [0x23] WAIT_FOR_DIALOG_INTERACTION
  6: 0x01F5 [0x29] REQ_SET_WAIT(priority=0x08, entity_id=Hiwon-Biwon (ID: 17756187/0x010EF01B), tag_num=0x04)
  7: 0x01FC [0x20] SET_CLI_EVENT_UC_FLAG: Unlock player control
  8: 0x01FE [0x21] END_EVENT
  9: 0x01FF [0x00] END_REQSTACK()
```

### Event 185

#### Metadata

| Field        | Value    |
|--------------|----------|
| Entrypoint   | 0x0200   |
| Data Size    | 33 bytes |
| Instructions | 12       |

```
      00 01 02 03 04 05 06 07  08 09 0A 0B 0C 0D 0E 0F
      -- -- -- -- -- -- -- --  -- -- -- -- -- -- -- --
0200: 1E F0 FF FF 7F 6F 70 29  08 1B F0 0E 01 01 1D 16  .....op)........
0210: 80 23 1D 17 80 23 29 08  1B F0 0E 01 02 20 00 21  .#...#)...... .!
0220: 00                                                .               
```

#### Opcodes

```
  0: 0x0200 [0x1E] EventEntity looks at LocalPlayer and starts talking
  1: 0x0205 [0x6F] WAIT_FRAME_DELAY: Yield until WaitTime reaches zero
  2: 0x0206 [0x70] WAIT_ENTITY_RENDER_FLAG: Wait while EventEntity->Render.Flags3 bit 2 is set (cancel turn if not)
  3: 0x0207 [0x29] REQ_SET_WAIT(priority=0x08, entity_id=Hiwon-Biwon (ID: 17756187/0x010EF01B), tag_num=0x01)
  4: 0x020E [0x1D] PRINT_EVENT_MESSAGE(message_id=7528*)
    → "Phew... I think I'm feeling a little better now-wow."
  5: 0x0211 [0x23] WAIT_FOR_DIALOG_INTERACTION
  6: 0x0212 [0x1D] PRINT_EVENT_MESSAGE(message_id=7529*)
    → "It's like the mist has cleared from my eyes and the weight has been lifted from my shoulders. Why, it's almost as if that mystery illness never happened-wappened."
  7: 0x0215 [0x23] WAIT_FOR_DIALOG_INTERACTION
  8: 0x0216 [0x29] REQ_SET_WAIT(priority=0x08, entity_id=Hiwon-Biwon (ID: 17756187/0x010EF01B), tag_num=0x02)
  9: 0x021D [0x20] SET_CLI_EVENT_UC_FLAG: Unlock player control
 10: 0x021F [0x21] END_EVENT
 11: 0x0220 [0x00] END_REQSTACK()
```

### Event 530

#### Metadata

| Field        | Value    |
|--------------|----------|
| Entrypoint   | 0x0221   |
| Data Size    | 26 bytes |
| Instructions | 11       |

```
      00 01 02 03 04 05 06 07  08 09 0A 0B 0C 0D 0E 0F
      -- -- -- -- -- -- -- --  -- -- -- -- -- -- -- --
0220:    1E F0 FF FF 7F 6F 70  29 08 1B F0 0E 01 03 1D   .....op).......
0230: 18 80 23 1D 19 80 23 20  00 21 00                 ..#...# .!.     
```

#### Opcodes

```
  0: 0x0221 [0x1E] EventEntity looks at LocalPlayer and starts talking
  1: 0x0226 [0x6F] WAIT_FRAME_DELAY: Yield until WaitTime reaches zero
  2: 0x0227 [0x70] WAIT_ENTITY_RENDER_FLAG: Wait while EventEntity->Render.Flags3 bit 2 is set (cancel turn if not)
  3: 0x0228 [0x29] REQ_SET_WAIT(priority=0x08, entity_id=Hiwon-Biwon (ID: 17756187/0x010EF01B), tag_num=0x03)
  4: 0x022F [0x1D] PRINT_EVENT_MESSAGE(message_id=10550*)
    → "Zzz... zzz... <Mmph>..."
  5: 0x0232 [0x23] WAIT_FOR_DIALOG_INTERACTION
  6: 0x0233 [0x1D] PRINT_EVENT_MESSAGE(message_id=10551*)
    → "<Snore>... No, Shantotto...not...not the whip... Zzz..."
  7: 0x0236 [0x23] WAIT_FOR_DIALOG_INTERACTION
  8: 0x0237 [0x20] SET_CLI_EVENT_UC_FLAG: Unlock player control
  9: 0x0239 [0x21] END_EVENT
 10: 0x023A [0x00] END_REQSTACK()
```
