# 17756343 - 10

## Common Data

| Field            | Value                    |
|------------------|--------------------------|
| Zone             | Windurst Walls (ID: 239) |
| Block Size       | 388 bytes                |
| Total Events     | 17                       |
| References Count | 13                       |

## List of Events

| Event ID                   | Entrypoint   |   Size |   Instructions |
|----------------------------|--------------|--------|----------------|
| [65535](#event-65535)      | 0x0000       |      1 |              1 |
| [65535.1](#event-655351)   | 0x0001       |     15 |              4 |
| [65535.2](#event-655352)   | 0x0010       |     45 |              4 |
| [65535.3](#event-655353)   | 0x003D       |     30 |              3 |
| [65535.4](#event-655354)   | 0x005B       |     10 |              2 |
| [65535.5](#event-655355)   | 0x0065       |     10 |              2 |
| [510](#event-510)          | 0x006F       |      1 |              1 |
| [514](#event-514)          | 0x0070       |      1 |              1 |
| [65535.6](#event-655356)   | 0x0071       |     16 |              2 |
| [65535.7](#event-655357)   | 0x0081       |     19 |              3 |
| [65535.8](#event-655358)   | 0x0094       |     16 |              2 |
| [65535.9](#event-655359)   | 0x00A4       |     16 |              2 |
| [65535.10](#event-6553510) | 0x00B4       |     18 |              2 |
| [65535.11](#event-6553511) | 0x00C6       |     18 |              2 |
| [65535.12](#event-6553512) | 0x00D8       |     16 |              4 |
| [65535.13](#event-6553513) | 0x00E8       |     18 |              2 |
| [511](#event-511)          | 0x00FA       |      1 |              1 |

## DAT References (imed_data)

|   Index | Hex Value   |   Dec Value |
|---------|-------------|-------------|
|       0 | 0x0005      |           5 |
|       1 | 0x000A      |          10 |
|       2 | 0x0000      |           0 |
|       3 | 0x0017      |          23 |
|       4 | 0x000B      |          11 |
|       5 | 0x001D      |          29 |
|       6 | 0x0013      |          19 |
|       7 | 0x0080      |         128 |
|       8 | 0x055D      |        1373 |
|       9 | 0x0050      |          80 |
|      10 | 0x0031      |          49 |
|      11 | 0x00C7      |         199 |
|      12 | 0x00B7      |         183 |

## Events

### Event 65535

#### Metadata

| Field        | Value   |
|--------------|---------|
| Entrypoint   | 0x0000  |
| Data Size    | 1 bytes |
| Instructions | 1       |

```
      00 01 02 03 04 05 06 07  08 09 0A 0B 0C 0D 0E 0F
      -- -- -- -- -- -- -- --  -- -- -- -- -- -- -- --
0000: 00                                                .               
```

#### Opcodes

```
  0: 0x0000 [0x00] END_REQSTACK()
```

### Event 65535.1

#### Metadata

| Field        | Value    |
|--------------|----------|
| Entrypoint   | 0x0001   |
| Data Size    | 15 bytes |
| Instructions | 4        |

```
      00 01 02 03 04 05 06 07  08 09 0A 0B 0C 0D 0E 0F
      -- -- -- -- -- -- -- --  -- -- -- -- -- -- -- --
0000:    22 00 92 01 F8 FF FF  7F 94 01 F8 FF FF 7F 00   "..............
```

#### Opcodes

```
  0: 0x0001 [0x22] ENTITY_HIDE_FLAG(enabled=0x00)
  1: 0x0003 [0x92] EventEntity->Render.Flags3 ^= 0x01
  2: 0x0009 [0x94] EventEntity->Render.Flags3 ^= 0x01
  3: 0x000F [0x00] END_REQSTACK()
```

### Event 65535.2

#### Metadata

| Field        | Value    |
|--------------|----------|
| Entrypoint   | 0x0010   |
| Data Size    | 45 bytes |
| Instructions | 4        |

```
      00 01 02 03 04 05 06 07  08 09 0A 0B 0C 0D 0E 0F
      -- -- -- -- -- -- -- --  -- -- -- -- -- -- -- --
0010: B4 00 00 00 4B 6F 72 75  2D 4D 6F 72 75 00 00 00  ....Koru-Moru...
0020: 00 00 00 00 B5 00 00 00  B6 0B 00 80 01 80 02 80  ................
0030: 03 80 03 80 03 80 04 80  02 80 02 80 00           .............   
```

#### Opcodes

```
  0: 0x0010 [0xB4] UI_WINDOW_STRING_HANDLER(case=0x00 - Copy string from opcode, work_offset=ExtData[1]->WorkLocal[0], string="Koru-Moru")
  1: 0x0024 [0xB5] SET_EVENT_ENTITY_NAME: Change EventEntity name to ExtData[1]->WorkLocal[0]
  2: 0x0028 [0xB6] ENTITY_APPEARANCE_HANDLER(case=Full entity look, race=5*, hair=10*, head=0*, body=23*, hands=23*, legs=23*, feet=11*, main=0*, sub=0*)
  3: 0x003C [0x00] END_REQSTACK()
```

### Event 65535.3

#### Metadata

| Field        | Value    |
|--------------|----------|
| Entrypoint   | 0x003D   |
| Data Size    | 30 bytes |
| Instructions | 3        |

```
      00 01 02 03 04 05 06 07  08 09 0A 0B 0C 0D 0E 0F
      -- -- -- -- -- -- -- --  -- -- -- -- -- -- -- --
0030:                                         B6 0B 00               ...
0040: 80 05 80 06 80 06 80 06  80 06 80 06 80 02 80 02  ................
0050: 80 6C F8 FF FF 7F 02 80  02 80 00                 .l.........     
```

#### Opcodes

```
  0: 0x003D [0xB6] ENTITY_APPEARANCE_HANDLER(case=Full entity look, race=5*, hair=29*, head=19*, body=19*, hands=19*, legs=19*, feet=19*, main=0*, sub=0*)
  1: 0x0051 [0x6C] FADE_ENTITY_COLOR(entity_id=EventEntity, end_alpha=0*, fade_time=0*)
  2: 0x005A [0x00] END_REQSTACK()
```

### Event 65535.4

#### Metadata

| Field        | Value    |
|--------------|----------|
| Entrypoint   | 0x005B   |
| Data Size    | 10 bytes |
| Instructions | 2        |

```
      00 01 02 03 04 05 06 07  08 09 0A 0B 0C 0D 0E 0F
      -- -- -- -- -- -- -- --  -- -- -- -- -- -- -- --
0050:                                   6C F8 FF FF 7F             l....
0060: 07 80 02 80 00                                    .....           
```

#### Opcodes

```
  0: 0x005B [0x6C] FADE_ENTITY_COLOR(entity_id=EventEntity, end_alpha=128*, fade_time=0*)
  1: 0x0064 [0x00] END_REQSTACK()
```

### Event 65535.5

#### Metadata

| Field        | Value    |
|--------------|----------|
| Entrypoint   | 0x0065   |
| Data Size    | 10 bytes |
| Instructions | 2        |

```
      00 01 02 03 04 05 06 07  08 09 0A 0B 0C 0D 0E 0F
      -- -- -- -- -- -- -- --  -- -- -- -- -- -- -- --
0060:                6C F8 FF  FF 7F 02 80 02 80 00          l......... 
```

#### Opcodes

```
  0: 0x0065 [0x6C] FADE_ENTITY_COLOR(entity_id=EventEntity, end_alpha=0*, fade_time=0*)
  1: 0x006E [0x00] END_REQSTACK()
```

### Event 510

#### Metadata

| Field        | Value   |
|--------------|---------|
| Entrypoint   | 0x006F  |
| Data Size    | 1 bytes |
| Instructions | 1       |

```
      00 01 02 03 04 05 06 07  08 09 0A 0B 0C 0D 0E 0F
      -- -- -- -- -- -- -- --  -- -- -- -- -- -- -- --
0060:                                               00                 .
```

#### Opcodes

```
  0: 0x006F [0x00] END_REQSTACK()
```

### Event 514

#### Metadata

| Field        | Value   |
|--------------|---------|
| Entrypoint   | 0x0070  |
| Data Size    | 1 bytes |
| Instructions | 1       |

```
      00 01 02 03 04 05 06 07  08 09 0A 0B 0C 0D 0E 0F
      -- -- -- -- -- -- -- --  -- -- -- -- -- -- -- --
0070: 00                                                .               
```

#### Opcodes

```
  0: 0x0070 [0x00] END_REQSTACK()
```

### Event 65535.6

#### Metadata

| Field        | Value    |
|--------------|----------|
| Entrypoint   | 0x0071   |
| Data Size    | 16 bytes |
| Instructions | 2        |

```
      00 01 02 03 04 05 06 07  08 09 0A 0B 0C 0D 0E 0F
      -- -- -- -- -- -- -- --  -- -- -- -- -- -- -- --
0070:    5B 08 80 F8 FF FF 7F  F8 FF FF 7F 67 75 64 30   [..........gud0
0080: 00                                                .               
```

#### Opcodes

```
  0: 0x0071 [0x5B] LOAD_EXT_SCHEDULER: Load scheduler "gud0" with entities [EventEntity, EventEntity], work=1373*
  1: 0x0080 [0x00] END_REQSTACK()
```

### Event 65535.7

#### Metadata

| Field        | Value    |
|--------------|----------|
| Entrypoint   | 0x0081   |
| Data Size    | 19 bytes |
| Instructions | 3        |

```
      00 01 02 03 04 05 06 07  08 09 0A 0B 0C 0D 0E 0F
      -- -- -- -- -- -- -- --  -- -- -- -- -- -- -- --
0080:    5B 08 80 F8 FF FF 7F  F8 FF FF 7F 67 75 64 31   [..........gud1
0090: 1C 09 80 00                                       ....            
```

#### Opcodes

```
  0: 0x0081 [0x5B] LOAD_EXT_SCHEDULER: Load scheduler "gud1" with entities [EventEntity, EventEntity], work=1373*
  1: 0x0090 [0x1C] WAIT(80* ticks)
  2: 0x0093 [0x00] END_REQSTACK()
```

### Event 65535.8

#### Metadata

| Field        | Value    |
|--------------|----------|
| Entrypoint   | 0x0094   |
| Data Size    | 16 bytes |
| Instructions | 2        |

```
      00 01 02 03 04 05 06 07  08 09 0A 0B 0C 0D 0E 0F
      -- -- -- -- -- -- -- --  -- -- -- -- -- -- -- --
0090:             66 0A 80 F8  FF FF 7F F8 FF FF 7F 74      f..........t
00A0: 6C 6B 30 00                                       lk0.            
```

#### Opcodes

```
  0: 0x0094 [0x66] LOAD_EXT_SCHEDULER_MAIN: Load scheduler "tlk0" with entities [EventEntity, EventEntity], work=49*
  1: 0x00A3 [0x00] END_REQSTACK()
```

### Event 65535.9

#### Metadata

| Field        | Value    |
|--------------|----------|
| Entrypoint   | 0x00A4   |
| Data Size    | 16 bytes |
| Instructions | 2        |

```
      00 01 02 03 04 05 06 07  08 09 0A 0B 0C 0D 0E 0F
      -- -- -- -- -- -- -- --  -- -- -- -- -- -- -- --
00A0:             66 0A 80 F8  FF FF 7F F8 FF FF 7F 74      f..........t
00B0: 6C 6B 31 00                                       lk1.            
```

#### Opcodes

```
  0: 0x00A4 [0x66] LOAD_EXT_SCHEDULER_MAIN: Load scheduler "tlk1" with entities [EventEntity, EventEntity], work=49*
  1: 0x00B3 [0x00] END_REQSTACK()
```

### Event 65535.10

#### Metadata

| Field        | Value    |
|--------------|----------|
| Entrypoint   | 0x00B4   |
| Data Size    | 18 bytes |
| Instructions | 2        |

```
      00 01 02 03 04 05 06 07  08 09 0A 0B 0C 0D 0E 0F
      -- -- -- -- -- -- -- --  -- -- -- -- -- -- -- --
00B0:             BB 0B 80 F8  FF FF 7F F8 FF FF 7F 73      ...........s
00C0: 30 30 31 02 80 00                                 001...          
```

#### Opcodes

```
  0: 0x00B4 [0xBB] LOAD_EVENT_SCHEDULER_ALT: Load scheduler "s001" with entities [EventEntity, EventEntity], work=[199*, 0*]
  1: 0x00C5 [0x00] END_REQSTACK()
```

### Event 65535.11

#### Metadata

| Field        | Value    |
|--------------|----------|
| Entrypoint   | 0x00C6   |
| Data Size    | 18 bytes |
| Instructions | 2        |

```
      00 01 02 03 04 05 06 07  08 09 0A 0B 0C 0D 0E 0F
      -- -- -- -- -- -- -- --  -- -- -- -- -- -- -- --
00C0:                   BB 0B  80 F8 FF FF 7F F8 FF FF        ..........
00D0: 7F 6B 6C 30 31 02 80 00                           .kl01...        
```

#### Opcodes

```
  0: 0x00C6 [0xBB] LOAD_EVENT_SCHEDULER_ALT: Load scheduler "kl01" with entities [EventEntity, EventEntity], work=[199*, 0*]
  1: 0x00D7 [0x00] END_REQSTACK()
```

### Event 65535.12

#### Metadata

| Field        | Value    |
|--------------|----------|
| Entrypoint   | 0x00D8   |
| Data Size    | 16 bytes |
| Instructions | 4        |

```
      00 01 02 03 04 05 06 07  08 09 0A 0B 0C 0D 0E 0F
      -- -- -- -- -- -- -- --  -- -- -- -- -- -- -- --
00D0:                          4A F8 FF FF 7F B6 F0 0E          J.......
00E0: 01 6F 76 F8 FF FF 7F 00                           .ov.....        
```

#### Opcodes

```
  0: 0x00D8 [0x4A] EventEntity looks at 9 (ID: 17756342/0x010EF0B6)
  1: 0x00E1 [0x6F] WAIT_FRAME_DELAY: Yield until WaitTime reaches zero
  2: 0x00E2 [0x76] CHECK_ENTITY_RENDER_FLAGS: Wait until EventEntity Render.Flags0 and Render.Flags3 conditions are met
  3: 0x00E7 [0x00] END_REQSTACK()
```

### Event 65535.13

#### Metadata

| Field        | Value    |
|--------------|----------|
| Entrypoint   | 0x00E8   |
| Data Size    | 18 bytes |
| Instructions | 2        |

```
      00 01 02 03 04 05 06 07  08 09 0A 0B 0C 0D 0E 0F
      -- -- -- -- -- -- -- --  -- -- -- -- -- -- -- --
00E0:                          C5 0C 80 F8 FF FF 7F F8          ........
00F0: FF FF 7F 73 30 30 30 02  80 00                    ...s000...      
```

#### Opcodes

```
  0: 0x00E8 [0xC5] LOAD_SCHEDULED_TASK_ALT3: Load scheduler 0x80023030 for entities [EventEntity, EventEntity], work=183*, param=12403
  1: 0x00F9 [0x00] END_REQSTACK()
```

### Event 511

#### Metadata

| Field        | Value   |
|--------------|---------|
| Entrypoint   | 0x00FA  |
| Data Size    | 1 bytes |
| Instructions | 1       |

```
      00 01 02 03 04 05 06 07  08 09 0A 0B 0C 0D 0E 0F
      -- -- -- -- -- -- -- --  -- -- -- -- -- -- -- --
00F0:                                00                           .     
```

#### Opcodes

```
  0: 0x00FA [0x00] END_REQSTACK()
```
