# 17756175 - DoorHouse of the Hero

## Common Data

| Field            | Value                    |
|------------------|--------------------------|
| Zone             | Windurst Walls (ID: 239) |
| Block Size       | 15916 bytes              |
| Total Events     | 14                       |
| References Count | 118                      |

## List of Events

| Event ID              | Entrypoint   |   Size |   Instructions |
|-----------------------|--------------|--------|----------------|
| [65535](#event-65535) | 0x0000       |      1 |              1 |
| [289](#event-289)     | 0x0001       |   4457 |            562 |
| [288](#event-288)     | 0x116A       |   2835 |            373 |
| [337](#event-337)     | 0x1C7D       |    645 |             84 |
| [385](#event-385)     | 0x1F02       |     12 |              7 |
| [383](#event-383)     | 0x1F0E       |   1976 |            252 |
| [384](#event-384)     | 0x26C6       |   1980 |            245 |
| [386](#event-386)     | 0x2E82       |    616 |             77 |
| [387](#event-387)     | 0x30EA       |    670 |             88 |
| [388](#event-388)     | 0x3388       |    792 |             99 |
| [389](#event-389)     | 0x36A0       |    990 |            121 |
| [402](#event-402)     | 0x3A7E       |      1 |              1 |
| [413](#event-413)     | 0x3A7F       |    278 |             42 |
| [415](#event-415)     | 0x3B95       |    117 |             24 |

## DAT References (imed_data)

|   Index | Hex Value   |   Dec Value |
|---------|-------------|-------------|
|       0 | 0x00C8      |         200 |
|       1 | 0x0000      |           0 |
|       2 | 0x003C      |          60 |
|       3 | 0x0013      |          19 |
|       4 | 0x000C      |          12 |
|       5 | 0x0813      |        2067 |
|       6 | 0x007B      |         123 |
|       7 | 0x0064      |         100 |
|       8 | 0x008B      |         139 |
|       9 | 0x1E7A      |        7802 |
|      10 | 0x1E7B      |        7803 |
|      11 | 0x1E7C      |        7804 |
|      12 | 0x001E      |          30 |
|      13 | 0x1E7D      |        7805 |
|      14 | 0x07D0      |        2000 |
|      15 | 0x0032      |          50 |
|      16 | 0x1E80      |        7808 |
|      17 | 0x1E87      |        7815 |
|      18 | 0x03E8      |        1000 |
|      19 | 0x012C      |         300 |
|      20 | 0x00A1      |         161 |
|      21 | 0x007F      |         127 |
|      22 | 0x1E98      |        7832 |
|      23 | 0x1E9A      |        7834 |
|      24 | 0x1E9D      |        7837 |
|      25 | 0x1E9E      |        7838 |
|      26 | 0x0C03      |        3075 |
|      27 | 0x1E9F      |        7839 |
|      28 | 0x000F      |          15 |
|      29 | 0x1EA3      |        7843 |
|      30 | 0x085E      |        2142 |
|      31 | 0x1EA7      |        7847 |
|      32 | 0x1EA8      |        7848 |
|      33 | 0x1EAA      |        7850 |
|      34 | 0x000D      |          13 |
|      35 | 0x0078      |         120 |
|      36 | 0x1EAF      |        7855 |
|      37 | 0x1EB5      |        7861 |
|      38 | 0x0C29      |        3113 |
|      39 | 0x1EC5      |        7877 |
|      40 | 0x0097      |         151 |
|      41 | 0x0001      |           1 |
|      42 | 0x00C9      |         201 |
|      43 | 0x0014      |          20 |
|      44 | 0x1E5B      |        7771 |
|      45 | 0x1E5D      |        7773 |
|      46 | 0x1E69      |        7785 |
|      47 | 0x1E6A      |        7786 |
|      48 | 0x1E6D      |        7789 |
|      49 | 0x1E6C      |        7788 |
|      50 | 0x061F      |        1567 |
|      51 | 0x0400      |        1024 |
|      52 | 0x1E63      |        7779 |
|      53 | 0x1E64      |        7780 |
|      54 | 0x1E65      |        7781 |
|      55 | 0x1E66      |        7782 |
|      56 | 0x0008      |           8 |
|      57 | 0x1E74      |        7796 |
|      58 | 0x0003      |           3 |
|      59 | 0x1E71      |        7793 |
|      60 | 0x000A      |          10 |
|      61 | 0x0096      |         150 |
|      62 | 0x0193      |         403 |
|      63 | 0x1F3A      |        7994 |
|      64 | 0x1F3E      |        7998 |
|      65 | 0x002D      |          45 |
|      66 | 0x2203      |        8707 |
|      67 | 0x2205      |        8709 |
|      68 | 0x00D4      |         212 |
|      69 | 0x21D9      |        8665 |
|      70 | 0x21DB      |        8667 |
|      71 | 0x21DD      |        8669 |
|      72 | 0x21DF      |        8671 |
|      73 | 0x0005      |           5 |
|      74 | 0x0006      |           6 |
|      75 | 0x21E1      |        8673 |
|      76 | 0x21E3      |        8675 |
|      77 | 0x21E5      |        8677 |
|      78 | 0x21E7      |        8679 |
|      79 | 0x0099      |         153 |
|      80 | 0x21E8      |        8680 |
|      81 | 0x21E9      |        8681 |
|      82 | 0x21EA      |        8682 |
|      83 | 0x21EB      |        8683 |
|      84 | 0x04A7      |        1191 |
|      85 | 0x21ED      |        8685 |
|      86 | 0x21EF      |        8687 |
|      87 | 0x21F1      |        8689 |
|      88 | 0x21F0      |        8688 |
|      89 | 0x00B4      |         180 |
|      90 | 0x21F3      |        8691 |
|      91 | 0x21F4      |        8692 |
|      92 | 0x21F8      |        8696 |
|      93 | 0x0002      |           2 |
|      94 | 0x21FD      |        8701 |
|      95 | 0x01F4      |         500 |
|      96 | 0x2200      |        8704 |
|      97 | 0x00F0      |         240 |
|      98 | 0x009F      |         159 |
|      99 | 0x00F7      |         247 |
|     100 | 0x2254      |        8788 |
|     101 | 0x225A      |        8794 |
|     102 | 0x225B      |        8795 |
|     103 | 0x2260      |        8800 |
|     104 | 0x2262      |        8802 |
|     105 | 0x00A3      |         163 |
|     106 | 0x2266      |        8806 |
|     107 | 0x226C      |        8812 |
|     108 | 0x226E      |        8814 |
|     109 | 0x2267      |        8807 |
|     110 | 0x2273      |        8819 |
|     111 | 0x0BC1      |        3009 |
|     112 | 0x229F      |        8863 |
|     113 | 0x00FA      |         250 |
|     114 | 0x22AD      |        8877 |
|     115 | 0x22AE      |        8878 |
|     116 | 0x22F8      |        8952 |
|     117 | 0x22F9      |        8953 |

## String References

- **8680**: Seek and gather...
- **8681**: ...the seven colors...
- **8682**: ...that cover the sky...
- **8683**: ...and embrace the earth...
- **8696**: Anything in your grubby hands? [Maybe.../Just dirt.]
- **8707**: The voice from the $1 rings in your head.
- **8709**: ...Seek and gather...the seven colors...that cover the sky...and embrace the earth...
- **8795**: You give the $3 to Joker...
- **8802**: Accept the offer? [When you put it that way.../The hammer or the axe?]
- **8863**: A blue energy wells up within you...!

## Events

### Event 65535

#### Metadata

| Field        | Value   |
|--------------|---------|
| Entrypoint   | 0x0000  |
| Data Size    | 1 bytes |
| Instructions | 1       |

```
      00 01 02 03 04 05 06 07  08 09 0A 0B 0C 0D 0E 0F
      -- -- -- -- -- -- -- --  -- -- -- -- -- -- -- --
0000: 00                                                .               
```

#### Opcodes

```
  0: 0x0000 [0x00] END_REQSTACK()
```

### Event 289

#### Metadata

| Field        | Value      |
|--------------|------------|
| Entrypoint   | 0x0001     |
| Data Size    | 4457 bytes |
| Instructions | 562        |

```
      00 01 02 03 04 05 06 07  08 09 0A 0B 0C 0D 0E 0F
      -- -- -- -- -- -- -- --  -- -- -- -- -- -- -- --
0000:    46 01 42 45 00 80 F8  FF FF 7F F8 FF FF 7F 66   F.BE..........f
0010: 64 6F 31 01 80 1C 02 80  38 03 80 03 00 00 01 80  do1.....8.......
0020: 02 01 00 01 80 00 2E 00  38 03 80 01 3C 00 77 04  ........8...<.w.
0030: 80 01 80 4E 01 91 F0 0E  01 38 05 80 29 0B F0 FF  ...N.....8..)...
0040: FF 7F 26 29 08 19 F0 0E  01 05 5C 00 06 80 5C 01  ..&)......\...\.
0050: 06 80 1C 07 80 4E 00 12  F0 0E 01 4E 00 13 F0 0E  .....N.....N....
0060: 01 4E 00 14 F0 0E 01 4E  00 16 F0 0E 01 4E 00 17  .N.....N.....N..
0070: F0 0E 01 4E 00 15 F0 0E  01 80 12 F0 0E 01 80 13  ...N............
0080: F0 0E 01 80 14 F0 0E 01  80 16 F0 0E 01 80 17 F0  ................
0090: 0E 01 80 15 F0 0E 01 2C  15 F0 0E 01 15 F0 0E 01  .......,........
00A0: 77 6F 66 34 02 01 00 01  80 00 02 01 45 08 80 01  wof4........E...
00B0: F0 0E 01 01 F0 0E 01 73  30 35 35 01 80 45 00 80  .......s055..E..
00C0: 01 F0 0E 01 01 F0 0E 01  66 64 69 31 01 80 2B 12  ........fdi1..+.
00D0: F0 0E 01 09 80 23 4A F0  FF FF 7F 12 F0 0E 01 52  .....#J........R
00E0: 08 80 01 F0 0E 01 01 F0  0E 01 73 30 35 35 45 08  ..........s055E.
00F0: 80 01 F0 0E 01 01 F0 0E  01 73 30 35 33 01 80 01  .........s053...
0100: 24 01 45 08 80 01 F0 0E  01 01 F0 0E 01 73 30 35  $.E..........s05
0110: 33 01 80 45 00 80 01 F0  0E 01 01 F0 0E 01 66 64  3..E..........fd
0120: 69 31 01 80 27 0B 12 F0  0E 01 3C 27 0B 13 F0 0E  i1..'.....<'....
0130: 01 1B 27 0B 14 F0 0E 01  0E 27 0B 16 F0 0E 01 18  ..'......'......
0140: 27 0B 17 F0 0E 01 1D 27  0B 15 F0 0E 01 2D 2A 0B  '......'.....-*.
0150: 12 F0 0E 01 55 08 80 01  F0 0E 01 01 F0 0E 01 73  ....U..........s
0160: 30 35 33 45 08 80 01 F0  0E 01 01 F0 0E 01 73 31  053E..........s1
0170: 30 34 01 80 2A 0B 13 F0  0E 01 2A 0B 14 F0 0E 01  04..*.....*.....
0180: 2A 0B 16 F0 0E 01 2A 0B  17 F0 0E 01 2A 0B 15 F0  *.....*.....*...
0190: 0E 01 02 01 00 01 80 00  BF 01 2B 12 F0 0E 01 0A  ..........+.....
01A0: 80 23 4A 12 F0 0E 01 15  F0 0E 01 45 08 80 01 F0  .#J........E....
01B0: 0E 01 01 F0 0E 01 73 30  35 34 01 80 01 C8 01 4A  ......s054.....J
01C0: 12 F0 0E 01 15 F0 0E 01  2B 12 F0 0E 01 0B 80 23  ........+......#
01D0: 27 08 14 F0 0E 01 05 27  08 13 F0 0E 01 05 27 08  '......'......'.
01E0: 17 F0 0E 01 03 27 08 16  F0 0E 01 03 29 0B 13 F0  .....'......)...
01F0: 0E 01 1F 29 0B 14 F0 0E  01 13 29 0B 16 F0 0E 01  ...)......).....
0200: 1D 29 0B 17 F0 0E 01 23  2A 08 14 F0 0E 01 2A 08  .).....#*.....*.
0210: 13 F0 0E 01 2A 08 17 F0  0E 01 2A 08 16 F0 0E 01  ....*.....*.....
0220: 29 08 14 F0 0E 01 06 29  08 13 F0 0E 01 06 29 08  )......)......).
0230: 17 F0 0E 01 04 29 08 16  F0 0E 01 04 45 00 80 01  .....)......E...
0240: F0 0E 01 01 F0 0E 01 66  64 6F 31 01 80 1C 02 80  .......fdo1.....
0250: 4C 02 01 00 01 80 00 5F  02 38 03 80 01 62 02 38  L......_.8...b.8
0260: 05 80 1C 00 80 4D 29 0B  F0 FF FF 7F 2B 29 0B 18  .....M).....+)..
0270: F0 0E 01 19 1C 0C 80 4E  00 18 F0 0E 01 80 18 F0  .......N........
0280: 0E 01 27 0B 12 F0 0E 01  1A 27 0B 13 F0 0E 01 0C  ..'......'......
0290: 27 0B 14 F0 0E 01 16 45  08 80 01 F0 0E 01 01 F0  '......E........
02A0: 0E 01 73 30 32 36 01 80  45 00 80 01 F0 0E 01 01  ..s026..E.......
02B0: F0 0E 01 66 64 69 31 01  80 2B 12 F0 0E 01 0D 80  ...fdi1..+......
02C0: 23 4B 18 F0 0E 01 0E 80  45 00 80 01 F0 0E 01 01  #K......E.......
02D0: F0 0E 01 66 64 6F 31 01  80 27 0B 15 F0 0E 01 11  ...fdo1..'......
02E0: 52 08 80 01 F0 0E 01 01  F0 0E 01 73 30 32 36 45  R..........s026E
02F0: 08 80 01 F0 0E 01 01 F0  0E 01 73 30 32 38 01 80  ..........s028..
0300: 29 0B F0 FF FF 7F 2C 27  0B 16 F0 0E 01 0C 27 0B  ).....,'......'.
0310: 17 F0 0E 01 0D 45 00 80  01 F0 0E 01 01 F0 0E 01  .....E..........
0320: 66 64 69 31 01 80 1C 0F  80 02 01 00 01 80 00 37  fdi1...........7
0330: 03 4E 00 F0 FF FF 7F 27  0B F0 FF FF 7F 2D 2A 0B  .N.....'.....-*.
0340: 12 F0 0E 01 2A 0B 13 F0  0E 01 2A 0B 14 F0 0E 01  ....*.....*.....
0350: 2A 0B 16 F0 0E 01 2A 0B  17 F0 0E 01 55 08 80 01  *.....*.....U...
0360: F0 0E 01 01 F0 0E 01 73  30 32 38 45 08 80 01 F0  .......s028E....
0370: 0E 01 01 F0 0E 01 73 30  34 30 01 80 29 0B 12 F0  ......s040..)...
0380: 0E 01 1F 2A 0B F0 FF FF  7F 45 08 80 01 F0 0E 01  ...*.....E......
0390: 01 F0 0E 01 73 30 32 37  01 80 27 0B 18 F0 0E 01  ....s027..'.....
03A0: 1A 2B 18 F0 0E 01 10 80  23 2A 0B 15 F0 0E 01 4A  .+......#*.....J
03B0: 18 F0 0E 01 12 F0 0E 01  52 08 80 01 F0 0E 01 01  ........R.......
03C0: F0 0E 01 73 30 32 37 45  08 80 01 F0 0E 01 01 F0  ...s027E........
03D0: 0E 01 73 31 30 36 01 80  29 0B 12 F0 0E 01 20 45  ..s106..)..... E
03E0: 08 80 01 F0 0E 01 01 F0  0E 01 73 30 32 39 01 80  ..........s029..
03F0: 29 0B 18 F0 0E 01 1F 4A  12 F0 0E 01 13 F0 0E 01  )......J........
0400: 4A 13 F0 0E 01 12 F0 0E  01 29 0B 12 F0 0E 01 21  J........).....!
0410: 29 0B 13 F0 0E 01 0E 45  08 80 01 F0 0E 01 01 F0  )......E........
0420: 0E 01 73 30 33 30 01 80  4A 12 F0 0E 01 18 F0 0E  ..s030..J.......
0430: 01 4A 13 F0 0E 01 18 F0  0E 01 27 0B F0 FF FF 7F  .J........'.....
0440: 2E 27 0B 13 F0 0E 01 0D  27 0B 14 F0 0E 01 17 27  .'......'......'
0450: 0B 15 F0 0E 01 13 27 0B  16 F0 0E 01 0F 27 0B 17  ......'......'..
0460: F0 0E 01 11 27 0B 18 F0  0E 01 1B 27 0B 12 F0 0E  ....'......'....
0470: 01 1D 2B 18 F0 0E 01 11  80 23 2A 0B 18 F0 0E 01  ..+......#*.....
0480: 4A F0 FF FF 7F 18 F0 0E  01 52 08 80 01 F0 0E 01  J........R......
0490: 01 F0 0E 01 73 30 33 30  45 08 80 01 F0 0E 01 01  ....s030E.......
04A0: F0 0E 01 73 30 33 31 01  80 4A 18 F0 0E 01 15 F0  ...s031..J......
04B0: 0E 01 29 0B 18 F0 0E 01  20 7B 18 F0 0E 01 29 0B  ..)..... {....).
04C0: 18 F0 0E 01 21 29 0B 12  F0 0E 01 22 52 08 80 01  ....!)....."R...
04D0: F0 0E 01 01 F0 0E 01 73  30 33 31 45 08 80 01 F0  .......s031E....
04E0: 0E 01 01 F0 0E 01 73 30  33 32 01 80 4B 18 F0 0E  ......s032..K...
04F0: 01 12 80 1C 0C 80 29 0B  18 F0 0E 01 22 52 08 80  ......)....."R..
0500: 01 F0 0E 01 01 F0 0E 01  73 30 33 32 45 08 80 01  ........s032E...
0510: F0 0E 01 01 F0 0E 01 73  30 33 33 01 80 5D 01 80  .......s033..]..
0520: 13 80 79 00 18 F0 0E 01  0F F0 0E 01 29 0B 18 F0  ..y.........)...
0530: 0E 01 1C 27 0B 13 F0 0E  01 0D 27 0B 14 F0 0E 01  ...'......'.....
0540: 17 27 0B 15 F0 0E 01 13  27 0B 16 F0 0E 01 0F 27  .'......'......'
0550: 0B 17 F0 0E 01 0E 27 0D  12 F0 0E 01 1D 4A 18 F0  ......'......J..
0560: 0E 01 17 F0 0E 01 4A F0  FF FF 7F 18 F0 0E 01 27  ......J........'
0570: 0B 18 F0 0E 01 1D 1C 0C  80 4A F0 FF FF 7F 18 F0  .........J......
0580: 0E 01 52 08 80 01 F0 0E  01 01 F0 0E 01 73 30 33  ..R..........s03
0590: 33 45 08 80 01 F0 0E 01  01 F0 0E 01 73 30 33 34  3E..........s034
05A0: 01 80 4C 2A 0D 12 F0 0E  01 2A 0B 13 F0 0E 01 2A  ..L*.....*.....*
05B0: 0B 14 F0 0E 01 2A 0B 15  F0 0E 01 2A 0B 16 F0 0E  .....*.....*....
05C0: 01 2A 0B 18 F0 0E 01 2A  0B 17 F0 0E 01 1C 02 80  .*.....*........
05D0: 4A 12 F0 0E 01 18 F0 0E  01 4A 13 F0 0E 01 18 F0  J........J......
05E0: 0E 01 1C 02 80 4D 55 08  80 01 F0 0E 01 01 F0 0E  .....MU.........
05F0: 01 73 30 33 34 45 08 80  F0 FF FF 7F F0 FF FF 7F  .s034E..........
0600: 73 31 30 32 01 80 7B 18  F0 0E 01 4A 17 F0 0E 01  s102..{....J....
0610: 18 F0 0E 01 1C 02 80 4A  12 F0 0E 01 F0 FF FF 7F  .......J........
0620: 4A 13 F0 0E 01 12 F0 0E  01 4A 14 F0 0E 01 12 F0  J........J......
0630: 0E 01 29 0B 12 F0 0E 01  23 45 08 80 01 F0 0E 01  ..).....#E......
0640: 01 F0 0E 01 73 30 33 35  01 80 5C 00 14 80 5C 01  ....s035..\...\.
0650: 14 80 5D 15 80 02 80 27  0B 17 F0 0E 01 0F 27 0B  ..]....'......'.
0660: 16 F0 0E 01 0D 4A 12 F0  0E 01 18 F0 0E 01 4A 13  .....J........J.
0670: F0 0E 01 18 F0 0E 01 4A  14 F0 0E 01 18 F0 0E 01  .......J........
0680: 2A 0B 17 F0 0E 01 4A 16  F0 0E 01 12 F0 0E 01 29  *.....J........)
0690: 0B 16 F0 0E 01 10 2A 0B  17 F0 0E 01 29 08 17 F0  ......*.....)...
06A0: 0E 01 09 29 0B 17 F0 0E  01 12 45 08 80 01 F0 0E  ...)......E.....
06B0: 01 01 F0 0E 01 73 30 33  36 01 80 29 08 17 F0 0E  .....s036..)....
06C0: 01 0A 29 0B 18 F0 0E 01  23 29 0B 18 F0 0E 01 24  ..).....#).....$
06D0: 7C 01 17 F0 0E 01 4A 17  F0 0E 01 12 F0 0E 01 1C  |.....J.........
06E0: 0C 80 29 0B 17 F0 0E 01  16 4A F0 FF FF 7F 12 F0  ..)......J......
06F0: 0E 01 4A 14 F0 0E 01 12  F0 0E 01 4A 13 F0 0E 01  ..J........J....
0700: 12 F0 0E 01 4A 15 F0 0E  01 12 F0 0E 01 4A 16 F0  ....J........J..
0710: 0E 01 12 F0 0E 01 4A 12  F0 0E 01 15 F0 0E 01 52  ......J........R
0720: 08 80 01 F0 0E 01 01 F0  0E 01 73 30 33 36 45 08  ..........s036E.
0730: 80 01 F0 0E 01 01 F0 0E  01 73 30 33 37 01 80 27  .........s037..'
0740: 0B 17 F0 0E 01 10 27 0B  16 F0 0E 01 0E 29 0B 12  ......'......)..
0750: F0 0E 01 24 1C 13 80 52  08 80 01 F0 0E 01 01 F0  ...$...R........
0760: 0E 01 73 30 33 37 45 08  80 F0 FF FF 7F F0 FF FF  ..s037E.........
0770: 7F 73 31 30 33 01 80 29  0B 12 F0 0E 01 25 2A 0B  .s103..).....%*.
0780: 17 F0 0E 01 2A 0B 16 F0  0E 01 4A 16 F0 0E 01 17  ....*.....J.....
0790: F0 0E 01 4A 17 F0 0E 01  16 F0 0E 01 1C 07 80 45  ...J...........E
07A0: 08 80 01 F0 0E 01 01 F0  0E 01 73 30 33 38 01 80  ..........s038..
07B0: 27 08 13 F0 0E 01 03 27  08 14 F0 0E 01 03 4A 17  '......'......J.
07C0: F0 0E 01 12 F0 0E 01 4A  16 F0 0E 01 12 F0 0E 01  .......J........
07D0: 29 0B 12 F0 0E 01 26 29  0B 12 F0 0E 01 27 45 08  ).....&).....'E.
07E0: 80 01 F0 0E 01 01 F0 0E  01 73 30 33 39 01 80 27  .........s039..'
07F0: 0B 12 F0 0E 01 1C 2B 12  F0 0E 01 16 80 23 2A 0B  ......+......#*.
0800: 12 F0 0E 01 55 08 80 01  F0 0E 01 01 F0 0E 01 73  ....U..........s
0810: 30 33 39 45 00 80 01 F0  0E 01 01 F0 0E 01 66 64  039E..........fd
0820: 6F 31 01 80 1C 02 80 2A  08 13 F0 0E 01 2A 08 14  o1.....*.....*..
0830: F0 0E 01 29 0B 12 F0 0E  01 2A 29 0B 13 F0 0E 01  ...).....*).....
0840: 0F 29 0B 14 F0 0E 01 18  29 0B 15 F0 0E 01 14 29  .)......)......)
0850: 0B 16 F0 0E 01 11 29 0B  17 F0 0E 01 13 29 0B F0  ......)......)..
0860: FF FF 7F 2F 29 0B 19 F0  0E 01 0F 22 00 80 19 F0  .../)......"....
0870: 0E 01 1C 00 80 45 08 80  01 F0 0E 01 01 F0 0E 01  .....E..........
0880: 73 30 36 39 01 80 45 00  80 01 F0 0E 01 01 F0 0E  s069..E.........
0890: 01 66 64 69 31 01 80 55  08 80 01 F0 0E 01 01 F0  .fdi1..U........
08A0: 0E 01 73 30 36 39 45 08  80 01 F0 0E 01 01 F0 0E  ..s069E.........
08B0: 01 73 30 37 34 01 80 29  0B 12 F0 0E 01 2F 45 08  .s074..)...../E.
08C0: 80 01 F0 0E 01 01 F0 0E  01 73 30 37 30 01 80 27  .........s070..'
08D0: 0B 12 F0 0E 01 2E 2B 12  F0 0E 01 17 80 23 2A 0B  ......+......#*.
08E0: 12 F0 0E 01 29 0B 14 F0  0E 01 1C 4A 17 F0 0E 01  ....)......J....
08F0: 16 F0 0E 01 29 0B 17 F0  0E 01 17 52 08 80 01 F0  ....)......R....
0900: 0E 01 01 F0 0E 01 73 30  37 30 45 08 80 01 F0 0E  ......s070E.....
0910: 01 01 F0 0E 01 73 30 37  31 01 80 4A F0 FF FF 7F  .....s071..J....
0920: 13 F0 0E 01 4A 12 F0 0E  01 13 F0 0E 01 27 0B 13  ....J........'..
0930: F0 0E 01 11 2B 13 F0 0E  01 18 80 23 1C 0F 80 4A  ....+......#...J
0940: 14 F0 0E 01 13 F0 0E 01  4A 17 F0 0E 01 13 F0 0E  ........J.......
0950: 01 1C 0F 80 2B 13 F0 0E  01 19 80 23 2A 0B 13 F0  ....+......#*...
0960: 0E 01 4A 16 F0 0E 01 13  F0 0E 01 4A 15 F0 0E 01  ..J........J....
0970: 13 F0 0E 01 52 08 80 01  F0 0E 01 01 F0 0E 01 73  ....R..........s
0980: 30 37 31 45 08 80 01 F0  0E 01 01 F0 0E 01 73 30  071E..........s0
0990: 37 39 01 80 5D 01 80 07  80 4B 13 F0 0E 01 1A 80  79..]....K......
09A0: 7B 13 F0 0E 01 1C 07 80  45 08 80 01 F0 0E 01 01  {.......E.......
09B0: F0 0E 01 73 30 37 32 01  80 27 0B 13 F0 0E 01 12  ...s072..'......
09C0: 2B 13 F0 0E 01 1B 80 23  1C 0F 80 4A F0 FF FF 7F  +......#...J....
09D0: 13 F0 0E 01 4A 16 F0 0E  01 13 F0 0E 01 4A 12 F0  ....J........J..
09E0: 0E 01 13 F0 0E 01 4A 15  F0 0E 01 13 F0 0E 01 45  ......J........E
09F0: 08 80 01 F0 0E 01 01 F0  0E 01 73 30 37 36 01 80  ..........s076..
0A00: 1C 1C 80 27 08 17 F0 0E  01 07 4A F0 FF FF 7F 13  ...'......J.....
0A10: F0 0E 01 4A 16 F0 0E 01  13 F0 0E 01 4A 12 F0 0E  ...J........J...
0A20: 01 13 F0 0E 01 4A 15 F0  0E 01 13 F0 0E 01 1C 1C  .....J..........
0A30: 80 4A F0 FF FF 7F 13 F0  0E 01 4A 16 F0 0E 01 13  .J........J.....
0A40: F0 0E 01 4A 12 F0 0E 01  13 F0 0E 01 4A 15 F0 0E  ...J........J...
0A50: 01 13 F0 0E 01 1C 1C 80  27 08 16 F0 0E 01 06 4A  ........'......J
0A60: 12 F0 0E 01 13 F0 0E 01  52 08 80 01 F0 0E 01 01  ........R.......
0A70: F0 0E 01 73 30 37 36 45  08 80 01 F0 0E 01 01 F0  ...s076E........
0A80: 0E 01 73 30 37 35 01 80  29 0B 14 F0 0E 01 1B 2A  ..s075..)......*
0A90: 08 17 F0 0E 01 2A 08 16  F0 0E 01 2A 0B 15 F0 0E  .....*.....*....
0AA0: 01 2A 0B 13 F0 0E 01 4A  15 F0 0E 01 19 F0 0E 01  .*.....J........
0AB0: 29 08 13 F0 0E 01 03 29  0B 13 F0 0E 01 15 29 08  )......)......).
0AC0: 14 F0 0E 01 07 45 08 80  01 F0 0E 01 01 F0 0E 01  .....E..........
0AD0: 73 30 37 37 01 80 5D 15  80 07 80 4A F0 FF FF 7F  s077..]....J....
0AE0: 15 F0 0E 01 27 0B 15 F0  0E 01 15 29 0B 12 F0 0E  ....'......)....
0AF0: 01 30 2B 15 F0 0E 01 1D  80 23 4A 12 F0 0E 01 15  .0+......#J.....
0B00: F0 0E 01 1C 0C 80 29 08  12 F0 0E 01 0D 29 08 12  ......)......)..
0B10: F0 0E 01 0E 29 08 14 F0  0E 01 08 45 08 80 01 F0  ....)......E....
0B20: 0E 01 01 F0 0E 01 73 30  37 33 01 80 1C 0C 80 29  ......s073.....)
0B30: 0B 12 F0 0E 01 2C 29 0B  12 F0 0E 01 31 2A 0B 15  .....,).....1*..
0B40: F0 0E 01 4A 15 F0 0E 01  12 F0 0E 01 29 0B 15 F0  ...J........)...
0B50: 0E 01 1A 29 0B 12 F0 0E  01 32 4B 15 F0 0E 01 1E  ...).....2K.....
0B60: 80 1C 0C 80 27 0B 15 F0  0E 01 16 1C 0C 80 45 08  ....'.........E.
0B70: 80 01 F0 0E 01 01 F0 0E  01 73 30 38 30 01 80 2B  .........s080..+
0B80: 15 F0 0E 01 1F 80 23 2A  0B 15 F0 0E 01 7B 15 F0  ......#*.....{..
0B90: 0E 01 27 0B 12 F0 0E 01  2D 4A 12 F0 0E 01 19 F0  ..'.....-J......
0BA0: 0E 01 4A 15 F0 0E 01 19  F0 0E 01 2B 12 F0 0E 01  ..J........+....
0BB0: 20 80 23 2A 0B 12 F0 0E  01 1C 0F 80 45 08 80 01   .#*........E...
0BC0: F0 0E 01 01 F0 0E 01 73  30 38 32 01 80 4A 12 F0  .......s082..J..
0BD0: 0E 01 15 F0 0E 01 5D 01  80 00 80 4E 00 19 F0 0E  ......]....N....
0BE0: 01 29 08 19 F0 0E 01 05  2C 15 F0 0E 01 15 F0 0E  .)......,.......
0BF0: 01 77 6F 6E 34 29 08 15  F0 0E 01 0D 2B 15 F0 0E  .won4)......+...
0C00: 01 21 80 23 29 08 15 F0  0E 01 0E 62 22 80 15 F0  .!.#)......b"...
0C10: 0E 01 19 F0 0E 01 6D 61  69 6E 01 80 1C 07 80 29  ......main.....)
0C20: 0B 12 F0 0E 01 34 45 08  80 01 F0 0E 01 01 F0 0E  .....4E.........
0C30: 01 73 30 38 31 01 80 2C  15 F0 0E 01 15 F0 0E 01  .s081..,........
0C40: 77 6F 66 34 62 22 80 15  F0 0E 01 19 F0 0E 01 6D  wof4b".........m
0C50: 61 69 31 01 80 4A 12 F0  0E 01 19 F0 0E 01 4A 15  ai1..J........J.
0C60: F0 0E 01 19 F0 0E 01 29  08 15 F0 0E 01 0F 1C 07  .......)........
0C70: 80 52 08 80 01 F0 0E 01  01 F0 0E 01 73 30 38 31  .R..........s081
0C80: 45 08 80 01 F0 0E 01 01  F0 0E 01 73 30 38 33 01  E..........s083.
0C90: 80 29 08 19 F0 0E 01 06  29 08 12 F0 0E 01 0B 29  .)......)......)
0CA0: 08 14 F0 0E 01 03 29 0B  12 F0 0E 01 2B 5C 00 23  ......).....+\.#
0CB0: 80 5C 01 23 80 5D 15 80  07 80 1C 02 80 55 08 80  .\.#.].......U..
0CC0: 01 F0 0E 01 01 F0 0E 01  73 30 38 33 45 08 80 01  ........s083E...
0CD0: F0 0E 01 01 F0 0E 01 73  30 38 34 01 80 29 0B 12  .......s084..)..
0CE0: F0 0E 01 29 29 08 19 F0  0E 01 07 29 0B 15 F0 0E  ...))......)....
0CF0: 01 1D 52 08 80 01 F0 0E  01 01 F0 0E 01 73 30 38  ..R..........s08
0D00: 34 45 08 80 01 F0 0E 01  01 F0 0E 01 73 30 38 35  4E..........s085
0D10: 01 80 29 0B 19 F0 0E 01  10 29 0B 15 F0 0E 01 1E  ..)......)......
0D20: 1C 07 80 45 08 80 01 F0  0E 01 01 F0 0E 01 73 30  ...E..........s0
0D30: 38 37 01 80 29 08 15 F0  0E 01 03 2B 15 F0 0E 01  87..)......+....
0D40: 24 80 23 29 08 15 F0 0E  01 04 29 08 15 F0 0E 01  $.#)......).....
0D50: 05 29 08 15 F0 0E 01 06  29 0B 15 F0 0E 01 1F 29  .)......)......)
0D60: 0B 15 F0 0E 01 20 45 08  80 01 F0 0E 01 01 F0 0E  ..... E.........
0D70: 01 73 30 38 36 01 80 1C  07 80 29 0B 19 F0 0E 01  .s086.....).....
0D80: 13 45 00 80 01 F0 0E 01  01 F0 0E 01 66 64 6F 31  .E..........fdo1
0D90: 01 80 1C 02 80 1C 07 80  29 0B 19 F0 0E 01 14 45  ........)......E
0DA0: 08 80 01 F0 0E 01 01 F0  0E 01 73 30 34 31 01 80  ..........s041..
0DB0: 27 0B 13 F0 0E 01 16 27  0B 14 F0 0E 01 1D 27 0B  '......'......'.
0DC0: F0 FF FF 7F 31 27 0B 17  F0 0E 01 18 27 0B 16 F0  ....1'......'...
0DD0: 0E 01 13 27 0B 19 F0 0E  01 15 27 0B 15 F0 0E 01  ...'......'.....
0DE0: 21 27 0D 12 F0 0E 01 35  4C 45 00 80 01 F0 0E 01  !'.....5LE......
0DF0: 01 F0 0E 01 66 64 69 31  01 80 2B 12 F0 0E 01 25  ....fdi1..+....%
0E00: 80 23 1C 02 80 55 08 80  01 F0 0E 01 01 F0 0E 01  .#...U..........
0E10: 73 30 34 31 2A 0B 16 F0  0E 01 45 08 80 01 F0 0E  s041*.....E.....
0E20: 01 01 F0 0E 01 73 30 34  33 01 80 4E 01 F0 FF FF  .....s043..N....
0E30: 7F 4D 29 0B 12 F0 0E 01  37 29 0B 13 F0 0E 01 18  .M).....7)......
0E40: 4A 14 F0 0E 01 13 F0 0E  01 29 0B 14 F0 0E 01 1F  J........)......
0E50: 2A 0D 12 F0 0E 01 2A 0B  13 F0 0E 01 2A 0B 14 F0  *.....*.....*...
0E60: 0E 01 4A 12 F0 0E 01 15  F0 0E 01 4A 13 F0 0E 01  ..J........J....
0E70: 12 F0 0E 01 4A 14 F0 0E  01 12 F0 0E 01 4A 17 F0  ....J........J..
0E80: 0E 01 12 F0 0E 01 4A 16  F0 0E 01 12 F0 0E 01 4A  ......J........J
0E90: 15 F0 0E 01 12 F0 0E 01  29 0B 12 F0 0E 01 38 52  ........).....8R
0EA0: 08 80 01 F0 0E 01 01 F0  0E 01 73 30 34 33 45 08  ..........s043E.
0EB0: 80 01 F0 0E 01 01 F0 0E  01 73 30 35 31 01 80 02  .........s051...
0EC0: 01 00 01 80 00 D0 0E 4E  00 F0 FF FF 7F 01 D0 0E  .......N........
0ED0: 29 0B 12 F0 0E 01 39 27  08 14 F0 0E 01 05 27 08  ).....9'......'.
0EE0: 13 F0 0E 01 05 27 08 17  F0 0E 01 03 27 08 16 F0  .....'......'...
0EF0: 0E 01 03 29 0B 13 F0 0E  01 1F 29 0B 14 F0 0E 01  ...)......).....
0F00: 13 29 0B 17 F0 0E 01 23  29 0B 16 F0 0E 01 1D 2A  .).....#)......*
0F10: 08 14 F0 0E 01 2A 08 13  F0 0E 01 2A 08 17 F0 0E  .....*.....*....
0F20: 01 2A 08 16 F0 0E 01 29  08 14 F0 0E 01 06 29 08  .*.....)......).
0F30: 13 F0 0E 01 06 29 08 17  F0 0E 01 04 29 08 16 F0  .....)......)...
0F40: 0E 01 04 45 08 80 01 F0  0E 01 01 F0 0E 01 73 30  ...E..........s0
0F50: 34 34 01 80 27 0B 12 F0  0E 01 36 27 0B 13 F0 0E  44..'.....6'....
0F60: 01 17 27 0B 14 F0 0E 01  1E 27 0B F0 FF FF 7F 32  ..'......'.....2
0F70: 27 0B 16 F0 0E 01 14 27  0B 17 F0 0E 01 19 29 0B  '......'......).
0F80: 15 F0 0E 01 23 29 0B 15  F0 0E 01 26 45 08 80 01  ....#).....&E...
0F90: F0 0E 01 01 F0 0E 01 73  30 34 35 01 80 29 0B 15  .......s045..)..
0FA0: F0 0E 01 24 55 08 80 01  F0 0E 01 01 F0 0E 01 73  ...$U..........s
0FB0: 30 34 35 4A 15 F0 0E 01  19 F0 0E 01 29 0B 15 F0  045J........)...
0FC0: 0E 01 27 4A 19 F0 0E 01  15 F0 0E 01 4B 19 F0 0E  ..'J........K...
0FD0: 01 26 80 45 08 80 01 F0  0E 01 01 F0 0E 01 73 30  .&.E..........s0
0FE0: 34 37 01 80 29 0B 19 F0  0E 01 1B 55 08 80 01 F0  47..)......U....
0FF0: 0E 01 01 F0 0E 01 73 30  34 37 45 08 80 01 F0 0E  ......s047E.....
1000: 01 01 F0 0E 01 73 30 34  36 01 80 29 0B 19 F0 0E  .....s046..)....
1010: 01 18 29 0B 15 F0 0E 01  28 4A 19 F0 0E 01 15 F0  ..).....(J......
1020: 0E 01 45 08 80 01 F0 0E  01 01 F0 0E 01 73 30 34  ..E..........s04
1030: 38 01 80 29 0B 19 F0 0E  01 19 1C 07 80 45 08 80  8..).........E..
1040: 01 F0 0E 01 01 F0 0E 01  73 30 34 36 01 80 29 0B  ........s046..).
1050: 15 F0 0E 01 29 45 08 80  01 F0 0E 01 01 F0 0E 01  ....)E..........
1060: 73 30 35 30 01 80 27 0B  15 F0 0E 01 25 1C 0F 80  s050..'.....%...
1070: 29 0B 19 F0 0E 01 1A 45  08 80 01 F0 0E 01 01 F0  )......E........
1080: 0E 01 73 30 35 32 01 80  2A 0B 15 F0 0E 01 4A 15  ..s052..*.....J.
1090: F0 0E 01 19 F0 0E 01 29  0B 15 F0 0E 01 2A 29 0B  .......).....*).
10A0: 19 F0 0E 01 1B 2B 19 F0  0E 01 27 80 23 45 08 80  .....+....'.#E..
10B0: 01 F0 0E 01 01 F0 0E 01  73 30 34 39 01 80 27 0B  ........s049..'.
10C0: 19 F0 0E 01 17 55 08 80  01 F0 0E 01 01 F0 0E 01  .....U..........
10D0: 73 30 34 39 45 00 80 01  F0 0E 01 01 F0 0E 01 66  s049E..........f
10E0: 64 6F 31 01 80 1C 02 80  2A 0B 19 F0 0E 01 2A 0B  do1.....*.....*.
10F0: 12 F0 0E 01 2A 0B 13 F0  0E 01 2A 0B 14 F0 0E 01  ....*.....*.....
1100: 2A 0B 16 F0 0E 01 2A 0B  17 F0 0E 01 5C 00 28 80  *.....*.....\.(.
1110: 5C 01 28 80 5D 15 80 29  80 1C 13 80 7B 12 F0 0E  \.(.]..)....{...
1120: 01 02 01 00 01 80 00 2C  11 01 36 11 4E 00 91 F0  .......,..6.N...
1130: 0E 01 38 03 80 78 1C 0C  80 4E 00 F0 FF FF 7F 1C  ..8..x...N......
1140: 0C 80 45 2A 80 F0 FF FF  7F F0 FF FF 7F 71 73 74  ..E*.........qst
1150: 63 01 80 45 00 80 F8 FF  FF 7F F8 FF FF 7F 66 64  c..E..........fd
1160: 69 31 01 80 46 00 20 00  21 00                    i1..F. .!.      
```

#### Opcodes

```
  0: 0x0001 [0x46] CAMERA_CONTROL: Disable user control
  1: 0x0003 [0x42] SET_CLI_EVENT_CANCEL_DATA()
  2: 0x0004 [0x45] LOAD_SCHEDULED_TASK: Load scheduler "fdo1" with entities [EventEntity, EventEntity], work=[200*, 0*]
  3: 0x0015 [0x1C] WAIT(60* ticks)
  4: 0x0018 [0x38] SET_CLIENT_EVENT_MODE(mode=19*)
  5: 0x001B [0x03] ExtData[1]->WorkLocal[0] = 0*
  6: 0x0020 [0x02] IF !(ExtData[1]->WorkLocal[1] == 0*) GOTO 0x002E
  7: 0x0028 [0x38] SET_CLIENT_EVENT_MODE(mode=19*)
  8: 0x002B [0x01] GOTO 0x003C
  9: 0x002E [0x77] SET_EVENT_TIME_WEATHER(hour=12*, weather=0*)
 10: 0x0033 [0x4E] SET_ENTITY_HIDE_FLAG: Hide Unnamed NPC (ID: 17756305/0x010EF091)
 11: 0x0039 [0x38] SET_CLIENT_EVENT_MODE(mode=2067*)

SUBROUTINE_003C:
 12: 0x003C [0x29] REQ_SET_WAIT(priority=0x0B, entity_id=LocalPlayer, tag_num=0x26)
 13: 0x0043 [0x29] REQ_SET_WAIT(priority=0x08, entity_id=Joker (ID: 17756185/0x010EF019), tag_num=0x05)
 14: 0x004A [0x5C] MUSIC_CONTROL: Set Idle (Day) music to song 123*
 15: 0x004E [0x5C] MUSIC_CONTROL: Set Idle (Night) music to song 123*
 16: 0x0052 [0x1C] WAIT(100* ticks)
 17: 0x0055 [0x4E] SET_ENTITY_HIDE_FLAG: Show Kohlo-Lakolo (ID: 17756178/0x010EF012)
 18: 0x005B [0x4E] SET_ENTITY_HIDE_FLAG: Show Papo-Hopo (ID: 17756179/0x010EF013)
 19: 0x0061 [0x4E] SET_ENTITY_HIDE_FLAG: Show Gomada-Vulmada (ID: 17756180/0x010EF014)
 20: 0x0067 [0x4E] SET_ENTITY_HIDE_FLAG: Show Yafa Yaa (ID: 17756182/0x010EF016)
 21: 0x006D [0x4E] SET_ENTITY_HIDE_FLAG: Show Pyo Nzon (ID: 17756183/0x010EF017)
 22: 0x0073 [0x4E] SET_ENTITY_HIDE_FLAG: Show Pichichi (ID: 17756181/0x010EF015)
 23: 0x0079 [0x80] LOAD_WAIT(entity=Kohlo-Lakolo (ID: 17756178/0x010EF012))
 24: 0x007E [0x80] LOAD_WAIT(entity=Papo-Hopo (ID: 17756179/0x010EF013))
 25: 0x0083 [0x80] LOAD_WAIT(entity=Gomada-Vulmada (ID: 17756180/0x010EF014))
 26: 0x0088 [0x80] LOAD_WAIT(entity=Yafa Yaa (ID: 17756182/0x010EF016))
 27: 0x008D [0x80] LOAD_WAIT(entity=Pyo Nzon (ID: 17756183/0x010EF017))
 28: 0x0092 [0x80] LOAD_WAIT(entity=Pichichi (ID: 17756181/0x010EF015))
 29: 0x0097 [0x2C] CREATE_SCHEDULER_TASK: Create scheduler "wof4" with entities [Pichichi (ID: 17756181/0x010EF015), Pichichi (ID: 17756181/0x010EF015)]
 30: 0x00A4 [0x02] IF !(ExtData[1]->WorkLocal[1] == 0*) GOTO 0x0102
 31: 0x00AC [0x45] LOAD_SCHEDULED_TASK: Load scheduler "s055" with entities [PRODUCER (ID: 17756161/0x010EF001), PRODUCER (ID: 17756161/0x010EF001)], work=[139*, 0*]
 32: 0x00BD [0x45] LOAD_SCHEDULED_TASK: Load scheduler "fdi1" with entities [PRODUCER (ID: 17756161/0x010EF001), PRODUCER (ID: 17756161/0x010EF001)], work=[200*, 0*]
 33: 0x00CE [0x2B] Kohlo-Lakolo (ID: 17756178/0x010EF012) [7802*]:
    → "Ahoy! Ahoy!"
 34: 0x00D5 [0x23] WAIT_FOR_DIALOG_INTERACTION
 35: 0x00D6 [0x4A] LocalPlayer looks at Kohlo-Lakolo (ID: 17756178/0x010EF012)
 36: 0x00DF [0x52] END_LOAD_SCHEDULER: End scheduler "s055" with entities [PRODUCER (ID: 17756161/0x010EF001), PRODUCER (ID: 17756161/0x010EF001)], work=139*
 37: 0x00EE [0x45] LOAD_SCHEDULED_TASK: Load scheduler "s053" with entities [PRODUCER (ID: 17756161/0x010EF001), PRODUCER (ID: 17756161/0x010EF001)], work=[139*, 0*]
 38: 0x00FF [0x01] GOTO 0x0124
 39: 0x0102 [0x45] LOAD_SCHEDULED_TASK: Load scheduler "s053" with entities [PRODUCER (ID: 17756161/0x010EF001), PRODUCER (ID: 17756161/0x010EF001)], work=[139*, 0*]
 40: 0x0113 [0x45] LOAD_SCHEDULED_TASK: Load scheduler "fdi1" with entities [PRODUCER (ID: 17756161/0x010EF001), PRODUCER (ID: 17756161/0x010EF001)], work=[200*, 0*]

SUBROUTINE_0124:
 41: 0x0124 [0x27] REQ_SET(priority=0x0B, entity_id=Kohlo-Lakolo (ID: 17756178/0x010EF012), tag_num=0x3C)
 42: 0x012B [0x27] REQ_SET(priority=0x0B, entity_id=Papo-Hopo (ID: 17756179/0x010EF013), tag_num=0x1B)
 43: 0x0132 [0x27] REQ_SET(priority=0x0B, entity_id=Gomada-Vulmada (ID: 17756180/0x010EF014), tag_num=0x0E)
 44: 0x0139 [0x27] REQ_SET(priority=0x0B, entity_id=Yafa Yaa (ID: 17756182/0x010EF016), tag_num=0x18)
 45: 0x0140 [0x27] REQ_SET(priority=0x0B, entity_id=Pyo Nzon (ID: 17756183/0x010EF017), tag_num=0x1D)
 46: 0x0147 [0x27] REQ_SET(priority=0x0B, entity_id=Pichichi (ID: 17756181/0x010EF015), tag_num=0x2D)
 47: 0x014E [0x2A] GET_REQ_LEVEL(level=11, entity_id=Kohlo-Lakolo (ID: 17756178/0x010EF012))
 48: 0x0154 [0x55] WAIT_LOAD_SCHEDULER: Wait for scheduler "s053" with entities [PRODUCER (ID: 17756161/0x010EF001), PRODUCER (ID: 17756161/0x010EF001)], work=139*
 49: 0x0163 [0x45] LOAD_SCHEDULED_TASK: Load scheduler "s104" with entities [PRODUCER (ID: 17756161/0x010EF001), PRODUCER (ID: 17756161/0x010EF001)], work=[139*, 0*]
 50: 0x0174 [0x2A] GET_REQ_LEVEL(level=11, entity_id=Papo-Hopo (ID: 17756179/0x010EF013))
 51: 0x017A [0x2A] GET_REQ_LEVEL(level=11, entity_id=Gomada-Vulmada (ID: 17756180/0x010EF014))
 52: 0x0180 [0x2A] GET_REQ_LEVEL(level=11, entity_id=Yafa Yaa (ID: 17756182/0x010EF016))
 53: 0x0186 [0x2A] GET_REQ_LEVEL(level=11, entity_id=Pyo Nzon (ID: 17756183/0x010EF017))
 54: 0x018C [0x2A] GET_REQ_LEVEL(level=11, entity_id=Pichichi (ID: 17756181/0x010EF015))
 55: 0x0192 [0x02] IF !(ExtData[1]->WorkLocal[1] == 0*) GOTO 0x01BF
 56: 0x019A [0x2B] Kohlo-Lakolo (ID: 17756178/0x010EF012) [7803*]:
    → "Good! Now that we're all here, it's time for the final showdown with that Cat Burglar!"
 57: 0x01A1 [0x23] WAIT_FOR_DIALOG_INTERACTION
 58: 0x01A2 [0x4A] Kohlo-Lakolo (ID: 17756178/0x010EF012) looks at Pichichi (ID: 17756181/0x010EF015)
 59: 0x01AB [0x45] LOAD_SCHEDULED_TASK: Load scheduler "s054" with entities [PRODUCER (ID: 17756161/0x010EF001), PRODUCER (ID: 17756161/0x010EF001)], work=[139*, 0*]
 60: 0x01BC [0x01] GOTO 0x01C8
 61: 0x01BF [0x4A] Kohlo-Lakolo (ID: 17756178/0x010EF012) looks at Pichichi (ID: 17756181/0x010EF015)

SUBROUTINE_01C8:
 62: 0x01C8 [0x2B] Kohlo-Lakolo (ID: 17756178/0x010EF012) [7804*]:
    → "Star Onion Brigade, are you ready already? Then CHAAAA`RRGE!"
 63: 0x01CF [0x23] WAIT_FOR_DIALOG_INTERACTION
 64: 0x01D0 [0x27] REQ_SET(priority=0x08, entity_id=Gomada-Vulmada (ID: 17756180/0x010EF014), tag_num=0x05)
 65: 0x01D7 [0x27] REQ_SET(priority=0x08, entity_id=Papo-Hopo (ID: 17756179/0x010EF013), tag_num=0x05)
 66: 0x01DE [0x27] REQ_SET(priority=0x08, entity_id=Pyo Nzon (ID: 17756183/0x010EF017), tag_num=0x03)
 67: 0x01E5 [0x27] REQ_SET(priority=0x08, entity_id=Yafa Yaa (ID: 17756182/0x010EF016), tag_num=0x03)
 68: 0x01EC [0x29] REQ_SET_WAIT(priority=0x0B, entity_id=Papo-Hopo (ID: 17756179/0x010EF013), tag_num=0x1F)
 69: 0x01F3 [0x29] REQ_SET_WAIT(priority=0x0B, entity_id=Gomada-Vulmada (ID: 17756180/0x010EF014), tag_num=0x13)
 70: 0x01FA [0x29] REQ_SET_WAIT(priority=0x0B, entity_id=Yafa Yaa (ID: 17756182/0x010EF016), tag_num=0x1D)
 71: 0x0201 [0x29] REQ_SET_WAIT(priority=0x0B, entity_id=Pyo Nzon (ID: 17756183/0x010EF017), tag_num=0x23)
 72: 0x0208 [0x2A] GET_REQ_LEVEL(level=8, entity_id=Gomada-Vulmada (ID: 17756180/0x010EF014))
 73: 0x020E [0x2A] GET_REQ_LEVEL(level=8, entity_id=Papo-Hopo (ID: 17756179/0x010EF013))
 74: 0x0214 [0x2A] GET_REQ_LEVEL(level=8, entity_id=Pyo Nzon (ID: 17756183/0x010EF017))
 75: 0x021A [0x2A] GET_REQ_LEVEL(level=8, entity_id=Yafa Yaa (ID: 17756182/0x010EF016))
 76: 0x0220 [0x29] REQ_SET_WAIT(priority=0x08, entity_id=Gomada-Vulmada (ID: 17756180/0x010EF014), tag_num=0x06)
 77: 0x0227 [0x29] REQ_SET_WAIT(priority=0x08, entity_id=Papo-Hopo (ID: 17756179/0x010EF013), tag_num=0x06)
 78: 0x022E [0x29] REQ_SET_WAIT(priority=0x08, entity_id=Pyo Nzon (ID: 17756183/0x010EF017), tag_num=0x04)
 79: 0x0235 [0x29] REQ_SET_WAIT(priority=0x08, entity_id=Yafa Yaa (ID: 17756182/0x010EF016), tag_num=0x04)
 80: 0x023C [0x45] LOAD_SCHEDULED_TASK: Load scheduler "fdo1" with entities [PRODUCER (ID: 17756161/0x010EF001), PRODUCER (ID: 17756161/0x010EF001)], work=[200*, 0*]
 81: 0x024D [0x1C] WAIT(60* ticks)
 82: 0x0250 [0x4C] EventEntity->StatusEvent = 8 // Open door
 83: 0x0251 [0x02] IF !(ExtData[1]->WorkLocal[1] == 0*) GOTO 0x025F
 84: 0x0259 [0x38] SET_CLIENT_EVENT_MODE(mode=19*)
 85: 0x025C [0x01] GOTO 0x0262
 86: 0x025F [0x38] SET_CLIENT_EVENT_MODE(mode=2067*)

SUBROUTINE_0262:
 87: 0x0262 [0x1C] WAIT(200* ticks)
 88: 0x0265 [0x4D] EventEntity->StatusEvent = 9 // Close door
 89: 0x0266 [0x29] REQ_SET_WAIT(priority=0x0B, entity_id=LocalPlayer, tag_num=0x2B)
 90: 0x026D [0x29] REQ_SET_WAIT(priority=0x0B, entity_id=Nanaa Mihgo (ID: 17756184/0x010EF018), tag_num=0x19)
 91: 0x0274 [0x1C] WAIT(30* ticks)
 92: 0x0277 [0x4E] SET_ENTITY_HIDE_FLAG: Show Nanaa Mihgo (ID: 17756184/0x010EF018)
 93: 0x027D [0x80] LOAD_WAIT(entity=Nanaa Mihgo (ID: 17756184/0x010EF018))
 94: 0x0282 [0x27] REQ_SET(priority=0x0B, entity_id=Kohlo-Lakolo (ID: 17756178/0x010EF012), tag_num=0x1A)
 95: 0x0289 [0x27] REQ_SET(priority=0x0B, entity_id=Papo-Hopo (ID: 17756179/0x010EF013), tag_num=0x0C)
 96: 0x0290 [0x27] REQ_SET(priority=0x0B, entity_id=Gomada-Vulmada (ID: 17756180/0x010EF014), tag_num=0x16)
 97: 0x0297 [0x45] LOAD_SCHEDULED_TASK: Load scheduler "s026" with entities [PRODUCER (ID: 17756161/0x010EF001), PRODUCER (ID: 17756161/0x010EF001)], work=[139*, 0*]
 98: 0x02A8 [0x45] LOAD_SCHEDULED_TASK: Load scheduler "fdi1" with entities [PRODUCER (ID: 17756161/0x010EF001), PRODUCER (ID: 17756161/0x010EF001)], work=[200*, 0*]
 99: 0x02B9 [0x2B] Kohlo-Lakolo (ID: 17756178/0x010EF012) [7805*]:
    → "Ta-da`! The Star Onion Brigade is on the scene!"
100: 0x02C0 [0x23] WAIT_FOR_DIALOG_INTERACTION
101: 0x02C1 [0x4B] UPDATE_ENTITY_YAW(entity=Nanaa Mihgo (ID: 17756184/0x010EF018), yaw=11.0°*)
102: 0x02C8 [0x45] LOAD_SCHEDULED_TASK: Load scheduler "fdo1" with entities [PRODUCER (ID: 17756161/0x010EF001), PRODUCER (ID: 17756161/0x010EF001)], work=[200*, 0*]
103: 0x02D9 [0x27] REQ_SET(priority=0x0B, entity_id=Pichichi (ID: 17756181/0x010EF015), tag_num=0x11)
104: 0x02E0 [0x52] END_LOAD_SCHEDULER: End scheduler "s026" with entities [PRODUCER (ID: 17756161/0x010EF001), PRODUCER (ID: 17756161/0x010EF001)], work=139*
105: 0x02EF [0x45] LOAD_SCHEDULED_TASK: Load scheduler "s028" with entities [PRODUCER (ID: 17756161/0x010EF001), PRODUCER (ID: 17756161/0x010EF001)], work=[139*, 0*]
106: 0x0300 [0x29] REQ_SET_WAIT(priority=0x0B, entity_id=LocalPlayer, tag_num=0x2C)
107: 0x0307 [0x27] REQ_SET(priority=0x0B, entity_id=Yafa Yaa (ID: 17756182/0x010EF016), tag_num=0x0C)
108: 0x030E [0x27] REQ_SET(priority=0x0B, entity_id=Pyo Nzon (ID: 17756183/0x010EF017), tag_num=0x0D)
109: 0x0315 [0x45] LOAD_SCHEDULED_TASK: Load scheduler "fdi1" with entities [PRODUCER (ID: 17756161/0x010EF001), PRODUCER (ID: 17756161/0x010EF001)], work=[200*, 0*]
110: 0x0326 [0x1C] WAIT(50* ticks)
111: 0x0329 [0x02] IF !(ExtData[1]->WorkLocal[1] == 0*) GOTO 0x0337
112: 0x0331 [0x4E] SET_ENTITY_HIDE_FLAG: Show LocalPlayer
113: 0x0337 [0x27] REQ_SET(priority=0x0B, entity_id=LocalPlayer, tag_num=0x2D)
114: 0x033E [0x2A] GET_REQ_LEVEL(level=11, entity_id=Kohlo-Lakolo (ID: 17756178/0x010EF012))
115: 0x0344 [0x2A] GET_REQ_LEVEL(level=11, entity_id=Papo-Hopo (ID: 17756179/0x010EF013))
116: 0x034A [0x2A] GET_REQ_LEVEL(level=11, entity_id=Gomada-Vulmada (ID: 17756180/0x010EF014))
117: 0x0350 [0x2A] GET_REQ_LEVEL(level=11, entity_id=Yafa Yaa (ID: 17756182/0x010EF016))
118: 0x0356 [0x2A] GET_REQ_LEVEL(level=11, entity_id=Pyo Nzon (ID: 17756183/0x010EF017))
119: 0x035C [0x55] WAIT_LOAD_SCHEDULER: Wait for scheduler "s028" with entities [PRODUCER (ID: 17756161/0x010EF001), PRODUCER (ID: 17756161/0x010EF001)], work=139*
120: 0x036B [0x45] LOAD_SCHEDULED_TASK: Load scheduler "s040" with entities [PRODUCER (ID: 17756161/0x010EF001), PRODUCER (ID: 17756161/0x010EF001)], work=[139*, 0*]
121: 0x037C [0x29] REQ_SET_WAIT(priority=0x0B, entity_id=Kohlo-Lakolo (ID: 17756178/0x010EF012), tag_num=0x1F)
122: 0x0383 [0x2A] GET_REQ_LEVEL(level=11, entity_id=LocalPlayer)
123: 0x0389 [0x45] LOAD_SCHEDULED_TASK: Load scheduler "s027" with entities [PRODUCER (ID: 17756161/0x010EF001), PRODUCER (ID: 17756161/0x010EF001)], work=[139*, 0*]
124: 0x039A [0x27] REQ_SET(priority=0x0B, entity_id=Nanaa Mihgo (ID: 17756184/0x010EF018), tag_num=0x1A)
125: 0x03A1 [0x2B] Nanaa Mihgo (ID: 17756184/0x010EF018) [7808*]:
    → "Not you brrrats again! Don't you have betterrr things to do all day than to rrrub my furrr the wrrrong way?"
126: 0x03A8 [0x23] WAIT_FOR_DIALOG_INTERACTION
127: 0x03A9 [0x2A] GET_REQ_LEVEL(level=11, entity_id=Pichichi (ID: 17756181/0x010EF015))
128: 0x03AF [0x4A] Nanaa Mihgo (ID: 17756184/0x010EF018) looks at Kohlo-Lakolo (ID: 17756178/0x010EF012)
129: 0x03B8 [0x52] END_LOAD_SCHEDULER: End scheduler "s027" with entities [PRODUCER (ID: 17756161/0x010EF001), PRODUCER (ID: 17756161/0x010EF001)], work=139*
130: 0x03C7 [0x45] LOAD_SCHEDULED_TASK: Load scheduler "s106" with entities [PRODUCER (ID: 17756161/0x010EF001), PRODUCER (ID: 17756161/0x010EF001)], work=[139*, 0*]
131: 0x03D8 [0x29] REQ_SET_WAIT(priority=0x0B, entity_id=Kohlo-Lakolo (ID: 17756178/0x010EF012), tag_num=0x20)
132: 0x03DF [0x45] LOAD_SCHEDULED_TASK: Load scheduler "s029" with entities [PRODUCER (ID: 17756161/0x010EF001), PRODUCER (ID: 17756161/0x010EF001)], work=[139*, 0*]
133: 0x03F0 [0x29] REQ_SET_WAIT(priority=0x0B, entity_id=Nanaa Mihgo (ID: 17756184/0x010EF018), tag_num=0x1F)
134: 0x03F7 [0x4A] Kohlo-Lakolo (ID: 17756178/0x010EF012) looks at Papo-Hopo (ID: 17756179/0x010EF013)
135: 0x0400 [0x4A] Papo-Hopo (ID: 17756179/0x010EF013) looks at Kohlo-Lakolo (ID: 17756178/0x010EF012)
136: 0x0409 [0x29] REQ_SET_WAIT(priority=0x0B, entity_id=Kohlo-Lakolo (ID: 17756178/0x010EF012), tag_num=0x21)
137: 0x0410 [0x29] REQ_SET_WAIT(priority=0x0B, entity_id=Papo-Hopo (ID: 17756179/0x010EF013), tag_num=0x0E)
138: 0x0417 [0x45] LOAD_SCHEDULED_TASK: Load scheduler "s030" with entities [PRODUCER (ID: 17756161/0x010EF001), PRODUCER (ID: 17756161/0x010EF001)], work=[139*, 0*]
139: 0x0428 [0x4A] Kohlo-Lakolo (ID: 17756178/0x010EF012) looks at Nanaa Mihgo (ID: 17756184/0x010EF018)
140: 0x0431 [0x4A] Papo-Hopo (ID: 17756179/0x010EF013) looks at Nanaa Mihgo (ID: 17756184/0x010EF018)
141: 0x043A [0x27] REQ_SET(priority=0x0B, entity_id=LocalPlayer, tag_num=0x2E)
142: 0x0441 [0x27] REQ_SET(priority=0x0B, entity_id=Papo-Hopo (ID: 17756179/0x010EF013), tag_num=0x0D)
143: 0x0448 [0x27] REQ_SET(priority=0x0B, entity_id=Gomada-Vulmada (ID: 17756180/0x010EF014), tag_num=0x17)
144: 0x044F [0x27] REQ_SET(priority=0x0B, entity_id=Pichichi (ID: 17756181/0x010EF015), tag_num=0x13)
145: 0x0456 [0x27] REQ_SET(priority=0x0B, entity_id=Yafa Yaa (ID: 17756182/0x010EF016), tag_num=0x0F)
146: 0x045D [0x27] REQ_SET(priority=0x0B, entity_id=Pyo Nzon (ID: 17756183/0x010EF017), tag_num=0x11)
147: 0x0464 [0x27] REQ_SET(priority=0x0B, entity_id=Nanaa Mihgo (ID: 17756184/0x010EF018), tag_num=0x1B)
148: 0x046B [0x27] REQ_SET(priority=0x0B, entity_id=Kohlo-Lakolo (ID: 17756178/0x010EF012), tag_num=0x1D)
149: 0x0472 [0x2B] Nanaa Mihgo (ID: 17756184/0x010EF018) [7815*]:
    → "Then allow me to fill you in. The ministerrr of the Orastery is trying to revive "summoning magic"--the verrry magic that the Star Sibyl has forrrbidden."
150: 0x0479 [0x23] WAIT_FOR_DIALOG_INTERACTION
151: 0x047A [0x2A] GET_REQ_LEVEL(level=11, entity_id=Nanaa Mihgo (ID: 17756184/0x010EF018))
152: 0x0480 [0x4A] LocalPlayer looks at Nanaa Mihgo (ID: 17756184/0x010EF018)
153: 0x0489 [0x52] END_LOAD_SCHEDULER: End scheduler "s030" with entities [PRODUCER (ID: 17756161/0x010EF001), PRODUCER (ID: 17756161/0x010EF001)], work=139*
154: 0x0498 [0x45] LOAD_SCHEDULED_TASK: Load scheduler "s031" with entities [PRODUCER (ID: 17756161/0x010EF001), PRODUCER (ID: 17756161/0x010EF001)], work=[139*, 0*]
155: 0x04A9 [0x4A] Nanaa Mihgo (ID: 17756184/0x010EF018) looks at Pichichi (ID: 17756181/0x010EF015)
156: 0x04B2 [0x29] REQ_SET_WAIT(priority=0x0B, entity_id=Nanaa Mihgo (ID: 17756184/0x010EF018), tag_num=0x20)
157: 0x04B9 [0x7B] Nanaa Mihgo (ID: 17756184/0x010EF018) stops talking
158: 0x04BE [0x29] REQ_SET_WAIT(priority=0x0B, entity_id=Nanaa Mihgo (ID: 17756184/0x010EF018), tag_num=0x21)
159: 0x04C5 [0x29] REQ_SET_WAIT(priority=0x0B, entity_id=Kohlo-Lakolo (ID: 17756178/0x010EF012), tag_num=0x22)
160: 0x04CC [0x52] END_LOAD_SCHEDULER: End scheduler "s031" with entities [PRODUCER (ID: 17756161/0x010EF001), PRODUCER (ID: 17756161/0x010EF001)], work=139*
161: 0x04DB [0x45] LOAD_SCHEDULED_TASK: Load scheduler "s032" with entities [PRODUCER (ID: 17756161/0x010EF001), PRODUCER (ID: 17756161/0x010EF001)], work=[139*, 0*]
162: 0x04EC [0x4B] UPDATE_ENTITY_YAW(entity=Nanaa Mihgo (ID: 17756184/0x010EF018), yaw=5.5°*)
163: 0x04F3 [0x1C] WAIT(30* ticks)
164: 0x04F6 [0x29] REQ_SET_WAIT(priority=0x0B, entity_id=Nanaa Mihgo (ID: 17756184/0x010EF018), tag_num=0x22)
165: 0x04FD [0x52] END_LOAD_SCHEDULER: End scheduler "s032" with entities [PRODUCER (ID: 17756161/0x010EF001), PRODUCER (ID: 17756161/0x010EF001)], work=139*
166: 0x050C [0x45] LOAD_SCHEDULED_TASK: Load scheduler "s033" with entities [PRODUCER (ID: 17756161/0x010EF001), PRODUCER (ID: 17756161/0x010EF001)], work=[139*, 0*]
167: 0x051D [0x5D] SET_MUSIC_VOLUME(volume=0*, fade_time=300*)
168: 0x0522 [0x79] Nanaa Mihgo (ID: 17756184/0x010EF018) looks at Door:House of the Hero (ID: 17756175/0x010EF00F) (Basic look)
169: 0x052C [0x29] REQ_SET_WAIT(priority=0x0B, entity_id=Nanaa Mihgo (ID: 17756184/0x010EF018), tag_num=0x1C)
170: 0x0533 [0x27] REQ_SET(priority=0x0B, entity_id=Papo-Hopo (ID: 17756179/0x010EF013), tag_num=0x0D)
171: 0x053A [0x27] REQ_SET(priority=0x0B, entity_id=Gomada-Vulmada (ID: 17756180/0x010EF014), tag_num=0x17)
172: 0x0541 [0x27] REQ_SET(priority=0x0B, entity_id=Pichichi (ID: 17756181/0x010EF015), tag_num=0x13)
173: 0x0548 [0x27] REQ_SET(priority=0x0B, entity_id=Yafa Yaa (ID: 17756182/0x010EF016), tag_num=0x0F)
174: 0x054F [0x27] REQ_SET(priority=0x0B, entity_id=Pyo Nzon (ID: 17756183/0x010EF017), tag_num=0x0E)
175: 0x0556 [0x27] REQ_SET(priority=0x0D, entity_id=Kohlo-Lakolo (ID: 17756178/0x010EF012), tag_num=0x1D)
176: 0x055D [0x4A] Nanaa Mihgo (ID: 17756184/0x010EF018) looks at Pyo Nzon (ID: 17756183/0x010EF017)
177: 0x0566 [0x4A] LocalPlayer looks at Nanaa Mihgo (ID: 17756184/0x010EF018)
178: 0x056F [0x27] REQ_SET(priority=0x0B, entity_id=Nanaa Mihgo (ID: 17756184/0x010EF018), tag_num=0x1D)
179: 0x0576 [0x1C] WAIT(30* ticks)
180: 0x0579 [0x4A] LocalPlayer looks at Nanaa Mihgo (ID: 17756184/0x010EF018)
181: 0x0582 [0x52] END_LOAD_SCHEDULER: End scheduler "s033" with entities [PRODUCER (ID: 17756161/0x010EF001), PRODUCER (ID: 17756161/0x010EF001)], work=139*
182: 0x0591 [0x45] LOAD_SCHEDULED_TASK: Load scheduler "s034" with entities [PRODUCER (ID: 17756161/0x010EF001), PRODUCER (ID: 17756161/0x010EF001)], work=[139*, 0*]
183: 0x05A2 [0x4C] EventEntity->StatusEvent = 8 // Open door
184: 0x05A3 [0x2A] GET_REQ_LEVEL(level=13, entity_id=Kohlo-Lakolo (ID: 17756178/0x010EF012))
185: 0x05A9 [0x2A] GET_REQ_LEVEL(level=11, entity_id=Papo-Hopo (ID: 17756179/0x010EF013))
186: 0x05AF [0x2A] GET_REQ_LEVEL(level=11, entity_id=Gomada-Vulmada (ID: 17756180/0x010EF014))
187: 0x05B5 [0x2A] GET_REQ_LEVEL(level=11, entity_id=Pichichi (ID: 17756181/0x010EF015))
188: 0x05BB [0x2A] GET_REQ_LEVEL(level=11, entity_id=Yafa Yaa (ID: 17756182/0x010EF016))
189: 0x05C1 [0x2A] GET_REQ_LEVEL(level=11, entity_id=Nanaa Mihgo (ID: 17756184/0x010EF018))
190: 0x05C7 [0x2A] GET_REQ_LEVEL(level=11, entity_id=Pyo Nzon (ID: 17756183/0x010EF017))
191: 0x05CD [0x1C] WAIT(60* ticks)
192: 0x05D0 [0x4A] Kohlo-Lakolo (ID: 17756178/0x010EF012) looks at Nanaa Mihgo (ID: 17756184/0x010EF018)
193: 0x05D9 [0x4A] Papo-Hopo (ID: 17756179/0x010EF013) looks at Nanaa Mihgo (ID: 17756184/0x010EF018)
194: 0x05E2 [0x1C] WAIT(60* ticks)
195: 0x05E5 [0x4D] EventEntity->StatusEvent = 9 // Close door
196: 0x05E6 [0x55] WAIT_LOAD_SCHEDULER: Wait for scheduler "s034" with entities [PRODUCER (ID: 17756161/0x010EF001), PRODUCER (ID: 17756161/0x010EF001)], work=139*
197: 0x05F5 [0x45] LOAD_SCHEDULED_TASK: Load scheduler "s102" with entities [LocalPlayer, LocalPlayer], work=[139*, 0*]
198: 0x0606 [0x7B] Nanaa Mihgo (ID: 17756184/0x010EF018) stops talking
199: 0x060B [0x4A] Pyo Nzon (ID: 17756183/0x010EF017) looks at Nanaa Mihgo (ID: 17756184/0x010EF018)
200: 0x0614 [0x1C] WAIT(60* ticks)
201: 0x0617 [0x4A] Kohlo-Lakolo (ID: 17756178/0x010EF012) looks at LocalPlayer
202: 0x0620 [0x4A] Papo-Hopo (ID: 17756179/0x010EF013) looks at Kohlo-Lakolo (ID: 17756178/0x010EF012)
203: 0x0629 [0x4A] Gomada-Vulmada (ID: 17756180/0x010EF014) looks at Kohlo-Lakolo (ID: 17756178/0x010EF012)
204: 0x0632 [0x29] REQ_SET_WAIT(priority=0x0B, entity_id=Kohlo-Lakolo (ID: 17756178/0x010EF012), tag_num=0x23)
205: 0x0639 [0x45] LOAD_SCHEDULED_TASK: Load scheduler "s035" with entities [PRODUCER (ID: 17756161/0x010EF001), PRODUCER (ID: 17756161/0x010EF001)], work=[139*, 0*]
206: 0x064A [0x5C] MUSIC_CONTROL: Set Idle (Day) music to song 161*
207: 0x064E [0x5C] MUSIC_CONTROL: Set Idle (Night) music to song 161*
208: 0x0652 [0x5D] SET_MUSIC_VOLUME(volume=127*, fade_time=60*)
209: 0x0657 [0x27] REQ_SET(priority=0x0B, entity_id=Pyo Nzon (ID: 17756183/0x010EF017), tag_num=0x0F)
210: 0x065E [0x27] REQ_SET(priority=0x0B, entity_id=Yafa Yaa (ID: 17756182/0x010EF016), tag_num=0x0D)
211: 0x0665 [0x4A] Kohlo-Lakolo (ID: 17756178/0x010EF012) looks at Nanaa Mihgo (ID: 17756184/0x010EF018)
212: 0x066E [0x4A] Papo-Hopo (ID: 17756179/0x010EF013) looks at Nanaa Mihgo (ID: 17756184/0x010EF018)
213: 0x0677 [0x4A] Gomada-Vulmada (ID: 17756180/0x010EF014) looks at Nanaa Mihgo (ID: 17756184/0x010EF018)
214: 0x0680 [0x2A] GET_REQ_LEVEL(level=11, entity_id=Pyo Nzon (ID: 17756183/0x010EF017))
215: 0x0686 [0x4A] Yafa Yaa (ID: 17756182/0x010EF016) looks at Kohlo-Lakolo (ID: 17756178/0x010EF012)
216: 0x068F [0x29] REQ_SET_WAIT(priority=0x0B, entity_id=Yafa Yaa (ID: 17756182/0x010EF016), tag_num=0x10)
217: 0x0696 [0x2A] GET_REQ_LEVEL(level=11, entity_id=Pyo Nzon (ID: 17756183/0x010EF017))
218: 0x069C [0x29] REQ_SET_WAIT(priority=0x08, entity_id=Pyo Nzon (ID: 17756183/0x010EF017), tag_num=0x09)
219: 0x06A3 [0x29] REQ_SET_WAIT(priority=0x0B, entity_id=Pyo Nzon (ID: 17756183/0x010EF017), tag_num=0x12)
220: 0x06AA [0x45] LOAD_SCHEDULED_TASK: Load scheduler "s036" with entities [PRODUCER (ID: 17756161/0x010EF001), PRODUCER (ID: 17756161/0x010EF001)], work=[139*, 0*]
221: 0x06BB [0x29] REQ_SET_WAIT(priority=0x08, entity_id=Pyo Nzon (ID: 17756183/0x010EF017), tag_num=0x0A)
222: 0x06C2 [0x29] REQ_SET_WAIT(priority=0x0B, entity_id=Nanaa Mihgo (ID: 17756184/0x010EF018), tag_num=0x23)
223: 0x06C9 [0x29] REQ_SET_WAIT(priority=0x0B, entity_id=Nanaa Mihgo (ID: 17756184/0x010EF018), tag_num=0x24)
224: 0x06D0 [0x7C] Pyo Nzon (ID: 17756183/0x010EF017)->Render.Flags2 |= 0x01
225: 0x06D6 [0x4A] Pyo Nzon (ID: 17756183/0x010EF017) looks at Kohlo-Lakolo (ID: 17756178/0x010EF012)
226: 0x06DF [0x1C] WAIT(30* ticks)
227: 0x06E2 [0x29] REQ_SET_WAIT(priority=0x0B, entity_id=Pyo Nzon (ID: 17756183/0x010EF017), tag_num=0x16)
228: 0x06E9 [0x4A] LocalPlayer looks at Kohlo-Lakolo (ID: 17756178/0x010EF012)
229: 0x06F2 [0x4A] Gomada-Vulmada (ID: 17756180/0x010EF014) looks at Kohlo-Lakolo (ID: 17756178/0x010EF012)
230: 0x06FB [0x4A] Papo-Hopo (ID: 17756179/0x010EF013) looks at Kohlo-Lakolo (ID: 17756178/0x010EF012)
231: 0x0704 [0x4A] Pichichi (ID: 17756181/0x010EF015) looks at Kohlo-Lakolo (ID: 17756178/0x010EF012)
232: 0x070D [0x4A] Yafa Yaa (ID: 17756182/0x010EF016) looks at Kohlo-Lakolo (ID: 17756178/0x010EF012)
233: 0x0716 [0x4A] Kohlo-Lakolo (ID: 17756178/0x010EF012) looks at Pichichi (ID: 17756181/0x010EF015)
234: 0x071F [0x52] END_LOAD_SCHEDULER: End scheduler "s036" with entities [PRODUCER (ID: 17756161/0x010EF001), PRODUCER (ID: 17756161/0x010EF001)], work=139*
235: 0x072E [0x45] LOAD_SCHEDULED_TASK: Load scheduler "s037" with entities [PRODUCER (ID: 17756161/0x010EF001), PRODUCER (ID: 17756161/0x010EF001)], work=[139*, 0*]
236: 0x073F [0x27] REQ_SET(priority=0x0B, entity_id=Pyo Nzon (ID: 17756183/0x010EF017), tag_num=0x10)
237: 0x0746 [0x27] REQ_SET(priority=0x0B, entity_id=Yafa Yaa (ID: 17756182/0x010EF016), tag_num=0x0E)
238: 0x074D [0x29] REQ_SET_WAIT(priority=0x0B, entity_id=Kohlo-Lakolo (ID: 17756178/0x010EF012), tag_num=0x24)
239: 0x0754 [0x1C] WAIT(300* ticks)
240: 0x0757 [0x52] END_LOAD_SCHEDULER: End scheduler "s037" with entities [PRODUCER (ID: 17756161/0x010EF001), PRODUCER (ID: 17756161/0x010EF001)], work=139*
241: 0x0766 [0x45] LOAD_SCHEDULED_TASK: Load scheduler "s103" with entities [LocalPlayer, LocalPlayer], work=[139*, 0*]
242: 0x0777 [0x29] REQ_SET_WAIT(priority=0x0B, entity_id=Kohlo-Lakolo (ID: 17756178/0x010EF012), tag_num=0x25)
243: 0x077E [0x2A] GET_REQ_LEVEL(level=11, entity_id=Pyo Nzon (ID: 17756183/0x010EF017))
244: 0x0784 [0x2A] GET_REQ_LEVEL(level=11, entity_id=Yafa Yaa (ID: 17756182/0x010EF016))
245: 0x078A [0x4A] Yafa Yaa (ID: 17756182/0x010EF016) looks at Pyo Nzon (ID: 17756183/0x010EF017)
246: 0x0793 [0x4A] Pyo Nzon (ID: 17756183/0x010EF017) looks at Yafa Yaa (ID: 17756182/0x010EF016)
247: 0x079C [0x1C] WAIT(100* ticks)
248: 0x079F [0x45] LOAD_SCHEDULED_TASK: Load scheduler "s038" with entities [PRODUCER (ID: 17756161/0x010EF001), PRODUCER (ID: 17756161/0x010EF001)], work=[139*, 0*]
249: 0x07B0 [0x27] REQ_SET(priority=0x08, entity_id=Papo-Hopo (ID: 17756179/0x010EF013), tag_num=0x03)
250: 0x07B7 [0x27] REQ_SET(priority=0x08, entity_id=Gomada-Vulmada (ID: 17756180/0x010EF014), tag_num=0x03)
251: 0x07BE [0x4A] Pyo Nzon (ID: 17756183/0x010EF017) looks at Kohlo-Lakolo (ID: 17756178/0x010EF012)
252: 0x07C7 [0x4A] Yafa Yaa (ID: 17756182/0x010EF016) looks at Kohlo-Lakolo (ID: 17756178/0x010EF012)
253: 0x07D0 [0x29] REQ_SET_WAIT(priority=0x0B, entity_id=Kohlo-Lakolo (ID: 17756178/0x010EF012), tag_num=0x26)
254: 0x07D7 [0x29] REQ_SET_WAIT(priority=0x0B, entity_id=Kohlo-Lakolo (ID: 17756178/0x010EF012), tag_num=0x27)
255: 0x07DE [0x45] LOAD_SCHEDULED_TASK: Load scheduler "s039" with entities [PRODUCER (ID: 17756161/0x010EF001), PRODUCER (ID: 17756161/0x010EF001)], work=[139*, 0*]
256: 0x07EF [0x27] REQ_SET(priority=0x0B, entity_id=Kohlo-Lakolo (ID: 17756178/0x010EF012), tag_num=0x1C)
257: 0x07F6 [0x2B] Kohlo-Lakolo (ID: 17756178/0x010EF012) [7832*]:
    → "Th-there's got to be a perfectly reasonable explanation for this! L-let's check out where the s-sound came from...e-everyone!"
258: 0x07FD [0x23] WAIT_FOR_DIALOG_INTERACTION
259: 0x07FE [0x2A] GET_REQ_LEVEL(level=11, entity_id=Kohlo-Lakolo (ID: 17756178/0x010EF012))
260: 0x0804 [0x55] WAIT_LOAD_SCHEDULER: Wait for scheduler "s039" with entities [PRODUCER (ID: 17756161/0x010EF001), PRODUCER (ID: 17756161/0x010EF001)], work=139*
261: 0x0813 [0x45] LOAD_SCHEDULED_TASK: Load scheduler "fdo1" with entities [PRODUCER (ID: 17756161/0x010EF001), PRODUCER (ID: 17756161/0x010EF001)], work=[200*, 0*]
262: 0x0824 [0x1C] WAIT(60* ticks)
263: 0x0827 [0x2A] GET_REQ_LEVEL(level=8, entity_id=Papo-Hopo (ID: 17756179/0x010EF013))
264: 0x082D [0x2A] GET_REQ_LEVEL(level=8, entity_id=Gomada-Vulmada (ID: 17756180/0x010EF014))
265: 0x0833 [0x29] REQ_SET_WAIT(priority=0x0B, entity_id=Kohlo-Lakolo (ID: 17756178/0x010EF012), tag_num=0x2A)
266: 0x083A [0x29] REQ_SET_WAIT(priority=0x0B, entity_id=Papo-Hopo (ID: 17756179/0x010EF013), tag_num=0x0F)
267: 0x0841 [0x29] REQ_SET_WAIT(priority=0x0B, entity_id=Gomada-Vulmada (ID: 17756180/0x010EF014), tag_num=0x18)
268: 0x0848 [0x29] REQ_SET_WAIT(priority=0x0B, entity_id=Pichichi (ID: 17756181/0x010EF015), tag_num=0x14)
269: 0x084F [0x29] REQ_SET_WAIT(priority=0x0B, entity_id=Yafa Yaa (ID: 17756182/0x010EF016), tag_num=0x11)
270: 0x0856 [0x29] REQ_SET_WAIT(priority=0x0B, entity_id=Pyo Nzon (ID: 17756183/0x010EF017), tag_num=0x13)
271: 0x085D [0x29] REQ_SET_WAIT(priority=0x0B, entity_id=LocalPlayer, tag_num=0x2F)
272: 0x0864 [0x29] REQ_SET_WAIT(priority=0x0B, entity_id=Joker (ID: 17756185/0x010EF019), tag_num=0x0F)
273: 0x086B [0x22] ENTITY_HIDE_FLAG(enabled=0x00)
274: 0x086D [0x80] LOAD_WAIT(entity=Joker (ID: 17756185/0x010EF019))
275: 0x0872 [0x1C] WAIT(200* ticks)
276: 0x0875 [0x45] LOAD_SCHEDULED_TASK: Load scheduler "s069" with entities [PRODUCER (ID: 17756161/0x010EF001), PRODUCER (ID: 17756161/0x010EF001)], work=[139*, 0*]
277: 0x0886 [0x45] LOAD_SCHEDULED_TASK: Load scheduler "fdi1" with entities [PRODUCER (ID: 17756161/0x010EF001), PRODUCER (ID: 17756161/0x010EF001)], work=[200*, 0*]
278: 0x0897 [0x55] WAIT_LOAD_SCHEDULER: Wait for scheduler "s069" with entities [PRODUCER (ID: 17756161/0x010EF001), PRODUCER (ID: 17756161/0x010EF001)], work=139*
279: 0x08A6 [0x45] LOAD_SCHEDULED_TASK: Load scheduler "s074" with entities [PRODUCER (ID: 17756161/0x010EF001), PRODUCER (ID: 17756161/0x010EF001)], work=[139*, 0*]
280: 0x08B7 [0x29] REQ_SET_WAIT(priority=0x0B, entity_id=Kohlo-Lakolo (ID: 17756178/0x010EF012), tag_num=0x2F)
281: 0x08BE [0x45] LOAD_SCHEDULED_TASK: Load scheduler "s070" with entities [PRODUCER (ID: 17756161/0x010EF001), PRODUCER (ID: 17756161/0x010EF001)], work=[139*, 0*]
282: 0x08CF [0x27] REQ_SET(priority=0x0B, entity_id=Kohlo-Lakolo (ID: 17756178/0x010EF012), tag_num=0x2E)
283: 0x08D6 [0x2B] Kohlo-Lakolo (ID: 17756178/0x010EF012) [7834*]:
    → "The sound we heard was just the wind blowing in from there..."
284: 0x08DD [0x23] WAIT_FOR_DIALOG_INTERACTION
285: 0x08DE [0x2A] GET_REQ_LEVEL(level=11, entity_id=Kohlo-Lakolo (ID: 17756178/0x010EF012))
286: 0x08E4 [0x29] REQ_SET_WAIT(priority=0x0B, entity_id=Gomada-Vulmada (ID: 17756180/0x010EF014), tag_num=0x1C)
287: 0x08EB [0x4A] Pyo Nzon (ID: 17756183/0x010EF017) looks at Yafa Yaa (ID: 17756182/0x010EF016)
288: 0x08F4 [0x29] REQ_SET_WAIT(priority=0x0B, entity_id=Pyo Nzon (ID: 17756183/0x010EF017), tag_num=0x17)
289: 0x08FB [0x52] END_LOAD_SCHEDULER: End scheduler "s070" with entities [PRODUCER (ID: 17756161/0x010EF001), PRODUCER (ID: 17756161/0x010EF001)], work=139*
290: 0x090A [0x45] LOAD_SCHEDULED_TASK: Load scheduler "s071" with entities [PRODUCER (ID: 17756161/0x010EF001), PRODUCER (ID: 17756161/0x010EF001)], work=[139*, 0*]
291: 0x091B [0x4A] LocalPlayer looks at Papo-Hopo (ID: 17756179/0x010EF013)
292: 0x0924 [0x4A] Kohlo-Lakolo (ID: 17756178/0x010EF012) looks at Papo-Hopo (ID: 17756179/0x010EF013)
293: 0x092D [0x27] REQ_SET(priority=0x0B, entity_id=Papo-Hopo (ID: 17756179/0x010EF013), tag_num=0x11)
294: 0x0934 [0x2B] Papo-Hopo (ID: 17756179/0x010EF013) [7837*]:
    → "So da ghosty's twue identity was just da wind!"
295: 0x093B [0x23] WAIT_FOR_DIALOG_INTERACTION
296: 0x093C [0x1C] WAIT(50* ticks)
297: 0x093F [0x4A] Gomada-Vulmada (ID: 17756180/0x010EF014) looks at Papo-Hopo (ID: 17756179/0x010EF013)
298: 0x0948 [0x4A] Pyo Nzon (ID: 17756183/0x010EF017) looks at Papo-Hopo (ID: 17756179/0x010EF013)
299: 0x0951 [0x1C] WAIT(50* ticks)
300: 0x0954 [0x2B] Papo-Hopo (ID: 17756179/0x010EF013) [7838*]:
    → "It's pwetty dark and hard to tell, but if dere are a lot of gaps in da walls, den dey might give us a clue to get out of here!"
301: 0x095B [0x23] WAIT_FOR_DIALOG_INTERACTION
302: 0x095C [0x2A] GET_REQ_LEVEL(level=11, entity_id=Papo-Hopo (ID: 17756179/0x010EF013))
303: 0x0962 [0x4A] Yafa Yaa (ID: 17756182/0x010EF016) looks at Papo-Hopo (ID: 17756179/0x010EF013)
304: 0x096B [0x4A] Pichichi (ID: 17756181/0x010EF015) looks at Papo-Hopo (ID: 17756179/0x010EF013)
305: 0x0974 [0x52] END_LOAD_SCHEDULER: End scheduler "s071" with entities [PRODUCER (ID: 17756161/0x010EF001), PRODUCER (ID: 17756161/0x010EF001)], work=139*
306: 0x0983 [0x45] LOAD_SCHEDULED_TASK: Load scheduler "s079" with entities [PRODUCER (ID: 17756161/0x010EF001), PRODUCER (ID: 17756161/0x010EF001)], work=[139*, 0*]
307: 0x0994 [0x5D] SET_MUSIC_VOLUME(volume=0*, fade_time=100*)
308: 0x0999 [0x4B] UPDATE_ENTITY_YAW(entity=Papo-Hopo (ID: 17756179/0x010EF013), yaw=16.9°*)
309: 0x09A0 [0x7B] Papo-Hopo (ID: 17756179/0x010EF013) stops talking
310: 0x09A5 [0x1C] WAIT(100* ticks)
311: 0x09A8 [0x45] LOAD_SCHEDULED_TASK: Load scheduler "s072" with entities [PRODUCER (ID: 17756161/0x010EF001), PRODUCER (ID: 17756161/0x010EF001)], work=[139*, 0*]
312: 0x09B9 [0x27] REQ_SET(priority=0x0B, entity_id=Papo-Hopo (ID: 17756179/0x010EF013), tag_num=0x12)
313: 0x09C0 [0x2B] Papo-Hopo (ID: 17756179/0x010EF013) [7839*]:
    → "Arrrrrgggghhhyaaaa!!!"
314: 0x09C7 [0x23] WAIT_FOR_DIALOG_INTERACTION
315: 0x09C8 [0x1C] WAIT(50* ticks)
316: 0x09CB [0x4A] LocalPlayer looks at Papo-Hopo (ID: 17756179/0x010EF013)
317: 0x09D4 [0x4A] Yafa Yaa (ID: 17756182/0x010EF016) looks at Papo-Hopo (ID: 17756179/0x010EF013)
318: 0x09DD [0x4A] Kohlo-Lakolo (ID: 17756178/0x010EF012) looks at Papo-Hopo (ID: 17756179/0x010EF013)
319: 0x09E6 [0x4A] Pichichi (ID: 17756181/0x010EF015) looks at Papo-Hopo (ID: 17756179/0x010EF013)
320: 0x09EF [0x45] LOAD_SCHEDULED_TASK: Load scheduler "s076" with entities [PRODUCER (ID: 17756161/0x010EF001), PRODUCER (ID: 17756161/0x010EF001)], work=[139*, 0*]
321: 0x0A00 [0x1C] WAIT(15* ticks)
322: 0x0A03 [0x27] REQ_SET(priority=0x08, entity_id=Pyo Nzon (ID: 17756183/0x010EF017), tag_num=0x07)
323: 0x0A0A [0x4A] LocalPlayer looks at Papo-Hopo (ID: 17756179/0x010EF013)
324: 0x0A13 [0x4A] Yafa Yaa (ID: 17756182/0x010EF016) looks at Papo-Hopo (ID: 17756179/0x010EF013)
325: 0x0A1C [0x4A] Kohlo-Lakolo (ID: 17756178/0x010EF012) looks at Papo-Hopo (ID: 17756179/0x010EF013)
326: 0x0A25 [0x4A] Pichichi (ID: 17756181/0x010EF015) looks at Papo-Hopo (ID: 17756179/0x010EF013)
327: 0x0A2E [0x1C] WAIT(15* ticks)
328: 0x0A31 [0x4A] LocalPlayer looks at Papo-Hopo (ID: 17756179/0x010EF013)
329: 0x0A3A [0x4A] Yafa Yaa (ID: 17756182/0x010EF016) looks at Papo-Hopo (ID: 17756179/0x010EF013)
330: 0x0A43 [0x4A] Kohlo-Lakolo (ID: 17756178/0x010EF012) looks at Papo-Hopo (ID: 17756179/0x010EF013)
331: 0x0A4C [0x4A] Pichichi (ID: 17756181/0x010EF015) looks at Papo-Hopo (ID: 17756179/0x010EF013)
332: 0x0A55 [0x1C] WAIT(15* ticks)
333: 0x0A58 [0x27] REQ_SET(priority=0x08, entity_id=Yafa Yaa (ID: 17756182/0x010EF016), tag_num=0x06)
334: 0x0A5F [0x4A] Kohlo-Lakolo (ID: 17756178/0x010EF012) looks at Papo-Hopo (ID: 17756179/0x010EF013)
335: 0x0A68 [0x52] END_LOAD_SCHEDULER: End scheduler "s076" with entities [PRODUCER (ID: 17756161/0x010EF001), PRODUCER (ID: 17756161/0x010EF001)], work=139*
336: 0x0A77 [0x45] LOAD_SCHEDULED_TASK: Load scheduler "s075" with entities [PRODUCER (ID: 17756161/0x010EF001), PRODUCER (ID: 17756161/0x010EF001)], work=[139*, 0*]
337: 0x0A88 [0x29] REQ_SET_WAIT(priority=0x0B, entity_id=Gomada-Vulmada (ID: 17756180/0x010EF014), tag_num=0x1B)
338: 0x0A8F [0x2A] GET_REQ_LEVEL(level=8, entity_id=Pyo Nzon (ID: 17756183/0x010EF017))
339: 0x0A95 [0x2A] GET_REQ_LEVEL(level=8, entity_id=Yafa Yaa (ID: 17756182/0x010EF016))
340: 0x0A9B [0x2A] GET_REQ_LEVEL(level=11, entity_id=Pichichi (ID: 17756181/0x010EF015))
341: 0x0AA1 [0x2A] GET_REQ_LEVEL(level=11, entity_id=Papo-Hopo (ID: 17756179/0x010EF013))
342: 0x0AA7 [0x4A] Pichichi (ID: 17756181/0x010EF015) looks at Joker (ID: 17756185/0x010EF019)
343: 0x0AB0 [0x29] REQ_SET_WAIT(priority=0x08, entity_id=Papo-Hopo (ID: 17756179/0x010EF013), tag_num=0x03)
344: 0x0AB7 [0x29] REQ_SET_WAIT(priority=0x0B, entity_id=Papo-Hopo (ID: 17756179/0x010EF013), tag_num=0x15)
345: 0x0ABE [0x29] REQ_SET_WAIT(priority=0x08, entity_id=Gomada-Vulmada (ID: 17756180/0x010EF014), tag_num=0x07)
346: 0x0AC5 [0x45] LOAD_SCHEDULED_TASK: Load scheduler "s077" with entities [PRODUCER (ID: 17756161/0x010EF001), PRODUCER (ID: 17756161/0x010EF001)], work=[139*, 0*]
347: 0x0AD6 [0x5D] SET_MUSIC_VOLUME(volume=127*, fade_time=100*)
348: 0x0ADB [0x4A] LocalPlayer looks at Pichichi (ID: 17756181/0x010EF015)
349: 0x0AE4 [0x27] REQ_SET(priority=0x0B, entity_id=Pichichi (ID: 17756181/0x010EF015), tag_num=0x15)
350: 0x0AEB [0x29] REQ_SET_WAIT(priority=0x0B, entity_id=Kohlo-Lakolo (ID: 17756178/0x010EF012), tag_num=0x30)
351: 0x0AF2 [0x2B] Pichichi (ID: 17756181/0x010EF015) [7843*]:
    → "You mean ath in...a dead body!?"
352: 0x0AF9 [0x23] WAIT_FOR_DIALOG_INTERACTION
353: 0x0AFA [0x4A] Kohlo-Lakolo (ID: 17756178/0x010EF012) looks at Pichichi (ID: 17756181/0x010EF015)
354: 0x0B03 [0x1C] WAIT(30* ticks)
355: 0x0B06 [0x29] REQ_SET_WAIT(priority=0x08, entity_id=Kohlo-Lakolo (ID: 17756178/0x010EF012), tag_num=0x0D)
356: 0x0B0D [0x29] REQ_SET_WAIT(priority=0x08, entity_id=Kohlo-Lakolo (ID: 17756178/0x010EF012), tag_num=0x0E)
357: 0x0B14 [0x29] REQ_SET_WAIT(priority=0x08, entity_id=Gomada-Vulmada (ID: 17756180/0x010EF014), tag_num=0x08)
358: 0x0B1B [0x45] LOAD_SCHEDULED_TASK: Load scheduler "s073" with entities [PRODUCER (ID: 17756161/0x010EF001), PRODUCER (ID: 17756161/0x010EF001)], work=[139*, 0*]
359: 0x0B2C [0x1C] WAIT(30* ticks)
360: 0x0B2F [0x29] REQ_SET_WAIT(priority=0x0B, entity_id=Kohlo-Lakolo (ID: 17756178/0x010EF012), tag_num=0x2C)
361: 0x0B36 [0x29] REQ_SET_WAIT(priority=0x0B, entity_id=Kohlo-Lakolo (ID: 17756178/0x010EF012), tag_num=0x31)
362: 0x0B3D [0x2A] GET_REQ_LEVEL(level=11, entity_id=Pichichi (ID: 17756181/0x010EF015))
363: 0x0B43 [0x4A] Pichichi (ID: 17756181/0x010EF015) looks at Kohlo-Lakolo (ID: 17756178/0x010EF012)
364: 0x0B4C [0x29] REQ_SET_WAIT(priority=0x0B, entity_id=Pichichi (ID: 17756181/0x010EF015), tag_num=0x1A)
365: 0x0B53 [0x29] REQ_SET_WAIT(priority=0x0B, entity_id=Kohlo-Lakolo (ID: 17756178/0x010EF012), tag_num=0x32)
366: 0x0B5A [0x4B] UPDATE_ENTITY_YAW(entity=Pichichi (ID: 17756181/0x010EF015), yaw=11.8°*)
367: 0x0B61 [0x1C] WAIT(30* ticks)
368: 0x0B64 [0x27] REQ_SET(priority=0x0B, entity_id=Pichichi (ID: 17756181/0x010EF015), tag_num=0x16)
369: 0x0B6B [0x1C] WAIT(30* ticks)
370: 0x0B6E [0x45] LOAD_SCHEDULED_TASK: Load scheduler "s080" with entities [PRODUCER (ID: 17756161/0x010EF001), PRODUCER (ID: 17756161/0x010EF001)], work=[139*, 0*]
371: 0x0B7F [0x2B] Pichichi (ID: 17756181/0x010EF015) [7847*]:
    → "But a ghothty ith an undead body, not a dead body, right?"
372: 0x0B86 [0x23] WAIT_FOR_DIALOG_INTERACTION
373: 0x0B87 [0x2A] GET_REQ_LEVEL(level=11, entity_id=Pichichi (ID: 17756181/0x010EF015))
374: 0x0B8D [0x7B] Pichichi (ID: 17756181/0x010EF015) stops talking
375: 0x0B92 [0x27] REQ_SET(priority=0x0B, entity_id=Kohlo-Lakolo (ID: 17756178/0x010EF012), tag_num=0x2D)
376: 0x0B99 [0x4A] Kohlo-Lakolo (ID: 17756178/0x010EF012) looks at Joker (ID: 17756185/0x010EF019)
377: 0x0BA2 [0x4A] Pichichi (ID: 17756181/0x010EF015) looks at Joker (ID: 17756185/0x010EF019)
378: 0x0BAB [0x2B] Kohlo-Lakolo (ID: 17756178/0x010EF012) [7848*]:
    → "Um... Either way, I don't think it's wise to find out!"
379: 0x0BB2 [0x23] WAIT_FOR_DIALOG_INTERACTION
380: 0x0BB3 [0x2A] GET_REQ_LEVEL(level=11, entity_id=Kohlo-Lakolo (ID: 17756178/0x010EF012))
381: 0x0BB9 [0x1C] WAIT(50* ticks)
382: 0x0BBC [0x45] LOAD_SCHEDULED_TASK: Load scheduler "s082" with entities [PRODUCER (ID: 17756161/0x010EF001), PRODUCER (ID: 17756161/0x010EF001)], work=[139*, 0*]
383: 0x0BCD [0x4A] Kohlo-Lakolo (ID: 17756178/0x010EF012) looks at Pichichi (ID: 17756181/0x010EF015)
384: 0x0BD6 [0x5D] SET_MUSIC_VOLUME(volume=0*, fade_time=200*)
385: 0x0BDB [0x4E] SET_ENTITY_HIDE_FLAG: Show Joker (ID: 17756185/0x010EF019)
386: 0x0BE1 [0x29] REQ_SET_WAIT(priority=0x08, entity_id=Joker (ID: 17756185/0x010EF019), tag_num=0x05)
387: 0x0BE8 [0x2C] CREATE_SCHEDULER_TASK: Create scheduler "won4" with entities [Pichichi (ID: 17756181/0x010EF015), Pichichi (ID: 17756181/0x010EF015)]
388: 0x0BF5 [0x29] REQ_SET_WAIT(priority=0x08, entity_id=Pichichi (ID: 17756181/0x010EF015), tag_num=0x0D)
389: 0x0BFC [0x2B] Pichichi (ID: 17756181/0x010EF015) [7850*]:
    → "Huh...?"
390: 0x0C03 [0x23] WAIT_FOR_DIALOG_INTERACTION
391: 0x0C04 [0x29] REQ_SET_WAIT(priority=0x08, entity_id=Pichichi (ID: 17756181/0x010EF015), tag_num=0x0E)
392: 0x0C0B [0x62] LOAD_EVENT_SCHEDULER: Load scheduler "main" with entities [Pichichi (ID: 17756181/0x010EF015), Joker (ID: 17756185/0x010EF019)], work=[13*, 0*]
393: 0x0C1C [0x1C] WAIT(100* ticks)
394: 0x0C1F [0x29] REQ_SET_WAIT(priority=0x0B, entity_id=Kohlo-Lakolo (ID: 17756178/0x010EF012), tag_num=0x34)
395: 0x0C26 [0x45] LOAD_SCHEDULED_TASK: Load scheduler "s081" with entities [PRODUCER (ID: 17756161/0x010EF001), PRODUCER (ID: 17756161/0x010EF001)], work=[139*, 0*]
396: 0x0C37 [0x2C] CREATE_SCHEDULER_TASK: Create scheduler "wof4" with entities [Pichichi (ID: 17756181/0x010EF015), Pichichi (ID: 17756181/0x010EF015)]
397: 0x0C44 [0x62] LOAD_EVENT_SCHEDULER: Load scheduler "mai1" with entities [Pichichi (ID: 17756181/0x010EF015), Joker (ID: 17756185/0x010EF019)], work=[13*, 0*]
398: 0x0C55 [0x4A] Kohlo-Lakolo (ID: 17756178/0x010EF012) looks at Joker (ID: 17756185/0x010EF019)
399: 0x0C5E [0x4A] Pichichi (ID: 17756181/0x010EF015) looks at Joker (ID: 17756185/0x010EF019)
400: 0x0C67 [0x29] REQ_SET_WAIT(priority=0x08, entity_id=Pichichi (ID: 17756181/0x010EF015), tag_num=0x0F)
401: 0x0C6E [0x1C] WAIT(100* ticks)
402: 0x0C71 [0x52] END_LOAD_SCHEDULER: End scheduler "s081" with entities [PRODUCER (ID: 17756161/0x010EF001), PRODUCER (ID: 17756161/0x010EF001)], work=139*
403: 0x0C80 [0x45] LOAD_SCHEDULED_TASK: Load scheduler "s083" with entities [PRODUCER (ID: 17756161/0x010EF001), PRODUCER (ID: 17756161/0x010EF001)], work=[139*, 0*]
404: 0x0C91 [0x29] REQ_SET_WAIT(priority=0x08, entity_id=Joker (ID: 17756185/0x010EF019), tag_num=0x06)
405: 0x0C98 [0x29] REQ_SET_WAIT(priority=0x08, entity_id=Kohlo-Lakolo (ID: 17756178/0x010EF012), tag_num=0x0B)
406: 0x0C9F [0x29] REQ_SET_WAIT(priority=0x08, entity_id=Gomada-Vulmada (ID: 17756180/0x010EF014), tag_num=0x03)
407: 0x0CA6 [0x29] REQ_SET_WAIT(priority=0x0B, entity_id=Kohlo-Lakolo (ID: 17756178/0x010EF012), tag_num=0x2B)
408: 0x0CAD [0x5C] MUSIC_CONTROL: Set Idle (Day) music to song 120*
409: 0x0CB1 [0x5C] MUSIC_CONTROL: Set Idle (Night) music to song 120*
410: 0x0CB5 [0x5D] SET_MUSIC_VOLUME(volume=127*, fade_time=100*)
411: 0x0CBA [0x1C] WAIT(60* ticks)
412: 0x0CBD [0x55] WAIT_LOAD_SCHEDULER: Wait for scheduler "s083" with entities [PRODUCER (ID: 17756161/0x010EF001), PRODUCER (ID: 17756161/0x010EF001)], work=139*
413: 0x0CCC [0x45] LOAD_SCHEDULED_TASK: Load scheduler "s084" with entities [PRODUCER (ID: 17756161/0x010EF001), PRODUCER (ID: 17756161/0x010EF001)], work=[139*, 0*]
414: 0x0CDD [0x29] REQ_SET_WAIT(priority=0x0B, entity_id=Kohlo-Lakolo (ID: 17756178/0x010EF012), tag_num=0x29)
415: 0x0CE4 [0x29] REQ_SET_WAIT(priority=0x08, entity_id=Joker (ID: 17756185/0x010EF019), tag_num=0x07)
416: 0x0CEB [0x29] REQ_SET_WAIT(priority=0x0B, entity_id=Pichichi (ID: 17756181/0x010EF015), tag_num=0x1D)
417: 0x0CF2 [0x52] END_LOAD_SCHEDULER: End scheduler "s084" with entities [PRODUCER (ID: 17756161/0x010EF001), PRODUCER (ID: 17756161/0x010EF001)], work=139*
418: 0x0D01 [0x45] LOAD_SCHEDULED_TASK: Load scheduler "s085" with entities [PRODUCER (ID: 17756161/0x010EF001), PRODUCER (ID: 17756161/0x010EF001)], work=[139*, 0*]
419: 0x0D12 [0x29] REQ_SET_WAIT(priority=0x0B, entity_id=Joker (ID: 17756185/0x010EF019), tag_num=0x10)
420: 0x0D19 [0x29] REQ_SET_WAIT(priority=0x0B, entity_id=Pichichi (ID: 17756181/0x010EF015), tag_num=0x1E)
421: 0x0D20 [0x1C] WAIT(100* ticks)
422: 0x0D23 [0x45] LOAD_SCHEDULED_TASK: Load scheduler "s087" with entities [PRODUCER (ID: 17756161/0x010EF001), PRODUCER (ID: 17756161/0x010EF001)], work=[139*, 0*]
423: 0x0D34 [0x29] REQ_SET_WAIT(priority=0x08, entity_id=Pichichi (ID: 17756181/0x010EF015), tag_num=0x03)
424: 0x0D3B [0x2B] Pichichi (ID: 17756181/0x010EF015) [7855*]:
    → "And you are...?"
425: 0x0D42 [0x23] WAIT_FOR_DIALOG_INTERACTION
426: 0x0D43 [0x29] REQ_SET_WAIT(priority=0x08, entity_id=Pichichi (ID: 17756181/0x010EF015), tag_num=0x04)
427: 0x0D4A [0x29] REQ_SET_WAIT(priority=0x08, entity_id=Pichichi (ID: 17756181/0x010EF015), tag_num=0x05)
428: 0x0D51 [0x29] REQ_SET_WAIT(priority=0x08, entity_id=Pichichi (ID: 17756181/0x010EF015), tag_num=0x06)
429: 0x0D58 [0x29] REQ_SET_WAIT(priority=0x0B, entity_id=Pichichi (ID: 17756181/0x010EF015), tag_num=0x1F)
430: 0x0D5F [0x29] REQ_SET_WAIT(priority=0x0B, entity_id=Pichichi (ID: 17756181/0x010EF015), tag_num=0x20)
431: 0x0D66 [0x45] LOAD_SCHEDULED_TASK: Load scheduler "s086" with entities [PRODUCER (ID: 17756161/0x010EF001), PRODUCER (ID: 17756161/0x010EF001)], work=[139*, 0*]
432: 0x0D77 [0x1C] WAIT(100* ticks)
433: 0x0D7A [0x29] REQ_SET_WAIT(priority=0x0B, entity_id=Joker (ID: 17756185/0x010EF019), tag_num=0x13)
434: 0x0D81 [0x45] LOAD_SCHEDULED_TASK: Load scheduler "fdo1" with entities [PRODUCER (ID: 17756161/0x010EF001), PRODUCER (ID: 17756161/0x010EF001)], work=[200*, 0*]
435: 0x0D92 [0x1C] WAIT(60* ticks)
436: 0x0D95 [0x1C] WAIT(100* ticks)
437: 0x0D98 [0x29] REQ_SET_WAIT(priority=0x0B, entity_id=Joker (ID: 17756185/0x010EF019), tag_num=0x14)
438: 0x0D9F [0x45] LOAD_SCHEDULED_TASK: Load scheduler "s041" with entities [PRODUCER (ID: 17756161/0x010EF001), PRODUCER (ID: 17756161/0x010EF001)], work=[139*, 0*]
439: 0x0DB0 [0x27] REQ_SET(priority=0x0B, entity_id=Papo-Hopo (ID: 17756179/0x010EF013), tag_num=0x16)
440: 0x0DB7 [0x27] REQ_SET(priority=0x0B, entity_id=Gomada-Vulmada (ID: 17756180/0x010EF014), tag_num=0x1D)
441: 0x0DBE [0x27] REQ_SET(priority=0x0B, entity_id=LocalPlayer, tag_num=0x31)
442: 0x0DC5 [0x27] REQ_SET(priority=0x0B, entity_id=Pyo Nzon (ID: 17756183/0x010EF017), tag_num=0x18)
443: 0x0DCC [0x27] REQ_SET(priority=0x0B, entity_id=Yafa Yaa (ID: 17756182/0x010EF016), tag_num=0x13)
444: 0x0DD3 [0x27] REQ_SET(priority=0x0B, entity_id=Joker (ID: 17756185/0x010EF019), tag_num=0x15)
445: 0x0DDA [0x27] REQ_SET(priority=0x0B, entity_id=Pichichi (ID: 17756181/0x010EF015), tag_num=0x21)
446: 0x0DE1 [0x27] REQ_SET(priority=0x0D, entity_id=Kohlo-Lakolo (ID: 17756178/0x010EF012), tag_num=0x35)
447: 0x0DE8 [0x4C] EventEntity->StatusEvent = 8 // Open door
448: 0x0DE9 [0x45] LOAD_SCHEDULED_TASK: Load scheduler "fdi1" with entities [PRODUCER (ID: 17756161/0x010EF001), PRODUCER (ID: 17756161/0x010EF001)], work=[200*, 0*]
449: 0x0DFA [0x2B] Kohlo-Lakolo (ID: 17756178/0x010EF012) [7861*]:
    → "Ye`ah! I'm glad to be out of there!"
450: 0x0E01 [0x23] WAIT_FOR_DIALOG_INTERACTION
451: 0x0E02 [0x1C] WAIT(60* ticks)
452: 0x0E05 [0x55] WAIT_LOAD_SCHEDULER: Wait for scheduler "s041" with entities [PRODUCER (ID: 17756161/0x010EF001), PRODUCER (ID: 17756161/0x010EF001)], work=139*
453: 0x0E14 [0x2A] GET_REQ_LEVEL(level=11, entity_id=Yafa Yaa (ID: 17756182/0x010EF016))
454: 0x0E1A [0x45] LOAD_SCHEDULED_TASK: Load scheduler "s043" with entities [PRODUCER (ID: 17756161/0x010EF001), PRODUCER (ID: 17756161/0x010EF001)], work=[139*, 0*]
455: 0x0E2B [0x4E] SET_ENTITY_HIDE_FLAG: Hide LocalPlayer
456: 0x0E31 [0x4D] EventEntity->StatusEvent = 9 // Close door
457: 0x0E32 [0x29] REQ_SET_WAIT(priority=0x0B, entity_id=Kohlo-Lakolo (ID: 17756178/0x010EF012), tag_num=0x37)
458: 0x0E39 [0x29] REQ_SET_WAIT(priority=0x0B, entity_id=Papo-Hopo (ID: 17756179/0x010EF013), tag_num=0x18)
459: 0x0E40 [0x4A] Gomada-Vulmada (ID: 17756180/0x010EF014) looks at Papo-Hopo (ID: 17756179/0x010EF013)
460: 0x0E49 [0x29] REQ_SET_WAIT(priority=0x0B, entity_id=Gomada-Vulmada (ID: 17756180/0x010EF014), tag_num=0x1F)
461: 0x0E50 [0x2A] GET_REQ_LEVEL(level=13, entity_id=Kohlo-Lakolo (ID: 17756178/0x010EF012))
462: 0x0E56 [0x2A] GET_REQ_LEVEL(level=11, entity_id=Papo-Hopo (ID: 17756179/0x010EF013))
463: 0x0E5C [0x2A] GET_REQ_LEVEL(level=11, entity_id=Gomada-Vulmada (ID: 17756180/0x010EF014))
464: 0x0E62 [0x4A] Kohlo-Lakolo (ID: 17756178/0x010EF012) looks at Pichichi (ID: 17756181/0x010EF015)
465: 0x0E6B [0x4A] Papo-Hopo (ID: 17756179/0x010EF013) looks at Kohlo-Lakolo (ID: 17756178/0x010EF012)
466: 0x0E74 [0x4A] Gomada-Vulmada (ID: 17756180/0x010EF014) looks at Kohlo-Lakolo (ID: 17756178/0x010EF012)
467: 0x0E7D [0x4A] Pyo Nzon (ID: 17756183/0x010EF017) looks at Kohlo-Lakolo (ID: 17756178/0x010EF012)
468: 0x0E86 [0x4A] Yafa Yaa (ID: 17756182/0x010EF016) looks at Kohlo-Lakolo (ID: 17756178/0x010EF012)
469: 0x0E8F [0x4A] Pichichi (ID: 17756181/0x010EF015) looks at Kohlo-Lakolo (ID: 17756178/0x010EF012)
470: 0x0E98 [0x29] REQ_SET_WAIT(priority=0x0B, entity_id=Kohlo-Lakolo (ID: 17756178/0x010EF012), tag_num=0x38)
471: 0x0E9F [0x52] END_LOAD_SCHEDULER: End scheduler "s043" with entities [PRODUCER (ID: 17756161/0x010EF001), PRODUCER (ID: 17756161/0x010EF001)], work=139*
472: 0x0EAE [0x45] LOAD_SCHEDULED_TASK: Load scheduler "s051" with entities [PRODUCER (ID: 17756161/0x010EF001), PRODUCER (ID: 17756161/0x010EF001)], work=[139*, 0*]
473: 0x0EBF [0x02] IF !(ExtData[1]->WorkLocal[1] == 0*) GOTO 0x0ED0
474: 0x0EC7 [0x4E] SET_ENTITY_HIDE_FLAG: Show LocalPlayer
475: 0x0ECD [0x01] GOTO 0x0ED0

SUBROUTINE_0ED0:
476: 0x0ED0 [0x29] REQ_SET_WAIT(priority=0x0B, entity_id=Kohlo-Lakolo (ID: 17756178/0x010EF012), tag_num=0x39)
477: 0x0ED7 [0x27] REQ_SET(priority=0x08, entity_id=Gomada-Vulmada (ID: 17756180/0x010EF014), tag_num=0x05)
478: 0x0EDE [0x27] REQ_SET(priority=0x08, entity_id=Papo-Hopo (ID: 17756179/0x010EF013), tag_num=0x05)
479: 0x0EE5 [0x27] REQ_SET(priority=0x08, entity_id=Pyo Nzon (ID: 17756183/0x010EF017), tag_num=0x03)
480: 0x0EEC [0x27] REQ_SET(priority=0x08, entity_id=Yafa Yaa (ID: 17756182/0x010EF016), tag_num=0x03)
481: 0x0EF3 [0x29] REQ_SET_WAIT(priority=0x0B, entity_id=Papo-Hopo (ID: 17756179/0x010EF013), tag_num=0x1F)
482: 0x0EFA [0x29] REQ_SET_WAIT(priority=0x0B, entity_id=Gomada-Vulmada (ID: 17756180/0x010EF014), tag_num=0x13)
483: 0x0F01 [0x29] REQ_SET_WAIT(priority=0x0B, entity_id=Pyo Nzon (ID: 17756183/0x010EF017), tag_num=0x23)
484: 0x0F08 [0x29] REQ_SET_WAIT(priority=0x0B, entity_id=Yafa Yaa (ID: 17756182/0x010EF016), tag_num=0x1D)
485: 0x0F0F [0x2A] GET_REQ_LEVEL(level=8, entity_id=Gomada-Vulmada (ID: 17756180/0x010EF014))
486: 0x0F15 [0x2A] GET_REQ_LEVEL(level=8, entity_id=Papo-Hopo (ID: 17756179/0x010EF013))
487: 0x0F1B [0x2A] GET_REQ_LEVEL(level=8, entity_id=Pyo Nzon (ID: 17756183/0x010EF017))
488: 0x0F21 [0x2A] GET_REQ_LEVEL(level=8, entity_id=Yafa Yaa (ID: 17756182/0x010EF016))
489: 0x0F27 [0x29] REQ_SET_WAIT(priority=0x08, entity_id=Gomada-Vulmada (ID: 17756180/0x010EF014), tag_num=0x06)
490: 0x0F2E [0x29] REQ_SET_WAIT(priority=0x08, entity_id=Papo-Hopo (ID: 17756179/0x010EF013), tag_num=0x06)
491: 0x0F35 [0x29] REQ_SET_WAIT(priority=0x08, entity_id=Pyo Nzon (ID: 17756183/0x010EF017), tag_num=0x04)
492: 0x0F3C [0x29] REQ_SET_WAIT(priority=0x08, entity_id=Yafa Yaa (ID: 17756182/0x010EF016), tag_num=0x04)
493: 0x0F43 [0x45] LOAD_SCHEDULED_TASK: Load scheduler "s044" with entities [PRODUCER (ID: 17756161/0x010EF001), PRODUCER (ID: 17756161/0x010EF001)], work=[139*, 0*]
494: 0x0F54 [0x27] REQ_SET(priority=0x0B, entity_id=Kohlo-Lakolo (ID: 17756178/0x010EF012), tag_num=0x36)
495: 0x0F5B [0x27] REQ_SET(priority=0x0B, entity_id=Papo-Hopo (ID: 17756179/0x010EF013), tag_num=0x17)
496: 0x0F62 [0x27] REQ_SET(priority=0x0B, entity_id=Gomada-Vulmada (ID: 17756180/0x010EF014), tag_num=0x1E)
497: 0x0F69 [0x27] REQ_SET(priority=0x0B, entity_id=LocalPlayer, tag_num=0x32)
498: 0x0F70 [0x27] REQ_SET(priority=0x0B, entity_id=Yafa Yaa (ID: 17756182/0x010EF016), tag_num=0x14)
499: 0x0F77 [0x27] REQ_SET(priority=0x0B, entity_id=Pyo Nzon (ID: 17756183/0x010EF017), tag_num=0x19)
500: 0x0F7E [0x29] REQ_SET_WAIT(priority=0x0B, entity_id=Pichichi (ID: 17756181/0x010EF015), tag_num=0x23)
501: 0x0F85 [0x29] REQ_SET_WAIT(priority=0x0B, entity_id=Pichichi (ID: 17756181/0x010EF015), tag_num=0x26)
502: 0x0F8C [0x45] LOAD_SCHEDULED_TASK: Load scheduler "s045" with entities [PRODUCER (ID: 17756161/0x010EF001), PRODUCER (ID: 17756161/0x010EF001)], work=[139*, 0*]
503: 0x0F9D [0x29] REQ_SET_WAIT(priority=0x0B, entity_id=Pichichi (ID: 17756181/0x010EF015), tag_num=0x24)
504: 0x0FA4 [0x55] WAIT_LOAD_SCHEDULER: Wait for scheduler "s045" with entities [PRODUCER (ID: 17756161/0x010EF001), PRODUCER (ID: 17756161/0x010EF001)], work=139*
505: 0x0FB3 [0x4A] Pichichi (ID: 17756181/0x010EF015) looks at Joker (ID: 17756185/0x010EF019)
506: 0x0FBC [0x29] REQ_SET_WAIT(priority=0x0B, entity_id=Pichichi (ID: 17756181/0x010EF015), tag_num=0x27)
507: 0x0FC3 [0x4A] Joker (ID: 17756185/0x010EF019) looks at Pichichi (ID: 17756181/0x010EF015)
508: 0x0FCC [0x4B] UPDATE_ENTITY_YAW(entity=Joker (ID: 17756185/0x010EF019), yaw=17.1°*)
509: 0x0FD3 [0x45] LOAD_SCHEDULED_TASK: Load scheduler "s047" with entities [PRODUCER (ID: 17756161/0x010EF001), PRODUCER (ID: 17756161/0x010EF001)], work=[139*, 0*]
510: 0x0FE4 [0x29] REQ_SET_WAIT(priority=0x0B, entity_id=Joker (ID: 17756185/0x010EF019), tag_num=0x1B)
511: 0x0FEB [0x55] WAIT_LOAD_SCHEDULER: Wait for scheduler "s047" with entities [PRODUCER (ID: 17756161/0x010EF001), PRODUCER (ID: 17756161/0x010EF001)], work=139*
512: 0x0FFA [0x45] LOAD_SCHEDULED_TASK: Load scheduler "s046" with entities [PRODUCER (ID: 17756161/0x010EF001), PRODUCER (ID: 17756161/0x010EF001)], work=[139*, 0*]
513: 0x100B [0x29] REQ_SET_WAIT(priority=0x0B, entity_id=Joker (ID: 17756185/0x010EF019), tag_num=0x18)
514: 0x1012 [0x29] REQ_SET_WAIT(priority=0x0B, entity_id=Pichichi (ID: 17756181/0x010EF015), tag_num=0x28)
515: 0x1019 [0x4A] Joker (ID: 17756185/0x010EF019) looks at Pichichi (ID: 17756181/0x010EF015)
516: 0x1022 [0x45] LOAD_SCHEDULED_TASK: Load scheduler "s048" with entities [PRODUCER (ID: 17756161/0x010EF001), PRODUCER (ID: 17756161/0x010EF001)], work=[139*, 0*]
517: 0x1033 [0x29] REQ_SET_WAIT(priority=0x0B, entity_id=Joker (ID: 17756185/0x010EF019), tag_num=0x19)
518: 0x103A [0x1C] WAIT(100* ticks)
519: 0x103D [0x45] LOAD_SCHEDULED_TASK: Load scheduler "s046" with entities [PRODUCER (ID: 17756161/0x010EF001), PRODUCER (ID: 17756161/0x010EF001)], work=[139*, 0*]
520: 0x104E [0x29] REQ_SET_WAIT(priority=0x0B, entity_id=Pichichi (ID: 17756181/0x010EF015), tag_num=0x29)
521: 0x1055 [0x45] LOAD_SCHEDULED_TASK: Load scheduler "s050" with entities [PRODUCER (ID: 17756161/0x010EF001), PRODUCER (ID: 17756161/0x010EF001)], work=[139*, 0*]
522: 0x1066 [0x27] REQ_SET(priority=0x0B, entity_id=Pichichi (ID: 17756181/0x010EF015), tag_num=0x25)
523: 0x106D [0x1C] WAIT(50* ticks)
524: 0x1070 [0x29] REQ_SET_WAIT(priority=0x0B, entity_id=Joker (ID: 17756185/0x010EF019), tag_num=0x1A)
525: 0x1077 [0x45] LOAD_SCHEDULED_TASK: Load scheduler "s052" with entities [PRODUCER (ID: 17756161/0x010EF001), PRODUCER (ID: 17756161/0x010EF001)], work=[139*, 0*]
526: 0x1088 [0x2A] GET_REQ_LEVEL(level=11, entity_id=Pichichi (ID: 17756181/0x010EF015))
527: 0x108E [0x4A] Pichichi (ID: 17756181/0x010EF015) looks at Joker (ID: 17756185/0x010EF019)
528: 0x1097 [0x29] REQ_SET_WAIT(priority=0x0B, entity_id=Pichichi (ID: 17756181/0x010EF015), tag_num=0x2A)
529: 0x109E [0x29] REQ_SET_WAIT(priority=0x0B, entity_id=Joker (ID: 17756185/0x010EF019), tag_num=0x1B)
530: 0x10A5 [0x2B] Joker (ID: 17756185/0x010EF019) [7877*]:
    → "jOkEr$26iS nOt A gHoSt! JoKEr Is a$26CaRdIan!"
531: 0x10AC [0x23] WAIT_FOR_DIALOG_INTERACTION
532: 0x10AD [0x45] LOAD_SCHEDULED_TASK: Load scheduler "s049" with entities [PRODUCER (ID: 17756161/0x010EF001), PRODUCER (ID: 17756161/0x010EF001)], work=[139*, 0*]
533: 0x10BE [0x27] REQ_SET(priority=0x0B, entity_id=Joker (ID: 17756185/0x010EF019), tag_num=0x17)
534: 0x10C5 [0x55] WAIT_LOAD_SCHEDULER: Wait for scheduler "s049" with entities [PRODUCER (ID: 17756161/0x010EF001), PRODUCER (ID: 17756161/0x010EF001)], work=139*
535: 0x10D4 [0x45] LOAD_SCHEDULED_TASK: Load scheduler "fdo1" with entities [PRODUCER (ID: 17756161/0x010EF001), PRODUCER (ID: 17756161/0x010EF001)], work=[200*, 0*]
536: 0x10E5 [0x1C] WAIT(60* ticks)
537: 0x10E8 [0x2A] GET_REQ_LEVEL(level=11, entity_id=Joker (ID: 17756185/0x010EF019))
538: 0x10EE [0x2A] GET_REQ_LEVEL(level=11, entity_id=Kohlo-Lakolo (ID: 17756178/0x010EF012))
539: 0x10F4 [0x2A] GET_REQ_LEVEL(level=11, entity_id=Papo-Hopo (ID: 17756179/0x010EF013))
540: 0x10FA [0x2A] GET_REQ_LEVEL(level=11, entity_id=Gomada-Vulmada (ID: 17756180/0x010EF014))
541: 0x1100 [0x2A] GET_REQ_LEVEL(level=11, entity_id=Yafa Yaa (ID: 17756182/0x010EF016))
542: 0x1106 [0x2A] GET_REQ_LEVEL(level=11, entity_id=Pyo Nzon (ID: 17756183/0x010EF017))
543: 0x110C [0x5C] MUSIC_CONTROL: Set Idle (Day) music to song 151*
544: 0x1110 [0x5C] MUSIC_CONTROL: Set Idle (Night) music to song 151*
545: 0x1114 [0x5D] SET_MUSIC_VOLUME(volume=127*, fade_time=1*)
546: 0x1119 [0x1C] WAIT(300* ticks)
547: 0x111C [0x7B] Kohlo-Lakolo (ID: 17756178/0x010EF012) stops talking
548: 0x1121 [0x02] IF !(ExtData[1]->WorkLocal[1] == 0*) GOTO 0x112C
549: 0x1129 [0x01] GOTO 0x1136
550: 0x112C [0x4E] SET_ENTITY_HIDE_FLAG: Show Unnamed NPC (ID: 17756305/0x010EF091)
551: 0x1132 [0x38] SET_CLIENT_EVENT_MODE(mode=19*)
552: 0x1135 [0x78] ENABLE_GAME_TIMER_RESET_WEATHER()

SUBROUTINE_1136:
553: 0x1136 [0x1C] WAIT(30* ticks)
554: 0x1139 [0x4E] SET_ENTITY_HIDE_FLAG: Show LocalPlayer
555: 0x113F [0x1C] WAIT(30* ticks)
556: 0x1142 [0x45] LOAD_SCHEDULED_TASK: Load scheduler "qstc" with entities [LocalPlayer, LocalPlayer], work=[201*, 0*]
557: 0x1153 [0x45] LOAD_SCHEDULED_TASK: Load scheduler "fdi1" with entities [EventEntity, EventEntity], work=[200*, 0*]
558: 0x1164 [0x46] CAMERA_CONTROL: Restore default settings
559: 0x1166 [0x20] SET_CLI_EVENT_UC_FLAG: Unlock player control
560: 0x1168 [0x21] END_EVENT
561: 0x1169 [0x00] END_REQSTACK()
```

### Event 288

#### Metadata

| Field        | Value      |
|--------------|------------|
| Entrypoint   | 0x116A     |
| Data Size    | 2835 bytes |
| Instructions | 373        |

```
      00 01 02 03 04 05 06 07  08 09 0A 0B 0C 0D 0E 0F
      -- -- -- -- -- -- -- --  -- -- -- -- -- -- -- --
1160:                                46 01 42 45 00 80            F.BE..
1170: F8 FF FF 7F F8 FF FF 7F  66 64 6F 31 01 80 1C 02  ........fdo1....
1180: 80 38 03 80 03 00 00 01  80 02 00 00 01 80 00 94  .8..............
1190: 11 01 A2 11 77 04 80 01  80 4E 01 91 F0 0E 01 38  ....w....N.....8
11A0: 05 80 29 08 F0 FF FF 7F  05 29 0B F0 FF FF 7F 26  ..)......).....&
11B0: 5C 00 23 80 5C 01 23 80  5D 15 80 2B 80 1C 07 80  \.#.\.#.]..+....
11C0: 4E 00 12 F0 0E 01 4E 00  13 F0 0E 01 4E 00 14 F0  N.....N.....N...
11D0: 0E 01 4E 00 16 F0 0E 01  4E 00 17 F0 0E 01 4E 00  ..N.....N.....N.
11E0: 15 F0 0E 01 80 12 F0 0E  01 80 13 F0 0E 01 80 14  ................
11F0: F0 0E 01 80 16 F0 0E 01  80 17 F0 0E 01 80 15 F0  ................
1200: 0E 01 2C 15 F0 0E 01 15  F0 0E 01 77 6F 66 34 02  ..,........wof4.
1210: 00 00 01 80 00 6D 12 45  08 80 01 F0 0E 01 01 F0  .....m.E........
1220: 0E 01 73 30 35 35 01 80  45 00 80 F0 FF FF 7F F0  ..s055..E.......
1230: FF FF 7F 66 64 69 31 01  80 2B 12 F0 0E 01 2C 80  ...fdi1..+....,.
1240: 23 4A F0 FF FF 7F 12 F0  0E 01 52 08 80 01 F0 0E  #J........R.....
1250: 01 01 F0 0E 01 73 30 35  35 45 08 80 01 F0 0E 01  .....s055E......
1260: 01 F0 0E 01 73 30 35 33  01 80 01 8F 12 45 08 80  ....s053.....E..
1270: 01 F0 0E 01 01 F0 0E 01  73 30 35 33 01 80 45 00  ........s053..E.
1280: 80 F0 FF FF 7F F0 FF FF  7F 66 64 69 31 01 80 27  .........fdi1..'
1290: 0B 12 F0 0E 01 3C 27 0B  13 F0 0E 01 1B 27 0B 14  .....<'......'..
12A0: F0 0E 01 0E 27 0B 16 F0  0E 01 18 27 0B 17 F0 0E  ....'......'....
12B0: 01 1D 27 0B 15 F0 0E 01  2D 2A 0B 12 F0 0E 01 2A  ..'.....-*.....*
12C0: 0B 13 F0 0E 01 2A 0B 14  F0 0E 01 2A 0B 16 F0 0E  .....*.....*....
12D0: 01 2A 0B 17 F0 0E 01 2A  0B 15 F0 0E 01 55 08 80  .*.....*.....U..
12E0: 01 F0 0E 01 01 F0 0E 01  73 30 35 33 45 08 80 01  ........s053E...
12F0: F0 0E 01 01 F0 0E 01 73  31 30 34 01 80 02 00 00  .......s104.....
1300: 01 80 00 29 13 29 0B 12  F0 0E 01 40 4A 12 F0 0E  ...).).....@J...
1310: 01 15 F0 0E 01 45 08 80  01 F0 0E 01 01 F0 0E 01  .....E..........
1320: 73 30 35 34 01 80 01 32  13 4A 12 F0 0E 01 15 F0  s054...2.J......
1330: 0E 01 2B 12 F0 0E 01 2D  80 23 27 08 14 F0 0E 01  ..+....-.#'.....
1340: 05 27 08 13 F0 0E 01 05  27 08 16 F0 0E 01 03 27  .'......'......'
1350: 08 17 F0 0E 01 05 2B 13  F0 0E 01 2E 80 23 2B 14  ......+......#+.
1360: F0 0E 01 2F 80 23 2B 16  F0 0E 01 30 80 23 2B 17  .../.#+....0.#+.
1370: F0 0E 01 31 80 23 2A 08  14 F0 0E 01 2A 08 13 F0  ...1.#*.....*...
1380: 0E 01 2A 08 16 F0 0E 01  2A 08 17 F0 0E 01 29 08  ..*.....*.....).
1390: 14 F0 0E 01 06 29 08 13  F0 0E 01 06 29 08 17 F0  .....)......)...
13A0: 0E 01 04 29 08 16 F0 0E  01 04 45 00 80 F0 FF FF  ...)......E.....
13B0: 7F F0 FF FF 7F 66 64 6F  31 01 80 1C 02 80 29 0B  .....fdo1.....).
13C0: F0 FF FF 7F 27 29 0B 12  F0 0E 01 3B 29 0B 14 F0  ....').....;)...
13D0: 0E 01 0D 29 0B 17 F0 0E  01 1C 29 0B 16 F0 0E 01  ...)......).....
13E0: 17 29 0B 15 F0 0E 01 2C  29 0B 13 F0 0E 01 1A 4E  .).....,)......N
13F0: 00 18 F0 0E 01 1C 02 80  45 08 80 01 F0 0E 01 01  ........E.......
1400: F0 0E 01 73 30 35 36 01  80 45 00 80 F0 FF FF 7F  ...s056..E......
1410: F0 FF FF 7F 66 64 69 31  01 80 1C 13 80 45 00 80  ....fdi1.....E..
1420: F0 FF FF 7F F0 FF FF 7F  66 64 6F 31 01 80 55 08  ........fdo1..U.
1430: 80 01 F0 0E 01 01 F0 0E  01 73 30 35 36 1C 02 80  .........s056...
1440: 45 08 80 01 F0 0E 01 01  F0 0E 01 73 30 35 37 01  E..........s057.
1450: 80 45 00 80 F0 FF FF 7F  F0 FF FF 7F 66 64 69 31  .E..........fdi1
1460: 01 80 29 0B 12 F0 0E 01  42 4A 12 F0 0E 01 14 F0  ..).....BJ......
1470: 0E 01 29 0B 12 F0 0E 01  43 4A 13 F0 0E 01 14 F0  ..).....CJ......
1480: 0E 01 52 08 80 01 F0 0E  01 01 F0 0E 01 73 30 35  ..R..........s05
1490: 37 45 08 80 01 F0 0E 01  01 F0 0E 01 73 30 35 38  7E..........s058
14A0: 01 80 29 0B 14 F0 0E 01  12 29 0B 12 F0 0E 01 44  ..)......).....D
14B0: 29 0B 18 F0 0E 01 26 45  08 80 01 F0 0E 01 01 F0  ).....&E........
14C0: 0E 01 73 30 35 39 01 80  4A 17 F0 0E 01 12 F0 0E  ..s059..J.......
14D0: 01 29 0B 17 F0 0E 01 22  80 18 F0 0E 01 4B 17 F0  .).....".....K..
14E0: 0E 01 32 80 4A 12 F0 0E  01 18 F0 0E 01 4A 14 F0  ..2.J........J..
14F0: 0E 01 18 F0 0E 01 4A 13  F0 0E 01 18 F0 0E 01 4A  ......J........J
1500: 16 F0 0E 01 18 F0 0E 01  27 0B 18 F0 0E 01 29 45  ........'.....)E
1510: 00 80 F0 FF FF 7F F0 FF  FF 7F 66 64 6F 31 01 80  ..........fdo1..
1520: 1C 02 80 27 0B 15 F0 0E  01 2E 27 0B 14 F0 0E 01  ...'......'.....
1530: 0F 27 0B 13 F0 0E 01 1C  2A 0B 14 F0 0E 01 2A 0B  .'......*.....*.
1540: 13 F0 0E 01 1C 02 80 45  08 80 01 F0 0E 01 01 F0  .......E........
1550: 0E 01 73 30 36 30 01 80  45 00 80 F0 FF FF 7F F0  ..s060..E.......
1560: FF FF 7F 66 64 69 31 01  80 1C 00 80 2A 0B 15 F0  ...fdi1.....*...
1570: 0E 01 4A 12 F0 0E 01 18  F0 0E 01 4A 14 F0 0E 01  ..J........J....
1580: 18 F0 0E 01 4A 13 F0 0E  01 18 F0 0E 01 4A 16 F0  ....J........J..
1590: 0E 01 18 F0 0E 01 4B 12  F0 0E 01 33 80 6F 76 12  ......K....3.ov.
15A0: F0 0E 01 5D 01 80 23 80  2C 12 F0 0E 01 12 F0 0E  ...]..#.,.......
15B0: 01 77 6F 6E 34 29 08 12  F0 0E 01 13 29 08 12 F0  .won4)......)...
15C0: 0E 01 14 45 08 80 01 F0  0E 01 01 F0 0E 01 73 30  ...E..........s0
15D0: 36 31 01 80 27 0B 17 F0  0E 01 1E 1C 02 80 27 0B  61..'.........'.
15E0: 16 F0 0E 01 19 55 08 80  01 F0 0E 01 01 F0 0E 01  .....U..........
15F0: 73 30 36 31 2B 12 F0 0E  01 34 80 23 4A 13 F0 0E  s061+....4.#J...
1600: 01 12 F0 0E 01 2B 12 F0  0E 01 35 80 23 2B 12 F0  .....+....5.#+..
1610: 0E 01 36 80 23 2B 12 F0  0E 01 37 80 23 29 08 12  ..6.#+....7.#)..
1620: F0 0E 01 15 29 08 12 F0  0E 01 16 2A 0B 17 F0 0E  ....)......*....
1630: 01 2A 0B 16 F0 0E 01 2A  0B 18 F0 0E 01 29 0B 18  .*.....*.....)..
1640: F0 0E 01 27 62 38 80 18  F0 0E 01 18 F0 0E 01 6D  ...'b8.........m
1650: 61 69 6E 01 80 45 08 80  F0 FF FF 7F F0 FF FF 7F  ain..E..........
1660: 73 31 30 37 01 80 2B 18  F0 0E 01 39 80 23 29 08  s107..+....9.#).
1670: 12 F0 0E 01 0D 29 08 14  F0 0E 01 07 29 08 13 F0  .....)......)...
1680: 0E 01 07 29 08 17 F0 0E  01 07 29 08 16 F0 0E 01  ...)......).....
1690: 06 1C 07 80 4A 12 F0 0E  01 F0 FF FF 7F 1C 0C 80  ....J...........
16A0: 29 0B 12 F0 0E 01 46 62  38 80 18 F0 0E 01 18 F0  ).....Fb8.......
16B0: 0E 01 73 74 6F 6E 01 80  27 0B 12 F0 0E 01 3D 27  ..ston..'.....='
16C0: 0B 13 F0 0E 01 1D 27 0B  14 F0 0E 01 10 27 0B 16  ......'......'..
16D0: F0 0E 01 1A 27 0B 17 F0  0E 01 1F 27 0B 15 F0 0E  ....'......'....
16E0: 01 2F 1C 0C 80 4A F0 FF  FF 7F 12 F0 0E 01 1C 0C  ./...J..........
16F0: 80 4A F0 FF FF 7F 12 F0  0E 01 02 00 00 01 80 00  .J..............
1700: 12 17 1C 0C 80 27 0B F0  FF FF 7F 28 1C 0C 80 01  .....'.....(....
1710: 12 17 45 00 80 F0 FF FF  7F F0 FF FF 7F 66 64 6F  ..E..........fdo
1720: 31 01 80 1C 02 80 5C 00  06 80 5C 01 06 80 1C 07  1.....\...\.....
1730: 80 5D 15 80 23 80 2A 0B  12 F0 0E 01 2A 0B 13 F0  .]..#.*.....*...
1740: 0E 01 2A 0B 14 F0 0E 01  2A 0B 16 F0 0E 01 2A 0B  ..*.....*.....*.
1750: 17 F0 0E 01 2A 0B 15 F0  0E 01 02 00 00 01 80 00  ....*...........
1760: 6B 17 2A 0B F0 FF FF 7F  01 6B 17 29 0B 12 F0 0E  k.*......k.)....
1770: 01 3E 29 0B 13 F0 0E 01  1E 29 0B 14 F0 0E 01 11  .>)......)......
1780: 29 0B 16 F0 0E 01 1B 29  0B 17 F0 0E 01 20 29 0B  )......)..... ).
1790: 15 F0 0E 01 30 29 0B F0  FF FF 7F 29 29 0B 18 F0  ....0).....))...
17A0: 0E 01 2A 29 0B 18 F0 0E  01 28 29 0B 18 F0 0E 01  ..*).....().....
17B0: 13 29 0B 18 F0 0E 01 14  4E 00 10 F0 0E 01 45 08  .)......N.....E.
17C0: 80 01 F0 0E 01 01 F0 0E  01 73 30 36 32 01 80 45  .........s062..E
17D0: 00 80 F0 FF FF 7F F0 FF  FF 7F 66 64 69 31 01 80  ..........fdi1..
17E0: 55 08 80 01 F0 0E 01 01  F0 0E 01 73 30 36 32 45  U..........s062E
17F0: 08 80 01 F0 0E 01 01 F0  0E 01 73 30 36 33 01 80  ..........s063..
1800: 29 0B 12 F0 0E 01 3F 4A  12 F0 0E 01 13 F0 0E 01  ).....?J........
1810: 29 0B 12 F0 0E 01 47 02  09 10 38 80 00 33 18 45  ).....G...8..3.E
1820: 08 80 01 F0 0E 01 01 F0  0E 01 73 31 30 38 01 80  ..........s108..
1830: 01 44 18 45 08 80 01 F0  0E 01 01 F0 0E 01 73 30  .D.E..........s0
1840: 36 35 01 80 4A 12 F0 0E  01 F0 FF FF 7F 29 0B 12  65..J........)..
1850: F0 0E 01 48 62 3A 80 10  F0 0E 01 10 F0 0E 01 6D  ...Hb:.........m
1860: 61 69 6E 01 80 4A 12 F0  0E 01 15 F0 0E 01 4A 16  ain..J........J.
1870: F0 0E 01 15 F0 0E 01 4A  17 F0 0E 01 15 F0 0E 01  .......J........
1880: 4A 14 F0 0E 01 15 F0 0E  01 4A 13 F0 0E 01 15 F0  J........J......
1890: 0E 01 29 0B 15 F0 0E 01  35 4E 01 10 F0 0E 01 45  ..).....5N.....E
18A0: 08 80 01 F0 0E 01 01 F0  0E 01 73 30 36 34 01 80  ..........s064..
18B0: 27 0B 15 F0 0E 01 31 4A  12 F0 0E 01 15 F0 0E 01  '.....1J........
18C0: 4A 16 F0 0E 01 15 F0 0E  01 4A 17 F0 0E 01 15 F0  J........J......
18D0: 0E 01 4A 14 F0 0E 01 15  F0 0E 01 4A 13 F0 0E 01  ..J........J....
18E0: 15 F0 0E 01 1C 0C 80 4A  12 F0 0E 01 15 F0 0E 01  .......J........
18F0: 4A 16 F0 0E 01 15 F0 0E  01 4A 17 F0 0E 01 15 F0  J........J......
1900: 0E 01 4A 14 F0 0E 01 15  F0 0E 01 4A 13 F0 0E 01  ..J........J....
1910: 15 F0 0E 01 1C 0C 80 4A  12 F0 0E 01 15 F0 0E 01  .......J........
1920: 4A 16 F0 0E 01 15 F0 0E  01 4A 17 F0 0E 01 15 F0  J........J......
1930: 0E 01 4A 14 F0 0E 01 15  F0 0E 01 4A 13 F0 0E 01  ..J........J....
1940: 15 F0 0E 01 1C 0C 80 4A  12 F0 0E 01 15 F0 0E 01  .......J........
1950: 4A 16 F0 0E 01 15 F0 0E  01 4A 17 F0 0E 01 15 F0  J........J......
1960: 0E 01 4A 14 F0 0E 01 15  F0 0E 01 4A 13 F0 0E 01  ..J........J....
1970: 15 F0 0E 01 4A 12 F0 0E  01 15 F0 0E 01 4A 16 F0  ....J........J..
1980: 0E 01 15 F0 0E 01 4A 17  F0 0E 01 15 F0 0E 01 4A  ......J........J
1990: 14 F0 0E 01 15 F0 0E 01  4A 13 F0 0E 01 15 F0 0E  ........J.......
19A0: 01 2A 0B 15 F0 0E 01 55  08 80 01 F0 0E 01 01 F0  .*.....U........
19B0: 0E 01 73 30 36 34 4A 12  F0 0E 01 18 F0 0E 01 4A  ..s064J........J
19C0: 16 F0 0E 01 18 F0 0E 01  4A 17 F0 0E 01 18 F0 0E  ........J.......
19D0: 01 4A 14 F0 0E 01 18 F0  0E 01 4A 13 F0 0E 01 18  .J........J.....
19E0: F0 0E 01 29 0B 18 F0 0E  01 15 4A 15 F0 0E 01 18  ...)......J.....
19F0: F0 0E 01 1C 07 80 29 08  12 F0 0E 01 0D 29 08 14  ......)......)..
1A00: F0 0E 01 07 29 08 13 F0  0E 01 07 29 08 17 F0 0E  ....)......)....
1A10: 01 07 29 08 16 F0 0E 01  06 29 0B 18 F0 0E 01 16  ..)......)......
1A20: 4A 18 F0 0E 01 12 F0 0E  01 45 08 80 01 F0 0E 01  J........E......
1A30: 01 F0 0E 01 73 31 30 35  01 80 2B 18 F0 0E 01 3B  ....s105..+....;
1A40: 80 23 29 08 12 F0 0E 01  0D 27 0B 15 F0 0E 01 32  .#)......'.....2
1A50: 29 0B 18 F0 0E 01 2D 29  08 12 F0 0E 01 0E 52 08  ).....-)......R.
1A60: 80 01 F0 0E 01 01 F0 0E  01 73 31 30 35 45 08 80  .........s105E..
1A70: 01 F0 0E 01 01 F0 0E 01  73 30 36 37 01 80 27 0B  ........s067..'.
1A80: F0 FF FF 7F 2A 27 0B 17  F0 0E 01 21 27 0B 16 F0  ....*'.....!'...
1A90: 0E 01 1C 27 0B 14 F0 0E  01 1E 27 0B 13 F0 0E 01  ...'......'.....
1AA0: 17 29 0A 10 F0 0E 01 02  02 00 00 01 80 00 B3 1A  .)..............
1AB0: 01 C1 1A 29 0A 10 F0 0E  01 03 27 08 18 F0 0E 01  ...)......'.....
1AC0: 2C 27 0B 12 F0 0E 01 36  1C 0C 80 02 00 00 01 80  ,'.....6........
1AD0: 00 E7 1A 1C 02 80 29 0A  10 F0 0E 01 03 27 08 18  ......)......'..
1AE0: F0 0E 01 2B 01 E7 1A 1C  07 80 45 00 80 F0 FF FF  ...+......E.....
1AF0: 7F F0 FF FF 7F 66 64 6F  31 01 80 55 08 80 01 F0  .....fdo1..U....
1B00: 0E 01 01 F0 0E 01 73 30  36 37 2A 0B 12 F0 0E 01  ......s067*.....
1B10: 2A 0B 17 F0 0E 01 2A 0B  16 F0 0E 01 2A 0B 13 F0  *.....*.....*...
1B20: 0E 01 2A 0B 14 F0 0E 01  2A 0B F0 FF FF 7F 2A 0B  ..*.....*.....*.
1B30: 15 F0 0E 01 02 00 00 01  80 00 45 1B 2A 08 18 F0  ..........E.*...
1B40: 0E 01 01 4B 1B 2A 08 18  F0 0E 01 1C 02 80 45 08  ...K.*........E.
1B50: 80 01 F0 0E 01 01 F0 0E  01 73 30 36 36 01 80 27  .........s066..'
1B60: 0B 15 F0 0E 01 33 1C 0C  80 45 00 80 F0 FF FF 7F  .....3...E......
1B70: F0 FF FF 7F 66 64 69 31  01 80 2A 0B 15 F0 0E 01  ....fdi1..*.....
1B80: 2A 08 18 F0 0E 01 1C 0C  80 7B 15 F0 0E 01 4A F0  *........{....J.
1B90: FF FF 7F 15 F0 0E 01 29  0B 15 F0 0E 01 36 45 08  .......).....6E.
1BA0: 80 01 F0 0E 01 01 F0 0E  01 73 30 36 38 01 80 4B  .........s068..K
1BB0: 15 F0 0E 01 33 80 1C 0C  80 27 08 15 F0 0E 01 0D  ....3....'......
1BC0: 1C 3C 80 2C 15 F0 0E 01  15 F0 0E 01 77 6F 6E 34  .<.,........won4
1BD0: 2A 08 15 F0 0E 01 29 0B  15 F0 0E 01 37 29 08 15  *.....).....7)..
1BE0: F0 0E 01 0E 45 08 80 01  F0 0E 01 01 F0 0E 01 73  ....E..........s
1BF0: 30 34 39 01 80 2C 15 F0  0E 01 15 F0 0E 01 77 6F  049..,........wo
1C00: 66 34 27 0B 15 F0 0E 01  25 1C 0F 80 4A F0 FF FF  f4'.....%...J...
1C10: 7F 15 F0 0E 01 1C 0F 80  4A F0 FF FF 7F 15 F0 0E  ........J.......
1C20: 01 1C 0F 80 4A F0 FF FF  7F 15 F0 0E 01 45 00 80  ....J........E..
1C30: F0 FF FF 7F F0 FF FF 7F  66 64 6F 31 01 80 1C 02  ........fdo1....
1C40: 80 7B 18 F0 0E 01 5C 00  28 80 5C 01 28 80 1C 3D  .{....\.(.\.(..=
1C50: 80 02 00 00 01 80 00 5C  1C 01 66 1C 4E 00 91 F0  .......\..f.N...
1C60: 0E 01 38 03 80 78 46 00  45 00 80 F8 FF FF 7F F8  ..8..xF.E.......
1C70: FF FF 7F 66 64 69 31 01  80 20 00 21 00           ...fdi1.. .!.   
```

#### Opcodes

```
  0: 0x116A [0x46] CAMERA_CONTROL: Disable user control
  1: 0x116C [0x42] SET_CLI_EVENT_CANCEL_DATA()
  2: 0x116D [0x45] LOAD_SCHEDULED_TASK: Load scheduler "fdo1" with entities [EventEntity, EventEntity], work=[200*, 0*]
  3: 0x117E [0x1C] WAIT(60* ticks)
  4: 0x1181 [0x38] SET_CLIENT_EVENT_MODE(mode=19*)
  5: 0x1184 [0x03] ExtData[1]->WorkLocal[0] = 0*
  6: 0x1189 [0x02] IF !(ExtData[1]->WorkLocal[0] == 0*) GOTO 0x1194
  7: 0x1191 [0x01] GOTO 0x11A2
  8: 0x1194 [0x77] SET_EVENT_TIME_WEATHER(hour=12*, weather=0*)
  9: 0x1199 [0x4E] SET_ENTITY_HIDE_FLAG: Hide Unnamed NPC (ID: 17756305/0x010EF091)
 10: 0x119F [0x38] SET_CLIENT_EVENT_MODE(mode=2067*)

SUBROUTINE_11A2:
 11: 0x11A2 [0x29] REQ_SET_WAIT(priority=0x08, entity_id=LocalPlayer, tag_num=0x05)
 12: 0x11A9 [0x29] REQ_SET_WAIT(priority=0x0B, entity_id=LocalPlayer, tag_num=0x26)
 13: 0x11B0 [0x5C] MUSIC_CONTROL: Set Idle (Day) music to song 120*
 14: 0x11B4 [0x5C] MUSIC_CONTROL: Set Idle (Night) music to song 120*
 15: 0x11B8 [0x5D] SET_MUSIC_VOLUME(volume=127*, fade_time=20*)
 16: 0x11BD [0x1C] WAIT(100* ticks)
 17: 0x11C0 [0x4E] SET_ENTITY_HIDE_FLAG: Show Kohlo-Lakolo (ID: 17756178/0x010EF012)
 18: 0x11C6 [0x4E] SET_ENTITY_HIDE_FLAG: Show Papo-Hopo (ID: 17756179/0x010EF013)
 19: 0x11CC [0x4E] SET_ENTITY_HIDE_FLAG: Show Gomada-Vulmada (ID: 17756180/0x010EF014)
 20: 0x11D2 [0x4E] SET_ENTITY_HIDE_FLAG: Show Yafa Yaa (ID: 17756182/0x010EF016)
 21: 0x11D8 [0x4E] SET_ENTITY_HIDE_FLAG: Show Pyo Nzon (ID: 17756183/0x010EF017)
 22: 0x11DE [0x4E] SET_ENTITY_HIDE_FLAG: Show Pichichi (ID: 17756181/0x010EF015)
 23: 0x11E4 [0x80] LOAD_WAIT(entity=Kohlo-Lakolo (ID: 17756178/0x010EF012))
 24: 0x11E9 [0x80] LOAD_WAIT(entity=Papo-Hopo (ID: 17756179/0x010EF013))
 25: 0x11EE [0x80] LOAD_WAIT(entity=Gomada-Vulmada (ID: 17756180/0x010EF014))
 26: 0x11F3 [0x80] LOAD_WAIT(entity=Yafa Yaa (ID: 17756182/0x010EF016))
 27: 0x11F8 [0x80] LOAD_WAIT(entity=Pyo Nzon (ID: 17756183/0x010EF017))
 28: 0x11FD [0x80] LOAD_WAIT(entity=Pichichi (ID: 17756181/0x010EF015))
 29: 0x1202 [0x2C] CREATE_SCHEDULER_TASK: Create scheduler "wof4" with entities [Pichichi (ID: 17756181/0x010EF015), Pichichi (ID: 17756181/0x010EF015)]
