# 17756177 - Ajido-Marujido

## Common Data

| Field            | Value                    |
|------------------|--------------------------|
| Zone             | Windurst Walls (ID: 239) |
| Block Size       | 1376 bytes               |
| Total Events     | 71                       |
| References Count | 63                       |

## List of Events

| Event ID                   | Entrypoint   |   Size |   Instructions |
|----------------------------|--------------|--------|----------------|
| [65535](#event-65535)      | 0x0000       |      1 |              1 |
| [65535.1](#event-655351)   | 0x0001       |     16 |              2 |
| [65535.2](#event-655352)   | 0x0011       |     14 |              2 |
| [65535.3](#event-655353)   | 0x001F       |     16 |              2 |
| [65535.4](#event-655354)   | 0x002F       |     14 |              2 |
| [65535.5](#event-655355)   | 0x003D       |     22 |              3 |
| [65535.6](#event-655356)   | 0x0053       |     14 |              2 |
| [65535.7](#event-655357)   | 0x0061       |     16 |              2 |
| [65535.8](#event-655358)   | 0x0071       |     20 |              3 |
| [65535.9](#event-655359)   | 0x0085       |     22 |              3 |
| [65535.10](#event-6553510) | 0x009B       |     14 |              2 |
| [65535.11](#event-6553511) | 0x00A9       |     16 |              2 |
| [65535.12](#event-6553512) | 0x00B9       |     20 |              3 |
| [65535.13](#event-6553513) | 0x00CD       |     28 |              4 |
| [65535.14](#event-6553514) | 0x00E9       |     14 |              2 |
| [65535.15](#event-6553515) | 0x00F7       |     22 |              3 |
| [65535.16](#event-6553516) | 0x010D       |     14 |              2 |
| [65535.17](#event-6553517) | 0x011B       |     16 |              2 |
| [65535.18](#event-6553518) | 0x012B       |     14 |              2 |
| [65535.19](#event-6553519) | 0x0139       |     28 |              4 |
| [65535.20](#event-6553520) | 0x0155       |     14 |              2 |
| [65535.21](#event-6553521) | 0x0163       |     16 |              2 |
| [65535.22](#event-6553522) | 0x0173       |     14 |              2 |
| [65535.23](#event-6553523) | 0x0181       |     16 |              2 |
| [65535.24](#event-6553524) | 0x0191       |     14 |              2 |
| [65535.25](#event-6553525) | 0x019F       |     16 |              2 |
| [65535.26](#event-6553526) | 0x01AF       |     14 |              2 |
| [65535.27](#event-6553527) | 0x01BD       |     16 |              2 |
| [65535.28](#event-6553528) | 0x01CD       |     14 |              2 |
| [65535.29](#event-6553529) | 0x01DB       |     16 |              2 |
| [65535.30](#event-6553530) | 0x01EB       |     22 |              4 |
| [65535.31](#event-6553531) | 0x0201       |      9 |              3 |
| [11](#event-11)            | 0x020A       |      1 |              1 |
| [65535.32](#event-6553532) | 0x020B       |      1 |              1 |
| [337](#event-337)          | 0x020C       |      1 |              1 |
| [65535.33](#event-6553533) | 0x020D       |     16 |              3 |
| [65535.34](#event-6553534) | 0x021D       |     15 |              5 |
| [65535.35](#event-6553535) | 0x022C       |     25 |              7 |
| [65535.36](#event-6553536) | 0x0245       |      5 |              3 |
| [65535.37](#event-6553537) | 0x024A       |      5 |              3 |
| [65535.38](#event-6553538) | 0x024F       |      5 |              3 |
| [65535.39](#event-6553539) | 0x0254       |      5 |              3 |
| [65535.40](#event-6553540) | 0x0259       |      5 |              3 |
| [65535.41](#event-6553541) | 0x025E       |      5 |              3 |
| [65535.42](#event-6553542) | 0x0263       |      5 |              3 |
| [65535.43](#event-6553543) | 0x0268       |      5 |              3 |
| [65535.44](#event-6553544) | 0x026D       |      9 |              5 |
| [65535.45](#event-6553545) | 0x0276       |     10 |              2 |
| [65535.46](#event-6553546) | 0x0280       |     10 |              2 |
| [65535.47](#event-6553547) | 0x028A       |     14 |              4 |
| [65535.48](#event-6553548) | 0x0298       |     14 |              4 |
| [65535.49](#event-6553549) | 0x02A6       |     14 |              4 |
| [384](#event-384)          | 0x02B4       |      1 |              1 |
| [65535.50](#event-6553550) | 0x02B5       |      5 |              3 |
| [65535.51](#event-6553551) | 0x02BA       |      5 |              3 |
| [65535.52](#event-6553552) | 0x02BF       |      5 |              3 |
| [65535.53](#event-6553553) | 0x02C4       |      5 |              3 |
| [65535.54](#event-6553554) | 0x02C9       |      5 |              3 |
| [65535.55](#event-6553555) | 0x02CE       |      5 |              3 |
| [65535.56](#event-6553556) | 0x02D3       |      5 |              3 |
| [65535.57](#event-6553557) | 0x02D8       |      5 |              3 |
| [65535.58](#event-6553558) | 0x02DD       |      5 |              3 |
| [65535.59](#event-6553559) | 0x02E2       |      5 |              3 |
| [65535.60](#event-6553560) | 0x02E7       |      5 |              3 |
| [65535.61](#event-6553561) | 0x02EC       |      5 |              3 |
| [65535.62](#event-6553562) | 0x02F1       |      5 |              3 |
| [65535.63](#event-6553563) | 0x02F6       |      5 |              3 |
| [443](#event-443)          | 0x02FB       |      1 |              1 |
| [65535.64](#event-6553564) | 0x02FC       |     10 |              2 |
| [65535.65](#event-6553565) | 0x0306       |     14 |              4 |
| [65535.66](#event-6553566) | 0x0314       |     33 |              9 |

## DAT References (imed_data)

|   Index | Hex Value   |   Dec Value |
|---------|-------------|-------------|
|       0 | 0x00A5      |         165 |
|       1 | 0x0151      |         337 |
|       2 | 0x0155      |         341 |
|       3 | 0x001E      |          30 |
|       4 | 0xFFFFB8C9  |  4294949065 |
|       5 | 0x43429     |      275497 |
|       6 | 0xFFFFD120  |  4294955296 |
|       7 | 0x0D7B      |        3451 |
|       8 | 0x000D      |          13 |
|       9 | 0xFFFFA9FA  |  4294945274 |
|      10 | 0x427A9     |      272297 |
|      11 | 0x0028      |          40 |
|      12 | 0xFFFF9C86  |  4294941830 |
|      13 | 0x4151E     |      267550 |
|      14 | 0xFFFFD121  |  4294955297 |
|      15 | 0xFFFF9BBB  |  4294941627 |
|      16 | 0x403DD     |      263133 |
|      17 | 0xFFFFCD38  |  4294954296 |
|      18 | 0x1F39      |        7993 |
|      19 | 0x1F3A      |        7994 |
|      20 | 0x1F3B      |        7995 |
|      21 | 0x1F3C      |        7996 |
|      22 | 0x1F3D      |        7997 |
|      23 | 0x1F3F      |        7999 |
|      24 | 0x1F40      |        8000 |
|      25 | 0x1F41      |        8001 |
|      26 | 0x1F42      |        8002 |
|      27 | 0x1F43      |        8003 |
|      28 | 0xFFFF8C8B  |  4294937739 |
|      29 | 0x448F5     |      280821 |
|      30 | 0x0297      |         663 |
|      31 | 0xFFFF76E4  |  4294932196 |
|      32 | 0x45632     |      284210 |
|      33 | 0xFFFFCD39  |  4294954297 |
|      34 | 0x0D0A      |        3338 |
|      35 | 0xFFFF790A  |  4294932746 |
|      36 | 0x45011     |      282641 |
|      37 | 0xFFFF9E58  |  4294942296 |
|      38 | 0x43238     |      275000 |
|      39 | 0x21F2      |        8690 |
|      40 | 0x21F3      |        8691 |
|      41 | 0x21F5      |        8693 |
|      42 | 0x21F6      |        8694 |
|      43 | 0x21F7      |        8695 |
|      44 | 0x21F9      |        8697 |
|      45 | 0x21FA      |        8698 |
|      46 | 0x21FB      |        8699 |
|      47 | 0x21FC      |        8700 |
|      48 | 0x21FE      |        8702 |
|      49 | 0x21FF      |        8703 |
|      50 | 0x2200      |        8704 |
|      51 | 0x2201      |        8705 |
|      52 | 0x2202      |        8706 |
|      53 | 0x2530D     |      152333 |
|      54 | 0x52180     |      336256 |
|      55 | 0xFFFF6351  |  4294927185 |
|      56 | 0x0843      |        2115 |
|      57 | 0x24E41     |      151105 |
|      58 | 0x51E83     |      335491 |
|      59 | 0xFFFF64BE  |  4294927550 |
|      60 | 0x24C6B     |      150635 |
|      61 | 0x515BA     |      333242 |
|      62 | 0xFFFF664D  |  4294927949 |

## String References

- **7993**: This is it! Now I can finally make some progress with my plan!
- **7994**: !!!
- **7995**: Whoa! A curious one, you are. Whattaru? Did you follow me all the way here?
- **7996**: You're on a mission from the Optistery? Oh, so you're the foolhardy adventurer who accepted that one.
- **7997**: Do you really think that the Book of the Gods could actually fall into the hands of that petty thief, the Cat Burglar?
- **7999**: Wait a minutaru... This mark...
- **8000**: The pages...they're blank...!
- **8001**: It can'taru be... The time for the Book of the Gods to lose its magic has come...
- **8002**: You! You must hurry back to the Optistery!
- **8003**: Tell Tosuka-Porika that the pages of the Book of the Gods have turned blank. Tell him the Book of the Gods is no more!
- **8690**: ...!
- **8691**: What? Notaru you again!
- **8693**: Why do adventurers always have to go sticking their noses into places they don'taru belong?
- **8694**: Can'taru you see I'm busy here? I don'taru have any time for idle chit-chat. So why don'taru you make like the wind and...
- **8695**: Hm? What's that you've gotaru in your grubby little hands there?
- **8697**: Oi! I can tell a fib-meister when I see one. Open up your hands, young [man/lady]!
- **8698**: Oh, shutaru your trap and show me!
- **8699**: $1, you say? Well, this thing sure talks a lot to be an ordinary gem...
- **8700**: I'll let you in on a little secret. If you wantaru to know what it's saying, close your eyes and open your heart.
- **8702**: So? What did the gem have to say?
- **8703**: "Seek and gather the seven colors"? Well, at least it doesn't sound like a trap. And I'm not sensing a whole lot of energy from within this ruby, anyway.
- **8704**: But I need to tell you this--when you let down your guard to hear the voices around you, you should probably have a strong black mage by your side...just to be safe.
- **8705**: Those voices around you aren'taru always going to be weak ones like just now. You had better be careful. You won'taru always have me there to protect you!
- **8706**: Did you get all that, [Mister/Miss] Adventurer?

## Events

### Event 65535

#### Metadata

| Field        | Value   |
|--------------|---------|
| Entrypoint   | 0x0000  |
| Data Size    | 1 bytes |
| Instructions | 1       |

```
      00 01 02 03 04 05 06 07  08 09 0A 0B 0C 0D 0E 0F
      -- -- -- -- -- -- -- --  -- -- -- -- -- -- -- --
0000: 00                                                .               
```

#### Opcodes

```
  0: 0x0000 [0x00] END_REQSTACK()
```

### Event 65535.1

#### Metadata

| Field        | Value    |
|--------------|----------|
| Entrypoint   | 0x0001   |
| Data Size    | 16 bytes |
| Instructions | 2        |

```
      00 01 02 03 04 05 06 07  08 09 0A 0B 0C 0D 0E 0F
      -- -- -- -- -- -- -- --  -- -- -- -- -- -- -- --
0000:    5B 00 80 F8 FF FF 7F  F8 FF FF 7F 74 6C 6B 30   [..........tlk0
0010: 00                                                .               
```

#### Opcodes

```
  0: 0x0001 [0x5B] LOAD_EXT_SCHEDULER: Load scheduler "tlk0" with entities [EventEntity, EventEntity], work=165*
  1: 0x0010 [0x00] END_REQSTACK()
```

### Event 65535.2

#### Metadata

| Field        | Value    |
|--------------|----------|
| Entrypoint   | 0x0011   |
| Data Size    | 14 bytes |
| Instructions | 2        |

```
      00 01 02 03 04 05 06 07  08 09 0A 0B 0C 0D 0E 0F
      -- -- -- -- -- -- -- --  -- -- -- -- -- -- -- --
0010:    53 F8 FF FF 7F F8 FF  FF 7F 74 6C 6B 30 00      S........tlk0. 
```

#### Opcodes

```
  0: 0x0011 [0x53] WAIT_SCHEDULER_TASK: Wait for scheduler "tlk0" with entities [EventEntity, EventEntity]
  1: 0x001E [0x00] END_REQSTACK()
```

### Event 65535.3

#### Metadata

| Field        | Value    |
|--------------|----------|
| Entrypoint   | 0x001F   |
| Data Size    | 16 bytes |
| Instructions | 2        |

```
      00 01 02 03 04 05 06 07  08 09 0A 0B 0C 0D 0E 0F
      -- -- -- -- -- -- -- --  -- -- -- -- -- -- -- --
0010:                                               5B                 [
0020: 00 80 F8 FF FF 7F F8 FF  FF 7F 74 6C 6B 31 00     ..........tlk1. 
```

#### Opcodes

```
  0: 0x001F [0x5B] LOAD_EXT_SCHEDULER: Load scheduler "tlk1" with entities [EventEntity, EventEntity], work=165*
  1: 0x002E [0x00] END_REQSTACK()
```

### Event 65535.4

#### Metadata

| Field        | Value    |
|--------------|----------|
| Entrypoint   | 0x002F   |
| Data Size    | 14 bytes |
| Instructions | 2        |

```
      00 01 02 03 04 05 06 07  08 09 0A 0B 0C 0D 0E 0F
      -- -- -- -- -- -- -- --  -- -- -- -- -- -- -- --
0020:                                               53                 S
0030: F8 FF FF 7F F8 FF FF 7F  74 6C 6B 31 00           ........tlk1.   
```

#### Opcodes

```
  0: 0x002F [0x53] WAIT_SCHEDULER_TASK: Wait for scheduler "tlk1" with entities [EventEntity, EventEntity]
  1: 0x003C [0x00] END_REQSTACK()
```

### Event 65535.5

#### Metadata

| Field        | Value    |
|--------------|----------|
| Entrypoint   | 0x003D   |
| Data Size    | 22 bytes |
| Instructions | 3        |

```
      00 01 02 03 04 05 06 07  08 09 0A 0B 0C 0D 0E 0F
      -- -- -- -- -- -- -- --  -- -- -- -- -- -- -- --
0030:                                         81 00 F8               ...
0040: FF FF 7F 5B 00 80 F8 FF  FF 7F F8 FF FF 7F 6B 62  ...[..........kb
0050: 6B 30 00                                          k0.             
```

#### Opcodes

```
  0: 0x003D [0x81] SET_ENTITY_BLINKING(blink_flag=0x00, entity=EventEntity)
  1: 0x0043 [0x5B] LOAD_EXT_SCHEDULER: Load scheduler "kbk0" with entities [EventEntity, EventEntity], work=165*
  2: 0x0052 [0x00] END_REQSTACK()
```

### Event 65535.6

#### Metadata

| Field        | Value    |
|--------------|----------|
| Entrypoint   | 0x0053   |
| Data Size    | 14 bytes |
| Instructions | 2        |

```
      00 01 02 03 04 05 06 07  08 09 0A 0B 0C 0D 0E 0F
      -- -- -- -- -- -- -- --  -- -- -- -- -- -- -- --
0050:          53 F8 FF FF 7F  F8 FF FF 7F 6B 62 6B 30     S........kbk0
0060: 00                                                .               
```

#### Opcodes

```
  0: 0x0053 [0x53] WAIT_SCHEDULER_TASK: Wait for scheduler "kbk0" with entities [EventEntity, EventEntity]
  1: 0x0060 [0x00] END_REQSTACK()
```

### Event 65535.7

#### Metadata

| Field        | Value    |
|--------------|----------|
| Entrypoint   | 0x0061   |
| Data Size    | 16 bytes |
| Instructions | 2        |

```
      00 01 02 03 04 05 06 07  08 09 0A 0B 0C 0D 0E 0F
      -- -- -- -- -- -- -- --  -- -- -- -- -- -- -- --
0060:    5B 00 80 F8 FF FF 7F  F8 FF FF 7F 6B 62 6B 31   [..........kbk1
0070: 00                                                .               
```

#### Opcodes

```
  0: 0x0061 [0x5B] LOAD_EXT_SCHEDULER: Load scheduler "kbk1" with entities [EventEntity, EventEntity], work=165*
  1: 0x0070 [0x00] END_REQSTACK()
```

### Event 65535.8

#### Metadata

| Field        | Value    |
|--------------|----------|
| Entrypoint   | 0x0071   |
| Data Size    | 20 bytes |
| Instructions | 3        |

```
      00 01 02 03 04 05 06 07  08 09 0A 0B 0C 0D 0E 0F
      -- -- -- -- -- -- -- --  -- -- -- -- -- -- -- --
0070:    53 F8 FF FF 7F F8 FF  FF 7F 6B 62 6B 31 81 01   S........kbk1..
0080: F8 FF FF 7F 00                                    .....           
```

#### Opcodes

```
  0: 0x0071 [0x53] WAIT_SCHEDULER_TASK: Wait for scheduler "kbk1" with entities [EventEntity, EventEntity]
  1: 0x007E [0x81] SET_ENTITY_BLINKING(blink_flag=0x01, entity=EventEntity)
  2: 0x0084 [0x00] END_REQSTACK()
```

### Event 65535.9

#### Metadata

| Field        | Value    |
|--------------|----------|
| Entrypoint   | 0x0085   |
| Data Size    | 22 bytes |
| Instructions | 3        |

```
      00 01 02 03 04 05 06 07  08 09 0A 0B 0C 0D 0E 0F
      -- -- -- -- -- -- -- --  -- -- -- -- -- -- -- --
0080:                81 00 F8  FF FF 7F 5B 00 80 F8 FF       ......[....
0090: FF 7F F8 FF FF 7F 73 70  70 30 00                 ......spp0.     
```

#### Opcodes

```
  0: 0x0085 [0x81] SET_ENTITY_BLINKING(blink_flag=0x00, entity=EventEntity)
  1: 0x008B [0x5B] LOAD_EXT_SCHEDULER: Load scheduler "spp0" with entities [EventEntity, EventEntity], work=165*
  2: 0x009A [0x00] END_REQSTACK()
```

### Event 65535.10

#### Metadata

| Field        | Value    |
|--------------|----------|
| Entrypoint   | 0x009B   |
| Data Size    | 14 bytes |
| Instructions | 2        |

```
      00 01 02 03 04 05 06 07  08 09 0A 0B 0C 0D 0E 0F
      -- -- -- -- -- -- -- --  -- -- -- -- -- -- -- --
0090:                                   53 F8 FF FF 7F             S....
00A0: F8 FF FF 7F 73 70 70 30  00                       ....spp0.       
```

#### Opcodes

```
  0: 0x009B [0x53] WAIT_SCHEDULER_TASK: Wait for scheduler "spp0" with entities [EventEntity, EventEntity]
  1: 0x00A8 [0x00] END_REQSTACK()
```

### Event 65535.11

#### Metadata

| Field        | Value    |
|--------------|----------|
| Entrypoint   | 0x00A9   |
| Data Size    | 16 bytes |
| Instructions | 2        |

```
      00 01 02 03 04 05 06 07  08 09 0A 0B 0C 0D 0E 0F
      -- -- -- -- -- -- -- --  -- -- -- -- -- -- -- --
00A0:                             5B 00 80 F8 FF FF 7F           [......
00B0: F8 FF FF 7F 73 70 70 31  00                       ....spp1.       
```

#### Opcodes

```
  0: 0x00A9 [0x5B] LOAD_EXT_SCHEDULER: Load scheduler "spp1" with entities [EventEntity, EventEntity], work=165*
  1: 0x00B8 [0x00] END_REQSTACK()
```

### Event 65535.12

#### Metadata

| Field        | Value    |
|--------------|----------|
| Entrypoint   | 0x00B9   |
| Data Size    | 20 bytes |
| Instructions | 3        |

```
      00 01 02 03 04 05 06 07  08 09 0A 0B 0C 0D 0E 0F
      -- -- -- -- -- -- -- --  -- -- -- -- -- -- -- --
00B0:                             53 F8 FF FF 7F F8 FF           S......
00C0: FF 7F 73 70 70 31 81 01  F8 FF FF 7F 00           ..spp1.......   
```

#### Opcodes

```
  0: 0x00B9 [0x53] WAIT_SCHEDULER_TASK: Wait for scheduler "spp1" with entities [EventEntity, EventEntity]
  1: 0x00C6 [0x81] SET_ENTITY_BLINKING(blink_flag=0x01, entity=EventEntity)
  2: 0x00CC [0x00] END_REQSTACK()
```

### Event 65535.13

#### Metadata

| Field        | Value    |
|--------------|----------|
| Entrypoint   | 0x00CD   |
| Data Size    | 28 bytes |
| Instructions | 4        |

```
      00 01 02 03 04 05 06 07  08 09 0A 0B 0C 0D 0E 0F
      -- -- -- -- -- -- -- --  -- -- -- -- -- -- -- --
00C0:                                         81 01 F8               ...
00D0: FF FF 7F 7C 01 F8 FF FF  7F 5B 00 80 F8 FF FF 7F  ...|.....[......
00E0: F8 FF FF 7F 62 6F 61 30  00                       ....boa0.       
```

#### Opcodes

```
  0: 0x00CD [0x81] SET_ENTITY_BLINKING(blink_flag=0x01, entity=EventEntity)
  1: 0x00D3 [0x7C] EventEntity->Render.Flags2 |= 0x01
  2: 0x00D9 [0x5B] LOAD_EXT_SCHEDULER: Load scheduler "boa0" with entities [EventEntity, EventEntity], work=165*
  3: 0x00E8 [0x00] END_REQSTACK()
```

### Event 65535.14

#### Metadata

| Field        | Value    |
|--------------|----------|
| Entrypoint   | 0x00E9   |
| Data Size    | 14 bytes |
| Instructions | 2        |

```
      00 01 02 03 04 05 06 07  08 09 0A 0B 0C 0D 0E 0F
      -- -- -- -- -- -- -- --  -- -- -- -- -- -- -- --
00E0:                             53 F8 FF FF 7F F8 FF           S......
00F0: FF 7F 62 6F 61 30 00                              ..boa0.         
```

#### Opcodes

```
  0: 0x00E9 [0x53] WAIT_SCHEDULER_TASK: Wait for scheduler "boa0" with entities [EventEntity, EventEntity]
  1: 0x00F6 [0x00] END_REQSTACK()
```

### Event 65535.15

#### Metadata

| Field        | Value    |
|--------------|----------|
| Entrypoint   | 0x00F7   |
| Data Size    | 22 bytes |
| Instructions | 3        |

```
      00 01 02 03 04 05 06 07  08 09 0A 0B 0C 0D 0E 0F
      -- -- -- -- -- -- -- --  -- -- -- -- -- -- -- --
00F0:                      81  00 F8 FF FF 7F 5B 00 80         ......[..
0100: F8 FF FF 7F F8 FF FF 7F  62 6F 62 30 00           ........bob0.   
```

#### Opcodes

```
  0: 0x00F7 [0x81] SET_ENTITY_BLINKING(blink_flag=0x00, entity=EventEntity)
  1: 0x00FD [0x5B] LOAD_EXT_SCHEDULER: Load scheduler "bob0" with entities [EventEntity, EventEntity], work=165*
  2: 0x010C [0x00] END_REQSTACK()
```

### Event 65535.16

#### Metadata

| Field        | Value    |
|--------------|----------|
| Entrypoint   | 0x010D   |
| Data Size    | 14 bytes |
| Instructions | 2        |

```
      00 01 02 03 04 05 06 07  08 09 0A 0B 0C 0D 0E 0F
      -- -- -- -- -- -- -- --  -- -- -- -- -- -- -- --
0100:                                         53 F8 FF               S..
0110: FF 7F F8 FF FF 7F 62 6F  62 30 00                 ......bob0.     
```

#### Opcodes

```
  0: 0x010D [0x53] WAIT_SCHEDULER_TASK: Wait for scheduler "bob0" with entities [EventEntity, EventEntity]
  1: 0x011A [0x00] END_REQSTACK()
```

### Event 65535.17

#### Metadata

| Field        | Value    |
|--------------|----------|
| Entrypoint   | 0x011B   |
| Data Size    | 16 bytes |
| Instructions | 2        |

```
      00 01 02 03 04 05 06 07  08 09 0A 0B 0C 0D 0E 0F
      -- -- -- -- -- -- -- --  -- -- -- -- -- -- -- --
0110:                                   5B 00 80 F8 FF             [....
0120: FF 7F F8 FF FF 7F 62 6F  62 31 00                 ......bob1.     
```

#### Opcodes

```
  0: 0x011B [0x5B] LOAD_EXT_SCHEDULER: Load scheduler "bob1" with entities [EventEntity, EventEntity], work=165*
  1: 0x012A [0x00] END_REQSTACK()
```

### Event 65535.18

#### Metadata

| Field        | Value    |
|--------------|----------|
| Entrypoint   | 0x012B   |
| Data Size    | 14 bytes |
| Instructions | 2        |

```
      00 01 02 03 04 05 06 07  08 09 0A 0B 0C 0D 0E 0F
      -- -- -- -- -- -- -- --  -- -- -- -- -- -- -- --
0120:                                   53 F8 FF FF 7F             S....
0130: F8 FF FF 7F 62 6F 62 31  00                       ....bob1.       
```

#### Opcodes

```
  0: 0x012B [0x53] WAIT_SCHEDULER_TASK: Wait for scheduler "bob1" with entities [EventEntity, EventEntity]
  1: 0x0138 [0x00] END_REQSTACK()
```

### Event 65535.19

#### Metadata

| Field        | Value    |
|--------------|----------|
| Entrypoint   | 0x0139   |
| Data Size    | 28 bytes |
| Instructions | 4        |

```
      00 01 02 03 04 05 06 07  08 09 0A 0B 0C 0D 0E 0F
      -- -- -- -- -- -- -- --  -- -- -- -- -- -- -- --
0130:                             81 00 F8 FF FF 7F 7C           ......|
0140: 00 F8 FF FF 7F 5B 00 80  F8 FF FF 7F F8 FF FF 7F  .....[..........
0150: 62 6F 63 30 00                                    boc0.           
```

#### Opcodes

```
  0: 0x0139 [0x81] SET_ENTITY_BLINKING(blink_flag=0x00, entity=EventEntity)
  1: 0x013F [0x7C] EventEntity->Render.Flags2 |= 0x00
  2: 0x0145 [0x5B] LOAD_EXT_SCHEDULER: Load scheduler "boc0" with entities [EventEntity, EventEntity], work=165*
  3: 0x0154 [0x00] END_REQSTACK()
```

### Event 65535.20

#### Metadata

| Field        | Value    |
|--------------|----------|
| Entrypoint   | 0x0155   |
| Data Size    | 14 bytes |
| Instructions | 2        |

```
      00 01 02 03 04 05 06 07  08 09 0A 0B 0C 0D 0E 0F
      -- -- -- -- -- -- -- --  -- -- -- -- -- -- -- --
0150:                53 F8 FF  FF 7F F8 FF FF 7F 62 6F       S........bo
0160: 63 30 00                                          c0.             
```

#### Opcodes

```
  0: 0x0155 [0x53] WAIT_SCHEDULER_TASK: Wait for scheduler "boc0" with entities [EventEntity, EventEntity]
  1: 0x0162 [0x00] END_REQSTACK()
```

### Event 65535.21

#### Metadata

| Field        | Value    |
|--------------|----------|
| Entrypoint   | 0x0163   |
| Data Size    | 16 bytes |
| Instructions | 2        |

```
      00 01 02 03 04 05 06 07  08 09 0A 0B 0C 0D 0E 0F
      -- -- -- -- -- -- -- --  -- -- -- -- -- -- -- --
0160:          5B 00 80 F8 FF  FF 7F F8 FF FF 7F 62 6F     [..........bo
0170: 65 30 00                                          e0.             
```

#### Opcodes

```
  0: 0x0163 [0x5B] LOAD_EXT_SCHEDULER: Load scheduler "boe0" with entities [EventEntity, EventEntity], work=165*
  1: 0x0172 [0x00] END_REQSTACK()
```

### Event 65535.22

#### Metadata

| Field        | Value    |
|--------------|----------|
| Entrypoint   | 0x0173   |
| Data Size    | 14 bytes |
| Instructions | 2        |

```
      00 01 02 03 04 05 06 07  08 09 0A 0B 0C 0D 0E 0F
      -- -- -- -- -- -- -- --  -- -- -- -- -- -- -- --
0170:          53 F8 FF FF 7F  F8 FF FF 7F 62 6F 65 30     S........boe0
0180: 00                                                .               
```

#### Opcodes

```
  0: 0x0173 [0x53] WAIT_SCHEDULER_TASK: Wait for scheduler "boe0" with entities [EventEntity, EventEntity]
  1: 0x0180 [0x00] END_REQSTACK()
```

### Event 65535.23

#### Metadata

| Field        | Value    |
|--------------|----------|
| Entrypoint   | 0x0181   |
| Data Size    | 16 bytes |
| Instructions | 2        |

```
      00 01 02 03 04 05 06 07  08 09 0A 0B 0C 0D 0E 0F
      -- -- -- -- -- -- -- --  -- -- -- -- -- -- -- --
0180:    5B 01 80 F8 FF FF 7F  F8 FF FF 7F 74 68 6B 31   [..........thk1
0190: 00                                                .               
```

#### Opcodes

```
  0: 0x0181 [0x5B] LOAD_EXT_SCHEDULER: Load scheduler "thk1" with entities [EventEntity, EventEntity], work=337*
  1: 0x0190 [0x00] END_REQSTACK()
```

### Event 65535.24

#### Metadata

| Field        | Value    |
|--------------|----------|
| Entrypoint   | 0x0191   |
| Data Size    | 14 bytes |
| Instructions | 2        |

```
      00 01 02 03 04 05 06 07  08 09 0A 0B 0C 0D 0E 0F
      -- -- -- -- -- -- -- --  -- -- -- -- -- -- -- --
0190:    53 F8 FF FF 7F F8 FF  FF 7F 74 68 6B 31 00      S........thk1. 
```

#### Opcodes

```
  0: 0x0191 [0x53] WAIT_SCHEDULER_TASK: Wait for scheduler "thk1" with entities [EventEntity, EventEntity]
  1: 0x019E [0x00] END_REQSTACK()
```

### Event 65535.25

#### Metadata

| Field        | Value    |
|--------------|----------|
| Entrypoint   | 0x019F   |
| Data Size    | 16 bytes |
| Instructions | 2        |

```
      00 01 02 03 04 05 06 07  08 09 0A 0B 0C 0D 0E 0F
      -- -- -- -- -- -- -- --  -- -- -- -- -- -- -- --
0190:                                               5B                 [
01A0: 01 80 F8 FF FF 7F F8 FF  FF 7F 74 68 6B 32 00     ..........thk2. 
```

#### Opcodes

```
  0: 0x019F [0x5B] LOAD_EXT_SCHEDULER: Load scheduler "thk2" with entities [EventEntity, EventEntity], work=337*
  1: 0x01AE [0x00] END_REQSTACK()
```

### Event 65535.26

#### Metadata

| Field        | Value    |
|--------------|----------|
| Entrypoint   | 0x01AF   |
| Data Size    | 14 bytes |
| Instructions | 2        |

```
      00 01 02 03 04 05 06 07  08 09 0A 0B 0C 0D 0E 0F
      -- -- -- -- -- -- -- --  -- -- -- -- -- -- -- --
01A0:                                               53                 S
01B0: F8 FF FF 7F F8 FF FF 7F  74 68 6B 32 00           ........thk2.   
```

#### Opcodes

```
  0: 0x01AF [0x53] WAIT_SCHEDULER_TASK: Wait for scheduler "thk2" with entities [EventEntity, EventEntity]
  1: 0x01BC [0x00] END_REQSTACK()
```

### Event 65535.27

#### Metadata

| Field        | Value    |
|--------------|----------|
| Entrypoint   | 0x01BD   |
| Data Size    | 16 bytes |
| Instructions | 2        |

```
      00 01 02 03 04 05 06 07  08 09 0A 0B 0C 0D 0E 0F
      -- -- -- -- -- -- -- --  -- -- -- -- -- -- -- --
01B0:                                         5B 01 80               [..
01C0: F8 FF FF 7F F8 FF FF 7F  70 61 73 30 00           ........pas0.   
```

#### Opcodes

```
  0: 0x01BD [0x5B] LOAD_EXT_SCHEDULER: Load scheduler "pas0" with entities [EventEntity, EventEntity], work=337*
  1: 0x01CC [0x00] END_REQSTACK()
```

### Event 65535.28

#### Metadata

| Field        | Value    |
|--------------|----------|
| Entrypoint   | 0x01CD   |
| Data Size    | 14 bytes |
| Instructions | 2        |

```
      00 01 02 03 04 05 06 07  08 09 0A 0B 0C 0D 0E 0F
      -- -- -- -- -- -- -- --  -- -- -- -- -- -- -- --
01C0:                                         53 F8 FF               S..
01D0: FF 7F F8 FF FF 7F 70 61  73 30 00                 ......pas0.     
```

#### Opcodes

```
  0: 0x01CD [0x53] WAIT_SCHEDULER_TASK: Wait for scheduler "pas0" with entities [EventEntity, EventEntity]
  1: 0x01DA [0x00] END_REQSTACK()
```

### Event 65535.29

#### Metadata

| Field        | Value    |
|--------------|----------|
| Entrypoint   | 0x01DB   |
| Data Size    | 16 bytes |
| Instructions | 2        |

```
      00 01 02 03 04 05 06 07  08 09 0A 0B 0C 0D 0E 0F
      -- -- -- -- -- -- -- --  -- -- -- -- -- -- -- --
01D0:                                   5B 02 80 F8 FF             [....
01E0: FF 7F F8 FF FF 7F 62 69  6B 30 00                 ......bik0.     
```

#### Opcodes

```
  0: 0x01DB [0x5B] LOAD_EXT_SCHEDULER: Load scheduler "bik0" with entities [EventEntity, EventEntity], work=341*
  1: 0x01EA [0x00] END_REQSTACK()
```

### Event 65535.30

#### Metadata

| Field        | Value    |
|--------------|----------|
| Entrypoint   | 0x01EB   |
| Data Size    | 22 bytes |
| Instructions | 4        |

```
      00 01 02 03 04 05 06 07  08 09 0A 0B 0C 0D 0E 0F
      -- -- -- -- -- -- -- --  -- -- -- -- -- -- -- --
01E0:                                   53 F8 FF FF 7F             S....
01F0: F8 FF FF 7F 62 69 6B 30  5E 69 64 6C 30 1C 03 80  ....bik0^idl0...
0200: 00                                                .               
```

#### Opcodes

```
  0: 0x01EB [0x53] WAIT_SCHEDULER_TASK: Wait for scheduler "bik0" with entities [EventEntity, EventEntity]
  1: 0x01F8 [0x5E] EventEntity goes idle (kills current action) (animation: "idl0")
  2: 0x01FD [0x1C] WAIT(30* ticks)
  3: 0x0200 [0x00] END_REQSTACK()
```

### Event 65535.31

#### Metadata

| Field        | Value   |
|--------------|---------|
| Entrypoint   | 0x0201  |
| Data Size    | 9 bytes |
| Instructions | 3       |

```
      00 01 02 03 04 05 06 07  08 09 0A 0B 0C 0D 0E 0F
      -- -- -- -- -- -- -- --  -- -- -- -- -- -- -- --
0200:    5E 69 64 6C 30 1C 03  80 00                     ^idl0....      
```

#### Opcodes

```
  0: 0x0201 [0x5E] EventEntity goes idle (kills current action) (animation: "idl0")
  1: 0x0206 [0x1C] WAIT(30* ticks)
  2: 0x0209 [0x00] END_REQSTACK()
```

### Event 11

#### Metadata

| Field        | Value   |
|--------------|---------|
| Entrypoint   | 0x020A  |
| Data Size    | 1 bytes |
| Instructions | 1       |

```
      00 01 02 03 04 05 06 07  08 09 0A 0B 0C 0D 0E 0F
      -- -- -- -- -- -- -- --  -- -- -- -- -- -- -- --
0200:                                00                           .     
```

#### Opcodes

```
  0: 0x020A [0x00] END_REQSTACK()
```

### Event 65535.32

#### Metadata

| Field        | Value   |
|--------------|---------|
| Entrypoint   | 0x020B  |
| Data Size    | 1 bytes |
| Instructions | 1       |

```
      00 01 02 03 04 05 06 07  08 09 0A 0B 0C 0D 0E 0F
      -- -- -- -- -- -- -- --  -- -- -- -- -- -- -- --
0200:                                   00                         .    
```

#### Opcodes

```
  0: 0x020B [0x00] END_REQSTACK()
```

### Event 337

#### Metadata

| Field        | Value   |
|--------------|---------|
| Entrypoint   | 0x020C  |
| Data Size    | 1 bytes |
| Instructions | 1       |

```
      00 01 02 03 04 05 06 07  08 09 0A 0B 0C 0D 0E 0F
      -- -- -- -- -- -- -- --  -- -- -- -- -- -- -- --
0200:                                      00                       .   
```

#### Opcodes

```
  0: 0x020C [0x00] END_REQSTACK()
```

### Event 65535.33

#### Metadata

| Field        | Value    |
|--------------|----------|
| Entrypoint   | 0x020D   |
| Data Size    | 16 bytes |
| Instructions | 3        |

```
      00 01 02 03 04 05 06 07  08 09 0A 0B 0C 0D 0E 0F
      -- -- -- -- -- -- -- --  -- -- -- -- -- -- -- --
0200:                                         37 04 80               7..
0210: 05 80 06 80 07 80 4E 00  11 F0 0E 01 00           ......N......   
```

#### Opcodes

```
  0: 0x020D [0x37] UPDATE_EVENT_POSITION_AND_DIR: x=-18.231*, z=275.497*, y=-12.000*, direction=303.3°*
  1: 0x0216 [0x4E] SET_ENTITY_HIDE_FLAG: Show Ajido-Marujido (ID: 17756177/0x010EF011)
  2: 0x021C [0x00] END_REQSTACK()
```

### Event 65535.34

#### Metadata

| Field        | Value    |
|--------------|----------|
| Entrypoint   | 0x021D   |
| Data Size    | 15 bytes |
| Instructions | 5        |

```
      00 01 02 03 04 05 06 07  08 09 0A 0B 0C 0D 0E 0F
      -- -- -- -- -- -- -- --  -- -- -- -- -- -- -- --
0210:                                         32 08 80               2..
0220: 1F 00 09 80 0A 80 06 80  1F 01 6F 00              ..........o.    
```

#### Opcodes

```
  0: 0x021D [0x32] ExtData[1]->MainSpeed = 13* * 0.1
  1: 0x0220 [0x1F] MOVE_ENTITY: EventEntity moves to X=-22.022*, Z=272.297*, Y=-12.000*
  2: 0x0228 [0x1F] MOVE_ENTITY: Update entity position (mode=1)
  3: 0x022A [0x6F] WAIT_FRAME_DELAY: Yield until WaitTime reaches zero
  4: 0x022B [0x00] END_REQSTACK()
```

### Event 65535.35

#### Metadata

| Field        | Value    |
|--------------|----------|
| Entrypoint   | 0x022C   |
| Data Size    | 25 bytes |
| Instructions | 7        |

```
      00 01 02 03 04 05 06 07  08 09 0A 0B 0C 0D 0E 0F
      -- -- -- -- -- -- -- --  -- -- -- -- -- -- -- --
0220:                                      32 0B 80 1F              2...
0230: 00 0C 80 0D 80 0E 80 1F  01 1F 00 0F 80 10 80 11  ................
0240: 80 1F 01 6F 00                                    ...o.           
```

#### Opcodes

```
  0: 0x022C [0x32] ExtData[1]->MainSpeed = 40* * 0.1
  1: 0x022F [0x1F] MOVE_ENTITY: EventEntity moves to X=-25.466*, Z=267.550*, Y=-11.999*
  2: 0x0237 [0x1F] MOVE_ENTITY: Update entity position (mode=1)
  3: 0x0239 [0x1F] MOVE_ENTITY: EventEntity moves to X=-25.669*, Z=263.133*, Y=-13.000*
  4: 0x0241 [0x1F] MOVE_ENTITY: Update entity position (mode=1)
  5: 0x0243 [0x6F] WAIT_FRAME_DELAY: Yield until WaitTime reaches zero
  6: 0x0244 [0x00] END_REQSTACK()
```

### Event 65535.36

#### Metadata

| Field        | Value   |
|--------------|---------|
| Entrypoint   | 0x0245  |
| Data Size    | 5 bytes |
| Instructions | 3       |

```
      00 01 02 03 04 05 06 07  08 09 0A 0B 0C 0D 0E 0F
      -- -- -- -- -- -- -- --  -- -- -- -- -- -- -- --
0240:                1D 12 80  23 00                         ...#.      
```

#### Opcodes

```
  0: 0x0245 [0x1D] PRINT_EVENT_MESSAGE(message_id=7993*)
    → "This is it! Now I can finally make some progress with my plan!"
  1: 0x0248 [0x23] WAIT_FOR_DIALOG_INTERACTION
  2: 0x0249 [0x00] END_REQSTACK()
```

### Event 65535.37

#### Metadata

| Field        | Value   |
|--------------|---------|
| Entrypoint   | 0x024A  |
| Data Size    | 5 bytes |
| Instructions | 3       |

```
      00 01 02 03 04 05 06 07  08 09 0A 0B 0C 0D 0E 0F
      -- -- -- -- -- -- -- --  -- -- -- -- -- -- -- --
0240:                                1D 13 80 23 00               ...#. 
```

#### Opcodes

```
  0: 0x024A [0x1D] PRINT_EVENT_MESSAGE(message_id=7994*)
    → "!!!"
  1: 0x024D [0x23] WAIT_FOR_DIALOG_INTERACTION
  2: 0x024E [0x00] END_REQSTACK()
```

### Event 65535.38

#### Metadata

| Field        | Value   |
|--------------|---------|
| Entrypoint   | 0x024F  |
| Data Size    | 5 bytes |
| Instructions | 3       |

```
      00 01 02 03 04 05 06 07  08 09 0A 0B 0C 0D 0E 0F
      -- -- -- -- -- -- -- --  -- -- -- -- -- -- -- --
0240:                                               1D                 .
0250: 14 80 23 00                                       ..#.            
```

#### Opcodes

```
  0: 0x024F [0x1D] PRINT_EVENT_MESSAGE(message_id=7995*)
    → "Whoa! A curious one, you are. Whattaru? Did you follow me all the way here?"
  1: 0x0252 [0x23] WAIT_FOR_DIALOG_INTERACTION
  2: 0x0253 [0x00] END_REQSTACK()
```

### Event 65535.39

#### Metadata

| Field        | Value   |
|--------------|---------|
| Entrypoint   | 0x0254  |
| Data Size    | 5 bytes |
| Instructions | 3       |

```
      00 01 02 03 04 05 06 07  08 09 0A 0B 0C 0D 0E 0F
      -- -- -- -- -- -- -- --  -- -- -- -- -- -- -- --
0250:             1D 15 80 23  00                           ...#.       
```

#### Opcodes

```
  0: 0x0254 [0x1D] PRINT_EVENT_MESSAGE(message_id=7996*)
    → "You're on a mission from the Optistery? Oh, so you're the foolhardy adventurer who accepted that one."
  1: 0x0257 [0x23] WAIT_FOR_DIALOG_INTERACTION
  2: 0x0258 [0x00] END_REQSTACK()
```

### Event 65535.40

#### Metadata

| Field        | Value   |
|--------------|---------|
| Entrypoint   | 0x0259  |
| Data Size    | 5 bytes |
| Instructions | 3       |

```
      00 01 02 03 04 05 06 07  08 09 0A 0B 0C 0D 0E 0F
      -- -- -- -- -- -- -- --  -- -- -- -- -- -- -- --
0250:                             1D 16 80 23 00                 ...#.  
```

#### Opcodes

```
  0: 0x0259 [0x1D] PRINT_EVENT_MESSAGE(message_id=7997*)
    → "Do you really think that the Book of the Gods could actually fall into the hands of that petty thief, the Cat Burglar?"
  1: 0x025C [0x23] WAIT_FOR_DIALOG_INTERACTION
  2: 0x025D [0x00] END_REQSTACK()
```

### Event 65535.41

#### Metadata

| Field        | Value   |
|--------------|---------|
| Entrypoint   | 0x025E  |
| Data Size    | 5 bytes |
| Instructions | 3       |

```
      00 01 02 03 04 05 06 07  08 09 0A 0B 0C 0D 0E 0F
      -- -- -- -- -- -- -- --  -- -- -- -- -- -- -- --
0250:                                            1D 17                ..
0260: 80 23 00                                          .#.             
```

#### Opcodes

```
  0: 0x025E [0x1D] PRINT_EVENT_MESSAGE(message_id=7999*)
    → "Wait a minutaru... This mark..."
  1: 0x0261 [0x23] WAIT_FOR_DIALOG_INTERACTION
  2: 0x0262 [0x00] END_REQSTACK()
```

### Event 65535.42

#### Metadata

| Field        | Value   |
|--------------|---------|
| Entrypoint   | 0x0263  |
| Data Size    | 5 bytes |
| Instructions | 3       |

```
      00 01 02 03 04 05 06 07  08 09 0A 0B 0C 0D 0E 0F
      -- -- -- -- -- -- -- --  -- -- -- -- -- -- -- --
0260:          1D 18 80 23 00                              ...#.        
```

#### Opcodes

```
  0: 0x0263 [0x1D] PRINT_EVENT_MESSAGE(message_id=8000*)
    → "The pages...they're blank...!"
  1: 0x0266 [0x23] WAIT_FOR_DIALOG_INTERACTION
  2: 0x0267 [0x00] END_REQSTACK()
```

### Event 65535.43

#### Metadata

| Field        | Value   |
|--------------|---------|
| Entrypoint   | 0x0268  |
| Data Size    | 5 bytes |
| Instructions | 3       |

```
      00 01 02 03 04 05 06 07  08 09 0A 0B 0C 0D 0E 0F
      -- -- -- -- -- -- -- --  -- -- -- -- -- -- -- --
0260:                          1D 19 80 23 00                   ...#.   
```

#### Opcodes

```
  0: 0x0268 [0x1D] PRINT_EVENT_MESSAGE(message_id=8001*)
    → "It can'taru be... The time for the Book of the Gods to lose its magic has come..."
  1: 0x026B [0x23] WAIT_FOR_DIALOG_INTERACTION
  2: 0x026C [0x00] END_REQSTACK()
```

### Event 65535.44

#### Metadata

| Field        | Value   |
|--------------|---------|
| Entrypoint   | 0x026D  |
| Data Size    | 9 bytes |
| Instructions | 5       |

```
      00 01 02 03 04 05 06 07  08 09 0A 0B 0C 0D 0E 0F
      -- -- -- -- -- -- -- --  -- -- -- -- -- -- -- --
0260:                                         1D 1A 80               ...
0270: 23 1D 1B 80 23 00                                 #...#.          
```

#### Opcodes

```
  0: 0x026D [0x1D] PRINT_EVENT_MESSAGE(message_id=8002*)
    → "You! You must hurry back to the Optistery!"
  1: 0x0270 [0x23] WAIT_FOR_DIALOG_INTERACTION
  2: 0x0271 [0x1D] PRINT_EVENT_MESSAGE(message_id=8003*)
    → "Tell Tosuka-Porika that the pages of the Book of the Gods have turned blank. Tell him the Book of the Gods is no more!"
  3: 0x0274 [0x23] WAIT_FOR_DIALOG_INTERACTION
  4: 0x0275 [0x00] END_REQSTACK()
```

### Event 65535.45

#### Metadata

| Field        | Value    |
|--------------|----------|
| Entrypoint   | 0x0276   |
| Data Size    | 10 bytes |
| Instructions | 2        |

```
      00 01 02 03 04 05 06 07  08 09 0A 0B 0C 0D 0E 0F
      -- -- -- -- -- -- -- --  -- -- -- -- -- -- -- --
0270:                   37 1C  80 1D 80 11 80 1E 80 00        7.........
```

#### Opcodes

```
  0: 0x0276 [0x37] UPDATE_EVENT_POSITION_AND_DIR: x=-29.557*, z=280.821*, y=-13.000*, direction=58.3°*
  1: 0x027F [0x00] END_REQSTACK()
```

### Event 65535.46

#### Metadata

| Field        | Value    |
|--------------|----------|
| Entrypoint   | 0x0280   |
| Data Size    | 10 bytes |
| Instructions | 2        |

```
      00 01 02 03 04 05 06 07  08 09 0A 0B 0C 0D 0E 0F
      -- -- -- -- -- -- -- --  -- -- -- -- -- -- -- --
0280: 37 1F 80 20 80 21 80 22  80 00                    7.. .!."..      
```

#### Opcodes

```
  0: 0x0280 [0x37] UPDATE_EVENT_POSITION_AND_DIR: x=-35.100*, z=284.210*, y=-12.999*, direction=293.4°*
  1: 0x0289 [0x00] END_REQSTACK()
```

### Event 65535.47

#### Metadata

| Field        | Value    |
|--------------|----------|
| Entrypoint   | 0x028A   |
| Data Size    | 14 bytes |
| Instructions | 4        |

```
      00 01 02 03 04 05 06 07  08 09 0A 0B 0C 0D 0E 0F
      -- -- -- -- -- -- -- --  -- -- -- -- -- -- -- --
0280:                                32 08 80 1F 00 23            2....#
0290: 80 24 80 11 80 1F 01 00                           .$......        
```

#### Opcodes

```
  0: 0x028A [0x32] ExtData[1]->MainSpeed = 13* * 0.1
  1: 0x028D [0x1F] MOVE_ENTITY: EventEntity moves to X=-34.550*, Z=282.641*, Y=-13.000*
  2: 0x0295 [0x1F] MOVE_ENTITY: Update entity position (mode=1)
  3: 0x0297 [0x00] END_REQSTACK()
```

### Event 65535.48

#### Metadata

| Field        | Value    |
|--------------|----------|
| Entrypoint   | 0x0298   |
| Data Size    | 14 bytes |
| Instructions | 4        |

```
      00 01 02 03 04 05 06 07  08 09 0A 0B 0C 0D 0E 0F
      -- -- -- -- -- -- -- --  -- -- -- -- -- -- -- --
0290:                          32 08 80 1F 00 25 80 1D          2....%..
02A0: 80 11 80 1F 01 00                                 ......          
```

#### Opcodes

```
  0: 0x0298 [0x32] ExtData[1]->MainSpeed = 13* * 0.1
  1: 0x029B [0x1F] MOVE_ENTITY: EventEntity moves to X=-25.000*, Z=280.821*, Y=-13.000*
  2: 0x02A3 [0x1F] MOVE_ENTITY: Update entity position (mode=1)
  3: 0x02A5 [0x00] END_REQSTACK()
```

### Event 65535.49

#### Metadata

| Field        | Value    |
|--------------|----------|
| Entrypoint   | 0x02A6   |
| Data Size    | 14 bytes |
| Instructions | 4        |

```
      00 01 02 03 04 05 06 07  08 09 0A 0B 0C 0D 0E 0F
      -- -- -- -- -- -- -- --  -- -- -- -- -- -- -- --
02A0:                   32 08  80 1F 00 25 80 26 80 11        2....%.&..
02B0: 80 1F 01 00                                       ....            
```

#### Opcodes

```
  0: 0x02A6 [0x32] ExtData[1]->MainSpeed = 13* * 0.1
  1: 0x02A9 [0x1F] MOVE_ENTITY: EventEntity moves to X=-25.000*, Z=275.000*, Y=-13.000*
  2: 0x02B1 [0x1F] MOVE_ENTITY: Update entity position (mode=1)
  3: 0x02B3 [0x00] END_REQSTACK()
```

### Event 384

#### Metadata

| Field        | Value   |
|--------------|---------|
| Entrypoint   | 0x02B4  |
| Data Size    | 1 bytes |
| Instructions | 1       |

```
      00 01 02 03 04 05 06 07  08 09 0A 0B 0C 0D 0E 0F
      -- -- -- -- -- -- -- --  -- -- -- -- -- -- -- --
02B0:             00                                        .           
```

#### Opcodes

```
  0: 0x02B4 [0x00] END_REQSTACK()
```

### Event 65535.50

#### Metadata

| Field        | Value   |
|--------------|---------|
| Entrypoint   | 0x02B5  |
| Data Size    | 5 bytes |
| Instructions | 3       |

```
      00 01 02 03 04 05 06 07  08 09 0A 0B 0C 0D 0E 0F
      -- -- -- -- -- -- -- --  -- -- -- -- -- -- -- --
02B0:                1D 27 80  23 00                         .'.#.      
```

#### Opcodes

```
  0: 0x02B5 [0x1D] PRINT_EVENT_MESSAGE(message_id=8690*)
    → "...!"
  1: 0x02B8 [0x23] WAIT_FOR_DIALOG_INTERACTION
  2: 0x02B9 [0x00] END_REQSTACK()
```

### Event 65535.51

#### Metadata

| Field        | Value   |
|--------------|---------|
| Entrypoint   | 0x02BA  |
| Data Size    | 5 bytes |
| Instructions | 3       |

```
      00 01 02 03 04 05 06 07  08 09 0A 0B 0C 0D 0E 0F
      -- -- -- -- -- -- -- --  -- -- -- -- -- -- -- --
02B0:                                1D 28 80 23 00               .(.#. 
```

#### Opcodes

```
  0: 0x02BA [0x1D] PRINT_EVENT_MESSAGE(message_id=8691*)
    → "What? Notaru you again!"
  1: 0x02BD [0x23] WAIT_FOR_DIALOG_INTERACTION
  2: 0x02BE [0x00] END_REQSTACK()
```

### Event 65535.52

#### Metadata

| Field        | Value   |
|--------------|---------|
| Entrypoint   | 0x02BF  |
| Data Size    | 5 bytes |
| Instructions | 3       |

```
      00 01 02 03 04 05 06 07  08 09 0A 0B 0C 0D 0E 0F
      -- -- -- -- -- -- -- --  -- -- -- -- -- -- -- --
02B0:                                               1D                 .
02C0: 29 80 23 00                                       ).#.            
```

#### Opcodes

```
  0: 0x02BF [0x1D] PRINT_EVENT_MESSAGE(message_id=8693*)
    → "Why do adventurers always have to go sticking their noses into places they don'taru belong?"
  1: 0x02C2 [0x23] WAIT_FOR_DIALOG_INTERACTION
  2: 0x02C3 [0x00] END_REQSTACK()
```

### Event 65535.53

#### Metadata

| Field        | Value   |
|--------------|---------|
| Entrypoint   | 0x02C4  |
| Data Size    | 5 bytes |
| Instructions | 3       |

```
      00 01 02 03 04 05 06 07  08 09 0A 0B 0C 0D 0E 0F
      -- -- -- -- -- -- -- --  -- -- -- -- -- -- -- --
02C0:             1D 2A 80 23  00                           .*.#.       
```

#### Opcodes

```
  0: 0x02C4 [0x1D] PRINT_EVENT_MESSAGE(message_id=8694*)
    → "Can'taru you see I'm busy here? I don'taru have any time for idle chit-chat. So why don'taru you make like the wind and..."
  1: 0x02C7 [0x23] WAIT_FOR_DIALOG_INTERACTION
  2: 0x02C8 [0x00] END_REQSTACK()
```

### Event 65535.54

#### Metadata

| Field        | Value   |
|--------------|---------|
| Entrypoint   | 0x02C9  |
| Data Size    | 5 bytes |
| Instructions | 3       |

```
      00 01 02 03 04 05 06 07  08 09 0A 0B 0C 0D 0E 0F
      -- -- -- -- -- -- -- --  -- -- -- -- -- -- -- --
02C0:                             1D 2B 80 23 00                 .+.#.  
```

#### Opcodes

```
  0: 0x02C9 [0x1D] PRINT_EVENT_MESSAGE(message_id=8695*)
    → "Hm? What's that you've gotaru in your grubby little hands there?"
  1: 0x02CC [0x23] WAIT_FOR_DIALOG_INTERACTION
  2: 0x02CD [0x00] END_REQSTACK()
```

### Event 65535.55

#### Metadata

| Field        | Value   |
|--------------|---------|
| Entrypoint   | 0x02CE  |
| Data Size    | 5 bytes |
| Instructions | 3       |

```
      00 01 02 03 04 05 06 07  08 09 0A 0B 0C 0D 0E 0F
      -- -- -- -- -- -- -- --  -- -- -- -- -- -- -- --
02C0:                                            1D 2C                .,
02D0: 80 23 00                                          .#.             
```

#### Opcodes

```
  0: 0x02CE [0x1D] PRINT_EVENT_MESSAGE(message_id=8697*)
    → "Oi! I can tell a fib-meister when I see one. Open up your hands, young [man/lady]!"
  1: 0x02D1 [0x23] WAIT_FOR_DIALOG_INTERACTION
  2: 0x02D2 [0x00] END_REQSTACK()
```

### Event 65535.56

#### Metadata

| Field        | Value   |
|--------------|---------|
| Entrypoint   | 0x02D3  |
| Data Size    | 5 bytes |
| Instructions | 3       |

```
      00 01 02 03 04 05 06 07  08 09 0A 0B 0C 0D 0E 0F
      -- -- -- -- -- -- -- --  -- -- -- -- -- -- -- --
02D0:          1D 2D 80 23 00                              .-.#.        
```

#### Opcodes

```
  0: 0x02D3 [0x1D] PRINT_EVENT_MESSAGE(message_id=8698*)
    → "Oh, shutaru your trap and show me!"
  1: 0x02D6 [0x23] WAIT_FOR_DIALOG_INTERACTION
  2: 0x02D7 [0x00] END_REQSTACK()
```

### Event 65535.57

#### Metadata

| Field        | Value   |
|--------------|---------|
| Entrypoint   | 0x02D8  |
| Data Size    | 5 bytes |
| Instructions | 3       |

```
      00 01 02 03 04 05 06 07  08 09 0A 0B 0C 0D 0E 0F
      -- -- -- -- -- -- -- --  -- -- -- -- -- -- -- --
02D0:                          1D 2E 80 23 00                   ...#.   
```

#### Opcodes

```
  0: 0x02D8 [0x1D] PRINT_EVENT_MESSAGE(message_id=8699*)
    → "$1, you say? Well, this thing sure talks a lot to be an ordinary gem..."
  1: 0x02DB [0x23] WAIT_FOR_DIALOG_INTERACTION
  2: 0x02DC [0x00] END_REQSTACK()
```

### Event 65535.58

#### Metadata

| Field        | Value   |
|--------------|---------|
| Entrypoint   | 0x02DD  |
| Data Size    | 5 bytes |
| Instructions | 3       |

```
      00 01 02 03 04 05 06 07  08 09 0A 0B 0C 0D 0E 0F
      -- -- -- -- -- -- -- --  -- -- -- -- -- -- -- --
02D0:                                         1D 2F 80               ./.
02E0: 23 00                                             #.              
```

#### Opcodes

```
  0: 0x02DD [0x1D] PRINT_EVENT_MESSAGE(message_id=8700*)
    → "I'll let you in on a little secret. If you wantaru to know what it's saying, close your eyes and open your heart."
  1: 0x02E0 [0x23] WAIT_FOR_DIALOG_INTERACTION
  2: 0x02E1 [0x00] END_REQSTACK()
```

### Event 65535.59

#### Metadata

| Field        | Value   |
|--------------|---------|
| Entrypoint   | 0x02E2  |
| Data Size    | 5 bytes |
| Instructions | 3       |

```
      00 01 02 03 04 05 06 07  08 09 0A 0B 0C 0D 0E 0F
      -- -- -- -- -- -- -- --  -- -- -- -- -- -- -- --
02E0:       1D 30 80 23 00                                .0.#.         
```

#### Opcodes

```
  0: 0x02E2 [0x1D] PRINT_EVENT_MESSAGE(message_id=8702*)
    → "So? What did the gem have to say?"
  1: 0x02E5 [0x23] WAIT_FOR_DIALOG_INTERACTION
  2: 0x02E6 [0x00] END_REQSTACK()
```

### Event 65535.60

#### Metadata

| Field        | Value   |
|--------------|---------|
| Entrypoint   | 0x02E7  |
| Data Size    | 5 bytes |
| Instructions | 3       |

```
      00 01 02 03 04 05 06 07  08 09 0A 0B 0C 0D 0E 0F
      -- -- -- -- -- -- -- --  -- -- -- -- -- -- -- --
02E0:                      1D  31 80 23 00                     .1.#.    
```

#### Opcodes

```
  0: 0x02E7 [0x1D] PRINT_EVENT_MESSAGE(message_id=8703*)
    → ""Seek and gather the seven colors"? Well, at least it doesn't sound like a trap. And I'm not sensing a whole lot of energy from within this ruby, anyway."
  1: 0x02EA [0x23] WAIT_FOR_DIALOG_INTERACTION
  2: 0x02EB [0x00] END_REQSTACK()
```

### Event 65535.61

#### Metadata

| Field        | Value   |
|--------------|---------|
| Entrypoint   | 0x02EC  |
| Data Size    | 5 bytes |
| Instructions | 3       |

```
      00 01 02 03 04 05 06 07  08 09 0A 0B 0C 0D 0E 0F
      -- -- -- -- -- -- -- --  -- -- -- -- -- -- -- --
02E0:                                      1D 32 80 23              .2.#
02F0: 00                                                .               
```

#### Opcodes

```
  0: 0x02EC [0x1D] PRINT_EVENT_MESSAGE(message_id=8704*)
    → "But I need to tell you this--when you let down your guard to hear the voices around you, you should probably have a strong black mage by your side...just to be safe."
  1: 0x02EF [0x23] WAIT_FOR_DIALOG_INTERACTION
  2: 0x02F0 [0x00] END_REQSTACK()
```

### Event 65535.62

#### Metadata

| Field        | Value   |
|--------------|---------|
| Entrypoint   | 0x02F1  |
| Data Size    | 5 bytes |
| Instructions | 3       |

```
      00 01 02 03 04 05 06 07  08 09 0A 0B 0C 0D 0E 0F
      -- -- -- -- -- -- -- --  -- -- -- -- -- -- -- --
02F0:    1D 33 80 23 00                                  .3.#.          
```

#### Opcodes

```
  0: 0x02F1 [0x1D] PRINT_EVENT_MESSAGE(message_id=8705*)
    → "Those voices around you aren'taru always going to be weak ones like just now. You had better be careful. You won'taru always have me there to protect you!"
  1: 0x02F4 [0x23] WAIT_FOR_DIALOG_INTERACTION
  2: 0x02F5 [0x00] END_REQSTACK()
```

### Event 65535.63

#### Metadata

| Field        | Value   |
|--------------|---------|
| Entrypoint   | 0x02F6  |
| Data Size    | 5 bytes |
| Instructions | 3       |

```
      00 01 02 03 04 05 06 07  08 09 0A 0B 0C 0D 0E 0F
      -- -- -- -- -- -- -- --  -- -- -- -- -- -- -- --
02F0:                   1D 34  80 23 00                       .4.#.     
```

#### Opcodes

```
  0: 0x02F6 [0x1D] PRINT_EVENT_MESSAGE(message_id=8706*)
    → "Did you get all that, [Mister/Miss] Adventurer?"
  1: 0x02F9 [0x23] WAIT_FOR_DIALOG_INTERACTION
  2: 0x02FA [0x00] END_REQSTACK()
```

### Event 443

#### Metadata

| Field        | Value   |
|--------------|---------|
| Entrypoint   | 0x02FB  |
| Data Size    | 1 bytes |
| Instructions | 1       |

```
      00 01 02 03 04 05 06 07  08 09 0A 0B 0C 0D 0E 0F
      -- -- -- -- -- -- -- --  -- -- -- -- -- -- -- --
02F0:                                   00                         .    
```

#### Opcodes

```
  0: 0x02FB [0x00] END_REQSTACK()
```

### Event 65535.64

#### Metadata

| Field        | Value    |
|--------------|----------|
| Entrypoint   | 0x02FC   |
| Data Size    | 10 bytes |
| Instructions | 2        |

```
      00 01 02 03 04 05 06 07  08 09 0A 0B 0C 0D 0E 0F
      -- -- -- -- -- -- -- --  -- -- -- -- -- -- -- --
02F0:                                      37 35 80 36              75.6
0300: 80 37 80 38 80 00                                 .7.8..          
```

#### Opcodes

```
  0: 0x02FC [0x37] UPDATE_EVENT_POSITION_AND_DIR: x=152.333*, z=336.256*, y=-40.111*, direction=185.9°*
  1: 0x0305 [0x00] END_REQSTACK()
```

### Event 65535.65

#### Metadata

| Field        | Value    |
|--------------|----------|
| Entrypoint   | 0x0306   |
| Data Size    | 14 bytes |
| Instructions | 4        |

```
      00 01 02 03 04 05 06 07  08 09 0A 0B 0C 0D 0E 0F
      -- -- -- -- -- -- -- --  -- -- -- -- -- -- -- --
0300:                   32 08  80 1F 00 39 80 3A 80 3B        2....9.:.;
0310: 80 1F 01 00                                       ....            
```

#### Opcodes

```
  0: 0x0306 [0x32] ExtData[1]->MainSpeed = 13* * 0.1
  1: 0x0309 [0x1F] MOVE_ENTITY: EventEntity moves to X=151.105*, Z=335.491*, Y=-39.746*
  2: 0x0311 [0x1F] MOVE_ENTITY: Update entity position (mode=1)
  3: 0x0313 [0x00] END_REQSTACK()
```

### Event 65535.66

#### Metadata

| Field        | Value    |
|--------------|----------|
| Entrypoint   | 0x0314   |
| Data Size    | 33 bytes |
| Instructions | 9        |

```
      00 01 02 03 04 05 06 07  08 09 0A 0B 0C 0D 0E 0F
      -- -- -- -- -- -- -- --  -- -- -- -- -- -- -- --
0310:             32 08 80 1F  00 3C 80 3D 80 3E 80 1F      2....<.=.>..
0320: 01 6F 1C 03 80 4A 11 F0  0E 01 86 F0 0E 01 6F 76  .o...J........ov
0330: 11 F0 0E 01 00                                    .....           
```

#### Opcodes

```
  0: 0x0314 [0x32] ExtData[1]->MainSpeed = 13* * 0.1
  1: 0x0317 [0x1F] MOVE_ENTITY: EventEntity moves to X=150.635*, Z=333.242*, Y=-39.347*
  2: 0x031F [0x1F] MOVE_ENTITY: Update entity position (mode=1)
  3: 0x0321 [0x6F] WAIT_FRAME_DELAY: Yield until WaitTime reaches zero
  4: 0x0322 [0x1C] WAIT(30* ticks)
  5: 0x0325 [0x4A] Ajido-Marujido (ID: 17756177/0x010EF011) looks at Apururu (ID: 17756294/0x010EF086)
  6: 0x032E [0x6F] WAIT_FRAME_DELAY: Yield until WaitTime reaches zero
  7: 0x032F [0x76] CHECK_ENTITY_RENDER_FLAGS: Wait until Ajido-Marujido (ID: 17756177/0x010EF011) Render.Flags0 and Render.Flags3 conditions are met
  8: 0x0334 [0x00] END_REQSTACK()
```
