# 17756502

## Common Data

| Field            | Value                    |
|------------------|--------------------------|
| Zone             | Windurst Walls (ID: 239) |
| Block Size       | 28812 bytes              |
| Total Events     | 13                       |
| References Count | 429                      |

## List of Events

| Event ID              | Entrypoint   |   Size |   Instructions |
|-----------------------|--------------|--------|----------------|
| [65535](#event-65535) | 0x0000       |    658 |             62 |
| [559](#event-559)     | 0x0292       |     97 |             20 |
| [560](#event-560)     | 0x02F3       |   1358 |            181 |
| [561](#event-561)     | 0x0841       |   3862 |            477 |
| [562](#event-562)     | 0x1757       |    130 |             25 |
| [569](#event-569)     | 0x17D9       |   8671 |           1166 |
| [570](#event-570)     | 0x39B8       |   6817 |            925 |
| [571](#event-571)     | 0x5459       |    194 |             38 |
| [572](#event-572)     | 0x551B       |    145 |             29 |
| [573](#event-573)     | 0x55AC       |    170 |             34 |
| [574](#event-574)     | 0x5656       |    834 |            121 |
| [575](#event-575)     | 0x5998       |   3925 |            513 |
| [576](#event-576)     | 0x68ED       |    165 |             32 |

## DAT References (imed_data)

|   Index | Hex Value   |   Dec Value |
|---------|-------------|-------------|
|       0 | 0x00C8      |         200 |
|       1 | 0x0000      |           0 |
|       2 | 0x00C9      |         201 |
|       3 | 0x0001      |           1 |
|       4 | 0x002D      |          45 |
|       5 | 0x0002      |           2 |
|       6 | 0x001E      |          30 |
|       7 | 0x00D7      |         215 |
|       8 | 0x2AD6      |       10966 |
|       9 | 0x2AD7      |       10967 |
|      10 | 0x2AD9      |       10969 |
|      11 | 0x2AD8      |       10968 |
|      12 | 0x0093      |         147 |
|      13 | 0x012C      |         300 |
|      14 | 0x0195      |         405 |
|      15 | 0x0005      |           5 |
|      16 | 0x1E018     |      122904 |
|      17 | 0x1AF0A     |      110346 |
|      18 | 0xFFFFF449  |  4294964297 |
|      19 | 0x0BF2      |        3058 |
|      20 | 0x0006      |           6 |
|      21 | 0x1E045     |      122949 |
|      22 | 0x1AC22     |      109602 |
|      23 | 0xFFFFF448  |  4294964296 |
|      24 | 0x0BAD      |        2989 |
|      25 | 0x0019      |          25 |
|      26 | 0x007F      |         127 |
|      27 | 0x0343      |         835 |
|      28 | 0x2ADA      |       10970 |
|      29 | 0x0014      |          20 |
|      30 | 0x0003      |           3 |
|      31 | 0x0008      |           8 |
|      32 | 0x2ADB      |       10971 |
|      33 | 0x2ADC      |       10972 |
|      34 | 0x2ADD      |       10973 |
|      35 | 0x2ADE      |       10974 |
|      36 | 0x0007      |           7 |
|      37 | 0x2ADF      |       10975 |
|      38 | 0x2AE0      |       10976 |
|      39 | 0x2AE1      |       10977 |
|      40 | 0x2AE2      |       10978 |
|      41 | 0x000F      |          15 |
|      42 | 0x0097      |         151 |
|      43 | 0x1DBA7     |      121767 |
|      44 | 0x1B4D5     |      111829 |
|      45 | 0x0D29      |        3369 |
|      46 | 0x007B      |         123 |
|      47 | 0x0004      |           4 |
|      48 | 0x2AE3      |       10979 |
|      49 | 0x2AE4      |       10980 |
|      50 | 0x2AE5      |       10981 |
|      51 | 0x2AE6      |       10982 |
|      52 | 0x0028      |          40 |
|      53 | 0x2AE7      |       10983 |
|      54 | 0x2AE8      |       10984 |
|      55 | 0x03B6      |         950 |
|      56 | 0x02BC      |         700 |
|      57 | 0x2AE9      |       10985 |
|      58 | 0x2AEA      |       10986 |
|      59 | 0x2AEB      |       10987 |
|      60 | 0x2AEC      |       10988 |
|      61 | 0x2AED      |       10989 |
|      62 | 0x003C      |          60 |
|      63 | 0x2AEE      |       10990 |
|      64 | 0x2AEF      |       10991 |
|      65 | 0x2AF0      |       10992 |
|      66 | 0x0258      |         600 |
|      67 | 0x2AF1      |       10993 |
|      68 | 0x0096      |         150 |
|      69 | 0x2AF2      |       10994 |
|      70 | 0x2AF3      |       10995 |
|      71 | 0x2AF4      |       10996 |
|      72 | 0x2AF5      |       10997 |
|      73 | 0x0015      |          21 |
|      74 | 0x2AF6      |       10998 |
|      75 | 0x2AF7      |       10999 |
|      76 | 0x2AF8      |       11000 |
|      77 | 0x2AF9      |       11001 |
|      78 | 0x0094      |         148 |
|      79 | 0x009C      |         156 |
|      80 | 0x2AFA      |       11002 |
|      81 | 0x2AFB      |       11003 |
|      82 | 0x2AFC      |       11004 |
|      83 | 0x2AFD      |       11005 |
|      84 | 0x0032      |          50 |
|      85 | 0x19B8B     |      105355 |
|      86 | 0x1C04E     |      114766 |
|      87 | 0x008A      |         138 |
|      88 | 0x1C4D5     |      115925 |
|      89 | 0x1B685     |      112261 |
|      90 | 0xFFFFF831  |  4294965297 |
|      91 | 0x03DE      |         990 |
|      92 | 0x1C749     |      116553 |
|      93 | 0x1B2A5     |      111269 |
|      94 | 0xFFFFF8F8  |  4294965496 |
|      95 | 0x09F2      |        2546 |
|      96 | 0x2AFE      |       11006 |
|      97 | 0x2AFF      |       11007 |
|      98 | 0x2B00      |       11008 |
|      99 | 0x2B01      |       11009 |
|     100 | 0x2B02      |       11010 |
|     101 | 0x2B03      |       11011 |
|     102 | 0x2B04      |       11012 |
|     103 | 0x2B08      |       11016 |
|     104 | 0x2B09      |       11017 |
|     105 | 0x2B0A      |       11018 |
|     106 | 0x2B0B      |       11019 |
|     107 | 0x000A      |          10 |
|     108 | 0x005A      |          90 |
|     109 | 0x2B05      |       11013 |
|     110 | 0x2B06      |       11014 |
|     111 | 0x2B07      |       11015 |
|     112 | 0x0020      |          32 |
|     113 | 0x2B0C      |       11020 |
|     114 | 0x1DC9E     |      122014 |
|     115 | 0x1AA54     |      109140 |
|     116 | 0x08CD      |        2253 |
|     117 | 0x2B0D      |       11021 |
|     118 | 0x2B0E      |       11022 |
|     119 | 0x2B0F      |       11023 |
|     120 | 0x2B10      |       11024 |
|     121 | 0x2B11      |       11025 |
|     122 | 0x0080      |         128 |
|     123 | 0x2B12      |       11026 |
|     124 | 0x2B13      |       11027 |
|     125 | 0x2B14      |       11028 |
|     126 | 0x2B15      |       11029 |
|     127 | 0x2B16      |       11030 |
|     128 | 0x2B17      |       11031 |
|     129 | 0x2B18      |       11032 |
|     130 | 0x2B19      |       11033 |
|     131 | 0x2B1A      |       11034 |
|     132 | 0x1C90C     |      117004 |
|     133 | 0x1B2D0     |      111312 |
|     134 | 0xFFFFF830  |  4294965296 |
|     135 | 0x1CFD2     |      118738 |
|     136 | 0x1AC68     |      109672 |
|     137 | 0x09A1      |        2465 |
|     138 | 0x1C0FA     |      114938 |
|     139 | 0x1B766     |      112486 |
|     140 | 0x1C51B     |      115995 |
|     141 | 0x1BB5D     |      113501 |
|     142 | 0x2B1B      |       11035 |
|     143 | 0x2B1C      |       11036 |
|     144 | 0x2B1D      |       11037 |
|     145 | 0x2B1E      |       11038 |
|     146 | 0x2B1F      |       11039 |
|     147 | 0x2B20      |       11040 |
|     148 | 0x2B21      |       11041 |
|     149 | 0x2B22      |       11042 |
|     150 | 0x2B23      |       11043 |
|     151 | 0x2B24      |       11044 |
|     152 | 0x2B25      |       11045 |
|     153 | 0x2B26      |       11046 |
|     154 | 0x2B27      |       11047 |
|     155 | 0x2B28      |       11048 |
|     156 | 0x2B29      |       11049 |
|     157 | 0x2B2A      |       11050 |
|     158 | 0x2B2B      |       11051 |
|     159 | 0x1C706     |      116486 |
|     160 | 0x1B560     |      111968 |
|     161 | 0x09FA      |        2554 |
|     162 | 0x1CBBF     |      117695 |
|     163 | 0x1B0DB     |      110811 |
|     164 | 0x09EE      |        2542 |
|     165 | 0x1C912     |      117010 |
|     166 | 0x1B976     |      113014 |
|     167 | 0x1C521     |      116001 |
|     168 | 0x1B0D3     |      110803 |
|     169 | 0x001B      |          27 |
|     170 | 0x2B2C      |       11052 |
|     171 | 0x2B2D      |       11053 |
|     172 | 0x2B2E      |       11054 |
|     173 | 0x2B2F      |       11055 |
|     174 | 0x2B30      |       11056 |
|     175 | 0x2B31      |       11057 |
|     176 | 0x2B32      |       11058 |
|     177 | 0x2B33      |       11059 |
|     178 | 0x2B34      |       11060 |
|     179 | 0x2B35      |       11061 |
|     180 | 0x2B36      |       11062 |
|     181 | 0x2B37      |       11063 |
|     182 | 0x0C1C      |        3100 |
|     183 | 0x2B38      |       11064 |
|     184 | 0x2B39      |       11065 |
|     185 | 0x2B3A      |       11066 |
|     186 | 0x0201      |         513 |
|     187 | 0x2B3B      |       11067 |
|     188 | 0x2B3C      |       11068 |
|     189 | 0x2B3D      |       11069 |
|     190 | 0x2B3E      |       11070 |
|     191 | 0x2B3F      |       11071 |
|     192 | 0x2B40      |       11072 |
|     193 | 0x2B41      |       11073 |
|     194 | 0x2B42      |       11074 |
|     195 | 0x2B43      |       11075 |
|     196 | 0x2B44      |       11076 |
|     197 | 0x2B45      |       11077 |
|     198 | 0x0046      |          70 |
|     199 | 0x2B46      |       11078 |
|     200 | 0x2B47      |       11079 |
|     201 | 0x07D0      |        2000 |
|     202 | 0x2B48      |       11080 |
|     203 | 0x2B49      |       11081 |
|     204 | 0x2B4A      |       11082 |
|     205 | 0x2B4B      |       11083 |
|     206 | 0x2B4C      |       11084 |
|     207 | 0x2B4D      |       11085 |
|     208 | 0x2B4E      |       11086 |
|     209 | 0x2B4F      |       11087 |
|     210 | 0x2B50      |       11088 |
|     211 | 0x2B51      |       11089 |
|     212 | 0x2B52      |       11090 |
|     213 | 0x2B53      |       11091 |
|     214 | 0x2B54      |       11092 |
|     215 | 0x2B55      |       11093 |
|     216 | 0x2B56      |       11094 |
|     217 | 0x2B57      |       11095 |
|     218 | 0x01C0      |         448 |
|     219 | 0x2B58      |       11096 |
|     220 | 0x2B59      |       11097 |
|     221 | 0x2B5A      |       11098 |
|     222 | 0x0050      |          80 |
|     223 | 0x2B5B      |       11099 |
|     224 | 0x2B5C      |       11100 |
|     225 | 0x2B5D      |       11101 |
|     226 | 0x2B5E      |       11102 |
|     227 | 0x01BA      |         442 |
|     228 | 0x2B5F      |       11103 |
|     229 | 0x0733      |        1843 |
|     230 | 0x0734      |        1844 |
|     231 | 0x0211      |         529 |
|     232 | 0x2B60      |       11104 |
|     233 | 0x2B61      |       11105 |
|     234 | 0x2B62      |       11106 |
|     235 | 0x1C5B6     |      116150 |
|     236 | 0x1B5BA     |      112058 |
|     237 | 0x0850      |        2128 |
|     238 | 0x17284     |       94852 |
|     239 | 0x1C0D9     |      114905 |
|     240 | 0xFFFFEDF1  |  4294962673 |
|     241 | 0x07A6      |        1958 |
|     242 | 0x037D      |         893 |
|     243 | 0x2B6C      |       11116 |
|     244 | 0x2B6D      |       11117 |
|     245 | 0x1C20C     |      115212 |
|     246 | 0x1B6EF     |      112367 |
|     247 | 0x09BB      |        2491 |
|     248 | 0x0104      |         260 |
|     249 | 0x2B6E      |       11118 |
|     250 | 0x2B6F      |       11119 |
|     251 | 0x2B70      |       11120 |
|     252 | 0x2B71      |       11121 |
|     253 | 0x2B72      |       11122 |
|     254 | 0x0078      |         120 |
|     255 | 0x2B73      |       11123 |
|     256 | 0x0012      |          18 |
|     257 | 0x2B74      |       11124 |
|     258 | 0x2B75      |       11125 |
|     259 | 0x2B76      |       11126 |
|     260 | 0x2B77      |       11127 |
|     261 | 0x2B78      |       11128 |
|     262 | 0x2B79      |       11129 |
|     263 | 0x2B7A      |       11130 |
|     264 | 0x2B7B      |       11131 |
|     265 | 0x2B7C      |       11132 |
|     266 | 0x2B7D      |       11133 |
|     267 | 0x25E9      |        9705 |
|     268 | 0xFFFFFF26  |  4294967078 |
|     269 | 0x03E8      |        1000 |
|     270 | 0x2B7E      |       11134 |
|     271 | 0x2B7F      |       11135 |
|     272 | 0x2B80      |       11136 |
|     273 | 0x2B81      |       11137 |
|     274 | 0x2B82      |       11138 |
|     275 | 0x2B83      |       11139 |
|     276 | 0x2B84      |       11140 |
|     277 | 0x2B85      |       11141 |
|     278 | 0x2B86      |       11142 |
|     279 | 0x7A120     |      500000 |
|     280 | 0xFFF85EE0  |  4294467296 |
|     281 | 0xFFFF897C  |  4294936956 |
|     282 | 0x0400      |        1024 |
|     283 | 0x0D73      |        3443 |
|     284 | 0xFFF89F41  |  4294483777 |
|     285 | 0xFFFF75DC  |  4294931932 |
|     286 | 0x0F91      |        3985 |
|     287 | 0x00F1      |         241 |
|     288 | 0x00D5      |         213 |
|     289 | 0x2B87      |       11143 |
|     290 | 0x2B88      |       11144 |
|     291 | 0x0D66      |        3430 |
|     292 | 0x2B89      |       11145 |
|     293 | 0x2B8A      |       11146 |
|     294 | 0x2B8B      |       11147 |
|     295 | 0x2B8C      |       11148 |
|     296 | 0x2B8D      |       11149 |
|     297 | 0x2B8E      |       11150 |
|     298 | 0x2B8F      |       11151 |
|     299 | 0x2B90      |       11152 |
|     300 | 0x2B91      |       11153 |
|     301 | 0x2B92      |       11154 |
|     302 | 0x2B93      |       11155 |
|     303 | 0x2B94      |       11156 |
|     304 | 0x1B390     |      111504 |
|     305 | 0x096D      |        2413 |
|     306 | 0x1C258     |      115288 |
|     307 | 0x1B851     |      112721 |
|     308 | 0x096E      |        2414 |
|     309 | 0x2B95      |       11157 |
|     310 | 0x2B96      |       11158 |
|     311 | 0x2B97      |       11159 |
|     312 | 0x2B98      |       11160 |
|     313 | 0x0F5C      |        3932 |
|     314 | 0x2B99      |       11161 |
|     315 | 0x2B9A      |       11162 |
|     316 | 0x2B9B      |       11163 |
|     317 | 0x2B9C      |       11164 |
|     318 | 0x000E      |          14 |
|     319 | 0x2B9D      |       11165 |
|     320 | 0x1C516     |      115990 |
|     321 | 0x1AFAA     |      110506 |
|     322 | 0x07FC      |        2044 |
|     323 | 0x0030      |          48 |
|     324 | 0x2B9E      |       11166 |
|     325 | 0x2B9F      |       11167 |
|     326 | 0x2BA0      |       11168 |
|     327 | 0x2BA1      |       11169 |
|     328 | 0x2BA2      |       11170 |
|     329 | 0x2BA3      |       11171 |
|     330 | 0x2BA4      |       11172 |
|     331 | 0x0D3D      |        3389 |
|     332 | 0x2BA5      |       11173 |
|     333 | 0x2BA6      |       11174 |
|     334 | 0x2BA7      |       11175 |
|     335 | 0x2BA8      |       11176 |
|     336 | 0x2BA9      |       11177 |
|     337 | 0x2BAA      |       11178 |
|     338 | 0x2BAB      |       11179 |
|     339 | 0x2BAC      |       11180 |
|     340 | 0x2BAD      |       11181 |
|     341 | 0x2BAE      |       11182 |
|     342 | 0x01CA      |         458 |
|     343 | 0x01C6      |         454 |
|     344 | 0x2B63      |       11107 |
|     345 | 0x2B64      |       11108 |
|     346 | 0x6348      |       25416 |
|     347 | 0x2BAF      |       11183 |
|     348 | 0x01CC      |         460 |
|     349 | 0x2BB0      |       11184 |
|     350 | 0x2BB1      |       11185 |
|     351 | 0x2BB2      |       11186 |
|     352 | 0x2B69      |       11113 |
|     353 | 0x2B6A      |       11114 |
|     354 | 0x2B6B      |       11115 |
|     355 | 0x2BB5      |       11189 |
|     356 | 0x2BB6      |       11190 |
|     357 | 0x2BB7      |       11191 |
|     358 | 0x2B65      |       11109 |
|     359 | 0x2B66      |       11110 |
|     360 | 0x2B67      |       11111 |
|     361 | 0x2B68      |       11112 |
|     362 | 0x2BB3      |       11187 |
|     363 | 0x2BB4      |       11188 |
|     364 | 0x1DF7C     |      122748 |
|     365 | 0x1B008     |      110600 |
|     366 | 0x2BB8      |       11192 |
|     367 | 0x2BB9      |       11193 |
|     368 | 0x0027      |          39 |
|     369 | 0x2BBA      |       11194 |
|     370 | 0x00A0      |         160 |
|     371 | 0x2BBB      |       11195 |
|     372 | 0x2BBC      |       11196 |
|     373 | 0x2BBD      |       11197 |
|     374 | 0x1DF10     |      122640 |
|     375 | 0x1BBC6     |      113606 |
|     376 | 0x0062      |          98 |
|     377 | 0x1DA08     |      121352 |
|     378 | 0x1B0E8     |      110824 |
|     379 | 0x1004      |        4100 |
|     380 | 0x1B8A3     |      112803 |
|     381 | 0x1C17A     |      115066 |
|     382 | 0xFFFF8AD0  |  4294937296 |
|     383 | 0x0FFE      |        4094 |
|     384 | 0x0024      |          36 |
|     385 | 0x2C89      |       11401 |
|     386 | 0x2C8A      |       11402 |
|     387 | 0x2C8B      |       11403 |
|     388 | 0x2C8C      |       11404 |
|     389 | 0x2C8D      |       11405 |
|     390 | 0x2C8E      |       11406 |
|     391 | 0x2C8F      |       11407 |
|     392 | 0x2C90      |       11408 |
|     393 | 0x2C91      |       11409 |
|     394 | 0x0800      |        2048 |
|     395 | 0x2C92      |       11410 |
|     396 | 0x2C93      |       11411 |
|     397 | 0x2C94      |       11412 |
|     398 | 0x2C95      |       11413 |
|     399 | 0x0064      |         100 |
|     400 | 0x2C96      |       11414 |
|     401 | 0x2C97      |       11415 |
|     402 | 0x2C98      |       11416 |
|     403 | 0x2C99      |       11417 |
|     404 | 0x2C9A      |       11418 |
|     405 | 0x2C9B      |       11419 |
|     406 | 0x2C9C      |       11420 |
|     407 | 0x00FF      |         255 |
|     408 | 0x2C9D      |       11421 |
|     409 | 0x2C9E      |       11422 |
|     410 | 0x2C9F      |       11423 |
|     411 | 0x2CA0      |       11424 |
|     412 | 0x2CA1      |       11425 |
|     413 | 0x2CA2      |       11426 |
|     414 | 0x2CA3      |       11427 |
|     415 | 0x2CA4      |       11428 |
|     416 | 0x2CA5      |       11429 |
|     417 | 0x2CA6      |       11430 |
|     418 | 0x2CA7      |       11431 |
|     419 | 0x2CA8      |       11432 |
|     420 | 0x2CA9      |       11433 |
|     421 | 0x2CAA      |       11434 |
|     422 | 0x2CAB      |       11435 |
|     423 | 0x2CAC      |       11436 |
|     424 | 0x2CAD      |       11437 |
|     425 | 0x2CAE      |       11438 |
|     426 | 0x2CAF      |       11439 |
|     427 | 0x2CB0      |       11440 |
|     428 | 0x2CB1      |       11441 |

## String References

- **9705**: 
- **10974**: Should Kupipi pay? [Through the nose./No!]
- **10988**: How do you respond? [Who? Me?/What should I do?/I think it's your fault.]
- **11009**: Who is the culprit? [What are you talking about?/It's Uran-Mafran./It's the Maelstrom Mage, Garazu-Horeizu./It's Caboose.]

## Events

### Event 65535

#### Metadata

| Field        | Value     |
|--------------|-----------|
| Entrypoint   | 0x0000    |
| Data Size    | 658 bytes |
| Instructions | 1         |

```
      00 01 02 03 04 05 06 07  08 09 0A 0B 0C 0D 0E 0F
      -- -- -- -- -- -- -- --  -- -- -- -- -- -- -- --
0000: 00 45 00 80 F0 FF FF 7F  F0 FF FF 7F 66 64 69 30  .E..........fdi0
0010: 01 80 55 00 80 F0 FF FF  7F F0 FF FF 7F 66 64 69  ..U..........fdi
0020: 30 1B 45 00 80 F0 FF FF  7F F0 FF FF 7F 66 64 6F  0.E..........fdo
0030: 30 01 80 55 00 80 F0 FF  FF 7F F0 FF FF 7F 66 64  0..U..........fd
0040: 6F 30 1B 45 00 80 F0 FF  FF 7F F0 FF FF 7F 66 64  o0.E..........fd
0050: 69 31 01 80 55 00 80 F0  FF FF 7F F0 FF FF 7F 66  i1..U..........f
0060: 64 69 31 1B 45 00 80 F0  FF FF 7F F0 FF FF 7F 66  di1.E..........f
0070: 64 6F 31 01 80 55 00 80  F0 FF FF 7F F0 FF FF 7F  do1..U..........
0080: 66 64 6F 31 1B 45 02 80  F0 FF FF 7F F0 FF FF 7F  fdo1.E..........
0090: 77 68 69 31 01 80 55 02  80 F0 FF FF 7F F0 FF FF  whi1..U.........
00A0: 7F 77 68 69 31 1B 45 02  80 F0 FF FF 7F F0 FF FF  .whi1.E.........
00B0: 7F 77 68 6F 31 01 80 55  02 80 F0 FF FF 7F F0 FF  .who1..U........
00C0: FF 7F 77 68 6F 31 1B 45  02 80 F0 FF FF 7F F0 FF  ..who1.E........
00D0: FF 7F 77 68 6F 32 01 80  55 02 80 F0 FF FF 7F F0  ..who2..U.......
00E0: FF FF 7F 77 68 6F 32 1B  45 02 80 F0 FF FF 7F F0  ...who2.E.......
00F0: FF FF 7F 77 68 6F 33 01  80 55 02 80 F0 FF FF 7F  ...who3..U......
0100: F0 FF FF 7F 77 68 6F 33  1B 62 03 80 F0 FF FF 7F  ....who3.b......
0110: F0 FF FF 7F 6D 61 69 6E  01 80 1C 04 80 45 00 80  ....main.....E..
0120: F0 FF FF 7F F0 FF FF 7F  66 64 6F 31 01 80 55 00  ........fdo1..U.
0130: 80 F0 FF FF 7F F0 FF FF  7F 66 64 6F 31 1B 45 00  .........fdo1.E.
0140: 80 F0 FF FF 7F F0 FF FF  7F 66 64 69 31 01 80 62  .........fdi1..b
0150: 05 80 F0 FF FF 7F F0 FF  FF 7F 6D 61 69 6E 01 80  ..........main..
0160: 1C 06 80 55 00 80 F0 FF  FF 7F F0 FF FF 7F 66 64  ...U..........fd
0170: 69 31 1B 45 00 80 F0 FF  FF 7F F0 FF FF 7F 62 6C  i1.E..........bl
0180: 6F 6E 01 80 45 02 80 F0  FF FF 7F F0 FF FF 7F 62  on..E..........b
0190: 6C 6F 6E 01 80 1B 45 02  80 F0 FF FF 7F F0 FF FF  lon...E.........
01A0: 7F 77 68 69 30 01 80 55  02 80 F0 FF FF 7F F0 FF  .whi0..U........
01B0: FF 7F 77 68 69 30 1B 45  02 80 F0 FF FF 7F F0 FF  ..whi0.E........
01C0: FF 7F 77 68 6F 30 01 80  55 02 80 F0 FF FF 7F F0  ..who0..U.......
01D0: FF FF 7F 77 68 6F 30 1B  45 07 80 F0 FF FF 7F F0  ...who0.E.......
01E0: FF FF 7F 65 66 6F 6E 01  80 55 07 80 F0 FF FF 7F  ...efon..U......
01F0: F0 FF FF 7F 65 66 6F 6E  1B 45 00 80 F0 FF FF 7F  ....efon.E......
0200: F0 FF FF 7F 66 64 69 73  01 80 1B 45 00 80 F0 FF  ....fdis...E....
0210: FF 7F F0 FF FF 7F 66 64  6F 73 01 80 55 00 80 F0  ......fdos..U...
0220: FF FF 7F F0 FF FF 7F 66  64 6F 73 1B 45 00 80 F0  .......fdos.E...
0230: FF FF 7F F0 FF FF 7F 66  64 69 66 01 80 1B 45 00  .......fdif...E.
0240: 80 F0 FF FF 7F F0 FF FF  7F 66 64 6F 66 01 80 55  .........fdof..U
0250: 00 80 F0 FF FF 7F F0 FF  FF 7F 66 64 6F 66 1B 45  ..........fdof.E
0260: 00 80 F0 FF FF 7F F0 FF  FF 7F 66 64 69 70 01 80  ..........fdip..
0270: 1B 45 00 80 F0 FF FF 7F  F0 FF FF 7F 66 64 6F 70  .E..........fdop
0280: 01 80 55 00 80 F0 FF FF  7F F0 FF FF 7F 66 64 6F  ..U..........fdo
0290: 70 1B                                             p.              
```

#### Opcodes

```
  0: 0x0000 [0x00] END_REQSTACK()
```

#### Data or dead code:

```
# Dead code (unreachable instructions):
     0x0001 [0x45] LOAD_SCHEDULED_TASK: Load scheduler "fdi0" with entities [LocalPlayer, LocalPlayer], work=[200*, 0*]
     0x0012 [0x55] WAIT_LOAD_SCHEDULER: Wait for scheduler "fdi0" with entities [LocalPlayer, LocalPlayer], work=200*
     0x0021 [0x1B] RETURN
     0x0022 [0x45] LOAD_SCHEDULED_TASK: Load scheduler "fdo0" with entities [LocalPlayer, LocalPlayer], work=[200*, 0*]
     0x0033 [0x55] WAIT_LOAD_SCHEDULER: Wait for scheduler "fdo0" with entities [LocalPlayer, LocalPlayer], work=200*
     0x0042 [0x1B] RETURN
     0x0043 [0x45] LOAD_SCHEDULED_TASK: Load scheduler "fdi1" with entities [LocalPlayer, LocalPlayer], work=[200*, 0*]
     0x0054 [0x55] WAIT_LOAD_SCHEDULER: Wait for scheduler "fdi1" with entities [LocalPlayer, LocalPlayer], work=200*
     0x0063 [0x1B] RETURN
     0x0064 [0x45] LOAD_SCHEDULED_TASK: Load scheduler "fdo1" with entities [LocalPlayer, LocalPlayer], work=[200*, 0*]
     0x0075 [0x55] WAIT_LOAD_SCHEDULER: Wait for scheduler "fdo1" with entities [LocalPlayer, LocalPlayer], work=200*
     0x0084 [0x1B] RETURN
     0x0085 [0x45] LOAD_SCHEDULED_TASK: Load scheduler "whi1" with entities [LocalPlayer, LocalPlayer], work=[201*, 0*]
     0x0096 [0x55] WAIT_LOAD_SCHEDULER: Wait for scheduler "whi1" with entities [LocalPlayer, LocalPlayer], work=201*
     0x00A5 [0x1B] RETURN
     0x00A6 [0x45] LOAD_SCHEDULED_TASK: Load scheduler "who1" with entities [LocalPlayer, LocalPlayer], work=[201*, 0*]
     0x00B7 [0x55] WAIT_LOAD_SCHEDULER: Wait for scheduler "who1" with entities [LocalPlayer, LocalPlayer], work=201*
     0x00C6 [0x1B] RETURN
     0x00C7 [0x45] LOAD_SCHEDULED_TASK: Load scheduler "who2" with entities [LocalPlayer, LocalPlayer], work=[201*, 0*]
     0x00D8 [0x55] WAIT_LOAD_SCHEDULER: Wait for scheduler "who2" with entities [LocalPlayer, LocalPlayer], work=201*
     0x00E7 [0x1B] RETURN
     0x00E8 [0x45] LOAD_SCHEDULED_TASK: Load scheduler "who3" with entities [LocalPlayer, LocalPlayer], work=[201*, 0*]
     0x00F9 [0x55] WAIT_LOAD_SCHEDULER: Wait for scheduler "who3" with entities [LocalPlayer, LocalPlayer], work=201*
     0x0108 [0x1B] RETURN
     0x0109 [0x62] LOAD_EVENT_SCHEDULER: Load scheduler "main" with entities [LocalPlayer, LocalPlayer], work=[1*, 0*]
     0x011A [0x1C] WAIT(45* ticks)
     0x011D [0x45] LOAD_SCHEDULED_TASK: Load scheduler "fdo1" with entities [LocalPlayer, LocalPlayer], work=[200*, 0*]
     0x012E [0x55] WAIT_LOAD_SCHEDULER: Wait for scheduler "fdo1" with entities [LocalPlayer, LocalPlayer], work=200*
     0x013D [0x1B] RETURN
     0x013E [0x45] LOAD_SCHEDULED_TASK: Load scheduler "fdi1" with entities [LocalPlayer, LocalPlayer], work=[200*, 0*]
     0x014F [0x62] LOAD_EVENT_SCHEDULER: Load scheduler "main" with entities [LocalPlayer, LocalPlayer], work=[2*, 0*]
     0x0160 [0x1C] WAIT(30* ticks)
     0x0163 [0x55] WAIT_LOAD_SCHEDULER: Wait for scheduler "fdi1" with entities [LocalPlayer, LocalPlayer], work=200*
     0x0172 [0x1B] RETURN
     0x0173 [0x45] LOAD_SCHEDULED_TASK: Load scheduler "blon" with entities [LocalPlayer, LocalPlayer], work=[200*, 0*]
     0x0184 [0x45] LOAD_SCHEDULED_TASK: Load scheduler "blon" with entities [LocalPlayer, LocalPlayer], work=[201*, 0*]
     0x0195 [0x1B] RETURN
     0x0196 [0x45] LOAD_SCHEDULED_TASK: Load scheduler "whi0" with entities [LocalPlayer, LocalPlayer], work=[201*, 0*]
     0x01A7 [0x55] WAIT_LOAD_SCHEDULER: Wait for scheduler "whi0" with entities [LocalPlayer, LocalPlayer], work=201*
     0x01B6 [0x1B] RETURN
     0x01B7 [0x45] LOAD_SCHEDULED_TASK: Load scheduler "who0" with entities [LocalPlayer, LocalPlayer], work=[201*, 0*]
     0x01C8 [0x55] WAIT_LOAD_SCHEDULER: Wait for scheduler "who0" with entities [LocalPlayer, LocalPlayer], work=201*
     0x01D7 [0x1B] RETURN
     0x01D8 [0x45] LOAD_SCHEDULED_TASK: Load scheduler "efon" with entities [LocalPlayer, LocalPlayer], work=[215*, 0*]
     0x01E9 [0x55] WAIT_LOAD_SCHEDULER: Wait for scheduler "efon" with entities [LocalPlayer, LocalPlayer], work=215*
     0x01F8 [0x1B] RETURN
     0x01F9 [0x45] LOAD_SCHEDULED_TASK: Load scheduler "fdis" with entities [LocalPlayer, LocalPlayer], work=[200*, 0*]
     0x020A [0x1B] RETURN
     0x020B [0x45] LOAD_SCHEDULED_TASK: Load scheduler "fdos" with entities [LocalPlayer, LocalPlayer], work=[200*, 0*]
     0x021C [0x55] WAIT_LOAD_SCHEDULER: Wait for scheduler "fdos" with entities [LocalPlayer, LocalPlayer], work=200*
     0x022B [0x1B] RETURN
     0x022C [0x45] LOAD_SCHEDULED_TASK: Load scheduler "fdif" with entities [LocalPlayer, LocalPlayer], work=[200*, 0*]
     0x023D [0x1B] RETURN
     0x023E [0x45] LOAD_SCHEDULED_TASK: Load scheduler "fdof" with entities [LocalPlayer, LocalPlayer], work=[200*, 0*]
     0x024F [0x55] WAIT_LOAD_SCHEDULER: Wait for scheduler "fdof" with entities [LocalPlayer, LocalPlayer], work=200*
     0x025E [0x1B] RETURN
     0x025F [0x45] LOAD_SCHEDULED_TASK: Load scheduler "fdip" with entities [LocalPlayer, LocalPlayer], work=[200*, 0*]
     0x0270 [0x1B] RETURN
     0x0271 [0x45] LOAD_SCHEDULED_TASK: Load scheduler "fdop" with entities [LocalPlayer, LocalPlayer], work=[200*, 0*]
     0x0282 [0x55] WAIT_LOAD_SCHEDULER: Wait for scheduler "fdop" with entities [LocalPlayer, LocalPlayer], work=200*
     0x0291 [0x1B] RETURN
```

### Event 559

#### Metadata

| Field        | Value    |
|--------------|----------|
| Entrypoint   | 0x0292   |
| Data Size    | 97 bytes |
| Instructions | 20       |

```
      00 01 02 03 04 05 06 07  08 09 0A 0B 0C 0D 0E 0F
      -- -- -- -- -- -- -- --  -- -- -- -- -- -- -- --
0290:       4A 1A F0 0E 01 F0  FF FF 7F 6F 76 1A F0 0E    J........ov...
02A0: 01 4A F0 FF FF 7F 1A F0  0E 01 29 08 1A F0 0E 01  .J........).....
02B0: 01 2B 1A F0 0E 01 08 80  23 2B 1A F0 0E 01 09 80  .+......#+......
02C0: 23 29 08 1A F0 0E 01 02  02 02 10 03 80 00 E2 02  #)..............
02D0: 29 08 1A F0 0E 01 09 2B  1A F0 0E 01 0A 80 23 01  )......+......#.
02E0: F1 02 29 08 1A F0 0E 01  09 2B 1A F0 0E 01 0B 80  ..)......+......
02F0: 23 21 00                                          #!.             
```

#### Opcodes

```
  0: 0x0292 [0x4A] Shantotto (ID: 17756186/0x010EF01A) looks at LocalPlayer
  1: 0x029B [0x6F] WAIT_FRAME_DELAY: Yield until WaitTime reaches zero
  2: 0x029C [0x76] CHECK_ENTITY_RENDER_FLAGS: Wait until Shantotto (ID: 17756186/0x010EF01A) Render.Flags0 and Render.Flags3 conditions are met
  3: 0x02A1 [0x4A] LocalPlayer looks at Shantotto (ID: 17756186/0x010EF01A)
  4: 0x02AA [0x29] REQ_SET_WAIT(priority=0x08, entity_id=Shantotto (ID: 17756186/0x010EF01A), tag_num=0x01)
  5: 0x02B1 [0x2B] Shantotto (ID: 17756186/0x010EF01A) [10966*]:
    → "Well, look who's come to give their regards. Surely by now you've locked Kupipi behind bars?"
  6: 0x02B8 [0x23] WAIT_FOR_DIALOG_INTERACTION
  7: 0x02B9 [0x2B] Shantotto (ID: 17756186/0x010EF01A) [10967*]:
    → "Regardless of her punishment, I hold those clothes dear. So we must get to the bottom of things, or her demise is near."
  8: 0x02C0 [0x23] WAIT_FOR_DIALOG_INTERACTION
  9: 0x02C1 [0x29] REQ_SET_WAIT(priority=0x08, entity_id=Shantotto (ID: 17756186/0x010EF01A), tag_num=0x02)
 10: 0x02C8 [0x02] IF !(Work_Zone[2] == 1*) GOTO 0x02E2
 11: 0x02D0 [0x29] REQ_SET_WAIT(priority=0x08, entity_id=Shantotto (ID: 17756186/0x010EF01A), tag_num=0x09)
 12: 0x02D7 [0x2B] Shantotto (ID: 17756186/0x010EF01A) [10969*]:
    → "My outfit would have renedered everyone else obsolete. To think the crown was taken by someone with two left feet..."
 13: 0x02DE [0x23] WAIT_FOR_DIALOG_INTERACTION
 14: 0x02DF [0x01] GOTO 0x02F1
 15: 0x02E2 [0x29] REQ_SET_WAIT(priority=0x08, entity_id=Shantotto (ID: 17756186/0x010EF01A), tag_num=0x09)
 16: 0x02E9 [0x2B] Shantotto (ID: 17756186/0x010EF01A) [10968*]:
    → "Imagine my consternation at missing the competition. I should have won, not Zeid--it's simple addition!"
 17: 0x02F0 [0x23] WAIT_FOR_DIALOG_INTERACTION

SUBROUTINE_02F1:
 18: 0x02F1 [0x21] END_EVENT
 19: 0x02F2 [0x00] END_REQSTACK()
```

### Event 560

#### Metadata

| Field        | Value      |
|--------------|------------|
| Entrypoint   | 0x02F3     |
| Data Size    | 1358 bytes |
| Instructions | 181        |

```
      00 01 02 03 04 05 06 07  08 09 0A 0B 0C 0D 0E 0F
      -- -- -- -- -- -- -- --  -- -- -- -- -- -- -- --
02F0:          42 1A 64 00 46  01 38 0C 80 5D 01 80 0D     B.d.F.8..]...
0300: 80 02 09 10 01 80 01 0F  03 75 00 0E 80 75 01 92  .........u...u..
0310: 01 1A F0 0E 01 94 01 1A  F0 0E 01 94 01 F0 FF FF  ................
0320: 7F 80 F0 FF FF 7F 80 1A  F0 0E 01 29 08 F0 FF FF  ...........)....
0330: 7F 05 02 09 10 0F 80 00  50 03 BA F0 FF FF 7F 10  ........P.......
0340: 80 11 80 12 80 13 80 4E  01 F0 FF FF 7F 01 94 03  .......N........
0350: 02 09 10 14 80 00 6E 03  BA F0 FF FF 7F 10 80 11  ......n.........
0360: 80 12 80 13 80 4E 01 F0  FF FF 7F 01 94 03 BA F0  .....N..........
0370: FF FF 7F 15 80 16 80 17  80 18 80 4A 1A F0 0E 01  ...........J....
0380: F0 FF FF 7F 6F 76 1A F0  0E 01 79 00 F0 FF FF 7F  ....ov....y.....
0390: 1A F0 0E 01 5C 00 19 80  5C 01 19 80 9A 5D 1A 80  ....\...\....]..
03A0: 03 80 27 08 1A F0 0E 01  D5 45 1B 80 F8 FF FF 7F  ..'......E......
03B0: F8 FF FF 7F 73 30 30 30  01 80 1A 43 00 2B 1A F0  ....s000...C.+..
03C0: 0E 01 1C 80 23 2A 08 1A  F0 0E 01 1A 64 00 52 1B  ....#*......d.R.
03D0: 80 F8 FF FF 7F F8 FF FF  7F 73 30 30 30 4E 00 F0  .........s000N..
03E0: FF FF 7F 80 F0 FF FF 7F  27 10 F0 FF FF 7F 7C 1C  ........'.....|.
03F0: 1D 80 02 09 10 1E 80 00  0E 04 45 1B 80 F8 FF FF  ..........E.....
0400: 7F F8 FF FF 7F 73 30 30  35 01 80 01 73 04 02 09  .....s005...s...
0410: 10 0F 80 00 2A 04 45 1B  80 F8 FF FF 7F F8 FF FF  ....*.E.........
0420: 7F 73 30 30 37 01 80 01  73 04 02 09 10 14 80 00  .s007...s.......
0430: 46 04 45 1B 80 F8 FF FF  7F F8 FF FF 7F 73 30 30  F.E..........s00
0440: 37 01 80 01 73 04 02 09  10 1F 80 00 62 04 45 1B  7...s.......b.E.
0450: 80 F8 FF FF 7F F8 FF FF  7F 73 30 30 35 01 80 01  .........s005...
0460: 73 04 45 1B 80 F8 FF FF  7F F8 FF FF 7F 73 30 30  s.E..........s00
0470: 31 01 80 1A 43 00 2A 10  F0 FF FF 7F 29 08 1A F0  1...C.*.....)...
0480: 0E 01 01 2B 1A F0 0E 01  20 80 23 27 08 1A F0 0E  ...+.... .#'....
0490: 01 02 2B 1A F0 0E 01 21  80 23 2A 08 1A F0 0E 01  ..+....!.#*.....
04A0: 02 09 10 1E 80 00 BA 04  52 1B 80 F8 FF FF 7F F8  ........R.......
04B0: FF FF 7F 73 30 30 35 01  17 05 02 09 10 0F 80 00  ...s005.........
04C0: D4 04 52 1B 80 F8 FF FF  7F F8 FF FF 7F 73 30 30  ..R..........s00
04D0: 37 01 17 05 02 09 10 14  80 00 EE 04 52 1B 80 F8  7...........R...
04E0: FF FF 7F F8 FF FF 7F 73  30 30 37 01 17 05 02 09  .......s007.....
04F0: 10 1F 80 00 08 05 52 1B  80 F8 FF FF 7F F8 FF FF  ......R.........
0500: 7F 73 30 30 35 01 17 05  52 1B 80 F8 FF FF 7F F8  .s005...R.......
0510: FF FF 7F 73 30 30 31 45  1B 80 F8 FF FF 7F F8 FF  ...s001E........
0520: FF 7F 73 30 30 32 01 80  29 08 1A F0 0E 01 01 2B  ..s002..)......+
0530: 1A F0 0E 01 22 80 23 24  23 80 01 80 01 80 25 02  ....".#$#.....%.
0540: 00 10 01 80 00 06 06 52  1B 80 F8 FF FF 7F F8 FF  .......R........
0550: FF 7F 73 30 30 32 02 09  10 1E 80 00 72 05 45 1B  ..s002......r.E.
0560: 80 F8 FF FF 7F F8 FF FF  7F 73 30 30 36 01 80 01  .........s006...
0570: D7 05 02 09 10 0F 80 00  8E 05 45 1B 80 F8 FF FF  ..........E.....
0580: 7F F8 FF FF 7F 73 30 30  38 01 80 01 D7 05 02 09  .....s008.......
0590: 10 14 80 00 AA 05 45 1B  80 F8 FF FF 7F F8 FF FF  ......E.........
05A0: 7F 73 30 30 38 01 80 01  D7 05 02 09 10 1F 80 00  .s008...........
05B0: C6 05 45 1B 80 F8 FF FF  7F F8 FF FF 7F 73 30 30  ..E..........s00
05C0: 36 01 80 01 D7 05 45 1B  80 F8 FF FF 7F F8 FF FF  6.....E.........
05D0: 7F 73 30 30 33 01 80 6E  F0 FF FF 7F 24 80 99 F0  .s003..n....$...
05E0: FF FF 7F 29 08 1A F0 0E  01 02 1C 06 80 29 08 1A  ...).........)..
05F0: F0 0E 01 0B 2B 1A F0 0E  01 25 80 23 29 08 1A F0  ....+....%.#)...
0600: 0E 01 0C 01 CD 06 02 00  10 03 80 00 CD 06 52 1B  ..............R.
0610: 80 F8 FF FF 7F F8 FF FF  7F 73 30 30 32 02 09 10  .........s002...
0620: 1E 80 00 39 06 45 1B 80  F8 FF FF 7F F8 FF FF 7F  ...9.E..........
0630: 73 30 30 36 01 80 01 9E  06 02 09 10 0F 80 00 55  s006...........U
0640: 06 45 1B 80 F8 FF FF 7F  F8 FF FF 7F 73 30 30 38  .E..........s008
0650: 01 80 01 9E 06 02 09 10  14 80 00 71 06 45 1B 80  ...........q.E..
0660: F8 FF FF 7F F8 FF FF 7F  73 30 30 38 01 80 01 9E  ........s008....
0670: 06 02 09 10 1F 80 00 8D  06 45 1B 80 F8 FF FF 7F  .........E......
0680: F8 FF FF 7F 73 30 30 36  01 80 01 9E 06 45 1B 80  ....s006.....E..
0690: F8 FF FF 7F F8 FF FF 7F  73 30 30 33 01 80 6E F0  ........s003..n.
06A0: FF FF 7F 14 80 99 F0 FF  FF 7F 29 08 1A F0 0E 01  ..........).....
06B0: 02 1C 06 80 29 08 1A F0  0E 01 09 2B 1A F0 0E 01  ....)......+....
06C0: 26 80 23 29 08 1A F0 0E  01 0A 01 CD 06 02 09 10  &.#)............
06D0: 1E 80 00 E7 06 52 1B 80  F8 FF FF 7F F8 FF FF 7F  .....R..........
06E0: 73 30 30 36 01 44 07 02  09 10 0F 80 00 01 07 52  s006.D.........R
06F0: 1B 80 F8 FF FF 7F F8 FF  FF 7F 73 30 30 38 01 44  ..........s008.D
0700: 07 02 09 10 14 80 00 1B  07 52 1B 80 F8 FF FF 7F  .........R......
0710: F8 FF FF 7F 73 30 30 38  01 44 07 02 09 10 1F 80  ....s008.D......
0720: 00 35 07 52 1B 80 F8 FF  FF 7F F8 FF FF 7F 73 30  .5.R..........s0
0730: 30 36 01 44 07 52 1B 80  F8 FF FF 7F F8 FF FF 7F  06.D.R..........
0740: 73 30 30 33 02 09 10 0F  80 00 60 07 45 1B 80 F8  s003......`.E...
0750: FF FF 7F F8 FF FF 7F 73  30 30 39 01 80 01 8D 07  .......s009.....
0760: 02 09 10 14 80 00 7C 07  45 1B 80 F8 FF FF 7F F8  ......|.E.......
0770: FF FF 7F 73 30 30 39 01  80 01 8D 07 45 1B 80 F8  ...s009.....E...
0780: FF FF 7F F8 FF FF 7F 73  30 30 34 01 80 27 08 1A  .......s004..'..
0790: F0 0E 01 D6 2B 1A F0 0E  01 27 80 23 2A 08 1A F0  ....+....'.#*...
07A0: 0E 01 29 08 1A F0 0E 01  29 2B 1A F0 0E 01 28 80  ..).....)+....(.
07B0: 23 5D 01 80 0D 80 1A 64  00 1C 29 80 02 09 10 0F  #].....d..).....
07C0: 80 00 D6 07 52 1B 80 F8  FF FF 7F F8 FF FF 7F 73  ....R..........s
07D0: 30 30 39 01 FF 07 02 09  10 14 80 00 F0 07 52 1B  009...........R.
07E0: 80 F8 FF FF 7F F8 FF FF  7F 73 30 30 39 01 FF 07  .........s009...
07F0: 52 1B 80 F8 FF FF 7F F8  FF FF 7F 73 30 30 34 29  R..........s004)
0800: 08 1A F0 0E 01 2A 5C 00  2A 80 5C 01 2A 80 9A 5D  .....*\.*.\.*..]
0810: 1A 80 03 80 AB 11 01 80  1C 03 80 46 00 45 00 80  ...........F.E..
0820: F8 FF FF 7F F8 FF FF 7F  66 64 69 32 01 80 45 02  ........fdi2..E.
0830: 80 F8 FF FF 7F F8 FF FF  7F 71 73 74 63 01 80 21  .........qstc..!
0840: 00                                                .               
```

#### Opcodes

```
  0: 0x02F3 [0x42] SET_CLI_EVENT_CANCEL_DATA()
  1: 0x02F4 [0x1A] CALL_SUBROUTINE(address=0x0064)
  2: 0x02F7 [0x46] CAMERA_CONTROL: Disable user control
  3: 0x02F9 [0x38] SET_CLIENT_EVENT_MODE(mode=147*)
  4: 0x02FC [0x5D] SET_MUSIC_VOLUME(volume=0*, fade_time=300*)
  5: 0x0301 [0x02] IF !(Work_Zone[9] == 0*) GOTO 0x030F
  6: 0x0309 [0x75] LOAD_ROOM(Load indoor room, room=405*)
  7: 0x030D [0x75] LOAD_ROOM(No action)
  8: 0x030F [0x92] Shantotto (ID: 17756186/0x010EF01A)->Render.Flags3 ^= 0x01
  9: 0x0315 [0x94] Shantotto (ID: 17756186/0x010EF01A)->Render.Flags3 ^= 0x01
 10: 0x031B [0x94] LocalPlayer->Render.Flags3 ^= 0x01
 11: 0x0321 [0x80] LOAD_WAIT(entity=LocalPlayer)
 12: 0x0326 [0x80] LOAD_WAIT(entity=Shantotto (ID: 17756186/0x010EF01A))
 13: 0x032B [0x29] REQ_SET_WAIT(priority=0x08, entity_id=LocalPlayer, tag_num=0x05)
 14: 0x0332 [0x02] IF !(Work_Zone[9] == 5*) GOTO 0x0350
 15: 0x033A [0xBA] SET_ENTITY_POSITION(entity_id=LocalPlayer, pos_x=122.904*, pos_z=110.346*, pos_y=-2.999*, direction=268.8°*)
 16: 0x0347 [0x4E] SET_ENTITY_HIDE_FLAG: Hide LocalPlayer
 17: 0x034D [0x01] GOTO 0x0394
 18: 0x0350 [0x02] IF !(Work_Zone[9] == 6*) GOTO 0x036E
 19: 0x0358 [0xBA] SET_ENTITY_POSITION(entity_id=LocalPlayer, pos_x=122.904*, pos_z=110.346*, pos_y=-2.999*, direction=268.8°*)
 20: 0x0365 [0x4E] SET_ENTITY_HIDE_FLAG: Hide LocalPlayer
 21: 0x036B [0x01] GOTO 0x0394
 22: 0x036E [0xBA] SET_ENTITY_POSITION(entity_id=LocalPlayer, pos_x=122.949*, pos_z=109.602*, pos_y=-3.000*, direction=262.7°*)
 23: 0x037B [0x4A] Shantotto (ID: 17756186/0x010EF01A) looks at LocalPlayer
 24: 0x0384 [0x6F] WAIT_FRAME_DELAY: Yield until WaitTime reaches zero
 25: 0x0385 [0x76] CHECK_ENTITY_RENDER_FLAGS: Wait until Shantotto (ID: 17756186/0x010EF01A) Render.Flags0 and Render.Flags3 conditions are met
 26: 0x038A [0x79] LocalPlayer looks at Shantotto (ID: 17756186/0x010EF01A) (Basic look)

SUBROUTINE_0394:
 27: 0x0394 [0x5C] MUSIC_CONTROL: Set Idle (Day) music to song 25*
 28: 0x0398 [0x5C] MUSIC_CONTROL: Set Idle (Night) music to song 25*
 29: 0x039C [0x9A] WAIT_MUSIC_SERVER()
 30: 0x039D [0x5D] SET_MUSIC_VOLUME(volume=127*, fade_time=1*)
 31: 0x03A2 [0x27] REQ_SET(priority=0x08, entity_id=Shantotto (ID: 17756186/0x010EF01A), tag_num=0xD5)
 32: 0x03A9 [0x45] LOAD_SCHEDULED_TASK: Load scheduler "s000" with entities [EventEntity, EventEntity], work=[835*, 0*]
 33: 0x03BA [0x1A] CALL_SUBROUTINE(address=0x0043)
 34: 0x03BD [0x2B] Shantotto (ID: 17756186/0x010EF01A) [10970*]:
    → "Ah, I trust that you have brought me good news. So, please, spit it out, or you'll be singing the blues."
 35: 0x03C4 [0x23] WAIT_FOR_DIALOG_INTERACTION
 36: 0x03C5 [0x2A] GET_REQ_LEVEL(level=8, entity_id=Shantotto (ID: 17756186/0x010EF01A))
 37: 0x03CB [0x1A] CALL_SUBROUTINE(address=0x0064)
 38: 0x03CE [0x52] END_LOAD_SCHEDULER: End scheduler "s000" with entities [EventEntity, EventEntity], work=835*
 39: 0x03DD [0x4E] SET_ENTITY_HIDE_FLAG: Show LocalPlayer
 40: 0x03E3 [0x80] LOAD_WAIT(entity=LocalPlayer)
 41: 0x03E8 [0x27] REQ_SET(priority=0x10, entity_id=LocalPlayer, tag_num=0x7C)
 42: 0x03EF [0x1C] WAIT(20* ticks)
 43: 0x03F2 [0x02] IF !(Work_Zone[9] == 3*) GOTO 0x040E
 44: 0x03FA [0x45] LOAD_SCHEDULED_TASK: Load scheduler "s005" with entities [EventEntity, EventEntity], work=[835*, 0*]
 45: 0x040B [0x01] GOTO 0x0473
 46: 0x040E [0x02] IF !(Work_Zone[9] == 5*) GOTO 0x042A
 47: 0x0416 [0x45] LOAD_SCHEDULED_TASK: Load scheduler "s007" with entities [EventEntity, EventEntity], work=[835*, 0*]
 48: 0x0427 [0x01] GOTO 0x0473
 49: 0x042A [0x02] IF !(Work_Zone[9] == 6*) GOTO 0x0446
 50: 0x0432 [0x45] LOAD_SCHEDULED_TASK: Load scheduler "s007" with entities [EventEntity, EventEntity], work=[835*, 0*]
 51: 0x0443 [0x01] GOTO 0x0473
 52: 0x0446 [0x02] IF !(Work_Zone[9] == 8*) GOTO 0x0462
 53: 0x044E [0x45] LOAD_SCHEDULED_TASK: Load scheduler "s005" with entities [EventEntity, EventEntity], work=[835*, 0*]
 54: 0x045F [0x01] GOTO 0x0473
 55: 0x0462 [0x45] LOAD_SCHEDULED_TASK: Load scheduler "s001" with entities [EventEntity, EventEntity], work=[835*, 0*]

SUBROUTINE_0473:
 56: 0x0473 [0x1A] CALL_SUBROUTINE(address=0x0043)
 57: 0x0476 [0x2A] GET_REQ_LEVEL(level=16, entity_id=LocalPlayer)
 58: 0x047C [0x29] REQ_SET_WAIT(priority=0x08, entity_id=Shantotto (ID: 17756186/0x010EF01A), tag_num=0x01)
 59: 0x0483 [0x2B] Shantotto (ID: 17756186/0x010EF01A) [10971*]:
    → "Splendidly done, if I do say so myself. Everyone's memories are now right as books on a shelf."
 60: 0x048A [0x23] WAIT_FOR_DIALOG_INTERACTION
 61: 0x048B [0x27] REQ_SET(priority=0x08, entity_id=Shantotto (ID: 17756186/0x010EF01A), tag_num=0x02)
 62: 0x0492 [0x2B] Shantotto (ID: 17756186/0x010EF01A) [10972*]:
    → "And now we know that Kupipi's at fault. When I'm done with her, she'll be locked in a vault."
 63: 0x0499 [0x23] WAIT_FOR_DIALOG_INTERACTION
 64: 0x049A [0x2A] GET_REQ_LEVEL(level=8, entity_id=Shantotto (ID: 17756186/0x010EF01A))
 65: 0x04A0 [0x02] IF !(Work_Zone[9] == 3*) GOTO 0x04BA
 66: 0x04A8 [0x52] END_LOAD_SCHEDULER: End scheduler "s005" with entities [EventEntity, EventEntity], work=835*
 67: 0x04B7 [0x01] GOTO 0x0517
 68: 0x04BA [0x02] IF !(Work_Zone[9] == 5*) GOTO 0x04D4
 69: 0x04C2 [0x52] END_LOAD_SCHEDULER: End scheduler "s007" with entities [EventEntity, EventEntity], work=835*
 70: 0x04D1 [0x01] GOTO 0x0517
 71: 0x04D4 [0x02] IF !(Work_Zone[9] == 6*) GOTO 0x04EE
 72: 0x04DC [0x52] END_LOAD_SCHEDULER: End scheduler "s007" with entities [EventEntity, EventEntity], work=835*
 73: 0x04EB [0x01] GOTO 0x0517
 74: 0x04EE [0x02] IF !(Work_Zone[9] == 8*) GOTO 0x0508
 75: 0x04F6 [0x52] END_LOAD_SCHEDULER: End scheduler "s005" with entities [EventEntity, EventEntity], work=835*
 76: 0x0505 [0x01] GOTO 0x0517
 77: 0x0508 [0x52] END_LOAD_SCHEDULER: End scheduler "s001" with entities [EventEntity, EventEntity], work=835*

SUBROUTINE_0517:
 78: 0x0517 [0x45] LOAD_SCHEDULED_TASK: Load scheduler "s002" with entities [EventEntity, EventEntity], work=[835*, 0*]
 79: 0x0528 [0x29] REQ_SET_WAIT(priority=0x08, entity_id=Shantotto (ID: 17756186/0x010EF01A), tag_num=0x01)
 80: 0x052F [0x2B] Shantotto (ID: 17756186/0x010EF01A) [10973*]:
    → "So what do you say? Think Kupipi must pay?"
 81: 0x0536 [0x23] WAIT_FOR_DIALOG_INTERACTION
 82: 0x0537 [0x24] CREATE_DIALOG(message_id=10974*, default_option=0*, option_flags=0*)
    → "Should Kupipi pay? [Through the nose./No!]"
 83: 0x053E [0x25] WAIT_DIALOG_SELECT()
 84: 0x053F [0x02] IF !(Work_Zone[0] == 0*) GOTO 0x0606
 85: 0x0547 [0x52] END_LOAD_SCHEDULER: End scheduler "s002" with entities [EventEntity, EventEntity], work=835*
 86: 0x0556 [0x02] IF !(Work_Zone[9] == 3*) GOTO 0x0572
 87: 0x055E [0x45] LOAD_SCHEDULED_TASK: Load scheduler "s006" with entities [EventEntity, EventEntity], work=[835*, 0*]
 88: 0x056F [0x01] GOTO 0x05D7
 89: 0x0572 [0x02] IF !(Work_Zone[9] == 5*) GOTO 0x058E
 90: 0x057A [0x45] LOAD_SCHEDULED_TASK: Load scheduler "s008" with entities [EventEntity, EventEntity], work=[835*, 0*]
 91: 0x058B [0x01] GOTO 0x05D7
 92: 0x058E [0x02] IF !(Work_Zone[9] == 6*) GOTO 0x05AA
 93: 0x0596 [0x45] LOAD_SCHEDULED_TASK: Load scheduler "s008" with entities [EventEntity, EventEntity], work=[835*, 0*]
 94: 0x05A7 [0x01] GOTO 0x05D7
 95: 0x05AA [0x02] IF !(Work_Zone[9] == 8*) GOTO 0x05C6
 96: 0x05B2 [0x45] LOAD_SCHEDULED_TASK: Load scheduler "s006" with entities [EventEntity, EventEntity], work=[835*, 0*]
 97: 0x05C3 [0x01] GOTO 0x05D7
 98: 0x05C6 [0x45] LOAD_SCHEDULED_TASK: Load scheduler "s003" with entities [EventEntity, EventEntity], work=[835*, 0*]

SUBROUTINE_05D7:
 99: 0x05D7 [0x6E] LocalPlayer uses emote 7*
100: 0x05DE [0x99] Wait for LocalPlayer animation to complete
101: 0x05E3 [0x29] REQ_SET_WAIT(priority=0x08, entity_id=Shantotto (ID: 17756186/0x010EF01A), tag_num=0x02)
102: 0x05EA [0x1C] WAIT(30* ticks)
103: 0x05ED [0x29] REQ_SET_WAIT(priority=0x08, entity_id=Shantotto (ID: 17756186/0x010EF01A), tag_num=0x0B)
104: 0x05F4 [0x2B] Shantotto (ID: 17756186/0x010EF01A) [10975*]:
    → "Then we are of one mind. A comrade in arms did I find!"
105: 0x05FB [0x23] WAIT_FOR_DIALOG_INTERACTION
106: 0x05FC [0x29] REQ_SET_WAIT(priority=0x08, entity_id=Shantotto (ID: 17756186/0x010EF01A), tag_num=0x0C)
107: 0x0603 [0x01] GOTO 0x06CD
108: 0x0606 [0x02] IF !(Work_Zone[0] == 1*) GOTO 0x06CD
109: 0x060E [0x52] END_LOAD_SCHEDULER: End scheduler "s002" with entities [EventEntity, EventEntity], work=835*
110: 0x061D [0x02] IF !(Work_Zone[9] == 3*) GOTO 0x0639
111: 0x0625 [0x45] LOAD_SCHEDULED_TASK: Load scheduler "s006" with entities [EventEntity, EventEntity], work=[835*, 0*]
112: 0x0636 [0x01] GOTO 0x069E
113: 0x0639 [0x02] IF !(Work_Zone[9] == 5*) GOTO 0x0655
114: 0x0641 [0x45] LOAD_SCHEDULED_TASK: Load scheduler "s008" with entities [EventEntity, EventEntity], work=[835*, 0*]
115: 0x0652 [0x01] GOTO 0x069E
116: 0x0655 [0x02] IF !(Work_Zone[9] == 6*) GOTO 0x0671
117: 0x065D [0x45] LOAD_SCHEDULED_TASK: Load scheduler "s008" with entities [EventEntity, EventEntity], work=[835*, 0*]
118: 0x066E [0x01] GOTO 0x069E
119: 0x0671 [0x02] IF !(Work_Zone[9] == 8*) GOTO 0x068D
120: 0x0679 [0x45] LOAD_SCHEDULED_TASK: Load scheduler "s006" with entities [EventEntity, EventEntity], work=[835*, 0*]
121: 0x068A [0x01] GOTO 0x069E
122: 0x068D [0x45] LOAD_SCHEDULED_TASK: Load scheduler "s003" with entities [EventEntity, EventEntity], work=[835*, 0*]

SUBROUTINE_069E:
123: 0x069E [0x6E] LocalPlayer uses emote 6*
124: 0x06A5 [0x99] Wait for LocalPlayer animation to complete
125: 0x06AA [0x29] REQ_SET_WAIT(priority=0x08, entity_id=Shantotto (ID: 17756186/0x010EF01A), tag_num=0x02)
126: 0x06B1 [0x1C] WAIT(30* ticks)
127: 0x06B4 [0x29] REQ_SET_WAIT(priority=0x08, entity_id=Shantotto (ID: 17756186/0x010EF01A), tag_num=0x09)
128: 0x06BB [0x2B] Shantotto (ID: 17756186/0x010EF01A) [10976*]:
    → "What kind of detective is in cahoots with a crook? You stand with the villain--and it's not a good look."
129: 0x06C2 [0x23] WAIT_FOR_DIALOG_INTERACTION
130: 0x06C3 [0x29] REQ_SET_WAIT(priority=0x08, entity_id=Shantotto (ID: 17756186/0x010EF01A), tag_num=0x0A)
131: 0x06CA [0x01] GOTO 0x06CD

SUBROUTINE_06CD:
132: 0x06CD [0x02] IF !(Work_Zone[9] == 3*) GOTO 0x06E7
133: 0x06D5 [0x52] END_LOAD_SCHEDULER: End scheduler "s006" with entities [EventEntity, EventEntity], work=835*
134: 0x06E4 [0x01] GOTO 0x0744
135: 0x06E7 [0x02] IF !(Work_Zone[9] == 5*) GOTO 0x0701
136: 0x06EF [0x52] END_LOAD_SCHEDULER: End scheduler "s008" with entities [EventEntity, EventEntity], work=835*
137: 0x06FE [0x01] GOTO 0x0744
138: 0x0701 [0x02] IF !(Work_Zone[9] == 6*) GOTO 0x071B
139: 0x0709 [0x52] END_LOAD_SCHEDULER: End scheduler "s008" with entities [EventEntity, EventEntity], work=835*
140: 0x0718 [0x01] GOTO 0x0744
141: 0x071B [0x02] IF !(Work_Zone[9] == 8*) GOTO 0x0735
142: 0x0723 [0x52] END_LOAD_SCHEDULER: End scheduler "s006" with entities [EventEntity, EventEntity], work=835*
143: 0x0732 [0x01] GOTO 0x0744
144: 0x0735 [0x52] END_LOAD_SCHEDULER: End scheduler "s003" with entities [EventEntity, EventEntity], work=835*

SUBROUTINE_0744:
145: 0x0744 [0x02] IF !(Work_Zone[9] == 5*) GOTO 0x0760
146: 0x074C [0x45] LOAD_SCHEDULED_TASK: Load scheduler "s009" with entities [EventEntity, EventEntity], work=[835*, 0*]
147: 0x075D [0x01] GOTO 0x078D
148: 0x0760 [0x02] IF !(Work_Zone[9] == 6*) GOTO 0x077C
149: 0x0768 [0x45] LOAD_SCHEDULED_TASK: Load scheduler "s009" with entities [EventEntity, EventEntity], work=[835*, 0*]
150: 0x0779 [0x01] GOTO 0x078D
151: 0x077C [0x45] LOAD_SCHEDULED_TASK: Load scheduler "s004" with entities [EventEntity, EventEntity], work=[835*, 0*]

SUBROUTINE_078D:
152: 0x078D [0x27] REQ_SET(priority=0x08, entity_id=Shantotto (ID: 17756186/0x010EF01A), tag_num=0xD6)
153: 0x0794 [0x2B] Shantotto (ID: 17756186/0x010EF01A) [10977*]:
    → "Oh, believe me, adventurer, Kupipi shall burn. I fear it's the only way that she will learn."
154: 0x079B [0x23] WAIT_FOR_DIALOG_INTERACTION
155: 0x079C [0x2A] GET_REQ_LEVEL(level=8, entity_id=Shantotto (ID: 17756186/0x010EF01A))
156: 0x07A2 [0x29] REQ_SET_WAIT(priority=0x08, entity_id=Shantotto (ID: 17756186/0x010EF01A), tag_num=0x29)
157: 0x07A9 [0x2B] Shantotto (ID: 17756186/0x010EF01A) [10978*]:
    → "And with that, I am off to plan my revenge. I shall see her carcass strung up on a henge!"
158: 0x07B0 [0x23] WAIT_FOR_DIALOG_INTERACTION
159: 0x07B1 [0x5D] SET_MUSIC_VOLUME(volume=0*, fade_time=300*)
160: 0x07B6 [0x1A] CALL_SUBROUTINE(address=0x0064)
161: 0x07B9 [0x1C] WAIT(15* ticks)
162: 0x07BC [0x02] IF !(Work_Zone[9] == 5*) GOTO 0x07D6
163: 0x07C4 [0x52] END_LOAD_SCHEDULER: End scheduler "s009" with entities [EventEntity, EventEntity], work=835*
164: 0x07D3 [0x01] GOTO 0x07FF
165: 0x07D6 [0x02] IF !(Work_Zone[9] == 6*) GOTO 0x07F0
166: 0x07DE [0x52] END_LOAD_SCHEDULER: End scheduler "s009" with entities [EventEntity, EventEntity], work=835*
167: 0x07ED [0x01] GOTO 0x07FF
168: 0x07F0 [0x52] END_LOAD_SCHEDULER: End scheduler "s004" with entities [EventEntity, EventEntity], work=835*

SUBROUTINE_07FF:
169: 0x07FF [0x29] REQ_SET_WAIT(priority=0x08, entity_id=Shantotto (ID: 17756186/0x010EF01A), tag_num=0x2A)
170: 0x0806 [0x5C] MUSIC_CONTROL: Set Idle (Day) music to song 151*
171: 0x080A [0x5C] MUSIC_CONTROL: Set Idle (Night) music to song 151*
172: 0x080E [0x9A] WAIT_MUSIC_SERVER()
173: 0x080F [0x5D] SET_MUSIC_VOLUME(volume=127*, fade_time=1*)
174: 0x0814 [0xAB] EventEntity->DespawnValue = 0* // Set despawn value
175: 0x0818 [0x1C] WAIT(1* ticks)
176: 0x081B [0x46] CAMERA_CONTROL: Restore default settings
177: 0x081D [0x45] LOAD_SCHEDULED_TASK: Load scheduler "fdi2" with entities [EventEntity, EventEntity], work=[200*, 0*]
178: 0x082E [0x45] LOAD_SCHEDULED_TASK: Load scheduler "qstc" with entities [EventEntity, EventEntity], work=[201*, 0*]
179: 0x083F [0x21] END_EVENT
180: 0x0840 [0x00] END_REQSTACK()
```

### Event 561

#### Metadata

| Field        | Value      |
|--------------|------------|
| Entrypoint   | 0x0841     |
| Data Size    | 3862 bytes |
| Instructions | 477        |

```
      00 01 02 03 04 05 06 07  08 09 0A 0B 0C 0D 0E 0F
      -- -- -- -- -- -- -- --  -- -- -- -- -- -- -- --
0840:    42 1A 64 00 46 01 38  0C 80 5D 01 80 0D 80 02   B.d.F.8..].....
0850: 09 10 01 80 01 5D 08 75  00 0E 80 75 01 92 01 1A  .....].u...u....
0860: F0 0E 01 94 01 1A F0 0E  01 94 01 F0 FF FF 7F BA  ................
0870: F0 FF FF 7F 2B 80 2C 80  12 80 2D 80 80 1A F0 0E  ....+.,...-.....
0880: 01 80 F0 FF FF 7F 4A 1A  F0 0E 01 F0 FF FF 7F 4A  ......J........J
0890: F0 FF FF 7F 1A F0 0E 01  6F 76 1A F0 0E 01 6F 76  ........ov....ov
08A0: F0 FF FF 7F 5C 00 2E 80  5C 01 2E 80 9A 5D 1A 80  ....\...\....]..
08B0: 03 80 29 08 F0 FF FF 7F  05 29 08 1A F0 0E 01 29  ..)......).....)
08C0: 02 09 10 1E 80 00 DC 08  45 1B 80 F8 FF FF 7F F8  ........E.......
08D0: FF FF 7F 73 30 32 35 01  80 01 25 09 02 09 10 2F  ...s025...%..../
08E0: 80 00 F8 08 45 1B 80 F8  FF FF 7F F8 FF FF 7F 73  ....E..........s
08F0: 30 32 35 01 80 01 25 09  02 09 10 1F 80 00 14 09  025...%.........
0900: 45 1B 80 F8 FF FF 7F F8  FF FF 7F 73 30 32 35 01  E..........s025.
0910: 80 01 25 09 45 1B 80 F8  FF FF 7F F8 FF FF 7F 73  ..%.E..........s
0920: 30 31 30 01 80 1A 43 00  2B 1A F0 0E 01 30 80 23  010...C.+....0.#
0930: 29 08 1A F0 0E 01 2A 02  09 10 1E 80 00 51 09 52  ).....*......Q.R
0940: 1B 80 F8 FF FF 7F F8 FF  FF 7F 73 30 32 35 01 94  ..........s025..
0950: 09 02 09 10 2F 80 00 6B  09 52 1B 80 F8 FF FF 7F  ..../..k.R......
0960: F8 FF FF 7F 73 30 32 35  01 94 09 02 09 10 1F 80  ....s025........
0970: 00 85 09 52 1B 80 F8 FF  FF 7F F8 FF FF 7F 73 30  ...R..........s0
0980: 32 35 01 94 09 52 1B 80  F8 FF FF 7F F8 FF FF 7F  25...R..........
0990: 73 30 31 30 45 1B 80 F8  FF FF 7F F8 FF FF 7F 73  s010E..........s
09A0: 30 31 31 01 80 29 08 1A  F0 0E 01 01 2B 1A F0 0E  011..)......+...
09B0: 01 31 80 23 2B 1A F0 0E  01 32 80 23 29 08 1A F0  .1.#+....2.#)...
09C0: 0E 01 02 52 1B 80 F8 FF  FF 7F F8 FF FF 7F 73 30  ...R..........s0
09D0: 31 31 02 09 10 1E 80 00  EE 09 45 1B 80 F8 FF FF  11........E.....
09E0: 7F F8 FF FF 7F 73 30 32  36 01 80 01 53 0A 02 09  .....s026...S...
09F0: 10 0F 80 00 0A 0A 45 1B  80 F8 FF FF 7F F8 FF FF  ......E.........
0A00: 7F 73 30 33 32 01 80 01  53 0A 02 09 10 14 80 00  .s032...S.......
0A10: 26 0A 45 1B 80 F8 FF FF  7F F8 FF FF 7F 73 30 33  &.E..........s03
0A20: 32 01 80 01 53 0A 02 09  10 1F 80 00 42 0A 45 1B  2...S.......B.E.
0A30: 80 F8 FF FF 7F F8 FF FF  7F 73 30 32 36 01 80 01  .........s026...
0A40: 53 0A 45 1B 80 F8 FF FF  7F F8 FF FF 7F 73 30 31  S.E..........s01
0A50: 32 01 80 2B 1A F0 0E 01  33 80 6E 1A F0 0E 01 24  2..+....3.n....$
0A60: 80 99 1A F0 0E 01 1C 34  80 23 7B 1A F0 0E 01 29  .......4.#{....)
0A70: 08 1A F0 0E 01 09 29 08  1A F0 0E 01 0A 02 09 10  ......).........
0A80: 1E 80 00 97 0A 52 1B 80  F8 FF FF 7F F8 FF FF 7F  .....R..........
0A90: 73 30 32 36 01 F4 0A 02  09 10 0F 80 00 B1 0A 52  s026...........R
0AA0: 1B 80 F8 FF FF 7F F8 FF  FF 7F 73 30 33 32 01 F4  ..........s032..
0AB0: 0A 02 09 10 14 80 00 CB  0A 52 1B 80 F8 FF FF 7F  .........R......
0AC0: F8 FF FF 7F 73 30 33 32  01 F4 0A 02 09 10 1F 80  ....s032........
0AD0: 00 E5 0A 52 1B 80 F8 FF  FF 7F F8 FF FF 7F 73 30  ...R..........s0
0AE0: 32 36 01 F4 0A 52 1B 80  F8 FF FF 7F F8 FF FF 7F  26...R..........
0AF0: 73 30 31 32 02 09 10 0F  80 00 10 0B 45 1B 80 F8  s012........E...
0B00: FF FF 7F F8 FF FF 7F 73  30 33 33 01 80 01 3D 0B  .......s033...=.
0B10: 02 09 10 14 80 00 2C 0B  45 1B 80 F8 FF FF 7F F8  ......,.E.......
0B20: FF FF 7F 73 30 33 33 01  80 01 3D 0B 45 1B 80 F8  ...s033...=.E...
0B30: FF FF 7F F8 FF FF 7F 73  30 31 33 01 80 02 09 10  .......s013.....
0B40: 1F 80 00 4B 0B 1C 04 80  01 4E 0B 1C 06 80 29 08  ...K.....N....).
0B50: 1A F0 0E 01 D9 29 08 1A  F0 0E 01 03 2B 1A F0 0E  .....)......+...
0B60: 01 35 80 23 2B 1A F0 0E  01 36 80 23 29 08 1A F0  .5.#+....6.#)...
0B70: 0E 01 04 29 08 1A F0 0E  01 05 29 08 1A F0 0E 01  ...)......).....
0B80: 06 02 09 10 0F 80 00 9B  0B 52 1B 80 F8 FF FF 7F  .........R......
0B90: F8 FF FF 7F 73 30 33 33  01 C4 0B 02 09 10 14 80  ....s033........
0BA0: 00 B5 0B 52 1B 80 F8 FF  FF 7F F8 FF FF 7F 73 30  ...R..........s0
0BB0: 33 33 01 C4 0B 52 1B 80  F8 FF FF 7F F8 FF FF 7F  33...R..........
0BC0: 73 30 31 33 45 1B 80 F8  FF FF 7F F8 FF FF 7F 73  s013E..........s
0BD0: 30 31 34 01 80 4B 1A F0  0E 01 37 80 02 09 10 1F  014..K....7.....
0BE0: 80 00 F1 0B 79 02 1A F0  0E 01 38 80 01 80 01 FB  ....y.....8.....
0BF0: 0B 79 00 1A F0 0E 01 F0  FF FF 7F 2B 1A F0 0E 01  .y.........+....
0C00: 39 80 23 6F 76 1A F0 0E  01 52 1B 80 F8 FF FF 7F  9.#ov....R......
0C10: F8 FF FF 7F 73 30 31 34  45 1B 80 F8 FF FF 7F F8  ....s014E.......
0C20: FF FF 7F 73 30 31 35 01  80 4A F0 FF FF 7F 1A F0  ...s015..J......
0C30: 0E 01 29 08 1A F0 0E 01  09 2B 1A F0 0E 01 3A 80  ..)......+....:.
0C40: 23 29 08 1A F0 0E 01 0A  6F 76 F0 FF FF 7F 52 1B  #)......ov....R.
0C50: 80 F8 FF FF 7F F8 FF FF  7F 73 30 31 35 02 09 10  .........s015...
0C60: 1E 80 00 79 0C 45 1B 80  F8 FF FF 7F F8 FF FF 7F  ...y.E..........
0C70: 73 30 32 37 01 80 01 C2  0C 02 09 10 2F 80 00 95  s027......../...
0C80: 0C 45 1B 80 F8 FF FF 7F  F8 FF FF 7F 73 30 32 37  .E..........s027
0C90: 01 80 01 C2 0C 02 09 10  1F 80 00 B1 0C 45 1B 80  .............E..
0CA0: F8 FF FF 7F F8 FF FF 7F  73 30 32 37 01 80 01 C2  ........s027....
0CB0: 0C 45 1B 80 F8 FF FF 7F  F8 FF FF 7F 73 30 31 36  .E..........s016
0CC0: 01 80 27 08 1A F0 0E 01  DA 2B 1A F0 0E 01 3B 80  ..'......+....;.
0CD0: 23 2A 08 1A F0 0E 01 24  3C 80 01 80 01 80 25 02  #*.....$<.....%.
0CE0: 00 10 01 80 00 23 0F 02  09 10 1E 80 00 01 0D 52  .....#.........R
0CF0: 1B 80 F8 FF FF 7F F8 FF  FF 7F 73 30 32 37 01 44  ..........s027.D
0D00: 0D 02 09 10 2F 80 00 1B  0D 52 1B 80 F8 FF FF 7F  ..../....R......
0D10: F8 FF FF 7F 73 30 32 37  01 44 0D 02 09 10 1F 80  ....s027.D......
0D20: 00 35 0D 52 1B 80 F8 FF  FF 7F F8 FF FF 7F 73 30  .5.R..........s0
0D30: 32 37 01 44 0D 52 1B 80  F8 FF FF 7F F8 FF FF 7F  27.D.R..........
0D40: 73 30 31 36 02 09 10 1E  80 00 60 0D 45 1B 80 F8  s016......`.E...
0D50: FF FF 7F F8 FF FF 7F 73  30 32 38 01 80 01 C5 0D  .......s028.....
0D60: 02 09 10 0F 80 00 7C 0D  45 1B 80 F8 FF FF 7F F8  ......|.E.......
0D70: FF FF 7F 73 30 33 34 01  80 01 C5 0D 02 09 10 14  ...s034.........
0D80: 80 00 98 0D 45 1B 80 F8  FF FF 7F F8 FF FF 7F 73  ....E..........s
0D90: 30 33 34 01 80 01 C5 0D  02 09 10 1F 80 00 B4 0D  034.............
0DA0: 45 1B 80 F8 FF FF 7F F8  FF FF 7F 73 30 32 38 01  E..........s028.
0DB0: 80 01 C5 0D 45 1B 80 F8  FF FF 7F F8 FF FF 7F 73  ....E..........s
0DC0: 30 31 37 01 80 7B 1A F0  0E 01 29 08 1A F0 0E 01  017..{....).....
0DD0: 03 2B 1A F0 0E 01 3D 80  23 29 08 1A F0 0E 01 04  .+....=.#)......
0DE0: 6E F0 FF FF 7F 14 80 99  F0 FF FF 7F 1C 3E 80 29  n............>.)
0DF0: 08 1A F0 0E 01 05 29 08  1A F0 0E 01 06 79 00 1A  ......)......y..
0E00: F0 0E 01 F0 FF FF 7F 02  09 10 1E 80 00 21 0E 52  .............!.R
0E10: 1B 80 F8 FF FF 7F F8 FF  FF 7F 73 30 32 38 01 7E  ..........s028.~
0E20: 0E 02 09 10 0F 80 00 3B  0E 52 1B 80 F8 FF FF 7F  .......;.R......
0E30: F8 FF FF 7F 73 30 33 34  01 7E 0E 02 09 10 14 80  ....s034.~......
0E40: 00 55 0E 52 1B 80 F8 FF  FF 7F F8 FF FF 7F 73 30  .U.R..........s0
0E50: 33 34 01 7E 0E 02 09 10  1F 80 00 6F 0E 52 1B 80  34.~.......o.R..
0E60: F8 FF FF 7F F8 FF FF 7F  73 30 32 38 01 7E 0E 52  ........s028.~.R
0E70: 1B 80 F8 FF FF 7F F8 FF  FF 7F 73 30 31 37 02 09  ..........s017..
0E80: 10 0F 80 00 9A 0E 45 1B  80 F8 FF FF 7F F8 FF FF  ......E.........
0E90: 7F 73 30 33 35 01 80 01  C7 0E 02 09 10 14 80 00  .s035...........
0EA0: B6 0E 45 1B 80 F8 FF FF  7F F8 FF FF 7F 73 30 33  ..E..........s03
0EB0: 35 01 80 01 C7 0E 45 1B  80 F8 FF FF 7F F8 FF FF  5.....E.........
0EC0: 7F 73 30 31 38 01 80 29  08 1A F0 0E 01 0B 2B 1A  .s018..)......+.
0ED0: F0 0E 01 3F 80 23 29 08  1A F0 0E 01 0C 02 09 10  ...?.#).........
0EE0: 0F 80 00 F7 0E 52 1B 80  F8 FF FF 7F F8 FF FF 7F  .....R..........
0EF0: 73 30 33 35 01 20 0F 02  09 10 14 80 00 11 0F 52  s035. .........R
0F00: 1B 80 F8 FF FF 7F F8 FF  FF 7F 73 30 33 35 01 20  ..........s035. 
0F10: 0F 52 1B 80 F8 FF FF 7F  F8 FF FF 7F 73 30 31 38  .R..........s018
0F20: 01 F9 15 02 00 10 03 80  00 7F 11 29 08 F0 FF FF  ...........)....
0F30: 7F 7C 02 09 10 1E 80 00  4C 0F 52 1B 80 F8 FF FF  .|......L.R.....
0F40: 7F F8 FF FF 7F 73 30 32  37 01 8F 0F 02 09 10 2F  .....s027....../
0F50: 80 00 66 0F 52 1B 80 F8  FF FF 7F F8 FF FF 7F 73  ..f.R..........s
0F60: 30 32 37 01 8F 0F 02 09  10 1F 80 00 80 0F 52 1B  027...........R.
0F70: 80 F8 FF FF 7F F8 FF FF  7F 73 30 32 37 01 8F 0F  .........s027...
0F80: 52 1B 80 F8 FF FF 7F F8  FF FF 7F 73 30 31 36 02  R..........s016.
0F90: 09 10 1E 80 00 AB 0F 45  1B 80 F8 FF FF 7F F8 FF  .......E........
0FA0: FF 7F 73 30 32 38 01 80  01 10 10 02 09 10 0F 80  ..s028..........
0FB0: 00 C7 0F 45 1B 80 F8 FF  FF 7F F8 FF FF 7F 73 30  ...E..........s0
0FC0: 33 34 01 80 01 10 10 02  09 10 14 80 00 E3 0F 45  34.............E
0FD0: 1B 80 F8 FF FF 7F F8 FF  FF 7F 73 30 33 34 01 80  ..........s034..
0FE0: 01 10 10 02 09 10 1F 80  00 FF 0F 45 1B 80 F8 FF  ...........E....
0FF0: FF 7F F8 FF FF 7F 73 30  32 38 01 80 01 10 10 45  ......s028.....E
1000: 1B 80 F8 FF FF 7F F8 FF  FF 7F 73 30 31 37 01 80  ..........s017..
1010: 29 08 1A F0 0E 01 1D 2B  1A F0 0E 01 40 80 23 29  )......+....@.#)
1020: 08 1A F0 0E 01 1E 7B 1A  F0 0E 01 29 08 1A F0 0E  ......{....)....
1030: 01 03 1C 06 80 2B 1A F0  0E 01 41 80 23 29 08 1A  .....+....A.#)..
1040: F0 0E 01 04 02 09 10 1E  80 00 5E 10 52 1B 80 F8  ..........^.R...
1050: FF FF 7F F8 FF FF 7F 73  30 32 38 01 BB 10 02 09  .......s028.....
1060: 10 0F 80 00 78 10 52 1B  80 F8 FF FF 7F F8 FF FF  ....x.R.........
1070: 7F 73 30 33 34 01 BB 10  02 09 10 14 80 00 92 10  .s034...........
1080: 52 1B 80 F8 FF FF 7F F8  FF FF 7F 73 30 33 34 01  R..........s034.
1090: BB 10 02 09 10 1F 80 00  AC 10 52 1B 80 F8 FF FF  ..........R.....
10A0: 7F F8 FF FF 7F 73 30 32  38 01 BB 10 52 1B 80 F8  .....s028...R...
10B0: FF FF 7F F8 FF FF 7F 73  30 31 37 02 09 10 0F 80  .......s017.....
10C0: 00 D7 10 45 1B 80 F8 FF  FF 7F F8 FF FF 7F 73 30  ...E..........s0
10D0: 33 35 01 80 01 04 11 02  09 10 14 80 00 F3 10 45  35.............E
10E0: 1B 80 F8 FF FF 7F F8 FF  FF 7F 73 30 33 35 01 80  ..........s035..
10F0: 01 04 11 45 1B 80 F8 FF  FF 7F F8 FF FF 7F 73 30  ...E..........s0
1100: 31 38 01 80 29 08 1A F0  0E 01 05 02 09 10 1F 80  18..)...........
1110: 00 20 11 79 02 1A F0 0E  01 42 80 01 80 01 2A 11  . .y.....B....*.
1120: 79 00 1A F0 0E 01 F0 FF  FF 7F 2B 1A F0 0E 01 43  y.........+....C
1130: 80 23 29 08 1A F0 0E 01  06 02 09 10 0F 80 00 53  .#)............S
1140: 11 52 1B 80 F8 FF FF 7F  F8 FF FF 7F 73 30 33 35  .R..........s035
1150: 01 7C 11 02 09 10 14 80  00 6D 11 52 1B 80 F8 FF  .|.......m.R....
1160: FF 7F F8 FF FF 7F 73 30  33 35 01 7C 11 52 1B 80  ......s035.|.R..
1170: F8 FF FF 7F F8 FF FF 7F  73 30 31 38 01 F9 15 02  ........s018....
1180: 00 10 05 80 00 F9 15 02  09 10 1F 80 00 99 11 79  ...............y
1190: 02 1A F0 0E 01 42 80 01  80 29 08 F0 FF FF 7F 7C  .....B...).....|
11A0: 02 09 10 1E 80 00 BA 11  52 1B 80 F8 FF FF 7F F8  ........R.......
11B0: FF FF 7F 73 30 32 37 01  FD 11 02 09 10 2F 80 00  ...s027....../..
11C0: D4 11 52 1B 80 F8 FF FF  7F F8 FF FF 7F 73 30 32  ..R..........s02
11D0: 37 01 FD 11 02 09 10 1F  80 00 EE 11 52 1B 80 F8  7...........R...
11E0: FF FF 7F F8 FF FF 7F 73  30 32 37 01 FD 11 52 1B  .......s027...R.
11F0: 80 F8 FF FF 7F F8 FF FF  7F 73 30 31 36 02 09 10  .........s016...
1200: 1E 80 00 19 12 45 1B 80  F8 FF FF 7F F8 FF FF 7F  .....E..........
1210: 73 30 32 38 01 80 01 7E  12 02 09 10 0F 80 00 35  s028...~.......5
1220: 12 45 1B 80 F8 FF FF 7F  F8 FF FF 7F 73 30 33 34  .E..........s034
1230: 01 80 01 7E 12 02 09 10  14 80 00 51 12 45 1B 80  ...~.......Q.E..
1240: F8 FF FF 7F F8 FF FF 7F  73 30 33 34 01 80 01 7E  ........s034...~
1250: 12 02 09 10 1F 80 00 6D  12 45 1B 80 F8 FF FF 7F  .......m.E......
1260: F8 FF FF 7F 73 30 32 38  01 80 01 7E 12 45 1B 80  ....s028...~.E..
1270: F8 FF FF 7F F8 FF FF 7F  73 30 31 37 01 80 5D 01  ........s017..].
1280: 80 0D 80 1C 44 80 02 09  10 1E 80 00 A0 12 52 1B  ....D.........R.
1290: 80 F8 FF FF 7F F8 FF FF  7F 73 30 32 38 01 FD 12  .........s028...
12A0: 02 09 10 0F 80 00 BA 12  52 1B 80 F8 FF FF 7F F8  ........R.......
12B0: FF FF 7F 73 30 33 34 01  FD 12 02 09 10 14 80 00  ...s034.........
12C0: D4 12 52 1B 80 F8 FF FF  7F F8 FF FF 7F 73 30 33  ..R..........s03
12D0: 34 01 FD 12 02 09 10 1F  80 00 EE 12 52 1B 80 F8  4...........R...
12E0: FF FF 7F F8 FF FF 7F 73  30 32 38 01 FD 12 52 1B  .......s028...R.
12F0: 80 F8 FF FF 7F F8 FF FF  7F 73 30 31 37 45 1B 80  .........s017E..
1300: F8 FF FF 7F F8 FF FF 7F  73 30 32 31 01 80 1C 34  ........s021...4
1310: 80 2B 1A F0 0E 01 45 80  23 52 1B 80 F8 FF FF 7F  .+....E.#R......
1320: F8 FF FF 7F 73 30 32 31  45 1B 80 F8 FF FF 7F F8  ....s021E.......
1330: FF FF 7F 73 30 32 33 01  80 1C 06 80 2B 1A F0 0E  ...s023.....+...
1340: 01 46 80 23 52 1B 80 F8  FF FF 7F F8 FF FF 7F 73  .F.#R..........s
1350: 30 32 33 02 09 10 1E 80  00 6F 13 45 1B 80 F8 FF  023......o.E....
1360: FF 7F F8 FF FF 7F 73 30  32 39 01 80 01 F0 13 02  ......s029......
1370: 09 10 2F 80 00 8B 13 45  1B 80 F8 FF FF 7F F8 FF  ../....E........
1380: FF 7F 73 30 32 39 01 80  01 F0 13 02 09 10 0F 80  ..s029..........
1390: 00 A7 13 45 1B 80 F8 FF  FF 7F F8 FF FF 7F 73 30  ...E..........s0
13A0: 33 36 01 80 01 F0 13 02  09 10 14 80 00 C3 13 45  36.............E
13B0: 1B 80 F8 FF FF 7F F8 FF  FF 7F 73 30 33 36 01 80  ..........s036..
13C0: 01 F0 13 02 09 10 1F 80  00 DF 13 45 1B 80 F8 FF  ...........E....
13D0: FF 7F F8 FF FF 7F 73 30  32 39 01 80 01 F0 13 45  ......s029.....E
13E0: 1B 80 F8 FF FF 7F F8 FF  FF 7F 73 30 32 32 01 80  ..........s022..
13F0: 2B 1A F0 0E 01 47 80 6E  1A F0 0E 01 24 80 99 1A  +....G.n....$...
1400: F0 0E 01 1C 34 80 23 02  09 10 1E 80 00 21 14 52  ....4.#......!.R
1410: 1B 80 F8 FF FF 7F F8 FF  FF 7F 73 30 32 39 01 98  ..........s029..
1420: 14 02 09 10 2F 80 00 3B  14 52 1B 80 F8 FF FF 7F  ..../..;.R......
1430: F8 FF FF 7F 73 30 32 39  01 98 14 02 09 10 0F 80  ....s029........
1440: 00 55 14 52 1B 80 F8 FF  FF 7F F8 FF FF 7F 73 30  .U.R..........s0
1450: 33 36 01 98 14 02 09 10  14 80 00 6F 14 52 1B 80  36.........o.R..
1460: F8 FF FF 7F F8 FF FF 7F  73 30 33 36 01 98 14 02  ........s036....
1470: 09 10 1F 80 00 89 14 52  1B 80 F8 FF FF 7F F8 FF  .......R........
1480: FF 7F 73 30 32 39 01 98  14 52 1B 80 F8 FF FF 7F  ..s029...R......
1490: F8 FF FF 7F 73 30 32 32  02 09 10 1E 80 00 B4 14  ....s022........
14A0: 45 1B 80 F8 FF FF 7F F8  FF FF 7F 73 30 33 31 01  E..........s031.
14B0: 80 01 E1 14 02 09 10 1F  80 00 D0 14 45 1B 80 F8  ............E...
14C0: FF FF 7F F8 FF FF 7F 73  30 33 31 01 80 01 E1 14  .......s031.....
14D0: 45 1B 80 F8 FF FF 7F F8  FF FF 7F 73 30 32 34 01  E..........s024.
14E0: 80 5D 1A 80 0D 80 29 08  1A F0 0E 01 29 2B 1A F0  .]....).....)+..
14F0: 0E 01 48 80 1C 34 80 6E  F0 FF FF 7F 49 80 99 F0  ..H..4.n....I...
1500: FF FF 7F 1C 1D 80 23 29  08 1A F0 0E 01 2A 02 09  ......#).....*..
1510: 10 1E 80 00 28 15 52 1B  80 F8 FF FF 7F F8 FF FF  ....(.R.........
1520: 7F 73 30 33 31 01 51 15  02 09 10 1F 80 00 42 15  .s031.Q.......B.
1530: 52 1B 80 F8 FF FF 7F F8  FF FF 7F 73 30 33 31 01  R..........s031.
1540: 51 15 52 1B 80 F8 FF FF  7F F8 FF FF 7F 73 30 32  Q.R..........s02
1550: 34 02 09 10 0F 80 00 6D  15 45 1B 80 F8 FF FF 7F  4......m.E......
1560: F8 FF FF 7F 73 30 33 35  01 80 01 9A 15 02 09 10  ....s035........
1570: 14 80 00 89 15 45 1B 80  F8 FF FF 7F F8 FF FF 7F  .....E..........
1580: 73 30 33 35 01 80 01 9A  15 45 1B 80 F8 FF FF 7F  s035.....E......
1590: F8 FF FF 7F 73 30 31 38  01 80 1C 06 80 29 08 1A  ....s018.....)..
15A0: F0 0E 01 0B 2B 1A F0 0E  01 4A 80 23 29 08 1A F0  ....+....J.#)...
15B0: 0E 01 0C 02 09 10 0F 80  00 CD 15 52 1B 80 F8 FF  ...........R....
15C0: FF 7F F8 FF FF 7F 73 30  33 35 01 F6 15 02 09 10  ......s035......
15D0: 14 80 00 E7 15 52 1B 80  F8 FF FF 7F F8 FF FF 7F  .....R..........
15E0: 73 30 33 35 01 F6 15 52  1B 80 F8 FF FF 7F F8 FF  s035...R........
15F0: FF 7F 73 30 31 38 01 F9  15 03 01 10 00 10 02 09  ..s018..........
1600: 10 1E 80 00 1A 16 45 1B  80 F8 FF FF 7F F8 FF FF  ......E.........
1610: 7F 73 30 33 30 01 80 01  47 16 02 09 10 1F 80 00  .s030...G.......
1620: 36 16 45 1B 80 F8 FF FF  7F F8 FF FF 7F 73 30 33  6.E..........s03
1630: 30 01 80 01 47 16 45 1B  80 F8 FF FF 7F F8 FF FF  0...G.E.........
1640: 7F 73 30 31 39 01 80 29  08 1A F0 0E 01 01 2B 1A  .s019..)......+.
1650: F0 0E 01 4B 80 23 2B 1A  F0 0E 01 4C 80 23 29 08  ...K.#+....L.#).
1660: 1A F0 0E 01 02 02 09 10  1E 80 00 7F 16 52 1B 80  .............R..
1670: F8 FF FF 7F F8 FF FF 7F  73 30 33 30 01 A8 16 02  ........s030....
1680: 09 10 1F 80 00 99 16 52  1B 80 F8 FF FF 7F F8 FF  .......R........
1690: FF 7F 73 30 33 30 01 A8  16 52 1B 80 F8 FF FF 7F  ..s030...R......
16A0: F8 FF FF 7F 73 30 31 39  02 00 10 05 80 00 B8 16  ....s019........
16B0: 03 03 10 01 80 01 BD 16  03 03 10 03 80 45 1B 80  .............E..
16C0: F8 FF FF 7F F8 FF FF 7F  73 30 32 30 01 80 7B 1A  ........s020..{.
16D0: F0 0E 01 27 08 1A F0 0E  01 DB 2B 1A F0 0E 01 4D  ...'......+....M
16E0: 80 2A 08 1A F0 0E 01 4A  F0 FF FF 7F 1A F0 0E 01  .*.....J........
16F0: 29 08 1A F0 0E 01 03 23  5D 01 80 0D 80 1A 64 00  )......#].....d.
1700: 1C 29 80 29 08 1A F0 0E  01 04 6F 76 F0 FF FF 7F  .).)......ov....
1710: 29 08 1A F0 0E 01 05 29  08 1A F0 0E 01 06 52 1B  )......)......R.
1720: 80 F8 FF FF 7F F8 FF FF  7F 73 30 32 30 5C 00 2A  .........s020\.*
1730: 80 5C 01 2A 80 9A 5D 1A  80 03 80 AB 11 01 80 1C  .\.*..].........
1740: 03 80 46 00 45 00 80 F8  FF FF 7F F8 FF FF 7F 66  ..F.E..........f
1750: 64 69 32 01 80 21 00                              di2..!.         
```

#### Opcodes

```
  0: 0x0841 [0x42] SET_CLI_EVENT_CANCEL_DATA()
  1: 0x0842 [0x1A] CALL_SUBROUTINE(address=0x0064)
  2: 0x0845 [0x46] CAMERA_CONTROL: Disable user control
  3: 0x0847 [0x38] SET_CLIENT_EVENT_MODE(mode=147*)
  4: 0x084A [0x5D] SET_MUSIC_VOLUME(volume=0*, fade_time=300*)
  5: 0x084F [0x02] IF !(Work_Zone[9] == 0*) GOTO 0x085D
  6: 0x0857 [0x75] LOAD_ROOM(Load indoor room, room=405*)
  7: 0x085B [0x75] LOAD_ROOM(No action)
  8: 0x085D [0x92] Shantotto (ID: 17756186/0x010EF01A)->Render.Flags3 ^= 0x01
  9: 0x0863 [0x94] Shantotto (ID: 17756186/0x010EF01A)->Render.Flags3 ^= 0x01
 10: 0x0869 [0x94] LocalPlayer->Render.Flags3 ^= 0x01
 11: 0x086F [0xBA] SET_ENTITY_POSITION(entity_id=LocalPlayer, pos_x=121.767*, pos_z=111.829*, pos_y=-2.999*, direction=296.1°*)
 12: 0x087C [0x80] LOAD_WAIT(entity=Shantotto (ID: 17756186/0x010EF01A))
 13: 0x0881 [0x80] LOAD_WAIT(entity=LocalPlayer)
 14: 0x0886 [0x4A] Shantotto (ID: 17756186/0x010EF01A) looks at LocalPlayer
 15: 0x088F [0x4A] LocalPlayer looks at Shantotto (ID: 17756186/0x010EF01A)
 16: 0x0898 [0x6F] WAIT_FRAME_DELAY: Yield until WaitTime reaches zero
 17: 0x0899 [0x76] CHECK_ENTITY_RENDER_FLAGS: Wait until Shantotto (ID: 17756186/0x010EF01A) Render.Flags0 and Render.Flags3 conditions are met
 18: 0x089E [0x6F] WAIT_FRAME_DELAY: Yield until WaitTime reaches zero
 19: 0x089F [0x76] CHECK_ENTITY_RENDER_FLAGS: Wait until LocalPlayer Render.Flags0 and Render.Flags3 conditions are met
 20: 0x08A4 [0x5C] MUSIC_CONTROL: Set Idle (Day) music to song 123*
 21: 0x08A8 [0x5C] MUSIC_CONTROL: Set Idle (Night) music to song 123*
 22: 0x08AC [0x9A] WAIT_MUSIC_SERVER()
 23: 0x08AD [0x5D] SET_MUSIC_VOLUME(volume=127*, fade_time=1*)
 24: 0x08B2 [0x29] REQ_SET_WAIT(priority=0x08, entity_id=LocalPlayer, tag_num=0x05)
 25: 0x08B9 [0x29] REQ_SET_WAIT(priority=0x08, entity_id=Shantotto (ID: 17756186/0x010EF01A), tag_num=0x29)
 26: 0x08C0 [0x02] IF !(Work_Zone[9] == 3*) GOTO 0x08DC
 27: 0x08C8 [0x45] LOAD_SCHEDULED_TASK: Load scheduler "s025" with entities [EventEntity, EventEntity], work=[835*, 0*]
 28: 0x08D9 [0x01] GOTO 0x0925
 29: 0x08DC [0x02] IF !(Work_Zone[9] == 4*) GOTO 0x08F8
 30: 0x08E4 [0x45] LOAD_SCHEDULED_TASK: Load scheduler "s025" with entities [EventEntity, EventEntity], work=[835*, 0*]
 31: 0x08F5 [0x01] GOTO 0x0925
 32: 0x08F8 [0x02] IF !(Work_Zone[9] == 8*) GOTO 0x0914
 33: 0x0900 [0x45] LOAD_SCHEDULED_TASK: Load scheduler "s025" with entities [EventEntity, EventEntity], work=[835*, 0*]
 34: 0x0911 [0x01] GOTO 0x0925
 35: 0x0914 [0x45] LOAD_SCHEDULED_TASK: Load scheduler "s010" with entities [EventEntity, EventEntity], work=[835*, 0*]

SUBROUTINE_0925:
 36: 0x0925 [0x1A] CALL_SUBROUTINE(address=0x0043)
 37: 0x0928 [0x2B] Shantotto (ID: 17756186/0x010EF01A) [10979*]:
    → "Ohohohoho!"
 38: 0x092F [0x23] WAIT_FOR_DIALOG_INTERACTION
 39: 0x0930 [0x29] REQ_SET_WAIT(priority=0x08, entity_id=Shantotto (ID: 17756186/0x010EF01A), tag_num=0x2A)
 40: 0x0937 [0x02] IF !(Work_Zone[9] == 3*) GOTO 0x0951
 41: 0x093F [0x52] END_LOAD_SCHEDULER: End scheduler "s025" with entities [EventEntity, EventEntity], work=835*
 42: 0x094E [0x01] GOTO 0x0994
 43: 0x0951 [0x02] IF !(Work_Zone[9] == 4*) GOTO 0x096B
 44: 0x0959 [0x52] END_LOAD_SCHEDULER: End scheduler "s025" with entities [EventEntity, EventEntity], work=835*
 45: 0x0968 [0x01] GOTO 0x0994
 46: 0x096B [0x02] IF !(Work_Zone[9] == 8*) GOTO 0x0985
 47: 0x0973 [0x52] END_LOAD_SCHEDULER: End scheduler "s025" with entities [EventEntity, EventEntity], work=835*
 48: 0x0982 [0x01] GOTO 0x0994
 49: 0x0985 [0x52] END_LOAD_SCHEDULER: End scheduler "s010" with entities [EventEntity, EventEntity], work=835*

SUBROUTINE_0994:
 50: 0x0994 [0x45] LOAD_SCHEDULED_TASK: Load scheduler "s011" with entities [EventEntity, EventEntity], work=[835*, 0*]
 51: 0x09A5 [0x29] REQ_SET_WAIT(priority=0x08, entity_id=Shantotto (ID: 17756186/0x010EF01A), tag_num=0x01)
 52: 0x09AC [0x2B] Shantotto (ID: 17756186/0x010EF01A) [10980*]:
    → "Surely Kupipi has been taught a valuable lesson. That will teach her to rely less on her rolanberry delicatessen."
 53: 0x09B3 [0x23] WAIT_FOR_DIALOG_INTERACTION
 54: 0x09B4 [0x2B] Shantotto (ID: 17756186/0x010EF01A) [10981*]:
    → "Next time her cheeks are aflush with delicious fruit, I'll head to Heavens Tower and give her the boot."
 55: 0x09BB [0x23] WAIT_FOR_DIALOG_INTERACTION
 56: 0x09BC [0x29] REQ_SET_WAIT(priority=0x08, entity_id=Shantotto (ID: 17756186/0x010EF01A), tag_num=0x02)
 57: 0x09C3 [0x52] END_LOAD_SCHEDULER: End scheduler "s011" with entities [EventEntity, EventEntity], work=835*
 58: 0x09D2 [0x02] IF !(Work_Zone[9] == 3*) GOTO 0x09EE
 59: 0x09DA [0x45] LOAD_SCHEDULED_TASK: Load scheduler "s026" with entities [EventEntity, EventEntity], work=[835*, 0*]
 60: 0x09EB [0x01] GOTO 0x0A53
 61: 0x09EE [0x02] IF !(Work_Zone[9] == 5*) GOTO 0x0A0A
 62: 0x09F6 [0x45] LOAD_SCHEDULED_TASK: Load scheduler "s032" with entities [EventEntity, EventEntity], work=[835*, 0*]
 63: 0x0A07 [0x01] GOTO 0x0A53
 64: 0x0A0A [0x02] IF !(Work_Zone[9] == 6*) GOTO 0x0A26
 65: 0x0A12 [0x45] LOAD_SCHEDULED_TASK: Load scheduler "s032" with entities [EventEntity, EventEntity], work=[835*, 0*]
 66: 0x0A23 [0x01] GOTO 0x0A53
 67: 0x0A26 [0x02] IF !(Work_Zone[9] == 8*) GOTO 0x0A42
 68: 0x0A2E [0x45] LOAD_SCHEDULED_TASK: Load scheduler "s026" with entities [EventEntity, EventEntity], work=[835*, 0*]
 69: 0x0A3F [0x01] GOTO 0x0A53
 70: 0x0A42 [0x45] LOAD_SCHEDULED_TASK: Load scheduler "s012" with entities [EventEntity, EventEntity], work=[835*, 0*]

SUBROUTINE_0A53:
 71: 0x0A53 [0x2B] Shantotto (ID: 17756186/0x010EF01A) [10982*]:
    → "For should she choose to ignore me to pursue plant-based delights, she'll have no mouth left to speak with, for I'll set it alight."
 72: 0x0A5A [0x6E] Shantotto (ID: 17756186/0x010EF01A) uses emote 7*
 73: 0x0A61 [0x99] Wait for Shantotto (ID: 17756186/0x010EF01A) animation to complete
 74: 0x0A66 [0x1C] WAIT(40* ticks)
 75: 0x0A69 [0x23] WAIT_FOR_DIALOG_INTERACTION
 76: 0x0A6A [0x7B] Shantotto (ID: 17756186/0x010EF01A) stops talking
 77: 0x0A6F [0x29] REQ_SET_WAIT(priority=0x08, entity_id=Shantotto (ID: 17756186/0x010EF01A), tag_num=0x09)
 78: 0x0A76 [0x29] REQ_SET_WAIT(priority=0x08, entity_id=Shantotto (ID: 17756186/0x010EF01A), tag_num=0x0A)
 79: 0x0A7D [0x02] IF !(Work_Zone[9] == 3*) GOTO 0x0A97
 80: 0x0A85 [0x52] END_LOAD_SCHEDULER: End scheduler "s026" with entities [EventEntity, EventEntity], work=835*
 81: 0x0A94 [0x01] GOTO 0x0AF4
 82: 0x0A97 [0x02] IF !(Work_Zone[9] == 5*) GOTO 0x0AB1
 83: 0x0A9F [0x52] END_LOAD_SCHEDULER: End scheduler "s032" with entities [EventEntity, EventEntity], work=835*
 84: 0x0AAE [0x01] GOTO 0x0AF4
 85: 0x0AB1 [0x02] IF !(Work_Zone[9] == 6*) GOTO 0x0ACB
 86: 0x0AB9 [0x52] END_LOAD_SCHEDULER: End scheduler "s032" with entities [EventEntity, EventEntity], work=835*
 87: 0x0AC8 [0x01] GOTO 0x0AF4
 88: 0x0ACB [0x02] IF !(Work_Zone[9] == 8*) GOTO 0x0AE5
 89: 0x0AD3 [0x52] END_LOAD_SCHEDULER: End scheduler "s026" with entities [EventEntity, EventEntity], work=835*
 90: 0x0AE2 [0x01] GOTO 0x0AF4
 91: 0x0AE5 [0x52] END_LOAD_SCHEDULER: End scheduler "s012" with entities [EventEntity, EventEntity], work=835*

SUBROUTINE_0AF4:
 92: 0x0AF4 [0x02] IF !(Work_Zone[9] == 5*) GOTO 0x0B10
 93: 0x0AFC [0x45] LOAD_SCHEDULED_TASK: Load scheduler "s033" with entities [EventEntity, EventEntity], work=[835*, 0*]
 94: 0x0B0D [0x01] GOTO 0x0B3D
 95: 0x0B10 [0x02] IF !(Work_Zone[9] == 6*) GOTO 0x0B2C
 96: 0x0B18 [0x45] LOAD_SCHEDULED_TASK: Load scheduler "s033" with entities [EventEntity, EventEntity], work=[835*, 0*]
 97: 0x0B29 [0x01] GOTO 0x0B3D
 98: 0x0B2C [0x45] LOAD_SCHEDULED_TASK: Load scheduler "s013" with entities [EventEntity, EventEntity], work=[835*, 0*]

SUBROUTINE_0B3D:
 99: 0x0B3D [0x02] IF !(Work_Zone[9] == 8*) GOTO 0x0B4B
100: 0x0B45 [0x1C] WAIT(45* ticks)
101: 0x0B48 [0x01] GOTO 0x0B4E
102: 0x0B4B [0x1C] WAIT(30* ticks)

SUBROUTINE_0B4E:
103: 0x0B4E [0x29] REQ_SET_WAIT(priority=0x08, entity_id=Shantotto (ID: 17756186/0x010EF01A), tag_num=0xD9)
104: 0x0B55 [0x29] REQ_SET_WAIT(priority=0x08, entity_id=Shantotto (ID: 17756186/0x010EF01A), tag_num=0x03)
105: 0x0B5C [0x2B] Shantotto (ID: 17756186/0x010EF01A) [10983*]:
    → "But, adventurer, don't you agree that something's gone very wrong? It seems like everyone in Heavens Tower is a touch too far gone."
106: 0x0B63 [0x23] WAIT_FOR_DIALOG_INTERACTION
107: 0x0B64 [0x2B] Shantotto (ID: 17756186/0x010EF01A) [10984*]:
    → "It was an important day for the people who were there. How could they forget the truth you laid bare?"
108: 0x0B6B [0x23] WAIT_FOR_DIALOG_INTERACTION
109: 0x0B6C [0x29] REQ_SET_WAIT(priority=0x08, entity_id=Shantotto (ID: 17756186/0x010EF01A), tag_num=0x04)
110: 0x0B73 [0x29] REQ_SET_WAIT(priority=0x08, entity_id=Shantotto (ID: 17756186/0x010EF01A), tag_num=0x05)
111: 0x0B7A [0x29] REQ_SET_WAIT(priority=0x08, entity_id=Shantotto (ID: 17756186/0x010EF01A), tag_num=0x06)
112: 0x0B81 [0x02] IF !(Work_Zone[9] == 5*) GOTO 0x0B9B
113: 0x0B89 [0x52] END_LOAD_SCHEDULER: End scheduler "s033" with entities [EventEntity, EventEntity], work=835*
114: 0x0B98 [0x01] GOTO 0x0BC4
115: 0x0B9B [0x02] IF !(Work_Zone[9] == 6*) GOTO 0x0BB5
116: 0x0BA3 [0x52] END_LOAD_SCHEDULER: End scheduler "s033" with entities [EventEntity, EventEntity], work=835*
117: 0x0BB2 [0x01] GOTO 0x0BC4
118: 0x0BB5 [0x52] END_LOAD_SCHEDULER: End scheduler "s013" with entities [EventEntity, EventEntity], work=835*

SUBROUTINE_0BC4:
119: 0x0BC4 [0x45] LOAD_SCHEDULED_TASK: Load scheduler "s014" with entities [EventEntity, EventEntity], work=[835*, 0*]
120: 0x0BD5 [0x4B] UPDATE_ENTITY_YAW(entity=Shantotto (ID: 17756186/0x010EF01A), yaw=5.2°*)
121: 0x0BDC [0x02] IF !(Work_Zone[9] == 8*) GOTO 0x0BF1
122: 0x0BE4 [0x79] Shantotto (ID: 17756186/0x010EF01A) looks at Unknown NPC (ID: 2147582008/0x80018038) (Direct axis set)
123: 0x0BEE [0x01] GOTO 0x0BFB
124: 0x0BF1 [0x79] Shantotto (ID: 17756186/0x010EF01A) looks at LocalPlayer (Basic look)

SUBROUTINE_0BFB:
125: 0x0BFB [0x2B] Shantotto (ID: 17756186/0x010EF01A) [10985*]:
    → "It certainly does give one like me pause. It's not like they signed a non-disparagement clause."
126: 0x0C02 [0x23] WAIT_FOR_DIALOG_INTERACTION
127: 0x0C03 [0x6F] WAIT_FRAME_DELAY: Yield until WaitTime reaches zero
128: 0x0C04 [0x76] CHECK_ENTITY_RENDER_FLAGS: Wait until Shantotto (ID: 17756186/0x010EF01A) Render.Flags0 and Render.Flags3 conditions are met
129: 0x0C09 [0x52] END_LOAD_SCHEDULER: End scheduler "s014" with entities [EventEntity, EventEntity], work=835*
130: 0x0C18 [0x45] LOAD_SCHEDULED_TASK: Load scheduler "s015" with entities [EventEntity, EventEntity], work=[835*, 0*]
131: 0x0C29 [0x4A] LocalPlayer looks at Shantotto (ID: 17756186/0x010EF01A)
132: 0x0C32 [0x29] REQ_SET_WAIT(priority=0x08, entity_id=Shantotto (ID: 17756186/0x010EF01A), tag_num=0x09)
133: 0x0C39 [0x2B] Shantotto (ID: 17756186/0x010EF01A) [10986*]:
    → "No, the cause of this is something far more sinister. I would swear to it as a former minister."
134: 0x0C40 [0x23] WAIT_FOR_DIALOG_INTERACTION
135: 0x0C41 [0x29] REQ_SET_WAIT(priority=0x08, entity_id=Shantotto (ID: 17756186/0x010EF01A), tag_num=0x0A)
136: 0x0C48 [0x6F] WAIT_FRAME_DELAY: Yield until WaitTime reaches zero
137: 0x0C49 [0x76] CHECK_ENTITY_RENDER_FLAGS: Wait until LocalPlayer Render.Flags0 and Render.Flags3 conditions are met
138: 0x0C4E [0x52] END_LOAD_SCHEDULER: End scheduler "s015" with entities [EventEntity, EventEntity], work=835*
139: 0x0C5D [0x02] IF !(Work_Zone[9] == 3*) GOTO 0x0C79
140: 0x0C65 [0x45] LOAD_SCHEDULED_TASK: Load scheduler "s027" with entities [EventEntity, EventEntity], work=[835*, 0*]
141: 0x0C76 [0x01] GOTO 0x0CC2
142: 0x0C79 [0x02] IF !(Work_Zone[9] == 4*) GOTO 0x0C95
143: 0x0C81 [0x45] LOAD_SCHEDULED_TASK: Load scheduler "s027" with entities [EventEntity, EventEntity], work=[835*, 0*]
144: 0x0C92 [0x01] GOTO 0x0CC2
145: 0x0C95 [0x02] IF !(Work_Zone[9] == 8*) GOTO 0x0CB1
146: 0x0C9D [0x45] LOAD_SCHEDULED_TASK: Load scheduler "s027" with entities [EventEntity, EventEntity], work=[835*, 0*]
147: 0x0CAE [0x01] GOTO 0x0CC2
148: 0x0CB1 [0x45] LOAD_SCHEDULED_TASK: Load scheduler "s016" with entities [EventEntity, EventEntity], work=[835*, 0*]

SUBROUTINE_0CC2:
149: 0x0CC2 [0x27] REQ_SET(priority=0x08, entity_id=Shantotto (ID: 17756186/0x010EF01A), tag_num=0xDA)
150: 0x0CC9 [0x2B] Shantotto (ID: 17756186/0x010EF01A) [10987*]:
    → "I believe the one who should investigate is you. You have quite the knack for picking up clues."
151: 0x0CD0 [0x23] WAIT_FOR_DIALOG_INTERACTION
152: 0x0CD1 [0x2A] GET_REQ_LEVEL(level=8, entity_id=Shantotto (ID: 17756186/0x010EF01A))
153: 0x0CD7 [0x24] CREATE_DIALOG(message_id=10988*, default_option=0*, option_flags=0*)
    → "How do you respond? [Who? Me?/What should I do?/I think it's your fault.]"
154: 0x0CDE [0x25] WAIT_DIALOG_SELECT()
155: 0x0CDF [0x02] IF !(Work_Zone[0] == 0*) GOTO 0x0F23
156: 0x0CE7 [0x02] IF !(Work_Zone[9] == 3*) GOTO 0x0D01
157: 0x0CEF [0x52] END_LOAD_SCHEDULER: End scheduler "s027" with entities [EventEntity, EventEntity], work=835*
158: 0x0CFE [0x01] GOTO 0x0D44
159: 0x0D01 [0x02] IF !(Work_Zone[9] == 4*) GOTO 0x0D1B
160: 0x0D09 [0x52] END_LOAD_SCHEDULER: End scheduler "s027" with entities [EventEntity, EventEntity], work=835*
161: 0x0D18 [0x01] GOTO 0x0D44
162: 0x0D1B [0x02] IF !(Work_Zone[9] == 8*) GOTO 0x0D35
163: 0x0D23 [0x52] END_LOAD_SCHEDULER: End scheduler "s027" with entities [EventEntity, EventEntity], work=835*
164: 0x0D32 [0x01] GOTO 0x0D44
165: 0x0D35 [0x52] END_LOAD_SCHEDULER: End scheduler "s016" with entities [EventEntity, EventEntity], work=835*

SUBROUTINE_0D44:
166: 0x0D44 [0x02] IF !(Work_Zone[9] == 3*) GOTO 0x0D60
167: 0x0D4C [0x45] LOAD_SCHEDULED_TASK: Load scheduler "s028" with entities [EventEntity, EventEntity], work=[835*, 0*]
168: 0x0D5D [0x01] GOTO 0x0DC5
169: 0x0D60 [0x02] IF !(Work_Zone[9] == 5*) GOTO 0x0D7C
170: 0x0D68 [0x45] LOAD_SCHEDULED_TASK: Load scheduler "s034" with entities [EventEntity, EventEntity], work=[835*, 0*]
171: 0x0D79 [0x01] GOTO 0x0DC5
172: 0x0D7C [0x02] IF !(Work_Zone[9] == 6*) GOTO 0x0D98
173: 0x0D84 [0x45] LOAD_SCHEDULED_TASK: Load scheduler "s034" with entities [EventEntity, EventEntity], work=[835*, 0*]
174: 0x0D95 [0x01] GOTO 0x0DC5
175: 0x0D98 [0x02] IF !(Work_Zone[9] == 8*) GOTO 0x0DB4
176: 0x0DA0 [0x45] LOAD_SCHEDULED_TASK: Load scheduler "s028" with entities [EventEntity, EventEntity], work=[835*, 0*]
177: 0x0DB1 [0x01] GOTO 0x0DC5
178: 0x0DB4 [0x45] LOAD_SCHEDULED_TASK: Load scheduler "s017" with entities [EventEntity, EventEntity], work=[835*, 0*]

SUBROUTINE_0DC5:
179: 0x0DC5 [0x7B] Shantotto (ID: 17756186/0x010EF01A) stops talking
180: 0x0DCA [0x29] REQ_SET_WAIT(priority=0x08, entity_id=Shantotto (ID: 17756186/0x010EF01A), tag_num=0x03)
181: 0x0DD1 [0x2B] Shantotto (ID: 17756186/0x010EF01A) [10989*]:
    → "Please at least pretend to pay attention. Or I might perform experiments on you too heinous to mention."
182: 0x0DD8 [0x23] WAIT_FOR_DIALOG_INTERACTION
183: 0x0DD9 [0x29] REQ_SET_WAIT(priority=0x08, entity_id=Shantotto (ID: 17756186/0x010EF01A), tag_num=0x04)
184: 0x0DE0 [0x6E] LocalPlayer uses emote 6*
185: 0x0DE7 [0x99] Wait for LocalPlayer animation to complete
186: 0x0DEC [0x1C] WAIT(60* ticks)
187: 0x0DEF [0x29] REQ_SET_WAIT(priority=0x08, entity_id=Shantotto (ID: 17756186/0x010EF01A), tag_num=0x05)
188: 0x0DF6 [0x29] REQ_SET_WAIT(priority=0x08, entity_id=Shantotto (ID: 17756186/0x010EF01A), tag_num=0x06)
189: 0x0DFD [0x79] Shantotto (ID: 17756186/0x010EF01A) looks at LocalPlayer (Basic look)
190: 0x0E07 [0x02] IF !(Work_Zone[9] == 3*) GOTO 0x0E21
191: 0x0E0F [0x52] END_LOAD_SCHEDULER: End scheduler "s028" with entities [EventEntity, EventEntity], work=835*
192: 0x0E1E [0x01] GOTO 0x0E7E
193: 0x0E21 [0x02] IF !(Work_Zone[9] == 5*) GOTO 0x0E3B
194: 0x0E29 [0x52] END_LOAD_SCHEDULER: End scheduler "s034" with entities [EventEntity, EventEntity], work=835*
195: 0x0E38 [0x01] GOTO 0x0E7E
196: 0x0E3B [0x02] IF !(Work_Zone[9] == 6*) GOTO 0x0E55
197: 0x0E43 [0x52] END_LOAD_SCHEDULER: End scheduler "s034" with entities [EventEntity, EventEntity], work=835*
198: 0x0E52 [0x01] GOTO 0x0E7E
199: 0x0E55 [0x02] IF !(Work_Zone[9] == 8*) GOTO 0x0E6F
200: 0x0E5D [0x52] END_LOAD_SCHEDULER: End scheduler "s028" with entities [EventEntity, EventEntity], work=835*
201: 0x0E6C [0x01] GOTO 0x0E7E
202: 0x0E6F [0x52] END_LOAD_SCHEDULER: End scheduler "s017" with entities [EventEntity, EventEntity], work=835*

SUBROUTINE_0E7E:
203: 0x0E7E [0x02] IF !(Work_Zone[9] == 5*) GOTO 0x0E9A
204: 0x0E86 [0x45] LOAD_SCHEDULED_TASK: Load scheduler "s035" with entities [EventEntity, EventEntity], work=[835*, 0*]
205: 0x0E97 [0x01] GOTO 0x0EC7
206: 0x0E9A [0x02] IF !(Work_Zone[9] == 6*) GOTO 0x0EB6
207: 0x0EA2 [0x45] LOAD_SCHEDULED_TASK: Load scheduler "s035" with entities [EventEntity, EventEntity], work=[835*, 0*]
208: 0x0EB3 [0x01] GOTO 0x0EC7
209: 0x0EB6 [0x45] LOAD_SCHEDULED_TASK: Load scheduler "s018" with entities [EventEntity, EventEntity], work=[835*, 0*]

SUBROUTINE_0EC7:
210: 0x0EC7 [0x29] REQ_SET_WAIT(priority=0x08, entity_id=Shantotto (ID: 17756186/0x010EF01A), tag_num=0x0B)
211: 0x0ECE [0x2B] Shantotto (ID: 17756186/0x010EF01A) [10990*]:
    → "Stop looking askance and head to Heavens Tower. Unless, of course, you enjoy making me glower."
212: 0x0ED5 [0x23] WAIT_FOR_DIALOG_INTERACTION
213: 0x0ED6 [0x29] REQ_SET_WAIT(priority=0x08, entity_id=Shantotto (ID: 17756186/0x010EF01A), tag_num=0x0C)
214: 0x0EDD [0x02] IF !(Work_Zone[9] == 5*) GOTO 0x0EF7
215: 0x0EE5 [0x52] END_LOAD_SCHEDULER: End scheduler "s035" with entities [EventEntity, EventEntity], work=835*
216: 0x0EF4 [0x01] GOTO 0x0F20
217: 0x0EF7 [0x02] IF !(Work_Zone[9] == 6*) GOTO 0x0F11
218: 0x0EFF [0x52] END_LOAD_SCHEDULER: End scheduler "s035" with entities [EventEntity, EventEntity], work=835*
219: 0x0F0E [0x01] GOTO 0x0F20
220: 0x0F11 [0x52] END_LOAD_SCHEDULER: End scheduler "s018" with entities [EventEntity, EventEntity], work=835*

SUBROUTINE_0F20:
221: 0x0F20 [0x01] GOTO 0x15F9
222: 0x0F23 [0x02] IF !(Work_Zone[0] == 1*) GOTO 0x117F
223: 0x0F2B [0x29] REQ_SET_WAIT(priority=0x08, entity_id=LocalPlayer, tag_num=0x7C)
224: 0x0F32 [0x02] IF !(Work_Zone[9] == 3*) GOTO 0x0F4C
225: 0x0F3A [0x52] END_LOAD_SCHEDULER: End scheduler "s027" with entities [EventEntity, EventEntity], work=835*
226: 0x0F49 [0x01] GOTO 0x0F8F
227: 0x0F4C [0x02] IF !(Work_Zone[9] == 4*) GOTO 0x0F66
228: 0x0F54 [0x52] END_LOAD_SCHEDULER: End scheduler "s027" with entities [EventEntity, EventEntity], work=835*
229: 0x0F63 [0x01] GOTO 0x0F8F
230: 0x0F66 [0x02] IF !(Work_Zone[9] == 8*) GOTO 0x0F80
231: 0x0F6E [0x52] END_LOAD_SCHEDULER: End scheduler "s027" with entities [EventEntity, EventEntity], work=835*
232: 0x0F7D [0x01] GOTO 0x0F8F
233: 0x0F80 [0x52] END_LOAD_SCHEDULER: End scheduler "s016" with entities [EventEntity, EventEntity], work=835*

SUBROUTINE_0F8F:
234: 0x0F8F [0x02] IF !(Work_Zone[9] == 3*) GOTO 0x0FAB
235: 0x0F97 [0x45] LOAD_SCHEDULED_TASK: Load scheduler "s028" with entities [EventEntity, EventEntity], work=[835*, 0*]
236: 0x0FA8 [0x01] GOTO 0x1010
237: 0x0FAB [0x02] IF !(Work_Zone[9] == 5*) GOTO 0x0FC7
238: 0x0FB3 [0x45] LOAD_SCHEDULED_TASK: Load scheduler "s034" with entities [EventEntity, EventEntity], work=[835*, 0*]
239: 0x0FC4 [0x01] GOTO 0x1010
240: 0x0FC7 [0x02] IF !(Work_Zone[9] == 6*) GOTO 0x0FE3
241: 0x0FCF [0x45] LOAD_SCHEDULED_TASK: Load scheduler "s034" with entities [EventEntity, EventEntity], work=[835*, 0*]
242: 0x0FE0 [0x01] GOTO 0x1010
243: 0x0FE3 [0x02] IF !(Work_Zone[9] == 8*) GOTO 0x0FFF
244: 0x0FEB [0x45] LOAD_SCHEDULED_TASK: Load scheduler "s028" with entities [EventEntity, EventEntity], work=[835*, 0*]
245: 0x0FFC [0x01] GOTO 0x1010
246: 0x0FFF [0x45] LOAD_SCHEDULED_TASK: Load scheduler "s017" with entities [EventEntity, EventEntity], work=[835*, 0*]

SUBROUTINE_1010:
247: 0x1010 [0x29] REQ_SET_WAIT(priority=0x08, entity_id=Shantotto (ID: 17756186/0x010EF01A), tag_num=0x1D)
248: 0x1017 [0x2B] Shantotto (ID: 17756186/0x010EF01A) [10991*]:
    → "Return to the scene and learn all you can. Maybe we can figure out where the true culprit ran."
249: 0x101E [0x23] WAIT_FOR_DIALOG_INTERACTION
250: 0x101F [0x29] REQ_SET_WAIT(priority=0x08, entity_id=Shantotto (ID: 17756186/0x010EF01A), tag_num=0x1E)
251: 0x1026 [0x7B] Shantotto (ID: 17756186/0x010EF01A) stops talking
252: 0x102B [0x29] REQ_SET_WAIT(priority=0x08, entity_id=Shantotto (ID: 17756186/0x010EF01A), tag_num=0x03)
253: 0x1032 [0x1C] WAIT(30* ticks)
254: 0x1035 [0x2B] Shantotto (ID: 17756186/0x010EF01A) [10992*]:
    → "They say the criminal always returns to the scene of the crime. Now hurry up, before we run out of time."
255: 0x103C [0x23] WAIT_FOR_DIALOG_INTERACTION
256: 0x103D [0x29] REQ_SET_WAIT(priority=0x08, entity_id=Shantotto (ID: 17756186/0x010EF01A), tag_num=0x04)
257: 0x1044 [0x02] IF !(Work_Zone[9] == 3*) GOTO 0x105E
258: 0x104C [0x52] END_LOAD_SCHEDULER: End scheduler "s028" with entities [EventEntity, EventEntity], work=835*
259: 0x105B [0x01] GOTO 0x10BB
260: 0x105E [0x02] IF !(Work_Zone[9] == 5*) GOTO 0x1078
261: 0x1066 [0x52] END_LOAD_SCHEDULER: End scheduler "s034" with entities [EventEntity, EventEntity], work=835*
262: 0x1075 [0x01] GOTO 0x10BB
263: 0x1078 [0x02] IF !(Work_Zone[9] == 6*) GOTO 0x1092
264: 0x1080 [0x52] END_LOAD_SCHEDULER: End scheduler "s034" with entities [EventEntity, EventEntity], work=835*
265: 0x108F [0x01] GOTO 0x10BB
266: 0x1092 [0x02] IF !(Work_Zone[9] == 8*) GOTO 0x10AC
267: 0x109A [0x52] END_LOAD_SCHEDULER: End scheduler "s028" with entities [EventEntity, EventEntity], work=835*
268: 0x10A9 [0x01] GOTO 0x10BB
269: 0x10AC [0x52] END_LOAD_SCHEDULER: End scheduler "s017" with entities [EventEntity, EventEntity], work=835*

SUBROUTINE_10BB:
270: 0x10BB [0x02] IF !(Work_Zone[9] == 5*) GOTO 0x10D7
271: 0x10C3 [0x45] LOAD_SCHEDULED_TASK: Load scheduler "s035" with entities [EventEntity, EventEntity], work=[835*, 0*]
272: 0x10D4 [0x01] GOTO 0x1104
273: 0x10D7 [0x02] IF !(Work_Zone[9] == 6*) GOTO 0x10F3
274: 0x10DF [0x45] LOAD_SCHEDULED_TASK: Load scheduler "s035" with entities [EventEntity, EventEntity], work=[835*, 0*]
275: 0x10F0 [0x01] GOTO 0x1104
276: 0x10F3 [0x45] LOAD_SCHEDULED_TASK: Load scheduler "s018" with entities [EventEntity, EventEntity], work=[835*, 0*]

SUBROUTINE_1104:
277: 0x1104 [0x29] REQ_SET_WAIT(priority=0x08, entity_id=Shantotto (ID: 17756186/0x010EF01A), tag_num=0x05)
278: 0x110B [0x02] IF !(Work_Zone[9] == 8*) GOTO 0x1120
279: 0x1113 [0x79] Shantotto (ID: 17756186/0x010EF01A) looks at Unknown NPC (ID: 2147582018/0x80018042) (Direct axis set)
280: 0x111D [0x01] GOTO 0x112A
281: 0x1120 [0x79] Shantotto (ID: 17756186/0x010EF01A) looks at LocalPlayer (Basic look)

SUBROUTINE_112A:
282: 0x112A [0x2B] Shantotto (ID: 17756186/0x010EF01A) [10993*]:
    → "So enough with the dawdling and head over there. You've a mystery to solve--after that, we'll be square."
283: 0x1131 [0x23] WAIT_FOR_DIALOG_INTERACTION
284: 0x1132 [0x29] REQ_SET_WAIT(priority=0x08, entity_id=Shantotto (ID: 17756186/0x010EF01A), tag_num=0x06)
285: 0x1139 [0x02] IF !(Work_Zone[9] == 5*) GOTO 0x1153
286: 0x1141 [0x52] END_LOAD_SCHEDULER: End scheduler "s035" with entities [EventEntity, EventEntity], work=835*
287: 0x1150 [0x01] GOTO 0x117C
288: 0x1153 [0x02] IF !(Work_Zone[9] == 6*) GOTO 0x116D
289: 0x115B [0x52] END_LOAD_SCHEDULER: End scheduler "s035" with entities [EventEntity, EventEntity], work=835*
290: 0x116A [0x01] GOTO 0x117C
291: 0x116D [0x52] END_LOAD_SCHEDULER: End scheduler "s018" with entities [EventEntity, EventEntity], work=835*

SUBROUTINE_117C:
292: 0x117C [0x01] GOTO 0x15F9
293: 0x117F [0x02] IF !(Work_Zone[0] == 2*) GOTO 0x15F9
294: 0x1187 [0x02] IF !(Work_Zone[9] == 8*) GOTO 0x1199
295: 0x118F [0x79] Shantotto (ID: 17756186/0x010EF01A) looks at Unknown NPC (ID: 2147582018/0x80018042) (Direct axis set)
296: 0x1199 [0x29] REQ_SET_WAIT(priority=0x08, entity_id=LocalPlayer, tag_num=0x7C)
297: 0x11A0 [0x02] IF !(Work_Zone[9] == 3*) GOTO 0x11BA
298: 0x11A8 [0x52] END_LOAD_SCHEDULER: End scheduler "s027" with entities [EventEntity, EventEntity], work=835*
299: 0x11B7 [0x01] GOTO 0x11FD
300: 0x11BA [0x02] IF !(Work_Zone[9] == 4*) GOTO 0x11D4
301: 0x11C2 [0x52] END_LOAD_SCHEDULER: End scheduler "s027" with entities [EventEntity, EventEntity], work=835*
302: 0x11D1 [0x01] GOTO 0x11FD
303: 0x11D4 [0x02] IF !(Work_Zone[9] == 8*) GOTO 0x11EE
304: 0x11DC [0x52] END_LOAD_SCHEDULER: End scheduler "s027" with entities [EventEntity, EventEntity], work=835*
305: 0x11EB [0x01] GOTO 0x11FD
306: 0x11EE [0x52] END_LOAD_SCHEDULER: End scheduler "s016" with entities [EventEntity, EventEntity], work=835*

SUBROUTINE_11FD:
307: 0x11FD [0x02] IF !(Work_Zone[9] == 3*) GOTO 0x1219
308: 0x1205 [0x45] LOAD_SCHEDULED_TASK: Load scheduler "s028" with entities [EventEntity, EventEntity], work=[835*, 0*]
309: 0x1216 [0x01] GOTO 0x127E
310: 0x1219 [0x02] IF !(Work_Zone[9] == 5*) GOTO 0x1235
311: 0x1221 [0x45] LOAD_SCHEDULED_TASK: Load scheduler "s034" with entities [EventEntity, EventEntity], work=[835*, 0*]
312: 0x1232 [0x01] GOTO 0x127E
313: 0x1235 [0x02] IF !(Work_Zone[9] == 6*) GOTO 0x1251
314: 0x123D [0x45] LOAD_SCHEDULED_TASK: Load scheduler "s034" with entities [EventEntity, EventEntity], work=[835*, 0*]
315: 0x124E [0x01] GOTO 0x127E
316: 0x1251 [0x02] IF !(Work_Zone[9] == 8*) GOTO 0x126D
317: 0x1259 [0x45] LOAD_SCHEDULED_TASK: Load scheduler "s028" with entities [EventEntity, EventEntity], work=[835*, 0*]
318: 0x126A [0x01] GOTO 0x127E
319: 0x126D [0x45] LOAD_SCHEDULED_TASK: Load scheduler "s017" with entities [EventEntity, EventEntity], work=[835*, 0*]

SUBROUTINE_127E:
320: 0x127E [0x5D] SET_MUSIC_VOLUME(volume=0*, fade_time=300*)
321: 0x1283 [0x1C] WAIT(150* ticks)
322: 0x1286 [0x02] IF !(Work_Zone[9] == 3*) GOTO 0x12A0
323: 0x128E [0x52] END_LOAD_SCHEDULER: End scheduler "s028" with entities [EventEntity, EventEntity], work=835*
324: 0x129D [0x01] GOTO 0x12FD
325: 0x12A0 [0x02] IF !(Work_Zone[9] == 5*) GOTO 0x12BA
326: 0x12A8 [0x52] END_LOAD_SCHEDULER: End scheduler "s034" with entities [EventEntity, EventEntity], work=835*
327: 0x12B7 [0x01] GOTO 0x12FD
328: 0x12BA [0x02] IF !(Work_Zone[9] == 6*) GOTO 0x12D4
329: 0x12C2 [0x52] END_LOAD_SCHEDULER: End scheduler "s034" with entities [EventEntity, EventEntity], work=835*
330: 0x12D1 [0x01] GOTO 0x12FD
331: 0x12D4 [0x02] IF !(Work_Zone[9] == 8*) GOTO 0x12EE
332: 0x12DC [0x52] END_LOAD_SCHEDULER: End scheduler "s028" with entities [EventEntity, EventEntity], work=835*
333: 0x12EB [0x01] GOTO 0x12FD
334: 0x12EE [0x52] END_LOAD_SCHEDULER: End scheduler "s017" with entities [EventEntity, EventEntity], work=835*

SUBROUTINE_12FD:
335: 0x12FD [0x45] LOAD_SCHEDULED_TASK: Load scheduler "s021" with entities [EventEntity, EventEntity], work=[835*, 0*]
336: 0x130E [0x1C] WAIT(40* ticks)
337: 0x1311 [0x2B] Shantotto (ID: 17756186/0x010EF01A) [10994*]:
    → "I sense a frightful disturbance at the center of all this. Surely, you too know that something's amiss."
338: 0x1318 [0x23] WAIT_FOR_DIALOG_INTERACTION
339: 0x1319 [0x52] END_LOAD_SCHEDULER: End scheduler "s021" with entities [EventEntity, EventEntity], work=835*
340: 0x1328 [0x45] LOAD_SCHEDULED_TASK: Load scheduler "s023" with entities [EventEntity, EventEntity], work=[835*, 0*]
341: 0x1339 [0x1C] WAIT(30* ticks)
342: 0x133C [0x2B] Shantotto (ID: 17756186/0x010EF01A) [10995*]:
    → "If we are to confront the evil that threatens us all, everyone must do their part--big or small."
343: 0x1343 [0x23] WAIT_FOR_DIALOG_INTERACTION
344: 0x1344 [0x52] END_LOAD_SCHEDULER: End scheduler "s023" with entities [EventEntity, EventEntity], work=835*
345: 0x1353 [0x02] IF !(Work_Zone[9] == 3*) GOTO 0x136F
346: 0x135B [0x45] LOAD_SCHEDULED_TASK: Load scheduler "s029" with entities [EventEntity, EventEntity], work=[835*, 0*]
347: 0x136C [0x01] GOTO 0x13F0
348: 0x136F [0x02] IF !(Work_Zone[9] == 4*) GOTO 0x138B
349: 0x1377 [0x45] LOAD_SCHEDULED_TASK: Load scheduler "s029" with entities [EventEntity, EventEntity], work=[835*, 0*]
350: 0x1388 [0x01] GOTO 0x13F0
351: 0x138B [0x02] IF !(Work_Zone[9] == 5*) GOTO 0x13A7
352: 0x1393 [0x45] LOAD_SCHEDULED_TASK: Load scheduler "s036" with entities [EventEntity, EventEntity], work=[835*, 0*]
353: 0x13A4 [0x01] GOTO 0x13F0
354: 0x13A7 [0x02] IF !(Work_Zone[9] == 6*) GOTO 0x13C3
355: 0x13AF [0x45] LOAD_SCHEDULED_TASK: Load scheduler "s036" with entities [EventEntity, EventEntity], work=[835*, 0*]
356: 0x13C0 [0x01] GOTO 0x13F0
357: 0x13C3 [0x02] IF !(Work_Zone[9] == 8*) GOTO 0x13DF
358: 0x13CB [0x45] LOAD_SCHEDULED_TASK: Load scheduler "s029" with entities [EventEntity, EventEntity], work=[835*, 0*]
359: 0x13DC [0x01] GOTO 0x13F0
360: 0x13DF [0x45] LOAD_SCHEDULED_TASK: Load scheduler "s022" with entities [EventEntity, EventEntity], work=[835*, 0*]

SUBROUTINE_13F0:
361: 0x13F0 [0x2B] Shantotto (ID: 17756186/0x010EF01A) [10996*]:
    → "So focus on your task and stop blaming me. Unless, of course, you'd prefer to be cast out to sea."
362: 0x13F7 [0x6E] Shantotto (ID: 17756186/0x010EF01A) uses emote 7*
363: 0x13FE [0x99] Wait for Shantotto (ID: 17756186/0x010EF01A) animation to complete
364: 0x1403 [0x1C] WAIT(40* ticks)
365: 0x1406 [0x23] WAIT_FOR_DIALOG_INTERACTION
366: 0x1407 [0x02] IF !(Work_Zone[9] == 3*) GOTO 0x1421
367: 0x140F [0x52] END_LOAD_SCHEDULER: End scheduler "s029" with entities [EventEntity, EventEntity], work=835*
368: 0x141E [0x01] GOTO 0x1498
369: 0x1421 [0x02] IF !(Work_Zone[9] == 4*) GOTO 0x143B
370: 0x1429 [0x52] END_LOAD_SCHEDULER: End scheduler "s029" with entities [EventEntity, EventEntity], work=835*
371: 0x1438 [0x01] GOTO 0x1498
372: 0x143B [0x02] IF !(Work_Zone[9] == 5*) GOTO 0x1455
373: 0x1443 [0x52] END_LOAD_SCHEDULER: End scheduler "s036" with entities [EventEntity, EventEntity], work=835*
374: 0x1452 [0x01] GOTO 0x1498
375: 0x1455 [0x02] IF !(Work_Zone[9] == 6*) GOTO 0x146F
376: 0x145D [0x52] END_LOAD_SCHEDULER: End scheduler "s036" with entities [EventEntity, EventEntity], work=835*
377: 0x146C [0x01] GOTO 0x1498
378: 0x146F [0x02] IF !(Work_Zone[9] == 8*) GOTO 0x1489
379: 0x1477 [0x52] END_LOAD_SCHEDULER: End scheduler "s029" with entities [EventEntity, EventEntity], work=835*
380: 0x1486 [0x01] GOTO 0x1498
381: 0x1489 [0x52] END_LOAD_SCHEDULER: End scheduler "s022" with entities [EventEntity, EventEntity], work=835*

SUBROUTINE_1498:
382: 0x1498 [0x02] IF !(Work_Zone[9] == 3*) GOTO 0x14B4
383: 0x14A0 [0x45] LOAD_SCHEDULED_TASK: Load scheduler "s031" with entities [EventEntity, EventEntity], work=[835*, 0*]
384: 0x14B1 [0x01] GOTO 0x14E1
385: 0x14B4 [0x02] IF !(Work_Zone[9] == 8*) GOTO 0x14D0
386: 0x14BC [0x45] LOAD_SCHEDULED_TASK: Load scheduler "s031" with entities [EventEntity, EventEntity], work=[835*, 0*]
387: 0x14CD [0x01] GOTO 0x14E1
388: 0x14D0 [0x45] LOAD_SCHEDULED_TASK: Load scheduler "s024" with entities [EventEntity, EventEntity], work=[835*, 0*]

SUBROUTINE_14E1:
389: 0x14E1 [0x5D] SET_MUSIC_VOLUME(volume=127*, fade_time=300*)
390: 0x14E6 [0x29] REQ_SET_WAIT(priority=0x08, entity_id=Shantotto (ID: 17756186/0x010EF01A), tag_num=0x29)
391: 0x14ED [0x2B] Shantotto (ID: 17756186/0x010EF01A) [10997*]:
    → "There's a price to be paid if we don't discover the truth. And if that price is your head, I shall offer it up forsooth."
