# 0x7FFFFFF0 - Zone Events

## Common Data

| Field            | Value                    |
|------------------|--------------------------|
| Zone             | Windurst Walls (ID: 239) |
| Block Size       | 4124 bytes               |
| Total Events     | 132                      |
| References Count | 360                      |

## List of Events

| Event ID                     | Entrypoint   |   Size |   Instructions |
|------------------------------|--------------|--------|----------------|
| [65535](#event-65535)        | 0x0000       |      1 |              1 |
| [65535.1](#event-655351)     | 0x0001       |     10 |              2 |
| [65534](#event-65534)        | 0x000B       |      1 |              1 |
| [65535.2](#event-655352)     | 0x000C       |      6 |              2 |
| [65535.3](#event-655353)     | 0x0012       |      6 |              2 |
| [65535.4](#event-655354)     | 0x0018       |      6 |              2 |
| [65535.5](#event-655355)     | 0x001E       |      6 |              2 |
| [65535.6](#event-655356)     | 0x0024       |      1 |              1 |
| [1](#event-1)                | 0x0025       |      1 |              1 |
| [65535.7](#event-655357)     | 0x0026       |     13 |              3 |
| [65535.8](#event-655358)     | 0x0033       |     13 |              3 |
| [31](#event-31)              | 0x0040       |      1 |              1 |
| [32](#event-32)              | 0x0041       |      1 |              1 |
| [33](#event-33)              | 0x0042       |      1 |              1 |
| [34](#event-34)              | 0x0043       |      1 |              1 |
| [35](#event-35)              | 0x0044       |      1 |              1 |
| [36](#event-36)              | 0x0045       |      1 |              1 |
| [37](#event-37)              | 0x0046       |      1 |              1 |
| [38](#event-38)              | 0x0047       |      1 |              1 |
| [39](#event-39)              | 0x0048       |      1 |              1 |
| [40](#event-40)              | 0x0049       |      1 |              1 |
| [65535.9](#event-655359)     | 0x004A       |     13 |              3 |
| [65535.10](#event-6553510)   | 0x0057       |     13 |              3 |
| [65535.11](#event-6553511)   | 0x0064       |     13 |              3 |
| [65535.12](#event-6553512)   | 0x0071       |     13 |              3 |
| [65535.13](#event-6553513)   | 0x007E       |     13 |              3 |
| [65535.14](#event-6553514)   | 0x008B       |     13 |              3 |
| [65535.15](#event-6553515)   | 0x0098       |     13 |              3 |
| [65535.16](#event-6553516)   | 0x00A5       |     13 |              3 |
| [65535.17](#event-6553517)   | 0x00B2       |     13 |              3 |
| [65535.18](#event-6553518)   | 0x00BF       |     13 |              3 |
| [65535.19](#event-6553519)   | 0x00CC       |     10 |              2 |
| [65535.20](#event-6553520)   | 0x00D6       |     10 |              2 |
| [65535.21](#event-6553521)   | 0x00E0       |      9 |              3 |
| [25](#event-25)              | 0x00E9       |      1 |              1 |
| [65535.22](#event-6553522)   | 0x00EA       |     10 |              2 |
| [65535.23](#event-6553523)   | 0x00F4       |     18 |              6 |
| [86](#event-86)              | 0x0106       |     44 |              8 |
| [65535.24](#event-6553524)   | 0x0132       |     10 |              2 |
| [65535.25](#event-6553525)   | 0x013C       |     10 |              2 |
| [65535.26](#event-6553526)   | 0x0146       |     15 |              5 |
| [65535.27](#event-6553527)   | 0x0155       |     10 |              2 |
| [65535.28](#event-6553528)   | 0x015F       |     18 |              6 |
| [65535.29](#event-6553529)   | 0x0171       |     12 |              3 |
| [65535.30](#event-6553530)   | 0x017D       |     10 |              2 |
| [65535.31](#event-6553531)   | 0x0187       |     18 |              6 |
| [65535.32](#event-6553532)   | 0x0199       |     46 |              8 |
| [65535.33](#event-6553533)   | 0x01C7       |     10 |              2 |
| [65535.34](#event-6553534)   | 0x01D1       |     10 |              2 |
| [65535.35](#event-6553535)   | 0x01DB       |     24 |              6 |
| [65535.36](#event-6553536)   | 0x01F3       |     27 |              8 |
| [65535.37](#event-6553537)   | 0x020E       |     10 |              2 |
| [65535.38](#event-6553538)   | 0x0218       |     10 |              2 |
| [65535.39](#event-6553539)   | 0x0222       |     14 |              4 |
| [65535.40](#event-6553540)   | 0x0230       |      4 |              2 |
| [65535.41](#event-6553541)   | 0x0234       |     10 |              2 |
| [65535.42](#event-6553542)   | 0x023E       |     10 |              2 |
| [65535.43](#event-6553543)   | 0x0248       |     10 |              2 |
| [65535.44](#event-6553544)   | 0x0252       |     10 |              2 |
| [65535.45](#event-6553545)   | 0x025C       |     14 |              4 |
| [65535.46](#event-6553546)   | 0x026A       |     13 |              3 |
| [65535.47](#event-6553547)   | 0x0277       |     13 |              3 |
| [65535.48](#event-6553548)   | 0x0284       |     10 |              2 |
| [65535.49](#event-6553549)   | 0x028E       |     10 |              2 |
| [65535.50](#event-6553550)   | 0x0298       |     10 |              2 |
| [65535.51](#event-6553551)   | 0x02A2       |     23 |              5 |
| [65535.52](#event-6553552)   | 0x02B9       |     37 |              9 |
| [65535.53](#event-6553553)   | 0x02DE       |     19 |              5 |
| [65535.54](#event-6553554)   | 0x02F1       |     10 |              2 |
| [65535.55](#event-6553555)   | 0x02FB       |     10 |              2 |
| [65535.56](#event-6553556)   | 0x0305       |     10 |              2 |
| [65535.57](#event-6553557)   | 0x030F       |     10 |              2 |
| [65535.58](#event-6553558)   | 0x0319       |     39 |              9 |
| [443](#event-443)            | 0x0340       |      1 |              1 |
| [65535.59](#event-6553559)   | 0x0341       |     10 |              2 |
| [65535.60](#event-6553560)   | 0x034B       |     14 |              4 |
| [65535.61](#event-6553561)   | 0x0359       |     10 |              2 |
| [65535.62](#event-6553562)   | 0x0363       |     24 |              6 |
| [65535.63](#event-6553563)   | 0x037B       |     10 |              2 |
| [65535.64](#event-6553564)   | 0x0385       |     14 |              4 |
| [65535.65](#event-6553565)   | 0x0393       |     10 |              2 |
| [65535.66](#event-6553566)   | 0x039D       |     14 |              4 |
| [65535.67](#event-6553567)   | 0x03AB       |     10 |              2 |
| [65535.68](#event-6553568)   | 0x03B5       |     10 |              2 |
| [65535.69](#event-6553569)   | 0x03BF       |     10 |              2 |
| [65535.70](#event-6553570)   | 0x03C9       |     10 |              2 |
| [65535.71](#event-6553571)   | 0x03D3       |     10 |              2 |
| [65535.72](#event-6553572)   | 0x03DD       |     10 |              2 |
| [65535.73](#event-6553573)   | 0x03E7       |     10 |              2 |
| [65535.74](#event-6553574)   | 0x03F1       |     10 |              2 |
| [65535.75](#event-6553575)   | 0x03FB       |     10 |              2 |
| [65535.76](#event-6553576)   | 0x0405       |     10 |              2 |
| [65535.77](#event-6553577)   | 0x040F       |     10 |              2 |
| [65535.78](#event-6553578)   | 0x0419       |     10 |              2 |
| [65535.79](#event-6553579)   | 0x0423       |     10 |              2 |
| [65535.80](#event-6553580)   | 0x042D       |     10 |              2 |
| [65535.81](#event-6553581)   | 0x0437       |     10 |              2 |
| [65535.82](#event-6553582)   | 0x0441       |     10 |              2 |
| [65535.83](#event-6553583)   | 0x044B       |     10 |              2 |
| [65535.84](#event-6553584)   | 0x0455       |     10 |              2 |
| [65535.85](#event-6553585)   | 0x045F       |     10 |              2 |
| [65535.86](#event-6553586)   | 0x0469       |     10 |              2 |
| [65535.87](#event-6553587)   | 0x0473       |     10 |              2 |
| [65535.88](#event-6553588)   | 0x047D       |     12 |              3 |
| [65535.89](#event-6553589)   | 0x0489       |     10 |              2 |
| [65535.90](#event-6553590)   | 0x0493       |     10 |              2 |
| [65535.91](#event-6553591)   | 0x049D       |     10 |              2 |
| [65535.92](#event-6553592)   | 0x04A7       |     10 |              2 |
| [65535.93](#event-6553593)   | 0x04B1       |     10 |              2 |
| [65535.94](#event-6553594)   | 0x04BB       |     10 |              2 |
| [65535.95](#event-6553595)   | 0x04C5       |     10 |              2 |
| [65535.96](#event-6553596)   | 0x04CF       |     10 |              2 |
| [65535.97](#event-6553597)   | 0x04D9       |     10 |              2 |
| [65535.98](#event-6553598)   | 0x04E3       |     15 |              5 |
| [65535.99](#event-6553599)   | 0x04F2       |     20 |              3 |
| [65535.100](#event-65535100) | 0x0506       |      1 |              1 |
| [65535.101](#event-65535101) | 0x0507       |      1 |              1 |
| [499](#event-499)            | 0x0508       |    301 |             41 |
| [65535.102](#event-65535102) | 0x0635       |     24 |              4 |
| [65535.103](#event-65535103) | 0x064D       |     24 |              4 |
| [65535.104](#event-65535104) | 0x0665       |     32 |             10 |
| [65535.105](#event-65535105) | 0x0685       |      9 |              3 |
| [65535.106](#event-65535106) | 0x068E       |     50 |             12 |
| [65535.107](#event-65535107) | 0x06C0       |     14 |              2 |
| [65535.108](#event-65535108) | 0x06CE       |     42 |              6 |
| [65535.109](#event-65535109) | 0x06F8       |    175 |             37 |
| [65535.110](#event-65535110) | 0x07A7       |     15 |              5 |
| [65535.111](#event-65535111) | 0x07B6       |     41 |              9 |
| [65535.112](#event-65535112) | 0x07DF       |     29 |              5 |
| [65535.113](#event-65535113) | 0x07FC       |     24 |              4 |
| [65535.114](#event-65535114) | 0x0814       |     24 |              4 |
| [554](#event-554)            | 0x082C       |     46 |              8 |

## DAT References (imed_data)

|   Index | Hex Value   |   Dec Value |
|---------|-------------|-------------|
|       0 | 0x009A      |         154 |
|       1 | 0xFFFFF98B  |  4294965643 |
|       2 | 0x0000      |           0 |
|       3 | 0x0B83      |        2947 |
|       4 | 0xFFFFF9AC  |  4294965676 |
|       5 | 0xFFFFC422  |  4294951970 |
|       6 | 0xFFFFDD27  |  4294958375 |
|       7 | 0x07B1      |        1969 |
|       8 | 0xFFFD3A2E  |  4294785582 |
|       9 | 0x23FBC     |      147388 |
|      10 | 0xFFFFF6CE  |  4294964942 |
|      11 | 0x0F57      |        3927 |
|      12 | 0x01AE      |         430 |
|      13 | 0x1D22F     |      119343 |
|      14 | 0xFFFFC27E  |  4294951550 |
|      15 | 0x0C8B      |        3211 |
|      16 | 0xFFFE90E5  |  4294873317 |
|      17 | 0x206E4     |      132836 |
|      18 | 0xFFFFEC34  |  4294962228 |
|      19 | 0x0700      |        1792 |
|      20 | 0x17BCD     |       97229 |
|      21 | 0x1C998     |      117144 |
|      22 | 0xFFFFF605  |  4294964741 |
|      23 | 0x0005      |           5 |
|      24 | 0x1BEB2     |      114354 |
|      25 | 0x25135     |      151861 |
|      26 | 0xFFFFD42C  |  4294956076 |
|      27 | 0x0FF7      |        4087 |
|      28 | 0xEB39      |       60217 |
|      29 | 0xFFFEFEF6  |  4294901494 |
|      30 | 0xFFFFF63D  |  4294964797 |
|      31 | 0x0053      |          83 |
|      32 | 0xFFFFFB1D  |  4294966045 |
|      33 | 0xFFFFBD29  |  4294950185 |
|      34 | 0xFFFFDD95  |  4294958485 |
|      35 | 0x035C      |         860 |
|      36 | 0xFFFC9B5E  |  4294744926 |
|      37 | 0xFFFE2C80  |  4294847616 |
|      38 | 0x03E7      |         999 |
|      39 | 0x07CF      |        1999 |
|      40 | 0xFFFE9BC5  |  4294876101 |
|      41 | 0x2D9BF     |      186815 |
|      42 | 0xFFFFCF2C  |  4294954796 |
|      43 | 0x0AA3      |        2723 |
|      44 | 0xFFFEA5DB  |  4294878683 |
|      45 | 0x1A672     |      108146 |
|      46 | 0xFFFFDB09  |  4294957833 |
|      47 | 0x0871      |        2161 |
|      48 | 0xFFFF9CB8  |  4294941880 |
|      49 | 0x3E5BC     |      255420 |
|      50 | 0xFFFFCF64  |  4294954852 |
|      51 | 0x0B44      |        2884 |
|      52 | 0x1E26C     |      123500 |
|      53 | 0xFFFFC086  |  4294951046 |
|      54 | 0x0C5A      |        3162 |
|      55 | 0x1DD24     |      122148 |
|      56 | 0x1B363     |      111459 |
|      57 | 0xFFFFF448  |  4294964296 |
|      58 | 0x0B9D      |        2973 |
|      59 | 0x1FBD      |        8125 |
|      60 | 0xFFFF9B25  |  4294941477 |
|      61 | 0x40881     |      264321 |
|      62 | 0xFFFFCD38  |  4294954296 |
|      63 | 0x0C14      |        3092 |
|      64 | 0x000D      |          13 |
|      65 | 0xFFFF9DBC  |  4294942140 |
|      66 | 0x41DF3     |      269811 |
|      67 | 0xFFFFD120  |  4294955296 |
|      68 | 0x0D00      |        3328 |
|      69 | 0x00C8      |         200 |
|      70 | 0x0001      |           1 |
|      71 | 0x0064      |         100 |
|      72 | 0xFFFF9A44  |  4294941252 |
|      73 | 0x3F9FB     |      260603 |
|      74 | 0xFFFFCD39  |  4294954297 |
|      75 | 0x0BEB      |        3051 |
|      76 | 0xFFFF97F6  |  4294940662 |
|      77 | 0x4175E     |      268126 |
|      78 | 0xFFFFBBA4  |  4294949796 |
|      79 | 0x02D1      |         721 |
|      80 | 0x0028      |          40 |
|      81 | 0xFFFFB33D  |  4294947645 |
|      82 | 0x42C50     |      273488 |
|      83 | 0xFFFF9982  |  4294941058 |
|      84 | 0x3E383     |      254851 |
|      85 | 0xFFFFCF7D  |  4294954877 |
|      86 | 0x0CB2      |        3250 |
|      87 | 0xFFFFA27B  |  4294943355 |
|      88 | 0x3E081     |      254081 |
|      89 | 0xFFFFCFB1  |  4294954929 |
|      90 | 0xFFFF9A72  |  4294941298 |
|      91 | 0x3FCF4     |      261364 |
|      92 | 0x049A      |        1178 |
|      93 | 0xFFFF99AD  |  4294941101 |
|      94 | 0x404BB     |      263355 |
|      95 | 0x0C76      |        3190 |
|      96 | 0xFFFF9988  |  4294941064 |
|      97 | 0x427DE     |      272350 |
|      98 | 0x0F18      |        3864 |
|      99 | 0x0032      |          50 |
|     100 | 0xFFFF9083  |  4294938755 |
|     101 | 0x44596     |      279958 |
|     102 | 0x0BDC      |        3036 |
|     103 | 0xFFFF789A  |  4294932634 |
|     104 | 0x43CAF     |      277679 |
|     105 | 0x0B87      |        2951 |
|     106 | 0x3FD4F     |      261455 |
|     107 | 0x0488      |        1160 |
|     108 | 0xFFFF98FD  |  4294940925 |
|     109 | 0x3DF37     |      253751 |
|     110 | 0xFFFFCFB6  |  4294954934 |
|     111 | 0xFFFF802C  |  4294934572 |
|     112 | 0x3CD93     |      249235 |
|     113 | 0xFFFFCFF7  |  4294954999 |
|     114 | 0xFFFF6449  |  4294927433 |
|     115 | 0x3B86E     |      243822 |
|     116 | 0xFFFFCF2D  |  4294954797 |
|     117 | 0xFFFF9A9C  |  4294941340 |
|     118 | 0x3FAD1     |      260817 |
|     119 | 0x0CE0      |        3296 |
|     120 | 0xFFFF9518  |  4294939928 |
|     121 | 0x441EE     |      279022 |
|     122 | 0x0A46      |        2630 |
|     123 | 0xFFFF9A4C  |  4294941260 |
|     124 | 0x407DB     |      264155 |
|     125 | 0xFFFF9A57  |  4294941271 |
|     126 | 0x400CE     |      262350 |
|     127 | 0x0C00      |        3072 |
|     128 | 0xFFFF9A48  |  4294941256 |
|     129 | 0x41A4A     |      268874 |
|     130 | 0x0E08      |        3592 |
|     131 | 0xFFFF9A8D  |  4294941325 |
|     132 | 0x41A36     |      268854 |
|     133 | 0x0BD3      |        3027 |
|     134 | 0xFFFF74F4  |  4294931700 |
|     135 | 0x44EED     |      282349 |
|     136 | 0x0C82      |        3202 |
|     137 | 0xFFFF9A68  |  4294941288 |
|     138 | 0x42459     |      271449 |
|     139 | 0x0313      |         787 |
|     140 | 0x42990     |      272784 |
|     141 | 0xFFFFF63C  |  4294964796 |
|     142 | 0x0615      |        1557 |
|     143 | 0x360C      |       13836 |
|     144 | 0x4458C     |      279948 |
|     145 | 0x01F4      |         500 |
|     146 | 0x06A0      |        1696 |
|     147 | 0x42CAA     |      273578 |
|     148 | 0xFFFFF736  |  4294965046 |
|     149 | 0x0DFC      |        3580 |
|     150 | 0xFFFE27A3  |  4294846371 |
|     151 | 0x1E65C     |      124508 |
|     152 | 0xFFFFEA85  |  4294961797 |
|     153 | 0x0586      |        1414 |
|     154 | 0xFFFE3F76  |  4294852470 |
|     155 | 0x1D65D     |      120413 |
|     156 | 0x05CE      |        1486 |
|     157 | 0xFFFE3C42  |  4294851650 |
|     158 | 0x1E64C     |      124492 |
|     159 | 0x03FE      |        1022 |
|     160 | 0xFFFE3D6F  |  4294851951 |
|     161 | 0x1D87A     |      120954 |
|     162 | 0xFFFE4A63  |  4294855267 |
|     163 | 0x1E072     |      122994 |
|     164 | 0xFFFFEE6C  |  4294962796 |
|     165 | 0xFFFE49B3  |  4294855091 |
|     166 | 0x1EBBD     |      125885 |
|     167 | 0xFFFFEE6D  |  4294962797 |
|     168 | 0x0E0F      |        3599 |
|     169 | 0x003C      |          60 |
|     170 | 0xFFFE3FF4  |  4294852596 |
|     171 | 0x1E446     |      123974 |
|     172 | 0xFFFFEA84  |  4294961796 |
|     173 | 0x0FCA      |        4042 |
|     174 | 0xFFFE4D6E  |  4294856046 |
|     175 | 0x1D3E4     |      119780 |
|     176 | 0x0ACA      |        2762 |
|     177 | 0xFFFE46BA  |  4294854330 |
|     178 | 0x1EDCC     |      126412 |
|     179 | 0x0F4F      |        3919 |
|     180 | 0xFFFFFD90  |  4294966672 |
|     181 | 0x21721     |      136993 |
|     182 | 0xFFFFBE93  |  4294950547 |
|     183 | 0x036E      |         878 |
|     184 | 0x1E834     |      124980 |
|     185 | 0xFFFFE1F0  |  4294959600 |
|     186 | 0x1EACE     |      125646 |
|     187 | 0xFFFFC180  |  4294951296 |
|     188 | 0x0735      |        1845 |
|     189 | 0xFFFFC590  |  4294952336 |
|     190 | 0x1F7DA     |      128986 |
|     191 | 0xFFFFA3C8  |  4294943688 |
|     192 | 0x21047     |      135239 |
|     193 | 0xFFFF7603  |  4294931971 |
|     194 | 0x20BD4     |      134100 |
|     195 | 0x06BC      |        1724 |
|     196 | 0xFFFF2311  |  4294910737 |
|     197 | 0x1E1B2     |      123314 |
|     198 | 0xFFFFCDB4  |  4294954420 |
|     199 | 0xFFFEACFB  |  4294880507 |
|     200 | 0x1C642     |      116290 |
|     201 | 0xFFFFE263  |  4294959715 |
|     202 | 0x0CD6      |        3286 |
|     203 | 0xFFFEACEF  |  4294880495 |
|     204 | 0x1D404     |      119812 |
|     205 | 0xFFFFE7DF  |  4294961119 |
|     206 | 0x1FBD0     |      130000 |
|     207 | 0x0400      |        1024 |
|     208 | 0x21D4A     |      138570 |
|     209 | 0x1DC79     |      121977 |
|     210 | 0xFFFFF830  |  4294965296 |
|     211 | 0x086F      |        2159 |
|     212 | 0x1807D     |       98429 |
|     213 | 0xFFFEFF25  |  4294901541 |
|     214 | 0x03E4      |         996 |
|     215 | 0x04E3      |        1251 |
|     216 | 0xFFFCB26E  |  4294750830 |
|     217 | 0xFFFE9627  |  4294874663 |
|     218 | 0xFFFFFF0B  |  4294967051 |
|     219 | 0x09F7      |        2551 |
|     220 | 0x8B2F      |       35631 |
|     221 | 0xFFFF3AAD  |  4294916781 |
|     222 | 0x2329      |        9001 |
|     223 | 0x09EC      |        2540 |
|     224 | 0x27692     |      161426 |
|     225 | 0x274F7     |      161015 |
|     226 | 0x05F8      |        1528 |
|     227 | 0x1C843     |      116803 |
|     228 | 0xFFFEE69B  |  4294895259 |
|     229 | 0x07F9      |        2041 |
|     230 | 0xFFFC8339  |  4294738745 |
|     231 | 0xFFFE2B86  |  4294847366 |
|     232 | 0xFFFFFF07  |  4294967047 |
|     233 | 0x0FFD      |        4093 |
|     234 | 0xBF7E      |       49022 |
|     235 | 0xFFFEE2B4  |  4294894260 |
|     236 | 0x2712      |       10002 |
|     237 | 0x0C0F      |        3087 |
|     238 | 0x185ED     |       99821 |
|     239 | 0xFFFEFF9F  |  4294901663 |
|     240 | 0x0312      |         786 |
|     241 | 0x21BAA     |      138154 |
|     242 | 0x1D514     |      120084 |
|     243 | 0x0E96      |        3734 |
|     244 | 0xFFFCB3AF  |  4294751151 |
|     245 | 0xFFFE90C0  |  4294873280 |
|     246 | 0xFFFFFF72  |  4294967154 |
|     247 | 0x084B      |        2123 |
|     248 | 0x8B65      |       35685 |
|     249 | 0xFFFF3C2F  |  4294917167 |
|     250 | 0x065B      |        1627 |
|     251 | 0xFFFBBF41  |  4294688577 |
|     252 | 0xFFF9A232  |  4294550066 |
|     253 | 0xFFFF641B  |  4294927387 |
|     254 | 0x0AA6      |        2726 |
|     255 | 0x8B7BE     |      571326 |
|     256 | 0xFFFBD923  |  4294695203 |
|     257 | 0xFFFFFEA3  |  4294966947 |
|     258 | 0x01A6      |         422 |
|     259 | 0xFFFBB61F  |  4294686239 |
|     260 | 0xFFF9928F  |  4294546063 |
|     261 | 0xFFFF648E  |  4294927502 |
|     262 | 0x0704      |        1796 |
|     263 | 0x88F90     |      561040 |
|     264 | 0xFFFBC607  |  4294690311 |
|     265 | 0x06C5      |        1733 |
|     266 | 0xFFFA88AC  |  4294609068 |
|     267 | 0x4DDD      |       19933 |
|     268 | 0xFFFF7744  |  4294932292 |
|     269 | 0x0831      |        2097 |
|     270 | 0x1DA71     |      121457 |
|     271 | 0x1C391     |      115601 |
|     272 | 0xFFFFE0D3  |  4294959315 |
|     273 | 0x0DA9      |        3497 |
|     274 | 0x25BC9     |      154569 |
|     275 | 0xFFFD5734  |  4294793012 |
|     276 | 0x0227      |         551 |
|     277 | 0x091C      |        2332 |
|     278 | 0xFFFFC3F3  |  4294951923 |
|     279 | 0x19656     |      104022 |
|     280 | 0xFFFFBC6C  |  4294949996 |
|     281 | 0x0379      |         889 |
|     282 | 0x0286      |         646 |
|     283 | 0xFFFF97B9  |  4294940601 |
|     284 | 0xFFFFE43B  |  4294960187 |
|     285 | 0x0689      |        1673 |
|     286 | 0xFFFFFFD1  |  4294967249 |
|     287 | 0xFFFF80F7  |  4294934775 |
|     288 | 0xFFFFA435  |  4294943797 |
|     289 | 0x03FD      |        1021 |
|     290 | 0xFFFE5329  |  4294857513 |
|     291 | 0x31357     |      201559 |
|     292 | 0x0C23      |        3107 |
|     293 | 0xFFFE619E  |  4294861214 |
|     294 | 0x30E19     |      200217 |
|     295 | 0x0F41      |        3905 |
|     296 | 0xFFFE672C  |  4294862636 |
|     297 | 0x3092F     |      198959 |
|     298 | 0x0D8D      |        3469 |
|     299 | 0xFFFE69BF  |  4294863295 |
|     300 | 0x30888     |      198792 |
|     301 | 0x0E89      |        3721 |
|     302 | 0xFFFE4E3F  |  4294856255 |
|     303 | 0x30F96     |      200598 |
|     304 | 0x0D31      |        3377 |
|     305 | 0xFFFE6489  |  4294861961 |
|     306 | 0x30AE6     |      199398 |
|     307 | 0xFFFFD121  |  4294955297 |
|     308 | 0x0E0E      |        3598 |
|     309 | 0xFFFE66E8  |  4294862568 |
|     310 | 0x30B5E     |      199518 |
|     311 | 0x0EB1      |        3761 |
|     312 | 0xFFFE67B0  |  4294862768 |
|     313 | 0x307C5     |      198597 |
|     314 | 0x0030      |          48 |
|     315 | 0xFFFE6DCF  |  4294864335 |
|     316 | 0x30186     |      196998 |
|     317 | 0x1DE55     |      122453 |
|     318 | 0x1B53E     |      111934 |
|     319 | 0x0BFB      |        3067 |
|     320 | 0x0013      |          19 |
|     321 | 0x0143      |         323 |
|     322 | 0x469B8     |      289208 |
|     323 | 0xFFFFD8F0  |  4294957296 |
|     324 | 0x0828      |        2088 |
|     325 | 0x00C7      |         199 |
|     326 | 0x2588      |        9608 |
|     327 | 0x002D      |          45 |
|     328 | 0x2590      |        9616 |
|     329 | 0x2591      |        9617 |
|     330 | 0x2592      |        9618 |
|     331 | 0x2593      |        9619 |
|     332 | 0x0078      |         120 |
|     333 | 0x1DE8E     |      122510 |
|     334 | 0x1A8F4     |      108788 |
|     335 | 0x1CFDC     |      118748 |
|     336 | 0x1AC75     |      109685 |
|     337 | 0x0015      |          21 |
|     338 | 0x1DBC3     |      121795 |
|     339 | 0x1A7E7     |      108519 |
|     340 | 0x1CC83     |      117891 |
|     341 | 0x1ABD0     |      109520 |
|     342 | 0x1C13D     |      115005 |
|     343 | 0x1B4CF     |      111823 |
|     344 | 0x0002      |           2 |
|     345 | 0x000A      |          10 |
|     346 | 0x0009      |           9 |
|     347 | 0x0046      |          70 |
|     348 | 0x008C      |         140 |
|     349 | 0x00D2      |         210 |
|     350 | 0x2814C     |      164172 |
|     351 | 0x5118B     |      332171 |
|     352 | 0xFFFEA992  |  4294879634 |
|     353 | 0x27951     |      162129 |
|     354 | 0x510CC     |      331980 |
|     355 | 0xFFFEA9CB  |  4294879691 |
|     356 | 0x000F      |          15 |
|     357 | 0x2A7E      |       10878 |
|     358 | 0x2AA4      |       10916 |
|     359 | 0x005A      |          90 |

## String References

- **9608**: <Player>'s badge flashes brightly.
- **9617**: Chomomo's badge flashes brightly.
- **9619**: Juna Moshal's badge flashes brightly.
- **10878**: Entering $8.
- **10916**: Your $3 fills with sand.

## Events

### Event 65535

#### Metadata

| Field        | Value   |
|--------------|---------|
| Entrypoint   | 0x0000  |
| Data Size    | 1 bytes |
| Instructions | 1       |

```
      00 01 02 03 04 05 06 07  08 09 0A 0B 0C 0D 0E 0F
      -- -- -- -- -- -- -- --  -- -- -- -- -- -- -- --
0000: 00                                                .               
```

#### Opcodes

```
  0: 0x0000 [0x00] END_REQSTACK()
```

### Event 65535.1

#### Metadata

| Field        | Value    |
|--------------|----------|
| Entrypoint   | 0x0001   |
| Data Size    | 10 bytes |
| Instructions | 2        |

```
      00 01 02 03 04 05 06 07  08 09 0A 0B 0C 0D 0E 0F
      -- -- -- -- -- -- -- --  -- -- -- -- -- -- -- --
0000:    37 00 80 01 80 02 80  03 80 00                  7.........     
```

#### Opcodes

```
  0: 0x0001 [0x37] UPDATE_EVENT_POSITION_AND_DIR: x=0.154*, z=-1.653*, y=0.000*, direction=259.0°*
  1: 0x000A [0x00] END_REQSTACK()
```

### Event 65534

#### Metadata

| Field        | Value   |
|--------------|---------|
| Entrypoint   | 0x000B  |
| Data Size    | 1 bytes |
| Instructions | 1       |

```
      00 01 02 03 04 05 06 07  08 09 0A 0B 0C 0D 0E 0F
      -- -- -- -- -- -- -- --  -- -- -- -- -- -- -- --
0000:                                   00                         .    
```

#### Opcodes

```
  0: 0x000B [0x00] END_REQSTACK()
```

### Event 65535.2

#### Metadata

| Field        | Value   |
|--------------|---------|
| Entrypoint   | 0x000C  |
| Data Size    | 6 bytes |
| Instructions | 2       |

```
      00 01 02 03 04 05 06 07  08 09 0A 0B 0C 0D 0E 0F
      -- -- -- -- -- -- -- --  -- -- -- -- -- -- -- --
0000:                                      03 02 10 0B              ....
0010: 7F 00                                             ..              
```

#### Opcodes

```
  0: 0x000C [0x03] Work_Zone[2] = (Entity->Render.Flags01 >> 25) & 1
  1: 0x0011 [0x00] END_REQSTACK()
```

### Event 65535.3

#### Metadata

| Field        | Value   |
|--------------|---------|
| Entrypoint   | 0x0012  |
| Data Size    | 6 bytes |
| Instructions | 2       |

```
      00 01 02 03 04 05 06 07  08 09 0A 0B 0C 0D 0E 0F
      -- -- -- -- -- -- -- --  -- -- -- -- -- -- -- --
0010:       03 02 10 07 7F 00                             ......        
```

#### Opcodes

```
  0: 0x0012 [0x03] Work_Zone[2] = Entity->Race
  1: 0x0017 [0x00] END_REQSTACK()
```

### Event 65535.4

#### Metadata

| Field        | Value   |
|--------------|---------|
| Entrypoint   | 0x0018  |
| Data Size    | 6 bytes |
| Instructions | 2       |

```
      00 01 02 03 04 05 06 07  08 09 0A 0B 0C 0D 0E 0F
      -- -- -- -- -- -- -- --  -- -- -- -- -- -- -- --
0010:                          03 09 10 07 7F 00                ......  
```

#### Opcodes

```
  0: 0x0018 [0x03] Work_Zone[9] = Entity->Race
  1: 0x001D [0x00] END_REQSTACK()
```

### Event 65535.5

#### Metadata

| Field        | Value   |
|--------------|---------|
| Entrypoint   | 0x001E  |
| Data Size    | 6 bytes |
| Instructions | 2       |

```
      00 01 02 03 04 05 06 07  08 09 0A 0B 0C 0D 0E 0F
      -- -- -- -- -- -- -- --  -- -- -- -- -- -- -- --
0010:                                            03 02                ..
0020: 10 06 7F 00                                       ....            
```

#### Opcodes

```
  0: 0x001E [0x03] Work_Zone[2] = Entity->JobId (if LocalPlayer)
  1: 0x0023 [0x00] END_REQSTACK()
```

### Event 65535.6

#### Metadata

| Field        | Value   |
|--------------|---------|
| Entrypoint   | 0x0024  |
| Data Size    | 1 bytes |
| Instructions | 1       |

```
      00 01 02 03 04 05 06 07  08 09 0A 0B 0C 0D 0E 0F
      -- -- -- -- -- -- -- --  -- -- -- -- -- -- -- --
0020:             00                                        .           
```

#### Opcodes

```
  0: 0x0024 [0x00] END_REQSTACK()
```

### Event 1

#### Metadata

| Field        | Value   |
|--------------|---------|
| Entrypoint   | 0x0025  |
| Data Size    | 1 bytes |
| Instructions | 1       |

```
      00 01 02 03 04 05 06 07  08 09 0A 0B 0C 0D 0E 0F
      -- -- -- -- -- -- -- --  -- -- -- -- -- -- -- --
0020:                00                                      .          
```

#### Opcodes

```
  0: 0x0025 [0x00] END_REQSTACK()
```

### Event 65535.7

#### Metadata

| Field        | Value    |
|--------------|----------|
| Entrypoint   | 0x0026   |
| Data Size    | 13 bytes |
| Instructions | 3        |

```
      00 01 02 03 04 05 06 07  08 09 0A 0B 0C 0D 0E 0F
      -- -- -- -- -- -- -- --  -- -- -- -- -- -- -- --
0020:                   47 00  04 80 05 80 06 80 07 80        G.........
0030: 47 01 00                                          G..             
```

#### Opcodes

```
  0: 0x0026 [0x47] UPDATE_PLAYER_POS(-1.620*, -15.326*, -8.921*, yaw=173.1°*)
  1: 0x0030 [0x47] WAIT_PLAYER_POS_UPDATE
  2: 0x0032 [0x00] END_REQSTACK()
```

### Event 65535.8

#### Metadata

| Field        | Value    |
|--------------|----------|
| Entrypoint   | 0x0033   |
| Data Size    | 13 bytes |
| Instructions | 3        |

```
      00 01 02 03 04 05 06 07  08 09 0A 0B 0C 0D 0E 0F
      -- -- -- -- -- -- -- --  -- -- -- -- -- -- -- --
0030:          47 00 08 80 09  80 0A 80 0B 80 47 01 00     G.........G..
```

#### Opcodes

```
  0: 0x0033 [0x47] UPDATE_PLAYER_POS(-181.714*, 147.388*, -2.354*, yaw=345.1°*)
  1: 0x003D [0x47] WAIT_PLAYER_POS_UPDATE
  2: 0x003F [0x00] END_REQSTACK()
```

### Event 31

#### Metadata

| Field        | Value   |
|--------------|---------|
| Entrypoint   | 0x0040  |
| Data Size    | 1 bytes |
| Instructions | 1       |

```
      00 01 02 03 04 05 06 07  08 09 0A 0B 0C 0D 0E 0F
      -- -- -- -- -- -- -- --  -- -- -- -- -- -- -- --
0040: 00                                                .               
```

#### Opcodes

```
  0: 0x0040 [0x00] END_REQSTACK()
```

### Event 32

#### Metadata

| Field        | Value   |
|--------------|---------|
| Entrypoint   | 0x0041  |
| Data Size    | 1 bytes |
| Instructions | 1       |

```
      00 01 02 03 04 05 06 07  08 09 0A 0B 0C 0D 0E 0F
      -- -- -- -- -- -- -- --  -- -- -- -- -- -- -- --
0040:    00                                              .              
```

#### Opcodes

```
  0: 0x0041 [0x00] END_REQSTACK()
```

### Event 33

#### Metadata

| Field        | Value   |
|--------------|---------|
| Entrypoint   | 0x0042  |
| Data Size    | 1 bytes |
| Instructions | 1       |

```
      00 01 02 03 04 05 06 07  08 09 0A 0B 0C 0D 0E 0F
      -- -- -- -- -- -- -- --  -- -- -- -- -- -- -- --
0040:       00                                            .             
```

#### Opcodes

```
  0: 0x0042 [0x00] END_REQSTACK()
```

### Event 34

#### Metadata

| Field        | Value   |
|--------------|---------|
| Entrypoint   | 0x0043  |
| Data Size    | 1 bytes |
| Instructions | 1       |

```
      00 01 02 03 04 05 06 07  08 09 0A 0B 0C 0D 0E 0F
      -- -- -- -- -- -- -- --  -- -- -- -- -- -- -- --
0040:          00                                          .            
```

#### Opcodes

```
  0: 0x0043 [0x00] END_REQSTACK()
```

### Event 35

#### Metadata

| Field        | Value   |
|--------------|---------|
| Entrypoint   | 0x0044  |
| Data Size    | 1 bytes |
| Instructions | 1       |

```
      00 01 02 03 04 05 06 07  08 09 0A 0B 0C 0D 0E 0F
      -- -- -- -- -- -- -- --  -- -- -- -- -- -- -- --
0040:             00                                        .           
```

#### Opcodes

```
  0: 0x0044 [0x00] END_REQSTACK()
```

### Event 36

#### Metadata

| Field        | Value   |
|--------------|---------|
| Entrypoint   | 0x0045  |
| Data Size    | 1 bytes |
| Instructions | 1       |

```
      00 01 02 03 04 05 06 07  08 09 0A 0B 0C 0D 0E 0F
      -- -- -- -- -- -- -- --  -- -- -- -- -- -- -- --
0040:                00                                      .          
```

#### Opcodes

```
  0: 0x0045 [0x00] END_REQSTACK()
```

### Event 37

#### Metadata

| Field        | Value   |
|--------------|---------|
| Entrypoint   | 0x0046  |
| Data Size    | 1 bytes |
| Instructions | 1       |

```
      00 01 02 03 04 05 06 07  08 09 0A 0B 0C 0D 0E 0F
      -- -- -- -- -- -- -- --  -- -- -- -- -- -- -- --
0040:                   00                                    .         
```

#### Opcodes

```
  0: 0x0046 [0x00] END_REQSTACK()
```

### Event 38

#### Metadata

| Field        | Value   |
|--------------|---------|
| Entrypoint   | 0x0047  |
| Data Size    | 1 bytes |
| Instructions | 1       |

```
      00 01 02 03 04 05 06 07  08 09 0A 0B 0C 0D 0E 0F
      -- -- -- -- -- -- -- --  -- -- -- -- -- -- -- --
0040:                      00                                  .        
```

#### Opcodes

```
  0: 0x0047 [0x00] END_REQSTACK()
```

### Event 39

#### Metadata

| Field        | Value   |
|--------------|---------|
| Entrypoint   | 0x0048  |
| Data Size    | 1 bytes |
| Instructions | 1       |

```
      00 01 02 03 04 05 06 07  08 09 0A 0B 0C 0D 0E 0F
      -- -- -- -- -- -- -- --  -- -- -- -- -- -- -- --
0040:                          00                               .       
```

#### Opcodes

```
  0: 0x0048 [0x00] END_REQSTACK()
```

### Event 40

#### Metadata

| Field        | Value   |
|--------------|---------|
| Entrypoint   | 0x0049  |
| Data Size    | 1 bytes |
| Instructions | 1       |

```
      00 01 02 03 04 05 06 07  08 09 0A 0B 0C 0D 0E 0F
      -- -- -- -- -- -- -- --  -- -- -- -- -- -- -- --
0040:                             00                             .      
```

#### Opcodes

```
  0: 0x0049 [0x00] END_REQSTACK()
```

### Event 65535.9

#### Metadata

| Field        | Value    |
|--------------|----------|
| Entrypoint   | 0x004A   |
| Data Size    | 13 bytes |
| Instructions | 3        |

```
      00 01 02 03 04 05 06 07  08 09 0A 0B 0C 0D 0E 0F
      -- -- -- -- -- -- -- --  -- -- -- -- -- -- -- --
0040:                                47 00 0C 80 0D 80            G.....
0050: 0E 80 0F 80 47 01 00                              ....G..         
```

#### Opcodes

```
  0: 0x004A [0x47] UPDATE_PLAYER_POS(0.430*, 119.343*, -15.746*, yaw=282.2°*)
  1: 0x0054 [0x47] WAIT_PLAYER_POS_UPDATE
  2: 0x0056 [0x00] END_REQSTACK()
```

### Event 65535.10

#### Metadata

| Field        | Value    |
|--------------|----------|
| Entrypoint   | 0x0057   |
| Data Size    | 13 bytes |
| Instructions | 3        |

```
      00 01 02 03 04 05 06 07  08 09 0A 0B 0C 0D 0E 0F
      -- -- -- -- -- -- -- --  -- -- -- -- -- -- -- --
0050:                      47  00 10 80 11 80 12 80 13         G........
0060: 80 47 01 00                                       .G..            
```

#### Opcodes

```
  0: 0x0057 [0x47] UPDATE_PLAYER_POS(-93.979*, 132.836*, -5.068*, yaw=157.5°*)
  1: 0x0061 [0x47] WAIT_PLAYER_POS_UPDATE
  2: 0x0063 [0x00] END_REQSTACK()
```

### Event 65535.11

#### Metadata

| Field        | Value    |
|--------------|----------|
| Entrypoint   | 0x0064   |
| Data Size    | 13 bytes |
| Instructions | 3        |

```
      00 01 02 03 04 05 06 07  08 09 0A 0B 0C 0D 0E 0F
      -- -- -- -- -- -- -- --  -- -- -- -- -- -- -- --
0060:             47 00 14 80  15 80 16 80 17 80 47 01      G.........G.
0070: 00                                                .               
```

#### Opcodes

```
  0: 0x0064 [0x47] UPDATE_PLAYER_POS(97.229*, 117.144*, -2.555*, yaw=0.4°*)
  1: 0x006E [0x47] WAIT_PLAYER_POS_UPDATE
  2: 0x0070 [0x00] END_REQSTACK()
```

### Event 65535.12

#### Metadata

| Field        | Value    |
|--------------|----------|
| Entrypoint   | 0x0071   |
| Data Size    | 13 bytes |
| Instructions | 3        |

```
      00 01 02 03 04 05 06 07  08 09 0A 0B 0C 0D 0E 0F
      -- -- -- -- -- -- -- --  -- -- -- -- -- -- -- --
0070:    47 00 18 80 19 80 1A  80 1B 80 47 01 00         G.........G..  
```

#### Opcodes

```
  0: 0x0071 [0x47] UPDATE_PLAYER_POS(114.354*, 151.861*, -11.220*, yaw=359.2°*)
  1: 0x007B [0x47] WAIT_PLAYER_POS_UPDATE
  2: 0x007D [0x00] END_REQSTACK()
```

### Event 65535.13

#### Metadata

| Field        | Value    |
|--------------|----------|
| Entrypoint   | 0x007E   |
| Data Size    | 13 bytes |
| Instructions | 3        |

```
      00 01 02 03 04 05 06 07  08 09 0A 0B 0C 0D 0E 0F
      -- -- -- -- -- -- -- --  -- -- -- -- -- -- -- --
0070:                                            47 00                G.
0080: 1C 80 1D 80 1E 80 1F 80  47 01 00                 ........G..     
```

#### Opcodes

```
  0: 0x007E [0x47] UPDATE_PLAYER_POS(60.217*, -65.802*, -2.499*, yaw=7.3°*)
  1: 0x0088 [0x47] WAIT_PLAYER_POS_UPDATE
  2: 0x008A [0x00] END_REQSTACK()
```

### Event 65535.14

#### Metadata

| Field        | Value    |
|--------------|----------|
| Entrypoint   | 0x008B   |
| Data Size    | 13 bytes |
| Instructions | 3        |

```
      00 01 02 03 04 05 06 07  08 09 0A 0B 0C 0D 0E 0F
      -- -- -- -- -- -- -- --  -- -- -- -- -- -- -- --
0080:                                   47 00 20 80 21             G. .!
0090: 80 22 80 23 80 47 01 00                           .".#.G..        
```

#### Opcodes

```
  0: 0x008B [0x47] UPDATE_PLAYER_POS(-1.251*, -17.111*, -8.811*, yaw=75.6°*)
  1: 0x0095 [0x47] WAIT_PLAYER_POS_UPDATE
  2: 0x0097 [0x00] END_REQSTACK()
```

### Event 65535.15

#### Metadata

| Field        | Value    |
|--------------|----------|
| Entrypoint   | 0x0098   |
| Data Size    | 13 bytes |
| Instructions | 3        |

```
      00 01 02 03 04 05 06 07  08 09 0A 0B 0C 0D 0E 0F
      -- -- -- -- -- -- -- --  -- -- -- -- -- -- -- --
0090:                          47 00 24 80 25 80 26 80          G.$.%.&.
00A0: 27 80 47 01 00                                    '.G..           
```

#### Opcodes

```
  0: 0x0098 [0x47] UPDATE_PLAYER_POS(-222.370*, -119.680*, 0.999*, yaw=175.7°*)
  1: 0x00A2 [0x47] WAIT_PLAYER_POS_UPDATE
  2: 0x00A4 [0x00] END_REQSTACK()
```

### Event 65535.16

#### Metadata

| Field        | Value    |
|--------------|----------|
| Entrypoint   | 0x00A5   |
| Data Size    | 13 bytes |
| Instructions | 3        |

```
      00 01 02 03 04 05 06 07  08 09 0A 0B 0C 0D 0E 0F
      -- -- -- -- -- -- -- --  -- -- -- -- -- -- -- --
00A0:                47 00 28  80 29 80 2A 80 2B 80 47       G.(.).*.+.G
00B0: 01 00                                             ..              
```

#### Opcodes

```
  0: 0x00A5 [0x47] UPDATE_PLAYER_POS(-91.195*, 186.815*, -12.500*, yaw=239.3°*)
  1: 0x00AF [0x47] WAIT_PLAYER_POS_UPDATE
  2: 0x00B1 [0x00] END_REQSTACK()
```

### Event 65535.17

#### Metadata

| Field        | Value    |
|--------------|----------|
| Entrypoint   | 0x00B2   |
| Data Size    | 13 bytes |
| Instructions | 3        |

```
      00 01 02 03 04 05 06 07  08 09 0A 0B 0C 0D 0E 0F
      -- -- -- -- -- -- -- --  -- -- -- -- -- -- -- --
00B0:       47 00 2C 80 2D 80  2E 80 2F 80 47 01 00       G.,.-.../.G.. 
```

#### Opcodes

```
  0: 0x00B2 [0x47] UPDATE_PLAYER_POS(-88.613*, 108.146*, -9.463*, yaw=189.9°*)
  1: 0x00BC [0x47] WAIT_PLAYER_POS_UPDATE
  2: 0x00BE [0x00] END_REQSTACK()
```

### Event 65535.18

#### Metadata

| Field        | Value    |
|--------------|----------|
| Entrypoint   | 0x00BF   |
| Data Size    | 13 bytes |
| Instructions | 3        |

```
      00 01 02 03 04 05 06 07  08 09 0A 0B 0C 0D 0E 0F
      -- -- -- -- -- -- -- --  -- -- -- -- -- -- -- --
00B0:                                               47                 G
00C0: 00 30 80 31 80 32 80 33  80 47 01 00              .0.1.2.3.G..    
```

#### Opcodes

```
  0: 0x00BF [0x47] UPDATE_PLAYER_POS(-25.416*, 255.420*, -12.444*, yaw=253.5°*)
  1: 0x00C9 [0x47] WAIT_PLAYER_POS_UPDATE
  2: 0x00CB [0x00] END_REQSTACK()
```

### Event 65535.19

#### Metadata

| Field        | Value    |
|--------------|----------|
| Entrypoint   | 0x00CC   |
| Data Size    | 10 bytes |
| Instructions | 2        |

```
      00 01 02 03 04 05 06 07  08 09 0A 0B 0C 0D 0E 0F
      -- -- -- -- -- -- -- --  -- -- -- -- -- -- -- --
00C0:                                      37 02 80 34              7..4
00D0: 80 35 80 36 80 00                                 .5.6..          
```

#### Opcodes

```
  0: 0x00CC [0x37] UPDATE_EVENT_POSITION_AND_DIR: x=0.000*, z=123.500*, y=-16.250*, direction=277.9°*
  1: 0x00D5 [0x00] END_REQSTACK()
```

### Event 65535.20

#### Metadata

| Field        | Value    |
|--------------|----------|
| Entrypoint   | 0x00D6   |
| Data Size    | 10 bytes |
| Instructions | 2        |

```
      00 01 02 03 04 05 06 07  08 09 0A 0B 0C 0D 0E 0F
      -- -- -- -- -- -- -- --  -- -- -- -- -- -- -- --
00D0:                   37 37  80 38 80 39 80 3A 80 00        77.8.9.:..
```

#### Opcodes

```
  0: 0x00D6 [0x37] UPDATE_EVENT_POSITION_AND_DIR: x=122.148*, z=111.459*, y=-3.000*, direction=261.3°*
  1: 0x00DF [0x00] END_REQSTACK()
```

### Event 65535.21

#### Metadata

| Field        | Value   |
|--------------|---------|
| Entrypoint   | 0x00E0  |
| Data Size    | 9 bytes |
| Instructions | 3       |

```
      00 01 02 03 04 05 06 07  08 09 0A 0B 0C 0D 0E 0F
      -- -- -- -- -- -- -- --  -- -- -- -- -- -- -- --
00E0: 2B 1A F0 0E 01 3B 80 23  00                       +....;.#.       
```

#### Opcodes

```
  0: 0x00E0 [0x2B] Shantotto (ID: 17756186/0x010EF01A) [8125*]:
    → "By the way, I hate to admit it, er... But, you did fairly well...for a total loser."
  1: 0x00E7 [0x23] WAIT_FOR_DIALOG_INTERACTION
  2: 0x00E8 [0x00] END_REQSTACK()
```

### Event 25

#### Metadata

| Field        | Value   |
|--------------|---------|
| Entrypoint   | 0x00E9  |
| Data Size    | 1 bytes |
| Instructions | 1       |

```
      00 01 02 03 04 05 06 07  08 09 0A 0B 0C 0D 0E 0F
      -- -- -- -- -- -- -- --  -- -- -- -- -- -- -- --
00E0:                             00                             .      
```

#### Opcodes

```
  0: 0x00E9 [0x00] END_REQSTACK()
```

### Event 65535.22

#### Metadata

| Field        | Value    |
|--------------|----------|
| Entrypoint   | 0x00EA   |
| Data Size    | 10 bytes |
| Instructions | 2        |

```
      00 01 02 03 04 05 06 07  08 09 0A 0B 0C 0D 0E 0F
      -- -- -- -- -- -- -- --  -- -- -- -- -- -- -- --
00E0:                                37 3C 80 3D 80 3E            7<.=.>
00F0: 80 3F 80 00                                       .?..            
```

#### Opcodes

```
  0: 0x00EA [0x37] UPDATE_EVENT_POSITION_AND_DIR: x=-25.819*, z=264.321*, y=-13.000*, direction=271.7°*
  1: 0x00F3 [0x00] END_REQSTACK()
```

### Event 65535.23

#### Metadata

| Field        | Value    |
|--------------|----------|
| Entrypoint   | 0x00F4   |
| Data Size    | 18 bytes |
| Instructions | 6        |

```
      00 01 02 03 04 05 06 07  08 09 0A 0B 0C 0D 0E 0F
      -- -- -- -- -- -- -- --  -- -- -- -- -- -- -- --
00F0:             32 40 80 1F  00 41 80 42 80 43 80 1F      2@...A.B.C..
0100: 01 6F 39 44 80 00                                 .o9D..          
```

#### Opcodes

```
  0: 0x00F4 [0x32] ExtData[1]->MainSpeed = 13* * 0.1
  1: 0x00F7 [0x1F] MOVE_ENTITY: EventEntity moves to X=-25.156*, Z=269.811*, Y=-12.000*
  2: 0x00FF [0x1F] MOVE_ENTITY: Update entity position (mode=1)
  3: 0x0101 [0x6F] WAIT_FRAME_DELAY: Yield until WaitTime reaches zero
  4: 0x0102 [0x39] SET_ENTITY_DIRECTION(direction=18.3°*)
  5: 0x0105 [0x00] END_REQSTACK()
```

### Event 86

#### Metadata

| Field        | Value    |
|--------------|----------|
| Entrypoint   | 0x0106   |
| Data Size    | 44 bytes |
| Instructions | 8        |

```
      00 01 02 03 04 05 06 07  08 09 0A 0B 0C 0D 0E 0F
      -- -- -- -- -- -- -- --  -- -- -- -- -- -- -- --
0100:                   20 01  42 45 45 80 F0 FF FF 7F         .BEE.....
0110: F0 FF FF 7F 66 64 6F 31  02 80 62 46 80 F0 FF FF  ....fdo1..bF....
0120: 7F F0 FF FF 7F 6D 61 69  6E 02 80 1C 47 80 20 00  .....main...G. .
0130: 21 00                                             !.              
```

#### Opcodes

```
  0: 0x0106 [0x20] SET_CLI_EVENT_UC_FLAG: Lock player control
  1: 0x0108 [0x42] SET_CLI_EVENT_CANCEL_DATA()
  2: 0x0109 [0x45] LOAD_SCHEDULED_TASK: Load scheduler "fdo1" with entities [LocalPlayer, LocalPlayer], work=[200*, 0*]
  3: 0x011A [0x62] LOAD_EVENT_SCHEDULER: Load scheduler "main" with entities [LocalPlayer, LocalPlayer], work=[1*, 0*]
  4: 0x012B [0x1C] WAIT(100* ticks)
  5: 0x012E [0x20] SET_CLI_EVENT_UC_FLAG: Unlock player control
  6: 0x0130 [0x21] END_EVENT
  7: 0x0131 [0x00] END_REQSTACK()
```

### Event 65535.24

#### Metadata

| Field        | Value    |
|--------------|----------|
| Entrypoint   | 0x0132   |
| Data Size    | 10 bytes |
| Instructions | 2        |

```
      00 01 02 03 04 05 06 07  08 09 0A 0B 0C 0D 0E 0F
      -- -- -- -- -- -- -- --  -- -- -- -- -- -- -- --
0130:       37 48 80 49 80 4A  80 4B 80 00                7H.I.J.K..    
```

#### Opcodes

```
  0: 0x0132 [0x37] UPDATE_EVENT_POSITION_AND_DIR: x=-26.044*, z=260.603*, y=-12.999*, direction=268.1°*
  1: 0x013B [0x00] END_REQSTACK()
```

### Event 65535.25

#### Metadata

| Field        | Value    |
|--------------|----------|
| Entrypoint   | 0x013C   |
| Data Size    | 10 bytes |
| Instructions | 2        |

```
      00 01 02 03 04 05 06 07  08 09 0A 0B 0C 0D 0E 0F
      -- -- -- -- -- -- -- --  -- -- -- -- -- -- -- --
0130:                                      37 4C 80 4D              7L.M
0140: 80 4E 80 4F 80 00                                 .N.O..          
```

#### Opcodes

```
  0: 0x013C [0x37] UPDATE_EVENT_POSITION_AND_DIR: x=-26.634*, z=268.126*, y=-17.500*, direction=63.4°*
  1: 0x0145 [0x00] END_REQSTACK()
```

### Event 65535.26

#### Metadata

| Field        | Value    |
|--------------|----------|
| Entrypoint   | 0x0146   |
| Data Size    | 15 bytes |
| Instructions | 5        |

```
      00 01 02 03 04 05 06 07  08 09 0A 0B 0C 0D 0E 0F
      -- -- -- -- -- -- -- --  -- -- -- -- -- -- -- --
0140:                   32 50  80 1F 00 51 80 52 80 4E        2P...Q.R.N
0150: 80 1F 01 6F 00                                    ...o.           
```

#### Opcodes

```
  0: 0x0146 [0x32] ExtData[1]->MainSpeed = 40* * 0.1
  1: 0x0149 [0x1F] MOVE_ENTITY: EventEntity moves to X=-19.651*, Z=273.488*, Y=-17.500*
  2: 0x0151 [0x1F] MOVE_ENTITY: Update entity position (mode=1)
  3: 0x0153 [0x6F] WAIT_FRAME_DELAY: Yield until WaitTime reaches zero
  4: 0x0154 [0x00] END_REQSTACK()
```

### Event 65535.27

#### Metadata

| Field        | Value    |
|--------------|----------|
| Entrypoint   | 0x0155   |
| Data Size    | 10 bytes |
| Instructions | 2        |

```
      00 01 02 03 04 05 06 07  08 09 0A 0B 0C 0D 0E 0F
      -- -- -- -- -- -- -- --  -- -- -- -- -- -- -- --
0150:                37 53 80  54 80 55 80 56 80 00          7S.T.U.V.. 
```

#### Opcodes

```
  0: 0x0155 [0x37] UPDATE_EVENT_POSITION_AND_DIR: x=-26.238*, z=254.851*, y=-12.419*, direction=285.6°*
  1: 0x015E [0x00] END_REQSTACK()
```

### Event 65535.28

#### Metadata

| Field        | Value    |
|--------------|----------|
| Entrypoint   | 0x015F   |
| Data Size    | 18 bytes |
| Instructions | 6        |

```
      00 01 02 03 04 05 06 07  08 09 0A 0B 0C 0D 0E 0F
      -- -- -- -- -- -- -- --  -- -- -- -- -- -- -- --
0150:                                               32                 2
0160: 50 80 1F 00 57 80 58 80  59 80 1F 01 6F 39 13 80  P...W.X.Y...o9..
0170: 00                                                .               
```

#### Opcodes

```
  0: 0x015F [0x32] ExtData[1]->MainSpeed = 40* * 0.1
  1: 0x0162 [0x1F] MOVE_ENTITY: EventEntity moves to X=-23.941*, Z=254.081*, Y=-12.367*
  2: 0x016A [0x1F] MOVE_ENTITY: Update entity position (mode=1)
  3: 0x016C [0x6F] WAIT_FRAME_DELAY: Yield until WaitTime reaches zero
  4: 0x016D [0x39] SET_ENTITY_DIRECTION(direction=9.8°*)
  5: 0x0170 [0x00] END_REQSTACK()
```

### Event 65535.29

#### Metadata

| Field        | Value    |
|--------------|----------|
| Entrypoint   | 0x0171   |
| Data Size    | 12 bytes |
| Instructions | 3        |

```
      00 01 02 03 04 05 06 07  08 09 0A 0B 0C 0D 0E 0F
      -- -- -- -- -- -- -- --  -- -- -- -- -- -- -- --
0170:    22 01 37 5A 80 5B 80  3E 80 5C 80 00            ".7Z.[.>.\..   
```

#### Opcodes

```
  0: 0x0171 [0x22] ENTITY_HIDE_FLAG(enabled=0x01)
  1: 0x0173 [0x37] UPDATE_EVENT_POSITION_AND_DIR: x=-25.998*, z=261.364*, y=-13.000*, direction=103.5°*
  2: 0x017C [0x00] END_REQSTACK()
```

### Event 65535.30

#### Metadata

| Field        | Value    |
|--------------|----------|
| Entrypoint   | 0x017D   |
| Data Size    | 10 bytes |
| Instructions | 2        |

```
      00 01 02 03 04 05 06 07  08 09 0A 0B 0C 0D 0E 0F
      -- -- -- -- -- -- -- --  -- -- -- -- -- -- -- --
0170:                                         37 5D 80               7].
0180: 5E 80 3E 80 5F 80 00                              ^.>._..         
```

#### Opcodes

```
  0: 0x017D [0x37] UPDATE_EVENT_POSITION_AND_DIR: x=-26.195*, z=263.355*, y=-13.000*, direction=280.4°*
  1: 0x0186 [0x00] END_REQSTACK()
```

### Event 65535.31

#### Metadata

| Field        | Value    |
|--------------|----------|
| Entrypoint   | 0x0187   |
| Data Size    | 18 bytes |
| Instructions | 6        |

```
      00 01 02 03 04 05 06 07  08 09 0A 0B 0C 0D 0E 0F
      -- -- -- -- -- -- -- --  -- -- -- -- -- -- -- --
0180:                      32  40 80 1F 00 60 80 61 80         2@...`.a.
0190: 43 80 1F 01 6F 39 62 80  00                       C...o9b..       
```

#### Opcodes

```
  0: 0x0187 [0x32] ExtData[1]->MainSpeed = 13* * 0.1
  1: 0x018A [0x1F] MOVE_ENTITY: EventEntity moves to X=-26.232*, Z=272.350*, Y=-12.000*
  2: 0x0192 [0x1F] MOVE_ENTITY: Update entity position (mode=1)
  3: 0x0194 [0x6F] WAIT_FRAME_DELAY: Yield until WaitTime reaches zero
  4: 0x0195 [0x39] SET_ENTITY_DIRECTION(direction=21.2°*)
  5: 0x0198 [0x00] END_REQSTACK()
```

### Event 65535.32

#### Metadata

| Field        | Value    |
|--------------|----------|
| Entrypoint   | 0x0199   |
| Data Size    | 46 bytes |
| Instructions | 8        |

```
      00 01 02 03 04 05 06 07  08 09 0A 0B 0C 0D 0E 0F
      -- -- -- -- -- -- -- --  -- -- -- -- -- -- -- --
0190:                             4A 12 F0 0E 01 18 F0           J......
01A0: 0E 01 1C 63 80 4A 12 F0  0E 01 18 F0 0E 01 1C 47  ...c.J.........G
01B0: 80 4A 12 F0 0E 01 18 F0  0E 01 1C 47 80 4A 12 F0  .J.........G.J..
01C0: 0E 01 18 F0 0E 01 00                              .......         
```

#### Opcodes

```
  0: 0x0199 [0x4A] Kohlo-Lakolo (ID: 17756178/0x010EF012) looks at Nanaa Mihgo (ID: 17756184/0x010EF018)
  1: 0x01A2 [0x1C] WAIT(50* ticks)
  2: 0x01A5 [0x4A] Kohlo-Lakolo (ID: 17756178/0x010EF012) looks at Nanaa Mihgo (ID: 17756184/0x010EF018)
  3: 0x01AE [0x1C] WAIT(100* ticks)
  4: 0x01B1 [0x4A] Kohlo-Lakolo (ID: 17756178/0x010EF012) looks at Nanaa Mihgo (ID: 17756184/0x010EF018)
  5: 0x01BA [0x1C] WAIT(100* ticks)
  6: 0x01BD [0x4A] Kohlo-Lakolo (ID: 17756178/0x010EF012) looks at Nanaa Mihgo (ID: 17756184/0x010EF018)
  7: 0x01C6 [0x00] END_REQSTACK()
```

### Event 65535.33

#### Metadata

| Field        | Value    |
|--------------|----------|
| Entrypoint   | 0x01C7   |
| Data Size    | 10 bytes |
| Instructions | 2        |

```
      00 01 02 03 04 05 06 07  08 09 0A 0B 0C 0D 0E 0F
      -- -- -- -- -- -- -- --  -- -- -- -- -- -- -- --
01C0:                      37  64 80 65 80 4A 80 66 80         7d.e.J.f.
01D0: 00                                                .               
```

#### Opcodes

```
  0: 0x01C7 [0x37] UPDATE_EVENT_POSITION_AND_DIR: x=-28.541*, z=279.958*, y=-12.999*, direction=266.8°*
  1: 0x01D0 [0x00] END_REQSTACK()
```

### Event 65535.34

#### Metadata

| Field        | Value    |
|--------------|----------|
| Entrypoint   | 0x01D1   |
| Data Size    | 10 bytes |
| Instructions | 2        |

```
      00 01 02 03 04 05 06 07  08 09 0A 0B 0C 0D 0E 0F
      -- -- -- -- -- -- -- --  -- -- -- -- -- -- -- --
01D0:    37 67 80 68 80 3E 80  69 80 00                  7g.h.>.i..     
```

#### Opcodes

```
  0: 0x01D1 [0x37] UPDATE_EVENT_POSITION_AND_DIR: x=-34.662*, z=277.679*, y=-13.000*, direction=259.4°*
  1: 0x01DA [0x00] END_REQSTACK()
```

### Event 65535.35

#### Metadata

| Field        | Value    |
|--------------|----------|
| Entrypoint   | 0x01DB   |
| Data Size    | 24 bytes |
| Instructions | 6        |

```
      00 01 02 03 04 05 06 07  08 09 0A 0B 0C 0D 0E 0F
      -- -- -- -- -- -- -- --  -- -- -- -- -- -- -- --
01D0:                                   37 48 80 6A 80             7H.j.
01E0: 4A 80 6B 80 32 40 80 1F  00 6C 80 6D 80 6E 80 1F  J.k.2@...l.m.n..
01F0: 01 6F 00                                          .o.             
```

#### Opcodes

```
  0: 0x01DB [0x37] UPDATE_EVENT_POSITION_AND_DIR: x=-26.044*, z=261.455*, y=-12.999*, direction=102.0°*
  1: 0x01E4 [0x32] ExtData[1]->MainSpeed = 13* * 0.1
  2: 0x01E7 [0x1F] MOVE_ENTITY: EventEntity moves to X=-26.371*, Z=253.751*, Y=-12.362*
  3: 0x01EF [0x1F] MOVE_ENTITY: Update entity position (mode=1)
  4: 0x01F1 [0x6F] WAIT_FRAME_DELAY: Yield until WaitTime reaches zero
  5: 0x01F2 [0x00] END_REQSTACK()
```

### Event 65535.36

#### Metadata

| Field        | Value    |
|--------------|----------|
| Entrypoint   | 0x01F3   |
| Data Size    | 27 bytes |
| Instructions | 8        |

```
      00 01 02 03 04 05 06 07  08 09 0A 0B 0C 0D 0E 0F
      -- -- -- -- -- -- -- --  -- -- -- -- -- -- -- --
01F0:          32 40 80 1F 00  6F 80 70 80 71 80 1F 01     2@...o.p.q...
0200: 1F 00 72 80 73 80 74 80  1F 01 6F 22 01 00        ..r.s.t...o"..  
```

#### Opcodes

```
  0: 0x01F3 [0x32] ExtData[1]->MainSpeed = 13* * 0.1
  1: 0x01F6 [0x1F] MOVE_ENTITY: EventEntity moves to X=-32.724*, Z=249.235*, Y=-12.297*
  2: 0x01FE [0x1F] MOVE_ENTITY: Update entity position (mode=1)
  3: 0x0200 [0x1F] MOVE_ENTITY: EventEntity moves to X=-39.863*, Z=243.822*, Y=-12.499*
  4: 0x0208 [0x1F] MOVE_ENTITY: Update entity position (mode=1)
  5: 0x020A [0x6F] WAIT_FRAME_DELAY: Yield until WaitTime reaches zero
  6: 0x020B [0x22] ENTITY_HIDE_FLAG(enabled=0x01)
  7: 0x020D [0x00] END_REQSTACK()
```

### Event 65535.37

#### Metadata

| Field        | Value    |
|--------------|----------|
| Entrypoint   | 0x020E   |
| Data Size    | 10 bytes |
| Instructions | 2        |

```
      00 01 02 03 04 05 06 07  08 09 0A 0B 0C 0D 0E 0F
      -- -- -- -- -- -- -- --  -- -- -- -- -- -- -- --
0200:                                            37 75                7u
0210: 80 76 80 4A 80 77 80 00                           .v.J.w..        
```

#### Opcodes

```
  0: 0x020E [0x37] UPDATE_EVENT_POSITION_AND_DIR: x=-25.956*, z=260.817*, y=-12.999*, direction=289.7°*
  1: 0x0217 [0x00] END_REQSTACK()
```

### Event 65535.38

#### Metadata

| Field        | Value    |
|--------------|----------|
| Entrypoint   | 0x0218   |
| Data Size    | 10 bytes |
| Instructions | 2        |

```
      00 01 02 03 04 05 06 07  08 09 0A 0B 0C 0D 0E 0F
      -- -- -- -- -- -- -- --  -- -- -- -- -- -- -- --
0210:                          37 78 80 79 80 3E 80 7A          7x.y.>.z
0220: 80 00                                             ..              
```

#### Opcodes

```
  0: 0x0218 [0x37] UPDATE_EVENT_POSITION_AND_DIR: x=-27.368*, z=279.022*, y=-13.000*, direction=231.1°*
  1: 0x0221 [0x00] END_REQSTACK()
```

### Event 65535.39

#### Metadata

| Field        | Value    |
|--------------|----------|
| Entrypoint   | 0x0222   |
| Data Size    | 14 bytes |
| Instructions | 4        |

```
      00 01 02 03 04 05 06 07  08 09 0A 0B 0C 0D 0E 0F
      -- -- -- -- -- -- -- --  -- -- -- -- -- -- -- --
0220:       32 40 80 1F 00 7B  80 7C 80 3E 80 1F 01 00    2@...{.|.>....
```

#### Opcodes

```
  0: 0x0222 [0x32] ExtData[1]->MainSpeed = 13* * 0.1
  1: 0x0225 [0x1F] MOVE_ENTITY: EventEntity moves to X=-26.036*, Z=264.155*, Y=-13.000*
  2: 0x022D [0x1F] MOVE_ENTITY: Update entity position (mode=1)
  3: 0x022F [0x00] END_REQSTACK()
```

### Event 65535.40

#### Metadata

| Field        | Value   |
|--------------|---------|
| Entrypoint   | 0x0230  |
| Data Size    | 4 bytes |
| Instructions | 2       |

```
      00 01 02 03 04 05 06 07  08 09 0A 0B 0C 0D 0E 0F
      -- -- -- -- -- -- -- --  -- -- -- -- -- -- -- --
0230: 1C 47 80 00                                       .G..            
```

#### Opcodes

```
  0: 0x0230 [0x1C] WAIT(100* ticks)
  1: 0x0233 [0x00] END_REQSTACK()
```

### Event 65535.41

#### Metadata

| Field        | Value    |
|--------------|----------|
| Entrypoint   | 0x0234   |
| Data Size    | 10 bytes |
| Instructions | 2        |

```
      00 01 02 03 04 05 06 07  08 09 0A 0B 0C 0D 0E 0F
      -- -- -- -- -- -- -- --  -- -- -- -- -- -- -- --
0230:             37 7D 80 7E  80 4A 80 7F 80 00            7}.~.J....  
```

#### Opcodes

```
  0: 0x0234 [0x37] UPDATE_EVENT_POSITION_AND_DIR: x=-26.025*, z=262.350*, y=-12.999*, direction=270.0°*
  1: 0x023D [0x00] END_REQSTACK()
```

### Event 65535.42

#### Metadata

| Field        | Value    |
|--------------|----------|
| Entrypoint   | 0x023E   |
| Data Size    | 10 bytes |
| Instructions | 2        |

```
      00 01 02 03 04 05 06 07  08 09 0A 0B 0C 0D 0E 0F
      -- -- -- -- -- -- -- --  -- -- -- -- -- -- -- --
0230:                                            37 80                7.
0240: 80 81 80 43 80 82 80 00                           ...C....        
```

#### Opcodes

```
  0: 0x023E [0x37] UPDATE_EVENT_POSITION_AND_DIR: x=-26.040*, z=268.874*, y=-12.000*, direction=315.7°*
  1: 0x0247 [0x00] END_REQSTACK()
```

### Event 65535.43

#### Metadata

| Field        | Value    |
|--------------|----------|
| Entrypoint   | 0x0248   |
| Data Size    | 10 bytes |
| Instructions | 2        |

```
      00 01 02 03 04 05 06 07  08 09 0A 0B 0C 0D 0E 0F
      -- -- -- -- -- -- -- --  -- -- -- -- -- -- -- --
0240:                          37 83 80 84 80 43 80 85          7....C..
0250: 80 00                                             ..              
```

#### Opcodes

```
  0: 0x0248 [0x37] UPDATE_EVENT_POSITION_AND_DIR: x=-25.971*, z=268.854*, y=-12.000*, direction=266.0°*
  1: 0x0251 [0x00] END_REQSTACK()
```

### Event 65535.44

#### Metadata

| Field        | Value    |
|--------------|----------|
| Entrypoint   | 0x0252   |
| Data Size    | 10 bytes |
| Instructions | 2        |

```
      00 01 02 03 04 05 06 07  08 09 0A 0B 0C 0D 0E 0F
      -- -- -- -- -- -- -- --  -- -- -- -- -- -- -- --
0250:       37 86 80 87 80 3E  80 88 80 00                7....>....    
```

#### Opcodes

```
  0: 0x0252 [0x37] UPDATE_EVENT_POSITION_AND_DIR: x=-35.596*, z=282.349*, y=-13.000*, direction=281.4°*
  1: 0x025B [0x00] END_REQSTACK()
```

### Event 65535.45

#### Metadata

| Field        | Value    |
|--------------|----------|
| Entrypoint   | 0x025C   |
| Data Size    | 14 bytes |
| Instructions | 4        |

```
      00 01 02 03 04 05 06 07  08 09 0A 0B 0C 0D 0E 0F
      -- -- -- -- -- -- -- --  -- -- -- -- -- -- -- --
0250:                                      32 40 80 1F              2@..
0260: 00 89 80 8A 80 43 80 1F  01 00                    .....C....      
```

#### Opcodes

```
  0: 0x025C [0x32] ExtData[1]->MainSpeed = 13* * 0.1
  1: 0x025F [0x1F] MOVE_ENTITY: EventEntity moves to X=-26.008*, Z=271.449*, Y=-12.000*
  2: 0x0267 [0x1F] MOVE_ENTITY: Update entity position (mode=1)
  3: 0x0269 [0x00] END_REQSTACK()
```

### Event 65535.46

#### Metadata

| Field        | Value    |
|--------------|----------|
| Entrypoint   | 0x026A   |
| Data Size    | 13 bytes |
| Instructions | 3        |

```
      00 01 02 03 04 05 06 07  08 09 0A 0B 0C 0D 0E 0F
      -- -- -- -- -- -- -- --  -- -- -- -- -- -- -- --
0260:                                47 00 8B 80 8C 80            G.....
0270: 8D 80 8E 80 47 01 00                              ....G..         
```

#### Opcodes

```
  0: 0x026A [0x47] UPDATE_PLAYER_POS(0.787*, 272.784*, -2.500*, yaw=136.8°*)
  1: 0x0274 [0x47] WAIT_PLAYER_POS_UPDATE
  2: 0x0276 [0x00] END_REQSTACK()
```

### Event 65535.47

#### Metadata

| Field        | Value    |
|--------------|----------|
| Entrypoint   | 0x0277   |
| Data Size    | 13 bytes |
| Instructions | 3        |

```
      00 01 02 03 04 05 06 07  08 09 0A 0B 0C 0D 0E 0F
      -- -- -- -- -- -- -- --  -- -- -- -- -- -- -- --
0270:                      47  00 8F 80 90 80 8D 80 91         G........
0280: 80 47 01 00                                       .G..            
```

#### Opcodes

```
  0: 0x0277 [0x47] UPDATE_PLAYER_POS(13.836*, 279.948*, -2.500*, yaw=43.9°*)
  1: 0x0281 [0x47] WAIT_PLAYER_POS_UPDATE
  2: 0x0283 [0x00] END_REQSTACK()
```

### Event 65535.48

#### Metadata

| Field        | Value    |
|--------------|----------|
| Entrypoint   | 0x0284   |
| Data Size    | 10 bytes |
| Instructions | 2        |

```
      00 01 02 03 04 05 06 07  08 09 0A 0B 0C 0D 0E 0F
      -- -- -- -- -- -- -- --  -- -- -- -- -- -- -- --
0280:             37 92 80 93  80 94 80 95 80 00            7.........  
```

#### Opcodes

```
  0: 0x0284 [0x37] UPDATE_EVENT_POSITION_AND_DIR: x=1.696*, z=273.578*, y=-2.250*, direction=314.6°*
  1: 0x028D [0x00] END_REQSTACK()
```

### Event 65535.49

#### Metadata

| Field        | Value    |
|--------------|----------|
| Entrypoint   | 0x028E   |
| Data Size    | 10 bytes |
| Instructions | 2        |

```
      00 01 02 03 04 05 06 07  08 09 0A 0B 0C 0D 0E 0F
      -- -- -- -- -- -- -- --  -- -- -- -- -- -- -- --
0280:                                            37 96                7.
0290: 80 97 80 98 80 99 80 00                           ........        
```

#### Opcodes

```
  0: 0x028E [0x37] UPDATE_EVENT_POSITION_AND_DIR: x=-120.925*, z=124.508*, y=-5.499*, direction=124.3°*
  1: 0x0297 [0x00] END_REQSTACK()
```

### Event 65535.50

#### Metadata

| Field        | Value    |
|--------------|----------|
| Entrypoint   | 0x0298   |
| Data Size    | 10 bytes |
| Instructions | 2        |

```
      00 01 02 03 04 05 06 07  08 09 0A 0B 0C 0D 0E 0F
      -- -- -- -- -- -- -- --  -- -- -- -- -- -- -- --
0290:                          37 9A 80 9B 80 98 80 9C          7.......
02A0: 80 00                                             ..              
```

#### Opcodes

```
  0: 0x0298 [0x37] UPDATE_EVENT_POSITION_AND_DIR: x=-114.826*, z=120.413*, y=-5.499*, direction=130.6°*
  1: 0x02A1 [0x00] END_REQSTACK()
```

### Event 65535.51

#### Metadata

| Field        | Value    |
|--------------|----------|
| Entrypoint   | 0x02A2   |
| Data Size    | 23 bytes |
| Instructions | 5        |

```
      00 01 02 03 04 05 06 07  08 09 0A 0B 0C 0D 0E 0F
      -- -- -- -- -- -- -- --  -- -- -- -- -- -- -- --
02A0:       37 9D 80 9E 80 98  80 9F 80 32 40 80 1F 00    7........2@...
02B0: A0 80 A1 80 98 80 1F 01  00                       .........       
```

#### Opcodes

```
  0: 0x02A2 [0x37] UPDATE_EVENT_POSITION_AND_DIR: x=-115.646*, z=124.492*, y=-5.499*, direction=89.8°*
  1: 0x02AB [0x32] ExtData[1]->MainSpeed = 13* * 0.1
  2: 0x02AE [0x1F] MOVE_ENTITY: EventEntity moves to X=-115.345*, Z=120.954*, Y=-5.499*
  3: 0x02B6 [0x1F] MOVE_ENTITY: Update entity position (mode=1)
  4: 0x02B8 [0x00] END_REQSTACK()
```

### Event 65535.52

#### Metadata

| Field        | Value    |
|--------------|----------|
| Entrypoint   | 0x02B9   |
| Data Size    | 37 bytes |
| Instructions | 9        |

```
      00 01 02 03 04 05 06 07  08 09 0A 0B 0C 0D 0E 0F
      -- -- -- -- -- -- -- --  -- -- -- -- -- -- -- --
02B0:                             32 40 80 1F 00 A2 80           2@.....
02C0: A3 80 A4 80 1F 01 1F 00  A5 80 A6 80 A7 80 1F 01  ................
02D0: 4B F0 FF FF 7F A8 80 6F  76 F0 FF FF 7F 00        K......ov.....  
```

#### Opcodes

```
  0: 0x02B9 [0x32] ExtData[1]->MainSpeed = 13* * 0.1
  1: 0x02BC [0x1F] MOVE_ENTITY: EventEntity moves to X=-112.029*, Z=122.994*, Y=-4.500*
  2: 0x02C4 [0x1F] MOVE_ENTITY: Update entity position (mode=1)
  3: 0x02C6 [0x1F] MOVE_ENTITY: EventEntity moves to X=-112.205*, Z=125.885*, Y=-4.499*
  4: 0x02CE [0x1F] MOVE_ENTITY: Update entity position (mode=1)
  5: 0x02D0 [0x4B] UPDATE_ENTITY_YAW(entity=LocalPlayer, yaw=19.8°*)
  6: 0x02D7 [0x6F] WAIT_FRAME_DELAY: Yield until WaitTime reaches zero
  7: 0x02D8 [0x76] CHECK_ENTITY_RENDER_FLAGS: Wait until LocalPlayer Render.Flags0 and Render.Flags3 conditions are met
  8: 0x02DD [0x00] END_REQSTACK()
```

### Event 65535.53

#### Metadata

| Field        | Value    |
|--------------|----------|
| Entrypoint   | 0x02DE   |
| Data Size    | 19 bytes |
| Instructions | 5        |

```
      00 01 02 03 04 05 06 07  08 09 0A 0B 0C 0D 0E 0F
      -- -- -- -- -- -- -- --  -- -- -- -- -- -- -- --
02D0:                                            1C A9                ..
02E0: 80 4A F0 FF FF 7F 89 F0  0E 01 6F 76 F0 FF FF 7F  .J........ov....
02F0: 00                                                .               
```

#### Opcodes

```
  0: 0x02DE [0x1C] WAIT(60* ticks)
  1: 0x02E1 [0x4A] LocalPlayer looks at Koru-Moru (ID: 17756297/0x010EF089)
  2: 0x02EA [0x6F] WAIT_FRAME_DELAY: Yield until WaitTime reaches zero
  3: 0x02EB [0x76] CHECK_ENTITY_RENDER_FLAGS: Wait until LocalPlayer Render.Flags0 and Render.Flags3 conditions are met
  4: 0x02F0 [0x00] END_REQSTACK()
```

### Event 65535.54

#### Metadata

| Field        | Value    |
|--------------|----------|
| Entrypoint   | 0x02F1   |
| Data Size    | 10 bytes |
| Instructions | 2        |

```
      00 01 02 03 04 05 06 07  08 09 0A 0B 0C 0D 0E 0F
      -- -- -- -- -- -- -- --  -- -- -- -- -- -- -- --
02F0:    37 AA 80 AB 80 AC 80  AD 80 00                  7.........     
```

#### Opcodes

```
  0: 0x02F1 [0x37] UPDATE_EVENT_POSITION_AND_DIR: x=-114.700*, z=123.974*, y=-5.500*, direction=355.2°*
  1: 0x02FA [0x00] END_REQSTACK()
```

### Event 65535.55

#### Metadata

| Field        | Value    |
|--------------|----------|
| Entrypoint   | 0x02FB   |
| Data Size    | 10 bytes |
| Instructions | 2        |

```
      00 01 02 03 04 05 06 07  08 09 0A 0B 0C 0D 0E 0F
      -- -- -- -- -- -- -- --  -- -- -- -- -- -- -- --
02F0:                                   37 AE 80 AF 80             7....
0300: 98 80 B0 80 00                                    .....           
```

#### Opcodes

```
  0: 0x02FB [0x37] UPDATE_EVENT_POSITION_AND_DIR: x=-111.250*, z=119.780*, y=-5.499*, direction=242.7°*
  1: 0x0304 [0x00] END_REQSTACK()
```

### Event 65535.56

#### Metadata

| Field        | Value    |
|--------------|----------|
| Entrypoint   | 0x0305   |
| Data Size    | 10 bytes |
| Instructions | 2        |

```
      00 01 02 03 04 05 06 07  08 09 0A 0B 0C 0D 0E 0F
      -- -- -- -- -- -- -- --  -- -- -- -- -- -- -- --
0300:                37 B1 80  B2 80 A4 80 B3 80 00          7......... 
```

#### Opcodes

```
  0: 0x0305 [0x37] UPDATE_EVENT_POSITION_AND_DIR: x=-112.966*, z=126.412*, y=-4.500*, direction=344.4°*
  1: 0x030E [0x00] END_REQSTACK()
```

### Event 65535.57

#### Metadata

| Field        | Value    |
|--------------|----------|
| Entrypoint   | 0x030F   |
| Data Size    | 10 bytes |
| Instructions | 2        |

```
      00 01 02 03 04 05 06 07  08 09 0A 0B 0C 0D 0E 0F
      -- -- -- -- -- -- -- --  -- -- -- -- -- -- -- --
0300:                                               37                 7
0310: AE 80 AF 80 98 80 B0 80  00                       .........       
```

#### Opcodes

```
  0: 0x030F [0x37] UPDATE_EVENT_POSITION_AND_DIR: x=-111.250*, z=119.780*, y=-5.499*, direction=242.7°*
  1: 0x0318 [0x00] END_REQSTACK()
```

### Event 65535.58

#### Metadata

| Field        | Value    |
|--------------|----------|
| Entrypoint   | 0x0319   |
| Data Size    | 39 bytes |
| Instructions | 9        |

```
      00 01 02 03 04 05 06 07  08 09 0A 0B 0C 0D 0E 0F
      -- -- -- -- -- -- -- --  -- -- -- -- -- -- -- --
0310:                             32 40 80 1F 00 A2 80           2@.....
0320: A3 80 A4 80 1F 01 1F 00  A5 80 A6 80 A7 80 1F 01  ................
0330: 4A F0 FF FF 7F 88 F0 0E  01 6F 76 F0 FF FF 7F 00  J........ov.....
```

#### Opcodes

```
  0: 0x0319 [0x32] ExtData[1]->MainSpeed = 13* * 0.1
  1: 0x031C [0x1F] MOVE_ENTITY: EventEntity moves to X=-112.029*, Z=122.994*, Y=-4.500*
  2: 0x0324 [0x1F] MOVE_ENTITY: Update entity position (mode=1)
  3: 0x0326 [0x1F] MOVE_ENTITY: EventEntity moves to X=-112.205*, Z=125.885*, Y=-4.499*
  4: 0x032E [0x1F] MOVE_ENTITY: Update entity position (mode=1)
  5: 0x0330 [0x4A] LocalPlayer looks at Rukususu (ID: 17756296/0x010EF088)
  6: 0x0339 [0x6F] WAIT_FRAME_DELAY: Yield until WaitTime reaches zero
  7: 0x033A [0x76] CHECK_ENTITY_RENDER_FLAGS: Wait until LocalPlayer Render.Flags0 and Render.Flags3 conditions are met
  8: 0x033F [0x00] END_REQSTACK()
```

### Event 443

#### Metadata

| Field        | Value   |
|--------------|---------|
| Entrypoint   | 0x0340  |
| Data Size    | 1 bytes |
| Instructions | 1       |

```
      00 01 02 03 04 05 06 07  08 09 0A 0B 0C 0D 0E 0F
      -- -- -- -- -- -- -- --  -- -- -- -- -- -- -- --
0340: 00                                                .               
```

#### Opcodes

```
  0: 0x0340 [0x00] END_REQSTACK()
```

### Event 65535.59

#### Metadata

| Field        | Value    |
|--------------|----------|
| Entrypoint   | 0x0341   |
| Data Size    | 10 bytes |
| Instructions | 2        |

```
      00 01 02 03 04 05 06 07  08 09 0A 0B 0C 0D 0E 0F
      -- -- -- -- -- -- -- --  -- -- -- -- -- -- -- --
0340:    37 B4 80 B5 80 B6 80  B7 80 00                  7.........     
```

#### Opcodes

```
  0: 0x0341 [0x37] UPDATE_EVENT_POSITION_AND_DIR: x=-0.624*, z=136.993*, y=-16.749*, direction=77.2°*
  1: 0x034A [0x00] END_REQSTACK()
```

### Event 65535.60

#### Metadata

| Field        | Value    |
|--------------|----------|
| Entrypoint   | 0x034B   |
| Data Size    | 14 bytes |
| Instructions | 4        |

```
      00 01 02 03 04 05 06 07  08 09 0A 0B 0C 0D 0E 0F
      -- -- -- -- -- -- -- --  -- -- -- -- -- -- -- --
0340:                                   32 40 80 1F 00             2@...
0350: B4 80 B8 80 B6 80 1F 01  00                       .........       
```

#### Opcodes

```
  0: 0x034B [0x32] ExtData[1]->MainSpeed = 13* * 0.1
  1: 0x034E [0x1F] MOVE_ENTITY: EventEntity moves to X=-0.624*, Z=124.980*, Y=-16.749*
  2: 0x0356 [0x1F] MOVE_ENTITY: Update entity position (mode=1)
  3: 0x0358 [0x00] END_REQSTACK()
```

### Event 65535.61

#### Metadata

| Field        | Value    |
|--------------|----------|
| Entrypoint   | 0x0359   |
| Data Size    | 10 bytes |
| Instructions | 2        |

```
      00 01 02 03 04 05 06 07  08 09 0A 0B 0C 0D 0E 0F
      -- -- -- -- -- -- -- --  -- -- -- -- -- -- -- --
0350:                             37 B9 80 BA 80 BB 80           7......
0360: BC 80 00                                          ...             
```

#### Opcodes

```
  0: 0x0359 [0x37] UPDATE_EVENT_POSITION_AND_DIR: x=-7.696*, z=125.646*, y=-16.000*, direction=162.2°*
  1: 0x0362 [0x00] END_REQSTACK()
```

### Event 65535.62

#### Metadata

| Field        | Value    |
|--------------|----------|
| Entrypoint   | 0x0363   |
| Data Size    | 24 bytes |
| Instructions | 6        |

```
      00 01 02 03 04 05 06 07  08 09 0A 0B 0C 0D 0E 0F
      -- -- -- -- -- -- -- --  -- -- -- -- -- -- -- --
0360:          32 40 80 1F 00  BD 80 BE 80 BB 80 1F 01     2@...........
0370: 1F 00 BF 80 C0 80 BB 80  1F 01 00                 ...........     
```

#### Opcodes

```
  0: 0x0363 [0x32] ExtData[1]->MainSpeed = 13* * 0.1
  1: 0x0366 [0x1F] MOVE_ENTITY: EventEntity moves to X=-14.960*, Z=128.986*, Y=-16.000*
  2: 0x036E [0x1F] MOVE_ENTITY: Update entity position (mode=1)
  3: 0x0370 [0x1F] MOVE_ENTITY: EventEntity moves to X=-23.608*, Z=135.239*, Y=-16.000*
  4: 0x0378 [0x1F] MOVE_ENTITY: Update entity position (mode=1)
  5: 0x037A [0x00] END_REQSTACK()
```

### Event 65535.63

#### Metadata

| Field        | Value    |
|--------------|----------|
| Entrypoint   | 0x037B   |
| Data Size    | 10 bytes |
| Instructions | 2        |

```
      00 01 02 03 04 05 06 07  08 09 0A 0B 0C 0D 0E 0F
      -- -- -- -- -- -- -- --  -- -- -- -- -- -- -- --
0370:                                   37 C1 80 C2 80             7....
0380: BB 80 C3 80 00                                    .....           
```

#### Opcodes

```
  0: 0x037B [0x37] UPDATE_EVENT_POSITION_AND_DIR: x=-35.325*, z=134.100*, y=-16.000*, direction=151.5°*
  1: 0x0384 [0x00] END_REQSTACK()
```

### Event 65535.64

#### Metadata

| Field        | Value    |
|--------------|----------|
| Entrypoint   | 0x0385   |
| Data Size    | 14 bytes |
| Instructions | 4        |

```
      00 01 02 03 04 05 06 07  08 09 0A 0B 0C 0D 0E 0F
      -- -- -- -- -- -- -- --  -- -- -- -- -- -- -- --
0380:                32 40 80  5A 00 C4 80 C5 80 C6 80       2@.Z.......
0390: 5A 01 00                                          Z..             
```

#### Opcodes

```
  0: 0x0385 [0x32] ExtData[1]->MainSpeed = 13* * 0.1
  1: 0x0388 [0x5A] UPDATE_EVENT_POSITION: Set EventEntity MovePosition to X=-56.559*, Z=123.314*, Y=-12.876*
  2: 0x0390 [0x5A] UPDATE_EVENT_POSITION: Move EventEntity incrementally towards MovePosition
  3: 0x0392 [0x00] END_REQSTACK()
```

### Event 65535.65

#### Metadata

| Field        | Value    |
|--------------|----------|
| Entrypoint   | 0x0393   |
| Data Size    | 10 bytes |
| Instructions | 2        |

```
      00 01 02 03 04 05 06 07  08 09 0A 0B 0C 0D 0E 0F
      -- -- -- -- -- -- -- --  -- -- -- -- -- -- -- --
0390:          37 C7 80 C8 80  C9 80 CA 80 00              7.........   
```

#### Opcodes

```
  0: 0x0393 [0x37] UPDATE_EVENT_POSITION_AND_DIR: x=-86.789*, z=116.290*, y=-7.581*, direction=288.8°*
  1: 0x039C [0x00] END_REQSTACK()
```

### Event 65535.66

#### Metadata

| Field        | Value    |
|--------------|----------|
| Entrypoint   | 0x039D   |
| Data Size    | 14 bytes |
| Instructions | 4        |

```
      00 01 02 03 04 05 06 07  08 09 0A 0B 0C 0D 0E 0F
      -- -- -- -- -- -- -- --  -- -- -- -- -- -- -- --
0390:                                         32 40 80               2@.
03A0: 5A 00 CB 80 CC 80 CD 80  5A 01 00                 Z.......Z..     
```

#### Opcodes

```
  0: 0x039D [0x32] ExtData[1]->MainSpeed = 13* * 0.1
  1: 0x03A0 [0x5A] UPDATE_EVENT_POSITION: Set EventEntity MovePosition to X=-86.801*, Z=119.812*, Y=-6.177*
  2: 0x03A8 [0x5A] UPDATE_EVENT_POSITION: Move EventEntity incrementally towards MovePosition
  3: 0x03AA [0x00] END_REQSTACK()
```

### Event 65535.67

#### Metadata

| Field        | Value    |
|--------------|----------|
| Entrypoint   | 0x03AB   |
| Data Size    | 10 bytes |
| Instructions | 2        |

```
      00 01 02 03 04 05 06 07  08 09 0A 0B 0C 0D 0E 0F
      -- -- -- -- -- -- -- --  -- -- -- -- -- -- -- --
03A0:                                   37 02 80 CE 80             7....
03B0: B6 80 CF 80 00                                    .....           
```

#### Opcodes

```
  0: 0x03AB [0x37] UPDATE_EVENT_POSITION_AND_DIR: x=0.000*, z=130.000*, y=-16.749*, direction=90.0°*
  1: 0x03B4 [0x00] END_REQSTACK()
```

### Event 65535.68

#### Metadata

| Field        | Value    |
|--------------|----------|
| Entrypoint   | 0x03B5   |
| Data Size    | 10 bytes |
| Instructions | 2        |

```
      00 01 02 03 04 05 06 07  08 09 0A 0B 0C 0D 0E 0F
      -- -- -- -- -- -- -- --  -- -- -- -- -- -- -- --
03B0:                37 D0 80  D1 80 D2 80 D3 80 00          7......... 
```

#### Opcodes

```
  0: 0x03B5 [0x37] UPDATE_EVENT_POSITION_AND_DIR: x=138.570*, z=121.977*, y=-2.000*, direction=189.8°*
  1: 0x03BE [0x00] END_REQSTACK()
```

### Event 65535.69

#### Metadata

| Field        | Value    |
|--------------|----------|
| Entrypoint   | 0x03BF   |
| Data Size    | 10 bytes |
| Instructions | 2        |

```
      00 01 02 03 04 05 06 07  08 09 0A 0B 0C 0D 0E 0F
      -- -- -- -- -- -- -- --  -- -- -- -- -- -- -- --
03B0:                                               37                 7
03C0: D4 80 D5 80 D6 80 D7 80  00                       .........       
```

#### Opcodes

```
  0: 0x03BF [0x37] UPDATE_EVENT_POSITION_AND_DIR: x=98.429*, z=-65.755*, y=0.996*, direction=109.9°*
  1: 0x03C8 [0x00] END_REQSTACK()
```

### Event 65535.70

#### Metadata

| Field        | Value    |
|--------------|----------|
| Entrypoint   | 0x03C9   |
| Data Size    | 10 bytes |
| Instructions | 2        |

```
      00 01 02 03 04 05 06 07  08 09 0A 0B 0C 0D 0E 0F
      -- -- -- -- -- -- -- --  -- -- -- -- -- -- -- --
03C0:                             37 D8 80 D9 80 DA 80           7......
03D0: DB 80 00                                          ...             
```

#### Opcodes

```
  0: 0x03C9 [0x37] UPDATE_EVENT_POSITION_AND_DIR: x=-216.466*, z=-92.633*, y=-0.245*, direction=224.2°*
  1: 0x03D2 [0x00] END_REQSTACK()
```

### Event 65535.71

#### Metadata

| Field        | Value    |
|--------------|----------|
| Entrypoint   | 0x03D3   |
| Data Size    | 10 bytes |
| Instructions | 2        |

```
      00 01 02 03 04 05 06 07  08 09 0A 0B 0C 0D 0E 0F
      -- -- -- -- -- -- -- --  -- -- -- -- -- -- -- --
03D0:          37 DC 80 DD 80  DE 80 DF 80 00              7.........   
```

#### Opcodes

```
  0: 0x03D3 [0x37] UPDATE_EVENT_POSITION_AND_DIR: x=35.631*, z=-50.515*, y=9.001*, direction=223.2°*
  1: 0x03DC [0x00] END_REQSTACK()
```

### Event 65535.72

#### Metadata

| Field        | Value    |
|--------------|----------|
| Entrypoint   | 0x03DD   |
| Data Size    | 10 bytes |
| Instructions | 2        |

```
      00 01 02 03 04 05 06 07  08 09 0A 0B 0C 0D 0E 0F
      -- -- -- -- -- -- -- --  -- -- -- -- -- -- -- --
03D0:                                         37 E0 80               7..
03E0: E1 80 D2 80 E2 80 00                              .......         
```

#### Opcodes

```
  0: 0x03DD [0x37] UPDATE_EVENT_POSITION_AND_DIR: x=161.426*, z=161.015*, y=-2.000*, direction=134.3°*
  1: 0x03E6 [0x00] END_REQSTACK()
```

### Event 65535.73

#### Metadata

| Field        | Value    |
|--------------|----------|
| Entrypoint   | 0x03E7   |
| Data Size    | 10 bytes |
| Instructions | 2        |

```
      00 01 02 03 04 05 06 07  08 09 0A 0B 0C 0D 0E 0F
      -- -- -- -- -- -- -- --  -- -- -- -- -- -- -- --
03E0:                      37  E3 80 E4 80 D6 80 E5 80         7........
03F0: 00                                                .               
```

#### Opcodes

```
  0: 0x03E7 [0x37] UPDATE_EVENT_POSITION_AND_DIR: x=116.803*, z=-72.037*, y=0.996*, direction=179.4°*
  1: 0x03F0 [0x00] END_REQSTACK()
```

### Event 65535.74

#### Metadata

| Field        | Value    |
|--------------|----------|
| Entrypoint   | 0x03F1   |
| Data Size    | 10 bytes |
| Instructions | 2        |

```
      00 01 02 03 04 05 06 07  08 09 0A 0B 0C 0D 0E 0F
      -- -- -- -- -- -- -- --  -- -- -- -- -- -- -- --
03F0:    37 E6 80 E7 80 E8 80  E9 80 00                  7.........     
```

#### Opcodes

```
  0: 0x03F1 [0x37] UPDATE_EVENT_POSITION_AND_DIR: x=-228.551*, z=-119.930*, y=-0.249*, direction=359.7°*
  1: 0x03FA [0x00] END_REQSTACK()
```

### Event 65535.75

#### Metadata

| Field        | Value    |
|--------------|----------|
| Entrypoint   | 0x03FB   |
| Data Size    | 10 bytes |
| Instructions | 2        |

```
      00 01 02 03 04 05 06 07  08 09 0A 0B 0C 0D 0E 0F
      -- -- -- -- -- -- -- --  -- -- -- -- -- -- -- --
03F0:                                   37 EA 80 EB 80             7....
0400: EC 80 ED 80 00                                    .....           
```

#### Opcodes

```
  0: 0x03FB [0x37] UPDATE_EVENT_POSITION_AND_DIR: x=49.022*, z=-73.036*, y=10.002*, direction=271.3°*
  1: 0x0404 [0x00] END_REQSTACK()
```

### Event 65535.76

#### Metadata

| Field        | Value    |
|--------------|----------|
| Entrypoint   | 0x0405   |
| Data Size    | 10 bytes |
| Instructions | 2        |

```
      00 01 02 03 04 05 06 07  08 09 0A 0B 0C 0D 0E 0F
      -- -- -- -- -- -- -- --  -- -- -- -- -- -- -- --
0400:                37 EE 80  EF 80 D6 80 F0 80 00          7......... 
```

#### Opcodes

```
  0: 0x0405 [0x37] UPDATE_EVENT_POSITION_AND_DIR: x=99.821*, z=-65.633*, y=0.996*, direction=69.1°*
  1: 0x040E [0x00] END_REQSTACK()
```

### Event 65535.77

#### Metadata

| Field        | Value    |
|--------------|----------|
| Entrypoint   | 0x040F   |
| Data Size    | 10 bytes |
| Instructions | 2        |

```
      00 01 02 03 04 05 06 07  08 09 0A 0B 0C 0D 0E 0F
      -- -- -- -- -- -- -- --  -- -- -- -- -- -- -- --
0400:                                               37                 7
0410: F1 80 F2 80 D2 80 F3 80  00                       .........       
```

#### Opcodes

```
  0: 0x040F [0x37] UPDATE_EVENT_POSITION_AND_DIR: x=138.154*, z=120.084*, y=-2.000*, direction=328.2°*
  1: 0x0418 [0x00] END_REQSTACK()
```

### Event 65535.78

#### Metadata

| Field        | Value    |
|--------------|----------|
| Entrypoint   | 0x0419   |
| Data Size    | 10 bytes |
| Instructions | 2        |

```
      00 01 02 03 04 05 06 07  08 09 0A 0B 0C 0D 0E 0F
      -- -- -- -- -- -- -- --  -- -- -- -- -- -- -- --
0410:                             37 F4 80 F5 80 F6 80           7......
0420: F7 80 00                                          ...             
```

#### Opcodes

```
  0: 0x0419 [0x37] UPDATE_EVENT_POSITION_AND_DIR: x=-216.145*, z=-94.016*, y=-0.142*, direction=186.6°*
  1: 0x0422 [0x00] END_REQSTACK()
```

### Event 65535.79

#### Metadata

| Field        | Value    |
|--------------|----------|
| Entrypoint   | 0x0423   |
| Data Size    | 10 bytes |
| Instructions | 2        |

```
      00 01 02 03 04 05 06 07  08 09 0A 0B 0C 0D 0E 0F
      -- -- -- -- -- -- -- --  -- -- -- -- -- -- -- --
0420:          37 F8 80 F9 80  DE 80 FA 80 00              7.........   
```

#### Opcodes

```
  0: 0x0423 [0x37] UPDATE_EVENT_POSITION_AND_DIR: x=35.685*, z=-50.129*, y=9.001*, direction=143.0°*
  1: 0x042C [0x00] END_REQSTACK()
```

### Event 65535.80

#### Metadata

| Field        | Value    |
|--------------|----------|
| Entrypoint   | 0x042D   |
| Data Size    | 10 bytes |
| Instructions | 2        |

```
      00 01 02 03 04 05 06 07  08 09 0A 0B 0C 0D 0E 0F
      -- -- -- -- -- -- -- --  -- -- -- -- -- -- -- --
0420:                                         37 FB 80               7..
0430: FC 80 FD 80 FE 80 00                              .......         
```

#### Opcodes

```
  0: 0x042D [0x37] UPDATE_EVENT_POSITION_AND_DIR: x=-278.719*, z=-417.230*, y=-39.909*, direction=239.6°*
  1: 0x0436 [0x00] END_REQSTACK()
```

### Event 65535.81

#### Metadata

| Field        | Value    |
|--------------|----------|
| Entrypoint   | 0x0437   |
| Data Size    | 10 bytes |
| Instructions | 2        |

```
      00 01 02 03 04 05 06 07  08 09 0A 0B 0C 0D 0E 0F
      -- -- -- -- -- -- -- --  -- -- -- -- -- -- -- --
0430:                      37  FF 80 00 81 01 81 02 81         7........
0440: 00                                                .               
```

#### Opcodes

```
  0: 0x0437 [0x37] UPDATE_EVENT_POSITION_AND_DIR: x=571.326*, z=-272.093*, y=-0.349*, direction=37.1°*
  1: 0x0440 [0x00] END_REQSTACK()
```

### Event 65535.82

#### Metadata

| Field        | Value    |
|--------------|----------|
| Entrypoint   | 0x0441   |
| Data Size    | 10 bytes |
| Instructions | 2        |

```
      00 01 02 03 04 05 06 07  08 09 0A 0B 0C 0D 0E 0F
      -- -- -- -- -- -- -- --  -- -- -- -- -- -- -- --
0440:    37 03 81 04 81 05 81  06 81 00                  7.........     
```

#### Opcodes

```
  0: 0x0441 [0x37] UPDATE_EVENT_POSITION_AND_DIR: x=-281.057*, z=-421.233*, y=-39.794*, direction=157.8°*
  1: 0x044A [0x00] END_REQSTACK()
```

### Event 65535.83

#### Metadata

| Field        | Value    |
|--------------|----------|
| Entrypoint   | 0x044B   |
| Data Size    | 10 bytes |
| Instructions | 2        |

```
      00 01 02 03 04 05 06 07  08 09 0A 0B 0C 0D 0E 0F
      -- -- -- -- -- -- -- --  -- -- -- -- -- -- -- --
0440:                                   37 07 81 08 81             7....
0450: 02 80 09 81 00                                    .....           
```

#### Opcodes

```
  0: 0x044B [0x37] UPDATE_EVENT_POSITION_AND_DIR: x=561.040*, z=-276.985*, y=0.000*, direction=152.3°*
  1: 0x0454 [0x00] END_REQSTACK()
```

### Event 65535.84

#### Metadata

| Field        | Value    |
|--------------|----------|
| Entrypoint   | 0x0455   |
| Data Size    | 10 bytes |
| Instructions | 2        |

```
      00 01 02 03 04 05 06 07  08 09 0A 0B 0C 0D 0E 0F
      -- -- -- -- -- -- -- --  -- -- -- -- -- -- -- --
0450:                37 0A 81  0B 81 0C 81 0D 81 00          7......... 
```

#### Opcodes

```
  0: 0x0455 [0x37] UPDATE_EVENT_POSITION_AND_DIR: x=-358.228*, z=19.933*, y=-35.004*, direction=184.3°*
  1: 0x045E [0x00] END_REQSTACK()
```

### Event 65535.85

#### Metadata

| Field        | Value    |
|--------------|----------|
| Entrypoint   | 0x045F   |
| Data Size    | 10 bytes |
| Instructions | 2        |

```
      00 01 02 03 04 05 06 07  08 09 0A 0B 0C 0D 0E 0F
      -- -- -- -- -- -- -- --  -- -- -- -- -- -- -- --
0450:                                               37                 7
0460: 0E 81 0F 81 10 81 11 81  00                       .........       
```

#### Opcodes

```
  0: 0x045F [0x37] UPDATE_EVENT_POSITION_AND_DIR: x=121.457*, z=115.601*, y=-7.981*, direction=307.3°*
  1: 0x0468 [0x00] END_REQSTACK()
```

### Event 65535.86

#### Metadata

| Field        | Value    |
|--------------|----------|
| Entrypoint   | 0x0469   |
| Data Size    | 10 bytes |
| Instructions | 2        |

```
      00 01 02 03 04 05 06 07  08 09 0A 0B 0C 0D 0E 0F
      -- -- -- -- -- -- -- --  -- -- -- -- -- -- -- --
0460:                             37 12 81 13 81 14 81           7......
0470: 15 81 00                                          ...             
```

#### Opcodes

```
  0: 0x0469 [0x37] UPDATE_EVENT_POSITION_AND_DIR: x=154.569*, z=-174.284*, y=0.551*, direction=205.0°*
  1: 0x0472 [0x00] END_REQSTACK()
```

### Event 65535.87

#### Metadata

| Field        | Value    |
|--------------|----------|
| Entrypoint   | 0x0473   |
| Data Size    | 10 bytes |
| Instructions | 2        |

```
      00 01 02 03 04 05 06 07  08 09 0A 0B 0C 0D 0E 0F
      -- -- -- -- -- -- -- --  -- -- -- -- -- -- -- --
0470:          37 16 81 17 81  18 81 19 81 00              7.........   
```

#### Opcodes

```
  0: 0x0473 [0x37] UPDATE_EVENT_POSITION_AND_DIR: x=-15.373*, z=104.022*, y=-17.300*, direction=78.1°*
  1: 0x047C [0x00] END_REQSTACK()
```

### Event 65535.88

#### Metadata

| Field        | Value    |
|--------------|----------|
| Entrypoint   | 0x047D   |
| Data Size    | 12 bytes |
| Instructions | 3        |

```
      00 01 02 03 04 05 06 07  08 09 0A 0B 0C 0D 0E 0F
      -- -- -- -- -- -- -- --  -- -- -- -- -- -- -- --
0470:                                         33 01 37               3.7
0480: 1A 81 1B 81 1C 81 1D 81  00                       .........       
```

#### Opcodes

```
  0: 0x047D [0x33] EventEntity->Render.Flags0 |= 0x200000 // Bit 21 (flag=0x01)
  1: 0x047F [0x37] UPDATE_EVENT_POSITION_AND_DIR: x=0.646*, z=-26.695*, y=-7.109*, direction=147.0°*
  2: 0x0488 [0x00] END_REQSTACK()
```

### Event 65535.89

#### Metadata

| Field        | Value    |
|--------------|----------|
| Entrypoint   | 0x0489   |
| Data Size    | 10 bytes |
| Instructions | 2        |

```
      00 01 02 03 04 05 06 07  08 09 0A 0B 0C 0D 0E 0F
      -- -- -- -- -- -- -- --  -- -- -- -- -- -- -- --
0480:                             37 1E 81 1F 81 20 81           7.... .
0490: 21 81 00                                          !..             
```

#### Opcodes

```
  0: 0x0489 [0x37] UPDATE_EVENT_POSITION_AND_DIR: x=-0.047*, z=-32.521*, y=-23.499*, direction=89.7°*
  1: 0x0492 [0x00] END_REQSTACK()
```

### Event 65535.90

#### Metadata

| Field        | Value    |
|--------------|----------|
| Entrypoint   | 0x0493   |
| Data Size    | 10 bytes |
| Instructions | 2        |

```
      00 01 02 03 04 05 06 07  08 09 0A 0B 0C 0D 0E 0F
      -- -- -- -- -- -- -- --  -- -- -- -- -- -- -- --
0490:          37 22 81 23 81  4A 80 24 81 00              7".#.J.$..   
```

#### Opcodes

```
  0: 0x0493 [0x37] UPDATE_EVENT_POSITION_AND_DIR: x=-109.783*, z=201.559*, y=-12.999*, direction=273.1°*
  1: 0x049C [0x00] END_REQSTACK()
```

### Event 65535.91

#### Metadata

| Field        | Value    |
|--------------|----------|
| Entrypoint   | 0x049D   |
| Data Size    | 10 bytes |
| Instructions | 2        |

```
      00 01 02 03 04 05 06 07  08 09 0A 0B 0C 0D 0E 0F
      -- -- -- -- -- -- -- --  -- -- -- -- -- -- -- --
0490:                                         37 25 81               7%.
04A0: 26 81 43 80 27 81 00                              &.C.'..         
```

#### Opcodes

```
  0: 0x049D [0x37] UPDATE_EVENT_POSITION_AND_DIR: x=-106.082*, z=200.217*, y=-12.000*, direction=343.2°*
  1: 0x04A6 [0x00] END_REQSTACK()
```

### Event 65535.92

#### Metadata

| Field        | Value    |
|--------------|----------|
| Entrypoint   | 0x04A7   |
| Data Size    | 10 bytes |
| Instructions | 2        |

```
      00 01 02 03 04 05 06 07  08 09 0A 0B 0C 0D 0E 0F
      -- -- -- -- -- -- -- --  -- -- -- -- -- -- -- --
04A0:                      37  28 81 29 81 43 80 2A 81         7(.).C.*.
04B0: 00                                                .               
```

#### Opcodes

```
  0: 0x04A7 [0x37] UPDATE_EVENT_POSITION_AND_DIR: x=-104.660*, z=198.959*, y=-12.000*, direction=304.9°*
  1: 0x04B0 [0x00] END_REQSTACK()
```

### Event 65535.93

#### Metadata

| Field        | Value    |
|--------------|----------|
| Entrypoint   | 0x04B1   |
| Data Size    | 10 bytes |
| Instructions | 2        |

```
      00 01 02 03 04 05 06 07  08 09 0A 0B 0C 0D 0E 0F
      -- -- -- -- -- -- -- --  -- -- -- -- -- -- -- --
04B0:    37 2B 81 2C 81 43 80  2D 81 00                  7+.,.C.-..     
```

#### Opcodes

```
  0: 0x04B1 [0x37] UPDATE_EVENT_POSITION_AND_DIR: x=-104.001*, z=198.792*, y=-12.000*, direction=327.0°*
  1: 0x04BA [0x00] END_REQSTACK()
```

### Event 65535.94

#### Metadata

| Field        | Value    |
|--------------|----------|
| Entrypoint   | 0x04BB   |
| Data Size    | 10 bytes |
| Instructions | 2        |

```
      00 01 02 03 04 05 06 07  08 09 0A 0B 0C 0D 0E 0F
      -- -- -- -- -- -- -- --  -- -- -- -- -- -- -- --
04B0:                                   37 2E 81 2F 81             7../.
04C0: 4A 80 30 81 00                                    J.0..           
```

#### Opcodes

```
  0: 0x04BB [0x37] UPDATE_EVENT_POSITION_AND_DIR: x=-111.041*, z=200.598*, y=-12.999*, direction=296.8°*
  1: 0x04C4 [0x00] END_REQSTACK()
```

### Event 65535.95

#### Metadata

| Field        | Value    |
|--------------|----------|
| Entrypoint   | 0x04C5   |
| Data Size    | 10 bytes |
| Instructions | 2        |

```
      00 01 02 03 04 05 06 07  08 09 0A 0B 0C 0D 0E 0F
      -- -- -- -- -- -- -- --  -- -- -- -- -- -- -- --
04C0:                37 31 81  32 81 33 81 34 81 00          71.2.3.4.. 
```

#### Opcodes

```
  0: 0x04C5 [0x37] UPDATE_EVENT_POSITION_AND_DIR: x=-105.335*, z=199.398*, y=-11.999*, direction=316.2°*
  1: 0x04CE [0x00] END_REQSTACK()
```

### Event 65535.96

#### Metadata

| Field        | Value    |
|--------------|----------|
| Entrypoint   | 0x04CF   |
| Data Size    | 10 bytes |
| Instructions | 2        |

```
      00 01 02 03 04 05 06 07  08 09 0A 0B 0C 0D 0E 0F
      -- -- -- -- -- -- -- --  -- -- -- -- -- -- -- --
04C0:                                               37                 7
04D0: 35 81 36 81 33 81 37 81  00                       5.6.3.7..       
```

#### Opcodes

```
  0: 0x04CF [0x37] UPDATE_EVENT_POSITION_AND_DIR: x=-104.728*, z=199.518*, y=-11.999*, direction=330.5°*
  1: 0x04D8 [0x00] END_REQSTACK()
```

### Event 65535.97

#### Metadata

| Field        | Value    |
|--------------|----------|
| Entrypoint   | 0x04D9   |
| Data Size    | 10 bytes |
| Instructions | 2        |

```
      00 01 02 03 04 05 06 07  08 09 0A 0B 0C 0D 0E 0F
      -- -- -- -- -- -- -- --  -- -- -- -- -- -- -- --
04D0:                             37 38 81 39 81 33 81           78.9.3.
04E0: 3A 81 00                                          :..             
```

#### Opcodes

```
  0: 0x04D9 [0x37] UPDATE_EVENT_POSITION_AND_DIR: x=-104.528*, z=198.597*, y=-11.999*, direction=4.2°*
  1: 0x04E2 [0x00] END_REQSTACK()
```

### Event 65535.98

#### Metadata

| Field        | Value    |
|--------------|----------|
| Entrypoint   | 0x04E3   |
| Data Size    | 15 bytes |
| Instructions | 5        |

```
      00 01 02 03 04 05 06 07  08 09 0A 0B 0C 0D 0E 0F
      -- -- -- -- -- -- -- --  -- -- -- -- -- -- -- --
04E0:          32 40 80 1F 00  3B 81 3C 81 33 81 1F 01     2@...;.<.3...
04F0: 6F 00                                             o.              
```

#### Opcodes

```
  0: 0x04E3 [0x32] ExtData[1]->MainSpeed = 13* * 0.1
  1: 0x04E6 [0x1F] MOVE_ENTITY: EventEntity moves to X=-102.961*, Z=196.998*, Y=-11.999*
  2: 0x04EE [0x1F] MOVE_ENTITY: Update entity position (mode=1)
  3: 0x04F0 [0x6F] WAIT_FRAME_DELAY: Yield until WaitTime reaches zero
  4: 0x04F1 [0x00] END_REQSTACK()
```

### Event 65535.99

#### Metadata

| Field        | Value    |
|--------------|----------|
| Entrypoint   | 0x04F2   |
| Data Size    | 20 bytes |
| Instructions | 3        |

```
      00 01 02 03 04 05 06 07  08 09 0A 0B 0C 0D 0E 0F
      -- -- -- -- -- -- -- --  -- -- -- -- -- -- -- --
04F0:       79 00 F8 FF FF 7F  1A F0 0E 01 37 3D 81 3E    y.........7=.>
0500: 81 39 80 3F 81 00                                 .9.?..          
```

#### Opcodes

```
  0: 0x04F2 [0x79] EventEntity looks at Shantotto (ID: 17756186/0x010EF01A) (Basic look)
  1: 0x04FC [0x37] UPDATE_EVENT_POSITION_AND_DIR: x=122.453*, z=111.934*, y=-3.000*, direction=269.6°*
  2: 0x0505 [0x00] END_REQSTACK()
```

### Event 65535.100

#### Metadata

| Field        | Value   |
|--------------|---------|
| Entrypoint   | 0x0506  |
| Data Size    | 1 bytes |
| Instructions | 1       |

```
      00 01 02 03 04 05 06 07  08 09 0A 0B 0C 0D 0E 0F
      -- -- -- -- -- -- -- --  -- -- -- -- -- -- -- --
0500:                   00                                    .         
```

#### Opcodes

```
  0: 0x0506 [0x00] END_REQSTACK()
```

### Event 65535.101

#### Metadata

| Field        | Value   |
|--------------|---------|
| Entrypoint   | 0x0507  |
| Data Size    | 1 bytes |
| Instructions | 1       |

```
      00 01 02 03 04 05 06 07  08 09 0A 0B 0C 0D 0E 0F
      -- -- -- -- -- -- -- --  -- -- -- -- -- -- -- --
0500:                      00                                  .        
```

#### Opcodes

```
  0: 0x0507 [0x00] END_REQSTACK()
```

### Event 499

#### Metadata

| Field        | Value     |
|--------------|-----------|
| Entrypoint   | 0x0508    |
| Data Size    | 301 bytes |
| Instructions | 41        |

```
      00 01 02 03 04 05 06 07  08 09 0A 0B 0C 0D 0E 0F
      -- -- -- -- -- -- -- --  -- -- -- -- -- -- -- --
0500:                          42 45 45 80 F8 FF FF 7F          BEE.....
0510: F8 FF FF 7F 66 64 6F 31  02 80 55 45 80 F8 FF FF  ....fdo1..UE....
0520: 7F F8 FF FF 7F 66 64 6F  31 38 40 81 46 01 37 41  .....fdo18@.F.7A
0530: 81 42 81 43 81 44 81 29  05 5A F0 0E 01 06 45 45  .B.C.D.).Z....EE
0540: 81 F8 FF FF 7F F8 FF FF  7F 73 30 37 30 02 80 1C  .........s070...
0550: A9 80 45 45 80 F8 FF FF  7F F8 FF FF 7F 66 64 69  ..EE.........fdi
0560: 31 02 80 1C A9 80 48 46  81 1C A9 80 4A 49 F0 0E  1.....HF....JI..
0570: 01 F0 FF FF 7F 1C 47 81  66 50 80 49 F0 0E 01 49  ......G.fP.I...I
0580: F0 0E 01 74 6C 6B 30 2B  49 F0 0E 01 48 81 23 48  ...tlk0+I...H.#H
0590: 49 81 66 50 80 49 F0 0E  01 49 F0 0E 01 74 6C 6B  I.fP.I...I...tlk
05A0: 31 1C A9 80 4A 49 F0 0E  01 5A F0 0E 01 52 45 81  1...JI...Z...RE.
05B0: F8 FF FF 7F F8 FF FF 7F  73 30 37 30 45 45 81 F8  ........s070EE..
05C0: FF FF 7F F8 FF FF 7F 73  30 37 31 02 80 4A 5A F0  .......s071..JZ.
05D0: 0E 01 49 F0 0E 01 6F 70  2B 5A F0 0E 01 4A 81 23  ..I...op+Z...J.#
05E0: 1C 47 81 48 4B 81 1E 5A  F0 0E 01 1C 4C 81 45 45  .G.HK..Z....L.EE
05F0: 80 F8 FF FF 7F F8 FF FF  7F 66 64 6F 31 02 80 55  .........fdo1..U
0600: 45 80 F8 FF FF 7F F8 FF  FF 7F 66 64 6F 31 52 45  E.........fdo1RE
0610: 81 F8 FF FF 7F F8 FF FF  7F 73 30 37 31 46 00 1C  .........s071F..
0620: A9 80 45 45 80 F8 FF FF  7F F8 FF FF 7F 66 64 69  ..EE.........fdi
0630: 31 02 80 21 00                                    1..!.           
```

#### Opcodes

```
  0: 0x0508 [0x42] SET_CLI_EVENT_CANCEL_DATA()
  1: 0x0509 [0x45] LOAD_SCHEDULED_TASK: Load scheduler "fdo1" with entities [EventEntity, EventEntity], work=[200*, 0*]
  2: 0x051A [0x55] WAIT_LOAD_SCHEDULER: Wait for scheduler "fdo1" with entities [EventEntity, EventEntity], work=200*
  3: 0x0529 [0x38] SET_CLIENT_EVENT_MODE(mode=19*)
  4: 0x052C [0x46] CAMERA_CONTROL: Disable user control
  5: 0x052E [0x37] UPDATE_EVENT_POSITION_AND_DIR: x=0.323*, z=289.208*, y=-10.000*, direction=183.5°*
  6: 0x0537 [0x29] REQ_SET_WAIT(priority=0x05, entity_id=Juna Moshal (ID: 17756250/0x010EF05A), tag_num=0x06)
  7: 0x053E [0x45] LOAD_SCHEDULED_TASK: Load scheduler "s070" with entities [EventEntity, EventEntity], work=[199*, 0*]
  8: 0x054F [0x1C] WAIT(60* ticks)
  9: 0x0552 [0x45] LOAD_SCHEDULED_TASK: Load scheduler "fdi1" with entities [EventEntity, EventEntity], work=[200*, 0*]
 10: 0x0563 [0x1C] WAIT(60* ticks)
 11: 0x0566 [0x48] [System] [9608*]:
    → "<Player>'s badge flashes brightly."
 12: 0x0569 [0x1C] WAIT(60* ticks)
 13: 0x056C [0x4A] Chomomo (ID: 17756233/0x010EF049) looks at LocalPlayer
 14: 0x0575 [0x1C] WAIT(45* ticks)
 15: 0x0578 [0x66] LOAD_EXT_SCHEDULER_MAIN: Load scheduler "tlk0" with entities [Chomomo (ID: 17756233/0x010EF049), Chomomo (ID: 17756233/0x010EF049)], work=40*
 16: 0x0587 [0x2B] Chomomo (ID: 17756233/0x010EF049) [9616*]:
    → "I'm looking for baddie-waddies. This shiny-winy badge proves that you're a good guy, though. I want lots and lots of them!"
 17: 0x058E [0x23] WAIT_FOR_DIALOG_INTERACTION
 18: 0x058F [0x48] [System] [9617*]:
    → "Chomomo's badge flashes brightly."
 19: 0x0592 [0x66] LOAD_EXT_SCHEDULER_MAIN: Load scheduler "tlk1" with entities [Chomomo (ID: 17756233/0x010EF049), Chomomo (ID: 17756233/0x010EF049)], work=40*
 20: 0x05A1 [0x1C] WAIT(60* ticks)
 21: 0x05A4 [0x4A] Chomomo (ID: 17756233/0x010EF049) looks at Juna Moshal (ID: 17756250/0x010EF05A)
 22: 0x05AD [0x52] END_LOAD_SCHEDULER: End scheduler "s070" with entities [EventEntity, EventEntity], work=199*
 23: 0x05BC [0x45] LOAD_SCHEDULED_TASK: Load scheduler "s071" with entities [EventEntity, EventEntity], work=[199*, 0*]
 24: 0x05CD [0x4A] Juna Moshal (ID: 17756250/0x010EF05A) looks at Chomomo (ID: 17756233/0x010EF049)
 25: 0x05D6 [0x6F] WAIT_FRAME_DELAY: Yield until WaitTime reaches zero
 26: 0x05D7 [0x70] WAIT_ENTITY_RENDER_FLAG: Wait while EventEntity->Render.Flags3 bit 2 is set (cancel turn if not)
 27: 0x05D8 [0x2B] Juna Moshal (ID: 17756250/0x010EF05A) [9618*]:
    → "Stay on your guard! Don't get caught up in adults' sneaky trrricks."
 28: 0x05DF [0x23] WAIT_FOR_DIALOG_INTERACTION
 29: 0x05E0 [0x1C] WAIT(45* ticks)
 30: 0x05E3 [0x48] [System] [9619*]:
    → "Juna Moshal's badge flashes brightly."
