# 17339191 - ex01

## Common Data

| Field            | Value                   |
|------------------|-------------------------|
| Zone             | Xarcabard [S] (ID: 137) |
| Block Size       | 4428 bytes              |
| Total Events     | 97                      |
| References Count | 290                     |

## List of Events

| Event ID                   | Entrypoint   |   Size |   Instructions |
|----------------------------|--------------|--------|----------------|
| [65535](#event-65535)      | 0x0000       |      1 |              1 |
| [65535.1](#event-655351)   | 0x0001       |      1 |              1 |
| [65535.2](#event-655352)   | 0x0002       |     18 |              4 |
| [65535.3](#event-655353)   | 0x0014       |     10 |              2 |
| [65535.4](#event-655354)   | 0x001E       |      9 |              3 |
| [65535.5](#event-655355)   | 0x0027       |      9 |              3 |
| [65535.6](#event-655356)   | 0x0030       |     10 |              2 |
| [65535.7](#event-655357)   | 0x003A       |     10 |              2 |
| [65535.8](#event-655358)   | 0x0044       |     20 |              5 |
| [65535.9](#event-655359)   | 0x0058       |     51 |             12 |
| [65535.10](#event-6553510) | 0x008B       |     30 |              7 |
| [65535.11](#event-6553511) | 0x00A9       |     13 |              3 |
| [65535.12](#event-6553512) | 0x00B6       |     13 |              3 |
| [65535.13](#event-6553513) | 0x00C3       |    122 |             16 |
| [65535.14](#event-6553514) | 0x013D       |     30 |              7 |
| [65535.15](#event-6553515) | 0x015B       |     40 |              9 |
| [65535.16](#event-6553516) | 0x0183       |     98 |             20 |
| [65535.17](#event-6553517) | 0x01E5       |     20 |              5 |
| [65535.18](#event-6553518) | 0x01F9       |     20 |              5 |
| [65535.19](#event-6553519) | 0x020D       |     85 |             17 |
| [65535.20](#event-6553520) | 0x0262       |     40 |              9 |
| [65535.21](#event-6553521) | 0x028A       |     50 |             11 |
| [65535.22](#event-6553522) | 0x02BC       |     20 |              5 |
| [65535.23](#event-6553523) | 0x02D0       |     23 |              6 |
| [65535.24](#event-6553524) | 0x02E7       |     30 |              7 |
| [65535.25](#event-6553525) | 0x0305       |     30 |              7 |
| [65535.26](#event-6553526) | 0x0323       |     23 |              6 |
| [65535.27](#event-6553527) | 0x033A       |     13 |              3 |
| [65535.28](#event-6553528) | 0x0347       |     29 |              6 |
| [65535.29](#event-6553529) | 0x0364       |     29 |              6 |
| [65535.30](#event-6553530) | 0x0381       |     42 |              7 |
| [65535.31](#event-6553531) | 0x03AB       |     70 |             15 |
| [65535.32](#event-6553532) | 0x03F1       |     90 |             17 |
| [65535.33](#event-6553533) | 0x044B       |     90 |             17 |
| [65535.34](#event-6553534) | 0x04A5       |     55 |             12 |
| [65535.35](#event-6553535) | 0x04DC       |     55 |             12 |
| [65535.36](#event-6553536) | 0x0513       |     60 |             13 |
| [65535.37](#event-6553537) | 0x054F       |     60 |             13 |
| [65535.38](#event-6553538) | 0x058B       |     20 |              5 |
| [65535.39](#event-6553539) | 0x059F       |     20 |              5 |
| [65535.40](#event-6553540) | 0x05B3       |     30 |              7 |
| [65535.41](#event-6553541) | 0x05D1       |     13 |              3 |
| [65535.42](#event-6553542) | 0x05DE       |     16 |              4 |
| [65535.43](#event-6553543) | 0x05EE       |     33 |              8 |
| [65535.44](#event-6553544) | 0x060F       |     30 |              7 |
| [65535.45](#event-6553545) | 0x062D       |     33 |              8 |
| [65535.46](#event-6553546) | 0x064E       |     30 |              7 |
| [65535.47](#event-6553547) | 0x066C       |     30 |              7 |
| [65535.48](#event-6553548) | 0x068A       |     33 |              8 |
| [65535.49](#event-6553549) | 0x06AB       |     30 |              7 |
| [65535.50](#event-6553550) | 0x06C9       |     40 |              9 |
| [65535.51](#event-6553551) | 0x06F1       |     40 |              9 |
| [65535.52](#event-6553552) | 0x0719       |     40 |              9 |
| [65535.53](#event-6553553) | 0x0741       |     40 |              9 |
| [65535.54](#event-6553554) | 0x0769       |     40 |              9 |
| [65535.55](#event-6553555) | 0x0791       |     40 |              9 |
| [65535.56](#event-6553556) | 0x07B9       |     40 |              9 |
| [65535.57](#event-6553557) | 0x07E1       |     64 |              8 |
| [65535.58](#event-6553558) | 0x0821       |     46 |              6 |
| [65535.59](#event-6553559) | 0x084F       |     46 |              6 |
| [65535.60](#event-6553560) | 0x087D       |     27 |              6 |
| [65535.61](#event-6553561) | 0x0898       |     27 |              6 |
| [65535.62](#event-6553562) | 0x08B3       |     30 |              6 |
| [65535.63](#event-6553563) | 0x08D1       |     30 |              6 |
| [65535.64](#event-6553564) | 0x08EF       |     50 |             11 |
| [65535.65](#event-6553565) | 0x0921       |     50 |             11 |
| [19](#event-19)            | 0x0953       |      1 |              1 |
| [21](#event-21)            | 0x0954       |      1 |              1 |
| [23](#event-23)            | 0x0955       |      1 |              1 |
| [39](#event-39)            | 0x0956       |      1 |              1 |
| [24](#event-24)            | 0x0957       |      1 |              1 |
| [65535.66](#event-6553566) | 0x0958       |     21 |              2 |
| [65535.67](#event-6553567) | 0x096D       |     21 |              2 |
| [65535.68](#event-6553568) | 0x0982       |     21 |              2 |
| [65535.69](#event-6553569) | 0x0997       |     21 |              2 |
| [18](#event-18)            | 0x09AC       |      1 |              1 |
| [65535.70](#event-6553570) | 0x09AD       |     25 |              3 |
| [65535.71](#event-6553571) | 0x09C6       |     25 |              3 |
| [65535.72](#event-6553572) | 0x09DF       |     25 |              3 |
| [65535.73](#event-6553573) | 0x09F8       |     25 |              3 |
| [65535.74](#event-6553574) | 0x0A11       |     25 |              3 |
| [65535.75](#event-6553575) | 0x0A2A       |     25 |              3 |
| [65535.76](#event-6553576) | 0x0A43       |     15 |              5 |
| [65535.77](#event-6553577) | 0x0A52       |     21 |              2 |
| [65535.78](#event-6553578) | 0x0A67       |     21 |              2 |
| [65535.79](#event-6553579) | 0x0A7C       |     21 |              2 |
| [65535.80](#event-6553580) | 0x0A91       |     21 |              2 |
| [65535.81](#event-6553581) | 0x0AA6       |     21 |              2 |
| [65535.82](#event-6553582) | 0x0ABB       |     21 |              2 |
| [65535.83](#event-6553583) | 0x0AD0       |     21 |              2 |
| [65535.84](#event-6553584) | 0x0AE5       |     21 |              2 |
| [65535.85](#event-6553585) | 0x0AFA       |     13 |              3 |
| [65535.86](#event-6553586) | 0x0B07       |     13 |              3 |
| [65535.87](#event-6553587) | 0x0B14       |     13 |              3 |
| [65535.88](#event-6553588) | 0x0B21       |     13 |              3 |
| [22](#event-22)            | 0x0B2E       |      1 |              1 |
| [42](#event-42)            | 0x0B2F       |      1 |              1 |

## DAT References (imed_data)

|   Index | Hex Value   |   Dec Value |
|---------|-------------|-------------|
|       0 | 0x0000      |           0 |
|       1 | 0x0001      |           1 |
|       2 | 0x0080      |         128 |
|       3 | 0x0025      |          37 |
|       4 | 0xC4D3      |       50387 |
|       5 | 0xFFFCA453  |  4294747219 |
|       6 | 0xFFFFA4E5  |  4294943973 |
|       7 | 0x000D      |          13 |
|       8 | 0xF11D      |       61725 |
|       9 | 0xFFFC9797  |  4294743959 |
|      10 | 0xFFFFA2B1  |  4294943409 |
|      11 | 0xEB52      |       60242 |
|      12 | 0xFFFC9421  |  4294743073 |
|      13 | 0xFFFFA2FB  |  4294943483 |
|      14 | 0xDEB3      |       57011 |
|      15 | 0xFFFC9550  |  4294743376 |
|      16 | 0xFFFFA39C  |  4294943644 |
|      17 | 0xDE37      |       56887 |
|      18 | 0xFFFC9730  |  4294743856 |
|      19 | 0xFFFFA3A2  |  4294943650 |
|      20 | 0xEE0E      |       60942 |
|      21 | 0xFFFC9A1D  |  4294744605 |
|      22 | 0xFFFFA2D8  |  4294943448 |
|      23 | 0xE4D2      |       58578 |
|      24 | 0xFFFC9949  |  4294744393 |
|      25 | 0xFFFFA34E  |  4294943566 |
|      26 | 0x0024      |          36 |
|      27 | 0x002B      |          43 |
|      28 | 0x0078      |         120 |
|      29 | 0x052E      |        1326 |
|      30 | 0x0005      |           5 |
|      31 | 0x0003      |           3 |
|      32 | 0x001E      |          30 |
|      33 | 0x000F      |          15 |
|      34 | 0x000A      |          10 |
|      35 | 0xCD46      |       52550 |
|      36 | 0xFFFC9059  |  4294742105 |
|      37 | 0xFFFFA47D  |  4294943869 |
|      38 | 0x128D3     |       75987 |
|      39 | 0xFFFC36F0  |  4294719216 |
|      40 | 0xFFFFA153  |  4294943059 |
|      41 | 0x0026      |          38 |
|      42 | 0xBCFE      |       48382 |
|      43 | 0xFFFC9583  |  4294743427 |
|      44 | 0xFFFFA48C  |  4294943884 |
|      45 | 0xBA9D      |       47773 |
|      46 | 0xFFFC8715  |  4294739733 |
|      47 | 0xFFFFA48E  |  4294943886 |
|      48 | 0x0008      |           8 |
|      49 | 0x0041      |          65 |
|      50 | 0x25E4D     |      155213 |
|      51 | 0xFFFFB0D3  |  4294947027 |
|      52 | 0xFFFFC48F  |  4294952079 |
|      53 | 0x26DE6     |      159206 |
|      54 | 0xFFFFB78B  |  4294948747 |
|      55 | 0xFFFFC51F  |  4294952223 |
|      56 | 0x27574     |      161140 |
|      57 | 0xFFFFB6B2  |  4294948530 |
|      58 | 0xFFFFC3B4  |  4294951860 |
|      59 | 0x259A3     |      154019 |
|      60 | 0xFFFFADFD  |  4294946301 |
|      61 | 0xFFFFC364  |  4294951780 |
|      62 | 0x26CE9     |      158953 |
|      63 | 0xFFFFB80B  |  4294948875 |
|      64 | 0xFFFFC519  |  4294952217 |
|      65 | 0x27518     |      161048 |
|      66 | 0xFFFFB9E3  |  4294949347 |
|      67 | 0xFFFFC3AC  |  4294951852 |
|      68 | 0x279C7     |      162247 |
|      69 | 0xFFFFB9DC  |  4294949340 |
|      70 | 0xFFFFC241  |  4294951489 |
|      71 | 0x25AAB     |      154283 |
|      72 | 0xFFFFBC5E  |  4294949982 |
|      73 | 0xFFFFC2FE  |  4294951678 |
|      74 | 0x003C      |          60 |
|      75 | 0x25742     |      153410 |
|      76 | 0xFFFFB8A2  |  4294949026 |
|      77 | 0xFFFFC25A  |  4294951514 |
|      78 | 0x260C1     |      155841 |
|      79 | 0xFFFFA229  |  4294943273 |
|      80 | 0xFFFFC472  |  4294952050 |
|      81 | 0x25B0D     |      154381 |
|      82 | 0xFFFFAAAD  |  4294945453 |
|      83 | 0xFFFFC3BA  |  4294951866 |
|      84 | 0x25465     |      152677 |
|      85 | 0xFFFFAA38  |  4294945336 |
|      86 | 0xFFFFC215  |  4294951445 |
|      87 | 0x25BAC     |      154540 |
|      88 | 0xFFFFB57E  |  4294948222 |
|      89 | 0xFFFFC3B6  |  4294951862 |
|      90 | 0x0102      |         258 |
|      91 | 0xFFFD84FB  |  4294804731 |
|      92 | 0xFFFF8309  |  4294935305 |
|      93 | 0xFFFFA484  |  4294943876 |
|      94 | 0x000B      |          11 |
|      95 | 0xFFFD89B6  |  4294805942 |
|      96 | 0xFFFF7FDD  |  4294934493 |
|      97 | 0xFFFFA375  |  4294943605 |
|      98 | 0xFFFD7B5F  |  4294802271 |
|      99 | 0xFFFF6F9A  |  4294930330 |
|     100 | 0xFFFFA3B1  |  4294943665 |
|     101 | 0x0F86      |        3974 |
|     102 | 0x001D      |          29 |
|     103 | 0x0028      |          40 |
|     104 | 0xFFFDFFA5  |  4294836133 |
|     105 | 0xFFFF6B7F  |  4294929279 |
|     106 | 0xFFFFA467  |  4294943847 |
|     107 | 0xFFFDE96D  |  4294830445 |
|     108 | 0xFFFF6329  |  4294927145 |
|     109 | 0xFFFFA550  |  4294944080 |
|     110 | 0xFFFDCA9F  |  4294822559 |
|     111 | 0xFFFF5EB9  |  4294926009 |
|     112 | 0xFFFFA514  |  4294944020 |
|     113 | 0xFFFDB15A  |  4294816090 |
|     114 | 0xFFFF5F93  |  4294926227 |
|     115 | 0xFFFFA32F  |  4294943535 |
|     116 | 0xFFFD9D13  |  4294810899 |
|     117 | 0xFFFF66EC  |  4294928108 |
|     118 | 0xFFFFA23A  |  4294943290 |
|     119 | 0xFFFD7E1E  |  4294802974 |
|     120 | 0xFFFF65FF  |  4294927871 |
|     121 | 0xFFFFA396  |  4294943638 |
|     122 | 0xFFFD87F0  |  4294805488 |
|     123 | 0xFFFF604D  |  4294926413 |
|     124 | 0xFFFFA298  |  4294943384 |
|     125 | 0x0848      |        2120 |
|     126 | 0x00C8      |         200 |
|     127 | 0xFFFD89E7  |  4294805991 |
|     128 | 0xFFFF624E  |  4294926926 |
|     129 | 0xFFFFA281  |  4294943361 |
|     130 | 0x084E      |        2126 |
|     131 | 0x0014      |          20 |
|     132 | 0x00DC      |         220 |
|     133 | 0xFFFD91F7  |  4294808055 |
|     134 | 0xFFFF5255  |  4294922837 |
|     135 | 0xFFFFA257  |  4294943319 |
|     136 | 0xFFFDAF87  |  4294815623 |
|     137 | 0xFFFF4D8F  |  4294921615 |
|     138 | 0xFFFE1614  |  4294841876 |
|     139 | 0xFFFF49BA  |  4294920634 |
|     140 | 0xFFFFA1E3  |  4294943203 |
|     141 | 0xFFFD9B7B  |  4294810491 |
|     142 | 0xFFFF55E8  |  4294923752 |
|     143 | 0xFFFFA241  |  4294943297 |
|     144 | 0xFFFDD05A  |  4294824026 |
|     145 | 0xFFFF4F97  |  4294922135 |
|     146 | 0xFFFFA491  |  4294943889 |
|     147 | 0x0202      |         514 |
|     148 | 0xFFFDCBAD  |  4294822829 |
|     149 | 0xFFFF5A26  |  4294924838 |
|     150 | 0xFFFFA52F  |  4294944047 |
|     151 | 0xFFFDCD7E  |  4294823294 |
|     152 | 0xFFFF5257  |  4294922839 |
|     153 | 0xFFFFA4F1  |  4294943985 |
|     154 | 0xFFFD87A0  |  4294805408 |
|     155 | 0xFFFF6CA9  |  4294929577 |
|     156 | 0xFFFFA29E  |  4294943390 |
|     157 | 0xFFFD8741  |  4294805313 |
|     158 | 0xFFFF6221  |  4294926881 |
|     159 | 0xFFFFA2CE  |  4294943438 |
|     160 | 0xFFFDFAA8  |  4294834856 |
|     161 | 0xFFFF8C9C  |  4294937756 |
|     162 | 0xFFFFA899  |  4294944921 |
|     163 | 0x0002      |           2 |
|     164 | 0xFFFD8F4C  |  4294807372 |
|     165 | 0xFFFF907F  |  4294938751 |
|     166 | 0xFFFFA904  |  4294945028 |
|     167 | 0xFFFDAED0  |  4294815440 |
|     168 | 0xFFFF93DF  |  4294939615 |
|     169 | 0xFFFFA552  |  4294944082 |
|     170 | 0xFFFD95CD  |  4294809037 |
|     171 | 0xFFFF8C2D  |  4294937645 |
|     172 | 0xFFFFA76C  |  4294944620 |
|     173 | 0xFFFDB415  |  4294816789 |
|     174 | 0xFFFF92FF  |  4294939391 |
|     175 | 0xFFFFA3F2  |  4294943730 |
|     176 | 0xFFFD9ACB  |  4294810315 |
|     177 | 0xFFFF887E  |  4294936702 |
|     178 | 0xFFFFA5DC  |  4294944220 |
|     179 | 0xFFFDB771  |  4294817649 |
|     180 | 0xFFFF9822  |  4294940706 |
|     181 | 0xFFFFA789  |  4294944649 |
|     182 | 0xFFFD92C2  |  4294808258 |
|     183 | 0xFFFF9521  |  4294939937 |
|     184 | 0xFFFFA99B  |  4294945179 |
|     185 | 0xFFFDB04B  |  4294815819 |
|     186 | 0xFFFF976C  |  4294940524 |
|     187 | 0xFFFFA77E  |  4294944638 |
|     188 | 0xFFFDA5A7  |  4294813095 |
|     189 | 0xFFFF8786  |  4294936454 |
|     190 | 0xFFFFA3A4  |  4294943652 |
|     191 | 0xFFFDBDEA  |  4294819306 |
|     192 | 0xFFFF99E2  |  4294941154 |
|     193 | 0xFFFFA84D  |  4294944845 |
|     194 | 0xFFFDA0BA  |  4294811834 |
|     195 | 0xFFFF8B7F  |  4294937471 |
|     196 | 0xFFFFA54F  |  4294944079 |
|     197 | 0xFFFDBFF5  |  4294819829 |
|     198 | 0xFFFF95EC  |  4294940140 |
|     199 | 0xFFFFA521  |  4294944033 |
|     200 | 0xFFFD995E  |  4294809950 |
|     201 | 0xFFFF8F8E  |  4294938510 |
|     202 | 0xFFFFA774  |  4294944628 |
|     203 | 0xFFFDB9E7  |  4294818279 |
|     204 | 0xFFFF9369  |  4294939497 |
|     205 | 0xFFFFA38A  |  4294943626 |
|     206 | 0x0010      |          16 |
|     207 | 0xFFFDF2DE  |  4294832862 |
|     208 | 0xFFFFCEA2  |  4294954658 |
|     209 | 0xFFFFB95B  |  4294949211 |
|     210 | 0xFFFE0325  |  4294837029 |
|     211 | 0xFFFFFA96  |  4294965910 |
|     212 | 0xFFFFC2B8  |  4294951608 |
|     213 | 0x000E      |          14 |
|     214 | 0xFFF9439F  |  4294525855 |
|     215 | 0xFFFC8046  |  4294737990 |
|     216 | 0x4E1F      |       19999 |
|     217 | 0x0728      |        1832 |
|     218 | 0xFFF94555  |  4294526293 |
|     219 | 0xFFFC88F1  |  4294740209 |
|     220 | 0x0B63      |        2915 |
|     221 | 0x0064      |         100 |
|     222 | 0xFFFD9F6B  |  4294811499 |
|     223 | 0x1AD4      |        6868 |
|     224 | 0xFFFFC20F  |  4294951439 |
|     225 | 0xFFFD9956  |  4294809942 |
|     226 | 0x1A61      |        6753 |
|     227 | 0xFFFFC209  |  4294951433 |
|     228 | 0xFFFEADED  |  4294880749 |
|     229 | 0x15D6      |        5590 |
|     230 | 0xFFFFC248  |  4294951496 |
|     231 | 0xFFFF0536  |  4294903094 |
|     232 | 0x2F35      |       12085 |
|     233 | 0xFFFFB8FC  |  4294949116 |
|     234 | 0xFFFF19A9  |  4294908329 |
|     235 | 0x6173      |       24947 |
|     236 | 0xFFFFBFE3  |  4294950883 |
|     237 | 0xFFFF3C70  |  4294917232 |
|     238 | 0x6E52      |       28242 |
|     239 | 0xFFFFBDF6  |  4294950390 |
|     240 | 0xFFFE8FBD  |  4294873021 |
|     241 | 0xFFFFF60B  |  4294964747 |
|     242 | 0xFFFFC3F1  |  4294951921 |
|     243 | 0xFFFED904  |  4294891780 |
|     244 | 0xFFFFFE29  |  4294966825 |
|     245 | 0xFFFFC164  |  4294951268 |
|     246 | 0x00DD      |         221 |
|     247 | 0x00FA      |         250 |
|     248 | 0x001B      |          27 |
|     249 | 0x006D      |         109 |
|     250 | 0x0118      |         280 |
|     251 | 0x00DE      |         222 |
|     252 | 0x008A      |         138 |
|     253 | 0x0052      |          82 |
|     254 | 0x0021      |          33 |
|     255 | 0x007D      |         125 |
|     256 | 0x0060      |          96 |
|     257 | 0x0075      |         117 |
|     258 | 0x00FB      |         251 |
|     259 | 0x005F      |          95 |
|     260 | 0x0004      |           4 |
|     261 | 0x000C      |          12 |
|     262 | 0xFFFE153C  |  4294841660 |
|     263 | 0xFFFF4186  |  4294918534 |
|     264 | 0xFFFF9FE1  |  4294942689 |
|     265 | 0x0049      |          73 |
|     266 | 0x00A2      |         162 |
|     267 | 0x00B5      |         181 |
|     268 | 0x002C      |          44 |
|     269 | 0x001A      |          26 |
|     270 | 0x00B9      |         185 |
|     271 | 0x00D6      |         214 |
|     272 | 0x0167      |         359 |
|     273 | 0x006E      |         110 |
|     274 | 0x0084      |         132 |
|     275 | 0x0009      |           9 |
|     276 | 0x0156      |         342 |
|     277 | 0x0006      |           6 |
|     278 | 0x0074      |         116 |
|     279 | 0x0061      |          97 |
|     280 | 0x00CD      |         205 |
|     281 | 0x00BA      |         186 |
|     282 | 0x0094      |         148 |
|     283 | 0x0131      |         305 |
|     284 | 0x0007      |           7 |
|     285 | 0x0023      |          35 |
|     286 | 0x0036      |          54 |
|     287 | 0x00DB      |         219 |
|     288 | 0x0171      |         369 |
|     289 | 0x052B      |        1323 |

## Events

### Event 65535

#### Metadata

| Field        | Value   |
|--------------|---------|
| Entrypoint   | 0x0000  |
| Data Size    | 1 bytes |
| Instructions | 1       |

```
      00 01 02 03 04 05 06 07  08 09 0A 0B 0C 0D 0E 0F
      -- -- -- -- -- -- -- --  -- -- -- -- -- -- -- --
0000: 00                                                .               
```

#### Opcodes

```
  0: 0x0000 [0x00] END_REQSTACK()
```

### Event 65535.1

#### Metadata

| Field        | Value   |
|--------------|---------|
| Entrypoint   | 0x0001  |
| Data Size    | 1 bytes |
| Instructions | 1       |

```
      00 01 02 03 04 05 06 07  08 09 0A 0B 0C 0D 0E 0F
      -- -- -- -- -- -- -- --  -- -- -- -- -- -- -- --
0000:    00                                              .              
```

#### Opcodes

```
  0: 0x0001 [0x00] END_REQSTACK()
```

### Event 65535.2

#### Metadata

| Field        | Value    |
|--------------|----------|
| Entrypoint   | 0x0002   |
| Data Size    | 18 bytes |
| Instructions | 4        |

```
      00 01 02 03 04 05 06 07  08 09 0A 0B 0C 0D 0E 0F
      -- -- -- -- -- -- -- --  -- -- -- -- -- -- -- --
0000:       22 00 2F 00 F8 FF  FF 7F 6C F8 FF FF 7F 00    "./.....l.....
0010: 80 01 80 00                                       ....            
```

#### Opcodes

```
  0: 0x0002 [0x22] ENTITY_HIDE_FLAG(enabled=0x00)
  1: 0x0004 [0x2F] EventEntity->Render.Flags0 &= ~0x80000 // Bit 19
  2: 0x000A [0x6C] FADE_ENTITY_COLOR(entity_id=EventEntity, end_alpha=0*, fade_time=1*)
  3: 0x0013 [0x00] END_REQSTACK()
```

### Event 65535.3

#### Metadata

| Field        | Value    |
|--------------|----------|
| Entrypoint   | 0x0014   |
| Data Size    | 10 bytes |
| Instructions | 2        |

```
      00 01 02 03 04 05 06 07  08 09 0A 0B 0C 0D 0E 0F
      -- -- -- -- -- -- -- --  -- -- -- -- -- -- -- --
0010:             6C F8 FF FF  7F 02 80 01 80 00            l.........  
```

#### Opcodes

```
  0: 0x0014 [0x6C] FADE_ENTITY_COLOR(entity_id=EventEntity, end_alpha=128*, fade_time=1*)
  1: 0x001D [0x00] END_REQSTACK()
```

### Event 65535.4

#### Metadata

| Field        | Value   |
|--------------|---------|
| Entrypoint   | 0x001E  |
| Data Size    | 9 bytes |
| Instructions | 3       |

```
      00 01 02 03 04 05 06 07  08 09 0A 0B 0C 0D 0E 0F
      -- -- -- -- -- -- -- --  -- -- -- -- -- -- -- --
0010:                                            22 00                ".
0020: 2F 00 F8 FF FF 7F 00                              /......         
```

#### Opcodes

```
  0: 0x001E [0x22] ENTITY_HIDE_FLAG(enabled=0x00)
  1: 0x0020 [0x2F] EventEntity->Render.Flags0 &= ~0x80000 // Bit 19
  2: 0x0026 [0x00] END_REQSTACK()
```

### Event 65535.5

#### Metadata

| Field        | Value   |
|--------------|---------|
| Entrypoint   | 0x0027  |
| Data Size    | 9 bytes |
| Instructions | 3       |

```
      00 01 02 03 04 05 06 07  08 09 0A 0B 0C 0D 0E 0F
      -- -- -- -- -- -- -- --  -- -- -- -- -- -- -- --
0020:                      22  01 2F 01 F8 FF FF 7F 00         "./......
```

#### Opcodes

```
  0: 0x0027 [0x22] ENTITY_HIDE_FLAG(enabled=0x01)
  1: 0x0029 [0x2F] EventEntity->Render.Flags0 |= 0x80000 // Bit 19
  2: 0x002F [0x00] END_REQSTACK()
```

### Event 65535.6

#### Metadata

| Field        | Value    |
|--------------|----------|
| Entrypoint   | 0x0030   |
| Data Size    | 10 bytes |
| Instructions | 2        |

```
      00 01 02 03 04 05 06 07  08 09 0A 0B 0C 0D 0E 0F
      -- -- -- -- -- -- -- --  -- -- -- -- -- -- -- --
0030: 6C F8 FF FF 7F 00 80 01  80 00                    l.........      
```

#### Opcodes

```
  0: 0x0030 [0x6C] FADE_ENTITY_COLOR(entity_id=EventEntity, end_alpha=0*, fade_time=1*)
  1: 0x0039 [0x00] END_REQSTACK()
```

### Event 65535.7

#### Metadata

| Field        | Value    |
|--------------|----------|
| Entrypoint   | 0x003A   |
| Data Size    | 10 bytes |
| Instructions | 2        |

```
      00 01 02 03 04 05 06 07  08 09 0A 0B 0C 0D 0E 0F
      -- -- -- -- -- -- -- --  -- -- -- -- -- -- -- --
0030:                                6C F8 FF FF 7F 02            l.....
0040: 80 01 80 00                                       ....            
```

#### Opcodes

```
  0: 0x003A [0x6C] FADE_ENTITY_COLOR(entity_id=EventEntity, end_alpha=128*, fade_time=1*)
  1: 0x0043 [0x00] END_REQSTACK()
```

### Event 65535.8

#### Metadata

| Field        | Value    |
|--------------|----------|
| Entrypoint   | 0x0044   |
| Data Size    | 20 bytes |
| Instructions | 5        |

```
      00 01 02 03 04 05 06 07  08 09 0A 0B 0C 0D 0E 0F
      -- -- -- -- -- -- -- --  -- -- -- -- -- -- -- --
0040:             59 04 F8 FF  FF 7F 03 80 1F 00 04 80      Y...........
0050: 05 80 06 80 1F 01 6F 00                           ......o.        
```

#### Opcodes

```
  0: 0x0044 [0x59] UPDATE_ENTITY_DATA: Set EventEntity main speed = 37* * 0.1
  1: 0x004C [0x1F] MOVE_ENTITY: EventEntity moves to X=50.387*, Z=-220.077*, Y=-23.323*
  2: 0x0054 [0x1F] MOVE_ENTITY: Update entity position (mode=1)
  3: 0x0056 [0x6F] WAIT_FRAME_DELAY: Yield until WaitTime reaches zero
  4: 0x0057 [0x00] END_REQSTACK()
```

### Event 65535.9

#### Metadata

| Field        | Value    |
|--------------|----------|
| Entrypoint   | 0x0058   |
| Data Size    | 51 bytes |
| Instructions | 12       |

```
      00 01 02 03 04 05 06 07  08 09 0A 0B 0C 0D 0E 0F
      -- -- -- -- -- -- -- --  -- -- -- -- -- -- -- --
0050:                          59 04 F8 FF FF 7F 07 80          Y.......
0060: 1F 00 08 80 09 80 0A 80  1F 01 6F 1F 00 0B 80 0C  ..........o.....
0070: 80 0D 80 1F 01 1F 00 0E  80 0F 80 10 80 1F 01 1F  ................
0080: 00 11 80 12 80 13 80 1F  01 6F 00                 .........o.     
```

#### Opcodes

```
  0: 0x0058 [0x59] UPDATE_ENTITY_DATA: Set EventEntity main speed = 13* * 0.1
  1: 0x0060 [0x1F] MOVE_ENTITY: EventEntity moves to X=61.725*, Z=-223.337*, Y=-23.887*
  2: 0x0068 [0x1F] MOVE_ENTITY: Update entity position (mode=1)
  3: 0x006A [0x6F] WAIT_FRAME_DELAY: Yield until WaitTime reaches zero
  4: 0x006B [0x1F] MOVE_ENTITY: EventEntity moves to X=60.242*, Z=-224.223*, Y=-23.813*
  5: 0x0073 [0x1F] MOVE_ENTITY: Update entity position (mode=1)
  6: 0x0075 [0x1F] MOVE_ENTITY: EventEntity moves to X=57.011*, Z=-223.920*, Y=-23.652*
  7: 0x007D [0x1F] MOVE_ENTITY: Update entity position (mode=1)
  8: 0x007F [0x1F] MOVE_ENTITY: EventEntity moves to X=56.887*, Z=-223.440*, Y=-23.646*
  9: 0x0087 [0x1F] MOVE_ENTITY: Update entity position (mode=1)
 10: 0x0089 [0x6F] WAIT_FRAME_DELAY: Yield until WaitTime reaches zero
 11: 0x008A [0x00] END_REQSTACK()
```

### Event 65535.10

#### Metadata

| Field        | Value    |
|--------------|----------|
| Entrypoint   | 0x008B   |
| Data Size    | 30 bytes |
| Instructions | 7        |

```
      00 01 02 03 04 05 06 07  08 09 0A 0B 0C 0D 0E 0F
      -- -- -- -- -- -- -- --  -- -- -- -- -- -- -- --
0080:                                   59 04 F8 FF FF             Y....
0090: 7F 07 80 1F 00 14 80 15  80 16 80 1F 01 1F 00 17  ................
00A0: 80 18 80 19 80 1F 01 6F  00                       .......o.       
```

#### Opcodes

```
  0: 0x008B [0x59] UPDATE_ENTITY_DATA: Set EventEntity main speed = 13* * 0.1
  1: 0x0093 [0x1F] MOVE_ENTITY: EventEntity moves to X=60.942*, Z=-222.691*, Y=-23.848*
  2: 0x009B [0x1F] MOVE_ENTITY: Update entity position (mode=1)
  3: 0x009D [0x1F] MOVE_ENTITY: EventEntity moves to X=58.578*, Z=-222.903*, Y=-23.730*
  4: 0x00A5 [0x1F] MOVE_ENTITY: Update entity position (mode=1)
  5: 0x00A7 [0x6F] WAIT_FRAME_DELAY: Yield until WaitTime reaches zero
  6: 0x00A8 [0x00] END_REQSTACK()
```

### Event 65535.11

#### Metadata

| Field        | Value    |
|--------------|----------|
| Entrypoint   | 0x00A9   |
| Data Size    | 13 bytes |
| Instructions | 3        |

```
      00 01 02 03 04 05 06 07  08 09 0A 0B 0C 0D 0E 0F
      -- -- -- -- -- -- -- --  -- -- -- -- -- -- -- --
00A0:                             6E F8 FF FF 7F 1A 80           n......
00B0: 99 F8 FF FF 7F 00                                 ......          
```

#### Opcodes

```
  0: 0x00A9 [0x6E] EventEntity uses emote 36*
  1: 0x00B0 [0x99] Wait for EventEntity animation to complete
  2: 0x00B5 [0x00] END_REQSTACK()
```

### Event 65535.12

#### Metadata

| Field        | Value    |
|--------------|----------|
| Entrypoint   | 0x00B6   |
| Data Size    | 13 bytes |
| Instructions | 3        |

```
      00 01 02 03 04 05 06 07  08 09 0A 0B 0C 0D 0E 0F
      -- -- -- -- -- -- -- --  -- -- -- -- -- -- -- --
00B0:                   6E F8  FF FF 7F 1B 80 99 F8 FF        n.........
00C0: FF 7F 00                                          ...             
```

#### Opcodes

```
  0: 0x00B6 [0x6E] EventEntity uses emote 43*
  1: 0x00BD [0x99] Wait for EventEntity animation to complete
  2: 0x00C2 [0x00] END_REQSTACK()
```

### Event 65535.13

#### Metadata

| Field        | Value     |
|--------------|-----------|
| Entrypoint   | 0x00C3    |
| Data Size    | 122 bytes |
| Instructions | 16        |

```
      00 01 02 03 04 05 06 07  08 09 0A 0B 0C 0D 0E 0F
      -- -- -- -- -- -- -- --  -- -- -- -- -- -- -- --
00C0:          1C 1C 80 27 10  35 93 08 01 0B 5B 1D 80     ...'.5....[..
00D0: 42 93 08 01 42 93 08 01  6E 79 61 31 1C 1E 80 5B  B...B...nya1...[
00E0: 1D 80 43 93 08 01 43 93  08 01 6E 79 61 31 1C 1F  ..C...C...nya1..
00F0: 80 27 10 45 93 08 01 0C  1C 20 80 5B 1D 80 44 93  .'.E..... .[..D.
0100: 08 01 44 93 08 01 6E 79  61 31 1C 21 80 5B 1D 80  ..D...nya1.!.[..
0110: 36 93 08 01 36 93 08 01  6E 79 61 31 27 10 33 93  6...6...nya1'.3.
0120: 08 01 0C 1C 22 80 5B 1D  80 34 93 08 01 34 93 08  ....".[..4...4..
0130: 01 6E 79 61 31 27 10 34  93 08 01 0C 00           .nya1'.4.....   
```

#### Opcodes

```
  0: 0x00C3 [0x1C] WAIT(120* ticks)
  1: 0x00C6 [0x27] REQ_SET(priority=0x10, entity_id=ex07 (ID: 17339189/0x01089335), tag_num=0x0B)
  2: 0x00CD [0x5B] LOAD_EXT_SCHEDULER: Load scheduler "nya1" with entities [m01 (ID: 17339202/0x01089342), m01 (ID: 17339202/0x01089342)], work=1326*
  3: 0x00DC [0x1C] WAIT(5* ticks)
  4: 0x00DF [0x5B] LOAD_EXT_SCHEDULER: Load scheduler "nya1" with entities [m02 (ID: 17339203/0x01089343), m02 (ID: 17339203/0x01089343)], work=1326*
  5: 0x00EE [0x1C] WAIT(3* ticks)
  6: 0x00F1 [0x27] REQ_SET(priority=0x10, entity_id=m04 (ID: 17339205/0x01089345), tag_num=0x0C)
  7: 0x00F8 [0x1C] WAIT(30* ticks)
  8: 0x00FB [0x5B] LOAD_EXT_SCHEDULER: Load scheduler "nya1" with entities [m03 (ID: 17339204/0x01089344), m03 (ID: 17339204/0x01089344)], work=1326*
  9: 0x010A [0x1C] WAIT(15* ticks)
 10: 0x010D [0x5B] LOAD_EXT_SCHEDULER: Load scheduler "nya1" with entities [ex08 (ID: 17339190/0x01089336), ex08 (ID: 17339190/0x01089336)], work=1326*
 11: 0x011C [0x27] REQ_SET(priority=0x10, entity_id=ex05 (ID: 17339187/0x01089333), tag_num=0x0C)
 12: 0x0123 [0x1C] WAIT(10* ticks)
 13: 0x0126 [0x5B] LOAD_EXT_SCHEDULER: Load scheduler "nya1" with entities [ex06 (ID: 17339188/0x01089334), ex06 (ID: 17339188/0x01089334)], work=1326*
 14: 0x0135 [0x27] REQ_SET(priority=0x10, entity_id=ex06 (ID: 17339188/0x01089334), tag_num=0x0C)
 15: 0x013C [0x00] END_REQSTACK()
```

### Event 65535.14

#### Metadata

| Field        | Value    |
|--------------|----------|
| Entrypoint   | 0x013D   |
| Data Size    | 30 bytes |
| Instructions | 7        |

```
      00 01 02 03 04 05 06 07  08 09 0A 0B 0C 0D 0E 0F
      -- -- -- -- -- -- -- --  -- -- -- -- -- -- -- --
0130:                                         59 04 F8               Y..
0140: FF FF 7F 03 80 1F 00 23  80 24 80 25 80 1F 01 1F  .......#.$.%....
0150: 00 26 80 27 80 28 80 1F  01 6F 00                 .&.'.(...o.     
```

#### Opcodes

```
  0: 0x013D [0x59] UPDATE_ENTITY_DATA: Set EventEntity main speed = 37* * 0.1
  1: 0x0145 [0x1F] MOVE_ENTITY: EventEntity moves to X=52.550*, Z=-225.191*, Y=-23.427*
  2: 0x014D [0x1F] MOVE_ENTITY: Update entity position (mode=1)
  3: 0x014F [0x1F] MOVE_ENTITY: EventEntity moves to X=75.987*, Z=-248.080*, Y=-24.237*
  4: 0x0157 [0x1F] MOVE_ENTITY: Update entity position (mode=1)
  5: 0x0159 [0x6F] WAIT_FRAME_DELAY: Yield until WaitTime reaches zero
  6: 0x015A [0x00] END_REQSTACK()
```

### Event 65535.15

#### Metadata

| Field        | Value    |
|--------------|----------|
| Entrypoint   | 0x015B   |
| Data Size    | 40 bytes |
| Instructions | 9        |

```
      00 01 02 03 04 05 06 07  08 09 0A 0B 0C 0D 0E 0F
      -- -- -- -- -- -- -- --  -- -- -- -- -- -- -- --
0150:                                   59 04 F8 FF FF             Y....
0160: 7F 29 80 1F 00 2A 80 2B  80 2C 80 1F 01 1F 00 2D  .)...*.+.,.....-
0170: 80 2E 80 2F 80 1F 01 1F  00 26 80 27 80 28 80 1F  .../.....&.'.(..
0180: 01 6F 00                                          .o.             
```

#### Opcodes

```
  0: 0x015B [0x59] UPDATE_ENTITY_DATA: Set EventEntity main speed = 38* * 0.1
  1: 0x0163 [0x1F] MOVE_ENTITY: EventEntity moves to X=48.382*, Z=-223.869*, Y=-23.412*
  2: 0x016B [0x1F] MOVE_ENTITY: Update entity position (mode=1)
  3: 0x016D [0x1F] MOVE_ENTITY: EventEntity moves to X=47.773*, Z=-227.563*, Y=-23.410*
  4: 0x0175 [0x1F] MOVE_ENTITY: Update entity position (mode=1)
  5: 0x0177 [0x1F] MOVE_ENTITY: EventEntity moves to X=75.987*, Z=-248.080*, Y=-24.237*
  6: 0x017F [0x1F] MOVE_ENTITY: Update entity position (mode=1)
  7: 0x0181 [0x6F] WAIT_FRAME_DELAY: Yield until WaitTime reaches zero
  8: 0x0182 [0x00] END_REQSTACK()
```

### Event 65535.16

#### Metadata

| Field        | Value    |
|--------------|----------|
| Entrypoint   | 0x0183   |
| Data Size    | 98 bytes |
| Instructions | 20       |

```
      00 01 02 03 04 05 06 07  08 09 0A 0B 0C 0D 0E 0F
      -- -- -- -- -- -- -- --  -- -- -- -- -- -- -- --
0180:          27 10 33 93 08  01 0E 1C 1E 80 27 10 44     '.3.......'.D
0190: 93 08 01 0F 1C 21 80 27  10 34 93 08 01 0F 1C 1E  .....!.'.4......
01A0: 80 27 10 42 93 08 01 0E  1C 30 80 27 10 36 93 08  .'.B.....0.'.6..
01B0: 01 0F 1C 21 80 27 10 35  93 08 01 0E 1C 22 80 27  ...!.'.5.....".'
01C0: 10 43 93 08 01 0F 1C 21  80 27 10 45 93 08 01 0F  .C.....!.'.E....
01D0: 1C 31 80 27 10 71 93 08  01 0A 1C 21 80 27 10 6F  .1.'.q.....!.'.o
01E0: 93 08 01 0A 00                                    .....           
```

#### Opcodes

```
  0: 0x0183 [0x27] REQ_SET(priority=0x10, entity_id=ex05 (ID: 17339187/0x01089333), tag_num=0x0E)
  1: 0x018A [0x1C] WAIT(5* ticks)
  2: 0x018D [0x27] REQ_SET(priority=0x10, entity_id=m03 (ID: 17339204/0x01089344), tag_num=0x0F)
  3: 0x0194 [0x1C] WAIT(15* ticks)
  4: 0x0197 [0x27] REQ_SET(priority=0x10, entity_id=ex06 (ID: 17339188/0x01089334), tag_num=0x0F)
  5: 0x019E [0x1C] WAIT(5* ticks)
  6: 0x01A1 [0x27] REQ_SET(priority=0x10, entity_id=m01 (ID: 17339202/0x01089342), tag_num=0x0E)
  7: 0x01A8 [0x1C] WAIT(8* ticks)
  8: 0x01AB [0x27] REQ_SET(priority=0x10, entity_id=ex08 (ID: 17339190/0x01089336), tag_num=0x0F)
  9: 0x01B2 [0x1C] WAIT(15* ticks)
 10: 0x01B5 [0x27] REQ_SET(priority=0x10, entity_id=ex07 (ID: 17339189/0x01089335), tag_num=0x0E)
 11: 0x01BC [0x1C] WAIT(10* ticks)
 12: 0x01BF [0x27] REQ_SET(priority=0x10, entity_id=m02 (ID: 17339203/0x01089343), tag_num=0x0F)
 13: 0x01C6 [0x1C] WAIT(15* ticks)
 14: 0x01C9 [0x27] REQ_SET(priority=0x10, entity_id=m04 (ID: 17339205/0x01089345), tag_num=0x0F)
 15: 0x01D0 [0x1C] WAIT(65* ticks)
 16: 0x01D3 [0x27] REQ_SET(priority=0x10, entity_id=Ghyo Molkot (ID: 17339249/0x01089371), tag_num=0x0A)
 17: 0x01DA [0x1C] WAIT(15* ticks)
 18: 0x01DD [0x27] REQ_SET(priority=0x10, entity_id=Vhino Delkahngo (ID: 17339247/0x0108936F), tag_num=0x0A)
 19: 0x01E4 [0x00] END_REQSTACK()
```

### Event 65535.17

#### Metadata

| Field        | Value    |
|--------------|----------|
| Entrypoint   | 0x01E5   |
| Data Size    | 20 bytes |
| Instructions | 5        |

```
      00 01 02 03 04 05 06 07  08 09 0A 0B 0C 0D 0E 0F
      -- -- -- -- -- -- -- --  -- -- -- -- -- -- -- --
01E0:                59 04 F8  FF FF 7F 21 80 1F 00 26       Y.....!...&
01F0: 80 27 80 28 80 1F 01 6F  00                       .'.(...o.       
```

#### Opcodes

```
  0: 0x01E5 [0x59] UPDATE_ENTITY_DATA: Set EventEntity main speed = 15* * 0.1
  1: 0x01ED [0x1F] MOVE_ENTITY: EventEntity moves to X=75.987*, Z=-248.080*, Y=-24.237*
  2: 0x01F5 [0x1F] MOVE_ENTITY: Update entity position (mode=1)
  3: 0x01F7 [0x6F] WAIT_FRAME_DELAY: Yield until WaitTime reaches zero
  4: 0x01F8 [0x00] END_REQSTACK()
```

### Event 65535.18

#### Metadata

| Field        | Value    |
|--------------|----------|
| Entrypoint   | 0x01F9   |
| Data Size    | 20 bytes |
| Instructions | 5        |

```
      00 01 02 03 04 05 06 07  08 09 0A 0B 0C 0D 0E 0F
      -- -- -- -- -- -- -- --  -- -- -- -- -- -- -- --
01F0:                             59 04 F8 FF FF 7F 29           Y.....)
0200: 80 1F 00 26 80 27 80 28  80 1F 01 6F 00           ...&.'.(...o.   
```

#### Opcodes

```
  0: 0x01F9 [0x59] UPDATE_ENTITY_DATA: Set EventEntity main speed = 38* * 0.1
  1: 0x0201 [0x1F] MOVE_ENTITY: EventEntity moves to X=75.987*, Z=-248.080*, Y=-24.237*
  2: 0x0209 [0x1F] MOVE_ENTITY: Update entity position (mode=1)
  3: 0x020B [0x6F] WAIT_FRAME_DELAY: Yield until WaitTime reaches zero
  4: 0x020C [0x00] END_REQSTACK()
```

### Event 65535.19

#### Metadata

| Field        | Value    |
|--------------|----------|
| Entrypoint   | 0x020D   |
| Data Size    | 85 bytes |
| Instructions | 17       |

```
      00 01 02 03 04 05 06 07  08 09 0A 0B 0C 0D 0E 0F
      -- -- -- -- -- -- -- --  -- -- -- -- -- -- -- --
0200:                                         27 10 3A               '.:
0210: 93 08 01 11 1C 1E 80 27  10 37 93 08 01 11 1C 1E  .......'.7......
0220: 80 27 10 46 93 08 01 11  27 10 48 93 08 01 11 1C  .'.F....'.H.....
0230: 30 80 27 10 38 93 08 01  11 1C 1E 80 27 10 49 93  0.'.8.......'.I.
0240: 08 01 11 1C 1F 80 27 10  47 93 08 01 11 1C 1F 80  ......'.G.......
0250: 27 10 39 93 08 01 11 1C  1E 80 27 10 4A 93 08 01  '.9.......'.J...
0260: 11 00                                             ..              
```

#### Opcodes

```
  0: 0x020D [0x27] REQ_SET(priority=0x10, entity_id=ex04 (ID: 17339194/0x0108933A), tag_num=0x11)
  1: 0x0214 [0x1C] WAIT(5* ticks)
  2: 0x0217 [0x27] REQ_SET(priority=0x10, entity_id=ex01 (ID: 17339191/0x01089337), tag_num=0x11)
  3: 0x021E [0x1C] WAIT(5* ticks)
  4: 0x0221 [0x27] REQ_SET(priority=0x10, entity_id=t01 (ID: 17339206/0x01089346), tag_num=0x11)
  5: 0x0228 [0x27] REQ_SET(priority=0x10, entity_id=t03 (ID: 17339208/0x01089348), tag_num=0x11)
  6: 0x022F [0x1C] WAIT(8* ticks)
  7: 0x0232 [0x27] REQ_SET(priority=0x10, entity_id=ex02 (ID: 17339192/0x01089338), tag_num=0x11)
  8: 0x0239 [0x1C] WAIT(5* ticks)
  9: 0x023C [0x27] REQ_SET(priority=0x10, entity_id=t04 (ID: 17339209/0x01089349), tag_num=0x11)
 10: 0x0243 [0x1C] WAIT(3* ticks)
 11: 0x0246 [0x27] REQ_SET(priority=0x10, entity_id=t02 (ID: 17339207/0x01089347), tag_num=0x11)
 12: 0x024D [0x1C] WAIT(3* ticks)
 13: 0x0250 [0x27] REQ_SET(priority=0x10, entity_id=ex03 (ID: 17339193/0x01089339), tag_num=0x11)
 14: 0x0257 [0x1C] WAIT(5* ticks)
 15: 0x025A [0x27] REQ_SET(priority=0x10, entity_id=t05 (ID: 17339210/0x0108934A), tag_num=0x11)
 16: 0x0261 [0x00] END_REQSTACK()
```

### Event 65535.20

#### Metadata

| Field        | Value    |
|--------------|----------|
| Entrypoint   | 0x0262   |
| Data Size    | 40 bytes |
| Instructions | 9        |

```
      00 01 02 03 04 05 06 07  08 09 0A 0B 0C 0D 0E 0F
      -- -- -- -- -- -- -- --  -- -- -- -- -- -- -- --
0260:       59 04 F8 FF FF 7F  07 80 1F 00 32 80 33 80    Y.........2.3.
0270: 34 80 1F 01 1F 00 35 80  36 80 37 80 1F 01 1F 00  4.....5.6.7.....
0280: 38 80 39 80 3A 80 1F 01  6F 00                    8.9.:...o.      
```

#### Opcodes

```
  0: 0x0262 [0x59] UPDATE_ENTITY_DATA: Set EventEntity main speed = 13* * 0.1
  1: 0x026A [0x1F] MOVE_ENTITY: EventEntity moves to X=155.213*, Z=-20.269*, Y=-15.217*
  2: 0x0272 [0x1F] MOVE_ENTITY: Update entity position (mode=1)
  3: 0x0274 [0x1F] MOVE_ENTITY: EventEntity moves to X=159.206*, Z=-18.549*, Y=-15.073*
  4: 0x027C [0x1F] MOVE_ENTITY: Update entity position (mode=1)
  5: 0x027E [0x1F] MOVE_ENTITY: EventEntity moves to X=161.140*, Z=-18.766*, Y=-15.436*
  6: 0x0286 [0x1F] MOVE_ENTITY: Update entity position (mode=1)
  7: 0x0288 [0x6F] WAIT_FRAME_DELAY: Yield until WaitTime reaches zero
  8: 0x0289 [0x00] END_REQSTACK()
```

### Event 65535.21

#### Metadata

| Field        | Value    |
|--------------|----------|
| Entrypoint   | 0x028A   |
| Data Size    | 50 bytes |
| Instructions | 11       |

```
      00 01 02 03 04 05 06 07  08 09 0A 0B 0C 0D 0E 0F
      -- -- -- -- -- -- -- --  -- -- -- -- -- -- -- --
0280:                                59 04 F8 FF FF 7F            Y.....
0290: 07 80 1F 00 3B 80 3C 80  3D 80 1F 01 1F 00 3E 80  ....;.<.=.....>.
02A0: 3F 80 40 80 1F 01 1F 00  41 80 42 80 43 80 1F 01  ?.@.....A.B.C...
02B0: 1F 00 44 80 45 80 46 80  1F 01 6F 00              ..D.E.F...o.    
```

#### Opcodes

```
  0: 0x028A [0x59] UPDATE_ENTITY_DATA: Set EventEntity main speed = 13* * 0.1
  1: 0x0292 [0x1F] MOVE_ENTITY: EventEntity moves to X=154.019*, Z=-20.995*, Y=-15.516*
  2: 0x029A [0x1F] MOVE_ENTITY: Update entity position (mode=1)
  3: 0x029C [0x1F] MOVE_ENTITY: EventEntity moves to X=158.953*, Z=-18.421*, Y=-15.079*
  4: 0x02A4 [0x1F] MOVE_ENTITY: Update entity position (mode=1)
  5: 0x02A6 [0x1F] MOVE_ENTITY: EventEntity moves to X=161.048*, Z=-17.949*, Y=-15.444*
  6: 0x02AE [0x1F] MOVE_ENTITY: Update entity position (mode=1)
  7: 0x02B0 [0x1F] MOVE_ENTITY: EventEntity moves to X=162.247*, Z=-17.956*, Y=-15.807*
  8: 0x02B8 [0x1F] MOVE_ENTITY: Update entity position (mode=1)
  9: 0x02BA [0x6F] WAIT_FRAME_DELAY: Yield until WaitTime reaches zero
 10: 0x02BB [0x00] END_REQSTACK()
```

### Event 65535.22

#### Metadata

| Field        | Value    |
|--------------|----------|
| Entrypoint   | 0x02BC   |
| Data Size    | 20 bytes |
| Instructions | 5        |

```
      00 01 02 03 04 05 06 07  08 09 0A 0B 0C 0D 0E 0F
      -- -- -- -- -- -- -- --  -- -- -- -- -- -- -- --
02B0:                                      59 04 F8 FF              Y...
02C0: FF 7F 07 80 1F 00 47 80  48 80 49 80 1F 01 6F 00  ......G.H.I...o.
```

#### Opcodes

```
  0: 0x02BC [0x59] UPDATE_ENTITY_DATA: Set EventEntity main speed = 13* * 0.1
  1: 0x02C4 [0x1F] MOVE_ENTITY: EventEntity moves to X=154.283*, Z=-17.314*, Y=-15.618*
  2: 0x02CC [0x1F] MOVE_ENTITY: Update entity position (mode=1)
  3: 0x02CE [0x6F] WAIT_FRAME_DELAY: Yield until WaitTime reaches zero
  4: 0x02CF [0x00] END_REQSTACK()
```

### Event 65535.23

#### Metadata

| Field        | Value    |
|--------------|----------|
| Entrypoint   | 0x02D0   |
| Data Size    | 23 bytes |
| Instructions | 6        |

```
      00 01 02 03 04 05 06 07  08 09 0A 0B 0C 0D 0E 0F
      -- -- -- -- -- -- -- --  -- -- -- -- -- -- -- --
02D0: 1C 4A 80 59 04 F8 FF FF  7F 07 80 1F 00 4B 80 4C  .J.Y.........K.L
02E0: 80 4D 80 1F 01 6F 00                              .M...o.         
```

#### Opcodes

```
  0: 0x02D0 [0x1C] WAIT(60* ticks)
  1: 0x02D3 [0x59] UPDATE_ENTITY_DATA: Set EventEntity main speed = 13* * 0.1
  2: 0x02DB [0x1F] MOVE_ENTITY: EventEntity moves to X=153.410*, Z=-18.270*, Y=-15.782*
  3: 0x02E3 [0x1F] MOVE_ENTITY: Update entity position (mode=1)
  4: 0x02E5 [0x6F] WAIT_FRAME_DELAY: Yield until WaitTime reaches zero
  5: 0x02E6 [0x00] END_REQSTACK()
```

### Event 65535.24

#### Metadata

| Field        | Value    |
|--------------|----------|
| Entrypoint   | 0x02E7   |
| Data Size    | 30 bytes |
| Instructions | 7        |

```
      00 01 02 03 04 05 06 07  08 09 0A 0B 0C 0D 0E 0F
      -- -- -- -- -- -- -- --  -- -- -- -- -- -- -- --
02E0:                      59  04 F8 FF FF 7F 07 80 1F         Y........
02F0: 00 4E 80 4F 80 50 80 1F  01 1F 00 51 80 52 80 53  .N.O.P.....Q.R.S
0300: 80 1F 01 6F 00                                    ...o.           
```

#### Opcodes

```
  0: 0x02E7 [0x59] UPDATE_ENTITY_DATA: Set EventEntity main speed = 13* * 0.1
  1: 0x02EF [0x1F] MOVE_ENTITY: EventEntity moves to X=155.841*, Z=-24.023*, Y=-15.246*
  2: 0x02F7 [0x1F] MOVE_ENTITY: Update entity position (mode=1)
  3: 0x02F9 [0x1F] MOVE_ENTITY: EventEntity moves to X=154.381*, Z=-21.843*, Y=-15.430*
  4: 0x0301 [0x1F] MOVE_ENTITY: Update entity position (mode=1)
  5: 0x0303 [0x6F] WAIT_FRAME_DELAY: Yield until WaitTime reaches zero
  6: 0x0304 [0x00] END_REQSTACK()
```

### Event 65535.25

#### Metadata

| Field        | Value    |
|--------------|----------|
| Entrypoint   | 0x0305   |
| Data Size    | 30 bytes |
| Instructions | 7        |

```
      00 01 02 03 04 05 06 07  08 09 0A 0B 0C 0D 0E 0F
      -- -- -- -- -- -- -- --  -- -- -- -- -- -- -- --
0300:                59 04 F8  FF FF 7F 07 80 1F 00 4E       Y.........N
0310: 80 4F 80 50 80 1F 01 1F  00 54 80 55 80 56 80 1F  .O.P.....T.U.V..
0320: 01 6F 00                                          .o.             
```

#### Opcodes

```
  0: 0x0305 [0x59] UPDATE_ENTITY_DATA: Set EventEntity main speed = 13* * 0.1
  1: 0x030D [0x1F] MOVE_ENTITY: EventEntity moves to X=155.841*, Z=-24.023*, Y=-15.246*
  2: 0x0315 [0x1F] MOVE_ENTITY: Update entity position (mode=1)
  3: 0x0317 [0x1F] MOVE_ENTITY: EventEntity moves to X=152.677*, Z=-21.960*, Y=-15.851*
  4: 0x031F [0x1F] MOVE_ENTITY: Update entity position (mode=1)
  5: 0x0321 [0x6F] WAIT_FRAME_DELAY: Yield until WaitTime reaches zero
  6: 0x0322 [0x00] END_REQSTACK()
```

### Event 65535.26

#### Metadata

| Field        | Value    |
|--------------|----------|
| Entrypoint   | 0x0323   |
| Data Size    | 23 bytes |
| Instructions | 6        |

```
      00 01 02 03 04 05 06 07  08 09 0A 0B 0C 0D 0E 0F
      -- -- -- -- -- -- -- --  -- -- -- -- -- -- -- --
0320:          1C 02 80 59 04  F8 FF FF 7F 07 80 1F 00     ...Y.........
0330: 57 80 58 80 59 80 1F 01  6F 00                    W.X.Y...o.      
```

#### Opcodes

```
  0: 0x0323 [0x1C] WAIT(128* ticks)
  1: 0x0326 [0x59] UPDATE_ENTITY_DATA: Set EventEntity main speed = 13* * 0.1
  2: 0x032E [0x1F] MOVE_ENTITY: EventEntity moves to X=154.540*, Z=-19.074*, Y=-15.434*
  3: 0x0336 [0x1F] MOVE_ENTITY: Update entity position (mode=1)
  4: 0x0338 [0x6F] WAIT_FRAME_DELAY: Yield until WaitTime reaches zero
  5: 0x0339 [0x00] END_REQSTACK()
```

### Event 65535.27

#### Metadata

| Field        | Value    |
|--------------|----------|
| Entrypoint   | 0x033A   |
| Data Size    | 13 bytes |
| Instructions | 3        |

```
      00 01 02 03 04 05 06 07  08 09 0A 0B 0C 0D 0E 0F
      -- -- -- -- -- -- -- --  -- -- -- -- -- -- -- --
0330:                                6E F8 FF FF 7F 5A            n....Z
0340: 80 99 F8 FF FF 7F 00                              .......         
```

#### Opcodes

```
  0: 0x033A [0x6E] EventEntity uses emote 258*
  1: 0x0341 [0x99] Wait for EventEntity animation to complete
  2: 0x0346 [0x00] END_REQSTACK()
```

### Event 65535.28

#### Metadata

| Field        | Value    |
|--------------|----------|
| Entrypoint   | 0x0347   |
| Data Size    | 29 bytes |
| Instructions | 6        |

```
      00 01 02 03 04 05 06 07  08 09 0A 0B 0C 0D 0E 0F
      -- -- -- -- -- -- -- --  -- -- -- -- -- -- -- --
0340:                      59  04 F8 FF FF 7F 21 80 1F         Y.....!..
0350: 00 5B 80 5C 80 5D 80 1F  01 6F 4A F8 FF FF 7F 5A  .[.\.]...oJ....Z
0360: 93 08 01 00                                       ....            
```

#### Opcodes

```
  0: 0x0347 [0x59] UPDATE_ENTITY_DATA: Set EventEntity main speed = 15* * 0.1
  1: 0x034F [0x1F] MOVE_ENTITY: EventEntity moves to X=-162.565*, Z=-31.991*, Y=-23.420*
  2: 0x0357 [0x1F] MOVE_ENTITY: Update entity position (mode=1)
  3: 0x0359 [0x6F] WAIT_FRAME_DELAY: Yield until WaitTime reaches zero
  4: 0x035A [0x4A] EventEntity looks at Ragelise (ID: 17339226/0x0108935A)
  5: 0x0363 [0x00] END_REQSTACK()
```

### Event 65535.29

#### Metadata

| Field        | Value    |
|--------------|----------|
| Entrypoint   | 0x0364   |
| Data Size    | 29 bytes |
| Instructions | 6        |

```
      00 01 02 03 04 05 06 07  08 09 0A 0B 0C 0D 0E 0F
      -- -- -- -- -- -- -- --  -- -- -- -- -- -- -- --
0360:             59 04 F8 FF  FF 7F 5E 80 1F 00 5F 80      Y.....^..._.
0370: 60 80 61 80 1F 01 6F 4A  F8 FF FF 7F 5A 93 08 01  `.a...oJ....Z...
0380: 00                                                .               
```

#### Opcodes

```
  0: 0x0364 [0x59] UPDATE_ENTITY_DATA: Set EventEntity main speed = 11* * 0.1
  1: 0x036C [0x1F] MOVE_ENTITY: EventEntity moves to X=-161.354*, Z=-32.803*, Y=-23.691*
  2: 0x0374 [0x1F] MOVE_ENTITY: Update entity position (mode=1)
  3: 0x0376 [0x6F] WAIT_FRAME_DELAY: Yield until WaitTime reaches zero
  4: 0x0377 [0x4A] EventEntity looks at Ragelise (ID: 17339226/0x0108935A)
  5: 0x0380 [0x00] END_REQSTACK()
```

### Event 65535.30

#### Metadata

| Field        | Value    |
|--------------|----------|
| Entrypoint   | 0x0381   |
| Data Size    | 42 bytes |
| Instructions | 7        |

```
      00 01 02 03 04 05 06 07  08 09 0A 0B 0C 0D 0E 0F
      -- -- -- -- -- -- -- --  -- -- -- -- -- -- -- --
0380:    59 04 F8 FF FF 7F 07  80 1F 00 62 80 63 80 64   Y.........b.c.d
0390: 80 1F 01 6F 4B F8 FF FF  7F 65 80 66 66 80 63 93  ...oK....e.ff.c.
03A0: 08 01 63 93 08 01 74 77  61 30 00                 ..c...twa0.     
```

#### Opcodes

```
  0: 0x0381 [0x59] UPDATE_ENTITY_DATA: Set EventEntity main speed = 13* * 0.1
  1: 0x0389 [0x1F] MOVE_ENTITY: EventEntity moves to X=-165.025*, Z=-36.966*, Y=-23.631*
  2: 0x0391 [0x1F] MOVE_ENTITY: Update entity position (mode=1)
  3: 0x0393 [0x6F] WAIT_FRAME_DELAY: Yield until WaitTime reaches zero
  4: 0x0394 [0x4B] UPDATE_ENTITY_YAW(entity=EventEntity, yaw=21.8°*)
  5: 0x039B [0x66] LOAD_EXT_SCHEDULER_MAIN: Load scheduler "twa0" with entities [Ethelbert (ID: 17339235/0x01089363), Ethelbert (ID: 17339235/0x01089363)], work=29*
  6: 0x03AA [0x00] END_REQSTACK()
```

### Event 65535.31

#### Metadata

| Field        | Value    |
|--------------|----------|
| Entrypoint   | 0x03AB   |
| Data Size    | 70 bytes |
| Instructions | 15       |

```
      00 01 02 03 04 05 06 07  08 09 0A 0B 0C 0D 0E 0F
      -- -- -- -- -- -- -- --  -- -- -- -- -- -- -- --
03A0:                                   59 04 F8 FF FF             Y....
03B0: 7F 67 80 1F 00 68 80 69  80 6A 80 1F 01 1F 00 6B  .g...h.i.j.....k
03C0: 80 6C 80 6D 80 1F 01 1F  00 6E 80 6F 80 70 80 1F  .l.m.....n.o.p..
03D0: 01 1F 00 71 80 72 80 73  80 1F 01 1F 00 74 80 75  ...q.r.s.....t.u
03E0: 80 76 80 1F 01 1F 00 77  80 78 80 79 80 1F 01 6F  .v.....w.x.y...o
03F0: 00                                                .               
```

#### Opcodes

```
  0: 0x03AB [0x59] UPDATE_ENTITY_DATA: Set EventEntity main speed = 40* * 0.1
  1: 0x03B3 [0x1F] MOVE_ENTITY: EventEntity moves to X=-131.163*, Z=-38.017*, Y=-23.449*
  2: 0x03BB [0x1F] MOVE_ENTITY: Update entity position (mode=1)
  3: 0x03BD [0x1F] MOVE_ENTITY: EventEntity moves to X=-136.851*, Z=-40.151*, Y=-23.216*
  4: 0x03C5 [0x1F] MOVE_ENTITY: Update entity position (mode=1)
  5: 0x03C7 [0x1F] MOVE_ENTITY: EventEntity moves to X=-144.737*, Z=-41.287*, Y=-23.276*
  6: 0x03CF [0x1F] MOVE_ENTITY: Update entity position (mode=1)
  7: 0x03D1 [0x1F] MOVE_ENTITY: EventEntity moves to X=-151.206*, Z=-41.069*, Y=-23.761*
  8: 0x03D9 [0x1F] MOVE_ENTITY: Update entity position (mode=1)
  9: 0x03DB [0x1F] MOVE_ENTITY: EventEntity moves to X=-156.397*, Z=-39.188*, Y=-24.006*
 10: 0x03E3 [0x1F] MOVE_ENTITY: Update entity position (mode=1)
 11: 0x03E5 [0x1F] MOVE_ENTITY: EventEntity moves to X=-164.322*, Z=-39.425*, Y=-23.658*
 12: 0x03ED [0x1F] MOVE_ENTITY: Update entity position (mode=1)
 13: 0x03EF [0x6F] WAIT_FRAME_DELAY: Yield until WaitTime reaches zero
 14: 0x03F0 [0x00] END_REQSTACK()
```

### Event 65535.32

#### Metadata

| Field        | Value    |
|--------------|----------|
| Entrypoint   | 0x03F1   |
| Data Size    | 90 bytes |
| Instructions | 17       |

```
      00 01 02 03 04 05 06 07  08 09 0A 0B 0C 0D 0E 0F
      -- -- -- -- -- -- -- --  -- -- -- -- -- -- -- --
03F0:    59 04 F8 FF FF 7F 07  80 4A F8 FF FF 7F 62 93   Y.......J....b.
0400: 08 01 6F 76 F8 FF FF 7F  1C 21 80 4A 43 93 08 01  ..ov.....!.JC...
0410: 62 93 08 01 1C 21 80 1F  00 7A 80 7B 80 7C 80 1F  b....!...z.{.|..
0420: 01 6F 4B F8 FF FF 7F 7D  80 1C 67 80 4A 43 93 08  .oK....}..g.JC..
0430: 01 5A 93 08 01 1C 7E 80  4A F8 FF FF 7F 46 93 08  .Z....~.J....F..
0440: 01 4A 43 93 08 01 47 93  08 01 00                 .JC...G....     
```

#### Opcodes

```
  0: 0x03F1 [0x59] UPDATE_ENTITY_DATA: Set EventEntity main speed = 13* * 0.1
  1: 0x03F9 [0x4A] EventEntity looks at Larzos (ID: 17339234/0x01089362)
  2: 0x0402 [0x6F] WAIT_FRAME_DELAY: Yield until WaitTime reaches zero
  3: 0x0403 [0x76] CHECK_ENTITY_RENDER_FLAGS: Wait until EventEntity Render.Flags0 and Render.Flags3 conditions are met
  4: 0x0408 [0x1C] WAIT(15* ticks)
  5: 0x040B [0x4A] m02 (ID: 17339203/0x01089343) looks at Larzos (ID: 17339234/0x01089362)
  6: 0x0414 [0x1C] WAIT(15* ticks)
  7: 0x0417 [0x1F] MOVE_ENTITY: EventEntity moves to X=-161.808*, Z=-40.883*, Y=-23.912*
  8: 0x041F [0x1F] MOVE_ENTITY: Update entity position (mode=1)
  9: 0x0421 [0x6F] WAIT_FRAME_DELAY: Yield until WaitTime reaches zero
 10: 0x0422 [0x4B] UPDATE_ENTITY_YAW(entity=EventEntity, yaw=11.6°*)
 11: 0x0429 [0x1C] WAIT(40* ticks)
 12: 0x042C [0x4A] m02 (ID: 17339203/0x01089343) looks at Ragelise (ID: 17339226/0x0108935A)
 13: 0x0435 [0x1C] WAIT(200* ticks)
 14: 0x0438 [0x4A] EventEntity looks at t01 (ID: 17339206/0x01089346)
 15: 0x0441 [0x4A] m02 (ID: 17339203/0x01089343) looks at t02 (ID: 17339207/0x01089347)
 16: 0x044A [0x00] END_REQSTACK()
```

### Event 65535.33

#### Metadata

| Field        | Value    |
|--------------|----------|
| Entrypoint   | 0x044B   |
| Data Size    | 90 bytes |
| Instructions | 17       |

```
      00 01 02 03 04 05 06 07  08 09 0A 0B 0C 0D 0E 0F
      -- -- -- -- -- -- -- --  -- -- -- -- -- -- -- --
0440:                                   59 04 F8 FF FF             Y....
0450: 7F 07 80 4A F8 FF FF 7F  62 93 08 01 6F 76 F8 FF  ...J....b...ov..
0460: FF 7F 1C 21 80 4A 42 93  08 01 62 93 08 01 1C 21  ...!.JB...b....!
0470: 80 1F 00 7F 80 80 80 81  80 1F 01 6F 4B F8 FF FF  ...........oK...
0480: 7F 82 80 1C 83 80 4A 42  93 08 01 5A 93 08 01 1C  ......JB...Z....
0490: 84 80 4A F8 FF FF 7F 42  93 08 01 4A 42 93 08 01  ..J....B...JB...
04A0: 47 93 08 01 00                                    G....           
```

#### Opcodes

```
  0: 0x044B [0x59] UPDATE_ENTITY_DATA: Set EventEntity main speed = 13* * 0.1
  1: 0x0453 [0x4A] EventEntity looks at Larzos (ID: 17339234/0x01089362)
  2: 0x045C [0x6F] WAIT_FRAME_DELAY: Yield until WaitTime reaches zero
  3: 0x045D [0x76] CHECK_ENTITY_RENDER_FLAGS: Wait until EventEntity Render.Flags0 and Render.Flags3 conditions are met
  4: 0x0462 [0x1C] WAIT(15* ticks)
  5: 0x0465 [0x4A] m01 (ID: 17339202/0x01089342) looks at Larzos (ID: 17339234/0x01089362)
  6: 0x046E [0x1C] WAIT(15* ticks)
  7: 0x0471 [0x1F] MOVE_ENTITY: EventEntity moves to X=-161.305*, Z=-40.370*, Y=-23.935*
  8: 0x0479 [0x1F] MOVE_ENTITY: Update entity position (mode=1)
  9: 0x047B [0x6F] WAIT_FRAME_DELAY: Yield until WaitTime reaches zero
 10: 0x047C [0x4B] UPDATE_ENTITY_YAW(entity=EventEntity, yaw=11.7°*)
 11: 0x0483 [0x1C] WAIT(20* ticks)
 12: 0x0486 [0x4A] m01 (ID: 17339202/0x01089342) looks at Ragelise (ID: 17339226/0x0108935A)
 13: 0x048F [0x1C] WAIT(220* ticks)
 14: 0x0492 [0x4A] EventEntity looks at m01 (ID: 17339202/0x01089342)
 15: 0x049B [0x4A] m01 (ID: 17339202/0x01089342) looks at t02 (ID: 17339207/0x01089347)
 16: 0x04A4 [0x00] END_REQSTACK()
```

### Event 65535.34

#### Metadata

| Field        | Value    |
|--------------|----------|
| Entrypoint   | 0x04A5   |
| Data Size    | 55 bytes |
| Instructions | 12       |

```
      00 01 02 03 04 05 06 07  08 09 0A 0B 0C 0D 0E 0F
      -- -- -- -- -- -- -- --  -- -- -- -- -- -- -- --
04A0:                59 04 F8  FF FF 7F 67 80 1F 00 85       Y.....g....
04B0: 80 86 80 87 80 1F 01 1F  00 88 80 89 80 0A 80 1F  ................
04C0: 01 1F 00 8A 80 8B 80 8C  80 1F 01 6F 1C 21 80 4E  ...........o.!.N
04D0: 01 F8 FF FF 7F 2F 01 F8  FF FF 7F 00              ...../......    
```

#### Opcodes

```
  0: 0x04A5 [0x59] UPDATE_ENTITY_DATA: Set EventEntity main speed = 40* * 0.1
  1: 0x04AD [0x1F] MOVE_ENTITY: EventEntity moves to X=-159.241*, Z=-44.459*, Y=-23.977*
  2: 0x04B5 [0x1F] MOVE_ENTITY: Update entity position (mode=1)
  3: 0x04B7 [0x1F] MOVE_ENTITY: EventEntity moves to X=-151.673*, Z=-45.681*, Y=-23.887*
  4: 0x04BF [0x1F] MOVE_ENTITY: Update entity position (mode=1)
  5: 0x04C1 [0x1F] MOVE_ENTITY: EventEntity moves to X=-125.420*, Z=-46.662*, Y=-24.093*
  6: 0x04C9 [0x1F] MOVE_ENTITY: Update entity position (mode=1)
  7: 0x04CB [0x6F] WAIT_FRAME_DELAY: Yield until WaitTime reaches zero
  8: 0x04CC [0x1C] WAIT(15* ticks)
  9: 0x04CF [0x4E] SET_ENTITY_HIDE_FLAG: Hide EventEntity
 10: 0x04D5 [0x2F] EventEntity->Render.Flags0 |= 0x80000 // Bit 19
 11: 0x04DB [0x00] END_REQSTACK()
```

### Event 65535.35

#### Metadata

| Field        | Value    |
|--------------|----------|
| Entrypoint   | 0x04DC   |
| Data Size    | 55 bytes |
| Instructions | 12       |

```
      00 01 02 03 04 05 06 07  08 09 0A 0B 0C 0D 0E 0F
      -- -- -- -- -- -- -- --  -- -- -- -- -- -- -- --
04D0:                                      59 04 F8 FF              Y...
04E0: FF 7F 67 80 1F 00 8D 80  8E 80 8F 80 1F 01 1F 00  ..g.............
04F0: 90 80 91 80 92 80 1F 01  1F 00 8A 80 8B 80 8C 80  ................
0500: 1F 01 6F 1C 21 80 4E 01  F8 FF FF 7F 2F 01 F8 FF  ..o.!.N...../...
0510: FF 7F 00                                          ...             
```

#### Opcodes

```
  0: 0x04DC [0x59] UPDATE_ENTITY_DATA: Set EventEntity main speed = 40* * 0.1
  1: 0x04E4 [0x1F] MOVE_ENTITY: EventEntity moves to X=-156.805*, Z=-43.544*, Y=-23.999*
  2: 0x04EC [0x1F] MOVE_ENTITY: Update entity position (mode=1)
  3: 0x04EE [0x1F] MOVE_ENTITY: EventEntity moves to X=-143.270*, Z=-45.161*, Y=-23.407*
  4: 0x04F6 [0x1F] MOVE_ENTITY: Update entity position (mode=1)
  5: 0x04F8 [0x1F] MOVE_ENTITY: EventEntity moves to X=-125.420*, Z=-46.662*, Y=-24.093*
  6: 0x0500 [0x1F] MOVE_ENTITY: Update entity position (mode=1)
  7: 0x0502 [0x6F] WAIT_FRAME_DELAY: Yield until WaitTime reaches zero
  8: 0x0503 [0x1C] WAIT(15* ticks)
  9: 0x0506 [0x4E] SET_ENTITY_HIDE_FLAG: Hide EventEntity
 10: 0x050C [0x2F] EventEntity->Render.Flags0 |= 0x80000 // Bit 19
 11: 0x0512 [0x00] END_REQSTACK()
```

### Event 65535.36

#### Metadata

| Field        | Value    |
|--------------|----------|
| Entrypoint   | 0x0513   |
| Data Size    | 60 bytes |
| Instructions | 13       |

```
      00 01 02 03 04 05 06 07  08 09 0A 0B 0C 0D 0E 0F
      -- -- -- -- -- -- -- --  -- -- -- -- -- -- -- --
0510:          59 04 F8 FF FF  7F 67 80 6E F8 FF FF 7F     Y.....g.n....
0520: 93 80 99 F8 FF FF 7F 1C  7E 80 1F 00 94 80 95 80  ........~.......
0530: 96 80 1F 01 1F 00 8A 80  8B 80 8C 80 1F 01 6F 1C  ..............o.
0540: 21 80 4E 01 F8 FF FF 7F  2F 01 F8 FF FF 7F 00     !.N...../...... 
```

#### Opcodes

```
  0: 0x0513 [0x59] UPDATE_ENTITY_DATA: Set EventEntity main speed = 40* * 0.1
  1: 0x051B [0x6E] EventEntity uses emote 514*
  2: 0x0522 [0x99] Wait for EventEntity animation to complete
  3: 0x0527 [0x1C] WAIT(200* ticks)
  4: 0x052A [0x1F] MOVE_ENTITY: EventEntity moves to X=-144.467*, Z=-42.458*, Y=-23.249*
  5: 0x0532 [0x1F] MOVE_ENTITY: Update entity position (mode=1)
  6: 0x0534 [0x1F] MOVE_ENTITY: EventEntity moves to X=-125.420*, Z=-46.662*, Y=-24.093*
  7: 0x053C [0x1F] MOVE_ENTITY: Update entity position (mode=1)
  8: 0x053E [0x6F] WAIT_FRAME_DELAY: Yield until WaitTime reaches zero
  9: 0x053F [0x1C] WAIT(15* ticks)
 10: 0x0542 [0x4E] SET_ENTITY_HIDE_FLAG: Hide EventEntity
 11: 0x0548 [0x2F] EventEntity->Render.Flags0 |= 0x80000 // Bit 19
 12: 0x054E [0x00] END_REQSTACK()
```

### Event 65535.37

#### Metadata

| Field        | Value    |
|--------------|----------|
| Entrypoint   | 0x054F   |
| Data Size    | 60 bytes |
| Instructions | 13       |

```
      00 01 02 03 04 05 06 07  08 09 0A 0B 0C 0D 0E 0F
      -- -- -- -- -- -- -- --  -- -- -- -- -- -- -- --
0540:                                               59                 Y
0550: 04 F8 FF FF 7F 67 80 6E  F8 FF FF 7F 93 80 99 F8  .....g.n........
0560: FF FF 7F 1C 7E 80 1F 00  97 80 98 80 99 80 1F 01  ....~...........
0570: 1F 00 8A 80 8B 80 8C 80  1F 01 6F 1C 21 80 4E 01  ..........o.!.N.
0580: F8 FF FF 7F 2F 01 F8 FF  FF 7F 00                 ..../......     
```

#### Opcodes

```
  0: 0x054F [0x59] UPDATE_ENTITY_DATA: Set EventEntity main speed = 40* * 0.1
  1: 0x0557 [0x6E] EventEntity uses emote 514*
  2: 0x055E [0x99] Wait for EventEntity animation to complete
  3: 0x0563 [0x1C] WAIT(200* ticks)
  4: 0x0566 [0x1F] MOVE_ENTITY: EventEntity moves to X=-144.002*, Z=-44.457*, Y=-23.311*
  5: 0x056E [0x1F] MOVE_ENTITY: Update entity position (mode=1)
  6: 0x0570 [0x1F] MOVE_ENTITY: EventEntity moves to X=-125.420*, Z=-46.662*, Y=-24.093*
  7: 0x0578 [0x1F] MOVE_ENTITY: Update entity position (mode=1)
  8: 0x057A [0x6F] WAIT_FRAME_DELAY: Yield until WaitTime reaches zero
  9: 0x057B [0x1C] WAIT(15* ticks)
 10: 0x057E [0x4E] SET_ENTITY_HIDE_FLAG: Hide EventEntity
 11: 0x0584 [0x2F] EventEntity->Render.Flags0 |= 0x80000 // Bit 19
 12: 0x058A [0x00] END_REQSTACK()
```

### Event 65535.38

#### Metadata

| Field        | Value    |
|--------------|----------|
| Entrypoint   | 0x058B   |
| Data Size    | 20 bytes |
| Instructions | 5        |

```
      00 01 02 03 04 05 06 07  08 09 0A 0B 0C 0D 0E 0F
      -- -- -- -- -- -- -- --  -- -- -- -- -- -- -- --
0580:                                   59 04 F8 FF FF             Y....
0590: 7F 67 80 1F 00 9A 80 9B  80 9C 80 1F 01 6F 00     .g...........o. 
```

#### Opcodes

```
  0: 0x058B [0x59] UPDATE_ENTITY_DATA: Set EventEntity main speed = 40* * 0.1
  1: 0x0593 [0x1F] MOVE_ENTITY: EventEntity moves to X=-161.888*, Z=-37.719*, Y=-23.906*
  2: 0x059B [0x1F] MOVE_ENTITY: Update entity position (mode=1)
  3: 0x059D [0x6F] WAIT_FRAME_DELAY: Yield until WaitTime reaches zero
  4: 0x059E [0x00] END_REQSTACK()
```

### Event 65535.39

#### Metadata

| Field        | Value    |
|--------------|----------|
| Entrypoint   | 0x059F   |
| Data Size    | 20 bytes |
| Instructions | 5        |

```
      00 01 02 03 04 05 06 07  08 09 0A 0B 0C 0D 0E 0F
      -- -- -- -- -- -- -- --  -- -- -- -- -- -- -- --
0590:                                               59                 Y
05A0: 04 F8 FF FF 7F 67 80 1F  00 9D 80 9E 80 9F 80 1F  .....g..........
05B0: 01 6F 00                                          .o.             
```

#### Opcodes

```
  0: 0x059F [0x59] UPDATE_ENTITY_DATA: Set EventEntity main speed = 40* * 0.1
  1: 0x05A7 [0x1F] MOVE_ENTITY: EventEntity moves to X=-161.983*, Z=-40.415*, Y=-23.858*
  2: 0x05AF [0x1F] MOVE_ENTITY: Update entity position (mode=1)
  3: 0x05B1 [0x6F] WAIT_FRAME_DELAY: Yield until WaitTime reaches zero
  4: 0x05B2 [0x00] END_REQSTACK()
```

### Event 65535.40

#### Metadata

| Field        | Value    |
|--------------|----------|
| Entrypoint   | 0x05B3   |
| Data Size    | 30 bytes |
| Instructions | 7        |

```
      00 01 02 03 04 05 06 07  08 09 0A 0B 0C 0D 0E 0F
      -- -- -- -- -- -- -- --  -- -- -- -- -- -- -- --
05B0:          59 04 F8 FF FF  7F 67 80 1F 00 71 80 72     Y.....g...q.r
05C0: 80 73 80 1F 01 1F 00 A0  80 A1 80 A2 80 1F 01 6F  .s.............o
05D0: 00                                                .               
```

#### Opcodes

```
  0: 0x05B3 [0x59] UPDATE_ENTITY_DATA: Set EventEntity main speed = 40* * 0.1
  1: 0x05BB [0x1F] MOVE_ENTITY: EventEntity moves to X=-151.206*, Z=-41.069*, Y=-23.761*
  2: 0x05C3 [0x1F] MOVE_ENTITY: Update entity position (mode=1)
  3: 0x05C5 [0x1F] MOVE_ENTITY: EventEntity moves to X=-132.440*, Z=-29.540*, Y=-22.375*
  4: 0x05CD [0x1F] MOVE_ENTITY: Update entity position (mode=1)
  5: 0x05CF [0x6F] WAIT_FRAME_DELAY: Yield until WaitTime reaches zero
  6: 0x05D0 [0x00] END_REQSTACK()
```

### Event 65535.41

#### Metadata

| Field        | Value    |
|--------------|----------|
| Entrypoint   | 0x05D1   |
| Data Size    | 13 bytes |
| Instructions | 3        |

```
      00 01 02 03 04 05 06 07  08 09 0A 0B 0C 0D 0E 0F
      -- -- -- -- -- -- -- --  -- -- -- -- -- -- -- --
05D0:    6E F8 FF FF 7F A3 80  99 F8 FF FF 7F 00         n............  
```

#### Opcodes

```
  0: 0x05D1 [0x6E] EventEntity uses emote 2*
  1: 0x05D8 [0x99] Wait for EventEntity animation to complete
  2: 0x05DD [0x00] END_REQSTACK()
```

### Event 65535.42

#### Metadata

| Field        | Value    |
|--------------|----------|
| Entrypoint   | 0x05DE   |
| Data Size    | 16 bytes |
| Instructions | 4        |

```
      00 01 02 03 04 05 06 07  08 09 0A 0B 0C 0D 0E 0F
      -- -- -- -- -- -- -- --  -- -- -- -- -- -- -- --
05D0:                                            1C 20                . 
05E0: 80 6E F8 FF FF 7F A3 80  99 F8 FF FF 7F 00        .n............  
```

#### Opcodes

```
  0: 0x05DE [0x1C] WAIT(30* ticks)
  1: 0x05E1 [0x6E] EventEntity uses emote 2*
  2: 0x05E8 [0x99] Wait for EventEntity animation to complete
  3: 0x05ED [0x00] END_REQSTACK()
```

### Event 65535.43

#### Metadata

| Field        | Value    |
|--------------|----------|
| Entrypoint   | 0x05EE   |
| Data Size    | 33 bytes |
| Instructions | 8        |

```
      00 01 02 03 04 05 06 07  08 09 0A 0B 0C 0D 0E 0F
      -- -- -- -- -- -- -- --  -- -- -- -- -- -- -- --
05E0:                                            59 04                Y.
05F0: F8 FF FF 7F 07 80 1C A3  80 1F 00 A4 80 A5 80 A6  ................
0600: 80 1F 01 1F 00 A7 80 A8  80 A9 80 1F 01 6F 00     .............o. 
```

#### Opcodes

```
  0: 0x05EE [0x59] UPDATE_ENTITY_DATA: Set EventEntity main speed = 13* * 0.1
  1: 0x05F6 [0x1C] WAIT(2* ticks)
  2: 0x05F9 [0x1F] MOVE_ENTITY: EventEntity moves to X=-159.924*, Z=-28.545*, Y=-22.268*
  3: 0x0601 [0x1F] MOVE_ENTITY: Update entity position (mode=1)
  4: 0x0603 [0x1F] MOVE_ENTITY: EventEntity moves to X=-151.856*, Z=-27.681*, Y=-23.214*
  5: 0x060B [0x1F] MOVE_ENTITY: Update entity position (mode=1)
  6: 0x060D [0x6F] WAIT_FRAME_DELAY: Yield until WaitTime reaches zero
  7: 0x060E [0x00] END_REQSTACK()
```

### Event 65535.44

#### Metadata

| Field        | Value    |
|--------------|----------|
| Entrypoint   | 0x060F   |
| Data Size    | 30 bytes |
| Instructions | 7        |

```
      00 01 02 03 04 05 06 07  08 09 0A 0B 0C 0D 0E 0F
      -- -- -- -- -- -- -- --  -- -- -- -- -- -- -- --
0600:                                               59                 Y
0610: 04 F8 FF FF 7F 07 80 1F  00 AA 80 AB 80 AC 80 1F  ................
0620: 01 1F 00 AD 80 AE 80 AF  80 1F 01 6F 00           ...........o.   
```

#### Opcodes

```
  0: 0x060F [0x59] UPDATE_ENTITY_DATA: Set EventEntity main speed = 13* * 0.1
  1: 0x0617 [0x1F] MOVE_ENTITY: EventEntity moves to X=-158.259*, Z=-29.651*, Y=-22.676*
  2: 0x061F [0x1F] MOVE_ENTITY: Update entity position (mode=1)
  3: 0x0621 [0x1F] MOVE_ENTITY: EventEntity moves to X=-150.507*, Z=-27.905*, Y=-23.566*
  4: 0x0629 [0x1F] MOVE_ENTITY: Update entity position (mode=1)
  5: 0x062B [0x6F] WAIT_FRAME_DELAY: Yield until WaitTime reaches zero
  6: 0x062C [0x00] END_REQSTACK()
```

### Event 65535.45

#### Metadata

| Field        | Value    |
|--------------|----------|
| Entrypoint   | 0x062D   |
| Data Size    | 33 bytes |
| Instructions | 8        |

```
      00 01 02 03 04 05 06 07  08 09 0A 0B 0C 0D 0E 0F
      -- -- -- -- -- -- -- --  -- -- -- -- -- -- -- --
0620:                                         59 04 F8               Y..
0630: FF FF 7F 07 80 1C 1F 80  1F 00 B0 80 B1 80 B2 80  ................
0640: 1F 01 1F 00 B3 80 B4 80  B5 80 1F 01 6F 00        ............o.  
```

#### Opcodes

```
  0: 0x062D [0x59] UPDATE_ENTITY_DATA: Set EventEntity main speed = 13* * 0.1
  1: 0x0635 [0x1C] WAIT(3* ticks)
  2: 0x0638 [0x1F] MOVE_ENTITY: EventEntity moves to X=-156.981*, Z=-30.594*, Y=-23.076*
  3: 0x0640 [0x1F] MOVE_ENTITY: Update entity position (mode=1)
  4: 0x0642 [0x1F] MOVE_ENTITY: EventEntity moves to X=-149.647*, Z=-26.590*, Y=-22.647*
  5: 0x064A [0x1F] MOVE_ENTITY: Update entity position (mode=1)
  6: 0x064C [0x6F] WAIT_FRAME_DELAY: Yield until WaitTime reaches zero
  7: 0x064D [0x00] END_REQSTACK()
```

### Event 65535.46

#### Metadata

| Field        | Value    |
|--------------|----------|
| Entrypoint   | 0x064E   |
| Data Size    | 30 bytes |
| Instructions | 7        |

```
      00 01 02 03 04 05 06 07  08 09 0A 0B 0C 0D 0E 0F
      -- -- -- -- -- -- -- --  -- -- -- -- -- -- -- --
0640:                                            59 04                Y.
0650: F8 FF FF 7F 07 80 1F 00  B6 80 B7 80 B8 80 1F 01  ................
0660: 1F 00 B9 80 BA 80 BB 80  1F 01 6F 00              ..........o.    
```

#### Opcodes

```
  0: 0x064E [0x59] UPDATE_ENTITY_DATA: Set EventEntity main speed = 13* * 0.1
  1: 0x0656 [0x1F] MOVE_ENTITY: EventEntity moves to X=-159.038*, Z=-27.359*, Y=-22.117*
  2: 0x065E [0x1F] MOVE_ENTITY: Update entity position (mode=1)
  3: 0x0660 [0x1F] MOVE_ENTITY: EventEntity moves to X=-151.477*, Z=-26.772*, Y=-22.658*
  4: 0x0668 [0x1F] MOVE_ENTITY: Update entity position (mode=1)
  5: 0x066A [0x6F] WAIT_FRAME_DELAY: Yield until WaitTime reaches zero
  6: 0x066B [0x00] END_REQSTACK()
```

### Event 65535.47

#### Metadata

| Field        | Value    |
|--------------|----------|
| Entrypoint   | 0x066C   |
| Data Size    | 30 bytes |
| Instructions | 7        |

```
      00 01 02 03 04 05 06 07  08 09 0A 0B 0C 0D 0E 0F
      -- -- -- -- -- -- -- --  -- -- -- -- -- -- -- --
0660:                                      59 04 F8 FF              Y...
0670: FF 7F 07 80 1F 00 BC 80  BD 80 BE 80 1F 01 1F 00  ................
0680: BF 80 C0 80 C1 80 1F 01  6F 00                    ........o.      
```

#### Opcodes

```
  0: 0x066C [0x59] UPDATE_ENTITY_DATA: Set EventEntity main speed = 13* * 0.1
  1: 0x0674 [0x1F] MOVE_ENTITY: EventEntity moves to X=-154.201*, Z=-30.842*, Y=-23.644*
  2: 0x067C [0x1F] MOVE_ENTITY: Update entity position (mode=1)
  3: 0x067E [0x1F] MOVE_ENTITY: EventEntity moves to X=-147.990*, Z=-26.142*, Y=-22.451*
  4: 0x0686 [0x1F] MOVE_ENTITY: Update entity position (mode=1)
  5: 0x0688 [0x6F] WAIT_FRAME_DELAY: Yield until WaitTime reaches zero
  6: 0x0689 [0x00] END_REQSTACK()
```

### Event 65535.48

#### Metadata

| Field        | Value    |
|--------------|----------|
| Entrypoint   | 0x068A   |
| Data Size    | 33 bytes |
| Instructions | 8        |

```
      00 01 02 03 04 05 06 07  08 09 0A 0B 0C 0D 0E 0F
      -- -- -- -- -- -- -- --  -- -- -- -- -- -- -- --
0680:                                59 04 F8 FF FF 7F            Y.....
0690: 07 80 1C A3 80 1F 00 C2  80 C3 80 C4 80 1F 01 1F  ................
06A0: 00 C5 80 C6 80 C7 80 1F  01 6F 00                 .........o.     
```

#### Opcodes

```
  0: 0x068A [0x59] UPDATE_ENTITY_DATA: Set EventEntity main speed = 13* * 0.1
  1: 0x0692 [0x1C] WAIT(2* ticks)
  2: 0x0695 [0x1F] MOVE_ENTITY: EventEntity moves to X=-155.462*, Z=-29.825*, Y=-23.217*
  3: 0x069D [0x1F] MOVE_ENTITY: Update entity position (mode=1)
  4: 0x069F [0x1F] MOVE_ENTITY: EventEntity moves to X=-147.467*, Z=-27.156*, Y=-23.263*
  5: 0x06A7 [0x1F] MOVE_ENTITY: Update entity position (mode=1)
  6: 0x06A9 [0x6F] WAIT_FRAME_DELAY: Yield until WaitTime reaches zero
  7: 0x06AA [0x00] END_REQSTACK()
```

### Event 65535.49

#### Metadata

| Field        | Value    |
|--------------|----------|
| Entrypoint   | 0x06AB   |
| Data Size    | 30 bytes |
| Instructions | 7        |

```
      00 01 02 03 04 05 06 07  08 09 0A 0B 0C 0D 0E 0F
      -- -- -- -- -- -- -- --  -- -- -- -- -- -- -- --
06A0:                                   59 04 F8 FF FF             Y....
06B0: 7F 07 80 1F 00 C8 80 C9  80 CA 80 1F 01 1F 00 CB  ................
06C0: 80 CC 80 CD 80 1F 01 6F  00                       .......o.       
```

#### Opcodes

```
  0: 0x06AB [0x59] UPDATE_ENTITY_DATA: Set EventEntity main speed = 13* * 0.1
  1: 0x06B3 [0x1F] MOVE_ENTITY: EventEntity moves to X=-157.346*, Z=-28.786*, Y=-22.668*
  2: 0x06BB [0x1F] MOVE_ENTITY: Update entity position (mode=1)
  3: 0x06BD [0x1F] MOVE_ENTITY: EventEntity moves to X=-149.017*, Z=-27.799*, Y=-23.670*
  4: 0x06C5 [0x1F] MOVE_ENTITY: Update entity position (mode=1)
  5: 0x06C7 [0x6F] WAIT_FRAME_DELAY: Yield until WaitTime reaches zero
  6: 0x06C8 [0x00] END_REQSTACK()
```

### Event 65535.50

#### Metadata

| Field        | Value    |
|--------------|----------|
| Entrypoint   | 0x06C9   |
| Data Size    | 40 bytes |
| Instructions | 9        |

```
      00 01 02 03 04 05 06 07  08 09 0A 0B 0C 0D 0E 0F
      -- -- -- -- -- -- -- --  -- -- -- -- -- -- -- --
06C0:                             59 04 F8 FF FF 7F CE           Y......
06D0: 80 1F 00 C5 80 C6 80 C7  80 1F 01 1F 00 CF 80 D0  ................
06E0: 80 D1 80 1F 01 1F 00 D2  80 D3 80 D4 80 1F 01 6F  ...............o
06F0: 00                                                .               
```

#### Opcodes

```
  0: 0x06C9 [0x59] UPDATE_ENTITY_DATA: Set EventEntity main speed = 16* * 0.1
  1: 0x06D1 [0x1F] MOVE_ENTITY: EventEntity moves to X=-147.467*, Z=-27.156*, Y=-23.263*
  2: 0x06D9 [0x1F] MOVE_ENTITY: Update entity position (mode=1)
  3: 0x06DB [0x1F] MOVE_ENTITY: EventEntity moves to X=-134.434*, Z=-12.638*, Y=-18.085*
  4: 0x06E3 [0x1F] MOVE_ENTITY: Update entity position (mode=1)
  5: 0x06E5 [0x1F] MOVE_ENTITY: EventEntity moves to X=-130.267*, Z=-1.386*, Y=-15.688*
  6: 0x06ED [0x1F] MOVE_ENTITY: Update entity position (mode=1)
  7: 0x06EF [0x6F] WAIT_FRAME_DELAY: Yield until WaitTime reaches zero
  8: 0x06F0 [0x00] END_REQSTACK()
```

### Event 65535.51

#### Metadata

| Field        | Value    |
|--------------|----------|
| Entrypoint   | 0x06F1   |
| Data Size    | 40 bytes |
| Instructions | 9        |

```
      00 01 02 03 04 05 06 07  08 09 0A 0B 0C 0D 0E 0F
      -- -- -- -- -- -- -- --  -- -- -- -- -- -- -- --
06F0:    59 04 F8 FF FF 7F D5  80 1F 00 BF 80 C0 80 C1   Y..............
0700: 80 1F 01 1F 00 CF 80 D0  80 D1 80 1F 01 1F 00 D2  ................
0710: 80 D3 80 D4 80 1F 01 6F  00                       .......o.       
```

#### Opcodes

```
  0: 0x06F1 [0x59] UPDATE_ENTITY_DATA: Set EventEntity main speed = 14* * 0.1
  1: 0x06F9 [0x1F] MOVE_ENTITY: EventEntity moves to X=-147.990*, Z=-26.142*, Y=-22.451*
  2: 0x0701 [0x1F] MOVE_ENTITY: Update entity position (mode=1)
  3: 0x0703 [0x1F] MOVE_ENTITY: EventEntity moves to X=-134.434*, Z=-12.638*, Y=-18.085*
  4: 0x070B [0x1F] MOVE_ENTITY: Update entity position (mode=1)
  5: 0x070D [0x1F] MOVE_ENTITY: EventEntity moves to X=-130.267*, Z=-1.386*, Y=-15.688*
  6: 0x0715 [0x1F] MOVE_ENTITY: Update entity position (mode=1)
  7: 0x0717 [0x6F] WAIT_FRAME_DELAY: Yield until WaitTime reaches zero
  8: 0x0718 [0x00] END_REQSTACK()
```

### Event 65535.52

#### Metadata

| Field        | Value    |
|--------------|----------|
| Entrypoint   | 0x0719   |
| Data Size    | 40 bytes |
| Instructions | 9        |

```
      00 01 02 03 04 05 06 07  08 09 0A 0B 0C 0D 0E 0F
      -- -- -- -- -- -- -- --  -- -- -- -- -- -- -- --
0710:                             59 04 F8 FF FF 7F 5E           Y.....^
0720: 80 1F 00 CB 80 CC 80 CD  80 1F 01 1F 00 CF 80 D0  ................
0730: 80 D1 80 1F 01 1F 00 D2  80 D3 80 D4 80 1F 01 6F  ...............o
0740: 00                                                .               
```

#### Opcodes

```
  0: 0x0719 [0x59] UPDATE_ENTITY_DATA: Set EventEntity main speed = 11* * 0.1
  1: 0x0721 [0x1F] MOVE_ENTITY: EventEntity moves to X=-149.017*, Z=-27.799*, Y=-23.670*
  2: 0x0729 [0x1F] MOVE_ENTITY: Update entity position (mode=1)
  3: 0x072B [0x1F] MOVE_ENTITY: EventEntity moves to X=-134.434*, Z=-12.638*, Y=-18.085*
  4: 0x0733 [0x1F] MOVE_ENTITY: Update entity position (mode=1)
  5: 0x0735 [0x1F] MOVE_ENTITY: EventEntity moves to X=-130.267*, Z=-1.386*, Y=-15.688*
  6: 0x073D [0x1F] MOVE_ENTITY: Update entity position (mode=1)
  7: 0x073F [0x6F] WAIT_FRAME_DELAY: Yield until WaitTime reaches zero
  8: 0x0740 [0x00] END_REQSTACK()
```

### Event 65535.53

#### Metadata

| Field        | Value    |
|--------------|----------|
| Entrypoint   | 0x0741   |
| Data Size    | 40 bytes |
| Instructions | 9        |

```
      00 01 02 03 04 05 06 07  08 09 0A 0B 0C 0D 0E 0F
      -- -- -- -- -- -- -- --  -- -- -- -- -- -- -- --
0740:    59 04 F8 FF FF 7F D5  80 1F 00 B3 80 B4 80 B5   Y..............
0750: 80 1F 01 1F 00 CF 80 D0  80 D1 80 1F 01 1F 00 D2  ................
0760: 80 D3 80 D4 80 1F 01 6F  00                       .......o.       
```

#### Opcodes

```
  0: 0x0741 [0x59] UPDATE_ENTITY_DATA: Set EventEntity main speed = 14* * 0.1
  1: 0x0749 [0x1F] MOVE_ENTITY: EventEntity moves to X=-149.647*, Z=-26.590*, Y=-22.647*
  2: 0x0751 [0x1F] MOVE_ENTITY: Update entity position (mode=1)
  3: 0x0753 [0x1F] MOVE_ENTITY: EventEntity moves to X=-134.434*, Z=-12.638*, Y=-18.085*
  4: 0x075B [0x1F] MOVE_ENTITY: Update entity position (mode=1)
  5: 0x075D [0x1F] MOVE_ENTITY: EventEntity moves to X=-130.267*, Z=-1.386*, Y=-15.688*
  6: 0x0765 [0x1F] MOVE_ENTITY: Update entity position (mode=1)
  7: 0x0767 [0x6F] WAIT_FRAME_DELAY: Yield until WaitTime reaches zero
  8: 0x0768 [0x00] END_REQSTACK()
```

### Event 65535.54

#### Metadata

| Field        | Value    |
|--------------|----------|
| Entrypoint   | 0x0769   |
| Data Size    | 40 bytes |
| Instructions | 9        |

```
      00 01 02 03 04 05 06 07  08 09 0A 0B 0C 0D 0E 0F
      -- -- -- -- -- -- -- --  -- -- -- -- -- -- -- --
0760:                             59 04 F8 FF FF 7F 07           Y......
0770: 80 1F 00 AD 80 AE 80 AF  80 1F 01 1F 00 CF 80 D0  ................
0780: 80 D1 80 1F 01 1F 00 D2  80 D3 80 D4 80 1F 01 6F  ...............o
0790: 00                                                .               
```

#### Opcodes

```
  0: 0x0769 [0x59] UPDATE_ENTITY_DATA: Set EventEntity main speed = 13* * 0.1
  1: 0x0771 [0x1F] MOVE_ENTITY: EventEntity moves to X=-150.507*, Z=-27.905*, Y=-23.566*
  2: 0x0779 [0x1F] MOVE_ENTITY: Update entity position (mode=1)
  3: 0x077B [0x1F] MOVE_ENTITY: EventEntity moves to X=-134.434*, Z=-12.638*, Y=-18.085*
  4: 0x0783 [0x1F] MOVE_ENTITY: Update entity position (mode=1)
  5: 0x0785 [0x1F] MOVE_ENTITY: EventEntity moves to X=-130.267*, Z=-1.386*, Y=-15.688*
  6: 0x078D [0x1F] MOVE_ENTITY: Update entity position (mode=1)
  7: 0x078F [0x6F] WAIT_FRAME_DELAY: Yield until WaitTime reaches zero
  8: 0x0790 [0x00] END_REQSTACK()
```

### Event 65535.55

#### Metadata

| Field        | Value    |
|--------------|----------|
| Entrypoint   | 0x0791   |
| Data Size    | 40 bytes |
| Instructions | 9        |

```
      00 01 02 03 04 05 06 07  08 09 0A 0B 0C 0D 0E 0F
      -- -- -- -- -- -- -- --  -- -- -- -- -- -- -- --
0790:    59 04 F8 FF FF 7F D5  80 1F 00 B9 80 BA 80 BB   Y..............
07A0: 80 1F 01 1F 00 CF 80 D0  80 D1 80 1F 01 1F 00 D2  ................
07B0: 80 D3 80 D4 80 1F 01 6F  00                       .......o.       
```

#### Opcodes

```
  0: 0x0791 [0x59] UPDATE_ENTITY_DATA: Set EventEntity main speed = 14* * 0.1
  1: 0x0799 [0x1F] MOVE_ENTITY: EventEntity moves to X=-151.477*, Z=-26.772*, Y=-22.658*
  2: 0x07A1 [0x1F] MOVE_ENTITY: Update entity position (mode=1)
  3: 0x07A3 [0x1F] MOVE_ENTITY: EventEntity moves to X=-134.434*, Z=-12.638*, Y=-18.085*
  4: 0x07AB [0x1F] MOVE_ENTITY: Update entity position (mode=1)
  5: 0x07AD [0x1F] MOVE_ENTITY: EventEntity moves to X=-130.267*, Z=-1.386*, Y=-15.688*
  6: 0x07B5 [0x1F] MOVE_ENTITY: Update entity position (mode=1)
  7: 0x07B7 [0x6F] WAIT_FRAME_DELAY: Yield until WaitTime reaches zero
  8: 0x07B8 [0x00] END_REQSTACK()
```

### Event 65535.56

#### Metadata

| Field        | Value    |
|--------------|----------|
| Entrypoint   | 0x07B9   |
| Data Size    | 40 bytes |
| Instructions | 9        |

```
      00 01 02 03 04 05 06 07  08 09 0A 0B 0C 0D 0E 0F
      -- -- -- -- -- -- -- --  -- -- -- -- -- -- -- --
07B0:                             59 04 F8 FF FF 7F 07           Y......
07C0: 80 1F 00 A7 80 A8 80 A9  80 1F 01 1F 00 CF 80 D0  ................
07D0: 80 D1 80 1F 01 1F 00 D2  80 D3 80 D4 80 1F 01 6F  ...............o
07E0: 00                                                .               
```

#### Opcodes

```
  0: 0x07B9 [0x59] UPDATE_ENTITY_DATA: Set EventEntity main speed = 13* * 0.1
  1: 0x07C1 [0x1F] MOVE_ENTITY: EventEntity moves to X=-151.856*, Z=-27.681*, Y=-23.214*
  2: 0x07C9 [0x1F] MOVE_ENTITY: Update entity position (mode=1)
  3: 0x07CB [0x1F] MOVE_ENTITY: EventEntity moves to X=-134.434*, Z=-12.638*, Y=-18.085*
  4: 0x07D3 [0x1F] MOVE_ENTITY: Update entity position (mode=1)
  5: 0x07D5 [0x1F] MOVE_ENTITY: EventEntity moves to X=-130.267*, Z=-1.386*, Y=-15.688*
  6: 0x07DD [0x1F] MOVE_ENTITY: Update entity position (mode=1)
  7: 0x07DF [0x6F] WAIT_FRAME_DELAY: Yield until WaitTime reaches zero
  8: 0x07E0 [0x00] END_REQSTACK()
```

### Event 65535.57

#### Metadata

| Field        | Value    |
|--------------|----------|
| Entrypoint   | 0x07E1   |
| Data Size    | 64 bytes |
| Instructions | 8        |

```
      00 01 02 03 04 05 06 07  08 09 0A 0B 0C 0D 0E 0F
      -- -- -- -- -- -- -- --  -- -- -- -- -- -- -- --
07E0:    4A 37 93 08 01 5C 93  08 01 4A 38 93 08 01 5C   J7...\...J8...\
07F0: 93 08 01 4A 39 93 08 01  5C 93 08 01 4A 3A 93 08  ...J9...\...J:..
0800: 01 5C 93 08 01 4A 5F 93  08 01 5C 93 08 01 4A 60  .\...J_...\...J`
0810: 93 08 01 5C 93 08 01 4A  61 93 08 01 5C 93 08 01  ...\...Ja...\...
0820: 00                                                .               
```

#### Opcodes

```
  0: 0x07E1 [0x4A] ex01 (ID: 17339191/0x01089337) looks at Vestillet (ID: 17339228/0x0108935C)
  1: 0x07EA [0x4A] ex02 (ID: 17339192/0x01089338) looks at Vestillet (ID: 17339228/0x0108935C)
  2: 0x07F3 [0x4A] ex03 (ID: 17339193/0x01089339) looks at Vestillet (ID: 17339228/0x0108935C)
  3: 0x07FC [0x4A] ex04 (ID: 17339194/0x0108933A) looks at Vestillet (ID: 17339228/0x0108935C)
  4: 0x0805 [0x4A] Clovis (ID: 17339231/0x0108935F) looks at Vestillet (ID: 17339228/0x0108935C)
  5: 0x080E [0x4A] Gregoirion (ID: 17339232/0x01089360) looks at Vestillet (ID: 17339228/0x0108935C)
  6: 0x0817 [0x4A] Henrinaud (ID: 17339233/0x01089361) looks at Vestillet (ID: 17339228/0x0108935C)
  7: 0x0820 [0x00] END_REQSTACK()
```

### Event 65535.58

#### Metadata

| Field        | Value    |
|--------------|----------|
| Entrypoint   | 0x0821   |
| Data Size    | 46 bytes |
| Instructions | 6        |

```
      00 01 02 03 04 05 06 07  08 09 0A 0B 0C 0D 0E 0F
      -- -- -- -- -- -- -- --  -- -- -- -- -- -- -- --
0820:    4A 32 93 08 01 63 93  08 01 4A 33 93 08 01 63   J2...c...J3...c
0830: 93 08 01 4A 34 93 08 01  63 93 08 01 4A 35 93 08  ...J4...c...J5..
0840: 01 63 93 08 01 4A 36 93  08 01 63 93 08 01 00     .c...J6...c.... 
```

#### Opcodes

```
  0: 0x0821 [0x4A] Ironcretht Hawk 01 (ID: 17339186/0x01089332) looks at Ethelbert (ID: 17339235/0x01089363)
  1: 0x082A [0x4A] ex05 (ID: 17339187/0x01089333) looks at Ethelbert (ID: 17339235/0x01089363)
  2: 0x0833 [0x4A] ex06 (ID: 17339188/0x01089334) looks at Ethelbert (ID: 17339235/0x01089363)
  3: 0x083C [0x4A] ex07 (ID: 17339189/0x01089335) looks at Ethelbert (ID: 17339235/0x01089363)
  4: 0x0845 [0x4A] ex08 (ID: 17339190/0x01089336) looks at Ethelbert (ID: 17339235/0x01089363)
  5: 0x084E [0x00] END_REQSTACK()
```

### Event 65535.59

#### Metadata

| Field        | Value    |
|--------------|----------|
| Entrypoint   | 0x084F   |
| Data Size    | 46 bytes |
| Instructions | 6        |

```
      00 01 02 03 04 05 06 07  08 09 0A 0B 0C 0D 0E 0F
      -- -- -- -- -- -- -- --  -- -- -- -- -- -- -- --
0840:                                               4A                 J
0850: 32 93 08 01 5A 93 08 01  4A 33 93 08 01 5A 93 08  2...Z...J3...Z..
0860: 01 4A 34 93 08 01 5A 93  08 01 4A 35 93 08 01 5A  .J4...Z...J5...Z
0870: 93 08 01 4A 36 93 08 01  5A 93 08 01 00           ...J6...Z....   
```

#### Opcodes

```
  0: 0x084F [0x4A] Ironcretht Hawk 01 (ID: 17339186/0x01089332) looks at Ragelise (ID: 17339226/0x0108935A)
  1: 0x0858 [0x4A] ex05 (ID: 17339187/0x01089333) looks at Ragelise (ID: 17339226/0x0108935A)
  2: 0x0861 [0x4A] ex06 (ID: 17339188/0x01089334) looks at Ragelise (ID: 17339226/0x0108935A)
  3: 0x086A [0x4A] ex07 (ID: 17339189/0x01089335) looks at Ragelise (ID: 17339226/0x0108935A)
  4: 0x0873 [0x4A] ex08 (ID: 17339190/0x01089336) looks at Ragelise (ID: 17339226/0x0108935A)
  5: 0x087C [0x00] END_REQSTACK()
```

### Event 65535.60

#### Metadata

| Field        | Value    |
|--------------|----------|
| Entrypoint   | 0x087D   |
| Data Size    | 27 bytes |
| Instructions | 6        |

```
      00 01 02 03 04 05 06 07  08 09 0A 0B 0C 0D 0E 0F
      -- -- -- -- -- -- -- --  -- -- -- -- -- -- -- --
0870:                                         59 04 F8               Y..
0880: FF FF 7F CE 80 1F 00 D6  80 D7 80 D8 80 1F 01 6F  ...............o
0890: 4B F8 FF FF 7F D9 80 00                           K.......        
```

#### Opcodes

```
  0: 0x087D [0x59] UPDATE_ENTITY_DATA: Set EventEntity main speed = 16* * 0.1
  1: 0x0885 [0x1F] MOVE_ENTITY: EventEntity moves to X=-441.441*, Z=-229.306*, Y=19.999*
  2: 0x088D [0x1F] MOVE_ENTITY: Update entity position (mode=1)
  3: 0x088F [0x6F] WAIT_FRAME_DELAY: Yield until WaitTime reaches zero
  4: 0x0890 [0x4B] UPDATE_ENTITY_YAW(entity=EventEntity, yaw=10.1°*)
  5: 0x0897 [0x00] END_REQSTACK()
```

### Event 65535.61

#### Metadata

| Field        | Value    |
|--------------|----------|
| Entrypoint   | 0x0898   |
| Data Size    | 27 bytes |
| Instructions | 6        |

```
      00 01 02 03 04 05 06 07  08 09 0A 0B 0C 0D 0E 0F
      -- -- -- -- -- -- -- --  -- -- -- -- -- -- -- --
0890:                          59 04 F8 FF FF 7F CE 80          Y.......
08A0: 1F 00 DA 80 DB 80 D8 80  1F 01 6F 4B F8 FF FF 7F  ..........oK....
08B0: D9 80 00                                          ...             
```

#### Opcodes

```
  0: 0x0898 [0x59] UPDATE_ENTITY_DATA: Set EventEntity main speed = 16* * 0.1
  1: 0x08A0 [0x1F] MOVE_ENTITY: EventEntity moves to X=-441.003*, Z=-227.087*, Y=19.999*
  2: 0x08A8 [0x1F] MOVE_ENTITY: Update entity position (mode=1)
  3: 0x08AA [0x6F] WAIT_FRAME_DELAY: Yield until WaitTime reaches zero
  4: 0x08AB [0x4B] UPDATE_ENTITY_YAW(entity=EventEntity, yaw=10.1°*)
  5: 0x08B2 [0x00] END_REQSTACK()
```

### Event 65535.62

#### Metadata

| Field        | Value    |
|--------------|----------|
| Entrypoint   | 0x08B3   |
| Data Size    | 30 bytes |
| Instructions | 6        |

```
      00 01 02 03 04 05 06 07  08 09 0A 0B 0C 0D 0E 0F
      -- -- -- -- -- -- -- --  -- -- -- -- -- -- -- --
08B0:          5B DC 80 60 93  08 01 60 93 08 01 6C 70     [..`...`...lp
08C0: 30 31 1C DD 80 1F 00 DE  80 DF 80 E0 80 1F 01 6F  01.............o
08D0: 00                                                .               
```

#### Opcodes

```
  0: 0x08B3 [0x5B] LOAD_EXT_SCHEDULER: Load scheduler "lp01" with entities [Gregoirion (ID: 17339232/0x01089360), Gregoirion (ID: 17339232/0x01089360)], work=2915*
  1: 0x08C2 [0x1C] WAIT(100* ticks)
  2: 0x08C5 [0x1F] MOVE_ENTITY: EventEntity moves to X=-155.797*, Z=6.868*, Y=-15.857*
  3: 0x08CD [0x1F] MOVE_ENTITY: Update entity position (mode=1)
  4: 0x08CF [0x6F] WAIT_FRAME_DELAY: Yield until WaitTime reaches zero
  5: 0x08D0 [0x00] END_REQSTACK()
```

### Event 65535.63

#### Metadata

| Field        | Value    |
|--------------|----------|
| Entrypoint   | 0x08D1   |
| Data Size    | 30 bytes |
| Instructions | 6        |

```
      00 01 02 03 04 05 06 07  08 09 0A 0B 0C 0D 0E 0F
      -- -- -- -- -- -- -- --  -- -- -- -- -- -- -- --
08D0:    5B DC 80 61 93 08 01  61 93 08 01 6C 70 30 31   [..a...a...lp01
08E0: 1C DD 80 1F 00 E1 80 E2  80 E3 80 1F 01 6F 00     .............o. 
```

#### Opcodes

```
  0: 0x08D1 [0x5B] LOAD_EXT_SCHEDULER: Load scheduler "lp01" with entities [Henrinaud (ID: 17339233/0x01089361), Henrinaud (ID: 17339233/0x01089361)], work=2915*
  1: 0x08E0 [0x1C] WAIT(100* ticks)
  2: 0x08E3 [0x1F] MOVE_ENTITY: EventEntity moves to X=-157.354*, Z=6.753*, Y=-15.863*
  3: 0x08EB [0x1F] MOVE_ENTITY: Update entity position (mode=1)
  4: 0x08ED [0x6F] WAIT_FRAME_DELAY: Yield until WaitTime reaches zero
  5: 0x08EE [0x00] END_REQSTACK()
```

### Event 65535.64

#### Metadata

| Field        | Value    |
|--------------|----------|
| Entrypoint   | 0x08EF   |
| Data Size    | 50 bytes |
| Instructions | 11       |

```
      00 01 02 03 04 05 06 07  08 09 0A 0B 0C 0D 0E 0F
      -- -- -- -- -- -- -- --  -- -- -- -- -- -- -- --
08E0:                                               59                 Y
08F0: 04 F8 FF FF 7F 5E 80 1F  00 E4 80 E5 80 E6 80 1F  .....^..........
0900: 01 1F 00 E7 80 E8 80 E9  80 1F 01 1F 00 EA 80 EB  ................
0910: 80 EC 80 1F 01 1F 00 ED  80 EE 80 EF 80 1F 01 6F  ...............o
0920: 00                                                .               
```

#### Opcodes

```
  0: 0x08EF [0x59] UPDATE_ENTITY_DATA: Set EventEntity main speed = 11* * 0.1
  1: 0x08F7 [0x1F] MOVE_ENTITY: EventEntity moves to X=-86.547*, Z=5.590*, Y=-15.800*
  2: 0x08FF [0x1F] MOVE_ENTITY: Update entity position (mode=1)
  3: 0x0901 [0x1F] MOVE_ENTITY: EventEntity moves to X=-64.202*, Z=12.085*, Y=-18.180*
  4: 0x0909 [0x1F] MOVE_ENTITY: Update entity position (mode=1)
  5: 0x090B [0x1F] MOVE_ENTITY: EventEntity moves to X=-58.967*, Z=24.947*, Y=-16.413*
  6: 0x0913 [0x1F] MOVE_ENTITY: Update entity position (mode=1)
  7: 0x0915 [0x1F] MOVE_ENTITY: EventEntity moves to X=-50.064*, Z=28.242*, Y=-16.906*
  8: 0x091D [0x1F] MOVE_ENTITY: Update entity position (mode=1)
  9: 0x091F [0x6F] WAIT_FRAME_DELAY: Yield until WaitTime reaches zero
 10: 0x0920 [0x00] END_REQSTACK()
```

### Event 65535.65

#### Metadata

| Field        | Value    |
|--------------|----------|
| Entrypoint   | 0x0921   |
| Data Size    | 50 bytes |
| Instructions | 11       |

```
      00 01 02 03 04 05 06 07  08 09 0A 0B 0C 0D 0E 0F
      -- -- -- -- -- -- -- --  -- -- -- -- -- -- -- --
0920:    59 04 F8 FF FF 7F 5E  80 1F 00 F0 80 F1 80 F2   Y.....^........
0930: 80 1F 01 1F 00 F3 80 F4  80 F5 80 1F 01 1F 00 EA  ................
0940: 80 EB 80 EC 80 1F 01 1F  00 ED 80 EE 80 EF 80 1F  ................
0950: 01 6F 00                                          .o.             
```

#### Opcodes

```
  0: 0x0921 [0x59] UPDATE_ENTITY_DATA: Set EventEntity main speed = 11* * 0.1
  1: 0x0929 [0x1F] MOVE_ENTITY: EventEntity moves to X=-94.275*, Z=-2.549*, Y=-15.375*
  2: 0x0931 [0x1F] MOVE_ENTITY: Update entity position (mode=1)
  3: 0x0933 [0x1F] MOVE_ENTITY: EventEntity moves to X=-75.516*, Z=-0.471*, Y=-16.028*
  4: 0x093B [0x1F] MOVE_ENTITY: Update entity position (mode=1)
  5: 0x093D [0x1F] MOVE_ENTITY: EventEntity moves to X=-58.967*, Z=24.947*, Y=-16.413*
  6: 0x0945 [0x1F] MOVE_ENTITY: Update entity position (mode=1)
  7: 0x0947 [0x1F] MOVE_ENTITY: EventEntity moves to X=-50.064*, Z=28.242*, Y=-16.906*
  8: 0x094F [0x1F] MOVE_ENTITY: Update entity position (mode=1)
  9: 0x0951 [0x6F] WAIT_FRAME_DELAY: Yield until WaitTime reaches zero
 10: 0x0952 [0x00] END_REQSTACK()
```

### Event 19

#### Metadata

| Field        | Value   |
|--------------|---------|
| Entrypoint   | 0x0953  |
| Data Size    | 1 bytes |
| Instructions | 1       |

```
      00 01 02 03 04 05 06 07  08 09 0A 0B 0C 0D 0E 0F
      -- -- -- -- -- -- -- --  -- -- -- -- -- -- -- --
0950:          00                                          .            
```

#### Opcodes

```
  0: 0x0953 [0x00] END_REQSTACK()
```

### Event 21

#### Metadata

| Field        | Value   |
|--------------|---------|
| Entrypoint   | 0x0954  |
| Data Size    | 1 bytes |
| Instructions | 1       |

```
      00 01 02 03 04 05 06 07  08 09 0A 0B 0C 0D 0E 0F
      -- -- -- -- -- -- -- --  -- -- -- -- -- -- -- --
0950:             00                                        .           
```

#### Opcodes

```
  0: 0x0954 [0x00] END_REQSTACK()
```

### Event 23

#### Metadata

| Field        | Value   |
|--------------|---------|
| Entrypoint   | 0x0955  |
| Data Size    | 1 bytes |
| Instructions | 1       |

```
      00 01 02 03 04 05 06 07  08 09 0A 0B 0C 0D 0E 0F
      -- -- -- -- -- -- -- --  -- -- -- -- -- -- -- --
0950:                00                                      .          
```

#### Opcodes

```
  0: 0x0955 [0x00] END_REQSTACK()
```

### Event 39

#### Metadata

| Field        | Value   |
|--------------|---------|
| Entrypoint   | 0x0956  |
| Data Size    | 1 bytes |
| Instructions | 1       |

```
      00 01 02 03 04 05 06 07  08 09 0A 0B 0C 0D 0E 0F
      -- -- -- -- -- -- -- --  -- -- -- -- -- -- -- --
0950:                   00                                    .         
```

#### Opcodes

```
  0: 0x0956 [0x00] END_REQSTACK()
```

### Event 24

#### Metadata

| Field        | Value   |
|--------------|---------|
| Entrypoint   | 0x0957  |
| Data Size    | 1 bytes |
| Instructions | 1       |

```
      00 01 02 03 04 05 06 07  08 09 0A 0B 0C 0D 0E 0F
      -- -- -- -- -- -- -- --  -- -- -- -- -- -- -- --
0950:                      00                                  .        
```

#### Opcodes

```
  0: 0x0957 [0x00] END_REQSTACK()
```

### Event 65535.66

#### Metadata

| Field        | Value    |
|--------------|----------|
| Entrypoint   | 0x0958   |
| Data Size    | 21 bytes |
| Instructions | 2        |

```
      00 01 02 03 04 05 06 07  08 09 0A 0B 0C 0D 0E 0F
      -- -- -- -- -- -- -- --  -- -- -- -- -- -- -- --
0950:                          B6 0B 1F 80 1F 80 F6 80          ........
0960: F6 80 F6 80 F6 80 F6 80  F7 80 F8 80 00           .............   
```

#### Opcodes

```
  0: 0x0958 [0xB6] ENTITY_APPEARANCE_HANDLER(case=Full entity look, race=3*, hair=3*, head=221*, body=221*, hands=221*, legs=221*, feet=221*, main=250*, sub=27*)
  1: 0x096C [0x00] END_REQSTACK()
```

### Event 65535.67

#### Metadata

| Field        | Value    |
|--------------|----------|
| Entrypoint   | 0x096D   |
| Data Size    | 21 bytes |
| Instructions | 2        |

```
      00 01 02 03 04 05 06 07  08 09 0A 0B 0C 0D 0E 0F
      -- -- -- -- -- -- -- --  -- -- -- -- -- -- -- --
0960:                                         B6 0B 1E               ...
0970: 80 A3 80 F9 80 F9 80 F9  80 F9 80 F9 80 FA 80 00  ................
0980: 80 00                                             ..              
```

#### Opcodes

```
  0: 0x096D [0xB6] ENTITY_APPEARANCE_HANDLER(case=Full entity look, race=5*, hair=2*, head=109*, body=109*, hands=109*, legs=109*, feet=109*, main=280*, sub=0*)
  1: 0x0981 [0x00] END_REQSTACK()
```

### Event 65535.68

#### Metadata

| Field        | Value    |
|--------------|----------|
| Entrypoint   | 0x0982   |
| Data Size    | 21 bytes |
| Instructions | 2        |

```
      00 01 02 03 04 05 06 07  08 09 0A 0B 0C 0D 0E 0F
      -- -- -- -- -- -- -- --  -- -- -- -- -- -- -- --
0980:       B6 0B 01 80 22 80  FB 80 FB 80 FC 80 FC 80    ....".........
0990: FC 80 FD 80 FE 80 00                              .......         
```

#### Opcodes

```
  0: 0x0982 [0xB6] ENTITY_APPEARANCE_HANDLER(case=Full entity look, race=1*, hair=10*, head=222*, body=222*, hands=138*, legs=138*, feet=138*, main=82*, sub=33*)
  1: 0x0996 [0x00] END_REQSTACK()
```

### Event 65535.69

#### Metadata

| Field        | Value    |
|--------------|----------|
| Entrypoint   | 0x0997   |
| Data Size    | 21 bytes |
| Instructions | 2        |

```
      00 01 02 03 04 05 06 07  08 09 0A 0B 0C 0D 0E 0F
      -- -- -- -- -- -- -- --  -- -- -- -- -- -- -- --
0990:                      B6  0B 1F 80 30 80 F6 80 F6         ....0....
09A0: 80 F6 80 F6 80 F6 80 F7  80 F8 80 00              ............    
```

#### Opcodes

```
  0: 0x0997 [0xB6] ENTITY_APPEARANCE_HANDLER(case=Full entity look, race=3*, hair=8*, head=221*, body=221*, hands=221*, legs=221*, feet=221*, main=250*, sub=27*)
  1: 0x09AB [0x00] END_REQSTACK()
```

### Event 18

#### Metadata

| Field        | Value   |
|--------------|---------|
| Entrypoint   | 0x09AC  |
| Data Size    | 1 bytes |
| Instructions | 1       |

```
      00 01 02 03 04 05 06 07  08 09 0A 0B 0C 0D 0E 0F
      -- -- -- -- -- -- -- --  -- -- -- -- -- -- -- --
09A0:                                      00                       .   
```

#### Opcodes

```
  0: 0x09AC [0x00] END_REQSTACK()
```

### Event 65535.70

#### Metadata

| Field        | Value    |
|--------------|----------|
| Entrypoint   | 0x09AD   |
| Data Size    | 25 bytes |
| Instructions | 3        |

```
      00 01 02 03 04 05 06 07  08 09 0A 0B 0C 0D 0E 0F
      -- -- -- -- -- -- -- --  -- -- -- -- -- -- -- --
09A0:                                         B6 0B 30               ..0
09B0: 80 00 80 FF 80 00 81 00  81 00 81 00 81 01 81 01  ................
09C0: 81 B6 0F DD 80 00                                 ......          
```

#### Opcodes

```
  0: 0x09AD [0xB6] ENTITY_APPEARANCE_HANDLER(case=Full entity look, race=8*, hair=0*, head=125*, body=96*, hands=96*, legs=96*, feet=96*, main=117*, sub=117*)
  1: 0x09C1 [0xB6] ENTITY_APPEARANCE_HANDLER(case=Model size, value=100*)
  2: 0x09C5 [0x00] END_REQSTACK()
```

### Event 65535.71

#### Metadata

| Field        | Value    |
|--------------|----------|
| Entrypoint   | 0x09C6   |
| Data Size    | 25 bytes |
| Instructions | 3        |

```
      00 01 02 03 04 05 06 07  08 09 0A 0B 0C 0D 0E 0F
      -- -- -- -- -- -- -- --  -- -- -- -- -- -- -- --
09C0:                   B6 0B  30 80 1F 80 FF 80 00 81        ..0.......
09D0: 00 81 00 81 00 81 01 81  01 81 B6 0F DD 80 00     ............... 
```

#### Opcodes

```
  0: 0x09C6 [0xB6] ENTITY_APPEARANCE_HANDLER(case=Full entity look, race=8*, hair=3*, head=125*, body=96*, hands=96*, legs=96*, feet=96*, main=117*, sub=117*)
  1: 0x09DA [0xB6] ENTITY_APPEARANCE_HANDLER(case=Model size, value=100*)
  2: 0x09DE [0x00] END_REQSTACK()
```

### Event 65535.72

#### Metadata

| Field        | Value    |
|--------------|----------|
| Entrypoint   | 0x09DF   |
| Data Size    | 25 bytes |
| Instructions | 3        |

```
      00 01 02 03 04 05 06 07  08 09 0A 0B 0C 0D 0E 0F
      -- -- -- -- -- -- -- --  -- -- -- -- -- -- -- --
09D0:                                               B6                 .
09E0: 0B 1F 80 1F 80 F6 80 F6  80 07 80 F6 80 F6 80 02  ................
09F0: 81 F8 80 B6 0F 03 81 00                           ........        
```

#### Opcodes

```
  0: 0x09DF [0xB6] ENTITY_APPEARANCE_HANDLER(case=Full entity look, race=3*, hair=3*, head=221*, body=221*, hands=13*, legs=221*, feet=221*, main=251*, sub=27*)
  1: 0x09F3 [0xB6] ENTITY_APPEARANCE_HANDLER(case=Model size, value=95*)
  2: 0x09F7 [0x00] END_REQSTACK()
```

### Event 65535.73

#### Metadata

| Field        | Value    |
|--------------|----------|
| Entrypoint   | 0x09F8   |
| Data Size    | 25 bytes |
| Instructions | 3        |

```
      00 01 02 03 04 05 06 07  08 09 0A 0B 0C 0D 0E 0F
      -- -- -- -- -- -- -- --  -- -- -- -- -- -- -- --
09F0:                          B6 0B 1F 80 1F 80 F6 80          ........
0A00: F6 80 F6 80 F6 80 F6 80  F7 80 F8 80 B6 0F 03 81  ................
0A10: 00                                                .               
```

#### Opcodes

```
  0: 0x09F8 [0xB6] ENTITY_APPEARANCE_HANDLER(case=Full entity look, race=3*, hair=3*, head=221*, body=221*, hands=221*, legs=221*, feet=221*, main=250*, sub=27*)
  1: 0x0A0C [0xB6] ENTITY_APPEARANCE_HANDLER(case=Model size, value=95*)
  2: 0x0A10 [0x00] END_REQSTACK()
```

### Event 65535.74

#### Metadata

| Field        | Value    |
|--------------|----------|
| Entrypoint   | 0x0A11   |
| Data Size    | 25 bytes |
| Instructions | 3        |

```
      00 01 02 03 04 05 06 07  08 09 0A 0B 0C 0D 0E 0F
      -- -- -- -- -- -- -- --  -- -- -- -- -- -- -- --
0A10:    B6 0B 1F 80 04 81 07  80 F6 80 07 80 05 81 F6   ...............
0A20: 80 02 81 F8 80 B6 0F 03  81 00                    ..........      
```

#### Opcodes

```
  0: 0x0A11 [0xB6] ENTITY_APPEARANCE_HANDLER(case=Full entity look, race=3*, hair=4*, head=13*, body=221*, hands=13*, legs=12*, feet=221*, main=251*, sub=27*)
  1: 0x0A25 [0xB6] ENTITY_APPEARANCE_HANDLER(case=Model size, value=95*)
  2: 0x0A29 [0x00] END_REQSTACK()
```

### Event 65535.75

#### Metadata

| Field        | Value    |
|--------------|----------|
| Entrypoint   | 0x0A2A   |
| Data Size    | 25 bytes |
| Instructions | 3        |

```
      00 01 02 03 04 05 06 07  08 09 0A 0B 0C 0D 0E 0F
      -- -- -- -- -- -- -- --  -- -- -- -- -- -- -- --
0A20:                                B6 0B 1F 80 30 80            ....0.
0A30: 05 81 05 81 05 81 05 81  05 81 02 81 F8 80 B6 0F  ................
