# 17339180

## Common Data

| Field            | Value                   |
|------------------|-------------------------|
| Zone             | Xarcabard [S] (ID: 137) |
| Block Size       | 5344 bytes              |
| Total Events     | 6                       |
| References Count | 147                     |

## List of Events

| Event ID              | Entrypoint   |   Size |   Instructions |
|-----------------------|--------------|--------|----------------|
| [65535](#event-65535) | 0x0000       |      1 |              1 |
| [3](#event-3)         | 0x0001       |   2795 |            323 |
| [15](#event-15)       | 0x0AEC       |    312 |             43 |
| [14](#event-14)       | 0x0C24       |    317 |             44 |
| [16](#event-16)       | 0x0D61       |    304 |             41 |
| [13](#event-13)       | 0x0E91       |    985 |            108 |

## DAT References (imed_data)

|   Index | Hex Value   |   Dec Value |
|---------|-------------|-------------|
|       0 | 0x0013      |          19 |
|       1 | 0x86F32     |      552754 |
|       2 | 0xFFFBBDC4  |  4294688196 |
|       3 | 0x00A0      |         160 |
|       4 | 0x0960      |        2400 |
|       5 | 0x808F8     |      526584 |
|       6 | 0xFFFBD9BD  |  4294695357 |
|       7 | 0x00C7      |         199 |
|       8 | 0x0CE4      |        3300 |
|       9 | 0x835ED     |      538093 |
|      10 | 0xFFFBE651  |  4294698577 |
|      11 | 0xFFFFFF7C  |  4294967164 |
|      12 | 0x0543      |        1347 |
|      13 | 0x843F1     |      541681 |
|      14 | 0xFFFBE4A0  |  4294698144 |
|      15 | 0xFFFFFFFA  |  4294967290 |
|      16 | 0x09E4      |        2532 |
|      17 | 0x8125E     |      528990 |
|      18 | 0xFFFC0E3B  |  4294708795 |
|      19 | 0x010E      |         270 |
|      20 | 0x0222      |         546 |
|      21 | 0x809FA     |      526842 |
|      22 | 0xFFFC1BD4  |  4294712276 |
|      23 | 0x0129      |         297 |
|      24 | 0x098E      |        2446 |
|      25 | 0x82E4A     |      536138 |
|      26 | 0xFFFC146F  |  4294710383 |
|      27 | 0xFFFFFC26  |  4294966310 |
|      28 | 0x0644      |        1604 |
|      29 | 0x83308     |      537352 |
|      30 | 0xFFFC0EB1  |  4294708913 |
|      31 | 0xFFFFFC5C  |  4294966364 |
|      32 | 0x83A44     |      539204 |
|      33 | 0xFFFBDDF2  |  4294696434 |
|      34 | 0xFFFFFF43  |  4294967107 |
|      35 | 0x07B2      |        1970 |
|      36 | 0x7E555     |      517461 |
|      37 | 0xFFFBA005  |  4294680581 |
|      38 | 0xFFFFFF78  |  4294967160 |
|      39 | 0x0ABC      |        2748 |
|      40 | 0x7FF62     |      524130 |
|      41 | 0xFFFBA308  |  4294681352 |
|      42 | 0xFFFFFF9F  |  4294967199 |
|      43 | 0x0A02      |        2562 |
|      44 | 0x81598     |      529816 |
|      45 | 0xFFFC0A6D  |  4294707821 |
|      46 | 0x0170      |         368 |
|      47 | 0x0000      |           0 |
|      48 | 0x84179     |      541049 |
|      49 | 0xFFFBEC00  |  4294700032 |
|      50 | 0xFFFFFF48  |  4294967112 |
|      51 | 0x053D      |        1341 |
|      52 | 0x8285C     |      534620 |
|      53 | 0xFFFC173A  |  4294711098 |
|      54 | 0xFFFFFC16  |  4294966294 |
|      55 | 0x0001      |           1 |
|      56 | 0x00CE      |         206 |
|      57 | 0x00CF      |         207 |
|      58 | 0x00D0      |         208 |
|      59 | 0x08CF      |        2255 |
|      60 | 0x08FD      |        2301 |
|      61 | 0x08CA      |        2250 |
|      62 | 0x000F      |          15 |
|      63 | 0x0200      |         512 |
|      64 | 0x00B4      |         180 |
|      65 | 0x003C      |          60 |
|      66 | 0x04F8      |        1272 |
|      67 | 0x1E75      |        7797 |
|      68 | 0x0028      |          40 |
|      69 | 0x04F9      |        1273 |
|      70 | 0x1E76      |        7798 |
|      71 | 0x0003      |           3 |
|      72 | 0x0004      |           4 |
|      73 | 0x0005      |           5 |
|      74 | 0x0006      |           6 |
|      75 | 0x0008      |           8 |
|      76 | 0x1E77      |        7799 |
|      77 | 0x0007      |           7 |
|      78 | 0x0513      |        1299 |
|      79 | 0x1E78      |        7800 |
|      80 | 0x057E      |        1406 |
|      81 | 0x1E79      |        7801 |
|      82 | 0x1E7A      |        7802 |
|      83 | 0x0024      |          36 |
|      84 | 0x0014      |          20 |
|      85 | 0x8000B     |      524299 |
|      86 | 0xFFFBF443  |  4294702147 |
|      87 | 0x0287      |         647 |
|      88 | 0x0320      |         800 |
|      89 | 0x000A      |          10 |
|      90 | 0x005A      |          90 |
|      91 | 0x0032      |          50 |
|      92 | 0x81604     |      529924 |
|      93 | 0xFFFBDB72  |  4294695794 |
|      94 | 0x014C      |         332 |
|      95 | 0x0961      |        2401 |
|      96 | 0x1E7B      |        7803 |
|      97 | 0x005B      |          91 |
|      98 | 0x049C      |        1180 |
|      99 | 0x1E7C      |        7804 |
|     100 | 0x1E7D      |        7805 |
|     101 | 0x0A8C      |        2700 |
|     102 | 0x1E7E      |        7806 |
|     103 | 0x008C      |         140 |
|     104 | 0x816CD     |      530125 |
|     105 | 0xFFFBDB00  |  4294695680 |
|     106 | 0x0988      |        2440 |
|     107 | 0x806B2     |      526002 |
|     108 | 0xFFFBD913  |  4294695187 |
|     109 | 0x00C0      |         192 |
|     110 | 0x8103B     |      528443 |
|     111 | 0xFFFBD091  |  4294693009 |
|     112 | 0x00DC      |         220 |
|     113 | 0x00E6      |         230 |
|     114 | 0x001D      |          29 |
|     115 | 0x1E7F      |        7807 |
|     116 | 0x1E80      |        7808 |
|     117 | 0x1E81      |        7809 |
|     118 | 0x0002      |           2 |
|     119 | 0x1E82      |        7810 |
|     120 | 0x092D      |        2349 |
|     121 | 0x1E83      |        7811 |
|     122 | 0x0A63      |        2659 |
|     123 | 0x001E      |          30 |
|     124 | 0x00C8      |         200 |
|     125 | 0x85BD3     |      547795 |
|     126 | 0xFFFBE732  |  4294698802 |
|     127 | 0xFFFFFC92  |  4294966418 |
|     128 | 0x04BE      |        1214 |
|     129 | 0x8591F     |      547103 |
|     130 | 0xFFFBDAB3  |  4294695603 |
|     131 | 0xFFFFFF57  |  4294967127 |
|     132 | 0x0C8B      |        3211 |
|     133 | 0x01EB      |         491 |
|     134 | 0x0078      |         120 |
|     135 | 0x1E88      |        7816 |
|     136 | 0x1E89      |        7817 |
|     137 | 0x0023      |          35 |
|     138 | 0x1E8A      |        7818 |
|     139 | 0x1E8C      |        7820 |
|     140 | 0x1E8D      |        7821 |
|     141 | 0x1E84      |        7812 |
|     142 | 0x1E85      |        7813 |
|     143 | 0x1E87      |        7815 |
|     144 | 0x00C9      |         201 |
|     145 | 0x002D      |          45 |
|     146 | 0x00D7      |         215 |

## Events

### Event 65535

#### Metadata

| Field        | Value   |
|--------------|---------|
| Entrypoint   | 0x0000  |
| Data Size    | 1 bytes |
| Instructions | 1       |

```
      00 01 02 03 04 05 06 07  08 09 0A 0B 0C 0D 0E 0F
      -- -- -- -- -- -- -- --  -- -- -- -- -- -- -- --
0000: 00                                                .               
```

#### Opcodes

```
  0: 0x0000 [0x00] END_REQSTACK()
```

### Event 3

#### Metadata

| Field        | Value      |
|--------------|------------|
| Entrypoint   | 0x0001     |
| Data Size    | 2795 bytes |
| Instructions | 323        |

```
      00 01 02 03 04 05 06 07  08 09 0A 0B 0C 0D 0E 0F
      -- -- -- -- -- -- -- --  -- -- -- -- -- -- -- --
0000:    42 1A 3C 10 46 01 38  00 80 4E 00 F0 FF FF 7F   B.<.F.8..N.....
0010: 27 10 D6 92 08 01 04 27  10 2D 93 08 01 04 27 10  '......'.-....'.
0020: 2E 93 08 01 04 27 10 2F  93 08 01 04 27 10 30 93  .....'./....'.0.
0030: 08 01 04 2F 00 F9 92 08  01 2F 00 FA 92 08 01 2F  .../...../...../
0040: 00 0B 93 08 01 2F 00 0D  93 08 01 2F 00 0E 93 08  ...../...../....
0050: 01 2F 00 0F 93 08 01 2F  00 10 93 08 01 2F 00 11  ./...../...../..
0060: 93 08 01 2F 00 12 93 08  01 2F 00 13 93 08 01 2F  .../...../...../
0070: 00 14 93 08 01 4E 00 F9  92 08 01 4E 00 FA 92 08  .....N.....N....
0080: 01 4E 00 0B 93 08 01 4E  00 0D 93 08 01 4E 00 0E  .N.....N.....N..
0090: 93 08 01 4E 00 0F 93 08  01 4E 00 10 93 08 01 4E  ...N.....N.....N
00A0: 00 11 93 08 01 4E 00 12  93 08 01 4E 00 13 93 08  .....N.....N....
00B0: 01 4E 00 14 93 08 01 92  01 D6 92 08 01 92 01 2D  .N.............-
00C0: 93 08 01 92 01 2E 93 08  01 92 01 2F 93 08 01 92  .........../....
00D0: 01 30 93 08 01 92 01 F9  92 08 01 92 01 FA 92 08  .0..............
00E0: 01 92 01 0B 93 08 01 92  01 0D 93 08 01 92 01 0E  ................
00F0: 93 08 01 92 01 0F 93 08  01 92 01 10 93 08 01 92  ................
0100: 01 11 93 08 01 92 01 12  93 08 01 92 01 13 93 08  ................
0110: 01 92 01 14 93 08 01 94  01 F0 FF FF 7F 94 01 D6  ................
0120: 92 08 01 94 01 2D 93 08  01 94 01 2E 93 08 01 94  .....-..........
0130: 01 2F 93 08 01 94 01 30  93 08 01 94 01 F9 92 08  ./.....0........
0140: 01 94 01 FA 92 08 01 94  01 0B 93 08 01 94 01 0D  ................
0150: 93 08 01 94 01 0E 93 08  01 94 01 0F 93 08 01 94  ................
0160: 01 10 93 08 01 94 01 11  93 08 01 94 01 12 93 08  ................
0170: 01 94 01 13 93 08 01 94  01 14 93 08 01 BA F0 FF  ................
0180: FF 7F 01 80 02 80 03 80  04 80 BA D6 92 08 01 05  ................
0190: 80 06 80 07 80 08 80 BA  2E 93 08 01 09 80 0A 80  ................
01A0: 0B 80 0C 80 BA 2F 93 08  01 0D 80 0E 80 0F 80 10  ...../..........
01B0: 80 BA 30 93 08 01 11 80  12 80 13 80 14 80 BA 2D  ..0............-
01C0: 93 08 01 15 80 16 80 17  80 18 80 BA F9 92 08 01  ................
01D0: 19 80 1A 80 1B 80 1C 80  BA FA 92 08 01 1D 80 1E  ................
01E0: 80 1F 80 1C 80 BA 0B 93  08 01 20 80 21 80 22 80  .......... .!.".
01F0: 23 80 BA 0D 93 08 01 24  80 25 80 26 80 27 80 BA  #......$.%.&.'..
0200: 0E 93 08 01 28 80 29 80  2A 80 2B 80 BA 0F 93 08  ....(.).*.+.....
0210: 01 2C 80 2D 80 2E 80 2F  80 BA 10 93 08 01 30 80  .,.-.../......0.
0220: 31 80 32 80 33 80 BA 11  93 08 01 34 80 35 80 36  1.2.3......4.5.6
0230: 80 2B 80 BA 12 93 08 01  20 80 21 80 22 80 23 80  .+...... .!.".#.
0240: BA 13 93 08 01 24 80 25  80 26 80 27 80 BA 14 93  .....$.%.&.'....
0250: 08 01 2C 80 2D 80 2E 80  2F 80 80 F0 FF FF 7F 80  ..,.-.../.......
0260: D6 92 08 01 80 2D 93 08  01 80 2E 93 08 01 80 2F  .....-........./
0270: 93 08 01 80 30 93 08 01  80 F9 92 08 01 80 FA 92  ....0...........
0280: 08 01 80 0B 93 08 01 80  0D 93 08 01 80 0E 93 08  ................
0290: 01 80 0F 93 08 01 80 10  93 08 01 80 11 93 08 01  ................
02A0: 80 12 93 08 01 80 13 93  08 01 80 14 93 08 01 1C  ................
02B0: 37 80 C5 38 80 0B 93 08  01 0B 93 08 01 73 30 30  7..8.........s00
02C0: 30 2F 80 C5 38 80 12 93  08 01 12 93 08 01 73 30  0/..8.........s0
02D0: 30 31 2F 80 C5 39 80 0D  93 08 01 0D 93 08 01 73  01/..9.........s
02E0: 30 30 30 2F 80 C5 39 80  13 93 08 01 13 93 08 01  000/..9.........
02F0: 73 30 30 31 2F 80 C5 38  80 0F 93 08 01 0F 93 08  s001/..8........
0300: 01 73 30 30 30 2F 80 C5  38 80 14 93 08 01 14 93  .s000/..8.......
0310: 08 01 73 30 30 31 2F 80  C5 3A 80 10 93 08 01 10  ..s001/..:......
0320: 93 08 01 73 30 30 30 2F  80 C5 3A 80 11 93 08 01  ...s000/..:.....
0330: 11 93 08 01 73 30 30 31  2F 80 5B 3B 80 2E 93 08  ....s001/.[;....
0340: 01 2E 93 08 01 68 69 72  30 5B 3C 80 2F 93 08 01  .....hir0[<./...
0350: 2F 93 08 01 74 75 6B 6C  5B 3D 80 30 93 08 01 30  /...tukl[=.0...0
0360: 93 08 01 66 73 68 6F 27  10 F0 FF FF 7F 3F 1C 3E  ...fsho'.....?.>
0370: 80 45 3F 80 F0 FF FF 7F  F0 FF FF 7F 6E 30 30 31  .E?.........n001
0380: 2F 80 1A 1B 10 1C 40 80  52 3F 80 F0 FF FF 7F F0  /.....@.R?......
0390: FF FF 7F 6E 30 30 31 45  3F 80 F0 FF FF 7F F0 FF  ...n001E?.......
03A0: FF 7F 6E 30 30 32 2F 80  1C 41 80 59 01 D6 92 08  ..n002/..A.Y....
03B0: 01 41 80 4A D6 92 08 01  F0 FF FF 7F 6F 76 D6 92  .A.J........ov..
03C0: 08 01 5B 42 80 D6 92 08  01 D6 92 08 01 74 6C 61  ..[B.........tla
03D0: 30 2B D6 92 08 01 43 80  23 5B 42 80 D6 92 08 01  0+....C.#[B.....
03E0: D6 92 08 01 74 6C 61 31  1C 44 80 2A 10 F0 FF FF  ....tla1.D.*....
03F0: 7F 52 3F 80 F0 FF FF 7F  F0 FF FF 7F 6E 30 30 32  .R?.........n002
0400: 45 3F 80 F0 FF FF 7F F0  FF FF 7F 6E 30 30 33 2F  E?.........n003/
0410: 80 7B D6 92 08 01 81 00  D6 92 08 01 5B 45 80 D6  .{..........[E..
0420: 92 08 01 D6 92 08 01 74  68 61 30 2B D6 92 08 01  .......tha0+....
0430: 46 80 23 5B 45 80 D6 92  08 01 D6 92 08 01 74 68  F.#[E.........th
0440: 61 31 29 10 F0 FF FF 7F  04 02 02 10 47 80 80 74  a1).........G..t
0450: 04 52 3F 80 F0 FF FF 7F  F0 FF FF 7F 6E 30 30 33  .R?.........n003
0460: 45 3F 80 F0 FF FF 7F F0  FF FF 7F 6E 67 30 34 2F  E?.........ng04/
0470: 80 01 40 05 02 02 10 48  80 80 9F 04 52 3F 80 F0  ..@....H....R?..
0480: FF FF 7F F0 FF FF 7F 6E  30 30 33 45 3F 80 F0 FF  .......n003E?...
0490: FF 7F F0 FF FF 7F 6E 67  30 34 2F 80 01 40 05 02  ......ng04/..@..
04A0: 02 10 49 80 80 CA 04 52  3F 80 F0 FF FF 7F F0 FF  ..I....R?.......
04B0: FF 7F 6E 30 30 33 45 3F  80 F0 FF FF 7F F0 FF FF  ..n003E?........
04C0: 7F 6E 74 30 34 2F 80 01  40 05 02 02 10 4A 80 80  .nt04/..@....J..
04D0: F5 04 52 3F 80 F0 FF FF  7F F0 FF FF 7F 6E 30 30  ..R?.........n00
04E0: 33 45 3F 80 F0 FF FF 7F  F0 FF FF 7F 6E 74 30 34  3E?.........nt04
04F0: 2F 80 01 40 05 02 02 10  4B 80 80 20 05 52 3F 80  /..@....K.. .R?.
0500: F0 FF FF 7F F0 FF FF 7F  6E 30 30 33 45 3F 80 F0  ........n003E?..
0510: FF FF 7F F0 FF FF 7F 6E  67 30 34 2F 80 01 40 05  .......ng04/..@.
0520: 52 3F 80 F0 FF FF 7F F0  FF FF 7F 6E 30 30 33 45  R?.........n003E
0530: 3F 80 F0 FF FF 7F F0 FF  FF 7F 6E 30 30 34 2F 80  ?.........n004/.
0540: 79 00 D6 92 08 01 F0 FF  FF 7F 81 01 D6 92 08 01  y...............
0550: 4A F0 FF FF 7F D6 92 08  01 5B 42 80 D6 92 08 01  J........[B.....
0560: D6 92 08 01 74 6C 61 30  2B D6 92 08 01 4C 80 23  ....tla0+....L.#
0570: 6E F0 FF FF 7F 4D 80 99  F0 FF FF 7F 1C 41 80 81  n....M.......A..
0580: 00 D6 92 08 01 7C 00 D6  92 08 01 5B 4E 80 D6 92  .....|.....[N...
0590: 08 01 D6 92 08 01 66 64  30 31 5B 42 80 D6 92 08  ......fd01[B....
05A0: 01 D6 92 08 01 74 6C 61  31 2B D6 92 08 01 4F 80  .....tla1+....O.
05B0: 23 52 3F 80 F0 FF FF 7F  F0 FF FF 7F 6E 74 30 34  #R?.........nt04
05C0: 52 3F 80 F0 FF FF 7F F0  FF FF 7F 6E 67 30 34 52  R?.........ng04R
05D0: 3F 80 F0 FF FF 7F F0 FF  FF 7F 6E 30 30 34 45 3F  ?.........n004E?
05E0: 80 F0 FF FF 7F F0 FF FF  7F 6E 30 30 35 2F 80 7B  .........n005/.{
05F0: D6 92 08 01 5B 50 80 D6  92 08 01 D6 92 08 01 75  ....[P.........u
0600: 64 65 30 2B D6 92 08 01  51 80 23 2B D6 92 08 01  de0+....Q.#+....
0610: 52 80 23 5B 50 80 D6 92  08 01 D6 92 08 01 75 64  R.#[P.........ud
0620: 65 31 81 01 D6 92 08 01  7C 01 D6 92 08 01 6E F0  e1......|.....n.
0630: FF FF 7F 53 80 99 F0 FF  FF 7F 1C 54 80 BA 2D 93  ...S.......T..-.
0640: 08 01 55 80 56 80 57 80  58 80 1C 59 80 03 02 10  ..U.V.W.X..Y....
0650: 5A 80 27 10 F0 FF FF 7F  41 53 D6 92 08 01 D6 92  Z.'.....AS......
0660: 08 01 74 6C 61 31 5B 4E  80 D6 92 08 01 D6 92 08  ..tla1[N........
0670: 01 66 30 30 30 27 10 2D  93 08 01 09 1C 5B 80 2A  .f000'.-.....[.*
0680: 10 F0 FF FF 7F 52 3F 80  F0 FF FF 7F F0 FF FF 7F  .....R?.........
0690: 6E 30 30 35 45 3F 80 F0  FF FF 7F F0 FF FF 7F 6E  n005E?.........n
06A0: 32 30 35 2F 80 BA F0 FF  FF 7F 5C 80 5D 80 5E 80  205/......\.].^.
06B0: 5F 80 2B 2D 93 08 01 60  80 1C 41 80 4A D6 92 08  _.+-...`..A.J...
06C0: 01 2D 93 08 01 79 00 F0  FF FF 7F 2D 93 08 01 2A  .-...y.....-...*
06D0: 10 2D 93 08 01 4A 2D 93  08 01 D6 92 08 01 7B 2D  .-...J-.......{-
06E0: 93 08 01 66 61 80 2D 93  08 01 2D 93 08 01 70 61  ...fa.-...-...pa
06F0: 73 30 1C 5B 80 52 3F 80  F0 FF FF 7F F0 FF FF 7F  s0.[.R?.........
0700: 6E 32 30 35 45 3F 80 F0  FF FF 7F F0 FF FF 7F 6E  n205E?.........n
0710: 30 30 36 2F 80 03 02 10  62 80 2B 2D 93 08 01 63  006/....b.+-...c
0720: 80 23 5B 42 80 D6 92 08  01 D6 92 08 01 74 6C 61  .#[B.........tla
0730: 30 2B D6 92 08 01 64 80  23 5B 42 80 D6 92 08 01  0+....d.#[B.....
0740: D6 92 08 01 74 6C 61 31  53 2D 93 08 01 2D 93 08  ....tla1S-...-..
0750: 01 70 61 73 30 6E 2D 93  08 01 4D 80 99 2D 93 08  .pas0n-...M..-..
0760: 01 1C 5A 80 7B 2D 93 08  01 59 01 2D 93 08 01 5B  ..Z.{-...Y.-...[
0770: 80 4B 2D 93 08 01 65 80  1C 44 80 52 3F 80 F0 FF  .K-...e..D.R?...
0780: FF 7F F0 FF FF 7F 6E 30  30 36 45 3F 80 F0 FF FF  ......n006E?....
0790: 7F F0 FF FF 7F 6E 33 30  36 2F 80 6F 76 2D 93 08  .....n306/.ov-..
07A0: 01 6E 2D 93 08 01 2F 80  99 2D 93 08 01 2B 2D 93  .n-.../..-...+-.
07B0: 08 01 66 80 1C 67 80 52  3F 80 F0 FF FF 7F F0 FF  ..f..g.R?.......
07C0: FF 7F 6E 33 30 36 45 3F  80 F0 FF FF 7F F0 FF FF  ..n306E?........
07D0: 7F 6E 30 30 37 2F 80 BA  F0 FF FF 7F 68 80 69 80  .n007/......h.i.
07E0: 5E 80 6A 80 BA 2D 93 08  01 6B 80 6C 80 6D 80 27  ^.j..-...k.l.m.'
07F0: 80 BA D6 92 08 01 6E 80  6F 80 70 80 04 80 1C 37  ......n.o.p....7
0800: 80 4A D6 92 08 01 2D 93  08 01 4A F0 FF FF 7F 2D  .J....-...J....-
0810: 93 08 01 1C 71 80 23 4A  2D 93 08 01 D6 92 08 01  ....q.#J-.......
0820: 52 3F 80 F0 FF FF 7F F0  FF FF 7F 6E 30 30 37 45  R?.........n007E
0830: 3F 80 F0 FF FF 7F F0 FF  FF 7F 6E 30 30 38 2F 80  ?.........n008/.
0840: 6F 76 2D 93 08 01 66 72  80 2D 93 08 01 2D 93 08  ov-...fr.-...-..
0850: 01 74 77 61 30 03 02 10  62 80 2B 2D 93 08 01 73  .twa0...b.+-...s
0860: 80 23 2B 2D 93 08 01 74  80 23 66 72 80 2D 93 08  .#+-...t.#fr.-..
0870: 01 2D 93 08 01 74 77 61  31 52 3F 80 F0 FF FF 7F  .-...twa1R?.....
0880: F0 FF FF 7F 6E 30 30 38  45 3F 80 F0 FF FF 7F F0  ....n008E?......
0890: FF FF 7F 6E 30 30 39 2F  80 5B 42 80 D6 92 08 01  ...n009/.[B.....
08A0: D6 92 08 01 74 6C 61 30  2B D6 92 08 01 75 80 23  ....tla0+....u.#
08B0: 5B 42 80 D6 92 08 01 D6  92 08 01 74 6C 61 31 52  [B.........tla1R
08C0: 3F 80 F0 FF FF 7F F0 FF  FF 7F 6E 67 30 39 52 3F  ?.........ng09R?
08D0: 80 F0 FF FF 7F F0 FF FF  7F 6E 30 30 39 45 3F 80  .........n009E?.
08E0: F0 FF FF 7F F0 FF FF 7F  6E 31 30 39 2F 80 53 2D  ........n109/.S-
08F0: 93 08 01 2D 93 08 01 74  77 61 31 6E 2D 93 08 01  ...-...twa1n-...
0900: 76 80 99 2D 93 08 01 2B  2D 93 08 01 77 80 1C 5A  v..-...+-...w..Z
0910: 80 23 52 3F 80 F0 FF FF  7F F0 FF FF 7F 6E 31 30  .#R?.........n10
0920: 39 45 3F 80 F0 FF FF 7F  F0 FF FF 7F 6E 30 31 30  9E?.........n010
0930: 2F 80 5B 78 80 D6 92 08  01 D6 92 08 01 79 65 73  /.[x.........yes
0940: 30 1C 67 80 29 10 F0 FF  FF 7F 04 02 02 10 49 80  0.g.).........I.
0950: 80 76 09 52 3F 80 F0 FF  FF 7F F0 FF FF 7F 6E 30  .v.R?.........n0
0960: 31 30 45 3F 80 F0 FF FF  7F F0 FF FF 7F 6E 74 31  10E?.........nt1
0970: 32 2F 80 01 C1 09 02 02  10 4A 80 80 A1 09 52 3F  2/.......J....R?
0980: 80 F0 FF FF 7F F0 FF FF  7F 6E 30 31 30 45 3F 80  .........n010E?.
0990: F0 FF FF 7F F0 FF FF 7F  6E 74 31 32 2F 80 01 C1  ........nt12/...
09A0: 09 52 3F 80 F0 FF FF 7F  F0 FF FF 7F 6E 30 31 30  .R?.........n010
09B0: 45 3F 80 F0 FF FF 7F F0  FF FF 7F 6E 30 31 32 2F  E?.........n012/
09C0: 80 1C 44 80 4A D6 92 08  01 F0 FF FF 7F 7B D6 92  ..D.J........{..
09D0: 08 01 1C 44 80 2B D6 92  08 01 79 80 4A F0 FF FF  ...D.+....y.J...
09E0: 7F D6 92 08 01 1C 44 80  02 02 10 49 80 80 25 0A  ......D....I..%.
09F0: 5B 7A 80 D6 92 08 01 D6  92 08 01 74 6C 63 30 1C  [z.........tlc0.
0A00: 54 80 52 3F 80 F0 FF FF  7F F0 FF FF 7F 6E 74 31  T.R?.........nt1
0A10: 32 45 3F 80 F0 FF FF 7F  F0 FF FF 7F 6E 74 31 31  2E?.........nt11
0A20: 2F 80 01 94 0A 02 02 10  4A 80 80 62 0A 5B 7A 80  /.......J..b.[z.
0A30: D6 92 08 01 D6 92 08 01  74 6C 63 30 1C 54 80 52  ........tlc0.T.R
0A40: 3F 80 F0 FF FF 7F F0 FF  FF 7F 6E 74 31 32 45 3F  ?.........nt12E?
0A50: 80 F0 FF FF 7F F0 FF FF  7F 6E 74 31 31 2F 80 01  .........nt11/..
0A60: 94 0A 5B 42 80 D6 92 08  01 D6 92 08 01 74 6C 73  ..[B.........tls
0A70: 30 1C 54 80 52 3F 80 F0  FF FF 7F F0 FF FF 7F 6E  0.T.R?.........n
0A80: 30 31 32 45 3F 80 F0 FF  FF 7F F0 FF FF 7F 6E 30  012E?.........n0
0A90: 31 31 2F 80 53 D6 92 08  01 D6 92 08 01 74 6C 73  11/.S........tls
0AA0: 30 23 1A 3C 10 1C 7B 80  52 3F 80 F0 FF FF 7F F0  0#.<..{.R?......
0AB0: FF FF 7F 6E 74 31 31 52  3F 80 F0 FF FF 7F F0 FF  ...nt11R?.......
0AC0: FF 7F 6E 30 31 31 45 3F  80 F0 FF FF 7F F0 FF FF  ..n011E?........
0AD0: 7F 30 62 6C 72 2F 80 46  00 45 7C 80 F0 FF FF 7F  .0blr/.F.E|.....
0AE0: F0 FF FF 7F 66 64 69 32  2F 80 21 00              ....fdi2/.!.    
```

#### Opcodes

```
  0: 0x0001 [0x42] SET_CLI_EVENT_CANCEL_DATA()
  1: 0x0002 [0x1A] CALL_SUBROUTINE(address=0x103C)
  2: 0x0005 [0x46] CAMERA_CONTROL: Disable user control
  3: 0x0007 [0x38] SET_CLIENT_EVENT_MODE(mode=19*)
  4: 0x000A [0x4E] SET_ENTITY_HIDE_FLAG: Show LocalPlayer
  5: 0x0010 [0x27] REQ_SET(priority=0x10, entity_id=Excenmille (ID: 17339094/0x010892D6), tag_num=0x04)
  6: 0x0017 [0x27] REQ_SET(priority=0x10, entity_id=Vinairy (ID: 17339181/0x0108932D), tag_num=0x04)
  7: 0x001E [0x27] REQ_SET(priority=0x10, entity_id=kisiB (ID: 17339182/0x0108932E), tag_num=0x04)
  8: 0x0025 [0x27] REQ_SET(priority=0x10, entity_id=kisiC (ID: 17339183/0x0108932F), tag_num=0x04)
  9: 0x002C [0x27] REQ_SET(priority=0x10, entity_id=kisiD (ID: 17339184/0x01089330), tag_num=0x04)
 10: 0x0033 [0x2F] Unknown NPC (ID: 17339129/0x010892F9)->Render.Flags0 &= ~0x80000 // Bit 19
 11: 0x0039 [0x2F] Unknown NPC (ID: 17339130/0x010892FA)->Render.Flags0 &= ~0x80000 // Bit 19
 12: 0x003F [0x2F] ??? (ID: 17339147/0x0108930B)->Render.Flags0 &= ~0x80000 // Bit 19
 13: 0x0045 [0x2F] 03 (ID: 17339149/0x0108930D)->Render.Flags0 &= ~0x80000 // Bit 19
 14: 0x004B [0x2F] 04 (ID: 17339150/0x0108930E)->Render.Flags0 &= ~0x80000 // Bit 19
 15: 0x0051 [0x2F] 05 (ID: 17339151/0x0108930F)->Render.Flags0 &= ~0x80000 // Bit 19
 16: 0x0057 [0x2F] 06 (ID: 17339152/0x01089310)->Render.Flags0 &= ~0x80000 // Bit 19
 17: 0x005D [0x2F] 07 (ID: 17339153/0x01089311)->Render.Flags0 &= ~0x80000 // Bit 19
 18: 0x0063 [0x2F] 08 (ID: 17339154/0x01089312)->Render.Flags0 &= ~0x80000 // Bit 19
 19: 0x0069 [0x2F] 09 (ID: 17339155/0x01089313)->Render.Flags0 &= ~0x80000 // Bit 19
 20: 0x006F [0x2F] 10 (ID: 17339156/0x01089314)->Render.Flags0 &= ~0x80000 // Bit 19
 21: 0x0075 [0x4E] SET_ENTITY_HIDE_FLAG: Show Unknown NPC (ID: 17339129/0x010892F9)
 22: 0x007B [0x4E] SET_ENTITY_HIDE_FLAG: Show Unknown NPC (ID: 17339130/0x010892FA)
 23: 0x0081 [0x4E] SET_ENTITY_HIDE_FLAG: Show ??? (ID: 17339147/0x0108930B)
 24: 0x0087 [0x4E] SET_ENTITY_HIDE_FLAG: Show 03 (ID: 17339149/0x0108930D)
 25: 0x008D [0x4E] SET_ENTITY_HIDE_FLAG: Show 04 (ID: 17339150/0x0108930E)
 26: 0x0093 [0x4E] SET_ENTITY_HIDE_FLAG: Show 05 (ID: 17339151/0x0108930F)
 27: 0x0099 [0x4E] SET_ENTITY_HIDE_FLAG: Show 06 (ID: 17339152/0x01089310)
 28: 0x009F [0x4E] SET_ENTITY_HIDE_FLAG: Show 07 (ID: 17339153/0x01089311)
 29: 0x00A5 [0x4E] SET_ENTITY_HIDE_FLAG: Show 08 (ID: 17339154/0x01089312)
 30: 0x00AB [0x4E] SET_ENTITY_HIDE_FLAG: Show 09 (ID: 17339155/0x01089313)
 31: 0x00B1 [0x4E] SET_ENTITY_HIDE_FLAG: Show 10 (ID: 17339156/0x01089314)
 32: 0x00B7 [0x92] Excenmille (ID: 17339094/0x010892D6)->Render.Flags3 ^= 0x01
 33: 0x00BD [0x92] Vinairy (ID: 17339181/0x0108932D)->Render.Flags3 ^= 0x01
 34: 0x00C3 [0x92] kisiB (ID: 17339182/0x0108932E)->Render.Flags3 ^= 0x01
 35: 0x00C9 [0x92] kisiC (ID: 17339183/0x0108932F)->Render.Flags3 ^= 0x01
 36: 0x00CF [0x92] kisiD (ID: 17339184/0x01089330)->Render.Flags3 ^= 0x01
 37: 0x00D5 [0x92] Unknown NPC (ID: 17339129/0x010892F9)->Render.Flags3 ^= 0x01
 38: 0x00DB [0x92] Unknown NPC (ID: 17339130/0x010892FA)->Render.Flags3 ^= 0x01
 39: 0x00E1 [0x92] ??? (ID: 17339147/0x0108930B)->Render.Flags3 ^= 0x01
 40: 0x00E7 [0x92] 03 (ID: 17339149/0x0108930D)->Render.Flags3 ^= 0x01
 41: 0x00ED [0x92] 04 (ID: 17339150/0x0108930E)->Render.Flags3 ^= 0x01
 42: 0x00F3 [0x92] 05 (ID: 17339151/0x0108930F)->Render.Flags3 ^= 0x01
 43: 0x00F9 [0x92] 06 (ID: 17339152/0x01089310)->Render.Flags3 ^= 0x01
 44: 0x00FF [0x92] 07 (ID: 17339153/0x01089311)->Render.Flags3 ^= 0x01
 45: 0x0105 [0x92] 08 (ID: 17339154/0x01089312)->Render.Flags3 ^= 0x01
 46: 0x010B [0x92] 09 (ID: 17339155/0x01089313)->Render.Flags3 ^= 0x01
 47: 0x0111 [0x92] 10 (ID: 17339156/0x01089314)->Render.Flags3 ^= 0x01
 48: 0x0117 [0x94] LocalPlayer->Render.Flags3 ^= 0x01
 49: 0x011D [0x94] Excenmille (ID: 17339094/0x010892D6)->Render.Flags3 ^= 0x01
 50: 0x0123 [0x94] Vinairy (ID: 17339181/0x0108932D)->Render.Flags3 ^= 0x01
 51: 0x0129 [0x94] kisiB (ID: 17339182/0x0108932E)->Render.Flags3 ^= 0x01
 52: 0x012F [0x94] kisiC (ID: 17339183/0x0108932F)->Render.Flags3 ^= 0x01
 53: 0x0135 [0x94] kisiD (ID: 17339184/0x01089330)->Render.Flags3 ^= 0x01
 54: 0x013B [0x94] Unknown NPC (ID: 17339129/0x010892F9)->Render.Flags3 ^= 0x01
 55: 0x0141 [0x94] Unknown NPC (ID: 17339130/0x010892FA)->Render.Flags3 ^= 0x01
 56: 0x0147 [0x94] ??? (ID: 17339147/0x0108930B)->Render.Flags3 ^= 0x01
 57: 0x014D [0x94] 03 (ID: 17339149/0x0108930D)->Render.Flags3 ^= 0x01
 58: 0x0153 [0x94] 04 (ID: 17339150/0x0108930E)->Render.Flags3 ^= 0x01
 59: 0x0159 [0x94] 05 (ID: 17339151/0x0108930F)->Render.Flags3 ^= 0x01
 60: 0x015F [0x94] 06 (ID: 17339152/0x01089310)->Render.Flags3 ^= 0x01
 61: 0x0165 [0x94] 07 (ID: 17339153/0x01089311)->Render.Flags3 ^= 0x01
 62: 0x016B [0x94] 08 (ID: 17339154/0x01089312)->Render.Flags3 ^= 0x01
 63: 0x0171 [0x94] 09 (ID: 17339155/0x01089313)->Render.Flags3 ^= 0x01
 64: 0x0177 [0x94] 10 (ID: 17339156/0x01089314)->Render.Flags3 ^= 0x01
 65: 0x017D [0xBA] SET_ENTITY_POSITION(entity_id=LocalPlayer, pos_x=552.754*, pos_z=-279.100*, pos_y=0.160*, direction=210.9°*)
 66: 0x018A [0xBA] SET_ENTITY_POSITION(entity_id=Excenmille (ID: 17339094/0x010892D6), pos_x=526.584*, pos_z=-271.939*, pos_y=0.199*, direction=290.0°*)
 67: 0x0197 [0xBA] SET_ENTITY_POSITION(entity_id=kisiB (ID: 17339182/0x0108932E), pos_x=538.093*, pos_z=-268.719*, pos_y=-0.132*, direction=118.4°*)
 68: 0x01A4 [0xBA] SET_ENTITY_POSITION(entity_id=kisiC (ID: 17339183/0x0108932F), pos_x=541.681*, pos_z=-269.152*, pos_y=-0.006*, direction=222.5°*)
 69: 0x01B1 [0xBA] SET_ENTITY_POSITION(entity_id=kisiD (ID: 17339184/0x01089330), pos_x=528.990*, pos_z=-258.501*, pos_y=0.270*, direction=48.0°*)
 70: 0x01BE [0xBA] SET_ENTITY_POSITION(entity_id=Vinairy (ID: 17339181/0x0108932D), pos_x=526.842*, pos_z=-255.020*, pos_y=0.297*, direction=215.0°*)
 71: 0x01CB [0xBA] SET_ENTITY_POSITION(entity_id=Unknown NPC (ID: 17339129/0x010892F9), pos_x=536.138*, pos_z=-256.913*, pos_y=-0.986*, direction=141.0°*)
 72: 0x01D8 [0xBA] SET_ENTITY_POSITION(entity_id=Unknown NPC (ID: 17339130/0x010892FA), pos_x=537.352*, pos_z=-258.383*, pos_y=-0.932*, direction=141.0°*)
 73: 0x01E5 [0xBA] SET_ENTITY_POSITION(entity_id=??? (ID: 17339147/0x0108930B), pos_x=539.204*, pos_z=-270.862*, pos_y=-0.189*, direction=173.1°*)
 74: 0x01F2 [0xBA] SET_ENTITY_POSITION(entity_id=03 (ID: 17339149/0x0108930D), pos_x=517.461*, pos_z=-286.715*, pos_y=-0.136*, direction=241.5°*)
 75: 0x01FF [0xBA] SET_ENTITY_POSITION(entity_id=04 (ID: 17339150/0x0108930E), pos_x=524.130*, pos_z=-285.944*, pos_y=-0.097*, direction=225.2°*)
 76: 0x020C [0xBA] SET_ENTITY_POSITION(entity_id=05 (ID: 17339151/0x0108930F), pos_x=529.816*, pos_z=-259.475*, pos_y=0.368*, direction=0.0°*)
 77: 0x0219 [0xBA] SET_ENTITY_POSITION(entity_id=06 (ID: 17339152/0x01089310), pos_x=541.049*, pos_z=-267.264*, pos_y=-0.184*, direction=117.9°*)
 78: 0x0226 [0xBA] SET_ENTITY_POSITION(entity_id=07 (ID: 17339153/0x01089311), pos_x=534.620*, pos_z=-256.198*, pos_y=-1.002*, direction=225.2°*)
 79: 0x0233 [0xBA] SET_ENTITY_POSITION(entity_id=08 (ID: 17339154/0x01089312), pos_x=539.204*, pos_z=-270.862*, pos_y=-0.189*, direction=173.1°*)
 80: 0x0240 [0xBA] SET_ENTITY_POSITION(entity_id=09 (ID: 17339155/0x01089313), pos_x=517.461*, pos_z=-286.715*, pos_y=-0.136*, direction=241.5°*)
 81: 0x024D [0xBA] SET_ENTITY_POSITION(entity_id=10 (ID: 17339156/0x01089314), pos_x=529.816*, pos_z=-259.475*, pos_y=0.368*, direction=0.0°*)
 82: 0x025A [0x80] LOAD_WAIT(entity=LocalPlayer)
 83: 0x025F [0x80] LOAD_WAIT(entity=Excenmille (ID: 17339094/0x010892D6))
 84: 0x0264 [0x80] LOAD_WAIT(entity=Vinairy (ID: 17339181/0x0108932D))
 85: 0x0269 [0x80] LOAD_WAIT(entity=kisiB (ID: 17339182/0x0108932E))
 86: 0x026E [0x80] LOAD_WAIT(entity=kisiC (ID: 17339183/0x0108932F))
 87: 0x0273 [0x80] LOAD_WAIT(entity=kisiD (ID: 17339184/0x01089330))
 88: 0x0278 [0x80] LOAD_WAIT(entity=Unknown NPC (ID: 17339129/0x010892F9))
 89: 0x027D [0x80] LOAD_WAIT(entity=Unknown NPC (ID: 17339130/0x010892FA))
 90: 0x0282 [0x80] LOAD_WAIT(entity=??? (ID: 17339147/0x0108930B))
 91: 0x0287 [0x80] LOAD_WAIT(entity=03 (ID: 17339149/0x0108930D))
 92: 0x028C [0x80] LOAD_WAIT(entity=04 (ID: 17339150/0x0108930E))
 93: 0x0291 [0x80] LOAD_WAIT(entity=05 (ID: 17339151/0x0108930F))
 94: 0x0296 [0x80] LOAD_WAIT(entity=06 (ID: 17339152/0x01089310))
 95: 0x029B [0x80] LOAD_WAIT(entity=07 (ID: 17339153/0x01089311))
 96: 0x02A0 [0x80] LOAD_WAIT(entity=08 (ID: 17339154/0x01089312))
 97: 0x02A5 [0x80] LOAD_WAIT(entity=09 (ID: 17339155/0x01089313))
 98: 0x02AA [0x80] LOAD_WAIT(entity=10 (ID: 17339156/0x01089314))
 99: 0x02AF [0x1C] WAIT(1* ticks)
100: 0x02B2 [0xC5] LOAD_SCHEDULED_TASK_ALT3: Load scheduler 0x802F3030 for entities [??? (ID: 17339147/0x0108930B), ??? (ID: 17339147/0x0108930B)], work=206*, param=12403
101: 0x02C3 [0xC5] LOAD_SCHEDULED_TASK_ALT3: Load scheduler 0x802F3130 for entities [08 (ID: 17339154/0x01089312), 08 (ID: 17339154/0x01089312)], work=206*, param=12403
102: 0x02D4 [0xC5] LOAD_SCHEDULED_TASK_ALT3: Load scheduler 0x802F3030 for entities [03 (ID: 17339149/0x0108930D), 03 (ID: 17339149/0x0108930D)], work=207*, param=12403
103: 0x02E5 [0xC5] LOAD_SCHEDULED_TASK_ALT3: Load scheduler 0x802F3130 for entities [09 (ID: 17339155/0x01089313), 09 (ID: 17339155/0x01089313)], work=207*, param=12403
104: 0x02F6 [0xC5] LOAD_SCHEDULED_TASK_ALT3: Load scheduler 0x802F3030 for entities [05 (ID: 17339151/0x0108930F), 05 (ID: 17339151/0x0108930F)], work=206*, param=12403
105: 0x0307 [0xC5] LOAD_SCHEDULED_TASK_ALT3: Load scheduler 0x802F3130 for entities [10 (ID: 17339156/0x01089314), 10 (ID: 17339156/0x01089314)], work=206*, param=12403
106: 0x0318 [0xC5] LOAD_SCHEDULED_TASK_ALT3: Load scheduler 0x802F3030 for entities [06 (ID: 17339152/0x01089310), 06 (ID: 17339152/0x01089310)], work=208*, param=12403
107: 0x0329 [0xC5] LOAD_SCHEDULED_TASK_ALT3: Load scheduler 0x802F3130 for entities [07 (ID: 17339153/0x01089311), 07 (ID: 17339153/0x01089311)], work=208*, param=12403
108: 0x033A [0x5B] LOAD_EXT_SCHEDULER: Load scheduler "hir0" with entities [kisiB (ID: 17339182/0x0108932E), kisiB (ID: 17339182/0x0108932E)], work=2255*
109: 0x0349 [0x5B] LOAD_EXT_SCHEDULER: Load scheduler "tukl" with entities [kisiC (ID: 17339183/0x0108932F), kisiC (ID: 17339183/0x0108932F)], work=2301*
110: 0x0358 [0x5B] LOAD_EXT_SCHEDULER: Load scheduler "fsho" with entities [kisiD (ID: 17339184/0x01089330), kisiD (ID: 17339184/0x01089330)], work=2250*
111: 0x0367 [0x27] REQ_SET(priority=0x10, entity_id=LocalPlayer, tag_num=0x3F)
112: 0x036E [0x1C] WAIT(15* ticks)
113: 0x0371 [0x45] LOAD_SCHEDULED_TASK: Load scheduler "n001" with entities [LocalPlayer, LocalPlayer], work=[512*, 0*]
114: 0x0382 [0x1A] CALL_SUBROUTINE(address=0x101B)
115: 0x0385 [0x1C] WAIT(180* ticks)
116: 0x0388 [0x52] END_LOAD_SCHEDULER: End scheduler "n001" with entities [LocalPlayer, LocalPlayer], work=512*
117: 0x0397 [0x45] LOAD_SCHEDULED_TASK: Load scheduler "n002" with entities [LocalPlayer, LocalPlayer], work=[512*, 0*]
118: 0x03A8 [0x1C] WAIT(60* ticks)
119: 0x03AB [0x59] UPDATE_ENTITY_DATA: Set Excenmille (ID: 17339094/0x010892D6) turn speed = 60*
120: 0x03B3 [0x4A] Excenmille (ID: 17339094/0x010892D6) looks at LocalPlayer
121: 0x03BC [0x6F] WAIT_FRAME_DELAY: Yield until WaitTime reaches zero
122: 0x03BD [0x76] CHECK_ENTITY_RENDER_FLAGS: Wait until Excenmille (ID: 17339094/0x010892D6) Render.Flags0 and Render.Flags3 conditions are met
123: 0x03C2 [0x5B] LOAD_EXT_SCHEDULER: Load scheduler "tla0" with entities [Excenmille (ID: 17339094/0x010892D6), Excenmille (ID: 17339094/0x010892D6)], work=1272*
124: 0x03D1 [0x2B] Excenmille (ID: 17339094/0x010892D6) [7797*]:
    → "'Tis good to see you returned, <Player>."
125: 0x03D8 [0x23] WAIT_FOR_DIALOG_INTERACTION
126: 0x03D9 [0x5B] LOAD_EXT_SCHEDULER: Load scheduler "tla1" with entities [Excenmille (ID: 17339094/0x010892D6), Excenmille (ID: 17339094/0x010892D6)], work=1272*
127: 0x03E8 [0x1C] WAIT(40* ticks)
128: 0x03EB [0x2A] GET_REQ_LEVEL(level=16, entity_id=LocalPlayer)
129: 0x03F1 [0x52] END_LOAD_SCHEDULER: End scheduler "n002" with entities [LocalPlayer, LocalPlayer], work=512*
130: 0x0400 [0x45] LOAD_SCHEDULED_TASK: Load scheduler "n003" with entities [LocalPlayer, LocalPlayer], work=[512*, 0*]
131: 0x0411 [0x7B] Excenmille (ID: 17339094/0x010892D6) stops talking
132: 0x0416 [0x81] SET_ENTITY_BLINKING(blink_flag=0x00, entity=Excenmille (ID: 17339094/0x010892D6))
133: 0x041C [0x5B] LOAD_EXT_SCHEDULER: Load scheduler "tha0" with entities [Excenmille (ID: 17339094/0x010892D6), Excenmille (ID: 17339094/0x010892D6)], work=1273*
134: 0x042B [0x2B] Excenmille (ID: 17339094/0x010892D6) [7798*]:
    → "I fear the situation has taken an ill turn. Unable to master his desire for vengeance, Jayramus abruptly struck camp, taking all able men with him. They intend to strike back at the Orcs."
135: 0x0432 [0x23] WAIT_FOR_DIALOG_INTERACTION
136: 0x0433 [0x5B] LOAD_EXT_SCHEDULER: Load scheduler "tha1" with entities [Excenmille (ID: 17339094/0x010892D6), Excenmille (ID: 17339094/0x010892D6)], work=1273*
137: 0x0442 [0x29] REQ_SET_WAIT(priority=0x10, entity_id=LocalPlayer, tag_num=0x04)
138: 0x0449 [0x02] IF !(Work_Zone[2] == 3*) GOTO 0x0474
139: 0x0451 [0x52] END_LOAD_SCHEDULER: End scheduler "n003" with entities [LocalPlayer, LocalPlayer], work=512*
140: 0x0460 [0x45] LOAD_SCHEDULED_TASK: Load scheduler "ng04" with entities [LocalPlayer, LocalPlayer], work=[512*, 0*]
141: 0x0471 [0x01] GOTO 0x0540
142: 0x0474 [0x02] IF !(Work_Zone[2] == 4*) GOTO 0x049F
143: 0x047C [0x52] END_LOAD_SCHEDULER: End scheduler "n003" with entities [LocalPlayer, LocalPlayer], work=512*
144: 0x048B [0x45] LOAD_SCHEDULED_TASK: Load scheduler "ng04" with entities [LocalPlayer, LocalPlayer], work=[512*, 0*]
145: 0x049C [0x01] GOTO 0x0540
146: 0x049F [0x02] IF !(Work_Zone[2] == 5*) GOTO 0x04CA
147: 0x04A7 [0x52] END_LOAD_SCHEDULER: End scheduler "n003" with entities [LocalPlayer, LocalPlayer], work=512*
148: 0x04B6 [0x45] LOAD_SCHEDULED_TASK: Load scheduler "nt04" with entities [LocalPlayer, LocalPlayer], work=[512*, 0*]
149: 0x04C7 [0x01] GOTO 0x0540
150: 0x04CA [0x02] IF !(Work_Zone[2] == 6*) GOTO 0x04F5
151: 0x04D2 [0x52] END_LOAD_SCHEDULER: End scheduler "n003" with entities [LocalPlayer, LocalPlayer], work=512*
152: 0x04E1 [0x45] LOAD_SCHEDULED_TASK: Load scheduler "nt04" with entities [LocalPlayer, LocalPlayer], work=[512*, 0*]
153: 0x04F2 [0x01] GOTO 0x0540
154: 0x04F5 [0x02] IF !(Work_Zone[2] == 8*) GOTO 0x0520
155: 0x04FD [0x52] END_LOAD_SCHEDULER: End scheduler "n003" with entities [LocalPlayer, LocalPlayer], work=512*
156: 0x050C [0x45] LOAD_SCHEDULED_TASK: Load scheduler "ng04" with entities [LocalPlayer, LocalPlayer], work=[512*, 0*]
157: 0x051D [0x01] GOTO 0x0540
158: 0x0520 [0x52] END_LOAD_SCHEDULER: End scheduler "n003" with entities [LocalPlayer, LocalPlayer], work=512*
159: 0x052F [0x45] LOAD_SCHEDULED_TASK: Load scheduler "n004" with entities [LocalPlayer, LocalPlayer], work=[512*, 0*]

SUBROUTINE_0540:
160: 0x0540 [0x79] Excenmille (ID: 17339094/0x010892D6) looks at LocalPlayer (Basic look)
161: 0x054A [0x81] SET_ENTITY_BLINKING(blink_flag=0x01, entity=Excenmille (ID: 17339094/0x010892D6))
162: 0x0550 [0x4A] LocalPlayer looks at Excenmille (ID: 17339094/0x010892D6)
163: 0x0559 [0x5B] LOAD_EXT_SCHEDULER: Load scheduler "tla0" with entities [Excenmille (ID: 17339094/0x010892D6), Excenmille (ID: 17339094/0x010892D6)], work=1272*
164: 0x0568 [0x2B] Excenmille (ID: 17339094/0x010892D6) [7799*]:
    → "What of your end? I pray you've better news to offer me."
165: 0x056F [0x23] WAIT_FOR_DIALOG_INTERACTION
166: 0x0570 [0x6E] LocalPlayer uses emote 7*
167: 0x0577 [0x99] Wait for LocalPlayer animation to complete
168: 0x057C [0x1C] WAIT(60* ticks)
169: 0x057F [0x81] SET_ENTITY_BLINKING(blink_flag=0x00, entity=Excenmille (ID: 17339094/0x010892D6))
170: 0x0585 [0x7C] Excenmille (ID: 17339094/0x010892D6)->Render.Flags2 |= 0x00
171: 0x058B [0x5B] LOAD_EXT_SCHEDULER: Load scheduler "fd01" with entities [Excenmille (ID: 17339094/0x010892D6), Excenmille (ID: 17339094/0x010892D6)], work=1299*
172: 0x059A [0x5B] LOAD_EXT_SCHEDULER: Load scheduler "tla1" with entities [Excenmille (ID: 17339094/0x010892D6), Excenmille (ID: 17339094/0x010892D6)], work=1272*
173: 0x05A9 [0x2B] Excenmille (ID: 17339094/0x010892D6) [7800*]:
    → "...That is heartening indeed. You have my gratitude, <Player>."
174: 0x05B0 [0x23] WAIT_FOR_DIALOG_INTERACTION
175: 0x05B1 [0x52] END_LOAD_SCHEDULER: End scheduler "nt04" with entities [LocalPlayer, LocalPlayer], work=512*
176: 0x05C0 [0x52] END_LOAD_SCHEDULER: End scheduler "ng04" with entities [LocalPlayer, LocalPlayer], work=512*
177: 0x05CF [0x52] END_LOAD_SCHEDULER: End scheduler "n004" with entities [LocalPlayer, LocalPlayer], work=512*
178: 0x05DE [0x45] LOAD_SCHEDULED_TASK: Load scheduler "n005" with entities [LocalPlayer, LocalPlayer], work=[512*, 0*]
179: 0x05EF [0x7B] Excenmille (ID: 17339094/0x010892D6) stops talking
180: 0x05F4 [0x5B] LOAD_EXT_SCHEDULER: Load scheduler "ude0" with entities [Excenmille (ID: 17339094/0x010892D6), Excenmille (ID: 17339094/0x010892D6)], work=1406*
181: 0x0603 [0x2B] Excenmille (ID: 17339094/0x010892D6) [7801*]:
    → "And it would seem I owe Rahal and the others, too. I shall thank them at the earliest opportunity."
182: 0x060A [0x23] WAIT_FOR_DIALOG_INTERACTION
183: 0x060B [0x2B] Excenmille (ID: 17339094/0x010892D6) [7802*]:
    → "There is hope still. Let us pursue the Cardinal Stags and prevent them from engaging the enemy prematurely."
184: 0x0612 [0x23] WAIT_FOR_DIALOG_INTERACTION
185: 0x0613 [0x5B] LOAD_EXT_SCHEDULER: Load scheduler "ude1" with entities [Excenmille (ID: 17339094/0x010892D6), Excenmille (ID: 17339094/0x010892D6)], work=1406*
186: 0x0622 [0x81] SET_ENTITY_BLINKING(blink_flag=0x01, entity=Excenmille (ID: 17339094/0x010892D6))
187: 0x0628 [0x7C] Excenmille (ID: 17339094/0x010892D6)->Render.Flags2 |= 0x01
188: 0x062E [0x6E] LocalPlayer uses emote 36*
189: 0x0635 [0x99] Wait for LocalPlayer animation to complete
190: 0x063A [0x1C] WAIT(20* ticks)
191: 0x063D [0xBA] SET_ENTITY_POSITION(entity_id=Vinairy (ID: 17339181/0x0108932D), pos_x=524.299*, pos_z=-265.149*, pos_y=0.647*, direction=70.3°*)
192: 0x064A [0x1C] WAIT(10* ticks)
193: 0x064D [0x03] Work_Zone[2] = 90*
194: 0x0652 [0x27] REQ_SET(priority=0x10, entity_id=LocalPlayer, tag_num=0x41)
195: 0x0659 [0x53] WAIT_SCHEDULER_TASK: Wait for scheduler "tla1" with entities [Excenmille (ID: 17339094/0x010892D6), Excenmille (ID: 17339094/0x010892D6)]
196: 0x0666 [0x5B] LOAD_EXT_SCHEDULER: Load scheduler "f000" with entities [Excenmille (ID: 17339094/0x010892D6), Excenmille (ID: 17339094/0x010892D6)], work=1299*
197: 0x0675 [0x27] REQ_SET(priority=0x10, entity_id=Vinairy (ID: 17339181/0x0108932D), tag_num=0x09)
198: 0x067C [0x1C] WAIT(50* ticks)
199: 0x067F [0x2A] GET_REQ_LEVEL(level=16, entity_id=LocalPlayer)
200: 0x0685 [0x52] END_LOAD_SCHEDULER: End scheduler "n005" with entities [LocalPlayer, LocalPlayer], work=512*
201: 0x0694 [0x45] LOAD_SCHEDULED_TASK: Load scheduler "n205" with entities [LocalPlayer, LocalPlayer], work=[512*, 0*]
202: 0x06A5 [0xBA] SET_ENTITY_POSITION(entity_id=LocalPlayer, pos_x=529.924*, pos_z=-271.502*, pos_y=0.332*, direction=211.0°*)
203: 0x06B2 [0x2B] Vinairy (ID: 17339181/0x0108932D) [7803*]:
    → "Count Aurchiat, a moment. I would have you take this, if it please you."
204: 0x06B9 [0x1C] WAIT(60* ticks)
205: 0x06BC [0x4A] Excenmille (ID: 17339094/0x010892D6) looks at Vinairy (ID: 17339181/0x0108932D)
206: 0x06C5 [0x79] LocalPlayer looks at Vinairy (ID: 17339181/0x0108932D) (Basic look)
207: 0x06CF [0x2A] GET_REQ_LEVEL(level=16, entity_id=Vinairy (ID: 17339181/0x0108932D))
208: 0x06D5 [0x4A] Vinairy (ID: 17339181/0x0108932D) looks at Excenmille (ID: 17339094/0x010892D6)
209: 0x06DE [0x7B] Vinairy (ID: 17339181/0x0108932D) stops talking
210: 0x06E3 [0x66] LOAD_EXT_SCHEDULER_MAIN: Load scheduler "pas0" with entities [Vinairy (ID: 17339181/0x0108932D), Vinairy (ID: 17339181/0x0108932D)], work=91*
211: 0x06F2 [0x1C] WAIT(50* ticks)
212: 0x06F5 [0x52] END_LOAD_SCHEDULER: End scheduler "n205" with entities [LocalPlayer, LocalPlayer], work=512*
213: 0x0704 [0x45] LOAD_SCHEDULED_TASK: Load scheduler "n006" with entities [LocalPlayer, LocalPlayer], work=[512*, 0*]
214: 0x0715 [0x03] Work_Zone[2] = 1180*
215: 0x071A [0x2B] Vinairy (ID: 17339181/0x0108932D) [7804*]:
    → "6, my lord. It shall veil your presence from enemy eyes for a time."
216: 0x0721 [0x23] WAIT_FOR_DIALOG_INTERACTION
217: 0x0722 [0x5B] LOAD_EXT_SCHEDULER: Load scheduler "tla0" with entities [Excenmille (ID: 17339094/0x010892D6), Excenmille (ID: 17339094/0x010892D6)], work=1272*
218: 0x0731 [0x2B] Excenmille (ID: 17339094/0x010892D6) [7805*]:
    → "Thank you, Vinairy. This shall serve us well."
219: 0x0738 [0x23] WAIT_FOR_DIALOG_INTERACTION
220: 0x0739 [0x5B] LOAD_EXT_SCHEDULER: Load scheduler "tla1" with entities [Excenmille (ID: 17339094/0x010892D6), Excenmille (ID: 17339094/0x010892D6)], work=1272*
221: 0x0748 [0x53] WAIT_SCHEDULER_TASK: Wait for scheduler "pas0" with entities [Vinairy (ID: 17339181/0x0108932D), Vinairy (ID: 17339181/0x0108932D)]
222: 0x0755 [0x6E] Vinairy (ID: 17339181/0x0108932D) uses emote 7*
223: 0x075C [0x99] Wait for Vinairy (ID: 17339181/0x0108932D) animation to complete
224: 0x0761 [0x1C] WAIT(90* ticks)
225: 0x0764 [0x7B] Vinairy (ID: 17339181/0x0108932D) stops talking
226: 0x0769 [0x59] UPDATE_ENTITY_DATA: Set Vinairy (ID: 17339181/0x0108932D) turn speed = 50*
227: 0x0771 [0x4B] UPDATE_ENTITY_YAW(entity=Vinairy (ID: 17339181/0x0108932D), yaw=14.8°*)
228: 0x0778 [0x1C] WAIT(40* ticks)
229: 0x077B [0x52] END_LOAD_SCHEDULER: End scheduler "n006" with entities [LocalPlayer, LocalPlayer], work=512*
230: 0x078A [0x45] LOAD_SCHEDULED_TASK: Load scheduler "n306" with entities [LocalPlayer, LocalPlayer], work=[512*, 0*]
231: 0x079B [0x6F] WAIT_FRAME_DELAY: Yield until WaitTime reaches zero
232: 0x079C [0x76] CHECK_ENTITY_RENDER_FLAGS: Wait until Vinairy (ID: 17339181/0x0108932D) Render.Flags0 and Render.Flags3 conditions are met
233: 0x07A1 [0x6E] Vinairy (ID: 17339181/0x0108932D) uses emote 0*
234: 0x07A8 [0x99] Wait for Vinairy (ID: 17339181/0x0108932D) animation to complete
235: 0x07AD [0x2B] Vinairy (ID: 17339181/0x0108932D) [7806*]:
    → "According to Captain Jayramus, the Bloodwing Horde's main host presently occupies a cave situated north of our position."
236: 0x07B4 [0x1C] WAIT(140* ticks)
237: 0x07B7 [0x52] END_LOAD_SCHEDULER: End scheduler "n306" with entities [LocalPlayer, LocalPlayer], work=512*
238: 0x07C6 [0x45] LOAD_SCHEDULED_TASK: Load scheduler "n007" with entities [LocalPlayer, LocalPlayer], work=[512*, 0*]
239: 0x07D7 [0xBA] SET_ENTITY_POSITION(entity_id=LocalPlayer, pos_x=530.125*, pos_z=-271.616*, pos_y=0.332*, direction=214.4°*)
240: 0x07E4 [0xBA] SET_ENTITY_POSITION(entity_id=Vinairy (ID: 17339181/0x0108932D), pos_x=526.002*, pos_z=-272.109*, pos_y=0.192*, direction=241.5°*)
241: 0x07F1 [0xBA] SET_ENTITY_POSITION(entity_id=Excenmille (ID: 17339094/0x010892D6), pos_x=528.443*, pos_z=-274.287*, pos_y=0.220*, direction=210.9°*)
242: 0x07FE [0x1C] WAIT(1* ticks)
243: 0x0801 [0x4A] Excenmille (ID: 17339094/0x010892D6) looks at Vinairy (ID: 17339181/0x0108932D)
244: 0x080A [0x4A] LocalPlayer looks at Vinairy (ID: 17339181/0x0108932D)
245: 0x0813 [0x1C] WAIT(230* ticks)
246: 0x0816 [0x23] WAIT_FOR_DIALOG_INTERACTION
247: 0x0817 [0x4A] Vinairy (ID: 17339181/0x0108932D) looks at Excenmille (ID: 17339094/0x010892D6)
248: 0x0820 [0x52] END_LOAD_SCHEDULER: End scheduler "n007" with entities [LocalPlayer, LocalPlayer], work=512*
249: 0x082F [0x45] LOAD_SCHEDULED_TASK: Load scheduler "n008" with entities [LocalPlayer, LocalPlayer], work=[512*, 0*]
250: 0x0840 [0x6F] WAIT_FRAME_DELAY: Yield until WaitTime reaches zero
251: 0x0841 [0x76] CHECK_ENTITY_RENDER_FLAGS: Wait until Vinairy (ID: 17339181/0x0108932D) Render.Flags0 and Render.Flags3 conditions are met
252: 0x0846 [0x66] LOAD_EXT_SCHEDULER_MAIN: Load scheduler "twa0" with entities [Vinairy (ID: 17339181/0x0108932D), Vinairy (ID: 17339181/0x0108932D)], work=29*
253: 0x0855 [0x03] Work_Zone[2] = 1180*
254: 0x085A [0x2B] Vinairy (ID: 17339181/0x0108932D) [7807*]:
    → "Should you use up the $3, return hither and I shall furnish you with another."
255: 0x0861 [0x23] WAIT_FOR_DIALOG_INTERACTION
256: 0x0862 [0x2B] Vinairy (ID: 17339181/0x0108932D) [7808*]:
    → "Captain Jayramus left a small supply for the wounded prior to departure, you see."
257: 0x0869 [0x23] WAIT_FOR_DIALOG_INTERACTION
258: 0x086A [0x66] LOAD_EXT_SCHEDULER_MAIN: Load scheduler "twa1" with entities [Vinairy (ID: 17339181/0x0108932D), Vinairy (ID: 17339181/0x0108932D)], work=29*
259: 0x0879 [0x52] END_LOAD_SCHEDULER: End scheduler "n008" with entities [LocalPlayer, LocalPlayer], work=512*
260: 0x0888 [0x45] LOAD_SCHEDULED_TASK: Load scheduler "n009" with entities [LocalPlayer, LocalPlayer], work=[512*, 0*]
261: 0x0899 [0x5B] LOAD_EXT_SCHEDULER: Load scheduler "tla0" with entities [Excenmille (ID: 17339094/0x010892D6), Excenmille (ID: 17339094/0x010892D6)], work=1272*
262: 0x08A8 [0x2B] Excenmille (ID: 17339094/0x010892D6) [7809*]:
    → "Your help is appreciated, Vinairy. I leave you the care of the wounded."
263: 0x08AF [0x23] WAIT_FOR_DIALOG_INTERACTION
264: 0x08B0 [0x5B] LOAD_EXT_SCHEDULER: Load scheduler "tla1" with entities [Excenmille (ID: 17339094/0x010892D6), Excenmille (ID: 17339094/0x010892D6)], work=1272*
265: 0x08BF [0x52] END_LOAD_SCHEDULER: End scheduler "ng09" with entities [LocalPlayer, LocalPlayer], work=512*
266: 0x08CE [0x52] END_LOAD_SCHEDULER: End scheduler "n009" with entities [LocalPlayer, LocalPlayer], work=512*
267: 0x08DD [0x45] LOAD_SCHEDULED_TASK: Load scheduler "n109" with entities [LocalPlayer, LocalPlayer], work=[512*, 0*]
268: 0x08EE [0x53] WAIT_SCHEDULER_TASK: Wait for scheduler "twa1" with entities [Vinairy (ID: 17339181/0x0108932D), Vinairy (ID: 17339181/0x0108932D)]
269: 0x08FB [0x6E] Vinairy (ID: 17339181/0x0108932D) uses emote 2*
270: 0x0902 [0x99] Wait for Vinairy (ID: 17339181/0x0108932D) animation to complete
271: 0x0907 [0x2B] Vinairy (ID: 17339181/0x0108932D) [7810*]:
    → "'Twould be an honor, my lord."
272: 0x090E [0x1C] WAIT(90* ticks)
273: 0x0911 [0x23] WAIT_FOR_DIALOG_INTERACTION
274: 0x0912 [0x52] END_LOAD_SCHEDULER: End scheduler "n109" with entities [LocalPlayer, LocalPlayer], work=512*
275: 0x0921 [0x45] LOAD_SCHEDULED_TASK: Load scheduler "n010" with entities [LocalPlayer, LocalPlayer], work=[512*, 0*]
276: 0x0932 [0x5B] LOAD_EXT_SCHEDULER: Load scheduler "yes0" with entities [Excenmille (ID: 17339094/0x010892D6), Excenmille (ID: 17339094/0x010892D6)], work=2349*
277: 0x0941 [0x1C] WAIT(140* ticks)
278: 0x0944 [0x29] REQ_SET_WAIT(priority=0x10, entity_id=LocalPlayer, tag_num=0x04)
279: 0x094B [0x02] IF !(Work_Zone[2] == 5*) GOTO 0x0976
280: 0x0953 [0x52] END_LOAD_SCHEDULER: End scheduler "n010" with entities [LocalPlayer, LocalPlayer], work=512*
281: 0x0962 [0x45] LOAD_SCHEDULED_TASK: Load scheduler "nt12" with entities [LocalPlayer, LocalPlayer], work=[512*, 0*]
282: 0x0973 [0x01] GOTO 0x09C1
283: 0x0976 [0x02] IF !(Work_Zone[2] == 6*) GOTO 0x09A1
284: 0x097E [0x52] END_LOAD_SCHEDULER: End scheduler "n010" with entities [LocalPlayer, LocalPlayer], work=512*
285: 0x098D [0x45] LOAD_SCHEDULED_TASK: Load scheduler "nt12" with entities [LocalPlayer, LocalPlayer], work=[512*, 0*]
286: 0x099E [0x01] GOTO 0x09C1
287: 0x09A1 [0x52] END_LOAD_SCHEDULER: End scheduler "n010" with entities [LocalPlayer, LocalPlayer], work=512*
288: 0x09B0 [0x45] LOAD_SCHEDULED_TASK: Load scheduler "n012" with entities [LocalPlayer, LocalPlayer], work=[512*, 0*]

SUBROUTINE_09C1:
289: 0x09C1 [0x1C] WAIT(40* ticks)
290: 0x09C4 [0x4A] Excenmille (ID: 17339094/0x010892D6) looks at LocalPlayer
291: 0x09CD [0x7B] Excenmille (ID: 17339094/0x010892D6) stops talking
292: 0x09D2 [0x1C] WAIT(40* ticks)
293: 0x09D5 [0x2B] Excenmille (ID: 17339094/0x010892D6) [7811*]:
    → "Let's be off, <Player>!"
294: 0x09DC [0x4A] LocalPlayer looks at Excenmille (ID: 17339094/0x010892D6)
295: 0x09E5 [0x1C] WAIT(40* ticks)
296: 0x09E8 [0x02] IF !(Work_Zone[2] == 5*) GOTO 0x0A25
297: 0x09F0 [0x5B] LOAD_EXT_SCHEDULER: Load scheduler "tlc0" with entities [Excenmille (ID: 17339094/0x010892D6), Excenmille (ID: 17339094/0x010892D6)], work=2659*
298: 0x09FF [0x1C] WAIT(20* ticks)
299: 0x0A02 [0x52] END_LOAD_SCHEDULER: End scheduler "nt12" with entities [LocalPlayer, LocalPlayer], work=512*
300: 0x0A11 [0x45] LOAD_SCHEDULED_TASK: Load scheduler "nt11" with entities [LocalPlayer, LocalPlayer], work=[512*, 0*]
301: 0x0A22 [0x01] GOTO 0x0A94
302: 0x0A25 [0x02] IF !(Work_Zone[2] == 6*) GOTO 0x0A62
303: 0x0A2D [0x5B] LOAD_EXT_SCHEDULER: Load scheduler "tlc0" with entities [Excenmille (ID: 17339094/0x010892D6), Excenmille (ID: 17339094/0x010892D6)], work=2659*
304: 0x0A3C [0x1C] WAIT(20* ticks)
305: 0x0A3F [0x52] END_LOAD_SCHEDULER: End scheduler "nt12" with entities [LocalPlayer, LocalPlayer], work=512*
306: 0x0A4E [0x45] LOAD_SCHEDULED_TASK: Load scheduler "nt11" with entities [LocalPlayer, LocalPlayer], work=[512*, 0*]
307: 0x0A5F [0x01] GOTO 0x0A94
308: 0x0A62 [0x5B] LOAD_EXT_SCHEDULER: Load scheduler "tls0" with entities [Excenmille (ID: 17339094/0x010892D6), Excenmille (ID: 17339094/0x010892D6)], work=1272*
309: 0x0A71 [0x1C] WAIT(20* ticks)
310: 0x0A74 [0x52] END_LOAD_SCHEDULER: End scheduler "n012" with entities [LocalPlayer, LocalPlayer], work=512*
311: 0x0A83 [0x45] LOAD_SCHEDULED_TASK: Load scheduler "n011" with entities [LocalPlayer, LocalPlayer], work=[512*, 0*]

SUBROUTINE_0A94:
312: 0x0A94 [0x53] WAIT_SCHEDULER_TASK: Wait for scheduler "tls0" with entities [Excenmille (ID: 17339094/0x010892D6), Excenmille (ID: 17339094/0x010892D6)]
313: 0x0AA1 [0x23] WAIT_FOR_DIALOG_INTERACTION
314: 0x0AA2 [0x1A] CALL_SUBROUTINE(address=0x103C)
315: 0x0AA5 [0x1C] WAIT(30* ticks)
316: 0x0AA8 [0x52] END_LOAD_SCHEDULER: End scheduler "nt11" with entities [LocalPlayer, LocalPlayer], work=512*
317: 0x0AB7 [0x52] END_LOAD_SCHEDULER: End scheduler "n011" with entities [LocalPlayer, LocalPlayer], work=512*
318: 0x0AC6 [0x45] LOAD_SCHEDULED_TASK: Load scheduler "0blr" with entities [LocalPlayer, LocalPlayer], work=[512*, 0*]
319: 0x0AD7 [0x46] CAMERA_CONTROL: Restore default settings
320: 0x0AD9 [0x45] LOAD_SCHEDULED_TASK: Load scheduler "fdi2" with entities [LocalPlayer, LocalPlayer], work=[200*, 0*]
321: 0x0AEA [0x21] END_EVENT
322: 0x0AEB [0x00] END_REQSTACK()
```

### Event 15

#### Metadata

| Field        | Value     |
|--------------|-----------|
| Entrypoint   | 0x0AEC    |
| Data Size    | 312 bytes |
| Instructions | 43        |

```
      00 01 02 03 04 05 06 07  08 09 0A 0B 0C 0D 0E 0F
      -- -- -- -- -- -- -- --  -- -- -- -- -- -- -- --
0AE0:                                      42 20 01 1A              B ..
0AF0: 3C 10 46 01 38 00 80 03  02 10 62 80 27 10 2D 93  <.F.8.....b.'.-.
0B00: 08 01 04 92 01 2D 93 08  01 94 01 2D 93 08 01 94  .....-.....-....
0B10: 01 F0 FF FF 7F BA 2D 93  08 01 7D 80 7E 80 7F 80  ......-...}.~...
0B20: 80 80 80 F0 FF FF 7F 80  2D 93 08 01 79 00 F0 FF  ........-...y...
0B30: FF 7F F0 FF FF 7F 1C 59  80 BA F0 FF FF 7F 81 80  .......Y........
0B40: 82 80 83 80 84 80 79 00  F0 FF FF 7F 2D 93 08 01  ......y.....-...
0B50: 1C 41 80 45 85 80 F0 FF  FF 7F F0 FF FF 7F 71 31  .A.E..........q1
0B60: 30 31 2F 80 1A 1B 10 1C  86 80 52 85 80 F0 FF FF  01/.......R.....
0B70: 7F F0 FF FF 7F 71 31 30  31 45 85 80 F0 FF FF 7F  .....q101E......
0B80: F0 FF FF 7F 71 31 30 32  2F 80 66 72 80 2D 93 08  ....q102/.fr.-..
0B90: 01 2D 93 08 01 74 6C 6B  30 2B 2D 93 08 01 87 80  .-...tlk0+-.....
0BA0: 23 2B 2D 93 08 01 88 80  23 66 72 80 2D 93 08 01  #+-.....#fr.-...
0BB0: 2D 93 08 01 74 6C 6B 31  52 85 80 F0 FF FF 7F F0  -...tlk1R.......
0BC0: FF FF 7F 71 31 30 32 45  85 80 F0 FF FF 7F F0 FF  ...q102E........
0BD0: FF 7F 71 31 30 33 2F 80  6E F0 FF FF 7F 89 80 99  ..q103/.n.......
0BE0: F0 FF FF 7F 1C 86 80 1A  3C 10 52 85 80 F0 FF FF  ........<.R.....
0BF0: 7F F0 FF FF 7F 71 31 30  33 45 7C 80 F0 FF FF 7F  .....q103E|.....
0C00: F0 FF FF 7F 62 6C 6F 66  2F 80 1C 7B 80 20 00 46  ....blof/..{. .F
0C10: 00 45 7C 80 F0 FF FF 7F  F0 FF FF 7F 66 64 69 32  .E|.........fdi2
0C20: 2F 80 21 00                                       /.!.            
```

#### Opcodes

```
  0: 0x0AEC [0x42] SET_CLI_EVENT_CANCEL_DATA()
  1: 0x0AED [0x20] SET_CLI_EVENT_UC_FLAG: Lock player control
  2: 0x0AEF [0x1A] CALL_SUBROUTINE(address=0x103C)
  3: 0x0AF2 [0x46] CAMERA_CONTROL: Disable user control
  4: 0x0AF4 [0x38] SET_CLIENT_EVENT_MODE(mode=19*)
  5: 0x0AF7 [0x03] Work_Zone[2] = 1180*
  6: 0x0AFC [0x27] REQ_SET(priority=0x10, entity_id=Vinairy (ID: 17339181/0x0108932D), tag_num=0x04)
  7: 0x0B03 [0x92] Vinairy (ID: 17339181/0x0108932D)->Render.Flags3 ^= 0x01
  8: 0x0B09 [0x94] Vinairy (ID: 17339181/0x0108932D)->Render.Flags3 ^= 0x01
  9: 0x0B0F [0x94] LocalPlayer->Render.Flags3 ^= 0x01
 10: 0x0B15 [0xBA] SET_ENTITY_POSITION(entity_id=Vinairy (ID: 17339181/0x0108932D), pos_x=547.795*, pos_z=-268.494*, pos_y=-0.878*, direction=106.7°*)
 11: 0x0B22 [0x80] LOAD_WAIT(entity=LocalPlayer)
 12: 0x0B27 [0x80] LOAD_WAIT(entity=Vinairy (ID: 17339181/0x0108932D))
 13: 0x0B2C [0x79] LocalPlayer looks at LocalPlayer (Basic look)
 14: 0x0B36 [0x1C] WAIT(10* ticks)
 15: 0x0B39 [0xBA] SET_ENTITY_POSITION(entity_id=LocalPlayer, pos_x=547.103*, pos_z=-271.693*, pos_y=-0.169*, direction=282.2°*)
 16: 0x0B46 [0x79] LocalPlayer looks at Vinairy (ID: 17339181/0x0108932D) (Basic look)
 17: 0x0B50 [0x1C] WAIT(60* ticks)
 18: 0x0B53 [0x45] LOAD_SCHEDULED_TASK: Load scheduler "q101" with entities [LocalPlayer, LocalPlayer], work=[491*, 0*]
 19: 0x0B64 [0x1A] CALL_SUBROUTINE(address=0x101B)
 20: 0x0B67 [0x1C] WAIT(120* ticks)
 21: 0x0B6A [0x52] END_LOAD_SCHEDULER: End scheduler "q101" with entities [LocalPlayer, LocalPlayer], work=491*
 22: 0x0B79 [0x45] LOAD_SCHEDULED_TASK: Load scheduler "q102" with entities [LocalPlayer, LocalPlayer], work=[491*, 0*]
 23: 0x0B8A [0x66] LOAD_EXT_SCHEDULER_MAIN: Load scheduler "tlk0" with entities [Vinairy (ID: 17339181/0x0108932D), Vinairy (ID: 17339181/0x0108932D)], work=29*
 24: 0x0B99 [0x2B] Vinairy (ID: 17339181/0x0108932D) [7816*]:
    → "You require another $3?"
 25: 0x0BA0 [0x23] WAIT_FOR_DIALOG_INTERACTION
 26: 0x0BA1 [0x2B] Vinairy (ID: 17339181/0x0108932D) [7817*]:
    → "The knight currently on patrol duty should be carrying spares, if you could but wait for his return at the change of shift."
 27: 0x0BA8 [0x23] WAIT_FOR_DIALOG_INTERACTION
 28: 0x0BA9 [0x66] LOAD_EXT_SCHEDULER_MAIN: Load scheduler "tlk1" with entities [Vinairy (ID: 17339181/0x0108932D), Vinairy (ID: 17339181/0x0108932D)], work=29*
 29: 0x0BB8 [0x52] END_LOAD_SCHEDULER: End scheduler "q102" with entities [LocalPlayer, LocalPlayer], work=491*
 30: 0x0BC7 [0x45] LOAD_SCHEDULED_TASK: Load scheduler "q103" with entities [LocalPlayer, LocalPlayer], work=[491*, 0*]
 31: 0x0BD8 [0x6E] LocalPlayer uses emote 35*
 32: 0x0BDF [0x99] Wait for LocalPlayer animation to complete
 33: 0x0BE4 [0x1C] WAIT(120* ticks)
 34: 0x0BE7 [0x1A] CALL_SUBROUTINE(address=0x103C)
 35: 0x0BEA [0x52] END_LOAD_SCHEDULER: End scheduler "q103" with entities [LocalPlayer, LocalPlayer], work=491*
 36: 0x0BF9 [0x45] LOAD_SCHEDULED_TASK: Load scheduler "blof" with entities [LocalPlayer, LocalPlayer], work=[200*, 0*]
 37: 0x0C0A [0x1C] WAIT(30* ticks)
 38: 0x0C0D [0x20] SET_CLI_EVENT_UC_FLAG: Unlock player control
 39: 0x0C0F [0x46] CAMERA_CONTROL: Restore default settings
 40: 0x0C11 [0x45] LOAD_SCHEDULED_TASK: Load scheduler "fdi2" with entities [LocalPlayer, LocalPlayer], work=[200*, 0*]
 41: 0x0C22 [0x21] END_EVENT
 42: 0x0C23 [0x00] END_REQSTACK()
```

### Event 14

#### Metadata

| Field        | Value     |
|--------------|-----------|
| Entrypoint   | 0x0C24    |
| Data Size    | 317 bytes |
| Instructions | 44        |

```
      00 01 02 03 04 05 06 07  08 09 0A 0B 0C 0D 0E 0F
      -- -- -- -- -- -- -- --  -- -- -- -- -- -- -- --
0C20:             42 20 01 1A  3C 10 46 01 38 00 80 03      B ..<.F.8...
0C30: 02 10 62 80 27 10 2D 93  08 01 04 92 01 2D 93 08  ..b.'.-......-..
0C40: 01 94 01 2D 93 08 01 94  01 F0 FF FF 7F BA 2D 93  ...-..........-.
0C50: 08 01 7D 80 7E 80 7F 80  80 80 80 F0 FF FF 7F 80  ..}.~...........
0C60: 2D 93 08 01 79 00 F0 FF  FF 7F F0 FF FF 7F 1C 59  -...y..........Y
0C70: 80 BA F0 FF FF 7F 81 80  82 80 83 80 84 80 79 00  ..............y.
0C80: F0 FF FF 7F 2D 93 08 01  1C 41 80 45 85 80 F0 FF  ....-....A.E....
0C90: FF 7F F0 FF FF 7F 71 32  30 31 2F 80 1A 1B 10 1C  ......q201/.....
0CA0: 86 80 52 85 80 F0 FF FF  7F F0 FF FF 7F 71 32 30  ..R..........q20
0CB0: 31 45 85 80 F0 FF FF 7F  F0 FF FF 7F 71 32 30 32  1E..........q202
0CC0: 2F 80 66 72 80 2D 93 08  01 2D 93 08 01 74 6C 6B  /.fr.-...-...tlk
0CD0: 30 2B 2D 93 08 01 8A 80  23 2B 2D 93 08 01 66 80  0+-.....#+-...f.
0CE0: 23 66 72 80 2D 93 08 01  2D 93 08 01 74 6C 6B 31  #fr.-...-...tlk1
0CF0: 52 85 80 F0 FF FF 7F F0  FF FF 7F 71 32 30 32 45  R..........q202E
0D00: 85 80 F0 FF FF 7F F0 FF  FF 7F 71 32 30 33 2F 80  ..........q203/.
0D10: 2B 2D 93 08 01 8B 80 23  6E F0 FF FF 7F 37 80 99  +-.....#n....7..
0D20: F0 FF FF 7F 1A 3C 10 52  85 80 F0 FF FF 7F F0 FF  .....<.R........
0D30: FF 7F 71 32 30 33 45 7C  80 F0 FF FF 7F F0 FF FF  ..q203E|........
0D40: 7F 62 6C 6F 66 2F 80 1C  7B 80 20 00 46 00 45 7C  .blof/..{. .F.E|
0D50: 80 F0 FF FF 7F F0 FF FF  7F 66 64 69 32 2F 80 21  .........fdi2/.!
0D60: 00                                                .               
```

#### Opcodes

```
  0: 0x0C24 [0x42] SET_CLI_EVENT_CANCEL_DATA()
  1: 0x0C25 [0x20] SET_CLI_EVENT_UC_FLAG: Lock player control
  2: 0x0C27 [0x1A] CALL_SUBROUTINE(address=0x103C)
  3: 0x0C2A [0x46] CAMERA_CONTROL: Disable user control
  4: 0x0C2C [0x38] SET_CLIENT_EVENT_MODE(mode=19*)
  5: 0x0C2F [0x03] Work_Zone[2] = 1180*
  6: 0x0C34 [0x27] REQ_SET(priority=0x10, entity_id=Vinairy (ID: 17339181/0x0108932D), tag_num=0x04)
  7: 0x0C3B [0x92] Vinairy (ID: 17339181/0x0108932D)->Render.Flags3 ^= 0x01
  8: 0x0C41 [0x94] Vinairy (ID: 17339181/0x0108932D)->Render.Flags3 ^= 0x01
  9: 0x0C47 [0x94] LocalPlayer->Render.Flags3 ^= 0x01
 10: 0x0C4D [0xBA] SET_ENTITY_POSITION(entity_id=Vinairy (ID: 17339181/0x0108932D), pos_x=547.795*, pos_z=-268.494*, pos_y=-0.878*, direction=106.7°*)
 11: 0x0C5A [0x80] LOAD_WAIT(entity=LocalPlayer)
 12: 0x0C5F [0x80] LOAD_WAIT(entity=Vinairy (ID: 17339181/0x0108932D))
 13: 0x0C64 [0x79] LocalPlayer looks at LocalPlayer (Basic look)
 14: 0x0C6E [0x1C] WAIT(10* ticks)
 15: 0x0C71 [0xBA] SET_ENTITY_POSITION(entity_id=LocalPlayer, pos_x=547.103*, pos_z=-271.693*, pos_y=-0.169*, direction=282.2°*)
 16: 0x0C7E [0x79] LocalPlayer looks at Vinairy (ID: 17339181/0x0108932D) (Basic look)
 17: 0x0C88 [0x1C] WAIT(60* ticks)
 18: 0x0C8B [0x45] LOAD_SCHEDULED_TASK: Load scheduler "q201" with entities [LocalPlayer, LocalPlayer], work=[491*, 0*]
 19: 0x0C9C [0x1A] CALL_SUBROUTINE(address=0x101B)
 20: 0x0C9F [0x1C] WAIT(120* ticks)
 21: 0x0CA2 [0x52] END_LOAD_SCHEDULER: End scheduler "q201" with entities [LocalPlayer, LocalPlayer], work=491*
 22: 0x0CB1 [0x45] LOAD_SCHEDULED_TASK: Load scheduler "q202" with entities [LocalPlayer, LocalPlayer], work=[491*, 0*]
 23: 0x0CC2 [0x66] LOAD_EXT_SCHEDULER_MAIN: Load scheduler "tlk0" with entities [Vinairy (ID: 17339181/0x0108932D), Vinairy (ID: 17339181/0x0108932D)], work=29*
 24: 0x0CD1 [0x2B] Vinairy (ID: 17339181/0x0108932D) [7818*]:
    → "I've acquired a replacement $3 as requested. May it serve you well."
 25: 0x0CD8 [0x23] WAIT_FOR_DIALOG_INTERACTION
 26: 0x0CD9 [0x2B] Vinairy (ID: 17339181/0x0108932D) [7806*]:
    → "According to Captain Jayramus, the Bloodwing Horde's main host presently occupies a cave situated north of our position."
 27: 0x0CE0 [0x23] WAIT_FOR_DIALOG_INTERACTION
 28: 0x0CE1 [0x66] LOAD_EXT_SCHEDULER_MAIN: Load scheduler "tlk1" with entities [Vinairy (ID: 17339181/0x0108932D), Vinairy (ID: 17339181/0x0108932D)], work=29*
 29: 0x0CF0 [0x52] END_LOAD_SCHEDULER: End scheduler "q202" with entities [LocalPlayer, LocalPlayer], work=491*
 30: 0x0CFF [0x45] LOAD_SCHEDULED_TASK: Load scheduler "q203" with entities [LocalPlayer, LocalPlayer], work=[491*, 0*]
 31: 0x0D10 [0x2B] Vinairy (ID: 17339181/0x0108932D) [7820*]:
    → "Please take all care."
 32: 0x0D17 [0x23] WAIT_FOR_DIALOG_INTERACTION
 33: 0x0D18 [0x6E] LocalPlayer uses emote 1*
 34: 0x0D1F [0x99] Wait for LocalPlayer animation to complete
 35: 0x0D24 [0x1A] CALL_SUBROUTINE(address=0x103C)
 36: 0x0D27 [0x52] END_LOAD_SCHEDULER: End scheduler "q203" with entities [LocalPlayer, LocalPlayer], work=491*
 37: 0x0D36 [0x45] LOAD_SCHEDULED_TASK: Load scheduler "blof" with entities [LocalPlayer, LocalPlayer], work=[200*, 0*]
 38: 0x0D47 [0x1C] WAIT(30* ticks)
 39: 0x0D4A [0x20] SET_CLI_EVENT_UC_FLAG: Unlock player control
 40: 0x0D4C [0x46] CAMERA_CONTROL: Restore default settings
 41: 0x0D4E [0x45] LOAD_SCHEDULED_TASK: Load scheduler "fdi2" with entities [LocalPlayer, LocalPlayer], work=[200*, 0*]
 42: 0x0D5F [0x21] END_EVENT
 43: 0x0D60 [0x00] END_REQSTACK()
```

### Event 16

#### Metadata

| Field        | Value     |
|--------------|-----------|
| Entrypoint   | 0x0D61    |
| Data Size    | 304 bytes |
| Instructions | 41        |

```
      00 01 02 03 04 05 06 07  08 09 0A 0B 0C 0D 0E 0F
      -- -- -- -- -- -- -- --  -- -- -- -- -- -- -- --
0D60:    42 20 01 1A 3C 10 46  01 38 00 80 03 02 10 62   B ..<.F.8.....b
0D70: 80 27 10 2D 93 08 01 04  92 01 2D 93 08 01 94 01  .'.-......-.....
0D80: F0 FF FF 7F 94 01 2D 93  08 01 BA 2D 93 08 01 7D  ......-....-...}
0D90: 80 7E 80 7F 80 80 80 80  F0 FF FF 7F 80 2D 93 08  .~...........-..
0DA0: 01 79 00 F0 FF FF 7F F0  FF FF 7F 1C 59 80 BA F0  .y..........Y...
0DB0: FF FF 7F 81 80 82 80 83  80 84 80 79 00 F0 FF FF  ...........y....
0DC0: 7F 2D 93 08 01 1C 41 80  45 85 80 F0 FF FF 7F F0  .-....A.E.......
0DD0: FF FF 7F 71 33 30 31 2F  80 1A 1B 10 1C 86 80 52  ...q301/.......R
0DE0: 85 80 F0 FF FF 7F F0 FF  FF 7F 71 33 30 31 45 85  ..........q301E.
0DF0: 80 F0 FF FF 7F F0 FF FF  7F 71 33 30 32 2F 80 66  .........q302/.f
0E00: 72 80 2D 93 08 01 2D 93  08 01 74 6C 6B 30 2B 2D  r.-...-...tlk0+-
0E10: 93 08 01 8C 80 23 66 72  80 2D 93 08 01 2D 93 08  .....#fr.-...-..
0E20: 01 74 6C 6B 31 52 85 80  F0 FF FF 7F F0 FF FF 7F  .tlk1R..........
0E30: 71 33 30 32 45 85 80 F0  FF FF 7F F0 FF FF 7F 71  q302E..........q
0E40: 33 30 33 2F 80 6E F0 FF  FF 7F 4D 80 99 F0 FF FF  303/.n....M.....
0E50: 7F 1C 86 80 1A 3C 10 52  85 80 F0 FF FF 7F F0 FF  .....<.R........
0E60: FF 7F 71 33 30 33 45 7C  80 F0 FF FF 7F F0 FF FF  ..q303E|........
0E70: 7F 62 6C 6F 66 2F 80 1C  7B 80 20 00 46 00 45 7C  .blof/..{. .F.E|
0E80: 80 F0 FF FF 7F F0 FF FF  7F 66 64 69 32 2F 80 21  .........fdi2/.!
0E90: 00                                                .               
```

#### Opcodes

```
  0: 0x0D61 [0x42] SET_CLI_EVENT_CANCEL_DATA()
  1: 0x0D62 [0x20] SET_CLI_EVENT_UC_FLAG: Lock player control
  2: 0x0D64 [0x1A] CALL_SUBROUTINE(address=0x103C)
  3: 0x0D67 [0x46] CAMERA_CONTROL: Disable user control
  4: 0x0D69 [0x38] SET_CLIENT_EVENT_MODE(mode=19*)
  5: 0x0D6C [0x03] Work_Zone[2] = 1180*
  6: 0x0D71 [0x27] REQ_SET(priority=0x10, entity_id=Vinairy (ID: 17339181/0x0108932D), tag_num=0x04)
  7: 0x0D78 [0x92] Vinairy (ID: 17339181/0x0108932D)->Render.Flags3 ^= 0x01
  8: 0x0D7E [0x94] LocalPlayer->Render.Flags3 ^= 0x01
  9: 0x0D84 [0x94] Vinairy (ID: 17339181/0x0108932D)->Render.Flags3 ^= 0x01
 10: 0x0D8A [0xBA] SET_ENTITY_POSITION(entity_id=Vinairy (ID: 17339181/0x0108932D), pos_x=547.795*, pos_z=-268.494*, pos_y=-0.878*, direction=106.7°*)
 11: 0x0D97 [0x80] LOAD_WAIT(entity=LocalPlayer)
 12: 0x0D9C [0x80] LOAD_WAIT(entity=Vinairy (ID: 17339181/0x0108932D))
 13: 0x0DA1 [0x79] LocalPlayer looks at LocalPlayer (Basic look)
 14: 0x0DAB [0x1C] WAIT(10* ticks)
 15: 0x0DAE [0xBA] SET_ENTITY_POSITION(entity_id=LocalPlayer, pos_x=547.103*, pos_z=-271.693*, pos_y=-0.169*, direction=282.2°*)
 16: 0x0DBB [0x79] LocalPlayer looks at Vinairy (ID: 17339181/0x0108932D) (Basic look)
 17: 0x0DC5 [0x1C] WAIT(60* ticks)
 18: 0x0DC8 [0x45] LOAD_SCHEDULED_TASK: Load scheduler "q301" with entities [LocalPlayer, LocalPlayer], work=[491*, 0*]
 19: 0x0DD9 [0x1A] CALL_SUBROUTINE(address=0x101B)
 20: 0x0DDC [0x1C] WAIT(120* ticks)
 21: 0x0DDF [0x52] END_LOAD_SCHEDULER: End scheduler "q301" with entities [LocalPlayer, LocalPlayer], work=491*
 22: 0x0DEE [0x45] LOAD_SCHEDULED_TASK: Load scheduler "q302" with entities [LocalPlayer, LocalPlayer], work=[491*, 0*]
 23: 0x0DFF [0x66] LOAD_EXT_SCHEDULER_MAIN: Load scheduler "tlk0" with entities [Vinairy (ID: 17339181/0x0108932D), Vinairy (ID: 17339181/0x0108932D)], work=29*
 24: 0x0E0E [0x2B] Vinairy (ID: 17339181/0x0108932D) [7821*]:
    → "I shall have what you seek at the end of the current patrol shift. Please return again at that time."
 25: 0x0E15 [0x23] WAIT_FOR_DIALOG_INTERACTION
 26: 0x0E16 [0x66] LOAD_EXT_SCHEDULER_MAIN: Load scheduler "tlk1" with entities [Vinairy (ID: 17339181/0x0108932D), Vinairy (ID: 17339181/0x0108932D)], work=29*
 27: 0x0E25 [0x52] END_LOAD_SCHEDULER: End scheduler "q302" with entities [LocalPlayer, LocalPlayer], work=491*
 28: 0x0E34 [0x45] LOAD_SCHEDULED_TASK: Load scheduler "q303" with entities [LocalPlayer, LocalPlayer], work=[491*, 0*]
 29: 0x0E45 [0x6E] LocalPlayer uses emote 7*
 30: 0x0E4C [0x99] Wait for LocalPlayer animation to complete
 31: 0x0E51 [0x1C] WAIT(120* ticks)
 32: 0x0E54 [0x1A] CALL_SUBROUTINE(address=0x103C)
 33: 0x0E57 [0x52] END_LOAD_SCHEDULER: End scheduler "q303" with entities [LocalPlayer, LocalPlayer], work=491*
 34: 0x0E66 [0x45] LOAD_SCHEDULED_TASK: Load scheduler "blof" with entities [LocalPlayer, LocalPlayer], work=[200*, 0*]
 35: 0x0E77 [0x1C] WAIT(30* ticks)
 36: 0x0E7A [0x20] SET_CLI_EVENT_UC_FLAG: Unlock player control
 37: 0x0E7C [0x46] CAMERA_CONTROL: Restore default settings
 38: 0x0E7E [0x45] LOAD_SCHEDULED_TASK: Load scheduler "fdi2" with entities [LocalPlayer, LocalPlayer], work=[200*, 0*]
 39: 0x0E8F [0x21] END_EVENT
 40: 0x0E90 [0x00] END_REQSTACK()
```

### Event 13

#### Metadata

| Field        | Value     |
|--------------|-----------|
| Entrypoint   | 0x0E91    |
| Data Size    | 985 bytes |
| Instructions | 53        |

```
      00 01 02 03 04 05 06 07  08 09 0A 0B 0C 0D 0E 0F
      -- -- -- -- -- -- -- --  -- -- -- -- -- -- -- --
0E90:    42 20 01 1A 3C 10 46  01 38 00 80 03 02 10 62   B ..<.F.8.....b
0EA0: 80 27 10 2D 93 08 01 04  92 01 2D 93 08 01 94 01  .'.-......-.....
0EB0: F0 FF FF 7F 94 01 2D 93  08 01 BA 2D 93 08 01 7D  ......-....-...}
0EC0: 80 7E 80 7F 80 80 80 80  F0 FF FF 7F 80 2D 93 08  .~...........-..
0ED0: 01 79 00 F0 FF FF 7F F0  FF FF 7F 1C 59 80 BA F0  .y..........Y...
0EE0: FF FF 7F 81 80 82 80 83  80 84 80 79 00 F0 FF FF  ...........y....
0EF0: 7F 2D 93 08 01 1C 41 80  45 85 80 F0 FF FF 7F F0  .-....A.E.......
0F00: FF FF 7F 71 33 30 31 2F  80 1A 1B 10 1C 86 80 52  ...q301/.......R
0F10: 85 80 F0 FF FF 7F F0 FF  FF 7F 71 33 30 31 45 85  ..........q301E.
0F20: 80 F0 FF FF 7F F0 FF FF  7F 71 33 30 32 2F 80 66  .........q302/.f
0F30: 72 80 2D 93 08 01 2D 93  08 01 74 6C 6B 30 2B 2D  r.-...-...tlk0+-
0F40: 93 08 01 8D 80 23 2B 2D  93 08 01 8E 80 23 2B 2D  .....#+-.....#+-
0F50: 93 08 01 66 80 23 2B 2D  93 08 01 8F 80 23 66 72  ...f.#+-.....#fr
0F60: 80 2D 93 08 01 2D 93 08  01 74 6C 6B 31 52 85 80  .-...-...tlk1R..
0F70: F0 FF FF 7F F0 FF FF 7F  71 33 30 32 45 85 80 F0  ........q302E...
0F80: FF FF 7F F0 FF FF 7F 71  33 30 33 2F 80 6E F0 FF  .......q303/.n..
0F90: FF 7F 4D 80 99 F0 FF FF  7F 1C 86 80 1A 3C 10 52  ..M..........<.R
0FA0: 85 80 F0 FF FF 7F F0 FF  FF 7F 71 33 30 33 45 7C  ..........q303E|
0FB0: 80 F0 FF FF 7F F0 FF FF  7F 62 6C 6F 66 2F 80 1C  .........blof/..
0FC0: 7B 80 20 00 46 00 45 7C  80 F0 FF FF 7F F0 FF FF  {. .F.E|........
0FD0: 7F 66 64 69 32 2F 80 21  00 45 7C 80 F0 FF FF 7F  .fdi2/.!.E|.....
0FE0: F0 FF FF 7F 66 64 69 30  2F 80 55 7C 80 F0 FF FF  ....fdi0/.U|....
0FF0: 7F F0 FF FF 7F 66 64 69  30 1B 45 7C 80 F0 FF FF  .....fdi0.E|....
1000: 7F F0 FF FF 7F 66 64 6F  30 2F 80 55 7C 80 F0 FF  .....fdo0/.U|...
1010: FF 7F F0 FF FF 7F 66 64  6F 30 1B 45 7C 80 F0 FF  ......fdo0.E|...
1020: FF 7F F0 FF FF 7F 66 64  69 31 2F 80 55 7C 80 F0  ......fdi1/.U|..
1030: FF FF 7F F0 FF FF 7F 66  64 69 31 1B 45 7C 80 F0  .......fdi1.E|..
1040: FF FF 7F F0 FF FF 7F 66  64 6F 31 2F 80 55 7C 80  .......fdo1/.U|.
1050: F0 FF FF 7F F0 FF FF 7F  66 64 6F 31 1B 45 90 80  ........fdo1.E..
1060: F0 FF FF 7F F0 FF FF 7F  77 68 69 31 2F 80 55 90  ........whi1/.U.
1070: 80 F0 FF FF 7F F0 FF FF  7F 77 68 69 31 1B 45 90  .........whi1.E.
1080: 80 F0 FF FF 7F F0 FF FF  7F 77 68 6F 31 2F 80 55  .........who1/.U
1090: 90 80 F0 FF FF 7F F0 FF  FF 7F 77 68 6F 31 1B 45  ..........who1.E
10A0: 90 80 F0 FF FF 7F F0 FF  FF 7F 77 68 6F 32 2F 80  ..........who2/.
10B0: 55 90 80 F0 FF FF 7F F0  FF FF 7F 77 68 6F 32 1B  U..........who2.
10C0: 45 90 80 F0 FF FF 7F F0  FF FF 7F 77 68 6F 33 2F  E..........who3/
10D0: 80 55 90 80 F0 FF FF 7F  F0 FF FF 7F 77 68 6F 33  .U..........who3
10E0: 1B 62 37 80 F0 FF FF 7F  F0 FF FF 7F 6D 61 69 6E  .b7.........main
10F0: 2F 80 1C 91 80 45 7C 80  F0 FF FF 7F F0 FF FF 7F  /....E|.........
1100: 66 64 6F 31 2F 80 55 7C  80 F0 FF FF 7F F0 FF FF  fdo1/.U|........
1110: 7F 66 64 6F 31 1B 45 7C  80 F0 FF FF 7F F0 FF FF  .fdo1.E|........
1120: 7F 66 64 69 31 2F 80 62  76 80 F0 FF FF 7F F0 FF  .fdi1/.bv.......
1130: FF 7F 6D 61 69 6E 2F 80  1C 7B 80 55 7C 80 F0 FF  ..main/..{.U|...
1140: FF 7F F0 FF FF 7F 66 64  69 31 1B 45 7C 80 F0 FF  ......fdi1.E|...
1150: FF 7F F0 FF FF 7F 62 6C  6F 6E 2F 80 45 90 80 F0  ......blon/.E...
1160: FF FF 7F F0 FF FF 7F 62  6C 6F 6E 2F 80 1B 45 90  .......blon/..E.
1170: 80 F0 FF FF 7F F0 FF FF  7F 77 68 69 30 2F 80 55  .........whi0/.U
1180: 90 80 F0 FF FF 7F F0 FF  FF 7F 77 68 69 30 1B 45  ..........whi0.E
1190: 90 80 F0 FF FF 7F F0 FF  FF 7F 77 68 6F 30 2F 80  ..........who0/.
11A0: 55 90 80 F0 FF FF 7F F0  FF FF 7F 77 68 6F 30 1B  U..........who0.
11B0: 45 92 80 F0 FF FF 7F F0  FF FF 7F 65 66 6F 6E 2F  E..........efon/
11C0: 80 55 92 80 F0 FF FF 7F  F0 FF FF 7F 65 66 6F 6E  .U..........efon
11D0: 1B 45 7C 80 F0 FF FF 7F  F0 FF FF 7F 66 64 69 73  .E|.........fdis
11E0: 2F 80 1B 45 7C 80 F0 FF  FF 7F F0 FF FF 7F 66 64  /..E|.........fd
11F0: 6F 73 2F 80 55 7C 80 F0  FF FF 7F F0 FF FF 7F 66  os/.U|.........f
1200: 64 6F 73 1B 45 7C 80 F0  FF FF 7F F0 FF FF 7F 66  dos.E|.........f
1210: 64 69 66 2F 80 1B 45 7C  80 F0 FF FF 7F F0 FF FF  dif/..E|........
1220: 7F 66 64 6F 66 2F 80 55  7C 80 F0 FF FF 7F F0 FF  .fdof/.U|.......
1230: FF 7F 66 64 6F 66 1B 45  7C 80 F0 FF FF 7F F0 FF  ..fdof.E|.......
1240: FF 7F 66 64 69 70 2F 80  1B 45 7C 80 F0 FF FF 7F  ..fdip/..E|.....
1250: F0 FF FF 7F 66 64 6F 70  2F 80 55 7C 80 F0 FF FF  ....fdop/.U|....
1260: 7F F0 FF FF 7F 66 64 6F  70 1B                    .....fdop.      
```

#### Opcodes

```
  0: 0x0E91 [0x42] SET_CLI_EVENT_CANCEL_DATA()
  1: 0x0E92 [0x20] SET_CLI_EVENT_UC_FLAG: Lock player control
  2: 0x0E94 [0x1A] CALL_SUBROUTINE(address=0x103C)
  3: 0x0E97 [0x46] CAMERA_CONTROL: Disable user control
  4: 0x0E99 [0x38] SET_CLIENT_EVENT_MODE(mode=19*)
  5: 0x0E9C [0x03] Work_Zone[2] = 1180*
  6: 0x0EA1 [0x27] REQ_SET(priority=0x10, entity_id=Vinairy (ID: 17339181/0x0108932D), tag_num=0x04)
  7: 0x0EA8 [0x92] Vinairy (ID: 17339181/0x0108932D)->Render.Flags3 ^= 0x01
  8: 0x0EAE [0x94] LocalPlayer->Render.Flags3 ^= 0x01
  9: 0x0EB4 [0x94] Vinairy (ID: 17339181/0x0108932D)->Render.Flags3 ^= 0x01
 10: 0x0EBA [0xBA] SET_ENTITY_POSITION(entity_id=Vinairy (ID: 17339181/0x0108932D), pos_x=547.795*, pos_z=-268.494*, pos_y=-0.878*, direction=106.7°*)
 11: 0x0EC7 [0x80] LOAD_WAIT(entity=LocalPlayer)
 12: 0x0ECC [0x80] LOAD_WAIT(entity=Vinairy (ID: 17339181/0x0108932D))
 13: 0x0ED1 [0x79] LocalPlayer looks at LocalPlayer (Basic look)
 14: 0x0EDB [0x1C] WAIT(10* ticks)
 15: 0x0EDE [0xBA] SET_ENTITY_POSITION(entity_id=LocalPlayer, pos_x=547.103*, pos_z=-271.693*, pos_y=-0.169*, direction=282.2°*)
 16: 0x0EEB [0x79] LocalPlayer looks at Vinairy (ID: 17339181/0x0108932D) (Basic look)
 17: 0x0EF5 [0x1C] WAIT(60* ticks)
 18: 0x0EF8 [0x45] LOAD_SCHEDULED_TASK: Load scheduler "q301" with entities [LocalPlayer, LocalPlayer], work=[491*, 0*]
 19: 0x0F09 [0x1A] CALL_SUBROUTINE(address=0x101B)
 20: 0x0F0C [0x1C] WAIT(120* ticks)
 21: 0x0F0F [0x52] END_LOAD_SCHEDULER: End scheduler "q301" with entities [LocalPlayer, LocalPlayer], work=491*
 22: 0x0F1E [0x45] LOAD_SCHEDULED_TASK: Load scheduler "q302" with entities [LocalPlayer, LocalPlayer], work=[491*, 0*]
 23: 0x0F2F [0x66] LOAD_EXT_SCHEDULER_MAIN: Load scheduler "tlk0" with entities [Vinairy (ID: 17339181/0x0108932D), Vinairy (ID: 17339181/0x0108932D)], work=29*
 24: 0x0F3E [0x2B] Vinairy (ID: 17339181/0x0108932D) [7812*]:
    → "You have need of another $3?"
 25: 0x0F45 [0x23] WAIT_FOR_DIALOG_INTERACTION
 26: 0x0F46 [0x2B] Vinairy (ID: 17339181/0x0108932D) [7813*]:
    → "Here, take this."
 27: 0x0F4D [0x23] WAIT_FOR_DIALOG_INTERACTION
 28: 0x0F4E [0x2B] Vinairy (ID: 17339181/0x0108932D) [7806*]:
    → "According to Captain Jayramus, the Bloodwing Horde's main host presently occupies a cave situated north of our position."
 29: 0x0F55 [0x23] WAIT_FOR_DIALOG_INTERACTION
 30: 0x0F56 [0x2B] Vinairy (ID: 17339181/0x0108932D) [7815*]:
    → "Please take all care."
 31: 0x0F5D [0x23] WAIT_FOR_DIALOG_INTERACTION
 32: 0x0F5E [0x66] LOAD_EXT_SCHEDULER_MAIN: Load scheduler "tlk1" with entities [Vinairy (ID: 17339181/0x0108932D), Vinairy (ID: 17339181/0x0108932D)], work=29*
 33: 0x0F6D [0x52] END_LOAD_SCHEDULER: End scheduler "q302" with entities [LocalPlayer, LocalPlayer], work=491*
 34: 0x0F7C [0x45] LOAD_SCHEDULED_TASK: Load scheduler "q303" with entities [LocalPlayer, LocalPlayer], work=[491*, 0*]
 35: 0x0F8D [0x6E] LocalPlayer uses emote 7*
 36: 0x0F94 [0x99] Wait for LocalPlayer animation to complete
 37: 0x0F99 [0x1C] WAIT(120* ticks)
 38: 0x0F9C [0x1A] CALL_SUBROUTINE(address=0x103C)
 39: 0x0F9F [0x52] END_LOAD_SCHEDULER: End scheduler "q303" with entities [LocalPlayer, LocalPlayer], work=491*
 40: 0x0FAE [0x45] LOAD_SCHEDULED_TASK: Load scheduler "blof" with entities [LocalPlayer, LocalPlayer], work=[200*, 0*]
 41: 0x0FBF [0x1C] WAIT(30* ticks)
 42: 0x0FC2 [0x20] SET_CLI_EVENT_UC_FLAG: Unlock player control
 43: 0x0FC4 [0x46] CAMERA_CONTROL: Restore default settings
 44: 0x0FC6 [0x45] LOAD_SCHEDULED_TASK: Load scheduler "fdi2" with entities [LocalPlayer, LocalPlayer], work=[200*, 0*]
 45: 0x0FD7 [0x21] END_EVENT
 46: 0x0FD8 [0x00] END_REQSTACK()

SUBROUTINE_101B:
 47: 0x101B [0x45] LOAD_SCHEDULED_TASK: Load scheduler "fdi1" with entities [LocalPlayer, LocalPlayer], work=[200*, 0*]
 48: 0x102C [0x55] WAIT_LOAD_SCHEDULER: Wait for scheduler "fdi1" with entities [LocalPlayer, LocalPlayer], work=200*
 49: 0x103B [0x1B] RETURN

SUBROUTINE_103C:
 50: 0x103C [0x45] LOAD_SCHEDULED_TASK: Load scheduler "fdo1" with entities [LocalPlayer, LocalPlayer], work=[200*, 0*]
 51: 0x104D [0x55] WAIT_LOAD_SCHEDULER: Wait for scheduler "fdo1" with entities [LocalPlayer, LocalPlayer], work=200*
 52: 0x105C [0x1B] RETURN
```

#### Data or dead code:

```
# Dead code (unreachable instructions):
     0x0FD9 [0x45] LOAD_SCHEDULED_TASK: Load scheduler "fdi0" with entities [LocalPlayer, LocalPlayer], work=[200*, 0*]
     0x0FEA [0x55] WAIT_LOAD_SCHEDULER: Wait for scheduler "fdi0" with entities [LocalPlayer, LocalPlayer], work=200*
     0x0FF9 [0x1B] RETURN
     0x0FFA [0x45] LOAD_SCHEDULED_TASK: Load scheduler "fdo0" with entities [LocalPlayer, LocalPlayer], work=[200*, 0*]
     0x100B [0x55] WAIT_LOAD_SCHEDULER: Wait for scheduler "fdo0" with entities [LocalPlayer, LocalPlayer], work=200*
     0x101A [0x1B] RETURN
# Dead code (unreachable instructions):
     0x105D [0x45] LOAD_SCHEDULED_TASK: Load scheduler "whi1" with entities [LocalPlayer, LocalPlayer], work=[201*, 0*]
     0x106E [0x55] WAIT_LOAD_SCHEDULER: Wait for scheduler "whi1" with entities [LocalPlayer, LocalPlayer], work=201*
     0x107D [0x1B] RETURN
     0x107E [0x45] LOAD_SCHEDULED_TASK: Load scheduler "who1" with entities [LocalPlayer, LocalPlayer], work=[201*, 0*]
     0x108F [0x55] WAIT_LOAD_SCHEDULER: Wait for scheduler "who1" with entities [LocalPlayer, LocalPlayer], work=201*
     0x109E [0x1B] RETURN
     0x109F [0x45] LOAD_SCHEDULED_TASK: Load scheduler "who2" with entities [LocalPlayer, LocalPlayer], work=[201*, 0*]
     0x10B0 [0x55] WAIT_LOAD_SCHEDULER: Wait for scheduler "who2" with entities [LocalPlayer, LocalPlayer], work=201*
     0x10BF [0x1B] RETURN
     0x10C0 [0x45] LOAD_SCHEDULED_TASK: Load scheduler "who3" with entities [LocalPlayer, LocalPlayer], work=[201*, 0*]
     0x10D1 [0x55] WAIT_LOAD_SCHEDULER: Wait for scheduler "who3" with entities [LocalPlayer, LocalPlayer], work=201*
     0x10E0 [0x1B] RETURN
     0x10E1 [0x62] LOAD_EVENT_SCHEDULER: Load scheduler "main" with entities [LocalPlayer, LocalPlayer], work=[1*, 0*]
     0x10F2 [0x1C] WAIT(45* ticks)
     0x10F5 [0x45] LOAD_SCHEDULED_TASK: Load scheduler "fdo1" with entities [LocalPlayer, LocalPlayer], work=[200*, 0*]
     0x1106 [0x55] WAIT_LOAD_SCHEDULER: Wait for scheduler "fdo1" with entities [LocalPlayer, LocalPlayer], work=200*
     0x1115 [0x1B] RETURN
     0x1116 [0x45] LOAD_SCHEDULED_TASK: Load scheduler "fdi1" with entities [LocalPlayer, LocalPlayer], work=[200*, 0*]
     0x1127 [0x62] LOAD_EVENT_SCHEDULER: Load scheduler "main" with entities [LocalPlayer, LocalPlayer], work=[2*, 0*]
     0x1138 [0x1C] WAIT(30* ticks)
     0x113B [0x55] WAIT_LOAD_SCHEDULER: Wait for scheduler "fdi1" with entities [LocalPlayer, LocalPlayer], work=200*
     0x114A [0x1B] RETURN
     0x114B [0x45] LOAD_SCHEDULED_TASK: Load scheduler "blon" with entities [LocalPlayer, LocalPlayer], work=[200*, 0*]
     0x115C [0x45] LOAD_SCHEDULED_TASK: Load scheduler "blon" with entities [LocalPlayer, LocalPlayer], work=[201*, 0*]
     0x116D [0x1B] RETURN
     0x116E [0x45] LOAD_SCHEDULED_TASK: Load scheduler "whi0" with entities [LocalPlayer, LocalPlayer], work=[201*, 0*]
     0x117F [0x55] WAIT_LOAD_SCHEDULER: Wait for scheduler "whi0" with entities [LocalPlayer, LocalPlayer], work=201*
     0x118E [0x1B] RETURN
     0x118F [0x45] LOAD_SCHEDULED_TASK: Load scheduler "who0" with entities [LocalPlayer, LocalPlayer], work=[201*, 0*]
     0x11A0 [0x55] WAIT_LOAD_SCHEDULER: Wait for scheduler "who0" with entities [LocalPlayer, LocalPlayer], work=201*
     0x11AF [0x1B] RETURN
     0x11B0 [0x45] LOAD_SCHEDULED_TASK: Load scheduler "efon" with entities [LocalPlayer, LocalPlayer], work=[215*, 0*]
     0x11C1 [0x55] WAIT_LOAD_SCHEDULER: Wait for scheduler "efon" with entities [LocalPlayer, LocalPlayer], work=215*
     0x11D0 [0x1B] RETURN
     0x11D1 [0x45] LOAD_SCHEDULED_TASK: Load scheduler "fdis" with entities [LocalPlayer, LocalPlayer], work=[200*, 0*]
     0x11E2 [0x1B] RETURN
     0x11E3 [0x45] LOAD_SCHEDULED_TASK: Load scheduler "fdos" with entities [LocalPlayer, LocalPlayer], work=[200*, 0*]
     0x11F4 [0x55] WAIT_LOAD_SCHEDULER: Wait for scheduler "fdos" with entities [LocalPlayer, LocalPlayer], work=200*
     0x1203 [0x1B] RETURN
     0x1204 [0x45] LOAD_SCHEDULED_TASK: Load scheduler "fdif" with entities [LocalPlayer, LocalPlayer], work=[200*, 0*]
     0x1215 [0x1B] RETURN
     0x1216 [0x45] LOAD_SCHEDULED_TASK: Load scheduler "fdof" with entities [LocalPlayer, LocalPlayer], work=[200*, 0*]
     0x1227 [0x55] WAIT_LOAD_SCHEDULER: Wait for scheduler "fdof" with entities [LocalPlayer, LocalPlayer], work=200*
     0x1236 [0x1B] RETURN
     0x1237 [0x45] LOAD_SCHEDULED_TASK: Load scheduler "fdip" with entities [LocalPlayer, LocalPlayer], work=[200*, 0*]
     0x1248 [0x1B] RETURN
     0x1249 [0x45] LOAD_SCHEDULED_TASK: Load scheduler "fdop" with entities [LocalPlayer, LocalPlayer], work=[200*, 0*]
     0x125A [0x55] WAIT_LOAD_SCHEDULER: Wait for scheduler "fdop" with entities [LocalPlayer, LocalPlayer], work=200*
     0x1269 [0x1B] RETURN
```
