# 17339104

## Common Data

| Field            | Value                   |
|------------------|-------------------------|
| Zone             | Xarcabard [S] (ID: 137) |
| Block Size       | 30596 bytes             |
| Total Events     | 8                       |
| References Count | 891                     |

## List of Events

| Event ID              | Entrypoint   |   Size |   Instructions |
|-----------------------|--------------|--------|----------------|
| [65535](#event-65535) | 0x0000       |      1 |              1 |
| [1](#event-1)         | 0x0001       |   5697 |            655 |
| [2](#event-2)         | 0x1642       |   3403 |            408 |
| [7](#event-7)         | 0x238D       |   8699 |           1062 |
| [31](#event-31)       | 0x4588       |   3888 |            462 |
| [34](#event-34)       | 0x54B8       |    419 |             59 |
| [40](#event-40)       | 0x565B       |   1435 |            200 |
| [42](#event-42)       | 0x5BF6       |   3441 |            393 |

## DAT References (imed_data)

|   Index | Hex Value   |   Dec Value |
|---------|-------------|-------------|
|       0 | 0x0013      |          19 |
|       1 | 0x002A      |          42 |
|       2 | 0x8B598     |      570776 |
|       3 | 0xFFFBDE79  |  4294696569 |
|       4 | 0xFFFFFF63  |  4294967139 |
|       5 | 0x0A02      |        2562 |
|       6 | 0x807D3     |      526291 |
|       7 | 0xFFFBA654  |  4294682196 |
|       8 | 0x0039      |          57 |
|       9 | 0x031F      |         799 |
|      10 | 0xFFFFFFEC  |  4294967276 |
|      11 | 0x8A1BC     |      565692 |
|      12 | 0xFFFBD866  |  4294695014 |
|      13 | 0xFFFFFF9A  |  4294967194 |
|      14 | 0x0514      |        1300 |
|      15 | 0x8259E     |      533918 |
|      16 | 0xFFFBC953  |  4294691155 |
|      17 | 0x0247      |         583 |
|      18 | 0x0651      |        1617 |
|      19 | 0x81CB7     |      531639 |
|      20 | 0xFFFBD526  |  4294694182 |
|      21 | 0x017B      |         379 |
|      22 | 0x0458      |        1112 |
|      23 | 0x80BD9     |      527321 |
|      24 | 0xFFFBDF0C  |  4294696716 |
|      25 | 0x00BE      |         190 |
|      26 | 0x0689      |        1673 |
|      27 | 0x8175C     |      530268 |
|      28 | 0xFFFC00BE  |  4294705342 |
|      29 | 0x0182      |         386 |
|      30 | 0x0882      |        2178 |
|      31 | 0x80DA1     |      527777 |
|      32 | 0xFFFC115D  |  4294709597 |
|      33 | 0x0185      |         389 |
|      34 | 0x02E2      |         738 |
|      35 | 0x838BC     |      538812 |
|      36 | 0xFFFC087D  |  4294707325 |
|      37 | 0xFFFFFC97  |  4294966423 |
|      38 | 0x0644      |        1604 |
|      39 | 0x7FACD     |      522957 |
|      40 | 0xFFFBA72C  |  4294682412 |
|      41 | 0xFFFFFFD3  |  4294967251 |
|      42 | 0x0E10      |        3600 |
|      43 | 0x82E4A     |      536138 |
|      44 | 0xFFFC146F  |  4294710383 |
|      45 | 0xFFFFFC26  |  4294966310 |
|      46 | 0x83308     |      537352 |
|      47 | 0xFFFC0EB1  |  4294708913 |
|      48 | 0xFFFFFC5C  |  4294966364 |
|      49 | 0x89AA6     |      563878 |
|      50 | 0xFFFBD862  |  4294695010 |
|      51 | 0xFFFFFF54  |  4294967124 |
|      52 | 0x80AB2     |      527026 |
|      53 | 0xFFFBA2DB  |  4294681307 |
|      54 | 0x001D      |          29 |
|      55 | 0x0ED8      |        3800 |
|      56 | 0x8057B     |      525691 |
|      57 | 0xFFFB9B0F  |  4294679311 |
|      58 | 0xFFFFFF77  |  4294967159 |
|      59 | 0x7FF62     |      524130 |
|      60 | 0xFFFBA308  |  4294681352 |
|      61 | 0xFFFFFF9F  |  4294967199 |
|      62 | 0x81598     |      529816 |
|      63 | 0xFFFC0A6D  |  4294707821 |
|      64 | 0x0170      |         368 |
|      65 | 0x0000      |           0 |
|      66 | 0x81F7E     |      532350 |
|      67 | 0xFFFBFC3A  |  4294704186 |
|      68 | 0x00C9      |         201 |
|      69 | 0x8285C     |      534620 |
|      70 | 0xFFFC173A  |  4294711098 |
|      71 | 0xFFFFFC16  |  4294966294 |
|      72 | 0xFFFFFF40  |  4294967104 |
|      73 | 0x000F      |          15 |
|      74 | 0x0AA6      |        2726 |
|      75 | 0x0AA0      |        2720 |
|      76 | 0x0063      |          99 |
|      77 | 0x00CF      |         207 |
|      78 | 0x00D1      |         209 |
|      79 | 0x00CE      |         206 |
|      80 | 0x00D0      |         208 |
|      81 | 0x001E      |          30 |
|      82 | 0x01F7      |         503 |
|      83 | 0x1E1E      |        7710 |
|      84 | 0x1E1F      |        7711 |
|      85 | 0x1E20      |        7712 |
|      86 | 0x1E21      |        7713 |
|      87 | 0x1E22      |        7714 |
|      88 | 0x0021      |          33 |
|      89 | 0x1E23      |        7715 |
|      90 | 0x00B4      |         180 |
|      91 | 0x00F0      |         240 |
|      92 | 0x0001      |           1 |
|      93 | 0x0002      |           2 |
|      94 | 0x0003      |           3 |
|      95 | 0x0004      |           4 |
|      96 | 0x0005      |           5 |
|      97 | 0x0006      |           6 |
|      98 | 0x0007      |           7 |
|      99 | 0x0008      |           8 |
|     100 | 0x1E24      |        7716 |
|     101 | 0x1E25      |        7717 |
|     102 | 0x1E26      |        7718 |
|     103 | 0x1E27      |        7719 |
|     104 | 0x1E28      |        7720 |
|     105 | 0x01FE      |         510 |
|     106 | 0x0078      |         120 |
|     107 | 0x00CD      |         205 |
|     108 | 0x01E0      |         480 |
|     109 | 0x82857     |      534615 |
|     110 | 0xFFFBA04C  |  4294680652 |
|     111 | 0x00FE      |         254 |
|     112 | 0x0BB8      |        3000 |
|     113 | 0x82EDA     |      536282 |
|     114 | 0xFFFBA4C7  |  4294681799 |
|     115 | 0x01E7      |         487 |
|     116 | 0x0749      |        1865 |
|     117 | 0x1E29      |        7721 |
|     118 | 0x1E2A      |        7722 |
|     119 | 0x00D2      |         210 |
|     120 | 0x1E2B      |        7723 |
|     121 | 0x81FD8     |      532440 |
|     122 | 0xFFFBB497  |  4294685847 |
|     123 | 0x01B6      |         438 |
|     124 | 0x810E6     |      528614 |
|     125 | 0xFFFBBCEC  |  4294687980 |
|     126 | 0x00E4      |         228 |
|     127 | 0x800E4     |      524516 |
|     128 | 0xFFFBBA6B  |  4294687339 |
|     129 | 0x0018      |          24 |
|     130 | 0x1E2C      |        7724 |
|     131 | 0x003C      |          60 |
|     132 | 0x1E2D      |        7725 |
|     133 | 0x1E2E      |        7726 |
|     134 | 0x1E2F      |        7727 |
|     135 | 0x1E30      |        7728 |
|     136 | 0x01A4      |         420 |
|     137 | 0x0015      |          21 |
|     138 | 0x1E31      |        7729 |
|     139 | 0x0096      |         150 |
|     140 | 0x1E32      |        7730 |
|     141 | 0x009F      |         159 |
|     142 | 0x00DC      |         220 |
|     143 | 0x1E33      |        7731 |
|     144 | 0x0AA7      |        2727 |
|     145 | 0x1E34      |        7732 |
|     146 | 0x1E35      |        7733 |
|     147 | 0x80BA1     |      527265 |
|     148 | 0xFFFC0AA7  |  4294707879 |
|     149 | 0x027E      |         638 |
|     150 | 0x0FDE      |        4062 |
|     151 | 0x08FD      |        2301 |
|     152 | 0x1E36      |        7734 |
|     153 | 0x1E37      |        7735 |
|     154 | 0x1E38      |        7736 |
|     155 | 0x005A      |          90 |
|     156 | 0x1E39      |        7737 |
|     157 | 0x002C      |          44 |
|     158 | 0x1E3A      |        7738 |
|     159 | 0x803A4     |      525220 |
|     160 | 0xFFFBAE23  |  4294684195 |
|     161 | 0x003B      |          59 |
|     162 | 0x0016      |          22 |
|     163 | 0x1E3B      |        7739 |
|     164 | 0x1E3C      |        7740 |
|     165 | 0x0019      |          25 |
|     166 | 0x1E3D      |        7741 |
|     167 | 0x1E3E      |        7742 |
|     168 | 0x1E3F      |        7743 |
|     169 | 0x1E40      |        7744 |
|     170 | 0x1E41      |        7745 |
|     171 | 0x04F9      |        1273 |
|     172 | 0x1E42      |        7746 |
|     173 | 0x1E43      |        7747 |
|     174 | 0x80C16     |      527382 |
|     175 | 0xFFFB9C5F  |  4294679647 |
|     176 | 0xFFFFFFF2  |  4294967282 |
|     177 | 0x0935      |        2357 |
|     178 | 0x812F0     |      529136 |
|     179 | 0xFFFBA05A  |  4294680666 |
|     180 | 0x007B      |         123 |
|     181 | 0x0936      |        2358 |
|     182 | 0x057F      |        1407 |
|     183 | 0x1E44      |        7748 |
|     184 | 0x1E45      |        7749 |
|     185 | 0x1E46      |        7750 |
|     186 | 0x1E47      |        7751 |
|     187 | 0x1E48      |        7752 |
|     188 | 0x1E49      |        7753 |
|     189 | 0x8207A     |      532602 |
|     190 | 0xFFFBC362  |  4294689634 |
|     191 | 0x01C6      |         454 |
|     192 | 0x1E4A      |        7754 |
|     193 | 0x1E4B      |        7755 |
|     194 | 0x81926     |      530726 |
|     195 | 0xFFFBC63D  |  4294690365 |
|     196 | 0x014D      |         333 |
|     197 | 0x0BB9      |        3001 |
|     198 | 0x0AAE      |        2734 |
|     199 | 0x1E4C      |        7756 |
|     200 | 0x8216A     |      532842 |
|     201 | 0xFFFBCDA5  |  4294692261 |
|     202 | 0x01F6      |         502 |
|     203 | 0x81BCE     |      531406 |
|     204 | 0xFFFBCB4D  |  4294691661 |
|     205 | 0x016F      |         367 |
|     206 | 0x1E4D      |        7757 |
|     207 | 0x1E4E      |        7758 |
|     208 | 0x1E4F      |        7759 |
|     209 | 0x806B0     |      526000 |
|     210 | 0xFFFBA398  |  4294681496 |
|     211 | 0x0023      |          35 |
|     212 | 0x0F06      |        3846 |
|     213 | 0x80BE0     |      527328 |
|     214 | 0xFFFB94E0  |  4294677728 |
|     215 | 0xFFFFFDDB  |  4294966747 |
|     216 | 0x0D0C      |        3340 |
|     217 | 0x00C8      |         200 |
|     218 | 0x532C4     |      340676 |
|     219 | 0xFFFB480C  |  4294658060 |
|     220 | 0xFFFFFFCB  |  4294967243 |
|     221 | 0x03ED      |        1005 |
|     222 | 0x52C90     |      339088 |
|     223 | 0xFFFABF94  |  4294623124 |
|     224 | 0xFFFFFB9F  |  4294966175 |
|     225 | 0x03FF      |        1023 |
|     226 | 0x52857     |      338007 |
|     227 | 0xFFFAD379  |  4294628217 |
|     228 | 0xFFFFFEB6  |  4294966966 |
|     229 | 0x0C1C      |        3100 |
|     230 | 0x54F3F     |      347967 |
|     231 | 0xFFFB94DB  |  4294677723 |
|     232 | 0xFFFFFD75  |  4294966645 |
|     233 | 0x52CB1     |      339121 |
|     234 | 0xFFFB0EAB  |  4294643371 |
|     235 | 0x00E8      |         232 |
|     236 | 0x03E9      |        1001 |
|     237 | 0x53ACA     |      342730 |
|     238 | 0xFFFAB66A  |  4294620778 |
|     239 | 0xFFFFF9BE  |  4294965694 |
|     240 | 0x0423      |        1059 |
|     241 | 0x53887     |      342151 |
|     242 | 0xFFFABA55  |  4294621781 |
|     243 | 0xFFFFFABE  |  4294965950 |
|     244 | 0x0A9E      |        2718 |
|     245 | 0x0B5B      |        2907 |
|     246 | 0x090D      |        2317 |
|     247 | 0x1E50      |        7760 |
|     248 | 0x1E51      |        7761 |
|     249 | 0x1E52      |        7762 |
|     250 | 0x1E53      |        7763 |
|     251 | 0x1E54      |        7764 |
|     252 | 0x52CEF     |      339183 |
|     253 | 0xFFFAE691  |  4294633105 |
|     254 | 0x0089      |         137 |
|     255 | 0x0400      |        1024 |
|     256 | 0x0064      |         100 |
|     257 | 0x1E55      |        7765 |
|     258 | 0x1E56      |        7766 |
|     259 | 0x53459     |      341081 |
|     260 | 0xFFFA6612  |  4294600210 |
|     261 | 0xFFFFFA5B  |  4294965851 |
|     262 | 0x0602      |        1538 |
|     263 | 0x529FE     |      338430 |
|     264 | 0xFFFA5E0D  |  4294598157 |
|     265 | 0xFFFFFAF7  |  4294966007 |
|     266 | 0x0D2A      |        3370 |
|     267 | 0x52D28     |      339240 |
|     268 | 0xFFFAA3E6  |  4294616038 |
|     269 | 0xFFFFFA49  |  4294965833 |
|     270 | 0x0BE3      |        3043 |
|     271 | 0x1E57      |        7767 |
|     272 | 0x0401      |        1025 |
|     273 | 0x092E      |        2350 |
|     274 | 0x1E58      |        7768 |
|     275 | 0x52D5B     |      339291 |
|     276 | 0xFFFAB1D5  |  4294619605 |
|     277 | 0xFFFFFA99  |  4294965913 |
|     278 | 0x533A5     |      340901 |
|     279 | 0xFFFAA6FB  |  4294616827 |
|     280 | 0xFFFFFA24  |  4294965796 |
|     281 | 0x529DD     |      338397 |
|     282 | 0xFFFA9CCF  |  4294614223 |
|     283 | 0x533BF     |      340927 |
|     284 | 0xFFFAC699  |  4294624921 |
|     285 | 0xFFFFFC04  |  4294966276 |
|     286 | 0x52D97     |      339351 |
|     287 | 0xFFFAD251  |  4294627921 |
|     288 | 0x04F8      |        1272 |
|     289 | 0x1E59      |        7769 |
|     290 | 0x1E5A      |        7770 |
|     291 | 0x092D      |        2349 |
|     292 | 0x1E5B      |        7771 |
|     293 | 0x1E5C      |        7772 |
|     294 | 0x1E5D      |        7773 |
|     295 | 0x1E5E      |        7774 |
|     296 | 0x1E5F      |        7775 |
|     297 | 0x5302F     |      340015 |
|     298 | 0xFFFADA63  |  4294629987 |
|     299 | 0x0728      |        1832 |
|     300 | 0x53283     |      340611 |
|     301 | 0xFFFAED62  |  4294634850 |
|     302 | 0x00FC      |         252 |
|     303 | 0x1E60      |        7776 |
|     304 | 0x1E61      |        7777 |
|     305 | 0x1E62      |        7778 |
|     306 | 0x0069      |         105 |
|     307 | 0x1E63      |        7779 |
|     308 | 0x1E64      |        7780 |
|     309 | 0x1E65      |        7781 |
|     310 | 0x1E66      |        7782 |
|     311 | 0x1E67      |        7783 |
|     312 | 0x1E68      |        7784 |
|     313 | 0x1E69      |        7785 |
|     314 | 0x1E6A      |        7786 |
|     315 | 0x1E6B      |        7787 |
|     316 | 0x1E6C      |        7788 |
|     317 | 0x1E6D      |        7789 |
|     318 | 0x1E6E      |        7790 |
|     319 | 0x1E6F      |        7791 |
|     320 | 0x1E70      |        7792 |
|     321 | 0x1E71      |        7793 |
|     322 | 0x1E72      |        7794 |
|     323 | 0x1E73      |        7795 |
|     324 | 0x1E74      |        7796 |
|     325 | 0x53ABC     |      342716 |
|     326 | 0xFFFB1B72  |  4294646642 |
|     327 | 0x005E      |          94 |
|     328 | 0x03EC      |        1004 |
|     329 | 0x52D2D     |      339245 |
|     330 | 0xFFFBB5A0  |  4294686112 |
|     331 | 0x03C1      |         961 |
|     332 | 0x03EB      |        1003 |
|     333 | 0x53408     |      341000 |
|     334 | 0xFFFB1630  |  4294645296 |
|     335 | 0x00FB      |         251 |
|     336 | 0x53591     |      341393 |
|     337 | 0xFFFB0EF4  |  4294643444 |
|     338 | 0x00C1      |         193 |
|     339 | 0x53199     |      340377 |
|     340 | 0xFFFB35FD  |  4294653437 |
|     341 | 0x006B      |         107 |
|     342 | 0x53080     |      340096 |
|     343 | 0xFFFAC5AD  |  4294624685 |
|     344 | 0xFFFFFBF8  |  4294966264 |
|     345 | 0x0032      |          50 |
|     346 | 0x52B55     |      338773 |
|     347 | 0xFFFB8243  |  4294672963 |
|     348 | 0x008E      |         142 |
|     349 | 0x52129     |      336169 |
|     350 | 0xFFFAF08C  |  4294635660 |
|     351 | 0xFFFFFEBE  |  4294966974 |
|     352 | 0x538A2     |      342178 |
|     353 | 0xFFFACE7D  |  4294626941 |
|     354 | 0xFFFFFD9E  |  4294966686 |
|     355 | 0x52E1C     |      339484 |
|     356 | 0xFFFABC8F  |  4294622351 |
|     357 | 0xFFFFFB55  |  4294966101 |
|     358 | 0x0C20      |        3104 |
|     359 | 0x53100     |      340224 |
|     360 | 0xFFFAB5C6  |  4294620614 |
|     361 | 0xFFFFFACD  |  4294965965 |
|     362 | 0x0C69      |        3177 |
|     363 | 0x52805     |      337925 |
|     364 | 0xFFFB9A29  |  4294679081 |
|     365 | 0x01D5      |         469 |
|     366 | 0x5256A     |      337258 |
|     367 | 0xFFFBACAD  |  4294683821 |
|     368 | 0x035E      |         862 |
|     369 | 0x52383     |      336771 |
|     370 | 0xFFFBB90B  |  4294686987 |
|     371 | 0x0346      |         838 |
|     372 | 0x53B0C     |      342796 |
|     373 | 0xFFFAC946  |  4294625606 |
|     374 | 0xFFFFFC27  |  4294966311 |
|     375 | 0x538A9     |      342185 |
|     376 | 0xFFFAC16F  |  4294623599 |
|     377 | 0xFFFFFB43  |  4294966083 |
|     378 | 0x536A5     |      341669 |
|     379 | 0xFFFAD2E7  |  4294628071 |
|     380 | 0xFFFFFE98  |  4294966936 |
|     381 | 0x53DA4     |      343460 |
|     382 | 0xFFFACA1D  |  4294625821 |
|     383 | 0xFFFFFC84  |  4294966404 |
|     384 | 0x51A78     |      334456 |
|     385 | 0xFFFAF65F  |  4294637151 |
|     386 | 0xFFFFFDA2  |  4294966690 |
|     387 | 0x51468     |      332904 |
|     388 | 0xFFFAFC1A  |  4294638618 |
|     389 | 0xFFFFFCE3  |  4294966499 |
|     390 | 0x52D95     |      339349 |
|     391 | 0xFFFB70D1  |  4294668497 |
|     392 | 0x529C8     |      338376 |
|     393 | 0xFFFAD069  |  4294627433 |
|     394 | 0xFFFFFE19  |  4294966809 |
|     395 | 0x526C0     |      337600 |
|     396 | 0xFFFACBCE  |  4294626254 |
|     397 | 0xFFFFFCF0  |  4294966512 |
|     398 | 0x5232C     |      336684 |
|     399 | 0xFFFAC506  |  4294624518 |
|     400 | 0xFFFFFB1E  |  4294966046 |
|     401 | 0x51E0A     |      335370 |
|     402 | 0xFFFAC844  |  4294625348 |
|     403 | 0xFFFFFA4C  |  4294965836 |
|     404 | 0x03DE      |         990 |
|     405 | 0x000A      |          10 |
|     406 | 0x1EEF      |        7919 |
|     407 | 0x1EF0      |        7920 |
|     408 | 0x1EF1      |        7921 |
|     409 | 0x092F      |        2351 |
|     410 | 0x1EF2      |        7922 |
|     411 | 0x1EF3      |        7923 |
|     412 | 0x1EF4      |        7924 |
|     413 | 0x0513      |        1299 |
|     414 | 0x1EF5      |        7925 |
|     415 | 0x0A5E      |        2654 |
|     416 | 0x059D      |        1437 |
|     417 | 0x1EF6      |        7926 |
|     418 | 0x1EF7      |        7927 |
|     419 | 0x0AAA      |        2730 |
|     420 | 0x1EF8      |        7928 |
|     421 | 0x1EF9      |        7929 |
|     422 | 0x1EFA      |        7930 |
|     423 | 0x1EFB      |        7931 |
|     424 | 0x1EFC      |        7932 |
|     425 | 0x0AAB      |        2731 |
|     426 | 0x1EFD      |        7933 |
|     427 | 0x00FA      |         250 |
|     428 | 0x5335D     |      340829 |
|     429 | 0xFFFB44D8  |  4294657240 |
|     430 | 0xFFFFFFC0  |  4294967232 |
|     431 | 0x03B1      |         945 |
|     432 | 0x1EFE      |        7934 |
|     433 | 0x002D      |          45 |
|     434 | 0x09C4      |        2500 |
|     435 | 0x057D      |        1405 |
|     436 | 0x1EFF      |        7935 |
|     437 | 0x0A8C      |        2700 |
|     438 | 0x012C      |         300 |
|     439 | 0x1F00      |        7936 |
|     440 | 0x1F01      |        7937 |
|     441 | 0x0014      |          20 |
|     442 | 0x00F8      |         248 |
|     443 | 0x53563     |      341347 |
|     444 | 0xFFFB3AAA  |  4294654634 |
|     445 | 0x0B60      |        2912 |
|     446 | 0x05E7      |        1511 |
|     447 | 0x001A      |          26 |
|     448 | 0x0050      |          80 |
|     449 | 0x0168      |         360 |
|     450 | 0x52237     |      336439 |
|     451 | 0xFFFAF8E1  |  4294637793 |
|     452 | 0xFFFFFFB1  |  4294967217 |
|     453 | 0x0384      |         900 |
|     454 | 0x00AF      |         175 |
|     455 | 0x010E      |         270 |
|     456 | 0x1F02      |        7938 |
|     457 | 0x1F03      |        7939 |
|     458 | 0x533B9     |      340921 |
|     459 | 0xFFFB3F06  |  4294655750 |
|     460 | 0xFFFFFFDC  |  4294967260 |
|     461 | 0x1F04      |        7940 |
|     462 | 0x1F05      |        7941 |
|     463 | 0x1F06      |        7942 |
|     464 | 0x0088      |         136 |
|     465 | 0x00FF      |         255 |
|     466 | 0x000C      |          12 |
|     467 | 0x2CE4A     |      183882 |
|     468 | 0xFFFC526C  |  4294726252 |
|     469 | 0xFFFFFF3E  |  4294967102 |
|     470 | 0x07B5      |        1973 |
|     471 | 0x2BAC9     |      178889 |
|     472 | 0xFFFC99DC  |  4294744540 |
|     473 | 0x00C5      |         197 |
|     474 | 0x037D      |         893 |
|     475 | 0x27FC6     |      163782 |
|     476 | 0xFFFD180E  |  4294776846 |
|     477 | 0x0113      |         275 |
|     478 | 0x2990C     |      170252 |
|     479 | 0xFFFD04F1  |  4294771953 |
|     480 | 0x00F1      |         241 |
|     481 | 0x01F2      |         498 |
|     482 | 0x2C8F5     |      182517 |
|     483 | 0xFFFD17EF  |  4294776815 |
|     484 | 0x01C5      |         453 |
|     485 | 0x0F50      |        3920 |
|     486 | 0x2C44E     |      181326 |
|     487 | 0xFFFD39A9  |  4294785449 |
|     488 | 0x00AB      |         171 |
|     489 | 0x0BEA      |        3050 |
|     490 | 0x2B0EC     |      176364 |
|     491 | 0xFFFD2899  |  4294781081 |
|     492 | 0x05CE      |        1486 |
|     493 | 0x29AF6     |      170742 |
|     494 | 0xFFFCFA1A  |  4294769178 |
|     495 | 0x014E      |         334 |
|     496 | 0x0484      |        1156 |
|     497 | 0x2B5ED     |      177645 |
|     498 | 0xFFFCEC97  |  4294765719 |
|     499 | 0x0371      |         881 |
|     500 | 0x020D      |         525 |
|     501 | 0x2C7B6     |      182198 |
|     502 | 0xFFFC7E8B  |  4294737547 |
|     503 | 0xFFFFFF55  |  4294967125 |
|     504 | 0x0353      |         851 |
|     505 | 0x2B9C3     |      178627 |
|     506 | 0xFFFC3626  |  4294719014 |
|     507 | 0xFFFFFE88  |  4294966920 |
|     508 | 0x0632      |        1586 |
|     509 | 0x2A588     |      173448 |
|     510 | 0xFFFCEFD5  |  4294766549 |
|     511 | 0xFFFFFC7C  |  4294966396 |
|     512 | 0x2C3C2     |      181186 |
|     513 | 0xFFFCFB79  |  4294769529 |
|     514 | 0xFFFFFD44  |  4294966596 |
|     515 | 0x2D90C     |      186636 |
|     516 | 0xFFFD1482  |  4294775938 |
|     517 | 0x2A9AB     |      174507 |
|     518 | 0xFFFD1480  |  4294775936 |
|     519 | 0xFFFFFCAE  |  4294966446 |
|     520 | 0x295A4     |      169380 |
|     521 | 0xFFFD1F1B  |  4294778651 |
|     522 | 0xFFFFFC18  |  4294966296 |
|     523 | 0x2CDA8     |      183720 |
|     524 | 0xFFFC64A7  |  4294730919 |
|     525 | 0xFFFFFED4  |  4294966996 |
|     526 | 0x07B4      |        1972 |
|     527 | 0x2B724     |      177956 |
|     528 | 0xFFFC5EA3  |  4294729379 |
|     529 | 0xFFFFFE0C  |  4294966796 |
|     530 | 0x04B0      |        1200 |
|     531 | 0x28822     |      165922 |
|     532 | 0xFFFD1772  |  4294776690 |
|     533 | 0x0048      |          72 |
|     534 | 0x2ABBE     |      175038 |
|     535 | 0xFFFD05BD  |  4294772157 |
|     536 | 0x0263      |         611 |
|     537 | 0x07B3      |        1971 |
|     538 | 0x2D9A3     |      186787 |
|     539 | 0xFFFD21D2  |  4294779346 |
|     540 | 0x0072      |         114 |
|     541 | 0x0090      |         144 |
|     542 | 0x00DD      |         221 |
|     543 | 0x0A27      |        2599 |
|     544 | 0x059B      |        1435 |
|     545 | 0x09A0      |        2464 |
|     546 | 0x003E      |          62 |
|     547 | 0x0037      |          55 |
|     548 | 0x004B      |          75 |
|     549 | 0x1F07      |        7943 |
|     550 | 0x1F08      |        7944 |
|     551 | 0x1F09      |        7945 |
|     552 | 0x1F0A      |        7946 |
|     553 | 0x1F0B      |        7947 |
|     554 | 0x1F0C      |        7948 |
|     555 | 0x1F0D      |        7949 |
|     556 | 0x00E1      |         225 |
|     557 | 0x1F0E      |        7950 |
|     558 | 0x1F0F      |        7951 |
|     559 | 0x1F10      |        7952 |
|     560 | 0x1F11      |        7953 |
|     561 | 0x1F12      |        7954 |
|     562 | 0x1F13      |        7955 |
|     563 | 0x1F14      |        7956 |
|     564 | 0x1F15      |        7957 |
|     565 | 0x1F16      |        7958 |
|     566 | 0x1F17      |        7959 |
|     567 | 0x1F18      |        7960 |
|     568 | 0x1F19      |        7961 |
|     569 | 0x1F1A      |        7962 |
|     570 | 0x1F1B      |        7963 |
|     571 | 0x1F1C      |        7964 |
|     572 | 0x1F1D      |        7965 |
|     573 | 0xFFFD45CA  |  4294788554 |
|     574 | 0xFFFFED66  |  4294962534 |
|     575 | 0xFFFFF698  |  4294964888 |
|     576 | 0x07D1      |        2001 |
|     577 | 0xFFFD37C5  |  4294784965 |
|     578 | 0x0499      |        1177 |
|     579 | 0xFFFFF679  |  4294964857 |
|     580 | 0x07D0      |        2000 |
|     581 | 0xFFFD3E4A  |  4294786634 |
|     582 | 0xFFFED81B  |  4294891547 |
|     583 | 0xFFFFF6A1  |  4294964897 |
|     584 | 0x05AA      |        1450 |
|     585 | 0xFFFD3829  |  4294785065 |
|     586 | 0xFFFED787  |  4294891399 |
|     587 | 0xFFFFF61B  |  4294964763 |
|     588 | 0x01F4      |         500 |
|     589 | 0xFFFD3B6B  |  4294785899 |
|     590 | 0xFFFED44C  |  4294890572 |
|     591 | 0xFFFFF641  |  4294964801 |
|     592 | 0xFFFD2EE0  |  4294782688 |
|     593 | 0xFFFECF82  |  4294889346 |
|     594 | 0xFFFFF4B5  |  4294964405 |
|     595 | 0x0677      |        1655 |
|     596 | 0xFFFD4025  |  4294787109 |
|     597 | 0xFFFED269  |  4294890089 |
|     598 | 0xFFFFF687  |  4294964871 |
|     599 | 0x05FA      |        1530 |
|     600 | 0xFFFD3088  |  4294783112 |
|     601 | 0xFFFEC91C  |  4294887708 |
|     602 | 0xFFFFF44A  |  4294964298 |
|     603 | 0x0829      |        2089 |
|     604 | 0xFFFD297E  |  4294781310 |
|     605 | 0xFFFECA26  |  4294887974 |
|     606 | 0xFFFFF3BD  |  4294964157 |
|     607 | 0x0E69      |        3689 |
|     608 | 0xFFFD263F  |  4294780479 |
|     609 | 0xFFFEBFE8  |  4294885352 |
|     610 | 0xFFFFF2C9  |  4294963913 |
|     611 | 0xFFFD2C36  |  4294782006 |
|     612 | 0xFFFEB729  |  4294883113 |
|     613 | 0xFFFFF2E6  |  4294963942 |
|     614 | 0x05C9      |        1481 |
|     615 | 0xFFFD1ED1  |  4294778577 |
|     616 | 0xFFFEB360  |  4294882144 |
|     617 | 0xFFFFF17A  |  4294963578 |
|     618 | 0x0431      |        1073 |
|     619 | 0xFFFD38B3  |  4294785203 |
|     620 | 0xFFFEC244  |  4294885956 |
|     621 | 0xFFFFF4EE  |  4294964462 |
|     622 | 0x007C      |         124 |
|     623 | 0xFFFD4FF5  |  4294791157 |
|     624 | 0xFFFEC39F  |  4294886303 |
|     625 | 0xFFFFF7FD  |  4294965245 |
|     626 | 0xFFFD3514  |  4294784276 |
|     627 | 0xFFFEB75A  |  4294883162 |
|     628 | 0xFFFFF3E7  |  4294964199 |
|     629 | 0xFFFD4C84  |  4294790276 |
|     630 | 0xFFFEBDCF  |  4294884815 |
|     631 | 0xFFFFF756  |  4294965078 |
|     632 | 0xFFFD182B  |  4294776875 |
|     633 | 0xFFFEAFFE  |  4294881278 |
|     634 | 0xFFFFF111  |  4294963473 |
|     635 | 0x0C1F      |        3103 |
|     636 | 0xFFFD0FCB  |  4294774731 |
|     637 | 0xFFFEAE1E  |  4294880798 |
|     638 | 0xFFFFF0C6  |  4294963398 |
|     639 | 0xFFFD066D  |  4294772333 |
|     640 | 0xFFFEAB7A  |  4294880122 |
|     641 | 0xFFFFF11C  |  4294963484 |
|     642 | 0xFFFD430A  |  4294787850 |
|     643 | 0xFFFEB20C  |  4294881804 |
|     644 | 0xFFFFF504  |  4294964484 |
|     645 | 0xFFFD2236  |  4294779446 |
|     646 | 0xFFFEB628  |  4294882856 |
|     647 | 0xFFFFF1C0  |  4294963648 |
|     648 | 0xFFFD31FA  |  4294783482 |
|     649 | 0xFFFEAC0A  |  4294880266 |
|     650 | 0xFFFFF25C  |  4294963804 |
|     651 | 0x0BF9      |        3065 |
|     652 | 0xFFFD40C7  |  4294787271 |
|     653 | 0xFFFEA753  |  4294879059 |
|     654 | 0xFFFFF27B  |  4294963835 |
|     655 | 0x0BD9      |        3033 |
|     656 | 0xFFFD4919  |  4294789401 |
|     657 | 0xFFFEA857  |  4294879319 |
|     658 | 0xFFFFF2F7  |  4294963959 |
|     659 | 0xFFFD4C37  |  4294790199 |
|     660 | 0xFFFEB0E7  |  4294881511 |
|     661 | 0xFFFFF5A9  |  4294964649 |
|     662 | 0x0623      |        1571 |
|     663 | 0xFFFD1FBF  |  4294778815 |
|     664 | 0xFFFEAD03  |  4294880515 |
|     665 | 0xFFFFF0D7  |  4294963415 |
|     666 | 0xFFFCFEFF  |  4294770431 |
|     667 | 0xFFFEA946  |  4294879558 |
|     668 | 0xFFFFF11A  |  4294963482 |
|     669 | 0x0027      |          39 |
|     670 | 0x0536      |        1334 |
|     671 | 0x0B4A      |        2890 |
|     672 | 0x01FD      |         509 |
|     673 | 0x1F2A      |        7978 |
|     674 | 0x1F2B      |        7979 |
|     675 | 0x1F2C      |        7980 |
|     676 | 0x03B6      |         950 |
|     677 | 0xFFFD3F2A  |  4294786858 |
|     678 | 0xFFFFD571  |  4294956401 |
|     679 | 0xFFFFF95C  |  4294965596 |
|     680 | 0x040B      |        1035 |
|     681 | 0xFFFD39E7  |  4294785511 |
|     682 | 0xFFFFC615  |  4294952469 |
|     683 | 0xFFFFF95B  |  4294965595 |
|     684 | 0x059E      |        1438 |
|     685 | 0x1F2D      |        7981 |
|     686 | 0x1F2E      |        7982 |
|     687 | 0x1F2F      |        7983 |
|     688 | 0x1F30      |        7984 |
|     689 | 0x1F31      |        7985 |
|     690 | 0x1F32      |        7986 |
|     691 | 0x1F33      |        7987 |
|     692 | 0x1F34      |        7988 |
|     693 | 0x1F35      |        7989 |
|     694 | 0x1F36      |        7990 |
|     695 | 0x0009      |           9 |
|     696 | 0x1F37      |        7991 |
|     697 | 0x1F38      |        7992 |
|     698 | 0x1F39      |        7993 |
|     699 | 0x1F3A      |        7994 |
|     700 | 0x0320      |         800 |
|     701 | 0x1F3B      |        7995 |
|     702 | 0x1F3C      |        7996 |
|     703 | 0x1F3D      |        7997 |
|     704 | 0x1F3E      |        7998 |
|     705 | 0x39E20     |      237088 |
|     706 | 0xFFFDDC55  |  4294827093 |
|     707 | 0xFFFFC093  |  4294951059 |
|     708 | 0x02B8      |         696 |
|     709 | 0x3DBED     |      252909 |
|     710 | 0xFFFDA34C  |  4294812492 |
|     711 | 0xFFFFC811  |  4294952977 |
|     712 | 0x0AF0      |        2800 |
|     713 | 0x1F53      |        8019 |
|     714 | 0x1F54      |        8020 |
|     715 | 0x1F55      |        8021 |
|     716 | 0x1F56      |        8022 |
|     717 | 0x1F57      |        8023 |
|     718 | 0x1F58      |        8024 |
|     719 | 0x1F59      |        8025 |
|     720 | 0x1F5A      |        8026 |
|     721 | 0x1F5B      |        8027 |
|     722 | 0x0012      |          18 |
|     723 | 0x525EC     |      337388 |
|     724 | 0xFFFCCD13  |  4294757651 |
|     725 | 0x1EEC      |        7916 |
|     726 | 0x0F39      |        3897 |
|     727 | 0x51681     |      333441 |
|     728 | 0xFFFCBD87  |  4294753671 |
|     729 | 0x1D27      |        7463 |
|     730 | 0x508E7     |      329959 |
|     731 | 0xFFFCC61C  |  4294755868 |
|     732 | 0x1FCE      |        8142 |
|     733 | 0x5030C     |      328460 |
|     734 | 0xFFFCB3EF  |  4294751215 |
|     735 | 0x1CB2      |        7346 |
|     736 | 0x50660     |      329312 |
|     737 | 0xFFFCD3EF  |  4294759407 |
|     738 | 0x20D6      |        8406 |
|     739 | 0x4ED1F     |      322847 |
|     740 | 0xFFFCA75C  |  4294747996 |
|     741 | 0x0F3A      |        3898 |
|     742 | 0x4E54B     |      320843 |
|     743 | 0xFFFCBBBE  |  4294753214 |
|     744 | 0x2172      |        8562 |
|     745 | 0x4EDBD     |      323005 |
|     746 | 0xFFFCD235  |  4294758965 |
|     747 | 0x2007      |        8199 |
|     748 | 0x50ADC     |      330460 |
|     749 | 0xFFFC9662  |  4294743650 |
|     750 | 0x1CE1      |        7393 |
|     751 | 0x090C      |        2316 |
|     752 | 0x098E      |        2446 |
|     753 | 0x0082      |         130 |
|     754 | 0x05D2      |        1490 |
|     755 | 0x05A0      |        1440 |
|     756 | 0x008C      |         140 |
|     757 | 0xFFFE5EA8  |  4294860456 |
|     758 | 0xFFFF34E6  |  4294915302 |
|     759 | 0xFFFF9C5C  |  4294941788 |
|     760 | 0x06A5      |        1701 |
|     761 | 0x0228      |         552 |
|     762 | 0x8A63C     |      566844 |
|     763 | 0xFFFBD693  |  4294694547 |
|     764 | 0xFFFFFFEA  |  4294967274 |
|     765 | 0x069E      |        1694 |
|     766 | 0x89C06     |      564230 |
|     767 | 0xFFFBD69D  |  4294694557 |
|     768 | 0xFFFFFF62  |  4294967138 |
|     769 | 0x0625      |        1573 |
|     770 | 0xFFFE48BE  |  4294854846 |
|     771 | 0xFFFF57CC  |  4294924236 |
|     772 | 0xFFFFA2F0  |  4294943472 |
|     773 | 0x0ADE      |        2782 |
|     774 | 0xFFFE3F2C  |  4294852396 |
|     775 | 0xFFFF4C4C  |  4294921292 |
|     776 | 0xFFFFA212  |  4294943250 |
|     777 | 0x0D56      |        3414 |
|     778 | 0xFFFE38A0  |  4294850720 |
|     779 | 0xFFFF49E9  |  4294920681 |
|     780 | 0xFFFFA1BD  |  4294943165 |
|     781 | 0x814D5     |      529621 |
|     782 | 0xFFFBB514  |  4294685972 |
|     783 | 0x0117      |         279 |
|     784 | 0x069D      |        1693 |
|     785 | 0x81614     |      529940 |
|     786 | 0xFFFBBAB1  |  4294687409 |
|     787 | 0x0127      |         295 |
|     788 | 0x81D65     |      531813 |
|     789 | 0xFFFBBB3F  |  4294687551 |
|     790 | 0x0178      |         376 |
|     791 | 0x81EC9     |      532169 |
|     792 | 0xFFFBB4CF  |  4294685903 |
|     793 | 0x0196      |         406 |
|     794 | 0x827E0     |      534496 |
|     795 | 0xFFFBB6D6  |  4294686422 |
|     796 | 0x0286      |         646 |
|     797 | 0x106B3     |       67251 |
|     798 | 0xFFFCA656  |  4294747734 |
|     799 | 0xFFFFA2F7  |  4294943479 |
|     800 | 0x087D      |        2173 |
|     801 | 0x018A      |         394 |
|     802 | 0x0861      |        2145 |
|     803 | 0xEF21      |       61217 |
|     804 | 0xFFFCB246  |  4294750790 |
|     805 | 0xFFFFA295  |  4294943381 |
|     806 | 0x0119      |         281 |
|     807 | 0xEF02      |       61186 |
|     808 | 0xFFFCAC97  |  4294749335 |
|     809 | 0xFFFFA2DC  |  4294943452 |
|     810 | 0x0ECE      |        3790 |
|     811 | 0xE176      |       57718 |
|     812 | 0xFFFCBB6B  |  4294753131 |
|     813 | 0xFFFFA362  |  4294943586 |
|     814 | 0x018E      |         398 |
|     815 | 0xE251      |       57937 |
|     816 | 0xFFFCBE06  |  4294753798 |
|     817 | 0xFFFFA383  |  4294943619 |
|     818 | 0x0392      |         914 |
|     819 | 0xDC2C      |       56364 |
|     820 | 0xFFFCB8F5  |  4294752501 |
|     821 | 0xFFFFA330  |  4294943536 |
|     822 | 0xF816      |       63510 |
|     823 | 0xFFFCAB03  |  4294748931 |
|     824 | 0xFFFFA2A9  |  4294943401 |
|     825 | 0xFFFE7C13  |  4294867987 |
|     826 | 0xFFFF6D56  |  4294929750 |
|     827 | 0xFFFFA38B  |  4294943627 |
|     828 | 0x07E4      |        2020 |
|     829 | 0xFFFE7778  |  4294866808 |
|     830 | 0xFFFF67F4  |  4294928372 |
|     831 | 0xFFFFA4D3  |  4294943955 |
|     832 | 0x07E5      |        2021 |
|     833 | 0x0022      |          34 |
|     834 | 0x08C9      |        2249 |
|     835 | 0x094E      |        2382 |
|     836 | 0x2755D     |      161117 |
|     837 | 0xFFFF9098  |  4294938776 |
|     838 | 0xFFFFC361  |  4294951777 |
|     839 | 0x0576      |        1398 |
|     840 | 0x2726E     |      160366 |
|     841 | 0xFFFF8EB2  |  4294938290 |
|     842 | 0xFFFFC2F8  |  4294951672 |
|     843 | 0x0034      |          52 |
|     844 | 0x27A13     |      162323 |
|     845 | 0xFFFF971C  |  4294940444 |
|     846 | 0xFFFFC3BC  |  4294951868 |
|     847 | 0x0342      |         834 |
|     848 | 0x25744     |      153412 |
|     849 | 0xFFFF9EF8  |  4294942456 |
|     850 | 0xFFFFC28F  |  4294951567 |
|     851 | 0x02A5      |         677 |
|     852 | 0x25BC3     |      154563 |
|     853 | 0xFFFFA216  |  4294943254 |
|     854 | 0xFFFFC373  |  4294951795 |
|     855 | 0x0124      |         292 |
|     856 | 0x25963     |      153955 |
|     857 | 0xFFFF8F35  |  4294938421 |
|     858 | 0xFFFFC213  |  4294951443 |
|     859 | 0x006D      |         109 |
|     860 | 0x27D38     |      163128 |
|     861 | 0xFFFF8DE5  |  4294938085 |
|     862 | 0xFFFFC3F7  |  4294951927 |
|     863 | 0x096C      |        2412 |
|     864 | 0x0102      |         258 |
|     865 | 0xE918      |       59672 |
|     866 | 0xFFFCB221  |  4294750753 |
|     867 | 0xFFFFA24A  |  4294943306 |
|     868 | 0x00C6      |         198 |
|     869 | 0xFBA8      |       64424 |
|     870 | 0xFFFCAEF7  |  4294749943 |
|     871 | 0xFFFFA2D8  |  4294943448 |
|     872 | 0x08A6      |        2214 |
|     873 | 0x3757C     |      226684 |
|     874 | 0xFFFEE55E  |  4294894942 |
|     875 | 0xFFFFE15E  |  4294959454 |
|     876 | 0x30CA5     |      199845 |
|     877 | 0xFFFEE683  |  4294895235 |
|     878 | 0xFFFFE184  |  4294959492 |
|     879 | 0x071C      |        1820 |
|     880 | 0xFFFD76B4  |  4294801076 |
|     881 | 0xFFFF65EE  |  4294927854 |
|     882 | 0xFFFFA4D0  |  4294943952 |
|     883 | 0x0C55      |        3157 |
|     884 | 0xFFFD7E1E  |  4294802974 |
|     885 | 0xFFFF65FF  |  4294927871 |
|     886 | 0xFFFFA396  |  4294943638 |
|     887 | 0x0D18      |        3352 |
|     888 | 0x0045      |          69 |
|     889 | 0x0B64      |        2916 |
|     890 | 0x00D7      |         215 |

## Events

### Event 65535

#### Metadata

| Field        | Value   |
|--------------|---------|
| Entrypoint   | 0x0000  |
| Data Size    | 1 bytes |
| Instructions | 1       |

```
      00 01 02 03 04 05 06 07  08 09 0A 0B 0C 0D 0E 0F
      -- -- -- -- -- -- -- --  -- -- -- -- -- -- -- --
0000: 00                                                .               
```

#### Opcodes

```
  0: 0x0000 [0x00] END_REQSTACK()
```

### Event 1

#### Metadata

| Field        | Value      |
|--------------|------------|
| Entrypoint   | 0x0001     |
| Data Size    | 5697 bytes |
| Instructions | 655        |

```
      00 01 02 03 04 05 06 07  08 09 0A 0B 0C 0D 0E 0F
      -- -- -- -- -- -- -- --  -- -- -- -- -- -- -- --
0000:    42 1A 39 67 46 01 38  00 80 5C 00 01 80 5C 01   B.9gF.8..\...\.
0010: 01 80 5C 02 01 80 5C 03  01 80 9A 4E 00 F0 FF FF  ..\...\....N....
0020: 7F 2F 00 D6 92 08 01 2F  00 E3 92 08 01 2F 00 D8  ./...../...../..
0030: 92 08 01 2F 00 E5 92 08  01 2F 00 E6 92 08 01 2F  .../...../...../
0040: 00 E7 92 08 01 2F 00 E8  92 08 01 2F 00 E9 92 08  ...../...../....
0050: 01 2F 00 F7 92 08 01 2F  00 F8 92 08 01 2F 00 F9  ./...../...../..
0060: 92 08 01 2F 00 FA 92 08  01 4E 00 D6 92 08 01 4E  .../.....N.....N
0070: 00 E3 92 08 01 4E 00 D8  92 08 01 4E 00 E5 92 08  .....N.....N....
0080: 01 4E 00 E6 92 08 01 4E  00 E7 92 08 01 4E 00 E8  .N.....N.....N..
0090: 92 08 01 4E 00 E9 92 08  01 4E 00 F7 92 08 01 4E  ...N.....N.....N
00A0: 00 F8 92 08 01 4E 00 F9  92 08 01 4E 00 FA 92 08  .....N.....N....
00B0: 01 4E 00 0B 93 08 01 4E  00 0C 93 08 01 4E 00 0D  .N.....N.....N..
00C0: 93 08 01 4E 00 0E 93 08  01 4E 00 0F 93 08 01 4E  ...N.....N.....N
00D0: 00 10 93 08 01 4E 00 11  93 08 01 4E 00 12 93 08  .....N.....N....
00E0: 01 4E 00 13 93 08 01 4E  00 14 93 08 01 92 01 D6  .N.....N........
00F0: 92 08 01 92 01 E3 92 08  01 92 01 D8 92 08 01 92  ................
0100: 01 E5 92 08 01 92 01 E6  92 08 01 92 01 E7 92 08  ................
0110: 01 92 01 E8 92 08 01 92  01 E9 92 08 01 92 01 F7  ................
0120: 92 08 01 92 01 F8 92 08  01 92 01 F9 92 08 01 92  ................
0130: 01 FA 92 08 01 92 01 0B  93 08 01 92 01 0C 93 08  ................
0140: 01 92 01 0D 93 08 01 92  01 0E 93 08 01 92 01 0F  ................
0150: 93 08 01 92 01 10 93 08  01 92 01 11 93 08 01 92  ................
0160: 01 12 93 08 01 92 01 13  93 08 01 92 01 14 93 08  ................
0170: 01 94 01 F0 FF FF 7F 94  01 D6 92 08 01 94 01 E3  ................
0180: 92 08 01 94 01 D8 92 08  01 94 01 E5 92 08 01 94  ................
0190: 01 E6 92 08 01 94 01 E7  92 08 01 94 01 E8 92 08  ................
01A0: 01 94 01 E9 92 08 01 94  01 F7 92 08 01 94 01 F8  ................
01B0: 92 08 01 94 01 F9 92 08  01 94 01 FA 92 08 01 94  ................
01C0: 01 0B 93 08 01 94 01 0C  93 08 01 94 01 0D 93 08  ................
01D0: 01 94 01 0E 93 08 01 94  01 0F 93 08 01 94 01 10  ................
01E0: 93 08 01 94 01 11 93 08  01 94 01 12 93 08 01 94  ................
01F0: 01 13 93 08 01 94 01 14  93 08 01 59 05 D6 92 08  ...........Y....
0200: 01 01 59 05 E3 92 08 01  01 59 05 F8 92 08 01 01  ..Y......Y......
0210: 59 05 0C 93 08 01 01 BA  F0 FF FF 7F 02 80 03 80  Y...............
0220: 04 80 05 80 BA D6 92 08  01 06 80 07 80 08 80 09  ................
0230: 80 BA E3 92 08 01 06 80  07 80 0A 80 09 80 BA D8  ................
0240: 92 08 01 0B 80 0C 80 0D  80 0E 80 BA E5 92 08 01  ................
0250: 0F 80 10 80 11 80 12 80  BA E6 92 08 01 13 80 14  ................
0260: 80 15 80 16 80 BA E7 92  08 01 17 80 18 80 19 80  ................
0270: 1A 80 BA E8 92 08 01 1B  80 1C 80 1D 80 1E 80 BA  ................
0280: E9 92 08 01 1F 80 20 80  21 80 22 80 BA F7 92 08  ...... .!.".....
0290: 01 23 80 24 80 25 80 26  80 BA F8 92 08 01 27 80  .#.$.%.&......'.
02A0: 28 80 29 80 2A 80 BA F9  92 08 01 2B 80 2C 80 2D  (.).*......+.,.-
02B0: 80 26 80 BA FA 92 08 01  2E 80 2F 80 30 80 26 80  .&......../.0.&.
02C0: BA 0B 93 08 01 31 80 32  80 33 80 05 80 BA 0C 93  .....1.2.3......
02D0: 08 01 34 80 35 80 36 80  37 80 BA 0D 93 08 01 38  ..4.5.6.7......8
02E0: 80 39 80 3A 80 05 80 BA  0E 93 08 01 3B 80 3C 80  .9.:........;.<.
02F0: 3D 80 05 80 BA 0F 93 08  01 3E 80 3F 80 40 80 41  =........>.?.@.A
0300: 80 BA 10 93 08 01 42 80  43 80 44 80 05 80 BA 11  ......B.C.D.....
0310: 93 08 01 45 80 46 80 47  80 05 80 BA 12 93 08 01  ...E.F.G........
0320: 31 80 32 80 48 80 05 80  BA 13 93 08 01 38 80 39  1.2.H........8.9
0330: 80 3A 80 05 80 BA 14 93  08 01 3E 80 3F 80 40 80  .:........>.?.@.
0340: 41 80 80 F0 FF FF 7F 80  D6 92 08 01 80 E3 92 08  A...............
0350: 01 80 D8 92 08 01 80 E5  92 08 01 80 E6 92 08 01  ................
0360: 80 E7 92 08 01 80 E8 92  08 01 80 E9 92 08 01 80  ................
0370: F7 92 08 01 80 F8 92 08  01 80 F9 92 08 01 80 FA  ................
0380: 92 08 01 80 0B 93 08 01  80 0C 93 08 01 80 0D 93  ................
0390: 08 01 80 0E 93 08 01 80  0F 93 08 01 80 10 93 08  ................
03A0: 01 80 11 93 08 01 80 12  93 08 01 80 13 93 08 01  ................
03B0: 80 14 93 08 01 1C 49 80  81 00 E3 92 08 01 5B 4A  ......I.......[J
03C0: 80 D6 92 08 01 D6 92 08  01 6F 79 6A 30 5B 4B 80  .........oyj0[K.
03D0: E3 92 08 01 E3 92 08 01  6F 79 6A 30 66 4C 80 E9  ........oyj0fL..
03E0: 92 08 01 E9 92 08 01 66  73 6C 31 66 4C 80 E8 92  .......fsl1fL...
03F0: 08 01 E8 92 08 01 66 73  68 30 C5 4D 80 0B 93 08  ......fsh0.M....
0400: 01 0B 93 08 01 73 30 30  30 41 80 C5 4D 80 12 93  .....s000A..M...
0410: 08 01 12 93 08 01 73 30  30 31 41 80 C5 4E 80 0C  ......s001A..N..
0420: 93 08 01 0C 93 08 01 73  30 30 30 41 80 C5 4D 80  .......s000A..M.
0430: 0D 93 08 01 0D 93 08 01  73 30 30 30 41 80 C5 4D  ........s000A..M
0440: 80 13 93 08 01 13 93 08  01 73 30 30 31 41 80 C5  .........s001A..
0450: 4F 80 0F 93 08 01 0F 93  08 01 73 30 30 30 41 80  O.........s000A.
0460: C5 4F 80 14 93 08 01 14  93 08 01 73 30 30 31 41  .O.........s001A
0470: 80 C5 50 80 10 93 08 01  10 93 08 01 73 30 30 30  ..P.........s000
0480: 41 80 C5 50 80 11 93 08  01 11 93 08 01 73 30 30  A..P.........s00
0490: 31 41 80 1C 49 80 27 10  F0 FF FF 7F 30 1C 51 80  1A..I.'.....0.Q.
04A0: 45 52 80 F0 FF FF 7F F0  FF FF 7F 30 64 30 30 41  ER.........0d00A
04B0: 80 1A 18 67 4A D8 92 08  01 F0 FF FF 7F 2B D8 92  ...gJ........+..
04C0: 08 01 53 80 23 2A 10 F0  FF FF 7F 2B D8 92 08 01  ..S.#*.....+....
04D0: 54 80 23 2B D8 92 08 01  55 80 23 52 52 80 F0 FF  T.#+....U.#RR...
04E0: FF 7F F0 FF FF 7F 30 64  30 30 45 52 80 F0 FF FF  ......0d00ER....
04F0: 7F F0 FF FF 7F 30 64 30  78 41 80 2B D8 92 08 01  .....0d0xA.+....
0500: 56 80 23 52 52 80 F0 FF  FF 7F F0 FF FF 7F 30 64  V.#RR.........0d
0510: 30 78 45 52 80 F0 FF FF  7F F0 FF FF 7F 30 64 30  0xER.........0d0
0520: 77 41 80 2B D8 92 08 01  57 80 23 52 52 80 F0 FF  wA.+....W.#RR...
0530: FF 7F F0 FF FF 7F 30 64  30 77 45 52 80 F0 FF FF  ......0d0wER....
0540: 7F F0 FF FF 7F 30 64 30  76 41 80 6E D8 92 08 01  .....0d0vA.n....
0550: 58 80 99 D8 92 08 01 2B  D8 92 08 01 59 80 1C 5A  X......+....Y..Z
0560: 80 23 52 52 80 F0 FF FF  7F F0 FF FF 7F 30 64 30  .#RR.........0d0
0570: 76 45 52 80 F0 FF FF 7F  F0 FF FF 7F 30 64 30 31  vER.........0d01
0580: 41 80 4A F0 FF FF 7F D6  92 08 01 1C 5B 80 52 52  A.J.........[.RR
0590: 80 F0 FF FF 7F F0 FF FF  7F 30 64 30 31 29 10 F0  .........0d01)..
05A0: FF FF 7F 04 02 02 10 5C  80 80 C0 05 45 52 80 F0  .......\....ER..
05B0: FF FF 7F F0 FF FF 7F 64  68 6D 30 41 80 01 84 06  .......dhm0A....
05C0: 02 02 10 5D 80 80 DC 05  45 52 80 F0 FF FF 7F F0  ...]....ER......
05D0: FF FF 7F 64 68 66 30 41  80 01 84 06 02 02 10 5E  ...dhf0A.......^
05E0: 80 80 F8 05 45 52 80 F0  FF FF 7F F0 FF FF 7F 64  ....ER.........d
05F0: 65 6D 30 41 80 01 84 06  02 02 10 5F 80 80 14 06  em0A......._....
0600: 45 52 80 F0 FF FF 7F F0  FF FF 7F 64 65 66 30 41  ER.........def0A
0610: 80 01 84 06 02 02 10 60  80 80 30 06 45 52 80 F0  .......`..0.ER..
0620: FF FF 7F F0 FF FF 7F 64  74 72 30 41 80 01 84 06  .......dtr0A....
0630: 02 02 10 61 80 80 4C 06  45 52 80 F0 FF FF 7F F0  ...a..L.ER......
0640: FF FF 7F 64 74 72 30 41  80 01 84 06 02 02 10 62  ...dtr0A.......b
0650: 80 80 68 06 45 52 80 F0  FF FF 7F F0 FF FF 7F 64  ..h.ER.........d
0660: 6D 74 30 41 80 01 84 06  02 02 10 63 80 80 84 06  mt0A.......c....
0670: 45 52 80 F0 FF FF 7F F0  FF FF 7F 64 67 6C 30 41  ER.........dgl0A
0680: 80 01 84 06 1C 5A 80 27  10 F0 FF FF 7F 31 1C 51  .....Z.'.....1.Q
0690: 80 52 52 80 F0 FF FF 7F  F0 FF FF 7F 64 68 6D 30  .RR.........dhm0
06A0: 52 52 80 F0 FF FF 7F F0  FF FF 7F 64 68 66 30 52  RR.........dhf0R
06B0: 52 80 F0 FF FF 7F F0 FF  FF 7F 64 65 6D 30 52 52  R.........dem0RR
06C0: 80 F0 FF FF 7F F0 FF FF  7F 64 65 66 30 52 52 80  .........def0RR.
06D0: F0 FF FF 7F F0 FF FF 7F  64 74 72 30 52 52 80 F0  ........dtr0RR..
06E0: FF FF 7F F0 FF FF 7F 64  6D 74 30 52 52 80 F0 FF  .......dmt0RR...
06F0: FF 7F F0 FF FF 7F 64 67  6C 30 02 02 10 5C 80 80  ......dgl0...\..
0700: 16 07 45 52 80 F0 FF FF  7F F0 FF FF 7F 64 6D 64  ..ER.........dmd
0710: 30 41 80 01 DA 07 02 02  10 5D 80 80 32 07 45 52  0A.......]..2.ER
0720: 80 F0 FF FF 7F F0 FF FF  7F 64 6D 64 30 41 80 01  .........dmd0A..
0730: DA 07 02 02 10 5E 80 80  4E 07 45 52 80 F0 FF FF  .....^..N.ER....
0740: 7F F0 FF FF 7F 64 68 69  30 41 80 01 DA 07 02 02  .....dhi0A......
0750: 10 5F 80 80 6A 07 45 52  80 F0 FF FF 7F F0 FF FF  ._..j.ER........
0760: 7F 64 68 69 30 41 80 01  DA 07 02 02 10 60 80 80  .dhi0A.......`..
0770: 86 07 45 52 80 F0 FF FF  7F F0 FF FF 7F 64 73 68  ..ER.........dsh
0780: 30 41 80 01 DA 07 02 02  10 61 80 80 A2 07 45 52  0A.......a....ER
0790: 80 F0 FF FF 7F F0 FF FF  7F 64 73 68 30 41 80 01  .........dsh0A..
07A0: DA 07 02 02 10 62 80 80  BE 07 45 52 80 F0 FF FF  .....b....ER....
07B0: 7F F0 FF FF 7F 64 6D 64  30 41 80 01 DA 07 02 02  .....dmd0A......
07C0: 10 63 80 80 DA 07 45 52  80 F0 FF FF 7F F0 FF FF  .c....ER........
07D0: 7F 64 68 69 30 41 80 01  DA 07 4A D8 92 08 01 F0  .dhi0A....J.....
07E0: FF FF 7F 2B D8 92 08 01  64 80 2A 10 F0 FF FF 7F  ...+....d.*.....
07F0: 1C 51 80 23 C5 50 80 0E  93 08 01 0E 93 08 01 73  .Q.#.P.........s
0800: 30 30 32 41 80 27 10 D8  92 08 01 0B 2B D8 92 08  002A.'......+...
0810: 01 65 80 23 2A 10 D8 92  08 01 52 52 80 F0 FF FF  .e.#*.....RR....
0820: 7F F0 FF FF 7F 64 68 69  30 52 52 80 F0 FF FF 7F  .....dhi0RR.....
0830: F0 FF FF 7F 64 6D 64 30  52 52 80 F0 FF FF 7F F0  ....dmd0RR......
0840: FF FF 7F 64 73 68 30 45  52 80 F0 FF FF 7F F0 FF  ...dsh0ER.......
0850: FF 7F 30 64 30 32 41 80  4A F0 FF FF 7F D6 92 08  ..0d02A.J.......
0860: 01 1C 5A 80 1A 39 67 1C  51 80 52 52 80 F0 FF FF  ..Z..9g.Q.RR....
0870: 7F F0 FF FF 7F 30 64 30  32 45 52 80 F0 FF FF 7F  .....0d02ER.....
0880: F0 FF FF 7F 30 64 30 33  41 80 1A 18 67 2B E3 92  ....0d03A...g+..
0890: 08 01 66 80 23 2B D6 92  08 01 67 80 23 52 52 80  ..f.#+....g.#RR.
08A0: F0 FF FF 7F F0 FF FF 7F  30 64 30 33 45 52 80 F0  ........0d03ER..
08B0: FF FF 7F F0 FF FF 7F 30  64 31 30 41 80 5B 4B 80  .......0d10A.[K.
08C0: E3 92 08 01 E3 92 08 01  6F 79 6A 31 2B E3 92 08  ........oyj1+...
08D0: 01 68 80 1C 69 80 BA D6  92 08 01 06 80 07 80 41  .h..i..........A
08E0: 80 09 80 23 52 52 80 F0  FF FF 7F F0 FF FF 7F 30  ...#RR.........0
08F0: 64 31 30 45 52 80 F0 FF  FF 7F F0 FF FF 7F 30 64  d10ER.........0d
0900: 31 31 41 80 5B 4A 80 D6  92 08 01 D6 92 08 01 6F  11A.[J.........o
0910: 79 6A 31 5B 4B 80 E3 92  08 01 E3 92 08 01 6F 79  yj1[K.........oy
0920: 6A 32 1C 5A 80 52 52 80  F0 FF FF 7F F0 FF FF 7F  j2.Z.RR.........
0930: 30 64 31 31 45 52 80 F0  FF FF 7F F0 FF FF 7F 30  0d11ER.........0
0940: 64 31 32 41 80 1C 51 80  81 00 D6 92 08 01 5B 4A  d12A..Q.......[J
0950: 80 D6 92 08 01 D6 92 08  01 6F 79 6A 32 1C 6A 80  .........oyj2.j.
0960: 52 52 80 F0 FF FF 7F F0  FF FF 7F 30 64 31 32 45  RR.........0d12E
0970: 52 80 F0 FF FF 7F F0 FF  FF 7F 30 64 31 33 41 80  R.........0d13A.
0980: C5 6B 80 D6 92 08 01 D6  92 08 01 6D 61 69 6E 41  .k.........mainA
0990: 80 1C 6C 80 52 52 80 F0  FF FF 7F F0 FF FF 7F 30  ..l.RR.........0
09A0: 64 31 33 45 52 80 F0 FF  FF 7F F0 FF FF 7F 30 64  d13ER.........0d
09B0: 30 34 41 80 C5 6B 80 D6  92 08 01 D6 92 08 01 6B  04A..k.........k
09C0: 69 6C 61 41 80 BA F0 FF  FF 7F 6D 80 6E 80 6F 80  ilaA......m.n.o.
09D0: 70 80 BA D8 92 08 01 71  80 72 80 73 80 74 80 27  p......q.r.s.t.'
09E0: 10 F0 FF FF 7F 2A 7B D8  92 08 01 2B D6 92 08 01  .....*{....+....
09F0: 75 80 23 7C 00 D6 92 08  01 2B D6 92 08 01 76 80  u.#|.....+....v.
0A00: 5B 4A 80 D6 92 08 01 D6  92 08 01 6F 79 6A 33 1C  [J.........oyj3.
0A10: 77 80 23 52 52 80 F0 FF  FF 7F F0 FF FF 7F 30 64  w.#RR.........0d
0A20: 30 34 45 52 80 F0 FF FF  7F F0 FF FF 7F 30 64 30  04ER.........0d0
0A30: 35 41 80 2B E3 92 08 01  78 80 23 81 01 D6 92 08  5A.+....x.#.....
0A40: 01 7C 01 D6 92 08 01 59  05 D6 92 08 01 00 BA D6  .|.....Y........
0A50: 92 08 01 06 80 07 80 08  80 09 80 BA E5 92 08 01  ................
0A60: 79 80 7A 80 7B 80 74 80  BA E6 92 08 01 7C 80 7D  y.z.{.t......|.}
0A70: 80 7E 80 74 80 BA E7 92  08 01 7F 80 80 80 81 80  .~.t............
0A80: 74 80 4A E5 92 08 01 E3  92 08 01 4A E6 92 08 01  t.J........J....
0A90: E3 92 08 01 4A E7 92 08  01 E3 92 08 01 52 52 80  ....J........RR.
0AA0: F0 FF FF 7F F0 FF FF 7F  30 64 30 35 45 52 80 F0  ........0d05ER..
0AB0: FF FF 7F F0 FF FF 7F 30  64 30 39 41 80 27 10 D8  .......0d09A.'..
0AC0: 92 08 01 0D 2B D8 92 08  01 82 80 2A 10 D8 92 08  ....+......*....
0AD0: 01 1C 83 80 23 52 52 80  F0 FF FF 7F F0 FF FF 7F  ....#RR.........
0AE0: 30 64 30 39 45 52 80 F0  FF FF 7F F0 FF FF 7F 30  0d09ER.........0
0AF0: 64 31 37 41 80 2B E3 92  08 01 84 80 23 52 52 80  d17A.+......#RR.
0B00: F0 FF FF 7F F0 FF FF 7F  30 64 31 37 45 52 80 F0  ........0d17ER..
0B10: FF FF 7F F0 FF FF 7F 30  64 31 65 41 80 7C 00 D8  .......0d1eA.|..
0B20: 92 08 01 2B D8 92 08 01  85 80 23 52 52 80 F0 FF  ...+......#RR...
0B30: FF 7F F0 FF FF 7F 30 64  31 65 45 52 80 F0 FF FF  ......0d1eER....
0B40: 7F F0 FF FF 7F 30 64 30  36 41 80 7C 01 D8 92 08  .....0d06A.|....
0B50: 01 2B E3 92 08 01 86 80  23 23 5D 41 80 5B 80 2B  .+......##]A.[.+
0B60: E3 92 08 01 87 80 23 5B  4B 80 E3 92 08 01 E3 92  ......#[K.......
0B70: 08 01 6F 79 6A 33 1C 5A  80 52 52 80 F0 FF FF 7F  ..oyj3.Z.RR.....
0B80: F0 FF FF 7F 30 64 30 36  45 52 80 F0 FF FF 7F F0  ....0d06ER......
0B90: FF FF 7F 30 64 31 61 41  80 1C 88 80 52 52 80 F0  ...0d1aA....RR..
0BA0: FF FF 7F F0 FF FF 7F 30  64 31 61 45 52 80 F0 FF  .......0d1aER...
0BB0: FF 7F F0 FF FF 7F 30 64  30 37 41 80 6E E5 92 08  ......0d07A.n...
0BC0: 01 89 80 99 E5 92 08 01  5B 4A 80 D6 92 08 01 D6  ........[J......
0BD0: 92 08 01 6F 79 6A 34 2B  D6 92 08 01 8A 80 1C 8B  ...oyj4+........
0BE0: 80 23 2B D8 92 08 01 8C  80 23 5C 00 8D 80 5C 01  .#+......#\...\.
0BF0: 8D 80 5C 02 8D 80 5C 03  8D 80 52 52 80 F0 FF FF  ..\...\...RR....
0C00: 7F F0 FF FF 7F 30 64 30  37 45 52 80 F8 92 08 01  .....0d07ER.....
0C10: F8 92 08 01 30 64 30 38  41 80 66 36 80 D8 92 08  ....0d08A.f6....
0C20: 01 D8 92 08 01 73 68 61  31 5B 8E 80 F8 92 08 01  .....sha1[......
0C30: F8 92 08 01 79 6F 72 30  27 10 E5 92 08 01 02 27  ....yor0'......'
0C40: 10 E6 92 08 01 02 27 10  E7 92 08 01 02 2B E5 92  ......'......+..
0C50: 08 01 8F 80 1C 5A 80 23  52 52 80 F8 92 08 01 F8  .....Z.#RR......
0C60: 92 08 01 30 64 30 38 52  52 80 F8 92 08 01 F8 92  ...0d08RR.......
0C70: 08 01 30 64 30 38 45 52  80 F0 FF FF 7F F0 FF FF  ..0d08ER........
0C80: 7F 30 64 30 61 41 80 7C  00 D6 92 08 01 81 00 D6  .0d0aA.|........
0C90: 92 08 01 C5 6B 80 D6 92  08 01 D6 92 08 01 6D 61  ....k.........ma
0CA0: 69 6E 41 80 5B 90 80 D6  92 08 01 D6 92 08 01 6F  inA.[..........o
0CB0: 79 6A 35 2B D6 92 08 01  91 80 1C 5B 80 52 52 80  yj5+.......[.RR.
0CC0: F0 FF FF 7F F0 FF FF 7F  30 64 30 61 45 52 80 F0  ........0d0aER..
0CD0: FF FF 7F F0 FF FF 7F 30  64 31 35 41 80 1C 5A 80  .......0d15A..Z.
0CE0: 52 52 80 F0 FF FF 7F F0  FF FF 7F 30 64 31 35 45  RR.........0d15E
0CF0: 52 80 F0 FF FF 7F F0 FF  FF 7F 30 64 31 34 41 80  R.........0d14A.
0D00: 1C 60 80 C5 6B 80 D6 92  08 01 D6 92 08 01 6B 69  .`..k.........ki
0D10: 6C 61 41 80 1C 77 80 23  52 52 80 F0 FF FF 7F F0  laA..w.#RR......
0D20: FF FF 7F 30 64 31 34 45  52 80 F0 FF FF 7F F0 FF  ...0d14ER.......
0D30: FF 7F 30 64 30 62 41 80  6E D8 92 08 01 58 80 99  ..0d0bA.n....X..
0D40: D8 92 08 01 2B D8 92 08  01 92 80 BA E5 92 08 01  ....+...........
0D50: 93 80 94 80 95 80 96 80  5B 97 80 E5 92 08 01 E5  ........[.......
0D60: 92 08 01 74 75 6B 30 1C  8B 80 C5 6B 80 D6 92 08  ...tuk0....k....
0D70: 01 D6 92 08 01 6B 69 6C  61 41 80 23 52 52 80 F0  .....kilaA.#RR..
0D80: FF FF 7F F0 FF FF 7F 30  64 30 62 45 52 80 F0 FF  .......0d0bER...
0D90: FF 7F F0 FF FF 7F 30 64  30 63 41 80 7B D8 92 08  ......0d0cA.{...
0DA0: 01 27 10 D8 92 08 01 0E  27 10 D6 92 08 01 0D 2B  .'......'......+
0DB0: D8 92 08 01 98 80 23 4A  E6 92 08 01 D8 92 08 01  ......#J........
0DC0: 4A E7 92 08 01 D8 92 08  01 2B D8 92 08 01 99 80  J........+......
0DD0: 23 2A 10 D6 92 08 01 52  52 80 F0 FF FF 7F F0 FF  #*.....RR.......
0DE0: FF 7F 30 64 30 63 52 52  80 F0 FF FF 7F F0 FF FF  ..0d0cRR........
0DF0: 7F 30 64 30 7A 52 52 80  F0 FF FF 7F F0 FF FF 7F  .0d0zRR.........
0E00: 30 64 31 62 52 52 80 F0  FF FF 7F F0 FF FF 7F 30  0d1bRR.........0
0E10: 64 31 36 45 52 80 F0 FF  FF 7F F0 FF FF 7F 30 64  d16ER.........0d
0E20: 30 64 41 80 7A 00 D6 92  08 01 5B 90 80 D6 92 08  0dA.z.....[.....
0E30: 01 D6 92 08 01 6F 79 6A  36 2B D6 92 08 01 9A 80  .....oyj6+......
0E40: 1C 9B 80 23 5D 41 80 6A  80 52 52 80 F0 FF FF 7F  ...#]A.j.RR.....
0E50: F0 FF FF 7F 30 64 30 7A  45 52 80 F0 FF FF 7F F0  ....0d0zER......
0E60: FF FF 7F 30 64 30 66 41  80 7C 01 D6 92 08 01 5B  ...0d0fA.|.....[
0E70: 90 80 D6 92 08 01 D6 92  08 01 6F 79 6A 37 4A D8  ..........oyj7J.
0E80: 92 08 01 D6 92 08 01 2B  D6 92 08 01 9C 80 1C 8B  .......+........
0E90: 80 52 52 80 F0 FF FF 7F  F0 FF FF 7F 30 64 30 66  .RR.........0d0f
0EA0: 45 52 80 F0 FF FF 7F F0  FF FF 7F 30 64 31 38 41  ER.........0d18A
0EB0: 80 1C 83 80 23 5C 00 9D  80 5C 01 9D 80 5C 02 9D  ....#\...\...\..
0EC0: 80 5C 03 9D 80 52 52 80  F0 FF FF 7F F0 FF FF 7F  .\...RR.........
0ED0: 30 64 31 38 45 52 80 F0  FF FF 7F F0 FF FF 7F 30  0d18ER.........0
0EE0: 64 30 65 41 80 2B D6 92  08 01 9E 80 23 52 52 80  d0eA.+......#RR.
0EF0: F0 FF FF 7F F0 FF FF 7F  30 64 30 65 45 52 80 F0  ........0d0eER..
0F00: FF FF 7F F0 FF FF 7F 30  64 30 67 41 80 BA E7 92  .......0d0gA....
0F10: 08 01 9F 80 A0 80 A1 80  74 80 6E D8 92 08 01 A2  ........t.n.....
0F20: 80 99 D8 92 08 01 2B D8  92 08 01 A3 80 1C 8B 80  ......+.........
0F30: 23 52 52 80 F0 FF FF 7F  F0 FF FF 7F 30 64 30 67  #RR.........0d0g
0F40: 45 52 80 F0 FF FF 7F F0  FF FF 7F 30 64 30 68 41  ER.........0d0hA
0F50: 80 2B D8 92 08 01 A4 80  23 52 52 80 F0 FF FF 7F  .+......#RR.....
0F60: F0 FF FF 7F 30 64 30 68  45 52 80 F0 FF FF 7F F0  ....0d0hER......
0F70: FF FF 7F 30 64 30 79 41  80 79 00 D8 92 08 01 D6  ...0d0yA.y......
0F80: 92 08 01 6E D8 92 08 01  A5 80 99 D8 92 08 01 2B  ...n...........+
0F90: D8 92 08 01 A6 80 1C 8B  80 23 52 52 80 F0 FF FF  .........#RR....
0FA0: 7F F0 FF FF 7F 30 64 30  79 45 52 80 F0 FF FF 7F  .....0d0yER.....
0FB0: F0 FF FF 7F 30 64 30 69  41 80 2B D8 92 08 01 A7  ....0d0iA.+.....
0FC0: 80 23 52 52 80 F0 FF FF  7F F0 FF FF 7F 30 64 30  .#RR.........0d0
0FD0: 69 45 52 80 F0 FF FF 7F  F0 FF FF 7F 30 64 30 6A  iER.........0d0j
0FE0: 41 80 2B D6 92 08 01 A8  80 23 52 52 80 F0 FF FF  A.+......#RR....
0FF0: 7F F0 FF FF 7F 30 64 30  6A 45 52 80 F0 FF FF 7F  .....0d0jER.....
1000: F0 FF FF 7F 62 6C 6F 66  41 80 45 52 80 F0 FF FF  ....blofA.ER....
1010: 7F F0 FF FF 7F 30 64 30  6B 41 80 7C 00 D8 92 08  .....0d0kA.|....
1020: 01 81 01 D6 92 08 01 6B  69 64 6C 30 D6 92 08 01  .......kidl0....
1030: 2B D8 92 08 01 A9 80 23  27 10 D6 92 08 01 0B 1C  +......#'.......
1040: 60 80 52 52 80 F0 FF FF  7F F0 FF FF 7F 30 64 30  `.RR.........0d0
1050: 6B 45 52 80 F0 FF FF 7F  F0 FF FF 7F 30 64 30 6C  kER.........0d0l
1060: 41 80 79 00 D6 92 08 01  D8 92 08 01 2B D6 92 08  A.y.........+...
1070: 01 AA 80 23 2A 10 D6 92  08 01 52 52 80 F0 FF FF  ...#*.....RR....
1080: 7F F0 FF FF 7F 30 64 30  6C 45 52 80 F0 FF FF 7F  .....0d0lER.....
1090: F0 FF FF 7F 30 64 31 66  41 80 7B D6 92 08 01 81  ....0d1fA.{.....
10A0: 00 D6 92 08 01 4A E7 92  08 01 E3 92 08 01 5B AB  .....J........[.
10B0: 80 D6 92 08 01 D6 92 08  01 74 68 62 30 1C 6A 80  .........thb0.j.
10C0: 2B D6 92 08 01 AC 80 23  52 52 80 F0 FF FF 7F F0  +......#RR......
10D0: FF FF 7F 30 64 31 66 45  52 80 F0 FF FF 7F F0 FF  ...0d1fER.......
10E0: FF 7F 30 64 30 6D 41 80  7C 01 D8 92 08 01 79 00  ..0d0mA.|.....y.
10F0: D6 92 08 01 D8 92 08 01  81 01 D6 92 08 01 5B AB  ..............[.
1100: 80 D6 92 08 01 D6 92 08  01 74 68 62 31 66 36 80  .........thb1f6.
1110: D8 92 08 01 D8 92 08 01  74 77 62 30 2B D8 92 08  ........twb0+...
1120: 01 AD 80 BA E5 92 08 01  AE 80 AF 80 B0 80 B1 80  ................
1130: BA E6 92 08 01 B2 80 B3  80 B4 80 B5 80 4A E5 92  .............J..
1140: 08 01 E3 92 08 01 66 36  80 E5 92 08 01 E5 92 08  ......f6........
1150: 01 73 69 72 30 66 4C 80  E6 92 08 01 E6 92 08 01  .sir0fL.........
1160: 66 73 68 30 7B E5 92 08  01 7B E6 92 08 01 1C 83  fsh0{....{......
1170: 80 23 52 52 80 F0 FF FF  7F F0 FF FF 7F 30 64 30  .#RR.........0d0
1180: 6D 45 52 80 F0 FF FF 7F  F0 FF FF 7F 30 64 30 6E  mER.........0d0n
1190: 41 80 5B B6 80 D6 92 08  01 D6 92 08 01 6D 65 69  A.[..........mei
11A0: 30 2B D6 92 08 01 B7 80  1C 9B 80 23 52 52 80 F0  0+.........#RR..
11B0: FF FF 7F F0 FF FF 7F 30  64 30 6E 45 52 80 F0 FF  .......0d0nER...
11C0: FF 7F F0 FF FF 7F 30 64  30 6F 41 80 7C 00 D8 92  ......0d0oA.|...
11D0: 08 01 66 36 80 D8 92 08  01 D8 92 08 01 74 77 62  ..f6.........twb
11E0: 31 2B D8 92 08 01 B8 80  1C 8B 80 23 52 52 80 F0  1+.........#RR..
11F0: FF FF 7F F0 FF FF 7F 30  64 30 6F 45 52 80 F0 FF  .......0d0oER...
1200: FF 7F F0 FF FF 7F 30 64  30 70 41 80 5B B6 80 D6  ......0d0pA.[...
1210: 92 08 01 D6 92 08 01 6D  65 69 31 7C 01 D8 92 08  .......mei1|....
1220: 01 2B D8 92 08 01 B9 80  1C 83 80 23 52 52 80 F0  .+.........#RR..
1230: FF FF 7F F0 FF FF 7F 30  64 30 70 45 52 80 F0 FF  .......0d0pER...
1240: FF 7F F0 FF FF 7F 30 64  31 39 41 80 27 10 F0 FF  ......0d19A.'...
1250: FF 7F 2B 5B AB 80 D6 92  08 01 D6 92 08 01 74 68  ..+[..........th
1260: 61 30 2B D6 92 08 01 BA  80 1C 51 80 27 10 D8 92  a0+.......Q.'...
1270: 08 01 0F 23 2B D6 92 08  01 BB 80 27 10 E7 92 08  ...#+......'....
1280: 01 0A 52 52 80 F0 FF FF  7F F0 FF FF 7F 30 64 31  ..RR.........0d1
1290: 39 02 02 10 5C 80 80 AD  12 45 52 80 F0 FF FF 7F  9...\....ER.....
12A0: F0 FF FF 7F 64 6D 64 31  41 80 01 71 13 02 02 10  ....dmd1A..q....
12B0: 5D 80 80 C9 12 45 52 80  F0 FF FF 7F F0 FF FF 7F  ]....ER.........
12C0: 64 6D 64 31 41 80 01 71  13 02 02 10 5E 80 80 E5  dmd1A..q....^...
12D0: 12 45 52 80 F0 FF FF 7F  F0 FF FF 7F 64 68 69 31  .ER.........dhi1
12E0: 41 80 01 71 13 02 02 10  5F 80 80 01 13 45 52 80  A..q...._....ER.
12F0: F0 FF FF 7F F0 FF FF 7F  64 68 69 31 41 80 01 71  ........dhi1A..q
1300: 13 02 02 10 60 80 80 1D  13 45 52 80 F0 FF FF 7F  ....`....ER.....
1310: F0 FF FF 7F 64 73 68 31  41 80 01 71 13 02 02 10  ....dsh1A..q....
1320: 61 80 80 39 13 45 52 80  F0 FF FF 7F F0 FF FF 7F  a..9.ER.........
1330: 64 73 68 31 41 80 01 71  13 02 02 10 62 80 80 55  dsh1A..q....b..U
1340: 13 45 52 80 F0 FF FF 7F  F0 FF FF 7F 64 6D 64 31  .ER.........dmd1
1350: 41 80 01 71 13 02 02 10  63 80 80 71 13 45 52 80  A..q....c..q.ER.
1360: F0 FF FF 7F F0 FF FF 7F  64 68 69 31 41 80 01 71  ........dhi1A..q
1370: 13 5B AB 80 D6 92 08 01  D6 92 08 01 74 68 61 31  .[..........tha1
1380: 1C 9B 80 79 00 D6 92 08  01 F0 FF FF 7F 27 10 D6  ...y.........'..
1390: 92 08 01 0C 4A F0 FF FF  7F D6 92 08 01 2A 10 D6  ....J........*..
13A0: 92 08 01 23 2B D6 92 08  01 BC 80 23 52 52 80 F0  ...#+......#RR..
13B0: FF FF 7F F0 FF FF 7F 64  68 69 31 52 52 80 F0 FF  .......dhi1RR...
13C0: FF 7F F0 FF FF 7F 64 6D  64 31 52 52 80 F0 FF FF  ......dmd1RR....
13D0: 7F F0 FF FF 7F 64 73 68  31 45 52 80 F0 FF FF 7F  .....dsh1ER.....
13E0: F0 FF FF 7F 30 64 30 72  41 80 7A 00 D8 92 08 01  ....0d0rA.z.....
13F0: BA D8 92 08 01 BD 80 BE  80 BF 80 70 80 6B 69 64  ...........p.kid
1400: 6C 30 E8 92 08 01 2C D6  92 08 01 D6 92 08 01 77  l0....,........w
1410: 33 6F 6E 2B D6 92 08 01  C0 80 23 52 52 80 F0 FF  3on+......#RR...
1420: FF 7F F0 FF FF 7F 30 64  30 72 45 52 80 F0 FF FF  ......0d0rER....
1430: 7F F0 FF FF 7F 30 64 31  67 41 80 2B D6 92 08 01  .....0d1gA.+....
1440: C1 80 23 52 52 80 F0 FF  FF 7F F0 FF FF 7F 30 64  ..#RR.........0d
1450: 31 67 45 52 80 F0 FF FF  7F F0 FF FF 7F 30 64 31  1gER.........0d1
1460: 64 41 80 1C 51 80 7B D6  92 08 01 BA E8 92 08 01  dA..Q.{.........
1470: C2 80 C3 80 C4 80 C5 80  4A E8 92 08 01 D8 92 08  ........J.......
1480: 01 5B C6 80 D6 92 08 01  D6 92 08 01 66 75 65 30  .[..........fue0
1490: 1C 83 80 52 52 80 F0 FF  FF 7F F0 FF FF 7F 30 64  ...RR.........0d
14A0: 31 64 45 52 80 F0 FF FF  7F F0 FF FF 7F 30 64 31  1dER.........0d1
14B0: 63 41 80 2B D6 92 08 01  C7 80 1C 5A 80 23 52 52  cA.+.......Z.#RR
14C0: 80 F0 FF FF 7F F0 FF FF  7F 30 64 31 63 45 52 80  .........0d1cER.
14D0: F0 FF FF 7F F0 FF FF 7F  30 64 30 73 41 80 BA E5  ........0d0sA...
14E0: 92 08 01 C8 80 C9 80 CA  80 70 80 BA E6 92 08 01  .........p......
14F0: CB 80 CC 80 CD 80 70 80  6B 69 64 6C 30 E5 92 08  ......p.kidl0...
1500: 01 6B 69 64 6C 30 E6 92  08 01 4A E5 92 08 01 D8  .kidl0....J.....
1510: 92 08 01 4A E6 92 08 01  D8 92 08 01 2B D6 92 08  ...J........+...
1520: 01 CE 80 1C 9B 80 23 52  52 80 F0 FF FF 7F F0 FF  ......#RR.......
1530: FF 7F 30 64 30 73 45 52  80 F0 FF FF 7F F0 FF FF  ..0d0sER........
1540: 7F 30 64 30 74 41 80 C5  4F 80 14 93 08 01 14 93  .0d0tA..O.......
1550: 08 01 73 74 30 31 41 80  6E D8 92 08 01 A5 80 99  ..st01A.n.......
1560: D8 92 08 01 6B 69 64 6C  30 D6 92 08 01 2C D6 92  ....kidl0....,..
1570: 08 01 D6 92 08 01 77 33  6F 66 2B D6 92 08 01 CF  ......w3of+.....
1580: 80 1C 83 80 6E E5 92 08  01 5D 80 99 E5 92 08 01  ....n....]......
1590: 6E E6 92 08 01 5D 80 99  E6 92 08 01 6E E8 92 08  n....]......n...
15A0: 01 5D 80 99 E8 92 08 01  1C 5A 80 23 52 52 80 F0  .].......Z.#RR..
15B0: FF FF 7F F0 FF FF 7F 30  64 30 74 45 52 80 F0 FF  .......0d0tER...
15C0: FF 7F F0 FF FF 7F 30 64  30 75 41 80 5D 41 80 83  ......0d0uA.]A..
15D0: 80 2B D6 92 08 01 D0 80  23 1A 39 67 7A 00 E7 92  .+......#.9gz...
15E0: 08 01 BA E3 92 08 01 D1  80 D2 80 D3 80 D4 80 BA  ................
15F0: F8 92 08 01 D5 80 D6 80  D7 80 D8 80 59 05 F8 92  ............Y...
1600: 08 01 00 59 05 E3 92 08  01 00 59 05 0C 93 08 01  ...Y......Y.....
1610: 00 1C 51 80 52 52 80 F0  FF FF 7F F0 FF FF 7F 30  ..Q.RR.........0
1620: 64 30 75 1C 51 80 AB 11  41 80 1C 5C 80 46 00 45  d0u.Q...A..\.F.E
1630: D9 80 F0 FF FF 7F F0 FF  FF 7F 66 64 69 32 41 80  ..........fdi2A.
1640: 21 00                                             !.              
```

#### Opcodes

```
  0: 0x0001 [0x42] SET_CLI_EVENT_CANCEL_DATA()
  1: 0x0002 [0x1A] CALL_SUBROUTINE(address=0x6739)
  2: 0x0005 [0x46] CAMERA_CONTROL: Disable user control
  3: 0x0007 [0x38] SET_CLIENT_EVENT_MODE(mode=19*)
  4: 0x000A [0x5C] MUSIC_CONTROL: Set Idle (Day) music to song 42*
  5: 0x000E [0x5C] MUSIC_CONTROL: Set Idle (Night) music to song 42*
  6: 0x0012 [0x5C] MUSIC_CONTROL: Set Combat (Solo) music to song 42*
  7: 0x0016 [0x5C] MUSIC_CONTROL: Set Combat (Party) music to song 42*
  8: 0x001A [0x9A] WAIT_MUSIC_SERVER()
  9: 0x001B [0x4E] SET_ENTITY_HIDE_FLAG: Show LocalPlayer
 10: 0x0021 [0x2F] Excenmille (ID: 17339094/0x010892D6)->Render.Flags0 &= ~0x80000 // Bit 19
 11: 0x0027 [0x2F] Alphonimile (ID: 17339107/0x010892E3)->Render.Flags0 &= ~0x80000 // Bit 19
 12: 0x002D [0x2F] Jayramus (ID: 17339096/0x010892D8)->Render.Flags0 &= ~0x80000 // Bit 19
 13: 0x0033 [0x2F] Leuonard (ID: 17339109/0x010892E5)->Render.Flags0 &= ~0x80000 // Bit 19
 14: 0x0039 [0x2F] kisiB (ID: 17339110/0x010892E6)->Render.Flags0 &= ~0x80000 // Bit 19
 15: 0x003F [0x2F] kisiC (ID: 17339111/0x010892E7)->Render.Flags0 &= ~0x80000 // Bit 19
 16: 0x0045 [0x2F] kisiD (ID: 17339112/0x010892E8)->Render.Flags0 &= ~0x80000 // Bit 19
 17: 0x004B [0x2F] kisiE (ID: 17339113/0x010892E9)->Render.Flags0 &= ~0x80000 // Bit 19
 18: 0x0051 [0x2F] Unknown NPC (ID: 17339127/0x010892F7)->Render.Flags0 &= ~0x80000 // Bit 19
 19: 0x0057 [0x2F] Unknown NPC (ID: 17339128/0x010892F8)->Render.Flags0 &= ~0x80000 // Bit 19
 20: 0x005D [0x2F] Unknown NPC (ID: 17339129/0x010892F9)->Render.Flags0 &= ~0x80000 // Bit 19
 21: 0x0063 [0x2F] Unknown NPC (ID: 17339130/0x010892FA)->Render.Flags0 &= ~0x80000 // Bit 19
 22: 0x0069 [0x4E] SET_ENTITY_HIDE_FLAG: Show Excenmille (ID: 17339094/0x010892D6)
 23: 0x006F [0x4E] SET_ENTITY_HIDE_FLAG: Show Alphonimile (ID: 17339107/0x010892E3)
 24: 0x0075 [0x4E] SET_ENTITY_HIDE_FLAG: Show Jayramus (ID: 17339096/0x010892D8)
 25: 0x007B [0x4E] SET_ENTITY_HIDE_FLAG: Show Leuonard (ID: 17339109/0x010892E5)
 26: 0x0081 [0x4E] SET_ENTITY_HIDE_FLAG: Show kisiB (ID: 17339110/0x010892E6)
 27: 0x0087 [0x4E] SET_ENTITY_HIDE_FLAG: Show kisiC (ID: 17339111/0x010892E7)
 28: 0x008D [0x4E] SET_ENTITY_HIDE_FLAG: Show kisiD (ID: 17339112/0x010892E8)
 29: 0x0093 [0x4E] SET_ENTITY_HIDE_FLAG: Show kisiE (ID: 17339113/0x010892E9)
 30: 0x0099 [0x4E] SET_ENTITY_HIDE_FLAG: Show Unknown NPC (ID: 17339127/0x010892F7)
 31: 0x009F [0x4E] SET_ENTITY_HIDE_FLAG: Show Unknown NPC (ID: 17339128/0x010892F8)
 32: 0x00A5 [0x4E] SET_ENTITY_HIDE_FLAG: Show Unknown NPC (ID: 17339129/0x010892F9)
 33: 0x00AB [0x4E] SET_ENTITY_HIDE_FLAG: Show Unknown NPC (ID: 17339130/0x010892FA)
 34: 0x00B1 [0x4E] SET_ENTITY_HIDE_FLAG: Show ??? (ID: 17339147/0x0108930B)
 35: 0x00B7 [0x4E] SET_ENTITY_HIDE_FLAG: Show 02 (ID: 17339148/0x0108930C)
 36: 0x00BD [0x4E] SET_ENTITY_HIDE_FLAG: Show 03 (ID: 17339149/0x0108930D)
 37: 0x00C3 [0x4E] SET_ENTITY_HIDE_FLAG: Show 04 (ID: 17339150/0x0108930E)
 38: 0x00C9 [0x4E] SET_ENTITY_HIDE_FLAG: Show 05 (ID: 17339151/0x0108930F)
 39: 0x00CF [0x4E] SET_ENTITY_HIDE_FLAG: Show 06 (ID: 17339152/0x01089310)
 40: 0x00D5 [0x4E] SET_ENTITY_HIDE_FLAG: Show 07 (ID: 17339153/0x01089311)
 41: 0x00DB [0x4E] SET_ENTITY_HIDE_FLAG: Show 08 (ID: 17339154/0x01089312)
 42: 0x00E1 [0x4E] SET_ENTITY_HIDE_FLAG: Show 09 (ID: 17339155/0x01089313)
 43: 0x00E7 [0x4E] SET_ENTITY_HIDE_FLAG: Show 10 (ID: 17339156/0x01089314)
 44: 0x00ED [0x92] Excenmille (ID: 17339094/0x010892D6)->Render.Flags3 ^= 0x01
 45: 0x00F3 [0x92] Alphonimile (ID: 17339107/0x010892E3)->Render.Flags3 ^= 0x01
 46: 0x00F9 [0x92] Jayramus (ID: 17339096/0x010892D8)->Render.Flags3 ^= 0x01
 47: 0x00FF [0x92] Leuonard (ID: 17339109/0x010892E5)->Render.Flags3 ^= 0x01
 48: 0x0105 [0x92] kisiB (ID: 17339110/0x010892E6)->Render.Flags3 ^= 0x01
 49: 0x010B [0x92] kisiC (ID: 17339111/0x010892E7)->Render.Flags3 ^= 0x01
 50: 0x0111 [0x92] kisiD (ID: 17339112/0x010892E8)->Render.Flags3 ^= 0x01
 51: 0x0117 [0x92] kisiE (ID: 17339113/0x010892E9)->Render.Flags3 ^= 0x01
 52: 0x011D [0x92] Unknown NPC (ID: 17339127/0x010892F7)->Render.Flags3 ^= 0x01
 53: 0x0123 [0x92] Unknown NPC (ID: 17339128/0x010892F8)->Render.Flags3 ^= 0x01
 54: 0x0129 [0x92] Unknown NPC (ID: 17339129/0x010892F9)->Render.Flags3 ^= 0x01
 55: 0x012F [0x92] Unknown NPC (ID: 17339130/0x010892FA)->Render.Flags3 ^= 0x01
 56: 0x0135 [0x92] ??? (ID: 17339147/0x0108930B)->Render.Flags3 ^= 0x01
 57: 0x013B [0x92] 02 (ID: 17339148/0x0108930C)->Render.Flags3 ^= 0x01
 58: 0x0141 [0x92] 03 (ID: 17339149/0x0108930D)->Render.Flags3 ^= 0x01
 59: 0x0147 [0x92] 04 (ID: 17339150/0x0108930E)->Render.Flags3 ^= 0x01
 60: 0x014D [0x92] 05 (ID: 17339151/0x0108930F)->Render.Flags3 ^= 0x01
 61: 0x0153 [0x92] 06 (ID: 17339152/0x01089310)->Render.Flags3 ^= 0x01
 62: 0x0159 [0x92] 07 (ID: 17339153/0x01089311)->Render.Flags3 ^= 0x01
 63: 0x015F [0x92] 08 (ID: 17339154/0x01089312)->Render.Flags3 ^= 0x01
 64: 0x0165 [0x92] 09 (ID: 17339155/0x01089313)->Render.Flags3 ^= 0x01
 65: 0x016B [0x92] 10 (ID: 17339156/0x01089314)->Render.Flags3 ^= 0x01
 66: 0x0171 [0x94] LocalPlayer->Render.Flags3 ^= 0x01
 67: 0x0177 [0x94] Excenmille (ID: 17339094/0x010892D6)->Render.Flags3 ^= 0x01
 68: 0x017D [0x94] Alphonimile (ID: 17339107/0x010892E3)->Render.Flags3 ^= 0x01
 69: 0x0183 [0x94] Jayramus (ID: 17339096/0x010892D8)->Render.Flags3 ^= 0x01
 70: 0x0189 [0x94] Leuonard (ID: 17339109/0x010892E5)->Render.Flags3 ^= 0x01
 71: 0x018F [0x94] kisiB (ID: 17339110/0x010892E6)->Render.Flags3 ^= 0x01
 72: 0x0195 [0x94] kisiC (ID: 17339111/0x010892E7)->Render.Flags3 ^= 0x01
 73: 0x019B [0x94] kisiD (ID: 17339112/0x010892E8)->Render.Flags3 ^= 0x01
 74: 0x01A1 [0x94] kisiE (ID: 17339113/0x010892E9)->Render.Flags3 ^= 0x01
 75: 0x01A7 [0x94] Unknown NPC (ID: 17339127/0x010892F7)->Render.Flags3 ^= 0x01
 76: 0x01AD [0x94] Unknown NPC (ID: 17339128/0x010892F8)->Render.Flags3 ^= 0x01
 77: 0x01B3 [0x94] Unknown NPC (ID: 17339129/0x010892F9)->Render.Flags3 ^= 0x01
 78: 0x01B9 [0x94] Unknown NPC (ID: 17339130/0x010892FA)->Render.Flags3 ^= 0x01
 79: 0x01BF [0x94] ??? (ID: 17339147/0x0108930B)->Render.Flags3 ^= 0x01
 80: 0x01C5 [0x94] 02 (ID: 17339148/0x0108930C)->Render.Flags3 ^= 0x01
 81: 0x01CB [0x94] 03 (ID: 17339149/0x0108930D)->Render.Flags3 ^= 0x01
 82: 0x01D1 [0x94] 04 (ID: 17339150/0x0108930E)->Render.Flags3 ^= 0x01
 83: 0x01D7 [0x94] 05 (ID: 17339151/0x0108930F)->Render.Flags3 ^= 0x01
 84: 0x01DD [0x94] 06 (ID: 17339152/0x01089310)->Render.Flags3 ^= 0x01
 85: 0x01E3 [0x94] 07 (ID: 17339153/0x01089311)->Render.Flags3 ^= 0x01
 86: 0x01E9 [0x94] 08 (ID: 17339154/0x01089312)->Render.Flags3 ^= 0x01
 87: 0x01EF [0x94] 09 (ID: 17339155/0x01089313)->Render.Flags3 ^= 0x01
 88: 0x01F5 [0x94] 10 (ID: 17339156/0x01089314)->Render.Flags3 ^= 0x01
 89: 0x01FB [0x59] UPDATE_ENTITY_DATA: Excenmille (ID: 17339094/0x010892D6)->Render.Flags0 |= 0x200000
 90: 0x0202 [0x59] UPDATE_ENTITY_DATA: Alphonimile (ID: 17339107/0x010892E3)->Render.Flags0 |= 0x200000
 91: 0x0209 [0x59] UPDATE_ENTITY_DATA: Unknown NPC (ID: 17339128/0x010892F8)->Render.Flags0 |= 0x200000
 92: 0x0210 [0x59] UPDATE_ENTITY_DATA: 02 (ID: 17339148/0x0108930C)->Render.Flags0 |= 0x200000
 93: 0x0217 [0xBA] SET_ENTITY_POSITION(entity_id=LocalPlayer, pos_x=570.776*, pos_z=-270.727*, pos_y=-0.157*, direction=225.2*)
 94: 0x0224 [0xBA] SET_ENTITY_POSITION(entity_id=Excenmille (ID: 17339094/0x010892D6), pos_x=526.291*, pos_z=-285.100*, pos_y=0.057*, direction=70.2*)
 95: 0x0231 [0xBA] SET_ENTITY_POSITION(entity_id=Alphonimile (ID: 17339107/0x010892E3), pos_x=526.291*, pos_z=-285.100*, pos_y=-0.020*, direction=70.2*)
 96: 0x023E [0xBA] SET_ENTITY_POSITION(entity_id=Jayramus (ID: 17339096/0x010892D8), pos_x=565.692*, pos_z=-272.282*, pos_y=-0.102*, direction=114.3*)
 97: 0x024B [0xBA] SET_ENTITY_POSITION(entity_id=Leuonard (ID: 17339109/0x010892E5), pos_x=533.918*, pos_z=-276.141*, pos_y=0.583*, direction=142.1*)
 98: 0x0258 [0xBA] SET_ENTITY_POSITION(entity_id=kisiB (ID: 17339110/0x010892E6), pos_x=531.639*, pos_z=-273.114*, pos_y=0.379*, direction=97.7*)
 99: 0x0265 [0xBA] SET_ENTITY_POSITION(entity_id=kisiC (ID: 17339111/0x010892E7), pos_x=527.321*, pos_z=-270.580*, pos_y=0.190*, direction=147.0*)
100: 0x0272 [0xBA] SET_ENTITY_POSITION(entity_id=kisiD (ID: 17339112/0x010892E8), pos_x=530.268*, pos_z=-261.954*, pos_y=0.386*, direction=191.4*)
101: 0x027F [0xBA] SET_ENTITY_POSITION(entity_id=kisiE (ID: 17339113/0x010892E9), pos_x=527.777*, pos_z=-257.699*, pos_y=0.389*, direction=64.9*)
102: 0x028C [0xBA] SET_ENTITY_POSITION(entity_id=Unknown NPC (ID: 17339127/0x010892F7), pos_x=538.812*, pos_z=-259.971*, pos_y=-0.873*, direction=141.0*)
103: 0x0299 [0xBA] SET_ENTITY_POSITION(entity_id=Unknown NPC (ID: 17339128/0x010892F8), pos_x=522.957*, pos_z=-284.884*, pos_y=-0.045*, direction=316.4*)
104: 0x02A6 [0xBA] SET_ENTITY_POSITION(entity_id=Unknown NPC (ID: 17339129/0x010892F9), pos_x=536.138*, pos_z=-256.913*, pos_y=-0.986*, direction=141.0*)
105: 0x02B3 [0xBA] SET_ENTITY_POSITION(entity_id=Unknown NPC (ID: 17339130/0x010892FA), pos_x=537.352*, pos_z=-258.383*, pos_y=-0.932*, direction=141.0*)
106: 0x02C0 [0xBA] SET_ENTITY_POSITION(entity_id=??? (ID: 17339147/0x0108930B), pos_x=563.878*, pos_z=-272.286*, pos_y=-0.172*, direction=225.2*)
107: 0x02CD [0xBA] SET_ENTITY_POSITION(entity_id=02 (ID: 17339148/0x0108930C), pos_x=527.026*, pos_z=-285.989*, pos_y=0.029*, direction=334.0*)
108: 0x02DA [0xBA] SET_ENTITY_POSITION(entity_id=03 (ID: 17339149/0x0108930D), pos_x=525.691*, pos_z=-287.985*, pos_y=-0.137*, direction=225.2*)
109: 0x02E7 [0xBA] SET_ENTITY_POSITION(entity_id=04 (ID: 17339150/0x0108930E), pos_x=524.130*, pos_z=-285.944*, pos_y=-0.097*, direction=225.2*)
110: 0x02F4 [0xBA] SET_ENTITY_POSITION(entity_id=05 (ID: 17339151/0x0108930F), pos_x=529.816*, pos_z=-259.475*, pos_y=0.368*, direction=0.0*)
111: 0x0301 [0xBA] SET_ENTITY_POSITION(entity_id=06 (ID: 17339152/0x01089310), pos_x=532.350*, pos_z=-263.110*, pos_y=0.201*, direction=225.2*)
112: 0x030E [0xBA] SET_ENTITY_POSITION(entity_id=07 (ID: 17339153/0x01089311), pos_x=534.620*, pos_z=-256.198*, pos_y=-1.002*, direction=225.2*)
113: 0x031B [0xBA] SET_ENTITY_POSITION(entity_id=08 (ID: 17339154/0x01089312), pos_x=563.878*, pos_z=-272.286*, pos_y=-0.192*, direction=225.2*)
114: 0x0328 [0xBA] SET_ENTITY_POSITION(entity_id=09 (ID: 17339155/0x01089313), pos_x=525.691*, pos_z=-287.985*, pos_y=-0.137*, direction=225.2*)
115: 0x0335 [0xBA] SET_ENTITY_POSITION(entity_id=10 (ID: 17339156/0x01089314), pos_x=529.816*, pos_z=-259.475*, pos_y=0.368*, direction=0.0*)
116: 0x0342 [0x80] LOAD_WAIT(entity=LocalPlayer)
117: 0x0347 [0x80] LOAD_WAIT(entity=Excenmille (ID: 17339094/0x010892D6))
118: 0x034C [0x80] LOAD_WAIT(entity=Alphonimile (ID: 17339107/0x010892E3))
119: 0x0351 [0x80] LOAD_WAIT(entity=Jayramus (ID: 17339096/0x010892D8))
120: 0x0356 [0x80] LOAD_WAIT(entity=Leuonard (ID: 17339109/0x010892E5))
121: 0x035B [0x80] LOAD_WAIT(entity=kisiB (ID: 17339110/0x010892E6))
122: 0x0360 [0x80] LOAD_WAIT(entity=kisiC (ID: 17339111/0x010892E7))
123: 0x0365 [0x80] LOAD_WAIT(entity=kisiD (ID: 17339112/0x010892E8))
124: 0x036A [0x80] LOAD_WAIT(entity=kisiE (ID: 17339113/0x010892E9))
125: 0x036F [0x80] LOAD_WAIT(entity=Unknown NPC (ID: 17339127/0x010892F7))
126: 0x0374 [0x80] LOAD_WAIT(entity=Unknown NPC (ID: 17339128/0x010892F8))
127: 0x0379 [0x80] LOAD_WAIT(entity=Unknown NPC (ID: 17339129/0x010892F9))
128: 0x037E [0x80] LOAD_WAIT(entity=Unknown NPC (ID: 17339130/0x010892FA))
129: 0x0383 [0x80] LOAD_WAIT(entity=??? (ID: 17339147/0x0108930B))
130: 0x0388 [0x80] LOAD_WAIT(entity=02 (ID: 17339148/0x0108930C))
131: 0x038D [0x80] LOAD_WAIT(entity=03 (ID: 17339149/0x0108930D))
132: 0x0392 [0x80] LOAD_WAIT(entity=04 (ID: 17339150/0x0108930E))
133: 0x0397 [0x80] LOAD_WAIT(entity=05 (ID: 17339151/0x0108930F))
134: 0x039C [0x80] LOAD_WAIT(entity=06 (ID: 17339152/0x01089310))
135: 0x03A1 [0x80] LOAD_WAIT(entity=07 (ID: 17339153/0x01089311))
136: 0x03A6 [0x80] LOAD_WAIT(entity=08 (ID: 17339154/0x01089312))
137: 0x03AB [0x80] LOAD_WAIT(entity=09 (ID: 17339155/0x01089313))
138: 0x03B0 [0x80] LOAD_WAIT(entity=10 (ID: 17339156/0x01089314))
139: 0x03B5 [0x1C] WAIT(15* ticks)
140: 0x03B8 [0x81] SET_ENTITY_BLINKING(blink_flag=0x00, entity=Alphonimile (ID: 17339107/0x010892E3))
141: 0x03BE [0x5B] LOAD_EXT_SCHEDULER: Load scheduler "oyj0" with entities [Excenmille (ID: 17339094/0x010892D6), Excenmille (ID: 17339094/0x010892D6)], work=2726*
142: 0x03CD [0x5B] LOAD_EXT_SCHEDULER: Load scheduler "oyj0" with entities [Alphonimile (ID: 17339107/0x010892E3), Alphonimile (ID: 17339107/0x010892E3)], work=2720*
143: 0x03DC [0x66] LOAD_EXT_SCHEDULER_MAIN: Load scheduler "fsl1" with entities [kisiE (ID: 17339113/0x010892E9), kisiE (ID: 17339113/0x010892E9)], work=99*
144: 0x03EB [0x66] LOAD_EXT_SCHEDULER_MAIN: Load scheduler "fsh0" with entities [kisiD (ID: 17339112/0x010892E8), kisiD (ID: 17339112/0x010892E8)], work=99*
145: 0x03FA [0xC5] LOAD_SCHEDULED_TASK_ALT3: Load scheduler 0x80413030 for entities [??? (ID: 17339147/0x0108930B), ??? (ID: 17339147/0x0108930B)], work=207*, param=12403
146: 0x040B [0xC5] LOAD_SCHEDULED_TASK_ALT3: Load scheduler 0x80413130 for entities [08 (ID: 17339154/0x01089312), 08 (ID: 17339154/0x01089312)], work=207*, param=12403
147: 0x041C [0xC5] LOAD_SCHEDULED_TASK_ALT3: Load scheduler 0x80413030 for entities [02 (ID: 17339148/0x0108930C), 02 (ID: 17339148/0x0108930C)], work=209*, param=12403
148: 0x042D [0xC5] LOAD_SCHEDULED_TASK_ALT3: Load scheduler 0x80413030 for entities [03 (ID: 17339149/0x0108930D), 03 (ID: 17339149/0x0108930D)], work=207*, param=12403
149: 0x043E [0xC5] LOAD_SCHEDULED_TASK_ALT3: Load scheduler 0x80413130 for entities [09 (ID: 17339155/0x01089313), 09 (ID: 17339155/0x01089313)], work=207*, param=12403
150: 0x044F [0xC5] LOAD_SCHEDULED_TASK_ALT3: Load scheduler 0x80413030 for entities [05 (ID: 17339151/0x0108930F), 05 (ID: 17339151/0x0108930F)], work=206*, param=12403
151: 0x0460 [0xC5] LOAD_SCHEDULED_TASK_ALT3: Load scheduler 0x80413130 for entities [10 (ID: 17339156/0x01089314), 10 (ID: 17339156/0x01089314)], work=206*, param=12403
152: 0x0471 [0xC5] LOAD_SCHEDULED_TASK_ALT3: Load scheduler 0x80413030 for entities [06 (ID: 17339152/0x01089310), 06 (ID: 17339152/0x01089310)], work=208*, param=12403
153: 0x0482 [0xC5] LOAD_SCHEDULED_TASK_ALT3: Load scheduler 0x80413130 for entities [07 (ID: 17339153/0x01089311), 07 (ID: 17339153/0x01089311)], work=208*, param=12403
154: 0x0493 [0x1C] WAIT(15* ticks)
155: 0x0496 [0x27] REQ_SET(priority=0x10, entity_id=LocalPlayer, tag_num=0x30)
156: 0x049D [0x1C] WAIT(30* ticks)
157: 0x04A0 [0x45] LOAD_SCHEDULED_TASK: Load scheduler "0d00" with entities [LocalPlayer, LocalPlayer], work=[503*, 0*]
158: 0x04B1 [0x1A] CALL_SUBROUTINE(address=0x6718)
159: 0x04B4 [0x4A] Jayramus (ID: 17339096/0x010892D8) looks at LocalPlayer
160: 0x04BD [0x2B] Jayramus (ID: 17339096/0x010892D8) [7710*]:
     "Halt! None shall pass!"
161: 0x04C4 [0x23] WAIT_FOR_DIALOG_INTERACTION
162: 0x04C5 [0x2A] GET_REQ_LEVEL(level=16, entity_id=LocalPlayer)
163: 0x04CB [0x2B] Jayramus (ID: 17339096/0x010892D8) [7711*]:
     "Oh, 'tis only you, <Player>. If you seek Excenmille, he cannot attend to guests at this time."
164: 0x04D2 [0x23] WAIT_FOR_DIALOG_INTERACTION
165: 0x04D3 [0x2B] Jayramus (ID: 17339096/0x010892D8) [7712*]:
     "The entire company has been plunged into the depths of shock."
166: 0x04DA [0x23] WAIT_FOR_DIALOG_INTERACTION
167: 0x04DB [0x52] END_LOAD_SCHEDULER: End scheduler "0d00" with entities [LocalPlayer, LocalPlayer], work=503*
168: 0x04EA [0x45] LOAD_SCHEDULED_TASK: Load scheduler "0d0x" with entities [LocalPlayer, LocalPlayer], work=[503*, 0*]
169: 0x04FB [0x2B] Jayramus (ID: 17339096/0x010892D8) [7713*]:
     "Count Aurchiat, you see, was felled from his mount by an arrow taken to the chest in an Orcish ambush."
170: 0x0502 [0x23] WAIT_FOR_DIALOG_INTERACTION
171: 0x0503 [0x52] END_LOAD_SCHEDULER: End scheduler "0d0x" with entities [LocalPlayer, LocalPlayer], work=503*
172: 0x0512 [0x45] LOAD_SCHEDULED_TASK: Load scheduler "0d0w" with entities [LocalPlayer, LocalPlayer], work=[503*, 0*]
173: 0x0523 [0x2B] Jayramus (ID: 17339096/0x010892D8) [7714*]:
     "To further compound matters, the arrowhead was dipped in a poison most vile. I fear he will not live to see another dawn."
174: 0x052A [0x23] WAIT_FOR_DIALOG_INTERACTION
175: 0x052B [0x52] END_LOAD_SCHEDULER: End scheduler "0d0w" with entities [LocalPlayer, LocalPlayer], work=503*
176: 0x053A [0x45] LOAD_SCHEDULED_TASK: Load scheduler "0d0v" with entities [LocalPlayer, LocalPlayer], work=[503*, 0*]
177: 0x054B [0x6E] Jayramus (ID: 17339096/0x010892D8) uses emote 33*
178: 0x0552 [0x99] Wait for Jayramus (ID: 17339096/0x010892D8) animation to complete
179: 0x0557 [0x2B] Jayramus (ID: 17339096/0x010892D8) [7715*]:
     "Confound it! Had only I detected the Bloodwing Horde scouts but a second sooner, 'twould not have come to this!"
180: 0x055E [0x1C] WAIT(180* ticks)
181: 0x0561 [0x23] WAIT_FOR_DIALOG_INTERACTION
182: 0x0562 [0x52] END_LOAD_SCHEDULER: End scheduler "0d0v" with entities [LocalPlayer, LocalPlayer], work=503*
183: 0x0571 [0x45] LOAD_SCHEDULED_TASK: Load scheduler "0d01" with entities [LocalPlayer, LocalPlayer], work=[503*, 0*]
184: 0x0582 [0x4A] LocalPlayer looks at Excenmille (ID: 17339094/0x010892D6)
185: 0x058B [0x1C] WAIT(240* ticks)
186: 0x058E [0x52] END_LOAD_SCHEDULER: End scheduler "0d01" with entities [LocalPlayer, LocalPlayer], work=503*
187: 0x059D [0x29] REQ_SET_WAIT(priority=0x10, entity_id=LocalPlayer, tag_num=0x04)
188: 0x05A4 [0x02] IF !(Work_Zone[2] == 1*) GOTO 0x05C0
189: 0x05AC [0x45] LOAD_SCHEDULED_TASK: Load scheduler "dhm0" with entities [LocalPlayer, LocalPlayer], work=[503*, 0*]
190: 0x05BD [0x01] GOTO 0x0684
191: 0x05C0 [0x02] IF !(Work_Zone[2] == 2*) GOTO 0x05DC
192: 0x05C8 [0x45] LOAD_SCHEDULED_TASK: Load scheduler "dhf0" with entities [LocalPlayer, LocalPlayer], work=[503*, 0*]
193: 0x05D9 [0x01] GOTO 0x0684
194: 0x05DC [0x02] IF !(Work_Zone[2] == 3*) GOTO 0x05F8
195: 0x05E4 [0x45] LOAD_SCHEDULED_TASK: Load scheduler "dem0" with entities [LocalPlayer, LocalPlayer], work=[503*, 0*]
196: 0x05F5 [0x01] GOTO 0x0684
197: 0x05F8 [0x02] IF !(Work_Zone[2] == 4*) GOTO 0x0614
198: 0x0600 [0x45] LOAD_SCHEDULED_TASK: Load scheduler "def0" with entities [LocalPlayer, LocalPlayer], work=[503*, 0*]
199: 0x0611 [0x01] GOTO 0x0684
200: 0x0614 [0x02] IF !(Work_Zone[2] == 5*) GOTO 0x0630
201: 0x061C [0x45] LOAD_SCHEDULED_TASK: Load scheduler "dtr0" with entities [LocalPlayer, LocalPlayer], work=[503*, 0*]
202: 0x062D [0x01] GOTO 0x0684
203: 0x0630 [0x02] IF !(Work_Zone[2] == 6*) GOTO 0x064C
204: 0x0638 [0x45] LOAD_SCHEDULED_TASK: Load scheduler "dtr0" with entities [LocalPlayer, LocalPlayer], work=[503*, 0*]
205: 0x0649 [0x01] GOTO 0x0684
206: 0x064C [0x02] IF !(Work_Zone[2] == 7*) GOTO 0x0668
207: 0x0654 [0x45] LOAD_SCHEDULED_TASK: Load scheduler "dmt0" with entities [LocalPlayer, LocalPlayer], work=[503*, 0*]
208: 0x0665 [0x01] GOTO 0x0684
209: 0x0668 [0x02] IF !(Work_Zone[2] == 8*) GOTO 0x0684
210: 0x0670 [0x45] LOAD_SCHEDULED_TASK: Load scheduler "dgl0" with entities [LocalPlayer, LocalPlayer], work=[503*, 0*]
211: 0x0681 [0x01] GOTO 0x0684

SUBROUTINE_0684:
212: 0x0684 [0x1C] WAIT(180* ticks)
213: 0x0687 [0x27] REQ_SET(priority=0x10, entity_id=LocalPlayer, tag_num=0x31)
214: 0x068E [0x1C] WAIT(30* ticks)
215: 0x0691 [0x52] END_LOAD_SCHEDULER: End scheduler "dhm0" with entities [LocalPlayer, LocalPlayer], work=503*
216: 0x06A0 [0x52] END_LOAD_SCHEDULER: End scheduler "dhf0" with entities [LocalPlayer, LocalPlayer], work=503*
217: 0x06AF [0x52] END_LOAD_SCHEDULER: End scheduler "dem0" with entities [LocalPlayer, LocalPlayer], work=503*
218: 0x06BE [0x52] END_LOAD_SCHEDULER: End scheduler "def0" with entities [LocalPlayer, LocalPlayer], work=503*
219: 0x06CD [0x52] END_LOAD_SCHEDULER: End scheduler "dtr0" with entities [LocalPlayer, LocalPlayer], work=503*
220: 0x06DC [0x52] END_LOAD_SCHEDULER: End scheduler "dmt0" with entities [LocalPlayer, LocalPlayer], work=503*
221: 0x06EB [0x52] END_LOAD_SCHEDULER: End scheduler "dgl0" with entities [LocalPlayer, LocalPlayer], work=503*
222: 0x06FA [0x02] IF !(Work_Zone[2] == 1*) GOTO 0x0716
223: 0x0702 [0x45] LOAD_SCHEDULED_TASK: Load scheduler "dmd0" with entities [LocalPlayer, LocalPlayer], work=[503*, 0*]
224: 0x0713 [0x01] GOTO 0x07DA
225: 0x0716 [0x02] IF !(Work_Zone[2] == 2*) GOTO 0x0732
226: 0x071E [0x45] LOAD_SCHEDULED_TASK: Load scheduler "dmd0" with entities [LocalPlayer, LocalPlayer], work=[503*, 0*]
227: 0x072F [0x01] GOTO 0x07DA
228: 0x0732 [0x02] IF !(Work_Zone[2] == 3*) GOTO 0x074E
229: 0x073A [0x45] LOAD_SCHEDULED_TASK: Load scheduler "dhi0" with entities [LocalPlayer, LocalPlayer], work=[503*, 0*]
230: 0x074B [0x01] GOTO 0x07DA
231: 0x074E [0x02] IF !(Work_Zone[2] == 4*) GOTO 0x076A
232: 0x0756 [0x45] LOAD_SCHEDULED_TASK: Load scheduler "dhi0" with entities [LocalPlayer, LocalPlayer], work=[503*, 0*]
233: 0x0767 [0x01] GOTO 0x07DA
234: 0x076A [0x02] IF !(Work_Zone[2] == 5*) GOTO 0x0786
235: 0x0772 [0x45] LOAD_SCHEDULED_TASK: Load scheduler "dsh0" with entities [LocalPlayer, LocalPlayer], work=[503*, 0*]
236: 0x0783 [0x01] GOTO 0x07DA
237: 0x0786 [0x02] IF !(Work_Zone[2] == 6*) GOTO 0x07A2
238: 0x078E [0x45] LOAD_SCHEDULED_TASK: Load scheduler "dsh0" with entities [LocalPlayer, LocalPlayer], work=[503*, 0*]
239: 0x079F [0x01] GOTO 0x07DA
240: 0x07A2 [0x02] IF !(Work_Zone[2] == 7*) GOTO 0x07BE
241: 0x07AA [0x45] LOAD_SCHEDULED_TASK: Load scheduler "dmd0" with entities [LocalPlayer, LocalPlayer], work=[503*, 0*]
242: 0x07BB [0x01] GOTO 0x07DA
243: 0x07BE [0x02] IF !(Work_Zone[2] == 8*) GOTO 0x07DA
244: 0x07C6 [0x45] LOAD_SCHEDULED_TASK: Load scheduler "dhi0" with entities [LocalPlayer, LocalPlayer], work=[503*, 0*]
245: 0x07D7 [0x01] GOTO 0x07DA

SUBROUTINE_07DA:
246: 0x07DA [0x4A] Jayramus (ID: 17339096/0x010892D8) looks at LocalPlayer
247: 0x07E3 [0x2B] Jayramus (ID: 17339096/0x010892D8) [7716*]:
     "Leave them, <Player>!"
248: 0x07EA [0x2A] GET_REQ_LEVEL(level=16, entity_id=LocalPlayer)
249: 0x07F0 [0x1C] WAIT(30* ticks)
250: 0x07F3 [0x23] WAIT_FOR_DIALOG_INTERACTION
251: 0x07F4 [0xC5] LOAD_SCHEDULED_TASK_ALT3: Load scheduler 0x80413230 for entities [04 (ID: 17339150/0x0108930E), 04 (ID: 17339150/0x0108930E)], work=208*, param=12403
252: 0x0805 [0x27] REQ_SET(priority=0x10, entity_id=Jayramus (ID: 17339096/0x010892D8), tag_num=0x0B)
253: 0x080C [0x2B] Jayramus (ID: 17339096/0x010892D8) [7717*]:
     "Deprive them not of their final moments together."
254: 0x0813 [0x23] WAIT_FOR_DIALOG_INTERACTION
255: 0x0814 [0x2A] GET_REQ_LEVEL(level=16, entity_id=Jayramus (ID: 17339096/0x010892D8))
256: 0x081A [0x52] END_LOAD_SCHEDULER: End scheduler "dhi0" with entities [LocalPlayer, LocalPlayer], work=503*
257: 0x0829 [0x52] END_LOAD_SCHEDULER: End scheduler "dmd0" with entities [LocalPlayer, LocalPlayer], work=503*
258: 0x0838 [0x52] END_LOAD_SCHEDULER: End scheduler "dsh0" with entities [LocalPlayer, LocalPlayer], work=503*
259: 0x0847 [0x45] LOAD_SCHEDULED_TASK: Load scheduler "0d02" with entities [LocalPlayer, LocalPlayer], work=[503*, 0*]
260: 0x0858 [0x4A] LocalPlayer looks at Excenmille (ID: 17339094/0x010892D6)
261: 0x0861 [0x1C] WAIT(180* ticks)
262: 0x0864 [0x1A] CALL_SUBROUTINE(address=0x6739)
263: 0x0867 [0x1C] WAIT(30* ticks)
264: 0x086A [0x52] END_LOAD_SCHEDULER: End scheduler "0d02" with entities [LocalPlayer, LocalPlayer], work=503*
265: 0x0879 [0x45] LOAD_SCHEDULED_TASK: Load scheduler "0d03" with entities [LocalPlayer, LocalPlayer], work=[503*, 0*]
266: 0x088A [0x1A] CALL_SUBROUTINE(address=0x6718)
267: 0x088D [0x2B] Alphonimile (ID: 17339107/0x010892E3) [7718*]:
     "Excenmille."
268: 0x0894 [0x23] WAIT_FOR_DIALOG_INTERACTION
269: 0x0895 [0x2B] Excenmille (ID: 17339094/0x010892D6) [7719*]:
     "Yes, Father."
270: 0x089C [0x23] WAIT_FOR_DIALOG_INTERACTION
271: 0x089D [0x52] END_LOAD_SCHEDULER: End scheduler "0d03" with entities [LocalPlayer, LocalPlayer], work=503*
272: 0x08AC [0x45] LOAD_SCHEDULED_TASK: Load scheduler "0d10" with entities [LocalPlayer, LocalPlayer], work=[503*, 0*]
273: 0x08BD [0x5B] LOAD_EXT_SCHEDULER: Load scheduler "oyj1" with entities [Alphonimile (ID: 17339107/0x010892E3), Alphonimile (ID: 17339107/0x010892E3)], work=2720*
274: 0x08CC [0x2B] Alphonimile (ID: 17339107/0x010892E3) [7720*]:
     "This...belongs to you now..."
275: 0x08D3 [0x1C] WAIT(510* ticks)
276: 0x08D6 [0xBA] SET_ENTITY_POSITION(entity_id=Excenmille (ID: 17339094/0x010892D6), pos_x=526.291*, pos_z=-285.100*, pos_y=0.000*, direction=70.2*)
277: 0x08E3 [0x23] WAIT_FOR_DIALOG_INTERACTION
278: 0x08E4 [0x52] END_LOAD_SCHEDULER: End scheduler "0d10" with entities [LocalPlayer, LocalPlayer], work=503*
279: 0x08F3 [0x45] LOAD_SCHEDULED_TASK: Load scheduler "0d11" with entities [LocalPlayer, LocalPlayer], work=[503*, 0*]
280: 0x0904 [0x5B] LOAD_EXT_SCHEDULER: Load scheduler "oyj1" with entities [Excenmille (ID: 17339094/0x010892D6), Excenmille (ID: 17339094/0x010892D6)], work=2726*
281: 0x0913 [0x5B] LOAD_EXT_SCHEDULER: Load scheduler "oyj2" with entities [Alphonimile (ID: 17339107/0x010892E3), Alphonimile (ID: 17339107/0x010892E3)], work=2720*
282: 0x0922 [0x1C] WAIT(180* ticks)
283: 0x0925 [0x52] END_LOAD_SCHEDULER: End scheduler "0d11" with entities [LocalPlayer, LocalPlayer], work=503*
284: 0x0934 [0x45] LOAD_SCHEDULED_TASK: Load scheduler "0d12" with entities [LocalPlayer, LocalPlayer], work=[503*, 0*]
285: 0x0945 [0x1C] WAIT(30* ticks)
286: 0x0948 [0x81] SET_ENTITY_BLINKING(blink_flag=0x00, entity=Excenmille (ID: 17339094/0x010892D6))
287: 0x094E [0x5B] LOAD_EXT_SCHEDULER: Load scheduler "oyj2" with entities [Excenmille (ID: 17339094/0x010892D6), Excenmille (ID: 17339094/0x010892D6)], work=2726*
288: 0x095D [0x1C] WAIT(120* ticks)
289: 0x0960 [0x52] END_LOAD_SCHEDULER: End scheduler "0d12" with entities [LocalPlayer, LocalPlayer], work=503*
290: 0x096F [0x45] LOAD_SCHEDULED_TASK: Load scheduler "0d13" with entities [LocalPlayer, LocalPlayer], work=[503*, 0*]
291: 0x0980 [0xC5] LOAD_SCHEDULED_TASK_ALT3: Load scheduler 0x80416E69 for entities [Excenmille (ID: 17339094/0x010892D6), Excenmille (ID: 17339094/0x010892D6)], work=205*, param=24941
292: 0x0991 [0x1C] WAIT(480* ticks)
293: 0x0994 [0x52] END_LOAD_SCHEDULER: End scheduler "0d13" with entities [LocalPlayer, LocalPlayer], work=503*
294: 0x09A3 [0x45] LOAD_SCHEDULED_TASK: Load scheduler "0d04" with entities [LocalPlayer, LocalPlayer], work=[503*, 0*]
295: 0x09B4 [0xC5] LOAD_SCHEDULED_TASK_ALT3: Load scheduler 0x8041616C for entities [Excenmille (ID: 17339094/0x010892D6), Excenmille (ID: 17339094/0x010892D6)], work=205*, param=26987
296: 0x09C5 [0xBA] SET_ENTITY_POSITION(entity_id=LocalPlayer, pos_x=534.615*, pos_z=-286.644*, pos_y=0.254*, direction=263.7*)
297: 0x09D2 [0xBA] SET_ENTITY_POSITION(entity_id=Jayramus (ID: 17339096/0x010892D8), pos_x=536.282*, pos_z=-285.497*, pos_y=0.487*, direction=163.9*)
298: 0x09DF [0x27] REQ_SET(priority=0x10, entity_id=LocalPlayer, tag_num=0x2A)
299: 0x09E6 [0x7B] Jayramus (ID: 17339096/0x010892D8) stops talking
300: 0x09EB [0x2B] Excenmille (ID: 17339094/0x010892D6) [7721*]:
     "F-Father!?"
301: 0x09F2 [0x23] WAIT_FOR_DIALOG_INTERACTION
302: 0x09F3 [0x7C] Excenmille (ID: 17339094/0x010892D6)->Render.Flags2 |= 0x00
303: 0x09F9 [0x2B] Excenmille (ID: 17339094/0x010892D6) [7722*]:
     "This ring is worn by none but the rightful head of House Aurchiat!"
304: 0x0A00 [0x5B] LOAD_EXT_SCHEDULER: Load scheduler "oyj3" with entities [Excenmille (ID: 17339094/0x010892D6), Excenmille (ID: 17339094/0x010892D6)], work=2726*
305: 0x0A0F [0x1C] WAIT(210* ticks)
306: 0x0A12 [0x23] WAIT_FOR_DIALOG_INTERACTION
307: 0x0A13 [0x52] END_LOAD_SCHEDULER: End scheduler "0d04" with entities [LocalPlayer, LocalPlayer], work=503*
308: 0x0A22 [0x45] LOAD_SCHEDULED_TASK: Load scheduler "0d05" with entities [LocalPlayer, LocalPlayer], work=[503*, 0*]
309: 0x0A33 [0x2B] Alphonimile (ID: 17339107/0x010892E3) [7723*]:
     "Jayramus!"
310: 0x0A3A [0x23] WAIT_FOR_DIALOG_INTERACTION
311: 0x0A3B [0x81] SET_ENTITY_BLINKING(blink_flag=0x01, entity=Excenmille (ID: 17339094/0x010892D6))
312: 0x0A41 [0x7C] Excenmille (ID: 17339094/0x010892D6)->Render.Flags2 |= 0x01
313: 0x0A47 [0x59] UPDATE_ENTITY_DATA: Excenmille (ID: 17339094/0x010892D6)->Render.Flags0 &= ~0x200000
314: 0x0A4E [0xBA] SET_ENTITY_POSITION(entity_id=Excenmille (ID: 17339094/0x010892D6), pos_x=526.291*, pos_z=-285.100*, pos_y=0.057*, direction=70.2*)
315: 0x0A5B [0xBA] SET_ENTITY_POSITION(entity_id=Leuonard (ID: 17339109/0x010892E5), pos_x=532.440*, pos_z=-281.449*, pos_y=0.438*, direction=163.9*)
316: 0x0A68 [0xBA] SET_ENTITY_POSITION(entity_id=kisiB (ID: 17339110/0x010892E6), pos_x=528.614*, pos_z=-279.316*, pos_y=0.228*, direction=163.9*)
317: 0x0A75 [0xBA] SET_ENTITY_POSITION(entity_id=kisiC (ID: 17339111/0x010892E7), pos_x=524.516*, pos_z=-279.957*, pos_y=0.024*, direction=163.9*)
318: 0x0A82 [0x4A] Leuonard (ID: 17339109/0x010892E5) looks at Alphonimile (ID: 17339107/0x010892E3)
319: 0x0A8B [0x4A] kisiB (ID: 17339110/0x010892E6) looks at Alphonimile (ID: 17339107/0x010892E3)
320: 0x0A94 [0x4A] kisiC (ID: 17339111/0x010892E7) looks at Alphonimile (ID: 17339107/0x010892E3)
321: 0x0A9D [0x52] END_LOAD_SCHEDULER: End scheduler "0d05" with entities [LocalPlayer, LocalPlayer], work=503*
322: 0x0AAC [0x45] LOAD_SCHEDULED_TASK: Load scheduler "0d09" with entities [LocalPlayer, LocalPlayer], work=[503*, 0*]
323: 0x0ABD [0x27] REQ_SET(priority=0x10, entity_id=Jayramus (ID: 17339096/0x010892D8), tag_num=0x0D)
324: 0x0AC4 [0x2B] Jayramus (ID: 17339096/0x010892D8) [7724*]:
     "At your command, my lord."
325: 0x0ACB [0x2A] GET_REQ_LEVEL(level=16, entity_id=Jayramus (ID: 17339096/0x010892D8))
326: 0x0AD1 [0x1C] WAIT(60* ticks)
327: 0x0AD4 [0x23] WAIT_FOR_DIALOG_INTERACTION
328: 0x0AD5 [0x52] END_LOAD_SCHEDULER: End scheduler "0d09" with entities [LocalPlayer, LocalPlayer], work=503*
329: 0x0AE4 [0x45] LOAD_SCHEDULED_TASK: Load scheduler "0d17" with entities [LocalPlayer, LocalPlayer], work=[503*, 0*]
330: 0x0AF5 [0x2B] Alphonimile (ID: 17339107/0x010892E3) [7725*]:
     "My eyes...they darken. I haven't much time. Hear now my last orders...as your captain."
331: 0x0AFC [0x23] WAIT_FOR_DIALOG_INTERACTION
332: 0x0AFD [0x52] END_LOAD_SCHEDULER: End scheduler "0d17" with entities [LocalPlayer, LocalPlayer], work=503*
333: 0x0B0C [0x45] LOAD_SCHEDULED_TASK: Load scheduler "0d1e" with entities [LocalPlayer, LocalPlayer], work=[503*, 0*]
334: 0x0B1D [0x7C] Jayramus (ID: 17339096/0x010892D8)->Render.Flags2 |= 0x00
335: 0x0B23 [0x2B] Jayramus (ID: 17339096/0x010892D8) [7726*]:
     "..."
336: 0x0B2A [0x23] WAIT_FOR_DIALOG_INTERACTION
337: 0x0B2B [0x52] END_LOAD_SCHEDULER: End scheduler "0d1e" with entities [LocalPlayer, LocalPlayer], work=503*
338: 0x0B3A [0x45] LOAD_SCHEDULED_TASK: Load scheduler "0d06" with entities [LocalPlayer, LocalPlayer], work=[503*, 0*]
339: 0x0B4B [0x7C] Jayramus (ID: 17339096/0x010892D8)->Render.Flags2 |= 0x01
340: 0x0B51 [0x2B] Alphonimile (ID: 17339107/0x010892E3) [7727*]:
     "I hereby relinquish command...of the Knights of the Cardinal Stag to you...my lieutenant."
341: 0x0B58 [0x23] WAIT_FOR_DIALOG_INTERACTION
342: 0x0B59 [0x23] WAIT_FOR_DIALOG_INTERACTION
343: 0x0B5A [0x5D] SET_MUSIC_VOLUME(volume=0*, fade_time=240*)
344: 0x0B5F [0x2B] Alphonimile (ID: 17339107/0x010892E3) [7728*]:
     "Waste not the knights' strength...on burial. Leave my body...to the beasts..."
345: 0x0B66 [0x23] WAIT_FOR_DIALOG_INTERACTION
346: 0x0B67 [0x5B] LOAD_EXT_SCHEDULER: Load scheduler "oyj3" with entities [Alphonimile (ID: 17339107/0x010892E3), Alphonimile (ID: 17339107/0x010892E3)], work=2720*
347: 0x0B76 [0x1C] WAIT(180* ticks)
348: 0x0B79 [0x52] END_LOAD_SCHEDULER: End scheduler "0d06" with entities [LocalPlayer, LocalPlayer], work=503*
349: 0x0B88 [0x45] LOAD_SCHEDULED_TASK: Load scheduler "0d1a" with entities [LocalPlayer, LocalPlayer], work=[503*, 0*]
350: 0x0B99 [0x1C] WAIT(420* ticks)
351: 0x0B9C [0x52] END_LOAD_SCHEDULER: End scheduler "0d1a" with entities [LocalPlayer, LocalPlayer], work=503*
352: 0x0BAB [0x45] LOAD_SCHEDULED_TASK: Load scheduler "0d07" with entities [LocalPlayer, LocalPlayer], work=[503*, 0*]
353: 0x0BBC [0x6E] Leuonard (ID: 17339109/0x010892E5) uses emote 21*
354: 0x0BC3 [0x99] Wait for Leuonard (ID: 17339109/0x010892E5) animation to complete
355: 0x0BC8 [0x5B] LOAD_EXT_SCHEDULER: Load scheduler "oyj4" with entities [Excenmille (ID: 17339094/0x010892D6), Excenmille (ID: 17339094/0x010892D6)], work=2726*
356: 0x0BD7 [0x2B] Excenmille (ID: 17339094/0x010892D6) [7729*]:
     "F-Father!"
357: 0x0BDE [0x1C] WAIT(150* ticks)
358: 0x0BE1 [0x23] WAIT_FOR_DIALOG_INTERACTION
359: 0x0BE2 [0x2B] Jayramus (ID: 17339096/0x010892D8) [7730*]:
     "Farewell, my lord. 'Twas an honor serving under you."
360: 0x0BE9 [0x23] WAIT_FOR_DIALOG_INTERACTION
361: 0x0BEA [0x5C] MUSIC_CONTROL: Set Idle (Day) music to song 159*
362: 0x0BEE [0x5C] MUSIC_CONTROL: Set Idle (Night) music to song 159*
363: 0x0BF2 [0x5C] MUSIC_CONTROL: Set Combat (Solo) music to song 159*
364: 0x0BF6 [0x5C] MUSIC_CONTROL: Set Combat (Party) music to song 159*
365: 0x0BFA [0x52] END_LOAD_SCHEDULER: End scheduler "0d07" with entities [LocalPlayer, LocalPlayer], work=503*
366: 0x0C09 [0x45] LOAD_SCHEDULED_TASK: Load scheduler "0d08" with entities [Unknown NPC (ID: 17339128/0x010892F8), Unknown NPC (ID: 17339128/0x010892F8)], work=[503*, 0*]
367: 0x0C1A [0x66] LOAD_EXT_SCHEDULER_MAIN: Load scheduler "sha1" with entities [Jayramus (ID: 17339096/0x010892D8), Jayramus (ID: 17339096/0x010892D8)], work=29*
368: 0x0C29 [0x5B] LOAD_EXT_SCHEDULER: Load scheduler "yor0" with entities [Unknown NPC (ID: 17339128/0x010892F8), Unknown NPC (ID: 17339128/0x010892F8)], work=220*
369: 0x0C38 [0x27] REQ_SET(priority=0x10, entity_id=Leuonard (ID: 17339109/0x010892E5), tag_num=0x02)
370: 0x0C3F [0x27] REQ_SET(priority=0x10, entity_id=kisiB (ID: 17339110/0x010892E6), tag_num=0x02)
371: 0x0C46 [0x27] REQ_SET(priority=0x10, entity_id=kisiC (ID: 17339111/0x010892E7), tag_num=0x02)
372: 0x0C4D [0x2B] Leuonard (ID: 17339109/0x010892E5) [7731*]:
     "Captain!!!"
373: 0x0C54 [0x1C] WAIT(180* ticks)
374: 0x0C57 [0x23] WAIT_FOR_DIALOG_INTERACTION
375: 0x0C58 [0x52] END_LOAD_SCHEDULER: End scheduler "0d08" with entities [Unknown NPC (ID: 17339128/0x010892F8), Unknown NPC (ID: 17339128/0x010892F8)], work=503*
376: 0x0C67 [0x52] END_LOAD_SCHEDULER: End scheduler "0d08" with entities [Unknown NPC (ID: 17339128/0x010892F8), Unknown NPC (ID: 17339128/0x010892F8)], work=503*
377: 0x0C76 [0x45] LOAD_SCHEDULED_TASK: Load scheduler "0d0a" with entities [LocalPlayer, LocalPlayer], work=[503*, 0*]
378: 0x0C87 [0x7C] Excenmille (ID: 17339094/0x010892D6)->Render.Flags2 |= 0x00
379: 0x0C8D [0x81] SET_ENTITY_BLINKING(blink_flag=0x00, entity=Excenmille (ID: 17339094/0x010892D6))
380: 0x0C93 [0xC5] LOAD_SCHEDULED_TASK_ALT3: Load scheduler 0x80416E69 for entities [Excenmille (ID: 17339094/0x010892D6), Excenmille (ID: 17339094/0x010892D6)], work=205*, param=24941
381: 0x0CA4 [0x5B] LOAD_EXT_SCHEDULER: Load scheduler "oyj5" with entities [Excenmille (ID: 17339094/0x010892D6), Excenmille (ID: 17339094/0x010892D6)], work=2727*
382: 0x0CB3 [0x2B] Excenmille (ID: 17339094/0x010892D6) [7732*]:
     "..."
383: 0x0CBA [0x1C] WAIT(240* ticks)
384: 0x0CBD [0x52] END_LOAD_SCHEDULER: End scheduler "0d0a" with entities [LocalPlayer, LocalPlayer], work=503*
385: 0x0CCC [0x45] LOAD_SCHEDULED_TASK: Load scheduler "0d15" with entities [LocalPlayer, LocalPlayer], work=[503*, 0*]
386: 0x0CDD [0x1C] WAIT(180* ticks)
387: 0x0CE0 [0x52] END_LOAD_SCHEDULER: End scheduler "0d15" with entities [LocalPlayer, LocalPlayer], work=503*
388: 0x0CEF [0x45] LOAD_SCHEDULED_TASK: Load scheduler "0d14" with entities [LocalPlayer, LocalPlayer], work=[503*, 0*]
389: 0x0D00 [0x1C] WAIT(5* ticks)
390: 0x0D03 [0xC5] LOAD_SCHEDULED_TASK_ALT3: Load scheduler 0x8041616C for entities [Excenmille (ID: 17339094/0x010892D6), Excenmille (ID: 17339094/0x010892D6)], work=205*, param=26987
391: 0x0D14 [0x1C] WAIT(210* ticks)
392: 0x0D17 [0x23] WAIT_FOR_DIALOG_INTERACTION
393: 0x0D18 [0x52] END_LOAD_SCHEDULER: End scheduler "0d14" with entities [LocalPlayer, LocalPlayer], work=503*
394: 0x0D27 [0x45] LOAD_SCHEDULED_TASK: Load scheduler "0d0b" with entities [LocalPlayer, LocalPlayer], work=[503*, 0*]
395: 0x0D38 [0x6E] Jayramus (ID: 17339096/0x010892D8) uses emote 33*
