# 17339117 - kisi04

## Common Data

| Field            | Value                   |
|------------------|-------------------------|
| Zone             | Xarcabard [S] (ID: 137) |
| Block Size       | 416 bytes               |
| Total Events     | 14                      |
| References Count | 31                      |

## List of Events

| Event ID                   | Entrypoint   |   Size |   Instructions |
|----------------------------|--------------|--------|----------------|
| [65535](#event-65535)      | 0x0000       |      1 |              1 |
| [17](#event-17)            | 0x0001       |      1 |              1 |
| [65535.1](#event-655351)   | 0x0002       |     30 |              4 |
| [65535.2](#event-655352)   | 0x0020       |     21 |              2 |
| [65535.3](#event-655353)   | 0x0035       |     21 |              2 |
| [65535.4](#event-655354)   | 0x004A       |     14 |              4 |
| [65535.5](#event-655355)   | 0x0058       |     14 |              4 |
| [31](#event-31)            | 0x0066       |      1 |              1 |
| [65535.6](#event-655356)   | 0x0067       |     26 |              3 |
| [42](#event-42)            | 0x0081       |      1 |              1 |
| [65535.7](#event-655357)   | 0x0082       |     21 |              2 |
| [65535.8](#event-655358)   | 0x0097       |     14 |              4 |
| [65535.9](#event-655359)   | 0x00A5       |     26 |              3 |
| [65535.10](#event-6553510) | 0x00BF       |     26 |              3 |

## DAT References (imed_data)

|   Index | Hex Value   |   Dec Value |
|---------|-------------|-------------|
|       0 | 0x0003      |           3 |
|       1 | 0x0008      |           8 |
|       2 | 0x000D      |          13 |
|       3 | 0x00DD      |         221 |
|       4 | 0x000C      |          12 |
|       5 | 0x00FB      |         251 |
|       6 | 0x001B      |          27 |
|       7 | 0x0064      |         100 |
|       8 | 0x0004      |           4 |
|       9 | 0x000E      |          14 |
|      10 | 0x0002      |           2 |
|      11 | 0x0000      |           0 |
|      12 | 0x80F69     |      528233 |
|      13 | 0xFFFBC154  |  4294689108 |
|      14 | 0x00D2      |         210 |
|      15 | 0x833A9     |      537513 |
|      16 | 0xFFFBE22F  |  4294697519 |
|      17 | 0xFFFFFF2B  |  4294967083 |
|      18 | 0x0038      |          56 |
|      19 | 0x0001      |           1 |
|      20 | 0x000F      |          15 |
|      21 | 0x7FCC0     |      523456 |
|      22 | 0xFFFBBD4E  |  4294688078 |
|      23 | 0x0005      |           5 |
|      24 | 0x0009      |           9 |
|      25 | 0x00DC      |         220 |
|      26 | 0x0156      |         342 |
|      27 | 0x0049      |          73 |
|      28 | 0x00A2      |         162 |
|      29 | 0x00B5      |         181 |
|      30 | 0x002C      |          44 |

## Events

### Event 65535

#### Metadata

| Field        | Value   |
|--------------|---------|
| Entrypoint   | 0x0000  |
| Data Size    | 1 bytes |
| Instructions | 1       |

```
      00 01 02 03 04 05 06 07  08 09 0A 0B 0C 0D 0E 0F
      -- -- -- -- -- -- -- --  -- -- -- -- -- -- -- --
0000: 00                                                .               
```

#### Opcodes

```
  0: 0x0000 [0x00] END_REQSTACK()
```

### Event 17

#### Metadata

| Field        | Value   |
|--------------|---------|
| Entrypoint   | 0x0001  |
| Data Size    | 1 bytes |
| Instructions | 1       |

```
      00 01 02 03 04 05 06 07  08 09 0A 0B 0C 0D 0E 0F
      -- -- -- -- -- -- -- --  -- -- -- -- -- -- -- --
0000:    00                                              .              
```

#### Opcodes

```
  0: 0x0001 [0x00] END_REQSTACK()
```

### Event 65535.1

#### Metadata

| Field        | Value    |
|--------------|----------|
| Entrypoint   | 0x0002   |
| Data Size    | 30 bytes |
| Instructions | 4        |

```
      00 01 02 03 04 05 06 07  08 09 0A 0B 0C 0D 0E 0F
      -- -- -- -- -- -- -- --  -- -- -- -- -- -- -- --
0000:       B6 0B 00 80 01 80  02 80 03 80 02 80 04 80    ..............
0010: 03 80 05 80 06 80 B6 0F  07 80 80 ED 92 08 01 00  ................
```

#### Opcodes

```
  0: 0x0002 [0xB6] ENTITY_APPEARANCE_HANDLER(case=Full entity look, race=3*, hair=8*, head=13*, body=221*, hands=13*, legs=12*, feet=221*, main=251*, sub=27*)
  1: 0x0016 [0xB6] ENTITY_APPEARANCE_HANDLER(case=Model size, value=100*)
  2: 0x001A [0x80] LOAD_WAIT(entity=kisi04 (ID: 17339117/0x010892ED))
  3: 0x001F [0x00] END_REQSTACK()
```

### Event 65535.2

#### Metadata

| Field        | Value    |
|--------------|----------|
| Entrypoint   | 0x0020   |
| Data Size    | 21 bytes |
| Instructions | 2        |

```
      00 01 02 03 04 05 06 07  08 09 0A 0B 0C 0D 0E 0F
      -- -- -- -- -- -- -- --  -- -- -- -- -- -- -- --
0020: B6 0B 00 80 08 80 02 80  03 80 02 80 04 80 03 80  ................
0030: 05 80 06 80 00                                    .....           
```

#### Opcodes

```
  0: 0x0020 [0xB6] ENTITY_APPEARANCE_HANDLER(case=Full entity look, race=3*, hair=4*, head=13*, body=221*, hands=13*, legs=12*, feet=221*, main=251*, sub=27*)
  1: 0x0034 [0x00] END_REQSTACK()
```

### Event 65535.3

#### Metadata

| Field        | Value    |
|--------------|----------|
| Entrypoint   | 0x0035   |
| Data Size    | 21 bytes |
| Instructions | 2        |

```
      00 01 02 03 04 05 06 07  08 09 0A 0B 0C 0D 0E 0F
      -- -- -- -- -- -- -- --  -- -- -- -- -- -- -- --
0030:                B6 0B 01  80 09 80 0A 80 0A 80 0A       ...........
0040: 80 0A 80 0A 80 05 80 0B  80 00                    ..........      
```

#### Opcodes

```
  0: 0x0035 [0xB6] ENTITY_APPEARANCE_HANDLER(case=Full entity look, race=8*, hair=14*, head=2*, body=2*, hands=2*, legs=2*, feet=2*, main=251*, sub=0*)
  1: 0x0049 [0x00] END_REQSTACK()
```

### Event 65535.4

#### Metadata

| Field        | Value    |
|--------------|----------|
| Entrypoint   | 0x004A   |
| Data Size    | 14 bytes |
| Instructions | 4        |

```
      00 01 02 03 04 05 06 07  08 09 0A 0B 0C 0D 0E 0F
      -- -- -- -- -- -- -- --  -- -- -- -- -- -- -- --
0040:                                32 02 80 1F 00 0C            2.....
0050: 80 0D 80 0E 80 1F 01 00                           ........        
```

#### Opcodes

```
  0: 0x004A [0x32] ExtData[1]->MainSpeed = 13* * 0.1
  1: 0x004D [0x1F] MOVE_ENTITY: EventEntity moves to X=528.233*, Z=-278.188*, Y=0.210*
  2: 0x0055 [0x1F] MOVE_ENTITY: Update entity position (mode=1)
  3: 0x0057 [0x00] END_REQSTACK()
```

### Event 65535.5

#### Metadata

| Field        | Value    |
|--------------|----------|
| Entrypoint   | 0x0058   |
| Data Size    | 14 bytes |
| Instructions | 4        |

```
      00 01 02 03 04 05 06 07  08 09 0A 0B 0C 0D 0E 0F
      -- -- -- -- -- -- -- --  -- -- -- -- -- -- -- --
0050:                          32 02 80 1F 00 0F 80 10          2.......
0060: 80 11 80 1F 01 00                                 ......          
```

#### Opcodes

```
  0: 0x0058 [0x32] ExtData[1]->MainSpeed = 13* * 0.1
  1: 0x005B [0x1F] MOVE_ENTITY: EventEntity moves to X=537.513*, Z=-269.777*, Y=-0.213*
  2: 0x0063 [0x1F] MOVE_ENTITY: Update entity position (mode=1)
  3: 0x0065 [0x00] END_REQSTACK()
```

### Event 31

#### Metadata

| Field        | Value   |
|--------------|---------|
| Entrypoint   | 0x0066  |
| Data Size    | 1 bytes |
| Instructions | 1       |

```
      00 01 02 03 04 05 06 07  08 09 0A 0B 0C 0D 0E 0F
      -- -- -- -- -- -- -- --  -- -- -- -- -- -- -- --
0060:                   00                                    .         
```

#### Opcodes

```
  0: 0x0066 [0x00] END_REQSTACK()
```

### Event 65535.6

#### Metadata

| Field        | Value    |
|--------------|----------|
| Entrypoint   | 0x0067   |
| Data Size    | 26 bytes |
| Instructions | 3        |

```
      00 01 02 03 04 05 06 07  08 09 0A 0B 0C 0D 0E 0F
      -- -- -- -- -- -- -- --  -- -- -- -- -- -- -- --
0060:                      B6  0B 00 80 00 80 12 80 03         .........
0070: 80 04 80 04 80 04 80 05  80 0B 80 80 ED 92 08 01  ................
0080: 00                                                .               
```

#### Opcodes

```
  0: 0x0067 [0xB6] ENTITY_APPEARANCE_HANDLER(case=Full entity look, race=3*, hair=3*, head=56*, body=221*, hands=12*, legs=12*, feet=12*, main=251*, sub=0*)
  1: 0x007B [0x80] LOAD_WAIT(entity=kisi04 (ID: 17339117/0x010892ED))
  2: 0x0080 [0x00] END_REQSTACK()
```

### Event 42

#### Metadata

| Field        | Value   |
|--------------|---------|
| Entrypoint   | 0x0081  |
| Data Size    | 1 bytes |
| Instructions | 1       |

```
      00 01 02 03 04 05 06 07  08 09 0A 0B 0C 0D 0E 0F
      -- -- -- -- -- -- -- --  -- -- -- -- -- -- -- --
0080:    00                                              .              
```

#### Opcodes

```
  0: 0x0081 [0x00] END_REQSTACK()
```

### Event 65535.7

#### Metadata

| Field        | Value    |
|--------------|----------|
| Entrypoint   | 0x0082   |
| Data Size    | 21 bytes |
| Instructions | 2        |

```
      00 01 02 03 04 05 06 07  08 09 0A 0B 0C 0D 0E 0F
      -- -- -- -- -- -- -- --  -- -- -- -- -- -- -- --
0080:       B6 0B 13 80 14 80  0A 80 0A 80 0A 80 0A 80    ..............
0090: 0A 80 05 80 0B 80 00                              .......         
```

#### Opcodes

```
  0: 0x0082 [0xB6] ENTITY_APPEARANCE_HANDLER(case=Full entity look, race=1*, hair=15*, head=2*, body=2*, hands=2*, legs=2*, feet=2*, main=251*, sub=0*)
  1: 0x0096 [0x00] END_REQSTACK()
```

### Event 65535.8

#### Metadata

| Field        | Value    |
|--------------|----------|
| Entrypoint   | 0x0097   |
| Data Size    | 14 bytes |
| Instructions | 4        |

```
      00 01 02 03 04 05 06 07  08 09 0A 0B 0C 0D 0E 0F
      -- -- -- -- -- -- -- --  -- -- -- -- -- -- -- --
0090:                      32  02 80 1F 00 15 80 16 80         2........
00A0: 0B 80 1F 01 00                                    .....           
```

#### Opcodes

```
  0: 0x0097 [0x32] ExtData[1]->MainSpeed = 13* * 0.1
  1: 0x009A [0x1F] MOVE_ENTITY: EventEntity moves to X=523.456*, Z=-279.218*, Y=0.000*
  2: 0x00A2 [0x1F] MOVE_ENTITY: Update entity position (mode=1)
  3: 0x00A4 [0x00] END_REQSTACK()
```

### Event 65535.9

#### Metadata

| Field        | Value    |
|--------------|----------|
| Entrypoint   | 0x00A5   |
| Data Size    | 26 bytes |
| Instructions | 3        |

```
      00 01 02 03 04 05 06 07  08 09 0A 0B 0C 0D 0E 0F
      -- -- -- -- -- -- -- --  -- -- -- -- -- -- -- --
00A0:                B6 0B 17  80 18 80 19 80 19 80 19       ...........
00B0: 80 19 80 19 80 1A 80 0B  80 80 ED 92 08 01 00     ............... 
```

#### Opcodes

```
  0: 0x00A5 [0xB6] ENTITY_APPEARANCE_HANDLER(case=Full entity look, race=5*, hair=9*, head=220*, body=220*, hands=220*, legs=220*, feet=220*, main=342*, sub=0*)
  1: 0x00B9 [0x80] LOAD_WAIT(entity=kisi04 (ID: 17339117/0x010892ED))
  2: 0x00BE [0x00] END_REQSTACK()
```

### Event 65535.10

#### Metadata

| Field        | Value    |
|--------------|----------|
| Entrypoint   | 0x00BF   |
| Data Size    | 26 bytes |
| Instructions | 3        |

```
      00 01 02 03 04 05 06 07  08 09 0A 0B 0C 0D 0E 0F
      -- -- -- -- -- -- -- --  -- -- -- -- -- -- -- --
00B0:                                               B6                 .
00C0: 0B 13 80 0B 80 1B 80 1C  80 1C 80 1C 80 1C 80 1D  ................
00D0: 80 1E 80 80 ED 92 08 01  00                       .........       
```

#### Opcodes

```
  0: 0x00BF [0xB6] ENTITY_APPEARANCE_HANDLER(case=Full entity look, race=1*, hair=0*, head=73*, body=162*, hands=162*, legs=162*, feet=162*, main=181*, sub=44*)
  1: 0x00D3 [0x80] LOAD_WAIT(entity=kisi04 (ID: 17339117/0x010892ED))
  2: 0x00D8 [0x00] END_REQSTACK()
```
