# 17339124 - 02

## Common Data

| Field            | Value                   |
|------------------|-------------------------|
| Zone             | Xarcabard [S] (ID: 137) |
| Block Size       | 344 bytes               |
| Total Events     | 10                      |
| References Count | 27                      |

## List of Events

| Event ID                 | Entrypoint   |   Size |   Instructions |
|--------------------------|--------------|--------|----------------|
| [65535](#event-65535)    | 0x0000       |      1 |              1 |
| [7](#event-7)            | 0x0001       |      1 |              1 |
| [65535.1](#event-655351) | 0x0002       |     10 |              2 |
| [65535.2](#event-655352) | 0x000C       |     10 |              2 |
| [31](#event-31)          | 0x0016       |      1 |              1 |
| [65535.3](#event-655353) | 0x0017       |     57 |              8 |
| [17](#event-17)          | 0x0050       |      1 |              1 |
| [65535.4](#event-655354) | 0x0051       |     26 |              3 |
| [65535.5](#event-655355) | 0x006B       |     21 |              2 |
| [65535.6](#event-655356) | 0x0080       |     51 |              9 |

## DAT References (imed_data)

|   Index | Hex Value   |   Dec Value |
|---------|-------------|-------------|
|       0 | 0x0000      |           0 |
|       1 | 0x0001      |           1 |
|       2 | 0x0080      |         128 |
|       3 | 0x000D      |          13 |
|       4 | 0xFFFD4001  |  4294787073 |
|       5 | 0xFFFEBE83  |  4294884995 |
|       6 | 0xFFFFF5AD  |  4294964653 |
|       7 | 0x0027      |          39 |
|       8 | 0x003C      |          60 |
|       9 | 0x05E7      |        1511 |
|      10 | 0x0004      |           4 |
|      11 | 0x0007      |           7 |
|      12 | 0x001D      |          29 |
|      13 | 0x0021      |          33 |
|      14 | 0x001A      |          26 |
|      15 | 0x00CA      |         202 |
|      16 | 0x0006      |           6 |
|      17 | 0x0089      |         137 |
|      18 | 0x0010      |          16 |
|      19 | 0x000E      |          14 |
|      20 | 0x00FB      |         251 |
|      21 | 0x003B      |          59 |
|      22 | 0x0078      |         120 |
|      23 | 0x80248     |      524872 |
|      24 | 0xFFFBB88D  |  4294686861 |
|      25 | 0x002A      |          42 |
|      26 | 0x0079      |         121 |

## Events

### Event 65535

#### Metadata

| Field        | Value   |
|--------------|---------|
| Entrypoint   | 0x0000  |
| Data Size    | 1 bytes |
| Instructions | 1       |

```
      00 01 02 03 04 05 06 07  08 09 0A 0B 0C 0D 0E 0F
      -- -- -- -- -- -- -- --  -- -- -- -- -- -- -- --
0000: 00                                                .               
```

#### Opcodes

```
  0: 0x0000 [0x00] END_REQSTACK()
```

### Event 7

#### Metadata

| Field        | Value   |
|--------------|---------|
| Entrypoint   | 0x0001  |
| Data Size    | 1 bytes |
| Instructions | 1       |

```
      00 01 02 03 04 05 06 07  08 09 0A 0B 0C 0D 0E 0F
      -- -- -- -- -- -- -- --  -- -- -- -- -- -- -- --
0000:    00                                              .              
```

#### Opcodes

```
  0: 0x0001 [0x00] END_REQSTACK()
```

### Event 65535.1

#### Metadata

| Field        | Value    |
|--------------|----------|
| Entrypoint   | 0x0002   |
| Data Size    | 10 bytes |
| Instructions | 2        |

```
      00 01 02 03 04 05 06 07  08 09 0A 0B 0C 0D 0E 0F
      -- -- -- -- -- -- -- --  -- -- -- -- -- -- -- --
0000:       6C F4 92 08 01 00  80 01 80 00                l.........    
```

#### Opcodes

```
  0: 0x0002 [0x6C] FADE_ENTITY_COLOR(entity_id=02 (ID: 17339124/0x010892F4), end_alpha=0*, fade_time=1*)
  1: 0x000B [0x00] END_REQSTACK()
```

### Event 65535.2

#### Metadata

| Field        | Value    |
|--------------|----------|
| Entrypoint   | 0x000C   |
| Data Size    | 10 bytes |
| Instructions | 2        |

```
      00 01 02 03 04 05 06 07  08 09 0A 0B 0C 0D 0E 0F
      -- -- -- -- -- -- -- --  -- -- -- -- -- -- -- --
0000:                                      6C F4 92 08              l...
0010: 01 02 80 01 80 00                                 ......          
```

#### Opcodes

```
  0: 0x000C [0x6C] FADE_ENTITY_COLOR(entity_id=02 (ID: 17339124/0x010892F4), end_alpha=128*, fade_time=1*)
  1: 0x0015 [0x00] END_REQSTACK()
```

### Event 31

#### Metadata

| Field        | Value   |
|--------------|---------|
| Entrypoint   | 0x0016  |
| Data Size    | 1 bytes |
| Instructions | 1       |

```
      00 01 02 03 04 05 06 07  08 09 0A 0B 0C 0D 0E 0F
      -- -- -- -- -- -- -- --  -- -- -- -- -- -- -- --
0010:                   00                                    .         
```

#### Opcodes

```
  0: 0x0016 [0x00] END_REQSTACK()
```

### Event 65535.3

#### Metadata

| Field        | Value    |
|--------------|----------|
| Entrypoint   | 0x0017   |
| Data Size    | 57 bytes |
| Instructions | 8        |

```
      00 01 02 03 04 05 06 07  08 09 0A 0B 0C 0D 0E 0F
      -- -- -- -- -- -- -- --  -- -- -- -- -- -- -- --
0010:                      32  03 80 1F 00 04 80 05 80         2........
0020: 06 80 1F 01 66 07 80 F3  92 08 01 F3 92 08 01 74  ....f..........t
0030: 6C 6B 31 79 00 F4 92 08  01 F6 92 08 01 1C 08 80  lk1y............
0040: 5B 09 80 F4 92 08 01 F4  92 08 01 74 6C 61 30 00  [..........tla0.
```

#### Opcodes

```
  0: 0x0017 [0x32] ExtData[1]->MainSpeed = 13* * 0.1
  1: 0x001A [0x1F] MOVE_ENTITY: EventEntity moves to X=-180.223*, Z=-82.301*, Y=-2.643*
  2: 0x0022 [0x1F] MOVE_ENTITY: Update entity position (mode=1)
  3: 0x0024 [0x66] LOAD_EXT_SCHEDULER_MAIN: Load scheduler "tlk1" with entities [01 (ID: 17339123/0x010892F3), 01 (ID: 17339123/0x010892F3)], work=39*
  4: 0x0033 [0x79] 02 (ID: 17339124/0x010892F4) looks at 04 (ID: 17339126/0x010892F6) (Basic look)
  5: 0x003D [0x1C] WAIT(60* ticks)
  6: 0x0040 [0x5B] LOAD_EXT_SCHEDULER: Load scheduler "tla0" with entities [02 (ID: 17339124/0x010892F4), 02 (ID: 17339124/0x010892F4)], work=1511*
  7: 0x004F [0x00] END_REQSTACK()
```

### Event 17

#### Metadata

| Field        | Value   |
|--------------|---------|
| Entrypoint   | 0x0050  |
| Data Size    | 1 bytes |
| Instructions | 1       |

```
      00 01 02 03 04 05 06 07  08 09 0A 0B 0C 0D 0E 0F
      -- -- -- -- -- -- -- --  -- -- -- -- -- -- -- --
0050: 00                                                .               
```

#### Opcodes

```
  0: 0x0050 [0x00] END_REQSTACK()
```

### Event 65535.4

#### Metadata

| Field        | Value    |
|--------------|----------|
| Entrypoint   | 0x0051   |
| Data Size    | 26 bytes |
| Instructions | 3        |

```
      00 01 02 03 04 05 06 07  08 09 0A 0B 0C 0D 0E 0F
      -- -- -- -- -- -- -- --  -- -- -- -- -- -- -- --
0050:    B6 0B 0A 80 0B 80 0C  80 0D 80 0E 80 0C 80 03   ...............
0060: 80 0F 80 00 80 80 F4 92  08 01 00                 ...........     
```

#### Opcodes

```
  0: 0x0051 [0xB6] ENTITY_APPEARANCE_HANDLER(case=Full entity look, race=4*, hair=7*, head=29*, body=33*, hands=26*, legs=29*, feet=13*, main=202*, sub=0*)
  1: 0x0065 [0x80] LOAD_WAIT(entity=02 (ID: 17339124/0x010892F4))
  2: 0x006A [0x00] END_REQSTACK()
```

### Event 65535.5

#### Metadata

| Field        | Value    |
|--------------|----------|
| Entrypoint   | 0x006B   |
| Data Size    | 21 bytes |
| Instructions | 2        |

```
      00 01 02 03 04 05 06 07  08 09 0A 0B 0C 0D 0E 0F
      -- -- -- -- -- -- -- --  -- -- -- -- -- -- -- --
0060:                                   B6 0B 0B 80 10             .....
0070: 80 11 80 12 80 12 80 13  80 03 80 14 80 00 80 00  ................
```

#### Opcodes

```
  0: 0x006B [0xB6] ENTITY_APPEARANCE_HANDLER(case=Full entity look, race=7*, hair=6*, head=137*, body=16*, hands=16*, legs=14*, feet=13*, main=251*, sub=0*)
  1: 0x007F [0x00] END_REQSTACK()
```

### Event 65535.6

#### Metadata

| Field        | Value    |
|--------------|----------|
| Entrypoint   | 0x0080   |
| Data Size    | 51 bytes |
| Instructions | 9        |

```
      00 01 02 03 04 05 06 07  08 09 0A 0B 0C 0D 0E 0F
      -- -- -- -- -- -- -- --  -- -- -- -- -- -- -- --
0080: 1C 08 80 66 15 80 F4 92  08 01 F4 92 08 01 73 68  ...f..........sh
0090: 61 31 1C 16 80 32 03 80  1F 00 17 80 18 80 19 80  a1...2..........
00A0: 1F 01 6F 66 1A 80 F4 92  08 01 F4 92 08 01 70 61  ..of..........pa
00B0: 73 30 00                                          s0.             
```

#### Opcodes

```
  0: 0x0080 [0x1C] WAIT(60* ticks)
  1: 0x0083 [0x66] LOAD_EXT_SCHEDULER_MAIN: Load scheduler "sha1" with entities [02 (ID: 17339124/0x010892F4), 02 (ID: 17339124/0x010892F4)], work=59*
  2: 0x0092 [0x1C] WAIT(120* ticks)
  3: 0x0095 [0x32] ExtData[1]->MainSpeed = 13* * 0.1
  4: 0x0098 [0x1F] MOVE_ENTITY: EventEntity moves to X=524.872*, Z=-280.435*, Y=0.042*
  5: 0x00A0 [0x1F] MOVE_ENTITY: Update entity position (mode=1)
  6: 0x00A2 [0x6F] WAIT_FRAME_DELAY: Yield until WaitTime reaches zero
  7: 0x00A3 [0x66] LOAD_EXT_SCHEDULER_MAIN: Load scheduler "pas0" with entities [02 (ID: 17339124/0x010892F4), 02 (ID: 17339124/0x010892F4)], work=121*
  8: 0x00B2 [0x00] END_REQSTACK()
```
