# 17339186 - Ironcretht Hawk 01

## Common Data

| Field            | Value                   |
|------------------|-------------------------|
| Zone             | Xarcabard [S] (ID: 137) |
| Block Size       | 944 bytes               |
| Total Events     | 36                      |
| References Count | 61                      |

## List of Events

| Event ID                   | Entrypoint   |   Size |   Instructions |
|----------------------------|--------------|--------|----------------|
| [65535](#event-65535)      | 0x0000       |      1 |              1 |
| [65535.1](#event-655351)   | 0x0001       |      1 |              1 |
| [65535.2](#event-655352)   | 0x0002       |     18 |              4 |
| [65535.3](#event-655353)   | 0x0014       |     10 |              2 |
| [65535.4](#event-655354)   | 0x001E       |      9 |              3 |
| [65535.5](#event-655355)   | 0x0027       |      9 |              3 |
| [65535.6](#event-655356)   | 0x0030       |     10 |              2 |
| [65535.7](#event-655357)   | 0x003A       |     10 |              2 |
| [23](#event-23)            | 0x0044       |      1 |              1 |
| [39](#event-39)            | 0x0045       |      1 |              1 |
| [24](#event-24)            | 0x0046       |      1 |              1 |
| [65535.8](#event-655358)   | 0x0047       |      5 |              2 |
| [65535.9](#event-655359)   | 0x004C       |      5 |              2 |
| [65535.10](#event-6553510) | 0x0051       |      5 |              2 |
| [65535.11](#event-6553511) | 0x0056       |     67 |             13 |
| [18](#event-18)            | 0x0099       |      1 |              1 |
| [65535.12](#event-6553512) | 0x009A       |     25 |              3 |
| [65535.13](#event-6553513) | 0x00B3       |     25 |              3 |
| [65535.14](#event-6553514) | 0x00CC       |     25 |              3 |
| [65535.15](#event-6553515) | 0x00E5       |     25 |              3 |
| [65535.16](#event-6553516) | 0x00FE       |     25 |              3 |
| [65535.17](#event-6553517) | 0x0117       |     25 |              3 |
| [65535.18](#event-6553518) | 0x0130       |     15 |              5 |
| [65535.19](#event-6553519) | 0x013F       |     21 |              2 |
| [65535.20](#event-6553520) | 0x0154       |     21 |              2 |
| [65535.21](#event-6553521) | 0x0169       |     21 |              2 |
| [65535.22](#event-6553522) | 0x017E       |     21 |              2 |
| [65535.23](#event-6553523) | 0x0193       |     21 |              2 |
| [65535.24](#event-6553524) | 0x01A8       |     21 |              2 |
| [65535.25](#event-6553525) | 0x01BD       |     21 |              2 |
| [65535.26](#event-6553526) | 0x01D2       |     21 |              2 |
| [65535.27](#event-6553527) | 0x01E7       |     13 |              3 |
| [65535.28](#event-6553528) | 0x01F4       |     13 |              3 |
| [65535.29](#event-6553529) | 0x0201       |     13 |              3 |
| [65535.30](#event-6553530) | 0x020E       |     13 |              3 |
| [42](#event-42)            | 0x021B       |      1 |              1 |

## DAT References (imed_data)

|   Index | Hex Value   |   Dec Value |
|---------|-------------|-------------|
|       0 | 0x0000      |           0 |
|       1 | 0x0001      |           1 |
|       2 | 0x0080      |         128 |
|       3 | 0x08FA      |        2298 |
|       4 | 0x0034      |          52 |
|       5 | 0x02F0      |         752 |
|       6 | 0x0003      |           3 |
|       7 | 0x0040      |          64 |
|       8 | 0x0800      |        2048 |
|       9 | 0x0008      |           8 |
|      10 | 0x007D      |         125 |
|      11 | 0x0060      |          96 |
|      12 | 0x0075      |         117 |
|      13 | 0x0064      |         100 |
|      14 | 0x00DD      |         221 |
|      15 | 0x000D      |          13 |
|      16 | 0x00FB      |         251 |
|      17 | 0x001B      |          27 |
|      18 | 0x005F      |          95 |
|      19 | 0x00FA      |         250 |
|      20 | 0x0004      |           4 |
|      21 | 0x000C      |          12 |
|      22 | 0x0028      |          40 |
|      23 | 0xFFFE153C  |  4294841660 |
|      24 | 0xFFFF4186  |  4294918534 |
|      25 | 0xFFFF9FE1  |  4294942689 |
|      26 | 0x0049      |          73 |
|      27 | 0x00A2      |         162 |
|      28 | 0x00B5      |         181 |
|      29 | 0x002C      |          44 |
|      30 | 0x0002      |           2 |
|      31 | 0x001A      |          26 |
|      32 | 0x00B9      |         185 |
|      33 | 0x00D6      |         214 |
|      34 | 0x0167      |         359 |
|      35 | 0x000F      |          15 |
|      36 | 0x001D      |          29 |
|      37 | 0x006E      |         110 |
|      38 | 0x0084      |         132 |
|      39 | 0x0005      |           5 |
|      40 | 0x0009      |           9 |
|      41 | 0x00DC      |         220 |
|      42 | 0x0156      |         342 |
|      43 | 0x0006      |           6 |
|      44 | 0x0074      |         116 |
|      45 | 0x0061      |          97 |
|      46 | 0x0014      |          20 |
|      47 | 0x006D      |         109 |
|      48 | 0x0025      |          37 |
|      49 | 0x00CD      |         205 |
|      50 | 0x00BA      |         186 |
|      51 | 0x0094      |         148 |
|      52 | 0x0131      |         305 |
|      53 | 0x0007      |           7 |
|      54 | 0x0023      |          35 |
|      55 | 0x0036      |          54 |
|      56 | 0x00DB      |         219 |
|      57 | 0x0171      |         369 |
|      58 | 0x052B      |        1323 |
|      59 | 0x002B      |          43 |
|      60 | 0x0024      |          36 |

## Events

### Event 65535

#### Metadata

| Field        | Value   |
|--------------|---------|
| Entrypoint   | 0x0000  |
| Data Size    | 1 bytes |
| Instructions | 1       |

```
      00 01 02 03 04 05 06 07  08 09 0A 0B 0C 0D 0E 0F
      -- -- -- -- -- -- -- --  -- -- -- -- -- -- -- --
0000: 00                                                .               
```

#### Opcodes

```
  0: 0x0000 [0x00] END_REQSTACK()
```

### Event 65535.1

#### Metadata

| Field        | Value   |
|--------------|---------|
| Entrypoint   | 0x0001  |
| Data Size    | 1 bytes |
| Instructions | 1       |

```
      00 01 02 03 04 05 06 07  08 09 0A 0B 0C 0D 0E 0F
      -- -- -- -- -- -- -- --  -- -- -- -- -- -- -- --
0000:    00                                              .              
```

#### Opcodes

```
  0: 0x0001 [0x00] END_REQSTACK()
```

### Event 65535.2

#### Metadata

| Field        | Value    |
|--------------|----------|
| Entrypoint   | 0x0002   |
| Data Size    | 18 bytes |
| Instructions | 4        |

```
      00 01 02 03 04 05 06 07  08 09 0A 0B 0C 0D 0E 0F
      -- -- -- -- -- -- -- --  -- -- -- -- -- -- -- --
0000:       22 00 2F 00 F8 FF  FF 7F 6C F8 FF FF 7F 00    "./.....l.....
0010: 80 01 80 00                                       ....            
```

#### Opcodes

```
  0: 0x0002 [0x22] ENTITY_HIDE_FLAG(enabled=0x00)
  1: 0x0004 [0x2F] EventEntity->Render.Flags0 &= ~0x80000 // Bit 19
  2: 0x000A [0x6C] FADE_ENTITY_COLOR(entity_id=EventEntity, end_alpha=0*, fade_time=1*)
  3: 0x0013 [0x00] END_REQSTACK()
```

### Event 65535.3

#### Metadata

| Field        | Value    |
|--------------|----------|
| Entrypoint   | 0x0014   |
| Data Size    | 10 bytes |
| Instructions | 2        |

```
      00 01 02 03 04 05 06 07  08 09 0A 0B 0C 0D 0E 0F
      -- -- -- -- -- -- -- --  -- -- -- -- -- -- -- --
0010:             6C F8 FF FF  7F 02 80 01 80 00            l.........  
```

#### Opcodes

```
  0: 0x0014 [0x6C] FADE_ENTITY_COLOR(entity_id=EventEntity, end_alpha=128*, fade_time=1*)
  1: 0x001D [0x00] END_REQSTACK()
```

### Event 65535.4

#### Metadata

| Field        | Value   |
|--------------|---------|
| Entrypoint   | 0x001E  |
| Data Size    | 9 bytes |
| Instructions | 3       |

```
      00 01 02 03 04 05 06 07  08 09 0A 0B 0C 0D 0E 0F
      -- -- -- -- -- -- -- --  -- -- -- -- -- -- -- --
0010:                                            22 00                ".
0020: 2F 00 F8 FF FF 7F 00                              /......         
```

#### Opcodes

```
  0: 0x001E [0x22] ENTITY_HIDE_FLAG(enabled=0x00)
  1: 0x0020 [0x2F] EventEntity->Render.Flags0 &= ~0x80000 // Bit 19
  2: 0x0026 [0x00] END_REQSTACK()
```

### Event 65535.5

#### Metadata

| Field        | Value   |
|--------------|---------|
| Entrypoint   | 0x0027  |
| Data Size    | 9 bytes |
| Instructions | 3       |

```
      00 01 02 03 04 05 06 07  08 09 0A 0B 0C 0D 0E 0F
      -- -- -- -- -- -- -- --  -- -- -- -- -- -- -- --
0020:                      22  01 2F 01 F8 FF FF 7F 00         "./......
```

#### Opcodes

```
  0: 0x0027 [0x22] ENTITY_HIDE_FLAG(enabled=0x01)
  1: 0x0029 [0x2F] EventEntity->Render.Flags0 |= 0x80000 // Bit 19
  2: 0x002F [0x00] END_REQSTACK()
```

### Event 65535.6

#### Metadata

| Field        | Value    |
|--------------|----------|
| Entrypoint   | 0x0030   |
| Data Size    | 10 bytes |
| Instructions | 2        |

```
      00 01 02 03 04 05 06 07  08 09 0A 0B 0C 0D 0E 0F
      -- -- -- -- -- -- -- --  -- -- -- -- -- -- -- --
0030: 6C F8 FF FF 7F 00 80 01  80 00                    l.........      
```

#### Opcodes

```
  0: 0x0030 [0x6C] FADE_ENTITY_COLOR(entity_id=EventEntity, end_alpha=0*, fade_time=1*)
  1: 0x0039 [0x00] END_REQSTACK()
```

### Event 65535.7

#### Metadata

| Field        | Value    |
|--------------|----------|
| Entrypoint   | 0x003A   |
| Data Size    | 10 bytes |
| Instructions | 2        |

```
      00 01 02 03 04 05 06 07  08 09 0A 0B 0C 0D 0E 0F
      -- -- -- -- -- -- -- --  -- -- -- -- -- -- -- --
0030:                                6C F8 FF FF 7F 02            l.....
0040: 80 01 80 00                                       ....            
```

#### Opcodes

```
  0: 0x003A [0x6C] FADE_ENTITY_COLOR(entity_id=EventEntity, end_alpha=128*, fade_time=1*)
  1: 0x0043 [0x00] END_REQSTACK()
```

### Event 23

#### Metadata

| Field        | Value   |
|--------------|---------|
| Entrypoint   | 0x0044  |
| Data Size    | 1 bytes |
| Instructions | 1       |

```
      00 01 02 03 04 05 06 07  08 09 0A 0B 0C 0D 0E 0F
      -- -- -- -- -- -- -- --  -- -- -- -- -- -- -- --
0040:             00                                        .           
```

#### Opcodes

```
  0: 0x0044 [0x00] END_REQSTACK()
```

### Event 39

#### Metadata

| Field        | Value   |
|--------------|---------|
| Entrypoint   | 0x0045  |
| Data Size    | 1 bytes |
| Instructions | 1       |

```
      00 01 02 03 04 05 06 07  08 09 0A 0B 0C 0D 0E 0F
      -- -- -- -- -- -- -- --  -- -- -- -- -- -- -- --
0040:                00                                      .          
```

#### Opcodes

```
  0: 0x0045 [0x00] END_REQSTACK()
```

### Event 24

#### Metadata

| Field        | Value   |
|--------------|---------|
| Entrypoint   | 0x0046  |
| Data Size    | 1 bytes |
| Instructions | 1       |

```
      00 01 02 03 04 05 06 07  08 09 0A 0B 0C 0D 0E 0F
      -- -- -- -- -- -- -- --  -- -- -- -- -- -- -- --
0040:                   00                                    .         
```

#### Opcodes

```
  0: 0x0046 [0x00] END_REQSTACK()
```

### Event 65535.8

#### Metadata

| Field        | Value   |
|--------------|---------|
| Entrypoint   | 0x0047  |
| Data Size    | 5 bytes |
| Instructions | 2       |

```
      00 01 02 03 04 05 06 07  08 09 0A 0B 0C 0D 0E 0F
      -- -- -- -- -- -- -- --  -- -- -- -- -- -- -- --
0040:                      B6  00 03 80 00                     .....    
```

#### Opcodes

```
  0: 0x0047 [0xB6] ENTITY_APPEARANCE_HANDLER(case=Hair style, value=2298*)
  1: 0x004B [0x00] END_REQSTACK()
```

### Event 65535.9

#### Metadata

| Field        | Value   |
|--------------|---------|
| Entrypoint   | 0x004C  |
| Data Size    | 5 bytes |
| Instructions | 2       |

```
      00 01 02 03 04 05 06 07  08 09 0A 0B 0C 0D 0E 0F
      -- -- -- -- -- -- -- --  -- -- -- -- -- -- -- --
0040:                                      B6 00 04 80              ....
0050: 00                                                .               
```

#### Opcodes

```
  0: 0x004C [0xB6] ENTITY_APPEARANCE_HANDLER(case=Hair style, value=52*)
  1: 0x0050 [0x00] END_REQSTACK()
```

### Event 65535.10

#### Metadata

| Field        | Value   |
|--------------|---------|
| Entrypoint   | 0x0051  |
| Data Size    | 5 bytes |
| Instructions | 2       |

```
      00 01 02 03 04 05 06 07  08 09 0A 0B 0C 0D 0E 0F
      -- -- -- -- -- -- -- --  -- -- -- -- -- -- -- --
0050:    B6 00 05 80 00                                  .....          
```

#### Opcodes

```
  0: 0x0051 [0xB6] ENTITY_APPEARANCE_HANDLER(case=Hair style, value=752*)
  1: 0x0055 [0x00] END_REQSTACK()
```

### Event 65535.11

#### Metadata

| Field        | Value    |
|--------------|----------|
| Entrypoint   | 0x0056   |
| Data Size    | 67 bytes |
| Instructions | 10       |

```
      00 01 02 03 04 05 06 07  08 09 0A 0B 0C 0D 0E 0F
      -- -- -- -- -- -- -- --  -- -- -- -- -- -- -- --
0050:                   33 01  3B F8 FF FF 7F 00 00 01        3.;.......
0060: 00 02 00 06 05 00 16 04  00 05 00 06 80 07 02 00  ................
0070: 04 00 3A F8 FF FF 7F 03  00 37 00 00 01 00 02 00  ..:......7......
0080: 03 00 07 05 00 07 80 1C  01 80 01 66 00 02 05 00  ...........f....
0090: 08 80 04 98 00 06 05 00  00                       .........       
```

#### Opcodes

```
  0: 0x0056 [0x33] EventEntity->Render.Flags0 |= 0x200000 // Bit 21 (flag=0x01)
  1: 0x0058 [0x3B] GET_ENTITY_POSITION(entity=EventEntity, x_destination=ExtData[1]->WorkLocal[0], y_destination=ExtData[1]->WorkLocal[1], z_destination=ExtData[1]->WorkLocal[2])
  2: 0x0063 [0x06] ExtData[1]->WorkLocal[5] = 0
  3: 0x0066 [0x16] ExtData[1]->WorkLocal[4] = sin(ExtData[1]->WorkLocal[5]) * 3*
  4: 0x006D [0x07] ExtData[1]->WorkLocal[2] += ExtData[1]->WorkLocal[4]
  5: 0x0072 [0x3A] CONVERT_YAW_TO_BYTE(entity=EventEntity, result_destination=ExtData[1]->WorkLocal[3])
  6: 0x0079 [0x37] UPDATE_EVENT_POSITION_AND_DIR: x=ExtData[1]->WorkLocal[0], z=ExtData[1]->WorkLocal[1], y=ExtData[1]->WorkLocal[2], direction=ExtData[1]->WorkLocal[3]
  7: 0x0082 [0x07] ExtData[1]->WorkLocal[5] += 64*
  8: 0x0087 [0x1C] WAIT(1* ticks)
  9: 0x008A [0x01] GOTO 0x0066
```

#### Data or dead code:

```
# Dead code (unreachable instructions):
     0x008D [0x02] IF !(ExtData[1]->WorkLocal[5] < 2048*) GOTO 0x0098
     0x0095 [0x06] ExtData[1]->WorkLocal[5] = 0
     0x0098 [0x00] END_REQSTACK()
```

### Event 18

#### Metadata

| Field        | Value   |
|--------------|---------|
| Entrypoint   | 0x0099  |
| Data Size    | 1 bytes |
| Instructions | 1       |

```
      00 01 02 03 04 05 06 07  08 09 0A 0B 0C 0D 0E 0F
      -- -- -- -- -- -- -- --  -- -- -- -- -- -- -- --
0090:                             00                             .      
```

#### Opcodes

```
  0: 0x0099 [0x00] END_REQSTACK()
```

### Event 65535.12

#### Metadata

| Field        | Value    |
|--------------|----------|
| Entrypoint   | 0x009A   |
| Data Size    | 25 bytes |
| Instructions | 3        |

```
      00 01 02 03 04 05 06 07  08 09 0A 0B 0C 0D 0E 0F
      -- -- -- -- -- -- -- --  -- -- -- -- -- -- -- --
0090:                                B6 0B 09 80 00 80            ......
00A0: 0A 80 0B 80 0B 80 0B 80  0B 80 0C 80 0C 80 B6 0F  ................
00B0: 0D 80 00                                          ...             
```

#### Opcodes

```
  0: 0x009A [0xB6] ENTITY_APPEARANCE_HANDLER(case=Full entity look, race=8*, hair=0*, head=125*, body=96*, hands=96*, legs=96*, feet=96*, main=117*, sub=117*)
  1: 0x00AE [0xB6] ENTITY_APPEARANCE_HANDLER(case=Model size, value=100*)
  2: 0x00B2 [0x00] END_REQSTACK()
```

### Event 65535.13

#### Metadata

| Field        | Value    |
|--------------|----------|
| Entrypoint   | 0x00B3   |
| Data Size    | 25 bytes |
| Instructions | 3        |

```
      00 01 02 03 04 05 06 07  08 09 0A 0B 0C 0D 0E 0F
      -- -- -- -- -- -- -- --  -- -- -- -- -- -- -- --
00B0:          B6 0B 09 80 06  80 0A 80 0B 80 0B 80 0B     .............
00C0: 80 0B 80 0C 80 0C 80 B6  0F 0D 80 00              ............    
```

#### Opcodes

```
  0: 0x00B3 [0xB6] ENTITY_APPEARANCE_HANDLER(case=Full entity look, race=8*, hair=3*, head=125*, body=96*, hands=96*, legs=96*, feet=96*, main=117*, sub=117*)
  1: 0x00C7 [0xB6] ENTITY_APPEARANCE_HANDLER(case=Model size, value=100*)
  2: 0x00CB [0x00] END_REQSTACK()
```

### Event 65535.14

#### Metadata

| Field        | Value    |
|--------------|----------|
| Entrypoint   | 0x00CC   |
| Data Size    | 25 bytes |
| Instructions | 3        |

```
      00 01 02 03 04 05 06 07  08 09 0A 0B 0C 0D 0E 0F
      -- -- -- -- -- -- -- --  -- -- -- -- -- -- -- --
00C0:                                      B6 0B 06 80              ....
00D0: 06 80 0E 80 0E 80 0F 80  0E 80 0E 80 10 80 11 80  ................
00E0: B6 0F 12 80 00                                    .....           
```

#### Opcodes

```
  0: 0x00CC [0xB6] ENTITY_APPEARANCE_HANDLER(case=Full entity look, race=3*, hair=3*, head=221*, body=221*, hands=13*, legs=221*, feet=221*, main=251*, sub=27*)
  1: 0x00E0 [0xB6] ENTITY_APPEARANCE_HANDLER(case=Model size, value=95*)
  2: 0x00E4 [0x00] END_REQSTACK()
```

### Event 65535.15

#### Metadata

| Field        | Value    |
|--------------|----------|
| Entrypoint   | 0x00E5   |
| Data Size    | 25 bytes |
| Instructions | 3        |

```
      00 01 02 03 04 05 06 07  08 09 0A 0B 0C 0D 0E 0F
      -- -- -- -- -- -- -- --  -- -- -- -- -- -- -- --
00E0:                B6 0B 06  80 06 80 0E 80 0E 80 0E       ...........
00F0: 80 0E 80 0E 80 13 80 11  80 B6 0F 12 80 00        ..............  
```

#### Opcodes

```
  0: 0x00E5 [0xB6] ENTITY_APPEARANCE_HANDLER(case=Full entity look, race=3*, hair=3*, head=221*, body=221*, hands=221*, legs=221*, feet=221*, main=250*, sub=27*)
  1: 0x00F9 [0xB6] ENTITY_APPEARANCE_HANDLER(case=Model size, value=95*)
  2: 0x00FD [0x00] END_REQSTACK()
```

### Event 65535.16

#### Metadata

| Field        | Value    |
|--------------|----------|
| Entrypoint   | 0x00FE   |
| Data Size    | 25 bytes |
| Instructions | 3        |

```
      00 01 02 03 04 05 06 07  08 09 0A 0B 0C 0D 0E 0F
      -- -- -- -- -- -- -- --  -- -- -- -- -- -- -- --
00F0:                                            B6 0B                ..
0100: 06 80 14 80 0F 80 0E 80  0F 80 15 80 0E 80 10 80  ................
0110: 11 80 B6 0F 12 80 00                              .......         
```

#### Opcodes

```
  0: 0x00FE [0xB6] ENTITY_APPEARANCE_HANDLER(case=Full entity look, race=3*, hair=4*, head=13*, body=221*, hands=13*, legs=12*, feet=221*, main=251*, sub=27*)
  1: 0x0112 [0xB6] ENTITY_APPEARANCE_HANDLER(case=Model size, value=95*)
  2: 0x0116 [0x00] END_REQSTACK()
```

### Event 65535.17

#### Metadata

| Field        | Value    |
|--------------|----------|
| Entrypoint   | 0x0117   |
| Data Size    | 25 bytes |
| Instructions | 3        |

```
      00 01 02 03 04 05 06 07  08 09 0A 0B 0C 0D 0E 0F
      -- -- -- -- -- -- -- --  -- -- -- -- -- -- -- --
0110:                      B6  0B 06 80 09 80 15 80 15         .........
0120: 80 15 80 15 80 15 80 10  80 11 80 B6 0F 12 80 00  ................
```

#### Opcodes

```
  0: 0x0117 [0xB6] ENTITY_APPEARANCE_HANDLER(case=Full entity look, race=3*, hair=8*, head=12*, body=12*, hands=12*, legs=12*, feet=12*, main=251*, sub=27*)
  1: 0x012B [0xB6] ENTITY_APPEARANCE_HANDLER(case=Model size, value=95*)
  2: 0x012F [0x00] END_REQSTACK()
```

### Event 65535.18

#### Metadata

| Field        | Value    |
|--------------|----------|
| Entrypoint   | 0x0130   |
| Data Size    | 15 bytes |
| Instructions | 5        |

```
      00 01 02 03 04 05 06 07  08 09 0A 0B 0C 0D 0E 0F
      -- -- -- -- -- -- -- --  -- -- -- -- -- -- -- --
0130: 32 16 80 1F 00 17 80 18  80 19 80 1F 01 6F 00     2............o. 
```

#### Opcodes

```
  0: 0x0130 [0x32] ExtData[1]->MainSpeed = 40* * 0.1
  1: 0x0133 [0x1F] MOVE_ENTITY: EventEntity moves to X=-125.636*, Z=-48.762*, Y=-24.607*
  2: 0x013B [0x1F] MOVE_ENTITY: Update entity position (mode=1)
  3: 0x013D [0x6F] WAIT_FRAME_DELAY: Yield until WaitTime reaches zero
  4: 0x013E [0x00] END_REQSTACK()
```

### Event 65535.19

#### Metadata

| Field        | Value    |
|--------------|----------|
| Entrypoint   | 0x013F   |
| Data Size    | 21 bytes |
| Instructions | 2        |

```
      00 01 02 03 04 05 06 07  08 09 0A 0B 0C 0D 0E 0F
      -- -- -- -- -- -- -- --  -- -- -- -- -- -- -- --
0130:                                               B6                 .
0140: 0B 01 80 00 80 1A 80 1B  80 1B 80 1B 80 1B 80 1C  ................
0150: 80 1D 80 00                                       ....            
```

#### Opcodes

```
  0: 0x013F [0xB6] ENTITY_APPEARANCE_HANDLER(case=Full entity look, race=1*, hair=0*, head=73*, body=162*, hands=162*, legs=162*, feet=162*, main=181*, sub=44*)
  1: 0x0153 [0x00] END_REQSTACK()
```

### Event 65535.20

#### Metadata

| Field        | Value    |
|--------------|----------|
| Entrypoint   | 0x0154   |
| Data Size    | 21 bytes |
| Instructions | 2        |

```
      00 01 02 03 04 05 06 07  08 09 0A 0B 0C 0D 0E 0F
      -- -- -- -- -- -- -- --  -- -- -- -- -- -- -- --
0150:             B6 0B 1E 80  1F 80 00 80 1A 80 1A 80      ............
0160: 1A 80 1A 80 20 80 00 80  00                       .... ....       
```

#### Opcodes

```
  0: 0x0154 [0xB6] ENTITY_APPEARANCE_HANDLER(case=Full entity look, race=2*, hair=26*, head=0*, body=73*, hands=73*, legs=73*, feet=73*, main=185*, sub=0*)
  1: 0x0168 [0x00] END_REQSTACK()
```

### Event 65535.21

#### Metadata

| Field        | Value    |
|--------------|----------|
| Entrypoint   | 0x0169   |
| Data Size    | 21 bytes |
| Instructions | 2        |

```
      00 01 02 03 04 05 06 07  08 09 0A 0B 0C 0D 0E 0F
      -- -- -- -- -- -- -- --  -- -- -- -- -- -- -- --
0160:                             B6 0B 1E 80 00 80 21           ......!
0170: 80 21 80 21 80 21 80 21  80 22 80 00 80 00        .!.!.!.!."....  
```

#### Opcodes

```
  0: 0x0169 [0xB6] ENTITY_APPEARANCE_HANDLER(case=Full entity look, race=2*, hair=0*, head=214*, body=214*, hands=214*, legs=214*, feet=214*, main=359*, sub=0*)
  1: 0x017D [0x00] END_REQSTACK()
```

### Event 65535.22

#### Metadata

| Field        | Value    |
|--------------|----------|
| Entrypoint   | 0x017E   |
| Data Size    | 21 bytes |
| Instructions | 2        |

```
      00 01 02 03 04 05 06 07  08 09 0A 0B 0C 0D 0E 0F
      -- -- -- -- -- -- -- --  -- -- -- -- -- -- -- --
0170:                                            B6 0B                ..
0180: 09 80 23 80 1F 80 24 80  24 80 24 80 25 80 26 80  ..#...$.$.$.%.&.
0190: 26 80 00                                          &..             
```

#### Opcodes

```
  0: 0x017E [0xB6] ENTITY_APPEARANCE_HANDLER(case=Full entity look, race=8*, hair=15*, head=26*, body=29*, hands=29*, legs=29*, feet=110*, main=132*, sub=132*)
  1: 0x0192 [0x00] END_REQSTACK()
```

### Event 65535.23

#### Metadata

| Field        | Value    |
|--------------|----------|
| Entrypoint   | 0x0193   |
| Data Size    | 21 bytes |
| Instructions | 2        |

```
      00 01 02 03 04 05 06 07  08 09 0A 0B 0C 0D 0E 0F
      -- -- -- -- -- -- -- --  -- -- -- -- -- -- -- --
0190:          B6 0B 27 80 28  80 29 80 29 80 29 80 29     ..'.(.).).).)
01A0: 80 29 80 2A 80 00 80 00                           .).*....        
```

#### Opcodes

```
  0: 0x0193 [0xB6] ENTITY_APPEARANCE_HANDLER(case=Full entity look, race=5*, hair=9*, head=220*, body=220*, hands=220*, legs=220*, feet=220*, main=342*, sub=0*)
  1: 0x01A7 [0x00] END_REQSTACK()
```

### Event 65535.24

#### Metadata

| Field        | Value    |
|--------------|----------|
| Entrypoint   | 0x01A8   |
| Data Size    | 21 bytes |
| Instructions | 2        |

```
      00 01 02 03 04 05 06 07  08 09 0A 0B 0C 0D 0E 0F
      -- -- -- -- -- -- -- --  -- -- -- -- -- -- -- --
01A0:                          B6 0B 2B 80 06 80 2C 80          ..+...,.
01B0: 2D 80 2E 80 2E 80 2E 80  2F 80 30 80 00           -......./.0..   
```

#### Opcodes

```
  0: 0x01A8 [0xB6] ENTITY_APPEARANCE_HANDLER(case=Full entity look, race=6*, hair=3*, head=116*, body=97*, hands=20*, legs=20*, feet=20*, main=109*, sub=37*)
  1: 0x01BC [0x00] END_REQSTACK()
```

### Event 65535.25

#### Metadata

| Field        | Value    |
|--------------|----------|
| Entrypoint   | 0x01BD   |
| Data Size    | 21 bytes |
| Instructions | 2        |

```
      00 01 02 03 04 05 06 07  08 09 0A 0B 0C 0D 0E 0F
      -- -- -- -- -- -- -- --  -- -- -- -- -- -- -- --
01B0:                                         B6 0B 27               ..'
01C0: 80 0F 80 31 80 32 80 33  80 33 80 33 80 34 80 00  ...1.2.3.3.3.4..
01D0: 80 00                                             ..              
```

#### Opcodes

```
  0: 0x01BD [0xB6] ENTITY_APPEARANCE_HANDLER(case=Full entity look, race=5*, hair=13*, head=205*, body=186*, hands=148*, legs=148*, feet=148*, main=305*, sub=0*)
  1: 0x01D1 [0x00] END_REQSTACK()
```

### Event 65535.26

#### Metadata

| Field        | Value    |
|--------------|----------|
| Entrypoint   | 0x01D2   |
| Data Size    | 21 bytes |
| Instructions | 2        |

```
      00 01 02 03 04 05 06 07  08 09 0A 0B 0C 0D 0E 0F
      -- -- -- -- -- -- -- --  -- -- -- -- -- -- -- --
01D0:       B6 0B 35 80 1F 80  00 80 36 80 37 80 38 80    ..5.....6.7.8.
01E0: 00 80 39 80 00 80 00                              ..9....         
```

#### Opcodes

```
  0: 0x01D2 [0xB6] ENTITY_APPEARANCE_HANDLER(case=Full entity look, race=7*, hair=26*, head=0*, body=35*, hands=54*, legs=219*, feet=0*, main=369*, sub=0*)
  1: 0x01E6 [0x00] END_REQSTACK()
```

### Event 65535.27

#### Metadata

| Field        | Value    |
|--------------|----------|
| Entrypoint   | 0x01E7   |
| Data Size    | 13 bytes |
| Instructions | 3        |

```
      00 01 02 03 04 05 06 07  08 09 0A 0B 0C 0D 0E 0F
      -- -- -- -- -- -- -- --  -- -- -- -- -- -- -- --
01E0:                      6E  F8 FF FF 7F 3A 80 99 F8         n....:...
01F0: FF FF 7F 00                                       ....            
```

#### Opcodes

```
  0: 0x01E7 [0x6E] EventEntity uses emote 1323*
  1: 0x01EE [0x99] Wait for EventEntity animation to complete
  2: 0x01F3 [0x00] END_REQSTACK()
```

### Event 65535.28

#### Metadata

| Field        | Value    |
|--------------|----------|
| Entrypoint   | 0x01F4   |
| Data Size    | 13 bytes |
| Instructions | 3        |

```
      00 01 02 03 04 05 06 07  08 09 0A 0B 0C 0D 0E 0F
      -- -- -- -- -- -- -- --  -- -- -- -- -- -- -- --
01F0:             6E F8 FF FF  7F 3B 80 99 F8 FF FF 7F      n....;......
0200: 00                                                .               
```

#### Opcodes

```
  0: 0x01F4 [0x6E] EventEntity uses emote 43*
  1: 0x01FB [0x99] Wait for EventEntity animation to complete
  2: 0x0200 [0x00] END_REQSTACK()
```

### Event 65535.29

#### Metadata

| Field        | Value    |
|--------------|----------|
| Entrypoint   | 0x0201   |
| Data Size    | 13 bytes |
| Instructions | 3        |

```
      00 01 02 03 04 05 06 07  08 09 0A 0B 0C 0D 0E 0F
      -- -- -- -- -- -- -- --  -- -- -- -- -- -- -- --
0200:    6E F8 FF FF 7F 3C 80  99 F8 FF FF 7F 00         n....<.......  
```

#### Opcodes

```
  0: 0x0201 [0x6E] EventEntity uses emote 36*
  1: 0x0208 [0x99] Wait for EventEntity animation to complete
  2: 0x020D [0x00] END_REQSTACK()
```

### Event 65535.30

#### Metadata

| Field        | Value    |
|--------------|----------|
| Entrypoint   | 0x020E   |
| Data Size    | 13 bytes |
| Instructions | 3        |

```
      00 01 02 03 04 05 06 07  08 09 0A 0B 0C 0D 0E 0F
      -- -- -- -- -- -- -- --  -- -- -- -- -- -- -- --
0200:                                            6E F8                n.
0210: FF FF 7F 15 80 99 F8 FF  FF 7F 00                 ...........     
```

#### Opcodes

```
  0: 0x020E [0x6E] EventEntity uses emote 12*
  1: 0x0215 [0x99] Wait for EventEntity animation to complete
  2: 0x021A [0x00] END_REQSTACK()
```

### Event 42

#### Metadata

| Field        | Value   |
|--------------|---------|
| Entrypoint   | 0x021B  |
| Data Size    | 1 bytes |
| Instructions | 1       |

```
      00 01 02 03 04 05 06 07  08 09 0A 0B 0C 0D 0E 0F
      -- -- -- -- -- -- -- --  -- -- -- -- -- -- -- --
0210:                                   00                         .    
```

#### Opcodes

```
  0: 0x021B [0x00] END_REQSTACK()
```
