# 17339226 - Ragelise

## Common Data

| Field            | Value                   |
|------------------|-------------------------|
| Zone             | Xarcabard [S] (ID: 137) |
| Block Size       | 968 bytes               |
| Total Events     | 28                      |
| References Count | 56                      |

## List of Events

| Event ID                   | Entrypoint   |   Size |   Instructions |
|----------------------------|--------------|--------|----------------|
| [65535](#event-65535)      | 0x0000       |      1 |              1 |
| [65535.1](#event-655351)   | 0x0001       |      1 |              1 |
| [65535.2](#event-655352)   | 0x0002       |     18 |              4 |
| [65535.3](#event-655353)   | 0x0014       |     10 |              2 |
| [65535.4](#event-655354)   | 0x001E       |      9 |              3 |
| [65535.5](#event-655355)   | 0x0027       |      9 |              3 |
| [65535.6](#event-655356)   | 0x0030       |     10 |              2 |
| [65535.7](#event-655357)   | 0x003A       |     10 |              2 |
| [65535.8](#event-655358)   | 0x0044       |     20 |              5 |
| [65535.9](#event-655359)   | 0x0058       |     21 |              5 |
| [65535.10](#event-6553510) | 0x006D       |     33 |              8 |
| [65535.11](#event-6553511) | 0x008E       |     29 |              6 |
| [65535.12](#event-6553512) | 0x00AB       |     20 |              5 |
| [65535.13](#event-6553513) | 0x00BF       |     20 |              5 |
| [65535.14](#event-6553514) | 0x00D3       |     20 |              5 |
| [65535.15](#event-6553515) | 0x00E7       |     20 |              5 |
| [65535.16](#event-6553516) | 0x00FB       |     20 |              5 |
| [23](#event-23)            | 0x010F       |      1 |              1 |
| [39](#event-39)            | 0x0110       |      1 |              1 |
| [24](#event-24)            | 0x0111       |      1 |              1 |
| [18](#event-18)            | 0x0112       |      1 |              1 |
| [65535.17](#event-6553517) | 0x0113       |     37 |              5 |
| [65535.18](#event-6553518) | 0x0138       |     37 |              5 |
| [41](#event-41)            | 0x015D       |     36 |              4 |
| [65535.19](#event-6553519) | 0x0181       |    169 |             34 |
| [65535.20](#event-6553520) | 0x022A       |     15 |              5 |
| [65535.21](#event-6553521) | 0x0239       |     20 |              6 |
| [65535.22](#event-6553522) | 0x024D       |     25 |              6 |

## DAT References (imed_data)

|   Index | Hex Value   |   Dec Value |
|---------|-------------|-------------|
|       0 | 0x0000      |           0 |
|       1 | 0x0001      |           1 |
|       2 | 0x0080      |         128 |
|       3 | 0x000B      |          11 |
|       4 | 0xFFFD76B4  |  4294801076 |
|       5 | 0xFFFF65EE  |  4294927854 |
|       6 | 0xFFFFA4D0  |  4294943952 |
|       7 | 0x0007      |           7 |
|       8 | 0x0078      |         120 |
|       9 | 0x000D      |          13 |
|      10 | 0x009A      |         154 |
|      11 | 0xFFFD76A6  |  4294801062 |
|      12 | 0xFFFF6586  |  4294927750 |
|      13 | 0xFFFFA4D2  |  4294943954 |
|      14 | 0xFFFD86E6  |  4294805222 |
|      15 | 0xFFFF73E1  |  4294931425 |
|      16 | 0xFFFFA2A0  |  4294943392 |
|      17 | 0xFFFD8809  |  4294805513 |
|      18 | 0xFFFF7BBF  |  4294933439 |
|      19 | 0xFFFFA306  |  4294943494 |
|      20 | 0xFFFD77B6  |  4294801334 |
|      21 | 0xFFFFFAD8  |  4294965976 |
|      22 | 0xFFFFC2ED  |  4294951661 |
|      23 | 0xFFFD8802  |  4294805506 |
|      24 | 0x05A8      |        1448 |
|      25 | 0xFFFFC220  |  4294951456 |
|      26 | 0xFFFD80DB  |  4294803675 |
|      27 | 0x1E76      |        7798 |
|      28 | 0xFFFFC1FD  |  4294951421 |
|      29 | 0xFFFD7EDE  |  4294803166 |
|      30 | 0x21E6      |        8678 |
|      31 | 0xFFFFC241  |  4294951489 |
|      32 | 0x0003      |           3 |
|      33 | 0x001F      |          31 |
|      34 | 0x00F2      |         242 |
|      35 | 0x0194      |         404 |
|      36 | 0x001E      |          30 |
|      37 | 0x001B      |          27 |
|      38 | 0x00D9      |         217 |
|      39 | 0x00FA      |         250 |
|      40 | 0x0005      |           5 |
|      41 | 0x0002      |           2 |
|      42 | 0x000A      |          10 |
|      43 | 0x0009      |           9 |
|      44 | 0x0046      |          70 |
|      45 | 0x008C      |         140 |
|      46 | 0x00D2      |         210 |
|      47 | 0xFFFDC26F  |  4294820463 |
|      48 | 0xFFFF779A  |  4294932378 |
|      49 | 0xFFFF9EA2  |  4294942370 |
|      50 | 0xFFFDC5ED  |  4294821357 |
|      51 | 0xFFFF5748  |  4294924104 |
|      52 | 0xFFFFA49B  |  4294943899 |
|      53 | 0xFFFE10D8  |  4294840536 |
|      54 | 0xFFFF4929  |  4294920489 |
|      55 | 0xFFFFA16F  |  4294943087 |

## Events

### Event 65535

#### Metadata

| Field        | Value   |
|--------------|---------|
| Entrypoint   | 0x0000  |
| Data Size    | 1 bytes |
| Instructions | 1       |

```
      00 01 02 03 04 05 06 07  08 09 0A 0B 0C 0D 0E 0F
      -- -- -- -- -- -- -- --  -- -- -- -- -- -- -- --
0000: 00                                                .               
```

#### Opcodes

```
  0: 0x0000 [0x00] END_REQSTACK()
```

### Event 65535.1

#### Metadata

| Field        | Value   |
|--------------|---------|
| Entrypoint   | 0x0001  |
| Data Size    | 1 bytes |
| Instructions | 1       |

```
      00 01 02 03 04 05 06 07  08 09 0A 0B 0C 0D 0E 0F
      -- -- -- -- -- -- -- --  -- -- -- -- -- -- -- --
0000:    00                                              .              
```

#### Opcodes

```
  0: 0x0001 [0x00] END_REQSTACK()
```

### Event 65535.2

#### Metadata

| Field        | Value    |
|--------------|----------|
| Entrypoint   | 0x0002   |
| Data Size    | 18 bytes |
| Instructions | 4        |

```
      00 01 02 03 04 05 06 07  08 09 0A 0B 0C 0D 0E 0F
      -- -- -- -- -- -- -- --  -- -- -- -- -- -- -- --
0000:       22 00 2F 00 F8 FF  FF 7F 6C F8 FF FF 7F 00    "./.....l.....
0010: 80 01 80 00                                       ....            
```

#### Opcodes

```
  0: 0x0002 [0x22] ENTITY_HIDE_FLAG(enabled=0x00)
  1: 0x0004 [0x2F] EventEntity->Render.Flags0 &= ~0x80000 // Bit 19
  2: 0x000A [0x6C] FADE_ENTITY_COLOR(entity_id=EventEntity, end_alpha=0*, fade_time=1*)
  3: 0x0013 [0x00] END_REQSTACK()
```

### Event 65535.3

#### Metadata

| Field        | Value    |
|--------------|----------|
| Entrypoint   | 0x0014   |
| Data Size    | 10 bytes |
| Instructions | 2        |

```
      00 01 02 03 04 05 06 07  08 09 0A 0B 0C 0D 0E 0F
      -- -- -- -- -- -- -- --  -- -- -- -- -- -- -- --
0010:             6C F8 FF FF  7F 02 80 01 80 00            l.........  
```

#### Opcodes

```
  0: 0x0014 [0x6C] FADE_ENTITY_COLOR(entity_id=EventEntity, end_alpha=128*, fade_time=1*)
  1: 0x001D [0x00] END_REQSTACK()
```

### Event 65535.4

#### Metadata

| Field        | Value   |
|--------------|---------|
| Entrypoint   | 0x001E  |
| Data Size    | 9 bytes |
| Instructions | 3       |

```
      00 01 02 03 04 05 06 07  08 09 0A 0B 0C 0D 0E 0F
      -- -- -- -- -- -- -- --  -- -- -- -- -- -- -- --
0010:                                            22 00                ".
0020: 2F 00 F8 FF FF 7F 00                              /......         
```

#### Opcodes

```
  0: 0x001E [0x22] ENTITY_HIDE_FLAG(enabled=0x00)
  1: 0x0020 [0x2F] EventEntity->Render.Flags0 &= ~0x80000 // Bit 19
  2: 0x0026 [0x00] END_REQSTACK()
```

### Event 65535.5

#### Metadata

| Field        | Value   |
|--------------|---------|
| Entrypoint   | 0x0027  |
| Data Size    | 9 bytes |
| Instructions | 3       |

```
      00 01 02 03 04 05 06 07  08 09 0A 0B 0C 0D 0E 0F
      -- -- -- -- -- -- -- --  -- -- -- -- -- -- -- --
0020:                      22  01 2F 01 F8 FF FF 7F 00         "./......
```

#### Opcodes

```
  0: 0x0027 [0x22] ENTITY_HIDE_FLAG(enabled=0x01)
  1: 0x0029 [0x2F] EventEntity->Render.Flags0 |= 0x80000 // Bit 19
  2: 0x002F [0x00] END_REQSTACK()
```

### Event 65535.6

#### Metadata

| Field        | Value    |
|--------------|----------|
| Entrypoint   | 0x0030   |
| Data Size    | 10 bytes |
| Instructions | 2        |

```
      00 01 02 03 04 05 06 07  08 09 0A 0B 0C 0D 0E 0F
      -- -- -- -- -- -- -- --  -- -- -- -- -- -- -- --
0030: 6C F8 FF FF 7F 00 80 01  80 00                    l.........      
```

#### Opcodes

```
  0: 0x0030 [0x6C] FADE_ENTITY_COLOR(entity_id=EventEntity, end_alpha=0*, fade_time=1*)
  1: 0x0039 [0x00] END_REQSTACK()
```

### Event 65535.7

#### Metadata

| Field        | Value    |
|--------------|----------|
| Entrypoint   | 0x003A   |
| Data Size    | 10 bytes |
| Instructions | 2        |

```
      00 01 02 03 04 05 06 07  08 09 0A 0B 0C 0D 0E 0F
      -- -- -- -- -- -- -- --  -- -- -- -- -- -- -- --
0030:                                6C F8 FF FF 7F 02            l.....
0040: 80 01 80 00                                       ....            
```

#### Opcodes

```
  0: 0x003A [0x6C] FADE_ENTITY_COLOR(entity_id=EventEntity, end_alpha=128*, fade_time=1*)
  1: 0x0043 [0x00] END_REQSTACK()
```

### Event 65535.8

#### Metadata

| Field        | Value    |
|--------------|----------|
| Entrypoint   | 0x0044   |
| Data Size    | 20 bytes |
| Instructions | 5        |

```
      00 01 02 03 04 05 06 07  08 09 0A 0B 0C 0D 0E 0F
      -- -- -- -- -- -- -- --  -- -- -- -- -- -- -- --
0040:             59 04 F8 FF  FF 7F 03 80 1F 00 04 80      Y...........
0050: 05 80 06 80 1F 01 6F 00                           ......o.        
```

#### Opcodes

```
  0: 0x0044 [0x59] UPDATE_ENTITY_DATA: Set EventEntity main speed = 11* * 0.1
  1: 0x004C [0x1F] MOVE_ENTITY: EventEntity moves to X=-166.220*, Z=-39.442*, Y=-23.344*
  2: 0x0054 [0x1F] MOVE_ENTITY: Update entity position (mode=1)
  3: 0x0056 [0x6F] WAIT_FRAME_DELAY: Yield until WaitTime reaches zero
  4: 0x0057 [0x00] END_REQSTACK()
```

### Event 65535.9

#### Metadata

| Field        | Value    |
|--------------|----------|
| Entrypoint   | 0x0058   |
| Data Size    | 21 bytes |
| Instructions | 5        |

```
      00 01 02 03 04 05 06 07  08 09 0A 0B 0C 0D 0E 0F
      -- -- -- -- -- -- -- --  -- -- -- -- -- -- -- --
0050:                          7B F8 FF FF 7F 6E F8 FF          {....n..
0060: FF 7F 07 80 99 F8 FF FF  7F 1C 08 80 00           .............   
```

#### Opcodes

```
  0: 0x0058 [0x7B] EventEntity stops talking
  1: 0x005D [0x6E] EventEntity uses emote 7*
  2: 0x0064 [0x99] Wait for EventEntity animation to complete
  3: 0x0069 [0x1C] WAIT(120* ticks)
  4: 0x006C [0x00] END_REQSTACK()
```

### Event 65535.10

#### Metadata

| Field        | Value    |
|--------------|----------|
| Entrypoint   | 0x006D   |
| Data Size    | 33 bytes |
| Instructions | 8        |

```
      00 01 02 03 04 05 06 07  08 09 0A 0B 0C 0D 0E 0F
      -- -- -- -- -- -- -- --  -- -- -- -- -- -- -- --
0060:                                         59 04 F8               Y..
0070: FF FF 7F 09 80 4B F8 FF  FF 7F 0A 80 6F 76 F8 FF  .....K......ov..
0080: FF 7F 1F 00 0B 80 0C 80  0D 80 1F 01 6F 00        ............o.  
```

#### Opcodes

```
  0: 0x006D [0x59] UPDATE_ENTITY_DATA: Set EventEntity main speed = 13* * 0.1
  1: 0x0075 [0x4B] UPDATE_ENTITY_YAW(entity=EventEntity, yaw=0.8°*)
  2: 0x007C [0x6F] WAIT_FRAME_DELAY: Yield until WaitTime reaches zero
  3: 0x007D [0x76] CHECK_ENTITY_RENDER_FLAGS: Wait until EventEntity Render.Flags0 and Render.Flags3 conditions are met
  4: 0x0082 [0x1F] MOVE_ENTITY: EventEntity moves to X=-166.234*, Z=-39.546*, Y=-23.342*
  5: 0x008A [0x1F] MOVE_ENTITY: Update entity position (mode=1)
  6: 0x008C [0x6F] WAIT_FRAME_DELAY: Yield until WaitTime reaches zero
  7: 0x008D [0x00] END_REQSTACK()
```

### Event 65535.11

#### Metadata

| Field        | Value    |
|--------------|----------|
| Entrypoint   | 0x008E   |
| Data Size    | 29 bytes |
| Instructions | 6        |

```
      00 01 02 03 04 05 06 07  08 09 0A 0B 0C 0D 0E 0F
      -- -- -- -- -- -- -- --  -- -- -- -- -- -- -- --
0080:                                            59 04                Y.
0090: F8 FF FF 7F 09 80 1F 00  0E 80 0F 80 10 80 1F 01  ................
00A0: 6F 4A F8 FF FF 7F 5C 93  08 01 00                 oJ....\....     
```

#### Opcodes

```
  0: 0x008E [0x59] UPDATE_ENTITY_DATA: Set EventEntity main speed = 13* * 0.1
  1: 0x0096 [0x1F] MOVE_ENTITY: EventEntity moves to X=-162.074*, Z=-35.871*, Y=-23.904*
  2: 0x009E [0x1F] MOVE_ENTITY: Update entity position (mode=1)
  3: 0x00A0 [0x6F] WAIT_FRAME_DELAY: Yield until WaitTime reaches zero
  4: 0x00A1 [0x4A] EventEntity looks at Vestillet (ID: 17339228/0x0108935C)
  5: 0x00AA [0x00] END_REQSTACK()
```

### Event 65535.12

#### Metadata

| Field        | Value    |
|--------------|----------|
| Entrypoint   | 0x00AB   |
| Data Size    | 20 bytes |
| Instructions | 5        |

```
      00 01 02 03 04 05 06 07  08 09 0A 0B 0C 0D 0E 0F
      -- -- -- -- -- -- -- --  -- -- -- -- -- -- -- --
00A0:                                   59 04 F8 FF FF             Y....
00B0: 7F 09 80 1F 00 11 80 12  80 13 80 1F 01 6F 00     .............o. 
```

#### Opcodes

```
  0: 0x00AB [0x59] UPDATE_ENTITY_DATA: Set EventEntity main speed = 13* * 0.1
  1: 0x00B3 [0x1F] MOVE_ENTITY: EventEntity moves to X=-161.783*, Z=-33.857*, Y=-23.802*
  2: 0x00BB [0x1F] MOVE_ENTITY: Update entity position (mode=1)
  3: 0x00BD [0x6F] WAIT_FRAME_DELAY: Yield until WaitTime reaches zero
  4: 0x00BE [0x00] END_REQSTACK()
```

### Event 65535.13

#### Metadata

| Field        | Value    |
|--------------|----------|
| Entrypoint   | 0x00BF   |
| Data Size    | 20 bytes |
| Instructions | 5        |

```
      00 01 02 03 04 05 06 07  08 09 0A 0B 0C 0D 0E 0F
      -- -- -- -- -- -- -- --  -- -- -- -- -- -- -- --
00B0:                                               59                 Y
00C0: 04 F8 FF FF 7F 09 80 1F  00 14 80 15 80 16 80 1F  ................
00D0: 01 6F 00                                          .o.             
```

#### Opcodes

```
  0: 0x00BF [0x59] UPDATE_ENTITY_DATA: Set EventEntity main speed = 13* * 0.1
  1: 0x00C7 [0x1F] MOVE_ENTITY: EventEntity moves to X=-165.962*, Z=-1.320*, Y=-15.635*
  2: 0x00CF [0x1F] MOVE_ENTITY: Update entity position (mode=1)
  3: 0x00D1 [0x6F] WAIT_FRAME_DELAY: Yield until WaitTime reaches zero
  4: 0x00D2 [0x00] END_REQSTACK()
```

### Event 65535.14

#### Metadata

| Field        | Value    |
|--------------|----------|
| Entrypoint   | 0x00D3   |
| Data Size    | 20 bytes |
| Instructions | 5        |

```
      00 01 02 03 04 05 06 07  08 09 0A 0B 0C 0D 0E 0F
      -- -- -- -- -- -- -- --  -- -- -- -- -- -- -- --
00D0:          59 04 F8 FF FF  7F 09 80 1F 00 17 80 18     Y............
00E0: 80 19 80 1F 01 6F 00                              .....o.         
```

#### Opcodes

```
  0: 0x00D3 [0x59] UPDATE_ENTITY_DATA: Set EventEntity main speed = 13* * 0.1
  1: 0x00DB [0x1F] MOVE_ENTITY: EventEntity moves to X=-161.790*, Z=1.448*, Y=-15.840*
  2: 0x00E3 [0x1F] MOVE_ENTITY: Update entity position (mode=1)
  3: 0x00E5 [0x6F] WAIT_FRAME_DELAY: Yield until WaitTime reaches zero
  4: 0x00E6 [0x00] END_REQSTACK()
```

### Event 65535.15

#### Metadata

| Field        | Value    |
|--------------|----------|
| Entrypoint   | 0x00E7   |
| Data Size    | 20 bytes |
| Instructions | 5        |

```
      00 01 02 03 04 05 06 07  08 09 0A 0B 0C 0D 0E 0F
      -- -- -- -- -- -- -- --  -- -- -- -- -- -- -- --
00E0:                      59  04 F8 FF FF 7F 03 80 1F         Y........
00F0: 00 1A 80 1B 80 1C 80 1F  01 6F 00                 .........o.     
```

#### Opcodes

```
  0: 0x00E7 [0x59] UPDATE_ENTITY_DATA: Set EventEntity main speed = 11* * 0.1
  1: 0x00EF [0x1F] MOVE_ENTITY: EventEntity moves to X=-163.621*, Z=7.798*, Y=-15.875*
  2: 0x00F7 [0x1F] MOVE_ENTITY: Update entity position (mode=1)
  3: 0x00F9 [0x6F] WAIT_FRAME_DELAY: Yield until WaitTime reaches zero
  4: 0x00FA [0x00] END_REQSTACK()
```

### Event 65535.16

#### Metadata

| Field        | Value    |
|--------------|----------|
| Entrypoint   | 0x00FB   |
| Data Size    | 20 bytes |
| Instructions | 5        |

```
      00 01 02 03 04 05 06 07  08 09 0A 0B 0C 0D 0E 0F
      -- -- -- -- -- -- -- --  -- -- -- -- -- -- -- --
00F0:                                   59 04 F8 FF FF             Y....
0100: 7F 03 80 1F 00 1D 80 1E  80 1F 80 1F 01 6F 00     .............o. 
```

#### Opcodes

```
  0: 0x00FB [0x59] UPDATE_ENTITY_DATA: Set EventEntity main speed = 11* * 0.1
  1: 0x0103 [0x1F] MOVE_ENTITY: EventEntity moves to X=-164.130*, Z=8.678*, Y=-15.807*
  2: 0x010B [0x1F] MOVE_ENTITY: Update entity position (mode=1)
  3: 0x010D [0x6F] WAIT_FRAME_DELAY: Yield until WaitTime reaches zero
  4: 0x010E [0x00] END_REQSTACK()
```

### Event 23

#### Metadata

| Field        | Value   |
|--------------|---------|
| Entrypoint   | 0x010F  |
| Data Size    | 1 bytes |
| Instructions | 1       |

```
      00 01 02 03 04 05 06 07  08 09 0A 0B 0C 0D 0E 0F
      -- -- -- -- -- -- -- --  -- -- -- -- -- -- -- --
0100:                                               00                 .
```

#### Opcodes

```
  0: 0x010F [0x00] END_REQSTACK()
```

### Event 39

#### Metadata

| Field        | Value   |
|--------------|---------|
| Entrypoint   | 0x0110  |
| Data Size    | 1 bytes |
| Instructions | 1       |

```
      00 01 02 03 04 05 06 07  08 09 0A 0B 0C 0D 0E 0F
      -- -- -- -- -- -- -- --  -- -- -- -- -- -- -- --
0110: 00                                                .               
```

#### Opcodes

```
  0: 0x0110 [0x00] END_REQSTACK()
```

### Event 24

#### Metadata

| Field        | Value   |
|--------------|---------|
| Entrypoint   | 0x0111  |
| Data Size    | 1 bytes |
| Instructions | 1       |

```
      00 01 02 03 04 05 06 07  08 09 0A 0B 0C 0D 0E 0F
      -- -- -- -- -- -- -- --  -- -- -- -- -- -- -- --
0110:    00                                              .              
```

#### Opcodes

```
  0: 0x0111 [0x00] END_REQSTACK()
```

### Event 18

#### Metadata

| Field        | Value   |
|--------------|---------|
| Entrypoint   | 0x0112  |
| Data Size    | 1 bytes |
| Instructions | 1       |

```
      00 01 02 03 04 05 06 07  08 09 0A 0B 0C 0D 0E 0F
      -- -- -- -- -- -- -- --  -- -- -- -- -- -- -- --
0110:       00                                            .             
```

#### Opcodes

```
  0: 0x0112 [0x00] END_REQSTACK()
```

### Event 65535.17

#### Metadata

| Field        | Value    |
|--------------|----------|
| Entrypoint   | 0x0113   |
| Data Size    | 37 bytes |
| Instructions | 5        |

```
      00 01 02 03 04 05 06 07  08 09 0A 0B 0C 0D 0E 0F
      -- -- -- -- -- -- -- --  -- -- -- -- -- -- -- --
0110:          03 00 00 07 7F  1A 96 01 66 01 00 F8 FF     ........f....
0120: FF 7F F8 FF FF 7F 73 68  61 30 53 F8 FF FF 7F F8  ......sha0S.....
0130: FF FF 7F 73 68 61 30 00                           ...sha0.        
```

#### Opcodes

```
  0: 0x0113 [0x03] ExtData[1]->WorkLocal[0] = Entity->Race
  1: 0x0118 [0x1A] CALL_SUBROUTINE(address=0x0196)
  2: 0x011B [0x66] LOAD_EXT_SCHEDULER_MAIN: Load scheduler "sha0" with entities [EventEntity, EventEntity], work=ExtData[1]->WorkLocal[1]
  3: 0x012A [0x53] WAIT_SCHEDULER_TASK: Wait for scheduler "sha0" with entities [EventEntity, EventEntity]
  4: 0x0137 [0x00] END_REQSTACK()
```

### Event 65535.18

#### Metadata

| Field        | Value    |
|--------------|----------|
| Entrypoint   | 0x0138   |
| Data Size    | 37 bytes |
| Instructions | 5        |

```
      00 01 02 03 04 05 06 07  08 09 0A 0B 0C 0D 0E 0F
      -- -- -- -- -- -- -- --  -- -- -- -- -- -- -- --
0130:                          03 00 00 07 7F 1A 96 01          ........
0140: 66 01 00 F8 FF FF 7F F8  FF FF 7F 73 68 61 31 53  f..........sha1S
0150: F8 FF FF 7F F8 FF FF 7F  73 68 61 31 00           ........sha1.   
```

#### Opcodes

```
  0: 0x0138 [0x03] ExtData[1]->WorkLocal[0] = Entity->Race
  1: 0x013D [0x1A] CALL_SUBROUTINE(address=0x0196)
  2: 0x0140 [0x66] LOAD_EXT_SCHEDULER_MAIN: Load scheduler "sha1" with entities [EventEntity, EventEntity], work=ExtData[1]->WorkLocal[1]
  3: 0x014F [0x53] WAIT_SCHEDULER_TASK: Wait for scheduler "sha1" with entities [EventEntity, EventEntity]
  4: 0x015C [0x00] END_REQSTACK()
```

### Event 41

#### Metadata

| Field        | Value    |
|--------------|----------|
| Entrypoint   | 0x015D   |
| Data Size    | 36 bytes |
| Instructions | 4        |

```
      00 01 02 03 04 05 06 07  08 09 0A 0B 0C 0D 0E 0F
      -- -- -- -- -- -- -- --  -- -- -- -- -- -- -- --
0150:                                         92 01 F8               ...
0160: FF FF 7F B6 0B 20 80 21  80 00 80 22 80 22 80 22  ..... .!..."."."
0170: 80 22 80 23 80 24 80 6C  F8 FF FF 7F 00 80 01 80  .".#.$.l........
0180: 00                                                .               
```

#### Opcodes

```
  0: 0x015D [0x92] EventEntity->Render.Flags3 ^= 0x01
  1: 0x0163 [0xB6] ENTITY_APPEARANCE_HANDLER(case=Full entity look, race=3*, hair=31*, head=0*, body=242*, hands=242*, legs=242*, feet=242*, main=404*, sub=30*)
  2: 0x0177 [0x6C] FADE_ENTITY_COLOR(entity_id=EventEntity, end_alpha=0*, fade_time=1*)
  3: 0x0180 [0x00] END_REQSTACK()
```

### Event 65535.19

#### Metadata

| Field        | Value     |
|--------------|-----------|
| Entrypoint   | 0x0181    |
| Data Size    | 169 bytes |
| Instructions | 2         |

```
      00 01 02 03 04 05 06 07  08 09 0A 0B 0C 0D 0E 0F
      -- -- -- -- -- -- -- --  -- -- -- -- -- -- -- --
0180:    B6 0B 20 80 03 80 25  80 26 80 26 80 26 80 26   .. ...%.&.&.&.&
0190: 80 27 80 25 80 00 03 01  00 00 00 02 01 00 28 80  .'.%..........(.
01A0: 05 AB 01 08 01 00 01 80  01 B0 01 08 01 00 29 80  ..............).
01B0: 14 01 00 2A 80 07 01 00  2B 80 1B 03 01 00 00 00  ...*....+.......
01C0: 02 01 00 28 80 05 D0 01  08 01 00 01 80 01 D5 01  ...(............
01D0: 08 01 00 29 80 14 01 00  2A 80 07 01 00 2C 80 1B  ...)....*....,..
01E0: 03 01 00 00 00 02 01 00  28 80 05 F5 01 08 01 00  ........(.......
01F0: 01 80 01 FA 01 08 01 00  29 80 14 01 00 2A 80 07  ........)....*..
0200: 01 00 2D 80 1B 03 01 00  00 00 02 01 00 28 80 05  ..-..........(..
0210: 1A 02 08 01 00 01 80 01  1F 02 08 01 00 29 80 14  .............)..
0220: 01 00 2A 80 07 01 00 2E  80 1B                    ..*.......      
```

#### Opcodes

```
  0: 0x0181 [0xB6] ENTITY_APPEARANCE_HANDLER(case=Full entity look, race=3*, hair=11*, head=27*, body=217*, hands=217*, legs=217*, feet=217*, main=250*, sub=27*)
  1: 0x0195 [0x00] END_REQSTACK()
```

#### Data or dead code:

```
# Dead code (unreachable instructions):
     0x0196 [0x03] ExtData[1]->WorkLocal[1] = ExtData[1]->WorkLocal[0]
     0x019B [0x02] IF !(ExtData[1]->WorkLocal[1] > 5*) GOTO 0x01AB
     0x01A3 [0x08] ExtData[1]->WorkLocal[1] -= 1*
     0x01A8 [0x01] GOTO 0x01B0
     0x01AB [0x08] ExtData[1]->WorkLocal[1] -= 2*
     0x01B0 [0x14] ExtData[1]->WorkLocal[1] *= 10*
     0x01B5 [0x07] ExtData[1]->WorkLocal[1] += 9*
     0x01BA [0x1B] RETURN
     0x01BB [0x03] ExtData[1]->WorkLocal[1] = ExtData[1]->WorkLocal[0]
     0x01C0 [0x02] IF !(ExtData[1]->WorkLocal[1] > 5*) GOTO 0x01D0
     0x01C8 [0x08] ExtData[1]->WorkLocal[1] -= 1*
     0x01CD [0x01] GOTO 0x01D5
     0x01D0 [0x08] ExtData[1]->WorkLocal[1] -= 2*
     0x01D5 [0x14] ExtData[1]->WorkLocal[1] *= 10*
     0x01DA [0x07] ExtData[1]->WorkLocal[1] += 70*
     0x01DF [0x1B] RETURN
     0x01E0 [0x03] ExtData[1]->WorkLocal[1] = ExtData[1]->WorkLocal[0]
     0x01E5 [0x02] IF !(ExtData[1]->WorkLocal[1] > 5*) GOTO 0x01F5
     0x01ED [0x08] ExtData[1]->WorkLocal[1] -= 1*
     0x01F2 [0x01] GOTO 0x01FA
     0x01F5 [0x08] ExtData[1]->WorkLocal[1] -= 2*
     0x01FA [0x14] ExtData[1]->WorkLocal[1] *= 10*
     0x01FF [0x07] ExtData[1]->WorkLocal[1] += 140*
     0x0204 [0x1B] RETURN
     0x0205 [0x03] ExtData[1]->WorkLocal[1] = ExtData[1]->WorkLocal[0]
     0x020A [0x02] IF !(ExtData[1]->WorkLocal[1] > 5*) GOTO 0x021A
     0x0212 [0x08] ExtData[1]->WorkLocal[1] -= 1*
     0x0217 [0x01] GOTO 0x021F
     0x021A [0x08] ExtData[1]->WorkLocal[1] -= 2*
     0x021F [0x14] ExtData[1]->WorkLocal[1] *= 10*
     0x0224 [0x07] ExtData[1]->WorkLocal[1] += 210*
     0x0229 [0x1B] RETURN
```

### Event 65535.20

#### Metadata

| Field        | Value    |
|--------------|----------|
| Entrypoint   | 0x022A   |
| Data Size    | 15 bytes |
| Instructions | 5        |

```
      00 01 02 03 04 05 06 07  08 09 0A 0B 0C 0D 0E 0F
      -- -- -- -- -- -- -- --  -- -- -- -- -- -- -- --
0220:                                32 2A 80 1F 00 2F            2*.../
0230: 80 30 80 31 80 1F 01 6F  00                       .0.1...o.       
```

#### Opcodes

```
  0: 0x022A [0x32] ExtData[1]->MainSpeed = 10* * 0.1
  1: 0x022D [0x1F] MOVE_ENTITY: EventEntity moves to X=-146.833*, Z=-34.918*, Y=-24.926*
  2: 0x0235 [0x1F] MOVE_ENTITY: Update entity position (mode=1)
  3: 0x0237 [0x6F] WAIT_FRAME_DELAY: Yield until WaitTime reaches zero
  4: 0x0238 [0x00] END_REQSTACK()
```

### Event 65535.21

#### Metadata

| Field        | Value    |
|--------------|----------|
| Entrypoint   | 0x0239   |
| Data Size    | 20 bytes |
| Instructions | 6        |

```
      00 01 02 03 04 05 06 07  08 09 0A 0B 0C 0D 0E 0F
      -- -- -- -- -- -- -- --  -- -- -- -- -- -- -- --
0230:                             7B F8 FF FF 7F 32 03           {....2.
0240: 80 1F 00 32 80 33 80 34  80 1F 01 6F 00           ...2.3.4...o.   
```

#### Opcodes

```
  0: 0x0239 [0x7B] EventEntity stops talking
  1: 0x023E [0x32] ExtData[1]->MainSpeed = 11* * 0.1
  2: 0x0241 [0x1F] MOVE_ENTITY: EventEntity moves to X=-145.939*, Z=-43.192*, Y=-23.397*
  3: 0x0249 [0x1F] MOVE_ENTITY: Update entity position (mode=1)
  4: 0x024B [0x6F] WAIT_FRAME_DELAY: Yield until WaitTime reaches zero
  5: 0x024C [0x00] END_REQSTACK()
```

### Event 65535.22

#### Metadata

| Field        | Value    |
|--------------|----------|
| Entrypoint   | 0x024D   |
| Data Size    | 25 bytes |
| Instructions | 6        |

```
      00 01 02 03 04 05 06 07  08 09 0A 0B 0C 0D 0E 0F
      -- -- -- -- -- -- -- --  -- -- -- -- -- -- -- --
0240:                                         32 03 80               2..
0250: 1F 00 35 80 36 80 37 80  1F 01 6F 79 00 F8 FF FF  ..5.6.7...oy....
0260: 7F 56 93 08 01 00                                 .V....          
```

#### Opcodes

```
  0: 0x024D [0x32] ExtData[1]->MainSpeed = 11* * 0.1
  1: 0x0250 [0x1F] MOVE_ENTITY: EventEntity moves to X=-126.760*, Z=-46.807*, Y=-24.209*
  2: 0x0258 [0x1F] MOVE_ENTITY: Update entity position (mode=1)
  3: 0x025A [0x6F] WAIT_FRAME_DELAY: Yield until WaitTime reaches zero
  4: 0x025B [0x79] EventEntity looks at Lilisette (ID: 17339222/0x01089356) (Basic look)
  5: 0x0265 [0x00] END_REQSTACK()
```
