# 17339037

## Common Data

| Field            | Value                   |
|------------------|-------------------------|
| Zone             | Xarcabard [S] (ID: 137) |
| Block Size       | 21228 bytes             |
| Total Events     | 3                       |
| References Count | 700                     |

## List of Events

| Event ID              | Entrypoint   |   Size |   Instructions |
|-----------------------|--------------|--------|----------------|
| [65535](#event-65535) | 0x0000       |      1 |              1 |
| [17](#event-17)       | 0x0001       |   5072 |            634 |
| [18](#event-18)       | 0x13D1       |  13327 |           1526 |

## DAT References (imed_data)

|   Index | Hex Value   |   Dec Value |
|---------|-------------|-------------|
|       0 | 0x0013      |          19 |
|       1 | 0x003C      |          60 |
|       2 | 0x8A63C     |      566844 |
|       3 | 0xFFFBD693  |  4294694547 |
|       4 | 0xFFFFFFEA  |  4294967274 |
|       5 | 0x069E      |        1694 |
|       6 | 0x89C06     |      564230 |
|       7 | 0xFFFBD69D  |  4294694557 |
|       8 | 0xFFFFFF62  |  4294967138 |
|       9 | 0x0625      |        1573 |
|      10 | 0x8AC60     |      568416 |
|      11 | 0xFFFBE117  |  4294697239 |
|      12 | 0xFFFFFF08  |  4294967048 |
|      13 | 0x065A      |        1626 |
|      14 | 0x819A9     |      530857 |
|      15 | 0xFFFBC11E  |  4294689054 |
|      16 | 0x0154      |         340 |
|      17 | 0x0960      |        2400 |
|      18 | 0x81760     |      530272 |
|      19 | 0xFFFBBA46  |  4294687302 |
|      20 | 0x0137      |         311 |
|      21 | 0x8214D     |      532813 |
|      22 | 0xFFFBBCED  |  4294687981 |
|      23 | 0x01DC      |         476 |
|      24 | 0x7EDD8     |      519640 |
|      25 | 0xFFFBBF3D  |  4294688573 |
|      26 | 0x0000      |           0 |
|      27 | 0x03E4      |         996 |
|      28 | 0x7F320     |      520992 |
|      29 | 0xFFFBBD1D  |  4294688029 |
|      30 | 0x7EDC3     |      519619 |
|      31 | 0xFFFBBA22  |  4294687266 |
|      32 | 0x08F7      |        2295 |
|      33 | 0x7FE79     |      523897 |
|      34 | 0xFFFBB920  |  4294687008 |
|      35 | 0xFFFFFFFA  |  4294967290 |
|      36 | 0x040B      |        1035 |
|      37 | 0x8019F     |      524703 |
|      38 | 0xFFFBBD52  |  4294688082 |
|      39 | 0x0022      |          34 |
|      40 | 0x069D      |        1693 |
|      41 | 0x80348     |      525128 |
|      42 | 0xFFFBB3D4  |  4294685652 |
|      43 | 0x0037      |          55 |
|      44 | 0x048D      |        1165 |
|      45 | 0x81EFA     |      532218 |
|      46 | 0xFFFBB1F9  |  4294685177 |
|      47 | 0x0198      |         408 |
|      48 | 0x827CA     |      534474 |
|      49 | 0xFFFBB955  |  4294687061 |
|      50 | 0x0283      |         643 |
|      51 | 0x85446     |      545862 |
|      52 | 0xFFFBD0F7  |  4294693111 |
|      53 | 0x0149      |         329 |
|      54 | 0x800BC     |      524476 |
|      55 | 0xFFFBA0BD  |  4294680765 |
|      56 | 0xFFFFFF98  |  4294967192 |
|      57 | 0x831C8     |      537032 |
|      58 | 0xFFFBB721  |  4294686497 |
|      59 | 0x0353      |         851 |
|      60 | 0x82495     |      533653 |
|      61 | 0xFFFBAADE  |  4294683358 |
|      62 | 0x0231      |         561 |
|      63 | 0x82E4D     |      536141 |
|      64 | 0xFFFBA9B9  |  4294683065 |
|      65 | 0x02E5      |         741 |
|      66 | 0x7F050     |      520272 |
|      67 | 0xFFFBADE4  |  4294684132 |
|      68 | 0x7EE9F     |      519839 |
|      69 | 0xFFFBB262  |  4294685282 |
|      70 | 0x069B      |        1691 |
|      71 | 0x80C22     |      527394 |
|      72 | 0xFFFB94D9  |  4294677721 |
|      73 | 0xFFFFFDD9  |  4294966745 |
|      74 | 0x7DEBE     |      515774 |
|      75 | 0xFFFBB427  |  4294685735 |
|      76 | 0xFFFFFFF4  |  4294967284 |
|      77 | 0x84FC2     |      544706 |
|      78 | 0xFFFBD716  |  4294694678 |
|      79 | 0x00D0      |         208 |
|      80 | 0x844EE     |      541934 |
|      81 | 0xFFFBD700  |  4294694656 |
|      82 | 0x002C      |          44 |
|      83 | 0x831B0     |      537008 |
|      84 | 0xFFFBC8E7  |  4294691047 |
|      85 | 0x0352      |         850 |
|      86 | 0x80376     |      525174 |
|      87 | 0xFFFBAED8  |  4294684376 |
|      88 | 0x0039      |          57 |
|      89 | 0x7F57B     |      521595 |
|      90 | 0xFFFBB588  |  4294686088 |
|      91 | 0x842FA     |      541434 |
|      92 | 0xFFFBF3EE  |  4294702062 |
|      93 | 0xFFFFFE57  |  4294966871 |
|      94 | 0x836E3     |      538339 |
|      95 | 0xFFFC0172  |  4294705522 |
|      96 | 0xFFFFFD24  |  4294966564 |
|      97 | 0x0078      |         120 |
|      98 | 0x003B      |          59 |
|      99 | 0x0031      |          49 |
|     100 | 0x00CF      |         207 |
|     101 | 0x00CE      |         206 |
|     102 | 0x006C      |         108 |
|     103 | 0x01FC      |         508 |
|     104 | 0x00B4      |         180 |
|     105 | 0x8405D     |      540765 |
|     106 | 0xFFFC06B0  |  4294706864 |
|     107 | 0xFFFFFD01  |  4294966529 |
|     108 | 0x84138     |      540984 |
|     109 | 0xFFFC00AA  |  4294705322 |
|     110 | 0xFFFFFDFB  |  4294966779 |
|     111 | 0x835AF     |      538031 |
|     112 | 0xFFFC0AB6  |  4294707894 |
|     113 | 0xFFFFFC7A  |  4294966394 |
|     114 | 0x83193     |      536979 |
|     115 | 0xFFFBEA6E  |  4294699630 |
|     116 | 0xFFFFFF72  |  4294967154 |
|     117 | 0x81183     |      528771 |
|     118 | 0xFFFBCD98  |  4294692248 |
|     119 | 0x00EC      |         236 |
|     120 | 0x0A3F      |        2623 |
|     121 | 0x8310F     |      536847 |
|     122 | 0xFFFC111A  |  4294709530 |
|     123 | 0xFFFFFC45  |  4294966341 |
|     124 | 0x828C8     |      534728 |
|     125 | 0xFFFC0BB0  |  4294708144 |
|     126 | 0xFFFFFC18  |  4294966296 |
|     127 | 0x81F6E     |      532334 |
|     128 | 0xFFFBECC2  |  4294700226 |
|     129 | 0xFFFFFF81  |  4294967169 |
|     130 | 0x02B5      |         693 |
|     131 | 0x81754     |      530260 |
|     132 | 0xFFFBEA9D  |  4294699677 |
|     133 | 0xFFFFFFB2  |  4294967218 |
|     134 | 0x02B6      |         694 |
|     135 | 0x001D      |          29 |
|     136 | 0x005A      |          90 |
|     137 | 0x0024      |          36 |
|     138 | 0x0007      |           7 |
|     139 | 0x814D5     |      529621 |
|     140 | 0xFFFBB514  |  4294685972 |
|     141 | 0x0117      |         279 |
|     142 | 0x81614     |      529940 |
|     143 | 0xFFFBBAB1  |  4294687409 |
|     144 | 0x0127      |         295 |
|     145 | 0x81D65     |      531813 |
|     146 | 0xFFFBBB3F  |  4294687551 |
|     147 | 0x0178      |         376 |
|     148 | 0x81EC9     |      532169 |
|     149 | 0xFFFBB4CF  |  4294685903 |
|     150 | 0x0196      |         406 |
|     151 | 0x827E0     |      534496 |
|     152 | 0xFFFBB6D6  |  4294686422 |
|     153 | 0x0286      |         646 |
|     154 | 0x00D2      |         210 |
|     155 | 0x0861      |        2145 |
|     156 | 0x001E      |          30 |
|     157 | 0x0001      |           1 |
|     158 | 0x0002      |           2 |
|     159 | 0x0003      |           3 |
|     160 | 0x0004      |           4 |
|     161 | 0x0005      |           5 |
|     162 | 0x0006      |           6 |
|     163 | 0x0008      |           8 |
|     164 | 0x203B      |        8251 |
|     165 | 0x002B      |          43 |
|     166 | 0x000A      |          10 |
|     167 | 0x8A09D     |      565405 |
|     168 | 0xFFFBD29F  |  4294693535 |
|     169 | 0xFFFFFFD5  |  4294967253 |
|     170 | 0x82B53     |      535379 |
|     171 | 0xFFFB9364  |  4294677348 |
|     172 | 0xFFFFFCFE  |  4294966526 |
|     173 | 0x0D40      |        3392 |
|     174 | 0x82CE9     |      535785 |
|     175 | 0xFFFB9034  |  4294676532 |
|     176 | 0xFFFFFB39  |  4294966073 |
|     177 | 0x0788      |        1928 |
|     178 | 0x82CD2     |      535762 |
|     179 | 0xFFFB9487  |  4294677639 |
|     180 | 0xFFFFFD79  |  4294966649 |
|     181 | 0x0BC4      |        3012 |
|     182 | 0x8314C     |      536908 |
|     183 | 0xFFFB8E5C  |  4294676060 |
|     184 | 0xFFFFFAB7  |  4294965943 |
|     185 | 0x8358D     |      537997 |
|     186 | 0xFFFB92C7  |  4294677191 |
|     187 | 0xFFFFFD55  |  4294966613 |
|     188 | 0x0D2C      |        3372 |
|     189 | 0x203C      |        8252 |
|     190 | 0x203D      |        8253 |
|     191 | 0x0586      |        1414 |
|     192 | 0x203E      |        8254 |
|     193 | 0x855AE     |      546222 |
|     194 | 0xFFFBEBF4  |  4294700020 |
|     195 | 0xFFFFFCB4  |  4294966452 |
|     196 | 0x84B1A     |      543514 |
|     197 | 0xFFFBF8EA  |  4294703338 |
|     198 | 0xFFFFFE72  |  4294966898 |
|     199 | 0x0854      |        2132 |
|     200 | 0x203F      |        8255 |
|     201 | 0x2040      |        8256 |
|     202 | 0x0E10      |        3600 |
|     203 | 0x2041      |        8257 |
|     204 | 0x051D      |        1309 |
|     205 | 0x2042      |        8258 |
|     206 | 0x08C5      |        2245 |
|     207 | 0x2043      |        8259 |
|     208 | 0x2044      |        8260 |
|     209 | 0x00C3      |         195 |
|     210 | 0x0186      |         390 |
|     211 | 0x2045      |        8261 |
|     212 | 0x00F0      |         240 |
|     213 | 0x00B6      |         182 |
|     214 | 0x00FF      |         255 |
|     215 | 0xFFF9963F  |  4294547007 |
|     216 | 0x192E      |        6446 |
|     217 | 0x270F      |        9999 |
|     218 | 0x0401      |        1025 |
|     219 | 0x0028      |          40 |
|     220 | 0x009B      |         155 |
|     221 | 0x2046      |        8262 |
|     222 | 0xFFF99872  |  4294547570 |
|     223 | 0xFFFFD470  |  4294956144 |
|     224 | 0x36AF      |       13999 |
|     225 | 0x0844      |        2116 |
|     226 | 0x2047      |        8263 |
|     227 | 0xFFF997C7  |  4294547399 |
|     228 | 0xFFFF927F  |  4294939263 |
|     229 | 0x03F8      |        1016 |
|     230 | 0x051F      |        1311 |
|     231 | 0x051E      |        1310 |
|     232 | 0x2048      |        8264 |
|     233 | 0x0096      |         150 |
|     234 | 0xFFFF8D07  |  4294937863 |
|     235 | 0x012C      |         300 |
|     236 | 0x0089      |         137 |
|     237 | 0x00C8      |         200 |
|     238 | 0x000C      |          12 |
|     239 | 0x000F      |          15 |
|     240 | 0xFFFE7C13  |  4294867987 |
|     241 | 0xFFFF6D56  |  4294929750 |
|     242 | 0xFFFFA38B  |  4294943627 |
|     243 | 0x07E4      |        2020 |
|     244 | 0xFFFE7778  |  4294866808 |
|     245 | 0xFFFF67F4  |  4294928372 |
|     246 | 0xFFFFA4D3  |  4294943955 |
|     247 | 0x07E5      |        2021 |
|     248 | 0xFFFE48BE  |  4294854846 |
|     249 | 0xFFFF57CC  |  4294924236 |
|     250 | 0xFFFFA2F0  |  4294943472 |
|     251 | 0x0ADE      |        2782 |
|     252 | 0xFFFDC128  |  4294820136 |
|     253 | 0xFFFF808F  |  4294934671 |
|     254 | 0xFFFF9D9F  |  4294942111 |
|     255 | 0x08B6      |        2230 |
|     256 | 0xFFFDCB97  |  4294822807 |
|     257 | 0xFFFF8102  |  4294934786 |
|     258 | 0xFFFF9D83  |  4294942083 |
|     259 | 0x08E9      |        2281 |
|     260 | 0xFFFDD375  |  4294824821 |
|     261 | 0xFFFF7409  |  4294931465 |
|     262 | 0xFFFFA10A  |  4294942986 |
|     263 | 0x092E      |        2350 |
|     264 | 0xFFFE1CF3  |  4294843635 |
|     265 | 0xFFFF615B  |  4294926683 |
|     266 | 0xFFFFA240  |  4294943296 |
|     267 | 0x0ADC      |        2780 |
|     268 | 0xFFFDCF58  |  4294823768 |
|     269 | 0xFFFF3866  |  4294916198 |
|     270 | 0xFFFFA28C  |  4294943372 |
|     271 | 0x0B0C      |        2828 |
|     272 | 0xFFFE3F2C  |  4294852396 |
|     273 | 0xFFFF4C4C  |  4294921292 |
|     274 | 0xFFFFA212  |  4294943250 |
|     275 | 0x0D56      |        3414 |
|     276 | 0xFFFE38A0  |  4294850720 |
|     277 | 0xFFFF49E9  |  4294920681 |
|     278 | 0xFFFFA1BD  |  4294943165 |
|     279 | 0xFFFDD8F4  |  4294826228 |
|     280 | 0xFFFF3CAB  |  4294917291 |
|     281 | 0xFFFFA233  |  4294943283 |
|     282 | 0x0947      |        2375 |
|     283 | 0xFFFDDD4C  |  4294827340 |
|     284 | 0xFFFF3EEA  |  4294917866 |
|     285 | 0xFFFFA23E  |  4294943294 |
|     286 | 0x0A9E      |        2718 |
|     287 | 0xFFFDCFD8  |  4294823896 |
|     288 | 0xFFFF499A  |  4294920602 |
|     289 | 0xFFFFA34D  |  4294943565 |
|     290 | 0x07F9      |        2041 |
|     291 | 0xFFFDC763  |  4294821731 |
|     292 | 0xFFFF4C59  |  4294921305 |
|     293 | 0xFFFFA484  |  4294943876 |
|     294 | 0x0B45      |        2885 |
|     295 | 0xFFFDC836  |  4294821942 |
|     296 | 0xFFFF4545  |  4294919493 |
|     297 | 0xFFFFA375  |  4294943605 |
|     298 | 0x0A0F      |        2575 |
|     299 | 0xFFFDC44E  |  4294820942 |
|     300 | 0xFFFF50E0  |  4294922464 |
|     301 | 0xFFFFA487  |  4294943879 |
|     302 | 0x0DB5      |        3509 |
|     303 | 0xFFFE07D1  |  4294838225 |
|     304 | 0xFFFF40A1  |  4294918305 |
|     305 | 0xFFFF9F3A  |  4294942522 |
|     306 | 0x0ABE      |        2750 |
|     307 | 0xFFFE12BE  |  4294841022 |
|     308 | 0xFFFF42C7  |  4294918855 |
|     309 | 0xFFFFA015  |  4294942741 |
|     310 | 0x0910      |        2320 |
|     311 | 0xFFFC622D  |  4294730285 |
|     312 | 0x4676      |       18038 |
|     313 | 0xFFFFD4A6  |  4294956198 |
|     314 | 0x0DF7      |        3575 |
|     315 | 0xFFFCA814  |  4294748180 |
|     316 | 0x1529      |        5417 |
|     317 | 0xFFFFD359  |  4294955865 |
|     318 | 0x0E59      |        3673 |
|     319 | 0xFFFC8CFA  |  4294741242 |
|     320 | 0x7250      |       29264 |
|     321 | 0xFFFFDABD  |  4294957757 |
|     322 | 0x093A      |        2362 |
|     323 | 0xFFFC150B  |  4294710539 |
|     324 | 0x3293      |       12947 |
|     325 | 0xFFFFC01F  |  4294950943 |
|     326 | 0x0E30      |        3632 |
|     327 | 0xFFFC10EF  |  4294709487 |
|     328 | 0x67CC      |       26572 |
|     329 | 0xFFFFB734  |  4294948660 |
|     330 | 0x03E6      |         998 |
|     331 | 0xFFFC16F3  |  4294711027 |
|     332 | 0x5C80      |       23680 |
|     333 | 0xFFFFB8E0  |  4294949088 |
|     334 | 0x095C      |        2396 |
|     335 | 0xFFFBDECE  |  4294696654 |
|     336 | 0x305D      |       12381 |
|     337 | 0xFFFFB395  |  4294947733 |
|     338 | 0x0F2E      |        3886 |
|     339 | 0xFFFBCFAA  |  4294692778 |
|     340 | 0x5F3B      |       24379 |
|     341 | 0xFFFFB520  |  4294948128 |
|     342 | 0x0EFF      |        3839 |
|     343 | 0xFFFBFBCD  |  4294704077 |
|     344 | 0x40DA      |       16602 |
|     345 | 0xFFFFBD84  |  4294950276 |
|     346 | 0x0332      |         818 |
|     347 | 0xFFFC4AFE  |  4294724350 |
|     348 | 0x5A17      |       23063 |
|     349 | 0xFFFFD46F  |  4294956143 |
|     350 | 0x0BE1      |        3041 |
|     351 | 0xFFFC54E4  |  4294726884 |
|     352 | 0x218F      |        8591 |
|     353 | 0xFFFFD204  |  4294955524 |
|     354 | 0x0472      |        1138 |
|     355 | 0xFFFCB084  |  4294750340 |
|     356 | 0x4B25      |       19237 |
|     357 | 0xFFFFDE6F  |  4294958703 |
|     358 | 0x0010      |          16 |
|     359 | 0x087D      |        2173 |
|     360 | 0x0009      |           9 |
|     361 | 0x01E5      |         485 |
|     362 | 0x2056      |        8278 |
|     363 | 0x08C9      |        2249 |
|     364 | 0x2057      |        8279 |
|     365 | 0x094E      |        2382 |
|     366 | 0x2058      |        8280 |
|     367 | 0x2059      |        8281 |
|     368 | 0x0B10      |        2832 |
|     369 | 0x205A      |        8282 |
|     370 | 0x205B      |        8283 |
|     371 | 0x205C      |        8284 |
|     372 | 0x205D      |        8285 |
|     373 | 0x205E      |        8286 |
|     374 | 0xFFFDEA3F  |  4294830655 |
|     375 | 0xFFFF532D  |  4294923053 |
|     376 | 0xFFFFA52B  |  4294944043 |
|     377 | 0x0A68      |        2664 |
|     378 | 0xFFFDE2AF  |  4294828719 |
|     379 | 0xFFFF5C9A  |  4294925466 |
|     380 | 0xFFFFA5E1  |  4294944225 |
|     381 | 0x0A05      |        2565 |
|     382 | 0xFFFDEA10  |  4294830608 |
|     383 | 0xFFFF5F84  |  4294926212 |
|     384 | 0xFFFFA583  |  4294944131 |
|     385 | 0x09AC      |        2476 |
|     386 | 0xFFFDEE9E  |  4294831774 |
|     387 | 0xFFFF56C5  |  4294923973 |
|     388 | 0xFFFFA52E  |  4294944046 |
|     389 | 0x09C4      |        2500 |
|     390 | 0xFFFDF286  |  4294832774 |
|     391 | 0xFFFF5C9F  |  4294925471 |
|     392 | 0xFFFFA4CA  |  4294943946 |
|     393 | 0x097E      |        2430 |
|     394 | 0x1E1D      |        7709 |
|     395 | 0x205F      |        8287 |
|     396 | 0x2060      |        8288 |
|     397 | 0x0046      |          70 |
|     398 | 0x08CD      |        2253 |
|     399 | 0x002D      |          45 |
|     400 | 0x2061      |        8289 |
|     401 | 0x2062      |        8290 |
|     402 | 0x2063      |        8291 |
|     403 | 0x2064      |        8292 |
|     404 | 0x2065      |        8293 |
|     405 | 0x2066      |        8294 |
|     406 | 0x0859      |        2137 |
|     407 | 0x2067      |        8295 |
|     408 | 0xFFFFF4F8  |  4294964472 |
|     409 | 0x01B3      |         435 |
|     410 | 0xFFFE7960  |  4294867296 |
|     411 | 0x07F0      |        2032 |
|     412 | 0x009C      |         156 |
|     413 | 0xFFFFD17E  |  4294955390 |
|     414 | 0x0800      |        2048 |
|     415 | 0xFFFFCEFA  |  4294954746 |
|     416 | 0xFFFFF92D  |  4294965549 |
|     417 | 0x0885      |        2181 |
|     418 | 0xFFFFBC43  |  4294949955 |
|     419 | 0xFFFFFDB6  |  4294966710 |
|     420 | 0x0D13      |        3347 |
|     421 | 0xFFFFD77A  |  4294956922 |
|     422 | 0x0909      |        2313 |
|     423 | 0x07C2      |        1986 |
|     424 | 0xFFFFB191  |  4294947217 |
|     425 | 0xFFFFFFDE  |  4294967262 |
|     426 | 0xFFFFC0C8  |  4294951112 |
|     427 | 0x08B5      |        2229 |
|     428 | 0x011D      |         285 |
|     429 | 0xFFFFB76A  |  4294948714 |
|     430 | 0xFFFFF4CE  |  4294964430 |
|     431 | 0x0F28      |        3880 |
|     432 | 0xFFFFE64A  |  4294960714 |
|     433 | 0xFFFFE8A2  |  4294961314 |
|     434 | 0x0962      |        2402 |
|     435 | 0xFFFFF9D2  |  4294965714 |
|     436 | 0x162B      |        5675 |
|     437 | 0xFFFFFF97  |  4294967191 |
|     438 | 0x0675      |        1653 |
|     439 | 0xFFFFC11F  |  4294951199 |
|     440 | 0x02E3      |         739 |
|     441 | 0xFFFFC120  |  4294951200 |
|     442 | 0xFFFFE021  |  4294959137 |
|     443 | 0x0D55      |        3413 |
|     444 | 0xFFFFE3CB  |  4294960075 |
|     445 | 0x0018      |          24 |
|     446 | 0x0A25      |        2597 |
|     447 | 0x04F5      |        1269 |
|     448 | 0x0B1B      |        2843 |
|     449 | 0x0B85      |        2949 |
|     450 | 0x0887      |        2183 |
|     451 | 0x0B47      |        2887 |
|     452 | 0x08B2      |        2226 |
|     453 | 0x0ABB      |        2747 |
|     454 | 0x08B0      |        2224 |
|     455 | 0x033E      |         830 |
|     456 | 0x2068      |        8296 |
|     457 | 0x2069      |        8297 |
|     458 | 0x0891      |        2193 |
|     459 | 0x206A      |        8298 |
|     460 | 0x007F      |         127 |
|     461 | 0x01B8      |         440 |
|     462 | 0x0B05      |        2821 |
|     463 | 0x0B1E      |        2846 |
|     464 | 0x206B      |        8299 |
|     465 | 0x0C0C      |        3084 |
|     466 | 0x206C      |        8300 |
|     467 | 0x206D      |        8301 |
|     468 | 0x206E      |        8302 |
|     469 | 0x206F      |        8303 |
|     470 | 0x2070      |        8304 |
|     471 | 0x2071      |        8305 |
|     472 | 0x00DF      |         223 |
|     473 | 0x2072      |        8306 |
|     474 | 0xFFFFD79D  |  4294956957 |
|     475 | 0xFFFFF9D6  |  4294965718 |
|     476 | 0x0873      |        2163 |
|     477 | 0x09C2      |        2498 |
|     478 | 0x0473      |        1139 |
|     479 | 0x0890      |        2192 |
|     480 | 0x2073      |        8307 |
|     481 | 0x0500      |        1280 |
|     482 | 0x2074      |        8308 |
|     483 | 0x2075      |        8309 |
|     484 | 0x2076      |        8310 |
|     485 | 0x2077      |        8311 |
|     486 | 0x2078      |        8312 |
|     487 | 0x0897      |        2199 |
|     488 | 0x2079      |        8313 |
|     489 | 0x207A      |        8314 |
|     490 | 0x043F      |        1087 |
|     491 | 0x207B      |        8315 |
|     492 | 0x207C      |        8316 |
|     493 | 0x207D      |        8317 |
|     494 | 0x207E      |        8318 |
|     495 | 0x043E      |        1086 |
|     496 | 0x207F      |        8319 |
|     497 | 0x2080      |        8320 |
|     498 | 0x2081      |        8321 |
|     499 | 0x2082      |        8322 |
|     500 | 0x2083      |        8323 |
|     501 | 0x2084      |        8324 |
|     502 | 0x2085      |        8325 |
|     503 | 0x0406      |        1030 |
|     504 | 0x2086      |        8326 |
|     505 | 0x2087      |        8327 |
|     506 | 0x2088      |        8328 |
|     507 | 0x2089      |        8329 |
|     508 | 0x208A      |        8330 |
|     509 | 0x208B      |        8331 |
|     510 | 0x208C      |        8332 |
|     511 | 0x208D      |        8333 |
|     512 | 0x208E      |        8334 |
|     513 | 0x0465      |        1125 |
|     514 | 0x208F      |        8335 |
|     515 | 0x2090      |        8336 |
|     516 | 0x2091      |        8337 |
|     517 | 0xED66      |       60774 |
|     518 | 0xE234      |       57908 |
|     519 | 0xFFFF67A9  |  4294928297 |
|     520 | 0x0ED8      |        3800 |
|     521 | 0x00DC      |         220 |
|     522 | 0x2092      |        8338 |
|     523 | 0x2093      |        8339 |
|     524 | 0x00A4      |         164 |
|     525 | 0xE3C4      |       58308 |
|     526 | 0xDA64      |       55908 |
|     527 | 0xFFFF67A8  |  4294928296 |
|     528 | 0x0609      |        1545 |
|     529 | 0xE7CF      |       59343 |
|     530 | 0xE628      |       58920 |
|     531 | 0x055C      |        1372 |
|     532 | 0xF384      |       62340 |
|     533 | 0xE6D2      |       59090 |
|     534 | 0xEC42      |       60482 |
|     535 | 0xDA26      |       55846 |
|     536 | 0x0795      |        1941 |
|     537 | 0x2094      |        8340 |
|     538 | 0x0B1F      |        2847 |
|     539 | 0x2095      |        8341 |
|     540 | 0x2096      |        8342 |
|     541 | 0x2097      |        8343 |
|     542 | 0x2098      |        8344 |
|     543 | 0x2099      |        8345 |
|     544 | 0x209A      |        8346 |
|     545 | 0x09EB      |        2539 |
|     546 | 0x209B      |        8347 |
|     547 | 0x209C      |        8348 |
|     548 | 0x209D      |        8349 |
|     549 | 0x0E09      |        3593 |
|     550 | 0x0026      |          38 |
|     551 | 0x0B20      |        2848 |
|     552 | 0x09EC      |        2540 |
|     553 | 0x209E      |        8350 |
|     554 | 0x00AA      |         170 |
|     555 | 0x209F      |        8351 |
|     556 | 0x20A0      |        8352 |
|     557 | 0x20A1      |        8353 |
|     558 | 0x20A2      |        8354 |
|     559 | 0xFFF551A0  |  4294267296 |
|     560 | 0xFFFE738E  |  4294865806 |
|     561 | 0xFFFF9224  |  4294939172 |
|     562 | 0x0C00      |        3072 |
|     563 | 0xFFF55ECD  |  4294270669 |
|     564 | 0xFFFE797D  |  4294867325 |
|     565 | 0xFFFF9DDC  |  4294942172 |
|     566 | 0x0A59      |        2649 |
|     567 | 0xFFF54770  |  4294264688 |
|     568 | 0xFFFE797F  |  4294867327 |
|     569 | 0x0C44      |        3140 |
|     570 | 0xFFF55187  |  4294267271 |
|     571 | 0xFFFE8B84  |  4294871940 |
|     572 | 0x0400      |        1024 |
|     573 | 0x088B      |        2187 |
|     574 | 0x0804      |        2052 |
|     575 | 0x09C9      |        2505 |
|     576 | 0x0095      |         149 |
|     577 | 0x20A3      |        8355 |
|     578 | 0x20A4      |        8356 |
|     579 | 0x20A5      |        8357 |
|     580 | 0x20A6      |        8358 |
|     581 | 0x20A7      |        8359 |
|     582 | 0x20A8      |        8360 |
|     583 | 0x20A9      |        8361 |
|     584 | 0x088F      |        2191 |
|     585 | 0x20AB      |        8363 |
|     586 | 0x20AA      |        8362 |
|     587 | 0x20AC      |        8364 |
|     588 | 0x20AD      |        8365 |
|     589 | 0x0258      |         600 |
|     590 | 0xFFFE29D6  |  4294846934 |
|     591 | 0xFFFF56D4  |  4294923988 |
|     592 | 0x062B      |        1579 |
|     593 | 0xFFFE232C  |  4294845228 |
|     594 | 0xFFFF5582  |  4294923650 |
|     595 | 0x0652      |        1618 |
|     596 | 0xFFFE23B4  |  4294845364 |
|     597 | 0xFFFF500D  |  4294922253 |
|     598 | 0xFFFFA20B  |  4294943243 |
|     599 | 0x0708      |        1800 |
|     600 | 0xFFFE0C1F  |  4294839327 |
|     601 | 0xFFFF3ED2  |  4294917842 |
|     602 | 0xFFFF9EC7  |  4294942407 |
|     603 | 0x0E3C      |        3644 |
|     604 | 0xFFFE1BEC  |  4294843372 |
|     605 | 0xFFFF49EB  |  4294920683 |
|     606 | 0xFFFFA1B9  |  4294943161 |
|     607 | 0x075D      |        1885 |
|     608 | 0xFFFE05FA  |  4294837754 |
|     609 | 0xFFFF4412  |  4294919186 |
|     610 | 0xFFFFA019  |  4294942745 |
|     611 | 0x0DCB      |        3531 |
|     612 | 0xFFFE193B  |  4294842683 |
|     613 | 0xFFFF541D  |  4294923293 |
|     614 | 0xFFFFA25D  |  4294943325 |
|     615 | 0x05DB      |        1499 |
|     616 | 0xFFFE1EF2  |  4294844146 |
|     617 | 0xFFFF5626  |  4294923814 |
|     618 | 0xFFFFA241  |  4294943297 |
|     619 | 0x0654      |        1620 |
|     620 | 0xFFFE2621  |  4294845985 |
|     621 | 0xFFFF5E94  |  4294925972 |
|     622 | 0x05ED      |        1517 |
|     623 | 0xFFFE217D  |  4294844797 |
|     624 | 0xFFFF5ED6  |  4294926038 |
|     625 | 0x05C3      |        1475 |
|     626 | 0xFFFE0A8B  |  4294838923 |
|     627 | 0xFFFF62E8  |  4294927080 |
|     628 | 0xFFFFA319  |  4294943513 |
|     629 | 0x03E2      |         994 |
|     630 | 0xFFFE01BE  |  4294836670 |
|     631 | 0xFFFF6532  |  4294927666 |
|     632 | 0xFFFFA3AA  |  4294943658 |
|     633 | 0x03FA      |        1018 |
|     634 | 0xFFFE072C  |  4294838060 |
|     635 | 0xFFFF5D50  |  4294925648 |
|     636 | 0xFFFFA344  |  4294943556 |
|     637 | 0x0385      |         901 |
|     638 | 0xFFFE3285  |  4294849157 |
|     639 | 0xFFFF484C  |  4294920268 |
|     640 | 0xFFFFA1A9  |  4294943145 |
|     641 | 0x10BC0     |       68544 |
|     642 | 0xFFFD2C0F  |  4294781967 |
|     643 | 0xFFFFA273  |  4294943347 |
|     644 | 0x0D01      |        3329 |
|     645 | 0x113DC     |       70620 |
|     646 | 0xFFFD2DB6  |  4294782390 |
|     647 | 0xFFFFA342  |  4294943554 |
|     648 | 0x09B8      |        2488 |
|     649 | 0x10F85     |       69509 |
|     650 | 0xFFFD319C  |  4294783388 |
|     651 | 0xFFFFA2D3  |  4294943443 |
|     652 | 0x039E      |         926 |
|     653 | 0xFEB9      |       65209 |
|     654 | 0xFFFD4145  |  4294787397 |
|     655 | 0xFFFFA27C  |  4294943356 |
|     656 | 0x05FA      |        1530 |
|     657 | 0x0809      |        2057 |
|     658 | 0x20AE      |        8366 |
|     659 | 0x20AF      |        8367 |
|     660 | 0x00F9      |         249 |
|     661 | 0x0B63      |        2915 |
|     662 | 0x20B0      |        8368 |
|     663 | 0x055D      |        1373 |
|     664 | 0x20B1      |        8369 |
|     665 | 0x28D06     |      167174 |
|     666 | 0xFFFFD01E  |  4294955038 |
|     667 | 0xFFFFBCF5  |  4294950133 |
|     668 | 0x2956C     |      169324 |
|     669 | 0xFFFFC61F  |  4294952479 |
|     670 | 0xFFFFBE66  |  4294950502 |
|     671 | 0x2865E     |      165470 |
|     672 | 0xFFFFC599  |  4294952345 |
|     673 | 0xFFFFBE3F  |  4294950463 |
|     674 | 0x0FFB      |        4091 |
|     675 | 0x28B8B     |      166795 |
|     676 | 0xFFFFC5E6  |  4294952422 |
|     677 | 0xFFFFBD19  |  4294950169 |
|     678 | 0x0E8E      |        3726 |
|     679 | 0x04E4      |        1252 |
|     680 | 0x050C      |        1292 |
|     681 | 0x004E      |          78 |
|     682 | 0x20B2      |        8370 |
|     683 | 0x006E      |         110 |
|     684 | 0x20B3      |        8371 |
|     685 | 0x08C7      |        2247 |
|     686 | 0x0871      |        2161 |
|     687 | 0x0857      |        2135 |
|     688 | 0x20B4      |        8372 |
|     689 | 0x20B5      |        8373 |
|     690 | 0x20B6      |        8374 |
|     691 | 0x0082      |         130 |
|     692 | 0x20B7      |        8375 |
|     693 | 0x20B8      |        8376 |
|     694 | 0x20B9      |        8377 |
|     695 | 0x20BA      |        8378 |
|     696 | 0x20BB      |        8379 |
|     697 | 0x20BC      |        8380 |
|     698 | 0x00C9      |         201 |
|     699 | 0x00D7      |         215 |

## String References

- **7709**: @@

## Events

### Event 65535

#### Metadata

| Field        | Value   |
|--------------|---------|
| Entrypoint   | 0x0000  |
| Data Size    | 1 bytes |
| Instructions | 1       |

```
      00 01 02 03 04 05 06 07  08 09 0A 0B 0C 0D 0E 0F
      -- -- -- -- -- -- -- --  -- -- -- -- -- -- -- --
0000: 00                                                .               
```

#### Opcodes

```
  0: 0x0000 [0x00] END_REQSTACK()
```

### Event 17

#### Metadata

| Field        | Value      |
|--------------|------------|
| Entrypoint   | 0x0001     |
| Data Size    | 5072 bytes |
| Instructions | 634        |

```
      00 01 02 03 04 05 06 07  08 09 0A 0B 0C 0D 0E 0F
      -- -- -- -- -- -- -- --  -- -- -- -- -- -- -- --
0000:    42 1A B2 45 46 01 38  00 80 4E 00 F0 FF FF 7F   B..EF.8..N.....
0010: 27 10 56 93 08 01 04 27  10 58 93 08 01 02 2F 00  '.V....'.X..../.
0020: E1 92 08 01 2F 00 E2 92  08 01 2F 00 E5 92 08 01  ..../...../.....
0030: 2F 00 E6 92 08 01 2F 00  E7 92 08 01 2F 00 E8 92  /...../...../...
0040: 08 01 2F 00 E9 92 08 01  2F 00 F3 92 08 01 2F 00  ../...../...../.
0050: F4 92 08 01 2F 00 F5 92  08 01 2F 00 F6 92 08 01  ..../...../.....
0060: 2F 00 EA 92 08 01 2F 00  EB 92 08 01 2F 00 EC 92  /...../...../...
0070: 08 01 2F 00 ED 92 08 01  2F 00 EE 92 08 01 2F 00  ../...../...../.
0080: EF 92 08 01 2F 00 F0 92  08 01 2F 00 F1 92 08 01  ..../...../.....
0090: 2F 00 F2 92 08 01 4E 00  E1 92 08 01 4E 00 E2 92  /.....N.....N...
00A0: 08 01 4E 00 E5 92 08 01  4E 00 E6 92 08 01 4E 00  ..N.....N.....N.
00B0: E7 92 08 01 4E 00 E8 92  08 01 4E 00 E9 92 08 01  ....N.....N.....
00C0: 4E 00 F3 92 08 01 4E 00  F4 92 08 01 4E 00 F5 92  N.....N.....N...
00D0: 08 01 4E 00 F6 92 08 01  4E 00 EA 92 08 01 4E 00  ..N.....N.....N.
00E0: EB 92 08 01 4E 00 EC 92  08 01 4E 00 ED 92 08 01  ....N.....N.....
00F0: 4E 00 EE 92 08 01 4E 00  EF 92 08 01 4E 00 F0 92  N.....N.....N...
0100: 08 01 4E 00 F1 92 08 01  4E 00 F2 92 08 01 4E 00  ..N.....N.....N.
0110: 0B 93 08 01 4E 00 0C 93  08 01 4E 00 0D 93 08 01  ....N.....N.....
0120: 4E 00 0E 93 08 01 4E 00  0F 93 08 01 4E 00 10 93  N.....N.....N...
0130: 08 01 4E 00 11 93 08 01  4E 00 12 93 08 01 4E 00  ..N.....N.....N.
0140: 13 93 08 01 4E 00 14 93  08 01 92 01 56 93 08 01  ....N.......V...
0150: 92 01 58 93 08 01 92 01  E1 92 08 01 92 01 E2 92  ..X.............
0160: 08 01 92 01 E5 92 08 01  92 01 E6 92 08 01 92 01  ................
0170: E7 92 08 01 92 01 E8 92  08 01 92 01 E9 92 08 01  ................
0180: 92 01 F3 92 08 01 92 01  F4 92 08 01 92 01 F5 92  ................
0190: 08 01 92 01 F6 92 08 01  92 01 EA 92 08 01 92 01  ................
01A0: EB 92 08 01 92 01 EC 92  08 01 92 01 ED 92 08 01  ................
01B0: 92 01 EE 92 08 01 92 01  EF 92 08 01 92 01 F0 92  ................
01C0: 08 01 92 01 F1 92 08 01  92 01 F2 92 08 01 92 01  ................
01D0: 0B 93 08 01 92 01 0C 93  08 01 92 01 0D 93 08 01  ................
01E0: 92 01 0E 93 08 01 92 01  0F 93 08 01 92 01 10 93  ................
01F0: 08 01 92 01 11 93 08 01  92 01 12 93 08 01 92 01  ................
0200: 13 93 08 01 92 01 14 93  08 01 1C 01 80 94 01 F0  ................
0210: FF FF 7F 94 01 56 93 08  01 94 01 58 93 08 01 94  .....V.....X....
0220: 01 E1 92 08 01 94 01 E2  92 08 01 94 01 E5 92 08  ................
0230: 01 94 01 E6 92 08 01 94  01 E7 92 08 01 94 01 E8  ................
0240: 92 08 01 94 01 E9 92 08  01 94 01 F3 92 08 01 94  ................
0250: 01 F4 92 08 01 94 01 F5  92 08 01 94 01 F6 92 08  ................
0260: 01 94 01 EA 92 08 01 94  01 EB 92 08 01 94 01 EC  ................
0270: 92 08 01 94 01 ED 92 08  01 94 01 EE 92 08 01 94  ................
0280: 01 EF 92 08 01 94 01 F0  92 08 01 94 01 F1 92 08  ................
0290: 01 94 01 F2 92 08 01 94  01 0B 93 08 01 94 01 0C  ................
02A0: 93 08 01 94 01 0D 93 08  01 94 01 0E 93 08 01 94  ................
02B0: 01 0F 93 08 01 94 01 10  93 08 01 94 01 11 93 08  ................
02C0: 01 94 01 12 93 08 01 94  01 13 93 08 01 94 01 14  ................
02D0: 93 08 01 BA F0 FF FF 7F  02 80 03 80 04 80 05 80  ................
02E0: BA 56 93 08 01 06 80 07  80 08 80 09 80 BA 58 93  .V............X.
02F0: 08 01 0A 80 0B 80 0C 80  0D 80 BA E1 92 08 01 0E  ................
0300: 80 0F 80 10 80 11 80 BA  E2 92 08 01 12 80 13 80  ................
0310: 14 80 11 80 BA E5 92 08  01 15 80 16 80 17 80 11  ................
0320: 80 BA E6 92 08 01 18 80  19 80 1A 80 1B 80 BA E7  ................
0330: 92 08 01 1C 80 1D 80 1A  80 05 80 BA E8 92 08 01  ................
0340: 1E 80 1F 80 1A 80 20 80  BA E9 92 08 01 21 80 22  ...... ......!."
0350: 80 23 80 24 80 BA F3 92  08 01 25 80 26 80 27 80  .#.$......%.&.'.
0360: 28 80 BA F4 92 08 01 29  80 2A 80 2B 80 2C 80 BA  (......).*.+.,..
0370: F5 92 08 01 2D 80 2E 80  2F 80 11 80 BA F6 92 08  ....-.../.......
0380: 01 30 80 31 80 32 80 11  80 BA EA 92 08 01 33 80  .0.1.2........3.
0390: 34 80 35 80 05 80 BA EB  92 08 01 36 80 37 80 38  4.5........6.7.8
03A0: 80 05 80 BA EC 92 08 01  39 80 3A 80 3B 80 11 80  ........9.:.;...
03B0: BA ED 92 08 01 3C 80 3D  80 3E 80 11 80 BA EE 92  .....<.=.>......
03C0: 08 01 3F 80 40 80 41 80  11 80 BA EF 92 08 01 42  ..?.@.A........B
03D0: 80 43 80 1A 80 28 80 BA  F0 92 08 01 44 80 45 80  .C...(......D.E.
03E0: 1A 80 46 80 BA F1 92 08  01 47 80 48 80 49 80 28  ..F......G.H.I.(
03F0: 80 BA F2 92 08 01 4A 80  4B 80 4C 80 28 80 BA 0B  ......J.K.L.(...
0400: 93 08 01 4D 80 4E 80 4F  80 1A 80 BA 0C 93 08 01  ...M.N.O........
0410: 50 80 51 80 52 80 1A 80  BA 0D 93 08 01 53 80 54  P.Q.R........S.T
0420: 80 55 80 1A 80 BA 0E 93  08 01 53 80 54 80 55 80  .U........S.T.U.
0430: 1A 80 BA 0F 93 08 01 56  80 57 80 58 80 1A 80 BA  .......V.W.X....
0440: 10 93 08 01 59 80 5A 80  1A 80 1A 80 BA 11 93 08  ....Y.Z.........
0450: 01 59 80 5A 80 1A 80 1A  80 BA 12 93 08 01 5B 80  .Y.Z..........[.
0460: 5C 80 5D 80 1A 80 BA 13  93 08 01 5E 80 5F 80 60  \.]........^._.`
0470: 80 1A 80 BA 14 93 08 01  5E 80 5F 80 60 80 1A 80  ........^._.`...
0480: 1C 01 80 1C 01 80 80 F0  FF FF 7F 80 56 93 08 01  ............V...
0490: 80 58 93 08 01 5D 1A 80  61 80 29 10 E1 92 08 01  .X...]..a.).....
04A0: 0A 29 10 E2 92 08 01 0C  29 10 E5 92 08 01 0E 29  .)......)......)
04B0: 10 E6 92 08 01 0F 29 10  E7 92 08 01 10 29 10 E8  ......)......)..
04C0: 92 08 01 0C 29 10 E9 92  08 01 0E 29 10 F3 92 08  ....)......)....
04D0: 01 07 29 10 F4 92 08 01  08 29 10 F5 92 08 01 08  ..)......)......
04E0: 29 10 F6 92 08 01 08 29  10 EA 92 08 01 04 29 10  )......)......).
04F0: EB 92 08 01 03 29 10 EC  92 08 01 04 29 10 ED 92  .....)......)...
0500: 08 01 04 29 10 EE 92 08  01 04 29 10 EF 92 08 01  ...)......).....
0510: 03 29 10 F0 92 08 01 03  29 10 F1 92 08 01 03 29  .)......)......)
0520: 10 F2 92 08 01 03 80 E1  92 08 01 80 E2 92 08 01  ................
0530: 80 E5 92 08 01 80 E6 92  08 01 80 E7 92 08 01 80  ................
0540: E8 92 08 01 80 E9 92 08  01 80 F3 92 08 01 80 F4  ................
0550: 92 08 01 80 F5 92 08 01  80 F6 92 08 01 80 EA 92  ................
0560: 08 01 80 EB 92 08 01 80  EC 92 08 01 80 ED 92 08  ................
0570: 01 80 EE 92 08 01 80 EF  92 08 01 80 F0 92 08 01  ................
0580: 80 F1 92 08 01 80 F2 92  08 01 80 0B 93 08 01 80  ................
0590: 0C 93 08 01 80 0D 93 08  01 80 0E 93 08 01 80 0F  ................
05A0: 93 08 01 80 10 93 08 01  80 11 93 08 01 80 12 93  ................
05B0: 08 01 80 13 93 08 01 80  14 93 08 01 1C 01 80 1C  ................
05C0: 01 80 4A E6 92 08 01 E7  92 08 01 4A E7 92 08 01  ..J........J....
05D0: E8 92 08 01 4A E8 92 08  01 E7 92 08 01 4A E9 92  ....J........J..
05E0: 08 01 F3 92 08 01 4A EF  92 08 01 F0 92 08 01 4A  ......J........J
05F0: F0 92 08 01 EF 92 08 01  4A F1 92 08 01 F2 92 08  ........J.......
0600: 01 4A F2 92 08 01 F1 92  08 01 1C 01 80 66 62 80  .J...........fb.
0610: E7 92 08 01 E7 92 08 01  74 6C 6B 30 66 62 80 F4  ........tlk0fb..
0620: 92 08 01 F4 92 08 01 73  68 61 30 66 63 80 E9 92  .......sha0fc...
0630: 08 01 E9 92 08 01 74 6C  6B 30 C5 4F 80 0B 93 08  ......tlk0.O....
0640: 01 0B 93 08 01 73 30 30  30 1A 80 C5 4F 80 0C 93  .....s000...O...
0650: 08 01 0C 93 08 01 73 30  30 31 1A 80 C5 64 80 0D  ......s001...d..
0660: 93 08 01 0D 93 08 01 73  30 30 30 1A 80 C5 64 80  .......s000...d.
0670: 0E 93 08 01 0E 93 08 01  73 30 30 31 1A 80 C5 4F  ........s001...O
0680: 80 0F 93 08 01 0F 93 08  01 73 30 30 32 1A 80 C5  .........s002...
0690: 65 80 10 93 08 01 10 93  08 01 73 30 30 30 1A 80  e.........s000..
06A0: C5 65 80 11 93 08 01 11  93 08 01 73 30 30 31 1A  .e.........s001.
06B0: 80 C5 4F 80 12 93 08 01  12 93 08 01 73 30 30 30  ..O.........s000
06C0: 1A 80 C5 65 80 13 93 08  01 13 93 08 01 73 30 30  ...e.........s00
06D0: 30 1A 80 C5 65 80 14 93  08 01 14 93 08 01 73 30  0...e.........s0
06E0: 30 31 1A 80 1C 01 80 5C  00 66 80 5C 01 66 80 5C  01.....\.f.\.f.\
06F0: 02 66 80 5C 03 66 80 9A  81 00 56 93 08 01 27 10  .f.\.f....V...'.
0700: E1 92 08 01 0C 27 10 E2  92 08 01 0E 27 10 E5 92  .....'......'...
0710: 08 01 10 27 10 F5 92 08  01 09 27 10 F6 92 08 01  ...'......'.....
0720: 0B 27 10 EA 92 08 01 05  27 10 EB 92 08 01 04 27  .'......'......'
0730: 10 EC 92 08 01 05 27 10  ED 92 08 01 05 27 10 EE  ......'......'..
0740: 92 08 01 05 27 10 F1 92  08 01 04 45 67 80 F0 FF  ....'......Eg...
0750: FF 7F F0 FF FF 7F 30 31  30 6E 1A 80 1A 91 45 1C  ......010n....E.
0760: 68 80 52 67 80 F0 FF FF  7F F0 FF FF 7F 30 31 30  h.Rg.........010
0770: 6E 45 67 80 F0 FF FF 7F  F0 FF FF 7F 30 31 30 6F  nEg.........010o
0780: 1A 80 27 10 E9 92 08 01  12 27 10 F3 92 08 01 08  ..'......'......
0790: 27 10 F4 92 08 01 09 7A  00 E1 92 08 01 7A 00 E2  '......z.....z..
07A0: 92 08 01 7A 00 E5 92 08  01 7A 00 F5 92 08 01 7A  ...z.....z.....z
07B0: 00 F6 92 08 01 7A 00 EA  92 08 01 7A 00 EC 92 08  .....z.....z....
07C0: 01 7A 00 ED 92 08 01 7A  00 EE 92 08 01 27 10 E1  .z.....z.....'..
07D0: 92 08 01 0B 27 10 E2 92  08 01 0D 27 10 E5 92 08  ....'......'....
07E0: 01 0F 27 10 F5 92 08 01  07 27 10 EA 92 08 01 04  ..'......'......
07F0: 27 10 EC 92 08 01 03 27  10 ED 92 08 01 03 27 10  '......'......'.
0800: EE 92 08 01 03 BA E1 92  08 01 69 80 6A 80 6B 80  ..........i.j.k.
0810: 28 80 BA E2 92 08 01 6C  80 6D 80 6E 80 28 80 BA  (......l.m.n.(..
0820: E5 92 08 01 6F 80 70 80  71 80 28 80 BA F5 92 08  ....o.p.q.(.....
0830: 01 72 80 73 80 74 80 28  80 BA F6 92 08 01 75 80  .r.s.t.(......u.
0840: 76 80 77 80 78 80 BA EA  92 08 01 79 80 7A 80 7B  v.w.x......y.z.{
0850: 80 28 80 BA EC 92 08 01  7C 80 7D 80 7E 80 05 80  .(......|.}.~...
0860: BA ED 92 08 01 7F 80 80  80 81 80 82 80 BA EE 92  ................
0870: 08 01 83 80 84 80 85 80  86 80 4A E1 92 08 01 E2  ..........J.....
0880: 92 08 01 4A E2 92 08 01  E1 92 08 01 4A E5 92 08  ...J........J...
0890: 01 13 93 08 01 4A EA 92  08 01 EC 92 08 01 4A EC  .....J........J.
08A0: 92 08 01 EA 92 08 01 1C  01 80 66 87 80 E1 92 08  ..........f.....
08B0: 01 E1 92 08 01 74 6C 6B  30 66 87 80 E5 92 08 01  .....tlk0f......
08C0: E5 92 08 01 73 68 61 30  1C 68 80 52 67 80 F0 FF  ....sha0.h.Rg...
08D0: FF 7F F0 FF FF 7F 30 31  30 6F 45 67 80 F0 FF FF  ......010oEg....
08E0: 7F F0 FF FF 7F 30 31 30  70 1A 80 27 10 F6 92 08  .....010p..'....
08F0: 01 0C 27 10 ED 92 08 01  06 27 10 EE 92 08 01 06  ..'......'......
0900: 27 10 E6 92 08 01 0D 27  10 E7 92 08 01 0E 27 10  '......'......'.
0910: E8 92 08 01 0B 27 10 E9  92 08 01 10 1C 88 80 6E  .....'.........n
0920: EA 92 08 01 89 80 99 EA  92 08 01 1C 01 80 6E EC  ..............n.
0930: 92 08 01 8A 80 99 EC 92  08 01 1C 88 80 52 67 80  .............Rg.
0940: F0 FF FF 7F F0 FF FF 7F  30 31 30 70 45 67 80 F0  ........010pEg..
0950: FF FF 7F F0 FF FF 7F 30  31 30 6D 1A 80 BA E6 92  .......010m.....
0960: 08 01 8B 80 8C 80 8D 80  28 80 BA E7 92 08 01 8E  ........(.......
0970: 80 8F 80 90 80 28 80 BA  E8 92 08 01 91 80 92 80  .....(..........
0980: 93 80 28 80 BA E9 92 08  01 94 80 95 80 96 80 28  ..(............(
0990: 80 BA F6 92 08 01 97 80  98 80 99 80 28 80 27 10  ............(.'.
09A0: E6 92 08 01 10 27 10 E7  92 08 01 11 27 10 E8 92  .....'......'...
09B0: 08 01 0D 27 10 E9 92 08  01 11 27 10 F6 92 08 01  ...'......'.....
09C0: 0A 1C 9A 80 5B 9B 80 56  93 08 01 56 93 08 01 6B  ....[..V...V...k
09D0: 79 6F 30 1C 9C 80 52 67  80 F0 FF FF 7F F0 FF FF  yo0...Rg........
09E0: 7F 30 31 30 6D 29 10 F0  FF FF 7F 04 02 02 10 9D  .010m)..........
09F0: 80 80 08 0A 45 67 80 F0  FF FF 7F F0 FF FF 7F 30  ....Eg.........0
0A00: 31 30 30 1A 80 01 CC 0A  02 02 10 9E 80 80 24 0A  100...........$.
0A10: 45 67 80 F0 FF FF 7F F0  FF FF 7F 30 31 30 30 1A  Eg.........0100.
0A20: 80 01 CC 0A 02 02 10 9F  80 80 40 0A 45 67 80 F0  ..........@.Eg..
0A30: FF FF 7F F0 FF FF 7F 31  68 69 30 1A 80 01 CC 0A  .......1hi0.....
0A40: 02 02 10 A0 80 80 5C 0A  45 67 80 F0 FF FF 7F F0  ......\.Eg......
0A50: FF FF 7F 31 68 69 30 1A  80 01 CC 0A 02 02 10 A1  ...1hi0.........
0A60: 80 80 78 0A 45 67 80 F0  FF FF 7F F0 FF FF 7F 31  ..x.Eg.........1
0A70: 73 68 30 1A 80 01 CC 0A  02 02 10 A2 80 80 94 0A  sh0.............
0A80: 45 67 80 F0 FF FF 7F F0  FF FF 7F 31 73 68 30 1A  Eg.........1sh0.
0A90: 80 01 CC 0A 02 02 10 8A  80 80 B0 0A 45 67 80 F0  ............Eg..
0AA0: FF FF 7F F0 FF FF 7F 30  31 30 30 1A 80 01 CC 0A  .......0100.....
0AB0: 02 02 10 A3 80 80 CC 0A  45 67 80 F0 FF FF 7F F0  ........Eg......
0AC0: FF FF 7F 31 68 69 30 1A  80 01 CC 0A 2B 56 93 08  ...1hi0.....+V..
0AD0: 01 A4 80 23 52 67 80 F0  FF FF 7F F0 FF FF 7F 30  ...#Rg.........0
0AE0: 31 30 30 52 67 80 F0 FF  FF 7F F0 FF FF 7F 31 68  100Rg.........1h
0AF0: 69 30 52 67 80 F0 FF FF  7F F0 FF FF 7F 31 73 68  i0Rg.........1sh
0B00: 30 45 67 80 F0 FF FF 7F  F0 FF FF 7F 30 31 30 32  0Eg.........0102
0B10: 1A 80 5D 88 80 61 80 C5  A5 80 58 93 08 01 58 93  ..]..a....X...X.
0B20: 08 01 73 74 30 31 1A 80  81 01 56 93 08 01 27 10  ..st01....V...'.
0B30: 58 93 08 01 09 1C A6 80  C5 A5 80 58 93 08 01 58  X..........X...X
0B40: 93 08 01 73 74 30 35 1A  80 6B 69 64 6C 30 56 93  ...st05..kidl0V.
0B50: 08 01 7A 00 E6 92 08 01  7A 00 E7 92 08 01 7A 00  ..z.....z.....z.
0B60: E8 92 08 01 7A 00 E9 92  08 01 7A 00 F6 92 08 01  ....z.....z.....
0B70: BA F0 FF FF 7F A7 80 A8  80 A9 80 05 80 BA E6 92  ................
0B80: 08 01 AA 80 AB 80 AC 80  AD 80 BA E7 92 08 01 AE  ................
0B90: 80 AF 80 B0 80 B1 80 BA  E8 92 08 01 B2 80 B3 80  ................
0BA0: B4 80 B5 80 BA E9 92 08  01 B6 80 B7 80 B8 80 AD  ................
0BB0: 80 BA F6 92 08 01 B9 80  BA 80 BB 80 BC 80 1C 88  ................
0BC0: 80 27 10 E6 92 08 01 0F  27 10 E7 92 08 01 0F 27  .'......'......'
0BD0: 10 E8 92 08 01 0C 27 10  E9 92 08 01 0F 27 10 F6  ......'......'..
0BE0: 92 08 01 09 52 67 80 F0  FF FF 7F F0 FF FF 7F 30  ....Rg.........0
0BF0: 31 30 32 45 67 80 F0 FF  FF 7F F0 FF FF 7F 30 31  102Eg.........01
0C00: 30 33 1A 80 1C 61 80 52  67 80 F0 FF FF 7F F0 FF  03...a.Rg.......
0C10: FF 7F 30 31 30 33 45 67  80 F0 FF FF 7F F0 FF FF  ..0103Eg........
0C20: 7F 30 31 30 34 1A 80 27  10 E6 92 08 01 11 27 10  .0104..'......'.
0C30: E7 92 08 01 12 27 10 E8  92 08 01 0E 27 10 E9 92  .....'......'...
0C40: 08 01 13 27 10 F6 92 08  01 0D 29 10 58 93 08 01  ...'......).X...
0C50: 0A 4A F0 FF FF 7F 58 93  08 01 4A 56 93 08 01 58  .J....X...JV...X
0C60: 93 08 01 2B 58 93 08 01  BD 80 23 2B 56 93 08 01  ...+X.....#+V...
0C70: BE 80 23 52 67 80 F0 FF  FF 7F F0 FF FF 7F 30 31  ..#Rg.........01
0C80: 30 34 45 67 80 F0 FF FF  7F F0 FF FF 7F 30 31 30  04Eg.........010
0C90: 35 1A 80 5B BF 80 58 93  08 01 58 93 08 01 74 6C  5..[..X...X...tl
0CA0: 62 30 2B 58 93 08 01 C0  80 23 52 67 80 F0 FF FF  b0+X.....#Rg....
0CB0: 7F F0 FF FF 7F 30 31 30  35 45 67 80 F0 FF FF 7F  .....0105Eg.....
0CC0: F0 FF FF 7F 30 31 30 36  1A 80 BA ED 92 08 01 C1  ....0106........
0CD0: 80 C2 80 C3 80 AD 80 BA  EE 92 08 01 C4 80 C5 80  ................
0CE0: C6 80 AD 80 7B 56 93 08  01 5B C7 80 56 93 08 01  ....{V...[..V...
0CF0: 56 93 08 01 74 6C 63 30  5B BF 80 58 93 08 01 58  V...tlc0[..X...X
0D00: 93 08 01 74 6C 62 31 2B  56 93 08 01 C8 80 23 5B  ...tlb1+V.....#[
0D10: C7 80 56 93 08 01 56 93  08 01 74 6C 63 31 2B 56  ..V...V...tlc1+V
0D20: 93 08 01 C9 80 23 52 67  80 F0 FF FF 7F F0 FF FF  .....#Rg........
0D30: 7F 30 31 30 36 45 67 80  F0 FF FF 7F F0 FF FF 7F  .0106Eg.........
0D40: 30 31 30 37 1A 80 4B 58  93 08 01 CA 80 2B 58 93  0107..KX.....+X.
0D50: 08 01 CB 80 23 29 10 58  93 08 01 0B 1C 01 80 5B  ....#).X.......[
0D60: CC 80 58 93 08 01 58 93  08 01 65 31 30 32 1C A1  ..X...X...e102..
0D70: 80 52 67 80 F0 FF FF 7F  F0 FF FF 7F 30 31 30 37  .Rg.........0107
0D80: 45 67 80 F0 FF FF 7F F0  FF FF 7F 30 31 30 38 1A  Eg.........0108.
0D90: 80 2B 58 93 08 01 CD 80  23 81 00 56 93 08 01 5B  .+X.....#..V...[
0DA0: CE 80 56 93 08 01 56 93  08 01 6B 69 61 30 1C A6  ..V...V...kia0..
0DB0: 80 52 67 80 F0 FF FF 7F  F0 FF FF 7F 30 31 30 38  .Rg.........0108
0DC0: 45 67 80 F0 FF FF 7F F0  FF FF 7F 30 31 30 39 1A  Eg.........0109.
0DD0: 80 6B 69 64 6C 30 58 93  08 01 2B 56 93 08 01 CF  .kidl0X...+V....
0DE0: 80 23 52 67 80 F0 FF FF  7F F0 FF FF 7F 30 31 30  .#Rg.........010
0DF0: 39 45 67 80 F0 FF FF 7F  F0 FF FF 7F 30 31 30 61  9Eg.........010a
0E00: 1A 80 27 10 58 93 08 01  0C 2B 58 93 08 01 D0 80  ..'.X....+X.....
0E10: 1C 88 80 BB D1 80 58 93  08 01 58 93 08 01 73 74  ......X...X...st
0E20: 30 33 1A 80 2A 10 58 93  08 01 1C 61 80 52 67 80  03..*.X....a.Rg.
0E30: F0 FF FF 7F F0 FF FF 7F  30 31 30 61 45 67 80 F0  ........010aEg..
0E40: FF FF 7F F0 FF FF 7F 30  31 30 62 1A 80 1C 01 80  .......010b.....
0E50: BB D1 80 58 93 08 01 58  93 08 01 73 74 30 32 1A  ...X...X...st02.
0E60: 80 6B 69 64 6C 30 56 93  08 01 1C D2 80 81 01 56  .kidl0V........V
0E70: 93 08 01 52 67 80 F0 FF  FF 7F F0 FF FF 7F 30 31  ...Rg.........01
0E80: 30 62 29 10 F0 FF FF 7F  04 02 02 10 9D 80 80 A5  0b).............
0E90: 0E 45 67 80 F0 FF FF 7F  F0 FF FF 7F 30 31 30 63  .Eg.........010c
0EA0: 1A 80 01 69 0F 02 02 10  9E 80 80 C1 0E 45 67 80  ...i.........Eg.
0EB0: F0 FF FF 7F F0 FF FF 7F  30 31 30 63 1A 80 01 69  ........010c...i
0EC0: 0F 02 02 10 9F 80 80 DD  0E 45 67 80 F0 FF FF 7F  .........Eg.....
0ED0: F0 FF FF 7F 30 31 30 63  1A 80 01 69 0F 02 02 10  ....010c...i....
0EE0: A0 80 80 F9 0E 45 67 80  F0 FF FF 7F F0 FF FF 7F  .....Eg.........
0EF0: 30 31 30 63 1A 80 01 69  0F 02 02 10 A1 80 80 15  010c...i........
0F00: 0F 45 67 80 F0 FF FF 7F  F0 FF FF 7F 31 74 72 30  .Eg.........1tr0
0F10: 1A 80 01 69 0F 02 02 10  A2 80 80 31 0F 45 67 80  ...i.......1.Eg.
0F20: F0 FF FF 7F F0 FF FF 7F  31 74 72 30 1A 80 01 69  ........1tr0...i
0F30: 0F 02 02 10 8A 80 80 4D  0F 45 67 80 F0 FF FF 7F  .......M.Eg.....
0F40: F0 FF FF 7F 30 31 30 63  1A 80 01 69 0F 02 02 10  ....010c...i....
0F50: A3 80 80 69 0F 45 67 80  F0 FF FF 7F F0 FF FF 7F  ...i.Eg.........
0F60: 30 31 30 63 1A 80 01 69  0F 4A F0 FF FF 7F 56 93  010c...i.J....V.
0F70: 08 01 4A 56 93 08 01 F0  FF FF 7F 2B 56 93 08 01  ..JV.......+V...
0F80: D3 80 23 5D 1A 80 D4 80  1A B2 45 1C 9C 80 27 10  ..#]......E...'.
0F90: E1 92 08 01 09 27 10 E2  92 08 01 0B 27 10 E5 92  .....'......'...
0FA0: 08 01 0D 27 10 E6 92 08  01 0C 27 10 E7 92 08 01  ...'......'.....
0FB0: 0D 27 10 E8 92 08 01 0A  27 10 E9 92 08 01 0D 27  .'......'......'
0FC0: 10 F3 92 08 01 06 27 10  F4 92 08 01 07 27 10 F5  ......'......'..
0FD0: 92 08 01 06 27 10 F6 92  08 01 07 27 10 EA 92 08  ....'......'....
0FE0: 01 02 27 10 EB 92 08 01  02 27 10 EC 92 08 01 02  ..'......'......
0FF0: 27 10 ED 92 08 01 02 27  10 EE 92 08 01 02 27 10  '......'......'.
1000: EF 92 08 01 02 27 10 F0  92 08 01 02 27 10 F1 92  .....'......'...
1010: 08 01 02 27 10 F2 92 08  01 02 1C 9C 80 4E 01 E1  ...'.........N..
1020: 92 08 01 4E 01 E2 92 08  01 4E 01 E5 92 08 01 4E  ...N.....N.....N
1030: 01 E6 92 08 01 4E 01 E7  92 08 01 4E 01 E8 92 08  .....N.....N....
1040: 01 4E 01 E9 92 08 01 4E  01 F3 92 08 01 4E 01 F4  .N.....N.....N..
1050: 92 08 01 4E 01 F5 92 08  01 4E 01 F6 92 08 01 4E  ...N.....N.....N
1060: 01 EA 92 08 01 4E 01 EB  92 08 01 4E 01 EC 92 08  .....N.....N....
1070: 01 4E 01 ED 92 08 01 4E  01 EE 92 08 01 4E 01 EF  .N.....N.....N..
1080: 92 08 01 4E 01 F0 92 08  01 4E 01 F1 92 08 01 4E  ...N.....N.....N
1090: 01 F2 92 08 01 4E 01 0B  93 08 01 4E 01 0C 93 08  .....N.....N....
10A0: 01 4E 01 0D 93 08 01 4E  01 0E 93 08 01 4E 01 0F  .N.....N.....N..
10B0: 93 08 01 4E 01 10 93 08  01 4E 01 11 93 08 01 4E  ...N.....N.....N
10C0: 01 12 93 08 01 4E 01 13  93 08 01 4E 01 14 93 08  .....N.....N....
10D0: 01 1C 9C 80 34 D5 80 77  D6 80 00 80 1C 9C 80 AB  ....4..w........
10E0: 09 1C 88 80 59 05 58 93  08 01 01 BA 58 93 08 01  ....Y.X.....X...
10F0: D7 80 D8 80 D9 80 DA 80  80 F0 FF FF 7F 80 58 93  ..............X.
1100: 08 01 1C 01 80 81 00 58  93 08 01 27 10 58 93 08  .......X...'.X..
1110: 01 08 5C 00 DB 80 5C 01  DB 80 5C 02 DB 80 5C 03  ..\...\...\...\.
1120: DB 80 9A 1C 01 80 52 67  80 F0 FF FF 7F F0 FF FF  ......Rg........
1130: 7F 30 31 30 63 45 67 80  F0 FF FF 7F F0 FF FF 7F  .010cEg.........
1140: 30 31 30 71 1A 80 1A 91  45 1C 68 80 52 67 80 F0  010q....E.h.Rg..
1150: FF FF 7F F0 FF FF 7F 30  31 30 71 45 67 80 F0 FF  .......010qEg...
1160: FF 7F F0 FF FF 7F 30 31  30 72 1A 80 1C D4 80 52  ......010r.....R
1170: 67 80 F0 FF FF 7F F0 FF  FF 7F 30 31 30 72 45 67  g.........010rEg
1180: 80 F0 FF FF 7F F0 FF FF  7F 30 31 30 31 1A 80 45  .........0101..E
1190: 67 80 58 93 08 01 58 93  08 01 34 30 34 39 1A 80  g.X...X...4049..
11A0: 1C 61 80 BB DC 80 58 93  08 01 58 93 08 01 73 74  .a....X...X...st
11B0: 30 31 1A 80 1C 61 80 52  67 80 F0 FF FF 7F F0 FF  01...a.Rg.......
11C0: FF 7F 30 31 30 31 45 67  80 F0 FF FF 7F F0 FF FF  ..0101Eg........
11D0: 7F 30 31 30 64 1A 80 1C  D4 80 52 67 80 F0 FF FF  .010d.....Rg....
11E0: 7F F0 FF FF 7F 30 31 30  64 45 67 80 F0 FF FF 7F  .....010dEg.....
11F0: F0 FF FF 7F 30 31 30 65  1A 80 1C 61 80 BB DC 80  ....010e...a....
1200: 58 93 08 01 58 93 08 01  73 74 30 32 1A 80 1C 01  X...X...st02....
1210: 80 52 67 80 F0 FF FF 7F  F0 FF FF 7F 30 31 30 31  .Rg.........0101
1220: 45 67 80 F0 FF FF 7F F0  FF FF 7F 30 31 30 66 1A  Eg.........010f.
1230: 80 1C D4 80 52 67 80 F0  FF FF 7F F0 FF FF 7F 30  ....Rg.........0
1240: 31 30 66 45 67 80 F0 FF  FF 7F F0 FF FF 7F 30 31  10fEg.........01
1250: 30 67 1A 80 81 01 58 93  08 01 2B 58 93 08 01 DD  0g....X...+X....
1260: 80 23 27 10 58 93 08 01  0D 1C 88 80 52 67 80 F0  .#'.X.......Rg..
1270: FF FF 7F F0 FF FF 7F 30  31 30 67 45 67 80 F0 FF  .......010gEg...
1280: FF 7F F0 FF FF 7F 30 31  30 68 1A 80 7A 00 58 93  ......010h..z.X.
1290: 08 01 BA 58 93 08 01 DE  80 DF 80 E0 80 E1 80 27  ...X...........'
12A0: 10 58 93 08 01 0E 2B 58  93 08 01 E2 80 23 52 67  .X....+X.....#Rg
12B0: 80 F0 FF FF 7F F0 FF FF  7F 30 31 30 68 45 67 80  .........010hEg.
12C0: F0 FF FF 7F F0 FF FF 7F  30 31 30 6A 1A 80 7A 00  ........010j..z.
12D0: 58 93 08 01 BA 58 93 08  01 E3 80 E4 80 E0 80 E5  X....X..........
12E0: 80 27 10 58 93 08 01 0E  5B E6 80 58 93 08 01 58  .'.X....[..X...X
12F0: 93 08 01 66 65 30 30 2A  10 58 93 08 01 1C 01 80  ...fe00*.X......
1300: 5B E7 80 58 93 08 01 58  93 08 01 74 68 6B 30 1C  [..X...X...thk0.
1310: 9C 80 52 67 80 F0 FF FF  7F F0 FF FF 7F 30 31 30  ..Rg.........010
1320: 6A 45 67 80 F0 FF FF 7F  F0 FF FF 7F 30 31 30 6B  jEg.........010k
1330: 1A 80 2B 58 93 08 01 E8  80 23 5B E7 80 58 93 08  ..+X.....#[..X..
1340: 01 58 93 08 01 74 68 6B  31 1C E9 80 27 10 58 93  .X...thk1...'.X.
1350: 08 01 0F 1C 01 80 52 67  80 F0 FF FF 7F F0 FF FF  ......Rg........
1360: 7F 30 31 30 6B 45 67 80  F0 FF FF 7F F0 FF FF 7F  .010kEg.........
1370: 30 31 30 6C 1A 80 BA 58  93 08 01 E3 80 EA 80 E0  010l...X........
1380: 80 E5 80 1C EB 80 1A B2  45 59 05 58 93 08 01 00  ........EY.X....
1390: 52 67 80 F0 FF FF 7F F0  FF FF 7F 30 31 30 6C 1C  Rg.........010l.
13A0: 9C 80 AB 11 1A 80 1C 9D  80 35 EC 80 78 1C 9D 80  .........5..x...
13B0: AB 0A 1C 9C 80 AB 11 1A  80 1C 9D 80 46 00 45 ED  ............F.E.
13C0: 80 F0 FF FF 7F F0 FF FF  7F 66 64 69 32 1A 80 21  .........fdi2..!
13D0: 00                                                .               
```

#### Opcodes

```
  0: 0x0001 [0x42] SET_CLI_EVENT_CANCEL_DATA()
  1: 0x0002 [0x1A] CALL_SUBROUTINE(address=0x45B2)
  2: 0x0005 [0x46] CAMERA_CONTROL: Disable user control
  3: 0x0007 [0x38] SET_CLIENT_EVENT_MODE(mode=19*)
  4: 0x000A [0x4E] SET_ENTITY_HIDE_FLAG: Show LocalPlayer
  5: 0x0010 [0x27] REQ_SET(priority=0x10, entity_id=Lilisette (ID: 17339222/0x01089356), tag_num=0x04)
  6: 0x0017 [0x27] REQ_SET(priority=0x10, entity_id=Cait Sith (ID: 17339224/0x01089358), tag_num=0x02)
  7: 0x001E [0x2F] Alainasion (ID: 17339105/0x010892E1)->Render.Flags0 &= ~0x80000 // Bit 19
  8: 0x0024 [0x2F] Hersaume (ID: 17339106/0x010892E2)->Render.Flags0 &= ~0x80000 // Bit 19
  9: 0x002A [0x2F] Leuonard (ID: 17339109/0x010892E5)->Render.Flags0 &= ~0x80000 // Bit 19
 10: 0x0030 [0x2F] kisiB (ID: 17339110/0x010892E6)->Render.Flags0 &= ~0x80000 // Bit 19
 11: 0x0036 [0x2F] kisiC (ID: 17339111/0x010892E7)->Render.Flags0 &= ~0x80000 // Bit 19
 12: 0x003C [0x2F] kisiD (ID: 17339112/0x010892E8)->Render.Flags0 &= ~0x80000 // Bit 19
 13: 0x0042 [0x2F] kisiE (ID: 17339113/0x010892E9)->Render.Flags0 &= ~0x80000 // Bit 19
 14: 0x0048 [0x2F] 01 (ID: 17339123/0x010892F3)->Render.Flags0 &= ~0x80000 // Bit 19
 15: 0x004E [0x2F] 02 (ID: 17339124/0x010892F4)->Render.Flags0 &= ~0x80000 // Bit 19
 16: 0x0054 [0x2F] 03 (ID: 17339125/0x010892F5)->Render.Flags0 &= ~0x80000 // Bit 19
 17: 0x005A [0x2F] 04 (ID: 17339126/0x010892F6)->Render.Flags0 &= ~0x80000 // Bit 19
 18: 0x0060 [0x2F] kisi01 (ID: 17339114/0x010892EA)->Render.Flags0 &= ~0x80000 // Bit 19
 19: 0x0066 [0x2F] kisi02 (ID: 17339115/0x010892EB)->Render.Flags0 &= ~0x80000 // Bit 19
 20: 0x006C [0x2F] kisi03 (ID: 17339116/0x010892EC)->Render.Flags0 &= ~0x80000 // Bit 19
 21: 0x0072 [0x2F] kisi04 (ID: 17339117/0x010892ED)->Render.Flags0 &= ~0x80000 // Bit 19
 22: 0x0078 [0x2F] kisi05 (ID: 17339118/0x010892EE)->Render.Flags0 &= ~0x80000 // Bit 19
 23: 0x007E [0x2F] kisi06 (ID: 17339119/0x010892EF)->Render.Flags0 &= ~0x80000 // Bit 19
 24: 0x0084 [0x2F] kisi07 (ID: 17339120/0x010892F0)->Render.Flags0 &= ~0x80000 // Bit 19
 25: 0x008A [0x2F] kisi08 (ID: 17339121/0x010892F1)->Render.Flags0 &= ~0x80000 // Bit 19
 26: 0x0090 [0x2F] kisi09 (ID: 17339122/0x010892F2)->Render.Flags0 &= ~0x80000 // Bit 19
 27: 0x0096 [0x4E] SET_ENTITY_HIDE_FLAG: Show Alainasion (ID: 17339105/0x010892E1)
 28: 0x009C [0x4E] SET_ENTITY_HIDE_FLAG: Show Hersaume (ID: 17339106/0x010892E2)
 29: 0x00A2 [0x4E] SET_ENTITY_HIDE_FLAG: Show Leuonard (ID: 17339109/0x010892E5)
 30: 0x00A8 [0x4E] SET_ENTITY_HIDE_FLAG: Show kisiB (ID: 17339110/0x010892E6)
 31: 0x00AE [0x4E] SET_ENTITY_HIDE_FLAG: Show kisiC (ID: 17339111/0x010892E7)
 32: 0x00B4 [0x4E] SET_ENTITY_HIDE_FLAG: Show kisiD (ID: 17339112/0x010892E8)
 33: 0x00BA [0x4E] SET_ENTITY_HIDE_FLAG: Show kisiE (ID: 17339113/0x010892E9)
 34: 0x00C0 [0x4E] SET_ENTITY_HIDE_FLAG: Show 01 (ID: 17339123/0x010892F3)
 35: 0x00C6 [0x4E] SET_ENTITY_HIDE_FLAG: Show 02 (ID: 17339124/0x010892F4)
 36: 0x00CC [0x4E] SET_ENTITY_HIDE_FLAG: Show 03 (ID: 17339125/0x010892F5)
 37: 0x00D2 [0x4E] SET_ENTITY_HIDE_FLAG: Show 04 (ID: 17339126/0x010892F6)
 38: 0x00D8 [0x4E] SET_ENTITY_HIDE_FLAG: Show kisi01 (ID: 17339114/0x010892EA)
 39: 0x00DE [0x4E] SET_ENTITY_HIDE_FLAG: Show kisi02 (ID: 17339115/0x010892EB)
 40: 0x00E4 [0x4E] SET_ENTITY_HIDE_FLAG: Show kisi03 (ID: 17339116/0x010892EC)
 41: 0x00EA [0x4E] SET_ENTITY_HIDE_FLAG: Show kisi04 (ID: 17339117/0x010892ED)
 42: 0x00F0 [0x4E] SET_ENTITY_HIDE_FLAG: Show kisi05 (ID: 17339118/0x010892EE)
 43: 0x00F6 [0x4E] SET_ENTITY_HIDE_FLAG: Show kisi06 (ID: 17339119/0x010892EF)
 44: 0x00FC [0x4E] SET_ENTITY_HIDE_FLAG: Show kisi07 (ID: 17339120/0x010892F0)
 45: 0x0102 [0x4E] SET_ENTITY_HIDE_FLAG: Show kisi08 (ID: 17339121/0x010892F1)
 46: 0x0108 [0x4E] SET_ENTITY_HIDE_FLAG: Show kisi09 (ID: 17339122/0x010892F2)
 47: 0x010E [0x4E] SET_ENTITY_HIDE_FLAG: Show ??? (ID: 17339147/0x0108930B)
 48: 0x0114 [0x4E] SET_ENTITY_HIDE_FLAG: Show 02 (ID: 17339148/0x0108930C)
 49: 0x011A [0x4E] SET_ENTITY_HIDE_FLAG: Show 03 (ID: 17339149/0x0108930D)
 50: 0x0120 [0x4E] SET_ENTITY_HIDE_FLAG: Show 04 (ID: 17339150/0x0108930E)
 51: 0x0126 [0x4E] SET_ENTITY_HIDE_FLAG: Show 05 (ID: 17339151/0x0108930F)
 52: 0x012C [0x4E] SET_ENTITY_HIDE_FLAG: Show 06 (ID: 17339152/0x01089310)
 53: 0x0132 [0x4E] SET_ENTITY_HIDE_FLAG: Show 07 (ID: 17339153/0x01089311)
 54: 0x0138 [0x4E] SET_ENTITY_HIDE_FLAG: Show 08 (ID: 17339154/0x01089312)
 55: 0x013E [0x4E] SET_ENTITY_HIDE_FLAG: Show 09 (ID: 17339155/0x01089313)
 56: 0x0144 [0x4E] SET_ENTITY_HIDE_FLAG: Show 10 (ID: 17339156/0x01089314)
 57: 0x014A [0x92] Lilisette (ID: 17339222/0x01089356)->Render.Flags3 ^= 0x01
 58: 0x0150 [0x92] Cait Sith (ID: 17339224/0x01089358)->Render.Flags3 ^= 0x01
 59: 0x0156 [0x92] Alainasion (ID: 17339105/0x010892E1)->Render.Flags3 ^= 0x01
 60: 0x015C [0x92] Hersaume (ID: 17339106/0x010892E2)->Render.Flags3 ^= 0x01
 61: 0x0162 [0x92] Leuonard (ID: 17339109/0x010892E5)->Render.Flags3 ^= 0x01
 62: 0x0168 [0x92] kisiB (ID: 17339110/0x010892E6)->Render.Flags3 ^= 0x01
 63: 0x016E [0x92] kisiC (ID: 17339111/0x010892E7)->Render.Flags3 ^= 0x01
 64: 0x0174 [0x92] kisiD (ID: 17339112/0x010892E8)->Render.Flags3 ^= 0x01
 65: 0x017A [0x92] kisiE (ID: 17339113/0x010892E9)->Render.Flags3 ^= 0x01
 66: 0x0180 [0x92] 01 (ID: 17339123/0x010892F3)->Render.Flags3 ^= 0x01
 67: 0x0186 [0x92] 02 (ID: 17339124/0x010892F4)->Render.Flags3 ^= 0x01
 68: 0x018C [0x92] 03 (ID: 17339125/0x010892F5)->Render.Flags3 ^= 0x01
 69: 0x0192 [0x92] 04 (ID: 17339126/0x010892F6)->Render.Flags3 ^= 0x01
 70: 0x0198 [0x92] kisi01 (ID: 17339114/0x010892EA)->Render.Flags3 ^= 0x01
 71: 0x019E [0x92] kisi02 (ID: 17339115/0x010892EB)->Render.Flags3 ^= 0x01
 72: 0x01A4 [0x92] kisi03 (ID: 17339116/0x010892EC)->Render.Flags3 ^= 0x01
 73: 0x01AA [0x92] kisi04 (ID: 17339117/0x010892ED)->Render.Flags3 ^= 0x01
 74: 0x01B0 [0x92] kisi05 (ID: 17339118/0x010892EE)->Render.Flags3 ^= 0x01
 75: 0x01B6 [0x92] kisi06 (ID: 17339119/0x010892EF)->Render.Flags3 ^= 0x01
 76: 0x01BC [0x92] kisi07 (ID: 17339120/0x010892F0)->Render.Flags3 ^= 0x01
 77: 0x01C2 [0x92] kisi08 (ID: 17339121/0x010892F1)->Render.Flags3 ^= 0x01
 78: 0x01C8 [0x92] kisi09 (ID: 17339122/0x010892F2)->Render.Flags3 ^= 0x01
 79: 0x01CE [0x92] ??? (ID: 17339147/0x0108930B)->Render.Flags3 ^= 0x01
 80: 0x01D4 [0x92] 02 (ID: 17339148/0x0108930C)->Render.Flags3 ^= 0x01
 81: 0x01DA [0x92] 03 (ID: 17339149/0x0108930D)->Render.Flags3 ^= 0x01
 82: 0x01E0 [0x92] 04 (ID: 17339150/0x0108930E)->Render.Flags3 ^= 0x01
 83: 0x01E6 [0x92] 05 (ID: 17339151/0x0108930F)->Render.Flags3 ^= 0x01
 84: 0x01EC [0x92] 06 (ID: 17339152/0x01089310)->Render.Flags3 ^= 0x01
 85: 0x01F2 [0x92] 07 (ID: 17339153/0x01089311)->Render.Flags3 ^= 0x01
 86: 0x01F8 [0x92] 08 (ID: 17339154/0x01089312)->Render.Flags3 ^= 0x01
 87: 0x01FE [0x92] 09 (ID: 17339155/0x01089313)->Render.Flags3 ^= 0x01
 88: 0x0204 [0x92] 10 (ID: 17339156/0x01089314)->Render.Flags3 ^= 0x01
 89: 0x020A [0x1C] WAIT(60* ticks)
 90: 0x020D [0x94] LocalPlayer->Render.Flags3 ^= 0x01
 91: 0x0213 [0x94] Lilisette (ID: 17339222/0x01089356)->Render.Flags3 ^= 0x01
 92: 0x0219 [0x94] Cait Sith (ID: 17339224/0x01089358)->Render.Flags3 ^= 0x01
 93: 0x021F [0x94] Alainasion (ID: 17339105/0x010892E1)->Render.Flags3 ^= 0x01
 94: 0x0225 [0x94] Hersaume (ID: 17339106/0x010892E2)->Render.Flags3 ^= 0x01
 95: 0x022B [0x94] Leuonard (ID: 17339109/0x010892E5)->Render.Flags3 ^= 0x01
 96: 0x0231 [0x94] kisiB (ID: 17339110/0x010892E6)->Render.Flags3 ^= 0x01
 97: 0x0237 [0x94] kisiC (ID: 17339111/0x010892E7)->Render.Flags3 ^= 0x01
 98: 0x023D [0x94] kisiD (ID: 17339112/0x010892E8)->Render.Flags3 ^= 0x01
 99: 0x0243 [0x94] kisiE (ID: 17339113/0x010892E9)->Render.Flags3 ^= 0x01
100: 0x0249 [0x94] 01 (ID: 17339123/0x010892F3)->Render.Flags3 ^= 0x01
101: 0x024F [0x94] 02 (ID: 17339124/0x010892F4)->Render.Flags3 ^= 0x01
102: 0x0255 [0x94] 03 (ID: 17339125/0x010892F5)->Render.Flags3 ^= 0x01
103: 0x025B [0x94] 04 (ID: 17339126/0x010892F6)->Render.Flags3 ^= 0x01
104: 0x0261 [0x94] kisi01 (ID: 17339114/0x010892EA)->Render.Flags3 ^= 0x01
105: 0x0267 [0x94] kisi02 (ID: 17339115/0x010892EB)->Render.Flags3 ^= 0x01
106: 0x026D [0x94] kisi03 (ID: 17339116/0x010892EC)->Render.Flags3 ^= 0x01
107: 0x0273 [0x94] kisi04 (ID: 17339117/0x010892ED)->Render.Flags3 ^= 0x01
108: 0x0279 [0x94] kisi05 (ID: 17339118/0x010892EE)->Render.Flags3 ^= 0x01
109: 0x027F [0x94] kisi06 (ID: 17339119/0x010892EF)->Render.Flags3 ^= 0x01
110: 0x0285 [0x94] kisi07 (ID: 17339120/0x010892F0)->Render.Flags3 ^= 0x01
111: 0x028B [0x94] kisi08 (ID: 17339121/0x010892F1)->Render.Flags3 ^= 0x01
112: 0x0291 [0x94] kisi09 (ID: 17339122/0x010892F2)->Render.Flags3 ^= 0x01
113: 0x0297 [0x94] ??? (ID: 17339147/0x0108930B)->Render.Flags3 ^= 0x01
114: 0x029D [0x94] 02 (ID: 17339148/0x0108930C)->Render.Flags3 ^= 0x01
115: 0x02A3 [0x94] 03 (ID: 17339149/0x0108930D)->Render.Flags3 ^= 0x01
116: 0x02A9 [0x94] 04 (ID: 17339150/0x0108930E)->Render.Flags3 ^= 0x01
117: 0x02AF [0x94] 05 (ID: 17339151/0x0108930F)->Render.Flags3 ^= 0x01
118: 0x02B5 [0x94] 06 (ID: 17339152/0x01089310)->Render.Flags3 ^= 0x01
119: 0x02BB [0x94] 07 (ID: 17339153/0x01089311)->Render.Flags3 ^= 0x01
120: 0x02C1 [0x94] 08 (ID: 17339154/0x01089312)->Render.Flags3 ^= 0x01
121: 0x02C7 [0x94] 09 (ID: 17339155/0x01089313)->Render.Flags3 ^= 0x01
122: 0x02CD [0x94] 10 (ID: 17339156/0x01089314)->Render.Flags3 ^= 0x01
123: 0x02D3 [0xBA] SET_ENTITY_POSITION(entity_id=LocalPlayer, pos_x=566.844*, pos_z=-272.749*, pos_y=-0.022*, direction=148.9*)
124: 0x02E0 [0xBA] SET_ENTITY_POSITION(entity_id=Lilisette (ID: 17339222/0x01089356), pos_x=564.230*, pos_z=-272.739*, pos_y=-0.158*, direction=138.2*)
125: 0x02ED [0xBA] SET_ENTITY_POSITION(entity_id=Cait Sith (ID: 17339224/0x01089358), pos_x=568.416*, pos_z=-270.057*, pos_y=-0.248*, direction=142.9*)
126: 0x02FA [0xBA] SET_ENTITY_POSITION(entity_id=Alainasion (ID: 17339105/0x010892E1), pos_x=530.857*, pos_z=-278.242*, pos_y=0.340*, direction=210.9*)
127: 0x0307 [0xBA] SET_ENTITY_POSITION(entity_id=Hersaume (ID: 17339106/0x010892E2), pos_x=530.272*, pos_z=-279.994*, pos_y=0.311*, direction=210.9*)
128: 0x0314 [0xBA] SET_ENTITY_POSITION(entity_id=Leuonard (ID: 17339109/0x010892E5), pos_x=532.813*, pos_z=-279.315*, pos_y=0.476*, direction=210.9*)
129: 0x0321 [0xBA] SET_ENTITY_POSITION(entity_id=kisiB (ID: 17339110/0x010892E6), pos_x=519.640*, pos_z=-278.723*, pos_y=0.000*, direction=87.5*)
130: 0x032E [0xBA] SET_ENTITY_POSITION(entity_id=kisiC (ID: 17339111/0x010892E7), pos_x=520.992*, pos_z=-279.267*, pos_y=0.000*, direction=148.9*)
131: 0x033B [0xBA] SET_ENTITY_POSITION(entity_id=kisiD (ID: 17339112/0x010892E8), pos_x=519.619*, pos_z=-280.030*, pos_y=0.000*, direction=201.7*)
132: 0x0348 [0xBA] SET_ENTITY_POSITION(entity_id=kisiE (ID: 17339113/0x010892E9), pos_x=523.897*, pos_z=-280.288*, pos_y=-0.006*, direction=91.0*)
133: 0x0355 [0xBA] SET_ENTITY_POSITION(entity_id=01 (ID: 17339123/0x010892F3), pos_x=524.703*, pos_z=-279.214*, pos_y=0.034*, direction=148.8*)
134: 0x0362 [0xBA] SET_ENTITY_POSITION(entity_id=02 (ID: 17339124/0x010892F4), pos_x=525.128*, pos_z=-281.644*, pos_y=0.055*, direction=102.4*)
135: 0x036F [0xBA] SET_ENTITY_POSITION(entity_id=03 (ID: 17339125/0x010892F5), pos_x=532.218*, pos_z=-282.119*, pos_y=0.408*, direction=210.9*)
136: 0x037C [0xBA] SET_ENTITY_POSITION(entity_id=04 (ID: 17339126/0x010892F6), pos_x=534.474*, pos_z=-280.235*, pos_y=0.643*, direction=210.9*)
137: 0x0389 [0xBA] SET_ENTITY_POSITION(entity_id=kisi01 (ID: 17339114/0x010892EA), pos_x=545.862*, pos_z=-274.185*, pos_y=0.329*, direction=148.9*)
138: 0x0396 [0xBA] SET_ENTITY_POSITION(entity_id=kisi02 (ID: 17339115/0x010892EB), pos_x=524.476*, pos_z=-286.531*, pos_y=-0.104*, direction=148.9*)
139: 0x03A3 [0xBA] SET_ENTITY_POSITION(entity_id=kisi03 (ID: 17339116/0x010892EC), pos_x=537.032*, pos_z=-280.799*, pos_y=0.851*, direction=210.9*)
140: 0x03B0 [0xBA] SET_ENTITY_POSITION(entity_id=kisi04 (ID: 17339117/0x010892ED), pos_x=533.653*, pos_z=-283.938*, pos_y=0.561*, direction=210.9*)
141: 0x03BD [0xBA] SET_ENTITY_POSITION(entity_id=kisi05 (ID: 17339118/0x010892EE), pos_x=536.141*, pos_z=-284.231*, pos_y=0.741*, direction=210.9*)
142: 0x03CA [0xBA] SET_ENTITY_POSITION(entity_id=kisi06 (ID: 17339119/0x010892EF), pos_x=520.272*, pos_z=-283.164*, pos_y=0.000*, direction=148.8*)
143: 0x03D7 [0xBA] SET_ENTITY_POSITION(entity_id=kisi07 (ID: 17339120/0x010892F0), pos_x=519.839*, pos_z=-282.014*, pos_y=0.000*, direction=148.6*)
144: 0x03E4 [0xBA] SET_ENTITY_POSITION(entity_id=kisi08 (ID: 17339121/0x010892F1), pos_x=527.394*, pos_z=-289.575*, pos_y=-0.551*, direction=148.8*)
145: 0x03F1 [0xBA] SET_ENTITY_POSITION(entity_id=kisi09 (ID: 17339122/0x010892F2), pos_x=515.774*, pos_z=-281.561*, pos_y=-0.012*, direction=148.8*)
146: 0x03FE [0xBA] SET_ENTITY_POSITION(entity_id=??? (ID: 17339147/0x0108930B), pos_x=544.706*, pos_z=-272.618*, pos_y=0.208*, direction=0.0*)
147: 0x040B [0xBA] SET_ENTITY_POSITION(entity_id=02 (ID: 17339148/0x0108930C), pos_x=541.934*, pos_z=-272.640*, pos_y=0.044*, direction=0.0*)
148: 0x0418 [0xBA] SET_ENTITY_POSITION(entity_id=03 (ID: 17339149/0x0108930D), pos_x=537.008*, pos_z=-276.249*, pos_y=0.850*, direction=0.0*)
149: 0x0425 [0xBA] SET_ENTITY_POSITION(entity_id=04 (ID: 17339150/0x0108930E), pos_x=537.008*, pos_z=-276.249*, pos_y=0.850*, direction=0.0*)
150: 0x0432 [0xBA] SET_ENTITY_POSITION(entity_id=05 (ID: 17339151/0x0108930F), pos_x=525.174*, pos_z=-282.920*, pos_y=0.057*, direction=0.0*)
151: 0x043F [0xBA] SET_ENTITY_POSITION(entity_id=06 (ID: 17339152/0x01089310), pos_x=521.595*, pos_z=-281.208*, pos_y=0.000*, direction=0.0*)
152: 0x044C [0xBA] SET_ENTITY_POSITION(entity_id=07 (ID: 17339153/0x01089311), pos_x=521.595*, pos_z=-281.208*, pos_y=0.000*, direction=0.0*)
153: 0x0459 [0xBA] SET_ENTITY_POSITION(entity_id=08 (ID: 17339154/0x01089312), pos_x=541.434*, pos_z=-265.234*, pos_y=-0.425*, direction=0.0*)
154: 0x0466 [0xBA] SET_ENTITY_POSITION(entity_id=09 (ID: 17339155/0x01089313), pos_x=538.339*, pos_z=-261.774*, pos_y=-0.732*, direction=0.0*)
155: 0x0473 [0xBA] SET_ENTITY_POSITION(entity_id=10 (ID: 17339156/0x01089314), pos_x=538.339*, pos_z=-261.774*, pos_y=-0.732*, direction=0.0*)
156: 0x0480 [0x1C] WAIT(60* ticks)
157: 0x0483 [0x1C] WAIT(60* ticks)
158: 0x0486 [0x80] LOAD_WAIT(entity=LocalPlayer)
159: 0x048B [0x80] LOAD_WAIT(entity=Lilisette (ID: 17339222/0x01089356))
160: 0x0490 [0x80] LOAD_WAIT(entity=Cait Sith (ID: 17339224/0x01089358))
161: 0x0495 [0x5D] SET_MUSIC_VOLUME(volume=0*, fade_time=120*)
162: 0x049A [0x29] REQ_SET_WAIT(priority=0x10, entity_id=Alainasion (ID: 17339105/0x010892E1), tag_num=0x0A)
163: 0x04A1 [0x29] REQ_SET_WAIT(priority=0x10, entity_id=Hersaume (ID: 17339106/0x010892E2), tag_num=0x0C)
164: 0x04A8 [0x29] REQ_SET_WAIT(priority=0x10, entity_id=Leuonard (ID: 17339109/0x010892E5), tag_num=0x0E)
165: 0x04AF [0x29] REQ_SET_WAIT(priority=0x10, entity_id=kisiB (ID: 17339110/0x010892E6), tag_num=0x0F)
166: 0x04B6 [0x29] REQ_SET_WAIT(priority=0x10, entity_id=kisiC (ID: 17339111/0x010892E7), tag_num=0x10)
167: 0x04BD [0x29] REQ_SET_WAIT(priority=0x10, entity_id=kisiD (ID: 17339112/0x010892E8), tag_num=0x0C)
168: 0x04C4 [0x29] REQ_SET_WAIT(priority=0x10, entity_id=kisiE (ID: 17339113/0x010892E9), tag_num=0x0E)
169: 0x04CB [0x29] REQ_SET_WAIT(priority=0x10, entity_id=01 (ID: 17339123/0x010892F3), tag_num=0x07)
170: 0x04D2 [0x29] REQ_SET_WAIT(priority=0x10, entity_id=02 (ID: 17339124/0x010892F4), tag_num=0x08)
171: 0x04D9 [0x29] REQ_SET_WAIT(priority=0x10, entity_id=03 (ID: 17339125/0x010892F5), tag_num=0x08)
172: 0x04E0 [0x29] REQ_SET_WAIT(priority=0x10, entity_id=04 (ID: 17339126/0x010892F6), tag_num=0x08)
173: 0x04E7 [0x29] REQ_SET_WAIT(priority=0x10, entity_id=kisi01 (ID: 17339114/0x010892EA), tag_num=0x04)
174: 0x04EE [0x29] REQ_SET_WAIT(priority=0x10, entity_id=kisi02 (ID: 17339115/0x010892EB), tag_num=0x03)
175: 0x04F5 [0x29] REQ_SET_WAIT(priority=0x10, entity_id=kisi03 (ID: 17339116/0x010892EC), tag_num=0x04)
176: 0x04FC [0x29] REQ_SET_WAIT(priority=0x10, entity_id=kisi04 (ID: 17339117/0x010892ED), tag_num=0x04)
177: 0x0503 [0x29] REQ_SET_WAIT(priority=0x10, entity_id=kisi05 (ID: 17339118/0x010892EE), tag_num=0x04)
178: 0x050A [0x29] REQ_SET_WAIT(priority=0x10, entity_id=kisi06 (ID: 17339119/0x010892EF), tag_num=0x03)
179: 0x0511 [0x29] REQ_SET_WAIT(priority=0x10, entity_id=kisi07 (ID: 17339120/0x010892F0), tag_num=0x03)
180: 0x0518 [0x29] REQ_SET_WAIT(priority=0x10, entity_id=kisi08 (ID: 17339121/0x010892F1), tag_num=0x03)
181: 0x051F [0x29] REQ_SET_WAIT(priority=0x10, entity_id=kisi09 (ID: 17339122/0x010892F2), tag_num=0x03)
182: 0x0526 [0x80] LOAD_WAIT(entity=Alainasion (ID: 17339105/0x010892E1))
183: 0x052B [0x80] LOAD_WAIT(entity=Hersaume (ID: 17339106/0x010892E2))
184: 0x0530 [0x80] LOAD_WAIT(entity=Leuonard (ID: 17339109/0x010892E5))
185: 0x0535 [0x80] LOAD_WAIT(entity=kisiB (ID: 17339110/0x010892E6))
186: 0x053A [0x80] LOAD_WAIT(entity=kisiC (ID: 17339111/0x010892E7))
187: 0x053F [0x80] LOAD_WAIT(entity=kisiD (ID: 17339112/0x010892E8))
188: 0x0544 [0x80] LOAD_WAIT(entity=kisiE (ID: 17339113/0x010892E9))
189: 0x0549 [0x80] LOAD_WAIT(entity=01 (ID: 17339123/0x010892F3))
190: 0x054E [0x80] LOAD_WAIT(entity=02 (ID: 17339124/0x010892F4))
191: 0x0553 [0x80] LOAD_WAIT(entity=03 (ID: 17339125/0x010892F5))
192: 0x0558 [0x80] LOAD_WAIT(entity=04 (ID: 17339126/0x010892F6))
193: 0x055D [0x80] LOAD_WAIT(entity=kisi01 (ID: 17339114/0x010892EA))
194: 0x0562 [0x80] LOAD_WAIT(entity=kisi02 (ID: 17339115/0x010892EB))
195: 0x0567 [0x80] LOAD_WAIT(entity=kisi03 (ID: 17339116/0x010892EC))
196: 0x056C [0x80] LOAD_WAIT(entity=kisi04 (ID: 17339117/0x010892ED))
197: 0x0571 [0x80] LOAD_WAIT(entity=kisi05 (ID: 17339118/0x010892EE))
198: 0x0576 [0x80] LOAD_WAIT(entity=kisi06 (ID: 17339119/0x010892EF))
199: 0x057B [0x80] LOAD_WAIT(entity=kisi07 (ID: 17339120/0x010892F0))
200: 0x0580 [0x80] LOAD_WAIT(entity=kisi08 (ID: 17339121/0x010892F1))
201: 0x0585 [0x80] LOAD_WAIT(entity=kisi09 (ID: 17339122/0x010892F2))
202: 0x058A [0x80] LOAD_WAIT(entity=??? (ID: 17339147/0x0108930B))
203: 0x058F [0x80] LOAD_WAIT(entity=02 (ID: 17339148/0x0108930C))
204: 0x0594 [0x80] LOAD_WAIT(entity=03 (ID: 17339149/0x0108930D))
205: 0x0599 [0x80] LOAD_WAIT(entity=04 (ID: 17339150/0x0108930E))
206: 0x059E [0x80] LOAD_WAIT(entity=05 (ID: 17339151/0x0108930F))
207: 0x05A3 [0x80] LOAD_WAIT(entity=06 (ID: 17339152/0x01089310))
208: 0x05A8 [0x80] LOAD_WAIT(entity=07 (ID: 17339153/0x01089311))
209: 0x05AD [0x80] LOAD_WAIT(entity=08 (ID: 17339154/0x01089312))
210: 0x05B2 [0x80] LOAD_WAIT(entity=09 (ID: 17339155/0x01089313))
211: 0x05B7 [0x80] LOAD_WAIT(entity=10 (ID: 17339156/0x01089314))
212: 0x05BC [0x1C] WAIT(60* ticks)
213: 0x05BF [0x1C] WAIT(60* ticks)
214: 0x05C2 [0x4A] kisiB (ID: 17339110/0x010892E6) looks at kisiC (ID: 17339111/0x010892E7)
215: 0x05CB [0x4A] kisiC (ID: 17339111/0x010892E7) looks at kisiD (ID: 17339112/0x010892E8)
216: 0x05D4 [0x4A] kisiD (ID: 17339112/0x010892E8) looks at kisiC (ID: 17339111/0x010892E7)
217: 0x05DD [0x4A] kisiE (ID: 17339113/0x010892E9) looks at 01 (ID: 17339123/0x010892F3)
218: 0x05E6 [0x4A] kisi06 (ID: 17339119/0x010892EF) looks at kisi07 (ID: 17339120/0x010892F0)
219: 0x05EF [0x4A] kisi07 (ID: 17339120/0x010892F0) looks at kisi06 (ID: 17339119/0x010892EF)
220: 0x05F8 [0x4A] kisi08 (ID: 17339121/0x010892F1) looks at kisi09 (ID: 17339122/0x010892F2)
221: 0x0601 [0x4A] kisi09 (ID: 17339122/0x010892F2) looks at kisi08 (ID: 17339121/0x010892F1)
222: 0x060A [0x1C] WAIT(60* ticks)
223: 0x060D [0x66] LOAD_EXT_SCHEDULER_MAIN: Load scheduler "tlk0" with entities [kisiC (ID: 17339111/0x010892E7), kisiC (ID: 17339111/0x010892E7)], work=59*
224: 0x061C [0x66] LOAD_EXT_SCHEDULER_MAIN: Load scheduler "sha0" with entities [02 (ID: 17339124/0x010892F4), 02 (ID: 17339124/0x010892F4)], work=59*
225: 0x062B [0x66] LOAD_EXT_SCHEDULER_MAIN: Load scheduler "tlk0" with entities [kisiE (ID: 17339113/0x010892E9), kisiE (ID: 17339113/0x010892E9)], work=49*
226: 0x063A [0xC5] LOAD_SCHEDULED_TASK_ALT3: Load scheduler 0x801A3030 for entities [??? (ID: 17339147/0x0108930B), ??? (ID: 17339147/0x0108930B)], work=208*, param=12403
227: 0x064B [0xC5] LOAD_SCHEDULED_TASK_ALT3: Load scheduler 0x801A3130 for entities [02 (ID: 17339148/0x0108930C), 02 (ID: 17339148/0x0108930C)], work=208*, param=12403
228: 0x065C [0xC5] LOAD_SCHEDULED_TASK_ALT3: Load scheduler 0x801A3030 for entities [03 (ID: 17339149/0x0108930D), 03 (ID: 17339149/0x0108930D)], work=207*, param=12403
229: 0x066D [0xC5] LOAD_SCHEDULED_TASK_ALT3: Load scheduler 0x801A3130 for entities [04 (ID: 17339150/0x0108930E), 04 (ID: 17339150/0x0108930E)], work=207*, param=12403
230: 0x067E [0xC5] LOAD_SCHEDULED_TASK_ALT3: Load scheduler 0x801A3230 for entities [05 (ID: 17339151/0x0108930F), 05 (ID: 17339151/0x0108930F)], work=208*, param=12403
231: 0x068F [0xC5] LOAD_SCHEDULED_TASK_ALT3: Load scheduler 0x801A3030 for entities [06 (ID: 17339152/0x01089310), 06 (ID: 17339152/0x01089310)], work=206*, param=12403
232: 0x06A0 [0xC5] LOAD_SCHEDULED_TASK_ALT3: Load scheduler 0x801A3130 for entities [07 (ID: 17339153/0x01089311), 07 (ID: 17339153/0x01089311)], work=206*, param=12403
233: 0x06B1 [0xC5] LOAD_SCHEDULED_TASK_ALT3: Load scheduler 0x801A3030 for entities [08 (ID: 17339154/0x01089312), 08 (ID: 17339154/0x01089312)], work=208*, param=12403
234: 0x06C2 [0xC5] LOAD_SCHEDULED_TASK_ALT3: Load scheduler 0x801A3030 for entities [09 (ID: 17339155/0x01089313), 09 (ID: 17339155/0x01089313)], work=206*, param=12403
235: 0x06D3 [0xC5] LOAD_SCHEDULED_TASK_ALT3: Load scheduler 0x801A3130 for entities [10 (ID: 17339156/0x01089314), 10 (ID: 17339156/0x01089314)], work=206*, param=12403
236: 0x06E4 [0x1C] WAIT(60* ticks)
237: 0x06E7 [0x5C] MUSIC_CONTROL: Set Idle (Day) music to song 108*
238: 0x06EB [0x5C] MUSIC_CONTROL: Set Idle (Night) music to song 108*
239: 0x06EF [0x5C] MUSIC_CONTROL: Set Combat (Solo) music to song 108*
240: 0x06F3 [0x5C] MUSIC_CONTROL: Set Combat (Party) music to song 108*
241: 0x06F7 [0x9A] WAIT_MUSIC_SERVER()
242: 0x06F8 [0x81] SET_ENTITY_BLINKING(blink_flag=0x00, entity=Lilisette (ID: 17339222/0x01089356))
243: 0x06FE [0x27] REQ_SET(priority=0x10, entity_id=Alainasion (ID: 17339105/0x010892E1), tag_num=0x0C)
244: 0x0705 [0x27] REQ_SET(priority=0x10, entity_id=Hersaume (ID: 17339106/0x010892E2), tag_num=0x0E)
245: 0x070C [0x27] REQ_SET(priority=0x10, entity_id=Leuonard (ID: 17339109/0x010892E5), tag_num=0x10)
246: 0x0713 [0x27] REQ_SET(priority=0x10, entity_id=03 (ID: 17339125/0x010892F5), tag_num=0x09)
247: 0x071A [0x27] REQ_SET(priority=0x10, entity_id=04 (ID: 17339126/0x010892F6), tag_num=0x0B)
248: 0x0721 [0x27] REQ_SET(priority=0x10, entity_id=kisi01 (ID: 17339114/0x010892EA), tag_num=0x05)
249: 0x0728 [0x27] REQ_SET(priority=0x10, entity_id=kisi02 (ID: 17339115/0x010892EB), tag_num=0x04)
250: 0x072F [0x27] REQ_SET(priority=0x10, entity_id=kisi03 (ID: 17339116/0x010892EC), tag_num=0x05)
251: 0x0736 [0x27] REQ_SET(priority=0x10, entity_id=kisi04 (ID: 17339117/0x010892ED), tag_num=0x05)
252: 0x073D [0x27] REQ_SET(priority=0x10, entity_id=kisi05 (ID: 17339118/0x010892EE), tag_num=0x05)
253: 0x0744 [0x27] REQ_SET(priority=0x10, entity_id=kisi08 (ID: 17339121/0x010892F1), tag_num=0x04)
254: 0x074B [0x45] LOAD_SCHEDULED_TASK: Load scheduler "010n" with entities [LocalPlayer, LocalPlayer], work=[508*, 0*]
255: 0x075C [0x1A] CALL_SUBROUTINE(address=0x4591)
256: 0x075F [0x1C] WAIT(180* ticks)
257: 0x0762 [0x52] END_LOAD_SCHEDULER: End scheduler "010n" with entities [LocalPlayer, LocalPlayer], work=508*
258: 0x0771 [0x45] LOAD_SCHEDULED_TASK: Load scheduler "010o" with entities [LocalPlayer, LocalPlayer], work=[508*, 0*]
259: 0x0782 [0x27] REQ_SET(priority=0x10, entity_id=kisiE (ID: 17339113/0x010892E9), tag_num=0x12)
260: 0x0789 [0x27] REQ_SET(priority=0x10, entity_id=01 (ID: 17339123/0x010892F3), tag_num=0x08)
261: 0x0790 [0x27] REQ_SET(priority=0x10, entity_id=02 (ID: 17339124/0x010892F4), tag_num=0x09)
262: 0x0797 [0x7A] VM_CONTROL: Reset VM for Alainasion (ID: 17339105/0x010892E1)
263: 0x079D [0x7A] VM_CONTROL: Reset VM for Hersaume (ID: 17339106/0x010892E2)
264: 0x07A3 [0x7A] VM_CONTROL: Reset VM for Leuonard (ID: 17339109/0x010892E5)
265: 0x07A9 [0x7A] VM_CONTROL: Reset VM for 03 (ID: 17339125/0x010892F5)
266: 0x07AF [0x7A] VM_CONTROL: Reset VM for 04 (ID: 17339126/0x010892F6)
267: 0x07B5 [0x7A] VM_CONTROL: Reset VM for kisi01 (ID: 17339114/0x010892EA)
268: 0x07BB [0x7A] VM_CONTROL: Reset VM for kisi03 (ID: 17339116/0x010892EC)
269: 0x07C1 [0x7A] VM_CONTROL: Reset VM for kisi04 (ID: 17339117/0x010892ED)
270: 0x07C7 [0x7A] VM_CONTROL: Reset VM for kisi05 (ID: 17339118/0x010892EE)
271: 0x07CD [0x27] REQ_SET(priority=0x10, entity_id=Alainasion (ID: 17339105/0x010892E1), tag_num=0x0B)
272: 0x07D4 [0x27] REQ_SET(priority=0x10, entity_id=Hersaume (ID: 17339106/0x010892E2), tag_num=0x0D)
273: 0x07DB [0x27] REQ_SET(priority=0x10, entity_id=Leuonard (ID: 17339109/0x010892E5), tag_num=0x0F)
274: 0x07E2 [0x27] REQ_SET(priority=0x10, entity_id=03 (ID: 17339125/0x010892F5), tag_num=0x07)
275: 0x07E9 [0x27] REQ_SET(priority=0x10, entity_id=kisi01 (ID: 17339114/0x010892EA), tag_num=0x04)
276: 0x07F0 [0x27] REQ_SET(priority=0x10, entity_id=kisi03 (ID: 17339116/0x010892EC), tag_num=0x03)
277: 0x07F7 [0x27] REQ_SET(priority=0x10, entity_id=kisi04 (ID: 17339117/0x010892ED), tag_num=0x03)
278: 0x07FE [0x27] REQ_SET(priority=0x10, entity_id=kisi05 (ID: 17339118/0x010892EE), tag_num=0x03)
279: 0x0805 [0xBA] SET_ENTITY_POSITION(entity_id=Alainasion (ID: 17339105/0x010892E1), pos_x=540.765*, pos_z=-260.432*, pos_y=-0.767*, direction=148.8*)
280: 0x0812 [0xBA] SET_ENTITY_POSITION(entity_id=Hersaume (ID: 17339106/0x010892E2), pos_x=540.984*, pos_z=-261.974*, pos_y=-0.517*, direction=148.8*)
281: 0x081F [0xBA] SET_ENTITY_POSITION(entity_id=Leuonard (ID: 17339109/0x010892E5), pos_x=538.031*, pos_z=-259.402*, pos_y=-0.902*, direction=148.8*)
282: 0x082C [0xBA] SET_ENTITY_POSITION(entity_id=03 (ID: 17339125/0x010892F5), pos_x=536.979*, pos_z=-267.666*, pos_y=-0.142*, direction=148.8*)
283: 0x0839 [0xBA] SET_ENTITY_POSITION(entity_id=04 (ID: 17339126/0x010892F6), pos_x=528.771*, pos_z=-275.048*, pos_y=0.236*, direction=230.5*)
284: 0x0846 [0xBA] SET_ENTITY_POSITION(entity_id=kisi01 (ID: 17339114/0x010892EA), pos_x=536.847*, pos_z=-257.766*, pos_y=-0.955*, direction=148.8*)
285: 0x0853 [0xBA] SET_ENTITY_POSITION(entity_id=kisi03 (ID: 17339116/0x010892EC), pos_x=534.728*, pos_z=-259.152*, pos_y=-1.000*, direction=148.9*)
286: 0x0860 [0xBA] SET_ENTITY_POSITION(entity_id=kisi04 (ID: 17339117/0x010892ED), pos_x=532.334*, pos_z=-267.070*, pos_y=-0.127*, direction=60.9*)
287: 0x086D [0xBA] SET_ENTITY_POSITION(entity_id=kisi05 (ID: 17339118/0x010892EE), pos_x=530.260*, pos_z=-267.619*, pos_y=-0.078*, direction=61.0*)
288: 0x087A [0x4A] Alainasion (ID: 17339105/0x010892E1) looks at Hersaume (ID: 17339106/0x010892E2)
289: 0x0883 [0x4A] Hersaume (ID: 17339106/0x010892E2) looks at Alainasion (ID: 17339105/0x010892E1)
290: 0x088C [0x4A] Leuonard (ID: 17339109/0x010892E5) looks at 09 (ID: 17339155/0x01089313)
291: 0x0895 [0x4A] kisi01 (ID: 17339114/0x010892EA) looks at kisi03 (ID: 17339116/0x010892EC)
292: 0x089E [0x4A] kisi03 (ID: 17339116/0x010892EC) looks at kisi01 (ID: 17339114/0x010892EA)
293: 0x08A7 [0x1C] WAIT(60* ticks)
294: 0x08AA [0x66] LOAD_EXT_SCHEDULER_MAIN: Load scheduler "tlk0" with entities [Alainasion (ID: 17339105/0x010892E1), Alainasion (ID: 17339105/0x010892E1)], work=29*
295: 0x08B9 [0x66] LOAD_EXT_SCHEDULER_MAIN: Load scheduler "sha0" with entities [Leuonard (ID: 17339109/0x010892E5), Leuonard (ID: 17339109/0x010892E5)], work=29*
296: 0x08C8 [0x1C] WAIT(180* ticks)
297: 0x08CB [0x52] END_LOAD_SCHEDULER: End scheduler "010o" with entities [LocalPlayer, LocalPlayer], work=508*
298: 0x08DA [0x45] LOAD_SCHEDULED_TASK: Load scheduler "010p" with entities [LocalPlayer, LocalPlayer], work=[508*, 0*]
299: 0x08EB [0x27] REQ_SET(priority=0x10, entity_id=04 (ID: 17339126/0x010892F6), tag_num=0x0C)
300: 0x08F2 [0x27] REQ_SET(priority=0x10, entity_id=kisi04 (ID: 17339117/0x010892ED), tag_num=0x06)
301: 0x08F9 [0x27] REQ_SET(priority=0x10, entity_id=kisi05 (ID: 17339118/0x010892EE), tag_num=0x06)
302: 0x0900 [0x27] REQ_SET(priority=0x10, entity_id=kisiB (ID: 17339110/0x010892E6), tag_num=0x0D)
303: 0x0907 [0x27] REQ_SET(priority=0x10, entity_id=kisiC (ID: 17339111/0x010892E7), tag_num=0x0E)
304: 0x090E [0x27] REQ_SET(priority=0x10, entity_id=kisiD (ID: 17339112/0x010892E8), tag_num=0x0B)
305: 0x0915 [0x27] REQ_SET(priority=0x10, entity_id=kisiE (ID: 17339113/0x010892E9), tag_num=0x10)
306: 0x091C [0x1C] WAIT(90* ticks)
307: 0x091F [0x6E] kisi01 (ID: 17339114/0x010892EA) uses emote 36*
308: 0x0926 [0x99] Wait for kisi01 (ID: 17339114/0x010892EA) animation to complete
309: 0x092B [0x1C] WAIT(60* ticks)
310: 0x092E [0x6E] kisi03 (ID: 17339116/0x010892EC) uses emote 7*
311: 0x0935 [0x99] Wait for kisi03 (ID: 17339116/0x010892EC) animation to complete
312: 0x093A [0x1C] WAIT(90* ticks)
313: 0x093D [0x52] END_LOAD_SCHEDULER: End scheduler "010p" with entities [LocalPlayer, LocalPlayer], work=508*
314: 0x094C [0x45] LOAD_SCHEDULED_TASK: Load scheduler "010m" with entities [LocalPlayer, LocalPlayer], work=[508*, 0*]
315: 0x095D [0xBA] SET_ENTITY_POSITION(entity_id=kisiB (ID: 17339110/0x010892E6), pos_x=529.621*, pos_z=-281.324*, pos_y=0.279*, direction=148.8*)
316: 0x096A [0xBA] SET_ENTITY_POSITION(entity_id=kisiC (ID: 17339111/0x010892E7), pos_x=529.940*, pos_z=-279.887*, pos_y=0.295*, direction=148.8*)
317: 0x0977 [0xBA] SET_ENTITY_POSITION(entity_id=kisiD (ID: 17339112/0x010892E8), pos_x=531.813*, pos_z=-279.745*, pos_y=0.376*, direction=148.8*)
318: 0x0984 [0xBA] SET_ENTITY_POSITION(entity_id=kisiE (ID: 17339113/0x010892E9), pos_x=532.169*, pos_z=-281.393*, pos_y=0.406*, direction=148.8*)
319: 0x0991 [0xBA] SET_ENTITY_POSITION(entity_id=04 (ID: 17339126/0x010892F6), pos_x=534.496*, pos_z=-280.874*, pos_y=0.646*, direction=148.8*)
320: 0x099E [0x27] REQ_SET(priority=0x10, entity_id=kisiB (ID: 17339110/0x010892E6), tag_num=0x10)
321: 0x09A5 [0x27] REQ_SET(priority=0x10, entity_id=kisiC (ID: 17339111/0x010892E7), tag_num=0x11)
322: 0x09AC [0x27] REQ_SET(priority=0x10, entity_id=kisiD (ID: 17339112/0x010892E8), tag_num=0x0D)
323: 0x09B3 [0x27] REQ_SET(priority=0x10, entity_id=kisiE (ID: 17339113/0x010892E9), tag_num=0x11)
324: 0x09BA [0x27] REQ_SET(priority=0x10, entity_id=04 (ID: 17339126/0x010892F6), tag_num=0x0A)
325: 0x09C1 [0x1C] WAIT(210* ticks)
326: 0x09C4 [0x5B] LOAD_EXT_SCHEDULER: Load scheduler "kyo0" with entities [Lilisette (ID: 17339222/0x01089356), Lilisette (ID: 17339222/0x01089356)], work=2145*
327: 0x09D3 [0x1C] WAIT(30* ticks)
328: 0x09D6 [0x52] END_LOAD_SCHEDULER: End scheduler "010m" with entities [LocalPlayer, LocalPlayer], work=508*
329: 0x09E5 [0x29] REQ_SET_WAIT(priority=0x10, entity_id=LocalPlayer, tag_num=0x04)
330: 0x09EC [0x02] IF !(Work_Zone[2] == 1*) GOTO 0x0A08
331: 0x09F4 [0x45] LOAD_SCHEDULED_TASK: Load scheduler "0100" with entities [LocalPlayer, LocalPlayer], work=[508*, 0*]
332: 0x0A05 [0x01] GOTO 0x0ACC
333: 0x0A08 [0x02] IF !(Work_Zone[2] == 2*) GOTO 0x0A24
334: 0x0A10 [0x45] LOAD_SCHEDULED_TASK: Load scheduler "0100" with entities [LocalPlayer, LocalPlayer], work=[508*, 0*]
335: 0x0A21 [0x01] GOTO 0x0ACC
336: 0x0A24 [0x02] IF !(Work_Zone[2] == 3*) GOTO 0x0A40
337: 0x0A2C [0x45] LOAD_SCHEDULED_TASK: Load scheduler "1hi0" with entities [LocalPlayer, LocalPlayer], work=[508*, 0*]
338: 0x0A3D [0x01] GOTO 0x0ACC
339: 0x0A40 [0x02] IF !(Work_Zone[2] == 4*) GOTO 0x0A5C
340: 0x0A48 [0x45] LOAD_SCHEDULED_TASK: Load scheduler "1hi0" with entities [LocalPlayer, LocalPlayer], work=[508*, 0*]
341: 0x0A59 [0x01] GOTO 0x0ACC
342: 0x0A5C [0x02] IF !(Work_Zone[2] == 5*) GOTO 0x0A78
343: 0x0A64 [0x45] LOAD_SCHEDULED_TASK: Load scheduler "1sh0" with entities [LocalPlayer, LocalPlayer], work=[508*, 0*]
344: 0x0A75 [0x01] GOTO 0x0ACC
345: 0x0A78 [0x02] IF !(Work_Zone[2] == 6*) GOTO 0x0A94
346: 0x0A80 [0x45] LOAD_SCHEDULED_TASK: Load scheduler "1sh0" with entities [LocalPlayer, LocalPlayer], work=[508*, 0*]
347: 0x0A91 [0x01] GOTO 0x0ACC
348: 0x0A94 [0x02] IF !(Work_Zone[2] == 7*) GOTO 0x0AB0
349: 0x0A9C [0x45] LOAD_SCHEDULED_TASK: Load scheduler "0100" with entities [LocalPlayer, LocalPlayer], work=[508*, 0*]
350: 0x0AAD [0x01] GOTO 0x0ACC
351: 0x0AB0 [0x02] IF !(Work_Zone[2] == 8*) GOTO 0x0ACC
352: 0x0AB8 [0x45] LOAD_SCHEDULED_TASK: Load scheduler "1hi0" with entities [LocalPlayer, LocalPlayer], work=[508*, 0*]
353: 0x0AC9 [0x01] GOTO 0x0ACC

SUBROUTINE_0ACC:
354: 0x0ACC [0x2B] Lilisette (ID: 17339222/0x01089356) [8251*]:
     "Goodness, I've never seen so many troops rallied in one place. It truly is the moment of truth for the Allied Forces..."
355: 0x0AD3 [0x23] WAIT_FOR_DIALOG_INTERACTION
356: 0x0AD4 [0x52] END_LOAD_SCHEDULER: End scheduler "0100" with entities [LocalPlayer, LocalPlayer], work=508*
357: 0x0AE3 [0x52] END_LOAD_SCHEDULER: End scheduler "1hi0" with entities [LocalPlayer, LocalPlayer], work=508*
358: 0x0AF2 [0x52] END_LOAD_SCHEDULER: End scheduler "1sh0" with entities [LocalPlayer, LocalPlayer], work=508*
359: 0x0B01 [0x45] LOAD_SCHEDULED_TASK: Load scheduler "0102" with entities [LocalPlayer, LocalPlayer], work=[508*, 0*]
360: 0x0B12 [0x5D] SET_MUSIC_VOLUME(volume=90*, fade_time=120*)
361: 0x0B17 [0xC5] LOAD_SCHEDULED_TASK_ALT3: Load scheduler 0x801A3130 for entities [Cait Sith (ID: 17339224/0x01089358), Cait Sith (ID: 17339224/0x01089358)], work=43*, param=29811
362: 0x0B28 [0x81] SET_ENTITY_BLINKING(blink_flag=0x01, entity=Lilisette (ID: 17339222/0x01089356))
363: 0x0B2E [0x27] REQ_SET(priority=0x10, entity_id=Cait Sith (ID: 17339224/0x01089358), tag_num=0x09)
364: 0x0B35 [0x1C] WAIT(10* ticks)
365: 0x0B38 [0xC5] LOAD_SCHEDULED_TASK_ALT3: Load scheduler 0x801A3530 for entities [Cait Sith (ID: 17339224/0x01089358), Cait Sith (ID: 17339224/0x01089358)], work=43*, param=29811
366: 0x0B49 [0x6B] STOP_AND_IDLE: Lilisette (ID: 17339222/0x01089356) stops current action and resets to idle (animation="idl0")
367: 0x0B52 [0x7A] VM_CONTROL: Reset VM for kisiB (ID: 17339110/0x010892E6)
368: 0x0B58 [0x7A] VM_CONTROL: Reset VM for kisiC (ID: 17339111/0x010892E7)
369: 0x0B5E [0x7A] VM_CONTROL: Reset VM for kisiD (ID: 17339112/0x010892E8)
370: 0x0B64 [0x7A] VM_CONTROL: Reset VM for kisiE (ID: 17339113/0x010892E9)
371: 0x0B6A [0x7A] VM_CONTROL: Reset VM for 04 (ID: 17339126/0x010892F6)
372: 0x0B70 [0xBA] SET_ENTITY_POSITION(entity_id=LocalPlayer, pos_x=565.405*, pos_z=-273.761*, pos_y=-0.043*, direction=148.9*)
373: 0x0B7D [0xBA] SET_ENTITY_POSITION(entity_id=kisiB (ID: 17339110/0x010892E6), pos_x=535.379*, pos_z=-289.948*, pos_y=-0.770*, direction=298.1*)
374: 0x0B8A [0xBA] SET_ENTITY_POSITION(entity_id=kisiC (ID: 17339111/0x010892E7), pos_x=535.785*, pos_z=-290.764*, pos_y=-1.223*, direction=169.4*)
375: 0x0B97 [0xBA] SET_ENTITY_POSITION(entity_id=kisiD (ID: 17339112/0x010892E8), pos_x=535.762*, pos_z=-289.657*, pos_y=-0.647*, direction=264.7*)
376: 0x0BA4 [0xBA] SET_ENTITY_POSITION(entity_id=kisiE (ID: 17339113/0x010892E9), pos_x=536.908*, pos_z=-291.236*, pos_y=-1.353*, direction=298.1*)
377: 0x0BB1 [0xBA] SET_ENTITY_POSITION(entity_id=04 (ID: 17339126/0x010892F6), pos_x=537.997*, pos_z=-290.105*, pos_y=-0.683*, direction=296.4*)
378: 0x0BBE [0x1C] WAIT(90* ticks)
379: 0x0BC1 [0x27] REQ_SET(priority=0x10, entity_id=kisiB (ID: 17339110/0x010892E6), tag_num=0x0F)
380: 0x0BC8 [0x27] REQ_SET(priority=0x10, entity_id=kisiC (ID: 17339111/0x010892E7), tag_num=0x0F)
381: 0x0BCF [0x27] REQ_SET(priority=0x10, entity_id=kisiD (ID: 17339112/0x010892E8), tag_num=0x0C)
382: 0x0BD6 [0x27] REQ_SET(priority=0x10, entity_id=kisiE (ID: 17339113/0x010892E9), tag_num=0x0F)
383: 0x0BDD [0x27] REQ_SET(priority=0x10, entity_id=04 (ID: 17339126/0x010892F6), tag_num=0x09)
384: 0x0BE4 [0x52] END_LOAD_SCHEDULER: End scheduler "0102" with entities [LocalPlayer, LocalPlayer], work=508*
385: 0x0BF3 [0x45] LOAD_SCHEDULED_TASK: Load scheduler "0103" with entities [LocalPlayer, LocalPlayer], work=[508*, 0*]
386: 0x0C04 [0x1C] WAIT(120* ticks)
387: 0x0C07 [0x52] END_LOAD_SCHEDULER: End scheduler "0103" with entities [LocalPlayer, LocalPlayer], work=508*
388: 0x0C16 [0x45] LOAD_SCHEDULED_TASK: Load scheduler "0104" with entities [LocalPlayer, LocalPlayer], work=[508*, 0*]
389: 0x0C27 [0x27] REQ_SET(priority=0x10, entity_id=kisiB (ID: 17339110/0x010892E6), tag_num=0x11)
390: 0x0C2E [0x27] REQ_SET(priority=0x10, entity_id=kisiC (ID: 17339111/0x010892E7), tag_num=0x12)
391: 0x0C35 [0x27] REQ_SET(priority=0x10, entity_id=kisiD (ID: 17339112/0x010892E8), tag_num=0x0E)
392: 0x0C3C [0x27] REQ_SET(priority=0x10, entity_id=kisiE (ID: 17339113/0x010892E9), tag_num=0x13)
393: 0x0C43 [0x27] REQ_SET(priority=0x10, entity_id=04 (ID: 17339126/0x010892F6), tag_num=0x0D)
394: 0x0C4A [0x29] REQ_SET_WAIT(priority=0x10, entity_id=Cait Sith (ID: 17339224/0x01089358), tag_num=0x0A)
395: 0x0C51 [0x4A] LocalPlayer looks at Cait Sith (ID: 17339224/0x01089358)
396: 0x0C5A [0x4A] Lilisette (ID: 17339222/0x01089356) looks at Cait Sith (ID: 17339224/0x01089358)
397: 0x0C63 [0x2B] Cait Sith (ID: 17339224/0x01089358) [8252*]:
     "Ahem! You're late! Behind schedule!"
398: 0x0C6A [0x23] WAIT_FOR_DIALOG_INTERACTION
399: 0x0C6B [0x2B] Lilisette (ID: 17339222/0x01089356) [8253*]:
     "C-Cait Sith!"
400: 0x0C72 [0x23] WAIT_FOR_DIALOG_INTERACTION
401: 0x0C73 [0x52] END_LOAD_SCHEDULER: End scheduler "0104" with entities [LocalPlayer, LocalPlayer], work=508*
402: 0x0C82 [0x45] LOAD_SCHEDULED_TASK: Load scheduler "0105" with entities [LocalPlayer, LocalPlayer], work=[508*, 0*]
403: 0x0C93 [0x5B] LOAD_EXT_SCHEDULER: Load scheduler "tlb0" with entities [Cait Sith (ID: 17339224/0x01089358), Cait Sith (ID: 17339224/0x01089358)], work=1414*
404: 0x0CA2 [0x2B] Cait Sith (ID: 17339224/0x01089358) [8254*]:
     "The operation was about to commence without you. Begin right away. The two of you are taking part, if I'm not mistaken? My assumption correct?"
405: 0x0CA9 [0x23] WAIT_FOR_DIALOG_INTERACTION
406: 0x0CAA [0x52] END_LOAD_SCHEDULER: End scheduler "0105" with entities [LocalPlayer, LocalPlayer], work=508*
407: 0x0CB9 [0x45] LOAD_SCHEDULED_TASK: Load scheduler "0106" with entities [LocalPlayer, LocalPlayer], work=[508*, 0*]
408: 0x0CCA [0xBA] SET_ENTITY_POSITION(entity_id=kisi04 (ID: 17339117/0x010892ED), pos_x=546.222*, pos_z=-267.276*, pos_y=-0.844*, direction=298.1*)
409: 0x0CD7 [0xBA] SET_ENTITY_POSITION(entity_id=kisi05 (ID: 17339118/0x010892EE), pos_x=543.514*, pos_z=-263.958*, pos_y=-0.398*, direction=298.1*)
410: 0x0CE4 [0x7B] Lilisette (ID: 17339222/0x01089356) stops talking
411: 0x0CE9 [0x5B] LOAD_EXT_SCHEDULER: Load scheduler "tlc0" with entities [Lilisette (ID: 17339222/0x01089356), Lilisette (ID: 17339222/0x01089356)], work=2132*
412: 0x0CF8 [0x5B] LOAD_EXT_SCHEDULER: Load scheduler "tlb1" with entities [Cait Sith (ID: 17339224/0x01089358), Cait Sith (ID: 17339224/0x01089358)], work=1414*
413: 0x0D07 [0x2B] Lilisette (ID: 17339222/0x01089356) [8255*]:
     "But of course! <Player> and I will be serving as messengers for the Allies."
414: 0x0D0E [0x23] WAIT_FOR_DIALOG_INTERACTION
415: 0x0D0F [0x5B] LOAD_EXT_SCHEDULER: Load scheduler "tlc1" with entities [Lilisette (ID: 17339222/0x01089356), Lilisette (ID: 17339222/0x01089356)], work=2132*
416: 0x0D1E [0x2B] Lilisette (ID: 17339222/0x01089356) [8256*]:
     "What of yourself, Cait Sith? Will you be joining us?"
417: 0x0D25 [0x23] WAIT_FOR_DIALOG_INTERACTION
418: 0x0D26 [0x52] END_LOAD_SCHEDULER: End scheduler "0106" with entities [LocalPlayer, LocalPlayer], work=508*
419: 0x0D35 [0x45] LOAD_SCHEDULED_TASK: Load scheduler "0107" with entities [LocalPlayer, LocalPlayer], work=[508*, 0*]
420: 0x0D46 [0x4B] UPDATE_ENTITY_YAW(entity=Cait Sith (ID: 17339224/0x01089358), yaw=19.8*)
421: 0x0D4D [0x2B] Cait Sith (ID: 17339224/0x01089358) [8257*]:
     "I, uh...have someone with whom I must meet. A prior engagement."
422: 0x0D54 [0x23] WAIT_FOR_DIALOG_INTERACTION
423: 0x0D55 [0x29] REQ_SET_WAIT(priority=0x10, entity_id=Cait Sith (ID: 17339224/0x01089358), tag_num=0x0B)
424: 0x0D5C [0x1C] WAIT(60* ticks)
425: 0x0D5F [0x5B] LOAD_EXT_SCHEDULER: Load scheduler "e102" with entities [Cait Sith (ID: 17339224/0x01089358), Cait Sith (ID: 17339224/0x01089358)], work=1309*
426: 0x0D6E [0x1C] WAIT(5* ticks)
427: 0x0D71 [0x52] END_LOAD_SCHEDULER: End scheduler "0107" with entities [LocalPlayer, LocalPlayer], work=508*
428: 0x0D80 [0x45] LOAD_SCHEDULED_TASK: Load scheduler "0108" with entities [LocalPlayer, LocalPlayer], work=[508*, 0*]
429: 0x0D91 [0x2B] Cait Sith (ID: 17339224/0x01089358) [8258*]:
     "As such, I leave this end of the business to you. In your trusty paws. Do your utmost to steer the Allies towards success! Whatever you can!"
430: 0x0D98 [0x23] WAIT_FOR_DIALOG_INTERACTION
431: 0x0D99 [0x81] SET_ENTITY_BLINKING(blink_flag=0x00, entity=Lilisette (ID: 17339222/0x01089356))
432: 0x0D9F [0x5B] LOAD_EXT_SCHEDULER: Load scheduler "kia0" with entities [Lilisette (ID: 17339222/0x01089356), Lilisette (ID: 17339222/0x01089356)], work=2245*
433: 0x0DAE [0x1C] WAIT(10* ticks)
434: 0x0DB1 [0x52] END_LOAD_SCHEDULER: End scheduler "0108" with entities [LocalPlayer, LocalPlayer], work=508*
435: 0x0DC0 [0x45] LOAD_SCHEDULED_TASK: Load scheduler "0109" with entities [LocalPlayer, LocalPlayer], work=[508*, 0*]
436: 0x0DD1 [0x6B] STOP_AND_IDLE: Cait Sith (ID: 17339224/0x01089358) stops current action and resets to idle (animation="idl0")
437: 0x0DDA [0x2B] Lilisette (ID: 17339222/0x01089356) [8259*]:
     "That goes without saying!"
438: 0x0DE1 [0x23] WAIT_FOR_DIALOG_INTERACTION
439: 0x0DE2 [0x52] END_LOAD_SCHEDULER: End scheduler "0109" with entities [LocalPlayer, LocalPlayer], work=508*
440: 0x0DF1 [0x45] LOAD_SCHEDULED_TASK: Load scheduler "010a" with entities [LocalPlayer, LocalPlayer], work=[508*, 0*]
441: 0x0E02 [0x27] REQ_SET(priority=0x10, entity_id=Cait Sith (ID: 17339224/0x01089358), tag_num=0x0C)
442: 0x0E09 [0x2B] Cait Sith (ID: 17339224/0x01089358) [8260*]:
     "Then I'll be on my merry way. Tootle along."
443: 0x0E10 [0x1C] WAIT(90* ticks)
444: 0x0E13 [0xBB] LOAD_EVENT_SCHEDULER_ALT: Load scheduler "st03" with entities [Cait Sith (ID: 17339224/0x01089358), Cait Sith (ID: 17339224/0x01089358)], work=[195*, 0*]
445: 0x0E24 [0x2A] GET_REQ_LEVEL(level=16, entity_id=Cait Sith (ID: 17339224/0x01089358))
446: 0x0E2A [0x1C] WAIT(120* ticks)
447: 0x0E2D [0x52] END_LOAD_SCHEDULER: End scheduler "010a" with entities [LocalPlayer, LocalPlayer], work=508*
448: 0x0E3C [0x45] LOAD_SCHEDULED_TASK: Load scheduler "010b" with entities [LocalPlayer, LocalPlayer], work=[508*, 0*]
449: 0x0E4D [0x1C] WAIT(60* ticks)
450: 0x0E50 [0xBB] LOAD_EVENT_SCHEDULER_ALT: Load scheduler "st02" with entities [Cait Sith (ID: 17339224/0x01089358), Cait Sith (ID: 17339224/0x01089358)], work=[195*, 0*]
451: 0x0E61 [0x6B] STOP_AND_IDLE: Lilisette (ID: 17339222/0x01089356) stops current action and resets to idle (animation="idl0")
452: 0x0E6A [0x1C] WAIT(390* ticks)
453: 0x0E6D [0x81] SET_ENTITY_BLINKING(blink_flag=0x01, entity=Lilisette (ID: 17339222/0x01089356))
454: 0x0E73 [0x52] END_LOAD_SCHEDULER: End scheduler "010b" with entities [LocalPlayer, LocalPlayer], work=508*
455: 0x0E82 [0x29] REQ_SET_WAIT(priority=0x10, entity_id=LocalPlayer, tag_num=0x04)
456: 0x0E89 [0x02] IF !(Work_Zone[2] == 1*) GOTO 0x0EA5
457: 0x0E91 [0x45] LOAD_SCHEDULED_TASK: Load scheduler "010c" with entities [LocalPlayer, LocalPlayer], work=[508*, 0*]
458: 0x0EA2 [0x01] GOTO 0x0F69
459: 0x0EA5 [0x02] IF !(Work_Zone[2] == 2*) GOTO 0x0EC1
460: 0x0EAD [0x45] LOAD_SCHEDULED_TASK: Load scheduler "010c" with entities [LocalPlayer, LocalPlayer], work=[508*, 0*]
461: 0x0EBE [0x01] GOTO 0x0F69
462: 0x0EC1 [0x02] IF !(Work_Zone[2] == 3*) GOTO 0x0EDD
463: 0x0EC9 [0x45] LOAD_SCHEDULED_TASK: Load scheduler "010c" with entities [LocalPlayer, LocalPlayer], work=[508*, 0*]
464: 0x0EDA [0x01] GOTO 0x0F69
465: 0x0EDD [0x02] IF !(Work_Zone[2] == 4*) GOTO 0x0EF9
466: 0x0EE5 [0x45] LOAD_SCHEDULED_TASK: Load scheduler "010c" with entities [LocalPlayer, LocalPlayer], work=[508*, 0*]
467: 0x0EF6 [0x01] GOTO 0x0F69
468: 0x0EF9 [0x02] IF !(Work_Zone[2] == 5*) GOTO 0x0F15
469: 0x0F01 [0x45] LOAD_SCHEDULED_TASK: Load scheduler "1tr0" with entities [LocalPlayer, LocalPlayer], work=[508*, 0*]
470: 0x0F12 [0x01] GOTO 0x0F69
471: 0x0F15 [0x02] IF !(Work_Zone[2] == 6*) GOTO 0x0F31
472: 0x0F1D [0x45] LOAD_SCHEDULED_TASK: Load scheduler "1tr0" with entities [LocalPlayer, LocalPlayer], work=[508*, 0*]
473: 0x0F2E [0x01] GOTO 0x0F69
474: 0x0F31 [0x02] IF !(Work_Zone[2] == 7*) GOTO 0x0F4D
475: 0x0F39 [0x45] LOAD_SCHEDULED_TASK: Load scheduler "010c" with entities [LocalPlayer, LocalPlayer], work=[508*, 0*]
476: 0x0F4A [0x01] GOTO 0x0F69
477: 0x0F4D [0x02] IF !(Work_Zone[2] == 8*) GOTO 0x0F69
478: 0x0F55 [0x45] LOAD_SCHEDULED_TASK: Load scheduler "010c" with entities [LocalPlayer, LocalPlayer], work=[508*, 0*]
479: 0x0F66 [0x01] GOTO 0x0F69

SUBROUTINE_0F69:
480: 0x0F69 [0x4A] LocalPlayer looks at Lilisette (ID: 17339222/0x01089356)
481: 0x0F72 [0x4A] Lilisette (ID: 17339222/0x01089356) looks at LocalPlayer
482: 0x0F7B [0x2B] Lilisette (ID: 17339222/0x01089356) [8261*]:
     "Let's hurry, <Player>. We must first report to the San d'Orian forces. Their encampment should be west of here, a short distance before the castle."
483: 0x0F82 [0x23] WAIT_FOR_DIALOG_INTERACTION
484: 0x0F83 [0x5D] SET_MUSIC_VOLUME(volume=0*, fade_time=240*)
485: 0x0F88 [0x1A] CALL_SUBROUTINE(address=0x45B2)
486: 0x0F8B [0x1C] WAIT(30* ticks)
487: 0x0F8E [0x27] REQ_SET(priority=0x10, entity_id=Alainasion (ID: 17339105/0x010892E1), tag_num=0x09)
488: 0x0F95 [0x27] REQ_SET(priority=0x10, entity_id=Hersaume (ID: 17339106/0x010892E2), tag_num=0x0B)
489: 0x0F9C [0x27] REQ_SET(priority=0x10, entity_id=Leuonard (ID: 17339109/0x010892E5), tag_num=0x0D)
490: 0x0FA3 [0x27] REQ_SET(priority=0x10, entity_id=kisiB (ID: 17339110/0x010892E6), tag_num=0x0C)
491: 0x0FAA [0x27] REQ_SET(priority=0x10, entity_id=kisiC (ID: 17339111/0x010892E7), tag_num=0x0D)
492: 0x0FB1 [0x27] REQ_SET(priority=0x10, entity_id=kisiD (ID: 17339112/0x010892E8), tag_num=0x0A)
493: 0x0FB8 [0x27] REQ_SET(priority=0x10, entity_id=kisiE (ID: 17339113/0x010892E9), tag_num=0x0D)
494: 0x0FBF [0x27] REQ_SET(priority=0x10, entity_id=01 (ID: 17339123/0x010892F3), tag_num=0x06)
495: 0x0FC6 [0x27] REQ_SET(priority=0x10, entity_id=02 (ID: 17339124/0x010892F4), tag_num=0x07)
496: 0x0FCD [0x27] REQ_SET(priority=0x10, entity_id=03 (ID: 17339125/0x010892F5), tag_num=0x06)
497: 0x0FD4 [0x27] REQ_SET(priority=0x10, entity_id=04 (ID: 17339126/0x010892F6), tag_num=0x07)
498: 0x0FDB [0x27] REQ_SET(priority=0x10, entity_id=kisi01 (ID: 17339114/0x010892EA), tag_num=0x02)
499: 0x0FE2 [0x27] REQ_SET(priority=0x10, entity_id=kisi02 (ID: 17339115/0x010892EB), tag_num=0x02)
500: 0x0FE9 [0x27] REQ_SET(priority=0x10, entity_id=kisi03 (ID: 17339116/0x010892EC), tag_num=0x02)
501: 0x0FF0 [0x27] REQ_SET(priority=0x10, entity_id=kisi04 (ID: 17339117/0x010892ED), tag_num=0x02)
502: 0x0FF7 [0x27] REQ_SET(priority=0x10, entity_id=kisi05 (ID: 17339118/0x010892EE), tag_num=0x02)
503: 0x0FFE [0x27] REQ_SET(priority=0x10, entity_id=kisi06 (ID: 17339119/0x010892EF), tag_num=0x02)
