# 17339101 - Gissenne

## Common Data

| Field            | Value                   |
|------------------|-------------------------|
| Zone             | Xarcabard [S] (ID: 137) |
| Block Size       | 472 bytes               |
| Total Events     | 13                      |
| References Count | 18                      |

## List of Events

| Event ID                   | Entrypoint   |   Size |   Instructions |
|----------------------------|--------------|--------|----------------|
| [65535](#event-65535)      | 0x0000       |      1 |              1 |
| [65535.1](#event-655351)   | 0x0001       |      1 |              1 |
| [65535.2](#event-655352)   | 0x0002       |     18 |              4 |
| [65535.3](#event-655353)   | 0x0014       |     10 |              2 |
| [65535.4](#event-655354)   | 0x001E       |      9 |              3 |
| [65535.5](#event-655355)   | 0x0027       |      9 |              3 |
| [65535.6](#event-655356)   | 0x0030       |     10 |              2 |
| [65535.7](#event-655357)   | 0x003A       |     10 |              2 |
| [7](#event-7)              | 0x0044       |      1 |              1 |
| [31](#event-31)            | 0x0045       |      1 |              1 |
| [65535.8](#event-655358)   | 0x0046       |     10 |              2 |
| [65535.9](#event-655359)   | 0x0050       |     10 |              2 |
| [65535.10](#event-6553510) | 0x005A       |    239 |             35 |

## DAT References (imed_data)

|   Index | Hex Value   |   Dec Value |
|---------|-------------|-------------|
|       0 | 0x0000      |           0 |
|       1 | 0x0001      |           1 |
|       2 | 0x0080      |         128 |
|       3 | 0x0B4A      |        2890 |
|       4 | 0x00B4      |         180 |
|       5 | 0x05E7      |        1511 |
|       6 | 0x0027      |          39 |
|       7 | 0x000D      |          13 |
|       8 | 0xFFFD3353  |  4294783827 |
|       9 | 0xFFFEBEB9  |  4294885049 |
|      10 | 0xFFFFF416  |  4294964246 |
|      11 | 0x00BB      |         187 |
|      12 | 0x000F      |          15 |
|      13 | 0x000A      |          10 |
|      14 | 0x0005      |           5 |
|      15 | 0x003C      |          60 |
|      16 | 0x0002      |           2 |
|      17 | 0x005A      |          90 |

## Events

### Event 65535

#### Metadata

| Field        | Value   |
|--------------|---------|
| Entrypoint   | 0x0000  |
| Data Size    | 1 bytes |
| Instructions | 1       |

```
      00 01 02 03 04 05 06 07  08 09 0A 0B 0C 0D 0E 0F
      -- -- -- -- -- -- -- --  -- -- -- -- -- -- -- --
0000: 00                                                .               
```

#### Opcodes

```
  0: 0x0000 [0x00] END_REQSTACK()
```

### Event 65535.1

#### Metadata

| Field        | Value   |
|--------------|---------|
| Entrypoint   | 0x0001  |
| Data Size    | 1 bytes |
| Instructions | 1       |

```
      00 01 02 03 04 05 06 07  08 09 0A 0B 0C 0D 0E 0F
      -- -- -- -- -- -- -- --  -- -- -- -- -- -- -- --
0000:    00                                              .              
```

#### Opcodes

```
  0: 0x0001 [0x00] END_REQSTACK()
```

### Event 65535.2

#### Metadata

| Field        | Value    |
|--------------|----------|
| Entrypoint   | 0x0002   |
| Data Size    | 18 bytes |
| Instructions | 4        |

```
      00 01 02 03 04 05 06 07  08 09 0A 0B 0C 0D 0E 0F
      -- -- -- -- -- -- -- --  -- -- -- -- -- -- -- --
0000:       22 00 2F 00 F8 FF  FF 7F 6C F8 FF FF 7F 00    "./.....l.....
0010: 80 01 80 00                                       ....            
```

#### Opcodes

```
  0: 0x0002 [0x22] ENTITY_HIDE_FLAG(enabled=0x00)
  1: 0x0004 [0x2F] EventEntity->Render.Flags0 &= ~0x80000 // Bit 19
  2: 0x000A [0x6C] FADE_ENTITY_COLOR(entity_id=EventEntity, end_alpha=0*, fade_time=1*)
  3: 0x0013 [0x00] END_REQSTACK()
```

### Event 65535.3

#### Metadata

| Field        | Value    |
|--------------|----------|
| Entrypoint   | 0x0014   |
| Data Size    | 10 bytes |
| Instructions | 2        |

```
      00 01 02 03 04 05 06 07  08 09 0A 0B 0C 0D 0E 0F
      -- -- -- -- -- -- -- --  -- -- -- -- -- -- -- --
0010:             6C F8 FF FF  7F 02 80 01 80 00            l.........  
```

#### Opcodes

```
  0: 0x0014 [0x6C] FADE_ENTITY_COLOR(entity_id=EventEntity, end_alpha=128*, fade_time=1*)
  1: 0x001D [0x00] END_REQSTACK()
```

### Event 65535.4

#### Metadata

| Field        | Value   |
|--------------|---------|
| Entrypoint   | 0x001E  |
| Data Size    | 9 bytes |
| Instructions | 3       |

```
      00 01 02 03 04 05 06 07  08 09 0A 0B 0C 0D 0E 0F
      -- -- -- -- -- -- -- --  -- -- -- -- -- -- -- --
0010:                                            22 00                ".
0020: 2F 00 F8 FF FF 7F 00                              /......         
```

#### Opcodes

```
  0: 0x001E [0x22] ENTITY_HIDE_FLAG(enabled=0x00)
  1: 0x0020 [0x2F] EventEntity->Render.Flags0 &= ~0x80000 // Bit 19
  2: 0x0026 [0x00] END_REQSTACK()
```

### Event 65535.5

#### Metadata

| Field        | Value   |
|--------------|---------|
| Entrypoint   | 0x0027  |
| Data Size    | 9 bytes |
| Instructions | 3       |

```
      00 01 02 03 04 05 06 07  08 09 0A 0B 0C 0D 0E 0F
      -- -- -- -- -- -- -- --  -- -- -- -- -- -- -- --
0020:                      22  01 2F 01 F8 FF FF 7F 00         "./......
```

#### Opcodes

```
  0: 0x0027 [0x22] ENTITY_HIDE_FLAG(enabled=0x01)
  1: 0x0029 [0x2F] EventEntity->Render.Flags0 |= 0x80000 // Bit 19
  2: 0x002F [0x00] END_REQSTACK()
```

### Event 65535.6

#### Metadata

| Field        | Value    |
|--------------|----------|
| Entrypoint   | 0x0030   |
| Data Size    | 10 bytes |
| Instructions | 2        |

```
      00 01 02 03 04 05 06 07  08 09 0A 0B 0C 0D 0E 0F
      -- -- -- -- -- -- -- --  -- -- -- -- -- -- -- --
0030: 6C F8 FF FF 7F 00 80 01  80 00                    l.........      
```

#### Opcodes

```
  0: 0x0030 [0x6C] FADE_ENTITY_COLOR(entity_id=EventEntity, end_alpha=0*, fade_time=1*)
  1: 0x0039 [0x00] END_REQSTACK()
```

### Event 65535.7

#### Metadata

| Field        | Value    |
|--------------|----------|
| Entrypoint   | 0x003A   |
| Data Size    | 10 bytes |
| Instructions | 2        |

```
      00 01 02 03 04 05 06 07  08 09 0A 0B 0C 0D 0E 0F
      -- -- -- -- -- -- -- --  -- -- -- -- -- -- -- --
0030:                                6C F8 FF FF 7F 02            l.....
0040: 80 01 80 00                                       ....            
```

#### Opcodes

```
  0: 0x003A [0x6C] FADE_ENTITY_COLOR(entity_id=EventEntity, end_alpha=128*, fade_time=1*)
  1: 0x0043 [0x00] END_REQSTACK()
```

### Event 7

#### Metadata

| Field        | Value   |
|--------------|---------|
| Entrypoint   | 0x0044  |
| Data Size    | 1 bytes |
| Instructions | 1       |

```
      00 01 02 03 04 05 06 07  08 09 0A 0B 0C 0D 0E 0F
      -- -- -- -- -- -- -- --  -- -- -- -- -- -- -- --
0040:             00                                        .           
```

#### Opcodes

```
  0: 0x0044 [0x00] END_REQSTACK()
```

### Event 31

#### Metadata

| Field        | Value   |
|--------------|---------|
| Entrypoint   | 0x0045  |
| Data Size    | 1 bytes |
| Instructions | 1       |

```
      00 01 02 03 04 05 06 07  08 09 0A 0B 0C 0D 0E 0F
      -- -- -- -- -- -- -- --  -- -- -- -- -- -- -- --
0040:                00                                      .          
```

#### Opcodes

```
  0: 0x0045 [0x00] END_REQSTACK()
```

### Event 65535.8

#### Metadata

| Field        | Value    |
|--------------|----------|
| Entrypoint   | 0x0046   |
| Data Size    | 10 bytes |
| Instructions | 2        |

```
      00 01 02 03 04 05 06 07  08 09 0A 0B 0C 0D 0E 0F
      -- -- -- -- -- -- -- --  -- -- -- -- -- -- -- --
0040:                   6C DD  92 08 01 00 80 01 80 00        l.........
```

#### Opcodes

```
  0: 0x0046 [0x6C] FADE_ENTITY_COLOR(entity_id=Gissenne (ID: 17339101/0x010892DD), end_alpha=0*, fade_time=1*)
  1: 0x004F [0x00] END_REQSTACK()
```

### Event 65535.9

#### Metadata

| Field        | Value    |
|--------------|----------|
| Entrypoint   | 0x0050   |
| Data Size    | 10 bytes |
| Instructions | 2        |

```
      00 01 02 03 04 05 06 07  08 09 0A 0B 0C 0D 0E 0F
      -- -- -- -- -- -- -- --  -- -- -- -- -- -- -- --
0050: 6C DD 92 08 01 02 80 01  80 00                    l.........      
```

#### Opcodes

```
  0: 0x0050 [0x6C] FADE_ENTITY_COLOR(entity_id=Gissenne (ID: 17339101/0x010892DD), end_alpha=128*, fade_time=1*)
  1: 0x0059 [0x00] END_REQSTACK()
```

### Event 65535.10

#### Metadata

| Field        | Value     |
|--------------|-----------|
| Entrypoint   | 0x005A    |
| Data Size    | 239 bytes |
| Instructions | 35        |

```
      00 01 02 03 04 05 06 07  08 09 0A 0B 0C 0D 0E 0F
      -- -- -- -- -- -- -- --  -- -- -- -- -- -- -- --
0050:                                5B 03 80 DD 92 08            [.....
0060: 01 DD 92 08 01 67 74 6B  31 7B DD 92 08 01 1C 04  .....gtk1{......
0070: 80 5B 05 80 F4 92 08 01  F4 92 08 01 74 6C 61 31  .[..........tla1
0080: 66 06 80 F6 92 08 01 F6  92 08 01 74 6C 6B 31 66  f..........tlk1f
0090: 06 80 F3 92 08 01 F3 92  08 01 74 68 6B 32 32 07  ..........thk22.
00A0: 80 1F 00 08 80 09 80 0A  80 1F 01 4B DD 92 08 01  ...........K....
00B0: 0B 80 4A F3 92 08 01 DD  92 08 01 1C 0C 80 4A F4  ..J...........J.
00C0: 92 08 01 DD 92 08 01 1C  0D 80 6B 69 64 6C 30 F5  ..........kidl0.
00D0: 92 08 01 4A F5 92 08 01  DD 92 08 01 1C 0E 80 4A  ...J...........J
00E0: F6 92 08 01 DD 92 08 01  1C 0F 80 5B 03 80 DD 92  ...........[....
00F0: 08 01 DD 92 08 01 67 74  6B 30 1C 04 80 6E F3 92  ......gtk0...n..
0100: 08 01 10 80 99 F3 92 08  01 1C 0C 80 6E F5 92 08  ............n...
0110: 01 10 80 99 F5 92 08 01  1C 0D 80 6E F6 92 08 01  ...........n....
0120: 10 80 99 F6 92 08 01 1C  0D 80 6E F4 92 08 01 10  ..........n.....
0130: 80 99 F4 92 08 01 1C 11  80 5B 03 80 DD 92 08 01  .........[......
0140: DD 92 08 01 67 74 6B 31  00                       ....gtk1.       
```

#### Opcodes

```
  0: 0x005A [0x5B] LOAD_EXT_SCHEDULER: Load scheduler "gtk1" with entities [Gissenne (ID: 17339101/0x010892DD), Gissenne (ID: 17339101/0x010892DD)], work=2890*
  1: 0x0069 [0x7B] Gissenne (ID: 17339101/0x010892DD) stops talking
  2: 0x006E [0x1C] WAIT(180* ticks)
  3: 0x0071 [0x5B] LOAD_EXT_SCHEDULER: Load scheduler "tla1" with entities [02 (ID: 17339124/0x010892F4), 02 (ID: 17339124/0x010892F4)], work=1511*
  4: 0x0080 [0x66] LOAD_EXT_SCHEDULER_MAIN: Load scheduler "tlk1" with entities [04 (ID: 17339126/0x010892F6), 04 (ID: 17339126/0x010892F6)], work=39*
  5: 0x008F [0x66] LOAD_EXT_SCHEDULER_MAIN: Load scheduler "thk2" with entities [01 (ID: 17339123/0x010892F3), 01 (ID: 17339123/0x010892F3)], work=39*
  6: 0x009E [0x32] ExtData[1]->MainSpeed = 13* * 0.1
  7: 0x00A1 [0x1F] MOVE_ENTITY: EventEntity moves to X=-183.469*, Z=-82.247*, Y=-3.050*
  8: 0x00A9 [0x1F] MOVE_ENTITY: Update entity position (mode=1)
  9: 0x00AB [0x4B] UPDATE_ENTITY_YAW(entity=Gissenne (ID: 17339101/0x010892DD), yaw=1.0°*)
 10: 0x00B2 [0x4A] 01 (ID: 17339123/0x010892F3) looks at Gissenne (ID: 17339101/0x010892DD)
 11: 0x00BB [0x1C] WAIT(15* ticks)
 12: 0x00BE [0x4A] 02 (ID: 17339124/0x010892F4) looks at Gissenne (ID: 17339101/0x010892DD)
 13: 0x00C7 [0x1C] WAIT(10* ticks)
 14: 0x00CA [0x6B] STOP_AND_IDLE: 03 (ID: 17339125/0x010892F5) stops current action and resets to idle (animation="idl0")
 15: 0x00D3 [0x4A] 03 (ID: 17339125/0x010892F5) looks at Gissenne (ID: 17339101/0x010892DD)
 16: 0x00DC [0x1C] WAIT(5* ticks)
 17: 0x00DF [0x4A] 04 (ID: 17339126/0x010892F6) looks at Gissenne (ID: 17339101/0x010892DD)
 18: 0x00E8 [0x1C] WAIT(60* ticks)
 19: 0x00EB [0x5B] LOAD_EXT_SCHEDULER: Load scheduler "gtk0" with entities [Gissenne (ID: 17339101/0x010892DD), Gissenne (ID: 17339101/0x010892DD)], work=2890*
 20: 0x00FA [0x1C] WAIT(180* ticks)
 21: 0x00FD [0x6E] 01 (ID: 17339123/0x010892F3) uses emote 2*
 22: 0x0104 [0x99] Wait for 01 (ID: 17339123/0x010892F3) animation to complete
 23: 0x0109 [0x1C] WAIT(15* ticks)
 24: 0x010C [0x6E] 03 (ID: 17339125/0x010892F5) uses emote 2*
 25: 0x0113 [0x99] Wait for 03 (ID: 17339125/0x010892F5) animation to complete
 26: 0x0118 [0x1C] WAIT(10* ticks)
 27: 0x011B [0x6E] 04 (ID: 17339126/0x010892F6) uses emote 2*
 28: 0x0122 [0x99] Wait for 04 (ID: 17339126/0x010892F6) animation to complete
 29: 0x0127 [0x1C] WAIT(10* ticks)
 30: 0x012A [0x6E] 02 (ID: 17339124/0x010892F4) uses emote 2*
 31: 0x0131 [0x99] Wait for 02 (ID: 17339124/0x010892F4) animation to complete
 32: 0x0136 [0x1C] WAIT(90* ticks)
 33: 0x0139 [0x5B] LOAD_EXT_SCHEDULER: Load scheduler "gtk1" with entities [Gissenne (ID: 17339101/0x010892DD), Gissenne (ID: 17339101/0x010892DD)], work=2890*
 34: 0x0148 [0x00] END_REQSTACK()
```
