# 17339100 - Bistillot

## Common Data

| Field            | Value                   |
|------------------|-------------------------|
| Zone             | Xarcabard [S] (ID: 137) |
| Block Size       | 908 bytes               |
| Total Events     | 33                      |
| References Count | 54                      |

## List of Events

| Event ID                   | Entrypoint   |   Size |   Instructions |
|----------------------------|--------------|--------|----------------|
| [65535](#event-65535)      | 0x0000       |      1 |              1 |
| [65535.1](#event-655351)   | 0x0001       |      1 |              1 |
| [65535.2](#event-655352)   | 0x0002       |     18 |              4 |
| [65535.3](#event-655353)   | 0x0014       |     10 |              2 |
| [65535.4](#event-655354)   | 0x001E       |      9 |              3 |
| [65535.5](#event-655355)   | 0x0027       |      9 |              3 |
| [65535.6](#event-655356)   | 0x0030       |     10 |              2 |
| [65535.7](#event-655357)   | 0x003A       |     10 |              2 |
| [2](#event-2)              | 0x0044       |      1 |              1 |
| [7](#event-7)              | 0x0045       |      1 |              1 |
| [30](#event-30)            | 0x0046       |      1 |              1 |
| [31](#event-31)            | 0x0047       |      1 |              1 |
| [34](#event-34)            | 0x0048       |      1 |              1 |
| [65535.8](#event-655358)   | 0x0049       |     14 |              4 |
| [65535.9](#event-655359)   | 0x0057       |     24 |              6 |
| [65535.10](#event-6553510) | 0x006F       |     49 |              7 |
| [65535.11](#event-6553511) | 0x00A0       |     49 |              7 |
| [65535.12](#event-6553512) | 0x00D1       |     49 |              7 |
| [65535.13](#event-6553513) | 0x0102       |     49 |              7 |
| [65535.14](#event-6553514) | 0x0133       |     15 |              5 |
| [65535.15](#event-6553515) | 0x0142       |     15 |              5 |
| [65535.16](#event-6553516) | 0x0151       |     15 |              5 |
| [65535.17](#event-6553517) | 0x0160       |     15 |              5 |
| [65535.18](#event-6553518) | 0x016F       |     15 |              5 |
| [65535.19](#event-6553519) | 0x017E       |     20 |              6 |
| [65535.20](#event-6553520) | 0x0192       |     15 |              5 |
| [65535.21](#event-6553521) | 0x01A1       |     10 |              2 |
| [65535.22](#event-6553522) | 0x01AB       |     10 |              2 |
| [6](#event-6)              | 0x01B5       |      1 |              1 |
| [65535.23](#event-6553523) | 0x01B6       |     11 |              3 |
| [32](#event-32)            | 0x01C1       |      1 |              1 |
| [65535.24](#event-6553524) | 0x01C2       |     46 |              6 |
| [65535.25](#event-6553525) | 0x01F0       |     46 |              6 |

## DAT References (imed_data)

|   Index | Hex Value   |   Dec Value |
|---------|-------------|-------------|
|       0 | 0x0000      |           0 |
|       1 | 0x0001      |           1 |
|       2 | 0x0080      |         128 |
|       3 | 0x0008      |           8 |
|       4 | 0x88974     |      559476 |
|       5 | 0xFFFBB9FB  |  4294687227 |
|       6 | 0x000D      |          13 |
|       7 | 0x87DCC     |      556492 |
|       8 | 0xFFFBB862  |  4294686818 |
|       9 | 0x0025      |          37 |
|      10 | 0x0090      |         144 |
|      11 | 0x86197     |      549271 |
|      12 | 0xFFFBB46E  |  4294685806 |
|      13 | 0x014E      |         334 |
|      14 | 0x0023      |          35 |
|      15 | 0x7AE28     |      503336 |
|      16 | 0xFFFC8EA5  |  4294741669 |
|      17 | 0xFFFFFE2F  |  4294966831 |
|      18 | 0x7EBE9     |      519145 |
|      19 | 0xFFFC556B  |  4294727019 |
|      20 | 0x7A07C     |      499836 |
|      21 | 0xFFFCAE9A  |  4294749850 |
|      22 | 0xFFFFFFDF  |  4294967263 |
|      23 | 0x0028      |          40 |
|      24 | 0x5300E     |      339982 |
|      25 | 0xFFFB1336  |  4294644534 |
|      26 | 0x0129      |         297 |
|      27 | 0x5313B     |      340283 |
|      28 | 0xFFFAFB44  |  4294638404 |
|      29 | 0x0114      |         276 |
|      30 | 0x5380A     |      342026 |
|      31 | 0xFFFB2952  |  4294650194 |
|      32 | 0x0092      |         146 |
|      33 | 0xFFFD39AA  |  4294785450 |
|      34 | 0xFFFFB899  |  4294949017 |
|      35 | 0xFFFFF9C6  |  4294965702 |
|      36 | 0xFFFD39D1  |  4294785489 |
|      37 | 0xFFFF0D43  |  4294905155 |
|      38 | 0xFFFFF9B7  |  4294965687 |
|      39 | 0x3DBED     |      252909 |
|      40 | 0xFFFDA34C  |  4294812492 |
|      41 | 0xFFFFC811  |  4294952977 |
|      42 | 0x3BB44     |      244548 |
|      43 | 0xFFFD68B7  |  4294797495 |
|      44 | 0xFFFFC2E2  |  4294951650 |
|      45 | 0x6C56E     |      443758 |
|      46 | 0xFFFCF758  |  4294768472 |
|      47 | 0x4E1F      |       19999 |
|      48 | 0x3CEE9     |      249577 |
|      49 | 0xFFFDC916  |  4294822166 |
|      50 | 0xFFFFC6AF  |  4294952623 |
|      51 | 0x3DF64     |      253796 |
|      52 | 0xFFFDE0C9  |  4294828233 |
|      53 | 0xFFFFC90F  |  4294953231 |

## Events

### Event 65535

#### Metadata

| Field        | Value   |
|--------------|---------|
| Entrypoint   | 0x0000  |
| Data Size    | 1 bytes |
| Instructions | 1       |

```
      00 01 02 03 04 05 06 07  08 09 0A 0B 0C 0D 0E 0F
      -- -- -- -- -- -- -- --  -- -- -- -- -- -- -- --
0000: 00                                                .               
```

#### Opcodes

```
  0: 0x0000 [0x00] END_REQSTACK()
```

### Event 65535.1

#### Metadata

| Field        | Value   |
|--------------|---------|
| Entrypoint   | 0x0001  |
| Data Size    | 1 bytes |
| Instructions | 1       |

```
      00 01 02 03 04 05 06 07  08 09 0A 0B 0C 0D 0E 0F
      -- -- -- -- -- -- -- --  -- -- -- -- -- -- -- --
0000:    00                                              .              
```

#### Opcodes

```
  0: 0x0001 [0x00] END_REQSTACK()
```

### Event 65535.2

#### Metadata

| Field        | Value    |
|--------------|----------|
| Entrypoint   | 0x0002   |
| Data Size    | 18 bytes |
| Instructions | 4        |

```
      00 01 02 03 04 05 06 07  08 09 0A 0B 0C 0D 0E 0F
      -- -- -- -- -- -- -- --  -- -- -- -- -- -- -- --
0000:       22 00 2F 00 F8 FF  FF 7F 6C F8 FF FF 7F 00    "./.....l.....
0010: 80 01 80 00                                       ....            
```

#### Opcodes

```
  0: 0x0002 [0x22] ENTITY_HIDE_FLAG(enabled=0x00)
  1: 0x0004 [0x2F] EventEntity->Render.Flags0 &= ~0x80000 // Bit 19
  2: 0x000A [0x6C] FADE_ENTITY_COLOR(entity_id=EventEntity, end_alpha=0*, fade_time=1*)
  3: 0x0013 [0x00] END_REQSTACK()
```

### Event 65535.3

#### Metadata

| Field        | Value    |
|--------------|----------|
| Entrypoint   | 0x0014   |
| Data Size    | 10 bytes |
| Instructions | 2        |

```
      00 01 02 03 04 05 06 07  08 09 0A 0B 0C 0D 0E 0F
      -- -- -- -- -- -- -- --  -- -- -- -- -- -- -- --
0010:             6C F8 FF FF  7F 02 80 01 80 00            l.........  
```

#### Opcodes

```
  0: 0x0014 [0x6C] FADE_ENTITY_COLOR(entity_id=EventEntity, end_alpha=128*, fade_time=1*)
  1: 0x001D [0x00] END_REQSTACK()
```

### Event 65535.4

#### Metadata

| Field        | Value   |
|--------------|---------|
| Entrypoint   | 0x001E  |
| Data Size    | 9 bytes |
| Instructions | 3       |

```
      00 01 02 03 04 05 06 07  08 09 0A 0B 0C 0D 0E 0F
      -- -- -- -- -- -- -- --  -- -- -- -- -- -- -- --
0010:                                            22 00                ".
0020: 2F 00 F8 FF FF 7F 00                              /......         
```

#### Opcodes

```
  0: 0x001E [0x22] ENTITY_HIDE_FLAG(enabled=0x00)
  1: 0x0020 [0x2F] EventEntity->Render.Flags0 &= ~0x80000 // Bit 19
  2: 0x0026 [0x00] END_REQSTACK()
```

### Event 65535.5

#### Metadata

| Field        | Value   |
|--------------|---------|
| Entrypoint   | 0x0027  |
| Data Size    | 9 bytes |
| Instructions | 3       |

```
      00 01 02 03 04 05 06 07  08 09 0A 0B 0C 0D 0E 0F
      -- -- -- -- -- -- -- --  -- -- -- -- -- -- -- --
0020:                      22  01 2F 01 F8 FF FF 7F 00         "./......
```

#### Opcodes

```
  0: 0x0027 [0x22] ENTITY_HIDE_FLAG(enabled=0x01)
  1: 0x0029 [0x2F] EventEntity->Render.Flags0 |= 0x80000 // Bit 19
  2: 0x002F [0x00] END_REQSTACK()
```

### Event 65535.6

#### Metadata

| Field        | Value    |
|--------------|----------|
| Entrypoint   | 0x0030   |
| Data Size    | 10 bytes |
| Instructions | 2        |

```
      00 01 02 03 04 05 06 07  08 09 0A 0B 0C 0D 0E 0F
      -- -- -- -- -- -- -- --  -- -- -- -- -- -- -- --
0030: 6C F8 FF FF 7F 00 80 01  80 00                    l.........      
```

#### Opcodes

```
  0: 0x0030 [0x6C] FADE_ENTITY_COLOR(entity_id=EventEntity, end_alpha=0*, fade_time=1*)
  1: 0x0039 [0x00] END_REQSTACK()
```

### Event 65535.7

#### Metadata

| Field        | Value    |
|--------------|----------|
| Entrypoint   | 0x003A   |
| Data Size    | 10 bytes |
| Instructions | 2        |

```
      00 01 02 03 04 05 06 07  08 09 0A 0B 0C 0D 0E 0F
      -- -- -- -- -- -- -- --  -- -- -- -- -- -- -- --
0030:                                6C F8 FF FF 7F 02            l.....
0040: 80 01 80 00                                       ....            
```

#### Opcodes

```
  0: 0x003A [0x6C] FADE_ENTITY_COLOR(entity_id=EventEntity, end_alpha=128*, fade_time=1*)
  1: 0x0043 [0x00] END_REQSTACK()
```

### Event 2

#### Metadata

| Field        | Value   |
|--------------|---------|
| Entrypoint   | 0x0044  |
| Data Size    | 1 bytes |
| Instructions | 1       |

```
      00 01 02 03 04 05 06 07  08 09 0A 0B 0C 0D 0E 0F
      -- -- -- -- -- -- -- --  -- -- -- -- -- -- -- --
0040:             00                                        .           
```

#### Opcodes

```
  0: 0x0044 [0x00] END_REQSTACK()
```

### Event 7

#### Metadata

| Field        | Value   |
|--------------|---------|
| Entrypoint   | 0x0045  |
| Data Size    | 1 bytes |
| Instructions | 1       |

```
      00 01 02 03 04 05 06 07  08 09 0A 0B 0C 0D 0E 0F
      -- -- -- -- -- -- -- --  -- -- -- -- -- -- -- --
0040:                00                                      .          
```

#### Opcodes

```
  0: 0x0045 [0x00] END_REQSTACK()
```

### Event 30

#### Metadata

| Field        | Value   |
|--------------|---------|
| Entrypoint   | 0x0046  |
| Data Size    | 1 bytes |
| Instructions | 1       |

```
      00 01 02 03 04 05 06 07  08 09 0A 0B 0C 0D 0E 0F
      -- -- -- -- -- -- -- --  -- -- -- -- -- -- -- --
0040:                   00                                    .         
```

#### Opcodes

```
  0: 0x0046 [0x00] END_REQSTACK()
```

### Event 31

#### Metadata

| Field        | Value   |
|--------------|---------|
| Entrypoint   | 0x0047  |
| Data Size    | 1 bytes |
| Instructions | 1       |

```
      00 01 02 03 04 05 06 07  08 09 0A 0B 0C 0D 0E 0F
      -- -- -- -- -- -- -- --  -- -- -- -- -- -- -- --
0040:                      00                                  .        
```

#### Opcodes

```
  0: 0x0047 [0x00] END_REQSTACK()
```

### Event 34

#### Metadata

| Field        | Value   |
|--------------|---------|
| Entrypoint   | 0x0048  |
| Data Size    | 1 bytes |
| Instructions | 1       |

```
      00 01 02 03 04 05 06 07  08 09 0A 0B 0C 0D 0E 0F
      -- -- -- -- -- -- -- --  -- -- -- -- -- -- -- --
0040:                          00                               .       
```

#### Opcodes

```
  0: 0x0048 [0x00] END_REQSTACK()
```

### Event 65535.8

#### Metadata

| Field        | Value    |
|--------------|----------|
| Entrypoint   | 0x0049   |
| Data Size    | 14 bytes |
| Instructions | 4        |

```
      00 01 02 03 04 05 06 07  08 09 0A 0B 0C 0D 0E 0F
      -- -- -- -- -- -- -- --  -- -- -- -- -- -- -- --
0040:                             32 03 80 1F 00 04 80           2......
0050: 05 80 00 80 1F 01 00                              .......         
```

#### Opcodes

```
  0: 0x0049 [0x32] ExtData[1]->MainSpeed = 8* * 0.1
  1: 0x004C [0x1F] MOVE_ENTITY: EventEntity moves to X=559.476*, Z=-280.069*, Y=0.000*
  2: 0x0054 [0x1F] MOVE_ENTITY: Update entity position (mode=1)
  3: 0x0056 [0x00] END_REQSTACK()
```

### Event 65535.9

#### Metadata

| Field        | Value    |
|--------------|----------|
| Entrypoint   | 0x0057   |
| Data Size    | 24 bytes |
| Instructions | 6        |

```
      00 01 02 03 04 05 06 07  08 09 0A 0B 0C 0D 0E 0F
      -- -- -- -- -- -- -- --  -- -- -- -- -- -- -- --
0050:                      32  06 80 1F 00 07 80 08 80         2........
0060: 00 80 1F 01 6F 4A F0 FF  FF 7F DC 92 08 01 00     ....oJ......... 
```

#### Opcodes

```
  0: 0x0057 [0x32] ExtData[1]->MainSpeed = 13* * 0.1
  1: 0x005A [0x1F] MOVE_ENTITY: EventEntity moves to X=556.492*, Z=-280.478*, Y=0.000*
  2: 0x0062 [0x1F] MOVE_ENTITY: Update entity position (mode=1)
  3: 0x0064 [0x6F] WAIT_FRAME_DELAY: Yield until WaitTime reaches zero
  4: 0x0065 [0x4A] LocalPlayer looks at Bistillot (ID: 17339100/0x010892DC)
  5: 0x006E [0x00] END_REQSTACK()
```

### Event 65535.10

#### Metadata

| Field        | Value    |
|--------------|----------|
| Entrypoint   | 0x006F   |
| Data Size    | 49 bytes |
| Instructions | 7        |

```
      00 01 02 03 04 05 06 07  08 09 0A 0B 0C 0D 0E 0F
      -- -- -- -- -- -- -- --  -- -- -- -- -- -- -- --
0060:                                               32                 2
0070: 09 80 C5 0A 80 DC 92 08  01 DC 92 08 01 73 30 30  .............s00
0080: 31 00 80 1F 00 0B 80 0C  80 0D 80 1F 01 6F C5 0A  1............o..
0090: 80 DC 92 08 01 DC 92 08  01 73 74 30 31 00 80 00  .........st01...
```

#### Opcodes

```
  0: 0x006F [0x32] ExtData[1]->MainSpeed = 37* * 0.1
  1: 0x0072 [0xC5] LOAD_SCHEDULED_TASK_ALT3: Load scheduler 0x80003130 for entities [Bistillot (ID: 17339100/0x010892DC), Bistillot (ID: 17339100/0x010892DC)], work=144*, param=12403
  2: 0x0083 [0x1F] MOVE_ENTITY: EventEntity moves to X=549.271*, Z=-281.490*, Y=0.334*
  3: 0x008B [0x1F] MOVE_ENTITY: Update entity position (mode=1)
  4: 0x008D [0x6F] WAIT_FRAME_DELAY: Yield until WaitTime reaches zero
  5: 0x008E [0xC5] LOAD_SCHEDULED_TASK_ALT3: Load scheduler 0x80003130 for entities [Bistillot (ID: 17339100/0x010892DC), Bistillot (ID: 17339100/0x010892DC)], work=144*, param=29811
  6: 0x009F [0x00] END_REQSTACK()
```

### Event 65535.11

#### Metadata

| Field        | Value    |
|--------------|----------|
| Entrypoint   | 0x00A0   |
| Data Size    | 49 bytes |
| Instructions | 7        |

```
      00 01 02 03 04 05 06 07  08 09 0A 0B 0C 0D 0E 0F
      -- -- -- -- -- -- -- --  -- -- -- -- -- -- -- --
00A0: 32 0E 80 C5 0A 80 DC 92  08 01 DC 92 08 01 73 30  2.............s0
00B0: 30 31 00 80 1F 00 0F 80  10 80 11 80 1F 01 6F C5  01............o.
00C0: 0A 80 DC 92 08 01 DC 92  08 01 73 74 30 31 00 80  ..........st01..
00D0: 00                                                .               
```

#### Opcodes

```
  0: 0x00A0 [0x32] ExtData[1]->MainSpeed = 35* * 0.1
  1: 0x00A3 [0xC5] LOAD_SCHEDULED_TASK_ALT3: Load scheduler 0x80003130 for entities [Bistillot (ID: 17339100/0x010892DC), Bistillot (ID: 17339100/0x010892DC)], work=144*, param=12403
  2: 0x00B4 [0x1F] MOVE_ENTITY: EventEntity moves to X=503.336*, Z=-225.627*, Y=-0.465*
  3: 0x00BC [0x1F] MOVE_ENTITY: Update entity position (mode=1)
  4: 0x00BE [0x6F] WAIT_FRAME_DELAY: Yield until WaitTime reaches zero
  5: 0x00BF [0xC5] LOAD_SCHEDULED_TASK_ALT3: Load scheduler 0x80003130 for entities [Bistillot (ID: 17339100/0x010892DC), Bistillot (ID: 17339100/0x010892DC)], work=144*, param=29811
  6: 0x00D0 [0x00] END_REQSTACK()
```

### Event 65535.12

#### Metadata

| Field        | Value    |
|--------------|----------|
| Entrypoint   | 0x00D1   |
| Data Size    | 49 bytes |
| Instructions | 7        |

```
      00 01 02 03 04 05 06 07  08 09 0A 0B 0C 0D 0E 0F
      -- -- -- -- -- -- -- --  -- -- -- -- -- -- -- --
00D0:    32 06 80 C5 0A 80 DC  92 08 01 DC 92 08 01 73   2.............s
00E0: 30 30 31 00 80 1F 00 12  80 13 80 00 80 1F 01 6F  001............o
00F0: C5 0A 80 DC 92 08 01 DC  92 08 01 73 74 30 31 00  ...........st01.
0100: 80 00                                             ..              
```

#### Opcodes

```
  0: 0x00D1 [0x32] ExtData[1]->MainSpeed = 13* * 0.1
  1: 0x00D4 [0xC5] LOAD_SCHEDULED_TASK_ALT3: Load scheduler 0x80003130 for entities [Bistillot (ID: 17339100/0x010892DC), Bistillot (ID: 17339100/0x010892DC)], work=144*, param=12403
  2: 0x00E5 [0x1F] MOVE_ENTITY: EventEntity moves to X=519.145*, Z=-240.277*, Y=0.000*
  3: 0x00ED [0x1F] MOVE_ENTITY: Update entity position (mode=1)
  4: 0x00EF [0x6F] WAIT_FRAME_DELAY: Yield until WaitTime reaches zero
  5: 0x00F0 [0xC5] LOAD_SCHEDULED_TASK_ALT3: Load scheduler 0x80003130 for entities [Bistillot (ID: 17339100/0x010892DC), Bistillot (ID: 17339100/0x010892DC)], work=144*, param=29811
  6: 0x0101 [0x00] END_REQSTACK()
```

### Event 65535.13

#### Metadata

| Field        | Value    |
|--------------|----------|
| Entrypoint   | 0x0102   |
| Data Size    | 49 bytes |
| Instructions | 7        |

```
      00 01 02 03 04 05 06 07  08 09 0A 0B 0C 0D 0E 0F
      -- -- -- -- -- -- -- --  -- -- -- -- -- -- -- --
0100:       32 09 80 C5 0A 80  DC 92 08 01 DC 92 08 01    2.............
0110: 73 30 30 31 00 80 1F 00  14 80 15 80 16 80 1F 01  s001............
0120: 6F C5 0A 80 DC 92 08 01  DC 92 08 01 73 74 30 31  o...........st01
0130: 00 80 00                                          ...             
```

#### Opcodes

```
  0: 0x0102 [0x32] ExtData[1]->MainSpeed = 37* * 0.1
  1: 0x0105 [0xC5] LOAD_SCHEDULED_TASK_ALT3: Load scheduler 0x80003130 for entities [Bistillot (ID: 17339100/0x010892DC), Bistillot (ID: 17339100/0x010892DC)], work=144*, param=12403
  2: 0x0116 [0x1F] MOVE_ENTITY: EventEntity moves to X=499.836*, Z=-217.446*, Y=-0.033*
  3: 0x011E [0x1F] MOVE_ENTITY: Update entity position (mode=1)
  4: 0x0120 [0x6F] WAIT_FRAME_DELAY: Yield until WaitTime reaches zero
  5: 0x0121 [0xC5] LOAD_SCHEDULED_TASK_ALT3: Load scheduler 0x80003130 for entities [Bistillot (ID: 17339100/0x010892DC), Bistillot (ID: 17339100/0x010892DC)], work=144*, param=29811
  6: 0x0132 [0x00] END_REQSTACK()
```

### Event 65535.14

#### Metadata

| Field        | Value    |
|--------------|----------|
| Entrypoint   | 0x0133   |
| Data Size    | 15 bytes |
| Instructions | 5        |

```
      00 01 02 03 04 05 06 07  08 09 0A 0B 0C 0D 0E 0F
      -- -- -- -- -- -- -- --  -- -- -- -- -- -- -- --
0130:          32 17 80 1F 00  18 80 19 80 1A 80 1F 01     2............
0140: 6F 00                                             o.              
```

#### Opcodes

```
  0: 0x0133 [0x32] ExtData[1]->MainSpeed = 40* * 0.1
  1: 0x0136 [0x1F] MOVE_ENTITY: EventEntity moves to X=339.982*, Z=-322.762*, Y=0.297*
  2: 0x013E [0x1F] MOVE_ENTITY: Update entity position (mode=1)
  3: 0x0140 [0x6F] WAIT_FRAME_DELAY: Yield until WaitTime reaches zero
  4: 0x0141 [0x00] END_REQSTACK()
```

### Event 65535.15

#### Metadata

| Field        | Value    |
|--------------|----------|
| Entrypoint   | 0x0142   |
| Data Size    | 15 bytes |
| Instructions | 5        |

```
      00 01 02 03 04 05 06 07  08 09 0A 0B 0C 0D 0E 0F
      -- -- -- -- -- -- -- --  -- -- -- -- -- -- -- --
0140:       32 06 80 1F 00 1B  80 1C 80 1D 80 1F 01 6F    2............o
0150: 00                                                .               
```

#### Opcodes

```
  0: 0x0142 [0x32] ExtData[1]->MainSpeed = 13* * 0.1
  1: 0x0145 [0x1F] MOVE_ENTITY: EventEntity moves to X=340.283*, Z=-328.892*, Y=0.276*
  2: 0x014D [0x1F] MOVE_ENTITY: Update entity position (mode=1)
  3: 0x014F [0x6F] WAIT_FRAME_DELAY: Yield until WaitTime reaches zero
  4: 0x0150 [0x00] END_REQSTACK()
```

### Event 65535.16

#### Metadata

| Field        | Value    |
|--------------|----------|
| Entrypoint   | 0x0151   |
| Data Size    | 15 bytes |
| Instructions | 5        |

```
      00 01 02 03 04 05 06 07  08 09 0A 0B 0C 0D 0E 0F
      -- -- -- -- -- -- -- --  -- -- -- -- -- -- -- --
0150:    32 06 80 1F 00 1E 80  1F 80 20 80 1F 01 6F 00   2........ ...o.
```

#### Opcodes

```
  0: 0x0151 [0x32] ExtData[1]->MainSpeed = 13* * 0.1
  1: 0x0154 [0x1F] MOVE_ENTITY: EventEntity moves to X=342.026*, Z=-317.102*, Y=0.146*
  2: 0x015C [0x1F] MOVE_ENTITY: Update entity position (mode=1)
  3: 0x015E [0x6F] WAIT_FRAME_DELAY: Yield until WaitTime reaches zero
  4: 0x015F [0x00] END_REQSTACK()
```

### Event 65535.17

#### Metadata

| Field        | Value    |
|--------------|----------|
| Entrypoint   | 0x0160   |
| Data Size    | 15 bytes |
| Instructions | 5        |

```
      00 01 02 03 04 05 06 07  08 09 0A 0B 0C 0D 0E 0F
      -- -- -- -- -- -- -- --  -- -- -- -- -- -- -- --
0160: 32 17 80 1F 00 21 80 22  80 23 80 1F 01 6F 00     2....!.".#...o. 
```

#### Opcodes

```
  0: 0x0160 [0x32] ExtData[1]->MainSpeed = 40* * 0.1
  1: 0x0163 [0x1F] MOVE_ENTITY: EventEntity moves to X=-181.846*, Z=-18.279*, Y=-1.594*
  2: 0x016B [0x1F] MOVE_ENTITY: Update entity position (mode=1)
  3: 0x016D [0x6F] WAIT_FRAME_DELAY: Yield until WaitTime reaches zero
  4: 0x016E [0x00] END_REQSTACK()
```

### Event 65535.18

#### Metadata

| Field        | Value    |
|--------------|----------|
| Entrypoint   | 0x016F   |
| Data Size    | 15 bytes |
| Instructions | 5        |

```
      00 01 02 03 04 05 06 07  08 09 0A 0B 0C 0D 0E 0F
      -- -- -- -- -- -- -- --  -- -- -- -- -- -- -- --
0160:                                               32                 2
0170: 17 80 1F 00 24 80 25 80  26 80 1F 01 6F 00        ....$.%.&...o.  
```

#### Opcodes

```
  0: 0x016F [0x32] ExtData[1]->MainSpeed = 40* * 0.1
  1: 0x0172 [0x1F] MOVE_ENTITY: EventEntity moves to X=-181.807*, Z=-62.141*, Y=-1.609*
  2: 0x017A [0x1F] MOVE_ENTITY: Update entity position (mode=1)
  3: 0x017C [0x6F] WAIT_FRAME_DELAY: Yield until WaitTime reaches zero
  4: 0x017D [0x00] END_REQSTACK()
```

### Event 65535.19

#### Metadata

| Field        | Value    |
|--------------|----------|
| Entrypoint   | 0x017E   |
| Data Size    | 20 bytes |
| Instructions | 6        |

```
      00 01 02 03 04 05 06 07  08 09 0A 0B 0C 0D 0E 0F
      -- -- -- -- -- -- -- --  -- -- -- -- -- -- -- --
0170:                                            32 17                2.
0180: 80 1F 00 27 80 28 80 29  80 1F 01 6F 1E F0 FF FF  ...'.(.)...o....
0190: 7F 00                                             ..              
```

#### Opcodes

```
  0: 0x017E [0x32] ExtData[1]->MainSpeed = 40* * 0.1
  1: 0x0181 [0x1F] MOVE_ENTITY: EventEntity moves to X=252.909*, Z=-154.804*, Y=-14.319*
  2: 0x0189 [0x1F] MOVE_ENTITY: Update entity position (mode=1)
  3: 0x018B [0x6F] WAIT_FRAME_DELAY: Yield until WaitTime reaches zero
  4: 0x018C [0x1E] EventEntity looks at LocalPlayer and starts talking
  5: 0x0191 [0x00] END_REQSTACK()
```

### Event 65535.20

#### Metadata

| Field        | Value    |
|--------------|----------|
| Entrypoint   | 0x0192   |
| Data Size    | 15 bytes |
| Instructions | 5        |

```
      00 01 02 03 04 05 06 07  08 09 0A 0B 0C 0D 0E 0F
      -- -- -- -- -- -- -- --  -- -- -- -- -- -- -- --
0190:       32 17 80 1F 00 2A  80 2B 80 2C 80 1F 01 6F    2....*.+.,...o
01A0: 00                                                .               
```

#### Opcodes

```
  0: 0x0192 [0x32] ExtData[1]->MainSpeed = 40* * 0.1
  1: 0x0195 [0x1F] MOVE_ENTITY: EventEntity moves to X=244.548*, Z=-169.801*, Y=-15.646*
  2: 0x019D [0x1F] MOVE_ENTITY: Update entity position (mode=1)
  3: 0x019F [0x6F] WAIT_FRAME_DELAY: Yield until WaitTime reaches zero
  4: 0x01A0 [0x00] END_REQSTACK()
```

### Event 65535.21

#### Metadata

| Field        | Value    |
|--------------|----------|
| Entrypoint   | 0x01A1   |
| Data Size    | 10 bytes |
| Instructions | 2        |

```
      00 01 02 03 04 05 06 07  08 09 0A 0B 0C 0D 0E 0F
      -- -- -- -- -- -- -- --  -- -- -- -- -- -- -- --
01A0:    6C DC 92 08 01 00 80  01 80 00                  l.........     
```

#### Opcodes

```
  0: 0x01A1 [0x6C] FADE_ENTITY_COLOR(entity_id=Bistillot (ID: 17339100/0x010892DC), end_alpha=0*, fade_time=1*)
  1: 0x01AA [0x00] END_REQSTACK()
```

### Event 65535.22

#### Metadata

| Field        | Value    |
|--------------|----------|
| Entrypoint   | 0x01AB   |
| Data Size    | 10 bytes |
| Instructions | 2        |

```
      00 01 02 03 04 05 06 07  08 09 0A 0B 0C 0D 0E 0F
      -- -- -- -- -- -- -- --  -- -- -- -- -- -- -- --
01A0:                                   6C DC 92 08 01             l....
01B0: 02 80 01 80 00                                    .....           
```

#### Opcodes

```
  0: 0x01AB [0x6C] FADE_ENTITY_COLOR(entity_id=Bistillot (ID: 17339100/0x010892DC), end_alpha=128*, fade_time=1*)
  1: 0x01B4 [0x00] END_REQSTACK()
```

### Event 6

#### Metadata

| Field        | Value   |
|--------------|---------|
| Entrypoint   | 0x01B5  |
| Data Size    | 1 bytes |
| Instructions | 1       |

```
      00 01 02 03 04 05 06 07  08 09 0A 0B 0C 0D 0E 0F
      -- -- -- -- -- -- -- --  -- -- -- -- -- -- -- --
01B0:                00                                      .          
```

#### Opcodes

```
  0: 0x01B5 [0x00] END_REQSTACK()
```

### Event 65535.23

#### Metadata

| Field        | Value    |
|--------------|----------|
| Entrypoint   | 0x01B6   |
| Data Size    | 11 bytes |
| Instructions | 3        |

```
      00 01 02 03 04 05 06 07  08 09 0A 0B 0C 0D 0E 0F
      -- -- -- -- -- -- -- --  -- -- -- -- -- -- -- --
01B0:                   1F 00  2D 80 2E 80 2F 80 1F 01        ..-.../...
01C0: 00                                                .               
```

#### Opcodes

```
  0: 0x01B6 [0x1F] MOVE_ENTITY: EventEntity moves to X=443.758*, Z=-198.824*, Y=19.999*
  1: 0x01BE [0x1F] MOVE_ENTITY: Update entity position (mode=1)
  2: 0x01C0 [0x00] END_REQSTACK()
```

### Event 32

#### Metadata

| Field        | Value   |
|--------------|---------|
| Entrypoint   | 0x01C1  |
| Data Size    | 1 bytes |
| Instructions | 1       |

```
      00 01 02 03 04 05 06 07  08 09 0A 0B 0C 0D 0E 0F
      -- -- -- -- -- -- -- --  -- -- -- -- -- -- -- --
01C0:    00                                              .              
```

#### Opcodes

```
  0: 0x01C1 [0x00] END_REQSTACK()
```

### Event 65535.24

#### Metadata

| Field        | Value    |
|--------------|----------|
| Entrypoint   | 0x01C2   |
| Data Size    | 46 bytes |
| Instructions | 6        |

```
      00 01 02 03 04 05 06 07  08 09 0A 0B 0C 0D 0E 0F
      -- -- -- -- -- -- -- --  -- -- -- -- -- -- -- --
01C0:       C5 0A 80 DC 92 08  01 DC 92 08 01 73 30 30    ...........s00
01D0: 31 00 80 1F 00 30 80 31  80 32 80 1F 01 6F C5 0A  1....0.1.2...o..
01E0: 80 DC 92 08 01 DC 92 08  01 73 74 30 31 00 80 00  .........st01...
```

#### Opcodes

```
  0: 0x01C2 [0xC5] LOAD_SCHEDULED_TASK_ALT3: Load scheduler 0x80003130 for entities [Bistillot (ID: 17339100/0x010892DC), Bistillot (ID: 17339100/0x010892DC)], work=144*, param=12403
  1: 0x01D3 [0x1F] MOVE_ENTITY: EventEntity moves to X=249.577*, Z=-145.130*, Y=-14.673*
  2: 0x01DB [0x1F] MOVE_ENTITY: Update entity position (mode=1)
  3: 0x01DD [0x6F] WAIT_FRAME_DELAY: Yield until WaitTime reaches zero
  4: 0x01DE [0xC5] LOAD_SCHEDULED_TASK_ALT3: Load scheduler 0x80003130 for entities [Bistillot (ID: 17339100/0x010892DC), Bistillot (ID: 17339100/0x010892DC)], work=144*, param=29811
  5: 0x01EF [0x00] END_REQSTACK()
```

### Event 65535.25

#### Metadata

| Field        | Value    |
|--------------|----------|
| Entrypoint   | 0x01F0   |
| Data Size    | 46 bytes |
| Instructions | 6        |

```
      00 01 02 03 04 05 06 07  08 09 0A 0B 0C 0D 0E 0F
      -- -- -- -- -- -- -- --  -- -- -- -- -- -- -- --
01F0: C5 0A 80 DC 92 08 01 DC  92 08 01 73 30 30 31 00  ...........s001.
0200: 80 1F 00 33 80 34 80 35  80 1F 01 6F C5 0A 80 DC  ...3.4.5...o....
0210: 92 08 01 DC 92 08 01 73  74 30 31 00 80 00        .......st01...  
```

#### Opcodes

```
  0: 0x01F0 [0xC5] LOAD_SCHEDULED_TASK_ALT3: Load scheduler 0x80003130 for entities [Bistillot (ID: 17339100/0x010892DC), Bistillot (ID: 17339100/0x010892DC)], work=144*, param=12403
  1: 0x0201 [0x1F] MOVE_ENTITY: EventEntity moves to X=253.796*, Z=-139.063*, Y=-14.065*
  2: 0x0209 [0x1F] MOVE_ENTITY: Update entity position (mode=1)
  3: 0x020B [0x6F] WAIT_FRAME_DELAY: Yield until WaitTime reaches zero
  4: 0x020C [0xC5] LOAD_SCHEDULED_TASK_ALT3: Load scheduler 0x80003130 for entities [Bistillot (ID: 17339100/0x010892DC), Bistillot (ID: 17339100/0x010892DC)], work=144*, param=29811
  5: 0x021D [0x00] END_REQSTACK()
```
