# 17339222 - Lilisette

## Common Data

| Field            | Value                   |
|------------------|-------------------------|
| Zone             | Xarcabard [S] (ID: 137) |
| Block Size       | 1384 bytes              |
| Total Events     | 46                      |
| References Count | 100                     |

## List of Events

| Event ID                   | Entrypoint   |   Size |   Instructions |
|----------------------------|--------------|--------|----------------|
| [65535](#event-65535)      | 0x0000       |      1 |              1 |
| [65535.1](#event-655351)   | 0x0001       |      1 |              1 |
| [65535.2](#event-655352)   | 0x0002       |     18 |              4 |
| [65535.3](#event-655353)   | 0x0014       |     10 |              2 |
| [65535.4](#event-655354)   | 0x001E       |      9 |              3 |
| [65535.5](#event-655355)   | 0x0027       |      9 |              3 |
| [65535.6](#event-655356)   | 0x0030       |     10 |              2 |
| [65535.7](#event-655357)   | 0x003A       |     10 |              2 |
| [65535.8](#event-655358)   | 0x0044       |     70 |             15 |
| [65535.9](#event-655359)   | 0x008A       |     50 |             11 |
| [65535.10](#event-6553510) | 0x00BC       |     39 |              8 |
| [65535.11](#event-6553511) | 0x00E3       |     20 |              5 |
| [65535.12](#event-6553512) | 0x00F7       |     30 |              7 |
| [65535.13](#event-6553513) | 0x0115       |     20 |              5 |
| [65535.14](#event-6553514) | 0x0129       |     34 |              4 |
| [65535.15](#event-6553515) | 0x014B       |     69 |             14 |
| [65535.16](#event-6553516) | 0x0190       |     44 |              7 |
| [65535.17](#event-6553517) | 0x01BC       |     55 |              7 |
| [65535.18](#event-6553518) | 0x01F3       |     34 |              4 |
| [65535.19](#event-6553519) | 0x0215       |     13 |              3 |
| [65535.20](#event-6553520) | 0x0222       |      5 |              2 |
| [65535.21](#event-6553521) | 0x0227       |      9 |              3 |
| [65535.22](#event-6553522) | 0x0230       |      5 |              2 |
| [65535.23](#event-6553523) | 0x0235       |     68 |             14 |
| [65535.24](#event-6553524) | 0x0279       |     10 |              2 |
| [65535.25](#event-6553525) | 0x0283       |     10 |              2 |
| [19](#event-19)            | 0x028D       |      1 |              1 |
| [20](#event-20)            | 0x028E       |      7 |              2 |
| [21](#event-21)            | 0x0295       |      1 |              1 |
| [23](#event-23)            | 0x0296       |      1 |              1 |
| [39](#event-39)            | 0x0297       |      1 |              1 |
| [24](#event-24)            | 0x0298       |      1 |              1 |
| [17](#event-17)            | 0x0299       |      1 |              1 |
| [18](#event-18)            | 0x029A       |      4 |              2 |
| [42](#event-42)            | 0x029E       |      1 |              1 |
| [65535.26](#event-6553526) | 0x029F       |      5 |              2 |
| [65535.27](#event-6553527) | 0x02A4       |     22 |              6 |
| [65535.28](#event-6553528) | 0x02BA       |     14 |              4 |
| [65535.29](#event-6553529) | 0x02C8       |     20 |              6 |
| [65535.30](#event-6553530) | 0x02DC       |     18 |              6 |
| [65535.31](#event-6553531) | 0x02EE       |     20 |              6 |
| [22](#event-22)            | 0x0302       |      1 |              1 |
| [25](#event-25)            | 0x0303       |      1 |              1 |
| [26](#event-26)            | 0x0304       |      1 |              1 |
| [65535.32](#event-6553532) | 0x0305       |      4 |              2 |
| [65535.33](#event-6553533) | 0x0309       |      4 |              2 |

## DAT References (imed_data)

|   Index | Hex Value   |   Dec Value |
|---------|-------------|-------------|
|       0 | 0x0000      |           0 |
|       1 | 0x0001      |           1 |
|       2 | 0x0080      |         128 |
|       3 | 0x0027      |          39 |
|       4 | 0x13A64     |       80484 |
|       5 | 0xFFFD077C  |  4294772604 |
|       6 | 0xFFFFA281  |  4294943361 |
|       7 | 0x139DE     |       80350 |
|       8 | 0xFFFCF31B  |  4294767387 |
|       9 | 0xFFFFA241  |  4294943297 |
|      10 | 0x13E80     |       81536 |
|      11 | 0xFFFCDF5C  |  4294762332 |
|      12 | 0xFFFFA270  |  4294943344 |
|      13 | 0x13A67     |       80487 |
|      14 | 0xFFFCCFF4  |  4294758388 |
|      15 | 0xFFFFA334  |  4294943540 |
|      16 | 0x135D4     |       79316 |
|      17 | 0xFFFCBFC4  |  4294754244 |
|      18 | 0xFFFFA435  |  4294943797 |
|      19 | 0x126AD     |       75437 |
|      20 | 0xFFFCB1D4  |  4294750676 |
|      21 | 0xFFFFA562  |  4294944098 |
|      22 | 0x0025      |          37 |
|      23 | 0x12A6B     |       76395 |
|      24 | 0xFFFCB8E8  |  4294752488 |
|      25 | 0xFFFFA4E7  |  4294943975 |
|      26 | 0x12679     |       75385 |
|      27 | 0xFFFCAF18  |  4294749976 |
|      28 | 0xFFFFA583  |  4294944131 |
|      29 | 0x12247     |       74311 |
|      30 | 0xFFFCA939  |  4294748473 |
|      31 | 0xFFFFA598  |  4294944152 |
|      32 | 0x11C3A     |       72762 |
|      33 | 0xFFFCA1C4  |  4294746564 |
|      34 | 0xFFFFA53A  |  4294944058 |
|      35 | 0x000D      |          13 |
|      36 | 0x10A80     |       68224 |
|      37 | 0xFFFCA600  |  4294747648 |
|      38 | 0xFFFFA310  |  4294943504 |
|      39 | 0x106B3     |       67251 |
|      40 | 0xFFFCA656  |  4294747734 |
|      41 | 0xFFFFA2F7  |  4294943479 |
|      42 | 0xF816      |       63510 |
|      43 | 0xFFFCAB03  |  4294748931 |
|      44 | 0xFFFFA2A9  |  4294943401 |
|      45 | 0x0028      |          40 |
|      46 | 0x2976C     |      169836 |
|      47 | 0xFFFF5804  |  4294924292 |
|      48 | 0xFFFFC573  |  4294952307 |
|      49 | 0x2816C     |      164204 |
|      50 | 0xFFFF8925  |  4294936869 |
|      51 | 0xFFFFC3B3  |  4294951859 |
|      52 | 0x27D38     |      163128 |
|      53 | 0xFFFF8DE5  |  4294938085 |
|      54 | 0xFFFFC3F7  |  4294951927 |
|      55 | 0x0857      |        2135 |
|      56 | 0x00C8      |         200 |
|      57 | 0xFFFDB4E3  |  4294816995 |
|      58 | 0xFFFF482A  |  4294920234 |
|      59 | 0xFFFFA26E  |  4294943342 |
|      60 | 0xFFFD971E  |  4294809374 |
|      61 | 0xFFFF4681  |  4294919809 |
|      62 | 0xFFFFA2ED  |  4294943469 |
|      63 | 0xFFFD825C  |  4294804060 |
|      64 | 0xFFFF4841  |  4294920257 |
|      65 | 0xFFFFA2DD  |  4294943453 |
|      66 | 0xFFFD73CD  |  4294800333 |
|      67 | 0xFFFF51B8  |  4294922680 |
|      68 | 0xFFFFA4D0  |  4294943952 |
|      69 | 0xFFFD6DAA  |  4294798762 |
|      70 | 0xFFFF59A5  |  4294924709 |
|      71 | 0xFFFFA613  |  4294944275 |
|      72 | 0xFFFD82AF  |  4294804143 |
|      73 | 0xFFFF79B6  |  4294932918 |
|      74 | 0xFFFFA28D  |  4294943373 |
|      75 | 0x0005      |           5 |
|      76 | 0x08C7      |        2247 |
|      77 | 0x0078      |         120 |
|      78 | 0x003C      |          60 |
|      79 | 0x08F1      |        2289 |
|      80 | 0x08E7      |        2279 |
|      81 | 0x0064      |         100 |
|      82 | 0x0034      |          52 |
|      83 | 0x0003      |           3 |
|      84 | 0x0040      |          64 |
|      85 | 0x0800      |        2048 |
|      86 | 0x27E7E     |      163454 |
|      87 | 0xFFFF7A33  |  4294933043 |
|      88 | 0xFFFFC22B  |  4294951467 |
|      89 | 0x001E      |          30 |
|      90 | 0x27AEE     |      162542 |
|      91 | 0xFFFFBE4B  |  4294950475 |
|      92 | 0xFFFFC1A9  |  4294951337 |
|      93 | 0xFFFE3F54  |  4294852436 |
|      94 | 0xFFFF69EE  |  4294928878 |
|      95 | 0xFFFFA279  |  4294943353 |
|      96 | 0x000F      |          15 |
|      97 | 0xFFFE717C  |  4294865276 |
|      98 | 0xFFFF4533  |  4294919475 |
|      99 | 0xFFFFA1F1  |  4294943217 |

## Events

### Event 65535

#### Metadata

| Field        | Value   |
|--------------|---------|
| Entrypoint   | 0x0000  |
| Data Size    | 1 bytes |
| Instructions | 1       |

```
      00 01 02 03 04 05 06 07  08 09 0A 0B 0C 0D 0E 0F
      -- -- -- -- -- -- -- --  -- -- -- -- -- -- -- --
0000: 00                                                .               
```

#### Opcodes

```
  0: 0x0000 [0x00] END_REQSTACK()
```

### Event 65535.1

#### Metadata

| Field        | Value   |
|--------------|---------|
| Entrypoint   | 0x0001  |
| Data Size    | 1 bytes |
| Instructions | 1       |

```
      00 01 02 03 04 05 06 07  08 09 0A 0B 0C 0D 0E 0F
      -- -- -- -- -- -- -- --  -- -- -- -- -- -- -- --
0000:    00                                              .              
```

#### Opcodes

```
  0: 0x0001 [0x00] END_REQSTACK()
```

### Event 65535.2

#### Metadata

| Field        | Value    |
|--------------|----------|
| Entrypoint   | 0x0002   |
| Data Size    | 18 bytes |
| Instructions | 4        |

```
      00 01 02 03 04 05 06 07  08 09 0A 0B 0C 0D 0E 0F
      -- -- -- -- -- -- -- --  -- -- -- -- -- -- -- --
0000:       22 00 2F 00 F8 FF  FF 7F 6C F8 FF FF 7F 00    "./.....l.....
0010: 80 01 80 00                                       ....            
```

#### Opcodes

```
  0: 0x0002 [0x22] ENTITY_HIDE_FLAG(enabled=0x00)
  1: 0x0004 [0x2F] EventEntity->Render.Flags0 &= ~0x80000 // Bit 19
  2: 0x000A [0x6C] FADE_ENTITY_COLOR(entity_id=EventEntity, end_alpha=0*, fade_time=1*)
  3: 0x0013 [0x00] END_REQSTACK()
```

### Event 65535.3

#### Metadata

| Field        | Value    |
|--------------|----------|
| Entrypoint   | 0x0014   |
| Data Size    | 10 bytes |
| Instructions | 2        |

```
      00 01 02 03 04 05 06 07  08 09 0A 0B 0C 0D 0E 0F
      -- -- -- -- -- -- -- --  -- -- -- -- -- -- -- --
0010:             6C F8 FF FF  7F 02 80 01 80 00            l.........  
```

#### Opcodes

```
  0: 0x0014 [0x6C] FADE_ENTITY_COLOR(entity_id=EventEntity, end_alpha=128*, fade_time=1*)
  1: 0x001D [0x00] END_REQSTACK()
```

### Event 65535.4

#### Metadata

| Field        | Value   |
|--------------|---------|
| Entrypoint   | 0x001E  |
| Data Size    | 9 bytes |
| Instructions | 3       |

```
      00 01 02 03 04 05 06 07  08 09 0A 0B 0C 0D 0E 0F
      -- -- -- -- -- -- -- --  -- -- -- -- -- -- -- --
0010:                                            22 00                ".
0020: 2F 00 F8 FF FF 7F 00                              /......         
```

#### Opcodes

```
  0: 0x001E [0x22] ENTITY_HIDE_FLAG(enabled=0x00)
  1: 0x0020 [0x2F] EventEntity->Render.Flags0 &= ~0x80000 // Bit 19
  2: 0x0026 [0x00] END_REQSTACK()
```

### Event 65535.5

#### Metadata

| Field        | Value   |
|--------------|---------|
| Entrypoint   | 0x0027  |
| Data Size    | 9 bytes |
| Instructions | 3       |

```
      00 01 02 03 04 05 06 07  08 09 0A 0B 0C 0D 0E 0F
      -- -- -- -- -- -- -- --  -- -- -- -- -- -- -- --
0020:                      22  01 2F 01 F8 FF FF 7F 00         "./......
```

#### Opcodes

```
  0: 0x0027 [0x22] ENTITY_HIDE_FLAG(enabled=0x01)
  1: 0x0029 [0x2F] EventEntity->Render.Flags0 |= 0x80000 // Bit 19
  2: 0x002F [0x00] END_REQSTACK()
```

### Event 65535.6

#### Metadata

| Field        | Value    |
|--------------|----------|
| Entrypoint   | 0x0030   |
| Data Size    | 10 bytes |
| Instructions | 2        |

```
      00 01 02 03 04 05 06 07  08 09 0A 0B 0C 0D 0E 0F
      -- -- -- -- -- -- -- --  -- -- -- -- -- -- -- --
0030: 6C F8 FF FF 7F 00 80 01  80 00                    l.........      
```

#### Opcodes

```
  0: 0x0030 [0x6C] FADE_ENTITY_COLOR(entity_id=EventEntity, end_alpha=0*, fade_time=1*)
  1: 0x0039 [0x00] END_REQSTACK()
```

### Event 65535.7

#### Metadata

| Field        | Value    |
|--------------|----------|
| Entrypoint   | 0x003A   |
| Data Size    | 10 bytes |
| Instructions | 2        |

```
      00 01 02 03 04 05 06 07  08 09 0A 0B 0C 0D 0E 0F
      -- -- -- -- -- -- -- --  -- -- -- -- -- -- -- --
0030:                                6C F8 FF FF 7F 02            l.....
0040: 80 01 80 00                                       ....            
```

#### Opcodes

```
  0: 0x003A [0x6C] FADE_ENTITY_COLOR(entity_id=EventEntity, end_alpha=128*, fade_time=1*)
  1: 0x0043 [0x00] END_REQSTACK()
```

### Event 65535.8

#### Metadata

| Field        | Value    |
|--------------|----------|
| Entrypoint   | 0x0044   |
| Data Size    | 70 bytes |
| Instructions | 15       |

```
      00 01 02 03 04 05 06 07  08 09 0A 0B 0C 0D 0E 0F
      -- -- -- -- -- -- -- --  -- -- -- -- -- -- -- --
0040:             59 04 F8 FF  FF 7F 03 80 1F 00 04 80      Y...........
0050: 05 80 06 80 1F 01 1F 00  07 80 08 80 09 80 1F 01  ................
0060: 1F 00 0A 80 0B 80 0C 80  1F 01 1F 00 0D 80 0E 80  ................
0070: 0F 80 1F 01 1F 00 10 80  11 80 12 80 1F 01 1F 00  ................
0080: 13 80 14 80 15 80 1F 01  6F 00                    ........o.      
```

#### Opcodes

```
  0: 0x0044 [0x59] UPDATE_ENTITY_DATA: Set EventEntity main speed = 39* * 0.1
  1: 0x004C [0x1F] MOVE_ENTITY: EventEntity moves to X=80.484*, Z=-194.692*, Y=-23.935*
  2: 0x0054 [0x1F] MOVE_ENTITY: Update entity position (mode=1)
  3: 0x0056 [0x1F] MOVE_ENTITY: EventEntity moves to X=80.350*, Z=-199.909*, Y=-23.999*
  4: 0x005E [0x1F] MOVE_ENTITY: Update entity position (mode=1)
  5: 0x0060 [0x1F] MOVE_ENTITY: EventEntity moves to X=81.536*, Z=-204.964*, Y=-23.952*
  6: 0x0068 [0x1F] MOVE_ENTITY: Update entity position (mode=1)
  7: 0x006A [0x1F] MOVE_ENTITY: EventEntity moves to X=80.487*, Z=-208.908*, Y=-23.756*
  8: 0x0072 [0x1F] MOVE_ENTITY: Update entity position (mode=1)
  9: 0x0074 [0x1F] MOVE_ENTITY: EventEntity moves to X=79.316*, Z=-213.052*, Y=-23.499*
 10: 0x007C [0x1F] MOVE_ENTITY: Update entity position (mode=1)
 11: 0x007E [0x1F] MOVE_ENTITY: EventEntity moves to X=75.437*, Z=-216.620*, Y=-23.198*
 12: 0x0086 [0x1F] MOVE_ENTITY: Update entity position (mode=1)
 13: 0x0088 [0x6F] WAIT_FRAME_DELAY: Yield until WaitTime reaches zero
 14: 0x0089 [0x00] END_REQSTACK()
```

### Event 65535.9

#### Metadata

| Field        | Value    |
|--------------|----------|
| Entrypoint   | 0x008A   |
| Data Size    | 50 bytes |
| Instructions | 11       |

```
      00 01 02 03 04 05 06 07  08 09 0A 0B 0C 0D 0E 0F
      -- -- -- -- -- -- -- --  -- -- -- -- -- -- -- --
0080:                                59 04 F8 FF FF 7F            Y.....
0090: 16 80 1F 00 17 80 18 80  19 80 1F 01 1F 00 1A 80  ................
00A0: 1B 80 1C 80 1F 01 1F 00  1D 80 1E 80 1F 80 1F 01  ................
00B0: 1F 00 20 80 21 80 22 80  1F 01 6F 00              .. .!."...o.    
```

#### Opcodes

```
  0: 0x008A [0x59] UPDATE_ENTITY_DATA: Set EventEntity main speed = 37* * 0.1
  1: 0x0092 [0x1F] MOVE_ENTITY: EventEntity moves to X=76.395*, Z=-214.808*, Y=-23.321*
  2: 0x009A [0x1F] MOVE_ENTITY: Update entity position (mode=1)
  3: 0x009C [0x1F] MOVE_ENTITY: EventEntity moves to X=75.385*, Z=-217.320*, Y=-23.165*
  4: 0x00A4 [0x1F] MOVE_ENTITY: Update entity position (mode=1)
  5: 0x00A6 [0x1F] MOVE_ENTITY: EventEntity moves to X=74.311*, Z=-218.823*, Y=-23.144*
  6: 0x00AE [0x1F] MOVE_ENTITY: Update entity position (mode=1)
  7: 0x00B0 [0x1F] MOVE_ENTITY: EventEntity moves to X=72.762*, Z=-220.732*, Y=-23.238*
  8: 0x00B8 [0x1F] MOVE_ENTITY: Update entity position (mode=1)
  9: 0x00BA [0x6F] WAIT_FRAME_DELAY: Yield until WaitTime reaches zero
 10: 0x00BB [0x00] END_REQSTACK()
```

### Event 65535.10

#### Metadata

| Field        | Value    |
|--------------|----------|
| Entrypoint   | 0x00BC   |
| Data Size    | 39 bytes |
| Instructions | 8        |

```
      00 01 02 03 04 05 06 07  08 09 0A 0B 0C 0D 0E 0F
      -- -- -- -- -- -- -- --  -- -- -- -- -- -- -- --
00B0:                                      59 04 F8 FF              Y...
00C0: FF 7F 23 80 1F 00 24 80  25 80 26 80 1F 01 1F 00  ..#...$.%.&.....
00D0: 27 80 28 80 29 80 1F 01  6F 4A F8 FF FF 7F 6A 93  '.(.)...oJ....j.
00E0: 08 01 00                                          ...             
```

#### Opcodes

```
  0: 0x00BC [0x59] UPDATE_ENTITY_DATA: Set EventEntity main speed = 13* * 0.1
  1: 0x00C4 [0x1F] MOVE_ENTITY: EventEntity moves to X=68.224*, Z=-219.648*, Y=-23.792*
  2: 0x00CC [0x1F] MOVE_ENTITY: Update entity position (mode=1)
  3: 0x00CE [0x1F] MOVE_ENTITY: EventEntity moves to X=67.251*, Z=-219.562*, Y=-23.817*
  4: 0x00D6 [0x1F] MOVE_ENTITY: Update entity position (mode=1)
  5: 0x00D8 [0x6F] WAIT_FRAME_DELAY: Yield until WaitTime reaches zero
  6: 0x00D9 [0x4A] EventEntity looks at Kayeel-Payeel (ID: 17339242/0x0108936A)
  7: 0x00E2 [0x00] END_REQSTACK()
```

### Event 65535.11

#### Metadata

| Field        | Value    |
|--------------|----------|
| Entrypoint   | 0x00E3   |
| Data Size    | 20 bytes |
| Instructions | 5        |

```
      00 01 02 03 04 05 06 07  08 09 0A 0B 0C 0D 0E 0F
      -- -- -- -- -- -- -- --  -- -- -- -- -- -- -- --
00E0:          59 04 F8 FF FF  7F 23 80 1F 00 2A 80 2B     Y.....#...*.+
00F0: 80 2C 80 1F 01 6F 00                              .,...o.         
```

#### Opcodes

```
  0: 0x00E3 [0x59] UPDATE_ENTITY_DATA: Set EventEntity main speed = 13* * 0.1
  1: 0x00EB [0x1F] MOVE_ENTITY: EventEntity moves to X=63.510*, Z=-218.365*, Y=-23.895*
  2: 0x00F3 [0x1F] MOVE_ENTITY: Update entity position (mode=1)
  3: 0x00F5 [0x6F] WAIT_FRAME_DELAY: Yield until WaitTime reaches zero
  4: 0x00F6 [0x00] END_REQSTACK()
```

### Event 65535.12

#### Metadata

| Field        | Value    |
|--------------|----------|
| Entrypoint   | 0x00F7   |
| Data Size    | 30 bytes |
| Instructions | 7        |

```
      00 01 02 03 04 05 06 07  08 09 0A 0B 0C 0D 0E 0F
      -- -- -- -- -- -- -- --  -- -- -- -- -- -- -- --
00F0:                      59  04 F8 FF FF 7F 2D 80 1F         Y.....-..
0100: 00 2E 80 2F 80 30 80 1F  01 1F 00 31 80 32 80 33  .../.0.....1.2.3
0110: 80 1F 01 6F 00                                    ...o.           
```

#### Opcodes

```
  0: 0x00F7 [0x59] UPDATE_ENTITY_DATA: Set EventEntity main speed = 40* * 0.1
  1: 0x00FF [0x1F] MOVE_ENTITY: EventEntity moves to X=169.836*, Z=-43.004*, Y=-14.989*
  2: 0x0107 [0x1F] MOVE_ENTITY: Update entity position (mode=1)
  3: 0x0109 [0x1F] MOVE_ENTITY: EventEntity moves to X=164.204*, Z=-30.427*, Y=-15.437*
  4: 0x0111 [0x1F] MOVE_ENTITY: Update entity position (mode=1)
  5: 0x0113 [0x6F] WAIT_FRAME_DELAY: Yield until WaitTime reaches zero
  6: 0x0114 [0x00] END_REQSTACK()
```

### Event 65535.13

#### Metadata

| Field        | Value    |
|--------------|----------|
| Entrypoint   | 0x0115   |
| Data Size    | 20 bytes |
| Instructions | 5        |

```
      00 01 02 03 04 05 06 07  08 09 0A 0B 0C 0D 0E 0F
      -- -- -- -- -- -- -- --  -- -- -- -- -- -- -- --
0110:                59 04 F8  FF FF 7F 23 80 1F 00 34       Y.....#...4
0120: 80 35 80 36 80 1F 01 6F  00                       .5.6...o.       
```

#### Opcodes

```
  0: 0x0115 [0x59] UPDATE_ENTITY_DATA: Set EventEntity main speed = 13* * 0.1
  1: 0x011D [0x1F] MOVE_ENTITY: EventEntity moves to X=163.128*, Z=-29.211*, Y=-15.369*
  2: 0x0125 [0x1F] MOVE_ENTITY: Update entity position (mode=1)
  3: 0x0127 [0x6F] WAIT_FRAME_DELAY: Yield until WaitTime reaches zero
  4: 0x0128 [0x00] END_REQSTACK()
```

### Event 65535.14

#### Metadata

| Field        | Value    |
|--------------|----------|
| Entrypoint   | 0x0129   |
| Data Size    | 34 bytes |
| Instructions | 4        |

```
      00 01 02 03 04 05 06 07  08 09 0A 0B 0C 0D 0E 0F
      -- -- -- -- -- -- -- --  -- -- -- -- -- -- -- --
0120:                             5B 37 80 56 93 08 01           [7.V...
0130: 56 93 08 01 66 63 30 31  1C 38 80 5B 37 80 56 93  V...fc01.8.[7.V.
0140: 08 01 56 93 08 01 66 63  30 30 00                 ..V...fc00.     
```

#### Opcodes

```
  0: 0x0129 [0x5B] LOAD_EXT_SCHEDULER: Load scheduler "fc01" with entities [Lilisette (ID: 17339222/0x01089356), Lilisette (ID: 17339222/0x01089356)], work=2135*
  1: 0x0138 [0x1C] WAIT(200* ticks)
  2: 0x013B [0x5B] LOAD_EXT_SCHEDULER: Load scheduler "fc00" with entities [Lilisette (ID: 17339222/0x01089356), Lilisette (ID: 17339222/0x01089356)], work=2135*
  3: 0x014A [0x00] END_REQSTACK()
```

### Event 65535.15

#### Metadata

| Field        | Value    |
|--------------|----------|
| Entrypoint   | 0x014B   |
| Data Size    | 69 bytes |
| Instructions | 14       |

```
      00 01 02 03 04 05 06 07  08 09 0A 0B 0C 0D 0E 0F
      -- -- -- -- -- -- -- --  -- -- -- -- -- -- -- --
0140:                                   59 04 F8 FF FF             Y....
0150: 7F 2D 80 1F 00 39 80 3A  80 3B 80 1F 01 1F 00 3C  .-...9.:.;.....<
0160: 80 3D 80 3E 80 1F 01 1F  00 3F 80 40 80 41 80 1F  .=.>.....?.@.A..
0170: 01 1F 00 42 80 43 80 44  80 1F 01 1F 00 45 80 46  ...B.C.D.....E.F
0180: 80 47 80 1F 01 6F 4A F8  FF FF 7F 5A 93 08 01 00  .G...oJ....Z....
```

#### Opcodes

```
  0: 0x014B [0x59] UPDATE_ENTITY_DATA: Set EventEntity main speed = 40* * 0.1
  1: 0x0153 [0x1F] MOVE_ENTITY: EventEntity moves to X=-150.301*, Z=-47.062*, Y=-23.954*
  2: 0x015B [0x1F] MOVE_ENTITY: Update entity position (mode=1)
  3: 0x015D [0x1F] MOVE_ENTITY: EventEntity moves to X=-157.922*, Z=-47.487*, Y=-23.827*
  4: 0x0165 [0x1F] MOVE_ENTITY: Update entity position (mode=1)
  5: 0x0167 [0x1F] MOVE_ENTITY: EventEntity moves to X=-163.236*, Z=-47.039*, Y=-23.843*
  6: 0x016F [0x1F] MOVE_ENTITY: Update entity position (mode=1)
  7: 0x0171 [0x1F] MOVE_ENTITY: EventEntity moves to X=-166.963*, Z=-44.616*, Y=-23.344*
  8: 0x0179 [0x1F] MOVE_ENTITY: Update entity position (mode=1)
  9: 0x017B [0x1F] MOVE_ENTITY: EventEntity moves to X=-168.534*, Z=-42.587*, Y=-23.021*
 10: 0x0183 [0x1F] MOVE_ENTITY: Update entity position (mode=1)
 11: 0x0185 [0x6F] WAIT_FRAME_DELAY: Yield until WaitTime reaches zero
 12: 0x0186 [0x4A] EventEntity looks at Ragelise (ID: 17339226/0x0108935A)
 13: 0x018F [0x00] END_REQSTACK()
```

### Event 65535.16

#### Metadata

| Field        | Value    |
|--------------|----------|
| Entrypoint   | 0x0190   |
| Data Size    | 44 bytes |
| Instructions | 7        |

```
      00 01 02 03 04 05 06 07  08 09 0A 0B 0C 0D 0E 0F
      -- -- -- -- -- -- -- --  -- -- -- -- -- -- -- --
0190: 5B 37 80 56 93 08 01 56  93 08 01 66 63 30 30 59  [7.V...V...fc00Y
01A0: 04 F8 FF FF 7F 2D 80 1F  00 48 80 49 80 4A 80 1F  .....-...H.I.J..
01B0: 01 6F 4A F8 FF FF 7F 5A  93 08 01 00              .oJ....Z....    
```

#### Opcodes

```
  0: 0x0190 [0x5B] LOAD_EXT_SCHEDULER: Load scheduler "fc00" with entities [Lilisette (ID: 17339222/0x01089356), Lilisette (ID: 17339222/0x01089356)], work=2135*
  1: 0x019F [0x59] UPDATE_ENTITY_DATA: Set EventEntity main speed = 40* * 0.1
  2: 0x01A7 [0x1F] MOVE_ENTITY: EventEntity moves to X=-163.153*, Z=-34.378*, Y=-23.923*
  3: 0x01AF [0x1F] MOVE_ENTITY: Update entity position (mode=1)
  4: 0x01B1 [0x6F] WAIT_FRAME_DELAY: Yield until WaitTime reaches zero
  5: 0x01B2 [0x4A] EventEntity looks at Ragelise (ID: 17339226/0x0108935A)
  6: 0x01BB [0x00] END_REQSTACK()
```

### Event 65535.17

#### Metadata

| Field        | Value    |
|--------------|----------|
| Entrypoint   | 0x01BC   |
| Data Size    | 55 bytes |
| Instructions | 7        |

```
      00 01 02 03 04 05 06 07  08 09 0A 0B 0C 0D 0E 0F
      -- -- -- -- -- -- -- --  -- -- -- -- -- -- -- --
01B0:                                      5B 37 80 F8              [7..
01C0: FF FF 7F F8 FF FF 7F 66  63 30 31 1C 4B 80 5B 4C  .......fc01.K.[L
01D0: 80 F8 FF FF 7F F8 FF FF  7F 73 74 64 30 1C 4D 80  .........std0.M.
01E0: 5B 37 80 F8 FF FF 7F F8  FF FF 7F 66 63 30 30 1C  [7.........fc00.
01F0: 4E 80 00                                          N..             
```

#### Opcodes

```
  0: 0x01BC [0x5B] LOAD_EXT_SCHEDULER: Load scheduler "fc01" with entities [EventEntity, EventEntity], work=2135*
  1: 0x01CB [0x1C] WAIT(5* ticks)
  2: 0x01CE [0x5B] LOAD_EXT_SCHEDULER: Load scheduler "std0" with entities [EventEntity, EventEntity], work=2247*
  3: 0x01DD [0x1C] WAIT(120* ticks)
  4: 0x01E0 [0x5B] LOAD_EXT_SCHEDULER: Load scheduler "fc00" with entities [EventEntity, EventEntity], work=2135*
  5: 0x01EF [0x1C] WAIT(60* ticks)
  6: 0x01F2 [0x00] END_REQSTACK()
```

### Event 65535.18

#### Metadata

| Field        | Value    |
|--------------|----------|
| Entrypoint   | 0x01F3   |
| Data Size    | 34 bytes |
| Instructions | 4        |

```
      00 01 02 03 04 05 06 07  08 09 0A 0B 0C 0D 0E 0F
      -- -- -- -- -- -- -- --  -- -- -- -- -- -- -- --
01F0:          5B 37 80 F8 FF  FF 7F F8 FF FF 7F 66 64     [7.........fd
0200: 30 31 1C 4E 80 5B 37 80  F8 FF FF 7F F8 FF FF 7F  01.N.[7.........
0210: 66 64 30 30 00                                    fd00.           
```

#### Opcodes

```
  0: 0x01F3 [0x5B] LOAD_EXT_SCHEDULER: Load scheduler "fd01" with entities [EventEntity, EventEntity], work=2135*
  1: 0x0202 [0x1C] WAIT(60* ticks)
  2: 0x0205 [0x5B] LOAD_EXT_SCHEDULER: Load scheduler "fd00" with entities [EventEntity, EventEntity], work=2135*
  3: 0x0214 [0x00] END_REQSTACK()
```

### Event 65535.19

#### Metadata

| Field        | Value    |
|--------------|----------|
| Entrypoint   | 0x0215   |
| Data Size    | 13 bytes |
| Instructions | 3        |

```
      00 01 02 03 04 05 06 07  08 09 0A 0B 0C 0D 0E 0F
      -- -- -- -- -- -- -- --  -- -- -- -- -- -- -- --
0210:                1C 4E 80  4A F8 FF FF 7F F0 FF FF       .N.J.......
0220: 7F 00                                             ..              
```

#### Opcodes

```
  0: 0x0215 [0x1C] WAIT(60* ticks)
  1: 0x0218 [0x4A] EventEntity looks at LocalPlayer
  2: 0x0221 [0x00] END_REQSTACK()
```

### Event 65535.20

#### Metadata

| Field        | Value   |
|--------------|---------|
| Entrypoint   | 0x0222  |
| Data Size    | 5 bytes |
| Instructions | 2       |

```
      00 01 02 03 04 05 06 07  08 09 0A 0B 0C 0D 0E 0F
      -- -- -- -- -- -- -- --  -- -- -- -- -- -- -- --
0220:       B6 00 4F 80 00                                ..O..         
```

#### Opcodes

```
  0: 0x0222 [0xB6] ENTITY_APPEARANCE_HANDLER(case=Hair style, value=2289*)
  1: 0x0226 [0x00] END_REQSTACK()
```

### Event 65535.21

#### Metadata

| Field        | Value   |
|--------------|---------|
| Entrypoint   | 0x0227  |
| Data Size    | 9 bytes |
| Instructions | 3       |

```
      00 01 02 03 04 05 06 07  08 09 0A 0B 0C 0D 0E 0F
      -- -- -- -- -- -- -- --  -- -- -- -- -- -- -- --
0220:                      B6  00 50 80 B6 0F 51 80 00         ..P...Q..
```

#### Opcodes

```
  0: 0x0227 [0xB6] ENTITY_APPEARANCE_HANDLER(case=Hair style, value=2279*)
  1: 0x022B [0xB6] ENTITY_APPEARANCE_HANDLER(case=Model size, value=100*)
  2: 0x022F [0x00] END_REQSTACK()
```

### Event 65535.22

#### Metadata

| Field        | Value   |
|--------------|---------|
| Entrypoint   | 0x0230  |
| Data Size    | 5 bytes |
| Instructions | 2       |

```
      00 01 02 03 04 05 06 07  08 09 0A 0B 0C 0D 0E 0F
      -- -- -- -- -- -- -- --  -- -- -- -- -- -- -- --
0230: B6 00 52 80 00                                    ..R..           
```

#### Opcodes

```
  0: 0x0230 [0xB6] ENTITY_APPEARANCE_HANDLER(case=Hair style, value=52*)
  1: 0x0234 [0x00] END_REQSTACK()
```

### Event 65535.23

#### Metadata

| Field        | Value    |
|--------------|----------|
| Entrypoint   | 0x0235   |
| Data Size    | 68 bytes |
| Instructions | 10       |

```
      00 01 02 03 04 05 06 07  08 09 0A 0B 0C 0D 0E 0F
      -- -- -- -- -- -- -- --  -- -- -- -- -- -- -- --
0230:                33 01 3B  F8 FF FF 7F 00 00 01 00       3.;........
0240: 02 00 06 05 00 16 04 00  05 00 53 80 07 02 00 04  ..........S.....
0250: 00 3A F8 FF FF 7F 03 00  37 00 00 01 00 02 00 03  .:......7.......
0260: 00 07 05 00 54 80 1C 01  80 01 45 02 02 05 00 55  ....T.....E....U
0270: 80 04 77 02 06 05 00 1B  00                       ..w......       
```

#### Opcodes

```
  0: 0x0235 [0x33] EventEntity->Render.Flags0 |= 0x200000 // Bit 21 (flag=0x01)
  1: 0x0237 [0x3B] GET_ENTITY_POSITION(entity=EventEntity, x_destination=ExtData[1]->WorkLocal[0], y_destination=ExtData[1]->WorkLocal[1], z_destination=ExtData[1]->WorkLocal[2])
  2: 0x0242 [0x06] ExtData[1]->WorkLocal[5] = 0
  3: 0x0245 [0x16] ExtData[1]->WorkLocal[4] = sin(ExtData[1]->WorkLocal[5]) * 3*
  4: 0x024C [0x07] ExtData[1]->WorkLocal[2] += ExtData[1]->WorkLocal[4]
  5: 0x0251 [0x3A] CONVERT_YAW_TO_BYTE(entity=EventEntity, result_destination=ExtData[1]->WorkLocal[3])
  6: 0x0258 [0x37] UPDATE_EVENT_POSITION_AND_DIR: x=ExtData[1]->WorkLocal[0], z=ExtData[1]->WorkLocal[1], y=ExtData[1]->WorkLocal[2], direction=ExtData[1]->WorkLocal[3]
  7: 0x0261 [0x07] ExtData[1]->WorkLocal[5] += 64*
  8: 0x0266 [0x1C] WAIT(1* ticks)
  9: 0x0269 [0x01] GOTO 0x0245
```

#### Data or dead code:

```
# Dead code (unreachable instructions):
     0x026C [0x02] IF !(ExtData[1]->WorkLocal[5] < 2048*) GOTO 0x0277
     0x0274 [0x06] ExtData[1]->WorkLocal[5] = 0
     0x0277 [0x1B] RETURN
     0x0278 [0x00] END_REQSTACK()
```

### Event 65535.24

#### Metadata

| Field        | Value    |
|--------------|----------|
| Entrypoint   | 0x0279   |
| Data Size    | 10 bytes |
| Instructions | 2        |

```
      00 01 02 03 04 05 06 07  08 09 0A 0B 0C 0D 0E 0F
      -- -- -- -- -- -- -- --  -- -- -- -- -- -- -- --
0270:                             6C 56 93 08 01 00 80           lV.....
0280: 01 80 00                                          ...             
```

#### Opcodes

```
  0: 0x0279 [0x6C] FADE_ENTITY_COLOR(entity_id=Lilisette (ID: 17339222/0x01089356), end_alpha=0*, fade_time=1*)
  1: 0x0282 [0x00] END_REQSTACK()
```

### Event 65535.25

#### Metadata

| Field        | Value    |
|--------------|----------|
| Entrypoint   | 0x0283   |
| Data Size    | 10 bytes |
| Instructions | 2        |

```
      00 01 02 03 04 05 06 07  08 09 0A 0B 0C 0D 0E 0F
      -- -- -- -- -- -- -- --  -- -- -- -- -- -- -- --
0280:          6C 56 93 08 01  02 80 01 80 00              lV........   
```

#### Opcodes

```
  0: 0x0283 [0x6C] FADE_ENTITY_COLOR(entity_id=Lilisette (ID: 17339222/0x01089356), end_alpha=128*, fade_time=1*)
  1: 0x028C [0x00] END_REQSTACK()
```

### Event 19

#### Metadata

| Field        | Value   |
|--------------|---------|
| Entrypoint   | 0x028D  |
| Data Size    | 1 bytes |
| Instructions | 1       |

```
      00 01 02 03 04 05 06 07  08 09 0A 0B 0C 0D 0E 0F
      -- -- -- -- -- -- -- --  -- -- -- -- -- -- -- --
0280:                                         00                     .  
```

#### Opcodes

```
  0: 0x028D [0x00] END_REQSTACK()
```

### Event 20

#### Metadata

| Field        | Value   |
|--------------|---------|
| Entrypoint   | 0x028E  |
| Data Size    | 7 bytes |
| Instructions | 2       |

```
      00 01 02 03 04 05 06 07  08 09 0A 0B 0C 0D 0E 0F
      -- -- -- -- -- -- -- --  -- -- -- -- -- -- -- --
0280:                                            92 01                ..
0290: F8 FF FF 7F 00                                    .....           
```

#### Opcodes

```
  0: 0x028E [0x92] EventEntity->Render.Flags3 ^= 0x01
  1: 0x0294 [0x00] END_REQSTACK()
```

### Event 21

#### Metadata

| Field        | Value   |
|--------------|---------|
| Entrypoint   | 0x0295  |
| Data Size    | 1 bytes |
| Instructions | 1       |

```
      00 01 02 03 04 05 06 07  08 09 0A 0B 0C 0D 0E 0F
      -- -- -- -- -- -- -- --  -- -- -- -- -- -- -- --
0290:                00                                      .          
```

#### Opcodes

```
  0: 0x0295 [0x00] END_REQSTACK()
```

### Event 23

#### Metadata

| Field        | Value   |
|--------------|---------|
| Entrypoint   | 0x0296  |
| Data Size    | 1 bytes |
| Instructions | 1       |

```
      00 01 02 03 04 05 06 07  08 09 0A 0B 0C 0D 0E 0F
      -- -- -- -- -- -- -- --  -- -- -- -- -- -- -- --
0290:                   00                                    .         
```

#### Opcodes

```
  0: 0x0296 [0x00] END_REQSTACK()
```

### Event 39

#### Metadata

| Field        | Value   |
|--------------|---------|
| Entrypoint   | 0x0297  |
| Data Size    | 1 bytes |
| Instructions | 1       |

```
      00 01 02 03 04 05 06 07  08 09 0A 0B 0C 0D 0E 0F
      -- -- -- -- -- -- -- --  -- -- -- -- -- -- -- --
0290:                      00                                  .        
```

#### Opcodes

```
  0: 0x0297 [0x00] END_REQSTACK()
```

### Event 24

#### Metadata

| Field        | Value   |
|--------------|---------|
| Entrypoint   | 0x0298  |
| Data Size    | 1 bytes |
| Instructions | 1       |

```
      00 01 02 03 04 05 06 07  08 09 0A 0B 0C 0D 0E 0F
      -- -- -- -- -- -- -- --  -- -- -- -- -- -- -- --
0290:                          00                               .       
```

#### Opcodes

```
  0: 0x0298 [0x00] END_REQSTACK()
```

### Event 17

#### Metadata

| Field        | Value   |
|--------------|---------|
| Entrypoint   | 0x0299  |
| Data Size    | 1 bytes |
| Instructions | 1       |

```
      00 01 02 03 04 05 06 07  08 09 0A 0B 0C 0D 0E 0F
      -- -- -- -- -- -- -- --  -- -- -- -- -- -- -- --
0290:                             00                             .      
```

#### Opcodes

```
  0: 0x0299 [0x00] END_REQSTACK()
```

### Event 18

#### Metadata

| Field        | Value   |
|--------------|---------|
| Entrypoint   | 0x029A  |
| Data Size    | 4 bytes |
| Instructions | 2       |

```
      00 01 02 03 04 05 06 07  08 09 0A 0B 0C 0D 0E 0F
      -- -- -- -- -- -- -- --  -- -- -- -- -- -- -- --
0290:                                C0 01 80 00                  ....  
```

#### Opcodes

```
  0: 0x029A [0xC0] EventEntity->Render.Flags3 |= 0x1000 // Set bit 12 (from 1*)
  1: 0x029D [0x00] END_REQSTACK()
```

### Event 42

#### Metadata

| Field        | Value   |
|--------------|---------|
| Entrypoint   | 0x029E  |
| Data Size    | 1 bytes |
| Instructions | 1       |

```
      00 01 02 03 04 05 06 07  08 09 0A 0B 0C 0D 0E 0F
      -- -- -- -- -- -- -- --  -- -- -- -- -- -- -- --
0290:                                            00                   . 
```

#### Opcodes

```
  0: 0x029E [0x00] END_REQSTACK()
```

### Event 65535.26

#### Metadata

| Field        | Value   |
|--------------|---------|
| Entrypoint   | 0x029F  |
| Data Size    | 5 bytes |
| Instructions | 2       |

```
      00 01 02 03 04 05 06 07  08 09 0A 0B 0C 0D 0E 0F
      -- -- -- -- -- -- -- --  -- -- -- -- -- -- -- --
0290:                                               B6                 .
02A0: 00 50 80 00                                       .P..            
```

#### Opcodes

```
  0: 0x029F [0xB6] ENTITY_APPEARANCE_HANDLER(case=Hair style, value=2279*)
  1: 0x02A3 [0x00] END_REQSTACK()
```

### Event 65535.27

#### Metadata

| Field        | Value    |
|--------------|----------|
| Entrypoint   | 0x02A4   |
| Data Size    | 22 bytes |
| Instructions | 6        |

```
      00 01 02 03 04 05 06 07  08 09 0A 0B 0C 0D 0E 0F
      -- -- -- -- -- -- -- --  -- -- -- -- -- -- -- --
02A0:             32 2D 80 1F  00 56 80 57 80 58 80 1F      2-...V.W.X..
02B0: 01 1E 66 93 08 01 1C 59  80 00                    ..f....Y..      
```

#### Opcodes

```
  0: 0x02A4 [0x32] ExtData[1]->MainSpeed = 40* * 0.1
  1: 0x02A7 [0x1F] MOVE_ENTITY: EventEntity moves to X=163.454*, Z=-34.253*, Y=-15.829*
  2: 0x02AF [0x1F] MOVE_ENTITY: Update entity position (mode=1)
  3: 0x02B1 [0x1E] EventEntity looks at Adelheid (ID: 17339238/0x01089366) and starts talking
  4: 0x02B6 [0x1C] WAIT(30* ticks)
  5: 0x02B9 [0x00] END_REQSTACK()
```

### Event 65535.28

#### Metadata

| Field        | Value    |
|--------------|----------|
| Entrypoint   | 0x02BA   |
| Data Size    | 14 bytes |
| Instructions | 4        |

```
      00 01 02 03 04 05 06 07  08 09 0A 0B 0C 0D 0E 0F
      -- -- -- -- -- -- -- --  -- -- -- -- -- -- -- --
02B0:                                32 2D 80 1F 00 5A            2-...Z
02C0: 80 5B 80 5C 80 1F 01 00                           .[.\....        
```

#### Opcodes

```
  0: 0x02BA [0x32] ExtData[1]->MainSpeed = 40* * 0.1
  1: 0x02BD [0x1F] MOVE_ENTITY: EventEntity moves to X=162.542*, Z=-16.821*, Y=-15.959*
  2: 0x02C5 [0x1F] MOVE_ENTITY: Update entity position (mode=1)
  3: 0x02C7 [0x00] END_REQSTACK()
```

### Event 65535.29

#### Metadata

| Field        | Value    |
|--------------|----------|
| Entrypoint   | 0x02C8   |
| Data Size    | 20 bytes |
| Instructions | 6        |

```
      00 01 02 03 04 05 06 07  08 09 0A 0B 0C 0D 0E 0F
      -- -- -- -- -- -- -- --  -- -- -- -- -- -- -- --
02C0:                          32 2D 80 1F 00 5D 80 5E          2-...].^
02D0: 80 5F 80 1F 01 6F 1E 5D  93 08 01 00              ._...o.]....    
```

#### Opcodes

```
  0: 0x02C8 [0x32] ExtData[1]->MainSpeed = 40* * 0.1
  1: 0x02CB [0x1F] MOVE_ENTITY: EventEntity moves to X=-114.860*, Z=-38.418*, Y=-23.943*
  2: 0x02D3 [0x1F] MOVE_ENTITY: Update entity position (mode=1)
  3: 0x02D5 [0x6F] WAIT_FRAME_DELAY: Yield until WaitTime reaches zero
  4: 0x02D6 [0x1E] EventEntity looks at Mayakov (ID: 17339229/0x0108935D) and starts talking
  5: 0x02DB [0x00] END_REQSTACK()
```

### Event 65535.30

#### Metadata

| Field        | Value    |
|--------------|----------|
| Entrypoint   | 0x02DC   |
| Data Size    | 18 bytes |
| Instructions | 6        |

```
      00 01 02 03 04 05 06 07  08 09 0A 0B 0C 0D 0E 0F
      -- -- -- -- -- -- -- --  -- -- -- -- -- -- -- --
02D0:                                      1C 60 80 32              .`.2
02E0: 03 80 1F 00 61 80 62 80  63 80 1F 01 6F 00        ....a.b.c...o.  
```

#### Opcodes

```
  0: 0x02DC [0x1C] WAIT(15* ticks)
  1: 0x02DF [0x32] ExtData[1]->MainSpeed = 39* * 0.1
  2: 0x02E2 [0x1F] MOVE_ENTITY: EventEntity moves to X=-102.020*, Z=-47.821*, Y=-24.079*
  3: 0x02EA [0x1F] MOVE_ENTITY: Update entity position (mode=1)
  4: 0x02EC [0x6F] WAIT_FRAME_DELAY: Yield until WaitTime reaches zero
  5: 0x02ED [0x00] END_REQSTACK()
```

### Event 65535.31

#### Metadata

| Field        | Value    |
|--------------|----------|
| Entrypoint   | 0x02EE   |
| Data Size    | 20 bytes |
| Instructions | 6        |

```
      00 01 02 03 04 05 06 07  08 09 0A 0B 0C 0D 0E 0F
      -- -- -- -- -- -- -- --  -- -- -- -- -- -- -- --
02E0:                                            32 2D                2-
02F0: 80 1F 00 5D 80 5E 80 5F  80 1F 01 6F 1E EA 92 08  ...].^._...o....
0300: 01 00                                             ..              
```

#### Opcodes

```
  0: 0x02EE [0x32] ExtData[1]->MainSpeed = 40* * 0.1
  1: 0x02F1 [0x1F] MOVE_ENTITY: EventEntity moves to X=-114.860*, Z=-38.418*, Y=-23.943*
  2: 0x02F9 [0x1F] MOVE_ENTITY: Update entity position (mode=1)
  3: 0x02FB [0x6F] WAIT_FRAME_DELAY: Yield until WaitTime reaches zero
  4: 0x02FC [0x1E] EventEntity looks at kisi01 (ID: 17339114/0x010892EA) and starts talking
  5: 0x0301 [0x00] END_REQSTACK()
```

### Event 22

#### Metadata

| Field        | Value   |
|--------------|---------|
| Entrypoint   | 0x0302  |
| Data Size    | 1 bytes |
| Instructions | 1       |

```
      00 01 02 03 04 05 06 07  08 09 0A 0B 0C 0D 0E 0F
      -- -- -- -- -- -- -- --  -- -- -- -- -- -- -- --
0300:       00                                            .             
```

#### Opcodes

```
  0: 0x0302 [0x00] END_REQSTACK()
```

### Event 25

#### Metadata

| Field        | Value   |
|--------------|---------|
| Entrypoint   | 0x0303  |
| Data Size    | 1 bytes |
| Instructions | 1       |

```
      00 01 02 03 04 05 06 07  08 09 0A 0B 0C 0D 0E 0F
      -- -- -- -- -- -- -- --  -- -- -- -- -- -- -- --
0300:          00                                          .            
```

#### Opcodes

```
  0: 0x0303 [0x00] END_REQSTACK()
```

### Event 26

#### Metadata

| Field        | Value   |
|--------------|---------|
| Entrypoint   | 0x0304  |
| Data Size    | 1 bytes |
| Instructions | 1       |

```
      00 01 02 03 04 05 06 07  08 09 0A 0B 0C 0D 0E 0F
      -- -- -- -- -- -- -- --  -- -- -- -- -- -- -- --
0300:             00                                        .           
```

#### Opcodes

```
  0: 0x0304 [0x00] END_REQSTACK()
```

### Event 65535.32

#### Metadata

| Field        | Value   |
|--------------|---------|
| Entrypoint   | 0x0305  |
| Data Size    | 4 bytes |
| Instructions | 2       |

```
      00 01 02 03 04 05 06 07  08 09 0A 0B 0C 0D 0E 0F
      -- -- -- -- -- -- -- --  -- -- -- -- -- -- -- --
0300:                C0 01 80  00                            ....       
```

#### Opcodes

```
  0: 0x0305 [0xC0] EventEntity->Render.Flags3 |= 0x1000 // Set bit 12 (from 1*)
  1: 0x0308 [0x00] END_REQSTACK()
```

### Event 65535.33

#### Metadata

| Field        | Value   |
|--------------|---------|
| Entrypoint   | 0x0309  |
| Data Size    | 4 bytes |
| Instructions | 2       |

```
      00 01 02 03 04 05 06 07  08 09 0A 0B 0C 0D 0E 0F
      -- -- -- -- -- -- -- --  -- -- -- -- -- -- -- --
0300:                             C0 00 80 00                    ....   
```

#### Opcodes

```
  0: 0x0309 [0xC0] EventEntity->Render.Flags3 &= ~0x1000 // Clear bit 12 (from 0*)
  1: 0x030C [0x00] END_REQSTACK()
```
