# 17339110 - kisiB

## Common Data

| Field            | Value                   |
|------------------|-------------------------|
| Zone             | Xarcabard [S] (ID: 137) |
| Block Size       | 444 bytes               |
| Total Events     | 18                      |
| References Count | 31                      |

## List of Events

| Event ID                   | Entrypoint   |   Size |   Instructions |
|----------------------------|--------------|--------|----------------|
| [65535](#event-65535)      | 0x0000       |      1 |              1 |
| [1](#event-1)              | 0x0001       |      1 |              1 |
| [65535.1](#event-655351)   | 0x0002       |     15 |              5 |
| [65535.2](#event-655352)   | 0x0011       |     20 |              6 |
| [7](#event-7)              | 0x0025       |      1 |              1 |
| [65535.3](#event-655353)   | 0x0026       |     15 |              5 |
| [65535.4](#event-655354)   | 0x0035       |     10 |              2 |
| [65535.5](#event-655355)   | 0x003F       |     10 |              2 |
| [65535.6](#event-655356)   | 0x0049       |     30 |              4 |
| [65535.7](#event-655357)   | 0x0067       |      7 |              2 |
| [31](#event-31)            | 0x006E       |      1 |              1 |
| [17](#event-17)            | 0x006F       |      1 |              1 |
| [65535.8](#event-655358)   | 0x0070       |     26 |              3 |
| [65535.9](#event-655359)   | 0x008A       |     21 |              2 |
| [65535.10](#event-6553510) | 0x009F       |     21 |              2 |
| [65535.11](#event-6553511) | 0x00B4       |     21 |              2 |
| [65535.12](#event-6553512) | 0x00C9       |     14 |              4 |
| [65535.13](#event-6553513) | 0x00D7       |     14 |              4 |

## DAT References (imed_data)

|   Index | Hex Value   |   Dec Value |
|---------|-------------|-------------|
|       0 | 0x0028      |          40 |
|       1 | 0x80B8C     |      527244 |
|       2 | 0xFFFBAE26  |  4294684198 |
|       3 | 0x00A0      |         160 |
|       4 | 0x820DB     |      532699 |
|       5 | 0xFFFBB828  |  4294686760 |
|       6 | 0x01D0      |         464 |
|       7 | 0x0018      |          24 |
|       8 | 0x5336E     |      340846 |
|       9 | 0xFFFB2CAA  |  4294651050 |
|      10 | 0x00EA      |         234 |
|      11 | 0x0000      |           0 |
|      12 | 0x0001      |           1 |
|      13 | 0x0080      |         128 |
|      14 | 0x0003      |           3 |
|      15 | 0x0002      |           2 |
|      16 | 0x000C      |          12 |
|      17 | 0x00D2      |         210 |
|      18 | 0x000F      |          15 |
|      19 | 0x00FB      |         251 |
|      20 | 0x000D      |          13 |
|      21 | 0x00DD      |         221 |
|      22 | 0x001B      |          27 |
|      23 | 0x0005      |           5 |
|      24 | 0x0008      |           8 |
|      25 | 0x008F      |         143 |
|      26 | 0x7FCC0     |      523456 |
|      27 | 0xFFFBBD4E  |  4294688078 |
|      28 | 0x7EAA4     |      518820 |
|      29 | 0xFFFBA159  |  4294680921 |
|      30 | 0xFFFFFF89  |  4294967177 |

## Events

### Event 65535

#### Metadata

| Field        | Value   |
|--------------|---------|
| Entrypoint   | 0x0000  |
| Data Size    | 1 bytes |
| Instructions | 1       |

```
      00 01 02 03 04 05 06 07  08 09 0A 0B 0C 0D 0E 0F
      -- -- -- -- -- -- -- --  -- -- -- -- -- -- -- --
0000: 00                                                .               
```

#### Opcodes

```
  0: 0x0000 [0x00] END_REQSTACK()
```

### Event 1

#### Metadata

| Field        | Value   |
|--------------|---------|
| Entrypoint   | 0x0001  |
| Data Size    | 1 bytes |
| Instructions | 1       |

```
      00 01 02 03 04 05 06 07  08 09 0A 0B 0C 0D 0E 0F
      -- -- -- -- -- -- -- --  -- -- -- -- -- -- -- --
0000:    00                                              .              
```

#### Opcodes

```
  0: 0x0001 [0x00] END_REQSTACK()
```

### Event 65535.1

#### Metadata

| Field        | Value    |
|--------------|----------|
| Entrypoint   | 0x0002   |
| Data Size    | 15 bytes |
| Instructions | 5        |

```
      00 01 02 03 04 05 06 07  08 09 0A 0B 0C 0D 0E 0F
      -- -- -- -- -- -- -- --  -- -- -- -- -- -- -- --
0000:       32 00 80 1F 00 01  80 02 80 03 80 1F 01 6F    2............o
0010: 00                                                .               
```

#### Opcodes

```
  0: 0x0002 [0x32] ExtData[1]->MainSpeed = 40* * 0.1
  1: 0x0005 [0x1F] MOVE_ENTITY: EventEntity moves to X=527.244*, Z=-283.098*, Y=0.160*
  2: 0x000D [0x1F] MOVE_ENTITY: Update entity position (mode=1)
  3: 0x000F [0x6F] WAIT_FRAME_DELAY: Yield until WaitTime reaches zero
  4: 0x0010 [0x00] END_REQSTACK()
```

### Event 65535.2

#### Metadata

| Field        | Value    |
|--------------|----------|
| Entrypoint   | 0x0011   |
| Data Size    | 20 bytes |
| Instructions | 6        |

```
      00 01 02 03 04 05 06 07  08 09 0A 0B 0C 0D 0E 0F
      -- -- -- -- -- -- -- --  -- -- -- -- -- -- -- --
0010:    32 00 80 1F 00 04 80  05 80 06 80 1F 01 6F 1E   2............o.
0020: D8 92 08 01 00                                    .....           
```

#### Opcodes

```
  0: 0x0011 [0x32] ExtData[1]->MainSpeed = 40* * 0.1
  1: 0x0014 [0x1F] MOVE_ENTITY: EventEntity moves to X=532.699*, Z=-280.536*, Y=0.464*
  2: 0x001C [0x1F] MOVE_ENTITY: Update entity position (mode=1)
  3: 0x001E [0x6F] WAIT_FRAME_DELAY: Yield until WaitTime reaches zero
  4: 0x001F [0x1E] EventEntity looks at Jayramus (ID: 17339096/0x010892D8) and starts talking
  5: 0x0024 [0x00] END_REQSTACK()
```

### Event 7

#### Metadata

| Field        | Value   |
|--------------|---------|
| Entrypoint   | 0x0025  |
| Data Size    | 1 bytes |
| Instructions | 1       |

```
      00 01 02 03 04 05 06 07  08 09 0A 0B 0C 0D 0E 0F
      -- -- -- -- -- -- -- --  -- -- -- -- -- -- -- --
0020:                00                                      .          
```

#### Opcodes

```
  0: 0x0025 [0x00] END_REQSTACK()
```

### Event 65535.3

#### Metadata

| Field        | Value    |
|--------------|----------|
| Entrypoint   | 0x0026   |
| Data Size    | 15 bytes |
| Instructions | 5        |

```
      00 01 02 03 04 05 06 07  08 09 0A 0B 0C 0D 0E 0F
      -- -- -- -- -- -- -- --  -- -- -- -- -- -- -- --
0020:                   32 07  80 1F 00 08 80 09 80 0A        2.........
0030: 80 1F 01 6F 00                                    ...o.           
```

#### Opcodes

```
  0: 0x0026 [0x32] ExtData[1]->MainSpeed = 24* * 0.1
  1: 0x0029 [0x1F] MOVE_ENTITY: EventEntity moves to X=340.846*, Z=-316.246*, Y=0.234*
  2: 0x0031 [0x1F] MOVE_ENTITY: Update entity position (mode=1)
  3: 0x0033 [0x6F] WAIT_FRAME_DELAY: Yield until WaitTime reaches zero
  4: 0x0034 [0x00] END_REQSTACK()
```

### Event 65535.4

#### Metadata

| Field        | Value    |
|--------------|----------|
| Entrypoint   | 0x0035   |
| Data Size    | 10 bytes |
| Instructions | 2        |

```
      00 01 02 03 04 05 06 07  08 09 0A 0B 0C 0D 0E 0F
      -- -- -- -- -- -- -- --  -- -- -- -- -- -- -- --
0030:                6C E6 92  08 01 0B 80 0C 80 00          l......... 
```

#### Opcodes

```
  0: 0x0035 [0x6C] FADE_ENTITY_COLOR(entity_id=kisiB (ID: 17339110/0x010892E6), end_alpha=0*, fade_time=1*)
  1: 0x003E [0x00] END_REQSTACK()
```

### Event 65535.5

#### Metadata

| Field        | Value    |
|--------------|----------|
| Entrypoint   | 0x003F   |
| Data Size    | 10 bytes |
| Instructions | 2        |

```
      00 01 02 03 04 05 06 07  08 09 0A 0B 0C 0D 0E 0F
      -- -- -- -- -- -- -- --  -- -- -- -- -- -- -- --
0030:                                               6C                 l
0040: E6 92 08 01 0D 80 0C 80  00                       .........       
```

#### Opcodes

```
  0: 0x003F [0x6C] FADE_ENTITY_COLOR(entity_id=kisiB (ID: 17339110/0x010892E6), end_alpha=128*, fade_time=1*)
  1: 0x0048 [0x00] END_REQSTACK()
```

### Event 65535.6

#### Metadata

| Field        | Value    |
|--------------|----------|
| Entrypoint   | 0x0049   |
| Data Size    | 30 bytes |
| Instructions | 4        |

```
      00 01 02 03 04 05 06 07  08 09 0A 0B 0C 0D 0E 0F
      -- -- -- -- -- -- -- --  -- -- -- -- -- -- -- --
0040:                             7E 06 F8 FF FF 7F 0C           ~......
0050: 80 0B 80 0C 80 0C 80 0C  80 0C 80 7E 04 F8 FF FF  ...........~....
0060: 7F 80 F8 FF FF 7F 00                              .......         
```

#### Opcodes

```
  0: 0x0049 [0x7E] CHOCOBO_MOUNT: Mode 6 (custom mount) on EventEntity
  1: 0x005B [0x7E] CHOCOBO_MOUNT: Mode 4 on EventEntity
  2: 0x0061 [0x80] LOAD_WAIT(entity=EventEntity)
  3: 0x0066 [0x00] END_REQSTACK()
```

### Event 65535.7

#### Metadata

| Field        | Value   |
|--------------|---------|
| Entrypoint   | 0x0067  |
| Data Size    | 7 bytes |
| Instructions | 2       |

```
      00 01 02 03 04 05 06 07  08 09 0A 0B 0C 0D 0E 0F
      -- -- -- -- -- -- -- --  -- -- -- -- -- -- -- --
0060:                      7E  05 F8 FF FF 7F 00               ~......  
```

#### Opcodes

```
  0: 0x0067 [0x7E] CHOCOBO_MOUNT: Dismount EventEntity (status = 0)
  1: 0x006D [0x00] END_REQSTACK()
```

### Event 31

#### Metadata

| Field        | Value   |
|--------------|---------|
| Entrypoint   | 0x006E  |
| Data Size    | 1 bytes |
| Instructions | 1       |

```
      00 01 02 03 04 05 06 07  08 09 0A 0B 0C 0D 0E 0F
      -- -- -- -- -- -- -- --  -- -- -- -- -- -- -- --
0060:                                            00                   . 
```

#### Opcodes

```
  0: 0x006E [0x00] END_REQSTACK()
```

### Event 17

#### Metadata

| Field        | Value   |
|--------------|---------|
| Entrypoint   | 0x006F  |
| Data Size    | 1 bytes |
| Instructions | 1       |

```
      00 01 02 03 04 05 06 07  08 09 0A 0B 0C 0D 0E 0F
      -- -- -- -- -- -- -- --  -- -- -- -- -- -- -- --
0060:                                               00                 .
```

#### Opcodes

```
  0: 0x006F [0x00] END_REQSTACK()
```

### Event 65535.8

#### Metadata

| Field        | Value    |
|--------------|----------|
| Entrypoint   | 0x0070   |
| Data Size    | 26 bytes |
| Instructions | 3        |

```
      00 01 02 03 04 05 06 07  08 09 0A 0B 0C 0D 0E 0F
      -- -- -- -- -- -- -- --  -- -- -- -- -- -- -- --
0070: B6 0B 0E 80 0F 80 10 80  10 80 10 80 10 80 10 80  ................
0080: 11 80 0B 80 80 E6 92 08  01 00                    ..........      
```

#### Opcodes

```
  0: 0x0070 [0xB6] ENTITY_APPEARANCE_HANDLER(case=Full entity look, race=3*, hair=2*, head=12*, body=12*, hands=12*, legs=12*, feet=12*, main=210*, sub=0*)
  1: 0x0084 [0x80] LOAD_WAIT(entity=kisiB (ID: 17339110/0x010892E6))
  2: 0x0089 [0x00] END_REQSTACK()
```

### Event 65535.9

#### Metadata

| Field        | Value    |
|--------------|----------|
| Entrypoint   | 0x008A   |
| Data Size    | 21 bytes |
| Instructions | 2        |

```
      00 01 02 03 04 05 06 07  08 09 0A 0B 0C 0D 0E 0F
      -- -- -- -- -- -- -- --  -- -- -- -- -- -- -- --
0080:                                B6 0B 0C 80 12 80            ......
0090: 0F 80 0F 80 0F 80 0F 80  0F 80 13 80 0B 80 00     ............... 
```

#### Opcodes

```
  0: 0x008A [0xB6] ENTITY_APPEARANCE_HANDLER(case=Full entity look, race=1*, hair=15*, head=2*, body=2*, hands=2*, legs=2*, feet=2*, main=251*, sub=0*)
  1: 0x009E [0x00] END_REQSTACK()
```

### Event 65535.10

#### Metadata

| Field        | Value    |
|--------------|----------|
| Entrypoint   | 0x009F   |
| Data Size    | 21 bytes |
| Instructions | 2        |

```
      00 01 02 03 04 05 06 07  08 09 0A 0B 0C 0D 0E 0F
      -- -- -- -- -- -- -- --  -- -- -- -- -- -- -- --
0090:                                               B6                 .
00A0: 0B 0E 80 0E 80 14 80 15  80 14 80 10 80 15 80 13  ................
00B0: 80 16 80 00                                       ....            
```

#### Opcodes

```
  0: 0x009F [0xB6] ENTITY_APPEARANCE_HANDLER(case=Full entity look, race=3*, hair=3*, head=13*, body=221*, hands=13*, legs=12*, feet=221*, main=251*, sub=27*)
  1: 0x00B3 [0x00] END_REQSTACK()
```

### Event 65535.11

#### Metadata

| Field        | Value    |
|--------------|----------|
| Entrypoint   | 0x00B4   |
| Data Size    | 21 bytes |
| Instructions | 2        |

```
      00 01 02 03 04 05 06 07  08 09 0A 0B 0C 0D 0E 0F
      -- -- -- -- -- -- -- --  -- -- -- -- -- -- -- --
00B0:             B6 0B 17 80  18 80 19 80 19 80 19 80      ............
00C0: 19 80 19 80 0B 80 0B 80  00                       .........       
```

#### Opcodes

```
  0: 0x00B4 [0xB6] ENTITY_APPEARANCE_HANDLER(case=Full entity look, race=5*, hair=8*, head=143*, body=143*, hands=143*, legs=143*, feet=143*, main=0*, sub=0*)
  1: 0x00C8 [0x00] END_REQSTACK()
```

### Event 65535.12

#### Metadata

| Field        | Value    |
|--------------|----------|
| Entrypoint   | 0x00C9   |
| Data Size    | 14 bytes |
| Instructions | 4        |

```
      00 01 02 03 04 05 06 07  08 09 0A 0B 0C 0D 0E 0F
      -- -- -- -- -- -- -- --  -- -- -- -- -- -- -- --
00C0:                             32 14 80 1F 00 1A 80           2......
00D0: 1B 80 0B 80 1F 01 00                              .......         
```

#### Opcodes

```
  0: 0x00C9 [0x32] ExtData[1]->MainSpeed = 13* * 0.1
  1: 0x00CC [0x1F] MOVE_ENTITY: EventEntity moves to X=523.456*, Z=-279.218*, Y=0.000*
  2: 0x00D4 [0x1F] MOVE_ENTITY: Update entity position (mode=1)
  3: 0x00D6 [0x00] END_REQSTACK()
```

### Event 65535.13

#### Metadata

| Field        | Value    |
|--------------|----------|
| Entrypoint   | 0x00D7   |
| Data Size    | 14 bytes |
| Instructions | 4        |

```
      00 01 02 03 04 05 06 07  08 09 0A 0B 0C 0D 0E 0F
      -- -- -- -- -- -- -- --  -- -- -- -- -- -- -- --
00D0:                      32  14 80 1F 00 1C 80 1D 80         2........
00E0: 1E 80 1F 01 00                                    .....           
```

#### Opcodes

```
  0: 0x00D7 [0x32] ExtData[1]->MainSpeed = 13* * 0.1
  1: 0x00DA [0x1F] MOVE_ENTITY: EventEntity moves to X=518.820*, Z=-286.375*, Y=-0.119*
  2: 0x00E2 [0x1F] MOVE_ENTITY: Update entity position (mode=1)
  3: 0x00E4 [0x00] END_REQSTACK()
```
