# 17339111 - kisiC

## Common Data

| Field            | Value                   |
|------------------|-------------------------|
| Zone             | Xarcabard [S] (ID: 137) |
| Block Size       | 524 bytes               |
| Total Events     | 19                      |
| References Count | 41                      |

## List of Events

| Event ID                   | Entrypoint   |   Size |   Instructions |
|----------------------------|--------------|--------|----------------|
| [65535](#event-65535)      | 0x0000       |      1 |              1 |
| [1](#event-1)              | 0x0001       |      1 |              1 |
| [65535.1](#event-655351)   | 0x0002       |     18 |              6 |
| [65535.2](#event-655352)   | 0x0014       |     20 |              6 |
| [7](#event-7)              | 0x0028       |      1 |              1 |
| [65535.3](#event-655353)   | 0x0029       |     15 |              5 |
| [65535.4](#event-655354)   | 0x0038       |     10 |              2 |
| [65535.5](#event-655355)   | 0x0042       |     10 |              2 |
| [65535.6](#event-655356)   | 0x004C       |     30 |              4 |
| [65535.7](#event-655357)   | 0x006A       |      7 |              2 |
| [65535.8](#event-655358)   | 0x0071       |     33 |              9 |
| [31](#event-31)            | 0x0092       |      1 |              1 |
| [17](#event-17)            | 0x0093       |      1 |              1 |
| [65535.9](#event-655359)   | 0x0094       |     26 |              3 |
| [65535.10](#event-6553510) | 0x00AE       |     21 |              2 |
| [65535.11](#event-6553511) | 0x00C3       |     21 |              2 |
| [65535.12](#event-6553512) | 0x00D8       |     21 |              2 |
| [65535.13](#event-6553513) | 0x00ED       |     14 |              4 |
| [65535.14](#event-6553514) | 0x00FB       |     14 |              4 |

## DAT References (imed_data)

|   Index | Hex Value   |   Dec Value |
|---------|-------------|-------------|
|       0 | 0x001E      |          30 |
|       1 | 0x0028      |          40 |
|       2 | 0x803A4     |      525220 |
|       3 | 0xFFFBAE23  |  4294684195 |
|       4 | 0x003B      |          59 |
|       5 | 0x816E7     |      530151 |
|       6 | 0xFFFBB847  |  4294686791 |
|       7 | 0x0131      |         305 |
|       8 | 0x0018      |          24 |
|       9 | 0x5336E     |      340846 |
|      10 | 0xFFFB2CAA  |  4294651050 |
|      11 | 0x00EA      |         234 |
|      12 | 0x0000      |           0 |
|      13 | 0x0001      |           1 |
|      14 | 0x0080      |         128 |
|      15 | 0x00B4      |         180 |
|      16 | 0x000A      |          10 |
|      17 | 0x807D3     |      526291 |
|      18 | 0xFFFBA654  |  4294682196 |
|      19 | 0x0039      |          57 |
|      20 | 0x005A      |          90 |
|      21 | 0x0002      |           2 |
|      22 | 0x0003      |           3 |
|      23 | 0x0004      |           4 |
|      24 | 0x000C      |          12 |
|      25 | 0x00D2      |         210 |
|      26 | 0x000B      |          11 |
|      27 | 0x00FB      |         251 |
|      28 | 0x0005      |           5 |
|      29 | 0x008F      |         143 |
|      30 | 0x0007      |           7 |
|      31 | 0x0089      |         137 |
|      32 | 0x0010      |          16 |
|      33 | 0x000E      |          14 |
|      34 | 0x000D      |          13 |
|      35 | 0x7FDAF     |      523695 |
|      36 | 0xFFFBC102  |  4294689026 |
|      37 | 0xFFFFFFF1  |  4294967281 |
|      38 | 0x7EEC3     |      519875 |
|      39 | 0xFFFBA576  |  4294681974 |
|      40 | 0xFFFFFFBE  |  4294967230 |

## Events

### Event 65535

#### Metadata

| Field        | Value   |
|--------------|---------|
| Entrypoint   | 0x0000  |
| Data Size    | 1 bytes |
| Instructions | 1       |

```
      00 01 02 03 04 05 06 07  08 09 0A 0B 0C 0D 0E 0F
      -- -- -- -- -- -- -- --  -- -- -- -- -- -- -- --
0000: 00                                                .               
```

#### Opcodes

```
  0: 0x0000 [0x00] END_REQSTACK()
```

### Event 1

#### Metadata

| Field        | Value   |
|--------------|---------|
| Entrypoint   | 0x0001  |
| Data Size    | 1 bytes |
| Instructions | 1       |

```
      00 01 02 03 04 05 06 07  08 09 0A 0B 0C 0D 0E 0F
      -- -- -- -- -- -- -- --  -- -- -- -- -- -- -- --
0000:    00                                              .              
```

#### Opcodes

```
  0: 0x0001 [0x00] END_REQSTACK()
```

### Event 65535.1

#### Metadata

| Field        | Value    |
|--------------|----------|
| Entrypoint   | 0x0002   |
| Data Size    | 18 bytes |
| Instructions | 6        |

```
      00 01 02 03 04 05 06 07  08 09 0A 0B 0C 0D 0E 0F
      -- -- -- -- -- -- -- --  -- -- -- -- -- -- -- --
0000:       1C 00 80 32 01 80  1F 00 02 80 03 80 04 80    ...2..........
0010: 1F 01 6F 00                                       ..o.            
```

#### Opcodes

```
  0: 0x0002 [0x1C] WAIT(30* ticks)
  1: 0x0005 [0x32] ExtData[1]->MainSpeed = 40* * 0.1
  2: 0x0008 [0x1F] MOVE_ENTITY: EventEntity moves to X=525.220*, Z=-283.101*, Y=0.059*
  3: 0x0010 [0x1F] MOVE_ENTITY: Update entity position (mode=1)
  4: 0x0012 [0x6F] WAIT_FRAME_DELAY: Yield until WaitTime reaches zero
  5: 0x0013 [0x00] END_REQSTACK()
```

### Event 65535.2

#### Metadata

| Field        | Value    |
|--------------|----------|
| Entrypoint   | 0x0014   |
| Data Size    | 20 bytes |
| Instructions | 6        |

```
      00 01 02 03 04 05 06 07  08 09 0A 0B 0C 0D 0E 0F
      -- -- -- -- -- -- -- --  -- -- -- -- -- -- -- --
0010:             32 01 80 1F  00 05 80 06 80 07 80 1F      2...........
0020: 01 6F 1E D8 92 08 01 00                           .o......        
```

#### Opcodes

```
  0: 0x0014 [0x32] ExtData[1]->MainSpeed = 40* * 0.1
  1: 0x0017 [0x1F] MOVE_ENTITY: EventEntity moves to X=530.151*, Z=-280.505*, Y=0.305*
  2: 0x001F [0x1F] MOVE_ENTITY: Update entity position (mode=1)
  3: 0x0021 [0x6F] WAIT_FRAME_DELAY: Yield until WaitTime reaches zero
  4: 0x0022 [0x1E] EventEntity looks at Jayramus (ID: 17339096/0x010892D8) and starts talking
  5: 0x0027 [0x00] END_REQSTACK()
```

### Event 7

#### Metadata

| Field        | Value   |
|--------------|---------|
| Entrypoint   | 0x0028  |
| Data Size    | 1 bytes |
| Instructions | 1       |

```
      00 01 02 03 04 05 06 07  08 09 0A 0B 0C 0D 0E 0F
      -- -- -- -- -- -- -- --  -- -- -- -- -- -- -- --
0020:                          00                               .       
```

#### Opcodes

```
  0: 0x0028 [0x00] END_REQSTACK()
```

### Event 65535.3

#### Metadata

| Field        | Value    |
|--------------|----------|
| Entrypoint   | 0x0029   |
| Data Size    | 15 bytes |
| Instructions | 5        |

```
      00 01 02 03 04 05 06 07  08 09 0A 0B 0C 0D 0E 0F
      -- -- -- -- -- -- -- --  -- -- -- -- -- -- -- --
0020:                             32 08 80 1F 00 09 80           2......
0030: 0A 80 0B 80 1F 01 6F 00                           ......o.        
```

#### Opcodes

```
  0: 0x0029 [0x32] ExtData[1]->MainSpeed = 24* * 0.1
  1: 0x002C [0x1F] MOVE_ENTITY: EventEntity moves to X=340.846*, Z=-316.246*, Y=0.234*
  2: 0x0034 [0x1F] MOVE_ENTITY: Update entity position (mode=1)
  3: 0x0036 [0x6F] WAIT_FRAME_DELAY: Yield until WaitTime reaches zero
  4: 0x0037 [0x00] END_REQSTACK()
```

### Event 65535.4

#### Metadata

| Field        | Value    |
|--------------|----------|
| Entrypoint   | 0x0038   |
| Data Size    | 10 bytes |
| Instructions | 2        |

```
      00 01 02 03 04 05 06 07  08 09 0A 0B 0C 0D 0E 0F
      -- -- -- -- -- -- -- --  -- -- -- -- -- -- -- --
0030:                          6C E7 92 08 01 0C 80 0D          l.......
0040: 80 00                                             ..              
```

#### Opcodes

```
  0: 0x0038 [0x6C] FADE_ENTITY_COLOR(entity_id=kisiC (ID: 17339111/0x010892E7), end_alpha=0*, fade_time=1*)
  1: 0x0041 [0x00] END_REQSTACK()
```

### Event 65535.5

#### Metadata

| Field        | Value    |
|--------------|----------|
| Entrypoint   | 0x0042   |
| Data Size    | 10 bytes |
| Instructions | 2        |

```
      00 01 02 03 04 05 06 07  08 09 0A 0B 0C 0D 0E 0F
      -- -- -- -- -- -- -- --  -- -- -- -- -- -- -- --
0040:       6C E7 92 08 01 0E  80 0D 80 00                l.........    
```

#### Opcodes

```
  0: 0x0042 [0x6C] FADE_ENTITY_COLOR(entity_id=kisiC (ID: 17339111/0x010892E7), end_alpha=128*, fade_time=1*)
  1: 0x004B [0x00] END_REQSTACK()
```

### Event 65535.6

#### Metadata

| Field        | Value    |
|--------------|----------|
| Entrypoint   | 0x004C   |
| Data Size    | 30 bytes |
| Instructions | 4        |

```
      00 01 02 03 04 05 06 07  08 09 0A 0B 0C 0D 0E 0F
      -- -- -- -- -- -- -- --  -- -- -- -- -- -- -- --
0040:                                      7E 06 F8 FF              ~...
0050: FF 7F 0D 80 0C 80 0D 80  0D 80 0D 80 0D 80 7E 04  ..............~.
0060: F8 FF FF 7F 80 F8 FF FF  7F 00                    ..........      
```

#### Opcodes

```
  0: 0x004C [0x7E] CHOCOBO_MOUNT: Mode 6 (custom mount) on EventEntity
  1: 0x005E [0x7E] CHOCOBO_MOUNT: Mode 4 on EventEntity
  2: 0x0064 [0x80] LOAD_WAIT(entity=EventEntity)
  3: 0x0069 [0x00] END_REQSTACK()
```

### Event 65535.7

#### Metadata

| Field        | Value   |
|--------------|---------|
| Entrypoint   | 0x006A  |
| Data Size    | 7 bytes |
| Instructions | 2       |

```
      00 01 02 03 04 05 06 07  08 09 0A 0B 0C 0D 0E 0F
      -- -- -- -- -- -- -- --  -- -- -- -- -- -- -- --
0060:                                7E 05 F8 FF FF 7F            ~.....
0070: 00                                                .               
```

#### Opcodes

```
  0: 0x006A [0x7E] CHOCOBO_MOUNT: Dismount EventEntity (status = 0)
  1: 0x0070 [0x00] END_REQSTACK()
```

### Event 65535.8

#### Metadata

| Field        | Value    |
|--------------|----------|
| Entrypoint   | 0x0071   |
| Data Size    | 33 bytes |
| Instructions | 9        |

```
      00 01 02 03 04 05 06 07  08 09 0A 0B 0C 0D 0E 0F
      -- -- -- -- -- -- -- --  -- -- -- -- -- -- -- --
0070:    1C 0F 80 32 10 80 1F  00 11 80 12 80 13 80 1F   ...2...........
0080: 01 6F 1C 14 80 6E E7 92  08 01 15 80 99 E7 92 08  .o...n..........
0090: 01 00                                             ..              
```

#### Opcodes

```
  0: 0x0071 [0x1C] WAIT(180* ticks)
  1: 0x0074 [0x32] ExtData[1]->MainSpeed = 10* * 0.1
  2: 0x0077 [0x1F] MOVE_ENTITY: EventEntity moves to X=526.291*, Z=-285.100*, Y=0.057*
  3: 0x007F [0x1F] MOVE_ENTITY: Update entity position (mode=1)
  4: 0x0081 [0x6F] WAIT_FRAME_DELAY: Yield until WaitTime reaches zero
  5: 0x0082 [0x1C] WAIT(90* ticks)
  6: 0x0085 [0x6E] kisiC (ID: 17339111/0x010892E7) uses emote 2*
  7: 0x008C [0x99] Wait for kisiC (ID: 17339111/0x010892E7) animation to complete
  8: 0x0091 [0x00] END_REQSTACK()
```

### Event 31

#### Metadata

| Field        | Value   |
|--------------|---------|
| Entrypoint   | 0x0092  |
| Data Size    | 1 bytes |
| Instructions | 1       |

```
      00 01 02 03 04 05 06 07  08 09 0A 0B 0C 0D 0E 0F
      -- -- -- -- -- -- -- --  -- -- -- -- -- -- -- --
0090:       00                                            .             
```

#### Opcodes

```
  0: 0x0092 [0x00] END_REQSTACK()
```

### Event 17

#### Metadata

| Field        | Value   |
|--------------|---------|
| Entrypoint   | 0x0093  |
| Data Size    | 1 bytes |
| Instructions | 1       |

```
      00 01 02 03 04 05 06 07  08 09 0A 0B 0C 0D 0E 0F
      -- -- -- -- -- -- -- --  -- -- -- -- -- -- -- --
0090:          00                                          .            
```

#### Opcodes

```
  0: 0x0093 [0x00] END_REQSTACK()
```

### Event 65535.9

#### Metadata

| Field        | Value    |
|--------------|----------|
| Entrypoint   | 0x0094   |
| Data Size    | 26 bytes |
| Instructions | 3        |

```
      00 01 02 03 04 05 06 07  08 09 0A 0B 0C 0D 0E 0F
      -- -- -- -- -- -- -- --  -- -- -- -- -- -- -- --
0090:             B6 0B 16 80  17 80 18 80 18 80 18 80      ............
00A0: 18 80 18 80 19 80 0C 80  80 E7 92 08 01 00        ..............  
```

#### Opcodes

```
  0: 0x0094 [0xB6] ENTITY_APPEARANCE_HANDLER(case=Full entity look, race=3*, hair=4*, head=12*, body=12*, hands=12*, legs=12*, feet=12*, main=210*, sub=0*)
  1: 0x00A8 [0x80] LOAD_WAIT(entity=kisiC (ID: 17339111/0x010892E7))
  2: 0x00AD [0x00] END_REQSTACK()
```

### Event 65535.10

#### Metadata

| Field        | Value    |
|--------------|----------|
| Entrypoint   | 0x00AE   |
| Data Size    | 21 bytes |
| Instructions | 2        |

```
      00 01 02 03 04 05 06 07  08 09 0A 0B 0C 0D 0E 0F
      -- -- -- -- -- -- -- --  -- -- -- -- -- -- -- --
00A0:                                            B6 0B                ..
00B0: 0D 80 1A 80 15 80 15 80  15 80 15 80 15 80 1B 80  ................
00C0: 0C 80 00                                          ...             
```

#### Opcodes

```
  0: 0x00AE [0xB6] ENTITY_APPEARANCE_HANDLER(case=Full entity look, race=1*, hair=11*, head=2*, body=2*, hands=2*, legs=2*, feet=2*, main=251*, sub=0*)
  1: 0x00C2 [0x00] END_REQSTACK()
```

### Event 65535.11

#### Metadata

| Field        | Value    |
|--------------|----------|
| Entrypoint   | 0x00C3   |
| Data Size    | 21 bytes |
| Instructions | 2        |

```
      00 01 02 03 04 05 06 07  08 09 0A 0B 0C 0D 0E 0F
      -- -- -- -- -- -- -- --  -- -- -- -- -- -- -- --
00C0:          B6 0B 1C 80 0C  80 1D 80 1D 80 1D 80 1D     .............
00D0: 80 1D 80 0C 80 0C 80 00                           ........        
```

#### Opcodes

```
  0: 0x00C3 [0xB6] ENTITY_APPEARANCE_HANDLER(case=Full entity look, race=5*, hair=0*, head=143*, body=143*, hands=143*, legs=143*, feet=143*, main=0*, sub=0*)
  1: 0x00D7 [0x00] END_REQSTACK()
```

### Event 65535.12

#### Metadata

| Field        | Value    |
|--------------|----------|
| Entrypoint   | 0x00D8   |
| Data Size    | 21 bytes |
| Instructions | 2        |

```
      00 01 02 03 04 05 06 07  08 09 0A 0B 0C 0D 0E 0F
      -- -- -- -- -- -- -- --  -- -- -- -- -- -- -- --
00D0:                          B6 0B 1E 80 1E 80 1F 80          ........
00E0: 20 80 20 80 21 80 22 80  1B 80 0C 80 00            . .!."......   
```

#### Opcodes

```
  0: 0x00D8 [0xB6] ENTITY_APPEARANCE_HANDLER(case=Full entity look, race=7*, hair=7*, head=137*, body=16*, hands=16*, legs=14*, feet=13*, main=251*, sub=0*)
  1: 0x00EC [0x00] END_REQSTACK()
```

### Event 65535.13

#### Metadata

| Field        | Value    |
|--------------|----------|
| Entrypoint   | 0x00ED   |
| Data Size    | 14 bytes |
| Instructions | 4        |

```
      00 01 02 03 04 05 06 07  08 09 0A 0B 0C 0D 0E 0F
      -- -- -- -- -- -- -- --  -- -- -- -- -- -- -- --
00E0:                                         32 22 80               2".
00F0: 1F 00 23 80 24 80 25 80  1F 01 00                 ..#.$.%....     
```

#### Opcodes

```
  0: 0x00ED [0x32] ExtData[1]->MainSpeed = 13* * 0.1
  1: 0x00F0 [0x1F] MOVE_ENTITY: EventEntity moves to X=523.695*, Z=-278.270*, Y=-0.015*
  2: 0x00F8 [0x1F] MOVE_ENTITY: Update entity position (mode=1)
  3: 0x00FA [0x00] END_REQSTACK()
```

### Event 65535.14

#### Metadata

| Field        | Value    |
|--------------|----------|
| Entrypoint   | 0x00FB   |
| Data Size    | 14 bytes |
| Instructions | 4        |

```
      00 01 02 03 04 05 06 07  08 09 0A 0B 0C 0D 0E 0F
      -- -- -- -- -- -- -- --  -- -- -- -- -- -- -- --
00F0:                                   32 22 80 1F 00             2"...
0100: 26 80 27 80 28 80 1F 01  00                       &.'.(....       
```

#### Opcodes

```
  0: 0x00FB [0x32] ExtData[1]->MainSpeed = 13* * 0.1
  1: 0x00FE [0x1F] MOVE_ENTITY: EventEntity moves to X=519.875*, Z=-285.322*, Y=-0.066*
  2: 0x0106 [0x1F] MOVE_ENTITY: Update entity position (mode=1)
  3: 0x0108 [0x00] END_REQSTACK()
```
