# 17339224 - Cait Sith

## Common Data

| Field            | Value                   |
|------------------|-------------------------|
| Zone             | Xarcabard [S] (ID: 137) |
| Block Size       | 744 bytes               |
| Total Events     | 30                      |
| References Count | 43                      |

## List of Events

| Event ID                   | Entrypoint   |   Size |   Instructions |
|----------------------------|--------------|--------|----------------|
| [65535](#event-65535)      | 0x0000       |      1 |              1 |
| [65535.1](#event-655351)   | 0x0001       |      1 |              1 |
| [65535.2](#event-655352)   | 0x0002       |     18 |              4 |
| [65535.3](#event-655353)   | 0x0014       |     10 |              2 |
| [65535.4](#event-655354)   | 0x001E       |      9 |              3 |
| [65535.5](#event-655355)   | 0x0027       |      9 |              3 |
| [65535.6](#event-655356)   | 0x0030       |     10 |              2 |
| [65535.7](#event-655357)   | 0x003A       |     10 |              2 |
| [65535.8](#event-655358)   | 0x0044       |     10 |              2 |
| [65535.9](#event-655359)   | 0x004E       |     10 |              2 |
| [65535.10](#event-6553510) | 0x0058       |     14 |              4 |
| [65535.11](#event-6553511) | 0x0066       |     14 |              4 |
| [65535.12](#event-6553512) | 0x0074       |     18 |              4 |
| [65535.13](#event-6553513) | 0x0086       |     14 |              4 |
| [65535.14](#event-6553514) | 0x0094       |     14 |              4 |
| [65535.15](#event-6553515) | 0x00A2       |     14 |              4 |
| [24](#event-24)            | 0x00B0       |      1 |              1 |
| [17](#event-17)            | 0x00B1       |      1 |              1 |
| [65535.16](#event-6553516) | 0x00B2       |      5 |              2 |
| [65535.17](#event-6553517) | 0x00B7       |      8 |              3 |
| [65535.18](#event-6553518) | 0x00BF       |      5 |              2 |
| [65535.19](#event-6553519) | 0x00C4       |      8 |              3 |
| [65535.20](#event-6553520) | 0x00CC       |     67 |             13 |
| [41](#event-41)            | 0x010F       |      7 |              2 |
| [65535.21](#event-6553521) | 0x0116       |     31 |              9 |
| [65535.22](#event-6553522) | 0x0135       |     22 |              6 |
| [65535.23](#event-6553523) | 0x014B       |     14 |              4 |
| [65535.24](#event-6553524) | 0x0159       |     15 |              5 |
| [65535.25](#event-6553525) | 0x0168       |     38 |              5 |
| [65535.26](#event-6553526) | 0x018E       |     38 |              5 |

## DAT References (imed_data)

|   Index | Hex Value   |   Dec Value |
|---------|-------------|-------------|
|       0 | 0x0000      |           0 |
|       1 | 0x0001      |           1 |
|       2 | 0x0080      |         128 |
|       3 | 0x0028      |          40 |
|       4 | 0x8A5A5     |      566693 |
|       5 | 0xFFFBDC0E  |  4294695950 |
|       6 | 0xFFFFFEE2  |  4294967010 |
|       7 | 0x000D      |          13 |
|       8 | 0x8AC60     |      568416 |
|       9 | 0xFFFBE117  |  4294697239 |
|      10 | 0xFFFFFF08  |  4294967048 |
|      11 | 0x8B780     |      571264 |
|      12 | 0xFFFBE9E1  |  4294699489 |
|      13 | 0xFFFFFF64  |  4294967140 |
|      14 | 0x0722      |        1826 |
|      15 | 0xFFF9963F  |  4294547007 |
|      16 | 0x01BE      |         446 |
|      17 | 0x270F      |        9999 |
|      18 | 0xFFF997C7  |  4294547399 |
|      19 | 0xFFFF8D07  |  4294937863 |
|      20 | 0x36AF      |       13999 |
|      21 | 0xFFFE7960  |  4294867296 |
|      22 | 0x0034      |          52 |
|      23 | 0x08CF      |        2255 |
|      24 | 0x02E4      |         740 |
|      25 | 0x08DF      |        2271 |
|      26 | 0x0003      |           3 |
|      27 | 0x0040      |          64 |
|      28 | 0x0800      |        2048 |
|      29 | 0xFFFE8D8F  |  4294872463 |
|      30 | 0xFFFF5F04  |  4294926084 |
|      31 | 0xFFFFA4E8  |  4294943976 |
|      32 | 0x001E      |          30 |
|      33 | 0xFFFE350B  |  4294849803 |
|      34 | 0xFFFF78AE  |  4294932654 |
|      35 | 0xFFFFA2E4  |  4294943460 |
|      36 | 0xFFFE366C  |  4294850156 |
|      37 | 0xFFFF80C0  |  4294934720 |
|      38 | 0xFFFFA3E7  |  4294943719 |
|      39 | 0xFFFE21C6  |  4294844870 |
|      40 | 0xFFFF98F6  |  4294940918 |
|      41 | 0xFFFFA9A0  |  4294945184 |
|      42 | 0x08F1      |        2289 |

## Events

### Event 65535

#### Metadata

| Field        | Value   |
|--------------|---------|
| Entrypoint   | 0x0000  |
| Data Size    | 1 bytes |
| Instructions | 1       |

```
      00 01 02 03 04 05 06 07  08 09 0A 0B 0C 0D 0E 0F
      -- -- -- -- -- -- -- --  -- -- -- -- -- -- -- --
0000: 00                                                .               
```

#### Opcodes

```
  0: 0x0000 [0x00] END_REQSTACK()
```

### Event 65535.1

#### Metadata

| Field        | Value   |
|--------------|---------|
| Entrypoint   | 0x0001  |
| Data Size    | 1 bytes |
| Instructions | 1       |

```
      00 01 02 03 04 05 06 07  08 09 0A 0B 0C 0D 0E 0F
      -- -- -- -- -- -- -- --  -- -- -- -- -- -- -- --
0000:    00                                              .              
```

#### Opcodes

```
  0: 0x0001 [0x00] END_REQSTACK()
```

### Event 65535.2

#### Metadata

| Field        | Value    |
|--------------|----------|
| Entrypoint   | 0x0002   |
| Data Size    | 18 bytes |
| Instructions | 4        |

```
      00 01 02 03 04 05 06 07  08 09 0A 0B 0C 0D 0E 0F
      -- -- -- -- -- -- -- --  -- -- -- -- -- -- -- --
0000:       22 00 2F 00 F8 FF  FF 7F 6C F8 FF FF 7F 00    "./.....l.....
0010: 80 01 80 00                                       ....            
```

#### Opcodes

```
  0: 0x0002 [0x22] ENTITY_HIDE_FLAG(enabled=0x00)
  1: 0x0004 [0x2F] EventEntity->Render.Flags0 &= ~0x80000 // Bit 19
  2: 0x000A [0x6C] FADE_ENTITY_COLOR(entity_id=EventEntity, end_alpha=0*, fade_time=1*)
  3: 0x0013 [0x00] END_REQSTACK()
```

### Event 65535.3

#### Metadata

| Field        | Value    |
|--------------|----------|
| Entrypoint   | 0x0014   |
| Data Size    | 10 bytes |
| Instructions | 2        |

```
      00 01 02 03 04 05 06 07  08 09 0A 0B 0C 0D 0E 0F
      -- -- -- -- -- -- -- --  -- -- -- -- -- -- -- --
0010:             6C F8 FF FF  7F 02 80 01 80 00            l.........  
```

#### Opcodes

```
  0: 0x0014 [0x6C] FADE_ENTITY_COLOR(entity_id=EventEntity, end_alpha=128*, fade_time=1*)
  1: 0x001D [0x00] END_REQSTACK()
```

### Event 65535.4

#### Metadata

| Field        | Value   |
|--------------|---------|
| Entrypoint   | 0x001E  |
| Data Size    | 9 bytes |
| Instructions | 3       |

```
      00 01 02 03 04 05 06 07  08 09 0A 0B 0C 0D 0E 0F
      -- -- -- -- -- -- -- --  -- -- -- -- -- -- -- --
0010:                                            22 00                ".
0020: 2F 00 F8 FF FF 7F 00                              /......         
```

#### Opcodes

```
  0: 0x001E [0x22] ENTITY_HIDE_FLAG(enabled=0x00)
  1: 0x0020 [0x2F] EventEntity->Render.Flags0 &= ~0x80000 // Bit 19
  2: 0x0026 [0x00] END_REQSTACK()
```

### Event 65535.5

#### Metadata

| Field        | Value   |
|--------------|---------|
| Entrypoint   | 0x0027  |
| Data Size    | 9 bytes |
| Instructions | 3       |

```
      00 01 02 03 04 05 06 07  08 09 0A 0B 0C 0D 0E 0F
      -- -- -- -- -- -- -- --  -- -- -- -- -- -- -- --
0020:                      22  01 2F 01 F8 FF FF 7F 00         "./......
```

#### Opcodes

```
  0: 0x0027 [0x22] ENTITY_HIDE_FLAG(enabled=0x01)
  1: 0x0029 [0x2F] EventEntity->Render.Flags0 |= 0x80000 // Bit 19
  2: 0x002F [0x00] END_REQSTACK()
```

### Event 65535.6

#### Metadata

| Field        | Value    |
|--------------|----------|
| Entrypoint   | 0x0030   |
| Data Size    | 10 bytes |
| Instructions | 2        |

```
      00 01 02 03 04 05 06 07  08 09 0A 0B 0C 0D 0E 0F
      -- -- -- -- -- -- -- --  -- -- -- -- -- -- -- --
0030: 6C F8 FF FF 7F 00 80 01  80 00                    l.........      
```

#### Opcodes

```
  0: 0x0030 [0x6C] FADE_ENTITY_COLOR(entity_id=EventEntity, end_alpha=0*, fade_time=1*)
  1: 0x0039 [0x00] END_REQSTACK()
```

### Event 65535.7

#### Metadata

| Field        | Value    |
|--------------|----------|
| Entrypoint   | 0x003A   |
| Data Size    | 10 bytes |
| Instructions | 2        |

```
      00 01 02 03 04 05 06 07  08 09 0A 0B 0C 0D 0E 0F
      -- -- -- -- -- -- -- --  -- -- -- -- -- -- -- --
0030:                                6C F8 FF FF 7F 02            l.....
0040: 80 01 80 00                                       ....            
```

#### Opcodes

```
  0: 0x003A [0x6C] FADE_ENTITY_COLOR(entity_id=EventEntity, end_alpha=128*, fade_time=1*)
  1: 0x0043 [0x00] END_REQSTACK()
```

### Event 65535.8

#### Metadata

| Field        | Value    |
|--------------|----------|
| Entrypoint   | 0x0044   |
| Data Size    | 10 bytes |
| Instructions | 2        |

```
      00 01 02 03 04 05 06 07  08 09 0A 0B 0C 0D 0E 0F
      -- -- -- -- -- -- -- --  -- -- -- -- -- -- -- --
0040:             6C 58 93 08  01 00 80 01 80 00            lX........  
```

#### Opcodes

```
  0: 0x0044 [0x6C] FADE_ENTITY_COLOR(entity_id=Cait Sith (ID: 17339224/0x01089358), end_alpha=0*, fade_time=1*)
  1: 0x004D [0x00] END_REQSTACK()
```

### Event 65535.9

#### Metadata

| Field        | Value    |
|--------------|----------|
| Entrypoint   | 0x004E   |
| Data Size    | 10 bytes |
| Instructions | 2        |

```
      00 01 02 03 04 05 06 07  08 09 0A 0B 0C 0D 0E 0F
      -- -- -- -- -- -- -- --  -- -- -- -- -- -- -- --
0040:                                            6C 58                lX
0050: 93 08 01 02 80 01 80 00                           ........        
```

#### Opcodes

```
  0: 0x004E [0x6C] FADE_ENTITY_COLOR(entity_id=Cait Sith (ID: 17339224/0x01089358), end_alpha=128*, fade_time=1*)
  1: 0x0057 [0x00] END_REQSTACK()
```

### Event 65535.10

#### Metadata

| Field        | Value    |
|--------------|----------|
| Entrypoint   | 0x0058   |
| Data Size    | 14 bytes |
| Instructions | 4        |

```
      00 01 02 03 04 05 06 07  08 09 0A 0B 0C 0D 0E 0F
      -- -- -- -- -- -- -- --  -- -- -- -- -- -- -- --
0050:                          32 03 80 1F 00 04 80 05          2.......
0060: 80 06 80 1F 01 00                                 ......          
```

#### Opcodes

```
  0: 0x0058 [0x32] ExtData[1]->MainSpeed = 40* * 0.1
  1: 0x005B [0x1F] MOVE_ENTITY: EventEntity moves to X=566.693*, Z=-271.346*, Y=-0.286*
  2: 0x0063 [0x1F] MOVE_ENTITY: Update entity position (mode=1)
  3: 0x0065 [0x00] END_REQSTACK()
```

### Event 65535.11

#### Metadata

| Field        | Value    |
|--------------|----------|
| Entrypoint   | 0x0066   |
| Data Size    | 14 bytes |
| Instructions | 4        |

```
      00 01 02 03 04 05 06 07  08 09 0A 0B 0C 0D 0E 0F
      -- -- -- -- -- -- -- --  -- -- -- -- -- -- -- --
0060:                   32 07  80 1F 00 08 80 09 80 0A        2.........
0070: 80 1F 01 00                                       ....            
```

#### Opcodes

```
  0: 0x0066 [0x32] ExtData[1]->MainSpeed = 13* * 0.1
  1: 0x0069 [0x1F] MOVE_ENTITY: EventEntity moves to X=568.416*, Z=-270.057*, Y=-0.248*
  2: 0x0071 [0x1F] MOVE_ENTITY: Update entity position (mode=1)
  3: 0x0073 [0x00] END_REQSTACK()
```

### Event 65535.12

#### Metadata

| Field        | Value    |
|--------------|----------|
| Entrypoint   | 0x0074   |
| Data Size    | 18 bytes |
| Instructions | 4        |

```
      00 01 02 03 04 05 06 07  08 09 0A 0B 0C 0D 0E 0F
      -- -- -- -- -- -- -- --  -- -- -- -- -- -- -- --
0070:             1F 00 0B 80  0C 80 0D 80 1F 01 4B 58      ..........KX
0080: 93 08 01 0E 80 00                                 ......          
```

#### Opcodes

```
  0: 0x0074 [0x1F] MOVE_ENTITY: EventEntity moves to X=571.264*, Z=-267.807*, Y=-0.156*
  1: 0x007C [0x1F] MOVE_ENTITY: Update entity position (mode=1)
  2: 0x007E [0x4B] UPDATE_ENTITY_YAW(entity=Cait Sith (ID: 17339224/0x01089358), yaw=10.0°*)
  3: 0x0085 [0x00] END_REQSTACK()
```

### Event 65535.13

#### Metadata

| Field        | Value    |
|--------------|----------|
| Entrypoint   | 0x0086   |
| Data Size    | 14 bytes |
| Instructions | 4        |

```
      00 01 02 03 04 05 06 07  08 09 0A 0B 0C 0D 0E 0F
      -- -- -- -- -- -- -- --  -- -- -- -- -- -- -- --
0080:                   32 07  80 5A 00 0F 80 10 80 11        2..Z......
0090: 80 5A 01 00                                       .Z..            
```

#### Opcodes

```
  0: 0x0086 [0x32] ExtData[1]->MainSpeed = 13* * 0.1
  1: 0x0089 [0x5A] UPDATE_EVENT_POSITION: Set EventEntity MovePosition to X=-420.289*, Z=0.446*, Y=9.999*
  2: 0x0091 [0x5A] UPDATE_EVENT_POSITION: Move EventEntity incrementally towards MovePosition
  3: 0x0093 [0x00] END_REQSTACK()
```

### Event 65535.14

#### Metadata

| Field        | Value    |
|--------------|----------|
| Entrypoint   | 0x0094   |
| Data Size    | 14 bytes |
| Instructions | 4        |

```
      00 01 02 03 04 05 06 07  08 09 0A 0B 0C 0D 0E 0F
      -- -- -- -- -- -- -- --  -- -- -- -- -- -- -- --
0090:             32 07 80 1F  00 12 80 13 80 14 80 1F      2...........
00A0: 01 00                                             ..              
```

#### Opcodes

```
  0: 0x0094 [0x32] ExtData[1]->MainSpeed = 13* * 0.1
  1: 0x0097 [0x1F] MOVE_ENTITY: EventEntity moves to X=-419.897*, Z=-29.433*, Y=13.999*
  2: 0x009F [0x1F] MOVE_ENTITY: Update entity position (mode=1)
  3: 0x00A1 [0x00] END_REQSTACK()
```

### Event 65535.15

#### Metadata

| Field        | Value    |
|--------------|----------|
| Entrypoint   | 0x00A2   |
| Data Size    | 14 bytes |
| Instructions | 4        |

```
      00 01 02 03 04 05 06 07  08 09 0A 0B 0C 0D 0E 0F
      -- -- -- -- -- -- -- --  -- -- -- -- -- -- -- --
00A0:       32 07 80 1F 00 12  80 15 80 14 80 1F 01 00    2.............
```

#### Opcodes

```
  0: 0x00A2 [0x32] ExtData[1]->MainSpeed = 13* * 0.1
  1: 0x00A5 [0x1F] MOVE_ENTITY: EventEntity moves to X=-419.897*, Z=-100.000*, Y=13.999*
  2: 0x00AD [0x1F] MOVE_ENTITY: Update entity position (mode=1)
  3: 0x00AF [0x00] END_REQSTACK()
```

### Event 24

#### Metadata

| Field        | Value   |
|--------------|---------|
| Entrypoint   | 0x00B0  |
| Data Size    | 1 bytes |
| Instructions | 1       |

```
      00 01 02 03 04 05 06 07  08 09 0A 0B 0C 0D 0E 0F
      -- -- -- -- -- -- -- --  -- -- -- -- -- -- -- --
00B0: 00                                                .               
```

#### Opcodes

```
  0: 0x00B0 [0x00] END_REQSTACK()
```

### Event 17

#### Metadata

| Field        | Value   |
|--------------|---------|
| Entrypoint   | 0x00B1  |
| Data Size    | 1 bytes |
| Instructions | 1       |

```
      00 01 02 03 04 05 06 07  08 09 0A 0B 0C 0D 0E 0F
      -- -- -- -- -- -- -- --  -- -- -- -- -- -- -- --
00B0:    00                                              .              
```

#### Opcodes

```
  0: 0x00B1 [0x00] END_REQSTACK()
```

### Event 65535.16

#### Metadata

| Field        | Value   |
|--------------|---------|
| Entrypoint   | 0x00B2  |
| Data Size    | 5 bytes |
| Instructions | 2       |

```
      00 01 02 03 04 05 06 07  08 09 0A 0B 0C 0D 0E 0F
      -- -- -- -- -- -- -- --  -- -- -- -- -- -- -- --
00B0:       B6 00 16 80 00                                .....         
```

#### Opcodes

```
  0: 0x00B2 [0xB6] ENTITY_APPEARANCE_HANDLER(case=Hair style, value=52*)
  1: 0x00B6 [0x00] END_REQSTACK()
```

### Event 65535.17

#### Metadata

| Field        | Value   |
|--------------|---------|
| Entrypoint   | 0x00B7  |
| Data Size    | 8 bytes |
| Instructions | 3       |

```
      00 01 02 03 04 05 06 07  08 09 0A 0B 0C 0D 0E 0F
      -- -- -- -- -- -- -- --  -- -- -- -- -- -- -- --
00B0:                      B6  00 17 80 C0 00 80 00            ........ 
```

#### Opcodes

```
  0: 0x00B7 [0xB6] ENTITY_APPEARANCE_HANDLER(case=Hair style, value=2255*)
  1: 0x00BB [0xC0] EventEntity->Render.Flags3 &= ~0x1000 // Clear bit 12 (from 0*)
  2: 0x00BE [0x00] END_REQSTACK()
```

### Event 65535.18

#### Metadata

| Field        | Value   |
|--------------|---------|
| Entrypoint   | 0x00BF  |
| Data Size    | 5 bytes |
| Instructions | 2       |

```
      00 01 02 03 04 05 06 07  08 09 0A 0B 0C 0D 0E 0F
      -- -- -- -- -- -- -- --  -- -- -- -- -- -- -- --
00B0:                                               B6                 .
00C0: 00 18 80 00                                       ....            
```

#### Opcodes

```
  0: 0x00BF [0xB6] ENTITY_APPEARANCE_HANDLER(case=Hair style, value=740*)
  1: 0x00C3 [0x00] END_REQSTACK()
```

### Event 65535.19

#### Metadata

| Field        | Value   |
|--------------|---------|
| Entrypoint   | 0x00C4  |
| Data Size    | 8 bytes |
| Instructions | 3       |

```
      00 01 02 03 04 05 06 07  08 09 0A 0B 0C 0D 0E 0F
      -- -- -- -- -- -- -- --  -- -- -- -- -- -- -- --
00C0:             B6 00 19 80  C0 01 80 00                  ........    
```

#### Opcodes

```
  0: 0x00C4 [0xB6] ENTITY_APPEARANCE_HANDLER(case=Hair style, value=2271*)
  1: 0x00C8 [0xC0] EventEntity->Render.Flags3 |= 0x1000 // Set bit 12 (from 1*)
  2: 0x00CB [0x00] END_REQSTACK()
```

### Event 65535.20

#### Metadata

| Field        | Value    |
|--------------|----------|
| Entrypoint   | 0x00CC   |
| Data Size    | 67 bytes |
| Instructions | 10       |

```
      00 01 02 03 04 05 06 07  08 09 0A 0B 0C 0D 0E 0F
      -- -- -- -- -- -- -- --  -- -- -- -- -- -- -- --
00C0:                                      33 01 3B F8              3.;.
00D0: FF FF 7F 00 00 01 00 02  00 06 05 00 16 04 00 05  ................
00E0: 00 1A 80 07 02 00 04 00  3A F8 FF FF 7F 03 00 37  ........:......7
00F0: 00 00 01 00 02 00 03 00  07 05 00 1B 80 1C 01 80  ................
0100: 01 DC 00 02 05 00 1C 80  04 0E 01 06 05 00 00     ............... 
```

#### Opcodes

```
  0: 0x00CC [0x33] EventEntity->Render.Flags0 |= 0x200000 // Bit 21 (flag=0x01)
  1: 0x00CE [0x3B] GET_ENTITY_POSITION(entity=EventEntity, x_destination=ExtData[1]->WorkLocal[0], y_destination=ExtData[1]->WorkLocal[1], z_destination=ExtData[1]->WorkLocal[2])
  2: 0x00D9 [0x06] ExtData[1]->WorkLocal[5] = 0
  3: 0x00DC [0x16] ExtData[1]->WorkLocal[4] = sin(ExtData[1]->WorkLocal[5]) * 3*
  4: 0x00E3 [0x07] ExtData[1]->WorkLocal[2] += ExtData[1]->WorkLocal[4]
  5: 0x00E8 [0x3A] CONVERT_YAW_TO_BYTE(entity=EventEntity, result_destination=ExtData[1]->WorkLocal[3])
  6: 0x00EF [0x37] UPDATE_EVENT_POSITION_AND_DIR: x=ExtData[1]->WorkLocal[0], z=ExtData[1]->WorkLocal[1], y=ExtData[1]->WorkLocal[2], direction=ExtData[1]->WorkLocal[3]
  7: 0x00F8 [0x07] ExtData[1]->WorkLocal[5] += 64*
  8: 0x00FD [0x1C] WAIT(1* ticks)
  9: 0x0100 [0x01] GOTO 0x00DC
```

#### Data or dead code:

```
# Dead code (unreachable instructions):
     0x0103 [0x02] IF !(ExtData[1]->WorkLocal[5] < 2048*) GOTO 0x010E
     0x010B [0x06] ExtData[1]->WorkLocal[5] = 0
     0x010E [0x00] END_REQSTACK()
```

### Event 41

#### Metadata

| Field        | Value   |
|--------------|---------|
| Entrypoint   | 0x010F  |
| Data Size    | 7 bytes |
| Instructions | 2       |

```
      00 01 02 03 04 05 06 07  08 09 0A 0B 0C 0D 0E 0F
      -- -- -- -- -- -- -- --  -- -- -- -- -- -- -- --
0100:                                               92                 .
0110: 01 F8 FF FF 7F 00                                 ......          
```

#### Opcodes

```
  0: 0x010F [0x92] EventEntity->Render.Flags3 ^= 0x01
  1: 0x0115 [0x00] END_REQSTACK()
```

### Event 65535.21

#### Metadata

| Field        | Value    |
|--------------|----------|
| Entrypoint   | 0x0116   |
| Data Size    | 31 bytes |
| Instructions | 9        |

```
      00 01 02 03 04 05 06 07  08 09 0A 0B 0C 0D 0E 0F
      -- -- -- -- -- -- -- --  -- -- -- -- -- -- -- --
0110:                   32 03  80 1F 00 1D 80 1E 80 1F        2.........
0120: 80 1F 01 6F 1E 4F 93 08  01 1C 20 80 1E 77 93 08  ...o.O.... ..w..
0130: 01 1C 20 80 00                                    .. ..           
```

#### Opcodes

```
  0: 0x0116 [0x32] ExtData[1]->MainSpeed = 40* * 0.1
  1: 0x0119 [0x1F] MOVE_ENTITY: EventEntity moves to X=-94.833*, Z=-41.212*, Y=-23.320*
  2: 0x0121 [0x1F] MOVE_ENTITY: Update entity position (mode=1)
  3: 0x0123 [0x6F] WAIT_FRAME_DELAY: Yield until WaitTime reaches zero
  4: 0x0124 [0x1E] EventEntity looks at Unnamed NPC (ID: 17339215/0x0108934F) and starts talking
  5: 0x0129 [0x1C] WAIT(30* ticks)
  6: 0x012C [0x1E] EventEntity looks at Larzos (ID: 17339255/0x01089377) and starts talking
  7: 0x0131 [0x1C] WAIT(30* ticks)
  8: 0x0134 [0x00] END_REQSTACK()
```

### Event 65535.22

#### Metadata

| Field        | Value    |
|--------------|----------|
| Entrypoint   | 0x0135   |
| Data Size    | 22 bytes |
| Instructions | 6        |

```
      00 01 02 03 04 05 06 07  08 09 0A 0B 0C 0D 0E 0F
      -- -- -- -- -- -- -- --  -- -- -- -- -- -- -- --
0130:                32 03 80  1F 00 21 80 22 80 23 80       2....!.".#.
0140: 1F 01 1E 4F 93 08 01 1C  20 80 00                 ...O.... ..     
```

#### Opcodes

```
  0: 0x0135 [0x32] ExtData[1]->MainSpeed = 40* * 0.1
  1: 0x0138 [0x1F] MOVE_ENTITY: EventEntity moves to X=-117.493*, Z=-34.642*, Y=-23.836*
  2: 0x0140 [0x1F] MOVE_ENTITY: Update entity position (mode=1)
  3: 0x0142 [0x1E] EventEntity looks at Unnamed NPC (ID: 17339215/0x0108934F) and starts talking
  4: 0x0147 [0x1C] WAIT(30* ticks)
  5: 0x014A [0x00] END_REQSTACK()
```

### Event 65535.23

#### Metadata

| Field        | Value    |
|--------------|----------|
| Entrypoint   | 0x014B   |
| Data Size    | 14 bytes |
| Instructions | 4        |

```
      00 01 02 03 04 05 06 07  08 09 0A 0B 0C 0D 0E 0F
      -- -- -- -- -- -- -- --  -- -- -- -- -- -- -- --
0140:                                   32 07 80 1F 00             2....
0150: 24 80 25 80 26 80 1F 01  00                       $.%.&....       
```

#### Opcodes

```
  0: 0x014B [0x32] ExtData[1]->MainSpeed = 13* * 0.1
  1: 0x014E [0x1F] MOVE_ENTITY: EventEntity moves to X=-117.140*, Z=-32.576*, Y=-23.577*
  2: 0x0156 [0x1F] MOVE_ENTITY: Update entity position (mode=1)
  3: 0x0158 [0x00] END_REQSTACK()
```

### Event 65535.24

#### Metadata

| Field        | Value    |
|--------------|----------|
| Entrypoint   | 0x0159   |
| Data Size    | 15 bytes |
| Instructions | 5        |

```
      00 01 02 03 04 05 06 07  08 09 0A 0B 0C 0D 0E 0F
      -- -- -- -- -- -- -- --  -- -- -- -- -- -- -- --
0150:                             32 07 80 1F 00 27 80           2....'.
0160: 28 80 29 80 1F 01 6F 00                           (.)...o.        
```

#### Opcodes

```
  0: 0x0159 [0x32] ExtData[1]->MainSpeed = 13* * 0.1
  1: 0x015C [0x1F] MOVE_ENTITY: EventEntity moves to X=-122.426*, Z=-26.378*, Y=-22.112*
  2: 0x0164 [0x1F] MOVE_ENTITY: Update entity position (mode=1)
  3: 0x0166 [0x6F] WAIT_FRAME_DELAY: Yield until WaitTime reaches zero
  4: 0x0167 [0x00] END_REQSTACK()
```

### Event 65535.25

#### Metadata

| Field        | Value    |
|--------------|----------|
| Entrypoint   | 0x0168   |
| Data Size    | 38 bytes |
| Instructions | 5        |

```
      00 01 02 03 04 05 06 07  08 09 0A 0B 0C 0D 0E 0F
      -- -- -- -- -- -- -- --  -- -- -- -- -- -- -- --
0160:                          B6 00 2A 80 B4 13 06 00          ..*.....
0170: 4C 61 64 79 40 4C 69 6C  69 74 68 00 00 00 00 00  Lady@Lilith.....
0180: B5 00 06 00 6C F8 FF FF  7F 00 80 01 80 00        ....l.........  
```

#### Opcodes

```
  0: 0x0168 [0xB6] ENTITY_APPEARANCE_HANDLER(case=Hair style, value=2289*)
  1: 0x016C [0xB4] UI_WINDOW_STRING_HANDLER(case=0x13 - Copy string and replace @ with space, work_offset=ExtData[1]->WorkLocal[6], string="Lady@Lilith")
  2: 0x0180 [0xB5] SET_EVENT_ENTITY_NAME: Change EventEntity name to ExtData[1]->WorkLocal[6]
  3: 0x0184 [0x6C] FADE_ENTITY_COLOR(entity_id=EventEntity, end_alpha=0*, fade_time=1*)
  4: 0x018D [0x00] END_REQSTACK()
```

### Event 65535.26

#### Metadata

| Field        | Value    |
|--------------|----------|
| Entrypoint   | 0x018E   |
| Data Size    | 38 bytes |
| Instructions | 5        |

```
      00 01 02 03 04 05 06 07  08 09 0A 0B 0C 0D 0E 0F
      -- -- -- -- -- -- -- --  -- -- -- -- -- -- -- --
0180:                                            B6 00                ..
0190: 17 80 B4 13 06 00 43 61  69 74 40 53 69 74 68 00  ......Cait@Sith.
01A0: 00 00 00 00 00 00 B5 00  06 00 6C F8 FF FF 7F 02  ..........l.....
01B0: 80 01 80 00                                       ....            
```

#### Opcodes

```
  0: 0x018E [0xB6] ENTITY_APPEARANCE_HANDLER(case=Hair style, value=2255*)
  1: 0x0192 [0xB4] UI_WINDOW_STRING_HANDLER(case=0x13 - Copy string and replace @ with space, work_offset=ExtData[1]->WorkLocal[6], string="Cait@Sith")
  2: 0x01A6 [0xB5] SET_EVENT_ENTITY_NAME: Change EventEntity name to ExtData[1]->WorkLocal[6]
  3: 0x01AA [0x6C] FADE_ENTITY_COLOR(entity_id=EventEntity, end_alpha=128*, fade_time=1*)
  4: 0x01B3 [0x00] END_REQSTACK()
```
