# 17339072

## Common Data

| Field            | Value                   |
|------------------|-------------------------|
| Zone             | Xarcabard [S] (ID: 137) |
| Block Size       | 1080 bytes              |
| Total Events     | 16                      |
| References Count | 44                      |

## List of Events

| Event ID                   | Entrypoint   |   Size |   Instructions |
|----------------------------|--------------|--------|----------------|
| [65535](#event-65535)      | 0x0000       |      1 |              1 |
| [65535.1](#event-655351)   | 0x0001       |     18 |              4 |
| [65535.2](#event-655352)   | 0x0013       |     10 |              2 |
| [65535.3](#event-655353)   | 0x001D       |      9 |              3 |
| [65535.4](#event-655354)   | 0x0026       |      9 |              3 |
| [65535.5](#event-655355)   | 0x002F       |     10 |              2 |
| [65535.6](#event-655356)   | 0x0039       |     10 |              2 |
| [4](#event-4)              | 0x0043       |      1 |              1 |
| [6](#event-6)              | 0x0044       |      1 |              1 |
| [65535.7](#event-655357)   | 0x0045       |     55 |              7 |
| [65535.8](#event-655358)   | 0x007C       |     55 |              7 |
| [65535.9](#event-655359)   | 0x00B3       |    181 |             17 |
| [65535.10](#event-6553510) | 0x0168       |    227 |             23 |
| [65535.11](#event-6553511) | 0x024B       |    118 |             12 |
| [65535.12](#event-6553512) | 0x02C1       |    118 |             12 |

## DAT References (imed_data)

|   Index | Hex Value   |   Dec Value |
|---------|-------------|-------------|
|       0 | 0x0000      |           0 |
|       1 | 0x0001      |           1 |
|       2 | 0x0080      |         128 |
|       3 | 0x0B60      |        2912 |
|       4 | 0x0599      |        1433 |
|       5 | 0x0005      |           5 |
|       6 | 0x000A      |          10 |
|       7 | 0xF800      |       63488 |
|       8 | 0x4D189     |      315785 |
|       9 | 0x0284      |         644 |
|      10 | 0x06EB      |        1771 |
|      11 | 0xEDED      |       60909 |
|      12 | 0x4CDFC     |      314876 |
|      13 | 0x0119      |         281 |
|      14 | 0x0CB0      |        3248 |
|      15 | 0xF1D9      |       61913 |
|      16 | 0x4F254     |      324180 |
|      17 | 0x0350      |         848 |
|      18 | 0x05C1      |        1473 |
|      19 | 0xE6CC      |       59084 |
|      20 | 0x4EA80     |      322176 |
|      21 | 0x0244      |         580 |
|      22 | 0xDBFB      |       56315 |
|      23 | 0x4D930     |      317744 |
|      24 | 0x023B      |         571 |
|      25 | 0x0DF8      |        3576 |
|      26 | 0xCF4A      |       53066 |
|      27 | 0x4DE89     |      319113 |
|      28 | 0x03E7      |         999 |
|      29 | 0xF3E1      |       62433 |
|      30 | 0x4AFA1     |      307105 |
|      31 | 0xFFFFFEDB  |  4294967003 |
|      32 | 0x09F7      |        2551 |
|      33 | 0xE820      |       59424 |
|      34 | 0x4AB5D     |      306013 |
|      35 | 0xFFFFFDDA  |  4294966746 |
|      36 | 0x0E06      |        3590 |
|      37 | 0xDF73      |       57203 |
|      38 | 0x4BCE1     |      310497 |
|      39 | 0xFFFFFEFE  |  4294967038 |
|      40 | 0xD4A9      |       54441 |
|      41 | 0x4BBE9     |      310249 |
|      42 | 0x001D      |          29 |
|      43 | 0x0515      |        1301 |

## Events

### Event 65535

#### Metadata

| Field        | Value   |
|--------------|---------|
| Entrypoint   | 0x0000  |
| Data Size    | 1 bytes |
| Instructions | 1       |

```
      00 01 02 03 04 05 06 07  08 09 0A 0B 0C 0D 0E 0F
      -- -- -- -- -- -- -- --  -- -- -- -- -- -- -- --
0000: 00                                                .               
```

#### Opcodes

```
  0: 0x0000 [0x00] END_REQSTACK()
```

### Event 65535.1

#### Metadata

| Field        | Value    |
|--------------|----------|
| Entrypoint   | 0x0001   |
| Data Size    | 18 bytes |
| Instructions | 4        |

```
      00 01 02 03 04 05 06 07  08 09 0A 0B 0C 0D 0E 0F
      -- -- -- -- -- -- -- --  -- -- -- -- -- -- -- --
0000:    22 00 2F 00 F8 FF FF  7F 6C F8 FF FF 7F 00 80   "./.....l......
0010: 01 80 00                                          ...             
```

#### Opcodes

```
  0: 0x0001 [0x22] ENTITY_HIDE_FLAG(enabled=0x00)
  1: 0x0003 [0x2F] EventEntity->Render.Flags0 &= ~0x80000 // Bit 19
  2: 0x0009 [0x6C] FADE_ENTITY_COLOR(entity_id=EventEntity, end_alpha=0*, fade_time=1*)
  3: 0x0012 [0x00] END_REQSTACK()
```

### Event 65535.2

#### Metadata

| Field        | Value    |
|--------------|----------|
| Entrypoint   | 0x0013   |
| Data Size    | 10 bytes |
| Instructions | 2        |

```
      00 01 02 03 04 05 06 07  08 09 0A 0B 0C 0D 0E 0F
      -- -- -- -- -- -- -- --  -- -- -- -- -- -- -- --
0010:          6C F8 FF FF 7F  02 80 01 80 00              l.........   
```

#### Opcodes

```
  0: 0x0013 [0x6C] FADE_ENTITY_COLOR(entity_id=EventEntity, end_alpha=128*, fade_time=1*)
  1: 0x001C [0x00] END_REQSTACK()
```

### Event 65535.3

#### Metadata

| Field        | Value   |
|--------------|---------|
| Entrypoint   | 0x001D  |
| Data Size    | 9 bytes |
| Instructions | 3       |

```
      00 01 02 03 04 05 06 07  08 09 0A 0B 0C 0D 0E 0F
      -- -- -- -- -- -- -- --  -- -- -- -- -- -- -- --
0010:                                         22 00 2F               "./
0020: 00 F8 FF FF 7F 00                                 ......          
```

#### Opcodes

```
  0: 0x001D [0x22] ENTITY_HIDE_FLAG(enabled=0x00)
  1: 0x001F [0x2F] EventEntity->Render.Flags0 &= ~0x80000 // Bit 19
  2: 0x0025 [0x00] END_REQSTACK()
```

### Event 65535.4

#### Metadata

| Field        | Value   |
|--------------|---------|
| Entrypoint   | 0x0026  |
| Data Size    | 9 bytes |
| Instructions | 3       |

```
      00 01 02 03 04 05 06 07  08 09 0A 0B 0C 0D 0E 0F
      -- -- -- -- -- -- -- --  -- -- -- -- -- -- -- --
0020:                   22 01  2F 01 F8 FF FF 7F 00           "./...... 
```

#### Opcodes

```
  0: 0x0026 [0x22] ENTITY_HIDE_FLAG(enabled=0x01)
  1: 0x0028 [0x2F] EventEntity->Render.Flags0 |= 0x80000 // Bit 19
  2: 0x002E [0x00] END_REQSTACK()
```

### Event 65535.5

#### Metadata

| Field        | Value    |
|--------------|----------|
| Entrypoint   | 0x002F   |
| Data Size    | 10 bytes |
| Instructions | 2        |

```
      00 01 02 03 04 05 06 07  08 09 0A 0B 0C 0D 0E 0F
      -- -- -- -- -- -- -- --  -- -- -- -- -- -- -- --
0020:                                               6C                 l
0030: F8 FF FF 7F 00 80 01 80  00                       .........       
```

#### Opcodes

```
  0: 0x002F [0x6C] FADE_ENTITY_COLOR(entity_id=EventEntity, end_alpha=0*, fade_time=1*)
  1: 0x0038 [0x00] END_REQSTACK()
```

### Event 65535.6

#### Metadata

| Field        | Value    |
|--------------|----------|
| Entrypoint   | 0x0039   |
| Data Size    | 10 bytes |
| Instructions | 2        |

```
      00 01 02 03 04 05 06 07  08 09 0A 0B 0C 0D 0E 0F
      -- -- -- -- -- -- -- --  -- -- -- -- -- -- -- --
0030:                             6C F8 FF FF 7F 02 80           l......
0040: 01 80 00                                          ...             
```

#### Opcodes

```
  0: 0x0039 [0x6C] FADE_ENTITY_COLOR(entity_id=EventEntity, end_alpha=128*, fade_time=1*)
  1: 0x0042 [0x00] END_REQSTACK()
```

### Event 4

#### Metadata

| Field        | Value   |
|--------------|---------|
| Entrypoint   | 0x0043  |
| Data Size    | 1 bytes |
| Instructions | 1       |

```
      00 01 02 03 04 05 06 07  08 09 0A 0B 0C 0D 0E 0F
      -- -- -- -- -- -- -- --  -- -- -- -- -- -- -- --
0040:          00                                          .            
```

#### Opcodes

```
  0: 0x0043 [0x00] END_REQSTACK()
```

### Event 6

#### Metadata

| Field        | Value   |
|--------------|---------|
| Entrypoint   | 0x0044  |
| Data Size    | 1 bytes |
| Instructions | 1       |

```
      00 01 02 03 04 05 06 07  08 09 0A 0B 0C 0D 0E 0F
      -- -- -- -- -- -- -- --  -- -- -- -- -- -- -- --
0040:             00                                        .           
```

#### Opcodes

```
  0: 0x0044 [0x00] END_REQSTACK()
```

### Event 65535.7

#### Metadata

| Field        | Value    |
|--------------|----------|
| Entrypoint   | 0x0045   |
| Data Size    | 55 bytes |
| Instructions | 7        |

```
      00 01 02 03 04 05 06 07  08 09 0A 0B 0C 0D 0E 0F
      -- -- -- -- -- -- -- --  -- -- -- -- -- -- -- --
0040:                6C B9 92  08 01 00 80 01 80 6C BA       l........l.
0050: 92 08 01 00 80 01 80 6C  BB 92 08 01 00 80 01 80  .......l........
0060: 6C BC 92 08 01 00 80 01  80 6C BD 92 08 01 00 80  l........l......
0070: 01 80 6C BE 92 08 01 00  80 01 80 00              ..l.........    
```

#### Opcodes

```
  0: 0x0045 [0x6C] FADE_ENTITY_COLOR(entity_id=onoA (ID: 17339065/0x010892B9), end_alpha=0*, fade_time=1*)
  1: 0x004E [0x6C] FADE_ENTITY_COLOR(entity_id=Gorakbok (ID: 17339066/0x010892BA), end_alpha=0*, fade_time=1*)
  2: 0x0057 [0x6C] FADE_ENTITY_COLOR(entity_id=Voshekglok (ID: 17339067/0x010892BB), end_alpha=0*, fade_time=1*)
  3: 0x0060 [0x6C] FADE_ENTITY_COLOR(entity_id=tueA (ID: 17339068/0x010892BC), end_alpha=0*, fade_time=1*)
  4: 0x0069 [0x6C] FADE_ENTITY_COLOR(entity_id=tueB (ID: 17339069/0x010892BD), end_alpha=0*, fade_time=1*)
  5: 0x0072 [0x6C] FADE_ENTITY_COLOR(entity_id=tueC (ID: 17339070/0x010892BE), end_alpha=0*, fade_time=1*)
  6: 0x007B [0x00] END_REQSTACK()
```

### Event 65535.8

#### Metadata

| Field        | Value    |
|--------------|----------|
| Entrypoint   | 0x007C   |
| Data Size    | 55 bytes |
| Instructions | 7        |

```
      00 01 02 03 04 05 06 07  08 09 0A 0B 0C 0D 0E 0F
      -- -- -- -- -- -- -- --  -- -- -- -- -- -- -- --
0070:                                      6C B9 92 08              l...
0080: 01 02 80 01 80 6C BA 92  08 01 02 80 01 80 6C BB  .....l........l.
0090: 92 08 01 02 80 01 80 6C  BC 92 08 01 02 80 01 80  .......l........
00A0: 6C BD 92 08 01 02 80 01  80 6C BE 92 08 01 02 80  l........l......
00B0: 01 80 00                                          ...             
```

#### Opcodes

```
  0: 0x007C [0x6C] FADE_ENTITY_COLOR(entity_id=onoA (ID: 17339065/0x010892B9), end_alpha=128*, fade_time=1*)
  1: 0x0085 [0x6C] FADE_ENTITY_COLOR(entity_id=Gorakbok (ID: 17339066/0x010892BA), end_alpha=128*, fade_time=1*)
  2: 0x008E [0x6C] FADE_ENTITY_COLOR(entity_id=Voshekglok (ID: 17339067/0x010892BB), end_alpha=128*, fade_time=1*)
  3: 0x0097 [0x6C] FADE_ENTITY_COLOR(entity_id=tueA (ID: 17339068/0x010892BC), end_alpha=128*, fade_time=1*)
  4: 0x00A0 [0x6C] FADE_ENTITY_COLOR(entity_id=tueB (ID: 17339069/0x010892BD), end_alpha=128*, fade_time=1*)
  5: 0x00A9 [0x6C] FADE_ENTITY_COLOR(entity_id=tueC (ID: 17339070/0x010892BE), end_alpha=128*, fade_time=1*)
  6: 0x00B2 [0x00] END_REQSTACK()
```

### Event 65535.9

#### Metadata

| Field        | Value     |
|--------------|-----------|
| Entrypoint   | 0x00B3    |
| Data Size    | 181 bytes |
| Instructions | 17        |

```
      00 01 02 03 04 05 06 07  08 09 0A 0B 0C 0D 0E 0F
      -- -- -- -- -- -- -- --  -- -- -- -- -- -- -- --
00B0:          5B 03 80 D8 92  08 01 D8 92 08 01 79 62     [..........yb
00C0: 74 6C 5B 04 80 B9 92 08  01 B9 92 08 01 63 6F 6D  tl[..........com
00D0: 30 1C 05 80 5B 03 80 B4  92 08 01 B4 92 08 01 79  0...[..........y
00E0: 62 74 6C 5B 04 80 BD 92  08 01 BD 92 08 01 63 6F  btl[..........co
00F0: 6D 30 1C 06 80 5B 03 80  B5 92 08 01 B5 92 08 01  m0...[..........
0100: 79 62 74 6C 5B 04 80 BA  92 08 01 BA 92 08 01 63  ybtl[..........c
0110: 6F 6D 30 1C 05 80 5B 03  80 B6 92 08 01 B6 92 08  om0...[.........
0120: 01 79 62 74 6C 5B 04 80  BC 92 08 01 BC 92 08 01  .ybtl[..........
0130: 63 6F 6D 30 1C 06 80 5B  03 80 B7 92 08 01 B7 92  com0...[........
0140: 08 01 79 62 74 6C 5B 04  80 BB 92 08 01 BB 92 08  ..ybtl[.........
0150: 01 63 6F 6D 30 1C 05 80  5B 03 80 B8 92 08 01 B8  .com0...[.......
0160: 92 08 01 79 62 74 6C 00                           ...ybtl.        
```

#### Opcodes

```
  0: 0x00B3 [0x5B] LOAD_EXT_SCHEDULER: Load scheduler "ybtl" with entities [Jayramus (ID: 17339096/0x010892D8), Jayramus (ID: 17339096/0x010892D8)], work=2912*
  1: 0x00C2 [0x5B] LOAD_EXT_SCHEDULER: Load scheduler "com0" with entities [onoA (ID: 17339065/0x010892B9), onoA (ID: 17339065/0x010892B9)], work=1433*
  2: 0x00D1 [0x1C] WAIT(5* ticks)
  3: 0x00D4 [0x5B] LOAD_EXT_SCHEDULER: Load scheduler "ybtl" with entities [Leuonard (ID: 17339060/0x010892B4), Leuonard (ID: 17339060/0x010892B4)], work=2912*
  4: 0x00E3 [0x5B] LOAD_EXT_SCHEDULER: Load scheduler "com0" with entities [tueB (ID: 17339069/0x010892BD), tueB (ID: 17339069/0x010892BD)], work=1433*
  5: 0x00F2 [0x1C] WAIT(10* ticks)
  6: 0x00F5 [0x5B] LOAD_EXT_SCHEDULER: Load scheduler "ybtl" with entities [Oliverain (ID: 17339061/0x010892B5), Oliverain (ID: 17339061/0x010892B5)], work=2912*
  7: 0x0104 [0x5B] LOAD_EXT_SCHEDULER: Load scheduler "com0" with entities [Gorakbok (ID: 17339066/0x010892BA), Gorakbok (ID: 17339066/0x010892BA)], work=1433*
  8: 0x0113 [0x1C] WAIT(5* ticks)
  9: 0x0116 [0x5B] LOAD_EXT_SCHEDULER: Load scheduler "ybtl" with entities [kisiC (ID: 17339062/0x010892B6), kisiC (ID: 17339062/0x010892B6)], work=2912*
 10: 0x0125 [0x5B] LOAD_EXT_SCHEDULER: Load scheduler "com0" with entities [tueA (ID: 17339068/0x010892BC), tueA (ID: 17339068/0x010892BC)], work=1433*
 11: 0x0134 [0x1C] WAIT(10* ticks)
 12: 0x0137 [0x5B] LOAD_EXT_SCHEDULER: Load scheduler "ybtl" with entities [Dissaud (ID: 17339063/0x010892B7), Dissaud (ID: 17339063/0x010892B7)], work=2912*
 13: 0x0146 [0x5B] LOAD_EXT_SCHEDULER: Load scheduler "com0" with entities [Voshekglok (ID: 17339067/0x010892BB), Voshekglok (ID: 17339067/0x010892BB)], work=1433*
 14: 0x0155 [0x1C] WAIT(5* ticks)
 15: 0x0158 [0x5B] LOAD_EXT_SCHEDULER: Load scheduler "ybtl" with entities [Ganathein (ID: 17339064/0x010892B8), Ganathein (ID: 17339064/0x010892B8)], work=2912*
 16: 0x0167 [0x00] END_REQSTACK()
```

### Event 65535.10

#### Metadata

| Field        | Value     |
|--------------|-----------|
| Entrypoint   | 0x0168    |
| Data Size    | 227 bytes |
| Instructions | 23        |

```
      00 01 02 03 04 05 06 07  08 09 0A 0B 0C 0D 0E 0F
      -- -- -- -- -- -- -- --  -- -- -- -- -- -- -- --
0160:                          BA D8 92 08 01 07 80 08          ........
0170: 80 09 80 0A 80 BA BB 92  08 01 0B 80 0C 80 0D 80  ................
0180: 0E 80 BA B6 92 08 01 0F  80 10 80 11 80 12 80 BA  ................
0190: B9 92 08 01 13 80 14 80  15 80 0E 80 BA B4 92 08  ................
01A0: 01 16 80 17 80 18 80 19  80 BA BA 92 08 01 1A 80  ................
01B0: 1B 80 1C 80 19 80 BA B7  92 08 01 1D 80 1E 80 1F  ................
01C0: 80 20 80 BA BD 92 08 01  21 80 22 80 23 80 24 80  . ......!.".#.$.
01D0: BA B8 92 08 01 25 80 26  80 27 80 19 80 BA BC 92  .....%.&.'......
01E0: 08 01 28 80 29 80 00 80  19 80 4A D8 92 08 01 BB  ..(.).....J.....
01F0: 92 08 01 4A BB 92 08 01  D8 92 08 01 4A B6 92 08  ...J........J...
0200: 01 B9 92 08 01 4A B9 92  08 01 B6 92 08 01 4A B4  .....J........J.
0210: 92 08 01 BA 92 08 01 4A  BA 92 08 01 B4 92 08 01  .......J........
0220: 4A B7 92 08 01 BD 92 08  01 4A BD 92 08 01 B7 92  J........J......
0230: 08 01 4A B8 92 08 01 BC  92 08 01 4A BC 92 08 01  ..J........J....
0240: B8 92 08 01 6F 76 BC 92  08 01 00                 ....ov.....     
```

#### Opcodes

```
  0: 0x0168 [0xBA] SET_ENTITY_POSITION(entity_id=Jayramus (ID: 17339096/0x010892D8), pos_x=63.488*, pos_z=315.785*, pos_y=0.644*, direction=155.6°*)
  1: 0x0175 [0xBA] SET_ENTITY_POSITION(entity_id=Voshekglok (ID: 17339067/0x010892BB), pos_x=60.909*, pos_z=314.876*, pos_y=0.281*, direction=285.5°*)
  2: 0x0182 [0xBA] SET_ENTITY_POSITION(entity_id=kisiC (ID: 17339062/0x010892B6), pos_x=61.913*, pos_z=324.180*, pos_y=0.848*, direction=129.5°*)
  3: 0x018F [0xBA] SET_ENTITY_POSITION(entity_id=onoA (ID: 17339065/0x010892B9), pos_x=59.084*, pos_z=322.176*, pos_y=0.580*, direction=285.5°*)
  4: 0x019C [0xBA] SET_ENTITY_POSITION(entity_id=Leuonard (ID: 17339060/0x010892B4), pos_x=56.315*, pos_z=317.744*, pos_y=0.571*, direction=314.3°*)
  5: 0x01A9 [0xBA] SET_ENTITY_POSITION(entity_id=Gorakbok (ID: 17339066/0x010892BA), pos_x=53.066*, pos_z=319.113*, pos_y=0.999*, direction=314.3°*)
  6: 0x01B6 [0xBA] SET_ENTITY_POSITION(entity_id=Dissaud (ID: 17339063/0x010892B7), pos_x=62.433*, pos_z=307.105*, pos_y=-0.293*, direction=224.2°*)
  7: 0x01C3 [0xBA] SET_ENTITY_POSITION(entity_id=tueB (ID: 17339069/0x010892BD), pos_x=59.424*, pos_z=306.013*, pos_y=-0.550*, direction=315.5°*)
  8: 0x01D0 [0xBA] SET_ENTITY_POSITION(entity_id=Ganathein (ID: 17339064/0x010892B8), pos_x=57.203*, pos_z=310.497*, pos_y=-0.258*, direction=314.3°*)
  9: 0x01DD [0xBA] SET_ENTITY_POSITION(entity_id=tueA (ID: 17339068/0x010892BC), pos_x=54.441*, pos_z=310.249*, pos_y=0.000*, direction=314.3°*)
 10: 0x01EA [0x4A] Jayramus (ID: 17339096/0x010892D8) looks at Voshekglok (ID: 17339067/0x010892BB)
 11: 0x01F3 [0x4A] Voshekglok (ID: 17339067/0x010892BB) looks at Jayramus (ID: 17339096/0x010892D8)
 12: 0x01FC [0x4A] kisiC (ID: 17339062/0x010892B6) looks at onoA (ID: 17339065/0x010892B9)
 13: 0x0205 [0x4A] onoA (ID: 17339065/0x010892B9) looks at kisiC (ID: 17339062/0x010892B6)
 14: 0x020E [0x4A] Leuonard (ID: 17339060/0x010892B4) looks at Gorakbok (ID: 17339066/0x010892BA)
 15: 0x0217 [0x4A] Gorakbok (ID: 17339066/0x010892BA) looks at Leuonard (ID: 17339060/0x010892B4)
 16: 0x0220 [0x4A] Dissaud (ID: 17339063/0x010892B7) looks at tueB (ID: 17339069/0x010892BD)
 17: 0x0229 [0x4A] tueB (ID: 17339069/0x010892BD) looks at Dissaud (ID: 17339063/0x010892B7)
 18: 0x0232 [0x4A] Ganathein (ID: 17339064/0x010892B8) looks at tueA (ID: 17339068/0x010892BC)
 19: 0x023B [0x4A] tueA (ID: 17339068/0x010892BC) looks at Ganathein (ID: 17339064/0x010892B8)
 20: 0x0244 [0x6F] WAIT_FRAME_DELAY: Yield until WaitTime reaches zero
 21: 0x0245 [0x76] CHECK_ENTITY_RENDER_FLAGS: Wait until tueA (ID: 17339068/0x010892BC) Render.Flags0 and Render.Flags3 conditions are met
 22: 0x024A [0x00] END_REQSTACK()
```

### Event 65535.11

#### Metadata

| Field        | Value     |
|--------------|-----------|
| Entrypoint   | 0x024B    |
| Data Size    | 118 bytes |
| Instructions | 12        |

```
      00 01 02 03 04 05 06 07  08 09 0A 0B 0C 0D 0E 0F
      -- -- -- -- -- -- -- --  -- -- -- -- -- -- -- --
0240:                                   66 2A 80 B6 92             f*...
0250: 08 01 B6 92 08 01 73 68  61 30 5B 2B 80 DA 92 08  ......sha0[+....
0260: 01 DA 92 08 01 73 68 61  6C 1C 06 80 66 2A 80 B5  .....shal...f*..
0270: 92 08 01 B5 92 08 01 73  68 61 30 5B 2B 80 DB 92  .......sha0[+...
0280: 08 01 DB 92 08 01 73 68  61 6C 1C 05 80 66 2A 80  ......shal...f*.
0290: B8 92 08 01 B8 92 08 01  73 68 61 30 1C 06 80 66  ........sha0...f
02A0: 2A 80 B4 92 08 01 B4 92  08 01 73 68 61 30 1C 05  *.........sha0..
02B0: 80 66 2A 80 B7 92 08 01  B7 92 08 01 73 68 61 30  .f*.........sha0
02C0: 00                                                .               
```

#### Opcodes

```
  0: 0x024B [0x66] LOAD_EXT_SCHEDULER_MAIN: Load scheduler "sha0" with entities [kisiC (ID: 17339062/0x010892B6), kisiC (ID: 17339062/0x010892B6)], work=29*
  1: 0x025A [0x5B] LOAD_EXT_SCHEDULER: Load scheduler "shal" with entities [Rahal (ID: 17339098/0x010892DA), Rahal (ID: 17339098/0x010892DA)], work=1301*
  2: 0x0269 [0x1C] WAIT(10* ticks)
  3: 0x026C [0x66] LOAD_EXT_SCHEDULER_MAIN: Load scheduler "sha0" with entities [Oliverain (ID: 17339061/0x010892B5), Oliverain (ID: 17339061/0x010892B5)], work=29*
  4: 0x027B [0x5B] LOAD_EXT_SCHEDULER: Load scheduler "shal" with entities [Cyranuce (ID: 17339099/0x010892DB), Cyranuce (ID: 17339099/0x010892DB)], work=1301*
  5: 0x028A [0x1C] WAIT(5* ticks)
  6: 0x028D [0x66] LOAD_EXT_SCHEDULER_MAIN: Load scheduler "sha0" with entities [Ganathein (ID: 17339064/0x010892B8), Ganathein (ID: 17339064/0x010892B8)], work=29*
  7: 0x029C [0x1C] WAIT(10* ticks)
  8: 0x029F [0x66] LOAD_EXT_SCHEDULER_MAIN: Load scheduler "sha0" with entities [Leuonard (ID: 17339060/0x010892B4), Leuonard (ID: 17339060/0x010892B4)], work=29*
  9: 0x02AE [0x1C] WAIT(5* ticks)
 10: 0x02B1 [0x66] LOAD_EXT_SCHEDULER_MAIN: Load scheduler "sha0" with entities [Dissaud (ID: 17339063/0x010892B7), Dissaud (ID: 17339063/0x010892B7)], work=29*
 11: 0x02C0 [0x00] END_REQSTACK()
```

### Event 65535.12

#### Metadata

| Field        | Value     |
|--------------|-----------|
| Entrypoint   | 0x02C1    |
| Data Size    | 118 bytes |
| Instructions | 12        |

```
      00 01 02 03 04 05 06 07  08 09 0A 0B 0C 0D 0E 0F
      -- -- -- -- -- -- -- --  -- -- -- -- -- -- -- --
02C0:    66 2A 80 B6 92 08 01  B6 92 08 01 73 68 61 31   f*.........sha1
02D0: 5B 2B 80 DA 92 08 01 DA  92 08 01 73 68 61 31 1C  [+.........sha1.
02E0: 06 80 66 2A 80 B5 92 08  01 B5 92 08 01 73 68 61  ..f*.........sha
02F0: 31 5B 2B 80 DB 92 08 01  DB 92 08 01 73 68 61 31  1[+.........sha1
0300: 1C 05 80 66 2A 80 B8 92  08 01 B8 92 08 01 73 68  ...f*.........sh
0310: 61 31 1C 06 80 66 2A 80  B4 92 08 01 B4 92 08 01  a1...f*.........
0320: 73 68 61 31 1C 05 80 66  2A 80 B7 92 08 01 B7 92  sha1...f*.......
0330: 08 01 73 68 61 31 00                              ..sha1.         
```

#### Opcodes

```
  0: 0x02C1 [0x66] LOAD_EXT_SCHEDULER_MAIN: Load scheduler "sha1" with entities [kisiC (ID: 17339062/0x010892B6), kisiC (ID: 17339062/0x010892B6)], work=29*
  1: 0x02D0 [0x5B] LOAD_EXT_SCHEDULER: Load scheduler "sha1" with entities [Rahal (ID: 17339098/0x010892DA), Rahal (ID: 17339098/0x010892DA)], work=1301*
  2: 0x02DF [0x1C] WAIT(10* ticks)
  3: 0x02E2 [0x66] LOAD_EXT_SCHEDULER_MAIN: Load scheduler "sha1" with entities [Oliverain (ID: 17339061/0x010892B5), Oliverain (ID: 17339061/0x010892B5)], work=29*
  4: 0x02F1 [0x5B] LOAD_EXT_SCHEDULER: Load scheduler "sha1" with entities [Cyranuce (ID: 17339099/0x010892DB), Cyranuce (ID: 17339099/0x010892DB)], work=1301*
  5: 0x0300 [0x1C] WAIT(5* ticks)
  6: 0x0303 [0x66] LOAD_EXT_SCHEDULER_MAIN: Load scheduler "sha1" with entities [Ganathein (ID: 17339064/0x010892B8), Ganathein (ID: 17339064/0x010892B8)], work=29*
  7: 0x0312 [0x1C] WAIT(10* ticks)
  8: 0x0315 [0x66] LOAD_EXT_SCHEDULER_MAIN: Load scheduler "sha1" with entities [Leuonard (ID: 17339060/0x010892B4), Leuonard (ID: 17339060/0x010892B4)], work=29*
  9: 0x0324 [0x1C] WAIT(5* ticks)
 10: 0x0327 [0x66] LOAD_EXT_SCHEDULER_MAIN: Load scheduler "sha1" with entities [Dissaud (ID: 17339063/0x010892B7), Dissaud (ID: 17339063/0x010892B7)], work=29*
 11: 0x0336 [0x00] END_REQSTACK()
```
