# 17339058

## Common Data

| Field            | Value                   |
|------------------|-------------------------|
| Zone             | Xarcabard [S] (ID: 137) |
| Block Size       | 14096 bytes             |
| Total Events     | 5                       |
| References Count | 392                     |

## List of Events

| Event ID              | Entrypoint   |   Size |   Instructions |
|-----------------------|--------------|--------|----------------|
| [65535](#event-65535) | 0x0000       |      1 |              1 |
| [6](#event-6)         | 0x0001       |   5236 |            595 |
| [30](#event-30)       | 0x1475       |   3033 |            339 |
| [32](#event-32)       | 0x204E       |    493 |             60 |
| [33](#event-33)       | 0x223B       |   3726 |            408 |

## DAT References (imed_data)

|   Index | Hex Value   |   Dec Value |
|---------|-------------|-------------|
|       0 | 0x0013      |          19 |
|       1 | 0x0081      |         129 |
|       2 | 0x00FF      |         255 |
|       3 | 0x0001      |           1 |
|       4 | 0x000F      |          15 |
|       5 | 0x74321     |      475937 |
|       6 | 0xFFFD6A67  |  4294797927 |
|       7 | 0x4CCE      |       19662 |
|       8 | 0x02AF      |         687 |
|       9 | 0x75144     |      479556 |
|      10 | 0xFFFD4BC6  |  4294790086 |
|      11 | 0x5207      |       20999 |
|      12 | 0x0114      |         276 |
|      13 | 0x08D3      |        2259 |
|      14 | 0x0000      |           0 |
|      15 | 0xFFFFFFFF  |  4294967295 |
|      16 | 0x08FC      |        2300 |
|      17 | 0x0451      |        1105 |
|      18 | 0x6D90C     |      448780 |
|      19 | 0xFFFC94D0  |  4294743248 |
|      20 | 0x4FCA      |       20426 |
|      21 | 0x0C63      |        3171 |
|      22 | 0x6E3CE     |      451534 |
|      23 | 0xFFFC8175  |  4294738293 |
|      24 | 0x4E73      |       20083 |
|      25 | 0x0C7A      |        3194 |
|      26 | 0x6F120     |      454944 |
|      27 | 0xFFFC6C51  |  4294732881 |
|      28 | 0x4DC8      |       19912 |
|      29 | 0x0C88      |        3208 |
|      30 | 0x71874     |      465012 |
|      31 | 0xFFFD8279  |  4294804089 |
|      32 | 0x513A      |       20794 |
|      33 | 0x71C71     |      466033 |
|      34 | 0xFFFD9864  |  4294809700 |
|      35 | 0x5183      |       20867 |
|      36 | 0x72789     |      468873 |
|      37 | 0xFFFD9CA0  |  4294810784 |
|      38 | 0x4DCA      |       19914 |
|      39 | 0x73D88     |      474504 |
|      40 | 0xFFFD9FED  |  4294811629 |
|      41 | 0x4C05      |       19461 |
|      42 | 0x70894     |      460948 |
|      43 | 0xFFFD67D1  |  4294797265 |
|      44 | 0x4D2A      |       19754 |
|      45 | 0x6FE53     |      458323 |
|      46 | 0xFFFD7D39  |  4294802745 |
|      47 | 0x4F71      |       20337 |
|      48 | 0x05C2      |        1474 |
|      49 | 0x75B66     |      482150 |
|      50 | 0xFFFD730B  |  4294800139 |
|      51 | 0x4E95      |       20117 |
|      52 | 0x0799      |        1945 |
|      53 | 0x00D9      |         217 |
|      54 | 0x0A7E      |        2686 |
|      55 | 0x0AA9      |        2729 |
|      56 | 0x0078      |         120 |
|      57 | 0x01ED      |         493 |
|      58 | 0x00C8      |         200 |
|      59 | 0x1ECF      |        7887 |
|      60 | 0x1ED0      |        7888 |
|      61 | 0x1ED1      |        7889 |
|      62 | 0x1ED2      |        7890 |
|      63 | 0x002A      |          42 |
|      64 | 0x0026      |          38 |
|      65 | 0x0005      |           5 |
|      66 | 0x00B4      |         180 |
|      67 | 0x74FA6     |      479142 |
|      68 | 0xFFFCF3DA  |  4294767578 |
|      69 | 0x4E1F      |       19999 |
|      70 | 0x0BB8      |        3000 |
|      71 | 0x74615     |      476693 |
|      72 | 0xFFFCDD71  |  4294761841 |
|      73 | 0x4DFC      |       19964 |
|      74 | 0x1ED3      |        7891 |
|      75 | 0x000A      |          10 |
|      76 | 0x0064      |         100 |
|      77 | 0x71787     |      464775 |
|      78 | 0xFFFCDD0D  |  4294761741 |
|      79 | 0x4E5F      |       20063 |
|      80 | 0x0EE0      |        3808 |
|      81 | 0x700DC     |      458972 |
|      82 | 0xFFFCD9AE  |  4294760878 |
|      83 | 0x4EA7      |       20135 |
|      84 | 0x0F06      |        3846 |
|      85 | 0x7294A     |      469322 |
|      86 | 0xFFFCD8DF  |  4294760671 |
|      87 | 0x4E72      |       20082 |
|      88 | 0x02E5      |         741 |
|      89 | 0x6FE33     |      458291 |
|      90 | 0xFFFCB9DB  |  4294752731 |
|      91 | 0x46D7      |       18135 |
|      92 | 0x0FA4      |        4004 |
|      93 | 0x6DB09     |      449289 |
|      94 | 0xFFFCE54B  |  4294763851 |
|      95 | 0x4E62      |       20066 |
|      96 | 0x02E6      |         742 |
|      97 | 0x74D45     |      478533 |
|      98 | 0xFFFCF96A  |  4294769002 |
|      99 | 0x0FA0      |        4000 |
|     100 | 0x000D      |          13 |
|     101 | 0x0096      |         150 |
|     102 | 0x1ED4      |        7892 |
|     103 | 0x05D6      |        1494 |
|     104 | 0x75B3A     |      482106 |
|     105 | 0xFFFCF1FB  |  4294767099 |
|     106 | 0x4E20      |       20000 |
|     107 | 0x6F647     |      456263 |
|     108 | 0xFFFCDE86  |  4294762118 |
|     109 | 0x50DA      |       20698 |
|     110 | 0x0DCD      |        3533 |
|     111 | 0x0032      |          50 |
|     112 | 0x1ED5      |        7893 |
|     113 | 0x00D7      |         215 |
|     114 | 0x1ED6      |        7894 |
|     115 | 0x732CF     |      471759 |
|     116 | 0xFFFCD182  |  4294758786 |
|     117 | 0x4EF3      |       20211 |
|     118 | 0x71251     |      463441 |
|     119 | 0xFFFCD8B5  |  4294760629 |
|     120 | 0x4D68      |       19816 |
|     121 | 0x70598     |      460184 |
|     122 | 0xFFFCC304  |  4294755076 |
|     123 | 0x48FB      |       18683 |
|     124 | 0x0FA1      |        4001 |
|     125 | 0x0027      |          39 |
|     126 | 0x0029      |          41 |
|     127 | 0x0028      |          40 |
|     128 | 0x0019      |          25 |
|     129 | 0x6CA89     |      445065 |
|     130 | 0xFFFCF37A  |  4294767482 |
|     131 | 0x0203      |         515 |
|     132 | 0x6C5BD     |      443837 |
|     133 | 0xFFFD00D5  |  4294770901 |
|     134 | 0x4C37      |       19511 |
|     135 | 0x6B748     |      440136 |
|     136 | 0xFFFD038C  |  4294771596 |
|     137 | 0x1ED7      |        7895 |
|     138 | 0x0AAE      |        2734 |
|     139 | 0x008C      |         140 |
|     140 | 0x1ED8      |        7896 |
|     141 | 0x751B0     |      479664 |
|     142 | 0xFFFD22D1  |  4294779601 |
|     143 | 0x5204      |       20996 |
|     144 | 0x0B0F      |        2831 |
|     145 | 0x75C03     |      482307 |
|     146 | 0xFFFD17FD  |  4294776829 |
|     147 | 0x4E76      |       20086 |
|     148 | 0x758DE     |      481502 |
|     149 | 0xFFFD0F3C  |  4294774588 |
|     150 | 0x0B7E      |        2942 |
|     151 | 0x74EC2     |      478914 |
|     152 | 0xFFFCF6F5  |  4294768373 |
|     153 | 0x0B5E      |        2910 |
|     154 | 0x7412D     |      475437 |
|     155 | 0xFFFCF04F  |  4294766671 |
|     156 | 0x74C24     |      478244 |
|     157 | 0xFFFD15F9  |  4294776313 |
|     158 | 0x4F06      |       20230 |
|     159 | 0x748A8     |      477352 |
|     160 | 0xFFFD0397  |  4294771607 |
|     161 | 0x763FB     |      484347 |
|     162 | 0xFFFD0E45  |  4294774341 |
|     163 | 0x4C17      |       19479 |
|     164 | 0x75EAE     |      482990 |
|     165 | 0xFFFCF766  |  4294768486 |
|     166 | 0x003C      |          60 |
|     167 | 0x1ED9      |        7897 |
|     168 | 0x0514      |        1300 |
|     169 | 0x1EDA      |        7898 |
|     170 | 0x012C      |         300 |
|     171 | 0x1EDB      |        7899 |
|     172 | 0x1EDC      |        7900 |
|     173 | 0x74EFC     |      478972 |
|     174 | 0xFFFD5066  |  4294791270 |
|     175 | 0x1EDD      |        7901 |
|     176 | 0x1EDE      |        7902 |
|     177 | 0x73918     |      473368 |
|     178 | 0xFFFD5865  |  4294793317 |
|     179 | 0x3E8F      |       16015 |
|     180 | 0x08DE      |        2270 |
|     181 | 0x0AAC      |        2732 |
|     182 | 0x00F0      |         240 |
|     183 | 0x00F1      |         241 |
|     184 | 0x1EDF      |        7903 |
|     185 | 0x00A0      |         160 |
|     186 | 0x1EE0      |        7904 |
|     187 | 0x0046      |          70 |
|     188 | 0x77D48     |      490824 |
|     189 | 0xFFFD437A  |  4294787962 |
|     190 | 0x50F2      |       20722 |
|     191 | 0x0050      |          80 |
|     192 | 0x1EE1      |        7905 |
|     193 | 0x1EE2      |        7906 |
|     194 | 0x001E      |          30 |
|     195 | 0x0513      |        1299 |
|     196 | 0x0082      |         130 |
|     197 | 0x1EE3      |        7907 |
|     198 | 0x000B      |          11 |
|     199 | 0x1EE4      |        7908 |
|     200 | 0x75D5B     |      482651 |
|     201 | 0xFFFD4CB1  |  4294790321 |
|     202 | 0x51F8      |       20984 |
|     203 | 0x087A      |        2170 |
|     204 | 0x1EE5      |        7909 |
|     205 | 0x08CD      |        2253 |
|     206 | 0x1EE6      |        7910 |
|     207 | 0x04F9      |        1273 |
|     208 | 0x7562B     |      480811 |
|     209 | 0xFFFD4EB6  |  4294790838 |
|     210 | 0x0097      |         151 |
|     211 | 0x1EE7      |        7911 |
|     212 | 0x0AA2      |        2722 |
|     213 | 0x1EE8      |        7912 |
|     214 | 0x1EE9      |        7913 |
|     215 | 0x0AAD      |        2733 |
|     216 | 0x1EEA      |        7914 |
|     217 | 0x0C78      |        3192 |
|     218 | 0x00D2      |         210 |
|     219 | 0x1EEB      |        7915 |
|     220 | 0x0AA3      |        2723 |
|     221 | 0x0080      |         128 |
|     222 | 0x1EEC      |        7916 |
|     223 | 0x1EED      |        7917 |
|     224 | 0x1EEE      |        7918 |
|     225 | 0x0089      |         137 |
|     226 | 0x916B8     |      595640 |
|     227 | 0xFFFC0702  |  4294706946 |
|     228 | 0x010A      |         266 |
|     229 | 0x0A02      |        2562 |
|     230 | 0x8994E     |      563534 |
|     231 | 0xFFFBAE2E  |  4294684206 |
|     232 | 0x0992      |        2450 |
|     233 | 0x874B0     |      554160 |
|     234 | 0xFFFBC9A3  |  4294691235 |
|     235 | 0x005A      |          90 |
|     236 | 0x01FA      |         506 |
|     237 | 0x01FE      |         510 |
|     238 | 0x8A794     |      567188 |
|     239 | 0xFFFBDA67  |  4294695527 |
|     240 | 0xFFFFFF73  |  4294967155 |
|     241 | 0x0671      |        1649 |
|     242 | 0x0002      |           2 |
|     243 | 0x0003      |           3 |
|     244 | 0x0004      |           4 |
|     245 | 0x0006      |           6 |
|     246 | 0x0007      |           7 |
|     247 | 0x0008      |           8 |
|     248 | 0x0020      |          32 |
|     249 | 0x00FA      |         250 |
|     250 | 0x002D      |          45 |
|     251 | 0x00E1      |         225 |
|     252 | 0x1F1F      |        7967 |
|     253 | 0x1F20      |        7968 |
|     254 | 0x1F21      |        7969 |
|     255 | 0x1F22      |        7970 |
|     256 | 0x1F23      |        7971 |
|     257 | 0x1F24      |        7972 |
|     258 | 0x7EF5D     |      520029 |
|     259 | 0xFFFC5AB9  |  4294728377 |
|     260 | 0x0A30      |        2608 |
|     261 | 0x7E4D7     |      517335 |
|     262 | 0xFFFC55E2  |  4294727138 |
|     263 | 0x82926     |      534822 |
|     264 | 0xFFFC1872  |  4294711410 |
|     265 | 0xFFFFFC2E  |  4294966318 |
|     266 | 0x7CF3F     |      511807 |
|     267 | 0xFFFC6EDC  |  4294733532 |
|     268 | 0xFFFFFF4F  |  4294967119 |
|     269 | 0x0245      |         581 |
|     270 | 0x7D855     |      514133 |
|     271 | 0xFFFC77C1  |  4294735809 |
|     272 | 0xFFFFFF3F  |  4294967103 |
|     273 | 0x0009      |           9 |
|     274 | 0x0F0A      |        3850 |
|     275 | 0x1F25      |        7973 |
|     276 | 0x0016      |          22 |
|     277 | 0x1F26      |        7974 |
|     278 | 0x1F27      |        7975 |
|     279 | 0x1F28      |        7976 |
|     280 | 0x1F29      |        7977 |
|     281 | 0x001A      |          26 |
|     282 | 0x7D88C     |      514188 |
|     283 | 0xFFFC6CE6  |  4294733030 |
|     284 | 0xFFFFFFFB  |  4294967291 |
|     285 | 0x0A5A      |        2650 |
|     286 | 0x3E841     |      256065 |
|     287 | 0xFFFD9890  |  4294809744 |
|     288 | 0xFFFFCA05  |  4294953477 |
|     289 | 0x0976      |        2422 |
|     290 | 0x3E263     |      254563 |
|     291 | 0xFFFDA7CC  |  4294813644 |
|     292 | 0xFFFFC87D  |  4294953085 |
|     293 | 0x3F7DE     |      260062 |
|     294 | 0xFFFD9462  |  4294808674 |
|     295 | 0xFFFFCE5B  |  4294954587 |
|     296 | 0x01EB      |         491 |
|     297 | 0x098C      |        2444 |
|     298 | 0x1F3F      |        7999 |
|     299 | 0x04F8      |        1272 |
|     300 | 0x1F40      |        8000 |
|     301 | 0x0090      |         144 |
|     302 | 0x357FA     |      219130 |
|     303 | 0x2172E     |      137006 |
|     304 | 0xFFFFA0D1  |  4294942929 |
|     305 | 0x0C2B      |        3115 |
|     306 | 0x35144     |      217412 |
|     307 | 0x21F6B     |      139115 |
|     308 | 0xFFFF9E48  |  4294942280 |
|     309 | 0x0C2A      |        3114 |
|     310 | 0x34083     |      213123 |
|     311 | 0x2649C     |      156828 |
|     312 | 0xFFFF949C  |  4294939804 |
|     313 | 0x0301      |         769 |
|     314 | 0x2EFC1     |      192449 |
|     315 | 0x289BD     |      166333 |
|     316 | 0xFFFF92DB  |  4294939355 |
|     317 | 0x07D0      |        2000 |
|     318 | 0x2CED7     |      184023 |
|     319 | 0x27987     |      162183 |
|     320 | 0xFFFF95B1  |  4294940081 |
|     321 | 0x0063      |          99 |
|     322 | 0x2CB45     |      183109 |
|     323 | 0x2787F     |      161919 |
|     324 | 0xFFFF95AC  |  4294940076 |
|     325 | 0x0106      |         262 |
|     326 | 0x08CF      |        2255 |
|     327 | 0x01F0      |         496 |
|     328 | 0x0014      |          20 |
|     329 | 0x1F41      |        8001 |
|     330 | 0x1F42      |        8002 |
|     331 | 0x1F43      |        8003 |
|     332 | 0x1F44      |        8004 |
|     333 | 0x059D      |        1437 |
|     334 | 0x0015      |          21 |
|     335 | 0x1F45      |        8005 |
|     336 | 0x1F46      |        8006 |
|     337 | 0x0515      |        1301 |
|     338 | 0x34EF8     |      216824 |
|     339 | 0x28F0A     |      167690 |
|     340 | 0xFFFF92F7  |  4294939383 |
|     341 | 0x082A      |        2090 |
|     342 | 0x34577     |      214391 |
|     343 | 0x28B26     |      166694 |
|     344 | 0xFFFF9312  |  4294939410 |
|     345 | 0x0A6F      |        2671 |
|     346 | 0x1BB57     |      113495 |
|     347 | 0x291F0     |      168432 |
|     348 | 0xFFFF9231  |  4294939185 |
|     349 | 0x33F75     |      212853 |
|     350 | 0x29742     |      169794 |
|     351 | 0xFFFF9022  |  4294938658 |
|     352 | 0x07DB      |        2011 |
|     353 | 0xFFFFFE70  |  4294966896 |
|     354 | 0x1F47      |        8007 |
|     355 | 0x1F48      |        8008 |
|     356 | 0x30128     |      196904 |
|     357 | 0x28964     |      166244 |
|     358 | 0xFFFF9230  |  4294939184 |
|     359 | 0x2F711     |      194321 |
|     360 | 0x281FD     |      164349 |
|     361 | 0xFFFF92E1  |  4294939361 |
|     362 | 0x1F49      |        8009 |
|     363 | 0x0BAE      |        2990 |
|     364 | 0x1F4A      |        8010 |
|     365 | 0x1F4B      |        8011 |
|     366 | 0x2CEED     |      184045 |
|     367 | 0x28B1D     |      166685 |
|     368 | 0xFFFF9395  |  4294939541 |
|     369 | 0x0601      |        1537 |
|     370 | 0x007F      |         127 |
|     371 | 0x0A4B      |        2635 |
|     372 | 0x059F      |        1439 |
|     373 | 0x1F4C      |        8012 |
|     374 | 0x1F4D      |        8013 |
|     375 | 0x1F4E      |        8014 |
|     376 | 0x1F4F      |        8015 |
|     377 | 0x0054      |          84 |
|     378 | 0x1F50      |        8016 |
|     379 | 0x000C      |          12 |
|     380 | 0x2C930     |      182576 |
|     381 | 0x27961     |      162145 |
|     382 | 0xFFFF9607  |  4294940167 |
|     383 | 0x0F3E      |        3902 |
|     384 | 0x2D0B4     |      184500 |
|     385 | 0x27CBA     |      163002 |
|     386 | 0xFFFF958B  |  4294940043 |
|     387 | 0x04A3      |        1187 |
|     388 | 0x05B7      |        1463 |
|     389 | 0x1F51      |        8017 |
|     390 | 0x1F52      |        8018 |
|     391 | 0x00C9      |         201 |

## String References

- **7908**: Hurrah!!!

## Events

### Event 65535

#### Metadata

| Field        | Value   |
|--------------|---------|
| Entrypoint   | 0x0000  |
| Data Size    | 1 bytes |
| Instructions | 1       |

```
      00 01 02 03 04 05 06 07  08 09 0A 0B 0C 0D 0E 0F
      -- -- -- -- -- -- -- --  -- -- -- -- -- -- -- --
0000: 00                                                .               
```

#### Opcodes

```
  0: 0x0000 [0x00] END_REQSTACK()
```

### Event 6

#### Metadata

| Field        | Value      |
|--------------|------------|
| Entrypoint   | 0x0001     |
| Data Size    | 5236 bytes |
| Instructions | 595        |

```
      00 01 02 03 04 05 06 07  08 09 0A 0B 0C 0D 0E 0F
      -- -- -- -- -- -- -- --  -- -- -- -- -- -- -- --
0000:    42 1A 9B 2E 46 01 38  00 80 4E 00 F0 FF FF 7F   B...F.8..N.....
0010: 34 01 80 77 02 80 03 80  1C 04 80 AB 09 27 10 DA  4..w.........'..
0020: 92 08 01 04 27 10 D6 92  08 01 04 27 10 DC 92 08  ....'......'....
0030: 01 04 27 10 DB 92 08 01  04 27 10 C1 92 08 01 04  ..'......'......
0040: 27 10 D8 92 08 01 04 27  10 B4 92 08 01 04 27 10  '......'......'.
0050: B5 92 08 01 04 27 10 B6  92 08 01 04 27 10 B7 92  .....'......'...
0060: 08 01 04 27 10 B8 92 08  01 04 27 10 D9 92 08 01  ...'......'.....
0070: 04 27 10 C2 92 08 01 04  27 10 BF 92 08 01 04 27  .'......'......'
0080: 10 B9 92 08 01 04 27 10  BA 92 08 01 04 27 10 BB  ......'......'..
0090: 92 08 01 04 27 10 BC 92  08 01 04 27 10 BD 92 08  ....'......'....
00A0: 01 04 27 10 BE 92 08 01  04 27 10 C0 92 08 01 04  ..'......'......
00B0: 27 10 B3 92 08 01 04 92  01 D6 92 08 01 92 01 DA  '...............
00C0: 92 08 01 92 01 DC 92 08  01 92 01 DB 92 08 01 92  ................
00D0: 01 C1 92 08 01 92 01 D8  92 08 01 92 01 B4 92 08  ................
00E0: 01 92 01 B5 92 08 01 92  01 B6 92 08 01 92 01 B7  ................
00F0: 92 08 01 92 01 B8 92 08  01 92 01 D9 92 08 01 92  ................
0100: 01 C2 92 08 01 92 01 BF  92 08 01 92 01 C0 92 08  ................
0110: 01 92 01 B3 92 08 01 92  01 B9 92 08 01 92 01 BA  ................
0120: 92 08 01 92 01 BB 92 08  01 92 01 BC 92 08 01 92  ................
0130: 01 BD 92 08 01 92 01 BE  92 08 01 94 01 F0 FF FF  ................
0140: 7F 94 01 D6 92 08 01 94  01 C1 92 08 01 94 01 D8  ................
0150: 92 08 01 94 01 B4 92 08  01 94 01 B5 92 08 01 94  ................
0160: 01 B6 92 08 01 94 01 B7  92 08 01 94 01 B8 92 08  ................
0170: 01 94 01 D9 92 08 01 94  01 B9 92 08 01 94 01 BA  ................
0180: 92 08 01 94 01 BB 92 08  01 94 01 BC 92 08 01 94  ................
0190: 01 BD 92 08 01 94 01 BE  92 08 01 59 05 F0 FF FF  ...........Y....
01A0: 7F 01 59 05 C2 92 08 01  01 BA F0 FF FF 7F 05 80  ..Y.............
01B0: 06 80 07 80 08 80 BA D6  92 08 01 09 80 0A 80 0B  ................
01C0: 80 0C 80 BA D9 92 08 01  09 80 0A 80 0B 80 0D 80  ................
01D0: BA C2 92 08 01 0E 80 0F  80 0E 80 10 80 BA DA 92  ................
01E0: 08 01 0E 80 0E 80 0E 80  11 80 BA DB 92 08 01 0E  ................
01F0: 80 0E 80 0E 80 11 80 BA  DC 92 08 01 0E 80 0E 80  ................
0200: 0E 80 11 80 BA C1 92 08  01 0E 80 0E 80 0E 80 11  ................
0210: 80 BA BC 92 08 01 0E 80  0E 80 0E 80 11 80 BA BD  ................
0220: 92 08 01 0E 80 0E 80 0E  80 11 80 BA BE 92 08 01  ................
0230: 0E 80 0E 80 0E 80 11 80  BA B9 92 08 01 12 80 13  ................
0240: 80 14 80 15 80 BA BA 92  08 01 16 80 17 80 18 80  ................
0250: 19 80 BA BB 92 08 01 1A  80 1B 80 1C 80 1D 80 BA  ................
0260: D8 92 08 01 1E 80 1F 80  20 80 11 80 BA B4 92 08  ........ .......
0270: 01 21 80 22 80 23 80 11  80 BA B5 92 08 01 24 80  .!.".#........$.
0280: 25 80 26 80 11 80 BA B6  92 08 01 27 80 28 80 29  %.&........'.(.)
0290: 80 11 80 BA B7 92 08 01  2A 80 2B 80 2C 80 11 80  ........*.+.,...
02A0: BA B8 92 08 01 2D 80 2E  80 2F 80 30 80 BA BF 92  .....-.../.0....
02B0: 08 01 31 80 32 80 33 80  34 80 4A F0 FF FF 7F D9  ..1.2.3.4.J.....
02C0: 92 08 01 4A B4 92 08 01  D9 92 08 01 4A B5 92 08  ...J........J...
02D0: 01 D9 92 08 01 4A B6 92  08 01 D9 92 08 01 4A B7  .....J........J.
02E0: 92 08 01 D9 92 08 01 4A  B8 92 08 01 D9 92 08 01  .......J........
02F0: 4A D8 92 08 01 D9 92 08  01 7B F0 FF FF 7F 7B B4  J........{....{.
0300: 92 08 01 7B B5 92 08 01  7B B6 92 08 01 7B B7 92  ...{....{....{..
0310: 08 01 7B B8 92 08 01 7B  D8 92 08 01 27 10 F0 FF  ..{....{....'...
0320: FF 7F 08 27 10 DA 92 08  01 18 27 10 B4 92 08 01  ...'......'.....
0330: 0B 27 10 B5 92 08 01 0B  27 10 B6 92 08 01 0B 27  .'......'......'
0340: 10 B7 92 08 01 0B 27 10  B8 92 08 01 0B 27 10 BC  ......'......'..
0350: 92 08 01 0A 27 10 B9 92  08 01 0F 80 F0 FF FF 7F  ....'...........
0360: 80 DA 92 08 01 80 DB 92  08 01 80 D6 92 08 01 80  ................
0370: C1 92 08 01 80 D8 92 08  01 80 B4 92 08 01 80 B5  ................
0380: 92 08 01 80 B6 92 08 01  80 B7 92 08 01 80 B8 92  ................
0390: 08 01 80 D9 92 08 01 80  B9 92 08 01 80 BA 92 08  ................
03A0: 01 80 BB 92 08 01 2C BF  92 08 01 BF 92 08 01 64  ......,........d
03B0: 65 61 64 5C 00 35 80 5C  01 35 80 5C 02 35 80 5C  ead\.5.\.5.\.5.\
03C0: 03 35 80 5B 36 80 C2 92  08 01 C2 92 08 01 6E 61  .5.[6.........na
03D0: 72 30 5B 37 80 D6 92 08  01 D6 92 08 01 62 74 6A  r0[7.........btj
03E0: 6C 5B 36 80 D9 92 08 01  D9 92 08 01 66 73 68 30  l[6.........fsh0
03F0: 1C 38 80 9A 45 39 80 F0  FF FF 7F F0 FF FF 7F 72  .8..E9.........r
0400: 31 30 31 0E 80 1A 7A 2E  1C 3A 80 2C BC 92 08 01  101...z..:.,....
0410: BC 92 08 01 64 65 61 64  2C BD 92 08 01 BD 92 08  ....dead,.......
0420: 01 64 65 61 64 2C BE 92  08 01 BE 92 08 01 64 65  .dead,........de
0430: 61 64 52 39 80 F0 FF FF  7F F0 FF FF 7F 72 31 30  adR9.........r10
0440: 31 45 39 80 F0 FF FF 7F  F0 FF FF 7F 72 31 30 32  1E9.........r102
0450: 0E 80 2B D9 92 08 01 3B  80 23 2B D9 92 08 01 3C  ..+....;.#+....<
0460: 80 23 52 39 80 F0 FF FF  7F F0 FF FF 7F 72 31 30  .#R9.........r10
0470: 32 45 39 80 F0 FF FF 7F  F0 FF FF 7F 72 31 30 33  2E9.........r103
0480: 0E 80 5B 36 80 D9 92 08  01 D9 92 08 01 66 73 68  ..[6.........fsh
0490: 77 2B D9 92 08 01 3D 80  23 2B D9 92 08 01 3E 80  w+....=.#+....>.
04A0: 23 59 04 B9 92 08 01 3F  80 59 04 BA 92 08 01 40  #Y.....?.Y.....@
04B0: 80 27 10 B9 92 08 01 0D  1C 41 80 27 10 BB 92 08  .'.......A.'....
04C0: 01 13 1C 41 80 27 10 BA  92 08 01 0F 1C 41 80 52  ...A.'.......A.R
04D0: 39 80 F0 FF FF 7F F0 FF  FF 7F 72 31 30 33 45 39  9.........r103E9
04E0: 80 F0 FF FF 7F F0 FF FF  7F 72 31 30 34 0E 80 1C  .........r104...
04F0: 42 80 52 39 80 F0 FF FF  7F F0 FF FF 7F 72 31 30  B.R9.........r10
0500: 34 45 39 80 F0 FF FF 7F  F0 FF FF 7F 72 31 30 35  4E9.........r105
0510: 0E 80 7A 00 B9 92 08 01  7A 00 BA 92 08 01 7A 00  ..z.....z.....z.
0520: BB 92 08 01 BA B9 92 08  01 43 80 44 80 45 80 46  .........C.D.E.F
0530: 80 BA BB 92 08 01 47 80  48 80 49 80 46 80 2B D9  ......G.H.I.F.+.
0540: 92 08 01 4A 80 23 27 10  B9 92 08 01 0E 1C 41 80  ...J.#'.......A.
0550: 1C 41 80 27 10 BB 92 08  01 14 52 39 80 F0 FF FF  .A.'......R9....
0560: 7F F0 FF FF 7F 72 31 30  35 45 39 80 F0 FF FF 7F  .....r105E9.....
0570: F0 FF FF 7F 72 31 34 33  0E 80 1C 38 80 52 39 80  ....r143...8.R9.
0580: F0 FF FF 7F F0 FF FF 7F  72 31 34 33 45 39 80 F0  ........r143E9..
0590: FF FF 7F F0 FF FF 7F 72  31 34 35 0E 80 5D 0E 80  .......r145..]..
05A0: 38 80 1C 4B 80 2C BA 92  08 01 BA 92 08 01 64 65  8..K.,........de
05B0: 61 64 1C 4B 80 2C BB 92  08 01 BB 92 08 01 64 65  ad.K.,........de
05C0: 61 64 1C 4C 80 52 39 80  F0 FF FF 7F F0 FF FF 7F  ad.L.R9.........
05D0: 72 31 34 35 45 39 80 F0  FF FF 7F F0 FF FF 7F 72  r145E9.........r
05E0: 31 30 37 0E 80 27 10 B4  92 08 01 0A 27 10 B5 92  107..'......'...
05F0: 08 01 0A 27 10 B6 92 08  01 0A 27 10 B7 92 08 01  ...'......'.....
0600: 0A 27 10 B8 92 08 01 0A  BA B4 92 08 01 4D 80 4E  .'...........M.N
0610: 80 4F 80 50 80 BA B5 92  08 01 51 80 52 80 53 80  .O.P......Q.R.S.
0620: 54 80 BA B6 92 08 01 55  80 56 80 57 80 58 80 BA  T......U.V.W.X..
0630: B7 92 08 01 59 80 5A 80  5B 80 5C 80 BA B8 92 08  ....Y.Z.[.\.....
0640: 01 5D 80 5E 80 5F 80 60  80 1C 41 80 BA C1 92 08  .].^._.`..A.....
0650: 01 61 80 62 80 45 80 63  80 59 04 C1 92 08 01 64  .a.b.E.c.Y.....d
0660: 80 27 10 C1 92 08 01 09  1C 65 80 2B B3 92 08 01  .'.......e.+....
0670: 66 80 23 2A 10 C1 92 08  01 1C 4B 80 52 39 80 F0  f.#*......K.R9..
0680: FF FF 7F F0 FF FF 7F 72  31 30 37 45 39 80 F0 FF  .......r107E9...
0690: FF 7F F0 FF FF 7F 72 31  30 38 0E 80 5B 36 80 D9  ......r108..[6..
06A0: 92 08 01 D9 92 08 01 66  73 68 31 1C 4B 80 5B 67  .......fsh1.K.[g
06B0: 80 C1 92 08 01 C1 92 08  01 72 6F 6E 30 BA BA 92  .........ron0...
06C0: 08 01 68 80 69 80 6A 80  58 80 BA BB 92 08 01 6B  ..h.i.j.X......k
06D0: 80 6C 80 6D 80 6E 80 1C  6F 80 2B D9 92 08 01 70  .l.m.n..o.+....p
06E0: 80 23 5C 00 71 80 5C 01  71 80 5C 02 71 80 5C 03  .#\.q.\.q.\.q.\.
06F0: 71 80 9A 52 39 80 F0 FF  FF 7F F0 FF FF 7F 72 31  q..R9.........r1
0700: 30 38 45 39 80 F0 FF FF  7F F0 FF FF 7F 72 31 30  08E9.........r10
0710: 39 0E 80 2B C1 92 08 01  72 80 23 1C 41 80 BA BC  9..+....r.#.A...
0720: 92 08 01 73 80 74 80 75  80 60 80 BA BD 92 08 01  ...s.t.u.`......
0730: 76 80 77 80 78 80 60 80  BA BE 92 08 01 79 80 7A  v.w.x.`......y.z
0740: 80 7B 80 7C 80 59 04 B4  92 08 01 7D 80 59 04 B5  .{.|.Y.....}.Y..
0750: 92 08 01 40 80 59 04 B6  92 08 01 7E 80 59 04 B7  ...@.Y.....~.Y..
0760: 92 08 01 3F 80 59 04 B8  92 08 01 7F 80 27 10 B5  ...?.Y.......'..
0770: 92 08 01 0E 1C 41 80 27  10 B4 92 08 01 11 27 10  .....A.'......'.
0780: B7 92 08 01 10 1C 41 80  27 10 B6 92 08 01 0F 27  ......A.'......'
0790: 10 B8 92 08 01 10 52 39  80 F0 FF FF 7F F0 FF FF  ......R9........
07A0: 7F 72 31 30 39 45 39 80  F0 FF FF 7F F0 FF FF 7F  .r109E9.........
07B0: 72 31 34 34 0E 80 1C 42  80 59 04 DA 92 08 01 7F  r144...B.Y......
07C0: 80 59 04 DB 92 08 01 7F  80 59 04 DC 92 08 01 80  .Y.......Y......
07D0: 80 BA DA 92 08 01 81 80  82 80 45 80 83 80 BA DB  ..........E.....
07E0: 92 08 01 84 80 85 80 86  80 60 80 BA DC 92 08 01  .........`......
07F0: 87 80 88 80 45 80 83 80  27 10 DA 92 08 01 16 1C  ....E...'.......
0800: 41 80 27 10 DB 92 08 01  15 27 10 DC 92 08 01 1D  A.'......'......
0810: 1C 4B 80 52 39 80 F0 FF  FF 7F F0 FF FF 7F 72 31  .K.R9.........r1
0820: 34 34 45 39 80 F0 FF FF  7F F0 FF FF 7F 72 31 33  44E9.........r13
0830: 36 0E 80 1C 4C 80 52 39  80 F0 FF FF 7F F0 FF FF  6...L.R9........
0840: 7F 72 31 33 36 45 39 80  F0 FF FF 7F F0 FF FF 7F  .r136E9.........
0850: 72 31 31 30 0E 80 81 00  D6 92 08 01 03 02 10 38  r110...........8
0860: 80 27 10 B3 92 08 01 0C  2B DA 92 08 01 89 80 23  .'......+......#
0870: 2A 10 B3 92 08 01 52 39  80 F0 FF FF 7F F0 FF FF  *.....R9........
0880: 7F 72 31 31 30 45 39 80  F0 FF FF 7F F0 FF FF 7F  .r110E9.........
0890: 72 31 31 31 0E 80 5B 8A  80 D6 92 08 01 D6 92 08  r111..[.........
08A0: 01 62 74 6A 72 03 02 10  8B 80 27 10 B3 92 08 01  .btjr.....'.....
08B0: 0C 2B D6 92 08 01 8C 80  23 BA C1 92 08 01 8D 80  .+......#.......
08C0: 8E 80 8F 80 90 80 BA DA  92 08 01 91 80 92 80 93  ................
08D0: 80 46 80 BA DB 92 08 01  94 80 95 80 45 80 96 80  .F..........E...
08E0: BA DC 92 08 01 97 80 98  80 45 80 99 80 BA B4 92  .........E......
08F0: 08 01 9A 80 9B 80 45 80  46 80 BA B5 92 08 01 9C  ......E.F.......
0900: 80 9D 80 9E 80 46 80 BA  B6 92 08 01 9F 80 A0 80  .....F..........
0910: 6A 80 46 80 BA B7 92 08  01 A1 80 A2 80 A3 80 46  j.F............F
0920: 80 BA B8 92 08 01 A4 80  A5 80 45 80 46 80 27 10  ..........E.F.'.
0930: B4 92 08 01 0A 27 10 B5  92 08 01 0A 27 10 B6 92  .....'......'...
0940: 08 01 0A 27 10 B7 92 08  01 0A 27 10 B8 92 08 01  ...'......'.....
0950: 0A 2A 10 B3 92 08 01 52  39 80 F0 FF FF 7F F0 FF  .*.....R9.......
0960: FF 7F 72 31 31 31 45 39  80 F0 FF FF 7F F0 FF FF  ..r111E9........
0970: 7F 72 31 31 32 0E 80 7B  D6 92 08 01 03 02 10 A6  .r112..{........
0980: 80 27 10 B3 92 08 01 0C  2B D9 92 08 01 A7 80 23  .'......+......#
0990: 6B 69 64 6C 30 DA 92 08  01 2A 10 B3 92 08 01 1C  kidl0....*......
09A0: 4B 80 52 39 80 F0 FF FF  7F F0 FF FF 7F 72 31 31  K.R9.........r11
09B0: 32 45 39 80 F0 FF FF 7F  F0 FF FF 7F 72 31 31 33  2E9.........r113
09C0: 0E 80 5B 37 80 D6 92 08  01 D6 92 08 01 62 74 6A  ..[7.........btj
09D0: 6C 5B A8 80 DA 92 08 01  DA 92 08 01 72 62 74 30  l[..........rbt0
09E0: 2B DA 92 08 01 A9 80 23  52 39 80 F0 FF FF 7F F0  +......#R9......
09F0: FF FF 7F 72 31 31 33 45  39 80 F0 FF FF 7F F0 FF  ...r113E9.......
0A00: FF 7F 72 31 31 34 0E 80  5B 36 80 D9 92 08 01 D9  ..r114..[6......
0A10: 92 08 01 66 73 68 32 03  02 10 AA 80 27 10 B3 92  ...fsh2.....'...
0A20: 08 01 0C 27 10 DA 92 08  01 17 2B D9 92 08 01 AB  ...'......+.....
0A30: 80 23 2A 10 B3 92 08 01  52 39 80 F0 FF FF 7F F0  .#*.....R9......
0A40: FF FF 7F 72 31 31 34 45  39 80 F0 FF FF 7F F0 FF  ...r114E9.......
0A50: FF 7F 72 31 31 35 0E 80  2B C1 92 08 01 AC 80 23  ..r115..+......#
0A60: BA D9 92 08 01 AD 80 AE  80 0B 80 10 80 5D 0E 80  .............]..
0A70: 42 80 5B 37 80 D6 92 08  01 D6 92 08 01 62 74 6A  B.[7.........btj
0A80: 30 52 39 80 F0 FF FF 7F  F0 FF FF 7F 72 31 31 35  0R9.........r115
0A90: 45 39 80 F0 FF FF 7F F0  FF FF 7F 72 31 31 36 0E  E9.........r116.
0AA0: 80 2B D6 92 08 01 AF 80  1C 4C 80 52 39 80 F0 FF  .+.......L.R9...
0AB0: FF 7F F0 FF FF 7F 72 31  31 36 45 39 80 F0 FF FF  ......r116E9....
0AC0: 7F F0 FF FF 7F 72 31 30  36 0E 80 2B D6 92 08 01  .....r106..+....
0AD0: B0 80 23 1C 6F 80 5B 36  80 D9 92 08 01 D9 92 08  ..#.o.[6........
0AE0: 01 66 73 68 33 52 39 80  F0 FF FF 7F F0 FF FF 7F  .fsh3R9.........
0AF0: 72 31 30 36 45 39 80 F0  FF FF 7F F0 FF FF 7F 72  r106E9.........r
0B00: 31 34 31 0E 80 1C 4B 80  59 05 DA 92 08 01 01 BA  141...K.Y.......
0B10: DA 92 08 01 B1 80 B2 80  B3 80 B4 80 5B 8A 80 DA  ............[...
0B20: 92 08 01 DA 92 08 01 6B  65 6E 30 1C 7F 80 52 39  .......ken0...R9
0B30: 80 F0 FF FF 7F F0 FF FF  7F 72 31 34 31 45 39 80  .........r141E9.
0B40: F0 FF FF 7F F0 FF FF 7F  72 31 34 36 0E 80 1C 4B  ........r146...K
0B50: 80 5B B5 80 D6 92 08 01  D6 92 08 01 7A 61 6E 30  .[..........zan0
0B60: BA D6 92 08 01 AD 80 AE  80 0B 80 10 80 1C 4B 80  ..............K.
0B70: 52 39 80 F0 FF FF 7F F0  FF FF 7F 72 31 34 36 45  R9.........r146E
0B80: 39 80 F0 FF FF 7F F0 FF  FF 7F 72 31 31 37 0E 80  9.........r117..
0B90: 5B B5 80 D6 92 08 01 D6  92 08 01 7A 61 6E 31 C5  [..........zan1.
0BA0: B6 80 D6 92 08 01 D6 92  08 01 73 74 30 31 0E 80  ..........st01..
0BB0: 5B 36 80 D9 92 08 01 D9  92 08 01 7A 61 6E 31 C5  [6.........zan1.
0BC0: B7 80 D9 92 08 01 D9 92  08 01 73 74 30 31 0E 80  ..........st01..
0BD0: 2B D9 92 08 01 B8 80 1C  B9 80 27 10 D9 92 08 01  +.........'.....
0BE0: 0C 1C 4B 80 A5 01 C5 B7  80 D9 92 08 01 D9 92 08  ..K.............
0BF0: 01 73 74 30 32 0E 80 1C  4B 80 52 39 80 F0 FF FF  .st02...K.R9....
0C00: 7F F0 FF FF 7F 72 31 31  37 45 39 80 F0 FF FF 7F  .....r117E9.....
0C10: F0 FF FF 7F 72 31 31 38  0E 80 45 3A 80 F0 FF FF  ....r118..E:....
0C20: 7F F0 FF FF 7F 62 6C 6F  66 0E 80 BA DA 92 08 01  .....blof.......
0C30: 91 80 92 80 93 80 46 80  27 10 B4 92 08 01 0B 27  ......F.'......'
0C40: 10 B5 92 08 01 0B 27 10  B6 92 08 01 0B 27 10 B7  ......'......'..
0C50: 92 08 01 0B 27 10 B8 92  08 01 0B BA B4 92 08 01  ....'...........
0C60: 21 80 22 80 23 80 11 80  BA B5 92 08 01 24 80 25  !.".#........$.%
0C70: 80 26 80 11 80 BA B6 92  08 01 27 80 28 80 29 80  .&........'.(.).
0C80: 11 80 BA B7 92 08 01 2A  80 2B 80 2C 80 11 80 BA  .......*.+.,....
0C90: B8 92 08 01 2D 80 2E 80  2F 80 30 80 4A B4 92 08  ....-.../.0.J...
0CA0: 01 D6 92 08 01 4A B5 92  08 01 D6 92 08 01 4A B6  .....J........J.
0CB0: 92 08 01 D6 92 08 01 4A  B7 92 08 01 D6 92 08 01  .......J........
0CC0: 4A B8 92 08 01 D6 92 08  01 4A D8 92 08 01 D6 92  J........J......
0CD0: 08 01 7B B4 92 08 01 7B  B5 92 08 01 7B B6 92 08  ..{....{....{...
0CE0: 01 7B B7 92 08 01 7B B8  92 08 01 7B D8 92 08 01  .{....{....{....
0CF0: 2B D9 92 08 01 BA 80 1C  BB 80 52 39 80 F0 FF FF  +.........R9....
0D00: 7F F0 FF FF 7F 72 31 31  38 45 39 80 F0 FF FF 7F  .....r118E9.....
0D10: F0 FF FF 7F 72 31 34 38  0E 80 1C 4C 80 52 39 80  ....r148...L.R9.
0D20: F0 FF FF 7F F0 FF FF 7F  72 31 34 38 45 39 80 F0  ........r148E9..
0D30: FF FF 7F F0 FF FF 7F 72  31 34 39 0E 80 1C 4C 80  .......r149...L.
0D40: 52 39 80 F0 FF FF 7F F0  FF FF 7F 72 31 34 39 45  R9.........r149E
0D50: 39 80 F0 FF FF 7F F0 FF  FF 7F 72 31 35 30 0E 80  9.........r150..
0D60: BA C2 92 08 01 BC 80 BD  80 BE 80 10 80 1C BF 80  ................
0D70: 52 39 80 F0 FF FF 7F F0  FF FF 7F 72 31 35 30 45  R9.........r150E
0D80: 39 80 F0 FF FF 7F F0 FF  FF 7F 72 31 35 32 0E 80  9.........r152..
0D90: 1C 4B 80 C5 B7 80 C2 92  08 01 C2 92 08 01 73 74  .K............st
0DA0: 30 33 0E 80 2B D9 92 08  01 C0 80 27 10 F0 FF FF  03..+......'....
0DB0: 7F 09 1C B9 80 52 39 80  F0 FF FF 7F F0 FF FF 7F  .....R9.........
0DC0: 72 31 35 32 45 39 80 F0  FF FF 7F F0 FF FF 7F 72  r152E9.........r
0DD0: 31 34 32 0E 80 03 02 10  B9 80 27 10 B3 92 08 01  142.......'.....
0DE0: 0C C5 B6 80 D6 92 08 01  D6 92 08 01 73 74 30 32  ............st02
0DF0: 0E 80 2B D6 92 08 01 C1  80 23 2A 10 B3 92 08 01  ..+......#*.....
0E00: 1C C2 80 4E 01 D9 92 08  01 4E 01 C2 92 08 01 81  ...N.....N......
0E10: 00 D6 92 08 01 7C 00 D6  92 08 01 5B C3 80 D6 92  .....|.....[....
0E20: 08 01 D6 92 08 01 66 64  30 30 45 39 80 F0 FF FF  ......fd00E9....
0E30: 7F F0 FF FF 7F 64 61 69  30 0E 80 C5 B6 80 D6 92  .....dai0.......
0E40: 08 01 D6 92 08 01 73 74  30 33 0E 80 1C C4 80 52  ......st03.....R
0E50: 39 80 F0 FF FF 7F F0 FF  FF 7F 72 31 34 32 45 39  9.........r142E9
0E60: 80 F0 FF FF 7F F0 FF FF  7F 72 31 32 33 0E 80 1C  .........r123...
0E70: 42 80 52 39 80 F0 FF FF  7F F0 FF FF 7F 72 31 32  B.R9.........r12
0E80: 33 45 39 80 F0 FF FF 7F  F0 FF FF 7F 72 31 32 34  3E9.........r124
0E90: 0E 80 5B C3 80 D6 92 08  01 D6 92 08 01 66 64 30  ..[..........fd0
0EA0: 30 2B D8 92 08 01 C5 80  23 27 10 B6 92 08 01 10  0+......#'......
0EB0: 6E B5 92 08 01 C6 80 99  B5 92 08 01 27 10 B7 92  n...........'...
0EC0: 08 01 0F 27 10 B8 92 08  01 11 6E B4 92 08 01 C6  ...'......n.....
0ED0: 80 99 B4 92 08 01 1C C2  80 52 39 80 F0 FF FF 7F  .........R9.....
0EE0: F0 FF FF 7F 72 31 32 34  45 39 80 F0 FF FF 7F F0  ....r124E9......
0EF0: FF FF 7F 72 31 32 35 0E  80 48 C7 80 1C A6 80 45  ...r125..H.....E
0F00: 3A 80 F0 FF FF 7F F0 FF  FF 7F 66 64 6F 32 0E 80  :.........fdo2..
0F10: 55 3A 80 F0 FF FF 7F F0  FF FF 7F 66 64 6F 32 23  U:.........fdo2#
0F20: 6B 69 64 6C 30 DB 92 08  01 BA D6 92 08 01 C8 80  kidl0...........
0F30: C9 80 CA 80 CB 80 BA DA  92 08 01 91 80 92 80 93  ................
0F40: 80 46 80 27 10 DA 92 08  01 18 59 05 DA 92 08 01  .F.'......Y.....
0F50: 00 1C A6 80 5C 00 8B 80  5C 01 8B 80 9A 27 10 B6  ....\...\....'..
0F60: 92 08 01 10 6E B5 92 08  01 C6 80 99 B5 92 08 01  ....n...........
0F70: 27 10 B7 92 08 01 0F 27  10 B8 92 08 01 11 6E B4  '......'......n.
0F80: 92 08 01 C6 80 99 B4 92  08 01 52 39 80 F0 FF FF  ..........R9....
0F90: 7F F0 FF FF 7F 72 31 32  35 45 39 80 F0 FF FF 7F  .....r125E9.....
0FA0: F0 FF FF 7F 72 31 32 36  0E 80 45 3A 80 F0 FF FF  ....r126..E:....
0FB0: 7F F0 FF FF 7F 62 6C 6F  66 0E 80 45 3A 80 F0 FF  .....blof..E:...
0FC0: FF 7F F0 FF FF 7F 66 64  69 32 0E 80 55 3A 80 F0  ......fdi2..U:..
0FD0: FF FF 7F F0 FF FF 7F 66  64 69 32 2B B4 92 08 01  .......fdi2+....
0FE0: CC 80 23 52 39 80 F0 FF  FF 7F F0 FF FF 7F 72 31  ..#R9.........r1
0FF0: 32 36 45 39 80 F0 FF FF  7F F0 FF FF 7F 72 31 32  26E9.........r12
1000: 37 0E 80 5B CD 80 B5 92  08 01 B5 92 08 01 6B 69  7..[..........ki
1010: 61 30 6C B8 92 08 01 0E  80 03 80 7B D6 92 08 01  a0l........{....
1020: 81 01 D6 92 08 01 7C 01  D6 92 08 01 5B C3 80 D6  ......|.....[...
1030: 92 08 01 D6 92 08 01 66  30 30 30 6B 69 64 6C 30  .......f000kidl0
1040: D6 92 08 01 2B B5 92 08  01 CE 80 23 5B CF 80 DB  ....+......#[...
1050: 92 08 01 DB 92 08 01 77  61 72 30 BA B8 92 08 01  .......war0.....
1060: D0 80 D1 80 0B 80 D2 80  BA D8 92 08 01 C8 80 C9  ................
1070: 80 CA 80 CB 80 52 39 80  F0 FF FF 7F F0 FF FF 7F  .....R9.........
1080: 72 31 32 37 45 39 80 F0  FF FF 7F F0 FF FF 7F 72  r127E9.........r
1090: 31 32 38 0E 80 2B DA 92  08 01 D3 80 23 59 04 D8  128..+......#Y..
10A0: 92 08 01 64 80 5B D4 80  D8 92 08 01 D8 92 08 01  ...d.[..........
10B0: 63 68 75 30 52 39 80 F0  FF FF 7F F0 FF FF 7F 72  chu0R9.........r
10C0: 31 32 38 45 39 80 F0 FF  FF 7F F0 FF FF 7F 72 31  128E9.........r1
10D0: 32 39 0E 80 2B D8 92 08  01 D5 80 23 5B D4 80 D8  29..+......#[...
10E0: 92 08 01 D8 92 08 01 63  68 75 31 1C 4B 80 52 39  .......chu1.K.R9
10F0: 80 F0 FF FF 7F F0 FF FF  7F 72 31 32 39 45 39 80  .........r129E9.
1100: F0 FF FF 7F F0 FF FF 7F  72 31 33 30 0E 80 2B D8  ........r130..+.
1110: 92 08 01 D6 80 23 52 39  80 F0 FF FF 7F F0 FF FF  .....#R9........
1120: 7F 72 31 33 30 45 39 80  F0 FF FF 7F F0 FF FF 7F  .r130E9.........
1130: 72 31 33 31 0E 80 1C 3A  80 52 39 80 F0 FF FF 7F  r131...:.R9.....
1140: F0 FF FF 7F 72 31 33 31  45 39 80 F0 FF FF 7F F0  ....r131E9......
1150: FF FF 7F 72 31 33 32 0E  80 5B D7 80 D6 92 08 01  ...r132..[......
1160: D6 92 08 01 68 6E 64 30  2B D6 92 08 01 D8 80 23  ....hnd0+......#
1170: 1C 38 80 52 39 80 F0 FF  FF 7F F0 FF FF 7F 72 31  .8.R9.........r1
1180: 33 32 45 39 80 F0 FF FF  7F F0 FF FF 7F 72 31 33  32E9.........r13
1190: 33 0E 80 BA C1 92 08 01  8D 80 8E 80 8F 80 D9 80  3...............
11A0: BA DA 92 08 01 91 80 92  80 93 80 46 80 BA DB 92  ...........F....
11B0: 08 01 94 80 95 80 45 80  96 80 BA DC 92 08 01 97  ......E.........
11C0: 80 98 80 45 80 99 80 BA  B4 92 08 01 9A 80 9B 80  ...E............
11D0: 45 80 46 80 BA B5 92 08  01 9C 80 9D 80 9E 80 46  E.F............F
11E0: 80 BA B6 92 08 01 9F 80  A0 80 6A 80 46 80 BA B7  ..........j.F...
11F0: 92 08 01 A1 80 A2 80 A3  80 46 80 27 10 B4 92 08  .........F.'....
1200: 01 0A 27 10 B5 92 08 01  0A 27 10 B6 92 08 01 0A  ..'......'......
1210: 27 10 B7 92 08 01 0A 5B  D7 80 D6 92 08 01 D6 92  '......[........
1220: 08 01 68 6E 64 31 5B D4  80 D8 92 08 01 D8 92 08  ..hnd1[.........
1230: 01 63 68 75 32 03 02 10  DA 80 27 10 B3 92 08 01  .chu2.....'.....
1240: 0C 2B D8 92 08 01 DB 80  2A 10 B3 92 08 01 79 00  .+......*.....y.
1250: D6 92 08 01 B8 92 08 01  23 53 D8 92 08 01 D8 92  ........#S......
1260: 08 01 63 68 75 32 52 39  80 F0 FF FF 7F F0 FF FF  ..chu2R9........
1270: 7F 72 31 33 33 45 39 80  F0 FF FF 7F F0 FF FF 7F  .r133E9.........
1280: 72 31 31 39 0E 80 7B D6  92 08 01 5B D7 80 D6 92  r119..{....[....
1290: 08 01 D6 92 08 01 6B 6F  62 30 5B DC 80 D8 92 08  ......kob0[.....
12A0: 01 D8 92 08 01 6B 6F 62  30 1C A6 80 52 39 80 F0  .....kob0...R9..
12B0: FF FF 7F F0 FF FF 7F 72  31 31 39 45 39 80 F0 FF  .......r119E9...
12C0: FF 7F F0 FF FF 7F 72 31  32 32 0E 80 1C 4C 80 52  ......r122...L.R
12D0: 39 80 F0 FF FF 7F F0 FF  FF 7F 72 31 32 32 45 39  9.........r122E9
12E0: 80 F0 FF FF 7F F0 FF FF  7F 72 31 33 37 0E 80 1C  .........r137...
12F0: BF 80 52 39 80 F0 FF FF  7F F0 FF FF 7F 72 31 33  ..R9.........r13
1300: 37 45 39 80 F0 FF FF 7F  F0 FF FF 7F 72 31 34 37  7E9.........r147
1310: 0E 80 1C 3A 80 52 39 80  F0 FF FF 7F F0 FF FF 7F  ...:.R9.........
1320: 72 31 34 37 45 39 80 F0  FF FF 7F F0 FF FF 7F 72  r147E9.........r
1330: 31 32 30 0E 80 1C 42 80  52 39 80 F0 FF FF 7F F0  120...B.R9......
1340: FF FF 7F 72 31 32 30 45  39 80 F0 FF FF 7F F0 FF  ...r120E9.......
1350: FF 7F 72 31 33 38 0E 80  1C 4B 80 27 10 B8 92 08  ..r138...K.'....
1360: 01 0A 6C B8 92 08 01 DD  80 03 80 BA B8 92 08 01  ..l.............
1370: A4 80 A5 80 45 80 46 80  1C 42 80 52 39 80 F0 FF  ....E.F..B.R9...
1380: FF 7F F0 FF FF 7F 72 31  33 38 45 39 80 F0 FF FF  ......r138E9....
1390: 7F F0 FF FF 7F 72 31 33  34 0E 80 2B C1 92 08 01  .....r134..+....
13A0: DE 80 23 4A C1 92 08 01  B8 92 08 01 52 39 80 F0  ..#J........R9..
13B0: FF FF 7F F0 FF FF 7F 72  31 33 34 45 39 80 F0 FF  .......r134E9...
13C0: FF 7F F0 FF FF 7F 72 31  33 39 0E 80 6F 76 C1 92  ......r139..ov..
13D0: 08 01 2B C1 92 08 01 DF  80 23 52 39 80 F0 FF FF  ..+......#R9....
13E0: 7F F0 FF FF 7F 72 31 33  39 45 39 80 F0 FF FF 7F  .....r139E9.....
13F0: F0 FF FF 7F 72 31 33 35  0E 80 2B DA 92 08 01 E0  ....r135..+.....
1400: 80 23 5D 0E 80 38 80 52  39 80 F0 FF FF 7F F0 FF  .#]..8.R9.......
1410: FF 7F 72 31 33 35 45 39  80 F0 FF FF 7F F0 FF FF  ..r135E9........
1420: 7F 72 31 34 30 0E 80 1C  38 80 1A 9B 2E 1C C2 80  .r140...8.......
1430: 59 05 F0 FF FF 7F 00 27  10 F0 FF FF 7F 09 52 39  Y......'......R9
1440: 80 F0 FF FF 7F F0 FF FF  7F 72 31 34 30 35 E1 80  .........r1405..
1450: 78 1C 04 80 AB 09 1C 04  80 AB 11 0E 80 1C 03 80  x...............
1460: 46 00 45 3A 80 F0 FF FF  7F F0 FF FF 7F 66 64 69  F.E:.........fdi
1470: 32 0E 80 21 00                                    2..!.           
```

#### Opcodes

```
  0: 0x0001 [0x42] SET_CLI_EVENT_CANCEL_DATA()
  1: 0x0002 [0x1A] CALL_SUBROUTINE(address=0x2E9B)
  2: 0x0005 [0x46] CAMERA_CONTROL: Disable user control
  3: 0x0007 [0x38] SET_CLIENT_EVENT_MODE(mode=19*)
  4: 0x000A [0x4E] SET_ENTITY_HIDE_FLAG: Show LocalPlayer
  5: 0x0010 [0x34] LOAD_UNLOAD_ZONE(zone_id=129*)
  6: 0x0013 [0x77] SET_EVENT_TIME_WEATHER(hour=255*, weather=1*)
  7: 0x0018 [0x1C] WAIT(15* ticks)
  8: 0x001B [0xAB] EventEntity->UnknownFlag = 1 // Enable unknown flag
  9: 0x001D [0x27] REQ_SET(priority=0x10, entity_id=Rahal (ID: 17339098/0x010892DA), tag_num=0x04)
 10: 0x0024 [0x27] REQ_SET(priority=0x10, entity_id=Excenmille (ID: 17339094/0x010892D6), tag_num=0x04)
 11: 0x002B [0x27] REQ_SET(priority=0x10, entity_id=Bistillot (ID: 17339100/0x010892DC), tag_num=0x04)
 12: 0x0032 [0x27] REQ_SET(priority=0x10, entity_id=Cyranuce (ID: 17339099/0x010892DB), tag_num=0x04)
 13: 0x0039 [0x27] REQ_SET(priority=0x10, entity_id=Rongelouts N Distaud (ID: 17339073/0x010892C1), tag_num=0x04)
 14: 0x0040 [0x27] REQ_SET(priority=0x10, entity_id=Jayramus (ID: 17339096/0x010892D8), tag_num=0x04)
 15: 0x0047 [0x27] REQ_SET(priority=0x10, entity_id=Leuonard (ID: 17339060/0x010892B4), tag_num=0x04)
 16: 0x004E [0x27] REQ_SET(priority=0x10, entity_id=Oliverain (ID: 17339061/0x010892B5), tag_num=0x04)
 17: 0x0055 [0x27] REQ_SET(priority=0x10, entity_id=kisiC (ID: 17339062/0x010892B6), tag_num=0x04)
 18: 0x005C [0x27] REQ_SET(priority=0x10, entity_id=Dissaud (ID: 17339063/0x010892B7), tag_num=0x04)
 19: 0x0063 [0x27] REQ_SET(priority=0x10, entity_id=Ganathein (ID: 17339064/0x010892B8), tag_num=0x04)
 20: 0x006A [0x27] REQ_SET(priority=0x10, entity_id=Kingslayer Doggvdegg (ID: 17339097/0x010892D9), tag_num=0x04)
 21: 0x0071 [0x27] REQ_SET(priority=0x10, entity_id=Kingslayer Doggvdegg (ID: 17339074/0x010892C2), tag_num=0x04)
 22: 0x0078 [0x27] REQ_SET(priority=0x10, entity_id=Unnamed NPC (ID: 17339071/0x010892BF), tag_num=0x04)
 23: 0x007F [0x27] REQ_SET(priority=0x10, entity_id=onoA (ID: 17339065/0x010892B9), tag_num=0x04)
 24: 0x0086 [0x27] REQ_SET(priority=0x10, entity_id=Gorakbok (ID: 17339066/0x010892BA), tag_num=0x04)
 25: 0x008D [0x27] REQ_SET(priority=0x10, entity_id=Voshekglok (ID: 17339067/0x010892BB), tag_num=0x04)
 26: 0x0094 [0x27] REQ_SET(priority=0x10, entity_id=tueA (ID: 17339068/0x010892BC), tag_num=0x04)
 27: 0x009B [0x27] REQ_SET(priority=0x10, entity_id=tueB (ID: 17339069/0x010892BD), tag_num=0x04)
 28: 0x00A2 [0x27] REQ_SET(priority=0x10, entity_id=tueC (ID: 17339070/0x010892BE), tag_num=0x04)
 29: 0x00A9 [0x27] REQ_SET(priority=0x10, entity_id=??? (ID: 17339072/0x010892C0), tag_num=0x04)
 30: 0x00B0 [0x27] REQ_SET(priority=0x10, entity_id=??? (ID: 17339059/0x010892B3), tag_num=0x04)
 31: 0x00B7 [0x92] Excenmille (ID: 17339094/0x010892D6)->Render.Flags3 ^= 0x01
 32: 0x00BD [0x92] Rahal (ID: 17339098/0x010892DA)->Render.Flags3 ^= 0x01
 33: 0x00C3 [0x92] Bistillot (ID: 17339100/0x010892DC)->Render.Flags3 ^= 0x01
 34: 0x00C9 [0x92] Cyranuce (ID: 17339099/0x010892DB)->Render.Flags3 ^= 0x01
 35: 0x00CF [0x92] Rongelouts N Distaud (ID: 17339073/0x010892C1)->Render.Flags3 ^= 0x01
 36: 0x00D5 [0x92] Jayramus (ID: 17339096/0x010892D8)->Render.Flags3 ^= 0x01
 37: 0x00DB [0x92] Leuonard (ID: 17339060/0x010892B4)->Render.Flags3 ^= 0x01
 38: 0x00E1 [0x92] Oliverain (ID: 17339061/0x010892B5)->Render.Flags3 ^= 0x01
 39: 0x00E7 [0x92] kisiC (ID: 17339062/0x010892B6)->Render.Flags3 ^= 0x01
 40: 0x00ED [0x92] Dissaud (ID: 17339063/0x010892B7)->Render.Flags3 ^= 0x01
 41: 0x00F3 [0x92] Ganathein (ID: 17339064/0x010892B8)->Render.Flags3 ^= 0x01
 42: 0x00F9 [0x92] Kingslayer Doggvdegg (ID: 17339097/0x010892D9)->Render.Flags3 ^= 0x01
 43: 0x00FF [0x92] Kingslayer Doggvdegg (ID: 17339074/0x010892C2)->Render.Flags3 ^= 0x01
 44: 0x0105 [0x92] Unnamed NPC (ID: 17339071/0x010892BF)->Render.Flags3 ^= 0x01
 45: 0x010B [0x92] ??? (ID: 17339072/0x010892C0)->Render.Flags3 ^= 0x01
 46: 0x0111 [0x92] ??? (ID: 17339059/0x010892B3)->Render.Flags3 ^= 0x01
 47: 0x0117 [0x92] onoA (ID: 17339065/0x010892B9)->Render.Flags3 ^= 0x01
 48: 0x011D [0x92] Gorakbok (ID: 17339066/0x010892BA)->Render.Flags3 ^= 0x01
 49: 0x0123 [0x92] Voshekglok (ID: 17339067/0x010892BB)->Render.Flags3 ^= 0x01
 50: 0x0129 [0x92] tueA (ID: 17339068/0x010892BC)->Render.Flags3 ^= 0x01
 51: 0x012F [0x92] tueB (ID: 17339069/0x010892BD)->Render.Flags3 ^= 0x01
 52: 0x0135 [0x92] tueC (ID: 17339070/0x010892BE)->Render.Flags3 ^= 0x01
 53: 0x013B [0x94] LocalPlayer->Render.Flags3 ^= 0x01
 54: 0x0141 [0x94] Excenmille (ID: 17339094/0x010892D6)->Render.Flags3 ^= 0x01
 55: 0x0147 [0x94] Rongelouts N Distaud (ID: 17339073/0x010892C1)->Render.Flags3 ^= 0x01
 56: 0x014D [0x94] Jayramus (ID: 17339096/0x010892D8)->Render.Flags3 ^= 0x01
 57: 0x0153 [0x94] Leuonard (ID: 17339060/0x010892B4)->Render.Flags3 ^= 0x01
 58: 0x0159 [0x94] Oliverain (ID: 17339061/0x010892B5)->Render.Flags3 ^= 0x01
 59: 0x015F [0x94] kisiC (ID: 17339062/0x010892B6)->Render.Flags3 ^= 0x01
 60: 0x0165 [0x94] Dissaud (ID: 17339063/0x010892B7)->Render.Flags3 ^= 0x01
 61: 0x016B [0x94] Ganathein (ID: 17339064/0x010892B8)->Render.Flags3 ^= 0x01
 62: 0x0171 [0x94] Kingslayer Doggvdegg (ID: 17339097/0x010892D9)->Render.Flags3 ^= 0x01
 63: 0x0177 [0x94] onoA (ID: 17339065/0x010892B9)->Render.Flags3 ^= 0x01
 64: 0x017D [0x94] Gorakbok (ID: 17339066/0x010892BA)->Render.Flags3 ^= 0x01
 65: 0x0183 [0x94] Voshekglok (ID: 17339067/0x010892BB)->Render.Flags3 ^= 0x01
 66: 0x0189 [0x94] tueA (ID: 17339068/0x010892BC)->Render.Flags3 ^= 0x01
 67: 0x018F [0x94] tueB (ID: 17339069/0x010892BD)->Render.Flags3 ^= 0x01
 68: 0x0195 [0x94] tueC (ID: 17339070/0x010892BE)->Render.Flags3 ^= 0x01
 69: 0x019B [0x59] UPDATE_ENTITY_DATA: LocalPlayer->Render.Flags0 |= 0x200000
 70: 0x01A2 [0x59] UPDATE_ENTITY_DATA: Kingslayer Doggvdegg (ID: 17339074/0x010892C2)->Render.Flags0 |= 0x200000
 71: 0x01A9 [0xBA] SET_ENTITY_POSITION(entity_id=LocalPlayer, pos_x=475.937*, pos_z=-169.369*, pos_y=19.662*, direction=60.4°*)
 72: 0x01B6 [0xBA] SET_ENTITY_POSITION(entity_id=Excenmille (ID: 17339094/0x010892D6), pos_x=479.556*, pos_z=-177.210*, pos_y=20.999*, direction=24.3°*)
 73: 0x01C3 [0xBA] SET_ENTITY_POSITION(entity_id=Kingslayer Doggvdegg (ID: 17339097/0x010892D9), pos_x=479.556*, pos_z=-177.210*, pos_y=20.999*, direction=198.5°*)
 74: 0x01D0 [0xBA] SET_ENTITY_POSITION(entity_id=Kingslayer Doggvdegg (ID: 17339074/0x010892C2), pos_x=0.000*, pos_z=-0.001*, pos_y=0.000*, direction=202.1°*)
 75: 0x01DD [0xBA] SET_ENTITY_POSITION(entity_id=Rahal (ID: 17339098/0x010892DA), pos_x=0.000*, pos_z=0.000*, pos_y=0.000*, direction=97.1°*)
 76: 0x01EA [0xBA] SET_ENTITY_POSITION(entity_id=Cyranuce (ID: 17339099/0x010892DB), pos_x=0.000*, pos_z=0.000*, pos_y=0.000*, direction=97.1°*)
 77: 0x01F7 [0xBA] SET_ENTITY_POSITION(entity_id=Bistillot (ID: 17339100/0x010892DC), pos_x=0.000*, pos_z=0.000*, pos_y=0.000*, direction=97.1°*)
 78: 0x0204 [0xBA] SET_ENTITY_POSITION(entity_id=Rongelouts N Distaud (ID: 17339073/0x010892C1), pos_x=0.000*, pos_z=0.000*, pos_y=0.000*, direction=97.1°*)
 79: 0x0211 [0xBA] SET_ENTITY_POSITION(entity_id=tueA (ID: 17339068/0x010892BC), pos_x=0.000*, pos_z=0.000*, pos_y=0.000*, direction=97.1°*)
 80: 0x021E [0xBA] SET_ENTITY_POSITION(entity_id=tueB (ID: 17339069/0x010892BD), pos_x=0.000*, pos_z=0.000*, pos_y=0.000*, direction=97.1°*)
 81: 0x022B [0xBA] SET_ENTITY_POSITION(entity_id=tueC (ID: 17339070/0x010892BE), pos_x=0.000*, pos_z=0.000*, pos_y=0.000*, direction=97.1°*)
 82: 0x0238 [0xBA] SET_ENTITY_POSITION(entity_id=onoA (ID: 17339065/0x010892B9), pos_x=448.780*, pos_z=-224.048*, pos_y=20.426*, direction=278.7°*)
 83: 0x0245 [0xBA] SET_ENTITY_POSITION(entity_id=Gorakbok (ID: 17339066/0x010892BA), pos_x=451.534*, pos_z=-229.003*, pos_y=20.083*, direction=280.7°*)
 84: 0x0252 [0xBA] SET_ENTITY_POSITION(entity_id=Voshekglok (ID: 17339067/0x010892BB), pos_x=454.944*, pos_z=-234.415*, pos_y=19.912*, direction=281.9°*)
 85: 0x025F [0xBA] SET_ENTITY_POSITION(entity_id=Jayramus (ID: 17339096/0x010892D8), pos_x=465.012*, pos_z=-163.207*, pos_y=20.794*, direction=97.1°*)
 86: 0x026C [0xBA] SET_ENTITY_POSITION(entity_id=Leuonard (ID: 17339060/0x010892B4), pos_x=466.033*, pos_z=-157.596*, pos_y=20.867*, direction=97.1°*)
 87: 0x0279 [0xBA] SET_ENTITY_POSITION(entity_id=Oliverain (ID: 17339061/0x010892B5), pos_x=468.873*, pos_z=-156.512*, pos_y=19.914*, direction=97.1°*)
 88: 0x0286 [0xBA] SET_ENTITY_POSITION(entity_id=kisiC (ID: 17339062/0x010892B6), pos_x=474.504*, pos_z=-155.667*, pos_y=19.461*, direction=97.1°*)
 89: 0x0293 [0xBA] SET_ENTITY_POSITION(entity_id=Dissaud (ID: 17339063/0x010892B7), pos_x=460.948*, pos_z=-170.031*, pos_y=19.754*, direction=97.1°*)
 90: 0x02A0 [0xBA] SET_ENTITY_POSITION(entity_id=Ganathein (ID: 17339064/0x010892B8), pos_x=458.323*, pos_z=-164.551*, pos_y=20.337*, direction=129.5°*)
 91: 0x02AD [0xBA] SET_ENTITY_POSITION(entity_id=Unnamed NPC (ID: 17339071/0x010892BF), pos_x=482.150*, pos_z=-167.157*, pos_y=20.117*, direction=170.9°*)
 92: 0x02BA [0x4A] LocalPlayer looks at Kingslayer Doggvdegg (ID: 17339097/0x010892D9)
 93: 0x02C3 [0x4A] Leuonard (ID: 17339060/0x010892B4) looks at Kingslayer Doggvdegg (ID: 17339097/0x010892D9)
 94: 0x02CC [0x4A] Oliverain (ID: 17339061/0x010892B5) looks at Kingslayer Doggvdegg (ID: 17339097/0x010892D9)
 95: 0x02D5 [0x4A] kisiC (ID: 17339062/0x010892B6) looks at Kingslayer Doggvdegg (ID: 17339097/0x010892D9)
 96: 0x02DE [0x4A] Dissaud (ID: 17339063/0x010892B7) looks at Kingslayer Doggvdegg (ID: 17339097/0x010892D9)
 97: 0x02E7 [0x4A] Ganathein (ID: 17339064/0x010892B8) looks at Kingslayer Doggvdegg (ID: 17339097/0x010892D9)
 98: 0x02F0 [0x4A] Jayramus (ID: 17339096/0x010892D8) looks at Kingslayer Doggvdegg (ID: 17339097/0x010892D9)
 99: 0x02F9 [0x7B] LocalPlayer stops talking
100: 0x02FE [0x7B] Leuonard (ID: 17339060/0x010892B4) stops talking
101: 0x0303 [0x7B] Oliverain (ID: 17339061/0x010892B5) stops talking
102: 0x0308 [0x7B] kisiC (ID: 17339062/0x010892B6) stops talking
103: 0x030D [0x7B] Dissaud (ID: 17339063/0x010892B7) stops talking
104: 0x0312 [0x7B] Ganathein (ID: 17339064/0x010892B8) stops talking
105: 0x0317 [0x7B] Jayramus (ID: 17339096/0x010892D8) stops talking
106: 0x031C [0x27] REQ_SET(priority=0x10, entity_id=LocalPlayer, tag_num=0x08)
107: 0x0323 [0x27] REQ_SET(priority=0x10, entity_id=Rahal (ID: 17339098/0x010892DA), tag_num=0x18)
108: 0x032A [0x27] REQ_SET(priority=0x10, entity_id=Leuonard (ID: 17339060/0x010892B4), tag_num=0x0B)
109: 0x0331 [0x27] REQ_SET(priority=0x10, entity_id=Oliverain (ID: 17339061/0x010892B5), tag_num=0x0B)
110: 0x0338 [0x27] REQ_SET(priority=0x10, entity_id=kisiC (ID: 17339062/0x010892B6), tag_num=0x0B)
111: 0x033F [0x27] REQ_SET(priority=0x10, entity_id=Dissaud (ID: 17339063/0x010892B7), tag_num=0x0B)
112: 0x0346 [0x27] REQ_SET(priority=0x10, entity_id=Ganathein (ID: 17339064/0x010892B8), tag_num=0x0B)
113: 0x034D [0x27] REQ_SET(priority=0x10, entity_id=tueA (ID: 17339068/0x010892BC), tag_num=0x0A)
114: 0x0354 [0x27] REQ_SET(priority=0x10, entity_id=onoA (ID: 17339065/0x010892B9), tag_num=0x0F)
115: 0x035B [0x80] LOAD_WAIT(entity=LocalPlayer)
116: 0x0360 [0x80] LOAD_WAIT(entity=Rahal (ID: 17339098/0x010892DA))
117: 0x0365 [0x80] LOAD_WAIT(entity=Cyranuce (ID: 17339099/0x010892DB))
118: 0x036A [0x80] LOAD_WAIT(entity=Excenmille (ID: 17339094/0x010892D6))
119: 0x036F [0x80] LOAD_WAIT(entity=Rongelouts N Distaud (ID: 17339073/0x010892C1))
120: 0x0374 [0x80] LOAD_WAIT(entity=Jayramus (ID: 17339096/0x010892D8))
121: 0x0379 [0x80] LOAD_WAIT(entity=Leuonard (ID: 17339060/0x010892B4))
122: 0x037E [0x80] LOAD_WAIT(entity=Oliverain (ID: 17339061/0x010892B5))
123: 0x0383 [0x80] LOAD_WAIT(entity=kisiC (ID: 17339062/0x010892B6))
124: 0x0388 [0x80] LOAD_WAIT(entity=Dissaud (ID: 17339063/0x010892B7))
125: 0x038D [0x80] LOAD_WAIT(entity=Ganathein (ID: 17339064/0x010892B8))
126: 0x0392 [0x80] LOAD_WAIT(entity=Kingslayer Doggvdegg (ID: 17339097/0x010892D9))
127: 0x0397 [0x80] LOAD_WAIT(entity=onoA (ID: 17339065/0x010892B9))
128: 0x039C [0x80] LOAD_WAIT(entity=Gorakbok (ID: 17339066/0x010892BA))
129: 0x03A1 [0x80] LOAD_WAIT(entity=Voshekglok (ID: 17339067/0x010892BB))
130: 0x03A6 [0x2C] CREATE_SCHEDULER_TASK: Create scheduler "dead" with entities [Unnamed NPC (ID: 17339071/0x010892BF), Unnamed NPC (ID: 17339071/0x010892BF)]
131: 0x03B3 [0x5C] MUSIC_CONTROL: Set Idle (Day) music to song 217*
132: 0x03B7 [0x5C] MUSIC_CONTROL: Set Idle (Night) music to song 217*
133: 0x03BB [0x5C] MUSIC_CONTROL: Set Combat (Solo) music to song 217*
134: 0x03BF [0x5C] MUSIC_CONTROL: Set Combat (Party) music to song 217*
135: 0x03C3 [0x5B] LOAD_EXT_SCHEDULER: Load scheduler "nar0" with entities [Kingslayer Doggvdegg (ID: 17339074/0x010892C2), Kingslayer Doggvdegg (ID: 17339074/0x010892C2)], work=2686*
136: 0x03D2 [0x5B] LOAD_EXT_SCHEDULER: Load scheduler "btjl" with entities [Excenmille (ID: 17339094/0x010892D6), Excenmille (ID: 17339094/0x010892D6)], work=2729*
137: 0x03E1 [0x5B] LOAD_EXT_SCHEDULER: Load scheduler "fsh0" with entities [Kingslayer Doggvdegg (ID: 17339097/0x010892D9), Kingslayer Doggvdegg (ID: 17339097/0x010892D9)], work=2686*
138: 0x03F0 [0x1C] WAIT(120* ticks)
139: 0x03F3 [0x9A] WAIT_MUSIC_SERVER()
140: 0x03F4 [0x45] LOAD_SCHEDULED_TASK: Load scheduler "r101" with entities [LocalPlayer, LocalPlayer], work=[493*, 0*]
141: 0x0405 [0x1A] CALL_SUBROUTINE(address=0x2E7A)
142: 0x0408 [0x1C] WAIT(200* ticks)
143: 0x040B [0x2C] CREATE_SCHEDULER_TASK: Create scheduler "dead" with entities [tueA (ID: 17339068/0x010892BC), tueA (ID: 17339068/0x010892BC)]
144: 0x0418 [0x2C] CREATE_SCHEDULER_TASK: Create scheduler "dead" with entities [tueB (ID: 17339069/0x010892BD), tueB (ID: 17339069/0x010892BD)]
145: 0x0425 [0x2C] CREATE_SCHEDULER_TASK: Create scheduler "dead" with entities [tueC (ID: 17339070/0x010892BE), tueC (ID: 17339070/0x010892BE)]
146: 0x0432 [0x52] END_LOAD_SCHEDULER: End scheduler "r101" with entities [LocalPlayer, LocalPlayer], work=493*
147: 0x0441 [0x45] LOAD_SCHEDULED_TASK: Load scheduler "r102" with entities [LocalPlayer, LocalPlayer], work=[493*, 0*]
148: 0x0452 [0x2B] Kingslayer Doggvdegg (ID: 17339097/0x010892D9) [7887*]:
    → "Ugh... You do well to overwhelm me..."
149: 0x0459 [0x23] WAIT_FOR_DIALOG_INTERACTION
150: 0x045A [0x2B] Kingslayer Doggvdegg (ID: 17339097/0x010892D9) [7888*]:
    → "But..."
151: 0x0461 [0x23] WAIT_FOR_DIALOG_INTERACTION
152: 0x0462 [0x52] END_LOAD_SCHEDULER: End scheduler "r102" with entities [LocalPlayer, LocalPlayer], work=493*
153: 0x0471 [0x45] LOAD_SCHEDULED_TASK: Load scheduler "r103" with entities [LocalPlayer, LocalPlayer], work=[493*, 0*]
154: 0x0482 [0x5B] LOAD_EXT_SCHEDULER: Load scheduler "fshw" with entities [Kingslayer Doggvdegg (ID: 17339097/0x010892D9), Kingslayer Doggvdegg (ID: 17339097/0x010892D9)], work=2686*
155: 0x0491 [0x2B] Kingslayer Doggvdegg (ID: 17339097/0x010892D9) [7889*]:
    → "Bwahahaha! You lose battle!"
156: 0x0498 [0x23] WAIT_FOR_DIALOG_INTERACTION
157: 0x0499 [0x2B] Kingslayer Doggvdegg (ID: 17339097/0x010892D9) [7890*]:
    → "The day belong to you...if not for my reinforcement!"
158: 0x04A0 [0x23] WAIT_FOR_DIALOG_INTERACTION
159: 0x04A1 [0x59] UPDATE_ENTITY_DATA: Set onoA (ID: 17339065/0x010892B9) main speed = 42* * 0.1
160: 0x04A9 [0x59] UPDATE_ENTITY_DATA: Set Gorakbok (ID: 17339066/0x010892BA) main speed = 38* * 0.1
161: 0x04B1 [0x27] REQ_SET(priority=0x10, entity_id=onoA (ID: 17339065/0x010892B9), tag_num=0x0D)
162: 0x04B8 [0x1C] WAIT(5* ticks)
163: 0x04BB [0x27] REQ_SET(priority=0x10, entity_id=Voshekglok (ID: 17339067/0x010892BB), tag_num=0x13)
164: 0x04C2 [0x1C] WAIT(5* ticks)
165: 0x04C5 [0x27] REQ_SET(priority=0x10, entity_id=Gorakbok (ID: 17339066/0x010892BA), tag_num=0x0F)
166: 0x04CC [0x1C] WAIT(5* ticks)
167: 0x04CF [0x52] END_LOAD_SCHEDULER: End scheduler "r103" with entities [LocalPlayer, LocalPlayer], work=493*
168: 0x04DE [0x45] LOAD_SCHEDULED_TASK: Load scheduler "r104" with entities [LocalPlayer, LocalPlayer], work=[493*, 0*]
169: 0x04EF [0x1C] WAIT(180* ticks)
170: 0x04F2 [0x52] END_LOAD_SCHEDULER: End scheduler "r104" with entities [LocalPlayer, LocalPlayer], work=493*
171: 0x0501 [0x45] LOAD_SCHEDULED_TASK: Load scheduler "r105" with entities [LocalPlayer, LocalPlayer], work=[493*, 0*]
172: 0x0512 [0x7A] VM_CONTROL: Reset VM for onoA (ID: 17339065/0x010892B9)
173: 0x0518 [0x7A] VM_CONTROL: Reset VM for Gorakbok (ID: 17339066/0x010892BA)
174: 0x051E [0x7A] VM_CONTROL: Reset VM for Voshekglok (ID: 17339067/0x010892BB)
175: 0x0524 [0xBA] SET_ENTITY_POSITION(entity_id=onoA (ID: 17339065/0x010892B9), pos_x=479.142*, pos_z=-199.718*, pos_y=19.999*, direction=263.7°*)
176: 0x0531 [0xBA] SET_ENTITY_POSITION(entity_id=Voshekglok (ID: 17339067/0x010892BB), pos_x=476.693*, pos_z=-205.455*, pos_y=19.964*, direction=263.7°*)
177: 0x053E [0x2B] Kingslayer Doggvdegg (ID: 17339097/0x010892D9) [7891*]:
    → "Bloodwing Horde! Decimate enemy! We take no prisoner!"
178: 0x0545 [0x23] WAIT_FOR_DIALOG_INTERACTION
179: 0x0546 [0x27] REQ_SET(priority=0x10, entity_id=onoA (ID: 17339065/0x010892B9), tag_num=0x0E)
180: 0x054D [0x1C] WAIT(5* ticks)
181: 0x0550 [0x1C] WAIT(5* ticks)
182: 0x0553 [0x27] REQ_SET(priority=0x10, entity_id=Voshekglok (ID: 17339067/0x010892BB), tag_num=0x14)
183: 0x055A [0x52] END_LOAD_SCHEDULER: End scheduler "r105" with entities [LocalPlayer, LocalPlayer], work=493*
184: 0x0569 [0x45] LOAD_SCHEDULED_TASK: Load scheduler "r143" with entities [LocalPlayer, LocalPlayer], work=[493*, 0*]
185: 0x057A [0x1C] WAIT(120* ticks)
186: 0x057D [0x52] END_LOAD_SCHEDULER: End scheduler "r143" with entities [LocalPlayer, LocalPlayer], work=493*
187: 0x058C [0x45] LOAD_SCHEDULED_TASK: Load scheduler "r145" with entities [LocalPlayer, LocalPlayer], work=[493*, 0*]
188: 0x059D [0x5D] SET_MUSIC_VOLUME(volume=0*, fade_time=120*)
189: 0x05A2 [0x1C] WAIT(10* ticks)
190: 0x05A5 [0x2C] CREATE_SCHEDULER_TASK: Create scheduler "dead" with entities [Gorakbok (ID: 17339066/0x010892BA), Gorakbok (ID: 17339066/0x010892BA)]
191: 0x05B2 [0x1C] WAIT(10* ticks)
192: 0x05B5 [0x2C] CREATE_SCHEDULER_TASK: Create scheduler "dead" with entities [Voshekglok (ID: 17339067/0x010892BB), Voshekglok (ID: 17339067/0x010892BB)]
193: 0x05C2 [0x1C] WAIT(100* ticks)
194: 0x05C5 [0x52] END_LOAD_SCHEDULER: End scheduler "r145" with entities [LocalPlayer, LocalPlayer], work=493*
195: 0x05D4 [0x45] LOAD_SCHEDULED_TASK: Load scheduler "r107" with entities [LocalPlayer, LocalPlayer], work=[493*, 0*]
196: 0x05E5 [0x27] REQ_SET(priority=0x10, entity_id=Leuonard (ID: 17339060/0x010892B4), tag_num=0x0A)
197: 0x05EC [0x27] REQ_SET(priority=0x10, entity_id=Oliverain (ID: 17339061/0x010892B5), tag_num=0x0A)
198: 0x05F3 [0x27] REQ_SET(priority=0x10, entity_id=kisiC (ID: 17339062/0x010892B6), tag_num=0x0A)
199: 0x05FA [0x27] REQ_SET(priority=0x10, entity_id=Dissaud (ID: 17339063/0x010892B7), tag_num=0x0A)
200: 0x0601 [0x27] REQ_SET(priority=0x10, entity_id=Ganathein (ID: 17339064/0x010892B8), tag_num=0x0A)
201: 0x0608 [0xBA] SET_ENTITY_POSITION(entity_id=Leuonard (ID: 17339060/0x010892B4), pos_x=464.775*, pos_z=-205.555*, pos_y=20.063*, direction=334.7°*)
202: 0x0615 [0xBA] SET_ENTITY_POSITION(entity_id=Oliverain (ID: 17339061/0x010892B5), pos_x=458.972*, pos_z=-206.418*, pos_y=20.135*, direction=338.0°*)
203: 0x0622 [0xBA] SET_ENTITY_POSITION(entity_id=kisiC (ID: 17339062/0x010892B6), pos_x=469.322*, pos_z=-206.625*, pos_y=20.082*, direction=65.1°*)
204: 0x062F [0xBA] SET_ENTITY_POSITION(entity_id=Dissaud (ID: 17339063/0x010892B7), pos_x=458.291*, pos_z=-214.565*, pos_y=18.135*, direction=351.9°*)
205: 0x063C [0xBA] SET_ENTITY_POSITION(entity_id=Ganathein (ID: 17339064/0x010892B8), pos_x=449.289*, pos_z=-203.445*, pos_y=20.066*, direction=65.2°*)
206: 0x0649 [0x1C] WAIT(5* ticks)
207: 0x064C [0xBA] SET_ENTITY_POSITION(entity_id=Rongelouts N Distaud (ID: 17339073/0x010892C1), pos_x=478.533*, pos_z=-198.294*, pos_y=19.999*, direction=351.6°*)
208: 0x0659 [0x59] UPDATE_ENTITY_DATA: Set Rongelouts N Distaud (ID: 17339073/0x010892C1) main speed = 13* * 0.1
209: 0x0661 [0x27] REQ_SET(priority=0x10, entity_id=Rongelouts N Distaud (ID: 17339073/0x010892C1), tag_num=0x09)
210: 0x0668 [0x1C] WAIT(150* ticks)
211: 0x066B [0x2B] ??? (ID: 17339059/0x010892B3) [7892*]:
    → "General Doggvdegg! I fear I cannot comply with your orders."
212: 0x0672 [0x23] WAIT_FOR_DIALOG_INTERACTION
213: 0x0673 [0x2A] GET_REQ_LEVEL(level=16, entity_id=Rongelouts N Distaud (ID: 17339073/0x010892C1))
214: 0x0679 [0x1C] WAIT(10* ticks)
215: 0x067C [0x52] END_LOAD_SCHEDULER: End scheduler "r107" with entities [LocalPlayer, LocalPlayer], work=493*
216: 0x068B [0x45] LOAD_SCHEDULED_TASK: Load scheduler "r108" with entities [LocalPlayer, LocalPlayer], work=[493*, 0*]
217: 0x069C [0x5B] LOAD_EXT_SCHEDULER: Load scheduler "fsh1" with entities [Kingslayer Doggvdegg (ID: 17339097/0x010892D9), Kingslayer Doggvdegg (ID: 17339097/0x010892D9)], work=2686*
218: 0x06AB [0x1C] WAIT(10* ticks)
219: 0x06AE [0x5B] LOAD_EXT_SCHEDULER: Load scheduler "ron0" with entities [Rongelouts N Distaud (ID: 17339073/0x010892C1), Rongelouts N Distaud (ID: 17339073/0x010892C1)], work=1494*
220: 0x06BD [0xBA] SET_ENTITY_POSITION(entity_id=Gorakbok (ID: 17339066/0x010892BA), pos_x=482.106*, pos_z=-200.197*, pos_y=20.000*, direction=65.1°*)
221: 0x06CA [0xBA] SET_ENTITY_POSITION(entity_id=Voshekglok (ID: 17339067/0x010892BB), pos_x=456.263*, pos_z=-205.178*, pos_y=20.698*, direction=310.5°*)
222: 0x06D7 [0x1C] WAIT(50* ticks)
223: 0x06DA [0x2B] Kingslayer Doggvdegg (ID: 17339097/0x010892D9) [7893*]:
    → "What!? Who say that!?"
224: 0x06E1 [0x23] WAIT_FOR_DIALOG_INTERACTION
225: 0x06E2 [0x5C] MUSIC_CONTROL: Set Idle (Day) music to song 215*
226: 0x06E6 [0x5C] MUSIC_CONTROL: Set Idle (Night) music to song 215*
227: 0x06EA [0x5C] MUSIC_CONTROL: Set Combat (Solo) music to song 215*
228: 0x06EE [0x5C] MUSIC_CONTROL: Set Combat (Party) music to song 215*
229: 0x06F2 [0x9A] WAIT_MUSIC_SERVER()
230: 0x06F3 [0x52] END_LOAD_SCHEDULER: End scheduler "r108" with entities [LocalPlayer, LocalPlayer], work=493*
231: 0x0702 [0x45] LOAD_SCHEDULED_TASK: Load scheduler "r109" with entities [LocalPlayer, LocalPlayer], work=[493*, 0*]
232: 0x0713 [0x2B] Rongelouts N Distaud (ID: 17339073/0x010892C1) [7894*]:
    → "You would presume to issue orders to Rongelouts N Distaud? Your insolence knows no bounds, pigman!"
233: 0x071A [0x23] WAIT_FOR_DIALOG_INTERACTION
234: 0x071B [0x1C] WAIT(5* ticks)
235: 0x071E [0xBA] SET_ENTITY_POSITION(entity_id=tueA (ID: 17339068/0x010892BC), pos_x=471.759*, pos_z=-208.510*, pos_y=20.211*, direction=65.2°*)
236: 0x072B [0xBA] SET_ENTITY_POSITION(entity_id=tueB (ID: 17339069/0x010892BD), pos_x=463.441*, pos_z=-206.667*, pos_y=19.816*, direction=65.2°*)
237: 0x0738 [0xBA] SET_ENTITY_POSITION(entity_id=tueC (ID: 17339070/0x010892BE), pos_x=460.184*, pos_z=-212.220*, pos_y=18.683*, direction=351.6°*)
238: 0x0745 [0x59] UPDATE_ENTITY_DATA: Set Leuonard (ID: 17339060/0x010892B4) main speed = 39* * 0.1
239: 0x074D [0x59] UPDATE_ENTITY_DATA: Set Oliverain (ID: 17339061/0x010892B5) main speed = 38* * 0.1
240: 0x0755 [0x59] UPDATE_ENTITY_DATA: Set kisiC (ID: 17339062/0x010892B6) main speed = 41* * 0.1
241: 0x075D [0x59] UPDATE_ENTITY_DATA: Set Dissaud (ID: 17339063/0x010892B7) main speed = 42* * 0.1
242: 0x0765 [0x59] UPDATE_ENTITY_DATA: Set Ganathein (ID: 17339064/0x010892B8) main speed = 40* * 0.1
243: 0x076D [0x27] REQ_SET(priority=0x10, entity_id=Oliverain (ID: 17339061/0x010892B5), tag_num=0x0E)
244: 0x0774 [0x1C] WAIT(5* ticks)
245: 0x0777 [0x27] REQ_SET(priority=0x10, entity_id=Leuonard (ID: 17339060/0x010892B4), tag_num=0x11)
246: 0x077E [0x27] REQ_SET(priority=0x10, entity_id=Dissaud (ID: 17339063/0x010892B7), tag_num=0x10)
247: 0x0785 [0x1C] WAIT(5* ticks)
248: 0x0788 [0x27] REQ_SET(priority=0x10, entity_id=kisiC (ID: 17339062/0x010892B6), tag_num=0x0F)
249: 0x078F [0x27] REQ_SET(priority=0x10, entity_id=Ganathein (ID: 17339064/0x010892B8), tag_num=0x10)
250: 0x0796 [0x52] END_LOAD_SCHEDULER: End scheduler "r109" with entities [LocalPlayer, LocalPlayer], work=493*
251: 0x07A5 [0x45] LOAD_SCHEDULED_TASK: Load scheduler "r144" with entities [LocalPlayer, LocalPlayer], work=[493*, 0*]
252: 0x07B6 [0x1C] WAIT(180* ticks)
253: 0x07B9 [0x59] UPDATE_ENTITY_DATA: Set Rahal (ID: 17339098/0x010892DA) main speed = 40* * 0.1
254: 0x07C1 [0x59] UPDATE_ENTITY_DATA: Set Cyranuce (ID: 17339099/0x010892DB) main speed = 40* * 0.1
255: 0x07C9 [0x59] UPDATE_ENTITY_DATA: Set Bistillot (ID: 17339100/0x010892DC) main speed = 25* * 0.1
256: 0x07D1 [0xBA] SET_ENTITY_POSITION(entity_id=Rahal (ID: 17339098/0x010892DA), pos_x=445.065*, pos_z=-199.814*, pos_y=19.999*, direction=45.3°*)
257: 0x07DE [0xBA] SET_ENTITY_POSITION(entity_id=Cyranuce (ID: 17339099/0x010892DB), pos_x=443.837*, pos_z=-196.395*, pos_y=19.511*, direction=65.2°*)
258: 0x07EB [0xBA] SET_ENTITY_POSITION(entity_id=Bistillot (ID: 17339100/0x010892DC), pos_x=440.136*, pos_z=-195.700*, pos_y=19.999*, direction=45.3°*)
259: 0x07F8 [0x27] REQ_SET(priority=0x10, entity_id=Rahal (ID: 17339098/0x010892DA), tag_num=0x16)
260: 0x07FF [0x1C] WAIT(5* ticks)
261: 0x0802 [0x27] REQ_SET(priority=0x10, entity_id=Cyranuce (ID: 17339099/0x010892DB), tag_num=0x15)
262: 0x0809 [0x27] REQ_SET(priority=0x10, entity_id=Bistillot (ID: 17339100/0x010892DC), tag_num=0x1D)
263: 0x0810 [0x1C] WAIT(10* ticks)
264: 0x0813 [0x52] END_LOAD_SCHEDULER: End scheduler "r144" with entities [LocalPlayer, LocalPlayer], work=493*
265: 0x0822 [0x45] LOAD_SCHEDULED_TASK: Load scheduler "r136" with entities [LocalPlayer, LocalPlayer], work=[493*, 0*]
266: 0x0833 [0x1C] WAIT(100* ticks)
267: 0x0836 [0x52] END_LOAD_SCHEDULER: End scheduler "r136" with entities [LocalPlayer, LocalPlayer], work=493*
268: 0x0845 [0x45] LOAD_SCHEDULED_TASK: Load scheduler "r110" with entities [LocalPlayer, LocalPlayer], work=[493*, 0*]
269: 0x0856 [0x81] SET_ENTITY_BLINKING(blink_flag=0x00, entity=Excenmille (ID: 17339094/0x010892D6))
270: 0x085C [0x03] Work_Zone[2] = 120*
271: 0x0861 [0x27] REQ_SET(priority=0x10, entity_id=??? (ID: 17339059/0x010892B3), tag_num=0x0C)
272: 0x0868 [0x2B] Rahal (ID: 17339098/0x010892DA) [7895*]:
    → "Excenmille!"
273: 0x086F [0x23] WAIT_FOR_DIALOG_INTERACTION
274: 0x0870 [0x2A] GET_REQ_LEVEL(level=16, entity_id=??? (ID: 17339059/0x010892B3))
275: 0x0876 [0x52] END_LOAD_SCHEDULER: End scheduler "r110" with entities [LocalPlayer, LocalPlayer], work=493*
276: 0x0885 [0x45] LOAD_SCHEDULED_TASK: Load scheduler "r111" with entities [LocalPlayer, LocalPlayer], work=[493*, 0*]
277: 0x0896 [0x5B] LOAD_EXT_SCHEDULER: Load scheduler "btjr" with entities [Excenmille (ID: 17339094/0x010892D6), Excenmille (ID: 17339094/0x010892D6)], work=2734*
278: 0x08A5 [0x03] Work_Zone[2] = 140*
279: 0x08AA [0x27] REQ_SET(priority=0x10, entity_id=??? (ID: 17339059/0x010892B3), tag_num=0x0C)
280: 0x08B1 [0x2B] Excenmille (ID: 17339094/0x010892D6) [7896*]:
    → "Rahal! Everyone!"
281: 0x08B8 [0x23] WAIT_FOR_DIALOG_INTERACTION
282: 0x08B9 [0xBA] SET_ENTITY_POSITION(entity_id=Rongelouts N Distaud (ID: 17339073/0x010892C1), pos_x=479.664*, pos_z=-187.695*, pos_y=20.996*, direction=248.8°*)
283: 0x08C6 [0xBA] SET_ENTITY_POSITION(entity_id=Rahal (ID: 17339098/0x010892DA), pos_x=482.307*, pos_z=-190.467*, pos_y=20.086*, direction=263.7°*)
284: 0x08D3 [0xBA] SET_ENTITY_POSITION(entity_id=Cyranuce (ID: 17339099/0x010892DB), pos_x=481.502*, pos_z=-192.708*, pos_y=19.999*, direction=258.6°*)
285: 0x08E0 [0xBA] SET_ENTITY_POSITION(entity_id=Bistillot (ID: 17339100/0x010892DC), pos_x=478.914*, pos_z=-198.923*, pos_y=19.999*, direction=255.8°*)
286: 0x08ED [0xBA] SET_ENTITY_POSITION(entity_id=Leuonard (ID: 17339060/0x010892B4), pos_x=475.437*, pos_z=-200.625*, pos_y=19.999*, direction=263.7°*)
287: 0x08FA [0xBA] SET_ENTITY_POSITION(entity_id=Oliverain (ID: 17339061/0x010892B5), pos_x=478.244*, pos_z=-190.983*, pos_y=20.230*, direction=263.7°*)
288: 0x0907 [0xBA] SET_ENTITY_POSITION(entity_id=kisiC (ID: 17339062/0x010892B6), pos_x=477.352*, pos_z=-195.689*, pos_y=20.000*, direction=263.7°*)
289: 0x0914 [0xBA] SET_ENTITY_POSITION(entity_id=Dissaud (ID: 17339063/0x010892B7), pos_x=484.347*, pos_z=-192.955*, pos_y=19.479*, direction=263.7°*)
290: 0x0921 [0xBA] SET_ENTITY_POSITION(entity_id=Ganathein (ID: 17339064/0x010892B8), pos_x=482.990*, pos_z=-198.810*, pos_y=19.999*, direction=263.7°*)
291: 0x092E [0x27] REQ_SET(priority=0x10, entity_id=Leuonard (ID: 17339060/0x010892B4), tag_num=0x0A)
292: 0x0935 [0x27] REQ_SET(priority=0x10, entity_id=Oliverain (ID: 17339061/0x010892B5), tag_num=0x0A)
293: 0x093C [0x27] REQ_SET(priority=0x10, entity_id=kisiC (ID: 17339062/0x010892B6), tag_num=0x0A)
294: 0x0943 [0x27] REQ_SET(priority=0x10, entity_id=Dissaud (ID: 17339063/0x010892B7), tag_num=0x0A)
295: 0x094A [0x27] REQ_SET(priority=0x10, entity_id=Ganathein (ID: 17339064/0x010892B8), tag_num=0x0A)
296: 0x0951 [0x2A] GET_REQ_LEVEL(level=16, entity_id=??? (ID: 17339059/0x010892B3))
297: 0x0957 [0x52] END_LOAD_SCHEDULER: End scheduler "r111" with entities [LocalPlayer, LocalPlayer], work=493*
298: 0x0966 [0x45] LOAD_SCHEDULED_TASK: Load scheduler "r112" with entities [LocalPlayer, LocalPlayer], work=[493*, 0*]
299: 0x0977 [0x7B] Excenmille (ID: 17339094/0x010892D6) stops talking
300: 0x097C [0x03] Work_Zone[2] = 60*
301: 0x0981 [0x27] REQ_SET(priority=0x10, entity_id=??? (ID: 17339059/0x010892B3), tag_num=0x0C)
302: 0x0988 [0x2B] Kingslayer Doggvdegg (ID: 17339097/0x010892D9) [7897*]:
    → "Huh!? M-my reinforcement...where they go!?"
303: 0x098F [0x23] WAIT_FOR_DIALOG_INTERACTION
304: 0x0990 [0x6B] STOP_AND_IDLE: Rahal (ID: 17339098/0x010892DA) stops current action and resets to idle (animation="idl0")
305: 0x0999 [0x2A] GET_REQ_LEVEL(level=16, entity_id=??? (ID: 17339059/0x010892B3))
306: 0x099F [0x1C] WAIT(10* ticks)
307: 0x09A2 [0x52] END_LOAD_SCHEDULER: End scheduler "r112" with entities [LocalPlayer, LocalPlayer], work=493*
308: 0x09B1 [0x45] LOAD_SCHEDULED_TASK: Load scheduler "r113" with entities [LocalPlayer, LocalPlayer], work=[493*, 0*]
309: 0x09C2 [0x5B] LOAD_EXT_SCHEDULER: Load scheduler "btjl" with entities [Excenmille (ID: 17339094/0x010892D6), Excenmille (ID: 17339094/0x010892D6)], work=2729*
310: 0x09D1 [0x5B] LOAD_EXT_SCHEDULER: Load scheduler "rbt0" with entities [Rahal (ID: 17339098/0x010892DA), Rahal (ID: 17339098/0x010892DA)], work=1300*
311: 0x09E0 [0x2B] Rahal (ID: 17339098/0x010892DA) [7898*]:
    → "They're marching on their merry way to the hereafter as we speak!"
312: 0x09E7 [0x23] WAIT_FOR_DIALOG_INTERACTION
313: 0x09E8 [0x52] END_LOAD_SCHEDULER: End scheduler "r113" with entities [LocalPlayer, LocalPlayer], work=493*
314: 0x09F7 [0x45] LOAD_SCHEDULED_TASK: Load scheduler "r114" with entities [LocalPlayer, LocalPlayer], work=[493*, 0*]
315: 0x0A08 [0x5B] LOAD_EXT_SCHEDULER: Load scheduler "fsh2" with entities [Kingslayer Doggvdegg (ID: 17339097/0x010892D9), Kingslayer Doggvdegg (ID: 17339097/0x010892D9)], work=2686*
316: 0x0A17 [0x03] Work_Zone[2] = 300*
317: 0x0A1C [0x27] REQ_SET(priority=0x10, entity_id=??? (ID: 17339059/0x010892B3), tag_num=0x0C)
318: 0x0A23 [0x27] REQ_SET(priority=0x10, entity_id=Rahal (ID: 17339098/0x010892DA), tag_num=0x17)
319: 0x0A2A [0x2B] Kingslayer Doggvdegg (ID: 17339097/0x010892D9) [7899*]:
    → "What you say!?"
320: 0x0A31 [0x23] WAIT_FOR_DIALOG_INTERACTION
321: 0x0A32 [0x2A] GET_REQ_LEVEL(level=16, entity_id=??? (ID: 17339059/0x010892B3))
322: 0x0A38 [0x52] END_LOAD_SCHEDULER: End scheduler "r114" with entities [LocalPlayer, LocalPlayer], work=493*
323: 0x0A47 [0x45] LOAD_SCHEDULED_TASK: Load scheduler "r115" with entities [LocalPlayer, LocalPlayer], work=[493*, 0*]
324: 0x0A58 [0x2B] Rongelouts N Distaud (ID: 17339073/0x010892C1) [7900*]:
    → "Your payment for crimes committed against the Kingdom is long overdue, Doggvdegg, and we've come to collect it."
325: 0x0A5F [0x23] WAIT_FOR_DIALOG_INTERACTION
326: 0x0A60 [0xBA] SET_ENTITY_POSITION(entity_id=Kingslayer Doggvdegg (ID: 17339097/0x010892D9), pos_x=478.972*, pos_z=-176.026*, pos_y=20.999*, direction=202.1°*)
327: 0x0A6D [0x5D] SET_MUSIC_VOLUME(volume=0*, fade_time=180*)
328: 0x0A72 [0x5B] LOAD_EXT_SCHEDULER: Load scheduler "btj0" with entities [Excenmille (ID: 17339094/0x010892D6), Excenmille (ID: 17339094/0x010892D6)], work=2729*
329: 0x0A81 [0x52] END_LOAD_SCHEDULER: End scheduler "r115" with entities [LocalPlayer, LocalPlayer], work=493*
330: 0x0A90 [0x45] LOAD_SCHEDULED_TASK: Load scheduler "r116" with entities [LocalPlayer, LocalPlayer], work=[493*, 0*]
331: 0x0AA1 [0x2B] Excenmille (ID: 17339094/0x010892D6) [7901*]:
    → "This is for..."
332: 0x0AA8 [0x1C] WAIT(100* ticks)
333: 0x0AAB [0x52] END_LOAD_SCHEDULER: End scheduler "r116" with entities [LocalPlayer, LocalPlayer], work=493*
334: 0x0ABA [0x45] LOAD_SCHEDULED_TASK: Load scheduler "r106" with entities [LocalPlayer, LocalPlayer], work=[493*, 0*]
335: 0x0ACB [0x2B] Excenmille (ID: 17339094/0x010892D6) [7902*]:
    → "Everyone!!!"
336: 0x0AD2 [0x23] WAIT_FOR_DIALOG_INTERACTION
337: 0x0AD3 [0x1C] WAIT(50* ticks)
338: 0x0AD6 [0x5B] LOAD_EXT_SCHEDULER: Load scheduler "fsh3" with entities [Kingslayer Doggvdegg (ID: 17339097/0x010892D9), Kingslayer Doggvdegg (ID: 17339097/0x010892D9)], work=2686*
339: 0x0AE5 [0x52] END_LOAD_SCHEDULER: End scheduler "r106" with entities [LocalPlayer, LocalPlayer], work=493*
340: 0x0AF4 [0x45] LOAD_SCHEDULED_TASK: Load scheduler "r141" with entities [LocalPlayer, LocalPlayer], work=[493*, 0*]
341: 0x0B05 [0x1C] WAIT(10* ticks)
342: 0x0B08 [0x59] UPDATE_ENTITY_DATA: Rahal (ID: 17339098/0x010892DA)->Render.Flags0 |= 0x200000
343: 0x0B0F [0xBA] SET_ENTITY_POSITION(entity_id=Rahal (ID: 17339098/0x010892DA), pos_x=473.368*, pos_z=-173.979*, pos_y=16.015*, direction=199.5°*)
344: 0x0B1C [0x5B] LOAD_EXT_SCHEDULER: Load scheduler "ken0" with entities [Rahal (ID: 17339098/0x010892DA), Rahal (ID: 17339098/0x010892DA)], work=2734*
345: 0x0B2B [0x1C] WAIT(40* ticks)
346: 0x0B2E [0x52] END_LOAD_SCHEDULER: End scheduler "r141" with entities [LocalPlayer, LocalPlayer], work=493*
347: 0x0B3D [0x45] LOAD_SCHEDULED_TASK: Load scheduler "r146" with entities [LocalPlayer, LocalPlayer], work=[493*, 0*]
348: 0x0B4E [0x1C] WAIT(10* ticks)
349: 0x0B51 [0x5B] LOAD_EXT_SCHEDULER: Load scheduler "zan0" with entities [Excenmille (ID: 17339094/0x010892D6), Excenmille (ID: 17339094/0x010892D6)], work=2732*
350: 0x0B60 [0xBA] SET_ENTITY_POSITION(entity_id=Excenmille (ID: 17339094/0x010892D6), pos_x=478.972*, pos_z=-176.026*, pos_y=20.999*, direction=202.1°*)
351: 0x0B6D [0x1C] WAIT(10* ticks)
352: 0x0B70 [0x52] END_LOAD_SCHEDULER: End scheduler "r146" with entities [LocalPlayer, LocalPlayer], work=493*
353: 0x0B7F [0x45] LOAD_SCHEDULED_TASK: Load scheduler "r117" with entities [LocalPlayer, LocalPlayer], work=[493*, 0*]
354: 0x0B90 [0x5B] LOAD_EXT_SCHEDULER: Load scheduler "zan1" with entities [Excenmille (ID: 17339094/0x010892D6), Excenmille (ID: 17339094/0x010892D6)], work=2732*
355: 0x0B9F [0xC5] LOAD_SCHEDULED_TASK_ALT3: Load scheduler 0x800E3130 for entities [Excenmille (ID: 17339094/0x010892D6), Excenmille (ID: 17339094/0x010892D6)], work=240*, param=29811
356: 0x0BB0 [0x5B] LOAD_EXT_SCHEDULER: Load scheduler "zan1" with entities [Kingslayer Doggvdegg (ID: 17339097/0x010892D9), Kingslayer Doggvdegg (ID: 17339097/0x010892D9)], work=2686*
357: 0x0BBF [0xC5] LOAD_SCHEDULED_TASK_ALT3: Load scheduler 0x800E3130 for entities [Kingslayer Doggvdegg (ID: 17339097/0x010892D9), Kingslayer Doggvdegg (ID: 17339097/0x010892D9)], work=241*, param=29811
358: 0x0BD0 [0x2B] Kingslayer Doggvdegg (ID: 17339097/0x010892D9) [7903*]:
    → "Uwaaa..."
359: 0x0BD7 [0x1C] WAIT(160* ticks)
360: 0x0BDA [0x27] REQ_SET(priority=0x10, entity_id=Kingslayer Doggvdegg (ID: 17339097/0x010892D9), tag_num=0x0C)
361: 0x0BE1 [0x1C] WAIT(10* ticks)
362: 0x0BE4 [0xA5] EventEntity->Flags3.BallistaTeam |= 0x08  // Set bit 3 of BallistaTeam
363: 0x0BE6 [0xC5] LOAD_SCHEDULED_TASK_ALT3: Load scheduler 0x800E3230 for entities [Kingslayer Doggvdegg (ID: 17339097/0x010892D9), Kingslayer Doggvdegg (ID: 17339097/0x010892D9)], work=241*, param=29811
364: 0x0BF7 [0x1C] WAIT(10* ticks)
365: 0x0BFA [0x52] END_LOAD_SCHEDULER: End scheduler "r117" with entities [LocalPlayer, LocalPlayer], work=493*
366: 0x0C09 [0x45] LOAD_SCHEDULED_TASK: Load scheduler "r118" with entities [LocalPlayer, LocalPlayer], work=[493*, 0*]
367: 0x0C1A [0x45] LOAD_SCHEDULED_TASK: Load scheduler "blof" with entities [LocalPlayer, LocalPlayer], work=[200*, 0*]
368: 0x0C2B [0xBA] SET_ENTITY_POSITION(entity_id=Rahal (ID: 17339098/0x010892DA), pos_x=482.307*, pos_z=-190.467*, pos_y=20.086*, direction=263.7°*)
369: 0x0C38 [0x27] REQ_SET(priority=0x10, entity_id=Leuonard (ID: 17339060/0x010892B4), tag_num=0x0B)
370: 0x0C3F [0x27] REQ_SET(priority=0x10, entity_id=Oliverain (ID: 17339061/0x010892B5), tag_num=0x0B)
371: 0x0C46 [0x27] REQ_SET(priority=0x10, entity_id=kisiC (ID: 17339062/0x010892B6), tag_num=0x0B)
372: 0x0C4D [0x27] REQ_SET(priority=0x10, entity_id=Dissaud (ID: 17339063/0x010892B7), tag_num=0x0B)
373: 0x0C54 [0x27] REQ_SET(priority=0x10, entity_id=Ganathein (ID: 17339064/0x010892B8), tag_num=0x0B)
374: 0x0C5B [0xBA] SET_ENTITY_POSITION(entity_id=Leuonard (ID: 17339060/0x010892B4), pos_x=466.033*, pos_z=-157.596*, pos_y=20.867*, direction=97.1°*)
375: 0x0C68 [0xBA] SET_ENTITY_POSITION(entity_id=Oliverain (ID: 17339061/0x010892B5), pos_x=468.873*, pos_z=-156.512*, pos_y=19.914*, direction=97.1°*)
376: 0x0C75 [0xBA] SET_ENTITY_POSITION(entity_id=kisiC (ID: 17339062/0x010892B6), pos_x=474.504*, pos_z=-155.667*, pos_y=19.461*, direction=97.1°*)
377: 0x0C82 [0xBA] SET_ENTITY_POSITION(entity_id=Dissaud (ID: 17339063/0x010892B7), pos_x=460.948*, pos_z=-170.031*, pos_y=19.754*, direction=97.1°*)
378: 0x0C8F [0xBA] SET_ENTITY_POSITION(entity_id=Ganathein (ID: 17339064/0x010892B8), pos_x=458.323*, pos_z=-164.551*, pos_y=20.337*, direction=129.5°*)
379: 0x0C9C [0x4A] Leuonard (ID: 17339060/0x010892B4) looks at Excenmille (ID: 17339094/0x010892D6)
380: 0x0CA5 [0x4A] Oliverain (ID: 17339061/0x010892B5) looks at Excenmille (ID: 17339094/0x010892D6)
381: 0x0CAE [0x4A] kisiC (ID: 17339062/0x010892B6) looks at Excenmille (ID: 17339094/0x010892D6)
382: 0x0CB7 [0x4A] Dissaud (ID: 17339063/0x010892B7) looks at Excenmille (ID: 17339094/0x010892D6)
383: 0x0CC0 [0x4A] Ganathein (ID: 17339064/0x010892B8) looks at Excenmille (ID: 17339094/0x010892D6)
384: 0x0CC9 [0x4A] Jayramus (ID: 17339096/0x010892D8) looks at Excenmille (ID: 17339094/0x010892D6)
385: 0x0CD2 [0x7B] Leuonard (ID: 17339060/0x010892B4) stops talking
386: 0x0CD7 [0x7B] Oliverain (ID: 17339061/0x010892B5) stops talking
387: 0x0CDC [0x7B] kisiC (ID: 17339062/0x010892B6) stops talking
388: 0x0CE1 [0x7B] Dissaud (ID: 17339063/0x010892B7) stops talking
389: 0x0CE6 [0x7B] Ganathein (ID: 17339064/0x010892B8) stops talking
390: 0x0CEB [0x7B] Jayramus (ID: 17339096/0x010892D8) stops talking
391: 0x0CF0 [0x2B] Kingslayer Doggvdegg (ID: 17339097/0x010892D9) [7904*]:
    → "Uwaaa...waaah..."
392: 0x0CF7 [0x1C] WAIT(70* ticks)
393: 0x0CFA [0x52] END_LOAD_SCHEDULER: End scheduler "r118" with entities [LocalPlayer, LocalPlayer], work=493*
394: 0x0D09 [0x45] LOAD_SCHEDULED_TASK: Load scheduler "r148" with entities [LocalPlayer, LocalPlayer], work=[493*, 0*]
395: 0x0D1A [0x1C] WAIT(100* ticks)
396: 0x0D1D [0x52] END_LOAD_SCHEDULER: End scheduler "r148" with entities [LocalPlayer, LocalPlayer], work=493*
397: 0x0D2C [0x45] LOAD_SCHEDULED_TASK: Load scheduler "r149" with entities [LocalPlayer, LocalPlayer], work=[493*, 0*]
398: 0x0D3D [0x1C] WAIT(100* ticks)
399: 0x0D40 [0x52] END_LOAD_SCHEDULER: End scheduler "r149" with entities [LocalPlayer, LocalPlayer], work=493*
400: 0x0D4F [0x45] LOAD_SCHEDULED_TASK: Load scheduler "r150" with entities [LocalPlayer, LocalPlayer], work=[493*, 0*]
401: 0x0D60 [0xBA] SET_ENTITY_POSITION(entity_id=Kingslayer Doggvdegg (ID: 17339074/0x010892C2), pos_x=490.824*, pos_z=-179.334*, pos_y=20.722*, direction=202.1°*)
402: 0x0D6D [0x1C] WAIT(80* ticks)
403: 0x0D70 [0x52] END_LOAD_SCHEDULER: End scheduler "r150" with entities [LocalPlayer, LocalPlayer], work=493*
404: 0x0D7F [0x45] LOAD_SCHEDULED_TASK: Load scheduler "r152" with entities [LocalPlayer, LocalPlayer], work=[493*, 0*]
405: 0x0D90 [0x1C] WAIT(10* ticks)
406: 0x0D93 [0xC5] LOAD_SCHEDULED_TASK_ALT3: Load scheduler 0x800E3330 for entities [Kingslayer Doggvdegg (ID: 17339074/0x010892C2), Kingslayer Doggvdegg (ID: 17339074/0x010892C2)], work=241*, param=29811
407: 0x0DA4 [0x2B] Kingslayer Doggvdegg (ID: 17339097/0x010892D9) [7905*]:
    → "Grrraaawwwrgh!!!"
408: 0x0DAB [0x27] REQ_SET(priority=0x10, entity_id=LocalPlayer, tag_num=0x09)
409: 0x0DB2 [0x1C] WAIT(160* ticks)
410: 0x0DB5 [0x52] END_LOAD_SCHEDULER: End scheduler "r152" with entities [LocalPlayer, LocalPlayer], work=493*
411: 0x0DC4 [0x45] LOAD_SCHEDULED_TASK: Load scheduler "r142" with entities [LocalPlayer, LocalPlayer], work=[493*, 0*]
412: 0x0DD5 [0x03] Work_Zone[2] = 160*
413: 0x0DDA [0x27] REQ_SET(priority=0x10, entity_id=??? (ID: 17339059/0x010892B3), tag_num=0x0C)
414: 0x0DE1 [0xC5] LOAD_SCHEDULED_TASK_ALT3: Load scheduler 0x800E3230 for entities [Excenmille (ID: 17339094/0x010892D6), Excenmille (ID: 17339094/0x010892D6)], work=240*, param=29811
415: 0x0DF2 [0x2B] Excenmille (ID: 17339094/0x010892D6) [7906*]:
    → "<Huff, puff...>"
416: 0x0DF9 [0x23] WAIT_FOR_DIALOG_INTERACTION
417: 0x0DFA [0x2A] GET_REQ_LEVEL(level=16, entity_id=??? (ID: 17339059/0x010892B3))
418: 0x0E00 [0x1C] WAIT(30* ticks)
419: 0x0E03 [0x4E] SET_ENTITY_HIDE_FLAG: Hide Kingslayer Doggvdegg (ID: 17339097/0x010892D9)
420: 0x0E09 [0x4E] SET_ENTITY_HIDE_FLAG: Hide Kingslayer Doggvdegg (ID: 17339074/0x010892C2)
421: 0x0E0F [0x81] SET_ENTITY_BLINKING(blink_flag=0x00, entity=Excenmille (ID: 17339094/0x010892D6))
422: 0x0E15 [0x7C] Excenmille (ID: 17339094/0x010892D6)->Render.Flags2 |= 0x00
423: 0x0E1B [0x5B] LOAD_EXT_SCHEDULER: Load scheduler "fd00" with entities [Excenmille (ID: 17339094/0x010892D6), Excenmille (ID: 17339094/0x010892D6)], work=1299*
424: 0x0E2A [0x45] LOAD_SCHEDULED_TASK: Load scheduler "dai0" with entities [LocalPlayer, LocalPlayer], work=[493*, 0*]
425: 0x0E3B [0xC5] LOAD_SCHEDULED_TASK_ALT3: Load scheduler 0x800E3330 for entities [Excenmille (ID: 17339094/0x010892D6), Excenmille (ID: 17339094/0x010892D6)], work=240*, param=29811
426: 0x0E4C [0x1C] WAIT(130* ticks)
427: 0x0E4F [0x52] END_LOAD_SCHEDULER: End scheduler "r142" with entities [LocalPlayer, LocalPlayer], work=493*
428: 0x0E5E [0x45] LOAD_SCHEDULED_TASK: Load scheduler "r123" with entities [LocalPlayer, LocalPlayer], work=[493*, 0*]
429: 0x0E6F [0x1C] WAIT(180* ticks)
430: 0x0E72 [0x52] END_LOAD_SCHEDULER: End scheduler "r123" with entities [LocalPlayer, LocalPlayer], work=493*
431: 0x0E81 [0x45] LOAD_SCHEDULED_TASK: Load scheduler "r124" with entities [LocalPlayer, LocalPlayer], work=[493*, 0*]
432: 0x0E92 [0x5B] LOAD_EXT_SCHEDULER: Load scheduler "fd00" with entities [Excenmille (ID: 17339094/0x010892D6), Excenmille (ID: 17339094/0x010892D6)], work=1299*
433: 0x0EA1 [0x2B] Jayramus (ID: 17339096/0x010892D8) [7907*]:
    → "That the boy would vanquish his nemesis and realize his quest for vengeance... He wears the favor of the Goddess as no other."
434: 0x0EA8 [0x23] WAIT_FOR_DIALOG_INTERACTION
435: 0x0EA9 [0x27] REQ_SET(priority=0x10, entity_id=kisiC (ID: 17339062/0x010892B6), tag_num=0x10)
436: 0x0EB0 [0x6E] Oliverain (ID: 17339061/0x010892B5) uses emote 11*
437: 0x0EB7 [0x99] Wait for Oliverain (ID: 17339061/0x010892B5) animation to complete
438: 0x0EBC [0x27] REQ_SET(priority=0x10, entity_id=Dissaud (ID: 17339063/0x010892B7), tag_num=0x0F)
439: 0x0EC3 [0x27] REQ_SET(priority=0x10, entity_id=Ganathein (ID: 17339064/0x010892B8), tag_num=0x11)
440: 0x0ECA [0x6E] Leuonard (ID: 17339060/0x010892B4) uses emote 11*
441: 0x0ED1 [0x99] Wait for Leuonard (ID: 17339060/0x010892B4) animation to complete
442: 0x0ED6 [0x1C] WAIT(30* ticks)
443: 0x0ED9 [0x52] END_LOAD_SCHEDULER: End scheduler "r124" with entities [LocalPlayer, LocalPlayer], work=493*
444: 0x0EE8 [0x45] LOAD_SCHEDULED_TASK: Load scheduler "r125" with entities [LocalPlayer, LocalPlayer], work=[493*, 0*]
445: 0x0EF9 [0x48] [System] [7908*]:
    → "Hurrah!!!"
446: 0x0EFC [0x1C] WAIT(60* ticks)
447: 0x0EFF [0x45] LOAD_SCHEDULED_TASK: Load scheduler "fdo2" with entities [LocalPlayer, LocalPlayer], work=[200*, 0*]
448: 0x0F10 [0x55] WAIT_LOAD_SCHEDULER: Wait for scheduler "fdo2" with entities [LocalPlayer, LocalPlayer], work=200*
449: 0x0F1F [0x23] WAIT_FOR_DIALOG_INTERACTION
450: 0x0F20 [0x6B] STOP_AND_IDLE: Cyranuce (ID: 17339099/0x010892DB) stops current action and resets to idle (animation="idl0")
451: 0x0F29 [0xBA] SET_ENTITY_POSITION(entity_id=Excenmille (ID: 17339094/0x010892D6), pos_x=482.651*, pos_z=-176.975*, pos_y=20.984*, direction=190.7°*)
452: 0x0F36 [0xBA] SET_ENTITY_POSITION(entity_id=Rahal (ID: 17339098/0x010892DA), pos_x=482.307*, pos_z=-190.467*, pos_y=20.086*, direction=263.7°*)
453: 0x0F43 [0x27] REQ_SET(priority=0x10, entity_id=Rahal (ID: 17339098/0x010892DA), tag_num=0x18)
454: 0x0F4A [0x59] UPDATE_ENTITY_DATA: Rahal (ID: 17339098/0x010892DA)->Render.Flags0 &= ~0x200000
455: 0x0F51 [0x1C] WAIT(60* ticks)
456: 0x0F54 [0x5C] MUSIC_CONTROL: Set Idle (Day) music to song 140*
457: 0x0F58 [0x5C] MUSIC_CONTROL: Set Idle (Night) music to song 140*
458: 0x0F5C [0x9A] WAIT_MUSIC_SERVER()
459: 0x0F5D [0x27] REQ_SET(priority=0x10, entity_id=kisiC (ID: 17339062/0x010892B6), tag_num=0x10)
460: 0x0F64 [0x6E] Oliverain (ID: 17339061/0x010892B5) uses emote 11*
461: 0x0F6B [0x99] Wait for Oliverain (ID: 17339061/0x010892B5) animation to complete
462: 0x0F70 [0x27] REQ_SET(priority=0x10, entity_id=Dissaud (ID: 17339063/0x010892B7), tag_num=0x0F)
463: 0x0F77 [0x27] REQ_SET(priority=0x10, entity_id=Ganathein (ID: 17339064/0x010892B8), tag_num=0x11)
464: 0x0F7E [0x6E] Leuonard (ID: 17339060/0x010892B4) uses emote 11*
465: 0x0F85 [0x99] Wait for Leuonard (ID: 17339060/0x010892B4) animation to complete
466: 0x0F8A [0x52] END_LOAD_SCHEDULER: End scheduler "r125" with entities [LocalPlayer, LocalPlayer], work=493*
467: 0x0F99 [0x45] LOAD_SCHEDULED_TASK: Load scheduler "r126" with entities [LocalPlayer, LocalPlayer], work=[493*, 0*]
468: 0x0FAA [0x45] LOAD_SCHEDULED_TASK: Load scheduler "blof" with entities [LocalPlayer, LocalPlayer], work=[200*, 0*]
469: 0x0FBB [0x45] LOAD_SCHEDULED_TASK: Load scheduler "fdi2" with entities [LocalPlayer, LocalPlayer], work=[200*, 0*]
470: 0x0FCC [0x55] WAIT_LOAD_SCHEDULER: Wait for scheduler "fdi2" with entities [LocalPlayer, LocalPlayer], work=200*
471: 0x0FDB [0x2B] Leuonard (ID: 17339060/0x010892B4) [7909*]:
    → "Long live Lord Excenmille!"
472: 0x0FE2 [0x23] WAIT_FOR_DIALOG_INTERACTION
473: 0x0FE3 [0x52] END_LOAD_SCHEDULER: End scheduler "r126" with entities [LocalPlayer, LocalPlayer], work=493*
474: 0x0FF2 [0x45] LOAD_SCHEDULED_TASK: Load scheduler "r127" with entities [LocalPlayer, LocalPlayer], work=[493*, 0*]
475: 0x1003 [0x5B] LOAD_EXT_SCHEDULER: Load scheduler "kia0" with entities [Oliverain (ID: 17339061/0x010892B5), Oliverain (ID: 17339061/0x010892B5)], work=2253*
476: 0x1012 [0x6C] FADE_ENTITY_COLOR(entity_id=Ganathein (ID: 17339064/0x010892B8), end_alpha=0*, fade_time=1*)
477: 0x101B [0x7B] Excenmille (ID: 17339094/0x010892D6) stops talking
478: 0x1020 [0x81] SET_ENTITY_BLINKING(blink_flag=0x01, entity=Excenmille (ID: 17339094/0x010892D6))
479: 0x1026 [0x7C] Excenmille (ID: 17339094/0x010892D6)->Render.Flags2 |= 0x01
480: 0x102C [0x5B] LOAD_EXT_SCHEDULER: Load scheduler "f000" with entities [Excenmille (ID: 17339094/0x010892D6), Excenmille (ID: 17339094/0x010892D6)], work=1299*
481: 0x103B [0x6B] STOP_AND_IDLE: Excenmille (ID: 17339094/0x010892D6) stops current action and resets to idle (animation="idl0")
482: 0x1044 [0x2B] Oliverain (ID: 17339061/0x010892B5) [7910*]:
    → "Glory to House Aurchiat!"
483: 0x104B [0x23] WAIT_FOR_DIALOG_INTERACTION
484: 0x104C [0x5B] LOAD_EXT_SCHEDULER: Load scheduler "war0" with entities [Cyranuce (ID: 17339099/0x010892DB), Cyranuce (ID: 17339099/0x010892DB)], work=1273*
485: 0x105B [0xBA] SET_ENTITY_POSITION(entity_id=Ganathein (ID: 17339064/0x010892B8), pos_x=480.811*, pos_z=-176.458*, pos_y=20.999*, direction=13.3°*)
486: 0x1068 [0xBA] SET_ENTITY_POSITION(entity_id=Jayramus (ID: 17339096/0x010892D8), pos_x=482.651*, pos_z=-176.975*, pos_y=20.984*, direction=190.7°*)
487: 0x1075 [0x52] END_LOAD_SCHEDULER: End scheduler "r127" with entities [LocalPlayer, LocalPlayer], work=493*
488: 0x1084 [0x45] LOAD_SCHEDULED_TASK: Load scheduler "r128" with entities [LocalPlayer, LocalPlayer], work=[493*, 0*]
489: 0x1095 [0x2B] Rahal (ID: 17339098/0x010892DA) [7911*]:
    → "You did it, Excenmille! You proved beyond doubt our worth to the elders!"
490: 0x109C [0x23] WAIT_FOR_DIALOG_INTERACTION
491: 0x109D [0x59] UPDATE_ENTITY_DATA: Set Jayramus (ID: 17339096/0x010892D8) main speed = 13* * 0.1
492: 0x10A5 [0x5B] LOAD_EXT_SCHEDULER: Load scheduler "chu0" with entities [Jayramus (ID: 17339096/0x010892D8), Jayramus (ID: 17339096/0x010892D8)], work=2722*
493: 0x10B4 [0x52] END_LOAD_SCHEDULER: End scheduler "r128" with entities [LocalPlayer, LocalPlayer], work=493*
494: 0x10C3 [0x45] LOAD_SCHEDULED_TASK: Load scheduler "r129" with entities [LocalPlayer, LocalPlayer], work=[493*, 0*]
495: 0x10D4 [0x2B] Jayramus (ID: 17339096/0x010892D8) [7912*]:
    → "Young master--nay, Count Aurchiat."
496: 0x10DB [0x23] WAIT_FOR_DIALOG_INTERACTION
497: 0x10DC [0x5B] LOAD_EXT_SCHEDULER: Load scheduler "chu1" with entities [Jayramus (ID: 17339096/0x010892D8), Jayramus (ID: 17339096/0x010892D8)], work=2722*
498: 0x10EB [0x1C] WAIT(10* ticks)
499: 0x10EE [0x52] END_LOAD_SCHEDULER: End scheduler "r129" with entities [LocalPlayer, LocalPlayer], work=493*
500: 0x10FD [0x45] LOAD_SCHEDULED_TASK: Load scheduler "r130" with entities [LocalPlayer, LocalPlayer], work=[493*, 0*]
501: 0x110E [0x2B] Jayramus (ID: 17339096/0x010892D8) [7913*]:
    → "The command of the Knights of the Cardinal Stag entrusted me by your father...I gladly return to you."
502: 0x1115 [0x23] WAIT_FOR_DIALOG_INTERACTION
503: 0x1116 [0x52] END_LOAD_SCHEDULER: End scheduler "r130" with entities [LocalPlayer, LocalPlayer], work=493*
504: 0x1125 [0x45] LOAD_SCHEDULED_TASK: Load scheduler "r131" with entities [LocalPlayer, LocalPlayer], work=[493*, 0*]
505: 0x1136 [0x1C] WAIT(200* ticks)
506: 0x1139 [0x52] END_LOAD_SCHEDULER: End scheduler "r131" with entities [LocalPlayer, LocalPlayer], work=493*
507: 0x1148 [0x45] LOAD_SCHEDULED_TASK: Load scheduler "r132" with entities [LocalPlayer, LocalPlayer], work=[493*, 0*]
508: 0x1159 [0x5B] LOAD_EXT_SCHEDULER: Load scheduler "hnd0" with entities [Excenmille (ID: 17339094/0x010892D6), Excenmille (ID: 17339094/0x010892D6)], work=2733*
509: 0x1168 [0x2B] Excenmille (ID: 17339094/0x010892D6) [7914*]:
    → "No. I bid you hold on to that, Jayramus. I've much to learn from you yet before I am worthy to shoulder such a weight."
510: 0x116F [0x23] WAIT_FOR_DIALOG_INTERACTION
511: 0x1170 [0x1C] WAIT(120* ticks)
512: 0x1173 [0x52] END_LOAD_SCHEDULER: End scheduler "r132" with entities [LocalPlayer, LocalPlayer], work=493*
513: 0x1182 [0x45] LOAD_SCHEDULED_TASK: Load scheduler "r133" with entities [LocalPlayer, LocalPlayer], work=[493*, 0*]
514: 0x1193 [0xBA] SET_ENTITY_POSITION(entity_id=Rongelouts N Distaud (ID: 17339073/0x010892C1), pos_x=479.664*, pos_z=-187.695*, pos_y=20.996*, direction=280.5°*)
515: 0x11A0 [0xBA] SET_ENTITY_POSITION(entity_id=Rahal (ID: 17339098/0x010892DA), pos_x=482.307*, pos_z=-190.467*, pos_y=20.086*, direction=263.7°*)
516: 0x11AD [0xBA] SET_ENTITY_POSITION(entity_id=Cyranuce (ID: 17339099/0x010892DB), pos_x=481.502*, pos_z=-192.708*, pos_y=19.999*, direction=258.6°*)
517: 0x11BA [0xBA] SET_ENTITY_POSITION(entity_id=Bistillot (ID: 17339100/0x010892DC), pos_x=478.914*, pos_z=-198.923*, pos_y=19.999*, direction=255.8°*)
518: 0x11C7 [0xBA] SET_ENTITY_POSITION(entity_id=Leuonard (ID: 17339060/0x010892B4), pos_x=475.437*, pos_z=-200.625*, pos_y=19.999*, direction=263.7°*)
519: 0x11D4 [0xBA] SET_ENTITY_POSITION(entity_id=Oliverain (ID: 17339061/0x010892B5), pos_x=478.244*, pos_z=-190.983*, pos_y=20.230*, direction=263.7°*)
520: 0x11E1 [0xBA] SET_ENTITY_POSITION(entity_id=kisiC (ID: 17339062/0x010892B6), pos_x=477.352*, pos_z=-195.689*, pos_y=20.000*, direction=263.7°*)
521: 0x11EE [0xBA] SET_ENTITY_POSITION(entity_id=Dissaud (ID: 17339063/0x010892B7), pos_x=484.347*, pos_z=-192.955*, pos_y=19.479*, direction=263.7°*)
522: 0x11FB [0x27] REQ_SET(priority=0x10, entity_id=Leuonard (ID: 17339060/0x010892B4), tag_num=0x0A)
523: 0x1202 [0x27] REQ_SET(priority=0x10, entity_id=Oliverain (ID: 17339061/0x010892B5), tag_num=0x0A)
524: 0x1209 [0x27] REQ_SET(priority=0x10, entity_id=kisiC (ID: 17339062/0x010892B6), tag_num=0x0A)
525: 0x1210 [0x27] REQ_SET(priority=0x10, entity_id=Dissaud (ID: 17339063/0x010892B7), tag_num=0x0A)
526: 0x1217 [0x5B] LOAD_EXT_SCHEDULER: Load scheduler "hnd1" with entities [Excenmille (ID: 17339094/0x010892D6), Excenmille (ID: 17339094/0x010892D6)], work=2733*
527: 0x1226 [0x5B] LOAD_EXT_SCHEDULER: Load scheduler "chu2" with entities [Jayramus (ID: 17339096/0x010892D8), Jayramus (ID: 17339096/0x010892D8)], work=2722*
528: 0x1235 [0x03] Work_Zone[2] = 210*
529: 0x123A [0x27] REQ_SET(priority=0x10, entity_id=??? (ID: 17339059/0x010892B3), tag_num=0x0C)
530: 0x1241 [0x2B] Jayramus (ID: 17339096/0x010892D8) [7915*]:
    → "Aye, my lord!"
531: 0x1248 [0x2A] GET_REQ_LEVEL(level=16, entity_id=??? (ID: 17339059/0x010892B3))
532: 0x124E [0x79] Excenmille (ID: 17339094/0x010892D6) looks at Ganathein (ID: 17339064/0x010892B8) (Basic look)
533: 0x1258 [0x23] WAIT_FOR_DIALOG_INTERACTION
534: 0x1259 [0x53] WAIT_SCHEDULER_TASK: Wait for scheduler "chu2" with entities [Jayramus (ID: 17339096/0x010892D8), Jayramus (ID: 17339096/0x010892D8)]
535: 0x1266 [0x52] END_LOAD_SCHEDULER: End scheduler "r133" with entities [LocalPlayer, LocalPlayer], work=493*
536: 0x1275 [0x45] LOAD_SCHEDULED_TASK: Load scheduler "r119" with entities [LocalPlayer, LocalPlayer], work=[493*, 0*]
537: 0x1286 [0x7B] Excenmille (ID: 17339094/0x010892D6) stops talking
538: 0x128B [0x5B] LOAD_EXT_SCHEDULER: Load scheduler "kob0" with entities [Excenmille (ID: 17339094/0x010892D6), Excenmille (ID: 17339094/0x010892D6)], work=2733*
539: 0x129A [0x5B] LOAD_EXT_SCHEDULER: Load scheduler "kob0" with entities [Jayramus (ID: 17339096/0x010892D8), Jayramus (ID: 17339096/0x010892D8)], work=2723*
540: 0x12A9 [0x1C] WAIT(60* ticks)
541: 0x12AC [0x52] END_LOAD_SCHEDULER: End scheduler "r119" with entities [LocalPlayer, LocalPlayer], work=493*
542: 0x12BB [0x45] LOAD_SCHEDULED_TASK: Load scheduler "r122" with entities [LocalPlayer, LocalPlayer], work=[493*, 0*]
543: 0x12CC [0x1C] WAIT(100* ticks)
544: 0x12CF [0x52] END_LOAD_SCHEDULER: End scheduler "r122" with entities [LocalPlayer, LocalPlayer], work=493*
545: 0x12DE [0x45] LOAD_SCHEDULED_TASK: Load scheduler "r137" with entities [LocalPlayer, LocalPlayer], work=[493*, 0*]
546: 0x12EF [0x1C] WAIT(80* ticks)
547: 0x12F2 [0x52] END_LOAD_SCHEDULER: End scheduler "r137" with entities [LocalPlayer, LocalPlayer], work=493*
548: 0x1301 [0x45] LOAD_SCHEDULED_TASK: Load scheduler "r147" with entities [LocalPlayer, LocalPlayer], work=[493*, 0*]
549: 0x1312 [0x1C] WAIT(200* ticks)
550: 0x1315 [0x52] END_LOAD_SCHEDULER: End scheduler "r147" with entities [LocalPlayer, LocalPlayer], work=493*
551: 0x1324 [0x45] LOAD_SCHEDULED_TASK: Load scheduler "r120" with entities [LocalPlayer, LocalPlayer], work=[493*, 0*]
552: 0x1335 [0x1C] WAIT(180* ticks)
553: 0x1338 [0x52] END_LOAD_SCHEDULER: End scheduler "r120" with entities [LocalPlayer, LocalPlayer], work=493*
554: 0x1347 [0x45] LOAD_SCHEDULED_TASK: Load scheduler "r138" with entities [LocalPlayer, LocalPlayer], work=[493*, 0*]
555: 0x1358 [0x1C] WAIT(10* ticks)
556: 0x135B [0x27] REQ_SET(priority=0x10, entity_id=Ganathein (ID: 17339064/0x010892B8), tag_num=0x0A)
557: 0x1362 [0x6C] FADE_ENTITY_COLOR(entity_id=Ganathein (ID: 17339064/0x010892B8), end_alpha=128*, fade_time=1*)
558: 0x136B [0xBA] SET_ENTITY_POSITION(entity_id=Ganathein (ID: 17339064/0x010892B8), pos_x=482.990*, pos_z=-198.810*, pos_y=19.999*, direction=263.7°*)
559: 0x1378 [0x1C] WAIT(180* ticks)
560: 0x137B [0x52] END_LOAD_SCHEDULER: End scheduler "r138" with entities [LocalPlayer, LocalPlayer], work=493*
561: 0x138A [0x45] LOAD_SCHEDULED_TASK: Load scheduler "r134" with entities [LocalPlayer, LocalPlayer], work=[493*, 0*]
562: 0x139B [0x2B] Rongelouts N Distaud (ID: 17339073/0x010892C1) [7916*]:
    → "Witness you all this, Alphonimile? You can rest easy in the knowledge that the blood of your valiant line lives on strongly."
563: 0x13A2 [0x23] WAIT_FOR_DIALOG_INTERACTION
564: 0x13A3 [0x4A] Rongelouts N Distaud (ID: 17339073/0x010892C1) looks at Ganathein (ID: 17339064/0x010892B8)
565: 0x13AC [0x52] END_LOAD_SCHEDULER: End scheduler "r134" with entities [LocalPlayer, LocalPlayer], work=493*
566: 0x13BB [0x45] LOAD_SCHEDULED_TASK: Load scheduler "r139" with entities [LocalPlayer, LocalPlayer], work=[493*, 0*]
567: 0x13CC [0x6F] WAIT_FRAME_DELAY: Yield until WaitTime reaches zero
568: 0x13CD [0x76] CHECK_ENTITY_RENDER_FLAGS: Wait until Rongelouts N Distaud (ID: 17339073/0x010892C1) Render.Flags0 and Render.Flags3 conditions are met
569: 0x13D2 [0x2B] Rongelouts N Distaud (ID: 17339073/0x010892C1) [7917*]:
    → "This be no place to bask overlong in victory. Forget not for an instant we stand in the heart of beastman territory. Let us return to base camp."
570: 0x13D9 [0x23] WAIT_FOR_DIALOG_INTERACTION
571: 0x13DA [0x52] END_LOAD_SCHEDULER: End scheduler "r139" with entities [LocalPlayer, LocalPlayer], work=493*
572: 0x13E9 [0x45] LOAD_SCHEDULED_TASK: Load scheduler "r135" with entities [LocalPlayer, LocalPlayer], work=[493*, 0*]
573: 0x13FA [0x2B] Rahal (ID: 17339098/0x010892DA) [7918*]:
    → "Yes, sir! Captain Rongelouts, sir!"
574: 0x1401 [0x23] WAIT_FOR_DIALOG_INTERACTION
575: 0x1402 [0x5D] SET_MUSIC_VOLUME(volume=0*, fade_time=120*)
576: 0x1407 [0x52] END_LOAD_SCHEDULER: End scheduler "r135" with entities [LocalPlayer, LocalPlayer], work=493*
577: 0x1416 [0x45] LOAD_SCHEDULED_TASK: Load scheduler "r140" with entities [LocalPlayer, LocalPlayer], work=[493*, 0*]
578: 0x1427 [0x1C] WAIT(120* ticks)
579: 0x142A [0x1A] CALL_SUBROUTINE(address=0x2E9B)
580: 0x142D [0x1C] WAIT(30* ticks)
581: 0x1430 [0x59] UPDATE_ENTITY_DATA: LocalPlayer->Render.Flags0 &= ~0x200000
582: 0x1437 [0x27] REQ_SET(priority=0x10, entity_id=LocalPlayer, tag_num=0x09)
583: 0x143E [0x52] END_LOAD_SCHEDULER: End scheduler "r140" with entities [LocalPlayer, LocalPlayer], work=493*
584: 0x144D [0x35] LOAD_ZONE_NO_CLOSE(zone_id=137*)
