# 17339126 - 04

## Common Data

| Field            | Value                   |
|------------------|-------------------------|
| Zone             | Xarcabard [S] (ID: 137) |
| Block Size       | 444 bytes               |
| Total Events     | 14                      |
| References Count | 37                      |

## List of Events

| Event ID                   | Entrypoint   |   Size |   Instructions |
|----------------------------|--------------|--------|----------------|
| [65535](#event-65535)      | 0x0000       |      1 |              1 |
| [7](#event-7)              | 0x0001       |      1 |              1 |
| [65535.1](#event-655351)   | 0x0002       |     10 |              2 |
| [65535.2](#event-655352)   | 0x000C       |     10 |              2 |
| [31](#event-31)            | 0x0016       |      1 |              1 |
| [65535.3](#event-655353)   | 0x0017       |     74 |             11 |
| [17](#event-17)            | 0x0061       |      1 |              1 |
| [65535.4](#event-655354)   | 0x0062       |     26 |              3 |
| [65535.5](#event-655355)   | 0x007C       |     21 |              2 |
| [65535.6](#event-655356)   | 0x0091       |     21 |              2 |
| [65535.7](#event-655357)   | 0x00A6       |     14 |              4 |
| [65535.8](#event-655358)   | 0x00B4       |     14 |              4 |
| [65535.9](#event-655359)   | 0x00C2       |     14 |              4 |
| [65535.10](#event-6553510) | 0x00D0       |     14 |              4 |

## DAT References (imed_data)

|   Index | Hex Value   |   Dec Value |
|---------|-------------|-------------|
|       0 | 0x0000      |           0 |
|       1 | 0x0001      |           1 |
|       2 | 0x0080      |         128 |
|       3 | 0x000D      |          13 |
|       4 | 0xFFFD3DC6  |  4294786502 |
|       5 | 0xFFFEB8DC  |  4294883548 |
|       6 | 0xFFFFF51F  |  4294964511 |
|       7 | 0x003C      |          60 |
|       8 | 0x0027      |          39 |
|       9 | 0x0078      |         120 |
|      10 | 0x0004      |           4 |
|      11 | 0x0006      |           6 |
|      12 | 0x001D      |          29 |
|      13 | 0x0021      |          33 |
|      14 | 0x001A      |          26 |
|      15 | 0x00CA      |         202 |
|      16 | 0x0003      |           3 |
|      17 | 0x0002      |           2 |
|      18 | 0x00FB      |         251 |
|      19 | 0x0007      |           7 |
|      20 | 0x000A      |          10 |
|      21 | 0x0089      |         137 |
|      22 | 0x0010      |          16 |
|      23 | 0x000E      |          14 |
|      24 | 0x7FDD7     |      523735 |
|      25 | 0xFFFBC1B0  |  4294689200 |
|      26 | 0xFFFFFFF3  |  4294967283 |
|      27 | 0x80F86     |      528262 |
|      28 | 0xFFFBCF91  |  4294692753 |
|      29 | 0x00C7      |         199 |
|      30 | 0x0008      |           8 |
|      31 | 0x7F42F     |      521263 |
|      32 | 0xFFFBF173  |  4294701427 |
|      33 | 0x0261      |         609 |
|      34 | 0x7F764     |      522084 |
|      35 | 0xFFFBA85C  |  4294682716 |
|      36 | 0xFFFFFFE3  |  4294967267 |

## Events

### Event 65535

#### Metadata

| Field        | Value   |
|--------------|---------|
| Entrypoint   | 0x0000  |
| Data Size    | 1 bytes |
| Instructions | 1       |

```
      00 01 02 03 04 05 06 07  08 09 0A 0B 0C 0D 0E 0F
      -- -- -- -- -- -- -- --  -- -- -- -- -- -- -- --
0000: 00                                                .               
```

#### Opcodes

```
  0: 0x0000 [0x00] END_REQSTACK()
```

### Event 7

#### Metadata

| Field        | Value   |
|--------------|---------|
| Entrypoint   | 0x0001  |
| Data Size    | 1 bytes |
| Instructions | 1       |

```
      00 01 02 03 04 05 06 07  08 09 0A 0B 0C 0D 0E 0F
      -- -- -- -- -- -- -- --  -- -- -- -- -- -- -- --
0000:    00                                              .              
```

#### Opcodes

```
  0: 0x0001 [0x00] END_REQSTACK()
```

### Event 65535.1

#### Metadata

| Field        | Value    |
|--------------|----------|
| Entrypoint   | 0x0002   |
| Data Size    | 10 bytes |
| Instructions | 2        |

```
      00 01 02 03 04 05 06 07  08 09 0A 0B 0C 0D 0E 0F
      -- -- -- -- -- -- -- --  -- -- -- -- -- -- -- --
0000:       6C F6 92 08 01 00  80 01 80 00                l.........    
```

#### Opcodes

```
  0: 0x0002 [0x6C] FADE_ENTITY_COLOR(entity_id=04 (ID: 17339126/0x010892F6), end_alpha=0*, fade_time=1*)
  1: 0x000B [0x00] END_REQSTACK()
```

### Event 65535.2

#### Metadata

| Field        | Value    |
|--------------|----------|
| Entrypoint   | 0x000C   |
| Data Size    | 10 bytes |
| Instructions | 2        |

```
      00 01 02 03 04 05 06 07  08 09 0A 0B 0C 0D 0E 0F
      -- -- -- -- -- -- -- --  -- -- -- -- -- -- -- --
0000:                                      6C F6 92 08              l...
0010: 01 02 80 01 80 00                                 ......          
```

#### Opcodes

```
  0: 0x000C [0x6C] FADE_ENTITY_COLOR(entity_id=04 (ID: 17339126/0x010892F6), end_alpha=128*, fade_time=1*)
  1: 0x0015 [0x00] END_REQSTACK()
```

### Event 31

#### Metadata

| Field        | Value   |
|--------------|---------|
| Entrypoint   | 0x0016  |
| Data Size    | 1 bytes |
| Instructions | 1       |

```
      00 01 02 03 04 05 06 07  08 09 0A 0B 0C 0D 0E 0F
      -- -- -- -- -- -- -- --  -- -- -- -- -- -- -- --
0010:                   00                                    .         
```

#### Opcodes

```
  0: 0x0016 [0x00] END_REQSTACK()
```

### Event 65535.3

#### Metadata

| Field        | Value    |
|--------------|----------|
| Entrypoint   | 0x0017   |
| Data Size    | 74 bytes |
| Instructions | 11       |

```
      00 01 02 03 04 05 06 07  08 09 0A 0B 0C 0D 0E 0F
      -- -- -- -- -- -- -- --  -- -- -- -- -- -- -- --
0010:                      32  03 80 1F 00 04 80 05 80         2........
0020: 06 80 1F 01 79 00 F5 92  08 01 F6 92 08 01 1E F3  ....y...........
0030: 92 08 01 1C 07 80 66 08  80 F6 92 08 01 F6 92 08  ......f.........
0040: 01 74 6C 6B 30 4A F3 92  08 01 F6 92 08 01 1C 09  .tlk0J..........
0050: 80 66 08 80 F3 92 08 01  F3 92 08 01 74 68 6B 31  .f..........thk1
0060: 00                                                .               
```

#### Opcodes

```
  0: 0x0017 [0x32] ExtData[1]->MainSpeed = 13* * 0.1
  1: 0x001A [0x1F] MOVE_ENTITY: EventEntity moves to X=-180.794*, Z=-83.748*, Y=-2.785*
  2: 0x0022 [0x1F] MOVE_ENTITY: Update entity position (mode=1)
  3: 0x0024 [0x79] 03 (ID: 17339125/0x010892F5) looks at 04 (ID: 17339126/0x010892F6) (Basic look)
  4: 0x002E [0x1E] EventEntity looks at 01 (ID: 17339123/0x010892F3) and starts talking
  5: 0x0033 [0x1C] WAIT(60* ticks)
  6: 0x0036 [0x66] LOAD_EXT_SCHEDULER_MAIN: Load scheduler "tlk0" with entities [04 (ID: 17339126/0x010892F6), 04 (ID: 17339126/0x010892F6)], work=39*
  7: 0x0045 [0x4A] 01 (ID: 17339123/0x010892F3) looks at 04 (ID: 17339126/0x010892F6)
  8: 0x004E [0x1C] WAIT(120* ticks)
  9: 0x0051 [0x66] LOAD_EXT_SCHEDULER_MAIN: Load scheduler "thk1" with entities [01 (ID: 17339123/0x010892F3), 01 (ID: 17339123/0x010892F3)], work=39*
 10: 0x0060 [0x00] END_REQSTACK()
```

### Event 17

#### Metadata

| Field        | Value   |
|--------------|---------|
| Entrypoint   | 0x0061  |
| Data Size    | 1 bytes |
| Instructions | 1       |

```
      00 01 02 03 04 05 06 07  08 09 0A 0B 0C 0D 0E 0F
      -- -- -- -- -- -- -- --  -- -- -- -- -- -- -- --
0060:    00                                              .              
```

#### Opcodes

```
  0: 0x0061 [0x00] END_REQSTACK()
```

### Event 65535.4

#### Metadata

| Field        | Value    |
|--------------|----------|
| Entrypoint   | 0x0062   |
| Data Size    | 26 bytes |
| Instructions | 3        |

```
      00 01 02 03 04 05 06 07  08 09 0A 0B 0C 0D 0E 0F
      -- -- -- -- -- -- -- --  -- -- -- -- -- -- -- --
0060:       B6 0B 0A 80 0B 80  0C 80 0D 80 0E 80 0C 80    ..............
0070: 03 80 0F 80 00 80 80 F6  92 08 01 00              ............    
```

#### Opcodes

```
  0: 0x0062 [0xB6] ENTITY_APPEARANCE_HANDLER(case=Full entity look, race=4*, hair=6*, head=29*, body=33*, hands=26*, legs=29*, feet=13*, main=202*, sub=0*)
  1: 0x0076 [0x80] LOAD_WAIT(entity=04 (ID: 17339126/0x010892F6))
  2: 0x007B [0x00] END_REQSTACK()
```

### Event 65535.5

#### Metadata

| Field        | Value    |
|--------------|----------|
| Entrypoint   | 0x007C   |
| Data Size    | 21 bytes |
| Instructions | 2        |

```
      00 01 02 03 04 05 06 07  08 09 0A 0B 0C 0D 0E 0F
      -- -- -- -- -- -- -- --  -- -- -- -- -- -- -- --
0070:                                      B6 0B 01 80              ....
0080: 10 80 11 80 11 80 11 80  11 80 11 80 12 80 00 80  ................
0090: 00                                                .               
```

#### Opcodes

```
  0: 0x007C [0xB6] ENTITY_APPEARANCE_HANDLER(case=Full entity look, race=1*, hair=3*, head=2*, body=2*, hands=2*, legs=2*, feet=2*, main=251*, sub=0*)
  1: 0x0090 [0x00] END_REQSTACK()
```

### Event 65535.6

#### Metadata

| Field        | Value    |
|--------------|----------|
| Entrypoint   | 0x0091   |
| Data Size    | 21 bytes |
| Instructions | 2        |

```
      00 01 02 03 04 05 06 07  08 09 0A 0B 0C 0D 0E 0F
      -- -- -- -- -- -- -- --  -- -- -- -- -- -- -- --
0090:    B6 0B 13 80 14 80 15  80 16 80 16 80 17 80 03   ...............
00A0: 80 12 80 00 80 00                                 ......          
```

#### Opcodes

```
  0: 0x0091 [0xB6] ENTITY_APPEARANCE_HANDLER(case=Full entity look, race=7*, hair=10*, head=137*, body=16*, hands=16*, legs=14*, feet=13*, main=251*, sub=0*)
  1: 0x00A5 [0x00] END_REQSTACK()
```

### Event 65535.7

#### Metadata

| Field        | Value    |
|--------------|----------|
| Entrypoint   | 0x00A6   |
| Data Size    | 14 bytes |
| Instructions | 4        |

```
      00 01 02 03 04 05 06 07  08 09 0A 0B 0C 0D 0E 0F
      -- -- -- -- -- -- -- --  -- -- -- -- -- -- -- --
00A0:                   32 03  80 1F 00 18 80 19 80 1A        2.........
00B0: 80 1F 01 00                                       ....            
```

#### Opcodes

```
  0: 0x00A6 [0x32] ExtData[1]->MainSpeed = 13* * 0.1
  1: 0x00A9 [0x1F] MOVE_ENTITY: EventEntity moves to X=523.735*, Z=-278.096*, Y=-0.013*
  2: 0x00B1 [0x1F] MOVE_ENTITY: Update entity position (mode=1)
  3: 0x00B3 [0x00] END_REQSTACK()
```

### Event 65535.8

#### Metadata

| Field        | Value    |
|--------------|----------|
| Entrypoint   | 0x00B4   |
| Data Size    | 14 bytes |
| Instructions | 4        |

```
      00 01 02 03 04 05 06 07  08 09 0A 0B 0C 0D 0E 0F
      -- -- -- -- -- -- -- --  -- -- -- -- -- -- -- --
00B0:             32 03 80 1F  00 1B 80 1C 80 1D 80 1F      2...........
00C0: 01 00                                             ..              
```

#### Opcodes

```
  0: 0x00B4 [0x32] ExtData[1]->MainSpeed = 13* * 0.1
  1: 0x00B7 [0x1F] MOVE_ENTITY: EventEntity moves to X=528.262*, Z=-274.543*, Y=0.199*
  2: 0x00BF [0x1F] MOVE_ENTITY: Update entity position (mode=1)
  3: 0x00C1 [0x00] END_REQSTACK()
```

### Event 65535.9

#### Metadata

| Field        | Value    |
|--------------|----------|
| Entrypoint   | 0x00C2   |
| Data Size    | 14 bytes |
| Instructions | 4        |

```
      00 01 02 03 04 05 06 07  08 09 0A 0B 0C 0D 0E 0F
      -- -- -- -- -- -- -- --  -- -- -- -- -- -- -- --
00C0:       32 1E 80 1F 00 1F  80 20 80 21 80 1F 01 00    2...... .!....
```

#### Opcodes

```
  0: 0x00C2 [0x32] ExtData[1]->MainSpeed = 8* * 0.1
  1: 0x00C5 [0x1F] MOVE_ENTITY: EventEntity moves to X=521.263*, Z=-265.869*, Y=0.609*
  2: 0x00CD [0x1F] MOVE_ENTITY: Update entity position (mode=1)
  3: 0x00CF [0x00] END_REQSTACK()
```

### Event 65535.10

#### Metadata

| Field        | Value    |
|--------------|----------|
| Entrypoint   | 0x00D0   |
| Data Size    | 14 bytes |
| Instructions | 4        |

```
      00 01 02 03 04 05 06 07  08 09 0A 0B 0C 0D 0E 0F
      -- -- -- -- -- -- -- --  -- -- -- -- -- -- -- --
00D0: 32 03 80 1F 00 22 80 23  80 24 80 1F 01 00        2....".#.$....  
```

#### Opcodes

```
  0: 0x00D0 [0x32] ExtData[1]->MainSpeed = 13* * 0.1
  1: 0x00D3 [0x1F] MOVE_ENTITY: EventEntity moves to X=522.084*, Z=-284.580*, Y=-0.029*
  2: 0x00DB [0x1F] MOVE_ENTITY: Update entity position (mode=1)
  3: 0x00DD [0x00] END_REQSTACK()
```
