# 17339120 - kisi07

## Common Data

| Field            | Value                   |
|------------------|-------------------------|
| Zone             | Xarcabard [S] (ID: 137) |
| Block Size       | 328 bytes               |
| Total Events     | 11                      |
| References Count | 22                      |

## List of Events

| Event ID                 | Entrypoint   |   Size |   Instructions |
|--------------------------|--------------|--------|----------------|
| [65535](#event-65535)    | 0x0000       |      1 |              1 |
| [17](#event-17)          | 0x0001       |      1 |              1 |
| [65535.1](#event-655351) | 0x0002       |     30 |              4 |
| [65535.2](#event-655352) | 0x0020       |     21 |              2 |
| [65535.3](#event-655353) | 0x0035       |     14 |              4 |
| [42](#event-42)          | 0x0043       |      1 |              1 |
| [65535.4](#event-655354) | 0x0044       |     21 |              2 |
| [65535.5](#event-655355) | 0x0059       |     14 |              4 |
| [65535.6](#event-655356) | 0x0067       |     21 |              2 |
| [65535.7](#event-655357) | 0x007C       |     32 |              7 |
| [65535.8](#event-655358) | 0x009C       |     21 |              2 |

## DAT References (imed_data)

|   Index | Hex Value   |   Dec Value |
|---------|-------------|-------------|
|       0 | 0x0003      |           3 |
|       1 | 0x0008      |           8 |
|       2 | 0x000D      |          13 |
|       3 | 0x00DD      |         221 |
|       4 | 0x000C      |          12 |
|       5 | 0x00FB      |         251 |
|       6 | 0x001B      |          27 |
|       7 | 0x0064      |         100 |
|       8 | 0x0005      |           5 |
|       9 | 0x0006      |           6 |
|      10 | 0x008F      |         143 |
|      11 | 0x0000      |           0 |
|      12 | 0x7FD2B     |      523563 |
|      13 | 0xFFFBBEFF  |  4294688511 |
|      14 | 0x0002      |           2 |
|      15 | 0x0011      |          17 |
|      16 | 0x000F      |          15 |
|      17 | 0xE1A5      |       57765 |
|      18 | 0xFFFCBC39  |  4294753337 |
|      19 | 0xFFFFA36D  |  4294943597 |
|      20 | 0x0001      |           1 |
|      21 | 0x00CA      |         202 |

## Events

### Event 65535

#### Metadata

| Field        | Value   |
|--------------|---------|
| Entrypoint   | 0x0000  |
| Data Size    | 1 bytes |
| Instructions | 1       |

```
      00 01 02 03 04 05 06 07  08 09 0A 0B 0C 0D 0E 0F
      -- -- -- -- -- -- -- --  -- -- -- -- -- -- -- --
0000: 00                                                .               
```

#### Opcodes

```
  0: 0x0000 [0x00] END_REQSTACK()
```

### Event 17

#### Metadata

| Field        | Value   |
|--------------|---------|
| Entrypoint   | 0x0001  |
| Data Size    | 1 bytes |
| Instructions | 1       |

```
      00 01 02 03 04 05 06 07  08 09 0A 0B 0C 0D 0E 0F
      -- -- -- -- -- -- -- --  -- -- -- -- -- -- -- --
0000:    00                                              .              
```

#### Opcodes

```
  0: 0x0001 [0x00] END_REQSTACK()
```

### Event 65535.1

#### Metadata

| Field        | Value    |
|--------------|----------|
| Entrypoint   | 0x0002   |
| Data Size    | 30 bytes |
| Instructions | 4        |

```
      00 01 02 03 04 05 06 07  08 09 0A 0B 0C 0D 0E 0F
      -- -- -- -- -- -- -- --  -- -- -- -- -- -- -- --
0000:       B6 0B 00 80 01 80  02 80 03 80 02 80 04 80    ..............
0010: 03 80 05 80 06 80 B6 0F  07 80 80 F0 92 08 01 00  ................
```

#### Opcodes

```
  0: 0x0002 [0xB6] ENTITY_APPEARANCE_HANDLER(case=Full entity look, race=3*, hair=8*, head=13*, body=221*, hands=13*, legs=12*, feet=221*, main=251*, sub=27*)
  1: 0x0016 [0xB6] ENTITY_APPEARANCE_HANDLER(case=Model size, value=100*)
  2: 0x001A [0x80] LOAD_WAIT(entity=kisi07 (ID: 17339120/0x010892F0))
  3: 0x001F [0x00] END_REQSTACK()
```

### Event 65535.2

#### Metadata

| Field        | Value    |
|--------------|----------|
| Entrypoint   | 0x0020   |
| Data Size    | 21 bytes |
| Instructions | 2        |

```
      00 01 02 03 04 05 06 07  08 09 0A 0B 0C 0D 0E 0F
      -- -- -- -- -- -- -- --  -- -- -- -- -- -- -- --
0020: B6 0B 08 80 09 80 0A 80  0A 80 0A 80 0A 80 0A 80  ................
0030: 0B 80 0B 80 00                                    .....           
```

#### Opcodes

```
  0: 0x0020 [0xB6] ENTITY_APPEARANCE_HANDLER(case=Full entity look, race=5*, hair=6*, head=143*, body=143*, hands=143*, legs=143*, feet=143*, main=0*, sub=0*)
  1: 0x0034 [0x00] END_REQSTACK()
```

### Event 65535.3

#### Metadata

| Field        | Value    |
|--------------|----------|
| Entrypoint   | 0x0035   |
| Data Size    | 14 bytes |
| Instructions | 4        |

```
      00 01 02 03 04 05 06 07  08 09 0A 0B 0C 0D 0E 0F
      -- -- -- -- -- -- -- --  -- -- -- -- -- -- -- --
0030:                32 02 80  1F 00 0C 80 0D 80 0B 80       2..........
0040: 1F 01 00                                          ...             
```

#### Opcodes

```
  0: 0x0035 [0x32] ExtData[1]->MainSpeed = 13* * 0.1
  1: 0x0038 [0x1F] MOVE_ENTITY: EventEntity moves to X=523.563*, Z=-278.785*, Y=0.000*
  2: 0x0040 [0x1F] MOVE_ENTITY: Update entity position (mode=1)
  3: 0x0042 [0x00] END_REQSTACK()
```

### Event 42

#### Metadata

| Field        | Value   |
|--------------|---------|
| Entrypoint   | 0x0043  |
| Data Size    | 1 bytes |
| Instructions | 1       |

```
      00 01 02 03 04 05 06 07  08 09 0A 0B 0C 0D 0E 0F
      -- -- -- -- -- -- -- --  -- -- -- -- -- -- -- --
0040:          00                                          .            
```

#### Opcodes

```
  0: 0x0043 [0x00] END_REQSTACK()
```

### Event 65535.4

#### Metadata

| Field        | Value    |
|--------------|----------|
| Entrypoint   | 0x0044   |
| Data Size    | 21 bytes |
| Instructions | 2        |

```
      00 01 02 03 04 05 06 07  08 09 0A 0B 0C 0D 0E 0F
      -- -- -- -- -- -- -- --  -- -- -- -- -- -- -- --
0040:             B6 0B 01 80  02 80 0E 80 0E 80 0E 80      ............
0050: 0E 80 0E 80 05 80 0B 80  00                       .........       
```

#### Opcodes

```
  0: 0x0044 [0xB6] ENTITY_APPEARANCE_HANDLER(case=Full entity look, race=8*, hair=13*, head=2*, body=2*, hands=2*, legs=2*, feet=2*, main=251*, sub=0*)
  1: 0x0058 [0x00] END_REQSTACK()
```

### Event 65535.5

#### Metadata

| Field        | Value    |
|--------------|----------|
| Entrypoint   | 0x0059   |
| Data Size    | 14 bytes |
| Instructions | 4        |

```
      00 01 02 03 04 05 06 07  08 09 0A 0B 0C 0D 0E 0F
      -- -- -- -- -- -- -- --  -- -- -- -- -- -- -- --
0050:                             32 02 80 1F 00 0C 80           2......
0060: 0D 80 0B 80 1F 01 00                              .......         
```

#### Opcodes

```
  0: 0x0059 [0x32] ExtData[1]->MainSpeed = 13* * 0.1
  1: 0x005C [0x1F] MOVE_ENTITY: EventEntity moves to X=523.563*, Z=-278.785*, Y=0.000*
  2: 0x0064 [0x1F] MOVE_ENTITY: Update entity position (mode=1)
  3: 0x0066 [0x00] END_REQSTACK()
```

### Event 65535.6

#### Metadata

| Field        | Value    |
|--------------|----------|
| Entrypoint   | 0x0067   |
| Data Size    | 21 bytes |
| Instructions | 2        |

```
      00 01 02 03 04 05 06 07  08 09 0A 0B 0C 0D 0E 0F
      -- -- -- -- -- -- -- --  -- -- -- -- -- -- -- --
0060:                      B6  0B 08 80 0E 80 0B 80 0F         .........
0070: 80 0B 80 0B 80 0B 80 0B  80 0B 80 00              ............    
```

#### Opcodes

```
  0: 0x0067 [0xB6] ENTITY_APPEARANCE_HANDLER(case=Full entity look, race=5*, hair=2*, head=0*, body=17*, hands=0*, legs=0*, feet=0*, main=0*, sub=0*)
  1: 0x007B [0x00] END_REQSTACK()
```

### Event 65535.7

#### Metadata

| Field        | Value    |
|--------------|----------|
| Entrypoint   | 0x007C   |
| Data Size    | 32 bytes |
| Instructions | 7        |

```
      00 01 02 03 04 05 06 07  08 09 0A 0B 0C 0D 0E 0F
      -- -- -- -- -- -- -- --  -- -- -- -- -- -- -- --
0070:                                      59 04 F8 FF              Y...
0080: FF 7F 02 80 1C 10 80 1F  00 11 80 12 80 13 80 1F  ................
0090: 01 6F 4A F8 FF FF 7F F2  92 08 01 00              .oJ.........    
```

#### Opcodes

```
  0: 0x007C [0x59] UPDATE_ENTITY_DATA: Set EventEntity main speed = 13* * 0.1
  1: 0x0084 [0x1C] WAIT(15* ticks)
  2: 0x0087 [0x1F] MOVE_ENTITY: EventEntity moves to X=57.765*, Z=-213.959*, Y=-23.699*
  3: 0x008F [0x1F] MOVE_ENTITY: Update entity position (mode=1)
  4: 0x0091 [0x6F] WAIT_FRAME_DELAY: Yield until WaitTime reaches zero
  5: 0x0092 [0x4A] EventEntity looks at kisi09 (ID: 17339122/0x010892F2)
  6: 0x009B [0x00] END_REQSTACK()
```

### Event 65535.8

#### Metadata

| Field        | Value    |
|--------------|----------|
| Entrypoint   | 0x009C   |
| Data Size    | 21 bytes |
| Instructions | 2        |

```
      00 01 02 03 04 05 06 07  08 09 0A 0B 0C 0D 0E 0F
      -- -- -- -- -- -- -- --  -- -- -- -- -- -- -- --
0090:                                      B6 0B 14 80              ....
00A0: 08 80 08 80 08 80 08 80  08 80 08 80 15 80 0B 80  ................
00B0: 00                                                .               
```

#### Opcodes

```
  0: 0x009C [0xB6] ENTITY_APPEARANCE_HANDLER(case=Full entity look, race=1*, hair=5*, head=5*, body=5*, hands=5*, legs=5*, feet=5*, main=202*, sub=0*)
  1: 0x00B0 [0x00] END_REQSTACK()
```
